0124822800999991989010318004-02533-044283FM-12+005199999V0200901N00511004201CN0200001N9+02601+02461100851ADDAA106004091AG10999AY121061AY221061GF107991051061004501021999MA1999999100241MD1999999+0001MW1211REMSYN017333   58000 60041
0121822800999991989010412004-02533-044283FM-12+005199999V0200901N00151004201CN0100001N9+02801+02501101161ADDAA124004091AG10999GF106991051021004501001011KA1240N+02451MA1999999100581MD1999999+0061REMSYN023333   20245 58006 60044
0115822800999991989010500004-02533-044283FM-12+005199999V0200501N00151220001CN0100001N9+02581+02381100991ADDAA106000091AG10999GF100991001001999999001001KA1240M+03151MA1999999100411MD1999999-0021REMSYN017333   10315 59002
0115822800999991989010512004-02533-044283FM-12+005199999V0200901N00311004201CN0100001N9+02781+02461101161ADDAA106000091AG10999GF106991061021004501001001KA1240N+02481MA1999999100581MD1999999+0001REMSYN017333   20248 58000
0096822800999991989010518004-02533-044283FM-12+005199999V0209999999999220001CN0100001N9+03121+02361100851ADDAA106000091AG10999GF102991011011008001001011MA1999999100481MD1999999-0011REMSYN011333   59001
0115822800999991989010612004-02533-044283FM-12+005199999V0200901N00311004201CN0100001N9+02831+02501101121ADDAA106000091AG10999GF106991061021004501001001KA1240N+02401MA1999999100541MD1999999-0041REMSYN017333   20240 59004
0096822800999991989010700004-02533-044283FM-12+005199999V0200501N00311045001CN0100001N9+03061+02381100811ADDAA106000091AG10999GF106991041021004501011001MA1999999100241MD1999999-0041REMSYN011333   59004
0143822800999991989010812004-02533-044283FM-12+005199999V0200501N00151004201CN0100001N9+02611+02501100891ADDAA124002091AG10999AY161061AY261061GF108991061051004501021999KA1240N+02271MA1999999100311MD1999999-0051MW1911REMSYN023333   20227 59005 60024
0124822800999991989010818004-02533-044283FM-12+005199999V0200501N00151045001CN0100001N9+02741+02591100631ADDAA106001091AG10999AY161061AY261061GF107991041051004501021001MA1999999100051MD1999999-0071MW1021REMSYN017333   59007 60011
0121822800999991989011012004-02533-044283FM-12+005199999V0200901N00311004201CN0100001N9+02801+02521101181ADDAA124006091AG10999GF106991061021004501001001KA1240N+02231MA1999999100601MD1999999+0151REMSYN023333   20223 58015 60064
0096822800999991989011018004-02533-044283FM-12+005199999V0203601N00311045001CN0100001N9+02881+02371100941ADDAA106000091AG10999GF106991041021004501011001MA1999999100361MD1999999+0201REMSYN011333   58020
0134822800999991989011100004-02533-044283FM-12+005199999V0209991C00001220001CN0100001N9+02441+02261101101ADDAA106000091AG10999GF100991001001999999001001KA1240M+99999MA1999999100521MD1999999+0021REMSYN017333   10228 58002EQDQ01 +02282ATMX  
0115822800999991989011112004-02533-044283FM-12+005199999V0200901N00151004201CN0100001N9+02651+02441101141ADDAA106000091AG10999GF106991061021004501001001KA1240N+02251MA1999999100521MD1999999-0041REMSYN017333   20225 59004
0143822800999991989011212004-02533-044283FM-12+005199999V0201801N00101045001CN0100001N9+02521+02361101191ADDAA124005091AG10999AY161061AY261061GF107991041051004501031001KA1240N+02101MA1999999100611MD1999999+0051MW1021REMSYN023333   20210 58005 60054
0143822800999991989011300004-02533-044283FM-12+005199999V0209991C00001045001CN0100001N9+02421+02371101091ADDAA106003091AG10999AY161061AY261061GF107991031051004501021001KA1240M+03021MA1999999100511MD1999999-0011MW1021REMSYN023333   10302 59001 60031
0154822800999991989011412004-02533-044283FM-12+005199999V0209991C00001004201CN0100001N9+02581+02441101341ADDAA106000091AA224008091AG10999AY161061AY261061GF108991081051004501999999KA1240N+02201MA1999999100811MD1999999+0151MW1021REMSYN023333   20220 58015 60084
0096822800999991989011618004-02533-044283FM-12+005199999V0203601N00261220001CN0100001N9+02961+02471101001ADDAA106000091AG10999GF106991031021004501001011MA1999999100431MD1999999-0031REMSYN011333   59003
0115822800999991989011700004-02533-044283FM-12+005199999V0200501N00101220001CN0100001N9+02541+02441101161ADDAA106000091AG10999GF104991041021004501001001KA1240M+03071MA1999999100581MD1999999+0051REMSYN017333   10307 58005
0123822800999991989011703004-02533-044283FM-12+005199999V0202401N00211004201CN0060001N9+00682+00402101942ADDAG10999AY121031AY221031GF108991081051004501999999MD1810151+9999MW1611EQDQ01+028003ATOT  Q02+027723ATOD  Q03+101943APOSLP
0115822800999991989011712004-02533-044283FM-12+005199999V0200901N00361220001CN0100001N9+02821+02441101171ADDAA106000091AG10999GF106991031021004501001011KA1240N+02411MA1999999100591MD1999999-0101REMSYN017333   20241 59010
0096822800999991989011718004-02533-044283FM-12+005199999V0200501N00461220001CN0100001N9+03021+02391100951ADDAA106000091AG10999GF102991011011008001021011MA1999999100181MD1999999-0051REMSYN011333   59005
0096822800999991989011818004-02533-044283FM-12+005199999V0203601N00361045001CN0100001N9+03001+02321101001ADDAA106000091AG10999GF106991041021004501011001MA1999999100421MD1999999-0041REMSYN011333   59004
0096822800999991989011918004-02533-044283FM-12+005199999V0200501N00411004201CN0100001N9+02961+02281100811ADDAA106000091AG10999GF105991051021004501001001MA1999999100241MD1999999-0181REMSYN011333   59018
0115822800999991989012000004-02533-044283FM-12+005199999V0200501N00211220001CN0100001N9+02601+02401100951ADDAA106000091AG10999GF104991011011008001011001KA1240M+03061MA1999999100371MD1999999-0041REMSYN017333   10306 59004
0115822800999991989012012004-02533-044283FM-12+005199999V0200101N00311220001CN0100001N9+02811+02401101081ADDAA106000091AG10999GF104991031011004501001011KA1240N+02451MA1999999100501MD1999999+0041REMSYN017333   20245 58004
0096822800999991989012018004-02533-044283FM-12+005199999V0203601N00311045001CN0100001N9+02861+02391100811ADDAA106000091AG10999GF106991031021004501021011MA1999999100231MD1999999+0011REMSYN011333   58001
0115822800999991989012112004-02533-044283FM-12+005199999V0200901N00411045001CN0100001N9+02801+02381101081ADDAA106000091AG10999GF106991021011008001031001KA1240N+02481MA1999999100501MD1999999+0001REMSYN017333   20248 58000
0096822800999991989012118004-02533-044283FM-12+005199999V0203601N00411045001CN0100001N9+02981+02511100811ADDAA106000091AG10999GF106991031021004501011011MA1999999100241MD1999999+0011REMSYN011333   58001
0154822800999991989012300004-02533-044283FM-12+005199999V0200501N00151220001CN0100001N9+02361+02261100991ADDAA106000291AA299000391AG10999AY161061AY201061GF102991021051017501001001KA1240M+03051MA1999999100411MD1999999-0011MW1011REMSYN023333   10305 59001 69921
0132822800999991989012312004-02533-044283FM-12+005199999V0200901N00151004201CN0100001N9+02751+02471101051ADDAA124000291AA299000391AG10999GF106991061021004501001001KA1240N+02331MA1999999100471MD1999999-0101REMSYN023333   20233 59010 69924
0096822800999991989012318004-02533-044283FM-12+005199999V0203601N00311045001CN0100001N9+02881+02371100821ADDAA106000091AG10999GF106991041021017501031001MA1999999100241MD1999999+0021REMSYN011333   58002
0143822800999991989012400004-02533-044283FM-12+005199999V0209991C00001004201CN0020001N9+02461+02391101071ADDAA106002091AG10999AY161061AY221061GF108991081071004501999999KA1240M+03041MA1999999100491MD1999999+0081MW1601REMSYN023333   10304 58008 60021
0143822800999991989012412004-02533-044283FM-12+005199999V0200101N00101220001CN0100001N9+02571+02381100941ADDAA124032091AG10999AY161061AY261061GF104991011011004501031001KA1240N+02171MA1999999100341MD1999999-0141MW1011REMSYN023333   20217 59014 60324
0096822800999991989012418004-02533-044283FM-12+005199999V0200501N00311045001CN0100001N9+02811+02461100791ADDAA106000091AG10999GF107991031051004501031011MA1999999100211MD1999999-0031REMSYN011333   59003
0115822800999991989012500004-02533-044283FM-12+005199999V0209991C00001004201CN0100001N9+02361+02281100911ADDAA106000091AG10999GF107991051051004501031001KA1240M+02921MA1999999100331MD1999999-0161REMSYN017333   10292 59016
0159822800999991989012512004-02533-044283FM-12+005199999V0200901N001519999999N0100001N9+02461+02411101171ADDAA124027091AG19005AY191061AY261061GA1091+999999999GF109991041051008001011999KA1240N+02241MA1999999100591MD1999999-0251MW1021REMSYN023333   20224 59025 60274
0143822800999991989012514004-02533-044283FM-12+005199999V0200901N00151045001CN0100001N9+02461+02411101171ADDAA124027091AG10999AY191021AY261021GF108991041051008001011999KA1240N+02241MA1999999100591MD1999999-0251MW1021REMSYN023333   20224 59025 60274
0124822800999991989012518004-02533-044283FM-12+005199999V0200501N00211045001CN0040001N9+02361+02311100921ADDAA106002091AG19059AY161061AY221061GF108991041071004501021999MA1999999100141MD1999999+0131MW1611REMSYN017333   58013 60021
0143822800999991989012600004-02533-044283FM-12+005199999V0200601N00101045001CN0100001N9+02581+02251101081ADDAA106004091AG10999AY161061AY211061GF106991021011008001031001KA1240M+02661MA1999999100491MD1999999+0161MW1021REMSYN023333   10266 58016 60041
0121822800999991989012612004-02533-044283FM-12+005199999V0200501N00151004201CN0100001N9+02501+02361101141ADDAA124005091AG10999GF107991051031004501021001KA1240N+02221MA1999999100521MD1999999-0031REMSYN023333   20222 59003 60054
0096822800999991989012618004-02533-044283FM-12+005199999V0200501N00311045001CN0100001N9+02901+02341100791ADDAA106000091AG10999GF106991041021004501011001MA1999999100211MD1999999-0131REMSYN011333   59013
0134822800999991989012712004-02533-044283FM-12+005199999V0200501N00311220001CN0100001N9+02541+02241100961ADDAA106000091AG10999GF104991999021004501001001KA1240N+02321MA1999999100381MD1999999-0101REMSYN017333   20232 59010EQDQ01+000032SCOTLC
0096822800999991989012718004-02533-044283FM-12+005199999V0200901N00151045001CN0100001N9+02641+02371100801ADDAA106000091AG10999GF106991031021004501051001MA1999999100221MD1999999+0011REMSYN011333   58001
0115822800999991989012800004-02533-044283FM-12+005199999V0200901N00211045001CN0100001N9+02601+02461100911ADDAA106000091AG10999GF105991041021004501011001KA1240M+03021MA1999999100331MD1999999+0021REMSYN017333   10302 58002
0115822800999991989012812004-02533-044283FM-12+005199999V0201401N00151004201CN0100001N9+02641+02461101021ADDAA106000091AG10999GF108991051051004501021999KA1240N+02411MA1999999100441MD1999999+0061REMSYN017333   20241 58006
0115822800999991989012900004-02533-044283FM-12+005199999V0200901N00101045001CN0100001N9+02581+02541100911ADDAA106000091AG10999GF106991031051004501031001KA1240M+03091MA1999999100331MD1999999+0001REMSYN017333   10309 58000
0115822800999991989012912004-02533-044283FM-12+005199999V0201801N00151045001CN0100001N9+02621+02521101051ADDAA106000091AG10999GF106991031011008001031001KA1240N+02301MA1999999100471MD1999999+0031REMSYN017333   20230 58003
0096822800999991989012918004-02533-044283FM-12+005199999V0200901N00261220001CN0100001N9+99999+99999100741ADDAA106000091AG10999GF106991031011004501001011MA1999999100171MD1999999+0011REMSYN011333   58001
0115822800999991989013000004-02533-044283FM-12+005199999V0200901N00151220001CN0100001N9+02521+02421100961ADDAA106000091AG10999GF102991021011008001031011KA1240M+03121MA1999999100381MD1999999+0051REMSYN017333   10312 58005
0134822800999991989013012004-02533-044283FM-12+005199999V0200901N00211004201CN0100001N9+02721+02541101011ADDAA106000091AG10999GF108991999051004501021999KA1240N+02431MA1999999100431MD1999999-0041REMSYN017333   20243 59004EQDQ01+000082SCOTLC
0096822800999991989013018004-02533-044283FM-12+005199999V0200901N00211004201CN0100001N9+02731+02401100791ADDAA106000091AG10999GF108991051031004501021999MA1999999100211MD1999999+0041REMSYN011333   58004
0115822800999991989013100004-02533-044283FM-12+005199999V0200901N00101220001CN0100001N9+02501+02361100911ADDAA106000091AG10999GF101991011011008001001001KA1240M+02901MA1999999100331MD1999999-0051REMSYN017333   10290 59005
0173822800999991989013112004-02533-044283FM-12+005199999V0200501N00311004201CN0100001N9+02761+02401101051ADDAA124000291AA299000391AG10999AY101061AY221061GF108991999051004501021999KA1240N+02331MA1999999100471MD1999999+0071MW1611REMSYN023333   20233 58007 69924EQDQ01+000082SCOTLC
0124822800999991989013118004-02533-044283FM-12+005199999V0209991C00001004201CN0100001N9+02361+02221100891ADDAA112001091AG10999AY121061AY221061GF108991051061004501021999MA1999999100311MD1999999+0101MW1211REMSYN017333   58010 60012
0156822800999991989020100004-02533-044283FM-12+005199999V0209991C00001004201CN0100001N9+02401+02261101061ADDAA148001091AG10999AY161061AY221061GF108991061051004501021999KA1240M+03301MA1999999100481MD1999999+0151REMSYN023333   10330 58015 60018EQDQ01+000222PRSWM1
0143822800999991989020112004-02533-044283FM-12+005199999V0200901N00101045001CN0100001N9+02701+02261101091ADDAA124004091AG10999AY101061AY221061GF107991021011004501071011KA1240N+02311MA1999999100141MD1999999+0041MW1021REMSYN023333   20231 58004 60044
0115822800999991989020200004-02533-044283FM-12+005199999V0209991C00001220001CN0100001N9+02501+02451100961ADDAA106000091AG10999GF104991021011008001031001KA1240M+03071MA1999999100881MD1999999-0101REMSYN017333   10307 59010
0096822800999991989020218004-02533-044283FM-12+005199999V0200501N00101007501CN0100001N9+02821+02481100821ADDAA106000091AG10999GF106991061051008001001001MA1999999101261MD1999999+0161REMSYN011333   58016
0134822800999991989020300004-02533-044283FM-12+005199999V0200501N00151220001CN0100001N9+02501+02401101011ADDAA106000091AG10999GF103991011011008001001011KA1240M+03101MA1999999100432MD1999999+0051REMSYN017333   10310 58005EQDQ01+100433APOSP 
0115822800999991989020312004-02533-044283FM-12+005199999V0200501N00211045001CN0100001N9+02691+02451101171ADDAA106000091AG10999GF106991031021008001061001KA1240N+02411MA1999999100591MD1999999+0021REMSYN017333   20241 58002
0096822800999991989020318004-02533-044283FM-12+005199999V0200501N00211220001CN0100001N9+02931+02561101151ADDAA106000091AG10999GF106991041021008001001011MA1999999100581MD1999999+0071REMSYN011333   58007
0115822800999991989020400004-02533-044283FM-12+005199999V0200501N00211220001CN0100001N9+02561+02441101101ADDAA106000091AG10999GF102991021011008001001001KA1240M+03021MA1999999100521MD1999999+0091REMSYN017333   10302 58009
0096822800999991989020418004-02533-044283FM-12+005199999V0203601N00311045001CN0100001N9+02801+02251101021ADDAA106000091AG10999GF106991021031004501021021MA1999999100441MD1999999+0161REMSYN011333   58016
0115822800999991989020500004-02533-044283FM-12+005199999V0209991C00001220001CN0100001N9+02501+02321101151ADDAA106000091AG10999GF102991011011008001001999KA1240M+03021MA1999999100571MD1999999+0051REMSYN017333   10302 58005
0134822800999991989020512004-02533-044283FM-12+005199999V0200901N002119999999N0100001N9+02801+02381101311ADDAA106000091AG10999GF105991999021004501001001KA1240N+02311MA1999999100721MD1999999+0021REMSYN017333   20231 58002EQDQ01+000032SCOTLC
0156822800999991989020600004-02533-044283FM-12+005199999V0209991C00001220001CN0100001N9+02381+02211101101ADDAA106004091AG10999AY161061AY221061GF102991021011008001001001KA1240M+03031MA1999999100521MD1999999-0051REMSYN023333   10303 59005 60041EQDQ01+000222PRSWM1
0121822800999991989020612004-02533-044283FM-12+005199999V0209991C00001220001CN0100001N9+02721+02481101931ADDAA124006091AG10999GF105991031021004501001011KA1240N+02231MA1999999100651MD1999999-0021REMSYN023333   20223 59002 60064
0115822800999991989020618004-02533-044283FM-12+005199999V0200901N00311045001CN0100001N9+02921+02481100932ADDAA106000091AG10999GF106991011011012501061011MA1999999100351MD1999999-0091REMSYN011333   59009EQDQ01+100933APOSLP
0115822800999991989021200004-02533-044283FM-12+005199999V0200501N00211045001CN0100001N9+02561+02401101001ADDAA106000091AG10999GF106991041021008001061001KA1240M+02941MA1999999100421MD1999999-0131REMSYN017333   10294 59013
0121822800999991989021204004-02533-044283FM-12+005199999V0200901N00311045001CN0100001N9+02721+02401101251ADDAA124002091AG10999GF106991041021004501031001KA1240N+02311MA1999999100671MD1999999+0061REMSYN023333   20231 58006 60024
0096822800999991989021218004-02533-044283FM-12+005199999V0200901N00311045001CN0100001N9+02861+02371100961ADDAA106000091AG10999GF106991041051004501021001MA1999999100381MD1999999-0051REMSYN011333   59005
0096822800999991989021318004-02533-044283FM-12+005199999V0200501N00311045001CN0100001N9+02821+02381100971ADDAA106000091AG10999GF106991041041004501031001MA1999999100191MD1999999-0191REMSYN011333   59019
0134822800999991989021412004-02533-044283FM-12+005199999V0200501N00101045001CN0100001N9+02561+02251101161ADDAA106000091AG10999GF106991021051004501031001KA1240N+99999MA1999999099201MD1999999-0071REMSYN017333   20296 59007EQDQ01 +02962ATMN  
0143822800999991989021418004-02533-044283FM-12+005199999V0200501N00211045001CN0100001N9+02701+02431100651ADDAA106006091AG10999AY191061AY261061GF108991031011008001071011MA1999999100072MD1999999-0121MW1021REMSYN017333   59012 60061EQDQ01+100073APOSP 
0143822800999991989021512004-02533-044283FM-12+005199999V0209991C00001004201CN0100001N9+02381+02341101001ADDAA124035091AG10999AY161061AY261061GF108991061061004501021999KA1240N+02201MA1999999100421MD1999999+0041MW1911REMSYN023333   20220 58004 60354
0135822800999991989021518004-02533-044283FM-12+005199999V0200901N00151009001CN0100001N9+02481+02301100691ADDAA106000291AA299000391AG10999AY161061AY261061GF108991061081004501021999MA1999999100111MD1999999+0041MW1911REMSYN017333   58004 69921
0137822800999991989021600004-02533-044283FM-12+005199999V0209991C00001007501CN0100001N9+02301+02251100951ADDAA106000091AG10999AY161061AY221061GF108991081051008001999999KA1240M+02901MA1999999100371MD1999999+0111MW1021REMSYN017333   10290 58011
0143822800999991989021612004-02533-044283FM-12+005199999V0209999999999045001CN0100001N9+02541+02351101051ADDAA124019091AG10999AY161061AY211061GF105991041021004501021001KA1240N+02221MA1999999100471MD1999999+0051MW1021REMSYN023333   20222 58005 60194
0100822800999991989021718004-02533-044283FM-12+005199999V0200901N00151004201CN0100001N9+02921+02391100791ADDAA106000091AG10999GF107991999021004501001001MD1999999-0061REMSYN011333   59006EQDQ01+000052SCOTLC
0115822800999991989021800004-02533-044283FM-12+005199999V0200901N00151045001CN0100001N9+02501+02311101011ADDAA106000091AG10999GF105991021011004501051001KA1240M+03091MA1999999100431MD1999999-0041REMSYN017333   10309 59004
0115822800999991989021812004-02533-044283FM-12+005199999V0200501N00211220001CN0100001N9+02801+02501101211ADDAA106000091AG10999GF107991041021004501001011KA1240N+02411MA1999999100611MD1999999+0041REMSYN017333   20241 58004
0096822800999991989021818004-02533-044283FM-12+005199999V0200601N00411045001CN0100001N9+02861+02481100891ADDAA106000091AG10999GF107991031061004501031011MA1999999100311MD1999999+0101REMSYN011333   58010
0143822800999991989021900004-02533-044283FM-12+005199999V0200501N00211045001CN0100001N9+02461+02371100991ADDAA106012091AG10999AY161061AY211061GF106991021011008001031071KA1240M+02951MA1999999100411MD1999999-0031MW1021REMSYN023333   10295 59003 60121
0143822800999991989021912004-02533-044283FM-12+005199999V0200501N00151105001CN0100001N9+02691+02451101211ADDAA124025091AG10999AY161061AY251061GF106991041021008001001021KA1240N+02411MA1999999100631MD1999999+0001MW1021REMSYN023333   20241 58000 60254
0115822800999991989022000004-02533-044283FM-12+005199999V0200501N00211220001CN0100001N9+02601+02551100951ADDAA106000091AG10999GF104991021021008001001011KA1240M+02991MA1999999100351MD1999999-0061REMSYN017333   10299 59006
0143822800999991989022012004-02533-044283FM-12+005199999V0200901N00151045001CN0100001N9+02741+02541101311ADDAA124003091AG10999AY161061AY211061GF106991041051004501021001KA1240N+02271MA1999999100731MD1999999+0101MW1021REMSYN023333   20227 58010 60034
0124822800999991989022018004-02533-044283FM-12+005199999V0203601N00411045001CN0100001N9+02861+02371100931ADDAA106001091AG10999AY161061AY221061GF106991031021004501051001MA1999999100351MD1999999+0041MW1171REMSYN017333   58004 60011
0143822800999991989022100004-02533-044283FM-12+005199999V0209991C00001045001CN0100001N9+02451+02341101171ADDAA106003091AG10999AY161061AY221061GF108991041051004501021999KA1240M+02961MA1999999100591MD1999999+0241MW1021REMSYN023333   10296 58024 60031
0132822800999991989022112004-02533-044283FM-12+005199999V0200501N00101004201CN0100001N9+02721+02431101281ADDAA124000491AA299000591AG10999GF108991051041004501021001KA1240N+02331MA1999999099701MD1999999-0031REMSYN023333   20233 59003 69944
0115822800999991989022200004-02533-044283FM-12+005199999V0200901N00101045001CN0100001N9+02501+02401101151ADDAA106000091AG10999GF106991041021004501021001KA1240M+03061MA1999999100571MD1999999-0021REMSYN017333   10306 59002
0143822800999991989022212004-02533-044283FM-12+005199999V0209999999999004201CN0100001N9+02721+02521101281ADDAA124001091AG10999AY131061AY211061GF105991051091004501011011KA1240N+02201MA1999999101121MD1999999-0091MW1021REMSYN023333   20220 59009 60014
0143822800999991989022312004-02533-044283FM-12+005199999V0200501N00211220001CN0100001N9+02731+02521101221ADDAA124003091AG10999AY161061AY261061GF104991041061008001061001KA1240N+02401MA1999999100641MD1999999+0031MW1211REMSYN023333   20240 58003 60034
0085822800999991989022318004-02533-044283FM-12+005199999V0200501N00261105001CN0100001N9+02811+02521100901ADDAG10999GF105991041061008001001021MA1999999100331MD1999999+0101REMSYN011333   58010
0115822800999991989022400004-02533-044283FM-12+005199999V0200501N00211220001CN0100001N9+02581+02401101021ADDAA106000091AG10999GF103991031021008001001001KA1240M+03051MA1999999100441MD1999999-0031REMSYN017333   10305 59003
0115822800999991989022412004-02533-044283FM-12+005199999V0200501N00311045001CN0100001N9+02741+02401101131ADDAA106000091AG10999GF106991041051004501021001KA1240N+02431MA1999999100561MD1999999-0091REMSYN017333   20243 59009
0154822800999991989022500004-02533-044283FM-12+005199999V0200501N00211220001CN0100001N9+02561+02421101071ADDAA106000691AA299000591AG10999AY161061AY211061GF103991031021004501001001KA1240M+02921MA1999999100481MD1999999+0031MW1021REMSYN023333   10292 58003 69961
0143822800999991989022512004-02533-044283FM-12+005199999V0200501N00151045001CN0100001N9+02761+02641101111ADDAA124005091AG10999AY161061AY211061GF106991041051004501021001KA1240N+02421MA1999999100531MD1999999-0021MW1021REMSYN023333   20242 59002 60054
0115822800999991989022600004-02533-044283FM-12+005199999V0209991C00001220001CN0100001N9+02461+02341101041ADDAA106000091AG10999GF102991021001008001011001KA1240M+02961MA1999999100461MD1999999-0011REMSYN017333   10296 59001
0143822800999991989022612004-02533-044283FM-12+005199999V0200901N00261220001CN0100001N9+02741+02501101111ADDAA124016091AG10999AY161061AY211061GF105991041021004501001011KA1240N+02311MA1999999100531MD1999999+0001MW1011REMSYN023333   20231 58000 60164
0124822800999991989022618004-02533-044283FM-12+005199999V0200501N00261045001CN0100001N9+02881+02461100871ADDAA118002091AG10999AY161061AY211061GF107991031051008001061011MA1999999100291MD1999999-0041MW1021REMSYN017333   59004 60023
0143822800999991989022712004-02533-044283FM-12+005199999V0200501N00151004201CN0100001N9+02721+02581101221ADDAA124005091AG10999AY161061AY261061GF107991061061004501061001KA1240N+02471MA1999999100701MD1999999+0171MW1021REMSYN023333   20247 58017 60054
0115822800999991989022800004-02533-044283FM-12+005199999V0200501N00151220001CN0100001N9+02521+02401101171ADDAA106000091AG10999GF103991031021004501001001KA1240M+02921MA1999999100591MD1999999-8001REMSYN017333   10292 59800
0154822800999991989022812004-02533-044283FM-12+005199999V0200501N002119999999N0100001N9+02641+02441101251ADDAA124000191AG19033AY161061GF106991999021004501001001KA1240N+02301MA1999999100671MD1999999+0121MW1161REMSYN023333   20230 58012 69914EQDQ01+000042SCOTLC
0124822800999991989022818004-02533-044283FM-12+005199999V0200501N00211004201CN0010001N9+02421+02331101301ADDAA106024091AG10999AY121061AY221061GF108991081071004501999999MA1999999100421MD1999999+0001MW1631REMSYN017333   58000 60241
0143822800999991989030100004-02533-044283FM-12+005199999V0209991C00001220001CN0100001N9+02321+02241101221ADDAA106023091AG10999AY161061AY261061GF102991021041004501001001KA1240M+02941MA1999999100641MD1999999+0051MW1021REMSYN023333   10294 58005 60231
0096822800999991989030118004-02533-044283FM-12+005199999V0200501N00151045001CN0100001N9+02601+02391100991ADDAA106000091AG10999GF108991041031004501041001MA1999999100411MD1999999-0131REMSYN011333   59013
0115822800999991989030200004-02533-044283FM-12+005199999V0209991C00001045001CN0100001N9+02401+02301101121ADDAA106000091AG10999GF105991041021004501021001KA1240M+02621MA1999999100611MD1999999-0031REMSYN017333   10262 59003
0115822800999991989030212004-02533-044283FM-12+005199999V0200501N00151045001CN0100001N9+02761+02441101321ADDAA106000091AG10999GF107991021011008001031021KA1240N+02281MA1999999100501MD1999999-0181REMSYN017333   20228 59018
0080822800999991989030218004-02533-044283FM-12+005199999V0200501N00211220001CN0100001N9+02731+02671999999ADDAA106000091AG10999GF103991031011008001001001KA1240M+03251REMSYN011333   10325
0115822800999991989030300004-02533-044283FM-12+005199999V0209991C00001220001CN0100001N9+02461+02361101021ADDAA106000091AG10999GF102991011011008001001011KA1240M+03021MA1999999100501MD1999999-0111REMSYN017333   10302 59011
0115822800999991989030312004-02533-044283FM-12+005199999V0200901N00211045001CN0100001N9+02671+02441101191ADDAA106000091AG10999GF106991041021008001061001KA1240N+02341MA1999999100611MD1999999+0101REMSYN017333   20234 58010
0096822800999991989030318004-02533-044283FM-12+005199999V0200901N00311105001CN0100001N9+02971+02401100871ADDAA106000091AG10999GF105991031021008001001021MA1999999100301MD1999999+0061REMSYN011333   58006
0115822800999991989030400004-02533-044283FM-12+005199999V0200901N00151220001CN0100001N9+02521+02341101021ADDAA106000091AG10999GF102991021021008001001001KA1240M+03031MA1999999100441MD1999999-0061REMSYN017333   10303 59006
0096822800999991989030418004-02533-044283FM-12+005199999V0203601N00511045001CN0100001N9+02921+02521100811ADDAA106000091AG10999GF105991031021004501011001MA1999999100231MD1999999-0071REMSYN011333   59007
0162822800999991989030500004-02533-044283FM-12+005199999V0200501N00101045001CN0100001N9+02481+02381100991ADDAA106005091AG10999AY161061AY211061GF106991031051004501021001KA1240N+99999MA1999999100411MD1999999-0031MW1021REMSYN023333   20300 59003 60051EQDQ01 +03002ATMN  
0121822800999991989030512004-02533-044283FM-12+005199999V0200501N00211004201CN0100001N9+02731+01711100921ADDAA124005091AG10999GF106991061021004501001001KA1240N+02391MA1999999100341MD1999999-0181REMSYN023333   20239 59018 60054
0102822800999991989030518004-02533-044283FM-12+005199999V0203601N00311045001CN0100001N9+02841+02521100591ADDAA106001091AG10999GF106991041051004501021001MA1999999100011MD1999999-0221REMSYN017333   59022 60011
0115822800999991989030600004-02533-044283FM-12+005199999V0200501N00151220001CN0100001N9+02541+02401100761ADDAA106000091AG10999GF102991021021004501001001KA1240M+02921MA1999999100181MD1999999-0231REMSYN017333   10292 59023
0162822800999991989030612004-02533-044283FM-12+005199999V0200901N00151004201CN0100001N9+02621+02521100871ADDAA124004091AG10999AY161061AY261061GF108991999051004501071999KA1240N+02351MA1999999100291MD1999999-0051MW1011REMSYN023333   20235 59005 60044EQDQ01+000082SCOTLC
0143822800999991989030712004-02533-044283FM-12+005199999V0209991C00001045001CN0100001N9+02501+02451100961ADDAA124011091AG10999AY161061AY261061GF108991041021004501021999KA1240N+02381MA1999999100391MD1999999+0101MW1161REMSYN023333   20238 58010 60114
0135822800999991989030718004-02533-044283FM-12+005199999V0203601N00311045001CN0100001N9+02691+02431100651ADDAA106000491AA299000591AG10999AY161061AY261061GF108991041071004501011999MA1999999100071MD1999999+0061MW1021REMSYN017333   58006 69941
0115822800999991989030800004-02533-044283FM-12+005199999V0203601N00261045001CN0100001N9+02621+02411100911ADDAA106000091AG10999GF108991031021004501011999KA1240M+02901MA1999999100331MD1999999+0151REMSYN017333   10290 58015
0143822800999991989030812004-02533-044283FM-12+005199999V0200501N00151004201CN0100001N9+02711+02501101111ADDAA124001091AG10999AY161061AY261061GF108991061061004501021999KA1240N+02351MA1999999100531MD1999999+0141MW1021REMSYN023333   20235 58014 60014
0143822800999991989030900004-02533-044283FM-12+005199999V0209991C00001004201CN0100001N9+02511+02451100981ADDAA106000191AG10999AY161061AY261061GF108991061071004501021999KA1240M+02881MA1999999100401MD1999999+0071MW1161REMSYN023333   10288 58007 69911
0143822800999991989030912004-02533-044283FM-12+005199999V0209991C00001004201CN0040001N9+02471+02391101071ADDAA124010091AG10999AY161061AY221061GF107991051071004501021001KA1240N+02371MA1999999100761MD1999999-0041MW1601REMSYN023333   20237 59004 60104
0124822800999991989030918004-02533-044283FM-12+005199999V0203601N00211004201CN0100001N9+02701+02431100851ADDAA106000391AG19005AY161061AY221061GF108991051061004501021999MA1999999100241MD1999999-0011MW1021REMSYN017333   59001 69931
0143822800999991989031000004-02533-044283FM-12+005199999V0200501N00151220001CN0100001N9+02471+02391100981ADDAA106003091AG19005AY161061AY211061GF103991031021008001001001KA1240M+02801MA1999999100471MD1999999+0001MW1021REMSYN023333   10280 58000 60031
0143822800999991989031112004-02533-044283FM-12+005199999V0200501N00151045001CN0100001N9+02791+02581101131ADDAA124007091AG10999AY161061AY261061GF106991041051004501031001KA1240N+02331MA1999999100951MD1999999+0091MW1021REMSYN023333   20233 58009 60074
0154822800999991989031200004-02533-044283FM-12+005199999V0209991C00001004201CN0100001N9+02501+02471101081ADDAA106000491AA299000591AG10999AY161061AY261061GF108991061051004501021999KA1240M+02901MA1999999100571MD1999999+0211MW1911REMSYN023333   10290 58021 69941
0143822800999991989031212004-02533-044283FM-12+005199999V0203601N00051045001CN0100001N9+02541+02471101241ADDAA124007091AG10999AY161061AY261061GF108991041071004501031999KA1240N+02321MA1999999100661MD1999999+0111MW1021REMSYN023333   20232 58011 60074
0124822800999991989031218004-02533-044283FM-12+005199999V0203601N00261045001CN0100001N9+02721+02431100971ADDAA106000191AG10999AY161061AY211061GF108991041071004501031999MA1999999100391MD1999999+0051MW1021REMSYN017333   58005 69911
0115822800999991989031300004-02533-044283FM-12+005199999V0209991C00001045001CN0100001N9+02481+02391101091ADDAA106000091AG10999GF108991021011008001011999KA1240M+02831MA1999999100511MD1999999+0011REMSYN017333   10283 58001
0115822800999991989031500004-02533-044283FM-12+005199999V0209991C00001220001CN0100001N9+02501+02361100831ADDAA106000091AG10999GF102991011051004501011001KA1240M+02931MA1999999100251MD1999999-0201REMSYN017333   10293 59020
0154822800999991989031512004-02533-044283FM-12+005199999V0203201N00101045001CN0100001N9+02741+02541101061ADDAA124000891AA299001091AG10999AY161061AY261061GF106991041021004501021001KA1240N+02421MA1999999100481MD1999999-0051MW1021REMSYN023333   20242 59005 69984
0143822800999991989031612004-02533-044283FM-12+005199999V0209991C00001045001CN0100001N9+02701+02561101071ADDAA124004091AG10999AY161061AY261061GF106991031051004501031011KA1240N+02221MA1999999100421MD1999999+0011MW1021REMSYN023333   20222 58001 60044
0143822800999991989031700004-02533-044283FM-12+005199999V0209991C00001004201CN0100001N9+02471+02431100971ADDAA106003091AG10999AY161061AY261061GF108991061051004501021999KA1240M+02881MA1999999100411MD1999999+0071MW1031REMSYN023333   10288 58007 60031
0135822800999991989031800004-02533-044283FM-12+005199999V0203601N00151045001CN0100001N9+02701+02341100771ADDAA106000491AA299000591AG10999AY161061AY211061GF106991021011008001031021MA1999999100121MD1999999+0011MW1021REMSYN017333   58001 69941
0132822800999991989031812004-02533-044283FM-12+005199999V0202701N00101004201CN0100001N9+02601+02501101221ADDAA124000491AA299000591AG10999GF106991061071004501999999KA1240N+02221MA1999999100641MD1999999+0011REMSYN023333   20222 58001 69944
0115822800999991989031900004-02533-044283FM-12+005199999V0209991C00001009001CN0100001N9+99999+99999101181ADDAA106000091AG10999GF108991051081004501011999KA1240M+02701MA1999999100531MD1999999+0011REMSYN017333   10270 58001
0096822800999991989031918004-02533-044283FM-12+005199999V0203601N00261045001CN0100001N9+02871+02521100751ADDAA106000091AG10999GF106991041051004501021001MA1999999100171MD1999999-0081REMSYN011333   59008
0115822800999991989032000004-02533-044283FM-12+005199999V0209991C00001045001CN0100001N9+02461+02371100991ADDAA106000091AG10999GF106991041051004501021001KA1240M+02931MA1999999100411MD1999999-0121REMSYN017333   10293 59012
0124822800999991989032018004-02533-044283FM-12+005199999V0200501N00101004201CN0100001N9+02641+02441100711ADDAA106000391AG10999AY161061AY221061GF108991051061004501021999MA1999999100131MD1999999-0041MW1021REMSYN017333   59004 69931
0140822800999991989032112004-02533-044283FM-12+005199999V0203601N00151004201CN0100001N9+02421+02261101021ADDAA124000391AG10999GF106991999021004501001001KA1240N+02251MA1999999099561MD1999999-0031REMSYN023333   20225 59003 69934EQDQ01+000052SCOTLC
0143822800999991989032212004-02533-044283FM-12+005199999V0201801N00151045001CN0040001N9+02241+02191101261ADDAA124011091AG10999AY161061AY261061GF108991041071004501021999KA1240N+02211MA1999999100271MD1999999+0231MW1611REMSYN023333   20221 58023 60114
0132822800999991989032312004-02533-044283FM-12+005199999V0209991C00001220001CN0100001N9+02681+02481101181ADDAA106000091AA224020091AG10999GF105991031021008001001011KA1240N+02141MA1999999100601MD1999999-0271REMSYN023333   20214 59027 60204
0143822800999991989032412004-02533-044283FM-12+005199999V0200501N00101004201CN0100001N9+02361+02281101251ADDAA124048091AG10999AY161061AY221061GF108991081071004501999999KA1240N+02221MA1999999100661MD1999999+0061MW1151REMSYN023333   20222 58006 60484
0124822800999991989032418004-02533-044283FM-12+005199999V0203201N00151004201CN0100001N9+02401+02311101161ADDAA106005091AG10999AY161061AY221061GF108991051061004501021999MA1999999100581MD1999999+0381MW1021REMSYN017333   58038 60051
0134822800999991989032500004-02533-044283FM-12+005199999V0209991C00001004201CN0100001N9+02281+02231100222ADDAA106000091AG10999GF108991061051004501021999KA1240M+02521MA1999999100241MD1999999+0191REMSYN017333   10252 58019EQDQ01+100223APOSLP
0132822800999991989032512004-02533-044283FM-12+005199999V0209991C00001004201CN0100001N9+02521+02341101211ADDAA106000091AA224005091AG10999GF106991051021004501021001KA1240N+02191MA1999999100631MD1999999-0031REMSYN023333   20219 59003 60054
0096822800999991989032518004-02533-044283FM-12+005199999V0203601N00101220001CN0100001N9+02841+02381100891ADDAA106000091AG10999GF104991031021004501041001MA1999999100311MD1999999-0271REMSYN011333   59027
0115822800999991989032600004-02533-044283FM-12+005199999V0200501N00101045001CN0100001N9+02441+02351101631ADDAA106000091AG10999GF106991041021004501011001KA1240M+02861MA1999999100451MD1999999-0191REMSYN017333   10286 59019
0115822800999991989032612004-02533-044283FM-12+005199999V0209991C00001045001CN0100001N9+02621+02531101171ADDAA106000091AG10999GF106991011011004501031001KA1240N+02351MA1999999100591MD1999999-0041REMSYN017333   20235 59004
0096822800999991989032618004-02533-044283FM-12+005199999V0200501N00261105001CN0100001N9+02811+02521100841ADDAA106000091AG10999GF105991011011004501031011MA1999999100261MD1999999-0051REMSYN011333   59005
0115822800999991989032700004-02533-044283FM-12+005199999V0200901N00101045001CN0100001N9+02481+02431101061ADDAA106000091AG10999GF106991021011004501031001KA1240M+02741MA1999999100481MD1999999+0031REMSYN017333   10274 58003
0115822800999991989032712004-02533-044283FM-12+005199999V0200901N00361220001CN0100001N9+02801+02501101261ADDAA106000091AG10999GF106991031021008001001011KA1240N+02291MA1999999100681MD1999999+0091REMSYN017333   20229 58009
0143822800999991989032800004-02533-044283FM-12+005199999V0209991C00001220001CN0040001N9+02441+02391101171ADDAA106000591AG10999AY191061AY261061GF104991011011008001031011KA1240M+02981MA1999999100591MD1999999-0111MW1011REMSYN023333   10298 59011 69951
0143822800999991989032812004-02533-044283FM-12+005199999V0209991C00001004201CN0040001N9+02701+02501101271ADDAA124001091AG10999AY161061AY261061GF107991061061004501021001KA1240N+02311MA1999999100691MD1999999+0011MW1211REMSYN023333   20231 58001 60014
0124822800999991989032818004-02533-044283FM-12+005199999V0200501N00051045001CN0100001N9+02421+02331101061ADDAA124025091AG10999AY161061AY261061GF106991041061004501061001MA1999999100411MD1999999+0091MW1211REMSYN017333   58009 60254
0062822800999991989032900004-02533-044283FM-12+005199999V0209991C00001012001CN0040001N9+02281+02251101191ADDAA106000091AG10999GF106991061081008001001001MA1999999100611
0143822800999991989032913004-02533-044283FM-12+005199999V0201801N00151045001CN0100001N9+02421+02331101291ADDAA124026091AG10999AY161999AY211999GF105991041011004501031001KA1240N+02171MA1999999100691MD1999999+0001MW1021REMSYN023333   20217 58000 60264
0143822800999991989033012004-02533-044283FM-12+005199999V0200901N00101045001CN0100001N9+02661+02441101211ADDAA124026091AG10999AY161061AY221061GF105991041021017501021001KA1240N+02141MA1999999100631MD1999999-0061MW1021REMSYN023333   20214 59006 60264
0143822800999991989033100004-02533-044283FM-12+005199999V0201801N00151004201CN0040001N9+02401+02351101121ADDAA106001091AG10999AY161061AY221061GF108991061071004501021999KA1240M+02991MA1999999100541MD1999999-0031MW1601REMSYN023333   10299 59003 60011
0143822800999991989033112004-02533-044283FM-12+005199999V0209991C00001004201CN0100001N9+02371+02311101681ADDAA124009091AG10999AY161061AY221061GF108991051051004501021999KA1240N+02211MA1999999100611MD1999999+0101MW1021REMSYN023333   20221 58010 60094
0124822800999991989033118004-02533-044283FM-12+005199999V0203601N00151045001CN0100001N9+02721+02521100931ADDAA106004091AG10999AY161061AY261061GF106991031051004501031011MA1999999100351MD1999999+0071MW1011REMSYN017333   58007 60041
0115822800999991989040100004-02533-044283FM-12+005199999V0209991C00001220001CN0100001N9+99999+99999101091ADDAA106000091AG10999GF103991031011004501001001KA1240M+02781MA1999999100511MD1999999-0031REMSYN017333   10278 59003
0121822800999991989040112004-02533-044283FM-12+005199999V0201201N00151045001CN0100001N9+02561+02421101351ADDAA124004091AG10999GF107991041031004501031001KA1240N+02221MA1999999100761MD1999999+0111REMSYN023333   20222 58011 60044
0124822800999991989040118004-02533-044283FM-12+005199999V0200501N00211045001CN0100001N9+02521+02341101091ADDAA106020091AG10999AY191061AY261061GF108991041051008001011061MA1999999100411MD1999999+0161MW1021REMSYN017333   58016 60201
0115822800999991989040200004-02533-044283FM-12+005199999V0209991C00001045001CN0100001N9+02341+02291101291ADDAA106000091AG10999GF106991011011008001031011KA1240M+02601MA1999999100701MD1999999+0191REMSYN017333   10260 58019
0115822800999991989040318004-02533-044283FM-12+005199999V0203601N003119999999N0100001N9+02601+02351100881ADDAA106000091AG10999GF105991999021004501001001MA1999999099341MD1999999+0401REMSYN011333   58040EQDQ01+000032SCOTLC
0121822800999991989040412004-02533-044283FM-12+005199999V0200501N00101045001CN0100001N9+02741+02401101151ADDAA124000391AG10999GF106991041031004501031001KA1240N+02261MA1999999100541MD1999999-0031REMSYN023333   20226 59003 69934
0139822800999991989040418004-02533-044283FM-12+005199999V0203601N00151045001CN0100001N9+02831+02221100421ADDAA106000291AA299000391AG10999AY161061AY211061GF105991031021004501011001MD1999999-0121MW1021REMSYN017333   59012 69921EQDQ01+099343APOSP 
0115822800999991989040500004-02533-044283FM-12+005199999V0209991C00001220001CN0100001N9+02481+02231101021ADDAA106000091AG10999GF100991001001999999001001KA1240M+02961MA1999999100481MD1999999+0071REMSYN017333   10296 58007
0143822800999991989040512004-02533-044283FM-12+005199999V0200201N00101004201CN0100001N9+99999+99999101251ADDAA124021091AG10999AY161061AY261061GF108991061051004501021999KA1240N+02231MA1999999100261MD1999999+0091MW1031REMSYN023333   20223 58009 60214
0143822800999991989040600004-02533-044283FM-12+005199999V0209991C00001004201CN0100001N9+02431+02411101131ADDAA106002091AG10999AY161061AY261061GF108991061051004501021999KA1240M+02951MA1999999100551MD1999999+0061MW1031REMSYN023333   10295 58006 60021
0143822800999991989040612004-02533-044283FM-12+005199999V0200901N00151045001CN0100001N9+02681+02481101201ADDAA124000191AG10999AY131061AY221061GF106991031011008001011001KA1240N+02321MA1999999100721MD1999999+0011MW1021REMSYN023333   20232 58001 69914
0143822800999991989040712004-02533-044283FM-12+005199999V0209991C00001045001CN0100001N9+02561+02451101221ADDAA124009091AG10999AY161061AY261061GF107991041021004501061001KA1240N+02301MA1999999100641MD1999999+0121MW1031REMSYN023333   20230 58012 60094
0115822800999991989040800004-02533-044283FM-12+005199999V0203601N00101004201CN0100001N9+02491+02381101041ADDAA106000091AG10999GF106991061061004501001001KA1240M+02801MA1999999100461MD1999999-0051REMSYN017333   10280 59005
0102822800999991989040818004-02533-044283FM-12+005199999V0200901N00101004201CN0040001N9+02361+02331100871ADDAA106034091AG10999GF108991081071004501999999MA1999999100291MD1999999+0031REMSYN017333   58003 60341
0115822800999991989040900004-02533-044283FM-12+005199999V0200901N00101220001CN0100001N9+02361+02331101461ADDAA106000091AG10999GF100991001001999999001001KA1240M+02901MA1999999100491MD1999999+0031REMSYN017333   10290 58003
0121822800999991989040912004-02533-044283FM-12+005199999V0200501N00101045001CN0100001N9+02541+02451101071ADDAA106044091AG10999GF105991041021004501031001KA1240N+02211MA1999999100471MD1999999-0111REMSYN023333   20221 59011 60441
0124822800999991989040918004-02533-044283FM-12+005199999V0200501N00211004201CN0040001N9+02351+02311100931ADDAA106003091AG10999AY161061AY261061GF108991061071004501021999MA1999999100351MD1999999+0061MW1611REMSYN017333   58006 60031
0143822800999991989041000004-02533-044283FM-12+005199999V0201401N00511045001CN0040001N9+02441+02311101051ADDAA106002091AG10999AY161061AY221061GF106991041021004501031001KA1240M+02741MA1999999100471MD1999999-0021MW1601REMSYN023333   10274 59002 60021
0143822800999991989041012004-02533-044283FM-12+005199999V0209991C00001004201CN0100001N9+02651+02521101161ADDAA124008091AG10999AY161061AY261061GF108991061051004501021999KA1240N+02281MA1999999100581MD1999999-0091MW1031REMSYN023333   20228 59009 60084
0124822800999991989041018004-02533-044283FM-12+005199999V0200501N00311004201CN0100001N9+02661+02561100841ADDAA106008091AG10999AY161061AY261061GF108991051051004501021999MA1999999100261MD1999999-0091MW1911REMSYN017333   59009 60081
0143822800999991989041100004-02533-044283FM-12+005199999V0209991C00001004201CN0100001N9+02431+02421101231ADDAA106004091AG10999AY161061AY221061GF108991081071004501999999KA1240M+02751MA1999999100451MD1999999-0021MW1021REMSYN023333   10275 59002 60041
0143822800999991989041200004-02533-044283FM-12+005199999V0209991C000019999999N0020001N9+02431+02341101141ADDAA106003091AG10999AY121061AY201061GF108991999999008001999999KA1240M+02941MA1999999100541MD1999999+0071MW1611REMSYN023333   10294 58007 60031
0143822800999991989041212004-02533-044283FM-12+005199999V0201401N00101045001CN0100001N9+02611+02501101111ADDAA124030091AG19005AY161061AY261061GF106991041021008001061001KA1240N+02281MA1999999100531MD1999999-0031MW1021REMSYN023333   20228 59003 60304
0140822800999991989041300004-02533-044283FM-12+005199999V0209991C000019999999N0040001N9+02451+02401101121ADDAA106001091AG10999GF108991999021004501001001KA1240M+02911MA1999999100441MD1999999-0021REMSYN023333   10291 59002 60011EQDQ01+000042SCOTLC
0143822800999991989041500004-02533-044283FM-12+005199999V0209991C00001004201CN0040001N9+02341+02311101121ADDAA106024091AG10999AY161061AY221061GF108991081071004501999999KA1240M+02821MA1999999100531MD1999999+0171MW1601REMSYN023333   10282 58017 60241
0143822800999991989041512004-02533-044283FM-12+005199999V0201401N00101045001CN0100001N9+02641+02551101201ADDAA124029091AG10999AY161061AY261061GF107991041051004501031001KA1240N+02311MA1999999100621MD1999999+0111MW1021REMSYN023333   20231 58011 60294
0145822800999991989041600004-02533-044283FM-12+005199999V0209991C00001004201CN0040001N9+02401+02371101121ADDAG10999AY161061AY261061GF108991999071004501001001KA1240M+02771MA1999999100141MD1999999+0011MW1911REMSYN017333   10277 58001EQDQ01+000062SCOTLC
0085822800999991989041618004-02533-044283FM-12+005199999V0203601N00361045001CN0100001N9+02801+02481100881ADDAG10999GF106991021011008001031021MA1999999100301MD1999999-0051REMSYN011333   59005
0143822800999991989041700004-02533-044283FM-12+005199999V0209991C00001045001CN0040001N9+02481+02451101161ADDAA106002091AG10999AY161061AY221061GF108991031031004501021999KA1240M+02971MA1999999100581MD1999999+0041MW1611REMSYN023333   10297 58004 60021
0121822800999991989041712004-02533-044283FM-12+005199999V0201801N00101045001CN0100001N9+02661+02591101061ADDAA124003091AG10999GF106991041021008001051001KA1240N+02341MA1999999100481MD1999999+0161REMSYN023333   20234 58016 60034
0143822800999991989041812004-02533-044283FM-12+005199999V0202701N00261004201CN0100001N9+99999+99999101081ADDAA124019091AG10999AY161061AY221061GF108991061051004501021999KA1240N+02291MA1999999100501MD1999999-0041MW1021REMSYN023333   20229 59004 60194
0083822800999991989060100004-02533-044283FM-12+005199999V0203101N00051220001CN0060001N9+00851+99999999999ADDAA106000091AG10999AY111061AY211061GF101991011051012501001001MD1110091+9999MW1101
0070822800999991989071006004-02533-044283FM-12+005199999V0209991C00001045001CN0200001N9+02381+02291101551ADDAG10999GF107991031041004501021001MD1999999+0101REMSYN011333   58010
