0115825640999991989010212004-05567-047583FM-12+0149SBIZ V0203601N00151007501CN0200001N9+02631+02251101341ADDAA106000091AG10999GF107991051021008001031001KA1240N+02261MA1999999099651MD1999999-0021REMSYN017333   20226 59002
0096825640999991989010218004-05567-047583FM-12+0149SBIZ V0200901N00151007501CN0200001N9+03211+02201100941ADDAA106000091AG10999GF105991051031008001001001MA1999999099241MD1999999-0061REMSYN011333   59006
0115825640999991989010312004-05567-047583FM-12+0149SBIZ V0203601N00261007501CN0200001N9+02691+02261101311ADDAA106000091AG10999GF106991061021008001001001KA1240N+02201MA1999999099621MD1999999-0031REMSYN017333   20220 59003
0124825640999991989010318004-05567-047583FM-12+0149SBIZ V0203601N00151007501CN0100001N9+02731+02321100961ADDAA106004091AG10999AY191061AY261061GF106991061091008001001001MA1999999099271MD1999999+0031MW1171REMSYN017333   58003 60041
0131825640999991989010400004-05567-047583FM-12+0149SBIZ V0200901N00151220001CN0200001N9+02711+02421101211ADDAA106000091AG10999AY191061AY291061GF100991001001999999001001KA1240M+03051MA1999999099511MD1999999+0201REMSYN017333   10305 58020
0121825640999991989010412004-05567-047583FM-12+0149SBIZ V0200901N00261007501CN0200001N9+02631+02281101441ADDAA124004091AG10999GF106991061021008001001001KA1240N+02321MA1999999099751MD1999999+0131REMSYN023333   20232 58013 60044
0096825640999991989010418004-05567-047583FM-12+0149SBIZ V0202701N00151007501CN0200001N9+03091+02341101081ADDAA106000091AG10999GF106991061031008001001001MA1999999099401MD1999999+0131REMSYN011333   58013
0115825640999991989010512004-05567-047583FM-12+0149SBIZ V0200901N002619999999N0200001N9+02711+02261101341ADDAA106000091AG10999GF106991061001008001071001KA1240N+02261MA1999999099651MD1999999-0101REMSYN017333   20226 59010
0096825640999991989010518004-05567-047583FM-12+0149SBIZ V0200901N00151105001CN0200001N9+03011+02291101031ADDAA106000091AG10999GF108991031021008001001031MA1999999099351MD1999999-0051REMSYN011333   59005
0115825640999991989010600004-05567-047583FM-12+0149SBIZ V0200501N00151220001CN0200001N9+02751+02321101131ADDAA106000091AG10999GF100991001001999999001001KA1240M+03031MA1999999099451MD1999999+0011REMSYN017333   10303 58001
0115825640999991989010612004-05567-047583FM-12+0149SBIZ V0203601N00311220001CN0200001N9+02781+02231101261ADDAA106000091AG10999GF103991031011008001001001KA1240N+02301MA1999999099581MD1999999-0071REMSYN017333   20230 59007
0096825640999991989010618004-05567-047583FM-12+0149SBIZ V0203601N00151007501CN0200001N9+03231+02331100921ADDAA106000091AG10999GF105991051021008001001001MA1999999099251MD1999999-0101REMSYN011333   59010
0121825640999991989010712004-05567-047583FM-12+0149SBIZ V0202301N00261007501CN0200001N9+02531+02271101211ADDAA124004091AG10999GF108991081071008001999999KA1240N+02361MA1999999099511MD1999999-0071REMSYN023333   20236 59007 60044
0096825640999991989010718004-05567-047583FM-12+0149SBIZ V0203201N001519999999N0200001N9+02811+02311100911ADDAA106000091AG10999GF108991081001008001011999MA1999999099221MD1999999-0031REMSYN011333   59003
0127825640999991989010812004-05567-047583FM-12+0149SBIZ V0200501N00261045001CN0200001N9+02321+02161101281ADDAA124002091AG10999GF108991031071008001021999KA1240N+02281MA1999999099581MD1999999+0071MW1611REMSYN023333   20228 58007 60024
0096825640999991989010818004-05567-047583FM-12+0149SBIZ V0200901N00151007501CN0200001N9+02651+02301100981ADDAA106000091AG10999GF108991081051008001999999MA1999999099231MD1999999+0011REMSYN011333   58001
0078825640999991989010900004-05567-047583FM-12+0149SBIZ V0203601N001519999999N0200001N9+02531+02341101091ADDAA106000091AG10999GA1091+999999999GF109991091999999999999999MA1999999099391
0121825640999991989010912004-05567-047583FM-12+0149SBIZ V0200901N00151045001CN0200001N9+02511+02211101151ADDAA124002091AG10999GF105991021011008001031001KA1240N+02121MA1999999099451MD1999999-0131REMSYN023333   20212 59013 60024
0137825640999991989011000004-05567-047583FM-12+0149SBIZ V0203201N00101220001CN0200001N9+02671+02411101121ADDAA106002091AG10999AY161061AY261061GF100991001001999999001001KA1240M+03081MA1999999099451MD1999999+0041REMSYN023333   10308 58004 60021
0140825640999991989011012004-05567-047583FM-12+0149SBIZ V0200501N00261007501CN0200001N9+02611+02231101451ADDAA124002091AG10999GF106991999021008001001001KA1240N+02281MA1999999099751MD1999999+0301REMSYN023333   20228 58030 60024EQDQ01+000052SCOTLC
0118825640999991989011018004-05567-047583FM-12+0149SBIZ V0203601N00311007501CN0200001N9+02821+02241101091ADDAA106012091AG10999AY161061AY261061GF107991051091008001001041MA1999999099401MD1999999-0041REMSYN017333   59004 60121
0153825640999991989011100004-05567-047583FM-12+0149SBIZ V0201801N001519999999N0200001N9+02231+02121101341ADDAA106012091AG10999AY161061AY261061GA1091+999999999GF109991091999999999999999KA1240M+02931MA1999999099631MD1999999+0201REMSYN023333   10293 58020 60121
0140825640999991989011112004-05567-047583FM-12+0149SBIZ V0202301N00151007501CN0200001N9+02391+02261101471ADDAA124024091AG10999GF108991999071008001071999KA1240N+02081MA1999999099751MD1999999+0001REMSYN023333   20208 58000 60244EQDQ01+000082SCOTLC
0115825640999991989011212004-05567-047583FM-12+0149SBIZ V0201401N00511007501CN0200001N9+02431+02321101551ADDAA106000091AG10999GF108991061071008001021999KA1240N+02281MA1999999099851MD1999999+0101REMSYN017333   20228 58010
0121825640999991989011312004-05567-047583FM-12+0149SBIZ V0209991C00001220001CN0200001N9+02301+02251101481ADDAA124015091AG10999GF106991041021008001001011KA1240N+01921MA1999999099761MD1999999-0091REMSYN023333   20192 59009 60154
0096825640999991989011318004-05567-047583FM-12+0149SBIZ V0203601N00151220001CN0200001N9+03101+02411101051ADDAA106000091AG10999GF105991031031008001001041MA1999999099361MD1999999-0191REMSYN011333   59019
0131825640999991989011400004-05567-047583FM-12+0149SBIZ V0203601N001519999999N0200001N9+02631+02311101251ADDAA106000091AG10999GA1091+999999999GF109991091999999999999999KA1240M+03171MA1999999099551MD1999999+0011REMSYN017333   10317 58001
0137825640999991989011412004-05567-047583FM-12+0149SBIZ V0203601N00151007501CN0200001N9+02481+02321101581ADDAA124003091AG10999AY161061AY261061GF108991081071008001999999KA1240N+02181MA1999999099881MD1999999+0121REMSYN023333   20218 58012 60034
0096825640999991989011418004-05567-047583FM-12+0149SBIZ V0200501N00261007501CN0200001N9+02831+02201101271ADDAA106000091AG10999GF108991061031008001041999MA1999999099581MD1999999+0221REMSYN011333   58022
0121825640999991989011512004-05567-047583FM-12+0149SBIZ V0209991C000019999999N0200001N9+02411+02231101521ADDAA124001091AG10999GF105991051001008001061001KA1240N+02161MA1999999099821MD1999999-0061REMSYN023333   20216 59006 60014
0096825640999991989011618004-05567-047583FM-12+0149SBIZ V0201401N00151007501CN0200001N9+03041+02231101171ADDAA106000091AG10999GF106991061021008001001001MA1999999099491MD1999999+0081REMSYN011333   58008
0137825640999991989011700004-05567-047583FM-12+0149SBIZ V0202701N00151007501CN0200001N9+02631+02311101261ADDAA106000091AG10999AY191061AY291061GF108991081091008001999999KA1240M+03111MA1999999099571MD1999999+0021MW1131REMSYN017333   10311 58002
0115825640999991989011712004-05567-047583FM-12+0149SBIZ V0200501N00511007501CN0200001N9+02691+02461101381ADDAA106000091AG10999GF106991061021008001001001KA1240N+02281MA1999999099691MD1999999-0131REMSYN017333   20228 59013
0096825640999991989011718004-05567-047583FM-12+0149SBIZ V0200901N00151007501CN0200001N9+03251+02211101081ADDAA106000091AG10999GF107991071021008001001001MA1999999099401MD1999999-0091REMSYN011333   59009
0115825640999991989011800004-05567-047583FM-12+0149SBIZ V0200901N00101220001CN0200001N9+02811+02361101021ADDAA106000091AG10999GF100991001001999999001001KA1240M+03261MA1999999099321MD1999999-0251REMSYN017333   10326 59025
0115825640999991989011812004-05567-047583FM-12+0149SBIZ V0203601N00311007501CN0200001N9+02691+02221101411ADDAA106000091AG10999GF105991051021008001001001KA1240N+02301MA1999999099731MD1999999+0041REMSYN017333   20230 58004
0096825640999991989011818004-05567-047583FM-12+0149SBIZ V0200901N00151045001CN0200001N9+03211+02081100961ADDAA106000091AG10999GF105991021021008001011001MA1999999099281MD1999999-0121REMSYN011333   59012
0115825640999991989011912004-05567-047583FM-12+0149SBIZ V0200501N00211007501CN0200001N9+02611+02291101201ADDAA106000091AG10999GF105991051011008001001001KA1240N+02281MA1999999099511MD1999999-0221REMSYN017333   20228 59022
0115825640999991989012000004-05567-047583FM-12+0149SBIZ V0200501N00101220001CN0200001N9+02751+02361100971ADDAA106000091AG10999GF100991001001999999001001KA1240M+03311MA1999999099271MD1999999-0171REMSYN017333   10331 59017
0115825640999991989012012004-05567-047583FM-12+0149SBIZ V0200501N00151007501CN0200001N9+02651+02331101341ADDAA106000091AG10999GF108991081051008001999999KA1240N+02361MA1999999100651MD1999999+0141REMSYN017333   20236 58014
0121825640999991989012112004-05567-047583FM-12+0149SBIZ V0200501N00261220001CN0200001N9+02671+02331101291ADDAA124004091AG10999GF104991041021008001001001KA1240N+02321MA1999999099611MD1999999-0041REMSYN023333   20232 59004 60044
0115825640999991989012312004-05567-047583FM-12+0149SBIZ V0200501N00261007501CN0200001N9+02561+02291101291ADDAA106000091AG10999GF105991051021008001001001KA1240N+02241MA1999999099601MD1999999-0081REMSYN017333   20224 59008
0096825640999991989012318004-05567-047583FM-12+0149SBIZ V0203201N00151007501CN0200001N9+03201+02211100961ADDAA106000091AG10999GF105991051031008001001001MA1999999099281MD1999999-0041REMSYN011333   59004
0115825640999991989012400004-05567-047583FM-12+0149SBIZ V0200901N00151007501CN0200001N9+02671+02391100951ADDAA106000091AG10999GF105991051091008001001001KA1240M+03291MA1999999099261MD1999999-0121REMSYN017333   10329 59012
0115825640999991989012412004-05567-047583FM-12+0149SBIZ V0200501N00151007501CN0200001N9+02621+02211101261ADDAA106000091AG10999GF107991071021008001001001KA1240N+02201MA1999999099571MD1999999-0031REMSYN017333   20220 59003
0096825640999991989012418004-05567-047583FM-12+0149SBIZ V0200901N00261007501CN0200001N9+03031+02261101031ADDAA106000091AG10999GF107991071031008001001001MA1999999099351MD1999999+0071REMSYN011333   58007
0115825640999991989012500004-05567-047583FM-12+0149SBIZ V0202701N00151220001CN0200001N9+02471+02271101181ADDAA106000091AG10999GF100991001001999999001001KA1240M+03051MA1999999099481MD1999999+0281REMSYN017333   10305 58028
0115825640999991989012512004-05567-047583FM-12+0149SBIZ V0200901N00151007501CN0200001N9+02391+02261101211ADDAA106000091AG10999GF106991061021008001001001KA1240N+02141MA1999999099711MD1999999-0061REMSYN017333   20214 59006
0115825640999991989012514004-05567-047583FM-12+0149SBIZ V0200901N00151007501CN0200001N9+02391+02261101211ADDAA106000091AG10999GF106991061021008001001001KA1240N+02141MA1999999099711MD1999999-0061REMSYN017333   20214 59006
0117825640999991989012518004-05567-047583FM-12+0149SBIZ V0201401N00311007501CN0040001N9+02491+02311101111ADDAA106001091AY161061AY261061GF108991061091008001021999MA1999999099531MD1999999-0041MW1951REMSYN017333   59004 60011
0137825640999991989012600004-05567-047583FM-12+0149SBIZ V0200901N00101007501CN0200001N9+02371+02331101091ADDAA106007091AG10999AY191061AY261061GF108991081071008001999999KA1240M+03051MA1999999099391MD1999999-0091REMSYN023333   10305 59009 60071
0115825640999991989012712004-05567-047583FM-12+0149SBIZ V0200501N00261105001CN0200001N9+02731+02281101191ADDAA106000091AG10999GF105991021021008001001091KA1240N+02301MA1999999099501MD1999999-0091REMSYN017333   20230 59009
0102825640999991989012718004-05567-047583FM-12+0149SBIZ V0201801N00151007501CN0200001N9+02931+02241101131ADDAA106000091AG10999GF108991081091008001999999MA1999999099441MD1999999+0221MW1171REMSYN011333   58022
0143825640999991989012812004-05567-047583FM-12+0149SBIZ V0200901N00151007501CN0200001N9+02251+02191101321ADDAA124019091AG10999AY161061AY261061GF108991081071008001999999KA1240N+02161MA1999999099621MD1999999+0121MW1611REMSYN023333   20216 58012 60194
0115825640999991989012900004-05567-047583FM-12+0149SBIZ V0200901N00151220001CN0200001N9+02481+02301101191ADDAA106000091AG10999GF100991001001999999001001KA1240M+03151MA1999999099481MD1999999+0081REMSYN017333   10315 58008
0132825640999991989012912004-05567-047583FM-12+0149SBIZ V0202701N00151045001CN0200001N9+02511+02381101331ADDAA106000091AA224000391AG10999GF108991041021004501041001KA1240N+02121MA1999999099631MD1999999+0011REMSYN023333   20212 58001 69934
0124825640999991989012918004-05567-047583FM-12+0149SBIZ V0200901N00151007501CN0040001N9+02491+02361100961ADDAA106003091AG10999AY191061AY261061GF108991081091008001999999MA1999999099261MD1999999+0011MW1211REMSYN017333   58001 60031
0172825640999991989013000004-05567-047583FM-12+0149SBIZ V0201401N001519999999N0200001N9+02311+02221101091ADDAA106004091AG10999AY191061AY261061GA1091+999999999GF109991091999999999999999KA1240M+99999MA1999999099381MD1999999-0101REMSYN023333   10212 59010 60041EQDQ01 +02122ATMX  
0121825640999991989013012004-05567-047583FM-12+0149SBIZ V0200901N00101045001CN0200001N9+02431+02281101281ADDAA124007091AG10999GF107991041021008001031001KA1240N+02201MA1999999099571MD1999999-0061REMSYN023333   20220 59006 60074
0137825640999991989013100004-05567-047583FM-12+0149SBIZ V0200501N00101220001CN0200001N9+02471+02341100981ADDAA106005091AG10999AY161061AY261061GF100991001001999999001001KA1240M+03101MA1999999099281MD1999999-0101REMSYN023333   10310 59010 60051
0121825640999991989013112004-05567-047583FM-12+0149SBIZ V0203601N00261007501CN0200001N9+02571+02271101301ADDAA124005091AG10999GF108991081051008001999999KA1240N+02221MA1999999099601MD1999999+0031REMSYN023333   20222 58003 60054
0096825640999991989013118004-05567-047583FM-12+0149SBIZ V0202701N001519999999N0200001N9+02991+02341101001ADDAA106000091AG10999GF108991081001008001011999MA1999999099311MD1999999-0061REMSYN011333   59006
0115825640999991989020100004-05567-047583FM-12+0149SBIZ V0200501N00151220001CN0200001N9+02671+02461101071ADDAA106000091AG10999GF100991001001999999001001KA1240M+03051MA1999999099371MD1999999+0091REMSYN017333   10305 58009
0115825640999991989020112004-05567-047583FM-12+0149SBIZ V0200901N00151007501CN0200001N9+02401+02191101371ADDAA106000091AG10999GF108991081051008001999999KA1240N+02251MA1999999099671MD1999999+0071REMSYN017333   20225 58007
0096825640999991989020118004-05567-047583FM-12+0149SBIZ V0201401N00151007501CN0200001N9+02881+02351101021ADDAA106000091AG10999GF108991081021008001999999MA1999999099341MD1999999+0031REMSYN011333   58003
0120825640999991989020200004-05567-047583FM-12+0149SBIZ V0200501N00151007501CN0200001N9+02511+02331101141ADDAA106000091AG10999GF108991081051008001999999KA1240M+02951MA1999999099441REMSYN017333   10295 54007EQDQ01+999990APOSLP
0096825640999991989020218004-05567-047583FM-12+0149SBIZ V0200501N00151045001CN0200001N9+02971+02301100931ADDAA106000091AG10999GF106991031021008001041001MA1999999099251MD1999999-0091REMSYN011333   59009
0115825640999991989020312004-05567-047583FM-12+0149SBIZ V0201401N00101220001CN0200001N9+02391+02091101311ADDAA106000091AG10999GF104991041001008001061001KA1240N+02201MA1999999099611MD1999999+0001REMSYN017333   20220 58000
0137825640999991989020418004-05567-047583FM-12+0149SBIZ V0209991C00001007501CN0200001N9+02271+02251101141ADDAA124017091AG10999AY191061AY261061GF108991081071008001999999KA1240N+02101MA1999999099441MD1999999+0131REMSYN023333   20210 58013 60174
0115825640999991989020512004-05567-047583FM-12+0149SBIZ V0200901N00151045001CN0200001N9+02551+02351101561ADDAA106000091AG10999GF108991041011008001031001KA1240N+02281MA1999999099861MD1999999+0421REMSYN017333   20228 58042
0102825640999991989020518004-05567-047583FM-12+0149SBIZ V0202301N00311045001CN0200001N9+02811+02441101111ADDAA106001091AG10999GF106991031031008001011001MA1999999099411MD1999999-0181REMSYN017333   59018 60011
0121825640999991989020612004-05567-047583FM-12+0149SBIZ V0202301N00151007501CN0200001N9+02491+02321101421ADDAA124001091AG10999GF108991081051008001999999KA1240N+02201MA1999999099721MD1999999-0141REMSYN023333   20220 59014 60014
0096825640999991989020618004-05567-047583FM-12+0149SBIZ V0203201N00151105001CN0200001N9+03251+02271101101ADDAA106000091AG10999GF106991041031008001001021MA1999999099421MD1999999+0011REMSYN011333   58001
0115825640999991989020900004-05567-047583FM-12+0149SBIZ V0200901N00151007501CN0200001N9+02391+02171101261ADDAA106000091AG10999GF108991081091008001999999KA1240M+03161MA1999999099551MD1999999+0181REMSYN017333   10316 58018
0121825640999991989021012004-05567-047583FM-12+0149SBIZ V0203601N00101007501CN0200001N9+02531+02211101451ADDAA124000391AG10999GF106991061021008001001001KA1240N+02201MA1999999099751MD1999999-0061REMSYN023333   20220 59006 69934
0096825640999991989021018004-05567-047583FM-12+0149SBIZ V0203601N00151007501CN0200001N9+03011+02191101151ADDAA106000091AG10999GF105991051031008001001001MA1999999099461MD1999999+0011REMSYN011333   58001
0096825640999991989021023004-05567-047583FM-12+0149SBIZ V0203601N00151007501CN0200001N9+03011+02191101151ADDAA106000091AG10999GF105991051031008001001001MA1999999099461MD1999999+0011REMSYN011333   58001
0115825640999991989021100004-05567-047583FM-12+0149SBIZ V0209991C00001220001CN0200001N9+02511+02331101201ADDAA106000091AG10999GF100991001001999999001001KA1240M+03161MA1999999099501MD1999999+0111REMSYN017333   10316 58011
0101825640999991989021112004-05567-047583FM-12+0149SBIZ V0200501N00151007501CN0200001N9+02631+02361101431ADDAA106000091AG10999GF106991061021008001001001KA1240N+02121MA1999999099731REMSYN017333   20212 9002.
0137825640999991989021200004-05567-047583FM-12+0149SBIZ V0200901N001519999999N0200001N9+02711+02391101131ADDAA106000091AG10999AY191061AY291061GF106991999999008001999999KA1240M+03221MA1999999099441MD1999999-0061MW1131REMSYN017333   10322 59006
0121825640999991989021204004-05567-047583FM-12+0149SBIZ V0209991C00001045001CN0090001N9+02501+02471101471ADDAA124011091AG10999GF106991041011000751031001KA1240N+02141MA1999999099771MD1999999+0041REMSYN023333   20214 58004 60114
0137825640999991989021312004-05567-047583FM-12+0149SBIZ V0209991C00001007501CN0200001N9+02391+02311101371ADDAA124003091AG10999AY191061AY261061GF108991081071008001999999KA1240N+02301MA1999999099671MD1999999-0101REMSYN023333   20230 59010 60034
0118825640999991989021318004-05567-047583FM-12+0149SBIZ V0209991C00001007501CN0200001N9+02571+02401101021ADDAA106001091AG10999AY161061AY261061GF108991081051008001999999MA1999999099321MD1999999+0031REMSYN017333   58003 60011
0121825640999991989021412004-05567-047583FM-12+0149SBIZ V0209991C00001007501CN0200001N9+02391+02261101301ADDAA124002091AG10999GF108991081071008001999999KA1240N+02201MA1999999099101MD1999999-0071REMSYN023333   20220 59007 60024
0096825640999991989021418004-05567-047583FM-12+0149SBIZ V0202701N00261007501CN0200001N9+03031+02311100681ADDAA106000091AG10999GF106991061031008001001001MA1999999099001MD1999999-0321REMSYN011333   59032
0115825640999991989021500004-05567-047583FM-12+0149SBIZ V0200501N00151007501CN0200001N9+02411+02231101001ADDAA106000091AG10999GF108991081051008001999999KA1240M+03111MA1999999099301MD1999999-0101REMSYN017333   10311 59010
0085825640999991989021512004-05567-047583FM-12+0149SBIZ V0203201N00151001201CN0090001N9+02591+02231101211ADDAG10999GF105991051021001501001001MA1999999099511MD1999999-0091REMSYN011333   59009
0096825640999991989021518004-05567-047583FM-12+0149SBIZ V0203201N00261105001CN0200001N9+02891+02301100761ADDAA106000091AG10999GF106991041021008001001031MA1999999099081MD1999999+0081REMSYN011333   58008
0121825640999991989021612004-05567-047583FM-12+0149SBIZ V0200901N00101045001CN0200001N9+02491+02251101361ADDAA124026091AG10999GF105991031021008001031001KA1240N+02201MA1999999099651MD1999999+0141REMSYN023333   20220 58014 60264
0140825640999991989021712004-05567-047583FM-12+0149SBIZ V0201401N00151220001CN0200001N9+02511+02341101371ADDAA124000191AG10999GF103991021011008001001011KA1240N+02301MA1999999099661MD1999999+0011REMSYN023333   20230 58001 69914EQDQ01+999990APOSLP
0096825640999991989021718004-05567-047583FM-12+0149SBIZ V0200901N00151007501CN0200001N9+02971+02361101071ADDAA106000091AG10999GF106991061021008001001001MA1999999099391MD1999999+0391REMSYN011333   58039
0115825640999991989021800004-05567-047583FM-12+0149SBIZ V0200501N00151220001CN0200001N9+02771+02481101071ADDAA106000091AG10999GF100991001001999999001001KA1240M+03251MA1999999099381MD1999999-0031REMSYN017333   10325 59003
0115825640999991989021812004-05567-047583FM-12+0149SBIZ V0203601N003119999999N0200001N9+02541+02311101381ADDAA106000091AG10999GF108991081001008001011999KA1240N+02321MA1999999099691MD1999999+0301REMSYN017333   20232 58030
0115825640999991989021912004-05567-047583FM-12+0149SBIZ V0203601N00151004201CN0200001N9+02611+02331101401ADDAA106000091AG10999GF106991061021004501001001KA1240N+02181MA1999999099701MD1999999+0011REMSYN017333   20218 58001
0096825640999991989021918004-05567-047583FM-12+0149SBIZ V0203601N00151220001CN0200001N9+03231+02171100981ADDAA106000091AG10999GF104991041021008001001001MA1999999099301MD1999999-0101REMSYN011333   59010
0115825640999991989022000004-05567-047583FM-12+0149SBIZ V0200901N00101007501CN0200001N9+02751+02341101121ADDAA106000091AG10999GF108991081071008001001999KA1240M+03311MA1999999099441MD1999999+0061REMSYN017333   10331 58006
0115825640999991989022012004-05567-047583FM-12+0149SBIZ V0203201N00151007501CN0200001N9+02551+02211101501ADDAA106000091AG10999GF108991081051008001999999KA1240N+02241MA1999999099801MD1999999+0101REMSYN017333   20224 58010
0131825640999991989022018004-05567-047583FM-12+0149SBIZ V0203601N00151220001CN0200001N9+03071+02401101251ADDAA106000091AG10999AY191061AY291061GF103991001001999999001041MA1999999099561MD1999999+0261REMSYN011333   58026EQDQ01+000982SCOLCB
0121825640999991989022112004-05567-047583FM-12+0149SBIZ V0203601N00151007501CN0200001N9+02631+02271101451ADDAA124001091AG10999GF106991061051008001001001KA1240N+02221MA1999999099761MD1999999-0041REMSYN023333   20222 59004 60014
0102825640999991989022118004-05567-047583FM-12+0149SBIZ V0200501N00151007501CN0200001N9+03231+02311101261ADDAA106000091AG10999GF105991051091008001001001MA1999999099581MD1999999+0021MW1171REMSYN011333   58002
0137825640999991989022200004-05567-047583FM-12+0149SBIZ V0203201N001519999999N0200001N9+02471+02291101201ADDAA106000591AG10999AY161061AY261061GF106991061001008001011001KA1240M+03271MA1999999099501MD1999999-0041REMSYN023333   10327 59004 69951
0121825640999991989022212004-05567-047583FM-12+0149SBIZ V0200501N001519999999N0200001N9+02431+02111101311ADDAA124001091AG10999GF105991031001008001031011KA1240N+02121MA1999999099611MD1999999-0151REMSYN023333   20212 59015 60014
0115825640999991989022218004-05567-047583FM-12+0149SBIZ V0200501N00311007501CN0200001N9+03091+02291100991ADDAA106000091AG10999GF106991999031008001001001MA1999999099331MD1999999-0271REMSYN011333   59027EQDQ01+000052SCOTLC
0121825640999991989022312004-05567-047583FM-12+0149SBIZ V0200901N00151007501CN0200001N9+02511+02451101431ADDAA124008091AG10999GF108991081051008001999999KA1240N+02151MA1999999099731MD1999999+0121REMSYN023333   20215 58012 60084
0124825640999991989022318004-05567-047583FM-12+0149SBIZ V0203201N00151007501CN0100001N9+02551+02401101061ADDAA106006091AG10999AY191061AY291061GF108991081091008001999999MA1999999099381MD1999999+0071MW1951REMSYN017333   58007 60061
0131825640999991989022400004-05567-047583FM-12+0149SBIZ V0203201N00151007501CN0200001N9+02571+02361101191ADDAA106000091AG10999AY191061AY291061GF108991081051008001999999KA1240M+03071MA1999999099491MD1999999-0051REMSYN017333   10307 59005
0121825640999991989022412004-05567-047583FM-12+0149SBIZ V0203601N00261220001CN0200001N9+02631+02311101391ADDAA124006091AG10999GF103991021011008001001011KA1240N+02401MA1999999099691MD1999999-0041REMSYN023333   20240 59004 60064
0124825640999991989022418004-05567-047583FM-12+0149SBIZ V0203201N00151007501CN0100001N9+03021+02371101041ADDAA106000591AG10999AY161061AY261061GF108991061071008001021999MA1999999099361MD1999999-0021MW1611REMSYN017333   59002 69951
0162825640999991989022500004-05567-047583FM-12+0149SBIZ V0203601N00101007501CN0200001N9+02361+02191101331ADDAA106003091AG10999AY191061AY261061GF108991999091008001001001KA1240M+03031MA1999999099631MD1999999+0141MW1131REMSYN023333   10303 58014 60031EQDQ01+000062SCOTLC
0121825640999991989022512004-05567-047583FM-12+0149SBIZ V0203201N00151007501CN0200001N9+02401+02241101431ADDAA124004091AG10999GF108991081051008001999999KA1240N+02161MA1999999099691MD1999999+0001REMSYN023333   20216 58000 60044
0132825640999991989022612004-05567-047583FM-12+0149SBIZ V0203601N00151007501CN0200001N9+02491+02311101431ADDAA124000291AA299000391AG10999GF108991081051008001999999KA1240N+02201MA1999999099731MD1999999+0041REMSYN023333   20220 58004 69924
0115825640999991989022712004-05567-047583FM-12+0149SBIZ V0203201N00261007501CN0200001N9+02471+02381101471ADDAA106000091AG10999GF106991061021008001001001KA1240N+02341MA1999999099971MD1999999+0041REMSYN017333   20234 58004
0118825640999991989022718004-05567-047583FM-12+0149SBIZ V0201401N00151007501CN0100001N9+02391+02351101251ADDAA106014091AG10999AY191061AY261061GF108991071071008001999999MA1999999099531MD1999999+0071REMSYN017333   58007 60141
0115825640999991989022800004-05567-047583FM-12+0149SBIZ V0200901N00151007501CN0200001N9+02311+02251101571ADDAA106000091AG10999GF108991081071008001999999KA1240M+02971MA1999999099831MD1999999+0261REMSYN017333   10297 58026
0121825640999991989022812004-05567-047583FM-12+0149SBIZ V0202301N001519999999N0200001N9+02331+02291101581ADDAA124014091AG10999GF108991081001008001011999KA1240N+02021MA1999999099861MD1999999+0091REMSYN023333   20202 58009 60144
0153825640999991989030100004-05567-047583FM-12+0149SBIZ V0203601N001019999999N0200001N9+02651+02441101241ADDAA106002091AG10999AY161061AY261061GA1091+999999999GF109991091999999999999999KA1240M+03211MA1999999099511MD1999999-0321REMSYN023333   10321 59032 60021
0121825640999991989030112004-05567-047583FM-12+0149SBIZ V0203601N00261007501CN0200001N9+02611+02331101511ADDAA124002091AG10999GF108991081051008001999999KA1240N+02161MA1999999099811MD1999999-0051REMSYN023333   20216 59005 60024
0096825640999991989030118004-05567-047583FM-12+0149SBIZ V0203601N00311007501CN0200001N9+03131+02331101001ADDAA106000091AG10999GF106991061031008001001001MA1999999099321MD1999999-0161REMSYN011333   59016
0143825640999991989030200004-05567-047583FM-12+0149SBIZ V0201801N00151007501CN0200001N9+02531+02321101181ADDAA106002091AG10999AY191061AY261061GF108991081091008001999999KA1240M+03131MA1999999099491MD1999999-0021MW1131REMSYN023333   10313 59002 60021
0121825640999991989030212004-05567-047583FM-12+0149SBIZ V0200501N001519999999N0200001N9+02481+02271101271ADDAA124002091AG10999GF105991051001008001061001KA1240N+02261MA1999999099621MD1999999-0191REMSYN023333   20226 59019 60024
0096825640999991989030218004-05567-047583FM-12+0149SBIZ V0201401N00261007501CN0200001N9+03111+02141100971ADDAA106000091AG10999GF105991051031008001001001MA1999999099281MD1999999-0041REMSYN011333   59004
0115825640999991989030300004-05567-047583FM-12+0149SBIZ V0200901N00311220001CN0200001N9+02571+02171101201ADDAA106000091AG10999GF100991001001999999001001KA1240M+03211MA1999999099501MD1999999+0011REMSYN017333   10321 58001
0115825640999991989030312004-05567-047583FM-12+0149SBIZ V0209991C00001007501CN0200001N9+02601+02291101301ADDAA106000091AG10999GF105991051021008001001001KA1240N+02241MA1999999100611MD1999999-0011REMSYN017333   20224 59001
0115825640999991989030318004-05567-047583FM-12+0149SBIZ V0201401N00261105001CN0200001N9+03201+02151100911ADDAA106000091AG10999GF105991041031008001001031MA1999999099242MD1999999-0041REMSYN011333   59004EQDQ01+099243APOSP 
0115825640999991989030400004-05567-047583FM-12+0149SBIZ V0209991C00001220001CN0200001N9+02551+02351101141ADDAA106000091AG10999GF100991001001999999001001KA1240M+03291MA1999999099441MD1999999-0061REMSYN017333   10329 59006
0121825640999991989030512004-05567-047583FM-12+0149SBIZ V0202701N001519999999N0200001N9+02441+02321101181ADDAA124008091AG10999GF108991081001008001011999KA1240N+02241MA1999999099421MD1999999-0251REMSYN023333   20224 59025 60084
0129825640999991989030518004-05567-047583FM-12+0149SBIZ V0202701N00151220001CN0200001N9+03151+02391100891ADDAA106000291AA299000391AG10999AY161061AY261061GF104991041021008001001001MA1999999099211MD1999999-0091REMSYN017333   59009 69921
0137825640999991989030600004-05567-047583FM-12+0149SBIZ V0202701N00151007501CN0200001N9+02511+02321100941ADDAA106000091AG10999AY191061AY291061GF108991081091008001999999KA1240M+03211MA1999999099231MD1999999-0241MW1131REMSYN017333   10321 59024
0121825640999991989030612004-05567-047583FM-12+0149SBIZ V0209991C00001007501CN0200001N9+02391+02351101221ADDAA124003091AG10999GF108991081071008001999999KA1240N+02281MA1999999099521MD1999999+0051REMSYN023333   20228 58005 60034
0124825640999991989030618004-05567-047583FM-12+0149SBIZ V0203601N00151007501CN0100001N9+02871+02391100761ADDAA106000391AG10999AY161061AY261061GF108991081071008001999999MA1999999099071MD1999999-0141MW1161REMSYN017333   59014 69931
0121825640999991989030712004-05567-047583FM-12+0149SBIZ V0201401N001519999999N0200001N9+02531+02311101301ADDAA124007091AG10999GF108991081001008001011999KA1240N+02261MA1999999099601MD1999999+0061REMSYN023333   20226 58006 60074
0118825640999991989030718004-05567-047583FM-12+0149SBIZ V0200901N00261045001CN0200001N9+02741+02411100851ADDAA106001091AG10999AY161061AY261061GF106991031021008001061001MA1999999099161MD1999999+0091REMSYN017333   58009 60011
0115825640999991989030800004-05567-047583FM-12+0149SBIZ V0209991C00001007501CN0200001N9+02491+02361101191ADDAA106000091AG10999GF108991081051008001999999KA1240M+02891MA1999999099491MD1999999-0011REMSYN017333   10289 59001
0143825640999991989030812004-05567-047583FM-12+0149SBIZ V0200901N00151007501CN0200001N9+02341+02221101301ADDAA124030091AG10999AY161061AY261061GF108991081071008001999999KA1240N+02161MA1999999099591MD1999999-0011MW1611REMSYN023333   20216 59001 60304
0115825640999991989030900004-05567-047583FM-12+0149SBIZ V0209991C00001220001CN0200001N9+02691+02411101311ADDAA106000091AG10999GF100991001001999999001001KA1240M+02931MA1999999099611MD1999999+0121REMSYN017333   10293 58012
0096825640999991989031018004-05567-047583FM-12+0149SBIZ V0200901N00101007501CN0200001N9+03181+02331100771ADDAA106000091AG10999GF107991071031008001001001MA1999999099091MD1999999+0011REMSYN011333   58001
0137825640999991989031112004-05567-047583FM-12+0149SBIZ V0209991C00001007501CN0200001N9+02511+02211101141ADDAA106000091AG10999AY191061AY291061GF108991081091008001999999KA1240M+03251MA1999999099191MD1999999-0011MW1171REMSYN017333   10325 59001
0096825640999991989031118004-05567-047583FM-12+0149SBIZ V0201801N00261045001CN0200001N9+02761+02381101141ADDAA106000091AG10999GF108991031021008001041021MA1999999099441MD1999999+0131REMSYN011333   58013
0137825640999991989031212004-05567-047583FM-12+0149SBIZ V0203601N00261045001CN0200001N9+02391+02261101461ADDAA124002091AG10999AY161061AY261061GF108991041071004501011999KA1240N+02211MA1999999099751MD1999999-0021REMSYN023333   20221 59002 60024
0096825640999991989031218004-05567-047583FM-12+0149SBIZ V0203201N00151007501CN0200001N9+02771+02481101361ADDAA106000091AG10999GF108991081071008001999999MA1999999099661MD1999999+0221REMSYN011333   58022
0115825640999991989031300004-05567-047583FM-12+0149SBIZ V0209991C00001220001CN0200001N9+02531+02351101221ADDAA106000091AG10999GF100991001001999999001001KA1240M+02871MA1999999099021MD1999999-0131REMSYN017333   10287 59013
0115825640999991989031312004-05567-047583FM-12+0149SBIZ V0200901N00151007501CN0200001N9+02611+02311101361ADDAA106000091AG10999GF108991081051008001999999KA1240N+02261MA1999999099571MD1999999-0081REMSYN017333   20226 59008
0096825640999991989031418004-05567-047583FM-12+0149SBIZ V0203601N00101220001CN0200001N9+03231+02231100881ADDAA106000091AG10999GF103991021011008001001011MA1999999099211MD1999999-0331REMSYN011333   59033
0124825640999991989031518004-05567-047583FM-12+0149SBIZ V0203201N00261220001CN0200001N9+02791+02381100871ADDAA106005091AG10999AY191061AY261061GF103991031091008001001001MA1999999099191MD1999999-0021MW1171REMSYN017333   59002 60051
0137825640999991989031612004-05567-047583FM-12+0149SBIZ V0209991C000019999999N0200001N9+02391+02261101301ADDAA124014091AG10999AY191061AY261061GF107991071001008001071001KA1240N+02101MA1999999099611MD1999999-0021REMSYN023333   20210 59002 60144
0115825640999991989031618004-05567-047583FM-12+0149SBIZ V0201801N00151220001CN0200001N9+02991+02241100871ADDAA106000091AG10999GF103991999021008001001001MA1999999099191MD1999999+0001REMSYN011333   58000EQDQ01+000022SCOTLC
0096825640999991989031718004-05567-047583FM-12+0149SBIZ V0201801N00261007501CN0200001N9+03031+02311101071ADDAA106000091AG10999GF107991071031008001001001MA1999999099351MD1999999-0161REMSYN011333   59016
0134825640999991989031800004-05567-047583FM-12+0149SBIZ V0200501N00151220001CN0200001N9+02591+02491101161ADDAA106000091AG10999GF104991041021012501001001KA1240M+02861MA1999999100982MD1999999-0011REMSYN017333   10286 59001EQDQ01+100983APOSP 
0121825640999991989031812004-05567-047583FM-12+0149SBIZ V0201801N00311007501CN0200001N9+02531+02211101491ADDAA124007091AG10999GF108991081051008001999999KA1240N+02261MA1999999099781MD1999999+0261REMSYN023333   20226 58026 60074
0096825640999991989031918004-05567-047583FM-12+0149SBIZ V0203601N00101045001CN0200001N9+02881+02331100941ADDAA106000091AG10999GF108991041021008001011001MA1999999099241MD1999999+0131REMSYN011333   58013
0115825640999991989032012004-05567-047583FM-12+0149SBIZ V0200901N00151220001CN0200001N9+02461+02371101331ADDAA106000091AG10999GF103991031021008001001001KA1240N+02161MA1999999099631MD1999999-0021REMSYN017333   20216 59002
0096825640999991989032018004-05567-047583FM-12+0149SBIZ V0201401N00151220001CN0200001N9+03111+02341100821ADDAA106000091AG10999GF105991031031008001001011MA1999999099151MD1999999-0091REMSYN011333   59009
0115825640999991989032112004-05567-047583FM-12+0149SBIZ V0203601N00151007501CN0200001N9+02531+02271101181ADDAA106000091AG10999GF107991071051008001001001KA1240N+02101MA1999999099491MD1999999-0141REMSYN017333   20210 59014
0143825640999991989032200004-05567-047583FM-12+0149SBIZ V0203601N00151007501CN0100001N9+02431+02231101131ADDAA106026091AG10999AY191061AY261061GF108991061091008001021999KA1240M+03161MA1999999099431MD1999999-0071MW1951REMSYN023333   10316 59007 60261
0096825640999991989032218004-05567-047583FM-12+0149SBIZ V0201801N002619999999N0200001N9+02831+02331101061ADDAA106000091AG10999GF107991071001008001071001MA1999999099371MD1999999-0191REMSYN011333   59019
0115825640999991989032312004-05567-047583FM-12+0149SBIZ V0200901N00151045001CN0200001N9+02531+02251101481ADDAA106000091AG10999GF106991031011004501041001KA1240N+02171MA1999999099701MD1999999+0121REMSYN017333   20217 58012
0121825640999991989032412004-05567-047583FM-12+0149SBIZ V0202701N00151007501CN0200001N9+02531+02351101431ADDAA124000391AG10999GF107991071051008001001001KA1240N+02241MA1999999099731MD1999999+0031REMSYN023333   20224 58003 69934
0096825640999991989032418004-05567-047583FM-12+0149SBIZ V0202701N00151220001CN0200001N9+99999+99999100991ADDAA106000091AG10999GF104991031011008001001011MA1999999099311MD1999999+0011REMSYN011333   58001
0143825640999991989032500004-05567-047583FM-12+0149SBIZ V0200501N00311007501CN0100001N9+02211+02201101481ADDAA106019091AG10999AY191061AY261061GF108991061091008001021999KA1240M+03081MA1999999099761MD1999999+0431MW1951REMSYN023333   10308 58043 60191
0121825640999991989032512004-05567-047583FM-12+0149SBIZ V0201401N00151007501CN0200001N9+02301+02141101321ADDAA124021091AG10999GF108991081071008001999999KA1240N+02041MA1999999099601MD1999999-0131REMSYN023333   20204 59013 60214
0096825640999991989032518004-05567-047583FM-12+0149SBIZ V0201401N00151220001CN0200001N9+02971+02281101101ADDAA106000091AG10999GF104991021011008001031001MA1999999099411MD1999999+0101REMSYN011333   58010
0134825640999991989032612004-05567-047583FM-12+0149SBIZ V0200901N00151220001CN0200001N9+02471+02401101291ADDAA106000091AG10999GF104991001001999999001031KA1240N+02161MA1999999099591MD1999999-0011REMSYN017333   20216 59001EQDQ01+000962SCOLCB
0096825640999991989032618004-05567-047583FM-12+0149SBIZ V0200901N00311220001CN0200001N9+03151+02121101001ADDAA106000091AG10999GF104991031031008001001021MA1999999099311MD1999999-0101REMSYN011333   59010
0115825640999991989032700004-05567-047583FM-12+0149SBIZ V0209991C00001220001CN0200001N9+02771+02321101161ADDAA106000091AG10999GF103991031011008001001001KA1240M+03191MA1999999099471MD1999999-0031REMSYN017333   10319 59003
0098825640999991989032712004-05567-047583FM-12+0149SBIZ V0201401N003119999999N0200001N9+02471+02231101531ADDAA106000091AG10999GA1061+999999079GF108991999999008001999999MA1999999099831REMSYN011333   8672/
0143825640999991989032800004-05567-047583FM-12+0149SBIZ V0201801N00151045001CN0100001N9+02201+01971101541ADDAA106024091AG10999AY191061AY261061GF108991021071008001021999KA1240M+03011MA1999999099781MD1999999+0311MW1611REMSYN023333   10301 58031 60241
0121825640999991989032812004-05567-047583FM-12+0149SBIZ V0200901N00151007501CN0200001N9+02231+02201101611ADDAA124029091AG10999GF108991081051008001999999KA1240N+02061MA1999999099881MD1999999+0051REMSYN023333   20206 58005 60294
0096825640999991989032818004-05567-047583FM-12+0149SBIZ V0200901N00151105001CN0200001N9+02991+02291101141ADDAA106000091AG10999GF105991041031008001001031MA1999999099451MD1999999+0121REMSYN011333   58012
0115825640999991989032900004-05567-047583FM-12+0149SBIZ V0200501N00151007501CN0200001N9+02631+02371101461ADDAA106000091AG19027GF108991081091008001999999KA1240M+03071MA1999999099871MD1999999+0091REMSYN017333   10307 58009
0115825640999991989032913004-05567-047583FM-12+0149SBIZ V0203201N00151007501CN0200001N9+02381+02201101581ADDAA106000091AG10999GF108991081051008001999999KA1240N+02141MA1999999099871MD1999999-0011REMSYN017333   20214 59001
0115825640999991989033012004-05567-047583FM-12+0149SBIZ V0201401N00211045001CN0200001N9+02551+02401101411ADDAA106000091AG10999GF107991041021008001081001KA1240N+02241MA1999999099731MD1999999-0141REMSYN017333   20224 59014
0096825640999991989033018004-05567-047583FM-12+0149SBIZ V0201401N00261007501CN0200001N9+02831+02361101021ADDAA106000091AG10999GF108991061091008001081001MA1999999099331MD1999999-0041REMSYN011333   59004
0115825640999991989033100004-05567-047583FM-12+0149SBIZ V0201401N00261007501CN0200001N9+02491+02301101181ADDAA106000091AG10999GF105991051091008001001001KA1240M+02911MA1999999099481MD1999999-0061REMSYN017333   10291 59006
0115825640999991989033112004-05567-047583FM-12+0149SBIZ V0200901N00151007501CN0200001N9+02561+02271101311ADDAA106000091AG10999GF108991081051008001999999KA1240N+02221MA1999999099611MD1999999-0121REMSYN017333   20222 59012
0096825640999991989033118004-05567-047583FM-12+0149SBIZ V0201401N00151220001CN0200001N9+03071+02321100951ADDAA106000091AG10999GF104991041031008001001001MA1999999099271MD1999999-0061REMSYN011333   59006
0137825640999991989040100004-05567-047583FM-12+0149SBIZ V0202701N00101220001CN0200001N9+02411+02201101211ADDAA106015091AG10999AY191061AY261061GF100991001001999999001001KA1240M+03191MA1999999099511MD1999999+0031REMSYN023333   10319 58003 60151
0137825640999991989040112004-05567-047583FM-12+0149SBIZ V0203601N00261007501CN0200001N9+02531+02291101531ADDAA124016091AG10999AY161061AY261061GF108991081051008001999999KA1240N+02181MA1999999099831MD1999999+0121REMSYN023333   20218 58012 60164
0096825640999991989040118004-05567-047583FM-12+0149SBIZ V0202301N00261007501CN0200001N9+03061+02171101101ADDAA106000091AG10999GF106991061031008001001001MA1999999099421MD1999999+0151REMSYN011333   58015
0115825640999991989040200004-05567-047583FM-12+0149SBIZ V0203601N00151220001CN0200001N9+02501+02291101471ADDAA106000091AG10999GF103991031011008001001001KA1240M+03071MA1999999099771MD1999999+0261REMSYN017333   10307 58026
0115825640999991989040212004-05567-047583FM-12+0149SBIZ V0200901N00151007501CN0200001N9+02371+02281101521ADDAA106000091AG10999GF106991051011008001031001KA1240N+02121MA1999999099821MD1999999-0011REMSYN017333   20212 59001
0115825640999991989040218004-05567-047583FM-12+0149SBIZ V0203201N00151007501CN0200001N9+02921+02241101161ADDAA106000091AG10999GF108991051021008001001031MA1999999097482MD1999999+0061REMSYN011333   58006EQDQ01+097483APOSP 
0134825640999991989040312004-05567-047583FM-12+0149SBIZ V0201401N001519999999N0200001N9+02521+02301101291ADDAA106000091AG10999GF107991001001999999001041KA1240N+02341MA1999999099591MD1999999+0231REMSYN017333   20234 58023EQDQ01+000972SCOLCB
0143825640999991989040500004-05567-047583FM-12+0149SBIZ V0203601N00151007501CN0200001N9+02271+02201101401ADDAA106058091AG10999AY191061AY261061GF108991081091008001999999KA1240M+03031MA1999999099691MD1999999+0281MW1611REMSYN023333   10303 58028 60581
0121825640999991989040512004-05567-047583FM-12+0149SBIZ V0200501N00151045001CN0200001N9+02371+02191101471ADDAA124062091AG10999GF105991021021008001041001KA1240N+02041MA1999999099751MD1999999+0141REMSYN023333   20204 58014 60624
0096825640999991989040618004-05567-047583FM-12+0149SBIZ V0200901N00151220001CN0200001N9+03131+02281100931ADDAA106000091AG10999GF103991031091008001001001MA1999999099311MD1999999+0001REMSYN011333   58000
0115825640999991989040712004-05567-047583FM-12+0149SBIZ V0203201N00151045001CN0200001N9+02491+02191101451ADDAA106000091AG10999GF106991041021008001041001KA1240N+02221MA1999999099751MD1999999-0151REMSYN017333   20222 59015
0137825640999991989041012004-05567-047583FM-12+0149SBIZ V0203601N00101007501CN0200001N9+02411+02331101361ADDAA124027091AG10999AY161061AY261061GF108991081051008001999999KA1240N+01801MA1999999099651MD1999999+0081REMSYN023333   20180 58008 60274
0115825640999991989041100004-05567-047583FM-12+0149SBIZ V0203601N001519999999N0200001N9+02471+02381101231ADDAA106000091AG10999GF108991081001008001071999KA1240M+02951MA1999999099531MD1999999+0141REMSYN017333   10295 58014
0137825640999991989041112004-05567-047583FM-12+0149SBIZ V0200901N001519999999N0200001N9+02551+02311101351ADDAA124008091AG10999AY161061AY261061GF106991061001008001071001KA1240N+02221MA1999999099651MD1999999+0001REMSYN023333   20222 58000 60084
0096825640999991989041118004-05567-047583FM-12+0149SBIZ V0203201N00261220001CN0200001N9+02951+02131100921ADDAA106000091AG10999GF104991031021008001001011MA1999999099241MD1999999-0051REMSYN011333   59005
0134825640999991989041212004-05567-047583FM-12+0149SBIZ V0201401N00101007501CN0200001N9+02571+02401101151ADDAA106000091AG10999GF108991081071008001999999KA1240M+99999MA1999999099451MD1999999-0081REMSYN017333   10205 59008EQDQ01 +02052ATMX  
0102825640999991989041218004-05567-047583FM-12+0149SBIZ V0203201N00151007501CN0200001N9+03161+02391100791ADDAA106000091AG10999GF107991071091008001001001MA1999999099121MD1999999-0121MW1171REMSYN011333   59012
0137825640999991989041300004-05567-047583FM-12+0149SBIZ V0203601N00151220001CN0200001N9+02511+02451101111ADDAA106013091AG10999AY191061AY261061GF100991001001999999001001KA1240M+03211MA1999999099431MD1999999-0021REMSYN023333   10321 59002 60131
0121825640999991989041312004-05567-047583FM-12+0149SBIZ V0202701N00151007501CN0200001N9+02571+02331101331ADDAA124013091AG10999GF106991061021008001001001KA1240N+02281MA1999999099631MD1999999+0021REMSYN023333   20228 58002 60134
0096825640999991989041318004-05567-047583FM-12+0149SBIZ V0201401N00151007501CN0200001N9+03121+02331100821ADDAA106000091AG10999GF106991061031008001001001MA1999999099151MD1999999+0031REMSYN011333   58003
0121825640999991989041412004-05567-047583FM-12+0149SBIZ V0203201N00151007501CN0200001N9+02511+02301101311ADDAA124002091AG10999GF108991081071008001999999KA1240N+02341MA1999999099611MD1999999-0021REMSYN023333   20234 59002 60024
0096825640999991989041418004-05567-047583FM-12+0149SBIZ V0202701N00101220001CN0200001N9+03031+02341100791ADDAA106000091AG10999GF105991041021008001001011MA1999999099111MD1999999-0041REMSYN011333   59004
0121825640999991989041512004-05567-047583FM-12+0149SBIZ V0203601N00101007501CN0200001N9+02571+02291101491ADDAA124001091AG10999GF108991081071008001999999KA1240N+02241MA1999999099801MD1999999+0191REMSYN023333   20224 58019 60014
0115825640999991989041600004-05567-047583FM-12+0149SBIZ V0200501N00151220001CN0200001N9+02571+02481101171ADDAA106000091AG10999GF100991001001999999001001KA1240M+03151MA1999999099581MD1999999+0171REMSYN017333   10315 58017
0134825640999991989041612004-05567-047583FM-12+0149SBIZ V0200901N00151220001CN0200001N9+02591+02331101391ADDAA106000091AG10999GF103991001001999999001041KA1240N+02241MA1999999099691MD1999999-0111REMSYN017333   20224 59011EQDQ01+000982SCOLCB
0121825640999991989041712004-05567-047583FM-12+0149SBIZ V0209991C00001045001CN0200001N9+02491+02301101421ADDAA124008091AG10999GF108991031011008001031999KA1240N+02201MA1999999099711MD1999999+0021REMSYN023333   20220 58002 60084
0096825640999991989041718004-05567-047583FM-12+0149SBIZ V0203201N00151007501CN0200001N9+03071+02201101031ADDAA106000091AG10999GF105991051091008001001001MA1999999099351MD1999999-0151REMSYN011333   59015
0121825640999991989041812004-05567-047583FM-12+0149SBIZ V0203201N00151045001CN0200001N9+02591+02351101321ADDAA124018091AG10999GF106991031021008001031001KA1240N+02281MA1999999099621MD1999999-0091REMSYN023333   20228 59009 60184
0121825640999991989041818004-05567-047583FM-12+0149SBIZ V0201401N00261007501CN0100001N9+02791+02361100921ADDAA106999999AG10999GF108991081071008001999999MA1999999099231MD1999999-0121MW1611REMSYN011333   59012EQDQ01  00002PRCP06
0143825640999991989041900004-05567-047583FM-12+0149SBIZ V0203601N00101220001CN0200001N9+02411+02301101111ADDAA106001091AG10999AY191061AY261061GF104991041091008001001041KA1240M+03091MA1999999099411MD1999999+0101MW1131REMSYN023333   10309 58010 60011
0121825640999991989041912004-05567-047583FM-12+0149SBIZ V0200901N00101220001CN0200001N9+02571+02331101261ADDAA124001091AG10999GF104991041011008001001001KA1240N+02201MA1999999099551MD1999999+0071REMSYN023333   20220 58007 60014
0096825640999991989041918004-05567-047583FM-12+0149SBIZ V0201401N00151045001CN0200001N9+02931+02471100891ADDAA106000091AG10999GF106991041031008001031001MA1999999099201MD1999999-0051REMSYN011333   59005
0115825640999991989042012004-05567-047583FM-12+0149SBIZ V0203601N00151007501CN0200001N9+02531+02331101341ADDAA106000091AG10999GF108991081051008001999999KA1240N+02361MA1999999099641MD1999999+0091REMSYN017333   20236 58009
0096825640999991989042018004-05567-047583FM-12+0149SBIZ V0202301N00151007501CN0200001N9+03131+02221100801ADDAA106000091AG10999GF105991051021008001001001MA1999999099121MD1999999-0081REMSYN011333   59008
0115825640999991989042100004-05567-047583FM-12+0149SBIZ V0203201N00151220001CN0200001N9+02691+02411101251ADDAA106000091AG10999GF100991001001999999001001KA1240M+03191MA1999999099561MD1999999+0301REMSYN017333   10319 58030
0115825640999991989042112004-05567-047583FM-12+0149SBIZ V0203201N00261007501CN0200001N9+02611+02401101481ADDAA106000091AG10999GF108991081051008001999999KA1240N+02321MA1999999099691MD1999999+0041REMSYN017333   20232 58004
0124825640999991989042118004-05567-047583FM-12+0149SBIZ V0200901N00151007501CN0100001N9+02621+02461101001ADDAA106003091AG10999AY191061AY261061GF107991071091008001001001MA1999999099401MD1999999-0181MW1171REMSYN017333   59018 60031
0121825640999991989042212004-05567-047583FM-12+0149SBIZ V0201401N00261007501CN0200001N9+02571+02371101401ADDAA124006091AG10999GF107991071021008001001001KA1240N+02221MA1999999098691MD1999999+0001REMSYN023333   20222 58000 60064
0115825640999991989042312004-05567-047583FM-12+0149SBIZ V0203601N00151007501CN0200001N9+02651+02331101391ADDAA106000091AG10999GF106991061051008001001001KA1240N+02261MA1999999099691MD1999999+0001REMSYN017333   20226 58000
0096825640999991989042318004-05567-047583FM-12+0149SBIZ V0209991C00001007501CN0200001N9+03191+02351101001ADDAA106000091AG10999GF105991051021008001001001MA1999999099321MD1999999+0041REMSYN011333   58004
0121825640999991989042412004-05567-047583FM-12+0149SBIZ V0203201N00151007501CN0200001N9+02631+02371101391ADDAA124004091AG10999GF108991081051008001999999KA1240N+02341MA1999999099691MD1999999+0091REMSYN023333   20234 58009 60044
0124825640999991989042418004-05567-047583FM-12+0149SBIZ V0200401N00261007501CN0200001N9+02411+02301101031ADDAA106009091AG10999AY191061AY261061GF108991061091008001041999MA1999999099321MD1999999+0001MW1611REMSYN017333   58000 60091
0137825640999991989042500004-05567-047583FM-12+0149SBIZ V0202701N00311007501CN0100001N9+02431+02371101351ADDAA106003091AG10999AY191061AY261061GF108991081071008001999999KA1240M+03011MA1999999099651MD1999999+0091REMSYN023333   10301 58009 60031
0107825640999991989042512004-05567-047583FM-12+0149SBIZ V0203601N00151045001CN0200001N9+02531+02311101311ADDAA124019091AG10999GF106991021011008001031001KA1240N+02121MA1999999099611REMSYN023333   20212 50008 60194
0108825640999991989042518004-05567-047583FM-12+0149SBIZ V0200901N00151007501CN0200001N9+02571+02401100951ADDAA106002091AG10999GF107991071031008001001001MA1999999099251MD1999999-0071MW1211REMSYN017333   59007 60021
0096825640999991989042718004-05567-047583FM-12+0149SBIZ V0200901N00151220001CN0200001N9+03011+02321100961ADDAA106000091AG10999GF104991041021008001001001MA1999999099271MD1999999+0011REMSYN011333   58001
0115825640999991989042812004-05567-047583FM-12+0149SBIZ V0200501N00101007501CN0200001N9+02511+02301101261ADDAA106000091AG10999GF108991081051008001999999KA1240N+02321MA1999999099561MD1999999-0121REMSYN017333   20232 59012
0115825640999991989042900004-05567-047583FM-12+0149SBIZ V0209991C00001220001CN0200001N9+02631+02401101261ADDAA106000091AG10999GF100991001001999999001001KA1240M+02931MA1999999099571MD1999999-0201REMSYN017333   10293 59020
0115825640999991989042912004-05567-047583FM-12+0149SBIZ V0203201N00151007501CN0200001N9+02551+02401101391ADDAA106000091AG10999GF107991071021008001001001KA1240N+02381MA1999999099691MD1999999+0131REMSYN017333   20238 58013
0121825640999991989043012004-05567-047583FM-12+0149SBIZ V0200501N00311045001CN0200001N9+02611+02401101161ADDAA124006091AG10999GF107991041021008001031001KA1240N+02201MA1999999099471MD1999999-0221REMSYN023333   20220 59022 60064
0115825640999991989050112004-05567-047583FM-12+0149SBIZ V0203601N00151007501CN0200001N9+02711+02391101421ADDAA106000091AG10999GF105991051011008001001001KA1240N+02301MA1999999099731MD1999999+0261REMSYN017333   20230 58026
0115825640999991989050200004-05567-047583FM-12+0149SBIZ V0200501N00101220001CN0200001N9+02591+02271101191ADDAA106000091AG10999GF100991001001999999001001KA1240M+03111MA1999999099501MD1999999+0071REMSYN017333   10311 58007
0115825640999991989050212004-05567-047583FM-12+0149SBIZ V0203201N00261007501CN0200001N9+02591+02391101391ADDAA106000091AG10999GF107991071021008001001001KA1240N+02281MA1999999099691MD1999999-0041REMSYN017333   20228 59004
0115825640999991989050214004-05567-047583FM-12+0149SBIZ V0203201N00261007501CN0200001N9+02591+02391101391ADDAA106000091AG10999GF107991071021008001001001KA1240N+02281MA1999999099691MD1999999-0041REMSYN017333   20228 59004
0108825640999991989050218004-05567-047583FM-12+0149SBIZ V0200901N00261007501CN0200001N9+02601+02391100921ADDAA106005091AG10999GF105991051031008001001001MA1999999099221MD1999999-0081MW1211REMSYN017333   59008 60051
0121825640999991989050312004-05567-047583FM-12+0149SBIZ V0203201N00151007501CN0200001N9+02531+02271101351ADDAA124005091AG10999GF108991081051008001999999KA1240N+02281MA1999999099651MD1999999-0041REMSYN023333   20228 59004 60054
0096825640999991989050318004-05567-047583FM-12+0149SBIZ V0203201N00311007501CN0200001N9+02991+02461100811ADDAA106000091AG10999GF106991061031008001001001MA1999999099131MD1999999-0061REMSYN011333   59006
0137825640999991989050412004-05567-047583FM-12+0149SBIZ V0203201N002619999999N0200001N9+02451+02201101361ADDAA124016091AG10999AY161061AY261061GF108991081001008001071999KA1240N+02201MA1999999099661MD1999999+0011REMSYN023333   20220 58001 60164
0096825640999991989050418004-05567-047583FM-12+0149SBIZ V0201401N00261007501CN0200001N9+02841+02441100981ADDAA106000091AG10999GF108991081071008001999999MA1999999099291MD1999999+0061REMSYN011333   58006
0115825640999991989050500004-05567-047583FM-12+0149SBIZ V0209991C00001007501CN0200001N9+02551+02401101141ADDAA106000091AG10999GF108991081091008001999999KA1240M+03031MA1999999099441MD1999999+0031REMSYN017333   10303 58003
0121825640999991989050512004-05567-047583FM-12+0149SBIZ V0203601N00311007501CN0200001N9+02531+02291101541ADDAA124011091AG10999GF108991081071008001999999KA1240N+02201MA1999999099841MD1999999+0181REMSYN023333   20220 58018 60114
0096825640999991989050518004-05567-047583FM-12+0149SBIZ V0203601N00261007501CN0200001N9+02931+02361101101ADDAA106000091AG10999GF105991051031008001001011MA1999999099411MD1999999+0121REMSYN011333   58012
0143825640999991989050600004-05567-047583FM-12+0149SBIZ V0203201N00261007501CN0040001N9+02351+02281101481ADDAA106056091AG10999AY191061AY261061GF108991061091008001021999KA1240M+03061MA1999999099771MD1999999+0331MW1611REMSYN023333   10306 58033 60561
0121825640999991989050612004-05567-047583FM-12+0149SBIZ V0202701N00151007501CN0200001N9+02431+02351101561ADDAA124057091AG10999GF105991051021008001001001KA1240N+02081MA1999999099851MD1999999+0011REMSYN023333   20208 58001 60574
0124825640999991989050618004-05567-047583FM-12+0149SBIZ V0203201N00261007501CN0100001N9+02681+02411101171ADDAA106001091AG10999AY161061AY261061GF108991051071008001041999MA1999999099471MD1999999+0061MW1161REMSYN017333   58006 60011
0121825640999991989050712004-05567-047583FM-12+0149SBIZ V0203201N00151220001CN0200001N9+02631+02391101521ADDAA124001091AG10999GF104991041011008001001001KA1240N+02201MA1999999099821MD1999999-0031REMSYN023333   20220 59003 60014
0169825640999991989050718004-05567-047583FM-12+0149SBIZ V0203601N00151007501CN0200001N9+02991+02391101091ADDAA106005091AG10999AY161061AY261061GF106991999021008001001001MA1999999099421MD1999999-0081REMSYN017333   59008 60051EQDQ01+000052SCOTLCQ02+093903APOSP Q03+999990APOSP 
0137825640999991989050800004-05567-047583FM-12+0149SBIZ V0200901N00151007501CN0200001N9+02611+02421101331ADDAA106000091AG10999AY191061AY291061GF108991081091008001999999KA1240M+03041MA1999999099631MD1999999-0181MW1131REMSYN017333   10304 59018
0132825640999991989050812004-05567-047583FM-12+0149SBIZ V0203201N00151007501CN0200001N9+02551+02361101411ADDAA106000091AA224005091AG10999GF108991081051008001999999KA1240N+02221MA1999999099711MD1999999-0111REMSYN023333   20222 59011 60054
0118825640999991989050818004-05567-047583FM-12+0149SBIZ V0202301N00261007501CN0200001N9+03021+01841100961ADDAA106000091AG10999AY191061AY291061GF106991061091008001001001MA1999999099281MD1999999-0111MW1171REMSYN011333   59011
0131825640999991989050900004-05567-047583FM-12+0149SBIZ V0203601N001519999999N0200001N9+02471+02401101511ADDAA106000091AG10999GA1091+999999999GF109991091999999999999999KA1240M+03211MA1999999099811MD1999999+0181REMSYN017333   10321 58018
0162825640999991989050912004-05567-047583FM-12+0149SBIZ V0201401N00151007501CN0200001N9+02291+02231101441ADDAA124003091AG10999AY161061AY261061GF108991051071008001021999KA1240N+02221MA1999999999999MD1999999+0021MW1611REMSYN023333   20222 58002 60034EQDQ01 091733APOSP 
0137825640999991989050918004-05567-047583FM-12+0149SBIZ V0200901N00151007501CN0200001N9+02811+02241101191ADDAA106001091AG10999AY161061AY261061GF108991081051008001999999MA1999999099502MD1999999+0221REMSYN017333   58022 60011EQDQ01+099503APOSP 
0159825640999991989051000004-05567-047583FM-12+0149SBIZ V0200901N00101007501CN0200001N9+02531+02401101531ADDAA106002091AG10999AY191061AY261061GA1091+999999999GF109991081071008001999999KA1240M+02851MA1999999099831MD1999999+0021MW1611REMSYN023333   10285 58002 60021
0121825640999991989051012004-05567-047583FM-12+0149SBIZ V0201401N00151007501CN0200001N9+02511+02381101591ADDAA124003091AG10999GF106991061021008001001001KA1240N+02201MA1999999099881MD1999999+0151REMSYN023333   20220 58015 60034
0096825640999991989051018004-05567-047583FM-12+0149SBIZ V0201401N00151220001CN0200001N9+03011+02321101061ADDAA106000091AG10999GF104991021031008001001031MA1999999099381MD1999999-0121REMSYN011333   59012
0115825640999991989051112004-05567-047583FM-12+0149SBIZ V0209991C00001045001CN0200001N9+02471+02301101631ADDAA106000091AG10999GF107991031011008001041001KA1240N+02221MA1999999099921MD1999999+0001REMSYN017333   20222 58000
0102825640999991989051118004-05567-047583FM-12+0149SBIZ V0201401N00151007501CN0100001N9+02891+02371101111ADDAA106000091AG10999GF107991071091008001001001MA1999999099441MD1999999+0061MW1171REMSYN011333   58006
0121825640999991989051212004-05567-047583FM-12+0149SBIZ V0200901N00261105001CN0200001N9+02641+02331101611ADDAA124000391AG10999GF106991021021008001031041KA1240N+02301MA1999999099911MD1999999-0011REMSYN023333   20230 59001 69934
0096825640999991989051218004-05567-047583FM-12+0149SBIZ V0200901N00311045001CN0200001N9+02991+02371101241ADDAA106000091AG10999GF105991031021008001061001MA1999999099551MD1999999+0111REMSYN011333   58011
0134825640999991989051412004-05567-047583FM-12+0149SBIZ V0200801N00311220001CN0200001N9+02771+02341101451ADDAA106000091AG10999GF102991001001999999001011KA1240N+02221MA1999999099761MD1999999-0051REMSYN017333   20222 59005EQDQ01+000982SCOLCB
0096825640999991989051418004-05567-047583FM-12+0149SBIZ V0201401N00101004201CN0100001N9+02761+02421101161ADDAA106000091AG10999GF105991051031004501001001MA1999999099171MD1999999-0031REMSYN011333   59003
0115825640999991989051500004-05567-047583FM-12+0149SBIZ V0200901N00101220001CN0200001N9+02721+02261101371ADDAA106000091AG10999GF100991001001999999001001KA1240M+03211MA1999999099671MD1999999-0011REMSYN017333   10321 59001
0107825640999991989051512004-05567-047583FM-12+0149SBIZ V0200901N00151220001CN0200001N9+02651+02331101571ADDAA106000091AG10999GF103991001001999999001011MA1999999099881REMSYN017333   2020/ 58/01EQDQ01+000982SCOLCB
0115825640999991989051612004-05567-047583FM-12+0149SBIZ V0200901N00261007501CN0200001N9+02581+02331101441ADDAA106000091AG10999GF107991071071008001001001KA1240N+02181MA1999999099741MD1999999-0141REMSYN017333   20218 59014
0102825640999991989051618004-05567-047583FM-12+0149SBIZ V0201401N00261220001CN0100001N9+03111+02221101221ADDAA106000091AG10999GF106991041031008001001011MA1999999099541MD1999999-0031MW1161REMSYN011333   59003
0115825640999991989051700004-05567-047583FM-12+0149SBIZ V0200901N00151220001CN0200001N9+02611+02401101511ADDAA106000091AG10999GF100991001001999999001001KA1240M+03171MA1999999099811MD1999999-0051REMSYN017333   10317 59005
0134825640999991989051712004-05567-047583FM-12+0149SBIZ V0200901N00151220001CN0200001N9+02571+02211101621ADDAA106000091AG10999GF102991001001999999001011KA1240N+02101MA1999999099921MD1999999+0181REMSYN017333   20210 58018EQDQ01+000982SCOLCB
0096825640999991989051718004-05567-047583FM-12+0149SBIZ V0200901N00311220001CN0200001N9+03061+02171101361ADDAA106000091AG10999GF103991021011008001001011MA1999999099611MD1999999+0071REMSYN011333   58007
0115825640999991989051800004-05567-047583FM-12+0149SBIZ V0200901N00151220001CN0200001N9+02651+02241101621ADDAA106000091AG10999GF100991001001999999001001KA1240M+03131MA1999999099921MD1999999+0111REMSYN017333   10313 58011
0115825640999991989051812004-05567-047583FM-12+0149SBIZ V0201401N00151220001CN0200001N9+02571+02211101471ADDAA106000091AG10999GF100991001001999999001001KA1240N+02101MA1999999099771MD1999999-0151REMSYN017333   20210 59015
0096825640999991989051818004-05567-047583FM-12+0149SBIZ V0200901N00311220001CN0200001N9+03171+02241101241ADDAA106000091AG10999GF104991041021008001001001MA1999999099561MD1999999-0051REMSYN011333   59005
0115825640999991989051900004-05567-047583FM-12+0149SBIZ V0200901N00151220001CN0200001N9+02691+02311101371ADDAA106000091AG10999GF100991001001999999001001KA1240M+03391MA1999999099671MD1999999-0151REMSYN017333   10339 59015
0134825640999991989051912004-05567-047583FM-12+0149SBIZ V0200901N00261220001CN0200001N9+02731+02261101701ADDAA106000091AG10999GF102991001001999999001011KA1240N+02161MA1999999099811MD1999999+0041REMSYN017333   20216 58004EQDQ01+000982SCOLCB
0115825640999991989052012004-05567-047583FM-12+0149SBIZ V0201401N00151220001CN0200001N9+02631+02331105571ADDAA106000091AG10999GF104991041011008001001001KA1240N+02201MA1999999099881MD1999999+0071REMSYN017333   20220 58007
0133825640999991989052100004-05567-047583FM-12+0149SBIZ V0201401N001019999999N0200001N9+02571+02311101582ADDAA106004091GF108991081001008001071999KA1240M+03211MA1999999999999MD1999999+0121REMSYN023333   10321 58012 60041EQDQ01 089883APOSP 
0132825640999991989052112004-05567-047583FM-12+0149SBIZ V0200901N001019999999N0200001N9+02631+02271101611ADDAA106000091AA224003091AG10999GF106991061001008001001001KA1240N+02121MA1999999099911MD1999999+0031REMSYN023333   20212 58003 60034
0130825640999991989052200004-05567-047583FM-12+0149SBIZ V0200901N001519999999N0200001N9+02471+02341101511ADDAA106006091AY161061AY261061GF108991081001008001011999KA1240M+03091MA1999999099811MD1999999-0071REMSYN023333   10309 59007 60061
0121825640999991989052212004-05567-047583FM-12+0149SBIZ V0200901N00261220001CN0200001N9+02451+02241101561ADDAA124006091AG10999GF103991031001008001031001KA1240N+02201MA1999999099861MD1999999-0051REMSYN023333   20220 59005 60064
0096825640999991989052218004-05567-047583FM-12+0149SBIZ V0200901N00261220001CN0200001N9+03181+02221101121ADDAA106000091AG10999GF102991021011008001001001MA1999999099441MD1999999-0071REMSYN011333   59007
0121825640999991989052312004-05567-047583FM-12+0149SBIZ V0201401N001519999999N0200001N9+02401+02231101401ADDAA124014091AG10999GF105991031001008001011011KA1240N+02141MA1999999099701MD1999999-0161REMSYN023333   20214 59016 60144
0096825640999991989052318004-05567-047583FM-12+0149SBIZ V0200901N00311220001CN0200001N9+03071+02101101181ADDAA106000091AG10999GF104991021011008001001041MA1999999099491MD1999999+0051REMSYN011333   58005
0115825640999991989052400004-05567-047583FM-12+0149SBIZ V0200501N00151220001CN0200001N9+02571+02141101401ADDAA106000091AG10999GF100991001001999999001001KA1240M+03091MA1999999099701MD1999999+0021REMSYN017333   10309 58002
0115825640999991989052412004-05567-047583FM-12+0149SBIZ V0201401N001519999999N0200001N9+02401+02131101441ADDAA106000091AG10999GF107991071001008001031001KA1240N+02021MA1999999100741MD1999999+0041REMSYN017333   20202 58004
0115825640999991989052418004-05567-047583FM-12+0149SBIZ V0201401N00311045001CN0200001N9+03091+02201100791ADDAA106000091AG10999GF107991031011008001041041MA1999999099412MD1999999-0081REMSYN011333   59008EQDQ01+099413APOSP 
0131825640999991989052512004-05567-047583FM-12+0149SBIZ V0201401N000519999999N0200001N9+02441+02361101411ADDAA106000091AG10999AY141061AY201061GF107991071001008001071001KA1240N+02141MA1999999099711MD1999999-0031REMSYN017333   20214 59003
0118825640999991989052518004-05567-047583FM-12+0149SBIZ V0200901N00261045001CN0200001N9+03071+02161101191ADDAA106004091AG10999AY161061AY261061GF106991031021008001011001MA1999999099501MD1999999-0091REMSYN017333   59009 60041
0140825640999991989052612004-05567-047583FM-12+0149SBIZ V0200501N00051220001CN0200001N9+02471+02341101411ADDAA124004091AG10999GF103991001001999999001041KA1240N+02161MA1999999099711MD1999999+0001REMSYN023333   20216 58000 60044EQDQ01+000952SCOLCB
0096825640999991989052618004-05567-047583FM-12+0149SBIZ V0200901N00311220001CN0200001N9+03131+02281101201ADDAA106000091AG10999GF105991031021008001001041MA1999999099511MD1999999+0011REMSYN011333   58001
0115825640999991989052700004-05567-047583FM-12+0149SBIZ V0200901N00101220001CN0200001N9+02631+02291101371ADDAA106000091AG10999GF100991001001999999001001KA1240M+03231MA1999999099671MD1999999-0081REMSYN017333   10323 59008
0134825640999991989052712004-05567-047583FM-12+0149SBIZ V0200501N00101220001CN0200001N9+02791+02361101491ADDAA106000091AG10999GF102991001001999999001011KA1240N+02261MA1999999099801MD1999999+0091REMSYN017333   20226 58009EQDQ01+000982SCOLCB
0096825640999991989052718004-05567-047583FM-12+0149SBIZ V0202301N00151220001CN0200001N9+03271+02201101121ADDAA106000091AG10999GF105991041011008001001011MA1999999099441MD1999999-0071REMSYN011333   59007
0115825640999991989052812004-05567-047583FM-12+0149SBIZ V0203201N001519999999N0200001N9+02671+02371101441ADDAA106000091AG10999GF106991061001008001031001KA1240N+02281MA1999999099761MD1999999-0041REMSYN017333   20228 59004
0137825640999991989052900004-05567-047583FM-12+0149SBIZ V0203601N00101007501CN0200001N9+02631+02251101391ADDAA106000091AG10999AY191061AY291061GF107991071091008001001001KA1240M+03161MA1999999099701MD1999999-0041MW1131REMSYN017333   10316 59004
0115825640999991989052912004-05567-047583FM-12+0149SBIZ V0201401N00101007501CN0200001N9+02411+02231101541ADDAA106000091AG10999GF108991081051008001999999KA1240N+02241MA1999999099841MD1999999+0061REMSYN017333   20224 58006
0096825640999991989052918004-05567-047583FM-12+0149SBIZ V0201801N00151007501CN0200001N9+03051+02221101191ADDAA106000091AG10999GF106991061031008001001001MA1999999099511MD1999999+0121REMSYN011333   58012
0115825640999991989053000004-05567-047583FM-12+0149SBIZ V0201801N00151220001CN0200001N9+02521+02251101381ADDAA106000091AG10999GF100991001001999999001001KA1240M+03071MA1999999099691MD1999999-0011REMSYN017333   10307 59001
0115825640999991989053012004-05567-047583FM-12+0149SBIZ V0200501N00311220001CN0200001N9+02711+02281101511ADDAA106000091AG10999GF103991031001008001041001KA1240N+02201MA1999999099811MD1999999-0031REMSYN017333   20220 59003
0118825640999991989053018004-05567-047583FM-12+0149SBIZ V0200501N001519999999N0200001N9+02711+02311101161ADDAA106001091AG10999AY161061AY261061GF106991061001008001071001MA1999999099461MD1999999-0061REMSYN017333   59006 60011
0126825640999991989053100004-05567-047583FM-12+0149SBIZ V0209991C00001007501CN0200001N9+02391+02281101031ADDAG10999AY191061AY261061GF106991061091008001001001KA1240M+03071MA1999999099731MD1999999+0041MW1131REMSYN017333   10307 58004
0121825640999991989053112004-05567-047583FM-12+0149SBIZ V0200901N00151007501CN0200001N9+02471+02301101561ADDAA124003091AG10999GF106991061021008001001001KA1240N+02161MA1999999099851MD1999999+0041REMSYN023333   20216 58004 60034
0115825640999991989060100004-05567-047583FM-12+0149SBIZ V0200901N00151220001CN0200001N9+02591+02501101411ADDAA106000091AG10999GF100991001001999999001001KA1240M+02971MA1999999099711MD1999999-0021REMSYN017333   10297 59002
0121825640999991989060112004-05567-047583FM-12+0149SBIZ V0201401N00151220001CN0200001N9+02631+02421101541ADDAA124003091AG10999GF105991031021008001001041KA1240N+02261MA1999999099851MD1999999+0001REMSYN023333   20226 58000 60034
0134825640999991989060212004-05567-047583FM-12+0149SBIZ V0201401N002619999999N0200001N9+02511+02251101541ADDAA106000091AG10999GF106991001001999999001041KA1240N+02181MA1999999099841MD1999999-0011REMSYN017333   20218 59001EQDQ01+000982SCOLCB
0096825640999991989060218004-05567-047583FM-12+0149SBIZ V0201401N00311220001CN0200001N9+03191+02201101151ADDAA106000091AG10999GF103991021011008001001041MA1999999099461MD1999999+0061REMSYN011333   58006
0115825640999991989060300004-05567-047583FM-12+0149SBIZ V0200901N00151220001CN0200001N9+02671+02281101371ADDAA106000091AG10999GF100991001001999999001001KA1240M+03211MA1999999099671MD1999999-0031REMSYN017333   10321 59003
0134825640999991989060312004-05567-047583FM-12+0149SBIZ V0201401N00151220001CN0200001N9+02731+02241101351ADDAA106000091AG10999GF103991001001999999001011KA1240N+02141MA1999999099661MD1999999-0181REMSYN017333   20214 59018EQDQ01+000982SCOLCB
0096825640999991989060318004-05567-047583FM-12+0149SBIZ V0200501N00311220001CN0200001N9+03231+02201101061ADDAA106000091AG10999GF103991031011008001001001MA1999999099381MD1999999-0081REMSYN011333   59008
0096825640999991989060418004-05567-047583FM-12+0149SBIZ V0200901N00151220001CN0200001N9+03201+02211101111ADDAA106000091AG10999GF104991021011008001001021MA1999999099431MD1999999+0051REMSYN011333   58005
0150825640999991989060512004-05567-047583FM-12+0149SBIZ V0209991C00001220001CN0200001N9+02751+02401101471ADDAA106000091AG10999AY141061AY201061GF102991001001999999001041KA1240N+02141MA1999999099781MD1999999+0101REMSYN017333   20214 58010EQDQ01+000982SCOLCB
0118825640999991989060518004-05567-047583FM-12+0149SBIZ V0200901N00151007501CN0200001N9+03211+02201101091ADDAA106008091AG10999AY161061AY261061GF105991051021008001001001MA1999999099411MD1999999-0021REMSYN017333   59002 60081
0115825640999991989060600004-05567-047583FM-12+0149SBIZ V0200901N00151220001CN0200001N9+02731+02241101271ADDAA106000091AG10999GF100991001001999999001001KA1240M+03311MA1999999099571MD1999999-0051REMSYN017333   10331 59005
0121825640999991989060612004-05567-047583FM-12+0149SBIZ V0201401N00101220001CN0200001N9+02691+02331101401ADDAA124008091AG10999GF100991001001999999001001KA1240N+02201MA1999999099701MD1999999-0081REMSYN023333   20220 59008 60084
0096825640999991989060618004-05567-047583FM-12+0149SBIZ V0200501N00311220001CN0200001N9+03211+02111101071ADDAA106000091AG10999GF103991021011008001001011MA1999999099391MD1999999-0021REMSYN011333   59002
0134825640999991989060712004-05567-047583FM-12+0149SBIZ V0201801N00101220001CN0200001N9+02611+02271101451ADDAA106000091AG10999GF103991999001012501041001KA1240N+02161MA1999999099751MD1999999+0051REMSYN017333   20216 58005EQDQ01+000022SCOTLC
0115825640999991989060800004-05567-047583FM-12+0149SBIZ V0200901N00151220001CN0200001N9+02691+02221101181ADDAA106000091AG10999GF100991001001999999001001KA1240M+03251MA1999999099491MD1999999-0061REMSYN017333   10325 59006
0134825640999991989060812004-05567-047583FM-12+0149SBIZ V0201401N00051220001CN0200001N9+02651+02351101421ADDAA106000091AG10999GF103991001001999999001011KA1240N+02101MA1999999099731MD1999999-0021REMSYN017333   20210 59002EQDQ01+000982SCOLCB
0096825640999991989060818004-05567-047583FM-12+0149SBIZ V0200901N00261220001CN0200001N9+03251+02001101161ADDAA106000091AG10999GF103991031011008001001001MA1999999099481MD1999999+0041REMSYN011333   58004
0115825640999991989060900004-05567-047583FM-12+0149SBIZ V0200901N00151220001CN0200001N9+02731+02131101391ADDAA106000091AG10999GF100991001001999999001001KA1240M+03251MA1999999099701MD1999999+0211REMSYN017333   10325 58021
0134825640999991989060912004-05567-047583FM-12+0149SBIZ V0200901N00051220001CN0200001N9+02671+02261101541ADDAA106000091AG10999GF103991001001999999001011KA1240N+02121MA1999999099851MD1999999+0121REMSYN017333   20212 58012EQDQ01+000982SCOLCB
0115825640999991989061000004-05567-047583FM-12+0149SBIZ V0200501N00151220001CN0200001N9+02691+02301101231ADDAA106000091AG10999GF100991001001999999001001KA1240M+03211MA1999999099541MD1999999-0161REMSYN017333   10321 59016
0115825640999991989061012004-05567-047583FM-12+0149SBIZ V0200901N00101220001CN0200001N9+02691+02301101611ADDAA106000091AG10999GF100991001001999999001001KA1240N+02161MA1999999099921MD1999999-0071REMSYN017333   20216 59007
0096825640999991989061018004-05567-047583FM-12+0149SBIZ V0201801N00311220001CN0200001N9+03151+02381101471ADDAA106000091AG10999GF104991021021008001001041MA1999999099791MD1999999+0241REMSYN011333   58024
0108825640999991989061100004-05567-047583FM-12+0149SBIZ V0203201N00211007501CN0020001N9+02591+02511999999ADDAA106001091AG10999AY161061AY251061GF108991051071008001071999KA1240M+03191MW1131REMSYN017333   10319 60011
0115825640999991989061112004-05567-047583FM-12+0149SBIZ V0209991C00001220001CN0200001N9+02691+02391101561ADDAA106000091AG10999GF103991031011008001001001KA1240N+02301MA1999999099871MD1999999-0051REMSYN017333   20230 59005
0118825640999991989061118004-05567-047583FM-12+0149SBIZ V0209991C00001045001CN0200001N9+02591+02331101301ADDAA106002091AG10999AY161061AY261061GF107991031021008001071001MA1999999099601MD1999999-0191REMSYN017333   59019 60021
0121825640999991989061212004-05567-047583FM-12+0149SBIZ V0201801N00151220001CN0200001N9+02411+02351101641ADDAA124002091AG10999GF103991031021008001001001KA1240N+02181MA1999999099931MD1999999+0061REMSYN023333   20218 58006 60024
0115825640999991989061412004-05567-047583FM-12+0149SBIZ V0201401N00211045001CN0100001N9+02741+02211101461ADDAA106000091AG10999GF105991031011008001031001KA1240N+02381MA1999999101381MD1999999-0091REMSYN017333   20238 59009
0115825640999991989061512004-05567-047583FM-12+0149SBIZ V0200901N00411220001CN0200001N9+02731+02051101541ADDAA106000091AG10999GF100991001001999999001001KA1240N+02101MA1999999099851MD1999999-0051REMSYN017333   20210 59005
0115825640999991989062612004-05567-047583FM-12+0149SBIZ V0201801N00101220001CN0200001N9+02571+02251101351ADDAA106000091AG10999GF100991001001999999001001KA1240N+02181MA1999999099671MD1999999-0181REMSYN017333   20218 59018
0096825640999991989062818004-05567-047583FM-12+0149SBIZ V0200901N00151220001CN0200001N9+02341+02251101181ADDAA106000091AG10999GF103991031011008001001001MA1999999099491MD1999999+0091REMSYN011333   58009
0115825640999991989070512004-05567-047583FM-12+0149SBIZ V0201401N00261220001CN0200001N9+02521+02231101791ADDAA106000091AG10999GF100991001001999999001001KA1240N+01981MA1999999100091MD1999999+0271REMSYN017333   20198 58027
0096825640999991989072112004-05567-047583FM-12+0149SBIZ V0201401N00101220001CN0200001N9+02341+02031101611ADDAA106000091AG10999GF100991001001999999001001MA1999999099911MD1999999+0131REMSYN011333   58013
0096825640999991989072118004-05567-047583FM-12+0149SBIZ V0200901N00311007501CN0200001N9+03331+01711101301ADDAA106000091AG10999GF105991051021008001001001MA1999999099621MD1999999+0081REMSYN011333   58008
0096825640999991989072212004-05567-047583FM-12+0149SBIZ V0200901N00151220001CN0200001N9+02641+02271101601ADDAA106000091AG10999GF100991001001999999001001MA1999999099991MD1999999+0001REMSYN011333   59000
0096825640999991989072312004-05567-047583FM-12+0149SBIZ V0209991C00001220001CN0200001N9+02571+02121101381ADDAA106000091AG10999GF100991001001999999001001MA1999999099681MD1999999-0231REMSYN011333   59023
0096825640999991989072412004-05567-047583FM-12+0149SBIZ V0200901N00101007501CN0200001N9+02551+02151101321ADDAA106000091AG10999GF108991081071008001999999MA1999999099631MD1999999-0051REMSYN011333   59005
0102825640999991989072512004-05567-047583FM-12+0149SBIZ V0200901N00101220001CN0200001N9+02491+02231101481ADDAA124001091AG10999GF104991041011008001001001MA1999999099781MD1999999+0051REMSYN017333   58005 60014
0096825640999991989072612004-05567-047583FM-12+0149SBIZ V0203601N00261007501CN0200001N9+02471+02171101491ADDAA106000091AG10999GF108991081071008001999999MA1999999099791MD1999999+0011REMSYN011333   58001
0096825640999991989072712004-05567-047583FM-12+0149SBIZ V0203601N00101220001CN0200001N9+02571+02191101461ADDAA106000091AG10999GF100991001001999999001001MA1999999099771MD1999999-0021REMSYN011333   59002
0102825640999991989072812004-05567-047583FM-12+0149SBIZ V0203601N00151220001CN0200001N9+02681+02221101451ADDAA106000091AG10999GF104991041021008001001001MA1999999099761MD1999999-0011REMSYN017333   20/// 59001
0102825640999991989072912004-05567-047583FM-12+0149SBIZ V0203601N00151007501CN0200001N9+02601+02251101511ADDAA124000591AG10999GF108991081071008001999999MA1999999099811MD1999999+0051REMSYN017333   58005 69954
0102825640999991989073012004-05567-047583FM-12+0149SBIZ V0203601N00101220001CN0200001N9+02601+02011101681ADDAA106000091AG10999GF100991001001999999001001MA1999999099981MD1999999+0071REMSYN017333   20/// 58007
0096825640999991989073118004-05567-047583FM-12+0149SBIZ V0200901N00101007501CN0200001N9+03321+02041101371ADDAA106000091AG10999GF105991051021008001001001MA1999999099731MD1999999+0181REMSYN011333   58018
0102825640999991989080112004-05567-047583FM-12+0149SBIZ V0200901N00261220001CN0200001N9+02711+02221101581ADDAA106000091AG10999GF104991041001008001031001MA1999999099891MD1999999-0121REMSYN017333   20/// 59012
0096825640999991989080118004-05567-047583FM-12+0149SBIZ V0200501N00311220001CN0200001N9+03431+02061101181ADDAA106000091AG10999GF103991031021008001001001MA1999999099451MD1999999-0251REMSYN011333   59025
0102825640999991989080212004-05567-047583FM-12+0149SBIZ V0200501N00311007501CN0200001N9+02651+02181101571ADDAA106000091AG10999GF108991081051008001999999MA1999999099881MD1999999-0011REMSYN017333   20/// 59001
0096825640999991989080218004-05567-047583FM-12+0149SBIZ V0200901N00261220001CN0200001N9+03131+02181101321ADDAA106000091AG10999GF103991031011008001001001MA1999999099641MD1999999+0191REMSYN011333   58019
0091825640999991989080312004-05567-047583FM-12+0149SBIZ V0201401N00261220001CN0200001N9+02501+02111101681ADDAG10999GF100991001001999999001001MA1999999099991MD1999999+0111REMSYN017333   20/// 58011
0115825640999991989080400004-05567-047583FM-12+0149SBIZ V0209991C00001220001CN0200001N9+02651+01711101401ADDAA106000091AG10999GF100991001001999999001001KA1240M+03331MA1999999099701MD1999999+0021REMSYN017333   10333 58002
0137825640999991989080412004-05567-047583FM-12+0149SBIZ V0201801N00151220001CN0200001N9+02431+02281101721ADDAA106000091AG10999GF100991001001999999001001MA1999999100001MD1999999+0021REMSYN017333   20/// 58002EQDQ01+030011APOSP Q02+999990APOSP 
0131825640999991989080418004-05567-047583FM-12+0149SBIZ V0200901N00311220001CN0200001N9+03301+01851101361ADDAA106000091AG10999GF103991031011008001011001MA1999999099701MD1999999+0141REMSYN011333   58014EQDQ01+039961APOSP Q02+999990APOSP 
0137825640999991989080512004-05567-047583FM-12+0149SBIZ V0201401N00101220001CN0200001N9+02541+01981101781ADDAA106000091AG10999GF100991001001999999001001MA1999999100071MD1999999+0071REMSYN017333   20/// 58007EQDQ01+030081APOSP Q02+999990APOSP 
0115825640999991989080600004-05567-047583FM-12+0149SBIZ V0200501N00101220001CN0200001N9+02751+02381101541ADDAA106000091AG10999GF100991001001999999001001KA1240M+03431MA1999999099851MD1999999+0371REMSYN017333   10343 58037
0115825640999991989080601004-05567-047583FM-12+0149SBIZ V0200501N00101220001CN0200001N9+02751+02381101541ADDAA106000091AG10999GF100991001001999999001001KA1240M+03431MA1999999099851MD1999999+0371REMSYN017333   10343 58037
0102825640999991989080612004-05567-047583FM-12+0149SBIZ V0200901N00151220001CN0200001N9+02711+02011101681ADDAA106000091AG10999GF100991001001999999001001MA1999999099991MD1999999+0191REMSYN017333   20/// 58019
0096825640999991989080618004-05567-047583FM-12+0149SBIZ V0200901N00151220001CN0200001N9+03351+01771101181ADDAA106000091AG10999GF104991041011008001001001MA1999999099511MD1999999+0061REMSYN011333   58006
0115825640999991989080700004-05567-047583FM-12+0149SBIZ V0209991C00001220001CN0200001N9+02841+01961101281ADDAA106000091AG10999GF100991001001999999001001KA1240M+03431MA1999999099601MD1999999-0251REMSYN017333   10343 59025
0102825640999991989080712004-05567-047583FM-12+0149SBIZ V0203601N00261220001CN0200001N9+02731+02151101491ADDAA106000091AG10999GF100991001001999999001001MA1999999099811MD1999999-0181REMSYN017333   20/// 59018
0115825640999991989080800004-05567-047583FM-12+0149SBIZ V0200501N00151220001CN0200001N9+02851+02061101211ADDAA106000091AG10999GF100991001001999999001001KA1240M+03351MA1999999099531MD1999999-0071REMSYN017333   10335 59007
0121825640999991989080812004-05567-047583FM-12+0149SBIZ V0200901N00151220001CN0200001N9+02511+02071101631ADDAA106000091AG10999GF103991001001999999001041MA1999999099941MD1999999+0131REMSYN017333   20/// 58013EQDQ01+000962SCOLCB
0096825640999991989080818004-05567-047583FM-12+0149SBIZ V0200501N00311220001CN0200001N9+03341+01751101131ADDAA106000091AG10999GF102991021011008001001001MA1999999099451MD1999999-0081REMSYN011333   59008
0115825640999991989080900004-05567-047583FM-12+0149SBIZ V0200501N00311220001CN0200001N9+02771+02011101321ADDAA106000091AG10999GF100991001001999999001001KA1240M+03351MA1999999099631MD1999999+0101REMSYN017333   10335 58010
0102825640999991989080912004-05567-047583FM-12+0149SBIZ V0201401N00151220001CN0200001N9+02471+02051101671ADDAA106000091AG10999GF101991011011008001001001MA1999999099971MD1999999+0031REMSYN017333   20/// 58003
0102825640999991989081012004-05567-047583FM-12+0149SBIZ V0200901N00151220001CN0200001N9+02551+02021101521ADDAA106000091AG10999GF100991001001999999001001MA1999999099831MD1999999-0141REMSYN017333   20/// 59014
0096825640999991989081018004-05567-047583FM-12+0149SBIZ V0200501N00311220001CN0200001N9+03351+02171101151ADDAA106000091AG10999GF104991041011008001001001MA1999999099471MD1999999-0081REMSYN011333   59008
0124825640999991989081112004-05567-047583FM-12+0149SBIZ V0209991C000019999999N0100001N9+02591+02101101411ADDAA106000091AG10999AY101061AY251061GF105991051001012501031001MA1999999099701MD1999999-0111MW1051REMSYN017333   20/// 59011
0096825640999991989081118004-05567-047583FM-12+0149SBIZ V0203201N00151220001CN0200001N9+03571+01841100951ADDAA106000091AG10999GF104991041011008001001001MA1999999099281MD1999999-0191REMSYN011333   59019
0115825640999991989081200004-05567-047583FM-12+0149SBIZ V0203601N00211220001CN0200001N9+02951+02151101201ADDAA106000091AG10999GF100991001001999999001001KA1240M+03611MA1999999099521MD1999999-0081REMSYN017333   10361 59008
0124825640999991989081212004-05567-047583FM-12+0149SBIZ V0203201N002619999999N0200001N9+02371+02281101521ADDAA124010091AG10999AY191061AY261061GF108991081001008001071999MA1999999099831MD1999999+0111REMSYN023333   20/// 58011 60104
0131825640999991989081300004-05567-047583FM-12+0149SBIZ V0209991C000019999999N0200001N9+02611+02231101391ADDAA106000091AG10999AY191061AY291061GF107991071001008001031001KA1240M+03191MA1999999099691MD1999999+0171REMSYN017333   10319 58017
0102825640999991989081312004-05567-047583FM-12+0149SBIZ V0200901N00311220001CN0200001N9+02711+02221101561ADDAA106000091AG10999GF103991011011008001031001MA1999999099871MD1999999+0041REMSYN017333   20/// 58004
0129825640999991989081318004-05567-047583FM-12+0149SBIZ V0200901N00261220001CN0200001N9+03051+02031101171ADDAA106000291AA299000391AG10999AY161061AY261061GF106991021021008001001041MA1999999099521MD1999999+0251REMSYN017333   58025 69921
0119825640999991989081412004-05567-047583FM-12+0149SBIZ V0200501N00261007501CN0200001N9+02471+02271101641ADDAA106000091AA224000291AG10999GF108991081071008001999999MA1999999099951MD1999999+0081REMSYN023333   20/// 58008 69924
0118825640999991989081418004-05567-047583FM-12+0149SBIZ V0200901N00311045001CN0200001N9+03071+02161101591ADDAA106015091AG10999AY161061AY261061GF107991021011008001031001MA1999999099511MD1999999-0011REMSYN017333   59001 60151
0115825640999991989081500004-05567-047583FM-12+0149SBIZ V0203601N001519999999N0200001N9+02651+02061101401ADDAA106000091AG10999GF105991051001008001031001KA1240M+03141MA1999999099701MD1999999+0041REMSYN017333   10314 58004
0108825640999991989081512004-05567-047583FM-12+0149SBIZ V0209991C00001220001CN0200001N9+02551+02151101671ADDAA124015091AG10999GF100991001001999999001001MA1999999099971MD1999999+0021REMSYN023333   20/// 58002 60154
0096825640999991989081518004-05567-047583FM-12+0149SBIZ V0200901N00261220001CN0200001N9+03411+02341101121ADDAA106000091AG10999GF104991041011008001001001MA1999999099451MD1999999-0061REMSYN011333   59006
0115825640999991989081600004-05567-047583FM-12+0149SBIZ V0200901N001519999999N0200001N9+02841+02191101321ADDAA106000091AG10999GF105991051001008001031001KA1240M+03471MA1999999099621MD1999999-0081REMSYN017333   10347 59008
0102825640999991989081612004-05567-047583FM-12+0149SBIZ V0201401N00151220001CN0200001N9+02691+02221101481ADDAA106000091AG10999GF104991041001008001031001MA1999999099871MD1999999-0171REMSYN017333   20/// 59017
0096825640999991989081618004-05567-047583FM-12+0149SBIZ V0201401N00311220001CN0200001N9+03371+02381101041ADDAA106000091AG10999GF104991041021008001001001MA1999999099371MD1999999-0081REMSYN011333   59008
0115825640999991989081700004-05567-047583FM-12+0149SBIZ V0209991C00001220001CN0200001N9+02911+02021101241ADDAA106000091AG10999GF103991031001008001031001KA1240M+03471MA1999999099461MD1999999-0161REMSYN017333   10347 59016
0102825640999991989081712004-05567-047583FM-12+0149SBIZ V0200501N00261007501CN0200001N9+02611+02271101551ADDAA106000091AG10999GF108991081051008001999999MA1999999099861MD1999999+0061REMSYN017333   20/// 58006
0115825640999991989081800004-05567-047583FM-12+0149SBIZ V0200501N00151220001CN0200001N9+02971+01981101321ADDAA106000091AG10999GF104991041011008001001001KA1240M+03411MA1999999099621MD1999999+0181REMSYN017333   10341 58018
0102825640999991989081812004-05567-047583FM-12+0149SBIZ V0200901N00261007501CN0200001N9+02591+02271101511ADDAA106000091AG10999GF106991061021008001001001MA1999999099811MD1999999-0051REMSYN017333   20/// 59005
0096825640999991989081818004-05567-047583FM-12+0149SBIZ V0201401N00311220001CN0200001N9+03471+01791100991ADDAA106000091AG10999GF102991021001008001001001MA1999999099341MD1999999-0131REMSYN011333   59013
0115825640999991989081900004-05567-047583FM-12+0149SBIZ V0209991C00001220001CN0200001N9+02971+02041101231ADDAA106000091AG10999GF100991001001999999001001KA1240M+03531MA1999999099551MD1999999-0071REMSYN017333   10353 59007
0102825640999991989081912004-05567-047583FM-12+0149SBIZ V0200901N00101220001CN0200001N9+02701+02031101521ADDAA106000091AG10999GF100991001001999999001001MA1999999099851MD1999999+0041REMSYN017333   20/// 58004
0115825640999991989082000004-05567-047583FM-12+0149SBIZ V0200901N00151220001CN0200001N9+02871+02211101221ADDAA106000091AG10999GF100991001001999999001001KA1240M+03461MA1999999099541MD1999999-0011REMSYN017333   10346 59001
0102825640999991989082012004-05567-047583FM-12+0149SBIZ V0200901N00411220001CN0200001N9+02711+02021101371ADDAA106000091AG10999GF100991001001999999001001MA1999999099691MD1999999-0161REMSYN017333   20/// 59016
0102825640999991989082112004-05567-047583FM-12+0149SBIZ V0200901N00261220001CN0200001N9+02671+02181101501ADDAA106000091AG10999GF104991041021008001001001MA1999999099821MD1999999+0061REMSYN017333   20/// 58006
0115825640999991989082200004-05567-047583FM-12+0149SBIZ V0203601N00151220001CN0200001N9+02911+01841101271ADDAA106000091AG10999GF100991001001999999001001KA1240M+03391MA1999999099571MD1999999+0111REMSYN017333   10339 58011
0102825640999991989082212004-05567-047583FM-12+0149SBIZ V0209991C00001220001CN0200001N9+02731+01981101571ADDAA106000091AG10999GF100991001001999999001001MA1999999099881MD1999999+0031REMSYN017333   20/// 58003
0102825640999991989082312004-05567-047583FM-12+0149SBIZ V0200501N00311007501CN0200001N9+02751+02281101571ADDAA106000091AG10999GF106991061021008001001001MA1999999099891MD1999999+0011REMSYN017333   20/// 58001
0115825640999991989082400004-05567-047583FM-12+0149SBIZ V0200901N00151220001CN0200001N9+03041+02031101271ADDAA106000091AG10999GF100991001001999999001001KA1240M+03451MA1999999099591MD1999999-0041REMSYN017333   10345 59004
0102825640999991989082412004-05567-047583FM-12+0149SBIZ V0200901N00151007501CN0200001N9+02561+02131101491ADDAA106000091AG10999GF108991081051008001999999MA1999999099801MD1999999-0091REMSYN017333   20/// 59009
0096825640999991989082418004-05567-047583FM-12+0149SBIZ V0200901N00311220001CN0200001N9+03351+02241101041ADDAA106000091AG10999GF104991041021008001001001MA1999999099371MD1999999-0221REMSYN011333   59022
0115825640999991989082500004-05567-047583FM-12+0149SBIZ V0200501N00151220001CN0200001N9+02911+01861101151ADDAA106000091AG10999GF100991001001999999001001KA1240M+03411MA1999999099451MD1999999-0141REMSYN017333   10341 59014
0096825640999991989082518004-05567-047583FM-12+0149SBIZ V0200901N00101220001CN0200001N9+03391+02211101031ADDAA106000091AG10999GF103991031011008001001001MA1999999099351MD1999999-0021REMSYN011333   59002
0102825640999991989082612004-05567-047583FM-12+0149SBIZ V0203601N00151007501CN0200001N9+02591+02191101441ADDAA106000091AG10999GF108991081051008001999999MA1999999099761MD1999999-0051REMSYN017333   20/// 59005
0115825640999991989082700004-05567-047583FM-12+0149SBIZ V0209991C00001220001CN0200001N9+02951+02071101261ADDAA106000091AG10999GF100991001001999999001001KA1240M+03391MA1999999099581MD1999999+0151REMSYN017333   10339 58015
0102825640999991989082712004-05567-047583FM-12+0149SBIZ V0200901N00261007501CN0200001N9+02521+02151101661ADDAA106000091AG10999GF108991081051008001999999MA1999999099971MD1999999+0211REMSYN017333   20/// 58021
0134825640999991989082800004-05567-047583FM-12+0149SBIZ V0200501N001519999999N0200001N9+03371+01931101291ADDAA106000091AG10999GF108991081071999999999999KA1240M+03371MA1999999099591MD1999999+0011REMSYN017333   10337 58001EQDQ01+000992SCOLCB
0102825640999991989082812004-05567-047583FM-12+0149SBIZ V0200901N00311007501CN0200001N9+02641+02201101591ADDAA106000091AG10999GF108991081071008001999999MA1999999099901MD1999999-0071REMSYN017333   20/// 59007
0096825640999991989082818004-05567-047583FM-12+0149SBIZ V0201401N00261220001CN0200001N9+03291+02211101041ADDAA106000091AG10999GF104991041021008001001001MA1999999099361MD1999999-0071REMSYN011333   59007
0115825640999991989082900004-05567-047583FM-12+0149SBIZ V0200901N00151220001CN0200001N9+02851+02061101111ADDAA106000091AG10999GF100991001001999999001001KA1240M+03411MA1999999099411MD1999999-0181REMSYN017333   10341 59018
0102825640999991989082912004-05567-047583FM-12+0149SBIZ V0201401N00151007501CN0200001N9+02471+02321101401ADDAA106000091AG10999GF108991081051008001999999MA1999999099721MD1999999-0181REMSYN017333   20/// 59018
0115825640999991989082918004-05567-047583FM-12+0149SBIZ V0200901N00311220001CN0200001N9+03391+02211101091ADDAA106000091AG10999GF103991999011008001001001MA1999999099421MD1999999+0061REMSYN011333   58006EQDQ01+000022SCOTLC
0096825640999991989083018004-05567-047583FM-12+0149SBIZ V0200901N00261220001CN0200001N9+02291+02211101051ADDAA106000091AG10999GF104991041011008001001001MA1999999099381MD1999999-0041REMSYN011333   59004
0134825640999991989083100004-05567-047583FM-12+0149SBIZ V0209991C00001220001CN0200001N9+02911+01801101091ADDAA106000091AG10999GF100991001001999999001001KA1240M+03461MA1999999099411MD1999999-0121REMSYN017333   10346 59012EQDQ01+999990APOSLP
0102825640999991989090112004-05567-047583FM-12+0149SBIZ V0201401N00151220001CN0200001N9+02531+01821101261ADDAA106000091AG10999GF100991001001999999001001MA1999999099571MD1999999+0181REMSYN017333   20/// 58018
0096825640999991989090118004-05567-047583FM-12+0149SBIZ V0201401N00311220001CN0200001N9+03591+01811100681ADDAA106000091AG10999GF101991011011008001001001MA1999999099021MD1999999-0211REMSYN011333   59021
0102825640999991989090212004-05567-047583FM-12+0149SBIZ V0203201N00051220001CN0200001N9+02661+01901101211ADDAA106000091AG10999GF100991001001999999001001MA1999999099531MD1999999-0041REMSYN017333   20/// 59004
0096825640999991989090218004-05567-047583FM-12+0149SBIZ V0200901N00261220001CN0200001N9+03591+02131100721ADDAA106000091AG10999GF103991031011008001001001MA1999999099061MD1999999+0041REMSYN011333   58004
0102825640999991989090312004-05567-047583FM-12+0149SBIZ V0203601N00261220001CN0200001N9+02731+02341101141ADDAA106000091AG10999GF100991001001999999001001MA1999999099971MD1999999-0061REMSYN017333   20/// 59006
0102825640999991989090412004-05567-047583FM-12+0149SBIZ V0200501N00261220001CN0200001N9+02611+02411101201ADDAA106000091AG10999GF104991041021008001001001MA1999999099511MD1999999+0041REMSYN017333   20/// 58004
0115825640999991989090500004-05567-047583FM-12+0149SBIZ V0200901N00101220001CN0200001N9+02951+01991100951ADDAA106000091AG10999GF100991001001999999001001KA1240M+03251MA1999999099231MD1999999+0041REMSYN017333   10325 58004
0102825640999991989090512004-05567-047583FM-12+0149SBIZ V0200901N00311220001CN0200001N9+02791+02181101121ADDAA106000091AG10999GF100991001001999999001001MA1999999099451MD1999999-0061REMSYN017333   20/// 59006
0115825640999991989090518004-05567-047583FM-12+0149SBIZ V0200901N002619999999N0200001N9+03391+02211100821ADDAA106000091AG10999GF105991999021008001001001MA1999999099151MD1999999-0181REMSYN011333   59018EQDQ01+000042SCOTLC
0102825640999991989090612004-05567-047583FM-12+0149SBIZ V0200901N00151007501CN0200001N9+02611+02231101131ADDAA106000091AG10999GF108991081051008001999999MA1999999099451MD1999999+0001REMSYN017333   20/// 58000
0096825640999991989090618004-05567-047583FM-12+0149SBIZ V0200901N00101007501CN0200001N9+03331+02091100671ADDAA106000091AG10999GF106991061021008001001001MA1999999099001MD1999999-0151REMSYN011333   59015
0102825640999991989090712004-05567-047583FM-12+0149SBIZ V0200501N03081007501CN0200001N9+02751+02281101231ADDAA106000091AG10999GF106991061021008001001001MA1999999099551MD1999999+0101REMSYN017333   20/// 58010
0115825640999991989090800004-05567-047583FM-12+0149SBIZ V0200501N00151220001CN0200001N9+03031+02091100881ADDAA106000091AG10999GF100991001001999999001001KA1240M+03571MA1999999099221MD1999999-0131REMSYN017333   10357 59013
0102825640999991989090812004-05567-047583FM-12+0149SBIZ V0200901N00151007501CN0200001N9+02691+02411101351ADDAA106000091AG10999GF108991081051008001999999MA1999999099601MD1999999+0051REMSYN017333   20/// 58005
0102825640999991989090912004-05567-047583FM-12+0149SBIZ V0200501N00311007501CN0200001N9+02591+02191101381ADDAA106000091AG10999GF108991081051008001999999MA1999999099711MD1999999+0111REMSYN017333   20/// 58011
0115825640999991989091000004-05567-047583FM-12+0149SBIZ V0203601N00101220001CN0200001N9+02971+02121101051ADDAA106000091AG10999GF100991001001999999001001KA1240M+03391MA1999999099371MD1999999-0021REMSYN017333   10339 59002
0102825640999991989091012004-05567-047583FM-12+0149SBIZ V0200901N00151007501CN0200001N9+02511+02091101371ADDAA106000091AG10999GF108991081051008001999999MA1999999099671MD1999999-0041REMSYN017333   20/// 59004
0115825640999991989091100004-05567-047583FM-12+0149SBIZ V0200501N00151220001CN0200001N9+03011+02041100981ADDAA106000091AG10999GF100991001001999999001001KA1240M+03541MA1999999099291MD1999999-0081REMSYN017333   10354 59008
0102825640999991989091112004-05567-047583FM-12+0149SBIZ V0200901N00311007501CN0200001N9+02571+02121101431ADDAA106000091AG10999GF108991081071008001999999MA1999999099751MD1999999+0081REMSYN017333   20/// 58008
0115825640999991989091200004-05567-047583FM-12+0149SBIZ V0203601N00151220001CN0200001N9+02931+02311101161ADDAA106000091AG10999GF100991001001999999001001KA1240M+03411MA1999999099481MD1999999+0191REMSYN017333   10341 58019
0102825640999991989091212004-05567-047583FM-12+0149SBIZ V0201401N00151007501CN0200001N9+02621+02121101431ADDAA106000091AG10999GF107991071021008001001001MA1999999099751MD1999999+0001REMSYN017333   20/// 58000
0096825640999991989091218004-05567-047583FM-12+0149SBIZ V0201401N00151007501CN0200001N9+03351+02301100801ADDAA106000091AG10999GF105991051011008001001001MA1999999099141MD1999999-0251REMSYN011333   59025
0115825640999991989091300004-05567-047583FM-12+0149SBIZ V0209991C00001220001CN0200001N9+02911+02071101051ADDAA106000091AG10999GF100991001001999999001001KA1240M+03441MA1999999099371MD1999999-0111REMSYN017333   10344 59011
0102825640999991989091312004-05567-047583FM-12+0149SBIZ V0200501N00151007501CN0200001N9+99999+99999101271ADDAA106000091AG10999GF108991081071008001999999MA1999999099591MD1999999-0161REMSYN017333   20/// 59016
0096825640999991989091318004-05567-047583FM-12+0149SBIZ V0201801N00311220001CN0200001N9+03211+02211100851ADDAA106000091AG10999GF104991041021008001001001MA1999999099181MD1999999+0041REMSYN011333   58004
0102825640999991989091412004-05567-047583FM-12+0149SBIZ V0200501N00261007501CN0200001N9+02731+02261101281ADDAA106000091AG10999GF106991061011008001001001MA1999999099601MD1999999+0011REMSYN017333   20/// 58001
0096825640999991989091418004-05567-047583FM-12+0149SBIZ V0209991C00001007501CN0200001N9+03391+02371100861ADDAA106000091AG10999GF106991061021008001001001MA1999999099191MD1999999+0011REMSYN011333   58001
0115825640999991989091500004-05567-047583FM-12+0149SBIZ V0203601N00151220001CN0200001N9+03011+02041101071ADDAA106000091AG10999GF100991001001999999001001KA1240M+03441MA1999999099381MD1999999+0051REMSYN017333   10344 58005
0102825640999991989091612004-05567-047583FM-12+0149SBIZ V0203601N00261220001CN0200001N9+02741+02001101541ADDAA106000091AG10999GF100991001001999999001001MA1999999099861MD1999999+0031REMSYN017333   20/// 58003
0096825640999991989091712004-05567-047583FM-12+0149SBIZ V0203601N00151220001CN0200001N9+02831+02171101531ADDAA106000091AG10999GF104991041011008001001001MA1999999099841MD1999999-0021REMSYN011333   59002
0115825640999991989091800004-05567-047583FM-12+0149SBIZ V0209991C00001220001CN0200001N9+02751+02231101171ADDAA106000091AG10999GF100991001001999999001001KA1240M+03511MA1999999099491MD1999999+0001REMSYN017333   10351 58000
0091825640999991989091812004-05567-047583FM-12+0149SBIZ V0200501N002619999999N0100001N9+02671+02241101461ADDAG10999GF108991081001012501011999MA1999999099771MD1999999-0071REMSYN017333   20/// 59007
0112825640999991989091818004-05567-047583FM-12+0149SBIZ V0200501N00311220001CN0200001N9+03411+02241100951ADDAA106000091AG10999AY101061AY251061GF104991041011008001001001MA1999999099281MD1999999+0071REMSYN011333   58007
0115825640999991989091900004-05567-047583FM-12+0149SBIZ V0200501N00261220001CN0200001N9+02871+02081101181ADDAA106000091AG10999GF100991001001999999001001KA1240M+03461MA1999999099491MD1999999+0001REMSYN017333   10346 58000
0102825640999991989091912004-05567-047583FM-12+0149SBIZ V0200901N00261007501CN0200001N9+02611+02031101651ADDAA106000091AG10999GF106991061011008001001001MA1999999099961MD1999999+0191REMSYN017333   202// 58019
0096825640999991989091918004-05567-047583FM-12+0149SBIZ V0201401N00151007501CN0200001N9+03401+01961101241ADDAA106000091AG10999GF106991061031008001001001MA1999999099571MD1999999+0291REMSYN011333   58029
0115825640999991989092000004-05567-047583FM-12+0149SBIZ V0203601N00151220001CN0200001N9+02971+01981101321ADDAA106000091AG10999GF100991001001999999001001KA1240M+03451MA1999999099641MD1999999+0161REMSYN017333   10345 58016
0102825640999991989092012004-05567-047583FM-12+0149SBIZ V0200901N00311220001CN0200001N9+02711+02171101491ADDAA106000091AG10999GF102991021001008001041001MA1999999099811MD1999999+0151REMSYN017333   20/// 58015
0096825640999991989092018004-05567-047583FM-12+0149SBIZ V0201401N00151220001CN0200001N9+03451+02061100921ADDAA106000091AG10999GF104991041021008001001001MA1999999099251MD1999999-0021REMSYN011333   59002
0115825640999991989092100004-05567-047583FM-12+0149SBIZ V0209991C00001220001CN0200001N9+03071+02011101081ADDAA106000091AG10999GF100991001001999999001001KA1240M+03611MA1999999099411MD1999999-0231REMSYN017333   10361 59023
0102825640999991989092112004-05567-047583FM-12+0149SBIZ V0200901N00261007501CN0200001N9+02631+99999101391ADDAA106000091AG10999GF108991081071008001999999MA1999999099701MD1999999-0071REMSYN017333   20/// 59007
0096825640999991989092118004-05567-047583FM-12+0149SBIZ V0202301N00101007501CN0200001N9+03301+02001100921ADDAA106000091AG10999GF108991081051008001999999MA1999999099241MD1999999-0011REMSYN011333   59001
0115825640999991989092200004-05567-047583FM-12+0149SBIZ V0203601N00261007501CN0200001N9+02811+02241101161ADDAA106000091AG10999GF108991081071008001999999KA1240M+03451MA1999999099471MD1999999+0061REMSYN017333   10345 58006
0102825640999991989092212004-05567-047583FM-12+0149SBIZ V0200901N00261007501CN0200001N9+02741+02171101521ADDAA106000091AG10999GF108991081071008001999999MA1999999099841MD1999999+0141REMSYN017333   20/// 58014
0102825640999991989092312004-05567-047583FM-12+0149SBIZ V0200501N00151007501CN0200001N9+02691+02201101481ADDAA106000091AG10999GF108991081051008001999999MA1999999099801MD1999999-0041REMSYN017333   20/// 59004
0096825640999991989092318004-05567-047583FM-12+0149SBIZ V0200901N00151220001CN0200001N9+03471+01881101151ADDAA106000091AG10999GF103991031021008001001001MA1999999099481MD1999999+0161REMSYN011333   58016
0115825640999991989092400004-05567-047583FM-12+0149SBIZ V0203601N00151220001CN0200001N9+03071+02041101081ADDAA106000091AG10999GF100991001001999999001001KA1240M+03531MA1999999099411MD1999999-0151REMSYN017333   10353 59015
0102825640999991989092412004-05567-047583FM-12+0149SBIZ V0200901N00261007501CN0200001N9+02521+02151101471ADDAA106000091AG10999GF108991081051008001999999MA1999999099501MD1999999+0101REMSYN017333   20/// 58010
0096825640999991989092518004-05567-047583FM-12+0149SBIZ V0201801N00261045001CN0200001N9+03291+01981101041ADDAA106000091AG10999GF106991041031008001031001MA1999999099371MD1999999+0101REMSYN011333   58010
