0115825780999991989010200004-05083-042817FM-12+009099999V0203601N00311007501CN9999999N9+02611+02381101231ADDAA106000091AG10999GF108991051051008001999999KA1240M+03111MA1999999100211MD1999999+0161REMSYN017333   10311 58016
0143825780999991989010212004-05083-042817FM-12+009099999V0201401N00211045001CN0040001N9+02621+02411101281ADDAA124008091AG10999AY161061AY201061GF107991021021008001031041KA1240N+02191MA1999999100251MD1999999-0021MW1021REMSYN023333   20219 59002 60084
0115825780999991989010300004-05083-042817FM-12+009099999V0200501N00151012001CN9999999N9+02531+02131101061ADDAA106000091AG10999GF106991061081008001001001KA1240M+03151MA1999999100041MD1999999-0171REMSYN017333   10315 59017
0115825780999991989010312004-05083-042817FM-12+009099999V0200901N00311015001CN0040001N9+02591+02331101171ADDAA106000091AG10999GF106991051001017501011011KA1240N+02221MA1999999100151MD1999999-0101REMSYN017333   20222 59010
0096825780999991989010318004-05083-042817FM-12+009099999V0200901N00211045001CN0040001N9+03111+02091100821ADDAA106000091AG10999GF107991031051008001071081MA1999999099811MD1999999-0071REMSYN011333   59007
0115825780999991989010500004-05083-042817FM-12+009099999V0200501N00051220001CN9999999N9+02591+02431101011ADDAA106000091AG10999GF100991001001999999001001KA1240M+03291MA1999999100001MD1999999+0031REMSYN017333   10329 58003
0134825780999991989010512004-05083-042817FM-12+009099999V0200501N00211220001CN0040001N9+02791+02231101301ADDAA106000091AG10999GF102991999011999999001001KA1240N+02201MA1999999100281MD1999999+0051REMSYN017333   20220 58005EQDQ01+000012SCOTLC
0096825780999991989010518004-05083-042817FM-12+009099999V0200901N00361220001CN0040001N9+03351+02081100961ADDAA106000091AG10999GF102991021021008001001001MA1999999099951MD1999999+0021REMSYN011333   58002
0115825780999991989010600004-05083-042817FM-12+009099999V0209999999999220001CN9999999N9+02631+02461101051ADDAA106000091AG10999GF100991001001999999001001KA1240M+03311MA1999999100031MD1999999+0031REMSYN017333   10331 58003
0115825780999991989010612004-05083-042817FM-12+009099999V0200901N00311220001CN0040001N9+02831+02271101221ADDAA106000091AG10999GF101991001001999999001011KA1240N+02231MA1999999100901MD1999999-0081REMSYN017333   20223 59008
0115825780999991989010618004-05083-042817FM-12+009099999V0200901N00101220001CN0040001N9+03281+02101100911ADDAA106000091AG10999GF104991041081008001001001MA1999999099902MD1999999-0051REMSYN011333   59005EQDQ01+099903APOSP 
0115825780999991989010800004-05083-042817FM-12+009099999V0209999999999220001CN9999999N9+02621+02391100821ADDAA106000091AG10999GF101991011011008001001001KA1240M+03211MA1999999099801MD1999999-0071REMSYN017333   10321 59007
0115825780999991989010812004-05083-042817FM-12+009099999V0200501N00151007501CN0040001N9+02611+02251101061ADDAA106000091AG10999GF107991071051008001001001KA1240N+02201MA1999999100041MD1999999-0011REMSYN017333   20220 59001
0096825780999991989010818004-05083-042817FM-12+009099999V0200901N00151045001CN0040001N9+03081+02291100651ADDAA106000091AG10999GF108991021021008001031001MA1999999099651MD1999999-0061REMSYN011333   59006
0115825780999991989011012004-05083-042817FM-12+009099999V0200501N00211220001CN0040001N9+02711+02241101301ADDAA106000091AG10999GF102991021021008001001001KA1240N+02241MA1999999100281MD1999999+0161REMSYN017333   20224 58016
0096825780999991989011018004-05083-042817FM-12+009099999V0201401N00211045001CN0040001N9+03201+01961100991ADDAA106000091AG10999GF106991031021008001011041MA1999999099981MD1999999+0151REMSYN011333   58015
0115825780999991989011100004-05083-042817FM-12+009099999V0209991C00001220001CN9999999N9+02561+02351101141ADDAA106000091AG10999GF100991001001999999001001KA1240M+03261MA1999999100121MD1999999+0211REMSYN017333   10326 58021
0115825780999991989011112004-05083-042817FM-12+009099999V0201801N00101007501CN0040001N9+02691+02371101351ADDAA106000091AG10999GF107991071051008001001001KA1240N+02161MA1999999100131MD1999999+0051REMSYN017333   20216 58005
0115825780999991989011212004-05083-042817FM-12+009099999V0200901N00151012001CN0040001N9+02661+02331101361ADDAA106000091AG10999GF107991071081008001001001KA1240N+02401MA1999999100341MD1999999+0011REMSYN017333   20240 58001
0143825780999991989011400004-05083-042817FM-12+009099999V0203201N00151045001CN9999999N9+02361+02301101321ADDAA106009091AG10999AY161061AY261061GF108991041051008001021999KA1240M+03211MA1999999100291MD1999999+0241MW1611REMSYN023333   10321 58024 60091
0143825780999991989011412004-05083-042817FM-12+009099999V0200901N00511007501CN0040001N9+02571+02301101741ADDAA124002091AG10999AY161061AY201061GF108991071051008001031001KA1240N+02281MA1999999100711MD1999999+0181MW1021REMSYN023333   20228 58018 60024
0096825780999991989011418004-05083-042817FM-12+009099999V0203601N00101007501CN0040001N9+03131+02221101051ADDAA106000091AG10999GF105991051021008001001001MA1999999100051MD1999999+0141REMSYN011333   58014
0096825780999991989011618004-05083-042817FM-12+009099999V0203601N00151220001CN0040001N9+03171+02321101061ADDAA106000091AG10999GF102991011011008001001041MA1999999100051MD1999999+0011REMSYN011333   58001
0115825780999991989011700004-05083-042817FM-12+009099999V0200501N00051007501CN9999999N9+02611+02511101351ADDAA106000091AG10999GF106991061021008001001001KA1240M+03221MA1999999100591MD1999999+0081REMSYN017333   10322 58008
0115825780999991989011712004-05083-042817FM-12+009099999V0200901N00211220001CN0040001N9+02711+02371101321ADDAA106000091AG10999GF102991021021008001001001KA1240N+02281MA1999999100301MD1999999-0131REMSYN017333   20228 59013
0096825780999991989011718004-05083-042817FM-12+009099999V0203601N00211012001CN0040001N9+03231+02261101011ADDAA106000091AG10999GF105991051081008001001001MA1999999100001MD1999999-0051REMSYN011333   59005
0115825780999991989011800004-05083-042817FM-12+009099999V0203601N00051220001CN9999999N9+02631+02441101001ADDAA106000091AG10999GF100991001001999999001001KA1240M+03321MA1999999099981MD1999999-0351REMSYN017333   10332 59035
0115825780999991989011812004-05083-042817FM-12+009099999V0203601N00211220001CN0040001N9+02691+02351101381ADDAA106000091AG10999GF104991041021008001001001KA1240N+02301MA1999999100361MD1999999+0061REMSYN017333   20230 58006
0096825780999991989011818004-05083-042817FM-12+009099999V0200601N00151220001CN0040001N9+03201+02181100951ADDAA106000091AG10999GF102991021021008001001001MA1999999099941MD1999999-0061REMSYN011333   59006
0115825780999991989011900004-05083-042817FM-12+009099999V0203601N00151220001CN9999999N9+02651+02461100991ADDAA106000091AG10999GF106991021021008001001041KA1240M+03301MA1999999099971MD1999999-0011REMSYN017333   10330 59001
0115825780999991989011912004-05083-042817FM-12+009099999V0200501N00211220001CN0040001N9+02721+02391101021ADDAA106000091AG10999GF103991031021008001001001KA1240N+02301MA1999999100201MD1999999-0161REMSYN017333   20230 59016
0096825780999991989011918004-05083-042817FM-12+009099999V0200501N00261007501CN0040001N9+03291+02351100961ADDAA106000091AG10999GF106991061031008001001001MA1999999099851MD1999999-0091REMSYN011333   59009
0115825780999991989012100004-05083-042817FM-12+009099999V0203601N00101220001CN9999999N9+02551+02211101001ADDAA106000091AG10999GF106991021021008001001041KA1240M+03241MA1999999099981MD1999999+0031REMSYN017333   10324 58003
0115825780999991989012112004-05083-042817FM-12+009099999V0200901N00211220001CN0040001N9+02761+02401101191ADDAA106000091AG10999GF102991011011008001001011KA1240N+02221MA1999999100171MD1999999-0051REMSYN017333   20222 59005
0096825780999991989012118004-05083-042817FM-12+009099999V0201401N00211220001CN0040001N9+03281+02531100851ADDAA106000091AG10999GF106991041021008001001011MA1999999099851MD1999999-0051REMSYN011333   59005
0134825780999991989012212004-05083-042817FM-12+009099999V0200901N00151045001CN0040001N9+02711+02371101291ADDAA106000091AG10999GF106991011021008001031011KA1240N+02201MA1999999100261MD1999999+0101REMSYN017333   20220 58010EQDQ01+999990APOSP 
0096825780999991989012218004-05083-042817FM-12+009099999V0201401N00211220001CN0040001N9+03261+02381100921ADDAA106000091AG10999GF103991031021008001001001MA1999999099921MD1999999+0071REMSYN011333   58007
0115825780999991989012312004-05083-042817FM-12+009099999V0201401N00211220001CN0040001N9+02641+02331101191ADDAA106000091AG10999GF102991021051008001001001KA1240N+02061MA1999999100171MD1999999-0101REMSYN017333   20206 59010
0096825780999991989012318004-05083-042817FM-12+009099999V0200901N00151220001CN0040001N9+03241+02421100861ADDAA106000091AG10999GF102991021021008001001001MA1999999099851MD1999999-0071REMSYN011333   59007
0115825780999991989012400004-05083-042817FM-12+009099999V0200501N00361012001CN9999999N9+02631+02181101061ADDAA106000091AG10999GF107991071081008001001001KA1240M+03311MA1999999100041MD1999999+0071REMSYN017333   10331 58007
0143825780999991989012412004-05083-042817FM-12+009099999V0201401N00261220001CN0040001N9+02621+02351101161ADDAA124002091AG10999AY161061AY201061GF103991031021008001001001KA1240N+02241MA1999999100141MD1999999-0031MW1021REMSYN023333   20224 59003 60024
0096825780999991989012418004-05083-042817FM-12+009099999V0200901N00101220001CN0040001N9+03161+02341100791ADDAA106000091AG10999GF102991021021008001001001MA1999999099781MD1999999-0071REMSYN011333   59007
0121825780999991989012512004-05083-042817FM-12+009099999V0201401N00261007501CN0040001N9+02481+02271101201ADDAA124014091AG10999GF106991051021008001001041KA1240N+02181MA1999999100181MD1999999+0041REMSYN023333   20218 58004 60144
0124825780999991989012518004-05083-042817FM-12+009099999V0202701N00151045001CN0040001N9+02731+02431100851ADDAA106006091AG19003AY161061AY201061GF106991021031008001011081MA1999999099841MD1999999-0061MW1011REMSYN017333   59006 60061
0143825780999991989012712004-05083-042817FM-12+009099999V0201401N00151045001CN0040001N9+02651+02331101211ADDAA124019091AG19005AY161061AY201061GF106991041021008001031001KA1240N+02181MA1999999100191MD1999999+0061MW1021REMSYN023333   20218 58006 60194
0096825780999991989012718004-05083-042817FM-12+009099999V0209991C00001105001CN0040001N9+03131+02231100751ADDAA106000091AG10999GF107991031031008001001081MA1999999099741MD1999999-0171REMSYN011333   59017
0096825780999991989012818004-05083-042817FM-12+009099999V0201401N00151045001CN0040001N9+03031+02361100871ADDAA106000091AG10999GF107991031021008001071041MA1999999099861MD1999999+0121REMSYN011333   58012
0096825780999991989012918004-05083-042817FM-12+009099999V0201401N00261007501CN0040001N9+03211+02331100791ADDAA106000091AG10999GF106991061031008001001001MA1999999099791MD1999999-0071REMSYN011333   59007
0115825780999991989013012004-05083-042817FM-12+009099999V0201401N00051007501CN0040001N9+02651+02401101191ADDAA106000091AG10999GF107991071051008001001001KA1240N+02211MA1999999100171MD1999999+0021REMSYN017333   20221 58002
0096825780999991989013018004-05083-042817FM-12+009099999V0200501N00151007501CN0040001N9+03221+02341100791ADDAA106000091AG10999GF105991051031008001001001MA1999999099791MD1999999+0001REMSYN011333   58000
0115825780999991989013100004-05083-042817FM-12+009099999V0200501N00051220001CN9999999N9+02401+01301100931ADDAA106000091AG10999GF101991011031008001001001KA1240M+03251MA1999999099911MD1999999-0041REMSYN017333   10325 59004
0115825780999991989013112004-05083-042817FM-12+009099999V0200901N00051007501CN0040001N9+02531+02401101221ADDAA106000091AG10999GF108991081051008001999999KA1240N+02321MA1999999100201MD1999999+0031REMSYN017333   20232 58003
0115825780999991989020100004-05083-042817FM-12+009099999V0209999999999045001CN9999999N9+02561+02471101091ADDAA106000091AG10999GF108991031051008001011999KA1240M+02901MA1999999100071MD1999999+0161REMSYN017333   10290 58016
0121825780999991989020112004-05083-042817FM-12+009099999V0200501N00151045001CN0040001N9+02671+02441101281ADDAA124005091AG10999GF108991021011008001031081KA1240N+02341MA1999999100251MD1999999+0021REMSYN023333   20234 58002 60054
0096825780999991989020118004-05083-042817FM-12+009099999V0201401N00101045001CN0040001N9+03051+02381100981ADDAA106000091AG10999GF107991021021008001011041MA1999999099971MD1999999+0011REMSYN011333   58001
0115825780999991989020200004-05083-042817FM-12+009099999V0201401N00101045001CN9999999N9+02621+02481101061ADDAA106000091AG10999GF107991021021008001011001KA1240M+03121MA1999999100241MD1999999-0031REMSYN017333   10312 59003
0154825780999991989020212004-05083-042817FM-12+009099999V0200901N00101012001CN0040001N9+02691+02451101261ADDAA124000691AA299000591AG10999AY151061AY201061GF106991061081008001001001KA1240N+02401MA1999999100421MD1999999-0111MW1021REMSYN023333   20240 59011 69964
0096825780999991989020218004-05083-042817FM-12+009099999V0200501N00151105001CN0040001N9+03141+02321100901ADDAA106000091AG10999GF107991031021008001001081MA1999999099901MD1999999-0071REMSYN011333   59007
0115825780999991989020300004-05083-042817FM-12+009099999V0209991C00001105001CN9999999N9+02601+02331100951ADDAA106000091AG10999GF106991001001999999001071KA1240M+03191MA1999999099931MD1999999-0111REMSYN017333   10319 59011
0115825780999991989020312004-05083-042817FM-12+009099999V0203601N00101220001CN0040001N9+02621+02441101281ADDAA106000091AG10999GF103991011001017501031011KA1240N+02281MA1999999100261MD1999999+0021REMSYN017333   20228 58002
0096825780999991989020318004-05083-042817FM-12+009099999V0200501N00311220001CN0040001N9+03241+02161100961ADDAA106000091AG10999GF103991031021008001001001MA1999999099901MD1999999+0001REMSYN011333   58000
0115825780999991989020500004-05083-042817FM-12+009099999V0200501N00411007501CN9999999N9+02561+02531101321ADDAA106000091AG10999GF108991081051008001999999KA1240M+03201MA1999999100301MD1999999+0211REMSYN017333   10320 58021
0115825780999991989020512004-05083-042817FM-12+009099999V0200901N00101012001CN0040001N9+02621+02501101521ADDAA106000091AG10999GF106991061081008001001001KA1240N+02181MA1999999100481MD1999999+0091REMSYN017333   20218 58009
0096825780999991989020518004-05083-042817FM-12+009099999V0200901N00151220001CN0200001N9+03231+02341101011ADDAA106000091AG10999GF102991021021008001001001MA1999999100031MD1999999-0071REMSYN011333   59007
0115825780999991989020600004-05083-042817FM-12+009099999V0209991C00001220001CN9999999N9+02621+02371101111ADDAA106000091AG10999GF100991001001999999001001KA1240M+03321MA1999999100091MD1999999-0131REMSYN017333   10332 59013
0115825780999991989020612004-05083-042817FM-12+009099999V0200501N00211012001CN0040001N9+02641+02371101371ADDAA106000091AG10999GF107991071081008001001001KA1240N+02221MA1999999100351MD1999999-0131REMSYN017333   20222 59013
0115825780999991989020812004-05083-042817FM-12+009099999V0203201N00151012001CN0040001N9+02621+02351101251ADDAA106000091AG10999GF106991061081008001001001KA1240N+02281MA1999999100231MD1999999+0011REMSYN017333   20228 58001
0096825780999991989020918004-05083-042817FM-12+009099999V0203601N00261220001CN0040001N9+03161+02321100901ADDAA106000091AG10999GF106991041031008001001011MA1999999099901MD1999999+0011REMSYN011333   58001
0115825780999991989021100004-05083-042817FM-12+009099999V0200501N00051220001CN9999999N9+02561+02491101141ADDAA106000091AG10999GF102991001001999999001041KA1240M+03061MA1999999100121MD1999999-0251REMSYN017333   10306 59025
0115825780999991989021112004-05083-042817FM-12+009099999V0200501N00151220001CN0040001N9+02701+02111101301ADDAA106000091AG10999GF104991041021008001001001KA1240N+02321MA1999999100281MD1999999-0081REMSYN017333   20232 59008
0154825780999991989021200004-05083-042817FM-12+009099999V0203201N00051105001CN9999999N9+02451+02321101141ADDAA106000891AA299001091AG10999AY161061AY201061GF106991011031008001071041KA1240M+03231MA1999999100121MD1999999+0001MW1021REMSYN023333   10323 58000 69981
0132825780999991989021212004-05083-042817FM-12+009099999V0200901N00101012001CN0040001N9+02541+02291101381ADDAA124000891AA299001091AG10999GF107991071081008001001001KA1240N+02221MA1999999100361MD1999999+0081REMSYN023333   20222 58008 69984
0115825780999991989021312004-05083-042817FM-12+009099999V0200501N00211007501CN0040001N9+02571+02351100281ADDAA106000091AG10999GF108991081051008001999999KA1240N+02301MA1999999100261MD1999999-0101REMSYN017333   20230 59010
0096825780999991989021318004-05083-042817FM-12+009099999V0200501N00211220001CN0040001N9+03161+02051100821ADDAA106000091AG10999GF103991021021008001001041MA1999999099821MD1999999-0161REMSYN011333   59016
0115825780999991989021400004-05083-042817FM-12+009099999V0203601N00051105001CN9999999N9+02601+02481100971ADDAA106000091AG10999GF107991001001999999001071KA1240M+03241MA1999999099951MD1999999-0091REMSYN017333   10324 59009
0132825780999991989021412004-05083-042817FM-12+009099999V0200501N00101220001CN0040001N9+02711+02281101081ADDAA124000891AA299001091AG10999GF103991011021008001031001KA1240N+02361MA1999999100061MD1999999-0201REMSYN023333   20236 59020 69984
0096825780999991989021418004-05083-042817FM-12+009099999V0201401N00261045001CN0040001N9+03121+02251100621ADDAA106000091AG10999GF107991031021008001011001MA1999999099621MD1999999-0201REMSYN011333   59020
0115825780999991989021500004-05083-042817FM-12+009099999V0209991C00001045001CN9999999N9+02351+02111100871ADDAA106000091AG10999GF108991011031008001011071KA1240M+03201MA1999999099851MD1999999-0101REMSYN017333   10320 59010
0115825780999991989021512004-05083-042817FM-12+009099999V0203601N00101007501CN0040001N9+02551+02291101131ADDAA106000091AG10999GF105991051051008001001001KA1240N+02191MA1999999100121MD1999999+0061REMSYN017333   20219 58006
0121825780999991989021600004-05083-042817FM-12+009099999V0203501N00051007501CN9999999N9+02231+02171101071ADDAA106017091AG10999GF108991081051008001999999KA1240M+03271MA1999999100041MD1999999+0191REMSYN023333   10327 58019 60171
0143825780999991989021612004-05083-042817FM-12+009099999V0200501N00151007501CN0200001N9+02421+02251101281ADDAA124030091AG10999AY161061AY201061GF108991081051008001999999KA1240N+02121MA1999999100251MD1999999+0131MW1021REMSYN023333   20212 58013 60304
0096825780999991989021618004-05083-042817FM-12+009099999V0203601N00151012001CN0040001N9+03101+02221100931ADDAA106000091AG10999GF105991051081008001001001MA1999999099921MD1999999+0321REMSYN011333   58032
0115825780999991989021700004-05083-042817FM-12+009099999V0203601N00261012001CN9999999N9+02521+02291101191ADDAA106000091AG10999GF107991071081008001001001KA1240M+03241MA1999999100161MD1999999+0121REMSYN017333   10324 58012
0115825780999991989021712004-05083-042817FM-12+009099999V0201401N00151045001CN0040001N9+02561+02311101241ADDAA106000091AG10999GF106991031021008001071001KA1240N+02151MA1999999100211MD1999999-0041REMSYN017333   20215 59004
0096825780999991989021718004-05083-042817FM-12+009099999V0201401N00211105001CN0040001N9+03151+02241100871ADDAA106000091AG10999GF106991041031008001001081MA1999999099861MD1999999-0061REMSYN011333   59006
0115825780999991989021900004-05083-042817FM-12+009099999V0209991C00001007501CN9999999N9+02541+02361100991ADDAA106000091AG10999GF105991051021008001001001KA1240M+03351MA1999999099971MD1999999+0031REMSYN017333   10335 58003
0115825780999991989021912004-05083-042817FM-12+009099999V0200901N00151007501CN0040001N9+02621+02351101391ADDAA106000091AG10999GF107991071051008001001001KA1240N+02201MA1999999100361MD1999999+0021REMSYN017333   20220 58002
0096825780999991989021918004-05083-042817FM-12+009099999V0202701N00051220001CN0040001N9+03081+02291101031ADDAA106000091AG10999GF103991031081008001001001MA1999999100021MD1999999+0121REMSYN011333   58012
0115825780999991989022000004-05083-042817FM-12+009099999V0200901N00051105001CN9999999N9+02611+01501101031ADDAA106000091AG10999GF106991021021008001001071KA1240M+03261MA1999999100011MD1999999+0021REMSYN017333   10326 58002
0115825780999991989022012004-05083-042817FM-12+009099999V0200501N00151220001CN0040001N9+02751+02341101421ADDAA106000091AG10999GF106991031021008001001041KA1240N+02311MA1999999100401MD1999999+0041REMSYN017333   20231 58004
0115825780999991989022100004-05083-042817FM-12+009099999V0203601N00211220001CN9999999N9+02631+02211101231ADDAA106000091AG10999GF102991011001017501031041KA1240M+03381MA1999999100211MD1999999+0201REMSYN017333   10338 58020
0115825780999991989022112004-05083-042817FM-12+009099999V0200901N00151220001CN0040001N9+02661+02331101421ADDAA106000091AG10999GF107991041021008001001041KA1240N+02281MA1999999100401MD1999999+0001REMSYN017333   20228 58000
0154825780999991989022212004-05083-042817FM-12+009099999V0200901N00051007501CN0200001N9+02561+02171101351ADDAA124016091AG10999AY161061GF106991051021008001031001KA1240N+02171MA1999999100321MD1999999-0041MW1031REMSYN023333   20217 59004 60164EQDQ01+000072PSTWM2
0096825780999991989022218004-05083-042817FM-12+009099999V0201401N00101220001CN0040001N9+03191+02251100861ADDAA106000091AG10999GF104991041021008001001001MA1999999099861MD1999999-0081REMSYN011333   59008
0162825780999991989022300004-05083-042817FM-12+009099999V0203201N00261045001CN9999999N9+02171+02081102272ADDAA106030091AG10999AY161061AY261061GF108991031051008001021999KA1240M+03301MA1999999100141MD1999999-0211MW1211REMSYN023333   10330 59021 60301EQDQ01+102273APOSLP
0121825780999991989022312004-05083-042817FM-12+009099999V0200901N00151007501CN0040001N9+02611+02391101421ADDAA124030091AG10999GF107991061051008001001041KA1240N+02121MA1999999100391MD1999999+0071REMSYN023333   20212 58007 60304
0096825780999991989022318004-05083-042817FM-12+009099999V0203201N00151105001CN0040001N9+03131+02361100951ADDAA106000091AG10999GF107991031021008001001071MA1999999099951MD1999999+0091REMSYN011333   58009
0115825780999991989022400004-05083-042817FM-12+009099999V0203601N00051012001CN9999999N9+02681+02501101011ADDAA106000091AG10999GF105991051081008001001001KA1240M+03201MA1999999100011MD1999999-0131REMSYN017333   10320 59013
0143825780999991989022412004-05083-042817FM-12+009099999V0201401N00101007501CN0040001N9+02471+02271101331ADDAA124002091AG10999AY161061AY201061GF108991081051008001999999KA1240N+02141MA1999999100301MD1999999-0091MW1021REMSYN023333   20214 59009 60024
0121825780999991989022512004-05083-042817FM-12+009099999V0200501N00151012001CN0040001N9+02591+02371101251ADDAA124012091AG10999GF107991071081008001001001KA1240N+02131MA1999999100221MD1999999-0081REMSYN023333   20213 59008 60124
0124825780999991989022518004-05083-042817FM-12+009099999V0201401N00261007501CN0040001N9+03221+02291100811ADDAA106999929AG10999AY151061AY201061GF106991051021008001001021MA1999999099811MD1999999-0111MW1031REMSYN017333   59011 69901
0143825780999991989022600004-05083-042817FM-12+009099999V0200901N00151045001CN9999999N9+02291+02151101271ADDAA106011091AG10999AY161061AY261061GF108991031051008001021999KA1240M+03241MA1999999100241MD1999999+0071MW1611REMSYN023333   10324 58007 60111
0162825780999991989022612004-05083-042817FM-12+009099999V0201401N000519999999N0040001N9+02451+02301101301ADDAA124012091AG10999AY161061AY201061GF107991999051008001001001KA1240N+02161MA1999999100271MD1999999+0051MW1021REMSYN023333   20216 58005 60124EQDQ01+000022SCOTLC
0143825780999991989022712004-05083-042817FM-12+009099999V0201401N00151007501CN0040001N9+02341+02241101511ADDAA124026091AG10999AY161061AY201061GF108991081051008001999999KA1240N+02111MA1999999100471MD1999999+0201MW1021REMSYN023333   20211 58020 60264
0115825780999991989022800004-05083-042817FM-12+009099999V0203201N00051220001CN9999999N9+02451+02411101231ADDAA106000091AG10999GF101991011031008001001001KA1240M+02941MA1999999100211MD1999999+0181REMSYN017333   10294 58018
0121825780999991989022812004-05083-042817FM-12+009099999V0201801N00211012001CN0040001N9+02681+02391101471ADDAA124000191AG10999GF106991051081008001001071KA1240N+02211MA1999999100441MD1999999-0031REMSYN023333   20221 59003 69914
0124825780999991989030118004-05083-042817FM-12+009099999V0203601N00361045001CN0040001N9+02891+02411100911ADDAA106002091AG10999AY161061AY261061GF107991031081008001011001MA1999999099901MD1999999+0081MW1211REMSYN017333   58008 60021
0143825780999991989030200004-05083-042817FM-12+009099999V0200901N00051007501CN9999999N9+02251+02191101421ADDAA106004091AG10999AY161061AY251061GF108991081051008001999999KA1240M+02941MA1999999100281MD1999999+0151MW1201REMSYN023333   10294 58015 60041
0143825780999991989030212004-05083-042817FM-12+009099999V0200901N00151007501CN0040001N9+02491+02271101321ADDAA124006091AG10999AY151061AY201061GF106991061021008001001001KA1240N+02141MA1999999100291MD1999999-0081MW1031REMSYN023333   20214 59008 60064
0096825780999991989030218004-05083-042817FM-12+009099999V0200501N00151220001CN0040001N9+03111+02261100881ADDAA106000091AG10999GF102991021021008001001001MA1999999099881MD1999999-0021REMSYN011333   59002
0096825780999991989030418004-05083-042817FM-12+009099999V0200501N00101220001CN0040001N9+03201+02211100831ADDAA106000091AG10999GF106991041021008001001041MA1999999099831MD1999999-0071REMSYN011333   59007
0096825780999991989030518004-05083-042817FM-12+009099999V0200901N00151220001CN0040001N9+03241+02211100641ADDAA106000091AG10999GF104991041021008001001001MA1999999100691MD1999999-0191REMSYN011333   59019
0143825780999991989030612004-05083-042817FM-12+009099999V0201401N00151007501CN0040001N9+02331+02271101141ADDAA124019091AG10999AY161061AY201061GF108991081051008001999999KA1240N+02121MA1999999100101MD1999999+0001MW1021REMSYN023333   20212 58000 60194
0096825780999991989030618004-05083-042817FM-12+009099999V0201801N001019999999N0040001N9+02751+02401100681ADDAA106000091AG10999GF108991081001008001011999MA1999999099671MD1999999+0031REMSYN011333   58003
0115825780999991989030700004-05083-042817FM-12+009099999V0201801N00051012001CN9999999N9+02481+02411100891ADDAA106000091AG10999GF106991061081008001001001KA1240M+02961MA1999999099871MD1999999+0061REMSYN017333   10296 58006
0121825780999991989030712004-05083-042817FM-12+009099999V0201401N00101045001CN0040001N9+02491+02321101091ADDAA124000591AG10999GF107991041081008001031001KA1240N+02241MA1999999100061MD1999999-0051REMSYN023333   20224 59005 69954
0096825780999991989030818004-05083-042817FM-12+009099999V0202301N00211045001CN0040001N9+03011+02391100881ADDAA106000091AG10999GF107991031021008001011021MA1999999099881MD1999999+0201REMSYN011333   58020
0115825780999991989030900004-05083-042817FM-12+009099999V0203201N00151007501CN9999999N9+02391+02261101121ADDAA106000091AG10999GF108991051051008001999999KA1240M+03091MA1999999100091MD1999999+0141REMSYN017333   10309 58014
0115825780999991989030912004-05083-042817FM-12+009099999V0201401N00101045001CN0040001N9+02521+02331101261ADDAA106000091AG10999GF106991021051008001031001KA1240N+02221MA1999999100221MD1999999+0011REMSYN017333   20222 58001
0096825780999991989030918004-05083-042817FM-12+009099999V0201401N00151045001CN0040001N9+02901+02491100781ADDAA106000091AG10999GF106991031031008001011001MA1999999099781MD1999999-0101REMSYN011333   59010
0143825780999991989031212004-05083-042817FM-12+009099999V0200901N00051007501CN0040001N9+02501+02181101311ADDAA124005091AG10999AY151061AY201061GF107991051051008001011001KA1240N+02341MA1999999098961MD1999999+0021MW1021REMSYN023333   20234 58002 60054
0143825780999991989031300004-05083-042817FM-12+009099999V0201401N00151220001CN9999999N9+02281+02281101131ADDAA106009091AG10999AY161061AY201061GF102991011021008001031001KA1240M+03141MA1999999100101MD1999999-0031MW1031REMSYN023333   10314 59003 60091
0121825780999991989031312004-05083-042817FM-12+009099999V0200501N00261007501CN0040001N9+02641+02411101061ADDAA124009091AG10999GF106991061021008001001001KA1240N+02171MA1999999100231MD1999999-0071REMSYN023333   20217 59007 60094
0096825780999991989031318004-05083-042817FM-12+009099999V0203601N00151220001CN0040001N9+03151+02351100911ADDAA106000091AG10999GF104991041011008001001001MA1999999099911MD1999999-0091REMSYN011333   59009
0104825780999991989031600004-05083-042817FM-12+009099999V0203201N00051007501CN9999999N9+02361+02171101171ADDAG10999GF106991061021008001001001KA1240M+03141MA1999999100001MD1999999+0171REMSYN017333   10314 58017
0121825780999991989031612004-05083-042817FM-12+009099999V0203201N00151012001CN0040001N9+02551+02361101241ADDAA124081091AG10999GF106991061081008001001001KA1240N+02201MA1999999100211MD1999999-0021REMSYN023333   20220 59002 60814
0115825780999991989031700004-05083-042817FM-12+009099999V0209991C00001007501CN9999999N9+02411+02331101171ADDAA106000091AG10999GF107991071051008001001001KA1240M+03091MA1999999100141MD1999999+0141REMSYN017333   10309 58014
0115825780999991989031712004-05083-042817FM-12+009099999V0201401N00211045001CN0040001N9+02631+02251101341ADDAA106000091AG10999GF106991031021008001031001KA1240N+02201MA1999999100311MD1999999+0101REMSYN017333   20220 58010
0115825780999991989032000004-05083-042817FM-12+009099999V0200501N00051220001CN9999999N9+99999+99999101111ADDAA106000091AG10999GF104991011021008001031041KA1240M+02731MA1999999100081MD1999999-0211REMSYN017333   10273 59021
0121825780999991989032012004-05083-042817FM-12+009099999V0200501N00051007501CN0040001N9+02481+02361101271ADDAA124000191AG10999GF108991081051008001999999KA1240N+02201MA1999999100241MD1999999-0131REMSYN023333   20220 59013 69914
0129825780999991989032112004-05083-042817FM-12+009099999V0201401N00151045001CN0040001N9+02571+02401101241ADDAA124006091AG10999AY161061AY201061GF106991031021008001031001KA1240N+02161MA1999999100201MW1021REMSYN023333   20216 5900/ 60064
0096825780999991989032118004-05083-042817FM-12+009099999V0201801N00101220001CN0040001N9+03081+02191100681ADDAA106000091AG10999GF103991999999008001999999MA1999999099681MD1999999-0081REMSYN011333   59008
0143825780999991989032200004-05083-042817FM-12+009099999V0202701N00151015001CN9999999N9+02231+02101101091ADDAA106000391AG10999AY101061AY251061GF108991081001017501021999KA1240M+03211MA1999999100061MD1999999-0121MW1021REMSYN023333   10321 59012 69931
0143825780999991989032212004-05083-042817FM-12+009099999V0201801N00051007501CN0040001N9+02291+02261101361ADDAA124007091AG10999AY161061AY251061GF108991081051008001999999KA1240N+02161MA1999999100321MD1999999+0121MW1021REMSYN023333   20216 58012 60074
0096825780999991989032318004-05083-042817FM-12+009099999V0200901N00051220001CN0040001N9+03041+02201100891ADDAA106000091AG10999GF106991021021008001001061MA1999999100891MD1999999-0131REMSYN011333   59013
0115825780999991989032500004-05083-042817FM-12+009099999V0202701N00051045001CN9999999N9+02301+02271101351ADDAA106000091AG10999GF108991041051008001021999KA1240M+02501MA1999999100311MD1999999+0271REMSYN017333   10250 58027
0140825780999991989032512004-05083-042817FM-12+009099999V0201401N04112012001CN0040001N9+02411+02191101361ADDAA124008091AG10999GF106991061081008001001001KA1240N+02141MA1999999100321MD1999999-0051REMSYN023333   20214 59005 60084EQDQ01+004113WOSPD 
0096825780999991989032518004-05083-042817FM-12+009099999V0201801N00211045001CN0040001N9+02871+02311100991ADDAA106000091AG10999GF106991041021008001011011MA1999999099981MD1999999-0071REMSYN011333   59007
0096825780999991989032618004-05083-042817FM-12+009099999V0200901N00211220001CN0040001N9+03111+02311100851ADDAA106000091AG10999GF104991031021008001031001MA1999999099851MD1999999-0131REMSYN011333   59013
0115825780999991989032700004-05083-042817FM-12+009099999V0200501N00101220001CN9999999N9+02411+02271101151ADDAA106000091AG10999GF100991001001999999001001KA1240M+03181MA1999999100121MD1999999-0061REMSYN017333   10318 59006
0154825780999991989032712004-05083-042817FM-12+009099999V0203601N00101045001CN0040001N9+02711+02331101411ADDAA124000291AA299000391AG10999AY151061AY201061GF106991041021008001031041KA1240N+02261MA1999999100961MD1999999+0051MW1041REMSYN023333   20226 58005 69924
0143825780999991989032800004-05083-042817FM-12+009099999V0202701N00051007501CN9999999N9+02291+02251101281ADDAA106027091AG10999AY161061AY261061GF108991081071008001999999KA1240M+03221MA1999999100541MD1999999+0121MW1211REMSYN023333   10322 58012 60271
0124825780999991989032818004-05083-042817FM-12+009099999V0201401N00151220001CN0200001N9+02561+02281101021ADDAA106003091AG10999AY161061AY201061GF104991021021008001031021MA1999999100011MD1999999+0161MW1321REMSYN017333   58016 60031
0115825780999991989033000004-05083-042817FM-12+009099999V0209999999999045001CN9999999N9+02501+02451101141ADDAA106000091AG10999GF107991041081008001061001KA1240M+03141MA1999999100111MD1999999-0191REMSYN017333   10314 59019
0124825780999991989033012004-05083-042817FM-12+009099999V0201401N00051045001CN0040001N9+02331+02221101361ADDAA124012091AG10999AY161061AY201061GF108991021051008001021011MA1999999100321MD1999999-0041MW1021REMSYN017333   59004 60124
0096825780999991989033118004-05083-042817FM-12+009099999V0201401N00151045001CN0200001N9+02981+02351100901ADDAA106000091AG10999GF106991031021008001031081MA1999999099901MD1999999+0061REMSYN011333   58006
0115825780999991989040100004-05083-042817FM-12+009099999V0203601N00051220001CN9999999N9+02521+02401101151ADDAA106000091AG10999GF102991011021008001031001KA1240M+03061MA1999999100121MD1999999+0041REMSYN017333   10306 58004
0115825780999991989040112004-05083-042817FM-12+009099999V0203201N00261220001CN0040001N9+02661+02331101421ADDAA106000091AG10999GF102991011021008001031001KA1240N+02221MA1999999100391MD1999999+0021REMSYN017333   20222 58002
0096825780999991989040118004-05083-042817FM-12+009099999V0202701N00211045001CN0040001N9+03101+02231101011ADDAA106000091AG10999GF107991031081008001071001MA1999999100011MD1999999+0111REMSYN011333   58011
0115825780999991989040212004-05083-042817FM-12+009099999V0203201N00101012001CN0200001N9+02521+02231101401ADDAA106000091AG10999GF107991061081008001031001KA1240N+02271MA1999999100371MD1999999-0021REMSYN017333   20227 59002
0115825780999991989040300004-05083-042817FM-12+009099999V0201401N00101012001CN9999999N9+02641+02441101241ADDAA106000091AG10999GF108991081081008001999999KA1240M+03091MA1999999100211MD1999999-0131REMSYN017333   10309 59013
0154825780999991989040312004-05083-042817FM-12+009099999V0200901N00151045001CN0040001N9+02681+02351101411ADDAA124000691AA299000591AG10999AY161061AY201061GF106991041081008001031001KA1240N+02301MA1999999100381MD1999999+0011MW1011REMSYN023333   20230 58001 69964
0096825780999991989040318004-05083-042817FM-12+009099999V0201601N00211007501CN0040001N9+03151+02331100791ADDAA106000091AG10999GF106991061031008001001001MA1999999099791MD1999999-0091REMSYN011333   59009
0143825780999991989040400004-05083-042817FM-12+009099999V0203601N00101220001CN9999999N9+02421+02351101111ADDAA106002091AG10999AY161061AY201061GF100991001001999999001001KA1240M+03161MA1999999100061MD1999999-0151MW1001REMSYN023333   10316 59015 60021
0143825780999991989040412004-05083-042817FM-12+009099999V0203601N00101007501CN0040001N9+02611+02391101261ADDAA124002091AG10999AY151061AY201061GF107991071051008001001001KA1240N+02311MA1999999100231MD1999999-0151MW1021REMSYN023333   20231 59015 60024
0096825780999991989040418004-05083-042817FM-12+009099999V0203601N00101220001CN0040001N9+03191+02281100681ADDAA106000091AG10999GF106991041021008001001041MA1999999099681MD1999999-0111REMSYN011333   59011
0143825780999991989040500004-05083-042817FM-12+009099999V0202701N00051007501CN9999999N9+02351+02321101281ADDAA106049091AG10999AY161061AY251061GF108991051051008001021999KA1240M+03251MA1999999100241MD1999999+0181MW1211REMSYN023333   10325 58018 60491
0143825780999991989040512004-05083-042817FM-12+009099999V0201401N00101045001CN0040001N9+02551+02401101461ADDAA124056091AG10999AY161061AY201061GF106991041081008001031001KA1240N+02121MA1999999100421MD1999999+0181MW1031REMSYN023333   20212 58018 60564
0143825780999991989040600004-05083-042817FM-12+009099999V0200501N00311015001CN9999999N9+02381+02251101071ADDAA106002091AG10999AY161061AY261061GF108991081001017501021999KA1240M+03121MA1999999100341MD1999999+0101MW1011REMSYN023333   10312 58010 60021
0143825780999991989040612004-05083-042817FM-12+009099999V0201401N00151007501CN0040001N9+02481+02201101401ADDAA124011091AG10999AY161061AY201061GF108991081031008001999999KA1240N+02241MA1999999100361MD1999999-0051MW1021REMSYN023333   20224 59005 60114
0096825780999991989040618004-05083-042817FM-12+009099999V0201401N00101220001CN0040001N9+02981+02371100861ADDAA106000091AG10999GF102991011031008001001021MA1999999099861MD1999999+0001REMSYN011333   58000
0143825780999991989040900004-05083-042817FM-12+009099999V0200901N00151012001CN9999999N9+02451+02341101171ADDAA106000191AG10999AY101061AY251061GF108991081081008001999999KA1240M+03041MA1999999100131MD1999999-0051MW1521REMSYN023333   10304 59005 69911
0143825780999991989040912004-05083-042817FM-12+009099999V0200501N00261045001CN0040001N9+02571+02311101231ADDAA124003091AG10999AY161061AY201061GF107991041051008001031001KA1240N+02321MA1999999100191MD1999999-0151MW1031REMSYN023333   20232 59015 60034
0143825780999991989041100004-05083-042817FM-12+009099999V0203201N00101012001CN9999999N9+02371+02111101131ADDAA106002091AG10999AY121061AY211061GF108991081081008001999999KA1240M+03211MA1999999100101MD1999999-0031MW1211REMSYN023333   10321 59003 60021
0143825780999991989041112004-05083-042817FM-12+009099999V0201801N00151007501CN0040001N9+02541+02361101331ADDAA124006091AG10999AY161061AY201061GF108991081051008001999999KA1240N+02301MA1999999100291MD1999999+0031MW1021REMSYN023333   20230 58003 60064
0115825780999991989041200004-05083-042817FM-12+009099999V0203201N00101045001CN9999999N9+02441+02321101171ADDAA106000091AG10999GF108991041081008001011001KA1240M+03141MA1999999100141MD1999999+0041REMSYN017333   10314 58004
0143825780999991989041212004-05083-042817FM-12+009099999V0201401N00151007501CN0040001N9+02491+02341101311ADDAA124015091AG10999AY161061AY201061GF108991081051008001999999KA1240N+02291MA1999999100281MD1999999-0011MW1021REMSYN023333   20229 59001 60154
0115825780999991989041300004-05083-042817FM-12+009099999V0203601N00151015001CN9999999N9+02511+02341101141ADDAA106000091AG10999GF105991051001017501031001KA1240M+03061MA1999999100111MD1999999-0031REMSYN017333   10306 59003
0115825780999991989041312004-05083-042817FM-12+009099999V0201401N00101045001CN0040001N9+02701+02301101211ADDAA106000091AG10999GF107991031081008001031001KA1240N+02271MA1999999100181MD1999999-0101REMSYN017333   20227 59010
0132825780999991989041412004-05083-042817FM-12+009099999V0203601N00051007501CN0040001N9+02471+02371101251ADDAA124000891AA299001091AG10999GF108991081051008001999999KA1240N+02321MA1999999100211MD1999999+0031REMSYN023333   20232 58003 69984
0121825780999991989041512004-05083-042817FM-12+009099999V0200901N00051045001CN0040001N9+02561+02361101341ADDAA124004091AG10999GF107991031051008001031001KA1240N+02281MA1999999100311MD1999999+0101REMSYN023333   20228 58010 60044
0143825780999991989041518004-05083-042817FM-12+009099999V0200401N00151045001CN0040001N9+02691+02481100881ADDAA106009091AG10999AY161061AY201061GF107991041031008001011001MA1999999098872MD1999999+0041MW1031REMSYN017333   58004 60091EQDQ01+098873APOSP 
0143825780999991989041700004-05083-042817FM-12+009099999V0209999999999045001CN9999999N9+02361+02361101211ADDAA106000391AG10999AY151061AY201061GF107991041081008001031001KA1240M+03061MA1999999100181MD1999999-0031MW1021REMSYN023333   10306 59003 69931
0115825780999991989041800004-05083-042817FM-12+009099999V0203601N00051105001CN9999999N9+02481+02411101081ADDAA106000091AG10999GF107991001001999999001071KA1240M+02851MA1999999100051MD1999999-0131REMSYN017333   10285 59013
0121825780999991989041812004-05083-042817FM-12+009099999V0202701N00211007501CN0040001N9+02571+02321101231ADDAA124020091AG10999GF108991081051008001999999KA1240N+02221MA1999999100501MD1999999-0151REMSYN023333   20222 59015 60204
0115825780999991989042100004-05083-042817FM-12+009099999V0200501N00051105001CN9999999N9+02601+02481101041ADDAA106000091AG10999GF106991041001017501031071KA1240M+03241MA1999999100011MD1999999-0091REMSYN017333   10324 59009
0115825780999991989042112004-05083-042817FM-12+009099999V0200501N00051007501CN0040001N9+02751+02431101241ADDAA106000091AG10999GF106991061021008001001001KA1240N+02381MA1999999100211MD1999999+0001REMSYN017333   20238 58000
0124825780999991989042118004-05083-042817FM-12+009099999V0200901N00101220001CN0040001N9+03121+02431100751ADDAA106005091AG10999AY161061AY201061GF102991021021008001001001MA1999999099751MD1999999-0021MW1011REMSYN017333   59002 60051
0107825780999991989042218004-05083-042817FM-12+009099999V0203601N001019999999N0040001N9+02481+02431100981ADDAG10999AY161061AY201061GF108991021031008001999999MA1999999099461MD1999999+0211MW1021REMSYN011333   58021
0121825780999991989042312004-05083-042817FM-12+009099999V0203201N00051007501CN0040001N9+02571+02441101331ADDAA124029091AG10999GF108991081051008001999999KA1240N+02361MA1999999100291MD1999999-0031REMSYN023333   20236 59003 60294
0109825780999991989042418004-05083-042817FM-12+009099999V0203201N001019999999N0040001N9+02871+02441100821ADDAG10999AY151061AY201061GA1031+006009089GF106991999999008001999999MA1999999098821MW1031REMSYN011333   83820
0096825780999991989042518004-05083-042817FM-12+009099999V0201401N00211007501CN0040001N9+02901+02461100831ADDAA106000091AG10999GF106991061031008001001001MA1999999099821MD1999999+0001REMSYN011333   58000
0115825780999991989042600004-05083-042817FM-12+009099999V0200501N00051220001CN9999999N9+02491+02411101111ADDAA106000091AG10999GF102991021021008001001001KA1240M+02971MA1999999100081MD1999999-0131REMSYN017333   10297 59013
0162825780999991989042612004-05083-042817FM-12+009099999V0200901N001019999999N0040001N9+02621+02391101271ADDAA124003091AG10999AY161061AY201061GF108991999031008001001001KA1240N+02311MA1999999100241MD1999999-0041MW1021REMSYN023333   20231 59004 60034EQDQ01+000032SCOTLC
0096825780999991989042618004-05083-042817FM-12+009099999V0201401N00151220001CN0040001N9+03151+02481100731ADDAA106000091AG10999GF103991031021008001001001MA1999999099731MD1999999-0091REMSYN011333   59009
0143825780999991989042700004-05083-042817FM-12+009099999V0200901N00151045001CN9999999N9+02381+02251101191ADDAA106003091AG10999AY101061AY261061GF108991041081008001021999KA1240M+03171MA1999999100161MD1999999+0081MW1611REMSYN023333   10317 58008 60031
0143825780999991989042712004-05083-042817FM-12+009099999V0203201N00151007501CN0040001N9+02521+02401101281ADDAA124010091AG19005AY161061AY201061GF108991081051008001999999KA1240N+02321MA1999999100241MD1999999+0001MW1021REMSYN023333   20232 58000 60104
0115825780999991989042800004-05083-042817FM-12+009099999V0201401N00101012001CN9999999N9+02411+02311101231ADDAA106000091AG10999GF108991081081008001999999KA1240M+03081MA1999999100341MD1999999+0041REMSYN017333   10308 58004
0096825780999991989042918004-05083-042817FM-12+009099999V0203601N00101045001CN0040001N9+02821+02601100951ADDAA106000091AG10999GF108991031051008001021001MA1999999099941MD1999999+0041REMSYN011333   58004
0162825780999991989043012004-05083-042817FM-12+009099999V0202701N04782045001CN0040001N9+02451+02341101441ADDAA124015091AG10999AY161061AY251061GF108991031051008001011999KA1240N+02301MA1999999100411MD1999999+0081MW1211REMSYN023333   20230 58008 60154EQDQ01+004783WOSPD 
0115825780999991989043018004-05083-042817FM-12+009099999V0203201N002119999999N0040001N9+03121+02481101001ADDAA106000091AG10999GF106991999031008001001001MA1999999100001MD1999999-0301REMSYN011333   59030EQDQ01+000042SCOTLC
0121825780999991989050112004-05083-042817FM-12+009099999V0200501N00101007501CN0040001N9+02651+02421101341ADDAA124013091AG10999GF108991081051008001999999KA1240N+02301MA1999999100311MD1999999-0101REMSYN023333   20230 59010 60134
0124825780999991989050118004-05083-042817FM-12+009099999V0202301N00151105001CN0040001N9+03071+02351100851ADDAA112000291AG10999AY151061AY201061GF106991021021008001001021MA1999999099851MD1999999-0131MW1011REMSYN017333   59013 69922
0143825780999991989050212004-05083-042817FM-12+009099999V0201801N00151012001CN0200001N9+02741+02561101181ADDAA124015091AG10999AY161061AY221061GF106991061081008001001001KA1240N+02341MA1999999100871MD1999999+0011MW1211REMSYN023333   20234 58001 60154
0131825780999991989050218004-05083-042817FM-12+009099999V0201401N001019999999N0040001N9+99999+99999100761ADDAA106000091AG10999GF106991999021008001001001MA1999999099762MD1999999-0091REMSYN011333   59009EQDQ01+000042SCOTLCQ02+099763APOSP 
0143825780999991989050512004-05083-042817FM-12+009099999V0200501N00151007501CN0040001N9+02461+02301101461ADDAA124029091AG10999AY161061AY201061GF108991081051008001999999KA1240N+01191MA1999999100431MD1999999+0221MW1021REMSYN023333   20119 58022 60294
0115825780999991989050700004-05083-042817FM-12+009099999V0200501N00101220001CN9999999N9+02501+02431101281ADDAA106000091AG10999GF100991001001999999001001KA1240M+03111MA1999999100251MD1999999+0001REMSYN017333   10311 58000
0115825780999991989050712004-05083-042817FM-12+009099999V0203601N00311007501CN0040001N9+02671+02331101481ADDAA106000091AG10999GF106991061021008001001001KA1240N+02311MA1999999100451MD1999999+0031REMSYN017333   20231 58003
0143825780999991989050812004-05083-042817FM-12+009099999V0203601N00151007501CN0040001N9+02661+02441101391ADDAA124001091AG10999AY151061AY201061GF107991071021008001011001KA1240N+02301MA1999999100361MD1999999-0041MW1021REMSYN023333   20230 59004 60014
0143825780999991989050900004-05083-042817FM-12+009099999V0201401N00151012001CN9999999N9+02351+02241101411ADDAA106012091AG10999AY161061AY261061GF108991081081008001999999KA1240M+03191MA1999999100381MD1999999+0161MW1211REMSYN023333   10319 58016 60121
0154825780999991989050912004-05083-042817FM-12+009099999V0201401N001519999999N0040001N9+02521+02361101451ADDAA124026091AG10999AY161061GF108991021051008001999999KA1240N+02191MA1999999100421MD1999999+0021MW1021REMSYN023333   20219 58002 60264EQDQ01+000072PSTWM2
0143825780999991989051100004-05083-042817FM-12+009099999V0202301N00051045001CN9999999N9+02261+02241101451ADDAA106006091AG10999AY161061AY251061GF108991031051008001021999KA1240M+03151MA1999999100411MD1999999+0121MW1531REMSYN023333   10315 58012 60061
0143825780999991989051112004-05083-042817FM-12+009099999V0200901N00151007501CN0040001N9+02431+02321101641ADDAA124007091AG10999AY161061AY201061GF108991081051008001999999KA1240N+02221MA1999999100601MD1999999+0171MW1021REMSYN023333   20222 58017 60074
0143825780999991989051200004-05083-042817FM-12+009099999V0209999999999012001CN9999999N9+02381+02361101471ADDAA106002091AG10999AY161061AY201061GF108991081081008001999999KA1240M+03021MA1999999100441MD1999999+0031MW1031REMSYN023333   10302 58003 60021
0143825780999991989051212004-05083-042817FM-12+009099999V0201401N00211012001CN0040001N9+02601+02331101581ADDAA124014091AG10999AY161061AY201061GF107991071081008001001001KA1240N+02271MA1999999100551MD1999999-0051MW1021REMSYN023333   20227 59005 60144
0115825780999991989051500004-05083-042817FM-12+009099999V0200901N00051045001CN0040001N9+02541+02401100341ADDAA106000091AG10999GF106991041081008001031001KA1240M+03121MA1999999100311MD1999999-0031REMSYN017333   10312 59003
0115825780999991989051512004-05083-042817FM-12+009099999V0200901N001519999999N0040001N9+02631+02231101441ADDAA106000091AG10999GF107991071001008001051001KA1240N+02311MA1999999100411MD1999999-0071REMSYN017333   20231 59007
0096825780999991989051518004-05083-042817FM-12+009099999V0201401N001519999999N0040001N9+03021+02241101111ADDAA106000091AG10999GF106991999999008001999999MA1999999100101MD1999999+0041REMSYN011333   58004
0115825780999991989051700004-05083-042817FM-12+009099999V0200901N00151045001CN9999999N9+02391+02351101551ADDAA106000091AG10999GF106991041081008001031001KA1240M+03081MA1999999100521MD1999999+0031REMSYN017333   10308 58003
0115825780999991989051712004-05083-042817FM-12+009099999V0201401N00311105001CN0040001N9+02571+02131101411ADDAA106000091AG10999GF105991011021008001031011KA1240N+02131MA1999999100571MD1999999+0141REMSYN017333   20213 58014
0115825780999991989051800004-05083-042817FM-12+009099999V0209991C00001220001CN9999999N9+02431+02331101491ADDAA106000091AG10999GF102991021001017501031001KA1240M+03031MA1999999100461MD1999999-0061REMSYN017333   10303 59006
0115825780999991989051812004-05083-042817FM-12+009099999V0201401N00461220001CN0040001N9+02711+02261101591ADDAA106000091AG10999GF101991011011008001001001KA1240N+02271MA1999999100491MD1999999-0081REMSYN017333   20227 59008
0096825780999991989051818004-05083-042817FM-12+009099999V0201401N00261220001CN0040001N9+03151+02271101111ADDAA106000091AG10999GF102991021021008001001001MA1999999100111MD1999999+0121REMSYN011333   58012
0115825780999991989051900004-05083-042817FM-12+009099999V0200901N00051007501CN9999999N9+02571+02401101421ADDAA106000091AG10999GF106991061021008001001001KA1240M+03211MA1999999100391MD1999999-0071REMSYN017333   10321 59007
0096825780999991989051918004-05083-042817FM-12+009099999V0201401N00151220001CN0200001N9+03101+02201101081ADDAA106000091AG10999GF104991031021008001031001MA1999999100081MD1999999-0031REMSYN011333   59003
0143825780999991989052000004-05083-042817FM-12+009099999V0201401N00261012001CN0040001N9+02571+02491101431ADDAA106003091AG10999AY101061AY261061GF106991061081008001001001KA1240M+03151MA1999999100401MD1999999+0011MW1031REMSYN023333   10315 58001 60031
0121825780999991989052012004-05083-042817FM-12+009099999V0201401N00151220001CN0040001N9+02571+02271101561ADDAA124003091AG10999GF104991021021008001031041KA1240N+02231MA1999999100531MD1999999+0091REMSYN023333   20223 58009 60034
0143825780999991989052100004-05083-042817FM-12+009099999V0209999999999045001CN9999999N9+02421+02371101461ADDAA106010091AG10999AY161061AY201061GF105991031021008001031011KA1240M+03141MA1999999100431MD1999999+0031MW1031REMSYN023333   10314 58003 60101
0143825780999991989052112004-05083-042817FM-12+009099999V0201401N00411220001CN0040001N9+02691+02331101591ADDAA124011091AG10999AY161061AY201061GF104991031021008001031011KA1240N+02261MA1999999100561MD1999999+0031MW1021REMSYN023333   20226 58003 60114
0134825780999991989052312004-05083-042817FM-12+009099999V0201401N003119999999N0040001N9+02581+02171101411ADDAA106000091AG10999GF106991001001999999001041KA1240N+01961MA1999999100381MD1999999-0071REMSYN017333   20196 59007EQDQ01+000952SCOLCB
0096825780999991989052618004-05083-042817FM-12+009099999V0200501N00151105001CN0040001N9+03191+02071101061ADDAA106000091AG10999GF106991021021008001001021MA1999999100061MD1999999-0021REMSYN011333   59002
0115825780999991989052700004-05083-042817FM-12+009099999V0209991C00001220001CN9999999N9+02501+02431101341ADDAA106000091AG10999GF101991011001017501031001KA1240M+03241MA1999999100311MD1999999-0031REMSYN017333   10324 59003
0143825780999991989052712004-05083-042817FM-12+009099999V0203601N00101045001CN0040001N9+02611+02421101411ADDAA124002091AG10999AY161061AY201061GF107991011011008001031001KA1240N+02241MA1999999100381MD1999999+0021MW1031REMSYN023333   20224 58002 60024
0115825780999991989052800004-05083-042817FM-12+009099999V0203201N00051220001CN9999999N9+02561+02421101281ADDAA106000091AG10999GF102991021021008001001001KA1240M+03321MA1999999100251MD1999999-0061REMSYN017333   10332 59006
0143825780999991989052812004-05083-042817FM-12+009099999V0203601N00211045001CN0040001N9+02681+02391101501ADDAA124002091AG10999AY161061AY201061GF106991011021008001031001KA1240N+02281MA1999999100471MD1999999+0091MW1021REMSYN023333   20228 58009 60024
0121825780999991989052912004-05083-042817FM-12+009099999V0201401N00151012001CN0040001N9+02581+02351101481ADDAA124018091AG10999GF108991081081008001999999KA1240N+02261MA1999999100561MD1999999-0011REMSYN023333   20226 59001 60184
0115825780999991989053000004-05083-042817FM-12+009099999V0201401N00051220001CN9999999N9+02481+02431101261ADDAA106000091AG10999GF102991021021008001001001KA1240M+03141MA1999999100321MD1999999-0141REMSYN017333   10314 59014
0143825780999991989053012004-05083-042817FM-12+009099999V0201401N00151007501CN0040001N9+02511+02361101461ADDAA124002091AG10999AY161061AY201061GF106991061051008001001001KA1240N+02261MA1999999100431MD1999999-0031MW1011REMSYN023333   20226 59003 60024
0096825780999991989053018004-05083-042817FM-12+009099999V0200901N00151220001CN0040001N9+03121+02361100991ADDAA106000091AG10999GF106991041031008001001041MA1999999099991MD1999999-0071REMSYN011333   59007
0115825780999991989060100004-05083-042817FM-12+009099999V0209991C00001105001CN9999999N9+02581+02491101311ADDAA106000091AG10999GF106991001001999999001071KA1240M+03321MA1999999100281MD1999999-0041REMSYN017333   10332 59004
0115825780999991989060112004-05083-042817FM-12+009099999V0201401N00461012001CN0040001N9+02741+02321101521ADDAA106000091AG10999GF107991071081008001001999KA1240N+02371MA1999999100491MD1999999+0071REMSYN017333   20237 58007
0134825780999991989060212004-05083-042817FM-12+009099999V0201401N004119999999N0040001N9+02651+02271101441ADDAA106000091AG10999GF106991999001017501031001KA1240N+02241MA1999999100411MD1999999-0081REMSYN017333   20224 59008EQDQ01+000012SCOTLC
0115825780999991989060512004-05083-042817FM-12+009099999V0201401N00151220001CN0040001N9+02771+02301101401ADDAA106000091AG10999GF105991001001999999001041KA1240N+02141MA1999999100371MD1999999+0001REMSYN017333   20214 58000
0096825780999991989060518004-05083-042817FM-12+009099999V0200901N00211220001CN0040001N9+03161+02121101121ADDAA106000091AG10999GF106991031021008001001041MA1999999100121MD1999999+0131REMSYN011333   58013
0115825780999991989060612004-05083-042817FM-12+009099999V0200901N00211220001CN0040001N9+02721+02241101411ADDAA106000091AG10999GF101991011011008001001001KA1240N+02141MA1999999100381MD1999999+0011REMSYN017333   20214 58001
0096825780999991989060618004-05083-042817FM-12+009099999V0200901N00151220001CN0040001N9+03101+02121101041ADDAA106000091AG10999GF103991031021008001001001MA1999999100041MD1999999-0081REMSYN011333   59008
0115825780999991989060700004-05083-042817FM-12+009099999V0209999999999220001CN9999999N9+02451+02341101221ADDAA106000091AG10999GF100991001001999999001001KA1240M+03171MA1999999100191MD1999999-0071REMSYN017333   10317 59007
0115825780999991989060712004-05083-042817FM-12+009099999V0201401N00311220001CN0040001N9+02611+02141101371ADDAA106000091AG10999GF100991001001999999001001KA1240N+02081MA1999999100341MD1999999-0041REMSYN017333   20208 59004
0096825780999991989060718004-05083-042817FM-12+009099999V0200901N00151220001CN0040001N9+03071+02251101051ADDAA106000091AG10999GF104991031021008001001041MA1999999100051MD1999999+0011REMSYN011333   58001
0115825780999991989060800004-05083-042817FM-12+009099999V0209999999999220001CN9999999N9+02441+99999101261ADDAA106000091AG10999GF100991001001999999001001KA1240M+03201MA1999999100321MD1999999+0041REMSYN017333   10320 58004
0115825780999991989060812004-05083-042817FM-12+009099999V0201401N00511220001CN0040001N9+02681+02161101351ADDAA106000091AG10999GF106991001001999999001041KA1240N+02101MA1999999100321MD1999999-0021REMSYN017333   20210 59002
0134825780999991989060900004-05083-042817FM-12+009099999V0202701N00051220001CN9999999N9+02361+02261999999ADDAA106000091AG10999GF102991021021008001001001KA1240M+03241MA1999999100351MD1999999+0121REMSYN017333   10324 58012EQDQ01 106383APOSLP
0115825780999991989060912004-05083-042817FM-12+009099999V0200501N00151220001CN0040001N9+02791+02271101531ADDAA106000091AG10999GF106991011011008001001011KA1240N+02101MA1999999100501MD1999999+0181REMSYN017333   20210 58018
0096825780999991989060918004-05083-042817FM-12+009099999V0200901N00151220001CN0040001N9+03251+02161101121ADDAA106000091AG10999GF102991021021008001001001MA1999999100121MD1999999+0071REMSYN011333   58007
0115825780999991989061000004-05083-042817FM-12+009099999V0209991C00001220001CN9999999N9+02551+02121101221ADDAA106000091AG10999GF101991011021008001001001KA1240M+03281MA1999999100191MD1999999-0161REMSYN017333   10328 59016
0143825780999991989061012004-05083-042817FM-12+009099999V0200301N00101220001CN0040001N9+02731+02451101491ADDAA124007091AG10999AY161061AY201061GF102991021011008001001001KA1240N+02311MA1999999100461MD1999999-0041MW1031REMSYN023333   20231 59004 60074
0096825780999991989061018004-05083-042817FM-12+009099999V0201401N00211220001CN0040001N9+03211+02211101071ADDAA106000091AG10999GF102991011031008001001041MA1999999100041MD1999999-0051REMSYN011333   59005
0150825780999991989061100004-05083-042817FM-12+009099999V0203601N00051220001CN9999999N9+02381+02311101321ADDAA106000091AG10999GF102991011011008001001041KA1240M+03251MA1999999999999MD1999999+0101REMSYN017333   10325 58010EQDQ01+097203APOSP Q02 097203APOSP 
0101825780999991989061112004-05083-042817FM-12+009099999V0201401N00101220001CN0040001N9+02721+02241101521ADDAA106000091AG10999GF101991011011008001001001KA1240N+02121MA1999999100491REMSYN017333   20212 58803
0096825780999991989061118004-05083-042817FM-12+009099999V0200901N00261220001CN0040001N9+03201+02301101111ADDAA106000091AG10999GF102991021021008001001001MA1999999100331MD1999999+0041REMSYN011333   58004
0121825780999991989061212004-05083-042817FM-12+009099999V0201401N00211220001CN0040001N9+02651+02411101571ADDAA124003091AG10999GF102991021021008001001001KA1240N+02081MA1999999100541MD1999999+0051REMSYN023333   20208 58005 60034
0124825780999991989061218004-05083-042817FM-12+009099999V0202301N00151045001CN0040001N9+02861+02421101221ADDAA106006091AG10999AY161061AY201061GF105991041031008001031001MA1999999100221MD1999999+0101MW1031REMSYN017333   58010 60061
0143825780999991989061300004-05083-042817FM-12+009099999V0209999999999220001CN9999999N9+02431+02391101441ADDAA106007091AG10999AY161061AY201061GF101991011011008001001001KA1240M+03141MA1999999100451MD1999999+0041MW1021REMSYN023333   10314 58004 60071
0140825780999991989061312004-05083-042817FM-12+009099999V0200901N001019999999N0040001N9+02731+02031101501ADDAA124007091AG10999GF106991999011008001001001KA1240N+02261MA1999999100471MD1999999-0071REMSYN023333   20226 59007 60074EQDQ01+000012SCOTLC
0154825780999991989061400004-05083-042817FM-12+009099999V0203601N00101015001CN9999999N9+02441+02351101371ADDAA106000691AA299000591AG10999AY161061AY201061GF108991081001017501021999KA1240M+03301MA1999999100341MD1999999-0071MW1201REMSYN023333   10330 59007 69961
0143825780999991989061412004-05083-042817FM-12+009099999V0201401N00311220001CN0040001N9+02701+02261999999ADDAA124005091AG10999AY161061AY201061GF101991011001008001031001KA1240N+02201MA1999999100441MD1999999-0031MW1021REMSYN023333   20220 59003 60054
0096825780999991989061418004-05083-042817FM-12+009099999V0201401N00311220001CN0040001N9+03171+02201101121ADDAA106000091AG10999GF103991031021008001001001MA1999999100111MD1999999+0021REMSYN011333   58002
0143825780999991989061500004-05083-042817FM-12+009099999V0200501N00051012001CN9999999N9+02471+02321101371ADDAA199000691AG10999AY161061AY201061GF107991071081008001001001KA1240M+03241MA1999999100341MD1999999+0001MW1021REMSYN023333   10324 58000 69960
0104825780999991989061512004-05083-042817FM-12+009099999V0201401N00361220001CN0040001N9+02571+01991101551ADDAG10999GF101991011011008001001001KA1240N+02141MA1999999100521MD1999999+0081REMSYN017333   20214 58008
0115825780999991989061600004-05083-042817FM-12+009099999V0200901N00101012001CN9999999N9+02521+02341101421ADDAA106000091AG10999GF106991061081008001001001KA1240M+03021MA1999999100391MD1999999+0051REMSYN017333   10302 58005
0115825780999991989061612004-05083-042817FM-12+009099999V0201401N00311220001CN0040001N9+02621+02031101661ADDAA106000091AG10999GF103991011001008001031041KA1240N+02101MA1999999100631MD1999999+0101REMSYN017333   20210 58010
0143825780999991989061900004-05083-042817FM-12+009099999V0209991C00001220001CN9999999N9+02391+02351101291ADDAA106000591AG10999AY161061AY201061GF102991011031008001031001KA1240M+03231MA1999999100261MD1999999-0131MW1021REMSYN023333   10323 59013 69951
0121825780999991989061912004-05083-042817FM-12+009099999V0200901N00101220001CN0040001N9+02821+02361101421ADDAA124000591AG10999GF102991021021008001001001KA1240N+02321MA1999999100391MD1999999-0101REMSYN023333   20232 59010 69954
0115825780999991989062000004-05083-042817FM-12+009099999V0201401N00511220001CN9999999N9+02401+01981101521ADDAA106000091AG10999GF103991031021008001001001KA1240M+03011MA1999999097352MD1999999+0121REMSYN017333   10301 58012
0115825780999991989062700004-05083-042817FM-12+009099999V0209991C00001220001CN9999999N9+02501+02381101251ADDAA106000091AG10999GF100991001001999999001001KA1240M+03301MA1999999100221MD1999999+0061REMSYN017333   10330 58006
0115825780999991989062712004-05083-042817FM-12+009099999V0203601N00211012001CN0040001N9+02721+02321101451ADDAA106000091AG10999GF106991061081008001001001KA1240N+02201MA1999999100421MD1999999+0041REMSYN017333   20220 58004
0115825780999991989062800004-05083-042817FM-12+009099999V0200501N00261220001CN9999999N9+02571+02291101351ADDAA106000091AG10999GF103991031021008001001001KA1240M+03241MA1999999100321MD1999999+0101REMSYN017333   10324 58010
0143825780999991989062812004-05083-042817FM-12+009099999V0200901N00051220001CN0040001N9+02691+02311101471ADDAA124004091AG10999AY161061AY201061GF102991021001008001031001KA1240N+02251MA1999999100441MD1999999+0021MW1021REMSYN023333   20225 58002 60044
0100825780999991989062818004-05083-042817FM-12+009099999V0200501N00261220001CN0200001N9+02981+01951101211ADDAA106000091AG10999GF104991041021012501001001MD1999999+0061REMSYN011333   58006EQDQ01+096543APOSP 
0115825780999991989062900004-05083-042817FM-12+009099999V0203601N00101007501CN9999999N9+02571+02471101411ADDAA106000091AG10999GF105991051021008001001001KA1240M+03191MA1999999100381MD1999999+0061REMSYN017333   10319 58006
0115825780999991989062912004-05083-042817FM-12+009099999V0203601N00051012001CN0040001N9+02531+02331101671ADDAA106000091AG10999GF107991071081008001001001KA1240N+02161MA1999999100641MD1999999+0201REMSYN017333   20216 58020
0115825780999991989070300004-05083-042817FM-12+009099999V0202301N00051220001CN9999999N9+02381+02241101301ADDAA106000091AG10999GF100991001001999999001001KA1240M+03161MA1999999100271MD1999999-0041REMSYN017333   10316 59004
0115825780999991989070312004-05083-042817FM-12+009099999V0201401N00361220001CN0040001N9+02671+02041101521ADDAA106000091AG10999GF101991011011008001001001KA1240N+02201MA1999999100491MD1999999+0021REMSYN017333   20220 58002
0096825780999991989070318004-05083-042817FM-12+009099999V0201401N00151220001CN0009001N9+03191+01981101111ADDAA106000091AG10999GF103991031021008001001001MA1999999100111MD1999999-0031REMSYN011333   59003
0096825780999991989070418004-05083-042817FM-12+009099999V0200901N00101220001CN0040001N9+03191+02041101131ADDAA106000091AG10999GF103991031021008001001001MA1999999100131MD1999999+0021REMSYN011333   58002
0115825780999991989070500004-05083-042817FM-12+009099999V0209991C00001220001CN9999999N9+02521+02331101321ADDAA106000091AG10999GF100991001001999999001001KA1240M+03221MA1999999100291MD1999999+0061REMSYN017333   10322 58006
0115825780999991989070512004-05083-042817FM-12+009099999V0201401N00361220001CN0040001N9+02711+02131101611ADDAA106000091AG10999GF101991011011008001001001KA1240N+02141MA1999999100571MD1999999+0111REMSYN017333   20214 58011
0096825780999991989070518004-05083-042817FM-12+009099999V0201401N00211012001CN0040001N9+03141+02041101211ADDAA106000091AG10999GF106991061081008001001001MA1999999100201MD1999999+0071REMSYN011333   58007
0115825780999991989070600004-05083-042817FM-12+009099999V0200501N00211012001CN9999999N9+02571+02311101551ADDAA106000091AG10999GF107991071081008001001001KA1240M+03201MA1999999100521MD1999999+0231REMSYN017333   10320 58023
0143825780999991989070612004-05083-042817FM-12+009099999V0201001N00051007501CN0040001N9+02541+02371101751ADDAA124003091AG10999AY161061AY201061GF108991051051008001021999KA1240N+02221MA1999999100721MD1999999+0141MW1021REMSYN023333   20222 58014 60034
0124825780999991989070618004-05083-042817FM-12+009099999V0201801N00211045001CN0040001N9+02611+02291101411ADDAA106001091AG10999AY151061AY201061GF108991041051008001021999MA1999999100391MD1999999+0191MW1021REMSYN017333   58019 60011
0143825780999991989070700004-05083-042817FM-12+009099999V0209991C00001012001CN9999999N9+02281+02251101511ADDAA106008091AG10999AY161061AY201061GF106991061081008001001001KA1240M+02801MA1999999100481MD1999999-0041MW1011REMSYN023333   10280 59004 60081
0121825780999991989070712004-05083-042817FM-12+009099999V0201401N00051220001CN0040001N9+02431+02301101601ADDAA124009091AG10999GF104991021021008001031001KA1240N+02181MA1999999100571MD1999999-0151REMSYN023333   20218 59015 60094
0096825780999991989070718004-05083-042817FM-12+009099999V0200501N00151220001CN0040001N9+03231+02011101161ADDAA106000091AG10999GF103991031021008001001001MA1999999100161MD1999999-0231REMSYN011333   59023
0115825780999991989070800004-05083-042817FM-12+009099999V0203201N00051012001CN9999999N9+02421+02281101451ADDAA106000091AG10999GF108991081081008001999999KA1240M+03261MA1999999100421MD1999999-0061REMSYN017333   10326 59006
0154825780999991989070812004-05083-042817FM-12+009099999V0201401N00311220001CN0040001N9+02671+02181101601ADDAA124000691AA299000591AG10999AY151061AY201061GF102991011011008001031011KA1240N+02241MA1999999100571MD1999999+0001MW1001REMSYN023333   20224 58000 69964
0096825780999991989070818004-05083-042817FM-12+009099999V0201401N00311012001CN0040001N9+03021+02021101201ADDAA106000091AG10999GF106991061081008001001001MA1999999100201MD1999999+0041REMSYN011333   58004
0096825780999991989070918004-05083-042817FM-12+009099999V0201401N00311045001CN0040001N9+02951+02081101251ADDAA106000091AG10999GF106991041081008001031001MA1999999100241MD1999999+0041REMSYN011333   58004
0115825780999991989071012004-05083-042817FM-12+009099999V0201401N00311220001CN0040001N9+02561+02081101681ADDAA106000091AG10999GF102991021001017501031001KA1240N+02081MA1999999100651MD1999999+0061REMSYN017333   20208 58006
0096825780999991989071018004-05083-042817FM-12+009099999V0200901N00211220001CN0040001N9+03071+01901101351ADDAA106000091AG10999GF104991041021008001001001MA1999999100351MD1999999+0111REMSYN011333   58011
0115825780999991989071100004-05083-042817FM-12+009099999V0200901N00101220001CN9999999N9+02381+02291101571ADDAA106000091AG10999GF103991031021008001001001KA1240M+03101MA1999999100541MD1999999+0101REMSYN017333   10310 58010
0115825780999991989071112004-05083-042817FM-12+009099999V0201401N00361220001CN0040001N9+02521+01931101791ADDAA106000091AG10999GF101991011001017501061001KA1240N+02141MA1999999100761MD1999999+0111REMSYN017333   20214 58011
0096825780999991989071118004-05083-042817FM-12+009099999V0201401N00261220001CN0040001N9+03121+01891101431ADDAA106000091AG10999GF102991021021008001001001MA1999999100421MD1999999+0071REMSYN011333   58007
0096825780999991989071318004-05083-042817FM-12+009099999V0201401N00261220001CN0040001N9+03081+01951101311ADDAA106000091AG10999GF102991021011008001001001MA1999999100301MD1999999-0031REMSYN011333   59003
0115825780999991989071400004-05083-042817FM-12+009099999V0209999999999012001CN9999999N9+02491+02321101521ADDAA106000091AG10999GF106991061081008001001001KA1240M+03151MA1999999100491MD1999999-0071REMSYN017333   10315 59007
0115825780999991989071412004-05083-042817FM-12+009099999V0201401N00361220001CN0040001N9+02521+01791101801ADDAA106000091AG10999GF100991001001999999001001KA1240N+02061MA1999999100771MD1999999+0101REMSYN017333   20206 58010
0096825780999991989071418004-05083-042817FM-12+009099999V0201401N00101220001CN0040001N9+03141+01871101431ADDAA106000091AG10999GF101991011011008001001001MA1999999100421MD1999999+0121REMSYN011333   58012
0115825780999991989071500004-05083-042817FM-12+009099999V0200501N00101012001CN9999999N9+02591+02171101711ADDAA106000091AG10999GF106991061081008001001001KA1240M+02911MA1999999100681MD1999999+0191REMSYN017333   10291 58019
0115825780999991989071512004-05083-042817FM-12+009099999V0201401N00211220001CN0040001N9+02701+02031101811ADDAA106000091AG10999GF101991011001017501031001KA1240N+02141MA1999999100781MD1999999+0011REMSYN017333   20214 58001
0096825780999991989071518004-05083-042817FM-12+009099999V0200901N00211220001CN0040001N9+03181+01941101391ADDAA106000091AG10999GF102991011021008001031001MA1999999100381MD1999999-0041REMSYN011333   59004
0115825780999991989071700004-05083-042817FM-12+009099999V0200901N00151007501CN9999999N9+02601+02291101431ADDAA106000091AG10999GF106991061021008001001001KA1240M+03301MA1999999100401MD1999999-0181REMSYN017333   10330 59018
0173825780999991989071712004-05083-042817FM-12+009099999V0201401N00411220001CN9999999N9+02661+01921101571ADDAA124000291AA299000391AG10999AY151061AY201061GF100991001001999999001001KA1240N+02091MA1999999100541MD1999999-0161MW1001REMSYN023333   20209 59016 69924EQDQ01+040002VODIS 
0096825780999991989071718004-05083-042817FM-12+009099999V0201401N00211220001CN0040001N9+03211+01891101181ADDAA106000091AG10999GF102991021021008001001001MA1999999100181MD1999999-0111REMSYN011333   59011
0115825780999991989071800004-05083-042817FM-12+009099999V0209991C00001012001CN9999999N9+02571+02311101431ADDAA106000091AG10999GF107991071081008001001001KA1240M+03261MA1999999100401MD1999999+0001REMSYN017333   10326 58000
0115825780999991989071812004-05083-042817FM-12+009099999V0201401N00511220001CN0040001N9+02541+01761101601ADDAA106000091AG10999GF100991001001999999001001KA1240N+02181MA1999999100571MD1999999+0031REMSYN017333   20218 58003
0115825780999991989072012004-05083-042817FM-12+009099999V0201401N00361220001CN0040001N9+02451+01791101501ADDAA106000091AG10999GF105991031001017501031041KA1240N+01911MA1999999100471MD1999999-0061REMSYN017333   20191 59006
0096825780999991989072018004-05083-042817FM-12+009099999V0201401N00261220001CN0040001N9+03061+01991101301ADDAA106000091AG10999GF103991021021008001001011MA1999999100291MD1999999+0101REMSYN011333   58010
0115825780999991989072100004-05083-042817FM-12+009099999V0209999999999012001CN9999999N9+02681+02111101431ADDAA106000091AG10999GF106991061081008001001001KA1240M+03141MA1999999100401MD1999999+0111REMSYN017333   10314 58011
0115825780999991989072112004-05083-042817FM-12+009099999V0201401N00511220001CN0040001N9+02661+02001101611ADDAA106000091AG10999GF101991011011008001001001KA1240N+02301MA1999999100581MD1999999+0111REMSYN017333   20230 58011
0096825780999991989072118004-05083-042817FM-12+009099999V0201401N00211012001CN0040001N9+03131+02021101321ADDAA106000091AG10999GF106991061081008001001001MA1999999100321MD1999999+0031REMSYN011333   58003
0115825780999991989072200004-05083-042817FM-12+009099999V0209999999999012001CN9999999N9+02571+02231101451ADDAA106000091AG10999GF106991061081008001001001KA1240M+03221MA1999999100421MD1999999+0021REMSYN017333   10322 58002
0115825780999991989072212004-05083-042817FM-12+009099999V0201401N00361220001CN0040001N9+02611+01921101601ADDAA106000091AG10999GF100991001001999999001001KA1240N+01981MA1999999100571MD1999999-0011REMSYN017333   20198 59001
0096825780999991989072218004-05083-042817FM-12+009099999V0201401N00211220001CN0040001N9+03171+01961101151ADDAA106000091AG10999GF102991021011008001001001MA1999999100151MD1999999-0171REMSYN011333   59017
0115825780999991989072300004-05083-042817FM-12+009099999V0209991C00001220001CN9999999N9+02481+02271101301ADDAA106000091AG10999GF101991011021008001001001KA1240M+03221MA1999999100271MD1999999-0151REMSYN017333   10322 59015
0115825780999991989072312004-05083-042817FM-12+009099999V0200901N00311220001CN0040001N9+02791+02061101411ADDAA106000091AG10999GF101991001001999999001041KA1240N+02121MA1999999100381MD1999999-0191REMSYN017333   20212 59019
0096825780999991989072318004-05083-042817FM-12+009099999V0201401N00211220001CN0040001N9+03331+02001100991ADDAA106000091AG10999GF103991021021008001001011MA1999999099991MD1999999-0161REMSYN011333   59016
0115825780999991989072412004-05083-042817FM-12+009099999V0201401N00211045001CN0040001N9+02761+02281101401ADDAA106000091AG10999GF106991041021008001031001KA1240N+02261MA1999999100371MD1999999-0011REMSYN017333   20226 59001
0124825780999991989072418004-05083-042817FM-12+009099999V0200501N00211012001CN0040001N9+02851+02261101031ADDAA106001091AG10999AY161061AY201061GF106991061081008001001001MA1999999100031MD1999999+0041MW1021REMSYN017333   58004 60011
0121825780999991989072512004-05083-042817FM-12+009099999V0200901N00211220001CN0040001N9+02651+02121101531ADDAA124001091AG10999GF101991011011008001001001KA1240N+02061MA1999999100501MD1999999+0131REMSYN023333   20206 58013 60014
0096825780999991989072518004-05083-042817FM-12+009099999V0200501N00211220001CN0040001N9+03261+01881101121ADDAA106000091AG10999GF101991011021008001001001MA1999999100121MD1999999+0091REMSYN011333   58009
0115825780999991989072600004-05083-042817FM-12+009099999V0209999999999220001CN9999999N9+02401+02011101281ADDAA106000091AG10999GF100991001001999999001001KA1240M+03321MA1999999100251MD1999999+0041REMSYN017333   10332 58004
0115825780999991989072612004-05083-042817FM-12+009099999V0200901N00051045001CN0040001N9+02471+02211101511ADDAA106000091AG10999GF105991041021008001031001KA1240N+01891MA1999999100481MD1999999-0021REMSYN017333   20189 59002
0096825780999991989072618004-05083-042817FM-12+009099999V0200501N00101220001CN0040001N9+03281+02031101041ADDAA106000091AG10999GF102991021021008001001001MA1999999100041MD1999999-0081REMSYN011333   59008
0115825780999991989072712004-05083-042817FM-12+009099999V0201401N00101220001CN0040001N9+02651+02201101451ADDAA106000091AG10999GF102991021011008001001001KA1240N+02161MA1999999100421MD1999999-0061REMSYN017333   20216 59006
0096825780999991989072718004-05083-042817FM-12+009099999V0201401N00211220001CN0040001N9+03251+02131101041ADDAA106000091AG10999GF102991021021008001001001MA1999999100041MD1999999+0001REMSYN011333   58000
0115825780999991989072800004-05083-042817FM-12+009099999V0209999999999220001CN9999999N9+02571+02311101221ADDAA106000091AG10999GF104991041021008001001001KA1240M+03331MA1999999100191MD1999999+0001REMSYN017333   10333 58000
0115825780999991989072812004-05083-042817FM-12+009099999V0200901N00101007501CN0040001N9+02491+02301101521ADDAA106000091AG10999GF108991081051008001999999KA1240N+02151MA1999999100491MD1999999+0071REMSYN017333   20215 58007
0115825780999991989072900004-05083-042817FM-12+009099999V0209991C00001220001CN9999999N9+02321+02211101221ADDAA106000091AG10999GF100991001001999999001001KA1240M+03261MA1999999100191MD1999999+0001REMSYN017333   10326 58000
0115825780999991989072912004-05083-042817FM-12+009099999V0200501N00151220001CN0040001N9+02651+02121101541ADDAA106000091AG10999GF100991001001999999001001KA1240N+02051MA1999999100511MD1999999+0021REMSYN017333   20205 58002
0096825780999991989072918004-05083-042817FM-12+009099999V0203601N00211220001CN0040001N9+03291+01821101051ADDAA106000091AG10999GF101991011011008001001001MA1999999100051MD1999999-0011REMSYN011333   59001
0115825780999991989073012004-05083-042817FM-12+009099999V0200901N00151220001CN0040001N9+02611+02191101611ADDAA106000091AG10999GF100991001001999999001001KA1240N+01941MA1999999100581MD1999999+0071REMSYN017333   20194 58007
0096825780999991989073018004-05083-042817FM-12+009099999V0203601N00151220001CN0040001N9+03321+01851101101ADDAA106000091AG10999GF102991021021008001001001MA1999999100101MD1999999+0051REMSYN011333   58005
0115825780999991989080100004-05083-042817FM-12+009099999V0200901N00051220001CN9999999N9+02431+02171101451ADDAA106000091AG10999GF100991001001999999001001KA1240M+03391MA1999999100421MD1999999+0071REMSYN017333   10339 58007
0115825780999991989080112004-05083-042817FM-12+009099999V0200901N00151220001CN0040001N9+02691+02241101501ADDAA106000091AG10999GF100991001001999999001001KA1240N+02001MA1999999100471MD1999999-0181REMSYN017333   20200 59018
0096825780999991989080118004-05083-042817FM-12+009099999V0202301N00151220001CN0040001N9+03401+01891101071ADDAA106000091AG10999GF101991011011008001001001MA1999999100071MD1999999-0131REMSYN011333   59013
0115825780999991989080200004-05083-042817FM-12+009099999V0203601N00051220001CN9999999N9+02561+02291101241ADDAA106000091AG10999GF101991011021008001001001KA1240M+03481MA1999999100211MD1999999-0211REMSYN017333   10348 59021
0115825780999991989080212004-05083-042817FM-12+009099999V0201401N00151220001CN0040001N9+02671+02041101651ADDAA106000091AG10999GF102991021021008001001001KA1240N+02301MA1999999100621MD1999999+0151REMSYN017333   20230 58015
0096825780999991989080218004-05083-042817FM-12+009099999V0201401N00211220001CN0040001N9+03321+01701101181ADDAA106000091AG10999GF102991021021008001001001MA1999999100181MD1999999+0111REMSYN011333   58011
0115825780999991989080400004-05083-042817FM-12+009099999V0209999999999220001CN9999999N9+02141+01801101401ADDAA106000091AG10999GF100991001001999999001001KA1240M+03381MA1999999100371MD1999999+0041REMSYN017333   10338 58004
0115825780999991989080412004-05083-042817FM-12+009099999V0201401N00311220001CN0040001N9+02571+01881101711ADDAA106000091AG10999GF101991011011008001001001KA1240N+01841MA1999999100681MD1999999+0091REMSYN017333   20184 58009
0096825780999991989080418004-05083-042817FM-12+009099999V0201401N00311220001CN0040001N9+03321+01571101371ADDAA106000091AG10999GF102991021011008001001001MA1999999100361MD1999999+0141REMSYN011333   58014
0115825780999991989080512004-05083-042817FM-12+009099999V0201401N00151012001CN0040001N9+02471+01901101741ADDAA106000091AG10999GF107991071081008001001001KA1240N+01901MA1999999100711MD1999999+0031REMSYN017333   20190 58003
0096825780999991989080518004-05083-042817FM-12+009099999V0201401N00151045001CN0040001N9+03211+01821101351ADDAA106000091AG10999GF106991031021008001031001MA1999999100341MD1999999+0081REMSYN011333   58008
0115825780999991989080600004-05083-042817FM-12+009099999V0209991C00001012001CN9999999N9+02511+02211101441ADDAA106000091AG10999GF106991061081008001001001KA1240M+03261MA1999999100411MD1999999-0071REMSYN017333   10326 59007
0115825780999991989080612004-05083-042817FM-12+009099999V0201401N00211012001CN0040001N9+02601+01921101641ADDAA106000091AG10999GF107991071081008001001001KA1240N+02291MA1999999100611MD1999999-0101REMSYN017333   20229 59010
0096825780999991989080618004-05083-042817FM-12+009099999V0201401N00261012001CN0040001N9+03221+01911101191ADDAA106000091AG10999GF107991071081008001001001MA1999999100191MD1999999-0151REMSYN011333   59015
0115825780999991989080700004-05083-042817FM-12+009099999V0200901N00101012001CN9999999N9+02651+02371101321ADDAA106000091AG10999GF107991071081008001001001KA1240M+03281MA1999999100291MD1999999-0121REMSYN017333   10328 59012
0115825780999991989080712004-05083-042817FM-12+009099999V0201401N00311220001CN0040001N9+02721+01771101511ADDAA106000091AG10999GF100991001001999999001001KA1240N+02091MA1999999100481MD1999999-0131REMSYN017333   20209 59013
0115825780999991989080812004-05083-042817FM-12+009099999V0201401N00411220001CN0040001N9+02691+01671101601ADDAA106000091AG10999GF102991021021008001001001KA1240N+02041MA1999999100571MD1999999+0091REMSYN017333   20204 58009
0096825780999991989080818004-05083-042817FM-12+009099999V0201401N00261220001CN0040001N9+03331+01611101191ADDAA106000091AG10999GF104991031021008001001041MA1999999100191MD1999999+0151REMSYN011333   58015
0115825780999991989080912004-05083-042817FM-12+009099999V0201401N00211220001CN0040001N9+02781+01821101581ADDAA106000091AG10999GF100991001001999999001001KA1240N+02131MA1999999100551MD1999999+0081REMSYN017333   20213 58008
0096825780999991989080918004-05083-042817FM-12+009099999V0203201N00101220001CN0040001N9+03341+01801101251ADDAA106000091AG10999GF103991031021008001001001MA1999999100251MD1999999+0061REMSYN011333   58006
0115825780999991989081012004-05083-042817FM-12+009099999V0203201N00101220001CN0040001N9+02741+02241101471ADDAA106000091AG10999GF100991001001999999001001KA1240N+02121MA1999999100441MD1999999-0111REMSYN017333   20212 59011
0096825780999991989081018004-05083-042817FM-12+009099999V0200501N00151220001CN0040001N9+03391+01911101031ADDAA106000091AG10999GF104991041021008001001001MA1999999100031MD1999999-0221REMSYN011333   59022
0115825780999991989081112004-05083-042817FM-12+009099999V0203601N00151220001CN0040001N9+02671+02221101301ADDAA106000091AG10999GF102991021021008001001001KA1240N+02161MA1999999100351MD1999999-0091REMSYN017333   20216 59009
0096825780999991989081118004-05083-042817FM-12+009099999V0203201N00151220001CN0040001N9+03411+01851100921ADDAA106000091AG10999GF102991021021008001001001MA1999999099921MD1999999-0111REMSYN011333   59011
0115825780999991989081200004-05083-042817FM-12+009099999V0209991C00001220001CN9999999N9+02581+02231101221ADDAA106000091AG10999GF100991001001999999001001KA1240M+03461MA1999999100191MD1999999-0011REMSYN017333   10346 59001
0115825780999991989081212004-05083-042817FM-12+009099999V0200901N00151045001CN0040001N9+02721+02241101511ADDAA106000091AG10999GF106991011021008001031001KA1240N+02121MA1999999100481MD1999999+0131REMSYN017333   20212 58013
0115825780999991989081312004-05083-042817FM-12+009099999V0201401N00151007501CN0040001N9+02501+02191101611ADDAA106000091AG10999GF108991081051008001999999KA1240N+02141MA1999999100581MD1999999+0101REMSYN017333   20214 58010
0096825780999991989081318004-05083-042817FM-12+009099999V0203601N00151220001CN0040001N9+03301+02021101111ADDAA106000091AG10999GF103991031021008001001001MA1999999100111MD1999999+0091REMSYN011333   58009
0115825780999991989081400004-05083-042817FM-12+009099999V0209991C00001220001CN9999999N9+02531+02231101311ADDAA106000091AG10999GF101991001001999999001011KA1240M+03361MA1999999100381MD1999999-0051REMSYN017333   10336 59005
0115825780999991989081412004-05083-042817FM-12+009099999V0201401N00411220001CN0040001N9+02841+01631101521ADDAA106000091AG10999GF101991001001999999001011KA1240N+02281MA1999999100491MD1999999-0091REMSYN017333   20228 59009
0096825780999991989081418004-05083-042817FM-12+009099999V0200901N00261220001CN0040001N9+03371+01731101131ADDAA106000091AG10999GF101991011011008001001001MA1999999100131MD1999999+0081REMSYN011333   58008
0115825780999991989081512004-05083-042817FM-12+009099999V0201401N00211007501CN0040001N9+02771+01941101551ADDAA106000091AG10999GF106991061051008001001001KA1240N+02281MA1999999100521MD1999999+0021REMSYN017333   20228 58002
0096825780999991989081518004-05083-042817FM-12+009099999V0200901N00311045001CN0040001N9+03281+02201101131ADDAA106000091AG10999GF106991041081008001031001MA1999999100131MD1999999+0001REMSYN011333   58000
0115825780999991989081600004-05083-042817FM-12+009099999V0201401N00051012001CN9999999N9+02651+02311101351ADDAA106000091AG10999GF107991071081008001001001KA1240M+03361MA1999999100321MD1999999+0061REMSYN017333   10336 58006
0115825780999991989081612004-05083-042817FM-12+009099999V0201401N00211220001CN0040001N9+02891+02081101491ADDAA106000091AG10999GF101991011021008001001001KA1240N+02361MA1999999100461MD1999999-0081REMSYN017333   20236 59008
0096825780999991989081618004-05083-042817FM-12+009099999V0201401N00311220001CN0200001N9+03321+01971101011ADDAA106000091AG10999GF103991031021008001001001MA1999999100011MD1999999-0121REMSYN011333   59012
0154825780999991989081700004-05083-042817FM-12+009099999V0203601N00051012001CN9999999N9+02631+02311101241ADDAA106000491AA299000591AG10999AY161061AY201061GF107991071081008001001001KA1240M+03411MA1999999100211MD1999999-0111MW1021REMSYN023333   10341 59011 69941
0132825780999991989081712004-05083-042817FM-12+009099999V0200901N00211220001CN0040001N9+02811+02151101521ADDAA124000491AA299000591AG10999GF102991021011008001001001KA1240N+02181MA1999999100491MD1999999+0031REMSYN023333   20218 58003 69944
0096825780999991989081718004-05083-042817FM-12+009099999V0201401N00211220001CN0040001N9+03411+01811101081ADDAA106000091AG10999GF101991011021008001001001MA1999999100081MD1999999+0071REMSYN011333   58007
0115825780999991989081800004-05083-042817FM-12+009099999V0200901N00051220001CN9999999N9+02471+02091101291ADDAA106000091AG10999GF102991021021008001001001KA1240M+03461MA1999999100261MD1999999+0051REMSYN017333   10346 58005
0115825780999991989081812004-05083-042817FM-12+009099999V0201401N00361220001CN0040001N9+02791+01671101511ADDAA106000091AG10999GF100991001001999999001001KA1240N+02021MA1999999100481MD1999999-0011REMSYN017333   20202 59001
0096825780999991989081818004-05083-042817FM-12+009099999V0201401N00261220001CN0040001N9+03431+01151100991ADDAA106000091AG10999GF100991001001999999001001MA1999999099991MD1999999-0091REMSYN011333   59009
0115825780999991989081900004-05083-042817FM-12+009099999V0203601N00051220001CN9999999N9+02381+02011101221ADDAA106000091AG10999GF101991011001017501061001KA1240M+03501MA1999999100191MD1999999-0071REMSYN017333   10350 59007
0115825780999991989081912004-05083-042817FM-12+009099999V0201401N00311220001CN0040001N9+02771+01591101501ADDAA106000091AG10999GF101991001001999999001011KA1240N+01801MA1999999100471MD1999999-0011REMSYN017333   20180 59001
0096825780999991989081918004-05083-042817FM-12+009099999V0201401N00211220001CN0040001N9+03371+01731101041ADDAA106000091AG10999GF102991021021008001001001MA1999999100031MD1999999+0041REMSYN011333   58004
0115825780999991989082012004-05083-042817FM-12+009099999V0200901N00511220001CN0040001N9+02821+02001101471ADDAA106000091AG10999GF101991011011008001001001KA1240N+02101MA1999999100441MD1999999-0031REMSYN017333   20210 59003
0096825780999991989082018004-05083-042817FM-12+009099999V0200901N00311220001CN0040001N9+03481+01921101011ADDAA106000091AG10999GF102991021021008001001001MA1999999100011MD1999999-0021REMSYN011333   59002
0115825780999991989082100004-05083-042817FM-12+009099999V0200901N00261220001CN0040001N9+02741+02121101501ADDAA106000091AG10999GF101991011011008001001001KA1240N+02041MA1999999100471MD1999999+0031REMSYN017333   20204 58003
0115825780999991989082112004-05083-042817FM-12+009099999V0200901N00261220001CN0040001N9+02741+02121101501ADDAA106000091AG10999GF101991011011008001001001KA1240N+02041MA1999999100471MD1999999+0031REMSYN017333   20204 58003
0096825780999991989082118004-05083-042817FM-12+009099999V0201401N00261007501CN9999999N9+03961+01861101041ADDAA106000091AG10999GF105991051021008001001001MA1999999100041MD1999999+0021REMSYN011333   58002
0096825780999991989082218004-05083-042817FM-12+009099999V0201401N00211220001CN0040001N9+04031+01841101121ADDAA106000091AG10999GF102991021021008001001001MA1999999100121MD1999999+0091REMSYN011333   58009
0115825780999991989082300004-05083-042817FM-12+009099999V0201401N00311012001CN9999999N9+02531+02291101371ADDAA106000091AG10999GF108991081081008001999999KA1240M+03541MA1999999100341MD1999999+0151REMSYN017333   10354 58015
0115825780999991989082312004-05083-042817FM-12+009099999V0201401N00261220001CN0040001N9+02831+02241101511ADDAA106000091AG10999GF100991001001999999001001KA1240N+02131MA1999999100481MD1999999+0021REMSYN017333   20213 58002
0115825780999991989082400004-05083-042817FM-12+009099999V0209999999999220001CN9999999N9+02521+02111101211ADDAA106000091AG10999GF100991001001999999001001KA1240M+03621MA1999999100181MD1999999-0161REMSYN017333   10362 59016
0115825780999991989082412004-05083-042817FM-12+009099999V0201401N00261220001CN0040001N9+02891+02131101451ADDAA106000091AG10999GF103991031021008001001001KA1240N+02281MA1999999100421MD1999999-0061REMSYN017333   20228 59006
0131825780999991989082418004-05083-042817FM-12+009099999V0202301N00151220001CN0040001N9+03441+01921100941ADDAA106000091AG10999GF103991999021008001001001MA1999999049942MD1999999-0091REMSYN011333   59009EQDQ01+000022SCOTLCQ02+049943APOSP 
0115825780999991989082600004-05083-042817FM-12+009099999V0200501N00051220001CN9999999N9+02511+02191101121ADDAA106000091AG10999GF100991001001999999001001KA1240M+03521MA1999999100091MD1999999+0051REMSYN017333   10352 58005
0115825780999991989082612004-05083-042817FM-12+009099999V0201401N00261220001CN0040001N9+02811+02251101461ADDAA106000091AG10999GF103991031021008001001001KA1240N+02061MA1999999100431MD1999999+0061REMSYN017333   20206 58006
0096825780999991989082618004-05083-042817FM-12+009099999V0201401N00151220001CN0040001N9+03531+01701100921ADDAA106000091AG10999GF102991021021008001001001MA1999999099921MD1999999-0051REMSYN011333   59005
0115825780999991989082700004-05083-042817FM-12+009099999V0209991C00001220001CN9999999N9+02671+02141101071ADDAA106000091AG10999GF100991001001999999001001KA1240M+03601MA1999999100041MD1999999-0051REMSYN017333   10360 59005
0115825780999991989082712004-05083-042817FM-12+009099999V0200901N00311220001CN0040001N9+02941+02081101591ADDAA106000091AG10999GF103991031011008001001001KA1240N+02141MA1999999100561MD1999999+0131REMSYN017333   20214 58013
0096825780999991989082718004-05083-042817FM-12+009099999V0200501N00151220001CN0040001N9+03501+01861101061ADDAA106000091AG10999GF102991021021008001001001MA1999999100061MD1999999+0141REMSYN011333   58014
0115825780999991989082812004-05083-042817FM-12+009099999V0200501N00311220001CN0040001N9+02911+02121101561ADDAA106000091AG10999GF102991021011008001001001KA1240N+02181MA1999999100531MD1999999-0031REMSYN017333   20218 59003
0096825780999991989082818004-05083-042817FM-12+009099999V0200901N00151220001CN0040001N9+03511+01771101031ADDAA106000091AG10999GF102991021021008001001001MA1999999100031MD1999999-0031REMSYN011333   59003
0115825780999991989082912004-05083-042817FM-12+009099999V0200901N00361220001CN0040001N9+02911+01991101471ADDAA106000091AG10999GF100991001001999999001001KA1240N+02051MA1999999100441MD1999999-0091REMSYN017333   20205 59009
0115825780999991989083012004-05083-042817FM-12+009099999V0201401N00511220001CN0040001N9+02841+01791101481ADDAA106000091AG10999GF101991011011008001001001KA1240N+02141MA1999999100451MD1999999+0011REMSYN017333   20214 58001
0096825780999991989083018004-05083-042817FM-12+009099999V0201401N00461007501CN0200001N9+03441+01761100981ADDAA106000091AG10999GF105991051021008001001001MA1999999099981MD1999999+0051REMSYN011333   58005
0115825780999991989083100004-05083-042817FM-12+009099999V0200901N00051220001CN9999999N9+02571+01971101551ADDAA106000091AG10999GF100991001001999999001001KA1240M+03521MA1999999100121MD1999999+0041REMSYN017333   10352 58004
0115825780999991989083112004-05083-042817FM-12+009099999V0201401N00461220001CN0040001N9+02751+01511101401ADDAA106000091AG10999GF100991001001999999001001KA1240N+02061MA1999999100371MD1999999-0081REMSYN017333   20206 59008
0096825780999991989083118004-05083-042817FM-12+009099999V0201401N00311220001CN0040001N9+99999+99999100991ADDAA106000091AG10999GF101991011011008001001001MA1999999099941MD1999999+0031REMSYN011333   58003
0115825780999991989090100004-05083-042817FM-12+009099999V0201401N00261220001CN9999999N9+02431+01971101051ADDAA106000091AG10999GF100991001001999999001001KA1240M+03441MA1999999100051MD1999999-0041REMSYN017333   10344 59004
0115825780999991989090112004-05083-042817FM-12+009099999V0201401N00361220001CN0040001N9+02791+01731101271ADDAA106000091AG10999GF100991001001999999001001KA1240M+02781MA1999999100241MD1999999-0111REMSYN017333   10278 59011
0096825780999991989090118004-05083-042817FM-12+009099999V0201401N00211220001CN0040001N9+03421+01651100961ADDAA106000091AG10999GF102991021021008001001001MA1999999099961MD1999999+0021REMSYN011333   58002
0115825780999991989090200004-05083-042817FM-12+009099999V0200901N00051220001CN9999999N9+02441+01971101061ADDAA106000091AG10999GF100991001001999999001001KA1240M+03481MA1999999100031MD1999999-0021REMSYN017333   10348 59002
0115825780999991989090212004-05083-042817FM-12+009099999V0201401N00151220001CN0040001N9+02651+02161101261ADDAA106000091AG10999GF100991001001999999001001KA1240N+01961MA1999999100231MD1999999-0011REMSYN017333   20196 59001
0096825780999991989090218004-05083-042817FM-12+009099999V0200501N00101220001CN0040001N9+03371+01511100711ADDAA106000091AG10999GF102991021021008001001001MA1999999099711MD1999999-0251REMSYN011333   59025
0115825780999991989090300004-05083-042817FM-12+009099999V0209999999999220001CN9999999N9+02501+01961100851ADDAA106000091AG10999GF100991001001999999001001KA1240M+03521MA1999999099851MD1999999-0181REMSYN017333   10352 59018
0115825780999991989090312004-05083-042817FM-12+009099999V0200501N00151220001CN0040001N9+02841+02191101171ADDAA106000091AG10999GF100991001001999999001001KA1240N+02061MA1999999100141MD1999999-0091REMSYN017333   20206 59009
0096825780999991989090318004-05083-042817FM-12+009099999V0201401N00211220001CN0040001N9+03581+01771100651ADDAA106000091AG10999GF102991021021008001001001MA1999999099651MD1999999-0061REMSYN011333   59006
0096825780999991989090418004-05083-042817FM-12+009099999V0200901N00151220001CN0200001N9+03501+01941100781ADDAA106000091AG10999GF103991031021008001001001MA1999999095781MD1999999+0131REMSYN011333   58013
0062825780999991989090612004-05083-042817FM-12+009099999V0201401N00411220001CN0040001N9+03011+02171101111ADDAA106000091AG10999GF101991011011008001001001MA1999999100081
0115825780999991989090700004-05083-042817FM-12+009099999V0200501N00151220001CN9999999N9+02771+02141100741ADDAA106000091AG10999GF103991031021008001001001KA1240M+03661MA1999999099721MD1999999-0041REMSYN017333   10366 59004
0115825780999991989090712004-05083-042817FM-12+009099999V0201401N00211220001CN0040001N9+02961+02101101201ADDAA106000091AG10999GF102991021011008001001001KA1240N+02141MA1999999100181MD1999999+0101REMSYN017333   20214 58010
0096825780999991989090718004-05083-042817FM-12+009099999V0200901N00361220001CN0040001N9+03631+01741100651ADDAA106000091AG10999GF102991021021008001001001MA1999999099661MD1999999+0101REMSYN011333   58010
0115825780999991989090800004-05083-042817FM-12+009099999V0200901N00151220001CN9999999N9+02851+01811100861ADDAA106000091AG10999GF100991001001999999001001KA1240M+03681MA1999999099841MD1999999+0121REMSYN017333   10368 58012
0115825780999991989090812004-05083-042817FM-12+009099999V0200901N00361220001CN0040001N9+02951+02001101341ADDAA106000091AG10999GF101991011011008001001001KA1240N+02081MA1999999100321MD1999999+0141REMSYN017333   20208 58014
0096825780999991989090818004-05083-042817FM-12+009099999V0200901N00211220001CN0040001N9+03591+01651100841ADDAA106000091AG10999GF102991021021008001001001MA1999999099851MD1999999+0191REMSYN011333   58019
0096825780999991989090918004-05083-042817FM-12+009099999V0200901N00311220001CN0040001N9+03641+01131100811ADDAA106000091AG10999GF102991021011008001001001MA1999999099821MD1999999-0101REMSYN011333   59010
0096825780999991989091018004-05083-042817FM-12+009099999V0200901N00211220001CN0040001N9+03641+01501100781ADDAA106000091AG10999GF102991021021008001001001MA1999999099791MD1999999-0031REMSYN011333   59003
0115825780999991989091100004-05083-042817FM-12+009099999V0200501N00051012001CN9999999N9+02711+01991100951ADDAA106000091AG10999GF105991051081008001001001KA1240M+03701MA1999999099931MD1999999-0041REMSYN017333   10370 59004
0115825780999991989091112004-05083-042817FM-12+009099999V0201401N00151220001CN0040001N9+02731+02051101281ADDAA106000091AG10999GF101991011011008001001001KA1240N+02061MA1999999100261MD1999999-0081REMSYN017333   20206 59008
0096825780999991989091118004-05083-042817FM-12+009099999V0200901N00211220001CN0040001N9+03221+01831100771ADDAA106000091AG10999GF102991021021008001001001MA1999999099771MD1999999-0021REMSYN011333   59002
0115825780999991989091200004-05083-042817FM-12+009099999V0200501N00101045001CN9999999N9+02791+02191100931ADDAA106000091AG10999GF106991041021008001031001KA1240M+03601MA1999999099911MD1999999-0021REMSYN017333   10360 59002
0115825780999991989091212004-05083-042817FM-12+009099999V0201401N00151007501CN0040001N9+02781+02161101321ADDAA106000091AG10999GF105991051021008001001001KA1240N+02161MA1999999100301MD1999999+0041REMSYN017333   20216 58004
0096825780999991989091218004-05083-042817FM-12+009099999V0202301N00261220001CN0040001N9+03611+01771100701ADDAA106000091AG10999GF101991011011008001001001MA1999999099701MD1999999-0071REMSYN011333   59007
0115825780999991989091312004-05083-042817FM-12+009099999V0200901N00211007501CN0040001N9+02781+02181101281ADDAA106000091AG10999GF105991051021008001001001KA1240N+02261MA1999999100261MD1999999-0041REMSYN017333   20226 59004
0096825780999991989091318004-05083-042817FM-12+009099999V0203201N00151220001CN0040001N9+03561+01951100711ADDAA106000091AG10999GF102991021021008001001001MA1999999099711MD1999999+0011REMSYN011333   58001
0115825780999991989091400004-05083-042817FM-12+009099999V0203201N00051220001CN9999999N9+02741+02171100941ADDAA106000091AG10999GF100991001001999999001001KA1240M+03601MA1999999099921MD1999999-0041REMSYN017333   10360 59004
0115825780999991989091412004-05083-042817FM-12+009099999V0200901N00151007501CN0040001N9+02771+02191101311ADDAA106000091AG10999GF106991061021008001001001KA1240N+02181MA1999999100291MD1999999+0031REMSYN017333   20218 58003
0096825780999991989091418004-05083-042817FM-12+009099999V0202301N00151220001CN0040001N9+03431+01941100811ADDAA106000091AG10999GF103991031021008001001001MA1999999099811MD1999999+0101REMSYN011333   58010
0096825780999991989091518004-05083-042817FM-12+009099999V0200901N00211220001CN0040001N9+03531+01871100931ADDAA106000091AG10999GF103991031021008001001001MA1999999099931MD1999999+0121REMSYN011333   58012
0096825780999991989091618004-05083-042817FM-12+009099999V0203601N00211220001CN0040001N9+03601+01721100911ADDAA106000091AG10999GF101991011011008001001001MA1999999099911MD1999999-0021REMSYN011333   59002
0096825780999991989091718004-05083-042817FM-12+009099999V0200501N00151220001CN0040001N9+03461+02021100911ADDAA106000091AG10999GF102991021021008001001001MA1999999099921MD1999999+0011REMSYN011333   58001
0115825780999991989091812004-05083-042817FM-12+009099999V0200501N00361007501CN0040001N9+02891+02081101471ADDAA106000091AG10999GF106991061021008001001001KA1240N+02341MA1999999100451MD1999999+0011REMSYN017333   20234 58001
0096825780999991989091818004-05083-042817FM-12+009099999V0203601N00211220001CN0040001N9+03491+01751100931ADDAA106000091AG10999GF105991031021008001001011MA1999999099931MD1999999+0011REMSYN011333   58001
0115825780999991989091918004-05083-042817FM-12+009099999V0200501N00151220001CN0040001N9+03521+01831101071ADDAA106000091AG10999GF103991999021008001001001MA1999999100071MD1999999+0141REMSYN011333   58014EQDQ01+000022SCOTLC
0115825780999991989092012004-05083-042817FM-12+009099999V0201801N00101012001CN0200001N9+02861+02261101441ADDAA106000091AG10999GF107991071081008001001001KA1240N+02281MA1999999100421MD1999999-0061REMSYN017333   20228 59006
0096825780999991989092018004-05083-042817FM-12+009099999V0200501N00211220001CN0040001N9+03561+01871100911ADDAA106000091AG10999GF102991021021008001001001MA1999999099911MD1999999-0161REMSYN011333   59016
0134825780999991989092100004-05083-042817FM-12+009099999V0200901N00151220001CN9999999N9+02731+02151101882ADDAA106000091AG10999GF101991011021008001001001KA1240M+03601MA1999999100051MD1999999-0131REMSYN017333   10360 59013EQDQ01+101883APOSLP
0143825780999991989092112004-05083-042817FM-12+009099999V0200901N00211012001CN0040001N9+02751+02431101331ADDAA124001091AG10999AY161061AY201061GF107991071081008001001001KA1240N+02341MA1999999100301MD1999999-0121MW1011REMSYN023333   20234 59012 60014
0115825780999991989092512004-05083-042817FM-12+009099999V0200901N00311220001CN0040001N9+03021+02041101471ADDAA106000091AG10999GF100991001001999999001001KA1240N+02161MA1999999100351MD1999999-0071REMSYN017333   20216 59007
0115825780999991989092518004-05083-042817FM-12+009099999V0201401N00151220001CN0040001N9+03671+01771100811ADDAA106000091AG10999GF103991031021008001001001MA1999999099811MD1999999-0071REMSYN011333   59007EQDQ01+999990APOSLP
0121825780999991989092612004-05083-042817FM-12+009099999V0200501N00311220001CN0040001N9+02981+01981101321ADDAA124000391AG10999GF100991001001999999001001KA1240N+02091MA1999999100301MD1999999-0051REMSYN023333   20209 59005 69934
0096825780999991989092618004-05083-042817FM-12+009099999V0200901N00151220001CN0040001N9+03591+01791100911ADDAA106000091AG10999GF103991031021008001001001MA1999999099711MD1999999-0101REMSYN011333   59010
0115825780999991989092712004-05083-042817FM-12+009099999V0201401N00311220001CN0040001N9+02961+02131101381ADDAA106000091AG10999GF102991021021008001001001KA1240N+02121MA1999999100361MD1999999+0061REMSYN017333   20212 58006
0096825780999991989092718004-05083-042817FM-12+009099999V0201401N00211220001CN0040001N9+03651+01801100721ADDAA106000091AG10999GF102991021021008001001001MA1999999099721MD1999999+0011REMSYN011333   58001
0115825780999991989092812004-05083-042817FM-12+009099999V0200501N00151220001CN0040001N9+02971+02211101381ADDAA106000091AG10999GF102991021011008001001001KA1240N+02271MA1999999100361MD1999999+0001REMSYN017333   20227 58000
0096825780999991989092818004-05083-042817FM-12+009099999V0201401N00211220001CN0040001N9+03651+01891100761ADDAA106000091AG10999GF104991041031008001001001MA1999999099761MD1999999+0041REMSYN011333   58004
0143825780999991989092900004-05083-042817FM-12+009099999V0203601N00311220001CN9999999N9+02531+02071101231ADDAA106000191AG10999AY151061AY201061GF101991011021008001001001KA1240M+03701MA1999999100201MD1999999+0111MW1011REMSYN023333   10370 58011 69911
