0096825960999991989010318004-05650-035417FM-12+006199999V0200901N00511045001CN0040001N9+02891+02131100981ADDAA106000091AG10999GF106991031021008001081031MA1999999100221MD1999999+0021REMSYN011333   58002
0096825960999991989010418004-05650-035417FM-12+006199999V0201401N00571220001CN0040001N9+02951+02111100791ADDAA106000091AG10999GF103991031021008001001001MA1999999100261MD1999999+0041REMSYN011333   58004
0115825960999991989010500004-05650-035417FM-12+006199999V0201401N00211220001CN9999999N9+02521+02341101241ADDAA106000091AG10999GF102991021011008001001001KA1240M+03051MA1999999100511MD1999999+0181REMSYN017333   10305 58018
0115825960999991989010512004-05650-035417FM-12+006199999V0201401N00511007501CN0040001N9+02901+02101101341ADDAA106000091AG10999GF106991061021008001001001KA1240N+02141MA1999999100611MD1999999+0011REMSYN017333   20214 58001
0115825960999991989010800004-05650-035417FM-12+006199999V0200901N00151220001CN9999999N9+02471+02211100811ADDAA106000091AG10999GF102991021051008001071001KA1240M+03131MA1999999100081MD1999999-0101REMSYN017333   10313 59010
0134825960999991989010812004-05650-035417FM-12+006199999V0200901N00511007501CN0040001N9+02841+02071101011ADDAA106000091AG10999GF107991999021008001001001KA1240N+02071MA1999999100281MD1999999+0101REMSYN017333   20207 58010EQDQ01+000052SCOTLC
0096825960999991989011018004-05650-035417FM-12+006199999V0200901N00511220001CN0040001N9+03071+01901100901ADDAA106000091AG10999GF102991011001017501041091MA1999999100171MD1999999+0031REMSYN011333   58003
0096825960999991989011218004-05650-035417FM-12+006199999V0200901N00621220001CN0040001N9+03051+02151100961ADDAA106000091AG10999GF103991011011008001001031MA1999999100231MD1999999+0051REMSYN011333   58005
0143825960999991989011412004-05650-035417FM-12+006199999V0200901N00411007501CN0040001N9+02721+02411101381ADDAA124017091AG10999AY161061AY251061GF108991061071008001011999KA1240N+02241MA1999999100651MD1999999+0101MW1021REMSYN023333   20224 58010 60174
0135825960999991989011418004-05650-035417FM-12+006199999V0200901N00461007501CN0040001N9+02951+02291101131ADDAA106000891AA299001091AG10999AY151061AY221061GF106991061021008001001001MA1999999100401MD1999999+0051MW1011REMSYN017333   58005 69981
0115825960999991989011500004-05650-035417FM-12+006199999V0201401N00151220001CN9999999N9+02431+02321101241ADDAA106000091AG10999GF102991021011008001001001KA1240M+03011MA1999999100611MD1999999-0021REMSYN017333   10301 59002
0121825960999991989011512004-05650-035417FM-12+006199999V0201401N00461012001CN0040001N9+02791+02231101391ADDAA124001091AG10999GF106991061081008001001001KA1240N+02191MA1999999100661MD1999999+0011REMSYN023333   20219 58001 60014
0096825960999991989011718004-05650-035417FM-12+006199999V0200901N00461220001CN0040001N9+03031+02181101031ADDAA106000091AG10999GF104991041011008001001001MA1999999100301MD1999999-0061REMSYN011333   59006
0096825960999991989012018004-05650-035417FM-12+006199999V0201401N00511220001CN0040001N9+02991+02011100951ADDAA106000091AG10999GF102991011011008001001031MA1999999100221MD1999999+0021REMSYN011333   58002
0115825960999991989012100004-05650-035417FM-12+006199999V0200901N00261220001CN9999999N9+02401+02261101181ADDAA106000091AG10999GF104991031061008001001041KA1240M+03041MA1999999100451MD1999999+0091REMSYN017333   10304 58009
0115825960999991989012112004-05650-035417FM-12+006199999V0201401N00511007501CN0040001N9+02931+02021101221ADDAA106000091AG10999GF107991051011008001001021KA1240N+02071MA1999999100491MD1999999-0021REMSYN017333   20207 59002
0134825960999991989012212004-05650-035417FM-12+006199999V0200901N004619999999N0040001N9+02801+02251101211ADDAA106000091AG10999GF107991999081008001001001KA1240N+02151MA1999999100481MD1999999-0011REMSYN017333   20215 59001EQDQ01+000042SCOTLC
0124825960999991989012618004-05650-035417FM-12+006199999V0201401N00511045001CN0040001N9+02981+02151100931ADDAA106004091AG10999AY161061AY221061GF107991031021008001061031MA1999999100201MD1999999+0011MW1021REMSYN017333   58001 60041
0096825960999991989012818004-05650-035417FM-12+006199999V0201401N00571220001CN0040001N9+03031+02051100911ADDAA106000091AG10999GF104991011011008001051031MA1999999100181MD1999999-0011REMSYN011333   59001
0115825960999991989012912004-05650-035417FM-12+006199999V0201401N00571007501CN0040001N9+02951+02191101111ADDAA106000091AG10999GF106991061021008001001001KA1240N+02171MA1999999100381MD1999999+0001REMSYN017333   20217 58000
0115825960999991989012918004-05650-035417FM-12+006199999V0201401N006719999999N0040001N9+02991+02171100971ADDAA106000091AG10999GF107991999011008001081081MA1999999100171MD1999999+0011REMSYN011333   58001EQDQ01+000082SCOTLC
0115825960999991989013018004-05650-035417FM-12+006199999V0201401N005119999999N0040001N9+02971+01991100861ADDAA106000091AG10999GF106991001001999999001091MA1999999100131MD1999999-0041REMSYN011333   59004EQDQ01+000062SCOTLC
0096825960999991989013118004-05650-035417FM-12+006199999V0201401N00511105001CN0040001N9+02951+02081100951ADDAA106000091AG10999GF108991041001017501021081MA1999999100221MD1999999+0091REMSYN011333   58009
0096825960999991989021018004-05650-035417FM-12+006199999V0200901N00721220001CN0040001N9+03061+02051101111ADDAA106000091AG10999GF102991021011008001001001MA1999999100381MD1999999+0061REMSYN011333   58006
0096825960999991989021518004-05650-035417FM-12+006199999V0200901N00461045001CN0040001N9+02951+02141100751ADDAA106000091AG10999GF108991031081008001011061MA1999999100021MD1999999+0021REMSYN011333   58002
0096825960999991989030918004-05650-035417FM-12+006199999V0201401N00621220001CN0040001N9+03131+02281100841ADDAA106000091AG10999GF104991041011008001001001MA1999999101101MD1999999+0021REMSYN011333   58002
0115825960999991989031100004-05650-035417FM-12+006199999V0200901N00211220001CN9999999N9+02571+02351100941ADDAA106000091AG10999GF100991001001999999001001KA1240M+03251MA1999999100211MD1999999-0151REMSYN017333   10325 59015
0115825960999991989031112004-05650-035417FM-12+006199999V0200901N00461007501CN0040001N9+03081+02041101121ADDAA106000091AG10999GF106991061021008001001001KA1240N+02351MA1999999100391MD1999999+0041REMSYN017333   20235 58004
0115825960999991989031800004-05650-035417FM-12+006199999V0200901N00211220001CN9999999N9+02621+02411101061ADDAA106000091AG10999GF102991021001017501041001KA1240M+03351MA1999999100331MD1999999-0061REMSYN017333   10335 59006
0115825960999991989031900004-05650-035417FM-12+006199999V0201401N00211045001CN9999999N9+02611+02331101081ADDAA106000091AG10999GF105991031021008001041001KA1240M+03301MA1999999100361MD1999999+0031REMSYN017333   10330 58003
0154825960999991989031912004-05650-035417FM-12+006199999V0201401N00511012001CN0040001N9+02991+02151101091ADDAA124000291AA299000391AG10999AY151061AY221061GF106991061081008001001001KA1240N+02321MA1999999100371MD1999999-0041MW1021REMSYN023333   20232 59004 69924
0096825960999991989031918004-05650-035417FM-12+006199999V0200901N00671220001CN0040001N9+03181+01841100711ADDAA106000091AG10999GF100991001001999999001001MA1999999099991MD1999999-0061REMSYN011333   59006
0096825960999991989032218004-05650-035417FM-12+006199999V0200501N00461220001CN0040001N9+02981+02201100731ADDAA106000091AG10999GF106991021011008001001061MA1999999100011MD1999999+0031REMSYN011333   58003
0118825960999991989032318004-05650-035417FM-12+006199999V0200501N00411045001CN0040001N9+03101+99999100741ADDAA106000091AG10999AY191061AY221061GF108991021011008001011081MA1999999100021MD1999999+0211MW1021REMSYN011333   58021
0115825960999991989040800004-05650-035417FM-12+006199999V0203201N00411220001CN9999999N9+02541+02321100961ADDAA106000091AG10999GF102991021061008001001001KA1240M+03121MA1999999100231MD1999999-0211REMSYN017333   10312 59021
0143825960999991989040812004-05650-035417FM-12+006199999V0203601N00051007501CN0020001N9+99999+99999101251ADDAA124014091AG10999AY161061AY261061GF108991061071008001021999KA1240N+02371MA1999999100521MD1999999+0141MW1531REMSYN023333   20237 58014 60144
0115825960999991989041700004-05650-035417FM-12+006199999V0200901N00101007501CN9999999N9+02581+02311101091ADDAA106000091AG10999GF106991061061008001001001KA1240M+03121MA1999999100371MD1999999-0011REMSYN017333   10312 59001
0115825960999991989041712004-05650-035417FM-12+006199999V0202301N00151045001CN0040001N9+02551+02281101111ADDAA106000091AG10999GF108991041011008001081081KA1240N+02331MA1999999100381MD1999999-0081REMSYN017333   20233 59008
0096825960999991989041718004-05650-035417FM-12+006199999V0200501N00461045001CN0040001N9+02791+02401100681ADDAA106000091AG10999GF107991021071008001051021MA1999999099951MD1999999-0131REMSYN011333   59013
0124825960999991989051918004-05650-035417FM-12+006199999V0201801N00151045001CN0040001N9+02371+02261101211ADDAA112002091AG10999AY161061AY251061GF108991031071008001021999MA1999999100481MD1999999-0101MW1021REMSYN017333   59010 60022
0143825960999991989052312004-05650-035417FM-12+006199999V0201401N00461007501CN0020001N9+02431+02321101381ADDAA124047091AG10999AY161061AY261061GF108991051071008001021999KA1240N+02211MA1999999100661MD1999999-0031MW1611REMSYN023333   20221 59003 60474
0074825960999991989052318004-05650-035417FM-12+006199999V0201401N00361105001CN0040001N9+02871+02281100981ADDAA106000091AG10999GF106991021011008001001081MA1999999100251REMSYN003333
0115825960999991989052600004-05650-035417FM-12+006199999V0201801N00211220001CN9999999N9+02321+02131101091ADDAA106000091AG10999GF102991021011008001001001KA1240M+02991MA1999999100361MD1999999-0131REMSYN017333   10299 59013
0134825960999991989052612004-05650-035417FM-12+006199999V0201801N00511007501CN0040001N9+02701+02301101251ADDAA106000091AG10999GF108991999011008001031081KA1240N+02171MA1999999100521MD1999999-0031REMSYN017333   20217 59003EQDQ01+000082SCOTLC
0143825960999991989061612004-05650-035417FM-12+006199999V0201801N00511007501CN0020001N9+02331+02071101701ADDAA124000391AG10999AY151061AY221061GF108991061071008001021999KA1240N+02081MA1999999100961MD1999999+0231MW1141REMSYN023333   20208 58023 69934
0135825960999991989071418004-05650-035417FM-12+006199999V0201801N00261007501CN0040001N9+02591+02011101461ADDAA106000291AA299000391AG10999AY151061AY221061GF108991051071008001021999MA1999999100721MD1999999+0081MW1021REMSYN017333   58008 69921
0135825960999991989072118004-05650-035417FM-12+006199999V0201801N00151105001CN0005001N9+02581+02211101421ADDAA106000491AA299000591AG10999AY151061AY221061GF107991031001017501031091MA1999999100681MD1999999+0131MW1021REMSYN017333   58013 69941
0115825960999991989072200004-05650-035417FM-12+006199999V0201801N00261045001CN9999999N9+02291+02181101441ADDAA106000091AG10999GF105991031081008001031999KA1240M+02651MA1999999100701MD1999999-0021REMSYN017333   10265 59002
0143825960999991989072212004-05650-035417FM-12+006199999V0201801N00461045001CN0040001N9+02471+02301101511ADDAA124002091AG10999AY151061AY251061GF107991021071008001061091KA1240N+02131MA1999999100771MD1999999-0081MW1201REMSYN023333   20213 59008 60024
0096825960999991989072718004-05650-035417FM-12+006199999V0201401N00411220001CN0040001N9+02851+02071101141ADDAA106000091AG10999GF102991021011008001001001MA1999999100411MD1999999-0051REMSYN011333   59005
0115825960999991989080100004-05650-035417FM-12+006199999V0201401N00101220001CN9999999N9+02321+02201101631ADDAA106000091AG10999GF100991001001999999001001KA1240M+03001MA1999999100891MD1999999+0231REMSYN017333   10300 58023
0115825960999991989080112004-05650-035417FM-12+006199999V0201401N00461007501CN0040001N9+02701+02351101571ADDAA106000091AG10999GF106991061021008001001001KA1240N+02031MA1999999100831MD1999999-0061REMSYN017333   20203 59006
0115825960999991989080900004-05650-035417FM-12+006199999V0201401N00261045001CN9999999N9+02211+02151101431ADDAA106000091AG10999GF105991021051008001031001KA1240M+02881MA1999999100691MD1999999+0001REMSYN017333   10288 58000
0124825960999991989081418004-05650-035417FM-12+006199999V0200901N00571007501CN0040001N9+02751+02211101211ADDAA106001091AG10999AY151061AY251061GF108991061071008001011999MA1999999100481MD1999999-0081MW1031REMSYN017333   59008 60011
0134825960999991989082400004-05650-035417FM-12+006199999V0201401N00151007501CN9999999N9+02301+02251101431ADDAA106000091AG10999GF105991051021008001001001KA1240M+99999MA1999999100691MD1999999+0001REMSYN017333   10223 58000EQDQ01 +02232ATMX  
0132825960999991989082412004-05650-035417FM-12+006199999V0201401N00461012001CN0040001N9+02681+02351101431ADDAA106000091AA224003091AG10999GF106991061081008001001001KA1240N+02131MA1999999100721MD1999999-0021REMSYN023333   20213 59002 60034
0096825960999991989082518004-05650-035417FM-12+006199999V0201401N00571220001CN0040001N9+02811+02031101171ADDAA106000091AG10999GF101991011051008001001001MA1999999100431MD1999999+0071REMSYN011333   58007
0096825960999991989082618004-05650-035417FM-12+006199999V0200901N00621220001CN0040001N9+02781+02361101201ADDAA106000091AG10999GF103991031021008001001001MA1999999100471MD1999999+0041REMSYN011333   58004
0096825960999991989083118004-05650-035417FM-12+006199999V0201401N00671220001CN0040001N9+02801+02151101081ADDAA106000091AG10999GF103991031011008001001001MA1999999100351MD1999999-0031REMSYN011333   59003
0124825960999991989090118004-05650-035417FM-12+006199999V0200901N00461045001CN0040001N9+03241+02251101021ADDAA106001091AG10999AY161061AY221061GF107991011051008001071081MA1999999100291MD1999999-0061MW1021REMSYN017333   59006 60011
0096825960999991989090518004-05650-035417FM-12+006199999V0201401N00511220001CN0200001N9+02851+02171100861ADDAA106000091AG10999GF102991021011008001001001MA1999999100131MD1999999-0091REMSYN011333   59009
0115825960999991989091200004-05650-035417FM-12+006199999V0201801N00261220001CN9999999N9+02321+02181101171ADDAA106000091AG10999GF100991001001999999001001KA1240M+03011MA1999999100441MD1999999-0111REMSYN017333   10301 59011
0115825960999991989091212004-05650-035417FM-12+006199999V0201401N00511007501CN0040001N9+02751+02261101171ADDAA106000091AG10999GF106991061021008001001001KA1240N+02011MA1999999100541MD1999999-0061REMSYN017333   20201 59006
0096825960999991989092018004-05650-035417FM-12+006199999V0201401N00511220001CN0040001N9+02861+02011101031ADDAA106000091AG10999GF103991031011008001001001MA1999999100331MD1999999-0141REMSYN011333   59014
0115825960999991989093000004-05650-035417FM-12+006199999V0201401N00261220001CN9999999N9+02251+02051101441ADDAA106000091AG10999GF102991011041008001041001KA1240M+03031MA1999999100701MD1999999-0011REMSYN017333   10303 59001
0115825960999991989093012004-05650-035417FM-12+006199999V0201401N00511007501CN0040001N9+02811+02031101621ADDAA106000091AG10999GF106991061021008001001001KA1240N+01961MA1999999100881MD1999999-0051REMSYN017333   20196 59005
0096825960999991989093018004-05650-035417FM-12+006199999V0200501N00511220001CN0500001N9+03401+02281101151ADDAA106000091AG10999GF102991021011008001001001MA1999999101071MD1999999-0021REMSYN011333   59002
0096825960999991989100418004-05650-035417FM-12+006199999V0201401N00771220001CN0040001N9+03861+01921101191ADDAA106000091AG10999GF102991021011008001001001MA1999999100461MD1999999+0011REMSYN011333   58001
0096825960999991989111618004-05650-035417FM-12+006199999V0201401N00511045001CN0040001N9+03031+02211100941ADDAA106000091AG10999GF105991031021008001061001MA1999999100211MD1999999-0051REMSYN011333   59005
0096825960999991989112218004-05650-035417FM-12+006199999V0201801N00671007501CN0200001N9+03511+01721999999ADDAA106000091AG10999GF106991061021008001001001MA1999999098481MD1999999-0201REMSYN011333   59020
0115825960999991989121300004-05650-035417FM-12+006199999V0201401N002619999999N9999999N9+02501+02401101191ADDAA106000091AG10999GF105991999999008001999999KA1240M+03131MA1999999100461MD1999999+0051REMSYN017333   10313 58005
0143825960999991989121312004-05650-035417FM-12+006199999V0200901N00511045001CN0040001N9+02871+02331101171ADDAA124003091AG10999AY151061AY251061GF108991031071008001011999KA1240N+02291MA1999999100441MD1999999+0011MW1021REMSYN023333   20229 58001 60034
0115825960999991989121400004-05650-035417FM-12+006199999V0201401N00211007501CN9999999N9+02551+02351101081ADDAA106000091AG10999GF106991061051008001001001KA1240M+03011MA1999999100351MD1999999-0111REMSYN017333   10301 59011
0115825960999991989121412004-05650-035417FM-12+006199999V0200901N00571045001CN0040001N9+02861+02281101211ADDAA106000091AG10999GF108991041071008001011999KA1240N+02311MA1999999100481MD1999999+0041REMSYN017333   20231 58004
0102825960999991989121618004-05650-035417FM-12+006199999V0200901N00511045001CN0040001N9+02631+02601100871ADDAA106000191AG10999GF108991041071008001011081MA1999999100141MD1999999+0041REMSYN017333   58004 69911
0115825960999991989122200004-05650-035417FM-12+006199999V0200901N00101045001CN9999999N9+02671+02431101311ADDAA106000091AG10999GF108991041051008001021999KA1240M+03151MA1999999098941MD1999999+0231REMSYN017333   10315 58023
0115825960999991989123000004-05650-035417FM-12+006199999V0201401N00211007501CN9999999N9+02401+02351101151ADDAA106000091AG10999GF105991051051008001001001KA1240M+03081MA1999999100421MD1999999+0041REMSYN017333   10308 58004
0143825960999991989123012004-05650-035417FM-12+006199999V0200901N00511045001CN0040001N9+02691+02451101321ADDAA124001091AG10999AY151061AY221061GF107991041071008001071001KA1240N+02231MA1999999100591MD1999999+0241MW1511REMSYN023333   20223 58024 60014
