0115829750999991989010200004-09100-044117FM-12+033199999V0202301N00461007501CN9999999N9+02681+02041100961ADDAA106000091AG10999GF106991051041008001031051KA1240M+03381MA1999999097151MD1999999+0091REMSYN017333   10338 58009
0102829750999991989010212004-09100-044117FM-12+033199999V0203601N00101220001CN0500001N9+02731+02171101151ADDAA106000091AG10999GF103991031021008001041031MA1999999097331MD1999999-0051REMSYN017333   20/// 59005
0115829750999991989010218004-09100-044117FM-12+033199999V0201401N00461045001CN0500001N9+03271+02021100661ADDAA106000091AG10999GF105991041051008001031041MA1999999096911MD1999999-0091REMSYN011333   59009EQDQ01+999990APOSLP
0115829750999991989010300004-09100-044117FM-12+033199999V0200501N00101220001CN9999999N9+02651+02071100901ADDAA106000091AG10999GF103991031021008001041031KA1240M+03341MA1999999097081MD1999999-0071REMSYN017333   10334 59007
0102829750999991989010312004-09100-044117FM-12+033199999V0200501N00101220001CN0500001N9+02671+02041101801ADDAA106000091AG10999GF104991021001008001041031MA1999999097251MD1999999-0081REMSYN017333   20/// 59008
0159829750999991989010318004-09100-044117FM-12+033199999V0209999999999045001CN0500001N9+02431+02091100772ADDAA106002091AG10999AY161061AY231061GF105991031041008001021051MA1999999096921MD1999999+0011MW1071REMSYN017333   58001 60021EQDQ01+999990APOSLPQ02+100773APOSLP
0115829750999991989010700004-09100-044117FM-12+033199999V0200501N00151220001CN9999999N9+02801+01901100831ADDAA106000091AG10999GF100991001001999999001001KA1240M+03201MA1999999097021MD1999999-0181REMSYN017333   10320 59018
0115829750999991989010712004-09100-044117FM-12+033199999V0209999999999220001CN0500001N9+02711+01991101041ADDAA106000091AG10999GF104991041021008001031021MA1999999097211MD1999999-0141REMSYN011333   59014EQDQ01+999990APOSP 
0115829750999991989010900004-09100-044117FM-12+033199999V0200501N00151007501CN9999999N9+02311+01141100831ADDAA106000091AG10999GF107991071031008001021051KA1240M+02691MA1999999097021MD1999999+0081REMSYN017333   10269 58008
0096829750999991989010912004-09100-044117FM-12+033199999V0209999999999007501CN0500001N9+02431+02071101061ADDAA106000091AG10999GF105991051031008001021041MA1999999097191MD1999999+0151REMSYN011333   58015
0115829750999991989010918004-09100-044117FM-12+033199999V0200501N00261220001CN0500001N9+03161+02121999999ADDAA106000091AG10999GF103991031021008001001031MA1999999098802MD1999999-0121REMSYN011333   59012EQDQ01+098803APOSP 
0096829750999991989011012004-09100-044117FM-12+033199999V0201801N00151007501CN0500001N9+02391+02131101321ADDAA106000091AG10999GF106991051031008001021041MA1999999097461MD1999999+0271REMSYN011333   58027
0115829750999991989011018004-09100-044117FM-12+033199999V0203201N00211220001CN0500001N9+02781+02111101031ADDAA106000091AG10999GF103991031031008001001021MA1999999097211MD1999999+0411REMSYN011333   58041EQDQ01+999990APOSLP
0115829750999991989011100004-09100-044117FM-12+033199999V0209999999999220001CN9999999N9+02551+02051101111ADDAA106000091AG10999GF100991001001999999001001KA1240M+02951MA1999999097251MD1999999+0301REMSYN017333   10295 58030
0102829750999991989011112004-09100-044117FM-12+033199999V0201801N00151220001CN0500001N9+02651+02021101361ADDAA106000091AG10999GF102991021021008001001021MA1999999097511MD1999999+0051REMSYN017333   20/// 58005
0096829750999991989011212004-09100-044117FM-12+033199999V0200501N00151220001CN0500001N9+02731+01831101211ADDAA106000091AG10999GF104991041021008001031021MA1999999097411MD1999999-0101REMSYN011333   59010
0115829750999991989011218004-09100-044117FM-12+033199999V0201401N00101220001CN0500001N9+03311+01761100911ADDAA106000091AG10999GF103991031001008001031021MA1999999097161MD1999999+0001REMSYN011333   58000EQDQ01+999990APOSLP
0115829750999991989011400004-09100-044117FM-12+033199999V0203201N00261220001CN9999999N9+03011+01811100791ADDAA106000091AG10999GF100991001001999999001001KA1240M+03511MA1999999097011MD1999999-0101REMSYN017333   10351 59010
0096829750999991989011412004-09100-044117FM-12+033199999V0200501N00151007501CN0500001N9+02431+02211101401ADDAA106000091AG10999GF106991061031008001021041MA1999999097561MD1999999+0061REMSYN011333   58006
0115829750999991989011418004-09100-044117FM-12+033199999V0201401N00151007501CN0500001N9+03231+01891101021ADDAA106000091AG10999GF105991051031008001021041MA1999999097261MD1999999+0061REMSYN011333   58006EQDQ01+999990APOSLP
0102829750999991989011512004-09100-044117FM-12+033199999V0201401N00151007501CN0500001N9+02501+02191101441ADDAA106000091AG10999GF106991051041008001031031MA1999999097561MD1999999+0001REMSYN017333   20/// 58000
0115829750999991989011800004-09100-044117FM-12+033199999V0209999999999220001CN9999999N9+02431+02071101111ADDAA106000091AG10999GF102991021001008001021031KA1240M+02761MA1999999097231MD1999999-0071REMSYN017333   10276 59007
0143829750999991989011818004-09100-044117FM-12+033199999V0200501N00151220001CN0500001N9+03111+02181100831ADDAA106010091AG10999AY161061AY231061GF104991021031008001061041MA1999999097061MD1999999-0151MW1091REMSYN017333   59015 60101EQDQ01+999990APOSLP
0115829750999991989012000004-09100-044117FM-12+033199999V0209999999999220001CN9999999N9+02471+02281100931ADDAA106000091AG10999GF104991021031008001051041KA1240M+02961MA1999999097051MD1999999-0061REMSYN017333   10296 59006
0102829750999991989012012004-09100-044117FM-12+033199999V0200901N00151045001CN0500001N9+02421+02211101211ADDAA106000091AG10999GF105991021041008001021051MA1999999097351MD1999999-0101REMSYN017333   20/// 59010
0115829750999991989012018004-09100-044117FM-12+033199999V0200501N00151220001CN0500001N9+03201+02061100751ADDAA106000091AG10999GF104991031021008001031051MA1999999096991MD1999999-0111REMSYN011333   59011EQDQ01+999990APOSLP
0115829750999991989012100004-09100-044117FM-12+033199999V0203601N00151220001CN9999999N9+02761+01951100911ADDAA106000091AG10999GF100991001001999999001001KA1240M+03251MA1999999097051MD1999999+0001REMSYN017333   10325 58000
0102829750999991989012112004-09100-044117FM-12+033199999V0200901N00101220001CN0500001N9+02681+02181101141ADDAA106000091AG10999GF103991021021008001001051MA1999999097311MD1999999-0041REMSYN017333   20/// 59004
0115829750999991989012118004-09100-044117FM-12+033199999V0200901N00151045001CN0500001N9+03281+01861100701ADDAA106000091AG10999GF105991021041008001021051MA1999999096951MD1999999-0041REMSYN011333   59004EQDQ01+999990APOSLP
0115829750999991989012218004-09100-044117FM-12+033199999V0200501N00151105001CN0500001N9+03301+01871100831ADDAA106000091AG10999GF105991021031008001041021MA1999999097081MD1999999+0131REMSYN011333   58013EQDQ01+999990APOSLP
0062829750999991989012312004-09100-044117FM-12+033199999V0201401N00151220001CN0500001N9+02691+01961101101ADDAA106000091AG10999GF100991001001999999001001MA1999999097201
0115829750999991989012418004-09100-044117FM-12+033199999V0200501N00151220001CN0500001N9+03291+01911100541ADDAA106000091AG10999GF104991041031008001021041MA1999999096801MD1999999-0141REMSYN011333   59014EQDQ01+999990APOSLP
0108829750999991989012512004-09100-044117FM-12+033199999V0200501N00151045001CN0500001N9+02591+01971101211ADDAA124042091AG10999GF105991031041008001021051MA1999999097341MD1999999+0151REMSYN023333   20/// 58015 60424
0115829750999991989012518004-09100-044117FM-12+033199999V0200501N00261105001CN0500001N9+02901+02021100801ADDAA106000091AG10999GF105991021031008001051041MA1999999097001MD1999999+0201REMSYN011333   58020EQDQ01+999990APOSLP
0115829750999991989012618004-09100-044117FM-12+033199999V0200501N00461007501CN0500001N9+03191+02061100761ADDAA106000091AG10999GF106991051031008001041021MA1999999097001MD1999999+0001REMSYN011333   58000EQDQ01+999990APOSLP
0130829750999991989012712004-09100-044117FM-12+033199999V0201401N00101007501CN0500001N9+02391+02131101201ADDAA124008091AG19019AY161061AY231061GF107991061051008001021041MA1999999097331MD1999999+0041MW1091REMSYN023333   20/// 58004 60084
0096829750999991989012812004-09100-044117FM-12+033199999V0200501N00101007501CN0500001N9+02441+01951101161ADDAA106000091AG10999GF106991061031008001021051MA1999999097301MD1999999-0031REMSYN011333   59003
0115829750999991989012900004-09100-044117FM-12+033199999V0203201N00151220001CN9999999N9+02711+02081100891ADDAA106000091AG10999GF100991001001999999001001KA1240M+03221MA1999999097061MD1999999+0061REMSYN017333   10322 58006
0096829750999991989012912004-09100-044117FM-12+033199999V0201801N00151220001CN0500001N9+02661+02061101181ADDAA106000091AG10999GF103991031021008001031001MA1999999097361MD1999999+0061REMSYN011333   58006
0115829750999991989013000004-09100-044117FM-12+033199999V0209999999999220001CN9999999N9+02711+02031100841ADDAA106000091AG10999GF100991001001999999001001KA1240M+03191MA1999999097031MD1999999-0031REMSYN017333   10319 59003
0102829750999991989013012004-09100-044117FM-12+033199999V0201401N00051220001CN0500001N9+02651+01961101111ADDAA106000091AG10999GF100991001001999999001001MA1999999097291MD1999999-0071REMSYN017333   20/// 59007
0115829750999991989013018004-09100-044117FM-12+033199999V0200501N00261220001CN0500001N9+03301+01681100701ADDAA106000091AG10999GF104991041031008001021031MA1999999096961MD1999999-0201REMSYN011333   59020EQDQ01+999990APOSLP
0115829750999991989013100004-09100-044117FM-12+033199999V0201801N00311220001CN9999999N9+02781+01721100821ADDAA106000091AG10999GF100991001001999999001001KA1240M+03251MA1999999097011MD1999999-0021REMSYN017333   10325 59002
0102829750999991989013112004-09100-044117FM-12+033199999V0201801N00151220001CN0500001N9+02691+01991101131ADDAA106000091AG10999GF100991001001999999001001MA1999999097311MD1999999+0021REMSYN017333   20/// 58002
0115829750999991989020100004-09100-044117FM-12+033199999V0209999999999220001CN9999999N9+03011+01971100791ADDAA106000091AG10999GF100991001001999999001001KA1240M+03451MA1999999097001MD1999999-0011REMSYN017333   10345 59001
0102829750999991989020112004-09100-044117FM-12+033199999V0201401N00151220001CN0500001N9+02791+01911101231ADDAA106000091AG10999GF100991001001999999001001MA1999999097431MD1999999+0121REMSYN017333   20/// 58012
0115829750999991989020118004-09100-044117FM-12+033199999V0201401N00151045001CN0500001N9+03471+01821100711ADDAA106000091AG10999GF105991031041008001031051MA1999999096991MD1999999-0121REMSYN011333   59012EQDQ01+999990APOSLP
0115829750999991989020200004-09100-044117FM-12+033199999V0203601N00151220001CN9999999N9+02701+02081100911ADDAA106000091AG10999GF103991031021008001051011KA1240M+03481MA1999999097101MD1999999+0101REMSYN017333   10348 58010
0102829750999991989020212004-09100-044117FM-12+033199999V0201401N00101220001CN0500001N9+02721+02191101151ADDAA106000091AG10999GF103991021001008001031051MA1999999097331MD1999999-0101REMSYN017333   20/// 59010
0115829750999991989020218004-09100-044117FM-12+033199999V0200501N00461220001CN0500001N9+03181+02011100781ADDAA106000091AG10999GF104991021021008001051041MA1999999097021MD1999999+0031REMSYN011333   58003EQDQ01+999990APOSLP
0143829750999991989020318004-09100-044117FM-12+033199999V0203601N00101007501CN0500001N9+02251+02111101061ADDAA106009091AG10999AY161061AY231061GF107991051061008001081071MA1999999097171MD1999999+0151MW1071REMSYN017333   58015 60091EQDQ01+999990APOSLP
0096829750999991989020412004-09100-044117FM-12+033199999V0201801N00051007501CN0500001N9+02291+02201101421ADDAA106000091AG10999GF107991071051008001021041MA1999999097511MD1999999+0221REMSYN011333   58022
0115829750999991989020418004-09100-044117FM-12+033199999V0200501N00261007501CN0500001N9+02261+02181101311ADDAA106000091AG10999GF107991061041008001031051MA1999999097411MD1999999+0241REMSYN011333   58024EQDQ01+999990APOSLP
0115829750999991989020600004-09100-044117FM-12+033199999V0201801N00151220001CN9999999N9+02391+02281101151ADDAA106000091AG10999GF100991001001999999001001KA1240M+03041MA1999999097281MD1999999-0151REMSYN017333   10304 59015
0102829750999991989020612004-09100-044117FM-12+033199999V0201801N00151220001CN0500001N9+02601+02191101301ADDAA106000091AG10999GF104991021031008001061051MA1999999097441MD1999999-0111REMSYN017333   20/// 59011
0143829750999991989020618004-09100-044117FM-12+033199999V0200901N00101045001CN0500001N9+02601+02311100971ADDAA106003091AG10999AY161061AY231061GF105991021041008001031051MA1999999097131MD1999999-0121MW1071REMSYN017333   59012 60031EQDQ01+999990APOSLP
0142829750999991989020715004-09100-044117FM-12+033199999V0202101N00461003901CN0130001N9-00391+99999102601ADDAG10999AY131031AY231031GA1081+003909099GF108991081091004501999999MA1999999098281MD1210011+9999MW1381REMSYN011333   88913EQDQ01+999990APOSP 
0102829750999991989020812004-09100-044117FM-12+033199999V0200901N00151220001CN0500001N9+02501+02051101201ADDAA106000091AG10999GF104991041021008001041031MA1999999097331MD1999999-0061REMSYN017333   20/// 59006
0115829750999991989021100004-09100-044117FM-12+033199999V0203601N00151045001CN9999999N9+02741+02241101021ADDAA106000091AG10999GF105991031041008001031051KA1240M+03151MA1999999097191MD1999999-0101REMSYN017333   10315 59010
0102829750999991989021112004-09100-044117FM-12+033199999V0201401N00051007501CN0500001N9+02451+02271101281ADDAA106000091AG10999GF107991051041008001051061MA1999999097441MD1999999-0011REMSYN017333   20/// 59001
0115829750999991989021200004-09100-044117FM-12+033199999V0201801N00101007501CN9999999N9+02291+01921101081ADDAA106000091AG10999GF107991071031008001041021KA1240M+02771MA1999999097211MD1999999+0021REMSYN017333   10277 58002
0096829750999991989021212004-09100-044117FM-12+033199999V0201401N00261220001CN0500001N9+02611+02211101291ADDAA106000091AG10999GF103991031021008001021031MA1999999097421MD1999999-0021REMSYN011333   59002
0115829750999991989021418004-09100-044117FM-12+033199999V0200901N00051220001CN0500001N9+03231+01981100481ADDAA106000091AG10999GF103991021031008001021051MA1999999096741MD1999999-0151REMSYN011333   59015EQDQ01+999990APOSLP
0115829750999991989021500004-09100-044117FM-12+033199999V0203201N00261220001CN9999999N9+02681+02131100541ADDAA106000091AG10999GF104991031021008001051041KA1240M+03321MA1999999096751MD1999999-0361REMSYN017333   10332 59036
0130829750999991989021512004-09100-044117FM-12+033199999V0203601N00261045001CN0500001N9+02111+02021101001ADDAA124024091AG10999AY161061AY231061GF107991041051008001061031MA1999999097131MD1999999+0021MW1031REMSYN023333   20/// 58002 60244
0115829750999991989021518004-09100-044117FM-12+033199999V0200501N00151045001CN0500001N9+02601+02141100661ADDAA106000091AG10999GF105991031041008001031051MA1999999096831MD1999999+0091REMSYN011333   58009EQDQ01+999990APOSLP
0115829750999991989021600004-09100-044117FM-12+033199999V0200501N00151045001CN9999999N9+02451+02211100761ADDAA106000091AG10999GF106991041031008001041051KA1240M+02761MA1999999096891MD1999999+0181REMSYN017333   10276 58018
0096829750999991989021612004-09100-044117FM-12+033199999V0201801N00101007501CN0500001N9+02341+02161101171ADDAA106000091AG10999GF105991051031008001041001MA1999999097301MD1999999+0171REMSYN011333   58017
0081829750999991989021718004-09100-044117FM-12+033199999V0200501N00261220001CN0500001N9+03191+01891100761ADDAA106000091AG10999GF104991041031008001041021MA1999999097001EQDQ01+999990APOSLP
0115829750999991989021800004-09100-044117FM-12+033199999V0203201N00051220001CN9999999N9+02761+01961100841ADDAA106000091AG10999GF100991001001999999001001KA1240M+03221MA1999999097011MD1999999+0011REMSYN017333   10322 58001
0096829750999991989021812004-09100-044117FM-12+033199999V0209999999999220001CN0500001N9+02411+02261101201ADDAA106000091AG10999GF103991031001008001031021MA1999999097361MD1999999+0011REMSYN011333   58001
0115829750999991989021900004-09100-044117FM-12+033199999V0203201N00151220001CN9999999N9+02651+02081100911ADDAA106000091AG10999GF100991001001999999001001KA1240M+03211MA1999999097061MD1999999+0051REMSYN017333   10321 58005
0102829750999991989021912004-09100-044117FM-12+033199999V0201801N00151220001CN0500001N9+02571+02001101191ADDAA106000091AG10999GF100991001001999999001001MA1999999097351MD1999999-0011REMSYN017333   20/// 59001
0115829750999991989022100004-09100-044117FM-12+033199999V0200501N00151220001CN9999999N9+03011+01881100821ADDAA106000091AG10999GF103991031031008001001021KA1240M+03151MA1999999097041MD1999999+0041REMSYN017333   10315 58004
0096829750999991989022112004-09100-044117FM-12+033199999V0201801N00051007501CN0500001N9+02511+02211101211ADDAA106000091AG10999GF105991051031008001041021MA1999999097401MD1999999-0051REMSYN011333   59005
0115829750999991989022118004-09100-044117FM-12+033199999V0203201N00151007501CN0500001N9+02781+02281101131ADDAA106000091AG10999GF106991051031008001021041MA1999999097311MD1999999+0151REMSYN011333   58015EQDQ01+999990APOSLP
0124829750999991989022212004-09100-044117FM-12+033199999V0201801N00051007501CN0500001N9+02111+01961101401ADDAA124010091AG10999AY161061AY231061GF106991061041008001021031MA1999999097501MD1999999+0101MW1091REMSYN017333   58010 60104
0115829750999991989022218004-09100-044117FM-12+033199999V0201801N00151007501CN0500001N9+02471+02131101021ADDAA106000091AG10999GF105991051031008001041021MA1999999097161MD1999999-0161REMSYN011333   59016EQDQ01+999990APOSLP
0115829750999991989022300004-09100-044117FM-12+033199999V0203201N00151220001CN9999999N9+02361+02151101011ADDAA106000091AG10999GF103991031021008001031001KA1240M+02721MA1999999097111MD1999999+0101REMSYN017333   10272 58010
0130829750999991989022312004-09100-044117FM-12+033199999V0200501N00101007501CN0500001N9+02191+02101101471ADDAA124006091AG10999AY161061AY231061GF107991061041008001051021MA1999999097571MD1999999+0071MW1091REMSYN023333   20/// 58007 60064
0115829750999991989022400004-09100-044117FM-12+033199999V0203201N00151220001CN9999999N9+02671+02111100971ADDAA106000091AG10999GF100991001001999999001001KA1240M+03051MA1999999097101MD1999999-0011REMSYN017333   10305 59001
0102829750999991989022412004-09100-044117FM-12+033199999V0201401N00151007501CN0500001N9+02581+02251101141ADDAA106000091AG10999GF106991061031008001041021MA1999999097301MD1999999-0271REMSYN017333   20/// 59027
0115829750999991989022418004-09100-044117FM-12+033199999V0200501N00151220001CN0500001N9+02711+02081100981ADDAA106000091AG10999GF104991041031008001001021MA1999999097151MD1999999-0051REMSYN011333   59005EQDQ01+999990APOSLP
0096829750999991989022512004-09100-044117FM-12+033199999V0201801N00151007501CN0500001N9+02411+02131101161ADDAA106000091AG10999GF105991051031008001041021MA1999999097301MD1999999+0001REMSYN011333   58000
0115829750999991989022518004-09100-044117FM-12+033199999V0200501N00151045001CN0500001N9+03121+02081100921ADDAA106000091AG10999GF106991031041008001031051MA1999999097151MD1999999+0001REMSYN011333   58000EQDQ01+999990APOSLP
0115829750999991989022600004-09100-044117FM-12+033199999V0203201N00151220001CN9999999N9+02551+02311101061ADDAA106000091AG10999GF100991001001999999001001KA1240M+03231MA1999999097211MD1999999+0111REMSYN017333   10323 58011
0102829750999991989022612004-09100-044117FM-12+033199999V0201801N00151007501CN0500001N9+02431+02241101161ADDAA106000091AG10999GF106991061041008001021031MA1999999097301MD1999999+0001REMSYN017333   20/// 58000
0115829750999991989022618004-09100-044117FM-12+033199999V0200501N00151007501CN0500001N9+03091+02201100891ADDAA106000091AG10999GF105991051031008001021041MA1999999097111MD1999999-0041REMSYN011333   59004EQDQ01+999990APOSLP
0102829750999991989022712004-09100-044117FM-12+033199999V0200501N00101220001CN9999999N9+02691+02221101331ADDAA106000091AG10999GF104991031021008001051031MA1999999097501MD1999999+0201REMSYN017333   20/// 58020
0115829750999991989022800004-09100-044117FM-12+033199999V0201801N00151220001CN9999999N9+02711+02221101071ADDAA106000091AG10999GF103991021021008001051041KA1240M+02981MA1999999097251MD1999999+0191REMSYN017333   10298 58019
0102829750999991989022812004-09100-044117FM-12+033199999V0203601N00211220001CN0500001N9+02561+02081101101ADDAA106000091AG10999GF102991021001008001031021MA1999999097551MD1999999+0051REMSYN017333   20/// 58005
0115829750999991989022818004-09100-044117FM-12+033199999V0200501N00151220001CN0500001N9+03351+01911100981ADDAA106000091AG10999GF104991041031008001051041MA1999999097231MD1999999-0041REMSYN011333   59004EQDQ01+999990APOSLP
0115829750999991989030100004-09100-044117FM-12+033199999V0202301N00311220001CN9999999N9+02751+02121101081ADDAA106000091AG10999GF103991031021008001051041KA1240M+03321MA1999999097251MD1999999+0001REMSYN017333   10332 58000
0102829750999991989030112004-09100-044117FM-12+033199999V0200901N00151220001CN0500001N9+02751+02101101251ADDAA106000091AG10999GF102991021001008001041021MA1999999097431MD1999999-0121REMSYN017333   20/// 59012
0115829750999991989030118004-09100-044117FM-12+033199999V0200501N00151105001CN0500001N9+03291+01981100721ADDAA106000091AG10999GF105991021021008001041031MA1999999096971MD1999999-0261REMSYN011333   59026EQDQ01+999990APOSLP
0115829750999991989030200004-09100-044117FM-12+033199999V0203601N00151220001CN9999999N9+02781+02091100931ADDAA106000091AG10999GF103991031021008001051041KA1240M+03321MA1999999097161MD1999999-0091REMSYN017333   10332 59009
0102829750999991989030212004-09100-044117FM-12+033199999V0200901N00151045001CN0500001N9+02571+02191101221ADDAA106000091AG10999GF105991031041008001031051MA1999999097321MD1999999-0051REMSYN017333   20/// 59005
0115829750999991989030218004-09100-044117FM-12+033199999V0200501N00151220001CN0500001N9+03181+02041100731ADDAA106000091AG10999GF104991031041008001021051MA1999999096971MD1999999+0001REMSYN011333   58000EQDQ01+999990APOSLP
0115829750999991989030400004-09100-044117FM-12+033199999V0203201N00151220001CN9999999N9+02611+02311100931ADDAA106000091AG10999GF100991001001999999001001KA1240M+03171MA1999999097081MD1999999-0071REMSYN017333   10317 59007
0102829750999991989030412004-09100-044117FM-12+033199999V0200901N00101220001CN0500001N9+02751+02241101151ADDAA106000091AG10999GF103991031021008001051041MA1999999097331MD1999999-0121REMSYN017333   20/// 59012
0115829750999991989030418004-09100-044117FM-12+033199999V0201801N00151007501CN0500001N9+02791+02221100761ADDAA106000091AG10999GF106991061041008001031021MA1999999096951MD1999999+0001REMSYN011333   58000EQDQ01+999990APOSLP
0115829750999991989030500004-09100-044117FM-12+033199999V0203201N00151045001CN9999999N9+02531+02131100841ADDAA106000091AG10999GF106991031041008001031051KA1240M+03111MA1999999097021MD1999999-0061REMSYN017333   10311 59006
0102829750999991989030512004-09100-044117FM-12+033199999V0201801N00261045001CN0500001N9+02601+02231101041ADDAA106000091AG10999GF105991021041008001031051MA1999999097201MD1999999-0131REMSYN017333   20/// 59013
0143829750999991989030518004-09100-044117FM-12+033199999V0200901N00261007501CN0500001N9+02271+02141100881ADDAA106002091AG10999AY161061AY231061GF107991061041008001071061MA1999999097001MD1999999+0051MW1071REMSYN017333   58005 60021EQDQ01+999990APOSLP
0162829750999991989030600004-09100-044117FM-12+033199999V0201401N00151012001CN9999999N9+02171+02011100851ADDAA106005091AG10999AY161061AY231061GF108991999081008001081081KA1240M+02981MA1999999096951MD1999999-0071MW1091REMSYN023333   10298 59007 60051EQDQ01+000082SCOTLC
0115829750999991989030618004-09100-044117FM-12+033199999V0202701N00151105001CN0500001N9+02871+02091100541ADDAA106000091AG10999GF105991021031008001051041MA1999999096751MD1999999-0251REMSYN011333   59025EQDQ01+999990APOSLP
0115829750999991989030700004-09100-044117FM-12+033199999V0203201N00151045001CN9999999N9+02461+02131100811ADDAA106000091AG10999GF106991021041008001031051KA1240M+03051MA1999999096951MD1999999+0001REMSYN017333   10305 58000
0102829750999991989030712004-09100-044117FM-12+033199999V0202301N00051045001CN0500001N9+02351+02181101031ADDAA106000091AG10999GF106991021041008001031051MA1999999097161MD1999999+0021REMSYN017333   20/// 58002
0143829750999991989030718004-09100-044117FM-12+033199999V0203201N00261105001CN0500001N9+02821+02071100591ADDAA106032091AG10999AY161061AY231061GF105991021041008001031031MA1999999096791MD1999999+0041MW1071REMSYN017333   58004 60321EQDQ01+999990APOSLP
0134829750999991989030800004-09100-044117FM-12+033199999V0203201N00151045001CN9999999N9+02561+02251100781ADDAA106000091AG10999GF105991041031008001041051KA1240M+99999MA1999999096931MD1999999-0021REMSYN017333   10203 59002EQDQ01 +02032ATMX  
0108829750999991989030812004-09100-044117FM-12+033199999V0203601N00151105001CN0500001N9+02271+02141101191ADDAA124016091AG10999GF105991021031008001041031MA1999999097221MD1999999+0161REMSYN023333   20/// 58016 60164
0115829750999991989030900004-09100-044117FM-12+033199999V0209999999999045001CN9999999N9+02331+02071101081ADDAA106000091AG10999GF105991031031008001051041KA1240M+02931MA1999999097191MD1999999+0261REMSYN017333   10293 58026
0102829750999991989030912004-09100-044117FM-12+033199999V0201401N00051007501CN0500001N9+02431+02111101211ADDAA106000091AG10999GF105991051041008001021031MA1999999097341MD1999999+0021REMSYN017333   20/// 58002
0143829750999991989030918004-09100-044117FM-12+033199999V0200501N00151007501CN0500001N9+02581+02191100851ADDAA106004091AG10999AY161061AY231061GF106991061031008001051021MA1999999097011MD1999999-0071MW1071REMSYN017333   59007 60041EQDQ01+999990APOSLP
0115829750999991989031000004-09100-044117FM-12+033199999V0203201N00151220001CN9999999N9+02551+02211100861ADDAA106000091AG10999GF104991031021008001041031KA1240M+03101MA1999999097011MD1999999-0081REMSYN017333   10310 59008
0115829750999991989031018004-09100-044117FM-12+033199999V0200501N00151007501CN0500001N9+03221+02111100601ADDAA106000091AG10999GF105991051041008001051031MA1999999096851MD1999999-0161REMSYN011333   59016EQDQ01+999990APOSLP
0115829750999991989031100004-09100-044117FM-12+033199999V0203601N00151045001CN9999999N9+02501+02211100871ADDAA106000091AG10999GF107991031051008001041061KA1240M+03231MA1999999097031MD1999999+0021REMSYN017333   10323 58002
0102829750999991989031112004-09100-044117FM-12+033199999V0200901N00101045001CN0500001N9+02571+02311101181ADDAA106000091AG10999GF107991031041008001021031MA1999999097331MD1999999-0011REMSYN017333   20/// 59001
0115829750999991989031218004-09100-044117FM-12+033199999V0200901N00151220001CN0500001N9+02101+02061100981ADDAA106000091AG10999GF104991031001008001031021MA1999999097081MD1999999-0101REMSYN011333   59010EQDQ01+999990APOSLP
0115829750999991989031300004-09100-044117FM-12+033199999V0203601N00151220001CN9999999N9+02481+02191101071ADDAA106000091AG10999GF100991001001999999001001KA1240M+03151MA1999999097191MD1999999+0041REMSYN017333   10315 58004
0102829750999991989031312004-09100-044117FM-12+033199999V0200901N00151220001CN0500001N9+02471+02231101191ADDAA106000091AG10999GF104991031021008001051031MA1999999097331MD1999999-0101REMSYN017333   20/// 59010
0115829750999991989031400004-09100-044117FM-12+033199999V0203201N00151220001CN9999999N9+02561+02131100931ADDAA106000091AG10999GF100991001001999999001001KA1240M+03161MA1999999097081MD1999999-0111REMSYN017333   10316 59011
0115829750999991989031600004-09100-044117FM-12+033199999V0202301N00051220001CN9999999N9+02351+02171100851ADDAA106000091AG10999GF103991021031008001051061KA1240M+03201MA1999999097001MD1999999+0031REMSYN017333   10320 58003
0130829750999991989031612004-09100-044117FM-12+033199999V0201401N00151045001CN0500001N9+02501+02211101251ADDAA124006091AG10999AY161061AY231061GF105991031041008001031051MA1999999097371MD1999999+0131MW1091REMSYN023333   20/// 58013 60064
0115829750999991989031618004-09100-044117FM-12+033199999V0200901N00261045001CN0500001N9+02961+02151100791ADDAA106000091AG10999GF106991031041008001051031MA1999999097001MD1999999+0111REMSYN011333   58011EQDQ01+999990APOSLP
0143829750999991989031700004-09100-044117FM-12+033199999V0201401N00151105001CN9999999N9+02221+02121101031ADDAA124005091AG10999AY161061AY231061GF105991021031008001051041KA1240M+03021MA1999999097151MD1999999+0151MW1071REMSYN023333   10302 58015 60054
0102829750999991989031712004-09100-044117FM-12+033199999V0201401N00101045001CN0500001N9+02431+02131101191ADDAA106000091AG10999GF105991041031008001051051MA1999999097301MD1999999-0071REMSYN017333   20/// 59007
0115829750999991989031718004-09100-044117FM-12+033199999V0200901N00311220001CN0500001N9+03071+01901100751ADDAA106000091AG10999GF103991031021008001051041MA1999999096981MD1999999-0021REMSYN011333   59002EQDQ01+999990APOSLP
0115829750999991989031800004-09100-044117FM-12+033199999V0200501N00151220001CN0500001N9+02481+02171100931ADDAA106000091AG10999GF102991021001008001041031KA1240M+03091MA1999999097071MD1999999-0081REMSYN017333   10309 59008
0143829750999991989031818004-09100-044117FM-12+033199999V0200501N00571007501CN0500001N9+03191+02041100761ADDAA106004091AG10999AY161061AY231061GF107991051031008001041051MA1999999097001MD1999999+0021MW1071REMSYN017333   58002 60041EQDQ01+999990APOSLP
0115829750999991989031900004-09100-044117FM-12+033199999V0203601N00151220001CN0500001N9+02351+02201101031ADDAA106000091AG10999GF104991031021008001041031KA1240M+03111MA1999999097171MD1999999+0101REMSYN017333   10311 58010
0102829750999991989031912004-09100-044117FM-12+033199999V0200901N00151007501CN0500001N9+02461+02171101321ADDAA106000091AG10999GF106991051041008001051061MA1999999097441MD1999999+0061REMSYN017333   20/// 58006
0115829750999991989031918004-09100-044117FM-12+033199999V0209991C00001220001CN0500001N9+02691+02201100921ADDAA106000091AG10999GF104991021031008001051061MA1999999097091MD1999999+0091REMSYN011333   58009EQDQ01+999990APOSLP
0115829750999991989032000004-09100-044117FM-12+033199999V0203201N00151220001CN9999999N9+02351+02171100981ADDAA106000091AG10999GF100991001001999999001001KA1240M+02781MA1999999097111MD1999999-0061REMSYN017333   10278 59006
0108829750999991989032012004-09100-044117FM-12+033199999V0209991C00001220001CN0200001N9+02591+02081101181ADDAA124010091AG10999GF103991021031008001051091MA1999999097321MD1999999-0121REMSYN023333   20/// 59012 60104
0115829750999991989032018004-09100-044117FM-12+033199999V0200901N00151220001CN0500001N9+03081+02041100711ADDAA106000091AG10999GF104991031021008001031051MA1999999096941MD1999999-0151REMSYN011333   59015EQDQ01+999990APOSLP
0102829750999991989032112004-09100-044117FM-12+033199999V0201401N00151220001CN0500001N9+02681+02181101111ADDAA106000091AG10999GF102991021001008001021041MA1999999097291MD1999999-0031REMSYN017333   20/// 59003
0115829750999991989032400004-09100-044117FM-12+033199999V0202701N00151045001CN9999999N9+02301+02111101051ADDAA106000091AG10999GF106991041021008001051041KA1240M+03061MA1999999097171MD1999999-0151REMSYN017333   10306 59015
0102829750999991989032412004-09100-044117FM-12+033199999V0209991C00001220001CN0500001N9+02621+02051101271ADDAA106000091AG10999GF104991031031008001021051MA1999999097401MD1999999-0061REMSYN017333   20/// 59006
0143829750999991989032418004-09100-044117FM-12+033199999V0203201N00101007501CN0500001N9+02321+02161100911ADDAA106008091AG10999AY161061AY231061GF106991051041008001051041MA1999999097041MD1999999-0011MW1071REMSYN017333   59001 60081EQDQ01+999990APOSLP
0115829750999991989032500004-09100-044117FM-12+033199999V0203601N00151045001CN9999999N9+02251+02091101151ADDAA106000091AG10999GF107991031051008001041061KA1240M+02951MA1999999097291MD1999999+0121REMSYN017333   10295 58012
0102829750999991989032512004-09100-044117FM-12+033199999V0201801N00151007501CN0500001N9+02261+02121101461ADDAA106000091AG10999GF107991051041008001051031MA1999999097551MD1999999+0151REMSYN017333   20/// 58015
0115829750999991989032518004-09100-044117FM-12+033199999V0201401N00261045001CN0500001N9+02561+02191101021ADDAA106000091AG10999GF106991031021008001051041MA1999999097171MD1999999+0131REMSYN011333   58013EQDQ01+999990APOSLP
0115829750999991989032900004-09100-044117FM-12+033199999V0203601N00151007501CN9999999N9+02461+02231101161ADDAA106000091AG10999GF106991061041008001031061KA1240M+03031MA1999999097301MD1999999-0021REMSYN017333   10303 59002
0130829750999991989032912004-09100-044117FM-12+033199999V0200901N00051045001CN0500001N9+02421+02151101411ADDAA124002091AG10999AY161061AY231061GF105991031041008001031021MA1999999097541MD1999999-0061MW1071REMSYN023333   20/// 59006 60024
0115829750999991989032918004-09100-044117FM-12+033199999V0201401N00151045001CN0500001N9+03071+01961100871ADDAA106000091AG10999GF105991041051008001031061MA1999999097091MD1999999-0091REMSYN011333   59009EQDQ01+999990APOSLP
0115829750999991989033000004-09100-044117FM-12+033199999V0201801N00151007501CN9999999N9+02651+02161101041ADDAA106000091AG10999GF107991051041008001051061KA1240M+03101MA1999999097181MD1999999-0121REMSYN017333   10310 59012
0096829750999991989033012004-09100-044117FM-12+033199999V0201801N00101004201CN0500001N9+02351+02031101361ADDAA106000091AG10999GF106991061041004501031051MA1999999097501MD1999999-0041REMSYN011333   59004
0115829750999991989033118004-09100-044117FM-12+033199999V0202301N00411045001CN0500001N9+02841+02191100871ADDAA106000091AG10999GF105991041031008001051021MA1999999097061MD1999999-0041REMSYN011333   59004EQDQ01+999990APOSLP
0115829750999991989040100004-09100-044117FM-12+033199999V0203201N00051220001CN9999999N9+02891+02101100931ADDAA106000091AG10999GF100991001001999999001001KA1240M+03111MA1999999097111MD1999999-0021REMSYN017333   10311 59002
0102829750999991989040112004-09100-044117FM-12+033199999V0209999999999220001CN0500001N9+02451+02111101401ADDAA106000091AG10999GF100991001001999999001001MA1999999097561MD1999999+0061REMSYN017333   20/// 58006
0096829750999991989040212004-09100-044117FM-12+033199999V0200501N00051007501CN0500001N9+02391+02171101361ADDAA106000091AG10999GF106991061041008001031041MA1999999097501MD1999999-0061REMSYN011333   59006
0115829750999991989040218004-09100-044117FM-12+033199999V0201801N00311220001CN0500001N9+03111+02001100701ADDAA106000091AG10999GF103991031021008001001031MA1999999096941MD1999999-0101REMSYN011333   59010EQDQ01+999990APOSLP
0115829750999991989040400004-09100-044117FM-12+033199999V0201801N00151220001CN9999999N9+02581+02001100781ADDAA106000091AG10999GF100991001001999999001001KA1240M+03591MA1999999096951MD1999999-0201REMSYN017333   10359 59020
0102829750999991989040412004-09100-044117FM-12+033199999V0201801N00101220001CN0500001N9+02581+02231101861ADDAA106000091AG10999GF103991021021008001001041MA1999999097301MD1999999-0141REMSYN017333   20/// 59014
0115829750999991989040500004-09100-044117FM-12+033199999V0200501N00151220001CN9999999N9+02791+02061100821ADDAA106000091AG10999GF100991001001999999001001KA1240M+03171MA1999999097001MD1999999+0051REMSYN017333   10317 58005
0124829750999991989040512004-09100-044117FM-12+033199999V0200501N00101007501CN0200001N9+02451+02191101351ADDAA124030091AG10999AY161061AY231061GF107991061051008001041021MA1999999097501MD1999999+0201MW1091REMSYN017333   58020 60304
0115829750999991989040600004-09100-044117FM-12+033199999V0200501N00151220001CN9999999N9+02471+02321101061ADDAA106000091AG10999GF100991001001999999001001KA1240M+02931MA1999999097501MD1999999+0211REMSYN017333   10293 58021
0096829750999991989040612004-09100-044117FM-12+033199999V0209999999999220001CN0500001N9+02491+02191101361ADDAA106000091AG10999GF103991031031008001001021MA1999999097501MD1999999+0001REMSYN011333   58000
0096829750999991989040712004-09100-044117FM-12+033199999V0209999999999007501CN0500001N9+02551+02111101251ADDAA106000091AG10999GF105991051031008001021031MA1999999097411MD1999999-0091REMSYN011333   59009
0102829750999991989040812004-09100-044117FM-12+033199999V0209999999999007501CN0500001N9+02551+02291101171ADDAA106000091AG10999GF106991061031008001021051MA1999999097351MD1999999-0061REMSYN017333   20/// 59006
0115829750999991989041000004-09100-044117FM-12+033199999V0209999999999220001CN9999999N9+02531+02271101001ADDAA106000091AG10999GF103991031021008001001031KA1240M+02891MA1999999097161MD1999999+0161REMSYN017333   10289 58016
0102829750999991989041012004-09100-044117FM-12+033199999V0209999999999220001CN0500001N9+02661+02161101251ADDAA106000091AG10999GF104991021041008001031021MA1999999097391MD1999999+0091REMSYN017333   20/// 58009
0115829750999991989041018004-09100-044117FM-12+033199999V0209999999999220001CN0500001N9+03071+02111100781ADDAA106000091AG10999GF104991031031008001051041MA1999999097021MD1999999-0041REMSYN011333   59004EQDQ01+999990APOSLP
0115829750999991989041118004-09100-044117FM-12+033199999V0209999999999105001CN0500001N9+02951+02171100681ADDAA106000091AG10999GF105991021031008001051041MA1999999096911MD1999999-0111REMSYN011333   59011EQDQ01+999990APOSLP
0143829750999991989041200004-09100-044117FM-12+033199999V0209999999999220001CN9999999N9+02351+02221101001ADDAA106010091AG10999AY161061AY231061GF104991021021008001051031KA1240M+03061MA1999999097131MD1999999+0081MW1071REMSYN023333   10306 58008 60101
0108829750999991989041212004-09100-044117FM-12+033199999V0209999999999045001CN0500001N9+02481+02211101271ADDAA106010091AG10999GF106991031061008001041031MA1999999097391MD1999999-0011REMSYN023333   20/// 59001 60101
0115829750999991989041300004-09100-044117FM-12+033199999V0200901N00051220001CN9999999N9+02621+02331100951ADDAA106000091AG10999GF100991001001999999001001KA1240M+03101MA1999999097111MD1999999-0021REMSYN017333   10310 59002
0102829750999991989041312004-09100-044117FM-12+033199999V0209999999999220001CN0500001N9+02621+02181101181ADDAA106000091AG10999GF102991021001008001021051MA1999999097341MD1999999-0051REMSYN017333   20/// 59005
0115829750999991989041318004-09100-044117FM-12+033199999V0200901N00151105001CN0500001N9+03121+02141100651ADDAA106000091AG10999GF105991021031008001041031MA1999999096901MD1999999-0071REMSYN011333   59007EQDQ01+999990APOSLP
0115829750999991989041418004-09100-044117FM-12+033199999V0200901N00151045001CN0500001N9+03171+02081100641ADDAA106000091AG10999GF105991021031008001061051MA1999999096891MD1999999-0011REMSYN011333   59001EQDQ01+999990APOSLP
0102829750999991989041512004-09100-044117FM-12+033199999V0200501N00151220001CN0500001N9+02561+02041101331ADDAA106000091AG10999GF103991021021008001031051MA1999999097471MD1999999+0181REMSYN017333   20/// 58018
0115829750999991989041518004-09100-044117FM-12+033199999V0200501N00151220001CN0500001N9+03161+02081100781ADDAA106000091AG10999GF103991021031008001021051MA1999999097031MD1999999+0151REMSYN011333   58015EQDQ01+999990APOSLP
0115829750999991989041600004-09100-044117FM-12+033199999V0203201N00151007501CN9999999N9+02631+02271101041ADDAA106000091AG10999GF106991051031008001041061KA1240M+03581MA1999999097201MD1999999+0201REMSYN017333   10358 58020
0130829750999991989041612004-09100-044117FM-12+033199999V0201801N00151007501CN0500001N9+02551+02191101311ADDAA124002091AG10999AY161061AY231061GF106991061031008001021041MA1999999097461MD1999999-0011MW1091REMSYN023333   20/// 59001 60024
0115829750999991989041700004-09100-044117FM-12+033199999V0203201N00151007501CN9999999N9+02611+02081100931ADDAA106000091AG10999GF107991071041008001031021KA1240M+03051MA1999999097101MD1999999-0101REMSYN017333   10305 59010
0124829750999991989041712004-09100-044117FM-12+033199999V0201801N00101007501CN0500001N9+02351+02051101261ADDAA124032091AG10999AY161061AY231061GF106991061041008001031021MA1999999097401MD1999999-0061MW1091REMSYN017333   59006 60324
0115829750999991989041718004-09100-044117FM-12+033199999V0201801N00151007501CN0500001N9+03011+02221100731ADDAA106000091AG10999GF105991051031008001021041MA1999999096961MD1999999-0191REMSYN011333   59019EQDQ01+999990APOSLP
0130829750999991989041812004-09100-044117FM-12+033199999V0201801N00151007501CN0500001N9+02311+02181101161ADDAA124010091AG10999AY161061AY231061GF107991071051008001041021MA1999999097301MD1999999-0101MW1091REMSYN023333   20/// 59010 60104
0143829750999991989041900004-09100-044117FM-12+033199999V0203201N00151007501CN9999999N9+02241+02061100991ADDAA106039091AG10999AY161061AY231061GF107991071051008001021031KA1240M+03061MA1999999097111MD1999999+0101MW1071REMSYN023333   10306 58010 60391
0130829750999991989041912004-09100-044117FM-12+033199999V0201801N00151220001CN0500001N9+02421+02261101171ADDAA199043091AG10999AY161061AY231061GF104991041021008001031001MA1999999097301MD1999999+0001MW1091REMSYN023333   20/// 58000 60430
0115829750999991989041918004-09100-044117FM-12+033199999V0200501N00101220001CN0500001N9+03011+02221100711ADDAA106000091AG10999GF103991031001008001031021MA1999999096941MD1999999-0011REMSYN011333   59001EQDQ01+999990APOSLP
0115829750999991989042018004-09100-044117FM-12+033199999V0200501N00151220001CN0500001N9+03001+02291100671ADDAA106000091AG10999GF104991041021008001031001MA1999999096901MD1999999-0051REMSYN011333   59005EQDQ01+999990APOSLP
0115829750999991989042100004-09100-044117FM-12+033199999V0203201N00101220001CN9999999N9+02931+02101100761ADDAA106000091AG10999GF100991001001999999001001KA1240M+03191MA1999999096961MD1999999-0011REMSYN017333   10319 59001
0102829750999991989042112004-09100-044117FM-12+033199999V0201701N00101007501CN0500001N9+02641+02191101111ADDAA106000091AG10999GF105991051021008001031021MA1999999097301MD1999999+0081REMSYN017333   20/// 58008
0143829750999991989042218004-09100-044117FM-12+033199999V0203201N00101007501CN0500001N9+02611+02271101031ADDAA106008091AG10999AY161061AY231061GF106991061031008001041021MA1999999097201MD1999999+0201MW1071REMSYN017333   58020 60081EQDQ01+999990APOSLP
0115829750999991989042418004-09100-044117FM-12+033199999V0202301N00261045001CN0500001N9+02851+02221100841ADDAA106000091AG10999GF105991021041008001031051MA1999999097051MD1999999-0051REMSYN011333   59005EQDQ01+999990APOSLP
0115829750999991989042518004-09100-044117FM-12+033199999V0201801N00261220001CN0500001N9+02851+02191100821ADDAA106000091AG10999GF104991021001008001031041MA1999999097031MD1999999-0021REMSYN011333   59002EQDQ01+999990APOSLP
0115829750999991989042618004-09100-044117FM-12+033199999V0201401N00101220001CN0500001N9+03061+02051100781ADDAA106000091AG10999GF104991031021008001041051MA1999999097021MD1999999-0051REMSYN011333   59005EQDQ01+999990APOSLP
0115829750999991989042818004-09100-044117FM-12+033199999V0200901N00151045001CN0500001N9+03101+02231100751ADDAA106000091AG10999GF105991021041008001031051MA1999999096991MD1999999+0051REMSYN011333   58005EQDQ01+999990APOSLP
0115829750999991989042900004-09100-044117FM-12+033199999V0203201N00051220001CN9999999N9+02731+02121100931ADDAA106000091AG10999GF100991001001999999001001KA1240M+03141MA1999999097111MD1999999+0011REMSYN017333   10314 58001
0096829750999991989042912004-09100-044117FM-12+033199999V0209999999999007501CN0500001N9+02541+02191101311ADDAA106000091AG10999GF105991051031008001021041MA1999999097461MD1999999+0111REMSYN011333   58011
0115829750999991989050300004-09100-044117FM-12+033199999V0203201N00101220001CN9999999N9+02611+02371100891ADDAA106000091AG10999GF100991001001999999001001KA1240M+03191MA1999999100001MD1999999-0091REMSYN017333   10319 59009
0115829750999991989050312004-09100-044117FM-12+033199999V0203201N00101220001CN9999999N9+02611+02371100891ADDAA106000091AG10999GF100991001001999999001001KA1240M+03191MA1999999100001MD1999999-0091REMSYN017333   10319 59009
0143829750999991989050318004-09100-044117FM-12+033199999V0200501N00261007501CN0500001N9+03021+02221999999ADDAA106004091AG10999AY161061AY231061GF105991051031008001021041MA1999999096972MD1999999-0141MW1071REMSYN017333   59014 60041EQDQ01+096973APOSP 
0115829750999991989050400004-09100-044117FM-12+033199999V0200501N00151220001CN0500001N9+02611+02271100841ADDAA106000091AG10999GF100991001001999999001001KA1240M+03121MA1999999097011MD1999999-0031REMSYN017333   10312 59003
0130829750999991989050412004-09100-044117FM-12+033199999V0203201N00101007501CN0500001N9+02411+02171101201ADDAA124036091AG10999AY161061AY221061GF106991061031008001021041MA1999999097241MD1999999-0021MW1091REMSYN023333   20/// 59002 60364
0087829750999991989050418004-09100-044117FM-12+033199999V0201801N00151220001CN0500001N9+02531+02321999999ADDAA106013091AG19019GF104991041031008001001041MD1999999+0151REMSYN017333   58015 60131
0102829750999991989050512004-09100-044117FM-12+033199999V0203201N00101007501CN0500001N9+02211+02081101331ADDAA124052091AG19019GF107991071041008001031041MA1999999097441MD1999999+0101REMSYN017333   58010 60524
0115829750999991989050518004-09100-044117FM-12+033199999V0200501N00151220001CN0500001N9+02751+02131101011ADDAA106000091AG10999GF103991031021008001001031MA1999999097191MD1999999+0141REMSYN011333   58014EQDQ01+999990APOSLP
0115829750999991989050618004-09100-044117FM-12+033199999V0200501N00151220001CN0500001N9+03111+02031100911ADDAA106000091AG10999GF102991021011008001001021MA1999999097141MD1999999-0051REMSYN011333   59005EQDQ01+999990APOSLP
0115829750999991989050818004-09100-044117FM-12+033199999V0200501N00151105001CN0500001N9+02901+02341100941ADDAA106000091AG10999GF105991021031008001051041MA1999999097141MD1999999+0001REMSYN011333   58000EQDQ01+999990APOSLP
0115829750999991989050900004-09100-044117FM-12+033199999V0209999999999220001CN9999999N9+02521+02361101151ADDAA106000091AG10999GF103991021021008001051031KA1240M+02951MA1999999097301MD1999999+0091REMSYN017333   10295 58009
0130829750999991989050912004-09100-044117FM-12+033199999V0200501N00261007501CN0500001N9+02101+02001101521ADDAA124038091AG10999AY161061AY231061GF107991061051008001041061MA1999999097621MD1999999+0171MW1071REMSYN023333   20/// 58017 60384
0143829750999991989050918004-09100-044117FM-12+033199999V0200501N00151007501CN0500001N9+02351+02031101301ADDAA106011091AG10999AY161061AY231061GF107991051041008001051061MA1999999097421MD1999999+0281MW1091REMSYN017333   58028 60111EQDQ01+999990APOSLP
0115829750999991989051000004-09100-044117FM-12+033199999V0209999999999220001CN9999999N9+02221+02011101321ADDAA106000091AG10999GF103991031051008001031041KA1240M+02501MA1999999097401MD1999999+0101REMSYN017333   10250 58010
0115829750999991989051100004-09100-044117FM-12+033199999V0200501N00101220001CN9999999N9+02581+02121101311ADDAA106000091AG10999GF104991041021008001051061KA1240M+02881MA1999999097451MD1999999+0051REMSYN017333   10288 58005
0115829750999991989051118004-09100-044117FM-12+033199999V0200901N00261007501CN0500001N9+02751+01891101281ADDAA106000091AG10999GF106991051041008001051061MA1999999097451MD1999999+0101REMSYN011333   58010EQDQ01+999990APOSLP
0104829750999991989051218004-09100-044117FM-12+033199999V0201401N00311045001CN0500001N9+02861+01921101221ADDAG10999GF105991021041008001031051MA1999999097401MD1999999-0051REMSYN011333   59005EQDQ01+999990APOSLP
0115829750999991989051518004-09100-044117FM-12+033199999V0201401N00151220001CN0500001N9+03041+01841101191ADDAA106000091AG10999GF103991031021008001001041MA1999999097401MD1999999+0131REMSYN011333   58013EQDQ01+999990APOSLP
0115829750999991989051618004-09100-044117FM-12+033199999V0200901N00101220001CN0500001N9+02911+01871101221ADDAA106000091AG10999GF102991021011008001001021MA1999999097411MD1999999+0011REMSYN011333   58001EQDQ01+999990APOSLP
0115829750999991989051700004-09100-044117FM-12+033199999V0203201N00101220001CN9999999N9+02431+01841101381ADDAA106000091AG10999GF100991001001999999001001KA1240M+02911MA1999999097501MD1999999+0011REMSYN017333   10291 58001
0102829750999991989051712004-09100-044117FM-12+033199999V0201801N00151220001CN0500001N9+02231+01741101651ADDAA106000091AG10999GF100991001001999999001001MA1999999097751MD1999999+0041REMSYN017333   20/// 58004
0115829750999991989051800004-09100-044117FM-12+033199999V0202301N00151220001CN9999999N9+02451+02031101411ADDAA106000091AG10999GF100991001001999999001001KA1240M+03191MA1999999097511MD1999999+0011REMSYN017333   10319 58001
0102829750999991989051812004-09100-044117FM-12+033199999V0201801N00151220001CN0500001N9+02461+01941101631ADDAA106000091AG10999GF102991021001008001041021MA1999999097751MD1999999+0001REMSYN017333   20/// 58000
0115829750999991989051818004-09100-044117FM-12+033199999V0200901N00151220001CN0500001N9+02961+01901101201ADDAA106000091AG10999GF104991031041008001031051MA1999999097401MD1999999-0031REMSYN011333   59003EQDQ01+999990APOSLP
0115829750999991989051900004-09100-044117FM-12+033199999V0200501N00051220001CN9999999N9+02331+02001101401ADDAA106000091AG10999GF100991001001999999001001KA1240M+03021MA1999999097521MD1999999+0011REMSYN017333   10302 58001
0115829750999991989051918004-09100-044117FM-12+033199999V0200901N00151220001CN0500001N9+03061+01931101181ADDAA106000091AG10999GF104991031041008001031051MA1999999097391MD1999999-0011REMSYN011333   59001EQDQ01+999990APOSLP
0102829750999991989052012004-09100-044117FM-12+033199999V0201801N00261220001CN0500001N9+02451+01771101591ADDAA106000091AG10999GF102991021001008001021031MA1999999097721MD1999999+0061REMSYN017333   20/// 58006
0115829750999991989052100004-09100-044117FM-12+033199999V0201801N00151220001CN9999999N9+02411+01931101431ADDAA106000091AG10999GF100991001001999999001001KA1240M+02891MA1999999097551MD1999999+0041REMSYN017333   10289 58004
0102829750999991989052112004-09100-044117FM-12+033199999V0201801N00151220001CN0500001N9+02521+01891101651ADDAA106000091AG10999GF100991001001999999001001MA1999999097781MD1999999+0061REMSYN017333   20/// 58006
0115829750999991989052200004-09100-044117FM-12+033199999V0201801N00151220001CN9999999N9+02511+02051101361ADDAA106000091AG10999GF100991001001999999001001KA1240M+03921MA1999999097501MD1999999-0051REMSYN017333   10392 59005
0102829750999991989052212004-09100-044117FM-12+033199999V0201801N00151220001CN0500001N9+02491+01911101591ADDAA106000091AG10999GF104991041021008001001041MA1999999097701MD1999999-0081REMSYN017333   20/// 59008
0115829750999991989052218004-09100-044117FM-12+033199999V0201801N00151220001CN0500001N9+02931+01871101161ADDAA106000091AG10999GF104991041031008001021001MA1999999097351MD1999999-0161REMSYN011333   59016EQDQ01+999990APOSLP
0096829750999991989052312004-09100-044117FM-12+033199999V0201401N00101220001CN0500001N9+02491+01941101361ADDAA106000091AG10999GF100991001001999999001001MA1999999097501MD1999999-0201REMSYN011333   59020
0115829750999991989052318004-09100-044117FM-12+033199999V0201801N00101007501CN0500001N9+02951+01871101051ADDAA106000091AG10999GF105991051031008001021041MA1999999097251MD1999999-0101REMSYN011333   59010EQDQ01+999990APOSLP
0115829750999991989052400004-09100-044117FM-12+033199999V0201801N00051007501CN9999999N9+02691+01991101191ADDAA106000091AG10999GF105991051041008001001021KA1240M+03031MA1999999097351MD1999999-0061REMSYN017333   10303 59006
0102829750999991989052412004-09100-044117FM-12+033199999V0201801N00051220001CN0500001N9+02531+01981101401ADDAA106000091AG10999GF100991001001999999001001MA1999999097551MD1999999+0061REMSYN017333   20/// 58006
0115829750999991989052418004-09100-044117FM-12+033199999V0201801N00101220001CN0500001N9+03051+01911101051ADDAA106000091AG10999GF103991031021008001041001MA1999999097261MD1999999+0011REMSYN011333   58001EQDQ01+999990APOSLP
0115829750999991989052500004-09100-044117FM-12+033199999V0201801N00051220001CN9999999N9+02561+02101101151ADDAA106000091AG10999GF100991001001999999001001KA1240M+03111MA1999999097291MD1999999-0061REMSYN017333   10311 59006
0102829750999991989052512004-09100-044117FM-12+033199999V0201801N00051220001CN0500001N9+02441+01841101471ADDAA106000091AG10999GF100991001001999999001001MA1999999097601MD1999999+0041REMSYN017333   20/// 58004
0115829750999991989052600004-09100-044117FM-12+033199999V0203201N00151220001CN9999999N9+02611+02061101171ADDAA106000091AG10999GF100991001001999999001001KA1240M+03171MA1999999097311MD1999999+0021REMSYN017333   10317 58002
0102829750999991989052612004-09100-044117FM-12+033199999V0201801N00151220001CN0500001N9+02331+02051101361ADDAA106000091AG10999GF100991001001999999001001MA1999999097501MD1999999-0101REMSYN017333   20/// 59010
0115829750999991989052618004-09100-044117FM-12+033199999V0200501N00051007501CN0500001N9+02991+02051101101ADDAA106000091AG10999GF106991051031008001041021MA1999999097301MD1999999-0101REMSYN011333   59010EQDQ01+999990APOSLP
0102829750999991989052712004-09100-044117FM-12+033199999V0200501N00101220001CN0500001N9+02651+01221101361ADDAA106000091AG10999GF100991001001999999001001MA1999999097541MD1999999+0041REMSYN017333   20/// 58004
0115829750999991989052800004-09100-044117FM-12+033199999V0209999999999220001CN9999999N9+02741+02061101031ADDAA106000091AG10999GF100991001001999999001001KA1240M+03121MA1999999097211MD1999999-0171REMSYN017333   10312 59017
0096829750999991989052812004-09100-044117FM-12+033199999V0209999999999007501CN0500001N9+02391+02131101451ADDAA106000091AG10999GF105991051031008001041021MA1999999097601MD1999999+0061REMSYN011333   58006
0115829750999991989052900004-09100-044117FM-12+033199999V0201801N00151220001CN9999999N9+02511+02211101171ADDAA106000091AG10999GF100991001001999999001001KA1240M+02921MA1999999097311MD1999999+0101REMSYN017333   10292 58010
0102829750999991989052912004-09100-044117FM-12+033199999V0200501N00101007501CN0500001N9+02311+02111101421ADDAA106000091AG10999GF106991061041008001031021MA1999999097541MD1999999-0061REMSYN017333   20/// 59006
0115829750999991989052918004-09100-044117FM-12+033199999V0200501N00151220001CN0500001N9+02951+02201101151ADDAA106000091AG10999GF104991041031008001041001MA1999999097351MD1999999+0071REMSYN011333   58007EQDQ01+999990APOSLP
0115829750999991989053000004-09100-044117FM-12+033199999V0200501N00051220001CN9999999N9+02541+02051101201ADDAA106000091AG10999GF100991001001999999001001KA1240M+03131MA1999999097361MD1999999+0051REMSYN017333   10313 58005
0102829750999991989053012004-09100-044117FM-12+033199999V0201801N00051220001CN0500001N9+02511+02091101481ADDAA106000091AG10999GF100991001001999999001001MA1999999097611MD1999999+0071REMSYN017333   20/// 58007
0115829750999991989053018004-09100-044117FM-12+033199999V0201401N00051220001CN0500001N9+03181+02091101011ADDAA106000091AG10999GF103991031021008001031001MA1999999097241MD1999999-0111REMSYN011333   59011EQDQ01+999990APOSLP
0115829750999991989053118004-09100-044117FM-12+033199999V0201401N00151007501CN0500001N9+03171+02031101071ADDAA106000091AG10999GF105991051021008001031021MA1999999097301MD1999999+0061REMSYN011333   58006EQDQ01+999990APOSLP
0115829750999991989060100004-09100-044117FM-12+033199999V0201801N00151220001CN9999999N9+02551+02071101251ADDAA106000091AG10999GF100991001001999999001001KA1240M+03221MA1999999097411MD1999999+0101REMSYN017333   10322 58010
0102829750999991989060112004-09100-044117FM-12+033199999V0201801N00261220001CN0500001N9+02471+01871101581ADDAA106000091AG10999GF100991001001999999001001MA1999999097711MD1999999+0051REMSYN017333   20/// 58005
0081829750999991989060118004-09100-044117FM-12+033199999V0200501N001019999999N0500001N9+02891+02101999999ADDAA106000091AG10999GF107991999999008001999999MA1999999094102EQDQ01+094103APOSP 
0062829750999991989060212004-09100-044117FM-12+033199999V0201801N00151007501CN0500001N9+02411+01931101571ADDAA106000091AG10999GF107991071041008001031021MA1999999097701
0115829750999991989060218004-09100-044117FM-12+033199999V0200501N00151007501CN0500001N9+02811+02031101221ADDAA106000091AG10999GF105991051031008001041021MA1999999097411MD1999999+0001REMSYN011333   58000EQDQ01+999990APOSLP
0115829750999991989060300004-09100-044117FM-12+033199999V0201801N00101220001CN9999999N9+02631+02061101311ADDAA106000091AG10999GF104991041031008001021001KA1240M+02971MA1999999097451MD1999999-0041REMSYN017333   10297 59004
0102829750999991989060312004-09100-044117FM-12+033199999V0200501N00151007501CN0500001N9+02511+02051101411ADDAA106000091AG10999GF105991051041008001021031MA1999999097561MD1999999-0141REMSYN017333   20/// 59014
0102829750999991989060512004-09100-044117FM-12+033199999V0200501N00261220001CN0500001N9+02601+01891101491ADDAA106000091AG10999GF102991021001008001021031MA1999999097631MD1999999+0171REMSYN017333   20/// 58017
0115829750999991989060518004-09100-044117FM-12+033199999V0200901N00151220001CN0200001N9+03091+01851100971ADDAA106000091AG10999GF104991021041008001031051MA1999999097201MD1999999-0071REMSYN011333   59007EQDQ01+999990APOSLP
0102829750999991989060612004-09100-044117FM-12+033199999V0201801N003119999999N0500001N9+02401+01751101481ADDAA106000091AG10999GF105991031001008001041031MA1999999097601MD1999999-0031REMSYN017333   20/// 59003
0115829750999991989060618004-09100-044117FM-12+033199999V0201401N00151220001CN0500001N9+03051+01711100961ADDAA106000091AG10999GF102991021001008001031041MA1999999097191MD1999999-0081REMSYN011333   59008EQDQ01+999990APOSLP
0115829750999991989060700004-09100-044117FM-12+033199999V0201401N00151220001CN9999999N9+02551+01861101101ADDAA106000091AG10999GF100991001001999999001001KA1240M+03101MA1999999097251MD1999999-0051REMSYN017333   10310 59005
0102829750999991989060712004-09100-044117FM-12+033199999V0201801N00261220001CN0500001N9+02401+01821101481ADDAA106000091AG10999GF103991021001008001041051MA1999999097601MD1999999+0001REMSYN017333   20/// 58000
0115829750999991989060800004-09100-044117FM-12+033199999V0201401N00151220001CN9999999N9+02451+01881101171ADDAA106000091AG10999GF100991001001999999001001KA1240M+03121MA1999999097301MD1999999+0051REMSYN017333   10312 58005
0102829750999991989060812004-09100-044117FM-12+033199999V0202301N00151220001CN0200001N9+02451+01861101481ADDAA106000091AG10999GF103991031001008001031011MA1999999097601MD1999999+0001REMSYN017333   20/// 58000
0115829750999991989060900004-09100-044117FM-12+033199999V0209999999999220001CN9999999N9+02651+01801101281ADDAA106000091AG10999GF102991021001008001041031KA1240M+03101MA1999999097431MD1999999+0131REMSYN017333   10310 58013
0102829750999991989060912004-09100-044117FM-12+033199999V0201401N00101220001CN0500001N9+02551+01911101411ADDAA106000091AG10999GF100991001001999999001001MA1999999097651MD1999999+0051REMSYN017333   20/// 58005
0115829750999991989060918004-09100-044117FM-12+033199999V0209999999999220001CN0500001N9+03241+01961101001ADDAA106000091AG10999GF104991021031008001041021MA1999999097251MD1999999-0041REMSYN011333   59004EQDQ01+999990APOSLP
0115829750999991989061000004-09100-044117FM-12+033199999V0203201N00101220001CN9999999N9+02501+02111101161ADDAA106000091AG10999GF104991021041008001031051KA1240M+03301MA1999999097301MD1999999-0131REMSYN017333   10330 59013
0102829750999991989061012004-09100-044117FM-12+033199999V0201401N00101220001CN0500001N9+02651+02031101511ADDAA106000091AG10999GF100991001001999999001001MA1999999097651MD1999999+0001REMSYN017333   20/// 58000
0115829750999991989061100004-09100-044117FM-12+033199999V0200901N00101220001CN9999999N9+02691+01991101121ADDAA106000091AG10999GF100991001001999999001001KA1240M+03341MA1999999097291MD1999999-0011REMSYN017333   10334 59001
0102829750999991989061112004-09100-044117FM-12+033199999V0201801N00101220001CN0500001N9+02491+01911101511ADDAA106000091AG10999GF103991021001008001031051MA1999999097651MD1999999+0001REMSYN017333   20/// 58000
0115829750999991989061218004-09100-044117FM-12+033199999V0203601N00151220001CN0500001N9+03131+01901101131ADDAA106000091AG10999GF103991031021008001001031MA1999999097361MD1999999+0111REMSYN011333   58011EQDQ01+999990APOSLP
0101829750999991989061300004-09100-044117FM-12+033199999V0201801N00101220001CN9999999N9+02591+02011101311ADDAA106000091AG10999GF100991001001999999001001KA1240M+03191MA1999999097451REMSYN017333   10319 57006
0102829750999991989061312004-09100-044117FM-12+033199999V0209999999999220001CN0500001N9+02431+02051101571ADDAA106000091AG10999GF100991001001999999001001MA1999999097701MD1999999+0051REMSYN017333   20/// 58005
0115829750999991989061318004-09100-044117FM-12+033199999V0201401N00101220001CN0500001N9+03231+01891101041ADDAA106000091AG10999GF103991031021008001001031MA1999999097291MD1999999-0071REMSYN011333   59007EQDQ01+999990APOSLP
0115829750999991989061500004-09100-044117FM-12+033199999V0201801N00101220001CN9999999N9+02751+01951101231ADDAA106000091AG10999GF100991001001999999001001KA1240M+03141MA1999999097391MD1999999+0021REMSYN017333   10314 58002
0102829750999991989061512004-09100-044117FM-12+033199999V0201801N00311220001CN0500001N9+02351+01601101671ADDAA106000091AG10999GF100991001001999999001001MA1999999097801MD1999999+0141REMSYN017333   20/// 58014
0115829750999991989061600004-09100-044117FM-12+033199999V0201801N00151220001CN9999999N9+02481+01651101371ADDAA106000091AG10999GF100991001001999999001001KA1240M+03121MA1999999097491MD1999999+0101REMSYN017333   10312 58010
0096829750999991989061612004-09100-044117FM-12+033199999V0200901N00151220001CN0500001N9+02261+01591101731ADDAA106000091AG10999GF102991021001008001041021MA1999999097841MD1999999+0041REMSYN011333   58004
0115829750999991989062100004-09100-044117FM-12+033199999V0203601N00101007501CN9999999N9+02791+02061101241ADDAA106000091AG10999GF106991051041008001031051KA1240M+03261MA1999999097401MD1999999+0021REMSYN017333   10326 58002
0102829750999991989062112004-09100-044117FM-12+033199999V0200901N00151220001CN0500001N9+02671+01871101531ADDAA106000091AG10999GF103991021001008001031051MA1999999097701MD1999999+0031REMSYN017333   20/// 58003
0115829750999991989062118004-09100-044117FM-12+033199999V0200901N00151045001CN0500001N9+03131+01851101091ADDAA106000091AG10999GF105991031041008001031021MA1999999097321MD1999999-0141REMSYN011333   59014EQDQ01+999990APOSLP
0115829750999991989062200004-09100-044117FM-12+033199999V0201801N00151220001CN9999999N9+02801+01921101141ADDAA106000091AG10999GF103991021021008001051041KA1240M+03231MA1999999097321MD1999999-0081REMSYN017333   10323 59008
0102829750999991989062212004-09100-044117FM-12+033199999V0201401N00101220001CN0500001N9+02581+01801101521ADDAA106000091AG10999GF100991001001999999001001MA1999999097681MD1999999-0021REMSYN017333   20/// 59002
0115829750999991989062218004-09100-044117FM-12+033199999V0201401N00261220001CN0500001N9+03201+01711101011ADDAA106000091AG10999GF104991031041008001031051MA1999999097251MD1999999-0071REMSYN011333   59007EQDQ01+999990APOSLP
0096829750999991989062612004-09100-044117FM-12+033199999V0200501N00101220001CN0500001N9+02441+01861101341ADDAA106000091AG10999GF100991001001999999001001MA1999999097481MD1999999-0061REMSYN011333   59006
0115829750999991989062618004-09100-044117FM-12+033199999V0200501N00151220001CN0500001N9+03161+01931100801ADDAA106000091AG10999GF103991031021008001031001MA1999999097051MD1999999-0271REMSYN011333   59027EQDQ01+999990APOSLP
0115829750999991989062700004-09100-044117FM-12+033199999V0203201N00051220001CN9999999N9+02611+02011101061ADDAA106000091AG10999GF100991001001999999001001KA1240M+03201MA1999999097211MD1999999+0061REMSYN017333   10320 58006
0102829750999991989062712004-09100-044117FM-12+033199999V0200501N00151220001CN0500001N9+02611+02121101361ADDAA106000091AG10999GF103991031031008001001021MA1999999097511MD1999999+0031REMSYN017333   20/// 58003
0115829750999991989062800004-09100-044117FM-12+033199999V0209999999999220001CN9999999N9+02611+02171101151ADDAA106000091AG10999GF104991041041008001001021KA1240M+03211MA1999999097311MD1999999+0101REMSYN017333   10321 58010
0096829750999991989062812004-09100-044117FM-12+033199999V0201801N00261007501CN0500001N9+02531+02091101521ADDAA106000091AG10999GF106991061031008001051021MA1999999097661MD1999999+0141REMSYN011333   58014
0115829750999991989062818004-09100-044117FM-12+033199999V0201801N00151007501CN0500001N9+02931+02101101041ADDAA106000091AG10999GF105991051021008001041031MA1999999097251MD1999999+0011REMSYN011333   58001EQDQ01+999990APOSLP
0115829750999991989062900004-09100-044117FM-12+033199999V0202701N00151220001CN9999999N9+02531+02051101251ADDAA106000091AG10999GF100991001001999999001001KA1240M+03091MA1999999097391MD1999999+0081REMSYN017333   10309 58008
0102829750999991989062912004-09100-044117FM-12+033199999V0200501N00151220001CN0500001N9+02681+02041101571ADDAA106000091AG10999GF103991031001008001031021MA1999999097711MD1999999+0051REMSYN017333   20/// 58005
0115829750999991989062918004-09100-044117FM-12+033199999V0202301N00261045001CN0500001N9+03221+01911101021ADDAA106000091AG10999GF105991031041008001031051MA1999999097271MD1999999+0021REMSYN011333   58002EQDQ01+999990APOSLP
0108829750999991989063012004-09100-044117FM-12+033199999V0200901N00101220001CN0500001N9+02501+02051101191ADDAA124006091AG10999GF100991001001999999001001MA1999999097851MD1999999+0141REMSYN023333   20/// 58014 60064
0115829750999991989063018004-09100-044117FM-12+033199999V0200901N00101220001CN0500001N9+03201+01591101181ADDAA106000091AG10999GF104991031021008001051041MA1999999097421MD1999999+0151REMSYN011333   58015EQDQ01+999990APOSLP
0115829750999991989070100004-09100-044117FM-12+033199999V0201801N00101220001CN9999999N9+02671+01901101321ADDAA106000091AG10999GF100991001001999999001001KA1240M+03221MA1999999097471MD1999999+0071REMSYN017333   10322 58007
0102829750999991989070112004-09100-044117FM-12+033199999V0209999999999220001CN0500001N9+02411+01731101511ADDAA106000091AG10999GF100991001001999999001001MA1999999097641MD1999999-0211REMSYN017333   20/// 59021
0115829750999991989070300004-09100-044117FM-12+033199999V0201801N00151220001CN9999999N9+02711+01471101251ADDAA106000091AG10999GF100991001001999999001001KA1240M+03191MA1999999097411MD1999999-0041REMSYN017333   10319 59004
0115829750999991989070318004-09100-044117FM-12+033199999V0201801N00151220001CN0500001N9+03191+01591101071ADDAA106000091AG10999GF100991001001999999001001MA1999999097301MD1999999-0041REMSYN011333   59004EQDQ01+999990APOSLP
0102829750999991989070412004-09100-044117FM-12+033199999V0201801N00151220001CN0500001N9+02381+01561101551ADDAA106000091AG10999GF100991001001999999001001MA1999999097681MD1999999-0051REMSYN017333   20/// 59005
0115829750999991989070518004-09100-044117FM-12+033199999V0201801N00101220001CN0500001N9+03211+01861101171ADDAA106000091AG10999GF103991031031008001021001MA1999999097401MD1999999+0111REMSYN011333   58011EQDQ01+999990APOSLP
0115829750999991989070600004-09100-044117FM-12+033199999V0209999999999007501CN9999999N9+02631+01981101371ADDAA106000091AG10999GF106991061031008001041021KA1240M+03321MA1999999097511MD1999999+0091REMSYN017333   10332 58009
0096829750999991989070612004-09100-044117FM-12+033199999V0201401N00151220001CN0500001N9+02371+01971101571ADDAA106000091AG10999GF100991001001999999001001MA1999999097701MD1999999-0141REMSYN011333   59014
0115829750999991989070618004-09100-044117FM-12+033199999V0201801N00151220001CN0500001N9+03251+01711101171ADDAA106000091AG10999GF102991021021008001001031MA1999999097401MD1999999+0001REMSYN011333   58000EQDQ01+999990APOSLP
0115829750999991989070700004-09100-044117FM-12+033199999V0200901N00101007501CN9999999N9+02641+01681101301ADDAA106000091AG10999GF105991051031008001041021KA1240M+03251MA1999999097441MD1999999-0071REMSYN017333   10325 59007
0102829750999991989070712004-09100-044117FM-12+033199999V0201801N00151045001CN0500001N9+02521+01771101551ADDAA106000091AG10999GF105991031041008001051041MA1999999097691MD1999999-0011REMSYN017333   20/// 59001
0115829750999991989070718004-09100-044117FM-12+033199999V0201401N00151220001CN0500001N9+03361+01511101051ADDAA106000091AG10999GF104991041041008001031051MA1999999097301MD1999999-0101REMSYN011333   59010EQDQ01+999990APOSLP
0102829750999991989071012004-09100-044117FM-12+033199999V0201401N00261220001CN0500001N9+02351+01681101621ADDAA106000091AG10999GF103991031021008001031001MA1999999097761MD1999999+0101REMSYN017333   20/// 58010
0115829750999991989071100004-09100-044117FM-12+033199999V0209999999999220001CN9999999N9+02551+01621101531ADDAA106000091AG10999GF100991001001999999001001KA1240M+03121MA1999999097651MD1999999+0241REMSYN017333   10312 58024
0115829750999991989071118004-09100-044117FM-12+033199999V0201401N00261220001CN0500001N9+02951+01481101461ADDAA106000091AG10999GF104991031041008001031051MA1999999097651MD1999999+0101REMSYN011333   58010EQDQ01+999990APOSLP
0115829750999991989071200004-09100-044117FM-12+033199999V0201401N00151220001CN9999999N9+02551+01571101621ADDAA106000091AG10999GF103991031001008001031041KA1240M+03011MA1999999097751MD1999999+0101REMSYN017333   10301 58010
0102829750999991989071212004-09100-044117FM-12+033199999V0201801N00261220001CN0500001N9+02321+01671101941ADDAA106000091AG10999GF100991001001999999001001MA1999999098051MD1999999+0031REMSYN017333   20/// 58003
0115829750999991989071218004-09100-044117FM-12+033199999V0201401N00261220001CN0500001N9+03161+01471101291ADDAA106000091AG10999GF104991021031008001041031MA1999999097511MD1999999-0141REMSYN011333   59014EQDQ01+999990APOSLP
0115829750999991989071300004-09100-044117FM-12+033199999V0201801N00151220001CN9999999N9+02621+01501101501ADDAA106000091AG10999GF100991001001999999001001KA1240M+03181MA1999999097621MD1999999-0131REMSYN017333   10318 59013
0102829750999991989071312004-09100-044117FM-12+033199999V0201801N00151220001CN0500001N9+02311+01511101791ADDAA106000091AG10999GF100991001001999999001001MA1999999097911MD1999999-0141REMSYN017333   20/// 59014
0115829750999991989071318004-09100-044117FM-12+033199999V0201401N00261220001CN0500001N9+03131+01421101231ADDAA106000091AG10999GF100991001001999999001001MA1999999097451MD1999999-0061REMSYN011333   59006EQDQ01+999990APOSLP
0115829750999991989071400004-09100-044117FM-12+033199999V0201801N00151220001CN9999999N9+02611+01351101411ADDAA106000091AG10999GF100991001001999999001001KA1240M+03171MA1999999097551MD1999999-0071REMSYN017333   10317 59007
0102829750999991989071412004-09100-044117FM-12+033199999V0209999999999220001CN0500001N9+02211+01581101911ADDAA106000091AG10999GF100991001001999999001001MA1999999098011MD1999999+0101REMSYN017333   20/// 58010
0115829750999991989071418004-09100-044117FM-12+033199999V0201801N00151220001CN0500001N9+03151+01331101401ADDAA106000091AG10999GF102991021001008001021021MA1999999097611MD1999999+0161REMSYN011333   58016EQDQ01+999990APOSLP
0115829750999991989071500004-09100-044117FM-12+033199999V0201801N00151220001CN9999999N9+02631+01471101581ADDAA106000091AG10999GF100991001001999999001001KA1240M+03151MA1999999097691MD1999999-0141REMSYN017333   10315 59014
0102829750999991989071512004-09100-044117FM-12+033199999V0201401N00151220001CN0500001N9+02361+01561101891ADDAA106000091AG10999GF100991001001999999001001MA1999999098011MD1999999+0001REMSYN017333   20/// 58000
0115829750999991989071700004-09100-044117FM-12+033199999V0201801N00151045001CN9999999N9+02791+01701101531ADDAA106000091AG10999GF106991041051008001041031KA1240M+03201MA1999999097671MD1999999+0041REMSYN017333   10320 58004
0102829750999991989071712004-09100-044117FM-12+033199999V0201401N00151220001CN0500001N9+02371+01701101671ADDAA106000091AG10999GF100991001001999999001001MA1999999097811MD1999999-0141REMSYN017333   20/// 59014
0115829750999991989071718004-09100-044117FM-12+033199999V0201401N00151220001CN0500001N9+03181+01551101191ADDAA106000091AG10999GF100991001001999999001001MA1999999097411MD1999999-0041REMSYN011333   59004EQDQ01+999990APOSLP
0115829750999991989071800004-09100-044117FM-12+033199999V0201801N00051220001CN9999999N9+02611+01571101411ADDAA106000091AG10999GF100991001001999999001001KA1240M+03231MA1999999097551MD1999999-0121REMSYN017333   10323 59012
0096829750999991989071812004-09100-044117FM-12+033199999V0201801N00101220001CN0500001N9+02311+01561101731ADDAA106000091AG10999GF100991001001999999001001MA1999999097851MD1999999+0041REMSYN011333   58004
0124829750999991989072012004-09100-044117FM-12+033199999V0201801N00151220001CN0500001N9+02191+01581101621ADDAA106000091AG10999GF104991041031008001021031MA1999999097701MD1999999-0101ME1101609REMSYN011333   59010EQDQ01+999990APOSLP
0115829750999991989072018004-09100-044117FM-12+033199999V0200901N00101220001CN0500001N9+03071+01581101201ADDAA106000091AG10999GF102991021001008001031021MA1999999097411MD1999999+0021REMSYN011333   58002EQDQ01+999990APOSLP
0115829750999991989072100004-09100-044117FM-12+033199999V0203201N00101220001CN9999999N9+02491+01291101451ADDAA106000091AG10999GF100991001001999999001001KA1240M+03091MA1999999097551MD1999999+0091REMSYN017333   10309 58009
0102829750999991989072112004-09100-044117FM-12+033199999V0200901N00151220001CN0500001N9+02311+01581101701ADDAA106000091AG10999GF100991001001999999001001MA1999999097811MD1999999+0101REMSYN017333   20/// 58010
0115829750999991989072200004-09100-044117FM-12+033199999V0201801N00151007501CN9999999N9+02791+01371101371ADDAA106000091AG10999GF105991051021008001021031KA1240M+03271MA1999999097511MD1999999-0041REMSYN017333   10327 59004
0102829750999991989072212004-09100-044117FM-12+033199999V0201401N00051220001CN0500001N9+02411+01521101601ADDAA106000091AG10999GF100991001001999999001001MA1999999097741MD1999999-0071REMSYN017333   20/// 59007
0115829750999991989072218004-09100-044117FM-12+033199999V0201401N00151220001CN0500001N9+03311+01461101101ADDAA106000091AG10999GF103991031021008001001021MA1999999097341MD1999999-0161REMSYN011333   59016EQDQ01+999990APOSLP
0102829750999991989072312004-09100-044117FM-12+033199999V0201801N00101220001CN0500001N9+02291+01651101441ADDAA106000091AG10999GF100991001001999999001001MA1999999097551MD1999999-0191REMSYN017333   20/// 59019
0115829750999991989072318004-09100-044117FM-12+033199999V0200801N00151220001CN0500001N9+03311+01431100891ADDAA106000091AG10999GF101991999999008001999999MA1999999097141MD1999999-0201REMSYN011333   59020EQDQ01+999990APOSLP
0096829750999991989072412004-09100-044117FM-12+033199999V0201401N00101220001CN0500001N9+02651+01681101231ADDAA106000091AG10999GF100991001001999999001001MA1999999097401MD1999999-0151REMSYN011333   59015
0102829750999991989072512004-09100-044117FM-12+033199999V0200501N00151220001CN0500001N9+02711+01721101381ADDAA106000091AG10999GF100991001001999999001001MA1999999097551MD1999999+0151REMSYN017333   20/// 58015
0115829750999991989072600004-09100-044117FM-12+033199999V0209999999999220001CN9999999N9+02771+01781101071ADDAA106000091AG10999GF100991001001999999001001KA1240M+03471MA1999999097251MD1999999+0101REMSYN017333   10347 58010
0096829750999991989072612004-09100-044117FM-12+033199999V0200501N00151220001CN0500001N9+02691+01881101331ADDAA106000091AG10999GF100991001001999999001001MA1999999097491MD1999999-0061REMSYN011333   59006
0115829750999991989072618004-09100-044117FM-12+033199999V0200501N00261220001CN0500001N9+03431+01811100781ADDAA106000091AG10999GF103991031001008001031021MA1999999097051MD1999999-0211REMSYN011333   59021EQDQ01+999990APOSLP
0102829750999991989072712004-09100-044117FM-12+033199999V0201801N00151220001CN0500001N9+02701+01941101331ADDAA106000091AG10999GF104991031041008001051031MA1999999096511MD1999999+0021REMSYN017333   20/// 58002
0115829750999991989072800004-09100-044117FM-12+033199999V0209999999999045001CN9999999N9+02581+02101101121ADDAA106000091AG10999GF105991041031008001041051KA1240M+03301MA1999999097291MD1999999+0091REMSYN017333   10330 58009
0102829750999991989072812004-09100-044117FM-12+033199999V0201401N00101220001CN0500001N9+02631+02071101381ADDAA106000091AG10999GF100991001001999999001001MA1999999097531MD1999999+0021REMSYN017333   20/// 58002
0115829750999991989072818004-09100-044117FM-12+033199999V0200901N00151220001CN0500001N9+03431+01611100701ADDAA106000091AG10999GF104991031041008001031051MA1999999096971MD1999999-0221REMSYN011333   59022EQDQ01+999990APOSLP
0102829750999991989072912004-09100-044117FM-12+033199999V0200501N00261007501CN0500001N9+02711+02031101321ADDAA106000091AG10999GF105991051041008001061031MA1999999097501MD1999999-0031REMSYN017333   20/// 59003
0115829750999991989072918004-09100-044117FM-12+033199999V0203601N00261007501CN0500001N9+03241+01781100751ADDAA106000091AG10999GF106991051041008001051031MA1999999097001MD1999999+0031REMSYN011333   58003EQDQ01+999990APOSLP
0084829750999991989080112004-09100-044117FM-12+033199999V02099999999999999999N0500001N9+02531+02001101481ADDAA106000091AG10999AY161061AY231061GF107991999999008001999999MA1999999097611MW1071
0115829750999991989080118004-09100-044117FM-12+033199999V0201401N00151220001CN0500001N9+03391+01961100931ADDAA106000091AG10999GF104991041041008001021001MA1999999097201MD1999999-0161REMSYN011333   59016EQDQ01+999990APOSLP
0115829750999991989080200004-09100-044117FM-12+033199999V0201801N00151220001CN9999999N9+02951+01691101061ADDAA106000091AG10999GF100991001001999999001001KA1240M+03481MA1999999097241MD1999999-0311REMSYN017333   10348 59031
0102829750999991989080212004-09100-044117FM-12+033199999V0201801N00151220001CN0500001N9+02491+01771101711ADDAA106000091AG10999GF103991999999008001999999MA1999999097861MD1999999+0251REMSYN017333   20/// 58025
0102829750999991989080312004-09100-044117FM-12+033199999V0200501N00311045001CN0500001N9+02581+01741101651ADDAA106000091AG10999GF105991031041008001031051MA1999999097801MD1999999-0061REMSYN017333   20/// 59006
0115829750999991989080318004-09100-044117FM-12+033199999V0200501N00361007501CN0500001N9+02721+01621101251ADDAA106000091AG10999GF106991051051008001061031MA1999999097431MD1999999+0131REMSYN011333   58013EQDQ01+999990APOSLP
0115829750999991989080400004-09100-044117FM-12+033199999V0201801N00051007501CN9999999N9+02631+01601101451ADDAA106000091AG10999GF105991051031008001021041KA1240M+03011MA1999999097601MD1999999+0181REMSYN017333   10301 58018
0102829750999991989080412004-09100-044117FM-12+033199999V0201801N00261007501CN0500001N9+02351+01481101781ADDAA106000091AG10999GF105991051031008001041021MA1999999097901MD1999999+0101REMSYN017333   20/// 58010
0102829750999991989080512004-09100-044117FM-12+033199999V0201401N00311007501CN0500001N9+02481+01801101821ADDAA106000091AG10999GF105991051041008001031051MA1999999097951MD1999999+0051REMSYN017333   20/// 58005
0115829750999991989080518004-09100-044117FM-12+033199999V0200901N00151045001CN0500001N9+03081+01521101251ADDAA106000091AG10999GF105991031051008001041051MA1999999097471MD1999999-0171REMSYN011333   59017EQDQ01+999990APOSLP
0115829750999991989080600004-09100-044117FM-12+033199999V0209999999999220001CN9999999N9+02621+01641101411ADDAA106000091AG10999GF102991021041008001031021KA1240M+03201MA1999999097551MD1999999-0141REMSYN017333   10320 59014
0102829750999991989080612004-09100-044117FM-12+033199999V0201801N00151220001CN0500001N9+02291+01581101431ADDAA106000091AG10999GF100991001001999999001001MA1999999097751MD1999999-0201REMSYN017333   20/// 59020
0115829750999991989080800004-09100-044117FM-12+033199999V0201801N00151220001CN9999999N9+02721+01091101541ADDAA106000091AG10999GF100991001001999999001001KA1240M+03401MA1999999097301MD1999999+0001REMSYN017333   10340 58000
0102829750999991989080812004-09100-044117FM-12+033199999V0201801N00051220001CN0500001N9+02321+01481101581ADDAA106000091AG10999GF100991001001999999001001MA1999999097711MD1999999+0101REMSYN017333   20/// 58010
0115829750999991989080818004-09100-044117FM-12+033199999V0201801N00261220001CN0500001N9+03351+00911100981ADDAA106000091AG10999GF100991001001999999001001MA1999999097241MD1999999+0091REMSYN011333   58009EQDQ01+999990APOSLP
0115829750999991989080900004-09100-044117FM-12+033199999V0201801N00151220001CN9999999N9+02651+01101101211ADDAA106000091AG10999GF100991001001999999001001KA1240M+03381MA1999999097351MD1999999+0051REMSYN017333   10338 58005
0115829750999991989080918004-09100-044117FM-12+033199999V0201401N00261220001CN0500001N9+03341+01241101011ADDAA106000091AG10999GF100991001001999999001001MA1999999097271MD1999999+0031REMSYN011333   58003EQDQ01+999990APOSLP
0134829750999991989081000004-09100-044117FM-12+033199999V0201801N00151220001CN9999999N9+02851+01241101171ADDAA106000091AG10999GF100991001001999999001001KA1240M+03401MA1999999098352MD1999999+0001REMSYN017333   10340 58000EQDQ01+098353APOSP 
0102829750999991989081012004-09100-044117FM-12+033199999V0201401N00101220001CN0500001N9+02291+01461101461ADDAA106000091AG10999GF100991001001999999001001MA1999999097611MD1999999-0211REMSYN017333   20/// 59021
0115829750999991989081018004-09100-044117FM-12+033199999V0201801N00151220001CN0500001N9+03441+01401100831ADDAA106000091AG10999GF100991001001999999001001MA1999999097111MD1999999-0161REMSYN011333   59016EQDQ01+999990APOSLP
0115829750999991989081100004-09100-044117FM-12+033199999V0201401N00051220001CN9999999N9+02951+01321101041ADDAA106000091AG10999GF100991001001999999001001KA1240M+03411MA1999999097201MD1999999-0151REMSYN017333   10341 59015
0102829750999991989081112004-09100-044117FM-12+033199999V0201801N00151220001CN0500001N9+02591+01581101321ADDAA106000091AG10999GF100991001001999999001001MA1999999097501MD1999999-0111REMSYN017333   20/// 59011
0115829750999991989081200004-09100-044117FM-12+033199999V0209999999999220001CN9999999N9+02951+01321100931ADDAA106000091AG10999GF102991021001008001041021KA1240M+03501MA1999999097121MD1999999-0081REMSYN017333   10350 59008
0102829750999991989081212004-09100-044117FM-12+033199999V0200501N00151220001CN0500001N9+02711+01661101321ADDAA106000091AG10999GF100991001001999999001001MA1999999097501MD1999999+0001REMSYN017333   20/// 58000
0115829750999991989081218004-09100-044117FM-12+033199999V0201401N00151220001CN0500001N9+03491+01381100881ADDAA106000091AG10999GF103991031041008001001021MA1999999097161MD1999999+0171REMSYN011333   58017EQDQ01+999990APOSLP
0115829750999991989081300004-09100-044117FM-12+033199999V0203201N00151220001CN9999999N9+03171+01281101101ADDAA106000091AG10999GF104991041031008001021031KA1240M+03501MA1999999097311MD1999999+0181REMSYN017333   10350 58018
0096829750999991989081312004-09100-044117FM-12+033199999V0200501N00151220001CN0500001N9+02651+01511101471ADDAA106000091AG10999GF103991031031008001021001MA1999999097661MD1999999+0161REMSYN011333   58016
0115829750999991989081318004-09100-044117FM-12+033199999V0201401N00151220001CN0500001N9+03371+01541101041ADDAA106000091AG10999GF104991041031008001001021MA1999999097301MD1999999+0141REMSYN011333   58014EQDQ01+999990APOSLP
0115829750999991989081400004-09100-044117FM-12+033199999V0201801N00151007501CN9999999N9+02871+01551101151ADDAA106000091AG10999GF105991051041008001021031KA1240M+03481MA1999999097341MD1999999+0031REMSYN017333   10348 58003
0102829750999991989081512004-09100-044117FM-12+033199999V0201801N00311220001CN0500001N9+02541+01761101561ADDAA106000091AG10999GF100991001001999999001001MA1999999097721MD1999999-0031REMSYN017333   20/// 59003
0115829750999991989081518004-09100-044117FM-12+033199999V0200901N00261045001CN0500001N9+03481+02151100921ADDAA106000091AG10999GF105991041051008001041061MA1999999097201MD1999999+0011REMSYN011333   58001EQDQ01+999990APOSLP
0115829750999991989081600004-09100-044117FM-12+033199999V0201401N00101220001CN9999999N9+02971+01571101191ADDAA106000091AG10999GF103991031031008001041031KA1240M+03561MA1999999097371MD1999999-0051REMSYN017333   10356 59005
0102829750999991989081612004-09100-044117FM-12+033199999V0201401N00151220001CN0500001N9+02611+01741101481ADDAA106000091AG10999GF104991041001008001031041MA1999999097661MD1999999-0061REMSYN017333   20/// 59006
0115829750999991989081618004-09100-044117FM-12+033199999V0201401N00151220001CN0500001N9+03391+01461100931ADDAA106000091AG10999GF103991031021008001031001MA1999999097201MD1999999+0001REMSYN011333   58000EQDQ01+999990APOSLP
0115829750999991989081700004-09100-044117FM-12+033199999V0201801N00101007501CN9999999N9+02931+01481101111ADDAA106000091AG10999GF105991051041008001021031KA1240M+03471MA1999999097301MD1999999-0071REMSYN017333   10347 59007
0096829750999991989081712004-09100-044117FM-12+033199999V0201801N00261220001CN0500001N9+02581+01711101541ADDAA106000091AG10999GF100991001001999999001001MA1999999097711MD1999999+0051REMSYN011333   58005
0115829750999991989081800004-09100-044117FM-12+033199999V0202301N00151220001CN9999999N9+02851+01201101241ADDAA106000091AG10999GF103991031001008001041021KA1240M+03491MA1999999097411MD1999999+0151REMSYN017333   10349 58015
0102829750999991989081812004-09100-044117FM-12+033199999V0201401N00311220001CN0500001N9+02631+01591101581ADDAA106000091AG10999GF100991001001999999001001MA1999999097751MD1999999+0041REMSYN017333   20/// 58004
0147829750999991989081818004-09100-044117FM-12+033199999V0201801N99999007501CN0500001N9+03401+01501100931ADDAA106000091AG10999GF105991051041008001051061MA1999999097201MD1999999-0101REMSYN011333   59010EQDQ01+004883WOSPD Q02+999990APOSLPQ030004883WOSPD 
0115829750999991989081900004-09100-044117FM-12+033199999V0201801N00151220001CN9999999N9+02871+01161101121ADDAA106000091AG10999GF102991021021008001041001KA1240M+03401MA1999999097301MD1999999-0111REMSYN017333   10340 59011
0102829750999991989081912004-09100-044117FM-12+033199999V0201401N00511220001CN0500001N9+02681+01781101481ADDAA106000091AG10999GF102991021041008001031021MA1999999097651MD1999999-0101REMSYN017333   20/// 59010
0102829750999991989082012004-09100-044117FM-12+033199999V0201401N00151220001CN0500001N9+02711+01801101371ADDAA106000091AG10999GF100991001001999999001001MA1999999097551MD1999999-0101REMSYN017333   20/// 59010
0115829750999991989082100004-09100-044117FM-12+033199999V0201801N00051220001CN9999999N9+03011+01331100941ADDAA106000091AG10999GF100991001001999999001001KA1240M+03511MA1999999097161MD1999999-0021REMSYN017333   10351 59002
0096829750999991989082112004-09100-044117FM-12+033199999V0200501N00151220001CN0500001N9+02691+01711101421ADDAA106000091AG10999GF103991031021008001001041MA1999999097591MD1999999+0041REMSYN011333   58004
0115829750999991989082118004-09100-044117FM-12+033199999V0201401N00151220001CN0500001N9+03491+01361100911ADDAA106000091AG10999GF103991031001008001041021MA1999999097191MD1999999+0041REMSYN011333   58004EQDQ01+999990APOSLP
0102829750999991989082212004-09100-044117FM-12+033199999V0200901N00311220001CN0500001N9+02741+01761101521ADDAA106000091AG10999GF100991001001999999001001MA1999999097701MD1999999+0111REMSYN017333   20/// 58011
0115829750999991989082300004-09100-044117FM-12+033199999V0203601N00051220001CN9999999N9+03081+01481101071ADDAA106000091AG10999GF100991001001999999001001KA1240M+03661MA1999999097281MD1999999+0021REMSYN017333   10366 58002
0096829750999991989082312004-09100-044117FM-12+033199999V0200901N00051220001CN0500001N9+02821+01741101461ADDAA106000091AG10999GF102991021001008001031021MA1999999097661MD1999999-0041REMSYN011333   59004
0115829750999991989082318004-09100-044117FM-12+033199999V0201801N00101220001CN0500001N9+03611+01461100791ADDAA106000091AG10999GF104991041031008001041001MA1999999097091MD1999999-0071REMSYN011333   59007EQDQ01+999990APOSLP
0115829750999991989082400004-09100-044117FM-12+033199999V0203201N00151220001CN9999999N9+03041+01571101021ADDAA106000091AG10999GF100991001001999999001001KA1240M+03701MA1999999097231MD1999999-0051REMSYN017333   10370 59005
0102829750999991989082412004-09100-044117FM-12+033199999V0200901N00151220001CN0500001N9+02801+01561101331ADDAA106000091AG10999GF102991021001008001031041MA1999999097531MD1999999-0131REMSYN017333   20/// 59013
0115829750999991989082418004-09100-044117FM-12+033199999V0201801N00151220001CN0500001N9+03581+01441100631ADDAA106000091AG10999GF104991041031012501051041MA1999999096931MD1999999-0161REMSYN011333   59016EQDQ01+999990APOSLP
0115829750999991989082518004-09100-044117FM-12+033199999V0202301N00211045001CN0500001N9+03631+01261100621ADDAA106000091AG10999GF105991021041008001031051MA1999999096931MD1999999+0001REMSYN011333   58000EQDQ01+999990APOSLP
0115829750999991989082600004-09100-044117FM-12+033199999V0209999999999045001CN9999999N9+03151+01361100831ADDAA106000091AG10999GF105991041031008001051041KA1240M+03611MA1999999097051MD1999999-0051REMSYN017333   10361 59005
0102829750999991989082612004-09100-044117FM-12+033199999V0200901N00261220001CN0500001N9+02751+01641101291ADDAA106000091AG10999GF100991001001999999001001MA1999999097501MD1999999+0001REMSYN017333   20/// 58000
0115829750999991989082618004-09100-044117FM-12+033199999V0201801N00151045001CN0500001N9+03441+01531100741ADDAA106000091AG10999GF105991041051008001031041MA1999999097021MD1999999+0091REMSYN011333   58009EQDQ01+999990APOSLP
0102829750999991989082712004-09100-044117FM-12+033199999V0200901N00311220001CN0200001N9+02901+01621101471ADDAA106000091AG10999GF103991031021008001051031MA1999999097671MD1999999+0171REMSYN017333   20/// 58017
0102829750999991989082812004-09100-044117FM-12+033199999V0200501N00151220001CN0500001N9+02801+01501101421ADDAA106000091AG10999GF100991001001999999001001MA1999999097621MD1999999-0051REMSYN017333   20/// 59005
0115829750999991989082818004-09100-044117FM-12+033199999V0201801N00051220001CN0500001N9+03641+01291100851ADDAA106000091AG10999GF103991031001008001021031MA1999999097151MD1999999-0091REMSYN011333   59009EQDQ01+999990APOSLP
0096829750999991989082912004-09100-044117FM-12+033199999V0201401N00151220001CN0500001N9+02811+01601101371ADDAA106000091AG10999GF100991001001999999001001MA1999999097571MD1999999-0051REMSYN011333   59005
0115829750999991989082918004-09100-044117FM-12+033199999V0201401N00261220001CN0500001N9+03381+01451100831ADDAA106000091AG10999GF104991041021008001031021MA1999999097101MD1999999-0051REMSYN011333   59005EQDQ01+999990APOSLP
0102829750999991989083012004-09100-044117FM-12+033199999V0201401N00151220001CN0500001N9+02651+01171101501ADDAA106000091AG10999GF100991001001999999001001MA1999999097681MD1999999+0111REMSYN017333   20/// 58011
0115829750999991989083100004-09100-044117FM-12+033199999V0201401N00101220001CN9999999N9+02891+01021101111ADDAA106000091AG10999GF100991001001999999001001KA1240M+03491MA1999999097301MD1999999+0051REMSYN017333   10349 58005
0102829750999991989083112004-09100-044117FM-12+033199999V0201401N00311220001CN0500001N9+02781+02061101481ADDAA106000091AG10999GF100991001001999999001001MA1999999097661MD1999999-0021REMSYN017333   20/// 59002
0115829750999991989083118004-09100-044117FM-12+033199999V0201801N00151220001CN0500001N9+03381+01061100931ADDAA106000091AG10999GF100991001001999999001001MA1999999097201MD1999999-0041REMSYN011333   59004EQDQ01+999990APOSLP
0115829750999991989090100004-09100-044117FM-12+033199999V0201801N00151220001CN9999999N9+02761+01531101041ADDAA106000091AG10999GF100991001001999999001001KA1240M+03401MA1999999097241MD1999999-0061REMSYN017333   10340 59006
0102829750999991989090112004-09100-044117FM-12+033199999V0201801N00101220001CN0500001N9+02551+01481101341ADDAA106000091AG10999GF100991001001999999001001MA1999999097501MD1999999-0061REMSYN017333   20/// 59006
0115829750999991989090200004-09100-044117FM-12+033199999V0200501N00151220001CN9999999N9+02291+01321100891ADDAA106000091AG10999GF100991001001999999001001KA1240M+03521MA1999999097061MD1999999-0181REMSYN017333   10352 59018
0102829750999991989090212004-09100-044117FM-12+033199999V0201401N00151220001CN0500001N9+02561+01321101151ADDAA106000091AG10999GF100991001001999999001001MA1999999097311MD1999999-0191REMSYN017333   20/// 59019
0115829750999991989090218004-09100-044117FM-12+033199999V0203201N00151220001CN0500001N9+03651+01571100431ADDAA106000091AG10999GF100991001001999999001001MA1999999096761MD1999999-0291REMSYN011333   59029EQDQ01+999990APOSLP
0115829750999991989090300004-09100-044117FM-12+033199999V0201801N00151220001CN9999999N9+03071+01041100591ADDAA106000091AG10999GF100991001001999999001001KA1240M+03671MA1999999096801MD1999999-0261REMSYN017333   10367 59026
0102829750999991989090312004-09100-044117FM-12+033199999V0200501N00311220001CN0500001N9+02901+01401100801ADDAA106000091AG10999GF100991001001999999001001MA1999999097041MD1999999-0271REMSYN017333   20/// 59027
0115829750999991989090318004-09100-044117FM-12+033199999V0200501N00151220001CN0500001N9+03701+01181100341ADDAA106000091AG10999GF103991031021008001041031MA1999999096681MD1999999-0071REMSYN011333   59007EQDQ01+999990APOSLP
0102829750999991989090412004-09100-044117FM-12+033199999V0200501N00311220001CN0500001N9+02941+01591101061ADDAA106000091AG10999GF100991001001999999001001MA1999999097281MD1999999+0241REMSYN017333   202// 58024
0102829750999991989090512004-09100-044117FM-12+033199999V0200901N00311220001CN0500001N9+02951+01791100961ADDAA106000091AG10999GF100991001001999999001001MA1999999097201MD1999999-0081REMSYN017333   20/// 59008
0131829750999991989090518004-09100-044117FM-12+033199999V0200501N00261220001CN0500001N9+03681+01231100371ADDAA106000091AG10999GF104991999031008001001001MA1999999096701MD1999999-0101REMSYN011333   59010EQDQ01+000032SCOTLCQ02+999990APOSLP
0102829750999991989090612004-09100-044117FM-12+033199999V0200901N00151220001CN0500001N9+02881+01861101071ADDAA106000091AG10999GF100991001001999999001001MA1999999097291MD1999999+0091REMSYN017333   20/// 58009
0115829750999991989090700004-09100-044117FM-12+033199999V0200901N00101220001CN9999999N9+03281+01621100501ADDAA106000091AG10999GF104991021021008001051041KA1240M+03741MA1999999096761MD1999999-0091REMSYN017333   10374 59009
0115829750999991989090718004-09100-044117FM-12+033199999V0200901N00311007501CN0500001N9+03681+01531100341ADDAA106000091AG10999GF105991051041008001051041MA1999999096681MD1999999+0031REMSYN011333   58003EQDQ01+999990APOSLP
0115829750999991989090800004-09100-044117FM-12+033199999V0200901N00151220001CN9999999N9+03201+01651100561ADDAA106000091AG10999GF103991021021008001051021KA1240M+03751MA1999999096831MD1999999+0071REMSYN017333   10375 58007
0102829750999991989090812004-09100-044117FM-12+033199999V0200901N00261220001CN0500001N9+03031+01861101161ADDAA106000091AG10999GF102991021001008001031051MA1999999097381MD1999999+0121REMSYN017333   20/// 58012
0115829750999991989090818004-09100-044117FM-12+033199999V0200501N00261105001CN0500001N9+03601+01461100581ADDAA106000091AG10999GF105991021041008001051031MA1999999096901MD1999999+0221REMSYN011333   58022EQDQ01+999990APOSLP
0096829750999991989091012004-09100-044117FM-12+033199999V0200501N00101220001CN0500001N9+02831+01601101091ADDAA106000091AG10999GF100991001001999999001001MA1999999097311MD1999999-0041REMSYN011333   59004
0115829750999991989091118004-09100-044117FM-12+033199999V0201401N00101007501CN0500001N9+03641+01741100471ADDAA106000091AG10999GF105991051031008001041021MA1999999096801MD1999999-0051REMSYN011333   59005EQDQ01+999990APOSLP
0115829750999991989091200004-09100-044117FM-12+033199999V02099999999999999999N9999999N9+03151+01371100671ADDAA106000091AG10999GF199999999999008001999999KA1240M+03371MA1999999096911MD1999999+0061REMSYN017333   10337 58006
0102829750999991989091212004-09100-044117FM-12+033199999V0200501N00151220001CN0500001N9+02931+01601101131ADDAA106000091AG10999GF100991001001999999001001MA1999999097351MD1999999-0031REMSYN017333   20/// 59003
0115829750999991989091218004-09100-044117FM-12+033199999V0201401N00101220001CN0500001N9+03611+01351100541ADDAA106000091AG10999GF104991041031008001001041MA1999999096861MD1999999+0061REMSYN011333   58006EQDQ01+999990APOSLP
0102829750999991989091312004-09100-044117FM-12+033199999V0200501N00151220001CN0500001N9+02951+01201101091ADDAA106000091AG10999GF100991001001999999001001MA1999999097311MD1999999-0041REMSYN017333   20/// 59004
0115829750999991989091318004-09100-044117FM-12+033199999V0200901N00101220001CN0500001N9+03731+01311100411ADDAA106000091AG10999GF104991041021008001031021MA1999999096751MD1999999-0101REMSYN011333   59010EQDQ01+999990APOSLP
0115829750999991989091400004-09100-044117FM-12+033199999V0203201N00101007501CN9999999N9+03251+01321100591ADDAA106000091AG10999GF105991051041008001001031KA1240M+03741MA1999999096851MD1999999-0051REMSYN017333   10374 59005
0096829750999991989091412004-09100-044117FM-12+033199999V0200501N00151220001CN0500001N9+03011+01051101111ADDAA106000091AG10999GF100991001001999999001001MA1999999097351MD1999999+0041REMSYN011333   58004
0115829750999991989091418004-09100-044117FM-12+033199999V0200901N00101220001CN0500001N9+03751+01311100461ADDAA106000091AG10999GF100991001001999999001001MA1999999096801MD1999999+0041REMSYN011333   58004EQDQ01+999990APOSLP
0102829750999991989091512004-09100-044117FM-12+033199999V0200901N00101220001CN0500001N9+02791+01071101151ADDAA106000091AG10999GF100991001001999999001001MA1999999097391MD1999999+0041REMSYN017333   20/// 58004
0115829750999991989091518004-09100-044117FM-12+033199999V0201401N00151220001CN0500001N9+03611+01221100581ADDAA106000091AG10999GF100991001001999999001001MA1999999096901MD1999999+0101REMSYN011333   58010EQDQ01+999990APOSLP
0115829750999991989091600004-09100-044117FM-12+033199999V0209999999999220001CN9999999N9+03151+01041100741ADDAA106000091AG10999GF100991001001999999001001KA1240M+03671MA1999999097011MD1999999+0111REMSYN017333   10367 58011
0102829750999991989091612004-09100-044117FM-12+033199999V0200501N00311220001CN0500001N9+02871+01841101191ADDAA106000091AG10999GF100991001001999999001001MA1999999097411MD1999999+0021REMSYN017333   20/// 58002
0115829750999991989091618004-09100-044117FM-12+033199999V0200501N00261007501CN0500001N9+03541+01721100581ADDAA106000091AG10999GF105991051031008001021041MA1999999096891MD1999999-0011REMSYN011333   59001EQDQ01+999990APOSLP
0115829750999991989091800004-09100-044117FM-12+033199999V0201801N00151220001CN9999999N9+02711+02011100991ADDAA106000091AG10999GF100991001001999999001001KA1240M+03251MA1999999097161MD1999999+0071REMSYN017333   10325 58007
0096829750999991989091812004-09100-044117FM-12+033199999V0201801N00151007501CN0500001N9+02451+02031101841ADDAA106000091AG10999GF107991071031008001051041MA1999999097401MD1999999+0011REMSYN011333   58001
0143829750999991989091900004-09100-044117FM-12+033199999V0201801N00151007501CN9999999N9+02101+01931101351ADDAA106008091AG10999AY161061AY231061GF107991071041008001031021KA1240M+02721MA1999999097461MD1999999+0301MW1071REMSYN023333   10272 58030 60081
0108829750999991989091912004-09100-044117FM-12+033199999V0201801N00101007501CN0500001N9+02371+01991101631ADDAA199020091AG10999GF106991061021008001051031MA1999999097711MD1999999+0311REMSYN023333   20/// 58031 60200
0159829750999991989091918004-09100-044117FM-12+033199999V0201801N00261007501CN0500001N9+02891+02041100832ADDAA106008091AG10999AY101061AY261061GF106991061041008001001031MA1999999097051MD1999999-0111MW1091REMSYN017333   59011 60081EQDQ01+999990APOSLPQ02+100833APOSLP
0115829750999991989092000004-09100-044117FM-12+033199999V0201801N00261007501CN9999999N9+02361+01951101401ADDAA106000091AG10999GF107991071041008001061021KA1240M+03161MA1999999097501MD1999999+0041REMSYN017333   10316 58004
0096829750999991989092012004-09100-044117FM-12+033199999V0201801N00151007501CN0500001N9+02351+01561101541ADDAA106000091AG10999GF105991051031008001041021MA1999999097651MD1999999-0061REMSYN011333   59006
0115829750999991989092100004-09100-044117FM-12+033199999V0203601N00151220001CN9999999N9+02871+01811101031ADDAA106000091AG10999GF103991031021008001031001KA1240M+03371MA1999999097191MD1999999-0311REMSYN017333   10337 59031
0115829750999991989092112004-09100-044117FM-12+033199999V0203601N00151220001CN9999999N9+02871+01811101031ADDAA106000091AG10999GF103991031021008001031001KA1240M+03371MA1999999097191MD1999999-0311REMSYN017333   10337 59031
0102829750999991989092212004-09100-044117FM-12+033199999V0200901N00311220001CN0500001N9+02761+01861101411ADDAA106000091AG10999GF100991001001999999001001MA1999999097601MD1999999+0101REMSYN017333   20/// 58010
0115829750999991989092218004-09100-044117FM-12+033199999V0200501N00151007501CN0500001N9+03481+01471100801ADDAA106000091AG10999GF105991051041008001031051MA1999999097101MD1999999+0001REMSYN011333   58000EQDQ01+999990APOSLP
0115829750999991989092300004-09100-044117FM-12+033199999V0200901N00151220001CN9999999N9+02831+01581101011ADDAA106000091AG10999GF100991001001999999001001KA1240M+03501MA1999999097211MD1999999+0151REMSYN017333   10350 58015
0102829750999991989092312004-09100-044117FM-12+033199999V0201401N00261220001CN0500001N9+02881+01731101381ADDAA106000091AG10999GF102991021001008001041031MA1999999097541MD1999999-0031REMSYN017333   20/// 59003
0115829750999991989092500004-09100-044117FM-12+033199999V0201801N00101220001CN9999999N9+02951+01591100991ADDAA106000091AG10999GF102991021021008001001041KA1240M+03651MA1999999097201MD1999999-0051REMSYN017333   10365 59005
0124829750999991989092512004-09100-044117FM-12+033199999V0200901N00151220001CN0500001N9+02971+01531101301ADDAA106000091AG10999GA1021+135009099GF103991031031008001041021MA1999999096511MD1999999-0061REMSYN023333   20/// 59006 82983
0115829750999991989092518004-09100-044117FM-12+033199999V0201401N00261220001CN0500001N9+03571+01431100591ADDAA106000091AG10999GF104991031021008001041051MA1999999096901MD1999999-0111REMSYN011333   59011EQDQ01+999990APOSLP
0096829750999991989092612004-09100-044117FM-12+033199999V0201401N00151220001CN0500001N9+02851+01531101141ADDAA106000091AG10999GF100991001001999999001001MA1999999097351MD1999999-0161REMSYN011333   59016
0115829750999991989092712004-09100-044117FM-12+033199999V0200501N00101220001CN9999999N9+02151+00931100761ADDAA106000091AG10999GF100991001001999999001001KA1240M+03761MA1999999097001MD1999999-0121REMSYN017333   10376 59012
0115829750999991989092718004-09100-044117FM-12+033199999V0201801N00151007501CN0500001N9+03541+01531100631ADDAA106000091AG10999GF105991051041008001021031MA1999999096941MD1999999+0141REMSYN011333   58014EQDQ01+999990APOSLP
