0115833390999991989010212004-14050-042617FM-12+088299999V0201401N00411220001CN0200001N9+02301+01851101271ADDAA106000091AG10999GF104991041021004501001001KA1240N+01681MA1999999091551MD1999999-0011REMSYN017333   20168 59001
0096833390999991989010218004-14050-042617FM-12+088299999V0201401N00311220001CN0200001N9+02821+01651100821ADDAA106000091AG10999GF104991041021004501051001MA1999999091181MD1999999-0091REMSYN011333   59009
0115833390999991989010300004-14050-042617FM-12+088299999V0209991C00001220001CN9999999N9+02341+01381101021ADDAA106000091AG10999GF100991001001999999001001KA1240M+02911MA1999999091321MD1999999-0081REMSYN017333   10291 59008
0096833390999991989010318004-14050-042617FM-12+088299999V0200901N00311220001CN0200001N9+02641+01581100961ADDAA106000091AG10999GF104991041021004501001001MA1999999091261MD1999999-0081REMSYN011333   59008
0115833390999991989010412004-14050-042617FM-12+088299999V0201401N00411004201CN0200001N9+02181+01901101361ADDAA106000091AG10999GF106991061021004501001001KA1240N+01891MA1999999091641MD1999999+0151REMSYN017333   20189 58015
0096833390999991989010418004-14050-042617FM-12+088299999V0200901N00411220001CN0200001N9+02921+01571100901ADDAA106000091AG10999GF102991021021004501001001MA1999999091271MD1999999+0011REMSYN011333   58001
0137833390999991989010500004-14050-042617FM-12+088299999V0201401N00411220001CN9999999N9+02261+01591101301ADDAA106000091AG10999AY121061AY221061GF103991031021004501001001KA1240M+02951MA1999999091561MD1999999+0121MW1131REMSYN017333   10295 58012
0115833390999991989010512004-14050-042617FM-12+088299999V0201401N00621220001CN0200001N9+02201+01631101411ADDAA106000091AG10999GF103991031021004501001001KA1240N+01701MA1999999091671MD1999999+0031REMSYN017333   20170 58003
0096833390999991989010518004-14050-042617FM-12+088299999V0200901N00361220001CN0200001N9+02671+01231101071ADDAA106000091AG10999GF102991021021004501001001MA1999999091371MD1999999+0101REMSYN011333   58010
0115833390999991989010600004-14050-042617FM-12+088299999V0201401N00311220001CN9999999N9+02321+01251101251ADDAA106000091AG10999GF102991021021004501001001KA1240M+02771MA1999999091531MD1999999-0031REMSYN017333   10277 59003
0115833390999991989010612004-14050-042617FM-12+088299999V0201401N00511004201CN0200001N9+02081+01901101351ADDAA106000091AG10999GF106991061021004501001001KA1240N+01841MA1999999091611MD1999999-0061REMSYN017333   20184 59006
0096833390999991989010618004-14050-042617FM-12+088299999V0200901N00151004201CN0200001N9+02791+01631100991ADDAA106000091AG10999GF105991051021004501001001MA1999999091321MD1999999-0051REMSYN011333   59005
0115833390999991989010700004-14050-042617FM-12+088299999V0201801N00311220001CN9999999N9+02281+01381101021ADDAA106000091AG10999GF100991001001999999001001KA1240M+02831MA1999999091311MD1999999-0221REMSYN017333   10283 59022
0137833390999991989010712004-14050-042617FM-12+088299999V0201401N00311004201CN0200001N9+02241+01881101101ADDAA106000091AG10999AY101061AY201061GF106991051021004501001021KA1240N+01601MA1999999091401MD1999999-0211MW1101REMSYN017333   20160 59021
0096833390999991989010718004-14050-042617FM-12+088299999V0201401N00311004201CN0200001N9+02791+01301100651ADDAA106000091AG10999GF106991051021004501021001MA1999999091021MD1999999-0301REMSYN011333   59030
0115833390999991989010812004-14050-042617FM-12+088299999V0201401N00151220001CN0200001N9+02401+01931100971ADDAA106000091AG10999GF103991021021004501001041KA1240N+01761MA1999999091301MD1999999-0101REMSYN017333   20176 59010
0124833390999991989010818004-14050-042617FM-12+088299999V0202701N00051004201CN0040001N9+02031+01891100801ADDAA106015091AG10999AY191061AY261061GF106991051021004501021001MA1999999091071MD1999999+0051MW1101REMSYN017333   58005 60151
0115833390999991989010900004-14050-042617FM-12+088299999V0201401N00311220001CN9999999N9+02181+01671100891ADDAA106000091AG10999GF102991021021004501001001KA1240M+02851MA1999999091211MD1999999+0091REMSYN017333   10285 58009
0143833390999991989010912004-14050-042617FM-12+088299999V0201401N00211004201CN0200001N9+02141+01951101161ADDAA124015091AG10999AY161061AY261061GF106991061021004501001001KA1240N+01621MA1999999091431MD1999999+0131MW1101REMSYN023333   20162 58013 60154
0096833390999991989010918004-14050-042617FM-12+088299999V0200901N00261004201CN0200001N9+02571+01731100851ADDAA106000091AG10999GF106991051021004501021001MA1999999091171MD1999999+0101REMSYN011333   58010
0115833390999991989011000004-14050-042617FM-12+088299999V0201401N00311220001CN9999999N9+02321+01741101041ADDAA106000091AG10999GF102991021021004501001001KA1240M+02671MA1999999091341MD1999999+0131REMSYN017333   10267 58013
0096833390999991989011018004-14050-042617FM-12+088299999V0201401N00461004201CN0200001N9+02661+01501101091ADDAA106000091AG10999GF105991051021004501001001MA1999999091391MD1999999+0221REMSYN011333   58022
0134833390999991989011100004-14050-042617FM-12+088299999V0201401N00571220001CN9999999N9+02301+01921101241ADDAA106000091AG10999GF102991021021999999001001KA1240M+02811MA1999999091531MD1999999+0191REMSYN017333   10281 58019EQDQ01+000992SCOLCB
0115833390999991989011112004-14050-042617FM-12+088299999V0201401N00511220001CN0200001N9+02261+01751101421ADDAA106000091AG10999GF102991021021004501001001KA1240N+01801MA1999999091691MD1999999+0061REMSYN017333   20180 58006
0115833390999991989011114004-14050-042617FM-12+088299999V0201401N00511220001CN0200001N9+02261+01751101421ADDAA106000091AG10999GF102991021021004501001001KA1240N+01801MA1999999091691MD1999999+0061REMSYN017333   20180 58006
0115833390999991989011200004-14050-042617FM-12+088299999V0200501N00361220001CN9999999N9+02141+01721101241ADDAA106000091AG10999GF100991001001999999001001KA1240M+02851MA1999999091331MD1999999-0061REMSYN017333   10285 59006
0115833390999991989011212004-14050-042617FM-12+088299999V0201401N00621220001CN0200001N9+02261+01691101351ADDAA106000091AG10999GF102991021021004501001001KA1240N+01751MA1999999091641MD1999999-0051REMSYN017333   20175 59005
0115833390999991989011300004-14050-042617FM-12+088299999V0201401N00101220001CN9999999N9+02421+01311101071ADDAA106000091AG10999GF102991021021004501001001KA1240M+02901MA1999999091381MD1999999-0091REMSYN017333   10290 59009
0115833390999991989011312004-14050-042617FM-12+088299999V0201401N00361220001CN0200001N9+02281+01831101311ADDAA106000091AG10999GF102991021021004501001001KA1240N+01861MA1999999091601MD1999999-0041REMSYN017333   20186 59004
0096833390999991989011318004-14050-042617FM-12+088299999V0201401N00511220001CN0200001N9+03021+01171100981ADDAA106000091AG10999GF102991021021004501001001MA1999999091341MD1999999-0031REMSYN011333   59003
0134833390999991989011400004-14050-042617FM-12+088299999V0201801N00101220001CN9999999N9+02501+01051101041ADDAA106000091AG10999GF100991001001999999001001KA1240M+03081MA1999999092362MD1999999-0021REMSYN017333   10308 59002EQDQ01+092363APOSP 
0115833390999991989011412004-14050-042617FM-12+088299999V0201401N00361220001CN0200001N9+02401+01991101301ADDAA106000091AG10999GF102991011021004501001021KA1240N+01771MA1999999091611MD1999999-0011REMSYN017333   20177 59001
0096833390999991989011418004-14050-042617FM-12+088299999V0200501N00261220001CN0200001N9+03151+01271100941ADDAA106000091AG10999GF102991021021004501001001MA1999999091311MD1999999-0031REMSYN011333   59003
0115833390999991989011500004-14050-042617FM-12+088299999V0202301N00151220001CN9999999N9+02601+00941101021ADDAA106000091AG10999GF100991001001999999001001KA1240M+03211MA1999999091371MD1999999+0011REMSYN017333   10321 58001
0134833390999991989011512004-14050-042617FM-12+088299999V0202301N00101220001CN0200001N9+02521+02001101301ADDAA106000091AG10999GF103991999021004501001001KA1240N+01961MA1999999091641MD1999999+0031REMSYN017333   20196 58003EQDQ01+000022SCOTLC
0135833390999991989011518004-14050-042617FM-12+088299999V0201401N00621004201CN0040001N9+02361+02071101071ADDAA106000891AA299001091AG10999AY191061AY261061GF106991051021004501021001MA1999999091361MD1999999+0051MW1101REMSYN017333   58005 69981
0115833390999991989011600004-14050-042617FM-12+088299999V0202701N00101004201CN9999999N9+02491+01851101301ADDAA106000091AG10999GF105991051021004501001001KA1240M+03201MA1999999091381MD1999999+0011REMSYN017333   10320 58001
0154833390999991989011612004-14050-042617FM-12+088299999V0200501N00211004201CN0200001N9+02481+01981101271ADDAA124000891AA299001091AG10999AY161061AY261061GF106991061021004501001001KA1240N+02101MA1999999091591MD1999999-0051MW1021REMSYN023333   20210 59005 69984
0124833390999991989011618004-14050-042617FM-12+088299999V0202701N00211004201CN0200001N9+02781+01981100891ADDAA106053091AG10999AY191061AY261061GF106991051021004501001021MA1999999091291MD1999999-0111MW1021REMSYN017333   59011 60531
0137833390999991989011700004-14050-042617FM-12+088299999V0203201N00051220001CN9999999N9+02351+02031101031ADDAA106000091AG10999AY191061AY201061GF102991021021004501001001KA1240M+03021MA1999999091351MD1999999-0031MW1131REMSYN017333   10302 59003
0143833390999991989011712004-14050-042617FM-12+088299999V0203201N00311004201CN0200001N9+02481+01961101251ADDAA124053091AG19005AY161061AY261061GF107991071021004501001001KA1240N+01801MA1999999091551MD1999999-0041MW1021REMSYN023333   20180 59004 60534
0096833390999991989011718004-14050-042617FM-12+088299999V0203201N00361004201CN0200001N9+03061+01701100851ADDAA106000091AG10999GF105991051021004501001001MA1999999091241MD1999999-0011REMSYN011333   59001
0143833390999991989011800004-14050-042617FM-12+088299999V0202701N00151004201CN9999999N9+02141+01841101081ADDAA106007091AG10999AY191061AY261061GF107991061021004501021999KA1240M+03111MA1999999091381MD1999999+0031MW1131REMSYN023333   10311 58003 60071
0143833390999991989011812004-14050-042617FM-12+088299999V0200901N00151004201CN0200001N9+02501+01911101271ADDAA124007091AG10999AY161061AY261061GF106991051021004501001041KA1240N+01881MA1999999091551MD1999999+0001MW1021REMSYN023333   20188 58000 60074
0096833390999991989011818004-14050-042617FM-12+088299999V0201401N00461220001CN0200001N9+02981+01621100901ADDAA106000091AG10999GF103991031021004501001001MA1999999091161MD1999999-0081REMSYN011333   59008
0134833390999991989011900004-14050-042617FM-12+088299999V0202701N000519999999N9999999N9+02521+01611101001ADDAA106000091AG10999GF106991999021004501001001KA1240M+03011MA1999999091291MD1999999-0091REMSYN017333   10301 59009EQDQ01+000022SCOTLC
0115833390999991989011912004-14050-042617FM-12+088299999V0201401N00511004201CN0200001N9+02221+01821101231ADDAA106000091AG10999GF106991051021004501021001KA1240N+01881MA1999999091531MD1999999-0021REMSYN017333   20188 59002
0096833390999991989011918004-14050-042617FM-12+088299999V0200901N00261105001CN0200001N9+02801+01431100921ADDAA106000091AG10999GF105991041021004501001021MA1999999091251MD1999999+0091REMSYN011333   58009
0115833390999991989012000004-14050-042617FM-12+088299999V0201801N00151220001CN9999999N9+02401+01291100941ADDAA106000091AG10999GF102991011021004501021001KA1240M+02871MA1999999091251MD1999999-0041REMSYN017333   10287 59004
0115833390999991989012012004-14050-042617FM-12+088299999V0201401N00511220001CN0200001N9+02281+01731101301ADDAA106000091AG10999GF104991021021004501001021KA1240N+01861MA1999999091591MD1999999+0061REMSYN017333   20186 58006
0096833390999991989012018004-14050-042617FM-12+088299999V0201401N00311220001CN0200001N9+02881+00741100921ADDAA106000091AG10999GF102991021021004501001001MA1999999091261MD1999999+0011REMSYN011333   58001
0115833390999991989012100004-14050-042617FM-12+088299999V0209991C00001220001CN9999999N9+02461+00641100891ADDAA106000091AG10999GF100991001001999999001001KA1240M+02941MA1999999091221MD1999999-0031REMSYN017333   10294 59003
0115833390999991989012112004-14050-042617FM-12+088299999V0201401N00871220001CN0200001N9+02291+01811101221ADDAA106000091AG10999GF102991021021004501001001KA1240N+01781MA1999999091521MD1999999-0071REMSYN017333   20178 59007
0096833390999991989012118004-14050-042617FM-12+088299999V0200901N00411220001CN0200001N9+02821+01131100931ADDAA106000091AG10999GF104991041021004501001001MA1999999091261MD1999999+0001REMSYN011333   58000
0115833390999991989012200004-14050-042617FM-12+088299999V0201401N00361220001CN9999999N9+02471+00971100971ADDAA106000091AG10999GF100991001001999999001001KA1240M+02911MA1999999091301MD1999999+0081REMSYN017333   10291 58008
0096833390999991989012218004-14050-042617FM-12+088299999V0201401N00211220001CN0200001N9+02921+01081100931ADDAA106000091AG10999GF103991031021004501001001MA1999999091271MD1999999+0031REMSYN011333   58003
0115833390999991989012300004-14050-042617FM-12+088299999V0201401N00261220001CN9999999N9+02501+01081100971ADDAA106000091AG10999GF100991001001999999001001KA1240M+02981MA1999999091281MD1999999-0021REMSYN017333   10298 59002
0115833390999991989012312004-14050-042617FM-12+088299999V0201401N00621004201CN0200001N9+02221+01581101271ADDAA106000091AG10999GF106991061021004501001001KA1240N+01901MA1999999091561MD1999999-0021REMSYN017333   20190 59002
0137833390999991989012400004-14050-042617FM-12+088299999V0201401N00311220001CN9999999N9+01941+01591101141ADDAA106000091AG10999AY101061AY201061GF102991021021004501001001KA1240M+02931MA1999999091391MD1999999+0111MW1101REMSYN017333   10293 58011
0154833390999991989012412004-14050-042617FM-12+088299999V0200901N00721004201CN0040001N9+02051+01701101271ADDAA124000491AA299000591AG10999AY161061AY261061GF107991071021004501001001KA1240N+01751MA1999999091501MD1999999-0061MW1101REMSYN023333   20175 59006 69944
0096833390999991989012418004-14050-042617FM-12+088299999V0201401N00571220001CN0200001N9+02741+01181100881ADDAA106000091AG10999GF102991021021004501001001MA1999999091191MD1999999-0031REMSYN011333   59003
0137833390999991989012500004-14050-042617FM-12+088299999V0201401N00261220001CN9999999N9+02241+01151101011ADDAA106000091AG10999AY191061AY201061GF102991021021004501001001KA1240M+02831MA1999999091291MD1999999-0101MW1021REMSYN017333   10283 59010
0137833390999991989012512004-14050-042617FM-12+088299999V0201401N00821004201CN0200001N9+02001+01641101171ADDAA106000091AG10999AY101061AY201061GF106991061021004501001001KA1240N+01741MA1999999091431MD1999999-0071MW1101REMSYN017333   20174 59007
0096833390999991989012518004-14050-042617FM-12+088299999V0200901N00461220001CN0200001N9+02681+01421100831ADDAA106000091AG10999GF104991041021004501001001MA1999999091151MD1999999-0041REMSYN011333   59004
0143833390999991989012600004-14050-042617FM-12+088299999V0201401N00151004201CN9999999N9+01961+01761101121ADDAA106008091AG10999AY191061AY261061GF106991051021004501021001KA1240M+02781MA1999999091401MD1999999-0111MW1101REMSYN023333   10278 59011 60081
0121833390999991989012612004-14050-042617FM-12+088299999V0201401N00411004201CN0040001N9+01941+01791101301ADDAA124008091AG10999GF108991081051004501999999KA1240N+01701MA1999999091521MD1999999+0091REMSYN023333   20170 58009 60084
0096833390999991989012618004-14050-042617FM-12+088299999V0201401N00571220001CN0200001N9+02601+01651101001ADDAA106000091AG10999GF104991031021004501021001MA1999999091291MD1999999+0141REMSYN011333   58014
0143833390999991989012712004-14050-042617FM-12+088299999V0201401N00871004201CN0200001N9+02081+01781101141ADDAA124000391AG19021AY161061AY261061GF106991061021004501001001KA1240N+01781MA1999999091401MD1999999-0121MW1101REMSYN023333   20178 59012 69934
0137833390999991989012800004-14050-042617FM-12+088299999V0201401N00871220001CN9999999N9+02001+01801101051ADDAA106000091AG10999AY101061AY201061GF102991021021004501001001KA1240M+02691MA1999999091311MD1999999+0011MW1101REMSYN017333   10269 58001
0137833390999991989012812004-14050-042617FM-12+088299999V0201401N00571004201CN0200001N9+02061+01721101281ADDAA106000091AG10999AY101061AY201061GF105991051021004501001001KA1240N+01681MA1999999091521MD1999999+0121MW1101REMSYN017333   20168 58012
0096833390999991989012818004-14050-042617FM-12+088299999V0201401N00511220001CN0200001N9+02671+01441101031ADDAA106000091AG10999GF104991041021004501001001MA1999999091331MD1999999+0141REMSYN011333   58014
0115833390999991989012900004-14050-042617FM-12+088299999V0201401N00051220001CN9999999N9+02301+01581101141ADDAA106000091AG10999GF100991001001999999001001KA1240M+02721MA1999999091421MD1999999+0111REMSYN017333   10272 58011
0096833390999991989012918004-14050-042617FM-12+088299999V0200901N00461220001CN0200001N9+02621+01561101991ADDAA106000091AG10999GF104991041021004501001001MA1999999091301MD1999999-0031REMSYN011333   59003
0134833390999991989013000004-14050-042617FM-12+088299999V0201401N00621220001CN9999999N9+02251+01551101132ADDAA106000091AG10999GF100991001001999999001001KA1240M+02741MA1999999091391MD1999999-0031REMSYN017333   10274 59003EQDQ01+101133APOSLP
0134833390999991989013012004-14050-042617FM-12+088299999V0201401N00721220001CN0200001N9+02141+01681101241ADDAA106000091AG10999GF104991999021004501001001KA1240N+01781MA1999999091511MD1999999-0091REMSYN017333   20178 59009EQDQ01+000032SCOTLC
0096833390999991989013018004-14050-042617FM-12+088299999V0201401N00511004201CN0200001N9+02681+01421100921ADDAA106000091AG10999GF106991061021004501001001MA1999999091241MD1999999-0061REMSYN011333   59006
0143833390999991989013100004-14050-042617FM-12+088299999V0201401N00151004201CN9999999N9+01791+01751101101ADDAA106006091AG10999AY161061AY261061GF108991081051004501999999KA1240M+02791MA1999999091341MD1999999-0051MW1101REMSYN023333   10279 59005 60061
0143833390999991989013112004-14050-042617FM-12+088299999V0200901N00461004201CN0040001N9+01931+01871101401ADDAA124006091AG10999AY161061AY261061GF108991081051004501999999KA1240N+01691MA1999999091581MD1999999+0071MW1101REMSYN023333   20169 58007 60064
0096833390999991989013118004-14050-042617FM-12+088299999V0200901N00311105001CN0200001N9+02631+01731101001ADDAA106000091AG10999GF105991041021004501001021MA1999999091291MD1999999+0051REMSYN011333   58005
0115833390999991989020100004-14050-042617FM-12+088299999V0201401N00671220001CN9999999N9+02261+01521101091ADDAA106000091AG10999GF100991001001999999001001KA1240M+02711MA1999999091351MD1999999+0011REMSYN017333   10271 58001
0115833390999991989020112004-14050-042617FM-12+088299999V0200901N00721220001CN0200001N9+02201+01631101261ADDAA106000091AG10999GF102991011021004501001021KA1240N+01741MA1999999091541MD1999999-0041REMSYN017333   20174 59004
0115833390999991989020200004-14050-042617FM-12+088299999V0201401N00311220001CN9999999N9+02541+01231100991ADDAA106000091AG10999GF102991011021004501021001KA1240M+02931MA1999999091311MD1999999-0041REMSYN017333   10293 59004
0115833390999991989020212004-14050-042617FM-12+088299999V0201401N00411220001CN0200001N9+02301+01811101081ADDAA106000091AG10999GF100991001001999999001001KA1240N+01681MA1999999091401MD1999999-0141REMSYN017333   20168 59014
0096833390999991989020218004-14050-042617FM-12+088299999V0201401N00461220001CN0200001N9+03021+01351100641ADDAA106000091AG10999GF102991021021004501001001MA1999999091041MD1999999-0221REMSYN011333   59022
0115833390999991989020300004-14050-042617FM-12+088299999V0201401N00151220001CN9999999N9+02521+01241100731ADDAA106000091AG10999GF100991001001999999001001KA1240M+03071MA1999999091091MD1999999-0221REMSYN017333   10307 59022
0115833390999991989020312004-14050-042617FM-12+088299999V0200501N00151045001CN0200001N9+02401+01911101021ADDAA106000091AG10999GF105991041021004501031001KA1240N+01961MA1999999091351MD1999999-0051REMSYN017333   20196 59005
0124833390999991989020318004-14050-042617FM-12+088299999V0201801N00571004201CN0040001N9+02081+01951100781ADDAA106002091AG10999AY191061AY261061GF107991061021004501021999MA1999999091081MD1999999+0041MW1601REMSYN017333   58004 60021
0143833390999991989020400004-14050-042617FM-12+088299999V0202401N00361220001CN9999999N9+02381+01841100761ADDAA106018091AG10999AY161061AY261061GF102991021021008001001001KA1240M+03151MA1999999091121MD1999999+0031MW1131REMSYN023333   10315 58003 60181
0143833390999991989020412004-14050-042617FM-12+088299999V0202301N00311004201CN0040001N9+02041+01961101241ADDAA124021091AG10999AY161061AY261061GF108991081051004501999999KA1240N+01741MA1999999091511MD1999999+0011MW1101REMSYN023333   20174 58001 60214
0096833390999991989020418004-14050-042617FM-12+088299999V0203201N00211004201CN0200001N9+02741+01571100871ADDAA106000091AG10999GF106991051021004501021001MA1999999091191MD1999999+0111REMSYN011333   58011
0137833390999991989020500004-14050-042617FM-12+088299999V0203201N00101220001CN9999999N9+02301+01981101051ADDAA106000091AG10999AY101061AY201061GF103991031021004501001001KA1240M+02911MA1999999091381MD1999999+0221MW1101REMSYN017333   10291 58022
0137833390999991989020512004-14050-042617FM-12+088299999V0203201N00261004201CN0200001N9+02271+01961101271ADDAA106000091AG10999AY101061AY201061GF106991051021004501021001KA1240N+01971MA1999999091551MD1999999+0041MW1101REMSYN017333   20197 58004
0085833390999991989020518004-14050-042617FM-12+088299999V0201801N00151004201CN0026001N9+01971+01931101071ADDAG10999AY191061AY261061GF108991081051004501999999MA1999999091331MW1611REMSYN003333
0154833390999991989020600004-14050-042617FM-12+088299999V0209991C00001004201CN9999999N9+01951+01941101251ADDAA106000691AA299000591AG10999AY161061AY261061GF105991051021004501001001KA1240M+02771MA1999999091501MD1999999+0161MW1101REMSYN023333   10277 58016 69961
0143833390999991989020612004-14050-042617FM-12+088299999V0200901N00311004201CN0040001N9+02181+01921101291ADDAA124010091AG10999AY161061AY261061GF107991061021004501021999KA1240N+01801MA1999999091531MD1999999-0021MW1101REMSYN023333   20180 59002 60104
0096833390999991989020618004-14050-042617FM-12+088299999V0201401N00361004201CN0200001N9+02551+01981100881ADDAA106000091AG10999GF106991051021004501001021MA1999999091171MD1999999-0161REMSYN011333   59016
0154833390999991989020812004-14050-042617FM-12+088299999V0201401N00311004201CN0040001N9+02081+01981101141ADDAA124000691AA299000591AG10999AY161061AY261061GF108991081051004501999999KA1240N+01821MA1999999091401MD1999999-0121MW1101REMSYN023333   20182 59012 69964
0096833390999991989020818004-14050-042617FM-12+088299999V0203601N00411004201CN0200001N9+02581+01851100821ADDAA106000091AG10999GF106991051021004501001021MA1999999091141MD1999999-0021REMSYN011333   59002
0137833390999991989020900004-14050-042617FM-12+088299999V0201801N00101220001CN9999999N9+02281+02011100931ADDAA106000091AG10999AY101061AY201061GF104991041021004501001001KA1240M+02741MA1999999091231MD1999999-0061MW1131REMSYN017333   10274 59006
0096833390999991989020918004-14050-042617FM-12+088299999V0200901N00361004201CN0200001N9+02801+01661100931ADDAA106000091AG10999GF105991051021004501001001MA1999999091261MD1999999+0121REMSYN011333   58012
0115833390999991989021000004-14050-042617FM-12+088299999V0201401N00101220001CN9999999N9+02441+01591101131ADDAA106000091AG10999GF102991021021004501001001KA1240M+02891MA1999999091421MD1999999+0191REMSYN017333   10289 58019
0137833390999991989021012004-14050-042617FM-12+088299999V0209999999999004201CN0200001N9+02141+01971101361ADDAA106000091AG10999AY101061AY201061GF107991061021004501031001KA1240N+01881MA1999999091641MD1999999+0061MW1101REMSYN017333   20188 58006
0096833390999991989021018004-14050-042617FM-12+088299999V0200901N00261004201CN0200001N9+02881+01671100921ADDAA106000091AG10999GF106991061021004501001001MA1999999091261MD1999999+0001REMSYN011333   58000
0115833390999991989021112004-14050-042617FM-12+088299999V0201401N00411220001CN0200001N9+02321+01831101321ADDAA106000091AG10999GF104991041021004501001001KA1240N+01921MA1999999091621MD1999999-0021REMSYN017333   20192 59002
0096833390999991989021118004-14050-042617FM-12+088299999V0201401N00511220001CN0200001N9+02881+01601100941ADDAA106000091AG10999GF104991041021004501001001MA1999999091311MD1999999+0051REMSYN011333   58005
0115833390999991989021212004-14050-042617FM-12+088299999V0201401N00311220001CN0200001N9+02301+01851101261ADDAA106000091AG10999GF102991021021004501001001KA1240N+01831MA1999999091551MD1999999-0071REMSYN017333   20183 59007
0115833390999991989021312004-14050-042617FM-12+088299999V0201401N00411220001CN0200001N9+02281+01771101161ADDAA106000091AG10999GF102991021021004501001001KA1240N+01881MA1999999091461MD1999999-0091REMSYN017333   20188 59009
0096833390999991989021318004-14050-042617FM-12+088299999V0201401N00311220001CN0200001N9+03001+01451100721ADDAA106000091AG10999GF104991041021008001001001MA1999999091111MD1999999-0141REMSYN011333   59014
0115833390999991989021400004-14050-042617FM-12+088299999V0202301N00101004201CN9999999N9+02501+01261100861ADDAA106000091AG10999GF105991051021004501001001KA1240M+03091MA1999999091201MD1999999+0031REMSYN017333   10309 58003
0096833390999991989021418004-14050-042617FM-12+088299999V0200501N00151220001CN0200001N9+03121+01041100521ADDAA106000091AG10999GF104991031021004501001021MA1999999090931MD1999999-0181REMSYN011333   59018
0115833390999991989021500004-14050-042617FM-12+088299999V0201801N00101220001CN9999999N9+02531+01171100671ADDAA106000091AG10999GF102991021021004501001001KA1240M+03091MA1999999091051MD1999999-0151REMSYN017333   10309 59015
0115833390999991989021512004-14050-042617FM-12+088299999V0201401N00211220001CN0200001N9+02421+01821100971ADDAA106000091AG10999GF103991031021004501001001KA1240N+01811MA1999999091311MD1999999-0011REMSYN017333   20181 59001
0096833390999991989021518004-14050-042617FM-12+088299999V0200901N00411004201CN0200001N9+99999+99999100551ADDAA106000091AG10999GF106991061021004501001001MA1999999090961MD1999999+0031REMSYN011333   58003
0115833390999991989021600004-14050-042617FM-12+088299999V0209991C00001004201CN9999999N9+02461+01611100861ADDAA106000091AG10999GF106991061021004501001001KA1240M+03111MA1999999091221MD1999999+0171REMSYN017333   10311 58017
0115833390999991989021612004-14050-042617FM-12+088299999V0201401N00211220001CN0200001N9+02301+01841101291ADDAA106000091AG10999GF102991021021004501001001KA1240N+01781MA1999999091591MD1999999+0281REMSYN017333   20178 58028
0115833390999991989021700004-14050-042617FM-12+088299999V0201401N00051220001CN9999999N9+02501+01391100931ADDAA106000091AG10999GF100991001001999999001001KA1240M+03141MA1999999091271MD1999999+0021REMSYN017333   10314 58002
0115833390999991989021712004-14050-042617FM-12+088299999V0201401N00511220001CN0200001N9+02381+02381101331ADDAA106000091AG10999GF102991021021004501001001KA1240N+01841MA1999999091641MD1999999+0051REMSYN017333   20184 58005
0115833390999991989021800004-14050-042617FM-12+088299999V0201401N00461004201CN9999999N9+02641+01351101081ADDAA106000091AG10999GF105991051021004501001001KA1240M+03101MA1999999091431MD1999999+0161REMSYN017333   10310 58016
0137833390999991989021812004-14050-042617FM-12+088299999V0201401N00621004201CN0200001N9+02181+01821101311ADDAA106000091AG10999AY101061AY201061GF106991051021004501001041KA1240N+01821MA1999999091611MD1999999-0031MW1101REMSYN017333   20182 59003
0096833390999991989021818004-14050-042617FM-12+088299999V0200901N00311045001CN0200001N9+02951+01151100981ADDAA106000091AG10999GF105991041021004501021001MA1999999091341MD1999999+0041REMSYN011333   58004
0115833390999991989021900004-14050-042617FM-12+088299999V0201401N00151220001CN9999999N9+02481+01031101111ADDAA106000091AG10999GF103991021021004501001021KA1240M+03031MA1999999091421MD1999999-0011REMSYN017333   10303 59001
0115833390999991989021912004-14050-042617FM-12+088299999V0201401N00571220001CN0200001N9+02281+01861101401ADDAA106000091AG10999GF106991021021004501001041KA1240N+01921MA1999999091691MD1999999+0081REMSYN017333   20192 58008
0115833390999991989022000004-14050-042617FM-12+088299999V0201401N00671220001CN9999999N9+02561+01591101101ADDAA106000091AG10999GF100991001001999999001001KA1240M+02971MA1999999091421MD1999999+0001REMSYN017333   10297 58000
0134833390999991989022012004-14050-042617FM-12+088299999V0201401N00671004201CN0200001N9+02321+01761101361ADDAA106000091AG10999GF106991999021004501001001KA1240N+01921MA1999999091661MD1999999-0031REMSYN017333   20192 59003EQDQ01+000052SCOTLC
0062833390999991989022018004-14050-042617FM-12+088299999V0203201N00151220001CN0200001N9+03101+01581101021ADDAA106000091AG10999GF105991031021004501001041MA1999999091411
0115833390999991989022100004-14050-042617FM-12+088299999V0201801N00101220001CN9999999N9+02581+01091101161ADDAA106000091AG10999GF102991021021004501001001KA1240M+03151MA1999999091481MD1999999+0061REMSYN017333   10315 58006
0115833390999991989022112004-14050-042617FM-12+088299999V0201401N00411220001CN0200001N9+02401+01891101381ADDAA106000091AG10999GF105991021021004501001041KA1240N+01891MA1999999091691MD1999999+0031REMSYN017333   20189 58003
0096833390999991989022118004-14050-042617FM-12+088299999V0203201N00411004201CN0200001N9+03061+01581100891ADDAA106000091AG10999GF106991061021004501001001MA1999999091271MD1999999-0141REMSYN011333   59014
0143833390999991989022200004-14050-042617FM-12+088299999V0209991C00001220001CN9999999N9+02441+01611101171ADDAA106008091AG10999AY191061AY261061GF103991031021004501001001KA1240M+03171MA1999999091451MD1999999-0031MW1021REMSYN023333   10317 59003 60081
0154833390999991989022201004-14050-042617FM-12+088299999V0209991C00001220001CN9999999N9+02441+01611101141ADDAA106000891AA299001091AG10999AY191011AY261011GF103991031021004501001001KA1240M+03171MA1999999091451MD1999999-0031MW1021REMSYN023333   10317 59003 69981
0154833390999991989022212004-14050-042617FM-12+088299999V0201401N00311220001CN0200001N9+02601+01761101241ADDAA124000891AA299001091AG10999AY161061AY261061GF102991021021004501001001KA1240N+01981MA1999999091561MD1999999-0131MW1021REMSYN023333   20198 59013 69984
0096833390999991989022218004-14050-042617FM-12+088299999V0203201N00151004201CN0200001N9+03131+01351100721ADDAA106000091AG10999GF106991061021004501001001MA1999999091121MD1999999-0151REMSYN011333   59015
0143833390999991989022312004-14050-042617FM-12+088299999V0203601N00101220001CN0200001N9+02361+01911101401ADDAA124009091AG10999AY161061AY221061GF106991041021004501001011KA1240N+01971MA1999999091661MD1999999+0101MW1021REMSYN023333   20197 58010 60094
0118833390999991989022318004-14050-042617FM-12+088299999V0202701N00361004201CN0200001N9+02981+01891100961ADDAA106000091AG10999AY121061AY221061GF108991081021004501999999MA1999999091301MD1999999+0181MW1171REMSYN011333   58018
0137833390999991989022400004-14050-042617FM-12+088299999V0202301N00151220001CN9999999N9+02281+01731101081ADDAA106000091AG10999AY191061AY221061GF103991031021004501001001KA1240M+03031MA1999999091381MD1999999-0011MW1021REMSYN017333   10303 59001
0132833390999991989022409004-14050-042617FM-12+088299999V0202001N000519999999N0500001N9+99999+99999100141ADDAG10999GF105991999999999999999999MA1999999999999MD1710021+9999EQDQ01+999990APOSP Q02 -01973ATOT  Q03 -02393ATOD  Q04 089003APOSP 
0182833390999991989022412004-14050-042617FM-12+088299999V0201401N00261220001CN0200001N9+02322+01762101192ADDAA106000091AG10999GF102991021021004501001001KA1240N+01861MA1999999091482MD1999999-0181REMSYN017333   20186 59018EQDQ01+029643ATOT  Q02+029083ATOD  Q03+091483APOSP Q04+101193APOSLP
0096833390999991989022418004-14050-042617FM-12+088299999V0201401N00411220001CN0200001N9+99999+99999100871ADDAA106000091AG10999GF102991021021004501001001MA1999999091241MD1999999-0061REMSYN011333   59006
0115833390999991989022500004-14050-042617FM-12+088299999V0201801N00101220001CN9999999N9+02471+00931100971ADDAA106000091AG10999GF102991021021004501001001KA1240M+03051MA1999999091301MD1999999-0081REMSYN017333   10305 59008
0115833390999991989022512004-14050-042617FM-12+088299999V0201401N00261004201CN0200001N9+02241+01901101321ADDAA106000091AG10999GF105991051021004501001001KA1240N+01941MA1999999091611MD1999999+0131REMSYN017333   20194 58013
0096833390999991989022518004-14050-042617FM-12+088299999V0200901N00261220001CN0200001N9+03121+01521100831ADDAA106000091AG10999GF104991041021004501001001MA1999999091221MD1999999-0021REMSYN011333   59002
0115833390999991989022600004-14050-042617FM-12+088299999V0201801N00101220001CN9999999N9+02521+01551101011ADDAA106000091AG10999GF100991001001999999001001KA1240M+03231MA1999999091341MD1999999+0041REMSYN017333   10323 58004
0115833390999991989022612004-14050-042617FM-12+088299999V0201401N00211220001CN0200001N9+02481+01851101261ADDAA106000091AG10999GF104991031021004501001041KA1240N+01841MA1999999091601MD1999999-0011REMSYN017333   20184 59001
0096833390999991989022618004-14050-042617FM-12+088299999V0201401N00511045001CN0200001N9+03081+01401100901ADDAA106000091AG10999GF105991041021004501021001MA1999999091281MD1999999+0061REMSYN011333   58006
0115833390999991989022712004-14050-042617FM-12+088299999V0209999999999004201CN0200001N9+02221+01801101581ADDAA106000091AG10999GF106991061021004501001001KA1240N+00001MA1999999091851MD1999999+0251REMSYN017333   20000 58025
0096833390999991989022718004-14050-042617FM-12+088299999V0200901N00511220001CN0200001N9+02921+01621101241ADDAA106000091AG10999GF103991031021004501001001MA1999999091591MD1999999+0311REMSYN011333   58031
0115833390999991989022800004-14050-042617FM-12+088299999V0201801N00411220001CN9999999N9+02441+01661101411ADDAA106000091AG10999GF102991021021004501001001KA1240M+03011MA1999999091691MD1999999+0131REMSYN017333   10301 58013
0115833390999991989022812004-14050-042617FM-12+088299999V0201401N00721004201CN0200001N9+02121+01571101501ADDAA106000091AG10999GF106991061021004501001001KA1240N+01741MA1999999091801MD1999999-0051REMSYN017333   20174 59005
0096833390999991989022818004-14050-042617FM-12+088299999V0201401N00261220001CN0200001N9+02941+01051101221ADDAA106000091AG10999GF104991041021004501001001MA1999999091541MD1999999-0051REMSYN011333   59005
0115833390999991989030100004-14050-042617FM-12+088299999V0201401N00311220001CN9999999N9+02481+01031101311ADDAA106000091AG10999GF100991001001999999001001KA1240M+02991MA1999999091591MD1999999-0101REMSYN017333   10299 59010
0115833390999991989030112004-14050-042617FM-12+088299999V0201401N00821220001CN0200001N9+02301+01651101381ADDAA106000091AG10999GF102991021021004501001001KA1240N+01901MA1999999091671MD1999999-0131REMSYN017333   20190 59013
0096833390999991989030118004-14050-042617FM-12+088299999V0200901N00211220001CN0200001N9+03021+01151100801ADDAA106000091AG10999GF104991041021004501001001MA1999999091191MD1999999-0351REMSYN011333   59035
0115833390999991989030200004-14050-042617FM-12+088299999V0201401N00101220001CN9999999N9+02521+01311100901ADDAA106000091AG10999GF100991001001999999001001KA1240M+03091MA1999999091241MD1999999-0251REMSYN017333   10309 59025
0154833390999991989030212004-14050-042617FM-12+088299999V0201401N00051004201CN0040001N9+02021+01891101241ADDAA124000491AA299000591AG10999AY161061AY261061GF107991061021004501021001KA1240N+01961MA1999999091521MD1999999-0151MW1601REMSYN023333   20196 59015 69944
0135833390999991989030218004-14050-042617FM-12+088299999V0200901N00151004201CN0200001N9+02601+01871101011ADDAA106000691AA299000591AG10999AY161061AY261061GF106991061021004501001001MA1999999091361MD1999999+0141MW1021REMSYN017333   58014 69961
0115833390999991989030300004-14050-042617FM-12+088299999V0202701N00101220001CN9999999N9+02331+01631101081ADDAA106000091AG10999GF100991001001999999001001KA1240M+02721MA1999999091351MD1999999+0111REMSYN017333   10272 58011
0154833390999991989030312004-14050-042617FM-12+088299999V0201401N00261220001CN0200001N9+02351+01911101391ADDAA124000691AA299000591AG10999AY161061AY221061GF104991041021004501001001KA1240N+02041MA1999999091671MD1999999+0151MW1021REMSYN023333   20204 58015 69964
0107833390999991989030318004-14050-042617FM-12+088299999V0202301N00461004201CN0200001N9+02241+01991101071ADDAG10999AY191061AY261061GF108991061021004501999999MA1999999091351MD1999999+0021MW1021REMSYN011333   58002
0115833390999991989030400004-14050-042617FM-12+088299999V0202301N00101220001CN9999999N9+02381+01561101091ADDAA106000091AG10999GF104991041021004501001001KA1240M+03031MA1999999091401MD1999999+0051REMSYN017333   10303 58005
0143833390999991989030412004-14050-042617FM-12+088299999V0201401N00211045001CN0200001N9+02261+01901101281ADDAA124003091AG10999AY161061AY221061GF106991041021004501031001KA1240N+02101MA1999999091561MD1999999-0111MW1021REMSYN023333   20210 59011 60034
0096833390999991989030418004-14050-042617FM-12+088299999V0202301N00151004201CN0200001N9+03121+01561100691ADDAA106000091AG10999GF106991061021004501001001MA1999999091101MD1999999-0301REMSYN011333   59030
0115833390999991989030500004-14050-042617FM-12+088299999V0202701N00311220001CN9999999N9+02441+01741100961ADDAA106000091AG10999GF103991031021004501001001KA1240M+03151MA1999999091281MD1999999-0121REMSYN017333   10315 59012
0115833390999991989030512004-14050-042617FM-12+088299999V0203201N00211045001CN0200001N9+02541+01811100981ADDAA106000091AG10999GF106991041021004501031001KA1240N+01951MA1999999091341MD1999999-0221REMSYN017333   20195 59022
0124833390999991989030518004-14050-042617FM-12+088299999V0209991C00001045001CN0200001N9+02221+01691100691ADDAA106001091AG10999AY191061AY261061GF107991031021004501031001MA1999999091011MD1999999-0091MW1021REMSYN017333   59009 60011
0115833390999991989030600004-14050-042617FM-12+088299999V0202701N00261004201CN9999999N9+02161+01861100851ADDAA106000091AG10999GF105991051021004501001001KA1240M+02831MA1999999091181MD1999999-0101REMSYN017333   10283 59010
0143833390999991989030612004-14050-042617FM-12+088299999V0203201N00261004201CN0200001N9+02321+01831100991ADDAA124001091AG10999AY161061AY261061GF106991051021004501021001KA1240N+01781MA1999999091291MD1999999-0051MW1021REMSYN023333   20178 59005 60014
0096833390999991989030618004-14050-042617FM-12+088299999V0202301N00261220001CN0200001N9+02961+01571100461ADDAA106000091AG10999GF104991041021004501001001MA1999999090861MD1999999-0151REMSYN011333   59015
0152833390999991989030700004-14050-042617FM-12+088299999V0201801N00261004201CN9999999N9+02171+01991999999ADDAA106004091AG10999AY161061AY261061GF108991081051004501999999KA1240M+03101MA1999999091171MD1999999-0111ME1100869MW1171REMSYN023333   10310 59011 60041
0143833390999991989030712004-14050-042617FM-12+088299999V0203201N00311045001CN0200001N9+02201+01991100911ADDAA124015091AG10999AY191061AY261061GF106991041021004501031001KA1240N+02021MA1999999091211MD1999999-0081MW1021REMSYN023333   20202 59008 60154
0124833390999991989030718004-14050-042617FM-12+088299999V0200501N00151045001CN0200001N9+02601+01991100571ADDAA106001091AG10999AY161061AY221061GF108991031021004501021041MA1999999090921MD1999999+0061MW1021REMSYN017333   58006 60011
0132833390999991989030800004-14050-042617FM-12+088299999V0203201N00101220001CN9999999N9+02081+01961100911ADDAA106000291AA299000391AG10999GF104991041021004501001001KA1240M+02631MA1999999091201MD1999999+0031REMSYN023333   10263 58003 69921
0143833390999991989030812004-14050-042617FM-12+088299999V0203201N00311004201CN0040001N9+02101+01951101061ADDAA124002091AG10999AY161061AY261061GF106991051021004501021001KA1240N+01861MA1999999091331MD1999999+0121MW1101REMSYN023333   20186 58012 60024
0096833390999991989030818004-14050-042617FM-12+088299999V0203201N00461004201CN0200001N9+02721+01881100651ADDAA106000091AG10999GF106991061021004501001001MA1999999091001MD1999999+0081REMSYN011333   58008
0154833390999991989030900004-14050-042617FM-12+088299999V0203601N00051004201CN9999999N9+02151+02091101021ADDAA106000291AA299000391AG10999AY161061AY261061GF108991081051004501999999KA1240M+02811MA1999999091291MD1999999+0091MW1131REMSYN023333   10281 58009 69921
0143833390999991989030912004-14050-042617FM-12+088299999V0203201N00411004201CN0200001N9+02031+01911101201ADDAA124060091AG19005AY161061AY221061GF105991051021004501001001KA1240N+01821MA1999999091451MD1999999+0121MW1021REMSYN023333   20182 58012 60604
0096833390999991989030918004-14050-042617FM-12+088299999V0203201N00511220001CN0200001N9+02731+01761100721ADDAA106000091AG10999GF105991031021004501001011MA1999999091051MD1999999+0051REMSYN011333   58005
0115833390999991989031000004-14050-042617FM-12+088299999V0209991C00001220001CN9999999N9+02301+01981101031ADDAA106000091AG10999GF102991021021004501001001KA1240M+02771MA1999999091311MD1999999+0021REMSYN017333   10277 58002
0137833390999991989031012004-14050-042617FM-12+088299999V0203201N00461004201CN0200001N9+02321+02031101101ADDAA106000091AG10999AY101061AY201061GF106991061021004501001001KA1240N+02061MA1999999091401MD1999999-0051MW1101REMSYN017333   20206 59005
0096833390999991989031018004-14050-042617FM-12+088299999V0203201N00211220001CN0200001N9+02761+01801100691ADDAA106000091AG10999GF104991031021004501001021MA1999999091071MD1999999+0021REMSYN011333   58002
0137833390999991989031100004-14050-042617FM-12+088299999V0209991C00001004201CN9999999N9+02301+02141101101ADDAA106000091AG10999AY101061AY201061GF108991081051004501999999KA1240M+02881MA1999999091401MD1999999+0091MW1101REMSYN017333   10288 58009
0154833390999991989031112004-14050-042617FM-12+088299999V0203601N00151004201CN0200001N9+02481+02051101171ADDAA124000691AA299000591AG10999AY161061AY261061GF106991051021004501031001KA1240N+01961MA1999999091481MD1999999+0081MW1021REMSYN023333   20196 58008 69964
0124833390999991989031118004-14050-042617FM-12+088299999V0200901N00151045001CN0200001N9+02551+02191100831ADDAA106016091AG10999AY161061AY261061GF105991041021004501021001MA1999999091151MD1999999+0081MW1101REMSYN017333   58008 60161
0126833390999991989031200004-14050-042617FM-12+088299999V0201801N00101004201CN9999999N9+02161+02021101081ADDAG10999AY161061AY261061GF107991061021004501021999KA1240M+02661MA1999999091381MD1999999-0021MW1131REMSYN017333   10266 59002
0143833390999991989031212004-14050-042617FM-12+088299999V0203201N00151004201CN0040001N9+02001+01971101371ADDAA124042091AG19057AY191061AY261061GF108991081051004501999999KA1240N+01921MA1999999091611MD1999999+0131MW1601REMSYN023333   20192 58013 60424
0124833390999991989031218004-14050-042617FM-12+088299999V0202701N00151004201CN0200001N9+02371+02281101001ADDAA106002091AG10999AY191061AY261061GF106991061021004501001001MA1999999091301MD1999999+0151MW1101REMSYN017333   58015 60021
0137833390999991989031300004-14050-042617FM-12+088299999V0209991C00001220001CN9999999N9+02321+02151101101ADDAA106000091AG10999AY101061AY201061GF103991031021004501001001KA1240M+02711MA1999999091371MD1999999-0011MW1101REMSYN017333   10271 59001
0143833390999991989031312004-14050-042617FM-12+088299999V0201401N00151004201CN0200001N9+02461+02191101181ADDAA124002091AG10999AY161061AY221061GF106991061021004501001001KA1240N+02021MA1999999091491MD1999999-0121MW1021REMSYN023333   20202 59012 60024
0143833390999991989031400004-14050-042617FM-12+088299999V0202701N00311004201CN9999999N9+02081+01801101151ADDAA106001091AG10999AY191061AY261061GF108991061021004501021999KA1240M+03001MA1999999091441MD1999999+0071MW1171REMSYN023333   10300 58007 60011
0143833390999991989031412004-14050-042617FM-12+088299999V0201401N00211004201CN0200001N9+02301+02131101221ADDAA124001091AG10999AY161061AY261061GF106991051021004501021001KA1240N+01921MA1999999091491MD1999999+0001MW1101REMSYN023333   20192 58000 60014
0118833390999991989031418004-14050-042617FM-12+088299999V0202301N00311004201CN0200001N9+02501+01891100861ADDAA106000091AG10999AY191061AY201061GF105991051021004501001001MA1999999091171MD1999999+0041MW1021REMSYN011333   58004
0084833390999991989031500004-14050-042617FM-12+088299999V0202301N00051220001CN9999999N9+02281+01981100921ADDAA106000091AG10999AY101061AY201061GF103991021021004501001021MA1999999091241MW1101
0115833390999991989031512004-14050-042617FM-12+088299999V0201401N00261220001CN0200001N9+02301+01981101131ADDAA106000091AG10999GF103991031021004501001001KA1240N+01841MA1999999091431MD1999999-0061REMSYN017333   20184 59006
0096833390999991989031518004-14050-042617FM-12+088299999V0201401N00411220001CN0200001N9+02881+01831100681ADDAA106000091AG10999GF102991021021004501001001MA1999999091031MD1999999-0141REMSYN011333   59014
0137833390999991989031612004-14050-042617FM-12+088299999V0201401N00511105001CN0200001N9+02261+01981101251ADDAA106000091AG10999AY101061AY201061GF105991041021004501001021KA1240N+01901MA1999999101551MD1999999+0121MW1101REMSYN017333   20190 58012
0115833390999991989031618004-14050-042617FM-12+088299999V0201401N00411220001CN0200001N9+02681+01761100851ADDAA106000091AG10999GF103991031021004501001001MA1999999091192MD1999999+0161REMSYN011333   58016EQDQ01+091193APOSP 
0115833390999991989031700004-14050-042617FM-12+088299999V0201401N00411220001CN9999999N9+02261+01751101111ADDAA106000091AG10999GF104991041021004501001001KA1240M+02751MA1999999091401MD1999999+0101REMSYN017333   10275 58010
0115833390999991989031712004-14050-042617FM-12+088299999V0200901N00671220001CN0200001N9+02121+01601101331ADDAA106000091AG10999GF104991041021004501001001KA1240N+01821MA1999999091591MD1999999+0041REMSYN017333   20182 58004
0096833390999991989031718004-14050-042617FM-12+088299999V0201401N00621220001CN0200001N9+02621+99999100991ADDAA106000091AG10999GF103991031021004501001001MA1999999091311MD1999999+0121REMSYN011333   58012
0115833390999991989031800004-14050-042617FM-12+088299999V0201401N00621220001CN9999999N9+02241+01641101201ADDAA106000091AG10999GF105991021021004501001041KA1240M+02691MA1999999091471MD1999999+0071REMSYN017333   10269 58007
0115833390999991989031812004-14050-042617FM-12+088299999V0201401N00771004201CN0200001N9+99999+99999101361ADDAA106000091AG10999GF105991051021004501001001KA1240N+01861MA1999999091621MD1999999+0031REMSYN017333   20186 58003
0096833390999991989031818004-14050-042617FM-12+088299999V0201401N00511220001CN0200001N9+02681+01671101021ADDAA106000091AG10999GF103991031021004501001001MA1999999091341MD1999999+0031REMSYN011333   58003
0137833390999991989031900004-14050-042617FM-12+088299999V0201401N00621004201CN9999999N9+02281+01921101211ADDAA106000091AG10999AY101061AY201061GF106991061021004501001001KA1240M+02751MA1999999091481MD1999999+0011MW1101REMSYN017333   10275 58001
0126833390999991989031912004-14050-042617FM-12+088299999V0201401N00461004201CN0040001N9+02101+01891101401ADDAG10999AY101061AY201061GF108991081051004501999999KA1240N+01841MA1999999091651MD1999999+0031MW1101REMSYN017333   20184 58003
0135833390999991989031918004-14050-042617FM-12+088299999V0201801N00821004201CN0200001N9+02141+02021101171ADDAA106000291AA299000391AG10999AY141061AY221061GF108991051021004501021999MA1999999091421MD1999999+0081MW1601REMSYN017333   58008 69921
0143833390999991989032000004-14050-042617FM-12+088299999V0200901N00821220001CN9999999N9+02081+01761101291ADDAA106002091AG10999AY191061AY261061GF104991041021004501001001KA1240M+02641MA1999999091541MD1999999+0061MW1021REMSYN023333   10264 58006 60021
0143833390999991989032012004-14050-042617FM-12+088299999V0201401N00821004201CN0200001N9+02061+01721101371ADDAA124002091AG10999AY161061AY261061GF106991061021004501001001KA1240N+01881MA1999999091601MD1999999-0051MW1101REMSYN023333   20188 59005 60024
0096833390999991989032018004-14050-042617FM-12+088299999V0200901N00101220001CN0200001N9+02661+01531101001ADDAA106000091AG10999GF104991041021004501001001MA1999999091311MD1999999-0111REMSYN011333   59011
0137833390999991989032100004-14050-042617FM-12+088299999V0201401N00461004201CN9999999N9+02221+02081101231ADDAA106000091AG10999AY101061AY201061GF108991081051004501999999KA1240M+02711MA1999999091491MD1999999-0051MW1101REMSYN017333   10271 59005
0143833390999991989032112004-14050-042617FM-12+088299999V0201401N00981004201CN0200001N9+01981+01781101331ADDAA124003091AG10999AY101061AY221061GF106991061021004501001001KA1240N+01771MA1999999091571MD1999999-0031MW1021REMSYN023333   20177 59003 60034
0096833390999991989032118004-14050-042617FM-12+088299999V0201401N00721220001CN0200001N9+02661+01711101001ADDAA106000091AG10999GF103991031021004501001001MA1999999091311MD1999999+0001REMSYN011333   58000
0115833390999991989032200004-14050-042617FM-12+088299999V0201401N00411220001CN9999999N9+02241+01641101141ADDAA106000091AG10999GF104991021021004501031001KA1240M+02691MA1999999091401MD1999999-0091REMSYN017333   10269 59009
0115833390999991989032212004-14050-042617FM-12+088299999V0201801N00671004201CN0200001N9+02041+01621101271ADDAA106000091AG10999GF105991051021004501001001KA1240N+01741MA1999999091531MD1999999-0041REMSYN017333   20174 59004
0096833390999991989032218004-14050-042617FM-12+088299999V0201401N00511220001CN0200001N9+02421+01771101011ADDAA106000091AG10999GF104991041021004501001001MA1999999091291MD1999999-0021REMSYN011333   59002
0115833390999991989032300004-14050-042617FM-12+088299999V0201401N00571220001CN9999999N9+02321+01791101091ADDAA106000091AG10999GF102991021021004501001001KA1240M+02551MA1999999091371MD1999999-0031REMSYN017333   10255 59003
0115833390999991989032312004-14050-042617FM-12+088299999V0201401N00411004201CN0200001N9+02781+01881101421ADDAA106000091AG10999GF106991061021004501001001KA1240N+01861MA1999999091681MD1999999+0151REMSYN017333   20186 58015
0096833390999991989032318004-14050-042617FM-12+088299999V0201401N00151220001CN0200001N9+02741+01541100951ADDAA106000091AG10999GF102991021021004501001001MA1999999091281MD1999999-0011REMSYN011333   59001
0137833390999991989032412004-14050-042617FM-12+088299999V0201401N00461004201CN0200001N9+02121+01881101311ADDAA106000091AG10999AY101061AY201061GF106991061021004501001001KA1240N+01901MA1999999091571MD1999999-0111MW1101REMSYN017333   20190 59011
0096833390999991989032418004-14050-042617FM-12+088299999V0200901N00461220001CN0200001N9+02741+01671100931ADDAA106000091AG10999GF102991021021004501001001MA1999999091251MD1999999-0031REMSYN011333   59003
0134833390999991989032500004-14050-042617FM-12+088299999V0201401N00361220001CN9999999N9+02421+01431101111ADDAA106000091AG10999GF103991999021004501001001KA1240M+02791MA1999999091401MD1999999+0021REMSYN017333   10279 58002EQDQ01+000022SCOTLC
0115833390999991989032512004-14050-042617FM-12+088299999V0201401N00721004201CN0200001N9+02041+01781101401ADDAA106000091AG10999GF106991061021004501001001KA1240N+01821MA1999999091661MD1999999+0091REMSYN017333   20182 58009
0096833390999991989032518004-14050-042617FM-12+088299999V0201401N00211220001CN0200001N9+02621+01701101011ADDAA106000091AG10999GF106991031021004501001041MA1999999091351MD1999999+0101REMSYN011333   58010
0115833390999991989032600004-14050-042617FM-12+088299999V0201401N00461220001CN9999999N9+02141+01971101321ADDAA106000091AG10999GF102991021021004501001001KA1240M+02651MA1999999091561MD1999999+0161REMSYN017333   10265 58016
0156833390999991989032612004-14050-042617FM-12+088299999V0201401N00411004201CN0040001N9+01981+01881101511ADDAA106999999AG10999AY101061AY201061GF108991081051004501999999KA1240N+01841MA1999999091731MD1999999+0071MW1601REMSYN017333   20184 58007EQDQ01  00002PRCP06
0096833390999991989032618004-14050-042617FM-12+088299999V0201401N00571004201CN0200001N9+02601+01711101071ADDAA106000091AG10999GF106991051021004501021001MA1999999091371MD1999999+0021REMSYN011333   58002
0115833390999991989032700004-14050-042617FM-12+088299999V0201401N00571220001CN9999999N9+02221+01841101291ADDAA106000091AG10999GF102991021021004501001001KA1240M+02631MA1999999091541MD1999999-0021REMSYN017333   10263 59002
0115833390999991989032712004-14050-042617FM-12+088299999V0201401N00671004201CN0200001N9+02041+01781101571ADDAA106000091AG10999GF106991061021004501001001KA1240N+01781MA1999999091801MD1999999+0071REMSYN017333   20178 58007
0115833390999991989032800004-14050-042617FM-12+088299999V0201401N00511220001CN9999999N9+02131+01681101441ADDAA106000091AG10999GF102991021021004501001001KA1240M+02771MA1999999091671MD1999999+0131REMSYN017333   10277 58013
0115833390999991989032812004-14050-042617FM-12+088299999V0201401N00511004201CN0200001N9+02181+01791101661ADDAA106000091AG10999GF106991051021004501031001KA1240N+01761MA1999999091881MD1999999+0081REMSYN017333   20176 58008
0115833390999991989032900004-14050-042617FM-12+088299999V0201401N00511220001CN9999999N9+02321+01281101351ADDAA106000091AG10999GF102991021021004501001001KA1240M+02851MA1999999091621MD1999999-0071REMSYN017333   10285 59007
0115833390999991989032912004-14050-042617FM-12+088299999V0201401N00511045001CN0200001N9+02021+01801101551ADDAA106000091AG10999GF108991041051004501021999KA1240N+01801MA1999999091781MD1999999-0101REMSYN017333   20180 59010
0096833390999991989032918004-14050-042617FM-12+088299999V0200901N00511220001CN0200001N9+02751+01661101111ADDAA106000091AG10999GF103991031021004501001001MA1999999091421MD1999999-0141REMSYN011333   59014
0115833390999991989033000004-14050-042617FM-12+088299999V0209999999999220001CN9999999N9+02121+01281101431ADDAA106000091AG10999GF102991021021004501001001KA1240M+02781MA1999999091651MD1999999+0031REMSYN017333   10278 58003
0137833390999991989033012004-14050-042617FM-12+088299999V0201401N00621004201CN0040001N9+02061+01781101541ADDAA106000091AG10999AY101061AY201061GF106991051021004501021001KA1240N+01801MA1999999091761MD1999999-0021MW1101REMSYN017333   20180 59002
0096833390999991989033018004-14050-042617FM-12+088299999V0201401N00511004201CN0200001N9+02581+01551101151ADDAA106000091AG10999GF106991061021004501001001MA1999999091481MD1999999+0061REMSYN011333   58006
0143833390999991989033100004-14050-042617FM-12+088299999V0201401N00621004201CN9999999N9+02041+01821101391ADDAA106001091AG10999AY191061AY261061GF106991061021004501001001KA1240M+02611MA1999999091621MD1999999-0031MW1101REMSYN023333   10261 59003 60011
0143833390999991989033112004-14050-042617FM-12+088299999V0201401N00411004201CN0200001N9+02041+01781101561ADDAA124001091AG10999AY161061AY221061GF106991061021004501001001KA1240N+01781MA1999999091741MD1999999-0021MW1021REMSYN023333   20178 59002 60014
0096833390999991989033118004-14050-042617FM-12+088299999V0201401N00311220001CN0200001N9+02661+01711101131ADDAA106000091AG10999GF104991041021004501001001MA1999999091441MD1999999-0041REMSYN011333   59004
0115833390999991989040100004-14050-042617FM-12+088299999V0201401N00151220001CN9999999N9+02201+01721101331ADDAA106000091AG10999GF102991021021004501001001KA1240M+02691MA1999999091571MD1999999+0051REMSYN017333   10269 58005
0115833390999991989040112004-14050-042617FM-12+088299999V0201401N00821004201CN0200001N9+02061+01661101591ADDAA106000091AG10999GF106991061021004501001001KA1240N+01731MA1999999091821MD1999999+0081REMSYN017333   20173 58008
0096833390999991989040118004-14050-042617FM-12+088299999V0200901N00461220001CN0200001N9+02761+01281101071ADDAA106000091AG10999GF103991031021004501001001MA1999999091381MD1999999-0061REMSYN011333   59006
0115833390999991989040200004-14050-042617FM-12+088299999V0201401N00411220001CN9999999N9+02301+01651101331ADDAA106000091AG10999GF100991001001999999001001KA1240M+02791MA1999999091591MD1999999+0021REMSYN017333   10279 58002
0115833390999991989040212004-14050-042617FM-12+088299999V0201401N00511220001CN0200001N9+02161+01761101441ADDAA106000091AG10999GF104991041021004501001001KA1240N+01821MA1999999091701MD1999999-0121REMSYN017333   20182 59012
0096833390999991989040218004-14050-042617FM-12+088299999V0201401N00211220001CN0200001N9+02801+01601100951ADDAA106000091AG10999GF102991021021004501001001MA1999999091291MD1999999-0091REMSYN011333   59009
0115833390999991989040300004-14050-042617FM-12+088299999V0209991C00001220001CN9999999N9+02301+01481101181ADDAA106000091AG10999GF100991001001999999001001KA1240M+02811MA1999999091461MD1999999-0131REMSYN017333   10281 59013
0115833390999991989040312004-14050-042617FM-12+088299999V0201401N00571220001CN0200001N9+02201+01801101411ADDAA106000091AG10999GF103991031021004501001001KA1240N+01861MA1999999091671MD1999999-0031REMSYN017333   20186 59003
0096833390999991989040318004-14050-042617FM-12+088299999V0201401N00311045001CN0200001N9+02801+01111100891ADDAA106000091AG10999GF105991041021004501021001MA1999999091251MD1999999-0041REMSYN011333   59004
0115833390999991989040400004-14050-042617FM-12+088299999V0201401N00311220001CN9999999N9+02401+01011100971ADDAA106000091AG10999GF100991001001999999001001KA1240M+02871MA1999999091291MD1999999-0171REMSYN017333   10287 59017
0115833390999991989040412004-14050-042617FM-12+088299999V0201401N00411220001CN0200001N9+02251+01711101311ADDAA106000091AG10999GF103991031021004501001001KA1240N+01731MA1999999091591MD1999999-0081REMSYN017333   20173 59008
0096833390999991989040418004-14050-042617FM-12+088299999V0201401N00511220001CN0200001N9+02901+01531100831ADDAA106000091AG10999GF102991021021004501001001MA1999999091201MD1999999-0051REMSYN011333   59005
0096833390999991989040518004-14050-042617FM-12+088299999V0201401N00721220001CN0200001N9+02741+01261101061ADDAA106000091AG10999GF104991041021004501001001MA1999999091381MD1999999+0181REMSYN011333   58018
0115833390999991989040600004-14050-042617FM-12+088299999V0201401N00361220001CN9999999N9+02291+01701101441ADDAA106000091AG10999GF102991021021004501001001KA1240M+02801MA1999999091691MD1999999+0181REMSYN017333   10280 58018
0115833390999991989040612004-14050-042617FM-12+088299999V0201401N00821004201CN0200001N9+02161+01761101531ADDAA106000091AG10999GF106991061021004501001001KA1240N+01831MA1999999091771MD1999999+0061REMSYN017333   20183 58006
0096833390999991989040618004-14050-042617FM-12+088299999V0201401N00311004201CN0200001N9+02481+01681101201ADDAA106000091AG10999GF106991061021004501001001MA1999999091481MD1999999+0101REMSYN011333   58010
0115833390999991989040700004-14050-042617FM-12+088299999V0201401N00151220001CN9999999N9+02201+01581101251ADDAA106000091AG10999GF102991021021004501001001KA1240M+02651MA1999999091521MD1999999-0171REMSYN017333   10265 59017
0096833390999991989040718004-14050-042617FM-12+088299999V0200901N00361220001CN0200001N9+02541+01481101081ADDAA106000091AG10999GF102991021021004501001001MA1999999091371MD1999999-0111REMSYN011333   59011
0115833390999991989040800004-14050-042617FM-12+088299999V0201401N00571220001CN9999999N9+02301+01631101141ADDAA106000091AG10999GF100991001001999999001001KA1240M+02671MA1999999091431MD1999999-0091REMSYN017333   10267 59009
0115833390999991989040812004-14050-042617FM-12+088299999V0201401N00671004201CN0200001N9+02061+01621101381ADDAA106000091AG10999GF106991061021004501001001KA1240N+01761MA1999999091641MD1999999-0031REMSYN017333   20176 59003
0096833390999991989040818004-14050-042617FM-12+088299999V0201401N00671220001CN0200001N9+02741+01441100981ADDAA106000091AG10999GF104991021021004501001011MA1999999091301MD1999999-0071REMSYN011333   59007
0115833390999991989040900004-14050-042617FM-12+088299999V0201401N00511220001CN9999999N9+02081+01841101251ADDAA106000091AG10999GF102991021021004501001001KA1240M+02751MA1999999091491MD1999999+0061REMSYN017333   10275 58006
0154833390999991989040912004-14050-042617FM-12+088299999V0201401N00671004201CN0040001N9+01971+01811101461ADDAA124000491AA299000591AG10999AY161061AY261061GF108991081051004501999999KA1240N+01801MA1999999091661MD1999999+0021MW1101REMSYN023333   20180 58002 69944
0096833390999991989040918004-14050-042617FM-12+088299999V0201401N00511004201CN0200001N9+02561+01101101071ADDAA106000091AG10999GF106991051021004501021001MA1999999091371MD1999999+0071REMSYN011333   58007
0154833390999991989041000004-14050-042617FM-12+088299999V0201401N00211004201CN9999999N9+02221+01901101361ADDAA106000491AA299000591AG10999AY161061AY261061GF105991051021004501001001KA1240M+02771MA1999999091591MD1999999+0101MW1131REMSYN023333   10277 58010 69941
0154833390999991989041012004-14050-042617FM-12+088299999V0201401N00671004201CN0200001N9+02041+01891101461ADDAA124000491AA299000591AG10999AY161061AY241061GF108991051051004501021999KA1240N+01881MA1999999091701MD1999999+0031MW1101REMSYN023333   20188 58003 69944
0096833390999991989041018004-14050-042617FM-12+088299999V0200901N00511004201CN0200001N9+02681+01781101111ADDAA106000091AG10999GF106991061021004501001001MA1999999091421MD1999999+0051REMSYN011333   58005
0115833390999991989041100004-14050-042617FM-12+088299999V0201401N00671220001CN9999999N9+02201+01901101231ADDAA106000091AG10999GF102991021021004501001001KA1240M+02741MA1999999091481MD1999999-0111REMSYN017333   10274 59011
0115833390999991989041112004-14050-042617FM-12+088299999V0200901N00721004201CN0200001N9+02241+01711101361ADDAA106000091AG10999GF106991061021004501001001KA1240N+01831MA1999999091621MD1999999-0081REMSYN017333   20183 59008
0096833390999991989041118004-14050-042617FM-12+088299999V0201401N00461220001CN0200001N9+02781+01481101011ADDAA106000091AG10999GF104991041021004501001001MA1999999091331MD1999999-0091REMSYN011333   59009
0115833390999991989041200004-14050-042617FM-12+088299999V0201401N00461220001CN9999999N9+02321+01631101131ADDAA106000091AG10999GF100991001001999999001001KA1240M+02491MA1999999091431MD1999999-0051REMSYN017333   10249 59005
0115833390999991989041212004-14050-042617FM-12+088299999V0201401N00621004201CN0200001N9+02061+01741101341ADDAA106000091AG10999GF106991061021004501001001KA1240N+01801MA1999999091601MD1999999-0021REMSYN017333   20180 59002
0115833390999991989041300004-14050-042617FM-12+088299999V0209991C00001220001CN9999999N9+02281+01661101161ADDAA106000091AG10999GF103991031021004501001001KA1240M+02851MA1999999091431MD1999999+0001REMSYN017333   10285 58000
0115833390999991989041312004-14050-042617FM-12+088299999V0201401N00511004201CN0200001N9+02141+01821101331ADDAA106000091AG10999GF106991061021004501001001KA1240N+01841MA1999999091591MD1999999-0011REMSYN017333   20184 59001
0096833390999991989041318004-14050-042617FM-12+088299999V0201401N00411220001CN0200001N9+02781+01481100881ADDAA106000091AG10999GF104991041021004501001001MA1999999091241MD1999999+0011REMSYN011333   58001
0115833390999991989041400004-14050-042617FM-12+088299999V0201401N00671220001CN9999999N9+02341+01601101101ADDAA106000091AG10999GF102991021021004501001001KA1240M+02841MA1999999091391MD1999999-0041REMSYN017333   10284 59004
0115833390999991989041412004-14050-042617FM-12+088299999V0200901N00721004201CN0200001N9+02201+01721101281ADDAA106000091AG10999GF106991061021004501001001KA1240N+01841MA1999999091551MD1999999-0041REMSYN017333   20184 59004
0096833390999991989041418004-14050-042617FM-12+088299999V0201401N00671220001CN0200001N9+02761+01491100861ADDAA106000091AG10999GF104991041021004501001001MA1999999091201MD1999999-0041REMSYN011333   59004
0115833390999991989041500004-14050-042617FM-12+088299999V0201401N00311220001CN9999999N9+02281+01491101091ADDAA106000091AG10999GF102991021021004501001001KA1240M+02811MA1999999091381MD1999999-0011REMSYN017333   10281 59001
0115833390999991989041512004-14050-042617FM-12+088299999V0201401N00571004201CN0200001N9+02081+01761101421ADDAA106000091AG10999GF106991061021004501001001KA1240N+01801MA1999999091671MD1999999+0121REMSYN017333   20180 58012
0096833390999991989041518004-14050-042617FM-12+088299999V0201401N00461220001CN0200001N9+02721+01621101021ADDAA106000091AG10999GF103991031021004501001001MA1999999091311MD1999999+0111REMSYN011333   58011
0115833390999991989041600004-14050-042617FM-12+088299999V0201401N00511220001CN9999999N9+02421+01591101161ADDAA106000091AG10999GF103991021021004501031001KA1240M+02811MA1999999091451MD1999999+0071REMSYN017333   10281 58007
0115833390999991989041612004-14050-042617FM-12+088299999V0201401N00511004201CN0200001N9+02141+01801101451ADDAA106000091AG10999GF106991061021004501001001KA1240N+01841MA1999999091721MD1999999+0051REMSYN017333   20184 58005
0096833390999991989041618004-14050-042617FM-12+088299999V0200901N00571220001CN0200001N9+02721+01521101061ADDAA106000091AG10999GF104991041021004501001001MA1999999091381MD1999999+0071REMSYN011333   58007
0115833390999991989041700004-14050-042617FM-12+088299999V0201401N00821004201CN9999999N9+02261+01731101311ADDAA106000091AG10999GF105991051021004501001001KA1240M+02771MA1999999091571MD1999999+0121REMSYN017333   10277 58012
0096833390999991989041718004-14050-042617FM-12+088299999V0200901N00511220001CN0200001N9+02801+01391100911ADDAA106000091AG10999GF104991041021004501001001MA1999999091251MD1999999-0131REMSYN011333   59013
0115833390999991989041800004-14050-042617FM-12+088299999V0201401N00411220001CN9999999N9+02341+01051101091ADDAA106000091AG10999GF102991021021004501001001KA1240M+02821MA1999999091391MD1999999-0181REMSYN017333   10282 59018
0115833390999991989041812004-14050-042617FM-12+088299999V0200901N00621220001CN0200001N9+02161+01631101251ADDAA106000091AG10999GF102991021021004501021001KA1240N+01781MA1999999091531MD1999999-0111REMSYN017333   20178 59011
0115833390999991989041900004-14050-042617FM-12+088299999V0201801N00101220001CN9999999N9+02371+01281100971ADDAA106000091AG10999GF100991001001999999001001KA1240M+02951MA1999999091271MD1999999-0121REMSYN017333   10295 59012
0115833390999991989041912004-14050-042617FM-12+088299999V0201401N00311220001CN0200001N9+02221+01671101221ADDAA106000091AG10999GF100991001001999999001001KA1240N+01591MA1999999091511MD1999999-0021REMSYN017333   20159 59002
0115833390999991989042000004-14050-042617FM-12+088299999V0202301N00261220001CN9999999N9+02321+01131101091ADDAA106000091AG10999GF100991001001999999001001KA1240M+02991MA1999999091301MD1999999+0031REMSYN017333   10299 58003
0096833390999991989042018004-14050-042617FM-12+088299999V0201401N00261220001CN0200001N9+03061+01341100691ADDAA106000091AG10999GF103991021021004501001011MA1999999091071MD1999999-0051REMSYN011333   59005
0115833390999991989042100004-14050-042617FM-12+088299999V0201801N00461220001CN9999999N9+02601+01251100931ADDAA106000091AG10999GF102991021021004501001001KA1240M+03211MA1999999091291MD1999999-0011REMSYN017333   10321 59001
0115833390999991989042112004-14050-042617FM-12+088299999V0200901N00361045001CN0200001N9+02381+01821101251ADDAA106000091AG10999GF105991021021004501031001KA1240N+02041MA1999999091271MD1999999+0091REMSYN017333   20204 58009
0137833390999991989042200004-14050-042617FM-12+088299999V0201401N00511004201CN9999999N9+02561+01621101181ADDAA106000091AG10999AY121061AY221061GF108991081021004501999999KA1240M+03301MA1999999091501MD1999999+0211MW1131REMSYN017333   10330 58021
0115833390999991989042212004-14050-042617FM-12+088299999V0201401N00411004201CN0200001N9+02151+01821101401ADDAA106000091AG10999GF108991081021004501999999KA1240N+01941MA1999999091681MD1999999+0111REMSYN017333   20194 58011
0096833390999991989042218004-14050-042617FM-12+088299999V0200901N00511220001CN0200001N9+02801+01751100961ADDAA106000091AG10999GF104991041021004501001001MA1999999091301MD1999999+0101REMSYN011333   58010
0115833390999991989042300004-14050-042617FM-12+088299999V0200901N00151004201CN9999999N9+02361+01691101231ADDAA106000091AG10999GF106991061021004501001001KA1240M+02831MA1999999091511MD1999999+0011REMSYN017333   10283 58001
0115833390999991989042312004-14050-042617FM-12+088299999V0200901N00511004201CN0200001N9+02161+01951101441ADDAA106000091AG10999GF106991061021004501001001KA1240N+02001MA1999999091701MD1999999+0021REMSYN017333   20200 58002
0096833390999991989042318004-14050-042617FM-12+088299999V0201401N00511004201CN0200001N9+02501+01831101191ADDAA106000091AG10999GF105991051021004501001001MA1999999091481MD1999999+0181REMSYN011333   58018
0115833390999991989042400004-14050-042617FM-12+088299999V0201401N00671220001CN9999999N9+02121+01741101361ADDAA106000091AG10999GF102991021021004501001001KA1240M+02671MA1999999091661MD1999999+0151REMSYN017333   10267 58015
0115833390999991989042412004-14050-042617FM-12+088299999V0201401N00621004201CN0200001N9+01941+01721101551ADDAA106000091AG10999GF108991051051004501011021KA1240N+01801MA1999999091751MD1999999+0051REMSYN017333   20180 58005
0096833390999991989042418004-14050-042617FM-12+088299999V0201401N00511220001CN0200001N9+02581+01431101141ADDAA106000091AG10999GF103991031021004501001001MA1999999091431MD1999999-0051REMSYN011333   59005
0115833390999991989042500004-14050-042617FM-12+088299999V0201401N00671220001CN9999999N9+02191+01581101381ADDAA106000091AG10999GF102991021021004501001001KA1240M+02671MA1999999091611MD1999999-0051REMSYN017333   10267 59005
0115833390999991989042512004-14050-042617FM-12+088299999V0201401N00771220001CN0200001N9+02021+01691101471ADDAA106000091AG10999GF102991021021004501001001KA1240N+01721MA1999999091701MD1999999-0051REMSYN017333   20172 59005
0096833390999991989042518004-14050-042617FM-12+088299999V0200901N00511220001CN0200001N9+02721+01711101051ADDAA106000091AG10999GF100991001001999999001001MA1999999091351MD1999999-0081REMSYN011333   59008
0115833390999991989042600004-14050-042617FM-12+088299999V0201401N00511220001CN9999999N9+02241+01021101331ADDAA106000091AG10999GF100991001001999999001001KA1240M+02751MA1999999091591MD1999999-0021REMSYN017333   10275 59002
0115833390999991989042612004-14050-042617FM-12+088299999V0201401N00671220001CN0200001N9+02981+01571101541ADDAA106000091AG10999GF104991041021004501001001KA1240N+01681MA1999999091761MD1999999+0061REMSYN017333   20168 58006
0096833390999991989042618004-14050-042617FM-12+088299999V0201401N00051220001CN0200001N9+02681+01351101011ADDAA106000091AG10999GF102991021021004501001001MA1999999091331MD1999999-0021REMSYN011333   59002
0115833390999991989042700004-14050-042617FM-12+088299999V0201401N00511220001CN9999999N9+02261+01571101271ADDAA106000091AG10999GF100991001001999999001001KA1240M+02731MA1999999091431MD1999999-0161REMSYN017333   10273 59016
0115833390999991989042712004-14050-042617FM-12+088299999V0201401N00511220001CN0200001N9+02121+01641101471ADDAA106000091AG10999GF106991041021004501001011KA1240N+01811MA1999999091631MD1999999-0131REMSYN017333   20181 59013
0096833390999991989042718004-14050-042617FM-12+088299999V0200901N00261220001CN0200001N9+02571+01581100921ADDAA106000091AG10999GF106991021021004501001041MA1999999091231MD1999999-0101REMSYN011333   59010
0115833390999991989042800004-14050-042617FM-12+088299999V0209991C00001220001CN9999999N9+02171+01541101081ADDAA106000091AG10999GF102991021021004501001001KA1240M+02631MA1999999091351MD1999999-0081REMSYN017333   10263 59008
0115833390999991989042812004-14050-042617FM-12+088299999V0200901N00361220001CN0200001N9+02281+01771101361ADDAA106000091AG10999GF103991011021004501001011KA1240N+01681MA1999999091621MD1999999-0011REMSYN017333   20168 59001
0115833390999991989042900004-14050-042617FM-12+088299999V0202301N00261220001CN9999999N9+02321+01371101091ADDAA106000091AG10999GF100991001001999999001001KA1240M+03071MA1999999091391MD1999999+0041REMSYN017333   10307 58004
0115833390999991989042912004-14050-042617FM-12+088299999V0201401N00361220001CN0200001N9+02381+01911101401ADDAA106000091AG10999GF102991021021004501001001KA1240N+01801MA1999999091681MD1999999+0061REMSYN017333   20180 58006
0096833390999991989042918004-14050-042617FM-12+088299999V0201401N00311220001CN0200001N9+03021+01551100831ADDAA106000091AG10999GF102991021021004501001001MA1999999091221MD1999999-0041REMSYN011333   59004
0115833390999991989043000004-14050-042617FM-12+088299999V0201801N00101220001CN9999999N9+02461+01471101121ADDAA106000091AG10999GF102991021021004501001001KA1240M+03151MA1999999091441MD1999999+0051REMSYN017333   10315 58005
0084833390999991989050100004-14050-042617FM-12+088299999V0201401N00151220001CN9999999N9+02621+01191999999ADDAA106000091AG10999AY121061AY221061GF102991021021004501001001MA1999999091411MW1131
0115833390999991989050112004-14050-042617FM-12+088299999V0200901N00311220001CN0200001N9+02351+01641101391ADDAA106000091AG10999GF104991011021004501001011KA1240N+01781MA1999999091701MD1999999+0091REMSYN017333   20178 58009
0096833390999991989050118004-14050-042617FM-12+088299999V0200901N00311220001CN0200001N9+03001+01151100861ADDAA106000091AG10999GF102991021021004501001001MA1999999091251MD1999999-0021REMSYN011333   59002
0076833390999991989050200004-14050-042617FM-12+088299999V0201401N00411220001CN9999999N9+02541+01231101101ADDAA106000091AG10999GF100991001001999999001001MA1999999091431MD1810021+9999
0115833390999991989050212004-14050-042617FM-12+088299999V0201401N00311220001CN0200001N9+02261+01751101381ADDAA106000091AG10999GF103991021021004501001011KA1240N+01861MA1999999091671MD1999999-0031REMSYN017333   20186 59003
0096833390999991989050218004-14050-042617FM-12+088299999V0201401N00571220001CN0200001N9+02881+01221100841ADDAA106000091AG10999GF100991001001999999001001MA1999999091211MD1999999-0041REMSYN011333   59004
0062833390999991989050300004-14050-042617FM-12+088299999V0201401N00511220001CN9999999N9+02401+01551101111ADDAA106000091AG10999GF100991001001999999001001MA1999999091421
0115833390999991989050312004-14050-042617FM-12+088299999V0201401N00621004201CN0200001N9+02261+01841101311ADDAA106000091AG10999GF106991061021004501001001KA1240N+01901MA1999999091601MD1999999-0071REMSYN017333   20190 59007
0096833390999991989050318004-14050-042617FM-12+088299999V0200501N00411004201CN0200001N9+02841+01701100851ADDAA106000091AG10999GF105991051021004501001001MA1999999091211MD1999999+0001REMSYN011333   58000
0115833390999991989050400004-14050-042617FM-12+088299999V0200901N00511004201CN9999999N9+02021+01941101221ADDAA106000091AG10999GF106991061021004501001001KA1240M+02851MA1999999091481MD1999999+0061REMSYN017333   10285 58006
0096833390999991989050418004-14050-042617FM-12+088299999V0201401N00461220001CN0200001N9+02721+01651100961ADDAA106000091AG10999GF103991031021004501001001MA1999999091281MD1999999+0071REMSYN011333   58007
0062833390999991989050500004-14050-042617FM-12+088299999V0201401N00151220001CN9999999N9+02741+01531101081ADDAA106000091AG10999GF100991001001999999001001MA1999999091371
0115833390999991989050512004-14050-042617FM-12+088299999V0200901N00361220001CN0200001N9+02181+01781101361ADDAA106000091AG10999GF104991041021004501001001KA1240N+01801MA1999999091641MD1999999+0051REMSYN017333   20180 58005
0096833390999991989050518004-14050-042617FM-12+088299999V0201401N00411220001CN0200001N9+02881+01271999999ADDAA106000091AG10999GF102991021021004501001001MA1999999091281MD1999999+0001REMSYN011333   58000
0076833390999991989050600004-14050-042617FM-12+088299999V0202301N00101220001CN9999999N9+02361+01231101211ADDAA106000091AG10999GF100991001001999999001001MA1999999091491MD1810121+9999
0134833390999991989050612004-14050-042617FM-12+088299999V0200901N00151220001CN0200001N9+02321+01651101401ADDAA106000091AG10999GF104991999021004501001001KA1240N+01581MA1999999091681MD1999999+0041REMSYN017333   20158 58004EQDQ01+000032SCOTLC
0096833390999991989050618004-14050-042617FM-12+088299999V0200501N00151220001CN0200001N9+02941+01001100981ADDAA106000091AG10999GF103991031021004501001001MA1999999091301MD1999999-0021REMSYN011333   59002
0062833390999991989050700004-14050-042617FM-12+088299999V0201801N00151220001CN9999999N9+02521+00951101141ADDAA106000091AG10999GF100991001001999999001001MA1999999091461
0115833390999991989050712004-14050-042617FM-12+088299999V0203201N00151220001CN0200001N9+02571+01731101321ADDAA106000091AG10999GF102991021021004501001001KA1240N+02041MA1999999091641MD1999999-0041REMSYN017333   20204 59004
0096833390999991989050718004-14050-042617FM-12+088299999V0202701N00411004201CN0200001N9+03021+01431100961ADDAA106000091AG10999GF106991061021004501001001MA1999999091331MD1999999+0031REMSYN011333   58003
0115833390999991989050800004-14050-042617FM-12+088299999V0202701N00151220001CN9999999N9+02521+01491101211ADDAA106000091AG10999GF100991001001999999001001KA1240M+03231MA1999999091451MD1999999-0011REMSYN017333   10323 59001
0115833390999991989050812004-14050-042617FM-12+088299999V0201401N00621004201CN0200001N9+02321+01981101301ADDAA106000091AG10999GF106991061021004501001001KA1240N+02161MA1999999091601MD1999999-0041REMSYN017333   20216 59004
0096833390999991989050818004-14050-042617FM-12+088299999V0201401N00411004201CN0200001N9+02741+01671100841ADDAA106000091AG10999GF105991051021004501001001MA1999999091261MD1999999-0071REMSYN011333   59007
0084833390999991989050900004-14050-042617FM-12+088299999V0201401N00671004201CN9999999N9+02001+01641101371ADDAA106000091AG10999AY101061AY201061GF108991081051004501999999MA1999999091621MW1131
0143833390999991989050912004-14050-042617FM-12+088299999V0201401N00261004201CN0040001N9+01781+01581101641ADDAA124007091AG10999AY161061AY261061GF108991081051004501999999KA1240N+01661MA1999999091811MD1999999+0211MW1101REMSYN023333   20166 58021 60074
0096833390999991989050918004-14050-042617FM-12+088299999V0201401N00511004201CN0040001N9+02261+01501101381ADDAA106000091AG10999GF107991061021004501021001MA1999999091611MD1999999+0351REMSYN011333   58035
0062833390999991989051000004-14050-042617FM-12+088299999V0201401N00511220001CN9999999N9+01921+01531101611ADDAA106000091AG10999GF102991021021004501001001MA1999999091771
0115833390999991989051012004-14050-042617FM-12+088299999V0201401N00981004201CN0200001N9+01851+01281101851ADDAA106000091AG10999GF106991061021004501001001KA1240N+01621MA1999999092001MD1999999+0191REMSYN017333   20162 58019
0096833390999991989051018004-14050-042617FM-12+088299999V0201401N00821220001CN0200001N9+02361+01061101581ADDAA106000091AG10999GF103991031021004501001001MA1999999091701MD1999999+0091REMSYN011333   58009
0062833390999991989051100004-14050-042617FM-12+088299999V0201401N00361220001CN9999999N9+01961+01141101741ADDAA106000091AG10999GF102991021021004501001001MA1999999091901
0115833390999991989051112004-14050-042617FM-12+088299999V0201401N00981004201CN0200001N9+01741+01191101931ADDAA106000091AG10999GF105991051021004501001001KA1240N+01471MA1999999091971MD1999999-0031REMSYN017333   20147 59003
0096833390999991989051118004-14050-042617FM-12+088299999V0201401N00361220001CN0200001N9+02321+00811101501ADDAA106000091AG10999GF102991021021004501001001MA1999999091701MD1999999+0001REMSYN011333   58000
0115833390999991989051200004-14050-042617FM-12+088299999V0201401N00571220001CN9999999N9+01991+01131101671ADDAA106000091AG10999GF100991001001999999001001KA1240M+02391MA1999999091831MD1999999-0071REMSYN017333   10239 59007
0115833390999991989051212004-14050-042617FM-12+088299999V0201401N00671004201CN0200001N9+01771+01311101831ADDAA106000091AG10999GF106991061021004501001001KA1240N+01551MA1999999091981MD1999999+0011REMSYN017333   20155 58001
0115833390999991989051214004-14050-042617FM-12+088299999V0201401N00671004201CN0200001N9+01771+01311101831ADDAA106000091AG10999GF106991061021004501001001KA1240N+01551MA1999999091981MD1999999+0011REMSYN017333   20155 58001
0096833390999991989051218004-14050-042617FM-12+088299999V0200901N00411004201CN0200001N9+02321+01061101491ADDAA106000091AG10999GF106991051021004501001021MA1999999091711MD1999999+0011REMSYN011333   58001
0102833390999991989051300004-14050-042617FM-12+088299999V0201401N00571004201CN9999999N9+02121+01151101641ADDAA106000091AG10999GF106991061021004501001001MA1999999091821MD1999999-0011REMSYN017333   239// 59001
0115833390999991989051312004-14050-042617FM-12+088299999V0201401N01131220001CN0200001N9+01801+01251101761ADDAA106000091AG10999GF104991041021004501001001KA1240N+01541MA1999999091931MD1999999-0051REMSYN017333   20154 59005
0096833390999991989051318004-14050-042617FM-12+088299999V0201401N00871220001CN0200001N9+02541+00801101601ADDAA106000091AG10999GF102991021021004501001001MA1999999091651MD1999999-0061REMSYN011333   59006
0115833390999991989051400004-14050-042617FM-12+088299999V0201401N00511220001CN9999999N9+02031+01341101671ADDAA106000091AG10999GF102991021021004501001001KA1240M+02551MA1999999091841MD1999999+0021REMSYN017333   10255 58002
0096833390999991989051418004-14050-042617FM-12+088299999V0201401N00571220001CN0200001N9+02381+00981101431ADDAA106000091AG10999GF102991021021004501001001MA1999999091651MD1999999+0001REMSYN011333   58000
0115833390999991989051500004-14050-042617FM-12+088299999V0201401N00671220001CN9999999N9+02061+01261101591ADDAA106000091AG10999GF100991001001999999001001KA1240M+02511MA1999999091761MD1999999-0081REMSYN017333   10251 59008
0115833390999991989051512004-14050-042617FM-12+088299999V0201401N01131004201CN0040001N9+02851+01491101801ADDAA106000091AG10999GF106991061021004501001001KA1240N+01671MA1999999091961MD1999999+0001REMSYN017333   20167 58000
0096833390999991989051518004-14050-042617FM-12+088299999V0201401N00671220001CN0200001N9+02401+01131101381ADDAA106000091AG10999GF102991021021004501001001MA1999999091621MD1999999-0031REMSYN011333   59003
0115833390999991989051600004-14050-042617FM-12+088299999V0201401N00311220001CN9999999N9+02041+01101101691ADDAA106000091AG10999GF102991021021004501001001KA1240M+02431MA1999999091861MD1999999+0101REMSYN017333   10243 58010
0115833390999991989051612004-14050-042617FM-12+088299999V0200901N00981004201CN0200001N9+01761+01291101821ADDAA106000091AG10999GF106991061021004501001001KA1240N+01531MA1999999091971MD1999999+0011REMSYN017333   20153 58001
0115833390999991989051712004-14050-042617FM-12+088299999V0201401N00571004201CN0200001N9+01731+01271101801ADDAA106000091AG10999GF106991061021004501001001KA1240N+01731MA1999999091971MD1999999+0001REMSYN017333   20173 58000
0096833390999991989051718004-14050-042617FM-12+088299999V0201401N00311220001CN0200001N9+02401+00891101421ADDAA106000091AG10999GF102991021021004501001001MA1999999091641MD1999999+0061REMSYN011333   58006
0115833390999991989051800004-14050-042617FM-12+088299999V0201401N00411220001CN9999999N9+02161+00851101691ADDAA106000091AG10999GF100991001001999999001001KA1240M+02511MA1999999091861MD1999999+0051REMSYN017333   10251 58005
0137833390999991989051812004-14050-042617FM-12+088299999V0201401N00931004201CN0200001N9+01861+01511101801ADDAA106000091AG10999AY101061AY201061GF106991051021004501021001KA1240N+01661MA1999999091971MD1999999+0001MW1101REMSYN017333   20166 58000
0096833390999991989051818004-14050-042617FM-12+088299999V0201401N00771004201CN0200001N9+02461+00771101461ADDAA106000091AG10999GF106991061021004501001001MA1999999091701MD1999999+0061REMSYN011333   58006
0062833390999991989051900004-14050-042617FM-12+088299999V0201401N00511004201CN9999999N9+02061+01331101641ADDAA106000091AG10999GF105991051021004501001001MA1999999091821
0137833390999991989051912004-14050-042617FM-12+088299999V0200901N01131004201CN0040001N9+02581+01491101691ADDAA106000091AG10999AY101061AY201061GF108991081051004501999999KA1240N+01621MA1999999091851MD1999999-0121MW1101REMSYN017333   20162 59012
0096833390999991989051918004-14050-042617FM-12+088299999V0200501N00981220001CN0200001N9+02341+01051101481ADDAA106000091AG10999GF102991011021004501051001MA1999999091701MD1999999+0001REMSYN011333   58000
0115833390999991989052000004-14050-042617FM-12+088299999V0201401N00821220001CN9999999N9+02001+00871101671ADDAA106000091AG10999GF100991001001999999001001KA1240M+02411MA1999999091831MD1999999+0011REMSYN017333   10241 58001
0115833390999991989052012004-14050-042617FM-12+088299999V0201401N01081004201CN0200001N9+01801+01331101801ADDAA106000091AG10999GF106991051021004501041001KA1240N+01501MA1999999091951MD1999999+0101REMSYN017333   20150 58010
0096833390999991989052018004-14050-042617FM-12+088299999V0200901N00771004201CN0200001N9+02321+01341101551ADDAA106000091AG10999GF106991051021004501021999MA1999999091731MD1999999+0031REMSYN011333   58003
0115833390999991989052100004-14050-042617FM-12+088299999V0201401N00871004201CN9999999N9+02061+01641101761ADDAA106000091AG10999GF108991081051004501999999KA1240M+02381MA1999999091631MD1999999+0101REMSYN017333   10238 58010
0143833390999991989052112004-14050-042617FM-12+088299999V0201401N00511004201CN0040001N9+01721+01551101831ADDAA124006091AG10999AY161061AY261061GF108991081051004501999999KA1240N+01621MA1999999091981MD1999999+0031MW1421REMSYN023333   20162 58003 60064
0118833390999991989052118004-14050-042617FM-12+088299999V0201401N00411004201CN0200001N9+02221+01531101541ADDAA106000091AG10999AY141061AY201061GF106991051021004501031001MA1999999091731MD1999999+0001MW1021REMSYN011333   58000
0115833390999991989052200004-14050-042617FM-12+088299999V0201401N00511105001CN9999999N9+02021+01321101701ADDAA106000091AG10999GF105991041021004501001021KA1240M+02271MA1999999091871MD1999999-0061REMSYN017333   10227 59006
0115833390999991989052212004-14050-042617FM-12+088299999V0201401N01231220001CN0200001N9+01971+01491101761ADDAA106000091AG10999GF104991041021004501001001KA1240N+01681MA1999999091941MD1999999-0041REMSYN017333   20168 59004
0096833390999991989052218004-14050-042617FM-12+088299999V0200901N00571045001CN0200001N9+02521+01061101351ADDAA106000091AG10999GF105991041021004501021001MA1999999091601MD1999999-0131REMSYN011333   59013
0137833390999991989052300004-14050-042617FM-12+088299999V0201401N00261004201CN9999999N9+01981+01631101641ADDAA106000091AG10999AY101061AY201061GF106991051021004501031001KA1240M+02531MA1999999091821MD1999999-0051MW1101REMSYN017333   10253 59005
0143833390999991989052312004-14050-042617FM-12+088299999V0201401N00571004201CN0040001N9+01701+01521101701ADDAA124002091AG10999AY161061AY261061GF108991081051004501999999KA1240N+01541MA1999999091851MD1999999-0091MW1501REMSYN023333   20154 59009 60024
0118833390999991989052318004-14050-042617FM-12+088299999V0201401N00571004201CN0200001N9+02321+01391101321ADDAA106000091AG10999AY101061AY251061GF106991061021004501001001MA1999999091541MD1999999-0061MW1021REMSYN011333   59006
0143833390999991989052400004-14050-042617FM-12+088299999V0200901N00461004201CN9999999N9+01801+01701101611ADDAA106001091AG10999AY161061AY261061GF108991081051004501999999KA1240M+02351MA1999999091751MD1999999-0071MW1131REMSYN023333   10235 59007 60011
0143833390999991989052412004-14050-042617FM-12+088299999V0201401N00361004201CN0040001N9+01801+01751101601ADDAA124002091AG10999AY161061AY261061GF108991081051004501999999KA1240N+01651MA1999999091751MD1999999-0101MW1101REMSYN023333   20165 59010 60024
0096833390999991989052418004-14050-042617FM-12+088299999V0200901N00621004201CN0200001N9+02381+01481101271ADDAA106000091AG10999GF106991061021004501001001MA1999999091511MD1999999-0031REMSYN011333   59003
0115833390999991989052500004-14050-042617FM-12+088299999V0201401N00721220001CN9999999N9+02181+01651101401ADDAA106000091AG10999GF104991041021004501001001KA1240M+02511MA1999999091621MD1999999-0131REMSYN017333   10251 59013
0154833390999991989052512004-14050-042617FM-12+088299999V0200901N00511004201CN0200001N9+02021+01721101501ADDAA124000891AA299001091AG10999AY161061AY261061GF105991051021004501001001KA1240N+01681MA1999999091731MD1999999-0021MW1101REMSYN023333   20168 59002 69984
0096833390999991989052518004-14050-042617FM-12+088299999V0200501N00311004201CN0200001N9+02481+01241101171ADDAA106000091AG10999GF106991051021004501001041MA1999999091441MD1999999-0071REMSYN011333   59007
0115833390999991989052600004-14050-042617FM-12+088299999V0201401N00211220001CN9999999N9+02221+01181101291ADDAA106000091AG10999GF100991001001999999001001KA1240M+02541MA1999999091541MD1999999-0081REMSYN017333   10254 59008
0115833390999991989052612004-14050-042617FM-12+088299999V0200901N00151220001CN0200001N9+02191+01651101361ADDAA106000091AG10999GF103991021021004501001021KA1240N+01591MA1999999091611MD1999999-0121REMSYN017333   20159 59012
0096833390999991989052618004-14050-042617FM-12+088299999V0203201N00101004201CN0200001N9+02791+01301101001ADDAA106000091AG10999GF107991061021004501021001MA1999999091301MD1999999-0141REMSYN011333   59014
0115833390999991989052700004-14050-042617FM-12+088299999V0201801N00151220001CN9999999N9+02341+01441101151ADDAA106000091AG10999GF104991041021004501001001KA1240M+02831MA1999999091441MD1999999-0101REMSYN017333   10283 59010
0115833390999991989052712004-14050-042617FM-12+088299999V0200901N00101004201CN0200001N9+02321+01671101291ADDAA106000091AG10999GF106991051021004501021001KA1240N+01731MA1999999091581MD1999999-0031REMSYN017333   20173 59003
0096833390999991989052718004-14050-042617FM-12+088299999V0202301N00261004201CN0200001N9+02841+00961100951ADDAA106000091AG10999GF106991051021004501031001MA1999999091271MD1999999-0031REMSYN011333   59003
0115833390999991989052800004-14050-042617FM-12+088299999V0202301N00261220001CN9999999N9+02331+00771101141ADDAA106000091AG10999GF100991001001999999001001KA1240M+02921MA1999999091441MD1999999+0001REMSYN017333   10292 58000
0137833390999991989052812004-14050-042617FM-12+088299999V0201401N00461004201CN0040001N9+02001+01741101491ADDAA106000091AG10999AY101061AY201061GF108991081051004501999999KA1240N+01801MA1999999091731MD1999999-0151MW1101REMSYN017333   20180 59015
0096833390999991989052818004-14050-042617FM-12+088299999V0201401N00101004201CN0200001N9+02601+01211101101ADDAA106000091AG10999GF106991061021004501001001MA1999999091391MD1999999+0121REMSYN011333   58012
0115833390999991989052900004-14050-042617FM-12+088299999V0201401N00311220001CN9999999N9+02181+01521101291ADDAA106000091AG10999GF102991021021004501001001KA1240M+02631MA1999999091541MD1999999+0101REMSYN017333   10263 58010
0137833390999991989052912004-14050-042617FM-12+088299999V0201401N00311004201CN0040001N9+01921+01701101501ADDAA106000091AG10999AY101061AY201061GF108991081051004501999999KA1240N+01721MA1999999091721MD1999999-0011MW1101REMSYN017333   20172 59001
0096833390999991989052918004-14050-042617FM-12+088299999V0201401N00261220001CN0200001N9+02601+01141101041ADDAA106000091AG10999GF103991031021004501001001MA1999999091341MD1999999-0051REMSYN011333   59005
0115833390999991989053000004-14050-042617FM-12+088299999V0201401N00261220001CN9999999N9+02181+01341101241ADDAA106000091AG10999GF100991001001999999001001KA1240M+02641MA1999999091481MD1999999-0061REMSYN017333   10264 59006
0096833390999991989053018004-14050-042617FM-12+088299999V0201401N00311220001CN0200001N9+02601+01281101291ADDAA106000091AG10999GF104991041021004501001001MA1999999091551MD1999999+0211REMSYN011333   58021
0115833390999991989053100004-14050-042617FM-12+088299999V0201401N00311220001CN9999999N9+02181+01441101561ADDAA106000091AG10999GF100991001001999999001001KA1240M+02671MA1999999091761MD1999999+0281REMSYN017333   10267 58028
0137833390999991989053112004-14050-042617FM-12+088299999V0201401N00411004201CN0040001N9+01841+01581101781ADDAA106000091AG10999AY101061AY201061GF108991081051004501999999KA1240N+01641MA1999999091951MD1999999+0201MW1101REMSYN017333   20164 58020
0115833390999991989060100004-14050-042617FM-12+088299999V0201401N00411220001CN9999999N9+02041+01311101631ADDAA106000091AG10999GF100991001001999999001001KA1240M+02431MA1999999091811MD1999999+0051REMSYN017333   10243 58005
0115833390999991989060112004-14050-042617FM-12+088299999V0201401N00671004201CN0200001N9+01721+01481101941ADDAA106000091AG10999GF106991061021004501001001KA1240N+01601MA1999999092081MD1999999+0131REMSYN017333   20160 58013
0096833390999991989060118004-14050-042617FM-12+088299999V0201401N00511220001CN0200001N9+02541+01361101441ADDAA106000091AG10999GF102991021021004501001001MA1999999091681MD1999999+0021REMSYN011333   58002
0115833390999991989060200004-14050-042617FM-12+088299999V0200901N00571004201CN9999999N9+02241+01501101731ADDAA106000091AG10999GF106991061021004501001001KA1240M+02551MA1999999091911MD1999999+0101REMSYN017333   10255 58010
0115833390999991989060212004-14050-042617FM-12+088299999V0201401N00671004201CN0200001N9+01901+01411101741ADDAA106000091AG10999GF106991061021004501001001KA1240N+01701MA1999999091931MD1999999-0151REMSYN017333   20170 59015
0096833390999991989060218004-14050-042617FM-12+088299999V0200901N00821220001CN0200001N9+02441+01331101361ADDAA106000091AG10999GF102991021021004501001001MA1999999091591MD1999999-0091REMSYN011333   59009
0115833390999991989060300004-14050-042617FM-12+088299999V0200901N00411220001CN9999999N9+02101+01421101641ADDAA106000091AG10999GF100991001001999999001001KA1240M+02471MA1999999091831MD1999999-0081REMSYN017333   10247 59008
0115833390999991989060312004-14050-042617FM-12+088299999V0201401N00511004201CN0200001N9+01761+01681101721ADDAA106000091AG10999GF108991051051004501021999KA1240N+01681MA1999999091891MD1999999-0041REMSYN017333   20168 59004
0096833390999991989060318004-14050-042617FM-12+088299999V0200901N00511220001CN0200001N9+02321+01551101271ADDAA106000091AG10999GF104991041021004501001001MA1999999091521MD1999999-0071REMSYN011333   59007
0115833390999991989060400004-14050-042617FM-12+088299999V0201401N00261220001CN9999999N9+02001+01481101531ADDAA106000091AG10999GF100991001001999999001001KA1240M+02371MA1999999091711MD1999999-0121REMSYN017333   10237 59012
0115833390999991989060412004-14050-042617FM-12+088299999V0201401N00151220001CN0200001N9+02161+01541101591ADDAA106000091AG10999GF102991011021004501001021KA1240N+01501MA1999999091811MD1999999-0081REMSYN017333   20150 59008
0096833390999991989060418004-14050-042617FM-12+088299999V0201801N00101220001CN0200001N9+02781+01011101161ADDAA106000091AG10999GF104991041021004501001001MA1999999091451MD1999999-0071REMSYN011333   59007
0115833390999991989060500004-14050-042617FM-12+088299999V0201801N00361220001CN9999999N9+02301+01171101331ADDAA106000091AG10999GF100991001001999999001001KA1240M+02811MA1999999091601MD1999999-0111REMSYN017333   10281 59011
0115833390999991989060512004-14050-042617FM-12+088299999V0201401N00821220001CN0200001N9+02021+01561101661ADDAA106000091AG10999GF102991021021004501001001KA1240N+01721MA1999999091881MD1999999+0071REMSYN017333   20172 58007
0096833390999991989060518004-14050-042617FM-12+088299999V0201401N00671220001CN0200001N9+02561+01141101281ADDAA106000091AG10999GF102991021021004501001001MA1999999091561MD1999999+0181REMSYN011333   58018
0115833390999991989060600004-14050-042617FM-12+088299999V0201401N00411220001CN9999999N9+02121+01291101751ADDAA106000091AG10999GF100991001001999999001001KA1240M+02611MA1999999091771MD1999999+0171REMSYN017333   10261 58017
0137833390999991989060612004-14050-042617FM-12+088299999V0201401N00981004201CN0200001N9+01861+01511101651ADDAA106000091AG10999AY101061AY201061GF106991061021004501001001KA1240N+01661MA1999999091841MD1999999-0041MW1101REMSYN017333   20166 59004
0096833390999991989060618004-14050-042617FM-12+088299999V0201001N02521004201CN0200001N9+02321+01371101351ADDAA106000091AG10999GF106991051021004501021001MA1999999091581MD1999999+0021REMSYN011333   58002
0115833390999991989060700004-14050-042617FM-12+088299999V0200901N00461220001CN9999999N9+02001+01541101541ADDAA106000091AG10999GF104991041021004501001001KA1240M+02441MA1999999091731MD1999999-0041REMSYN017333   10244 59004
0115833390999991989060712004-14050-042617FM-12+088299999V0201401N00721004201CN0200001N9+01921+01521101761ADDAA106000091AG10999GF106991061021004501001001KA1240N+01691MA1999999091931MD1999999+0091REMSYN017333   20169 58009
0096833390999991989060718004-14050-042617FM-12+088299999V0200901N00621004201CN0200001N9+02441+01361101361ADDAA106000091AG10999GF105991051021004501001001MA1999999091611MD1999999+0031REMSYN011333   58003
0115833390999991989060800004-14050-042617FM-12+088299999V0201401N00511220001CN9999999N9+02081+01471101571ADDAA106000091AG10999GF102991021021004501001001KA1240M+02491MA1999999091761MD1999999+0031REMSYN017333   10249 58003
0137833390999991989060812004-14050-042617FM-12+088299999V0201401N00411004201CN0028001N9+01901+01571101691ADDAA106000091AG10999AY101061AY201061GF106991061021004501001001KA1240N+01651MA1999999091871MD1999999-0061MW1101REMSYN017333   20165 59006
0096833390999991989060818004-14050-042617FM-12+088299999V0200901N00311220001CN0200001N9+02461+01351101351ADDAA106000091AG10999GF103991021021004501001021MA1999999091601MD1999999-0011REMSYN011333   59001
0115833390999991989060900004-14050-042617FM-12+088299999V0200901N00311220001CN9999999N9+02101+01461101531ADDAA106000091AG10999GF100991001001999999001001KA1240M+02531MA1999999091731MD1999999-0031REMSYN017333   10253 59003
0115833390999991989060912004-14050-042617FM-12+088299999V0200501N00211220001CN0200001N9+02061+01721101681ADDAA106000091AG10999GF102991021021004501001001KA1240N+01621MA1999999091891MD1999999+0021REMSYN017333   20162 58002
0096833390999991989060918004-14050-042617FM-12+088299999V0201401N00361220001CN0200001N9+02801+01281101211ADDAA106000091AG10999GF102991021021004501001001MA1999999091491MD1999999-0111REMSYN011333   59011
0115833390999991989061000004-14050-042617FM-12+088299999V0201401N00151220001CN9999999N9+02321+01311101361ADDAA106000091AG10999GF100991001001999999001001KA1240M+02851MA1999999091621MD1999999-0111REMSYN017333   10285 59011
0115833390999991989061012004-14050-042617FM-12+088299999V0200901N00311220001CN0200001N9+02161+01591101621ADDAA106000091AG10999GF102991021021004501001001KA1240N+01581MA1999999091861MD1999999-0031REMSYN017333   20158 59003
0096833390999991989061018004-14050-042617FM-12+088299999V0201401N00101220001CN0200001N9+02821+00951101271ADDAA106000091AG10999GF102991021011004501001001MA1999999091561MD1999999+0071REMSYN011333   58007
0115833390999991989061100004-14050-042617FM-12+088299999V0201401N00511220001CN9999999N9+02301+01141101411ADDAA106000091AG10999GF100991001001999999001001KA1240M+02871MA1999999091671MD1999999+0051REMSYN017333   10287 58005
0115833390999991989061112004-14050-042617FM-12+088299999V0201401N00511004201CN0200001N9+02981+01631101711ADDAA106000091AG10999GF106991061021004501001001KA1240N+01701MA1999999091931MD1999999+0071REMSYN017333   20170 58007
0096833390999991989061118004-14050-042617FM-12+088299999V0200901N00771220001CN0200001N9+02601+01321101211ADDAA106000091AG10999GF102991021021004501001001MA1999999091471MD1999999-0091REMSYN011333   59009
0115833390999991989061200004-14050-042617FM-12+088299999V0201401N00411220001CN9999999N9+02201+01391101551ADDAA106000091AG10999GF100991001001999999001001KA1240M+02631MA1999999091771MD1999999+0101REMSYN017333   10263 58010
0137833390999991989061212004-14050-042617FM-12+088299999V0201401N00261004201CN0200001N9+01781+01611101651ADDAA106000091AG10021AY101061AY201061GF106991061021004501001001KA1240N+01441MA1999999091841MD1999999-0091MW1101REMSYN017333   20144 59009
0062833390999991989061300004-14050-042617FM-12+088299999V0201801N00261220001CN9999999N9+02261+01171101511ADDAA106000091AG10999GF100991001001999999001001MA1999999091711
0137833390999991989061312004-14050-042617FM-12+088299999V0201401N00511004201CN0040001N9+01941+01661101721ADDAA106000091AG10999AY101061AY201061GF106991051021004501021001KA1240N+01761MA1999999091931MD1999999+0091MW1101REMSYN017333   20176 58009
0096833390999991989061318004-14050-042617FM-12+088299999V0201401N00511220001CN0200001N9+02421+02311101421ADDAA106000091AG10999GF104991041021004501001001MA1999999091671MD1999999+0111REMSYN011333   58011
0115833390999991989061400004-14050-042617FM-12+088299999V0201401N00771220001CN9999999N9+01921+01401101661ADDAA106000091AG10999GF102991021021004501001001KA1240M+02451MA1999999091841MD1999999+0131REMSYN017333   10245 58013
0115833390999991989061412004-14050-042617FM-12+088299999V0201401N00671004201CN0200001N9+01741+01431101841ADDAA106000091AG10999GF108991051051004501021999KA1240N+01541MA1999999091981MD1999999+0051REMSYN017333   20154 58005
0096833390999991989061418004-14050-042617FM-12+088299999V0201401N00411220001CN0200001N9+02451+00601101371ADDAA106000091AG10999GF102991011021004501021001MA1999999091651MD1999999-0061REMSYN011333   59006
0115833390999991989061500004-14050-042617FM-12+088299999V0200901N00411220001CN9999999N9+01961+00561101731ADDAA106000091AG10999GF100991001001999999001001KA1240M+02511MA1999999091881MD1999999+0041REMSYN017333   10251 58004
0115833390999991989061512004-14050-042617FM-12+088299999V0201401N00311220001CN0200001N9+01581+01081101091ADDAA106000091AG10999GF105991041021004501001041KA1240N+01281MA1999999092021MD1999999+0041REMSYN017333   20128 58004
0096833390999991989061518004-14050-042617FM-12+088299999V0201401N00671220001CN0200001N9+02141+00531101581ADDAA106000091AG10999GF104991031021004501021001MA1999999091761MD1999999+0151REMSYN011333   58015
0115833390999991989061600004-14050-042617FM-12+088299999V0201401N00261220001CN9999999N9+01801+01131101901ADDAA106000091AG10999GF102991021021004501001001KA1240M+02281MA1999999092011MD1999999+0131REMSYN017333   10228 58013
0137833390999991989061612004-14050-042617FM-12+088299999V0201401N00671004201CN0040001N9+01601+01311102041ADDAA106000091AG10021AY101061AY201061GF108991081051004501999999KA1240N+01421MA1999999092141MD1999999+0121MW1101REMSYN017333   20142 58012
0096833390999991989061618004-14050-042617FM-12+088299999V0200901N00461004201CN0200001N9+02181+00801101671ADDAA106000091AG10999GF106991061021004501001001MA1999999091831MD1999999+0071REMSYN011333   58007
0115833390999991989061700004-14050-042617FM-12+088299999V0201401N00511004201CN9999999N9+01871+01241101911ADDAA106000091AG10999GF106991051021004501021001KA1240M+02271MA1999999092031MD1999999+0021REMSYN017333   10227 58002
0137833390999991989061712004-14050-042617FM-12+088299999V0200901N00571045001CN0200001N9+01561+01431102101ADDAA106000091AG10999AY141061AY221061GF108991031051004501021999KA1240N+01381MA1999999092181MD1999999+0041MW1101REMSYN017333   20138 58004
0096833390999991989061718004-14050-042617FM-12+088299999V0200901N00411045001CN0200001N9+02101+01271101711ADDAA106000091AG10999GF106991041021004501021001MA1999999091861MD1999999+0031REMSYN011333   58003
0115833390999991989061800004-14050-042617FM-12+088299999V0201401N00571220001CN9999999N9+01941+01441101881ADDAA106000091AG10999GF102991021021004501001001KA1240M+02171MA1999999092001MD1999999-0031REMSYN017333   10217 59003
