0102833440999991989010212004-14950-040883FM-12+0905SBQV V0203601N00261007501CN0100001N9+02241+01711101251ADDAA106000091AG10999GF108991051061008001011999MA1999999091331MD1999999-0031REMSYN017333   20/// 59003
0096833440999991989010218004-14950-040883FM-12+0905SBQV V0201401N00261007501CN0200001N9+02741+01701100911ADDAA106000091AG10999GF106991061021008001001001MA1999999091041MD1999999-0011REMSYN011333   59001
0115833440999991989010300004-14950-040883FM-12+0905SBQV V0200501N00311220001CN9999999N9+02151+01741101031ADDAA106000091AG10999GF100991001001999999001001KA1240M+02821MA1999999091131MD1999999-0041REMSYN017333   10282 59004
0096833440999991989010318004-14950-040883FM-12+0905SBQV V0200901N00311220001CN0200001N9+02721+01521100961ADDAA106000091AG10999GF105991041021008001001011MA1999999091061MD1999999+0021REMSYN011333   58002
0102833440999991989010412004-14950-040883FM-12+0905SBQV V0200901N00311007501CN0200001N9+02381+01781101391ADDAA106000091AG10999GF107991071051008001001001MA1999999091421MD1999999+0081REMSYN017333   20/// 58008
0096833440999991989010418004-14950-040883FM-12+0905SBQV V0200501N00311007501CN0200001N9+02741+01371101021ADDAA106000091AG10999GF106991061071008001001001MA1999999091131MD1999999+0071REMSYN011333   58007
0115833440999991989010500004-14950-040883FM-12+0905SBQV V0200901N00261220001CN9999999N9+02101+01701101321ADDAA106000091AG10999GF100991001001999999001001KA1240M+02781MA1999999091401MD1999999+0161REMSYN017333   10278 58016
0102833440999991989010512004-14950-040883FM-12+0905SBQV V0200901N00411007501CN0100001N9+02161+01661101461ADDAA106000091AG10999GF108991081071008001999999MA1999999091501MD1999999+0081REMSYN017333   20/// 58008
0096833440999991989010518004-14950-040883FM-12+0905SBQV V0200501N00511007501CN0100001N9+02251+01751101241ADDAA106000091AG10999GF108991081071008001999999MA1999999091261MD1999999+0131REMSYN011333   58013
0115833440999991989010600004-14950-040883FM-12+0905SBQV V0200901N00311220001CN9999999N9+02091+01741101311ADDAA106000091AG10999GF102991021061008001001001KA1240M+02611MA1999999091351MD1999999-0051REMSYN017333   10261 59005
0102833440999991989010612004-14950-040883FM-12+0905SBQV V0200901N00411220001CN0200001N9+02331+01471101391ADDAA106000091AG10999GF106991021011008001001061MA1999999091451MD1999999-0051REMSYN017333   20/// 59005
0096833440999991989010618004-14950-040883FM-12+0905SBQV V0201401N00411105001CN0200001N9+02741+01371999999ADDAA106000091AG10999GF106991041011008001001031MA1999999091091MD1999999-0171REMSYN011333   59017
0115833440999991989010700004-14950-040883FM-12+0905SBQV V0200901N00311220001CN9999999N9+02031+01621101031ADDAA106000091AG10999GF100991001001999999001001KA1240M+02841MA1999999091131MD1999999-0221REMSYN017333   10284 59022
0102833440999991989010712004-14950-040883FM-12+0905SBQV V0203601N00211220001CN0200001N9+02391+01601101041ADDAA106000091AG10999GF104991011011008001001011MA1999999091141MD1999999-0311REMSYN017333   20/// 59031
0096833440999991989010718004-14950-040883FM-12+0905SBQV V0200901N00261007501CN0200001N9+02851+01621100651ADDAA106000091AG10999GF105991051021008001001001MA1999999090801MD1999999-0291REMSYN011333   59029
0102833440999991989010812004-14950-040883FM-12+0905SBQV V0203601N00211007501CN0100001N9+02121+01721101051ADDAA106000091AG10999GF108991051071008001021999MA1999999091141MD1999999+0001REMSYN017333   20/// 58000
0096833440999991989010818004-14950-040883FM-12+0905SBQV V0203601N00211220001CN0200001N9+02811+01651100691ADDAA106000091AG10999GF106991021011008001001061MA1999999090841MD1999999+0041REMSYN011333   58004
0096833440999991989010918004-14950-040883FM-12+0905SBQV V0200901N00511220001CN0200001N9+02801+01431100821ADDAA106000091AG10999GF106991021051008001001061MA1999999090951MD1999999+0111REMSYN011333   58011
0115833440999991989011000004-14950-040883FM-12+0905SBQV V0200501N00361220001CN9999999N9+02041+01741101121ADDAA106000091AG10999GF100991001001999999001001KA1240M+02911MA1999999091211MD1999999+0171REMSYN017333   10291 58017
0135833440999991989011018004-14950-040883FM-12+0905SBQV V0200901N00361220001CN0200001N9+02561+01731101161ADDAA106000291AA299000391AG10999AY161061AY221061GF106991041051008001001061MA1999999091241MD1999999+0291MW1021REMSYN017333   58029 69921
0115833440999991989011100004-14950-040883FM-12+0905SBQV V0200501N00461220001CN9999999N9+02021+01811101351ADDAA106000091AG10999GF103991031061008001001001KA1240M+02621MA1999999091391MD1999999+0181REMSYN017333   10262 58018
0119833440999991989011112004-14950-040883FM-12+0905SBQV V0200501N00361220001CN0200001N9+02311+01531101501ADDAA124000291AA299000391AG10999GF102991021011008001001001MA1999999091541MD1999999+0051REMSYN023333   20/// 58005 69924
0119833440999991989011114004-14950-040883FM-12+0905SBQV V0200501N00361220001CN0200001N9+02311+01531101501ADDAA124000291AA299000391AG10999GF102991021011008001001001MA1999999091541MD1999999+0051REMSYN023333   20/// 58005 69924
0115833440999991989011200004-14950-040883FM-12+0905SBQV V0200501N00361220001CN9999999N9+02141+01721101241ADDAA106000091AG10999GF100991001001999999001001KA1240M+02851MA1999999091331MD1999999-0061REMSYN017333   10285 59006
0102833440999991989011212004-14950-040883FM-12+0905SBQV V0200901N00261045001CN0200001N9+02171+01701101441ADDAA106000091AG10999GF107991031061008001011001MA1999999091481MD1999999-0061REMSYN017333   20/// 59006
0115833440999991989011300004-14950-040883FM-12+0905SBQV V0200501N00511220001CN9999999N9+02181+01821101151ADDAA106000091AG10999GF102991001001999999001091KA1240M+02831MA1999999091241MD1999999-0091REMSYN017333   10283 59009
0102833440999991989011312004-14950-040883FM-12+0905SBQV V0201401N00151220001CN0200001N9+02371+01581101301ADDAA106000091AG10999GF102991021011008001001001MA1999999091391MD1999999-0091REMSYN017333   20/// 59009
0096833440999991989011318004-14950-040883FM-12+0905SBQV V0201401N00211220001CN0200001N9+02991+01451100981ADDAA106000091AG10999GF102991021011008001001001MA1999999091111MD1999999-0071REMSYN011333   59007
0115833440999991989011400004-14950-040883FM-12+0905SBQV V0200501N00361220001CN9999999N9+02241+01501101131ADDAA106000091AG10999GF100991001001999999001001KA1240M+03031MA1999999091241MD1999999+0001REMSYN017333   10303 58000
0102833440999991989011412004-14950-040883FM-12+0905SBQV V0200501N00151220001CN0200001N9+02451+01581101311ADDAA106000091AG10999GF100991001001999999001001MA1999999091411MD1999999+0021REMSYN017333   20/// 58002
0096833440999991989011418004-14950-040883FM-12+0905SBQV V0201401N00361220001CN0200001N9+03051+01581999999ADDAA106000091AG10999GF102991021011008001001001MA1999999091091MD1999999-0021REMSYN011333   59002
0115833440999991989011500004-14950-040883FM-12+0905SBQV V0200501N00361220001CN9999999N9+02301+01651101131ADDAA106000091AG10999GF100991001001999999001001KA1240M+03091MA1999999091231MD1999999+0011REMSYN017333   10309 58001
0102833440999991989011512004-14950-040883FM-12+0905SBQV V0203201N00211220001CN0200001N9+02451+01781101331ADDAA106000091AG10999GF100991001001999999001001MA1999999091441MD1999999+0031REMSYN017333   20/// 58003
0096833440999991989011518004-14950-040883FM-12+0905SBQV V0201401N00211045001CN0200001N9+03151+01551100901ADDAA106000091AG10999GF105991021011008001031001MA1999999091081MD1999999-0011REMSYN011333   59001
0115833440999991989011600004-14950-040883FM-12+0905SBQV V0200501N00511220001CN9999999N9+02411+01691101081ADDAA106000091AG10999GF100991001001999999001001KA1240M+03221MA1999999091191MD1999999-0061REMSYN017333   10322 59006
0102833440999991989011612004-14950-040883FM-12+0905SBQV V0203601N00211220001CN0200001N9+02551+01931101191ADDAA106000091AG10999GF102991021011008001001001MA1999999091331MD1999999-0111REMSYN017333   20/// 59011
0096833440999991989011618004-14950-040883FM-12+0905SBQV V0201401N00051007501CN0200001N9+03191+01711100751ADDAA106000091AG10999GF106991061051008001001001MA1999999090961MD1999999-0121REMSYN011333   59012
0115833440999991989011700004-14950-040883FM-12+0905SBQV V0201801N00101007501CN9999999N9+02481+01901100931ADDAA106000091AG10999GF106991061061008001001001KA1240M+03231MA1999999091101MD1999999-0091REMSYN017333   10323 59009
0102833440999991989011712004-14950-040883FM-12+0905SBQV V0203601N00411220001CN0200001N9+02521+01931101151ADDAA106000091AG10999GF103991031011008001001001MA1999999091291MD1999999-0041REMSYN017333   20/// 59004
0096833440999991989011718004-14950-040883FM-12+0905SBQV V0200501N00101007501CN0200001N9+03141+01691100761ADDAA106000091AG10999GF106991061071008001001001MA1999999090971MD1999999+0011REMSYN011333   58001
0143833440999991989011800004-14950-040883FM-12+0905SBQV V0200501N00101220001CN9999999N9+02351+01831101021ADDAA106000191AG10999AY191061AY261061GF100991001001999999001001KA1240M+03241MA1999999091181MD1999999+0081MW1021REMSYN023333   10324 58008 69911
0108833440999991989011812004-14950-040883FM-12+0905SBQV V0203601N00151007501CN0100001N9+02321+01981101291ADDAA124000191AG10999GF108991081071008001999999MA1999999091391MD1999999+0101REMSYN023333   20/// 58010 69914
0096833440999991989011818004-14950-040883FM-12+0905SBQV V0200901N00361220001CN0200001N9+03021+01621100811ADDAA106000091AG10999GF104991041011008001001001MA1999999091001MD1999999-0031REMSYN011333   59003
0115833440999991989011900004-14950-040883FM-12+0905SBQV V0200501N00511220001CN9999999N9+02391+01891100991ADDAA106000091AG10999GF100991001001999999001001KA1240M+03101MA1999999091121MD1999999-0061REMSYN017333   10310 59006
0102833440999991989011912004-14950-040883FM-12+0905SBQV V0200501N00311220001CN0200001N9+02531+01481101201ADDAA106000091AG10999GF105991001001999999001011MA1999999091331MD1999999-0061REMSYN017333   20/// 59006
0062833440999991989011918004-14950-040883FM-12+0905SBQV V0201401N00361220001CN0200001N9+02861+01681100931ADDAA106000091AG10999GF106991041021008001001061MA1999999091071
0115833440999991989012000004-14950-040883FM-12+0905SBQV V0200501N00621220001CN9999999N9+02191+01691101051ADDAA106000091AG10999GF102991001001999999001091KA1240M+02911MA1999999091171MD1999999+0051REMSYN017333   10291 58005
0102833440999991989012012004-14950-040883FM-12+0905SBQV V0200501N00511220001CN0200001N9+02451+01291101321ADDAA106000091AG10999GF102991021011008001001001MA1999999091411MD1999999+0081REMSYN017333   20/// 58008
0096833440999991989012018004-14950-040883FM-12+0905SBQV V0201401N00311220001CN0200001N9+02761+01861101011ADDAA106000091AG10999GF104991021021008001001031MA1999999091131MD1999999+0061REMSYN011333   58006
0076833440999991989012100004-14950-040883FM-12+0905SBQV V0200501N00461220001CN9999999N9+02061+01681101061ADDAA106000091AG10999GF100991001001999999001001MA1999999091161MD1810011+9999
0102833440999991989012112004-14950-040883FM-12+0905SBQV V0200901N00361220001CN0200001N9+02341+01491101361ADDAA106000091AG10999GF104991041011008001001001MA1999999091431MD1999999+0021REMSYN017333   20/// 58002
0096833440999991989012118004-14950-040883FM-12+0905SBQV V0200901N00211007501CN0200001N9+02711+01461101051ADDAA106000091AG10999GF106991061021008001001001MA1999999091151MD1999999+0021REMSYN011333   58002
0115833440999991989012200004-14950-040883FM-12+0905SBQV V0200501N00361220001CN9999999N9+02121+01481101131ADDAA106000091AG10999GF100991001001999999001001KA1240M+02781MA1999999091231MD1999999+0071REMSYN017333   10278 58007
0096833440999991989012218004-14950-040883FM-12+0905SBQV V0200501N00511220001CN0200001N9+02741+01541101091ADDAA106000091AG10999GF100991001001999999001001MA1999999091191MD1999999+0041REMSYN011333   58004
0115833440999991989012300004-14950-040883FM-12+0905SBQV V0200501N00361220001CN9999999N9+01971+01831101201ADDAA106000091AG10999GF100991001001999999001001KA1240M+02821MA1999999091271MD1999999+0041REMSYN017333   10282 58004
0102833440999991989012312004-14950-040883FM-12+0905SBQV V0200501N00461007501CN0200001N9+02361+01561101371ADDAA106000091AG10999GF106991061011008001001001MA1999999091431MD1999999-0031REMSYN017333   20/// 59003
0143833440999991989012400004-14950-040883FM-12+0905SBQV V0200901N00361220001CN0100001N9+02001+01241101241ADDAA106000391AG10999AY191061AY261061GF103991031061008001001001KA1240M+02881MA1999999091331MD1999999+0061MW1021REMSYN023333   10288 58006 69931
0119833440999991989012412004-14950-040883FM-12+0905SBQV V0200901N00511007501CN0200001N9+02291+01631101351ADDAA124000491AA299000591AG10999GF106991061021008001001001MA1999999091411MD1999999-0021REMSYN023333   20/// 59002 69944
0096833440999991989012418004-14950-040883FM-12+0905SBQV V0200901N00461105001CN0200001N9+02861+01411100961ADDAA106000091AG10999GF106991021011008001001031MA1999999091091MD1999999-0101REMSYN011333   59010
0115833440999991989012500004-14950-040883FM-12+0905SBQV V0200901N00261220001CN9999999N9+02961+01551101181ADDAA106000091AG10999GF100991001001999999001001KA1240M+02921MA1999999091251MD1999999-0081REMSYN017333   10292 59008
0119833440999991989012512004-14950-040883FM-12+0905SBQV V0201401N00361045001CN0200001N9+02201+01541101261ADDAA124000291AA299000391AG10999GF107991041061008001011001MA1999999091321MD1999999-0091REMSYN023333   20/// 59009 69924
0096833440999991989012518004-14950-040883FM-12+0905SBQV V0200901N00511007501CN0200001N9+02571+01611101031ADDAA106000091AG10999GF107991051071008001051001MA1999999091121MD1999999+0031REMSYN011333   58003
0115833440999991989012600004-14950-040883FM-12+0905SBQV V0200501N00511220001CN9999999N9+01971+01721101271ADDAA106000091AG10999GF100991001001999999001001KA1240M+02661MA1999999091331MD1999999+0081REMSYN017333   10266 58008
0102833440999991989012612004-14950-040883FM-12+0905SBQV V0200901N00311105001CN0200001N9+02281+01561101351ADDAA106000091AG10999GF106991021061008001031061MA1999999091411MD1999999+0091REMSYN017333   20/// 58009
0096833440999991989012618004-14950-040883FM-12+0905SBQV V0200901N00461105001CN0200001N9+02811+01681101011ADDAA106000091AG10999GF105991031051008001001031MA1999999091131MD1999999+0011REMSYN011333   58001
0102833440999991989012712004-14950-040883FM-12+0905SBQV V0200901N00311007501CN0100001N9+02171+01721101311ADDAA106000091AG10999GF108991081071008001999999MA1999999091371MD1999999-0041REMSYN017333   20/// 59004
0115833440999991989012800004-14950-040883FM-12+0905SBQV V0200901N00151220001CN9999999N9+01941+01771101281ADDAA106000091AG10999GF100991001001999999001001KA1240M+02681MA1999999091321MD1999999+0071REMSYN017333   10268 58007
0119833440999991989012812004-14950-040883FM-12+0905SBQV V0200501N00411007501CN0200001N9+02381+01391101341ADDAA124000291AA299000391AG10999GF106991061011008001001001MA1999999091401MD1999999+0031REMSYN023333   20/// 58003 69924
0096833440999991989012818004-14950-040883FM-12+0905SBQV V0200901N00411007501CN0100001N9+02481+01681101191ADDAA106000091AG10999GF108991081071008001999999MA1999999091261MD1999999+0131REMSYN011333   58013
0162833440999991989012900004-14950-040883FM-12+0905SBQV V0201401N00311220001CN9999999N9+02921+01921101361ADDAA106001091AG10999AY161061AY211061GF100991001001999999001001KA1240M+99999MA1999999091421MD1999999+0101MW1021REMSYN023333   10268 58010 60011EQDQ01 +02682ATMX  
0107833440999991989012918004-14950-040883FM-12+0905SBQV V0202901N00361004201CN0040001N9+02241+01881101301ADDAG10999AY101061AY221061GF108991081071004501999999MA1999999091331MD1999999+0071MW1511REMSYN011333   58007
0143833440999991989013000004-14950-040883FM-12+0905SBQV V0200901N00361220001CN9999999N9+01891+01751101361ADDAA106000591AG10999AY161061AY211061GF100991001001999999001001KA1240M+02611MA1999999091381MD1999999-0041MW1021REMSYN023333   10261 59004 69951
0108833440999991989013012004-14950-040883FM-12+0905SBQV V0200901N00311220001CN0200001N9+02171+01651101401ADDAA124000591AG10999GF104991041021004501001001MA1999999091421MD1999999-0081REMSYN023333   20/// 59008 69954
0124833440999991989013018004-14950-040883FM-12+0905SBQV V0200901N00311004201CN0200001N9+02281+01731101181ADDAA106001091AG10999AY161061AY221061GF105991051021004501001001MA1999999091221MD1999999-0111MW1021REMSYN017333   59011 60011
0115833440999991989013100004-14950-040883FM-12+0905SBQV V0200901N00361220001CN9999999N9+02071+01861101201ADDAA106000091AG10999GF104991041061012501001001KA1240M+02401MA1999999091261MD1999999-0121REMSYN017333   10240 59012
0108833440999991989013112004-14950-040883FM-12+0905SBQV V0201401N00211045001CN0100001N9+02171+01631101441ADDAA124001091AG10999GF106991021021004501061011MA1999999091471MD1999999+0051REMSYN023333   20/// 58005 60014
0096833440999991989013118004-14950-040883FM-12+0905SBQV V0200901N00411220001CN0200001N9+02771+01481999999ADDAA106000091AG10999GF105991031011004501001011MA1999999091211MD1999999-0011REMSYN011333   59001
0115833440999991989020100004-14950-040883FM-12+0905SBQV V0200501N00361220001CN9999999N9+02111+01721101291ADDAA106000091AG10999GF102991021001012501021001KA1240M+02831MA1999999091351MD1999999+0091REMSYN017333   10283 58009
0102833440999991989020112004-14950-040883FM-12+0905SBQV V0200901N00411220001CN0200001N9+02501+01561101371ADDAA106000091AG10999GF104991041011008001001001MA1999999091451MD1999999-0021REMSYN017333   20/// 59002
0115833440999991989020200004-14950-040883FM-12+0905SBQV V0200901N00361220001CN9999999N9+02191+01781101161ADDAA106000091AG10999GF100991001001999999001001KA1240M+02961MA1999999091271MD1999999-0081REMSYN017333   10296 59008
0102833440999991989020212004-14950-040883FM-12+0905SBQV V0200501N00211220001CN0200001N9+02481+01511101201ADDAA106000091AG10999GF100991001001999999001001MA1999999091311MD1999999-0141REMSYN017333   20/// 59014
0096833440999991989020218004-14950-040883FM-12+0905SBQV V0200501N00261220001CN0200001N9+02871+01571100841ADDAA106000091AG10999GF104991041021004501001001MA1999999090981MD1999999-0181REMSYN011333   59018
0115833440999991989020300004-14950-040883FM-12+0905SBQV V0200501N00361220001CN9999999N9+02231+01691100961ADDAA106000091AG10999GF100991001001999999001001KA1240M+03011MA1999999091091MD1999999-0181REMSYN017333   10301 59018
0102833440999991989020312004-14950-040883FM-12+0905SBQV V0203601N00411045001CN0200001N9+02311+01701101161ADDAA106000091AG10999GF106991031061012501041001MA1999999091251MD1999999-0061REMSYN017333   20/// 59006
0096833440999991989020318004-14950-040883FM-12+0905SBQV V0200501N00101220001CN0500001N9+03151+01431100631ADDAA106000091AG10999GF105991031011008001001011MA1999999090841MD1999999-0141REMSYN011333   59014
0115833440999991989020400004-14950-040883FM-12+0905SBQV V0200501N004119999999N9999999N9+02371+01781100931ADDAA106000091AG10999GF105991051001004501061001KA1240M+03221MA1999999091061MD1999999-0031REMSYN017333   10322 59003
0130833440999991989020412004-14950-040883FM-12+0905SBQV V0203601N00151004201CN0040001N9+02001+01871101391ADDAA124017091AG10999AY191061AY261061GF108991081051004501999999MA1999999091451MD1999999+0201MW1621REMSYN023333   20/// 58020 60174
0115833440999991989020500004-14950-040883FM-12+0905SBQV V0203601N00311220001CN9999999N9+02251+01791101141ADDAA106000091AG10999GF100991001001999999001001KA1240M+02861MA1999999091211MD1999999+0151REMSYN017333   10286 58015
0108833440999991989020512004-14950-040883FM-12+0905SBQV V0202701N00311045001CN0100001N9+02501+01871101331ADDAA124000191AG10999GF106991041021004501061001MA1999999091431MD1999999-0021REMSYN023333   20/// 59002 69914
0108833440999991989020612004-14950-040883FM-12+0905SBQV V0200501N00261045001CN0100001N9+02281+02011101371ADDAA124018091AG10999GF106991041051004501021001MA1999999091431MD1999999+0001REMSYN023333   20/// 58000 60184
0124833440999991989020618004-14950-040883FM-12+0905SBQV V0200501N00101004201CN0020001N9+02051+01911101171ADDAA106017091AG10999AY161061AY221061GF108991081071004501999999MA1999999091231MD1999999+0041MW1061REMSYN017333   58004 60171
0102833440999991989020812004-14950-040883FM-12+0905SBQV V0200501N00261045001CN0100001N9+02281+01661101211ADDAA106000091AG10999GF105991031021008001041001MA1999999091301MD1999999+0001REMSYN017333   20/// 58000
0096833440999991989020818004-14950-040883FM-12+0905SBQV V0200901N00361045001CN0200001N9+02651+01331100901ADDAA106000091AG10999GF107991041081008001041001MA1999999091011MD1999999+0051REMSYN011333   58005
0095833440999991989020900004-14950-040883FM-12+0905SBQV V0200501N00311220001CN9999999N9+02081+01761101031ADDAA106000091AG10999GF100991001001999999001001KA1240M+02711MA1999999091131REMSYN011333   10271
0096833440999991989020918004-14950-040883FM-12+0905SBQV V0200501N00311004201CN0200001N9+02681+01611100991ADDAA106000091AG10999GF105991051031004501001001MA1999999091101MD1999999+0091REMSYN011333   58009
0115833440999991989021000004-14950-040883FM-12+0905SBQV V0200501N00511220001CN9999999N9+02121+01781101151ADDAA106000091AG10999GF100991001001999999001001KA1240M+02851MA1999999091231MD1999999+0101REMSYN017333   10285 58010
0102833440999991989021012004-14950-040883FM-12+0905SBQV V0200501N00311004201CN0100001N9+02261+01711101451ADDAA106000091AG10999GF107991071071004501001001MA1999999091501MD1999999+0151REMSYN017333   20/// 58015
0096833440999991989021018004-14950-040883FM-12+0905SBQV V0200501N00311220001CN0200001N9+02801+01631101071ADDAA106000091AG10999GF104991041021004501001001MA1999999091181MD1999999+0081REMSYN011333   58008
0102833440999991989021112004-14950-040883FM-12+0905SBQV V0200501N00511220001CN0200001N9+02331+01721101351ADDAA106000091AG10999GF104991041021004501001001MA1999999096461MD1999999-0071REMSYN017333   20/// 59007
0115833440999991989021118004-14950-040883FM-12+0905SBQV V0201401N00311220001CN0200001N9+02881+01501101021ADDAA106000091AG10999GF103991031021004501001001MA1999999091142MD1999999-0041REMSYN011333   59004EQDQ01+091143APOSP 
0102833440999991989021212004-14950-040883FM-12+0905SBQV V0200901N00311220001CN0200001N9+02351+01591101401ADDAA106000091AG10999GF104991041011004501061001MA1999999091481MD1999999+0051REMSYN017333   20/// 58005
0096833440999991989021218004-14950-040883FM-12+0905SBQV V0201401N00311220001CN0500001N9+02861+01371101001ADDAA106000091AG10999GF104991041021004501001001MA1999999091111MD1999999-0031REMSYN011333   59003
0102833440999991989021312004-14950-040883FM-12+0905SBQV V0200501N00211220001CN0200001N9+02361+01591101191ADDAA106000091AG10999GF102991021011004501001001MA1999999091291MD1999999-0191REMSYN017333   20/// 59019
0096833440999991989021318004-14950-040883FM-12+0905SBQV V0200901N00211045001CN0200001N9+02861+01441100781ADDAA106000091AG10999GF106991041031004501021001MA1999999090941MD1999999-0171REMSYN011333   59017
0134833440999991989021400004-14950-040883FM-12+0905SBQV V0200501N00261220001CN9999999N9+02401+01291100851ADDAA106000091AG10999GF100991001001999999001001KA1240M+99999MA1999999091001MD1999999-0161REMSYN017333   10221 59016EQDQ01 +02212ATMX  
0096833440999991989021418004-14950-040883FM-12+0905SBQV V0201401N00211045001CN0200001N9+02861+01481100621ADDAA106000091AG10999GF107991041021004501021001MA1999999090781MD1999999-0161REMSYN011333   59016
0115833440999991989021500004-14950-040883FM-12+0905SBQV V0200501N00361220001CN9999999N9+02271+01861100781ADDAA106000091AG10999GF100991001001999999001001KA1240M+02941MA1999999090921MD1999999-0081REMSYN017333   10294 59008
0102833440999991989021512004-14950-040883FM-12+0905SBQV V0201401N00361045001CN0200001N9+02281+01701100971ADDAA106000091AG10999GF106991031021004501021001MA1999999091081MD1999999-0101REMSYN017333   20/// 59010
0115833440999991989021600004-14950-040883FM-12+0905SBQV V0200501N00571220001CN9999999N9+02211+01711100961ADDAA106000091AG10999GF100991001001999999001001KA1240M+02931MA1999999091071MD1999999+0151REMSYN017333   10293 58015
0102833440999991989021612004-14950-040883FM-12+0905SBQV V0200501N00311004201CN0200001N9+02421+01671101291ADDAA106000091AG10999GF105991051021004501001001MA1999999091381MD1999999+0301REMSYN017333   20/// 58030
0115833440999991989021700004-14950-040883FM-12+0905SBQV V0200501N00571220001CN9999999N9+02171+01821101161ADDAA106000091AG10999GF100991001001999999001001KA1240M+02941MA1999999091261MD1999999+0191REMSYN017333   10294 58019
0102833440999991989021712004-14950-040883FM-12+0905SBQV V0200501N00311004201CN0200001N9+02361+01611101401ADDAA106000091AG10999GF105991051001004501021001MA1999999091471MD1999999+0091REMSYN017333   20/// 58009
0115833440999991989021800004-14950-040883FM-12+0905SBQV V0200901N00361220001CN9999999N9+02181+01761101301ADDAA106000091AG10999GF104991041001999999041001KA1240M+02961MA1999999091361MD1999999+0011REMSYN017333   10296 58001
0102833440999991989021812004-14950-040883FM-12+0905SBQV V0200901N00461220001CN0200001N9+02361+01511101391ADDAA106000091AG10999GF104991041021004501001001MA1999999091461MD1999999-0011REMSYN017333   20/// 59001
0096833440999991989021818004-14950-040883FM-12+0905SBQV V0200901N00511045001CN0200001N9+02641+01601101181ADDAA106000091AG10999GF107991041031008001021001MA1999999091261MD1999999+0131REMSYN011333   58013
0115833440999991989021900004-14950-040883FM-12+0905SBQV V0200901N00211220001CN9999999N9+02191+01721101231ADDAA106000091AG10999GF100991001001999999001001KA1240M+02891MA1999999091321MD1999999-0041REMSYN017333   10289 59004
0102833440999991989021912004-14950-040883FM-12+0905SBQV V0200901N00311045001CN0100001N9+02181+01901101421ADDAA106000091AG10999GF107991041031004501021001MA1999999091481MD1999999+0021REMSYN017333   20/// 58002
0115833440999991989022000004-14950-040883FM-12+0905SBQV V0200501N00101045001CN9999999N9+02101+01821101271ADDAA106000091AG10999GF106991021011004501041021KA1240M+02841MA1999999091341MD1999999+0021REMSYN017333   10284 58002
0102833440999991989022012004-14950-040883FM-12+0905SBQV V0200501N00311007501CN0200001N9+02321+01671101461ADDAA106000091AG10999GF105991051001008001021001MA1999999091521MD1999999+0041REMSYN017333   20/// 58004
0091833440999991989022018004-14950-040883FM-12+0905SBQV V0201401N00261045001CN0500001N9+02961+01531999999ADDAA106000091AG10999GF106991041021004501021001MA1999999091181ME1101059REMSYN011333   50002
0115833440999991989022100004-14950-040883FM-12+0905SBQV V0200501N00461220001CN9999999N9+02391+01831101221ADDAA106000091AG10999GF100991001001999999001001KA1240M+03081MA1999999091321MD1999999-0021REMSYN017333   10308 59002
0102833440999991989022112004-14950-040883FM-12+0905SBQV V0200501N00211045001CN0100001N9+02331+01721101491ADDAA106000091AG10999GF105991031021004501041001MA1999999091561MD1999999+0041REMSYN017333   20/// 58004
0096833440999991989022118004-14950-040883FM-12+0905SBQV V0200901N00151220001CN0500001N9+02991+01641100961ADDAA106000091AG10999GF103991031011004501001001MA1999999091111MD1999999-0071REMSYN011333   59007
0115833440999991989022200004-14950-040883FM-12+0905SBQV V0200501N00461220001CN9999999N9+02391+01801101091ADDAA106000091AG10999GF100991001001999999001001KA1240M+03141MA1999999091211MD1999999-0111REMSYN017333   10314 59011
0115833440999991989022201004-14950-040883FM-12+0905SBQV V0200501N00461220001CN9999999N9+02391+01801101091ADDAA106000091AG10999GF100991001001999999001001KA1240M+03141MA1999999091211MD1999999-0111REMSYN017333   10314 59011
0102833440999991989022212004-14950-040883FM-12+0905SBQV V0203601N00411220001CN0200001N9+02451+01781101251ADDAA106000091AG10999GF105991031011004501001011MA1999999091361MD1999999-0201REMSYN017333   20/// 59020
0096833440999991989022218004-14950-040883FM-12+0905SBQV V0200501N00261220001CN0500001N9+02891+01811100841ADDAA106000091AG10999GF103991031011004501001001MA1999999090961MD1999999-0151REMSYN011333   59015
0115833440999991989022300004-14950-040883FM-12+0905SBQV V0200501N00461220001CN9999999N9+02451+01931101071ADDAA106000091AG10999GF100991001001999999001001KA1240M+03101MA1999999091161MD1999999-0051REMSYN017333   10310 59005
0102833440999991989022312004-14950-040883FM-12+0905SBQV V0203601N00211045001CN0200001N9+02511+01741101271ADDAA106000091AG10999GF106991021011004501041001MA1999999091401MD1999999+0041REMSYN017333   20/// 58004
0096833440999991989022318004-14950-040883FM-12+0905SBQV V0201401N00311105001CN0500001N9+03171+01351100831ADDAA106000091AG10999GF106991021011004501001021MA1999999091031MD1999999+0071REMSYN011333   58007
0115833440999991989022400004-14950-040883FM-12+0905SBQV V0200501N00411220001CN9999999N9+02351+01711101051ADDAA106000091AG10999GF103991001001999999001021KA1240M+03241MA1999999091191MD1999999+0031REMSYN017333   10324 58003
0102833440999991989022412004-14950-040883FM-12+0905SBQV V0200901N00411220001CN0200001N9+02451+01551101261ADDAA106000091AG10999GF103991011011008001081001MA1999999091371MD1999999-0031REMSYN017333   20/// 59003
0096833440999991989022418004-14950-040883FM-12+0905SBQV V0200901N00311045001CN0500001N9+02891+01551100951ADDAA106000091AG10999GF105991021021008001061001MA1999999091081MD1999999+0021REMSYN011333   58002
0115833440999991989022500004-14950-040883FM-12+0905SBQV V0200901N00361220001CN9999999N9+02221+01941101091ADDAA106000091AG10999GF100991001001999999001001KA1240M+03061MA1999999091211MD1999999+0021REMSYN017333   10306 58002
0102833440999991989022512004-14950-040883FM-12+0905SBQV V0200501N00051004201CN0100001N9+02291+01751101301ADDAA106000091AG10999GF107991071051004501001001MA1999999091381MD1999999+0011REMSYN017333   20/// 58001
0096833440999991989022518004-14950-040883FM-12+0905SBQV V0201401N00211004201CN0200001N9+02981+01451100851ADDAA106000091AG10999GF106991051051004501041001MA1999999091031MD1999999-0051REMSYN011333   59005
0115833440999991989022600004-14950-040883FM-12+0905SBQV V0200501N00411220001CN9999999N9+02431+01611101091ADDAA106000091AG10999GF100991001001999999001001KA1240M+03101MA1999999091211MD1999999+0001REMSYN017333   10310 58000
0102833440999991989022612004-14950-040883FM-12+0905SBQV V0200501N00261220001CN0100001N9+02491+01721101371ADDAA106000091AG10999GF104991041021004501001001MA1999999091481MD1999999+0101REMSYN017333   20/// 58010
0096833440999991989022618004-14950-040883FM-12+0905SBQV V0200501N00261220001CN0500001N9+03051+01621101021ADDAA106000091AG10999GF104991041021004501001001MA1999999091161MD1999999+0131REMSYN011333   58013
0102833440999991989022712004-14950-040883FM-12+0905SBQV V0200501N00411220001CN0200001N9+02451+01681101551ADDAA106000091AG10999GF104991021011004501001011MA1999999091631MD1999999+0151REMSYN017333   20/// 58015
0096833440999991989022718004-14950-040883FM-12+0905SBQV V0200901N00361045001CN0500001N9+02751+01591101331ADDAA106000091AG10999GF106991031021004501041011MA1999999091421MD1999999+0261REMSYN011333   58026
0115833440999991989022800004-14950-040883FM-12+0905SBQV V0209999999999220001CN9999999N9+02091+01491101501ADDAA106000091AG10999GF100991001001999999001001KA1240M+02861MA1999999091561MD1999999+0211REMSYN017333   10286 58021
0102833440999991989022812004-14950-040883FM-12+0905SBQV V0201401N00311004201CN0100001N9+02151+01721101721ADDAA106000091AG10999GF108991081051004501999999MA1999999091701MD1999999+0101REMSYN017333   20/// 58010
0096833440999991989022818004-14950-040883FM-12+0905SBQV V0201401N00361105001CN0200001N9+02601+01511101361ADDAA106000091AG10999GF105991031021004501001021MA1999999091401MD1999999-0021REMSYN011333   59002
0115833440999991989030100004-14950-040883FM-12+0905SBQV V0200901N00311220001CN9999999N9+02171+01591101341ADDAA106000091AG10999GF102991021011004501001001KA1240M+02721MA1999999091421MD1999999-0141REMSYN017333   10272 59014
0102833440999991989030112004-14950-040883FM-12+0905SBQV V0200901N00311220001CN0100001N9+02351+01541101401ADDAA106000091AG10999GF102991021011004501001001MA1999999091471MD1999999-0261REMSYN017333   20/// 59026
0096833440999991989030118004-14950-040883FM-12+0905SBQV V0200901N00211220001CN0200001N9+02891+01401100901ADDAA106000091AG10999GF103991031011004501001001MA1999999091021MD1999999-0381REMSYN011333   59038
0115833440999991989030200004-14950-040883FM-12+0905SBQV V0200501N00461220001CN9999999N9+02241+01671100981ADDAA106000091AG10999GF100991001001999999001001KA1240M+02961MA1999999091101MD1999999-0321REMSYN017333   10296 59032
0102833440999991989030212004-14950-040883FM-12+0905SBQV V0201401N00151004201CN0100001N9+02211+01691101361ADDAA106000091AG10999GF108991081051004501001001MA1999999091431MD1999999-0041REMSYN017333   20/// 59004
0096833440999991989030218004-14950-040883FM-12+0905SBQV V0200901N00151045001CN0100001N9+02811+01481100931ADDAA106000091AG10999GF106991041051004501031001MA1999999091051MD1999999+0031REMSYN011333   58003
0115833440999991989030300004-14950-040883FM-12+0905SBQV V0200501N00511220001CN9999999N9+02281+01791101071ADDAA106000091AG10999GF100991001001999999001001KA1240M+02981MA1999999091171MD1999999+0071REMSYN017333   10298 58007
0102833440999991989030312004-14950-040883FM-12+0905SBQV V0209999999999045001CN0200001N9+02471+01701101341ADDAA106000091AG10999GF105991031011004501021001MA1999999091441MD1999999+0011REMSYN017333   20/// 58001
0096833440999991989030318004-14950-040883FM-12+0905SBQV V0200901N00211045001CN0200001N9+03021+01411100901ADDAA106000091AG10999GF106991031021004501041011MA1999999091051MD1999999+0001REMSYN011333   58000
0115833440999991989030400004-14950-040883FM-12+0905SBQV V0200501N00511220001CN9999999N9+02311+01721101151ADDAA106000091AG10999GF100991001001999999001001KA1240M+03051MA1999999091181MD1999999+0011REMSYN017333   10305 58001
0102833440999991989030412004-14950-040883FM-12+0905SBQV V0200901N00261045001CN0200001N9+02521+01371101241ADDAA106000091AG10999GF106991041071004501021001MA1999999091351MD1999999-0091REMSYN017333   20/// 59009
0096833440999991989030418004-14950-040883FM-12+0905SBQV V0201401N00311220001CN0500001N9+03071+01221100711ADDAA106000091AG10999GF102991021011004501001001MA1999999090891MD1999999-0161REMSYN011333   59016
0115833440999991989030500004-14950-040883FM-12+0905SBQV V0200501N00311220001CN9999999N9+02321+01371100911ADDAA106000091AG10999GF100991001001999999001001KA1240M+03121MA1999999091051MD1999999-0131REMSYN017333   10312 59013
0102833440999991989030512004-14950-040883FM-12+0905SBQV V0203601N00261105001CN0200001N9+02451+01631100971ADDAA106000091AG10999GF106991031011004501001091MA1999999091111MD1999999-0241REMSYN017333   20/// 59024
0096833440999991989030518004-14950-040883FM-12+0905SBQV V0200501N00211045001CN0500001N9+03081+01481100401ADDAA106000091AG10999GF105991021031008001021001MA1999999090621MD1999999-0271REMSYN011333   59027
0115833440999991989030600004-14950-040883FM-12+0905SBQV V0203601N00411004201CN9999999N9+02331+01651100751ADDAA106000091AG10999GF108991081051004501999999KA1240M+03181MA1999999090911MD1999999-0141REMSYN017333   10318 59014
0121833440999991989030612004-14950-040883FM-12+0905SBQV V0202701N00151045001CN0200001N9+02451+01901100841ADDAA124000991AA299001091AG10999AY161061AY221061GF105991041021004501041001MA1999999090991MW1021REMSYN017333   20/// 69994
0124833440999991989030618004-14950-040883FM-12+0905SBQV V0200901N00311004201CN0100001N9+02391+01951100531ADDAA106013091AG10999AY161061AY221061GF108991051071004501021999MA1999999090681MD1999999+0061MW1021REMSYN017333   58006 60131
0123833440999991989030700004-14950-040883FM-12+0905SBQV V0203601N00151220001CN9999999N9+02131+01821100131ADDAA106001091AG10999AY121061AY201061GF104991041021004501001001KA1240M+02701MA1999999090871MW1061REMSYN017333   10270 60011
0130833440999991989030712004-14950-040883FM-12+0905SBQV V0203201N00151045001CN0100001N9+02231+01841100891ADDAA124003091AG10999AY151061AY211061GF108991021011004501021999MA1999999091001MD1999999+0011MW1021REMSYN023333   20/// 58001 60034
0096833440999991989030718004-14950-040883FM-12+0905SBQV V0202701N00261045001CN0200001N9+02871+01601100451ADDAA106000091AG10999GF107991041041004501021001MA1999999090651MD1999999-0031REMSYN011333   59003
0143833440999991989030800004-14950-040883FM-12+0905SBQV V0200901N00101004201CN9999999N9+02021+01871100871ADDAA106003091AG10999AY161061AY221061GF108991051071004501999999KA1240M+02931MA1999999090971MD1999999+0101MW1611REMSYN023333   10293 58010 60031
0108833440999991989030812004-14950-040883FM-12+0905SBQV V0203201N00261045001CN0200001N9+02331+01891101001ADDAA124003091AG10999GF105991031021004501061001MA1999999091091MD1999999+0091REMSYN023333   20/// 58009 60034
0096833440999991989030818004-14950-040883FM-12+0905SBQV V0203601N00311045001CN0200001N9+02831+01671100551ADDAA106000091AG10999GF106991041021004501061001MA1999999090741MD1999999+0091REMSYN011333   58009
0143833440999991989030900004-14950-040883FM-12+0905SBQV V0203601N00211004201CN9999999N9+02131+01911100991ADDAA106000391AG10999AY121061AY221061GF108991081051004501999999KA1240M+02911MA1999999091061MD1999999+0091MW1511REMSYN023333   10291 58009 69931
0130833440999991989030912004-14950-040883FM-12+0905SBQV V0202701N00361004201CN0100001N9+02111+01891101141ADDAA124006091AG19039AY161061AY221061GF108991081051004501999999MA1999999091211MD1999999+0121MW1511REMSYN023333   20/// 58012 60064
0124833440999991989030918004-14950-040883FM-12+0905SBQV V0202701N00261220001CN0200001N9+02851+01781100651ADDAA106000191AG10999AY151061AY211061GF103991031021004501001001MA1999999090811MD1999999+0071MW1021REMSYN017333   58007 69911
0115833440999991989031000004-14950-040883FM-12+0905SBQV V0203601N00211220001CN9999999N9+02351+01851100961ADDAA106000091AG10999GF104991041001012501071001KA1240M+02911MA1999999091071MD1999999+0011REMSYN017333   10291 58001
0108833440999991989031012004-14950-040883FM-12+0905SBQV V0203201N00211045001CN0100001N9+02331+01911101061ADDAA124000191AG10999GF108991031051004501041011MA1999999091181MD1999999-0031REMSYN023333   20/// 59003 69914
0096833440999991989031018004-14950-040883FM-12+0905SBQV V0203201N00311045001CN0200001N9+02611+02011100711ADDAA106000091AG10999GF106991041061004501021001MA1999999090871MD1999999+0061REMSYN011333   58006
0143833440999991989031100004-14950-040883FM-12+0905SBQV V0201401N00051004201CN9999999N9+02201+02061101061ADDAA106003091AG10999AY161061AY211061GF108991081051004501999999KA1240M+02901MA1999999091161MD1999999+0091MW1621REMSYN023333   10290 58009 60031
0130833440999991989031112004-14950-040883FM-12+0905SBQV V0201401N00101004201CN0040001N9+02231+01961101201ADDAA124003091AG10999AY161061AY221061GF108991081051004501999999MA1999999091281MD1999999+0101MW1021REMSYN023333   20/// 58010 60034
0124833440999991989031118004-14950-040883FM-12+0905SBQV V0200901N00151007501CN0040001N9+02481+02051100831ADDAA106001091AG10999AY161061AY261061GF108991081071008001999999MA1999999090961MD1999999+0091MW1601REMSYN017333   58009 60011
0143833440999991989031200004-14950-040883FM-12+0905SBQV V0200901N00261007501CN9999999N9+02181+02081101061ADDAA106009091AG10999AY161061AY261061GF108991081071008001999999KA1240M+02621MA1999999091151MD1999999-0081MW1211REMSYN023333   10262 59008 60091
0108833440999991989031212004-14950-040883FM-12+0905SBQV V0203601N00151007501CN0100001N9+02311+02001101181ADDAA124010091AG10999GF108991081071008001999999MA1999999091271MD1999999-0011REMSYN023333   20/// 59001 60104
0096833440999991989031218004-14950-040883FM-12+0905SBQV V0203201N00211220001CN0200001N9+02871+01891100861ADDAA106000091AG10999GF103991031011008001001001MA1999999091031MD1999999+0071REMSYN011333   58007
0115833440999991989031300004-14950-040883FM-12+0905SBQV V0200501N00151220001CN9999999N9+02361+02051101011ADDAA106000091AG10999GF100991001001999999001001KA1240M+02901MA1999999091141MD1999999-0011REMSYN017333   10290 59001
0102833440999991989031312004-14950-040883FM-12+0905SBQV V0203601N00311012001CN0200001N9+02471+01901101091ADDAA106000091AG10999GF107991071001012501031001MA1999999091221MD1999999-0051REMSYN017333   20/// 59005
0115833440999991989031400004-14950-040883FM-12+0905SBQV V0200501N00311220001CN9999999N9+02311+02051100951ADDAA106000091AG10999GF104991041001012501081001KA1240M+03061MA1999999091091MD1999999-0051REMSYN017333   10306 59005
0102833440999991989031412004-14950-040883FM-12+0905SBQV V0203601N00311105001CN0200001N9+02361+01761101091ADDAA106000091AG10999GF106991001001999999001031MA1999999091211MD1999999-0011REMSYN017333   20/// 59001
0102833440999991989031512004-14950-040883FM-12+0905SBQV V0200501N00571220001CN0200001N9+02431+01811101051ADDAA106000091AG10999GF102991021011008001001001MA1999999091171MD1999999-0041REMSYN017333   20/// 59004
0096833440999991989031518004-14950-040883FM-12+0905SBQV V0201401N00311007501CN0200001N9+02761+01941100701ADDAA106000091AG10999GF106991061071008001001001MA1999999090861MD1999999-0031REMSYN011333   59003
0108833440999991989031612004-14950-040883FM-12+0905SBQV V0200901N00151105001CN0200001N9+02341+01781101251ADDAA124005091AG10999GF107991041011008001001091MA1999999091341MD1999999+0171REMSYN023333   20/// 58017 60054
0073833440999991989031618004-14950-040883FM-12+0905SBQV V0200501N00511007501CN0100001N9+02171+02031101031ADDAG10999AY161061AY261061GF108991081061008001999999MA1999999091101MW1211
0115833440999991989031700004-14950-040883FM-12+0905SBQV V0200501N00211220001CN9999999N9+02021+01831101231ADDAA106000091AG10999GF100991001001999999001001KA1240M+02791MA1999999091311MD1999999+0151REMSYN017333   10279 58015
0096833440999991989031718004-14950-040883FM-12+0905SBQV V0201401N00261007501CN0100001N9+02261+01771101111ADDAA106000091AG10999GF108991081071008001999999MA1999999091151MD1999999+0051REMSYN011333   58005
0130833440999991989031812004-14950-040883FM-12+0905SBQV V0200901N00361045001CN0100001N9+02171+01841101381ADDAA124000391AG19005AY161061AY221061GF108991041071008001011999MA1999999091411MD1999999+0011MW1021REMSYN023333   20/// 58001 69934
0096833440999991989031818004-14950-040883FM-12+0905SBQV V0201401N00411105001CN0200001N9+02661+01851101001ADDAA106000091AG10999GF106991041011008001001031MA1999999091121MD1999999-0031REMSYN011333   59003
0115833440999991989031900004-14950-040883FM-12+0905SBQV V0200901N00411220001CN9999999N9+02021+01781101281ADDAA106000091AG10999GF103991021011008001001011KA1240M+02701MA1999999091341MD1999999+0161REMSYN017333   10270 58016
0102833440999991989031912004-14950-040883FM-12+0905SBQV V0201401N00461007501CN0200001N9+02221+01761101421ADDAA106000091AG10999GF106991061051008001001001MA1999999091451MD1999999+0041REMSYN017333   20/// 58004
0113833440999991989031918004-14950-040883FM-12+0905SBQV V0200901N00411045001CN0200001N9+02621+01781100991ADDAA106000291AA299000391AG10999GF106991041011008001071001MA1999999091111MD1999999-0011REMSYN017333   59001 69921
0115833440999991989032000004-14950-040883FM-12+0905SBQV V0200901N00261007501CN9999999N9+01981+01811101331ADDAA106000091AG10999GF107991071061008001001001KA1240M+02741MA1999999091371MD1999999+0041REMSYN017333   10274 58004
0141833440999991989032012004-14950-040883FM-12+0905SBQV V0201401N00361220001CN0200001N9+02261+01541101371ADDAA124000491AA299000591AG10999AY161061AY211061GF102991021011008001001001MA1999999091411MD1999999-0041MW1021REMSYN023333   20/// 59004 69944
0124833440999991989032018004-14950-040883FM-12+0905SBQV V0200901N00361007501CN0040001N9+02191+02011101191ADDAA106002091AG10999AY191061AY261061GF108991081071008001999999MA1999999091231MD1999999+0121MW1291REMSYN017333   58012 60021
0130833440999991989032112004-14950-040883FM-12+0905SBQV V0201401N00261007501CN0040001N9+02041+01851101381ADDAA124005091AG10999AY161061AY251061GF108991081071008001999999MA1999999091401MD1999999-0011MW1021REMSYN023333   20/// 59001 60054
0135833440999991989032118004-14950-040883FM-12+0905SBQV V0201401N00411007501CN0200001N9+02451+01831101061ADDAA106000291AA299000391AG10999AY161061AY211061GF105991051051008001001001MA1999999091141MD1999999-0091MW1031REMSYN017333   59009 69921
0141833440999991989032212004-14950-040883FM-12+0905SBQV V0200901N00311007501CN0200001N9+01971+01881101291ADDAA124000891AA299001091AG10999AY161061AY261061GF107991071071008001001001MA1999999091321MD1999999-0081MW1211REMSYN023333   20/// 59008 69984
0096833440999991989032218004-14950-040883FM-12+0905SBQV V0201401N00311105001CN0200001N9+02601+01681100971ADDAA106000091AG10999GF105991041011008001001091MA1999999091071MD1999999-0071REMSYN011333   59007
0115833440999991989032300004-14950-040883FM-12+0905SBQV V0200901N00311012001CN9999999N9+01991+01811101261ADDAA106000091AG10999GF106991061001012501021001KA1240M+02681MA1999999091291MD1999999+0001REMSYN017333   10268 58000
0102833440999991989032312004-14950-040883FM-12+0905SBQV V0200901N00311007501CN0200001N9+02271+01771101361ADDAA106000091AG10999GF105991051021008001001001MA1999999091421MD1999999+0101REMSYN017333   20/// 58010
0096833440999991989032318004-14950-040883FM-12+0905SBQV V0201401N00311045001CN0200001N9+02581+01871101001ADDAA106000091AG10999GF106991041011008001061001MA1999999091101MD1999999+0031REMSYN011333   58003
0115833440999991989032400004-14950-040883FM-12+0905SBQV V0200901N00311220001CN9999999N9+02071+01861101141ADDAA106000091AG10999GF100991001001999999001001KA1240M+02681MA1999999091221MD1999999-0071REMSYN017333   10268 59007
0102833440999991989032412004-14950-040883FM-12+0905SBQV V0200901N00311220001CN0200001N9+02281+01561101291ADDAA106000091AG10999GF103991001001999999001011MA1999999091341MD1999999-0081REMSYN017333   20/// 59008
0096833440999991989032418004-14950-040883FM-12+0905SBQV V0201401N00361220001CN0200001N9+02571+01691100991ADDAA106000091AG10999GF102991021011008001001001MA1999999091091MD1999999-0011REMSYN011333   59001
0115833440999991989032500004-14950-040883FM-12+0905SBQV V0200901N00211220001CN9999999N9+02091+01531101221ADDAA106000091AG10999GF100991001001999999001001KA1240M+02661MA1999999091301MD1999999+0081REMSYN017333   10266 58008
0141833440999991989032512004-14950-040883FM-12+0905SBQV V0201401N00311007501CN0100001N9+01971+01911101391ADDAA124000291AA299000391AG10999AY161061AY251061GF108991061071008001011999MA1999999091421MD1999999+0081MW1201REMSYN023333   20/// 58008 69924
0096833440999991989032518004-14950-040883FM-12+0905SBQV V0201401N00461105001CN0200001N9+02371+01911101091ADDAA106000091AG10999GF106991041021008001001091MA1999999091161MD1999999+0071REMSYN011333   58007
0134833440999991989032600004-14950-040883FM-12+0905SBQV V0200901N00461220001CN9999999N9+01981+01761102712ADDAA106000091AG10999GF100991001001999999001001KA1240M+02411MA1999999091301MD1999999+0001REMSYN017333   10241 58000EQDQ01+102713APOSLP
0102833440999991989032612004-14950-040883FM-12+0905SBQV V0200901N00151007501CN0200001N9+02171+01821101591ADDAA106000091AG10999GF106991061061008001001001MA1999999091611MD1999999+0191REMSYN017333   20/// 58019
0115833440999991989032700004-14950-040883FM-12+0905SBQV V0200501N00361220001CN9999999N9+01951+01611101391ADDAA106000091AG10999GF103991031061008001001001KA1240M+02731MA1999999091421MD1999999+0121REMSYN017333   10273 58012
0102833440999991989032712004-14950-040883FM-12+0905SBQV V0200901N00361045001CN0200001N9+02331+01741101531ADDAA106000091AG10999GF107991041041008001061001MA1999999091561MD1999999-0051REMSYN017333   20/// 59005
0115833440999991989032800004-14950-040883FM-12+0905SBQV V0200501N00261220001CN9999999N9+02021+01831101451ADDAA106000091AG10999GF100991001001999999001001KA1240M+02791MA1999999091491MD1999999+0071REMSYN017333   10279 58007
0102833440999991989032812004-14950-040883FM-12+0905SBQV V0200901N00511220001CN0200001N9+02331+01551101571ADDAA106000091AG10999GF103991031001008001081001MA1999999091621MD1999999+0061REMSYN017333   20/// 58006
0115833440999991989032900004-14950-040883FM-12+0905SBQV V0200901N00361220001CN9999999N9+02071+01871101511ADDAA106000091AG10999GF100991001001999999001001KA1240M+02841MA1999999091561MD1999999+0071REMSYN017333   10284 58007
0102833440999991989032912004-14950-040883FM-12+0905SBQV V0201401N00411045001CN0200001N9+02171+01761101541ADDAA106000091AG10999GF106991041021008001061001MA1999999091561MD1999999-0061REMSYN017333   20/// 59006
0096833440999991989032918004-14950-040883FM-12+0905SBQV V0201401N00461045001CN0200001N9+02511+01711101161ADDAA106000091AG10999GF107991031061008001011061MA1999999091321MD1999999-0041REMSYN011333   59004
0143833440999991989033000004-14950-040883FM-12+0905SBQV V0200901N00261004201CN9999999N9+01991+01811101501ADDAA106000591AG10999AY151061AY211061GF105991051021004501001001KA1240M+02701MA1999999091531MD1999999-0031MW1021REMSYN023333   10270 59003 69951
0141833440999991989033012004-14950-040883FM-12+0905SBQV V0201401N00311007501CN0100001N9+02051+01801101501ADDAA124000891AA299001091AG10999AY161061AY221061GF108991081061008001999999MA1999999091511MD1999999-0051MW1021REMSYN023333   20/// 59005 69984
0124833440999991989033018004-14950-040883FM-12+0905SBQV V0201401N00311105001CN0200001N9+02301+01751101171ADDAA106001091AG10999AY161061AY261061GF105991021011008001001031MA1999999091241MD1999999-0081MW1211REMSYN017333   59008 60011
0143833440999991989033100004-14950-040883FM-12+0905SBQV V0200901N00361220001CN9999999N9+01921+01791101391ADDAA106000191AG10999AY151061AY211061GF104991021011004501061001KA1240M+02341MA1999999091411MD1999999-0121MW1021REMSYN023333   10234 59012 69911
0130833440999991989033112004-14950-040883FM-12+0905SBQV V0200901N00361105001CN0200001N9+02191+01651101361ADDAA124002091AG10999AY161061AY211061GF105991031011008001001091MA1999999091391MD1999999-0121MW1021REMSYN023333   20/// 59012 60024
0115833440999991989033118004-14950-040883FM-12+0905SBQV V0201401N00311007501CN0200001N9+02611+01531101121ADDAA106000091AG10999GF106991999011008001001001MA1999999091221MD1999999-0021REMSYN011333   59002EQDQ01+000052SCOTLC
0115833440999991989040100004-14950-040883FM-12+0905SBQV V0200901N00261220001CN9999999N9+02051+01721101341ADDAA106000091AG10999GF100991001001999999001001KA1240M+02681MA1999999091381MD1999999-0031REMSYN017333   10268 59003
0102833440999991989040112004-14950-040883FM-12+0905SBQV V0201401N00311007501CN0200001N9+02191+01781101591ADDAA106000091AG10999GF107991071061008001001001MA1999999091591MD1999999+0201REMSYN017333   20/// 58020
0096833440999991989040118004-14950-040883FM-12+0905SBQV V0201401N00261007501CN0200001N9+02661+01771101081ADDAA106000091AG10999GF106991061021008001001001MA1999999091171MD1999999-0051REMSYN011333   59005
0115833440999991989040200004-14950-040883FM-12+0905SBQV V0200501N00411220001CN9999999N9+02031+01761101351ADDAA106000091AG10999GF100991001001999999001001KA1240M+02721MA1999999091391MD1999999+0011REMSYN017333   10272 58001
0096833440999991989040218004-14950-040883FM-12+0905SBQV V0201401N00361220001CN0200001N9+02731+01781100931ADDAA106000091AG10999GF102991021011008001001001MA1999999091051MD1999999-0121REMSYN011333   59012
0102833440999991989040312004-14950-040883FM-12+0905SBQV V0200501N00361220001CN0200001N9+02181+01701101361ADDAA106000091AG10999GF102991021011008001001001MA1999999091401MD1999999-0011REMSYN017333   20/// 59001
0096833440999991989040318004-14950-040883FM-12+0905SBQV V0200901N00311220001CN0200001N9+02821+01581100901ADDAA106000091AG10999GF103991031011008001001001MA1999999091031MD1999999-0021REMSYN011333   59002
0102833440999991989040412004-14950-040883FM-12+0905SBQV V0200901N00361007501CN0200001N9+02311+01701101321ADDAA106000091AG10999GF106991061011008001001001MA1999999091381MD1999999-0021REMSYN017333   20/// 59002
0096833440999991989040418004-14950-040883FM-12+0905SBQV V0201401N00311007501CN0200001N9+02741+01641100981ADDAA106000091AG10999GF106991061011008001001001MA1999999091091MD1999999+0061REMSYN011333   58006
0135833440999991989040518004-14950-040883FM-12+0905SBQV V0200901N00361007501CN0200001N9+02431+01811101241ADDAA106000691AA299000591AG10999AY161061AY261061GF105991051051008001001001MA1999999091301MD1999999+0211MW1211REMSYN017333   58021 69961
0115833440999991989040600004-14950-040883FM-12+0905SBQV V0200901N00461220001CN9999999N9+01861+01791101471ADDAA106000091AG10999GF100991001001999999001001KA1240M+02501MA1999999091501MD1999999+0121REMSYN017333   10250 58012
0096833440999991989040618004-14950-040883FM-12+0905SBQV V0201401N00311220001CN0200001N9+02711+01711101141ADDAA106000091AG10999GF103991031021008001001001MA1999999091241MD1999999-0061REMSYN011333   59006
0115833440999991989040700004-14950-040883FM-12+0905SBQV V0200901N00261220001CN9999999N9+01931+01791101361ADDAA106000091AG10999GF103991031021004501001001KA1240M+02741MA1999999091381MD1999999-0121REMSYN017333   10274 59012
0124833440999991989040718004-14950-040883FM-12+0905SBQV V0200901N00211105001CN0200001N9+02231+01711101171ADDAA106000391AG10999AY161061AY261061GF106991021061008001001031MA1999999091211MD1999999-0031MW1211REMSYN017333   59003 69931
0115833440999991989040800004-14950-040883FM-12+0905SBQV V0200901N00101220001CN9999999N9+01901+01781101281ADDAA106000091AG10999GF102991021011004501001001KA1240M+02401MA1999999091301MD1999999-0081REMSYN017333   10240 59008
0108833440999991989040812004-14950-040883FM-12+0905SBQV V0201401N00261007501CN0100001N9+02171+01721101401ADDAA124000391AG10999GF108991051071008001021999MA1999999091431MD1999999-0071REMSYN023333   20/// 59007 69934
0154833440999991989040900004-14950-040883FM-12+0905SBQV V0201401N00151007501CN9999999N9+01871+01801101241ADDAA106000891AA299001091AG10999AY161061AY251061GF108991081071008001999999KA1240M+02561MA1999999091271MD1999999+0031MW1201REMSYN023333   10256 58003 69981
0108833440999991989040912004-14950-040883FM-12+0905SBQV V0201401N00311007501CN0100001N9+02121+01781101491ADDAA124006091AG10999GF108991081071008001999999MA1999999091501MD1999999+0071REMSYN023333   20/// 58007 60064
0134833440999991989041000004-14950-040883FM-12+0905SBQV V0200901N00261007501CN9999999N9+02031+01961101401ADDAA106000091AG10999GF107991999061008001001001KA1240M+02661MA1999999091441MD1999999-0171REMSYN017333   10266 59017EQDQ01+000062SCOTLC
0130833440999991989041012004-14950-040883FM-12+0905SBQV V0201401N00261007501CN0040001N9+02111+01971101491ADDAA124999929AG10999AY151061AY251061GF108991081071008001999999MA1999999091511MD1999999+0011MW1201REMSYN023333   20/// 58001 69904
0096833440999991989041018004-14950-040883FM-12+0905SBQV V0201401N00311045001CN0200001N9+02561+01851101141ADDAA106000091AG10999GF106991031051008001081061MA1999999091241MD1999999-0011REMSYN011333   59001
0143833440999991989041100004-14950-040883FM-12+0905SBQV V0200901N00261220001CN9999999N9+01931+01841101301ADDAA106011091AG10999AY161061AY251061GF100991001001999999001001KA1240M+02581MA1999999091331MD1999999-0111MW1021REMSYN023333   10258 59011 60111
0108833440999991989041112004-14950-040883FM-12+0905SBQV V0200901N00261007501CN0100001N9+02181+01841101371ADDAA124011091AG10999GF108991081071008001999999MA1999999091401MD1999999-0111REMSYN023333   20/// 59011 60114
0096833440999991989041118004-14950-040883FM-12+0905SBQV V0200901N00311105001CN0200001N9+02571+01661101021ADDAA106000091AG10999GF106991031021008001001031MA1999999091331MD1999999-0111REMSYN011333   59011
0115833440999991989041200004-14950-040883FM-12+0905SBQV V0200901N00211220001CN9999999N9+01991+01801101231ADDAA106000091AG10999GF100991001001999999001001KA1240M+02601MA1999999091291MD1999999-0041REMSYN017333   10260 59004
0102833440999991989041212004-14950-040883FM-12+0905SBQV V0200901N00311007501CN0100001N9+02221+01731101361ADDAA106000091AG10999GF108991051071008001021999MA1999999091401MD1999999+0001REMSYN017333   20/// 58000
0115833440999991989041300004-14950-040883FM-12+0905SBQV V0200901N00311220001CN9999999N9+01991+01851101251ADDAA106000091AG10999GF100991001001999999001001KA1240M+02681MA1999999091311MD1999999+0021REMSYN017333   10268 58002
0102833440999991989041312004-14950-040883FM-12+0905SBQV V0201401N00261007501CN0200001N9+02141+01741101361ADDAA106000091AG10999GF106991061021008001001001MA1999999091391MD1999999-0011REMSYN017333   20/// 59001
0096833440999991989041318004-14950-040883FM-12+0905SBQV V0201401N00361220001CN0200001N9+02671+01611100921ADDAA106000091AG10999GF104991041011008001001001MA1999999091041MD1999999-0061REMSYN011333   59006
0115833440999991989041400004-14950-040883FM-12+0905SBQV V0200901N00361220001CN9999999N9+01981+01781101181ADDAA106000091AG10999GF100991001001999999001001KA1240M+02701MA1999999091241MD1999999-0071REMSYN017333   10270 59007
0102833440999991989041412004-14950-040883FM-12+0905SBQV V0200901N00311045001CN0200001N9+02231+01671101351ADDAA106000091AG10999GF106991041061008001011001MA1999999091391MD1999999+0001REMSYN017333   20/// 58000
0115833440999991989041418004-14950-040883FM-12+0905SBQV V0201401N00311220001CN0200001N9+02591+01711100901ADDAA106000091AG10999GF104991999051008001001001MA1999999091011MD1999999-0031REMSYN011333   59003EQDQ01+000032SCOTLC
0115833440999991989041500004-14950-040883FM-12+0905SBQV V0200901N00511007501CN9999999N9+02021+01781101231ADDAA106000091AG10999GF107991071061008001001001KA1240M+02681MA1999999091301MD1999999+0061REMSYN017333   10268 58006
0102833440999991989041512004-14950-040883FM-12+0905SBQV V0200901N00311007501CN0200001N9+02341+01671101461ADDAA106000091AG10999GF106991061041008001001001MA1999999091461MD1999999+0071REMSYN017333   20/// 58007
0096833440999991989041518004-14950-040883FM-12+0905SBQV V0201401N00311220001CN0200001N9+02731+01821999999ADDAA106000091AG10999GF105991031061008001001081MA1999999091151MD1999999+0141REMSYN011333   58014
0119833440999991989041612004-14950-040883FM-12+0905SBQV V0200901N00211220001CN0200001N9+02301+01721101471ADDAA124000291AA299000391AG10999GF104991041061008001001001MA1999999091511MD1999999+0151REMSYN023333   20/// 58015 69924
0115833440999991989041700004-14950-040883FM-12+0905SBQV V0201401N00101007501CN9999999N9+01911+01841101391ADDAA106000091AG10999GF108991081071008001999999KA1240M+02681MA1999999091431MD1999999-0011REMSYN017333   10268 59001
0096833440999991989041718004-14950-040883FM-12+0905SBQV V0201401N00311220001CN0200001N9+02481+01601101011ADDAA106000091AG10999GF104991041011008001001001MA1999999091101MD1999999-0131REMSYN011333   59013
0115833440999991989041800004-14950-040883FM-12+0905SBQV V0200901N00261220001CN9999999N9+01941+01701101171ADDAA106000091AG10999GF100991001001999999001001KA1240M+02561MA1999999091211MD1999999-0221REMSYN017333   10256 59022
0102833440999991989041812004-14950-040883FM-12+0905SBQV V0201401N00261220001CN0200001N9+02181+01561101271ADDAA106000091AG10999GF103991031011008001001001MA1999999091311MD1999999-0161REMSYN017333   20/// 59016
0115833440999991989041900004-14950-040883FM-12+0905SBQV V0200901N00361220001CN9999999N9+02061+01581101021ADDAA106000091AG10999GF100991001001999999001001KA1240M+02691MA1999999091101MD1999999-0111REMSYN017333   10269 59011
0102833440999991989041912004-14950-040883FM-12+0905SBQV V0200901N00211220001CN0200001N9+02371+01581101191ADDAA106000091AG10999GF100991001001999999001001MA1999999091271MD1999999-0041REMSYN017333   20/// 59004
0115833440999991989042000004-14950-040883FM-12+0905SBQV V0200901N01541220001CN9999999N9+02101+01661101031ADDAA106000091AG10999GF100991001001999999001001KA1240M+02941MA1999999091141MD1999999+0041REMSYN017333   10294 58004
0096833440999991989042018004-14950-040883FM-12+0905SBQV V0200901N00311007501CN0200001N9+02721+01771100751ADDAA106000091AG10999GF106991061071008001001001MA1999999090891MD1999999+0011REMSYN011333   58001
0115833440999991989042100004-14950-040883FM-12+0905SBQV V0200901N00261007501CN9999999N9+02221+01801101051ADDAA106000091AG10999GF107991071071008001001001KA1240M+03121MA1999999091161MD1999999+0021REMSYN017333   10312 58002
0130833440999991989042112004-14950-040883FM-12+0905SBQV V0201401N00261045001CN0200001N9+02341+01721101301ADDAA124002091AG10999AY161061AY221061GF106991041021008001031001MA1999999091391MD1999999+0181MW1021REMSYN023333   20/// 58018 60024
0102833440999991989042212004-14950-040883FM-12+0905SBQV V0200901N00151007501CN0200001N9+02191+01801101411ADDAA106000091AG10999GF108991051071008001011999MA1999999091451MD1999999+0061REMSYN017333   20/// 58006
0096833440999991989042218004-14950-040883FM-12+0905SBQV V0200901N00211220001CN0200001N9+02621+01671101121ADDAA106000091AG10999GF104991041051008001001001MA1999999091231MD1999999+0141REMSYN011333   58014
0130833440999991989042312004-14950-040883FM-12+0905SBQV V0201401N00361007501CN0020001N9+01911+01841101521ADDAA124000191AG10999AY161061AY251061GF108991081071008001999999MA1999999091531MD1999999+0081MW1211REMSYN023333   20/// 58008 69914
0124833440999991989042318004-14950-040883FM-12+0905SBQV V0200901N00311007501CN0020001N9+02061+01841101371ADDAA106999929AG10999AY151061AY251061GF108991081071008001999999MA1999999091391MD1999999+0161MW1501REMSYN017333   58016 69901
0115833440999991989042400004-14950-040883FM-12+0905SBQV V0200901N00311007501CN9999999N9+01951+01741101501ADDAA106000091AG10999GF108991081061008001999999KA1240M+02261MA1999999091491MD1999999+0271REMSYN017333   10226 58027
0102833440999991989042412004-14950-040883FM-12+0905SBQV V0201401N00361007501CN0200001N9+01941+01511101541ADDAA106000091AG10999GF105991051041008001001001MA1999999091541MD1999999+0011REMSYN017333   20/// 58001
0096833440999991989042418004-14950-040883FM-12+0905SBQV V0201401N00311007501CN0100001N9+02161+01611101281ADDAA106000091AG10999GF108991051071008001999999MA1999999091311MD1999999-0081REMSYN011333   59008
0115833440999991989042500004-14950-040883FM-12+0905SBQV V0201401N00211007501CN9999999N9+01801+01631101441ADDAA106000091AG10999GF106991061061008001001001KA1240M+02261MA1999999091431MD1999999-0061REMSYN017333   10226 59006
0102833440999991989042512004-14950-040883FM-12+0905SBQV V0201401N00261220001CN0200001N9+01981+01461101511ADDAA106000091AG10999GF102991011011008001001011MA1999999091501MD1999999-0041REMSYN017333   20/// 59004
0096833440999991989042518004-14950-040883FM-12+0905SBQV V0201401N00411220001CN0200001N9+02431+01301999999ADDAA106000091AG10999GF102991021011008001001001MA1999999091221MD1999999-0091REMSYN011333   59009
0115833440999991989042600004-14950-040883FM-12+0905SBQV V0201401N00361007501CN9999999N9+01951+01681101391ADDAA106000091AG10999GF107991071041008001001001KA1240M+02501MA1999999091401MD1999999-0031REMSYN017333   10250 59003
0141833440999991989042612004-14950-040883FM-12+0905SBQV V0201401N00361007501CN0200001N9+02021+01431101511ADDAA124000291AA299000391AG10999AY161061AY251061GF106991051021008001001011MA1999999091521MD1999999+0021MW1021REMSYN023333   20/// 58002 69924
0096833440999991989042618004-14950-040883FM-12+0905SBQV V0201401N00361007501CN0200001N9+02311+01581999999ADDAA106000091AG10999GF105991051061008001001001MA1999999091211MD1999999-0011REMSYN011333   59001
0115833440999991989042700004-14950-040883FM-12+0905SBQV V0200901N00311220001CN9999999N9+01971+01761101261ADDAA106000091AG10999GF103991031051008001001001KA1240M+02451MA1999999091291MD1999999-0111REMSYN017333   10245 59011
0102833440999991989042712004-14950-040883FM-12+0905SBQV V0201401N00311007501CN0100001N9+02061+01641101401ADDAA106000091AG10999GF108991051061008001011999MA1999999091421MD1999999-0101REMSYN017333   20/// 59010
0096833440999991989042718004-14950-040883FM-12+0905SBQV V0201401N00211007501CN0200001N9+02651+01591100881ADDAA106000091AG10999GF106991061051008001001001MA1999999090981MD1999999-0231REMSYN011333   59023
0102833440999991989042812004-14950-040883FM-12+0905SBQV V0202301N00101045001CN0200001N9+02281+01681101351ADDAA106000091AG10999GF106991031011008001011001MA1999999091391MD1999999-0031REMSYN017333   20/// 59003
0096833440999991989042818004-14950-040883FM-12+0905SBQV V0200901N00261007501CN0200001N9+02111+01821100901ADDAA106000091AG10999GF107991071041008001001001MA1999999091041MD1999999+0061REMSYN011333   58006
0096833440999991989042819004-14950-040883FM-12+0905SBQV V0200901N00261007501CN0200001N9+02111+01821100901ADDAA106000091AG10999GF107991071041008001001001MA1999999091041MD1999999+0061REMSYN011333   58006
0062833440999991989050100004-14950-040883FM-12+0905SBQV V0200501N00051220001CN9999999N9+02601+02061100091ADDAA106000091AG10999GF100991001001999999001001MA1999999098181
0102833440999991989050112004-14950-040883FM-12+0905SBQV V0201401N00101220001CN0200001N9+02261+01661101351ADDAA106000091AG10999GF102991021011008001001001MA1999999091421MD1999999+0021REMSYN017333   20/// 58002
0122833440999991989050118004-14950-040883FM-12+0905SBQV V0209991C00001007501CN0100001N9+02491+01111100981ADDAA106004091AG10999AY161061AY251061GF106991061051008001001001MD1710151+9999MW1011REMSYN011333   60041EQDQ01+100913APOSP 
0076833440999991989050200004-14950-040883FM-12+0905SBQV V0200501N00261220001CN9999999N9+02261+01541101211ADDAA106000091AG10999GF100991001001999999001001MA1999999091271MD1810011+9999
0102833440999991989050212004-14950-040883FM-12+0905SBQV V0201401N00311220001CN0200001N9+02131+01721101431ADDAA106000091AG10999GF100991001001999999001001MA1999999091451MD1999999+0031REMSYN017333   20/// 58003
0096833440999991989050218004-14950-040883FM-12+0905SBQV V0200901N00411220001CN0500001N9+02671+01611100971ADDAA106000091AG10999GF102991021011017501001001MA1999999091081MD1999999-0081REMSYN011333   59008
0102833440999991989050312004-14950-040883FM-12+0905SBQV V0201401N00151045001CN0100001N9+02131+01821101531ADDAA106000091AG10999GF108991041061008001021001MA1999999091551MD1999999+0101REMSYN017333   20/// 58010
0124833440999991989050318004-14950-040883FM-12+0905SBQV V0200901N00361007501CN0020001N9+02061+01961101071ADDAA106030091AG10999AY161061AY261061GF108991081071008001999999MA1999999091151MD1999999+0061MW1611REMSYN017333   58006 60301
0154833440999991989050400004-14950-040883FM-12+0905SBQV V0200901N00151007501CN9999999N9+01921+01801101281ADDAA106000891AA299001091AG10999AY161061AY251061GF108991081071008001999999KA1240M+02361MA1999999091321MD1999999+0111MW1211REMSYN023333   10236 58011 69981
0096833440999991989050418004-14950-040883FM-12+0905SBQV V0201401N00361045001CN0200001N9+02731+01701100981ADDAA106000091AG10999GF106991041041008001011001MA1999999091091MD1999999-0051REMSYN011333   59005
0062833440999991989050500004-14950-040883FM-12+0905SBQV V0200501N00311220001CN9999999N9+99999+99999101101ADDAA106000091AG10999GF100991001001999999001001MA1999999091171
0102833440999991989050512004-14950-040883FM-12+0905SBQV V0200501N00211220001CN0100001N9+02261+01621101371ADDAA106000091AG10999GF100991001001999999001001MA1999999091431MD1999999+0021REMSYN017333   20/// 58002
0096833440999991989050518004-14950-040883FM-12+0905SBQV V0201401N00311220001CN0200001N9+02711+01651100981ADDAA106000091AG10999GF100991001001999999001001MA1999999091091MD1999999+0001REMSYN011333   58000
0124833440999991989050612004-14950-040883FM-12+0905SBQV V0203601N00311220001CN0200001N9+02391+01651999999ADDAA106000091AG10999GF102991001001999999001091MA1999999091421MD1999999-0011ME1101359REMSYN011333   59001EQDQ01+000022SCOTLC
0102833440999991989050712004-14950-040883FM-12+0905SBQV V0203601N00311220001CN0200001N9+02491+01871101231ADDAA106000091AG10999GF100991001001999999001001MA1999999091341MD1999999-0081REMSYN017333   20/// 59008
0096833440999991989050718004-14950-040883FM-12+0905SBQV V0202701N00151007501CN0200001N9+03101+01621100821ADDAA106000091AG10999GF105991051011008001001001MA1999999091001MD1999999-0021REMSYN011333   59002
0134833440999991989050800004-14950-040883FM-12+0905SBQV V0200501N00311220001CN9999999N9+02371+02221100921ADDAA106000091AG10999GF100991001001999999001001KA1240M+03141MA1999999091922MD1999999-0101REMSYN017333   10314 59010EQDQ01+091923APOSP 
0102833440999991989050812004-14950-040883FM-12+0905SBQV V0200901N00411007501CN0100001N9+01951+01771101461ADDAA106000091AG10999GF108991081071008001999999MA1999999091501MD1999999+0161REMSYN017333   20/// 58016
0096833440999991989050818004-14950-040883FM-12+0905SBQV V0201401N00261007501CN0100001N9+02891+01711101341ADDAA106000091AG10999GF108991081071008001999999MA1999999091361MD1999999+0361REMSYN011333   58036
0127833440999991989050900004-14950-040883FM-12+0905SBQV V0201401N002119999999N9999999N9+02451+02091101321ADDAA106000091AG10999GA1091+999999999GF109991091999999999999999MA1999999999999MD1810381+9999EQDQ01+098453APOSP Q02 098453APOSP 
0102833440999991989050912004-14950-040883FM-12+0905SBQV V0201401N00411007501CN0100001N9+01861+01641101661ADDAA106000091AG10999GF108991081071008001999999MA1999999091621MD1999999+0121REMSYN017333   20/// 58012
0096833440999991989050918004-14950-040883FM-12+0905SBQV V0201401N00311007501CN0100001N9+02021+01621101531ADDAA106000091AG10999GF108991081071008001999999MA1999999091511MD1999999+0151REMSYN011333   58015
0141833440999991989051012004-14950-040883FM-12+0905SBQV V0201401N00361007501CN0100001N9+01791+01411101951ADDAA124000491AA299000591AG10999AY161061AY221061GF108991081071008001999999MA1999999091861MD1999999+0241MW1021REMSYN023333   20/// 58024 69944
0062833440999991989051100004-14950-040883FM-12+0905SBQV V0200901N00311007501CN9999999N9+01701+01411101831ADDAA106000091AG10999GF108991081061008001999999MA1999999091751
0102833440999991989051112004-14950-040883FM-12+0905SBQV V0201401N00311007501CN0100001N9+01641+01481102001ADDAA106000091AG10999GF108991081071008001999999MA1999999091891MD1999999+0031REMSYN017333   20/// 58003
0096833440999991989051118004-14950-040883FM-12+0905SBQV V0201401N00261007501CN0100001N9+02041+01451101631ADDAA106000091AG10999GF108991061061008001021999MA1999999091581MD1999999+0071REMSYN011333   58007
0115833440999991989051200004-14950-040883FM-12+0905SBQV V0201401N00571220001CN9999999N9+01991+01131101671ADDAA106000091AG10999GF100991001001999999001001KA1240M+02391MA1999999091831MD1999999-0071REMSYN017333   10239 59007
0102833440999991989051212004-14950-040883FM-12+0905SBQV V0201401N00411007501CN0200001N9+01841+01491101901ADDAA106000091AG10999GF107991071051008001001001MA1999999091821MD1999999-0071REMSYN017333   20/// 59007
0102833440999991989051214004-14950-040883FM-12+0905SBQV V0201401N00411007501CN0200001N9+01841+01491101901ADDAA106000091AG10999GF107991071051008001001001MA1999999091821MD1999999-0071REMSYN017333   20/// 59007
0096833440999991989051218004-14950-040883FM-12+0905SBQV V0200901N00261220001CN0200001N9+02201+01461101581ADDAA106000091AG10999GF104991041071008001001001MA1999999091561MD1999999-0021REMSYN011333   59002
0115833440999991989051300004-14950-040883FM-12+0905SBQV V0200901N00511007501CN9999999N9+01831+01621101771ADDAA106000091AG10999GF108991081061008001999999KA1240M+02251MA1999999091731MD1999999-0021REMSYN017333   10225 59002
0102833440999991989051312004-14950-040883FM-12+0905SBQV V0201401N00361007501CN0200001N9+01811+01411101901ADDAA106000091AG10999GF106991061051008001001001MA1999999091831MD1999999+0011REMSYN017333   20/// 58001
0143833440999991989051400004-14950-040883FM-12+0905SBQV V0201401N00311220001CN9999999N9+01701+01551101811ADDAA106000191AG10999AY161061AY211061GF102991021011008001001001KA1240M+02281MA1999999091741MD1999999+0011MW1011REMSYN023333   10228 58001 69911
0134833440999991989051500004-14950-040883FM-12+0905SBQV V0200901N005119999999N9999999N9+01861+01641101701ADDAA106000091AG10999GF108991081071999999999999KA1240M+02121MA1999999091661MD1999999-0081REMSYN017333   10212 59008EQDQ01+000992SCOLCB
0124833440999991989051512004-14950-040883FM-12+0905SBQV V0201401N00411007501CN0100001N9+01731+01521101921ADDAA124001091AG10999AY161061AY251061GF108991081071008001999999MA1999999091851MD1999999+0111MW1021REMSYN017333   58011 60014
0096833440999991989051518004-14950-040883FM-12+0905SBQV V0201401N00411004201CN0200001N9+02221+01351101591ADDAA106000091AG10999GF105991051051004501001001MA1999999091581MD1999999+0021REMSYN011333   58002
0115833440999991989051600004-14950-040883FM-12+0905SBQV V0200901N00151220001CN9999999N9+01681+01481101881ADDAA106000091AG10999GF100991001001999999001001KA1240M+02281MA1999999091791MD1999999+0131REMSYN017333   10228 58013
0102833440999991989051612004-14950-040883FM-12+0905SBQV V0201401N00361220001CN0200001N9+01841+01261101991ADDAA106000091AG10999GF103991031021008001001001MA1999999091901MD1999999+0051REMSYN017333   20/// 58005
0115833440999991989051618004-14950-040883FM-12+0905SBQV V0200901N00461220001CN0200001N9+02001+01451101561ADDAA106000091AG10999GF102991021011008001001001MA1999999101532MD1999999-0051REMSYN011333   59005EQDQ01+101533APOSP 
0102833440999991989051712004-14950-040883FM-12+0905SBQV V0201401N00361007501CN0200001N9+01771+01471101931ADDAA106000091AG10999GF106991061051008001001001MA1999999091851MD1999999-0051REMSYN017333   20/// 59005
0096833440999991989051718004-14950-040883FM-12+0905SBQV V0201401N00311045001CN0200001N9+02231+01371101671ADDAA106000091AG10999GF106991041041008001031001MA1999999091601MD1999999+0071REMSYN011333   58007
0115833440999991989051800004-14950-040883FM-12+0905SBQV V0201401N00211012001CN9999999N9+01941+01571101861ADDAA106000091AG10999GF107991071001012501021001KA1240M+02281MA1999999091811MD1999999+0071REMSYN017333   10228 58007
0102833440999991989051812004-14950-040883FM-12+0905SBQV V0201401N00311007501CN0100001N9+01861+01471101941ADDAA106000091AG10999GF108991081061008001999999MA1999999091891MD1999999+0041REMSYN017333   20/// 58004
0096833440999991989051818004-14950-040883FM-12+0905SBQV V0201401N00511007501CN0100001N9+02121+01461101651ADDAA106000091AG10999GF108991051061008001011999MA1999999091631MD1999999+0031REMSYN011333   58003
0062833440999991989051900004-14950-040883FM-12+0905SBQV V0200901N00511007501CN9999999N9+01901+01571101741ADDAA106000091AG10999GF108991081071008001999999MA1999999091741
0100833440999991989051912004-14950-040883FM-12+0905SBQV V0201401N00511007501CN0200001N9+01801+01351101881ADDAA106000091AG10999GF106991061071008001001001MA1999999091831UG2990309999REMSYN017222// 20/// 59006
0096833440999991989051918004-14950-040883FM-12+0905SBQV V0201401N00511045001CN0200001N9+02171+01261101641ADDAA106000091AG10999GF107991021011008001031001MA1999999091631MD1999999+0001REMSYN011333   58000
0115833440999991989052000004-14950-040883FM-12+0905SBQV V0200901N00311012001CN9999999N9+01831+01241101881ADDAA106000091AG10999GF108991081001012501031001KA1240M+02261MA1999999091811MD1999999+0071REMSYN017333   10226 58007
0141833440999991989052012004-14950-040883FM-12+0905SBQV V0201401N00361007501CN0040001N9+01671+01671101851ADDAA124000291AA299000391AG19039AY151061AY251061GF108991081071008001999999MA1999999091951MD1999999+0121MW1511REMSYN023333   20/// 58012 69924
0143833440999991989052100004-14950-040883FM-12+0905SBQV V0201401N00311004201CN9999999N9+01781+01751101981ADDAA106002091AG10999AY161061AY261061GF108991081051004501999999KA1240M+02211MA1999999091871MD1999999+0061MW1611REMSYN023333   10221 58006 60021
0130833440999991989052112004-14950-040883FM-12+0905SBQV V0201401N00261004201CN0040001N9+01761+01711102061ADDAA112004091AG10999AY161061AY261061GF108991081051004501999999MA1999999091961MD1999999+0011MW1511REMSYN023333   20/// 58001 60042
0124833440999991989052118004-14950-040883FM-12+0905SBQV V0200901N00311045001CN0200001N9+02211+01531101701ADDAA106000191AG10999AY161061AY221061GF106991041051008001041001MA1999999091681MD1999999-0011MW1021REMSYN017333   59001 69911
0115833440999991989052200004-14950-040883FM-12+0905SBQV V0201401N00211007501CN9999999N9+01801+01701101891ADDAA106000091AG10999GF108991081071008001999999KA1240M+02251MA1999999091821MD1999999-0051REMSYN017333   10225 59005
0130833440999991989052212004-14950-040883FM-12+0905SBQV V0200901N00361220001CN0200001N9+01901+01641101951ADDAA124001091AG10999AY161061AY251061GF106991041041008001001011MA1999999091881MD1999999-0081MW1021REMSYN023333   20/// 59008 60014
0143833440999991989052300004-14950-040883FM-12+0905SBQV V0201401N00511007501CN9999999N9+01721+01701101791ADDAA106005091AG10999AY161061AY261061GF108991071071008001999999KA1240M+02211MA1999999091741MD1999999-0081MW1611REMSYN023333   10221 59008 60051
0130833440999991989052312004-14950-040883FM-12+0905SBQV V0201401N00261007501CN0020001N9+01651+01611101841ADDAA124010091AG10999AY161061AY261061GF108991081071008001999999MA1999999091751MD1999999-0131MW1611REMSYN023333   20/// 59013 60104
0124833440999991989052318004-14950-040883FM-12+0905SBQV V0201401N00361007501CN0040001N9+01801+01751101571ADDAA106000191AG10999AY151061AY251061GF108991081071008001999999MA1999999091521MD1999999-0101MW1511REMSYN017333   59010 69911
0162833440999991989052400004-14950-040883FM-12+0905SBQV V0201401N00101007501CN9999999N9+02721+01701101751ADDAA106000391AG10999AY151061AY251061GF108991081071008001999999KA1240M+99999MA1999999091671MD1999999-0071MW1511REMSYN023333   10194 59007 69931EQDQ01 +01942ATMX  
0130833440999991989052412004-14950-040883FM-12+0905SBQV V0201401N00261007501CN0100001N9+01901+01771101651ADDAA124001091AG10999AY161061AY251061GF108991051071008001021999MA1999999091611MD1999999-0141MW1201REMSYN023333   20/// 59014 60014
0124833440999991989052418004-14950-040883FM-12+0905SBQV V0201501N00261045001CN0040001N9+02011+01891101401ADDAA106999929AG10999AY151061AY251061GF108991041071008001011999MA1999999091391MD1999999-0131MW1511REMSYN017333   59013 69901
0154833440999991989052500004-14950-040883FM-12+0905SBQV V0200901N00151004201CN9999999N9+01801+01751100631ADDAA106000991AA299001091AG10999AY161061AY261061GF108991081051004501999999KA1240M+02181MA1999999091601MD1999999-0071MW1511REMSYN023333   10218 59007 69991
0130833440999991989052512004-14950-040883FM-12+0905SBQV V0200901N00151220001CN0200001N9+02041+01561101641ADDAA124001091AG10999AY161061AY211061GF102991011011008001001011MA1999999091621MD1999999+0011MW1011REMSYN023333   20/// 58001 60014
0115833440999991989052600004-14950-040883FM-12+0905SBQV V0200501N00151220001CN9999999N9+01871+01601101501ADDAA106000091AG10999GF103991031021008001001001KA1240M+02401MA1999999091501MD1999999-0101REMSYN017333   10240 59010
0102833440999991989052612004-14950-040883FM-12+0905SBQV V0203601N00151220001CN0200001N9+02081+01701101471ADDAA106000091AG10999GF105991021011008001001011MA1999999091481MD1999999-0141REMSYN017333   20/// 59014
0096833440999991989052618004-14950-040883FM-12+0905SBQV V0201401N00261045001CN0200001N9+02521+01741101051ADDAA106000091AG10999GF107991041061008001011001MA1999999091141MD1999999-0231REMSYN011333   59023
0115833440999991989052700004-14950-040883FM-12+0905SBQV V0200501N00151007501CN9999999N9+02071+01761101261ADDAA106000091AG10999GF106991061061008001001001KA1240M+02801MA1999999091321MD1999999-0181REMSYN017333   10280 59018
0102833440999991989052712004-14950-040883FM-12+0905SBQV V0203601N00311105001CN0200001N9+02281+01731101351ADDAA106000091AG10999GF107991021001012501031081MA1999999091421MD1999999-0061REMSYN017333   20/// 59006
0115833440999991989052800004-14950-040883FM-12+0905SBQV V0200901N00151007501CN9999999N9+01941+01771101381ADDAA106000091AG10999GF106991061061008001001001KA1240M+02851MA1999999091421MD1999999+0101REMSYN017333   10285 58010
0102833440999991989052812004-14950-040883FM-12+0905SBQV V0201401N00261007501CN0100001N9+01871+01711101651ADDAA106000091AG10999GF108991081071008001999999MA1999999091631MD1999999+0211REMSYN017333   20/// 58021
0115833440999991989052900004-14950-040883FM-12+0905SBQV V0200901N00211007501CN9999999N9+01761+01681101531ADDAA106000091AG10999GF108991081071008001999999KA1240M+02141MA1999999091501MD1999999+0081REMSYN017333   10214 58008
0102833440999991989052912004-14950-040883FM-12+0905SBQV V0200901N00211007501CN0200001N9+01941+01681101731ADDAA106000091AG10999GF106991061021008001001001MA1999999091691MD1999999+0061REMSYN017333   20/// 58006
0096833440999991989052918004-14950-040883FM-12+0905SBQV V0201401N00311007501CN0200001N9+02251+01711101311ADDAA106000091AG10999GF108991081041008001999999MA1999999091341MD1999999-0071REMSYN011333   59007
0115833440999991989053000004-14950-040883FM-12+0905SBQV V0200901N00101220001CN9999999N9+01761+01631101561ADDAA106000091AG10999GF103991031061008001001001KA1240M+02421MA1999999091541MD1999999+0041REMSYN017333   10242 58004
0102833440999991989053012004-14950-040883FM-12+0905SBQV V0200501N00211220001CN0200001N9+02041+01521101691ADDAA106000091AG10999GF102991021011008001001001MA1999999091661MD1999999-0031REMSYN017333   20/// 59003
0115833440999991989053100004-14950-040883FM-12+0905SBQV V0200501N00311220001CN9999999N9+01811+01671101631ADDAA106000091AG10999GF103991031011008001001001KA1240M+02501MA1999999091621MD1999999+0081REMSYN017333   10250 58008
0102833440999991989053112004-14950-040883FM-12+0905SBQV V0200901N00151105001CN0200001N9+02031+01521101861ADDAA106000091AG10999GF105991011011008001001091MA1999999091821MD1999999+0161REMSYN017333   20/// 58016
0102833440999991989060100004-14950-040883FM-12+0905SBQV V0200901N00151220001CN9999999N9+01741+01541101771ADDAA106000091AG10999GF100991001001999999001001MA1999999091741MD1999999+0121REMSYN017333   10/// 58012
0102833440999991989060112004-14950-040883FM-12+0905SBQV V0201401N00361220001CN0200001N9+01881+01321101901ADDAA106000091AG10999GF102991021011008001001001MA1999999091831MD1999999+0011REMSYN017333   20/// 58001
0096833440999991989060118004-14950-040883FM-12+0905SBQV V0201401N00261045001CN0200001N9+02151+01571101581ADDAA106000091AG10999GF107991041041008001011001MA1999999091361MD1999999+0021REMSYN011333   58002
0115833440999991989060200004-14950-040883FM-12+0905SBQV V0200901N00311007501CN9999999N9+01741+01631101831ADDAA106000091AG10999GF108991081071008001999999KA1240M+02261MA1999999091761MD1999999+0021REMSYN017333   10226 58002
0102833440999991989060212004-14950-040883FM-12+0905SBQV V0201401N00361007501CN0200001N9+01811+01491101861ADDAA106000091AG10999GF106991061051008001001001MA1999999091791MD1999999-0041REMSYN017333   20/// 59004
0096833440999991989060218004-14950-040883FM-12+0905SBQV V0201401N00311007501CN0100001N9+02061+01621101521ADDAA106000091AG10999GF108991081071008001999999MA1999999091511MD1999999-0051REMSYN011333   59005
0115833440999991989060300004-14950-040883FM-12+0905SBQV V0200901N00311007501CN9999999N9+01841+01641101641ADDAA106000091AG10999GF108991081061008001999999KA1240M+02131MA1999999091611MD1999999-0151REMSYN017333   10213 59015
0102833440999991989060312004-14950-040883FM-12+0905SBQV V0201401N00361007501CN0100001N9+01841+01561101661ADDAA106000091AG10999GF108991081071008001999999MA1999999091631MD1999999-0161REMSYN017333   20/// 59016
0096833440999991989060318004-14950-040883FM-12+0905SBQV V0200901N00151045001CN0200001N9+02191+01671101291ADDAA106000091AG10999GF107991041061008001011001MA1999999091311MD1999999-0201REMSYN011333   59020
0115833440999991989060400004-14950-040883FM-12+0905SBQV V0200501N00211220001CN9999999N9+01881+01601101491ADDAA106000091AG10999GF100991001001999999001001KA1240M+02221MA1999999091471MD1999999-0141REMSYN017333   10222 59014
0102833440999991989060412004-14950-040883FM-12+0905SBQV V0201401N00051220001CN0200001N9+02021+01641101541ADDAA106000091AG10999GF100991001001999999001001MA1999999091541MD1999999-0091REMSYN017333   20/// 59009
0115833440999991989060500004-14950-040883FM-12+0905SBQV V0200901N00461220001CN9999999N9+01881+01491999999ADDAA106000091AG10999GF100991001001999999001001KA1240M+02721MA1999999094012MD1999999+0021REMSYN017333   10272 58002
0096833440999991989060518004-14950-040883FM-12+0905SBQV V0201401N00311007501CN0200001N9+02071+01621101451ADDAA106000091AG10999GF106991061041008001011001MA1999999091451MD1999999+0181REMSYN011333   58018
0115833440999991989060600004-14950-040883FM-12+0905SBQV V0200901N00311007501CN9999999N9+01881+01691101961ADDAA106000091AG10999GF108991081071008001999999KA1240M+02371MA1999999091631MD1999999+0141REMSYN017333   10237 58014
0130833440999991989060612004-14950-040883FM-12+0905SBQV V0200901N00311007501CN0040001N9+01711+01621101801ADDAA124999929AG10999AY151061AY251061GF108991081071008001999999MA1999999091731MD1999999+0041MW1501REMSYN023333   20/// 58004 69904
0096833440999991989060618004-14950-040883FM-12+0905SBQV V0200901N00361045001CN0200001N9+02111+01781101451ADDAA106000091AG10999GF107991041041008001051001MA1999999091441MD1999999-0011REMSYN011333   59001
0115833440999991989060700004-14950-040883FM-12+0905SBQV V0200901N00411007501CN9999999N9+01761+01591101671ADDAA106000091AG10999GF108991081061008001999999KA1240M+02161MA1999999091621MD1999999-0011REMSYN017333   10216 59001
0102833440999991989060712004-14950-040883FM-12+0905SBQV V0200901N00311045001CN0200001N9+02111+01601101741ADDAA106000091AG10999GF106991041051008001061001MA1999999091721MD1999999-0011REMSYN017333   20/// 59001
0096833440999991989060718004-14950-040883FM-12+0905SBQV V0200901N00361007501CN0200001N9+02051+01581101501ADDAA106000091AG10999GF106991061051008001001001MA1999999091481MD1999999+0041REMSYN011333   58004
0115833440999991989060800004-14950-040883FM-12+0905SBQV V0200901N00311220001CN9999999N9+01741+01561101661ADDAA106000091AG10999GF100991001001999999001001KA1240M+02321MA1999999091641MD1999999+0021REMSYN017333   10232 58002
0102833440999991989060812004-14950-040883FM-12+0905SBQV V0200501N00311220001CN0200001N9+01941+01571101731ADDAA106000091AG10999GF105991031011008001001011MA1999999091691MD1999999-0061REMSYN017333   20/// 59006
0115833440999991989060900004-14950-040883FM-12+0905SBQV V0200501N00311220001CN9999999N9+01861+01661101581ADDAA106000091AG10999GF100991001001999999001001KA1240M+02441MA1999999091561MD1999999-0081REMSYN017333   10244 59008
0102833440999991989060912004-14950-040883FM-12+0905SBQV V0203601N00051220001CN0200001N9+02221+01531101661ADDAA106000091AG10999GF102991021011008001001001MA1999999091661MD1999999-0031REMSYN017333   20/// 59003
0096833440999991989060918004-14950-040883FM-12+0905SBQV V0201801N00261007501CN0200001N9+02641+01661101211ADDAA106000091AG10999GF105991051051008001001001MA1999999091281MD1999999-0191REMSYN011333   59019
0115833440999991989061000004-14950-040883FM-12+0905SBQV V0200501N00311220001CN9999999N9+01951+01681101441ADDAA106000091AG10999GF100991001001999999001001KA1240M+02801MA1999999091471MD1999999-0091REMSYN017333   10280 59009
0121833440999991989061012004-14950-040883FM-12+0905SBQV V0202701N001019999999N0200001N9+02121+01641101671ADDAA106000091AG10999GF107991001001999999001081MA1999999091671MD1999999+0011REMSYN017333   20/// 58001EQDQ01+000952SCOLCB
0096833440999991989061018004-14950-040883FM-12+0905SBQV V0200901N00411220001CN0200001N9+02661+01561101301ADDAA106000091AG10999GF104991041021008001001001MA1999999091361MD1999999+0081REMSYN011333   58008
0115833440999991989061100004-14950-040883FM-12+0905SBQV V0201401N00151220001CN9999999N9+01901+01601101531ADDAA106000091AG10999GF100991001001999999001001KA1240M+02771MA1999999091541MD1999999+0071REMSYN017333   10277 58007
0102833440999991989061112004-14950-040883FM-12+0905SBQV V0200501N00461220001CN0200001N9+02081+01541101751ADDAA106000091AG10999GF102991021011008001001001MA1999999091741MD1999999+0071REMSYN017333   20/// 58007
0096833440999991989061118004-14950-040883FM-12+0905SBQV V0200501N00461004201CN0200001N9+02351+01561101381ADDAA106000091AG10999GF106991061021004501001001MA1999999091411MD1999999+0051REMSYN011333   58005
0115833440999991989061200004-14950-040883FM-12+0905SBQV V0200501N00311220001CN9999999N9+01831+01601101561ADDAA106000091AG10999GF100991001001999999001001KA1240M+02491MA1999999091551MD1999999+0011REMSYN017333   10249 58001
0062833440999991989061212004-14950-040883FM-12+0905SBQV V0203201N00101220001CN0200001N9+02131+01571101641ADDAA106000091AG10999GF105991001001999999001091MA1999999091641
0076833440999991989061300004-14950-040883FM-12+0905SBQV V0200901N00361220001CN9999999N9+01951+01631101581ADDAA106000091AG10999GF100991001001999999001001MA1999999091591MD1810041+9999
0102833440999991989061312004-14950-040883FM-12+0905SBQV V0201401N003119999999N0100001N9+01741+01451101951ADDAA106000091AG10999GF108991081001012501999999MA1999999091881MD1999999+0241REMSYN017333   20/// 58024
0096833440999991989061318004-14950-040883FM-12+0905SBQV V0200901N00311004201CN0100001N9+01901+99999101651ADDAA106000091AG10999GF108991081051004501999999MA1999999091621MD1999999+0301REMSYN011333   58030
0115833440999991989061400004-14950-040883FM-12+0905SBQV V0200901N00311220001CN9999999N9+01641+01481101871ADDAA106000091AG10999GF104991041021004501001001KA1240M+02141MA1999999091781MD1999999+0191REMSYN017333   10214 58019
0102833440999991989061412004-14950-040883FM-12+0905SBQV V0201401N00411220001CN0100001N9+01661+01171101971ADDAA106000091AG10999GF103991031011004501001001MA1999999091861MD1999999-0021REMSYN017333   20/// 59002
0096833440999991989061418004-14950-040883FM-12+0905SBQV V0201401N00311220001CN0200001N9+02111+00981101601ADDAA106000091AG10999GF100991001001999999001001MA1999999091561MD1999999+0061REMSYN011333   58006
0115833440999991989061500004-14950-040883FM-12+0905SBQV V0200901N00151220001CN9999999N9+01501+01081101791ADDAA106000091AG10999GF100991001001999999001001KA1240M+02161MA1999999091751MD1999999-0031REMSYN017333   10216 59003
0102833440999991989061512004-14950-040883FM-12+0905SBQV V0201401N00211004201CN0100001N9+99999+99999102131ADDAA106000091AG10999GF108991081051004501999999MA1999999091981MD1999999+0121REMSYN017333   20/// 58012
0096833440999991989061518004-14950-040883FM-12+0905SBQV V0200901N00411045001CN0100001N9+01841+01411101811ADDAA106000091AG10999GF107991041031004501061001MA1999999091721MD1999999+0161REMSYN011333   58016
0143833440999991989061612004-14950-040883FM-12+0905SBQV V0201401N00211004201CN0100001N9+01601+01401102111ADDAA124003091AG19045AY161061AY211061GF108991081051004501999999MA1999999091971MD1999999-0011REMSYN023333   20/// 59001 60034EQDQ01+000222PRSWM1
0124833440999991989061618004-14950-040883FM-12+0905SBQV V0200901N00211004201CN0100001N9+01761+01541101811ADDAA106002091AG19005AY161061AY211061GF108991081051004501999999MA1999999091711MD1999999-0011MW1021REMSYN017333   59001 60021
0143833440999991989061700004-14950-040883FM-12+0905SBQV V0200901N00311004201CN9999999N9+01461+01421102071ADDAA106001091AG10999AY161061AY211061GF108991081051004501999999KA1240M+01841MA1999999091941MD1999999+0171MW1021REMSYN023333   10184 58017 60011
0130833440999991989061712004-14950-040883FM-12+0905SBQV V0201401N00261004201CN0040001N9+01601+01581102061ADDAA124004091AG10999AY161061AY221061GF108991081071004501999999MA1999999091931MD1999999-0041MW1031REMSYN023333   20/// 59004 60044
0124833440999991989061718004-14950-040883FM-12+0905SBQV V0201401N00211004201CN0100001N9+01931+01401101691ADDAA106000191AG10999AY151061AY211061GF107991071071004501001001MA1999999091621MD1999999-0091MW1021REMSYN017333   59009 69911
0115833440999991989061800004-14950-040883FM-12+0905SBQV V0209999999999004201CN9999999N9+01621+01521101891ADDAA106000091AG10999GF107991071061004501001001KA1240M+01971MA1999999091781MD1999999-0161REMSYN017333   10197 59016
0096833440999991989061818004-14950-040883FM-12+0905SBQV V0201401N00311004201CN0040001N9+01871+01731101501ADDAA106000091AG10999GF107991071051004501001001MA1999999091461MD1999999-0161REMSYN011333   59016
0143833440999991989061900004-14950-040883FM-12+0905SBQV V0201401N00211004201CN9999999N9+01751+01561101761ADDAA106000391AG10999AY151061AY221061GF108991081051004501999999KA1240M+01931MA1999999091681MD1999999-0101MW1031REMSYN023333   10193 59010 69931
0141833440999991989061912004-14950-040883FM-12+0905SBQV V0201401N00261004201CN0040001N9+01631+01621101811ADDAA124000891AA299001091AG10999AY161061AY221061GF108991081051004501999999MA1999999091731MD1999999-0021MW1511REMSYN023333   20/// 59002 69984
0130833440999991989062012004-14950-040883FM-12+0905SBQV V0201401N00311045001CN0100001N9+01811+01671101901ADDAA124000591AG10999AY151061AY221061GF107991041031004501071001MA1999999091821MD1999999+0091MW1011REMSYN023333   20/// 58009 69954
0124833440999991989062018004-14950-040883FM-12+0905SBQV V0201401N00261045001CN0200001N9+02151+01431101661ADDAA106000191AG19003AY151061AY221061GF106991021011012501061091MA1999999091641MD1999999+0081MW1011REMSYN017333   58008 69911
0115833440999991989062100004-14950-040883FM-12+0905SBQV V0200501N00261220001CN9999999N9+01691+01481101801ADDAA106000091AG10999GF100991001001999999001001KA1240M+02211MA1999999091731MD1999999-0021REMSYN017333   10221 59002
0108833440999991989062112004-14950-040883FM-12+0905SBQV V0201401N00311220001CN0100001N9+01851+01471101831ADDAA124000191AG10999GF104991999999008001999999MA1999999091751MD1999999-0071REMSYN023333   20/// 59007 69914
0096833440999991989062118004-14950-040883FM-12+0905SBQV V0201401N00361220001CN0200001N9+02231+01531101481ADDAA106000091AG10999GF104991041021004501001001MA1999999091481MD1999999-0161REMSYN011333   59016
0115833440999991989062200004-14950-040883FM-12+0905SBQV V0200501N00261220001CN9999999N9+01811+01691101641ADDAA106000091AG10999GF100991001001999999001001KA1240M+02311MA1999999091161MD1999999-0121REMSYN017333   10231 59012
0102833440999991989062212004-14950-040883FM-12+0905SBQV V0201401N00261045001CN0100001N9+01901+01681101711ADDAA106000091AG10999GF108991041071008001011999MA1999999091671MD1999999-0081REMSYN017333   20/// 59008
0096833440999991989062218004-14950-040883FM-12+0905SBQV V0200901N00211220001CN0200001N9+02321+01421101411ADDAA106000091AG10999GF104991041021004501001001MA1999999091431MD1999999-0051REMSYN011333   59005
0115833440999991989062300004-14950-040883FM-12+0905SBQV V0200901N00211220001CN9999999N9+01811+01691101611ADDAA106000091AG10999GF104991041061004501001001KA1240M+02371MA1999999091591MD1999999-0021REMSYN017333   10237 59002
0102833440999991989062412004-14950-040883FM-12+0905SBQV V0200501N003119999999N0100001N9+01951+01531101721ADDAA106000091AG10999GF105991051001008001061001MA1999999091671MD1999999+0001REMSYN017333   20/// 58000
0115833440999991989062500004-14950-040883FM-12+0905SBQV V0200901N00151220001CN9999999N9+01681+01561101451ADDAA106000091AG10999GF100991001001999999001001KA1240M+02431MA1999999091431MD1999999-0141REMSYN017333   10243 59014
0102833440999991989062512004-14950-040883FM-12+0905SBQV V0203601N00311220001CN0200001N9+01961+01531101541ADDAA106000091AG10999GF100991001001999999001001MA1999999091511MD1999999-0161REMSYN017333   20/// 59016
0096833440999991989062518004-14950-040883FM-12+0905SBQV V0203201N00261220001CN0200001N9+02651+01331101061ADDAA106000091AG10999GF104991041021004501001001MA1999999091131MD1999999-0281REMSYN011333   59028
0115833440999991989062600004-14950-040883FM-12+0905SBQV V0200501N00361220001CN9999999N9+01951+01701101201ADDAA106000091AG10999GF100991001001999999001001KA1240M+02701MA1999999091171MD1999999-0261REMSYN017333   10270 59026
0102833440999991989062612004-14950-040883FM-12+0905SBQV V0203601N00461007501CN0100001N9+01901+01661101371ADDAA106000091AG10999GF108991081071008001999999MA1999999091381MD1999999-0131REMSYN017333   20/// 59013
0126833440999991989062700004-14950-040883FM-12+0905SBQV V0203201N00101004201CN9999999N9+01711+01651101271ADDAG10999AY161061AY221061GF108991081071004501999999KA1240M+02011MA1999999091261MD1999999+0091MW1171REMSYN017333   10201 58009
0124833440999991989062718004-14950-040883FM-12+0905SBQV V0203601N00151007501CN0200001N9+01951+01661101251ADDAA106000191AG10999AY161061AY221061GF107991071061008001001001MA1999999091241MD1999999+0161MW1021REMSYN017333   58016 69911
0115833440999991989062800004-14950-040883FM-12+0905SBQV V0203601N00261220001CN9999999N9+01741+01591101451ADDAA106000091AG10999GF100991001001999999001001KA1240M+01991MA1999999091411MD1999999+0151REMSYN017333   10199 58015
0108833440999991989062812004-14950-040883FM-12+0905SBQV V0203601N00511007501CN0200001N9+01871+01661101641ADDAA124000191AG10999GF106991061061008001001001MA1999999091591MD1999999+0221REMSYN023333   20/// 58022 69914
0096833440999991989062818004-14950-040883FM-12+0905SBQV V0203601N00261220001CN0200001N9+02391+01651101281ADDAA106000091AG10999GF102991021011008001001001MA1999999091341MD1999999+0101REMSYN011333   58010
0115833440999991989062900004-14950-040883FM-12+0905SBQV V0203601N00261220001CN9999999N9+02001+01651101411ADDAA106000091AG10999GF100991001001999999001001KA1240M+02441MA1999999091421MD1999999+0011REMSYN017333   10244 58001
0087833440999991989062912004-14950-040883FM-12+0905SBQV V0203601N00051045001CN0200001N9+01811+99999101651ADDAA106000091AG10999GF105991021061008001031001MD1999999-0061REMSYN017333   20/// 59006
0115833440999991989063000004-14950-040883FM-12+0905SBQV V0200501N00311220001CN9999999N9+01991+01761101681ADDAA106000091AG10999GF100991001001999999001001KA1240M+02571MA1999999091671MD1999999+0251REMSYN017333   10257 58025
0102833440999991989063012004-14950-040883FM-12+0905SBQV V0200501N00311220001CN0200001N9+02091+01621101921ADDAA106000091AG10999GF102991021011008001001001MA1999999091901MD1999999+0251REMSYN017333   20/// 58025
0096833440999991989063018004-14950-040883FM-12+0905SBQV V0200901N00311007501CN0200001N9+02421+01511101651ADDAA106000091AG10999GF105991051021008001001001MA1999999091661MD1999999+0211REMSYN011333   58021
0115833440999991989070100004-14950-040883FM-12+0905SBQV V0201401N00101220001CN9999999N9+01821+01621101841ADDAA106000091AG10999GF100991001001999999001001KA1240M+02521MA1999999091811MD1999999+0141REMSYN017333   10252 58014
0102833440999991989070112004-14950-040883FM-12+0905SBQV V0200901N00511220001CN0200001N9+02011+01431101901ADDAA106000091AG10999GF102991021011008001001001MA1999999091851MD1999999-0051REMSYN017333   20/// 59005
0096833440999991989070118004-14950-040883FM-12+0905SBQV V0201401N00361220001CN0200001N9+02261+01541101551ADDAA106000091AG10999GF104991041021004501001001MA1999999091551MD1999999-0111REMSYN011333   59011
0119833440999991989070212004-14950-040883FM-12+0905SBQV V0200901N00511007501CN0200001N9+01841+01531101861ADDAA124000291AA299000391AG10999GF106991061051008001001001MA1999999091791MD1999999-0061REMSYN023333   20/// 59006 69924
0115833440999991989070300004-14950-040883FM-12+0905SBQV V0200501N00311220001CN9999999N9+01781+01631101831ADDAA106000091AG10999GF100991001001999999001001KA1240M+02251MA1999999091761MD1999999+0041REMSYN017333   10225 58004
0141833440999991989070312004-14950-040883FM-12+0905SBQV V0201401N00311007501CN0040001N9+01701+01641101921ADDAA124000491AA299000591AG10999AY161061AY251061GF108991081051008001999999MA1999999091841MD1999999+0051MW1511REMSYN023333   20/// 58005 69944
0096833440999991989070318004-14950-040883FM-12+0905SBQV V0201401N00211045001CN0200001N9+02191+01671101521ADDAA106000091AG10999GF106991031051008001061001MA1999999091521MD1999999-0141REMSYN011333   59014
0115833440999991989070400004-14950-040883FM-12+0905SBQV V0200901N00261004201CN9999999N9+01681+01601101701ADDAA106000091AG10999GF105991051071004501001001KA1240M+02231MA1999999091631MD1999999-0131REMSYN017333   10223 59013
0108833440999991989070412004-14950-040883FM-12+0905SBQV V0200901N00461012001CN0200001N9+01821+01411101871ADDAA124000391AG10999GF105991051061012501001001MA1999999091791MD1999999-0051REMSYN023333   20/// 59005 69934
0096833440999991989070418004-14950-040883FM-12+0905SBQV V0200901N00411220001CN0200001N9+02231+02231101571ADDAA106000091AG10999GF103991031021008001001001MA1999999091551MD1999999+0031REMSYN011333   58003
0143833440999991989070500004-14950-040883FM-12+0905SBQV V0201401N00101004201CN9999999N9+01651+01551101751ADDAA106000191AG10999AY151061AY211061GF105991051051004501001001KA1240M+02261MA1999999091681MD1999999+0051MW1031REMSYN023333   10226 58005 69911
0130833440999991989070512004-14950-040883FM-12+0905SBQV V0200901N00211007501CN0040001N9+01721+01501101991ADDAA124000191AG10999AY161061AY251061GF108991081071008001999999MA1999999091891MD1999999+0101MW1501REMSYN023333   20/// 58010 69914
0096833440999991989070518004-14950-040883FM-12+0905SBQV V0201401N00261007501CN0200001N9+02191+01541101601ADDAA106000091AG10999GF106991061051008001001001MA1999999091581MD1999999+0031REMSYN011333   58003
0115833440999991989070600004-14950-040883FM-12+0905SBQV V0201401N00151220001CN9999999N9+01651+01531101801ADDAA106000091AG10999GF100991001001999999001001KA1240M+02311MA1999999091721MD1999999+0041REMSYN017333   10231 58004
0102833440999991989070612004-14950-040883FM-12+0905SBQV V0201401N00311220001CN0200001N9+01951+01441101741ADDAA106000091AG10999GF102991999999999999999999MA1999999091741MD1999999-0151REMSYN017333   20/// 59015
0096833440999991989070618004-14950-040883FM-12+0905SBQV V0200901N00461220001CN0200001N9+02201+01341101611ADDAA106000091AG10999GF103991031021008001001001MA1999999091591MD1999999+0011REMSYN011333   58001
0115833440999991989070700004-14950-040883FM-12+0905SBQV V0200901N00101004201CN9999999N9+01771+01561101831ADDAA106000091AG10999GF107991071071004501001001KA1240M+02311MA1999999091581MD1999999+0051REMSYN017333   10231 58005
0121833440999991989070712004-14950-040883FM-12+0905SBQV V0201401N004619999999N0100001N9+01581+01431102011ADDAA106000091AG10999GF107991999071008001999999MA1999999091911MD1999999+0171REMSYN017333   20/// 58017EQDQ01+000082SCOTLC
0115833440999991989070800004-14950-040883FM-12+0905SBQV V0201401N00311004201CN9999999N9+01461+01441102001ADDAA106000091AG10999GF108991081051004501999999KA1240M+01811MA1999999091861MD1999999+0081REMSYN017333   10181 58008
0130833440999991989070812004-14950-040883FM-12+0905SBQV V0201401N00411007501CN0040001N9+01531+01481102031ADDAA124000591AG10999AY151061AY251061GF108991081071008001999999MA1999999091891MD1999999-0021MW1501REMSYN023333   20/// 59002 69954
0096833440999991989070818004-14950-040883FM-12+0905SBQV V0201401N00461007501CN0100001N9+01691+01501101571ADDAA106000091AG10999GF108991081031008001999999MA1999999091691MD1999999+0021REMSYN011333   58002
0143833440999991989070900004-14950-040883FM-12+0905SBQV V0201401N00261004201CN9999999N9+01521+01471101931ADDAA106000191AG10999AY151061AY211061GF108991081051004501999999KA1240M+01781MA1999999091801MD1999999-0061MW1511REMSYN023333   10178 59006 69911
