0213823920999992006010100004-03700-040350FM-12+008399999V0203601N004610450019N0040001N1+02741+02071100891ADDAA106000891AY161061AY221061GF106991041041004501031001KA1240M+03521MA1999999099871MD1999999+0001MW1021REMSYN100AAXX  01004 82392 21496 63609 10274 20207 39987 40089 70262 84430 333 10352 29054 55069 58000 69981;
0173823920999992006010112004-03700-040350FM-12+008399999V0202301N002110450019N0500001N1+02541+02171101021ADDAA124000891GF107991031051004501011001KA1240N+02341MA1999999100001MD1999999+0051REMSYN082AAXX  01124 82392 22499 72304 10254 20217 30000 40102 83510 333 20234 58005 69984;
0220823920999992006010212004-03700-040350FM-12+008399999V0200501N000519999999N0500001N1+02801+02181101021ADDAA124000891AY121061AY221061GF105991999051004501001001KA1240N+02301MA1999999100001MD1999999+0001MW1611REMSYN088AAXX  02124 82392 21499 50501 10280 20218 30000 40102 76122 84500 333 20230 58000 69984;EQDQ01+000042SCOTLC
0182823920999992006010218004-03700-040350FM-12+008399999V0200501N005710042019N0500001N1+03261+01801100591ADDAA106000021AY151061AY221061GF108991061051004501031001MA1999999099581MD1999999-0121MW1021REMSYN082AAXX  02184 82392 21499 80511 10326 20180 39958 40059 70252 86530 333 59012 69911;
0168823920999992006010300004-03700-040350FM-12+008399999V0203601N003119999999N0040001N1+02801+02001100861ADDGF108991041061999999021999KA1240M+03581MA1999999099841MD1999999-0031REMSYN088AAXX  03004 82392 32996 83606 10280 20200 39984 40086 8462/ 333 10358 29059 55051 59003;
0173823920999992006010312004-03700-040350FM-12+008399999V0200901N002112200019N0500001N1+02981+02121100971ADDAA124000021GF104991041021004501001001KA1240N+02301MA1999999099961MD1999999-0041REMSYN082AAXX  03124 82392 22499 40904 10298 20212 39996 40097 84200 333 20230 59004 69914;
0137823920999992006010318004-03700-040350FM-12+008399999V0203601N001510450019N0500001N1+03571+01751100471ADDGF105991041021004501031001MA1999999099471MD1999999-0111REMSYN070AAXX  03184 82392 32499 53603 10357 20175 39947 40047 84230 333 59011;
0168823920999992006010400004-03700-040350FM-12+008399999V0200501N001012200019N0040001N1+02871+01911100811ADDGF101991011001008001031001KA1240M+03721MA1999999099801MD1999999-0041REMSYN088AAXX  04004 82392 32596 10502 10287 20191 39980 40081 81030 333 10372 29052 55096 59004;
0156823920999992006010412004-03700-040350FM-12+008399999V0200501N002612200019N0500001N1+02881+02031100871ADDGF104991041021004501001001KA1240N+02311MA1999999099861MD1999999-0101REMSYN076AAXX  04124 82392 32499 40505 10288 20203 39986 40087 84200 333 20231 59010;
0137823920999992006010418004-03700-040350FM-12+008399999V0200901N003110450019N0500001N1+03701+01241100341ADDGF105991031021004501031001MA1999999099341MD1999999-0131REMSYN070AAXX  04184 82392 32499 50906 10370 20124 39934 40034 83230 333 59013;
0168823920999992006010500004-03700-040350FM-12+008399999V0200501N001012200019N0040001N1+02801+01901100641ADDGF101991011001008001011001KA1240M+03761MA1999999099631MD1999999-0171REMSYN088AAXX  05004 82392 32596 10502 10280 20190 39963 40064 81010 333 10376 29050 55095 59017;
0156823920999992006010512004-03700-040350FM-12+008399999V0200901N001010042019N0500001N1+02861+02031100901ADDGF107991051041004501031001KA1240N+02311MA1999999099881MD1999999+0021REMSYN076AAXX  05124 82392 32499 70902 10286 20203 39988 40090 85430 333 20231 58002;
0156823920999992006010518004-03700-040350FM-12+008399999V0203601N001519999999N0500001N1+03481+01791100411ADDGF106991999051004501001001MA1999999099411MD1999999+0071REMSYN070AAXX  05184 82392 32499 63603 10348 20179 39941 40041 83500 333 58007;EQDQ01+000032SCOTLC
0156823920999992006010612004-03700-040350FM-12+008399999V0200501N001512200019N0500001N1+02861+02141100901ADDGF104991041021004501001001KA1240N+02341MA1999999099881MD1999999+0001REMSYN076AAXX  06124 82392 32499 40503 10286 20214 39988 40090 84200 333 20234 58000;
0137823920999992006010618004-03700-040350FM-12+008399999V0200901N001010450019N0500001N1+03601+02221100481ADDGF106991041021004501011001MA1999999099481MD1999999+0071REMSYN070AAXX  06184 82392 32499 60902 10360 20222 39948 40048 84210 333 58007;
0168823920999992006010700004-03700-040350FM-12+008399999V0200501N005110450019N0040001N1+02741+02141100941ADDGF106991041011004501011001KA1240M+03681MA1999999099921MD1999999+0161REMSYN088AAXX  07004 82392 32496 60510 10274 20214 39992 40094 84110 333 10368 29062 55086 58016;
0201823920999992006010712004-03700-040350FM-12+008399999V0200501N004110450019N0500001N1+02861+02161101041ADDAA124000891AY121061AY261061GF107991041061004501011001KA1240N+02501MA1999999100021MD1999999+0141MW1031REMSYN088AAXX  07124 82392 21499 70508 10286 20216 30002 40104 70326 84610 333 20250 58014 69984;
0137823920999992006010718004-03700-040350FM-12+008399999V0200501N001010450019N0500001N1+03481+01581100521ADDGF106991041021004501031001MA1999999099521MD1999999+0041REMSYN070AAXX  07184 82392 32499 60502 10348 20158 39952 40052 84230 333 58004;
0178823920999992006010800004-03700-040350FM-12+008399999V0203601N002612200019N0040001N1+02721+02031100821ADDGA1001+999999999GF100991001001999999001001KA1240M+03521MA1999999099801MD1999999-0121REMSYN082AAXX  08004 82392 32996 03605 10272 20203 39980 40082 333 10352 29057 55066 59012;
0156823920999992006010812004-03700-040350FM-12+008399999V0200901N001510450019N0500001N1+02831+02011101061ADDGF106991041041004501031001KA1240N+02331MA1999999100041MD1999999+0021REMSYN076AAXX  08124 82392 32499 60903 10283 20201 30004 40106 84430 333 20233 58002;
0137823920999992006010818004-03700-040350FM-12+008399999V0203201N005110042019N0500001N1+03631+01751100541ADDGF106991061021004501001001MA1999999099541MD1999999+0021REMSYN070AAXX  08184 82392 32499 63210 10363 20175 39954 40054 86200 333 58002;
0156823920999992006010912004-03700-040350FM-12+008399999V0200501N002610042019N0200001N1+02861+02011101031ADDGF108991051051004501021999KA1240N+02381MA1999999100011MD1999999-0031REMSYN076AAXX  09124 82392 32498 80505 10286 20201 30001 40103 8552/ 333 20238 59003;
0137823920999992006010918004-03700-040350FM-12+008399999V0200501N001010450019N0500001N1+03421+01411100561ADDGF107991041051004501031001MA1999999099561MD1999999+0021REMSYN070AAXX  09184 82392 32499 70502 10342 20141 39956 40056 84530 333 58002;
0168823920999992006011000004-03700-040350FM-12+008399999V0203601N002610450019N0040001N1+02751+02141100941ADDGF107991031041004501031001KA1240M+03521MA1999999099921MD1999999+0021REMSYN088AAXX  10004 82392 32496 73605 10275 20214 39992 40094 83430 333 10352 29058 55045 58002;
0156823920999992006011012004-03700-040350FM-12+008399999V0200901N002610450019N0500001N1+02901+02101101101ADDGF107991041051004501031001KA1240N+02491MA1999999100081MD1999999+0071REMSYN076AAXX  10124 82392 32499 70905 10290 20210 30008 40110 84530 333 20249 58007;
0168823920999992006011100004-03700-040350FM-12+008399999V0203601N001010450019N0040001N1+02741+02281101061ADDGF107991021051004501011001KA1240M+03601MA1999999100041MD1999999+0121REMSYN088AAXX  11004 82392 32496 73602 10274 20228 30004 40106 82510 333 10360 29063 55044 58012;
0192823920999992006011112004-03700-040350FM-12+008399999V0200501N003112200019N0500001N1+02981+01831101051ADDAA124000091GF104991041021004501001001KA1240N+02451MA1999999100041MD1999999-0041REMSYN082AAXX  11124 82392 22499 40506 10298 20183 30004 40105 84200 333 20245 59004 69924;EQDQ01  00002PRCP24
0137823920999992006011118004-03700-040350FM-12+008399999V0201801N001010450019N0500001N1+03421+01241100601ADDGF105991031021004501031001MA1999999099601MD1999999-0011REMSYN070AAXX  11184 82392 32499 51802 10342 20124 39960 40060 83230 333 59001;
0137823920999992006011218004-03700-040350FM-12+008399999V0201401N001010042019N0500001N1+03461+01781100731ADDGF105991051021004501001001MA1999999099721MD1999999+0121REMSYN070AAXX  12184 82392 32499 51402 10346 20178 39972 40073 85200 333 58012;
0178823920999992006011300004-03700-040350FM-12+008399999V0203601N003112200019N0040001N1+02801+02111100961ADDGA1001+999999999GF100991001001999999001001KA1240M+03601MA1999999099951MD1999999+0041REMSYN082AAXX  13004 82392 32996 03606 10280 20211 39995 40096 333 10360 29057 55089 58004;
0156823920999992006011312004-03700-040350FM-12+008399999V0200901N002612200019N0500001N1+03001+02081101051ADDGF101991011011004501001001KA1240N+02371MA1999999100041MD1999999-0061REMSYN076AAXX  13124 82392 32499 10905 10300 20208 30004 40105 81100 333 20237 59006;
0137823920999992006011318004-03700-040350FM-12+008399999V0201401N002612200019N0500001N1+03671+01581100671ADDGF104991031021004501031001MA1999999099661MD1999999-0061REMSYN070AAXX  13184 82392 32499 41405 10367 20158 39966 40067 83230 333 59006;
0168823920999992006011400004-03700-040350FM-12+008399999V0203601N004112200019N0040001N1+02901+02041100911ADDGF103991031001008001031001KA1240M+03801MA1999999099901MD1999999-0051REMSYN088AAXX  14004 82392 32596 33608 10290 20204 39990 40091 83030 333 10380 29052 55103 59005;
0156823920999992006011412004-03700-040350FM-12+008399999V0200901N001012200019N0500001N1+03071+01981100991ADDGF102991011011004501011001KA1240N+02401MA1999999099981MD1999999-0061REMSYN076AAXX  14124 82392 32499 20902 10307 20198 39998 40099 81110 333 20240 59006;
0137823920999992006011418004-03700-040350FM-12+008399999V0200901N001010042019N0500001N1+03661+01671100601ADDGF105991051021004501001001MA1999999099601MD1999999-0061REMSYN070AAXX  14184 82392 32499 50902 10366 20167 39960 40060 85200 333 59006;
0168823920999992006011500004-03700-040350FM-12+008399999V0200501N003112200019N0040001N1+02771+02161100981ADDGF102991021001008001011001KA1240M+03741MA1999999099971MD1999999+0071REMSYN088AAXX  15004 82392 32596 20506 10277 20216 39997 40098 82010 333 10374 29055 55102 58007;
0156823920999992006011512004-03700-040350FM-12+008399999V0200901N002612200019N0500001N1+02961+02281100971ADDGF103991031011004501001001KA1240N+02121MA1999999099961MD1999999-0021REMSYN076AAXX  15124 82392 32499 30905 10296 20228 39996 40097 83100 333 20212 59002;
0137823920999992006011518004-03700-040350FM-12+008399999V0200901N001010450019N0500001N1+03541+01801100551ADDGF106991041051004501031001MA1999999099551MD1999999-0051REMSYN070AAXX  15184 82392 32499 60902 10354 20180 39955 40055 84530 333 59005;
0168823920999992006011600004-03700-040350FM-12+008399999V0203601N004610450019N0040001N1+02781+02131100871ADDGF105991031011004501031001KA1240M+03681MA1999999099861MD1999999-0131REMSYN088AAXX  16004 82392 32496 53609 10278 20213 39986 40087 83130 333 10368 29060 55091 59013;
0156823920999992006011612004-03700-040350FM-12+008399999V0200501N001012200019N0500001N1+02981+02251101011ADDGF104991041021004501001001KA1240N+02391MA1999999100001MD1999999+0051REMSYN076AAXX  16124 82392 32499 40502 10298 20225 30000 40101 84200 333 20239 58005;
0168823920999992006011700004-03700-040350FM-12+008399999V0203601N003112200019N0040001N1+02801+01981100861ADDGF102991021001008001011001KA1240M+03541MA1999999099851MD1999999+0011REMSYN088AAXX  17004 82392 32596 23606 10280 20198 39985 40086 82010 333 10354 29057 55069 58001;
0156823920999992006011712004-03700-040350FM-12+008399999V0201401N001010450019N0500001N1+02861+02231100981ADDGF106991041021004501031001KA1240N+02401MA1999999099961MD1999999-0041REMSYN076AAXX  17124 82392 32499 61402 10286 20223 39996 40098 84230 333 20240 59004;
0137823920999992006011718004-03700-040350FM-12+008399999V0200901N001010450019N0500001N1+03481+01791100601ADDGF106991021021004501011021MA1999999099601MD1999999+0001REMSYN070AAXX  17184 82392 32499 60902 10348 20179 39960 40060 82212 333 58000;
0168823920999992006011800004-03700-040350FM-12+008399999V0203601N001510450019N0040001N1+02821+02021100931ADDGF106991021021004501011021KA1240M+03571MA1999999099911MD1999999+0061REMSYN088AAXX  18004 82392 32496 63603 10282 20202 39991 40093 82212 333 10357 29058 55049 58006;
0156823920999992006011812004-03700-040350FM-12+008399999V0203601N002610450019N0500001N1+02841+02351101021ADDGF108991041041004501021999KA1240N+02511MA1999999100001MD1999999+0041REMSYN076AAXX  18124 82392 32499 83605 10284 20235 30000 40102 8442/ 333 20251 58004;
0213823920999992006011900004-03700-040350FM-12+008399999V0203601N001510450019N0040001N1+02721+02151100901ADDAA106011991AY161061AY261061GF108991021021004501021999KA1240M+03331MA1999999099881MD1999999-0031MW1021REMSYN100AAXX  19004 82392 21496 83603 10272 20215 39988 40090 70266 8222/ 333 10333 29068 55028 59003 60121;
0173823920999992006011912004-03700-040350FM-12+008399999V0200901N001010450019N0500001N1+02831+02171100891ADDAA124011991GF107991041041004501031001KA1240N+02331MA1999999099871MD1999999-0131REMSYN082AAXX  19124 82392 22499 70902 10283 20217 39987 40089 84430 333 20233 59013 60124;
0137823920999992006011918004-03700-040350FM-12+008399999V0201801N000510450019N0500001N1+03431+01801100391ADDGF105991031021004501031001MA1999999099391MD1999999-0231REMSYN070AAXX  19184 82392 32499 51801 10343 20180 39939 40039 83230 333 59023;
0213823920999992006012000004-03700-040350FM-12+008399999V0200501N003112200019N0040001N1+02741+02101100681ADDAA106003091AY161061AY221061GF102991021001008001031001KA1240M+03501MA1999999099661MD1999999-0341MW1031REMSYN100AAXX  20004 82392 21596 20506 10274 20210 39966 40068 70362 82030 333 10350 29060 55058 59034 60031;
0173823920999992006012012004-03700-040350FM-12+008399999V0200901N004610450019N0500001N1+02661+02241100921ADDAA124003091GF108991031071004501021001KA1240N+02491MA1999999099901MD1999999+0031REMSYN082AAXX  20124 82392 22499 80909 10266 20224 39990 40092 83720 333 20249 58003 60034;
0137823920999992006012018004-03700-040350FM-12+008399999V0201801N000510450019N0500001N1+03421+01941100501ADDGF106991021041004501031011MA1999999099501MD1999999+0111REMSYN070AAXX  20184 82392 32499 61801 10342 20194 39950 40050 82431 333 58011;
0168823920999992006012100004-03700-040350FM-12+008399999V0203601N004112200019N0040001N1+02721+02241100821ADDGF104991041041004501001001KA1240M+03521MA1999999099801MD1999999+0141REMSYN088AAXX  21004 82392 32496 43608 10272 20224 39980 40082 84400 333 10352 29067 55028 58014;
0156823920999992006012112004-03700-040350FM-12+008399999V0200901N004610450019N0500001N1+02861+02161100971ADDGF106991041021004501031001KA1240N+02411MA1999999099951MD1999999+0051REMSYN076AAXX  21124 82392 32499 60909 10286 20216 39995 40097 84230 333 20241 58005;
0137823920999992006012118004-03700-040350FM-12+008399999V0200901N002612200019N0500001N1+03421+01611100621ADDGF104991041021004501001001MA1999999099621MD1999999+0121REMSYN070AAXX  21184 82392 32499 40905 10342 20161 39962 40062 84200 333 58012;
0178823920999992006012200004-03700-040350FM-12+008399999V0200501N005112200019N0040001N1+02701+02111100871ADDGA1001+999999999GF100991001001999999001001KA1240M+03601MA1999999099851MD1999999+0051REMSYN082AAXX  22004 82392 32996 00510 10270 20211 39985 40087 333 10360 29060 55066 58005;
0156823920999992006012212004-03700-040350FM-12+008399999V0200901N000510042019N0500001N1+02891+02001101001ADDGF105991051021004501001001KA1240N+02341MA1999999099981MD1999999+0031REMSYN076AAXX  22124 82392 32499 50901 10289 20200 39998 40100 85200 333 20234 58003;
0137823920999992006012218004-03700-040350FM-12+008399999V0200901N000510042019N0500001N1+03631+01601100521ADDGF106991061021004501001001MA1999999099521MD1999999-0101REMSYN070AAXX  22184 82392 32499 60901 10363 20160 39952 40052 86200 333 59010;
0178823920999992006012300004-03700-040350FM-12+008399999V0203601N002612200019N0040001N1+02801+02081100911ADDGA1001+999999999GF100991001001999999001001KA1240M+03681MA1999999099901MD1999999+0051REMSYN082AAXX  23004 82392 32996 03605 10280 20208 39990 40091 333 10368 29055 55093 58005;
0156823920999992006012312004-03700-040350FM-12+008399999V0200901N004112200019N0500001N1+02941+02081101011ADDGF104991011011004501031001KA1240N+02491MA1999999100001MD1999999+0021REMSYN076AAXX  23124 82392 32499 40908 10294 20208 30000 40101 81130 333 20249 58002;
0137823920999992006012318004-03700-040350FM-12+008399999V0200501N003112200019N0500001N1+03501+01481100531ADDGF104991041021004501001001MA1999999099531MD1999999+0031REMSYN070AAXX  23184 82392 32499 40506 10350 20148 39953 40053 84200 333 58003;
0178823920999992006012400004-03700-040350FM-12+008399999V0203601N003112200019N0040001N1+02851+02061100891ADDGA1001+999999999GF100991001001999999001001KA1240M+03591MA1999999099881MD1999999-0021REMSYN082AAXX  24004 82392 32996 03606 10285 20206 39988 40089 333 10359 29054 55086 59002;
0156823920999992006012412004-03700-040350FM-12+008399999V0200901N004112200019N0500001N1+02941+02241101011ADDGF104991041021004501001001KA1240N+02291MA1999999100001MD1999999+0001REMSYN076AAXX  24124 82392 32499 40908 10294 20224 30000 40101 84200 333 20229 58000;
0156823920999992006012418004-03700-040350FM-12+008399999V0200501N001019999999N0500001N1+03641+01751100571ADDGF105991999021004501001001MA1999999099571MD1999999+0041REMSYN070AAXX  24184 82392 32499 50502 10364 20175 39957 40057 84200 333 58004;EQDQ01+000042SCOTLC
0178823920999992006012500004-03700-040350FM-12+008399999V0203601N000512200019N0040001N1+02921+01981100881ADDGA1001+999999999GF100991001001999999001001KA1240M+03681MA1999999099871MD1999999-0011REMSYN082AAXX  25004 82392 32996 03601 10292 20198 39987 40088 333 10368 29053 55100 59001;
0156823920999992006012512004-03700-040350FM-12+008399999V0200501N004610450019N0500001N1+02901+02121101111ADDGF106991041041004501031001KA1240N+02481MA1999999100101MD1999999+0101REMSYN076AAXX  25124 82392 32499 60509 10290 20212 30010 40111 84430 333 20248 58010;
0137823920999992006012518004-03700-040350FM-12+008399999V0200501N005110450019N0500001N1+03441+01841100831ADDGF106991031011004501031001MA1999999099821MD1999999+0251REMSYN070AAXX  25184 82392 32499 60510 10344 20184 39982 40083 83130 333 58025;
0178823920999992006012600004-03700-040350FM-12+008399999V0200501N000512200019N0040001N1+02871+02051101031ADDGA1001+999999999GF100991001001999999001001KA1240M+03531MA1999999100021MD1999999+0151REMSYN082AAXX  26004 82392 32996 00501 10287 20205 30002 40103 333 10353 29056 55050 58015;
0156823920999992006012612004-03700-040350FM-12+008399999V0201401N001012200019N0500001N1+03011+02071101151ADDGF104991041021004501001001KA1240N+02341MA1999999100141MD1999999+0041REMSYN076AAXX  26124 82392 32499 41402 10301 20207 30014 40115 84200 333 20234 58004;
0137823920999992006012618004-03700-040350FM-12+008399999V0200501N002612200019N0500001N1+03731+01581100731ADDGF106991041021004501001041MA1999999099721MD1999999-0101REMSYN070AAXX  26184 82392 32499 60505 10373 20158 39972 40073 84204 333 59010;
0178823920999992006012700004-03700-040350FM-12+008399999V0200501N002612200019N0040001N1+02981+01831101011ADDGA1001+999999999GF100991001001999999001001KA1240M+03821MA1999999100001MD1999999-0021REMSYN082AAXX  27004 82392 32996 00505 10298 20183 30000 40101 333 10382 29046 55109 59002;
0156823920999992006012712004-03700-040350FM-12+008399999V0200901N002610450019N0500001N1+02991+02141101211ADDGF106991041021004501031001KA1240N+02231MA1999999100201MD1999999+0061REMSYN076AAXX  27124 82392 32499 60905 10299 20214 30020 40121 84230 333 20223 58006;
0156823920999992006012718004-03700-040350FM-12+008399999V0200901N002612200019N0500001N1+03731+01691100711ADDGF104991999021004501001001MA1999999099701MD1999999-0021REMSYN070AAXX  27184 82392 32499 40905 10373 20169 39970 40071 83200 333 59002;EQDQ01+000032SCOTLC
0178823920999992006012800004-03700-040350FM-12+008399999V0200501N004612200019N0040001N1+02881+02161101051ADDGA1001+999999999GF100991001001999999001001KA1240M+03821MA1999999100041MD1999999+0041REMSYN082AAXX  28004 82392 32996 00509 10288 20216 30004 40105 333 10382 29055 55109 58004;
0156823920999992006012812004-03700-040350FM-12+008399999V0200501N001010042019N0500001N1+02941+02161101181ADDGF107991051021004501031001KA1240N+02441MA1999999100171MD1999999-0031REMSYN076AAXX  28124 82392 32499 70502 10294 20216 30017 40118 85230 333 20244 59003;
0137823920999992006012818004-03700-040350FM-12+008399999V0200901N001510450019N0500001N1+03611+01961100731ADDGF107991021021004501011021MA1999999099721MD1999999+0021REMSYN070AAXX  28184 82392 32499 70903 10361 20196 39972 40073 82212 333 58002;
0168823920999992006012900004-03700-040350FM-12+008399999V0200501N001012200019N0040001N1+02811+02101101041ADDGF104991021021004501011001KA1240M+03641MA1999999100031MD1999999-0011REMSYN088AAXX  29004 82392 32496 40502 10281 20210 30003 40104 82210 333 10364 29058 55057 59001;
0137823920999992006012918004-03700-040350FM-12+008399999V0203201N002110450019N0500001N1+03401+01891100661ADDGF106991041051004501031001MA1999999099651MD1999999-0071REMSYN070AAXX  29184 82392 32499 63204 10340 20189 39965 40066 84530 333 59007;
0178823920999992006013000004-03700-040350FM-12+008399999V0200501N004612200019N0040001N1+02801+02081100911ADDGA1001+999999999GF100991001001999999001001KA1240M+03681MA1999999099901MD1999999+0131REMSYN082AAXX  30004 82392 32996 00509 10280 20208 39990 40091 333 10368 29059 55058 58013;
0156823920999992006013012004-03700-040350FM-12+008399999V0200501N004612200019N0500001N1+03001+02031101071ADDGF103991031011004501001001KA1240N+02381MA1999999100061MD1999999-0011REMSYN076AAXX  30124 82392 32499 30509 10300 20203 30006 40107 83100 333 20238 59001;
0137823920999992006013018004-03700-040350FM-12+008399999V0201401N002612200019N0500001N1+03561+01431100561ADDGF103991031011004501001001MA1999999099561MD1999999-0091REMSYN070AAXX  30184 82392 32499 31405 10356 20143 39956 40056 83100 333 59009;
0168823920999992006013100004-03700-040350FM-12+008399999V0200501N003112200019N0040001N1+02791+02081100821ADDGF101991011001008001031001KA1240M+03741MA1999999099811MD1999999-0091REMSYN088AAXX  31004 82392 32596 10506 10279 20208 39981 40082 81030 333 10374 29054 55101 59009;
0156823920999992006013112004-03700-040350FM-12+008399999V0200501N003112200019N0500001N1+02901+02041101041ADDGF104991041041004501001001KA1240N+02341MA1999999100021MD1999999-0041REMSYN076AAXX  31124 82392 32499 40506 10290 20204 30002 40104 84400 333 20234 59004;
0137823920999992006013118004-03700-040350FM-12+008399999V0201401N001012200019N0500001N1+03631+01751100511ADDGF104991041021004501001001MA1999999099511MD1999999-0051REMSYN070AAXX  31184 82392 32499 41402 10363 20175 39951 40051 84200 333 59005;
0178823920999992006020100004-03700-040350FM-12+008399999V0203601N002612200019N0040001N1+02731+02171100851ADDGA1001+999999999GF100991001001999999001001KA1240M+03711MA1999999099831MD1999999+0021REMSYN082AAXX  01004 82392 32996 03605 10273 20217 39983 40085 333 10371 29059 55089 58002;
0156823920999992006020112004-03700-040350FM-12+008399999V0203601N004612200019N0500001N1+02921+02191101041ADDGF104991041021004501001001KA1240N+02511MA1999999100021MD1999999+0001REMSYN076AAXX  01124 82392 32499 43609 10292 20219 30002 40104 84200 333 20251 58000;
0182823920999992006020118004-03700-040350FM-12+008399999V0203601N001010450019N0500001N1+02531+02401100751ADDAA106020191AY121061AY261061GF108991041071004501021999MA1999999099721MD1999999+0211MW1021REMSYN082AAXX  01184 82392 21499 83602 10253 20240 39972 40075 70226 8472/ 333 58021 60201;
0173823920999992006020212004-03700-040350FM-12+008399999V0203601N000510450019N0500001N1+02721+02281101071ADDAA124020191GF107991041061004501021001KA1240N+02381MA1999999100051MD1999999+0031REMSYN082AAXX  02124 82392 22499 73601 10272 20228 30005 40107 84620 333 20238 58003 60204;
0137823920999992006020218004-03700-040350FM-12+008399999V0200901N000510042019N0500001N1+03541+01851100601ADDGF106991051021004501031001MA1999999099601MD1999999-0121REMSYN070AAXX  02184 82392 32499 60901 10354 20185 39960 40060 85230 333 59012;
0178823920999992006020300004-03700-040350FM-12+008399999V0203601N005112200019N0040001N1+02701+02061100841ADDGA1001+999999999GF100991001001999999001001KA1240M+03621MA1999999099821MD1999999-0081REMSYN082AAXX  03004 82392 32996 03610 10270 20206 39982 40084 333 10362 29062 55074 59008;
0156823920999992006020312004-03700-040350FM-12+008399999V0201401N001010042019N0500001N1+02821+01941100941ADDGF105991051041004501001001KA1240N+02261MA1999999099921MD1999999-0111REMSYN076AAXX  03124 82392 32499 51402 10282 20194 39992 40094 85400 333 20226 59011;
0137823920999992006020318004-03700-040350FM-12+008399999V0200901N000510450019N0500001N1+03431+01761100521ADDGF106991041021004501011011MA1999999099521MD1999999-0081REMSYN070AAXX  03184 82392 32499 60901 10343 20176 39952 40052 84211 333 59008;
0178823920999992006020400004-03700-040350FM-12+008399999V0203601N004612200019N0040001N1+02761+01991100741ADDGA1001+999999999GF100991001001999999001001KA1240M+03541MA1999999099721MD1999999-0101REMSYN082AAXX  04004 82392 32996 03609 10276 20199 39972 40074 333 10354 29056 55064 59010;
0137823920999992006020418004-03700-040350FM-12+008399999V0200501N002112200019N0500001N1+03581+01441100401ADDGF104991041021004501001001MA1999999099401MD1999999-0121REMSYN070AAXX  04184 82392 32499 40504 10358 20144 39940 40040 84200 333 59012;
0168823920999992006020500004-03700-040350FM-12+008399999V0203601N005710450019N0500001N1+02781+02181100761ADDGF106991021021004501031001KA1240M+03661MA1999999099741MD1999999+0021REMSYN088AAXX  05004 82392 32499 63611 10278 20218 39974 40076 82230 333 10366 29057 55088 58002;
0156823920999992006020512004-03700-040350FM-12+008399999V0200901N001010450019N0500001N1+03041+02201100951ADDGF106991031021004501031001KA1240N+02551MA1999999099941MD1999999+0021REMSYN076AAXX  05124 82392 32499 60902 10304 20220 39994 40095 83230 333 20255 58002;
0137823920999992006020518004-03700-040350FM-12+008399999V0200901N001510450019N0500001N1+03441+01881100511ADDGF106991031041004501011011MA1999999099511MD1999999+0111REMSYN070AAXX  05184 82392 32499 60903 10344 20188 39951 40051 83411 333 58011;
0168823920999992006020600004-03700-040350FM-12+008399999V0203601N001010450019N0040001N1+02741+02071100931ADDGF108991021041004501011011KA1240M+03541MA1999999099921MD1999999+0181REMSYN088AAXX  06004 82392 32496 83602 10274 20207 39992 40093 82411 333 10354 29059 55062 58018;
0201823920999992006020612004-03700-040350FM-12+008399999V0200901N000510450019N0500001N1+02601+02331101081ADDAA124000891AY121061AY221061GF107991031071004501021999KA1240N+02521MA1999999100061MD1999999+0121MW1211REMSYN088AAXX  06124 82392 21499 70901 10260 20233 30006 40108 72122 8372/ 333 20252 58012 69984;
0137823920999992006020618004-03700-040350FM-12+008399999V0200501N003110450019N0500001N1+03261+01511100741ADDGF106991041041004501031001MA1999999099731MD1999999+0221REMSYN070AAXX  06184 82392 32499 60506 10326 20151 39973 40074 84430 333 58022;
0168823920999992006020700004-03700-040350FM-12+008399999V0203601N001010450019N0040001N1+02711+02031101041ADDGF108991021021004501011999KA1240M+03441MA1999999100021MD1999999+0101REMSYN088AAXX  07004 82392 32496 83602 10271 20203 30002 40104 8221/ 333 10344 29063 55037 58010;
0156823920999992006020712004-03700-040350FM-12+008399999V0203601N002110450019N0500001N1+02781+02061101101ADDGF107991041041004501031001KA1240N+02451MA1999999100081MD1999999+0021REMSYN076AAXX  07124 82392 32499 73604 10278 20206 30008 40110 84430 333 20245 58002;
0168823920999992006020800004-03700-040350FM-12+008399999V0203601N001510450019N0040001N1+02711+02101101061ADDGF106991011021004501031001KA1240M+03431MA1999999100041MD1999999+0021REMSYN088AAXX  08004 82392 32496 63603 10271 20210 30004 40106 81230 333 10343 29060 55023 58002;
0156823920999992006020812004-03700-040350FM-12+008399999V0200501N003112200019N0500001N1+02881+02101101061ADDGF102991021001004501031001KA1240N+02281MA1999999100041MD1999999-0041REMSYN076AAXX  08124 82392 32499 20506 10288 20210 30004 40106 82030 333 20228 59004;
0137823920999992006020818004-03700-040350FM-12+008399999V0200901N004110450019N0500001N1+03621+01301100601ADDGF105991031021004501031001MA1999999099601MD1999999-0111REMSYN070AAXX  08184 82392 32499 50908 10362 20130 39960 40060 83230 333 59011;
0168823920999992006020900004-03700-040350FM-12+008399999V0203601N004112200019N0040001N1+02851+02011100931ADDGF102991021001008001031001KA1240M+03771MA1999999099921MD1999999-0121REMSYN088AAXX  09004 82392 32596 23608 10285 20201 39992 40093 82030 333 10377 29053 55099 59012;
0156823920999992006020912004-03700-040350FM-12+008399999V0203601N000510450019N0500001N1+02931+02001101231ADDGF106991041021004501011001KA1240N+02461MA1999999100221MD1999999+0181REMSYN076AAXX  09124 82392 32499 63601 10293 20200 30022 40123 84210 333 20246 58018;
0137823920999992006020918004-03700-040350FM-12+008399999V0203601N000510450019N0500001N1+03561+01661100721ADDGF106991041061004501011001MA1999999099711MD1999999+0111REMSYN070AAXX  09184 82392 32499 63601 10356 20166 39971 40072 84610 333 58011;
0168823920999992006021000004-03700-040350FM-12+008399999V0200501N005712200019N0040001N1+02721+02341101061ADDGF104991021011004501031001KA1240M+03681MA1999999100041MD1999999+0121REMSYN088AAXX  10004 82392 32496 40511 10272 20234 30004 40106 82130 333 10368 29063 55089 58012;
0156823920999992006021012004-03700-040350FM-12+008399999V0200501N002610450019N0500001N1+02861+02191101311ADDGF106991041021004501031001KA1240N+02581MA1999999100281MD1999999+0061REMSYN076AAXX  10124 82392 32499 60505 10286 20219 30028 40131 84230 333 20258 58006;
0137823920999992006021018004-03700-040350FM-12+008399999V0203601N001010450019N0500001N1+03401+02001100901ADDGF106991041061004501031001MA1999999099891MD1999999+0181REMSYN070AAXX  10184 82392 32499 63602 10340 20200 39989 40090 84630 333 58018;
0168823920999992006021100004-03700-040350FM-12+008399999V0200501N004610450019N0040001N1+02761+02281101221ADDGF106991041041004501031001KA1240M+03501MA1999999100201MD1999999+0161REMSYN088AAXX  11004 82392 32496 60509 10276 20228 30020 40122 84430 333 10350 29062 55048 58016;
0156823920999992006021112004-03700-040350FM-12+008399999V0203601N001010042019N0500001N1+02701+02371101301ADDGF108991061061004501011999KA1240N+02581MA1999999100281MD1999999+0001REMSYN076AAXX  11124 82392 32499 83602 10270 20237 30028 40130 8661/ 333 20258 58000;
0182823920999992006021118004-03700-040350FM-12+008399999V0203601N000510042019N0040001N1+02391+02351101021ADDAA106023191AY161061AY261061GF108991051061004501021999MA1999999099991MD1999999+0101MW1651REMSYN082AAXX  11184 82392 21496 83601 10239 20235 39999 40102 76566 8562/ 333 58010 60231;
0213823920999992006021200004-03700-040350FM-12+008399999V0202701N000510042019N0040001N1+02381+02351101181ADDAA106013091AY161061AY261061GF108991051061004501021999KA1240M+02981MA1999999100151MD1999999-0051MW1021REMSYN100AAXX  12004 82392 21496 82701 10238 20235 30015 40118 70266 8562/ 333 10298 29094 55007 59005 60131;
0173823920999992006021212004-03700-040350FM-12+008399999V0203601N000510042019N0500001N1+02621+02441101171ADDAA124037191GF106991051041004501031001KA1240N+02301MA1999999100141MD1999999-0141REMSYN082AAXX  12124 82392 22499 63601 10262 20244 30014 40117 85430 333 20230 59014 60374;
0137823920999992006021218004-03700-040350FM-12+008399999V0200501N003110450019N0500001N1+02801+02311100821ADDGF106991041041004501031001MA1999999099801MD1999999-0191REMSYN070AAXX  12184 82392 32499 60506 10280 20231 39980 40082 84430 333 59019;
0168823920999992006021300004-03700-040350FM-12+008399999V0200501N004110450019N0040001N1+02681+02311101021ADDGF107991041051004501031001KA1240M+03301MA1999999100001MD1999999-0151REMSYN088AAXX  13004 82392 32496 70508 10268 20231 30000 40102 84530 333 10330 29081 55057 59015;
0156823920999992006021312004-03700-040350FM-12+008399999V0200901N002112200019N0500001N1+02781+02111101201ADDGF104991041041004501001001KA1240N+02511MA1999999100181MD1999999+0041REMSYN076AAXX  13124 82392 32499 40904 10278 20211 30018 40120 84400 333 20251 58004;
0137823920999992006021318004-03700-040350FM-12+008399999V0201401N002110042019N0500001N1+03401+01641100711ADDGF106991051041004501031001MA1999999099701MD1999999-0101REMSYN070AAXX  13184 82392 32499 61404 10340 20164 39970 40071 85430 333 59010;
0168823920999992006021400004-03700-040350FM-12+008399999V0203201N000510450019N0040001N1+02661+02291101101ADDGF108991031061004501021999KA1240M+03461MA1999999100081MD1999999+0061REMSYN088AAXX  14004 82392 32496 83201 10266 20229 30008 40110 8362/ 333 10346 29066 55050 58006;
0201823920999992006021412004-03700-040350FM-12+008399999V0200501N001010450019N0500001N1+02621+02351101181ADDAA124002091AY161061AY221061GF107991041051004501031001KA1240N+02291MA1999999100161MD1999999-0021MW1031REMSYN088AAXX  14124 82392 21499 70502 10262 20235 30016 40118 70362 84530 333 20229 59002 60024;
0137823920999992006021418004-03700-040350FM-12+008399999V0203601N001010042019N0200001N1+02401+02301101101ADDGF108991051061004501021999MA1999999100071MD1999999+0371REMSYN070AAXX  14184 82392 32498 83602 10240 20230 30007 40110 8562/ 333 58037;
0168823920999992006021500004-03700-040350FM-12+008399999V0209999C000010450019N0040001N1+02231+02091101151ADDGF108991041061004501011999KA1240M+02781MA1999999100121MD1999999+0041REMSYN088AAXX  15004 82392 32496 80000 10223 20209 30012 40115 8461/ 333 10278 29091 55010 58004;
0156823920999992006021512004-03700-040350FM-12+008399999V0200501N001012200019N0500001N1+02781+02181101131ADDGF102991021011004501001001KA1240N+02201MA1999999100101MD1999999-0061REMSYN076AAXX  15124 82392 32499 20502 10278 20218 30010 40113 82100 333 20220 59006;
0137823920999992006021518004-03700-040350FM-12+008399999V0200501N001010450019N0500001N1+03381+01751100721ADDGF105991041021004501031001MA1999999099701MD1999999+0371REMSYN070AAXX  15184 82392 32499 50502 10338 20175 39970 40072 84230 333 58037;
0168823920999992006021600004-03700-040350FM-12+008399999V0203601N000510450019N0040001N1+02761+02211100971ADDGF107991041061004501011001KA1240M+03421MA1999999099951MD1999999-0171REMSYN088AAXX  16004 82392 32496 73601 10276 20221 39995 40097 84610 333 10342 29063 55104 59017;
0156823920999992006021612004-03700-040350FM-12+008399999V0201401N000510450019N0500001N1+02731+02321101061ADDGF106991041041004501031001KA1240N+02471MA1999999100041MD1999999-0061REMSYN076AAXX  16124 82392 32499 61401 10273 20232 30004 40106 84430 333 20247 59006;
0201823920999992006021618004-03700-040350FM-12+008399999V0201801N004110450019N0500001N1+02801+02181100611ADDAA106000091AY101061AY221061GF107991041061004501011001MA1999999099601MD1999999-0101MW1291REMSYN082AAXX  16184 82392 21499 71808 10280 20218 39960 40061 72902 84610 333 59010 69921;EQDQ01  00002PRCP06
0232823920999992006021700004-03700-040350FM-12+008399999V0200501N004610042019N0040001N1+02781+02181100861ADDAA106000091AY151061AY221061GF108991051061004501021999KA1240M+03321MA1999999099841MD1999999-0111MW1021REMSYN100AAXX  17004 82392 21496 80509 10278 20218 39984 40086 70252 8562/ 333 10332 29072 55055 59011 69921;EQDQ01  00002PRCP06
0201823920999992006021712004-03700-040350FM-12+008399999V0203201N000510450019N0500001N1+02381+02311101121ADDAA124026991AY191061AY261061GF108991031071004501021011KA1240N+02061MA1999999100101MD1999999+0061MW1021REMSYN088AAXX  17124 82392 21499 83201 10238 20231 30010 40112 70296 83721 333 20206 58006 60274;
0182823920999992006021718004-03700-040350FM-12+008399999V0202701N000510450019N0500001N1+02881+02441100791ADDAA106000591AY161061AY261061GF107991041061004501021999MA1999999099771MD1999999+0171MW1021REMSYN082AAXX  17184 82392 21499 72701 10288 20244 39977 40079 70266 8462/ 333 58017 69941;
0168823920999992006021800004-03700-040350FM-12+008399999V0203601N003110450019N0040001N1+02621+02311101031ADDGF106991041051004501011001KA1240M+02941MA1999999100001MD1999999+0161REMSYN088AAXX  18004 82392 32496 63606 10262 20231 30000 40103 84510 333 10294 29085 55019 58016;
0173823920999992006021812004-03700-040350FM-12+008399999V0200901N001510450019N0500001N1+02761+02341101171ADDAA124000591GF106991041051004501031001KA1240N+02381MA1999999100151MD1999999+0051REMSYN082AAXX  18124 82392 22499 60903 10276 20234 30015 40117 84530 333 20238 58005 69944;
0182823920999992006021818004-03700-040350FM-12+008399999V0200901N001010042019N0010001N1+02261+02241101051ADDAA106040991AY161061AY221061GF108991081061004501999999MA1999999100021MD1999999+0251MW1951REMSYN082AAXX  18184 82392 21494 80902 10226 20224 30002 40105 79562 886// 333 58025 60411;
0213823920999992006021900004-03700-040350FM-12+008399999V0201801N000510450019N0040001N1+02281+02261101151ADDAA106018091AY161061AY261061GF106991041041004501031001KA1240M+03101MA1999999100121MD1999999+0121MW1031REMSYN100AAXX  19004 82392 21496 61801 10228 20226 30012 40115 70366 84430 333 10310 29094 55034 58012 60181;
0173823920999992006021912004-03700-040350FM-12+008399999V0201401N000510450019N0200001N1+02671+02391101241ADDAA124058991GF106991031061004501031011KA1240N+02171MA1999999100211MD1999999+0061REMSYN082AAXX  19124 82392 22498 61401 10267 20239 30021 40124 83631 333 20217 58006 60594;
0137823920999992006021918004-03700-040350FM-12+008399999V0201401N000510450019N0500001N1+03171+02311100851ADDGF105991031021004501031011MA1999999099831MD1999999-0191REMSYN070AAXX  19184 82392 32499 51401 10317 20231 39983 40085 83231 333 59019;
0168823920999992006022000004-03700-040350FM-12+008399999V0203601N003112200019N0040001N1+02661+02241101091ADDGF104991041021004501001001KA1240M+03341MA1999999100071MD1999999-0051REMSYN088AAXX  20004 82392 32496 43606 10266 20224 30007 40109 84200 333 10334 29075 55088 59005;
0156823920999992006022012004-03700-040350FM-12+008399999V0203601N002110450019N0500001N1+02681+02451101141ADDGF108991041061004501021999KA1240N+02471MA1999999100121MD1999999-0091REMSYN076AAXX  20124 82392 32499 83604 10268 20245 30012 40114 8462/ 333 20247 59009;
0137823920999992006022018004-03700-040350FM-12+008399999V0203601N001012200019N0500001N1+03221+02341100671ADDGF104991041021004501001001MA1999999099661MD1999999-0171REMSYN070AAXX  20184 82392 32499 43602 10322 20234 39966 40067 84200 333 59017;
0168823920999992006022100004-03700-040350FM-12+008399999V0203601N001012200019N0040001N1+02611+02231100941ADDGF101991011001004501031001KA1240M+03241MA1999999099921MD1999999-0151REMSYN088AAXX  21004 82392 32496 13602 10261 20223 39992 40094 81030 333 10324 29076 55061 59015;
0156823920999992006022112004-03700-040350FM-12+008399999V0200501N002610042019N0500001N1+02701+02431101081ADDGF106991061021004501001001KA1240N+02301MA1999999100061MD1999999-0061REMSYN076AAXX  21124 82392 32499 60505 10270 20243 30006 40108 86200 333 20230 59006;
0137823920999992006022118004-03700-040350FM-12+008399999V0203601N000511050019N0500001N1+03321+01851100641ADDGF105991031021004501001021MA1999999099631MD1999999-0031REMSYN070AAXX  21184 82392 32499 53601 10332 20185 39963 40064 83202 333 59003;
0232823920999992006022200004-03700-040350FM-12+008399999V0203601N001012200019N0040001N1+02641+02271100941ADDAA106000091AY151061AY251061GF104991021021004501031001KA1240M+03391MA1999999099921MD1999999+0001MW1021REMSYN100AAXX  22004 82392 21496 43602 10264 20227 39992 40094 70255 82230 333 10339 29072 55091 58000 69911;EQDQ01  00002PRCP06
0192823920999992006022212004-03700-040350FM-12+008399999V0200501N002112200019N0500001N1+02801+02421101101ADDAA124000091GF103991031011004501001001KA1240N+02381MA1999999100081MD1999999+0021REMSYN082AAXX  22124 82392 22499 30504 10280 20242 30008 40110 83100 333 20238 58002 69914;EQDQ01  00002PRCP24
0137823920999992006022218004-03700-040350FM-12+008399999V0200501N003110450019N0500001N1+03101+02231100681ADDGF106991041041004501031001MA1999999099661MD1999999+0031REMSYN070AAXX  22184 82392 32499 60506 10310 20223 39966 40068 84430 333 58003;
0168823920999992006022300004-03700-040350FM-12+008399999V0200501N000512200019N0040001N1+02551+02421101041ADDGF102991011011004501011001KA1240M+03261MA1999999100021MD1999999+0101REMSYN088AAXX  23004 82392 32496 20501 10255 20242 30002 40104 81110 333 10326 29081 55085 58010;
0156823920999992006022312004-03700-040350FM-12+008399999V0200901N000510450019N0500001N1+02771+02461101191ADDGF106991031041004501011011KA1240N+02371MA1999999100171MD1999999+0091REMSYN076AAXX  23124 82392 32499 60901 10277 20246 30017 40119 83411 333 20237 58009;
0137823920999992006022318004-03700-040350FM-12+008399999V0203601N000512200019N0500001N1+03291+02181100641ADDGF105991031091004501001011MA1999999099641MD1999999-0021REMSYN070AAXX  23184 82392 32499 53601 10329 20218 39964 40064 83901 333 59002;
0168823920999992006022400004-03700-040350FM-12+008399999V0200501N002610450019N0040001N1+02621+02481101071ADDGF106991041021004501031001KA1240M+03361MA1999999100051MD1999999+0031REMSYN088AAXX  24004 82392 32496 60505 10262 20248 30005 40107 84230 333 10336 29080 55082 58003;
0156823920999992006022412004-03700-040350FM-12+008399999V0200501N003112200019N0500001N1+02741+02561101081ADDGF104991041041004501001001KA1240N+02401MA1999999100061MD1999999-0111REMSYN076AAXX  24124 82392 32499 40506 10274 20256 30006 40108 84400 333 20240 59011;
0182823920999992006022418004-03700-040350FM-12+008399999V0200501N000510042019N0500001N1+02461+02361100801ADDAA106023991AY161061AY261061GF108991061061004501011999MA1999999099771MD1999999-0131MW1211REMSYN082AAXX  24184 82392 21499 80501 10246 20236 39977 40080 72166 8661/ 333 59013 60241;
0168823920999992006022500004-03700-040350FM-12+008399999V0203601N001510042019N0500001N1+02521+02501101021ADDGF106991061051004501001001KA1240M+03201MA1999999100001MD1999999-0051REMSYN088AAXX  25004 82392 32499 63603 10252 20250 30000 40102 86500 333 10320 29096 55049 59005;
0173823920999992006022512004-03700-040350FM-12+008399999V0203601N000512200019N0500001N1+02741+02361101091ADDAA124000021GF105991041041004501001011KA1240N+02341MA1999999100071MD1999999+0011REMSYN082AAXX  25124 82392 22499 53601 10274 20236 30007 40109 84401 333 20234 58001 69914;
0156823920999992006022518004-03700-040350FM-12+008399999V0200501N001019999999N0200001N1+03071+02401100631ADDGF106991999021008001001001MA1999999099621MD1999999-0151REMSYN070AAXX  25184 82392 32598 60502 10307 20240 39962 40063 88200 333 59015;EQDQ01+000082SCOTLC
0156823920999992006022612004-03700-040350FM-12+008399999V0201801N001010042019N0500001N1+02741+02471101021ADDGF106991061041004501001001KA1240N+02401MA1999999100001MD1999999-0071REMSYN076AAXX  26124 82392 32499 61802 10274 20247 30000 40102 86400 333 20240 59007;
0182823920999992006022618004-03700-040350FM-12+008399999V0203601N001010450019N0500001N1+02501+02481100791ADDAA106009991AY161061AY221061GF108991041071004501021999MA1999999099761MD1999999+0141MW1021REMSYN082AAXX  26184 82392 21499 83602 10250 20248 39976 40079 70262 8472/ 333 58014 60101;
0178823920999992006022700004-03700-040350FM-12+008399999V0200501N001012200019N0040001N1+02501+02481100961ADDGA1001+999999999GF100991001001999999001001KA1240M+03141MA1999999099941MD1999999-0031REMSYN082AAXX  27004 82392 32996 00502 10250 20248 39994 40096 333 10314 29096 55060 59003;
0173823920999992006022712004-03700-040350FM-12+008399999V0200501N000512200019N0500001N1+02821+02331101061ADDAA124009991GF104991041021004501001001KA1240N+02261MA1999999100041MD1999999+0041REMSYN082AAXX  27124 82392 22499 40501 10282 20233 30004 40106 84200 333 20226 58004 60104;
0137823920999992006022718004-03700-040350FM-12+008399999V0203201N000510042019N0500001N1+02881+02391100741ADDGF107991051061004501031001MA1999999099721MD1999999-0041REMSYN070AAXX  27184 82392 32499 73201 10288 20239 39972 40074 85630 333 59004;
0213823920999992006022800004-03700-040350FM-12+008399999V0203601N001010042019N0040001N1+02531+02401101041ADDAA106022191AY161061AY261061GF106991061061004501001001KA1240M+03311MA1999999100021MD1999999+0081MW1021REMSYN100AAXX  28004 82392 21496 63602 10253 20240 30002 40104 70266 86600 333 10331 29084 55066 58008 60221;
0173823920999992006022812004-03700-040350FM-12+008399999V0200901N001010042019N0500001N1+02761+02561101181ADDAA124022191GF105991051041004501001001KA1240N+02301MA1999999100161MD1999999+0121REMSYN082AAXX  28124 82392 22499 50902 10276 20256 30016 40118 85400 333 20230 58012 60224;
0182823920999992006022818004-03700-040350FM-12+008399999V0200501N001010042019N0500001N1+02491+02411100801ADDAA106001091AY101061AY221061GF106991051061004501031001MA1999999099771MD1999999+0051MW1211REMSYN082AAXX  28184 82392 21499 60502 10249 20241 39977 40080 72102 85630 333 58005 60011;
0168823920999992006030100004-03700-040350FM-12+008399999V0200501N000510450019N0040001N1+02531+02441101061ADDGF107991041021004501021001KA1240M+03171MA1999999100041MD1999999+0021REMSYN088AAXX  01004 82392 32496 70501 10253 20244 30004 40106 84220 333 10317 29093 55058 58002;
0173823920999992006030112004-03700-040350FM-12+008399999V0200501N001012200019N0500001N1+02721+02541101161ADDAA124001091GF104991041041004501001001KA1240N+02401MA1999999100141MD1999999-0021REMSYN082AAXX  01124 82392 22499 40502 10272 20254 30014 40116 84400 333 20240 59002 60014;
0182823920999992006030118004-03700-040350FM-12+008399999V0200501N002610042019N0500001N1+02841+02561100831ADDAA106000591AY161061AY221061GF106991051041004501031001MA1999999099811MD1999999+0041MW1021REMSYN082AAXX  01184 82392 21499 60505 10284 20256 39981 40083 70262 85430 333 58004 69941;
0213823920999992006030200004-03700-040350FM-12+008399999V0200901N002610042019N0040001N1+02351+02331101241ADDAA106005191AY101061AY221061GF108991081061004501999999KA1240M+03071MA1999999100211MD1999999+0171MW1631REMSYN100AAXX  02004 82392 21496 80905 10235 20233 30021 40124 76302 886// 333 10307 29093 55047 58017 60051;
0173823920999992006030212004-03700-040350FM-12+008399999V0202301N000510450019N0500001N1+02631+02371101331ADDAA124041991GF106991031041004501031011KA1240N+02281MA1999999100301MD1999999+0161REMSYN082AAXX  02124 82392 22499 62301 10263 20237 30030 40133 83431 333 20228 58016 60424;
0182823920999992006030218004-03700-040350FM-12+008399999V0203601N000510042019N0100001N1+02341+02241100981ADDAA106035191AY101061AY221061GF108991081071004501999999MA1999999099951MD1999999+0141MW1971REMSYN082AAXX  02184 82392 21497 83601 10234 20224 39995 40098 79702 887// 333 58014 60351;
0213823920999992006030300004-03700-040350FM-12+008399999V0203601N001010450019N0040001N1+02481+02451101181ADDAA106001091AY161061AY261061GF108991041061008001021999KA1240M+03201MA1999999100161MD1999999-0051MW1031REMSYN100AAXX  03004 82392 21596 83602 10248 20245 30016 40118 70366 8462/ 333 10320 29094 55068 59005 60011;
0173823920999992006030312004-03700-040350FM-12+008399999V0200901N000512200019N0500001N1+02721+02581101221ADDAA124037191GF103991031021004501001001KA1240N+02301MA1999999100201MD1999999-0101REMSYN082AAXX  03124 82392 22499 30901 10272 20258 30020 40122 83200 333 20230 59010 60374;
0182823920999992006030318004-03700-040350FM-12+008399999V0203201N000510042019N0200001N1+02441+02391100991ADDAA106016091AY161061AY261061GF108991081061004501999999MA1999999099961MD1999999+0011MW1971REMSYN082AAXX  03184 82392 21498 83201 10244 20239 39996 40099 79766 886// 333 58001 60161;
0213823920999992006030400004-03700-040350FM-12+008399999V0209999C000010450019N0040001N1+02401+02381101181ADDAA106001091AY161061AY261061GF108991041071004501021999KA1240M+03081MA1999999100161MD1999999+0001MW1031REMSYN100AAXX  04004 82392 21496 80000 10240 20238 30016 40118 70366 8472/ 333 10308 29097 55053 58000 60011;
0173823920999992006030412004-03700-040350FM-12+008399999V0202301N002110042019N0500001N1+02641+02521101231ADDAA124016091GF106991061021004501001001KA1240N+02221MA1999999100201MD1999999+0001REMSYN082AAXX  04124 82392 22499 62304 10264 20252 30020 40123 86200 333 20222 58000 60164;
0182823920999992006030418004-03700-040350FM-12+008399999V0203201N000510450019N0500001N1+02621+02481100991ADDAA106013091AY121061AY261061GF108991041061004501021999MA1999999099961MD1999999+0001MW1021REMSYN082AAXX  04184 82392 21499 83201 10262 20248 39996 40099 70226 8462/ 333 58000 60131;
0168823920999992006030500004-03700-040350FM-12+008399999V0209999C000010450019N0040001N1+02501+02431101181ADDGF108991041051004501021999KA1240M+02981MA1999999100161MD1999999+0001REMSYN088AAXX  05004 82392 32496 80000 10250 20243 30016 40118 8452/ 333 10298 29094 55036 58000;
0173823920999992006030512004-03700-040350FM-12+008399999V0200901N000510450019N0500001N1+02811+02441101281ADDAA124013091GF106991031021004501011001KA1240N+02251MA1999999100261MD1999999+0061REMSYN082AAXX  05124 82392 22499 60901 10281 20244 30026 40128 83210 333 20225 58006 60134;
0137823920999992006030518004-03700-040350FM-12+008399999V0203601N001010450019N0500001N1+02931+02451100951ADDGF106991041061004501031001MA1999999099931MD1999999-0031REMSYN070AAXX  05184 82392 32499 63602 10293 20245 39993 40095 84630 333 59003;
0168823920999992006030600004-03700-040350FM-12+008399999V0203601N001012200019N0040001N1+02571+02421100151ADDGF103991011021004501011001KA1240M+03201MA1999999100131MD1999999-0031REMSYN088AAXX  06004 82392 32496 33602 10257 20242 30013 40015 81210 333 10320 29084 55080 59003;
0156823920999992006030612004-03700-040350FM-12+008399999V0200901N002112200019N0500001N1+02801+02421101201ADDGF104991021011004501031001KA1240N+02261MA1999999100181MD1999999-0081REMSYN076AAXX  06124 82392 32499 40904 10280 20242 30018 40120 82130 333 20226 59008;
0182823920999992006030618004-03700-040350FM-12+008399999V0200501N002610450019N0500001N1+02801+02421100921ADDAA106001091AY121061AY221061GF106991041051004501031001MA1999999099901MD1999999-0031MW1801REMSYN082AAXX  06184 82392 21499 60505 10280 20242 39990 40092 78022 84530 333 59003 60011;
0168823920999992006030700004-03700-040350FM-12+008399999V0203601N000512200019N0040001N1+02611+02331101221ADDGF101991011001008001011001KA1240M+03261MA1999999100201MD1999999+0071REMSYN088AAXX  07004 82392 32596 13601 10261 20233 30020 40122 81010 333 10326 29082 55082 58007;
0173823920999992006030712004-03700-040350FM-12+008399999V0200901N001012200019N0500001N1+02721+02481101161ADDAA124001091GF104991041021004501001001KA1240N+02311MA1999999100141MD1999999-0041REMSYN082AAXX  07124 82392 22499 40902 10272 20248 30014 40116 84200 333 20231 59004 60014;
0137823920999992006030718004-03700-040350FM-12+008399999V0200501N000510042019N0500001N1+03071+02371100741ADDGF107991061071004501031001MA1999999099721MD1999999-0181REMSYN070AAXX  07184 82392 32499 70501 10307 20237 39972 40074 86730 333 59018;
0213823920999992006030800004-03700-040350FM-12+008399999V0203601N000512200019N0040001N1+02551+02361100991ADDAA106003091AY161061AY261061GF101991011001008001011001KA1240M+03171MA1999999099971MD1999999-0231MW1021REMSYN100AAXX  08004 82392 21596 13601 10255 20236 39997 40099 70266 81010 333 10317 29083 55080 59023 60031;
0173823920999992006030812004-03700-040350FM-12+008399999V0200901N001512200019N0500001N1+02681+02481101121ADDAA124003091GF104991041021004501001001KA1240N+02191MA1999999100101MD1999999-0041REMSYN082AAXX  08124 82392 22499 40903 10268 20248 30010 40112 84200 333 20219 59004 60034;
0137823920999992006030818004-03700-040350FM-12+008399999V0200501N001012200019N0500001N1+03221+02111100651ADDGF104991031021004501031001MA1999999099641MD1999999-0081REMSYN070AAXX  08184 82392 32499 40502 10322 20211 39964 40065 83230 333 59008;
0213823920999992006030900004-03700-040350FM-12+008399999V0203601N000512200019N0040001N1+02491+02361100931ADDAA106003091AY161061AY261061GF102991021001008001011001KA1240M+03261MA1999999099911MD1999999-0061MW1021REMSYN100AAXX  09004 82392 21596 23601 10249 20236 39991 40093 70266 82010 333 10326 29081 55099 59006 60031;
0173823920999992006030912004-03700-040350FM-12+008399999V0209999C000010042019N0500001N1+02771+02461101091ADDAA124003091GF106991061041004501001001KA1240N+02231MA1999999100071MD1999999-0031REMSYN082AAXX  09124 82392 22499 60000 10277 20246 30007 40109 86400 333 20223 59003 60034;
0137823920999992006030918004-03700-040350FM-12+008399999V0203601N001010450019N0500001N1+03191+02351100731ADDGF105991041061004501031001MA1999999099711MD1999999+0071REMSYN070AAXX  09184 82392 32499 53602 10319 20235 39971 40073 84630 333 58007;
0168823920999992006031000004-03700-040350FM-12+008399999V0203601N002112200019N0040001N1+02541+02451100951ADDGF104991041011004501001001KA1240M+03241MA1999999099931MD1999999+0021REMSYN088AAXX  10004 82392 32496 43604 10254 20245 39993 40095 84100 333 10324 29084 55089 58002;
0156823920999992006031012004-03700-040350FM-12+008399999V0203601N001012200019N0500001N1+02701+02481101141ADDGF104991031021004501031001KA1240N+02301MA1999999100121MD1999999+0051REMSYN076AAXX  10124 82392 32499 43602 10270 20248 30012 40114 83230 333 20230 58005;
0137823920999992006031018004-03700-040350FM-12+008399999V0200501N001012200019N0500001N1+03131+02301100761ADDGF102991021021004501001001MA1999999099741MD1999999+0031REMSYN070AAXX  10184 82392 32499 20502 10313 20230 39974 40076 82200 333 58003;
0168823920999992006031100004-03700-040350FM-12+008399999V0200501N002612200019N0040001N1+02541+02451101021ADDGF102991021001008001031001KA1240M+03181MA1999999100001MD1999999+0071REMSYN088AAXX  11004 82392 32596 20505 10254 20245 30000 40102 82030 333 10318 29085 55098 58007;
0156823920999992006031112004-03700-040350FM-12+008399999V0203601N000512200019N0500001N1+02781+02421101211ADDGF106991041021004501001011KA1240N+02191MA1999999100191MD1999999+0071REMSYN076AAXX  11124 82392 32499 63601 10278 20242 30019 40121 84201 333 20219 58007;
0168823920999992006031200004-03700-040350FM-12+008399999V0203601N001012200019N0040001N1+02571+02331101021ADDGF102991011011004501011001KA1240M+03201MA1999999100001MD1999999+0001REMSYN088AAXX  12004 82392 32496 23602 10257 20233 30000 40102 81110 333 10320 29078 55107 58000;
0156823920999992006031212004-03700-040350FM-12+008399999V0200501N002112200019N0500001N1+02801+02421101161ADDGF104991041021004501001001KA1240N+02281MA1999999100141MD1999999-0051REMSYN076AAXX  12124 82392 32499 40504 10280 20242 30014 40116 84200 333 20228 59005;
0182823920999992006031218004-03700-040350FM-12+008399999V0209999C000010450019N0500001N1+02231+02231100791ADDAA106024991AY121061AY261061GF108991041071004501021999MA1999999099761MD1999999+0011MW1021REMSYN082AAXX  12184 82392 21499 80000 10223 20223 39976 40079 70226 8472/ 333 58001 60251;
0168823920999992006031300004-03700-040350FM-12+008399999V0203601N001012200019N0040001N1+02441+02421101021ADDGF103991031001004501031001KA1240M+03181MA1999999100001MD1999999+0001REMSYN088AAXX  13004 82392 32496 33602 10244 20242 30000 40102 83030 333 10318 29094 55053 58000;
0173823920999992006031312004-03700-040350FM-12+008399999V0201401N002112200019N0500001N1+02721+02521101021ADDAA124024991GF103991031021004501001001KA1240N+02201MA1999999100001MD1999999-0141REMSYN082AAXX  13124 82392 22499 31404 10272 20252 30000 40102 83200 333 20220 59014 60254;
0182823920999992006031318004-03700-040350FM-12+008399999V0203601N001010450019N0500001N1+02541+02521100761ADDAA106001091AY121061AY221061GF108991041061004501021999MA1999999099731MD1999999-0031MW1201REMSYN082AAXX  13184 82392 21499 83602 10254 20252 39973 40076 72022 8462/ 333 59003 60011;
0213823920999992006031400004-03700-040350FM-12+008399999V0209999C000010042019N0040001N1+02331+02291101001ADDAA106000021AY151061AY251061GF108991061051004501011999KA1240M+03011MA1999999099971MD1999999-0031MW1551REMSYN100AAXX  14004 82392 21496 80000 10233 20229 39997 40100 75555 8651/ 333 10301 29096 55045 59003 69921;
0201823920999992006031412004-03700-040350FM-12+008399999V0202301N000510450019N0500001N1+02541+02521101071ADDAA124002091AY151061AY251061GF107991041051004501031001KA1240N+02261MA1999999100041MD1999999+0041MW1021REMSYN088AAXX  14124 82392 21499 72301 10254 20252 30004 40107 70255 84530 333 20226 58004 60024;
0182823920999992006031418004-03700-040350FM-12+008399999V0200501N000510042019N0100001N1+02371+02281100821ADDAA106017091AY161061AY261061GF108991061051004501011999MA1999999099791MD1999999+0061MW1631REMSYN082AAXX  14184 82392 21497 80501 10237 20228 39979 40082 76366 8651/ 333 58006 60171;
0213823920999992006031500004-03700-040350FM-12+008399999V0209999C000010450019N0040001N1+02411+02371101061ADDAA106001091AY161061AY261061GF106991021011004501011001KA1240M+03021MA1999999100031MD1999999+0061MW1021REMSYN100AAXX  15004 82392 21496 60000 10241 20237 30003 40106 70266 82110 333 10302 29096 55038 58006 60011;
0173823920999992006031512004-03700-040350FM-12+008399999V0202301N000510450019N0500001N1+02681+02591101151ADDAA124018091GF106991041021004501031001KA1240N+02291MA1999999100121MD1999999+0081REMSYN082AAXX  15124 82392 22499 62301 10268 20259 30012 40115 84230 333 20229 58008 60184;
0182823920999992006031518004-03700-040350FM-12+008399999V0200501N004610042019N0040001N1+02301+02271100931ADDAA106017091AY121061AY221061GF108991051061004501021999MA1999999099901MD1999999+0111MW1651REMSYN082AAXX  15184 82392 21496 80509 10230 20227 39990 40093 76522 8562/ 333 58011 60171;
0173823920999992006031612004-03700-040350FM-12+008399999V0200901N000510042019N0500001N1+02711+02451101171ADDAA124021191GF106991061041004501001001KA1240N+02261MA1999999100151MD1999999+0031REMSYN082AAXX  16124 82392 22499 60901 10271 20245 30015 40117 86400 333 20226 58003 60214;
0137823920999992006031618004-03700-040350FM-12+008399999V0200901N001010042019N0500001N1+03161+02341100781ADDGF105991051021004501001001MA1999999099761MD1999999-0141REMSYN070AAXX  16184 82392 32499 50902 10316 20234 39976 40078 85200 333 59014;
0168823920999992006031700004-03700-040350FM-12+008399999V0203601N001012200019N0040001N1+02561+02351100941ADDGF103991031001004501031001KA1240M+03221MA1999999099921MD1999999-0111REMSYN088AAXX  17004 82392 32496 33602 10256 20235 39992 40094 83030 333 10322 29081 55090 59011;
0156823920999992006031712004-03700-040350FM-12+008399999V0202301N000512200019N0500001N1+02621+02411101061ADDGF104991041021004501001001KA1240N+02201MA1999999100041MD1999999-0111REMSYN076AAXX  17124 82392 32499 42301 10262 20241 30004 40106 84200 333 20220 59011;
0182823920999992006031718004-03700-040350FM-12+008399999V0203601N000510450019N0500001N1+02881+02501100691ADDAA106003091AY161061AY261061GF105991031061004501031001MA1999999099671MD1999999-0091MW1211REMSYN082AAXX  17184 82392 21499 53601 10288 20250 39967 40069 72166 83630 333 59009 60031;
0213823920999992006031800004-03700-040350FM-12+008399999V0200501N000512200019N0040001N1+02501+02481100821ADDAA106013091AY161061AY261061GF102991021001008001031001KA1240M+03101MA1999999099801MD1999999-0121MW1021REMSYN100AAXX  18004 82392 21596 20501 10250 20248 39980 40082 70266 82030 333 10310 29092 55071 59012 60131;
0173823920999992006031812004-03700-040350FM-12+008399999V0200901N002112200019N0500001N1+02761+02381101021ADDAA124017091GF104991041021004501001001KA1240N+02321MA1999999100001MD1999999-0041REMSYN082AAXX  18124 82392 22499 40904 10276 20238 30000 40102 84200 333 20232 59004 60174;
0137823920999992006031818004-03700-040350FM-12+008399999V0200501N001510450019N0500001N1+03061+02301100671ADDGF105991041021004501031001MA1999999099651MD1999999-0021REMSYN070AAXX  18184 82392 32499 50503 10306 20230 39965 40067 84230 333 59002;
0213823920999992006031900004-03700-040350FM-12+008399999V0200501N002112200019N0040001N1+02381+02381100901ADDAA106000591AY151061AY221061GF104991021011008001031001KA1240M+03221MA1999999099881MD1999999+0081MW1031REMSYN100AAXX  19004 82392 21596 40504 10238 20238 39988 40090 70352 82130 333 10322 29086 55088 58008 69961;
0173823920999992006031912004-03700-040350FM-12+008399999V0200901N000510042019N0500001N1+02811+02421101061ADDAA124000591GF106991061041004501001001KA1240N+02301MA1999999100041MD1999999+0041REMSYN082AAXX  19124 82392 22499 60901 10281 20242 30004 40106 86400 333 20230 58004 69964;
0137823920999992006031918004-03700-040350FM-12+008399999V0200501N001010450019N0500001N1+02991+02321100671ADDGF106991031061004501041001MA1999999099651MD1999999+0001REMSYN070AAXX  19184 82392 32499 60502 10299 20232 39965 40067 83640 333 58000;
0213823920999992006032000004-03700-040350FM-12+008399999V0209999C000012200019N0040001N1+02361+02331101011ADDAA106011991AY161061AY261061GF101991011021008001001001KA1240M+03131MA1999999099991MD1999999+0011MW1021REMSYN100AAXX  20004 82392 21596 10000 10236 20233 39999 40101 70266 81200 333 10313 29086 55074 58001 60121;
0173823920999992006032012004-03700-040350FM-12+008399999V0201801N001012200019N0500001N1+02641+02501101091ADDAA124011991GF103991031011004501001001KA1240N+02301MA1999999100061MD1999999+0021REMSYN082AAXX  20124 82392 22499 31802 10264 20250 30006 40109 83100 333 20230 58002 60124;
0137823920999992006032018004-03700-040350FM-12+008399999V0200501N001012200019N0500001N1+03181+02041100631ADDGF102991021011004501001001MA1999999099621MD1999999-0031REMSYN070AAXX  20184 82392 32499 20502 10318 20204 39962 40063 82100 333 59003;
0213823920999992006032100004-03700-040350FM-12+008399999V0202301N000510450019N0040001N1+02441+02321101041ADDAA106002091AY161061AY261061GF106991041061004501031001KA1240M+03261MA1999999100011MD1999999+0021MW1211REMSYN100AAXX  21004 82392 21496 62301 10244 20232 30001 40104 72166 84630 333 10326 29082 55081 58002 60021;
0173823920999992006032112004-03700-040350FM-12+008399999V0201801N001012200019N0500001N1+02701+02431101061ADDAA124002091GF104991041021004501001001KA1240N+02221MA1999999100041MD1999999-0021REMSYN082AAXX  21124 82392 22499 41802 10270 20243 30004 40106 84200 333 20222 59002 60024;
0137823920999992006032118004-03700-040350FM-12+008399999V0200501N000510450019N0500001N1+03131+02431100651ADDGF106991031091004501031041MA1999999099641MD1999999+0021REMSYN070AAXX  21184 82392 32499 60501 10313 20243 39964 40065 83934 333 58002;
0213823920999992006032200004-03700-040350FM-12+008399999V0209999C000010450019N0040001N1+02471+02431101031ADDAA106001091AY161061AY261061GF106991041061004501031001KA1240M+03171MA1999999100011MD1999999+0001MW1021REMSYN100AAXX  22004 82392 21496 60000 10247 20243 30001 40103 70266 84630 333 10317 29086 55068 58000 69991;
0173823920999992006032212004-03700-040350FM-12+008399999V0209999C000010450019N0500001N1+02521+02471101181ADDAA124001091GF108991031071004501021999KA1240N+02321MA1999999100151MD1999999+0111REMSYN082AAXX  22124 82392 22499 80000 10252 20247 30015 40118 8372/ 333 20232 58011 69994;
0137823920999992006032218004-03700-040350FM-12+008399999V0200501N001510450019N0500001N1+02821+02501100781ADDGF108991041051004501021999MA1999999099761MD1999999+0121REMSYN070AAXX  22184 82392 32499 80503 10282 20250 39976 40078 8452/ 333 58012;
0168823920999992006032300004-03700-040350FM-12+008399999V0209999C000012200019N0040001N1+02441+02341101051ADDGF102991011051004501011001KA1240M+03001MA1999999100031MD1999999+0011REMSYN088AAXX  23004 82392 32496 20000 10244 20234 30003 40105 81510 333 10300 29092 55088 58001;
0175823920999992006032312004-03700-040350FM-12+008399999V0201401N002119999999N0500001N1+02731+02391101161ADDGF105991999021004501001001KA1240N+02271MA1999999100141MD1999999-0011REMSYN076AAXX  23124 82392 32499 51404 10273 20239 30014 40116 83200 333 20227 59001;EQDQ01+000032SCOTLC
0137823920999992006032318004-03700-040350FM-12+008399999V0203601N001010042019N0500001N1+02501+02341100821ADDGF108991051071004501021001MA1999999099791MD1999999+0031REMSYN070AAXX  23184 82392 32499 83602 10250 20234 39979 40082 85720 333 58003;
0213823920999992006032400004-03700-040350FM-12+008399999V0201401N010310450019N0040001N1+02401+02331101061ADDAA106000591AY161061AY221061GF106991041051004501031001KA1240M+03141MA1999999100041MD1999999+0021MW1031REMSYN100AAXX  24004 82392 21496 61420 10240 20233 30004 40106 70362 84530 333 10314 29091 55060 58002 69961;
0201823920999992006032412004-03700-040350FM-12+008399999V0201801N001010450019N0500001N1+02521+02471101151ADDAA124001091AY161061AY261061GF108991041051004501021999KA1240N+02301MA1999999100121MD1999999-0021MW1031REMSYN088AAXX  24124 82392 21499 81802 10252 20247 30012 40115 70366 8452/ 333 20230 59002 60014;
0156823920999992006032418004-03700-040350FM-12+008399999V0209999C000019999999N0500001N1+03061+02271100781ADDGF106991999021004501001001MA1999999099761MD1999999-0031REMSYN070AAXX  24184 82392 32499 60000 10306 20227 39976 40078 83200 333 59003;EQDQ01+000032SCOTLC
0213823920999992006032500004-03700-040350FM-12+008399999V0201801N000510450019N0040001N1+02341+02241101071ADDAA106000891AY151061AY251061GF108991041071004501021999KA1240M+03101MA1999999100041MD1999999+0001MW1021REMSYN100AAXX  25004 82392 21496 81801 10234 20224 30004 40107 70255 8472/ 333 10310 29087 55026 58000 69971;
0173823920999992006032512004-03700-040350FM-12+008399999V0201401N000512200019N0500001N1+02691+02411101171ADDAA124000891GF102991011011004501001011KA1240N+02171MA1999999100141MD1999999+0021REMSYN082AAXX  25124 82392 22499 21401 10269 20241 30014 40117 81101 333 20217 58002 69974;
0182823920999992006032518004-03700-040350FM-12+008399999V0203601N000510450019N0500001N1+02581+02421100861ADDAA106003091AY101061AY221061GF107991041061004501071001MA1999999099831MD1999999+0071MW1211REMSYN082AAXX  25184 82392 21499 73601 10258 20242 39983 40086 72102 84670 333 58007 60031;
0168823920999992006032600004-03700-040350FM-12+008399999V0200501N000510042019N0040001N1+02491+02411101181ADDGF105991051041004501001001KA1240M+03121MA1999999100151MD1999999+0111REMSYN088AAXX  26004 82392 32496 50501 10249 20241 30015 40118 85400 333 10312 29091 55058 58011;
0173823920999992006032612004-03700-040350FM-12+008399999V0201401N000510450019N0500001N1+02621+02531101271ADDAA124003091GF107991041051004501031001KA1240N+02301MA1999999100251MD1999999+0111REMSYN082AAXX  26124 82392 22499 71401 10262 20253 30025 40127 84530 333 20230 58011 60034;
0182823920999992006032618004-03700-040350FM-12+008399999V0200501N002610450019N0500001N1+02681+02581100871ADDAA106001091AY121061AY221061GF108991031071004501021999MA1999999099841MD1999999+0011MW1211REMSYN082AAXX  26184 82392 21499 80505 10268 20258 39984 40087 72122 8372/ 333 58001 60011;
0213823920999992006032700004-03700-040350FM-12+008399999V0200501N001010450019N0040001N1+02381+02311101181ADDAA106001091AY161061AY261061GF108991031071004501021999KA1240M+03201MA1999999100151MD1999999+0001MW1031REMSYN100AAXX  27004 82392 21496 80502 10238 20231 30015 40118 70366 8372/ 333 10320 29095 55049 58000 60011;
0173823920999992006032712004-03700-040350FM-12+008399999V0200901N000512200019N0500001N1+02661+02461101351ADDAA124002091GF104991041021004501001001KA1240N+02211MA1999999100321MD1999999+0071REMSYN082AAXX  27124 82392 22499 40901 10266 20246 30032 40135 84200 333 20221 58007 60024;
0137823920999992006032718004-03700-040350FM-12+008399999V0202301N002110450019N0500001N1+02661+02481100921ADDGF108991041061004501021999MA1999999099901MD1999999+0061REMSYN070AAXX  27184 82392 32499 82304 10266 20248 39990 40092 8462/ 333 58006;
0232823920999992006032800004-03700-040350FM-12+008399999V0200501N000510450019N0040001N1+02541+02441101251ADDAA106000091AY151061AY251061GF108991041061004501021999KA1240M+03181MA1999999100231MD1999999+0081MW1021REMSYN100AAXX  28004 82392 21496 80501 10254 20244 30023 40125 70255 8462/ 333 10318 29089 55068 58008 69921;EQDQ01  00002PRCP06
0192823920999992006032812004-03700-040350FM-12+008399999V0200901N002112200019N0500001N1+02801+02311101311ADDAA124000091GF104991041021004501001001KA1240N+02311MA1999999100291MD1999999-0031REMSYN082AAXX  28124 82392 22499 40904 10280 20231 30029 40131 84200 333 20231 59003 69924;EQDQ01  00002PRCP24
0182823920999992006032818004-03700-040350FM-12+008399999V0203601N002610042019N0500001N1+03031+02431100821ADDAA106005191AY101061AY221061GF107991061061004501001021MA1999999099801MD1999999-0101MW1551REMSYN082AAXX  28184 82392 21499 73605 10303 20243 39980 40082 75502 86602 333 59010 60051;
0223823920999992006032900004-03700-040350FM-12+008399999V0203601N000512200019N0040001N1+02451+02431101151ADDAA106020191AY161061AY261061GA1001+999999999GF100991001001999999001001KA1240M+03111MA1999999100121MD1999999-0111MW1021REMSYN094AAXX  29004 82392 21996 03601 10245 20243 30012 40115 70266 333 10311 29085 55078 59011 60201;
0201823920999992006032912004-03700-040350FM-12+008399999V0200901N001510450019N0500001N1+02721+02501101181ADDAA124025991AY161061AY251061GF106991041021004501031001KA1240N+02151MA1999999100161MD1999999-0131MW1021REMSYN088AAXX  29124 82392 21499 60903 10272 20250 30016 40118 70265 84230 333 20215 59013 60264;
0213823920999992006033000004-03700-040350FM-12+008399999V0201801N000512200019N0040001N1+02411+02371101131ADDAA106017091AY161061AY261061GF102991021001008001031001KA1240M+03101MA1999999100111MD1999999-0011MW1021REMSYN100AAXX  30004 82392 21596 21801 10241 20237 30011 40113 70266 82030 333 10310 29092 55072 59001 60171;
0173823920999992006033012004-03700-040350FM-12+008399999V0201401N000510042019N0500001N1+02731+02401101221ADDAA124021191GF106991051041004501001011KA1240N+02161MA1999999100201MD1999999+0041REMSYN082AAXX  30124 82392 22499 61401 10273 20240 30020 40122 85401 333 20216 58004 60214;
0182823920999992006033018004-03700-040350FM-12+008399999V0203601N001010042019N0100001N1+02391+02301100931ADDAA106011991AY101061AY221061GF107991061071004501031001MA1999999099901MD1999999+0161MW1971REMSYN082AAXX  30184 82392 21497 73602 10239 20230 39990 40093 79702 86730 333 58016 60121;
0213823920999992006033100004-03700-040350FM-12+008399999V0209999C000012200019N0040001N1+02401+02311101161ADDAA106000591AY161061AY251061GF102991021001004501031001KA1240M+03161MA1999999100141MD1999999+0031MW1021REMSYN100AAXX  31004 82392 21496 20000 10240 20231 30014 40116 70265 82030 333 10316 29070 55092 58003 69941;
0173823920999992006033112004-03700-040350FM-12+008399999V0209999C000012200019N0500001N1+02581+02531101251ADDAA124011991GF104991031021004501031001KA1240N+02201MA1999999100221MD1999999+0021REMSYN082AAXX  31124 82392 22499 40000 10258 20253 30022 40125 83230 333 20220 58002 60124;
0137823920999992006033118004-03700-040350FM-12+008399999V0203601N000512200019N0500001N1+03131+02381100801ADDGF106991041061004501001011MA1999999099781MD1999999-0121REMSYN070AAXX  31184 82392 32499 63601 10313 20238 39978 40080 84601 333 59012;
0213823920999992006040100004-03700-040350FM-12+008399999V0200501N002112200019N0040001N1+02501+02401101131ADDAA106000591AY151061AY251061GF104991041021004501001001KA1240M+03161MA1999999100101MD1999999-0041MW1031REMSYN100AAXX  01004 82392 21496 40504 10250 20240 30010 40113 70355 84200 333 10316 29087 55091 59004 69961;
0122823920999992006040112004-03700-040350FM-12+008399999V0209999C000012200019N0500001N1+02741+02621999999ADDGF104991999999004501999999REMSYN084AAXX  01124 82392 22499 40000 10274 20262 10006 20226 30024 40126 58002 69964 84200;
0178823920999992006040118004-03700-040350FM-12+008399999V0203201N001010450019N0200001N1+02601+02461100891ADDAA106005191AY121061AY221061GF106991041041004501031001MA1999999099861MD1810081+9999MW1811REMSYN078AAXX  01184 82392 21498 63202 10260 20246 39986 40089 58008 60051 78122 84430;
0128823920999992006040200004-03700-040350FM-12+008399999V0209999C000012200019N0200001N1+02501+02451999999ADDGF102991999999008001999999REMSYN090AAXX  02004 82392 21598 20000 10250 20245 10320 29090 30014 40116 58004 69931 70265 82030;
0173823920999992006040212004-03700-040350FM-12+008399999V0201801N000510042019N0500001N1+02711+02391101191ADDAA124005191GF106991061041004501001001KA1240N+02221MA1999999100171MD1999999-0071REMSYN082AAXX  02124 82392 22499 61801 10271 20239 30017 40119 86400 333 20222 59007 60054;
0182823920999992006040218004-03700-040350FM-12+008399999V0203201N000512200019N0500001N1+02961+02381100751ADDAA106003091AY161061AY261061GF103991021041004501031001MA1999999099731MD1999999-0131MW1211REMSYN082AAXX  02184 82392 21499 33201 10296 20238 39973 40075 72166 82430 333 59013 60031;
0187823920999992006040300004-03700-040350FM-12+008399999V0200501N000519999999N0040001N1+02441+02281101041ADDGF105991999021004501001001KA1240M+03171MA1999999100021MD1999999-0121REMSYN088AAXX  03004 82392 32496 50501 10244 20228 30002 40104 83200 333 10317 29084 55091 59012;EQDQ01+000032SCOTLC
0173823920999992006040312004-03700-040350FM-12+008399999V0201401N002612200019N0500001N1+02761+02341101171ADDAA124003091GF103991031021004501001001KA1240N+02281MA1999999100151MD1999999-0021REMSYN082AAXX  03124 82392 22499 31405 10276 20234 30015 40117 83200 333 20228 59002 60034;
0137823920999992006040318004-03700-040350FM-12+008399999V0200501N001012200019N0500001N1+03141+02161100821ADDGF104991041021004501001001MA1999999099801MD1999999+0071REMSYN070AAXX  03184 82392 32499 40502 10314 20216 39980 40082 84200 333 58007;
0168823920999992006040400004-03700-040350FM-12+008399999V0203601N000512200019N0040001N1+02571+02421101041ADDGF104991021021004501011001KA1240M+03201MA1999999100021MD1999999+0001REMSYN088AAXX  04004 82392 32496 43601 10257 20242 30002 40104 82210 333 10320 29079 55098 58000;
0156823920999992006040412004-03700-040350FM-12+008399999V0203201N001012200019N0500001N1+02821+02331101141ADDGF104991021011004501031001KA1240N+02301MA1999999100121MD1999999-0031REMSYN076AAXX  04124 82392 32499 43202 10282 20233 30012 40114 82130 333 20230 59003;
0137823920999992006040418004-03700-040350FM-12+008399999V0203601N002610042019N0500001N1+02561+02251100811ADDGF107991061061004501031001MA1999999099781MD1999999-0021REMSYN070AAXX  04184 82392 32499 73605 10256 20225 39978 40081 86630 333 59002;
0213823920999992006040500004-03700-040350FM-12+008399999V0203601N000510042019N0040001N1+02411+02371101131ADDAA106001091AY151061AY251061GF108991061061004501021999KA1240M+03261MA1999999100101MD1999999+0081MW1211REMSYN100AAXX  05004 82392 21496 83601 10241 20237 30010 40113 72155 8662/ 333 10326 29088 55073 58008 60011;
0201823920999992006040512004-03700-040350FM-12+008399999V0201401N000512200019N0500001N1+02521+02491101181ADDAA124003091AY161061AY261061GF104991041021004501001001KA1240N+02261MA1999999100151MD1999999+0031MW1021REMSYN088AAXX  05124 82392 21499 41401 10252 20249 30015 40118 70266 84200 333 20226 58003 60034;
0137823920999992006040518004-03700-040350FM-12+008399999V0203601N001012200019N0500001N1+03021+02261100721ADDGF103991031021004501001001MA1999999099701MD1999999-0081REMSYN070AAXX  05184 82392 32499 33602 10302 20226 39970 40072 83200 333 59008;
0213823920999992006040600004-03700-040350FM-12+008399999V0201801N000510450019N0040001N1+02431+02391101081ADDAA106011991AY161061AY261061GF106991031041004501011001KA1240M+03141MA1999999100051MD1999999-0051MW1021REMSYN100AAXX  06004 82392 21496 61801 10243 20239 30005 40108 70266 83410 333 10314 29089 55068 59005 60121;
0173823920999992006040612004-03700-040350FM-12+008399999V0201801N000510450019N0200001N1+02681+02451101101ADDAA124011991GF106991041061004501011001KA1240N+02211MA1999999100081MD1999999-0071REMSYN082AAXX  06124 82392 22498 61801 10268 20245 30008 40110 84610 333 20221 59007 60124;
0201823920999992006040618004-03700-040350FM-12+008399999V0200501N000510450019N0500001N1+02961+02351100631ADDAA106000091AY151061AY251061GF106991041051004501031001MA1999999099621MD1999999-0081MW1021REMSYN082AAXX  06184 82392 21499 60501 10296 20235 39962 40063 70255 84530 333 59008 69911;EQDQ01  00002PRCP06
0168823920999992006040700004-03700-040350FM-12+008399999V0200501N000510450019N0040001N1+02501+02451100921ADDGF105991041041004501031001KA1240M+03121MA1999999099901MD1999999-0151REMSYN088AAXX  07004 82392 32496 50501 10250 20245 39990 40092 84430 333 10312 29088 55081 59015;
0192823920999992006040712004-03700-040350FM-12+008399999V0201401N001012200019N0500001N1+02741+02581101021ADDAA124000091GF102991021001004501031001KA1240N+02241MA1999999100001MD1999999-0081REMSYN082AAXX  07124 82392 22499 21402 10274 20258 30000 40102 82030 333 20224 59008 69914;EQDQ01  00002PRCP24
0182823920999992006040718004-03700-040350FM-12+008399999V0209999C000010450019N0500001N1+02561+02401100741ADDAA106005191AY151061AY251061GF107991041051004501031001MA1999999099711MD1999999-0091MW1211REMSYN082AAXX  07184 82392 21499 70000 10256 20240 39971 40074 72155 84530 333 59009 60051;
0173823920999992006040812004-03700-040350FM-12+008399999V0201801N000510450019N0500001N1+02681+02391101011ADDAA124005191GF106991031041004501031001KA1240N+02271MA1999999099991MD1999999-0011REMSYN082AAXX  08124 82392 22499 61801 10268 20239 39999 40101 83430 333 20227 59001 60054;
0182823920999992006040818004-03700-040350FM-12+008399999V0203601N000510450019N0500001N1+02781+02361100611ADDAA106001091AY101061AY221061GF106991041021004501021001MA1999999099591MD1999999-0121MW1211REMSYN082AAXX  08184 82392 21499 63601 10278 20236 39959 40061 72102 84220 333 59012 60011;
0168823920999992006040900004-03700-040350FM-12+008399999V0200501N000510450019N0040001N1+02491+02381100981ADDGF108991041061004501011999KA1240M+03101MA1999999099961MD1999999+0021REMSYN088AAXX  09004 82392 32496 80501 10249 20238 39996 40098 8461/ 333 10310 29087 55063 58002;
0173823920999992006040912004-03700-040350FM-12+008399999V0200501N001012200019N0500001N1+02661+02461101021ADDAA124001091GF104991041021004501001001KA1240N+02261MA1999999100001MD1999999+0011REMSYN082AAXX  09124 82392 22499 40502 10266 20246 30000 40102 84200 333 20226 58001 60014;
0137823920999992006040918004-03700-040350FM-12+008399999V0200501N000512200019N0500001N1+03121+02251100551ADDGF103991021011004501031001MA1999999099541MD1999999-0051REMSYN070AAXX  09184 82392 32499 30501 10312 20225 39954 40055 82130 333 59005;
0168823920999992006041000004-03700-040350FM-12+008399999V0200501N000512200019N0040001N1+02421+02351100901ADDGF104991021011004501031001KA1240M+03181MA1999999099871MD1999999-0091REMSYN088AAXX  10004 82392 32496 40501 10242 20235 39987 40090 82130 333 10318 29085 55084 59009;
0175823920999992006041012004-03700-040350FM-12+008399999V0209999C000012200019N0500001N1+02761+02381100991ADDGF102991999021004501001001KA1240N+02251MA1999999099971MD1999999-0031REMSYN076AAXX  10124 82392 32499 20000 10276 20238 39997 40099 84200 333 20225 59003;EQDQ01+000042SCOTLC
0182823920999992006041018004-03700-040350FM-12+008399999V0200501N002110042019N0500001N1+02501+02361100621ADDAA106007191AY121061AY221061GF107991051041004501031001MA1999999099601MD1999999+0061MW1211REMSYN082AAXX  10184 82392 21499 70504 10250 20236 39960 40062 72122 85430 333 58006 60071;
0168823920999992006041100004-03700-040350FM-12+008399999V0209999C000011050019N0040001N1+02411+02371100871ADDGF105991021011004501001071KA1240M+03201MA1999999099851MD1999999-0021REMSYN088AAXX  11004 82392 32496 50000 10241 20237 39985 40087 82107 333 10320 29092 55071 59002;
0173823920999992006041112004-03700-040350FM-12+008399999V0202301N000512200019N0500001N1+02581+02511101071ADDAA124007191GF104991041021004501001001KA1240N+02221MA1999999100041MD1999999+0071REMSYN082AAXX  11124 82392 22499 42301 10258 20251 30004 40107 84200 333 20222 58007 60074;
0182823920999992006041118004-03700-040350FM-12+008399999V0200901N003110042019N0500001N1+02581+02291100651ADDAA106002091AY151061AY251061GF107991061071004501031001MA1999999099631MD1999999+0031MW1971REMSYN082AAXX  11184 82392 21499 70906 10258 20229 39963 40065 79755 86730 333 58003 60021;
0213823920999992006041200004-03700-040350FM-12+008399999V0209999C000010450019N0040001N1+02441+02371100971ADDAA106004191AY161061AY261061GF108991031071004501011999KA1240M+03121MA1999999099941MD1999999+0091MW1021REMSYN100AAXX  12004 82392 21496 80000 10244 20237 39994 40097 70266 8371/ 333 10312 29093 55057 58009 60041;
0173823920999992006041212004-03700-040350FM-12+008399999V0202301N000512200019N0500001N1+02601+02501101131ADDAA124006191GF103991031021004501001001KA1240N+02201MA1999999100101MD1999999+0061REMSYN082AAXX  12124 82392 22499 32301 10260 20250 30010 40113 83200 333 20220 58006 60064;
0182823920999992006041218004-03700-040350FM-12+008399999V0200501N001010450019N0500001N1+02521+02381100831ADDAA106006191AY161061AY221061GF108991041071004501021999MA1999999099801MD1999999+0171MW1021REMSYN082AAXX  12184 82392 21499 80502 10252 20238 39980 40083 70262 8472/ 333 58017 60061;
0213823920999992006041300004-03700-040350FM-12+008399999V0200501N000510450019N0040001N1+02401+02371101061ADDAA106001091AY161061AY261061GF106991011011004501031011KA1240M+03071MA1999999100031MD1999999+0091MW1021REMSYN100AAXX  13004 82392 21496 60501 10240 20237 30003 40106 70266 81131 333 10307 29096 55044 58009 60011;
0173823920999992006041312004-03700-040350FM-12+008399999V0202301N000510042019N0500001N1+02461+02411101051ADDAA124007191GF107991051041004501031001KA1240N+02131MA1999999100021MD1999999-0081REMSYN082AAXX  13124 82392 22499 72301 10246 20241 30002 40105 85430 333 20213 59008 60074;
0137823920999992006041318004-03700-040350FM-12+008399999V0201801N000510450019N0500001N1+03041+02361100571ADDGF105991031041004501031001MA1999999099561MD1999999-0241REMSYN070AAXX  13184 82392 32499 51801 10304 20236 39956 40057 83430 333 59024;
0213823920999992006041400004-03700-040350FM-12+008399999V0200501N001010450019N0040001N1+02421+02321100931ADDAA106000591AY121061AY251061GF107991041041004501031001KA1240M+03201MA1999999099901MD1999999-0131MW1201REMSYN100AAXX  14004 82392 21496 70502 10242 20232 39990 40093 72025 84430 333 10320 29088 55061 59013 69961;
0173823920999992006041412004-03700-040350FM-12+008399999V0201401N001012200019N0500001N1+02621+02481100981ADDAA124000591GF104991021021004501031001KA1240N+02221MA1999999099951MD1999999-0071REMSYN082AAXX  14124 82392 22499 41402 10262 20248 39995 40098 82230 333 20222 59007 69964;
0182823920999992006041418004-03700-040350FM-12+008399999V0201801N000510042019N0500001N1+02661+02481100531ADDAA106007191AY101061AY221061GF107991051061004501011001MA1999999099521MD1999999-0041MW1211REMSYN082AAXX  14184 82392 21499 71801 10266 20248 39952 40053 72102 85610 333 59004 60071;
0213823920999992006041500004-03700-040350FM-12+008399999V0200501N001010450019N0040001N1+02461+02361100891ADDAA106007191AY161061AY261061GF106991041041004501031001KA1240M+03221MA1999999099861MD1999999-0041MW1021REMSYN100AAXX  15004 82392 21496 60502 10246 20236 39986 40089 70266 84430 333 10322 29092 55067 59004 60071;
0173823920999992006041512004-03700-040350FM-12+008399999V0200901N001012200019N0500001N1+02801+02521100971ADDAA124014091GF103991031021004501001001KA1240N+02301MA1999999099951MD1999999+0001REMSYN082AAXX  15124 82392 22499 30902 10280 20252 39995 40097 83200 333 20230 58000 60144;
0182823920999992006041518004-03700-040350FM-12+008399999V0200901N000510450019N0100001N1+02401+02331100781ADDAA106004191AY151061AY221061GF108991041061004501021999MA1999999099751MD1999999+0231MW1631REMSYN082AAXX  15184 82392 21497 80901 10240 20233 39975 40078 76352 8462/ 333 58023 60041;
0213823920999992006041600004-03700-040350FM-12+008399999V0209999C000010450019N0040001N1+02401+02331101081ADDAA106000021AY151061AY261061GF106991041051004501031001KA1240M+03061MA1999999100061MD1999999+0201MW1031REMSYN100AAXX  16004 82392 21496 60000 10240 20233 30006 40108 70356 84530 333 10306 29093 55040 58020 69921;
0173823920999992006041612004-03700-040350FM-12+008399999V0202301N000510450019N0500001N1+02731+02471101291ADDAA124004191GF106991041041004501011001KA1240N+02331MA1999999100271MD1999999+0321REMSYN082AAXX  16124 82392 22499 62301 10273 20247 30027 40129 84410 333 20233 58032 60044;
0182823920999992006041618004-03700-040350FM-12+008399999V0209999C000010042019N0500001N1+02611+02481100981ADDAA106007991AY161061AY261061GF108991051051004501011999MA1999999099951MD1999999+0201MW1511REMSYN082AAXX  16184 82392 21499 80000 10261 20248 39995 40098 75166 8551/ 333 58020 60081;
0232823920999992006041700004-03700-040350FM-12+008399999V0209999C000019999999N0040001N1+02331+02291101311ADDAA106006191AY161061AY261061GF106991999021004501001001KA1240M+03011MA1999999100181MD1999999+0121MW1021REMSYN100AAXX  17004 82392 21496 60000 10233 20229 30018 40131 70266 84200 333 10301 29093 55043 58012 60061;EQDQ01+000042SCOTLC
0201823920999992006041712004-03700-040350FM-12+008399999V0203601N001010450019N0500001N1+02501+02431101261ADDAA124014091AY151061AY261061GF108991041071004501021001KA1240N+02301MA1999999100231MD1999999+0061MW1021REMSYN088AAXX  17124 82392 21499 83602 10250 20243 30023 40126 70256 84720 333 20230 58006 60144;
0168823920999992006041800004-03700-040350FM-12+008399999V0200501N000510450019N0040001N1+02451+02411101181ADDGF106991031021004501011001KA1240M+02861MA1999999100151MD1999999-0031REMSYN088AAXX  18004 82392 32496 60501 10245 20241 30015 40118 83210 333 10286 29090 55009 59003;
0156823920999992006041812004-03700-040350FM-12+008399999V0202301N000510450019N0500001N1+02601+02421101201ADDGF107991041041004501031001KA1240N+02281MA1999999100171MD1999999-0161REMSYN076AAXX  18124 82392 32499 72301 10260 20242 30017 40120 84430 333 20228 59016;
0137823920999992006041818004-03700-040350FM-12+008399999V0200501N000510450019N0500001N1+02651+02461100861ADDGF107991031051004501031001MA1999999099831MD1999999-0131REMSYN070AAXX  18184 82392 32499 70501 10265 20246 39983 40086 83530 333 59013;
0213823920999992006041900004-03700-040350FM-12+008399999V0209999C000010042019N0040001N1+02371+02351101221ADDAA106006191AY161061AY261061GF108991061051004501031999KA1240M+03071MA1999999100191MD1999999+0041MW1201REMSYN100AAXX  19004 82392 21496 80000 10237 20235 30019 40122 72066 8653/ 333 10307 29094 55050 58004 60061;
0201823920999992006041912004-03700-040350FM-12+008399999V0209999C000010450019N0500001N1+02541+02401101331ADDAA124008991AY161061AY261061GF107991041051004501031001KA1240N+02261MA1999999100301MD1999999+0131MW1021REMSYN088AAXX  19124 82392 21499 70000 10254 20240 30030 40133 70266 84530 333 20226 58013 60094;
0213823920999992006042000004-03700-040350FM-12+008399999V0209999C000010450019N0040001N1+02311+02271101201ADDAA106015091AY161061AY261061GF106991041061004501011001KA1240M+03131MA1999999100131MD1999999-0021MW1021REMSYN100AAXX  20004 82392 21496 60000 10231 20227 30013 40120 70266 84610 333 10313 29085 55049 59002 60151;
0173823920999992006042012004-03700-040350FM-12+008399999V0209999C000010450019N0500001N1+02571+02371101211ADDAA124015091GF106991041041004501031001KA1240N+02171MA1999999100181MD1999999-0121REMSYN082AAXX  20124 82392 22499 60000 10257 20237 30018 40121 84430 333 20217 59012 60154;
0168823920999992006042100004-03700-040350FM-12+008399999V0200501N001010450019N0040001N1+02501+02431101231ADDGF106991041041004501031001KA1240M+03161MA1999999100201MD1999999+0031REMSYN088AAXX  21004 82392 32496 60502 10250 20243 30020 40123 84430 333 10316 29092 55082 58003;
0201823920999992006042112004-03700-040350FM-12+008399999V0202301N000510042019N0500001N1+02521+02471101311ADDAA124001091AY161061AY251061GF106991051051004501031001KA1240N+02311MA1999999100281MD1999999+0101MW1021REMSYN088AAXX  21124 82392 21499 62301 10252 20247 30028 40131 70265 85530 333 20231 58010 60014;
0182823920999992006042118004-03700-040350FM-12+008399999V0201801N000510042019N0500001N1+02471+02381100891ADDAA106006191AY151061AY251061GF108991061061004501031999MA1999999099861MD1999999-0021MW1211REMSYN082AAXX  21184 82392 21499 81801 10247 20238 39986 40089 72155 8663/ 333 59002 60061;
0213823920999992006042200004-03700-040350FM-12+008399999V0203601N002110450019N0040001N1+02421+02371101331ADDAA106016091AY161061AY261061GF108991041071004501021999KA1240M+03141MA1999999100301MD1999999+0101MW1631REMSYN100AAXX  22004 82392 21496 83604 10242 20237 30030 40133 76366 8472/ 333 10314 29096 55044 58010 60161;
0201823920999992006042212004-03700-040350FM-12+008399999V0202701N000510042019N0500001N1+02561+02421101371ADDAA124022191AY151061AY251061GF106991051051004501031001KA1240N+02361MA1999999100341MD1999999+0061MW1021REMSYN088AAXX  22124 82392 21499 62701 10256 20242 30034 40137 70255 85530 333 20236 58006 60224;
0137823920999992006042218004-03700-040350FM-12+008399999V0201801N000510450019N0500001N1+03091+02291100801ADDGF106991021021004501031021MA1999999099781MD1999999-0081REMSYN070AAXX  22184 82392 32499 61801 10309 20229 39978 40080 82232 333 59008;
0168823920999992006042300004-03700-040350FM-12+008399999V0203601N000510450019N0040001N1+02481+02391101111ADDGF106991021021004501021001KA1240M+03191MA1999999100081MD1999999-0221REMSYN088AAXX  23004 82392 32496 63601 10248 20239 30008 40111 82220 333 10319 29086 55071 59022;
0156823920999992006042312004-03700-040350FM-12+008399999V0200501N002112200019N0500001N1+02801+02311101181ADDGF103991031021004501001001KA1240N+02301MA1999999100161MD1999999-0181REMSYN076AAXX  23124 82392 32499 30504 10280 20231 30016 40118 83200 333 20230 59018;
0182823920999992006042318004-03700-040350FM-12+008399999V0203201N001510450019N0500001N1+02571+02511100831ADDAA106008991AY161061AY261061GF108991041061004501021999MA1999999099801MD1999999+0021MW1211REMSYN082AAXX  23184 82392 21499 83203 10257 20251 39980 40083 72166 8462/ 333 58002 60091;
0213823920999992006042400004-03700-040350FM-12+008399999V0203201N000510450019N0040001N1+02401+02331101121ADDAA106022191AY161061AY261061GF108991031071004501021999KA1240M+03101MA1999999100101MD1999999+0021MW1021REMSYN100AAXX  24004 82392 21496 83201 10240 20233 30010 40112 70266 8372/ 333 10310 29091 55069 58002 60221;
0173823920999992006042412004-03700-040350FM-12+008399999V0202301N001512200019N0500001N1+02741+02471101121ADDAA124032091GF103991031021004501001001KA1240N+02311MA1999999100101MD1999999-0061REMSYN082AAXX  24124 82392 22499 32303 10274 20247 30010 40112 83200 333 20231 59006 60324;
0137823920999992006042418004-03700-040350FM-12+008399999V0200501N003110450019N0500001N1+02761+02381100761ADDGF106991041041004501031001MA1999999099741MD1999999-0061REMSYN070AAXX  24184 82392 32499 60506 10276 20238 39974 40076 84430 333 59006;
0213823920999992006042500004-03700-040350FM-12+008399999V0200901N000510450019N0040001N1+02431+02411101001ADDAA106000891AY151061AY251061GF106991031041004501031001KA1240M+03131MA1999999099981MD1999999-0121MW1021REMSYN100AAXX  25004 82392 21496 60901 10243 20241 39998 40100 70255 83430 333 10313 29090 55083 59012 69971;
0173823920999992006042512004-03700-040350FM-12+008399999V0200501N000512200019N0500001N1+02601+02511101081ADDAA124000891GF104991041021004501001001KA1240N+02261MA1999999100051MD1999999-0051REMSYN082AAXX  25124 82392 22499 40501 10260 20251 30005 40108 84200 333 20226 59005 69974;
0137823920999992006042518004-03700-040350FM-12+008399999V0203201N000510450019N0500001N1+03001+02341100611ADDGF106991041071004501071001MA1999999099961MD1999999-0141REMSYN070AAXX  25184 82392 32499 63201 10300 20234 39996 40061 84770 333 59014;
0168823920999992006042600004-03700-040350FM-12+008399999V0209999C000010450019N0040001N1+02491+02401101041ADDGF108991031021004501031999KA1240M+03181MA1999999100021MD1999999+0041REMSYN088AAXX  26004 82392 32496 80000 10249 20240 30002 40104 8323/ 333 10318 29088 55090 58004;
0156823920999992006042612004-03700-040350FM-12+008399999V0203201N001012200019N0500001N1+02611+02481101141ADDGF104991041021004501001001KA1240N+02201MA1999999100121MD1999999+0071REMSYN076AAXX  26124 82392 32499 43202 10261 20248 30012 40114 84200 333 20220 58007;
0137823920999992006042618004-03700-040350FM-12+008399999V0202301N001010450019N0500001N1+02881+02251100781ADDGF106991031041004501041001MA1999999099751MD1999999+0151REMSYN070AAXX  26184 82392 32499 62302 10288 20225 39975 40078 83440 333 58015;
0168823920999992006042700004-03700-040350FM-12+008399999V0200501N000510450019N0040001N1+02511+02301101031ADDGF108991021021004501031999KA1240M+03041MA1999999100011MD1999999-0011REMSYN088AAXX  27004 82392 32496 80501 10251 20230 30001 40103 8223/ 333 10304 29086 55051 59001;
0175823920999992006042712004-03700-040350FM-12+008399999V0202701N000510075019N0500001N1+02771+02421101151ADDGF107991999041008001001001KA1240N+02481MA1999999100131MD1999999+0011REMSYN076AAXX  27124 82392 32599 72701 10277 20242 30013 40115 85400 333 20248 58001;EQDQ01+000052SCOTLC
0182823920999992006042718004-03700-040350FM-12+008399999V0200501N000510042019N0100001N1+02391+02351100841ADDAA106010991AY101061AY221061GF108991081071004501999999MA1999999099811MD1999999+0061MW1211REMSYN082AAXX  27184 82392 21497 80501 10239 20235 39981 40084 72102 887// 333 58006 60111;
0213823920999992006042800004-03700-040350FM-12+008399999V0200501N001510450019N0040001N1+02391+02351101161ADDAA106010991AY161061AY261061GF108991041071004501021999KA1240M+03121MA1999999100141MD1999999+0131MW1031REMSYN100AAXX  28004 82392 21496 80503 10239 20235 30014 40116 70366 8472/ 333 10312 29093 55045 58013 60111;
0173823920999992006042812004-03700-040350FM-12+008399999V0202301N000512200019N0500001N1+02631+02591101231ADDAA124021191GF104991041021004501001001KA1240N+02301MA1999999100201MD1999999+0071REMSYN082AAXX  28124 82392 22499 42301 10263 20259 30020 40123 84200 333 20230 58007 60214;
0137823920999992006042818004-03700-040350FM-12+008399999V0209999C000010042019N0500001N1+03041+02411100631ADDGF107991051061004501021001MA1999999099621MD1999999-0191REMSYN070AAXX  28184 82392 32499 70000 10304 20241 39962 40063 85620 333 59019;
0213823920999992006042900004-03700-040350FM-12+008399999V0209999C000010450019N0040001N1+02401+02301101031ADDAA106007191AY161061AY221061GF106991041051004501031001KA1240M+03181MA1999999100001MD1999999-0141MW1021REMSYN100AAXX  29004 82392 21496 60000 10240 20230 30000 40103 70262 84530 333 10318 29087 55060 59014 60071;
0173823920999992006042912004-03700-040350FM-12+008399999V0201401N000510450019N0500001N1+02611+02481101131ADDAA124007191GF105991031041004501031001KA1240N+02301MA1999999100101MD1999999-0101REMSYN082AAXX  29124 82392 22499 51401 10261 20248 30010 40113 83430 333 20230 59010 60074;
0182823920999992006042918004-03700-040350FM-12+008399999V0202301N000510450019N0500001N1+02701+02481100751ADDAA106001091AY121061AY221061GF108991041071004501021999MA1999999099721MD1999999+0101MW1211REMSYN082AAXX  29184 82392 21499 82301 10270 20248 39972 40075 72122 8472/ 333 58010 60011;
0213823920999992006043000004-03700-040350FM-12+008399999V0209999C000010042019N0040001N1+02461+02371101101ADDAA106001091AY161061AY261061GF108991051061004501021999KA1240M+03221MA1999999100071MD1999999+0071MW1021REMSYN100AAXX  30004 82392 21496 80000 10246 20237 30007 40110 70266 8562/ 333 10322 29092 55059 58007 60011;
0173823920999992006043012004-03700-040350FM-12+008399999V0201801N000510042019N0500001N1+02651+02441101131ADDAA124003091GF107991061041004501031001KA1240N+02301MA1999999100111MD1999999+0011REMSYN082AAXX  30124 82392 22499 71801 10265 20244 30011 40113 86430 333 20230 58001 60034;
0182823920999992006043018004-03700-040350FM-12+008399999V0200501N000510090019N0100001N1+02391+02351100931ADDAA106009991AY161061AY261061GF108991081081004501999999MA1999999099901MD1999999+0181MW1611REMSYN082AAXX  30184 82392 21497 80501 10239 20235 39990 40093 76166 888// 333 58018 60101;
0213823920999992006050100004-03700-040350FM-12+008399999V0209999C000010042019N0040001N1+02371+02331101151ADDAA106001091AY161061AY261061GF107991071061004501001001KA1240M+02841MA1999999100121MD1999999+0051MW1021REMSYN100AAXX  01004 82392 21496 70000 10237 20233 30012 40115 70266 87600 333 10284 29095 55013 58005 60011;
0201823920999992006050112004-03700-040350FM-12+008399999V0200901N002110042019N0500001N1+02531+02361101281ADDAA124011991AY161061AY261061GF106991061041004501001001KA1240N+02321MA1999999100251MD1999999+0141MW1021REMSYN088AAXX  01124 82392 21499 60904 10253 20236 30025 40128 70266 86400 333 20232 58014 60124;
0137823920999992006050118004-03700-040350FM-12+008399999V0203601N002110042019N0500001N1+02721+02341100971ADDGF106991061051004501001001MA1999999099941MD1999999+0041REMSYN070AAXX  01184 82392 32499 63604 10272 20234 39994 40097 86500 333 58004;
0168823920999992006050200004-03700-040350FM-12+008399999V0200501N000510450019N0040001N1+02461+02371101221ADDGF107991021051004501031001KA1240M+02981MA1999999100191MD1999999+0071REMSYN088AAXX  02004 82392 32496 70501 10246 20237 30019 40122 82530 333 10298 29090 55027 58007;
0156823920999992006050212004-03700-040350FM-12+008399999V0202301N002112200019N0500001N1+02621+02411101311ADDGF103991031011004501001001KA1240N+02121MA1999999100281MD1999999+0031REMSYN076AAXX  02124 82392 32499 32304 10262 20241 30028 40131 83100 333 20212 58003;
0137823920999992006050218004-03700-040350FM-12+008399999V0201401N000512200019N0500001N1+03131+02211100911ADDGF103991031021004501001001MA1999999099891MD1999999+0051REMSYN070AAXX  02184 82392 32499 31401 10313 20221 39989 40091 83200 333 58005;
0168823920999992006050300004-03700-040350FM-12+008399999V0200501N000512200019N0040001N1+02511+02331101101ADDGF102991021001008001011001KA1240M+03171MA1999999100081MD1999999-0111REMSYN088AAXX  03004 82392 32596 20501 10251 20233 30008 40110 82010 333 10317 29081 55108 59011;
0156823920999992006050312004-03700-040350FM-12+008399999V0200501N001512200019N0500001N1+02821+02021101161ADDGF103991011011004501031001KA1240N+02241MA1999999100141MD1999999-0141REMSYN076AAXX  03124 82392 32499 30503 10282 20202 30014 40116 81130 333 20224 59014;
0137823920999992006050318004-03700-040350FM-12+008399999V0200501N002112200019N0500001N1+03061+02141100861ADDGF104991041021004501001001MA1999999099841MD1999999-0051REMSYN070AAXX  03184 82392 32499 40504 10306 20214 39984 40086 84200 333 59005;
0168823920999992006050400004-03700-040350FM-12+008399999V0203601N000510450019N0040001N1+02471+02341101071ADDGF106991021021004501011001KA1240M+03141MA1999999100051MD1999999-0031REMSYN088AAXX  04004 82392 32496 63601 10247 20234 30005 40107 82210 333 10314 29076 55089 59003;
0156823920999992006050412004-03700-040350FM-12+008399999V0201401N000510450019N0500001N1+02771+02401101111ADDGF105991021021004501031001KA1240N+02121MA1999999100091MD1999999-0051REMSYN076AAXX  04124 82392 32499 51401 10277 20240 30009 40111 82230 333 20212 59005;
0137823920999992006050418004-03700-040350FM-12+008399999V0200901N000510450019N0500001N1+03111+02331100771ADDGF106991021021004501031011MA1999999099751MD1999999-0091REMSYN070AAXX  04184 82392 32499 60901 10311 20233 39975 40077 82231 333 59009;
0213823920999992006050500004-03700-040350FM-12+008399999V0209999C000010450019N0040001N1+02381+02311101121ADDAA106007191AY161061AY261061GF107991041051004501031001KA1240M+03181MA1999999100101MD1999999+0051MW1021REMSYN100AAXX  05004 82392 21496 70000 10238 20231 30010 40112 70266 84530 333 10318 29084 55077 58005 60071;
0201823920999992006050512004-03700-040350FM-12+008399999V0200501N001010450019N0500001N1+02561+02471101171ADDAA124007191AY151061AY261061GF107991031041004501031001KA1240N+02281MA1999999100141MD1999999+0051MW1021REMSYN088AAXX  05124 82392 21499 70502 10256 20247 30014 40117 70256 83430 333 20228 58005 60074;
0182823920999992006050518004-03700-040350FM-12+008399999V0203601N000510042019N0500001N1+02731+02541100801ADDAA106002091AY121061AY211061GF107991051061004501031001MA1999999099781MD1999999+0031MW1201REMSYN082AAXX  05184 82392 21499 73601 10273 20254 39978 40080 72021 85630 333 58003 60021;
0168823920999992006050600004-03700-040350FM-12+008399999V0200501N002612200019N0040001N1+02421+02301101131ADDGF103991031001004501031001KA1240M+02981MA1999999100101MD1999999+0001REMSYN088AAXX  06004 82392 32496 30505 10242 20230 30010 40113 83030 333 10298 29093 55000 58000;
0201823920999992006050612004-03700-040350FM-12+008399999V0200901N000510042019N0200001N1+02431+02391101311ADDAA124004191AY101061AY221061GF108991081061004501999999KA1240N+02331MA1999999100281MD1999999+0141MW1611REMSYN088AAXX  06124 82392 21498 80901 10243 20239 30028 40131 76102 886// 333 20233 58014 60044;
0201823920999992006050618004-03700-040350FM-12+008399999V0209999C000019999999N0500001N1+02731+02451100911ADDAA106001091AY161061AY261061GF107991999021004501001001MA1999999099881MD1999999+0101MW1021REMSYN082AAXX  06184 82392 21499 70000 10273 20245 39988 40091 70266 83200 333 58010 60011;EQDQ01+000032SCOTLC
0168823920999992006050700004-03700-040350FM-12+008399999V0209999C000010450019N0040001N1+02391+02341101241ADDGF108991031061004501011999KA1240M+02761MA1999999100211MD1999999+0111REMSYN088AAXX  07004 82392 32496 80000 10239 20234 30021 40124 8361/ 333 10276 29093 55006 58011;
0173823920999992006050712004-03700-040350FM-12+008399999V0201801N000510450019N0500001N1+02621+02351101251ADDAA124000591GF106991041021004501031001KA1240N+02291MA1999999100221MD1999999-0061REMSYN082AAXX  07124 82392 22499 61801 10262 20235 30022 40125 84230 333 20229 59006 69964;
0182823920999992006050718004-03700-040350FM-12+008399999V0202301N000510042019N0500001N1+02501+02401100951ADDAA106013091AY161061AY261061GF108991051071004501021999MA1999999099921MD1999999+0041MW1021REMSYN082AAXX  07184 82392 21499 82301 10250 20240 39992 40095 70266 8572/ 333 58004 60131;
0213823920999992006050800004-03700-040350FM-12+008399999V0202301N001510450019N0040001N1+02341+02271101181ADDAA106019191AY161061AY261061GF108991041061004501021999KA1240M+03061MA1999999100151MD1999999-0061MW1531REMSYN100AAXX  08004 82392 21496 82303 10234 20227 30015 40118 75366 8462/ 333 10306 29093 55061 59006 60191;
