0168823970999992006033100004-03767-038600FM-12+002699999V0209999C000012200019N0020001N1+02621+02411101361ADDGF102991021011008001001001KA1240M+03111MA1999999100951MD1999999+0031REMSYN088AAXX  31004 82397 32595 20000 10262 20241 30095 40136 82100 333 10311 29083 55068 58003;
