0168825960999992006033100004-05650-035417FM-12+006199999V0200901N001012200019N0020001N1+02641+02331101271ADDGF101991011011008001001001KA1240M+03361MA1999999100551MD1999999-0021REMSYN088AAXX  31004 82596 32595 10902 10264 20233 30055 40127 81100 333 10336 29073 55096 59002;
