0213826780999992006010100004-06767-043017FM-12+012799999V0209999C000010075019N0002001N1+02561+02441101161ADDAA106000591AY161061AY221061GF108991081051008001999999KA1240M+03351MA1999999099581MD1999999-0031MW1031REMSYN100AAXX  01004 82678 21592 80000 10256 20244 39958 40116 70362 885// 333 10335 29081 55032 59003 69941;
0201826780999992006010112004-06767-043017FM-12+012799999V0200501N002610075019N0040001N1+02261+02181101531ADDAA124003091AY161061AY221061GF108991081051008001999999KA1240N+02281MA1999999099931MD1999999+0211MW1511REMSYN088AAXX  01124 82678 21596 80505 10226 20218 39993 40153 75162 885// 333 20228 58021 60034;
0192826780999992006010212004-06767-043017FM-12+012799999V0203201N001019999999N0040001N1+02781+02481101351ADDAA124000591GF108991999021008001001001KA1240N+02181MA1999999099771MD1999999-0161REMSYN082AAXX  02124 82678 22596 83202 10278 20248 39977 40135 84200 333 20218 59016 69944;EQDQ01+000042SCOTLC
0137826780999992006010218004-06767-043017FM-12+012799999V0200501N001512200019N0040001N1+03301+02451101011ADDGF103991031081008001081021MA1999999099451MD1999999+0041REMSYN070AAXX  02184 82678 32596 30503 10330 20245 39945 40101 83882 333 58004;
0168826780999992006010300004-06767-043017FM-12+012799999V0200901N001012200019N0002001N1+02801+02661101081ADDGF104991041041008001001001KA1240M+03371MA1999999099511MD1999999-0081REMSYN088AAXX  03004 82678 32592 40902 10280 20266 39951 40108 84400 333 10337 29082 55077 59008;
0156826780999992006010312004-06767-043017FM-12+012799999V0203601N000510120019N0040001N1+02801+02621101331ADDGF108991051081008001031011KA1240N+02451MA1999999099761MD1999999-0011REMSYN076AAXX  03124 82678 32596 83601 10280 20262 39976 40133 85831 333 20245 59001;
0137826780999992006010318004-06767-043017FM-12+012799999V0203601N001012200019N0040001N1+03401+02721100841ADDGF105991041021008001001011MA1999999099291MD1999999-0161REMSYN070AAXX  03184 82678 32596 53602 10340 20272 39929 40084 84201 333 59016;
0168826780999992006010400004-06767-043017FM-12+012799999V0200901N000512200019N0002001N1+02941+02641100891ADDGF102991011001017501041011KA1240M+03511MA1999999099331MD1999999-0181REMSYN088AAXX  04004 82678 32792 20901 10294 20264 39933 40089 81041 333 10351 29082 55091 59018;
0175826780999992006010412004-06767-043017FM-12+012799999V0200501N001519999999N0040001N1+02781+02421101191ADDGF105991999021008001001001KA1240N+02581MA1999999099631MD1999999-0131REMSYN076AAXX  04124 82678 32596 50503 10278 20242 39963 40119 83200 333 20258 59013;EQDQ01+000032SCOTLC
0137826780999992006010418004-06767-043017FM-12+012799999V0203601N001512200019N0040001N1+03421+02531100661ADDGF104991021011008001001011MA1999999099111MD1999999-0181REMSYN070AAXX  04184 82678 32596 43603 10342 20253 39911 40066 82101 333 59018;
0168826780999992006010500004-06767-043017FM-12+012799999V0202301N001512200019N0002001N1+02941+02581100861ADDGF102991021001017501031011KA1240M+02991MA1999999099301MD1999999-0031REMSYN088AAXX  05004 82678 32792 22303 10294 20258 39930 40086 82031 333 10299 29076 55087 59003;
0156826780999992006010512004-06767-043017FM-12+012799999V0200901N001010075019N0040001N1+02761+02441101201ADDGF108991061051008001001011KA1240N+02441MA1999999099641MD1999999+0011REMSYN076AAXX  05124 82678 32596 80902 10276 20244 39964 40120 86501 333 20244 58001;
0137826780999992006010518004-06767-043017FM-12+012799999V0203201N001510450019N0040001N1+03361+02451100671ADDGF108991041021008001011011MA1999999099121MD1999999+0011REMSYN070AAXX  05184 82678 32596 83203 10336 20245 39912 40067 84211 333 58001;
0201826780999992006010612004-06767-043017FM-12+012799999V0203601N001010075019N0040001N1+02521+02401101331ADDAA124002091AY161061AY211061GF108991081051008001001001KA1240N+02341MA1999999099751MD1999999+0111MW1021REMSYN088AAXX  06124 82678 21596 83602 10252 20240 39975 40133 70261 88500 333 20234 58011 60024;
0137826780999992006010618004-06767-043017FM-12+012799999V0203201N001510075019N0040001N1+03061+02501100991ADDGF108991081051008001999999MA1999999099421MD1999999+0301REMSYN070AAXX  06184 82678 32596 83203 10306 20250 39942 40099 885// 333 58030;
0168826780999992006010700004-06767-043017FM-12+012799999V0209999C000010075019N0002001N1+02661+02551101071ADDGF108991051021008001001011KA1240M+03191MA1999999099491MD1999999+0161REMSYN088AAXX  07004 82678 32592 80000 10266 20255 39949 40107 85201 333 10319 29089 55026 58016;
0156826780999992006010712004-06767-043017FM-12+012799999V0203601N001010075019N0040001N1+02661+02541101321ADDGF108991081051008001999999KA1240N+02321MA1999999099801MD1999999+0051REMSYN076AAXX  07124 82678 32596 83602 10266 20254 39980 40132 885// 333 20232 58005;
0182826780999992006010718004-06767-043017FM-12+012799999V0203201N001012200019N0040001N1+03141+02601100901ADDAA106010991AY161061AY221061GF104991021081008001031011MA1999999099341MD1999999-0081MW1621REMSYN082AAXX  07184 82678 21596 43202 10314 20260 39934 40090 76262 82831 333 59008 60111;
0178826780999992006010800004-06767-043017FM-12+012799999V0209999C000012200019N0002001N1+02781+02671101001ADDGA1001+999999999GF100991001001999999001001KA1240M+03251MA1999999099431MD1999999+0061REMSYN082AAXX  08004 82678 32792 00000 10278 20267 39943 40100 333 10325 29088 55055 58006;
0192826780999992006010812004-06767-043017FM-12+012799999V0209999C000010075019N0040001N1+02561+02511101401ADDAA124010991GF108991999021008001001001KA1240N+02261MA1999999099821MD1999999+0021REMSYN082AAXX  08124 82678 22596 80000 10256 20251 39982 40140 85200 333 20226 58002 60114;EQDQ01+000052SCOTLC
0182826780999992006010818004-06767-043017FM-12+012799999V0209999C000010450019N0040001N1+02921+02621100991ADDAA106006191AY161061AY221061GF108991041081008001031011MA1999999099421MD1999999+0001MW1021REMSYN082AAXX  08184 82678 21596 80000 10292 20262 39942 40099 70262 84831 333 58000 60061;
0168826780999992006010900004-06767-043017FM-12+012799999V0200501N000510075019N0040001N1+02681+02581101141ADDGF108991999021008001001001KA1240M+03041MA1999999099561MD1999999+0131REMSYN088AAXX  09004 82678 32596 80501 10268 20258 39956 40114 85200 333 10304 29091 55013 58013;
0201826780999992006010912004-06767-043017FM-12+012799999V0202701N001510075019N0040001N1+02561+02441101441ADDAA124007991AY161061AY221061GF108991061051008001021001KA1240N+02301MA1999999099851MD1999999+0031MW1291REMSYN088AAXX  09124 82678 21596 82703 10256 20244 39985 40144 72962 86520 333 20230 58003 60084;
0182826780999992006010918004-06767-043017FM-12+012799999V0203201N001510075019N0040001N1+02761+02481101051ADDAA106000591AY161061AY291061GF108991051051008001031001MA1999999099471MD1999999+0051MW1021REMSYN082AAXX  09184 82678 21596 83203 10276 20248 39947 40105 70269 85530 333 58005 69961;
0168826780999992006011000004-06767-043017FM-12+012799999V0202701N000510075019N0002001N1+02601+02511101181ADDGF108991081051008001999999KA1240M+02881MA1999999099601MD1999999+0041REMSYN088AAXX  10004 82678 32592 82701 10260 20251 39960 40118 885// 333 10288 29092 55007 58004;
0173826780999992006011012004-06767-043017FM-12+012799999V0202301N001510075019N0040001N1+02631+02391101571ADDAA124000591GF108991061051008001011001KA1240N+02301MA1999999099981MD1999999+0131REMSYN082AAXX  10124 82678 22596 82303 10263 20239 39998 40157 86510 333 20230 58013 69964;
0168826780999992006011100004-06767-043017FM-12+012799999V0200501N001010150019N0002001N1+02641+02541101351ADDGF108991051001017501021021KA1240M+03151MA1999999099771MD1999999+0171REMSYN088AAXX  11004 82678 32792 80502 10264 20254 39977 40135 85022 333 10315 29087 55051 58017;
0175826780999992006011112004-06767-043017FM-12+012799999V0200901N005119999999N0040001N1+02861+02061101411ADDGF105991999021008001001001KA1240N+02341MA1999999099841MD1999999-0141REMSYN076AAXX  11124 82678 32596 50910 10286 20206 39984 40141 83200 333 20234 59014;EQDQ01+000032SCOTLC
0137826780999992006011118004-06767-043017FM-12+012799999V0201401N003112200019N0040001N1+03341+02121101011ADDGF104991021021008001001011MA1999999099451MD1999999-0131REMSYN070AAXX  11184 82678 32596 41406 10334 20212 39945 40101 82201 333 59013;
0156826780999992006011218004-06767-043017FM-12+012799999V0200901N003112200019N0040001N1+03441+01921101061ADDGF102991999021017501001001MA1999999099501MD1999999+0051REMSYN070AAXX  12184 82678 32796 20906 10344 20192 39950 40106 83200 333 58005;EQDQ01+000032SCOTLC
0178826780999992006011300004-06767-043017FM-12+012799999V0209999C000012200019N0002001N1+02841+02581101141ADDGA1001+999999999GF100991001001999999001001KA1240M+03521MA1999999099581MD1999999+0051REMSYN082AAXX  13004 82678 32992 00000 10284 20258 39958 40114 333 10352 29066 55112 58005;
0166826780999992006011312004-06767-043017FM-12+012799999V0200901N004112200019N0040001N1+02961+02021101401ADDGA1001+999999999GF100991001001999999001001KA1240N+02321MA1999999099841MD1999999-0061REMSYN070AAXX  13124 82678 32996 00908 10296 20202 39984 40140 333 20232 59006;
0137826780999992006011318004-06767-043017FM-12+012799999V0200901N001512200019N0040001N1+03521+02351100901ADDGF104991021021008001001011MA1999999099531MD1999999+0031REMSYN070AAXX  13184 82678 32596 40903 10352 20235 39953 40090 82201 333 58003;
0168826780999992006011400004-06767-043017FM-12+012799999V0200901N000512200019N0002001N1+02941+02701101131ADDGF103991031021017501001001KA1240M+03621MA1999999099601MD1999999+0021REMSYN088AAXX  14004 82678 32792 30901 10294 20270 39960 40113 83200 333 10362 29070 55106 58002;
0156826780999992006011412004-06767-043017FM-12+012799999V0200901N004619999999N0040001N1+02971+01811101301ADDGF106991001001999999001011KA1240N+02401MA1999999099741MD1999999-0101REMSYN076AAXX  14124 82678 32996 60909 10297 20181 39974 40130 80001 333 20240 59010;
0137826780999992006011418004-06767-043017FM-12+012799999V0201401N002612200019N0040001N1+03641+02251100951ADDGF106991041021008001001011MA1999999099401MD1999999-0131REMSYN070AAXX  14184 82678 32596 61405 10364 20225 39940 40095 84201 333 59013;
0168826780999992006011500004-06767-043017FM-12+012799999V0200901N000510450019N0002001N1+03041+02681101111ADDGF106991021011008001031011KA1240M+03681MA1999999099561MD1999999-0041REMSYN088AAXX  15004 82678 32592 60901 10304 20268 39956 40111 82131 333 10368 29064 55110 59004;
0156826780999992006011512004-06767-043017FM-12+012799999V0200901N002612200019N0040001N1+02941+02081101371ADDGF103991011011008001001021KA1240N+02621MA1999999099811MD1999999+0071REMSYN076AAXX  15124 82678 32596 30905 10294 20208 39981 40137 81102 333 20262 58007;
0137826780999992006011518004-06767-043017FM-12+012799999V0200901N001011050019N0040001N1+03521+02151100951ADDGF105991031011008001001021MA1999999099401MD1999999+0001REMSYN070AAXX  15184 82678 32596 50902 10352 20215 39940 40095 83102 333 58000;
0178826780999992006011600004-06767-043017FM-12+012799999V0209999C000012200019N0002001N1+02981+02701101031ADDGA1001+999999999GF100991001001999999001001KA1240M+03631MA1999999099471MD1999999-0091REMSYN082AAXX  16004 82678 32992 00000 10298 20270 39947 40103 333 10363 29069 55114 59009;
0156826780999992006011612004-06767-043017FM-12+012799999V0200901N002112200019N0040001N1+03001+01921101351ADDGF103991021011008001001011KA1240N+02241MA1999999099791MD1999999-0021REMSYN076AAXX  16124 82678 32596 30904 10300 20192 39979 40135 82101 333 20224 59002;
0178826780999992006011700004-06767-043017FM-12+012799999V0209999C000012200019N0002001N1+02941+02741100991ADDGA1001+999999999GF100991001001999999001001KA1240M+03641MA1999999099441MD1999999-0031REMSYN082AAXX  17004 82678 32592 00000 10294 20274 39944 40099 333 10364 29069 55105 59003;
0175826780999992006011712004-06767-043017FM-12+012799999V0200901N004619999999N0040001N1+03101+01841101321ADDGF108991999021017501001001KA1240N+02321MA1999999099761MD1999999-0031REMSYN076AAXX  17124 82678 32796 80909 10310 20184 39976 40132 83200 333 20232 59003;EQDQ01+000032SCOTLC
0156826780999992006011718004-06767-043017FM-12+012799999V0200901N002119999999N0040001N1+03481+02151100991ADDGF108991999021008001001001MA1999999099441MD1999999+0081REMSYN070AAXX  17184 82678 32596 80904 10348 20215 39944 40099 83200 333 58008;EQDQ01+000032SCOTLC
0178826780999992006011800004-06767-043017FM-12+012799999V0209999C000012200019N0002001N1+02911+02701101061ADDGA1001+999999999GF100991001001999999001001KA1240M+03611MA1999999099511MD1999999+0071REMSYN082AAXX  18004 82678 32992 00000 10291 20270 39951 40106 333 10361 29067 55069 58007;
0156826780999992006011812004-06767-043017FM-12+012799999V0200501N001010120019N0040001N1+02781+02461101421ADDGF108991061081008001001011KA1240N+02471MA1999999099851MD1999999+0091REMSYN076AAXX  18124 82678 32596 80502 10278 20246 39985 40142 86801 333 20247 58009;
0213826780999992006011900004-06767-043017FM-12+012799999V0200901N000510075019N0002001N1+02681+02611101081ADDAA106002091AY161061AY221061GF108991061051008001011999KA1240M+03431MA1999999099511MD1999999+0001MW1021REMSYN100AAXX  19004 82678 21592 80901 10268 20261 39951 40108 70262 8651/ 333 10343 29086 55049 58000 60021;
0173826780999992006011912004-06767-043017FM-12+012799999V0201801N001010075019N0040001N1+02601+02501101291ADDAA124002091GF108991081051008001999999KA1240N+02451MA1999999099711MD1999999-0141REMSYN082AAXX  19124 82678 22596 81802 10260 20250 39971 40129 885// 333 20245 59014 60024;
0137826780999992006011918004-06767-043017FM-12+012799999V0200501N001010075019N0040001N1+03261+02621100851ADDGF108991071051008001031001MA1999999099291MD1999999-0051REMSYN070AAXX  19184 82678 32596 80502 10326 20262 39929 40085 87530 333 59005;
0178826780999992006012000004-06767-043017FM-12+012799999V0209999C000012200019N0002001N1+02681+02611100931ADDGA1001+999999999GF100991001001999999001001KA1240M+03391MA1999999099361MD1999999-0151REMSYN082AAXX  20004 82678 32992 00000 10268 20261 39936 40093 333 10339 29089 55051 59015;
0156826780999992006012012004-06767-043017FM-12+012799999V0200901N002110450019N0040001N1+02821+02151101321ADDGF108991031021008001011001KA1240N+02401MA1999999099751MD1999999+0041REMSYN076AAXX  20124 82678 32596 80904 10282 20215 39975 40132 83210 333 20240 58004;
0137826780999992006012018004-06767-043017FM-12+012799999V0203201N003110450019N0040001N1+03221+02141100841ADDGF108991021041008001021021MA1999999099291MD1999999+0001REMSYN070AAXX  20184 82678 32596 83206 10322 20214 39929 40084 82422 333 58000;
0178826780999992006012100004-06767-043017FM-12+012799999V0203601N000512200019N0002001N1+02721+02521101011ADDGA1001+999999999GF100991001001999999001001KA1240M+03461MA1999999099441MD1999999+0081REMSYN082AAXX  21004 82678 32992 03601 10272 20252 39944 40101 333 10346 29074 55027 58008;
0156826780999992006012112004-06767-043017FM-12+012799999V0202301N001010450019N0040001N1+02701+02501101351ADDGF108991021041008001021011KA1240N+02241MA1999999099771MD1999999+0021REMSYN076AAXX  21124 82678 32596 82302 10270 20250 39977 40135 82421 333 20224 58002;
0137826780999992006012118004-06767-043017FM-12+012799999V0200501N001510450019N0040001N1+03271+02491100971ADDGF108991011041008001021021MA1999999099401MD1999999+0111REMSYN070AAXX  21184 82678 32596 80503 10327 20249 39940 40097 81422 333 58011;
0178826780999992006012200004-06767-043017FM-12+012799999V0209999C000012200019N0002001N1+02761+02621101071ADDGA1001+999999999GF100991001001999999001001KA1240M+03361MA1999999099501MD1999999+0061REMSYN082AAXX  22004 82678 32992 00000 10276 20262 39950 40107 333 10336 29084 55017 58006;
0156826780999992006012212004-06767-043017FM-12+012799999V0200901N003612200019N0040001N1+03041+02061101291ADDGF106991041021008001001011KA1240N+02381MA1999999099731MD1999999-0041REMSYN076AAXX  22124 82678 32596 60907 10304 20206 39973 40129 84201 333 20238 59004;
0156826780999992006012218004-06767-043017FM-12+012799999V0200501N002119999999N0040001N1+03571+02581100881ADDGF105991999021008001001001MA1999999099331MD1999999-0071REMSYN070AAXX  22184 82678 32596 50504 10357 20258 39933 40088 84200 333 59007;EQDQ01+000042SCOTLC
0178826780999992006012300004-06767-043017FM-12+012799999V0209999C000012200019N0002001N1+02971+02681101041ADDGA1001+999999999GF100991001001999999001001KA1240M+03671MA1999999099491MD1999999-0011REMSYN082AAXX  23004 82678 32992 00000 10297 20268 39949 40104 333 10367 29071 55107 59001;
0156826780999992006012312004-06767-043017FM-12+012799999V0200901N001012200019N0040001N1+02941+02561101311ADDGF104991021021008001001011KA1240N+02441MA1999999099751MD1999999+0021REMSYN076AAXX  23124 82678 32596 40902 10294 20256 39975 40131 82201 333 20244 58002;
0137826780999992006012318004-06767-043017FM-12+012799999V0209999C000011050019N0040001N1+03301+02651100901ADDGF105991031021008001001021MA1999999099341MD1999999+0011REMSYN070AAXX  23184 82678 32596 50000 10330 20265 39934 40090 83202 333 58001;
0178826780999992006012400004-06767-043017FM-12+012799999V0209999C000012200019N0002001N1+02941+02681100991ADDGA1001+999999999GF100991001001999999001001KA1240M+03451MA1999999099441MD1999999-0051REMSYN082AAXX  24004 82678 32792 00000 10294 20268 39944 40099 333 10345 29083 55053 59005;
0175826780999992006012412004-06767-043017FM-12+012799999V0209999C000019999999N0040001N1+02821+02601101291ADDGF105991999021008001001001KA1240N+02241MA1999999099731MD1999999-0021REMSYN076AAXX  24124 82678 32596 50000 10282 20260 39973 40129 83200 333 20224 59002;EQDQ01+000032SCOTLC
0137826780999992006012418004-06767-043017FM-12+012799999V0203601N001511050019N0040001N1+03621+02661100781ADDGF105991021021008001001021MA1999999099241MD1999999-0101REMSYN070AAXX  24184 82678 32596 53603 10362 20266 39924 40078 82202 333 59010;
0213826780999992006012500004-06767-043017FM-12+012799999V0209999C000010075019N0002001N1+03001+02781100981ADDAA106001091AY161061AY221061GF108991051051008001021999KA1240M+03761MA1999999099421MD1999999-0021MW1021REMSYN100AAXX  25004 82678 21592 80000 10300 20278 39942 40098 70262 8552/ 333 10376 29080 55072 59002 60011;
0173826780999992006012512004-06767-043017FM-12+012799999V0200501N000519999999N0040001N1+03011+02491101371ADDAA124000891GF106991001001999999001011KA1240N+02421MA1999999099811MD1999999+0081REMSYN082AAXX  25124 82678 22996 60501 10301 20249 39981 40137 80001 333 20242 58008 69984;
0137826780999992006012518004-06767-043017FM-12+012799999V0200501N003110075019N0040001N1+03821+02341100941ADDGF105991051021008001001001MA1999999099401MD1999999+0161REMSYN070AAXX  25184 82678 32596 50506 10382 20234 39940 40094 85200 333 58016;
0168826780999992006012600004-06767-043017FM-12+012799999V0200901N001012200019N0002001N1+03121+02731101131ADDGF101991001001999999001021KA1240M+03911MA1999999099581MD1999999+0161REMSYN088AAXX  26004 82678 32992 10902 10312 20273 39958 40113 80002 333 10391 29071 55102 58016;
0156826780999992006012612004-06767-043017FM-12+012799999V0200501N001019999999N0040001N1+02981+02471101421ADDGF108991001001999999001011KA1240N+02301MA1999999099861MD1999999+0051REMSYN076AAXX  26124 82678 32996 80502 10298 20247 39986 40142 80001 333 20230 58005;
0156826780999992006012618004-06767-043017FM-12+012799999V0201401N003112200019N0040001N1+03821+02721100901ADDGF104991999021008001001001MA1999999099361MD1999999-0011REMSYN070AAXX  26184 82678 32596 41406 10382 20272 39936 40090 83200 333 59001;EQDQ01+000032SCOTLC
0168826780999992006012700004-06767-043017FM-12+012799999V0200901N000512200019N0002001N1+03111+02801101011ADDGF101991011001017501011001KA1240M+03981MA1999999099461MD1999999-0121REMSYN088AAXX  27004 82678 32792 10901 10311 20280 39946 40101 81010 333 10398 29074 55109 59012;
0175826780999992006012712004-06767-043017FM-12+012799999V0200501N001012200019N0040001N1+03021+02571101451ADDGF104991999021008001001001KA1240N+02921MA1999999099891MD1999999+0031REMSYN076AAXX  27124 82678 32596 40502 10302 20257 39989 40145 83200 333 20292 58003;EQDQ01+000032SCOTLC
0137826780999992006012718004-06767-043017FM-12+012799999V0202301N001010075019N0040001N1+03681+02601100941ADDGF108991051021008001001021MA1999999099401MD1999999+0041REMSYN070AAXX  27184 82678 32596 82302 10368 20260 39940 40094 85202 333 58004;
0178826780999992006012800004-06767-043017FM-12+012799999V0209999C000012200019N0002001N1+03161+02881101111ADDGA1001+999999999GF100991001001999999001001KA1240M+03721MA1999999099561MD1999999+0101REMSYN082AAXX  28004 82678 32992 00000 10316 20288 39956 40111 333 10372 29075 55057 58010;
0156826780999992006012812004-06767-043017FM-12+012799999V0202701N001510075019N0040001N1+02961+02471101481ADDGF108991051051008001051021KA1240N+02681MA1999999099921MD1999999+0031REMSYN076AAXX  28124 82678 32596 82703 10296 20247 39992 40148 85552 333 20268 58003;
0137826780999992006012818004-06767-043017FM-12+012799999V0201401N002610075019N0040001N1+03461+02571101041ADDGF108991061021008001001011MA1999999099511MD1999999+0111REMSYN070AAXX  28184 82678 32596 81405 10346 20257 39951 40104 86201 333 58011;
0178826780999992006012900004-06767-043017FM-12+012799999V0202701N001012200019N0002001N1+03001+02701101091ADDGA1001+999999999GF100991001001999999001001KA1240M+03541MA1999999099541MD1999999-0021REMSYN082AAXX  29004 82678 32992 02702 10300 20270 39954 40109 333 10354 29076 55041 59002;
0137826780999992006012918004-06767-043017FM-12+012799999V0200501N002110450019N0040001N1+03321+02621101051ADDGF108991031051008001021011MA1999999099501MD1999999-0011REMSYN070AAXX  29184 82678 32596 80504 10332 20262 39950 40105 83521 333 59001;
0178826780999992006013000004-06767-043017FM-12+012799999V0209999C000012200019N0002001N1+02831+02701101041ADDGA1001+999999999GF100991001001999999001001KA1240M+03361MA1999999099471MD1999999-0071REMSYN082AAXX  30004 82678 32992 00000 10283 20270 39947 40104 333 10336 29085 55048 59007;
0156826780999992006013012004-06767-043017FM-12+012799999V0200901N001010075019N0040001N1+02801+02601101301ADDGF108991999021008001001001KA1240N+02461MA1999999099801MD1999999-0071REMSYN076AAXX  30124 82678 32596 80902 10280 20260 39980 40130 85200 333 20246 59007;
0182826780999992006013018004-06767-043017FM-12+012799999V0201401N000510450019N0040001N1+02711+02351101131ADDAA106006191AY161061AY221061GF108991041051008001021011MA1999999099541MD1999999+0041MW1021REMSYN082AAXX  30184 82678 21596 81401 10271 20235 39954 40113 70262 84521 333 58004 60061;
0178826780999992006013100004-06767-043017FM-12+012799999V0201801N000512200019N0002001N1+02471+02411101071ADDGA1001+999999999GF100991001001999999001001KA1240M+03051MA1999999099491MD1999999+0021REMSYN082AAXX  31004 82678 32992 01801 10247 20241 39949 40107 333 10305 29095 55010 58002;
0201826780999992006013112004-06767-043017FM-12+012799999V0201401N002110075019N0040001N1+02421+02331101471ADDAA124007191AY161061AY211061GF108991081051008001999999KA1240N+02321MA1999999099871MD1999999+0071MW1021REMSYN088AAXX  31124 82678 21596 81404 10242 20233 39987 40147 70261 885// 333 20232 58007 60074;
0182826780999992006013118004-06767-043017FM-12+012799999V0203201N001010450019N0040001N1+02781+02601101031ADDAA106017091AY121061AY261061GF106991031041008001031011MA1999999099451MD1999999-0091MW1021REMSYN082AAXX  31184 82678 21596 63202 10278 20260 39945 40103 70226 83431 333 59009 60171;
0168826780999992006020100004-06767-043017FM-12+012799999V0200501N000512200019N0002001N1+02641+02551101041ADDGF101991001001999999001011KA1240M+03071MA1999999099461MD1999999-0031REMSYN088AAXX  01004 82678 32992 10501 10264 20255 39946 40104 80001 333 10307 29094 55022 59003;
0201826780999992006020112004-06767-043017FM-12+012799999V0209999C000010075019N0040001N1+02561+02511101371ADDAA124017091AY161061AY211061GF108991081051008001999999KA1240N+02241MA1999999099791MD1999999-0081MW1021REMSYN088AAXX  01124 82678 21596 80000 10256 20251 39979 40137 70261 885// 333 20224 59008 60174;
0182826780999992006020118004-06767-043017FM-12+012799999V0202301N001010075019N0040001N1+02311+02251101161ADDAA106042991AY161061AY261061GF108991051051008001021011MA1999999099561MD1999999+0111MW1501REMSYN082AAXX  01184 82678 21596 82302 10231 20225 39956 40116 75066 85521 333 58011 60431;
0185826780999992006020200004-06767-043017FM-12+012799999V0200901N000512200019N0002001N1+02331+02271101171ADDAA106000021GF104991041051008001001001KA1240M+02631MA1999999099581MD1999999-0121REMSYN094AAXX  02004 82678 22592 40901 10233 20227 39958 40117 84500 333 10263 29097 55000 59012 69921;
0173826780999992006020212004-06767-043017FM-12+012799999V0201401N001010075019N0040001N1+02451+02351101431ADDAA124042991GF108991061051008001021999KA1240N+02211MA1999999099831MD1999999+0041REMSYN082AAXX  02124 82678 22596 81402 10245 20235 39983 40143 8652/ 333 20221 58004 60434;
0137826780999992006020218004-06767-043017FM-12+012799999V0202301N001510075019N0040001N1+02721+02581101191ADDGF108991081051008001999999MA1999999099831MD1999999+0041REMSYN070AAXX  02184 82678 32596 82303 10272 20258 39983 40119 885// 333 58004;
0213826780999992006020300004-06767-043017FM-12+012799999V0209999C000012200019N0002001N1+02461+02431101231ADDAA106004191AY161061AY211061GF103991031051008001001001KA1240M+02891MA1999999099641MD1999999+0061MW1011REMSYN100AAXX  03004 82678 21592 30000 10246 20243 39964 40123 70161 83500 333 10289 29096 55008 58006 60041;
0173826780999992006020312004-06767-043017FM-12+012799999V0209999C000010450019N0040001N1+02501+02451101311ADDAA124004191GF108991041051008001021999KA1240N+02401MA1999999099721MD1999999-0111REMSYN082AAXX  03124 82678 22596 80000 10250 20245 39972 40131 8452/ 333 20240 59011 60044;
0137826780999992006020318004-06767-043017FM-12+012799999V0200501N001010450019N0040001N1+03261+02781100851ADDGF108991031051008001031011MA1999999099291MD1999999-0311REMSYN070AAXX  03184 82678 32596 80502 10326 20278 39929 40085 83531 333 59031;
0168826780999992006020400004-06767-043017FM-12+012799999V0200901N001010075019N0002001N1+02761+02481101091ADDGF108991071051008001031999KA1240M+03391MA1999999099511MD1999999-0131REMSYN088AAXX  04004 82678 32592 80902 10276 20248 39951 40109 8753/ 333 10339 29086 55055 59013;
0182826780999992006020418004-06767-043017FM-12+012799999V0202701N001510075019N0040001N1+02781+02481100941ADDAA106002091AY161061AY211061GF108991051051008001031999MA1999999099361MD1999999+0071MW1021REMSYN082AAXX  04184 82678 21596 82703 10278 20248 39936 40094 70261 8553/ 333 58007 60021;
0168826780999992006020500004-06767-043017FM-12+012799999V0209999C000010450019N0040001N1+02641+02501101061ADDGF108991041051008001021999KA1240M+03031MA1999999099481MD1999999-0041REMSYN088AAXX  05004 82678 32596 80000 10264 20250 39948 40106 8452/ 333 10303 29090 55011 59004;
0173826780999992006020512004-06767-043017FM-12+012799999V0209999C000010075019N0040001N1+02621+02551101361ADDAA124002091GF108991051051008001021999KA1240N+02441MA1999999099771MD1999999+0031REMSYN082AAXX  05124 82678 22596 80000 10262 20255 39977 40136 8552/ 333 20244 58003 60024;
0182826780999992006020518004-06767-043017FM-12+012799999V0209999C000019999999N0040001N1+02721+02601101051ADDAA106002091AY161061AY211061GF108991041001008001031011MA1999999099471MD1999999+0111MW1021REMSYN082AAXX  05184 82678 21596 80000 10272 20260 39947 40105 70261 84031 333 58011 60021;
0168826780999992006020600004-06767-043017FM-12+012799999V0209999C000012200019N0002001N1+02581+02491101131ADDGF108991031051008001001011KA1240M+03031MA1999999099551MD1999999+0071REMSYN088AAXX  06004 82678 32592 80000 10258 20249 39955 40113 83501 333 10303 29096 55009 58007;
0173826780999992006020612004-06767-043017FM-12+012799999V0203201N001510075019N0040001N1+02581+02291101361ADDAA124002091GF108991051051008001021999KA1240N+02441MA1999999099781MD1999999+0011REMSYN082AAXX  06124 82678 22596 83203 10258 20229 39978 40136 8552/ 333 20244 58001 60024;
0182826780999992006020618004-06767-043017FM-12+012799999V0201401N000510075019N0040001N1+02341+02261101231ADDAA106009991AY161061AY211061GF108991081051008001999999MA1999999099641MD1999999+0171MW1611REMSYN082AAXX  06184 82678 21596 81401 10234 20226 39964 40123 76161 885// 333 58017 60101;
0213826780999992006020700004-06767-043017FM-12+012799999V0202301N000510075019N0002001N1+02321+02291101341ADDAA106000391AY161061AY221061GF108991081051008001999999KA1240M+02651MA1999999099751MD1999999+0201MW1031REMSYN100AAXX  07004 82678 21592 82301 10232 20229 39975 40134 70362 885// 333 10265 29094 55000 58020 69931;
0201826780999992006020712004-06767-043017FM-12+012799999V0200901N000510075019N0040001N1+02361+02311101541ADDAA124010991AY161061AY221061GF108991061051008001021999KA1240N+02281MA1999999099941MD1999999+0161MW1611REMSYN088AAXX  07124 82678 21596 80901 10236 20231 39994 40154 76162 8652/ 333 20228 58016 60114;
0168826780999992006020800004-06767-043017FM-12+012799999V0203601N001010075019N0002001N1+02601+02351101291ADDGF107991051051008001031011KA1240M+03251MA1999999099701MD1999999-0051REMSYN088AAXX  08004 82678 32592 73602 10260 20235 39970 40129 85531 333 10325 29087 55048 59005;
0173826780999992006020812004-06767-043017FM-12+012799999V0209999C000012200019N0040001N1+02701+02411101441ADDAA124004191GF101991011001017501031001KA1240N+02301MA1999999099861MD1999999-0081REMSYN082AAXX  08124 82678 22796 10000 10270 20241 39986 40144 81030 333 20230 59008 60044;
0137826780999992006020818004-06767-043017FM-12+012799999V0200901N001010075019N0040001N1+03401+02571101111ADDGF105991051021008001001001MA1999999099551MD1999999+0001REMSYN070AAXX  08184 82678 32596 50902 10340 20257 39955 40111 85200 333 58000;
0168826780999992006020900004-06767-043017FM-12+012799999V0209999C000012200019N0002001N1+02801+02521101131ADDGF103991001001999999001011KA1240M+03471MA1999999099561MD1999999-0141REMSYN088AAXX  09004 82678 32992 30000 10280 20252 39956 40113 80001 333 10347 29079 55108 59014;
0156826780999992006020912004-06767-043017FM-12+012799999V0209999C000010450019N0040001N1+02841+02581101551ADDGF108991041021008001031011KA1240N+02341MA1999999099981MD1999999+0121REMSYN076AAXX  09124 82678 32596 80000 10284 20258 39998 40155 84231 333 20234 58012;
0137826780999992006020918004-06767-043017FM-12+012799999V0203601N001012200019N0040001N1+03281+02591101211ADDGF105991031021008001001011MA1999999099651MD1999999+0101REMSYN070AAXX  09184 82678 32596 53602 10328 20259 39965 40121 83201 333 58010;
0187826780999992006021000004-06767-043017FM-12+012799999V0209999C000012200019N0002001N1+02841+02641101241ADDGF103991999001017501031001KA1240M+03361MA1999999099671MD1999999+0111REMSYN088AAXX  10004 82678 32792 30000 10284 20264 39967 40124 81030 333 10336 29083 55062 58011;EQDQ01+000012SCOTLC
0156826780999992006021012004-06767-043017FM-12+012799999V0209999C000010075019N0040001N1+02601+02511101631ADDGF108991081051008001999999KA1240N+02501MA1999999100051MD1999999+0071REMSYN076AAXX  10124 82678 32596 80000 10260 20251 30005 40163 885// 333 20250 58007;
0137826780999992006021018004-06767-043017FM-12+012799999V0200501N001010075019N0040001N1+02821+02701101371ADDGF108991051051008001031011MA1999999099791MD1999999+0141REMSYN070AAXX  10184 82678 32596 80502 10282 20270 39979 40137 85531 333 58014;
0178826780999992006021100004-06767-043017FM-12+012799999V0209999C000012200019N0002001N1+02641+02541101501ADDGA1001+999999999GF100991001001999999001001KA1240M+03071MA1999999099911MD1999999+0241REMSYN082AAXX  11004 82678 32992 00000 10264 20254 39991 40150 333 10307 29094 55028 58024;
0156826780999992006021112004-06767-043017FM-12+012799999V0209999C000010075019N0040001N1+02661+02391101631ADDGF108991071051008001031999KA1240N+02421MA1999999100051MD1999999+0001REMSYN076AAXX  11124 82678 32596 80000 10266 20239 30005 40163 8753/ 333 20242 58000;
0182826780999992006021118004-06767-043017FM-12+012799999V0209999C000010450019N0040001N1+02961+02721101221ADDAA106000591AY161061AY221061GF105991041051008001031001MA1999999099651MD1999999-0141MW1911REMSYN082AAXX  11184 82678 21596 50000 10296 20272 39965 40122 79162 84530 333 59014 69941;
0168826780999992006021200004-06767-043017FM-12+012799999V0209999C000019999999N0002001N1+02801+02711101311ADDGF108991001001999999001021KA1240M+03351MA1999999099741MD1999999-0171REMSYN088AAXX  12004 82678 32992 80000 10280 20271 39974 40131 80002 333 10335 29090 55067 59017;
0201826780999992006021212004-06767-043017FM-12+012799999V0200901N000510075019N0040001N1+02561+02361101601ADDAA124002091AY161061AY221061GF108991051051008001031021KA1240N+02281MA1999999100021MD1999999-0031MW1031REMSYN088AAXX  12124 82678 21596 80901 10256 20236 30002 40160 70362 85532 333 20228 59003 60024;
0137826780999992006021218004-06767-043017FM-12+012799999V0200901N000510450019N0040001N1+03021+02571101211ADDGF107991031051008001031021MA1999999099641MD1999999-0011REMSYN070AAXX  12184 82678 32596 70901 10302 20257 39964 40121 83532 333 59001;
0168826780999992006021300004-06767-043017FM-12+012799999V0201801N001010150019N0002001N1+02661+02461101361ADDGF107991051001017501031021KA1240M+03121MA1999999099811MD1999999+0071REMSYN088AAXX  13004 82678 32792 71802 10266 20246 39981 40136 85032 333 10312 29086 55033 58007;
0201826780999992006021312004-06767-043017FM-12+012799999V0200501N001510450019N0040001N1+02721+02451101581ADDAA124000891AY161061AY221061GF105991041051008001031011KA1240N+02311MA1999999100001MD1999999-0021MW1031REMSYN088AAXX  13124 82678 21596 50503 10272 20245 30000 40158 70362 84531 333 20231 59002 69984;
0182826780999992006021318004-06767-043017FM-12+012799999V0209999C000010075019N0040001N1+02901+02661101211ADDAA106036191AY161061AY221061GF108991051051008001031021MA1999999099631MD1999999-0011MW1021REMSYN082AAXX  13184 82678 21596 80000 10290 20266 39963 40121 70262 85532 333 59001 60361;
0168826780999992006021400004-06767-043017FM-12+012799999V0209999C000019999999N0040001N1+02401+02351101381ADDGF108991051001008001031021KA1240M+03041MA1999999099791MD1999999-0021REMSYN088AAXX  14004 82678 32596 80000 10240 20235 39979 40138 85032 333 10304 29092 55032 59002;
0173826780999992006021412004-06767-043017FM-12+012799999V0200501N001010075019N0040001N1+02461+02341101681ADDAA124036191GF108991081051008001999999KA1240N+02301MA1999999100081MD1999999+0081REMSYN082AAXX  14124 82678 22596 80502 10246 20234 30008 40168 885// 333 20230 58008 60364;
0182826780999992006021418004-06767-043017FM-12+012799999V0201401N001010075019N0040001N1+02541+02451101341ADDAA106023991AY161061AY221061GF108991081051008001999999MA1999999099741MD1999999+0111MW1611REMSYN082AAXX  14184 82678 21596 81402 10254 20245 39974 40134 76162 885// 333 58011 60241;
0168826780999992006021500004-06767-043017FM-12+012799999V0209999C000010075019N0040001N1+02381+02331101521ADDGF108991081051008001999999KA1240M+02651MA1999999099921MD1999999+0131REMSYN088AAXX  15004 82678 32596 80000 10238 20233 39992 40152 885// 333 10265 29096 55000 58013;
0173826780999992006021512004-06767-043017FM-12+012799999V0200901N000512200019N0040001N1+02541+02351101561ADDAA124023991GF104991031011008001001011KA1240N+02141MA1999999099961MD1999999-0121REMSYN082AAXX  15124 82678 22596 40901 10254 20235 39996 40156 83101 333 20214 59012 60244;
0137826780999992006021518004-06767-043017FM-12+012799999V0209999C000012200019N0040001N1+03181+02611101221ADDGF106991041021008001001011MA1999999099651MD1999999-0091REMSYN070AAXX  15184 82678 32596 60000 10318 20261 39965 40122 84201 333 59009;
0168826780999992006021600004-06767-043017FM-12+012799999V0209999C000012200019N0002001N1+02701+02591101231ADDGF104991031051008001031001KA1240M+03291MA1999999099651MD1999999-0271REMSYN088AAXX  16004 82678 32592 40000 10270 20259 39965 40123 83530 333 10329 29087 55102 59027;
0156826780999992006021612004-06767-043017FM-12+012799999V0200901N001010450019N0040001N1+02661+02481101481ADDGF107991041051008001071011KA1240N+02341MA1999999099901MD1999999-0061REMSYN076AAXX  16124 82678 32596 70902 10266 20248 39990 40148 84571 333 20234 59006;
0182826780999992006021618004-06767-043017FM-12+012799999V0201801N000510450019N0040001N1+03001+02701101161ADDAA106000591AY161061AY221061GF107991041051008001031001MA1999999099591MD1999999-0061MW1021REMSYN082AAXX  16184 82678 21596 71801 10300 20270 39959 40116 70262 84530 333 59006 69951;
0178826780999992006021700004-06767-043017FM-12+012799999V0209999C000012200019N0002001N1+02621+02531101201ADDGA1001+999999999GF100991001001999999001001KA1240M+03121MA1999999099621MD1999999-0031REMSYN082AAXX  17004 82678 32992 00000 10262 20253 39962 40120 333 10312 29091 55057 59003;
0173826780999992006021712004-06767-043017FM-12+012799999V0203601N001510075019N0040001N1+02661+02481101461ADDAA124000591GF108991051051008001001021KA1240N+02291MA1999999099881MD1999999-0021REMSYN082AAXX  17124 82678 22596 83603 10266 20248 39988 40146 85502 333 20229 59002 69954;
0137826780999992006021718004-06767-043017FM-12+012799999V0200901N001012200019N0040001N1+03161+02551101121ADDGF104991031021008001001011MA1999999099551MD1999999-0041REMSYN070AAXX  17184 82678 32596 40902 10316 20255 39955 40112 83201 333 59004;
0168826780999992006021800004-06767-043017FM-12+012799999V0209999C000010075019N0002001N1+02561+02511101291ADDGF108991051051008001031011KA1240M+03311MA1999999099711MD1999999+0091REMSYN088AAXX  18004 82678 32592 80000 10256 20251 39971 40129 85531 333 10331 29088 55092 58009;
0201826780999992006021812004-06767-043017FM-12+012799999V0209999C000011050019N0040001N1+02521+02381101541ADDAA124003091AY161061AY211061GF105991031051008001001021KA1240N+02261MA1999999099951MD1999999+0071MW1031REMSYN088AAXX  18124 82678 21596 50000 10252 20238 39995 40154 70361 83502 333 20226 58007 60034;
0137826780999992006021818004-06767-043017FM-12+012799999V0200901N001010075019N0040001N1+02861+02541101271ADDGF108991051051008001051021MA1999999099691MD1999999+0141REMSYN070AAXX  18184 82678 32596 80902 10286 20254 39969 40127 85552 333 58014;
0168826780999992006021900004-06767-043017FM-12+012799999V0209999C000010075019N0002001N1+02601+02501101521ADDGF108991051051008001031999KA1240M+02951MA1999999099931MD1999999+0221REMSYN088AAXX  19004 82678 32592 80000 10260 20250 39993 40152 8553/ 333 10295 29091 55014 58022;
0201826780999992006021912004-06767-043017FM-12+012799999V0200901N000510450019N0040001N1+02581+02421101611ADDAA124001091AY161061AY221061GF107991041051008001031021KA1240N+02241MA1999999100021MD1999999+0071MW1021REMSYN088AAXX  19124 82678 21596 70901 10258 20242 30002 40161 70262 84532 333 20224 58007 60014;
0137826780999992006021918004-06767-043017FM-12+012799999V0200901N002611050019N0040001N1+03301+02421101281ADDGF106991041051008001001021MA1999999099711MD1999999+0021REMSYN070AAXX  19184 82678 32596 60905 10330 20242 39971 40128 84502 333 58002;
0178826780999992006022000004-06767-043017FM-12+012799999V0209999C000012200019N0040001N1+02701+02521101321ADDGA1001+999999999GF100991001001999999001001KA1240M+03371MA1999999099741MD1999999-0191REMSYN082AAXX  20004 82678 32996 00000 10270 20252 39974 40132 333 10337 29083 55072 59019;
0156826780999992006022012004-06767-043017FM-12+012799999V0200901N000512200019N0040001N1+02761+02561101511ADDGF105991031021008001001011KA1240N+02361MA1999999099931MD1999999-0091REMSYN076AAXX  20124 82678 32596 50901 10276 20256 39993 40151 83201 333 20236 59009;
0137826780999992006022018004-06767-043017FM-12+012799999V0200901N001512200019N0040001N1+03281+02561101101ADDGF105991031021008001001011MA1999999099541MD1999999-0171REMSYN070AAXX  20184 82678 32596 50903 10328 20256 39954 40110 83201 333 59017;
0168826780999992006022100004-06767-043017FM-12+012799999V0209999C000012200019N0002001N1+02881+02621101121ADDGF104991041051008001001001KA1240M+03421MA1999999099551MD1999999-0191REMSYN088AAXX  21004 82678 32592 40000 10288 20262 39955 40112 84500 333 10342 29082 55091 59019;
0156826780999992006022112004-06767-043017FM-12+012799999V0200501N001510075019N0040001N1+02661+02461101421ADDGF108991051051008001001021KA1240N+02341MA1999999099851MD1999999-0081REMSYN076AAXX  21124 82678 32596 80503 10266 20246 39985 40142 85502 333 20234 59008;
0137826780999992006022118004-06767-043017FM-12+012799999V0200901N000511050019N0040001N1+03241+02761101041ADDGF108991041021008001001021MA1999999099471MD1999999-0071REMSYN070AAXX  21184 82678 32596 80901 10324 20276 39947 40104 84202 333 59007;
0178826780999992006022200004-06767-043017FM-12+012799999V0209999C000012200019N0002001N1+02761+02621101081ADDGA1001+999999999GF100991001001999999001001KA1240M+03381MA1999999099511MD1999999-0041REMSYN082AAXX  22004 82678 32992 00000 10276 20262 39951 40108 333 10338 29087 55081 59004;
0156826780999992006022212004-06767-043017FM-12+012799999V0203201N001510075019N0040001N1+02801+02311101461ADDGF108991051031008001001021KA1240N+02401MA1999999099891MD1999999+0041REMSYN076AAXX  22124 82678 32596 83203 10280 20231 39989 40146 85302 333 20240 58004;
0137826780999992006022218004-06767-043017FM-12+012799999V0202701N001510075019N0040001N1+03021+02531101141ADDGF108991051051008001021999MA1999999099571MD1999999+0101REMSYN070AAXX  22184 82678 32596 82703 10302 20253 39957 40114 8552/ 333 58010;
0168826780999992006022300004-06767-043017FM-12+012799999V0209999C000010075019N0002001N1+02721+02521101241ADDGF108991051051008001031021KA1240M+03151MA1999999099671MD1999999+0161REMSYN088AAXX  23004 82678 32592 80000 10272 20252 39967 40124 85532 333 10315 29082 55038 58016;
0156826780999992006022312004-06767-043017FM-12+012799999V0200901N000510450019N0040001N1+02621+02441101481ADDGF108991041051008001031021KA1240N+02321MA1999999099901MD1999999+0011REMSYN076AAXX  23124 82678 32596 80901 10262 20244 39990 40148 84532 333 20232 58001;
0137826780999992006022318004-06767-043017FM-12+012799999V0203201N001510075019N0040001N1+03221+02451101031ADDGF108991051051008001031011MA1999999099471MD1999999-0101REMSYN070AAXX  23184 82678 32596 83203 10322 20245 39947 40103 85531 333 59010;
0168826780999992006022400004-06767-043017FM-12+012799999V0209999C000012200019N0002001N1+02861+02741101301ADDGF102991021011008001001001KA1240M+03371MA1999999099731MD1999999+0061REMSYN088AAXX  24004 82678 32592 20000 10286 20274 39973 40130 82100 333 10337 29083 55068 58006;
0156826780999992006022412004-06767-043017FM-12+012799999V0203601N001010075019N0040001N1+02701+02521101421ADDGF108991081051008001999999KA1240N+02481MA1999999099851MD1999999-0051REMSYN076AAXX  24124 82678 32596 83602 10270 20252 39985 40142 885// 333 20248 59005;
0137826780999992006022418004-06767-043017FM-12+012799999V0203601N000511050019N0040001N1+03341+02741101041ADDGF106991041051008001001021MA1999999099481MD1999999+0011REMSYN070AAXX  24184 82678 32596 63601 10334 20274 39948 40104 84502 333 58001;
0213826780999992006022500004-06767-043017FM-12+012799999V0202701N000510075019N0002001N1+02361+02311101431ADDAA106024991AY161061AY221061GF108991061051008001021999KA1240M+03431MA1999999099841MD1999999+0111MW1611REMSYN100AAXX  25004 82678 21592 82701 10236 20231 39984 40143 76162 8652/ 333 10343 29089 55048 58011 60251;
0201826780999992006022512004-06767-043017FM-12+012799999V0202301N001010075019N0040001N1+02581+02301101501ADDAA124000021AY161061AY221061GF108991081051008001999999KA1240N+02441MA1999999099911MD1999999+0031MW1021REMSYN088AAXX  25124 82678 21596 82302 10258 20230 39991 40150 70262 885// 333 20244 58003 69914;
0156826780999992006022518004-06767-043017FM-12+012799999V0203201N001019999999N0040001N1+03121+02651101071ADDGF105991999021008001001001MA1999999099501MD1999999+0021REMSYN070AAXX  25184 82678 32596 53202 10312 20265 39950 40107 86200 333 58002;EQDQ01+000062SCOTLC
0156826780999992006022612004-06767-043017FM-12+012799999V0209999C000010075019N0040001N1+02881+02661101381ADDGF108991051021008001001021KA1240N+02461MA1999999099811MD1999999-0101REMSYN076AAXX  26124 82678 32596 80000 10288 20266 39981 40138 85202 333 20246 59010;
0137826780999992006022618004-06767-043017FM-12+012799999V0203601N000511050019N0040001N1+03341+02621101021ADDGF105991041051008001001021MA1999999099461MD1999999-0041REMSYN070AAXX  26184 82678 32596 53601 10334 20262 39946 40102 84502 333 59004;
0168826780999992006022700004-06767-043017FM-12+012799999V0200501N000510075019N0002001N1+02901+02721101121ADDGF107991051051008001001021KA1240M+03451MA1999999099561MD1999999-0021REMSYN088AAXX  27004 82678 32592 70501 10290 20272 39956 40112 85502 333 10345 29084 55103 59002;
0156826780999992006022712004-06767-043017FM-12+012799999V0200901N001010075019N0040001N1+02701+02391101421ADDGF106991061051008001001001KA1240N+02361MA1999999099851MD1999999+0041REMSYN076AAXX  27124 82678 32596 60902 10270 20239 39985 40142 86500 333 20236 58004;
0137826780999992006022718004-06767-043017FM-12+012799999V0203601N001010075019N0040001N1+03261+02641101011ADDGF106991051051008001001021MA1999999099451MD1999999-0011REMSYN070AAXX  27184 82678 32596 63602 10326 20264 39945 40101 85502 333 59001;
0213826780999992006022800004-06767-043017FM-12+012799999V0209999C000010075019N0002001N1+02581+02481101251ADDAA106005191AY161061AY221061GF108991061051008001021999KA1240M+03411MA1999999099671MD1999999+0111MW1911REMSYN100AAXX  28004 82678 21592 80000 10258 20248 39967 40125 79162 8652/ 333 10341 29085 55076 58011 60051;
0173826780999992006022812004-06767-043017FM-12+012799999V0203601N000510075019N0040001N1+02741+02541101471ADDAA124005191GF108991081051008001999999KA1240N+02421MA1999999099891MD1999999+0041REMSYN082AAXX  28124 82678 22596 83601 10274 20254 39989 40147 885// 333 20242 58004 60054;
0137826780999992006022818004-06767-043017FM-12+012799999V0200901N000510075019N0040001N1+03001+02681101071ADDGF107991051051008001051001MA1999999099501MD1999999+0051REMSYN070AAXX  28184 82678 32596 70901 10300 20268 39950 40107 85550 333 58005;
0168826780999992006030100004-06767-043017FM-12+012799999V0209999C000010075019N0002001N1+02541+02491101261ADDGF105991051051008001001001KA1240M+03201MA1999999099681MD1999999+0011REMSYN088AAXX  01004 82678 32592 50000 10254 20249 39968 40126 85500 333 10320 29092 55026 58001;
0201826780999992006030112004-06767-043017FM-12+012799999V0200501N001010075019N0040001N1+02621+02421101601ADDAA124003091AY161061AY221061GF108991051051008001021999KA1240N+02401MA1999999100011MD1999999+0121MW1021REMSYN088AAXX  01124 82678 21596 80502 10262 20242 30001 40160 70262 8552/ 333 20240 58012 60034;
0156826780999992006030118004-06767-043017FM-12+012799999V0203601N001010075019N0040001N1+03001+02641101141ADDGF108991999021008001001001MA1999999099571MD1999999-0071REMSYN070AAXX  01184 82678 32596 83602 10300 20264 39957 40114 86200 333 59007;EQDQ01+000062SCOTLC
0187826780999992006030200004-06767-043017FM-12+012799999V0209999C000019999999N0002001N1+02761+02621101451ADDGF105991999051008001999999KA1240M+03151MA1999999099871MD1999999-0191REMSYN088AAXX  02004 82678 32592 50000 10276 20262 39987 40145 885// 333 10315 29088 55042 59019;EQDQ01+000082SCOTLC
0156826780999992006030212004-06767-043017FM-12+012799999V0209999C000012200019N0040001N1+02621+02211101581ADDGF105991031021008001001011KA1240N+02361MA1999999100001MD1999999-0011REMSYN076AAXX  02124 82678 32596 50000 10262 20221 30000 40158 83201 333 20236 59001;
0137826780999992006030218004-06767-043017FM-12+012799999V0200501N001511050019N0040001N1+03141+02131101231ADDGF105991041021008001001021MA1999999099661MD1999999+0091REMSYN070AAXX  02184 82678 32596 50503 10314 20213 39966 40123 84202 333 58009;
0178826780999992006030300004-06767-043017FM-12+012799999V0200501N001012200019N0002001N1+02601+02501101351ADDGA1001+999999999GF100991001001999999001001KA1240M+03251MA1999999099771MD1999999-0101REMSYN082AAXX  03004 82678 32992 00502 10260 20250 39977 40135 333 10325 29084 55062 59010;
0156826780999992006030312004-06767-043017FM-12+012799999V0209999C000010075019N0040001N1+02761+02541101621ADDGF108991081051008001999999KA1240N+02361MA1999999100041MD1999999+0041REMSYN076AAXX  03124 82678 32596 80000 10276 20254 30004 40162 885// 333 20236 58004;
0137826780999992006030318004-06767-043017FM-12+012799999V0200901N001510075019N0040001N1+03261+02591101211ADDGF105991051021008001001001MA1999999099651MD1999999-0011REMSYN070AAXX  03184 82678 32596 50903 10326 20259 39965 40121 85200 333 59001;
0168826780999992006030400004-06767-043017FM-12+012799999V0209999C000010075019N0002001N1+02681+02581101351ADDGF105991051051008001001001KA1240M+03351MA1999999099771MD1999999+0001REMSYN088AAXX  04004 82678 32592 50000 10268 20258 39977 40135 85500 333 10335 29086 55061 58000;
0156826780999992006030412004-06767-043017FM-12+012799999V0203601N001010450019N0040001N1+02781+02521101631ADDGF105991031021008001031001KA1240N+02441MA1999999100051MD1999999+0011REMSYN076AAXX  04124 82678 32596 53602 10278 20252 30005 40163 83230 333 20244 58001;
0137826780999992006030418004-06767-043017FM-12+012799999V0200901N001510075019N0040001N1+03301+02631101171ADDGF106991061051008001001001MA1999999099611MD1999999-0041REMSYN070AAXX  04184 82678 32596 60903 10330 20263 39961 40117 86500 333 59004;
0168826780999992006030500004-06767-043017FM-12+012799999V0209999C000010450019N0002001N1+02581+02481101461ADDGF105991041051008001031001KA1240M+03391MA1999999099881MD1999999+0111REMSYN088AAXX  05004 82678 32592 50000 10258 20248 39988 40146 84530 333 10339 29086 55100 58011;
0201826780999992006030512004-06767-043017FM-12+012799999V0209999C000012200019N0040001N1+02741+02581101651ADDAA124007991AY161061AY221061GF103991021011008001001011KA1240N+02311MA1999999100061MD1999999+0011MW1621REMSYN088AAXX  05124 82678 21596 30000 10274 20258 30006 40165 76262 82101 333 20231 58001 60084;
0137826780999992006030518004-06767-043017FM-12+012799999V0203601N001512200019N0040001N1+03301+02701101261ADDGF104991021021008001001011MA1999999099691MD1999999+0081REMSYN070AAXX  05184 82678 32596 43603 10330 20270 39969 40126 82201 333 58008;
0187826780999992006030600004-06767-043017FM-12+012799999V0201401N001012200019N0002001N1+02581+02481101361ADDGF104991999021008001001001KA1240M+03431MA1999999099781MD1999999-0101REMSYN088AAXX  06004 82678 32592 41402 10258 20248 39978 40136 83200 333 10343 29088 55080 59010;EQDQ01+000032SCOTLC
0201826780999992006030612004-06767-043017FM-12+012799999V0209999C000010075019N0040001N1+02741+02601101651ADDAA124004191AY161061AY211061GF108991081051008001999999KA1240N+02381MA1999999100061MD1999999+0001MW1021REMSYN088AAXX  06124 82678 21596 80000 10274 20260 30006 40165 70261 885// 333 20238 58000 60044;
0156826780999992006030618004-06767-043017FM-12+012799999V0203601N002119999999N0040001N1+03361+02901101151ADDGF105991999021008001001001MA1999999099591MD1999999-0101REMSYN070AAXX  06184 82678 32596 53604 10336 20290 39959 40115 83200 333 59010;EQDQ01+000032SCOTLC
0168826780999992006030700004-06767-043017FM-12+012799999V0209999C000012200019N0002001N1+02881+02681101391ADDGF104991021001008001031021KA1240M+03471MA1999999099821MD1999999+0041REMSYN088AAXX  07004 82678 32592 40000 10288 20268 39982 40139 82032 333 10347 29087 55091 58004;
0156826780999992006030712004-06767-043017FM-12+012799999V0200901N000512200019N0040001N1+02861+02641101461ADDGF103991021021008001031001KA1240N+02481MA1999999099891MD1999999-0171REMSYN076AAXX  07124 82678 32596 30901 10286 20264 39989 40146 82230 333 20248 59017;
0137826780999992006030718004-06767-043017FM-12+012799999V0203601N001010075019N0040001N1+03301+02551101101ADDGF106991061021008001001001MA1999999099541MD1999999-0051REMSYN070AAXX  07184 82678 32596 63602 10330 20255 39954 40110 86200 333 59005;
0178826780999992006030800004-06767-043017FM-12+012799999V0209999C000012200019N0002001N1+02841+02701101121ADDGA1001+999999999GF100991001001999999001001KA1240M+03371MA1999999099561MD1999999-0261REMSYN082AAXX  08004 82678 32992 00000 10284 20270 39956 40112 333 10337 29084 55103 59026;
0156826780999992006030812004-06767-043017FM-12+012799999V0209999C000010075019N0040001N1+02781+02641101471ADDGF107991071051008001001001KA1240N+02451MA1999999099891MD1999999+0001REMSYN076AAXX  08124 82678 32596 70000 10278 20264 39989 40147 87500 333 20245 58000;
0137826780999992006030818004-06767-043017FM-12+012799999V0200501N002110075019N0040001N1+03281+02781100931ADDGF108991051021008001021011MA1999999099371MD1999999-0171REMSYN070AAXX  08184 82678 32596 80504 10328 20278 39937 40093 85221 333 59017;
0168826780999992006030900004-06767-043017FM-12+012799999V0209999C000012200019N0002001N1+02621+02531101131ADDGF103991011001017501031021KA1240M+03411MA1999999099561MD1999999+0001REMSYN088AAXX  09004 82678 32792 30000 10262 20253 39956 40113 81032 333 10341 29089 55063 58000;
0201826780999992006030912004-06767-043017FM-12+012799999V0201801N000510075019N0040001N1+02641+02551101421ADDAA124023191AY121061AY261061GF108991061051008001021999KA1240N+02301MA1999999099841MD1999999-0051MW1021REMSYN088AAXX  09124 82678 21596 81801 10264 20255 39984 40142 70226 8652/ 333 20230 59005 60234;
0182826780999992006030918004-06767-043017FM-12+012799999V0200501N001010120019N0040001N1+03141+03011100981ADDAA106051191AY121061AY261061GF108991051081008001021011MA1999999099411MD1999999+0041MW1021REMSYN082AAXX  09184 82678 21596 80502 10314 20301 39941 40098 70226 85821 333 58004 60511;
0168826780999992006031000004-06767-043017FM-12+012799999V0201801N000511050019N0002001N1+02551+02471101241ADDGF108991021001017501031071KA1240M+03251MA1999999099661MD1999999+0101REMSYN088AAXX  10004 82678 32792 81801 10255 20247 39966 40124 82037 333 10325 29095 55029 58010;
0201826780999992006031012004-06767-043017FM-12+012799999V0201401N000510075019N0040001N1+02341+02311101471ADDAA124091991AY161061AY221061GF108991081071008001999999KA1240N+02331MA1999999099871MD1999999+0031MW1621REMSYN088AAXX  10124 82678 21596 81401 10234 20231 39987 40147 76262 887// 333 20233 58003 60924;
0182826780999992006031018004-06767-043017FM-12+012799999V0203601N001010075019N0040001N1+02981+02641101111ADDAA106001091AY161061AY221061GF107991071051008001001001MA1999999099541MD1999999+0131MW1021REMSYN082AAXX  10184 82678 21596 73602 10298 20264 39954 40111 70262 87500 333 58013 60011;
0168826780999992006031100004-06767-043017FM-12+012799999V0203601N001010450019N0002001N1+02561+02511101291ADDGF108991041041008001031011KA1240M+03061MA1999999099701MD1999999+0041REMSYN088AAXX  11004 82678 32592 83602 10256 20251 39970 40129 84431 333 10306 29094 55012 58004;
0201826780999992006031112004-06767-043017FM-12+012799999V0209999C000010075019N0040001N1+02381+02361101571ADDAA124026991AY161061AY211061GF108991081051008001999999KA1240N+02341MA1999999099981MD1999999+0111MW1621REMSYN088AAXX  11124 82678 21596 80000 10238 20236 39998 40157 76261 885// 333 20234 58011 60274;
0168826780999992006031200004-06767-043017FM-12+012799999V0209999C000010450019N0040001N1+02541+02491101301ADDGF108991031041008001031011KA1240M+03131MA1999999099711MD1999999+0011REMSYN088AAXX  12004 82678 32596 80000 10254 20249 39971 40130 83431 333 10313 29095 55007 58001;
0173826780999992006031212004-06767-043017FM-12+012799999V0200901N001510075019N0040001N1+02561+02511101601ADDAA124002091GF108991061051008001001011KA1240N+02321MA1999999100011MD1999999+0031REMSYN082AAXX  12124 82678 22596 80903 10256 20251 30001 40160 86501 333 20232 58003 60024;
0137826780999992006031218004-06767-043017FM-12+012799999V0200901N001510075019N0040001N1+03081+02691101021ADDGF108991051041008001001011MA1999999099451MD1999999-0121REMSYN070AAXX  12184 82678 32596 80903 10308 20269 39945 40102 85401 333 59012;
0168826780999992006031300004-06767-043017FM-12+012799999V0209999C000012200019N0002001N1+02641+02591101191ADDGF103991021011008001001011KA1240M+03191MA1999999099611MD1999999+0101REMSYN088AAXX  13004 82678 32592 30000 10264 20259 39961 40119 82101 333 10319 29092 55055 58010;
0201826780999992006031312004-06767-043017FM-12+012799999V0200901N001010120019N0040001N1+02631+02521101391ADDAA124004191AY161061AY261061GF108991061081008001021999KA1240N+02351MA1999999099811MD1999999+0201MW1021REMSYN088AAXX  13124 82678 21596 80902 10263 20252 39981 40139 70266 8682/ 333 20235 58020 60044;
0182826780999992006031318004-06767-043017FM-12+012799999V0202701N001510075019N0040001N1+02801+02521101021ADDAA106001091AY161061AY221061GF107991061051008001001011MA1999999099441MD1999999-0011MW1031REMSYN082AAXX  13184 82678 21596 72703 10280 20252 39944 40102 70362 86501 333 59001 60011;
0168826780999992006031400004-06767-043017FM-12+012799999V0209999C000010075019N0002001N1+02561+02511101201ADDGF108991061051008001031999KA1240M+03051MA1999999099621MD1999999+0011REMSYN088AAXX  14004 82678 32592 80000 10256 20251 39962 40120 8653/ 333 10305 29093 55040 58001;
0201826780999992006031412004-06767-043017FM-12+012799999V0202701N000510075019N0040001N1+02701+02501101401ADDAA124005191AY161061AY221061GF108991061051008001031011KA1240N+02341MA1999999099821MD1999999+0011MW1021REMSYN088AAXX  14124 82678 21596 82701 10270 20250 39982 40140 70262 86531 333 20234 58001 60054;
0182826780999992006031418004-06767-043017FM-12+012799999V0202701N000510075019N0040001N1+02761+02541101101ADDAA106002091AY161061AY221061GF108991071051008001001021MA1999999099521MD1999999+0081MW1031REMSYN082AAXX  14184 82678 21596 82701 10276 20254 39952 40110 70362 87502 333 58008 60021;
0213826780999992006031500004-06767-043017FM-12+012799999V0209999C000010075019N0002001N1+02481+02461101371ADDAA106001091AY161061AY221061GF108991081051008001999999KA1240M+02911MA1999999099791MD1999999+0171MW1031REMSYN100AAXX  15004 82678 21592 80000 10248 20246 39979 40137 70362 885// 333 10291 29094 55022 58017 60011;
0173826780999992006031512004-06767-043017FM-12+012799999V0201401N001010450019N0040001N1+02531+02431101521ADDAA124003091GF108991041051008001021999KA1240N+02321MA1999999099931MD1999999+0111REMSYN082AAXX  15124 82678 22596 81402 10253 20243 39993 40152 8452/ 333 20232 58011 60034;
0137826780999992006031518004-06767-043017FM-12+012799999V0202701N001510450019N0040001N1+03081+02541101091ADDGF107991041021008001021011MA1999999099521MD1999999+0001REMSYN070AAXX  15184 82678 32596 72703 10308 20254 39952 40109 84221 333 58000;
0156826780999992006031612004-06767-043017FM-12+012799999V0200501N002110075019N0040001N1+02861+02541101511ADDGF107991051021008001001011KA1240N+02401MA1999999099931MD1999999+0001REMSYN076AAXX  16124 82678 32596 70504 10286 20254 39993 40151 85201 333 20240 58000;
0182826780999992006031618004-06767-043017FM-12+012799999V0200501N000510120019N0040001N1+02741+02651101111ADDAA106008991AY161061AY221061GF108991051081008001021011MA1999999099531MD1999999+0011MW1021REMSYN082AAXX  16184 82678 21596 80501 10274 20265 39953 40111 70262 85821 333 58001 60091;
0168826780999992006031700004-06767-043017FM-12+012799999V0209999C000012200019N0002001N1+02621+02551101141ADDGF107991011001017501031011KA1240M+03251MA1999999099571MD1999999-0061REMSYN088AAXX  17004 82678 32792 70000 10262 20255 39957 40114 81031 333 10325 29092 55057 59006;
0173826780999992006031712004-06767-043017FM-12+012799999V0200501N001019999999N0040001N1+02721+02631101331ADDAA124008991GF108991051001008001031021KA1240N+02421MA1999999099751MD1999999-0181REMSYN082AAXX  17124 82678 22596 80502 10272 20263 39975 40133 85032 333 20242 59018 60094;
0182826780999992006031718004-06767-043017FM-12+012799999V0200501N001010075019N0040001N1+03241+02891100921ADDAA106002091AY161061AY221061GF108991051051008001021011MA1999999099361MD1999999-0171MW1021REMSYN082AAXX  17184 82678 21596 80502 10324 20289 39936 40092 70262 85521 333 59017 60021;
0213826780999992006031800004-06767-043017FM-12+012799999V0209999C000010075019N0040001N1+02461+02411101141ADDAA106009991AY161061AY221061GF108991081051008001999999KA1240M+03391MA1999999099561MD1999999-0011MW1021REMSYN100AAXX  18004 82678 21596 80000 10246 20241 39956 40114 70262 885// 333 10339 29093 55053 59001 60101;
0201826780999992006031812004-06767-043017FM-12+012799999V0209999C000010075019N0040001N1+02381+02311101421ADDAA124021191AY161061AY221061GF108991081051008001999999KA1240N+02311MA1999999099821MD1999999+0071MW1021REMSYN088AAXX  18124 82678 21596 80000 10238 20231 39982 40142 70262 885// 333 20231 58007 60214;
0182826780999992006031818004-06767-043017FM-12+012799999V0209999C000010075019N0040001N1+02581+02481101121ADDAA106004191AY161061AY221061GF108991051051008001001011MA1999999099531MD1999999+0171MW1611REMSYN082AAXX  18184 82678 21596 80000 10258 20248 39953 40112 76162 85501 333 58017 60041;
0178826780999992006031900004-06767-043017FM-12+012799999V0209999C000012200019N0002001N1+02461+02431101221ADDGA1001+999999999GF100991001001999999001001KA1240M+02751MA1999999099631MD1999999+0071REMSYN082AAXX  19004 82678 32992 00000 10246 20243 39963 40122 333 10275 29096 55000 58007;
0173826780999992006031912004-06767-043017FM-12+012799999V0209999C000010075019N0040001N1+02621+02551101451ADDAA124004191GF107991071051008001001001KA1240N+02291MA1999999099861MD1999999+0041REMSYN082AAXX  19124 82678 22596 70000 10262 20255 39986 40145 87500 333 20229 58004 60044;
0137826780999992006031918004-06767-043017FM-12+012799999V0201401N001010075019N0040001N1+03141+02791101021ADDGF105991051021008001001001MA1999999099451MD1999999-0081REMSYN070AAXX  19184 82678 32596 51402 10314 20279 39945 40102 85200 333 59008;
0178826780999992006032000004-06767-043017FM-12+012799999V0209999C000012200019N0002001N1+02661+02571101161ADDGA1001+999999999GF100991001001999999001001KA1240M+03291MA1999999099581MD1999999-0051REMSYN082AAXX  20004 82678 32992 00000 10266 20257 39958 40116 333 10329 29092 55074 59005;
0201826780999992006032012004-06767-043017FM-12+012799999V0209999C000010075019N0040001N1+02701+02581101481ADDAA124007191AY161061AY221061GF108991081051008001999999KA1240N+02421MA1999999099901MD1999999+0041MW1031REMSYN088AAXX  20124 82678 21596 80000 10270 20258 39990 40148 70362 885// 333 20242 58004 60074;
0182826780999992006032018004-06767-043017FM-12+012799999V0202301N000510075019N0040001N1+02741+02541101191ADDAA106003091AY161061AY221061GF107991051051008001031011MA1999999099611MD1999999+0161MW1021REMSYN082AAXX  20184 82678 21596 72301 10274 20254 39961 40119 70262 85531 333 58016 60031;
0213826780999992006032100004-06767-043017FM-12+012799999V0200901N000510075019N0002001N1+02441+02391101191ADDAA106003091AY161061AY221061GF108991061051008001021999KA1240M+03011MA1999999099611MD1999999+0031MW1021REMSYN100AAXX  21004 82678 21592 80901 10244 20239 39961 40119 70262 8652/ 333 10301 29094 55015 58003 60031;
0201826780999992006032112004-06767-043017FM-12+012799999V0200901N002610450019N0040001N1+02731+02431101481ADDAA124007191AY161061AY221061GF106991031081008001021011KA1240N+02411MA1999999099891MD1999999-0011MW1021REMSYN088AAXX  21124 82678 21596 60905 10273 20243 39989 40148 70262 83821 333 20241 59001 60074;
0137826780999992006032118004-06767-043017FM-12+012799999V0200901N003112200019N0040001N1+03241+02421100981ADDGF104991021021008001031021MA1999999099421MD1999999-0191REMSYN070AAXX  21184 82678 32596 40906 10324 20242 39942 40098 82232 333 59019;
0178826780999992006032200004-06767-043017FM-12+012799999V0209999C000012200019N0002001N1+02721+02631101181ADDGA1001+999999999GF100991001001999999001001KA1240M+03311MA1999999099611MD1999999+0001REMSYN082AAXX  22004 82678 32992 00000 10272 20263 39961 40118 333 10331 29084 55070 58000;
0156826780999992006032212004-06767-043017FM-12+012799999V0200901N001510120019N0040001N1+02951+02541101421ADDGF107991051081008001031011KA1240N+02521MA1999999099851MD1999999-0041REMSYN076AAXX  22124 82678 32596 70903 10295 20254 39985 40142 85831 333 20252 59004;
0137826780999992006032218004-06767-043017FM-12+012799999V0200501N002110075019N0040001N1+03011+02551101021ADDGF108991061051008001021999MA1999999099451MD1999999+0031REMSYN070AAXX  22184 82678 32596 80504 10301 20255 39945 40102 8652/ 333 58003;
0168826780999992006032300004-06767-043017FM-12+012799999V0209999C000010075019N0002001N1+02641+02611101261ADDGF108991061051008001011999KA1240M+03281MA1999999099691MD1999999+0081REMSYN088AAXX  23004 82678 32592 80000 10264 20261 39969 40126 8651/ 333 10328 29088 55044 58008;
0156826780999992006032312004-06767-043017FM-12+012799999V0203601N001010450019N0040001N1+02801+02521101501ADDGF108991041051008001031011KA1240N+02461MA1999999099921MD1999999+0071REMSYN076AAXX  23124 82678 32596 83602 10280 20252 39992 40150 84531 333 20246 58007;
0137826780999992006032318004-06767-043017FM-12+012799999V0201401N001010075019N0040001N1+03201+02631101001ADDGF108991051051008001031021MA1999999099441MD1999999-0011REMSYN070AAXX  23184 82678 32596 81402 10320 20263 39944 40100 85532 333 59001;
0168826780999992006032400004-06767-043017FM-12+012799999V0209999C000010075019N0002001N1+02701+02561101211ADDGF108991051051008001011999KA1240M+03351MA1999999099641MD1999999-0211REMSYN088AAXX  24004 82678 32592 80000 10270 20256 39964 40121 8551/ 333 10335 29085 55066 59021;
0201826780999992006032412004-06767-043017FM-12+012799999V0201401N001010450019N0040001N1+02481+02411101551ADDAA124019191AY161061AY221061GF108991041051008001021001KA1240N+02341MA1999999099961MD1999999+0041MW1021REMSYN088AAXX  24124 82678 21596 81402 10248 20241 39996 40155 70262 84520 333 20234 58004 60194;
0137826780999992006032418004-06767-043017FM-12+012799999V0201801N000510450019N0040001N1+03161+02681101111ADDGF106991031051008001031001MA1999999099541MD1999999+0101REMSYN070AAXX  24184 82678 32596 61801 10316 20268 39954 40111 83530 333 58010;
0213826780999992006032500004-06767-043017FM-12+012799999V0209999C000010075019N0040001N1+02511+02401101441ADDAA106002091AY161061AY221061GF108991081051008001999999KA1240M+03321MA1999999099851MD1999999+0211MW1021REMSYN100AAXX  25004 82678 21596 80000 10251 20240 39985 40144 70262 885// 333 10332 29090 55048 58021 60021;
0173826780999992006032512004-06767-043017FM-12+012799999V0200901N001012200019N0040001N1+02821+02461101531ADDAA124002091GF102991011011008001031001KA1240N+02321MA1999999099951MD1999999-0011REMSYN082AAXX  25124 82678 22596 20902 10282 20246 39995 40153 81130 333 20232 59001 60024;
0137826780999992006032518004-06767-043017FM-12+012799999V0200901N001010075019N0040001N1+03281+02611101101ADDGF105991051051008001001001MA1999999099531MD1999999-0011REMSYN070AAXX  25184 82678 32596 50902 10328 20261 39953 40110 85500 333 59001;
0213826780999992006032600004-06767-043017FM-12+012799999V0209999C000010075019N0002001N1+02401+02351101531ADDAA106007991AY161061AY221061GF108991061051008001021999KA1240M+03371MA1999999099941MD1999999+0091MW1611REMSYN100AAXX  26004 82678 21592 80000 10240 20235 39994 40153 76162 8652/ 333 10337 29086 55088 58009 60081;
0201826780999992006032612004-06767-043017FM-12+012799999V0209999C000012200019N0040001N1+02741+02581101561ADDAA124008991AY161061AY221061GF106991041021008001001011KA1240N+02341MA1999999099971MD1999999+0021MW1021REMSYN088AAXX  26124 82678 21596 60000 10274 20258 39997 40156 70262 84201 333 20234 58002 60094;
0137826780999992006032618004-06767-043017FM-12+012799999V0200901N001010075019N0040001N1+03281+02591101091ADDGF106991051051008001001011MA1999999099521MD1999999-0011REMSYN070AAXX  26184 82678 32596 60902 10328 20259 39952 40109 85501 333 59001;
0168826780999992006032700004-06767-043017FM-12+012799999V0209999C000010075019N0002001N1+02541+02401101391ADDGF108991081051008001999999KA1240M+03351MA1999999099811MD1999999-0131REMSYN088AAXX  27004 82678 32592 80000 10254 20240 39981 40139 885// 333 10335 29086 55084 59013;
0156826780999992006032712004-06767-043017FM-12+012799999V0202701N001510075019N0040001N1+02841+02481101681ADDGF108991051041008001011021KA1240N+02421MA1999999100101MD1999999+0131REMSYN076AAXX  27124 82678 32596 82703 10284 20248 30010 40168 85412 333 20242 58013;
0137826780999992006032718004-06767-043017FM-12+012799999V0200501N000510450019N0200001N1+03081+02781101221ADDGF108991031021008001021021MA1999999099651MD1999999+0131REMSYN070AAXX  27184 82678 32598 80501 10308 20278 39965 40122 83222 333 58013;
0168826780999992006032800004-06767-043017FM-12+012799999V0209999C000012200019N0002001N1+02761+02641101431ADDGF105991031001017501031011KA1240M+03231MA1999999099861MD1999999+0051REMSYN088AAXX  28004 82678 32792 50000 10276 20264 39986 40143 83031 333 10323 29088 55049 58005;
0220826780999992006032812004-06767-043017FM-12+012799999V0200501N001010450019N0040001N1+02831+02541101601ADDAA124000091AY121061AY261061GF108991031021008001021011KA1240N+02421MA1999999100031MD1999999-0071MW1021REMSYN088AAXX  28124 82678 21596 80502 10283 20254 30003 40160 70226 83221 333 20242 59007 69914;EQDQ01  00002PRCP24
0137826780999992006032818004-06767-043017FM-12+012799999V0203601N002110450019N0040001N1+03321+02621101011ADDGF108991041081008001021011MA1999999099451MD1999999-0201REMSYN070AAXX  28184 82678 32596 83604 10332 20262 39945 40101 84821 333 59020;
0168826780999992006032900004-06767-043017FM-12+012799999V0202301N001012200019N0002001N1+02741+02581101371ADDGF105991031041008001001011KA1240M+03441MA1999999099801MD1999999-0061REMSYN088AAXX  29004 82678 32592 52302 10274 20258 39980 40137 83401 333 10344 29084 55072 59006;
0201826780999992006032912004-06767-043017FM-12+012799999V0209999C000010075019N0040001N1+02581+02511101541ADDAA124043991AY161061AY221061GF108991081051008001999999KA1240N+02381MA1999999099961MD1999999-0071MW1021REMSYN088AAXX  29124 82678 21596 80000 10258 20251 39996 40154 70262 885// 333 20238 59007 60444;
0137826780999992006032918004-06767-043017FM-12+012799999V0200501N001010075019N0040001N1+03161+02621101011ADDGF108991051021008001001021MA1999999099441MD1999999-0011REMSYN070AAXX  29184 82678 32596 80502 10316 20262 39944 40101 85202 333 59001;
0213826780999992006033000004-06767-043017FM-12+012799999V0209999C000010075019N0002001N1+02381+02331101351ADDAA106019191AY161061AY211061GF108991081051008001999999KA1240M+03251MA1999999099761MD1999999-0041MW1611REMSYN100AAXX  30004 82678 21592 80000 10238 20233 39976 40135 76161 885// 333 10325 29091 55037 59004 60191;
0201826780999992006033012004-06767-043017FM-12+012799999V0209999C000010075019N0040001N1+02461+02341101601ADDAA124025991AY161061AY221061GF108991051051008001001011KA1240N+02381MA1999999100001MD1999999+0041MW1021REMSYN088AAXX  30124 82678 21596 80000 10246 20234 30000 40160 70262 85501 333 20238 58004 60264;
0137826780999992006033018004-06767-043017FM-12+012799999V0209999C000012200019N0040001N1+03061+02741101061ADDGF105991031021008001001011MA1999999099491MD1999999+0051REMSYN070AAXX  30184 82678 32596 50000 10306 20274 39949 40106 83201 333 58005;
0168826780999992006033100004-06767-043017FM-12+012799999V0200901N000512200019N0002001N1+02721+02631101411ADDGF105991031001017501021011KA1240M+03201MA1999999099831MD1999999+0071REMSYN088AAXX  31004 82678 32792 50901 10272 20263 39983 40141 83021 333 10320 29092 55050 58007;
0201826780999992006033112004-06767-043017FM-12+012799999V0202701N000510450019N0040001N1+02781+02581101631ADDAA124021191AY161061AY221061GF107991041051008001031011KA1240N+02361MA1999999100051MD1999999+0051MW1031REMSYN088AAXX  31124 82678 21596 72701 10278 20258 30005 40163 70362 84531 333 20236 58005 60214;
0182826780999992006033118004-06767-043017FM-12+012799999V0209999C000010075019N0040001N1+02461+02411101291ADDAA106005191AY161061AY221061GF108991061051008001021999MA1999999099691MD1999999+0201MW1031REMSYN082AAXX  31184 82678 21596 80000 10246 20241 39969 40129 70362 8652/ 333 58020 60051;
0213826780999992006040100004-06767-043017FM-12+012799999V0209999C000010075019N0002001N1+02401+02351101421ADDAA106003091AY161061AY221061GF107991071051008001001001KA1240M+02951MA1999999099841MD1999999+0011MW1021REMSYN100AAXX  01004 82678 21592 70000 10240 20235 39984 40142 70262 87500 333 10295 29094 55026 58001 60031;
0128826780999992006040112004-06767-043017FM-12+012799999V0200501N001519999999N0040001N1+02371+02261999999ADDGF108991999999008001999999REMSYN090AAXX  01124 82678 21596 80503 10237 20226 10154 20236 30010 40170 58005 60154 76162 887//;
0164826780999992006040118004-06767-043017FM-12+012799999V0200501N001510450019N0040001N1+02981+02551101091ADDAA106005191AY121061AY261061GF107991041021008001031021MA1999999099521MW1021REMSYN078AAXX  01184 82678 21596 70503 10298 20255 39952 40109 59017 60051 70226 84232;
0128826780999992006040200004-06767-043017FM-12+012799999V0209999C000012200019N0002001N1+02661+02571999999ADDGF104991999999008001999999REMSYN090AAXX  02004 82678 32592 40000 10266 20257 10311 29090 39973 40132 40132 55035 59011 84500;
0201826780999992006040212004-06767-043017FM-12+012799999V0209999C000010075019N0040001N1+02421+02331101581ADDAA124007191AY161061AY221061GF108991081051008001999999KA1240N+02241MA1999999099991MD1999999+0111MW1031REMSYN088AAXX  02124 82678 21596 80000 10242 20233 39999 40158 70362 885// 333 20224 58011 60074;
0137826780999992006040218004-06767-043017FM-12+012799999V0202701N003110450019N0040001N1+02901+02481101101ADDGF106991031021008001021091MA1999999099521MD1999999+0001REMSYN070AAXX  02184 82678 32596 62706 10290 20248 39952 40110 83229 333 58000;
0168826780999992006040300004-06767-043017FM-12+012799999V0201801N001012200019N0002001N1+02601+02551101331ADDGF104991021001017501021011KA1240M+03061MA1999999099741MD1999999+0011REMSYN088AAXX  03004 82678 32792 41802 10260 20255 39974 40133 82021 333 10306 29092 55037 58001;
0156826780999992006040312004-06767-043017FM-12+012799999V0201401N002110450019N0040001N1+02781+02461101491ADDGF106991031081008001031011KA1240N+02321MA1999999099911MD1999999-0081REMSYN076AAXX  03124 82678 32596 61404 10278 20246 39991 40149 83831 333 20232 59008;
0137826780999992006040318004-06767-043017FM-12+012799999V0200501N001011050019N0040001N1+03001+02821101051ADDGF105991031031008001001021MA1999999099481MD1999999-0041REMSYN070AAXX  03184 82678 32596 50502 10300 20282 39948 40105 83302 333 59004;
0213826780999992006040400004-06767-043017FM-12+012799999V0203601N000510450019N0002001N1+02551+02451101311ADDAA106001091AY161061AY211061GF108991041041008001011011KA1240M+03281MA1999999099731MD1999999-0011MW1021REMSYN100AAXX  04004 82678 21592 83601 10255 20245 39973 40131 70261 84411 333 10328 29091 55086 59001 60011;
0201826780999992006040412004-06767-043017FM-12+012799999V0200201N002610075019N0040001N1+02621+02531101461ADDAA124004191AY161061AY211061GF108991081051008001999999KA1240N+02421MA1999999099871MD1999999-0041MW1611REMSYN088AAXX  04124 82678 21596 80205 10262 20253 39987 40146 76161 885// 333 20242 59004 60044;
0182826780999992006040418004-06767-043017FM-12+012799999V0203201N001010075019N0040001N1+02481+02461101151ADDAA106018091AY161061AY261061GF108991061051008001021999MA1999999099561MD1999999+0081MW1021REMSYN082AAXX  04184 82678 21596 83202 10248 20246 39956 40115 70266 8652/ 333 58008 60181;
0168826780999992006040500004-06767-043017FM-12+012799999V0209999C000010075019N0002001N1+02461+02411101421ADDGF108991081051008001999999KA1240M+02711MA1999999099831MD1999999+0101REMSYN088AAXX  05004 82678 32592 80000 10246 20241 39983 40142 885// 333 10271 29097 55000 58010;
0201826780999992006040512004-06767-043017FM-12+012799999V0203601N001010075019N0040001N1+02781+02521101481ADDAA124019191AY161061AY221061GF108991051051008001021011KA1240N+02321MA1999999099891MD1999999+0061MW1021REMSYN088AAXX  05124 82678 21596 83602 10278 20252 39989 40148 70262 85521 333 20232 58006 60194;
0137826780999992006040518004-06767-043017FM-12+012799999V0201401N001511050019N0040001N1+03241+02761100991ADDGF105991031031008001001021MA1999999099431MD1999999-0131REMSYN070AAXX  05184 82678 32596 51403 10324 20276 39943 40099 83302 333 59013;
0168826780999992006040600004-06767-043017FM-12+012799999V0201401N001012200019N0002001N1+02721+02501101241ADDGF104991021011008001001011KA1240M+03371MA1999999099661MD1999999-0171REMSYN088AAXX  06004 82678 32592 41402 10272 20250 39966 40124 82101 333 10337 29084 55082 59017;
0201826780999992006040612004-06767-043017FM-12+012799999V0200901N001510075019N0040001N1+02741+02361101371ADDAA124000591AY161061AY221061GF107991061051008001031001KA1240N+02461MA1999999099801MD1999999-0091MW1031REMSYN088AAXX  06124 82678 21596 70903 10274 20236 39980 40137 70362 86530 333 20246 59009 69944;
0182826780999992006040618004-06767-043017FM-12+012799999V0201401N001010450019N0040001N1+02781+02251101001ADDAA106007991AY161061AY221061GF107991041051008001021001MA1999999099421MD1999999-0011MW1911REMSYN082AAXX  06184 82678 21596 71402 10278 20225 39942 40100 79162 84520 333 59001 60081;
0168826780999992006040700004-06767-043017FM-12+012799999V0209999C000010450019N0002001N1+02521+02431101151ADDGF105991041051008001031001KA1240M+03211MA1999999099571MD1999999-0091REMSYN088AAXX  07004 82678 32592 50000 10252 20243 39957 40115 84530 333 10321 29086 55046 59009;
0173826780999992006040712004-06767-043017FM-12+012799999V0209999C000010075019N0040001N1+02681+02371101351ADDAA124007991GF107991051051008001001011KA1240N+02321MA1999999099771MD1999999-0031REMSYN082AAXX  07124 82678 22596 70000 10268 20237 39977 40135 85501 333 20232 59003 60084;
0137826780999992006040718004-06767-043017FM-12+012799999V0200901N001510075019N0040001N1+03161+02451100961ADDGF108991061051008001021999MA1999999099401MD1999999-0021REMSYN070AAXX  07184 82678 32596 80903 10316 20245 39940 40096 8652/ 333 59002;
0173826780999992006040812004-06767-043017FM-12+012799999V0201801N001510075019N0040001N1+02661+02481101401ADDAA124032091GF108991081071008001999999KA1240N+02401MA1999999099821MD1999999+0051REMSYN082AAXX  08124 82678 22596 81803 10266 20248 39982 40140 887// 333 20240 58005 60324;
0182826780999992006040818004-06767-043017FM-12+012799999V0200901N003110120019N0040001N1+03041+02431100871ADDAA106002091AY121061AY261061GF108991061081008001021999MA1999999099311MD1999999-0091MW1021REMSYN082AAXX  08184 82678 21596 80906 10304 20243 39931 40087 70226 8682/ 333 59009 60021;
0168826780999992006040900004-06767-043017FM-12+012799999V0202701N000510075019N0002001N1+02531+02421101231ADDGF108991061051008001021999KA1240M+03191MA1999999099651MD1999999+0001REMSYN088AAXX  09004 82678 32592 82701 10253 20242 39965 40123 8652/ 333 10319 29086 55024 58000;
0201826780999992006040912004-06767-043017FM-12+012799999V0202701N001510075019N0040001N1+02421+02281101421ADDAA124008991AY161061AY261061GF108991081061008001001001KA1240N+02331MA1999999099821MD1999999+0001MW1021REMSYN088AAXX  09124 82678 21596 82703 10242 20228 39982 40142 70266 88600 333 20233 58000 60094;
0137826780999992006040918004-06767-043017FM-12+012799999V0201801N001510120019N0040001N1+02881+02441101001ADDGF108991051081008001021011MA1999999099431MD1999999+0121REMSYN070AAXX  09184 82678 32596 81803 10288 20244 39943 40100 85821 333 58012;
0168826780999992006041000004-06767-043017FM-12+012799999V0202301N000510075019N0002001N1+02581+02401101111ADDGF108991081051008001999999KA1240M+02941MA1999999099521MD1999999-0161REMSYN088AAXX  10004 82678 32592 82301 10258 20240 39952 40111 885// 333 10294 29087 55038 59016;
0175826780999992006041012004-06767-043017FM-12+012799999V0203601N001019999999N0040001N1+02641+02331101321ADDGF105991999021008001001001KA1240N+02341MA1999999099741MD1999999-0081REMSYN076AAXX  10124 82678 32596 53602 10264 20233 39974 40132 83200 333 20234 59008;EQDQ01+000032SCOTLC
0156826780999992006041018004-06767-043017FM-12+012799999V0203201N001012200019N0040001N1+03201+02181100771ADDGF104991999021008001001001MA1999999099211MD1999999-0221REMSYN070AAXX  10184 82678 32596 43202 10320 20218 39921 40077 83200 333 59022;EQDQ01+000032SCOTLC
0168826780999992006041100004-06767-043017FM-12+012799999V0200501N001512200019N0002001N1+02661+02441101211ADDGF104991021021008001001021KA1240M+03251MA1999999099631MD1999999+0111REMSYN088AAXX  11004 82678 32592 40503 10266 20244 39963 40121 82202 333 10325 29078 55089 58011;
0201826780999992006041112004-06767-043017FM-12+012799999V0200901N001010075019N0040001N1+02601+02311101411ADDAA124006191AY161061AY211061GF108991081051008001999999KA1240N+02341MA1999999099831MD1999999+0091MW1021REMSYN088AAXX  11124 82678 21596 80902 10260 20231 39983 40141 70261 885// 333 20234 58009 60064;
0137826780999992006041118004-06767-043017FM-12+012799999V0209999C000010075019N0040001N1+03021+02311100931ADDGF108991051051008001021999MA1999999099331MD1999999+0121REMSYN070AAXX  11184 82678 32596 80000 10302 20231 39933 40093 8552/ 333 58012;
0168826780999992006041200004-06767-043017FM-12+012799999V0209999C000010075019N0002001N1+02501+02311101261ADDGF108991081051008001999999KA1240M+03071MA1999999099671MD1999999+0041REMSYN088AAXX  12004 82678 32592 80000 10250 20231 39967 40126 885// 333 10307 29082 55030 58004;
0192826780999992006041212004-06767-043017FM-12+012799999V0203601N000510075019N0040001N1+02701+02331101461ADDAA124000091GF108991081051008001999999KA1240N+02401MA1999999099871MD1999999+0041REMSYN082AAXX  12124 82678 22596 83601 10270 20233 39987 40146 885// 333 20240 58004 69924;EQDQ01  00002PRCP24
0201826780999992006041218004-06767-043017FM-12+012799999V0200901N000510075019N0040001N1+03101+02391100981ADDAA106000091AY161061AY221061GF106991051051008001001011MA1999999099411MD1999999+0081MW1021REMSYN082AAXX  12184 82678 21596 60901 10310 20239 39941 40098 70262 85501 333 58008 69921;EQDQ01  00002PRCP06
0168826780999992006041300004-06767-043017FM-12+012799999V0209999C000010450019N0002001N1+02741+02581101251ADDGF108991041051008001031021KA1240M+03191MA1999999099671MD1999999+0001REMSYN088AAXX  13004 82678 32592 80000 10274 20258 39967 40125 84532 333 10319 29082 55052 58000;
0201826780999992006041312004-06767-043017FM-12+012799999V0209999C000010075019N0040001N1+02841+02401101361ADDAA124000591AY161061AY221061GF107991051051008001001011KA1240N+02441MA1999999099791MD1999999-0081MW1021REMSYN088AAXX  13124 82678 21596 70000 10284 20240 39979 40136 70262 85501 333 20244 59008 69944;
0137826780999992006041318004-06767-043017FM-12+012799999V0209999C000012200019N0040001N1+03261+02211100841ADDGF105991031021008001001011MA1999999099281MD1999999-0131REMSYN070AAXX  13184 82678 32596 50000 10326 20221 39928 40084 83201 333 59013;
0168826780999992006041400004-06767-043017FM-12+012799999V0209999C000019999999N0002001N1+02661+02411101121ADDGF106991001001999999001021KA1240M+03311MA1999999099551MD1999999-0121REMSYN088AAXX  14004 82678 32992 60000 10266 20241 39955 40112 80002 333 10331 29076 55093 59012;
0201826780999992006041412004-06767-043017FM-12+012799999V0202701N000511050019N0040001N1+02701+02451101241ADDAA124003091AY161061AY221061GF105991021021008001031021KA1240N+02431MA1999999099661MD1999999-0131MW1021REMSYN088AAXX  14124 82678 21596 52701 10270 20245 39966 40124 70262 82232 333 20243 59013 60034;
0165826780999992006041418004-06767-043017FM-12+012799999V0200501N002610120019N0040001N1+03201+02271100721ADDAY191061AY221061GF108991061081008001001021MA1999999099161MD1999999-0121MW1021REMSYN076AAXX  14184 82678 31596 80505 10320 20227 39916 40072 70292 86802 333 59012;
0168826780999992006041500004-06767-043017FM-12+012799999V0201801N000510450019N0002001N1+02651+02521101041ADDGF108991031041008001031021KA1240M+03331MA1999999099471MD1999999-0081REMSYN088AAXX  15004 82678 32592 81801 10265 20252 39947 40104 83432 333 10333 29082 55069 59008;
0201826780999992006041512004-06767-043017FM-12+012799999V0201401N002110450019N0040001N1+02811+02341101301ADDAA124023191AY121061AY261061GF108991041041008001021021KA1240N+02391MA1999999099731MD1999999+0071MW1021REMSYN088AAXX  15124 82678 21596 81404 10281 20234 39973 40130 70226 84422 333 20239 58007 60234;
0182826780999992006041518004-06767-043017FM-12+012799999V0202701N001010450019N0040001N1+02821+02461100941ADDAA106008991AY161061AY221061GF108991031031008001021021MA1999999099361MD1999999+0201MW1021REMSYN082AAXX  15184 82678 21596 82702 10282 20246 39936 40094 70262 83322 333 58020 60091;
0168826780999992006041600004-06767-043017FM-12+012799999V0209999C000010450019N0002001N1+02631+02521101311ADDGF108991031041008001031011KA1240M+03061MA1999999099731MD1999999+0261REMSYN088AAXX  16004 82678 32592 80000 10263 20252 39973 40131 83431 333 10306 29086 55019 58026;
0201826780999992006041612004-06767-043017FM-12+012799999V0202701N000510075019N0040001N1+02641+02331101691ADDAA124061091AY161061AY221061GF108991081051008001999999KA1240N+02281MA1999999100091MD1999999+0361MW1021REMSYN088AAXX  16124 82678 21596 82701 10264 20233 30009 40169 70262 885// 333 20228 58036 60614;
0137826780999992006041618004-06767-043017FM-12+012799999V0201801N000510075019N0040001N1+03121+02381101261ADDGF107991051051008001001011MA1999999099691MD1999999+0331REMSYN070AAXX  16184 82678 32596 71801 10312 20238 39969 40126 85501 333 58033;
0168826780999992006041700004-06767-043017FM-12+012799999V0209999C000010075019N0002001N1+02561+02441101541ADDGF107991051051008001001011KA1240M+03211MA1999999099951MD1999999+0221REMSYN088AAXX  17004 82678 32592 70000 10256 20244 39995 40154 85501 333 10321 29084 55052 58022;
0201826780999992006041712004-06767-043017FM-12+012799999V0200501N001010075019N0040001N1+02651+02371101601ADDAA124004191AY161061AY221061GF108991051051008001999999KA1240N+02301MA1999999100011MD1999999-0081MW1021REMSYN088AAXX  17124 82678 21596 80502 10265 20237 30001 40160 70262 855// 333 20230 59008 60044;
0168826780999992006041800004-06767-043017FM-12+012799999V0209999C000010075019N0002001N1+02621+02481101361ADDGF105991051051008001001001KA1240M+03061MA1999999099781MD1999999-0171REMSYN088AAXX  18004 82678 32592 50000 10262 20248 39978 40136 85500 333 10306 29083 55024 59017;
0156826780999992006041812004-06767-043017FM-12+012799999V0209999C000010075019N0040001N1+02561+02361101541ADDGF108991081051008001999999KA1240N+02411MA1999999099951MD1999999-0061REMSYN076AAXX  18124 82678 32596 80000 10256 20236 39995 40154 885// 333 20241 59006;
0182826780999992006041818004-06767-043017FM-12+012799999V0201801N002610075019N0040001N1+02941+02331101101ADDAA106001091AY161061AY221061GF107991051051008001001011MA1999999099531MD1999999-0161MW1021REMSYN082AAXX  18184 82678 21596 71805 10294 20233 39953 40110 70262 85501 333 59016 60011;
0168826780999992006041900004-06767-043017FM-12+012799999V0200901N000512200019N0002001N1+02581+02441101391ADDGF104991041051008001001001KA1240M+03051MA1999999099781MD1999999+0001REMSYN088AAXX  19004 82678 32592 40901 10258 20244 39978 40139 84500 333 10305 29086 55032 58000;
0173826780999992006041912004-06767-043017FM-12+012799999V0201401N000511050019N0040001N1+02741+02301101581ADDAA124001091GF105991021011008001031011KA1240N+02341MA1999999100001MD1999999+0051REMSYN082AAXX  19124 82678 22596 51401 10274 20230 30000 40158 82131 333 20234 58005 60014;
0168826780999992006042000004-06767-043017FM-12+012799999V0209999C000012200019N0002001N1+02601+02311101361ADDGF104991001001999999001021KA1240M+03191MA1999999099781MD1999999+0001REMSYN088AAXX  20004 82678 32992 40000 10260 20231 39978 40136 80002 333 10319 29080 55069 58000;
0173826780999992006042012004-06767-043017FM-12+012799999V0201801N001010075019N0040001N1+02741+02361101581ADDAA124009991GF108991061051008001021999KA1240N+02411MA1999999100001MD1999999+0001REMSYN082AAXX  20124 82678 22596 81802 10274 20236 30000 40158 8652/ 333 20241 58000 60104;
0168826780999992006042100004-06767-043017FM-12+012799999V0202301N000510450019N0002001N1+02661+02481101411ADDGF108991021031008001021011KA1240M+03161MA1999999099831MD1999999+0051REMSYN088AAXX  21004 82678 32592 82301 10266 20248 39983 40141 82321 333 10316 29080 55051 58005;
0156826780999992006042112004-06767-043017FM-12+012799999V0200901N000510075019N0040001N1+02541+02361101631ADDGF108991061051008001021999KA1240N+02451MA1999999100041MD1999999+0041REMSYN076AAXX  21124 82678 32596 80901 10254 20236 30004 40163 8652/ 333 20245 58004;
0182826780999992006042118004-06767-043017FM-12+012799999V0203201N001010450019N0040001N1+03001+02461101181ADDAA106001091AY121061AY261061GF108991041081008001021021MA1999999099611MD1999999+0101MW1021REMSYN082AAXX  21184 82678 21596 83202 10300 20246 39961 40118 70226 84822 333 58010 60011;
0213826780999992006042200004-06767-043017FM-12+012799999V0200901N002110075019N0002001N1+02591+02481101541ADDAA106011991AY161061AY221061GF108991081071008001999999KA1240M+03071MA1999999099951MD1999999+0121MW1631REMSYN100AAXX  22004 82678 21592 80904 10259 20248 39995 40154 76362 887// 333 10307 29088 55015 58012 60121;
0201826780999992006042212004-06767-043017FM-12+012799999V0200901N001510075019N0040001N1+02521+02291101691ADDAA124075991AY161061AY221061GF108991081051008001001001KA1240N+02311MA1999999100101MD1999999+0061MW1021REMSYN088AAXX  22124 82678 21596 80903 10252 20229 30010 40169 70262 88500 333 20231 58006 60764;
0137826780999992006042218004-06767-043017FM-12+012799999V0201401N001510450019N0040001N1+03121+02331101131ADDGF108991041031008001021011MA1999999099561MD1999999-0011REMSYN070AAXX  22184 82678 32596 81403 10312 20233 39956 40113 84321 333 59001;
0178826780999992006042300004-06767-043017FM-12+012799999V0209999C000012200019N0040001N1+02621+02501101351ADDGA1001+999999999GF100991001001999999001001KA1240M+03291MA1999999099761MD1999999-0191REMSYN082AAXX  23004 82678 32996 00000 10262 20250 39976 40135 333 10329 29084 55046 59019;
0201826780999992006042312004-06767-043017FM-12+012799999V0209999C000010075019N0002001N1+02501+02401101471ADDAA124005191AY161061AY211061GF108991081051008001999999KA1240N+02441MA1999999099881MD1999999-0221MW1611REMSYN088AAXX  23124 82678 21592 80000 10250 20240 39988 40147 76161 885// 333 20244 59022 60054;
0137826780999992006042318004-06767-043017FM-12+012799999V0201401N001010450019N0040001N1+03101+02441101021ADDGF105991031081008001021011MA1999999099451MD1999999-0111REMSYN070AAXX  23184 82678 32596 51402 10310 20244 39945 40102 83821 333 59011;
0178826780999992006042400004-06767-043017FM-12+012799999V0209999C000012200019N0002001N1+02521+02421101391ADDGA1001+999999999GF100991001001999999001001KA1240M+03171MA1999999099801MD1999999+0041REMSYN082AAXX  24004 82678 32592 00000 10252 20242 39980 40139 333 10317 29088 55022 58004;
0173826780999992006042412004-06767-043017FM-12+012799999V0200901N001510450019N0040001N1+02801+02401101411ADDAA124000591GF108991041051008001031021KA1240N+02391MA1999999099831MD1999999-0051REMSYN082AAXX  24124 82678 22596 80903 10280 20240 39983 40141 84532 333 20239 59005 69954;
0137826780999992006042418004-06767-043017FM-12+012799999V0201401N001512200019N0040001N1+03181+02311100961ADDGF106991041051008001001011MA1999999099391MD1999999-0061REMSYN070AAXX  24184 82678 32596 61403 10318 20231 39939 40096 84501 333 59006;
0178826780999992006042500004-06767-043017FM-12+012799999V0209999C000012200019N0002001N1+02701+02521101191ADDGA1001+999999999GF100991001001999999001001KA1240M+03241MA1999999099621MD1999999-0181REMSYN082AAXX  25004 82678 32992 00000 10270 20252 39962 40119 333 10324 29080 55077 59018;
0156826780999992006042512004-06767-043017FM-12+012799999V0201401N001010075019N0040001N1+02641+02331101371ADDGF108991081051008001999999KA1240N+02421MA1999999099791MD1999999-0041REMSYN076AAXX  25124 82678 32596 81402 10264 20233 39979 40137 885// 333 20242 59004;
0201826780999992006042518004-06767-043017FM-12+012799999V0201801N001510075019N0040001N1+02921+02271100981ADDAA106000091AY161061AY221061GF107991051051008001001021MA1999999099401MD1999999+0011MW1031REMSYN082AAXX  25184 82678 21596 71803 10292 20227 39940 40098 70362 85502 333 58001 69921;EQDQ01  00002PRCP06
0168826780999992006042600004-06767-043017FM-12+012799999V0200901N001010075019N0002001N1+02581+02441101331ADDGF107991071051008001001001KA1240M+03031MA1999999099751MD1999999+0131REMSYN088AAXX  26004 82678 32592 70902 10258 20244 39975 40133 87500 333 10303 29084 55044 58013;
0192826780999992006042612004-06767-043017FM-12+012799999V0200901N001510450019N0040001N1+02721+02221101521ADDAA124000091GF108991041021008001021011KA1240N+02361MA1999999099941MD1999999+0151REMSYN082AAXX  26124 82678 22596 80903 10272 20222 39994 40152 84221 333 20236 58015 69924;EQDQ01  00002PRCP24
0201826780999992006042618004-06767-043017FM-12+012799999V0201801N001510450019N0040001N1+03031+02341101101ADDAA106000091AY161061AY221061GF106991031021008001021011MA1999999099531MD1999999+0131MW1021REMSYN082AAXX  26184 82678 21596 61803 10303 20234 39953 40110 70262 83221 333 58013 69911;EQDQ01  00002PRCP06
0168826780999992006042700004-06767-043017FM-12+012799999V0209999C000019999999N0002001N1+02621+02441101341ADDGF106991061041999999001001KA1240M+03131MA1999999099761MD1999999+0011REMSYN088AAXX  27004 82678 32992 60000 10262 20244 39976 40134 86400 333 10313 29080 55080 58001;
0192826780999992006042712004-06767-043017FM-12+012799999V0201401N003612200019N0040001N1+02881+02101101461ADDAA124000091GF104991021011008001001011KA1240N+02461MA1999999099881MD1999999-0061REMSYN082AAXX  27124 82678 22596 41407 10288 20210 39988 40146 82101 333 20246 59006 69914;EQDQ01  00002PRCP24
0156826780999992006042718004-06767-043017FM-12+012799999V0201401N002119999999N0040001N1+03141+02241101011ADDGF105991999021008001001001MA1999999099451MD1999999-0081REMSYN070AAXX  27184 82678 32596 51404 10314 20224 39945 40101 83200 333 59008;EQDQ01+000032SCOTLC
0178826780999992006042800004-06767-043017FM-12+012799999V0201401N000512200019N0002001N1+02711+02501101311ADDGA1001+999999999GF100991001001999999001001KA1240M+03271MA1999999099741MD1999999-0021REMSYN082AAXX  28004 82678 32992 01401 10271 20250 39974 40131 333 10327 29075 55105 59002;
0201826780999992006042812004-06767-043017FM-12+012799999V0200501N001010075019N0040001N1+02881+02351101451ADDAA124003091AY161061AY231061GF108991051021008001001021KA1240N+02341MA1999999099881MD1999999+0001MW1021REMSYN088AAXX  28124 82678 21596 80502 10288 20235 39988 40145 70263 85202 333 20234 58000 60034;
0137826780999992006042818004-06767-043017FM-12+012799999V0200501N001512200019N0040001N1+03241+02331100931ADDGF105991031021008001001011MA1999999099371MD1999999-0081REMSYN070AAXX  28184 82678 32596 50503 10324 20233 39937 40093 83201 333 59008;
0178826780999992006042900004-06767-043017FM-12+012799999V0209999C000012200019N0002001N1+02661+02431101321ADDGA1001+999999999GF100991001001999999001001KA1240M+03531MA1999999099751MD1999999+0011REMSYN082AAXX  29004 82678 32992 00000 10266 20243 39975 40132 333 10353 29076 55084 58001;
0201826780999992006042912004-06767-043017FM-12+012799999V0209999C000010075019N0040001N1+02621+02421101441ADDAA124011991AY161061AY211061GF108991081051008001999999KA1240N+02281MA1999999099861MD1999999-0021MW1021REMSYN088AAXX  29124 82678 21596 80000 10262 20242 39986 40144 70261 885// 333 20228 59002 60124;
0137826780999992006042918004-06767-043017FM-12+012799999V0209999C000010075019N0040001N1+02741+02471100991ADDGF108991051051008001021999MA1999999099411MD1999999+0041REMSYN070AAXX  29184 82678 32596 80000 10274 20247 39941 40099 8552/ 333 58004;
0178826780999992006043000004-06767-043017FM-12+012799999V0209999C000012200019N0002001N1+02581+02481101201ADDGA1001+999999999GF100991001001999999001001KA1240M+03051MA1999999099721MD1999999-0031REMSYN082AAXX  30004 82678 32792 00000 10258 20248 39972 40120 333 10305 29090 55005 59003;
0156826780999992006043012004-06767-043017FM-12+012799999V0201401N001510450019N0040001N1+02621+02181101511ADDGF108991041051008001071999KA1240N+02411MA1999999099921MD1999999+0061REMSYN076AAXX  30124 82678 32596 81403 10262 20218 39992 40151 8457/ 333 20241 58006;
0156826780999992006043018004-06767-043017FM-12+012799999V0201801N001019999999N0040001N1+02861+02211101131ADDGF107991999021008001001001MA1999999099601MD1999999+0191REMSYN070AAXX  30184 82678 32596 71802 10286 20221 39960 40113 84200 333 58019;EQDQ01+000042SCOTLC
0197826780999992006050100004-06767-043017FM-12+012799999V0209999C000012200019N0002001N1+02561+02381101411ADDGA1001+999999999GF100991001001999999001001KA1240M+99999MA1999999099831MD1999999+0111REMSYN082AAXX  01004 82678 32992 00000 10256 20238 39983 40141 333 11291 29081 55009 58011;EQDQ01 -02912ATMX  
0201826780999992006050112004-06767-043017FM-12+012799999V0209999C000010075019N0040001N1+02381+02241101701ADDAA124009991AY161061AY221061GF108991051051008001021999KA1240N+02201MA1999999100101MD1999999+0181MW1611REMSYN088AAXX  01124 82678 21596 80000 10238 20224 30010 40170 76162 8552/ 333 20220 58018 60104;
0182826780999992006050118004-06767-043017FM-12+012799999V0201401N000510450019N0040001N1+03001+02391101241ADDAA106006191AY161061AY221061GF107991041051008001031021MA1999999099671MD1999999+0061MW1021REMSYN082AAXX  01184 82678 21596 71401 10300 20239 39967 40124 70262 84532 333 58006 60061;
0168826780999992006050200004-06767-043017FM-12+012799999V0201801N000512200019N0002001N1+02571+02351101501ADDGF103991001001999999001011KA1240M+03061MA1999999099911MD1999999+0081REMSYN088AAXX  02004 82678 32992 31801 10257 20235 39991 40150 80001 333 10306 29084 55033 58008;
0173826780999992006050212004-06767-043017FM-12+012799999V0201401N002612200019N0040001N1+02901+02271101601ADDAA124006191GF104991021011008001051011KA1240N+02321MA1999999100021MD1999999-0081REMSYN082AAXX  02124 82678 22596 41405 10290 20227 30002 40160 82151 333 20232 59008 60064;
0137826780999992006050218004-06767-043017FM-12+012799999V0201401N002612200019N0040001N1+03221+02201101211ADDGF103991031021008001001001MA1999999099651MD1999999-0011REMSYN070AAXX  02184 82678 32596 31405 10322 20220 39965 40121 83200 333 59001;
0178826780999992006050300004-06767-043017FM-12+012799999V0209999C000012200019N0002001N1+02661+02391101321ADDGA1001+999999999GF100991001001999999001001KA1240M+03271MA1999999099751MD1999999-0161REMSYN082AAXX  03004 82678 32992 00000 10266 20239 39975 40132 333 10327 29074 55102 59016;
0156826780999992006050312004-06767-043017FM-12+012799999V0201401N004110450019N0040001N1+02831+02171101491ADDGF106991021011008001041021KA1240N+02271MA1999999099911MD1999999-0111REMSYN076AAXX  03124 82678 32596 61408 10283 20217 39991 40149 82142 333 20227 59011;
0137826780999992006050318004-06767-043017FM-12+012799999V0201401N002110450019N0040001N1+03241+02221101101ADDGF108991031021008001021011MA1999999099531MD1999999-0121REMSYN070AAXX  03184 82678 32596 81404 10324 20222 39953 40110 83221 333 59012;
0168826780999992006050400004-06767-043017FM-12+012799999V0209999C000012200019N0002001N1+02631+02371101281ADDGF103991001001999999001011KA1240M+03271MA1999999099701MD1999999-0051REMSYN088AAXX  04004 82678 32992 30000 10263 20237 39970 40128 80001 333 10327 29074 55089 59005;
0156826780999992006050412004-06767-043017FM-12+012799999V0209999C000011050019N0040001N1+02801+02401101371ADDGF107991031001017501031021KA1240N+02341MA1999999099791MD1999999-0121REMSYN076AAXX  04124 82678 32796 70000 10280 20240 39979 40137 83032 333 20234 59012;
0137826780999992006050418004-06767-043017FM-12+012799999V0201801N000511050019N0040001N1+03241+02281101071ADDGF107991041051008001001021MA1999999099511MD1999999-0021REMSYN070AAXX  04184 82678 32596 71801 10324 20228 39951 40107 84502 333 59002;
0213826780999992006050500004-06767-043017FM-12+012799999V0200901N000510450019N0002001N1+02521+02431101371ADDAA106004191AY161061AY221061GF107991041051008001031021KA1240M+03311MA1999999099791MD1999999+0091MW1021REMSYN100AAXX  05004 82678 21592 70901 10252 20243 39979 40137 70262 84532 333 10331 29082 55070 58009 60041;
0173826780999992006050512004-06767-043017FM-12+012799999V0209999C000011050019N0040001N1+02801+02251101451ADDAA124004191GF105991031001017501031021KA1240N+02341MA1999999099871MD1999999+0081REMSYN082AAXX  05124 82678 22796 50000 10280 20225 39987 40145 83032 333 20234 58008 60044;
0137826780999992006050518004-06767-043017FM-12+012799999V0201401N000512200019N0040001N1+03261+02181101081ADDGF105991041021008001001011MA1999999099521MD1999999+0011REMSYN070AAXX  05184 82678 32596 51401 10326 20218 39952 40108 84201 333 58001;
0178826780999992006050600004-06767-043017FM-12+012799999V0209999C000012200019N0002001N1+02681+02461101331ADDGA1001+999999999GF100991001001999999001001KA1240M+03321MA1999999099761MD1999999-0031REMSYN082AAXX  06004 82678 32792 00000 10268 20246 39976 40133 333 10332 29075 55097 59003;
0156826780999992006050612004-06767-043017FM-12+012799999V0200901N000510075019N0040001N1+02681+02371101541ADDGF108991081051008001999999KA1240N+02401MA1999999099961MD1999999+0091REMSYN076AAXX  06124 82678 32596 80901 10268 20237 39996 40154 885// 333 20240 58009;
0137826780999992006050618004-06767-043017FM-12+012799999V0201801N001510450019N0040001N1+03201+02241101081ADDGF108991041021008001031021MA1999999099511MD1999999-0011REMSYN070AAXX  06184 82678 32596 81803 10320 20224 39951 40108 84232 333 59001;
0168826780999992006050700004-06767-043017FM-12+012799999V0209999C000019999999N0002001N1+02661+02431101411ADDGF105991001001999999001021KA1240M+03271MA1999999099831MD1999999+0071REMSYN088AAXX  07004 82678 32992 50000 10266 20243 39983 40141 80002 333 10327 29079 55054 58007;
0156826780999992006050712004-06767-043017FM-12+012799999V0209999C000010075019N0040001N1+02521+02251101621ADDGF108991081051008001999999KA1240N+02361MA1999999100031MD1999999+0071REMSYN076AAXX  07124 82678 32596 80000 10252 20225 30003 40162 885// 333 20236 58007;
0137826780999992006050718004-06767-043017FM-12+012799999V0201801N001011050019N0040001N1+03061+02221101261ADDGF106991031051008001001021MA1999999099691MD1999999+0181REMSYN070AAXX  07184 82678 32596 61802 10306 20222 39969 40126 83502 333 58018;
