0196827650999992006010100004-07333-047467FM-12+019399999V0209999C000010120019N0200001N1+02641+02351101411ADDAY191061AY291061GF108991061081008001021999KA1240M+03141MA1999999099001MD1999999-0081MW1001REMSYN094AAXX  01004 82765 31598 80000 10264 20235 39900 40141 70099 8682/ 333 10314 29081 55068 59008;
0201827650999992006010112004-07333-047467FM-12+019399999V0201801N001010120019N0200001N1+02521+02341101521ADDAA124001091AY151061AY251061GF107991061081008001021999KA1240N+02391MA1999999099121MD1999999-0011MW1001REMSYN088AAXX  01124 82765 21598 71802 10252 20234 39912 40152 70055 8682/ 333 20239 59001 60014;
0213827650999992006010200004-07333-047467FM-12+019399999V0201101N001510450019N0200001N1+02421+02281101311ADDAA106000591AY151061AY251061GF107991041081008001021001KA1240M+03001MA1999999098901MD1999999-0101MW1001REMSYN100AAXX  02004 82765 21598 71103 10242 20228 39890 40131 70055 84820 333 10300 29086 55011 59010 69951;
0173827650999992006010212004-07333-047467FM-12+019399999V0209999C000012200019N0200001N1+02561+02271101401ADDAA124001091GF103991031011008001001001KA1240N+02291MA1999999098991MD1999999-0131REMSYN082AAXX  02124 82765 22598 30000 10256 20227 39899 40140 83100 333 20229 59013 60014;
0182827650999992006010218004-07333-047467FM-12+019399999V0200901N002110450019N0200001N1+02681+02261101131ADDAA106002091AY191061AY291061GF107991041051008001021001MA1999999098731MD1999999-0021MW1611REMSYN082AAXX  02184 82765 21598 70904 10268 20226 39873 40113 76199 84520 333 59002 60021;
0213827650999992006010300004-07333-047467FM-12+019399999V0209999C000012200019N0200001N1+02641+02481101171ADDAA106000591AY101061AY201061GF103991021011008001041001KA1240M+03141MA1999999098781MD1999999-0121MW1131REMSYN100AAXX  03004 82765 21598 30000 10264 20248 39878 40117 71300 82140 333 10314 29086 55066 59012 69941;
0173827650999992006010312004-07333-047467FM-12+019399999V0203201N001010450019N0200001N1+02631+02461101441ADDAA124003091GF106991041081008001041001KA1240N+02441MA1999999099051MD1999999+0061REMSYN082AAXX  03124 82765 22598 63202 10263 20246 39905 40144 84840 333 20244 58006 60034;
0137827650999992006010318004-07333-047467FM-12+019399999V0203201N000510450019N0200001N1+03171+02421100981ADDGF106991041021008001011001MA1999999098611MD1999999-0121REMSYN070AAXX  03184 82765 32598 63201 10317 20242 39861 40098 84210 333 59012;
0168827650999992006010400004-07333-047467FM-12+019399999V0201801N002110120019N0200001N1+02691+02391101101ADDGF108991081081008001999999KA1240M+03251MA1999999098711MD1999999-0071REMSYN088AAXX  04004 82765 32598 81804 10269 20239 39871 40110 888// 333 10325 29081 55047 59007;
0156827650999992006010412004-07333-047467FM-12+019399999V0202301N001510075019N0200001N1+02551+02271101321ADDGF106991061031008001001001KA1240N+02361MA1999999098921MD1999999-0131REMSYN076AAXX  04124 82765 32598 62303 10255 20227 39892 40132 86300 333 20236 59013;
0182827650999992006010418004-07333-047467FM-12+019399999V0203201N001010042019N0100001N1+02311+02091101031ADDAA106017091AY161061AY221061GF108991051071004501021999MA1999999098621MD1999999+0011MW1501REMSYN082AAXX  04184 82765 21497 83202 10231 20209 39862 40103 75062 8572/ 333 58001 60171;
0213827650999992006010500004-07333-047467FM-12+019399999V0209999C000010120019N0200001N1+02331+02201101171ADDAA106000391AY151061AY221061GF108991081001012501021999KA1240M+03261MA1999999098761MD1999999+0051MW1001REMSYN100AAXX  05004 82765 21698 80000 10233 20220 39876 40117 70052 8802/ 333 10326 29090 55053 58005 69931;
0220827650999992006010512004-07333-047467FM-12+019399999V0201401N001010042019N0200001N1+02371+02221101351ADDAA124017091AY151061AY221061GF108991999071004501021999KA1240N+02281MA1999999098931MD1999999+0011MW1031REMSYN088AAXX  05124 82765 21498 81402 10237 20222 39893 40135 70352 8872/ 333 20228 58001 60174;EQDQ01+000082SCOTLC
0137827650999992006010518004-07333-047467FM-12+019399999V0203501N003110450019N0200001N1+02651+02201101031ADDGF108991041081008001021999MA1999999098631MD1999999+0011REMSYN070AAXX  05184 82765 32598 83506 10265 20220 39863 40103 8482/ 333 58001;
0201827650999992006010612004-07333-047467FM-12+019399999V0200901N001510075019N0200001N1+02261+02181101441ADDAA124000891AY121061AY201061GF108991071051008001021999KA1240N+02221MA1999999099011MD1999999+0081MW1031REMSYN088AAXX  06124 82765 21598 80903 10226 20218 39901 40144 70320 8752/ 333 20222 58008 69984;
0137827650999992006010618004-07333-047467FM-12+019399999V0201401N000510450019N0200001N1+03041+02431101031ADDGF105991041021008001041001MA1999999098651MD1999999+0021REMSYN070AAXX  06184 82765 32598 51401 10304 20243 39865 40103 84240 333 58002;
0213827650999992006010700004-07333-047467FM-12+019399999V0203601N000510075019N0200001N1+02381+02221101311ADDAA106024991AY191061AY261061GF108991051071008001021999KA1240M+03201MA1999999098881MD1999999+0081MW1511REMSYN100AAXX  07004 82765 21598 83601 10238 20222 39888 40131 75196 8572/ 333 10320 29087 55054 58008 60251;
0201827650999992006010712004-07333-047467FM-12+019399999V0203401N000510120019N0200001N1+02421+02281101461ADDAA124024991AY151061AY251061GF107991051081008001021001KA1240N+02291MA1999999099041MD1999999+0031MW1001REMSYN088AAXX  07124 82765 21598 73401 10242 20228 39904 40146 70055 85820 333 20229 58003 60254;
0182827650999992006010718004-07333-047467FM-12+019399999V0203601N002110120019N0200001N1+02461+02281101201ADDAA106010991AY161061AY261061GF108991061081008001021999MA1999999098791MD1999999+0141MW1031REMSYN082AAXX  07184 82765 21598 83604 10246 20228 39879 40120 70366 8682/ 333 58014 60111;
0168827650999992006010800004-07333-047467FM-12+019399999V0202701N000512200019N0200001N1+02381+02261101281ADDGF104991041001008001011001KA1240M+02501MA1999999098861MD1999999-0021REMSYN088AAXX  08004 82765 32598 42701 10238 20226 39886 40128 84010 333 10250 29092 55000 59002;
0173827650999992006010812004-07333-047467FM-12+019399999V0209999C000010120019N0200001N1+02361+02311101521ADDAA124010991GF108991061081008001021999KA1240N+02271MA1999999099101MD1999999+0061REMSYN082AAXX  08124 82765 22598 80000 10236 20231 39910 40152 8682/ 333 20227 58006 60114;
0182827650999992006010818004-07333-047467FM-12+019399999V0209999C000010450019N0200001N1+02701+02261101101ADDAA106007991AY191061AY261061GF107991031021008001021001MA1999999098701MD1999999-0091MW1001REMSYN082AAXX  08184 82765 21598 70000 10270 20226 39870 40110 70096 83220 333 59009 60081;
0213827650999992006010900004-07333-047467FM-12+019399999V0200501N001510450019N0200001N1+02541+02351101441ADDAA106000021AY191061AY251061GF108991041051008001021999KA1240M+02931MA1999999099031MD1999999+0171MW1501REMSYN100AAXX  09004 82765 21598 80503 10254 20235 39903 40144 75095 8452/ 333 10293 29088 55040 58017 69911;
0201827650999992006010912004-07333-047467FM-12+019399999V0203201N000510075019N0100001N1+02281+02051101641ADDAA124045091AY161061AY261061GF108991061051008001021999KA1240N+02151MA1999999099231MD1999999+0131MW1631REMSYN088AAXX  09124 82765 21597 83201 10228 20205 39923 40164 76366 8652/ 333 20215 58013 60454;
0182827650999992006010918004-07333-047467FM-12+019399999V0203201N002110450019N0200001N1+02841+02351101171ADDAA106007991AY161061AY261061GF105991031021008001041001MA1999999098771MD1999999+0071MW1001REMSYN082AAXX  09184 82765 21598 53204 10284 20235 39877 40117 70066 83240 333 58007 60081;
0168827650999992006011000004-07333-047467FM-12+019399999V0202701N002610120019N0200001N1+02461+02271101451ADDGF108991061081008001021999KA1240M+02921MA1999999099031MD1999999+0061REMSYN088AAXX  10004 82765 32598 82705 10246 20227 39903 40145 8682/ 333 10292 29085 55030 58006;
0173827650999992006011012004-07333-047467FM-12+019399999V0200501N000510450019N0200001N1+02521+02251101171ADDAA124007991GF105991041021008001041001KA1240N+02191MA1999999099161MD1999999-0071REMSYN082AAXX  10124 82765 22598 50501 10252 20225 39916 40117 84240 333 20219 59007 60084;
0196827650999992006011100004-07333-047467FM-12+019399999V0209999C000010450019N0200001N1+02681+02311101461ADDAY191061AY291061GF106991041021008001041001KA1240M+03201MA1999999099061MD1999999+0031MW1131REMSYN094AAXX  11004 82765 31598 60000 10268 20231 39906 40146 71399 84240 333 10320 29076 55075 58003;
0156827650999992006011112004-07333-047467FM-12+019399999V0209999C000012200019N0200001N1+02721+02411101401ADDGF104991021011008001041001KA1240N+02331MA1999999099011MD1999999-0151REMSYN076AAXX  11124 82765 32598 40000 10272 20241 39901 40140 82140 333 20233 59015;
0165827650999992006011118004-07333-047467FM-12+019399999V0200501N001510450019N0200001N1+03101+02411101091ADDAY101061AY201061GF106991031031008001041001MA1999999098711MD1999999+0161MW1961REMSYN076AAXX  11184 82765 31598 60503 10310 20241 39871 40109 79600 83340 333 58016;
0137827650999992006011218004-07333-047467FM-12+019399999V0200501N003610450019N0200001N1+03221+02201101151ADDGF106991031021008001011041MA1999999098781MD1999999+0071REMSYN070AAXX  12184 82765 32598 60507 10322 20220 39878 40115 83214 333 58007;
0168827650999992006011300004-07333-047467FM-12+019399999V0209999C000010450019N0200001N1+02751+02481101341ADDGF105991031021008001011001KA1240M+03321MA1999999098951MD1999999+0041REMSYN088AAXX  13004 82765 32598 50000 10275 20248 39895 40134 83210 333 10332 29078 55071 58004;
0156827650999992006011312004-07333-047467FM-12+019399999V0201801N001512200019N0200001N1+02581+02371101561ADDGF104991031011008001001041KA1240N+02311MA1999999099161MD1999999+0001REMSYN076AAXX  13124 82765 32598 41803 10258 20237 39916 40156 83104 333 20231 58000;
0137827650999992006011318004-07333-047467FM-12+019399999V0201101N002610450019N0200001N1+03191+02311101331ADDGF106991031021008001011041MA1999999098951MD1999999+0171REMSYN070AAXX  13184 82765 32598 61105 10319 20231 39895 40133 83214 333 58017;
0168827650999992006011400004-07333-047467FM-12+019399999V0209999C000012200019N0200001N1+02831+02521101311ADDGF102991001001999999001041KA1240M+03261MA1999999098921MD1999999-0031REMSYN088AAXX  14004 82765 32998 20000 10283 20252 39892 40131 80004 333 10326 29079 55063 59003;
0156827650999992006011412004-07333-047467FM-12+019399999V0201801N001012200019N0200001N1+02771+02341101331ADDGF103991011011012501031041KA1240N+02311MA1999999098951MD1999999-0211REMSYN076AAXX  14124 82765 32698 31802 10277 20234 39895 40133 81134 333 20231 59021;
0168827650999992006011500004-07333-047467FM-12+019399999V0203601N000519999999N0200001N1+02861+02441101211ADDGF106991061001008001011001KA1240M+03481MA1999999098841MD1999999-0081REMSYN088AAXX  15004 82765 32598 63601 10286 20244 39884 40121 86010 333 10348 29073 55106 59008;
0156827650999992006011512004-07333-047467FM-12+019399999V0200201N002110075019N0200001N1+02661+02411101371ADDGF108991061021008001021999KA1240N+02491MA1999999098991MD1999999+0041REMSYN076AAXX  15124 82765 32598 80204 10266 20241 39899 40137 8622/ 333 20249 58004;
0137827650999992006011518004-07333-047467FM-12+019399999V0201801N001510075019N0200001N1+03041+02481101061ADDGF106991051021008001021001MA1999999098681MD1999999-0031REMSYN070AAXX  15184 82765 32598 61803 10304 20248 39868 40106 85220 333 59003;
0168827650999992006011600004-07333-047467FM-12+019399999V0200501N000510450019N0200001N1+02801+02401101211ADDGF106991041081008001011001KA1240M+03221MA1999999098831MD1999999-0011REMSYN088AAXX  16004 82765 32598 60501 10280 20240 39883 40121 84810 333 10322 29079 55053 59001;
0156827650999992006011612004-07333-047467FM-12+019399999V0201401N000512200019N0200001N1+02641+02441101341ADDGF104991021021008001041001KA1240N+02331MA1999999098951MD1999999-0041REMSYN076AAXX  16124 82765 32598 41401 10264 20244 39895 40134 82240 333 20233 59004;
0137827650999992006011618004-07333-047467FM-12+019399999V0201401N000510450019N0200001N1+03381+02601101041ADDGF106991031021008001011001MA1999999098671MD1999999-0011REMSYN070AAXX  16184 82765 32598 61401 10338 20260 39867 40104 83210 333 59001;
0168827650999992006011700004-07333-047467FM-12+019399999V0209999C000010450019N0200001N1+02881+02521101151ADDGF105991011021008001021001KA1240M+03461MA1999999098771MD1999999-0061REMSYN088AAXX  17004 82765 32598 50000 10288 20252 39877 40115 81220 333 10346 29076 55090 59006;
0156827650999992006011712004-07333-047467FM-12+019399999V0201801N002610450019N0200001N1+02661+02351101371ADDGF106991021011008001041001KA1240N+02371MA1999999098991MD1999999+0041REMSYN076AAXX  17124 82765 32598 61805 10266 20235 39899 40137 82140 333 20237 58004;
0137827650999992006011718004-07333-047467FM-12+019399999V0201401N001510450019N0200001N1+03441+02111101061ADDGF106991031021008001041001MA1999999098701MD1999999+0031REMSYN070AAXX  17184 82765 32598 61403 10344 20211 39870 40106 83240 333 58003;
0178827650999992006011800004-07333-047467FM-12+019399999V0200501N001012200019N0200001N1+02951+02491101181ADDGA1001+999999999GF100991001001999999001001KA1240M+03511MA1999999098811MD1999999+0041REMSYN082AAXX  18004 82765 32998 00502 10295 20249 39881 40118 333 10351 29071 55098 58004;
0156827650999992006011812004-07333-047467FM-12+019399999V0203201N002110450019N0200001N1+02801+02361101441ADDGF106991041021008001041001KA1240N+02501MA1999999099071MD1999999+0081REMSYN076AAXX  18124 82765 32598 63204 10280 20236 39907 40144 84240 333 20250 58008;
0232827650999992006011900004-07333-047467FM-12+019399999V0203601N001510450019N0200001N1+02481+02411101391ADDAA106000091AY191061AY251061GF106991041081008001021001KA1240M+03361MA1999999098981MD1999999+0171MW1131REMSYN100AAXX  19004 82765 21598 63603 10248 20241 39898 40139 71395 84820 333 10336 29082 55076 58017 69921;EQDQ01  00002PRCP06
0192827650999992006011912004-07333-047467FM-12+019399999V0203601N001510450019N0200001N1+02601+02191101371ADDAA124000091GF106991041011008001041001KA1240N+02251MA1999999098971MD1999999-0101REMSYN082AAXX  19124 82765 22598 63603 10260 20219 39897 40137 84140 333 20225 59010 69924;EQDQ01  00002PRCP24
0137827650999992006011918004-07333-047467FM-12+019399999V0202901N002610450019N0200001N1+03061+02351100911ADDGF106991041021008001041001MA1999999098521MD1999999-0121REMSYN070AAXX  19184 82765 32598 62905 10306 20235 39852 40091 84240 333 59012;
0173827650999992006012012004-07333-047467FM-12+019399999V0209999C000010120019N0200001N1+02441+02271101381ADDAA124000591GF107991051081008001041001KA1240N+02331MA1999999098971MD1999999+0001REMSYN082AAXX  20124 82765 22598 70000 10244 20227 39897 40138 85840 333 20233 58000 69944;
0137827650999992006012018004-07333-047467FM-12+019399999V0200501N003110120019N0200001N1+02881+02281101121ADDGF107991061081008001021001MA1999999098721MD1999999+0201REMSYN070AAXX  20184 82765 32598 70506 10288 20228 39872 40112 86820 333 58020;
0168827650999992006012100004-07333-047467FM-12+019399999V0202301N001010120019N0200001N1+02521+01191101181ADDGF108991061081008001021999KA1240M+03301MA1999999098781MD1999999-0051REMSYN088AAXX  21004 82765 32598 82302 10252 20119 39878 40118 8682/ 333 10330 29081 55052 59005;
0156827650999992006012112004-07333-047467FM-12+019399999V0201401N001012200019N0200001N1+02611+02291101401ADDGF104991021011008001041091KA1240N+02241MA1999999099001MD1999999+0031REMSYN076AAXX  21124 82765 32598 41402 10261 20229 39900 40140 82149 333 20224 58003;
0137827650999992006012118004-07333-047467FM-12+019399999V0201401N004110450019N0200001N1+03231+02111101071ADDGF105991031021008001031041MA1999999098691MD1999999-0031REMSYN070AAXX  21184 82765 32598 51408 10323 20211 39869 40107 83234 333 59003;
0178827650999992006012200004-07333-047467FM-12+019399999V0200501N002612200019N0200001N1+02831+02171101141ADDGA1001+999999999GF100991001001999999001001KA1240M+03371MA1999999098761MD1999999-0021REMSYN082AAXX  22004 82765 32998 00505 10283 20217 39876 40114 333 10337 29068 55101 59002;
0156827650999992006012212004-07333-047467FM-12+019399999V0203601N000512200019N0200001N1+02721+02411101421ADDGF103991031011008001001001KA1240N+02291MA1999999099041MD1999999+0041REMSYN076AAXX  22124 82765 32598 33601 10272 20241 39904 40142 83100 333 20229 58004;
0137827650999992006012218004-07333-047467FM-12+019399999V0200501N001510450019N0200001N1+03401+02311101071ADDGF106991041011008001041001MA1999999098711MD1999999+0021REMSYN070AAXX  22184 82765 32598 60503 10340 20231 39871 40107 84140 333 58002;
0178827650999992006012300004-07333-047467FM-12+019399999V0209999C000012200019N0200001N1+02841+02441101151ADDGA1001+999999999GF100991001001999999001001KA1240M+03461MA1999999098781MD1999999+0021REMSYN082AAXX  23004 82765 32998 00000 10284 20244 39878 40115 333 10346 29074 55106 58002;
0156827650999992006012312004-07333-047467FM-12+019399999V0209999C000012200019N0200001N1+02851+02441101391ADDGF103991011011012501061041KA1240N+02411MA1999999099021MD1999999-0021REMSYN076AAXX  23124 82765 32698 30000 10285 20244 39902 40139 81164 333 20241 59002;
0182827650999992006012318004-07333-047467FM-12+019399999V0202301N002610450019N0200001N1+02431+02131101111ADDAA106007191AY161061AY221061GF107991041021008001021031MA1999999098701MD1999999-0011MW1031REMSYN082AAXX  23184 82765 21598 72305 10243 20213 39870 40111 70362 84223 333 59001 60071;
0178827650999992006012400004-07333-047467FM-12+019399999V0202001N001012200019N0200001N1+02481+02341101191ADDGA1001+999999999GF100991001001999999001001KA1240M+03321MA1999999098801MD1999999+0021REMSYN082AAXX  24004 82765 32998 02002 10248 20234 39880 40119 333 10332 29087 55057 58002;
0173827650999992006012412004-07333-047467FM-12+019399999V0200501N000512200019N0200001N1+02681+02431101401ADDAA124007191GF102991021011008001001001KA1240N+02271MA1999999099001MD1999999-0021REMSYN082AAXX  24124 82765 22598 20501 10268 20243 39900 40140 82100 333 20227 59002 60074;
0137827650999992006012418004-07333-047467FM-12+019399999V0200901N001510075019N0200001N1+03341+02431100991ADDGF105991051021008001001001MA1999999098621MD1999999-0081REMSYN070AAXX  24184 82765 32598 50903 10334 20243 39862 40099 85200 333 59008;
0223827650999992006012500004-07333-047467FM-12+019399999V0203601N000512200019N0200001N1+02881+02581101041ADDAA106000391AY151061AY251061GA1001+999999999GF100991001001999999001001KA1240M+03521MA1999999098671MD1999999-0131MW1001REMSYN094AAXX  25004 82765 21998 03601 10288 20258 39867 40104 70055 333 10352 29078 55089 59013 69931;
0173827650999992006012512004-07333-047467FM-12+019399999V0201801N001510450019N0200001N1+02661+02291101551ADDAA124000391GF107991031011008001041001KA1240N+02451MA1999999099161MD1999999+0161REMSYN082AAXX  25124 82765 22598 71803 10266 20229 39916 40155 83140 333 20245 58016 69934;
0137827650999992006012518004-07333-047467FM-12+019399999V0203601N001510450019N0200001N1+03361+02481101241ADDGF106991031021008001041001MA1999999098871MD1999999+0251REMSYN070AAXX  25184 82765 32598 63603 10336 20248 39887 40124 83240 333 58025;
0196827650999992006012600004-07333-047467FM-12+019399999V0209999C000012200019N0200001N1+03061+02671101221ADDAY101061AY201061GF103991021031008001041001KA1240M+03481MA1999999098851MD1999999+0181MW1131REMSYN094AAXX  26004 82765 31598 30000 10306 20267 39885 40122 71300 82340 333 10348 29075 55087 58018;
0201827650999992006012612004-07333-047467FM-12+019399999V0203401N001510450019N0200001N1+02601+02511101561ADDAA124002091AY191061AY261061GF108991041081008001021999KA1240N+02581MA1999999099181MD1999999+0021MW1001REMSYN088AAXX  26124 82765 21598 83403 10260 20251 39918 40156 70096 8482/ 333 20258 58002 60024;
0137827650999992006012618004-07333-047467FM-12+019399999V0200501N001510450019N0200001N1+03301+02581101171ADDGF106991031021008001041001MA1999999098811MD1999999-0061REMSYN070AAXX  26184 82765 32598 60503 10330 20258 39881 40117 83240 333 59006;
0178827650999992006012700004-07333-047467FM-12+019399999V0202901N002112200019N0200001N1+02981+02551101271ADDGA1001+999999999GF100991001001999999001001KA1240M+03381MA1999999098891MD1999999+0041REMSYN082AAXX  27004 82765 32998 02904 10298 20255 39889 40127 333 10338 29079 55052 58004;
0156827650999992006012712004-07333-047467FM-12+019399999V0209999C000011050019N0200001N1+02891+02541101581ADDGF105991021011012501061041KA1240N+02591MA1999999099241MD1999999+0061REMSYN076AAXX  27124 82765 32698 50000 10289 20254 39924 40158 82164 333 20259 58006;
0137827650999992006012718004-07333-047467FM-12+019399999V0202301N000510075019N0200001N1+03151+02691101201ADDGF108991051071008001021999MA1999999098841MD1999999+0031REMSYN070AAXX  27184 82765 32598 82301 10315 20269 39884 40120 8572/ 333 58003;
0156827650999992006012812004-07333-047467FM-12+019399999V0201401N001510450019N0200001N1+02661+02461101631ADDGF107991041081008001041001KA1240N+02411MA1999999099241MD1999999+0001REMSYN076AAXX  28124 82765 32598 71403 10266 20246 39924 40163 84840 333 20241 58000;
0137827650999992006012818004-07333-047467FM-12+019399999V0202301N000512200019N0200001N1+03361+02361101161ADDGF104991031021008001041001MA1999999098791MD1999999+0051REMSYN070AAXX  28184 82765 32598 42301 10336 20236 39879 40116 83240 333 58005;
0196827650999992006012900004-07333-047467FM-12+019399999V0201801N000510450019N0200001N1+02501+02171101521ADDAY191061AY291061GF108991041031008001021999KA1240M+03521MA1999999099121MD1999999+0151MW1291REMSYN094AAXX  29004 82765 31598 81801 10250 20217 39912 40152 72999 8432/ 333 10352 29077 55093 58015;
0182827650999992006012918004-07333-047467FM-12+019399999V0203201N002110450019N0200001N1+02561+02271101241ADDAA106007991AY191061AY261061GF106991021031008001021001MA1999999098821MD1999999+0031MW1291REMSYN082AAXX  29184 82765 21598 63204 10256 20227 39882 40124 72996 82320 333 58003 60081;
0196827650999992006013000004-07333-047467FM-12+019399999V0200501N000512200019N0200001N1+02761+02501101201ADDAY101061AY201061GF103991021021008001041001KA1240M+03281MA1999999098821MD1999999-0301MW1131REMSYN094AAXX  30004 82765 31598 30501 10276 20250 39882 40120 71300 82240 333 10328 29085 55058 59030;
0173827650999992006013012004-07333-047467FM-12+019399999V0203201N000510075019N0200001N1+02721+02451101461ADDAA124007991GF105991051031008001001001KA1240N+02381MA1999999099071MD1999999-0011REMSYN082AAXX  30124 82765 22598 53201 10272 20245 39907 40146 85300 333 20238 59001 60084;
0137827650999992006013018004-07333-047467FM-12+019399999V0202301N001010450019N0200001N1+03321+02321101011ADDGF106991041031008001061001MA1999999098641MD1999999-0181REMSYN070AAXX  30184 82765 32598 62302 10332 20232 39864 40101 84360 333 59018;
0201827650999992006013112004-07333-047467FM-12+019399999V0209999C000010450019N0200001N1+02741+02481101441ADDAA124016091AY151061AY221061GF106991041021008001031001KA1240N+02441MA1999999099051MD1999999-0071MW1031REMSYN088AAXX  31124 82765 21598 60000 10274 20248 39905 40144 70352 84230 333 20244 59007 60164;
0182827650999992006013118004-07333-047467FM-12+019399999V0200501N003110042019N0200001N1+02861+02391101121ADDAA106005191AY161061AY221061GF108991051021004501021999MA1999999098731MD1999999+0091MW1031REMSYN082AAXX  31184 82765 21498 80506 10286 20239 39873 40112 70362 8522/ 333 58009 60051;
0213827650999992006020100004-07333-047467FM-12+019399999V0209999C000010450019N0200001N1+02391+02261101231ADDAA106000591AY161061AY221061GF106991041021008001011001KA1240M+03061MA1999999098831MD1999999-0011MW1131REMSYN100AAXX  01004 82765 21598 60000 10239 20226 39883 40123 71362 84210 333 10306 29087 55040 59001 69951;
0201827650999992006020112004-07333-047467FM-12+019399999V0201401N001510042019N0040001N1+02361+02281101471ADDAA124005191AY121061AY221061GF108991081071004501999999KA1240N+02341MA1999999099051MD1999999+0001MW1611REMSYN088AAXX  01124 82765 21496 81403 10236 20228 39905 40147 76122 887// 333 20234 58000 60054;
0182827650999992006020118004-07333-047467FM-12+019399999V0201401N000510090019N0200001N1+02281+02211101251ADDAA106025991AY161061AY251061GF108991051081004501021999MA1999999098821MD1999999+0091MW1021REMSYN082AAXX  01184 82765 21498 81401 10228 20221 39882 40125 70265 8582/ 333 58009 60261;
0168827650999992006020200004-07333-047467FM-12+019399999V0209999C000010090019N0200001N1+02381+02291101371ADDGF108991051081004501021999KA1240M+02481MA1999999098951MD1999999+0121REMSYN088AAXX  02004 82765 32498 80000 10238 20229 39895 40137 8582/ 333 10248 29095 55000 58012;
0201827650999992006020212004-07333-047467FM-12+019399999V0203601N001010450019N0200001N1+02401+02281101451ADDAA124034091AY161061AY261061GF108991021011008001021999KA1240N+02251MA1999999099031MD1999999-0021MW1031REMSYN088AAXX  02124 82765 21598 83602 10240 20228 39903 40145 70366 8212/ 333 20225 59002 60344;
0137827650999992006020218004-07333-047467FM-12+019399999V0203601N001510450019N0200001N1+03041+02431101131ADDGF108991041021008001041001MA1999999098741MD1999999-0081REMSYN070AAXX  02184 82765 32598 83603 10304 20243 39874 40113 84240 333 59008;
0213827650999992006020300004-07333-047467FM-12+019399999V0203601N002610450019N0200001N1+02441+02341101401ADDAA106004191AY161061AY261061GF108991031081008001021999KA1240M+03181MA1999999098981MD1999999+0031MW1031REMSYN100AAXX  03004 82765 21598 83605 10244 20234 39898 40140 70366 8382/ 333 10318 29088 55026 58003 60041;
0201827650999992006020312004-07333-047467FM-12+019399999V0202701N001010450019N0200001N1+02381+02291101381ADDAA124025991AY161061AY261061GF108991041051008001021999KA1240N+02331MA1999999098961MD1999999-0071MW1031REMSYN088AAXX  03124 82765 21598 82702 10238 20229 39896 40138 70366 8452/ 333 20233 59007 60264;
0165827650999992006020318004-07333-047467FM-12+019399999V0202701N002610450019N0200001N1+03081+02401101011ADDAY101061AY201061GF106991041021008001041001MA1999999098631MD1999999-0111MW1151REMSYN076AAXX  03184 82765 31598 62705 10308 20240 39863 40101 71500 84240 333 59011;
0213827650999992006020400004-07333-047467FM-12+019399999V0209999C000010075019N0200001N1+02541+02381101301ADDAA106000021AY151061AY251061GF108991051051008001021999KA1240M+03201MA1999999098891MD1999999-0091MW1511REMSYN100AAXX  04004 82765 21598 80000 10254 20238 39889 40130 75155 8552/ 333 10320 29086 55054 59009 69921;
0137827650999992006020418004-07333-047467FM-12+019399999V0202001N002612200019N0200001N1+03021+02261100921ADDGF104991031021008001041001MA1999999098511MD1999999-0091REMSYN070AAXX  04184 82765 32598 42005 10302 20226 39851 40092 83240 333 59009;
0201827650999992006020512004-07333-047467FM-12+019399999V0209999C000010120019N0200001N1+02461+02341101511ADDAA124023191AY151061AY251061GF108991061081008001021999KA1240N+02371MA1999999099091MD1999999+0121MW1001REMSYN088AAXX  05124 82765 21598 80000 10246 20234 39909 40151 70055 8682/ 333 20237 58012 60234;
0137827650999992006020518004-07333-047467FM-12+019399999V0203201N001510120019N0200001N1+02921+02471101081ADDGF107991051081008001041001MA1999999098691MD1999999+0151REMSYN070AAXX  05184 82765 32598 73203 10292 20247 39869 40108 85840 333 58015;
0213827650999992006020600004-07333-047467FM-12+019399999V0209999C000010075019N0200001N1+02501+02311101361ADDAA106000021AY101061AY201061GF108991061051008001021999KA1240M+02961MA1999999098951MD1999999+0071MW1511REMSYN100AAXX  06004 82765 21598 80000 10250 20231 39895 40136 75100 8652/ 333 10296 29087 55018 58007 69921;
0201827650999992006020612004-07333-047467FM-12+019399999V0209999C000010120019N0200001N1+02421+02301101561ADDAA124008991AY161061AY261061GF108991061081008001021999KA1240N+02351MA1999999099141MD1999999+0051MW1001REMSYN088AAXX  06124 82765 21598 80000 10242 20230 39914 40156 70066 8682/ 333 20235 58005 60094;
0137827650999992006020618004-07333-047467FM-12+019399999V0209999C000010450019N0200001N1+03021+02441101121ADDGF106991041021008001041001MA1999999098731MD1999999+0041REMSYN070AAXX  06184 82765 32598 60000 10302 20244 39873 40112 84240 333 58004;
0213827650999992006020700004-07333-047467FM-12+019399999V0200701N003110075019N0200001N1+02461+02321101451ADDAA106014091AY161061AY261061GF108991061051008001021999KA1240M+03121MA1999999099041MD1999999+0091MW1511REMSYN100AAXX  07004 82765 21598 80706 10246 20232 39904 40145 75166 8652/ 333 10312 29087 55034 58009 60141;
0201827650999992006020712004-07333-047467FM-12+019399999V0203601N001510120019N0200001N1+02361+02221101521ADDAA124015091AY151061AY251061GF108991061081008001021999KA1240N+02231MA1999999099101MD1999999-0041MW1001REMSYN088AAXX  07124 82765 21598 83603 10236 20222 39910 40152 70055 8682/ 333 20223 59004 60154;
0137827650999992006020718004-07333-047467FM-12+019399999V0203601N001510450019N0200001N1+03141+02271101141ADDGF106991041021008001041001MA1999999098761MD1999999+0031REMSYN070AAXX  07184 82765 32598 63603 10314 20227 39876 40114 84240 333 58003;
0168827650999992006020800004-07333-047467FM-12+019399999V0209999C000012200019N0200001N1+02661+02431101311ADDGF102991021011008001001001KA1240M+03221MA1999999098901MD1999999-0141REMSYN088AAXX  08004 82765 32598 20000 10266 20243 39890 40131 82100 333 10322 29082 55046 59014;
0166827650999992006020812004-07333-047467FM-12+019399999V0200201N001512200019N0200001N1+02611+02291101491ADDGA1001+999999999GF100991001001999999001001KA1240N+02261MA1999999099091MD1999999-0011REMSYN070AAXX  08124 82765 32998 00203 10261 20229 39909 40149 333 20226 59001;
0137827650999992006020818004-07333-047467FM-12+019399999V0203601N002610075019N0200001N1+03281+02161101091ADDGF105991051021008001001001MA1999999098721MD1999999-0041REMSYN070AAXX  08184 82765 32598 53605 10328 20216 39872 40109 85200 333 59004;
0178827650999992006020900004-07333-047467FM-12+019399999V0200501N000512200019N0200001N1+02891+02501101251ADDGA1001+999999999GF100991001001999999001001KA1240M+03411MA1999999098871MD1999999-0031REMSYN082AAXX  09004 82765 32998 00501 10289 20250 39887 40125 333 10341 29074 55108 59003;
0137827650999992006020918004-07333-047467FM-12+019399999V0202301N001510450019N0200001N1+03331+02441101231ADDGF106991041021008001061001MA1999999098861MD1999999+0141REMSYN070AAXX  09184 82765 32598 62303 10333 20244 39886 40123 84260 333 58014;
0168827650999992006021000004-07333-047467FM-12+019399999V0209999C000010450019N0200001N1+02951+02581101331ADDGF108991041011008001011999KA1240M+03441MA1999999098951MD1999999+0081REMSYN088AAXX  10004 82765 32598 80000 10295 20258 39895 40133 8411/ 333 10344 29076 55088 58008;
0201827650999992006021012004-07333-047467FM-12+019399999V0202701N002110450019N0200001N1+02591+02481101671ADDAA124000891AY161061AY221061GF107991041021004501041041KA1240N+02551MA1999999099281MD1999999+0071MW1031REMSYN088AAXX  10124 82765 21498 72704 10259 20248 39928 40167 70362 84244 333 20255 58007 69984;
0137827650999992006021018004-07333-047467FM-12+019399999V0203201N001510450019N0200001N1+03171+02421101311ADDGF108991031021008001011999MA1999999098941MD1999999+0081REMSYN070AAXX  10184 82765 32598 83203 10317 20242 39894 40131 8321/ 333 58008;
0168827650999992006021100004-07333-047467FM-12+019399999V0200901N001510450019N0200001N1+02821+02561101501ADDGF108991021011008001011999KA1240M+03221MA1999999099111MD1999999+0161REMSYN088AAXX  11004 82765 32598 80903 10282 20256 39911 40150 8211/ 333 10322 29083 55032 58016;
0201827650999992006021112004-07333-047467FM-12+019399999V0209999C000010450019N0200001N1+02461+02321101681ADDAA124049091AY161061AY261061GF107991031081008001041001KA1240N+02311MA1999999099281MD1999999+0001MW1001REMSYN088AAXX  11124 82765 21598 70000 10246 20232 39928 40168 70066 83840 333 20231 58000 60494;
0137827650999992006021118004-07333-047467FM-12+019399999V0200501N001010450019N0200001N1+02941+02401101281ADDGF106991031021008001011001MA1999999098881MD1999999-0061REMSYN070AAXX  11184 82765 32598 60502 10294 20240 39888 40128 83210 333 59006;
0168827650999992006021200004-07333-047467FM-12+019399999V0209999C000010450019N0200001N1+02741+02541101381ADDGF108991021011008001011999KA1240M+03121MA1999999098981MD1999999-0131REMSYN088AAXX  12004 82765 32598 80000 10274 20254 39898 40138 8211/ 333 10312 29086 55007 59013;
0201827650999992006021212004-07333-047467FM-12+019399999V0203601N001510450019N0200001N1+02501+02361101671ADDAA124002091AY161061AY261061GF108991041081008001021999KA1240N+02451MA1999999099261MD1999999-0021MW1031REMSYN088AAXX  12124 82765 21598 83603 10250 20236 39926 40167 70366 8482/ 333 20245 59002 60024;
0137827650999992006021218004-07333-047467FM-12+019399999V0202501N001010075019N0200001N1+02801+02361101361ADDGF108991061021008001021999MA1999999098961MD1999999+0081REMSYN070AAXX  12184 82765 32598 82502 10280 20236 39896 40136 8622/ 333 58008;
0213827650999992006021300004-07333-047467FM-12+019399999V0209999C000010120019N0200001N1+02381+02261101571ADDAA106000591AY151061AY251061GF108991051081008001021999KA1240M+02901MA1999999099151MD1999999+0171MW1031REMSYN100AAXX  13004 82765 21598 80000 10238 20226 39915 40157 70355 8582/ 333 10290 29089 55000 58017 69961;
0173827650999992006021312004-07333-047467FM-12+019399999V0209999C000010120019N0200001N1+02441+02341101761ADDAA124001091GF108991061081008001021999KA1240N+02311MA1999999099331MD1999999+0071REMSYN082AAXX  13124 82765 22598 80000 10244 20234 39933 40176 8682/ 333 20231 58007 60014;
0168827650999992006021400004-07333-047467FM-12+019399999V0201801N000510450019N0200001N1+02601+02401101471ADDGF107991031011008001011001KA1240M+03021MA1999999099061MD1999999-0091REMSYN088AAXX  14004 82765 32598 71801 10260 20240 39906 40147 83110 333 10302 29088 55038 59009;
0201827650999992006021412004-07333-047467FM-12+019399999V0203201N001010120019N0200001N1+02481+02411101661ADDAA124005191AY161061AY261061GF107991051081008001041001KA1240N+02291MA1999999099251MD1999999-0081MW1001REMSYN088AAXX  14124 82765 21598 73202 10248 20241 39925 40166 70066 85840 333 20229 59008 60054;
0137827650999992006021418004-07333-047467FM-12+019399999V0203201N001510450019N0200001N1+03021+02611101231ADDGF105991031021008001041001MA1999999098841MD1999999-0101REMSYN070AAXX  14184 82765 32598 53203 10302 20261 39884 40123 83240 333 59010;
0168827650999992006021500004-07333-047467FM-12+019399999V0209999C000010120019N0200001N1+02701+02461101461ADDGF107991061081008001041001KA1240M+03181MA1999999099061MD1999999+0001REMSYN088AAXX  15004 82765 32598 70000 10270 20246 39906 40146 86840 333 10318 29085 55051 58000;
0156827650999992006021512004-07333-047467FM-12+019399999V0203201N000510450019N0200001N1+02621+02351101541ADDGF106991041081008001041001KA1240N+02451MA1999999099151MD1999999-0101REMSYN076AAXX  15124 82765 32598 63201 10262 20235 39915 40154 84840 333 20245 59010;
0137827650999992006021518004-07333-047467FM-12+019399999V0201801N000510450019N0200001N1+03161+02391101301ADDGF107991041011008001071001MA1999999098921MD1999999+0081REMSYN070AAXX  15184 82765 32598 71801 10316 20239 39892 40130 84170 333 58008;
0168827650999992006021600004-07333-047467FM-12+019399999V0209999C000012200019N0200001N1+02741+02451101321ADDGF104991021021008001041001KA1240M+03221MA1999999098931MD1999999-0131REMSYN088AAXX  16004 82765 32598 40000 10274 20245 39893 40132 82240 333 10322 29079 55033 59013;
0156827650999992006021612004-07333-047467FM-12+019399999V0201801N000512200019N0200001N1+02681+02501101481ADDGF104991021011008001071001KA1240N+02411MA1999999099091MD1999999-0061REMSYN076AAXX  16124 82765 32598 41801 10268 20250 39909 40148 82170 333 20241 59006;
0137827650999992006021618004-07333-047467FM-12+019399999V0202301N002110450019N0200001N1+03321+02321101111ADDGF106991041021008001041001MA1999999098691MD1999999-0231REMSYN070AAXX  16184 82765 32598 62304 10332 20232 39869 40111 84240 333 59023;
0168827650999992006021700004-07333-047467FM-12+019399999V0202001N001010450019N0200001N1+02641+02181101341ADDGF105991031021008001041001KA1240M+03381MA1999999098951MD1999999+0021REMSYN088AAXX  17004 82765 32598 52002 10264 20218 39895 40134 83240 333 10338 29074 55092 58002;
0156827650999992006021712004-07333-047467FM-12+019399999V0202501N001010450019N0200001N1+02451+02271101531ADDGF107991041011008001031001KA1240N+02321MA1999999099121MD1999999+0031REMSYN076AAXX  17124 82765 32598 72502 10245 20227 39912 40153 84130 333 20232 58003;
0137827650999992006021718004-07333-047467FM-12+019399999V0202701N004110450019N0200001N1+02911+02201101121ADDGF106991031021008001061041MA1999999098731MD1999999+0041REMSYN070AAXX  17184 82765 32598 62708 10291 20220 39873 40112 83264 333 58004;
0168827650999992006021800004-07333-047467FM-12+019399999V0209999C000010450019N0200001N1+02741+02431101271ADDGF107991041021008001021001KA1240M+03131MA1999999098871MD1999999-0081REMSYN088AAXX  18004 82765 32598 70000 10274 20243 39887 40127 84220 333 10313 29080 55052 59008;
0201827650999992006021812004-07333-047467FM-12+019399999V0202901N001510450019N0200001N1+02341+02241101641ADDAA124054191AY161061AY261061GF107991041081004501031001KA1240N+02261MA1999999099231MD1999999+0111MW1031REMSYN088AAXX  18124 82765 21498 72903 10234 20224 39923 40164 70366 84830 333 20226 58011 60544;
0137827650999992006021818004-07333-047467FM-12+019399999V0202301N002112200019N0200001N1+03161+02341101211ADDGF104991021021008001031091MA1999999098831MD1999999+0101REMSYN070AAXX  18184 82765 32598 42304 10316 20234 39883 40121 82239 333 58010;
0178827650999992006021900004-07333-047467FM-12+019399999V0209999C000012200019N0200001N1+02861+02581101331ADDGA1001+999999999GF100991001001999999001001KA1240M+03391MA1999999098931MD1999999+0061REMSYN082AAXX  19004 82765 32998 00000 10286 20258 39893 40133 333 10339 29082 55074 58006;
0156827650999992006021912004-07333-047467FM-12+019399999V0209999C000012200019N0200001N1+02631+02331101621ADDGF103991031011008001001001KA1240N+02401MA1999999099231MD1999999+0001REMSYN076AAXX  19124 82765 32598 30000 10263 20233 39923 40162 83100 333 20240 58000;
0137827650999992006021918004-07333-047467FM-12+019399999V0203601N001512200019N0200001N1+03261+02381101221ADDGF104991021021008001061051MA1999999098851MD1999999+0021REMSYN070AAXX  19184 82765 32598 43603 10326 20238 39885 40122 82265 333 58002;
0196827650999992006022000004-07333-047467FM-12+019399999V0200501N001510450019N0200001N1+02811+02291101411ADDAY121061AY221061GF105991031021004501021001KA1240M+03361MA1999999099021MD1999999+0091MW1131REMSYN094AAXX  20004 82765 31498 50503 10281 20229 39902 40141 71322 83220 333 10336 29073 55095 58009;
0156827650999992006022012004-07333-047467FM-12+019399999V0200901N000519999999N0200001N1+02621+02371101431ADDGF106991021001008001041021KA1240N+02371MA1999999099041MD1999999-0191REMSYN076AAXX  20124 82765 32598 60901 10262 20237 39904 40143 82042 333 20237 59019;
0165827650999992006022018004-07333-047467FM-12+019399999V0203601N002610075019N0200001N1+02721+02261101071ADDAY191061AY201061GF107991051021008001041001MA1999999098671MD1999999-0181MW1291REMSYN076AAXX  20184 82765 31598 73605 10272 20226 39867 40107 72990 85240 333 59018;
0213827650999992006022100004-07333-047467FM-12+019399999V0203601N001510450019N0200001N1+02261+02111101271ADDAA106009991AY191061AY261061GF108991021031008001021999KA1240M+03361MA1999999098861MD1999999-0161MW1631REMSYN100AAXX  21004 82765 21598 83603 10226 20211 39886 40127 76396 8232/ 333 10336 29086 55062 59016 60101;
0201827650999992006022112004-07333-047467FM-12+019399999V0202701N001010120019N0200001N1+02361+02281101541ADDAA124011991AY191061AY261061GF108991051081008001021999KA1240N+02251MA1999999099111MD1999999+0071MW1031REMSYN088AAXX  21124 82765 21598 82702 10236 20228 39911 40154 70396 8582/ 333 20225 58007 60124;
0165827650999992006022118004-07333-047467FM-12+019399999V0201801N002110450019N0200001N1+03001+02441101171ADDAY101061AY201061GF108991031021008001011999MA1999999098781MD1999999+0111MW1291REMSYN076AAXX  21184 82765 31598 81804 10300 20244 39878 40117 72900 8321/ 333 58011;
0223827650999992006022200004-07333-047467FM-12+019399999V0203601N000512200019N0200001N1+02641+02481101181ADDAA106000391AY151061AY201061GA1001+999999999GF100991001001999999001001KA1240M+03041MA1999999098781MD1999999-0081MW1001REMSYN094AAXX  22004 82765 21998 03601 10264 20248 39878 40118 70050 333 10304 29087 55000 59008 69931;
0173827650999992006022212004-07333-047467FM-12+019399999V0209999C000010075019N0200001N1+02601+02421101581ADDAA124000391GF107991061021008001041001KA1240N+02391MA1999999099181MD1999999+0071REMSYN082AAXX  22124 82765 22598 70000 10260 20242 39918 40158 86240 333 20239 58007 69934;
0137827650999992006022218004-07333-047467FM-12+019399999V0202901N001510075019N0200001N1+03261+02331101091ADDGF106991051021008001041001MA1999999098721MD1999999-0061REMSYN070AAXX  22184 82765 32598 62903 10326 20233 39872 40109 85240 333 59006;
0168827650999992006022300004-07333-047467FM-12+019399999V0209999C000012200019N0200001N1+02901+02521101201ADDGF102991021031008001001001KA1240M+03361MA1999999098821MD1999999+0041REMSYN088AAXX  23004 82765 32598 20000 10290 20252 39882 40120 82300 333 10336 29077 55104 58004;
0156827650999992006022312004-07333-047467FM-12+019399999V0200501N000510450019N0200001N1+02741+02451101541ADDGF105991031021008001041001KA1240N+02451MA1999999099161MD1999999-0021REMSYN076AAXX  23124 82765 32598 50501 10274 20245 39916 40154 83240 333 20245 59002;
0137827650999992006022318004-07333-047467FM-12+019399999V0203201N002110450019N0200001N1+03341+02431101071ADDGF105991041021008001041001MA1999999098701MD1999999-0021REMSYN070AAXX  23184 82765 32598 53204 10334 20243 39870 40107 84240 333 59002;
0196827650999992006022400004-07333-047467FM-12+019399999V0203401N001010450019N0200001N1+02841+02441101321ADDAY191061AY291061GF106991041081008001041001KA1240M+03441MA1999999098941MD1999999+0121MW1131REMSYN094AAXX  24004 82765 31598 63402 10284 20244 39894 40132 71399 84840 333 10344 29075 55099 58012;
0156827650999992006022412004-07333-047467FM-12+019399999V0209999C000010075019N0200001N1+02501+02271101491ADDGF108991051051008001011999KA1240N+02371MA1999999099091MD1999999-0071REMSYN076AAXX  24124 82765 32598 80000 10250 20227 39909 40149 8551/ 333 20237 59007;
0182827650999992006022418004-07333-047467FM-12+019399999V0202301N000510120019N0200001N1+02721+02471101121ADDAA106011991AY191061AY261061GF108991061081008001051999MA1999999098721MD1999999+0021MW1001REMSYN082AAXX  24184 82765 21598 82301 10272 20247 39872 40112 70096 8685/ 333 58002 60121;
0213827650999992006022500004-07333-047467FM-12+019399999V0201401N001510075019N0200001N1+02521+02401101411ADDAA106020191AY191061AY261061GF108991051051008001021999KA1240M+03061MA1999999099001MD1999999+0061MW1551REMSYN100AAXX  25004 82765 21598 81403 10252 20240 39900 40141 75596 8552/ 333 10306 29090 55024 58006 60201;
0167827650999992006022512004-07333-047467FM-12+019399999V0203601N002119999999N0200001N1+02601+02391101581ADDGF108991999999004501999999KA1240N+02351MA1999999099171MD1999999+0081REMSYN087AAXX  25124 82765 21498 83604 10260 20239 39917 40158 7362 8582/ 333 20235 58008 60424;
0182827650999992006022518004-07333-047467FM-12+019399999V0203201N002610450019N0200001N1+03041+02591101051ADDAA106002091AY161061AY221061GF105991031091004501061041MA1999999098661MD1999999-0061MW1031REMSYN082AAXX  25184 82765 21498 53205 10304 20259 39866 40105 70362 83964 333 59006 60021;
0168827650999992006022600004-07333-047467FM-12+019399999V0203601N001510090019N0200001N1+02641+02461101271ADDGF108991051081004501021999KA1240M+03221MA1999999098871MD1999999-0131REMSYN088AAXX  26004 82765 32498 83603 10264 20246 39887 40127 8582/ 333 10322 29086 55057 59013;
0201827650999992006022612004-07333-047467FM-12+019399999V0209999C000010090019N0200001N1+02561+02461101491ADDAA124003091AY161061AY221061GF108991051081004501021999KA1240N+02501MA1999999099091MD1999999-0081MW1031REMSYN088AAXX  26124 82765 21498 80000 10256 20246 39909 40149 70362 8582/ 333 20250 59008 60034;
0182827650999992006022618004-07333-047467FM-12+019399999V0201801N002610090019N0100001N1+02981+02631101071ADDAA106000591AY161061AY221061GF108991051081004501021999MA1999999098691MD1999999+0031MW1521REMSYN082AAXX  26184 82765 21497 81805 10298 20263 39869 40107 75262 8582/ 333 58003 69951;
0213827650999992006022700004-07333-047467FM-12+019399999V0200501N002110090019N0200001N1+02651+02501101221ADDAA106000391AY151061AY221061GF108991051081004501021999KA1240M+03081MA1999999098831MD1999999-0041MW1131REMSYN100AAXX  27004 82765 21498 80504 10265 20250 39883 40122 71352 8582/ 333 10308 29088 55017 59004 69931;
0201827650999992006022712004-07333-047467FM-12+019399999V0209999C000010450019N0200001N1+02601+02391101481ADDAA124001091AY151061AY221061GF107991041081004501021001KA1240N+02451MA1999999099081MD1999999-0011MW1031REMSYN088AAXX  27124 82765 21498 70000 10260 20239 39908 40148 70352 84820 333 20245 59001 60014;
0137827650999992006022718004-07333-047467FM-12+019399999V0203601N002110090019N0200001N1+03091+02491101121ADDGF108991051081004501021999MA1999999098741MD1999999+0051REMSYN070AAXX  27184 82765 32498 83604 10309 20249 39874 40112 8582/ 333 58005;
0201827650999992006022812004-07333-047467FM-12+019399999V0201801N001010120019N0200001N1+02521+02401101561ADDAA124004191AY161061AY201061GF108991061081008001021999KA1240N+02441MA1999999099161MD1999999+0081MW1031REMSYN088AAXX  28124 82765 21598 81802 10252 20240 39916 40156 70360 8682/ 333 20244 58008 60044;
0165827650999992006022818004-07333-047467FM-12+019399999V0202301N003110075019N0200001N1+02801+02401101231ADDAY191061AY221061GF108991061051008001021999MA1999999098841MD1999999+0101MW1161REMSYN076AAXX  28184 82765 31598 82306 10280 20240 39884 40123 71692 8652/ 333 58010;
0213827650999992006030100004-07333-047467FM-12+019399999V0201401N001010090019N0200001N1+02461+02371101481ADDAA106002091AY161061AY221061GF108991051081004501021999KA1240M+03141MA1999999099071MD1999999+0111MW1031REMSYN100AAXX  01004 82765 21498 81402 10246 20237 39907 40148 70362 8582/ 333 10314 29090 55027 58011 60021;
0173827650999992006030112004-07333-047467FM-12+019399999V0203201N002610450019N0200001N1+02441+02301101701ADDAA124002091GF108991041081008001021999KA1240N+02411MA1999999099281MD1999999+0121REMSYN082AAXX  01124 82765 22598 83205 10244 20230 39928 40170 8482/ 333 20241 58012 60024;
0137827650999992006030118004-07333-047467FM-12+019399999V0202901N001510120019N0200001N1+02761+02301101411ADDGF108991061081008001021999MA1999999099011MD1999999-0061REMSYN070AAXX  01184 82765 32598 82903 10276 20230 39901 40141 8682/ 333 59006;
0168827650999992006030200004-07333-047467FM-12+019399999V0209999C000010120019N0200001N1+02621+02441101511ADDGF108991051081008001021999KA1240M+02841MA1999999099101MD1999999+0261REMSYN088AAXX  02004 82765 32598 80000 10262 20244 39910 40151 8582/ 333 10284 29087 55000 58026;
0156827650999992006030212004-07333-047467FM-12+019399999V0209999C000010450019N0200001N1+02541+02381101731ADDGF106991021011008001041001KA1240N+02411MA1999999099321MD1999999+0041REMSYN076AAXX  02124 82765 32598 60000 10254 20238 39932 40173 82140 333 20241 58004;
0165827650999992006030218004-07333-047467FM-12+019399999V0209999C000010450019N0200001N1+03181+02441101281ADDAY101061AY201061GF106991041021008001041001MA1999999098901MD1999999-0111MW1161REMSYN076AAXX  02184 82765 31598 60000 10318 20244 39890 40128 71600 84240 333 59011;
0196827650999992006030300004-07333-047467FM-12+019399999V0209999C000012200019N0200001N1+02801+02561101351ADDAY101061AY201061GF103991031031008001001001KA1240M+03241MA1999999098961MD1999999-0141MW1131REMSYN094AAXX  03004 82765 31598 30000 10280 20256 39896 40135 71300 83300 333 10324 29082 55062 59014;
0192827650999992006030312004-07333-047467FM-12+019399999V0203601N002110450019N0200001N1+02661+02391101661ADDAA124000091GF106991041021008001041001KA1240N+02431MA1999999099271MD1999999-0051REMSYN082AAXX  03124 82765 22598 63604 10266 20239 39927 40166 84240 333 20243 59005 69924;EQDQ01  00002PRCP24
0182827650999992006030318004-07333-047467FM-12+019399999V0200901N000510450019N0200001N1+03101+02411101241ADDAA106005191AY161061AY261061GF105991031021008001041001MA1999999098851MD1999999-0051MW1001REMSYN082AAXX  03184 82765 21598 50901 10310 20241 39885 40124 70066 83240 333 59005 60051;
0196827650999992006030400004-07333-047467FM-12+019399999V0209999C000012200019N0200001N1+02741+02341101361ADDAY101061AY201061GF103991021011008001041001KA1240M+03241MA1999999098971MD1999999+0011MW1131REMSYN094AAXX  04004 82765 31598 30000 10274 20234 39897 40136 71300 82140 333 10324 29078 55084 58001;
0173827650999992006030412004-07333-047467FM-12+019399999V0203201N001510450019N0200001N1+02721+02391101671ADDAA124006191GF106991041011008001041001KA1240N+02411MA1999999099281MD1999999+0011REMSYN082AAXX  04124 82765 22598 63203 10272 20239 39928 40167 84140 333 20241 58001 60064;
0196827650999992006030500004-07333-047467FM-12+019399999V0200501N000512200019N0200001N1+02781+02481101491ADDAY101061AY201061GF104991021031008001041001KA1240M+03241MA1999999099101MD1999999+0131MW1131REMSYN094AAXX  05004 82765 31598 40501 10278 20248 39910 40149 71300 82340 333 10324 29081 55085 58013;
0173827650999992006030512004-07333-047467FM-12+019399999V0203401N002110450019N0200001N1+02651+02411101801ADDAA124005191GF106991041081008001041001KA1240N+02451MA1999999099401MD1999999+0121REMSYN082AAXX  05124 82765 22598 63404 10265 20241 39940 40180 84840 333 20245 58012 60054;
0201827650999992006030518004-07333-047467FM-12+019399999V0203201N001510450019N0200001N1+03241+02551101221ADDAA106000091AY151061AY251061GF106991041021008001041001MA1999999098861MD1999999-0041MW1001REMSYN082AAXX  05184 82765 21598 63203 10324 20255 39886 40122 70055 84240 333 59004 69921;EQDQ01  00002PRCP06
0196827650999992006030600004-07333-047467FM-12+019399999V0201401N001512200019N0200001N1+02761+02481101501ADDAY101061AY201061GF103991011011008001041001KA1240M+03341MA1999999099111MD1999999+0011MW1131REMSYN094AAXX  06004 82765 31598 31403 10276 20248 39911 40150 71300 81140 333 10334 29081 55075 58001;
0201827650999992006030612004-07333-047467FM-12+019399999V0203201N001510120019N0200001N1+02601+02371101751ADDAA124000591AY151061AY201061GF108991051081008001021999KA1240N+02451MA1999999099351MD1999999-0051MW1001REMSYN088AAXX  06124 82765 21598 83203 10260 20237 39935 40175 70050 8582/ 333 20245 59005 69964;
0137827650999992006030618004-07333-047467FM-12+019399999V0203201N002110075019N0200001N1+03221+02431101251ADDGF106991051021008001041001MA1999999098881MD1999999+0021REMSYN070AAXX  06184 82765 32598 63204 10322 20243 39888 40125 85240 333 58002;
0196827650999992006030700004-07333-047467FM-12+019399999V0200901N000512200019N0200001N1+02821+02461101481ADDAY101061AY201061GF104991021011008001011001KA1240M+03281MA1999999099091MD1999999-0021MW1131REMSYN094AAXX  07004 82765 31598 40901 10282 20246 39909 40148 71300 82110 333 10328 29078 55068 59002;
0156827650999992006030712004-07333-047467FM-12+019399999V0203601N001510090019N0200001N1+02681+02391101621ADDGF107991051081004501011001KA1240N+02521MA1999999099231MD1999999-0121REMSYN076AAXX  07124 82765 32498 73603 10268 20239 39923 40162 85810 333 20252 59012;
0137827650999992006030718004-07333-047467FM-12+019399999V0203601N001510450019N0200001N1+03251+02331101051ADDGF106991041021008001061001MA1999999098711MD1999999-0171REMSYN070AAXX  07184 82765 32598 63603 10325 20233 39871 40105 84260 333 59017;
0168827650999992006030800004-07333-047467FM-12+019399999V0209999C000010450019N0200001N1+02911+02481101301ADDGF105991031021008001061001KA1240M+03341MA1999999098921MD1999999-0171REMSYN088AAXX  08004 82765 32598 50000 10291 20248 39892 40130 83260 333 10334 29075 55088 59017;
0156827650999992006030812004-07333-047467FM-12+019399999V0209999C000010450019N0200001N1+02531+02431101561ADDGF107991041021008001011001KA1240N+02531MA1999999099171MD1999999-0061REMSYN076AAXX  08124 82765 32598 70000 10253 20243 39917 40156 84210 333 20253 59006;
0137827650999992006030818004-07333-047467FM-12+019399999V0203601N002110450019N0200001N1+03251+02361100961ADDGF105991031021008001061041MA1999999098601MD1999999-0111REMSYN070AAXX  08184 82765 32598 53604 10325 20236 39860 40096 83264 333 59011;
0196827650999992006030900004-07333-047467FM-12+019399999V0200901N001510042019N0200001N1+02631+02311101301ADDAY191061AY221061GF108991051021004501021999KA1240M+03351MA1999999098901MD1999999-0021MW1171REMSYN094AAXX  09004 82765 31498 80903 10263 20231 39890 40130 71792 8522/ 333 10335 29080 55065 59002;
0201827650999992006030912004-07333-047467FM-12+019399999V0201401N000510090019N0200001N1+02521+02291101511ADDAA124002091AY161061AY221061GF107991051081004501041001KA1240N+02401MA1999999099111MD1999999-0061MW1031REMSYN088AAXX  09124 82765 21498 71401 10252 20229 39911 40151 70362 85840 333 20240 59006 60024;
0182827650999992006030918004-07333-047467FM-12+019399999V0203201N002110042019N0020001N1+02661+02391101281ADDAA106007991AY121061AY221061GF108991051071004501021999MA1999999098871MD1999999+0271MW1631REMSYN082AAXX  09184 82765 21495 83204 10266 20239 39887 40128 76322 8572/ 333 58027 60081;
0213827650999992006031000004-07333-047467FM-12+019399999V0201101N001010042019N0200001N1+02531+02401101311ADDAA106004191AY161061AY221061GF108991051071004501021999KA1240M+03281MA1999999098901MD1999999+0001MW1031REMSYN100AAXX  10004 82765 21498 81102 10253 20240 39890 40131 70362 8572/ 333 10328 29090 55049 58000 60041;
0173827650999992006031012004-07333-047467FM-12+019399999V0203601N001010120019N0200001N1+02521+02381101591ADDAA124011991GF108991061081008001021999KA1240N+02391MA1999999099181MD1999999+0071REMSYN082AAXX  10124 82765 22598 83602 10252 20238 39918 40159 8682/ 333 20239 58007 60124;
0201827650999992006031018004-07333-047467FM-12+019399999V0203201N001510450019N0200001N1+02721+02391101191ADDAA106000091AY151061AY251061GF106991041021008001041021MA1999999098791MD1999999-0081MW1001REMSYN082AAXX  10184 82765 21598 63203 10272 20239 39879 40119 70055 84242 333 59008 69911;EQDQ01  00002PRCP06
0168827650999992006031100004-07333-047467FM-12+019399999V0209999C000010450019N0200001N1+02581+02421101361ADDGF108991021031008001041001KA1240M+02881MA1999999098961MD1999999+0061REMSYN088AAXX  11004 82765 32598 80000 10258 20242 39896 40136 82340 333 10288 29089 55006 58006;
0220827650999992006031112004-07333-047467FM-12+019399999V0200501N000510120019N0200001N1+02461+02371101651ADDAA124000091AY101061AY201061GF108991061081008001021999KA1240N+02371MA1999999099241MD1999999+0061MW1101REMSYN088AAXX  11124 82765 21598 80501 10246 20237 39924 40165 71000 8682/ 333 20237 58006 69914;EQDQ01  00002PRCP24
0137827650999992006031118004-07333-047467FM-12+019399999V0200901N001010450019N0200001N1+02801+02361101151ADDGF107991031021008001021001MA1999999098761MD1999999-0031REMSYN070AAXX  11184 82765 32598 70902 10280 20236 39876 40115 83220 333 59003;
0168827650999992006031200004-07333-047467FM-12+019399999V0209999C000010450019N0200001N1+02681+02541101371ADDGF108991041021008001011001KA1240M+03001MA1999999098971MD1999999+0011REMSYN088AAXX  12004 82765 32598 80000 10268 20254 39897 40137 84210 333 10300 29090 55025 58001;
0156827650999992006031212004-07333-047467FM-12+019399999V0203601N001010450019N0200001N1+02661+02431101511ADDGF105991031021008001041001KA1240N+02411MA1999999099111MD1999999-0131REMSYN076AAXX  12124 82765 32598 53602 10266 20243 39911 40151 83240 333 20241 59013;
0182827650999992006031218004-07333-047467FM-12+019399999V0203601N001010450019N0200001N1+02861+02391101021ADDAA106004191AY161061AY261061GF107991041021008001041001MA1999999098641MD1999999-0121MW1001REMSYN082AAXX  12184 82765 21598 73602 10286 20239 39864 40102 70066 84240 333 59012 60041;
0168827650999992006031300004-07333-047467FM-12+019399999V0209999C000010450019N0200001N1+02681+02391101241ADDGF108991021011008001011001KA1240M+03181MA1999999098851MD1999999-0121REMSYN088AAXX  13004 82765 32598 80000 10268 20239 39885 40124 82110 333 10318 29083 55063 59012;
0173827650999992006031312004-07333-047467FM-12+019399999V0202301N000512200019N0200001N1+02661+02391101441ADDAA124004191GF104991021011008001041001KA1240N+02391MA1999999099051MD1999999-0061REMSYN082AAXX  13124 82765 22598 42301 10266 20239 39905 40144 82140 333 20239 59006 60044;
0182827650999992006031318004-07333-047467FM-12+019399999V0209999C000010450019N0200001N1+02761+02441101041ADDAA106002091AY191061AY251061GF106991021021008001041081MA1999999098651MD1999999+0011MW1001REMSYN082AAXX  13184 82765 21598 60000 10276 20244 39865 40104 70095 82248 333 58001 60021;
0232827650999992006031400004-07333-047467FM-12+019399999V0201801N002110450019N0200001N1+02621+02371101341ADDAA106000091AY151061AY251061GF108991031011008001021999KA1240M+03061MA1999999098941MD1999999+0091MW1001REMSYN100AAXX  14004 82765 21598 81804 10262 20237 39894 40134 70055 8312/ 333 10306 29085 55048 58009 69921;EQDQ01  00002PRCP06
0201827650999992006031412004-07333-047467FM-12+019399999V0201801N001010075019N0200001N1+02321+02241101711ADDAA124037191AY161061AY261061GF108991061051008001021999KA1240N+02211MA1999999099291MD1999999+0141MW1001REMSYN088AAXX  14124 82765 21598 81802 10232 20224 39929 40171 70066 8652/ 333 20221 58014 60374;
0137827650999992006031418004-07333-047467FM-12+019399999V0203201N001510450019N0200001N1+02961+02381101231ADDGF105991031021008001041001MA1999999098841MD1999999+0191REMSYN070AAXX  14184 82765 32598 53203 10296 20238 39884 40123 83240 333 58019;
0168827650999992006031500004-07333-047467FM-12+019399999V0209999C000010120019N0200001N1+02761+02481101461ADDGF108991061081008001021999KA1240M+03081MA1999999099051MD1999999+0111REMSYN088AAXX  15004 82765 32598 80000 10276 20248 39905 40146 8682/ 333 10308 29084 55070 58011;
0201827650999992006031512004-07333-047467FM-12+019399999V0201401N000510450019N0200001N1+02541+02351101511ADDAA124032091AY161061AY261061GF105991031021008001041001KA1240N+02311MA1999999099111MD1999999-0181MW1001REMSYN088AAXX  15124 82765 21598 51401 10254 20235 39911 40151 70066 83240 333 20231 59018 60324;
0137827650999992006031518004-07333-047467FM-12+019399999V0200901N001010450019N0200001N1+03241+02391101101ADDGF105991041021008001041001MA1999999098731MD1999999-0101REMSYN070AAXX  15184 82765 32598 50902 10324 20239 39873 40110 84240 333 59010;
0201827650999992006031612004-07333-047467FM-12+019399999V0209999C000012200019N0200001N1+02671+02391101541ADDAA124002091AY161061AY221061GF105991021011008001011091KA1240N+02431MA1999999099151MD1999999+0041MW1011REMSYN088AAXX  16124 82765 21598 50000 10267 20239 39915 40154 70162 82119 333 20243 58004 60024;
0137827650999992006031618004-07333-047467FM-12+019399999V0203601N001510450019N0200001N1+03331+02381100971ADDGF106991041031008001061001MA1999999098611MD1999999-0121REMSYN070AAXX  16184 82765 32598 63603 10333 20238 39861 40097 84360 333 59012;
0213827650999992006031700004-07333-047467FM-12+019399999V0200501N001010090019N0200001N1+02621+02461101221ADDAA106014091AY161061AY221061GF108991051081004501021999KA1240M+03421MA1999999098831MD1999999-0071MW1131REMSYN100AAXX  17004 82765 21498 80502 10262 20246 39883 40122 71362 8582/ 333 10342 29081 55076 59007 60141;
0173827650999992006031712004-07333-047467FM-12+019399999V0209999C000010450019N0200001N1+02581+02441101381ADDAA124014091GF106991041021004501041001KA1240N+02441MA1999999098981MD1999999-0171REMSYN082AAXX  17124 82765 22498 60000 10258 20244 39898 40138 84240 333 20244 59017 60144;
0196827650999992006031800004-07333-047467FM-12+019399999V0209999C000010090019N0200001N1+02581+02441101311ADDAY121061AY221061GF108991081081004501999999KA1240M+02921MA1999999098911MD1999999+0081MW1131REMSYN094AAXX  18004 82765 31498 80000 10258 20244 39891 40131 71322 888// 333 10292 29089 55017 58008;
0201827650999992006031812004-07333-047467FM-12+019399999V0202301N002112200019N0200001N1+02401+02311101471ADDAA124015091AY161061AY221061GF105991021011008001041091KA1240N+02341MA1999999099061MD1999999+0081MW1011REMSYN088AAXX  18124 82765 21598 52304 10240 20231 39906 40147 70162 82149 333 20234 58008 60154;
0137827650999992006031818004-07333-047467FM-12+019399999V0202301N001510450019N0200001N1+03191+02441101031ADDGF105991031021008001061001MA1999999098651MD1999999-0031REMSYN070AAXX  18184 82765 32598 52303 10319 20244 39865 40103 83260 333 59003;
0213827650999992006031900004-07333-047467FM-12+019399999V0209999C000010090019N0200001N1+02391+02241101441ADDAA106002091AY161061AY221061GF108991081081004501999999KA1240M+03321MA1999999099021MD1999999+0111MW1131REMSYN100AAXX  19004 82765 21498 80000 10239 20224 39902 40144 71362 888// 333 10332 29086 55071 58011 60021;
0173827650999992006031912004-07333-047467FM-12+019399999V0203601N000510120019N0200001N1+02441+02301101531ADDAA124002091GF108991071081008001021999KA1240N+02291MA1999999099101MD1999999+0041REMSYN082AAXX  19124 82765 22598 83601 10244 20230 39910 40153 8782/ 333 20229 58004 60024;
0213827650999992006032000004-07333-047467FM-12+019399999V0202701N001010450019N0200001N1+02341+02221101311ADDAA106005191AY191061AY261061GF108991031031008001021999KA1240M+03201MA1999999098891MD1999999-0131MW1131REMSYN100AAXX  20004 82765 21598 82702 10234 20222 39889 40131 71396 8332/ 333 10320 29086 55056 59013 60051;
0173827650999992006032012004-07333-047467FM-12+019399999V0203601N001010450019N0200001N1+02621+02421101531ADDAA124005191GF107991041021008001011001KA1240N+02351MA1999999099121MD1999999+0021REMSYN082AAXX  20124 82765 22598 73602 10262 20242 39912 40153 84210 333 20235 58002 60054;
0137827650999992006032018004-07333-047467FM-12+019399999V0201801N001010450019N0200001N1+03241+02421101061ADDGF106991041021008001041001MA1999999098691MD1999999+0031REMSYN070AAXX  20184 82765 32598 61802 10324 20242 39869 40106 84240 333 58003;
0213827650999992006032100004-07333-047467FM-12+019399999V0200901N001512200019N0200001N1+02621+02421101301ADDAA106001091AY191061AY261061GF102991021021008001001001KA1240M+03361MA1999999098901MD1999999+0011MW1001REMSYN100AAXX  21004 82765 21598 20903 10262 20242 39890 40130 70096 82200 333 10336 29082 55072 58001 60011;
0173827650999992006032112004-07333-047467FM-12+019399999V0203201N000510450019N0200001N1+02661+02501101401ADDAA124001091GF105991031021008001041001KA1240N+02391MA1999999099011MD1999999-0111REMSYN082AAXX  21124 82765 22598 53201 10266 20250 39901 40140 83240 333 20239 59011 60014;
0137827650999992006032118004-07333-047467FM-12+019399999V0202701N002110450019N0200001N1+02941+02521101031ADDGF106991021021008001021001MA1999999098651MD1999999-0041REMSYN070AAXX  21184 82765 32598 62704 10294 20252 39865 40103 82220 333 59004;
0168827650999992006032200004-07333-047467FM-12+019399999V0203601N001012200019N0200001N1+02701+02521101271ADDGF103991021021008001041001KA1240M+03271MA1999999098881MD1999999-0021REMSYN088AAXX  22004 82765 32598 33602 10270 20252 39888 40127 82240 333 10327 29086 55050 59002;
0184827650999992006032212004-07333-047467FM-12+019399999V0202301N001010450019N0200001N1+02661+02461101541ADDAY191061AY221061GF106991031071008001031011KA1240N+02471MA1999999099151MD1999999+0141MW1031REMSYN082AAXX  22124 82765 31598 62302 10266 20246 39915 40154 70392 83731 333 20247 58014;
0165827650999992006032218004-07333-047467FM-12+019399999V0201101N001010450019N0200001N1+02841+02461101141ADDAY191061AY221061GF106991031071008001041011MA1999999098751MD1999999+0101MW1001REMSYN076AAXX  22184 82765 31598 61102 10284 20246 39875 40114 70092 83741 333 58010;
0156827650999992006032312004-07333-047467FM-12+019399999V0203601N001010450019N0200001N1+02661+02391101631ADDGF107991041071008001031011KA1240N+02471MA1999999099241MD1999999+0091REMSYN076AAXX  23124 82765 32598 73602 10266 20239 39924 40163 84731 333 20247 58009;
0184827650999992006032318004-07333-047467FM-12+019399999V0200501N002610120019N0200001N1+02801+02421101321ADDAY191061AY221061GF107991051081008001031011MA1999999098022MD1999999+0171MW1161REMSYN076AAXX  23184 82765 31598 70505 10280 20242 39802 40132 71692 85831 333 58017;EQDQ01+098023APOSP 
0168827650999992006032400004-07333-047467FM-12+019399999V0209999C000012200019N0200001N1+02561+02421101251ADDGF103991021021008001041001KA1240M+03111MA1999999098861MD1999999-0101REMSYN088AAXX  24004 82765 32598 30000 10256 20242 39886 40125 82240 333 10311 29087 55029 59010;
0220827650999992006032412004-07333-047467FM-12+019399999V0203601N003110450019N0200001N1+02501+02211101701ADDAA124000091AY151061AY251061GF107991041071008001021011KA1240N+02451MA1999999099291MD1999999+0051MW1001REMSYN088AAXX  24124 82765 21598 73606 10250 20221 39929 40170 70055 84721 333 20245 58005 69924;EQDQ01  00002PRCP24
0137827650999992006032418004-07333-047467FM-12+019399999V0200501N001510450019N0200001N1+03161+02421101211ADDGF106991041021008001041011MA1999999098841MD1999999-0081REMSYN070AAXX  24184 82765 32598 60503 10316 20242 39884 40121 84241 333 59008;
0168827650999992006032500004-07333-047467FM-12+019399999V0200501N001012200019N0200001N1+02741+02431101341ADDGF102991011021008001041001KA1240M+03171MA1999999098941MD1999999+0081REMSYN088AAXX  25004 82765 32598 20502 10274 20243 39894 40134 81240 333 10317 29079 55046 58008;
0156827650999992006032512004-07333-047467FM-12+019399999V0201801N001010450019N0200001N1+02711+02411101701ADDGF106991031011008001031041KA1240N+02411MA1999999099301MD1999999+0011REMSYN076AAXX  25124 82765 32598 61802 10271 20241 39930 40170 83134 333 20241 58001;
0137827650999992006032518004-07333-047467FM-12+019399999V0201401N002610450019N0200001N1+03281+02401101201ADDGF106991041021008001011001MA1999999098841MD1999999+0001REMSYN070AAXX  25184 82765 32598 61405 10328 20240 39884 40120 84210 333 58000;
0196827650999992006032600004-07333-047467FM-12+019399999V0209999C000010450019N0200001N1+02661+02411101431ADDAY121061AY221061GF106991041021008001011001KA1240M+03401MA1999999099041MD1999999+0001MW1131REMSYN094AAXX  26004 82765 31598 60000 10266 20241 39904 40143 71322 84210 333 10340 29079 55040 58000;
0201827650999992006032612004-07333-047467FM-12+019399999V0202701N000510075019N0200001N1+02521+02311101731ADDAA124002091AY161061AY221061GF107991051021008001031001KA1240N+02371MA1999999099321MD1999999+0021MW1021REMSYN088AAXX  26124 82765 21598 72701 10252 20231 39932 40173 70262 85230 333 20237 58002 60024;
0165827650999992006032618004-07333-047467FM-12+019399999V0202301N002110450019N0200001N1+03141+02481101251ADDAY121061AY221061GF106991041031008001041001MA1999999098871MD1999999+0031MW1171REMSYN076AAXX  26184 82765 31598 62304 10314 20248 39887 40125 71722 84340 333 58003;
0213827650999992006032700004-07333-047467FM-12+019399999V0203601N001510075019N0040001N1+02441+02341101681ADDAA106007991AY161061AY221061GF108991081071008001999999KA1240M+03291MA1999999099261MD1999999+0221MW1531REMSYN100AAXX  27004 82765 21596 83603 10244 20234 39926 40168 75362 887// 333 10329 29086 55047 58022 60081;
0201827650999992006032712004-07333-047467FM-12+019399999V0200901N000510120019N0200001N1+02461+02321101901ADDAA124007991AY151061AY251061GF108991061081008001021999KA1240N+02331MA1999999099471MD1999999+0151MW1001REMSYN088AAXX  27124 82765 21598 80901 10246 20232 39947 40190 70055 8682/ 333 20233 58015 60084;
0201827650999992006032718004-07333-047467FM-12+019399999V0200201N001510075019N0200001N1+02821+02171101471ADDAA106000091AY151061AY251061GF107991051061008001021011MA1999999099061MD1999999+0191MW1161REMSYN082AAXX  27184 82765 21598 70203 10282 20217 39906 40147 71655 85621 333 58019 69921;EQDQ01  00002PRCP06
0168827650999992006032800004-07333-047467FM-12+019399999V0200501N000512200019N0200001N1+02541+02401101641ADDGF104991021021008001041001KA1240M+03211MA1999999099231MD1999999-0031REMSYN088AAXX  28004 82765 32598 40501 10254 20240 39923 40164 82240 333 10321 29088 55024 59003;
0192827650999992006032812004-07333-047467FM-12+019399999V0200501N000510450019N0200001N1+02661+02431101681ADDAA124000091GF106991021021008001011001KA1240N+02391MA1999999099271MD1999999-0201REMSYN082AAXX  28124 82765 22598 60501 10266 20243 39927 40168 82210 333 20239 59020 69924;EQDQ01  00002PRCP24
0165827650999992006032818004-07333-047467FM-12+019399999V0202001N001510075019N0200001N1+03401+02401101091ADDAY101061AY201061GF106991051021008001041001MA1999999098721MD1999999-0341MW1151REMSYN076AAXX  28184 82765 31598 62003 10340 20240 39872 40109 71500 85240 333 59034;
0201827650999992006032912004-07333-047467FM-12+019399999V0202901N001510120019N0200001N1+02521+02401101661ADDAA124024991AY161061AY251061GF108991061081008001021999KA1240N+02431MA1999999099251MD1999999-0021MW1001REMSYN088AAXX  29124 82765 21598 82903 10252 20240 39925 40166 70065 8682/ 333 20243 59002 60254;
0168827650999992006033000004-07333-047467FM-12+019399999V0209999C000010450019N0200001N1+02441+02341101611ADDGF108991031081008001021999KA1240M+02751MA1999999099191MD1999999+0011REMSYN088AAXX  30004 82765 32598 80000 10244 20234 39919 40161 8382/ 333 10275 29093 55000 58001;
0201827650999992006033012004-07333-047467FM-12+019399999V0201401N001010075019N0200001N1+02401+02311101751ADDAA124004191AY121061AY201061GF108991061051008001021999KA1240N+02351MA1999999099321MD1999999+0071MW1621REMSYN088AAXX  30124 82765 21598 81402 10240 20231 39932 40175 76220 8652/ 333 20235 58007 60044;
0182827650999992006033018004-07333-047467FM-12+019399999V0202301N000510450019N0200001N1+02441+02301101361ADDAA106019191AY121061AY201061GF108991031051008001021999MA1999999098941MD1999999-0011MW1501REMSYN082AAXX  30184 82765 21598 82301 10244 20230 39894 40136 75020 8352/ 333 59001 60191;
0168827650999992006033100004-07333-047467FM-12+019399999V0201401N001010120019N0200001N1+02501+02401101591ADDGF108991061081008001021999KA1240M+02751MA1999999099171MD1999999+0021REMSYN088AAXX  31004 82765 32598 81402 10250 20240 39917 40159 8682/ 333 10275 29094 55008 58002;
0173827650999992006033112004-07333-047467FM-12+019399999V0202701N000510090019N0200001N1+02451+02251101851ADDAA124019191GF108991081081004501999999KA1240N+02291MA1999999099431MD1999999+0111REMSYN082AAXX  31124 82765 22498 82701 10245 20225 39943 40185 888// 333 20229 58011 60194;
0165827650999992006033118004-07333-047467FM-12+019399999V0203601N001010450019N0200001N1+03141+02401101201ADDAY121061AY221061GF105991031031008001041001MA1999999098821MD1999999-0121MW1151REMSYN076AAXX  31184 82765 31598 53602 10314 20240 39882 40120 71522 83340 333 59012;
0196827650999992006040100004-07333-047467FM-12+019399999V0200901N001510090019N0200001N1+02621+02441101521ADDAY121061AY221061GF108991081081004501999999KA1240M+03311MA1999999099111MD1999999-0061MW1131REMSYN094AAXX  01004 82765 31498 80903 10262 20244 39911 40152 71322 888// 333 10331 29084 55056 59006;
0201827650999992006040112004-07333-047467FM-12+019399999V0209999C000010075019N0100001N1+02341+02271101811ADDAA124027991AY161061AY261061GF108991061051008001021999KA1240N+02311MA1999999099391MD1999999-0041MW1551REMSYN088AAXX  01124 82765 21597 80000 10234 20227 39939 40181 75566 8652/ 333 20231 59004 60284;
0182827650999992006040118004-07333-047467FM-12+019399999V0203601N001510450019N0500001N1+02921+02271101261ADDAA106005191AY161061AY261061GF106991031021008001071011MA1999999098871MD1999999+0051MW1001REMSYN082AAXX  01184 82765 21599 63603 10292 20227 39887 40126 70066 83271 333 58005 60051;
0168827650999992006040200004-07333-047467FM-12+019399999V0200701N001510120019N0200001N1+02561+02361101531ADDGF108991061081008001021999KA1240M+03051MA1999999099111MD1999999+0001REMSYN088AAXX  02004 82765 32598 80703 10256 20236 39911 40153 8682/ 333 10305 29085 55022 58000;
0201827650999992006040212004-07333-047467FM-12+019399999V0209999C000010120019N0200001N1+02421+02331101711ADDAA124007991AY161061AY261061GF108991061081008001021999KA1240N+02311MA1999999099291MD1999999-0101MW1001REMSYN088AAXX  02124 82765 21598 80000 10242 20233 39929 40171 70066 8682/ 333 20231 59010 60084;
0137827650999992006040218004-07333-047467FM-12+019399999V0202701N000510450019N0200001N1+03121+02361101191ADDGF106991041081008001041001MA1999999098811MD1999999-0061REMSYN070AAXX  02184 82765 32598 62701 10312 20236 39881 40119 84840 333 59006;
0213827650999992006040300004-07333-047467FM-12+019399999V0200501N000510450019N0200001N1+02521+02401101531ADDAA106010991AY161061AY261061GF106991041081008001021001KA1240M+03211MA1999999099111MD1999999+0001MW1131REMSYN100AAXX  03004 82765 21598 60501 10252 20240 39911 40153 71366 84820 333 10321 29086 55035 58000 60111;
0173827650999992006040312004-07333-047467FM-12+019399999V0209999C000012200019N0200001N1+02631+02411101611ADDAA124010991GF104991031011008001041001KA1240N+02391MA1999999099211MD1999999-0081REMSYN082AAXX  03124 82765 22598 40000 10263 20241 39921 40161 83140 333 20239 59008 60114;
0137827650999992006040318004-07333-047467FM-12+019399999V0203201N001512200019N0200001N1+03241+02421101081ADDGF104991031031008001061001MA1999999098711MD1999999-0101REMSYN070AAXX  03184 82765 32598 43203 10324 20242 39871 40108 83360 333 59010;
0196827650999992006040400004-07333-047467FM-12+019399999V0203601N001010450019N0200001N1+02811+02441101391ADDAY121061AY221061GF106991041031008001061001KA1240M+03401MA1999999099001MD1999999-0111MW1131REMSYN094AAXX  04004 82765 31598 63602 10281 20244 39900 40139 71322 84360 333 10340 29078 55098 59011;
0201827650999992006040412004-07333-047467FM-12+019399999V0201401N001010042019N0200001N1+02281+02251101721ADDAA124027991AY161061AY251061GF108991081071004501999999KA1240N+02271MA1999999099311MD1999999+0101MW1031REMSYN088AAXX  04124 82765 21498 81402 10228 20225 39931 40172 70365 887// 333 20227 58010 60284;
0182827650999992006040418004-07333-047467FM-12+019399999V0202301N001510042019N0040001N1+02191+02101101471ADDAA106020191AY161061AY261061GF108991081071004501999999MA1999999099041MD1999999+0331MW1511REMSYN082AAXX  04184 82765 21496 82303 10219 20210 39904 40147 75166 887// 333 58033 60201;
0213827650999992006040500004-07333-047467FM-12+019399999V0200501N001510042019N0100001N1+02201+02131101461ADDAA106000021AY151061AY251061GF108991081071004501999999KA1240M+02831MA1999999099031MD1999999+0031MW1021REMSYN100AAXX  05004 82765 21497 80503 10220 20213 39903 40146 70255 887// 333 10283 29096 55000 58003 69921;
0173827650999992006040512004-07333-047467FM-12+019399999V0209999C000010090019N0200001N1+02421+02321101601ADDAA124020191GF107991071081004501001001KA1240N+02201MA1999999099171MD1999999-0141REMSYN082AAXX  05124 82765 22498 70000 10242 20232 39917 40160 87800 333 20220 59014 60204;
0137827650999992006040518004-07333-047467FM-12+019399999V0201401N001510450019N0200001N1+03061+02381101131ADDGF105991031091008001051041MA1999999098741MD1999999-0301REMSYN070AAXX  05184 82765 32598 51403 10306 20238 39874 40113 83954 333 59030;
0173827650999992006040612004-07333-047467FM-12+019399999V0209999C000010450019N0200001N1+02641+02481101461ADDAA124011991GF107991031021008001041001KA1240N+02351MA1999999099061MD1999999-0111REMSYN082AAXX  06124 82765 22598 70000 10264 20248 39906 40146 83240 333 20235 59011 60124;
0165827650999992006040618004-07333-047467FM-12+019399999V0209999C000010450019N0200001N1+02861+02371101051ADDAY191061AY201061GF108991031021008001021999MA1999999098661MD1999999-0081MW1001REMSYN076AAXX  06184 82765 31598 80000 10286 20237 39866 40105 70090 8322/ 333 59008;
0156827650999992006040712004-07333-047467FM-12+019399999V0203201N001010075019N0200001N1+02621+02421101481ADDGF107991061021008001041001KA1240N+02411MA1999999099081MD1999999+0021REMSYN076AAXX  07124 82765 32598 73202 10262 20242 39908 40148 86240 333 20241 58002;
0165827650999992006040718004-07333-047467FM-12+019399999V0201101N002110075019N0200001N1+03021+02551101051ADDAY101061AY201061GF108991061021008001021999MA1999999098671MD1999999+0011MW1151REMSYN076AAXX  07184 82765 31598 81104 10302 20255 39867 40105 71500 8622/ 333 58001;
0196827650999992006040800004-07333-047467FM-12+019399999V0202301N000510450019N0200001N1+02741+02541101361ADDAY101061AY201061GF108991031031008001011001KA1240M+03111MA1999999098971MD1999999+0111MW1131REMSYN094AAXX  08004 82765 31598 82301 10274 20254 39897 40136 71300 83310 333 10311 29086 55026 58011;
0201827650999992006040812004-07333-047467FM-12+019399999V0200501N000510450019N0200001N1+02361+02281101621ADDAA124020191AY161061AY261061GF108991041051008001021999KA1240N+02271MA1999999099211MD1999999+0131MW1161REMSYN088AAXX  08124 82765 21598 80501 10236 20228 39921 40162 71666 8452/ 333 20227 58013 60204;
0182827650999992006040818004-07333-047467FM-12+019399999V0201801N000510075019N0200001N1+03041+02361101081ADDAA106004191AY161061AY261061GF106991051021008001041001MA1999999098691MD1999999+0021MW1001REMSYN082AAXX  08184 82765 21598 61801 10304 20236 39869 40108 70066 85240 333 58002 60041;
0168827650999992006040900004-07333-047467FM-12+019399999V0209999C000010450019N0200001N1+02741+02481101411ADDGF108991041021008001041001KA1240M+03211MA1999999099011MD1999999+0041REMSYN088AAXX  09004 82765 32598 80000 10274 20248 39901 40141 84240 333 10321 29084 55049 58004;
0201827650999992006040912004-07333-047467FM-12+019399999V0201401N002110075019N0200001N1+02261+02211101651ADDAA124043991AY161061AY261061GF108991061051008001021999KA1240N+02191MA1999999099241MD1999999+0031MW1511REMSYN088AAXX  09124 82765 21598 81404 10226 20221 39924 40165 75166 8652/ 333 20219 58003 60444;
0182827650999992006040918004-07333-047467FM-12+019399999V0202701N001510450019N0200001N1+02891+02211101001ADDAA106000021AY151061AY251061GF106991041021008001041001MA1999999098621MD1999999-0071MW1001REMSYN082AAXX  09184 82765 21598 62703 10289 20221 39862 40100 70055 84240 333 59007 69911;
0168827650999992006041000004-07333-047467FM-12+019399999V0209999C000012200019N0200001N1+02681+02481101411ADDGF102991021011008001001001KA1240M+03071MA1999999098701MD1999999-0311REMSYN088AAXX  10004 82765 32598 20000 10268 20248 39870 40141 82100 333 10307 29085 55035 59031;
0173827650999992006041012004-07333-047467FM-12+019399999V0201401N000510450019N0200001N1+02641+02481101391ADDAA124000021GF106991041071008001041001KA1240N+02271MA1999999099001MD1999999-0241REMSYN082AAXX  10124 82765 22598 61401 10264 20248 39900 40139 84740 333 20227 59024 69914;
0137827650999992006041018004-07333-047467FM-12+019399999V0203601N000512200019N0200001N1+03321+02351100841ADDGF104991031021008001041001MA1999999098481MD1999999-0141REMSYN070AAXX  10184 82765 32598 43601 10332 20235 39848 40084 83240 333 59014;
0196827650999992006041100004-07333-047467FM-12+019399999V0209999C000012200019N0200001N1+02921+02561101141ADDAY101061AY201061GF104991031021008001011041KA1240M+03471MA1999999098771MD1999999+0071MW1131REMSYN094AAXX  11004 82765 31598 40000 10292 20256 39877 40114 71300 83214 333 10347 29077 55081 58007;
0201827650999992006041112004-07333-047467FM-12+019399999V0203201N000510075019N0200001N1+02321+02251101531ADDAA124039191AY161061AY261061GF108991061071008001041999KA1240N+02331MA1999999099131MD1999999+0131MW1611REMSYN088AAXX  11124 82765 21598 83201 10232 20225 39913 40153 76166 8674/ 333 20233 58013 60394;
0182827650999992006041118004-07333-047467FM-12+019399999V0202701N002110450019N0200001N1+02841+02381101001ADDAA106007191AY161061AY261061GF106991031021008001021001MA1999999098621MD1999999+0141MW1001REMSYN082AAXX  11184 82765 21598 62704 10284 20238 39862 40100 70066 83220 333 58014 60071;
0196827650999992006041200004-07333-047467FM-12+019399999V0202701N000510450019N0200001N1+02641+02441101341ADDAY101061AY201061GF106991031031008001041001KA1240M+03071MA1999999098931MD1999999+0161MW1131REMSYN094AAXX  12004 82765 31598 62701 10264 20244 39893 40134 71300 83340 333 10307 29088 55042 58016;
0201827650999992006041212004-07333-047467FM-12+019399999V0203601N000510450019N0200001N1+02401+02311101531ADDAA124022191AY161061AY241061GF106991041081004501031001KA1240N+02291MA1999999099121MD1999999-0011MW1011REMSYN088AAXX  12124 82765 21498 63601 10240 20231 39912 40153 70164 84830 333 20229 59001 60224;
0165827650999992006041218004-07333-047467FM-12+019399999V0203201N001010450019N0040001N1+03081+02371101091ADDAY121061AY221061GF106991041021004501061041MA1999999098701MD1999999+0081MW1151REMSYN076AAXX  12184 82765 31496 63202 10308 20237 39870 40109 71522 84264 333 58008;
0220827650999992006041412004-07333-047467FM-12+019399999V0200701N000512200019N0200001N1+02681+02461101261ADDAA124000091AY151061AY251061GF103991031011008001001001KA1240N+02411MA1999999098871MD1999999-0201MW1001REMSYN088AAXX  14124 82765 21598 30701 10268 20246 39887 40126 70055 83100 333 20241 59020 69914;EQDQ01  00002PRCP24
0137827650999992006041418004-07333-047467FM-12+019399999V0201801N001512200019N0200001N1+03341+02481100761ADDGF104991041021008001001001MA1999999098411MD1999999-0111REMSYN070AAXX  14184 82765 32598 41803 10334 20248 39841 40076 84200 333 59011;
0213827650999992006041500004-07333-047467FM-12+019399999V0203601N000510450019N0200001N1+02681+02461101101ADDAA106002091AY161061AY261061GF106991041081008001041001KA1240M+03451MA1999999098721MD1999999-0151MW1001REMSYN100AAXX  15004 82765 21598 63601 10268 20246 39872 40110 70066 84840 333 10345 29081 55080 59015 60021;
0201827650999992006041512004-07333-047467FM-12+019399999V0201401N002110042019N0040001N1+02281+02231101591ADDAA124051191AY191061AY261061GF108991051061004501021999KA1240N+02251MA1999999099181MD1999999+0311MW1971REMSYN088AAXX  15124 82765 21496 81404 10228 20223 39918 40159 79796 8562/ 333 20225 58031 60514;
0182827650999992006041518004-07333-047467FM-12+019399999V0209999C000010075019N0200001N1+02601+02271101211ADDAA106010991AY161061AY261061GF107991051071008001041001MA1999999098811MD1999999+0401MW1001REMSYN082AAXX  15184 82765 21598 70000 10260 20227 39881 40121 70066 85740 333 58040 60111;
0168827650999992006041600004-07333-047467FM-12+019399999V0209999C000010450019N0200001N1+02521+02401101491ADDGF106991041081008001041001KA1240M+02871MA1999999099071MD1999999+0351REMSYN088AAXX  16004 82765 32598 60000 10252 20240 39907 40149 84840 333 10287 29091 55016 58035;
0201827650999992006041612004-07333-047467FM-12+019399999V0200501N000510075019N0200001N1+02441+02341101951ADDAA124029091AY101061AY201061GF108991061071008001021999KA1240N+02271MA1999999099531MD1999999+0351MW1631REMSYN088AAXX  16124 82765 21598 80501 10244 20234 39953 40195 76300 8672/ 333 20227 58035 60294;
0182827650999992006041618004-07333-047467FM-12+019399999V0209999C000010450019N0200001N1+02701+02371101511ADDAA106031091AY191061AY261061GF108991031021008001041999MA1999999099101MD1999999+0291MW1001REMSYN082AAXX  16184 82765 21598 80000 10270 20237 39910 40151 70096 8324/ 333 58029 60311;
0201827650999992006041712004-07333-047467FM-12+019399999V0201801N000510075019N0200001N1+02501+02361101721ADDAA124039191AY161061AY261061GF108991071021008001011001KA1240N+02231MA1999999099301MD1999999-0231MW1001REMSYN088AAXX  17124 82765 21598 81801 10250 20236 39930 40172 70066 87210 333 20223 59023 60394;
0168827650999992006041800004-07333-047467FM-12+019399999V0209999C000010450019N0200001N1+02481+02411101621ADDGF105991031081008001021001KA1240M+03171MA1999999099211MD1999999-0041REMSYN088AAXX  18004 82765 32598 50000 10248 20241 39921 40162 83820 333 10317 29091 55032 59004;
0156827650999992006041812004-07333-047467FM-12+019399999V0203201N001010090019N0200001N1+02561+02311101661ADDGF107991051081004501031001KA1240N+02331MA1999999099251MD1999999-0051REMSYN076AAXX  18124 82765 32498 73202 10256 20231 39925 40166 85830 333 20233 59005;
0137827650999992006041818004-07333-047467FM-12+019399999V0203601N001010450019N0200001N1+03121+02361101131ADDGF106991031021008001061041MA1999999098751MD1999999-0201REMSYN070AAXX  18184 82765 32598 63602 10312 20236 39875 40113 83264 333 59020;
0168827650999992006041900004-07333-047467FM-12+019399999V0209999C000010210019N0200001N1+02601+02481101471ADDGF106991061001022501011001KA1240M+03261MA1999999099071MD1999999-0141REMSYN088AAXX  19004 82765 32898 60000 10260 20248 39907 40147 86010 333 10326 29084 55060 59014;
0156827650999992006041912004-07333-047467FM-12+019399999V0209999C000010450019N0200001N1+02681+02391101621ADDGF106991041021008001041041KA1240N+02431MA1999999099221MD1999999-0031REMSYN076AAXX  19124 82765 32598 60000 10268 20239 39922 40162 84244 333 20243 59003;
0213827650999992006042000004-07333-047467FM-12+019399999V0209999C000010450019N0200001N1+02631+02481101391ADDAA106000391AY161061AY221061GF107991041021008001011001KA1240M+03371MA1999999099001MD1999999-0071MW1131REMSYN100AAXX  20004 82765 21598 70000 10263 20248 39900 40139 71362 84210 333 10337 29082 55063 59007 69931;
0201827650999992006042012004-07333-047467FM-12+019399999V0201801N002110075019N0200001N1+02281+02131101791ADDAA124051191AY161061AY261061GF108991071051008001021999KA1240N+02211MA1999999099371MD1999999+0151MW1001REMSYN088AAXX  20124 82765 21598 81804 10228 20213 39937 40179 70066 8752/ 333 20221 58015 60514;
0168827650999992006042100004-07333-047467FM-12+019399999V0209999C000012200019N0200001N1+02441+02341101621ADDGF103991021021008001041001KA1240M+02651MA1999999099191MD1999999+0191REMSYN088AAXX  21004 82765 32598 30000 10244 20234 39919 40162 82240 333 10265 29092 55000 58019;
0173827650999992006042112004-07333-047467FM-12+019399999V0209999C000010450019N0200001N1+02541+02381101771ADDAA124002091GF107991041021008001041041KA1240N+02291MA1999999099351MD1999999-0021REMSYN082AAXX  21124 82765 22598 70000 10254 20238 39935 40177 84244 333 20229 59002 60024;
0165827650999992006042118004-07333-047467FM-12+019399999V0201401N004110042019N0040001N1+02791+02381101411ADDAY121061AY221061GF107991051021004501061001MA1999999099001MD1999999+0021MW1151REMSYN076AAXX  21184 82765 31496 71408 10279 20238 39900 40141 71522 85260 333 58002;
0156827650999992006042212004-07333-047467FM-12+019399999V0201801N001010120019N0200001N1+02481+02381101761ADDGF108991061081008001021999KA1240N+02391MA1999999099341MD1999999-0011REMSYN076AAXX  22124 82765 32598 81802 10248 20238 39934 40176 8682/ 333 20239 59001;
0182827650999992006042218004-07333-047467FM-12+019399999V0203601N000510450019N0200001N1+02861+02461101281ADDAA106002091AY161061AY251061GF106991021031008001041001MA1999999098881MD1999999-0121MW1001REMSYN082AAXX  22184 82765 21598 63601 10286 20246 39888 40128 70065 82340 333 59012 60021;
0168827650999992006042300004-07333-047467FM-12+019399999V0202301N000512200019N0200001N1+02741+02541101401ADDGF103991011011008001041001KA1240M+03191MA1999999099001MD1999999-0261REMSYN088AAXX  23004 82765 32598 32301 10274 20254 39900 40140 81140 333 10319 29088 55039 59026;
0173827650999992006042312004-07333-047467FM-12+019399999V0201801N000510120019N0200001N1+02481+02381101641ADDAA124002091GF107991051081008001041001KA1240N+02371MA1999999099241MD1999999-0101REMSYN082AAXX  23124 82765 22598 71801 10248 20238 39924 40164 85840 333 20237 59010 60024;
0137827650999992006042318004-07333-047467FM-12+019399999V0200501N003610450019N0200001N1+02861+02311101221ADDGF107991041061008001021001MA1999999098831MD1999999-0051REMSYN070AAXX  23184 82765 32598 70507 10286 20231 39883 40122 84620 333 59005;
0168827650999992006042400004-07333-047467FM-12+019399999V0209999C000010120019N0200001N1+02621+02481101401ADDGF108991061081008001021999KA1240M+03351MA1999999099001MD1999999+0001REMSYN088AAXX  24004 82765 32598 80000 10262 20248 39900 40140 8682/ 333 10335 29088 55052 58000;
0184827650999992006042412004-07333-047467FM-12+019399999V0201401N001010120019N0200001N1+02521+02401101511ADDAY121061AY201061GF108991071081008001021999KA1240N+02441MA1999999099101MD1999999-0141MW1031REMSYN082AAXX  24124 82765 31598 81402 10252 20240 39910 40151 70320 8782/ 333 20244 59014;
0182827650999992006042418004-07333-047467FM-12+019399999V0203601N001510450019N0200001N1+02741+02381101031ADDAA106001091AY191061AY261061GF108991041021008001021999MA1999999098641MD1999999-0191MW1001REMSYN082AAXX  24184 82765 21598 83603 10274 20238 39864 40103 70096 8422/ 333 59019 60011;
0168827650999992006042500004-07333-047467FM-12+019399999V0209999C000010120019N0200001N1+02621+02441101311ADDGF108991061081008001021999KA1240M+03271MA1999999098911MD1999999-0091REMSYN088AAXX  25004 82765 32598 80000 10262 20244 39891 40131 8682/ 333 10327 29088 55036 59009;
0173827650999992006042512004-07333-047467FM-12+019399999V0201401N001010450019N0200001N1+02561+02421101521ADDAA124001091GF106991041021008001021001KA1240N+02371MA1999999099121MD1999999+0021REMSYN082AAXX  25124 82765 22598 61402 10256 20242 39912 40152 84220 333 20237 58002 60014;
0165827650999992006042518004-07333-047467FM-12+019399999V0200901N003110450019N0200001N1+03141+02481101061ADDAY121061AY201061GF107991031071008001041001MA1999999098681MD1999999+0041MW1161REMSYN076AAXX  25184 82765 31598 70906 10314 20248 39868 40106 71620 83740 333 58004;
0232827650999992006042600004-07333-047467FM-12+019399999V0203201N000519999999N0200001N1+02521+02401101441ADDAA106002091AY161061AY261061GF106991999011008001031021KA1240M+03251MA1999999099041MD1999999+0131MW1131REMSYN100AAXX  26004 82765 21598 63201 10252 20240 39904 40144 71366 88132 333 10325 29086 55028 58013 60021;EQDQ01+000082SCOTLC
0201827650999992006042612004-07333-047467FM-12+019399999V0202501N001010120019N0200001N1+02561+02461101681ADDAA124002091AY151061AY201061GF108991061081008001021999KA1240N+02431MA1999999099271MD1999999+0151MW1031REMSYN088AAXX  26124 82765 21598 82502 10256 20246 39927 40168 70350 8682/ 333 20243 58015 60024;
0137827650999992006042618004-07333-047467FM-12+019399999V0202301N002110120019N0200001N1+02841+02401101251ADDGF108991051081008001021999MA1999999098861MD1999999+0181REMSYN070AAXX  26184 82765 32598 82304 10284 20240 39886 40125 8582/ 333 58018;
0168827650999992006042700004-07333-047467FM-12+019399999V0202701N000510120019N0200001N1+02541+02381101431ADDGF108991061081008001021999KA1240M+02911MA1999999099031MD1999999-0011REMSYN088AAXX  27004 82765 32598 82701 10254 20238 39903 40143 8682/ 333 10291 29088 55007 59001;
0192827650999992006042712004-07333-047467FM-12+019399999V0209999C000010450019N0200001N1+02601+02421101601ADDAA124000091GF105991031021008001031041KA1240N+02431MA1999999099191MD1999999-0081REMSYN082AAXX  27124 82765 22598 50000 10260 20242 39919 40160 83234 333 20243 59008 69914;EQDQ01  00002PRCP24
0137827650999992006042718004-07333-047467FM-12+019399999V0201401N001512200019N0200001N1+03291+02321101121ADDGF104991021021008001041041MA1999999098751MD1999999-0111REMSYN070AAXX  27184 82765 32598 41403 10329 20232 39875 40112 82244 333 59011;
0178827650999992006042800004-07333-047467FM-12+019399999V0209999C000012200019N0200001N1+02841+02601101361ADDGA1001+999999999GF100991001001999999001001KA1240M+03411MA1999999098971MD1999999-0061REMSYN082AAXX  28004 82765 32998 00000 10284 20260 39897 40136 333 10341 29080 55096 59006;
0201827650999992006042812004-07333-047467FM-12+019399999V0203201N001510090019N0200001N1+02661+02441101511ADDAA124000391AY161061AY221061GF107991051081004501061001KA1240N+02491MA1999999099121MD1999999-0071MW1031REMSYN088AAXX  28124 82765 21498 73203 10266 20244 39912 40151 70362 85860 333 20249 59007 69934;
0182827650999992006042818004-07333-047467FM-12+019399999V0201601N002110075019N0200001N1+03081+02521101011ADDAA106002091AY161061AY221061GF107991051021008001011001MA1999999098641MD1999999-0111MW1031REMSYN082AAXX  28184 82765 21598 71604 10308 20252 39864 40101 70362 85210 333 59011 60021;
0196827650999992006042900004-07333-047467FM-12+019399999V0209999C000010042019N0200001N1+02701+02501101361ADDAY191061AY221061GF108991051031004501021999KA1240M+03251MA1999999098971MD1999999+0001MW1171REMSYN094AAXX  29004 82765 31498 80000 10270 20250 39897 40136 71792 8532/ 333 10325 29084 55022 58000;
0201827650999992006042912004-07333-047467FM-12+019399999V0203601N001510075019N0100001N1+02461+02341101581ADDAA124007991AY101061AY201061GF108991061051008001021999KA1240N+02391MA1999999099181MD1999999+0061MW1631REMSYN088AAXX  29124 82765 21597 83603 10246 20234 39918 40158 76300 8652/ 333 20239 58006 60084;
0182827650999992006042918004-07333-047467FM-12+019399999V0209999C000010075019N0200001N1+02521+02451101221ADDAA106013091AY161061AY261061GF108991061051008001021999MA1999999098811MD1999999+0171MW1511REMSYN082AAXX  29184 82765 21598 80000 10252 20245 39881 40122 75166 8652/ 333 58017 60131;
0213827650999992006043000004-07333-047467FM-12+019399999V0201801N000510075019N0200001N1+02461+02411101401ADDAA106002091AY161061AY251061GF108991061051008001021999KA1240M+03111MA1999999098991MD1999999+0021MW1001REMSYN100AAXX  30004 82765 21598 81801 10246 20241 39899 40140 70065 8652/ 333 10311 29096 55018 58002 60021;
0173827650999992006043012004-07333-047467FM-12+019399999V0209999C000010090019N0200001N1+02461+02361101611ADDAA124014091GF108991061081004501021999KA1240N+02371MA1999999099191MD1999999+0011REMSYN082AAXX  30124 82765 22498 80000 10246 20236 39919 40161 8682/ 333 20237 58001 60144;
0182827650999992006043018004-07333-047467FM-12+019399999V0203601N002110090019N0020001N1+02501+02321101411ADDAA106002091AY161061AY221061GF108991051081004501021999MA1999999098991MD1999999+0181MW1531REMSYN082AAXX  30184 82765 21495 83604 10250 20232 39899 40141 75362 8582/ 333 58018 60021;
0213827650999992006050100004-07333-047467FM-12+019399999V0200501N001010150019N0200001N1+02311+02201101551ADDAA106000021AY151061AY221061GF108991081001017501011999KA1240M+02791MA1999999099131MD1999999+0141MW1001REMSYN100AAXX  01004 82765 21798 80502 10231 20220 39913 40155 70052 8801/ 333 10279 29093 55000 58014 69911;
0173827650999992006050112004-07333-047467FM-12+019399999V0201401N001010450019N0200001N1+02381+02291101621ADDAA124002091GF107991031081004501031001KA1240N+02211MA1999999099191MD1999999+0001REMSYN082AAXX  01124 82765 22498 71402 10238 20229 39919 40162 83830 333 20221 58000 60024;
0201827650999992006050118004-07333-047467FM-12+019399999V0200201N001511050019N0040001N1+03081+02521101241ADDAA106000091AY151061AY221061GF106991021031008001031041MA1999999098851MD1999999-0141MW1151REMSYN082AAXX  01184 82765 21596 60203 10308 20252 39885 40124 71552 82334 333 59014 69911;EQDQ01  00002PRCP06
0168827650999992006050200004-07333-047467FM-12+019399999V0209999C000010450019N0200001N1+02601+02461101491ADDGF105991031081008001011001KA1240M+03271MA1999999099081MD1999999-0051REMSYN088AAXX  02004 82765 32598 50000 10260 20246 39908 40149 83810 333 10327 29088 55044 59005;
0192827650999992006050212004-07333-047467FM-12+019399999V0200701N002110450019N0200001N1+02741+02381101671ADDAA124000091GF106991021011008001031091KA1240N+02441MA1999999099271MD1999999+0081REMSYN082AAXX  02124 82765 22598 60704 10274 20238 39927 40167 82139 333 20244 58008 69914;EQDQ01  00002PRCP24
0137827650999992006050218004-07333-047467FM-12+019399999V0200501N002110450019N0200001N1+03191+02441101181ADDGF107991041031008001011051MA1999999098811MD1999999-0041REMSYN070AAXX  02184 82765 32598 70504 10319 20244 39881 40118 84315 333 59004;
0168827650999992006050300004-07333-047467FM-12+019399999V0202701N001012200019N0200001N1+02811+02541101421ADDGF103991031011008001001001KA1240M+03341MA1999999099041MD1999999-0041REMSYN088AAXX  03004 82765 32598 32702 10281 20254 39904 40142 83100 333 10334 29080 55040 59004;
0220827650999992006050312004-07333-047467FM-12+019399999V0202301N001012200019N0200001N1+02581+02481101611ADDAA124000091AY151061AY201061GF104991031081008001021999KA1240N+02411MA1999999099221MD1999999-0051MW1001REMSYN088AAXX  03124 82765 21598 42302 10258 20248 39922 40161 70050 8382/ 333 20241 59005 69924;EQDQ01  00002PRCP24
0137827650999992006050318004-07333-047467FM-12+019399999V0201601N001010450019N0200001N1+03081+02541101201ADDGF107991031021008001021001MA1999999098821MD1999999+0011REMSYN070AAXX  03184 82765 32598 71602 10308 20254 39882 40120 83220 333 58001;
0168827650999992006050400004-07333-047467FM-12+019399999V0209999C000012200019N0200001N1+02721+02581101391ADDGF103991031001008001011001KA1240M+03231MA1999999099001MD1999999-0041REMSYN088AAXX  04004 82765 32598 30000 10272 20258 39900 40139 83010 333 10323 29088 55010 59004;
0156827650999992006050412004-07333-047467FM-12+019399999V0203601N000510450019N0200001N1+02581+02381101511ADDGF106991011011008001091001KA1240N+02331MA1999999099111MD1999999-0111REMSYN076AAXX  04124 82765 32598 63601 10258 20238 39911 40151 81190 333 20233 59011;
0137827650999992006050418004-07333-047467FM-12+019399999V0201801N000511050019N0200001N1+03281+02401101101ADDGF106991041021008001001051MA1999999098731MD1999999-0091REMSYN070AAXX  04184 82765 32598 61801 10328 20240 39873 40110 84205 333 59009;
0187827650999992006050500004-07333-047467FM-12+019399999V0203601N000512200019N0200001N1+02781+02421101371ADDGF104991031031008001021001KA1240M+99999MA1999999098981MD1999999-0021REMSYN088AAXX  05004 82765 32598 43601 10278 20242 39898 40137 83320 333 10243 29073 55071 59002;EQDQ01 +02432ATMX  
0156827650999992006050512004-07333-047467FM-12+019399999V0201801N001512200019N0200001N1+02701+02451101531ADDGF104991021011008001041001KA1240N+02431MA1999999099141MD1999999+0031REMSYN076AAXX  05124 82765 32598 41803 10270 20245 39914 40153 82140 333 20243 58003;
0137827650999992006050518004-07333-047467FM-12+019399999V0201801N002110450019N0200001N1+03321+02661101061ADDGF106991031021008001041001MA1999999098691MD1999999-0041REMSYN070AAXX  05184 82765 32598 61804 10332 20266 39869 40106 83240 333 59004;
0196827650999992006050600004-07333-047467FM-12+019399999V0200501N001510450019N0200001N1+02821+02481101411ADDAY101061AY201061GF106991021031008001041001KA1240M+03431MA1999999099031MD1999999+0051MW1131REMSYN094AAXX  06004 82765 31598 60503 10282 20248 39903 40141 71300 82340 333 10343 29077 55097 58005;
0201827650999992006050612004-07333-047467FM-12+019399999V0203201N001510120019N0200001N1+02681+02481101601ADDAA124005191AY161061AY261061GF107991051081008001041001KA1240N+02391MA1999999099211MD1999999+0071MW1001REMSYN088AAXX  06124 82765 21598 73203 10268 20248 39921 40160 70066 85840 333 20239 58007 60054;
0165827650999992006050618004-07333-047467FM-12+019399999V0203201N002110450019N0200001N1+03201+02481101131ADDAY101061AY201061GF107991031031008001021001MA1999999098761MD1999999+0071MW1961REMSYN076AAXX  06184 82765 31598 73204 10320 20248 39876 40113 79600 83320 333 58007;
0213827650999992006050700004-07333-047467FM-12+019399999V0203601N001010120019N0200001N1+02461+02341101481ADDAA106031091AY161061AY261061GF108991061081008001021999KA1240M+03291MA1999999099081MD1999999+0051MW1001REMSYN100AAXX  07004 82765 21598 83602 10246 20234 39908 40148 70066 8682/ 333 10329 29084 55050 58005 60311;
0173827650999992006050712004-07333-047467FM-12+019399999V0203601N002110120019N0200001N1+02541+02351101711ADDAA124031091GF108991061081008001021999KA1240N+02391MA1999999099291MD1999999+0081REMSYN082AAXX  07124 82765 22598 83604 10254 20235 39929 40171 8682/ 333 20239 58008 60314;
0137827650999992006050718004-07333-047467FM-12+019399999V0209999C000010450019N0200001N1+03161+02321101281ADDGF105991041021008001041001MA1999999098901MD1999999+0141REMSYN070AAXX  07184 82765 32598 50000 10316 20232 39890 40128 84240 333 58014;
0168827650999992006050800004-07333-047467FM-12+019399999V0209999C000012200019N0200001N1+02701+02451101521ADDGF104991041011008001001001KA1240M+03191MA1999999099121MD1999999+0041REMSYN088AAXX  08004 82765 32598 40000 10270 20245 39912 40152 84100 333 10319 29081 55056 58004;
0156827650999992006050812004-07333-047467FM-12+019399999V0200901N001010450019N0200001N1+02661+02391101671ADDGF105991031011008001041001KA1240N+02311MA1999999099271MD1999999-0021REMSYN076AAXX  08124 82765 32598 50902 10266 20239 39927 40167 83140 333 20231 59002;
0137827650999992006050818004-07333-047467FM-12+019399999V0201401N001012200019N0200001N1+03261+02351101131ADDGF103991031011008001001001MA1999999098761MD1999999-0141REMSYN070AAXX  08184 82765 32598 31402 10326 20235 39876 40113 83100 333 59014;
0168827650999992006050900004-07333-047467FM-12+019399999V0201401N000512200019N0200001N1+02761+02481101451ADDGF102991021011008001001001KA1240M+03411MA1999999099061MD1999999-0061REMSYN088AAXX  09004 82765 32598 21401 10276 20248 39906 40145 82100 333 10341 29078 55102 59006;
0156827650999992006050912004-07333-047467FM-12+019399999V0200501N001510450019N0200001N1+02601+02371101571ADDGF106991031011008001031091KA1240N+02421MA1999999099181MD1999999-0091REMSYN076AAXX  09124 82765 32598 60503 10260 20237 39918 40157 83139 333 20242 59009;
0137827650999992006050918004-07333-047467FM-12+019399999V0203601N003110450019N0200001N1+03161+02321101121ADDGF106991041021008001011041MA1999999098751MD1999999-0011REMSYN070AAXX  09184 82765 32598 63606 10316 20232 39875 40112 84214 333 59001;
0168827650999992006051000004-07333-047467FM-12+019399999V0209999C000012200019N0200001N1+02721+02431101431ADDGF102991011001017501031091KA1240M+03251MA1999999099041MD1999999-0021REMSYN088AAXX  10004 82765 32798 20000 10272 20243 39904 40143 81039 333 10325 29079 55069 59002;
0156827650999992006051012004-07333-047467FM-12+019399999V0209999C000010450019N0200001N1+02551+02421101661ADDGF107991041081004501031001KA1240N+02401MA1999999099261MD1999999+0081REMSYN076AAXX  10124 82765 32498 70000 10255 20242 39926 40166 84830 333 20240 58008;
0137827650999992006051018004-07333-047467FM-12+019399999V0201401N000510450019N0200001N1+03271+02351101141ADDGF106991041031008001061001MA1999999098771MD1999999+0021REMSYN070AAXX  10184 82765 32598 61401 10327 20235 39877 40114 84360 333 58002;
