0213827840999992006010100004-07317-039300FM-12+040999999V0200901N001512200019N0020001N1+02681+01991100951ADDAA106000591AY151061AY211061GF103991031011008001001001KA1240M+03291MA1999999096451MD1999999+0021MW1021REMSYN100AAXX  01004 82784 21595 30903 10268 20199 39645 40095 70251 83100 333 10329 29061 55064 58002 69951;
0201827840999992006010112004-07317-039300FM-12+040999999V0200501N001512200019N0200001N1+02681+01991101141ADDAA124000591AY101061AY251061GF103991021021008001021001KA1240N+02271MA1999999096641MD1999999+0051MW1021REMSYN088AAXX  01124 82784 21598 30503 10268 20199 39664 40114 70205 82220 333 20227 58005 69954;
0175827840999992006010212004-07317-039300FM-12+040999999V0201401N001519999999N0200001N1+02601+02101101171ADDGF108991999021008001001001KA1240N+02341MA1999999096661MD1999999+0021REMSYN076AAXX  02124 82784 32598 81403 10260 20210 39666 40117 83200 333 20234 58002;EQDQ01+000032SCOTLC
0137827840999992006010218004-07317-039300FM-12+040999999V0203201N001510450019N0200001N1+03221+01991100761ADDGF106991031021008001021001MA1999999096231MD1999999+0031REMSYN070AAXX  02184 82784 32598 63203 10322 20199 39623 40076 83220 333 58003;
0168827840999992006010300004-07317-039300FM-12+040999999V0202701N001512200019N0020001N1+02821+02201100881ADDGF104991041041008001001001KA1240M+03351MA1999999096391MD1999999+0001REMSYN088AAXX  03004 82784 32595 42703 10282 20220 39639 40088 84400 333 10335 29066 55070 58000;
0156827840999992006010312004-07317-039300FM-12+040999999V0200901N001510075019N0200001N1+02751+02091101071ADDGF106991061021008001001001KA1240N+02301MA1999999096591MD1999999-0071REMSYN076AAXX  03124 82784 32598 60903 10275 20209 39659 40107 86200 333 20230 59007;
0137827840999992006010318004-07317-039300FM-12+040999999V0200501N003110075019N0200001N1+03401+01721100641ADDGF105991051021008001001001MA1999999096211MD1999999-0051REMSYN070AAXX  03184 82784 32598 50506 10340 20172 39621 40064 85200 333 59005;
0168827840999992006010400004-07317-039300FM-12+040999999V0201801N002619999999N0020001N1+02841+02191100781ADDGF108991081081999999999999KA1240M+03471MA1999999096321MD1999999+0071REMSYN088AAXX  04004 82784 32/95 81805 10284 20219 39632 40078 888// 333 10347 29060 55085 58007;
0191827840999992006010412004-07317-039300FM-12+040999999V0200901N046329999999N0200001N1+02601+02101100981ADDGF108991999011008001001001KA1240N+02311MA1999999096491MD1999999+0101REMSYN076AAXX  04124 82784 32598 80990 10260 20210 39649 40098 82100 333 20231 58010;EQDQ01+004633WOSPD Q02+000022SCOTLC
0156827840999992006010418004-07317-039300FM-12+040999999V0201401N002119999999N0200001N1+03341+01751100551ADDGF106991999021008001001001MA1999999096081MD1999999-0131REMSYN070AAXX  04184 82784 32598 61404 10334 20175 39608 40055 84200 333 59013;EQDQ01+000042SCOTLC
0168827840999992006010500004-07317-039300FM-12+040999999V0203601N001512200019N0020001N1+02681+02111100641ADDGF102991021011008001001001KA1240M+03351MA1999999096151MD1999999-0171REMSYN088AAXX  05004 82784 32595 23603 10268 20211 39615 40064 82100 333 10335 29064 55086 59017;
0166827840999992006010512004-07317-039300FM-12+040999999V0200501N002112200019N0020001N1+02681+01921100961ADDGA1001+999999999GF100991001001999999001001KA1240N+02081MA1999999096471MD1999999-0021REMSYN070AAXX  05124 82784 32995 00504 10268 20192 39647 40096 333 20208 59002;
0156827840999992006010518004-07317-039300FM-12+040999999V0200501N002112200019N0200001N1+03431+01611100361ADDGF101991999011008001001001MA1999999095941MD1999999-0141REMSYN070AAXX  05184 82784 32598 10504 10343 20161 39594 40036 82100 333 59014;EQDQ01+000022SCOTLC
0156827840999992006010612004-07317-039300FM-12+040999999V0203601N002112200019N0200001N1+02681+01991101011ADDGF101991011021008001001001KA1240N+02061MA1999999096531MD1999999+0061REMSYN076AAXX  06124 82784 32598 13604 10268 20199 39653 40101 81200 333 20206 58006;
0137827840999992006010618004-07317-039300FM-12+040999999V0200501N002112200019N0200001N1+03341+01711100551ADDGF102991011021008001031001MA1999999096121MD1999999+0181REMSYN070AAXX  06184 82784 32598 20504 10334 20171 39612 40055 81230 333 58018;
0168827840999992006010700004-07317-039300FM-12+040999999V0209999C000012200019N0020001N1+02521+02001100831ADDGF102991011041008001031001KA1240M+03431MA1999999096331MD1999999+0121REMSYN088AAXX  07004 82784 32595 20000 10252 20200 39633 40083 81430 333 10343 29062 55101 58012;
0156827840999992006010712004-07317-039300FM-12+040999999V0200501N002112200019N0020001N1+02771+01961101151ADDGF102991021011008001001001KA1240N+02221MA1999999096641MD1999999+0111REMSYN076AAXX  07124 82784 32595 20504 10277 20196 39664 40115 82100 333 20222 58011;
0147827840999992006010718004-07317-039300FM-12+040999999V0200901N002612200019N0200001N1+03461+01601100541ADDGA1001+999999999GF100991001001999999001001MA1999999096111MD1999999-0011REMSYN064AAXX  07184 82784 32998 00905 10346 20160 39611 40054 333 59001;
0178827840999992006010800004-07317-039300FM-12+040999999V0209999C000012200019N0020001N1+02621+01881100761ADDGA1001+999999999GF100991001001999999001001KA1240M+03531MA1999999096281MD1999999-0051REMSYN082AAXX  08004 82784 32995 00000 10262 20188 39628 40076 333 10353 29056 55103 59005;
0156827840999992006010812004-07317-039300FM-12+040999999V0200501N001512200019N0200001N1+02721+01981101131ADDGF102991021011008001001001KA1240N+02031MA1999999096631MD1999999-0011REMSYN076AAXX  08124 82784 32598 20503 10272 20198 39663 40113 82100 333 20203 59001;
0137827840999992006010818004-07317-039300FM-12+040999999V0202301N001010075019N0200001N1+03441+01921100581ADDGF106991061021008001001001MA1999999096151MD1999999+0041REMSYN070AAXX  08184 82784 32598 62302 10344 20192 39615 40058 86200 333 58004;
0168827840999992006010900004-07317-039300FM-12+040999999V0201401N002112200019N0020001N1+02761+01581100801ADDGF103991031001017501001011KA1240M+03501MA1999999096321MD1999999+0041REMSYN088AAXX  09004 82784 32795 31404 10276 20158 39632 40080 83001 333 10350 29050 55114 58004;
0156827840999992006010912004-07317-039300FM-12+040999999V0200501N002110075019N0200001N1+02651+01981101141ADDGF107991071021008001001001KA1240N+02361MA1999999096641MD1999999+0011REMSYN076AAXX  09124 82784 32598 70504 10265 20198 39664 40114 87200 333 20236 58001;
0137827840999992006010918004-07317-039300FM-12+040999999V0203201N001019999999N0200001N1+03221+02081100581ADDGF108991999021008001001001MA1999999096141MD1999999-0011REMSYN070AAXX  09184 82784 32598 83202 10322 20208 39614 40058 83200 333 59001;
0168827840999992006011000004-07317-039300FM-12+040999999V0201801N003112200019N0020001N1+02821+01831100941ADDGF102991021001012501041001KA1240M+03361MA1999999096461MD1999999+0141REMSYN088AAXX  10004 82784 32695 21806 10282 20183 39646 40094 82040 333 10336 29062 55058 58014;
0201827840999992006011012004-07317-039300FM-12+040999999V0209999C000010042019N0200001N1+02391+02331101331ADDAA124039991AY191061AY261061GF108991081071004501999999KA1240N+02051MA1999999096811MD1999999+0171MW1021REMSYN088AAXX  10124 82784 21498 80000 10239 20233 39681 40133 70296 887// 333 20205 58017 60404;
0173827840999992006011112004-07317-039300FM-12+040999999V0200901N001512200019N0200001N1+02621+01811101251ADDAA124001091GF103991031011008001001001KA1240N+02281MA1999999096731MD1999999-0081REMSYN082AAXX  11124 82784 22598 30903 10262 20181 39673 40125 83100 333 20228 59008 69994;
0137827840999992006011118004-07317-039300FM-12+040999999V0201401N002612200019N0200001N1+03161+01921100771ADDGF105991031021008001001011MA1999999096321MD1999999-0121REMSYN070AAXX  11184 82784 32598 51405 10316 20192 39632 40077 83201 333 59012;
0137827840999992006011218004-07317-039300FM-12+040999999V0201401N002112200019N0200001N1+03171+02161100861ADDGF103991031021008001001001MA1999999096381MD1999999+0061REMSYN070AAXX  12184 82784 32598 31404 10317 20216 39638 40086 83200 333 58006;
0168827840999992006011300004-07317-039300FM-12+040999999V0200901N000510120019N0020001N1+02681+02311101011ADDGF108991081081008001999999KA1240M+03291MA1999999096511MD1999999+0081REMSYN088AAXX  13004 82784 32595 80901 10268 20231 39651 40101 888// 333 10329 29070 55107 58008;
0156827840999992006011312004-07317-039300FM-12+040999999V0200901N002112200019N0200001N1+02601+01961101281ADDGF103991031021008001001001KA1240N+02301MA1999999096771MD1999999+0001REMSYN076AAXX  13124 82784 32598 30904 10260 20196 39677 40128 83200 333 20230 58000;
0156827840999992006011318004-07317-039300FM-12+040999999V0201401N003112200019N0200001N1+03281+02101100851ADDGF104991999021008001001001MA1999999096401MD1999999+0021REMSYN070AAXX  13184 82784 32598 41406 10328 20210 39640 40085 83200 333 58002;EQDQ01+000032SCOTLC
0168827840999992006011400004-07317-039300FM-12+040999999V0201401N001510450019N0020001N1+02751+01941101051ADDGF107991041091008001031001KA1240M+03371MA1999999096551MD1999999+0041REMSYN088AAXX  14004 82784 32595 71403 10275 20194 39655 40105 84930 333 10337 29060 55102 58004;
0156827840999992006011412004-07317-039300FM-12+040999999V0201401N002110075019N0200001N1+02671+01971101221ADDGF106991061021008001001001KA1240N+02301MA1999999096721MD1999999-0051REMSYN076AAXX  14124 82784 32598 61404 10267 20197 39672 40122 86200 333 20230 59005;
0137827840999992006011418004-07317-039300FM-12+040999999V0200901N003112200019N0200001N1+03251+01891100791ADDGF102991021011008001001001MA1999999096341MD1999999-0061REMSYN070AAXX  14184 82784 32598 20906 10325 20189 39634 40079 82100 333 59006;
0178827840999992006011500004-07317-039300FM-12+040999999V0201401N001512200019N0020001N1+02731+01811101001ADDGA1001+999999999GF100991001001999999001001KA1240M+03361MA1999999096511MD1999999-0041REMSYN082AAXX  15004 82784 32995 01403 10273 20181 39651 40100 333 10336 29056 55114 59004;
0156827840999992006011512004-07317-039300FM-12+040999999V0201401N003112200019N0200001N1+02661+01681101201ADDGF102991011011008001041001KA1240N+02011MA1999999096701MD1999999-0021REMSYN076AAXX  15124 82784 32598 21406 10266 20168 39670 40120 81140 333 20201 59002;
0137827840999992006011518004-07317-039300FM-12+040999999V0201401N001510450019N0200001N1+03271+01841100711ADDGF105991011011008001021001MA1999999096241MD1999999-0101REMSYN070AAXX  15184 82784 32598 51403 10327 20184 39624 40071 81120 333 59010;
0168827840999992006011600004-07317-039300FM-12+040999999V0201801N001010150019N0020001N1+02571+02061100951ADDGF107991071001017501021001KA1240M+03351MA1999999096441MD1999999-0071REMSYN088AAXX  16004 82784 32795 71802 10257 20206 39644 40095 87020 333 10335 29061 55116 59007;
0156827840999992006011612004-07317-039300FM-12+040999999V0200901N002612200019N0100001N1+02681+01781101221ADDGF104991041001012501001021KA1240N+02061MA1999999096701MD1999999+0001REMSYN076AAXX  16124 82784 32697 40905 10268 20178 39670 40122 84002 333 20206 58000;
0168827840999992006011700004-07317-039300FM-12+040999999V0200901N001010450019N0020001N1+02601+02011100951ADDGF105991021011008001041001KA1240M+03401MA1999999096451MD1999999+0011REMSYN088AAXX  17004 82784 32595 50902 10260 20201 39645 40095 82140 333 10340 29062 55113 58001;
0156827840999992006011712004-07317-039300FM-12+040999999V0200901N003110120019N0200001N1+02781+01761101071ADDGF107991071021012501001001KA1240N+02301MA1999999096571MD1999999-0131REMSYN076AAXX  17124 82784 32698 70906 10278 20176 39657 40107 87200 333 20230 59013;
0137827840999992006011718004-07317-039300FM-12+040999999V0200901N002110450019N0200001N1+03291+01871100661ADDGF108991041011008001011001MA1999999096221MD1999999-0011REMSYN070AAXX  17184 82784 32598 80904 10329 20187 39622 40066 84110 333 59001;
0168827840999992006011800004-07317-039300FM-12+040999999V0200901N002112200019N0020001N1+02851+01701100911ADDGF102991021011008001001001KA1240M+03421MA1999999096441MD1999999-0011REMSYN088AAXX  18004 82784 32595 20904 10285 20170 39644 40091 82100 333 10342 29049 55105 59001;
0175827840999992006011812004-07317-039300FM-12+040999999V0201401N002619999999N0200001N1+02781+02041101091ADDGF106991999021008001001001KA1240N+02361MA1999999096611MD1999999+0041REMSYN076AAXX  18124 82784 32598 61405 10278 20204 39661 40109 84200 333 20236 58004;EQDQ01+000042SCOTLC
0178827840999992006011900004-07317-039300FM-12+040999999V0200501N001012200019N0020001N1+02661+02091100801ADDGA1001+999999999GF100991001001999999001001KA1240M+03411MA1999999096321MD1999999-0121REMSYN082AAXX  19004 82784 32995 00502 10266 20209 39632 40080 333 10341 29064 55105 59012;
0175827840999992006011912004-07317-039300FM-12+040999999V0200901N000519999999N0200001N1+02601+01171101051ADDGF108991999021008001001001KA1240N+02231MA1999999096551MD1999999-0061REMSYN076AAXX  19124 82784 32598 80901 10260 20117 39655 40105 82200 333 20223 59006;EQDQ01+000022SCOTLC
0156827840999992006011918004-07317-039300FM-12+040999999V0201801N003110075019N0200001N1+03141+02001100591ADDGF108991999021008001001001MA1999999096141MD1999999-0011REMSYN070AAXX  19184 82784 32598 81806 10314 20200 39614 40059 86200 333 59001;EQDQ01+000062SCOTLC
0178827840999992006012000004-07317-039300FM-12+040999999V0201801N000512200019N0020001N1+02421+01951100781ADDGA1001+999999999GF100991001001999999001001KA1240M+03231MA1999999096261MD1999999-0061REMSYN082AAXX  20004 82784 32995 01801 10242 20195 39626 40078 333 10323 29069 55042 59006;
0156827840999992006012012004-07317-039300FM-12+040999999V0201801N003112200019N0200001N1+02621+01811101051ADDGF102991021001017501031001KA1240N+02021MA1999999096521MD1999999-0031REMSYN076AAXX  20124 82784 32798 21806 10262 20181 39652 40105 82030 333 20202 59003;
0137827840999992006012018004-07317-039300FM-12+040999999V0201801N002112200019N0200001N1+03221+01611100611ADDGF104991011011008001031001MA1999999096141MD1999999+0001REMSYN070AAXX  20184 82784 32598 41804 10322 20161 39614 40061 81130 333 58000;
0187827840999992006012100004-07317-039300FM-12+040999999V0201401N000512200019N0020001N1+03631+01911100821ADDGF103991021021008001031001KA1240M+99999MA1999999096321MD1999999+0061REMSYN088AAXX  21004 82784 32595 31401 10363 20191 39632 40082 82230 333 10341 29057 55116 58006;EQDQ01 +03412ATMX  
0156827840999992006012112004-07317-039300FM-12+040999999V0201401N001512200019N0200001N1+02621+01121101141ADDGF104991031021008001021001KA1240N+02291MA1999999096631MD1999999+0111REMSYN076AAXX  21124 82784 32598 41403 10262 20112 39663 40114 83220 333 20229 58011;
0137827840999992006012118004-07317-039300FM-12+040999999V0201401N002110450019N0200001N1+03281+01861100721ADDGF106991031021008001021001MA1999999096241MD1999999+0101REMSYN070AAXX  21184 82784 32598 61404 10328 20186 39624 40072 83220 333 58010;
0168827840999992006012200004-07317-039300FM-12+040999999V0200901N001510075019N0020001N1+02861+02011100841ADDGF106991061041008001001001KA1240M+03431MA1999999096361MD1999999+0041REMSYN088AAXX  22004 82784 32595 60903 10286 20201 39636 40084 86400 333 10343 29059 55091 58004;
0156827840999992006012212004-07317-039300FM-12+040999999V0201401N001512200019N0200001N1+02661+02111101101ADDGF103991031021008001001001KA1240N+02321MA1999999096611MD1999999-0021REMSYN076AAXX  22124 82784 32598 31403 10266 20211 39661 40110 83200 333 20232 59002;
0137827840999992006012218004-07317-039300FM-12+040999999V0201401N002112200019N0200001N1+03281+02071100721ADDGF104991021021008001021001MA1999999096241MD1999999+0001REMSYN070AAXX  22184 82784 32598 41404 10328 20207 39624 40072 82220 333 58000;
0213827840999992006012300004-07317-039300FM-12+040999999V0201401N001510120019N0020001N1+02681+02221100931ADDAA106000021AY121061AY221061GF106991061081008001001001KA1240M+03501MA1999999096431MD1999999+0071MW1201REMSYN100AAXX  23004 82784 21595 61403 10268 20222 39643 40093 72022 86800 333 10350 29068 55105 58007 69921;
0173827840999992006012312004-07317-039300FM-12+040999999V0200901N003110450019N0200001N1+02821+02171101121ADDAA124000021GF106991041021008001011001KA1240N+02421MA1999999096621MD1999999+0011REMSYN082AAXX  23124 82784 22598 60906 10282 20217 39662 40112 84210 333 20242 58001 69924;
0137827840999992006012318004-07317-039300FM-12+040999999V0201401N002610075019N0200001N1+03461+02131100611ADDGF106991061021008001001001MA1999999096111MD1999999-0131REMSYN070AAXX  23184 82784 32598 61405 10346 20213 39611 40061 86200 333 59013;
0168827840999992006012400004-07317-039300FM-12+040999999V0209999C000010042019N0020001N1+02691+02171100901ADDGF106991061021004501001001KA1240M+03551MA1999999096421MD1999999-0011REMSYN088AAXX  24004 82784 32495 60000 10269 20217 39642 40090 86200 333 10355 29065 55099 59001;
0156827840999992006012412004-07317-039300FM-12+040999999V0201401N005110450019N0200001N1+02801+02271101121ADDGF106991041011008001011001KA1240N+02381MA1999999096631MD1999999+0011REMSYN076AAXX  24124 82784 32598 61410 10280 20227 39663 40112 84110 333 20238 58001;
0137827840999992006012418004-07317-039300FM-12+040999999V0200501N003110450019N0200001N1+02621+02251100681ADDGF106991041071008001011001MA1999999096171MD1999999+0061REMSYN070AAXX  24184 82784 32598 60506 10262 20225 39617 40068 84710 333 58006;
0178827840999992006012500004-07317-039300FM-12+040999999V0201401N001512200019N0020001N1+02761+02041100891ADDGA1001+999999999GF100991001001999999001001KA1240M+03201MA1999999096421MD1999999+0001REMSYN082AAXX  25004 82784 32995 01403 10276 20204 39642 40089 333 10320 29071 55097 58000;
0156827840999992006012512004-07317-039300FM-12+040999999V0200901N002610450019N0200001N1+02851+01931101241ADDGF108991011011008001011001KA1240N+02221MA1999999096761MD1999999+0131REMSYN076AAXX  25124 82784 32598 80905 10285 20193 39676 40124 81110 333 20222 58013;
0137827840999992006012518004-07317-039300FM-12+040999999V0200501N003110150019N0200001N1+03431+01781100741ADDGF108991081051017501999999MA1999999096291MD1999999+0121REMSYN070AAXX  25184 82784 32798 80506 10343 20178 39629 40074 885// 333 58012;
0168827840999992006012600004-07317-039300FM-12+040999999V0201801N001512200019N0200001N1+03141+02381101001ADDGF102991021041008001001001KA1240M+03711MA1999999096561MD1999999+0141REMSYN088AAXX  26004 82784 32598 21803 10314 20238 39656 40100 82400 333 10371 29056 55096 58014;
0156827840999992006012612004-07317-039300FM-12+040999999V0200501N002112200019N0020001N1+02861+02061101261ADDGF102991011011008001011001KA1240N+02361MA1999999096811MD1999999+0051REMSYN076AAXX  26124 82784 32595 20504 10286 20206 39681 40126 81110 333 20236 58005;
0147827840999992006012618004-07317-039300FM-12+040999999V0200901N002112200019N0200001N1+03291+01821100931ADDGA1001+999999999GF100991001001999999001001MA1999999096421MD1999999+0131REMSYN064AAXX  26184 82784 32598 00904 10329 20182 39642 40093 333 58013;
0168827840999992006012700004-07317-039300FM-12+040999999V0201801N001512200019N0200001N1+03161+02201100991ADDGF102991021041008001001001KA1240M+03691MA1999999096551MD1999999-0011REMSYN088AAXX  27004 82784 32598 21803 10316 20220 39655 40099 82400 333 10369 29054 55107 59001;
0156827840999992006012712004-07317-039300FM-12+040999999V0200501N002110150019N0200001N1+02871+02261101211ADDGF106991061001017501011001KA1240N+02381MA1999999096761MD1999999-0051REMSYN076AAXX  27124 82784 32798 60504 10287 20226 39676 40121 86010 333 20238 59005;
0156827840999992006012718004-07317-039300FM-12+040999999V0203601N003119999999N0200001N1+03601+01721100701ADDGF105991999021008001001001MA1999999096321MD1999999-0011REMSYN070AAXX  27184 82784 32598 53606 10360 20172 39632 40070 83200 333 59001;EQDQ01+000032SCOTLC
0178827840999992006012800004-07317-039300FM-12+040999999V0203201N001012200019N0020001N1+02691+02011101011ADDGA1001+999999999GF100991001001999999001001KA1240M+03711MA1999999096541MD1999999-0011REMSYN082AAXX  28004 82784 32995 03202 10269 20201 39654 40101 333 10371 29058 55111 59001;
0156827840999992006012812004-07317-039300FM-12+040999999V0200901N002110450019N0200001N1+02901+02171101161ADDGF106991021011008001011001KA1240N+02421MA1999999096681MD1999999-0081REMSYN076AAXX  28124 82784 32598 60904 10290 20217 39668 40116 82110 333 20242 59008;
0156827840999992006012818004-07317-039300FM-12+040999999V0200901N001010075019N0200001N1+03621+02081100651ADDGF108991999021008001001001MA1999999096241MD1999999-0081REMSYN070AAXX  28184 82784 32598 80902 10362 20208 39624 40065 86200 333 59008;EQDQ01+000062SCOTLC
0168827840999992006012900004-07317-039300FM-12+040999999V0201401N000519999999N0020001N1+02901+02431100961ADDGF105991051999999999999999KA1240M+03711MA1999999096511MD1999999-0031REMSYN088AAXX  29004 82784 32/95 51401 10290 20243 39651 40096 85/// 333 10371 29064 55108 59003;
0137827840999992006012918004-07317-039300FM-12+040999999V0203601N001010075019N0200001N1+03381+02161100671ADDGF105991051021008001021001MA1999999096251MD1999999+0011REMSYN070AAXX  29184 82784 32598 53602 10338 20216 39625 40067 85220 333 58001;
0213827840999992006013000004-07317-039300FM-12+040999999V0201401N001510120019N0020001N1+02481+02291100921ADDAA106000391AY121061AY221061GF108991081081008001999999KA1240M+03491MA1999999096411MD1999999-0101MW1201REMSYN100AAXX  30004 82784 21595 81403 10248 20229 39641 40092 72022 888// 333 10349 29077 55063 59010 69931;
0173827840999992006013012004-07317-039300FM-12+040999999V0200901N001510042019N0200001N1+02641+02181101171ADDAA124000391GF107991071051004501001001KA1240N+02321MA1999999096651MD1999999-0051REMSYN082AAXX  30124 82784 22498 70903 10264 20218 39665 40117 87500 333 20232 59005 69934;
0137827840999992006013018004-07317-039300FM-12+040999999V0200501N001012200019N0200001N1+03381+02061100641ADDGF104991041021008001001001MA1999999096211MD1999999-0041REMSYN070AAXX  30184 82784 32598 40502 10338 20206 39621 40064 84200 333 59004;
0168827840999992006013100004-07317-039300FM-12+040999999V0202301N001012200019N0020001N1+02781+02251100801ADDGF102991021041008001001001KA1240M+03511MA1999999096321MD1999999-0091REMSYN088AAXX  31004 82784 32595 22302 10278 20225 39632 40080 82400 333 10351 29067 55088 59009;
0156827840999992006013112004-07317-039300FM-12+040999999V0200501N002110075019N0020001N1+02681+02111101121ADDGF106991061021008001001001KA1240N+02261MA1999999096631MD1999999-0021REMSYN076AAXX  31124 82784 32595 60504 10268 20211 39663 40112 86200 333 20226 59002;
0137827840999992006013118004-07317-039300FM-12+040999999V0200501N001512200019N0200001N1+03321+02041100741ADDGF104991041021008001001001MA1999999096221MD1999999+0011REMSYN070AAXX  31184 82784 32598 40503 10332 20204 39622 40074 84200 333 58001;
0168827840999992006020100004-07317-039300FM-12+040999999V0203201N000512200019N0020001N1+02871+02281100751ADDGF104991041041008001001001KA1240M+03461MA1999999096281MD1999999-0041REMSYN088AAXX  01004 82784 32595 43201 10287 20228 39628 40075 84400 333 10346 29065 55076 59004;
0201827840999992006020112004-07317-039300FM-12+040999999V0203201N000510075019N0200001N1+02381+02311101101ADDAA124007991AY161061AY221061GF108991081061008001999999KA1240N+02201MA1999999096591MD1999999-0041MW1021REMSYN088AAXX  01124 82784 21598 83201 10238 20231 39659 40110 70262 886// 333 20220 59004 60084;
0137827840999992006020118004-07317-039300FM-12+040999999V0203601N001512200019N0200001N1+03181+02221100651ADDGF103991011021008001051001MA1999999096191MD1999999-0031REMSYN070AAXX  01184 82784 32598 33603 10318 20222 39619 40065 81250 333 59003;
0213827840999992006020200004-07317-039300FM-12+040999999V0201801N001010120019N0020001N1+02341+02261100901ADDAA106005191AY121061AY221061GF107991071081008001001001KA1240M+03301MA1999999096351MD1999999+0071MW1211REMSYN100AAXX  02004 82784 21595 71802 10234 20226 39635 40090 72122 87800 333 10330 29086 55069 58007 60051;
0201827840999992006020212004-07317-039300FM-12+040999999V0202301N002110075019N0200001N1+02131+02091101291ADDAA124042991AY161061AY221061GF108991081051008001999999KA1240N+02041MA1999999096701MD1999999+0111MW1211REMSYN088AAXX  02124 82784 21598 82304 10213 20209 39670 40129 72162 885// 333 20204 58011 60434;
0137827840999992006020218004-07317-039300FM-12+040999999V0200501N001512200019N0200001N1+03031+02241100801ADDGF103991011021008001031001MA1999999096311MD1999999+0121REMSYN070AAXX  02184 82784 32598 30503 10303 20224 39631 40080 81230 333 58012;
0168827840999992006020300004-07317-039300FM-12+040999999V0209999C000010120019N0020001N1+02531+02441100861ADDGF106991061081008001001001KA1240M+03171MA1999999096311MD1999999+0031REMSYN088AAXX  03004 82784 32595 60000 10253 20244 39631 40086 86800 333 10317 29087 55057 58003;
0201827840999992006020312004-07317-039300FM-12+040999999V0201401N001510075019N0200001N1+02481+02251101111ADDAA124000591AY151061AY221061GF108991081051008001999999KA1240N+02121MA1999999096571MD1999999-0131MW1021REMSYN088AAXX  03124 82784 21598 81403 10248 20225 39657 40111 70252 885// 333 20212 59013 69944;
0137827840999992006020318004-07317-039300FM-12+040999999V0200501N001010075019N0200001N1+03201+02331100561ADDGF106991051021008001031001MA1999999096101MD1999999-0211REMSYN070AAXX  03184 82784 32598 60502 10320 20233 39610 40056 85230 333 59021;
0168827840999992006020400004-07317-039300FM-12+040999999V0209999C000012200019N0020001N1+02561+02271100811ADDGF104991031081008001031001KA1240M+03271MA1999999096291MD1999999-0091REMSYN088AAXX  04004 82784 32595 40000 10256 20227 39629 40081 83830 333 10327 29079 55082 59009;
0156827840999992006020418004-07317-039300FM-12+040999999V0202701N003119999999N0200001N1+02881+02231100661ADDGF106991999021008001001001MA1999999096171MD1999999+0071REMSYN070AAXX  04184 82784 32598 62706 10288 20223 39617 40066 87200 333 58007;EQDQ01+000072SCOTLC
0168827840999992006020500004-07317-039300FM-12+040999999V0201801N001510120019N0020001N1+02541+02331100801ADDGF106991061081008001001001KA1240M+03081MA1999999096291MD1999999+0001REMSYN088AAXX  05004 82784 32595 61803 10254 20233 39629 40080 86800 333 10308 29083 55019 58000;
0201827840999992006020512004-07317-039300FM-12+040999999V0200501N002110120019N0200001N1+02621+02331101071ADDAA124001091AY121061AY221061GF106991061081008001001001KA1240N+02321MA1999999096561MD1999999+0011MW1211REMSYN088AAXX  05124 82784 21598 60504 10262 20233 39656 40107 72122 86800 333 20232 58001 60014;
0137827840999992006020518004-07317-039300FM-12+040999999V0200501N002110120019N0200001N1+02931+02431100671ADDGF107991071081008001001001MA1999999096191MD1999999+0021REMSYN070AAXX  05184 82784 32598 70504 10293 20243 39619 40067 87800 333 58002;
0168827840999992006020600004-07317-039300FM-12+040999999V0200501N000510120019N0020001N1+02551+02381100871ADDGF106991061081008001001001KA1240M+03191MA1999999096361MD1999999+0071REMSYN088AAXX  06004 82784 32595 60501 10255 20238 39636 40087 86800 333 10319 29084 55044 58007;
0201827840999992006020612004-07317-039300FM-12+040999999V0203201N001510075019N0200001N1+02201+02151101291ADDAA124036191AY161061AY221061GF108991081061008001001001KA1240N+02131MA1999999096721MD1999999+0161MW1021REMSYN088AAXX  06124 82784 21598 83203 10220 20215 39672 40129 70262 88600 333 20213 58016 60364;
0182827840999992006020618004-07317-039300FM-12+040999999V0202701N001510075019N0200001N1+02421+02281100991ADDAA106000891AY151061AY221061GF108991081051008001999999MA1999999096451MD1999999+0261MW1021REMSYN082AAXX  06184 82784 21598 82703 10242 20228 39645 40099 70252 885// 333 58026 69971;
0168827840999992006020700004-07317-039300FM-12+040999999V0200901N001010450019N0020001N1+02271+02191101121ADDGF105991041091008001031001KA1240M+03591MA1999999096541MD1999999+0181REMSYN088AAXX  07004 82784 32595 50902 10227 20219 39654 40112 84930 333 10359 29095 55000 58018;
0173827840999992006020712004-07317-039300FM-12+040999999V0203601N002110075019N0200001N1+02491+02291101201ADDAA124000891GF106991051021008001051001KA1240N+02061MA1999999096651MD1999999-0071REMSYN082AAXX  07124 82784 22598 63604 10249 20229 39665 40120 85250 333 20206 59007 69974;
0168827840999992006020800004-07317-039300FM-12+040999999V0201801N001010450019N0020001N1+02531+02271100951ADDGF105991011011008001021001KA1240M+03181MA1999999096431MD1999999-0111REMSYN088AAXX  08004 82784 32595 51802 10253 20227 39643 40095 81120 333 10318 29079 55087 59011;
0156827840999992006020812004-07317-039300FM-12+040999999V0200901N000512200019N0200001N1+02601+02101101221ADDGF101991011001017501031001KA1240N+02121MA1999999096691MD1999999+0041REMSYN076AAXX  08124 82784 32798 10901 10260 20210 39669 40122 81030 333 20212 58004;
0137827840999992006020818004-07317-039300FM-12+040999999V0203601N001512200019N0200001N1+03141+02131100751ADDGF101991011021008001001001MA1999999096271MD1999999+0041REMSYN070AAXX  08184 82784 32598 13603 10314 20213 39627 40075 81200 333 58004;
0168827840999992006020900004-07317-039300FM-12+040999999V0202701N000512200019N0020001N1+02601+02251100951ADDGF101991011001017501021001KA1240M+03291MA1999999096441MD1999999+0011REMSYN088AAXX  09004 82784 32795 12701 10260 20225 39644 40095 81020 333 10329 29072 55100 58001;
0156827840999992006020912004-07317-039300FM-12+040999999V0209999C000010075019N0200001N1+02581+02231101341ADDGF108991081041008001999999KA1240N+02201MA1999999096821MD1999999+0131REMSYN076AAXX  09124 82784 32598 80000 10258 20223 39682 40134 884// 333 20220 58013;
0137827840999992006020918004-07317-039300FM-12+040999999V0203601N001512200019N0200001N1+03191+02271100821ADDGF103991011021008001011051MA1999999096351MD1999999+0081REMSYN070AAXX  09184 82784 32598 33603 10319 20227 39635 40082 81215 333 58008;
0168827840999992006021000004-07317-039300FM-12+040999999V0201801N001512200019N0020001N1+02681+02331101031ADDGF102991021001017501021001KA1240M+03341MA1999999096531MD1999999+0091REMSYN088AAXX  10004 82784 32795 21803 10268 20233 39653 40103 82020 333 10334 29075 55084 58009;
0156827840999992006021012004-07317-039300FM-12+040999999V0202701N001010075019N0200001N1+02441+02211101331ADDGF108991081061008001999999KA1240N+02391MA1999999096801MD1999999-0021REMSYN076AAXX  10124 82784 32598 82702 10244 20221 39680 40133 886// 333 20239 59002;
0182827840999992006021018004-07317-039300FM-12+040999999V0203601N001510450019N0200001N1+03021+02311100991ADDAA106000391AY151061AY221061GF107991021021008001031001MA1999999096511MD1999999+0161MW1021REMSYN082AAXX  10184 82784 21598 73603 10302 20231 39651 40099 70252 82230 333 58016 69931;
0168827840999992006021100004-07317-039300FM-12+040999999V0209999C000010450019N0020001N1+02851+02381101181ADDGF105991011041008001021001KA1240M+03211MA1999999096651MD1999999+0121REMSYN088AAXX  11004 82784 32595 50000 10285 20238 39665 40118 81420 333 10321 29083 55053 58012;
0201827840999992006021112004-07317-039300FM-12+040999999V0203601N001510450019N0200001N1+02491+02191101491ADDAA124000391AY151061AY251061GF106991041041008001031001KA1240N+02201MA1999999096941MD1999999+0141MW1021REMSYN088AAXX  11124 82784 21598 63603 10249 20219 39694 40149 70255 84430 333 20220 58014 69934;
0137827840999992006021118004-07317-039300FM-12+040999999V0203601N001510120019N0200001N1+03041+02261100911ADDGF106991061081008001001001MA1999999096411MD1999999+0021REMSYN070AAXX  11184 82784 32598 63603 10304 20226 39641 40091 86800 333 58002;
0168827840999992006021200004-07317-039300FM-12+040999999V0201801N001012200019N0020001N1+02551+02311101141ADDGF103991021041008001021001KA1240M+03161MA1999999096611MD1999999-0051REMSYN088AAXX  12004 82784 32595 31802 10255 20231 39661 40114 82420 333 10316 29080 55069 59005;
0201827840999992006021212004-07317-039300FM-12+040999999V0209999C000010120019N0200001N1+02511+02331101291ADDAA124001091AY121061AY221061GF107991071081008001001001KA1240N+02241MA1999999096761MD1999999-0181MW1211REMSYN088AAXX  12124 82784 21598 70000 10251 20233 39676 40129 72122 87800 333 20224 59018 60014;
0137827840999992006021218004-07317-039300FM-12+040999999V0203201N001010120019N0200001N1+02881+02321100871ADDGF107991071081008001001001MA1999999096381MD1999999-0031REMSYN070AAXX  12184 82784 32598 73202 10288 20232 39638 40087 87800 333 59003;
0168827840999992006021300004-07317-039300FM-12+040999999V0201801N000510120019N0020001N1+02561+02361101071ADDGF108991081081008001999999KA1240M+02971MA1999999096551MD1999999-0061REMSYN088AAXX  13004 82784 32595 81801 10256 20236 39655 40107 888// 333 10297 29085 55014 59006;
0201827840999992006021312004-07317-039300FM-12+040999999V0203601N000510075019N0200001N1+02351+02291101381ADDAA124004191AY161061AY221061GF108991081061008001999999KA1240N+02211MA1999999096831MD1999999+0071MW1201REMSYN088AAXX  13124 82784 21598 83601 10235 20229 39683 40138 72062 886// 333 20221 58007 60044;
0137827840999992006021318004-07317-039300FM-12+040999999V0203601N002110450019N0200001N1+02991+02321100871ADDGF107991021021008001031001MA1999999096381MD1999999+0001REMSYN070AAXX  13184 82784 32598 73604 10299 20232 39638 40087 82230 333 58000;
0168827840999992006021400004-07317-039300FM-12+040999999V0209999C000010450019N0020001N1+02531+02361101001ADDGF105991031041008001031001KA1240M+03141MA1999999096461MD1999999-0091REMSYN088AAXX  14004 82784 32595 50000 10253 20236 39646 40100 83430 333 10314 29086 55049 59009;
0201827840999992006021412004-07317-039300FM-12+040999999V0202701N001510075019N0200001N1+02121+02091101421ADDAA124047091AY191061AY261061GF108991081071008001999999KA1240N+02051MA1999999096841MD1999999+0011MW1211REMSYN088AAXX  14124 82784 21598 82703 10212 20209 39684 40142 72196 887// 333 20205 58001 60474;
0182827840999992006021418004-07317-039300FM-12+040999999V0202701N002110075019N0200001N1+02561+02231101021ADDAA106000591AY151061AY221061GF108991081051008001999999MA1999999096501MD1999999+0121MW1021REMSYN082AAXX  14184 82784 21598 82704 10256 20223 39650 40102 70252 885// 333 58012 69961;
0168827840999992006021500004-07317-039300FM-12+040999999V0202301N000510450019N0020001N1+02221+02121101191ADDGF107991041081008001031001KA1240M+02751MA1999999096591MD1999999+0131REMSYN088AAXX  15004 82784 32595 72301 10222 20212 39659 40119 84830 333 10275 29092 55008 58013;
0201827840999992006021512004-07317-039300FM-12+040999999V0203601N000510075019N0200001N1+02381+02291101281ADDAA124007991AY191061AY261061GF108991071061008001031999KA1240N+02101MA1999999096701MD1999999-0141MW1021REMSYN088AAXX  15124 82784 21598 83601 10238 20229 39670 40128 70296 8763/ 333 20210 59014 60084;
0137827840999992006021518004-07317-039300FM-12+040999999V0202701N001510450019N0200001N1+03001+02271100871ADDGF105991041021008001031001MA1999999096311MD1999999-0191REMSYN070AAXX  15184 82784 32598 52703 10300 20227 39631 40087 84230 333 59019;
0168827840999992006021600004-07317-039300FM-12+040999999V0209999C000010450019N0020001N1+02431+02321101031ADDGF106991041081008001021001KA1240M+03071MA1999999096481MD1999999-0111REMSYN088AAXX  16004 82784 32595 60000 10243 20232 39648 40103 84820 333 10307 29087 55037 59011;
0201827840999992006021612004-07317-039300FM-12+040999999V0202301N001510075019N0200001N1+02321+02161101251ADDAA124026991AY191061AY261061GF108991081061008001999999KA1240N+02081MA1999999096681MD1999999-0021MW1021REMSYN088AAXX  16124 82784 21598 82303 10232 20216 39668 40125 70296 886// 333 20208 59002 60274;
0137827840999992006021618004-07317-039300FM-12+040999999V0203601N001510450019N0200001N1+02981+02351100751ADDGF106991041021008001031001MA1999999096241MD1999999-0071REMSYN070AAXX  16184 82784 32598 63603 10298 20235 39624 40075 84230 333 59007;
0168827840999992006021700004-07317-039300FM-12+040999999V0209999C000012200019N0020001N1+02521+02401101021ADDGF103991011041008001031001KA1240M+03121MA1999999096471MD1999999-0011REMSYN088AAXX  17004 82784 32595 30000 10252 20240 39647 40102 81430 333 10312 29086 55066 59001;
0156827840999992006021712004-07317-039300FM-12+040999999V0203601N001510075019N0200001N1+02421+02301101191ADDGF107991071051008001001001KA1240N+02201MA1999999096651MD1999999-0031REMSYN076AAXX  17124 82784 32598 73603 10242 20230 39665 40119 87500 333 20220 59003;
0137827840999992006021718004-07317-039300FM-12+040999999V0200501N002110075019N0200001N1+02931+02291100821ADDGF107991071021008001001001MA1999999096321MD1999999+0081REMSYN070AAXX  17184 82784 32598 70504 10293 20229 39632 40082 87200 333 58008;
0178827840999992006021800004-07317-039300FM-12+040999999V0209999C000012200019N0020001N1+02451+02301101031ADDGA1001+999999999GF100991001001999999001001KA1240M+03061MA1999999096491MD1999999+0021REMSYN082AAXX  18004 82784 32995 00000 10245 20230 39649 40103 333 10306 29086 55077 58002;
0201827840999992006021812004-07317-039300FM-12+040999999V0203601N000510120019N0200001N1+02251+02141101041ADDAA124008991AY101061AY201061GF108991081081008001999999KA1240N+01921MA1999999096841MD1999999+0191MW1201REMSYN088AAXX  18124 82784 21598 83601 10225 20214 39684 40104 72000 888// 333 20192 58019 60094;
0137827840999992006021818004-07317-039300FM-12+040999999V0200901N000510450019N0200001N1+03011+02341100891ADDGF106991031021008001021001MA1999999096371MD1999999+0051REMSYN070AAXX  18184 82784 32598 60901 10301 20234 39637 40089 83220 333 58005;
0213827840999992006021900004-07317-039300FM-12+040999999V0200901N001510120019N0020001N1+02341+02261101311ADDAA106002091AY121061AY221061GF108991081081008001999999KA1240M+03111MA1999999096731MD1999999+0241MW1201REMSYN100AAXX  19004 82784 21595 80903 10234 20226 39673 40131 72022 888// 333 10311 29088 55066 58024 60021;
0201827840999992006021912004-07317-039300FM-12+040999999V0203601N001010120019N0200001N1+02381+02281101461ADDAA124016091AY191061AY251061GF107991071081008001001001KA1240N+02161MA1999999096881MD1999999+0041MW1211REMSYN088AAXX  19124 82784 21598 73602 10238 20228 39688 40146 72195 87800 333 20216 58004 60164;
0137827840999992006021918004-07317-039300FM-12+040999999V0203601N002610450019N0200001N1+02961+02311101041ADDGF106991031021008001031091MA1999999096541MD1999999+0241REMSYN070AAXX  19184 82784 32598 63605 10296 20231 39654 40104 83239 333 58024;
0178827840999992006022000004-07317-039300FM-12+040999999V0209999C000012200019N0020001N1+02481+02381101151ADDGA1001+999999999GF100991001001999999001001KA1240M+03041MA1999999096611MD1999999-0121REMSYN082AAXX  20004 82784 32995 00000 10248 20238 39661 40115 333 10304 29088 55060 59012;
0201827840999992006022012004-07317-039300FM-12+040999999V0200501N002110075019N0200001N1+02611+02331101251ADDAA124003091AY161061AY221061GF108991081021008001999999KA1240N+02281MA1999999096721MD1999999-0161MW1021REMSYN088AAXX  20124 82784 21598 80504 10261 20233 39672 40125 70262 882// 333 20228 59016 60034;
0147827840999992006022018004-07317-039300FM-12+040999999V0200501N002112200019N0200001N1+03151+01961100901ADDGA1001+999999999GF100991001001999999001001MA1999999096421MD1999999-0121REMSYN064AAXX  20184 82784 32598 00504 10315 20196 39642 40090 333 59012;
0178827840999992006022100004-07317-039300FM-12+040999999V0203601N000512200019N0020001N1+02361+02151100911ADDGA1001+999999999GF100991001001999999001001KA1240M+03231MA1999999096391MD1999999-0221REMSYN082AAXX  21004 82784 32995 03601 10236 20215 39639 40091 333 10323 29078 55097 59022;
0156827840999992006022112004-07317-039300FM-12+040999999V0203601N000510075019N0200001N1+02461+02231101281ADDGF108991081021008001999999KA1240N+02061MA1999999096721MD1999999+0001REMSYN076AAXX  21124 82784 32598 83601 10246 20223 39672 40128 882// 333 20206 58000;
0137827840999992006022118004-07317-039300FM-12+040999999V0200901N000510450019N0200001N1+03001+02241100811ADDGF107991031021008001011001MA1999999096311MD1999999-0111REMSYN070AAXX  21184 82784 32598 70901 10300 20224 39631 40081 83210 333 59011;
0178827840999992006022200004-07317-039300FM-12+040999999V0209999C000012200019N0020001N1+02401+02241100941ADDGA1001+999999999GF100991001001999999001001KA1240M+03111MA1999999096411MD1999999+0021REMSYN082AAXX  22004 82784 32995 00000 10240 20224 39641 40094 333 10311 29083 55082 58002;
0156827840999992006022212004-07317-039300FM-12+040999999V0203201N001510075019N0200001N1+02581+02291101211ADDGF107991071021008001001001KA1240N+02081MA1999999096671MD1999999-0051REMSYN076AAXX  22124 82784 32598 73203 10258 20229 39667 40121 87200 333 20208 59005;
0137827840999992006022218004-07317-039300FM-12+040999999V0203201N002110075019N0200001N1+02921+02271100791ADDGF108991051061008001031001MA1999999096271MD1999999-0041REMSYN070AAXX  22184 82784 32598 83204 10292 20227 39627 40079 85630 333 59004;
0213827840999992006022300004-07317-039300FM-12+040999999V0209999C000010075019N0020001N1+02151+02111101301ADDAA106007991AY121061AY221061GF108991081091008001999999KA1240M+03061MA1999999096731MD1999999+0321MW1211REMSYN100AAXX  23004 82784 21595 80000 10215 20211 39673 40130 72122 889// 333 10306 29086 55062 58032 60081;
0201827840999992006022312004-07317-039300FM-12+040999999V0200901N001012200019N0200001N1+02471+02251101291ADDAA124010991AY161061AY221061GF103991021021008001011001KA1240N+02061MA1999999096711MD1999999+0041MW1021REMSYN088AAXX  23124 82784 21598 30902 10247 20225 39671 40129 70262 82210 333 20206 58004 60114;
0137827840999992006022318004-07317-039300FM-12+040999999V0202701N002110450019N0200001N1+03031+02391100791ADDGF106991031021008001041001MA1999999096281MD1999999+0011REMSYN070AAXX  23184 82784 32598 62704 10303 20239 39628 40079 83240 333 58001;
0168827840999992006022400004-07317-039300FM-12+040999999V0209999C000012200019N0020001N1+02551+02471101101ADDGF101991011041008001001001KA1240M+03161MA1999999096571MD1999999-0161REMSYN088AAXX  24004 82784 32595 10000 10255 20247 39657 40110 81400 333 10316 29087 55087 59016;
0201827840999992006022412004-07317-039300FM-12+040999999V0201801N001510075019N0200001N1+02261+02231101301ADDAA124007191AY191061AY211061GF108991081071008001999999KA1240N+02211MA1999999096741MD1999999+0031MW1211REMSYN088AAXX  24124 82784 21598 81803 10226 20223 39674 40130 72191 887// 333 20221 58003 60074;
0182827840999992006022418004-07317-039300FM-12+040999999V0202701N001510075019N0200001N1+02931+02401100781ADDAA106000891AY151061AY221061GF108991061051008001021999MA1999999096291MD1999999+0011MW1171REMSYN082AAXX  24184 82784 21598 82703 10293 20240 39629 40078 71752 8652/ 333 58001 69981;
0168827840999992006022500004-07317-039300FM-12+040999999V0209999C000012200019N0020001N1+02441+02351101041ADDGF102991021041008001001001KA1240M+03041MA1999999096481MD1999999-0091REMSYN088AAXX  25004 82784 32595 20000 10244 20235 39648 40104 82400 333 10304 29090 55031 59009;
0201827840999992006022512004-07317-039300FM-12+040999999V0200901N002110075019N0200001N1+02581+02421101231ADDAA124000021AY111061AY211061GF106991061021008001001001KA1240N+02211MA1999999096691MD1999999+0041MW1211REMSYN088AAXX  25124 82784 21598 60904 10258 20242 39669 40123 72111 86200 333 20221 58004 69914;
0137827840999992006022518004-07317-039300FM-12+040999999V0200901N001512200019N0200001N1+03031+02361100811ADDGF103991031021008001001001MA1999999096331MD1999999+0041REMSYN070AAXX  25184 82784 32598 30903 10303 20236 39633 40081 83200 333 58004;
0156827840999992006022612004-07317-039300FM-12+040999999V0200901N000510120019N0200001N1+02521+02341101161ADDGF107991071081008001001001KA1240N+02301MA1999999096631MD1999999-0061REMSYN076AAXX  26124 82784 32598 70901 10252 20234 39663 40116 87800 333 20230 59006;
0137827840999992006022618004-07317-039300FM-12+040999999V0200901N002612200019N0200001N1+03081+02401100691ADDGF104991041021008001001001MA1999999096221MD1999999-0111REMSYN070AAXX  26184 82784 32598 40905 10308 20240 39622 40069 84200 333 59011;
0168827840999992006022700004-07317-039300FM-12+040999999V0209999C000012200019N0020001N1+02571+02401101011ADDGF102991021041008001001001KA1240M+03151MA1999999096491MD1999999+0071REMSYN088AAXX  27004 82784 32595 20000 10257 20240 39649 40101 82400 333 10315 29084 55075 58007;
0156827840999992006022712004-07317-039300FM-12+040999999V0203601N001010075019N0200001N1+02531+02401101171ADDGF108991081021008001999999KA1240N+02321MA1999999096651MD1999999+0021REMSYN076AAXX  27124 82784 32598 83602 10253 20240 39665 40117 882// 333 20232 58002;
0137827840999992006022718004-07317-039300FM-12+040999999V0200901N001510075019N0200001N1+03041+02311100731ADDGF106991061021008001001001MA1999999096261MD1999999+0041REMSYN070AAXX  27184 82784 32598 60903 10304 20231 39626 40073 86200 333 58004;
0178827840999992006022800004-07317-039300FM-12+040999999V0209999C000012200019N0020001N1+02521+02341101031ADDGA1001+999999999GF100991001001999999001001KA1240M+03111MA1999999096501MD1999999+0011REMSYN082AAXX  28004 82784 32995 00000 10252 20234 39650 40103 333 10311 29084 55081 58001;
0214827840999992006022812004-07317-039300FM-12+040999999V0200901N001010075019N0200001N1+02271+02241101351ADDAA124029091AY191061AY261061GF108991081071008001999999KA1240N+02221MA1999999096791MD1999999+0141REMSYN088AAXX  28124 82784 21598 80902 10227 20224 39679 40135 72296 887// 333 20222 58014 60294;EQDQ01+000222PRSWM1
0137827840999992006022818004-07317-039300FM-12+040999999V0200501N002110075019N0200001N1+02821+02331100941ADDGF108991081021008001999999MA1999999096431MD1999999+0171REMSYN070AAXX  28184 82784 32598 80504 10282 20233 39643 40094 882// 333 58017;
0178827840999992006030100004-07317-039300FM-12+040999999V0209999C000012200019N0020001N1+02491+02371101091ADDGA1001+999999999GF100991001001999999001001KA1240M+02951MA1999999096531MD1999999+0031REMSYN082AAXX  01004 82784 32995 00000 10249 20237 39653 40109 333 10295 29091 55046 58003;
0201827840999992006030112004-07317-039300FM-12+040999999V0201401N001510075019N0200001N1+02231+02191101381ADDAA124006191AY121061AY221061GF108991081071008001999999KA1240N+02181MA1999999096811MD1999999+0021MW1211REMSYN088AAXX  01124 82784 21598 81403 10223 20219 39681 40138 72122 887// 333 20218 58002 60064;
0201827840999992006030118004-07317-039300FM-12+040999999V0200901N002110075019N0200001N1+02641+02351101001ADDAA106005191AY161061AY221061GF108991999021008001001001MA1999999096471MD1999999+0041MW1021REMSYN082AAXX  01184 82784 21598 80904 10264 20235 39647 40100 70262 86200 333 58004 60051;EQDQ01+000062SCOTLC
0168827840999992006030200004-07317-039300FM-12+040999999V0209999C000010075019N0020001N1+02381+02311101271ADDGF106991061021008001001001KA1240M+02731MA1999999096691MD1999999+0161REMSYN088AAXX  02004 82784 32595 60000 10238 20231 39669 40127 86200 333 10273 29094 55005 58016;
0173827840999992006030212004-07317-039300FM-12+040999999V0203201N001010075019N0200001N1+02531+02271101431ADDAA124005191GF108991071021008001011999KA1240N+02161MA1999999096871MD1999999+0061REMSYN082AAXX  02124 82784 22598 83202 10253 20227 39687 40143 8721/ 333 20216 58006 60054;
0165827840999992006030218004-07317-039300FM-12+040999999V0200901N001510075019N0200001N1+02681+02311101091ADDAY121061AY221061GF108991081051008001999999MA1999999096551MD1999999+0081MW1151REMSYN076AAXX  02184 82784 31598 80903 10268 20231 39655 40109 71522 885// 333 58008;
0168827840999992006030300004-07317-039300FM-12+040999999V0209999C000010075019N0020001N1+02391+02351101251ADDGF106991061021008001001001KA1240M+02831MA1999999096701MD1999999+0011REMSYN088AAXX  03004 82784 32595 60000 10239 20235 39670 40125 86200 333 10283 29090 55028 58001;
0156827840999992006030312004-07317-039300FM-12+040999999V0200901N001010075019N0200001N1+02901+02321101321ADDGF106991061021008001001001KA1240N+02241MA1999999096811MD1999999-0061REMSYN076AAXX  03124 82784 32598 60902 10290 20232 39681 40132 86200 333 20224 59006;
0137827840999992006030318004-07317-039300FM-12+040999999V0200901N003110075019N0200001N1+02811+02461101001ADDGF107991061051008001031001MA1999999096481MD1999999-0071REMSYN070AAXX  03184 82784 32598 70906 10281 20246 39648 40100 86530 333 59007;
0168827840999992006030400004-07317-039300FM-12+040999999V0209999C000010120019N0020001N1+02451+02371101201ADDGF106991061081008001001001KA1240M+02951MA1999999096691MD1999999-0011REMSYN088AAXX  04004 82784 32595 60000 10245 20237 39669 40120 86800 333 10295 29086 55087 59001;
0156827840999992006030412004-07317-039300FM-12+040999999V0200901N002110075019N0200001N1+02641+02291101321ADDGF106991061021008001001001KA1240N+02221MA1999999096791MD1999999-0021REMSYN076AAXX  04124 82784 32598 60904 10264 20229 39679 40132 86200 333 20222 59002;
0137827840999992006030418004-07317-039300FM-12+040999999V0200901N003112200019N0200001N1+02911+02271101021ADDGF104991041021008001001001MA1999999096521MD1999999+0041REMSYN070AAXX  04184 82784 32598 40906 10291 20227 39652 40102 84200 333 58004;
0178827840999992006030500004-07317-039300FM-12+040999999V0209999C000012200019N0020001N1+02521+02381101181ADDGA1001+999999999GF100991001001999999001001KA1240M+03131MA1999999096661MD1999999-0031REMSYN082AAXX  05004 82784 32995 00000 10252 20238 39666 40118 333 10313 29083 55096 59003;
0175827840999992006030512004-07317-039300FM-12+040999999V0201401N001519999999N0200001N1+02671+02331101461ADDGF105991999021008001001001KA1240N+02291MA1999999096931MD1999999+0171REMSYN076AAXX  05124 82784 32598 51403 10267 20233 39693 40146 84200 333 20229 58017;EQDQ01+000042SCOTLC
0156827840999992006030518004-07317-039300FM-12+040999999V0200901N002119999999N0200001N1+03051+02411101021ADDGF105991999021008001001001MA1999999096541MD1999999+0021REMSYN070AAXX  05184 82784 32598 50904 10305 20241 39654 40102 83200 333 58002;EQDQ01+000032SCOTLC
0178827840999992006030600004-07317-039300FM-12+040999999V0209999C000012200019N0020001N1+02521+02341101211ADDGA1001+999999999GF100991001001999999001001KA1240M+03131MA1999999096691MD1999999+0031REMSYN082AAXX  06004 82784 32995 00000 10252 20234 39669 40121 333 10313 29083 55109 58003;
0156827840999992006030612004-07317-039300FM-12+040999999V0203601N002610075019N0200001N1+02581+02151101311ADDGF106991061021008001001001KA1240N+02191MA1999999096781MD1999999-0151REMSYN076AAXX  06124 82784 32598 63605 10258 20215 39678 40131 86200 333 20219 59015;
0156827840999992006030618004-07317-039300FM-12+040999999V0200901N002612200019N0200001N1+03001+02171101001ADDGF102991999021008001001001MA1999999096511MD1999999-0031REMSYN070AAXX  06184 82784 32598 20905 10300 20217 39651 40100 83200 333 59003;EQDQ01+000032SCOTLC
0178827840999992006030700004-07317-039300FM-12+040999999V0209999C000012200019N0020001N1+02481+02301101221ADDGA1001+999999999GF100991001001999999001001KA1240M+03051MA1999999096691MD1999999+0001REMSYN082AAXX  07004 82784 32995 00000 10248 20230 39669 40122 333 10305 29080 55104 58000;
0156827840999992006030712004-07317-039300FM-12+040999999V0201801N003110075019N0200001N1+02601+02141101301ADDGF106991061021008001001001KA1240N+02261MA1999999096771MD1999999-0011REMSYN076AAXX  07124 82784 32598 61806 10260 20214 39677 40130 86200 333 20226 59001;
0137827840999992006030718004-07317-039300FM-12+040999999V0201801N003110075019N0200001N1+02981+02121100871ADDGF105991051011008001001001MA1999999096361MD1999999-0151REMSYN070AAXX  07184 82784 32598 51806 10298 20212 39636 40087 85100 333 59015;
0178827840999992006030800004-07317-039300FM-12+040999999V0202701N001512200019N0020001N1+02421+02171101031ADDGA1001+999999999GF100991001001999999001001KA1240M+03111MA1999999096501MD1999999-0191REMSYN082AAXX  08004 82784 32995 02703 10242 20217 39650 40103 333 10311 29077 55097 59019;
0156827840999992006030812004-07317-039300FM-12+040999999V0202701N000510042019N0200001N1+02511+02311101251ADDGF108991081051004501999999KA1240N+02161MA1999999096701MD1999999-0071REMSYN076AAXX  08124 82784 32498 82701 10251 20231 39670 40125 885// 333 20216 59007;
0137827840999992006030818004-07317-039300FM-12+040999999V0201801N003110075019N0200001N1+02981+02091100821ADDGF108991051021008001011999MA1999999096261MD1999999-0101REMSYN070AAXX  08184 82784 32598 81806 10298 20209 39626 40082 8521/ 333 59010;
0168827840999992006030900004-07317-039300FM-12+040999999V0209999C000019999999N0020001N1+02411+02191101021ADDGF105991051001017501001011KA1240M+03081MA1999999096481MD1999999-0021REMSYN088AAXX  09004 82784 32795 50000 10241 20219 39648 40102 85001 333 10308 29081 55072 59002;
0156827840999992006030912004-07317-039300FM-12+040999999V0203601N001010075019N0200001N1+02481+02191101241ADDGF108991081061008001999999KA1240N+02191MA1999999096691MD1999999-0011REMSYN076AAXX  09124 82784 32598 83602 10248 20219 39669 40124 886// 333 20219 59001;
0137827840999992006030918004-07317-039300FM-12+040999999V0200501N002110075019N0200001N1+02951+02281100891ADDGF107991071021008001001001MA1999999096381MD1999999+0121REMSYN070AAXX  09184 82784 32598 70504 10295 20228 39638 40089 87200 333 58012;
0168827840999992006031000004-07317-039300FM-12+040999999V0201801N000512200019N0020001N1+02511+02331101021ADDGF101991011001017501031001KA1240M+03051MA1999999096491MD1999999+0011REMSYN088AAXX  10004 82784 32795 11801 10251 20233 39649 40102 81030 333 10305 29082 55066 58001;
0156827840999992006031012004-07317-039300FM-12+040999999V0203601N001510075019N0200001N1+02501+02211101221ADDGF108991081021008001001001KA1240N+02261MA1999999096681MD1999999-0011REMSYN076AAXX  10124 82784 32598 83603 10250 20221 39668 40122 88200 333 20226 59001;
0137827840999992006031018004-07317-039300FM-12+040999999V0203201N002110075019N0200001N1+02981+02251100811ADDGF106991051021008001051001MA1999999096271MD1999999-0111REMSYN070AAXX  10184 82784 32598 63204 10298 20225 39627 40081 85250 333 59011;
0168827840999992006031100004-07317-039300FM-12+040999999V0209999C000012200019N0020001N1+02591+02571101031ADDGF104991021041008001031091KA1240M+03071MA1999999096511MD1999999+0021REMSYN088AAXX  11004 82784 32595 40000 10259 20257 39651 40103 82439 333 10307 29080 55063 58002;
0156827840999992006031112004-07317-039300FM-12+040999999V0203601N001510120019N0200001N1+02531+02311101321ADDGF106991061081008001001001KA1240N+02191MA1999999096791MD1999999+0111REMSYN076AAXX  11124 82784 32598 63603 10253 20231 39679 40132 86800 333 20219 58011;
0168827840999992006031200004-07317-039300FM-12+040999999V0209999C000012200019N0020001N1+02401+02211101091ADDGF103991021001017501021091KA1240M+03171MA1999999096551MD1999999+0041REMSYN088AAXX  12004 82784 32795 30000 10240 20221 39655 40109 82029 333 10317 29082 55070 58004;
0156827840999992006031212004-07317-039300FM-12+040999999V0200501N001012200019N0200001N1+02591+02371101291ADDGF104991041021008001001001KA1240N+02181MA1999999096751MD1999999-0041REMSYN076AAXX  12124 82784 32598 40502 10259 20237 39675 40129 84200 333 20218 59004;
0137827840999992006031218004-07317-039300FM-12+040999999V0203601N001010450019N0200001N1+03101+02411100671ADDGF106991031021008001021001MA1999999096211MD1999999-0111REMSYN070AAXX  12184 82784 32598 63602 10310 20241 39621 40067 83220 333 59011;
0168827840999992006031300004-07317-039300FM-12+040999999V0201801N000510150019N0020001N1+02521+02311100941ADDGF106991061001017501021001KA1240M+03191MA1999999096431MD1999999-0121REMSYN088AAXX  13004 82784 32795 61801 10252 20231 39643 40094 86020 333 10319 29082 55089 59012;
0214827840999992006031312004-07317-039300FM-12+040999999V0209999C000019999999N0040001N1+02321+02251101281ADDAA124009991AY161061AY251061GF108991081999999999999999KA1240N+02141MA1999999096721MD1999999-0031REMSYN088AAXX  13124 82784 21/96 80000 10232 20225 39672 40128 76765 88/// 333 20214 59003 60104;EQDQ01+000672PRSWM1
0182827840999992006031318004-07317-039300FM-12+040999999V0203601N001510075019N0200001N1+02851+02331100671ADDAA106007191AY151061AY221061GF107991051071008001041001MA1999999096131MD1999999-0081MW1021REMSYN082AAXX  13184 82784 21598 73603 10285 20233 39613 40067 70252 85740 333 59008 60071;
0168827840999992006031400004-07317-039300FM-12+040999999V0209999C000010090019N0020001N1+02531+02401101041ADDGF108991081081004501999999KA1240M+02931MA1999999096491MD1999999+0091REMSYN088AAXX  14004 82784 32495 80000 10253 20240 39649 40104 888// 333 10293 29089 55019 58009;
0137827840999992006031418004-07317-039300FM-12+040999999V0203201N002110450019N0200001N1+02801+02341100821ADDGF105991041021008001041001MA1999999096271MD1999999+0101REMSYN070AAXX  14184 82784 32598 53204 10280 20234 39627 40082 84240 333 58010;
0168827840999992006031500004-07317-039300FM-12+040999999V0209999C000012200019N0020001N1+02401+02351101051ADDGF103991031001017501001011KA1240M+02911MA1999999096491MD1999999+0001REMSYN088AAXX  15004 82784 32795 30000 10240 20235 39649 40105 83001 333 10291 29092 55049 58000;
0201827840999992006031512004-07317-039300FM-12+040999999V0201801N001010075019N0200001N1+02541+02351101251ADDAA124006191AY161061AY221061GF107991051021008001011001KA1240N+02141MA1999999096701MD1999999+0091MW1021REMSYN088AAXX  15124 82784 21598 71802 10254 20235 39670 40125 70262 85210 333 20214 58009 60064;
0137827840999992006031518004-07317-039300FM-12+040999999V0200501N002112200019N0200001N1+02951+02331100871ADDGF104991041051008001001001MA1999999096361MD1999999+0091REMSYN070AAXX  15184 82784 32598 40504 10295 20233 39636 40087 84500 333 58009;
0201827840999992006031612004-07317-039300FM-12+040999999V0200501N002110450019N0200001N1+02551+02111101311ADDAA124007191AY161061AY221061GF106991041021008001031001KA1240N+02211MA1999999096771MD1999999+0071MW1021REMSYN088AAXX  16124 82784 21598 60504 10255 20211 39677 40131 70262 84230 333 20221 58007 60074;
0137827840999992006031618004-07317-039300FM-12+040999999V0203601N001012200019N0200001N1+02911+02271100941ADDGF104991041021008001001001MA1999999096431MD1999999+0071REMSYN070AAXX  16184 82784 32598 43602 10291 20227 39643 40094 84200 333 58007;
0168827840999992006031700004-07317-039300FM-12+040999999V0201801N000510075019N0200001N1+02441+02301101031ADDGF106991061061008001001001KA1240M+03021MA1999999096501MD1999999-0021REMSYN088AAXX  17004 82784 32598 61801 10244 20230 39650 40103 86600 333 10302 29082 55096 59002;
0201827840999992006031712004-07317-039300FM-12+040999999V0200901N001010075019N0200001N1+02521+02381101131ADDAA124000591AY151061AY221061GF108991081061008001999999KA1240N+02211MA1999999096601MD1999999+0171MW1021REMSYN088AAXX  17124 82784 21598 80902 10252 20238 39660 40113 70252 886// 333 20221 58017 69964;
0137827840999992006031718004-07317-039300FM-12+040999999V0200501N002610450019N0200001N1+02981+02301100821ADDGF106991041021008001011001MA1999999096261MD1999999-0171REMSYN070AAXX  17184 82784 32598 60505 10298 20230 39626 40082 84210 333 59017;
0168827840999992006031800004-07317-039300FM-12+040999999V0209999C000012200019N0020001N1+02461+02341100901ADDGF102991011041008001001091KA1240M+03061MA1999999096381MD1999999-0121REMSYN088AAXX  18004 82784 32595 20000 10246 20234 39638 40090 81409 333 10306 29086 55082 59012;
0201827840999992006031812004-07317-039300FM-12+040999999V0202301N001510120019N0200001N1+02151+02141101341ADDAA124086191AY111061AY211061GF108991081081008001999999KA1240N+02011MA1999999096761MD1999999+0161MW1211REMSYN088AAXX  18124 82784 21598 82303 10215 20214 39676 40134 72111 888// 333 20201 58016 60864;
0137827840999992006031818004-07317-039300FM-12+040999999V0200501N001510450019N0200001N1+02791+02311100831ADDGF105991021021008001021001MA1999999096311MD1999999+0051REMSYN070AAXX  18184 82784 32598 50503 10279 20231 39631 40083 82220 333 58005;
0168827840999992006031900004-07317-039300FM-12+040999999V0202701N000512200019N0020001N1+02351+02261101091ADDGF101991011001017501021001KA1240M+02911MA1999999096511MD1999999+0131REMSYN088AAXX  19004 82784 32795 12701 10235 20226 39651 40109 81020 333 10291 29090 55059 58013;
0220827840999992006031912004-07317-039300FM-12+040999999V0202701N001019999999N0200001N1+02441+02341101241ADDAA124003091AY111061AY211061GF105991999021008001001001KA1240N+02131MA1999999096681MD1999999-0081MW1211REMSYN088AAXX  19124 82784 21598 52702 10244 20234 39668 40124 72111 83200 333 20213 59008 60034;EQDQ01+000032SCOTLC
0137827840999992006031918004-07317-039300FM-12+040999999V0203601N000510450019N0200001N1+02901+02271100801ADDGF106991041041008001021001MA1999999096301MD1999999-0011REMSYN070AAXX  19184 82784 32598 63601 10290 20227 39630 40080 84420 333 59001;
0168827840999992006032000004-07317-039300FM-12+040999999V0209999C000012200019N0020001N1+02501+02401101061ADDGF103991031021008001001001KA1240M+03011MA1999999096521MD1999999+0011REMSYN088AAXX  20004 82784 32595 30000 10250 20240 39652 40106 83200 333 10301 29088 55082 58001;
0201827840999992006032012004-07317-039300FM-12+040999999V0203601N001510042019N0200001N1+02321+02251101221ADDAA124007991AY161061AY251061GF108991081051004501999999KA1240N+02161MA1999999096661MD1999999-0021MW1021REMSYN088AAXX  20124 82784 21498 83603 10232 20225 39666 40122 70265 885// 333 20216 59002 60084;
0137827840999992006032018004-07317-039300FM-12+040999999V0200501N002110450019N0200001N1+02801+02201100841ADDGF106991031021008001031011MA1999999096291MD1999999-0011REMSYN070AAXX  20184 82784 32598 60504 10280 20220 39629 40084 83231 333 59001;
0196827840999992006032100004-07317-039300FM-12+040999999V0209999C000019999999N0020001N1+02361+02241101061ADDAY191061AY221061GF108991081081999999999999KA1240M+02951MA1999999096501MD1999999-0021MW1131REMSYN094AAXX  21004 82784 31/95 80000 10236 20224 39650 40106 71392 888// 333 10295 29088 55043 59002;
0201827840999992006032112004-07317-039300FM-12+040999999V0201401N002610075019N0200001N1+02691+02201101221ADDAA124001091AY151061AY221061GF105991051021008001001001KA1240N+02181MA1999999096681MD1999999+0021MW1021REMSYN088AAXX  21124 82784 21598 51405 10269 20220 39668 40122 70252 85200 333 20218 58002 69994;
0137827840999992006032118004-07317-039300FM-12+040999999V0201401N003110075019N0200001N1+03031+02021100861ADDGF105991051021008001001001MA1999999096341MD1999999+0051REMSYN070AAXX  21184 82784 32598 51406 10303 20202 39634 40086 85200 333 58005;
0168827840999992006032200004-07317-039300FM-12+040999999V0209999C000010075019N0020001N1+02461+02281101021ADDGF108991081071008001999999KA1240M+03101MA1999999096551MD1999999+0051REMSYN088AAXX  22004 82784 32595 80000 10246 20228 39655 40102 887// 333 10310 29077 55105 58005;
0201827840999992006032212004-07317-039300FM-12+040999999V0201801N002110450019N0200001N1+02641+02141101201ADDAA124000591AY151061AY221061GF108991031021008001011999KA1240N+02201MA1999999096671MD1999999-0011MW1021REMSYN088AAXX  22124 82784 21598 81804 10264 20214 39667 40120 70252 8321/ 333 20220 59001 69964;
0137827840999992006032218004-07317-039300FM-12+040999999V0200901N002112200019N0200001N1+02991+02001100831ADDGF103991021021008001031001MA1999999096341MD1999999+0001REMSYN070AAXX  22184 82784 32598 30904 10299 20200 39634 40083 82230 333 58000;
0168827840999992006032300004-07317-039300FM-12+040999999V0201801N000519999999N0200001N1+02441+02271101091ADDGF108991041999008001999999KA1240M+03061MA1999999096571MD1999999+0021REMSYN088AAXX  23004 82784 32598 81801 10244 20227 39657 40109 84/// 333 10306 29077 55094 58002;
0156827840999992006032312004-07317-039300FM-12+040999999V0200901N002110075019N0200001N1+02561+02331101261ADDGF108991051041008001051999KA1240N+02261MA1999999096721MD1999999+0051REMSYN076AAXX  23124 82784 32598 80904 10256 20233 39672 40126 8545/ 333 20226 58005;
0137827840999992006032318004-07317-039300FM-12+040999999V0200901N001510075019N0200001N1+02971+02351100741ADDGF107991051021008001021001MA1999999096251MD1999999-0091REMSYN070AAXX  23184 82784 32598 70903 10297 20235 39625 40074 85220 333 59009;
0213827840999992006032400004-07317-039300FM-12+040999999V0200901N003110075019N0200001N1+02251+02071101321ADDAA106006191AY121061AY221061GF108991081091008001999999KA1240M+03091MA1999999096761MD1999999+0191MW1951REMSYN100AAXX  24004 82784 21598 80906 10225 20207 39676 40132 79522 889// 333 10309 29084 55057 58019 60061;
0220827840999992006032412004-07317-039300FM-12+040999999V0200901N001510075019N0200001N1+02501+02321101281ADDAA124035191AY191061AY261061GF106991999021008001001001KA1240N+02061MA1999999096711MD1999999-0011MW1021REMSYN088AAXX  24124 82784 21598 60903 10250 20232 39671 40128 70296 85200 333 20206 59001 60354;EQDQ01+000052SCOTLC
0156827840999992006032418004-07317-039300FM-12+040999999V0203601N002619999999N0200001N1+02761+02421100881ADDGF108991999021008001001001MA1999999096351MD1999999+0101REMSYN070AAXX  24184 82784 32598 83605 10276 20242 39635 40088 84200 333 58010;EQDQ01+000042SCOTLC
0168827840999992006032500004-07317-039300FM-12+040999999V0200501N000510075019N0020001N1+02491+02361101221ADDGF106991061041008001001001KA1240M+02961MA1999999096681MD1999999-0081REMSYN088AAXX  25004 82784 32595 60501 10249 20236 39668 40122 86400 333 10296 29090 55035 59008;
0156827840999992006032512004-07317-039300FM-12+040999999V0200501N001510120019N0200001N1+02621+02311101311ADDGF106991051081008001001091KA1240N+02251MA1999999096781MD1999999+0071REMSYN076AAXX  25124 82784 32598 60503 10262 20231 39678 40131 85809 333 20225 58007;
0137827840999992006032518004-07317-039300FM-12+040999999V0200501N003110450019N0200001N1+02961+02231100961ADDGF105991031021008001021001MA1999999096441MD1999999+0091REMSYN070AAXX  25184 82784 32598 50506 10296 20223 39644 40096 83220 333 58009;
0178827840999992006032600004-07317-039300FM-12+040999999V0209999C000012200019N0020001N1+02381+02221101241ADDGA1001+999999999GF100991001001999999001001KA1240M+03031MA1999999096701MD1999999+0021REMSYN082AAXX  26004 82784 32995 00000 10238 20222 39670 40124 333 10303 29082 55076 58002;
0201827840999992006032612004-07317-039300FM-12+040999999V0200901N001510120019N0200001N1+02441+02321101451ADDAA124004191AY101061AY201061GF108991081081008001999999KA1240N+02111MA1999999096881MD1999999+0101MW1211REMSYN088AAXX  26124 82784 21598 80903 10244 20232 39688 40145 72100 888// 333 20211 58010 60044;
0137827840999992006032618004-07317-039300FM-12+040999999V0202701N001010450019N0200001N1+02741+02401100941ADDGF106991041041008001021001MA1999999096431MD1999999-0011REMSYN070AAXX  26184 82784 32598 62702 10274 20240 39643 40094 84420 333 59001;
0168827840999992006032700004-07317-039300FM-12+040999999V0202301N001510120019N0020001N1+02421+02351101311ADDGF106991061081008001001001KA1240M+02831MA1999999096761MD1999999+0061REMSYN088AAXX  27004 82784 32595 62303 10242 20235 39676 40131 86800 333 10283 29092 55000 58006;
0201827840999992006032712004-07317-039300FM-12+040999999V0202701N001010075019N0200001N1+02461+02341101521ADDAA124002091AY151061AY221061GF108991061071008001011999KA1240N+02141MA1999999096961MD1999999-0081MW1021REMSYN088AAXX  27124 82784 21598 82702 10246 20234 39696 40152 70252 8671/ 333 20214 59008 60024;
0137827840999992006032718004-07317-039300FM-12+040999999V0203601N001010450019N0200001N1+02971+02331100951ADDGF106991041021008001011011MA1999999096441MD1999999+0011REMSYN070AAXX  27184 82784 32598 63602 10297 20233 39644 40095 84211 333 58001;
0196827840999992006032800004-07317-039300FM-12+040999999V0202301N001012200019N0020001N1+02441+02341101291ADDAY111061AY201061GF103991031999999999999999KA1240M+03081MA1999999096741MD1999999-0021MW1131REMSYN094AAXX  28004 82784 31/95 32302 10244 20234 39674 40129 71310 83/// 333 10308 29087 55068 59002;
0201827840999992006032812004-07317-039300FM-12+040999999V0202701N001510042019N0200001N1+02341+02241101471ADDAA124018091AY161061AY221061GF108991081051004501999999KA1240N+02101MA1999999096901MD1999999-0061MW1021REMSYN088AAXX  28124 82784 21498 82703 10234 20224 39690 40147 70262 885// 333 20210 59006 60184;
0137827840999992006032818004-07317-039300FM-12+040999999V0203601N002110450019N0200001N1+02901+01851101031ADDGF107991041021008001041001MA1999999096371MD1999999-0071REMSYN070AAXX  28184 82784 32598 73604 10290 20185 39637 40103 84240 333 59007;
0178827840999992006032900004-07317-039300FM-12+040999999V0209999C000012200019N0020001N1+02421+02301101171ADDGA1001+999999999GF100991001001999999001001KA1240M+03001MA1999999096621MD1999999-0121REMSYN082AAXX  29004 82784 32995 00000 10242 20230 39662 40117 333 10300 29087 55053 59012;
0201827840999992006032912004-07317-039300FM-12+040999999V0209999C000010042019N0200001N1+02421+02321101351ADDAA124000891AY151061AY221061GF108991081051004501999999KA1240N+02201MA1999999096791MD1999999-0111MW1021REMSYN088AAXX  29124 82784 21498 80000 10242 20232 39679 40135 70252 885// 333 20220 59011 69984;
0137827840999992006032918004-07317-039300FM-12+040999999V0203601N002110075019N0200001N1+02941+02161100791ADDGF107991061021008001031001MA1999999096291MD1999999-0081REMSYN070AAXX  29184 82784 32598 73604 10294 20216 39629 40079 86230 333 59008;
0178827840999992006033000004-07317-039300FM-12+040999999V0209999C000012200019N0020001N1+02421+02321101221ADDGA1001+999999999GF100991001001999999001001KA1240M+03011MA1999999096661MD1999999+0041REMSYN082AAXX  30004 82784 32995 00000 10242 20232 39666 40122 333 10301 29086 55077 58004;
0201827840999992006033012004-07317-039300FM-12+040999999V0202301N000510075019N0200001N1+02241+02171101451ADDAA124007991AY161061AY211061GF108991081051008001999999KA1240N+02141MA1999999096871MD1999999+0081MW1211REMSYN088AAXX  30124 82784 21598 82301 10224 20217 39687 40145 72161 885// 333 20214 58008 60084;
0137827840999992006033018004-07317-039300FM-12+040999999V0200901N001010075019N0200001N1+02781+02321100911ADDGF106991051061008001031001MA1999999096401MD1999999+0111REMSYN070AAXX  30184 82784 32598 60902 10278 20232 39640 40091 85630 333 58011;
0168827840999992006033100004-07317-039300FM-12+040999999V0202301N000512200019N0020001N1+02341+02271101241ADDGF102991021051008001001001KA1240M+02901MA1999999096661MD1999999+0001REMSYN088AAXX  31004 82784 32595 22301 10234 20227 39666 40124 82500 333 10290 29091 55022 58000;
0201827840999992006033112004-07317-039300FM-12+040999999V0203601N000510075019N0200001N1+02451+02271101371ADDAA124000591AY151061AY211061GF108991081041008001999999KA1240N+02191MA1999999096811MD1999999-0061MW1021REMSYN088AAXX  31124 82784 21598 83601 10245 20227 39681 40137 70251 884// 333 20219 59006 69944;
0182827840999992006033118004-07317-039300FM-12+040999999V0200501N003110075019N0200001N1+02301+02181101031ADDAA106004191AY161061AY221061GF108991081051008001999999MA1999999096461MD1999999+0061MW1201REMSYN082AAXX  31184 82784 21598 80506 10230 20218 39646 40103 72062 885// 333 58006 60041;
0175827840999992006040100004-07317-039300FM-12+040999999V0200901N000512200019N0020001N1+99999+99999999999ADDGA1001+999999999GF100991001001999999001001KA1240M+02791MD1999999-0031REMSYN094AAXX  01004 82784 21995 00901 20219 20226 39663 40119 72066 333 10279 29094 55027 59003 69951;
0128827840999992006040112004-07317-039300FM-12+040999999V0201401N000519999999N0200001N1+02411+02231999999ADDGF106991999999008001999999REMSYN090AAXX  01124 82784 21598 61401 10241 20223 10080 20204 39686 40144 58005 60084 72155 84430;
0197827840999992006040118004-07317-039300FM-12+040999999V0200901N001019999999N0200001N1+02461+02271101191ADDAA106000891AY161061AY221061GF106991999081008001001001MA1999999096471MD1810011+9999MW1201REMSYN078AAXX  01184 82784 21598 60902 10246 20227 39647 40119 58001 69971 72062 88800;EQDQ01+000082SCOTLC
0138827840999992006040200004-07317-039300FM-12+040999999V0209999C000012200019N0020001N1+02281+02231999999ADDGA1001+999999999GF100991001001999999001001REMSYN084AAXX  02004 82784 21995 00000 10228 20223 10293 39678 40133 55043 58007 69911 70252;
0192827840999992006040212004-07317-039300FM-12+040999999V0200501N001010075019N0200001N1+02511+02271101311ADDAA124000891GF108991999021008001001001KA1240N+02141MA1999999096751MD1999999-0111REMSYN082AAXX  02124 82784 22598 80502 10251 20227 39675 40131 86200 333 20214 59011 69984;EQDQ01+000062SCOTLC
0137827840999992006040218004-07317-039300FM-12+040999999V0200901N006212200019N0200001N1+03011+02221100841ADDGF104991041021008001001001MA1999999096341MD1999999-0131REMSYN070AAXX  02184 82784 32598 40912 10301 20222 39634 40084 84200 333 59013;
0187827840999992006040300004-07317-039300FM-12+040999999V0201401N001010075019N0020001N1+02421+02251101251ADDGF107991999021008001001001KA1240M+03101MA1999999096701MD1999999+0001REMSYN088AAXX  03004 82784 32595 71402 10242 20225 39670 40125 85200 333 10310 29082 55072 58000;EQDQ01+000052SCOTLC
0201827840999992006040312004-07317-039300FM-12+040999999V0201401N001010075019N0200001N1+02561+02271101271ADDAA124008991AY161061AY221061GF106991061021008001001001KA1240N+02181MA1999999096731MD1999999-0021MW1021REMSYN088AAXX  03124 82784 21598 61402 10256 20227 39673 40127 70262 86200 333 20218 59002 60094;
0137827840999992006040318004-07317-039300FM-12+040999999V0201401N002110450019N0200001N1+03001+02391100791ADDGF106991041051008001041001MA1999999096331MD1999999-0011REMSYN070AAXX  03184 82784 32598 61404 10300 20239 39633 40079 84540 333 59001;
0201827840999992006040412004-07317-039300FM-12+040999999V0200501N001010042019N0100001N1+02241+02191101341ADDAA124026991AY161061AY261061GF108991081051004501999999KA1240N+02141MA1999999096771MD1999999+0041MW1631REMSYN088AAXX  04124 82784 21497 80502 10224 20219 39677 40134 76366 885// 333 20214 58004 60274;
0137827840999992006040418004-07317-039300FM-12+040999999V0202701N001510450019N0200001N1+02681+02111100911ADDGF107991031021008001041001MA1999999096351MD1999999+0021REMSYN070AAXX  04184 82784 32598 72703 10268 20211 39635 40091 83240 333 58002;
0168827840999992006040500004-07317-039300FM-12+040999999V0209999C000019999999N0020001N1+02321+02241101181ADDGF106991061001012501041001KA1240M+02851MA1999999096611MD1999999-0081REMSYN088AAXX  05004 82784 32695 60000 10232 20224 39661 40118 86040 333 10285 29090 55004 59008;
0201827840999992006040512004-07317-039300FM-12+040999999V0202701N001010042019N0200001N1+02411+02331101341ADDAA124000021AY151061AY221061GF108991061021004501051999KA1240N+02101MA1999999096761MD1999999-0011MW1151REMSYN088AAXX  05124 82784 21498 82702 10241 20233 39676 40134 71552 8625/ 333 20210 59001 69924;
0137827840999992006040518004-07317-039300FM-12+040999999V0203201N000510075019N0200001N1+02921+02431100811ADDGF105991051021008001001001MA1999999096301MD1999999-0051REMSYN070AAXX  05184 82784 32598 53201 10292 20243 39630 40081 85200 333 59005;
0168827840999992006040600004-07317-039300FM-12+040999999V0209999C000012200019N0200001N1+02481+02341101141ADDGF104991041041008001001001KA1240M+03031MA1999999096601MD1999999-0011REMSYN088AAXX  06004 82784 32598 40000 10248 20234 39660 40114 84400 333 10303 29089 55074 59001;
0201827840999992006040612004-07317-039300FM-12+040999999V0203601N000510450019N0200001N1+02381+02261101191ADDAA124007191AY161061AY221061GF108991011021008001031999KA1240N+02111MA1999999096651MD1999999-0011MW1021REMSYN088AAXX  06124 82784 21598 83601 10238 20226 39665 40119 70262 8123/ 333 20211 59001 60074;
0137827840999992006040618004-07317-039300FM-12+040999999V0203601N002112200019N0200001N1+02961+02311100761ADDGF104991031021008001021001MA1999999096261MD1999999-0041REMSYN070AAXX  06184 82784 32598 43604 10296 20231 39626 40076 83220 333 59004;
0178827840999992006040700004-07317-039300FM-12+040999999V0209999C000012200019N0020001N1+02401+02311101011ADDGA1001+999999999GF100991001001999999001001KA1240M+03051MA1999999096461MD1999999-0141REMSYN082AAXX  07004 82784 32995 00000 10240 20231 39646 40101 333 10305 29088 55071 59014;
0201827840999992006040712004-07317-039300FM-12+040999999V0203201N000510075019N0200001N1+02421+02331101161ADDAA124027991AY161061AY221061GF108991081051008001999999KA1240N+02181MA1999999096611MD1999999-0041MW1021REMSYN088AAXX  07124 82784 21598 83201 10242 20233 39661 40116 70262 885// 333 20218 59004 60284;
0137827840999992006040718004-07317-039300FM-12+040999999V0200501N002110075019N0200001N1+03011+02291100691ADDGF108991071021008001011999MA1999999096201MD1999999-0061REMSYN070AAXX  07184 82784 32598 80504 10301 20229 39620 40069 8721/ 333 59006;
0201827840999992006040812004-07317-039300FM-12+040999999V0200901N001510120019N0200001N1+02521+02341101121ADDAA124030091AY121061AY221061GF107991071081008001001001KA1240N+02111MA1999999096581MD1999999-0031MW1211REMSYN088AAXX  08124 82784 21598 70903 10252 20234 39658 40112 72122 87800 333 20211 59003 60304;
0137827840999992006040818004-07317-039300FM-12+040999999V0200901N001510450019N0200001N1+03031+02211100651ADDGF105991031021008001021001MA1999999096151MD1999999-0051REMSYN070AAXX  08184 82784 32598 50903 10303 20221 39615 40065 83220 333 59005;
0168827840999992006040900004-07317-039300FM-12+040999999V0209999C000012200019N0020001N1+02421+02331101001ADDGF101991011001017501021001KA1240M+03111MA1999999096461MD1999999-0091REMSYN088AAXX  09004 82784 32795 10000 10242 20233 39646 40100 81020 333 10311 29086 55072 59009;
0201827840999992006040912004-07317-039300FM-12+040999999V0202301N000512200019N0020001N1+02541+02351101101ADDAA124000021AY111061AY211061GF103991031021008001001001KA1240N+02161MA1999999096571MD1999999-0011MW1201REMSYN088AAXX  09124 82784 21595 32301 10254 20235 39657 40110 72011 83200 333 20216 59001 69924;
0137827840999992006040918004-07317-039300FM-12+040999999V0203601N001510450019N0200001N1+02841+02331100651ADDGF106991021021008001021001MA1999999096121MD1999999-0031REMSYN070AAXX  09184 82784 32598 63603 10284 20233 39612 40065 82220 333 59003;
0187827840999992006041000004-07317-039300FM-12+040999999V0209999C000012200019N0020001N1+02381+02361100881ADDGF102991999021017501021001KA1240M+02951MA1999999096351MD1999999-0111REMSYN088AAXX  10004 82784 32795 20000 10238 20236 39635 40088 85220 333 10295 29087 55055 59011;EQDQ01+000052SCOTLC
0156827840999992006041012004-07317-039300FM-12+040999999V0201401N000510042019N0200001N1+02501+02291101151ADDGF108991081051004501999999KA1240N+02141MA1999999096611MD1999999+0041REMSYN076AAXX  10124 82784 32498 81401 10250 20229 39661 40115 885// 333 20214 58004;
0217827840999992006041018004-07317-039300FM-12+040999999V0201401N001519999999N0200001N1+02741+02431100691ADDAA106000091AY151061AY221061GF107991999031004501041001MA1999999096131MD1999999+0011MW1021REMSYN082AAXX  10184 82784 21498 71403 10274 20243 39613 40069 70252 88340 333 58001 69911;EQDQ01+000082SCOTLCQ02  00002PRCP06
0196827840999992006041100004-07317-039300FM-12+040999999V0209999C000019999999N0020001N1+02251+02141100941ADDAY191061AY221061GF107991071001012501031999KA1240M+02891MA1999999096391MD1999999+0041MW1171REMSYN094AAXX  11004 82784 31695 70000 10225 20214 39639 40094 71792 8703/ 333 10289 29090 55033 58004;
0201827840999992006041112004-07317-039300FM-12+040999999V0209999C000010042019N0200001N1+02461+02341101081ADDAA124001091AY151061AY221061GF108991081051004501999999KA1240N+02201MA1999999096521MD1999999-0091MW1151REMSYN088AAXX  11124 82784 21498 80000 10246 20234 39652 40108 71552 885// 333 20220 59009 60014;
0165827840999992006041118004-07317-039300FM-12+040999999V0200901N001010042019N0200001N1+02901+02251100751ADDAY191061AY221061GF107991051051004501011001MA1999999096181MD1999999+0051MW1151REMSYN076AAXX  11184 82784 31498 70902 10290 20225 39618 40075 71592 85510 333 58005;
0196827840999992006041200004-07317-039300FM-12+040999999V0202301N000519999999N0020001N1+02451+02321101021ADDAY121061AY221061GF108991081001012501041999KA1240M+03011MA1999999096491MD1999999+0101MW1131REMSYN094AAXX  12004 82784 31695 82301 10245 20232 39649 40102 71322 8804/ 333 10301 29087 55050 58010;
0201827840999992006041212004-07317-039300FM-12+040999999V0203601N001510042019N0200001N1+02561+02291101231ADDAA124002091AY151061AY221061GF106991061021004501001001KA1240N+02151MA1999999096691MD1999999+0171MW1021REMSYN088AAXX  12124 82784 21498 63603 10256 20229 39669 40123 70252 86200 333 20215 58017 60024;
0137827840999992006041218004-07317-039300FM-12+040999999V0203601N002110075019N0200001N1+02971+02151100751ADDGF106991051021008001011001MA1999999096261MD1999999+0081REMSYN070AAXX  12184 82784 32598 63604 10297 20215 39626 40075 85210 333 58008;
0178827840999992006041300004-07317-039300FM-12+040999999V0201801N000512200019N0020001N1+02321+02201101101ADDGA1001+999999999GF100991001001999999001001KA1240M+03041MA1999999096561MD1999999+0071REMSYN082AAXX  13004 82784 32995 01801 10232 20220 39656 40110 333 10304 29083 55082 58007;
0156827840999992006041312004-07317-039300FM-12+040999999V0202701N001510075019N0200001N1+02561+02211101221ADDGF105991051021008001001001KA1240N+02111MA1999999096671MD1999999-0021REMSYN076AAXX  13124 82784 32598 52703 10256 20221 39667 40122 85200 333 20211 59002;
0137827840999992006041318004-07317-039300FM-12+040999999V0203201N000510075019N0200001N1+03041+02331100551ADDGF108991071021008001021999MA1999999096101MD1999999-0161REMSYN070AAXX  13184 82784 32598 83201 10304 20233 39610 40055 8722/ 333 59016;
0168827840999992006041400004-07317-039300FM-12+040999999V0209999C000010075019N0200001N1+02401+02311100951ADDGF105991051041008001001001KA1240M+03111MA1999999096431MD1999999-0131REMSYN088AAXX  14004 82784 32598 50000 10240 20231 39643 40095 85400 333 10311 29084 55081 59013;
0156827840999992006041412004-07317-039300FM-12+040999999V0202701N001010075019N0200001N1+02421+02251101101ADDGF108991081051008001999999KA1240N+02101MA1999999096551MD1999999-0121REMSYN076AAXX  14124 82784 32598 82702 10242 20225 39655 40110 885// 333 20210 59012;
0182827840999992006041418004-07317-039300FM-12+040999999V0203601N002110075019N0200001N1+02441+02211100671ADDAA106026991AY161061AY221061GF106991061061008001001001MA1999999096131MD1999999+0031MW1211REMSYN082AAXX  14184 82784 21598 63604 10244 20221 39613 40067 72162 86600 333 58003 60271;
0213827840999992006041500004-07317-039300FM-12+040999999V0201801N000512200019N0020001N1+02341+02271100931ADDAA106000021AY101061AY251061GF102991021001017501021001KA1240M+02931MA1999999096391MD1999999-0041MW1021REMSYN100AAXX  15004 82784 21795 21801 10234 20227 39639 40093 70205 82020 333 10293 29092 55037 59004 69911;
0201827840999992006041512004-07317-039300FM-12+040999999V0200901N000510075019N0200001N1+02441+02371101111ADDAA124026991AY161061AY261061GF107991071041008001001001KA1240N+02131MA1999999096561MD1999999+0011MW1201REMSYN088AAXX  15124 82784 21598 70901 10244 20237 39656 40111 72066 87400 333 20213 58001 60274;
0137827840999992006041518004-07317-039300FM-12+040999999V0200901N002112200019N0200001N1+02971+02281100681ADDGF103991031021008001001001MA1999999096141MD1999999+0011REMSYN070AAXX  15184 82784 32598 30904 10297 20228 39614 40068 83200 333 58001;
0213827840999992006041600004-07317-039300FM-12+040999999V0200901N000510120019N0020001N1+02241+02171101331ADDAA106013091AY121061AY221061GF108991081081008001999999KA1240M+03091MA1999999096761MD1999999+0371MW1611REMSYN100AAXX  16004 82784 21595 80901 10224 20217 39676 40133 76122 888// 333 10309 29088 55079 58037 60131;
0201827840999992006041612004-07317-039300FM-12+040999999V0203601N001010450019N0200001N1+02491+02341101451ADDAA124014091AY161061AY221061GF106991021021008001031001KA1240N+02101MA1999999096871MD1999999+0111MW1011REMSYN088AAXX  16124 82784 21598 63602 10249 20234 39687 40145 70162 82230 333 20210 58011 60144;
0137827840999992006041618004-07317-039300FM-12+040999999V0203601N001510450019N0200001N1+02891+02251101041ADDGF106991011021008001031001MA1999999096531MD1999999+0361REMSYN070AAXX  16184 82784 32598 63603 10289 20225 39653 40104 81230 333 58036;
0187827840999992006041700004-07317-039300FM-12+040999999V0202701N000512200019N0020001N1+02281+02141101321ADDGF102991999021008001001001KA1240M+02991MA1999999096761MD1999999+0001REMSYN088AAXX  17004 82784 32595 22701 10228 20214 39676 40132 83200 333 10299 29086 55035 58000;EQDQ01+000032SCOTLC
0201827840999992006041712004-07317-039300FM-12+040999999V0203601N001510042019N0200001N1+02641+02291101331ADDAA124001091AY151061AY221061GF106991061021004501001001KA1240N+02051MA1999999096781MD1999999-0091MW1021REMSYN088AAXX  17124 82784 21498 63603 10264 20229 39678 40133 70252 86200 333 20205 59009 60014;
0168827840999992006041800004-07317-039300FM-12+040999999V0200901N001010042019N0020001N1+02461+02271101161ADDGF106991061021004501001001KA1240M+03091MA1999999096641MD1999999-0121REMSYN088AAXX  18004 82784 32495 60902 10246 20227 39664 40116 86200 333 10309 29082 55065 59012;
0201827840999992006041812004-07317-039300FM-12+040999999V0201801N001510042019N0200001N1+02461+02321101301ADDAA124003091AY151061AY221061GF107991051051004501051011KA1240N+02101MA1999999096751MD1999999-0031MW1021REMSYN088AAXX  18124 82784 21498 71803 10246 20232 39675 40130 70252 85551 333 20210 59003 60034;
0137827840999992006041818004-07317-039300FM-12+040999999V0202301N001010450019N0200001N1+03051+02331100831ADDGF108991041031008001041999MA1999999096271MD1999999-0181REMSYN070AAXX  18184 82784 32598 82302 10305 20233 39627 40083 8434/ 333 59018;
0213827840999992006041900004-07317-039300FM-12+040999999V0202701N001519999999N0020001N1+02381+02151101261ADDAA106001091AY151061AY221061GF108991081999004501999999KA1240M+03121MA1999999096701MD1999999+0061MW1171REMSYN100AAXX  19004 82784 21495 82703 10238 20215 39670 40126 71752 88/// 333 10312 29083 55055 58006 60011;
0201827840999992006041912004-07317-039300FM-12+040999999V0200901N001510042019N0200001N1+02481+02251101371ADDAA124004191AY151061AY221061GF106991061021004501001001KA1240N+02141MA1999999096821MD1999999+0071MW1021REMSYN088AAXX  19124 82784 21498 60903 10248 20225 39682 40137 70252 86200 333 20214 58007 60044;
0178827840999992006042000004-07317-039300FM-12+040999999V0202701N000512200019N0020001N1+02361+02311101281ADDGA1001+999999999GF100991001001999999001001KA1240M+02871MA1999999096721MD1999999+0021REMSYN082AAXX  20004 82784 32995 02701 10236 20231 39672 40128 333 10287 29091 55054 58002;
0173827840999992006042012004-07317-039300FM-12+040999999V0200901N001510075019N0200001N1+02491+02171101351ADDAA124000591GF108991081021008001999999KA1240N+02091MA1999999096791MD1999999-0031REMSYN082AAXX  20124 82784 22598 80903 10249 20217 39679 40135 882// 333 20209 59003 69944;
0178827840999992006042100004-07317-039300FM-12+040999999V0200201N015912200019N0020001N1+02341+02221101231ADDGA1001+999999999GF100991001001999999001001KA1240M+03011MA1999999096671MD1999999-0051REMSYN082AAXX  21004 82784 32995 00231 10234 20222 39667 40123 333 10301 29084 55085 59005;
0201827840999992006042112004-07317-039300FM-12+040999999V0201401N001010075019N0200001N1+02271+02231101411ADDAA124037191AY161061AY221061GF108991081051008001999999KA1240N+02121MA1999999096831MD1999999+0041MW1021REMSYN088AAXX  21124 82784 21598 81402 10227 20223 39683 40141 70262 885// 333 20212 58004 60374;
0137827840999992006042118004-07317-039300FM-12+040999999V0202701N001510075019N0200001N1+02581+02331101011ADDGF108991051061008001031999MA1999999096461MD1999999+0091REMSYN070AAXX  21184 82784 32598 82703 10258 20233 39646 40101 8563/ 333 58009;
0187827840999992006042200004-07317-039300FM-12+040999999V0209999C000012200019N0020001N1+02401+02331101351ADDGF101991999021008001081091KA1240M+02891MA1999999096781MD1999999+0111REMSYN088AAXX  22004 82784 32595 10000 10240 20233 39678 40135 80289 333 10289 29094 55030 58011;EQDQ01+000002SCOTLC
0156827840999992006042212004-07317-039300FM-12+040999999V0203601N000510120019N0200001N1+02321+02251101511ADDGF108991081081008001999999KA1240N+02181MA1999999096931MD1999999+0101REMSYN076AAXX  22124 82784 32598 83601 10232 20225 39693 40151 888// 333 20218 58010;
0137827840999992006042218004-07317-039300FM-12+040999999V0203201N001512200019N0200001N1+02901+02321100961ADDGF103991021021008001021001MA1999999096451MD1999999-0011REMSYN070AAXX  22184 82784 32598 33203 10290 20232 39645 40096 82220 333 59001;
0168827840999992006042300004-07317-039300FM-12+040999999V0201801N000512200019N0020001N1+02361+02281101201ADDGF101991011011008001001001KA1240M+03031MA1999999096641MD1999999-0141REMSYN088AAXX  23004 82784 32595 11801 10236 20228 39664 40120 81100 333 10303 29089 55063 59014;
0156827840999992006042312004-07317-039300FM-12+040999999V0203601N001010120019N0200001N1+02241+02171101391ADDGF108991081081008001999999KA1240N+02121MA1999999096811MD1999999-0121REMSYN076AAXX  23124 82784 32598 83602 10224 20217 39681 40139 888// 333 20212 59012;
0137827840999992006042318004-07317-039300FM-12+040999999V0200501N001010120019N0200001N1+02621+02311100901ADDGF106991061081008001001001MA1999999096371MD1999999-0081REMSYN070AAXX  23184 82784 32598 60502 10262 20231 39637 40090 86800 333 59008;
0213827840999992006042400004-07317-039300FM-12+040999999V0209999C000012200019N0020001N1+02311+02271101271ADDAA106006191AY121061AY221061GF104991041041008001001001KA1240M+02841MA1999999096681MD1999999+0041MW1211REMSYN100AAXX  24004 82784 21595 40000 10231 20227 39668 40127 72122 84400 333 10284 29093 55035 58004 60061;
0173827840999992006042412004-07317-039300FM-12+040999999V0200901N001510075019N0200001N1+02561+02271101191ADDAA124006191GF108991081021008001999999KA1240N+02181MA1999999096651MD1999999-0161REMSYN082AAXX  24124 82784 22598 80903 10256 20227 39665 40119 882// 333 20218 59016 60064;
0156827840999992006042418004-07317-039300FM-12+040999999V0201401N001010075019N0200001N1+02921+02341100841ADDGF107991999021008001001001MA1999999096271MD1999999-0101REMSYN070AAXX  24184 82784 32598 71402 10292 20234 39627 40084 85200 333 59010;EQDQ01+000052SCOTLC
0213827840999992006042500004-07317-039300FM-12+040999999V0201801N001019999999N0020001N1+02371+02281101031ADDAA106001091AY151061AY211061GF105991051999999999999999KA1240M+03001MA1999999096491MD1999999-0191MW1011REMSYN100AAXX  25004 82784 21/95 51802 10237 20228 39649 40103 70151 85/// 333 10300 29086 55058 59019 60011;
0201827840999992006042512004-07317-039300FM-12+040999999V0201401N001010042019N0200001N1+02541+02381101191ADDAA124003091AY151061AY221061GF107991071051004501001001KA1240N+02201MA1999999096651MD1999999+0001MW1021REMSYN088AAXX  25124 82784 21498 71402 10254 20238 39665 40119 70252 87500 333 20220 58000 60034;
0137827840999992006042518004-07317-039300FM-12+040999999V0200901N001010450019N0200001N1+02901+02331100821ADDGF107991031021008001011011MA1999999096261MD1999999-0011REMSYN070AAXX  25184 82784 32598 70902 10290 20233 39626 40082 83211 333 59001;
0248827840999992006042600004-07317-039300FM-12+040999999V0202701N001019999999N0020001N1+02261+02161101201ADDAA106004191AY151061AY221061GF108991999001999999001001KA1240M+03021MA1999999096651MD1999999+0161MW1131REMSYN100AAXX  26004 82784 21/95 82702 10226 20216 39665 40120 71352 88000 333 10302 29087 55076 58016 60041;EQDQ01+000082SCOTLCQ02+000002SCOTLC
0173827840999992006042612004-07317-039300FM-12+040999999V0201401N002110075019N0200001N1+02561+02311101201ADDAA124004191GF108991051051008001011999KA1240N+02181MA1999999096651MD1999999+0001REMSYN082AAXX  26124 82784 22598 81404 10256 20231 39665 40120 8551/ 333 20218 58000 60044;
0137827840999992006042618004-07317-039300FM-12+040999999V0201801N002110450019N0200001N1+02991+02141100841ADDGF106991041021008001031001MA1999999096341MD1999999+0081REMSYN070AAXX  26184 82784 32598 61804 10299 20214 39634 40084 84230 333 58008;
0178827840999992006042700004-07317-039300FM-12+040999999V0201401N000512200019N0020001N1+02331+02171101231ADDGA1001+999999999GF100991001001999999001001KA1240M+02971MA1999999096681MD1999999+0031REMSYN082AAXX  27004 82784 32995 01401 10233 20217 39668 40123 333 10297 29082 55079 58003;
0156827840999992006042712004-07317-039300FM-12+040999999V0201801N001512200019N0200001N1+02661+02221101201ADDGF104991041021008001001001KA1240N+02001MA1999999096661MD1999999+0011REMSYN076AAXX  27124 82784 32598 41803 10266 20222 39666 40120 84200 333 20200 58001;
0156827840999992006042718004-07317-039300FM-12+040999999V0200501N002119999999N0200001N1+02921+02291100761ADDGF107991999021008001001001MA1999999096251MD1999999-0091REMSYN070AAXX  27184 82784 32598 70504 10292 20229 39625 40076 84200 333 59009;EQDQ01+000042SCOTLC
0178827840999992006042800004-07317-039300FM-12+040999999V0201801N000512200019N0020001N1+02431+02331101171ADDGA1001+999999999GF100991001001999999001001KA1240M+03091MA1999999096651MD1999999-0031REMSYN082AAXX  28004 82784 32995 01801 10243 20233 39665 40117 333 10309 29084 55090 59003;
0201827840999992006042812004-07317-039300FM-12+040999999V0202701N000510075019N0200001N1+02301+02271101291ADDAA124014091AY161061AY221061GF108991081051008001999999KA1240N+02191MA1999999096721MD1999999+0061MW1201REMSYN088AAXX  28124 82784 21598 82701 10230 20227 39672 40129 72062 885// 333 20219 58006 60144;
0182827840999992006042818004-07317-039300FM-12+040999999V0201801N001510075019N0200001N1+02881+02411100771ADDAA106000591AY151061AY221061GF108991061021008001021999MA1999999096271MD1999999+0021MW1021REMSYN082AAXX  28184 82784 21598 81803 10288 20241 39627 40077 70252 8622/ 333 58002 69941;
0168827840999992006042900004-07317-039300FM-12+040999999V0209999C000012200019N0020001N1+02401+02331101131ADDGF101991011041008001001001KA1240M+02991MA1999999096571MD1999999-0081REMSYN088AAXX  29004 82784 32595 10000 10240 20233 39657 40113 81400 333 10299 29092 55032 59008;
0192827840999992006042912004-07317-039300FM-12+040999999V0201401N001510120019N0200001N1+02591+02421101221ADDAA124000591GF108991999081008001001001KA1240N+02181MA1999999096681MD1999999-0041REMSYN082AAXX  29124 82784 22598 81403 10259 20242 39668 40122 87800 333 20218 59004 69944;EQDQ01+000072SCOTLC
0137827840999992006042918004-07317-039300FM-12+040999999V0201401N002612200019N0200001N1+03011+02321100721ADDGF104991031021008001021001MA1999999096211MD1999999-0061REMSYN070AAXX  29184 82784 32598 41405 10301 20232 39621 40072 83220 333 59006;
0178827840999992006043000004-07317-039300FM-12+040999999V0200901N000512200019N0020001N1+02481+02231101061ADDGA1001+999999999GF100991001001999999001001KA1240M+03091MA1999999096541MD1999999-0031REMSYN082AAXX  30004 82784 32995 00901 10248 20223 39654 40106 333 10309 29082 55063 59003;
0175827840999992006043012004-07317-039300FM-12+040999999V0201401N003110075019N0200001N1+02531+02191101261ADDGF107991999021008001001001KA1240N+02261MA1999999096721MD1999999+0041REMSYN076AAXX  30124 82784 32598 71406 10253 20219 39672 40126 85200 333 20226 58004;EQDQ01+000052SCOTLC
0137827840999992006043018004-07317-039300FM-12+040999999V0200501N002612200019N0200001N1+02941+02231100811ADDGF103991031021008001001001MA1999999096301MD1999999+0091REMSYN070AAXX  30184 82784 32598 30505 10294 20223 39630 40081 83200 333 58009;
0168827840999992006050100004-07317-039300FM-12+040999999V0209999C000010120019N0020001N1+02401+02341101211ADDGF106991061081008001001001KA1240M+03021MA1999999096671MD1999999+0131REMSYN088AAXX  01004 82784 32595 60000 10240 20234 39667 40121 86800 333 10302 29083 55084 58013;
0201827840999992006050112004-07317-039300FM-12+040999999V0201401N001010042019N0200001N1+02421+02281101391ADDAA124007991AY161061AY251061GF108991061051004501051999KA1240N+02181MA1999999096841MD1999999+0121MW1021REMSYN088AAXX  01124 82784 21498 81402 10242 20228 39684 40139 70265 8655/ 333 20218 58012 60084;
0137827840999992006050118004-07317-039300FM-12+040999999V0200901N001510450019N0200001N1+02791+02271101031ADDGF106991041021008001051001MA1999999096461MD1999999+0161REMSYN070AAXX  01184 82784 32598 60903 10279 20227 39646 40103 84250 333 58016;
0213827840999992006050200004-07317-039300FM-12+040999999V0201801N001010042019N0020001N1+02351+02281101391ADDAA106001091AY151061AY211061GF105991051021004501001001KA1240M+02931MA1999999096831MD1999999+0161MW1011REMSYN100AAXX  02004 82784 21495 51802 10235 20228 39683 40139 70151 85200 333 10293 29089 55038 58016 60011;
0173827840999992006050212004-07317-039300FM-12+040999999V0201401N001510075019N0200001N1+02661+02271101341ADDAA124001091GF106991061021008001001001KA1240N+02161MA1999999096801MD1999999-0041REMSYN082AAXX  02124 82784 22598 61403 10266 20227 39680 40134 86200 333 20216 59004 60014;
0137827840999992006050218004-07317-039300FM-12+040999999V0200901N003112200019N0200001N1+02941+02191101051ADDGF104991041021008001001001MA1999999096471MD1999999+0011REMSYN070AAXX  02184 82784 32598 40906 10294 20219 39647 40105 84200 333 58001;
0168827840999992006050300004-07317-039300FM-12+040999999V0209999C000012200019N0020001N1+02381+02261101241ADDGF102991021011008001001001KA1240M+03041MA1999999096701MD1999999-0131REMSYN088AAXX  03004 82784 32595 20000 10238 20226 39670 40124 82100 333 10304 29082 55096 59013;
0156827840999992006050312004-07317-039300FM-12+040999999V0200901N003110450019N0200001N1+02671+02131101311ADDGF106991041011008001011001KA1240N+02141MA1999999096771MD1999999-0031REMSYN076AAXX  03124 82784 32598 60906 10267 20213 39677 40131 84110 333 20214 59003;
0137827840999992006050318004-07317-039300FM-12+040999999V0200901N002110075019N0200001N1+02981+02151100881ADDGF107991061021008001011001MA1999999096371MD1999999-0101REMSYN070AAXX  03184 82784 32598 70904 10298 20215 39637 40088 86210 333 59010;
0168827840999992006050400004-07317-039300FM-12+040999999V0201401N000510075019N0020001N1+02391+02311101141ADDGF106991061041008001001001KA1240M+03071MA1999999096621MD1999999-0211REMSYN088AAXX  04004 82784 32595 61401 10239 20231 39662 40114 86400 333 10307 29081 55101 59021;
0156827840999992006050412004-07317-039300FM-12+040999999V0200501N001010450019N0200001N1+02671+02221101161ADDGF108991021011008001011999KA1240N+02141MA1999999096641MD1999999-0131REMSYN076AAXX  04124 82784 32598 80502 10267 20222 39664 40116 8211/ 333 20214 59013;
0137827840999992006050418004-07317-039300FM-12+040999999V0200501N002110450019N0200001N1+02901+02151100921ADDGF108991031021008001011999MA1999999096411MD1999999+0041REMSYN070AAXX  04184 82784 32598 80504 10290 20215 39641 40092 8321/ 333 58004;
0178827840999992006050500004-07317-039300FM-12+040999999V0202301N000512200019N0020001N1+02341+02221101221ADDGA1001+999999999GF100991001001999999001001KA1240M+02971MA1999999096681MD1999999+0061REMSYN082AAXX  05004 82784 32995 02301 10234 20222 39668 40122 333 10297 29082 55068 58006;
0156827840999992006050512004-07317-039300FM-12+040999999V0200501N002110075019N0200001N1+02631+02251101241ADDGF106991061021008001001001KA1240N+02001MA1999999096701MD1999999+0061REMSYN076AAXX  05124 82784 32598 60504 10263 20225 39670 40124 86200 333 20200 58006;
0137827840999992006050518004-07317-039300FM-12+040999999V0200901N002610450019N0200001N1+03011+02171100861ADDGF108991041021008001011999MA1999999096351MD1999999-0061REMSYN070AAXX  05184 82784 32598 80905 10301 20217 39635 40086 8421/ 333 59006;
0178827840999992006050600004-07317-039300FM-12+040999999V0209999C000012200019N0020001N1+02361+02241101201ADDGA1001+999999999GF100991001001999999001001KA1240M+03091MA1999999096661MD1999999-0021REMSYN082AAXX  06004 82784 32995 00000 10236 20224 39666 40120 333 10309 29082 55098 59002;
0156827840999992006050612004-07317-039300FM-12+040999999V0201401N005110450019N0200001N1+02581+02231101361ADDGF107991021021008001021001KA1240N+02021MA1999999096811MD1999999+0111REMSYN076AAXX  06124 82784 32598 71410 10258 20223 39681 40136 82220 333 20202 58011;
0156827840999992006050618004-07317-039300FM-12+040999999V0200901N001519999999N0200001N1+02831+02241100911ADDGF107991999021008001001001MA1999999096401MD1999999+0051REMSYN070AAXX  06184 82784 32598 70903 10283 20224 39640 40091 84200 333 58005;EQDQ01+000042SCOTLC
0168827840999992006050700004-07317-039300FM-12+040999999V0209999C000010150019N0020001N1+02341+02221101261ADDGF106991061001017501021001KA1240M+02931MA1999999096711MD1999999+0051REMSYN088AAXX  07004 82784 32795 60000 10234 20222 39671 40126 86020 333 10293 29084 55045 58005;
0156827840999992006050712004-07317-039300FM-12+040999999V0200501N001010120019N0200001N1+02451+02301101351ADDGF107991071081008001001001KA1240N+02101MA1999999096791MD1999999-0021REMSYN076AAXX  07124 82784 32598 70502 10245 20230 39679 40135 87800 333 20210 59002;
0137827840999992006050718004-07317-039300FM-12+040999999V0201401N001010450019N0200001N1+03011+02291100901ADDGF106991041081008001021001MA1999999096401MD1999999+0001REMSYN070AAXX  07184 82784 32598 61402 10301 20229 39640 40090 84820 333 58000;
0187827840999992006050800004-07317-039300FM-12+040999999V0201801N001019999999N0020001N1+02351+02191101191ADDGF106991999001017501051001KA1240M+03101MA1999999096641MD1999999-0071REMSYN088AAXX  08004 82784 32795 61802 10235 20219 39664 40119 87050 333 10310 29084 55036 59007;EQDQ01+000072SCOTLC
0156827840999992006050812004-07317-039300FM-12+040999999V0201801N003110450019N0200001N1+02641+02051101321ADDGF106991041011008001011001KA1240N+02221MA1999999096781MD1999999-0061REMSYN076AAXX  08124 82784 32598 61806 10264 20205 39678 40132 84110 333 20222 59006;
0137827840999992006050818004-07317-039300FM-12+040999999V0200901N002110450019N0200001N1+02901+02251100921ADDGF106991041021008001011001MA1999999096421MD1999999+0021REMSYN070AAXX  08184 82784 32598 60904 10290 20225 39642 40092 84210 333 58002;
0168827840999992006050900004-07317-039300FM-12+040999999V0209999C000012200019N0020001N1+02301+02111101231ADDGF103991031001017501001011KA1240M+02981MA1999999096681MD1999999+0041REMSYN088AAXX  09004 82784 32795 30000 10230 20211 39668 40123 83001 333 10298 29079 55092 58004;
0175827840999992006050912004-07317-039300FM-12+040999999V0201801N002110075019N0200001N1+02501+02071101351ADDGF107991999021008001001001KA1240N+02191MA1999999096791MD1999999+0011REMSYN076AAXX  09124 82784 32598 71804 10250 20207 39679 40135 85200 333 20219 58001;EQDQ01+000052SCOTLC
