0168829940999992006033100004-09667-035700FM-12+006599999V0200501N001012200019N0040001N1+02651+02371101041ADDGF102991011021012501041011KA1240M+03281MA1999999100301MD1999999+0011REMSYN088AAXX  31004 82994 32696 20502 10265 20237 30030 40104 81241 333 10328 29073 55097 58001;
