0137832290999992006011218004-13017-038517FM-12+005199999V0200901N001512200019N0200001N1+03041+02201101411ADDGF102991011021008001051001MA1999999100831MD1999999+0001REMSYN070AAXX  12184 83229 32598 20903 10304 20220 30083 40141 81250 333 58000;
0187832290999992006033100004-13017-038517FM-12+005199999V0200501N001512200019N9999999N1+02721+02501101341ADDGF101991001001999999001081KA1240M+03311MA1999999100751MD1999999+0141REMSYN088AAXX  31004 83229 328// 10503 10272 20250 30075 40134 80008 333 10331 29086 55047 58014;EQDQ01+022502SCOLCB
