0168832360999992006010100004-12150-045000FM-12+043999999V0209999C000010075019N0100001N1+02361+02131101041ADDGF108991051051008001021081KA1240M+02911MA1999999096131MD1999999-0151REMSYN088AAXX  01004 83236 32597 80000 10236 20213 39613 40104 85528 333 10291 29082 55026 59015;
0156832360999992006010112004-12150-045000FM-12+043999999V0209999C000010450019N0100001N1+02391+02071101141ADDGF107991031051008001071001KA1240N+02131MA1999999096241MD1999999-0121REMSYN076AAXX  01124 83236 32597 70000 10239 20207 39624 40114 83570 333 20213 59012;
0168832360999992006010200004-12150-045000FM-12+043999999V0209999C000010450019N0100001N1+02461+02231100871ADDGF106991031021008001071001KA1240M+03031MA1999999095981MD1999999-0151REMSYN088AAXX  02004 83236 32597 60000 10246 20223 39598 40087 83270 333 10303 29080 55040 59015;
0156832360999992006010212004-12150-045000FM-12+043999999V0209999C000012200019N0200001N1+02651+02071101141ADDGF103991031021008001001001KA1240N+02121MA1999999096171MD1999999-0071REMSYN076AAXX  02124 83236 32598 30000 10265 20207 39617 40114 83200 333 20212 59007;
0137832360999992006010218004-12150-045000FM-12+043999999V0200501N003112200019N0200001N1+03081+02041100681ADDGF104991041021008001001001MA1999999095841MD1999999-0011REMSYN070AAXX  02184 83236 32598 40506 10308 20204 39584 40068 84200 333 59001;
0168832360999992006010300004-12150-045000FM-12+043999999V0209999C000010120019N0100001N1+02611+02211100791ADDGF106991061081008001001001KA1240M+03131MA1999999095951MD1999999-0031REMSYN088AAXX  03004 83236 32597 60000 10261 20221 39595 40079 86800 333 10313 29070 55113 59003;
0156832360999992006010312004-12150-045000FM-12+043999999V0209999C000012200019N0200001N1+02701+02131101001ADDGF104991021011008001001051KA1240N+02101MA1999999096151MD1999999-0021REMSYN076AAXX  03124 83236 32598 40000 10270 20213 39615 40100 82105 333 20210 59002;
0137832360999992006010318004-12150-045000FM-12+043999999V0203601N003611050019N0200001N1+03121+01751100641ADDGF107991021021008001001061MA1999999095801MD1999999-0041REMSYN070AAXX  03184 83236 32598 73607 10312 20175 39580 40064 82206 333 59004;
0168832360999992006010400004-12150-045000FM-12+043999999V0209999C000012200019N0200001N1+02461+02171100731ADDGF103991031021008001001001KA1240M+03191MA1999999095881MD1999999-0071REMSYN088AAXX  04004 83236 32598 30000 10246 20217 39588 40073 83200 333 10319 29070 55102 59007;
0156832360999992006010412004-12150-045000FM-12+043999999V0202701N000512200019N0200001N1+02521+02021100851ADDGF103991021021008001001041KA1240N+01931MA1999999095981MD1999999-0171REMSYN076AAXX  04124 83236 32598 32701 10252 20202 39598 40085 82204 333 20193 59017;
0137832360999992006010418004-12150-045000FM-12+043999999V0200501N003110450019N0200001N1+03211+01841100401ADDGF106991031021008001061041MA1999999095591MD1999999-0211REMSYN070AAXX  04184 83236 32598 60506 10321 20184 39559 40040 83264 333 59021;
0196832360999992006010500004-12150-045000FM-12+043999999V0201801N000512200019N0200001N1+02581+02081100561ADDAY101061AY221061GF104991031071008001001081KA1240M+03371MA1999999095721MD1999999-0161MW1131REMSYN094AAXX  05004 83236 31598 41801 10258 20208 39572 40056 71302 83708 333 10337 29066 55105 59016;
0156832360999992006010512004-12150-045000FM-12+043999999V0201801N001012200019N0200001N1+02541+02061100781ADDGF106991021011008001001061KA1240N+02001MA1999999095931MD1999999-0051REMSYN076AAXX  05124 83236 32598 61802 10254 20206 39593 40078 82106 333 20200 59005;
0137832360999992006010518004-12150-045000FM-12+043999999V0200501N004612200019N0200001N1+03101+02001100401ADDGF106991021021008001001061MA1999999095571MD1999999-0021REMSYN070AAXX  05184 83236 32598 60509 10310 20200 39557 40040 82206 333 59002;
0201832360999992006010612004-12150-045000FM-12+043999999V0202301N003112200019N0200001N1+02591+02191100951ADDAA124000891AY151061AY251061GF104991021021008001001071KA1240N+02171MA1999999096101MD1999999+0171MW1031REMSYN088AAXX  06124 83236 21598 42306 10259 20219 39610 40095 70355 82207 333 20217 58017 69984;
0137832360999992006010618004-12150-045000FM-12+043999999V0203601N002612200019N0200001N1+03151+02121100581ADDGF104991021021008001001051MA1999999095771MD1999999+0201REMSYN070AAXX  06184 83236 32598 43605 10315 20212 39577 40058 82205 333 58020;
0196832360999992006010700004-12150-045000FM-12+043999999V0209999C000011050019N0200001N1+02521+02131100911ADDAY121061AY221061GF105991021051008001001071KA1240M+03201MA1999999096051MD1999999+0221MW1131REMSYN094AAXX  07004 83236 31598 50000 10252 20213 39605 40091 71322 82507 333 10320 29073 55095 58022;
0156832360999992006010712004-12150-045000FM-12+043999999V0209999C000010450019N0200001N1+02531+02151100991ADDGF106991031021012501061071KA1240N+02151MA1999999096121MD1999999+0021REMSYN076AAXX  07124 83236 32698 60000 10253 20215 39612 40099 83267 333 20215 58002;
0182832360999992006010718004-12150-045000FM-12+043999999V0200501N001511050019N0200001N1+02951+02191100591ADDAA106001091AY151061AY251061GF106991041021008001001051MA1999999095771MD1999999+0001MW1031REMSYN082AAXX  07184 83236 21598 60503 10295 20219 39577 40059 70355 84205 333 58000 60011;
0173832360999992006010812004-12150-045000FM-12+043999999V0200501N001010450019N0200001N1+02771+02121101031ADDAA124001091GF106991031021008001051031KA1240N+02131MA1999999096171MD1999999+0051REMSYN082AAXX  08124 83236 22598 60502 10277 20212 39617 40103 83253 333 20213 58005 60014;
0137832360999992006010818004-12150-045000FM-12+043999999V0203601N003110450019N0200001N1+02941+02001100671ADDGF106991031031008001071051MA1999999095821MD1999999+0051REMSYN070AAXX  08184 83236 32598 63606 10294 20200 39582 40067 83375 333 58005;
0156832360999992006010912004-12150-045000FM-12+043999999V0209999C000010450019N0200001N1+02511+01891101121ADDGF106991031021008001061051KA1240N+01961MA1999999096231MD1999999+0061REMSYN076AAXX  09124 83236 32598 60000 10251 20189 39623 40112 83265 333 20196 58006;
0137832360999992006010918004-12150-045000FM-12+043999999V0203601N003110450019N0200001N1+03111+01901100651ADDGF107991041021008001051071MA1999999095801MD1999999-0021REMSYN070AAXX  09184 83236 32598 73606 10311 20190 39580 40065 84257 333 59002;
0213832360999992006011000004-12150-045000FM-12+043999999V0209999C000012200019N0200001N1+02331+02221100881ADDAA106007191AY161061AY251061GF104991021001022501061051KA1240M+03161MA1999999095991MD1999999-0061MW1021REMSYN100AAXX  10004 83236 21898 40000 10233 20222 39599 40088 70265 82065 333 10316 29077 55089 59006 60071;
0173832360999992006011012004-12150-045000FM-12+043999999V0200501N001510450019N0200001N1+02701+02151101151ADDAA124007191GF106991041021008001061071KA1240N+02211MA1999999096271MD1999999+0041REMSYN082AAXX  10124 83236 22598 60503 10270 20215 39627 40115 84267 333 20221 58004 60074;
0168832360999992006011100004-12150-045000FM-12+043999999V0201801N001011050019N0200001N1+02351+02091101081ADDGF105991021001022501071051KA1240M+03031MA1999999096201MD1999999+0211REMSYN088AAXX  11004 83236 32898 51802 10235 20209 39620 40108 82075 333 10303 29075 55066 58021;
0156832360999992006011112004-12150-045000FM-12+043999999V0209999C000010450019N0200001N1+02531+01961101211ADDGF106991041021008001051071KA1240N+02001MA1999999096321MD1999999+0051REMSYN076AAXX  11124 83236 32598 60000 10253 20196 39632 40121 84257 333 20200 58005;
0137832360999992006011118004-12150-045000FM-12+043999999V0201401N004110450019N0200001N1+03121+01791100811ADDGF106991031021008001071051MA1999999095961MD1999999-0091REMSYN070AAXX  11184 83236 32598 61408 10312 20179 39596 40081 83275 333 59009;
0137832360999992006011218004-12150-045000FM-12+043999999V0200901N004610450019N0200001N1+03121+01791100891ADDGF106991041021008001041071MA1999999096041MD1999999+0081REMSYN070AAXX  12184 83236 32598 60909 10312 20179 39604 40089 84247 333 58008;
0168832360999992006011300004-12150-045000FM-12+043999999V0209999C000011050019N0200001N1+02401+01841101101ADDGF105991021021012501061071KA1240M+03191MA1999999096221MD1999999+0141REMSYN088AAXX  13004 83236 32698 50000 10240 20184 39622 40110 82267 333 10319 29062 55099 58014;
0156832360999992006011312004-12150-045000FM-12+043999999V0201801N002612200019N0200001N1+02601+01871101251ADDGF104991001001999999001071KA1240N+01901MA1999999096371MD1999999-0041REMSYN076AAXX  13124 83236 32998 41805 10260 20187 39637 40125 80007 333 20190 59004;
0137832360999992006011318004-12150-045000FM-12+043999999V0201801N002111050019N0200001N1+03281+01491100921ADDGF105991031021008001001051MA1999999096091MD1999999+0051REMSYN070AAXX  13184 83236 32598 51804 10328 20149 39609 40092 83205 333 58005;
0168832360999992006011400004-12150-045000FM-12+043999999V0202301N003112200019N0200001N1+02451+01531101111ADDGF104991001001999999001071KA1240M+03431MA1999999096231MD1999999+0011REMSYN088AAXX  14004 83236 32998 42306 10245 20153 39623 40111 80007 333 10343 29053 55117 58001;
0156832360999992006011412004-12150-045000FM-12+043999999V0201401N002112200019N0200001N1+02641+01851101151ADDGF103991001001999999001051KA1240N+01921MA1999999096271MD1999999-0101REMSYN076AAXX  14124 83236 32998 31404 10264 20185 39627 40115 80005 333 20192 59010;
0137832360999992006011418004-12150-045000FM-12+043999999V0201401N002611050019N0200001N1+03371+01771100811ADDGF105991031021008001001031MA1999999095981MD1999999-0111REMSYN070AAXX  14184 83236 32598 51405 10337 20177 39598 40081 83203 333 59011;
0156832360999992006011512004-12150-045000FM-12+043999999V0203201N001012200019N0200001N1+02561+01781101151ADDGF103991001001999999001031KA1240N+01941MA1999999096271MD1999999+0001REMSYN076AAXX  15124 83236 32998 33202 10256 20178 39627 40115 80003 333 20194 58000;
0137832360999992006011518004-12150-045000FM-12+043999999V0200901N002612200019N0200001N1+03371+01651100691ADDGF104991031021008001001031MA1999999095881MD1999999-0101REMSYN070AAXX  15184 83236 32598 40905 10337 20165 39588 40069 83203 333 59010;
0156832360999992006011612004-12150-045000FM-12+043999999V0209999C000012200019N0200001N1+02541+01601101171ADDGF103991001001999999001051KA1240N+01821MA1999999096291MD1999999+0021REMSYN076AAXX  16124 83236 32998 30000 10254 20160 39629 40117 80005 333 20182 58002;
0168832360999992006011700004-12150-045000FM-12+043999999V0201801N001012200019N0200001N1+02301+01681100951ADDGF104991001001999999001071KA1240M+03331MA1999999096061MD1999999-0031REMSYN088AAXX  17004 83236 32998 41802 10230 20168 39606 40095 80007 333 10333 29056 55110 59003;
0156832360999992006011712004-12150-045000FM-12+043999999V0209999C000019999999N0200001N1+02521+01691101201ADDGF105991001001999999001071KA1240N+01711MA1999999096301MD1999999+0011REMSYN076AAXX  17124 83236 32998 50000 10252 20169 39630 40120 80007 333 20171 58001;
0137832360999992006011718004-12150-045000FM-12+043999999V0202301N001510075019N0200001N1+03421+01611100751ADDGF105991051021008001001001MA1999999095901MD1999999-0021REMSYN070AAXX  17184 83236 32598 52303 10342 20161 39590 40075 85200 333 59002;
0168832360999992006011800004-12150-045000FM-12+043999999V0202701N001012200019N0200001N1+02511+01771100881ADDGF103991021021012501001061KA1240M+03491MA1999999096011MD1999999-0051REMSYN088AAXX  18004 83236 32698 32702 10251 20177 39601 40088 82206 333 10349 29056 55113 59005;
0156832360999992006011812004-12150-045000FM-12+043999999V0203601N001010450019N0200001N1+02691+01781101051ADDGF106991031021012501071051KA1240N+01881MA1999999096191MD1999999-0111REMSYN076AAXX  18124 83236 32698 63602 10269 20178 39619 40105 83275 333 20188 59011;
0168832360999992006011900004-12150-045000FM-12+043999999V0209999C000011050019N0200001N1+02601+01991100711ADDGF105991031021012501001031KA1240M+03431MA1999999095881MD1999999-0131REMSYN088AAXX  19004 83236 32698 50000 10260 20199 39588 40071 83203 333 10343 29058 55118 59013;
0156832360999992006011912004-12150-045000FM-12+043999999V0209999C000010450019N0200001N1+02741+01761100951ADDGF106991031021012501041071KA1240N+01931MA1999999096111MD1999999-0081REMSYN076AAXX  19124 83236 32698 60000 10274 20176 39611 40095 83247 333 20193 59008;
0137832360999992006011918004-12150-045000FM-12+043999999V0200501N001510450019N0200001N1+03261+01761100491ADDGF107991041021008001051071MA1999999095671MD1999999-0151REMSYN070AAXX  19184 83236 32598 70503 10326 20176 39567 40049 84257 333 59015;
0223832360999992006012000004-12150-045000FM-12+043999999V0209999C000012200019N0200001N1+02411+02211100601ADDAA106006191AY161061AY261061GA1001+999999999GF100991001001999999001001KA1240M+03431MA1999999095751MD1999999-0131MW1011REMSYN094AAXX  20004 83236 21998 00000 10241 20221 39575 40060 70166 333 10343 29068 55092 59013 60061;
0173832360999992006012012004-12150-045000FM-12+043999999V0200501N002611050019N0200001N1+02631+01881101051ADDAA124006191GF106991031021008001001071KA1240N+01971MA1999999096171MD1999999+0061REMSYN082AAXX  20124 83236 22598 60505 10263 20188 39617 40105 83207 333 20197 58006 60064;
0137832360999992006012018004-12150-045000FM-12+043999999V0201401N003610450019N0200001N1+03201+01631100631ADDGF107991021021008001041071MA1999999095791MD1999999+0121REMSYN070AAXX  20184 83236 32598 71407 10320 20163 39579 40063 82247 333 58012;
0178832360999992006012100004-12150-045000FM-12+043999999V0201801N001012200019N0200001N1+02271+01901100771ADDGA1001+999999999GF100991001001999999001001KA1240M+03341MA1999999095901MD1999999+0151REMSYN082AAXX  21004 83236 32998 01802 10227 20190 39590 40077 333 10334 29066 55080 58015;
0156832360999992006012112004-12150-045000FM-12+043999999V0201401N004612200019N0100001N1+02661+01771101231ADDGF104991021061008001031001KA1240N+02001MA1999999096341MD1999999+0171REMSYN076AAXX  21124 83236 32597 41409 10266 20177 39634 40123 82630 333 20200 58017;
0137832360999992006012118004-12150-045000FM-12+043999999V0200901N004610075019N0100001N1+03281+01581100701ADDGF105991051021008001001001MA1999999095881MD1999999+0091REMSYN070AAXX  21184 83236 32597 50909 10328 20158 39588 40070 85200 333 58009;
0168832360999992006012200004-12150-045000FM-12+043999999V0201801N001512200019N0100001N1+02551+01831100801ADDGF103991031011008001001001KA1240M+03391MA1999999095951MD1999999+0051REMSYN088AAXX  22004 83236 32597 31803 10255 20183 39595 40080 83100 333 10339 29056 55110 58005;
0156832360999992006012212004-12150-045000FM-12+043999999V0201801N003112200019N0200001N1+02731+01671101161ADDGF102991021001022501041001KA1240N+02121MA1999999096311MD1999999-0031REMSYN076AAXX  22124 83236 32898 21806 10273 20167 39631 40116 82040 333 20212 59003;
0137832360999992006012218004-12150-045000FM-12+043999999V0201801N003112200019N0200001N1+03421+01411100661ADDGF104991041011008001001001MA1999999095861MD1999999-0021REMSYN070AAXX  22184 83236 32598 41806 10342 20141 39586 40066 84100 333 59002;
0156832360999992006012312004-12150-045000FM-12+043999999V0209999C000012200019N0200001N1+02681+01841101131ADDGF103991031011008001001001KA1240N+01931MA1999999096261MD1999999-0051REMSYN076AAXX  23124 83236 32598 30000 10268 20184 39626 40113 83100 333 20193 59005;
0137832360999992006012318004-12150-045000FM-12+043999999V0200501N001012200019N0200001N1+03441+01481100571ADDGF104991041021008001001001MA1999999095761MD1999999-0101REMSYN070AAXX  23184 83236 32598 40502 10344 20148 39576 40057 84200 333 59010;
0178832360999992006012400004-12150-045000FM-12+043999999V0201801N001512200019N0200001N1+02621+01881100681ADDGA1001+999999999GF100991001001999999001001KA1240M+03621MA1999999095851MD1999999-0141REMSYN082AAXX  24004 83236 32998 01803 10262 20188 39585 40068 333 10362 29055 55120 59014;
0156832360999992006012412004-12150-045000FM-12+043999999V0209999C000012200019N0200001N1+02771+01851101031ADDGF102991011011008001041001KA1240N+02001MA1999999096191MD1999999-0071REMSYN076AAXX  24124 83236 32598 20000 10277 20185 39619 40103 81140 333 20200 59007;
0137832360999992006012418004-12150-045000FM-12+043999999V0203601N001512200019N0200001N1+03571+01651100491ADDGF104991041021008001001001MA1999999095701MD1999999-0061REMSYN070AAXX  24184 83236 32598 43603 10357 20165 39570 40049 84200 333 59006;
0196832360999992006012500004-12150-045000FM-12+043999999V0203601N003112200019N0200001N1+02671+01891100841ADDAY101061AY221061GF104991041071008001001001KA1240M+03731MA1999999096011MD1999999+0161MW1131REMSYN094AAXX  25004 83236 31598 43606 10267 20189 39601 40084 71302 84700 333 10373 29053 55105 58016;
0201832360999992006012512004-12150-045000FM-12+043999999V0201801N001010450019N0200001N1+02621+02071101241ADDAA124005191AY161061AY261061GF105991031041008001061001KA1240N+02131MA1999999096381MD1999999+0191MW1021REMSYN088AAXX  25124 83236 21598 51802 10262 20207 39638 40124 70266 83460 333 20213 58019 60054;
0137832360999992006012518004-12150-045000FM-12+043999999V0201801N002112200019N0200001N1+03481+01791100751ADDGF105991031021008001001081MA1999999095961MD1999999+0261REMSYN070AAXX  25184 83236 32598 51804 10348 20179 39596 40075 83208 333 58026;
0168832360999992006012600004-12150-045000FM-12+043999999V0209999C000010450019N0100001N1+02741+02261100921ADDGF105991031021008001041001KA1240M+03571MA1999999096091MD1999999+0081REMSYN088AAXX  26004 83236 32597 50000 10274 20226 39609 40092 83240 333 10357 29065 55099 58008;
0156832360999992006012612004-12150-045000FM-12+043999999V0209999C000011050019N0100001N1+02701+02011101131ADDGF106991011011008001041061KA1240N+02341MA1999999096291MD1999999-0091REMSYN076AAXX  26124 83236 32597 60000 10270 20201 39629 40113 81146 333 20234 59009;
0137832360999992006012618004-12150-045000FM-12+043999999V0203601N002111050019N0100001N1+03341+01751100731ADDGF107991021021008001001061MA1999999095951MD1999999-0011REMSYN070AAXX  26184 83236 32597 73604 10334 20175 39595 40073 82206 333 59001;
0168832360999992006012700004-12150-045000FM-12+043999999V0202701N001012200019N0100001N1+02531+02191100871ADDGF104991001001999999001061KA1240M+03531MA1999999096021MD1999999-0071REMSYN088AAXX  27004 83236 32997 42702 10253 20219 39602 40087 80006 333 10353 29067 55058 59007;
0156832360999992006012712004-12150-045000FM-12+043999999V0209999C000011050019N0100001N1+02671+01941101171ADDGF107991021061008001001061KA1240N+02111MA1999999096311MD1999999+0021REMSYN076AAXX  27124 83236 32597 70000 10267 20194 39631 40117 82606 333 20211 58002;
0137832360999992006012718004-12150-045000FM-12+043999999V0203601N000512200019N0100001N1+03571+01501100651ADDGF106991021021008001001061MA1999999095871MD1999999-0081REMSYN070AAXX  27184 83236 32597 63601 10357 20150 39587 40065 82206 333 59008;
0196832360999992006012800004-12150-045000FM-12+043999999V0209999C000012200019N0100001N1+02651+02071100891ADDAY121061AY221061GF105991031071008001001061KA1240M+03701MA1999999096051MD1999999+0031MW1131REMSYN094AAXX  28004 83236 31597 50000 10265 20207 39605 40089 71322 83706 333 10370 29058 55050 58003;
0156832360999992006012812004-12150-045000FM-12+043999999V0209999C000010075019N0100001N1+02591+02231101141ADDGF106991061051008001001001KA1240N+02321MA1999999096281MD1999999-0031REMSYN076AAXX  28124 83236 32597 60000 10259 20223 39628 40114 86500 333 20232 59003;
0137832360999992006012918004-12150-045000FM-12+043999999V0203601N002111050019N0200001N1+03621+01871100391ADDGF105991031021008001001051MA1999999095641MD1999999-0151REMSYN070AAXX  29184 83236 32598 53604 10362 20187 39564 40039 83205 333 59015;
0196832360999992006013000004-12150-045000FM-12+043999999V0209999C000010075019N0200001N1+02751+02121100551ADDAY121061AY221061GF105991051071008001001001KA1240M+03691MA1999999095761MD1999999-0141MW1131REMSYN094AAXX  30004 83236 31598 50000 10275 20212 39576 40055 71322 85700 333 10369 29058 55104 59014;
0201832360999992006013012004-12150-045000FM-12+043999999V0201801N001511050019N0100001N1+02331+02071101101ADDAA124041991AY191061AY261061GF107991041021008001001051KA1240N+02131MA1999999096231MD1999999+0151MW1021REMSYN088AAXX  30124 83236 21597 71803 10233 20207 39623 40110 70296 84205 333 20213 58015 60424;
0137832360999992006013018004-12150-045000FM-12+043999999V0203601N001012200019N0100001N1+03311+02021100591ADDGF106991031021008001001061MA1999999095781MD1999999+0141REMSYN070AAXX  30184 83236 32597 63602 10331 20202 39578 40059 83206 333 58014;
0168832360999992006013100004-12150-045000FM-12+043999999V0209999C000012200019N0100001N1+02651+02411100791ADDGF104991031021008001001051KA1240M+03431MA1999999095931MD1999999+0171REMSYN088AAXX  31004 83236 32597 40000 10265 20241 39593 40079 83205 333 10343 29076 55070 58017;
0156832360999992006013112004-12150-045000FM-12+043999999V0209999C000012200019N0100001N1+02551+02061101011ADDGF105991041021008001001041KA1240N+02161MA1999999096151MD1999999-0081REMSYN076AAXX  31124 83236 32597 50000 10255 20206 39615 40101 84204 333 20216 59008;
0137832360999992006013118004-12150-045000FM-12+043999999V0203601N001511050019N0200001N1+03351+01931100401ADDGF105991031031008001001031MA1999999095621MD1999999-0161REMSYN070AAXX  31184 83236 32598 53603 10335 20193 39562 40040 83303 333 59016;
0196832360999992006020100004-12150-045000FM-12+043999999V0202301N000510450019N0100001N1+02631+02251100691ADDAY121061AY221061GF107991041071008001021001KA1240M+03511MA1999999095851MD1999999-0081MW1131REMSYN094AAXX  01004 83236 31597 72301 10263 20225 39585 40069 71322 84720 333 10351 29069 55088 59008;
0201832360999992006020112004-12150-045000FM-12+043999999V0209999C000012200019N0200001N1+02501+02171100981ADDAA124004191AY161061AY261061GF104991011011008001061001KA1240N+02211MA1999999096121MD1999999-0031MW1021REMSYN088AAXX  01124 83236 21598 40000 10250 20217 39612 40098 70266 81160 333 20221 59003 60044;
0165832360999992006020118004-12150-045000FM-12+043999999V0203601N003111050019N0200001N1+03211+02111100491ADDAY101061AY291061GF106991041091008001001031MA1999999095681MD1999999+0061MW1151REMSYN076AAXX  01184 83236 31598 63606 10321 20211 39568 40049 71509 84903 333 58006;
0168832360999992006020200004-12150-045000FM-12+043999999V0202701N000510450019N0200001N1+02451+02231100711ADDGF106991031041008001021001KA1240M+03291MA1999999095851MD1999999+0001REMSYN088AAXX  02004 83236 32598 62701 10245 20223 39585 40071 83420 333 10329 29077 55070 58000;
0156832360999992006020212004-12150-045000FM-12+043999999V0203601N001010450019N0100001N1+02481+02191101061ADDGF108991041051008001021999KA1240N+02311MA1999999096171MD1999999+0051REMSYN076AAXX  02124 83236 32597 83602 10248 20219 39617 40106 8452/ 333 20231 58005;
0137832360999992006020218004-12150-045000FM-12+043999999V0209999C000010450019N0100001N1+02791+02151100791ADDGF108991021021008001021999MA1999999095941MD1999999+0261REMSYN070AAXX  02184 83236 32597 80000 10279 20215 39594 40079 8222/ 333 58026;
0168832360999992006020300004-12150-045000FM-12+043999999V0201801N001010210019N0100001N1+02521+02111100891ADDGF108991081001022501021999KA1240M+02851MA1999999096021MD1999999+0171REMSYN088AAXX  03004 83236 32897 81802 10252 20211 39602 40089 8802/ 333 10285 29077 55000 58017;
0156832360999992006020312004-12150-045000FM-12+043999999V0201801N002110450019N0100001N1+02561+02131101031ADDGF108991031021008001071999KA1240N+02271MA1999999096161MD1999999-0011REMSYN076AAXX  03124 83236 32597 81804 10256 20213 39616 40103 8327/ 333 20227 59001;
0165832360999992006020318004-12150-045000FM-12+043999999V0201801N002110450019N0100001N1+02751+02211100661ADDAY101061AY221061GF108991041071008001071999MA1999999095811MD1999999-0131MW1151REMSYN076AAXX  03184 83236 31597 81804 10275 20221 39581 40066 71502 8477/ 333 59013;
0168832360999992006020400004-12150-045000FM-12+043999999V0201801N001510075019N0100001N1+02391+02031100881ADDGF108991081001008001021999KA1240M+03111MA1999999096011MD1999999-0011REMSYN088AAXX  04004 83236 32597 81803 10239 20203 39601 40088 8802/ 333 10311 29077 55014 59001;
0165832360999992006020418004-12150-045000FM-12+043999999V0201801N002111050019N0100001N1+03241+01861100491ADDAY121061AY221061GF106991041031008001001031MA1999999095681MD1999999-0131MW1151REMSYN076AAXX  04184 83236 31597 61804 10324 20186 39568 40049 71522 84303 333 59013;
0168832360999992006020500004-12150-045000FM-12+043999999V0201801N000510075019N0100001N1+02381+02091100701ADDGF108991051071008001021999KA1240M+03351MA1999999095831MD1999999-0181REMSYN088AAXX  05004 83236 32597 81801 10238 20209 39583 40070 8572/ 333 10335 29072 55032 59018;
0184832360999992006020512004-12150-045000FM-12+043999999V0209999C000010075019N0100001N1+02411+02211101061ADDAY121061AY221061GF108991061051008001041999KA1240N+02291MA1999999096141MD1999999+0091MW1151REMSYN082AAXX  05124 83236 31597 80000 10241 20221 39614 40106 71522 8654/ 333 20229 58009;
0137832360999992006020518004-12150-045000FM-12+043999999V0209999C000010075019N0100001N1+02991+02041100641ADDGF107991051031008001051071MA1999999095801MD1999999+0121REMSYN070AAXX  05184 83236 32597 70000 10299 20204 39580 40064 85357 333 58012;
0168832360999992006020600004-12150-045000FM-12+043999999V0209999C000010075019N0100001N1+02531+02251100751ADDGF108991051031008001071999KA1240M+03131MA1999999095881MD1999999+0051REMSYN088AAXX  06004 83236 32597 80000 10253 20225 39588 40075 8537/ 333 10313 29079 55012 58005;
0201832360999992006020612004-12150-045000FM-12+043999999V0200501N001010075019N0100001N1+02421+02251101091ADDAA124007191AY161061AY251061GF108991061051008001071999KA1240N+02291MA1999999096201MD1999999+0041MW1151REMSYN088AAXX  06124 83236 21597 80502 10242 20225 39620 40109 71565 8657/ 333 20229 58004 60074;
0137832360999992006020618004-12150-045000FM-12+043999999V0203601N001510450019N0200001N1+03151+01871100571ADDGF105991031021008001051031MA1999999095761MD1999999-0041REMSYN070AAXX  06184 83236 32598 53603 10315 20187 39576 40057 83253 333 59004;
0168832360999992006020700004-12150-045000FM-12+043999999V0209999C000010450019N0200001N1+02661+02111100791ADDGF105991021011012501061051KA1240M+03251MA1999999095941MD1999999+0061REMSYN088AAXX  07004 83236 32698 50000 10266 20211 39594 40079 82165 333 10325 29070 55036 58006;
0156832360999992006020712004-12150-045000FM-12+043999999V0201801N001010450019N0200001N1+02471+02091101071ADDGF106991031021012501071051KA1240N+02231MA1999999096201MD1999999+0001REMSYN076AAXX  07124 83236 32698 61802 10247 20209 39620 40107 83275 333 20223 58000;
0137832360999992006020718004-12150-045000FM-12+043999999V0203601N003111050019N0200001N1+03091+02041100611ADDGF105991031021008001001031MA1999999095791MD1999999+0031REMSYN070AAXX  07184 83236 32598 53606 10309 20204 39579 40061 83203 333 58003;
0168832360999992006020800004-12150-045000FM-12+043999999V0202301N001012200019N0200001N1+02501+02171100841ADDGF104991001001999999001071KA1240M+03281MA1999999095971MD1999999+0031REMSYN088AAXX  08004 83236 32998 42302 10250 20217 39597 40084 80007 333 10328 29075 55076 58003;
0156832360999992006020812004-12150-045000FM-12+043999999V0209999C000011050019N0200001N1+02721+02151101071ADDGF105991021021012501061031KA1240N+02171MA1999999096211MD1999999+0011REMSYN076AAXX  08124 83236 32698 50000 10272 20215 39621 40107 82263 333 20217 58001;
0137832360999992006020818004-12150-045000FM-12+043999999V0200501N004110450019N0200001N1+03231+01801100581ADDGF107991041041008001071051MA1999999095771MD1999999-0021REMSYN070AAXX  08184 83236 32598 70508 10323 20180 39577 40058 84475 333 59002;
0196832360999992006020900004-12150-045000FM-12+043999999V0209999C000011050019N0200001N1+02561+02231100861ADDAY121061AY221061GF105991031051008001001071KA1240M+03491MA1999999096021MD1999999+0051MW1131REMSYN094AAXX  09004 83236 31598 50000 10256 20223 39602 40086 71322 83507 333 10349 29070 55079 58005;
0201832360999992006020912004-12150-045000FM-12+043999999V0202301N001012200019N0200001N1+02401+02051101291ADDAA124018091AY161061AY261061GF104991021021008001001031KA1240N+02001MA1999999096401MD1999999+0191MW1021REMSYN088AAXX  09124 83236 21598 42302 10240 20205 39640 40129 70266 82203 333 20200 58019 60184;
0165832360999992006020918004-12150-045000FM-12+043999999V0200501N007710075019N0100001N1+02791+02091100901ADDAY191061AY291061GF108991061051008001021999MA1999999096021MD1999999+0251MW1161REMSYN076AAXX  09184 83236 31597 80515 10279 20209 39602 40090 71699 8652/ 333 58025;
0213832360999992006021000004-12150-045000FM-12+043999999V0209999C000011050019N0200001N1+02391+02281100841ADDAA106001091AY121061AY221061GF105991021051008001001071KA1240M+03431MA1999999096051MD1999999+0031MW1131REMSYN100AAXX  10004 83236 21598 50000 10239 20228 39605 40084 71322 82507 333 10343 29084 55080 58003 60011;
0201832360999992006021012004-12150-045000FM-12+043999999V0209999C000010075019N0040001N1+02181+02131101291ADDAA124033091AY161061AY261061GF108991061071008001041999KA1240N+02121MA1999999096361MD1999999-0041MW1101REMSYN088AAXX  10124 83236 21596 80000 10218 20213 39636 40129 71066 8674/ 333 20212 59004 60334;
0165832360999992006021018004-12150-045000FM-12+043999999V0209999C000010075019N0100001N1+03181+02201100791ADDAY121061AY221061GF108991071051008001071999MA1999999095971MD1999999-0061MW1171REMSYN076AAXX  10184 83236 31597 80000 10318 20220 39597 40079 71722 8757/ 333 59006;
0196832360999992006021100004-12150-045000FM-12+043999999V0209999C000010075019N0040001N1+02601+02191101141ADDAY121061AY221061GF108991071051008001081999KA1240M+03231MA1999999096241MD1999999+0191MW1171REMSYN094AAXX  11004 83236 31596 80000 10260 20219 39624 40114 71722 8758/ 333 10323 29078 55052 58019;
0156832360999992006021112004-12150-045000FM-12+043999999V0200501N002610450019N0200001N1+02411+02111101291ADDGF106991031021008001051071KA1240N+02141MA1999999096401MD1999999+0041REMSYN076AAXX  11124 83236 32598 60505 10241 20211 39640 40129 83257 333 20214 58004;
0137832360999992006021118004-12150-045000FM-12+043999999V0202701N002610075019N0200001N1+02961+02211100741ADDGF108991061041008001081999MA1999999095911MD1999999-0061REMSYN070AAXX  11184 83236 32598 82705 10296 20221 39591 40074 8648/ 333 59006;
0196832360999992006021200004-12150-045000FM-12+043999999V0209999C000010075019N0100001N1+02491+02451100901ADDAY121061AY221061GF108991061051008001071999KA1240M+03211MA1999999096021MD1999999-0221MW1131REMSYN094AAXX  12004 83236 31597 80000 10249 20245 39602 40090 71322 8657/ 333 10321 29086 55065 59022;
0201832360999992006021212004-12150-045000FM-12+043999999V0202301N001010075019N0100001N1+02271+02071101191ADDAA124025991AY161061AY261061GF108991051021008001071999KA1240N+02001MA1999999096291MD1999999-0111MW1101REMSYN088AAXX  12124 83236 21597 82302 10227 20207 39629 40119 71066 8527/ 333 20200 59011 60264;
0137832360999992006021218004-12150-045000FM-12+043999999V0201401N001510450019N0200001N1+03111+02231100661ADDGF106991031041008001081051MA1999999095821MD1999999-0091REMSYN070AAXX  12184 83236 32598 61403 10311 20223 39582 40066 83485 333 59009;
0196832360999992006021300004-12150-045000FM-12+043999999V0209999C000010075019N0100001N1+02411+02131101121ADDAY121061AY221061GF108991051051008001081999KA1240M+03211MA1999999096211MD1999999+0191MW1131REMSYN094AAXX  13004 83236 31597 80000 10241 20213 39621 40112 71322 8558/ 333 10321 29080 55054 58019;
0201832360999992006021312004-12150-045000FM-12+043999999V0209999C000010075019N0040001N1+02271+02121101321ADDAA124005191AY161061AY261061GF108991061071008001021999KA1240N+02111MA1999999096401MD1999999+0111MW1101REMSYN088AAXX  13124 83236 21596 80000 10227 20212 39640 40132 71066 8672/ 333 20211 58011 60054;
0137832360999992006021318004-12150-045000FM-12+043999999V0209999C000010075019N0100001N1+02941+02031100831ADDGF108991051031008001071999MA1999999095971MD1999999+0151REMSYN070AAXX  13184 83236 32597 80000 10294 20203 39597 40083 8537/ 333 58015;
0196832360999992006021400004-12150-045000FM-12+043999999V0209999C000010450019N0200001N1+02421+02071100981ADDAY121061AY221061GF106991031051008001061081KA1240M+03041MA1999999096081MD1999999-0131MW1131REMSYN094AAXX  14004 83236 31598 60000 10242 20207 39608 40098 71322 83568 333 10304 29082 55031 59013;
0201832360999992006021412004-12150-045000FM-12+043999999V0209999C000010075019N0040001N1+02251+02161101241ADDAA124005191AY151061AY251061GF108991061051008001041999KA1240N+02121MA1999999096331MD1999999-0071MW1501REMSYN088AAXX  14124 83236 21596 80000 10225 20216 39633 40124 75055 8654/ 333 20212 59007 60054;
0217832360999992006021418004-12150-045000FM-12+043999999V0209999C000010450019N0200001N1+03111+99999101171ADDAA106000591AY151061AY251061GF106991031041008001071051MA1999999095921MD1999999-0051MW1031REMSYN082AAXX  14184 83236 21598 60000 10311 20021 39592 40117 70355 83475 333 59005 69941;EQDQ01+000213ATOD  Q02 +00213ATOD  
0168832360999992006021500004-12150-045000FM-12+043999999V0209999C000011050019N0200001N1+02471+02281100901ADDGF105991021021008001001071KA1240M+03241MA1999999096001MD1999999-0081REMSYN088AAXX  15004 83236 32598 50000 10247 20228 39600 40090 82207 333 10324 29083 55040 59008;
0173832360999992006021512004-12150-045000FM-12+043999999V0200501N001510075019N0040001N1+02451+02151101221ADDAA124000591GF108991061071008001041999KA1240N+02271MA1999999096331MD1999999+0001REMSYN082AAXX  15124 83236 22596 80503 10245 20215 39633 40122 8674/ 333 20227 58000 69944;
0137832360999992006021518004-12150-045000FM-12+043999999V0202701N001010450019N0200001N1+02961+02181100861ADDGF106991031031008001071051MA1999999096021MD1999999+0101REMSYN070AAXX  15184 83236 32598 62702 10296 20218 39602 40086 83375 333 58010;
0168832360999992006021600004-12150-045000FM-12+043999999V0209999C000019999999N0200001N1+02471+02271100971ADDGF105991001001999999001071KA1240M+03011MA1999999096091MD1999999+0091REMSYN088AAXX  16004 83236 32998 50000 10247 20227 39609 40097 80007 333 10301 29081 55030 58009;
0201832360999992006021612004-12150-045000FM-12+043999999V0202301N001510075019N0100001N1+02411+02151101211ADDAA124000591AY151061AY251061GF108991061041008001071999KA1240N+02141MA1999999096321MD1999999-0011MW1031REMSYN088AAXX  16124 83236 21597 82303 10241 20215 39632 40121 70355 8647/ 333 20214 59001 69954;
0165832360999992006021618004-12150-045000FM-12+043999999V0201801N004610450019N0200001N1+03041+02031100691ADDAY121061AY221061GF106991031051008001041051MA1999999095841MD1999999-0181MW1171REMSYN076AAXX  16184 83236 31598 61809 10304 20203 39584 40069 71722 83545 333 59018;
0168832360999992006021700004-12150-045000FM-12+043999999V0200501N001511050019N0200001N1+02391+02051100921ADDGF105991021021012501051071KA1240M+03221MA1999999096031MD1999999-0061REMSYN088AAXX  17004 83236 32698 50503 10239 20205 39603 40092 82257 333 10322 29076 55060 59006;
0156832360999992006021712004-12150-045000FM-12+043999999V0209999C000012200019N0200001N1+02471+02131101071ADDGF103991031021012501001001KA1240N+02031MA1999999096181MD1999999-0141REMSYN076AAXX  17124 83236 32698 30000 10247 20213 39618 40107 83200 333 20203 59014;
0137832360999992006021718004-12150-045000FM-12+043999999V0201801N002112200019N0200001N1+03141+01941100921ADDGF104991031021008001001071MA1999999095811MD1999999-0031REMSYN070AAXX  17184 83236 32598 41804 10314 20194 39581 40092 83207 333 59003;
0168832360999992006021800004-12150-045000FM-12+043999999V0209999C000012200019N0200001N1+02471+02151100811ADDGF102991021021012501001001KA1240M+03271MA1999999095941MD1999999-0091REMSYN088AAXX  18004 83236 32698 20000 10247 20215 39594 40081 82200 333 10327 29074 55110 59009;
0184832360999992006021812004-12150-045000FM-12+043999999V0200501N002610075019N0100001N1+02291+02071101281ADDAY121061AY221061GF108991071051008001081999KA1240N+02131MA1999999096371MD1999999+0191MW1151REMSYN082AAXX  18124 83236 31597 80505 10229 20207 39637 40128 71522 8758/ 333 20213 58019;
0137832360999992006021818004-12150-045000FM-12+043999999V0203601N001010450019N0200001N1+02871+02111100891ADDGF105991031021008001071051MA1999999096021MD1999999+0211REMSYN070AAXX  18184 83236 32598 53602 10287 20211 39602 40089 83275 333 58021;
0178832360999992006021900004-12150-045000FM-12+043999999V0209999C000012200019N0200001N1+02341+02151101011ADDGA1001+999999999GF100991001001999999001001KA1240M+02961MA1999999096101MD1999999+0161REMSYN082AAXX  19004 83236 32998 00000 10234 20215 39610 40101 333 10296 29082 55018 58016;
0201832360999992006021912004-12150-045000FM-12+043999999V0200501N001010075019N0040001N1+02261+02091101441ADDAA124003091AY151061AY251061GF108991061051008001041999KA1240N+02121MA1999999096501MD1999999+0131MW1151REMSYN088AAXX  19124 83236 21596 80502 10226 20209 39650 40144 71555 8654/ 333 20212 58013 60034;
0201832360999992006021918004-12150-045000FM-12+043999999V0200901N001510450019N0200001N1+02821+02201101041ADDAA106000091AY151061AY251061GF106991031031008001071051MA1999999096161MD1999999+0141MW1031REMSYN082AAXX  19184 83236 21598 60903 10282 20220 39616 40104 70355 83375 333 58014 69921;EQDQ01  00002PRCP06
0196832360999992006022000004-12150-045000FM-12+043999999V0209999C000012200019N0200001N1+02311+02131101131ADDAY121061AY221061GF104991041051008001001001KA1240M+02911MA1999999096211MD1999999+0111MW1131REMSYN094AAXX  20004 83236 31598 40000 10231 20213 39621 40113 71322 84500 333 10291 29085 55037 58011;
0192832360999992006022012004-12150-045000FM-12+043999999V0209999C000012200019N0200001N1+02521+02111101261ADDAA124000091GF104991011011008001061001KA1240N+02031MA1999999096351MD1999999-0151REMSYN082AAXX  20124 83236 22598 40000 10252 20211 39635 40126 81160 333 20203 59015 69924;EQDQ01  00002PRCP24
0165832360999992006022018004-12150-045000FM-12+043999999V0200901N002112200019N0200001N1+03111+02121100711ADDAY121061AY221061GF104991041021008001001001MA1999999095871MD1999999-0291MW1151REMSYN076AAXX  20184 83236 31598 40904 10311 20212 39587 40071 71522 84200 333 59029;
0196832360999992006022100004-12150-045000FM-12+043999999V0201801N001012200019N0100001N1+02281+02091100821ADDAY121061AY221061GF104991041071008001001001KA1240M+02291MA1999999095941MD1999999-0271MW1131REMSYN094AAXX  21004 83236 31597 41802 10228 20209 39594 40082 71322 84700 333 10229 29078 55073 59027;
0156832360999992006022112004-12150-045000FM-12+043999999V0203601N001011050019N0100001N1+02561+02081101051ADDGF105991011011008001041041KA1240N+02091MA1999999096151MD1999999-0201REMSYN076AAXX  21124 83236 32597 53602 10256 20208 39615 40105 81144 333 20209 59020;
0137832360999992006022118004-12150-045000FM-12+043999999V0200501N004112200019N0100001N1+03221+01981100541ADDGF105991031021008001001041MA1999999095721MD1999999-0151REMSYN070AAXX  21184 83236 32597 50508 10322 20198 39572 40054 83204 333 59015;
0168832360999992006022200004-12150-045000FM-12+043999999V0202701N000510450019N0100001N1+02481+02071100841ADDGF106991041071008001021001KA1240M+03281MA1999999095971MD1999999+0031REMSYN088AAXX  22004 83236 32597 62701 10248 20207 39597 40084 84720 333 10328 29070 55080 58003;
0201832360999992006022212004-12150-045000FM-12+043999999V0200901N000512200019N0100001N1+02461+02191101141ADDAA124000591AY151061AY251061GF106991041041008001001041KA1240N+02151MA1999999096251MD1999999+0101MW1021REMSYN088AAXX  22124 83236 21597 60901 10246 20219 39625 40114 70255 84404 333 20215 58010 69944;
0182832360999992006022218004-12150-045000FM-12+043999999V0202701N001511050019N0100001N1+02871+02051100641ADDAA106000391AY151061AY251061GF107991041021008001001061MA1999999095791MD1999999+0071MW1151REMSYN082AAXX  22184 83236 21597 72703 10287 20205 39579 40064 71555 84206 333 58007 69931;
0168832360999992006022300004-12150-045000FM-12+043999999V0209999C000010210019N0100001N1+02491+02251100821ADDGF105991051001022501021001KA1240M+03291MA1999999095951MD1999999-0021REMSYN088AAXX  23004 83236 32897 50000 10249 20225 39595 40082 85020 333 10329 29080 55051 59002;
0173832360999992006022312004-12150-045000FM-12+043999999V0209999C000011050019N0200001N1+02621+02121101091ADDAA124000391GF105991011011008001001051KA1240N+02161MA1999999096221MD1999999-0031REMSYN082AAXX  23124 83236 22598 50000 10262 20212 39622 40109 81105 333 20216 59003 69934;
0137832360999992006022318004-12150-045000FM-12+043999999V0203601N002611050019N0200001N1+03321+02041100501ADDGF105991031031008001001031MA1999999095701MD1999999-0091REMSYN070AAXX  23184 83236 32598 53605 10332 20204 39570 40050 83303 333 59009;
0196832360999992006022400004-12150-045000FM-12+043999999V0209999C000010450019N0100001N1+02561+02251100891ADDAY121061AY221061GF106991041071008001031001KA1240M+03391MA1999999096041MD1999999+0091MW1131REMSYN094AAXX  24004 83236 31597 60000 10256 20225 39604 40089 71322 84730 333 10339 29072 55085 58009;
0156832360999992006022412004-12150-045000FM-12+043999999V0203601N001010450019N0100001N1+02371+02011101281ADDGF107991041071008001071001KA1240N+02191MA1999999096351MD1999999+0131REMSYN076AAXX  24124 83236 32597 73602 10237 20201 39635 40128 84770 333 20219 58013;
0137832360999992006022418004-12150-045000FM-12+043999999V0200501N005112200019N0100001N1+02951+02051100701ADDGF105991031021008001001041MA1999999095861MD1999999+0161REMSYN070AAXX  24184 83236 32597 50510 10295 20205 39586 40070 83204 333 58016;
0168832360999992006022500004-12150-045000FM-12+043999999V0203601N001012200019N0100001N1+02511+02211100921ADDGF104991041021008001001001KA1240M+03031MA1999999096041MD1999999+0001REMSYN088AAXX  25004 83236 32597 43602 10251 20221 39604 40092 84200 333 10303 29076 55069 58000;
0156832360999992006022512004-12150-045000FM-12+043999999V0209999C000010210019N0100001N1+02541+02111101131ADDGF107991071001022501071001KA1240N+02131MA1999999096251MD1999999-0101REMSYN076AAXX  25124 83236 32897 70000 10254 20211 39625 40113 87070 333 20213 59010;
0156832360999992006022518004-12150-045000FM-12+043999999V0200501N002110450019N0100001N1+03221+01771100302ADDGF105991031021008001041041MA1999999095781MD1999999-0081REMSYN070AAXX  25184 83236 32597 50504 10322 20177 39578 40030 83244 333 59008;EQDQ01+100303APOSLP
0156832360999992006022612004-12150-045000FM-12+043999999V0209999C000012200019N0100001N1+02601+02291100981ADDGF106991041021008001001041KA1240N+02191MA1999999096131MD1999999-0121REMSYN076AAXX  26124 83236 32597 60000 10260 20229 39613 40098 84204 333 20219 59012;
0137832360999992006022618004-12150-045000FM-12+043999999V0203201N003612200019N0100001N1+03311+02171100461ADDGF106991031021008001001061MA1999999095671MD1999999-0111REMSYN070AAXX  26184 83236 32597 63207 10331 20217 39567 40046 83206 333 59011;
0156832360999992006022712004-12150-045000FM-12+043999999V0201801N001010450019N0100001N1+02771+02271101001ADDGF106991031021008001061001KA1240N+02251MA1999999096161MD1999999+0031REMSYN076AAXX  27124 83236 32597 61802 10277 20227 39616 40100 83260 333 20225 58003;
0137832360999992006022718004-12150-045000FM-12+043999999V0203201N001012200019N0100001N1+02711+02191100771ADDGF106991031021008001001061MA1999999095911MD1999999+0241REMSYN070AAXX  27184 83236 32597 63202 10271 20219 39591 40077 83206 333 58024;
0201832360999992006022812004-12150-045000FM-12+043999999V0202701N001510075019N0100001N1+02421+02251101201ADDAA124000591AY151061AY251061GF107991051051008001021001KA1240N+02181MA1999999096311MD1999999+0151MW1021REMSYN088AAXX  28124 83236 21597 72703 10242 20225 39631 40120 70255 85520 333 20218 58015 69954;
0137832360999992006022818004-12150-045000FM-12+043999999V0202301N001010450019N0100001N1+02841+02331100741ADDGF107991031021008001071001MA1999999095881MD1999999-0031REMSYN070AAXX  28184 83236 32597 72302 10284 20233 39588 40074 83270 333 59003;
0156832360999992006030112004-12150-045000FM-12+043999999V0203601N000510450019N0100001N1+02611+02231101261ADDGF106991041021008001081001KA1240N+02161MA1999999096381MD1999999+0071REMSYN076AAXX  01124 83236 32597 63601 10261 20223 39638 40126 84280 333 20216 58007;
0137832360999992006030118004-12150-045000FM-12+043999999V0203601N004112200019N0200001N1+03301+02021100661ADDGF105991031021008001001041MA1999999095851MD1999999-0031REMSYN070AAXX  01184 83236 32598 53608 10330 20202 39585 40066 83204 333 59003;
0168832360999992006030200004-12150-045000FM-12+043999999V0201801N001012200019N0200001N1+02501+02111100911ADDGF103991001001999999001041KA1240M+03381MA1999999096051MD1999999+0041REMSYN088AAXX  02004 83236 32998 31802 10250 20211 39605 40091 80004 333 10338 29071 55095 58004;
0137832360999992006030218004-12150-045000FM-12+043999999V0203601N002612200019N0200001N1+03461+01821100751ADDGF104991031021008001001041MA1999999095941MD1999999+0091REMSYN070AAXX  02184 83236 32598 43605 10346 20182 39594 40075 83204 333 58009;
0168832360999992006030300004-12150-045000FM-12+043999999V0201801N000512200019N0200001N1+02581+02041100851ADDGF103991011011008001001041KA1240M+03531MA1999999095991MD1999999-0061REMSYN088AAXX  03004 83236 32598 31801 10258 20204 39599 40085 81104 333 10353 29065 55104 59006;
0156832360999992006030312004-12150-045000FM-12+043999999V0201801N000510075019N0200001N1+02671+02091101251ADDGF105991051021008001001001KA1240N+02141MA1999999096381MD1999999-0041REMSYN076AAXX  03124 83236 32598 51801 10267 20209 39638 40125 85200 333 20214 59004;
0137832360999992006030318004-12150-045000FM-12+043999999V0209999C000012200019N0200001N1+03461+01691100671ADDGF104991041021008001001001MA1999999095871MD1999999-0071REMSYN070AAXX  03184 83236 32598 40000 10346 20169 39587 40067 84200 333 59007;
0168832360999992006030400004-12150-045000FM-12+043999999V0209999C000012200019N0200001N1+02651+02091100831ADDGF103991011011008001001041KA1240M+03571MA1999999095991MD1999999+0001REMSYN088AAXX  04004 83236 32598 30000 10265 20209 39599 40083 81104 333 10357 29062 55103 58000;
0156832360999992006030412004-12150-045000FM-12+043999999V0202301N000512200019N0200001N1+02811+02071101191ADDGF104991021011008001001081KA1240N+02191MA1999999096351MD1999999-0031REMSYN076AAXX  04124 83236 32598 42301 10281 20207 39635 40119 82108 333 20219 59003;
0137832360999992006030418004-12150-045000FM-12+043999999V0203601N001512200019N0200001N1+03451+01881100721ADDGF103991031011008001001001MA1999999095921MD1999999+0051REMSYN070AAXX  04184 83236 32598 33603 10345 20188 39592 40072 83100 333 58005;
0178832360999992006030500004-12150-045000FM-12+043999999V0209999C000012200019N0200001N1+02471+02031100941ADDGA1001+999999999GF100991001001999999001001KA1240M+03511MA1999999096101MD1999999+0111REMSYN082AAXX  05004 83236 32998 00000 10247 20203 39610 40094 333 10351 29064 55111 58011;
0156832360999992006030512004-12150-045000FM-12+043999999V0209999C000012200019N0200001N1+02581+02101101371ADDGF104991011011008001001051KA1240N+01961MA1999999096481MD1999999+0131REMSYN076AAXX  05124 83236 32598 40000 10258 20210 39648 40137 81105 333 20196 58013;
0137832360999992006030518004-12150-045000FM-12+043999999V0201801N001011050019N0200001N1+03491+01811100721ADDGF105991031021008001001051MA1999999095911MD1999999-0011REMSYN070AAXX  05184 83236 32598 51802 10349 20181 39591 40072 83205 333 59001;
0168832360999992006030600004-12150-045000FM-12+043999999V0203601N001012200019N0200001N1+02811+02061100901ADDGF104991041041008001001001KA1240M+03631MA1999999096071MD1999999-0031REMSYN088AAXX  06004 83236 32598 43602 10281 20206 39607 40090 84400 333 10363 29060 55087 59003;
0201832360999992006030612004-12150-045000FM-12+043999999V0200501N005110075019N0040001N1+02211+02121101311ADDAA124000021AY191061AY251061GF108991081071008001999999KA1240N+01901MA1999999096421MD1999999-0061MW1501REMSYN088AAXX  06124 83236 21596 80510 10221 20212 39642 40131 75095 887// 333 20190 59006 69924;
0182832360999992006030618004-12150-045000FM-12+043999999V0200501N002110450019N0100001N1+02651+02181100921ADDAA106006191AY161061AY261061GF107991041051008001021001MA1999999096041MD1999999+0131MW1021REMSYN082AAXX  06184 83236 21597 70504 10265 20218 39604 40092 70266 84520 333 58013 60061;
0168832360999992006030700004-12150-045000FM-12+043999999V0200501N000510450019N0100001N1+02421+02251101111ADDGF107991031051008001051001KA1240M+02851MA1999999096191MD1999999+0121REMSYN088AAXX  07004 83236 32597 70501 10242 20225 39619 40111 83550 333 10285 29088 55011 58012;
0173832360999992006030712004-12150-045000FM-12+043999999V0201401N001010450019N0200001N1+02571+02191101121ADDAA124007191GF106991031021008001061031KA1240N+02001MA1999999096241MD1999999-0181REMSYN082AAXX  07124 83236 22598 61402 10257 20219 39624 40112 83263 333 20200 59018 60074;
0182832360999992006030718004-12150-045000FM-12+043999999V0201401N003611050019N0200001N1+02591+02211100591ADDAA106000591AY151061AY251061GF106991021051008001001051MA1999999095721MD1999999-0321MW1131REMSYN082AAXX  07184 83236 21598 61407 10259 20221 39572 40059 71355 82505 333 59032 69961;
0213832360999992006030800004-12150-045000FM-12+043999999V0201801N001510075019N0040001N1+02181+02101101091ADDAA106031091AY161061AY261061GF108991071061008001021999KA1240M+03271MA1999999096181MD1999999-0011MW1611REMSYN100AAXX  08004 83236 21596 81803 10218 20210 39618 40109 76166 8762/ 333 10327 29088 55051 59001 60311;
0201832360999992006030812004-12150-045000FM-12+043999999V0202701N001510120019N0040001N1+02321+02151101191ADDAA124070191AY161061AY251061GF108991071081008001041999KA1240N+02021MA1999999096261MD1999999+0021MW1101REMSYN088AAXX  08124 83236 21596 82703 10232 20215 39626 40119 71065 8784/ 333 20202 58002 60704;
0165832360999992006030818004-12150-045000FM-12+043999999V0203601N002610075019N0100001N1+02951+02161100541ADDAY121061AY221061GF107991051051008001071051MA1999999095701MD1999999-0021MW1171REMSYN076AAXX  08184 83236 31597 73605 10295 20216 39570 40054 71722 85575 333 59002;
0213832360999992006030900004-12150-045000FM-12+043999999V0209999C000010075019N0040001N1+02281+02181101011ADDAA106007991AY151061AY251061GF108991081061008001999999KA1240M+03101MA1999999096101MD1999999-0081MW1511REMSYN100AAXX  09004 83236 21596 80000 10228 20218 39610 40101 75155 886// 333 10310 29085 55032 59008 60081;
0201832360999992006030912004-12150-045000FM-12+043999999V0202301N001510450019N0100001N1+02501+02171101031ADDAA124011991AY151061AY251061GF107991041021008001061051KA1240N+02141MA1999999096141MD1999999-0121MW1031REMSYN088AAXX  09124 83236 21597 72303 10250 20217 39614 40103 70355 84265 333 20214 59012 60124;
0182832360999992006030918004-12150-045000FM-12+043999999V0201801N001510075019N0100001N1+02461+02271100721ADDAA106007191AY161061AY251061GF107991051061008001081051MA1999999095831MD1999999+0131MW1151REMSYN082AAXX  09184 83236 21597 71803 10246 20227 39583 40072 71565 85685 333 58013 60071;
0168832360999992006031000004-12150-045000FM-12+043999999V0209999C000010075019N0040001N1+02411+02311100951ADDGF108991061021008001081999KA1240M+02841MA1999999096071MD1999999-0031REMSYN088AAXX  10004 83236 32596 80000 10241 20231 39607 40095 8628/ 333 10284 29090 55028 59003;
0201832360999992006031012004-12150-045000FM-12+043999999V0203601N001510450019N0100001N1+02571+02131101071ADDAA124007191AY151061AY251061GF107991041021008001071051KA1240N+02091MA1999999096191MD1999999+0051MW1031REMSYN088AAXX  10124 83236 21597 73603 10257 20213 39619 40107 70355 84275 333 20209 58005 60074;
0201832360999992006031018004-12150-045000FM-12+043999999V0209999C000010075019N0100001N1+02581+02171100661ADDAA106000091AY151061AY251061GF108991051051008001041999MA1999999095791MD1999999-0041MW1171REMSYN082AAXX  10184 83236 21597 80000 10258 20217 39579 40066 71755 8554/ 333 59004 69921;EQDQ01  00002PRCP06
0168832360999992006031100004-12150-045000FM-12+043999999V0209999C000010075019N0100001N1+02401+02301100951ADDGF108991061021008001071999KA1240M+03071MA1999999096071MD1999999+0001REMSYN088AAXX  11004 83236 32597 80000 10240 20230 39607 40095 8627/ 333 10307 29086 55062 58000;
0173832360999992006031112004-12150-045000FM-12+043999999V0200501N002110075019N0100001N1+02411+02231101101ADDAA124000391GF108991051041008001071999KA1240N+02191MA1999999096201MD1999999+0011REMSYN082AAXX  11124 83236 22597 80504 10241 20223 39620 40110 8547/ 333 20219 58001 69934;
0182832360999992006031118004-12150-045000FM-12+043999999V0209999C000010075019N0100001N1+02491+02321100771ADDAA106007991AY161061AY261061GF108991061051008001041999MA1999999095881MD1999999+0091MW1171REMSYN082AAXX  11184 83236 21597 80000 10249 20232 39588 40077 71766 8654/ 333 58009 60081;
0213832360999992006031200004-12150-045000FM-12+043999999V0200501N003610075019N0040001N1+02341+02201101161ADDAA106002091AY151061AY251061GF108991061051008001021999KA1240M+02661MA1999999096221MD1999999+0151MW1161REMSYN100AAXX  12004 83236 21596 80507 10234 20220 39622 40116 71655 8652/ 333 10266 29091 55001 58015 60021;
0201832360999992006031212004-12150-045000FM-12+043999999V0200501N001010120019N0040001N1+02411+02151101241ADDAA124014091AY151061AY251061GF108991051081008001041999KA1240N+02061MA1999999096331MD1999999+0131MW1031REMSYN088AAXX  12124 83236 21596 80502 10241 20215 39633 40124 70355 8584/ 333 20206 58013 60144;
0137832360999992006031218004-12150-045000FM-12+043999999V0202301N001010450019N0200001N1+03041+02181100591ADDGF106991031031008001061071MA1999999095751MD1999999-0131REMSYN070AAXX  12184 83236 32598 62302 10304 20218 39575 40059 83367 333 59013;
0196832360999992006031300004-12150-045000FM-12+043999999V0209999C000010450019N0200001N1+02491+02251100881ADDAY121061AY221061GF106991031051008001061051KA1240M+03091MA1999999096001MD1999999-0221MW1131REMSYN094AAXX  13004 83236 31598 60000 10249 20225 39600 40088 71322 83565 333 10309 29080 55056 59022;
0156832360999992006031312004-12150-045000FM-12+043999999V0202301N001510450019N0200001N1+02561+02211101031ADDGF106991021021008001061071KA1240N+02131MA1999999096151MD1999999-0181REMSYN076AAXX  13124 83236 32598 62303 10256 20221 39615 40103 82267 333 20213 59018;
0165832360999992006031318004-12150-045000FM-12+043999999V0202301N001010075019N0100001N1+02751+02241100601ADDAY121061AY221061GF108991051051008001071999MA1999999095771MD1999999+0021MW1131REMSYN076AAXX  13184 83236 31597 82302 10275 20224 39577 40060 71322 8557/ 333 58002;
0232832360999992006031400004-12150-045000FM-12+043999999V0209999C000010120019N0040001N1+02421+02231101031ADDAA106000091AY151061AY251061GF108991051081008001041999KA1240M+03001MA1999999096151MD1999999+0151MW1031REMSYN100AAXX  14004 83236 21596 80000 10242 20223 39615 40103 70355 8584/ 333 10300 29083 55022 58015 69921;EQDQ01  00002PRCP06
0201832360999992006031412004-12150-045000FM-12+043999999V0209999C000010075019N0040001N1+02181+02081101371ADDAA124009991AY161061AY251061GF108991061061008001021999KA1240N+02041MA1999999096421MD1999999+0271MW1511REMSYN088AAXX  14124 83236 21596 80000 10218 20208 39642 40137 75165 8662/ 333 20204 58027 60104;
0182832360999992006031418004-12150-045000FM-12+043999999V0209999C000010450019N0100001N1+02911+02041100701ADDAA106002091AY151061AY251061GF107991041031008001051071MA1999999095861MD1999999+0091MW1021REMSYN082AAXX  14184 83236 21597 70000 10291 20204 39586 40070 70255 84357 333 58009 60021;
0168832360999992006031500004-12150-045000FM-12+043999999V0200501N003610075019N0100001N1+02471+02171101051ADDGF108991061021008001081999KA1240M+03061MA1999999096131MD1999999+0021REMSYN088AAXX  15004 83236 32597 80507 10247 20217 39613 40105 8628/ 333 10306 29080 55058 58002;
0201832360999992006031512004-12150-045000FM-12+043999999V0209999C000010075019N0100001N1+02411+02111101221ADDAA124002091AY151061AY251061GF107991051021008001071051KA1240N+02061MA1999999096331MD1999999-0091MW1101REMSYN088AAXX  15124 83236 21597 70000 10241 20211 39633 40122 71055 85275 333 20206 59009 60024;
0137832360999992006031518004-12150-045000FM-12+043999999V0203601N002610450019N0100001N1+03051+02201100701ADDGF107991041021008001051061MA1999999095871MD1999999+0011REMSYN070AAXX  15184 83236 32597 73605 10305 20220 39587 40070 84256 333 58001;
0201832360999992006031612004-12150-045000FM-12+043999999V0209999C000010450019N0100001N1+02481+02211101261ADDAA124003091AY161061AY251061GF107991041021008001051071KA1240N+02041MA1999999096361MD1999999+0031MW1021REMSYN088AAXX  16124 83236 21597 70000 10248 20221 39636 40126 70265 84257 333 20204 58003 60034;
0165832360999992006031618004-12150-045000FM-12+043999999V0201401N003110075019N0100001N1+02691+02261100851ADDAY121061AY221061GF108991051051008001071999MA1999999095891MD1999999+0111MW1151REMSYN076AAXX  16184 83236 31597 81406 10269 20226 39589 40085 71522 8557/ 333 58011;
0168832360999992006031700004-12150-045000FM-12+043999999V0202301N001010450019N0100001N1+02401+02211100931ADDGF107991031021008001061051KA1240M+02911MA1999999096051MD1999999-0031REMSYN088AAXX  17004 83236 32597 72302 10240 20221 39605 40093 83265 333 10291 29085 55028 59003;
0156832360999992006031712004-12150-045000FM-12+043999999V0202301N001010450019N0200001N1+02551+02171101041ADDGF106991031021008001061071KA1240N+02091MA1999999096151MD1999999-0211REMSYN076AAXX  17124 83236 32598 62302 10255 20217 39615 40104 83267 333 20209 59021;
0165832360999992006031718004-12150-045000FM-12+043999999V0201401N001510075019N0100001N1+02831+02351100601ADDAY121061AY221061GF107991051051008001041051MA1999999095751MD1999999-0231MW1151REMSYN076AAXX  17184 83236 31597 71403 10283 20235 39575 40060 71522 85545 333 59023;
0196832360999992006031800004-12150-045000FM-12+043999999V0209999C000010075019N0100001N1+02501+02321100941ADDAY121061AY221061GF108991061051008001041999KA1240M+03131MA1999999096071MD1999999+0021MW1131REMSYN094AAXX  18004 83236 31597 80000 10250 20232 39607 40094 71322 8654/ 333 10313 29084 55057 58002;
0173832360999992006031812004-12150-045000FM-12+043999999V0202301N002110075019N0200001N1+02481+02171101061ADDAA124000591GF108991051021008001071999KA1240N+02101MA1999999096181MD1999999+0031REMSYN082AAXX  18124 83236 22598 82304 10248 20217 39618 40106 8527/ 333 20210 58003 69954;
0137832360999992006031818004-12150-045000FM-12+043999999V0203601N001510450019N0200001N1+02941+02291100631ADDGF106991041041008001071051MA1999999095801MD1999999+0051REMSYN070AAXX  18184 83236 32598 63603 10294 20229 39580 40063 84475 333 58005;
0196832360999992006031900004-12150-045000FM-12+043999999V0209999C000010450019N0200001N1+02341+02201100911ADDAY121061AY221061GF106991031051008001061051KA1240M+03031MA1999999096021MD1999999-0051MW1131REMSYN094AAXX  19004 83236 31598 60000 10234 20220 39602 40091 71322 83565 333 10303 29084 55024 59005;
0156832360999992006031912004-12150-045000FM-12+043999999V0200501N001511050019N0200001N1+02591+02041101131ADDGF105991021021008001001071KA1240N+02041MA1999999096241MD1999999+0061REMSYN076AAXX  19124 83236 32598 50503 10259 20204 39624 40113 82207 333 20204 58006;
0137832360999992006031918004-12150-045000FM-12+043999999V0200501N002610450019N0100001N1+02951+02111100701ADDGF107991041031008001071051MA1999999095861MD1999999+0061REMSYN070AAXX  19184 83236 32597 70505 10295 20211 39586 40070 84375 333 58006;
0168832360999992006032000004-12150-045000FM-12+043999999V0209999C000010450019N0200001N1+02481+02251100951ADDGF106991031021008001051071KA1240M+03111MA1999999096091MD1999999+0071REMSYN088AAXX  20004 83236 32598 60000 10248 20225 39609 40095 83257 333 10311 29077 55075 58007;
0137832360999992006032018004-12150-045000FM-12+043999999V0203601N003111050019N0200001N1+03101+02091100751ADDGF105991041021008001001071MA1999999095931MD1999999+0071REMSYN070AAXX  20184 83236 32598 53606 10310 20209 39593 40075 84207 333 58007;
0213832360999992006032100004-12150-045000FM-12+043999999V0209999C000012200019N0200001N1+02241+02161101051ADDAA106001091AY151061AY251061GF104991021021008001061001KA1240M+03161MA1999999096161MD1999999+0071MW1021REMSYN100AAXX  21004 83236 21598 40000 10224 20216 39616 40105 70255 82260 333 10316 29080 55103 58007 60011;
0173832360999992006032112004-12150-045000FM-12+043999999V0209999C000011050019N0200001N1+02611+02121101151ADDAA124001091GF105991021021012501061031KA1240N+01921MA1999999096251MD1999999-0041REMSYN082AAXX  21124 83236 22698 50000 10261 20212 39625 40115 82263 333 20192 59004 60014;
0137832360999992006032118004-12150-045000FM-12+043999999V0203601N002610450019N0200001N1+03131+02081100821ADDGF106991041021008001061071MA1999999095971MD1999999+0041REMSYN070AAXX  21184 83236 32598 63605 10313 20208 39597 40082 84267 333 58004;
0178832360999992006032200004-12150-045000FM-12+043999999V0202701N001512200019N0200001N1+02411+01971100941ADDGA1001+999999999GF100991001001999999001001KA1240M+03201MA1999999096071MD1999999-0091REMSYN082AAXX  22004 83236 32998 02703 10241 20197 39607 40094 333 10320 29070 55110 59009;
0156832360999992006032212004-12150-045000FM-12+043999999V0209999C000012200019N0200001N1+02551+01971101181ADDGF103991001001999999001081KA1240N+02011MA1999999096301MD1999999+0051REMSYN076AAXX  22124 83236 32998 30000 10255 20197 39630 40118 80008 333 20201 58005;
0137832360999992006032218004-12150-045000FM-12+043999999V0203601N002111050019N0200001N1+03141+02041100801ADDGF106991041031008001001021MA1999999095971MD1999999+0001REMSYN070AAXX  22184 83236 32598 63604 10314 20204 39597 40080 84302 333 58000;
0168832360999992006032300004-12150-045000FM-12+043999999V0209999C000012200019N0200001N1+02431+02131101001ADDGF104991041021008001001001KA1240M+03231MA1999999096131MD1999999+0061REMSYN088AAXX  23004 83236 32598 40000 10243 20213 39613 40100 84200 333 10323 29072 55106 58006;
0156832360999992006032312004-12150-045000FM-12+043999999V0209999C000012200019N0200001N1+02541+02151101291ADDGF103991031011008001001001KA1240N+01901MA1999999096401MD1999999+0101REMSYN076AAXX  23124 83236 32598 30000 10254 20215 39640 40129 83100 333 20190 58010;
0137832360999992006032318004-12150-045000FM-12+043999999V0203601N002110075019N0200001N1+03121+02081100831ADDGF105991051021008001001001MA1999999095991MD1999999+0021REMSYN070AAXX  23184 83236 32598 53604 10312 20208 39599 40083 85200 333 58002;
0178832360999992006032400004-12150-045000FM-12+043999999V0209999C000012200019N0500001N1+02371+01971100931ADDGA1001+999999999GF100991001001999999001001KA1240M+03181MA1999999096051MD1999999-0081REMSYN082AAXX  24004 83236 32999 00000 10237 20197 39605 40093 333 10318 29072 55095 59008;
0156832360999992006032412004-12150-045000FM-12+043999999V0209999C000012200019N0500001N1+02451+01901101291ADDGF103991011001022501041081KA1240N+01781MA1999999096381MD1999999-0021REMSYN076AAXX  24124 83236 32899 30000 10245 20190 39638 40129 81048 333 20178 59002;
0137832360999992006032418004-12150-045000FM-12+043999999V0200501N001012200019N0200001N1+03161+01751100861ADDGF104991031021008001041001MA1999999096011MD1999999+0021REMSYN070AAXX  24184 83236 32598 40502 10316 20175 39601 40086 83240 333 58002;
0178832360999992006032500004-12150-045000FM-12+043999999V0209999C000012200019N0200001N1+02381+02071100981ADDGA1001+999999999GF100991001001999999001001KA1240M+03231MA1999999096091MD1999999+0041REMSYN082AAXX  25004 83236 32998 00000 10238 20207 39609 40098 333 10323 29070 55107 58004;
0201832360999992006032512004-12150-045000FM-12+043999999V0202301N001510075019N0100001N1+02281+02161101411ADDAA124001091AY161061AY261061GF107991071051008001001001KA1240N+02001MA1999999096491MD1999999+0111MW1151REMSYN088AAXX  25124 83236 21597 72303 10228 20216 39649 40141 71566 87500 333 20200 58011 60014;
0137832360999992006032518004-12150-045000FM-12+043999999V0201401N001512200019N0200001N1+03131+02041100841ADDGF106991031021008001001041MA1999999095991MD1999999-0021REMSYN070AAXX  25184 83236 32598 61403 10313 20204 39599 40084 83204 333 59002;
0168832360999992006032600004-12150-045000FM-12+043999999V0202301N001012200019N0200001N1+02461+02071100991ADDGF102991021011008001001001KA1240M+03251MA1999999096141MD1999999+0051REMSYN088AAXX  26004 83236 32598 22302 10246 20207 39614 40099 82100 333 10325 29080 55081 58005;
0156832360999992006032612004-12150-045000FM-12+043999999V0200501N003112200019N0200001N1+02661+02201101241ADDGF105991011011008001001061KA1240N+01981MA1999999096361MD1999999-0131REMSYN076AAXX  26124 83236 32598 50506 10266 20220 39636 40124 81106 333 20198 59013;
0137832360999992006032618004-12150-045000FM-12+043999999V0200501N002112200019N0200001N1+03141+02071100711ADDGF106991021021008001001061MA1999999095881MD1999999-0111REMSYN070AAXX  26184 83236 32598 60504 10314 20207 39588 40071 82206 333 59011;
0168832360999992006032700004-12150-045000FM-12+043999999V0209999C000012200019N0200001N1+02461+02071101001ADDGF104991001001999999001061KA1240M+03261MA1999999096141MD1999999+0001REMSYN088AAXX  27004 83236 32998 40000 10246 20207 39614 40100 80006 333 10326 29072 55066 58000;
0156832360999992006032712004-12150-045000FM-12+043999999V0209999C000012200019N0200001N1+02641+02161101361ADDGF106991041021008001001041KA1240N+01981MA1999999096481MD1999999+0121REMSYN076AAXX  27124 83236 32598 60000 10264 20216 39648 40136 84204 333 20198 58012;
0137832360999992006032718004-12150-045000FM-12+043999999V0203601N003610450019N0100001N1+02661+02201100941ADDGF108991041021008001071999MA1999999096051MD1999999+0171REMSYN070AAXX  27184 83236 32597 83607 10266 20220 39605 40094 8427/ 333 58017;
0196832360999992006032800004-12150-045000FM-12+043999999V0201801N000510075019N0100001N1+02511+02251101211ADDAY121061AY221061GF108991051071008001021999KA1240M+03111MA1999999096351MD1999999+0211MW1131REMSYN094AAXX  28004 83236 31597 81801 10251 20225 39635 40121 71322 8572/ 333 10311 29080 55045 58021;
0156832360999992006032812004-12150-045000FM-12+043999999V0201801N001512200019N0200001N1+02581+02211101221ADDGF104991011011008001061041KA1240N+02001MA1999999096341MD1999999-0141REMSYN076AAXX  28124 83236 32598 41803 10258 20221 39634 40122 81164 333 20200 59014;
0137832360999992006032818004-12150-045000FM-12+043999999V0201801N001011050019N0200001N1+03251+02111100601ADDGF106991031021008001001051MA1999999095791MD1999999-0261REMSYN070AAXX  28184 83236 32598 61802 10325 20211 39579 40060 83205 333 59026;
0213832360999992006032900004-12150-045000FM-12+043999999V0209999C000010075019N0040001N1+02401+02241101001ADDAA106006191AY191061AY261061GF108991051071008001021999KA1240M+03341MA1999999096131MD1999999-0221MW1131REMSYN100AAXX  29004 83236 21596 80000 10240 20224 39613 40100 71396 8572/ 333 10334 29078 55085 59022 60061;
0201832360999992006032912004-12150-045000FM-12+043999999V0200901N000510450019N0200001N1+02501+02131101181ADDAA124032091AY161061AY261061GF107991021011008001061071KA1240N+01961MA1999999096291MD1999999-0051MW1021REMSYN088AAXX  29124 83236 21598 70901 10250 20213 39629 40118 70266 82167 333 20196 59005 60324;
0213832360999992006033000004-12150-045000FM-12+043999999V0201801N000510210019N0040001N1+02191+02151101141ADDAA106022191AY161061AY261061GF108991081001022501021999KA1240M+03031MA1999999096231MD1999999+0101MW1601REMSYN100AAXX  30004 83236 21896 81801 10219 20215 39623 40114 76066 8802/ 333 10303 29092 55046 58010 60221;
0201832360999992006033012004-12150-045000FM-12+043999999V0200501N001010075019N0100001N1+02461+02171101281ADDAA124062091AY161061AY261061GF108991061051008001021999KA1240N+02001MA1999999096351MD1999999+0061MW1021REMSYN088AAXX  30124 83236 21597 80502 10246 20217 39635 40128 70266 8652/ 333 20200 58006 60624;
0182832360999992006033018004-12150-045000FM-12+043999999V0200501N002610450019N0100001N1+02471+02251100801ADDAA106005191AY161061AY261061GF106991041031008001041031MA1999999095911MD1999999+0131MW1151REMSYN082AAXX  30184 83236 21597 60505 10247 20225 39591 40080 71566 84343 333 58013 60051;
0196832360999992006033100004-12150-045000FM-12+043999999V0203601N001510075019N0040001N1+02411+02261101061ADDAY121061AY221061GF108991061071008001021999KA1240M+02871MA1999999096171MD1999999-0061MW1131REMSYN094AAXX  31004 83236 31596 83603 10241 20226 39617 40106 71322 8672/ 333 10287 29088 55029 59006;
0201832360999992006033112004-12150-045000FM-12+043999999V0209999C000010075019N0040001N1+02421+02251101281ADDAA124034091AY161061AY261061GF108991081051008001999999KA1240N+02021MA1999999096371MD1999999+0021MW1401REMSYN088AAXX  31124 83236 21596 80000 10242 20225 39637 40128 74066 885// 333 20202 58002 60344;
0165832360999992006033118004-12150-045000FM-12+043999999V0202701N002110075019N0100001N1+02731+02241100811ADDAY101061AY291061GF106991051091008001001031MA1999999095941MD1999999+0031MW1151REMSYN076AAXX  31184 83236 31597 62704 10273 20224 39594 40081 71509 85903 333 58003;
0232832360999992006040100004-12150-045000FM-12+043999999V0209999C000010075019N0040001N1+02351+02281101081ADDAA106000091AY151061AY251061GF108991081051008001999999KA1240M+02951MA1999999096181MD1999999+0091MW1021REMSYN100AAXX  01004 83236 21596 80000 10235 20228 39618 40108 70255 885// 333 10295 29090 55026 58009 69921;EQDQ01  00002PRCP06
0201832360999992006040112004-12150-045000FM-12+043999999V0209999C000010075019N0100001N1+02361+02191101351ADDAA124000891AY151061AY251061GF108991051051008001021999KA1240N+02021MA1999999096431MD1999999+0061MW1021REMSYN088AAXX  01124 83236 21597 80000 10236 20219 39643 40135 70255 8552/ 333 20202 58006 69974;
0165832360999992006040118004-12150-045000FM-12+043999999V0200901N002110450019N0100001N1+02781+02321100801ADDAY121061AY221061GF107991041021008001071001MA1999999095941MD1999999+0001MW1151REMSYN076AAXX  01184 83236 31597 70904 10278 20232 39594 40080 71522 84270 333 58000;
0168832360999992006040200004-12150-045000FM-12+043999999V0201801N001010450019N0100001N1+02431+02231101161ADDGF107991021021008001021001KA1240M+02971MA1999999096261MD1999999+0081REMSYN088AAXX  02004 83236 32597 71802 10243 20223 39626 40116 82220 333 10297 29086 55054 58008;
0201832360999992006040212004-12150-045000FM-12+043999999V0203601N002110450019N0100001N1+02261+02071101351ADDAA124004191AY161061AY261061GF107991041041008001011051KA1240N+02091MA1999999096431MD1999999+0001MW1021REMSYN088AAXX  02124 83236 21597 73604 10226 20207 39643 40135 70266 84415 333 20209 58000 60044;
0137832360999992006040218004-12150-045000FM-12+043999999V0203601N001012200019N0100001N1+02771+02161100871ADDGF105991031021008001001061MA1999999095991MD1999999+0051REMSYN070AAXX  02184 83236 32597 53602 10277 20216 39599 40087 83206 333 58005;
0168832360999992006040300004-12150-045000FM-12+043999999V0209999C000010450019N0100001N1+02431+02211101171ADDGF107991041021008001021001KA1240M+02861MA1999999096261MD1999999+0001REMSYN088AAXX  03004 83236 32597 70000 10243 20221 39626 40117 84220 333 10286 29083 55037 58000;
0156832360999992006040312004-12150-045000FM-12+043999999V0209999C000010450019N0100001N1+02601+02121101291ADDGF106991031021008001081001KA1240N+02001MA1999999096401MD1999999-0031REMSYN076AAXX  03124 83236 32597 60000 10260 20212 39640 40129 83280 333 20200 59003;
0165832360999992006040318004-12150-045000FM-12+043999999V0201801N002111050019N0100001N1+02861+02191100801ADDAY101061AY291061GF105991031031008001001031MA1999999095941MD1999999-0051MW1151REMSYN076AAXX  03184 83236 31597 51804 10286 20219 39594 40080 71509 83303 333 59005;
0168832360999992006040400004-12150-045000FM-12+043999999V0209999C000012200019N0100001N1+02471+02291100991ADDGF104991031021008001061001KA1240M+03011MA1999999096131MD1999999-0131REMSYN088AAXX  04004 83236 32597 40000 10247 20229 39613 40099 83260 333 10301 29080 55065 59013;
0156832360999992006040412004-12150-045000FM-12+043999999V0203601N001010450019N0100001N1+02601+02141101161ADDGF105991031021008001041001KA1240N+02171MA1999999096311MD1999999-0091REMSYN076AAXX  04124 83236 32597 53602 10260 20214 39631 40116 83240 333 20217 59009;
0182832360999992006040418004-12150-045000FM-12+043999999V0200901N002110450019N0100001N1+02891+02301100771ADDAA106003091AY101061AY291061GF107991041091008001041031MA1999999095921MD1999999-0021MW1151REMSYN082AAXX  04184 83236 21597 70904 10289 20230 39592 40077 71509 84943 333 59002 60031;
0196832360999992006040500004-12150-045000FM-12+043999999V0209999C000010075019N0100001N1+02451+02361101071ADDAY121061AY221061GF108991051071008001021999KA1240M+02991MA1999999096191MD1999999+0061MW1131REMSYN094AAXX  05004 83236 31597 80000 10245 20236 39619 40107 71322 8572/ 333 10299 29083 55058 58006;
0201832360999992006040512004-12150-045000FM-12+043999999V0209999C000010450019N0100001N1+02281+02111101321ADDAA124022191AY161061AY261061GF107991041051008001071001KA1240N+02101MA1999999096401MD1999999+0091MW1021REMSYN088AAXX  05124 83236 21597 70000 10228 20211 39640 40132 70266 84570 333 20210 58009 60224;
0137832360999992006040518004-12150-045000FM-12+043999999V0200501N001010450019N0100001N1+02901+02251100791ADDGF106991031021008001061041MA1999999095931MD1999999-0011REMSYN070AAXX  05184 83236 32597 60502 10290 20225 39593 40079 83264 333 59001;
0168832360999992006040600004-12150-045000FM-12+043999999V0201801N001010450019N0100001N1+02481+02191101071ADDGF106991031021008001021001KA1240M+02971MA1999999096171MD1999999-0021REMSYN088AAXX  06004 83236 32597 61802 10248 20219 39617 40107 83220 333 10297 29082 55052 59002;
0156832360999992006040612004-12150-045000FM-12+043999999V0202301N001011050019N0200001N1+02441+02191101191ADDGF105991021021012501061071KA1240N+01901MA1999999096301MD1999999-0101REMSYN076AAXX  06124 83236 32698 52302 10244 20219 39630 40119 82267 333 20190 59010;
0165832360999992006040618004-12150-045000FM-12+043999999V0201401N003111050019N0200001N1+03001+02191100641ADDAY191061AY291061GF106991041051008001001051MA1999999095791MD1999999-0141MW1151REMSYN076AAXX  06184 83236 31598 61406 10300 20219 39579 40064 71599 84505 333 59014;
0168832360999992006040700004-12150-045000FM-12+043999999V0209999C000010450019N0100001N1+02451+02271100901ADDGF108991041021008001061999KA1240M+03131MA1999999096021MD1999999-0151REMSYN088AAXX  07004 83236 32597 80000 10245 20227 39602 40090 8426/ 333 10313 29082 55089 59015;
0156832360999992006040712004-12150-045000FM-12+043999999V0209999C000010450019N0200001N1+02461+02301101061ADDGF107991041021008001061051KA1240N+02041MA1999999096171MD1999999-0131REMSYN076AAXX  07124 83236 32598 70000 10246 20230 39617 40106 84265 333 20204 59013;
0137832360999992006040718004-12150-045000FM-12+043999999V0200501N002610450019N0200001N1+03001+02191100631ADDGF106991031031008001051071MA1999999095791MD1999999+0001REMSYN070AAXX  07184 83236 32598 60505 10300 20219 39579 40063 83357 333 58000;
0196832360999992006040800004-12150-045000FM-12+043999999V0209999C000010075019N0100001N1+02331+02241100981ADDAY121061AY221061GF108991051051008001071999KA1240M+03061MA1999999096091MD1999999+0071MW1131REMSYN094AAXX  08004 83236 31597 80000 10233 20224 39609 40098 71322 8557/ 333 10306 29086 55042 58007;
0156832360999992006040812004-12150-045000FM-12+043999999V0202701N001510120019N0200001N1+02601+02251101081ADDGF106991051021012501001031KA1240N+01961MA1999999096191MD1999999+0021REMSYN076AAXX  08124 83236 32698 62703 10260 20225 39619 40108 85203 333 20196 58002;
0137832360999992006040818004-12150-045000FM-12+043999999V0201801N001510450019N0200001N1+02961+02311100601ADDGF106991031021008001051071MA1999999095751MD1999999-0041REMSYN070AAXX  08184 83236 32598 61803 10296 20231 39575 40060 83257 333 59004;
0196832360999992006040900004-12150-045000FM-12+043999999V0209999C000010450019N0100001N1+02401+02241101001ADDAY191061AY291061GF108991041051008001071999KA1240M+03041MA1999999096131MD1999999+0041MW1131REMSYN094AAXX  09004 83236 31597 80000 10240 20224 39613 40100 71399 8457/ 333 10304 29083 55062 58004;
0173832360999992006040912004-12150-045000FM-12+043999999V0200501N001510075019N0200001N1+02531+02231101001ADDAA124000591GF106991051021008001001031KA1240N+02021MA1999999096121MD1999999-0071REMSYN082AAXX  09124 83236 22598 60503 10253 20223 39612 40100 85203 333 20202 59007 69964;
0165832360999992006040918004-12150-045000FM-12+043999999V0203201N003110075019N0100001N1+02591+02191100491ADDAY121061AY221061GF108991061051008001041999MA1999999095621MD1999999-0131MW1151REMSYN076AAXX  09184 83236 31597 83206 10259 20219 39562 40049 71522 8654/ 333 59013;
0168832360999992006041000004-12150-045000FM-12+043999999V0209999C000010075019N0100001N1+02391+02191100781ADDGF108991051021008001071999KA1240M+03031MA1999999095911MD1999999-0221REMSYN088AAXX  10004 83236 32597 80000 10239 20219 39591 40078 8527/ 333 10303 29085 55066 59022;
0156832360999992006041012004-12150-045000FM-12+043999999V0202301N001510075019N0100001N1+02601+02171100951ADDGF108991051021008001061999KA1240N+01981MA1999999096081MD1999999-0041REMSYN076AAXX  10124 83236 32597 82303 10260 20217 39608 40095 8526/ 333 20198 59004;
0182832360999992006041018004-12150-045000FM-12+043999999V0203601N001010075019N0100001N1+02401+02131100591ADDAA106006191AY161061AY251061GF108991051051008001041999MA1999999095701MD1999999+0081MW1171REMSYN082AAXX  10184 83236 21597 83602 10240 20213 39570 40059 71765 8554/ 333 58008 60061;
0168832360999992006041100004-12150-045000FM-12+043999999V0209999C000010075019N0100001N1+02331+02161100911ADDGF108991061071008001051999KA1240M+03081MA1999999096031MD1999999+0121REMSYN088AAXX  11004 83236 32597 80000 10233 20216 39603 40091 8675/ 333 10308 29086 55040 58012;
0201832360999992006041112004-12150-045000FM-12+043999999V0200501N002110075019N0100001N1+02431+02171101011ADDAA124007991AY151061AY251061GF108991061071008001061999KA1240N+02041MA1999999096121MD1999999+0041MW1101REMSYN088AAXX  11124 83236 21597 80504 10243 20217 39612 40101 71055 8676/ 333 20204 58004 60084;
0137832360999992006041118004-12150-045000FM-12+043999999V0209999C000010450019N0200001N1+03051+02121100451ADDGF106991031031008001051071MA1999999095621MD1999999-0081REMSYN070AAXX  11184 83236 32598 60000 10305 20212 39562 40045 83357 333 59008;
0196832360999992006041200004-12150-045000FM-12+043999999V0202701N001510075019N0100001N1+02431+02251100931ADDAY121061AY221061GF108991051051008001041999KA1240M+03101MA1999999096051MD1999999+0021MW1131REMSYN094AAXX  12004 83236 31597 82703 10243 20225 39605 40093 71322 8554/ 333 10310 29081 55033 58002;
0201832360999992006041212004-12150-045000FM-12+043999999V0203601N003110075019N0100001N1+02341+02111101211ADDAA124038191AY161061AY261061GF108991061071008001051999KA1240N+01981MA1999999096311MD1999999+0191MW1101REMSYN088AAXX  12124 83236 21597 83606 10234 20211 39631 40121 71066 8675/ 333 20198 58019 60384;
0137832360999992006041218004-12150-045000FM-12+043999999V0203601N001010450019N0200001N1+02951+02261100581ADDGF106991031021008001071051MA1999999095741MD1999999+0121REMSYN070AAXX  12184 83236 32598 63602 10295 20226 39574 40058 83275 333 58012;
0196832360999992006041300004-12150-045000FM-12+043999999V0209999C000010075019N0100001N1+02341+02201101061ADDAY121061AY221061GF108991061051008001071999KA1240M+03051MA1999999096151MD1999999+0101MW1131REMSYN094AAXX  13004 83236 31597 80000 10234 20220 39615 40106 71322 8657/ 333 10305 29085 55045 58010;
0184832360999992006041312004-12150-045000FM-12+043999999V0200501N001010075019N0100001N1+02381+02281101141ADDAY121061AY221061GF108991061051008001071999KA1240N+01961MA1999999096241MD1999999-0071MW1161REMSYN082AAXX  13124 83236 31597 80502 10238 20228 39624 40114 71622 8657/ 333 20196 59007;
0137832360999992006041318004-12150-045000FM-12+043999999V0203201N001510450019N0200001N1+03011+02221100511ADDGF106991041021008001071051MA1999999095681MD1999999-0061REMSYN070AAXX  13184 83236 32598 63203 10301 20222 39568 40051 84275 333 59006;
0213832360999992006041400004-12150-045000FM-12+043999999V0209999C000010075019N0100001N1+02451+02341100941ADDAA106002091AY121061AY221061GF108991061061008001021999KA1240M+03071MA1999999096051MD1999999-0101MW1611REMSYN100AAXX  14004 83236 21597 80000 10245 20234 39605 40094 76122 8662/ 333 10307 29086 55062 59010 60021;
0173832360999992006041412004-12150-045000FM-12+043999999V0209999C000011050019N0200001N1+02461+02231101041ADDAA124002091GF106991041021008001001031KA1240N+01941MA1999999096151MD1999999-0091REMSYN082AAXX  14124 83236 22598 60000 10246 20223 39615 40104 84203 333 20194 59009 60024;
0137832360999992006041418004-12150-045000FM-12+043999999V0201401N002610450019N0100001N1+02741+02281100511ADDGF107991031021008001071051MA1999999095651MD1999999-0031REMSYN070AAXX  14184 83236 32597 71405 10274 20228 39565 40051 83275 333 59003;
0168832360999992006041500004-12150-045000FM-12+043999999V0209999C000010450019N0200001N1+02381+02281100781ADDGF106991021021008001061071KA1240M+03231MA1999999095901MD1999999-0151REMSYN088AAXX  15004 83236 32598 60000 10238 20228 39590 40078 82267 333 10323 29088 55063 59015;
0192832360999992006041512004-12150-045000FM-12+043999999V0209999C000012200019N0200001N1+02641+02241101051ADDAA124000091GF104991021021008001001031KA1240N+02021MA1999999096171MD1999999+0021REMSYN082AAXX  15124 83236 22598 40000 10264 20224 39617 40105 82203 333 20202 58002 69924;EQDQ01  00002PRCP24
0182832360999992006041518004-12150-045000FM-12+043999999V0200901N007210075019N0040001N1+02401+01991100771ADDAA106010991AY191061AY251061GF108991071061008001041999MA1999999095871MD1999999+0221MW1641REMSYN082AAXX  15184 83236 21596 80914 10240 20199 39587 40077 76495 8764/ 333 58022 60111;
0213832360999992006041600004-12150-045000FM-12+043999999V0209999C000010450019N0200001N1+02331+02201101031ADDAA106001091AY151061AY221061GF105991021051008001061001KA1240M+03171MA1999999096151MD1999999+0251MW1131REMSYN100AAXX  16004 83236 21598 50000 10233 20220 39615 40103 71352 82560 333 10317 29086 55072 58025 60011;
0201832360999992006041612004-12150-045000FM-12+043999999V0209999C000011050019N0200001N1+02551+02191101411ADDAA124013091AY161061AY251061GF106991031021008001001051KA1240N+02001MA1999999096511MD1999999+0341MW1031REMSYN088AAXX  16124 83236 21598 60000 10255 20219 39651 40141 70365 83205 333 20200 58034 60134;
0165832360999992006041618004-12150-045000FM-12+043999999V0203601N001510450019N0200001N1+03091+02101100941ADDAY121061AY221061GF106991031051012501071021MA1999999096101MD1999999+0231MW1151REMSYN076AAXX  16184 83236 31698 63603 10309 20210 39610 40094 71522 83572 333 58023;
0168832360999992006041700004-12150-045000FM-12+043999999V0209999C000010450019N0200001N1+02431+02251101181ADDGF106991021021008001061051KA1240M+03171MA1999999096301MD1999999+0151REMSYN088AAXX  17004 83236 32598 60000 10243 20225 39630 40118 82265 333 10317 29079 55080 58015;
0207832360999992006041712004-12150-045000FM-12+043999999V0203601N001510450019N0200001N1+02611+02251101261ADDAA124001091AY151061AY251061GF106991031021008001061071KA1240N+02041MA1999999096371MD1999999-0141MW1021REMSYN094AAXX  17124 83236 21598 63603 10261 20225 39637 40126 70255 83267 333 20204 59014 60014 10012;
0168832360999992006041800004-12150-045000FM-12+043999999V0209999C000010450019N0200001N1+02461+02191101031ADDGF106991031021008001061071KA1240M+03031MA1999999096161MD1999999-0141REMSYN088AAXX  18004 83236 32598 60000 10246 20219 39616 40103 83267 333 10303 29078 55099 59014;
0173832360999992006041812004-12150-045000FM-12+043999999V0203601N001510120019N0100001N1+02631+02251101151ADDAA124008991GF108991061081008001041999KA1240N+02101MA1999999096281MD1999999-0091REMSYN082AAXX  18124 83236 22597 83603 10263 20225 39628 40115 8684/ 333 20210 59009 60094;
0165832360999992006041818004-12150-045000FM-12+043999999V0203601N003110075019N0100001N1+02911+02221100681ADDAY121061AY221061GF107991051051008001071001MA1999999095841MD1999999-0101MW1171REMSYN076AAXX  18184 83236 31597 73606 10291 20222 39584 40068 71722 85570 333 59010;
0213832360999992006041900004-12150-045000FM-12+043999999V0203201N001010075019N0040001N1+02171+02091101201ADDAA106024991AY191061AY251061GF108991081061008001999999KA1240M+03061MA1999999096301MD1999999+0141MW1511REMSYN100AAXX  19004 83236 21596 83202 10217 20209 39630 40120 75195 886// 333 10306 29085 55060 58014 60251;
0192832360999992006041912004-12150-045000FM-12+043999999V0209999C000010075019N0100001N1+02551+02191101341ADDAA124025991GF107991051021008001061051KA1240N+01941MA1999999999999MD1999999+0141REMSYN082AAXX  19124 83236 22597 70000 10255 20219 39964 40134 85265 333 20194 58014 60264;EQDQ01 099643APOSP 
0201832360999992006041918004-12150-045000FM-12+043999999V0201801N003610075019N0100001N1+02531+02331100911ADDAA106002091AY151061AY251061GF107991051051008001071051MA1999999096002MD1999999+0161MW1171REMSYN082AAXX  19184 83236 21597 71807 10253 20233 39600 40091 71755 85575 333 58016 60021;EQDQ01+096003APOSP 
0196832360999992006042000004-12150-045000FM-12+043999999V0209999C000010075019N0100001N1+02351+02131101171ADDAY121061AY221061GF108991061051008001081999KA1240M+02991MA1999999096281MD1999999-0021MW1131REMSYN094AAXX  20004 83236 31597 80000 10235 20213 39628 40117 71322 8658/ 333 10299 29087 55074 59002;
0173832360999992006042012004-12150-045000FM-12+043999999V0209999C000010075019N0100001N1+02301+02031101481ADDAA124002091GF108991061071008001021999KA1240N+01961MA1999999096541MD1999999+0121REMSYN082AAXX  20124 83236 22597 80000 10230 20203 39654 40148 8672/ 333 20196 58012 60024;
0178832360999992006042100004-12150-045000FM-12+043999999V0209999C000012200019N0200001N1+02181+02101101171ADDGA1001+999999999GF100991001001999999001001KA1240M+02721MA1999999096241MD1999999+0041REMSYN082AAXX  21004 83236 32598 00000 10218 20210 39624 40117 333 10272 29091 55011 58004;
0173832360999992006042112004-12150-045000FM-12+043999999V0201801N003112200019N0200001N1+02381+02031101431ADDAA124007191GF104991021011008001061001KA1240N+01821MA1999999096491MD1999999-0051REMSYN082AAXX  21124 83236 22598 41806 10238 20203 39649 40143 82160 333 20182 59005 60074;
0137832360999992006042118004-12150-045000FM-12+043999999V0203601N004110075019N0200001N1+02941+02141100991ADDGF105991051021008001001001MA1999999096111MD1999999-0091REMSYN070AAXX  21184 83236 32598 53608 10294 20214 39611 40099 85200 333 59009;
0168832360999992006042200004-12150-045000FM-12+043999999V0201801N000512200019N0200001N1+02481+02251101251ADDGF103991031021008001001001KA1240M+03141MA1999999096351MD1999999+0111REMSYN088AAXX  22004 83236 32598 31801 10248 20225 39635 40125 83200 333 10314 29079 55097 58011;
0156832360999992006042212004-12150-045000FM-12+043999999V0209999C000012200019N0200001N1+02481+02011101311ADDGF102991021001022501081001KA1240N+01961MA1999999096421MD1999999+0071REMSYN076AAXX  22124 83236 32898 20000 10248 20201 39642 40131 82080 333 20196 58007;
0165832360999992006042218004-12150-045000FM-12+043999999V0201801N002610450019N0200001N1+03101+02031100851ADDAY121061AY221061GF105991031021008001081041MA1999999096001MD1999999-0111MW1151REMSYN076AAXX  22184 83236 31598 51805 10310 20203 39600 40085 71522 83284 333 59011;
0168832360999992006042300004-12150-045000FM-12+043999999V0201801N001512200019N0200001N1+02411+02111101051ADDGF103991001001999999001041KA1240M+03191MA1999999096161MD1999999-0191REMSYN088AAXX  23004 83236 32998 31803 10241 20211 39616 40105 80004 333 10319 29074 55103 59019;
0156832360999992006042312004-12150-045000FM-12+043999999V0209999C000011050019N0200001N1+02511+02071101281ADDGF105991021021008001081041KA1240N+02091MA1999999096381MD1999999-0041REMSYN076AAXX  23124 83236 32598 50000 10251 20207 39638 40128 82284 333 20209 59004;
0137832360999992006042318004-12150-045000FM-12+043999999V0203601N002111050019N0200001N1+02941+02291100861ADDGF105991031031008001001031MA1999999096001MD1999999+0001REMSYN070AAXX  23184 83236 32598 53604 10294 20229 39600 40086 83303 333 58000;
0168832360999992006042400004-12150-045000FM-12+043999999V0201801N000512200019N0200001N1+02411+02231101051ADDGF103991031021008001001001KA1240M+03021MA1999999096161MD1999999+0001REMSYN088AAXX  24004 83236 32598 31801 10241 20223 39616 40105 83200 333 10302 29081 55089 58000;
0156832360999992006042412004-12150-045000FM-12+043999999V0209999C000010450019N0100001N1+02531+02211101181ADDGF107991021021008001011061KA1240N+02191MA1999999096291MD1999999-0091REMSYN076AAXX  24124 83236 32597 70000 10253 20221 39629 40118 82216 333 20219 59009;
0137832360999992006042418004-12150-045000FM-12+043999999V0203601N004610075019N0100001N1+02901+02301100771ADDGF108991051021008001001061MA1999999095931MD1999999-0071REMSYN070AAXX  24184 83236 32597 83609 10290 20230 39593 40077 85206 333 59007;
0168832360999992006042500004-12150-045000FM-12+043999999V0202301N000510120019N0100001N1+02471+02321101041ADDGF108991051081008001021999KA1240M+02991MA1999999096161MD1999999+0001REMSYN088AAXX  25004 83236 32597 82301 10247 20232 39616 40104 8582/ 333 10299 29084 55089 58000;
0156832360999992006042512004-12150-045000FM-12+043999999V0201801N002110450019N0100001N1+02511+02051101261ADDGF106991031021008001041041KA1240N+02121MA1999999096371MD1999999+0081REMSYN076AAXX  25124 83236 32597 61804 10251 20205 39637 40126 83244 333 20212 58008;
0165832360999992006042518004-12150-045000FM-12+043999999V0200901N001510450019N0100001N1+02861+02111100861ADDAY121061AY221061GF107991041071008001081001MA1999999096011MD1999999+0081MW1151REMSYN076AAXX  25184 83236 31597 70903 10286 20211 39601 40086 71522 84780 333 58008;
0168832360999992006042600004-12150-045000FM-12+043999999V0201801N001510075019N0100001N1+02481+02031101161ADDGF108991051071008001021999KA1240M+03001MA1999999096281MD1999999+0121REMSYN088AAXX  26004 83236 32597 81803 10248 20203 39628 40116 8572/ 333 10300 29073 55047 58012;
0156832360999992006042612004-12150-045000FM-12+043999999V0200901N000512200019N0200001N1+02391+02011101411ADDGF106991021011008001001061KA1240N+01961MA1999999096511MD1999999+0141REMSYN076AAXX  26124 83236 32598 60901 10239 20201 39651 40141 82106 333 20196 58014;
0137832360999992006042618004-12150-045000FM-12+043999999V0203601N002610075019N0200001N1+03011+02051100851ADDGF106991061021008001001001MA1999999096001MD1999999-0011REMSYN070AAXX  26184 83236 32598 63605 10301 20205 39600 40085 86200 333 59001;
0178832360999992006042700004-12150-045000FM-12+043999999V0209999C000012200019N0200001N1+02341+02131101151ADDGA1001+999999999GF100991001001999999001001KA1240M+03071MA1999999096241MD1999999-0041REMSYN082AAXX  27004 83236 32998 00000 10234 20213 39624 40115 333 10307 29078 55067 59004;
0156832360999992006042712004-12150-045000FM-12+043999999V0202301N001019999999N0200001N1+02321+02051101251ADDGF106991001001999999001061KA1240N+01801MA1999999096341MD1999999-0171REMSYN076AAXX  27124 83236 32998 62302 10232 20205 39634 40125 80006 333 20180 59017;
0137832360999992006042718004-12150-045000FM-12+043999999V0201401N002112200019N0200001N1+02981+01861100811ADDGF106991021011008001001061MA1999999095941MD1999999-0061REMSYN070AAXX  27184 83236 32598 61404 10298 20186 39594 40081 82106 333 59006;
0168832360999992006042800004-12150-045000FM-12+043999999V0209999C000012200019N0200001N1+02271+02111101081ADDGF103991001001999999001061KA1240M+03151MA1999999096161MD1999999+0081REMSYN088AAXX  28004 83236 32998 30000 10227 20211 39616 40108 80006 333 10315 29079 55057 58008;
0156832360999992006042812004-12150-045000FM-12+043999999V0209999C000012200019N0200001N1+02331+02011101231ADDGF103991001001999999001041KA1240N+01721MA1999999096311MD1999999-0031REMSYN076AAXX  28124 83236 32998 30000 10233 20201 39631 40123 80004 333 20172 59003;
0165832360999992006042818004-12150-045000FM-12+043999999V0203601N002112200019N0200001N1+03091+02031100731ADDAY121061AY221061GF104991041031008001001001MA1999999095881MD1999999-0061MW1151REMSYN076AAXX  28184 83236 31598 43604 10309 20203 39588 40073 71522 84300 333 59006;
0168832360999992006042900004-12150-045000FM-12+043999999V0201801N000512200019N0200001N1+02311+02001101021ADDGF103991031011008001001001KA1240M+03141MA1999999096111MD1999999-0051REMSYN088AAXX  29004 83236 32598 31801 10231 20200 39611 40102 83100 333 10314 29075 55102 59005;
0156832360999992006042912004-12150-045000FM-12+043999999V0203601N000510450019N0100001N1+02301+02031101261ADDGF107991011011008001051001KA1240N+01901MA1999999096341MD1999999+0031REMSYN076AAXX  29124 83236 32597 73601 10230 20203 39634 40126 81150 333 20190 58003;
0137832360999992006042918004-12150-045000FM-12+043999999V0200501N001010450019N0100001N1+03001+02141100811ADDGF106991021021008001031001MA1999999095921MD1999999+0041REMSYN070AAXX  29184 83236 32597 60502 10300 20214 39592 40081 82230 333 58004;
0168832360999992006043000004-12150-045000FM-12+043999999V0201801N001010210019N0100001N1+02331+02151101131ADDGF106991061001022501021001KA1240M+03071MA1999999096211MD1999999+0101REMSYN088AAXX  30004 83236 32897 61802 10233 20215 39621 40113 86020 333 10307 29081 55025 58010;
0156832360999992006043012004-12150-045000FM-12+043999999V0209999C000010210019N0100001N1+02501+01981101271ADDGF106991061001022501051001KA1240N+01931MA1999999096361MD1999999+0021REMSYN076AAXX  30124 83236 32897 60000 10250 20198 39636 40127 86050 333 20193 58002;
0137832360999992006043018004-12150-045000FM-12+043999999V0203201N001512200019N0100001N1+03051+02051100851ADDGF106991031021008001001041MA1999999096001MD1999999+0081REMSYN070AAXX  30184 83236 32597 63203 10305 20205 39600 40085 83204 333 58008;
0178832360999992006050100004-12150-045000FM-12+043999999V0203601N001012200019N0200001N1+02341+01911101151ADDGA1001+999999999GF100991001001999999001001KA1240M+03131MA1999999096251MD1999999+0041REMSYN082AAXX  01004 83236 32998 03602 10234 20191 39625 40115 333 10313 29070 55087 58004;
0156832360999992006050112004-12150-045000FM-12+043999999V0209999C000011050019N0200001N1+02341+01981101351ADDGF106991011011008001031041KA1240N+01761MA1999999096431MD1999999+0071REMSYN076AAXX  01124 83236 32598 60000 10234 20198 39643 40135 81134 333 20176 58007;
0137832360999992006050118004-12150-045000FM-12+043999999V0203601N002111050019N0200001N1+03041+01911100961ADDGF106991041021008001001051MA1999999096091MD1999999+0091REMSYN070AAXX  01184 83236 32598 63604 10304 20191 39609 40096 84205 333 58009;
0168832360999992006050200004-12150-045000FM-12+043999999V0209999C000012200019N0200001N1+02341+02151101241ADDGF102991021011008001001001KA1240M+03111MA1999999096331MD1999999+0081REMSYN088AAXX  02004 83236 32598 20000 10234 20215 39633 40124 82100 333 10311 29077 55093 58008;
0156832360999992006050212004-12150-045000FM-12+043999999V0209999C000012200019N0200001N1+02521+02071101441ADDGF102991021011008001001001KA1240N+01911MA1999999096541MD1999999+0111REMSYN076AAXX  02124 83236 32598 20000 10252 20207 39654 40144 82100 333 20191 58011;
0137832360999992006050218004-12150-045000FM-12+043999999V0203601N000512200019N0200001N1+03111+02061100941ADDGF104991031021008001001041MA1999999096091MD1999999+0001REMSYN070AAXX  02184 83236 32598 43601 10311 20206 39609 40094 83204 333 58000;
0168832360999992006050300004-12150-045000FM-12+043999999V0201801N001012200019N0200001N1+02411+02171101141ADDGF102991021001022501061001KA1240M+03181MA1999999096251MD1999999-0081REMSYN088AAXX  03004 83236 32898 21802 10241 20217 39625 40114 82060 333 10318 29076 55097 59008;
0156832360999992006050312004-12150-045000FM-12+043999999V0202701N000512200019N0200001N1+02601+02101101251ADDGF102991021011008001001001KA1240N+02001MA1999999096361MD1999999-0181REMSYN076AAXX  03124 83236 32598 22701 10260 20210 39636 40125 82100 333 20200 59018;
0137832360999992006050318004-12150-045000FM-12+043999999V0203601N002111050019N0200001N1+03121+02171100761ADDGF105991031021008001001021MA1999999095921MD1999999-0171REMSYN070AAXX  03184 83236 32598 53604 10312 20217 39592 40076 83202 333 59017;
0168832360999992006050400004-12150-045000FM-12+043999999V0202701N001012200019N0200001N1+02511+02271101021ADDGF104991001001999999001021KA1240M+03231MA1999999096151MD1999999-0101REMSYN088AAXX  04004 83236 32998 42702 10251 20227 39615 40102 80002 333 10323 29076 55100 59010;
0220832360999992006050412004-12150-045000FM-12+043999999V0200501N000511050019N0200001N1+02641+02181101161ADDAA124000091AY151061AY251061GF105991021021008001041041KA1240N+02111MA1999999096291MD1999999-0071MW1021REMSYN088AAXX  04124 83236 21598 50501 10264 20218 39629 40116 70255 82244 333 20211 59007 69924;EQDQ01  00002PRCP24
0137832360999992006050418004-12150-045000FM-12+043999999V0203601N003111050019N0200001N1+03141+02041100731ADDGF106991031021008001001051MA1999999095911MD1999999-0011REMSYN070AAXX  04184 83236 32598 63606 10314 20204 39591 40073 83205 333 59001;
0168832360999992006050500004-12150-045000FM-12+043999999V0209999C000012200019N0200001N1+02481+02251101081ADDGF103991031001022501011001KA1240M+03211MA1999999096211MD1999999+0061REMSYN088AAXX  05004 83236 32898 30000 10248 20225 39621 40108 83010 333 10321 29076 55096 58006;
0156832360999992006050512004-12150-045000FM-12+043999999V0203601N001510450019N0200001N1+02601+02191101201ADDGF106991031021008001061051KA1240N+02061MA1999999096331MD1999999+0041REMSYN076AAXX  05124 83236 32598 63603 10260 20219 39633 40120 83265 333 20206 58004;
0137832360999992006050518004-12150-045000FM-12+043999999V0203601N002110450019N0200001N1+03171+02071100761ADDGF106991031021008001071051MA1999999095941MD1999999+0031REMSYN070AAXX  05184 83236 32598 63604 10317 20207 39594 40076 83275 333 58003;
0168832360999992006050600004-12150-045000FM-12+043999999V0201801N001012200019N0200001N1+02511+02271101091ADDGF104991021001022501081021KA1240M+03301MA1999999096221MD1999999+0011REMSYN088AAXX  06004 83236 32898 41802 10251 20227 39622 40109 82082 333 10330 29076 55093 58001;
0156832360999992006050612004-12150-045000FM-12+043999999V0209999C000010450019N0100001N1+02541+02211101241ADDGF107991031021008001071051KA1240N+01941MA1999999096361MD1999999+0031REMSYN076AAXX  06124 83236 32597 70000 10254 20221 39636 40124 83275 333 20194 58003;
0137832360999992006050618004-12150-045000FM-12+043999999V0203601N001510450019N0200001N1+03151+02131100761ADDGF106991021031008001051071MA1999999095941MD1999999+0001REMSYN070AAXX  06184 83236 32598 63603 10315 20213 39594 40076 82357 333 58000;
0168832360999992006050700004-12150-045000FM-12+043999999V0201801N001012200019N0200001N1+02431+02151101041ADDGF104991021021012501001031KA1240M+03201MA1999999096161MD1999999-0061REMSYN088AAXX  07004 83236 32698 41802 10243 20215 39616 40104 82203 333 10320 29077 55076 59006;
0201832360999992006050712004-12150-045000FM-12+043999999V0201801N001010075019N0100001N1+02381+02221101381ADDAA124002091AY151061AY251061GF108991061071008001051999KA1240N+02051MA1999999096471MD1999999+0111MW1101REMSYN088AAXX  07124 83236 21597 81802 10238 20222 39647 40138 71055 8675/ 333 20205 58011 60024;
0137832360999992006050718004-12150-045000FM-12+043999999V0203601N001510450019N0200001N1+02851+02121100931ADDGF107991041021008001071051MA1999999096071MD1999999+0131REMSYN070AAXX  07184 83236 32598 73603 10285 20212 39607 40093 84275 333 58013;
0196832360999992006050800004-12150-045000FM-12+043999999V0201801N001010450019N0100001N1+02361+02091101291ADDAY121061AY221061GF108991041051008001071999KA1240M+02921MA1999999096371MD1999999+0211MW1131REMSYN094AAXX  08004 83236 31597 81802 10236 20209 39637 40129 71322 8457/ 333 10292 29081 55024 58021;
0201832360999992006050812004-12150-045000FM-12+043999999V0209999C000010075019N0100001N1+02341+02031101391ADDAA124000591AY151061AY251061GF108991061071008001051999KA1240N+01941MA1999999096471MD1999999+0001MW1031REMSYN088AAXX  08124 83236 21597 80000 10234 20203 39647 40139 70355 8675/ 333 20194 58000 69964;
0137832360999992006050818004-12150-045000FM-12+043999999V0203601N003110450019N0200001N1+02841+02091100881ADDGF106991031031008001051071MA1999999096021MD1999999-0051REMSYN070AAXX  08184 83236 32598 63606 10284 20209 39602 40088 83357 333 59005;
0213832360999992006050900004-12150-045000FM-12+043999999V0209999C000010075019N0100001N1+02281+02071101211ADDAA106000391AY151061AY251061GF108991061071008001041999KA1240M+02901MA1999999096291MD1999999-0081MW1031REMSYN100AAXX  09004 83236 21597 80000 10228 20207 39629 40121 70355 8674/ 333 10290 29081 55040 59008 69931;
0173832360999992006050912004-12150-045000FM-12+043999999V0201401N002112200019N0200001N1+02361+01731101321ADDAA124000391GF104991021021012501001071KA1240N+01861MA1999999096391MD1999999-0081REMSYN082AAXX  09124 83236 22698 41404 10236 20173 39639 40132 82207 333 20186 59008 69934;
0137832360999992006050918004-12150-045000FM-12+043999999V0202701N001012200019N0200001N1+03041+01681100841ADDGF104991021021008001061001MA1999999095991MD1999999-0031REMSYN070AAXX  09184 83236 32598 42702 10304 20168 39599 40084 82260 333 59003;
0168832360999992006051000004-12150-045000FM-12+043999999V0202301N001012200019N0200001N1+02131+01841101221ADDGF103991021011012501001051KA1240M+03101MA1999999096281MD1999999-0011REMSYN088AAXX  10004 83236 32698 32302 10213 20184 39628 40122 82105 333 10310 29070 55099 59001;
0156832360999992006051012004-12150-045000FM-12+043999999V0209999C000012200019N0200001N1+02241+01861101401ADDGF102991001001999999001031KA1240N+01581MA1999999096451MD1999999+0061REMSYN076AAXX  10124 83236 32998 20000 10224 20186 39645 40140 80003 333 20158 58006;
0137832360999992006051018004-12150-045000FM-12+043999999V0203601N003110450019N0200001N1+03051+01751100971ADDGF106991041041008001071051MA1999999096081MD1999999+0091REMSYN070AAXX  10184 83236 32598 63606 10305 20175 39608 40097 84475 333 58009;
0168832360999992006051100004-12150-045000FM-12+043999999V0209999C000011050019N0200001N1+02291+02111101231ADDGF105991021021012501061071KA1240M+03121MA1999999096311MD1999999+0031REMSYN088AAXX  11004 83236 32698 50000 10229 20211 39631 40123 82267 333 10312 29076 55098 58003;
