0168832880999992006010100004-13267-043417FM-12+0440SBLP V0209999C000012200019N0020001N1+02391+02211101121ADDGF104991001001999999001091KA1240M+02881MA1999999096211MD1999999-0201REMSYN088AAXX  01004 83288 32995 40000 10239 20221 39621 40112 80009 333 10288 29080 55032 59020;
0156832880999992006010112004-13267-043417FM-12+0440SBLP V0201801N001010120019N0200001N1+02331+02061101221ADDGF108991081081008001999999KA1240N+02101MA1999999096301MD1999999-0091REMSYN076AAXX  01124 83288 32598 81802 10233 20206 39630 40122 888// 333 20210 59009;
0178832880999992006010200004-13267-043417FM-12+0440SBLP V0202701N001012200019N0020001N1+02611+02221100891ADDGA1001+999999999GF100991001001999999001001KA1240M+03071MA1999999096011MD1999999-0201REMSYN082AAXX  02004 83288 32995 02702 10261 20222 39601 40089 333 10307 29075 55066 59020;
0166832880999992006010212004-13267-043417FM-12+0440SBLP V0200901N000512200019N0200001N1+02591+01991101201ADDGA1001+999999999GF100991001001999999001001KA1240N+02091MA1999999096331MD1999999+0031REMSYN070AAXX  02124 83288 32598 00901 10259 20199 39633 40120 333 20209 58003;
0137832880999992006010218004-13267-043417FM-12+0440SBLP V0201401N001012200019N0200001N1+03141+02101100771ADDGF103991011021008001021001MA1999999095951MD1999999-0061REMSYN070AAXX  02184 83288 32598 31402 10314 20210 39595 40077 81220 333 59006;
0178832880999992006010300004-13267-043417FM-12+0440SBLP V0202301N002612200019N0020001N1+02791+02181100751ADDGA1001+999999999GF100991001001999999001001KA1240M+03231MA1999999095941MD1999999-0071REMSYN082AAXX  03004 83288 32995 02305 10279 20218 39594 40075 333 10323 29065 55115 59007;
0166832880999992006010312004-13267-043417FM-12+0440SBLP V0201401N001012200019N0200001N1+02481+02111101071ADDGA1001+999999999GF100991001001999999001001KA1240N+02031MA1999999096191MD1999999-0141REMSYN070AAXX  03124 83288 32998 01402 10248 20211 39619 40107 333 20203 59014;
0137832880999992006010318004-13267-043417FM-12+0440SBLP V0201401N001011050019N0200001N1+03141+02241100751ADDGF106991041021008001001021MA1999999095951MD1999999+0011REMSYN070AAXX  03184 83288 32598 61402 10314 20224 39595 40075 84202 333 58001;
0187832880999992006010400004-13267-043417FM-12+0440SBLP V0202301N002612200019N0020001N1+02781+02321100781ADDGF102991999021008001001001KA1240M+03221MA1999999095941MD1999999+0071REMSYN088AAXX  04004 83288 32595 22305 10278 20232 39594 40078 81200 333 10322 29071 55084 58007;EQDQ01+000012SCOTLC
0156832880999992006010412004-13267-043417FM-12+0440SBLP V0200901N001012200019N0200001N1+02711+01841100851ADDGF102991001001999999001021KA1240N+02021MA1999999096021MD1999999-0171REMSYN076AAXX  04124 83288 32998 20902 10271 20184 39602 40085 80002 333 20202 59017;
0137832880999992006010418004-13267-043417FM-12+0440SBLP V0201801N001012200019N0200001N1+03221+01981100541ADDGF104991041021008001001001MA1999999095701MD1999999-0251REMSYN070AAXX  04184 83288 32598 41802 10322 20198 39570 40054 84200 333 59025;
0168832880999992006010500004-13267-043417FM-12+0440SBLP V0202701N000512200019N0020001N1+02861+02161100541ADDGF102991021011008001001001KA1240M+03311MA1999999095741MD1999999-0181REMSYN088AAXX  05004 83288 32595 22701 10286 20216 39574 40054 82100 333 10331 29066 55118 59018;
0156832880999992006010512004-13267-043417FM-12+0440SBLP V0203201N001512200019N0200001N1+02731+02051100821ADDGF104991011021008001001021KA1240N+02061MA1999999096011MD1999999-0011REMSYN076AAXX  05124 83288 32598 43203 10273 20205 39601 40082 81202 333 20206 59001;
0137832880999992006010518004-13267-043417FM-12+0440SBLP V0203201N001011050019N0200001N1+03211+02091100381ADDGF106991011021008001001021MA1999999095601MD1999999-0101REMSYN070AAXX  05184 83288 32598 63202 10321 20209 39560 40038 81202 333 59010;
0201832880999992006010612004-13267-043417FM-12+0440SBLP V0202301N001510150019N0200001N1+02371+02151101041ADDAA124009991AY161061AY251061GF108991051001017501021071KA1240N+02061MA1999999096161MD1999999+0151MW1021REMSYN088AAXX  06124 83288 21798 82303 10237 20215 39616 40104 70265 85027 333 20206 58015 60104;
0137832880999992006010618004-13267-043417FM-12+0440SBLP V0202301N001512200019N0200001N1+03031+02131100751ADDGF104991011021008001001091MA1999999095861MD1999999+0261REMSYN070AAXX  06184 83288 32598 42303 10303 20213 39586 40075 81209 333 58026;
0168832880999992006010700004-13267-043417FM-12+0440SBLP V0202301N001010450019N0020001N1+02481+02091100901ADDGF108991031081008001071021KA1240M+03081MA1999999096031MD1999999+0311REMSYN088AAXX  07004 83288 32595 82302 10248 20209 39603 40090 83872 333 10308 29076 55057 58031;
0156832880999992006010712004-13267-043417FM-12+0440SBLP V0200901N000512200019N0200001N1+02731+02231101031ADDGF102991021011008001001001KA1240N+02161MA1999999096191MD1999999+0031REMSYN076AAXX  07124 83288 32598 20901 10273 20223 39619 40103 82100 333 20216 58003;
0182832880999992006010718004-13267-043417FM-12+0440SBLP V0202701N000511050019N0200001N1+02811+02141100691ADDAA106000591AY161061AY261061GF105991031021008001001021MA1999999095881MD1999999+0021MW1021REMSYN082AAXX  07184 83288 21598 52701 10281 20214 39588 40069 70266 83202 333 58002 69941;
0192832880999992006010812004-13267-043417FM-12+0440SBLP V0201801N000512200019N0200001N1+02631+01861101081ADDAA124000891GF102991999051008001001021KA1240N+01981MA1999999096281MD1999999+0091REMSYN082AAXX  08124 83288 22598 21801 10263 20186 39628 40108 83502 333 20198 58009 69984;EQDQ01+000032SCOTLC
0137832880999992006010818004-13267-043417FM-12+0440SBLP V0201801N001512200019N0200001N1+03171+01751100691ADDGF104991021021008001001021MA1999999095901MD1999999+0021REMSYN070AAXX  08184 83288 32598 41803 10317 20175 39590 40069 82202 333 58002;
0156832880999992006010912004-13267-043417FM-12+0440SBLP V0201801N001519999999N0200001N1+02551+01911101091ADDGF107991001001999999001021KA1240N+01991MA1999999096231MD1999999-0081REMSYN076AAXX  09124 83288 32998 71803 10255 20191 39623 40109 80002 333 20199 59008;
0137832880999992006010918004-13267-043417FM-12+0440SBLP V0202701N001512200019N0200001N1+03171+01991100741ADDGF103991031021008001001001MA1999999095921MD1999999+0021REMSYN070AAXX  09184 83288 32598 32703 10317 20199 39592 40074 83200 333 58002;
0168832880999992006011000004-13267-043417FM-12+0440SBLP V0201401N002112200019N0020001N1+02571+01901100871ADDGF102991001001999999001011KA1240M+03231MA1999999096001MD1999999+0041REMSYN088AAXX  10004 83288 32995 21404 10257 20190 39600 40087 80001 333 10323 29063 55093 58004;
0156832880999992006011012004-13267-043417FM-12+0440SBLP V0200901N001012200019N0200001N1+02711+01811101221ADDGF105991021011008001001041KA1240N+02041MA1999999096351MD1999999+0121REMSYN076AAXX  10124 83288 32598 50902 10271 20181 39635 40122 82104 333 20204 58012;
0168832880999992006011100004-13267-043417FM-12+0440SBLP V0201801N001012200019N0020001N1+02531+02081101111ADDGF103991011011008001001051KA1240M+03321MA1999999096241MD1999999+0241REMSYN088AAXX  11004 83288 32595 31802 10253 20208 39624 40111 81105 333 10332 29062 55098 58024;
0156832880999992006011112004-13267-043417FM-12+0440SBLP V0200901N001012200019N0200001N1+02651+02001101351ADDGF103991021011008001001021KA1240N+01981MA1999999096471MD1999999+0121REMSYN076AAXX  11124 83288 32598 30902 10265 20200 39647 40135 82102 333 20198 58012;
0137832880999992006011118004-13267-043417FM-12+0440SBLP V0201801N001012200019N0200001N1+03221+01751100971ADDGF105991021011008001001061MA1999999096041MD1999999-0101REMSYN070AAXX  11184 83288 32598 51802 10322 20175 39604 40097 82106 333 59010;
0137832880999992006011218004-13267-043417FM-12+0440SBLP V0201801N001512200019N0200001N1+03091+01851101011ADDGF104991041021008001001001MA1999999096161MD1999999-0121REMSYN070AAXX  12184 83288 32598 41803 10309 20185 39616 40101 84200 333 59012;
0168832880999992006011300004-13267-043417FM-12+0440SBLP V0200901N001510150019N0020001N1+02571+01881101181ADDGF107991051001017501071021KA1240M+03171MA1999999096311MD1999999+0151REMSYN088AAXX  13004 83288 32795 70903 10257 20188 39631 40118 85072 333 10317 29058 55092 58015;
0156832880999992006011312004-13267-043417FM-12+0440SBLP V0201801N001512200019N0200001N1+02531+01701101361ADDGF103991011011008001001041KA1240N+01941MA1999999096471MD1999999-0071REMSYN076AAXX  13124 83288 32598 31803 10253 20170 39647 40136 81104 333 20194 59007;
0137832880999992006011318004-13267-043417FM-12+0440SBLP V0202301N001512200019N0200001N1+03211+01721101121ADDGF103991011021008001001021MA1999999096201MD1999999+0041REMSYN070AAXX  13184 83288 32598 32303 10321 20172 39620 40112 81202 333 58004;
0168832880999992006011400004-13267-043417FM-12+0440SBLP V0201801N001512200019N0020001N1+02671+01721101131ADDGF104991011011008001061051KA1240M+03271MA1999999096261MD1999999-0051REMSYN088AAXX  14004 83288 32595 41803 10267 20172 39626 40113 81165 333 10327 29052 55117 59005;
0166832880999992006011412004-13267-043417FM-12+0440SBLP V0201801N001512200019N0200001N1+02511+01841101401ADDGA1001+999999999GF100991001001999999001001KA1240N+01941MA1999999096471MD1999999+0001REMSYN070AAXX  14124 83288 32998 01803 10251 20184 39647 40140 333 20194 58000;
0156832880999992006011418004-13267-043417FM-12+0440SBLP V0201801N001512200019N0200001N1+03281+02101100821ADDGF102991999011008001001001MA1999999096041MD1999999-0161REMSYN070AAXX  14184 83288 32598 21803 10328 20210 39604 40082 81100 333 59016;EQDQ01+000012SCOTLC
0166832880999992006011512004-13267-043417FM-12+0440SBLP V0201401N001512200019N0200001N1+02631+01811101191ADDGA1001+999999999GF100991001001999999001001KA1240N+01941MA1999999096331MD1999999-0141REMSYN070AAXX  15124 83288 32998 01403 10263 20181 39633 40119 333 20194 59014;
0137832880999992006011518004-13267-043417FM-12+0440SBLP V0201401N002612200019N0200001N1+03311+01261100791ADDGF101991011011008001001001MA1999999095981MD1999999-0061REMSYN070AAXX  15184 83288 32598 11405 10331 20126 39598 40079 81100 333 59006;
0156832880999992006011612004-13267-043417FM-12+0440SBLP V0200901N000512200019N0200001N1+02591+01561101201ADDGF102991001001999999001051KA1240N+01861MA1999999096331MD1999999+0001REMSYN076AAXX  16124 83288 32998 20901 10259 20156 39633 40120 80005 333 20186 58000;
0168832880999992006011700004-13267-043417FM-12+0440SBLP V0202701N001012200019N0020001N1+02691+01771101011ADDGF103991031011008001001001KA1240M+03371MA1999999096161MD1999999+0081REMSYN088AAXX  17004 83288 32595 32702 10269 20177 39616 40101 83100 333 10337 29047 55117 58008;
0156832880999992006011712004-13267-043417FM-12+0440SBLP V0201801N001012200019N0200001N1+02631+02051101201ADDGF105991031011008001001041KA1240N+01961MA1999999096351MD1999999+0021REMSYN076AAXX  17124 83288 32598 51802 10263 20205 39635 40120 83104 333 20196 58002;
0137832880999992006011718004-13267-043417FM-12+0440SBLP V0201801N002612200019N0200001N1+03181+01801100811ADDGF101991011021008001001001MA1999999095981MD1999999-0081REMSYN070AAXX  17184 83288 32598 11805 10318 20180 39598 40081 81200 333 59008;
0178832880999992006011800004-13267-043417FM-12+0440SBLP V0202301N001512200019N0020001N1+02781+01931100851ADDGA1001+999999999GF100991001001999999001001KA1240M+03311MA1999999096011MD1999999-0151REMSYN082AAXX  18004 83288 32995 02303 10278 20193 39601 40085 333 10331 29059 55109 59015;
0156832880999992006011812004-13267-043417FM-12+0440SBLP V0201401N001512200019N0200001N1+02731+01791101071ADDGF101991001001999999001091KA1240N+02121MA1999999096231MD1999999-0121REMSYN076AAXX  18124 83288 32998 11403 10273 20179 39623 40107 80009 333 20212 59012;
0178832880999992006011900004-13267-043417FM-12+0440SBLP V0209999C000012200019N0020001N1+02871+01981100711ADDGA1001+999999999GF100991001001999999001001KA1240M+03421MA1999999095901MD1999999-0111REMSYN082AAXX  19004 83288 32995 00000 10287 20198 39590 40071 333 10342 29055 55107 59011;
0156832880999992006011912004-13267-043417FM-12+0440SBLP V0201801N002112200019N0200001N1+02671+01871101021ADDGF104991001001999999001021KA1240N+02101MA1999999096201MD1999999-0031REMSYN076AAXX  19124 83288 32998 41804 10267 20187 39620 40102 80002 333 20210 59003;
0137832880999992006011918004-13267-043417FM-12+0440SBLP V0202701N001012200019N0200001N1+03321+01891100601ADDGF104991021021008001001041MA1999999095741MD1999999-0151REMSYN070AAXX  19184 83288 32598 42702 10332 20189 39574 40060 82204 333 59015;
0178832880999992006012000004-13267-043417FM-12+0440SBLP V0201801N001512200019N0020001N1+02731+01661100591ADDGA1001+999999999GF100991001001999999001001KA1240M+03411MA1999999095761MD1999999-0141REMSYN082AAXX  20004 83288 32995 01803 10273 20166 39576 40059 333 10341 29052 55116 59014;
0156832880999992006012012004-13267-043417FM-12+0440SBLP V0201401N001512200019N0200001N1+02641+01981101031ADDGF106991031011008001001041KA1240N+01971MA1999999096181MD1999999-0021REMSYN076AAXX  20124 83288 32598 61403 10264 20198 39618 40103 83104 333 20197 59002;
0137832880999992006012018004-13267-043417FM-12+0440SBLP V0209999C000012200019N0200001N1+03461+01481100581ADDGF105991021011008001001041MA1999999095811MD1999999+0051REMSYN070AAXX  20184 83288 32598 51800 10346 20148 39581 40058 82104 333 58005;
0178832880999992006012100004-13267-043417FM-12+0440SBLP V0201401N002112200019N0020001N1+02721+01671100601ADDGA1001+999999999GF100991001001999999001001KA1240M+03651MA1999999095831MD1999999-0071REMSYN082AAXX  21004 83288 32995 01404 10272 20167 39583 40060 333 10365 29046 55112 59007;
0185832880999992006012112004-13267-043417FM-12+0440SBLP V0201401N003112200019N0200001N1+02601+01851101301ADDGA1001+999999999GF100991001001999999001001KA1240N+99999MA1999999096431MD1999999+0251REMSYN070AAXX  21124 83288 32998 01406 10260 20185 39643 40130 333 20286 58025;EQDQ01 +02862ATMN  
0137832880999992006012118004-13267-043417FM-12+0440SBLP V0201401N002612200019N0200001N1+03281+01861100791ADDGF103991031021008001001001MA1999999095981MD1999999+0161REMSYN070AAXX  21184 83288 32598 31405 10328 20186 39598 40079 83200 333 58016;
0166832880999992006012212004-13267-043417FM-12+0440SBLP V0201401N001512200019N0200001N1+02671+01661101271ADDGA1001+999999999GF100991001001999999001001KA1240N+01861MA1999999096401MD1999999-0031REMSYN070AAXX  22124 83288 32998 01403 10267 20166 39640 40127 333 20186 59003;
0137832880999992006012218004-13267-043417FM-12+0440SBLP V0202301N001512200019N0200001N1+03281+01781100851ADDGF104991041021008001001001MA1999999095921MD1999999-0061REMSYN070AAXX  22184 83288 32598 42303 10328 20178 39592 40085 84200 333 59006;
0166832880999992006012312004-13267-043417FM-12+0440SBLP V0201801N001012200019N0200001N1+02671+02181101271ADDGA1001+999999999GF100991001001999999001001KA1240N+02111MA1999999096411MD1999999+0011REMSYN070AAXX  23124 83288 32998 01802 10267 20218 39641 40127 333 20211 58001;
0156832880999992006012318004-13267-043417FM-12+0440SBLP V0201401N001512200019N0200001N1+03441+02041100651ADDGF102991999011008001001001MA1999999095811MD1999999-0011REMSYN070AAXX  23184 83288 32598 21403 10344 20204 39581 40065 81100 333 59001;EQDQ01+000012SCOTLC
0178832880999992006012400004-13267-043417FM-12+0440SBLP V0201401N001512200019N0020001N1+02991+01951100631ADDGA1001+999999999GF100991001001999999001001KA1240M+03521MA1999999095881MD1999999-0041REMSYN082AAXX  24004 83288 32595 01403 10299 20195 39588 40063 333 10352 29058 55118 59004;
0156832880999992006012412004-13267-043417FM-12+0440SBLP V0200901N001512200019N0200001N1+02881+01831101031ADDGF102991021021008001001001KA1240N+02081MA1999999096241MD1999999-0171REMSYN076AAXX  24124 83288 32598 20903 10288 20183 39624 40103 82200 333 20208 59017;
0137832880999992006012418004-13267-043417FM-12+0440SBLP V0202301N002112200019N0200001N1+03581+01841100431ADDGF102991021021008001001001MA1999999095681MD1999999-0031REMSYN070AAXX  24184 83288 32598 22304 10358 20184 39568 40043 82200 333 59003;
0213832880999992006012500004-13267-043417FM-12+0440SBLP V0201401N002110090019N0020001N1+02221+02171100981ADDAA106004191AY191061AY261061GF108991051081004501001071KA1240M+03641MA1999999096111MD1999999+0231MW1131REMSYN100AAXX  25004 83288 21495 81404 10222 20217 39611 40098 71396 85807 333 10364 29071 55115 58023 60041;
0173832880999992006012512004-13267-043417FM-12+0440SBLP V0201801N001011050019N0200001N1+02431+02121101371ADDAA124004191GF105991021021008001071041KA1240N+01941MA1999999096431MD1999999+0191REMSYN082AAXX  25124 83288 22598 51802 10243 20212 39643 40137 82274 333 20194 58019 60044;
0137832880999992006012518004-13267-043417FM-12+0440SBLP V0202301N001512200019N0200001N1+03381+01981101031ADDGF105991021021008001001061MA1999999096061MD1999999+0381REMSYN070AAXX  25184 83288 32598 52303 10338 20198 39606 40103 82206 333 58038;
0196832880999992006012600004-13267-043417FM-12+0440SBLP V0200901N000512200019N0020001N1+02531+01771101051ADDAY111061AY201061GF103991031091008001001001KA1240M+03431MA1999999096161MD1999999+0051MW1131REMSYN094AAXX  26004 83288 31595 30901 10253 20177 39616 40105 71310 83900 333 10343 29064 55075 58005;
0156832880999992006012612004-13267-043417FM-12+0440SBLP V0202701N000511050019N0200001N1+02591+02211101361ADDGF105991031011008001001021KA1240N+01961MA1999999096471MD1999999+0041REMSYN076AAXX  26124 83288 32598 52701 10259 20221 39647 40136 83102 333 20196 58004;
0137832880999992006012618004-13267-043417FM-12+0440SBLP V0201801N001012200019N0200001N1+03521+01911100681ADDGF103991021021008001001041MA1999999095901MD1999999-0161REMSYN070AAXX  26184 83288 32598 31802 10352 20191 39590 40068 82204 333 59016;
0168832880999992006012700004-13267-043417FM-12+0440SBLP V0202301N001012200019N0020001N1+03071+02351101001ADDGF102991021011008001001001KA1240M+03581MA1999999096011MD1999999-0151REMSYN088AAXX  27004 83288 32595 22302 10307 20235 39601 40100 82100 333 10358 29061 55056 59015;
0156832880999992006012712004-13267-043417FM-12+0440SBLP V0201401N001012200019N0200001N1+02841+02121101111ADDGF101991001001999999001011KA1240N+02171MA1999999096311MD1999999-0161REMSYN076AAXX  27124 83288 32998 11402 10284 20212 39631 40111 80001 333 20217 59016;
0137832880999992006012718004-13267-043417FM-12+0440SBLP V0202301N001512200019N0200001N1+03531+01991100581ADDGF103991011021008001001021MA1999999095841MD1999999-0061REMSYN070AAXX  27184 83288 32598 32303 10353 20199 39584 40058 81202 333 59006;
0178832880999992006012800004-13267-043417FM-12+0440SBLP V0203201N001512200019N0020001N1+03001+02111100781ADDGA1001+999999999GF100991001001999999001001KA1240M+03621MA1999999095991MD1999999-0021REMSYN082AAXX  28004 83288 32995 03203 10300 20211 39599 40078 333 10362 29056 55086 59002;
0166832880999992006012812004-13267-043417FM-12+0440SBLP V0201801N001012200019N0020001N1+02821+01711101151ADDGA1001+999999999GF100991001001999999001001KA1240N+02171MA1999999096341MD1999999+0031REMSYN070AAXX  28124 83288 32995 01802 10282 20171 39634 40115 333 20217 58003;
0147832880999992006012818004-13267-043417FM-12+0440SBLP V0202701N002112200019N0200001N1+03501+01861100781ADDGA1001+999999999GF100991001001999999001001MA1999999095931MD1999999+0091REMSYN064AAXX  28184 83288 32598 02704 10350 20186 39593 40078 333 58009;
0137832880999992006012918004-13267-043417FM-12+0440SBLP V0201801N001511050019N0200001N1+03431+02291100621ADDGF105991041011008001001021MA1999999095861MD1999999-0071REMSYN070AAXX  29184 83288 32598 51803 10343 20229 39586 40062 84102 333 59007;
0156832880999992006013012004-13267-043417FM-12+0440SBLP V0203601N001512200019N0200001N1+02871+01871100991ADDGF101991001001999999001091KA1240N+02171MA1999999096211MD1999999-0041REMSYN076AAXX  30124 83288 32998 13603 10287 20187 39621 40099 80009 333 20217 59004;
0137832880999992006013018004-13267-043417FM-12+0440SBLP V0203201N001512200019N0200001N1+03531+01831100481ADDGF103991011021008001001021MA1999999095741MD1999999-0121REMSYN070AAXX  30184 83288 32598 33203 10353 20183 39574 40048 81202 333 59012;
0178832880999992006013100004-13267-043417FM-12+0440SBLP V0202301N001512200019N0020001N1+02831+01911100681ADDGA1001+999999999GF100991001001999999001001KA1240M+03621MA1999999095881MD1999999+0131REMSYN082AAXX  31004 83288 32995 02303 10283 20191 39588 40068 333 10362 29052 55109 58013;
0156832880999992006013112004-13267-043417FM-12+0440SBLP V0200901N001012200019N0200001N1+02811+02091100941ADDGF102991011011008001001021KA1240N+02221MA1999999096121MD1999999-0091REMSYN076AAXX  31124 83288 32598 20902 10281 20209 39612 40094 81102 333 20222 59009;
0137832880999992006013118004-13267-043417FM-12+0440SBLP V0202701N001512200019N0200001N1+03521+01921100551ADDGF104991021021008001001041MA1999999095691MD1999999-0051REMSYN070AAXX  31184 83288 32598 42703 10352 20192 39569 40055 82204 333 59005;
0196832880999992006020100004-13267-043417FM-12+0440SBLP V0201801N001512200019N0020001N1+03071+01771100561ADDAY111061AY201061GF103991031091008001001001KA1240M+03611MA1999999095791MD1999999-0091MW1131REMSYN094AAXX  01004 83288 31595 31803 10307 20177 39579 40056 71310 83900 333 10361 29050 55109 59009;
0156832880999992006020112004-13267-043417FM-12+0440SBLP V0200901N001512200019N0200001N1+02831+02011100971ADDGF101991001001999999001011KA1240N+02161MA1999999096181MD1999999+0061REMSYN076AAXX  01124 83288 32998 10903 10283 20201 39618 40097 80001 333 20216 58006;
0137832880999992006020118004-13267-043417FM-12+0440SBLP V0202701N002612200019N0200001N1+03521+01961100571ADDGF104991021021008001001051MA1999999095731MD1999999+0041REMSYN070AAXX  01184 83288 32598 42705 10352 20196 39573 40057 82205 333 58004;
0168832880999992006020200004-13267-043417FM-12+0440SBLP V0201401N001012200019N0020001N1+02991+01891100581ADDGF101991011011008001001001KA1240M+03531MA1999999095801MD1999999+0011REMSYN088AAXX  02004 83288 32595 11402 10299 20189 39580 40058 81100 333 10353 29051 55101 58001;
0156832880999992006020212004-13267-043417FM-12+0440SBLP V0200901N001012200019N0200001N1+02651+02031101251ADDGF103991011011008001001021KA1240N+02131MA1999999096421MD1999999+0241REMSYN076AAXX  02124 83288 32598 30902 10265 20203 39642 40125 81102 333 20213 58024;
0137832880999992006020218004-13267-043417FM-12+0440SBLP V0202301N001510450019N0200001N1+03191+01961100651ADDGF107991041021008001021051MA1999999095901MD1999999+0171REMSYN070AAXX  02184 83288 32598 72303 10319 20196 39590 40065 84225 333 58017;
0168832880999992006020300004-13267-043417FM-12+0440SBLP V0202701N001510075019N0020001N1+02851+01991100721ADDGF108991061051008001021999KA1240M+03341MA1999999095901MD1999999+0101REMSYN088AAXX  03004 83288 32595 82703 10285 20199 39590 40072 8652/ 333 10334 29059 55063 58010;
0156832880999992006020312004-13267-043417FM-12+0440SBLP V0200901N001010450019N0200001N1+02681+01971101011ADDGF106991041011008001041001KA1240N+02181MA1999999096171MD1999999-0251REMSYN076AAXX  03124 83288 32598 60902 10268 20197 39617 40101 84140 333 20218 59025;
0137832880999992006020318004-13267-043417FM-12+0440SBLP V0202301N002111050019N0200001N1+03221+01731100681ADDGF106991021011008001001081MA1999999095811MD1999999-0091REMSYN070AAXX  03184 83288 32598 62304 10322 20173 39581 40068 82108 333 59009;
0168832880999992006020400004-13267-043417FM-12+0440SBLP V0201801N000511050019N0020001N1+02991+01871100681ADDGF108991021011008001001071KA1240M+03391MA1999999095871MD1999999-0031REMSYN088AAXX  04004 83288 32595 81801 10299 20187 39587 40068 82107 333 10339 29052 55055 59003;
0137832880999992006020418004-13267-043417FM-12+0440SBLP V0202301N002112200019N0200001N1+03421+01701101521ADDGF103991021021008001001011MA1999999095661MD1999999-0151REMSYN070AAXX  04184 83288 32598 32304 10342 20170 39566 40152 82201 333 59015;
0168832880999992006020500004-13267-043417FM-12+0440SBLP V0203201N002110120019N0020001N1+02991+01921100581ADDGF107991071081008001001001KA1240M+03611MA1999999095761MD1999999-0111REMSYN088AAXX  05004 83288 32595 73204 10299 20192 39576 40058 87800 333 10361 29050 55106 59011;
0156832880999992006020512004-13267-043417FM-12+0440SBLP V0201801N001511050019N0200001N1+02761+01911101111ADDGF106991041011008001001021KA1240N+02271MA1999999096291MD1999999+0191REMSYN076AAXX  05124 83288 32598 61803 10276 20191 39629 40111 84102 333 20227 58019;
0137832880999992006020518004-13267-043417FM-12+0440SBLP V0201401N000512200019N0200001N1+03371+02211100401ADDGF104991031021008001001011MA1999999095751MD1999999+0091REMSYN070AAXX  05184 83288 32598 41401 10337 20221 39575 40040 83201 333 58009;
0187832880999992006020600004-13267-043417FM-12+0440SBLP V0202301N000512200019N0020001N1+03051+02281100491ADDGF102991999011008001001001KA1240M+03491MA1999999095771MD1999999+0011REMSYN088AAXX  06004 83288 32595 22301 10305 20228 39577 40049 81100 333 10349 29056 55080 58001;EQDQ01+000012SCOTLC
0156832880999992006020612004-13267-043417FM-12+0440SBLP V0200901N002112200019N0200001N1+02891+01901100921ADDGF102991021011008001001001KA1240N+02241MA1999999096141MD1999999-0151REMSYN076AAXX  06124 83288 32598 20904 10289 20190 39614 40092 82100 333 20224 59015;
0137832880999992006020618004-13267-043417FM-12+0440SBLP V0202301N001512200019N0200001N1+03421+01741100541ADDGF103991031011008001001001MA1999999095721MD1999999-0031REMSYN070AAXX  06184 83288 32598 32303 10342 20174 39572 40054 83100 333 59003;
0168832880999992006020700004-13267-043417FM-12+0440SBLP V0203601N001512200019N0020001N1+03111+01981100591ADDGF103991031011008001001001KA1240M+03551MA1999999095831MD1999999+0061REMSYN088AAXX  07004 83288 32595 33603 10311 20198 39583 40059 83100 333 10355 29048 55112 58006;
0156832880999992006020712004-13267-043417FM-12+0440SBLP V0203601N001511050019N0200001N1+02631+02071101021ADDGF105991041081008001001021KA1240N+02271MA1999999096221MD1999999+0081REMSYN076AAXX  07124 83288 32598 53603 10263 20207 39622 40102 84802 333 20227 58008;
0137832880999992006020718004-13267-043417FM-12+0440SBLP V0203601N002110450019N0200001N1+03321+01931100581ADDGF106991031021008001021021MA1999999095751MD1999999+0031REMSYN070AAXX  07184 83288 32598 63604 10332 20193 39575 40058 83222 333 58003;
0178832880999992006020800004-13267-043417FM-12+0440SBLP V0203201N001512200019N0020001N1+02651+02041100781ADDGA1001+999999999GF100991001001999999001001KA1240M+03411MA1999999095941MD1999999+0111REMSYN082AAXX  08004 83288 32995 03203 10265 20204 39594 40078 333 10341 29064 55064 58011;
0156832880999992006020812004-13267-043417FM-12+0440SBLP V0203601N000512200019N0200001N1+02791+02231101061ADDGF104991021011008001021041KA1240N+02131MA1999999096231MD1999999-0011REMSYN076AAXX  08124 83288 32598 43601 10279 20223 39623 40106 82124 333 20213 59001;
0137832880999992006020818004-13267-043417FM-12+0440SBLP V0200901N000512200019N0200001N1+03381+02221100571ADDGF103991031021008001021021MA1999999095811MD1999999+0061REMSYN070AAXX  08184 83288 32598 30901 10338 20222 39581 40057 83222 333 58006;
0168832880999992006020900004-13267-043417FM-12+0440SBLP V0201401N000510075019N0020001N1+02571+02211100911ADDGF106991051051008001021001KA1240M+03431MA1999999096021MD1999999+0081REMSYN088AAXX  09004 83288 32595 61401 10257 20221 39602 40091 85520 333 10343 29068 55053 58008;
0156832880999992006020912004-13267-043417FM-12+0440SBLP V0202701N001510120019N0200001N1+02591+02241101291ADDGF105991051081008001001001KA1240N+02041MA1999999096411MD1999999+0181REMSYN076AAXX  09124 83288 32598 52703 10259 20224 39641 40129 85800 333 20204 58018;
0137832880999992006020918004-13267-043417FM-12+0440SBLP V0202301N001512200019N0200001N1+03481+01961100851ADDGF106991021021008001001061MA1999999095941MD1999999+0131REMSYN070AAXX  09184 83288 32598 62303 10348 20196 39594 40085 82206 333 58013;
0168832880999992006021000004-13267-043417FM-12+0440SBLP V0200901N000512200019N0200001N1+02991+02161100781ADDGF103991011011008001001051KA1240M+03531MA1999999095971MD1999999-0051REMSYN088AAXX  10004 83288 32598 30901 10299 20216 39597 40078 81105 333 10353 29061 55083 59005;
0156832880999992006021012004-13267-043417FM-12+0440SBLP V0203201N002112200019N0200001N1+02811+02151101131ADDGF104991011021008001031011KA1240N+02281MA1999999096321MD1999999-0091REMSYN076AAXX  10124 83288 32598 43204 10281 20215 39632 40113 81231 333 20228 59009;
0137832880999992006021018004-13267-043417FM-12+0440SBLP V0203201N004112200019N0200001N1+03441+02001100811ADDGF103991021021008001001011MA1999999095961MD1999999+0021REMSYN070AAXX  10184 83288 32598 33208 10344 20200 39596 40081 82201 333 58002;
0168832880999992006021100004-13267-043417FM-12+0440SBLP V0200901N000512200019N0020001N1+02551+02131101061ADDGF103991021081008001031001KA1240M+03611MA1999999096201MD1999999+0231REMSYN088AAXX  11004 83288 32595 30901 10255 20213 39620 40106 82830 333 10361 29066 55073 58023;
0201832880999992006021112004-13267-043417FM-12+0440SBLP V0203201N001012200019N0200001N1+02531+02231101431ADDAA124025991AY161061AY251061GF104991031011008001001021KA1240N+02081MA1999999096541MD1999999+0221MW1021REMSYN088AAXX  11124 83288 21598 43202 10253 20223 39654 40143 70265 83102 333 20208 58022 60264;
0137832880999992006021118004-13267-043417FM-12+0440SBLP V0203601N000511050019N0200001N1+03391+02471100701ADDGF105991021021008001001021MA1999999095921MD1999999-0041REMSYN070AAXX  11184 83288 32598 53601 10339 20247 39592 40070 82202 333 59004;
0168832880999992006021200004-13267-043417FM-12+0440SBLP V0200901N001010450019N0020001N1+02521+02291100931ADDGF106991041051008001021001KA1240M+03461MA1999999096111MD1999999-0091REMSYN088AAXX  12004 83288 32595 60902 10252 20229 39611 40093 84520 333 10346 29077 55098 59009;
0156832880999992006021212004-13267-043417FM-12+0440SBLP V0200901N001012200019N0200001N1+02631+02151101161ADDGF106991021011008001001061KA1240N+02201MA1999999096291MD1999999-0251REMSYN076AAXX  12124 83288 32598 60902 10263 20215 39629 40116 82106 333 20220 59025;
0137832880999992006021218004-13267-043417FM-12+0440SBLP V0201801N001011050019N0200001N1+03301+02151100711ADDGF106991031021008001001051MA1999999095811MD1999999-0111REMSYN070AAXX  12184 83288 32598 61802 10330 20215 39581 40071 83205 333 59011;
0168832880999992006021300004-13267-043417FM-12+0440SBLP V0202701N001511050019N0020001N1+02811+02191100901ADDGF108991031021008001001071KA1240M+03391MA1999999096061MD1999999-0051REMSYN088AAXX  13004 83288 32595 82703 10281 20219 39606 40090 83207 333 10339 29065 55086 59005;
0201832880999992006021312004-13267-043417FM-12+0440SBLP V0201401N000510075019N0200001N1+02281+02161101361ADDAA124017091AY191061AY261061GF108991081051008001999999KA1240N+02041MA1999999096471MD1999999+0271MW1031REMSYN088AAXX  13124 83288 21598 81401 10228 20216 39647 40136 70396 885// 333 20204 58027 60174;
0137832880999992006021318004-13267-043417FM-12+0440SBLP V0202701N001012200019N0200001N1+02931+02291100911ADDGF103991001001999999001021MA1999999096011MD1999999+0201REMSYN070AAXX  13184 83288 32998 32702 10293 20229 39601 40091 80002 333 58020;
0168832880999992006021400004-13267-043417FM-12+0440SBLP V0209999C000010450019N0020001N1+02731+02431100921ADDGF108991041071008001021999KA1240M+03111MA1999999096041MD1999999-0021REMSYN088AAXX  14004 83288 32595 80000 10273 20243 39604 40092 8472/ 333 10311 29082 55054 59002;
0156832880999992006021412004-13267-043417FM-12+0440SBLP V0201801N001010075019N0200001N1+02511+02361101261ADDGF106991061021008001021041KA1240N+02171MA1999999096381MD1999999-0091REMSYN076AAXX  14124 83288 32598 61802 10251 20236 39638 40126 86224 333 20217 59009;
0137832880999992006021418004-13267-043417FM-12+0440SBLP V0202701N000512200019N0200001N1+03281+02591100721ADDGF103991031021008001001021MA1999999095931MD1999999-0081REMSYN070AAXX  14184 83288 32598 32701 10328 20259 39593 40072 83202 333 59008;
0168832880999992006021500004-13267-043417FM-12+0440SBLP V0202701N000512200019N0020001N1+02901+02541100751ADDGF104991031081008001001021KA1240M+03381MA1999999095921MD1999999-0121REMSYN088AAXX  15004 83288 32595 42701 10290 20254 39592 40075 83802 333 10338 29080 55070 59012;
0201832880999992006021512004-13267-043417FM-12+0440SBLP V0201801N001510075019N0200001N1+02571+02241101221ADDAA124009991AY161061AY261061GF108991051051008001011999KA1240N+02161MA1999999096361MD1999999-0021MW1031REMSYN088AAXX  15124 83288 21598 81803 10257 20224 39636 40122 70366 8551/ 333 20216 59002 60104;
0137832880999992006021518004-13267-043417FM-12+0440SBLP V0203601N001011050019N0200001N1+03031+02191100901ADDGF105991031021008001001021MA1999999096021MD1999999+0091REMSYN070AAXX  15184 83288 32598 53602 10303 20219 39602 40090 83202 333 58009;
0168832880999992006021600004-13267-043417FM-12+0440SBLP V0203601N001012200019N0020001N1+02791+02331100941ADDGF103991011021008001031021KA1240M+03171MA1999999096101MD1999999+0181REMSYN088AAXX  16004 83288 32595 33602 10279 20233 39610 40094 81232 333 10317 29073 55081 58018;
0201832880999992006021612004-13267-043417FM-12+0440SBLP V0201801N000512200019N0200001N1+02391+02211101251ADDAA124018091AY191061AY261061GF105991041081008001001011KA1240N+02021MA1999999096371MD1999999+0011MW1011REMSYN088AAXX  16124 83288 21598 51801 10239 20221 39637 40125 70196 84801 333 20202 58001 60184;
0137832880999992006021618004-13267-043417FM-12+0440SBLP V0201801N001012200019N0200001N1+03131+02021100791ADDGF103991021021008001001011MA1999999095901MD1999999-0121REMSYN070AAXX  16184 83288 32598 31802 10313 20202 39590 40079 82201 333 59012;
0178832880999992006021700004-13267-043417FM-12+0440SBLP V0201801N000512200019N0020001N1+02791+02211100841ADDGA1001+999999999GF100991001001999999001001KA1240M+03231MA1999999095981MD1999999-0121REMSYN082AAXX  17004 83288 32995 01801 10279 20221 39598 40084 333 10323 29071 55089 59012;
0166832880999992006021712004-13267-043417FM-12+0440SBLP V0201801N000512200019N0200001N1+02581+02281101111ADDGA1001+999999999GF100991001001999999001001KA1240N+02001MA1999999096261MD1999999-0111REMSYN070AAXX  17124 83288 32998 01801 10258 20228 39626 40111 333 20200 59011;
0137832880999992006021718004-13267-043417FM-12+0440SBLP V0202301N001512200019N0200001N1+03251+02221100511ADDGF103991021021008001001011MA1999999095731MD1999999-0171REMSYN070AAXX  17184 83288 32598 32303 10325 20222 39573 40051 82201 333 59017;
0178832880999992006021800004-13267-043417FM-12+0440SBLP V0202301N002612200019N0020001N1+02851+02141100681ADDGA1001+999999999GF100991001001999999001001KA1240M+03351MA1999999095821MD1999999-0161REMSYN082AAXX  18004 83288 32995 02305 10285 20214 39582 40068 333 10335 29065 55117 59016;
0156832880999992006021812004-13267-043417FM-12+0440SBLP V0200901N001012200019N0200001N1+02781+01931101181ADDGF103991001001999999001051KA1240N+02321MA1999999096351MD1999999+0091REMSYN076AAXX  18124 83288 32998 30902 10278 20193 39635 40118 80005 333 20232 58009;
0137832880999992006021818004-13267-043417FM-12+0440SBLP V0203201N001012200019N0200001N1+03321+01781100811ADDGF103991031021008001001001MA1999999095951MD1999999+0221REMSYN070AAXX  18184 83288 32598 33202 10332 20178 39595 40081 83200 333 58022;
0178832880999992006021900004-13267-043417FM-12+0440SBLP V0202701N001512200019N0020001N1+02971+02031100861ADDGA1001+999999999GF100991001001999999001001KA1240M+03431MA1999999096061MD1999999+0241REMSYN082AAXX  19004 83288 32995 02703 10297 20203 39606 40086 333 10343 29052 55116 58024;
0201832880999992006021912004-13267-043417FM-12+0440SBLP V0203601N001510450019N0200001N1+02471+02191101421ADDAA124002091AY161061AY221061GF107991041081008001021001KA1240N+02181MA1999999096551MD1999999+0201MW1021REMSYN088AAXX  19124 83288 21598 73603 10247 20219 39655 40142 70262 84820 333 20218 58020 60024;
0137832880999992006021918004-13267-043417FM-12+0440SBLP V0203201N001012200019N0200001N1+03111+01951101041ADDGF104991011021008001031021MA1999999096171MD1999999+0221REMSYN070AAXX  19184 83288 32598 43202 10311 20195 39617 40104 81232 333 58022;
0178832880999992006022000004-13267-043417FM-12+0440SBLP V0203601N001512200019N0020001N1+02591+02271101031ADDGA1001+999999999GF100991001001999999001001KA1240M+03191MA1999999096151MD1999999+0091REMSYN082AAXX  20004 83288 32995 03603 10259 20227 39615 40103 333 10319 29075 55054 58009;
0156832880999992006022012004-13267-043417FM-12+0440SBLP V0200901N000512200019N0200001N1+02701+02201101301ADDGF102991021011008001001001KA1240N+02051MA1999999096431MD1999999-0121REMSYN076AAXX  20124 83288 32598 20901 10270 20220 39643 40130 82100 333 20205 59012;
0156832880999992006022018004-13267-043417FM-12+0440SBLP V0202701N001519999999N0200001N1+03341+02511100671ADDGF105991999021008001001001MA1999999095901MD1999999-0271REMSYN070AAXX  20184 83288 32598 52703 10334 20251 39590 40067 84200 333 59027;EQDQ01+000042SCOTLC
0178832880999992006022100004-13267-043417FM-12+0440SBLP V0202301N001012200019N0020001N1+02991+02511100591ADDGA1001+999999999GF100991001001999999001001KA1240M+03391MA1999999095801MD1999999-0351REMSYN082AAXX  21004 83288 32995 02302 10299 20251 39580 40059 333 10339 29071 55115 59035;
0156832880999992006022112004-13267-043417FM-12+0440SBLP V0203601N001012200019N0200001N1+02731+02161100951ADDGF103991001001999999001051KA1240N+02191MA1999999096141MD1999999-0291REMSYN076AAXX  21124 83288 32998 33602 10273 20216 39614 40095 80005 333 20219 59029;
0137832880999992006022118004-13267-043417FM-12+0440SBLP V0202701N001012200019N0200001N1+03401+02001100581ADDGF103991021021008001001051MA1999999095741MD1999999-0161REMSYN070AAXX  21184 83288 32598 32702 10340 20200 39574 40058 82205 333 59016;
0168832880999992006022200004-13267-043417FM-12+0440SBLP V0202701N001012200019N0020001N1+02791+02121100701ADDGF102991021011008001001001KA1240M+03471MA1999999095881MD1999999+0081REMSYN088AAXX  22004 83288 32595 22702 10279 20212 39588 40070 82100 333 10347 29061 55101 58008;
0156832880999992006022212004-13267-043417FM-12+0440SBLP V0203201N001512200019N0200001N1+02631+02101101091ADDGF103991021021008001001041KA1240N+02161MA1999999096241MD1999999+0101REMSYN076AAXX  22124 83288 32598 33203 10263 20210 39624 40109 82204 333 20216 58010;
0137832880999992006022218004-13267-043417FM-12+0440SBLP V0202701N003112200019N0200001N1+03301+02121100641ADDGF103991021021008001001021MA1999999095771MD1999999+0031REMSYN070AAXX  22184 83288 32598 32706 10330 20212 39577 40064 82202 333 58003;
0178832880999992006022300004-13267-043417FM-12+0440SBLP V0202301N001012200019N0020001N1+02731+02211100741ADDGA1001+999999999GF100991001001999999001001KA1240M+03371MA1999999095911MD1999999+0031REMSYN082AAXX  23004 83288 32995 02302 10273 20221 39591 40074 333 10337 29066 55085 58003;
0156832880999992006022312004-13267-043417FM-12+0440SBLP V0203201N000510450019N0200001N1+02621+02311101171ADDGF106991041021008001051021KA1240N+02221MA1999999096311MD1999999-0071REMSYN076AAXX  23124 83288 32598 63201 10262 20231 39631 40117 84252 333 20222 59007;
0137832880999992006022318004-13267-043417FM-12+0440SBLP V0202701N001510450019N0200001N1+03371+02111100511ADDGF105991031021008001051021MA1999999095751MD1999999-0021REMSYN070AAXX  23184 83288 32598 52703 10337 20211 39575 40051 83252 333 59002;
0178832880999992006022400004-13267-043417FM-12+0440SBLP V0200901N000512200019N0020001N1+02831+02441100841ADDGA1001+999999999GF100991001001999999001001KA1240M+03411MA1999999096001MD1999999-0091REMSYN082AAXX  24004 83288 32995 00901 10283 20244 39600 40084 333 10341 29070 55099 59009;
0201832880999992006022412004-13267-043417FM-12+0440SBLP V0200901N001010075019N0200001N1+02291+02241101241ADDAA124007991AY161061AY261061GF108991081051008001999999KA1240N+02121MA1999999096351MD1999999+0041MW1031REMSYN088AAXX  24124 83288 21598 80902 10229 20224 39635 40124 70366 885// 333 20212 58004 60084;
0137832880999992006022418004-13267-043417FM-12+0440SBLP V0203601N001512200019N0200001N1+03031+02141100711ADDGF104991031091008001001051MA1999999095841MD1999999-0091REMSYN070AAXX  24184 83288 32598 43603 10303 20214 39584 40071 83905 333 59009;
0168832880999992006022500004-13267-043417FM-12+0440SBLP V0203601N001012200019N0020001N1+02631+02171100851ADDGF102991021021008001001001KA1240M+03111MA1999999095961MD1999999-0041REMSYN088AAXX  25004 83288 32595 23602 10263 20217 39596 40085 82200 333 10311 29077 55071 59004;
0156832880999992006022512004-13267-043417FM-12+0440SBLP V0203601N001012200019N0200001N1+02631+02271101101ADDGF102991001001999999001011KA1240N+02041MA1999999096241MD1999999-0111REMSYN076AAXX  25124 83288 32998 23602 10263 20227 39624 40110 80001 333 20204 59011;
0137832880999992006022518004-13267-043417FM-12+0440SBLP V0203201N001012200019N0200001N1+03321+02051100601ADDGF104991021021008001001021MA1999999095801MD1999999-0041REMSYN070AAXX  25184 83288 32598 43202 10332 20205 39580 40060 82202 333 59004;
0156832880999992006022612004-13267-043417FM-12+0440SBLP V0202701N001010450019N0200001N1+02691+02351101091ADDGF105991031021008001021021KA1240N+02271MA1999999096251MD1999999+0011REMSYN076AAXX  26124 83288 32598 52702 10269 20235 39625 40109 83222 333 20227 58001;
0137832880999992006022618004-13267-043417FM-12+0440SBLP V0203201N003110450019N0200001N1+03041+01611100511ADDGF106991041021008001021011MA1999999095721MD1999999-0081REMSYN070AAXX  26184 83288 32598 63206 10304 20161 39572 40051 84221 333 59008;
0201832880999992006022712004-13267-043417FM-12+0440SBLP V0209999C000010120019N0200001N1+02731+02331101031ADDAA124003091AY161061AY261061GF106991061081008001001001KA1240N+02261MA1999999096191MD1999999-0061MW1021REMSYN088AAXX  27124 83288 21598 60000 10273 20233 39619 40103 70266 86800 333 20226 59006 60034;
0201832880999992006022718004-13267-043417FM-12+0440SBLP V0201801N001512200019N0200001N1+02911+02311100711ADDAA106000091AY151061AY211061GF106991041091008001001061MA1999999095841MD1999999+0121MW1171REMSYN082AAXX  27184 83288 21598 61803 10291 20231 39584 40071 71751 84906 333 58012 69921;EQDQ01  00002PRCP06
0201832880999992006022812004-13267-043417FM-12+0440SBLP V0203201N000511050019N0200001N1+02651+02351101171ADDAA124004191AY161061AY221061GF105991011021008001031061KA1240N+02221MA1999999096261MD1999999+0071MW1021REMSYN088AAXX  28124 83288 21598 53201 10265 20235 39626 40117 70262 81236 333 20222 58007 60044;
0137832880999992006022818004-13267-043417FM-12+0440SBLP V0203201N001012200019N0200001N1+03261+02301100681ADDGF106991021021008001001061MA1999999095811MD1999999-0031REMSYN070AAXX  28184 83288 32598 63202 10326 20230 39581 40068 82206 333 59003;
0156832880999992006030112004-13267-043417FM-12+0440SBLP V0201401N000512200019N0200001N1+02591+02381101331ADDGF103991021011008001001021KA1240N+01851MA1999999096441MD1999999+0181REMSYN076AAXX  01124 83288 32598 31401 10259 20238 39644 40133 82102 333 20185 58018;
0137832880999992006030118004-13267-043417FM-12+0440SBLP V0201401N001012200019N0200001N1+03451+02071100581ADDGF104991031011008001001041MA1999999095821MD1999999+0011REMSYN070AAXX  01184 83288 32598 41402 10345 20207 39582 40058 83104 333 58001;
0178832880999992006030200004-13267-043417FM-12+0440SBLP V0201401N000512200019N0020001N1+02881+02321100661ADDGA1001+999999999GF100991001001999999001001KA1240M+03401MA1999999095921MD1999999-0111REMSYN082AAXX  02004 83288 32995 01401 10288 20232 39592 40066 333 10340 29069 55110 59011;
0137832880999992006030218004-13267-043417FM-12+0440SBLP V0200901N001012200019N0200001N1+03461+01601100831ADDGF102991021011008001001001MA1999999095941MD1999999+0121REMSYN070AAXX  02184 83288 32598 20902 10346 20160 39594 40083 82100 333 58012;
0178832880999992006030300004-13267-043417FM-12+0440SBLP V0209999C000012200019N0020001N1+02931+02101100731ADDGA1001+999999999GF100991001001999999001001KA1240M+03531MA1999999095921MD1999999+0001REMSYN082AAXX  03004 83288 32995 00000 10293 20210 39592 40073 333 10353 29051 55112 58000;
0166832880999992006030312004-13267-043417FM-12+0440SBLP V0200501N001512200019N0020001N1+02831+02011101181ADDGA1001+999999999GF100991001001999999001001KA1240N+02141MA1999999096371MD1999999-0091REMSYN070AAXX  03124 83288 32995 00503 10283 20201 39637 40118 333 20214 59009;
0137832880999992006030318004-13267-043417FM-12+0440SBLP V0203201N001512200019N0200001N1+03511+01831100771ADDGF102991021021008001001001MA1999999095901MD1999999-0041REMSYN070AAXX  03184 83288 32598 23203 10351 20183 39590 40077 82200 333 59004;
0178832880999992006030400004-13267-043417FM-12+0440SBLP V0209999C000012200019N0020001N1+03071+02191100711ADDGA1001+999999999GF100991001001999999001001KA1240M+03591MA1999999095931MD1999999+0011REMSYN082AAXX  04004 83288 32995 00000 10307 20219 39593 40071 333 10359 29054 55110 58001;
0156832880999992006030412004-13267-043417FM-12+0440SBLP V0200901N001012200019N0200001N1+02791+02201101041ADDGF103991021011008001001041KA1240N+02141MA1999999096251MD1999999-0121REMSYN076AAXX  04124 83288 32598 30902 10279 20220 39625 40104 82104 333 20214 59012;
0172832880999992006030418004-13267-043417FM-12+0440SBLP V0200901N000512200019N0200001N1+03551+02021100871ADDGF103991011011008001001021MA1999999999999MD1999999+0021REMSYN070AAXX  04184 83288 32598 30901 10355 20202 39782 40087 81102 333 58002;EQDQ01+097823APOSP Q02 097823APOSP 
0178832880999992006030500004-13267-043417FM-12+0440SBLP V0203601N001512200019N0020001N1+03071+02221100811ADDGA1001+999999999GF100991001001999999001001KA1240M+03551MA1999999095181MD1999999-0751REMSYN082AAXX  05004 83288 32995 03603 10307 20222 39518 40081 333 10355 29056 55111 59075;
0156832880999992006030512004-13267-043417FM-12+0440SBLP V0203601N000512200019N0200001N1+02711+02161101281ADDGF104991021011008001001051KA1240N+02281MA1999999096461MD1999999+0211REMSYN076AAXX  05124 83288 32598 43601 10271 20216 39646 40128 82105 333 20228 58021;
0137832880999992006030518004-13267-043417FM-12+0440SBLP V0203601N000511050019N0200001N1+03521+01741100831ADDGF108991031011008001001071MA1999999095991MD1999999+0171REMSYN070AAXX  05184 83288 32598 83601 10352 20174 39599 40083 83107 333 58017;
0168832880999992006030600004-13267-043417FM-12+0440SBLP V0209999C000012200019N0020001N1+02931+02131100751ADDGF103991001001999999001051KA1240M+03611MA1999999095951MD1999999+0771REMSYN088AAXX  06004 83288 32995 30000 10293 20213 39595 40075 80005 333 10361 29056 55096 58077;
0201832880999992006030612004-13267-043417FM-12+0440SBLP V0200501N001510120019N0200001N1+02351+02181101321ADDAA124002091AY161061AY221061GF107991071081008001001001KA1240N+02161MA1999999096391MD1999999-0071MW1021REMSYN088AAXX  06124 83288 21598 70503 10235 20218 39639 40132 70262 87800 333 20216 59007 60024;
0137832880999992006030618004-13267-043417FM-12+0440SBLP V0203601N003112200019N0200001N1+03111+02051100861ADDGF105991011021008001001081MA1999999095991MD1999999+0001REMSYN070AAXX  06184 83288 32598 53606 10311 20205 39599 40086 81208 333 58000;
0168832880999992006030700004-13267-043417FM-12+0440SBLP V0203601N002112200019N0020001N1+02671+02091101001ADDGF106991021001017501031061KA1240M+03711MA1999999096181MD1999999+0231REMSYN088AAXX  07004 83288 32795 63604 10267 20209 39618 40100 82036 333 10371 29072 55057 58023;
0156832880999992006030712004-13267-043417FM-12+0440SBLP V0203601N001010450019N0200001N1+02501+02341101151ADDGF107991041051008001021061KA1240N+02231MA1999999096281MD1999999-0111REMSYN076AAXX  07124 83288 32598 73602 10250 20234 39628 40115 84526 333 20223 59011;
0137832880999992006030718004-13267-043417FM-12+0440SBLP V0203601N003110120019N0200001N1+02751+02211100811ADDGF106991051081008001021051MA1999999095851MD1999999-0141REMSYN070AAXX  07184 83288 32598 63606 10275 20221 39585 40081 85825 333 59014;
0168832880999992006030800004-13267-043417FM-12+0440SBLP V0203601N000510120019N0020001N1+02551+02231101021ADDGF106991051081008001021021KA1240M+03141MA1999999096151MD1999999-0031REMSYN088AAXX  08004 83288 32595 63601 10255 20223 39615 40102 85822 333 10314 29082 55040 59003;
0201832880999992006030812004-13267-043417FM-12+0440SBLP V0200901N001510075019N0200001N1+02331+02211101301ADDAA124000891AY161061AY261061GF108991051051008001031999KA1240N+02121MA1999999096391MD1999999+0111MW1031REMSYN088AAXX  08124 83288 21598 80903 10233 20221 39639 40130 70366 8553/ 333 20212 58011 69984;
0137832880999992006030818004-13267-043417FM-12+0440SBLP V0202701N001512200019N0200001N1+02971+02161100691ADDGF105991021011008001031091MA1999999095791MD1999999-0061REMSYN070AAXX  08184 83288 32598 52703 10297 20216 39579 40069 82139 333 59006;
0168832880999992006030900004-13267-043417FM-12+0440SBLP V0203601N001010075019N0020001N1+02531+02221100991ADDGF108991081051008001999999KA1240M+03071MA1999999096091MD1999999-0061REMSYN088AAXX  09004 83288 32595 83602 10253 20222 39609 40099 885// 333 10307 29079 55040 59006;
0201832880999992006030912004-13267-043417FM-12+0440SBLP V0200501N000510450019N0200001N1+02371+02241101081ADDAA124002091AY161061AY221061GF107991031041004501031051KA1240N+02121MA1999999096181MD1999999-0211MW1011REMSYN088AAXX  09124 83288 21498 70501 10237 20224 39618 40108 70162 83435 333 20212 59021 60024;
0137832880999992006030918004-13267-043417FM-12+0440SBLP V0203201N001512200019N0200001N1+03111+02081100621ADDGF104991021021008001001021MA1999999095721MD1999999-0071REMSYN070AAXX  09184 83288 32598 43203 10311 20208 39572 40062 82202 333 59007;
0168832880999992006031000004-13267-043417FM-12+0440SBLP V0203201N001510120019N0020001N1+02631+02371100881ADDGF108991051081008001021999KA1240M+03211MA1999999096001MD1999999-0091REMSYN088AAXX  10004 83288 32595 83203 10263 20237 39600 40088 8582/ 333 10321 29079 55042 59009;
0201832880999992006031012004-13267-043417FM-12+0440SBLP V0203601N004111050019N0020001N1+02471+02251101081ADDAA124001091AY161061AY261061GF107991041051008001001021KA1240N+02131MA1999999096221MD1999999+0021MW1031REMSYN088AAXX  10124 83288 21595 73608 10247 20225 39622 40108 70366 84502 333 20213 58002 60014;
0182832880999992006031018004-13267-043417FM-12+0440SBLP V0202701N000512200019N0200001N1+02621+02311100631ADDAA106002091AY151061AY251061GF104991031081008001021041MA1999999095781MD1999999+0061MW1031REMSYN082AAXX  10184 83288 21598 42701 10262 20231 39578 40063 70355 83824 333 58006 60021;
0213832880999992006031100004-13267-043417FM-12+0440SBLP V0203201N003110075019N0020001N1+02521+02191101191ADDAA106008991AY191061AY291061GF108991061091008001021999KA1240M+02851MA1999999096281MD1999999+0281MW1031REMSYN100AAXX  11004 83288 21595 83206 10252 20219 39628 40119 70399 8692/ 333 10285 29084 55019 58028 60091;
0201832880999992006031112004-13267-043417FM-12+0440SBLP V0203601N001510075019N0200001N1+02391+02231101201ADDAA124011991AY161061AY261061GF108991061051008001031999KA1240N+02021MA1999999096301MD1999999+0101MW1031REMSYN088AAXX  11124 83288 21598 83603 10239 20223 39630 40120 70366 8653/ 333 20202 58010 60124;
0182832880999992006031118004-13267-043417FM-12+0440SBLP V0209999C000011050019N0200001N1+02511+02241100721ADDAA106003091AY161061AY221061GF106991041081008001001021MA1999999095811MD1999999+0031MW1021REMSYN082AAXX  11184 83288 21598 60000 10251 20224 39581 40072 70262 84802 333 58003 60031;
0196832880999992006031200004-13267-043417FM-12+0440SBLP V0203601N000510450019N0020001N1+02411+02251101041ADDAY121061AY221061GF108991031091008001031999KA1240M+02811MA1999999096141MD1999999-0141MW1131REMSYN094AAXX  12004 83288 31595 83601 10241 20225 39614 40104 71322 8393/ 333 10281 29089 55014 59014;
0173832880999992006031212004-13267-043417FM-12+0440SBLP V0203201N001011050019N0200001N1+02491+02171101261ADDAA124003091GF107991031041004501001061KA1240N+02081MA1999999096351MD1999999+0051REMSYN082AAXX  12124 83288 22498 73202 10249 20217 39635 40126 83406 333 20208 58005 60034;
0137832880999992006031218004-13267-043417FM-12+0440SBLP V0202701N001012200019N0200001N1+03091+01951100621ADDGF106991021021008001001061MA1999999095781MD1999999-0031REMSYN070AAXX  12184 83288 32598 62702 10309 20195 39578 40062 82206 333 59003;
0168832880999992006031300004-13267-043417FM-12+0440SBLP V0200901N001511050019N0200001N1+02611+02211100901ADDGF105991021081008001001091KA1240M+03171MA1999999096031MD1999999-0111REMSYN088AAXX  13004 83288 32598 50903 10261 20221 39603 40090 82809 333 10317 29073 55081 59011;
0220832880999992006031312004-13267-043417FM-12+0440SBLP V0203601N000510075019N0200001N1+02411+02231100901ADDAA124000091AY191061AY211061GF108991061051008001021999KA1240N+02111MA1999999096211MD1999999-0011MW1031REMSYN088AAXX  13124 83288 21598 83601 10241 20223 39621 40090 70391 8652/ 333 20211 59001 69924;EQDQ01  00002PRCP24
0137832880999992006031318004-13267-043417FM-12+0440SBLP V0203601N001010450019N0200001N1+02691+02261100721ADDGF106991041051008001021001MA1999999095881MD1999999+0101REMSYN070AAXX  13184 83288 32598 63602 10269 20226 39588 40072 84520 333 58010;
0168832880999992006031400004-13267-043417FM-12+0440SBLP V0201401N000510450019N0020001N1+02491+02271101111ADDGF106991041011008001021001KA1240M+02841MA1999999096211MD1999999+0181REMSYN088AAXX  14004 83288 32595 61401 10249 20227 39621 40111 84120 333 10284 29085 55013 58018;
0156832880999992006031412004-13267-043417FM-12+0440SBLP V0202701N000510075019N0200001N1+02411+02251101221ADDGF108991051051008001011999KA1240N+02181MA1999999096321MD1999999+0111REMSYN076AAXX  14124 83288 32598 82701 10241 20225 39632 40122 8551/ 333 20218 58011;
0137832880999992006031418004-13267-043417FM-12+0440SBLP V0202701N001510120019N0200001N1+02671+02121100921ADDGF108991051081008001011999MA1999999096011MD1999999+0131REMSYN070AAXX  14184 83288 32598 82703 10267 20212 39601 40092 8581/ 333 58013;
0213832880999992006031500004-13267-043417FM-12+0440SBLP V0209999C000010075019N0020001N1+02311+02261101141ADDAA106001091AY161061AY221061GF108991061051008001021999KA1240M+02811MA1999999096221MD1999999+0011MW1031REMSYN100AAXX  15004 83288 21595 80000 10231 20226 39622 40114 70362 8652/ 333 10281 29087 55011 58001 60011;
0201832880999992006031512004-13267-043417FM-12+0440SBLP V0200901N001010450019N0200001N1+02431+02281101281ADDAA124001091AY151061AY221061GF107991031081008001031001KA1240N+02121MA1999999096351MD1999999+0031MW1021REMSYN088AAXX  15124 83288 21598 70902 10243 20228 39635 40128 70252 83830 333 20212 58003 60014;
0137832880999992006031518004-13267-043417FM-12+0440SBLP V0203601N001511050019N0200001N1+02991+02151100781ADDGF105991031021008001001021MA1999999095931MD1999999-0081REMSYN070AAXX  15184 83288 32598 53603 10299 20215 39593 40078 83202 333 59008;
0201832880999992006031612004-13267-043417FM-12+0440SBLP V0201801N000510075019N0200001N1+02371+02191101441ADDAA124003091AY161061AY221061GF106991061051008001021001KA1240N+02061MA1999999096521MD1999999+0161MW1031REMSYN088AAXX  16124 83288 21598 61801 10237 20219 39652 40144 70362 86520 333 20206 58016 60034;
0137832880999992006031618004-13267-043417FM-12+0440SBLP V0200901N001510450019N0200001N1+02951+02261100931ADDGF105991031081008001021001MA1999999096081MD1999999+0151REMSYN070AAXX  16184 83288 32598 50903 10295 20226 39608 40093 83820 333 58015;
0168832880999992006031700004-13267-043417FM-12+0440SBLP V0201801N000510450019N0020001N1+02571+02291101091ADDGF106991041051008001021001KA1240M+02951MA1999999096191MD1999999+0071REMSYN088AAXX  17004 83288 32595 61801 10257 20229 39619 40109 84520 333 10295 29081 55042 58007;
0156832880999992006031712004-13267-043417FM-12+0440SBLP V0201801N000512200019N0200001N1+02591+02181101081ADDGF104991011011008001001051KA1240N+02121MA1999999096211MD1999999-0311REMSYN076AAXX  17124 83288 32598 41801 10259 20218 39621 40108 81105 333 20212 59031;
0182832880999992006031718004-13267-043417FM-12+0440SBLP V0202701N000511050019N0200001N1+02971+02081100701ADDAA106003091AY161061AY221061GF105991031021008001001021MA1999999095801MD1999999-0281MW1021REMSYN082AAXX  17184 83288 21598 52701 10297 20208 39580 40070 70262 83202 333 59028 60031;
0213832880999992006031800004-13267-043417FM-12+0440SBLP V0209999C000010450019N0020001N1+02591+02341100881ADDAA106003091AY161061AY221061GF106991031091008001061041KA1240M+03131MA1999999096021MD1999999-0171MW1131REMSYN100AAXX  18004 83288 21595 60000 10259 20234 39602 40088 71362 83964 333 10313 29075 55071 59017 60031;
0173832880999992006031812004-13267-043417FM-12+0440SBLP V0201801N000511050019N0200001N1+02421+02191101281ADDAA124006191GF105991041011008001001021KA1240N+02231MA1999999096381MD1999999+0171REMSYN082AAXX  18124 83288 22598 51801 10242 20219 39638 40128 84102 333 20223 58017 60064;
0137832880999992006031818004-13267-043417FM-12+0440SBLP V0201401N000510075019N0200001N1+02971+02231100651ADDGF108991051051008001021001MA1999999095821MD1999999+0021REMSYN070AAXX  18184 83288 32598 81401 10297 20223 39582 40065 85520 333 58002;
0168832880999992006031900004-13267-043417FM-12+0440SBLP V0201801N001510450019N0020001N1+02651+02291100981ADDGF105991031081008001021001KA1240M+03051MA1999999096181MD1999999+0161REMSYN088AAXX  19004 83288 32595 51803 10265 20229 39618 40098 83820 333 10305 29078 55017 58016;
0175832880999992006031912004-13267-043417FM-12+0440SBLP V0200901N001019999999N0200001N1+02511+02051101241ADDGF105991999021008001001001KA1240N+02091MA1999999096361MD1999999-0021REMSYN076AAXX  19124 83288 32598 50902 10251 20205 39636 40124 84200 333 20209 59002;EQDQ01+000042SCOTLC
0137832880999992006031918004-13267-043417FM-12+0440SBLP V0201801N004110120019N0020001N1+02651+02111101291ADDGF105991051081008001021001MA1999999096401MD1999999+0401REMSYN070AAXX  19184 83288 32595 51808 10265 20211 39640 40129 85820 333 58040;
0168832880999992006032000004-13267-043417FM-12+0440SBLP V0200901N004110450019N0020001N1+02651+02641101101ADDGF106991041051008001021001KA1240M+02881MA1999999096201MD1999999+0021REMSYN088AAXX  20004 83288 32595 60908 10265 20264 39620 40110 84520 333 10288 29080 55025 58002;
0137832880999992006032018004-13267-043417FM-12+0440SBLP V0201801N001011050019N0200001N1+03091+01961100951ADDGF105991031021008001001021MA1999999096041MD1999999-0361REMSYN070AAXX  20184 83288 32598 51802 10309 20196 39604 40095 83202 333 59036;
0168832880999992006032100004-13267-043417FM-12+0440SBLP V0201801N001012200019N0020001N1+02611+02041101011ADDGF102991021011008001001001KA1240M+03151MA1999999096131MD1999999-0071REMSYN088AAXX  21004 83288 32595 21802 10261 20204 39613 40101 82100 333 10315 29070 55061 59007;
0156832880999992006032112004-13267-043417FM-12+0440SBLP V0201401N001512200019N0200001N1+02671+01971101201ADDGF103991001001999999001041KA1240N+02021MA1999999096341MD1999999+0021REMSYN076AAXX  21124 83288 32998 31403 10267 20197 39634 40120 80004 333 20202 58002;
0137832880999992006032118004-13267-043417FM-12+0440SBLP V0201801N002611050019N0200001N1+03051+01961100961ADDGF107991021021008001001061MA1999999096041MD1999999+0081REMSYN070AAXX  21184 83288 32598 71805 10305 20196 39604 40096 82206 333 58008;
0178832880999992006032200004-13267-043417FM-12+0440SBLP V0201401N002112200019N0020001N1+02521+01861101041ADDGA1001+999999999GF100991001001999999001001KA1240M+03151MA1999999096171MD1999999+0041REMSYN082AAXX  22004 83288 32995 01404 10252 20186 39617 40104 333 10315 29063 55074 58004;
0156832880999992006032212004-13267-043417FM-12+0440SBLP V0200901N001012200019N0200001N1+02711+02081101271ADDGF102991011011008001031001KA1240N+02041MA1999999096391MD1999999+0051REMSYN076AAXX  22124 83288 32598 20902 10271 20208 39639 40127 81130 333 20204 58005;
0137832880999992006032218004-13267-043417FM-12+0440SBLP V0201801N003112200019N0200001N1+03111+01921100961ADDGF104991031021008001001011MA1999999096041MD1999999+0001REMSYN070AAXX  22184 83288 32598 41806 10311 20192 39604 40096 83201 333 58000;
0178832880999992006032300004-13267-043417FM-12+0440SBLP V0201401N000512200019N0020001N1+02591+01821100931ADDGA1001+999999999GF100991001001999999001001KA1240M+03271MA1999999096131MD1999999-0041REMSYN082AAXX  23004 83288 32995 01401 10259 20182 39613 40093 333 10327 29061 55081 59004;
0156832880999992006032312004-13267-043417FM-12+0440SBLP V0201801N001012200019N0200001N1+02691+02001101281ADDGF102991011011008001001021KA1240N+02081MA1999999096411MD1999999+0021REMSYN076AAXX  23124 83288 32598 21802 10269 20200 39641 40128 81102 333 20208 58002;
0201832880999992006032318004-13267-043417FM-12+0440SBLP V0203601N001512200019N0200001N1+02991+02101100931ADDAA106000091AY151061AY221061GF104991041021008001001001MA1999999096021MD1999999-0021MW1021REMSYN082AAXX  23184 83288 21598 43603 10299 20210 39602 40093 70252 84200 333 59002 69921;EQDQ01  00002PRCP06
0213832880999992006032400004-13267-043417FM-12+0440SBLP V0200901N001012200019N0020001N1+02491+01931100941ADDAA106001091AY161061AY221061GF102991021011008001001001KA1240M+03151MA1999999096081MD1999999-0051MW1011REMSYN100AAXX  24004 83288 21595 20902 10249 20193 39608 40094 70162 82100 333 10315 29065 55068 59005 60011;
0173832880999992006032412004-13267-043417FM-12+0440SBLP V0201401N001012200019N0200001N1+02671+02021101271ADDAA124002091GF101991011001017501031001KA1240N+02121MA1999999096391MD1999999-0021REMSYN082AAXX  24124 83288 22798 11402 10267 20202 39639 40127 81030 333 20212 59002 60024;
0137832880999992006032418004-13267-043417FM-12+0440SBLP V0202301N001010120019N0200001N1+03091+01921100881ADDGF106991061081008001001001MA1999999096041MD1999999-0021REMSYN070AAXX  24184 83288 32598 62302 10309 20192 39604 40088 86800 333 59002;
0168832880999992006032500004-13267-043417FM-12+0440SBLP V0200901N001512200019N0020001N1+02591+02101100961ADDGF102991021021008001001001KA1240M+03191MA1999999096111MD1999999+0031REMSYN088AAXX  25004 83288 32595 20903 10259 20210 39611 40096 82200 333 10319 29068 55087 58003;
0156832880999992006032512004-13267-043417FM-12+0440SBLP V0200901N000511050019N0200001N1+02671+02201101441ADDGF105991031011008001001021KA1240N+02311MA1999999096301MD1999999-0091REMSYN076AAXX  25124 83288 32598 50901 10267 20220 39630 40144 83102 333 20231 59009;
0182832880999992006032518004-13267-043417FM-12+0440SBLP V0202701N001010075019N0200001N1+03171+02201101031ADDAA106007191AY161061AY221061GF106991061051008001061021MA1999999096211MD1999999+0171MW1131REMSYN082AAXX  25184 83288 21598 62702 10317 20220 39621 40103 71362 86562 333 58017 60071;
0232832880999992006032600004-13267-043417FM-12+0440SBLP V0203601N000512200019N0020001N1+02451+02301100931ADDAA106003091AY161061AY221061GF103991999051008001001001KA1240M+03331MA1999999095881MD1999999-0231MW1031REMSYN100AAXX  26004 83288 21595 33601 10245 20230 39588 40093 70362 86500 333 10333 29075 55039 59023 60031;EQDQ01+000062SCOTLC
0173832880999992006032612004-13267-043417FM-12+0440SBLP V0203601N001512200019N0200001N1+02571+02281101271ADDAA124009991GF102991011011008001001041KA1240N+02041MA1999999096371MD1999999+0071REMSYN082AAXX  26124 83288 22598 23603 10257 20228 39637 40127 81104 333 20204 58007 60104;
0137832880999992006032618004-13267-043417FM-12+0440SBLP V0201801N001512200019N0200001N1+03241+02061100781ADDGF104991041021008001001001MA1999999095851MD1999999-0361REMSYN070AAXX  26184 83288 32598 41803 10324 20206 39585 40078 84200 333 59036;
0178832880999992006032700004-13267-043417FM-12+0440SBLP V0200901N001512200019N0020001N1+02511+02181101031ADDGA1001+999999999GF100991001001999999001001KA1240M+03331MA1999999096151MD1999999+0271REMSYN082AAXX  27004 83288 32995 00903 10251 20218 39615 40103 333 10333 29072 55092 58027;
0156832880999992006032712004-13267-043417FM-12+0440SBLP V0200501N001510120019N0200001N1+02571+02211101421ADDGF106991061081008001001001KA1240N+02181MA1999999096531MD1999999+0161REMSYN076AAXX  27124 83288 32598 60503 10257 20221 39653 40142 86800 333 20218 58016;
0137832880999992006032718004-13267-043417FM-12+0440SBLP V0202301N001511050019N0200001N1+03121+02171100851ADDGF105991021031008001001021MA1999999096011MD1999999+0161REMSYN070AAXX  27184 83288 32598 52303 10312 20217 39601 40085 82302 333 58016;
0168832880999992006032800004-13267-043417FM-12+0440SBLP V0201801N000511050019N0020001N1+02511+02251101241ADDGF105991021081008001021061KA1240M+03191MA1999999096351MD1999999+0201REMSYN088AAXX  28004 83288 32595 51801 10251 20225 39635 40124 82826 333 10319 29077 55041 58020;
0156832880999992006032812004-13267-043417FM-12+0440SBLP V0200901N000512200019N0200001N1+02561+02311101271ADDGF105991031021008001001041KA1240N+02131MA1999999096381MD1999999-0151REMSYN076AAXX  28124 83288 32598 50901 10256 20231 39638 40127 83204 333 20213 59015;
0137832880999992006032818004-13267-043417FM-12+0440SBLP V0200901N000511050019N0200001N1+02841+02311101101ADDGF106991041051008001001021MA1999999096251MD1999999+0241REMSYN070AAXX  28184 83288 32598 60901 10284 20231 39625 40110 84502 333 58024;
0168832880999992006032900004-13267-043417FM-12+0440SBLP V0209999C000012200019N0020001N1+02531+02331101101ADDGF101991001001999999001011KA1240M+03071MA1999999096181MD1999999-0171REMSYN088AAXX  29004 83288 32995 10000 10253 20233 39618 40110 80001 333 10307 29084 55052 59017;
0156832880999992006032912004-13267-043417FM-12+0440SBLP V0203601N001510450019N0200001N1+02531+02241101191ADDGF106991041051008001081041KA1240N+02201MA1999999096301MD1999999-0081REMSYN076AAXX  29124 83288 32598 63603 10253 20224 39630 40119 84584 333 20220 59008;
0213832880999992006033000004-13267-043417FM-12+0440SBLP V0203601N001510075019N0020001N1+02291+02211101161ADDAA106030091AY191061AY281061GF108991061091008001021999KA1240M+03171MA1999999096251MD1999999+0071MW1531REMSYN100AAXX  30004 83288 21595 83603 10229 20221 39625 40116 75398 8692/ 333 10317 29080 55068 58007 60301;
0201832880999992006033012004-13267-043417FM-12+0440SBLP V0200501N001010075019N0200001N1+02251+02211101361ADDAA124055191AY161061AY261061GF108991081051008001999999KA1240N+02081MA1999999096401MD1999999+0101MW1511REMSYN088AAXX  30124 83288 21598 80502 10225 20221 39640 40136 75166 885// 333 20208 58010 60554;
0182832880999992006033018004-13267-043417FM-12+0440SBLP V0202701N000511050019N0200001N1+02511+02331100891ADDAA106000021AY151061AY221061GF106991021031008001011031MA1999999095981MD1999999+0221MW1031REMSYN082AAXX  30184 83288 21598 62701 10251 20233 39598 40089 70352 82313 333 58022 69921;
0168832880999992006033100004-13267-043417FM-12+0440SBLP V0209999C000010075019N0020001N1+02411+02331101181ADDGF108991051051008001021999KA1240M+02891MA1999999096261MD1999999+0011REMSYN088AAXX  31004 83288 32595 80000 10241 20233 39626 40118 8552/ 333 10289 29094 55020 58001;
0201832880999992006033112004-13267-043417FM-12+0440SBLP V0200901N000510075019N0200001N1+02371+02241101351ADDAA124000021AY151061AY221061GF108991061051008001021999KA1240N+02131MA1999999096431MD1999999+0031MW1031REMSYN088AAXX  31124 83288 21598 80901 10237 20224 39643 40135 70352 8652/ 333 20213 58003 69924;
0201832880999992006033118004-13267-043417FM-12+0440SBLP V0200901N001019999999N0200001N1+02551+02381100931ADDAA106006191AY151061AY221061GF105991999051008001021001MA1999999096041MD1999999+0061MW1031REMSYN082AAXX  31184 83288 21598 50902 10255 20238 39604 40093 70352 86520 333 58006 60061;EQDQ01+000062SCOTLC
0168832880999992006040100004-13267-043417FM-12+0440SBLP V0201801N000510075019N0020001N1+02551+02111101061ADDGF108991061051008001021999KA1240M+02731MA1999999096171MD1999999-0091REMSYN088AAXX  01004 83288 32595 81801 10255 20211 39617 40106 8652/ 333 10273 29082 55007 59009;
0173832880999992006040112004-13267-043417FM-12+0440SBLP V0202701N001010120019N0200001N1+02371+02251101381ADDAA124006191GF108991061081008001011999KA1240N+02061MA1999999096501MD1999999+0071REMSYN082AAXX  01124 83288 22598 82702 10237 20225 39650 40138 8681/ 333 20206 58007 60064;
0182832880999992006040118004-13267-043417FM-12+0440SBLP V0202701N001010075019N0200001N1+02291+02211101001ADDAA106014091AY161061AY221061GF108991051061008001011999MA1999999096121MD1999999+0081MW1511REMSYN082AAXX  01184 83288 21598 82702 10229 20221 39612 40100 75162 8561/ 333 58008 60141;
0213832880999992006040200004-13267-043417FM-12+0440SBLP V0201801N002110075019N0020001N1+02231+02161101271ADDAA106000391AY151061AY221061GF105991051051008001001001KA1240M+02871MA1999999096331MD1999999+0161MW1031REMSYN100AAXX  02004 83288 21595 51804 10223 20216 39633 40127 70352 85500 333 10287 29095 55020 58016 69931;
0201832880999992006040212004-13267-043417FM-12+0440SBLP V0209999C000010450019N0200001N1+02331+02161101401ADDAA124015091AY161061AY221061GF105991031041008001031001KA1240N+02021MA1999999096481MD1999999-0021MW1031REMSYN088AAXX  02124 83288 21598 50000 10233 20216 39648 40140 70362 83430 333 20202 59002 60154;
0137832880999992006040218004-13267-043417FM-12+0440SBLP V0201401N003110450019N0200001N1+02751+02161100951ADDGF106991031081008001021001MA1999999096061MD1999999-0061REMSYN070AAXX  02184 83288 32598 61406 10275 20216 39606 40095 83820 333 59006;
0168832880999992006040300004-13267-043417FM-12+0440SBLP V0209999C000010450019N0020001N1+02291+02111101291ADDGF106991041051008001021001KA1240M+03051MA1999999096351MD1999999+0021REMSYN088AAXX  03004 83288 32595 60000 10229 20211 39635 40129 84520 333 10305 29085 55065 58002;
0156832880999992006040312004-13267-043417FM-12+0440SBLP V0200901N000511050019N0200001N1+02551+02251101331ADDGF105991031011008001001021KA1240N+02021MA1999999096411MD1999999-0071REMSYN076AAXX  03124 83288 32598 50901 10255 20225 39641 40133 83102 333 20202 59007;
0137832880999992006040318004-13267-043417FM-12+0440SBLP V0201401N008210450019N0200001N1+02981+02061100801ADDGF106991041081008001021021MA1999999095971MD1999999-0091REMSYN070AAXX  03184 83288 32598 61416 10298 20206 39597 40080 84822 333 59009;
0168832880999992006040400004-13267-043417FM-12+0440SBLP V0201801N001012200019N0020001N1+02521+01981100911ADDGF101991011011008001001001KA1240M+03091MA1999999096031MD1999999-0321REMSYN088AAXX  04004 83288 32595 11802 10252 20198 39603 40091 81100 333 10309 29075 55079 59032;
0156832880999992006040412004-13267-043417FM-12+0440SBLP V0209999C000012200019N0200001N1+02591+02131101201ADDGF102991021011008001001001KA1240N+02081MA1999999096321MD1999999-0091REMSYN076AAXX  04124 83288 32598 20000 10259 20213 39632 40120 82100 333 20208 59009;
0182832880999992006040418004-13267-043417FM-12+0440SBLP V0200901N001012200019N0200001N1+02711+02271100981ADDAA106007991AY161061AY221061GF104991041021008001001001MA1999999096051MD1999999+0081MW1021REMSYN082AAXX  04184 83288 21598 40902 10271 20227 39605 40098 70262 84200 333 58008 60081;
0168832880999992006040500004-13267-043417FM-12+0440SBLP V0200901N000512200019N0020001N1+02411+02121101021ADDGF102991021011008001001001KA1240M+03031MA1999999096141MD1999999+0111REMSYN088AAXX  05004 83288 32595 20901 10241 20212 39614 40102 82100 333 10303 29079 55086 58011;
0201832880999992006040512004-13267-043417FM-12+0440SBLP V0201801N001011050019N0200001N1+02351+02241101321ADDAA124024991AY161061AY221061GF107991041081008001001051KA1240N+02121MA1999999096401MD1999999+0081MW1511REMSYN088AAXX  05124 83288 21598 71802 10235 20224 39640 40132 75162 84805 333 20212 58008 60254;
0182832880999992006040518004-13267-043417FM-12+0440SBLP V0203201N003110450019N0200001N1+02521+02211101001ADDAA106001091AY121061AY221061GF108991041051008001021999MA1999999096101MD1999999+0051MW1611REMSYN082AAXX  05184 83288 21598 83206 10252 20221 39610 40100 76122 8452/ 333 58005 60011;
0168832880999992006040600004-13267-043417FM-12+0440SBLP V0200501N000510120019N0020001N1+02331+02201101181ADDGF108991051081008001021999KA1240M+02891MA1999999096261MD1999999+0121REMSYN088AAXX  06004 83288 32595 80501 10233 20220 39626 40118 8582/ 333 10289 29091 55018 58012;
0173832880999992006040612004-13267-043417FM-12+0440SBLP V0201801N000512200019N0200001N1+02541+02151101351ADDAA124001091GF102991021011008001001021KA1240N+02041MA1999999096311MD1999999-0091REMSYN082AAXX  06124 83288 22598 21801 10254 20215 39631 40135 82102 333 20204 59009 60014;
0137832880999992006040618004-13267-043417FM-12+0440SBLP V0201801N001511050019N0200001N1+03051+02091100621ADDGF105991031021008001001021MA1999999095821MD1999999-0281REMSYN070AAXX  06184 83288 32598 51803 10305 20209 39582 40062 83202 333 59028;
0168832880999992006040700004-13267-043417FM-12+0440SBLP V0201801N001510120019N0020001N1+02481+02191100861ADDGF106991061081008001011001KA1240M+03111MA1999999095971MD1999999-0291REMSYN088AAXX  07004 83288 32595 61803 10248 20219 39597 40086 86810 333 10311 29075 55093 59029;
0156832880999992006040712004-13267-043417FM-12+0440SBLP V0200901N000512200019N0200001N1+02611+02151101121ADDGF103991011011008001061001KA1240N+02081MA1999999096241MD1999999-0071REMSYN076AAXX  07124 83288 32598 30901 10261 20215 39624 40112 81160 333 20208 59007;
0137832880999992006040718004-13267-043417FM-12+0440SBLP V0201801N000510075019N0200001N1+03011+02151100691ADDGF105991051021008001001001MA1999999095851MD1999999+0031REMSYN070AAXX  07184 83288 32598 51801 10301 20215 39585 40069 85200 333 58003;
0168832880999992006040800004-13267-043417FM-12+0440SBLP V0200901N001012200019N0020001N1+02371+02231100991ADDGF104991031021008001041001KA1240M+03091MA1999999096111MD1999999+0141REMSYN088AAXX  08004 83288 32595 40902 10237 20223 39611 40099 83240 333 10309 29076 55075 58014;
0156832880999992006040812004-13267-043417FM-12+0440SBLP V0201801N001512200019N0200001N1+02591+02251101151ADDGF103991031021008001001001KA1240N+02201MA1999999096261MD1999999+0021REMSYN076AAXX  08124 83288 32598 31803 10259 20225 39626 40115 83200 333 20220 58002;
0201832880999992006040818004-13267-043417FM-12+0440SBLP V0200901N002111050019N0200001N1+02711+02171100701ADDAA106000091AY151061AY221061GF106991041021008001001021MA1999999095831MD1999999-0021MW1031REMSYN082AAXX  08184 83288 21598 60904 10271 20217 39583 40070 70352 84202 333 59002 69911;EQDQ01  00002PRCP06
0168832880999992006040900004-13267-043417FM-12+0440SBLP V0203201N001510450019N0020001N1+02571+02291100921ADDGF108991041081008001021999KA1240M+03031MA1999999096061MD1999999-0051REMSYN088AAXX  09004 83288 32595 83203 10257 20229 39606 40092 8482/ 333 10303 29081 55071 59005;
0201832880999992006040912004-13267-043417FM-12+0440SBLP V0202301N001510450019N0200001N1+02421+01881101141ADDAA124002091AY151061AY221061GF105991031051008001021001KA1240N+02231MA1999999096111MD1999999-0151MW1031REMSYN088AAXX  09124 83288 21598 52303 10242 20188 39611 40114 70352 83520 333 20223 59015 60024;
0137832880999992006040918004-13267-043417FM-12+0440SBLP V0203201N000510450019N0200001N1+03041+02201100681ADDGF106991041021008001021011MA1999999095531MD1999999-0301REMSYN070AAXX  09184 83288 32598 63201 10304 20220 39553 40068 84221 333 59030;
0213832880999992006041000004-13267-043417FM-12+0440SBLP V0200901N000510075019N0020001N1+02381+02291100801ADDAA106008991AY151061AY221061GF108991061051008001021999KA1240M+03081MA1999999095791MD1999999-0231MW1031REMSYN100AAXX  10004 83288 21595 80901 10238 20229 39579 40080 70352 8652/ 333 10308 29098 55063 59023 60091;
0201832880999992006041012004-13267-043417FM-12+0440SBLP V0201801N001010450019N0200001N1+02261+02211101121ADDAA124034091AY161061AY261061GF108991041081008001011999KA1240N+02061MA1999999096181MD1999999+0071MW1031REMSYN088AAXX  10124 83288 21598 81802 10226 20221 39618 40112 70366 8481/ 333 20206 58007 60344;
0137832880999992006041018004-13267-043417FM-12+0440SBLP V0203601N001010450019N0200001N1+02661+02311100731ADDGF108991041051008001061021MA1999999095801MD1999999+0271REMSYN070AAXX  10184 83288 32598 83602 10266 20231 39580 40073 84562 333 58027;
0232832880999992006041100004-13267-043417FM-12+0440SBLP V0203601N000510450019N0020001N1+02271+02191100951ADDAA106000091AY151061AY221061GF108991031051008001021999KA1240M+02871MA1999999096021MD1999999+0231MW1031REMSYN100AAXX  11004 83288 21595 83601 10227 20219 39602 40095 70352 8352/ 333 10287 29091 55038 58023 69921;EQDQ01  00002PRCP06
0201832880999992006041112004-13267-043417FM-12+0440SBLP V0203601N000512200019N0020001N1+02421+02271101031ADDAA124002091AY161061AY251061GF102991011041008001001081KA1240N+02081MA1999999096121MD1999999+0061MW1021REMSYN088AAXX  11124 83288 21595 23601 10242 20227 39612 40103 70265 81408 333 20208 58006 60024;
0137832880999992006041118004-13267-043417FM-12+0440SBLP V0202701N000512200019N0200001N1+03071+02111100551ADDGF104991021021008001001021MA1999999095711MD1999999-0091REMSYN070AAXX  11184 83288 32598 42701 10307 20211 39571 40055 82202 333 59009;
0168832880999992006041200004-13267-043417FM-12+0440SBLP V0209999C000019999999N0020001N1+02611+02421100851ADDGF105991001001999999001021KA1240M+03151MA1999999095971MD1999999-0051REMSYN088AAXX  12004 83288 32995 50000 10261 20242 39597 40085 80002 333 10315 29081 55082 59005;
0201832880999992006041212004-13267-043417FM-12+0440SBLP V0201801N001510075019N0200001N1+02351+02221101251ADDAA124003091AY161061AY261061GF108991051051008001021999KA1240N+02071MA1999999096331MD1999999+0211MW1031REMSYN088AAXX  12124 83288 21598 81803 10235 20222 39633 40125 70366 8552/ 333 20207 58021 60034;
0137832880999992006041218004-13267-043417FM-12+0440SBLP V0203601N001512200019N0200001N1+02771+02231100711ADDGF106991031021008001001041MA1999999095891MD1999999+0181REMSYN070AAXX  12184 83288 32598 63603 10277 20223 39589 40071 83204 333 58018;
0187832880999992006041300004-13267-043417FM-12+0440SBLP V0203601N001012200019N0020001N1+02471+02251100861ADDGF102991999021008001001041KA1240M+02741MA1999999095971MD1999999+0001REMSYN088AAXX  13004 83288 32595 23602 10247 20225 39597 40086 84204 333 10274 29085 55026 58000;EQDQ01+000042SCOTLC
0156832880999992006041312004-13267-043417FM-12+0440SBLP V0200501N001510450019N0200001N1+02491+02241101151ADDGF106991041051008001031001KA1240N+02061MA1999999096261MD1999999-0071REMSYN076AAXX  13124 83288 32598 60503 10249 20224 39626 40115 84530 333 20206 59007;
0156832880999992006041318004-13267-043417FM-12+0440SBLP V0202701N001019999999N0200001N1+02931+02291100631ADDGF106991999021008001021041MA1999999095781MD1999999-0111REMSYN070AAXX  13184 83288 32598 62702 10293 20229 39578 40063 87224 333 59011;EQDQ01+000072SCOTLC
0168832880999992006041400004-13267-043417FM-12+0440SBLP V0201801N000510450019N0020001N1+02491+02301100931ADDGF106991031081008001031001KA1240M+03071MA1999999096051MD1999999+0081REMSYN088AAXX  14004 83288 32595 61801 10249 20230 39605 40093 83830 333 10307 29079 55050 58008;
0156832880999992006041412004-13267-043417FM-12+0440SBLP V0200501N002110120019N0200001N1+02571+02291101061ADDGF107991071081008001001001KA1240N+02161MA1999999096181MD1999999-0081REMSYN076AAXX  14124 83288 32598 70504 10257 20229 39618 40106 87800 333 20216 59008;
0137832880999992006041418004-13267-043417FM-12+0440SBLP V0203201N001012200019N0200001N1+03091+02011100491ADDGF103991021021008001001031MA1999999095671MD1999999-0111REMSYN070AAXX  14184 83288 32598 33202 10309 20201 39567 40049 82203 333 59011;
0178832880999992006041500004-13267-043417FM-12+0440SBLP V0201401N000512200019N0020001N1+02531+02211100801ADDGA1001+999999999GF100991001001999999001001KA1240M+03131MA1999999095941MD1999999-0111REMSYN082AAXX  15004 83288 32995 01401 10253 20221 39594 40080 333 10313 29078 55067 59011;
0156832880999992006041512004-13267-043417FM-12+0440SBLP V0201401N000512200019N0200001N1+02721+02171101071ADDGF102991021011008001001001KA1240N+02041MA1999999096201MD1999999+0021REMSYN076AAXX  15124 83288 32598 21401 10272 20217 39620 40107 82100 333 20204 58002;
0182832880999992006041518004-13267-043417FM-12+0440SBLP V0201801N001510120019N0200001N1+03071+02331100451ADDAA106005191AY161061AY221061GF106991051081008001021001MA1999999095671MD1999999+0001MW1031REMSYN082AAXX  15184 83288 21598 61803 10307 20233 39567 40045 70362 85820 333 58000 60051;
0213832880999992006041600004-13267-043417FM-12+0440SBLP V0201801N000510450019N0020001N1+02571+02251100821ADDAA106001091AY161061AY261061GF106991041051008001021001KA1240M+03141MA1999999096011MD1999999+0071MW1031REMSYN100AAXX  16004 83288 21595 61801 10257 20225 39601 40082 70366 84520 333 10314 29074 55086 58007 60011;
0173832880999992006041612004-13267-043417FM-12+0440SBLP V0201801N001012200019N0200001N1+02611+02261101381ADDAA124006191GF102991021011008001001001KA1240N+02081MA1999999096501MD1999999+0301REMSYN082AAXX  16124 83288 22598 21802 10261 20226 39650 40138 82100 333 20208 58030 60064;
0137832880999992006041618004-13267-043417FM-12+0440SBLP V0201801N001012200019N0200001N1+03091+02111100881ADDGF105991041021008001001041MA1999999096041MD1999999+0371REMSYN070AAXX  16184 83288 32598 51802 10309 20211 39604 40088 84204 333 58037;
0168832880999992006041700004-13267-043417FM-12+0440SBLP V0200901N000512200019N0020001N1+02491+02181101171ADDGF103991031081008001001001KA1240M+03131MA1999999096291MD1999999+0281REMSYN088AAXX  17004 83288 32595 30901 10249 20218 39629 40117 83800 333 10313 29073 55093 58028;
0156832880999992006041712004-13267-043417FM-12+0440SBLP V0203201N000512200019N0200001N1+02511+02231101301ADDGF102991011011008001031001KA1240N+02201MA1999999096401MD1999999-0101REMSYN076AAXX  17124 83288 32598 23201 10251 20223 39640 40130 81130 333 20220 59010;
0168832880999992006041800004-13267-043417FM-12+0440SBLP V0200901N001012200019N0020001N1+02631+02271101041ADDGF104991041081008001001001KA1240M+03151MA1999999096161MD1999999-0131REMSYN088AAXX  18004 83288 32595 40902 10263 20227 39616 40104 84800 333 10315 29074 55087 59013;
0156832880999992006041812004-13267-043417FM-12+0440SBLP V0203601N000510450019N0200001N1+02421+02251101181ADDGF106991041081008001021001KA1240N+02091MA1999999096291MD1999999-0111REMSYN076AAXX  18124 83288 32598 63601 10242 20225 39629 40118 84820 333 20209 59011;
0137832880999992006041818004-13267-043417FM-12+0440SBLP V0203601N000511050019N0200001N1+03051+02201100581ADDGF105991041021008001001021MA1999999095761MD1999999-0241REMSYN070AAXX  18184 83288 32598 53601 10305 20220 39576 40058 84202 333 59024;
0168832880999992006041900004-13267-043417FM-12+0440SBLP V0200901N001012200019N0020001N1+02331+02151100731ADDGF102991021011008001001001KA1240M+03091MA1999999095991MD1999999-0171REMSYN088AAXX  19004 83288 32595 20902 10233 20215 39599 40073 82100 333 10309 29080 55051 59017;
0156832880999992006041912004-13267-043417FM-12+0440SBLP V0200901N001010450019N0200001N1+02391+02061101411ADDGF107991041081008001041001KA1240N+02061MA1999999096481MD1999999+0191REMSYN076AAXX  19124 83288 32598 70902 10239 20206 39648 40141 84840 333 20206 58019;
0137832880999992006041918004-13267-043417FM-12+0440SBLP V0201801N002111050019N0200001N1+02721+02151101041ADDGF106991031021008001001021MA1999999096191MD1999999+0431REMSYN070AAXX  19184 83288 32598 61804 10272 20215 39619 40104 83202 333 58043;
0168832880999992006042000004-13267-043417FM-12+0440SBLP V0201801N002112200019N0020001N1+02291+02061101301ADDGF103991031021008001001001KA1240M+02811MA1999999096371MD1999999+0381REMSYN088AAXX  20004 83288 32595 31804 10229 20206 39637 40130 83200 333 10281 29080 55040 58038;
0156832880999992006042012004-13267-043417FM-12+0440SBLP V0201401N002110450019N0200001N1+02391+01891101621ADDGF106991031041008001031051KA1240N+01941MA1999999096671MD1999999+0191REMSYN076AAXX  20124 83288 32598 61404 10239 20189 39667 40162 83435 333 20194 58019;
0178832880999992006042100004-13267-043417FM-12+0440SBLP V0201801N002112200019N0020001N1+02351+01991101341ADDGA1001+999999999GF100991001001999999001001KA1240M+02911MA1999999096411MD1999999+0041REMSYN082AAXX  21004 83288 32995 01804 10235 20199 39641 40134 333 10291 29073 55067 58004;
0156832880999992006042112004-13267-043417FM-12+0440SBLP V0201801N000512200019N0200001N1+02421+01751101711ADDGF102991021011008001001041KA1240N+01841MA1999999096621MD1999999+0141REMSYN076AAXX  21124 83288 32598 21801 10242 20175 39662 40171 82104 333 20184 58014;
0137832880999992006042118004-13267-043417FM-12+0440SBLP V0202701N001511050019N0200001N1+02921+02741100941ADDGF105991041021008001001021MA1999999096091MD1999999-0151REMSYN070AAXX  21184 83288 32598 52703 10292 20274 39609 40094 84202 333 59015;
0178832880999992006042200004-13267-043417FM-12+0440SBLP V0201801N001512200019N0020001N1+02451+01951101051ADDGA1001+999999999GF100991001001999999001001KA1240M+02951MA1999999096211MD1999999-0201REMSYN082AAXX  22004 83288 32995 01803 10245 20195 39621 40105 333 10295 29077 55108 59020;
0166832880999992006042212004-13267-043417FM-12+0440SBLP V0201801N000512200019N0200001N1+02441+02071101401ADDGA1001+999999999GF100991001001999999001001KA1240N+01881MA1999999096491MD1999999-0131REMSYN070AAXX  22124 83288 32998 01801 10244 20207 39649 40140 333 20188 59013;
0137832880999992006042218004-13267-043417FM-12+0440SBLP V0202701N001512200019N0200001N1+03091+01991100921ADDGF104991031021008001001051MA1999999096071MD1999999-0021REMSYN070AAXX  22184 83288 32598 42703 10309 20199 39607 40092 83205 333 59002;
0178832880999992006042300004-13267-043417FM-12+0440SBLP V0201801N001512200019N0020001N1+02531+02011101101ADDGA1001+999999999GF100991001001999999001001KA1240M+03131MA1999999096211MD1999999+0001REMSYN082AAXX  23004 83288 32995 01803 10253 20201 39621 40110 333 10313 29068 55105 58000;
0156832880999992006042312004-13267-043417FM-12+0440SBLP V0201801N001012200019N0200001N1+02471+01781101331ADDGF102991021001017501031001KA1240N+02021MA1999999096431MD1999999-0061REMSYN076AAXX  23124 83288 32798 21802 10247 20178 39643 40133 82030 333 20202 59006;
0137832880999992006042318004-13267-043417FM-12+0440SBLP V0201801N002111050019N0200001N1+03091+01991100881ADDGF105991031021008001001021MA1999999096041MD1999999-0031REMSYN070AAXX  23184 83288 32598 51804 10309 20199 39604 40088 83202 333 59003;
0168832880999992006042400004-13267-043417FM-12+0440SBLP V0201401N001012200019N0020001N1+02591+02291101071ADDGF103991031081008001001001KA1240M+03131MA1999999096191MD1999999-0021REMSYN088AAXX  24004 83288 32595 31402 10259 20229 39619 40107 83800 333 10313 29067 55085 59002;
0156832880999992006042412004-13267-043417FM-12+0440SBLP V0200901N000511050019N0200001N1+02641+02011101441ADDGF105991041011008001001021KA1240N+02041MA1999999096461MD1999999+0031REMSYN076AAXX  24124 83288 32598 50901 10264 20201 39646 40144 84102 333 20204 58003;
0137832880999992006042418004-13267-043417FM-12+0440SBLP V0201801N001512200019N0200001N1+03071+02111100661ADDGF106991041081008001001041MA1999999095861MD1999999-0011REMSYN070AAXX  24184 83288 32598 61803 10307 20211 39586 40066 84804 333 59001;
0187832880999992006042500004-13267-043417FM-12+0440SBLP V0203601N000512200019N0020001N1+02551+02291101011ADDGF102991999011008001001001KA1240M+03131MA1999999096191MD1999999+0001REMSYN088AAXX  25004 83288 32595 23601 10255 20229 39619 40101 81100 333 10313 29072 55071 58000;EQDQ01+000012SCOTLC
0156832880999992006042512004-13267-043417FM-12+0440SBLP V0201401N002112200019N0200001N1+02611+01951101291ADDGF104991031011008001001051KA1240N+02041MA1999999096411MD1999999-0051REMSYN076AAXX  25124 83288 32598 41404 10261 20195 39641 40129 83105 333 20204 59005;
0137832880999992006042518004-13267-043417FM-12+0440SBLP V0201801N002110120019N0200001N1+02831+02031100911ADDGF108991081081008001999999MA1999999096041MD1999999-0181REMSYN070AAXX  25184 83288 32598 81804 10283 20203 39604 40091 888// 333 59018;
0168832880999992006042600004-13267-043417FM-12+0440SBLP V0201801N001512200019N0020001N1+02311+01901101211ADDGF104991041011008001001001KA1240M+02931MA1999999096311MD1999999+0121REMSYN088AAXX  26004 83288 32595 41803 10231 20190 39631 40121 84100 333 10293 29069 55052 58012;
0156832880999992006042612004-13267-043417FM-12+0440SBLP V0201801N002112200019N0200001N1+02331+01951101501ADDGF105991011001017501031061KA1240N+01921MA1999999096571MD1999999+0141REMSYN076AAXX  26124 83288 32798 51804 10233 20195 39657 40150 81036 333 20192 58014;
0137832880999992006042618004-13267-043417FM-12+0440SBLP V0201401N001511050019N0200001N1+02931+01741100981ADDGF105991011011008001001021MA1999999096101MD1999999-0061REMSYN070AAXX  26184 83288 32598 51403 10293 20174 39610 40098 81102 333 59006;
0178832880999992006042700004-13267-043417FM-12+0440SBLP V0201401N001512200019N0020001N1+02411+01911101201ADDGA1001+999999999GF100991001001999999001001KA1240M+02971MA1999999096281MD1999999-0031REMSYN082AAXX  27004 83288 32995 01403 10241 20191 39628 40120 333 10297 29068 55087 59003;
0156832880999992006042712004-13267-043417FM-12+0440SBLP V0201801N000512200019N0200001N1+02201+01971101381ADDGF103991011011008001021041KA1240N+01881MA1999999096441MD1999999-0111REMSYN076AAXX  27124 83288 32598 31801 10220 20197 39644 40138 81124 333 20188 59011;
0137832880999992006042718004-13267-043417FM-12+0440SBLP V0200901N000510450019N0200001N1+02881+02051101091ADDGF106991041011008001021041MA1999999096021MD1999999-0081REMSYN070AAXX  27184 83288 32598 60901 10288 20205 39602 40109 84124 333 59008;
0178832880999992006042800004-13267-043417FM-12+0440SBLP V0201401N000512200019N0020001N1+02471+02011101041ADDGA1001+999999999GF100991001001999999001001KA1240M+02981MA1999999096161MD1999999-0121REMSYN082AAXX  28004 83288 32995 01401 10247 20201 39616 40104 333 10298 29075 55049 59012;
0156832880999992006042812004-13267-043417FM-12+0440SBLP V0201801N001512200019N0200001N1+02391+01981101281ADDGF103991001001999999001051KA1240N+01881MA1999999096361MD1999999-0081REMSYN076AAXX  28124 83288 32998 31803 10239 20198 39636 40128 80005 333 20188 59008;
0137832880999992006042818004-13267-043417FM-12+0440SBLP V0201801N001012200019N0200001N1+03171+01801100741ADDGF103991031011008001001001MA1999999095911MD1999999-0111REMSYN070AAXX  28184 83288 32598 31802 10317 20180 39591 40074 83100 333 59011;
0178832880999992006042900004-13267-043417FM-12+0440SBLP V0201801N001512200019N0020001N1+02431+01961101061ADDGA1001+999999999GF100991001001999999001001KA1240M+03191MA1999999096151MD1999999-0011REMSYN082AAXX  29004 83288 32995 01803 10243 20196 39615 40106 333 10319 29066 55104 59001;
0156832880999992006042912004-13267-043417FM-12+0440SBLP V0201801N000512200019N0020001N1+02391+01991101311ADDGF106991031001017501081061KA1240N+01901MA1999999096401MD1999999+0041REMSYN076AAXX  29124 83288 32795 61801 10239 20199 39640 40131 83086 333 20190 58004;
0137832880999992006042918004-13267-043417FM-12+0440SBLP V0201401N002111050019N0200001N1+02931+01821100931ADDGF105991011011008001031081MA1999999096061MD1999999+0151REMSYN070AAXX  29184 83288 32598 51404 10293 20182 39606 40093 81138 333 58015;
0178832880999992006043000004-13267-043417FM-12+0440SBLP V0201401N002112200019N0020001N1+02271+01861101211ADDGA1001+999999999GF100991001001999999001001KA1240M+02991MA1999999096291MD1999999+0141REMSYN082AAXX  30004 83288 32995 01404 10227 20186 39629 40121 333 10299 29071 55045 58014;
0156832880999992006043012004-13267-043417FM-12+0440SBLP V0201801N001010075019N0200001N1+02371+02051101001ADDGF108991061051008001021041KA1240N+01861MA1999999096551MD1999999+0151REMSYN076AAXX  30124 83288 32598 81802 10237 20205 39655 40100 86524 333 20186 58015;
0137832880999992006043018004-13267-043417FM-12+0440SBLP V0202301N000511050019N0200001N1+02931+01921101051ADDGF105991041021008001001021MA1999999096191MD1999999+0291REMSYN070AAXX  30184 83288 32598 52301 10293 20192 39619 40105 84202 333 58029;
0178832880999992006050100004-13267-043417FM-12+0440SBLP V0201801N001512200019N0020001N1+02421+01591101161ADDGA1001+999999999GF100991001001999999001001KA1240M+02981MA1999999096301MD1999999+0011REMSYN082AAXX  01004 83288 32995 01803 10242 20159 39630 40116 333 10298 29066 55061 58001;
0156832880999992006050112004-13267-043417FM-12+0440SBLP V0201801N001012200019N0200001N1+02331+02031101401ADDGF104991001001999999001051KA1240N+01781MA1999999096481MD1999999-0071REMSYN076AAXX  01124 83288 32998 41802 10233 20203 39648 40140 80005 333 20178 59007;
0137832880999992006050118004-13267-043417FM-12+0440SBLP V0200901N000511050019N0200001N1+03031+01961101001ADDGF106991031021008001001051MA1999999096131MD1999999-0061REMSYN070AAXX  01184 83288 32598 60901 10303 20196 39613 40100 83205 333 59006;
0178832880999992006050200004-13267-043417FM-12+0440SBLP V0200901N000512200019N0020001N1+02411+01961101301ADDGA1001+999999999GF100991001001999999001001KA1240M+03131MA1999999096381MD1999999+0081REMSYN082AAXX  02004 83288 32995 00901 10241 20196 39638 40130 333 10313 29071 55090 58008;
0166832880999992006050212004-13267-043417FM-12+0440SBLP V0200501N001012200019N0200001N1+02531+02021101621ADDGA1001+999999999GF100991001001999999001001KA1240N+01921MA1999999096661MD1999999+0181REMSYN070AAXX  02124 83288 32998 00502 10253 20202 39666 40162 333 20192 58018;
0137832880999992006050218004-13267-043417FM-12+0440SBLP V0202301N001512200019N0200001N1+03201+02091100981ADDGF102991021021008001001001MA1999999096141MD1999999-0011REMSYN070AAXX  02184 83288 32598 22303 10320 20209 39614 40098 82200 333 59001;
0168832880999992006050300004-13267-043417FM-12+0440SBLP V0201401N001010120019N0200001N1+02751+02141101171ADDGF106991061081008001001001KA1240M+03251MA1999999096321MD1999999-0061REMSYN088AAXX  03004 83288 32598 61402 10275 20214 39632 40117 86800 333 10325 29067 55098 59006;
0166832880999992006050312004-13267-043417FM-12+0440SBLP V0201801N000512200019N0200001N1+02731+02301101041ADDGA1001+999999999GF100991001001999999001001KA1240N+02211MA1999999096201MD1999999-0461REMSYN070AAXX  03124 83288 32998 01801 10273 20230 39620 40104 333 20221 59046;
0137832880999992006050318004-13267-043417FM-12+0440SBLP V0202701N001011050019N0200001N1+03171+02141100651ADDGF105991031021008001001021MA1999999095881MD1999999-0261REMSYN070AAXX  03184 83288 32598 52702 10317 20214 39588 40065 83202 333 59026;
0168832880999992006050400004-13267-043417FM-12+0440SBLP V0201401N001012200019N0020001N1+02751+02171100641ADDGF102991011011008001001021KA1240M+02831MA1999999095861MD1999999-0461REMSYN088AAXX  04004 83288 32595 21402 10275 20217 39586 40064 81102 333 10283 29068 55096 59046;
0156832880999992006050412004-13267-043417FM-12+0440SBLP V0202701N001012200019N0200001N1+02691+02191101181ADDGF104991021011008001001021KA1240N+02241MA1999999096331MD1999999+0131REMSYN076AAXX  04124 83288 32598 42702 10269 20219 39633 40118 82102 333 20224 58013;
0137832880999992006050418004-13267-043417FM-12+0440SBLP V0202701N001510450019N0200001N1+03131+02201100791ADDGF105991031021008001031041MA1999999095921MD1999999+0041REMSYN070AAXX  04184 83288 32598 52703 10313 20220 39592 40079 83234 333 58004;
0168832880999992006050500004-13267-043417FM-12+0440SBLP V0200901N001012200019N0020001N1+02301+02031101051ADDGF103991011011008001001021KA1240M+03311MA1999999096161MD1999999+0301REMSYN088AAXX  05004 83288 32595 30902 10230 20203 39616 40105 81102 333 10331 29072 55076 58030;
0201832880999992006050512004-13267-043417FM-12+0440SBLP V0202301N002111050019N0200001N1+02461+02231101361ADDAA124001091AY161061AY221061GF107991041081008001001061KA1240N+02141MA1999999096441MD1999999+0111MW1021REMSYN088AAXX  05124 83288 21598 72304 10246 20223 39644 40136 70262 84806 333 20214 58011 60014;
0137832880999992006050518004-13267-043417FM-12+0440SBLP V0202301N001510450019N0200001N1+02911+02141100981ADDGF108991021021008001011999MA1999999096101MD1999999+0181REMSYN070AAXX  05184 83288 32598 82303 10291 20214 39610 40098 8221/ 333 58018;
0168832880999992006050600004-13267-043417FM-12+0440SBLP V0201801N001512200019N0020001N1+02531+02291101191ADDGF102991001001999999001081KA1240M+02931MA1999999096301MD1999999+0141REMSYN088AAXX  06004 83288 32995 21803 10253 20229 39630 40119 80008 333 10293 29081 55049 58014;
0156832880999992006050612004-13267-043417FM-12+0440SBLP V0201401N001012200019N0200001N1+02561+02271101181ADDGF102991011011008001001041KA1240N+02041MA1999999096301MD1999999-0141REMSYN076AAXX  06124 83288 32598 21402 10256 20227 39630 40118 81104 333 20204 59014;
0137832880999992006050618004-13267-043417FM-12+0440SBLP V0201401N001510120019N0200001N1+02841+02141100931ADDGF106991061081008001021041MA1999999096091MD1999999+0011REMSYN070AAXX  06184 83288 32598 61403 10284 20214 39609 40093 86824 333 58001;
0168832880999992006050700004-13267-043417FM-12+0440SBLP V0200901N001511050019N0020001N1+02461+02171101071ADDGF106991041051008001001021KA1240M+03091MA1999999096211MD1999999-0091REMSYN088AAXX  07004 83288 32595 60903 10246 20217 39621 40107 84502 333 10309 29078 55063 59009;
0156832880999992006050712004-13267-043417FM-12+0440SBLP V0201801N001010450019N0200001N1+02411+02101101401ADDGF107991041081008001031001KA1240N+02021MA1999999096481MD1999999+0181REMSYN076AAXX  07124 83288 32598 71802 10241 20210 39648 40140 84830 333 20202 58018;
0137832880999992006050718004-13267-043417FM-12+0440SBLP V0201401N001010075019N0200001N1+02911+02111101021ADDGF105991051021008001001001MA1999999096081MD1999999-0011REMSYN070AAXX  07184 83288 32598 51402 10291 20211 39608 40102 85200 333 59001;
0168832880999992006050800004-13267-043417FM-12+0440SBLP V0209999C000010120019N0020001N1+02421+02171101281ADDGF108991051081008001011999KA1240M+02971MA1999999096361MD1999999+0151REMSYN088AAXX  08004 83288 32595 80000 10242 20217 39636 40128 8581/ 333 10297 29077 55026 58015;
0156832880999992006050812004-13267-043417FM-12+0440SBLP V0201401N001010450019N0200001N1+02391+01891101431ADDGF107991031041008001031001KA1240N+02001MA1999999096511MD1999999+0031REMSYN076AAXX  08124 83288 32598 71402 10239 20189 39651 40143 83430 333 20200 58003;
0137832880999992006050818004-13267-043417FM-12+0440SBLP V0202301N001012200019N0200001N1+02971+01831100971ADDGF103991031021008001001001MA1999999096111MD1999999+0031REMSYN070AAXX  08184 83288 32598 32302 10297 20183 39611 40097 83200 333 58003;
0178832880999992006050900004-13267-043417FM-12+0440SBLP V0201401N002112200019N0020001N1+02341+01621101291ADDGA1001+999999999GF100991001001999999001001KA1240M+03011MA1999999096361MD1999999+0001REMSYN082AAXX  09004 83288 32995 01404 10234 20162 39636 40129 333 10301 29063 55056 58000;
0156832880999992006050912004-13267-043417FM-12+0440SBLP V0201801N002112200019N0200001N1+02171+01821101391ADDGF102991011011008001001041KA1240N+01711MA1999999096441MD1999999+0071REMSYN076AAXX  09124 83288 32598 21804 10217 20182 39644 40139 81104 333 20171 58007;
0137832880999992006050918004-13267-043417FM-12+0440SBLP V0200901N001512200019N0200001N1+03031+01431101021ADDGF103991021011008001001021MA1999999096101MD1999999-0011REMSYN070AAXX  09184 83288 32598 30903 10303 20143 39610 40102 82102 333 59001;
0178832880999992006051000004-13267-043417FM-12+0440SBLP V0201401N001512200019N0020001N1+02441+01711101161ADDGA1001+999999999GF100991001001999999001001KA1240M+03091MA1999999096181MD1999999-0181REMSYN082AAXX  10004 83288 32995 01403 10244 20171 39618 40116 333 10309 29061 55103 59018;
0156832880999992006051012004-13267-043417FM-12+0440SBLP V0201801N000512200019N0200001N1+02311+01951101421ADDGF102991011011008001001021KA1240N+01761MA1999999096501MD1999999+0061REMSYN076AAXX  10124 83288 32598 21801 10231 20195 39650 40142 81102 333 20176 58006;
0137832880999992006051018004-13267-043417FM-12+0440SBLP V0201801N001012200019N0200001N1+03091+01651101101ADDGF104991041021008001001001MA1999999096131MD1999999+0031REMSYN070AAXX  10184 83288 32598 41802 10309 20165 39613 40110 84200 333 58003;
0168832880999992006051100004-13267-043417FM-12+0440SBLP V0200901N000512200019N0020001N1+02591+01911101191ADDGF102991021011008001001001KA1240M+03131MA1999999096291MD1999999+0111REMSYN088AAXX  11004 83288 32595 20901 10259 20191 39629 40119 82100 333 10313 29063 55079 58011;
0156832880999992006051112004-13267-043417FM-12+0440SBLP V0201801N000512200019N0200001N1+02431+01951101301ADDGF101991001001999999001011KA1240N+01861MA1999999096401MD1999999-0101REMSYN076AAXX  11124 83288 32998 11801 10243 20195 39640 40130 80001 333 20186 59010;
0137832880999992006051118004-13267-043417FM-12+0440SBLP V0202701N001512200019N0200001N1+03241+01711100821ADDGF104991041081008001001001MA1999999095981MD1999999-0151REMSYN070AAXX  11184 83288 32598 42703 10324 20171 39598 40082 84800 333 59015;
0168832880999992006051200004-13267-043417FM-12+0440SBLP V0209999C000012200019N0020001N1+02621+01961101041ADDGF104991021001017501031051KA1240M+03311MA1999999096151MD1999999-0141REMSYN088AAXX  12004 83288 32795 40000 10262 20196 39615 40104 82035 333 10331 29062 55100 59014;
0137832880999992006051218004-13267-043417FM-12+0440SBLP V0201801N000510075019N0200001N1+03041+02091100891ADDGF106991051021008001031001MA1999999096051MD1999999+0071REMSYN070AAXX  12184 83288 32598 61801 10304 20209 39605 40089 85230 333 58007;
0168832880999992006051300004-13267-043417FM-12+0440SBLP V0200901N000511050019N0020001N1+02641+02071100871ADDGF105991031011008001001021KA1240M+03151MA1999999096071MD1999999-0081REMSYN088AAXX  13004 83288 32595 50901 10264 20207 39607 40087 83102 333 10315 29071 55030 59008;
0207832880999992006051312004-13267-043417FM-12+0440SBLP V0200901N001010120019N0200001N1+02171+02001101591ADDAA124003091AY161061AY261061GF108991081081008001999999KA1240N+02001MA1999999096661MD1999999+0341MW1031REMSYN094AAXX  13124 83288 21598 80902 10217 20200 39666 40159 70366 888// 333 20200 58034 60034 10032;
0137832880999992006051318004-13267-043417FM-12+0440SBLP V0202701N001010120019N0200001N1+02691+02121101251ADDGF107991051081008001031001MA1999999096351MD1999999+0301REMSYN070AAXX  13184 83288 32598 72702 10269 20212 39635 40125 85830 333 58030;
0168832880999992006051400004-13267-043417FM-12+0440SBLP V0201801N000510120019N0020001N1+02391+02141101481ADDGF107991051081008001041001KA1240M+02711MA1999999096531MD1999999+0461REMSYN088AAXX  14004 83288 32595 71801 10239 20214 39653 40148 85840 333 10271 29082 55001 58046;
