0196833390999992006010100004-14050-042617FM-12+088299999V0201401N004612200019N0020001N1+02131+01761101281ADDAY101061AY201061GF102991021021004501001001KA1240M+02441MA1999999091641MD1999999+0011MW1101REMSYN094AAXX  01004 83339 31495 21409 10213 20176 39164 40128 71000 82200 333 10244 29077 55015 58001;
0156833390999992006010112004-14050-042617FM-12+088299999V0200901N004110042019N0100001N1+01981+01791101231ADDGF107991071021004501001001KA1240N+01851MA1999999091571MD1999999-0161REMSYN076AAXX  01124 83339 32497 70908 10198 20179 39157 40123 87200 333 20185 59016;
0178833390999992006010200004-14050-042617FM-12+088299999V0201401N003612200019N0020001N1+02341+01641101021ADDGA1001+999999999GF100991001001999999001001KA1240M+02741MA1999999091421MD1999999-0221REMSYN082AAXX  02004 83339 32995 01407 10234 20164 39142 40102 333 10274 29065 55051 59022;
0156833390999992006010212004-14050-042617FM-12+088299999V0201401N004610042019N0100001N1+02191+01631101271ADDGF106991061021004501001001KA1240N+01781MA1999999091681MD1999999+0111REMSYN076AAXX  02124 83339 32497 61409 10219 20163 39168 40127 86200 333 20178 58011;
0137833390999992006010218004-14050-042617FM-12+088299999V0203201N004112200019N0100001N1+02791+01181100901ADDGF102991011021004501001041MA1999999091391MD1999999+0081REMSYN070AAXX  02184 83339 32497 23208 10279 20118 39139 40090 81204 333 58008;
0178833390999992006010300004-14050-042617FM-12+088299999V0200901N001512200019N0020001N1+02291+00971101011ADDGA1001+999999999GF100991001001999999001001KA1240M+03201MA1999999091451MD1999999+0031REMSYN082AAXX  03004 83339 32995 00903 10229 20097 39145 40101 333 10320 29052 55102 58003;
0156833390999992006010312004-14050-042617FM-12+088299999V0201401N005110042019N0100001N1+02271+01751101171ADDGF106991061021004501001001KA1240N+01901MA1999999091621MD1999999-0061REMSYN076AAXX  03124 83339 32497 61410 10227 20175 39162 40117 86200 333 20190 59006;
0137833390999992006010318004-14050-042617FM-12+088299999V0200901N003110042019N0100001N1+02791+01181100841ADDGF106991051021004501021001MA1999999091341MD1999999-0051REMSYN070AAXX  03184 83339 32497 60906 10279 20118 39134 40084 85220 333 59005;
0168833390999992006010400004-14050-042617FM-12+088299999V0201801N003110042019N0020001N1+02291+01151100881ADDGF105991051021004501001001KA1240M+02851MA1999999091351MD1999999-0101REMSYN088AAXX  04004 83339 32495 51806 10229 20115 39135 40088 85200 333 10285 29052 55084 59010;
0156833390999992006010412004-14050-042617FM-12+088299999V0201401N004110042019N0100001N1+02121+01821101011ADDGF105991051021004501001001KA1240N+01841MA1999999091431MD1999999-0191REMSYN076AAXX  04124 83339 32497 51408 10212 20182 39143 40101 85200 333 20184 59019;
0137833390999992006010418004-14050-042617FM-12+088299999V0200901N003112200019N0100001N1+02891+01621100461ADDGF102991021021004501001001MA1999999091011MD1999999-0331REMSYN070AAXX  04184 83339 32497 20906 10289 20162 39101 40046 82200 333 59033;
0187833390999992006010500004-14050-042617FM-12+088299999V0200501N000512200019N0020001N1+02351+01561100651ADDGF102991999031008001001001KA1240M+02961MA1999999091131MD1999999-0221REMSYN088AAXX  05004 83339 32595 20501 10235 20156 39113 40065 80300 333 10296 29063 55095 59022;EQDQ01+000002SCOTLC
0156833390999992006010512004-14050-042617FM-12+088299999V0200901N002612200019N0100001N1+02271+01881100861ADDGF105991041021004501001011KA1240N+01921MA1999999091341MD1999999-0091REMSYN076AAXX  05124 83339 32497 50905 10227 20188 39134 40086 84201 333 20192 59009;
0137833390999992006010518004-14050-042617FM-12+088299999V0203201N001512200019N0100001N1+02831+01571100431ADDGF106991041021004501001011MA1999999090981MD1999999-0031REMSYN070AAXX  05184 83339 32497 63203 10283 20157 39098 40043 84201 333 59003;
0156833390999992006010612004-14050-042617FM-12+088299999V0200901N001510450019N0100001N1+02151+01841101081ADDGF106991031021004501031011KA1240N+01991MA1999999091521MD1999999+0181REMSYN076AAXX  06124 83339 32497 60903 10215 20184 39152 40108 83231 333 20199 58018;
0137833390999992006010618004-14050-042617FM-12+088299999V0201401N002610450019N0100001N1+02771+01701100671ADDGF106991041021004501031041MA1999999091201MD1999999+0221REMSYN070AAXX  06184 83339 32497 61405 10277 20170 39120 40067 84234 333 58022;
0168833390999992006010700004-14050-042617FM-12+088299999V0201401N003610450019N0020001N1+02471+01701100941ADDGF106991031021004501031001KA1240M+02841MA1999999091411MD1999999+0211REMSYN088AAXX  07004 83339 32495 61407 10247 20170 39141 40094 83230 333 10284 29065 55031 58021;
0156833390999992006010712004-14050-042617FM-12+088299999V0200901N004610042019N0100001N1+02291+01791101081ADDGF105991051021004501001001KA1240N+01921MA1999999091571MD1999999+0051REMSYN076AAXX  07124 83339 32497 50909 10229 20179 39157 40108 85200 333 20192 58005;
0137833390999992006010718004-14050-042617FM-12+088299999V0200901N002110042019N0100001N1+02831+01631100731ADDGF106991061021004501001001MA1999999091271MD1999999+0071REMSYN070AAXX  07184 83339 32497 60904 10283 20163 39127 40073 86200 333 58007;
0156833390999992006010812004-14050-042617FM-12+088299999V0200901N006212200019N0100001N1+02281+01701101111ADDGF102991021011004501001001KA1240N+01841MA1999999091581MD1999999+0011REMSYN076AAXX  08124 83339 32497 20912 10228 20170 39158 40111 82100 333 20184 58001;
0137833390999992006010818004-14050-042617FM-12+088299999V0200901N003112200019N0100001N1+02851+01291100791ADDGF104991041021004501001001MA1999999091311MD1999999+0041REMSYN070AAXX  08184 83339 32497 40906 10285 20129 39131 40079 84200 333 58004;
0184833390999992006010912004-14050-042617FM-12+088299999V0200901N008210042019N0040001N1+02071+01701101281ADDAY101061AY201061GF108991081051004501999999KA1240N+01831MA1999999091651MD1999999+0071MW1101REMSYN082AAXX  09124 83339 31496 80916 10207 20170 39165 40128 71000 885// 333 20183 58007;
0137833390999992006010918004-14050-042617FM-12+088299999V0201401N005710042019N0100001N1+02571+01561101011ADDGF106991051021004501021001MA1999999091451MD1999999+0141REMSYN070AAXX  09184 83339 32497 61411 10257 20156 39145 40101 85220 333 58014;
0168833390999992006011000004-14050-042617FM-12+088299999V0203601N005112200019N0020001N1+02211+01691101091ADDGF103991031021004501001001KA1240M+02621MA1999999091481MD1999999-0041REMSYN088AAXX  10004 83339 32495 33610 10221 20169 39148 40109 83200 333 10262 29070 55025 59004;
0156833390999992006011012004-14050-042617FM-12+088299999V0203201N005110042019N0100001N1+02231+01651101301ADDGF106991051021004501031001KA1240N+01821MA1999999091691MD1999999+0041REMSYN076AAXX  10124 83339 32497 63210 10223 20165 39169 40130 85230 333 20182 58004;
0168833390999992006011100004-14050-042617FM-12+088299999V0203601N006210042019N0020001N1+02151+01701101351ADDGF106991061021004501001001KA1240M+02581MA1999999091741MD1999999+0261REMSYN088AAXX  11004 83339 32495 63612 10215 20170 39174 40135 86200 333 10258 29069 55010 58026;
0201833390999992006011112004-14050-042617FM-12+088299999V0201401N003110042019N0040001N1+01911+01851101471ADDAA124000891AY161061AY261061GF108991081051004501999999KA1240N+01801MA1999999091791MD1999999+0101MW1101REMSYN088AAXX  11124 83339 21496 81406 10191 20185 39179 40147 71066 885// 333 20180 58010 69984;
0137833390999992006011118004-14050-042617FM-12+088299999V0200501N006210042019N0100001N1+02671+01301101061ADDGF106991051021004501021001MA1999999091521MD1999999-0081REMSYN070AAXX  11184 83339 32497 60512 10267 20130 39152 40106 85220 333 59008;
0137833390999992006011218004-14050-042617FM-12+088299999V0200901N005712200019N0100001N1+02791+01371101081ADDGF103991031021004501001001MA1999999091551MD1999999+0031REMSYN070AAXX  12184 83339 32497 30911 10279 20137 39155 40108 83200 333 58003;
0196833390999992006011300004-14050-042617FM-12+088299999V0200501N003612200019N0020001N1+02051+01681101411ADDAY101061AY201061GF102991021021004501001001KA1240M+02841MA1999999091741MD1999999+0101MW1101REMSYN094AAXX  13004 83339 31495 20507 10205 20168 39174 40141 71000 82200 333 10284 29070 55064 58010;
0184833390999992006011312004-14050-042617FM-12+088299999V0200501N006210042019N0040001N1+01991+01721101571ADDAY101061AY201061GF108991081051004501999999KA1240N+01761MA1999999091851MD1999999+0001MW1101REMSYN082AAXX  13124 83339 31496 80512 10199 20172 39185 40157 71000 885// 333 20176 58000;
0137833390999992006011318004-14050-042617FM-12+088299999V0201401N005112200019N0100001N1+02731+01281101261ADDGF103991031021004501001001MA1999999091701MD1999999+0151REMSYN070AAXX  13184 83339 32497 31410 10273 20128 39170 40126 83200 333 58015;
0168833390999992006011400004-14050-042617FM-12+088299999V0200901N006212200019N0020001N1+02331+01501101411ADDGF102991021021004501001001KA1240M+02761MA1999999091771MD1999999+0031REMSYN088AAXX  14004 83339 32495 20912 10233 20150 39177 40141 82200 333 10276 29061 55063 58003;
0156833390999992006011412004-14050-042617FM-12+088299999V0203201N008212200019N0100001N1+02251+01801101361ADDGF104991041021004501001001KA1240N+01721MA1999999091791MD1999999-0061REMSYN076AAXX  14124 83339 32497 43216 10225 20180 39179 40136 84200 333 20172 59006;
0137833390999992006011418004-14050-042617FM-12+088299999V0201401N005112200019N0100001N1+02671+01331101111ADDGF102991021021004501001001MA1999999091561MD1999999-0141REMSYN070AAXX  14184 83339 32497 21410 10267 20133 39156 40111 82200 333 59014;
0156833390999992006011512004-14050-042617FM-12+088299999V0200501N007712200019N0100001N1+02111+01511101421ADDGF104991041021004501001001KA1240N+01741MA1999999091801MD1999999+0011REMSYN076AAXX  15124 83339 32497 40515 10211 20151 39180 40142 84200 333 20174 58001;
0137833390999992006011518004-14050-042617FM-12+088299999V0200901N004112200019N0100001N1+02731+01081101041ADDGF102991021021004501001001MA1999999091501MD1999999-0061REMSYN070AAXX  15184 83339 32497 20908 10273 20108 39150 40104 82200 333 59006;
0156833390999992006011612004-14050-042617FM-12+088299999V0200901N004610042019N0100001N1+02151+01541101331ADDGF105991051021004501001001KA1240N+01641MA1999999091731MD1999999-0081REMSYN076AAXX  16124 83339 32497 50909 10215 20154 39173 40133 85200 333 20164 59008;
0168833390999992006011700004-14050-042617FM-12+088299999V0200901N002612200019N0020001N1+02341+01301101091ADDGF102991021011004501001001KA1240M+02921MA1999999091531MD1999999-0121REMSYN088AAXX  17004 83339 32495 20905 10234 20130 39153 40109 82100 333 10292 29052 55105 59012;
0156833390999992006011712004-14050-042617FM-12+088299999V0200501N005112200019N0100001N1+02331+01621101241ADDGF103991021011004501001011KA1240N+01801MA1999999091701MD1999999-0021REMSYN076AAXX  17124 83339 32497 30510 10233 20162 39170 40124 82101 333 20180 59002;
0137833390999992006011718004-14050-042617FM-12+088299999V0201401N003110042019N0100001N1+02831+01351100871ADDGF106991051021004501001011MA1999999091361MD1999999+0011REMSYN070AAXX  17184 83339 32497 61406 10283 20135 39136 40087 85201 333 58001;
0178833390999992006011800004-14050-042617FM-12+088299999V0200901N003112200019N0020001N1+02371+01451101021ADDGA1001+999999999GF100991001001999999001001KA1240M+02951MA1999999091501MD1999999-0031REMSYN082AAXX  18004 83339 32995 00906 10237 20145 39150 40102 333 10295 29054 55098 59003;
0156833390999992006011812004-14050-042617FM-12+088299999V0200901N004110450019N0100001N1+02201+01671101221ADDGF106991041021004501031001KA1240N+01881MA1999999091661MD1999999-0041REMSYN076AAXX  18124 83339 32497 60908 10220 20167 39166 40122 84230 333 20188 59004;
0178833390999992006011900004-14050-042617FM-12+088299999V0201401N003612200019N0020001N1+02441+01201100851ADDGA1001+999999999GF100991001001999999001001KA1240M+03051MA1999999091331MD1999999-0171REMSYN082AAXX  19004 83339 32995 01407 10244 20120 39133 40085 333 10305 29050 55082 59017;
0156833390999992006011912004-14050-042617FM-12+088299999V0200901N005110042019N0100001N1+02161+01701101121ADDGF106991061021004501001001KA1240N+01841MA1999999091571MD1999999-0091REMSYN076AAXX  19124 83339 32497 60910 10216 20170 39157 40112 86200 333 20184 59009;
0137833390999992006011918004-14050-042617FM-12+088299999V0201401N005112200019N0100001N1+02901+01361100641ADDGF105991031011004501001011MA1999999091171MD1999999-0111REMSYN070AAXX  19184 83339 32497 51410 10290 20136 39117 40064 83101 333 59011;
0168833390999992006012000004-14050-042617FM-12+088299999V0201401N005112200019N0020001N1+02411+01651100811ADDGF102991021021004501001001KA1240M+03001MA1999999091291MD1999999-0041REMSYN088AAXX  20004 83339 32495 21410 10241 20165 39129 40081 82200 333 10300 29060 55075 59004;
0156833390999992006012012004-14050-042617FM-12+088299999V0201401N008212200019N0100001N1+02161+01541101141ADDGF102991011021004501001011KA1240N+01811MA1999999091591MD1999999+0021REMSYN076AAXX  20124 83339 32497 21416 10216 20154 39159 40114 81201 333 20181 58002;
0137833390999992006012018004-14050-042617FM-12+088299999V0201401N005112200019N0100001N1+02901+01401100771ADDGF103991021011004501001011MA1999999091291MD1999999+0121REMSYN070AAXX  20184 83339 32497 31410 10290 20140 39129 40077 82101 333 58012;
0223833390999992006012100004-14050-042617FM-12+088299999V0201401N005112200019N0020001N1+01891+01711101241ADDAA106000591AY161061AY221061GA1001+999999999GF100991001001999999001001KA1240M+02941MA1999999091561MD1999999+0271MW1021REMSYN094AAXX  21004 83339 21995 01410 10189 20171 39156 40124 70262 333 10294 29072 55095 58027 69961;
0201833390999992006012112004-14050-042617FM-12+088299999V0200901N004110042019N0100001N1+01901+01751101521ADDAA124000591AY161061AY221061GF108991051021004501021999KA1240N+01731MA1999999091771MD1999999+0181MW1021REMSYN088AAXX  21124 83339 21497 80908 10190 20175 39177 40152 70262 8522/ 333 20173 58018 69964;
0137833390999992006012118004-14050-042617FM-12+088299999V0200901N006212200019N0100001N1+02751+01321100961ADDGF103991031021004501001001MA1999999091411MD1999999+0121REMSYN070AAXX  21184 83339 32497 30912 10275 20132 39141 40096 83200 333 58012;
0178833390999992006012200004-14050-042617FM-12+088299999V0201401N006712200019N0020001N1+02261+01711101161ADDGA1001+999999999GF100991001001999999001001KA1240M+02871MA1999999091531MD1999999-0031REMSYN082AAXX  22004 83339 32995 01413 10226 20171 39153 40116 333 10287 29068 55062 59003;
0156833390999992006012212004-14050-042617FM-12+088299999V0200901N005110042019N0100001N1+02131+01741101331ADDGF106991061021004501001001KA1240N+01791MA1999999091721MD1999999-0051REMSYN076AAXX  22124 83339 32497 60910 10213 20174 39172 40133 86200 333 20179 59005;
0137833390999992006012218004-14050-042617FM-12+088299999V0201401N002612200019N0100001N1+02981+01441100821ADDGF103991031021004501001001MA1999999091351MD1999999-0061REMSYN070AAXX  22184 83339 32497 31405 10298 20144 39135 40082 83200 333 59006;
0156833390999992006012312004-14050-042617FM-12+088299999V0200901N004110042019N0100001N1+02251+01711101241ADDGF105991051021004501001001KA1240N+01801MA1999999091701MD1999999-0021REMSYN076AAXX  23124 83339 32497 50908 10225 20171 39170 40124 85200 333 20180 59002;
0137833390999992006012318004-14050-042617FM-12+088299999V0203601N004612200019N0100001N1+03171+01091100621ADDGF104991041021004501001001MA1999999091241MD1999999-0111REMSYN070AAXX  23184 83339 32497 43609 10317 20109 39124 40062 84200 333 59011;
0178833390999992006012400004-14050-042617FM-12+088299999V0201401N002612200019N0020001N1+02551+01081100841ADDGA1001+999999999GF100991001001999999001001KA1240M+03221MA1999999091351MD1999999-0111REMSYN082AAXX  24004 83339 32995 01405 10255 20108 39135 40084 333 10322 29045 55100 59011;
0156833390999992006012412004-14050-042617FM-12+088299999V0200501N004612200019N0100001N1+02411+01841101131ADDGF103991021021004501031001KA1240N+01961MA1999999091651MD1999999-0051REMSYN076AAXX  24124 83339 32497 30509 10241 20184 39165 40113 82230 333 20196 59005;
0137833390999992006012418004-14050-042617FM-12+088299999V0201401N003112200019N0100001N1+03211+01231100621ADDGF102991021021004501001001MA1999999091251MD1999999+0011REMSYN070AAXX  24184 83339 32497 21406 10321 20123 39125 40062 82200 333 58001;
0196833390999992006012500004-14050-042617FM-12+088299999V0201801N000510042019N0020001N1+02751+01701100871ADDAY101061AY201061GF106991061021004501001001KA1240M+03331MA1999999091461MD1999999+0111MW1131REMSYN094AAXX  25004 83339 31495 61801 10275 20170 39146 40087 71300 86200 333 10333 29046 55099 58011;
0184833390999992006012512004-14050-042617FM-12+088299999V0200901N002110042019N0100001N1+02291+02011101221ADDAY101061AY201061GF106991051021004501021001KA1240N+02121MA1999999091741MD1999999+0091MW1101REMSYN082AAXX  25124 83339 31497 60904 10229 20201 39174 40122 71000 85220 333 20212 58009;
0137833390999992006012518004-14050-042617FM-12+088299999V0201401N003110042019N0100001N1+03151+01501100791ADDGF106991051021004501001021MA1999999091431MD1999999+0181REMSYN070AAXX  25184 83339 32497 61406 10315 20150 39143 40079 85202 333 58018;
0168833390999992006012600004-14050-042617FM-12+088299999V0200501N000512200019N0020001N1+02551+01881101111ADDGF102991021021004501001001KA1240M+03351MA1999999091601MD1999999+0141REMSYN088AAXX  26004 83339 32495 20501 10255 20188 39160 40111 82200 333 10335 29063 55060 58014;
0156833390999992006012612004-14050-042617FM-12+088299999V0200901N002112200019N0100001N1+02711+01941101071ADDGF104991031021004501001041KA1240N+01981MA1999999091661MD1999999-0081REMSYN076AAXX  26124 83339 32497 40904 10271 20194 39166 40107 83204 333 20198 59008;
0137833390999992006012618004-14050-042617FM-12+088299999V0200501N003110450019N0100001N1+03531+01031100581ADDGF105991041021004501021001MA1999999091301MD1999999-0131REMSYN070AAXX  26184 83339 32497 50506 10353 20103 39130 40058 84220 333 59013;
0168833390999992006012700004-14050-042617FM-12+088299999V0201401N000512200019N0020001N1+02571+01671100951ADDGF102991021021004501001001KA1240M+03611MA1999999091551MD1999999-0051REMSYN088AAXX  27004 83339 32495 21401 10257 20167 39155 40095 82200 333 10361 29049 55104 59005;
0156833390999992006012712004-14050-042617FM-12+088299999V0203201N000512200019N0100001N1+02491+02011101151ADDGF103991031021004501001001KA1240N+02001MA1999999091701MD1999999+0041REMSYN076AAXX  27124 83339 32497 33201 10249 20201 39170 40115 83200 333 20200 58004;
0137833390999992006012718004-14050-042617FM-12+088299999V0201401N005112200019N0100001N1+03271+01231100671ADDGF104991031021004501021001MA1999999091361MD1999999+0061REMSYN070AAXX  27184 83339 32497 41410 10327 20123 39136 40067 83220 333 58006;
0178833390999992006012800004-14050-042617FM-12+088299999V0200901N005112200019N0020001N1+02691+01211100921ADDGA1001+999999999GF100991001001999999001001KA1240M+03411MA1999999091511MD1999999-0041REMSYN082AAXX  28004 83339 32995 00910 10269 20121 39151 40092 333 10341 29046 55110 59004;
0184833390999992006012812004-14050-042617FM-12+088299999V0200901N003110042019N0040001N1+02211+01841101271ADDAY101061AY201061GF107991061021004501021999KA1240N+01981MA1999999091761MD1999999+0061MW1101REMSYN082AAXX  28124 83339 31496 70906 10221 20184 39176 40127 71000 8622/ 333 20198 58006;
0137833390999992006012818004-14050-042617FM-12+088299999V0201801N004612200019N0100001N1+03111+01281100811ADDGF102991011021004501021001MA1999999091431MD1999999+0071REMSYN070AAXX  28184 83339 32497 21809 10311 20128 39143 40081 81220 333 58007;
0137833390999992006012918004-14050-042617FM-12+088299999V0200901N004112200019N0100001N1+03191+00991100561ADDGF102991011021004501021001MA1999999091221MD1999999-0211REMSYN070AAXX  29184 83339 32497 20908 10319 20099 39122 40056 81220 333 59021;
0178833390999992006013000004-14050-042617FM-12+088299999V0202301N000512200019N0020001N1+02611+00891100801ADDGA1001+999999999GF100991001001999999001001KA1240M+03321MA1999999091361MD1999999-0081REMSYN082AAXX  30004 83339 32995 02301 10261 20089 39136 40080 333 10332 29040 55117 59008;
0156833390999992006013012004-14050-042617FM-12+088299999V0201401N001512200019N0100001N1+02371+01661101151ADDGF102991001001999999001011KA1240N+01871MA1999999091671MD1999999+0091REMSYN076AAXX  30124 83339 32897 21403 10237 20166 39167 40115 80001 333 20187 58009;
0137833390999992006013018004-14050-042617FM-12+088299999V0202701N003112200019N0100001N1+03331+01401100531ADDGF105991041021004501001011MA1999999091171MD1999999-0051REMSYN070AAXX  30184 83339 32497 52706 10333 20140 39117 40053 84201 333 59005;
0178833390999992006013100004-14050-042617FM-12+088299999V0201401N003612200019N0020001N1+02611+01371100741ADDGA1001+999999999GF100991001001999999001001KA1240M+03431MA1999999091311MD1999999-0051REMSYN082AAXX  31004 83339 32995 01407 10261 20137 39131 40074 333 10343 29047 55095 59005;
0156833390999992006013112004-14050-042617FM-12+088299999V0200501N004112200019N0100001N1+02471+01851100961ADDGF102991021011004501001001KA1240N+01971MA1999999091531MD1999999-0141REMSYN076AAXX  31124 83339 32497 20508 10247 20185 39153 40096 82100 333 20197 59014;
0137833390999992006013118004-14050-042617FM-12+088299999V0200901N004112200019N0100001N1+03171+01491100551ADDGF102991021021004501001001MA1999999091171MD1999999+0001REMSYN070AAXX  31184 83339 32497 20908 10317 20149 39117 40055 82200 333 58000;
0178833390999992006020100004-14050-042617FM-12+088299999V0200901N001012200019N0020001N1+02621+01301100611ADDGA1001+999999999GF100991001001999999001001KA1240M+03261MA1999999091211MD1999999-0101REMSYN082AAXX  01004 83339 32995 00902 10262 20130 39121 40061 333 10326 29048 55112 59010;
0156833390999992006020112004-14050-042617FM-12+088299999V0200901N004112200019N0100001N1+02371+01871100981ADDGF103991031021004501001001KA1240N+01991MA1999999091521MD1999999-0011REMSYN076AAXX  01124 83339 32497 30908 10237 20187 39152 40098 83200 333 20199 59001;
0137833390999992006020118004-14050-042617FM-12+088299999V0200501N002612200019N0100001N1+03211+01481100511ADDGF104991031021004501001011MA1999999091171MD1999999+0001REMSYN070AAXX  01184 83339 32497 40505 10321 20148 39117 40051 83201 333 58000;
0178833390999992006020200004-14050-042617FM-12+088299999V0200901N006712200019N0020001N1+02301+01871100811ADDGA1001+999999999GF100991001001999999001001KA1240M+03311MA1999999091311MD1999999+0101REMSYN082AAXX  02004 83339 32995 00913 10230 20187 39131 40081 333 10331 29066 55096 58010;
0156833390999992006020212004-14050-042617FM-12+088299999V0200901N005112200019N0100001N1+02351+01561101141ADDGF102991011011004501001011KA1240N+01921MA1999999091591MD1999999+0071REMSYN076AAXX  02124 83339 32497 20910 10235 20156 39159 40114 81101 333 20192 58007;
0137833390999992006020218004-14050-042617FM-12+088299999V0201401N001012200019N0100001N1+02981+01511100661ADDGF106991031021004501001041MA1999999091241MD1999999+0071REMSYN070AAXX  02184 83339 32497 61402 10298 20151 39124 40066 83204 333 58007;
0168833390999992006020300004-14050-042617FM-12+088299999V0200901N002612200019N0020001N1+02611+01041100791ADDGF102991021021004501001001KA1240M+03151MA1999999091351MD1999999+0041REMSYN088AAXX  03004 83339 32495 20905 10261 20104 39135 40079 82200 333 10315 29044 55093 58004;
0156833390999992006020312004-14050-042617FM-12+088299999V0200901N005710450019N0100001N1+02361+01611101021ADDGF106991021011004501031001KA1240N+01951MA1999999091551MD1999999-0041REMSYN076AAXX  03124 83339 32497 60911 10236 20161 39155 40102 82130 333 20195 59004;
0137833390999992006020318004-14050-042617FM-12+088299999V0200901N005110450019N0100001N1+02961+01461100631ADDGF106991041021004501031011MA1999999091211MD1999999-0031REMSYN070AAXX  03184 83339 32497 60910 10296 20146 39121 40063 84231 333 59003;
0168833390999992006020400004-14050-042617FM-12+088299999V0201401N004112200019N0020001N1+02511+01211100751ADDGF104991041021004501001001KA1240M+03091MA1999999091291MD1999999-0061REMSYN088AAXX  04004 83339 32495 41408 10251 20121 39129 40075 84200 333 10309 29048 55094 59006;
0137833390999992006020418004-14050-042617FM-12+088299999V0200901N005110042019N0100001N1+03071+01481100531ADDGF105991051021004501001001MA1999999091121MD1999999-0091REMSYN070AAXX  04184 83339 32497 50910 10307 20148 39112 40053 85200 333 59009;
0187833390999992006020500004-14050-042617FM-12+088299999V0201401N003112200019N0020001N1+02511+01401100601ADDGF102991001001999999001041KA1240M+03151MA1999999091181MD1999999-0111REMSYN088AAXX  05004 83339 32895 21406 10251 20140 39118 40060 80004 333 10315 29049 55116 59011;EQDQ01+022502SCOLCB
0156833390999992006020512004-14050-042617FM-12+088299999V0200901N006712200019N0100001N1+02331+01621101121ADDGF102991021011004501001001KA1240N+01861MA1999999091611MD1999999+0161REMSYN076AAXX  05124 83339 32497 20913 10233 20162 39161 40112 82100 333 20186 58016;
0137833390999992006020518004-14050-042617FM-12+088299999V0200901N004110042019N0100001N1+03091+01241100581ADDGF106991061021004501001001MA1999999091181MD1999999+0061REMSYN070AAXX  05184 83339 32497 60908 10309 20124 39118 40058 86200 333 58006;
0168833390999992006020600004-14050-042617FM-12+088299999V0200901N006212200019N0020001N1+02541+01421100741ADDGF102991021011004501001001KA1240M+03221MA1999999091281MD1999999+0101REMSYN088AAXX  06004 83339 32495 20912 10254 20142 39128 40074 82100 333 10322 29049 55087 58010;
0156833390999992006020612004-14050-042617FM-12+088299999V0201401N005712200019N0100001N1+02331+01631101001ADDGF102991021021004501001001KA1240N+01901MA1999999091521MD1999999-0091REMSYN076AAXX  06124 83339 32497 21411 10233 20163 39152 40100 82200 333 20190 59009;
0137833390999992006020618004-14050-042617FM-12+088299999V0200901N003110042019N0100001N1+03131+01301100511ADDGF105991051021004501001001MA1999999091151MD1999999-0031REMSYN070AAXX  06184 83339 32497 50906 10313 20130 39115 40051 85200 333 59003;
0178833390999992006020700004-14050-042617FM-12+088299999V0209999C000012200019N0020001N1+02571+01281100681ADDGA1001+999999999GF100991001001999999001001KA1240M+03201MA1999999091231MD1999999-0051REMSYN082AAXX  07004 83339 32995 01800 10257 20128 39123 40068 333 10320 29046 55107 59005;
0184833390999992006020712004-14050-042617FM-12+088299999V0203601N004610042019N0100001N1+02291+01961100971ADDAY101061AY201061GF106991061021004501001001KA1240N+02041MA1999999091491MD1999999-0031MW1101REMSYN082AAXX  07124 83339 31497 63609 10229 20196 39149 40097 71000 86200 333 20204 59003;
0182833390999992006020718004-14050-042617FM-12+088299999V0200501N001512200019N0100001N1+03151+01661100431ADDAA106000391AY161061AY261061GF104991041021004501001001MA1999999091101MD1999999-0051MW1021REMSYN082AAXX  07184 83339 21497 40503 10315 20166 39110 40043 70266 84200 333 59005 69931;
0168833390999992006020800004-14050-042617FM-12+088299999V0203201N001512200019N0020001N1+02411+01821100811ADDGF102991021021004501001001KA1240M+03271MA1999999091311MD1999999+0081REMSYN088AAXX  08004 83339 32495 23203 10241 20182 39131 40081 82200 333 10327 29065 55058 58008;
0201833390999992006020812004-14050-042617FM-12+088299999V0203601N002112200019N0100001N1+02591+01901101001ADDAA124000391AY161061AY261061GF103991031021004501001001KA1240N+02151MA1999999091541MD1999999+0051MW1021REMSYN088AAXX  08124 83339 21497 33604 10259 20190 39154 40100 70266 83200 333 20215 58005 69934;
0182833390999992006020818004-14050-042617FM-12+088299999V0200501N003612200019N0100001N1+02911+02041100641ADDAA106002091AY161061AY261061GF102991021021004501001001MA1999999091241MD1999999+0141MW1021REMSYN082AAXX  08184 83339 21497 20507 10291 20204 39124 40064 70266 82200 333 58014 60021;
0196833390999992006020900004-14050-042617FM-12+088299999V0203601N001512200019N0020001N1+02351+02071100831ADDAY191061AY201061GF104991041021004501001001KA1240M+03061MA1999999091361MD1999999+0051MW1101REMSYN094AAXX  09004 83339 31495 43603 10235 20207 39136 40083 71090 84200 333 10306 29072 55072 58005;
0201833390999992006020912004-14050-042617FM-12+088299999V0201401N001512200019N0100001N1+02631+02121100861ADDAA124002091AY161061AY261061GF102991021021004501001001KA1240N+02201MA1999999091681MD1999999+0141MW1021REMSYN088AAXX  09124 83339 21497 21403 10263 20212 39168 40086 70266 82200 333 20220 58014 60024;
0182833390999992006020918004-14050-042617FM-12+088299999V0200901N001510042019N0100001N1+03071+01871100701ADDAA106001091AY191061AY261061GF105991051021004501001001MA1999999091311MD1999999+0071MW1021REMSYN082AAXX  09184 83339 21497 50903 10307 20187 39131 40070 70296 85200 333 58007 60011;
0168833390999992006021000004-14050-042617FM-12+088299999V0201801N001510042019N0020001N1+02591+02081100791ADDGF106991061021004501001001KA1240M+03251MA1999999091391MD1999999+0031REMSYN088AAXX  10004 83339 32495 61803 10259 20208 39139 40079 86200 333 10325 29066 55063 58003;
0201833390999992006021012004-14050-042617FM-12+088299999V0201401N002610042019N0100001N1+02391+02031101101ADDAA124013091AY191061AY261061GF106991051021004501021001KA1240N+01981MA1999999091631MD1999999-0051MW1101REMSYN088AAXX  10124 83339 21497 61405 10239 20203 39163 40110 71096 85220 333 20198 59005 60134;
0137833390999992006021018004-14050-042617FM-12+088299999V0203201N003112200019N0100001N1+03191+01571100661ADDGF103991031021004501001001MA1999999091291MD1999999-0021REMSYN070AAXX  10184 83339 32497 33206 10319 20157 39129 40066 83200 333 59002;
0178833390999992006021100004-14050-042617FM-12+088299999V0201401N001512200019N0020001N1+02451+01031100961ADDGA1001+999999999GF100991001001999999001001KA1240M+03271MA1999999091461MD1999999+0071REMSYN082AAXX  11004 83339 32995 01403 10245 20103 39146 40096 333 10327 29067 55102 58007;
0156833390999992006021112004-14050-042617FM-12+088299999V0209999C000012200019N0100001N1+02471+02011101121ADDGF102991011021004501031001KA1240N+02041MA1999999091631MD1999999+0001REMSYN076AAXX  11124 83339 32497 20000 10247 20201 39163 40112 81230 333 20204 58000;
0137833390999992006021118004-14050-042617FM-12+088299999V0203601N003112200019N0100001N1+03151+01801100551ADDGF104991041021004501001001MA1999999091251MD1999999-0041REMSYN070AAXX  11184 83339 32497 43606 10315 20180 39125 40055 84200 333 59004;
0213833390999992006021200004-14050-042617FM-12+088299999V0203601N003112200019N0020001N1+02251+01731100921ADDAA106001091AY191061AY261061GF103991031021004501001001KA1240M+03201MA1999999091411MD1999999-0051MW1021REMSYN100AAXX  12004 83339 21495 33606 10225 20173 39141 40092 70296 83200 333 10320 29068 55072 59005 60011;
0201833390999992006021212004-14050-042617FM-12+088299999V0201401N002110042019N0100001N1+02331+02151101191ADDAA124001091AY161061AY261061GF106991051021004501021001KA1240N+01961MA1999999091641MD1999999+0011MW1101REMSYN088AAXX  12124 83339 21497 61404 10233 20215 39164 40119 71066 85220 333 20196 58001 60014;
0182833390999992006021218004-14050-042617FM-12+088299999V0200501N001512200019N0100001N1+02911+01901100691ADDAA106000391AY191061AY261061GF104991031021004501001041MA1999999091261MD1999999+0011MW1021REMSYN082AAXX  12184 83339 21497 40503 10291 20190 39126 40069 70296 83204 333 58001 69931;
0213833390999992006021300004-14050-042617FM-12+088299999V0200901N001010042019N0020001N1+02271+02161101011ADDAA106020191AY191061AY261061GF108991051051004501999999KA1240M+03081MA1999999091471MD1999999+0061MW1101REMSYN100AAXX  13004 83339 21495 80902 10227 20216 39147 40101 71096 855// 333 10308 29082 55061 58006 60201;
0201833390999992006021312004-14050-042617FM-12+088299999V0200501N002610042019N0100001N1+02341+01951101231ADDAA124020191AY161061AY221061GF106991061021004501001001KA1240N+01981MA1999999091671MD1999999+0031MW1021REMSYN088AAXX  13124 83339 21497 60505 10234 20195 39167 40123 70262 86200 333 20198 58003 60204;
0137833390999992006021318004-14050-042617FM-12+088299999V0201801N001510042019N0100001N1+03051+01931100641ADDGF105991051021004501001001MA1999999091251MD1999999-0011REMSYN070AAXX  13184 83339 32497 51803 10305 20193 39125 40064 85200 333 59001;
0168833390999992006021400004-14050-042617FM-12+088299999V0201401N001012200019N0020001N1+02421+01911100881ADDGF103991031021004501001001KA1240M+03121MA1999999091391MD1999999-0081REMSYN088AAXX  14004 83339 32495 31402 10242 20191 39139 40088 83200 333 10312 29069 55079 59008;
0156833390999992006021412004-14050-042617FM-12+088299999V0200901N003110042019N0100001N1+02371+01911101151ADDGF105991051021004501001001KA1240N+02041MA1999999091641MD1999999-0031REMSYN076AAXX  14124 83339 32497 50906 10237 20191 39164 40115 85200 333 20204 59003;
0137833390999992006021418004-14050-042617FM-12+088299999V0201401N004112200019N0100001N1+03131+01621100601ADDGF102991021021004501001001MA1999999091221MD1999999-0031REMSYN070AAXX  14184 83339 32497 21408 10313 20162 39122 40060 82200 333 59003;
0168833390999992006021500004-14050-042617FM-12+088299999V0201801N001010042019N0020001N1+02651+01951100791ADDGF106991061021004501001001KA1240M+03251MA1999999091351MD1999999-0041REMSYN088AAXX  15004 83339 32495 61802 10265 20195 39135 40079 86200 333 10325 29061 55108 59004;
0156833390999992006021512004-14050-042617FM-12+088299999V0200501N002110042019N0100001N1+02511+02071101011ADDGF106991061021004501001001KA1240N+02161MA1999999091571MD1999999-0051REMSYN076AAXX  15124 83339 32497 60504 10251 20207 39157 40101 86200 333 20216 59005;
0137833390999992006021518004-14050-042617FM-12+088299999V0202701N005110042019N0100001N1+03031+02001100641ADDGF105991051021004501001001MA1999999091271MD1999999+0051REMSYN070AAXX  15184 83339 32497 52710 10303 20200 39127 40064 85200 333 58005;
0213833390999992006021600004-14050-042617FM-12+088299999V0202301N001012200019N0020001N1+02421+02051100831ADDAA106007191AY191061AY261061GF104991041021004501001001KA1240M+03091MA1999999091361MD1999999+0011MW1131REMSYN100AAXX  16004 83339 21495 42302 10242 20205 39136 40083 71396 84200 333 10309 29073 55061 58001 60071;
0201833390999992006021612004-14050-042617FM-12+088299999V0200501N003110042019N0100001N1+02271+01881101211ADDAA124022191AY161061AY221061GF106991061021004501001001KA1240N+01981MA1999999091671MD1999999+0081MW1021REMSYN088AAXX  16124 83339 21497 60506 10227 20188 39167 40121 70262 86200 333 20198 58008 60224;
0137833390999992006021618004-14050-042617FM-12+088299999V0200501N001012200019N0100001N1+02931+01591100731ADDGF102991021021004501001001MA1999999091271MD1999999+0001REMSYN070AAXX  16184 83339 32497 20502 10293 20159 39127 40073 82200 333 58000;
0168833390999992006021700004-14050-042617FM-12+088299999V0200901N003612200019N0020001N1+02571+01161100901ADDGF102991011011004501031001KA1240M+03001MA1999999091411MD1999999+0051REMSYN088AAXX  17004 83339 32495 20907 10257 20116 39141 40090 81130 333 10300 29051 55103 58005;
0166833390999992006021712004-14050-042617FM-12+088299999V0200901N004112200019N0100001N1+02341+01671101071ADDGA1001+999999999GF100991001001999999001001KA1240N+01921MA1999999091581MD1999999-0091REMSYN070AAXX  17124 83339 32997 00908 10234 20167 39158 40107 333 20192 59009;
0156833390999992006021718004-14050-042617FM-12+088299999V0200901N006219999999N0100001N1+02991+01451100681ADDGF105991999021004501001001MA1999999091251MD1999999-0021REMSYN070AAXX  17184 83339 32497 50912 10299 20145 39125 40068 86200 333 59002;EQDQ01+000062SCOTLC
0168833390999992006021800004-14050-042617FM-12+088299999V0209999C000012200019N0020001N1+02501+01561100791ADDGF103991011021004501031001KA1240M+03021MA1999999091311MD1999999-0101REMSYN088AAXX  18004 83339 32495 30000 10250 20156 39131 40079 81230 333 10302 29054 55114 59010;
0156833390999992006021812004-14050-042617FM-12+088299999V0200501N003112200019N0100001N1+02431+01861101201ADDGF102991021011004501001001KA1240N+01941MA1999999091701MD1999999+0121REMSYN076AAXX  18124 83339 32497 20506 10243 20186 39170 40120 82100 333 20194 58012;
0137833390999992006021818004-14050-042617FM-12+088299999V0201401N003110042019N0100001N1+03091+01501100691ADDGF105991051021004501001001MA1999999091281MD1999999+0031REMSYN070AAXX  18184 83339 32497 51406 10309 20150 39128 40069 85200 333 58003;
0168833390999992006021900004-14050-042617FM-12+088299999V0203201N001010042019N0020001N1+02641+01631100841ADDGF106991061021004501001001KA1240M+03161MA1999999091421MD1999999+0111REMSYN088AAXX  19004 83339 32495 63202 10264 20163 39142 40084 86200 333 10316 29054 55113 58011;
0156833390999992006021912004-14050-042617FM-12+088299999V0200901N003112200019N0100001N1+02331+01931101271ADDGF103991031021004501001001KA1240N+02091MA1999999091781MD1999999+0081REMSYN076AAXX  19124 83339 32497 30906 10233 20193 39178 40127 83200 333 20209 58008;
0137833390999992006021918004-14050-042617FM-12+088299999V0201401N004112200019N0100001N1+03101+01661100841ADDGF104991041021004501001001MA1999999091451MD1999999+0171REMSYN070AAXX  19184 83339 32497 41408 10310 20166 39145 40084 84200 333 58017;
0168833390999992006022000004-14050-042617FM-12+088299999V0200501N001012200019N0020001N1+02531+01781101041ADDGF102991021011004501001001KA1240M+03241MA1999999091501MD1999999+0081REMSYN088AAXX  20004 83339 32495 20502 10253 20178 39150 40104 82100 333 10324 29062 55091 58008;
0156833390999992006022012004-14050-042617FM-12+088299999V0201401N004110042019N0100001N1+02391+01991101151ADDGF105991051021004501001001KA1240N+02061MA1999999091651MD1999999-0131REMSYN076AAXX  20124 83339 32497 51408 10239 20199 39165 40115 85200 333 20206 59013;
0137833390999992006022018004-14050-042617FM-12+088299999V0200501N001012200019N0100001N1+03091+01561100701ADDGF103991031021004501001001MA1999999091331MD1999999-0121REMSYN070AAXX  20184 83339 32497 30502 10309 20156 39133 40070 83200 333 59012;
0168833390999992006022100004-14050-042617FM-12+088299999V0200901N002112200019N0020001N1+02631+01301100751ADDGF102991021021004501001001KA1240M+03161MA1999999091321MD1999999-0181REMSYN088AAXX  21004 83339 32495 20904 10263 20130 39132 40075 82200 333 10316 29052 55102 59018;
0166833390999992006022112004-14050-042617FM-12+088299999V0200901N004612200019N0100001N1+02411+01821100941ADDGA1001+999999999GF100991001001999999001001KA1240N+02001MA1999999091481MD1999999-0171REMSYN070AAXX  21124 83339 32997 00909 10241 20182 39148 40094 333 20200 59017;
0156833390999992006022118004-14050-042617FM-12+088299999V0201801N001512200019N0100001N1+03231+01391100451ADDGF102991999021004501001001MA1999999091121MD1999999-0211REMSYN070AAXX  21184 83339 32497 21803 10323 20139 39112 40045 83200 333 59021;EQDQ01+000032SCOTLC
0168833390999992006022200004-14050-042617FM-12+088299999V0203601N005110042019N0020001N1+02631+01671100741ADDGF106991061021004501001001KA1240M+03371MA1999999091261MD1999999-0061REMSYN088AAXX  22004 83339 32495 63610 10263 20167 39126 40074 86200 333 10337 29053 55110 59006;
0156833390999992006022212004-14050-042617FM-12+088299999V0203601N002110042019N0100001N1+02571+01971100891ADDGF106991061021004501001001KA1240N+02141MA1999999091481MD1999999+0001REMSYN076AAXX  22124 83339 32497 63604 10257 20197 39148 40089 86200 333 20214 58000;
0137833390999992006022218004-14050-042617FM-12+088299999V0203601N001512200019N0100001N1+03091+01781100451ADDGF104991041021004501001001MA1999999091091MD1999999-0031REMSYN070AAXX  22184 83339 32497 43603 10309 20178 39109 40045 84200 333 59003;
0168833390999992006022300004-14050-042617FM-12+088299999V0201401N005112200019N0020001N1+02551+01911100641ADDGF102991021021004501001001KA1240M+03251MA1999999091241MD1999999-0021REMSYN088AAXX  23004 83339 32495 21410 10255 20191 39124 40064 82200 333 10325 29061 55103 59002;
0156833390999992006022312004-14050-042617FM-12+088299999V0200501N002110042019N0100001N1+02551+02001100951ADDGF106991051021004501021001KA1240N+02121MA1999999091521MD1999999+0041REMSYN076AAXX  23124 83339 32497 60504 10255 20200 39152 40095 85220 333 20212 58004;
0182833390999992006022318004-14050-042617FM-12+088299999V0200901N001510450019N0100001N1+02771+02041100521ADDAA106015091AY191061AY261061GF105991041021004501021001MA1999999091111MD1999999+0021MW1171REMSYN082AAXX  23184 83339 21497 50903 10277 20204 39111 40052 71796 84220 333 58002 60151;
0196833390999992006022400004-14050-042617FM-12+088299999V0203601N007210042019N0020001N1+02471+01901100811ADDAY191061AY201061GF106991061021004501001001KA1240M+02951MA1999999091371MD1999999+0131MW1131REMSYN094AAXX  24004 83339 31495 63614 10247 20190 39137 40081 71390 86200 333 10295 29069 55067 58013;
0201833390999992006022412004-14050-042617FM-12+088299999V0201401N002610042019N0020001N1+01991+01981101241ADDAA124016091AY161061AY261061GF108991081051004501999999KA1240N+01941MA1999999091651MD1999999+0131MW1101REMSYN088AAXX  24124 83339 21495 81405 10199 20198 39165 40124 71066 885// 333 20194 58013 60164;
0182833390999992006022418004-14050-042617FM-12+088299999V0203201N009310042019N0000001N1+02191+01941100821ADDAA106024991AY191061AY201061GF107991061021004501021999MA1999999091201MD1999999+0091MW1611REMSYN082AAXX  24184 83339 21490 73218 10219 20194 39120 40082 76190 8622/ 333 58009 60251;
0213833390999992006022500004-14050-042617FM-12+088299999V0203601N002112200019N0020001N1+02351+02001100931ADDAA106000591AY161061AY261061GF102991021021004501001001KA1240M+02981MA1999999091341MD1999999-0031MW1171REMSYN100AAXX  25004 83339 21495 23604 10235 20200 39134 40093 71766 82200 333 10298 29085 55045 59003 69961;
0201833390999992006022512004-14050-042617FM-12+088299999V0203601N001512200019N0100001N1+02571+02111101021ADDAA124025991AY161061AY261061GF102991021021004501001001KA1240N+01961MA1999999091541MD1999999-0111MW1021REMSYN088AAXX  25124 83339 21497 23603 10257 20211 39154 40102 70266 82200 333 20196 59011 60264;
0137833390999992006022518004-14050-042617FM-12+088299999V0200901N001512200019N0100001N1+02711+01911100661ADDGF104991041021004501001001MA1999999091211MD1999999+0011REMSYN070AAXX  25184 83339 32497 40903 10271 20191 39121 40066 84200 333 58001;
0156833390999992006022612004-14050-042617FM-12+088299999V0200901N001510450019N0100001N1+02751+02191100791ADDGF105991041021004501031001KA1240N+02221MA1999999091411MD1999999-0131REMSYN076AAXX  26124 83339 32497 50903 10275 20219 39141 40079 84230 333 20222 59013;
0182833390999992006022618004-14050-042617FM-12+088299999V0203601N002110042019N0100001N1+02891+02001100521ADDAA106000891AY161061AY261061GF106991051021004501021001MA1999999091161MD1999999-0051MW1021REMSYN082AAXX  26184 83339 21497 63604 10289 20200 39116 40052 70266 85220 333 59005 69981;
0201833390999992006022712004-14050-042617FM-12+088299999V0200901N001012200019N0100001N1+02561+02191100951ADDAA124019191AY161061AY221061GF104991041021004501001001KA1240N+02141MA1999999091521MD1999999+0111MW1021REMSYN088AAXX  27124 83339 21497 40902 10256 20219 39152 40095 70262 84200 333 20214 58011 60194;
0137833390999992006022718004-14050-042617FM-12+088299999V0203601N001510042019N0100001N1+03011+02021100501ADDGF106991061021004501001001MA1999999091131MD1999999-0031REMSYN070AAXX  27184 83339 32497 63603 10301 20202 39113 40050 86200 333 59003;
0178833390999992006022800004-14050-042617FM-12+088299999V0209999C000012200019N0020001N1+02531+01951100751ADDGA1001+999999999GF100991001001999999001001KA1240M+03121MA1999999091341MD1999999+0091REMSYN082AAXX  28004 83339 32995 00000 10253 20195 39134 40075 333 10312 29073 55081 58009;
0156833390999992006022812004-14050-042617FM-12+088299999V0200901N001512200019N0100001N1+02431+01971101031ADDGF105991031021004501001011KA1240N+02141MA1999999091561MD1999999+0041REMSYN076AAXX  28124 83339 32497 50903 10243 20197 39156 40103 83201 333 20214 58004;
0137833390999992006022818004-14050-042617FM-12+088299999V0200501N002112200019N0100001N1+03031+01941100581ADDGF105991031021004501001041MA1999999091221MD1999999+0091REMSYN070AAXX  28184 83339 32497 50504 10303 20194 39122 40058 83204 333 58009;
0166833390999992006030112004-14050-042617FM-12+088299999V0201401N003112200019N0100001N1+02431+01761101181ADDGA1001+999999999GF100991001001999999001001KA1240N+01921MA1999999091681MD1999999+0121REMSYN070AAXX  01124 83339 32997 01406 10243 20176 39168 40118 333 20192 58012;
0147833390999992006030118004-14050-042617FM-12+088299999V0200501N002612200019N0100001N1+03051+01301100661ADDGA1001+999999999GF100991001001999999001001MA1999999091251MD1999999+0031REMSYN064AAXX  01184 83339 32997 00505 10305 20130 39125 40066 333 58003;
0178833390999992006030200004-14050-042617FM-12+088299999V0201801N001012200019N0020001N1+02471+01141100901ADDGA1001+999999999GF100991001001999999001001KA1240M+03121MA1999999091441MD1999999+0071REMSYN082AAXX  02004 83339 32995 01802 10247 20114 39144 40090 333 10312 29047 55113 58007;
0137833390999992006030218004-14050-042617FM-12+088299999V0209999C000012200019N0100001N1+03141+01471100701ADDGF102991021021004501001001MA1999999091311MD1999999+0061REMSYN070AAXX  02184 83339 32497 20000 10314 20147 39131 40070 82200 333 58006;
0178833390999992006030300004-14050-042617FM-12+088299999V0201401N002612200019N0020001N1+02661+01651100821ADDGA1001+999999999GF100991001001999999001001KA1240M+03241MA1999999091401MD1999999-0031REMSYN082AAXX  03004 83339 32995 01405 10266 20165 39140 40082 333 10324 29054 55114 59003;
0166833390999992006030312004-14050-042617FM-12+088299999V0200901N002112200019N0100001N1+02501+01701101121ADDGA1001+999999999GF100991001001999999001001KA1240N+02001MA1999999091691MD1999999-0051REMSYN070AAXX  03124 83339 32997 00904 10250 20170 39169 40112 333 20200 59005;
0137833390999992006030318004-14050-042617FM-12+088299999V0201401N001012200019N0100001N1+03111+01481100651ADDGF103991031021004501001001MA1999999091281MD1999999-0031REMSYN070AAXX  03184 83339 32497 31402 10311 20148 39128 40065 83200 333 59003;
0178833390999992006030400004-14050-042617FM-12+088299999V0201401N002612200019N0020001N1+02661+01471100791ADDGA1001+999999999GF100991001001999999001001KA1240M+03271MA1999999091391MD1999999-0011REMSYN082AAXX  04004 83339 32995 01405 10266 20147 39139 40079 333 10327 29049 55113 59001;
0156833390999992006030412004-14050-042617FM-12+088299999V0200901N001512200019N0100001N1+02411+01791101211ADDGF102991021011004501001001KA1240N+02051MA1999999091751MD1999999+0061REMSYN076AAXX  04124 83339 32497 20903 10241 20179 39175 40121 82100 333 20205 58006;
0137833390999992006030418004-14050-042617FM-12+088299999V0202701N001012200019N0100001N1+03311+01701100551ADDGF102991021021004501001001MA1999999091251MD1999999-0031REMSYN070AAXX  04184 83339 32497 22702 10331 20170 39125 40055 82200 333 59003;
0178833390999992006030500004-14050-042617FM-12+088299999V0200901N003112200019N0020001N1+02731+01511100821ADDGA1001+999999999GF100991001001999999001001KA1240M+03371MA1999999091401MD1999999+0011REMSYN082AAXX  05004 83339 32995 00906 10273 20151 39140 40082 333 10337 29050 55111 58001;
0156833390999992006030512004-14050-042617FM-12+088299999V0209999C000012200019N0100001N1+02661+01741101131ADDGF103991011011004501001011KA1240N+02081MA1999999091741MD1999999-0011REMSYN076AAXX  05124 83339 32497 30000 10266 20174 39174 40113 81101 333 20208 59001;
0137833390999992006030518004-14050-042617FM-12+088299999V0202701N002612200019N0100001N1+03281+01701100591ADDGF104991031021004501001011MA1999999091291MD1999999+0041REMSYN070AAXX  05184 83339 32497 42705 10328 20170 39129 40059 83201 333 58004;
0213833390999992006030600004-14050-042617FM-12+088299999V0202701N001012200019N0020001N1+02591+01841100791ADDAA106001091AY161061AY221061GF102991021021004501001001KA1240M+03381MA1999999091391MD1999999-0011MW1021REMSYN100AAXX  06004 83339 21495 22702 10259 20184 39139 40079 70262 82200 333 10338 29056 55093 59001 60011;
0201833390999992006030612004-14050-042617FM-12+088299999V0200501N000510042019N0100001N1+02331+02051101151ADDAA124002091AY161061AY261061GF106991061021004501001001KA1240N+02001MA1999999091651MD1999999-0091MW1101REMSYN088AAXX  06124 83339 21497 60501 10233 20205 39165 40115 71066 86200 333 20200 59009 60024;
0182833390999992006030618004-14050-042617FM-12+088299999V0203601N002110042019N0040001N1+02431+02151100801ADDAA106005191AY161061AY261061GF107991061021004501021999MA1999999091301MD1999999+0011MW1171REMSYN082AAXX  06184 83339 21496 73604 10243 20215 39130 40080 71766 8622/ 333 58001 60051;
0213833390999992006030700004-14050-042617FM-12+088299999V0203601N001510042019N0020001N1+02331+01981100991ADDAA106000591AY161061AY261061GF106991051021004501031001KA1240M+03041MA1999999091471MD1999999+0081MW1101REMSYN100AAXX  07004 83339 21495 63603 10233 20198 39147 40099 71066 85230 333 10304 29082 55033 58008 69961;
0201833390999992006030712004-14050-042617FM-12+088299999V0203601N003110042019N0100001N1+02451+02011101091ADDAA124005191AY161061AY261061GF106991061021004501001001KA1240N+02121MA1999999091581MD1999999-0071MW1021REMSYN088AAXX  07124 83339 21497 63606 10245 20201 39158 40109 70266 86200 333 20212 59007 60054;
0137833390999992006030718004-14050-042617FM-12+088299999V0203601N003110042019N0100001N1+02851+01851100581ADDGF107991061021004501021999MA1999999091961MD1999999-0141REMSYN070AAXX  07184 83339 32497 73606 10285 20185 39196 40058 8622/ 333 59014;
0232833390999992006030800004-14050-042617FM-12+088299999V0203201N003110042019N0020001N1+02111+02101100971ADDAA106008991AY191061AY261061GF108991999051004501021999KA1240M+02981MA1999999091451MD1999999-0021MW1601REMSYN100AAXX  08004 83339 21495 83206 10211 20210 39145 40097 76096 8852/ 333 10298 29082 55041 59002 60091;EQDQ01+000082SCOTLC
0201833390999992006030812004-14050-042617FM-12+088299999V0203201N000510042019N0040001N1+02091+02081101241ADDAA124022191AY191061AY261061GF108991081051004501999999KA1240N+02001MA1999999091601MD1999999+0021MW1101REMSYN088AAXX  08124 83339 21496 83201 10209 20208 39160 40124 71096 885// 333 20200 58002 60224;
0137833390999992006030818004-14050-042617FM-12+088299999V0203601N001510450019N0100001N1+02771+01831100601ADDGF105991041021004501021001MA1999999091141MD1999999-0021REMSYN070AAXX  08184 83339 32497 53603 10277 20183 39114 40060 84220 333 59002;
0213833390999992006030900004-14050-042617FM-12+088299999V0200901N000510042019N0020001N1+02171+02141100871ADDAA106002091AY161061AY261061GF106991061021004501001001KA1240M+02881MA1999999091381MD1999999-0071MW1101REMSYN100AAXX  09004 83339 21495 60901 10217 20214 39138 40087 71066 86200 333 10288 29087 55032 59007 60021;
0201833390999992006030912004-14050-042617FM-12+088299999V0203201N000510042019N0040001N1+01951+01941101101ADDAA124020191AY161061AY221061GF108991081051004501999999KA1240N+01931MA1999999091451MD1999999-0151MW1601REMSYN088AAXX  09124 83339 21496 83201 10195 20194 39145 40110 76062 885// 333 20193 59015 60204;
0182833390999992006030918004-14050-042617FM-12+088299999V0203601N001510042019N0040001N1+02191+02111100781ADDAA106004191AY161061AY261061GF108991081051004501999999MA1999999091181MD1999999+0041MW1611REMSYN082AAXX  09184 83339 21496 83603 10219 20211 39118 40078 76166 885// 333 58004 60041;
0213833390999992006031000004-14050-042617FM-12+088299999V0202301N001010042019N0020001N1+02151+02091101041ADDAA106001091AY161061AY261061GF106991061021004501001001KA1240M+02481MA1999999091401MD1999999+0021MW1131REMSYN100AAXX  10004 83339 21495 62302 10215 20209 39140 40104 71366 86200 333 10248 29096 55003 58002 60011;
0201833390999992006031012004-14050-042617FM-12+088299999V0203601N002110042019N0100001N1+02171+02161101061ADDAA124021191AY161061AY261061GF106991051021004501021001KA1240N+01901MA1999999091451MD1999999+0001MW1101REMSYN088AAXX  10124 83339 21497 63604 10217 20216 39145 40106 71066 85220 333 20190 58000 60214;
0182833390999992006031018004-14050-042617FM-12+088299999V0203201N004110042019N0040001N1+02151+02111100811ADDAA106011991AY161061AY261061GF107991061021004501031999MA1999999091211MD1999999+0031MW1101REMSYN082AAXX  10184 83339 21496 73208 10215 20211 39121 40081 71066 8623/ 333 58003 60121;
0213833390999992006031100004-14050-042617FM-12+088299999V0203601N001510042019N0020001N1+02271+02211100941ADDAA106000391AY161061AY261061GF106991051021004501021001KA1240M+02681MA1999999091361MD1999999-0041MW1131REMSYN100AAXX  11004 83339 21495 63603 10227 20221 39136 40094 71366 85220 333 10268 29096 55023 59004 69931;
0201833390999992006031112004-14050-042617FM-12+088299999V0203601N001510042019N0040001N1+02091+02001101081ADDAA124014091AY161061AY261061GF107991061021004501021999KA1240N+01921MA1999999091491MD1999999+0041MW1101REMSYN088AAXX  11124 83339 21496 73603 10209 20200 39149 40108 71066 8622/ 333 20192 58004 60144;
0137833390999992006031118004-14050-042617FM-12+088299999V0203601N004612200019N0100001N1+02691+02021100701ADDGF105991041021004501001041MA1999999091191MD1999999-0021REMSYN070AAXX  11184 83339 32497 53609 10269 20202 39119 40070 84204 333 59002;
0196833390999992006031200004-14050-042617FM-12+088299999V0202301N003110042019N0020001N1+02251+02211101061ADDAY101061AY201061GF106991051021004501031001KA1240M+02721MA1999999091451MD1999999+0091MW1101REMSYN094AAXX  12004 83339 31495 62306 10225 20221 39145 40106 71000 85230 333 10272 29088 55047 58009;
0201833390999992006031212004-14050-042617FM-12+088299999V0203601N001510042019N0040001N1+02071+02061101241ADDAA124011991AY161061AY211061GF108991081051004501999999KA1240N+02001MA1999999091631MD1999999+0131MW1101REMSYN088AAXX  12124 83339 21496 83603 10207 20206 39163 40124 71061 885// 333 20200 58013 60124;
0165833390999992006031218004-14050-042617FM-12+088299999V0200501N002610042019N0040001N1+02471+02111100791ADDAY101061AY201061GF106991051021004501021001MA1999999091251MD1999999+0061MW1101REMSYN076AAXX  12184 83339 31496 60505 10247 20211 39125 40079 71000 85220 333 58006;
0196833390999992006031300004-14050-042617FM-12+088299999V0201801N000510450019N0020001N1+02191+02171101021ADDAY101061AY201061GF105991041021004501031001KA1240M+02821MA1999999091421MD1999999-0031MW1101REMSYN094AAXX  13004 83339 31495 51801 10219 20217 39142 40102 71000 84230 333 10282 29092 55026 59003;
0201833390999992006031312004-14050-042617FM-12+088299999V0209999C000010042019N0040001N1+02011+01931101161ADDAA124004191AY191061AY261061GF108991081051004501999999KA1240N+01931MA1999999091531MD1999999-0091MW1171REMSYN088AAXX  13124 83339 21496 80000 10201 20193 39153 40116 71796 885// 333 20193 59009 60044;
0182833390999992006031318004-14050-042617FM-12+088299999V0200501N000510042019N0100001N1+02271+02031100821ADDAA106003091AY161061AY261061GF106991051021004501021001MA1999999091251MD1999999+0001MW1101REMSYN082AAXX  13184 83339 21497 60501 10227 20203 39125 40082 71066 85220 333 58000 60031;
0196833390999992006031400004-14050-042617FM-12+088299999V0200901N002110042019N0020001N1+02031+01991101171ADDAY101061AY201061GF107991061021004501021999KA1240M+02461MA1999999091451MD1999999+0031MW1101REMSYN094AAXX  14004 83339 31495 70904 10203 20199 39145 40117 71000 8622/ 333 10246 29093 55004 58003;
0201833390999992006031412004-14050-042617FM-12+088299999V0201401N001510042019N0040001N1+02091+02001101251ADDAA124003091AY161061AY261061GF108991081051004501999999KA1240N+01921MA1999999091591MD1999999+0061MW1101REMSYN088AAXX  14124 83339 21496 81403 10209 20200 39159 40125 71066 885// 333 20192 58006 60034;
0182833390999992006031418004-14050-042617FM-12+088299999V0203201N001510042019N0100001N1+02411+02231100801ADDAA106008991AY161061AY261061GF106991061021004501001001MA1999999091241MD1999999-0011MW1101REMSYN082AAXX  14184 83339 21497 63203 10241 20223 39124 40080 71066 86200 333 59001 60091;
0213833390999992006031500004-14050-042617FM-12+088299999V0202301N002110042019N0020001N1+01971+01961101101ADDAA106046091AY191061AY261061GF108991081051004501999999KA1240M+02681MA1999999091451MD1999999+0001MW1131REMSYN100AAXX  15004 83339 21495 82304 10197 20196 39145 40110 71396 885// 333 10268 29095 55049 58000 60461;
0201833390999992006031512004-14050-042617FM-12+088299999V0209999C000010042019N0100001N1+02131+02091101291ADDAA124055991AY161061AY261061GF106991051021004501031001KA1240N+01921MA1999999091631MD1999999+0041MW1101REMSYN088AAXX  15124 83339 21497 60000 10213 20209 39163 40129 71066 85230 333 20192 58004 60564;
0182833390999992006031518004-14050-042617FM-12+088299999V0202301N001010042019N0100001N1+02451+01991100921ADDAA106001091AY161061AY261061GF106991061021004501001001MA1999999091331MD1999999+0091MW1021REMSYN082AAXX  15184 83339 21497 62302 10245 20199 39133 40092 70266 86200 333 58009 60011;
0201833390999992006031612004-14050-042617FM-12+088299999V0201401N003110042019N0040001N1+02111+01931101341ADDAA124001091AY161061AY261061GF107991061021004501021999KA1240N+01961MA1999999091731MD1999999+0101MW1101REMSYN088AAXX  16124 83339 21496 71406 10211 20193 39173 40134 71066 8622/ 333 20196 58010 60014;
0137833390999992006031618004-14050-042617FM-12+088299999V0200901N004610042019N0100001N1+02511+01821100931ADDGF106991061021004501001001MA1999999091401MD1999999+0071REMSYN070AAXX  16184 83339 32497 60909 10251 20182 39140 40093 86200 333 58007;
0196833390999992006031700004-14050-042617FM-12+088299999V0201401N000510042019N0020001N1+02191+02031101111ADDAY101061AY201061GF106991061021004501001001KA1240M+02621MA1999999091501MD1999999+0041MW1101REMSYN094AAXX  17004 83339 31495 61401 10219 20203 39150 40111 71000 86200 333 10262 29084 55040 58004;
0201833390999992006031712004-14050-042617FM-12+088299999V0200901N005110042019N0100001N1+02231+01901101161ADDAA124000591AY161061AY261061GF105991051021004501001001KA1240N+02001MA1999999091561MD1999999-0171MW1101REMSYN088AAXX  17124 83339 21497 50910 10223 20190 39156 40116 71066 85200 333 20200 59017 69944;
0137833390999992006031718004-14050-042617FM-12+088299999V0201401N003612200019N0100001N1+02651+01691100731ADDGF104991031021004501001021MA1999999091251MD1999999-0151REMSYN070AAXX  17184 83339 32497 41407 10265 20169 39125 40073 83202 333 59015;
0215833390999992006031800004-14050-042617FM-12+088299999V0200901N007719999999N0020001N1+02131+02021101151ADDAY101061AY201061GF106991999021004501001001KA1240M+02741MA1999999091551MD1999999+0051MW1131REMSYN094AAXX  18004 83339 31495 60915 10213 20202 39155 40115 71300 81200 333 10274 29080 55094 58005;EQDQ01+000012SCOTLC
0201833390999992006031812004-14050-042617FM-12+088299999V0200501N004610042019N0100001N1+02181+01951101151ADDAA124000591AY161061AY261061GF106991051021004501021001KA1240N+01981MA1999999091541MD1999999-0021MW1101REMSYN088AAXX  18124 83339 21497 60509 10218 20195 39154 40115 71066 85220 333 20198 59002 69944;
0137833390999992006031818004-14050-042617FM-12+088299999V0201401N004611050019N0100001N1+02751+01781100771ADDGF105991041021004501001021MA1999999091271MD1999999+0021REMSYN070AAXX  18184 83339 32497 51409 10275 20178 39127 40077 84202 333 58002;
0196833390999992006031900004-14050-042617FM-12+088299999V0200901N003610042019N0020001N1+02091+02011101171ADDAY101061AY201061GF108991081051004501999999KA1240M+02601MA1999999091551MD1999999+0001MW1131REMSYN094AAXX  19004 83339 31495 80907 10209 20201 39155 40117 71300 885// 333 10260 29082 55051 58000;
0184833390999992006031912004-14050-042617FM-12+088299999V0201401N005110042019N0040001N1+02071+01841101251ADDAY101061AY201061GF106991051021004501031001KA1240N+01901MA1999999091611MD1999999+0071MW1101REMSYN082AAXX  19124 83339 31496 61410 10207 20184 39161 40125 71000 85230 333 20190 58007;
0137833390999992006031918004-14050-042617FM-12+088299999V0200901N004612200019N0100001N1+02691+01701100901ADDGF103991031021004501001001MA1999999091371MD1999999+0101REMSYN070AAXX  19184 83339 32497 30909 10269 20170 39137 40090 83200 333 58010;
0196833390999992006032000004-14050-042617FM-12+088299999V0202301N004112200019N0020001N1+02231+01861101141ADDAY101061AY201061GF102991021021004501001001KA1240M+02761MA1999999091531MD1999999-0021MW1101REMSYN094AAXX  20004 83339 31495 22308 10223 20186 39153 40114 71000 82200 333 10276 29074 55068 59002;
0137833390999992006032018004-14050-042617FM-12+088299999V0201801N004612200019N0100001N1+02551+01711101031ADDGF104991041021004501001001MA1999999091491MD1999999+0121REMSYN070AAXX  20184 83339 32497 41809 10255 20171 39149 40103 84200 333 58012;
0178833390999992006032100004-14050-042617FM-12+088299999V0200901N003112200019N0020001N1+02191+01671101151ADDGA1001+999999999GF100991001001999999001001KA1240M+02681MA1999999091541MD1999999+0011REMSYN082AAXX  21004 83339 32995 00906 10219 20167 39154 40115 333 10268 29072 55049 58001;
0184833390999992006032112004-14050-042617FM-12+088299999V0200501N003610042019N0040001N1+02051+01681101341ADDAY101061AY201061GF106991061021004501001001KA1240N+01921MA1999999091691MD1999999+0001MW1101REMSYN082AAXX  21124 83339 31496 60507 10205 20168 39169 40134 71000 86200 333 20192 58000;
0137833390999992006032118004-14050-042617FM-12+088299999V0200901N005710450019N0100001N1+02551+01571101051ADDGF105991041021004501021001MA1999999091491MD1999999+0001REMSYN070AAXX  21184 83339 32497 50911 10255 20157 39149 40105 84220 333 58000;
0168833390999992006032200004-14050-042617FM-12+088299999V0203201N004612200019N0020001N1+02191+01801101171ADDGF102991021021004501001001KA1240M+02641MA1999999091541MD1999999+0001REMSYN088AAXX  22004 83339 32495 23209 10219 20180 39154 40117 82200 333 10264 29072 55050 58000;
0201833390999992006032212004-14050-042617FM-12+088299999V0200901N004610042019N0100001N1+02111+02051101371ADDAA124005191AY161061AY261061GF106991061021004501001001KA1240N+01921MA1999999091741MD1999999+0051MW1101REMSYN088AAXX  22124 83339 21497 60909 10211 20205 39174 40137 71066 86200 333 20192 58005 60054;
0137833390999992006032218004-14050-042617FM-12+088299999V0201401N002612200019N0100001N1+02671+01591101071ADDGF102991011021004501001041MA1999999091531MD1999999+0041REMSYN070AAXX  22184 83339 32497 21405 10267 20159 39153 40107 81204 333 58004;
0178833390999992006032300004-14050-042617FM-12+088299999V0201801N003112200019N0020001N1+02171+01611101141ADDGA1001+999999999GF100991001001999999001001KA1240M+02741MA1999999091531MD1999999-0011REMSYN082AAXX  23004 83339 32995 01806 10217 20161 39153 40114 333 10274 29072 55072 59001;
0201833390999992006032312004-14050-042617FM-12+088299999V0201401N004110042019N0040001N1+01991+01951101431ADDAA124004191AY161061AY261061GF108991081051004501999999KA1240N+01901MA1999999091771MD1999999-0031MW1101REMSYN088AAXX  23124 83339 21496 81408 10199 20195 39177 40143 71066 885// 333 20190 59003 60044;
0137833390999992006032318004-14050-042617FM-12+088299999V0200501N003610042019N0100001N1+02511+01801101051ADDGF106991061021004501001001MA1999999091491MD1999999-0041REMSYN070AAXX  23184 83339 32497 60507 10251 20180 39149 40105 86200 333 59004;
0196833390999992006032400004-14050-042617FM-12+088299999V0202301N002112200019N0020001N1+02171+01801101121ADDAY101061AY201061GF102991021021004501001001KA1240M+02661MA1999999091491MD1999999-0041MW1101REMSYN094AAXX  24004 83339 31495 22304 10217 20180 39149 40112 71000 82200 333 10266 29079 55053 59004;
0184833390999992006032412004-14050-042617FM-12+088299999V0200501N003110042019N0100001N1+02151+01901101221ADDAY101061AY201061GF106991061021004501001001KA1240N+01881MA1999999091601MD1999999-0171MW1101REMSYN082AAXX  24124 83339 31497 60506 10215 20190 39160 40122 71000 86200 333 20188 59017;
0137833390999992006032418004-14050-042617FM-12+088299999V0200901N004612200019N0100001N1+02591+01901100991ADDGF104991041021004501001001MA1999999091451MD1999999-0041REMSYN070AAXX  24184 83339 32497 40909 10259 20190 39145 40099 84200 333 59004;
0213833390999992006032500004-14050-042617FM-12+088299999V0201401N004112200019N0020001N1+02151+02121101131ADDAA106004191AY161061AY261061GF103991031021004501001001KA1240M+02701MA1999999091521MD1999999+0031MW1101REMSYN100AAXX  25004 83339 21495 31408 10215 20212 39152 40113 71066 83200 333 10270 29086 55052 58003 60041;
0201833390999992006032512004-14050-042617FM-12+088299999V0200501N006210042019N0100001N1+02131+01931101431ADDAA124004191AY161061AY261061GF105991051021004501001001KA1240N+01921MA1999999091791MD1999999+0191MW1101REMSYN088AAXX  25124 83339 21497 50512 10213 20193 39179 40143 71066 85200 333 20192 58019 60044;
0137833390999992006032518004-14050-042617FM-12+088299999V0203201N004112200019N0100001N1+02671+01651100921ADDGF104991041021004501001001MA1999999091411MD1999999-0041REMSYN070AAXX  25184 83339 32497 43208 10267 20165 39141 40092 84200 333 59004;
0197833390999992006032600004-14050-042617FM-12+088299999V0201401N001512200019N0020001N1+02251+01691101161ADDGA1001+999999999GF100991001001999999001001KA1240M+02841MA1999999999999MD1999999+0041REMSYN082AAXX  26004 83339 32995 01403 10225 20169 39615 40116 333 10284 29070 55063 58004;EQDQ01 096153APOSP 
0156833390999992006032612004-14050-042617FM-12+088299999V0200501N000512200019N0100001N1+02391+01991101181ADDGF102991021021004501001001KA1240N+01821MA1999999091631MD1999999-0161REMSYN076AAXX  26124 83339 32497 20501 10239 20199 39163 40118 82200 333 20182 59016;
0137833390999992006032618004-14050-042617FM-12+088299999V0202301N002112200019N0100001N1+02891+01701100751ADDGF102991021021004501001001MA1999999091291MD1999999-0121REMSYN070AAXX  26184 83339 32497 22304 10289 20170 39129 40075 82200 333 59012;
0168833390999992006032700004-14050-042617FM-12+088299999V0200901N000512200019N0020001N1+02391+01611100991ADDGF102991021021004501001001KA1240M+03001MA1999999091491MD1999999-0071REMSYN088AAXX  27004 83339 32495 20901 10239 20161 39149 40099 82200 333 10300 29062 55096 59007;
0156833390999992006032712004-14050-042617FM-12+088299999V0203201N003112200019N0100001N1+02481+02131101261ADDGF103991031021004501001001KA1240N+02041MA1999999091761MD1999999+0131REMSYN076AAXX  27124 83339 32497 33206 10248 20213 39176 40126 83200 333 20204 58013;
0182833390999992006032718004-14050-042617FM-12+088299999V0201801N001510042019N0100001N1+02331+02091100941ADDAA106003091AY161061AY221061GF108991051021004501021999MA1999999091391MD1999999+0101MW1021REMSYN082AAXX  27184 83339 21497 81803 10233 20209 39139 40094 70262 8522/ 333 58010 60031;
0168833390999992006032800004-14050-042617FM-12+088299999V0202301N001010042019N0020001N1+02311+02161101191ADDGF105991051021004501001001KA1240M+02961MA1999999091671MD1999999+0181REMSYN088AAXX  28004 83339 32495 52302 10231 20216 39167 40119 85200 333 10296 29087 55039 58018;
0201833390999992006032812004-14050-042617FM-12+088299999V0201401N001010450019N0100001N1+02201+02061101321ADDAA124003091AY161061AY221061GF108991041021004501021999KA1240N+02031MA1999999091731MD1999999-0031MW1021REMSYN088AAXX  28124 83339 21497 81402 10220 20206 39173 40132 70262 8422/ 333 20203 59003 60034;
0137833390999992006032818004-14050-042617FM-12+088299999V0201401N001510042019N0100001N1+02531+02021100831ADDGF106991061021004501021001MA1999999091311MD1999999-0081REMSYN070AAXX  28184 83339 32497 61403 10253 20202 39131 40083 86220 333 59008;
0168833390999992006032900004-14050-042617FM-12+088299999V0209999C000012200019N0020001N1+02211+02011101081ADDGF104991041021004501001001KA1240M+02621MA1999999091491MD1999999-0181REMSYN088AAXX  29004 83339 32495 40000 10221 20201 39149 40108 84200 333 10262 29085 55009 59018;
0156833390999992006032912004-14050-042617FM-12+088299999V0202701N001510042019N0100001N1+02351+02051101101ADDGF106991061021004501001001KA1240N+01991MA1999999091551MD1999999-0181REMSYN076AAXX  29124 83339 32497 62703 10235 20205 39155 40110 86200 333 20199 59018;
0213833390999992006033000004-14050-042617FM-12+088299999V0209999C000010042019N0020001N1+02171+02111101041ADDAA106015091AY161061AY261061GF108991051021004501021999KA1240M+02621MA1999999091481MD1999999-0011MW1401REMSYN100AAXX  30004 83339 21495 80000 10217 20211 39148 40104 74066 8522/ 333 10262 29092 55008 59001 60151;
0201833390999992006033012004-14050-042617FM-12+088299999V0202701N002110042019N0100001N1+02131+02001101221ADDAA124041991AY161061AY241061GF108991061021004501021999KA1240N+02001MA1999999091601MD1999999+0051MW1021REMSYN088AAXX  30124 83339 21497 82704 10213 20200 39160 40122 70264 8622/ 333 20200 58005 60424;
0137833390999992006033018004-14050-042617FM-12+088299999V0202701N002612200019N0100001N1+02571+01921100781ADDGF104991041021004501001001MA1999999091261MD1999999+0111REMSYN070AAXX  30184 83339 32497 42705 10257 20192 39126 40078 84200 333 58011;
0168833390999992006033100004-14050-042617FM-12+088299999V0201401N001012200019N0020001N1+02191+01921101171ADDGF103991031021004501001001KA1240M+02691MA1999999091551MD1999999+0071REMSYN088AAXX  31004 83339 32495 31402 10219 20192 39155 40117 83200 333 10269 29082 55046 58007;
0184833390999992006033112004-14050-042617FM-12+088299999V0200501N001510042019N0020001N1+02101+02021101331ADDAY121061AY221061GF108991051021004501021999KA1240N+01961MA1999999091701MD1999999+0041MW1401REMSYN082AAXX  31124 83339 31495 80503 10210 20202 39170 40133 74022 8522/ 333 20196 58004;
0182833390999992006033118004-14050-042617FM-12+088299999V0200501N001010042019N0020001N1+02161+02081100951ADDAA106018091AY161061AY241061GF108991061021004501021999MA1999999091321MD1999999+0061MW1601REMSYN082AAXX  31184 83339 21495 80502 10216 20208 39132 40095 76064 8622/ 333 58006 60181;
0213833390999992006040100004-14050-042617FM-12+088299999V0209999C000010450019N0020001N1+01931+01861101311ADDAA106021191AY161061AY261061GF108991041021004501021999KA1240M+02701MA1999999091631MD1999999+0081MW1601REMSYN100AAXX  01004 83339 21495 80000 10193 20186 39163 40131 76066 8422/ 333 10270 29095 55031 58008 60211;
0201833390999992006040112004-14050-042617FM-12+088299999V0201401N005110042019N0020001N1+02091+02001101421ADDAA124039991AY161061AY241061GF108991051021004501021999KA1240N+01941MA1999999091721MD1999999+0021MW1401REMSYN088AAXX  01124 83339 21495 81410 10209 20200 39172 40142 74064 8522/ 333 20194 58002 60404;
0165833390999992006040118004-14050-042617FM-12+088299999V0201401N006712200019N0100001N1+02591+01941100901ADDAY141061AY221061GF104991031021004501001011MA1999999091371MD1999999+0051MW1021REMSYN076AAXX  01184 83339 31497 41413 10259 20194 39137 40090 70242 83201 333 58005;
0213833390999992006040200004-14050-042617FM-12+088299999V0201401N003110042019N0020001N1+02061+02011101271ADDAA106004191AY161061AY241061GF108991051021004501021999KA1240M+02621MA1999999091631MD1999999+0001MW1401REMSYN100AAXX  02004 83339 21495 81406 10206 20201 39163 40127 74064 8522/ 333 10262 29089 55058 58000 60041;
0201833390999992006040212004-14050-042617FM-12+088299999V0200901N003110450019N0020001N1+02071+02031101371ADDAA124005191AY161061AY241061GF108991041021004501021999KA1240N+01971MA1999999091721MD1999999+0001MW1401REMSYN088AAXX  02124 83339 21495 80906 10207 20203 39172 40137 74064 8422/ 333 20197 58000 60054;
0165833390999992006040218004-14050-042617FM-12+088299999V0201401N003112200019N0100001N1+02661+01851100861ADDAY141061AY221061GF103991031021004501001001MA1999999091351MD1999999-0021MW1021REMSYN076AAXX  02184 83339 31497 31406 10266 20185 39135 40086 70242 83200 333 59002;
0168833390999992006040300004-14050-042617FM-12+088299999V0200901N001010042019N0020001N1+02191+02031101241ADDGF106991061021004501001001KA1240M+02761MA1999999091621MD1999999-0011REMSYN088AAXX  03004 83339 32495 60902 10219 20203 39162 40124 86200 333 10276 29084 55064 59001;
0184833390999992006040312004-14050-042617FM-12+088299999V0201401N003112200019N0100001N1+02331+02001101291ADDAY101061AY201061GF104991041021004501001001KA1240N+02201MA1999999091701MD1999999-0021MW1101REMSYN082AAXX  03124 83339 31497 41406 10233 20200 39170 40129 71000 84200 333 20220 59002;
0137833390999992006040318004-14050-042617FM-12+088299999V0200501N003110042019N0100001N1+02711+01751100901ADDGF106991051021004501021001MA1999999091391MD1999999+0041REMSYN070AAXX  03184 83339 32497 60506 10271 20175 39139 40090 85220 333 58004;
0196833390999992006040400004-14050-042617FM-12+088299999V0200901N004612200019N0020001N1+02091+01961101091ADDAY101061AY201061GF102991021021004501001001KA1240M+02801MA1999999091501MD1999999-0121MW1101REMSYN094AAXX  04004 83339 31495 20909 10209 20196 39150 40109 71000 82200 333 10280 29080 55067 59012;
0184833390999992006040412004-14050-042617FM-12+088299999V0203201N005110042019N0040001N1+02091+01891101231ADDAY101061AY201061GF107991061021004501021999KA1240N+01621MA1999999091591MD1999999-0111MW1101REMSYN082AAXX  04124 83339 31496 73210 10209 20189 39159 40123 71000 8622/ 333 20162 59011;
0137833390999992006040418004-14050-042617FM-12+088299999V0200901N004612200019N0100001N1+02351+01851100991ADDGF102991021021004501001001MA1999999091391MD1999999+0001REMSYN070AAXX  04184 83339 32497 20909 10235 20185 39139 40099 82200 333 58000;
0196833390999992006040500004-14050-042617FM-12+088299999V0201801N007212200019N0020001N1+02131+01951101141ADDAY101061AY201061GF104991041021004501001001KA1240M+02531MA1999999091511MD1999999+0011MW1101REMSYN094AAXX  05004 83339 31495 41814 10213 20195 39151 40114 71000 84200 333 10253 29085 55074 58001;
0201833390999992006040512004-14050-042617FM-12+088299999V0201401N001510042019N0040001N1+01991+01811101381ADDAA124000591AY161061AY261061GF107991061021004501031999KA1240N+01801MA1999999091711MD1999999+0121MW1101REMSYN088AAXX  05124 83339 21496 71403 10199 20181 39171 40138 71066 8623/ 333 20180 58012 69964;
0137833390999992006040518004-14050-042617FM-12+088299999V0200901N004110042019N0100001N1+02411+01801101021ADDGF105991051021004501001001MA1999999091441MD1999999+0051REMSYN070AAXX  05184 83339 32497 50908 10241 20180 39144 40102 85200 333 58005;
0196833390999992006040600004-14050-042617FM-12+088299999V0201401N004110042019N0020001N1+02151+01971101171ADDAY101061AY201061GF106991061021004501001001KA1240M+02501MA1999999091521MD1999999+0011MW1101REMSYN094AAXX  06004 83339 31495 61408 10215 20197 39152 40117 71000 86200 333 10250 29083 55038 58001;
0184833390999992006040612004-14050-042617FM-12+088299999V0200501N004610042019N0040001N1+01991+01931101321ADDAY101061AY201061GF108991081051004501999999KA1240N+01901MA1999999091651MD1999999-0061MW1101REMSYN082AAXX  06124 83339 31496 80509 10199 20193 39165 40132 71000 885// 333 20190 59006;
0137833390999992006040618004-14050-042617FM-12+088299999V0202301N003112200019N0100001N1+02531+01741100921ADDGF104991031021004501031001MA1999999091371MD1999999-0071REMSYN070AAXX  06184 83339 32497 42306 10253 20174 39137 40092 83230 333 59007;
0196833390999992006040700004-14050-042617FM-12+088299999V0200901N000512200019N0020001N1+02071+01821101071ADDAY101061AY201061GF102991021021004501001001KA1240M+02631MA1999999091431MD1999999-0091MW1101REMSYN094AAXX  07004 83339 31495 20901 10207 20182 39143 40107 71000 82200 333 10263 29083 55074 59009;
0203833390999992006040712004-14050-042617FM-12+088299999V0200501N004610042019N0040001N1+02011+01901101251ADDAY101061AY201061GF107991061021004501021999KA1240N+99999MA1999999091591MD1999999-0061MW1101REMSYN082AAXX  07124 83339 31496 70509 10201 20190 39159 40125 71000 8622/ 333 20207 59006;EQDQ01 +02072ATMN  
0137833390999992006040718004-14050-042617FM-12+088299999V0200901N003112200019N0100001N1+02591+01851100861ADDGF102991021021004501001001MA1999999091321MD1999999-0051REMSYN070AAXX  07184 83339 32497 20906 10259 20185 39132 40086 82200 333 59005;
0196833390999992006040800004-14050-042617FM-12+088299999V0203201N000512200019N0020001N1+02131+01881101151ADDAY101061AY201061GF102991021021004501001001KA1240M+02641MA1999999091501MD1999999+0071MW1101REMSYN094AAXX  08004 83339 31495 23201 10213 20188 39150 40115 71000 82200 333 10264 29083 55076 58007;
0203833390999992006040812004-14050-042617FM-12+088299999V0201401N001510042019N0040001N1+02231+01921101191ADDAY101061AY201061GF108991999021004501001001KA1240N+02141MA1999999091591MD1999999+0001MW1101REMSYN082AAXX  08124 83339 31496 81403 10223 20192 39159 40119 71000 86200 333 20214 58000;EQDQ01+000062SCOTLC
0137833390999992006040818004-14050-042617FM-12+088299999V0201801N004612200019N0100001N1+02671+01771100691ADDGF103991031021004501001001MA1999999091201MD1999999-0121REMSYN070AAXX  08184 83339 32497 31809 10267 20177 39120 40069 83200 333 59012;
0196833390999992006040900004-14050-042617FM-12+088299999V0202301N002610042019N0020001N1+02251+01901100951ADDAY101061AY201061GF106991061021004501001001KA1240M+02761MA1999999091401MD1999999-0101MW1101REMSYN094AAXX  09004 83339 31495 62305 10225 20190 39140 40095 71000 86200 333 10276 29076 55075 59010;
0201833390999992006040912004-14050-042617FM-12+088299999V0203601N001010042019N0040001N1+02171+01991101011ADDAA124007191AY161061AY261061GF107991061021004501021999KA1240N+01901MA1999999091431MD1999999-0161MW1101REMSYN088AAXX  09124 83339 21496 73602 10217 20199 39143 40101 71066 8622/ 333 20190 59016 60074;
0182833390999992006040918004-14050-042617FM-12+088299999V0203601N004610042019N0040001N1+02151+02001100641ADDAA106003091AY161061AY261061GF108991081051004501999999MA1999999091051MD1999999-0151MW1171REMSYN082AAXX  09184 83339 21496 83609 10215 20200 39105 40064 71766 885// 333 59015 60031;
0213833390999992006041000004-14050-042617FM-12+088299999V0201401N000510042019N0020001N1+02111+02051100811ADDAA106000591AY161061AY261061GF106991061021004501001001KA1240M+02761MA1999999091231MD1999999-0171MW1101REMSYN100AAXX  10004 83339 21495 61401 10211 20205 39123 40081 71066 86200 333 10276 29094 55031 59017 69961;
0201833390999992006041012004-14050-042617FM-12+088299999V0209999C000010042019N0020001N1+01971+01931101091ADDAA124026991AY161061AY241061GF108991051021004501021999KA1240N+01841MA1999999091431MD1999999+0001MW1601REMSYN088AAXX  10124 83339 21495 80000 10197 20193 39143 40109 76064 8522/ 333 20184 58000 60274;
0182833390999992006041018004-14050-042617FM-12+088299999V0202701N002110450019N0100001N1+02321+01911100651ADDAA106002091AY161061AY241061GF107991041021004501021001MA1999999091081MD1999999+0031MW1021REMSYN082AAXX  10184 83339 21497 72704 10232 20191 39108 40065 70264 84220 333 58003 60021;
0168833390999992006041100004-14050-042617FM-12+088299999V0202701N002110042019N0020001N1+02131+01931100901ADDGF108991051051004501021999KA1240M+02451MA1999999091271MD1999999+0041REMSYN088AAXX  11004 83339 32495 82704 10213 20193 39127 40090 8552/ 333 10245 29087 55006 58004;
0201833390999992006041112004-14050-042617FM-12+088299999V0203201N002112200019N0100001N1+02371+02011100941ADDAA124002091AY161061AY221061GF102991021011004501001001KA1240N+01961MA1999999091391MD1999999-0041MW1021REMSYN088AAXX  11124 83339 21497 23204 10237 20201 39139 40094 70262 82100 333 20196 59004 60024;
0172833390999992006041118004-14050-042617FM-12+088299999V0201201N999992200019N0100001N1+02771+01911100511ADDGF103991031021004501001001MA1999999091051MD1999999-0031REMSYN070AAXX  11184 83339 32497 31270 10277 20191 39105 40051 83200 333 59003;EQDQ01+003603WOSPD Q020003603WOSPD 
0168833390999992006041200004-14050-042617FM-12+088299999V0209999C000012200019N0020001N1+02251+02071100821ADDGF102991021021004501001001KA1240M+02861MA1999999091301MD1999999+0031REMSYN088AAXX  12004 83339 32495 20000 10225 20207 39130 40082 82200 333 10286 29079 55095 58003;
0201833390999992006041212004-14050-042617FM-12+088299999V0203601N003110042019N0040001N1+02231+01991101121ADDAA124011991AY161061AY261061GF106991051021004501021001KA1240N+02041MA1999999091551MD1999999-0161MW1101REMSYN088AAXX  12124 83339 21496 63606 10223 20199 39155 40112 71066 85220 333 20204 59016 60124;
0182833390999992006041218004-14050-042617FM-12+088299999V0203201N002610042019N0040001N1+02291+02091100781ADDAA106000591AY161061AY261061GF108991081051004501999999MA1999999091221MD1999999+0171MW1101REMSYN082AAXX  12184 83339 21496 83205 10229 20209 39122 40078 71066 885// 333 58017 69951;
0213833390999992006041300004-14050-042617FM-12+088299999V0201401N000510042019N0040001N1+02171+02021100901ADDAA106000591AY191061AY261061GF106991051021004501031001KA1240M+02781MA1999999091331MD1999999+0031MW1101REMSYN100AAXX  13004 83339 21496 61401 10217 20202 39133 40090 71096 85230 333 10278 29090 55039 58003 69961;
0201833390999992006041312004-14050-042617FM-12+088299999V0200901N001510450019N0100001N1+02431+01971101051ADDAA124001091AY161061AY221061GF106991041021004501031001KA1240N+02001MA1999999091511MD1999999-0041MW1021REMSYN088AAXX  13124 83339 21497 60903 10243 20197 39151 40105 70262 84230 333 20200 59004 60014;
0182833390999992006041318004-14050-042617FM-12+088299999V0203201N003610042019N0100001N1+02401+01991100711ADDAA106000891AY161061AY221061GF106991061021004501001001MA1999999091151MD1999999-0071MW1021REMSYN082AAXX  13184 83339 21497 63207 10240 20199 39115 40071 70262 86200 333 59007 69981;
0168833390999992006041400004-14050-042617FM-12+088299999V0209999C000010042019N0020001N1+02151+01881100971ADDGF106991051021004501031001KA1240M+02681MA1999999091321MD1999999-0011REMSYN088AAXX  14004 83339 32495 60000 10215 20188 39132 40097 85230 333 10268 29080 55029 59001;
0201833390999992006041412004-14050-042617FM-12+088299999V0200901N002110042019N0100001N1+02261+02071101061ADDAA124000891AY161061AY221061GF106991061021004501001001KA1240N+01941MA1999999091471MD1999999-0041MW1021REMSYN088AAXX  14124 83339 21497 60904 10226 20207 39147 40106 70262 86200 333 20194 59004 69984;
0137833390999992006041418004-14050-042617FM-12+088299999V0201401N003112200019N0100001N1+02751+01861100561ADDGF102991021021004501001001MA1999999091081MD1999999-0071REMSYN070AAXX  14184 83339 32497 21406 10275 20186 39108 40056 82200 333 59007;
0178833390999992006041500004-14050-042617FM-12+088299999V0201401N002112200019N0020001N1+02251+02011100881ADDGA1001+999999999GF100991001001999999001001KA1240M+02841MA1999999091341MD1999999+0021REMSYN082AAXX  15004 83339 32995 01404 10225 20201 39134 40088 333 10284 29080 55086 58002;
0156833390999992006041512004-14050-042617FM-12+088299999V0200901N004110042019N0100001N1+02211+01991101151ADDGF106991061021004501001001KA1240N+01991MA1999999091581MD1999999+0111REMSYN076AAXX  15124 83339 32497 60908 10221 20199 39158 40115 86200 333 20199 58011;
0137833390999992006041518004-14050-042617FM-12+088299999V0200901N003612200019N0100001N1+02591+01871100821ADDGF103991031021004501001001MA1999999091301MD1999999+0221REMSYN070AAXX  15184 83339 32497 30907 10259 20187 39130 40082 83200 333 58022;
0178833390999992006041600004-14050-042617FM-12+088299999V0201401N003112200019N0020001N1+02231+01901101131ADDGA1001+999999999GF100991001001999999001001KA1240M+02701MA1999999091541MD1999999+0201REMSYN082AAXX  16004 83339 32995 01406 10223 20190 39154 40113 333 10270 29078 55093 58020;
0156833390999992006041612004-14050-042617FM-12+088299999V0200901N004610042019N0100001N1+02171+01971101461ADDGF106991061021004501001001KA1240N+01961MA1999999091841MD1999999+0261REMSYN076AAXX  16124 83339 32497 60909 10217 20197 39184 40146 86200 333 20196 58026;
0137833390999992006041618004-14050-042617FM-12+088299999V0201401N003112200019N0100001N1+02671+01941101031ADDGF102991021021004501001001MA1999999091511MD1999999+0211REMSYN070AAXX  16184 83339 32497 21406 10267 20194 39151 40103 82200 333 58021;
0168833390999992006041700004-14050-042617FM-12+088299999V0200901N001510042019N0020001N1+02231+01981101301ADDGF106991061021004501001001KA1240M+02741MA1999999091691MD1999999+0151REMSYN088AAXX  17004 83339 32495 60903 10223 20198 39169 40130 86200 333 10274 29080 55077 58015;
0184833390999992006041712004-14050-042617FM-12+088299999V0200501N002110042019N0040001N1+02131+01951101301ADDAY101061AY201061GF107991061021004501021999KA1240N+01981MA1999999091691MD1999999-0151MW1011REMSYN082AAXX  17124 83339 31496 70504 10213 20195 39169 40130 70100 8622/ 333 20198 59015;
0196833390999992006041800004-14050-042617FM-12+088299999V0209999C000012200019N0020001N1+02231+01941101081ADDAY101061AY201061GF102991021021004501001001KA1240M+02601MA1999999091491MD1999999-0201MW1101REMSYN094AAXX  18004 83339 31495 20000 10223 20194 39149 40108 71000 82200 333 10260 29079 55077 59020;
0184833390999992006041812004-14050-042617FM-12+088299999V0200901N002610042019N0100001N1+02191+01921101131ADDAY101061AY201061GF106991061021004501001001KA1240N+01841MA1999999091541MD1999999-0151MW1101REMSYN082AAXX  18124 83339 31497 60905 10219 20192 39154 40113 71000 86200 333 20184 59015;
0137833390999992006041818004-14050-042617FM-12+088299999V0201401N003112200019N0100001N1+02711+01601100701ADDGF104991031021004501021001MA1999999091211MD1999999-0121REMSYN070AAXX  18184 83339 32497 41406 10271 20160 39121 40070 83220 333 59012;
0213833390999992006041900004-14050-042617FM-12+088299999V0200501N006710042019N0020001N1+02071+01871101111ADDAA106003091AY161061AY261061GF108991081051004501999999KA1240M+02761MA1999999091501MD1999999+0011MW1101REMSYN100AAXX  19004 83339 21495 80513 10207 20187 39150 40111 71066 885// 333 10276 29078 55091 58001 60031;
0201833390999992006041912004-14050-042617FM-12+088299999V0201401N004610042019N0040001N1+01871+01691101461ADDAA124004191AY161061AY261061GF108991081051004501999999KA1240N+01731MA1999999091741MD1999999+0201MW1101REMSYN088AAXX  19124 83339 21496 81409 10187 20169 39174 40146 71066 885// 333 20173 58020 60044;
0165833390999992006041918004-14050-042617FM-12+088299999V0201801N003110042019N0040001N1+02171+01801101181ADDAY101061AY201061GF107991061021004501021999MA1999999091511MD1999999+0301MW1101REMSYN076AAXX  19184 83339 31496 71806 10217 20180 39151 40118 71000 8622/ 333 58030;
0196833390999992006042000004-14050-042617FM-12+088299999V0202301N004110042019N0020001N1+01931+01841101351ADDAY101061AY201061GF106991061021004501001001KA1240M+02241MA1999999091621MD1999999+0121MW1101REMSYN094AAXX  20004 83339 31495 62308 10193 20184 39162 40135 71000 86200 333 10224 29089 55010 58012;
0201833390999992006042012004-14050-042617FM-12+088299999V0200501N005710042019N0040001N1+01831+01741101521ADDAA124000591AY161061AY261061GF108991061051004501999999KA1240N+01731MA1999999091771MD1999999+0031MW1401REMSYN088AAXX  20124 83339 21496 80511 10183 20174 39177 40152 74066 865// 333 20173 58003 69954;
0196833390999992006042100004-14050-042617FM-12+088299999V0200901N005710042019N0020001N1+01941+01801101431ADDAY101061AY201061GF106991061021004501001001KA1240M+02261MA1999999091691MD1999999+0071MW1101REMSYN094AAXX  21004 83339 31495 60911 10194 20180 39169 40143 71000 86200 333 10226 29089 55024 58007;
0184833390999992006042112004-14050-042617FM-12+088299999V0203201N004610042019N0040001N1+01831+01701101551ADDAY101061AY201061GF108991081051004501999999KA1240N+01701MA1999999091801MD1999999+0031MW1101REMSYN082AAXX  21124 83339 31496 83209 10183 20170 39180 40155 71000 885// 333 20170 58003;
0137833390999992006042118004-14050-042617FM-12+088299999V0200901N002612200019N0100001N1+02271+01621101191ADDGF104991041021004501001001MA1999999091541MD1999999+0001REMSYN070AAXX  21184 83339 32497 40905 10227 20162 39154 40119 84200 333 58000;
0196833390999992006042200004-14050-042617FM-12+088299999V0201401N003612200019N0020001N1+01971+01811101431ADDAY101061AY201061GF102991021021004501001001KA1240M+02361MA1999999091691MD1999999+0001MW1101REMSYN094AAXX  22004 83339 31495 21407 10197 20181 39169 40143 71000 82200 333 10236 29084 55039 58000;
0184833390999992006042212004-14050-042617FM-12+088299999V0200901N002110042019N0040001N1+01931+01821101461ADDAY101061AY201061GF108991081051004501999999KA1240N+01801MA1999999091741MD1999999-0061MW1101REMSYN082AAXX  22124 83339 31496 80904 10193 20182 39174 40146 71000 885// 333 20180 59006;
0137833390999992006042218004-14050-042617FM-12+088299999V0202301N003112200019N0100001N1+02571+01621101011ADDGF103991021021004501021001MA1999999091431MD1999999-0111REMSYN070AAXX  22184 83339 32497 32306 10257 20162 39143 40101 82220 333 59011;
0196833390999992006042300004-14050-042617FM-12+088299999V0209999C000012200019N0020001N1+02191+01861101191ADDAY101061AY201061GF102991021021004501001001KA1240M+02681MA1999999091541MD1999999+0151MW1101REMSYN094AAXX  23004 83339 31495 20000 10219 20186 39154 40119 71000 82200 333 10268 29078 55069 58015;
0184833390999992006042312004-14050-042617FM-12+088299999V0201401N008210042019N0100001N1+02231+01921101301ADDAY101061AY201061GF106991061021004501001001KA1240N+01881MA1999999091691MD1999999-0051MW1101REMSYN082AAXX  23124 83339 31497 61416 10223 20192 39169 40130 71000 86200 333 20188 59005;
0137833390999992006042318004-14050-042617FM-12+088299999V0201801N004612200019N0100001N1+02591+01821100951ADDGF104991031021004501021001MA1999999091401MD1999999-0031REMSYN070AAXX  23184 83339 32497 41809 10259 20182 39140 40095 83220 333 59003;
0196833390999992006042400004-14050-042617FM-12+088299999V0201401N000512200019N0020001N1+02171+01931101111ADDAY101061AY201061GF102991021021004501001001KA1240M+02701MA1999999091521MD1999999-0021MW1101REMSYN094AAXX  24004 83339 31495 21401 10217 20193 39152 40111 71000 82200 333 10270 29079 55086 59002;
0220833390999992006042412004-14050-042617FM-12+088299999V0200901N006210042019N0020001N1+02001+01931101381ADDAA124000091AY161061AY221061GF108991051021004501021999KA1240N+01941MA1999999091731MD1999999+0041MW1401REMSYN088AAXX  24124 83339 21495 80912 10200 20193 39173 40138 74062 8522/ 333 20194 58004 69924;EQDQ01  00002PRCP24
0165833390999992006042418004-14050-042617FM-12+088299999V0201401N003612200019N0100001N1+02591+01921100941ADDAY141061AY221061GF103991031021004501001001MA1999999091391MD1999999-0011MW1021REMSYN076AAXX  24184 83339 31497 31407 10259 20192 39139 40094 70242 83200 333 59001;
0168833390999992006042500004-14050-042617FM-12+088299999V0201401N005110042019N0020001N1+02051+01931101261ADDGF106991061021004501001001KA1240M+02661MA1999999091581MD1999999+0061REMSYN088AAXX  25004 83339 32495 61410 10205 20193 39158 40126 86200 333 10266 29086 55076 58006;
0182833390999992006042518004-14050-042617FM-12+088299999V0200901N005710042019N0020001N1+02241+02031101101ADDAA106000021AY141061AY221061GF108991051021004501021999MA1999999091451MD1999999+0061MW1601REMSYN082AAXX  25184 83339 21495 80911 10224 20203 39145 40110 76042 8522/ 333 58006 69921;
0213833390999992006042600004-14050-042617FM-12+088299999V0201401N006210450019N0020001N1+01931+01891101381ADDAA106015091AY161061AY241061GF108991041021004501021999KA1240M+02501MA1999999091661MD1999999+0081MW1601REMSYN100AAXX  26004 83339 21495 81412 10193 20189 39166 40138 76064 8422/ 333 10250 29094 55044 58008 60151;
0201833390999992006042612004-14050-042617FM-12+088299999V0200901N006210042019N0100001N1+02011+01781101511ADDAA124015091AY161061AY241061GF106991061021004501001001KA1240N+01781MA1999999091781MD1999999+0081MW1021REMSYN088AAXX  26124 83339 21497 60912 10201 20178 39178 40151 70264 86200 333 20178 58008 60154;
0137833390999992006042618004-14050-042617FM-12+088299999V0200901N001010042019N0100001N1+02421+01651101041ADDGF105991051021004501001001MA1999999091421MD1999999-0021REMSYN070AAXX  26184 83339 32497 50902 10242 20165 39142 40104 85200 333 59002;
0178833390999992006042700004-14050-042617FM-12+088299999V0201801N001512200019N0020001N1+02021+01641101261ADDGA1001+999999999GF100991001001999999001001KA1240M+02471MA1999999091581MD1999999-0081REMSYN082AAXX  27004 83339 32995 01803 10202 20164 39158 40126 333 10247 29077 55086 59008;
0156833390999992006042712004-14050-042617FM-12+088299999V0200501N000512200019N0100001N1+02151+01821101301ADDGF104991021021004501001011KA1240N+01681MA1999999091691MD1999999-0091REMSYN076AAXX  27124 83339 32497 40501 10215 20182 39169 40130 82201 333 20168 59009;
0137833390999992006042718004-14050-042617FM-12+088299999V0200901N002112200019N0100001N1+02531+01651100951ADDGF106991041021004501001011MA1999999091351MD1999999-0071REMSYN070AAXX  27184 83339 32497 60904 10253 20165 39135 40095 84201 333 59007;
0178833390999992006042800004-14050-042617FM-12+088299999V0201801N001512200019N0020001N1+02061+01681101161ADDGA1001+999999999GF100991001001999999001001KA1240M+02641MA1999999091531MD1999999-0051REMSYN082AAXX  28004 83339 32995 01803 10206 20168 39153 40116 333 10264 29074 55106 59005;
0156833390999992006042812004-14050-042617FM-12+088299999V0200901N003110042019N0100001N1+02001+01811101371ADDGF108991051021004501021999KA1240N+01751MA1999999091701MD1999999+0011REMSYN076AAXX  28124 83339 32497 80906 10200 20181 39170 40137 8522/ 333 20175 58001;
0137833390999992006042818004-14050-042617FM-12+088299999V0200901N003112200019N0100001N1+02581+01731100911ADDGF102991021021004501001001MA1999999091341MD1999999-0011REMSYN070AAXX  28184 83339 32497 20906 10258 20173 39134 40091 82200 333 59001;
0178833390999992006042900004-14050-042617FM-12+088299999V0201401N002612200019N0020001N1+02071+01681101181ADDGA1001+999999999GF100991001001999999001001KA1240M+02621MA1999999091531MD1999999+0001REMSYN082AAXX  29004 83339 32995 01405 10207 20168 39153 40118 333 10262 29076 55082 58000;
0184833390999992006042912004-14050-042617FM-12+088299999V0200901N003110042019N0020001N1+01931+01811101431ADDAY121061AY221061GF108991051021004501021999KA1240N+01831MA1999999091731MD1999999+0031MW1401REMSYN082AAXX  29124 83339 31495 80906 10193 20181 39173 40143 74022 8522/ 333 20183 58003;
0165833390999992006042918004-14050-042617FM-12+088299999V0201801N004112200019N0100001N1+02331+01671101031ADDAY141061AY221061GF105991031021004501001011MA1999999091411MD1999999+0071MW1021REMSYN076AAXX  29184 83339 31497 51808 10233 20167 39141 40103 70242 83201 333 58007;
0178833390999992006043000004-14050-042617FM-12+088299999V0200901N004112200019N0020001N1+02031+01881101361ADDGA1001+999999999GF100991001001999999001001KA1240M+02381MA1999999091661MD1999999+0131REMSYN082AAXX  30004 83339 32995 00908 10203 20188 39166 40136 333 10238 29079 55018 58013;
0156833390999992006043012004-14050-042617FM-12+088299999V0200901N004112200019N0100001N1+01871+01711101481ADDGF105991041021004501001011KA1240N+01781MA1999999091751MD1999999+0021REMSYN076AAXX  30124 83339 32497 50908 10187 20171 39175 40148 84201 333 20178 58002;
0137833390999992006043018004-14050-042617FM-12+088299999V0200901N004112200019N0100001N1+02401+01521101141ADDGF104991031021004501001011MA1999999091511MD1999999+0101REMSYN070AAXX  30184 83339 32497 40908 10240 20152 39151 40114 83201 333 58010;
0178833390999992006050100004-14050-042617FM-12+088299999V0200901N003112200019N0020001N1+01971+01701101371ADDGA1001+999999999GF100991001001999999001001KA1240M+02481MA1999999091641MD1999999-0021REMSYN082AAXX  01004 83339 32995 00906 10197 20170 39164 40137 333 10248 29079 55074 59002;
0184833390999992006050112004-14050-042617FM-12+088299999V0200901N003110042019N0100001N1+02031+01701101481ADDAY101061AY201061GF106991051021004501021001KA1240N+01631MA1999999091771MD1999999+0021MW1101REMSYN082AAXX  01124 83339 31497 60906 10203 20170 39177 40148 71000 85220 333 20163 58002;
0137833390999992006050118004-14050-042617FM-12+088299999V0201401N002612200019N0100001N1+02531+01521101101ADDGF104991031021004501021001MA1999999091491MD1999999-0021REMSYN070AAXX  01184 83339 32497 41405 10253 20152 39149 40110 83220 333 59002;
0196833390999992006050200004-14050-042617FM-12+088299999V0200501N002112200019N0020001N1+02051+01801101391ADDAY101061AY201061GF102991021021004501001001KA1240M+02661MA1999999091721MD1999999+0081MW1101REMSYN094AAXX  02004 83339 31495 20504 10205 20180 39172 40139 71000 82200 333 10266 29076 55074 58008;
0156833390999992006050212004-14050-042617FM-12+088299999V0201401N003112200019N0100001N1+02251+01801101461ADDGF102991021021004501001001KA1240N+01901MA1999999091821MD1999999+0051REMSYN076AAXX  02124 83339 32497 21406 10225 20180 39182 40146 82200 333 20190 58005;
0137833390999992006050218004-14050-042617FM-12+088299999V0200901N002612200019N0100001N1+02771+01591100971ADDGF102991021021004501001001MA1999999091451MD1999999-0041REMSYN070AAXX  02184 83339 32497 20905 10277 20159 39145 40097 82200 333 59004;
0178833390999992006050300004-14050-042617FM-12+088299999V0201801N003112200019N0020001N1+02211+01721101191ADDGA1001+999999999GF100991001001999999001001KA1240M+02841MA1999999091621MD1999999-0101REMSYN082AAXX  03004 83339 32995 01806 10221 20172 39162 40119 333 10284 29068 55098 59010;
0184833390999992006050312004-14050-042617FM-12+088299999V0200501N002110042019N0040001N1+02191+01941101291ADDAY101061AY201061GF108991081051004501999999KA1240N+01961MA1999999091681MD1999999-0141MW1101REMSYN082AAXX  03124 83339 31496 80504 10219 20194 39168 40129 71000 885// 333 20196 59014;
0137833390999992006050318004-14050-042617FM-12+088299999V0203201N003112200019N0100001N1+02771+01621100821ADDGF102991011021004501001021MA1999999091341MD1999999-0111REMSYN070AAXX  03184 83339 32497 23206 10277 20162 39134 40082 81202 333 59011;
0178833390999992006050400004-14050-042617FM-12+088299999V0201801N001012200019N0020001N1+02211+01721101021ADDGA1001+999999999GF100991001001999999001001KA1240M+02831MA1999999091441MD1999999-0181REMSYN082AAXX  04004 83339 32995 01802 10221 20172 39144 40102 333 10283 29070 55076 59018;
0184833390999992006050412004-14050-042617FM-12+088299999V0200501N003112200019N0100001N1+02151+01901101151ADDAY101061AY201061GF104991031021004501021001KA1240N+01841MA1999999091551MD1999999-0131MW1101REMSYN082AAXX  04124 83339 31497 40506 10215 20190 39155 40115 71000 83220 333 20184 59013;
0182833390999992006050418004-14050-042617FM-12+088299999V0203601N000510042019N0100001N1+02651+02051100881ADDAA106000591AY161061AY261061GF105991051021004501001001MA1999999091371MD1999999+0031MW1021REMSYN082AAXX  04184 83339 21497 53601 10265 20205 39137 40088 70266 85200 333 58003 69961;
0213833390999992006050500004-14050-042617FM-12+088299999V0203601N001010042019N0020001N1+02051+01961101121ADDAA106036191AY191061AY261061GF108991081051004501999999KA1240M+02841MA1999999091491MD1999999+0051MW1101REMSYN100AAXX  05004 83339 21495 83602 10205 20196 39149 40112 71096 885// 333 10284 29086 55057 58005 60361;
0201833390999992006050512004-14050-042617FM-12+088299999V0200501N000510042019N0100001N1+02231+02071101221ADDAA124036191AY161061AY261061GF106991061021004501001001KA1240N+01971MA1999999091601MD1999999+0051MW1101REMSYN088AAXX  05124 83339 21497 60501 10223 20207 39160 40122 71066 86200 333 20197 58005 60364;
0137833390999992006050518004-14050-042617FM-12+088299999V0203601N004610042019N0100001N1+02531+01911100891ADDGF106991051021004501021001MA1999999091341MD1999999-0031REMSYN070AAXX  05184 83339 32497 63609 10253 20191 39134 40089 85220 333 59003;
0196833390999992006050600004-14050-042617FM-12+088299999V0202301N001512200019N0020001N1+02191+02011101151ADDAY101061AY201061GF103991031021004501001001KA1240M+02641MA1999999091551MD1999999+0061MW1101REMSYN094AAXX  06004 83339 31495 32303 10219 20201 39155 40115 71000 83200 333 10264 29084 55049 58006;
0184833390999992006050612004-14050-042617FM-12+088299999V0200901N006210042019N0040001N1+02071+01931101261ADDAY101061AY201061GF108991081051004501999999KA1240N+02001MA1999999091641MD1999999+0041MW1101REMSYN082AAXX  06124 83339 31496 80912 10207 20193 39164 40126 71000 885// 333 20200 58004;
0137833390999992006050618004-14050-042617FM-12+088299999V0201401N003110042019N0100001N1+02411+01821101001ADDGF106991051021004501021001MA1999999091421MD1999999+0081REMSYN070AAXX  06184 83339 32497 61406 10241 20182 39142 40100 85220 333 58008;
0196833390999992006050700004-14050-042617FM-12+088299999V0203201N003612200019N0020001N1+01991+01831101191ADDAY101061AY201061GF103991031021004501001001KA1240M+02441MA1999999091541MD1999999-0011MW1101REMSYN094AAXX  07004 83339 31495 33207 10199 20183 39154 40119 71000 83200 333 10244 29086 55035 59001;
0201833390999992006050712004-14050-042617FM-12+088299999V0201401N004110042019N0040001N1+01871+01781101461ADDAA124000591AY161061AY261061GF108991081051004501999999KA1240N+01831MA1999999091741MD1999999+0101MW1501REMSYN088AAXX  07124 83339 21496 81408 10187 20178 39174 40146 75066 885// 333 20183 58010 69944;
0182833390999992006050718004-14050-042617FM-12+088299999V0201801N002110042019N0100001N1+02091+01741101171ADDAA106000591AY161061AY261061GF107991061021004501021999MA1999999091501MD1999999+0081MW1101REMSYN082AAXX  07184 83339 21497 71804 10209 20174 39150 40117 71066 8622/ 333 58008 69941;
0196833390999992006050800004-14050-042617FM-12+088299999V0200901N004610042019N0020001N1+01911+01701101361ADDAY101061AY201061GF106991061021004501001001KA1240M+02221MA1999999091631MD1999999+0091MW1101REMSYN094AAXX  08004 83339 31495 60909 10191 20170 39163 40136 71000 86200 333 10222 29088 55013 58009;
0201833390999992006050812004-14050-042617FM-12+088299999V0200901N002110042019N0100001N1+01981+01701101561ADDAA124000591AY161061AY221061GF106991061021004501001001KA1240N+01731MA1999999091831MD1999999+0091MW1021REMSYN088AAXX  08124 83339 21497 60904 10198 20170 39183 40156 70262 86200 333 20173 58009 69944;
0137833390999992006050818004-14050-042617FM-12+088299999V0200901N003112200019N0100001N1+02331+01491101121ADDGF102991021011004501001001MA1999999091471MD1999999-0031REMSYN070AAXX  08184 83339 32497 20906 10233 20149 39147 40112 82100 333 59003;
0178833390999992006050900004-14050-042617FM-12+088299999V0201801N002612200019N0020001N1+01841+01311101401ADDGA1001+999999999GF100991001001999999001001KA1240M+02381MA1999999091661MD1999999+0031REMSYN082AAXX  09004 83339 32995 01805 10184 20131 39166 40140 333 10238 29071 55071 58003;
0156833390999992006050912004-14050-042617FM-12+088299999V0200901N008210042019N0100001N1+01931+01721101501ADDGF105991051021004501001001KA1240N+01541MA1999999091751MD1999999-0081REMSYN076AAXX  09124 83339 32497 50916 10193 20172 39175 40150 85200 333 20154 59008;
