0143823920999991999010300004-03700-040350FM-12+008399999V02099999999992200019N9999999N1+02721+02031100781ADDAA199000091GA1001+999999999GF100991001001999999001001KA1240M+03661MA1999999099761MD1999999+0101REMSYN017 333 10366 58010;EQDQ01  00002PRCP99
0127823920999991999010412004-03700-040350FM-12+008399999V02099999999990450019N0200001N1+02901+02041100821ADDAA199000091GF106991041011004501031001KA1240N+02121MA1999999099801MD1999999-0071REMSYN017 333 20212 59007;EQDQ01  00002PRCP99
0108823920999991999010418004-03700-040350FM-12+008399999V02099999999992200019N0200001N1+03641+01651100361ADDAA199000091GF104991031011004501031001MA1999999099361MD1999999-0011REMSYN011 333 59001;EQDQ01  00002PRCP99
0127823920999991999010512004-03700-040350FM-12+008399999V02099999999992200019N0200001N1+02941+02001100791ADDAA199000091GF104991031011004501031001KA1240N+02321MA1999999099781MD1999999-0021REMSYN017 333 20232 59002;EQDQ01  00002PRCP99
0127823920999991999010612004-03700-040350FM-12+008399999V02099999999990450019N0200001N1+02801+02111100921ADDAA199000091GF106991041051004501031001KA1240N+02301MA1999999099901MD1999999+0121REMSYN017 333 20230 58012;EQDQ01  00002PRCP99
0108823920999991999010618004-03700-040350FM-12+008399999V02099999999990042019N0200001N1+03501+01581100511ADDAA199000091GF106991051021004501031001MA1999999099511MD1999999+0161REMSYN011 333 58016;EQDQ01  00002PRCP99
0127823920999991999010712004-03700-040350FM-12+008399999V02099999999990450019N0200001N1+02941+02001100981ADDAA199000091GF106991021021008001031011KA1240N+02341MA1999999099961MD1999999+0061REMSYN017 333 20234 58006;EQDQ01  00002PRCP99
0127823920999991999010812004-03700-040350FM-12+008399999V02099999999990450019N0200001N1+02681+02221100881ADDAA199000091GF108991031071004501021999KA1240N+02381MA1999999099861MD1999999-0101REMSYN017 333 20238 59010;EQDQ01  00002PRCP99
0136823920999991999010912004-03700-040350FM-12+008399999V02099999999992200019N0200001N1+02421+02281100971ADDAA199023191AY161061AY261061GF104991011011004501031001KA1240N+02061MA1999999099941MD1999999+0081MW1021REMSYN023 333 20206 58008 60234;
0127823920999991999011212004-03700-040350FM-12+008399999V02099999999990450019N0200001N1+02921+02271101021ADDAA199000091GF105991021011004501031001KA1240N+02361MA1999999100001MD1999999+0041REMSYN017 333 20236 58004;EQDQ01  00002PRCP99
0127823920999991999011312004-03700-040350FM-12+008399999V02099999999990450019N0200001N1+02841+02121101081ADDAA199000091GF105991031021004501031001KA1240N+02401MA1999999100061MD1999999+0061REMSYN017 333 20240 58006;EQDQ01  00002PRCP99
0117823920999991999011318004-03700-040350FM-12+008399999V02099999999990042019N0200001N1+03001+02141100701ADDAA199003091AY161061AY221061GF106991051051004501031001MA1999999099681MD1999999+0111MW1031REMSYN017 333 58011 60031;
0114823920999991999011412004-03700-040350FM-12+008399999V02099999999990450019N0200001N1+02831+02071101061ADDAA199003091GF106991031021004501031001KA1240N+02341MA1999999100041MD1999999-0021REMSYN023 333 20234 59002 60034;
0108823920999991999011418004-03700-040350FM-12+008399999V02099999999990450019N0200001N1+03441+01631100581ADDAA199000091GF106991021071008001021011MA1999999099581MD1999999-0101REMSYN011 333 59010;EQDQ01  00002PRCP99
0127823920999991999011512004-03700-040350FM-12+008399999V02099999999992200019N0200001N1+02881+02101101051ADDAA199000091GF104991041021004501001001KA1240N+02221MA1999999100031MD1999999-0011REMSYN017 333 20222 59001;EQDQ01  00002PRCP99
0127823920999991999011612004-03700-040350FM-12+008399999V02099999999990042019N0200001N1+02741+02211101041ADDAA199000091GF107991051041004501021001KA1240N+02401MA1999999100021MD1999999-0011REMSYN017 333 20240 59001;EQDQ01  00002PRCP99
0108823920999991999011618004-03700-040350FM-12+008399999V02099999999990450019N0200001N1+03331+01851100661ADDAA199000091GF106991031061008001011011MA1999999099651MD1999999+0171REMSYN011 333 58017;EQDQ01  00002PRCP99
0127823920999991999011812004-03700-040350FM-12+008399999V02099999999990450019N0200001N1+02801+02181101161ADDAA199000091GF105991041041004501031001KA1240N+02321MA1999999100141MD1999999+0061REMSYN017 333 20232 58006;EQDQ01  00002PRCP99
0117823920999991999011818004-03700-040350FM-12+008399999V02099999999990450019N0040001N1+02241+02161100871ADDAA199014091AY121061AY221061GF108991031091004501021999MA1999999099841MD1999999+0141MW1651REMSYN017 333 58014 60141;
0114823920999991999011912004-03700-040350FM-12+008399999V02099999999990450019N0200001N1+02801+02151101121ADDAA199030091GF105991031021004501031001KA1240N+02201MA1999999100101MD1999999-0041REMSYN023 333 20220 59004 60304;
0108823920999991999011918004-03700-040350FM-12+008399999V02099999999990450019N0200001N1+03361+01971100641ADDAA199000091GF106991031051008001011011MA1999999099641MD1999999-0201REMSYN011 333 59020;EQDQ01  00002PRCP99
0114823920999991999012012004-03700-040350FM-12+008399999V02099999999992200019N0200001N1+02721+02301101101ADDAA199007191GF104991041011004501001001KA1240N+02221MA1999999100081MD1999999-0021REMSYN023 333 20222 59002 60074;
0108823920999991999012018004-03700-040350FM-12+008399999V02099999999990450019N0200001N1+02761+02281100811ADDAA199000091GF106991041071004501021011MA1999999099781MD1999999+0141REMSYN011 333 58014;EQDQ01  00002PRCP99
0127823920999991999012100004-03700-040350FM-12+008399999V02099999999992200019N9999999N1+02571+02231101061ADDAA199000091GF102991011071004501021001KA1240M+03321MA1999999100041MD1999999+0071REMSYN017 333 10332 58007;EQDQ01  00002PRCP99
0127823920999991999012112004-03700-040350FM-12+008399999V02099999999990042019N0200001N1+02661+02241101011ADDAA199000091GF107991051051004501031001KA1240N+02301MA1999999099991MD1999999-0091REMSYN017 333 20230 59009;EQDQ01  00002PRCP99
0127823920999991999012200004-03700-040350FM-12+008399999V02099999999990450019N9999999N1+02401+02301101031ADDAA199000091GF108991031071004501021999KA1240M+03121MA1999999100001MD1999999-0041REMSYN017 333 10312 59004;EQDQ01  00002PRCP99
0114823920999991999012212004-03700-040350FM-12+008399999V02099999999990450019N0200001N1+02701+02281101081ADDAA199016091GF106991041051004501031001KA1240N+02281MA1999999100061MD1999999+0071REMSYN023 333 20228 58007 60164;
0117823920999991999012218004-03700-040350FM-12+008399999V02099999999990450019N0200001N1+03351+02021100591ADDAA199003091AY161061AY261061GF106991031051004501031011MA1999999099591MD1999999-0171MW1021REMSYN017 333 59017 60031;
0127823920999991999012300004-03700-040350FM-12+008399999V02099999999992200019N9999999N1+02681+02161100911ADDAA199000091GF104991021071008001011001KA1240M+03401MA1999999099891MD1999999-0111REMSYN017 333 10340 59011;EQDQ01  00002PRCP99
0133823920999991999012312004-03700-040350FM-12+008399999V02099999999999999999N0200001N1+02761+02141101001ADDAA199003091GF105991999041004501001001KA1240N+02181MA1999999099981MD1999999-0081REMSYN023 333 20218 59008 60034;EQDQ01+000042SCOTLC
0108823920999991999012318004-03700-040350FM-12+008399999V02099999999992200019N0200001N1+03401+01851100481ADDAA199000091GF103991031021004501001001MA1999999099481MD1999999-0111REMSYN011 333 59011;EQDQ01  00002PRCP99
0127823920999991999012400004-03700-040350FM-12+008399999V02099999999992200019N9999999N1+02741+02321100691ADDAA199000091GF102991021011004501001001KA1240M+03471MA1999999099671MD1999999-0221REMSYN017 333 10347 59022;EQDQ01  00002PRCP99
0127823920999991999012412004-03700-040350FM-12+008399999V02099999999990450019N0200001N1+02841+02171100781ADDAA199000091GF106991041041004501011011KA1240N+02281MA1999999099761MD1999999-0221REMSYN017 333 20228 59022;EQDQ01  00002PRCP99
0108823920999991999012418004-03700-040350FM-12+008399999V02099999999992200019N0200001N1+03501+01631100331ADDAA199000091GF104991031021008001011001MA1999999099331MD1999999-0151REMSYN011 333 59015;EQDQ01  00002PRCP99
0143823920999991999012500004-03700-040350FM-12+008399999V02099999999992200019N9999999N1+02781+02041100611ADDAA199000091GA1001+999999999GF100991001001999999001001KA1240M+03531MA1999999099601MD1999999-0071REMSYN017 333 10353 59007;EQDQ01  00002PRCP99
0127823920999991999012512004-03700-040350FM-12+008399999V02099999999990042019N0200001N1+02781+02061100821ADDAA199000091GF106991051051004501031001KA1240N+02161MA1999999099801MD1999999+0041REMSYN017 333 20216 58004;EQDQ01  00002PRCP99
0074823920999991999012518004-03700-040350FM-12+008399999V02099999999990042019N0200001N1+03301+01871100431ADDAA199000091GF106991051021004501031001MA1999999099431EQDQ01  00002PRCP99
0143823920999991999012600004-03700-040350FM-12+008399999V02099999999992200019N9999999N1+02661+02201100741ADDAA199000091GF102991999021008001001001KA1240M+03441MA1999999099721MD1999999+0121REMSYN017 333 10344 58012;EQDQ01+000032SCOTLCQ02  00002PRCP99
0127823920999991999012612004-03700-040350FM-12+008399999V02099999999990450019N0200001N1+02801+02181100931ADDAA199000091GF106991041051004501031001KA1240N+02421MA1999999099911MD1999999+0111REMSYN017 333 20242 58011;EQDQ01  00002PRCP99
0108823920999991999012618004-03700-040350FM-12+008399999V02099999999990450019N0200001N1+03461+01781100501ADDAA199000091GF106991021071008001011011MA1999999099501MD1999999+0071REMSYN011 333 58007;EQDQ01  00002PRCP99
0127823920999991999012700004-03700-040350FM-12+008399999V02099999999990450019N9999999N1+02661+02181100771ADDAA199000091GF106991011071008001011001KA1240M+03481MA1999999099751MD1999999+0031REMSYN017 333 10348 58003;EQDQ01  00002PRCP99
0127823920999991999012712004-03700-040350FM-12+008399999V02099999999990450019N0200001N1+02681+02091100971ADDAA199000091GF105991041051004501031001KA1240N+02181MA1999999099951MD1999999+0041REMSYN017 333 20218 58004;EQDQ01  00002PRCP99
0108823920999991999012718004-03700-040350FM-12+008399999V02099999999990450019N0200001N1+03401+01721100461ADDAA199000091GF105991041041004501031001MA1999999099461MD1999999-0041REMSYN011 333 59004;EQDQ01  00002PRCP99
0155823920999991999012800004-03700-040350FM-12+008399999V02099999999999999999N9999999N1+02731+02151100771ADDAA199000591AY161061AY261061GF106991999011004501001001KA1240M+03461MA1999999099751MD1999999+0001MW1021REMSYN023 333 10346 58000 69951;EQDQ01+000022SCOTLC
0114823920999991999012812004-03700-040350FM-12+008399999V02099999999990450019N0200001N1+02771+02161100931ADDAA199000591GF106991031021004501011001KA1240N+02281MA1999999099911MD1999999-0041REMSYN023 333 20228 59004 69954;
0108823920999991999012818004-03700-040350FM-12+008399999V02099999999990450019N0200001N1+03541+01671100491ADDAA199000091GF106991021021008001031011MA1999999099491MD1999999+0031REMSYN011 333 58003;EQDQ01  00002PRCP99
0127823920999991999012900004-03700-040350FM-12+008399999V02099999999992200019N9999999N1+02681+02221100891ADDAA199000091GF102991021001008001031001KA1240M+03581MA1999999099871MD1999999+0121REMSYN017 333 10358 58012;EQDQ01  00002PRCP99
0127823920999991999012912004-03700-040350FM-12+008399999V02099999999992200019N0200001N1+02801+02151101031ADDAA199000091GF105991031021004501001011KA1240N+02321MA1999999100011MD1999999+0101REMSYN017 333 20232 58010;EQDQ01  00002PRCP99
0155823920999991999013000004-03700-040350FM-12+008399999V02099999999990042019N9999999N1+02531+02331100911ADDAA199018091AY161061AY261061GF108991999021004501001001KA1240M+03571MA1999999099891MD1999999+0021MW1021REMSYN023 333 10357 58002 60181;EQDQ01+000062SCOTLC
0114823920999991999013012004-03700-040350FM-12+008399999V02099999999990450019N0200001N1+02701+02351101001ADDAA199018091GF105991031021004501031001KA1240N+02321MA1999999099971MD1999999-0041REMSYN023 333 20232 59004 60184;
0108823920999991999013018004-03700-040350FM-12+008399999V02099999999990450019N0200001N1+03131+02281100481ADDAA199000091GF106991031071004501031001MA1999999099471MD1999999-0041REMSYN011 333 59004;EQDQ01  00002PRCP99
0136823920999991999013100004-03700-040350FM-12+008399999V02099999999990042019N9999999N1+02181+02151100951ADDAA199064091AY191061AY291061GF108991081051004501999999KA1240M+03271MA1999999099921MD1999999+0031MW1921REMSYN023 333 10327 58003 60641;
0155823920999991999013112004-03700-040350FM-12+008399999V02099999999990042019N0200001N1+02601+02501101031ADDAA199068191AY161061AY261061GF107991999021004501001001KA1240N+02011MA1999999100001MD1999999+0031MW1021REMSYN023 333 20201 58003 60684;EQDQ01+000052SCOTLC
0117823920999991999013118004-03700-040350FM-12+008399999V02099999999992200019N0200001N1+03181+02131100571ADDAA199003091AY161061AY251061GF104991031011004501031001MA1999999099561MD1999999+0091MW1021REMSYN017 333 58009 60031;
0127823920999991999020100004-03700-040350FM-12+008399999V02099999999990450019N9999999N1+02661+02331100871ADDAA199000091GF108991021011008001011999KA1240M+03221MA1999999099851MD1999999-0071REMSYN017 333 10322 59007;EQDQ01  00002PRCP99
0114823920999991999020112004-03700-040350FM-12+008399999V02099999999992200019N0200001N1+02701+02381100911ADDAA199003091GF103991031011004501001001KA1240N+02301MA1999999099891MD1999999-0111REMSYN023 333 20230 59011 60034;
0114823920999991999020212004-03700-040350FM-12+008399999V02099999999992200019N0200001N1+02761+02341100891ADDAA199000891GF102991011011004501001011KA1240N+02201MA1999999099871MD1999999-0021REMSYN023 333 20220 59002 69984;
0108823920999991999020218004-03700-040350FM-12+008399999V02099999999990450019N0200001N1+03361+02241100451ADDAA199000091GF106991031071004501031011MA1999999099441MD1999999-0031REMSYN011 333 59003;EQDQ01  00002PRCP99
0127823920999991999020300004-03700-040350FM-12+008399999V02099999999992200019N9999999N1+02721+02121100771ADDAA199000091GF104991021071008001011011KA1240M+03371MA1999999099751MD1999999-0011REMSYN017 333 10337 59001;EQDQ01  00002PRCP99
0114823920999991999020312004-03700-040350FM-12+008399999V02099999999990450019N0200001N1+02821+02291100911ADDAA199000191GF105991041041004501031001KA1240N+02261MA1999999099891MD1999999+0021REMSYN023 333 20226 58002 69924;
0117823920999991999020318004-03700-040350FM-12+008399999V02099999999990042019N0200001N1+02861+02211100531ADDAA199001091AY161061AY221061GF108991051051004501011999MA1999999099521MD1999999+0081MW1031REMSYN017 333 58008 60011;
0114823920999991999020412004-03700-040350FM-12+008399999V02099999999990450019N0200001N1+02771+02341100921ADDAA199007191GF106991041041004501031011KA1240N+02321MA1999999099901MD1999999+0011REMSYN023 333 20232 58001 60074;
0120823920999991999020500004-03700-040350FM-12+008399999V02099999999990450019N9999999N1+02421+02321100891ADDAA199000891GF108991041061004501021999KA1240M+03161MA1999999099871MD1999999+0041MW1511REMSYN023 333 10316 58004 69981;
0136823920999991999020512004-03700-040350FM-12+008399999V02099999999990450019N0200001N1+02581+02271101021ADDAA199008991AY151061AY251061GF106991021011004501031001KA1240N+02261MA1999999099991MD1999999+0091MW1031REMSYN023 333 20226 58009 60094;
0108823920999991999020518004-03700-040350FM-12+008399999V02099999999990450019N0200001N1+03671+02141100641ADDAA199000091GF107991041071004501031001MA1999999099621MD1999999-0031REMSYN011 333 59003;EQDQ01  00002PRCP99
0127823920999991999020600004-03700-040350FM-12+008399999V02099999999990450019N9999999N1+02561+02271100951ADDAA199000091GF106991041061004501011001KA1240M+03141MA1999999099931MD1999999+0061REMSYN017 333 10314 58006;EQDQ01  00002PRCP99
0127823920999991999020612004-03700-040350FM-12+008399999V02099999999990450019N0200001N1+02721+02171101111ADDAA199000091GF106991041041004501031001KA1240N+02301MA1999999100091MD1999999+0101REMSYN017 333 20230 58010;EQDQ01  00002PRCP99
0108823920999991999020618004-03700-040350FM-12+008399999V02099999999990450019N0200001N1+02901+02201100871ADDAA199000091GF107991041051004501031001MA1999999099851MD1999999+0231REMSYN011 333 58023;EQDQ01  00002PRCP99
0127823920999991999020712004-03700-040350FM-12+008399999V02099999999990450019N0200001N1+02761+02211101091ADDAA199000091GF106991021021004501031011KA1240N+02211MA1999999100071MD1999999-0021REMSYN017 333 20221 59002;EQDQ01  00002PRCP99
0108823920999991999020718004-03700-040350FM-12+008399999V02099999999990450019N0200001N1+02641+02271100851ADDAA199000091GF106991041061008001031011MA1999999099821MD1999999-0031REMSYN011 333 59003;EQDQ01  00002PRCP99
0108823920999991999020818004-03700-040350FM-12+008399999V02099999999990450019N0200001N1+03281+02201100811ADDAA199000091GF107991041021004501031011MA1999999099791MD1999999-0031REMSYN011 333 59003;EQDQ01  00002PRCP99
0127823920999991999020900004-03700-040350FM-12+008399999V02099999999992200019N9999999N1+02691+02351101081ADDAA199000091GF104991021051004501021001KA1240M+03301MA1999999100061MD1999999+0051REMSYN017 333 10330 58005;EQDQ01  00002PRCP99
0136823920999991999020912004-03700-040350FM-12+008399999V02099999999990450019N0200001N1+02741+02341101221ADDAA199000891AY161061AY221061GF106991041051004501031001KA1240N+02491MA1999999100201MD1999999+0041MW1031REMSYN023 333 20249 58004 69984;
0108823920999991999020918004-03700-040350FM-12+008399999V02099999999990450019N0200001N1+03181+02251100761ADDAA199000091GF106991031021008001011011MA1999999099741MD1999999-0051REMSYN011 333 59005;EQDQ01  00002PRCP99
0114823920999991999021012004-03700-040350FM-12+008399999V02099999999992200019N0200001N1+02781+02231101081ADDAA199003091GF103991021011004501001011KA1240N+02301MA1999999100061MD1999999-0041REMSYN023 333 20230 59004 60034;
0108823920999991999021018004-03700-040350FM-12+008399999V02099999999990450019N0200001N1+03381+02021100541ADDAA199000091GF105991041021004501031001MA1999999099541MD1999999-0201REMSYN011 333 59020;EQDQ01  00002PRCP99
0127823920999991999021100004-03700-040350FM-12+008399999V02099999999992200019N9999999N1+02681+02161100921ADDAA199000091GF102991021021008001001001KA1240M+03381MA1999999099901MD1999999-0161REMSYN017 333 10338 59016;EQDQ01  00002PRCP99
0127823920999991999021112004-03700-040350FM-12+008399999V0209999C000010450019N0200001N1+02661+02331101061ADDAA199000091GF106991031021004501031011KA1240N+02301MA1999999100041MD1999999-0021REMSYN017 333 20230 59002;EQDQ01  00002PRCP99
0108823920999991999021118004-03700-040350FM-12+008399999V02099999999990450019N0200001N1+03341+02151100501ADDAA199000091GF106991031051004501031011MA1999999099501MD1999999-0041REMSYN011 333 59004;EQDQ01  00002PRCP99
0127823920999991999021212004-03700-040350FM-12+008399999V02099999999990042019N0200001N1+02541+02401101051ADDAA199000091GF107991051051004501031001KA1240N+02201MA1999999100031MD1999999-0011REMSYN017 333 20220 59001;EQDQ01  00002PRCP99
0117823920999991999021218004-03700-040350FM-12+008399999V02099999999990042019N0020001N1+02231+02081100811ADDAA199007991AY191061AY291061GF107991051061004501031001MA1999999099781MD1999999+0281MW1971REMSYN017 333 58028 60081;
0114823920999991999021312004-03700-040350FM-12+008399999V02099999999992200019N0200001N1+02621+02371101001ADDAA199008991GF104991021021004501011011KA1240N+02201MA1999999099971MD1999999-0061REMSYN023 333 20220 59006 60094;
0108823920999991999021318004-03700-040350FM-12+008399999V02099999999992200019N0200001N1+03421+02161100491ADDAA199000091GF104991031021008001031001MA1999999099481MD1999999-0301REMSYN011 333 59030;EQDQ01  00002PRCP99
0127823920999991999021412004-03700-040350FM-12+008399999V02099999999992200019N0200001N1+02841+02191101081ADDAA199000091GF104991041021004501001001KA1240N+02241MA1999999100061MD1999999-0091REMSYN017 333 20224 59009;EQDQ01  00002PRCP99
0127823920999991999021512004-03700-040350FM-12+008399999V02099999999990450019N0200001N1+02761+02191101021ADDAA199000091GF105991031021004501031001KA1240N+02161MA1999999100001MD1999999-0061REMSYN017 333 20216 59006;EQDQ01  00002PRCP99
0108823920999991999021518004-03700-040350FM-12+008399999V02099999999992200019N0200001N1+03441+01671100501ADDAA199000091GF103991031021004501001001MA1999999099501MD1999999-0151REMSYN011 333 59015;EQDQ01  00002PRCP99
0127823920999991999021612004-03700-040350FM-12+008399999V02099999999990042019N0200001N1+02821+02251100921ADDAA199000091GF106991051021004501031001KA1240N+02281MA1999999099901MD1999999-0081REMSYN017 333 20228 59008;EQDQ01  00002PRCP99
0108823920999991999021618004-03700-040350FM-12+008399999V02099999999990450019N0200001N1+03111+02201100461ADDAA199000091GF106991021051004501031011MA1999999099451MD1999999-0051REMSYN011 333 59005;EQDQ01  00002PRCP99
0127823920999991999021712004-03700-040350FM-12+008399999V02099999999990450019N0200001N1+02761+02301100941ADDAA199000091GF106991041051004501031001KA1240N+02261MA1999999099921MD1999999+0021REMSYN017 333 20226 58002;EQDQ01  00002PRCP99
0114823920999991999021812004-03700-040350FM-12+008399999V02099999999990450019N0200001N1+02671+02351101031ADDAA199003091GF107991041051004501011001KA1240N+02361MA1999999100011MD1999999+0091REMSYN023 333 20236 58009 60034;
0117823920999991999021818004-03700-040350FM-12+008399999V02099999999990450019N0200001N1+02841+02291100691ADDAA199002091AY161061AY261061GF108991031051004501021999MA1999999099671MD1999999+0011MW1021REMSYN017 333 58001 60021;
0114823920999991999021912004-03700-040350FM-12+008399999V02099999999990450019N0200001N1+02601+02421101081ADDAA199002091GF106991041051004501031001KA1240N+02141MA1999999100061MD1999999+0051REMSYN023 333 20214 58005 60021;
0108823920999991999021918004-03700-040350FM-12+008399999V02099999999992200019N0200001N1+03371+01971100601ADDAA199000091GF104991031021008001031001MA1999999099591MD1999999-0081REMSYN011 333 59008;EQDQ01  00002PRCP99
0143823920999991999022000004-03700-040350FM-12+008399999V02099999999992200019N9999999N1+02601+02231100891ADDAA199000091GA1001+999999999GF100991001001999999001001KA1240M+03421MA1999999099871MD1999999-0091REMSYN017 333 10342 59009;EQDQ01  00002PRCP99
0127823920999991999022012004-03700-040350FM-12+008399999V02099999999992200019N0200001N1+02701+02281101051ADDAA199000091GF104991011011004501031001KA1240N+02101MA1999999100031MD1999999-0031REMSYN017 333 20210 59003;EQDQ01  00002PRCP99
0108823920999991999022018004-03700-040350FM-12+008399999V02099999999992200019N0200001N1+03481+01471100611ADDAA199000091GF103991031021004501001001MA1999999099611MD1999999+0021REMSYN011 333 58002;EQDQ01  00002PRCP99
0143823920999991999022100004-03700-040350FM-12+008399999V02099999999992200019N9999999N1+02641+02141100891ADDAA199000091GA1001+999999999GF100991001001999999001001KA1240M+03501MA1999999099871MD1999999+0001REMSYN017 333 10350 58000;EQDQ01  00002PRCP99
0127823920999991999022112004-03700-040350FM-12+008399999V02099999999990450019N0200001N1+02831+02001101101ADDAA199000091GF105991031021004501011011KA1240N+02121MA1999999100081MD1999999+0051REMSYN017 333 20212 58005;EQDQ01  00002PRCP99
0108823920999991999022118004-03700-040350FM-12+008399999V02099999999992200019N0200001N1+03451+01841100571ADDAA199000091GF104991041021008001001001MA1999999099571MD1999999-0041REMSYN011 333 59004;EQDQ01  00002PRCP99
0136823920999991999022212004-03700-040350FM-12+008399999V02099999999990450019N0200001N1+02401+02351101111ADDAA199004191AY161061AY261061GF108991041061004501011999KA1240N+02261MA1999999100081MD1999999+0001MW1211REMSYN023 333 20226 58000 60044;
0089823920999991999022218004-03700-040350FM-12+008399999V02099999999999999999N0200001N1+02581+02381100741ADDAA199000021GF108991999999004501999999MA1999999099711MD1619999+0141REMSYN011 333 58014;
0136823920999991999022300004-03700-040350FM-12+008399999V02099999999990450019N9999999N1+02441+02301101001ADDAA199000591AY161061AY261061GF107991041061004501011001KA1240M+02781MA1999999099971MD1999999-0011MW1021REMSYN023 333 10278 59001 69961;
0136823920999991999022312004-03700-040350FM-12+008399999V02099999999990042019N0200001N1+02601+02331101051ADDAA199007991AY161061AY261061GF107991051051004501031001KA1240N+02241MA1999999100021MD1999999-0061MW1021REMSYN023 333 20224 59006 60084;
0117823920999991999022318004-03700-040350FM-12+008399999V02099999999990450019N0200001N1+02481+02321100811ADDAA199007991AY161061AY261061GF108991041061004501021999MA1999999099781MD1999999+0071MW1021REMSYN017 333 58007 60081;
0136823920999991999022400004-03700-040350FM-12+008399999V02099999999990450019N9999999N1+02421+02331101041ADDAA199003091AY161061AY261061GF108991031061004501011999KA1240M+02761MA1999999100011MD1999999+0041MW1021REMSYN023 333 10276 58004 60031;
0117823920999991999022418004-03700-040350FM-12+008399999V02099999999990450019N0200001N1+02461+02361100751ADDAA199007191AY161061AY221061GF108991041061004501021999MA1999999099721MD1999999-0061MW1021REMSYN017 333 59006 60071;
0114823920999991999022512004-03700-040350FM-12+008399999V02099999999990450019N0200001N1+02631+02231101071ADDAA199007191GF105991031021004501031001KA1240N+02201MA1999999100041MD1999999+0041REMSYN023 333 20220 58004 60074;
0117823920999991999022518004-03700-040350FM-12+008399999V02099999999990042019N0200001N1+02691+02411100721ADDAA199003091AY101061AY221061GF108991051021004501999999MA1999999099691MD1999999-0031MW1951REMSYN017 333 59003 60031;
0114823920999991999022612004-03700-040350FM-12+008399999V02099999999990450019N0200001N1+02621+02411101091ADDAA199015091GF108991031071004501021999KA1240N+02241MA1999999100061MD1999999+0021REMSYN023 333 20224 58002 60154;
0117823920999991999022618004-03700-040350FM-12+008399999V02099999999990042019N0200001N1+02341+02261100831ADDAA199017091AY161061AY261061GF107991061061004501011001MA1999999099801MD1999999+0111MW1531REMSYN017 333 58011 60171;
0133823920999991999022712004-03700-040350FM-12+008399999V02099999999999999999N0200001N1+02581+02531101061ADDAA199023191GF107991999051004501001001KA1240N+02221MA1999999100031MD1999999-0031REMSYN023 333 20222 59003 60234;EQDQ01+000042SCOTLC
0117823920999991999022718004-03700-040350FM-12+008399999V02099999999990450019N0200001N1+02831+02441100611ADDAA199000891AY161061AY261061GF107991041061004501011001MA1999999099591MD1999999+0211MW1021REMSYN017 333 58021 69971;
0114823920999991999022812004-03700-040350FM-12+008399999V02099999999992200019N0200001N1+02661+02391100981ADDAA199002091GF103991011011004501031001KA1240N+02261MA1999999099961MD1999999-0071REMSYN023 333 20226 59007 60024;
0117823920999991999022818004-03700-040350FM-12+008399999V02099999999990450019N0200001N1+02521+02431100561ADDAA199000891AY161061AY221061GF108991041061004501021999MA1999999099561MD1999999-0031MW1021REMSYN017 333 59003 69981;
0114823920999991999030112004-03700-040350FM-12+008399999V02099999999990450019N0200001N1+02701+02431100771ADDAA199000891GF108991031061004501021999KA1240N+02221MA1999999099751MD1999999-0211REMSYN023 333 20222 59021 69984;
0117823920999991999030118004-03700-040350FM-12+008399999V02099999999990450019N0200001N1+02601+02391100561ADDAA199000891AY151061AY221061GF108991041051004501021999MA1999999099541MD1999999-0021MW1021REMSYN017 333 59002 69971;
0136823920999991999030200004-03700-040350FM-12+008399999V02099999999990450019N9999999N1+02411+02331100721ADDAA199008991AY161061AY261061GF106991021051008001011001KA1240M+03061MA1999999099701MD1999999+0001MW1021REMSYN023 333 10306 58000 60091;
0114823920999991999030212004-03700-040350FM-12+008399999V02099999999990042019N0200001N1+02481+02431100931ADDAA199008991GF107991051051004501031001KA1240N+02181MA1999999099901MD1999999+0151REMSYN023 333 20218 58015 60094;
0117823920999991999030218004-03700-040350FM-12+008399999V02099999999990042019N0100001N1+02471+02391100711ADDAA199008991AY161061AY261061GF108991071061004501011999MA1999999099681MD1999999+0141MW1951REMSYN017 333 58014 60091;
0136823920999991999030300004-03700-040350FM-12+008399999V02099999999990450019N9999999N1+02361+02331100811ADDAA199042991AY161061AY261061GF107991041061004501011001KA1240M+02861MA1999999099781MD1999999+0081MW1021REMSYN023 333 10286 58008 60431;
0114823920999991999030312004-03700-040350FM-12+008399999V02099999999990450019N0200001N1+02621+02441101031ADDAA199051191GF106991041041004501031001KA1240N+02161MA1999999100001MD1999999+0101REMSYN023 333 20216 58010 60514;
0117823920999991999030318004-03700-040350FM-12+008399999V02099999999999999999N0200001N1+02301+02221100731ADDAA199000591AY151061AY221061GF108991041061004501999999MA1999999099701MD1999999+0021MW1021REMSYN017 333 58002 69951;
0108823920999991999030418004-03700-040350FM-12+008399999V0209999C000010450019N0200001N1+03171+02231100491ADDAA199000091GF106991021021008001011011MA1999999099481MD1999999-0221REMSYN011 333 59022;EQDQ01  00002PRCP99
0127823920999991999030500004-03700-040350FM-12+008399999V02099999999990450019N9999999N1+02441+02371100821ADDAA199000091GF105991031041004501031001KA1240M+03201MA1999999099801MD1999999-0081REMSYN017 333 10320 59008;EQDQ01  00002PRCP99
0143823920999991999030512004-03700-040350FM-12+008399999V0201401N050420042019N0200001N1+02661+02391100901ADDAA199000091GF106991051021004501031001KA1240N+02141MA1999999099881MD1999999-0091REMSYN017 333 20214 59009;EQDQ01+005043WOSPD Q02  00002PRCP99
0117823920999991999030518004-03700-040350FM-12+008399999V02099999999990042019N0040001N1+02461+02321100531ADDAA199000191AY151061AY251061GF107991051061004501031001MA1999999099521MD1999999+0041MW1021REMSYN017 333 58004 69921;
0114823920999991999030612004-03700-040350FM-12+008399999V02099999999990450019N0200001N1+02681+02391100811ADDAA199000191GF106991041041004501031001KA1240N+02101MA1999999099781MD1999999-0101REMSYN023 333 20210 59010 69924;
0108823920999991999030618004-03700-040350FM-12+008399999V02099999999990450019N0200001N1+02801+02271100451ADDAA199000091GF105991041041004501031001MA1999999099431MD1999999-0091REMSYN011 333 59009;EQDQ01  00002PRCP99
0114823920999991999030712004-03700-040350FM-12+008399999V02099999999990075019N0200001N1+02671+02291100801ADDAA199001091GF105991051021008001001001KA1240N+02121MA1999999099841MD1999999+0061REMSYN023 333 20212 58006 60014;
0108823920999991999030718004-03700-040350FM-12+008399999V02099999999992200019N0200001N1+03231+02111100421ADDAA199000091GF104991041021008001001001MA1999999099411MD1999999-0021REMSYN011 333 59002;EQDQ01  00002PRCP99
0127823920999991999030812004-03700-040350FM-12+008399999V02099999999990450019N0200001N1+02641+02371100921ADDAA199000091GF106991041051004501031001KA1240N+02241MA1999999099901MD1999999+0061REMSYN017 333 20224 58006;EQDQ01  00002PRCP99
0117823920999991999030818004-03700-040350FM-12+008399999V02099999999990450019N0200001N1+02901+02481100481ADDAA199001091AY161061AY261061GF107991031051004501011001MA1999999099471MD1999999+0061MW1611REMSYN017 333 58006 60011;
0108823920999991999030900004-03700-040350FM-12+008399999V02099999999990450019N9999999N1+02561+02351100801ADDAA199000021GF106991041051004501011001KA1240M+03181MA1999999099781MD1999999+0021REMSYN017 333 10318 58002;
0114823920999991999030912004-03700-040350FM-12+008399999V02099999999990450019N0200001N1+02701+02391100921ADDAA199001091GF105991021011004501031001KA1240N+02221MA1999999099901MD1999999+0001REMSYN023 333 20222 58000 60014;
0108823920999991999030918004-03700-040350FM-12+008399999V02099999999991050019N0200001N1+03111+02201100511ADDAA199000091GF106991021011008001001071MA1999999099501MD1999999+0031REMSYN011 333 58003;EQDQ01  00002PRCP99
0159823920999991999031000004-03700-040350FM-12+008399999V02099999999992200019N9999999N1+02481+02291999999ADDAA199000091GF101991011011008001001001KA1240M+03111MA1999999099681MD1999999-0101REMSYN017 333 10311 59010;EQDQ01+107083APOSLPQ02  00002PRCP99Q03 107083APOSLP
0127823920999991999031012004-03700-040350FM-12+008399999V02099999999990450019N0200001N1+02781+02251100971ADDAA199000091GF105991021011004501031001KA1240N+02221MA1999999099951MD1999999+0051REMSYN017 333 20222 58005;EQDQ01  00002PRCP99
0108823920999991999031018004-03700-040350FM-12+008399999V02099999999992200019N0200001N1+03161+02081100611ADDAA199000091GF104991011011004501031001MA1999999099601MD1999999+0101REMSYN011 333 58010;EQDQ01  00002PRCP99
0127823920999991999031112004-03700-040350FM-12+008399999V0209999C000010450019N0200001N1+02761+02421101081ADDAA199000091GF106991041041008001031001KA1240N+02161MA1999999100061MD1999999+0111REMSYN017 333 20216 58011;EQDQ01  00002PRCP99
0108823920999991999031118004-03700-040350FM-12+008399999V02099999999990450019N0200001N1+02791+02361100761ADDAA199000091GF107991041061004501011001MA1999999099741MD1999999+0141REMSYN011 333 58014;EQDQ01  00002PRCP99
0152823920999991999031200004-03700-040350FM-12+008399999V02099999999992200019N9999999N1+02481+02391100971ADDAA199011991AY121061AY261061GA1001+999999999GF100991001001999999001001KA1240M+03161MA1999999099951MD1999999+0091MW1021REMSYN023 333 10316 58009 60121;
0114823920999991999031212004-03700-040350FM-12+008399999V02099999999990450019N0200001N1+02701+02431101051ADDAA199011991GF106991041041004501031001KA1240N+02181MA1999999100031MD1999999-0031REMSYN023 333 20218 59003 60124;
0117823920999991999031218004-03700-040350FM-12+008399999V02099999999990042019N0200001N1+02341+02291100681ADDAA199014091AY161061AY261061GF107991061061004501011001MA1999999099651MD1999999-0091MW1651REMSYN017 333 59009 60141;
0108823920999991999031300004-03700-040350FM-12+008399999V02099999999990042019N9999999N1+02401+02331100951ADDAA199000021GF106991051051004501031001KA1240M+03081MA1999999099931MD1999999-0021REMSYN017 333 10308 59002;
0114823920999991999031312004-03700-040350FM-12+008399999V0209999C000010450019N0200001N1+02641+02391101071ADDAA199014091GF106991031041004501031001KA1240N+02241MA1999999100041MD1999999+0031REMSYN023 333 20224 58003 60144;
0124823920999991999031318004-03700-040350FM-12+008399999V02099999999990450019N0200001N1+02861+02461999999ADDAA199000091GF107991041061004501021001MA1999999099581MD1999999-0071REMSYN011 333 59007;EQDQ01+099593APOSLPQ02  00002PRCP99
0155823920999991999031400004-03700-040350FM-12+008399999V02099999999990042019N9999999N1+02311+02251100932ADDAA199027991AY161061AY261061GF108991051031004501999999KA1240M+03041MA1999999099901MD1999999-0031MW1021REMSYN023 333 10304 59003 60281;EQDQ01+100933APOSLP
0133823920999991999031412004-03700-040350FM-12+008399999V02099999999990042019N0200001N1+02521+02361101081ADDAA199027991GF107991999021004501001001KA1240N+02181MA1999999100051MD1999999+0011REMSYN023 333 20218 58001 60284;EQDQ01+000052SCOTLC
0124823920999991999031418004-03700-040350FM-12+008399999V02099999999999999999N0200001N1+02501+02401100731ADDAA199000091GF108991999021004501001001MA1999999099701MD1999999+0101REMSYN011 333 58010;EQDQ01+000042SCOTLCQ02  00002PRCP99
0127823920999991999031512004-03700-040350FM-12+008399999V02099999999990450019N0200001N1+02481+02321101161ADDAA199000091GF108991031051004501021999KA1240N+02141MA1999999100131MD1999999+0081REMSYN017 333 20214 58008;EQDQ01  00002PRCP99
0108823920999991999031518004-03700-040350FM-12+008399999V02099999999990450019N0200001N1+02821+02521100671ADDAA199000091GF108991041061004501021999MA1999999099651MD1999999-0051REMSYN011 333 59005;EQDQ01  00002PRCP99
0127823920999991999031600004-03700-040350FM-12+008399999V02099999999992200019N9999999N1+02461+02361100941ADDAA199000091GF103991031001008001031001KA1240M+02961MA1999999099911MD1999999-0141REMSYN017 333 10296 59014;EQDQ01  00002PRCP99
0136823920999991999031612004-03700-040350FM-12+008399999V02099999999990042019N0200001N1+02421+02321101011ADDAA199016091AY161061AY261061GF107991051051004501031001KA1240N+02121MA1999999099981MD1999999-0151MW1031REMSYN023 333 20212 59015 60164;
0108823920999991999031618004-03700-040350FM-12+008399999V02099999999990450019N0200001N1+02861+02311100601ADDAA199000091GF106991021051004501031011MA1999999099591MD1999999-0061REMSYN011 333 59006;EQDQ01  00002PRCP99
0127823920999991999031700004-03700-040350FM-12+008399999V02099999999990450019N9999999N1+02461+02361100851ADDAA199000091GF108991041051004501021999KA1240M+02961MA1999999099821MD1999999-0091REMSYN017 333 10296 59009;EQDQ01  00002PRCP99
0136823920999991999031712004-03700-040350FM-12+008399999V02099999999990450019N0200001N1+02461+02361100991ADDAA199011991AY161061AY261061GF108991041051004501011999KA1240N+02201MA1999999099961MD1999999-0021MW1031REMSYN023 333 20220 59002 60124;
0117823920999991999031718004-03700-040350FM-12+008399999V02099999999990450019N0200001N1+02601+02421100621ADDAA199002091AY161061AY261061GF107991041061004501011001MA1999999099601MD1999999+0011MW1021REMSYN017 333 58001 60021;
0136823920999991999031800004-03700-040350FM-12+008399999V02099999999992200019N9999999N1+02301+02251100811ADDAA199008991AY161061AY261061GF102991011021004501011001KA1240M+02981MA1999999099781MD1999999-0041MW1021REMSYN023 333 10298 59004 60091;
0136823920999991999031912004-03700-040350FM-12+008399999V02099999999990450019N0200001N1+02481+02301100931ADDAA199010991AY161061AY261061GF108991031061004501021999KA1240N+02181MA1999999099901MD1999999+0131MW1031REMSYN023 333 20218 58013 60114;
0114823920999991999032012004-03700-040350FM-12+008399999V02099999999990450019N0200001N1+02501+02341101051ADDAA199008991GF107991041041004501031001KA1240N+02201MA1999999100021MD1999999+0121REMSYN023 333 20220 58012 60094;
0117823920999991999032018004-03700-040350FM-12+008399999V02099999999990450019N0040001N1+02521+02421100791ADDAA199017091AY161061AY261061GF108991031061004501021999MA1999999099761MD1999999+0261MW1021REMSYN017 333 58026 60171;
0127823920999991999032100004-03700-040350FM-12+008399999V02099999999992200019N9999999N1+02341+02261101031ADDAA199000091GF103991031001004501031001KA1240M+02941MA1999999100001MD1999999+0101REMSYN017 333 10294 58010;EQDQ01  00002PRCP99
0114823920999991999032112004-03700-040350FM-12+008399999V02099999999990450019N0200001N1+02681+02411101071ADDAA199017091GF106991041041004501011001KA1240N+02121MA1999999100041MD1999999+0021REMSYN023 333 20212 58002 60174;
0117823920999991999032118004-03700-040350FM-12+008399999V02099999999990450019N0200001N1+03131+02361100701ADDAA199001091AY101061AY221061GF106991041061004501031001MA1999999099681MD1999999-0081MW1611REMSYN017 333 59008 60011;
0136823920999991999032200004-03700-040350FM-12+008399999V02099999999992200019N9999999N1+02441+02301100891ADDAA199000591AY151061AY251061GF102991011061004501031001KA1240M+03141MA1999999099871MD1999999-0131MW1021REMSYN023 333 10314 59013 69941;
0114823920999991999032212004-03700-040350FM-12+008399999V02099999999990450019N0200001N1+02581+02401101081ADDAA199001091GF107991041061004501011999KA1240N+02221MA1999999100051MD1999999+0011REMSYN023 333 20222 58001 60014;
0108823920999991999032218004-03700-040350FM-12+008399999V02099999999990450019N0200001N1+03141+02161100641ADDAA199000091GF106991031041004501031001MA1999999099631MD1999999-0051REMSYN011 333 59005;EQDQ01  00002PRCP99
0136823920999991999032300004-03700-040350FM-12+008399999V02099999999990042019N9999999N1+02361+02331101051ADDAA199024991AY161061AY261061GF108991051071004501021999KA1240M+03181MA1999999100021MD1999999+0151MW1971REMSYN023 333 10318 58015 60251;
0136823920999991999032312004-03700-040350FM-12+008399999V02099999999990450019N0200001N1+02521+02411101081ADDAA199035191AY161061AY261061GF108991041061004501021999KA1240N+02201MA1999999100051MD1999999+0001MW1021REMSYN023 333 20220 58000 60354;
0117823920999991999032318004-03700-040350FM-12+008399999V02099999999990450019N0200001N1+02561+02381100791ADDAA199005191AY161061AY261061GF107991041051004501011001MA1999999099761MD1999999+0131MW1021REMSYN017 333 58013 60051;
0117823920999991999032418004-03700-040350FM-12+008399999V02099999999990450019N0200001N1+02401+02331100881ADDAA199019191AY161061AY221061GF108991031071004501021999MA1999999099851MD1999999+0091MW1021REMSYN017 333 58009 60191;
0114823920999991999032512004-03700-040350FM-12+008399999V0209999C000010042019N0200001N1+02501+02311101191ADDAA199019191GF107991051041004501031001KA1240N+02181MA1999999100161MD1999999+0111REMSYN023 333 20218 58011 60194;
0117823920999991999032518004-03700-040350FM-12+008399999V02099999999990042019N0020001N1+02291+02231100851ADDAA199029091AY101061AY221061GF108991081061004501999999MA1999999099821MD1999999-0031MW1971REMSYN017 333 59003 60291;
0114823920999991999032612004-03700-040350FM-12+008399999V02099999999990450019N0200001N1+02641+02461101141ADDAA199033091GF107991041051004501031001KA1240N+02181MA1999999100111MD1999999-0051REMSYN023 333 20218 59005 60334;
0117823920999991999032618004-03700-040350FM-12+008399999V02099999999990450019N0200001N1+02521+02361100791ADDAA199010991AY161061AY261061GF106991041051004501031001MA1999999099761MD1999999-0061MW1021REMSYN017 333 59006 60111;
0136823920999991999032712004-03700-040350FM-12+008399999V0209999C000010042019N0200001N1+02501+99999101231ADDAA199029091AY151061AY251061GF107991061051004501031001KA1240N+02281MA1999999100171MD1999999+0061MW1021REMSYN023 333 20228 58006 60294;
0117823920999991999032718004-03700-040350FM-12+008399999V02099999999990042019N0200001N1+02461+02391100891ADDAA199001091AY101061AY221061GF108991051051004501001011MA1999999099861MD1999999+0101MW1611REMSYN017 333 58010 60011;
0114823920999991999032812004-03700-040350FM-12+008399999V02099999999990450019N0200001N1+02621+02231101131ADDAA199001091GF105991031021004501031001KA1240N+02221MA1999999100101MD1999999-0071REMSYN023 333 20222 59007 60014;
0117823920999991999032818004-03700-040350FM-12+008399999V02099999999990450019N0200001N1+02901+02371100621ADDAA199000891AY121061AY221061GF108991041061004501021001MA1999999099611MD1999999-0251MW1611REMSYN017 333 59025 69971;
0114823920999991999032912004-03700-040350FM-12+008399999V02099999999990450019N0200001N1+02641+02391101101ADDAA199000891GF106991041041004501031001KA1240N+02161MA1999999100071MD1999999-0031REMSYN023 333 20216 59003 69984;
0108823920999991999032918004-03700-040350FM-12+008399999V02099999999990450019N0200001N1+02601+99999100771ADDAA199000091GF105991041051004501031001MA1999999099741MD1999999+0131REMSYN011 333 58013;EQDQ01  00002PRCP99
0127823920999991999033000004-03700-040350FM-12+008399999V02099999999990450019N9999999N1+02371+02291100941ADDAA199000091GF105991021021008001031001KA1240M+03061MA1999999099911MD1999999-0031REMSYN017 333 10306 59003;EQDQ01  00002PRCP99
0127823920999991999033012004-03700-040350FM-12+008399999V02099999999990450019N0200001N1+02701+02431100981ADDAA199000091GF106991041051004501031001KA1240N+02201MA1999999099951MD1999999-0121REMSYN017 333 20220 59012;EQDQ01  00002PRCP99
0108823920999991999033018004-03700-040350FM-12+008399999V02099999999990450019N0200001N1+03141+02381100551ADDAA199000091GF106991041051004501031001MA1999999099541MD1999999-0201REMSYN011 333 59020;EQDQ01  00002PRCP99
0127823920999991999033112004-03700-040350FM-12+008399999V02099999999990450019N0200001N1+02781+02321101021ADDAA199000091GF106991041021004501031001KA1240N+02261MA1999999100001MD1999999+0051REMSYN017 333 20226 58005;EQDQ01  00002PRCP99
0108823920999991999033118004-03700-040350FM-12+008399999V02099999999992200019N0200001N1+03681+01471100301ADDAA199000091GF103991031011004501001001MA1999999099301MD1999999-0201REMSYN011 333 59020;EQDQ01  00002PRCP99
0143823920999991999040100004-03700-040350FM-12+008399999V02099999999992200019N9999999N1+02531+02331100971ADDAA199000091GF104991999011008001001001KA1240M+03101MA1999999099941MD1999999+0081REMSYN017 333 10310 58008;EQDQ01+000052SCOTLCQ02  00002PRCP99
0127823920999991999040112004-03700-040350FM-12+008399999V02099999999990450019N0200001N1+02681+02351101011ADDAA199000091GF106991041021004501031001KA1240N+02241MA1999999099991MD1999999-0011REMSYN017 333 20224 59001;EQDQ01  00002PRCP99
0108823920999991999040118004-03700-040350FM-12+008399999V02099999999992200019N0200001N1+03161+02291100691ADDAA199000091GF104991021021008001011011MA1999999099671MD1999999+0061REMSYN011 333 58006;EQDQ01  00002PRCP99
0127823920999991999040212004-03700-040350FM-12+008399999V02099999999990450019N0200001N1+02761+02361100981ADDAA199000091GF106991041021004501031001KA1240N+02121MA1999999099961MD1999999-0031REMSYN017 333 20212 59003;EQDQ01  00002PRCP99
0171823920999991999040312004-03700-040350FM-12+008399999V0200901N049920450019N0040001N1+02501+02411101511ADDAA199000591AY121061AY221061GF108991041071004501021999KA1240M+99999MA1999999100001MD1999999+0041MW1201REMSYN023 333 10226 58004 69964;EQDQ01+004993WOSPD Q02 +02262ATMX  
0108823920999991999040318004-03700-040350FM-12+008399999V0203601N050420042019N0200001N1+02491+02341100791ADDAA199000021GF108991061071004501021999MA1999999099761MD1999999+0061REMSYN011 333 58006;EQDQ01+005043WOSPD 
0114823920999991999040412004-03700-040350FM-12+008399999V0209999C000010450019N0200001N1+02491+02381101011ADDAA199000191GF107991041051004501031011KA1240N+02181MA1999999099981MD1999999-0021REMSYN023 333 20218 59002 69924;
0127823920999991999040500004-03700-040350FM-12+008399999V0209999C000012200019N9999999N1+02431+02301100921ADDAA199000091GF103991021021008001031001KA1240M+02991MA1999999099891MD1999999-0111REMSYN017 333 10299 59011;EQDQ01  00002PRCP99
0114823920999991999040512004-03700-040350FM-12+008399999V02099999999990450019N0200001N1+02481+02451101081ADDAA199005191GF108991031061004501021999KA1240N+02211MA1999999100051MD1999999+0071REMSYN023 333 20221 58007 60054;
0136823920999991999040600004-03700-040350FM-12+008399999V02099999999990450019N9999999N1+02321+99999100961ADDAA199000591AY151061AY251061GF106991041051004501021001KA1240M+02961MA1999999099931MD1999999+0041MW1021REMSYN023 333 10296 58004 69941;
0114823920999991999040612004-03700-040350FM-12+008399999V02099999999992200019N0200001N1+02741+02381101091ADDAA199014091GF104991031011004501031001KA1240N+02161MA1999999100071MD1999999+0021REMSYN023 333 20216 58002 60144;
0108823920999991999040618004-03700-040350FM-12+008399999V02099999999992200019N0200001N1+03091+02211100761ADDAA199000091GF103991021051008001031001MA1999999099741MD1999999-0061REMSYN011 333 59006;EQDQ01  00002PRCP99
0143823920999991999040700004-03700-040350FM-12+008399999V02099999999992200019N9999999N1+02431+02301101001ADDAA199000091GA1001+999999999GF100991001001999999001001KA1240M+03141MA1999999099981MD1999999+0051REMSYN017 333 10314 58005;EQDQ01  00002PRCP99
0127823920999991999040712004-03700-040350FM-12+008399999V02099999999992200019N0200001N1+02801+02311101151ADDAA199000091GF104991021011004501031001KA1240N+02181MA1999999100131MD1999999+0061REMSYN017 333 20218 58006;EQDQ01  00002PRCP99
0108823920999991999040718004-03700-040350FM-12+008399999V02099999999992200019N0200001N1+03061+01901100821ADDAA199000091GF103991021011004501031001MA1999999099801MD1999999+0061REMSYN011 333 58006;EQDQ01  00002PRCP99
0143823920999991999040800004-03700-040350FM-12+008399999V02099999999992200019N9999999N1+02331+02221101011ADDAA199000091GA1001+999999999GF100991001001999999001001KA1240M+03101MA1999999099991MD1999999+0011REMSYN017 333 10310 58001;EQDQ01  00002PRCP99
0108823920999991999040818004-03700-040350FM-12+008399999V02099999999992200019N0200001N1+03101+02181100731ADDAA199000091GF103991011011004501031001MA1999999099711MD1999999-0091REMSYN011 333 59009;EQDQ01  00002PRCP99
0127823920999991999040912004-03700-040350FM-12+008399999V02099999999992200019N0200001N1+02601+02421100971ADDAA199000091GF103991021021004501031001KA1240N+02161MA1999999099951MD1999999-0171REMSYN017 333 20216 59017;EQDQ01  00002PRCP99
0108823920999991999040918004-03700-040350FM-12+008399999V02099999999990450019N0200001N1+03211+02301100521ADDAA199000091GF106991041021008001031001MA1999999099511MD1999999-0201REMSYN011 333 59020;EQDQ01  00002PRCP99
0136823920999991999041000004-03700-040350FM-12+008399999V02099999999990450019N9999999N1+02301+02231100921ADDAA199029091AY161061AY261061GF106991041051004501031001KA1240M+03261MA1999999099891MD1999999+0021MW1031REMSYN023 333 10326 58002 60291;
0114823920999991999041012004-03700-040350FM-12+008399999V02099999999990450019N0200001N1+02651+02411101001ADDAA199029091GF106991041041004501031001KA1240N+02181MA1999999099971MD1999999+0021REMSYN023 333 20218 58002 60294;
0108823920999991999041018004-03700-040350FM-12+008399999V02099999999990450019N0200001N1+03091+02131100671ADDAA199000091GF106991021021008001031011MA1999999099651MD1999999+0141REMSYN011 333 58014;EQDQ01  00002PRCP99
0127823920999991999041100004-03700-040350FM-12+008399999V02099999999992200019N9999999N1+02521+02291101021ADDAA199000091GF102991021011008001001001KA1240M+03161MA1999999100001MD1999999+0111REMSYN017 333 10316 58011;EQDQ01  00002PRCP99
0127823920999991999041112004-03700-040350FM-12+008399999V02099999999990450019N0200001N1+02741+02361101201ADDAA199000091GF105991021011004501031001KA1240N+02221MA1999999100181MD1999999+0211REMSYN017 333 20222 58021;EQDQ01  00002PRCP99
0108823920999991999041118004-03700-040350FM-12+008399999V02099999999990450019N0200001N1+03001+02221100871ADDAA199000091GF106991041011004501031001MA1999999099851MD1999999+0201REMSYN011 333 58020;EQDQ01  00002PRCP99
0127823920999991999041200004-03700-040350FM-12+008399999V02099999999992200019N9999999N1+02521+02311101191ADDAA199000091GF101991011021004501001001KA1240M+03121MA1999999100161MD1999999+0161REMSYN017 333 10312 58016;EQDQ01  00002PRCP99
0127823920999991999041212004-03700-040350FM-12+008399999V02099999999990042019N0200001N1+02741+02471101321ADDAA199000091GF107991051051004501031001KA1240N+02181MA1999999100301MD1999999+0121REMSYN017 333 20218 58012;EQDQ01  00002PRCP99
0108823920999991999041218004-03700-040350FM-12+008399999V02099999999990450019N0200001N1+02601+02401100941ADDAA199000091GF108991041061004501021999MA1999999099911MD1999999+0061REMSYN011 333 58006;EQDQ01  00002PRCP99
0127823920999991999041300004-03700-040350FM-12+008399999V0209999C000010042019N9999999N1+02431+02321101251ADDAA199000091GF108991051061004501021001KA1240M+03181MA1999999100231MD1999999+0071REMSYN017 333 10318 58007;EQDQ01  00002PRCP99
0127823920999991999041312004-03700-040350FM-12+008399999V02099999999990450019N0200001N1+02621+02371101371ADDAA199000091GF106991041021004501031001KA1240N+02201MA1999999100341MD1999999+0041REMSYN017 333 20220 58004;EQDQ01  00002PRCP99
0117823920999991999041318004-03700-040350FM-12+008399999V02099999999990450019N0200001N1+02401+02351100921ADDAA199017091AY161061AY261061GF106991041061004501031001MA1999999099891MD1999999-0021MW1651REMSYN017 333 59002 60171;
0136823920999991999041400004-03700-040350FM-12+008399999V0209999C000010042019N9999999N1+02371+02291101191ADDAA199001091AY151061AY251061GF108991051061004501021999KA1240M+03071MA1999999100161MD1999999-0071MW1511REMSYN023 333 10307 59007 60011;
0114823920999991999041412004-03700-040350FM-12+008399999V02099999999990450019N0200001N1+02601+02391101221ADDAA199018091GF105991031011004501031001KA1240N+02101MA1999999100191MD1999999-0151REMSYN023 333 20210 59015 60184;
0117823920999991999041418004-03700-040350FM-12+008399999V02099999999990450019N0200001N1+02941+02451100821ADDAA199000591AY151061AY251061GF106991041041004501031001MA1999999099801MD1999999-0091MW1031REMSYN017 333 59009 69941;
0143823920999991999041500004-03700-040350FM-12+008399999V02099999999999999999N9999999N1+02441+02321101061ADDAA199000091GF106991999041008001001001KA1240M+03021MA1999999100031MD1999999-0131REMSYN017 333 10302 59013;EQDQ01+000042SCOTLCQ02  00002PRCP99
0114823920999991999041512004-03700-040350FM-12+008399999V02099999999992200019N0200001N1+02741+02381101091ADDAA199000591GF104991031021017501031001KA1240N+02231MA1999999100071MD1999999-0121REMSYN023 333 20223 59012 69944;
0117823920999991999041518004-03700-040350FM-12+008399999V02099999999990450019N0200001N1+02641+02351100741ADDAA199000891AY151061AY251061GF108991041061004501011999MA1999999099711MD1999999-0091MW1021REMSYN017 333 59009 69981;
0136823920999991999041600004-03700-040350FM-12+008399999V02099999999990450019N9999999N1+02321+02311100991ADDAA199000591AY151061AY251061GF105991021011004501031001KA1240M+03021MA1999999099971MD1999999-0061MW1021REMSYN023 333 10302 59006 69941;
0114823920999991999041612004-03700-040350FM-12+008399999V02099999999992200019N0200001N1+02761+02381101131ADDAA199001091GF104991011011004501031001KA1240N+02161MA1999999100111MD1999999+0041REMSYN023 333 20216 58004 60014;
0117823920999991999041618004-03700-040350FM-12+008399999V02099999999990450019N0200001N1+02901+02321100751ADDAA199002091AY101061AY221061GF106991041061004501031001MA1999999099731MD1999999+0021MW1631REMSYN017 333 58002 60021;
0155823920999991999041700004-03700-040350FM-12+008399999V02099999999992200019N9999999N1+02401+02311101061ADDAA199000191AY151061AY251061GF102991999021008001001001KA1240M+03181MA1999999100041MD1999999+0071MW1021REMSYN023 333 10318 58007 69921;EQDQ01+000032SCOTLC
0108823920999991999041718004-03700-040350FM-12+008399999V02099999999990450019N0200001N1+03061+02191100961ADDAA199000091GF106991041041004501031001MA1999999099941MD1999999+0211REMSYN011 333 58021;EQDQ01  00002PRCP99
0143823920999991999041800004-03700-040350FM-12+008399999V02099999999992200019N9999999N1+02451+02251101191ADDAA199000091GA1001+999999999GF100991001001999999001001KA1240M+03111MA1999999100171MD1999999+0131REMSYN017 333 10311 58013;EQDQ01  00002PRCP99
0127823920999991999041812004-03700-040350FM-12+008399999V02099999999992200019N0200001N1+02681+02261101271ADDAA199000091GF104991031041004501031001KA1240N+02061MA1999999100251MD1999999-0051REMSYN017 333 20206 59005;EQDQ01  00002PRCP99
0108823920999991999041818004-03700-040350FM-12+008399999V02099999999992200019N0200001N1+03141+02301100911ADDAA199000091GF103991031051008001001001MA1999999099891MD1999999-0051REMSYN011 333 59005;EQDQ01  00002PRCP99
0152823920999991999041900004-03700-040350FM-12+008399999V02099999999992200019N9999999N1+02421+02251101181ADDAA199000191AY151061AY251061GA1001+999999999GF100991001001999999001001KA1240M+03141MA1999999100161MD1999999-0011MW1021REMSYN023 333 10314 59001 69911;
0114823920999991999041912004-03700-040350FM-12+008399999V02099999999990450019N0200001N1+02741+02381101281ADDAA199000191GF105991041041004501031001KA1240N+02141MA1999999100261MD1999999+0011REMSYN023 333 20214 58001 69914;
0108823920999991999041918004-03700-040350FM-12+008399999V02099999999990450019N0200001N1+03081+02371100931ADDAA199000091GF106991031021004501031011MA1999999099911MD1999999+0021REMSYN011 333 58002;EQDQ01  00002PRCP99
0136823920999991999042000004-03700-040350FM-12+008399999V02099999999992200019N9999999N1+02381+02331101191ADDAA199018091AY161061AY261061GF102991011061004501031001KA1240M+03121MA1999999100171MD1999999+0011MW1021REMSYN023 333 10312 58001 60181;
0108823920999991999042018004-03700-040350FM-12+008399999V02099999999990450019N0200001N1+03161+02471100751ADDAA199000091GF106991031021004501011011MA1999999099731MD1999999-0181REMSYN011 333 59018;EQDQ01  00002PRCP99
0155823920999991999042100004-03700-040350FM-12+008399999V02099999999992200019N9999999N1+02351+02291101081ADDAA199018091AY161061AY261061GF104991999011004501001001KA1240M+03171MA1999999100051MD1999999-0121MW1021REMSYN023 333 10317 59012 60181;EQDQ01+000022SCOTLC
0114823920999991999042112004-03700-040350FM-12+008399999V02099999999990450019N0200001N1+02581+02381101221ADDAA199018091GF106991041051004501031001KA1240N+02161MA1999999100191MD1999999+0021REMSYN023 333 20216 58002 60184;
0117823920999991999042118004-03700-040350FM-12+008399999V02099999999990450019N0200001N1+02301+02231100911ADDAA199031091AY161061AY261061GF108991041051004501021999MA1999999099881MD1999999+0151MW1021REMSYN017 333 58015 60311;
0127823920999991999042200004-03700-040350FM-12+008399999V02099999999990450019N9999999N1+02361+02291101071ADDAA199000091GF106991021051004501011001KA1240M+03061MA1999999100041MD1999999-0011REMSYN017 333 10306 59001;EQDQ01  00002PRCP99
0114823920999991999042212004-03700-040350FM-12+008399999V02099999999990042019N0200001N1+02701+02461101221ADDAA199031091GF107991051041004501031001KA1240N+02241MA1999999100191MD1999999+0001REMSYN023 333 20224 58000 60314;
0108823920999991999042218004-03700-040350FM-12+008399999V02099999999990450019N0200001N1+03101+02361100791ADDAA199000091GF106991031051004501031021MA1999999099771MD1999999-0111REMSYN011 333 59011;EQDQ01  00002PRCP99
0127823920999991999042312004-03700-040350FM-12+008399999V02099999999992200019N0200001N1+02741+02321101221ADDAA199000091GF104991031021004501031001KA1240N+02221MA1999999100201MD1999999+0011REMSYN017 333 20222 58001;EQDQ01  00002PRCP99
0108823920999991999042318004-03700-040350FM-12+008399999V02099999999990150019N0200001N1+03041+02431100801ADDAA199000091GF106991051051017501031011MA1999999099781MD1999999+0011REMSYN011 333 58001;EQDQ01  00002PRCP99
0202823920999991999042412004-03700-040350FM-12+008399999V02099999999999999999N0200001N1+02611+02391101121ADDAA106000091GF107991999021004501001001KA1240N+02301MA1999999100101MD1999999-0101REMSYN076AAXX  24124 82392 32498 709// 10261 20239 30010 40112 84200 333 20230 59010;EQDQ01+000042SCOTLCQ02  00002PRCP06
0136823920999991999042418004-03700-040350FM-12+008399999V02099999999990042019N0200001N1+02761+02441100711ADDAA199000591AY161061AY261061GF107991999021004501001001MA1999999099691MD1999999-0091MW1521REMSYN017 333 59009 69941;EQDQ01+000052SCOTLC
0127823920999991999042500004-03700-040350FM-12+008399999V02099999999999999999N9999999N1+02421+02331100941ADDAA199000021GF108991999021004501001001KA1240M+02831MA1999999099911MD1999999+0111REMSYN017 333 10283 58011;EQDQ01+000042SCOTLC
0114823920999991999042512004-03700-040350FM-12+008399999V02099999999990450019N0200001N1+02641+02371101041ADDAA199000591GF105991041041004501031001KA1240N+02221MA1999999100011MD1999999-0091REMSYN023 333 20222 59009 69944;
0124823920999991999042518004-03700-040350FM-12+008399999V0203601N002619999999N0200001N1+02661+02481100641ADDAA199000091GF106991999021004501001001MA1999999099621MD1999999-0071REMSYN011 333 59007;EQDQ01+000042SCOTLCQ02  00002PRCP99
0127823920999991999042600004-03700-040350FM-12+008399999V02099999999990450019N9999999N1+02441+02351100941ADDAA199000091GF107991021061004501011001KA1240M+03121MA1999999099911MD1999999+0001REMSYN017 333 10312 58000;EQDQ01  00002PRCP99
0127823920999991999042612004-03700-040350FM-12+008399999V02099999999992200019N0200001N1+02681+02411101071ADDAA199000091GF104991011011004501031001KA1240N+02161MA1999999100051MD1999999+0041REMSYN017 333 20216 58004;EQDQ01  00002PRCP99
0117823920999991999042618004-03700-040350FM-12+008399999V02099999999990450019N0200001N1+02661+02391100691ADDAA199008991AY161061AY261061GF107991031051004501011001MA1999999099661MD1999999+0041MW1021REMSYN017 333 58004 60091;
0136823920999991999042700004-03700-040350FM-12+008399999V02099999999990450019N9999999N1+02451+02371100981ADDAA199002091AY161061AY261061GF108991041051004501021001KA1240M+02941MA1999999099961MD1999999+0051MW1021REMSYN023 333 10294 58005 60021;
0136823920999991999042712004-03700-040350FM-12+008399999V02099999999990450019N0200001N1+02661+02481101081ADDAA199010991AY161061AY251061GF107991031061004501011001KA1240N+02281MA1999999100061MD1999999+0011MW1031REMSYN023 333 20228 58001 60114;
0127823920999991999042800004-03700-040350FM-12+008399999V02099999999990450019N9999999N1+02521+02271101031ADDAA199000091GF107991031051004501031001KA1240M+02981MA1999999100011MD1999999+0051REMSYN017 333 10298 58005;EQDQ01  00002PRCP99
0114823920999991999042812004-03700-040350FM-12+008399999V02099999999990450019N0100001N1+02521+02421101131ADDAA199000591GF108991031061004501021999KA1240N+02241MA1999999100101MD1999999+0041REMSYN023 333 20224 58004 69944;
0155823920999991999042900004-03700-040350FM-12+008399999V02099999999990042019N9999999N1+02361+02331101081ADDAA199001091AY101061AY221061GF108991999021004501001001KA1240M+02881MA1999999100051MD1999999+0041MW1511REMSYN023 333 10288 58004 60011;EQDQ01+000052SCOTLC
0136823920999991999042912004-03700-040350FM-12+008399999V02099999999990042019N0200001N1+02401+02261101091ADDAA199005191AY161061AY261061GF108991061051004501011999KA1240N+02201MA1999999100061MD1999999-0041MW1021REMSYN023 333 20220 59004 60054;
0136823920999991999043000004-03700-040350FM-12+008399999V02099999999990450019N9999999N1+02281+02211100941ADDAA199001091AY161061AY251061GF106991031041004501031001KA1240M+02961MA1999999099911MD1999999-0141MW1031REMSYN023 333 10296 59014 60011;
0114823920999991999043012004-03700-040350FM-12+008399999V02099999999990042019N0200001N1+02421+02331101181ADDAA199007191GF107991051051004501031001KA1240N+02101MA1999999100151MD1999999+0091REMSYN023 333 20210 58009 60074;
0117823920999991999043018004-03700-040350FM-12+008399999V02099999999990450019N0200001N1+02561+02401100831ADDAA199011991AY161061AY261061GF107991041051004501011011MA1999999099801MD1999999+0021MW1021REMSYN017 333 58002 60121;
0127823920999991999050100004-03700-040350FM-12+008399999V0203601N001010450019N9999999N1+02321+02241101091ADDAA199000091GF106991041041004501031001KA1240M+02811MA1999999100061MD1999999+0151REMSYN017 333 10281 58015;EQDQ01  00002PRCP99
0136823920999991999050112004-03700-040350FM-12+008399999V0200901N001010450019N0100001N1+02461+02391101271ADDAA199015091AY151061AY251061GF108991041071004501021999KA1240N+02221MA1999999100241MD1999999+0091MW1021REMSYN023 333 20222 58009 60154;
0117823920999991999050118004-03700-040350FM-12+008399999V0200901N001510450019N0040001N1+02641+02461100971ADDAA199010991AY161061AY261061GF108991031061004501021999MA1999999099941MD1999999+0141MW1631REMSYN017 333 58014 60111;
0114823920999991999050312004-03700-040350FM-12+008399999V0200501N001510450019N0200001N1+02641+02351101181ADDAA199000191GF105991041011004501031001KA1240N+02061MA1999999100151MD1999999-0061REMSYN023 333 20206 59006 69924;
0108823920999991999050318004-03700-040350FM-12+008399999V0201801N002610450019N0200001N1+02961+02491100811ADDAA199000091GF106991041021004501031001MA1999999099791MD1999999-0061REMSYN011 333 59006;EQDQ01  00002PRCP99
0136823920999991999050400004-03700-040350FM-12+008399999V0209999C000010450019N9999999N1+02401+02331101071ADDAA199003091AY161061AY261061GF105991031051004501011001KA1240M+03101MA1999999100041MD1999999-0091MW1021REMSYN023 333 10310 59009 60031;
0114823920999991999050412004-03700-040350FM-12+008399999V0200901N002110450019N0200001N1+02601+02501101171ADDAA199003091GF107991041051004501031001KA1240N+02201MA1999999100141MD1999999-0011REMSYN023 333 20220 59001 60034;
0117823920999991999050418004-03700-040350FM-12+008399999V0202701N000510450019N0200001N1+02881+02501100751ADDAA199001091AY151061AY251061GF106991031021008001011011MA1999999099721MD1999999-0071MW1021REMSYN017 333 59007 60011;
0127823920999991999050500004-03700-040350FM-12+008399999V0203601N001010450019N9999999N1+02481+02321101071ADDAA199000091GF108991031051017501021001KA1240M+02931MA1999999100041MD1999999+0101REMSYN017 333 10293 58010;EQDQ01  00002PRCP99
0133823920999991999050512004-03700-040350FM-12+008399999V0201801N001510450019N0200001N1+02701+02111101141ADDAA199000891GF106991041061004501031001KA1240N+02241MA1999999999999MD1999999-0021REMSYN023 333 20224 59002 69984;EQDQ01 090123APOSP 
0136823920999991999050518004-03700-040350FM-12+008399999V0203201N001010450019N0200001N1+02301+02251100891ADDAA199024991AY161061AY261061GF108991041061004501021999MA1999999099862MD1999999+0141MW1021REMSYN017 333 58014 60251;EQDQ01+099863APOSP 
0127823920999991999050600004-03700-040350FM-12+008399999V0209999C000012200019N9999999N1+02371+02331101131ADDAA199000091GF102991011051008001011001KA1240M+03001MA1999999100101MD1999999+0061REMSYN017 333 10300 58006;EQDQ01  00002PRCP99
0114823920999991999050612004-03700-040350FM-12+008399999V0201801N000510450019N0200001N1+02541+02381101151ADDAA199024991GF106991031021004501011011KA1240N+02121MA1999999100121MD1999999+0001REMSYN023 333 20212 58000 60254;
0127823920999991999050700004-03700-040350FM-12+008399999V0203601N001012200019N9999999N1+02341+02311101031ADDAA199000091GF104991031021004501031001KA1240M+03101MA1999999100001MD1999999-0101REMSYN017 333 10310 59010;EQDQ01  00002PRCP99
0136823920999991999050712004-03700-040350FM-12+008399999V0209999C000010450019N0200001N1+02461+02431101231ADDAA199000191AY151061AY251061GF108991041061004501021999KA1240M+02441MA1999999100201MD1999999+0081MW1021REMSYN023 333 10244 58008 69924;
0117823920999991999050718004-03700-040350FM-12+008399999V0203201N000510042019N0040001N1+02321+02291100961ADDAA199042991AY161061AY261061GF108991061061004501021999MA1999999099931MD1999999+0231MW1651REMSYN017 333 58023 60431;
0136823920999991999050800004-03700-040350FM-12+008399999V0203201N001512200019N9999999N1+02281+02261101141ADDAA199003091AY161061AY261061GF104991031041004501031001KA1240M+02801MA1999999100111MD1999999+0111MW1021REMSYN023 333 10280 58011 60031;
0136823920999991999050812004-03700-040350FM-12+008399999V0209999C000010450019N0200001N1+02591+02331101021ADDAA199046091AY151061AY251061GF106991031021008001031001KA1240N+02161MA1999999100091MD1999999-0111MW1021REMSYN023 333 20216 59011 60464;
0108823920999991999050818004-03700-040350FM-12+008399999V0209999C000012200019N0200001N1+03071+02401100751ADDAA199000091GF104991021021008001011011MA1999999099731MD1999999-0201REMSYN011 333 59020;EQDQ01  00002PRCP99
0127823920999991999050912004-03700-040350FM-12+008399999V0200901N001010450019N0200001N1+02561+02531101131ADDAA199000091GF106991041021004501031001KA1240N+02261MA1999999100101MD1999999+0011REMSYN017 333 20226 58001;EQDQ01  00002PRCP99
0108823920999991999050918004-03700-040350FM-12+008399999V0203601N001510450019N0200001N1+02581+02481100831ADDAA199000091GF108991031041004501021001MA1999999099801MD1999999+0071REMSYN011 333 58007;EQDQ01  00002PRCP99
0152823920999991999051000004-03700-040350FM-12+008399999V0202701N000512200019N9999999N1+02401+02391101031ADDAA199000891AY151061AY251061GA1001+999999999GF100991001001999999001001KA1240M+02981MA1999999100001MD1999999+0001MW1021REMSYN023 333 10298 58000 69981;
0114823920999991999051012004-03700-040350FM-12+008399999V0201801N001510450019N0200001N1+02521+02491101151ADDAA199000891GF108991041061004501021999KA1240N+02161MA1999999100121MD1999999+0021REMSYN023 333 20216 58002 69984;
0117823920999991999051018004-03700-040350FM-12+008399999V0203201N001010450019N0200001N1+02461+02431100791ADDAA199017091AY161061AY261061GF108991031071004501021999MA1999999099761MD1999999-0041MW1021REMSYN017 333 59004 60171;
0127823920999991999051100004-03700-040350FM-12+008399999V0200501N005112200019N9999999N1+02411+02331101141ADDAA199000091GF104991041041004501001001KA1240M+02861MA1999999100101MD1999999+0101REMSYN017 333 10286 58010;EQDQ01  00002PRCP99
0114823920999991999051112004-03700-040350FM-12+008399999V0201401N001010450019N0200001N1+02421+02391101231ADDAA199017091GF108991041061004501021999KA1240N+02201MA1999999100201MD1999999+0081REMSYN023 333 20220 58008 60174;
0117823920999991999051118004-03700-040350FM-12+008399999V0203601N000510450019N0200001N1+02441+02341100831ADDAA199000191AY151061AY251061GF107991021051004501021001MA1999999099801MD1999999+0041MW1021REMSYN017 333 58004 69911;
0136823920999991999051200004-03700-040350FM-12+008399999V0209999C000010450019N9999999N1+02331+02291101231ADDAA199003091AY161061AY261061GF108991041061004501021999KA1240M+02761MA1999999100201MD1999999+0101MW1021REMSYN023 333 10276 58010 60031;
0136823920999991999051212004-03700-040350FM-12+008399999V0201401N001010450019N0200001N1+02581+02401101291ADDAA199004191AY151061AY251061GF105991041011004501031001KA1240N+02241MA1999999100261MD1999999+0061MW1031REMSYN023 333 20224 58006 60044;
0117823920999991999051218004-03700-040350FM-12+008399999V0200901N002610450019N0200001N1+02881+02371100821ADDAA199000391AY121061AY221061GF106991041041004501031001MA1999999099801MD1999999+0001MW1801REMSYN017 333 58000 69931;
0136823920999991999051300004-03700-040350FM-12+008399999V0209999C000010450019N9999999N1+02381+02231101211ADDAA199001091AY161061AY261061GF107991041061004501021001KA1240M+03121MA1999999100181MD1999999-0021MW1021REMSYN023 333 10312 59002 60011;
0114823920999991999051312004-03700-040350FM-12+008399999V0209999C000010042019N0200001N1+02631+02411101201ADDAA199002091GF106991061041004501001001KA1240N+02181MA1999999100171MD1999999-0091REMSYN023 333 20218 59009 60024;
0108823920999991999051318004-03700-040350FM-12+008399999V0203601N000510450019N0200001N1+03041+02331100781ADDAA199000091GF106991041051004501031001MA1999999099761MD1999999-0041REMSYN011 333 59004;EQDQ01  00002PRCP99
0114823920999991999051412004-03700-040350FM-12+008399999V0200901N001510450019N0200001N1+02701+02411101231ADDAA199000191GF105991031041004501031001KA1240N+02241MA1999999100201MD1999999+0031REMSYN023 333 20224 58003 69914;
0136823920999991999051500004-03700-040350FM-12+008399999V0203201N001010450019N9999999N1+02281+02251101211ADDAA199002091AY161061AY221061GF106991031051004501011001KA1240M+03221MA1999999100181MD1999999-0021MW1021REMSYN023 333 10322 59002 60021;
0114823920999991999051512004-03700-040350FM-12+008399999V0201801N002110450019N0200001N1+02481+02451101351ADDAA199002091GF108991041061004501021999KA1240N+02121MA1999999100321MD1999999+0121REMSYN023 333 20212 58012 60024;
0117823920999991999051518004-03700-040350FM-12+008399999V0201401N001510450019N0200001N1+02561+02461100971ADDAA199000591AY161061AY261061GF108991031071004501021999MA1999999099941MD1999999+0211MW1021REMSYN017 333 58021 69961;
0127823920999991999051600004-03700-040350FM-12+008399999V0203601N001012200019N9999999N1+02341+02311101181ADDAA199000091GF104991031041004501031001KA1240M+02641MA1999999100151MD1999999-0031REMSYN017 333 10264 59003;EQDQ01  00002PRCP99
0114823920999991999051612004-03700-040350FM-12+008399999V0200901N001010450019N0200001N1+02621+02371101141ADDAA199000591GF107991041041004501031001KA1240N+02241MA1999999100111MD1999999-0211REMSYN023 333 20224 59021 69964;
0108823920999991999051618004-03700-040350FM-12+008399999V0200901N001010450019N0200001N1+02841+02311100771ADDAA199000091GF106991041071008001031011MA1999999099751MD1999999-0191REMSYN011 333 59019;EQDQ01  00002PRCP99
0136823920999991999051700004-03700-040350FM-12+008399999V0201801N001010450019N9999999N1+02271+02211101121ADDAA199015091AY161061AY261061GF108991041041004501021999KA1240M+03031MA1999999100091MD1999999-0061MW1611REMSYN023 333 10303 59006 60151;
0136823920999991999051712004-03700-040350FM-12+008399999V0201401N001010450019N0200001N1+02461+02431101181ADDAA199025991AY161061AY261061GF106991041041004501031001KA1240N+02141MA1999999100151MD1999999+0041MW1031REMSYN023 333 20214 58004 60264;
0117823920999991999051718004-03700-040350FM-12+008399999V0203201N001010450019N0100001N1+02481+02431100901ADDAA199007191AY161061AY221061GF108991031061004501021999MA1999999099871MD1999999+0121MW1211REMSYN017 333 58012 60071;
0108823920999991999051800004-03700-040350FM-12+008399999V0200901N001010450019N9999999N1+02361+02311101101ADDAA199000021GF106991041061004501021001KA1240M+03011MA1999999100071MD1999999-0021REMSYN017 333 10301 59002;
0114823920999991999051812004-03700-040350FM-12+008399999V0203201N001010450019N0200001N1+02481+02451101151ADDAA199007191GF106991041051004501031001KA1240N+02221MA1999999100121MD1999999-0031REMSYN023 333 20222 59003 60074;
0108823920999991999051818004-03700-040350FM-12+008399999V0200901N001010450019N0200001N1+02931+02361100841ADDAA199000091GF106991041051008001031001MA1999999099821MD1999999-0051REMSYN011 333 59005;EQDQ01  00002PRCP99
0143823920999991999051900004-03700-040350FM-12+008399999V0201801N000512200019N9999999N1+02361+02131101201ADDAA199000091GF102991999011008001001001KA1240M+03061MA1999999100171MD1999999+0101REMSYN017 333 10306 58010;EQDQ01+000052SCOTLCQ02  00002PRCP99
0136823920999991999051912004-03700-040350FM-12+008399999V0200901N001012200019N0200001N1+02541+02441101231ADDAA199000191AY151061AY231061GF102991021011004501001001KA1240N+02061MA1999999100201MD1999999+0081MW1021REMSYN023 333 20206 58008 69924;
0108823920999991999051918004-03700-040350FM-12+008399999V0200901N001512200019N0200001N1+03001+02271100881ADDAA199000091GF104991041021004501001001MA1999999099861MD1999999+0041REMSYN011 333 58004;EQDQ01  00002PRCP99
0127823920999991999052000004-03700-040350FM-12+008399999V0200901N001012200019N9999999N1+02441+02341101081ADDAA199000091GF101991011001008001031001KA1240M+03081MA1999999100051MD1999999-0121REMSYN017 333 10308 59012;EQDQ01  00002PRCP99
0127823920999991999052012004-03700-040350FM-12+008399999V0200901N000512200019N0200001N1+02741+02381101221ADDAA199000091GF103991031021004501001001KA1240N+02111MA1999999100201MD1999999+0001REMSYN017 333 20211 58000;EQDQ01  00002PRCP99
0108823920999991999052018004-03700-040350FM-12+008399999V0200501N001012200019N0200001N1+03091+02291100811ADDAA199000091GF102991011011008001011001MA1999999099791MD1999999-0071REMSYN011 333 59007;EQDQ01  00002PRCP99
0143823920999991999052100004-03700-040350FM-12+008399999V0200501N002612200019N9999999N1+02401+02331101131ADDAA199000091GA1001+999999999GF100991001001999999001001KA1240M+03121MA1999999100111MD1999999+0061REMSYN017 333 10312 58006;EQDQ01  00002PRCP99
0127823920999991999052112004-03700-040350FM-12+008399999V0200901N001010450019N0200001N1+02701+02431101241ADDAA199000091GF105991041041004501031001KA1240N+02181MA1999999100221MD1999999+0021REMSYN017 333 20218 58002;EQDQ01  00002PRCP99
0108823920999991999052118004-03700-040350FM-12+008399999V0203201N000512200019N0200001N1+03171+02451100801ADDAA199000091GF104991031051008001011001MA1999999099781MD1999999-0011REMSYN011 333 59001;EQDQ01  00002PRCP99
0127823920999991999052200004-03700-040350FM-12+008399999V0203201N000512200019N9999999N1+02381+02311101181ADDAA199000091GF103991021011004501031001KA1240M+03201MA1999999100151MD1999999+0041REMSYN017 333 10320 58004;EQDQ01  00002PRCP99
0127823920999991999052212004-03700-040350FM-12+008399999V0209999C000010450019N0200001N1+02721+02391101191ADDAA199000091GF106991041041004501031001KA1240N+02181MA1999999100161MD1999999-0221REMSYN017 333 20218 59022;EQDQ01  00002PRCP99
0117823920999991999052218004-03700-040350FM-12+008399999V0209999C000010450019N0200001N1+02961+02511100751ADDAA199000891AY151061AY211061GF106991041021004501011011MA1999999099731MD1999999-0051MW1631REMSYN017 333 59005 69981;
0136823920999991999052300004-03700-040350FM-12+008399999V0209999C000012200019N9999999N1+02541+02331101221ADDAA199001091AY161061AY261061GF103991031021004501001001KA1240M+03081MA1999999100191MD1999999+0041MW1021REMSYN023 333 10308 58004 60011;
0114823920999991999052312004-03700-040350FM-12+008399999V0203601N000512200019N0200001N1+02501+02471101231ADDAA199002091GF102991021011004501001001KA1240N+02141MA1999999100201MD1999999+0041REMSYN023 333 20214 58004 60024;
0127823920999991999052400004-03700-040350FM-12+008399999V0203601N000512200019N9999999N1+02501+02431101151ADDAA199000091GF102991021011004501001001KA1240M+03151MA1999999100121MD1999999-0071REMSYN017 333 10315 59007;EQDQ01  00002PRCP99
0127823920999991999052412004-03700-040350FM-12+008399999V0200901N001010450019N0200001N1+02641+02391101301ADDAA199000091GF106991041041004501031001KA1240N+02201MA1999999100281MD1999999+0081REMSYN017 333 20220 58008;EQDQ01  00002PRCP99
0108823920999991999052418004-03700-040350FM-12+008399999V0200901N001512200019N0200001N1+03001+02271100941ADDAA199000091GF104991041021004501001001MA1999999099921MD1999999+0171REMSYN011 333 58017;EQDQ01  00002PRCP99
0127823920999991999052500004-03700-040350FM-12+008399999V0200901N000512200019N9999999N1+02411+02231101291ADDAA199000091GF101991011021008001001001KA1240M+03021MA1999999100261MD1999999+0141REMSYN017 333 10302 58014;EQDQ01  00002PRCP99
0127823920999991999052512004-03700-040350FM-12+008399999V0200901N001012200019N0200001N1+02601+02311101321ADDAA199000091GF102991021011004501001001KA1240N+02081MA1999999100291MD1999999+0011REMSYN017 333 20208 58001;EQDQ01  00002PRCP99
0127823920999991999052600004-03700-040350FM-12+008399999V0200901N001012200019N9999999N1+02361+02191101141ADDAA199000091GF103991031001008001031001KA1240M+03091MA1999999100111MD1999999-0151REMSYN017 333 10309 59015;EQDQ01  00002PRCP99
0127823920999991999052612004-03700-040350FM-12+008399999V0200901N001010450019N0200001N1+02641+02441101131ADDAA199000091GF106991041041004501031001KA1240N+02141MA1999999100101MD1999999-0141REMSYN017 333 20214 59014;EQDQ01  00002PRCP99
0108823920999991999052618004-03700-040350FM-12+008399999V0200901N001512200019N0200001N1+02981+02121100801ADDAA199000091GF103991031011004501001001MA1999999099781MD1999999-0081REMSYN011 333 59008;EQDQ01  00002PRCP99
0127823920999991999052700004-03700-040350FM-12+008399999V02099999999992200019N0500001N1+02461+02151101011ADDAA199000091GF104991041021008001001001KA1240M+03061MA1999999099991MD1999999-0121REMSYN017 333 10306 59012;EQDQ01  00002PRCP99
0127823920999991999052712004-03700-040350FM-12+008399999V0201801N002110450019N0200001N1+02701+02201101101ADDAA199000091GF106991011011008001031011KA1240N+02251MA1999999100081MD1999999-0021REMSYN017 333 20225 59002;EQDQ01  00002PRCP99
0108823920999991999052718004-03700-040350FM-12+008399999V0200901N004110450019N0200001N1+02771+02191100981ADDAA199000091GF107991041051008001031001MA1999999099961MD1999999+0181REMSYN011 333 58018;EQDQ01  00002PRCP99
0127823920999991999052800004-03700-040350FM-12+008399999V0202301N000512200019N9999999N1+02301+02201101141ADDAA199000091GF104991021011004501001011KA1240M+03101MA1999999100111MD1999999+0121REMSYN017 333 10310 58012;EQDQ01  00002PRCP99
0108823920999991999052818004-03700-040350FM-12+008399999V0201401N000512200019N0200001N1+03031+01921100951ADDAA199000091GF102991011011008001031001MA1999999099931MD1999999-0031REMSYN011 333 59003;EQDQ01  00002PRCP99
0143823920999991999052900004-03700-040350FM-12+008399999V0200501N000512200019N9999999N1+02261+02181101281ADDAA199000091GA1001+999999999GF100991001001999999001001KA1240M+03121MA1999999100251MD1999999+0141REMSYN017 333 10312 58014;EQDQ01  00002PRCP99
0127823920999991999052912004-03700-040350FM-12+008399999V0201801N001512200019N0200001N1+02521+02231101371ADDAA199000091GF103991011011004501031001KA1240N+02001MA1999999100341MD1999999+0041REMSYN017 333 20200 58004;EQDQ01  00002PRCP99
0108823920999991999052918004-03700-040350FM-12+008399999V0201401N001010450019N0200001N1+02701+02331101071ADDAA199000091GF108991031051004501021999MA1999999100041MD1999999+0111REMSYN011 333 58011;EQDQ01  00002PRCP99
0127823920999991999053000004-03700-040350FM-12+008399999V0200501N001012200019N9999999N1+02401+02371101231ADDAA199000091GF104991031021004501031001KA1240M+02801MA1999999100201MD1999999-0051REMSYN017 333 10280 59005;EQDQ01  00002PRCP99
0127823920999991999053012004-03700-040350FM-12+008399999V0200901N002110450019N0200001N1+02731+02301101121ADDAA199000091GF105991031021008001031001KA1240N+02181MA1999999100101MD1999999-0241REMSYN017 333 20218 59024;EQDQ01  00002PRCP99
0108823920999991999053018004-03700-040350FM-12+008399999V0201801N001012200019N0200001N1+03011+02221100771ADDAA199000091GF104991021011008001001011MA1999999099751MD1999999-0221REMSYN011 333 59022;EQDQ01  00002PRCP99
0127823920999991999053100004-03700-040350FM-12+008399999V0200501N001512200019N9999999N1+02521+02341101021ADDAA199000091GF103991011011008001011001KA1240M+03081MA1999999100001MD1999999-0101REMSYN017 333 10308 59010;EQDQ01  00002PRCP99
0127823920999991999053112004-03700-040350FM-12+008399999V0203601N001010450019N0200001N1+02701+02371101151ADDAA199000091GF105991041021004501031001KA1240N+02281MA1999999100131MD1999999+0031REMSYN017 333 20228 58003;EQDQ01  00002PRCP99
0108823920999991999053118004-03700-040350FM-12+008399999V0200501N001510450019N0200001N1+03121+02221100721ADDAA199000091GF106991041021004501031001MA1999999099701MD1999999-0021REMSYN011 333 59002;EQDQ01  00002PRCP99
0127823920999991999060100004-03700-040350FM-12+008399999V0203601N003610450019N9999999N1+02461+02321101041ADDAA199000091GF108991031061008001011001KA1240M+03201MA1999999100021MD1999999+0021REMSYN017 333 10320 58002;EQDQ01  00002PRCP99
0127823920999991999060112004-03700-040350FM-12+008399999V0203601N001010450019N0200001N1+02761+02381101221ADDAA199000091GF105991041021004501031001KA1240N+02241MA1999999100201MD1999999+0071REMSYN017 333 20224 58007;EQDQ01  00002PRCP99
0108823920999991999060118004-03700-040350FM-12+008399999V0200901N001010450019N0200001N1+03101+02341100881ADDAA199000091GF106991041051008001031001MA1999999099861MD1999999+0161REMSYN011 333 58016;EQDQ01  00002PRCP99
0127823920999991999060200004-03700-040350FM-12+008399999V0203601N001012200019N9999999N1+02401+02301101131ADDAA199000091GF102991021001008001031001KA1240M+03191MA1999999100111MD1999999+0091REMSYN017 333 10319 58009;EQDQ01  00002PRCP99
0127823920999991999060212004-03700-040350FM-12+008399999V0201401N001010450019N0200001N1+02571+02421101281ADDAA199000091GF106991041041004501031001KA1240N+02041MA1999999100251MD1999999+0051REMSYN017 333 20204 58005;EQDQ01  00002PRCP99
0108823920999991999060218004-03700-040350FM-12+008399999V0201401N001012200019N0200001N1+03101+02001100891ADDAA199000091GF103991031021004501001001MA1999999099871MD1999999+0011REMSYN011 333 58001;EQDQ01  00002PRCP99
0143823920999991999060300004-03700-040350FM-12+008399999V0200501N001012200019N9999999N1+02241+02011101141ADDAA199000091GA1001+999999999GF100991001001999999001001KA1240M+03141MA1999999100111MD1999999+0001REMSYN017 333 10314 58000;EQDQ01  00002PRCP99
0127823920999991999060312004-03700-040350FM-12+008399999V0202301N001012200019N0200001N1+02561+02271101221ADDAA199000091GF102991011011008001031001KA1240N+01951MA1999999100191MD1999999-0061REMSYN017 333 20195 59006;EQDQ01  00002PRCP99
0108823920999991999060318004-03700-040350FM-12+008399999V0209999C000012200019N0200001N1+03141+02001100831ADDAA199000091GF104991031021008001031001MA1999999099811MD1999999-0061REMSYN011 333 59006;EQDQ01  00002PRCP99
0143823920999991999060400004-03700-040350FM-12+008399999V0203601N000512200019N9999999N1+02541+02381101131ADDAA199000091GA1001+999999999GF100991001001999999001001KA1240M+03241MA1999999100111MD1999999+0001REMSYN017 333 10324 58000;EQDQ01  00002PRCP99
0127823920999991999060412004-03700-040350FM-12+008399999V0201401N001010450019N0200001N1+02661+02371101221ADDAA199000091GF106991041021004501031001KA1240N+02241MA1999999100201MD1999999+0011REMSYN017 333 20224 58001;EQDQ01  00002PRCP99
0117823920999991999060418004-03700-040350FM-12+008399999V0202701N001010450019N0200001N1+02631+02391100861ADDAA199008991AY161061AY261061GF106991031051004501031001MA1999999099831MD1999999+0021MW1021REMSYN017 333 58002 60091;
0136823920999991999060500004-03700-040350FM-12+008399999V0203201N000510450019N9999999N1+02301+02271101181ADDAA199009991AY161061AY261061GF106991041061004501031001KA1240M+03021MA1999999100151MD1999999+0041MW1021REMSYN023 333 10302 58004 60101;
0124823920999991999060518004-03700-040350FM-12+008399999V0201801N000512200019N0200001N1+03121+02331100821ADDAA199000091GF103991999021008001001001MA1999999099801MD1999999-0031REMSYN011 333 59003;EQDQ01+000012SCOTLCQ02  00002PRCP99
0143823920999991999060600004-03700-040350FM-12+008399999V0200501N000512200019N9999999N1+02361+02281101011ADDAA199000091GA1001+999999999GF100991001001999999001001KA1240M+03181MA1999999099981MD1999999-0171REMSYN017 333 10318 59017;EQDQ01  00002PRCP99
0127823920999991999060612004-03700-040350FM-12+008399999V0201401N003112200019N0010001N1+02561+02271101281ADDAA199000091GF101991011011004501001001KA1240N+02101MA1999999100251MD1999999-0011REMSYN017 333 20210 59001;EQDQ01  00002PRCP99
0108823920999991999060618004-03700-040350FM-12+008399999V0200501N001010450019N0200001N1+02821+02441100931ADDAA199000091GF107991041041004501021001MA1999999099901MD1999999+0101REMSYN011 333 58010;EQDQ01  00002PRCP99
0127823920999991999060700004-03700-040350FM-12+008399999V0200501N001512200019N9999999N1+02481+02431101131ADDAA199000091GF104991031021004501031001KA1240M+02961MA1999999100101MD1999999+0021REMSYN017 333 10296 58002;EQDQ01  00002PRCP99
0127823920999991999060712004-03700-040350FM-12+008399999V0202701N000512200019N0200001N1+02541+02311101261ADDAA199000091GF102991021011004501001001KA1240N+02001MA1999999100231MD1999999-0021REMSYN017 333 20200 59002;EQDQ01  00002PRCP99
0108823920999991999060718004-03700-040350FM-12+008399999V0200901N001012200019N0200001N1+03201+02031100801ADDAA199000091GF102991021011004501001001MA1999999099781MD1999999-0121REMSYN011 333 59012;EQDQ01  00002PRCP99
0143823920999991999060800004-03700-040350FM-12+008399999V0203601N003612200019N9999999N1+02501+02191101121ADDAA199000091GA1001+999999999GF100991001001999999001001KA1240M+03241MA1999999100101MD1999999+0001REMSYN017 333 10324 58000;EQDQ01  00002PRCP99
0127823920999991999060812004-03700-040350FM-12+008399999V0201401N001012200019N0200001N1+02521+02191101341ADDAA199000091GF101991011011004501001001KA1240N+01921MA1999999100311MD1999999+0081REMSYN017 333 20192 58008;EQDQ01  00002PRCP99
0143823920999991999060900004-03700-040350FM-12+008399999V0203601N001512200019N9999999N1+02361+02291101191ADDAA199000091GA1001+999999999GF100991001001999999001001KA1240M+03241MA1999999100161MD1999999+0061REMSYN017 333 10324 58006;EQDQ01  00002PRCP99
0127823920999991999060912004-03700-040350FM-12+008399999V0202301N001010450019N0200001N1+02621+02101101321ADDAA199000091GF105991031021004501031001KA1240N+02021MA1999999100291MD1999999-0021REMSYN017 333 20202 59002;EQDQ01  00002PRCP99
0108823920999991999060918004-03700-040350FM-12+008399999V0200901N001010450019N0200001N1+03091+02191100881ADDAA199000091GF106991021011008001031001MA1999999099861MD1999999+0021REMSYN011 333 58002;EQDQ01  00002PRCP99
0127823920999991999061000004-03700-040350FM-12+008399999V0200501N002112200019N9999999N1+02381+02151101291ADDAA199000091GF101991011011008001001001KA1240M+03141MA1999999100261MD1999999+0101REMSYN017 333 10314 58010;EQDQ01  00002PRCP99
0127823920999991999061100004-03700-040350FM-12+008399999V0203601N002112200019N9999999N1+02501+02311101211ADDAA199000091GF104991011021008001031001KA1240M+03121MA1999999100191MD1999999-0071REMSYN017 333 10312 59007;EQDQ01  00002PRCP99
0127823920999991999061112004-03700-040350FM-12+008399999V0200501N002110450019N0200001N1+02561+02271101261ADDAA199000091GF108991031051004501031001KA1240N+02181MA1999999100231MD1999999-0041REMSYN017 333 20218 59004;EQDQ01  00002PRCP99
0117823920999991999061118004-03700-040350FM-12+008399999V0201801N000510450019N0020001N1+02501+02411100961ADDAA199008991AY161061AY261061GF107991021041004501051001MA1999999099931MD1999999+0021MW1631REMSYN017 333 58002 60091;
0155823920999991999061200004-03700-040350FM-12+008399999V0203201N000519999999N9999999N1+02361+02331101201ADDAA199000591AY161061AY251061GF106991999051004501001001KA1240M+02881MA1999999100171MD1999999-0021MW1031REMSYN023 333 10288 59002 69941;EQDQ01+000042SCOTLC
0136823920999991999061212004-03700-040350FM-12+008399999V0202301N001012200019N0200001N1+02621+02231101341ADDAA199016091AY161061AY261061GF104991031011004501031001KA1240N+02101MA1999999100311MD1999999+0081MW1031REMSYN023 333 20210 58008 60164;
0108823920999991999061218004-03700-040350FM-12+008399999V0200501N002612200019N0200001N1+03061+01831100961ADDAA199000091GF101991011011004501001001MA1999999099941MD1999999+0011REMSYN011 333 58001;EQDQ01  00002PRCP99
0127823920999991999061300004-03700-040350FM-12+008399999V0200501N001512200019N9999999N1+02361+02191101191ADDAA199000091GF102991021001008001031001KA1240M+03141MA1999999100161MD1999999-0011REMSYN017 333 10314 59001;EQDQ01  00002PRCP99
0127823920999991999061312004-03700-040350FM-12+008399999V0201801N001012200019N0200001N1+02541+02211101351ADDAA199000091GF104991011011008001031001KA1240N+02061MA1999999100321MD1999999+0011REMSYN017 333 20206 58001;EQDQ01  00002PRCP99
0108823920999991999061318004-03700-040350FM-12+008399999V0201801N001010450019N0200001N1+02981+02281100961ADDAA199000091GF105991031061008001031001MA1999999099931MD1999999-0011REMSYN011 333 59001;EQDQ01  00002PRCP99
0127823920999991999061400004-03700-040350FM-12+008399999V0200501N001012200019N9999999N1+02421+02321101201ADDAA199000091GF102991021001008001031001KA1240M+03081MA1999999100171MD1999999+0011REMSYN017 333 10308 58001;EQDQ01  00002PRCP99
0127823920999991999061412004-03700-040350FM-12+008399999V0200501N002612200019N0200001N1+02561+02081101231ADDAA199000091GF101991011011004501001001KA1240N+01901MA1999999100201MD1999999-0121REMSYN017 333 20190 59012;EQDQ01  00002PRCP99
0108823920999991999061418004-03700-040350FM-12+008399999V0201801N001012200019N0200001N1+03161+01861100821ADDAA199000091GF103991021011004501031001MA1999999099801MD1999999-0131REMSYN011 333 59013;EQDQ01  00002PRCP99
0143823920999991999061500004-03700-040350FM-12+008399999V0203601N001512200019N9999999N1+02441+02301101091ADDAA199000091GA1001+999999999GF100991001001999999001001KA1240M+03191MA1999999100061MD1999999-0111REMSYN017 333 10319 59011;EQDQ01  00002PRCP99
0127823920999991999061512004-03700-040350FM-12+008399999V0201401N001012200019N0200001N1+02681+02201101171ADDAA199000091GF103991021011004501031001KA1240N+02021MA1999999100151MD1999999-0051REMSYN017 333 20202 59005;EQDQ01  00002PRCP99
0108823920999991999061518004-03700-040350FM-12+008399999V0209999C000012200019N0200001N1+03131+02081100741ADDAA199000091GF103991021021008001031001MA1999999099721MD1999999-0081REMSYN011 333 59008;EQDQ01  00002PRCP99
0143823920999991999061600004-03700-040350FM-12+008399999V0203601N002119999999N9999999N1+02471+02191101021ADDAA199000091GF106991999041004501001001KA1240M+03261MA1999999100001MD1999999-0061REMSYN017 333 10326 59006;EQDQ01+000042SCOTLCQ02  00002PRCP99
0127823920999991999061612004-03700-040350FM-12+008399999V0203201N000510450019N0200001N1+02541+02271101301ADDAA199000091GF105991031021004501031001KA1240N+02001MA1999999100271MD1999999+0121REMSYN017 333 20200 58012;EQDQ01  00002PRCP99
0108823920999991999061618004-03700-040350FM-12+008399999V0200501N002610450019N0200001N1+03121+01951100911ADDAA199000091GF105991041011004501031001MA1999999099891MD1999999+0171REMSYN011 333 58017;EQDQ01  00002PRCP99
0127823920999991999061700004-03700-040350FM-12+008399999V0203601N002612200019N9999999N1+02501+02171101151ADDAA199000091GF101991011001008001031001KA1240M+03201MA1999999100121MD1999999+0121REMSYN017 333 10320 58012;EQDQ01  00002PRCP99
0127823920999991999061712004-03700-040350FM-12+008399999V0201401N002610450019N0200001N1+02741+02301101301ADDAA199000091GF106991041021008001031001KA1240N+02161MA1999999100281MD1999999+0011REMSYN017 333 20216 58001;EQDQ01  00002PRCP99
0108823920999991999061718004-03700-040350FM-12+008399999V0200901N002610450019N0200001N1+03271+02111100941ADDAA199000091GF106991041041008001031001MA1999999099921MD1999999+0031REMSYN011 333 58003;EQDQ01  00002PRCP99
0143823920999991999061800004-03700-040350FM-12+008399999V0203601N002612200019N9999999N1+02501+02211101161ADDAA199000091GA1001+999999999GF100991001001999999001001KA1240M+03281MA1999999100141MD1999999+0021REMSYN017 333 10328 58002;EQDQ01  00002PRCP99
0127823920999991999061812004-03700-040350FM-12+008399999V0201401N003110450019N0200001N1+02661+02241101211ADDAA199000091GF106991041021004501031001KA1240N+01901MA1999999100191MD1999999-0091REMSYN017 333 20190 59009;EQDQ01  00002PRCP99
0108823920999991999061818004-03700-040350FM-12+008399999V0201401N000510450019N0200001N1+03201+01961100781ADDAA199000091GF105991041021008001031001MA1999999099761MD1999999+0161REMSYN011 333 58016;EQDQ01  00002PRCP99
0143823920999991999061900004-03700-040350FM-12+008399999V0200501N002612200019N9999999N1+02441+02191101021ADDAA199000091GA1001+999999999GF100991001001999999001001KA1240M+03281MA1999999100001MD1999999-0141REMSYN017 333 10328 59014;EQDQ01  00002PRCP99
0143823920999991999061912004-03700-040350FM-12+008399999V0200901N002619999999N0200001N1+02641+02231101151ADDAA199000091GF105991999021008001001001KA1240N+01921MA1999999100121MD1999999-0071REMSYN017 333 20192 59007;EQDQ01+000042SCOTLCQ02  00002PRCP99
0108823920999991999061918004-03700-040350FM-12+008399999V0200901N001512200019N0200001N1+03241+01861100701ADDAA199000091GF103991031011008001001001MA1999999099681MD1999999-0081REMSYN011 333 59008;EQDQ01  00002PRCP99
0143823920999991999062000004-03700-040350FM-12+008399999V0203601N001012200019N9999999N1+02331+02111101041ADDAA199000091GA1001+999999999GF100991001001999999001001KA1240M+03241MA1999999099981MD1999999-0021REMSYN017 333 10324 59002;EQDQ01  00002PRCP99
0127823920999991999062012004-03700-040350FM-12+008399999V0201401N001512200019N0200001N1+02681+02111101261ADDAA199000091GF101991011011004501001001KA1240N+01901MA1999999100231MD1999999+0111REMSYN017 333 20190 58011;EQDQ01  00002PRCP99
0108823920999991999062018004-03700-040350FM-12+008399999V0201401N001512200019N0200001N1+02901+02201100921ADDAA199000091GF102991021011004501001001MA1999999099891MD1999999+0211REMSYN011 333 58021;EQDQ01  00002PRCP99
0143823920999991999062100004-03700-040350FM-12+008399999V0203601N002612200019N9999999N1+02441+02281101121ADDAA199000091GA1001+999999999GF100991001001999999001001KA1240M+03161MA1999999100101MD1999999+0021REMSYN017 333 10316 58002;EQDQ01  00002PRCP99
0127823920999991999062112004-03700-040350FM-12+008399999V0201801N001012200019N0200001N1+02701+02031101321ADDAA199000091GF102991021011004501001001KA1240N+02041MA1999999100301MD1999999+0071REMSYN017 333 20204 58007;EQDQ01  00002PRCP99
0108823920999991999062118004-03700-040350FM-12+008399999V0201401N001012200019N0200001N1+03321+01481100821ADDAA199000091GF101991011011004501001001MA1999999099801MD1999999-0091REMSYN011 333 59009;EQDQ01  00002PRCP99
0143823920999991999062200004-03700-040350FM-12+008399999V0202601N001512200019N9999999N1+02531+02171101071ADDAA199000091GF103991999011008001001001KA1240M+03341MA1999999100051MD1999999-0051REMSYN017 333 10334 59005;EQDQ01+000022SCOTLCQ02  00002PRCP99
0127823920999991999062212004-03700-040350FM-12+008399999V0200901N001512200019N0200001N1+02661+02001101131ADDAA199000091GF102991021021004501001001KA1240N+02001MA1999999100111MD1999999-0191REMSYN017 333 20200 59019;EQDQ01  00002PRCP99
0108823920999991999062218004-03700-040350FM-12+008399999V0200501N001012200019N0200001N1+03241+01711100641ADDAA199000091GF104991041021008001001001MA1999999099631MD1999999-0171REMSYN011 333 59017;EQDQ01  00002PRCP99
0143823920999991999062300004-03700-040350FM-12+008399999V0203601N001012200019N9999999N1+02441+02031101011ADDAA199000091GA1001+999999999GF100991001001999999001001KA1240M+03341MA1999999099981MD1999999-0071REMSYN017 333 10334 59007;EQDQ01  00002PRCP99
0127823920999991999062312004-03700-040350FM-12+008399999V0201401N002612200019N0200001N1+02681+02111101261ADDAA199000091GF104991031021004501031001KA1240N+01981MA1999999100241MD1999999+0131REMSYN017 333 20198 58013;EQDQ01  00002PRCP99
0108823920999991999062318004-03700-040350FM-12+008399999V0200501N003110450019N0200001N1+03221+01731100831ADDAA199000091GF106991041021004501031001MA1999999099811MD1999999+0181REMSYN011 333 58018;EQDQ01  00002PRCP99
0143823920999991999062400004-03700-040350FM-12+008399999V0203601N002112200019N9999999N1+02461+01941101131ADDAA199000091GA1001+999999999GF100991001001999999001001KA1240M+03311MA1999999100111MD1999999+0131REMSYN017 333 10331 58013;EQDQ01  00002PRCP99
0127823920999991999062412004-03700-040350FM-12+008399999V0201401N001012200019N0200001N1+02681+02091101261ADDAA199000091GF102991011011008001011001KA1240N+01921MA1999999100241MD1999999+0001REMSYN017 333 20192 58000;EQDQ01  00002PRCP99
0108823920999991999062418004-03700-040350FM-12+008399999V0200501N000512200019N0200001N1+03341+01801100761ADDAA199000091GF102991021011008001001001MA1999999099741MD1999999-0071REMSYN011 333 59007;EQDQ01  00002PRCP99
0143823920999991999062500004-03700-040350FM-12+008399999V0200501N003612200019N9999999N1+02561+02381101181ADDAA199000091GA1001+999999999GF100991001001999999001001KA1240M+03361MA1999999100161MD1999999+0051REMSYN017 333 10336 58005;EQDQ01  00002PRCP99
0143823920999991999062512004-03700-040350FM-12+008399999V0202301N001012200019N0200001N1+02601+02391101291ADDAA199000091GF101991999041004501031001KA1240N+02001MA1999999100271MD1999999+0031REMSYN017 333 20200 58003;EQDQ01+000042SCOTLCQ02  00002PRCP99
0108823920999991999062518004-03700-040350FM-12+008399999V0200901N001510042019N0200001N1+03331+01891100811ADDAA199000091GF107991061061004501031001MA1999999099791MD1999999+0051REMSYN011 333 58005;EQDQ01  00002PRCP99
0143823920999991999062600004-03700-040350FM-12+008399999V0203601N001019999999N9999999N1+02571+02231101121ADDAA199000091GF107991999011008001001001KA1240M+03381MA1999999100101MD1999999-0161REMSYN017 333 10338 59016;EQDQ01+000022SCOTLCQ02  00002PRCP99
0127823920999991999062612004-03700-040350FM-12+008399999V0202301N001012200019N0200001N1+02701+02281101221ADDAA199000091GF103991021011004501031001KA1240N+02081MA1999999100201MD1999999-0071REMSYN017 333 20208 59007;EQDQ01  00002PRCP99
0108823920999991999062618004-03700-040350FM-12+008399999V0200501N003110450019N0200001N1+03261+02081100831ADDAA199000091GF105991041021004501031001MA1999999099811MD1999999+0021REMSYN011 333 58002;EQDQ01  00002PRCP99
0127823920999991999062700004-03700-040350FM-12+008399999V0203601N001010450019N9999999N1+02331+02201101101ADDAA199000091GF107991021061008001031001KA1240M+03281MA1999999100071MD1999999-0031REMSYN017 333 10328 59003;EQDQ01  00002PRCP99
0127823920999991999062712004-03700-040350FM-12+008399999V0201401N001011050019N0200001N1+02741+02211101261ADDAA199000091GF105991021021008001011011KA1240N+02181MA1999999100231MD1999999+0031REMSYN017 333 20218 58003;EQDQ01  00002PRCP99
0124823920999991999062718004-03700-040350FM-12+008399999V0201801N002119999999N0200001N1+03381+01661100771ADDAA199000091GF105991999021008001001001MA1999999099751MD1999999+0061REMSYN011 333 58006;EQDQ01+000032SCOTLCQ02  00002PRCP99
0127823920999991999062812004-03700-040350FM-12+008399999V0201401N003612200019N0200001N1+02681+02111101291ADDAA199000091GF101991011011004501001001KA1240N+02041MA1999999100271MD1999999+0041REMSYN017 333 20204 58004;EQDQ01  00002PRCP99
0108823920999991999062818004-03700-040350FM-12+008399999V0200901N002612200019N0200001N1+03401+01501100821ADDAA199000091GF101991011011004501001001MA1999999099801MD1999999+0051REMSYN011 333 58005;EQDQ01  00002PRCP99
0127823920999991999062912004-03700-040350FM-12+008399999V0200901N002612200019N0200001N1+02641+01901101221ADDAA199000091GF101991011011004501001001KA1240N+02001MA1999999100201MD1999999-0071REMSYN017 333 20200 59007;EQDQ01  00002PRCP99
0108823920999991999062918004-03700-040350FM-12+008399999V0201401N001012200019N0200001N1+03371+02561100801ADDAA199000091GF103991021011008001011001MA1999999099781MD1999999-0021REMSYN011 333 59002;EQDQ01  00002PRCP99
0143823920999991999063000004-03700-040350FM-12+008399999V0200501N003112200019N9999999N1+02501+02151101221ADDAA199000091GA1001+999999999GF100991001001999999001001KA1240M+03401MA1999999100201MD1999999+0121REMSYN017 333 10340 58012;EQDQ01  00002PRCP99
0127823920999991999063012004-03700-040350FM-12+008399999V0201401N002612200019N0200001N1+02661+02041101371ADDAA199000091GF103991031021004501001001KA1240N+01821MA1999999100351MD1999999+0151REMSYN017 333 20182 58015;EQDQ01  00002PRCP99
0108823920999991999063018004-03700-040350FM-12+008399999V0200901N002612200019N0200001N1+03301+01591100941ADDAA199000091GF103991031021004501001001MA1999999099921MD1999999+0141REMSYN011 333 58014;EQDQ01  00002PRCP99
0143823920999991999070100004-03700-040350FM-12+008399999V0203601N003612200019N9999999N1+02521+02271101171ADDAA199000091GA1001+999999999GF100991001001999999001001KA1240M+03381MA1999999100151MD1999999-0051REMSYN017 333 10338 59005;EQDQ01  00002PRCP99
0127823920999991999070112004-03700-040350FM-12+008399999V0201801N000510450019N0200001N1+02601+02121101321ADDAA199000091GF106991041021008001031001KA1240N+01901MA1999999100301MD1999999-0051REMSYN017 333 20190 59005;EQDQ01  00002PRCP99
0108823920999991999070118004-03700-040350FM-12+008399999V0201801N002112200019N0200001N1+03301+01681100831ADDAA199000091GF103991031021008001001001MA1999999099811MD1999999-0111REMSYN011 333 59011;EQDQ01  00002PRCP99
0127823920999991999070200004-03700-040350FM-12+008399999V0203601N001512200019N9999999N1+02531+01891101101ADDAA199000091GF102991021001008001031001KA1240M+03381MA1999999100081MD1999999-0081REMSYN017 333 10338 59008;EQDQ01  00002PRCP99
0127823920999991999070212004-03700-040350FM-12+008399999V0201801N001012200019N0200001N1+02561+02021101161ADDAA199000091GF102991021011008001001001KA1240N+01981MA1999999100141MD1999999-0161REMSYN017 333 20198 59016;EQDQ01  00002PRCP99
0108823920999991999070218004-03700-040350FM-12+008399999V0201801N002612200019N0200001N1+03421+01551100681ADDAA199000091GF102991021011008001001001MA1999999099661MD1999999-0151REMSYN011 333 59015;EQDQ01  00002PRCP99
0143823920999991999070300004-03700-040350FM-12+008399999V0200501N002612200019N9999999N1+02541+01951100971ADDAA199000091GA1001+999999999GF100991001001999999001001KA1240M+03441MA1999999099951MD1999999-0131REMSYN017 333 10344 59013;EQDQ01  00002PRCP99
0108823920999991999070318004-03700-040350FM-12+008399999V0201801N002112200019N0200001N1+03411+01641100731ADDAA199000091GF102991021011008001001001MA1999999099711MD1999999+0051REMSYN011 333 58005;EQDQ01  00002PRCP99
0143823920999991999070400004-03700-040350FM-12+008399999V0200501N001512200019N9999999N1+02521+01821101041ADDAA199000091GA1001+999999999GF100991001001999999001001KA1240M+03421MA1999999100021MD1999999+0071REMSYN017 333 10342 58007;EQDQ01  00002PRCP99
