0205827950999991999010100004-07220-035880FM-15+0560SBKG V0201001N004112200019N0112651N1+02301+01901999999ADDGA1021+003009999GF104991999999999999999999MA1101491999999MW1001REMMET111NEW METAR SBIL 010000Z 09010KT 9999 SCT020 BKN300 28/24 Q1011 METAR SBPL 010000Z 13005KT C A V O K 30/16 Q1009;EQDQ01+000000PRSWM2
0099827950999991999010101004-07220-035880FM-15+0560SBKG V0201001N005112200019N0112651N1+02301+02001999999ADDGA1021+003009999GF104991999999999999999999MA1101491999999MW1001REMMET005NEW ;EQDQ01+000000PRSWM2
0099827950999991999010102004-07220-035880FM-15+0560SBKG V0201001N004110030019N0112651N1+02301+02001999999ADDGA1071+003009999GF107991999999999999999999MA1101491999999MW1001REMMET005NEW ;EQDQ01+000000PRSWM2
0099827950999991999010103004-07220-035880FM-15+0560SBKG V0201001N006210030019N0112651N1+02201+02101999999ADDGA1071+003009999GF107991999999999999999999MA1101391999999MW1001REMMET005NEW ;EQDQ01+000000PRSWM2
0099827950999991999010105004-07220-035880FM-15+0560SBKG V0200901N004112200019N0112651N1+02101+02001999999ADDGA1021+003009999GF102991999999999999999999MA1101291999999MW1001REMMET005NEW ;EQDQ01+000000PRSWM2
0099827950999991999010106004-07220-035880FM-15+0560SBKG V0201001N004112200019N0112651N1+02101+02001999999ADDGA1021+003009999GF104991999999999999999999MA1101291999999MW1001REMMET005NEW ;EQDQ01+000000PRSWM2
0115827950999991999010107004-07220-035880FM-15+0560SBKG V0200901N003612200019N0112651N1+02101+02001999999ADDGA1021+002109999GA2021+003009999GF104991999999999999999999MA1101291999999MW1001REMMET005NEW ;EQDQ01+000000PRSWM2
0115827950999991999010108004-07220-035880FM-15+0560SBKG V0201001N003112200019N0112651N1+02101+02001999999ADDGA1021+001509999GA2021+003009999GF104991999999999999999999MA1101291999999MW1001REMMET005NEW ;EQDQ01+000000PRSWM2
0131827950999991999010109004-07220-035880FM-15+0560SBKG V0201001N003110039019N0050001N1+02101+02101999999ADDGA1021+000909999GA2071+003909999GF107991999999999999999999MA1101391999999MW1101REMMET005NEW ;EQDQ01+000003PRSWM1Q02    003PRSWM1
0115827950999991999010110004-07220-035880FM-15+0560SBKG V0201001N005112200019N0112651N1+02301+02001999999ADDGA1021+002409999GA2021+004509999GF104991999999999999999999MA1101391999999MW1001REMMET005NEW ;EQDQ01+000000PRSWM2
0099827950999991999010112004-07220-035880FM-15+0560SBKG V0201001N007212200019N0112651N1+02701+01801999999ADDGA1021+006009999GF104991999999999999999999MA1101491999999MW1001REMMET005NEW ;EQDQ01+000000PRSWM2
0099827950999991999010113004-07220-035880FM-15+0560SBKG V0201001N005112200019N0112651N1+02801+01601999999ADDGA1021+007509999GF102991999999999999999999MA1101491999999MW1001REMMET005NEW ;EQDQ01+000000PRSWM2
0099827950999991999010114004-07220-035880FM-15+0560SBKG V0201001N004112200019N0112651N1+03001+01501999999ADDGA1021+007509999GF102991999999999999999999MA1101391999999MW1001REMMET005NEW ;EQDQ01+000000PRSWM2
0099827950999991999010115004-07220-035880FM-15+0560SBKG V0201001N007212200019N0112651N1+03101+01501999999ADDGA1021+007509999GF104991999999999999999999MA1101291999999MW1001REMMET005NEW ;EQDQ01+000000PRSWM2
0099827950999991999010116004-07220-035880FM-15+0560SBKG V0201001N004112200019N0112651N1+03301+01501999999ADDGA1021+007509999GF104991999999999999999999MA1101191999999MW1001REMMET005NEW ;EQDQ01+000000PRSWM2
0099827950999991999010118004-07220-035880FM-15+0560SBKG V0201201N007212200019N0112651N1+03201+01601999999ADDGA1021+007509999GF104991999999999999999999MA1101081999999MW1001REMMET005NEW ;EQDQ01+000000PRSWM2
0099827950999991999010119004-07220-035880FM-15+0560SBKG V0201001N005112200019N0112651N1+03201+01601999999ADDGA1021+007509999GF104991999999999999999999MA1101021999999MW1001REMMET005NEW ;EQDQ01+000000PRSWM2
0099827950999991999010121004-07220-035880FM-15+0560SBKG V0201001N005112200019N0112651N1+02801+01801999999ADDGA1021+006009999GF102991999999999999999999MA1101191999999MW1001REMMET005NEW ;EQDQ01+000000PRSWM2
0099827950999991999010122004-07220-035880FM-15+0560SBKG V0201001N005112200019N0112651N1+02501+01901999999ADDGA1021+006009999GF102991999999999999999999MA1101191999999MW1001REMMET005NEW ;EQDQ01+000000PRSWM2
0115827950999991999010123004-07220-035880FM-15+0560SBKG V0201001N005112200019N0112651N1+02401+02001999999ADDGA1021+003909999GA2021+004809999GF104991999999999999999999MA1101291999999MW1001REMMET005NEW ;EQDQ01+000000PRSWM2
0099827950999991999010200004-07220-035880FM-15+0560SBKG V0200901N005712200019N0112651N1+02401+02001999999ADDGA1021+004509999GF104991999999999999999999MA1101391999999MW1001REMMET005NEW ;EQDQ01+000000PRSWM2
0131827950999991999010202004-07220-035880FM-15+0560SBKG V0201201N006212200019N0112651N1+02301+99999999999ADDGA1021+003009999GA2021+004509999GF104991999999999999999999MA1101291999999MW1001REMMET005NEW ;EQDQ01+000003ATOD  Q02+000000PRSWM2
0115827950999991999010203004-07220-035880FM-15+0560SBKG V0200901N005112200019N0112651N1+02301+02001999999ADDGA1021+003009999GA2021+004509999GF104991999999999999999999MA1101291999999MW1001REMMET005NEW ;EQDQ01+000000PRSWM2
0099827950999991999010205004-07220-035880FM-15+0560SBKG V0200901N004112200019N0112651N1+02201+02001999999ADDGA1021+003009999GF104991999999999999999999MA1101291999999MW1001REMMET005NEW ;EQDQ01+000000PRSWM2
0099827950999991999010206004-07220-035880FM-15+0560SBKG V0201001N005112200019N0112651N1+02201+02001999999ADDGA1021+002409999GF104991999999999999999999MA1101291999999MW1001REMMET005NEW ;EQDQ01+000000PRSWM2
0099827950999991999010208004-07220-035880FM-15+0560SBKG V0201101N004112200019N0112651N1+02101+02101999999ADDGA1021+002409999GF104991999999999999999999MA1101291999999MW1001REMMET005NEW ;EQDQ01+000000PRSWM2
0099827950999991999010209004-07220-035880FM-15+0560SBKG V0201101N004112200019N0112651N1+02101+02101999999ADDGA1021+002409999GF104991999999999999999999MA1101391999999MW1001REMMET005NEW ;EQDQ01+000000PRSWM2
0115827950999991999010210004-07220-035880FM-15+0560SBKG V0201001N005112200019N0112651N1+02301+02001999999ADDGA1021+003009999GA2021+004509999GF104991999999999999999999MA1101491999999MW1001REMMET005NEW ;EQDQ01+000000PRSWM2
0099827950999991999010211004-07220-035880FM-15+0560SBKG V0201001N005112200019N0112651N1+02501+01801999999ADDGA1021+004509999GF104991999999999999999999MA1101491999999MW1001REMMET005NEW ;EQDQ01+000000PRSWM2
0099827950999991999010212004-07220-035880FM-15+0560SBKG V0201001N005110060019N0112651N1+02701+01901999999ADDGA1071+006009999GF107991999999999999999999MA1101491999999MW1001REMMET005NEW ;EQDQ01+000000PRSWM2
0099827950999991999010214004-07220-035880FM-15+0560SBKG V0201201N005112200019N0112651N1+03001+01701999999ADDGA1021+006009999GF104991999999999999999999MA1101291999999MW1001REMMET005NEW ;EQDQ01+000000PRSWM2
0099827950999991999010215004-07220-035880FM-15+0560SBKG V0201301N005112200019N0112651N1+03101+01601999999ADDGA1021+006009999GF104991999999999999999999MA1101191999999MW1001REMMET005NEW ;EQDQ01+000000PRSWM2
0099827950999991999010216004-07220-035880FM-15+0560SBKG V0201201N004112200019N0112651N1+03201+01701999999ADDGA1021+007509999GF104991999999999999999999MA1101191999999MW1001REMMET005NEW ;EQDQ01+000000PRSWM2
0099827950999991999010218004-07220-035880FM-15+0560SBKG V0201201N007212200019N0112651N1+03101+01601999999ADDGA1021+009009999GF104991999999999999999999MA1101021999999MW1001REMMET005NEW ;EQDQ01+000000PRSWM2
0099827950999991999010219004-07220-035880FM-15+0560SBKG V0200701N006212200019N0112651N1+03101+01601999999ADDGA1021+009009999GF102991999999999999999999MA1101021999999MW1001REMMET005NEW ;EQDQ01+000000PRSWM2
0166827950999991999010300004-07220-035880SY-MT+0560SBKG V0200501N005712200019N0100001N1+02301+01871101041ADDAA199000091GF102991011011008001001011KA1240M+03131MA1101391094901MD1999999-0031MW1001REMSYN017 333 10313 59003;MET011NEW CAVOK ;EQDQ01+000000PRSWM2Q02  00002PRCP99
0099827950999991999010301004-07220-035880FM-15+0560SBKG V0200901N005112200019N0112651N1+02201+01901999999ADDGA1021+004509999GF104991999999999999999999MA1101391999999MW1001REMMET005NEW ;EQDQ01+000000PRSWM2
0099827950999991999010302004-07220-035880FM-15+0560SBKG V0201001N006212200019N0112651N1+02201+02001999999ADDGA1021+004509999GF104991999999999999999999MA1101391999999MW1001REMMET005NEW ;EQDQ01+000000PRSWM2
0099827950999991999010303004-07220-035880FM-15+0560SBKG V0200901N005112200019N0112651N1+02201+02001999999ADDGA1021+004509999GF104991999999999999999999MA1101291999999MW1001REMMET005NEW ;EQDQ01+000000PRSWM2
0099827950999991999010304004-07220-035880FM-15+0560SBKG V0201001N004112200019N0112651N1+02201+02101999999ADDGA1021+004509999GF104991999999999999999999MA1101291999999MW1001REMMET005NEW ;EQDQ01+000000PRSWM2
0099827950999991999010305004-07220-035880FM-15+0560SBKG V0201001N004112200019N0112651N1+02201+02101999999ADDGA1021+003009999GF104991999999999999999999MA1101291999999MW1001REMMET005NEW ;EQDQ01+000000PRSWM2
0099827950999991999010306004-07220-035880FM-15+0560SBKG V0201201N004112200019N0112651N1+02201+02101999999ADDGA1021+003009999GF104991999999999999999999MA1101191999999MW1001REMMET005NEW ;EQDQ01+000000PRSWM2
0099827950999991999010307004-07220-035880FM-15+0560SBKG V0201201N003110030019N0112651N1+02201+02101999999ADDGA1071+003009999GF107991999999999999999999MA1101291999999MW1001REMMET005NEW ;EQDQ01+000000PRSWM2
0099827950999991999010308004-07220-035880FM-15+0560SBKG V0201201N003110030019N0112651N1+02101+02101999999ADDGA1071+003009999GF107991999999999999999999MA1101291999999MW1001REMMET005NEW ;EQDQ01+000000PRSWM2
0115827950999991999010309004-07220-035880FM-15+0560SBKG V0201001N004112200019N0112651N1+02201+02101999999ADDGA1021+002409999GA2021+003609999GF104991999999999999999999MA1101291999999MW1001REMMET005NEW ;EQDQ01+000000PRSWM2
0099827950999991999010310004-07220-035880FM-15+0560SBKG V0200901N005110048019N0112651N1+02401+02001999999ADDGA1071+004809999GF107991999999999999999999MA1101391999999MW1001REMMET005NEW ;EQDQ01+000000PRSWM2
0176827950999991999010312004-07220-035880SY-MT+0560SBKG V0200501N003612200019N0100001N1+02521+01771101111ADDAA199000091GA1021+007509999GF106991041021008001001011KA1240N+02131MA1101391094971MD1999999-0031MW1001REMSYN017 333 20213 59003;MET005NEW ;EQDQ01+000000PRSWM2Q02  00002PRCP99
0099827950999991999010313004-07220-035880FM-15+0560SBKG V0201001N006212200019N0112651N1+02801+01701999999ADDGA1021+009009999GF104991999999999999999999MA1101391999999MW1001REMMET005NEW ;EQDQ01+000000PRSWM2
0099827950999991999010314004-07220-035880FM-15+0560SBKG V0201001N007212200019N0112651N1+03101+01701999999ADDGA1021+009909999GF104991999999999999999999MA1101291999999MW1001REMMET005NEW ;EQDQ01+000000PRSWM2
0099827950999991999010315004-07220-035880FM-15+0560SBKG V0201001N006212200019N0112651N1+03101+01601999999ADDGA1021+009909999GF102991999999999999999999MA1101291999999MW1001REMMET005NEW ;EQDQ01+000000PRSWM2
0099827950999991999010316004-07220-035880FM-15+0560SBKG V0201001N005112200019N0112651N1+03201+01601999999ADDGA1021+009909999GF104991999999999999999999MA1101191999999MW1001REMMET005NEW ;EQDQ01+000000PRSWM2
0099827950999991999010317004-07220-035880FM-15+0560SBKG V0200901N005112200019N0112651N1+03201+01701999999ADDGA1021+009909999GF104991999999999999999999MA1101081999999MW1001REMMET005NEW ;EQDQ01+000000PRSWM2
0099827950999991999010318004-07220-035880FM-15+0560SBKG V0201001N006212200019N0112651N1+03201+01701999999ADDGA1021+009909999GF104991999999999999999999MA1101081999999MW1001REMMET005NEW ;EQDQ01+000000PRSWM2
0099827950999991999010319004-07220-035880FM-15+0560SBKG V0200901N006212200019N0112651N1+03101+01701999999ADDGA1021+009009999GF102991999999999999999999MA1101081999999MW1001REMMET005NEW ;EQDQ01+000000PRSWM2
0063827950999991999010320004-07220-035880FM-15+0560SBKG V0200901N00621220001CN0099001N1+02901+01801999999ADDMA1101191999999MW1001REMMET011NEW CAVOK ;EQDQ01+000000PRSWM2
0063827950999991999010321004-07220-035880FM-15+0560SBKG V0200901N00621220001CN0099001N1+02701+01801999999ADDMA1101191999999MW1001REMMET011NEW CAVOK ;EQDQ01+000000PRSWM2
0063827950999991999010322004-07220-035880FM-15+0560SBKG V0200901N00511220001CN0099001N1+02501+01801999999ADDMA1101191999999MW1001REMMET011NEW CAVOK ;EQDQ01+000000PRSWM2
0063827950999991999010323004-07220-035880FM-15+0560SBKG V0201001N00511220001CN0099001N1+02401+01801999999ADDMA1101291999999MW1001REMMET011NEW CAVOK ;EQDQ01+000000PRSWM2
0063827950999991999010401004-07220-035880FM-15+0560SBKG V0201001N00511220001CN0099001N1+02201+01901999999ADDMA1101391999999MW1001REMMET011NEW CAVOK ;EQDQ01+000000PRSWM2
0115827950999991999010402004-07220-035880FM-15+0560SBKG V0201001N005110900019N0112651N1+02201+02001999999ADDGA1021+003609999GA2071+090009999GF107991999999999999999999MA1101391999999MW1001REMMET005NEW ;EQDQ01+000000PRSWM2
0115827950999991999010403004-07220-035880FM-15+0560SBKG V0201001N004110900019N0112651N1+02201+02001999999ADDGA1021+003009999GA2071+090009999GF107991999999999999999999MA1101291999999MW1001REMMET005NEW ;EQDQ01+000000PRSWM2
0099827950999991999010404004-07220-035880FM-15+0560SBKG V0201001N004112200019N0112651N1+02201+02001999999ADDGA1021+003009999GF104991999999999999999999MA1101291999999MW1001REMMET005NEW ;EQDQ01+000000PRSWM2
0099827950999991999010405004-07220-035880FM-15+0560SBKG V0200901N004110030019N0112651N1+02101+02001999999ADDGA1071+003009999GF107991999999999999999999MA1101191999999MW1001REMMET005NEW ;EQDQ01+000000PRSWM2
0099827950999991999010406004-07220-035880FM-15+0560SBKG V0201201N003110027019N0112651N1+02201+02101999999ADDGA1071+002709999GF107991999999999999999999MA1101191999999MW1001REMMET005NEW ;EQDQ01+000000PRSWM2
0105827950999991999010407004-07220-035880FM-15+0560SBKG V0201201N00261220001CN0112651N1+02101+02001999999ADDGA1071+001809999GA2021+003009999MA1101191999999MW1001REMMET005NEW ;EQDQ01+000042SCOTCVQ02+000000PRSWM2
0115827950999991999010408004-07220-035880FM-15+0560SBKG V0201001N003110030019N0112651N1+02101+02001999999ADDGA1021+001809999GA2071+003009999GF107991999999999999999999MA1101291999999MW1001REMMET005NEW ;EQDQ01+000000PRSWM2
0147827950999991999010409004-07220-035880FM-15+0560SBKG V0201001N003610030019N0080001N1+02201+02101999999ADDGA1021+002109999GA2071+003009999GF107991999999999999999999MA1999999999999MW1001REMMET005NEW ;EQDQ01+101803APOA  Q02+000000PRSWM2Q03 101803APOA  
0115827950999991999010410004-07220-035880FM-15+0560SBKG V0201001N003610039019N0112651N1+02301+02101999999ADDGA1071+003909999GF107991999999999999999999MA1101292999999MW1001REMMET005NEW ;EQDQ01+101293APOA  Q02+000000PRSWM2
0099827950999991999010411004-07220-035880FM-15+0560SBKG V0201001N004610045019N0112651N1+02401+02001999999ADDGA1071+004509999GF107991999999999999999999MA1101391999999MW1001REMMET005NEW ;EQDQ01+000000PRSWM2
0176827950999991999010412004-07220-035880SY-MT+0560SBKG V0200901N004610060019N0100001N1+02571+01811101061ADDAA199000091GA1071+006009999GF107991061021008001001001KA1240N+02121MA1101391094921MD1999999-0051MW1001REMSYN017 333 20212 59005;MET005NEW ;EQDQ01+000000PRSWM2Q02  00002PRCP99
0099827950999991999010413004-07220-035880FM-15+0560SBKG V0201001N006210075019N0112651N1+02801+01801999999ADDGA1071+007509999GF107991999999999999999999MA1101391999999MW1001REMMET005NEW ;EQDQ01+000000PRSWM2
0099827950999991999010414004-07220-035880FM-15+0560SBKG V0201001N006212200019N0112651N1+03001+01801999999ADDGA1021+009009999GF104991999999999999999999MA1101291999999MW1001REMMET005NEW ;EQDQ01+000000PRSWM2
0115827950999991999010415004-07220-035880FM-15+0560SBKG V0201001N005112200019N0112651N1+03001+01801999999ADDGA1021+009009999GA2021+090009999GF104991999999999999999999MA1101191999999MW1001REMMET005NEW ;EQDQ01+000000PRSWM2
0099827950999991999010416004-07220-035880FM-15+0560SBKG V0200901N005112200019N0112651N1+03201+01701999999ADDGA1021+009009999GF102991999999999999999999MA1101081999999MW1001REMMET005NEW ;EQDQ01+000000PRSWM2
0099827950999991999010417004-07220-035880FM-15+0560SBKG V0201001N006712200019N0112651N1+03201+01601999999ADDGA1021+009009999GF102991999999999999999999MA1101081999999MW1001REMMET005NEW ;EQDQ01+000000PRSWM2
0157827950999991999010418004-07220-035880SY-MT+0560SBKG V0200901N006212200019N0100001N1+03091+01701100711ADDAA199000091GA1021+009009999GF103991031021008001001001MA1101021094631MD1999999+0031MW1001REMSYN011 333 58003;MET005NEW ;EQDQ01+000000PRSWM2Q02  00002PRCP99
0099827950999991999010419004-07220-035880FM-15+0560SBKG V0200901N005112200019N0112651N1+03101+01801999999ADDGA1021+009009999GF102991999999999999999999MA1101021999999MW1001REMMET005NEW ;EQDQ01+000000PRSWM2
0099827950999991999010420004-07220-035880FM-15+0560SBKG V0201101N007212200019N0112651N1+02901+01801999999ADDGA1021+009009999GF102991999999999999999999MA1101081999999MW1001REMMET005NEW ;EQDQ01+000000PRSWM2
0099827950999991999010421004-07220-035880FM-15+0560SBKG V0201001N007212200019N0112651N1+02701+01801999999ADDGA1021+009009999GF102991999999999999999999MA1101191999999MW1001REMMET005NEW ;EQDQ01+000000PRSWM2
0099827950999991999010422004-07220-035880FM-15+0560SBKG V0201001N007212200019N0112651N1+02501+02001999999ADDGA1021+006009999GF102991999999999999999999MA1101291999999MW1001REMMET005NEW ;EQDQ01+000000PRSWM2
0099827950999991999010423004-07220-035880FM-15+0560SBKG V0201001N006212200019N0112651N1+02401+02001999999ADDGA1021+006009999GF102991999999999999999999MA1101291999999MW1001REMMET005NEW ;EQDQ01+000000PRSWM2
0176827950999991999010500004-07220-035880SY-MT+0560SBKG V0200901N005712200019N0100001N1+02351+01971101011ADDAA199000091GA1021+004509999GF102991021011008001001001KA1240M+03191MA1101291094881MD1999999-0011MW1001REMSYN017 333 10319 59001;MET005NEW ;EQDQ01+000000PRSWM2Q02  00002PRCP99
0099827950999991999010502004-07220-035880FM-15+0560SBKG V0201001N005112200019N0112651N1+02301+02101999999ADDGA1021+003609999GF102991999999999999999999MA1101291999999MW1001REMMET005NEW ;EQDQ01+000000PRSWM2
0099827950999991999010503004-07220-035880FM-15+0560SBKG V0201001N005110036019N0112651N1+02301+02101999999ADDGA1071+003609999GF107991999999999999999999MA1101291999999MW1001REMMET005NEW ;EQDQ01+000000PRSWM2
0099827950999991999010504004-07220-035880FM-15+0560SBKG V0200901N005110036019N0112651N1+02201+02101999999ADDGA1071+003609999GF107991999999999999999999MA1101291999999MW1001REMMET005NEW ;EQDQ01+000000PRSWM2
0099827950999991999010505004-07220-035880FM-15+0560SBKG V0201001N004110036019N0112651N1+02201+02101999999ADDGA1071+003609999GF107991999999999999999999MA1101191999999MW1001REMMET005NEW ;EQDQ01+000000PRSWM2
0099827950999991999010506004-07220-035880FM-15+0560SBKG V0201001N005110036019N0112651N1+02201+02101999999ADDGA1071+003609999GF107991999999999999999999MA1101191999999MW1001REMMET005NEW ;EQDQ01+000000PRSWM2
0099827950999991999010507004-07220-035880FM-15+0560SBKG V0200901N004110036019N0112651N1+02201+02001999999ADDGA1071+003609999GF107991999999999999999999MA1101191999999MW1001REMMET005NEW ;EQDQ01+000000PRSWM2
0099827950999991999010508004-07220-035880FM-15+0560SBKG V0201001N003110030019N0080001N1+02201+02101999999ADDGA1071+003009999GF107991999999999999999999MA1101191999999MW1001REMMET005NEW ;EQDQ01+000000PRSWM2
0099827950999991999010510004-07220-035880FM-15+0560SBKG V0201001N005710039019N0112651N1+02301+02101999999ADDGA1071+003909999GF107991999999999999999999MA1101291999999MW1001REMMET005NEW ;EQDQ01+000000PRSWM2
0099827950999991999010511004-07220-035880FM-15+0560SBKG V0201001N005110045019N0112651N1+02301+02001999999ADDGA1071+004509999GF107991999999999999999999MA1101291999999MW1001REMMET005NEW ;EQDQ01+000000PRSWM2
0192827950999991999010512004-07220-035880SY-MT+0560SBKG V0200901N006210060019N0100001N1+02551+01891101001ADDAA199000091GA1071+006009999GF199999061021008001001001KA1240N+02111MA1101391094871MD1999999-0051MW1001REMSYN017 333 20211 59005;MET005NEW ;EQDQ01+000062SCOTCVQ02+000000PRSWM2Q03  00002PRCP99
0099827950999991999010513004-07220-035880FM-15+0560SBKG V0200601N004110075019N0112651N1+02701+02001999999ADDGA1071+007509999GF107991999999999999999999MA1101391999999MW1001REMMET005NEW ;EQDQ01+000000PRSWM2
0099827950999991999010516004-07220-035880FM-15+0560SBKG V0201101N004112200019N0112651N1+03101+01601999999ADDGA1021+009009999GF104991999999999999999999MA1101081999999MW1001REMMET005NEW ;EQDQ01+000000PRSWM2
0099827950999991999010517004-07220-035880FM-15+0560SBKG V0201001N004112200019N0112651N1+03201+01701999999ADDGA1021+009009999GF104991999999999999999999MA1101081999999MW1001REMMET005NEW ;EQDQ01+000000PRSWM2
0099827950999991999010518004-07220-035880FM-15+0560SBKG V0200901N005112200019N0112651N1+03101+01701999999ADDGA1021+009009999GF104991999999999999999999MA1101021999999MW1001REMMET005NEW ;EQDQ01+000000PRSWM2
0099827950999991999010520004-07220-035880FM-15+0560SBKG V0201201N007212200019N0112651N1+02801+01801999999ADDGA1021+007509999GF102991999999999999999999MA1101081999999MW1001REMMET005NEW ;EQDQ01+000000PRSWM2
0099827950999991999010521004-07220-035880FM-15+0560SBKG V0200901N008212200019N0112651N1+02701+01801999999ADDGA1021+007509999GF102991999999999999999999MA1101081999999MW1001REMMET005NEW ;EQDQ01+000000PRSWM2
0108827950999991999010522004-07220-035880FM-15+0560SBKG V0201001N007212200019N0112651N1+02401+99999999999ADDGA1021+004809999GF102991999999999999999999MA1101191999999MW1001REMMET014NEW 220 Q1012;EQDQ01+000000PRSWM2
0099827950999991999010523004-07220-035880FM-15+0560SBKG V0201001N006212200019N0112651N1+02301+02001999999ADDGA1021+004509999GF102991999999999999999999MA1101291999999MW1001REMMET005NEW ;EQDQ01+000000PRSWM2
0099827950999991999010600004-07220-035880FM-15+0560SBKG V0201001N007212200019N0112651N1+02301+02001999999ADDGA1021+004509999GF104991999999999999999999MA1101291999999MW1001REMMET005NEW ;EQDQ01+000000PRSWM2
0099827950999991999010601004-07220-035880FM-15+0560SBKG V0201001N006712200019N0112651N1+02301+02001999999ADDGA1021+004209999GF104991999999999999999999MA1101291999999MW1001REMMET005NEW ;EQDQ01+000000PRSWM2
0099827950999991999010602004-07220-035880FM-15+0560SBKG V0201001N005112200019N0112651N1+02201+01901999999ADDGA1021+004209999GF102991999999999999999999MA1101291999999MW1001REMMET005NEW ;EQDQ01+000000PRSWM2
0099827950999991999010603004-07220-035880FM-15+0560SBKG V0201101N005112200019N0112651N1+02201+02001999999ADDGA1021+003609999GF104991999999999999999999MA1101291999999MW1001REMMET005NEW ;EQDQ01+000000PRSWM2
0099827950999991999010605004-07220-035880FM-15+0560SBKG V0200901N002112200019N0112651N1+02201+02001999999ADDGA1021+003609999GF104991999999999999999999MA1101291999999MW1001REMMET005NEW ;EQDQ01+000000PRSWM2
0099827950999991999010606004-07220-035880FM-15+0560SBKG V0201001N002112200019N0112651N1+02201+02001999999ADDGA1021+003609999GF104991999999999999999999MA1101291999999MW1001REMMET005NEW ;EQDQ01+000000PRSWM2
0099827950999991999010607004-07220-035880FM-15+0560SBKG V0200901N002112200019N0112651N1+02101+02001999999ADDGA1021+003609999GF104991999999999999999999MA1101291999999MW1001REMMET005NEW ;EQDQ01+000000PRSWM2
0099827950999991999010608004-07220-035880FM-15+0560SBKG V0201001N002110030019N0112651N1+02101+02001999999ADDGA1071+003009999GF107991999999999999999999MA1101291999999MW1001REMMET005NEW ;EQDQ01+000000PRSWM2
0115827950999991999010610004-07220-035880FM-15+0560SBKG V0201001N003110030019N0112651N1+02201+02101999999ADDGA1021+002109999GA2071+003009999GF107991999999999999999999MA1101391999999MW1001REMMET005NEW ;EQDQ01+000000PRSWM2
0115827950999991999010611004-07220-035880FM-15+0560SBKG V0201001N004112200019N0112651N1+02401+02001999999ADDGA1021+003009999GA2021+004509999GF104991999999999999999999MA1101391999999MW1001REMMET005NEW ;EQDQ01+000000PRSWM2
0176827950999991999010612004-07220-035880SY-MT+0560SBKG V0200901N003110060019N0100001N1+02491+01861101121ADDAA199000091GA1071+006009999GF107991071021008001001001KA1240N+02131MA1101391094971MD1999999+0101MW1001REMSYN017 333 20213 58010;MET005NEW ;EQDQ01+000000PRSWM2Q02  00002PRCP99
0099827950999991999010613004-07220-035880FM-15+0560SBKG V0200901N004110075019N0112651N1+02701+01801999999ADDGA1071+007509999GF107991999999999999999999MA1101391999999MW1001REMMET005NEW ;EQDQ01+000000PRSWM2
0099827950999991999010614004-07220-035880FM-15+0560SBKG V0201101N005112200019N0112651N1+03001+01601999999ADDGA1021+007509999GF104991999999999999999999MA1101291999999MW1001REMMET005NEW ;EQDQ01+000000PRSWM2
0099827950999991999010615004-07220-035880FM-15+0560SBKG V0201201N006212200019N0112651N1+03101+01701999999ADDGA1021+007509999GF102991999999999999999999MA1101291999999MW1001REMMET005NEW ;EQDQ01+000000PRSWM2
0099827950999991999010616004-07220-035880FM-15+0560SBKG V0201201N006212200019N0112651N1+03201+01601999999ADDGA1021+007509999GF102991999999999999999999MA1101191999999MW1001REMMET005NEW ;EQDQ01+000000PRSWM2
0157827950999991999010618004-07220-035880SY-MT+0560SBKG V0200901N005112200019N0100001N1+03071+01681100851ADDAA199000091GA1021+007509999GF103991031021008001001001MA1101081094751MD1999999+0051MW1001REMSYN011 333 58005;MET005NEW ;EQDQ01+000000PRSWM2Q02  00002PRCP99
0099827950999991999010619004-07220-035880FM-15+0560SBKG V0201201N005112200019N0112651N1+03201+01701999999ADDGA1021+007509999GF102991999999999999999999MA1101081999999MW1001REMMET005NEW ;EQDQ01+000000PRSWM2
0099827950999991999010620004-07220-035880FM-15+0560SBKG V0201001N005112200019N0112651N1+03001+01801999999ADDGA1021+007509999GF102991999999999999999999MA1101081999999MW1001REMMET005NEW ;EQDQ01+000000PRSWM2
0063827950999991999010622004-07220-035880FM-15+0560SBKG V0201001N00511220001CN0099001N1+02501+02001999999ADDMA1101191999999MW1001REMMET011NEW CAVOK ;EQDQ01+000000PRSWM2
0099827950999991999010623004-07220-035880FM-15+0560SBKG V0201001N004612200019N0112651N1+02401+02001999999ADDGA1021+006009999GF102991999999999999999999MA1101291999999MW1001REMMET005NEW ;EQDQ01+000000PRSWM2
0099827950999991999010701004-07220-035880FM-15+0560SBKG V0201001N004112200019N0112651N1+02301+02101999999ADDGA1021+004509999GF104991999999999999999999MA1101491999999MW1001REMMET005NEW ;EQDQ01+000000PRSWM2
0099827950999991999010702004-07220-035880FM-15+0560SBKG V0201201N009312200019N0112651N1+02301+02101999999ADDGA1021+003309999GF104991999999999999999999MA1101391999999MW1001REMMET005NEW ;EQDQ01+000000PRSWM2
0099827950999991999010703004-07220-035880FM-15+0560SBKG V0201001N001510033019N0112651N1+02301+02101999999ADDGA1071+003309999GF107991999999999999999999MA1101291999999MW1001REMMET005NEW ;EQDQ01+000000PRSWM2
0131827950999991999010704004-07220-035880FM-15+0560SBKG V0201001N005110036019N0112651N1+02301+02001999999ADDGA1021+002409999GA2071+003609999GF107991999999999999999999MA1101291999999MW1511REMMET005NEW ;EQDQ01+000003PRSWM1Q02    003PRSWM1
0115827950999991999010705004-07220-035880FM-16+0560SBKG V0201001N003110036019N0112651N1+99999+99999999999ADDGA1021+002409999GA2071+003609999GF107991999999999999999999MA1101291999999MW1001REMMET005NEW ;EQDQ01+000000PRSWM2
0115827950999991999010706004-07220-035880FM-15+0560SBKG V0201001N003610036019N0112651N1+02201+02101999999ADDGA1021+002109999GA2071+003609999GF107991999999999999999999MA1101291999999MW1001REMMET005NEW ;EQDQ01+000000PRSWM2
0115827950999991999010707004-07220-035880FM-15+0560SBKG V0200901N003110036019N0112651N1+02201+02101999999ADDGA1021+002109999GA2071+003609999GF107991999999999999999999MA1101291999999MW1001REMMET005NEW ;EQDQ01+000000PRSWM2
0115827950999991999010708004-07220-035880FM-15+0560SBKG V0201001N003110240019N0112651N1+02201+02101999999ADDGA1021+002409999GA2071+024009999GF107991999999999999999999MA1101391999999MW1001REMMET005NEW ;EQDQ01+000000PRSWM2
0115827950999991999010709004-07220-035880FM-15+0560SBKG V0201001N003112200019N0112651N1+02201+02101999999ADDGA1021+002409999GA2021+004509999GF104991999999999999999999MA1101391999999MW1001REMMET005NEW ;EQDQ01+000000PRSWM2
0131827950999991999010710004-07220-035880FM-15+0560SBKG V0201201N004110045019N0112651N1+02301+02101999999ADDGA1021+002409999GA2021+003009999GA3071+004509999GF107991999999999999999999MA1101491999999MW1001REMMET005NEW ;EQDQ01+000000PRSWM2
0115827950999991999010711004-07220-035880FM-15+0560SBKG V0201201N004110045019N0112651N1+02401+02101999999ADDGA1021+003009999GA2071+004509999GF107991999999999999999999MA1101491999999MW1001REMMET005NEW ;EQDQ01+000000PRSWM2
0214827950999991999010712004-07220-035880SY-MT+0560SBKG V0200901N002610060019N0100001N1+02421+01931101191ADDAA199000391AY151061AY221061GA1021+004509999GA2071+006009999GF108991081071008001999999KA1240N+02171MA1101491095051MD1999999+0081MW1021REMSYN023 333 20217 58008 69934;MET005NEW ;EQDQ01+000000PRSWM2Q02    003PRSWM1
0099827950999991999010714004-07220-035880FM-15+0560SBKG V0201201N004110060019N0112651N1+02801+01901999999ADDGA1071+006009999GF107991999999999999999999MA1101391999999MW1001REMMET005NEW ;EQDQ01+000000PRSWM2
0099827950999991999010716004-07220-035880FM-15+0560SBKG V0201201N004110075019N0112651N1+02801+01801999999ADDGA1071+007509999GF107991999999999999999999MA1101291999999MW1001REMMET005NEW ;EQDQ01+000000PRSWM2
0115827950999991999010717004-07220-035880FM-15+0560SBKG V0200901N004112200019N0112651N1+02901+01801999999ADDGA1021+009009999GA2021+045009999GF104991999999999999999999MA1101191999999MW1001REMMET005NEW ;EQDQ01+000000PRSWM2
0099827950999991999010718004-07220-035880FM-15+0560SBKG V0200701N003110090019N0112651N1+03001+01801999999ADDGA1071+009009999GF107991999999999999999999MA1101191999999MW1001REMMET005NEW ;EQDQ01+000000PRSWM2
0115827950999991999010719004-07220-035880FM-15+0560SBKG V0201001N004112200019N0112651N1+03001+01801999999ADDGA1021+009009999GA2021+090009999GF104991999999999999999999MA1101081999999MW1001REMMET005NEW ;EQDQ01+000000PRSWM2
0115827950999991999010720004-07220-035880FM-15+0560SBKG V0200901N004110900019N0112651N1+02901+01801999999ADDGA1021+009009999GA2071+090009999GF107991999999999999999999MA1101081999999MW1001REMMET005NEW ;EQDQ01+000000PRSWM2
0063827950999991999010722004-07220-035880FM-15+0560SBKG V0200901N00511220001CN0099001N1+02501+01901999999ADDMA1101191999999MW1001REMMET011NEW CAVOK ;EQDQ01+000000PRSWM2
0063827950999991999010723004-07220-035880FM-15+0560SBKG V0200901N00621220001CN0099001N1+02401+01901999999ADDMA1101291999999MW1001REMMET011NEW CAVOK ;EQDQ01+000000PRSWM2
0166827950999991999010800004-07220-035880SY-MT+0560SBKG V0200901N004612200019N0100001N1+02361+01891101021ADDAA199000091GF100991001001999999001001KA1240M+03031MA1101391094881MD1999999+0011MW1001REMSYN017 333 10303 58001;MET011NEW CAVOK ;EQDQ01+000000PRSWM2Q02  00002PRCP99
0063827950999991999010801004-07220-035880FM-15+0560SBKG V0200901N00511220001CN0099001N1+02301+01901999999ADDMA1101391999999MW1001REMMET011NEW CAVOK ;EQDQ01+000000PRSWM2
0099827950999991999010803004-07220-035880FM-15+0560SBKG V0201001N003112200019N0112651N1+02201+02001999999ADDGA1021+004509999GF102991999999999999999999MA1101291999999MW1001REMMET005NEW ;EQDQ01+000000PRSWM2
0099827950999991999010804004-07220-035880FM-15+0560SBKG V0201001N003112200019N0112651N1+02301+01901999999ADDGA1021+003009999GF102991999999999999999999MA1101291999999MW1001REMMET005NEW ;EQDQ01+000000PRSWM2
0099827950999991999010805004-07220-035880FM-15+0560SBKG V0201001N003112200019N0112651N1+02301+01901999999ADDGA1021+003009999GF104991999999999999999999MA1101191999999MW1001REMMET005NEW ;EQDQ01+000000PRSWM2
0099827950999991999010806004-07220-035880FM-15+0560SBKG V0201001N003112200019N0112651N1+02301+01901999999ADDGA1021+003009999GF104991999999999999999999MA1101191999999MW1001REMMET005NEW ;EQDQ01+000000PRSWM2
0099827950999991999010808004-07220-035880FM-15+0560SBKG V0201301N002112200019N0112651N1+02201+02101999999ADDGA1021+003009999GF104991999999999999999999MA1101291999999MW1001REMMET005NEW ;EQDQ01+000000PRSWM2
0131827950999991999010809004-07220-035880FM-15+0560SBKG V0201001N002110045019N0112651N1+02201+02101999999ADDGA1021+003009999GA2071+004509999GA3071+030009999GF107991999999999999999999MA1101291999999MW1001REMMET005NEW ;EQDQ01+000000PRSWM2
0165827950999991999010811004-07220-035880FM-15+0560SBKG V0200701N002610900019N0112651N1+02501+02301999999ADDGA1021+004809999GA2081+090009999GF108991999999999999999999MA1101491999999MW1001REMMET055NEW METAR SBIL 081100Z 23005KT 9999 SCT020 27/23 Q1012;EQDQ01+000000PRSWM2
0127827950999991999010812004-07220-035880FM-12+0560SBKG V0200901N003110075019N0100001N1+02511+01871101111ADDAA199000091GF108991081071008001999999KA1240N+02161MA1999999094971MD1999999-0081REMSYN017 333 20216 59008;EQDQ01  00002PRCP99
0115827950999991999010813004-07220-035880FM-15+0560SBKG V0200901N004610900019N0112651N1+02701+01901999999ADDGA1021+007509999GA2071+090009999GF107991999999999999999999MA1101391999999MW1001REMMET005NEW ;EQDQ01+000000PRSWM2
0115827950999991999010814004-07220-035880FM-15+0560SBKG V0201201N002610075019N0112651N1+02801+01901999999ADDGA1071+007509999GA2081+090009999GF108991999999999999999999MA1101391999999MW1001REMMET005NEW ;EQDQ01+000000PRSWM2
0115827950999991999010815004-07220-035880FM-15+0560SBKG V0201301N003110090019N0112651N1+02901+01801999999ADDGA1071+009009999GA2081+090009999GF108991999999999999999999MA1101291999999MW1001REMMET005NEW ;EQDQ01+000000PRSWM2
0115827950999991999010816004-07220-035880FM-15+0560SBKG V0200901N003110900019N0112651N1+02901+02001999999ADDGA1021+009009999GA2071+090009999GF107991999999999999999999MA1101191999999MW1001REMMET005NEW ;EQDQ01+000000PRSWM2
0115827950999991999010818004-07220-035880FM-15+0560SBKG V0201001N004110060019N0112651N1+03001+01901999999ADDGA1071+006009999GA2071+030009999GF107991999999999999999999MA1101021999999MW1001REMMET005NEW ;EQDQ01+000000PRSWM2
0115827950999991999010819004-07220-035880FM-15+0560SBKG V0200901N005110300019N0112651N1+02901+02001999999ADDGA1021+006009999GA2071+030009999GF107991999999999999999999MA1101191999999MW1001REMMET005NEW ;EQDQ01+000000PRSWM2
0115827950999991999010820004-07220-035880FM-15+0560SBKG V0200901N005112200019N0112651N1+02701+02001999999ADDGA1021+006009999GA2021+030009999GF104991999999999999999999MA1101191999999MW1001REMMET005NEW ;EQDQ01+000000PRSWM2
0115827950999991999010821004-07220-035880FM-15+0560SBKG V0200901N005112200019N0112651N1+02601+02001999999ADDGA1021+006009999GA2021+075009999GF104991999999999999999999MA1101081999999MW1001REMMET005NEW ;EQDQ01+000000PRSWM2
0099827950999991999010822004-07220-035880FM-15+0560SBKG V0201001N005112200019N0112651N1+02501+02001999999ADDGA1021+006009999GF102991999999999999999999MA1101191999999MW1001REMMET005NEW ;EQDQ01+000000PRSWM2
0127827950999991999010900004-07220-035880FM-12+0560SBKG V0200501N004610075019N0100001N1+02351+01951101001ADDAA199000091GF107991051021008001031001KA1240M+03021MA1999999094871MD1999999-0011REMSYN017 333 10302 59001;EQDQ01  00002PRCP99
0099827950999991999010901004-07220-035880FM-15+0560SBKG V0201101N003110045019N0112651N1+02301+02001999999ADDGA1071+004509999GF107991999999999999999999MA1101391999999MW1001REMMET005NEW ;EQDQ01+000000PRSWM2
0099827950999991999010902004-07220-035880FM-15+0560SBKG V0201001N004110039019N0112651N1+02301+02001999999ADDGA1071+003909999GF107991999999999999999999MA1101391999999MW1001REMMET005NEW ;EQDQ01+000000PRSWM2
0099827950999991999010903004-07220-035880FM-15+0560SBKG V0201001N004110039019N0112651N1+02301+02001999999ADDGA1071+003909999GF107991999999999999999999MA1101391999999MW1001REMMET005NEW ;EQDQ01+000000PRSWM2
0131827950999991999010904004-07220-035880FM-15+0560SBKG V0201001N003110720019N0112651N1+02201+02101999999ADDGA1021+009009999GA2071+072009999GF107991999999999999999999MA1101291999999MW1611REMMET005NEW ;EQDQ01+000003PRSWM1Q02    003PRSWM1
0151827950999991999010905004-07220-035880FM-15+0560SBKG V0200701N002110240019N0112651N1+02201+02101999999ADDGA1021+002109999GA2021+013509999GA3081+024009999GF108991999999999999999999MA1101191999999MW1611REMMET009NEW RERA;EQDQ01+000003PRSWM1Q02    003PRSWM1
0131827950999991999010907004-07220-035880FM-15+0560SBKG V0201101N002610027019N0112651N1+02201+02201999999ADDGA1021+001209999GA2071+002709999GA3081+030009999GF108991999999999999999999MA1101191999999MW1001REMMET005NEW ;EQDQ01+000000PRSWM2
0115827950999991999010908004-07220-035880FM-15+0560SBKG V0201001N002612200019N0112651N1+02801+02101999999ADDGA1021+002109999GA2021+024009999GF104991999999999999999999MA1101291999999MW1001REMMET005NEW ;EQDQ01+000000PRSWM2
0147827950999991999010910004-07220-035880FM-15+0560SBKG V0201001N003110300019N0060001N1+02101+02001999999ADDGA1021+003009999GA2021+004509999GA3071+030009999GF107991999999999999999999MA1101491999999MW1611REMMET005NEW ;EQDQ01+000003PRSWM1Q02    003PRSWM1
0230827950999991999010912004-07220-035880SY-MT+0560SBKG V0200501N001510300019N0100001N1+02271+02031101161ADDAA199003091AY161061AY221061GA1021+003009999GA2021+004509999GA3071+030009999GF108991051051008001021999KA1240N+02121MA1101491095021MD1999999+0051MW1031REMSYN023 333 20212 58005 60034;MET005NEW ;EQDQ01+000000PRSWM2Q02    003PRSWM1
0131827950999991999010913004-07220-035880FM-15+0560SBKG V0200901N004110750019N0112651N1+02501+02101999999ADDGA1021+004809999GA2021+030009999GA3071+075009999GF107991999999999999999999MA1101491999999MW1001REMMET005NEW ;EQDQ01+000000PRSWM2
0115827950999991999010914004-07220-035880FM-15+0560SBKG V0201101N004110750019N0112651N1+02701+02101999999ADDGA1021+006009999GA2071+075009999GF107991999999999999999999MA1101391999999MW1001REMMET005NEW ;EQDQ01+000000PRSWM2
0115827950999991999010915004-07220-035880FM-15+0560SBKG V0200901N004610060019N0112651N1+02901+02101999999ADDGA1071+006009999GA2071+075009999GF107991999999999999999999MA1101291999999MW1001REMMET005NEW ;EQDQ01+000000PRSWM2
0115827950999991999010917004-07220-035880FM-15+0560SBKG V0201001N006710750019N0112651N1+02001+02001999999ADDGA1021+007509999GA2071+075009999GF107991999999999999999999MA1101191999999MW1001REMMET005NEW ;EQDQ01+000000PRSWM2
0115827950999991999010919004-07220-035880FM-15+0560SBKG V0200701N005110750019N0112651N1+02801+02001999999ADDGA1021+006009999GA2071+075009999GF107991999999999999999999MA1101081999999MW1001REMMET005NEW ;EQDQ01+000000PRSWM2
0131827950999991999010920004-07220-035880FM-15+0560SBKG V0200901N005110750019N0112651N1+02601+02001999999ADDGA1021+004809999GA2021+027009999GA3071+075009999GF107991999999999999999999MA1101081999999MW1001REMMET005NEW ;EQDQ01+000000PRSWM2
0127827950999991999011100004-07220-035880FM-12+0560SBKG V0200501N004610450019N0100001N1+02311+02001101141ADDAA199000091GF105991031021008001061001KA1240M+02901MA1999999095001MD1999999+0001REMSYN017 333 10290 58000;EQDQ01  00002PRCP99
0115827950999991999011111004-07220-035880FM-15+0560SBKG V0201001N004112200019N0112651N1+02401+02001999999ADDGA1021+004509999GA2021+027009999GF104991999999999999999999MA1101491999999MW1001REMMET005NEW ;EQDQ01+000000PRSWM2
0105827950999991999011112004-07220-035880FM-15+0560SBKG V0200501N00361220001CN0112651N1+02501+01901999999ADDGA1071+005409999GA2021+030009999MA1101491999999MW1001REMMET005NEW ;EQDQ01+000042SCOTCVQ02+000000PRSWM2
0115827950999991999011114004-07220-035880FM-15+0560SBKG V0200801N004610270019N0112651N1+02601+01901999999ADDGA1021+005409999GA2071+027009999GF107991999999999999999999MA1101491999999MW1001REMMET005NEW ;EQDQ01+000000PRSWM2
0115827950999991999011115004-07220-035880FM-15+0560SBKG V0200501N004110270019N0112651N1+02701+01801999999ADDGA1021+006009999GA2071+027009999GF107991999999999999999999MA1101391999999MW1001REMMET005NEW ;EQDQ01+000000PRSWM2
0131827950999991999011116004-07220-035880FM-15+0560SBKG V0201001N005112200019N0112651N1+02901+01701999999ADDGA1021+004509999GA2021+006009999GF104991999999999999999999MA1999999999999MW1001REMMET005NEW ;EQDQ01+000000PRSWM2Q02 101903APOA  
0131827950999991999011117004-07220-035880FM-15+0560SBKG V0201001N005110270019N0112651N1+02901+01701999999ADDGA1021+004509999GA2021+006009999GA3071+027009999GF107991999999999999999999MA1101191999999MW1001REMMET005NEW ;EQDQ01+000000PRSWM2
0115827950999991999011118004-07220-035880FM-15+0560SBKG V0201001N004110270019N0112651N1+03001+01601999999ADDGA1021+006009999GA2071+027009999GF107991999999999999999999MA1101081999999MW1001REMMET005NEW ;EQDQ01+000000PRSWM2
0131827950999991999011119004-07220-035880FM-15+0560SBKG V0201001N004110270019N0112651N1+03001+01601999999ADDGA1021+004509999GA2021+006009999GA3071+027009999GF107991999999999999999999MA1101081999999MW1001REMMET005NEW ;EQDQ01+000000PRSWM2
0131827950999991999011120004-07220-035880FM-15+0560SBKG V0201001N004110270019N0112651N1+02801+01701999999ADDGA1021+004509999GA2021+006009999GA3071+027009999GF107991999999999999999999MA1101191999999MW1001REMMET005NEW ;EQDQ01+000000PRSWM2
0115827950999991999011122004-07220-035880FM-15+0560SBKG V0201201N004112200019N0112651N1+02501+01801999999ADDGA1021+006009999GA2021+027009999GF104991999999999999999999MA1101291999999MW1001REMMET005NEW ;EQDQ01+000000PRSWM2
0063827950999991999011201004-07220-035880FM-15+0560SBKG V0201001N00361220001CN0099001N1+02201+01901999999ADDMA1101491999999MW1001REMMET011NEW CAVOK ;EQDQ01+000000PRSWM2
0099827950999991999011202004-07220-035880FM-15+0560SBKG V0201001N003110036019N0112651N1+02201+02001999999ADDGA1071+003609999GF107991999999999999999999MA1101491999999MW1001REMMET005NEW ;EQDQ01+000000PRSWM2
0099827950999991999011203004-07220-035880FM-15+0560SBKG V0201001N003112200019N0112651N1+02201+02001999999ADDGA1021+003609999GF104991999999999999999999MA1101491999999MW1001REMMET005NEW ;EQDQ01+000000PRSWM2
0099827950999991999011204004-07220-035880FM-15+0560SBKG V0200901N003112200019N0112651N1+02101+02001999999ADDGA1021+003609999GF104991999999999999999999MA1101391999999MW1001REMMET005NEW ;EQDQ01+000000PRSWM2
0099827950999991999011205004-07220-035880FM-15+0560SBKG V0201101N003112200019N0112651N1+02101+02101999999ADDGA1021+003009999GF104991999999999999999999MA1101391999999MW1001REMMET005NEW ;EQDQ01+000000PRSWM2
0099827950999991999011206004-07220-035880FM-15+0560SBKG V0201001N002610024019N0112651N1+02101+02001999999ADDGA1071+002409999GF107991999999999999999999MA1101391999999MW1001REMMET005NEW ;EQDQ01+000000PRSWM2
0063827950999991999011208004-07220-035880FM-15+0560SBKG V0201001N00211220001CN0099001N1+02001+02001999999ADDMA1101391999999MW1001REMMET011NEW CAVOK ;EQDQ01+000000PRSWM2
0115827950999991999011210004-07220-035880FM-15+0560SBKG V0201201N003112200019N0112651N1+02301+02001999999ADDGA1021+004509999GA2021+090009999GF104991999999999999999999MA1101491999999MW1001REMMET005NEW ;EQDQ01+000000PRSWM2
0099827950999991999011211004-07220-035880FM-15+0560SBKG V0201201N004110045019N0112651N1+02401+02001999999ADDGA1071+004509999GF107991999999999999999999MA1101591999999MW1001REMMET005NEW ;EQDQ01+000000PRSWM2
0182827950999991999011212004-07220-035880SY-MT+0560SBKG V0200901N004110060019N0100001N1+02571+01761101251ADDAA199000191GA1071+006009999GF199999061031008001001001KA1240N+02071MA1101591095101MD1999999+0081MW1001REMSYN023 333 20207 58008 69924;MET005NEW ;EQDQ01+000062SCOTCVQ02+000000PRSWM2
0099827950999991999011213004-07220-035880FM-15+0560SBKG V0201201N007210060019N0112651N1+02901+01701999999ADDGA1071+006009999GF107991999999999999999999MA1101491999999MW1001REMMET005NEW ;EQDQ01+000000PRSWM2
0099827950999991999011214004-07220-035880FM-15+0560SBKG V0201301N006210060019N0112651N1+02901+01701999999ADDGA1071+006009999GF107991999999999999999999MA1101491999999MW1001REMMET005NEW ;EQDQ01+000000PRSWM2
0099827950999991999011216004-07220-035880FM-15+0560SBKG V0201001N007212200019N0112651N1+03001+01501999999ADDGA1021+009009999GF104991999999999999999999MA1101291999999MW1001REMMET005NEW ;EQDQ01+000000PRSWM2
0099827950999991999011217004-07220-035880FM-15+0560SBKG V0201201N005112200019N0112651N1+03201+02001999999ADDGA1021+009009999GF104991999999999999999999MA1101191999999MW1001REMMET005NEW ;EQDQ01+000000PRSWM2
0099827950999991999011220004-07220-035880FM-15+0560SBKG V0201201N007212200019N0112651N1+03001+01701999999ADDGA1021+009009999GF102991999999999999999999MA1101191999999MW1001REMMET005NEW ;EQDQ01+000000PRSWM2
0099827950999991999011221004-07220-035880FM-15+0560SBKG V0201001N005112200019N0112651N1+02801+01801999999ADDGA1021+009009999GF102991999999999999999999MA1101291999999MW1001REMMET005NEW ;EQDQ01+000000PRSWM2
0063827950999991999011222004-07220-035880FM-15+0560SBKG V0200901N00511220001CN0099001N1+02501+01801999999ADDMA1101391999999MW1001REMMET011NEW CAVOK ;EQDQ01+000000PRSWM2
0063827950999991999011223004-07220-035880FM-15+0560SBKG V0200901N00621220001CN0099001N1+02401+01901999999ADDMA1101491999999MW1001REMMET011NEW CAVOK ;EQDQ01+000000PRSWM2
0166827950999991999011300004-07220-035880SY-MT+0560SBKG V0200901N004612200019N0100001N1+02291+01901101211ADDAA199000091GF103991031011008001001001KA1240M+03121MA1101491095061MD1999999+0091MW1001REMSYN017 333 10312 58009;MET011NEW CAVOK ;EQDQ01+000000PRSWM2Q02  00002PRCP99
0099827950999991999011301004-07220-035880FM-15+0560SBKG V0200901N005112200019N0112651N1+02301+02001999999ADDGA1021+004509999GF104991999999999999999999MA1101591999999MW1001REMMET005NEW ;EQDQ01+000000PRSWM2
0099827950999991999011302004-07220-035880FM-15+0560SBKG V0200901N005112200019N0112651N1+02301+02001999999ADDGA1021+004509999GF104991999999999999999999MA1101491999999MW1001REMMET005NEW ;EQDQ01+000000PRSWM2
0099827950999991999011303004-07220-035880FM-15+0560SBKG V0200901N005112200019N0112651N1+02201+02101999999ADDGA1021+003009999GF104991999999999999999999MA1101491999999MW1001REMMET005NEW ;EQDQ01+000000PRSWM2
0099827950999991999011304004-07220-035880FM-15+0560SBKG V0201001N004112200019N0112651N1+02201+02101999999ADDGA1021+003009999GF104991999999999999999999MA1101391999999MW1001REMMET005NEW ;EQDQ01+000000PRSWM2
0099827950999991999011306004-07220-035880FM-15+0560SBKG V0201201N004112200019N0112651N1+02201+02101999999ADDGA1021+003009999GF104991999999999999999999MA1101291999999MW1001REMMET005NEW ;EQDQ01+000000PRSWM2
0099827950999991999011307004-07220-035880FM-15+0560SBKG V0201201N004110030019N0112651N1+02201+02101999999ADDGA1071+003009999GF107991999999999999999999MA1101391999999MW1001REMMET005NEW ;EQDQ01+000000PRSWM2
0115827950999991999011308004-07220-035880FM-15+0560SBKG V0201201N004110030019N0112651N1+02201+02101999999ADDGA1021+002409999GA2071+003009999GF107991999999999999999999MA1101391999999MW1001REMMET005NEW ;EQDQ01+000000PRSWM2
0115827950999991999011309424-07220-035880FM-15+0560SBKG V0201201N004112200019N0112651N1+02301+02101999999ADDGA1021+003909999GA2021+030009999GF104991999999999999999999MA1101591999999MW1001REMMET005NEW ;EQDQ01+000000PRSWM2
0099827950999991999011311004-07220-035880FM-15+0560SBKG V0201001N005110048019N0112651N1+02501+02101999999ADDGA1071+004809999GF107991999999999999999999MA1101691999999MW1001REMMET005NEW ;EQDQ01+000000PRSWM2
0176827950999991999011312004-07220-035880SY-MT+0560SBKG V0200501N00411007501CN0100001N1+02561+01881101341ADDAA199000091GA1021+006009999GF106991061041008001001001KA1240N+02161MA1101691095181MD1999999+0081MW1001REMSYN017 333 20216 58008;MET005NEW ;EQDQ01+000000PRSWM2Q02  00002PRCP99
0099827950999991999011313004-07220-035880FM-15+0560SBKG V0201201N005712200019N0112651N1+02701+01901999999ADDGA1021+007509999GF104991999999999999999999MA1101591999999MW1001REMMET005NEW ;EQDQ01+000000PRSWM2
0099827950999991999011315004-07220-035880FM-15+0560SBKG V0201201N004112200019N0112651N1+03001+01601999999ADDGA1021+009009999GF104991999999999999999999MA1101491999999MW1001REMMET005NEW ;EQDQ01+000000PRSWM2
0099827950999991999011316004-07220-035880FM-15+0560SBKG V0200901N005110090019N0112651N1+02901+01801999999ADDGA1071+009009999GF107991999999999999999999MA1101491999999MW1001REMMET005NEW ;EQDQ01+000000PRSWM2
0157827950999991999011318004-07220-035880SY-MT+0560SBKG V0200501N006210450019N0100001N1+02631+01831101041ADDAA199000091GA1021+009009999GF107991041031008001071001MA1101291094901MD1999999+0171MW1001REMSYN011 333 58017;MET005NEW ;EQDQ01+000000PRSWM2Q02  00002PRCP99
0099827950999991999011319004-07220-035880FM-15+0560SBKG V0200801N005112200019N0112651N1+02701+02001999999ADDGA1021+009009999GF104991999999999999999999MA1101391999999MW1001REMMET005NEW ;EQDQ01+000000PRSWM2
0099827950999991999011320004-07220-035880FM-15+0560SBKG V0200801N005112200019N0112651N1+02601+01901999999ADDGA1021+009009999GF104991999999999999999999MA1101291999999MW1001REMMET005NEW ;EQDQ01+000000PRSWM2
0099827950999991999011321004-07220-035880FM-15+0560SBKG V0200901N005112200019N0112651N1+02501+01901999999ADDGA1021+006009999GF102991999999999999999999MA1101391999999MW1001REMMET005NEW ;EQDQ01+000000PRSWM2
0099827950999991999011322004-07220-035880FM-15+0560SBKG V0201001N004112200019N0112651N1+02301+02001999999ADDGA1021+003909999GF104991999999999999999999MA1101491999999MW1001REMMET005NEW ;EQDQ01+000000PRSWM2
0115827950999991999011323004-07220-035880FM-15+0560SBKG V0201001N005110030019N0080001N1+02201+02101999999ADDGA1071+003009999GF107991999999999999999999MA1101491999999MW1161REMMET005NEW ;EQDQ01+000003PRSWM1Q02    003PRSWM1
0160827950999991999011400004-07220-035880SY-MT+0560SBKG V0200901N007710027019N0100001N1+02221+02011101251ADDAA199000091GA1071+002709999GF199999031021008001031001KA1240M+02991MA1101591095091MD1999999+0031MW1001REMSYN017 333 10299 58003;MET005NEW ;EQDQ01  00002PRCP99
0080827950999991999011401004-07220-035880FM-15+0560SBKG V0200901N005110027019N0112651N1+02301+02101999999ADDGA1071+002709999GF107991999999999999999999MA1101591999999MW1001REMMET005NEW ;
0080827950999991999011403004-07220-035880FM-15+0560SBKG V0201001N005110024019N0112651N1+02301+02101999999ADDGA1071+002409999GF107991999999999999999999MA1101491999999MW1001REMMET005NEW ;
0119827950999991999011404004-07220-035880FM-15+0560SBKG V0201001N004110024019N0080001N1+02201+02201999999ADDGA1071+002409999GA2071+003609999GF107991999999999999999999MA1101491999999MW1611REMMET009NEW RERA;EQDQ01    003PRSWM1
0115827950999991999011405004-07220-035880FM-15+0560SBKG V0201301N004610024019N0060001N1+02201+02101999999ADDGA1071+002409999GA2071+003609999GF107991999999999999999999MA1101391999999MW1611REMMET005NEW ;EQDQ01    003PRSWM1
0115827950999991999011407004-07220-035880FM-15+0560SBKG V0201201N005110033019N0050001N1+02201+02101999999ADDGA1021+002109999GA2071+003309999GF107991999999999999999999MA1101391999999MW1611REMMET005NEW ;EQDQ01    003PRSWM1
0089827950999991999011408004-07220-035880FM-15+0560SBKG V0201201N00411220001CN0050001N1+02201+02101999999ADDGA1071+002409999GA2021+003609999MA1101491999999MW1101REMMET005NEW ;EQDQ01    003PRSWM1
0070827950999991999011409004-07220-035880FM-15+0560SBKG V0201201N00511220001CN0050001N1+02201+02101999999ADDGA1071+003009999GA2021+003609999MA1101491999999MW1001REMMET005NEW ;
0096827950999991999011410004-07220-035880FM-15+0560SBKG V0200901N005110045019N0080001N1+02301+02001999999ADDGA1021+003009999GA2071+004509999GF107991999999999999999999MA1101591999999MW1001REMMET005NEW ;
0080827950999991999011411004-07220-035880FM-15+0560SBKG V0200901N004110048019N0112651N1+02401+02001999999ADDGA1071+004809999GF107991999999999999999999MA1101591999999MW1001REMMET005NEW ;
0136827950999991999011412004-07220-035880FM-12+0560SBKG V0200501N002110450019N0100001N1+02351+01871101341ADDAA199005191AY161061AY251061GF106991031041008001031001KA1240N+02131MA1999999095171MD1999999-0011MW1021REMSYN023 333 20213 59001 60054;
0080827950999991999011413004-07220-035880FM-15+0560SBKG V0201001N005112200019N0112651N1+02701+01901999999ADDGA1021+006009999GF104991999999999999999999MA1101591999999MW1001REMMET005NEW ;
0080827950999991999011415004-07220-035880FM-15+0560SBKG V0200901N004112200019N0112651N1+02901+01801999999ADDGA1021+006009999GF104991999999999999999999MA1101491999999MW1001REMMET005NEW ;
0080827950999991999011416004-07220-035880FM-15+0560SBKG V0201001N006210060019N0112651N1+02901+01801999999ADDGA1071+006009999GF107991999999999999999999MA1101391999999MW1001REMMET005NEW ;
0138827950999991999011418004-07220-035880SY-MT+0560SBKG V0200501N003610270019N0100001N1+02531+01931101121ADDAA199000021GA1021+006009999GA2071+027009999GF107991051031008001031001MA1101291094961MD1999999-0061MW1001REMSYN011 333 59006;MET005NEW ;
0044827950999991999011421004-07220-035880FM-15+0560SBKG V0200901N00411220001CN0099001N1+02501+02001999999ADDMA1101391999999MW1001REMMET011NEW CAVOK ;
0044827950999991999011422004-07220-035880FM-15+0560SBKG V0201001N00411220001CN0099001N1+02401+02001999999ADDMA1101491999999MW1001REMMET011NEW CAVOK ;
0166827950999991999011500004-07220-035880SY-MT+0560SBKG V0200901N007212200019N0100001N1+02241+01881101201ADDAA199000091GF104991041031008001001001KA1240M+02871MA1101691095041MD1999999-0051MW1001REMSYN017 333 10287 59005;MET011NEW CAVOK ;EQDQ01+000000PRSWM2Q02  00002PRCP99
0099827950999991999011502004-07220-035880FM-15+0560SBKG V0201001N004112200019N0112651N1+02201+02001999999ADDGA1021+002409999GF102991999999999999999999MA1101591999999MW1001REMMET005NEW ;EQDQ01+000000PRSWM2
0099827950999991999011503004-07220-035880FM-15+0560SBKG V0201001N003110021019N0112651N1+02201+02001999999ADDGA1071+002109999GF107991999999999999999999MA1101591999999MW1001REMMET005NEW ;EQDQ01+000000PRSWM2
0099827950999991999011504004-07220-035880FM-15+0560SBKG V0200901N004110030019N0112651N1+02101+02001999999ADDGA1071+003009999GF107991999999999999999999MA1101491999999MW1001REMMET005NEW ;EQDQ01+000000PRSWM2
0099827950999991999011505004-07220-035880FM-15+0560SBKG V0201001N004110030019N0112651N1+02101+02001999999ADDGA1071+003009999GF107991999999999999999999MA1101491999999MW1001REMMET005NEW ;EQDQ01+000000PRSWM2
0099827950999991999011506004-07220-035880FM-15+0560SBKG V0200901N003110030019N0112651N1+02101+02001999999ADDGA1071+003009999GF107991999999999999999999MA1101391999999MW1001REMMET005NEW ;EQDQ01+000000PRSWM2
0099827950999991999011509004-07220-035880FM-15+0560SBKG V0201001N003112200019N0060001N1+02001+02001999999ADDGA1021+004509999GF104991999999999999999999MA1101491999999MW1001REMMET005NEW ;EQDQ01+000000PRSWM2
0099827950999991999011510004-07220-035880FM-15+0560SBKG V0201001N003110048019N0112651N1+02201+02001999999ADDGA1071+004809999GF107991999999999999999999MA1101591999999MW1001REMMET005NEW ;EQDQ01+000000PRSWM2
0192827950999991999011512004-07220-035880SY-MT+0560SBKG V0200901N003610060019N0100001N1+02461+01831101331ADDAA199000091GA1071+006009999GF199999051021008001001001KA1240N+02101MA1101691095171MD1999999+0001MW1001REMSYN017 333 20210 58000;MET005NEW ;EQDQ01+000052SCOTCVQ02+000000PRSWM2Q03  00002PRCP99
0099827950999991999011513004-07220-035880FM-15+0560SBKG V0201201N006210075019N0112651N1+02701+01701999999ADDGA1071+007509999GF107991999999999999999999MA1101691999999MW1001REMMET005NEW ;EQDQ01+000000PRSWM2
0099827950999991999011514004-07220-035880FM-15+0560SBKG V0200901N004112200019N0112651N1+02901+01801999999ADDGA1021+009009999GF104991999999999999999999MA1101591999999MW1001REMMET005NEW ;EQDQ01+000000PRSWM2
0099827950999991999011516004-07220-035880FM-15+0560SBKG V0201001N007712200019N0112651N1+03101+01601999999ADDGA1021+009009999GF104991999999999999999999MA1101391999999MW1001REMMET005NEW ;EQDQ01+000000PRSWM2
0099827950999991999011518004-07220-035880FM-15+0560SBKG V0201201N004612200019N0112651N1+03101+01601999999ADDGA1021+009009999GF104991999999999999999999MA1101191999999MW1001REMMET005NEW ;EQDQ01+000000PRSWM2
0099827950999991999011519004-07220-035880FM-15+0560SBKG V0201101N003112200019N0112651N1+03001+01601999999ADDGA1021+007509999GF104991999999999999999999MA1101191999999MW1001REMMET005NEW ;EQDQ01+000000PRSWM2
0099827950999991999011520004-07220-035880FM-15+0560SBKG V0201101N005112200019N0112651N1+02901+01701999999ADDGA1021+007509999GF102991999999999999999999MA1101191999999MW1001REMMET005NEW ;EQDQ01+000000PRSWM2
0063827950999991999011521004-07220-035880FM-15+0560SBKG V0201001N00511220001CN0099001N1+02701+01701999999ADDMA1101291999999MW1001REMMET011NEW CAVOK ;EQDQ01+000000PRSWM2
0099827950999991999011522004-07220-035880FM-15+0560SBKG V0201001N005112200019N0112651N1+02601+01801999999ADDGA1021+004509999GF102991999999999999999999MA1101291999999MW1001REMMET005NEW ;EQDQ01+000000PRSWM2
0143827950999991999011600004-07220-035880FM-12+0560SBKG V0200501N005112200019N0100001N1+02311+01891101101ADDAA199000091GA1001+999999999GF100991001001999999001001KA1240M+03111MA1999999095001MD1999999+0041REMSYN017 333 10311 58004;EQDQ01  00002PRCP99
0099827950999991999011602004-07220-035880FM-15+0560SBKG V0201001N004112200019N0112651N1+02201+01901999999ADDGA1021+003009999GF102991999999999999999999MA1101591999999MW1001REMMET005NEW ;EQDQ01+000000PRSWM2
0099827950999991999011603004-07220-035880FM-15+0560SBKG V0201001N004112200019N0112651N1+02101+02001999999ADDGA1021+003009999GF102991999999999999999999MA1101491999999MW1001REMMET005NEW ;EQDQ01+000000PRSWM2
0099827950999991999011605004-07220-035880FM-15+0560SBKG V0201001N003112200019N0112651N1+02101+02001999999ADDGA1021+004509999GF104991999999999999999999MA1101391999999MW1001REMMET005NEW ;EQDQ01+000000PRSWM2
0099827950999991999011606004-07220-035880FM-15+0560SBKG V0201201N003112200019N0112651N1+02101+02001999999ADDGA1021+004509999GF102991999999999999999999MA1101391999999MW1001REMMET005NEW ;EQDQ01+000000PRSWM2
0063827950999991999011607004-07220-035880FM-15+0560SBKG V0201001N00311220001CN0099001N1+02001+02001999999ADDMA1101391999999MW1001REMMET011NEW CAVOK ;EQDQ01+000000PRSWM2
0063827950999991999011608004-07220-035880FM-15+0560SBKG V0201001N00211220001CN0099001N1+02001+02001999999ADDMA1101491999999MW1001REMMET011NEW CAVOK ;EQDQ01+000000PRSWM2
0099827950999991999011609004-07220-035880FM-15+0560SBKG V0201001N002612200019N0060001N1+02001+02001999999ADDGA1021+004509999GF104991999999999999999999MA1101491999999MW1001REMMET005NEW ;EQDQ01+000000PRSWM2
0099827950999991999011610004-07220-035880FM-15+0560SBKG V0201201N004112200019N0112651N1+02201+02001999999ADDGA1021+004509999GF104991999999999999999999MA1101591999999MW1001REMMET005NEW ;EQDQ01+000000PRSWM2
0099827950999991999011611004-07220-035880FM-15+0560SBKG V0201001N004612200019N0112651N1+02401+01901999999ADDGA1021+004509999GF104991999999999999999999MA1101691999999MW1001REMMET005NEW ;EQDQ01+000000PRSWM2
0127827950999991999011612004-07220-035880FM-12+0560SBKG V0200901N005110075019N0100001N1+02531+01781101341ADDAA199000091GF105991051041008001001001KA1240N+02091MA1999999095181MD1999999+0011REMSYN017 333 20209 58001;EQDQ01  00002PRCP99
0099827950999991999011613004-07220-035880FM-15+0560SBKG V0201101N005112200019N0112651N1+02801+01701999999ADDGA1021+007509999GF104991999999999999999999MA1101691999999MW1001REMMET005NEW ;EQDQ01+000000PRSWM2
0099827950999991999011614004-07220-035880FM-15+0560SBKG V0201301N006212200019N0112651N1+02901+01801999999ADDGA1021+009009999GF104991999999999999999999MA1101591999999MW1001REMMET005NEW ;EQDQ01+000000PRSWM2
0099827950999991999011615004-07220-035880FM-15+0560SBKG V0201301N007212200019N0112651N1+02901+01601999999ADDGA1021+009009999GF104991999999999999999999MA1101491999999MW1001REMMET005NEW ;EQDQ01+000000PRSWM2
0108827950999991999011618004-07220-035880FM-12+0560SBKG V0200501N002112200019N0100001N1+03101+01621100931ADDAA199000091GF104991041021008001001001MA1999999095431MD1999999+0081REMSYN011 333 58008;EQDQ01  00002PRCP99
0099827950999991999011619004-07220-035880FM-15+0560SBKG V0201201N006212200019N0112651N1+03101+01601999999ADDGA1021+009009999GF104991999999999999999999MA1101191999999MW1001REMMET005NEW ;EQDQ01+000000PRSWM2
0115827950999991999011621004-07220-035880FM-15+0560SBKG V0201201N006212200019N0112651N1+02701+01801999999ADDGA1021+007509999GA2021+090009999GF104991999999999999999999MA1101391999999MW1001REMMET005NEW ;EQDQ01+000000PRSWM2
0063827950999991999011622004-07220-035880FM-15+0560SBKG V0201001N00721220001CN0099001N1+02601+01801999999ADDMA1101491999999MW1001REMMET011NEW CAVOK ;EQDQ01+000000PRSWM2
0063827950999991999011623004-07220-035880FM-15+0560SBKG V0201001N00571220001CN0099001N1+02501+01701999999ADDMA1101491999999MW1001REMMET011NEW CAVOK ;EQDQ01+000000PRSWM2
0063827950999991999011700004-07220-035880FM-15+0560SBKG V0201001N00461220001CN0099001N1+02401+01801999999ADDMA1101591999999MW1001REMMET011NEW CAVOK ;EQDQ01+000000PRSWM2
0099827950999991999011702004-07220-035880FM-15+0560SBKG V0201001N005112200019N0112651N1+02201+02001999999ADDGA1021+003609999GF102991999999999999999999MA1101591999999MW1001REMMET005NEW ;EQDQ01+000000PRSWM2
0099827950999991999011704004-07220-035880FM-15+0560SBKG V0201101N004112200019N0112651N1+02201+02001999999ADDGA1021+003009999GF102991999999999999999999MA1101491999999MW1001REMMET005NEW ;EQDQ01+000000PRSWM2
0099827950999991999011710004-07220-035880FM-15+0560SBKG V0201201N003112200019N0112651N1+02301+02001999999ADDGA1021+003009999GF104991999999999999999999MA1101591999999MW1001REMMET005NEW ;EQDQ01+000000PRSWM2
0115827950999991999011711004-07220-035880FM-15+0560SBKG V0201201N004112200019N0112651N1+02501+01801999999ADDGA1021+004509999GA2021+006009999GF104991999999999999999999MA1101591999999MW1001REMMET005NEW ;EQDQ01+000000PRSWM2
0099827950999991999011713004-07220-035880FM-15+0560SBKG V0201301N005110060019N0112651N1+02801+01801999999ADDGA1071+006009999GF107991999999999999999999MA1101591999999MW1001REMMET005NEW ;EQDQ01+000000PRSWM2
0099827950999991999011714004-07220-035880FM-15+0560SBKG V0201001N005110060019N0112651N1+03001+01701999999ADDGA1071+006009999GF107991999999999999999999MA1101591999999MW1001REMMET005NEW ;EQDQ01+000000PRSWM2
0099827950999991999011715004-07220-035880FM-15+0560SBKG V0201301N006210060019N0112651N1+03101+01601999999ADDGA1071+006009999GF107991999999999999999999MA1101591999999MW1001REMMET005NEW ;EQDQ01+000000PRSWM2
0099827950999991999011716004-07220-035880FM-15+0560SBKG V0201201N006212200019N0112651N1+03101+01601999999ADDGA1021+007509999GF104991999999999999999999MA1101491999999MW1001REMMET005NEW ;EQDQ01+000000PRSWM2
0099827950999991999011717004-07220-035880FM-15+0560SBKG V0201201N006212200019N0112651N1+03201+01501999999ADDGA1021+009009999GF104991999999999999999999MA1101391999999MW1001REMMET005NEW ;EQDQ01+000000PRSWM2
0099827950999991999011719004-07220-035880FM-15+0560SBKG V0201201N005112200019N0112651N1+03101+01701999999ADDGA1021+009009999GF102991999999999999999999MA1101291999999MW1001REMMET005NEW ;EQDQ01+000000PRSWM2
0099827950999991999011720004-07220-035880FM-15+0560SBKG V0201201N005112200019N0112651N1+03001+01601999999ADDGA1021+009009999GF102991999999999999999999MA1101391999999MW1001REMMET005NEW ;EQDQ01+000000PRSWM2
0063827950999991999011723004-07220-035880FM-15+0560SBKG V0200901N00511220001CN0099001N1+02501+01801999999ADDMA1101691999999MW1001REMMET011NEW CAVOK ;EQDQ01+000000PRSWM2
0044827950999991999011800004-07220-035880FM-15+0560SBKG V0200901N00511220001CN0099001N1+02401+02001999999ADDMA1101691999999MW1001REMMET011NEW CAVOK ;
0080827950999991999011801004-07220-035880FM-15+0560SBKG V0201001N006212200019N0112651N1+02301+02001999999ADDGA1021+004509999GF104991999999999999999999MA1101691999999MW1001REMMET005NEW ;
0080827950999991999011802004-07220-035880FM-15+0560SBKG V0200901N005112200019N0112651N1+02301+02001999999ADDGA1021+003009999GF104991999999999999999999MA1101691999999MW1001REMMET005NEW ;
0080827950999991999011803004-07220-035880FM-15+0560SBKG V0201001N005112200019N0112651N1+02301+02101999999ADDGA1021+003009999GF104991999999999999999999MA1101691999999MW1001REMMET005NEW ;
0080827950999991999011804004-07220-035880FM-15+0560SBKG V0201201N005112200019N0112651N1+02301+02101999999ADDGA1021+003009999GF104991999999999999999999MA1101591999999MW1001REMMET005NEW ;
0080827950999991999011805004-07220-035880FM-15+0560SBKG V0201201N004112200019N0112651N1+02201+02101999999ADDGA1021+003009999GF104991999999999999999999MA1101491999999MW1001REMMET005NEW ;
0080827950999991999011806004-07220-035880FM-15+0560SBKG V0201201N004112200019N0112651N1+02201+02101999999ADDGA1021+003009999GF104991999999999999999999MA1101491999999MW1001REMMET005NEW ;
0080827950999991999011807004-07220-035880FM-15+0560SBKG V0201201N004112200019N0112651N1+02201+02101999999ADDGA1021+003009999GF104991999999999999999999MA1101491999999MW1001REMMET005NEW ;
0080827950999991999011808004-07220-035880FM-15+0560SBKG V0201001N004112200019N0112651N1+02201+02101999999ADDGA1021+003009999GF104991999999999999999999MA1101491999999MW1001REMMET005NEW ;
0096827950999991999011809004-07220-035880FM-15+0560SBKG V0201201N003110750019N0112651N1+02201+02101999999ADDGA1021+003009999GA2071+075009999GF107991999999999999999999MA1101591999999MW1001REMMET005NEW ;
0096827950999991999011810004-07220-035880FM-15+0560SBKG V0201201N003112200019N0112651N1+02301+02101999999ADDGA1021+002709999GA2021+004509999GF104991999999999999999999MA1101691999999MW1001REMMET005NEW ;
0112827950999991999011811004-07220-035880FM-15+0560SBKG V0201201N004110042019N0112651N1+02301+02001999999ADDGA1021+003009999GA2071+004209999GA3071+081009999GF107991999999999999999999MA1101691999999MW1001REMMET005NEW ;
0214827950999991999011812004-07220-035880SY-MT+0560SBKG V0200901N002610270019N0100001N1+02391+01891101361ADDAA199000191AY151061AY221061GA1021+003609999GA2021+006009029GA3071+027009999GF107991051081008001021001KA1240N+02051MA1101691095201MD1999999+0001MW1031REMSYN023 333 20205 58000 69914;MET005NEW ;EQDQ01    003PRSWM1
0080827950999991999011814004-07220-035880FM-15+0560SBKG V0201001N003112200019N0112651N1+02901+01801999999ADDGA1021+007509999GF104991999999999999999999MA1101591999999MW1001REMMET005NEW ;
0080827950999991999011815004-07220-035880FM-15+0560SBKG V0201201N004112200019N0112651N1+03001+01901999999ADDGA1021+009009029GF104991999999999999999999MA1101591999999MW1001REMMET005NEW ;
0099827950999991999011816004-07220-035880FM-15+0560SBKG V0201001N006210060019N0080001N1+02601+02101999999ADDGA1071+006009999GF107991999999999999999999MA1101491999999MW1161REMMET005NEW ;EQDQ01    003PRSWM1
0080827950999991999011817004-07220-035880FM-15+0560SBKG V0201201N007210060019N0112651N1+02601+02101999999ADDGA1071+006009999GF107991999999999999999999MA1101491999999MW1001REMMET005NEW ;
0189827950999991999011818004-07220-035880SY-MT+0560SBKG V0200501N005710048019N0100001N1+02401+02011101181ADDAA199000091AY101061AY291061GA1071+004809999GA2071+030009999GF108991041081008001081999MA1101491095011MD1999999+0151MW1021REMSYN011 333 58015;MET005NEW ;EQDQ01  00002PRCP99Q02    003PRSWM1
0096827950999991999011819004-07220-035880FM-15+0560SBKG V0201001N005110300019N0112651N1+02601+02101999999ADDGA1021+004809999GA2071+030009999GF107991999999999999999999MA1101491999999MW1001REMMET005NEW ;
0080827950999991999011821004-07220-035880FM-15+0560SBKG V0201001N003110270019N0112651N1+02401+02001999999ADDGA1071+027009999GF107991999999999999999999MA1101491999999MW1001REMMET005NEW ;
0096827950999991999011822004-07220-035880FM-15+0560SBKG V0201001N003110270019N0112651N1+02401+02001999999ADDGA1021+004809999GA2071+027009999GF107991999999999999999999MA1101591999999MW1001REMMET005NEW ;
0198827950999991999011900004-07220-035880SY-MT+0560SBKG V0200501N004110450019N0100001N1+02231+02031101251ADDAA199000191AY151061AY221061GA1021+004509999GF105991031051008001021001KA1240M+02921MA1101691095091MD1999999-0151MW1021REMSYN023 333 10292 59015 69921;MET005NEW ;EQDQ01+000000PRSWM2Q02    003PRSWM1
0099827950999991999011902004-07220-035880FM-15+0560SBKG V0200901N003610030019N0112651N1+02301+02101999999ADDGA1071+003009999GF107991999999999999999999MA1101691999999MW1001REMMET005NEW ;EQDQ01+000000PRSWM2
0099827950999991999011903004-07220-035880FM-15+0560SBKG V0200901N003110030019N0112651N1+02201+02101999999ADDGA1071+003009999GF107991999999999999999999MA1101691999999MW1001REMMET005NEW ;EQDQ01+000000PRSWM2
0099827950999991999011904004-07220-035880FM-15+0560SBKG V0201201N003110027019N0112651N1+02201+02101999999ADDGA1071+002709999GF107991999999999999999999MA1101591999999MW1001REMMET005NEW ;EQDQ01+000000PRSWM2
0099827950999991999011905004-07220-035880FM-15+0560SBKG V0200901N003110027019N0112651N1+02201+02101999999ADDGA1071+002709999GF107991999999999999999999MA1101491999999MW1001REMMET005NEW ;EQDQ01+000000PRSWM2
0099827950999991999011907004-07220-035880FM-15+0560SBKG V0201301N002610027019N0112651N1+02201+02101999999ADDGA1071+002709999GF107991999999999999999999MA1101491999999MW1001REMMET005NEW ;EQDQ01+000000PRSWM2
0115827950999991999011908004-07220-035880FM-15+0560SBKG V0201201N002110090019N0112651N1+02201+02101999999ADDGA1021+002109999GA2071+009009999GF107991999999999999999999MA1101491999999MW1001REMMET005NEW ;EQDQ01+000000PRSWM2
0099827950999991999011910004-07220-035880FM-15+0560SBKG V0201001N003112200019N0112651N1+02301+02001999999ADDGA1021+004509999GF104991999999999999999999MA1101591999999MW1001REMMET005NEW ;EQDQ01+000000PRSWM2
0099827950999991999011911004-07220-035880FM-15+0560SBKG V0201101N005112200019N0112651N1+02501+02001999999ADDGA1021+004809999GF104991999999999999999999MA1101491999999MW1001REMMET005NEW ;EQDQ01+000000PRSWM2
0166827950999991999011912004-07220-035880SY-MT+0560SBKG V0200501N003612200019N0100001N1+02571+01921101361ADDAA199000191GA1021+006009999GF105991031041008001001011KA1240N+02171MA1101491095201MD1999999+0001MW1001REMSYN023 333 20217 58000 69924;MET005NEW ;EQDQ01+000000PRSWM2
0099827950999991999011913004-07220-035880FM-15+0560SBKG V0201001N003112200019N0112651N1+02801+01901999999ADDGA1021+006009999GF104991999999999999999999MA1101591999999MW1001REMMET005NEW ;EQDQ01+000000PRSWM2
0099827950999991999011914004-07220-035880FM-15+0560SBKG V0201201N004110060019N0112651N1+02801+01901999999ADDGA1071+006009999GF107991999999999999999999MA1101691999999MW1001REMMET005NEW ;EQDQ01+000000PRSWM2
0099827950999991999011915004-07220-035880FM-15+0560SBKG V0201401N003110060019N0112651N1+02901+01901999999ADDGA1071+006009999GF107991999999999999999999MA1101591999999MW1001REMMET005NEW ;EQDQ01+000000PRSWM2
0099827950999991999011916004-07220-035880FM-15+0560SBKG V0200801N003110075019N0112651N1+03001+01801999999ADDGA1071+007509999GF107991999999999999999999MA1101491999999MW1001REMMET005NEW ;EQDQ01+000000PRSWM2
0099827950999991999011917004-07220-035880FM-15+0560SBKG V0200801N003110075019N0112651N1+03101+01801999999ADDGA1071+007509999GF107991999999999999999999MA1101391999999MW1001REMMET005NEW ;EQDQ01+000000PRSWM2
0108827950999991999011918004-07220-035880FM-12+0560SBKG V0200901N004612200019N0100001N1+03031+01711100921ADDAA199000091GF104991041031008001001001MA1999999094821MD1999999-0191REMSYN011 333 59019;EQDQ01  00002PRCP99
0099827950999991999011919004-07220-035880FM-15+0560SBKG V0201001N004110075019N0112651N1+03001+01901999999ADDGA1071+007509999GF107991999999999999999999MA1101291999999MW1001REMMET005NEW ;EQDQ01+000000PRSWM2
0115827950999991999011921004-07220-035880FM-15+0560SBKG V0200901N006212200019N0112651N1+02601+02001999999ADDGA1021+006009999GA2021+090009999GF104991999999999999999999MA1101291999999MW1001REMMET005NEW ;EQDQ01+000000PRSWM2
0099827950999991999011922004-07220-035880FM-15+0560SBKG V0201001N005110135019N0112651N1+02501+02001999999ADDGA1071+013509999GF107991999999999999999999MA1101391999999MW1001REMMET005NEW ;EQDQ01+000000PRSWM2
0099827950999991999011923004-07220-035880FM-15+0560SBKG V0201001N007210036019N0112651N1+02401+02101999999ADDGA1071+003609999GF107991999999999999999999MA1101491999999MW1001REMMET005NEW ;EQDQ01+000000PRSWM2
0099827950999991999012001004-07220-035880FM-15+0560SBKG V0201001N004110036019N9999999N1+02301+02001999999ADDGA1071+003609999GF107991999999999999999999MA1101591999999MW1001REMMET005NEW ;EQDQ01+000000PRSWM2
0115827950999991999012002004-07220-035880FM-15+0560SBKG V0201001N004110036019N0112651N1+02301+02001999999ADDGA1021+002409999GA2071+003609999GF107991999999999999999999MA1101801999999MW1001REMMET005NEW ;EQDQ01+000000PRSWM2
0099827950999991999012003004-07220-035880FM-15+0560SBKG V0201001N003612200019N0112651N1+02201+02101999999ADDGA1021+002409999GF104991999999999999999999MA1101591999999MW1001REMMET005NEW ;EQDQ01+000000PRSWM2
0099827950999991999012004004-07220-035880FM-15+0560SBKG V0201001N003112200019N0112651N1+02201+02101999999ADDGA1021+003009999GF104991999999999999999999MA1101491999999MW1001REMMET005NEW ;EQDQ01+000000PRSWM2
0099827950999991999012005004-07220-035880FM-15+0560SBKG V0201001N004112200019N0112651N1+02201+02001999999ADDGA1021+003009999GF104991999999999999999999MA1101491999999MW1001REMMET005NEW ;EQDQ01+000000PRSWM2
0099827950999991999012006004-07220-035880FM-15+0560SBKG V0201001N003112200019N0112651N1+02201+02001999999ADDGA1021+003009999GF104991999999999999999999MA1101391999999MW1001REMMET005NEW ;EQDQ01+000000PRSWM2
0099827950999991999012007004-07220-035880FM-15+0560SBKG V0201001N003112200019N0112651N1+02101+02001999999ADDGA1021+003009999GF104991999999999999999999MA1101391999999MW1001REMMET005NEW ;EQDQ01+000000PRSWM2
0099827950999991999012008004-07220-035880FM-15+0560SBKG V0200901N002112200019N0112651N1+02101+02001999999ADDGA1021+003009999GF104991999999999999999999MA1101491999999MW1001REMMET005NEW ;EQDQ01+000000PRSWM2
0099827950999991999012009004-07220-035880FM-15+0560SBKG V0201001N002112200019N0112651N1+02101+02001999999ADDGA1021+004509999GF104991999999999999999999MA1101491999999MW1001REMMET005NEW ;EQDQ01+000000PRSWM2
0099827950999991999012011004-07220-035880FM-15+0560SBKG V0201001N003110060019N0112651N1+02501+02101999999ADDGA1071+006009999GF107991999999999999999999MA1101591999999MW1001REMMET005NEW ;EQDQ01+000000PRSWM2
0099827950999991999012012004-07220-035880FM-15+0560SBKG V0201001N003110075019N0112651N1+02601+01801999999ADDGA1071+007509999GF107991999999999999999999MA1101591999999MW1001REMMET005NEW ;EQDQ01+000000PRSWM2
0099827950999991999012013004-07220-035880FM-15+0560SBKG V0201301N003110075019N0112651N1+02801+01701999999ADDGA1071+007509999GF107991999999999999999999MA1101591999999MW1001REMMET005NEW ;EQDQ01+000000PRSWM2
0088827950999991999012015004-07220-035880FM-15+0560SBKG V0201001N003110075019N0112651N1+02801+01701999999ADDGA1071+007509999GF107991999999999999999999MW1001REMMET009NEW 1015;EQDQ01+000000PRSWM2
0099827950999991999012017004-07220-035880FM-15+0560SBKG V0201001N003110090019N0112651N1+03001+01601999999ADDGA1071+009009999GF107991999999999999999999MA1101391999999MW1001REMMET005NEW ;EQDQ01+000000PRSWM2
0108827950999991999012018004-07220-035880FM-12+0560SBKG V0200501N002112200019N0100001N1+03021+01691100921ADDAA199000091GF104991041021008001001001MA1999999094801MD1999999-0021REMSYN011 333 59002;EQDQ01  00002PRCP99
0099827950999991999012021004-07220-035880FM-15+0560SBKG V0201101N007212200019N0112651N1+02701+01901999999ADDGA1021+007509999GF102991999999999999999999MA1101291999999MW1001REMMET005NEW ;EQDQ01+000000PRSWM2
0099827950999991999012023004-07220-035880FM-15+0560SBKG V0201001N006212200019N0112651N1+02501+02001999999ADDGA1021+003009999GF104991999999999999999999MA1101391999999MW1001REMMET005NEW ;EQDQ01+000000PRSWM2
0176827950999991999012100004-07220-035880SY-MT+0560SBKG V0200501N00511007501CN0100001N1+02321+02031101231ADDAA199000091GA1021+002409999GF106991061041008001001001KA1240M+03131MA1101491095081MD1999999+0061MW1001REMSYN017 333 10313 58006;MET005NEW ;EQDQ01+000000PRSWM2Q02  00002PRCP99
0099827950999991999012101004-07220-035880FM-15+0560SBKG V0201001N004110024019N0112651N1+02401+02101999999ADDGA1071+002409999GF107991999999999999999999MA1101591999999MW1001REMMET005NEW ;EQDQ01+000000PRSWM2
0099827950999991999012102004-07220-035880FM-15+0560SBKG V0200901N003110024019N0112651N1+02401+02101999999ADDGA1071+002409999GF107991999999999999999999MA1101591999999MW1001REMMET005NEW ;EQDQ01+000000PRSWM2
0099827950999991999012103004-07220-035880FM-15+0560SBKG V0201001N003612200019N0112651N1+02401+02101999999ADDGA1021+003009999GF104991999999999999999999MA1101491999999MW1001REMMET005NEW ;EQDQ01+000000PRSWM2
0099827950999991999012104004-07220-035880FM-15+0560SBKG V0200901N004112200019N0112651N1+02301+02001999999ADDGA1021+003009999GF104991999999999999999999MA1101491999999MW1001REMMET005NEW ;EQDQ01+000000PRSWM2
0099827950999991999012105004-07220-035880FM-15+0560SBKG V0200801N002112200019N0112651N1+02301+02101999999ADDGA1021+003009999GF104991999999999999999999MA1101391999999MW1001REMMET005NEW ;EQDQ01+000000PRSWM2
0099827950999991999012106004-07220-035880FM-15+0560SBKG V0200901N002112200019N0112651N1+02301+02101999999ADDGA1021+003009999GF104991999999999999999999MA1101391999999MW1001REMMET005NEW ;EQDQ01+000000PRSWM2
0099827950999991999012107004-07220-035880FM-15+0560SBKG V0201101N003110030019N0112651N1+02201+02101999999ADDGA1071+003009999GF107991999999999999999999MA1101391999999MW1001REMMET005NEW ;EQDQ01+000000PRSWM2
0115827950999991999012108004-07220-035880FM-15+0560SBKG V0201001N002612200019N0112651N1+02201+02101999999ADDGA1021+003009999GA2021+004509999GF104991999999999999999999MA1101391999999MW1001REMMET005NEW ;EQDQ01+000000PRSWM2
0115827950999991999012110004-07220-035880FM-15+0560SBKG V0201001N003112200019N0112651N1+02301+02001999999ADDGA1021+003609999GA2021+024009999GF104991999999999999999999MA1101491999999MW1001REMMET005NEW ;EQDQ01+000000PRSWM2
0176827950999991999012112004-07220-035880SY-MT+0560SBKG V0200501N003612200019N0100001N1+02541+01881101171ADDAA199000091GA1021+005409999GF104991031021008001021001KA1240N+02191MA1101491095031MD1999999-0121MW1001REMSYN017 333 20219 59012;MET005NEW ;EQDQ01+000000PRSWM2Q02  00002PRCP99
0099827950999991999012113004-07220-035880FM-15+0560SBKG V0201201N004110060019N0112651N1+02701+01901999999ADDGA1071+006009999GF107991999999999999999999MA1101491999999MW1001REMMET005NEW ;EQDQ01+000000PRSWM2
0099827950999991999012114004-07220-035880FM-15+0560SBKG V0201101N004112200019N0112651N1+02901+01801999999ADDGA1021+007509999GF104991999999999999999999MA1101491999999MW1001REMMET005NEW ;EQDQ01+000000PRSWM2
0099827950999991999012116004-07220-035880FM-15+0560SBKG V0201001N004112200019N0112651N1+03001+01801999999ADDGA1021+007509999GF104991999999999999999999MA1101291999999MW1001REMMET005NEW ;EQDQ01+000000PRSWM2
0099827950999991999012117004-07220-035880FM-15+0560SBKG V0201001N005110075019N0112651N1+03101+01801999999ADDGA1071+007509999GF107991999999999999999999MA1101191999999MW1001REMMET005NEW ;EQDQ01+000000PRSWM2
0189827950999991999012118004-07220-035880SY-MT+0560SBKG V0200501N005710075019N0100001N1+02841+01931100941ADDAA199000091GA1021+004509999GA2071+007509999GF199999021031008001021001MA1101191094821MD1999999+0021MW1001REMSYN011 333 58002;MET005NEW ;EQDQ01+000052SCOTCVQ02+000000PRSWM2Q03  00002PRCP99
0115827950999991999012121004-07220-035880FM-15+0560SBKG V0201001N005112200019N0112651N1+02601+02001999999ADDGA1021+004509999GA2021+006009999GF104991999999999999999999MA1101191999999MW1001REMMET005NEW ;EQDQ01+000000PRSWM2
0099827950999991999012122004-07220-035880FM-15+0560SBKG V0201001N005112200019N0112651N1+02501+02001999999ADDGA1021+004509999GF104991999999999999999999MA1101391999999MW1001REMMET005NEW ;EQDQ01+000000PRSWM2
0099827950999991999012123004-07220-035880FM-15+0560SBKG V0201201N006712200019N0112651N1+02401+02001999999ADDGA1021+004509999GF104991999999999999999999MA1101491999999MW1001REMMET005NEW ;EQDQ01+000000PRSWM2
0208827950999991999012200004-07220-035880SY-MT+0560SBKG V0200501N004119999999N0100001N1+02331+02001101211ADDAA199000091GA1071+004509999GF104991999061008001001001KA1240M+03051MA1101491095071MD1999999-0071MW1001REMSYN017 333 10305 59007;MET005NEW ;EQDQ01+000000PRSWM2Q02+000052SCOTLCQ03  00002PRCP99Q04 004503SCOCIG
0115827950999991999012207004-07220-035880FM-15+0560SBKG V0201001N003112200019N0112651N1+02201+02101999999ADDGA1021+002109999GA2021+004509999GF104991999999999999999999MA1101391999999MW1001REMMET005NEW ;EQDQ01+000000PRSWM2
0099827950999991999012209004-07220-035880FM-15+0560SBKG V0201001N003110015019N0112651N1+02201+02201999999ADDGA1071+001509999GF107991999999999999999999MA1101491999999MW1001REMMET005NEW ;EQDQ01+000000PRSWM2
0121827950999991999012210004-07220-035880FM-15+0560SBKG V0201001N004110015019N0015001N1+02201+02201999999ADDGA1071+001509999GF107991999999999999999999MA1101491999999MW1101MW2611REMMET005NEW ;EQDQ01+000003PRSWM1Q02    003PRSWM1
0204827950999991999012212004-07220-035880SY-MT+0560SBKG V0200501N001510030019N0100001N1+02231+02091101341ADDAA199002091AY161061AY221061GA1071+003009999GA2071+024009999GF107991041081008001021001KA1240N+02101MA1101591095171MD1999999+0141MW1101MW2151REMSYN023 333 20210 58014 60024;MET005NEW ;EQDQ01    003PRSWM1
0115827950999991999012214004-07220-035880FM-15+0560SBKG V0201301N004110060019N0112651N1+02601+01901999999ADDGA1021+004509999GA2071+006009999GF107991999999999999999999MA1101591999999MW1001REMMET005NEW ;EQDQ01+000000PRSWM2
0099827950999991999012216004-07220-035880FM-15+0560SBKG V0201201N004610075019N0112651N1+02901+01801999999ADDGA1071+007509999GF107991999999999999999999MA1101491999999MW1001REMMET005NEW ;EQDQ01+000000PRSWM2
0099827950999991999012217004-07220-035880FM-15+0560SBKG V0201201N004110075019N0112651N1+03001+01801999999ADDGA1071+007509999GF107991999999999999999999MA1101391999999MW1001REMMET005NEW ;EQDQ01+000000PRSWM2
0179827950999991999012218004-07220-035880SY-MT+0560SBKG V0201401N00311007501CN0100001N1+02921+01741101081ADDAA199000191AY151061AY221061GA1021+009009029GF105991051031008001001001MA1101291094971MD1999999+0151MW1021REMSYN017 333 58015 69921;MET005NEW ;EQDQ01+000000PRSWM2Q02    003PRSWM1
0099827950999991999012220004-07220-035880FM-15+0560SBKG V0201201N005712200019N0112651N1+03001+01901999999ADDGA1021+009009999GF102991999999999999999999MA1101291999999MW1001REMMET005NEW ;EQDQ01+000000PRSWM2
0063827950999991999012221004-07220-035880FM-15+0560SBKG V0201201N00621220001CN0099001N1+02801+01901999999ADDMA1101391999999MW1001REMMET011NEW CAVOK ;EQDQ01+000000PRSWM2
0063827950999991999012222004-07220-035880FM-15+0560SBKG V0200901N00621220001CN0099001N1+02601+01901999999ADDMA1101391999999MW1001REMMET011NEW CAVOK ;EQDQ01+000000PRSWM2
0063827950999991999012223004-07220-035880FM-15+0560SBKG V0201001N00511220001CN0099001N1+02501+01901999999ADDMA1101491999999MW1001REMMET011NEW CAVOK ;EQDQ01+000000PRSWM2
0176827950999991999012300004-07220-035880SY-MT+0560SBKG V0200501N003112200019N0100001N1+02311+02031101171ADDAA199000091GA1021+004509999GF103991031011008001001001KA1240M+02981MA1101591095011MD1999999-0061MW1001REMSYN017 333 10298 59006;MET005NEW ;EQDQ01+000000PRSWM2Q02  00002PRCP99
0099827950999991999012301004-07220-035880FM-15+0560SBKG V0201001N005112200019N0112651N1+02301+01901999999ADDGA1021+004509999GF102991999999999999999999MA1101591999999MW1001REMMET005NEW ;EQDQ01+000000PRSWM2
0099827950999991999012302004-07220-035880FM-15+0560SBKG V0201001N004112200019N0112651N1+02301+02001999999ADDGA1021+003009999GF104991999999999999999999MA1101591999999MW1001REMMET005NEW ;EQDQ01+000000PRSWM2
0099827950999991999012303004-07220-035880FM-15+0560SBKG V0200901N005112200019N0112651N1+02201+02001999999ADDGA1021+003009999GF104991999999999999999999MA1101591999999MW1001REMMET005NEW ;EQDQ01+000000PRSWM2
0099827950999991999012304004-07220-035880FM-15+0560SBKG V0201201N003112200019N0112651N1+02201+02101999999ADDGA1021+003009999GF104991999999999999999999MA1101491999999MW1001REMMET005NEW ;EQDQ01+000000PRSWM2
0099827950999991999012305004-07220-035880FM-15+0560SBKG V0201001N003112200019N0112651N1+02201+02101999999ADDGA1021+003009999GF104991999999999999999999MA1101391999999MW1001REMMET005NEW ;EQDQ01+000000PRSWM2
0099827950999991999012307004-07220-035880FM-15+0560SBKG V0201201N003110030019N0112651N1+02201+02101999999ADDGA1071+003009999GF107991999999999999999999MA1101391999999MW1001REMMET005NEW ;EQDQ01+000000PRSWM2
0115827950999991999012308004-07220-035880FM-15+0560SBKG V0201001N002610030019N0112651N1+02201+02101999999ADDGA1021+002409999GA2071+003009999GF107991999999999999999999MA1101391999999MW1001REMMET005NEW ;EQDQ01+000000PRSWM2
0115827950999991999012309004-07220-035880FM-15+0560SBKG V0201201N003112200019N0112651N1+02201+02101999999ADDGA1021+003009999GA2021+004509999GF104991999999999999999999MA1101391999999MW1001REMMET005NEW ;EQDQ01+000000PRSWM2
0115827950999991999012310004-07220-035880FM-15+0560SBKG V0201201N005112200019N0112651N1+02201+02101999999ADDGA1021+003009999GA2021+003909999GF104991999999999999999999MA1101591999999MW1001REMMET005NEW ;EQDQ01+000000PRSWM2
0099827950999991999012311004-07220-035880FM-15+0560SBKG V0201001N006212200019N0112651N1+02501+02001999999ADDGA1021+006009999GF104991999999999999999999MA1101591999999MW1001REMMET005NEW ;EQDQ01+000000PRSWM2
0192827950999991999012312004-07220-035880SY-MT+0560SBKG V0200501N004110075019N9999999N1+02541+01811101191ADDAA199000091GA1021+007509999GF105991051021008001001001KA1240N+02181MA1101591095311MD1999999-0121MW1001REMSYN017 333 20218 59012;MET005NEW ;EQDQ01+020002VODIS Q02+000000PRSWM2Q03  00002PRCP99
0099827950999991999012313004-07220-035880FM-15+0560SBKG V0201201N005112200019N0112651N1+02801+02001999999ADDGA1021+007509999GF104991999999999999999999MA1101591999999MW1001REMMET005NEW ;EQDQ01+000000PRSWM2
0099827950999991999012314004-07220-035880FM-15+0560SBKG V0200701N004112200019N0112651N1+03001+01901999999ADDGA1021+009009999GF104991999999999999999999MA1101491999999MW1001REMMET005NEW ;EQDQ01+000000PRSWM2
0099827950999991999012315004-07220-035880FM-15+0560SBKG V0201201N004112200019N0112651N1+03101+01901999999ADDGA1021+009009999GF104991999999999999999999MA1101391999999MW1001REMMET005NEW ;EQDQ01+000000PRSWM2
0099827950999991999012316004-07220-035880FM-15+0560SBKG V0201001N005110090019N0112651N1+03101+01901999999ADDGA1071+009009999GF107991999999999999999999MA1101291999999MW1001REMMET005NEW ;EQDQ01+000000PRSWM2
0108827950999991999012318004-07220-035880FM-12+0560SBKG V0200501N003110075019N0100001N1+03111+01791100681ADDAA199000091GF105991051031008001001001MA1999999094601MD1999999-0371REMSYN011 333 59037;EQDQ01  00002PRCP99
0099827950999991999012319004-07220-035880FM-15+0560SBKG V0200901N005112200019N0112651N1+03101+01901999999ADDGA1021+009009999GF104991999999999999999999MA1101081999999MW1001REMMET005NEW ;EQDQ01+000000PRSWM2
0099827950999991999012320004-07220-035880FM-15+0560SBKG V0200901N006212200019N0112651N1+03001+02001999999ADDGA1021+009009999GF104991999999999999999999MA1101191999999MW1001REMMET005NEW ;EQDQ01+000000PRSWM2
0099827950999991999012321004-07220-035880FM-15+0560SBKG V0201001N006212200019N0112651N1+02701+02001999999ADDGA1021+009009999GF102991999999999999999999MA1101191999999MW1001REMMET005NEW ;EQDQ01+000000PRSWM2
0099827950999991999012322004-07220-035880FM-15+0560SBKG V0201001N005112200019N0112651N1+02601+02001999999ADDGA1021+006009999GF104991999999999999999999MA1101291999999MW1001REMMET005NEW ;EQDQ01+000000PRSWM2
0099827950999991999012323004-07220-035880FM-15+0560SBKG V0201001N006212200019N0112651N1+02501+02101999999ADDGA1021+006009999GF104991999999999999999999MA1101291999999MW1001REMMET005NEW ;EQDQ01+000000PRSWM2
0176827950999991999012400004-07220-035880SY-MT+0560SBKG V0200501N004612200019N0100001N1+02321+02071100941ADDAA199000091GA1021+006009999GF104991021021008001041001KA1240M+03201MA1101391094821MD1999999-0191MW1001REMSYN017 333 10320 59019;MET005NEW ;EQDQ01+000000PRSWM2Q02  00002PRCP99
0099827950999991999012402004-07220-035880FM-15+0560SBKG V0201201N004112200019N0112651N1+02301+02101999999ADDGA1021+004809999GF104991999999999999999999MA1101391999999MW1001REMMET005NEW ;EQDQ01+000000PRSWM2
0088827950999991999012403004-07220-035880FM-15+0560SBKG V0201001N006210045019N0112651N1+02301+02201999999ADDGA1071+004509999GF107991999999999999999999MW1001REMMET009NEW Q103;EQDQ01+000000PRSWM2
0099827950999991999012404004-07220-035880FM-15+0560SBKG V0201201N004110030019N0112651N1+02301+02101999999ADDGA1071+003009999GF107991999999999999999999MA1101291999999MW1001REMMET005NEW ;EQDQ01+000000PRSWM2
0088827950999991999012405004-07220-035880FM-15+0560SBKG V0201201N004610027019N0112651N1+02301+02201999999ADDGA1071+002709999GF107991999999999999999999MW1001REMMET009NEW Q012;EQDQ01+000000PRSWM2
0099827950999991999012406004-07220-035880FM-15+0560SBKG V0201201N003610027019N0112651N1+02201+02201999999ADDGA1071+002709999GF107991999999999999999999MA1101191999999MW1001REMMET005NEW ;EQDQ01+000000PRSWM2
0131827950999991999012407004-07220-035880FM-15+0560SBKG V0201201N003110015019N0090001N1+02201+02201999999ADDGA1071+001509999GA2071+002709999GF107991999999999999999999MA1101191999999MW1611REMMET005NEW ;EQDQ01+000003PRSWM1Q02    003PRSWM1
0105827950999991999012408004-07220-035880FM-15+0560SBKG V0201201N00311220001CN0090001N1+02201+02101999999ADDGA1071+002409999GA2021+003009999MA1101291999999MW1001REMMET005NEW ;EQDQ01+000042SCOTCVQ02+000000PRSWM2
0099827950999991999012409004-07220-035880FM-15+0560SBKG V0201001N003112200019N0090001N1+02201+02101999999ADDGA1021+002409999GF104991999999999999999999MA1101291999999MW1001REMMET005NEW ;EQDQ01+000000PRSWM2
0160827950999991999012412004-07220-035880SY-MT+0560SBKG V0200501N005112200019N0100001N1+02531+01881101101ADDAA199000021GA1021+006009999GF104991021021008001001011KA1240N+02201MA1101391104962MD1999999-0091MW1001REMSYN017 333 20220 59009;MET005NEW ;EQDQ01+000000PRSWM2
0099827950999991999012414004-07220-035880FM-15+0560SBKG V0201001N005112200019N0112651N1+02901+01901999999ADDGA1021+009009999GF104991999999999999999999MA1101391999999MW1001REMMET005NEW ;EQDQ01+000000PRSWM2
0099827950999991999012416004-07220-035880FM-15+0560SBKG V0201201N005110090019N0112651N1+03201+01801999999ADDGA1071+009009999GF107991999999999999999999MA1101191999999MW1001REMMET005NEW ;EQDQ01+000000PRSWM2
0099827950999991999012417004-07220-035880FM-15+0560SBKG V0201001N006210090019N0112651N1+03201+01801999999ADDGA1071+009009999GF107991999999999999999999MA1101081999999MW1001REMMET005NEW ;EQDQ01+000000PRSWM2
0099827950999991999012419004-07220-035880FM-15+0560SBKG V0201001N006712200019N0112651N1+03101+01701999999ADDGA1021+009009999GF104991999999999999999999MA1101021999999MW1001REMMET005NEW ;EQDQ01+000000PRSWM2
0115827950999991999012420004-07220-035880FM-15+0560SBKG V0200901N005112200019N0112651N1+03001+01801999999ADDGA1021+009009999GA2021+090009999GF104991999999999999999999MA1101081999999MW1001REMMET005NEW ;EQDQ01+000000PRSWM2
0099827950999991999012421004-07220-035880FM-15+0560SBKG V0201101N007212200019N0112651N1+02801+01901999999ADDGA1021+007509999GF104991999999999999999999MA1101081999999MW1001REMMET005NEW ;EQDQ01+000000PRSWM2
0063827950999991999012423004-07220-035880FM-15+0560SBKG V0201001N00771220001CN0099001N1+02501+01901999999ADDMA1101291999999MW1001REMMET011NEW CAVOK ;EQDQ01+000000PRSWM2
0099827950999991999012501004-07220-035880FM-15+0560SBKG V0201001N007212200019N0112651N1+02301+02001999999ADDGA1021+004509999GF102991999999999999999999MA1101391999999MW1001REMMET005NEW ;EQDQ01+000000PRSWM2
0099827950999991999012502004-07220-035880FM-15+0560SBKG V0201001N005112200019N0112651N1+02301+02101999999ADDGA1021+003009999GF102991999999999999999999MA1101391999999MW1001REMMET005NEW ;EQDQ01+000000PRSWM2
0115827950999991999012503004-07220-035880FM-15+0560SBKG V0201101N006212200019N0112651N1+02301+02101999999ADDGA1021+002409999GA2021+003609999GF104991999999999999999999MA1101291999999MW1001REMMET005NEW ;EQDQ01+000000PRSWM2
0115827950999991999012504004-07220-035880FM-15+0560SBKG V0200901N005112200019N0112651N1+02301+02101999999ADDGA1021+002409999GA2021+003009999GF104991999999999999999999MA1101191999999MW1001REMMET005NEW ;EQDQ01+000000PRSWM2
0099827950999991999012505004-07220-035880FM-15+0560SBKG V0200901N005110030019N0112651N1+02201+02101999999ADDGA1071+003009999GF107991999999999999999999MA1101191999999MW1001REMMET005NEW ;EQDQ01+000000PRSWM2
0099827950999991999012507004-07220-035880FM-15+0560SBKG V0200901N004110030019N0112651N1+02201+02101999999ADDGA1071+003009999GF107991999999999999999999MA1101081999999MW1001REMMET005NEW ;EQDQ01+000000PRSWM2
0099827950999991999012509004-07220-035880FM-15+0560SBKG V0201001N003112200019N0060001N1+02201+02101999999ADDGA1021+003009999GF104991999999999999999999MA1101291999999MW1001REMMET005NEW ;EQDQ01+000000PRSWM2
0099827950999991999012510004-07220-035880FM-15+0560SBKG V0201201N003610045019N0112651N1+02301+02101999999ADDGA1071+004509999GF107991999999999999999999MA1101291999999MW1001REMMET005NEW ;EQDQ01+000000PRSWM2
0192827950999991999012512004-07220-035880SY-MT+0560SBKG V0200901N005110060019N0100001N1+02561+01901100911ADDAA199000091GA1071+006009999GF199999061041008001001001KA1240N+02171MA1101391094791MD1999999-0171MW1001REMSYN017 333 20217 59017;MET005NEW ;EQDQ01+000062SCOTCVQ02+000000PRSWM2Q03  00002PRCP99
0099827950999991999012513004-07220-035880FM-15+0560SBKG V0201201N005110075019N0112651N1+02801+02001999999ADDGA1071+007509999GF107991999999999999999999MA1101391999999MW1001REMMET005NEW ;EQDQ01+000000PRSWM2
0099827950999991999012516004-07220-035880FM-15+0560SBKG V0201101N006710090019N0112651N1+03001+01901999999ADDGA1071+009009999GF107991999999999999999999MA1101191999999MW1001REMMET005NEW ;EQDQ01+000000PRSWM2
0099827950999991999012517004-07220-035880FM-15+0560SBKG V0200901N006212200019N0112651N1+03101+01801999999ADDGA1021+009009999GF104991999999999999999999MA1101081999999MW1001REMMET005NEW ;EQDQ01+000000PRSWM2
0157827950999991999012518004-07220-035880SY-MT+0560SBKG V0200501N006212200019N0100001N1+03071+01851100671ADDAA199000091GA1021+009009999GF104991041041008001001001MA1101191094591MD1999999-0021MW1001REMSYN011 333 59002;MET005NEW ;EQDQ01+000000PRSWM2Q02  00002PRCP99
0099827950999991999012519004-07220-035880FM-15+0560SBKG V0201001N007212200019N0112651N1+03101+01901999999ADDGA1021+009009999GF104991999999999999999999MA1101021999999MW1001REMMET005NEW ;EQDQ01+000000PRSWM2
0099827950999991999012520004-07220-035880FM-15+0560SBKG V0201001N006212200019N0112651N1+02901+01901999999ADDGA1021+007509999GF104991999999999999999999MA1101081999999MW1001REMMET005NEW ;EQDQ01+000000PRSWM2
0115827950999991999012522004-07220-035880FM-15+0560SBKG V0201201N006212200019N0112651N1+02601+01901999999ADDGA1021+004509999GA2021+006009999GF104991999999999999999999MA1101191999999MW1001REMMET005NEW ;EQDQ01+000000PRSWM2
0099827950999991999012600004-07220-035880FM-15+0560SBKG V0201201N005112200019N0112651N1+02401+02001999999ADDGA1021+003009999GF104991999999999999999999MA1101391999999MW1001REMMET005NEW ;EQDQ01+000000PRSWM2
0099827950999991999012602004-07220-035880FM-15+0560SBKG V0201201N004112200019N0112651N1+02301+02001999999ADDGA1021+003009999GF104991999999999999999999MA1101391999999MW1001REMMET005NEW ;EQDQ01+000000PRSWM2
0099827950999991999012603004-07220-035880FM-15+0560SBKG V0201201N004112200019N0112651N1+02301+02001999999ADDGA1021+003009999GF104991999999999999999999MA1101291999999MW1001REMMET005NEW ;EQDQ01+000000PRSWM2
0099827950999991999012604004-07220-035880FM-15+0560SBKG V0200901N003112200019N0112651N1+02301+02101999999ADDGA1021+003009999GF104991999999999999999999MA1101291999999MW1001REMMET005NEW ;EQDQ01+000000PRSWM2
0099827950999991999012605004-07220-035880FM-15+0560SBKG V0201001N002112200019N0112651N1+02201+02101999999ADDGA1021+003009999GF104991999999999999999999MA1101291999999MW1001REMMET005NEW ;EQDQ01+000000PRSWM2
0099827950999991999012606004-07220-035880FM-15+0560SBKG V0201001N003112200019N0112651N1+02201+02101999999ADDGA1021+003009999GF104991999999999999999999MA1101291999999MW1001REMMET005NEW ;EQDQ01+000000PRSWM2
0099827950999991999012607004-07220-035880FM-15+0560SBKG V0201001N003112200019N0112651N1+02201+02101999999ADDGA1021+003009999GF104991999999999999999999MA1101291999999MW1001REMMET005NEW ;EQDQ01+000000PRSWM2
0099827950999991999012608004-07220-035880FM-15+0560SBKG V0201001N003112200019N0112651N1+02201+02101999999ADDGA1021+004509999GF104991999999999999999999MA1101291999999MW1001REMMET005NEW ;EQDQ01+000000PRSWM2
0115827950999991999012609004-07220-035880FM-15+0560SBKG V0200901N002612200019N0112651N1+02201+02101999999ADDGA1021+004809999GA2021+090009999GF104991999999999999999999MA1101391999999MW1001REMMET005NEW ;EQDQ01+000000PRSWM2
0099827950999991999012610004-07220-035880FM-15+0560SBKG V0201001N004112200019N0112651N1+02301+02001999999ADDGA1021+003909999GF104991999999999999999999MA1101391999999MW1001REMMET005NEW ;EQDQ01+000000PRSWM2
0099827950999991999012611004-07220-035880FM-15+0560SBKG V0201001N005112200019N0112651N1+02501+01801999999ADDGA1021+005409999GF104991999999999999999999MA1101491999999MW1001REMMET005NEW ;EQDQ01+000000PRSWM2
0176827950999991999012612004-07220-035880SY-MT+0560SBKG V0200501N004610450019N0100001N1+02521+01741101171ADDAA199000091GA1021+007509999GF106991031021008001061041KA1240N+02191MA1101491095031MD1999999+0241MW1001REMSYN017 333 20219 58024;MET005NEW ;EQDQ01+000000PRSWM2Q02  00002PRCP99
0099827950999991999012614004-07220-035880FM-15+0560SBKG V0200701N004110090019N0112651N1+02801+01801999999ADDGA1071+009009999GF107991999999999999999999MA1101391999999MW1001REMMET005NEW ;EQDQ01+000000PRSWM2
0099827950999991999012615004-07220-035880FM-15+0560SBKG V0200401N002112200019N0112651N1+03001+01601999999ADDGA1021+009009999GF104991999999999999999999MA1101391999999MW1001REMMET005NEW ;EQDQ01+000000PRSWM2
0099827950999991999012617004-07220-035880FM-15+0560SBKG V0201001N006212200019N0112651N1+03101+01601999999ADDGA1021+009009999GF104991999999999999999999MA1101191999999MW1001REMMET005NEW ;EQDQ01+000000PRSWM2
0108827950999991999012618004-07220-035880FM-12+0560SBKG V0209999C003111050019N0100001N1+03021+01591100941ADDAA199000091GF105991021021008001001031MA1999999094841MD1999999+0251REMSYN011 333 58025;EQDQ01  00002PRCP99
0099827950999991999012619004-07220-035880FM-15+0560SBKG V0201001N004112200019N0112651N1+03201+01601999999ADDGA1021+009009999GF104991999999999999999999MA1101081999999MW1001REMMET005NEW ;EQDQ01+000000PRSWM2
0099827950999991999012620004-07220-035880FM-15+0560SBKG V0201201N006212200019N0112651N1+03001+01601999999ADDGA1021+007509999GF102991999999999999999999MA1101081999999MW1001REMMET005NEW ;EQDQ01+000000PRSWM2
0063827950999991999012622004-07220-035880FM-15+0560SBKG V0201001N00511220001CN0099001N1+02601+01901999999ADDMA1101291999999MW1001REMMET011NEW CAVOK ;EQDQ01+000000PRSWM2
0063827950999991999012623004-07220-035880FM-15+0560SBKG V0201001N00511220001CN0099001N1+02501+01801999999ADDMA1101291999999MW1001REMMET011NEW CAVOK ;EQDQ01+000000PRSWM2
0176827950999991999012700004-07220-035880SY-MT+0560SBKG V0200501N005712200019N0100001N1+02291+01871101111ADDAA199000091GA1021+005409999GF103991021021008001001011KA1240M+03101MA1101391094971MD1999999+0011MW1001REMSYN017 333 10310 58001;MET005NEW ;EQDQ01+000000PRSWM2Q02  00002PRCP99
0099827950999991999012702004-07220-035880FM-15+0560SBKG V0201001N004110048019N0112651N1+02201+02001999999ADDGA1071+004809999GF107991999999999999999999MA1101491999999MW1001REMMET005NEW ;EQDQ01+000000PRSWM2
0099827950999991999012705004-07220-035880FM-15+0560SBKG V0201101N003112200019N0112651N1+02201+02001999999ADDGA1021+003609999GF104991999999999999999999MA1101291999999MW1001REMMET005NEW ;EQDQ01+000000PRSWM2
0063827950999991999012706004-07220-035880FM-15+0560SBKG V0201001N00261220001CN0099001N1+02101+02001999999ADDMA1101291999999MW1001REMMET011NEW CAVOK ;EQDQ01+000000PRSWM2
0115827950999991999012709004-07220-035880FM-15+0560SBKG V0201101N003112200019N0112651N1+02101+02001999999ADDGA1021+003009999GA2021+090009999GF104991999999999999999999MA1101391999999MW1001REMMET005NEW ;EQDQ01+000000PRSWM2
0115827950999991999012710004-07220-035880FM-15+0560SBKG V0201201N004112200019N0112651N1+02301+02001999999ADDGA1021+003009999GA2021+004509999GF104991999999999999999999MA1101391999999MW1001REMMET005NEW ;EQDQ01+000000PRSWM2
0176827950999991999012712004-07220-035880SY-MT+0560SBKG V0200901N005110060019N0100001N1+02551+01831101201ADDAA199000091GA1071+006009999GF107991051051008001061001KA1240N+02111MA1101491095051MD1999999+0021MW1001REMSYN017 333 20211 58002;MET005NEW ;EQDQ01+000000PRSWM2Q02  00002PRCP99
0099827950999991999012713004-07220-035880FM-15+0560SBKG V0201201N007210060019N0112651N1+02901+01801999999ADDGA1071+006009999GF107991999999999999999999MA1101491999999MW1001REMMET005NEW ;EQDQ01+000000PRSWM2
0115827950999991999012714004-07220-035880FM-15+0560SBKG V0201301N005110300019N0112651N1+02801+01801999999ADDGA1021+006009999GA2071+030009999GF107991999999999999999999MA1101491999999MW1001REMMET005NEW ;EQDQ01+000000PRSWM2
0115827950999991999012716004-07220-035880FM-15+0560SBKG V0201201N004110240019N0112651N1+03001+01701999999ADDGA1021+009009999GA2071+024009999GF107991999999999999999999MA1101291999999MW1001REMMET005NEW ;EQDQ01+000000PRSWM2
0115827950999991999012717004-07220-035880FM-15+0560SBKG V0201201N005710600019N0112651N1+03101+01501999999ADDGA1021+009009999GA2071+060009999GF107991999999999999999999MA1101291999999MW1001REMMET005NEW ;EQDQ01+000000PRSWM2
0173827950999991999012718004-07220-035880SY-MT+0560SBKG V0200501N004110600019N0100001N1+02821+01651100931ADDAA199000091GA1021+009009999GA2071+060009999GF107991041041008001001061MA1101191094811MD1999999-0031MW1001REMSYN011 333 59003;MET005NEW ;EQDQ01+000000PRSWM2Q02  00002PRCP99
0063827950999991999012720004-07220-035880FM-15+0560SBKG V0201001N00621220001CN0099001N1+02701+01801999999ADDMA1101191999999MW1001REMMET011NEW CAVOK ;EQDQ01+000000PRSWM2
0063827950999991999012721004-07220-035880FM-15+0560SBKG V0201201N00411220001CN0099001N1+02601+01801999999ADDMA1101291999999MW1001REMMET011NEW CAVOK ;EQDQ01+000000PRSWM2
0063827950999991999012722004-07220-035880FM-15+0560SBKG V0201001N00511220001CN0099001N1+02501+01801999999ADDMA1101291999999MW1001REMMET011NEW CAVOK ;EQDQ01+000000PRSWM2
