0127830960999991999010100004-10920-037050FM-12+000699999V0200901N005112200019N9999999N1+02701+02301101171ADDAA199000091GF101991011051012501001001KA1240M+03051MA1999999101101MD1999999+0001REMSYN017 333 10305 58000;EQDQ01  00002PRCP99
0127830960999991999010112004-10920-037050FM-12+000699999V0200501N004612200019N0200001N1+02911+02341101181ADDAA199000091GF101991011011012501001001KA1240N+02381MA1999999101111MD1999999-0021REMSYN017 333 20238 59002;EQDQ01  00002PRCP99
0108830960999991999010118004-10920-037050FM-12+000699999V0200901N006712200019N0200001N1+02901+02521100861ADDAA199000091GF101991011011012501001001MA1999999100791MD1999999-0101REMSYN011 333 59010;EQDQ01  00002PRCP99
0127830960999991999010212004-10920-037050FM-12+000699999V0200901N004112200019N0200001N1+02881+02371101061ADDAA199000091GF101991011051012501001001KA1240N+02421MA1999999100991MD1999999-0121REMSYN017 333 20242 59012;EQDQ01  00002PRCP99
0127830960999991999010312004-10920-037050FM-12+000699999V0200501N005112200019N0200001N1+02861+02261101031ADDAA199000091GF104991021051012501001011KA1240N+02291MA1999999100961MD1999999-0031REMSYN017 333 20229 59003;EQDQ01  00002PRCP99
0108830960999991999010318004-10920-037050FM-12+000699999V0200901N005712200019N0200001N1+02821+02381100761ADDAA199000091GF106991041051012501001011MA1999999100691MD1999999-0031REMSYN011 333 59003;EQDQ01  00002PRCP99
0108830960999991999010418004-10920-037050FM-12+000699999V0200901N006212200019N0200001N1+02861+02331100871ADDAA199000091GF101991011011012501001001MA1999999100801MD1999999+0111REMSYN011 333 58011;EQDQ01  00002PRCP99
0097830960999991999010500004-10920-037050FM-12+000699999V0200901N003112200019N9999999N1+02651+02351101031ADDGF101991011011999999001001KA1240M+03021MA1999999100961MD1999999+0101REMSYN017 333 10302 58010;
0127830960999991999010512004-10920-037050FM-12+000699999V0200901N004112200019N0200001N1+02891+02321101101ADDAA199000091GF101991011051012501001001KA1240N+02411MA1999999101031MD1999999-0011REMSYN017 333 20241 59001;EQDQ01  00002PRCP99
0108830960999991999010518004-10920-037050FM-12+000699999V0200901N005112200019N0200001N1+02891+02281101031ADDAA199000091GF102991021051012501001001MA1999999100961MD1999999+0161REMSYN011 333 58016;EQDQ01  00002PRCP99
0127830960999991999010612004-10920-037050FM-12+000699999V0200901N003110120019N0200001N1+02821+02241101171ADDAA199000091GF107991051051012501031001KA1240N+02261MA1999999101101MD1999999+0071REMSYN017 333 20226 58007;EQDQ01  00002PRCP99
0108830960999991999010618004-10920-037050FM-12+000699999V0200901N004612200019N0200001N1+02881+02351100871ADDAA199000091GF101991011011012501001001MA1999999100801MD1999999-0161REMSYN011 333 59016;EQDQ01  00002PRCP99
0127830960999991999010700004-10920-037050FM-12+000699999V0200901N004112200019N9999999N1+02671+02311101141ADDAA199000091GF101991011011012501001001KA1240M+03121MA1999999101071MD1999999+0071REMSYN017 333 10312 58007;EQDQ01  00002PRCP99
0127830960999991999010712004-10920-037050FM-12+000699999V0200901N003112200019N0200001N1+02861+02281101201ADDAA199000091GF103991011051012501001011KA1240N+02391MA1999999101131MD1999999+0031REMSYN017 333 20239 58003;EQDQ01  00002PRCP99
0108830960999991999010718004-10920-037050FM-12+000699999V0200901N003112200019N0200001N1+02911+02271100911ADDAA199000091GF103991011051012501001011MA1999999100841MD1999999+0041REMSYN011 333 58004;EQDQ01  00002PRCP99
0127830960999991999010800004-10920-037050FM-12+000699999V0200901N000512200019N9999999N1+02661+02091101111ADDAA199000091GF101991011001012501001001KA1240M+03041MA1999999101041MD1999999-0031REMSYN017 333 10304 59003;EQDQ01  00002PRCP99
0127830960999991999010812004-10920-037050FM-12+000699999V0202301N002110075019N0100001N1+02531+02331101151ADDAA199000091GF108991081071008001999999KA1240N+02081MA1999999101081MD1999999-0051REMSYN017 333 20208 59005;EQDQ01  00002PRCP99
0117830960999991999010818004-10920-037050FM-12+000699999V0201401N003110075019N0100001N1+02801+02251100811ADDAA199006191AY161061AY261061GF108991081051008001999999MA1999999100811MD1999999-0031MW1601REMSYN017 333 59003 60061;
0108830960999991999010900004-10920-037050FM-12+000699999V0201801N002612200019N9999999N1+02641+02251101141ADDAA199000021GF101991011011012501001001KA1240M+02881MA1999999101071MD1999999+0031REMSYN017 333 10288 58003;
0114830960999991999010912004-10920-037050FM-12+000699999V0200901N002610450019N0200001N1+02781+02271101031ADDAA199006191GF106991041051012501031001KA1240N+02221MA1999999100961MD1999999-0121REMSYN023 333 20222 59012 60064;
0108830960999991999010918004-10920-037050FM-12+000699999V0200901N003610450019N0200001N1+02831+02421100801ADDAA199000091GF106991021051012501031011MA1999999100731MD1999999-0081REMSYN011 333 59008;EQDQ01  00002PRCP99
0127830960999991999011112004-10920-037050FM-12+000699999V0200501N006210450019N0200001N1+02881+02411101191ADDAA199000091GF106991041051012501031001KA1240N+02341MA1999999101121MD1999999+0101REMSYN017 333 20234 58010;EQDQ01  00002PRCP99
0127830960999991999011212004-10920-037050FM-12+000699999V0200901N004612200019N0200001N1+02861+02311101291ADDAA199000091GF101991011011012501001001KA1240N+02421MA1999999101221MD1999999+0101REMSYN017 333 20242 58010;EQDQ01  00002PRCP99
0108830960999991999011218004-10920-037050FM-12+000699999V0200901N005112200019N0200001N1+02921+02341101061ADDAA199000091GF102991021051012501001001MA1999999100991MD1999999+0231REMSYN011 333 58023;EQDQ01  00002PRCP99
0127830960999991999011300004-10920-037050FM-12+000699999V0200901N003612200019N9999999N1+02681+02311101201ADDAA199000091GF101991011011012501001001KA1240M+03041MA1999999101131MD1999999+0111REMSYN017 333 10304 58011;EQDQ01  00002PRCP99
0127830960999991999011312004-10920-037050FM-12+000699999V0200901N003612200019N0200001N1+02901+02271101311ADDAA199000091GF103991031051012501001001KA1240N+02411MA1999999101241MD1999999+0021REMSYN017 333 20241 58002;EQDQ01  00002PRCP99
0108830960999991999011318004-10920-037050FM-12+000699999V0200901N006212200019N0200001N1+02931+02341101121ADDAA199000091GF101991011051012501001001MA1999999101051MD1999999+0061REMSYN011 333 58006;EQDQ01  00002PRCP99
0127830960999991999011400004-10920-037050FM-12+000699999V0200901N004612200019N9999999N1+02711+02241101271ADDAA199000091GF101991011011012501001001KA1240M+03041MA1999999101201MD1999999+0071REMSYN017 333 10304 58007;EQDQ01  00002PRCP99
0114830960999991999011412004-10920-037050FM-12+000699999V0200901N004612200019N0200001N1+02841+02351101331ADDAA199000391GF102991021051012501001001KA1240N+02431MA1999999101261MD1999999+0021REMSYN023 333 20243 58002 69934;
0108830960999991999011418004-10920-037050FM-12+000699999V0200901N006212200019N0200001N1+02881+02301101051ADDAA199000091GF101991011011012501001001MA1999999100981MD1999999-0071REMSYN011 333 59007;EQDQ01  00002PRCP99
0127830960999991999011500004-10920-037050FM-12+000699999V0200901N003112200019N9999999N1+02681+02221101291ADDAA199000091GF101991011011012501001001KA1240M+03041MA1999999101221MD1999999+0021REMSYN017 333 10304 58002;EQDQ01  00002PRCP99
0127830960999991999011512004-10920-037050FM-12+000699999V0200901N004612200019N0200001N1+02901+02221101311ADDAA199000091GF101991011051012501001001KA1240N+02291MA1999999101241MD1999999-0021REMSYN017 333 20229 59002;EQDQ01  00002PRCP99
0108830960999991999011518004-10920-037050FM-12+000699999V0200901N005712200019N0200001N1+02911+02321101031ADDAA199000091GF102991021051012501001001MA1999999100961MD1999999-0021REMSYN011 333 59002;EQDQ01  00002PRCP99
0127830960999991999011600004-10920-037050FM-12+000699999V0200901N003112200019N9999999N1+02661+02291101291ADDAA199000091GF101991011011012501001001KA1240M+03051MA1999999101221MD1999999+0001REMSYN017 333 10305 58000;EQDQ01  00002PRCP99
0127830960999991999011618004-10920-037050FM-12+000699999V0200901N003612200019N0200001N1+02881+02101101361ADDAA199000091GF101991011051012501001001KA1240N+02401MA1999999101291MD1999999+0051REMSYN017 333 20240 58005;EQDQ01  00002PRCP99
0127830960999991999011712004-10920-037050FM-12+000699999V0200901N004112200019N0200001N1+02901+02271101391ADDAA199000091GF102991021051012501001001KA1240N+02321MA1999999101321MD1999999+0031REMSYN017 333 20232 58003;EQDQ01  00002PRCP99
0108830960999991999011718004-10920-037050FM-12+000699999V0200901N004612200019N0200001N1+02941+02381101181ADDAA199000091GF101991011051012501001001MA1999999101111MD1999999+0071REMSYN011 333 58007;EQDQ01  00002PRCP99
0127830960999991999011812004-10920-037050FM-12+000699999V0200901N003119999999N0200001N1+02961+02331101361ADDAA199000091GF107991999051012501001001KA1240N+02381MA1999999101291MD1999999-0031REMSYN017 333 20238 59003;EQDQ01  00002PRCP99
0108830960999991999011818004-10920-037050FM-12+000699999V0201401N003112200019N0200001N1+02931+02361101121ADDAA199000091GF101991011051012501001001MA1999999101051MD1999999-0061REMSYN011 333 59006;EQDQ01  00002PRCP99
0127830960999991999011900004-10920-037050FM-12+000699999V0201401N003112200019N9999999N1+02711+02301101341ADDAA199000091GF101991011051012501001001KA1240M+03101MA1999999101271MD1999999-0101REMSYN017 333 10310 59010;EQDQ01  00002PRCP99
0127830960999991999011912004-10920-037050FM-12+000699999V0200901N003112200019N0200001N1+02951+02311101391ADDAA199000091GF101991011051012501001001KA1240N+02321MA1999999101321MD1999999+0031REMSYN017 333 20232 58003;EQDQ01  00002PRCP99
0108830960999991999011918004-10920-037050FM-12+000699999V0201801N003112200019N0200001N1+02941+02291101091ADDAA199000091GF101991011051012501001001MA1999999101021MD1999999-0031REMSYN011 333 59003;EQDQ01  00002PRCP99
0127830960999991999012000004-10920-037050FM-12+000699999V0201801N003112200019N9999999N1+02741+02211101231ADDAA199000091GF102991021051012501001001KA1240M+03071MA1999999101161MD1999999-0111REMSYN017 333 10307 59011;EQDQ01  00002PRCP99
0127830960999991999012012004-10920-037050FM-12+000699999V0200901N002112200019N0200001N1+02901+02391101281ADDAA199000091GF102991021051012501001001KA1240N+02421MA1999999101211MD1999999-0111REMSYN017 333 20242 59011;EQDQ01  00002PRCP99
0108830960999991999012018004-10920-037050FM-12+000699999V0201801N003112200019N0200001N1+02911+02271101021ADDAA199000091GF101991011051012501001001MA1999999100951MD1999999-0071REMSYN011 333 59007;EQDQ01  00002PRCP99
0127830960999991999012100004-10920-037050FM-12+000699999V0200201N016412200019N9999999N1+02071+01141101141ADDAA199000091GF102991021051012501001001KA1240M+03111MA1999999101071MD1999999-0091REMSYN017 333 10311 59009;EQDQ01  00002PRCP99
0114830960999991999012112004-10920-037050FM-12+000699999V0200501N003110120019N0200001N1+02641+02421101231ADDAA199000591GF106991061051012501001001KA1240N+02321MA1999999101161MD1999999-0051REMSYN023 333 20232 59005 69964;
0108830960999991999012118004-10920-037050FM-12+000699999V0200901N003612200019N0200001N1+02911+02391101011ADDAA199000091GF104991041051012501001001MA1999999100941MD1999999-0011REMSYN011 333 59001;EQDQ01  00002PRCP99
0127830960999991999012200004-10920-037050FM-12+000699999V0200901N004112200019N9999999N1+02721+02281101221ADDAA199000091GF102991021051012501001001KA1240M+03081MA1999999101151MD1999999+0081REMSYN017 333 10308 58008;EQDQ01  00002PRCP99
0127830960999991999012212004-10920-037050FM-12+000699999V0200901N003112200019N0200001N1+02901+02341101271ADDAA199000091GF102991021051012501001001KA1240N+02461MA1999999101201MD1999999+0041REMSYN017 333 20246 58004;EQDQ01  00002PRCP99
0108830960999991999012218004-10920-037050FM-12+000699999V0200901N005112200019N0200001N1+02941+02291101041ADDAA199000091GF101991011051012501001001MA1999999100971MD1999999+0031REMSYN011 333 58003;EQDQ01  00002PRCP99
0127830960999991999012312004-10920-037050FM-12+000699999V0201401N002110120019N0200001N1+02841+02381101321ADDAA199000091GF106991061051012501001001KA1240N+02191MA1999999101251MD1999999+0051REMSYN017 333 20219 58005;EQDQ01  00002PRCP99
0108830960999991999012318004-10920-037050FM-12+000699999V0201401N002112200019N0200001N1+02891+02251100981ADDAA199000091GF102991021051012501001001MA1999999100911MD1999999-0061REMSYN011 333 59006;EQDQ01  00002PRCP99
0114830960999991999012412004-10920-037050FM-12+000699999V0200901N003612200019N0200001N1+02911+02461101141ADDAA199000391GF101991011051012501001001KA1240N+02381MA1999999101071MD1999999-0181REMSYN023 333 20238 59018 69934;
0127830960999991999012512004-10920-037050FM-12+000699999V0201401N003112200019N0200001N1+02961+02211101091ADDAA199000091GF102991021051012501001001KA1240N+02441MA1999999101021MD1999999-0051REMSYN017 333 20244 59005;EQDQ01  00002PRCP99
0108830960999991999012518004-10920-037050FM-12+000699999V0201401N003112200019N0200001N1+02981+02301100871ADDAA199000091GF101991011051012501001001MA1999999100801MD1999999-0091REMSYN011 333 59009;EQDQ01  00002PRCP99
0127830960999991999012600004-10920-037050FM-12+000699999V0201401N001512200019N9999999N1+02751+02301101041ADDAA199000091GF101991011051012501001001KA1240M+03121MA1999999100971MD1999999-0021REMSYN017 333 10312 59002;EQDQ01  00002PRCP99
0136830960999991999012612004-10920-037050FM-12+000699999V0200901N004110075019N0100001N1+02621+02351101201ADDAA199003091AY161061AY261061GF108991081051008001999999KA1240N+02391MA1999999101131MD1999999+0111MW1601REMSYN023 333 20239 58011 60034;
0089830960999991999012618004-10920-037050FM-12+000699999V0201401N003110120019N0200001N1+02861+02481101001ADDAA199000021GF107991071051012501001001MA1999999100931MD1999999+0131REMSYN011 333 58013;
0136830960999991999012712004-10920-037050FM-12+000699999V0200501N001010075019N0100001N1+02371+02151101231ADDAA199005191AY161061AY261061GF108991081071008001999999KA1240N+02161MA1999999101161MD1999999+0031MW1601REMSYN023 333 20216 58003 60054;
0089830960999991999012718004-10920-037050FM-12+000699999V0200901N003110450019N0200001N1+02881+02461100961ADDAA199000021GF105991041051012501031001MA1999999100891MD1999999-0041REMSYN011 333 59004;
0127830960999991999012800004-10920-037050FM-12+000699999V0200201N036022200019N9999999N1+02301+99999101041ADDAA199000021GF101991011051012501001001KA1240M+03041MA1999999100971MD1999999-0031REMSYN017 333 10304 59003;EQDQ01+003603WOSPD 
0127830960999991999012812004-10920-037050FM-12+000699999V0200901N003612200019N0200001N1+02941+02361101111ADDAA199000091GF102991021051012501001001KA1240N+02251MA1999999101041MD1999999-0121REMSYN017 333 20225 59012;EQDQ01  00002PRCP99
0108830960999991999012818004-10920-037050FM-12+000699999V0200901N005112200019N0200001N1+02941+02561100841ADDAA199000091GF101991011051012501001001MA1999999100771MD1999999-0121REMSYN011 333 59012;EQDQ01  00002PRCP99
0127830960999991999012900004-10920-037050FM-12+000699999V0200901N004112200019N9999999N1+02751+02341101141ADDAA199000091GF102991021051012501001001KA1240M+03121MA1999999101071MD1999999+0101REMSYN017 333 10312 58010;EQDQ01  00002PRCP99
0127830960999991999012912004-10920-037050FM-12+000699999V0200501N003112200019N0200001N1+02941+02361101251ADDAA199000091GF101991011051012501001001KA1240N+02251MA1999999101181MD1999999+0141REMSYN017 333 20225 58014;EQDQ01  00002PRCP99
0108830960999991999012918004-10920-037050FM-12+000699999V0200901N003112200019N0200001N1+03021+02531100951ADDAA199000091GF101991011051012501001001MA1999999100881MD1999999+0111REMSYN011 333 58011;EQDQ01  00002PRCP99
0127830960999991999013000004-10920-037050FM-12+000699999V0200901N004112200019N9999999N1+02761+02441101101ADDAA199000091GF102991021011012501001001KA1240M+03141MA1999999101031MD1999999-0041REMSYN017 333 10314 59004;EQDQ01  00002PRCP99
0127830960999991999013012004-10920-037050FM-12+000699999V0200901N004612200019N0200001N1+02961+02621101271ADDAA199000091GF101991011051012501001001KA1240N+02501MA1999999101201MD1999999+0021REMSYN017 333 20250 58002;EQDQ01  00002PRCP99
0108830960999991999013018004-10920-037050FM-12+000699999V0200901N005112200019N0200001N1+02971+02491101001ADDAA199000091GF101991011051012501001001MA1999999100931MD1999999+0051REMSYN011 333 58005;EQDQ01  00002PRCP99
0108830960999991999013118004-10920-037050FM-12+000699999V0201401N003110450019N0200001N1+02921+02321101021ADDAA199000091GF106991031051012501031011MA1999999100951MD1999999+0021REMSYN011 333 58002;EQDQ01  00002PRCP99
0127830960999991999020112004-10920-037050FM-12+000699999V0200501N004112200019N0200001N1+02941+02361101141ADDAA199000091GF104991041051012501001001KA1240N+02381MA1999999101071MD1999999-0051REMSYN017 333 20238 59005;EQDQ01  00002PRCP99
0108830960999991999020118004-10920-037050FM-12+000699999V0200901N006210120019N0200001N1+02901+02581100861ADDAA199000091GF105991051051012501001001MA1999999100791MD1999999-0161REMSYN011 333 59016;EQDQ01  00002PRCP99
0127830960999991999020200004-10920-037050FM-12+000699999V0200901N004112200019N9999999N1+02761+02421101061ADDAA199000091GF102991021051012501001001KA1240M+03101MA1999999100991MD1999999-0041REMSYN017 333 10310 59004;EQDQ01  00002PRCP99
0114830960999991999020212004-10920-037050FM-12+000699999V0200901N004610120019N0200001N1+02861+02521101261ADDAA199004191GF105991051051012501001001KA1240N+02341MA1999999101191MD1999999+0121REMSYN023 333 20234 58012 60044;
0108830960999991999020218004-10920-037050FM-12+000699999V0200901N006212200019N0200001N1+02921+02471100981ADDAA199000091GF102991021051012501001001MA1999999100911MD1999999+0121REMSYN011 333 58012;EQDQ01  00002PRCP99
0127830960999991999020312004-10920-037050FM-12+000699999V0201801N003612200019N0200001N1+02941+02191101141ADDAA199000091GF103991021051012501001011KA1240N+02441MA1999999101071MD1999999-0121REMSYN017 333 20244 59012;EQDQ01  00002PRCP99
0108830960999991999020318004-10920-037050FM-12+000699999V0201401N003112200019N0200001N1+02961+02261100911ADDAA199000091GF102991011051012501001011MA1999999100841MD1999999-0071REMSYN011 333 59007;EQDQ01  00002PRCP99
0127830960999991999020400004-10920-037050FM-12+000699999V0200901N002612200019N9999999N1+02721+02241101111ADDAA199000091GF101991011051012501001001KA1240M+03081MA1999999101041MD1999999+0071REMSYN017 333 10308 58007;EQDQ01  00002PRCP99
0114830960999991999020412004-10920-037050FM-12+000699999V0200901N002612200019N0200001N1+02841+02241101051ADDAA199000191GF102991021051012501001001KA1240N+02241MA1999999100981MD1999999-0091REMSYN023 333 20224 59009 69924;
0108830960999991999020418004-10920-037050FM-12+000699999V0201401N003612200019N0200001N1+02911+02301100841ADDAA199000091GF101991011051012501001001MA1999999100771MD1999999-0071REMSYN011 333 59007;EQDQ01  00002PRCP99
0114830960999991999020512004-10920-037050FM-12+000699999V0200501N003612200019N0200001N1+02721+02391999999ADDAA199004191GF102991021051012501001001KA1240N+02131MA1999999101161MD1999999+0181REMSYN023 333 20213 58018 60044;
0108830960999991999020518004-10920-037050FM-12+000699999V0200501N006212200019N0200001N1+02911+02431100991ADDAA199000091GF101991011011012501001001MA1999999100921MD1999999+0151REMSYN011 333 58015;EQDQ01  00002PRCP99
0127830960999991999020600004-10920-037050FM-12+000699999V0200901N006712200019N9999999N1+02761+02281101151ADDAA199000091GF101991011051012501001001KA1240M+02961MA1999999101081MD1999999+0081REMSYN017 333 10296 58008;EQDQ01  00002PRCP99
0127830960999991999020612004-10920-037050FM-12+000699999V0200901N005112200019N0200001N1+02931+02271101381ADDAA199000091GF102991021051012501001001KA1240N+02421MA1999999101311MD1999999+0151REMSYN017 333 20242 58015;EQDQ01  00002PRCP99
0108830960999991999020618004-10920-037050FM-12+000699999V0200901N005112200019N0200001N1+02971+02281101161ADDAA199000091GF103991011051012501031011MA1999999101091MD1999999+0171REMSYN011 333 58017;EQDQ01  00002PRCP99
0136830960999991999020712004-10920-037050FM-12+000699999V0200901N002110075019N0100001N1+02611+02351101491ADDAA199018091AY161061AY261061GF108991081071008001999999KA1240N+02191MA1999999101421MD1999999+0111MW1601REMSYN023 333 20219 58011 60184;
0095830960999991999020718004-10920-037050FM-12+000699999V0200901N004110075019N0100001N1+02761+02401101321ADDAA199000191GF108991081051008001999999MA1999999101251MD1999999+0161REMSYN017 333 58016 69921;
0108830960999991999020818004-10920-037050FM-12+000699999V0201401N002110450019N0200001N1+02881+02501101321ADDAA199000091GF106991031051012501031011MA1999999101251MD1999999+0001REMSYN011 333 58000;EQDQ01  00002PRCP99
0127830960999991999020900004-10920-037050FM-12+000699999V0201401N001012200019N9999999N1+02711+02261101531ADDAA199000091GF101991011051012501001001KA1240M+03081MA1999999101461MD1999999+0011REMSYN017 333 10308 58001;EQDQ01  00002PRCP99
0127830960999991999020912004-10920-037050FM-12+000699999V0200901N001512200019N0200001N1+02871+02371101501ADDAA199000091GF101991011051012501001001KA1240N+02151MA1999999101431MD1999999+0001REMSYN017 333 20215 58000;EQDQ01  00002PRCP99
0108830960999991999020918004-10920-037050FM-12+000699999V0201401N002612200019N0200001N1+02951+02381101211ADDAA199000091GF102991021051012501001001MA1999999101141MD1999999-0111REMSYN011 333 59011;EQDQ01  00002PRCP99
0127830960999991999021000004-10920-037050FM-12+000699999V0200901N003610120019N9999999N1+02761+02321101471ADDAA199000091GF105991051051012501001001KA1240M+03081MA1999999101401MD1999999-0061REMSYN017 333 10308 59006;EQDQ01  00002PRCP99
0127830960999991999021012004-10920-037050FM-12+000699999V0200901N003112200019N0200001N1+02871+02311101271ADDAA199000091GF102991021051012501001001KA1240N+02421MA1999999101201MD1999999-0231REMSYN017 333 20242 59023;EQDQ01  00002PRCP99
0108830960999991999021018004-10920-037050FM-12+000699999V0200901N003612200019N0200001N1+02941+02401101021ADDAA199000091GF103991021051012501001011MA1999999100951MD1999999-0191REMSYN011 333 59019;EQDQ01  00002PRCP99
0127830960999991999021100004-10920-037050FM-12+000699999V0200901N005112200019N9999999N1+02741+02341101181ADDAA199000091GF102991021051012501001001KA1240M+03071MA1999999101111MD1999999-0291REMSYN017 333 10307 59029;EQDQ01  00002PRCP99
0127830960999991999021112004-10920-037050FM-12+000699999V0200901N003112200019N0200001N1+02901+02301101181ADDAA199000091GF101991011051012501001001KA1240N+02191MA1999999101111MD1999999-0091REMSYN017 333 20219 59009;EQDQ01  00002PRCP99
0108830960999991999021118004-10920-037050FM-12+000699999V0200901N005112200019N0200001N1+02921+02291100821ADDAA199000091GF101991011051012501001001MA1999999100751MD1999999-0201REMSYN011 333 59020;EQDQ01  00002PRCP99
0127830960999991999021200004-10920-037050FM-12+000699999V0200901N003112200019N9999999N1+02711+02261101071ADDAA199000091GF101991011051012501001001KA1240M+03061MA1999999101001MD1999999-0111REMSYN017 333 10306 59011;EQDQ01  00002PRCP99
0127830960999991999021212004-10920-037050FM-12+000699999V0200501N002112200019N0200001N1+02971+02401101251ADDAA199000091GF102991021051012501001001KA1240N+02261MA1999999101181MD1999999+0071REMSYN017 333 20226 58007;EQDQ01  00002PRCP99
0108830960999991999021218004-10920-037050FM-12+000699999V0200901N005112200019N0200001N1+02951+02451100911ADDAA199000091GF102991021051012501001001MA1999999100841MD1999999+0091REMSYN011 333 58009;EQDQ01  00002PRCP99
0127830960999991999021300004-10920-037050FM-12+000699999V0200901N004612200019N9999999N1+02761+02521101261ADDAA199000091GF101991011011012501001001KA1240M+03101MA1999999101191MD1999999+0191REMSYN017 333 10310 58019;EQDQ01  00002PRCP99
0108830960999991999021318004-10920-037050FM-12+000699999V0200901N005712200019N0200001N1+02941+02601101011ADDAA199000091GF101991011051012501001001MA1999999100941MD1999999+0101REMSYN011 333 58010;EQDQ01  00002PRCP99
0127830960999991999021512004-10920-037050FM-12+000699999V0201801N003110450019N0200001N1+02931+02271101271ADDAA199000091GF106991031051012501031001KA1240N+02401MA1999999101201MD1999999-0041REMSYN017 333 20240 59004;EQDQ01  00002PRCP99
0108830960999991999021518004-10920-037050FM-12+000699999V0201401N003112200019N0200001N1+02921+02411101001ADDAA199000091GF101991011051012501001001MA1999999100931MD1999999-0161REMSYN011 333 59016;EQDQ01  00002PRCP99
0114830960999991999021612004-10920-037050FM-12+000699999V0201801N002112200019N0200001N1+02831+02291101191ADDAA199000591GF104991041051012501001001KA1240N+02381MA1999999101121MD1999999-0081REMSYN023 333 20238 59008 69944;
0082830960999991999021618004-10920-037050FM-12+000699999V0201401N003119999999N0200001N1+02921+02361101091ADDAA199000091MA1999999101021MD1999999+0091REMSYN011 333 58009;EQDQ01  00002PRCP99
0114830960999991999021712004-10920-037050FM-12+000699999V0200901N003610450019N0200001N1+02861+02421101171ADDAA199002091GF106991021051012501031011KA1240N+02381MA1999999101101MD1999999-0021REMSYN023 333 20238 59002 60024;
0108830960999991999021718004-10920-037050FM-12+000699999V0201401N002110450019N0200001N1+02911+02411100921ADDAA199000091GF107991031051012501031011MA1999999100851MD1999999-0171REMSYN011 333 59017;EQDQ01  00002PRCP99
0127830960999991999021800004-10920-037050FM-12+000699999V0201401N007712200019N9999999N1+02761+02281101061ADDAA199000091GF104991041051012501001001KA1240M+03081MA1999999100991MD1999999+0041REMSYN017 333 10308 58004;EQDQ01  00002PRCP99
0114830960999991999021812004-10920-037050FM-12+000699999V0200901N001510120019N0200001N1+02701+02451101211ADDAA199001091GF107991071051012501001001KA1240N+02261MA1999999101141MD1999999+0041REMSYN023 333 20226 58004 60014;
0108830960999991999021818004-10920-037050FM-12+000699999V0200901N004110120019N0200001N1+02911+02431100991ADDAA199000091GF107991071051012501001001MA1999999100921MD1999999+0071REMSYN011 333 58007;EQDQ01  00002PRCP99
0127830960999991999021900004-10920-037050FM-12+000699999V0201401N002112200019N9999999N1+02741+02321101231ADDAA199000091GF102991021051012501001001KA1240M+03021MA1999999101161MD1999999+0171REMSYN017 333 10302 58017;EQDQ01  00002PRCP99
0114830960999991999021912004-10920-037050FM-12+000699999V0200501N001010450019N0200001N1+02821+02441101321ADDAA199000591GF106991041051012501031001KA1240N+02281MA1999999101251MD1999999+0111REMSYN023 333 20228 58011 69964;
0108830960999991999021918004-10920-037050FM-12+000699999V0200901N003110120019N0200001N1+02931+02281101111ADDAA199000091GF106991061051012501001001MA1999999101041MD1999999+0121REMSYN011 333 58012;EQDQ01  00002PRCP99
0127830960999991999022000004-10920-037050FM-12+000699999V0200901N004112200019N9999999N1+02701+02481101171ADDAA199000091GF101991011011012501001001KA1240M+03011MA1999999101101MD1999999-0061REMSYN017 333 10301 59006;EQDQ01  00002PRCP99
0136830960999991999022012004-10920-037050FM-12+000699999V0200901N003610075019N0100001N1+02721+02431101311ADDAA199000591AY161061AY261061GF108991081051008001999999KA1240N+02401MA1999999101241MD1999999-0011MW1601REMSYN023 333 20240 59001 69964;
0095830960999991999022018004-10920-037050FM-12+000699999V0201401N002610075019N0100001N1+02661+02391101131ADDAA199001091GF108991081051008001999999MA1999999101061MD1999999-0021REMSYN017 333 59002 69991;
0114830960999991999022112004-10920-037050FM-12+000699999V0200901N003610120019N0200001N1+02901+02341101311ADDAA199001091GF107991051051012501031001KA1240N+02461MA1999999101241MD1999999+0001REMSYN023 333 20246 58000 69994;
0108830960999991999022118004-10920-037050FM-12+000699999V0200901N004110450019N0200001N1+02961+02451101061ADDAA199000091GF106991041051012501031001MA1999999100991MD1999999-0071REMSYN011 333 59007;EQDQ01  00002PRCP99
0127830960999991999022212004-10920-037050FM-12+000699999V0200901N004112200019N0200001N1+02951+02291101311ADDAA199000091GF101991011051012501001001KA1240N+02441MA1999999101241MD1999999+0001REMSYN017 333 20244 58000;EQDQ01  00002PRCP99
0108830960999991999022218004-10920-037050FM-12+000699999V0200901N004610450019N0200001N1+02961+02471100931ADDAA199000091GF106991041051012501031001MA1999999100861MD1999999-0131REMSYN011 333 59013;EQDQ01  00002PRCP99
0114830960999991999022300004-10920-037050FM-12+000699999V0200901N003612200019N9999999N1+02721+02341101241ADDAA199003091GF102991021051012501001001KA1240M+03081MA1999999101171MD1999999-0071REMSYN023 333 10308 59007 60031;
0114830960999991999022312004-10920-037050FM-12+000699999V0200901N004110450019N0200001N1+02901+02221101311ADDAA199003091GF106991021051012501031011KA1240N+02471MA1999999101241MD1999999+0001REMSYN023 333 20247 58000 60034;
0108830960999991999022318004-10920-037050FM-12+000699999V0200901N003612200019N0200001N1+02941+02541100921ADDAA199000091GF104991041051012501001001MA1999999100851MD1999999-0011REMSYN011 333 59001;EQDQ01  00002PRCP99
0127830960999991999022400004-10920-037050FM-12+000699999V0200901N004612200019N9999999N1+02731+02261101141ADDAA199000091GF101991011051012501001001KA1240M+03061MA1999999101071MD1999999-0101REMSYN017 333 10306 59010;EQDQ01  00002PRCP99
0108830960999991999022418004-10920-037050FM-12+000699999V0200901N004610450019N0200001N1+02961+02331101071ADDAA199000091GF106991031051012501031011MA1999999101001MD1999999+0151REMSYN011 333 58015;EQDQ01  00002PRCP99
0127830960999991999022500004-10920-037050FM-12+000699999V0200901N004612200019N9999999N1+02741+02281101131ADDAA199000091GF101991011051012501001001KA1240M+03051MA1999999101061MD1999999-0011REMSYN017 333 10305 59001;EQDQ01  00002PRCP99
0108830960999991999022518004-10920-037050FM-12+000699999V0200901N005712200019N0200001N1+02951+02211101011ADDAA199000091GF102991011051012501001011MA1999999100941MD1999999-0061REMSYN011 333 59006;EQDQ01  00002PRCP99
0127830960999991999022600004-10920-037050FM-12+000699999V0200901N005712200019N9999999N1+02731+02281101201ADDAA199000091GF104991011051012501001011KA1240M+03061MA1999999101131MD1999999+0071REMSYN017 333 10306 58007;EQDQ01  00002PRCP99
0127830960999991999022612004-10920-037050FM-12+000699999V0200901N004612200019N0200001N1+02961+02331101291ADDAA199000091GF101991011051012501001001KA1240N+02471MA1999999101221MD1999999+0011REMSYN017 333 20247 58001;EQDQ01  00002PRCP99
0108830960999991999022618004-10920-037050FM-12+000699999V0200901N004612200019N0200001N1+02971+02331101041ADDAA199000091GF101991011051012501001001MA1999999100971MD1999999+0031REMSYN011 333 58003;EQDQ01  00002PRCP99
0127830960999991999022700004-10920-037050FM-12+000699999V0200901N005110120019N9999999N1+02771+02381101261ADDAA199000091GF106991061051012501001001KA1240M+03111MA1999999101191MD1999999+0061REMSYN017 333 10311 58006;EQDQ01  00002PRCP99
0127830960999991999022712004-10920-037050FM-12+000699999V0200901N003612200019N0200001N1+02961+02401101271ADDAA199000091GF102991021051012501001001KA1240N+02481MA1999999101201MD1999999-0021REMSYN017 333 20248 59002;EQDQ01  00002PRCP99
0127830960999991999022812004-10920-037050FM-12+000699999V0200901N003112200019N0200001N1+02961+02281101161ADDAA199000091GF101991011051012501001001KA1240N+02231MA1999999101091MD1999999+0111REMSYN017 333 20223 58011;EQDQ01  00002PRCP99
0108830960999991999022818004-10920-037050FM-12+000699999V0200901N004112200019N0200001N1+02941+02311100831ADDAA199000091GF101991011051012501001001MA1999999100761MD1999999-0211REMSYN011 333 59021;EQDQ01  00002PRCP99
0127830960999991999030112004-10920-037050FM-12+000699999V0200501N002612200019N0200001N1+02871+02311100951ADDAA199000091GF104991021051012501001011KA1240N+02281MA1999999100881MD1999999-0211REMSYN017 333 20228 59021;EQDQ01  00002PRCP99
0108830960999991999030118004-10920-037050FM-12+000699999V0200901N004612200019N0200001N1+02971+02401999999ADDAA199000091GF101991011011012501001001MA1999999100791MD1999999-0041REMSYN011 333 59004;EQDQ01  00002PRCP99
0127830960999991999030200004-10920-037050FM-12+000699999V0200901N003612200019N9999999N1+02761+02401100931ADDAA199000091GF101991011011012501001001KA1240M+03121MA1999999100861MD1999999-0021REMSYN017 333 10312 59002;EQDQ01  00002PRCP99
0127830960999991999030212004-10920-037050FM-12+000699999V0200901N003612200019N0200001N1+02961+02261101051ADDAA199000091GF101991011051012501001001KA1240N+02461MA1999999100981MD1999999+0101REMSYN017 333 20246 58010;EQDQ01  00002PRCP99
0108830960999991999030218004-10920-037050FM-12+000699999V0200901N005112200019N0200001N1+02971+02351100891ADDAA199000091GF101991011051012501001001MA1999999100821MD1999999+0101REMSYN011 333 58010;EQDQ01  00002PRCP99
0127830960999991999030300004-10920-037050FM-12+000699999V0200901N003612200019N9999999N1+02761+02441101101ADDAA199000091GF101991011051012501001001KA1240M+03161MA1999999101031MD1999999+0171REMSYN017 333 10316 58017;EQDQ01  00002PRCP99
0127830960999991999030312004-10920-037050FM-12+000699999V0200501N003610450019N0200001N1+03021+02341101141ADDAA199000091GF106991021051012501031011KA1240N+02371MA1999999101071MD1999999+0091REMSYN017 333 20237 58009;EQDQ01  00002PRCP99
0108830960999991999030318004-10920-037050FM-12+000699999V0200901N003110450019N0200001N1+02931+02391100851ADDAA199000091GF107991031051012501031011MA1999999100781MD1999999-0041REMSYN011 333 59004;EQDQ01  00002PRCP99
0127830960999991999030400004-10920-037050FM-12+000699999V0200901N005112200019N9999999N1+02761+02421100931ADDAA199000091GF103991031051012501001001KA1240M+03121MA1999999100861MD1999999-0171REMSYN017 333 10312 59017;EQDQ01  00002PRCP99
0127830960999991999030412004-10920-037050FM-12+000699999V0200501N003610450019N0200001N1+02881+02321101061ADDAA199000091GF106991021051012501031011KA1240N+02331MA1999999100991MD1999999-0081REMSYN017 333 20233 59008;EQDQ01  00002PRCP99
0108830960999991999030418004-10920-037050FM-12+000699999V0200901N006212200019N0200001N1+02931+02341100741ADDAA199000091GF104991011051012501001011MA1999999100671MD1999999-0111REMSYN011 333 59011;EQDQ01  00002PRCP99
0127830960999991999030500004-10920-037050FM-12+000699999V0200501N005112200019N9999999N1+02741+02401100861ADDAA199000091GF103991031051012501001001KA1240M+03121MA1999999100791MD1999999-0071REMSYN017 333 10312 59007;EQDQ01  00002PRCP99
0127830960999991999030512004-10920-037050FM-12+000699999V0200501N003610450019N0200001N1+02921+02221101021ADDAA199000091GF106991021051012501031011KA1240N+02281MA1999999100951MD1999999-0041REMSYN017 333 20228 59004;EQDQ01  00002PRCP99
0108830960999991999030518004-10920-037050FM-12+000699999V0200901N005110450019N0200001N1+02901+02301100761ADDAA199000091GF106991021051012501031011MA1999999100691MD1999999+0021REMSYN011 333 58002;EQDQ01  00002PRCP99
0143830960999991999030600004-10920-037050FM-12+000699999V0200501N003612200019N9999999N1+02761+02441100951ADDAA199000091GF103991999051012501001001KA1240M+03111MA1999999100881MD1999999+0091REMSYN017 333 10311 58009;EQDQ01+000012SCOTLCQ02  00002PRCP99
0127830960999991999030612004-10920-037050FM-12+000699999V0200501N003612200019N0200001N1+02941+02241100991ADDAA199000091GF102991021051012501001001KA1240N+02341MA1999999100921MD1999999-0031REMSYN017 333 20234 59003;EQDQ01  00002PRCP99
0108830960999991999030618004-10920-037050FM-12+000699999V0200901N005112200019N0200001N1+02961+02491100771ADDAA199000091GF102991011051012501001011MA1999999100701MD1999999+0011REMSYN011 333 58001;EQDQ01  00002PRCP99
0127830960999991999030712004-10920-037050FM-12+000699999V0200901N003612200019N0200001N1+02981+02331101121ADDAA199000091GF102991011051012501001011KA1240N+02481MA1999999101051MD1999999+0131REMSYN017 333 20248 58013;EQDQ01  00002PRCP99
0108830960999991999030718004-10920-037050FM-12+000699999V0200901N004612200019N0200001N1+02971+02421100851ADDAA199000091GF101991011051012501001001MA1999999100781MD1999999+0081REMSYN011 333 58008;EQDQ01  00002PRCP99
0127830960999991999030812004-10920-037050FM-12+000699999V0200901N003612200019N0200001N1+03011+02291101161ADDAA199000091GF101991011051012501001001KA1240N+02481MA1999999101091MD1999999+0041REMSYN017 333 20248 58004;EQDQ01  00002PRCP99
0108830960999991999030818004-10920-037050FM-12+000699999V0200501N005112200019N0200001N1+03021+02391100871ADDAA199000091GF101991011051012501001001MA1999999100801MD1999999+0021REMSYN011 333 58002;EQDQ01  00002PRCP99
0127830960999991999030900004-10920-037050FM-12+000699999V0200501N003612200019N9999999N1+02761+02341101051ADDAA199000091GF101991011051012501001001KA1240M+03111MA1999999100981MD1999999+0031REMSYN017 333 10311 58003;EQDQ01  00002PRCP99
0127830960999991999030912004-10920-037050FM-12+000699999V0200901N003112200019N0200001N1+03001+02321101181ADDAA199000091GF101991011051012501001001KA1240N+02361MA1999999101111MD1999999+0021REMSYN017 333 20236 58002;EQDQ01  00002PRCP99
0108830960999991999030918004-10920-037050FM-12+000699999V0201401N002112200019N0200001N1+02961+02401100901ADDAA199000091GF102991021051012501001001MA1999999100831MD1999999+0031REMSYN011 333 58003;EQDQ01  00002PRCP99
0127830960999991999031000004-10920-037050FM-12+000699999V0201401N003112200019N9999999N1+02771+02421101011ADDAA199000091GF101991011051012501001001KA1240M+03201MA1999999100941MD1999999-0041REMSYN017 333 10320 59004;EQDQ01  00002PRCP99
0127830960999991999031012004-10920-037050FM-12+000699999V0200901N003610120019N0200001N1+02881+02391101121ADDAA199000091GF106991061051012501001001KA1240N+02421MA1999999101051MD1999999-0061REMSYN017 333 20242 59006;EQDQ01  00002PRCP99
0108830960999991999031018004-10920-037050FM-12+000699999V0200901N003612200019N0200001N1+03011+02391100911ADDAA199000091GF102991021051012501001001MA1999999100841MD1999999+0011REMSYN011 333 58001;EQDQ01  00002PRCP99
0127830960999991999031112004-10920-037050FM-12+000699999V0200901N002612200019N0200001N1+02961+02381101271ADDAA199000091GF101991011051012501001001KA1240N+02431MA1999999101201MD1999999+0151REMSYN017 333 20243 58015;EQDQ01  00002PRCP99
0108830960999991999031118004-10920-037050FM-12+000699999V0200501N005112200019N0200001N1+02971+02491101011ADDAA199000091GF102991021051012501001001MA1999999100941MD1999999+0101REMSYN011 333 58010;EQDQ01  00002PRCP99
0127830960999991999031200004-10920-037050FM-12+000699999V0200501N004612200019N9999999N1+02781+02401101141ADDAA199000091GF102991021051012501001001KA1240M+03131MA1999999101071MD1999999+0071REMSYN017 333 10313 58007;EQDQ01  00002PRCP99
0127830960999991999031212004-10920-037050FM-12+000699999V0200501N003112200019N0200001N1+03001+02461101241ADDAA199000091GF101991011051012501001001KA1240N+02381MA1999999101171MD1999999-0031REMSYN017 333 20238 59003;EQDQ01  00002PRCP99
0108830960999991999031218004-10920-037050FM-12+000699999V0200901N005112200019N0200001N1+03001+02511100851ADDAA199000091GF101991011051012501001001MA1999999100781MD1999999-0161REMSYN011 333 59016;EQDQ01  00002PRCP99
0127830960999991999031300004-10920-037050FM-12+000699999V0200901N004612200019N9999999N1+02781+02421100941ADDAA199000091GF104991041051012501001001KA1240M+03131MA1999999100871MD1999999-0201REMSYN017 333 10313 59020;EQDQ01  00002PRCP99
0127830960999991999031312004-10920-037050FM-12+000699999V0200501N002112200019N0200001N1+03001+02321101041ADDAA199000091GF104991041051012501001001KA1240N+02381MA1999999100971MD1999999-0201REMSYN017 333 20238 59020;EQDQ01  00002PRCP99
0108830960999991999031318004-10920-037050FM-12+000699999V0200901N005112200019N0200001N1+03011+02461100691ADDAA199000091GF101991011051012501001001MA1999999100621MD1999999-0161REMSYN011 333 59016;EQDQ01  00002PRCP99
0127830960999991999031412004-10920-037050FM-12+000699999V0200901N002612200019N0200001N1+03041+02431101141ADDAA199000091GF102991021051012501001001KA1240N+02371MA1999999101071MD1999999+0101REMSYN017 333 20237 58010;EQDQ01  00002PRCP99
0108830960999991999031418004-10920-037050FM-12+000699999V0200901N005112200019N0200001N1+03021+02341100731ADDAA199000091GF101991011051012501001001MA1999999100661MD1999999+0041REMSYN011 333 58004;EQDQ01  00002PRCP99
0127830960999991999031512004-10920-037050FM-12+000699999V0200901N003612200019N0200001N1+02961+02181101191ADDAA199000091GF101991011051012501001001KA1240N+02151MA1999999101121MD1999999+0051REMSYN017 333 20215 58005;EQDQ01  00002PRCP99
0108830960999991999031518004-10920-037050FM-12+000699999V0201401N003112200019N0200001N1+02971+02351100921ADDAA199000091GF101991011051012501001001MA1999999100851MD1999999+0191REMSYN011 333 58019;EQDQ01  00002PRCP99
0143830960999991999031600004-10920-037050FM-12+000699999V0201901N005112200019N9999999N1+02761+02161101071ADDAA199000091GA1001+999999999GF100991001001999999001001KA1240M+03081MA1999999101001MD1999999-0011REMSYN017 333 10308 59001;EQDQ01  00002PRCP99
0114830960999991999031612004-10920-037050FM-12+000699999V0200901N002612200019N0200001N1+02991+02371101151ADDAA199000191GF101991011051012501001001KA1240N+02271MA1999999101081MD1999999-0041REMSYN023 333 20227 59004 69924;
0108830960999991999031618004-10920-037050FM-12+000699999V0200901N005110450019N0200001N1+02981+02231100861ADDAA199000091GF106991031051012501021001MA1999999100791MD1999999-0061REMSYN011 333 59006;EQDQ01  00002PRCP99
0127830960999991999031700004-10920-037050FM-12+000699999V0200501N004612200019N9999999N1+02731+02241101071ADDAA199000091GF101991011051012501001001KA1240M+03121MA1999999101001MD1999999+0001REMSYN017 333 10312 58000;EQDQ01  00002PRCP99
0127830960999991999031712004-10920-037050FM-12+000699999V0201401N002610120019N0200001N1+02831+02241101141ADDAA199000091GF107991051051012501031001KA1240N+02371MA1999999101071MD1999999-0091REMSYN017 333 20237 59009;EQDQ01  00002PRCP99
0108830960999991999031718004-10920-037050FM-12+000699999V0201401N003112200019N0200001N1+02961+02311100841ADDAA199000091GF101991011051012501001001MA1999999100771MD1999999-0021REMSYN011 333 59002;EQDQ01  00002PRCP99
0127830960999991999031800004-10920-037050FM-12+000699999V0201401N003112200019N9999999N1+02741+02361101111ADDAA199000091GF101991011051012501001001KA1240M+03121MA1999999101041MD1999999+0041REMSYN017 333 10312 58004;EQDQ01  00002PRCP99
0127830960999991999032000004-10920-037050FM-12+000699999V0200901N003612200019N9999999N1+02741+02401101191ADDAA199000091GF101991011051012501001001KA1240M+03061MA1999999101121MD1999999+0081REMSYN017 333 10306 58008;EQDQ01  00002PRCP99
0114830960999991999032012004-10920-037050FM-12+000699999V0200501N001010450019N0100001N1+02841+02421101211ADDAA199003091GF106991021051008001031011KA1240N+02241MA1999999101141MD1999999+0161REMSYN023 333 20224 58016 60034;
0095830960999991999032018004-10920-037050FM-12+000699999V0200501N003110120019N0200001N1+02801+02421100971ADDAA199002091GF107991051051012501031001MA1999999100901MD1999999+0141REMSYN017 333 58014 60021;
0114830960999991999032112004-10920-037050FM-12+000699999V0200901N001512200019N0200001N1+02901+02321101301ADDAA199002091GF102991021051012501001001KA1240N+02121MA1999999101231MD1999999+0091REMSYN023 333 20212 58009 60024;
0108830960999991999032118004-10920-037050FM-12+000699999V0201401N002112200019N0200001N1+02971+02421100961ADDAA199000091GF102991021051012501001001MA1999999100891MD1999999-0011REMSYN011 333 59001;EQDQ01  00002PRCP99
0127830960999991999032212004-10920-037050FM-12+000699999V0200901N003612200019N0200001N1+02961+02101101371ADDAA199000091GF101991011051012501001001KA1240N+02321MA1999999101301MD1999999+0071REMSYN017 333 20232 58007;EQDQ01  00002PRCP99
0108830960999991999032218004-10920-037050FM-12+000699999V0201401N003112200019N0200001N1+02981+02011101111ADDAA199000091GF101991011051012501001001MA1999999101041MD1999999+0151REMSYN011 333 58015;EQDQ01  00002PRCP99
0127830960999991999032300004-10920-037050FM-12+000699999V0201401N001512200019N9999999N1+02741+02001101251ADDAA199000091GF101991011051012501001001KA1240M+03131MA1999999101181MD1999999-0021REMSYN017 333 10313 59002;EQDQ01  00002PRCP99
0136830960999991999032312004-10920-037050FM-12+000699999V0201401N002110075019N0100001N1+02441+01971101391ADDAA199004191AY161061AY261061GF108991081051008001999999KA1240N+02121MA1999999101321MD1999999+0021MW1601REMSYN023 333 20212 58002 60044;
0095830960999991999032318004-10920-037050FM-12+000699999V0201401N001510120019N0200001N1+02851+02291101041ADDAA199000191GF107991071051012501001001MA1999999100971MD1999999-0071REMSYN017 333 59007 69921;
0136830960999991999032400004-10920-037050FM-12+000699999V0203601N001510075019N9999999N1+02421+02281101211ADDAA199002091AY161061AY261061GF108991081051008001999999KA1240M+02951MA1999999101141MD1999999-0041MW1601REMSYN023 333 10295 59004 60021;
0114830960999991999032412004-10920-037050FM-12+000699999V0200901N000510450019N0200001N1+02781+02271101281ADDAA199003091GF106991041051012501031001KA1240N+02021MA1999999101211MD1999999-0111REMSYN023 333 20202 59011 60034;
0095830960999991999032418004-10920-037050FM-12+000699999V0201401N002112200019N0200001N1+02851+02261100931ADDAA199000191GF101991011011012501001001MA1999999100861MD1999999-0111REMSYN017 333 59011 69921;
0127830960999991999032500004-10920-037050FM-12+000699999V0200901N001512200019N9999999N1+02741+02321101151ADDAA199000091GF102991021051012501001001KA1240M+03121MA1999999101081MD1999999-0061REMSYN017 333 10312 59006;EQDQ01  00002PRCP99
0114830960999991999032512004-10920-037050FM-12+000699999V0203201N000510450019N0200001N1+02601+02321101391ADDAA199007191GF106991041051012501031001KA1240N+02221MA1999999101321MD1999999+0241REMSYN023 333 20222 58024 60074;
0108830960999991999032518004-10920-037050FM-12+000699999V0200901N005112200019N0200001N1+02971+02381100951ADDAA199000091GF104991041051012501001001MA1999999100881MD1999999+0021REMSYN011 333 58002;EQDQ01  00002PRCP99
0127830960999991999032600004-10920-037050FM-12+000699999V0200901N004612200019N9999999N1+02781+02401101261ADDAA199000091GF104991041051012501001001KA1240M+03081MA1999999101191MD1999999+0111REMSYN017 333 10308 58011;EQDQ01  00002PRCP99
0127830960999991999032612004-10920-037050FM-12+000699999V0200501N003112200019N0200001N1+02961+02401101351ADDAA199000091GF102991021051012501001001KA1240N+02341MA1999999101281MD1999999-0041REMSYN017 333 20234 59004;EQDQ01  00002PRCP99
0108830960999991999032618004-10920-037050FM-12+000699999V0200901N003612200019N0200001N1+02981+02581101061ADDAA199000091GF101991011051012501001001MA1999999100991MD1999999+0091REMSYN011 333 58009;EQDQ01  00002PRCP99
0127830960999991999032700004-10920-037050FM-12+000699999V0200901N003112200019N9999999N1+02741+02211101241ADDAA199000091GF101991011051012501001001KA1240M+03131MA1999999101171MD1999999-0021REMSYN017 333 10313 59002;EQDQ01  00002PRCP99
0127830960999991999032712004-10920-037050FM-12+000699999V0201401N003110450019N0200001N1+02971+02211101351ADDAA199000091GF107991011051012501031001KA1240N+02291MA1999999101281MD1999999+0001REMSYN017 333 20229 58000;EQDQ01  00002PRCP99
0108830960999991999032718004-10920-037050FM-12+000699999V0201401N004610120019N0200001N1+02861+02501101091ADDAA199000091GF107991051051012501031001MA1999999101021MD1999999+0031REMSYN011 333 58003;EQDQ01  00002PRCP99
0127830960999991999032812004-10920-037050FM-12+000699999V0203601N001510120019N0200001N1+02721+02321101311ADDAA199000091GF107991071051012501001001KA1240N+02161MA1999999101241MD1999999-0041REMSYN017 333 20216 59004;EQDQ01  00002PRCP99
0108830960999991999032818004-10920-037050FM-12+000699999V0200901N003112200019N0200001N1+02961+02281100931ADDAA199000091GF101991011051012501001001MA1999999100861MD1999999-0161REMSYN011 333 59016;EQDQ01  00002PRCP99
0127830960999991999032912004-10920-037050FM-12+000699999V0200901N002112200019N0200001N1+02961+02281101271ADDAA199000091GF101991011051012501001001KA1240N+02291MA1999999101201MD1999999-0041REMSYN017 333 20229 59004;EQDQ01  00002PRCP99
0108830960999991999032918004-10920-037050FM-12+000699999V0200901N003112200019N0200001N1+03021+02461100921ADDAA199000091GF101991011051012501001001MA1999999100851MD1999999-0011REMSYN011 333 59001;EQDQ01  00002PRCP99
0127830960999991999033000004-10920-037050FM-12+000699999V0200901N004612200019N9999999N1+02801+02251101011ADDAA199000091GF101991011051012501001001KA1240M+03141MA1999999100941MD1999999-0051REMSYN017 333 10314 59005;EQDQ01  00002PRCP99
0127830960999991999033012004-10920-037050FM-12+000699999V0200901N004112200019N0200001N1+03001+02321101351ADDAA199000091GF101991011051012501001001KA1240N+02391MA1999999101281MD1999999+0081REMSYN017 333 20239 58008;EQDQ01  00002PRCP99
0108830960999991999033018004-10920-037050FM-12+000699999V0200901N003112200019N0200001N1+02971+02351100981ADDAA199000091GF102991021051012501001001MA1999999100911MD1999999+0061REMSYN011 333 58006;EQDQ01  00002PRCP99
0127830960999991999033100004-10920-037050FM-12+000699999V0200901N004612200019N9999999N1+02781+02301101071ADDAA199000091GF101991011051012501001001KA1240M+03161MA1999999101001MD1999999+0061REMSYN017 333 10316 58006;EQDQ01  00002PRCP99
0095830960999991999033118004-10920-037050FM-12+000699999V0201801N002112200019N0200001N1+02841+02311101091ADDAA199005191GF102991021051012501001001MA1999999101021MD1999999+0091REMSYN017 333 58009 60051;
0127830960999991999040100004-10920-037050FM-12+000699999V0201801N002612200019N9999999N1+02761+02231101271ADDAA199000091GF102991021051012501001001KA1240M+02961MA1999999101201MD1999999+0201REMSYN017 333 10296 58020;EQDQ01  00002PRCP99
0114830960999991999040112004-10920-037050FM-12+000699999V0200501N001512200019N0200001N1+02581+02421101361ADDAA199009991GF103991021051012501001011KA1240N+02211MA1999999101291MD1999999+0111REMSYN023 333 20221 58011 60104;
0108830960999991999040118004-10920-037050FM-12+000699999V0201401N003112200019N0200001N1+02911+02501101131ADDAA199000091GF102991011051012501001011MA1999999101061MD1999999+0041REMSYN011 333 58004;EQDQ01  00002PRCP99
0127830960999991999040200004-10920-037050FM-12+000699999V0200901N002112200019N9999999N1+02701+02261101191ADDAA199000091GF102991021051012501001001KA1240M+03021MA1999999101121MD1999999-0081REMSYN017 333 10302 59008;EQDQ01  00002PRCP99
0127830960999991999040212004-10920-037050FM-12+000699999V0201401N003612200019N0200001N1+02981+02201101251ADDAA199000091GF104991021051012501031001KA1240N+02441MA1999999101181MD1999999-0111REMSYN017 333 20244 59011;EQDQ01  00002PRCP99
0114830960999991999040312004-10920-037050FM-12+000699999V0200901N002112200019N0200001N1+02821+02361101261ADDAA199002091GF104991021051012501031001KA1240N+02181MA1999999101191MD1999999+0011REMSYN023 333 20218 58001 60024;
0108830960999991999040318004-10920-037050FM-12+000699999V0201801N002610120019N0200001N1+02861+02481101111ADDAA199000091GF107991071051012501001001MA1999999101041MD1999999+0011REMSYN011 333 58001;EQDQ01  00002PRCP99
0114830960999991999040412004-10920-037050FM-12+000699999V0200901N002112200019N0200001N1+02861+02281101211ADDAA199003091GF102991011051012501031001KA1240N+02501MA1999999101141MD1999999-0051REMSYN023 333 20250 59005 60034;
0108830960999991999040418004-10920-037050FM-12+000699999V0201801N002112200019N0200001N1+02941+02311101061ADDAA199000091GF104991041051012501001001MA1999999100991MD1999999-0051REMSYN011 333 59005;EQDQ01  00002PRCP99
0127830960999991999040500004-10920-037050FM-12+000699999V0201801N002112200019N9999999N1+02761+02301101211ADDAA199000091GF101991011051012501001001KA1240M+03111MA1999999101141MD1999999+0001REMSYN017 333 10311 58000;EQDQ01  00002PRCP99
0127830960999991999040512004-10920-037050FM-12+000699999V0201801N002112200019N0200001N1+02941+02111101251ADDAA199000091GF103991031051012501001001KA1240N+02481MA1999999101181MD1999999+0041REMSYN017 333 20248 58004;EQDQ01  00002PRCP99
0108830960999991999040518004-10920-037050FM-12+000699999V0201401N002110450019N0200001N1+02931+02291101001ADDAA199000091GF106991021051012501031011MA1999999100931MD1999999-0061REMSYN011 333 59006;EQDQ01  00002PRCP99
0127830960999991999040600004-10920-037050FM-12+000699999V0201401N002112200019N9999999N1+02741+02171101211ADDAA199000091GF101991011051012501001001KA1240M+03101MA1999999101141MD1999999+0001REMSYN017 333 10310 58000;EQDQ01  00002PRCP99
0127830960999991999040612004-10920-037050FM-12+000699999V0200901N004610120019N0200001N1+02941+02211101251ADDAA199000091GF106991061051012501001001KA1240N+02481MA1999999101181MD1999999+0011REMSYN017 333 20248 58001;EQDQ01  00002PRCP99
0108830960999991999040618004-10920-037050FM-12+000699999V0201401N002112200019N0200001N1+02981+02301101121ADDAA199000091GF103991021051012501001011MA1999999101051MD1999999+0121REMSYN011 333 58012;EQDQ01  00002PRCP99
0127830960999991999040700004-10920-037050FM-12+000699999V0201401N002112200019N9999999N1+02781+02301101271ADDAA199000091GF103991031051012501001001KA1240M+03141MA1999999101201MD1999999+0061REMSYN017 333 10314 58006;EQDQ01  00002PRCP99
0127830960999991999040712004-10920-037050FM-12+000699999V0201801N001512200019N0200001N1+02961+02351101241ADDAA199000091GF102991021051012501001001KA1240N+02461MA1999999101171MD1999999-0011REMSYN017 333 20246 59001;EQDQ01  00002PRCP99
0108830960999991999040718004-10920-037050FM-12+000699999V0201801N003112200019N0200001N1+02921+02501101151ADDAA199000091GF103991021051012501011001MA1999999101061MD1999999+0011REMSYN011 333 58001;EQDQ01  00002PRCP99
0127830960999991999040800004-10920-037050FM-12+000699999V0201801N002112200019N9999999N1+02741+02381101171ADDAA199000091GF101991011051012501001001KA1240M+03111MA1999999101101MD1999999-0101REMSYN017 333 10311 59010;EQDQ01  00002PRCP99
0108830960999991999040818004-10920-037050FM-12+000699999V0201401N002112200019N0200001N1+02911+02321100961ADDAA199000091GF103991031051012501001001MA1999999100891MD1999999-0171REMSYN011 333 59017;EQDQ01  00002PRCP99
0127830960999991999040900004-10920-037050FM-12+000699999V0201401N003112200019N9999999N1+02741+02301101071ADDAA199000091GF102991021051012501001001KA1240M+03051MA1999999101001MD1999999-0101REMSYN017 333 10305 59010;EQDQ01  00002PRCP99
0114830960999991999040912004-10920-037050FM-12+000699999V0201401N002110120019N0200001N1+02821+02401101071ADDAA199003091GF106991061051012501001001KA1240N+02341MA1999999101001MD1999999-0121REMSYN023 333 20234 59012 60034;
0108830960999991999040918004-10920-037050FM-12+000699999V0200901N003112200019N0200001N1+02931+02521100861ADDAA199000091GF101991011051012501001001MA1999999100791MD1999999-0101REMSYN011 333 59010;EQDQ01  00002PRCP99
0127830960999991999041000004-10920-037050FM-12+000699999V0200901N002612200019N9999999N1+02761+02321101011ADDAA199000091GF102991021051012501001001KA1240M+03081MA1999999100941MD1999999-0061REMSYN017 333 10308 59006;EQDQ01  00002PRCP99
0127830960999991999041012004-10920-037050FM-12+000699999V0200901N003612200019N0200001N1+02881+02281101141ADDAA199000091GF103991031051012501001001KA1240N+02361MA1999999101071MD1999999+0071REMSYN017 333 20236 58007;EQDQ01  00002PRCP99
0127830960999991999041100004-10920-037050FM-12+000699999V0201401N002612200019N9999999N1+02741+02321101291ADDAA199000091GF102991021051012501001001KA1240M+03111MA1999999101221MD1999999+0281REMSYN017 333 10311 58028;EQDQ01  00002PRCP99
0114830960999991999041112004-10920-037050FM-12+000699999V0203601N000510450019N0200001N1+02601+02441101601ADDAA199030091GF106991021051012501031011KA1240N+02141MA1999999101531MD1999999+0461REMSYN023 333 20214 58046 60304;
0127830960999991999041200004-10920-037050FM-12+000699999V0201801N001512200019N9999999N1+02721+02321101471ADDAA199000091GF102991021051012501001001KA1240M+02941MA1999999101401MD1999999+0181REMSYN017 333 10294 58018;EQDQ01  00002PRCP99
0155830960999991999041212004-10920-037050FM-12+000699999V0202701N001510075019N0100001N1+02661+02431101431ADDAA199007191AY161061AY261061GF107991999051008001001001KA1240N+02201MA1999999101361MD1999999-0171MW1601REMSYN023 333 20220 59017 60074;EQDQ01+000052SCOTLC
0089830960999991999041218004-10920-037050FM-12+000699999V0201801N001512200019N0200001N1+02921+02221101241ADDAA199000021GF103991021051012501011001MA1999999101171MD1999999+0001REMSYN011 333 58000;
0127830960999991999041300004-10920-037050FM-12+000699999V0201401N002112200019N9999999N1+02761+02191101431ADDAA199000021GF104991041051012501001001KA1240M+99999MA1999999101261MD1999999-0041REMSYN017 333 10254 59004;EQDQ01 +02542ATMX  
0114830960999991999041312004-10920-037050FM-12+000699999V0200901N001512200019N0200001N1+02921+02361101451ADDAA199000891GF104991021051012501031001KA1240N+02341MA1999999101381MD1999999+0021REMSYN023 333 20234 58002 69974;
0108830960999991999041318004-10920-037050FM-12+000699999V0201401N002110450019N0200001N1+02911+02431101151ADDAA199000091GF106991021051012501031011MA1999999101081MD1999999-0091REMSYN011 333 59009;EQDQ01  00002PRCP99
0143830960999991999041400004-10920-037050FM-12+000699999V0201401N001512200019N9999999N1+02781+02301101231ADDAA199000091GF102991021051012501001001KA1240M+99999MA1999999101161MD1999999-0201REMSYN017 333 10256 59020;EQDQ01  00002PRCP99Q02 +02562ATMX  
0127830960999991999041412004-10920-037050FM-12+000699999V0200901N003112200019N0200001N1+02931+02221101371ADDAA199000091GF101991011051012501001001KA1240N+02321MA1999999101301MD1999999-0081REMSYN017 333 20232 59008;EQDQ01  00002PRCP99
0108830960999991999041418004-10920-037050FM-12+000699999V0200901N003112200019N0200001N1+02541+02521101021ADDAA199000091GF101991011051012501001001MA1999999100951MD1999999-0131REMSYN011 333 59013;EQDQ01  00002PRCP99
0143830960999991999041500004-10920-037050FM-12+000699999V0200901N003112200019N9999999N1+02761+02321101131ADDAA199000091GF101991011051012501001001KA1240M+99999MA1999999101061MD1999999-0101REMSYN017 333 10254 59010;EQDQ01  00002PRCP99Q02 +02542ATMX  
0127830960999991999041512004-10920-037050FM-12+000699999V0200901N003112200019N0200001N1+02901+02201101311ADDAA199000091GF102991021051012501001001KA1240N+02221MA1999999101241MD1999999-0061REMSYN017 333 20222 59006;EQDQ01  00002PRCP99
0127830960999991999041600004-10920-037050FM-12+000699999V0200901N003112200019N9999999N1+02761+02281101071ADDAA199000091GF101991011051012501001001KA1240M+03081MA1999999101001MD1999999-0061REMSYN017 333 10308 59006;EQDQ01  00002PRCP99
0127830960999991999041612004-10920-037050FM-12+000699999V0200901N000512200019N0200001N1+02921+02241101291ADDAA199000091GF102991021051012501001001KA1240N+02181MA1999999101221MD1999999-0021REMSYN017 333 20218 59002;EQDQ01  00002PRCP99
0108830960999991999041618004-10920-037050FM-12+000699999V0200901N003112200019N0200001N1+02951+02401101061ADDAA199000091GF101991011051012501001001MA1999999100991MD1999999+0071REMSYN011 333 58007;EQDQ01  00002PRCP99
0127830960999991999041700004-10920-037050FM-12+000699999V0200901N003112200019N9999999N1+02761+02301101071ADDAA199000091GF101991011051012501001001KA1240M+03081MA1999999101021MD1999999+0021REMSYN017 333 10308 58002;EQDQ01  00002PRCP99
0108830960999991999041718004-10920-037050FM-12+000699999V0200901N004612200019N0200001N1+02951+02561101091ADDAA199000091GF101991011051012501001001MA1999999101021MD1999999+0031REMSYN011 333 58003;EQDQ01  00002PRCP99
0127830960999991999041800004-10920-037050FM-12+000699999V0200901N004112200019N9999999N1+02781+02421101191ADDAA199000091GF103991031051012501001001KA1240M+03131MA1999999101121MD1999999+0101REMSYN017 333 10313 58010;EQDQ01  00002PRCP99
0127830960999991999041812004-10920-037050FM-12+000699999V0200501N002612200019N0200001N1+02961+02261101491ADDAA199000091GF101991011051012501001001KA1240N+02341MA1999999101421MD1999999+0101REMSYN017 333 20234 58010;EQDQ01  00002PRCP99
0108830960999991999041818004-10920-037050FM-12+000699999V0200901N005112200019N0200001N1+02971+02351101211ADDAA199000091GF101991011051012501001001MA1999999101141MD1999999+0121REMSYN011 333 58012;EQDQ01  00002PRCP99
0127830960999991999041900004-10920-037050FM-12+000699999V0200901N004112200019N9999999N1+02761+02301101291ADDAA199000091GF101991011051012501001001KA1240M+03081MA1999999101221MD1999999+0101REMSYN017 333 10308 58010;EQDQ01  00002PRCP99
0127830960999991999041912004-10920-037050FM-12+000699999V0200901N002612200019N0200001N1+02821+02291101411ADDAA199000091GF103991031051012501001001KA1240N+02481MA1999999101341MD1999999-0081REMSYN017 333 20248 59008;EQDQ01  00002PRCP99
0108830960999991999041918004-10920-037050FM-12+000699999V0200901N003112200019N0200001N1+02941+02381101231ADDAA199000091GF101991011051012501001001MA1999999101161MD1999999+0021REMSYN011 333 58002;EQDQ01  00002PRCP99
0127830960999991999042000004-10920-037050FM-12+000699999V0200901N002112200019N9999999N1+02761+02211101271ADDAA199000091GF102991021051012501001001KA1240M+03111MA1999999101201MD1999999-0021REMSYN017 333 10311 59002;EQDQ01  00002PRCP99
0108830960999991999042018004-10920-037050FM-12+000699999V0201401N002612200019N0200001N1+02911+02121101111ADDAA199000091GF101991011051012501001001MA1999999101041MD1999999-0121REMSYN011 333 59012;EQDQ01  00002PRCP99
0143830960999991999042100004-10920-037050FM-12+000699999V0201401N002612200019N9999999N1+02741+02261101091ADDAA199000091GF102991021051012501001001KA1240M+99999MA1999999101021MD1999999-0181REMSYN017 333 10252 59018;EQDQ01  00002PRCP99Q02 +02522ATMX  
0127830960999991999042112004-10920-037050FM-12+000699999V0201401N002112200019N0200001N1+02841+02291101171ADDAA199000091GF101991011051012501001001KA1240N+02381MA1999999101101MD1999999-0281REMSYN017 333 20238 59028;EQDQ01  00002PRCP99
0108830960999991999042118004-10920-037050FM-12+000699999V0201401N002612200019N0200001N1+02921+02241101061ADDAA199000091GF102991021051012501001001MA1999999100991MD1999999-0051REMSYN011 333 59005;EQDQ01  00002PRCP99
0127830960999991999042200004-10920-037050FM-12+000699999V0201401N001512200019N9999999N1+02741+02241101171ADDAA199000091GF103991031051012501001001KA1240M+03161MA1999999101101MD1999999+0081REMSYN017 333 10316 58008;EQDQ01  00002PRCP99
0127830960999991999042212004-10920-037050FM-12+000699999V0201401N003112200019N0200001N1+02961+02261101451ADDAA199000091GF102991021051012501001001KA1240N+02431MA1999999101381MD1999999+0281REMSYN017 333 20243 58028;EQDQ01  00002PRCP99
0095830960999991999042218004-10920-037050FM-12+000699999V0200901N003610450019N0200001N1+02801+02421101251ADDAA199003091GF106991041051012501031001MA1999999101181MD1999999+0191REMSYN017 333 58019 60031;
0127830960999991999042300004-10920-037050FM-12+000699999V0200901N002112200019N9999999N1+02741+02241101211ADDAA199000091GF102991021051012501001001KA1240M+03081MA1999999101141MD1999999+0041REMSYN017 333 10308 58004;EQDQ01  00002PRCP99
0114830960999991999042312004-10920-037050FM-12+000699999V0201401N002612200019N0200001N1+02941+02261101311ADDAA199003091GF102991011051012501031001KA1240N+02481MA1999999101241MD1999999-0141REMSYN023 333 20248 59014 60034;
0095830960999991999042318004-10920-037050FM-12+000699999V0201801N003112200019N0200001N1+02931+02341101221ADDAA199003091GF102991021051012501001001MA1999999101151MD1999999-0031REMSYN017 333 59003 60031;
0127830960999991999042400004-10920-037050FM-12+000699999V0201801N003112200019N9999999N1+02761+02211101291ADDAA199000091GF102991021051012501001001KA1240M+03091MA1999999101201MD1999999+0061REMSYN017 333 10309 58006;EQDQ01  00002PRCP99
0108830960999991999042418004-10920-037050FM-12+000699999V0201801N002112200019N0200001N1+02921+02321101021ADDAA199000091GF102991021051012501001001MA1999999100951MD1999999-0201REMSYN011 333 59020;EQDQ01  00002PRCP99
0143830960999991999042500004-10920-037050FM-12+000699999V0201801N002612200019N9999999N1+02761+02231101111ADDAA199000091GF102991999051012501001001KA1240M+03071MA1999999101041MD1999999-0161REMSYN017 333 10307 59016;EQDQ01+000032SCOTLCQ02  00002PRCP99
0114830960999991999042512004-10920-037050FM-12+000699999V0201801N003112200019N0200001N1+02941+02191101291ADDAA199000891GF103991021051012501031001KA1240N+02391MA1999999101221MD1999999-0061REMSYN023 333 20239 59006 69984;
0108830960999991999042518004-10920-037050FM-12+000699999V0201401N003112200019N0200001N1+02931+02291101011ADDAA199000091GF102991021051012501001001MA1999999100941MD1999999-0011REMSYN011 333 59001;EQDQ01  00002PRCP99
0127830960999991999042612004-10920-037050FM-12+000699999V0201801N000512200019N0200001N1+02921+02121101211ADDAA199000091GF103991021051012501031001KA1240N+02421MA1999999101141MD1999999-0081REMSYN017 333 20242 59008;EQDQ01  00002PRCP99
0108830960999991999042618004-10920-037050FM-12+000699999V0201801N003611050019N0200001N1+02891+02211101021ADDAA199000091GF105991021051012501031011MA1999999100951MD1999999+0011REMSYN011 333 58001;EQDQ01  00002PRCP99
0127830960999991999042700004-10920-037050FM-12+000699999V0201801N003112200019N9999999N1+02721+02241101091ADDAA199000091GF104991041051012501001001KA1240M+03061MA1999999101021MD1999999-0041REMSYN017 333 10306 59004;EQDQ01  00002PRCP99
0114830960999991999042712004-10920-037050FM-12+000699999V0201801N002112200019N0200001N1+02871+02371101351ADDAA199002091GF102991021051012501001001KA1240N+02161MA1999999101281MD1999999+0141REMSYN023 333 20216 58014 60024;
0117830960999991999042718004-10920-037050FM-12+000699999V0201801N003610075019N0100001N1+02461+02271101091ADDAA199004191AY161061AY261061GF108991081071008001999999MA1999999101021MD1999999+0071MW1601REMSYN017 333 58007 60041;
0114830960999991999042800004-10920-037050FM-12+000699999V0201801N002612200019N9999999N1+02721+02221101161ADDAA199004191GF104991041051012501001001KA1240M+02961MA1999999101091MD1999999+0071REMSYN023 333 10296 58007 60041;
0136830960999991999042812004-10920-037050FM-12+000699999V0201801N002610075019N0100001N1+02501+02311101161ADDAA199009991AY161061AY261061GF108991081071008001999999KA1240N+02241MA1999999101091MD1999999-0191MW1601REMSYN023 333 20224 59019 60104;
0108830960999991999042900004-10920-037050FM-12+000699999V0201801N002112200019N9999999N1+02721+02281101231ADDAA199000021GF103991031051012501001001KA1240M+02941MA1999999101161MD1999999+0071REMSYN017 333 10294 58007;
0136830960999991999043000004-10920-037050FM-12+000699999V0201401N001010075019N9999999N1+02441+02301101341ADDAA199003091AY161061AY261061GF108991081051008001001001KA1240M+02841MA1999999101271MD1999999+0111MW1601REMSYN023 333 10284 58011 60031;
0114830960999991999043012004-10920-037050FM-12+000699999V0202701N001012200019N0200001N1+02601+02391101251ADDAA199019191GF103991021051012501031001KA1240N+02001MA1999999101181MD1999999-0091REMSYN023 333 20200 59009 60194;
0095830960999991999043018004-10920-037050FM-12+000699999V0201801N002110120019N0200001N1+02841+02461101091ADDAA199001091GF106991061051012501001001MA1999999101021MD1999999-0031REMSYN017 333 59003 60011;
0143830960999991999050100004-10920-037050FM-12+000699999V0201801N001512200019N9999999N1+02681+02161101221ADDAA199000091GF102991021051012501001001KA1240M+99999MA1999999101151MD1999999-0121REMSYN017 333 10240 59012;EQDQ01  00002PRCP99Q02 +02402ATMX  
0114830960999991999050112004-10920-037050FM-12+000699999V0201801N001012200019N0200001N1+02841+02221101291ADDAA199002091GF102991021051012501001001KA1240N+02021MA1999999101221MD1999999+0041REMSYN023 333 20202 58004 60024;
0108830960999991999050118004-10920-037050FM-12+000699999V0201801N004112200019N0200001N1+02851+02291101251ADDAA199000091GF102991011051008001001011MA1999999101181MD1999999+0161REMSYN011 333 58016;EQDQ01  00002PRCP99
0114830960999991999050312004-10920-037050FM-12+000699999V0201801N005112200019N0200001N1+02821+02291101331ADDAA199001091GF103991021051012501031001KA1240N+02281MA1999999101261MD1999999-0201REMSYN023 333 20228 59020 60014;
0108830960999991999050318004-10920-037050FM-12+000699999V0201801N002112200019N0200001N1+02841+02241101291ADDAA199000091GF105991031051012501001011MA1999999101221MD1999999+0051REMSYN011 333 58005;EQDQ01  00002PRCP99
0127830960999991999050400004-10920-037050FM-12+000699999V0201801N002112200019N9999999N1+02681+02161101291ADDAA199000091GF102991021051012501001001KA1240M+02961MA1999999101221MD1999999+0021REMSYN017 333 10296 58002;EQDQ01  00002PRCP99
0127830960999991999050412004-10920-037050FM-12+000699999V0200901N003110450019N0200001N1+02911+02221101461ADDAA199000091GF106991041051012501031001KA1240N+02291MA1999999101391MD1999999+0131REMSYN017 333 20229 58013;EQDQ01  00002PRCP99
0108830960999991999050418004-10920-037050FM-12+000699999V0201801N002610120019N0200001N1+02741+02381101171ADDAA199000091GF107991071051012501001001MA1999999101101MD1999999-0121REMSYN011 333 59012;EQDQ01  00002PRCP99
0127830960999991999050500004-10920-037050FM-12+000699999V0201801N003112200019N9999999N1+02721+02221101271ADDAA199000091GF102991021051012501001001KA1240M+03011MA1999999101201MD1999999-0021REMSYN017 333 10301 59002;EQDQ01  00002PRCP99
0114830960999991999050512004-10920-037050FM-12+000699999V0200901N002610450019N0200001N1+02741+02451101211ADDAA199015091GF106991041051012501031001KA1240N+02081MA1999999101141MD1999999-0251REMSYN023 333 20208 59025 60154;
0108830960999991999050518004-10920-037050FM-12+000699999V0201801N003110120019N0200001N1+02861+02351101161ADDAA199000091GF106991051051012501031001MA1999999101091MD1999999-0011REMSYN011 333 59001;EQDQ01  00002PRCP99
0136830960999991999050600004-10920-037050FM-12+000699999V0202701N001510075019N9999999N1+02361+02221101171ADDAA199006191AY161061AY261061GF106991061051008001001001KA1240M+03011MA1999999101101MD1999999-0101MW1601REMSYN023 333 10301 59010 60061;
0114830960999991999050612004-10920-037050FM-12+000699999V0201801N002612200019N0200001N1+02881+02211101371ADDAA199009991GF105991041051012501001011KA1240N+02161MA1999999101301MD1999999+0161REMSYN023 333 20216 58016 60104;
0108830960999991999050618004-10920-037050FM-12+000699999V0201401N002612200019N0200001N1+02861+02261101171ADDAA199000091GF104991041051012501001001MA1999999101101MD1999999+0011REMSYN011 333 58001;EQDQ01  00002PRCP99
0127830960999991999050700004-10920-037050FM-12+000699999V0201401N003112200019N9999999N1+02701+02131101191ADDAA199000091GF102991021051012501001001KA1240M+02961MA1999999101121MD1999999+0021REMSYN017 333 10296 58002;EQDQ01  00002PRCP99
0127830960999991999050712004-10920-037050FM-12+000699999V0203601N001512200019N0200001N1+02741+02301101211ADDAA199000091GF102991021051012501001001KA1240N+02181MA1999999101141MD1999999+0041REMSYN017 333 20218 58004;EQDQ01  00002PRCP99
0108830960999991999050718004-10920-037050FM-12+000699999V0200901N003112200019N0200001N1+02881+02251101121ADDAA199000091GF103991031051012501001001MA1999999101051MD1999999-0051REMSYN011 333 59005;EQDQ01  00002PRCP99
0127830960999991999050800004-10920-037050FM-12+000699999V0200901N003112200019N9999999N1+02681+02201101131ADDAA199000091GF101991011051012501001001KA1240M+02961MA1999999101061MD1999999-0061REMSYN017 333 10296 59006;EQDQ01  00002PRCP99
0127830960999991999050812004-10920-037050FM-12+000699999V0200901N001512200019N0200001N1+02871+02231101261ADDAA199000091GF102991021051012501001001KA1240N+02021MA1999999101191MD1999999+0051REMSYN017 333 20202 58005;EQDQ01  00002PRCP99
0108830960999991999050818004-10920-037050FM-12+000699999V0201401N002610450019N0200001N1+02841+02241101051ADDAA199000091GF106991041051012501031001MA1999999100981MD1999999-0071REMSYN011 333 59007;EQDQ01  00002PRCP99
0127830960999991999050900004-10920-037050FM-12+000699999V0200901N003112200019N9999999N1+02701+02301101131ADDAA199000091GF103991031051012501001001KA1240M+02961MA1999999101061MD1999999+0001REMSYN017 333 10296 58000;EQDQ01  00002PRCP99
0127830960999991999050912004-10920-037050FM-12+000699999V0200901N004610120019N0200001N1+02861+02231101351ADDAA199000091GF106991061051012501001001KA1240N+02291MA1999999101281MD1999999+0091REMSYN017 333 20229 58009;EQDQ01  00002PRCP99
0108830960999991999050918004-10920-037050FM-12+000699999V0200901N005112200019N0200001N1+02871+02281101071ADDAA199000091GF102991021051012501001001MA1999999101001MD1999999+0021REMSYN011 333 58002;EQDQ01  00002PRCP99
0127830960999991999051000004-10920-037050FM-12+000699999V0200901N003112200019N9999999N1+02741+02241101071ADDAA199000091GF102991021051012501001001KA1240M+02981MA1999999101001MD1999999-0061REMSYN017 333 10298 59006;EQDQ01  00002PRCP99
0127830960999991999051012004-10920-037050FM-12+000699999V0201801N000512200019N0200001N1+02861+02191101171ADDAA199000091GF101991011051012501001001KA1240N+02281MA1999999101101MD1999999+0101REMSYN017 333 20228 58010;EQDQ01  00002PRCP99
0108830960999991999051018004-10920-037050FM-12+000699999V0201801N002112200019N0200001N1+02821+02091101111ADDAA199000091GF102991011051012501001011MA1999999101041MD1999999+0041REMSYN011 333 58004;EQDQ01  00002PRCP99
0127830960999991999051100004-10920-037050FM-12+000699999V0201801N002612200019N9999999N1+02721+02191101211ADDAA199000091GF102991021051012501001001KA1240M+03001MA1999999101141MD1999999+0141REMSYN017 333 10300 58014;EQDQ01  00002PRCP99
0114830960999991999051112004-10920-037050FM-12+000699999V0202301N002112200019N0200001N1+02601+02351101411ADDAA199000391GF103991011051012501001011KA1240N+02121MA1999999101341MD1999999+0241REMSYN023 333 20212 58024 69934;
0108830960999991999051118004-10920-037050FM-12+000699999V0201801N003110450019N0200001N1+02861+02261101121ADDAA199000091GF105991031051012501031001MA1999999101051MD1999999+0011REMSYN011 333 58001;EQDQ01  00002PRCP99
0127830960999991999051200004-10920-037050FM-12+000699999V0201801N002612200019N9999999N1+02701+02131101191ADDAA199000091GF101991011051012501001001KA1240M+02981MA1999999101121MD1999999-0021REMSYN017 333 10298 59002;EQDQ01  00002PRCP99
0114830960999991999051212004-10920-037050FM-12+000699999V0200901N003110450019N0200001N1+02711+02301101471ADDAA199004191GF106991041051012501031011KA1240N+02031MA1999999101401MD1999999+0061REMSYN023 333 20203 58006 60044;
0108830960999991999051218004-10920-037050FM-12+000699999V0201801N003612200019N0200001N1+02881+02281101081ADDAA199000091GF101991011051012501001001MA1999999101011MD1999999-0041REMSYN011 333 59004;EQDQ01  00002PRCP99
0127830960999991999051300004-10920-037050FM-12+000699999V0201801N002112200019N9999999N1+02641+02311101091ADDAA199000091GF103991031051012501001001KA1240M+03021MA1999999101021MD1999999-0101REMSYN017 333 10302 59010;EQDQ01  00002PRCP99
0127830960999991999051312004-10920-037050FM-12+000699999V0203601N001510450019N0200001N1+02721+02391101231ADDAA199000091GF105991031051012501031011KA1240N+02121MA1999999101161MD1999999-0241REMSYN017 333 20212 59024;EQDQ01  00002PRCP99
0108830960999991999051318004-10920-037050FM-12+000699999V0201401N002612200019N0200001N1+02911+02391100941ADDAA199000091GF101991011051012501001001MA1999999100871MD1999999-0141REMSYN011 333 59014;EQDQ01  00002PRCP99
0127830960999991999051412004-10920-037050FM-12+000699999V0203601N001510450019N0200001N1+02721+02221101231ADDAA199000091GF106991041051012501031001KA1240N+02181MA1999999101161MD1999999+0001REMSYN017 333 20218 58000;EQDQ01  00002PRCP99
0171830960999991999051500004-10920-037050FM-12+000699999V0201101N999990075019N9999999N1+02561+02351101191ADDAA199007991AY161061AY261061GF107991999051008001001001KA1240M+03081MA1999999101121MD1999999+0121MW1601REMSYN023 333 10308 58012 60081;EQDQ01+009251WOSPD Q02+000062SCOTLC
0136830960999991999051512004-10920-037050FM-12+000699999V0201801N003110075019N0100001N1+02301+02251101611ADDAA199054191AY161061AY261061GF108991081071008001999999KA1240N+02061MA1999999101541MD1999999+0381MW1601REMSYN023 333 20206 58038 60544;
0078830960999991999051515004-10920-037050FM-12+000699999V0202101N001019999999N0500001N1+99999+99999101351ADDGF107991041001999999071081MD1710011+9999EQDQ01+000753ATOT  Q02-000473ATOD  
0117830960999991999051518004-10920-037050FM-12+000699999V0201801N002610075019N0100001N1+02341+02221101341ADDAA199034091AY161061AY261061GF108991081071008001999999MA1999999101271MD1999999+0301MW1601REMSYN017 333 58030 60341;
0136830960999991999051600004-10920-037050FM-12+000699999V0201801N004110075019N9999999N1+02301+02181101321ADDAA199020191AY161061AY261061GF108991081071008001999999KA1240M+02561MA1999999101251MD1999999+0131MW1601REMSYN023 333 10256 58013 60201;
0155830960999991999051612004-10920-037050FM-12+000699999V0201801N003610060019N0040001N1+02361+02011101411ADDAA199003091AY161061AY251061GF108991081081002501999999KA1240N+02081MA1999999999999MD1999999-0161MW1151REMSYN023 333 20208 59016 60034;EQDQ01 098533APOSP 
0136830960999991999051618004-10920-037050FM-12+000699999V0201801N002610075019N0100001N1+02481+02321101141ADDAA199017091AY161061AY261061GF108991081071008001999999MA1999999101072MD1999999-0201MW1601REMSYN017 333 59020 60171;EQDQ01+101073APOSP 
0136830960999991999051700004-10920-037050FM-12+000699999V0201801N003110075019N9999999N1+02381+02281101181ADDAA199023191AY161061AY261061GF108991081071008001999999KA1240M+02561MA1999999101111MD1999999-0141MW1601REMSYN023 333 10256 59014 60231;
0114830960999991999051712004-10920-037050FM-12+000699999V0202701N002110450019N0200001N1+02561+02401101181ADDAA199085191GF106991041051012501031001KA1240N+01881MA1999999101111MD1999999-0161REMSYN023 333 20188 59016 60854;
0108830960999991999051718004-10920-037050FM-12+000699999V0201801N002110450019N0200001N1+02761+02381101161ADDAA199000091GF106991041051012501031001MA1999999101091MD1999999+0021REMSYN011 333 58002;EQDQ01  00002PRCP99
0127830960999991999051800004-10920-037050FM-12+000699999V0202701N001512200019N9999999N1+02521+02271101211ADDAA199000091GF102991021051012501001001KA1240M+02861MA1999999101141MD1999999+0031REMSYN017 333 10286 58003;EQDQ01  00002PRCP99
0114830960999991999051812004-10920-037050FM-12+000699999V0202701N001510450019N0200001N1+02571+02331101401ADDAA199004191GF106991041051012501031001KA1240N+02031MA1999999101331MD1999999+0221REMSYN023 333 20203 58022 60044;
0108830960999991999051818004-10920-037050FM-12+000699999V0201401N002612200019N0200001N1+02751+02361101201ADDAA199000091GF101991011051012501001001MA1999999101131MD1999999+0041REMSYN011 333 58004;EQDQ01  00002PRCP99
0127830960999991999051900004-10920-037050FM-12+000699999V0201401N002112200019N9999999N1+02641+02271101171ADDAA199000091GF102991021051012501001001KA1240M+02861MA1999999101101MD1999999-0041REMSYN017 333 10286 59004;EQDQ01  00002PRCP99
0127830960999991999051912004-10920-037050FM-12+000699999V0202701N002110450019N0200001N1+02621+02351101291ADDAA199000091GF106991041051012501031001KA1240N+02061MA1999999101221MD1999999-0111REMSYN017 333 20206 59011;EQDQ01  00002PRCP99
0108830960999991999051918004-10920-037050FM-12+000699999V0201801N003112200019N0200001N1+02761+02341101251ADDAA199000091GF102991021051012501001001MA1999999101181MD1999999+0051REMSYN011 333 58005;EQDQ01  00002PRCP99
0127830960999991999052000004-10920-037050FM-12+000699999V0201801N002112200019N9999999N1+02641+02271101171ADDAA199000091GF102991021021012501051001KA1240M+02931MA1999999101101MD1999999+0001REMSYN017 333 10293 58000;EQDQ01  00002PRCP99
0127830960999991999052012004-10920-037050FM-12+000699999V0209999C000010450019N0200001N1+02661+02331101411ADDAA199000091GF106991041051012501031001KA1240N+02081MA1999999101341MD1999999+0121REMSYN017 333 20208 58012;EQDQ01  00002PRCP99
0108830960999991999052018004-10920-037050FM-12+000699999V0201401N003612200019N0200001N1+02821+02441101071ADDAA199000091GF102991021051012501001001MA1999999101001MD1999999-0181REMSYN011 333 59018;EQDQ01  00002PRCP99
0127830960999991999052100004-10920-037050FM-12+000699999V0200901N003112200019N9999999N1+02681+02281101071ADDAA199000091GF102991021051012501001001KA1240M+02901MA1999999101001MD1999999-0101REMSYN017 333 10290 59010;EQDQ01  00002PRCP99
0127830960999991999052112004-10920-037050FM-12+000699999V0200501N002112200019N0200001N1+02761+02301101171ADDAA199000091GF102991021051012501001001KA1240N+02241MA1999999101101MD1999999-0241REMSYN017 333 20224 59024;EQDQ01  00002PRCP99
0127830960999991999052200004-10920-037050FM-12+000699999V0200901N003112200019N9999999N1+02681+02391101091ADDAA199000091GF102991021051012501001001KA1240M+02961MA1999999101021MD1999999+0021REMSYN017 333 10296 58002;EQDQ01  00002PRCP99
0127830960999991999052212004-10920-037050FM-12+000699999V0200901N001510450019N0200001N1+02781+02481101491ADDAA199000091GF105991041051012501031001KA1240N+02261MA1999999101421MD1999999+0321REMSYN017 333 20226 58032;EQDQ01  00002PRCP99
0108830960999991999052218004-10920-037050FM-12+000699999V0200901N003112200019N0200001N1+02841+02461101171ADDAA199000091GF102991021051012501001001MA1999999101101MD1999999+0201REMSYN011 333 58020;EQDQ01  00002PRCP99
0114830960999991999052300004-10920-037050FM-12+000699999V0200901N002112200019N9999999N1+02641+02371101201ADDAA199004191GF102991999999012501999999KA1240M+02961MA1999999101131MD1999999+0131REMSYN023 333 10296 58013 60041;
0114830960999991999052312004-10920-037050FM-12+000699999V0201801N002610075019N0100001N1+02611+02231101591ADDAA199038191GF108991081071008001999999KA1240N+02071MA1999999101521MD1999999+0101REMSYN023 333 20207 58010 60384;
0127830960999991999052400004-10920-037050FM-12+000699999V0201801N004110120019N9999999N1+02621+02231101361ADDAA199000091GF106991061051012501001001KA1240M+02731MA1999999101291MD1999999+0161REMSYN017 333 10273 58016;EQDQ01  00002PRCP99
0114830960999991999052412004-10920-037050FM-12+000699999V0201801N003110120019N0200001N1+02561+02231101561ADDAA199014091GF106991061051012501001001KA1240N+02221MA1999999101491MD1999999-0031REMSYN023 333 20222 59003 60144;
0108830960999991999052418004-10920-037050FM-12+000699999V0201801N002112200019N0200001N1+02771+02041101471ADDAA199000091GF102991021051012501001001MA1999999101401MD1999999+0241REMSYN011 333 58024;EQDQ01  00002PRCP99
0127830960999991999052500004-10920-037050FM-12+000699999V0201801N002112200019N9999999N1+02641+02091101371ADDAA199000091GF102991021051012501001001KA1240M+02871MA1999999101301MD1999999+0011REMSYN017 333 10287 58001;EQDQ01  00002PRCP99
0127830960999991999052512004-10920-037050FM-12+000699999V0201801N002612200019N0200001N1+02781+02231101801ADDAA199000091GF103991031051012501001001KA1240N+02041MA1999999101731MD1999999+0241REMSYN017 333 20204 58024;EQDQ01  00002PRCP99
0114830960999991999052600004-10920-037050FM-12+000699999V0201801N002110120019N9999999N1+02601+02211101421ADDAA199002091GF105991051051012501001001KA1240M+02911MA1999999101351MD1999999+0051REMSYN023 333 10291 58005 60021;
0114830960999991999052612004-10920-037050FM-12+000699999V0201801N001512200019N0200001N1+02621+02351101451ADDAA199004191GF103991031051012501001001KA1240N+02121MA1999999101381MD1999999-0351REMSYN023 333 20212 59035 60044;
0108830960999991999052618004-10920-037050FM-12+000699999V0200901N005112200019N0200001N1+02811+02251101151ADDAA199000091GF102991021051012501001001MA1999999101081MD1999999-0241REMSYN011 333 59024;EQDQ01  00002PRCP99
0127830960999991999052700004-10920-037050FM-12+000699999V0200901N005112200019N9999999N1+02661+02041101271ADDAA199000091GF102991021051012501001001KA1240M+02871MA1999999101201MD1999999-0151REMSYN017 333 10287 59015;EQDQ01  00002PRCP99
0127830960999991999052712004-10920-037050FM-12+000699999V0200901N004612200019N0200001N1+02821+02121101571ADDAA199000091GF101991011051012501001001KA1240N+02381MA1999999101501MD1999999+0121REMSYN017 333 20238 58012;EQDQ01  00002PRCP99
0108830960999991999052718004-10920-037050FM-12+000699999V0200901N004612200019N0200001N1+02811+02291101331ADDAA199000091GF101991011051012501001001MA1999999101261MD1999999+0181REMSYN011 333 58018;EQDQ01  00002PRCP99
0127830960999991999052800004-10920-037050FM-12+000699999V0200901N002612200019N9999999N1+02661+02221101391ADDAA199000091GF102991021051012501001001KA1240M+02921MA1999999101321MD1999999-0121REMSYN017 333 10292 59012;EQDQ01  00002PRCP99
0127830960999991999052812004-10920-037050FM-12+000699999V0201801N002112200019N0200001N1+02721+02281101371ADDAA199000091GF101991011051012501001001KA1240N+02321MA1999999101301MD1999999-0021REMSYN017 333 20232 59002;EQDQ01  00002PRCP99
0108830960999991999052818004-10920-037050FM-12+000699999V0201801N003112200019N0200001N1+02771+02251101361ADDAA199000091GF101991011051012501001001MA1999999101291MD1999999+0031REMSYN011 333 58003;EQDQ01  00002PRCP99
0127830960999991999052900004-10920-037050FM-12+000699999V0201801N002110120019N9999999N1+02481+02151101531ADDAA199000091GF105991051051012501001001KA1240M+02961MA1999999101461MD1999999+0141REMSYN017 333 10296 58014;EQDQ01  00002PRCP99
0114830960999991999052912004-10920-037050FM-12+000699999V0201801N004112200019N0200001N1+02461+02071101641ADDAA199005191GF102991021051012501001001KA1240N+02101MA1999999101571MD1999999+0271REMSYN023 333 20210 58027 60054;
0095830960999991999052918004-10920-037050FM-12+000699999V0201801N003612200019N0200001N1+02781+02301101401ADDAA199000191GF101991011051012501001001MA1999999101331MD1999999+0041REMSYN017 333 58004 69921;
0127830960999991999053000004-10920-037050FM-12+000699999V0201801N001512200019N9999999N1+02521+02131101311ADDAA199000091GF102991021051012501001001KA1240M+02821MA1999999101241MD1999999-0221REMSYN017 333 10282 59022;EQDQ01  00002PRCP99
0114830960999991999053012004-10920-037050FM-12+000699999V0202701N002110120019N0200001N1+02541+02331101421ADDAA199003091GF107991051051012501031001KA1240N+02021MA1999999101351MD1999999-0221REMSYN023 333 20202 59022 60034;
0108830960999991999053018004-10920-037050FM-12+000699999V0201801N002112200019N0200001N1+02711+02201101011ADDAA199000091GF101991011051012501001001MA1999999100941MD1999999-0391REMSYN011 333 59039;EQDQ01  00002PRCP99
0127830960999991999053100004-10920-037050FM-12+000699999V0201801N001512200019N9999999N1+02541+02171101131ADDAA199000091GF102991021051012501001001KA1240M+02861MA1999999101061MD1999999-0181REMSYN017 333 10286 59018;EQDQ01  00002PRCP99
0127830960999991999053112004-10920-037050FM-12+000699999V0200901N002112200019N0200001N1+02481+02171101091ADDAA199000091GF101991011051012501001001KA1240N+01941MA1999999101021MD1999999-0331REMSYN017 333 20194 59033;EQDQ01  00002PRCP99
0108830960999991999053118004-10920-037050FM-12+000699999V0200901N002112200019N0200001N1+02921+02451100841ADDAA199000091GF101991011051012501001001MA1999999100771MD1999999-0171REMSYN011 333 59017;EQDQ01  00002PRCP99
0127830960999991999060100004-10920-037050FM-12+000699999V0200901N003112200019N9999999N1+02621+02351100971ADDAA199000091GF101991011051012501001001KA1240M+03221MA1999999100901MD1999999-0161REMSYN017 333 10322 59016;EQDQ01  00002PRCP99
0127830960999991999060112004-10920-037050FM-12+000699999V0201801N002110120019N0200001N1+02801+02271101491ADDAA199000091GF106991061051012501001001KA1240N+02101MA1999999101421MD1999999+0401REMSYN017 333 20210 58040;EQDQ01  00002PRCP99
0108830960999991999060118004-10920-037050FM-12+000699999V0201801N003112200019N0200001N1+02761+02321101301ADDAA199000091GF102991021051012501001001MA1999999101231MD1999999+0461REMSYN011 333 58046;EQDQ01  00002PRCP99
0114830960999991999060200004-10920-037050FM-12+000699999V0201801N001512200019N9999999N1+02621+02231101431ADDAA199000591GF102991021051012501001001KA1240M+02921MA1999999101361MD1999999+0461REMSYN023 333 10292 58046 69941;
0114830960999991999060212004-10920-037050FM-12+000699999V0200901N001512200019N0200001N1+02741+02321101371ADDAA199002091GF102991021051012501001001KA1240N+02081MA1999999101301MD1999999-0361REMSYN023 333 20208 59036 60024;
0108830960999991999060218004-10920-037050FM-12+000699999V0201801N003612200019N0200001N1+02781+02181101351ADDAA199000091GF103991031051012501001001MA1999999101281MD1999999+0051REMSYN011 333 58005;EQDQ01  00002PRCP99
0114830960999991999060300004-10920-037050FM-12+000699999V0201801N003612200019N9999999N1+02641+02141101371ADDAA199000191GF101991011051012501001001KA1240M+02941MA1999999101201MD1999999-0061REMSYN023 333 10294 59006 69921;
0114830960999991999060312004-10920-037050FM-12+000699999V0200901N001512200019N0100001N1+02741+02341101371ADDAA199004191GF104991021051008001031001KA1240N+02141MA1999999101301MD1999999+0001REMSYN023 333 20214 58000 60044;
0095830960999991999060318004-10920-037050FM-12+000699999V0201801N002110450019N0200001N1+02771+02251101301ADDAA199000191GF106991041051012501031001MA1999999101231MD1999999-0051REMSYN017 333 59005 69921;
0114830960999991999060400004-10920-037050FM-12+000699999V0201801N003112200019N9999999N1+02561+02231101271ADDAA199002091GF104991041051012501001001KA1240M+02881MA1999999101301MD1999999+0001REMSYN023 333 10288 58000 60021;
0114830960999991999060412004-10920-037050FM-12+000699999V0201801N002112200019N0200001N1+02421+02251101401ADDAA199003091GF103991031051012501001001KA1240N+02021MA1999999101331MD1999999+0031REMSYN023 333 20202 58003 60034;
0095830960999991999060418004-10920-037050FM-12+000699999V0201801N002110120019N0200001N1+02711+02331101281ADDAA199005191GF106991061051012501001001MA1999999101211MD1999999-0021REMSYN017 333 59002 60051;
0127830960999991999060600004-10920-037050FM-12+000699999V0201801N002112200019N9999999N1+02601+02031101331ADDAA199000091GF101991011051012501001001KA1240M+02881MA1999999101261MD1999999+0101REMSYN017 333 10288 58010;EQDQ01  00002PRCP99
0114830960999991999060612004-10920-037050FM-12+000699999V0202301N001510450019N0200001N1+02521+02311101501ADDAA199003091GF106991041051012501031001KA1240N+02031MA1999999101431MD1999999-0101REMSYN023 333 20203 59010 60034;
0114830960999991999060700004-10920-037050FM-12+000699999V0202701N001512200019N9999999N1+02381+02281101291ADDAA199000591GF102991021051012501001001KA1240M+02841MA1999999101221MD1999999-0041REMSYN023 333 10284 59004 69961;
0114830960999991999060712004-10920-037050FM-12+000699999V0202701N002112200019N0200001N1+02381+02141101461ADDAA199004191GF102991021051012501001001KA1240N+01961MA1999999101391MD1999999-0041REMSYN023 333 20196 59004 60044;
0108830960999991999060718004-10920-037050FM-12+000699999V0201401N002612200019N0200001N1+02761+02161101311ADDAA199000091GF101991011051012501001001MA1999999101241MD1999999-0011REMSYN011 333 59001;EQDQ01  00002PRCP99
0127830960999991999060800004-10920-037050FM-12+000699999V0201401N002112200019N9999999N1+02621+02051101411ADDAA199000091GF102991021051012501001001KA1240M+02841MA1999999101341MD1999999+0121REMSYN017 333 10284 58012;EQDQ01  00002PRCP99
0114830960999991999060812004-10920-037050FM-12+000699999V0201801N003112200019N0200001N1+02781+02211101681ADDAA199001091GF102991021051012501001001KA1240N+02061MA1999999101611MD1999999+0221REMSYN023 333 20206 58022 60014;
0136830960999991999060900004-10920-037050FM-12+000699999V0201801N003610075019N9999999N1+02381+02131101541ADDAA199011991AY161061AY261061GF107991071051008001001001KA1240M+02941MA1999999101471MD1999999+0131MW1601REMSYN023 333 10294 58013 60121;
0095830960999991999060918004-10920-037050FM-12+000699999V0201801N003112200019N0200001N1+02741+02141101381ADDAA199000591GF101991011051012501001001MA1999999101311MD1999999-0021REMSYN017 333 59002 69941;
0127830960999991999061000004-10920-037050FM-12+000699999V0201801N003110120019N9999999N1+02421+02281101491ADDAA199000091GF106991061051012501001001KA1240M+02911MA1999999101421MD1999999-0051REMSYN017 333 10291 59005;EQDQ01  00002PRCP99
0108830960999991999061018004-10920-037050FM-12+000699999V0200901N003110120019N0200001N1+02701+02391101381ADDAA199000091GF106991061051012501001001MA1999999101311MD1999999+0001REMSYN011 333 58000;EQDQ01  00002PRCP99
0114830960999991999061100004-10920-037050FM-12+000699999V0200901N002612200019N9999999N1+02601+02141101471ADDAA199000591GF101991011051012501001001KA1240M+02841MA1999999101401MD1999999-0021REMSYN023 333 10284 59002 69941;
0114830960999991999061112004-10920-037050FM-12+000699999V0200901N004112200019N0200001N1+02741+02171101431ADDAA199001091GF101991011051012501001001KA1240N+02261MA1999999101361MD1999999-0241REMSYN023 333 20226 59024 60014;
0108830960999991999061118004-10920-037050FM-12+000699999V0200901N003610120019N0200001N1+02721+02301101391ADDAA199000091GF106991061051012501001001MA1999999101321MD1999999+0011REMSYN011 333 58001;EQDQ01  00002PRCP99
0127830960999991999061200004-10920-037050FM-12+000699999V0200901N002112200019N9999999N1+02581+02101101391ADDAA199000091GF101991011051012501001001KA1240M+02831MA1999999101321MD1999999-0081REMSYN017 333 10283 59008;EQDQ01  00002PRCP99
0127830960999991999061212004-10920-037050FM-12+000699999V0201801N003112200019N0200001N1+02761+02121101641ADDAA199000091GF101991011051012501001001KA1240N+02301MA1999999101571MD1999999+0211REMSYN017 333 20230 58021;EQDQ01  00002PRCP99
0127830960999991999061300004-10920-037050FM-12+000699999V0201801N003112200019N9999999N1+02541+02001101531ADDAA199000091GF102991021051012501001001KA1240M+02881MA1999999101461MD1999999+0141REMSYN017 333 10288 58014;EQDQ01  00002PRCP99
0127830960999991999061312004-10920-037050FM-12+000699999V0202301N002610120019N0200001N1+02421+02131101701ADDAA199000091GF106991061051012501001001KA1240N+01981MA1999999101631MD1999999+0061REMSYN017 333 20198 58006;EQDQ01  00002PRCP99
0117830960999991999061318004-10920-037050FM-12+000699999V0202301N002610075019N0100001N1+02281+01231101441ADDAA199000891AY161061AY261061GF108991081051008001999999MA1999999101371MD1999999+0001MW1601REMSYN017 333 58000 69971;
0136830960999991999061400004-10920-037050FM-12+000699999V0202201N002610075019N9999999N1+02241+02011101421ADDAA199023991AY161061AY261061GF108991081051008001999999KA1240M+02581MA1999999101351MD1999999-0111MW1601REMSYN023 333 10258 59011 60241;
0114830960999991999061412004-10920-037050FM-12+000699999V0202201N003110120019N0200001N1+02341+02201101351ADDAA199026991GF106991061051012501001001KA1240N+01941MA1999999101281MD1999999-0591REMSYN023 333 20194 59059 60274;
0108830960999991999061418004-10920-037050FM-12+000699999V0201801N001512200019N0200001N1+02631+02251101141ADDAA199000091GF104991041051012501001001MA1999999101071MD1999999-0301REMSYN011 333 59030;EQDQ01  00002PRCP99
0127830960999991999061500004-10920-037050FM-12+000699999V0201801N001512200019N9999999N1+02381+02241101201ADDAA199000091GF103991031051012501001001KA1240M+02761MA1999999101131MD1999999-0221REMSYN017 333 10276 59022;EQDQ01  00002PRCP99
0114830960999991999061512004-10920-037050FM-12+000699999V0200501N002110120019N0200001N1+02421+02331101351ADDAA199000591GF107991071051012501001001KA1240N+02011MA1999999101281MD1999999+0001REMSYN023 333 20201 58000 69964;
0108830960999991999061518004-10920-037050FM-12+000699999V0201801N002110120019N0200001N1+02661+02371101091ADDAA199000091GF106991061051012501001001MA1999999101021MD1999999-0051REMSYN011 333 59005;EQDQ01  00002PRCP99
0127830960999991999061600004-10920-037050FM-12+000699999V0201801N003112200019N9999999N1+02481+02111101181ADDAA199000091GF104991041051012501001001KA1240M+02711MA1999999101111MD1999999-0021REMSYN017 333 10271 59002;EQDQ01  00002PRCP99
0136830960999991999061612004-10920-037050FM-12+000699999V0201401N003610075019N0100001N1+02241+02191101431ADDAA199005191AY161061AY261061GF108991081051008001001001KA1240N+02001MA1999999101361MD1999999+0081MW1601REMSYN023 333 20200 58008 60054;
0095830960999991999061618004-10920-037050FM-12+000699999V0201801N003110075019N0100001N1+02381+02151101421ADDAA199002091GF108991081051008001999999MA1999999101351MD1999999+0331REMSYN017 333 58033 60021;
0108830960999991999061700004-10920-037050FM-12+000699999V0202701N001510120019N9999999N1+02281+02111101321ADDAA199000021GF107991071051012501001001KA1240M+02701MA1999999101251MD1999999+0141REMSYN017 333 10270 58014;
0136830960999991999061712004-10920-037050FM-12+000699999V0201801N003110075019N0100001N1+02201+02171101541ADDAA199010991AY161061AY261061GF108991081051008001999999KA1240N+01921MA1999999101471MD1999999+0111MW1601REMSYN023 333 20192 58011 60114;
0095830960999991999061718004-10920-037050FM-12+000699999V0201801N001510450019N0200001N1+02681+01921101421ADDAA199004191GF106991041051012501031001MA1999999101351MD1999999+0001REMSYN017 333 58000 60041;
0108830960999991999061800004-10920-037050FM-12+000699999V0201801N002110120019N9999999N1+02341+02201101221ADDAA199000021GF105991051051012501001001KA1240M+02741MA1999999101251MD1999999-0241REMSYN017 333 10274 59024;
0114830960999991999061812004-10920-037050FM-12+000699999V0203601N002112200019N0200001N1+02421+02171101321ADDAA199004191GF102991021051012501001001KA1240N+01981MA1999999101251MD1999999-0221REMSYN023 333 20198 59022 60044;
0108830960999991999061818004-10920-037050FM-12+000699999V0201401N002612200019N0200001N1+02681+02331101251ADDAA199000091GF101991011051012501001001MA1999999101181MD1999999-0171REMSYN011 333 59017;EQDQ01  00002PRCP99
0127830960999991999061900004-10920-037050FM-12+000699999V0201401N002612200019N9999999N1+02581+02191101411ADDAA199000091GF104991041051012501001001KA1240M+02781MA1999999101341MD1999999+0091REMSYN017 333 10278 58009;EQDQ01  00002PRCP99
0127830960999991999061912004-10920-037050FM-12+000699999V0203201N000512200019N0200001N1+02431+02281101431ADDAA199000091GF102991021051012501001001KA1240N+02011MA1999999101361MD1999999+0111REMSYN017 333 20201 58011;EQDQ01  00002PRCP99
0127830960999991999062000004-10920-037050FM-12+000699999V0200901N001512200019N9999999N1+02581+02191101171ADDAA199000091GF102991021051012501001001KA1240M+02821MA1999999101101MD1999999-0241REMSYN017 333 10282 59024;EQDQ01  00002PRCP99
0136830960999991999062012004-10920-037050FM-12+000699999V0201801N010310075019N0100001N1+02261+02181101371ADDAA199002091AY161061AY261061GF108991081071008001999999KA1240N+02021MA1999999101301MD1999999-0061MW1601REMSYN023 333 20202 59006 60024;
0095830960999991999062018004-10920-037050FM-12+000699999V0201801N001510120019N0200001N1+02581+02211101331ADDAA199013091GF106991061051012501001001MA1999999101261MD1999999+0141REMSYN017 333 58014 60131;
0114830960999991999062100004-10920-037050FM-12+000699999V0201801N001510120019N9999999N1+02281+02231101311ADDAA199010991GF106991061051012501001001KA1240M+02641MA1999999101241MD1999999+0141REMSYN023 333 10264 58014 60111;
0114830960999991999062112004-10920-037050FM-12+000699999V0203601N002112200019N0200001N1+02581+02331101511ADDAA199020191GF103991031051012501001001KA1240N+01981MA1999999101441MD1999999+0141REMSYN023 333 20198 58014 60204;
0108830960999991999062118004-10920-037050FM-12+000699999V0200901N004612200019N0200001N1+02711+02351101271ADDAA199000091GF101991011051012501001001MA1999999101201MD1999999-0061REMSYN011 333 59006;EQDQ01  00002PRCP99
0127830960999991999062200004-10920-037050FM-12+000699999V0200901N002612200019N9999999N1+02561+02191101191ADDAA199000091GF101991011051012501001001KA1240M+02771MA1999999101121MD1999999-0121REMSYN017 333 10277 59012;EQDQ01  00002PRCP99
0136830960999991999062212004-10920-037050FM-12+000699999V0200901N003110075019N0100001N1+02351+02271101461ADDAA199003091AY161061AY261061GF108991081071008001999999KA1240N+01981MA1999999101391MD1999999-0051MW1601REMSYN023 333 20198 59005 60034;
0089830960999991999062218004-10920-037050FM-12+000699999V0200901N003112200019N0200001N1+02701+02201101141ADDAA199000021GF101991011051012501001001MA1999999101071MD1999999-0131REMSYN011 333 59013;
0108830960999991999062300004-10920-037050FM-12+000699999V0200901N003112200019N9999999N1+02561+02151101131ADDAA199000021GF101991011051012501001001KA1240M+02761MA1999999101061MD1999999-0061REMSYN017 333 10276 59006;
0114830960999991999062312004-10920-037050FM-12+000699999V0203601N002110120019N0200001N1+02461+02271101331ADDAA199002091GF106991061051012501001001KA1240N+01981MA1999999101261MD1999999-0131REMSYN023 333 20198 59013 60024;
0108830960999991999062318004-10920-037050FM-12+000699999V0201801N002110120019N0200001N1+02601+02251101321ADDAA199000091GF107991071051012501001001MA1999999101251MD1999999+0181REMSYN011 333 58018;EQDQ01  00002PRCP99
0127830960999991999062400004-10920-037050FM-12+000699999V0200901N001510120019N9999999N1+02401+02211101341ADDAA199000091GF105991051051012501001001KA1240M+02791MA1999999101271MD1999999+0211REMSYN017 333 10279 58021;EQDQ01  00002PRCP99
0127830960999991999062412004-10920-037050FM-12+000699999V0200901N001512200019N0200001N1+02611+02291101571ADDAA199000091GF104991041051012501001001KA1240N+01901MA1999999101501MD1999999-0241REMSYN017 333 20190 59024;EQDQ01  00002PRCP99
0108830960999991999062418004-10920-037050FM-12+000699999V0201801N002112200019N0200001N1+02681+02111101301ADDAA199000091GF101991011051012501001001MA1999999101231MD1999999-0021REMSYN011 333 59002;EQDQ01  00002PRCP99
0127830960999991999062500004-10920-037050FM-12+000699999V0200901N001512200019N9999999N1+02521+02131101301ADDAA199000091GF101991011051012501001001KA1240M+02781MA1999999101231MD1999999-0041REMSYN017 333 10278 59004;EQDQ01  00002PRCP99
0127830960999991999062512004-10920-037050FM-12+000699999V0201801N002112200019N0200001N1+02621+02211101461ADDAA199000091GF101991011051012501001001KA1240N+01881MA1999999101391MD1999999-0111REMSYN017 333 20188 59011;EQDQ01  00002PRCP99
0108830960999991999062518004-10920-037050FM-12+000699999V0201401N002112200019N0200001N1+02671+02291101341ADDAA199000091GF101991011051012501001001MA1999999101271MD1999999+0041REMSYN011 333 58004;EQDQ01  00002PRCP99
0127830960999991999062600004-10920-037050FM-12+000699999V0200901N002112200019N9999999N1+02581+02121101331ADDAA199000091GF101991011051012501001001KA1240M+02821MA1999999101261MD1999999+0031REMSYN017 333 10282 58003;EQDQ01  00002PRCP99
0127830960999991999062612004-10920-037050FM-12+000699999V0201801N003112200019N0200001N1+02691+02091101611ADDAA199000091GF101991011051012501001001KA1240N+01961MA1999999101541MD1999999+0151REMSYN017 333 20196 58015;EQDQ01  00002PRCP99
0108830960999991999062618004-10920-037050FM-12+000699999V0201801N003112200019N0200001N1+02711+02061101451ADDAA199000091GF102991021051012501001001MA1999999101381MD1999999+0111REMSYN011 333 58011;EQDQ01  00002PRCP99
0127830960999991999062700004-10920-037050FM-12+000699999V0201801N002110120019N9999999N1+02581+02101101371ADDAA199000091GF105991051051012501001001KA1240M+02861MA1999999101301MD1999999+0041REMSYN017 333 10286 58004;EQDQ01  00002PRCP99
0127830960999991999062712004-10920-037050FM-12+000699999V0201801N002110120019N9999999N1+02581+02101101371ADDAA199000091GF105991051051012501001001KA1240M+02861MA1999999101301MD1999999+0041REMSYN017 333 10286 58004;EQDQ01  00002PRCP99
