0143833390999991999010100004-14050-042620FM-12+088299999V0201401N003119999999N9999999N1+02381+01451100951ADDAA199000091GF105991001001999999001041KA1240M+02801MA1999999091281MD1999999-0091REMSYN017 333 10280 59009;EQDQ01+022502SCOLCBQ02  00002PRCP99
0127833390999991999010112004-14050-042620FM-12+088299999V0200901N003112200019N0200001N1+02301+01811101131ADDAA199000091GF104991031021004501001011KA1240N+01881MA1999999091441MD1999999-0051REMSYN017 333 20188 59005;EQDQ01  00002PRCP99
0108833390999991999010118004-14050-042620FM-12+088299999V0200901N004610042019N0200001N1+02801+01811100741ADDAA199000091GF105991051021004501001001MA1999999091081MD1999999-0081REMSYN011 333 59008;EQDQ01  00002PRCP99
0127833390999991999010212004-14050-042620FM-12+088299999V0201401N003110042019N0200001N1+02221+01921101101ADDAA199000091GF106991061021004501001001KA1240N+01921MA1999999091391MD1999999-0051REMSYN017 333 20192 59005;EQDQ01  00002PRCP99
0127833390999991999010312004-14050-042620FM-12+088299999V0200901N002612200019N0200001N1+02461+02051100951ADDAA199000091GF106991041021004501001041KA1240N+02061MA1999999091311MD1999999-0081REMSYN017 333 20206 59008;EQDQ01  00002PRCP99
0117833390999991999010318004-14050-042620FM-12+088299999V0209999C000010042019N0010001N1+02141+02061100811ADDAA199007991AY191061AY261061GF108991051021004501021999MA1999999091111MD1999999+0171MW1401REMSYN017 333 58017 60081;
0117833390999991999010418004-14050-042620FM-12+088299999V0201401N001510042019N0040001N1+02261+02031100941ADDAA199002091AY161061AY261061GF107991061021004501021999MA1999999091241MD1999999+0131MW1101REMSYN017 333 58013 60021;
0136833390999991999010512004-14050-042620FM-12+088299999V0200901N001510042019N0040001N1+02141+02001101041ADDAA199002091AY161061AY261061GF108991081051004501999999KA1240N+01921MA1999999091311MD1999999-0131MW1101REMSYN023 333 20192 59013 60024;
0108833390999991999010518004-14050-042620FM-12+088299999V0201401N004610042019N0200001N1+02741+01971100641ADDAA199000091GF105991051021004501001001MA1999999090991MD1999999-0251REMSYN011 333 59025;EQDQ01  00002PRCP99
0149833390999991999010612004-14050-042620FM-12+088299999V0201401N002610042019N0040001N1+02121+01951101151ADDAA199000091AY101061AY201061GF108991081051004501999999KA1240N+02021MA1999999091441MD1999999+0131MW1101REMSYN017 333 20202 58013;EQDQ01  00002PRCP99
0108833390999991999010618004-14050-042620FM-12+088299999V0201401N003110042019N0200001N1+02741+01891100811ADDAA199000091GF106991051021004501021001MA1999999091151MD1999999+0161REMSYN011 333 58016;EQDQ01  00002PRCP99
0149833390999991999010700004-14050-042620FM-12+088299999V0201801N000512200019N9999999N1+02381+02111100981ADDAA199000091AY101061AY201061GF102991021021004501001001KA1240M+02781MA1999999091281MD1999999+0131MW1101REMSYN017 333 10278 58013;EQDQ01  00002PRCP99
0127833390999991999010712004-14050-042620FM-12+088299999V0201401N002612200019N0200001N1+02451+02031101111ADDAA199000091GF103991031021004501001001KA1240N+01941MA1999999091431MD1999999-0011REMSYN017 333 20194 59001;EQDQ01  00002PRCP99
0108833390999991999010718004-14050-042620FM-12+088299999V0201401N005112200019N0200001N1+02851+01911100771ADDAA199000091GF102991021021004501001001MA1999999091141MD1999999-0011REMSYN011 333 59001;EQDQ01  00002PRCP99
0143833390999991999010800004-14050-042620FM-12+088299999V0201401N001512200019N9999999N1+02481+01651100861ADDAA199000091GA1001+999999999GF100991001001999999001001KA1240M+02851MA1999999091221MD1999999-0061REMSYN017 333 10285 59006;EQDQ01  00002PRCP99
0127833390999991999010812004-14050-042620FM-12+088299999V0201401N004612200019N0200001N1+02241+01781101101ADDAA199000091GF102991021021004501001001KA1240N+01821MA1999999091411MD1999999-0021REMSYN017 333 20182 59002;EQDQ01  00002PRCP99
0108833390999991999010818004-14050-042620FM-12+088299999V0201401N003112200019N0200001N1+02781+01141100871ADDAA199000091GF102991021021004501001001MA1999999091211MD1999999+0071REMSYN011 333 58007;EQDQ01  00002PRCP99
0143833390999991999010900004-14050-042620FM-12+088299999V0201401N001512200019N9999999N1+02201+01341101001ADDAA199000091GA1001+999999999GF100991001001999999001001KA1240M+02801MA1999999091291MD1999999+0071REMSYN017 333 10280 58007;EQDQ01  00002PRCP99
0149833390999991999010912004-14050-042620FM-12+088299999V0201401N001510042019N0200001N1+02151+01931101201ADDAA199000091AY101061AY201061GF106991051021004501031001KA1240N+01801MA1999999091461MD1999999+0051MW1101REMSYN017 333 20180 58005;EQDQ01  00002PRCP99
0108833390999991999010918004-14050-042620FM-12+088299999V0201401N005112200019N0200001N1+02581+01721100921ADDAA199000091GF104991031021004501031001MA1999999091231MD1999999+0021REMSYN011 333 58002;EQDQ01  00002PRCP99
0136833390999991999011112004-14050-042620FM-12+088299999V0201401N003110450019N0010001N1+01901+01821101291ADDAA199026991AY161061AY241061GF108991041021004501021999KA1240N+01801MA1999999091511MD1999999+0041MW1501REMSYN023 333 20180 58004 60274;
0136833390999991999011212004-14050-042620FM-12+088299999V0201401N003110450019N0010001N1+01901+01851101371ADDAA199023991AY161061AY261061GF108991041051004501021999KA1240N+01841MA1999999091571MD1999999+0061MW1501REMSYN023 333 20184 58006 60244;
0117833390999991999011218004-14050-042620FM-12+088299999V0203201N002610042019N0010001N1+02321+02001101031ADDAA199000891AY151061AY241061GF108991061021004501021999MA1999999091301MD1999999+0041MW1601REMSYN017 333 58004 69981;
0155833390999991999011300004-14050-042620FM-12+088299999V0200901N000510042019N9999999N1+02031+01891101151ADDAA199000191AY151061AY221061GF108991081061004501999999KA1240M+02381MA1999999092522MD1999999+0061MW1021REMSYN023 333 10238 58006 69921;EQDQ01+092523APOSP 
0136833390999991999011312004-14050-042620FM-12+088299999V0201401N003610042019N0010001N1+02061+01941101361ADDAA199021191AY161061AY241061GF108991051021004501021999KA1240N+01921MA1999999091591MD1999999+0021MW1401REMSYN023 333 20192 58002 60214;
0127833390999991999011400004-14050-042620FM-12+088299999V0209999C000012200019N9999999N1+02101+02021101161ADDAA199000091GF102991021021004501001001KA1240M+02541MA1999999091421MD1999999-0061REMSYN017 333 10254 59006;EQDQ01  00002PRCP99
0136833390999991999011412004-14050-042620FM-12+088299999V0200901N001510042019N0200001N1+02111+01951101321ADDAA199000591AY161061AY221061GF106991061021004501001001KA1240N+01891MA1999999091561MD1999999-0031MW1021REMSYN023 333 20189 59003 69964;
0108833390999991999011418004-14050-042620FM-12+088299999V0200901N003112200019N0200001N1+02641+02001100921ADDAA199000091GF104991031021004501001011MA1999999091241MD1999999-0121REMSYN011 333 59012;EQDQ01  00002PRCP99
0127833390999991999011500004-14050-042620FM-12+088299999V0201401N001512200019N9999999N1+02281+01981101191ADDAA199000091GF104991041021004501001001KA1240M+02641MA1999999091461MD1999999+0041REMSYN017 333 10264 58004;EQDQ01  00002PRCP99
0149833390999991999011512004-14050-042620FM-12+088299999V0200501N001510042019N0200001N1+02321+02021101241ADDAA199000091AY101061AY201061GF106991061021004501001001KA1240N+01881MA1999999091531MD1999999-0031MW1101REMSYN017 333 20188 59003;EQDQ01  00002PRCP99
0108833390999991999011518004-14050-042620FM-12+088299999V0201401N005110042019N0200001N1+02721+01981100961ADDAA199000091GF105991051021004501001001MA1999999091281MD1999999+0041REMSYN011 333 58004;EQDQ01  00002PRCP99
0143833390999991999011600004-14050-042620FM-12+088299999V0209999C000012200019N9999999N1+02361+01741101111ADDAA199000091GA1001+999999999GF100991001001999999001001KA1240M+02801MA1999999091211MD1999999-0061REMSYN017 333 10280 59006;EQDQ01  00002PRCP99
0149833390999991999011618004-14050-042620FM-12+088299999V0201401N003112200019N0200001N1+02321+02001101331ADDAA199000091AY101061AY201061GF104991041021004501001001KA1240N+01821MA1999999091601MD1999999+0071MW1101REMSYN017 333 20182 58007;EQDQ01  00002PRCP99
0149833390999991999011712004-14050-042620FM-12+088299999V0201401N002610042019N0040001N1+02041+01921101361ADDAA199000091AY101061AY201061GF108991081051004501999999KA1240N+01731MA1999999091621MD1999999+0021MW1101REMSYN017 333 20173 58002;EQDQ01  00002PRCP99
0108833390999991999011718004-14050-042620FM-12+088299999V0201401N003112200019N0200001N1+02641+01581101201ADDAA199000091GF102991021021004501001001MA1999999091481MD1999999+0091REMSYN011 333 58009;EQDQ01  00002PRCP99
0127833390999991999011812004-14050-042620FM-12+088299999V0201401N003612200019N0200001N1+02161+01781101451ADDAA199000091GF103991031021004501001001KA1240N+01761MA1999999091701MD1999999+0021REMSYN017 333 20176 58002;EQDQ01  00002PRCP99
0108833390999991999011818004-14050-042620FM-12+088299999V0200901N004112200019N0200001N1+02761+01591101141ADDAA199000091GF102991021021004501001001MA1999999091441MD1999999-0041REMSYN011 333 59004;EQDQ01  00002PRCP99
0143833390999991999011900004-14050-042620FM-12+088299999V0201401N002612200019N9999999N1+02381+01731101211ADDAA199000091GA1001+999999999GF100991001001999999001001KA1240M+02701MA1999999091491MD1999999-0011REMSYN017 333 10270 59001;EQDQ01  00002PRCP99
0149833390999991999011912004-14050-042620FM-12+088299999V0201401N005112200019N0200001N1+02321+02001101451ADDAA199000091AY101061AY201061GF102991021021004501001001KA1240N+02001MA1999999091731MD1999999+0031MW1101REMSYN017 333 20200 58003;EQDQ01  00002PRCP99
0108833390999991999011918004-14050-042620FM-12+088299999V0201401N001512200019N0200001N1+02761+01831101141ADDAA199000091GF102991021021004501001001MA1999999091451MD1999999+0011REMSYN011 333 58001;EQDQ01  00002PRCP99
0149833390999991999012000004-14050-042620FM-12+088299999V0201801N001012200019N9999999N1+02361+01891101181ADDAA199000091AY191061AY201061GF102991021021004501001001KA1240M+02801MA1999999091481MD1999999-0011MW1021REMSYN017 333 10280 59001;EQDQ01  00002PRCP99
0149833390999991999012012004-14050-042620FM-12+088299999V0200901N005110042019N0200001N1+02301+02031101341ADDAA199000091AY101061AY201061GF106991061021004501001001KA1240N+01941MA1999999091631MD1999999-0101MW1101REMSYN017 333 20194 59010;EQDQ01  00002PRCP99
0127833390999991999012100004-14050-042620FM-12+088299999V0201401N000512200019N9999999N1+02401+01821101081ADDAA199000091GF102991021021004501001001KA1240M+02751MA1999999091391MD1999999-0091REMSYN017 333 10275 59009;EQDQ01  00002PRCP99
0149833390999991999012112004-14050-042620FM-12+088299999V0201401N007210042019N0200001N1+02101+01981101281ADDAA199000091AY101061AY201061GF106991061021004501001001KA1240N+01981MA1999999091551MD1999999-0081MW1101REMSYN017 333 20198 59008;EQDQ01  00002PRCP99
0108833390999991999012118004-14050-042620FM-12+088299999V0200901N005712200019N0200001N1+02701+01751101041ADDAA199000091GF104991031021004501001021MA1999999091361MD1999999-0031REMSYN011 333 59003;EQDQ01  00002PRCP99
0127833390999991999012200004-14050-042620FM-12+088299999V0200901N005112200019N9999999N1+02421+01671101101ADDAA199000091GF102991021021004501001001KA1240M+02761MA1999999091391MD1999999+0001REMSYN017 333 10276 58000;EQDQ01  00002PRCP99
0149833390999991999012212004-14050-042620FM-12+088299999V0201401N004610042019N0200001N1+02061+01891101261ADDAA199000091AY101061AY201061GF106991061021004501001001KA1240N+01861MA1999999091571MD1999999+0021MW1101REMSYN017 333 20186 58002;EQDQ01  00002PRCP99
0108833390999991999012218004-14050-042620FM-12+088299999V0200901N002612200019N0200001N1+02761+01801101071ADDAA199000091GF103991021021004501001021MA1999999091391MD1999999+0031REMSYN011 333 58003;EQDQ01  00002PRCP99
0127833390999991999012312004-14050-042620FM-12+088299999V0200901N005112200019N0200001N1+02201+01761101311ADDAA199000091GF102991021021004501001001KA1240N+01901MA1999999091581MD1999999+0011REMSYN017 333 20190 58001;EQDQ01  00002PRCP99
0108833390999991999012318004-14050-042620FM-12+088299999V0201401N005112200019N0200001N1+02761+01751100971ADDAA199000091GF104991031021004501001041MA1999999091301MD1999999-0091REMSYN011 333 59009;EQDQ01  00002PRCP99
0149833390999991999012412004-14050-042620FM-12+088299999V0200901N007210042019N0200001N1+02091+01801101231ADDAA199000091AY101061AY201061GF105991051021004501001001KA1240N+01901MA1999999091511MD1999999-0071MW1101REMSYN017 333 20190 59007;EQDQ01  00002PRCP99
0149833390999991999012512004-14050-042620FM-12+088299999V0201401N005110042019N0200001N1+02221+01881101201ADDAA199000091AY101061AY201061GF106991061021004501001001KA1240N+01941MA1999999091481MD1999999-0031MW1101REMSYN017 333 20194 59003;EQDQ01  00002PRCP99
0108833390999991999012518004-14050-042620FM-12+088299999V0201401N003612200019N0200001N1+02781+01791100881ADDAA199000091GF104991041021004501001001MA1999999091221MD1999999-0041REMSYN011 333 59004;EQDQ01  00002PRCP99
0127833390999991999012600004-14050-042620FM-12+088299999V0201401N002612200019N9999999N1+02441+01641100911ADDAA199000091GF102991021021004501001001KA1240M+02821MA1999999091241MD1999999-0111REMSYN017 333 10282 59011;EQDQ01  00002PRCP99
0127833390999991999012612004-14050-042620FM-12+088299999V0201401N006212200019N0200001N1+02241+01841101161ADDAA199000091GF104991041021004501001001KA1240N+01961MA1999999091461MD1999999-0021REMSYN017 333 20196 59002;EQDQ01  00002PRCP99
0108833390999991999012618004-14050-042620FM-12+088299999V0201401N004112200019N0200001N1+02921+01221100811ADDAA199000091GF102991021021004501001001MA1999999091181MD1999999-0041REMSYN011 333 59004;EQDQ01  00002PRCP99
0143833390999991999012700004-14050-042620FM-12+088299999V0201401N001512200019N9999999N1+02421+01051100831ADDAA199000091GA1001+999999999GF100991001001999999001001KA1240M+02941MA1999999091161MD1999999-0081REMSYN017 333 10294 59008;EQDQ01  00002PRCP99
0143833390999991999012712004-14050-042620FM-12+088299999V0201401N002612200019N0200001N1+02401+01931101161ADDAA199000091GA1001+999999999GF100991001001999999001001KA1240N+01801MA1999999091471MD1999999+0011REMSYN017 333 20180 58001;EQDQ01  00002PRCP99
0108833390999991999012718004-14050-042620FM-12+088299999V0201401N004612200019N0200001N1+03041+01711100731ADDAA199000091GF104991031021004501001051MA1999999091111MD1999999-0071REMSYN011 333 59007;EQDQ01  00002PRCP99
0127833390999991999012800004-14050-042620FM-12+088299999V0201801N002110042019N9999999N1+02491+01571100831ADDAA199000091GF106991051021004501021001KA1240M+03041MA1999999091191MD1999999+0031REMSYN017 333 10304 58003;EQDQ01  00002PRCP99
0149833390999991999012812004-14050-042620FM-12+088299999V0201401N001510042019N0200001N1+02301+02071101091ADDAA199000091AY101061AY201061GF106991061021004501001001KA1240N+01941MA1999999091411MD1999999-0061MW1101REMSYN017 333 20194 59006;EQDQ01  00002PRCP99
0117833390999991999012818004-14050-042620FM-12+088299999V0201401N000510450019N0200001N1+02241+02191100801ADDAA199003091AY191061AY261061GF105991041021004501021001MA1999999091101MD1999999-0011MW1101REMSYN017 333 59001 60031;
0149833390999991999012900004-14050-042620FM-12+088299999V0200901N001510042019N9999999N1+02281+01921100951ADDAA199000091AY101061AY201061GF107991061021004501021999KA1240M+02981MA1999999091261MD1999999+0071MW1101REMSYN017 333 10298 58007;EQDQ01  00002PRCP99
0136833390999991999012912004-14050-042620FM-12+088299999V0201401N002110042019N0200001N1+02301+01941101221ADDAA199003091AY161061AY261061GF106991051021004501021001KA1240N+01881MA1999999091511MD1999999+0101MW1101REMSYN023 333 20188 58010 60034;
0108833390999991999012918004-14050-042620FM-12+088299999V0201401N002110042019N0200001N1+02721+01951100921ADDAA199000091GF106991051021004501001021MA1999999091231MD1999999+0131REMSYN011 333 58013;EQDQ01  00002PRCP99
0127833390999991999013000004-14050-042620FM-12+088299999V0201401N001512200019N9999999N1+02441+01861101051ADDAA199000091GF103991031021004501001001KA1240M+02921MA1999999091551MD1999999+0091REMSYN017 333 10292 58009;EQDQ01  00002PRCP99
0149833390999991999013012004-14050-042620FM-12+088299999V0201401N002112200019N0200001N1+02381+02091101221ADDAA199000091AY101061AY201061GF103991031021004501001001KA1240N+01881MA1999999091531MD1999999+0021MW1101REMSYN017 333 20188 58002;EQDQ01  00002PRCP99
0108833390999991999013018004-14050-042620FM-12+088299999V0201401N004112200019N0200001N1+02971+01571100831ADDAA199000091GF102991021021004501001001MA1999999091201MD1999999-0031REMSYN011 333 59003;EQDQ01  00002PRCP99
0108833390999991999013118004-14050-042620FM-12+088299999V0201401N003112200019N0200001N1+02961+01381100891ADDAA199000091GF102991021021004501001001MA1999999091251MD1999999+0051REMSYN011 333 58005;EQDQ01  00002PRCP99
0149833390999991999020112004-14050-042620FM-12+088299999V0201401N002112200019N0200001N1+02241+01961101171ADDAA199000091AY101061AY201061GF103991031021004501001001KA1240N+01781MA1999999091461MD1999999-0141MW1101REMSYN017 333 20178 59014;EQDQ01  00002PRCP99
0108833390999991999020118004-14050-042620FM-12+088299999V0201401N003112200019N0200001N1+02901+01201100791ADDAA199000091GF103991021021004501021001MA1999999091161MD1999999-0091REMSYN011 333 59009;EQDQ01  00002PRCP99
0143833390999991999020200004-14050-042620FM-12+088299999V0201801N002112200019N9999999N1+02251+01401100951ADDAA199000091GA1001+999999999GF100991001001999999001001KA1240M+02961MA1999999091251MD1999999+0041REMSYN017 333 10296 58004;EQDQ01  00002PRCP99
0130833390999991999020212004-14050-042620FM-12+088299999V0201401N004112200019N0200001N1+02281+02031101211ADDAA199000091AY101061AY201061GF102991021021004501001001MA1999999091491MD1999999+0031MW1101REMSYN011 333 58003;EQDQ01  00002PRCP99
0108833390999991999020218004-14050-042620FM-12+088299999V0201401N003112200019N0200001N1+03021+01431100791ADDAA199000091GF104991041021004501001001MA1999999091171MD1999999+0011REMSYN011 333 58001;EQDQ01  00002PRCP99
0149833390999991999020312004-14050-042620FM-12+088299999V0200901N005110042019N0040001N1+02261+02141101141ADDAA199000091AY101061AY201061GF107991061021004501021999KA1240N+01801MA1999999091451MD1999999-0041MW1101REMSYN017 333 20180 59004;EQDQ01  00002PRCP99
0108833390999991999020318004-14050-042620FM-12+088299999V0201401N003110042019N0200001N1+02831+01911100741ADDAA199000091GF106991061021004501001001MA1999999091121MD1999999-0051REMSYN011 333 59005;EQDQ01  00002PRCP99
0149833390999991999020400004-14050-042620FM-12+088299999V0201401N003610042019N9999999N1+02421+01911100971ADDAA199000091AY101061AY201061GF106991061021004501001001KA1240M+02901MA1999999091291MD1999999+0061MW1131REMSYN017 333 10290 58006;EQDQ01  00002PRCP99
0127833390999991999020412004-14050-042620FM-12+088299999V0201401N004112200019N0200001N1+02161+01761101181ADDAA199000091GF104991041021004501001001KA1240N+01781MA1999999091471MD1999999+0021REMSYN017 333 20178 58002;EQDQ01  00002PRCP99
0108833390999991999020418004-14050-042620FM-12+088299999V0201401N004612200019N0200001N1+02701+01411100891ADDAA199000091GF102991021021004501001001MA1999999091221MD1999999+0101REMSYN011 333 58010;EQDQ01  00002PRCP99
0127833390999991999020512004-14050-042620FM-12+088299999V0201401N006212200019N0200001N1+02281+01881101131ADDAA199000091GF103991031021004501001001KA1240N+01921MA1999999091441MD1999999-0031REMSYN017 333 20192 59003;EQDQ01  00002PRCP99
0108833390999991999020518004-14050-042620FM-12+088299999V0200901N001512200019N0200001N1+02881+01531100891ADDAA199000091GF102991021021004501001001MA1999999091531MD1999999+0031REMSYN011 333 58003;EQDQ01  00002PRCP99
0149833390999991999020600004-14050-042620FM-12+088299999V0201401N004612200019N9999999N1+02301+01961101061ADDAA199000091AY101061AY201061GF102991021021004501001001KA1240M+02941MA1999999091361MD1999999+0131MW1101REMSYN017 333 10294 58013;EQDQ01  00002PRCP99
0149833390999991999020612004-14050-042620FM-12+088299999V0201401N005712200019N0200001N1+02261+01961101251ADDAA199000091AY101061AY201061GF104991041021004501001001KA1240N+01761MA1999999091541MD1999999+0101MW1101REMSYN017 333 20176 58010;EQDQ01  00002PRCP99
0108833390999991999020618004-14050-042620FM-12+088299999V0200901N005110042019N0200001N1+02941+01441100941ADDAA199000091GF106991051021004501001041MA1999999091281MD1999999+0031REMSYN011 333 58003;EQDQ01  00002PRCP99
0149833390999991999020712004-14050-042620FM-12+088299999V0201401N004110042019N0200001N1+02221+01861101411ADDAA199000091AY101061AY201061GF106991051021004501021001KA1240N+01801MA1999999091681MD1999999+0141MW1101REMSYN017 333 20180 58014;EQDQ01  00002PRCP99
0108833390999991999020718004-14050-042620FM-12+088299999V0201401N004612200019N0200001N1+02961+00791101171ADDAA199000091GF104991041021004501001001MA1999999091501MD1999999+0221REMSYN011 333 58022;EQDQ01  00002PRCP99
0108833390999991999020818004-14050-042620FM-12+088299999V0200901N001012200019N0200001N1+02951+01481101191ADDAA199000091GF103991021021004501021001MA1999999091521MD1999999+0021REMSYN011 333 58002;EQDQ01  00002PRCP99
0143833390999991999020900004-14050-042620FM-12+088299999V0201801N001012200019N9999999N1+02481+01491101291ADDAA199000091GA1001+999999999GF100991001001999999001001KA1240M+03001MA1999999091591MD1999999-0011REMSYN017 333 10300 59001;EQDQ01  00002PRCP99
0149833390999991999020912004-14050-042620FM-12+088299999V0201401N005110042019N0200001N1+02301+02031101471ADDAA199000091AY101061AY201061GF105991051021004501001001KA1240N+01901MA1999999091751MD1999999-0051MW1101REMSYN017 333 20190 59005;EQDQ01  00002PRCP99
0108833390999991999020918004-14050-042620FM-12+088299999V0201401N003612200019N0200001N1+03021+01621101091ADDAA199000091GF104991031021004501021001MA1999999091441MD1999999-0081REMSYN011 333 59008;EQDQ01  00002PRCP99
0143833390999991999021000004-14050-042620FM-12+088299999V0201801N003612200019N9999999N1+02501+01531101141ADDAA199000091GA1001+999999999GF100991001001999999001001KA1240M+03101MA1999999091451MD1999999-0141REMSYN017 333 10310 59014;EQDQ01  00002PRCP99
0149833390999991999021012004-14050-042620FM-12+088299999V0201401N003112200019N0200001N1+02401+02091101181ADDAA199000091AY101061AY201061GF102991021021004501001001KA1240N+01841MA1999999091501MD1999999-0251MW1101REMSYN017 333 20184 59025;EQDQ01  00002PRCP99
0108833390999991999021018004-14050-042620FM-12+088299999V0201401N004612200019N0200001N1+03141+01731100811ADDAA199000091GF103991031021004501001001MA1999999091191MD1999999-0251REMSYN011 333 59025;EQDQ01  00002PRCP99
0143833390999991999021100004-14050-042620FM-12+088299999V0200901N002112200019N9999999N1+02561+01641100871ADDAA199000091GA1001+999999999GF100991001001999999001001KA1240M+03201MA1999999091241MD1999999-0211REMSYN017 333 10320 59021;EQDQ01  00002PRCP99
0127833390999991999021112004-14050-042620FM-12+088299999V0200501N001512200019N0200001N1+02521+02051101101ADDAA199000091GF103991021021004501001021KA1240N+01921MA1999999091451MD1999999-0051REMSYN017 333 20192 59005;EQDQ01  00002PRCP99
0108833390999991999021118004-14050-042620FM-12+088299999V0201401N001510042019N0200001N1+03241+01711100611ADDAA199000091GF105991051021004501001001MA1999999091041MD1999999-0151REMSYN011 333 59015;EQDQ01  00002PRCP99
0143833390999991999021200004-14050-042620FM-12+088299999V0201801N001512200019N9999999N1+02741+01641100641ADDAA199000091GA1001+999999999GF100991001001999999001001KA1240M+03361MA1999999091051MD1999999-0191REMSYN017 333 10336 59019;EQDQ01  00002PRCP99
0149833390999991999021212004-14050-042620FM-12+088299999V0200501N002110042019N0200001N1+02451+02171101111ADDAA199000091AY101061AY201061GF106991051021004501021001KA1240N+02021MA1999999091471MD1999999+0021MW1101REMSYN017 333 20202 58002;EQDQ01  00002PRCP99
0108833390999991999021218004-14050-042620FM-12+088299999V0201401N003111050019N0200001N1+03181+01801100711ADDAA199000091GF105991041021004501001021MA1999999091131MD1999999+0091REMSYN011 333 58009;EQDQ01  00002PRCP99
0127833390999991999021300004-14050-042620FM-12+088299999V0201401N004612200019N9999999N1+02681+01641100891ADDAA199000091GF102991021021004501001001KA1240M+02841MA1999999091261MD1999999+0211REMSYN017 333 10284 58021;EQDQ01  00002PRCP99
0127833390999991999021312004-14050-042620FM-12+088299999V0201401N009310042019N0200001N1+02341+01871101231ADDAA199000091GF106991061021004501001001KA1240N+01861MA1999999091551MD1999999+0081REMSYN017 333 20186 58008;EQDQ01  00002PRCP99
0108833390999991999021318004-14050-042620FM-12+088299999V0201401N005712200019N0200001N1+02921+01801100891ADDAA199000091GF104991041021004501001001MA1999999091251MD1999999+0121REMSYN011 333 58012;EQDQ01  00002PRCP99
0127833390999991999021512004-14050-042620FM-12+088299999V0201401N007710042019N0200001N1+02201+01631101371ADDAA199000091GF105991051021004501001001KA1240N+01901MA1999999091661MD1999999-0031REMSYN017 333 20190 59003;EQDQ01  00002PRCP99
0108833390999991999021518004-14050-042620FM-12+088299999V0200901N008212200019N0200001N1+02901+01621101001ADDAA199000091GF102991021021004501001001MA1999999091341MD1999999-0071REMSYN011 333 59007;EQDQ01  00002PRCP99
0127833390999991999021612004-14050-042620FM-12+088299999V0200901N005712200019N0200001N1+02321+01701101361ADDAA199000091GF103991031021004501001001KA1240N+02021MA1999999091651MD1999999-0011REMSYN017 333 20202 59001;EQDQ01  00002PRCP99
0108833390999991999021618004-14050-042620FM-12+088299999V0200901N006712200019N0200001N1+02871+01771100951ADDAA199000091GF103991031021004501001001MA1999999091301MD1999999-0041REMSYN011 333 59004;EQDQ01  00002PRCP99
0136833390999991999021712004-14050-042620FM-12+088299999V0201401N005110042019N0200001N1+02181+01921101341ADDAA199000591AY161061AY221061GF108991051021004501021999KA1240N+02021MA1999999091621MD1999999-0031MW1021REMSYN023 333 20202 59003 69944;
0108833390999991999021718004-14050-042620FM-12+088299999V0201401N003110042019N0200001N1+02981+02041100891ADDAA199000091GF106991061021004501001001MA1999999091251MD1999999-0051REMSYN011 333 59005;EQDQ01  00002PRCP99
0127833390999991999021800004-14050-042620FM-12+088299999V0201401N006212200019N9999999N1+02401+01821100991ADDAA199000091GF102991021021004501001001KA1240M+03021MA1999999091301MD1999999-0091REMSYN017 333 10302 59009;EQDQ01  00002PRCP99
0127833390999991999021812004-14050-042620FM-12+088299999V0201401N008210042019N0200001N1+02181+01781101281ADDAA199000091GF106991061021004501001001KA1240N+01841MA1999999091561MD1999999-0061REMSYN017 333 20184 59006;EQDQ01  00002PRCP99
0108833390999991999021818004-14050-042620FM-12+088299999V0201401N005112200019N0200001N1+02941+01551100911ADDAA199000091GF103991031021004501001001MA1999999091251MD1999999+0001REMSYN011 333 58000;EQDQ01  00002PRCP99
0127833390999991999021900004-14050-042620FM-12+088299999V0201401N003112200019N9999999N1+02501+01591101051ADDAA199000091GF102991021021004501001001KA1240M+02981MA1999999091361MD1999999+0061REMSYN017 333 10298 58006;EQDQ01  00002PRCP99
0127833390999991999021912004-14050-042620FM-12+088299999V0201401N003110042019N0200001N1+02221+01861101331ADDAA199000091GF106991061021004501001001KA1240N+02021MA1999999091621MD1999999+0061REMSYN017 333 20202 58006;EQDQ01  00002PRCP99
0108833390999991999021918004-14050-042620FM-12+088299999V0200901N005110042019N0200001N1+02761+01751100951ADDAA199000091GF106991061021004501001001MA1999999091291MD1999999+0041REMSYN011 333 58004;EQDQ01  00002PRCP99
0127833390999991999022000004-14050-042620FM-12+088299999V0209999C000012200019N9999999N1+02241+01691101201ADDAA199000091GF102991021021004501001001KA1240M+02781MA1999999091481MD1999999+0121REMSYN017 333 10278 58012;EQDQ01  00002PRCP99
0127833390999991999022012004-14050-042620FM-12+088299999V0201401N004610042019N0200001N1+02211+01881101451ADDAA199000091GF106991061021004501001001KA1240N+01981MA1999999091701MD1999999+0081REMSYN017 333 20198 58008;EQDQ01  00002PRCP99
0108833390999991999022018004-14050-042620FM-12+088299999V0200901N003110450019N0200001N1+02781+01731101091ADDAA199000091GF106991021021004501031001MA1999999091421MD1999999+0131REMSYN011 333 58013;EQDQ01  00002PRCP99
0127833390999991999022112004-14050-042620FM-12+088299999V0201401N003112200019N0200001N1+02381+01911101411ADDAA199000091GF103991031021004501001001KA1240N+01961MA1999999091701MD1999999+0001REMSYN017 333 20196 58000;EQDQ01  00002PRCP99
0108833390999991999022118004-14050-042620FM-12+088299999V0201401N002110042019N0200001N1+03041+01681100821ADDAA199000091GF105991051021004501001001MA1999999091201MD1999999-0221REMSYN011 333 59022;EQDQ01  00002PRCP99
0136833390999991999022212004-14050-042620FM-12+088299999V0201401N003110042019N0040001N1+02021+01941101371ADDAA199000591AY161061AY261061GF108991081051004501999999KA1240N+01921MA1999999091611MD1999999-0091MW1101REMSYN023 333 20192 59009 69944;
0108833390999991999022218004-14050-042620FM-12+088299999V0203201N002610042019N0200001N1+02541+01951100951ADDAA199000091GF106991061021004501001001MA1999999091251MD1999999+0051REMSYN011 333 58005;EQDQ01  00002PRCP99
0136833390999991999022300004-14050-042620FM-12+088299999V0202301N002610042019N9999999N1+02201+01901101141ADDAA199000891AY161061AY261061GF108991081051004501999999KA1240M+02731MA1999999091401MD1999999-0181MW1101REMSYN023 333 10273 59018 69981;
0136833390999991999022312004-14050-042620FM-12+088299999V0201401N002110042019N0040001N1+02041+01991101281ADDAA199029091AY191061AY261061GF108991081051004501999999KA1240N+01881MA1999999091531MD1999999-0081MW1401REMSYN023 333 20188 59008 60294;
0111833390999991999022318004-14050-042620FM-12+088299999V0203601N002610042019N0040001N1+02521+02071100941ADDAA199000021AY101061AY241061GF107991061021004501021999MA1999999091241MD1999999-0011MW1901REMSYN011 333 59001;
0136833390999991999022400004-14050-042620FM-12+088299999V0201401N005710042019N9999999N1+02041+01921101241ADDAA199002091AY161061AY261061GF108991081051004501999999KA1240M+02641MA1999999091481MD1999999+0081MW1101REMSYN023 333 10264 58008 60021;
0108833390999991999022418004-14050-042620FM-12+088299999V0201401N003110042019N0200001N1+02491+01981100891ADDAA199000091GF106991061021004501001001MA1999999091191MD1999999-0051REMSYN011 333 59005;EQDQ01  00002PRCP99
0136833390999991999022500004-14050-042620FM-12+088299999V0202701N001510042019N9999999N1+02191+02111101061ADDAA199022191AY161061AY261061GF106991061021004501001001KA1240M+02641MA1999999091341MD1999999-0141MW1101REMSYN023 333 10264 59014 60221;
0117833390999991999022518004-14050-042620FM-12+088299999V0203601N001510042019N0200001N1+02421+01971100981ADDAA199000891AY161061AY261061GF106991051021004501031001MA1999999091261MD1999999+0071MW1021REMSYN017 333 58007 69981;
0149833390999991999022600004-14050-042620FM-12+088299999V0202701N000510042019N9999999N1+02141+01801101181ADDAA199000091AY101061AY201061GF106991051021004501021999KA1240M+02501MA1999999091431MD1999999+0091MW1101REMSYN017 333 10250 58009;EQDQ01  00002PRCP99
0136833390999991999022612004-14050-042620FM-12+088299999V0201401N000510042019N0040001N1+02121+02051101301ADDAA199000891AY161061AY261061GF108991081051004501999999KA1240N+01941MA1999999091551MD1999999-0031MW1101REMSYN023 333 20194 59003 69984;
0117833390999991999022618004-14050-042620FM-12+088299999V0201801N001510042019N0040001N1+02041+01971101031ADDAA199008991AY191061AY261061GF108991081051004501999999MA1999999091291MD1999999+0031MW1601REMSYN017 333 58003 60091;
0136833390999991999022700004-14050-042620FM-12+088299999V0200901N001510042019N9999999N1+02061+01961101271ADDAA199000591AY161061AY261061GF108991081051004501999999KA1240M+02601MA1999999091521MD1999999+0091MW1101REMSYN023 333 10260 58009 69941;
0136833390999991999022712004-14050-042620FM-12+088299999V0201401N004110042019N0040001N1+02071+01981101321ADDAA199009991AY161061AY261061GF108991081051004501999999KA1240N+01961MA1999999091551MD1999999+0001MW1101REMSYN023 333 20196 58000 60104;
0136833390999991999022812004-14050-042620FM-12+088299999V0201401N001510042019N0200001N1+02021+01991101181ADDAA199071191AY161061AY261061GF108991081051004501999999KA1240N+01961MA1999999091421MD1999999-0131MW1401REMSYN023 333 20196 59013 60714;
0117833390999991999022818004-14050-042620FM-12+088299999V0203601N002110042019N0040001N1+02201+02121100851ADDAA199008991AY161061AY261061GF108991081051004501999999MA1999999091131MD1999999-0091MW1101REMSYN017 333 59009 60091;
0136833390999991999030112004-14050-042620FM-12+088299999V0209999C000010042019N0010001N1+01961+01911101141ADDAA199073991AY161061AY241061GF108991051021004501021999KA1240N+01901MA1999999091381MD1999999-0041MW1601REMSYN023 333 20190 59004 60744;
0117833390999991999030118004-14050-042620FM-12+088299999V0209999C000010450019N0200001N1+02221+02011100801ADDAA199004191AY161061AY261061GF108991041021004501021999MA1999999091091MD1999999-0041MW1021REMSYN017 333 59004 60041;
0130833390999991999030200004-14050-042620FM-12+088299999V0209999C000010450019N9999999N1+02031+01971101041ADDAA199000021AY121061AY221061GF108991041021004501021999KA1240M+02261MA1999999091291MD1999999+0131MW1401REMSYN017 333 10226 58013;
0136833390999991999030212004-14050-042620FM-12+088299999V0202701N003110042019N0010001N1+01941+01871101251ADDAA199007191AY161061AY241061GF108991051021004501021999KA1240N+01901MA1999999091481MD1999999+0101MW1601REMSYN023 333 20190 58010 60074;
0117833390999991999030218004-14050-042620FM-12+088299999V0202301N001010450019N0200001N1+02501+01981100931ADDAA199001091AY161061AY241061GF106991041021004501031001MA1999999091241MD1999999+0151MW1021REMSYN017 333 58015 60011;
0108833390999991999030300004-14050-042620FM-12+088299999V0209999C000010450019N9999999N1+02201+02081101171ADDAA199000021GF108991041021004501021999KA1240M+02621MA1999999091421MD1999999+0131REMSYN017 333 10262 58013;
0136833390999991999030312004-14050-042620FM-12+088299999V0200501N001010042019N0200001N1+02231+02091101241ADDAA199001091AY161061AY241061GF108991051021004501021999KA1240N+01961MA1999999091511MD1999999+0031MW1021REMSYN023 333 20196 58003 60014;
0117833390999991999030318004-14050-042620FM-12+088299999V0202301N005110042019N0010001N1+01981+01901100921ADDAA199005191AY191061AY261061GF108991051021004501021999MA1999999091181MD1999999-0061MW1601REMSYN017 333 59006 60051;
0136833390999991999030400004-14050-042620FM-12+088299999V0209999C000010450019N9999999N1+01981+01911101031ADDAA199000591AY161061AY241061GF108991041021004501021999KA1240M+02401MA1999999091301MD1999999-0121MW1401REMSYN023 333 10240 59012 69961;
0136833390999991999030412004-14050-042620FM-12+088299999V0209999C000010450019N0200001N1+02321+02021101101ADDAA199006191AY161061AY241061GF105991031021004501031001KA1240N+01971MA1999999091371MD1999999-0141MW1021REMSYN023 333 20197 59014 60064;
0117833390999991999030418004-14050-042620FM-12+088299999V0209999C000010042019N0200001N1+02361+02221100761ADDAA199003091AY161061AY221061GF108991051021004501021999MA1999999091061MD1999999-0121MW1021REMSYN017 333 59012 60031;
0136833390999991999030500004-14050-042620FM-12+088299999V0203201N001510450019N9999999N1+01921+01851101061ADDAA199035191AY191061AY261061GF108991041021004501021999KA1240M+02601MA1999999091331MD1999999+0031MW1601REMSYN023 333 10260 58003 60351;
0136833390999991999030512004-14050-042620FM-12+088299999V0209999C000010042019N0200001N1+02141+01991101011ADDAA199040991AY161061AY241061GF106991061021004501001001KA1240N+01921MA1999999091271MD1999999-0121MW1021REMSYN023 333 20192 59012 60414;
0117833390999991999030518004-14050-042620FM-12+088299999V0203201N003110042019N0200001N1+02471+02031100711ADDAA199002091AY161061AY221061GF108991051021004501021999MA1999999091021MD1999999-0041MW1021REMSYN017 333 59004 60021;
0136833390999991999030600004-14050-042620FM-12+088299999V0209999C000010042019N9999999N1+02121+02041100951ADDAA199001091AY161061AY241061GF108991051021004501021999KA1240M+02201MA1999999091241MD1999999-0091MW1401REMSYN023 333 10220 59009 60011;
0136833390999991999030612004-14050-042620FM-12+088299999V0202301N004110450019N0200001N1+02021+01831101081ADDAA199006191AY161061AY241061GF108991041021004501021999KA1240N+01961MA1999999091341MD1999999-0071MW1021REMSYN023 333 20196 59007 60064;
0108833390999991999030618004-14050-042620FM-12+088299999V0200901N007710042019N0200001N1+02321+02071100661ADDAA199000091GF108991051021004501021999MA1999999090971MD1999999-0051REMSYN011 333 59005;EQDQ01  00002PRCP99
0136833390999991999030712004-14050-042620FM-12+088299999V0201401N003110042019N0200001N1+02241+01991101141ADDAA199000891AY161061AY221061GF106991061021004501001001KA1240N+01961MA1999999091421MD1999999+0081MW1021REMSYN023 333 20196 58008 69984;
0108833390999991999030718004-14050-042620FM-12+088299999V0200901N004610042019N0200001N1+02661+01871100811ADDAA199000091GF105991051021004501001001MA1999999091141MD1999999+0171REMSYN011 333 58017;EQDQ01  00002PRCP99
0149833390999991999030812004-14050-042620FM-12+088299999V0201401N005110042019N0200001N1+02021+01811101251ADDAA199000091AY101061AY201061GF106991061021004501001001KA1240N+01901MA1999999091511MD1999999+0091MW1101REMSYN017 333 20190 58009;EQDQ01  00002PRCP99
0108833390999991999030818004-14050-042620FM-12+088299999V0201401N003612200019N0200001N1+02621+01301100921ADDAA199000091GF102991021021004501001001MA1999999091231MD1999999+0091REMSYN011 333 58009;EQDQ01  00002PRCP99
0143833390999991999030900004-14050-042620FM-12+088299999V0201401N003612200019N9999999N1+02281+01511100951ADDAA199000091GA1001+999999999GF100991001001999999001001KA1240M+02721MA1999999091231MD1999999-0121REMSYN017 333 10272 59012;EQDQ01  00002PRCP99
0149833390999991999030912004-14050-042620FM-12+088299999V0201401N004110042019N0200001N1+02221+01961101261ADDAA199000091AY101061AY201061GF105991051021004501001001KA1240N+01901MA1999999091541MD1999999+0031MW1101REMSYN017 333 20190 58003;EQDQ01  00002PRCP99
0108833390999991999030918004-14050-042620FM-12+088299999V0201401N003612200019N0200001N1+02761+01691100921ADDAA199000091GF102991021021004501001001MA1999999091251MD1999999+0021REMSYN011 333 58002;EQDQ01  00002PRCP99
0143833390999991999031000004-14050-042620FM-12+088299999V0201801N001012200019N9999999N1+02301+01531100951ADDAA199000091GA1001+999999999GF100991001001999999001001KA1240M+02781MA1999999091251MD1999999+0021REMSYN017 333 10278 58002;EQDQ01  00002PRCP99
0127833390999991999031012004-14050-042620FM-12+088299999V0201401N003112200019N0200001N1+02381+01801101121ADDAA199000091GF102991021021004501001001KA1240N+01761MA1999999091431MD1999999-0111REMSYN017 333 20176 59011;EQDQ01  00002PRCP99
0108833390999991999031018004-14050-042620FM-12+088299999V0201401N003612200019N0200001N1+02751+01301101911ADDAA199000091GF102991021021004501001001MA1999999091241MD1999999-0011REMSYN011 333 59001;EQDQ01  00002PRCP99
0127833390999991999031112004-14050-042620FM-12+088299999V0200501N001012200019N0200001N1+02341+01911101221ADDAA199000091GF102991011021004501021001KA1240N+01701MA1999999091521MD1999999+0091REMSYN017 333 20170 58009;EQDQ01  00002PRCP99
0108833390999991999031118004-14050-042620FM-12+088299999V0201401N003110450019N0200001N1+02841+01531100981ADDAA199000091GF105991041021004501021001MA1999999091281MD1999999+0041REMSYN011 333 58004;EQDQ01  00002PRCP99
0127833390999991999031200004-14050-042620FM-12+088299999V0201801N001012200019N9999999N1+02421+01721101071ADDAA199000091GF102991021021004501001001KA1240M+02901MA1999999091391MD1999999+0031REMSYN017 333 10290 58003;EQDQ01  00002PRCP99
0143833390999991999031212004-14050-042620FM-12+088299999V0200901N002112200019N0200001N1+02471+01881101141ADDAA199000091GA1001+999999999GF100991001001999999001001KA1240N+01861MA1999999091461MD1999999-0061REMSYN017 333 20186 59006;EQDQ01  00002PRCP99
0108833390999991999031218004-14050-042620FM-12+088299999V0201401N003110042019N0200001N1+02801+01951100821ADDAA199000091GF106991061021004501001001MA1999999091151MD1999999-0131REMSYN011 333 59013;EQDQ01  00002PRCP99
0143833390999991999031300004-14050-042620FM-12+088299999V0201401N001012200019N9999999N1+02461+01811100911ADDAA199000091GA1001+999999999GF100991001001999999001001KA1240M+03021MA1999999091251MD1999999-0141REMSYN017 333 10302 59014;EQDQ01  00002PRCP99
0149833390999991999031312004-14050-042620FM-12+088299999V0200501N000512200019N0200001N1+02461+02131101081ADDAA199000091AY101061AY201061GF102991011021004501021001KA1240N+01941MA1999999091411MD1999999-0051MW1101REMSYN017 333 20194 59005;EQDQ01  00002PRCP99
0117833390999991999031318004-14050-042620FM-12+088299999V0201401N002110042019N0200001N1+02921+01951100671ADDAA199004191AY161061AY261061GF106991051021004501021001MA1999999091051MD1999999-0101MW1171REMSYN017 333 59010 60041;
0136833390999991999031412004-14050-042620FM-12+088299999V0200501N000510042019N0040001N1+02081+02031101201ADDAA199036191AY191061AY261061GF108991081051004501999999KA1240N+01941MA1999999091461MD1999999+0051MW1101REMSYN023 333 20194 58005 60364;
0117833390999991999031418004-14050-042620FM-12+088299999V0201401N001510042019N0040001N1+02341+02221100921ADDAA199000591AY161061AY261061GF108991081051004501999999MA1999999091211MD1999999+0161MW1101REMSYN017 333 58016 69961;
0136833390999991999031512004-14050-042620FM-12+088299999V0200901N004610450019N0010001N1+02101+02001101321ADDAA199000591AY161061AY241061GF108991041021004501021999KA1240N+02001MA1999999091551MD1999999+0091MW1401REMSYN023 333 20200 58009 69964;
0108833390999991999031518004-14050-042620FM-12+088299999V0201401N005710042019N0200001N1+02651+02041100911ADDAA199000091GF105991051021004501001001MA1999999091231MD1999999+0021REMSYN011 333 58002;EQDQ01  00002PRCP99
0127833390999991999031600004-14050-042620FM-12+088299999V0201401N003112200019N9999999N1+02301+01721101081ADDAA199000091GF102991021021004501001001KA1240M+02661MA1999999091361MD1999999-0051REMSYN017 333 10266 59005;EQDQ01  00002PRCP99
0127833390999991999031612004-14050-042620FM-12+088299999V0200901N003110042019N0200001N1+02101+01891101301ADDAA199000091GF108991051021004501021999KA1240N+01951MA1999999091561MD1999999+0011REMSYN017 333 20195 58001;EQDQ01  00002PRCP99
0108833390999991999031618004-14050-042620FM-12+088299999V0200901N003112200019N0200001N1+02641+01831100881ADDAA199000091GF102991021021004501001001MA1999999091201MD1999999-0031REMSYN011 333 59003;EQDQ01  00002PRCP99
0143833390999991999031700004-14050-042620FM-12+088299999V0201401N002112200019N9999999N1+02201+01861101111ADDAA199000091GA1001+999999999GF100991001001999999001001KA1240M+02681MA1999999091381MD1999999+0021REMSYN017 333 10268 58002;EQDQ01  00002PRCP99
0127833390999991999031712004-14050-042620FM-12+088299999V0201401N005710042019N0200001N1+02241+01901101241ADDAA199000091GF105991051021004501001001KA1240N+01941MA1999999091511MD1999999-0051REMSYN017 333 20194 59005;EQDQ01  00002PRCP99
0093833390999991999031718004-14050-042620FM-12+088299999V0201401N003112200019N0200001N1+02671+01921100861ADDAA199000091GF103991021021004501001011MD1999999-0021REMSYN011 333 59002;EQDQ01  00002PRCP99
0127833390999991999031800004-14050-042620FM-12+088299999V0201401N003612200019N9999999N1+02271+01901100991ADDAA199000091GF103991031021004501001001KA1240M+02701MA1999999091281MD1999999-0101REMSYN017 333 10270 59010;EQDQ01  00002PRCP99
0127833390999991999032000004-14050-042620FM-12+088299999V0201401N005112200019N9999999N1+02191+01861101041ADDAA199000091GF102991021021004501001001KA1240M+02481MA1999999091331MD1999999+0081REMSYN017 333 10248 58008;EQDQ01  00002PRCP99
0127833390999991999032012004-14050-042620FM-12+088299999V0200901N003110042019N0200001N1+02021+01741101351ADDAA199000091GF106991061021004501001001KA1240N+01801MA1999999091591MD1999999+0151REMSYN017 333 20180 58015;EQDQ01  00002PRCP99
0108833390999991999032018004-14050-042620FM-12+088299999V0201401N004112200019N0200001N1+02661+01851100961ADDAA199000091GF104991041021004501001001MA1999999091241MD1999999+0101REMSYN011 333 58010;EQDQ01  00002PRCP99
0127833390999991999032112004-14050-042620FM-12+088299999V0201401N003110450019N0200001N1+02021+01871101471ADDAA199000091GF108991041021004501021999KA1240N+01871MA1999999091711MD1999999+0121REMSYN017 333 20187 58012;EQDQ01  00002PRCP99
0108833390999991999032118004-14050-042620FM-12+088299999V0201401N004112200019N0200001N1+02841+01901101101ADDAA199000091GF105991031021004501001011MA1999999091391MD1999999+0131REMSYN011 333 58013;EQDQ01  00002PRCP99
0149833390999991999032212004-14050-042620FM-12+088299999V0201401N005110042019N0200001N1+02141+01861101391ADDAA199000091AY101061AY201061GF106991061021004501001001KA1240N+01821MA1999999091641MD1999999-0071MW1101REMSYN017 333 20182 59007;EQDQ01  00002PRCP99
0108833390999991999032218004-14050-042620FM-12+088299999V0200901N004612200019N0200001N1+02621+01761101141ADDAA199000091GF104991041021004501001001MA1999999091441MD1999999+0051REMSYN011 333 58005;EQDQ01  00002PRCP99
0127833390999991999032300004-14050-042620FM-12+088299999V0201401N003112200019N9999999N1+02221+01801101231ADDAA199000091GF102991011021004501021001KA1240M+02661MA1999999091501MD1999999-0051REMSYN017 333 10266 59005;EQDQ01  00002PRCP99
0127833390999991999032312004-14050-042620FM-12+088299999V0201401N005111050019N0200001N1+02171+01541999999ADDAA199000091GF105991041021004501001021KA1240N+01861MA1999999091751MD1999999+0091REMSYN017 333 20186 58009;EQDQ01  00002PRCP99
0108833390999991999032318004-14050-042620FM-12+088299999V0201401N003612200019N0200001N1+02661+01741999999ADDAA199000091GF104991031021004501021001MA1999999091381MD1999999-0061REMSYN011 333 59006;EQDQ01  00002PRCP99
0127833390999991999032400004-14050-042620FM-12+088299999V0201401N005112200019N9999999N1+02281+01811101121ADDAA199000091GF102991021021004501001001KA1240M+02641MA1999999091401MD1999999-0101REMSYN017 333 10264 59010;EQDQ01  00002PRCP99
0149833390999991999032412004-14050-042620FM-12+088299999V0201401N004610042019N0200001N1+02121+01761101361ADDAA199000091AY101061AY201061GF105991051021004501001001KA1240N+01781MA1999999091621MD1999999-0111MW1101REMSYN017 333 20178 59011;EQDQ01  00002PRCP99
0108833390999991999032418004-14050-042620FM-12+088299999V0201401N003112200019N0200001N1+02661+01331101051ADDAA199000091GF103991021021004501021001MA1999999091351MD1999999-0031REMSYN011 333 59003;EQDQ01  00002PRCP99
0143833390999991999032500004-14050-042620FM-12+088299999V0201401N002612200019N9999999N1+02191+01211101151ADDAA199000091GA1001+999999999GF100991001001999999001001KA1240M+02691MA1999999091421MD1999999+0021REMSYN017 333 10269 58002;EQDQ01  00002PRCP99
0127833390999991999032512004-14050-042620FM-12+088299999V0201401N004612200019N0200001N1+02271+01861101371ADDAA199000091GF102991021021004501001001KA1240N+01741MA1999999091641MD1999999+0021REMSYN017 333 20174 58002;EQDQ01  00002PRCP99
0108833390999991999032518004-14050-042620FM-12+088299999V0201401N001512200019N0200001N1+02721+01651101031ADDAA199000091GF103991031021004501001001MA1999999091331MD1999999-0021REMSYN011 333 59002;EQDQ01  00002PRCP99
0143833390999991999032600004-14050-042620FM-12+088299999V0201801N001512200019N9999999N1+02341+01601101171ADDAA199000091GA1001+999999999GF100991001001999999001001KA1240M+02801MA1999999091461MD1999999+0041REMSYN017 333 10280 58004;EQDQ01  00002PRCP99
0149833390999991999032612004-14050-042620FM-12+088299999V0201401N004610042019N0040001N1+02141+02001101441ADDAA199000091AY101061AY201061GF108991081051004501999999KA1240N+01961MA1999999091701MD1999999+0061MW1101REMSYN017 333 20196 58006;EQDQ01  00002PRCP99
0108833390999991999032618004-14050-042620FM-12+088299999V0201401N005712200019N0200001N1+02841+01881101001ADDAA199000091GF102991021021004501001001MA1999999091341MD1999999+0011REMSYN011 333 58001;EQDQ01  00002PRCP99
0143833390999991999032700004-14050-042620FM-12+088299999V0209999C000012200019N9999999N1+02301+01611101181ADDAA199000091GA1001+999999999GF100991001001999999001001KA1240M+02831MA1999999091451MD1999999-0011REMSYN017 333 10283 59001;EQDQ01  00002PRCP99
0149833390999991999032712004-14050-042620FM-12+088299999V0201401N004110042019N0040001N1+02191+01971101371ADDAA199000091AY101061AY201061GF106991061021004501001001KA1240N+01971MA1999999091641MD1999999-0061MW1101REMSYN017 333 20197 59006;EQDQ01  00002PRCP99
0108833390999991999032718004-14050-042620FM-12+088299999V0201401N003612200019N0200001N1+02801+01601100971ADDAA199000091GF102991021021004501001001MA1999999091341MD1999999+0001REMSYN011 333 58000;EQDQ01  00002PRCP99
0143833390999991999032812004-14050-042620FM-12+088299999V0200901N006212200019N0200001N1+02321+01791101321ADDAA199000091GA1001+999999999GF100991001001999999001001KA1240N+01821MA1999999091601MD1999999-0041REMSYN017 333 20182 59004;EQDQ01  00002PRCP99
0124833390999991999032818004-14050-042620FM-12+088299999V0200501N004112200019N0200001N1+02851+01351100851ADDAA199000091GA1001+999999999GF100991001001999999001001MA1999999091181MD1999999-0161REMSYN011 333 59016;EQDQ01  00002PRCP99
0128833390999991999032912004-14050-042620FM-12+088299999V0201401N003112200019N0200001N1+02381+01631101281ADDAA199000091GA1001+999999999GF100991001001999999001001KA1240N+01751MD1999999-0031REMSYN017 333 20175 59003;EQDQ01  00002PRCP99
0108833390999991999032918004-14050-042620FM-12+088299999V0201401N003112200019N0200001N1+02841+01631999999ADDAA199000091GF102991021021004501001001MA1999999091291MD1999999+0081REMSYN011 333 58008;EQDQ01  00002PRCP99
0143833390999991999033000004-14050-042620FM-12+088299999V0209999C000012200019N9999999N1+02381+01801100991ADDAA199000091GA1001+999999999GF100991001001999999001001KA1240M+02871MA1999999091321MD1999999-0061REMSYN017 333 10287 59006;EQDQ01  00002PRCP99
0143833390999991999033012004-14050-042620FM-12+088299999V0201401N004112200019N0200001N1+02421+01791101301ADDAA199000091GA1001+999999999GF100991001001999999001001KA1240N+01841MA1999999091601MD1999999+0031REMSYN017 333 20184 58003;EQDQ01  00002PRCP99
0124833390999991999033018004-14050-042620FM-12+088299999V0201401N004112200019N0200001N1+02861+01551100901ADDAA199000091GA1001+999999999GF100991001001999999001001MA1999999091261MD1999999+0001REMSYN011 333 58000;EQDQ01  00002PRCP99
0143833390999991999033100004-14050-042620FM-12+088299999V0201401N003112200019N9999999N1+02361+01321101011ADDAA199000091GA1001+999999999GF100991001001999999001001KA1240M+02881MA1999999091341MD1999999+0021REMSYN017 333 10288 58002;EQDQ01  00002PRCP99
0108833390999991999033118004-14050-042620FM-12+088299999V0200901N005112200019N0200001N1+02781+01611101111ADDAA199000091GF103991031021004501001001MA1999999091431MD1999999+0171REMSYN011 333 58017;EQDQ01  00002PRCP99
0143833390999991999040100004-14050-042620FM-12+088299999V0201401N005112200019N9999999N1+02371+01581101271ADDAA199000091GA1001+999999999GF100991001001999999001001KA1240M+02801MA1999999091561MD1999999+0221REMSYN017 333 10280 58022;EQDQ01  00002PRCP99
0127833390999991999040112004-14050-042620FM-12+088299999V0201401N002612200019N0200001N1+02141+01591101461ADDAA199000091GF102991021021004501001001KA1240N+01821MA1999999091721MD1999999+0011REMSYN017 333 20182 58001;EQDQ01  00002PRCP99
0108833390999991999040118004-14050-042620FM-12+088299999V0201401N005110042019N0200001N1+02601+01681101191ADDAA199000091GF106991051021004501001011MA1999999091481MD1999999+0051REMSYN011 333 58005;EQDQ01  00002PRCP99
0136833390999991999040200004-14050-042620FM-12+088299999V0201401N003110042019N9999999N1+02051+01961101421ADDAA199000191AY121061AY221061GF108991051021004501021999KA1240M+02641MA1999999091651MD1999999+0091MW1601REMSYN023 333 10264 58009 69921;
0136833390999991999040212004-14050-042620FM-12+088299999V0200901N003610042019N0200001N1+01971+01881101561ADDAA199005191AY161061AY221061GF108991051021004501021999KA1240N+01871MA1999999091751MD1999999+0031MW1021REMSYN023 333 20187 58003 60054;
0136833390999991999040312004-14050-042620FM-12+088299999V0201401N005110042019N0200001N1+02021+01831101581ADDAA199002091AY161061AY241061GF106991061021004501001001KA1240N+01861MA1999999091771MD1999999+0021MW1021REMSYN023 333 20186 58002 60024;
0124833390999991999040318004-14050-042620FM-12+088299999V0201401N005112200019N0200001N1+02541+01881101261ADDAA199000091GF104991999021004501001001MA1999999091531MD1999999+0051REMSYN011 333 58005;EQDQ01+000052SCOTLCQ02  00002PRCP99
0127833390999991999040412004-14050-042620FM-12+088299999V0200901N005712200019N0200001N1+02181+01701101461ADDAA199000091GF102991021021004501001001KA1240N+01761MA1999999091711MD1999999-0061REMSYN017 333 20176 59006;EQDQ01  00002PRCP99
0108833390999991999040418004-14050-042620FM-12+088299999V0201401N005110042019N0200001N1+02561+01831101201ADDAA199000091GF106991061021004501001001MA1999999091481MD1999999+0051REMSYN011 333 58005;EQDQ01  00002PRCP99
0127833390999991999040500004-14050-042620FM-12+088299999V0201401N004112200019N9999999N1+02221+01761101361ADDAA199000091GF102991021021004501001001KA1240M+02581MA1999999091621MD1999999+0061REMSYN017 333 10258 58006;EQDQ01  00002PRCP99
0149833390999991999040512004-14050-042620FM-12+088299999V0201401N004610042019N0200001N1+02081+01911101481ADDAA199000091AY101061AY201061GF106991061021004501001001KA1240N+01931MA1999999091721MD1999999+0011MW1101REMSYN017 333 20193 58001;EQDQ01  00002PRCP99
0108833390999991999040518004-14050-042620FM-12+088299999V0201401N004112200019N0200001N1+02721+01741101111ADDAA199000091GF102991021021004501001001MA1999999091421MD1999999-0061REMSYN011 333 59006;EQDQ01  00002PRCP99
0127833390999991999040600004-14050-042620FM-12+088299999V0200901N002112200019N9999999N1+02321+01831101331ADDAA199000091GF102991021021004501001001KA1240M+02761MA1999999091591MD1999999-0031REMSYN017 333 10276 59003;EQDQ01  00002PRCP99
0127833390999991999040612004-14050-042620FM-12+088299999V0200501N008212200019N0200001N1+02261+01841101431ADDAA199000091GF103991031021004501001001KA1240N+01921MA1999999091701MD1999999-0021REMSYN017 333 20192 59002;EQDQ01  00002PRCP99
0108833390999991999040618004-14050-042620FM-12+088299999V0201401N003112200019N0200001N1+02781+01731101141ADDAA199000091GF102991021021004501001001MA1999999091451MD1999999+0031REMSYN011 333 58003;EQDQ01  00002PRCP99
0143833390999991999040700004-14050-042620FM-12+088299999V0201401N001512200019N9999999N1+02321+01831101271ADDAA199000091GA1001+999999999GF100991001001999999001001KA1240M+02781MA1999999091551MD1999999-0041REMSYN017 333 10278 59004;EQDQ01  00002PRCP99
0127833390999991999040712004-14050-042620FM-12+088299999V0201401N003112200019N0200001N1+02281+01881101411ADDAA199000091GF102991021021004501001001KA1240N+01941MA1999999091681MD1999999-0021REMSYN017 333 20194 59002;EQDQ01  00002PRCP99
0108833390999991999040718004-14050-042620FM-12+088299999V0201401N004612200019N0200001N1+02761+01561101151ADDAA199000091GF102991021021004501001001MA1999999091461MD1999999+0011REMSYN011 333 58001;EQDQ01  00002PRCP99
0143833390999991999040800004-14050-042620FM-12+088299999V0201801N003112200019N9999999N1+02251+01211101261ADDAA199000091GA1001+999999999GF100991001001999999001001KA1240M+02801MA1999999091541MD1999999-0011REMSYN017 333 10280 59001;EQDQ01  00002PRCP99
0108833390999991999040818004-14050-042620FM-12+088299999V0200901N003110042019N0200001N1+02651+01751101101ADDAA199000091GF106991051021004501021001MA1999999091391MD1999999-0071REMSYN011 333 59007;EQDQ01  00002PRCP99
0127833390999991999040900004-14050-042620FM-12+088299999V0201401N003112200019N9999999N1+02281+01511101171ADDAA199000091GF102991021021004501001001KA1240M+02661MA1999999091451MD1999999-0091REMSYN017 333 10266 59009;EQDQ01  00002PRCP99
0149833390999991999040912004-14050-042620FM-12+088299999V0201401N005110042019N0040001N1+02071+01911101281ADDAA199000091AY101061AY201061GF108991081051004501999999KA1240N+01821MA1999999091541MD1999999-0141MW1101REMSYN017 333 20182 59014;EQDQ01  00002PRCP99
0108833390999991999040918004-14050-042620FM-12+088299999V0201401N004612200019N0200001N1+02721+01621100991ADDAA199000091GF102991021021004501001001MA1999999091301MD1999999-0091REMSYN011 333 59009;EQDQ01  00002PRCP99
0127833390999991999041000004-14050-042620FM-12+088299999V0201401N005710042019N9999999N1+02321+01871101201ADDAA199000091GF105991051021004501001001KA1240M+02731MA1999999091471MD1999999+0021REMSYN017 333 10273 58002;EQDQ01  00002PRCP99
0149833390999991999041012004-14050-042620FM-12+088299999V0201401N007710042019N0200001N1+02121+01821101381ADDAA199000091AY101061AY201061GF106991061021004501001001KA1240N+01921MA1999999091641MD1999999+0101MW1101REMSYN017 333 20192 58010;EQDQ01  00002PRCP99
0136833390999991999041100004-14050-042620FM-12+088299999V0201401N005110042019N9999999N1+01981+01781101521ADDAA199000591AY161061AY261061GF106991061021004501001001KA1240M+02701MA1999999091741MD1999999+0271MW1101REMSYN023 333 10270 58027 69961;
0136833390999991999041112004-14050-042620FM-12+088299999V0201401N008210042019N0200001N1+01941+01551101731ADDAA199000591AY161061AY261061GF106991061021004501001001KA1240N+01781MA1999999091901MD1999999+0261MW1021REMSYN023 333 20178 58026 69964;
0108833390999991999041118004-14050-042620FM-12+088299999V0201401N006210042019N0200001N1+02251+01671101471ADDAA199000091GF107991061021004501021999MA1999999091701MD1999999+0291REMSYN011 333 58029;EQDQ01  00002PRCP99
0127833390999991999041200004-14050-042620FM-12+088299999V0201401N004612200019N9999999N1+02041+01601101641ADDAA199000091GF102991021021004501001001KA1240M+02261MA1999999091831MD1999999+0091REMSYN017 333 10226 58009;EQDQ01  00002PRCP99
0127833390999991999041212004-14050-042620FM-12+088299999V0201401N005110042019N0200001N1+01941+01641101861ADDAA199000091GF106991061021004501001001KA1240N+01801MA1999999092031MD1999999+0131REMSYN017 333 20180 58013;EQDQ01  00002PRCP99
0109833390999991999041218004-14050-042620FM-12+088299999V0200901N005110042019N0200001N1+02321+01831101491ADDAA199000091GF106991061021004501001001MD1999999+0011REMSYN011 333 58001;EQDQ01+101713APOSP Q02  00002PRCP99
0127833390999991999041300004-14050-042620FM-12+088299999V0201401N006210042019N9999999N1+02101+02051101641ADDAA199000091GF106991061021004501001001KA1240M+02441MA1999999091831MD1999999+0001REMSYN017 333 10244 58000;EQDQ01  00002PRCP99
0127833390999991999041312004-14050-042620FM-12+088299999V0201401N005112200019N0200001N1+02021+01601101731ADDAA199000091GF102991011021004501001041KA1240N+01771MA1999999091921MD1999999-0111REMSYN017 333 20177 59011;EQDQ01  00002PRCP99
0108833390999991999041318004-14050-042620FM-12+088299999V0200901N003112200019N0200001N1+02721+01791101251ADDAA199000091GF103991031021004501001001MA1999999091531MD1999999-0181REMSYN011 333 59018;EQDQ01  00002PRCP99
0143833390999991999041400004-14050-042620FM-12+088299999V0209999C000012200019N9999999N1+02241+01751101351ADDAA199000091GA1001+999999999GF100991001001999999001001KA1240M+02541MA1999999091601MD1999999-0231REMSYN017 333 10254 59023;EQDQ01  00002PRCP99
0127833390999991999041412004-14050-042620FM-12+088299999V0201401N003110042019N0200001N1+02081+01861101531ADDAA199000091GF106991061021004501001001KA1240N+01751MA1999999091761MD1999999-0161REMSYN017 333 20175 59016;EQDQ01  00002PRCP99
0108833390999991999041418004-14050-042620FM-12+088299999V0201401N003112200019N0200001N1+02871+01891101041ADDAA199000091GF102991021021004501001001MA1999999091351MD1999999-0181REMSYN011 333 59018;EQDQ01  00002PRCP99
0143833390999991999041500004-14050-042620FM-12+088299999V0201401N004112200019N9999999N1+02421+01791101211ADDAA199000091GA1001+999999999GF100991001001999999001001KA1240M+02901MA1999999091491MD1999999-0111REMSYN017 333 10290 59011;EQDQ01  00002PRCP99
0127833390999991999041512004-14050-042620FM-12+088299999V0201401N005712200019N0200001N1+02201+01921101351ADDAA199000091GF104991041021004501001001KA1240N+02031MA1999999091631MD1999999-0131REMSYN017 333 20203 59013;EQDQ01  00002PRCP99
0143833390999991999041600004-14050-042620FM-12+088299999V0201401N001512200019N9999999N1+02321+01671101211ADDAA199000091GA1001+999999999GF100991001001999999001001KA1240M+02841MA1999999091491MD1999999+0001REMSYN017 333 10284 58000;EQDQ01  00002PRCP99
0127833390999991999041612004-14050-042620FM-12+088299999V0201401N002610042019N0200001N1+02221+01971101421ADDAA199000091GF106991061021004501001001KA1240N+01881MA1999999091681MD1999999+0051REMSYN017 333 20188 58005;EQDQ01  00002PRCP99
0108833390999991999041618004-14050-042620FM-12+088299999V0201401N005112200019N0200001N1+02841+01911100941ADDAA199000091GF102991011021004501001041MA1999999091281MD1999999+0001REMSYN011 333 58000;EQDQ01  00002PRCP99
0143833390999991999041700004-14050-042620FM-12+088299999V0201401N002112200019N9999999N1+02401+01651101291ADDAA199000091GA1001+999999999GF100991001001999999001001KA1240M+02881MA1999999091571MD1999999+0081REMSYN017 333 10288 58008;EQDQ01  00002PRCP99
0108833390999991999041718004-14050-042620FM-12+088299999V0203201N003112200019N0200001N1+03041+01881101041ADDAA199000091GF104991021021004501001041MA1999999091391MD1999999+0111REMSYN011 333 58011;EQDQ01  00002PRCP99
0143833390999991999041800004-14050-042620FM-12+088299999V0209999C000012200019N9999999N1+02381+01801101281ADDAA199000091GA1001+999999999GF100991001001999999001001KA1240M+03051MA1999999091581MD1999999+0061REMSYN017 333 10305 58006;EQDQ01  00002PRCP99
0143833390999991999041812004-14050-042620FM-12+088299999V0200501N002112200019N0200001N1+02481+01981101411ADDAA199000091GF102991001001999999001041KA1240N+01961MA1999999091711MD1999999+0011REMSYN017 333 20196 58001;EQDQ01+022502SCOLCBQ02  00002PRCP99
0108833390999991999041818004-14050-042620FM-12+088299999V0201401N004112200019N0200001N1+03041+01881101021ADDAA199000091GF102991021021004501001001MA1999999091381MD1999999-0011REMSYN011 333 59001;EQDQ01  00002PRCP99
0127833390999991999041900004-14050-042620FM-12+088299999V0201401N005112200019N9999999N1+02521+01841101351ADDAA199000091GF102991021021004501001001KA1240M+03051MA1999999091611MD1999999+0081REMSYN017 333 10305 58008;EQDQ01  00002PRCP99
0127833390999991999041912004-14050-042620FM-12+088299999V0200901N006710042019N0200001N1+02121+01741101601ADDAA199000091GF106991051021004501021001KA1240N+01931MA1999999091851MD1999999+0141REMSYN017 333 20193 58014;EQDQ01  00002PRCP99
0108833390999991999041918004-14050-042620FM-12+088299999V0200901N003612200019N0200001N1+02791+01441101221ADDAA199000091GF104991031021004501021001MA1999999091541MD1999999+0161REMSYN011 333 58016;EQDQ01  00002PRCP99
0127833390999991999042000004-14050-042620FM-12+088299999V0201401N003612200019N9999999N1+02361+01731101471ADDAA199000091GF102991021021004501001001KA1240M+02801MA1999999091731MD1999999+0071REMSYN017 333 10280 58007;EQDQ01  00002PRCP99
0108833390999991999042018004-14050-042620FM-12+088299999V0201401N007212200019N0200001N1+02781+01301101141ADDAA199000091GF102991021021004501001001MA1999999091451MD1999999-0091REMSYN011 333 59009;EQDQ01  00002PRCP99
0127833390999991999042100004-14050-042620FM-12+088299999V0201401N003112200019N9999999N1+02241+01861101351ADDAA199000091GF102991021021004501001001KA1240M+02831MA1999999091611MD1999999-0121REMSYN017 333 10283 59012;EQDQ01  00002PRCP99
0108833390999991999042118004-14050-042620FM-12+088299999V0201401N004612200019N0200001N1+02601+01651101231ADDAA199000091GF104991041021004501001001MA1999999091511MD1999999+0061REMSYN011 333 58006;EQDQ01  00002PRCP99
0143833390999991999042200004-14050-042620FM-12+088299999V0201401N002112200019N9999999N1+02241+01641101361ADDAA199000091GA1001+999999999GF100991001001999999001001KA1240M+02641MA1999999091611MD1999999+0001REMSYN017 333 10264 58000;EQDQ01  00002PRCP99
0127833390999991999042212004-14050-042620FM-12+088299999V0201401N006712200019N0200001N1+02141+01611101601ADDAA199000091GF102991011021004501021001KA1240N+01831MA1999999091841MD1999999+0101REMSYN017 333 20183 58010;EQDQ01  00002PRCP99
0108833390999991999042218004-14050-042620FM-12+088299999V0201401N002612200019N0200001N1+02731+01281101251ADDAA199000091GF102991021021004501001001MA1999999091541MD1999999+0031REMSYN011 333 58003;EQDQ01  00002PRCP99
0127833390999991999042300004-14050-042620FM-12+088299999V0201401N006212200019N9999999N1+02381+01391101431ADDAA199000091GF102991021021004501001001KA1240M+02771MA1999999091691MD1999999+0081REMSYN017 333 10277 58008;EQDQ01  00002PRCP99
0149833390999991999042312004-14050-042620FM-12+088299999V0201401N006210042019N0040001N1+01981+01791101581ADDAA199000091AY101061AY201061GF107991061021004501021999KA1240N+01901MA1999999091821MD1999999-0021MW1101REMSYN017 333 20190 59002;EQDQ01  00002PRCP99
0108833390999991999042318004-14050-042620FM-12+088299999V0200901N003110450019N0200001N1+02701+01571101241ADDAA199000091GF105991041021004501021001MA1999999091531MD1999999-0011REMSYN011 333 59001;EQDQ01  00002PRCP99
0149833390999991999042400004-14050-042620FM-12+088299999V0201401N004610042019N9999999N1+02181+01821101451ADDAA199000091AY101061AY201061GF106991061021004501001001KA1240M+02761MA1999999091681MD1999999-0011MW1101REMSYN017 333 10276 59001;EQDQ01  00002PRCP99
0108833390999991999042418004-14050-042620FM-12+088299999V0201401N004612200019N0200001N1+02541+01601101161ADDAA199000091GF103991031021004501001001MA1999999091441MD1999999-0091REMSYN011 333 59009;EQDQ01  00002PRCP99
0149833390999991999042500004-14050-042620FM-12+088299999V0201401N006210042019N9999999N1+02101+01781101311ADDAA199000091AY101061AY201061GF106991051021004501031001KA1240M+02601MA1999999091551MD1999999-0131MW1101REMSYN017 333 10260 59013;EQDQ01  00002PRCP99
0130833390999991999042512004-14050-042620FM-12+088299999V0201401N004610042019N0040001N1+01881+01801101411ADDAA199000021AY101061AY201061GF108991081051004501999999KA1240N+01841MA1999999091631MD1999999-0091MW1501REMSYN017 333 20184 59009;
0111833390999991999042518004-14050-042620FM-12+088299999V0200901N003110042019N0200001N1+02351+01761101121ADDAA199000021AY151061AY201061GF105991051021004501001001MA1999999091381MD1999999-0061MW1021REMSYN011 333 59006;
0149833390999991999042612004-14050-042620FM-12+088299999V0200901N005710450019N0010001N1+01901+01781101581ADDAA199000091AY121061AY221061GF108991041021004501021999KA1240N+01731MA1999999091771MD1999999+0141MW1401REMSYN017 333 20173 58014;EQDQ01  00002PRCP99
0108833390999991999042618004-14050-042620FM-12+088299999V0201401N005112200019N0200001N1+02541+01761101131ADDAA199000091GF103991031021004501001001MA1999999091411MD1999999+0031REMSYN011 333 58003;EQDQ01  00002PRCP99
0127833390999991999042700004-14050-042620FM-12+088299999V0201401N006210450019N9999999N1+02201+01801101381ADDAA199000091GF106991041021004501031001KA1240M+02581MA1999999091611MD1999999+0061REMSYN017 333 10258 58006;EQDQ01  00002PRCP99
0149833390999991999042712004-14050-042620FM-12+088299999V0201401N008210042019N0010001N1+01861+01781101521ADDAA199000091AY141061AY221061GF108991051051004501021999KA1240N+01821MA1999999091741MD1999999-0031MW1401REMSYN017 333 20182 59003;EQDQ01  00002PRCP99
0108833390999991999042718004-14050-042620FM-12+088299999V0200901N005112200019N0200001N1+02601+01651101101ADDAA199000091GF103991031021004501001001MA1999999091381MD1999999-0031REMSYN011 333 59003;EQDQ01  00002PRCP99
0127833390999991999042812004-14050-042620FM-12+088299999V0200901N009310042019N0200001N1+01891+01711101611ADDAA199000091GF106991061021004501001001KA1240N+01671MA1999999091781MD1999999+0041REMSYN017 333 20167 58004;EQDQ01  00002PRCP99
0127833390999991999042900004-14050-042620FM-12+088299999V0201401N005110042019N9999999N1+02151+01611101391ADDAA199000091GF108991051021004501021999KA1240M+02401MA1999999091611MD1999999-0051REMSYN017 333 10240 59005;EQDQ01  00002PRCP99
0114833390999991999043000004-14050-042620FM-12+088299999V0201401N009810042019N9999999N1+02161+01571101461ADDAA199000091GF106991061021004501001001MA1999999091661MD1999999+0051REMSYN017 333 1054/ 58005;EQDQ01  00002PRCP99
0127833390999991999043012004-14050-042620FM-12+088299999V0201401N005110042019N0200001N1+01941+01641101601ADDAA199000091GF108991051021004501021999KA1240N+01761MA1999999091801MD1999999-0041REMSYN017 333 20176 59004;EQDQ01  00002PRCP99
0108833390999991999043018004-14050-042620FM-12+088299999V0201401N004612200019N0200001N1+02661+01561101131ADDAA199000091GF104991041021004501001001MA1999999091421MD1999999+0001REMSYN011 333 58000;EQDQ01  00002PRCP99
0143833390999991999050100004-14050-042620FM-12+088299999V0201401N006712200019N9999999N1+02181+01561101431ADDAA199000091GA1001+999999999GF100991001001999999001001KA1240M+02681MA1999999091651MD1999999-0011REMSYN017 333 10268 59001;EQDQ01  00002PRCP99
0127833390999991999050112004-14050-042620FM-12+088299999V0201401N007710042019N0200001N1+02171+01841101651ADDAA199000091GF106991061021004501001001KA1240N+01901MA1999999091871MD1999999+0071REMSYN017 333 20190 58007;EQDQ01  00002PRCP99
0108833390999991999050118004-14050-042620FM-12+088299999V0201401N005712200019N0200001N1+02581+01771101301ADDAA199000091GF104991021021004501001011MA1999999091571MD1999999+0151REMSYN011 333 58015;EQDQ01  00002PRCP99
0149833390999991999050312004-14050-042620FM-12+088299999V0201401N007210042019N0200001N1+01961+01641101701ADDAA199000091AY101061AY201061GF106991061021004501001001KA1240N+01781MA1999999091891MD1999999+0041MW1101REMSYN017 333 20178 58004;EQDQ01  00002PRCP99
0108833390999991999050318004-14050-042620FM-12+088299999V0201401N002610042019N0200001N1+02441+01481101351ADDAA199000091GF105991051021004501001001MA1999999091601MD1999999+0041REMSYN011 333 58004;EQDQ01  00002PRCP99
0127833390999991999050412004-14050-042620FM-12+088299999V0201401N007710042019N0200001N1+01971+01531101641ADDAA199000091GF106991061021004501001001KA1240N+01761MA1999999091841MD1999999-0051REMSYN017 333 20176 59005;EQDQ01  00002PRCP99
0108833390999991999050418004-14050-042620FM-12+088299999V0201401N005712200019N0200001N1+02581+01261101261ADDAA199000091GF104991041021004501001001MA1999999091531MD1999999-0071REMSYN011 333 59007;EQDQ01  00002PRCP99
0127833390999991999050500004-14050-042620FM-12+088299999V0201401N005110042019N9999999N1+02201+01561101401ADDAA199000091GF107991061021004501021999KA1240M+02601MA1999999091641MD1999999-0081REMSYN017 333 10260 59008;EQDQ01  00002PRCP99
0127833390999991999050512004-14050-042620FM-12+088299999V0201401N005710042019N0200001N1+02021+01621101591ADDAA199000091GF106991061021004501001001KA1240N+01831MA1999999091811MD1999999-0031REMSYN017 333 20183 59003;EQDQ01  00002PRCP99
0108833390999991999050518004-14050-042620FM-12+088299999V0200901N003112200019N0200001N1+02681+00921101261ADDAA199000091GF104991031021004501021001MA1999999091451MD1999999-0081REMSYN011 333 59008;EQDQ01  00002PRCP99
0127833390999991999050600004-14050-042620FM-12+088299999V0201401N003112200019N9999999N1+02201+01201101301ADDAA199000091GF102991021021004501001001KA1240M+02701MA1999999091551MD1999999-0091REMSYN017 333 10270 59009;EQDQ01  00002PRCP99
0149833390999991999050612004-14050-042620FM-12+088299999V0201401N003112200019N0200001N1+02091+01721101441ADDAA199000091AY101061AY201061GF104991031021004501021001KA1240N+01801MA1999999091681MD1999999-0131MW1101REMSYN017 333 20180 59013;EQDQ01  00002PRCP99
0108833390999991999050618004-14050-042620FM-12+088299999V0201401N003112200019N0200001N1+02881+01391100941ADDAA199000091GF102991011021004501001021MA1999999091341MD1999999-0111REMSYN011 333 59011;EQDQ01  00002PRCP99
0143833390999991999050700004-14050-042620FM-12+088299999V0201401N003112200019N9999999N1+02371+01101101181ADDAA199000091GA1001+999999999GF100991001001999999001001KA1240M+02921MA1999999091461MD1999999-0091REMSYN017 333 10292 59009;EQDQ01  00002PRCP99
0127833390999991999050712004-14050-042620FM-12+088299999V0200901N003112200019N0200001N1+02161+01701101431ADDAA199000091GF102991011021004501021001KA1240N+01681MA1999999091691MD1999999+0011REMSYN017 333 20168 58001;EQDQ01  00002PRCP99
0108833390999991999050718004-14050-042620FM-12+088299999V0201401N004112200019N0200001N1+02881+01091100991ADDAA199000091GF104991041021004501001001MA1999999091301MD1999999-0041REMSYN011 333 59004;EQDQ01  00002PRCP99
0127833390999991999050800004-14050-042620FM-12+088299999V0209999C000012200019N9999999N1+02461+01321101131ADDAA199000091GF102991021021004501001001KA1240M+03061MA1999999091431MD1999999-0031REMSYN017 333 10306 59003;EQDQ01  00002PRCP99
0127833390999991999050812004-14050-042620FM-12+088299999V0200501N002612200019N0200001N1+02461+01811101271ADDAA199000091GF102991021021004501001001KA1240N+01921MA1999999091581MD1999999-0111REMSYN017 333 20192 59011;EQDQ01  00002PRCP99
0130833390999991999050818004-14050-042620FM-12+088299999V0202701N002110042019N0200001N1+02351+01911100991ADDAA199000091AY191061AY201061GF106991061021004501001001MA1999999091281MD1999999-0021MW1021REMSYN011 333 59002;EQDQ01  00002PRCP99
0149833390999991999050900004-14050-042620FM-12+088299999V0201401N004112200019N9999999N1+02221+01761101091ADDAA199000091AY101061AY201061GF102991021021004501001001KA1240M+03021MA1999999091491MD1999999+0061MW1131REMSYN017 333 10302 58006;EQDQ01  00002PRCP99
0136833390999991999050912004-14050-042620FM-12+088299999V0201401N004110042019N0040001N1+01951+01811101421ADDAA199011991AY161061AY261061GF108991081051004501999999KA1240N+01801MA1999999091661MD1999999+0081MW1101REMSYN023 333 20180 58008 60124;
0124833390999991999050918004-14050-042620FM-12+088299999V0201401N005710042019N0200001N1+02521+01551101111ADDAA199000091GF106991999021004501001001MA1999999091391MD1999999+0111REMSYN011 333 58011;EQDQ01+000052SCOTLCQ02  00002PRCP99
0127833390999991999051000004-14050-042620FM-12+088299999V0201401N007712200019N9999999N1+02161+01721101371ADDAA199000091GF103991031021004501001001KA1240M+02551MA1999999091601MD1999999+0111REMSYN017 333 10255 58011;EQDQ01  00002PRCP99
0136833390999991999051012004-14050-042620FM-12+088299999V0200901N007710042019N0200001N1+01901+01701101641ADDAA199000591AY161061AY221061GF108991051051004501021999KA1240N+01821MA1999999091841MD1999999+0181MW1021REMSYN023 333 20182 58018 69944;
0108833390999991999051018004-14050-042620FM-12+088299999V0201401N006710042019N0200001N1+02201+01741101341ADDAA199000091GF106991061021004501001001MA1999999091571MD1999999+0181REMSYN011 333 58018;EQDQ01  00002PRCP99
0127833390999991999051100004-14050-042620FM-12+088299999V0201401N006712200019N9999999N1+01901+01681101561ADDAA199000091GF103991031021004501001001KA1240M+02221MA1999999091741MD1999999+0141REMSYN017 333 10222 58014;EQDQ01  00002PRCP99
0127833390999991999051112004-14050-042620FM-12+088299999V0201401N007210042019N0200001N1+01851+01601101721ADDAA199000091GF106991061021004501001001KA1240N+01651MA1999999091871MD1999999+0031REMSYN017 333 20165 58003;EQDQ01  00002PRCP99
0108833390999991999051118004-14050-042620FM-12+088299999V0201401N005112200019N0200001N1+02501+01641101241ADDAA199000091GF102991021021004501001001MA1999999091491MD1999999-0081REMSYN011 333 59008;EQDQ01  00002PRCP99
0143833390999991999051200004-14050-042620FM-12+088299999V0201401N007712200019N9999999N1+02061+01741101521ADDAA199000091GA1001+999999999GF100991001001999999001001KA1240M+02521MA1999999091721MD1999999-0021REMSYN017 333 10252 59002;EQDQ01  00002PRCP99
0127833390999991999051212004-14050-042620FM-12+088299999V0200901N005110042019N0200001N1+01981+01781101621ADDAA199000091GF106991061021004501001001KA1240N+01841MA1999999091811MD1999999-0061REMSYN017 333 20184 59006;EQDQ01  00002PRCP99
0108833390999991999051218004-14050-042620FM-12+088299999V0201401N002612200019N0200001N1+02681+01731101111ADDAA199000091GF102991021021004501001001MA1999999091401MD1999999-0091REMSYN011 333 59009;EQDQ01  00002PRCP99
0143833390999991999051300004-14050-042620FM-12+088299999V0209999C000012200019N9999999N1+02241+01691101321ADDAA199000091GA1001+999999999GF100991001001999999001001KA1240M+02741MA1999999091561MD1999999-0161REMSYN017 333 10274 59016;EQDQ01  00002PRCP99
0127833390999991999051312004-14050-042620FM-12+088299999V0200501N001012200019N0200001N1+02311+01871101391ADDAA199000091GF104991011021004501001041KA1240N+01781MA1999999091651MD1999999-0161REMSYN017 333 20178 59016;EQDQ01  00002PRCP99
0108833390999991999051318004-14050-042620FM-12+088299999V0209999C000010042019N0200001N1+02801+01811100991ADDAA199000091GF106991061021004501001001MA1999999091311MD1999999-0091REMSYN011 333 59009;EQDQ01  00002PRCP99
0127833390999991999051412004-14050-042620FM-12+088299999V0201401N005712200019N0200001N1+02041+01821101491ADDAA199000091GF106991041021004501001041KA1240N+01921MA1999999091741MD1999999+0091REMSYN017 333 20192 58009;EQDQ01  00002PRCP99
0127833390999991999051500004-14050-042620FM-12+088299999V0201401N008210042019N9999999N1+01941+01641101651ADDAA199000091GF108991051021004501021999KA1240M+02501MA1999999091841MD1999999+0271REMSYN017 333 10250 58027;EQDQ01  00002PRCP99
0127833390999991999051512004-14050-042620FM-12+088299999V0201401N006710450019N0200001N1+01601+01331101971ADDAA199000091GF108991031021004501021999KA1240N+01541MA1999999092081MD1999999+0341REMSYN017 333 20154 58034;EQDQ01  00002PRCP99
0108833390999991999051518004-14050-042620FM-12+088299999V0201401N005112200019N0200001N1+02101+01421101511ADDAA199000091GF105991031021004501001011MA1999999091691MD1999999+0181REMSYN011 333 58018;EQDQ01  00002PRCP99
0127833390999991999051600004-14050-042620FM-12+088299999V0201401N008712200019N9999999N1+01781+01181101791ADDAA199000091GF102991021021004501001001KA1240M+02121MA1999999091911MD1999999+0071REMSYN017 333 10212 58007;EQDQ01  00002PRCP99
0127833390999991999051612004-14050-042620FM-12+088299999V0201401N005110450019N0200001N1+01421+01221101871ADDAA199000091GF108991041021004501021999KA1240N+01341MA1999999091951MD1999999-0131REMSYN017 333 20134 59013;EQDQ01  00002PRCP99
0124833390999991999051618004-14050-042620FM-12+088299999V0201401N005112200019N0200001N1+02301+01401101411ADDAA199000091GA1001+999999999GF100991001001999999001001MA1999999091591MD1999999-0101REMSYN011 333 59010;EQDQ01  00002PRCP99
0143833390999991999051700004-14050-042620FM-12+088299999V0201401N005112200019N9999999N1+01861+01371101611ADDAA199000091GA1001+999999999GF100991001001999999001001KA1240M+02301MA1999999091741MD1999999-0171REMSYN017 333 10230 59017;EQDQ01  00002PRCP99
0149833390999991999051712004-14050-042620FM-12+088299999V0201401N005110042019N0040001N1+01591+01351101841ADDAA199000091AY101061AY201061GF106991051021004501021001KA1240N+01481MA1999999091861MD1999999-0091MW1101REMSYN017 333 20148 59009;EQDQ01  00002PRCP99
0108833390999991999051718004-14050-042620FM-12+088299999V0201401N004612200019N0200001N1+02381+01211101271ADDAA199000091GF102991011021004501001021MA1999999091501MD1999999-0091REMSYN011 333 59009;EQDQ01  00002PRCP99
0143833390999991999051800004-14050-042620FM-12+088299999V0201401N006212200019N9999999N1+02101+99999101451ADDAA199000091GA1001+999999999GF100991001001999999001001KA1240M+02401MA1999999091631MD1999999-0111REMSYN017 333 10240 59011;EQDQ01  00002PRCP99
0149833390999991999051812004-14050-042620FM-12+088299999V0201401N004110042019N0040001N1+01701+01501101631ADDAA199000091AY101061AY201061GF106991061021004501001001KA1240N+01461MA1999999091801MD1999999-0061MW1101REMSYN017 333 20146 59006;EQDQ01  00002PRCP99
0108833390999991999051818004-14050-042620FM-12+088299999V0200901N003612200019N0200001N1+02521+01241101251ADDAA199000091GF102991021021004501001001MA1999999091491MD1999999-0011REMSYN011 333 59001;EQDQ01  00002PRCP99
0143833390999991999051900004-14050-042620FM-12+088299999V0201401N002612200019N9999999N1+02061+01151101441ADDAA199000091GA1001+999999999GF100991001001999999001001KA1240M+02521MA1999999091631MD1999999+0001REMSYN017 333 10252 58000;EQDQ01  00002PRCP99
0165833390999991999051912004-14050-042620FM-12+088299999V0201401N004612200019N0200001N1+01981+01661101611ADDAA199000091AY101061AY201061GF104991999021004501001001KA1240N+01481MA1999999091801MD1999999+0001MW1101REMSYN017 333 20148 58000;EQDQ01+000062SCOTLCQ02  00002PRCP99
0108833390999991999051918004-14050-042620FM-12+088299999V0201401N002112200019N0200001N1+02621+01501101141ADDAA199000091GF102991021021004501001001MA1999999091401MD1999999-0091REMSYN011 333 59009;EQDQ01  00002PRCP99
0127833390999991999052000004-14050-042620FM-12+088299999V0209999C000012200019N9999999N1+02121+01411101301ADDAA199000091GF102991021021999999001001KA1240M+02681MA1999999091541MD1999999-0091REMSYN017 333 10268 59009;EQDQ01  00002PRCP99
0149833390999991999052012004-14050-042620FM-12+088299999V0200501N001512200019N0200001N1+02201+01841101391ADDAA199000091AY101061AY201061GF104991031021004501021001KA1240N+01661MA1999999091641MD1999999-0161MW1101REMSYN017 333 20166 59016;EQDQ01  00002PRCP99
0108833390999991999052018004-14050-042620FM-12+088299999V0200501N004612200019N0200001N1+02821+01291100971ADDAA199000091GF103991031021004501001001MA1999999091291MD1999999-0111REMSYN011 333 59011;EQDQ01  00002PRCP99
0127833390999991999052100004-14050-042620FM-12+088299999V0209999C000012200019N9999999N1+02241+01351101191ADDAA199000091GF102991021021004501001001KA1240M+02941MA1999999091461MD1999999-0081REMSYN017 333 10294 59008;EQDQ01  00002PRCP99
0127833390999991999052112004-14050-042620FM-12+088299999V0200901N001510042019N0200001N1+02381+01121101321ADDAA199000091GF106991051021004501021001KA1240N+01781MA1999999091601MD1999999-0041REMSYN017 333 20178 59004;EQDQ01  00002PRCP99
0108833390999991999052118004-14050-042620FM-12+088299999V0203601N001510042019N0200001N1+02921+01031100941ADDAA199000091GF107991061021004501021999MA1999999091281MD1999999-0011REMSYN011 333 59001;EQDQ01  00002PRCP99
0127833390999991999052200004-14050-042620FM-12+088299999V0202701N003112200019N9999999N1+02481+01031101131ADDAA199000091GF103991031021004501001001KA1240M+02981MA1999999091451MD1999999-0011REMSYN017 333 10298 59001;EQDQ01  00002PRCP99
0149833390999991999052212004-14050-042620FM-12+088299999V0200901N002610042019N0040001N1+02051+01821101441ADDAA199000091AY101061AY201061GF108991081051004501999999KA1240N+01661MA1999999091701MD1999999+0101MW1101REMSYN017 333 20166 58010;EQDQ01  00002PRCP99
0108833390999991999052218004-14050-042620FM-12+088299999V0201401N002112200019N0200001N1+02761+01531101051ADDAA199000091GF104991031021004501001021MA1999999091351MD1999999+0071REMSYN011 333 58007;EQDQ01  00002PRCP99
0127833390999991999052300004-14050-042620FM-12+088299999V0200901N001510042019N9999999N1+02281+01641101311ADDAA199000091GF106991061021004501001001KA1240M+02831MA1999999091561MD1999999+0111REMSYN017 333 10283 58011;EQDQ01  00002PRCP99
0149833390999991999052312004-14050-042620FM-12+088299999V0201401N006210042019N0040001N1+01881+01781101501ADDAA199000091AY101061AY201061GF108991081051004501999999KA1240N+01781MA1999999091731MD1999999+0031MW1101REMSYN017 333 20178 58003;EQDQ01  00002PRCP99
0127833390999991999052412004-14050-042620FM-12+088299999V0201401N005110042019N0200001N1+01821+01581101881ADDAA199000091GF106991061021004501001001KA1240N+01701MA1999999092051MD1999999+0321REMSYN017 333 20170 58032;EQDQ01  00002PRCP99
0124833390999991999052418004-14050-042620FM-12+088299999V0201401N003612200019N0200001N1+02521+01551101421ADDAA199000091GA1001+999999999GF100991001001999999001001MA1999999091661MD1999999+0211REMSYN011 333 58021;EQDQ01  00002PRCP99
0143833390999991999052500004-14050-042620FM-12+088299999V0201401N003112200019N9999999N1+02041+01431101681ADDAA199000091GA1001+999999999GF100991001001999999001001KA1240M+02541MA1999999091851MD1999999+0201REMSYN017 333 10254 58020;EQDQ01  00002PRCP99
0127833390999991999052512004-14050-042620FM-12+088299999V0201401N004112200019N0200001N1+02001+01581101901ADDAA199000091GF102991011011004501001011KA1240N+01701MA1999999092061MD1999999+0011REMSYN017 333 20170 58001;EQDQ01  00002PRCP99
0143833390999991999052600004-14050-042620FM-12+088299999V0201401N005112200019N9999999N1+02101+00891101511ADDAA199000091GA1001+999999999GF100991001001999999001001KA1240M+02561MA1999999091731MD1999999-0121REMSYN017 333 10256 59012;EQDQ01  00002PRCP99
0127833390999991999052612004-14050-042620FM-12+088299999V0201401N006212200019N0200001N1+01861+01641101711ADDAA199000091GF103991031021004501001001KA1240N+01581MA1999999091881MD1999999-0181REMSYN017 333 20158 59018;EQDQ01  00002PRCP99
0108833390999991999052618004-14050-042620FM-12+088299999V0201401N008212200019N0200001N1+02361+01761101371ADDAA199000091GF104991041021004501001001MA1999999091591MD1999999-0021REMSYN011 333 59002;EQDQ01  00002PRCP99
0127833390999991999052700004-14050-042620FM-12+088299999V0201401N008212200019N9999999N1+01941+01731101651ADDAA199000091GF102991021021004501001001KA1240M+02441MA1999999091821MD1999999+0091REMSYN017 333 10244 58009;EQDQ01  00002PRCP99
0136833390999991999052712004-14050-042620FM-12+088299999V0201401N005110042019N0200001N1+01861+01711101801ADDAA199000791AY151061AY221061GF108991051051004501021999KA1240N+01741MA1999999091951MD1999999+0071MW1021REMSYN023 333 20174 58007 69904;
0108833390999991999052718004-14050-042620FM-12+088299999V0201401N005110042019N0200001N1+02371+01801101411ADDAA199000091GF106991061021004501001001MA1999999091641MD1999999+0051REMSYN011 333 58005;EQDQ01  00002PRCP99
0127833390999991999052800004-14050-042620FM-12+088299999V0201401N005110042019N9999999N1+02081+01911101691ADDAA199000091GF108991051051004501021999KA1240M+02421MA1999999091861MD1999999+0041REMSYN017 333 10242 58004;EQDQ01  00002PRCP99
0136833390999991999052812004-14050-042620FM-12+088299999V0200901N005710042019N0010001N1+01901+01831101781ADDAA199007191AY161061AY241061GF108991051021004501021999KA1240N+01821MA1999999091951MD1999999+0001MW1501REMSYN023 333 20182 58000 60074;
0117833390999991999052818004-14050-042620FM-12+088299999V0200901N005710042019N0200001N1+02281+01811101481ADDAA199000791AY151061AY241061GF108991061021004501021999MA1999999091701MD1999999+0061MW1021REMSYN017 333 58006 69901;
0136833390999991999052900004-14050-042620FM-12+088299999V0200901N003110042019N9999999N1+01951+01891101841ADDAA199000591AY151061AY241061GF108991051021004501021999KA1240M+02381MA1999999091991MD1999999+0131MW1501REMSYN023 333 10238 58013 69951;
0136833390999991999052912004-14050-042620FM-12+088299999V0200901N005710042019N0010001N1+01781+01721101891ADDAA199013091AY161061AY241061GF106991061021004501001001KA1240N+01701MA1999999092031MD1999999+0081MW1401REMSYN023 333 20170 58008 60134;
0130833390999991999052918004-14050-042620FM-12+088299999V0200901N003112200019N0200001N1+02301+01581101511ADDAA199000091AY141061AY221061GF103991031021004501001001MA1999999091711MD1999999+0011MW1021REMSYN011 333 58001;EQDQ01  00002PRCP99
0090833390999991999053000004-14050-042620FM-12+088299999V0209999C000012200019N9999999N1+01941+01551101631ADDAA199000091GA1001+999999999GF100991001001999999001001MA1999999091811EQDQ01  00002PRCP99
0143833390999991999053012004-14050-042620FM-12+088299999V0209999C000012200019N0200001N1+02041+01581101571ADDAA199000091GA1001+999999999GF100991001001999999001001KA1240N+01601MA1999999091761MD1999999-0271REMSYN017 333 20160 59027;EQDQ01  00002PRCP99
0108833390999991999053018004-14050-042620FM-12+088299999V0202701N001512200019N0200001N1+02871+01391100981ADDAA199000091GF102991021021004501001001MA1999999091281MD1999999-0431REMSYN011 333 59043;EQDQ01  00002PRCP99
0127833390999991999053100004-14050-042620FM-12+088299999V0202701N002110450019N9999999N1+02401+01321101131ADDAA199000091GF106991041021004501031001KA1240M+02881MA1999999091411MD1999999-0401REMSYN017 333 10288 59040;EQDQ01  00002PRCP99
0127833390999991999053112004-14050-042620FM-12+088299999V0209999C000012200019N0200001N1+02281+01401101191ADDAA199000091GF102991021021004501001001KA1240N+01781MA1999999091511MD1999999-0251REMSYN017 333 20178 59025;EQDQ01  00002PRCP99
0108833390999991999053118004-14050-042620FM-12+088299999V0200901N001512200019N0200001N1+03021+01021100881ADDAA199000091GF104991041021004501001001MA1999999091251MD1999999-0031REMSYN011 333 59003;EQDQ01  00002PRCP99
0127833390999991999060100004-14050-042620FM-12+088299999V0209999C000012200019N9999999N1+02401+01071101111ADDAA199000091GF102991021021004501001001KA1240M+03041MA1999999091441MD1999999+0031REMSYN017 333 10304 58003;EQDQ01  00002PRCP99
0149833390999991999060112004-14050-042620FM-12+088299999V0201401N005110042019N0040001N1+01761+01761101641ADDAA199000091AY101061AY201061GF108991081051004501999999KA1240N+01741MA1999999091851MD1999999+0341MW1101REMSYN017 333 20174 58034;EQDQ01  00002PRCP99
0108833390999991999060118004-14050-042620FM-12+088299999V0201401N006712200019N0200001N1+02301+01501101471ADDAA199000091GF103991031021004501001001MA1999999091691MD1999999+0441REMSYN011 333 58044;EQDQ01  00002PRCP99
0143833390999991999060200004-14050-042620FM-12+088299999V0201401N008212200019N9999999N1+01941+01531101711ADDAA199000091GA1001+999999999GF100991001001999999001001KA1240M+02401MA1999999091861MD1999999+0421REMSYN017 333 10240 58042;EQDQ01  00002PRCP99
0149833390999991999060212004-14050-042620FM-12+088299999V0201401N007710042019N0200001N1+01821+01551101801ADDAA199000091AY101061AY201061GF106991061021004501001001KA1240N+01721MA1999999091951MD1999999+0101MW1101REMSYN017 333 20172 58010;EQDQ01  00002PRCP99
0108833390999991999060218004-14050-042620FM-12+088299999V0200501N009810042019N0200001N1+02341+01471101451ADDAA199000091GF105991051021004501001001MA1999999091651MD1999999-0041REMSYN011 333 59004;EQDQ01  00002PRCP99
0127833390999991999060300004-14050-042620FM-12+088299999V0201401N009310042019N9999999N1+02081+01511101651ADDAA199000091GF106991061021004501001001KA1240M+02381MA1999999091831MD1999999-0031REMSYN017 333 10238 59003;EQDQ01  00002PRCP99
0127833390999991999060312004-14050-042620FM-12+088299999V0201401N004612200019N0200001N1+01931+01421101781ADDAA199000091GF104991041021004501001001KA1240N+01731MA1999999091951MD1999999+0001REMSYN017 333 20173 58000;EQDQ01  00002PRCP99
0108833390999991999060318004-14050-042620FM-12+088299999V0200501N004612200019N0200001N1+02561+01351101361ADDAA199000091GF102991021021004501001001MA1999999091621MD1999999-0031REMSYN011 333 59003;EQDQ01  00002PRCP99
0143833390999991999060400004-14050-042620FM-12+088299999V0201401N004612200019N9999999N1+02061+01561101601ADDAA199000091GA1001+999999999GF100991001001999999001001KA1240M+02561MA1999999091791MD1999999-0041REMSYN017 333 10256 59004;EQDQ01  00002PRCP99
0149833390999991999060412004-14050-042620FM-12+088299999V0201401N003110042019N0040001N1+01821+01641101701ADDAA199000091AY101061AY201061GF108991081051004501999999KA1240N+01731MA1999999091871MD1999999-0081MW1101REMSYN017 333 20173 59008;EQDQ01  00002PRCP99
0108833390999991999060418004-14050-042620FM-12+088299999V0200901N007212200019N0200001N1+02441+01481101331ADDAA199000091GF102991021021004501001001MA1999999091561MD1999999-0061REMSYN011 333 59006;EQDQ01  00002PRCP99
0108833390999991999060518004-14050-042620FM-12+088299999V0201401N005112200019N0200001N1+02461+01611101281ADDAA199000091GF102991021021004501001001MA1999999091531MD1999999-0031REMSYN011 333 59003;EQDQ01  00002PRCP99
0143833390999991999060600004-14050-042620FM-12+088299999V0201401N003612200019N9999999N1+01601+01501101501ADDAA199000091GA1001+999999999GF100991001001999999001001KA1240M+02501MA1999999091721MD1999999+0031REMSYN017 333 10250 58003;EQDQ01  00002PRCP99
0127833390999991999060612004-14050-042620FM-12+088299999V0201401N003610042019N0200001N1+01961+01701101701ADDAA199000091GF106991061021004501001001KA1240N+01801MA1999999091891MD1999999+0031REMSYN017 333 20180 58003;EQDQ01  00002PRCP99
0143833390999991999060700004-14050-042620FM-12+088299999V0201401N001512200019N9999999N1+02141+01461101431ADDAA199000091GA1001+999999999GF100991001001999999001001KA1240M+02651MA1999999091651MD1999999-0071REMSYN017 333 10265 59007;EQDQ01  00002PRCP99
0127833390999991999060712004-14050-042620FM-12+088299999V0201401N004610042019N0200001N1+01941+01681101671ADDAA199000091GF106991061021004501001001KA1240N+01741MA1999999091861MD1999999-0031REMSYN017 333 20174 59003;EQDQ01  00002PRCP99
0108833390999991999060718004-14050-042620FM-12+088299999V0201401N005112200019N0200001N1+02561+01441101241ADDAA199000091GF102991021021004501001001MA1999999091511MD1999999+0001REMSYN011 333 58000;EQDQ01  00002PRCP99
0143833390999991999060800004-14050-042620FM-12+088299999V0201401N006712200019N9999999N1+02221+01431101611ADDAA199000091GA1001+999999999GF100991001001999999001001KA1240M+02601MA1999999091831MD1999999+0181REMSYN017 333 10260 58018;EQDQ01  00002PRCP99
0136833390999991999060812004-14050-042620FM-12+088299999V0200901N006710450019N0010001N1+01761+01701101951ADDAA199000591AY161061AY241061GF108991041051004501021999KA1240N+01741MA1999999092111MD1999999+0251MW1501REMSYN023 333 20174 58025 69964;
0108833390999991999060900004-14050-042620FM-12+088299999V0200901N008212200019N9999999N1+02081+01581101771ADDAA199000021GF102991021021004501001001KA1240M+02301MA1999999091941MD1999999+0111REMSYN017 333 10230 58011;
0117833390999991999060918004-14050-042620FM-12+088299999V0200901N005710042019N0200001N1+02161+01631101621ADDAA199000791AY151061AY241061GF106991061021004501001001MA1999999091801MD1999999-0011MW1021REMSYN017 333 59001 69901;
0136833390999991999061000004-14050-042620FM-12+088299999V0200901N005710042019N9999999N1+01761+01681101961ADDAA199000591AY141061AY251061GF108991051051004501021999KA1240M+02221MA1999999092061MD1999999+0121MW1501REMSYN023 333 10222 58012 69951;
0130833390999991999061018004-14050-042620FM-12+088299999V0201401N005710042019N0200001N1+02001+01721101711ADDAA199000091AY141061AY241061GF106991061021004501001001MA1999999091851MD1999999+0051MW1021REMSYN011 333 58005;EQDQ01  00002PRCP99
0142833390999991999061100004-14050-042620FM-12+088299999V0201401N001510042019N9999999N1+01801+01671101961ADDAA199000591AY161061AY241061GF108991051051004501021999MA1999999999999MD1999999-0091MW1401REMSYN023 333 1026/ 59009 69945;EQDQ01 101973APOSP 
0136833390999991999061112004-14050-042620FM-12+088299999V0200901N004110450019N0010001N1+01641+01581101871ADDAA199004191AY161061AY241061GF108991041051004501021999KA1240N+01561MA1999999091981MD1999999-0191MW1401REMSYN023 333 20156 59019 60044;
0117833390999991999061118004-14050-042620FM-12+088299999V0200501N004110042019N0200001N1+02141+01701101511ADDAA199000191AY161061AY241061GF108991061021004501021999MA1999999091681MD1999999-0171MW1021REMSYN017 333 59017 69921;
0127833390999991999061200004-14050-042620FM-12+088299999V0200901N002612200019N9999999N1+01921+01661101691ADDAA199000091GF103991031021004501001001KA1240M+02181MA1999999091831MD1999999-0141REMSYN017 333 10218 59014;EQDQ01  00002PRCP99
0136833390999991999061212004-14050-042620FM-12+088299999V0200901N005110042019N0200001N1+01741+01571101941ADDAA199000191AY161061AY221061GF108991051021004501021999KA1240N+01621MA1999999092071MD1999999+0091MW1021REMSYN023 333 20162 58009 69924;
0108833390999991999061218004-14050-042620FM-12+088299999V0200901N005112200019N0200001N1+02421+01401101551ADDAA199000091GF104991041021004501001001MA1999999091751MD1999999+0071REMSYN011 333 58007;EQDQ01  00002PRCP99
0143833390999991999061300004-14050-042620FM-12+088299999V0200901N005112200019N9999999N1+02001+01441101741ADDAA199000091GA1001+999999999GF100991001001999999001001KA1240M+02441MA1999999091891MD1999999+0061REMSYN017 333 10244 58006;EQDQ01  00002PRCP99
0108833390999991999061318004-14050-042620FM-12+088299999V0200901N006712200019N0200001N1+02421+01311101491ADDAA199000091GF103991031021004501001001MA1999999091691MD1999999-0061REMSYN011 333 59006;EQDQ01  00002PRCP99
0143833390999991999061400004-14050-042620FM-12+088299999V0201401N001512200019N9999999N1+01981+01231101651ADDAA199000091GA1001+999999999GF100991001001999999001001KA1240M+02441MA1999999091821MD1999999-0071REMSYN017 333 10244 59007;EQDQ01  00002PRCP99
0127833390999991999061412004-14050-042620FM-12+088299999V0200901N004610042019N0200001N1+01781+01511101731ADDAA199000091GF106991061021004501001001KA1240N+01451MA1999999091891MD1999999-0201REMSYN017 333 20145 59020;EQDQ01  00002PRCP99
0108833390999991999061418004-14050-042620FM-12+088299999V0200901N003112200019N0200001N1+02361+01491101321ADDAA199000091GF104991011021004501001041MA1999999091541MD1999999-0141REMSYN011 333 59014;EQDQ01  00002PRCP99
0143833390999991999061500004-14050-042620FM-12+088299999V0201401N006712200019N9999999N1+02121+01311101501ADDAA199000091GA1001+999999999GF100991001001999999001001KA1240M+02371MA1999999091691MD1999999-0131REMSYN017 333 10237 59013;EQDQ01  00002PRCP99
0127833390999991999061512004-14050-042620FM-12+088299999V0201401N003110042019N0200001N1+01721+01541101731ADDAA199000091GF108991051021004501021999KA1240N+01621MA1999999091891MD1999999+0001REMSYN017 333 20162 58000;EQDQ01  00002PRCP99
0108833390999991999061518004-14050-042620FM-12+088299999V0200501N003112200019N0200001N1+02481+01491101221ADDAA199000091GF104991021021004501001011MA1999999091461MD1999999-0081REMSYN011 333 59008;EQDQ01  00002PRCP99
0143833390999991999061600004-14050-042620FM-12+088299999V0201401N005712200019N9999999N1+02041+01411101441ADDAA199000091GA1001+999999999GF100991001001999999001001KA1240M+02501MA1999999091631MD1999999-0061REMSYN017 333 10250 59006;EQDQ01  00002PRCP99
0127833390999991999061612004-14050-042620FM-12+088299999V0201401N003110450019N0200001N1+01691+01501101791ADDAA199000091GF108991041021004501021999KA1240N+01481MA1999999091941MD1999999+0051REMSYN017 333 20148 58005;EQDQ01  00002PRCP99
0124833390999991999061618004-14050-042620FM-12+088299999V0200901N002612200019N0200001N1+02441+01451101341ADDAA199000091GA1001+999999999GF100991001001999999001001MA1999999091561MD1999999+0101REMSYN011 333 58010;EQDQ01  00002PRCP99
0143833390999991999061700004-14050-042620FM-12+088299999V0201401N001012200019N9999999N1+02061+01331101501ADDAA199000091GA1001+999999999GF100991001001999999001001KA1240M+02461MA1999999091671MD1999999+0041REMSYN017 333 10246 58004;EQDQ01  00002PRCP99
0143833390999991999061712004-14050-042620FM-12+088299999V0201401N001512200019N0200001N1+02001+01541101701ADDAA199000091GA1001+999999999GF100991001001999999001001KA1240N+01421MA1999999091891MD1999999-0051REMSYN017 333 20142 59005;EQDQ01  00002PRCP99
0108833390999991999061718004-14050-042620FM-12+088299999V0200901N003112200019N0200001N1+02661+01031101281ADDAA199000091GF102991021021004501001001MA1999999091531MD1999999-0031REMSYN011 333 59003;EQDQ01  00002PRCP99
0143833390999991999061800004-14050-042620FM-12+088299999V0209999C000012200019N9999999N1+02161+01011101391ADDAA199000091GF102991999001008001031001KA1240M+02701MA1999999091631MD1999999-0041REMSYN017 333 10270 59004;EQDQ01+000002SCOTLCQ02  00002PRCP99
0127833390999991999061812004-14050-042620FM-12+088299999V0201401N003112200019N0200001N1+01951+01591999999ADDAA199000091GF102991021021004501001001KA1240N+01471MA1999999091741MD1999999-0151REMSYN017 333 20147 59015;EQDQ01  00002PRCP99
0108833390999991999061818004-14050-042620FM-12+088299999V0200901N001512200019N0200001N1+02661+01151101151ADDAA199000091GF102991021021004501001001MA1999999091431MD1999999-0101REMSYN011 333 59010;EQDQ01  00002PRCP99
0143833390999991999061900004-14050-042620FM-12+088299999V0201401N002612200019N9999999N1+02121+01181101361ADDAA199000091GA1001+999999999GF100991001001999999001001KA1240M+02661MA1999999091591MD1999999-0041REMSYN017 333 10266 59004;EQDQ01  00002PRCP99
0127833390999991999061912004-14050-042620FM-12+088299999V0201401N003110450019N0200001N1+01761+01541101571ADDAA199000091GF108991041021004501021999KA1240N+01541MA1999999091751MD1999999+0011REMSYN017 333 20154 58001;EQDQ01  00002PRCP99
0108833390999991999061918004-14050-042620FM-12+088299999V0201401N003112200019N0200001N1+02641+01171101111ADDAA199000091GF102991021021004501001001MA1999999091371MD1999999-0061REMSYN011 333 59006;EQDQ01  00002PRCP99
0175833390999991999062000004-14050-042620FM-12+088299999V0209999C000012200019N9999999N1+02081+01171101371ADDAA199000091GF102991001001999999001011KA1240M+02681MA1999999999999MD1999999-0031REMSYN017 333 10268 59003;EQDQ01+022502SCOLCBQ02+095563APOSP Q03  00002PRCP99Q04 095563APOSP 
0127833390999991999062012004-14050-042620FM-12+088299999V0201401N002612200019N0200001N1+01961+01681101561ADDAA199000091GF102991021021004501001001KA1240N+01481MA1999999091751MD1999999+0001REMSYN017 333 20148 58000;EQDQ01  00002PRCP99
0124833390999991999062018004-14050-042620FM-12+088299999V0200901N001012200019N0200001N1+02801+01151101421ADDAA199000091GF103991999021004501001001MA1999999091391MD1999999+0021REMSYN011 333 58002;EQDQ01+000012SCOTLCQ02  00002PRCP99
0143833390999991999062100004-14050-042620FM-12+088299999V0209999C000012200019N9999999N1+02171+01321101361ADDAA199000091GA1001+999999999GF100991001001999999001001KA1240M+02821MA1999999091591MD1999999+0031REMSYN017 333 10282 58003;EQDQ01  00002PRCP99
0127833390999991999062112004-14050-042620FM-12+088299999V0200901N001512200019N0200001N1+02061+01621101601ADDAA199000091GF104991041021004501001001KA1240N+01591MA1999999091821MD1999999+0071REMSYN017 333 20159 58007;EQDQ01  00002PRCP99
0108833390999991999062118004-14050-042620FM-12+088299999V0201401N001512200019N0200001N1+02841+01431101081ADDAA199000091GF102991021021004501001001MA1999999091371MD1999999-0021REMSYN011 333 59002;EQDQ01  00002PRCP99
0159833390999991999062200004-14050-042620FM-12+088299999V0209999C000012200019N9999999N1+02241+01211101321ADDAA199000091GA1001+999999999GF100991001001999999001001KA1240M+99999MA1999999091571MD1999999-0191REMSYN017 333 10028 59019;EQDQ01  00002PRCP99Q02 +00282ATMX  
0143833390999991999062212004-14050-042620FM-12+088299999V0201401N003112200019N0200001N1+02141+01721101361ADDAA199000091GA1001+999999999GF100991001001999999001001KA1240N+01621MA1999999091621MD1999999-0201REMSYN017 333 20162 59020;EQDQ01  00002PRCP99
0108833390999991999062218004-14050-042620FM-12+088299999V0201401N002112200019N0200001N1+02821+01371100941ADDAA199000091GF103991031021004501001001MA1999999091261MD1999999-0111REMSYN011 333 59011;EQDQ01  00002PRCP99
