0220825710999992005010100004-05500-045267FM-12+017499999V0201801N001012200019N0100001N1+02721+02611101031ADDAA106000091GA1001+999999999GF100991001001999999001001KA1240M+03071MA1999999099291MD1999999+0001MW1131REMSYN088AAXX  01004 82571 31997 01802 10272 20261 39929 40103 713// 333 10307 29090 55024 58000;EQDQ01  00002PRCP06
0162825710999992005010112004-05500-045267FM-12+017499999V0200501N003110042019N0100001N1+02641+02271101241ADDGF106991061051004501001001KA1240N+02391MA1999999099501MD1999999-0101REMSYN082AAXX  01124 82571 22497 60506 10264 20227 39950 40124 86500 333 20239 59010 60064;
0167825710999992005010118004-05500-045267FM-12+017499999V0203201N001012200019N0100001N1+03151+02451100891ADDAA106000091GF104991041021004501001001MA1999999099171MD1999999-0081REMSYN070AAXX  01184 82571 32497 43202 10315 20245 39917 40089 84200 333 59008;EQDQ01  00002PRCP06
0208825710999992005010200004-05500-045267FM-12+017499999V0209999C000012200019N0100001N1+02821+02701100991ADDAA106000091GA1001+999999999GF100991001001999999001001KA1240M+03251MA1999999099261MD1999999-0031REMSYN082AAXX  02004 82571 32997 00000 10282 20270 39926 40099 333 10325 29083 55075 59003;EQDQ01  00002PRCP06
0186825710999992005010212004-05500-045267FM-12+017499999V0200501N001010042019N0100001N1+02611+02291101311ADDAA106000091GF106991051051004501031001KA1240N+02391MA1999999099571MD1999999+0071REMSYN076AAXX  02124 82571 32497 60502 10261 20229 39957 40131 85530 333 20239 58007;EQDQ01  00002PRCP06
0167825710999992005010218004-05500-045267FM-12+017499999V0201801N001010042019N0100001N1+03051+02301101071ADDAA106000091GF106991051021004501001011MA1999999099341MD1999999+0171REMSYN070AAXX  02184 82571 32497 61802 10305 20230 39934 40107 85201 333 58017;EQDQ01  00002PRCP06
0188825710999992005010300004-05500-045267FM-12+017499999V0202301N001012200019N0100001N1+02721+02431101171ADDAA106000091GA1001+999999999GF100991001001999999001001KA1240M+03151MA1999999099431REMSYN076AAXX  03004 82571 32997 02302 10272 20243 39943 40117 333 10315 29031 58807;EQDQ01  00002PRCP06
0186825710999992005010312004-05500-045267FM-12+017499999V0203601N001012200019N0100001N1+02671+02371101321ADDAA106000091GF103991031021004501001001KA1240N+02341MA1999999099581MD1999999+0011REMSYN076AAXX  03124 82571 32497 33602 10267 20237 39958 40132 83200 333 20234 58001;EQDQ01  00002PRCP06
0167825710999992005010318004-05500-045267FM-12+017499999V0203601N001012200019N0100001N1+03331+02311100901ADDAA106000091GF102991021021004501001001MA1999999099191MD1999999-0151REMSYN070AAXX  03184 82571 32497 23602 10333 20231 39919 40090 82200 333 59015;EQDQ01  00002PRCP06
0208825710999992005010400004-05500-045267FM-12+017499999V0201401N001012200019N0100001N1+02851+02331101071ADDAA106000091GA1001+999999999GF100991001001999999001001KA1240M+03431MA1999999099341MD1999999-0091REMSYN082AAXX  04004 82571 32997 01402 10285 20233 39934 40107 333 10343 29071 55100 59009;EQDQ01  00002PRCP06
0186825710999992005010412004-05500-045267FM-12+017499999V0200201N001010450019N0100001N1+02591+02351101151ADDAA106000091GF106991011021004501051001KA1240N+02361MA1999999099411MD1999999-0171REMSYN076AAXX  04124 82571 32497 60202 10259 20235 39941 40115 81250 333 20236 59017;EQDQ01  00002PRCP06
0167825710999992005010418004-05500-045267FM-12+017499999V0200901N003112200019N0100001N1+03411+02231100681ADDAA106000091GF103991031021004501001001MA1999999098971MD1999999-0221REMSYN070AAXX  04184 82571 32497 30906 10341 20223 39897 40068 83200 333 59022;EQDQ01  00002PRCP06
0208825710999992005010500004-05500-045267FM-12+017499999V0209999C000012200019N0100001N1+02911+02361100861ADDAA106000091GA1001+999999999GF100991001001999999001001KA1240M+03501MA1999999099131MD1999999-0211REMSYN082AAXX  05004 82571 32997 00000 10291 20236 39913 40086 333 10350 29070 55083 59021;EQDQ01  00002PRCP06
0186825710999992005010512004-05500-045267FM-12+017499999V0200901N003112200019N0100001N1+02791+02251101121ADDAA106000091GF102991011021004501051001KA1240N+02391MA1999999099391MD1999999-0021REMSYN076AAXX  05124 82571 32497 20906 10279 20225 39939 40112 81250 333 20239 59002;EQDQ01  00002PRCP06
0167825710999992005010518004-05500-045267FM-12+017499999V0201401N003112200019N0100001N1+03441+02141100611ADDAA106000091GF103991031021004501001001MA1999999098911MD1999999-0061REMSYN070AAXX  05184 82571 32497 31406 10344 20214 39891 40061 83200 333 59006;EQDQ01  00002PRCP06
0208825710999992005010600004-05500-045267FM-12+017499999V0209999C000012200019N0100001N1+02971+02351100751ADDAA106000091GA1001+999999999GF100991001001999999001001KA1240M+03541MA1999999099041MD1999999-0091REMSYN082AAXX  06004 82571 32997 00000 10297 20235 39904 40075 333 10354 29064 55113 59009;EQDQ01  00002PRCP06
0186825710999992005010612004-05500-045267FM-12+017499999V0200901N002112200019N0100001N1+02821+02291101061ADDAA106000091GF102991001001999999001011KA1240N+02421MA1999999099341MD1999999-0051REMSYN076AAXX  06124 82571 32997 20904 10282 20229 39934 40106 80001 333 20242 59005;EQDQ01  00002PRCP06
0167825710999992005010618004-05500-045267FM-12+017499999V0201401N003112200019N0100001N1+03491+02021100561ADDAA106000091GF102991021021004501001001MA1999999098861MD1999999-0051REMSYN070AAXX  06184 82571 32497 21406 10349 20202 39886 40056 82200 333 59005;EQDQ01  00002PRCP06
0208825710999992005010700004-05500-045267FM-12+017499999V0209999C000012200019N0100001N1+02971+02231100751ADDAA106000091GA1001+999999999GF100991001001999999001001KA1240M+03551MA1999999099041MD1999999+0001REMSYN082AAXX  07004 82571 32997 00000 10297 20223 39904 40075 333 10355 29061 55114 58000;EQDQ01  00002PRCP06
0186825710999992005010712004-05500-045267FM-12+017499999V0200201N002112200019N0100001N1+02801+02341101071ADDAA106000091GF102991021011004501001001KA1240N+02301MA1999999099351MD1999999+0011REMSYN076AAXX  07124 82571 32497 20204 10280 20234 39935 40107 82100 333 20230 58001;EQDQ01  00002PRCP06
0167825710999992005010718004-05500-045267FM-12+017499999V0201601N002112200019N0100001N1+03511+02221100651ADDAA106000091GF103991031021004501001001MA1999999098951MD1999999+0091REMSYN070AAXX  07184 82571 32497 31604 10351 20222 39895 40065 83200 333 58009;EQDQ01  00002PRCP06
0208825710999992005010800004-05500-045267FM-12+017499999V0209999C000012200019N0100001N1+03031+02381100801ADDAA106000091GA1001+999999999GF100991001001999999001001KA1240M+03631MA1999999099081MD1999999+0041REMSYN082AAXX  08004 82571 32997 00000 10303 20238 39908 40080 333 10363 29065 55108 58004;EQDQ01  00002PRCP06
0186825710999992005010812004-05500-045267FM-12+017499999V0203601N001012200019N0100001N1+02771+02271101061ADDAA106000091GF101991011011004501001001KA1240N+02351MA1999999099341MD1999999-0011REMSYN076AAXX  08124 82571 32497 13602 10277 20227 39934 40106 81100 333 20235 59001;EQDQ01  00002PRCP06
0167825710999992005010818004-05500-045267FM-12+017499999V0200501N001012200019N0100001N1+03471+02041100731ADDAA106000091GF102991021021004501001001MA1999999099031MD1999999+0081REMSYN070AAXX  08184 82571 32497 20502 10347 20204 39903 40073 82200 333 58008;EQDQ01  00002PRCP06
0179825710999992005010900004-05500-045270FM-12+015399999V0203601N001012200019N0100001N1+02991+02221100751ADDAA106000091GF100991001001999999001001MA1999999099041MD1999999-0041REMSYN082AAXX  09004 82571 32997 03602 10299 20222 39904 40075 333 10362 29061 55109 59004;EQDQ01  00002PRCP06
0173825710999992005010912004-05500-045270FM-12+015399999V0200501N001010450019N0100001N1+02691+02371101241ADDAA106000091GF106991041051004501031001MA1999999099511MD1999999+0171REMSYN076AAXX  09124 82571 32497 60502 10269 20237 39951 40124 84530 333 20251 58017;EQDQ01  00002PRCP06
0155825710999992005010918004-05500-045270FM-12+015399999V0201801N001012200019N0100001N1+03281+02321100741ADDGF104991031021004501001011MA1999999099031MD1999999+0001MW1801REMSYN082AAXX  09184 82571 21497 41802 10328 20232 39903 40074 780// 83201 333 58000 69921;
0217825710999992005011000004-05500-045267FM-12+017499999V0202301N001012200019N0100001N1+02511+02291100921ADDAA106000021AY191061AY221061GA1001+999999999GF100991001001999999001001KA1240M+03431MA1999999099181MD1999999+0141MW1131REMSYN088AAXX  10004 82571 31497 02302 10251 20229 39918 40092 71392 333 10343 29078 55015 58014;
0162825710999992005011012004-05500-045267FM-12+017499999V0200501N003110450019N0100001N1+02741+02321101141ADDGF106991041021004501031001KA1240N+02301MA1999999099401MD1999999-0111REMSYN082AAXX  10124 82571 22497 60506 10274 20232 39940 40114 84230 333 20230 59011 69924;
0167825710999992005011018004-05500-045267FM-12+017499999V0200501N001010450019N0100001N1+03241+02281100811ADDAA106000091GF106991031021004501041011MA1999999099091MD1999999+0061REMSYN070AAXX  10184 82571 32497 60502 10324 20228 39909 40081 83241 333 58006;EQDQ01  00002PRCP06
0198825710999992005011100004-05500-045267FM-12+017499999V0201401N001010042019N0100001N1+02761+02281100951ADDAA106000091GF108991051041004501999999KA1240M+03371MA1999999099221MD1999999+0041REMSYN088AAXX  11004 82571 32497 81402 10276 20228 39922 40095 854// 333 10337 29071 55047 58004;EQDQ01  00002PRCP06
0186825710999992005011112004-05500-045267FM-12+017499999V0200501N001010090019N0100001N1+02741+02341101141ADDAA106000091GF106991061081004501001001KA1240N+02381MA1999999099411MD1999999+0011REMSYN076AAXX  11124 82571 32497 60502 10274 20234 39941 40114 86800 333 20238 58001;EQDQ01  00002PRCP06
0167825710999992005011118004-05500-045267FM-12+017499999V0200501N003112200019N0100001N1+03421+02261100721ADDAA106000091GF104991041021004501001001MA1999999099011MD1999999-0081REMSYN070AAXX  11184 82571 32497 40506 10342 20226 39901 40072 84200 333 59008;EQDQ01  00002PRCP06
0162825710999992005011212004-05500-045267FM-12+017499999V0200501N004119999999N0100001N1+02851+02331101131ADDGF106991041021004501999999KA1240N+02521MA1999999099401MD1999999-0011REMSYN082AAXX  12124 82571 22497 60508 10285 20233 39940 40113 842// 333 20252 59001 69914;
0167825710999992005011218004-05500-045267FM-12+017499999V0200501N002110450019N0100001N1+03251+02331100741ADDAA106000091GF107991041021004501071001MA1999999099031MD1999999+0021REMSYN070AAXX  12184 82571 32497 70504 10325 20233 39903 40074 84270 333 58002;EQDQ01  00002PRCP06
0208825710999992005011300004-05500-045267FM-12+017499999V0202301N001012200019N0100001N1+02941+02471100821ADDAA106000091GA1001+999999999GF100991001001999999001001KA1240M+03371MA1999999099101MD1999999-0081REMSYN082AAXX  13004 82571 32997 02302 10294 20247 39910 40082 333 10337 29071 55032 59008;EQDQ01  00002PRCP06
0186825710999992005011312004-05500-045267FM-12+017499999V0200501N002110042019N0100001N1+02771+02341101161ADDAA106000091GF107991061021004501031001KA1240N+02581MA1999999099431MD1999999+0031REMSYN076AAXX  13124 82571 32497 70504 10277 20234 39943 40116 86230 333 20258 58003;EQDQ01  00002PRCP06
0167825710999992005011318004-05500-045267FM-12+017499999V0201401N001010450019N0100001N1+03071+02321100791ADDAA106000091GF107991011011004501071001MA1999999099071MD1999999+0041REMSYN070AAXX  13184 82571 32497 71402 10307 20232 39907 40079 81170 333 58004;EQDQ01  00002PRCP06
0210825710999992005011400004-05500-045267FM-12+017499999V0201401N001010042019N0100001N1+02821+02441100951ADDAA106000091GF106991061021004501001001KA1240M+03151MA1999999099221MD1999999+0121MW1131REMSYN094AAXX  14004 82571 31497 61402 10282 20244 39922 40095 713// 86200 333 10315 29075 55012 58012;EQDQ01  00002PRCP06
0201825710999992005011412004-05500-045267FM-12+017499999V0200501N002119999999N0100001N1+02631+02391101101ADDAY161061GF106991999041004501031001KA1240N+02481MA1999999099361MD1999999-0071MW1011REMSYN088AAXX  14124 82571 21497 60504 10263 20239 39936 40110 7016/ 88430 333 20248 59007 69924;EQDQ01+000082SCOTLC
0167825710999992005011418004-05500-045267FM-12+017499999V0203201N001010450019N0100001N1+03261+02301100591ADDAA106000091GF106991031021004501011011MA1999999098881MD1999999-0191REMSYN070AAXX  14184 82571 32497 63202 10326 20230 39888 40059 83211 333 59019;EQDQ01  00002PRCP06
0190825710999992005011512004-05500-045267FM-12+017499999V0202301N001010042019N0100001N1+02451+02411101091ADDAY161061AY211061GF108991081051004501999999KA1240N+02401MA1999999099341MD1999999-0021MW1021REMSYN088AAXX  15124 82571 21497 82302 10245 20241 39934 40109 70261 885// 333 20240 59002 60064;
0171825710999992005011518004-05500-045267FM-12+017499999V0202701N001010042019N0100001N1+02351+02291100971ADDAY191061AY261061GF108991081051004501999999MA1999999099221MD1999999+0341MW1611REMSYN082AAXX  15184 82571 21497 82702 10235 20229 39922 40097 76196 885// 333 58034 60041;
0202825710999992005011600004-05500-045267FM-12+017499999V0202301N001010042019N0100001N1+02351+02291101071ADDAY161061AY261061GF108991081051004501999999KA1240M+02671MA1999999099311MD1999999+0131MW1511REMSYN100AAXX  16004 82571 21497 82302 10235 20229 39931 40107 75166 885// 333 10267 29096 55002 58013 60091;
0182825710999992005011612004-05500-045267FM-12+017499999V0201401N001010042019N0100001N1+02381+02311101111ADDAY161061GF107991051051004501031001KA1240N+02361MA1999999099351MD1999999+0011MW1021REMSYN088AAXX  16124 82571 21497 71402 10238 20231 39935 40111 7026/ 85530 333 20236 58001 60134;
0167825710999992005011618004-05500-045267FM-12+017499999V0200501N001010450019N0100001N1+02971+02371100621ADDAA106000091GF106991031031004501041011MA1999999098891MD1999999-0331REMSYN070AAXX  16184 82571 32497 60502 10297 20237 39889 40062 83341 333 59033;EQDQ01  00002PRCP06
0189825710999992005011700004-05500-045270FM-12+015399999V0201401N001010150019N0100001N1+02441+02321100831ADDAY161061AY221061GF105991051001017501071001MA1999999099081MD1999999-0231MW1021REMSYN100AAXX  17004 82571 21797 51402 10244 20232 39908 40083 70262 85070 333 10307 29088 55017 59023 60011;
0169825710999992005011712004-05500-045270FM-12+015399999V0200501N001010042019N0100001N1+02411+02331101081ADDAY161061GF108991081051004501999999MA1999999099321MD1999999-0031MW1021REMSYN088AAXX  17124 82571 21497 80502 10241 20233 39932 40108 7026/ 885// 333 20232 59003 60034;
0171825710999992005011718004-05500-045270FM-12+015399999V0201401N001010042019N0100001N1+02531+02401100751ADDAY161061AY221061GF106991061051004501001001MA1999999099001MD1999999+0111MW1611REMSYN082AAXX  17184 82571 21497 61402 10253 20240 39900 40075 76162 86500 333 58011 60021;
0179825710999992005011800004-05500-045267FM-12+017499999V0200901N001010150019N0100001N1+02481+02341100951ADDAA106000021GF105991051001017501071001KA1240M+03051MA1999999099201MD1999999+0121REMSYN088AAXX  18004 82571 32797 50902 10248 20234 39920 40095 85070 333 10305 29093 55014 58012;
0162825710999992005011812004-05500-045267FM-12+017499999V0203201N001010450019N0100001N1+02521+02341100891ADDGF106991021021004501041001KA1240N+02321MA1999999099141MD1999999-0181REMSYN082AAXX  18124 82571 22497 63202 10252 20234 39914 40089 82240 333 20232 59018 60024;
0167825710999992005011818004-05500-045267FM-12+017499999V0200901N001012200019N0100001N1+03141+02271100621ADDAA106000091GF103991021021004501001011MA1999999098901MD1999999-0101REMSYN070AAXX  18184 82571 32497 30902 10314 20227 39890 40062 82201 333 59010;EQDQ01  00002PRCP06
0210825710999992005011900004-05500-045267FM-12+017499999V0202701N001010042019N0100001N1+02631+02461100951ADDAA106000091GF105991051071004501001001KA1240M+03271MA1999999099211MD1999999+0071MW1131REMSYN094AAXX  19004 82571 31497 52702 10263 20246 39921 40095 713// 85700 333 10327 29082 55040 58007;EQDQ01  00002PRCP06
0186825710999992005011912004-05500-045267FM-12+017499999V0200501N001010042019N0100001N1+02431+02231101151ADDAA106000091GF107991061021004501031001KA1240N+02281MA1999999099401MD1999999+0261REMSYN076AAXX  19124 82571 32497 70502 10243 20223 39940 40115 86230 333 20228 58026;EQDQ01  00002PRCP06
0167825710999992005011918004-05500-045267FM-12+017499999V0203201N001010450019N0100001N1+03041+02381100721ADDAA106000091GF107991021011004501071011MA1999999098991MD1999999-0091REMSYN070AAXX  19184 82571 32497 73202 10304 20238 39899 40072 82171 333 59009;EQDQ01  00002PRCP06
0198825710999992005012000004-05500-045267FM-12+017499999V0209999C000012200019N0100001N1+02731+02541100951ADDAA106000091GF102991021001017501031001KA1240M+03101MA1999999099211MD1999999+0001REMSYN088AAXX  20004 82571 32797 20000 10273 20254 39921 40095 82030 333 10310 29084 55001 58000;EQDQ01  00002PRCP06
0186825710999992005012012004-05500-045267FM-12+017499999V0201101N001010450019N0100001N1+02691+02411101191ADDAA106000091GF106991031021004501041001KA1240N+02361MA1999999099451MD1999999+0051REMSYN076AAXX  20124 82571 32497 61102 10269 20241 39945 40119 83240 333 20236 58005;EQDQ01  00002PRCP06
0167825710999992005012018004-05500-045267FM-12+017499999V0200201N002110450019N0100001N1+03151+02391100751ADDAA106000091GF106991041021004501031001MA1999999099031MD1999999+0041REMSYN070AAXX  20184 82571 32497 60204 10315 20239 39903 40075 84230 333 58004;EQDQ01  00002PRCP06
0198825710999992005012100004-05500-045267FM-12+017499999V0209999C000012200019N0100001N1+02421+02261101011ADDAA106000091GF102991021001017501041001KA1240M+03201MA1999999099261MD1999999+0051REMSYN088AAXX  21004 82571 32797 20000 10242 20226 39926 40101 82040 333 10320 29082 55043 58005;EQDQ01  00002PRCP06
0186825710999992005012112004-05500-045267FM-12+017499999V0200501N002110450019N0100001N1+02671+02331101241ADDAA106000091GF106991011021004501051001KA1240N+02241MA1999999099491MD1999999+0041REMSYN076AAXX  21124 82571 32497 60504 10267 20233 39949 40124 81250 333 20224 58004;EQDQ01  00002PRCP06
0167825710999992005012118004-05500-045267FM-12+017499999V0200501N003110450019N0100001N1+03361+02171100891ADDAA106000091GF105991031021004501031001MA1999999099171MD1999999+0141REMSYN070AAXX  21184 82571 32497 50506 10336 20217 39917 40089 83230 333 58014;EQDQ01  00002PRCP06
0198825710999992005012200004-05500-045267FM-12+017499999V0200501N001012200019N0100001N1+02931+02361101021ADDAA106000091GF102991021001017501031001KA1240M+03451MA1999999099291MD1999999+0031REMSYN088AAXX  22004 82571 32797 20502 10293 20236 39929 40102 82030 333 10345 29068 55085 58003;EQDQ01  00002PRCP06
0186825710999992005012212004-05500-045267FM-12+017499999V0202701N001012200019N0100001N1+02751+02361101261ADDAA106000091GF102991021001017501031001KA1240N+02421MA1999999099531MD1999999+0041REMSYN076AAXX  22124 82571 32797 22702 10275 20236 39953 40126 82030 333 20242 58004;EQDQ01  00002PRCP06
0167825710999992005012218004-05500-045267FM-12+017499999V0203601N001012200019N0100001N1+03421+02361100691ADDAA106000091GF103991031041004501001001MA1999999098991MD1999999-0181REMSYN070AAXX  22184 82571 32497 33602 10342 20236 39899 40069 83400 333 59018;EQDQ01  00002PRCP06
0189825710999992005012300004-05500-045270FM-12+015399999V0201401N001010042019N0100001N1+02331+02261101341ADDAY191061AY261061GF108991081051004501999999MA1999999099591MD1999999+0301MW1911REMSYN100AAXX  23004 82571 21497 81402 10233 20226 39959 40134 79196 885// 333 10299 29081 55071 58030 60311;
0169825710999992005012312004-05500-045270FM-12+015399999V0202301N001010042019N0100001N1+02351+02291101461ADDAY161061GF108991081051004501999999MA1999999099691MD1999999+0161MW1621REMSYN088AAXX  23124 82571 21497 82302 10235 20229 39969 40146 7626/ 885// 333 20227 58016 60324;
0148825710999992005012318004-05500-045270FM-12+015399999V0202301N001010042019N0100001N1+02821+02401101071ADDAA106000021GF107991071051004501001001MA1999999099321MD1999999+0331REMSYN070AAXX  23184 82571 32497 72302 10282 20240 39932 40107 87500 333 58033;
0173825710999992005012412004-05500-045270FM-12+015399999V0203201N001012200019N0100001N1+02671+02371101241ADDAA106000091GF103991011011004501031011MA1999999099491MD1999999-0201REMSYN076AAXX  24124 82571 32497 33202 10267 20237 39949 40124 81131 333 20232 59020;EQDQ01  00002PRCP06
0167825710999992005012418004-05500-045270FM-12+015399999V0203601N001012200019N0100001N1+03331+02281101811ADDAA106000091GF103991031021004501001001MA1999999099091MD1999999-0231REMSYN070AAXX  24184 82571 32497 33602 10333 20228 39909 40181 83200 333 59023;EQDQ01  00002PRCP06
0210825710999992005012500004-05500-045267FM-12+017499999V0202701N001010150019N0100001N1+02791+02361101001ADDAA106000091GF106991061001017501041001KA1240M+03501MA1999999099271MD1999999-0141MW1131REMSYN094AAXX  25004 82571 31797 62702 10279 20236 39927 40100 713// 86040 333 10350 29073 55106 59014;EQDQ01  00002PRCP06
0190825710999992005012512004-05500-045267FM-12+017499999V0202501N001010042019N0100001N1+02471+02411101221ADDAY191061AY261061GF108991081051004501999999KA1240N+02421MA1999999099481MD1999999-0011MW1621REMSYN088AAXX  25124 82571 21497 82502 10247 20241 39948 40122 76296 885// 333 20242 59001 60124;
0171825710999992005012518004-05500-045267FM-12+017499999V0201601N001010042019N0100001N1+02541+02451100981ADDAY191061AY261061GF108991081051004501999999MA1999999099241MD1999999+0151MW1021REMSYN082AAXX  25184 82571 21497 81602 10254 20245 39924 40098 70296 885// 333 58015 69911;
0202825710999992005012600004-05500-045267FM-12+017499999V0200701N001010042019N0100001N1+02521+02451101261ADDAY161061AY221061GF108991081051004501999999KA1240M+02811MA1999999099511MD1999999+0241MW1021REMSYN100AAXX  26004 82571 21497 80702 10252 20245 39951 40126 70262 885// 333 10281 29096 55000 58024 69911;
0162825710999992005012612004-05500-045267FM-12+017499999V0200901N001010450019N0100001N1+02531+02361101321ADDGF107991041021004501041001KA1240N+02371MA1999999099571MD1999999+0091REMSYN082AAXX  26124 82571 22497 70902 10253 20236 39957 40132 84240 333 20237 58009 69924;
0167825710999992005012618004-05500-045267FM-12+017499999V0200201N001010450019N0100001N1+03081+02291100881ADDAA106000091GF105991031021004501041011MA1999999099151MD1999999-0091REMSYN070AAXX  26184 82571 32497 50202 10308 20229 39915 40088 83241 333 59009;EQDQ01  00002PRCP06
0198825710999992005012700004-05500-045267FM-12+017499999V0201401N001012200019N0100001N1+02721+02391101121ADDAA106000091GF103991031001017501031001KA1240M+03181MA1999999099381MD1999999-0131REMSYN088AAXX  27004 82571 32797 31402 10272 20239 39938 40112 83030 333 10318 29079 55067 59013;EQDQ01  00002PRCP06
0186825710999992005012712004-05500-045267FM-12+017499999V0200501N001010450019N0100001N1+02601+02351101291ADDAA106000091GF106991011011004501031001KA1240N+02371MA1999999099551MD1999999-0021REMSYN076AAXX  27124 82571 32497 60502 10260 20235 39955 40129 81130 333 20237 59002;EQDQ01  00002PRCP06
0167825710999992005012718004-05500-045267FM-12+017499999V0203201N001010450019N0100001N1+03231+02391100811ADDAA106000091GF105991031021004501041011MA1999999099091MD1999999-0061REMSYN070AAXX  27184 82571 32497 53202 10323 20239 39909 40081 83241 333 59006;EQDQ01  00002PRCP06
0198825710999992005012800004-05500-045267FM-12+017499999V0202701N001012200019N0100001N1+02801+02441100991ADDAA106000091GF103991031001017501041001KA1240M+03371MA1999999099261MD1999999-0121REMSYN088AAXX  28004 82571 32797 32702 10280 20244 39926 40099 83040 333 10337 29077 55074 59012;EQDQ01  00002PRCP06
0186825710999992005012812004-05500-045267FM-12+017499999V0200201N002110450019N0100001N1+02661+02411101211ADDAA106000091GF107991041051004501011001KA1240N+02501MA1999999099481MD1999999-0071REMSYN076AAXX  28124 82571 32497 70204 10266 20241 39948 40121 84510 333 20250 59007;EQDQ01  00002PRCP06
0167825710999992005012818004-05500-045267FM-12+017499999V0201101N002110450019N0100001N1+03161+02391100721ADDAA106000091GF105991031021004501011011MA1999999099011MD1999999-0081REMSYN070AAXX  28184 82571 32497 51104 10316 20239 39901 40072 83211 333 59008;EQDQ01  00002PRCP06
0208825710999992005012900004-05500-045267FM-12+017499999V0209999C000012200019N0100001N1+02771+02501100771ADDAA106000091GA1001+999999999GF100991001001999999001001KA1240M+03251MA1999999099041MD1999999-0221REMSYN082AAXX  29004 82571 32997 00000 10277 20250 39904 40077 333 10325 29080 55049 59022;EQDQ01  00002PRCP06
0182825710999992005012912004-05500-045267FM-12+017499999V0201601N001010042019N0100001N1+02451+02411101041ADDAY161061GF108991081051004501999999KA1240N+02441MA1999999099301MD1999999-0181MW1021REMSYN088AAXX  29124 82571 21497 81602 10245 20241 39930 40104 7026/ 885// 333 20244 59018 60034;
0171825710999992005012918004-05500-045267FM-12+017499999V0200501N001010450019N0100001N1+02871+02501100721ADDAY161061AY211061GF106991031021004501031011MA1999999098991MD1999999-0021MW1021REMSYN082AAXX  29184 82571 21497 60502 10287 20250 39899 40072 70261 83231 333 59002 60221;
0189825710999992005013000004-05500-045270FM-12+015399999V0209999C000010042019N0100001N1+02571+02401100771ADDAY161061AY211061GF108991081071004501999999MA1999999099031MD1999999-0011MW1021REMSYN100AAXX  30004 82571 21497 80000 10257 20240 39903 40077 70261 887// 333 10307 29089 55022 59001 60041;
0149825710999992005013012004-05500-045270FM-12+015399999V0201801N001010042019N0100001N1+02541+02451100971ADDGF107991071051004501001001MA1999999099231MD1999999-0071REMSYN082AAXX  30124 82571 22497 71802 10254 20245 39923 40097 87500 333 20239 59007 60264;
0167825710999992005013018004-05500-045270FM-12+015399999V0200501N003110042019N0100001N1+03031+02481100591ADDAA106000091GF108991081051004501999999MA1999999098871MD1999999-0121REMSYN070AAXX  30184 82571 32497 80506 10303 20248 39887 40059 885// 333 59012;EQDQ01  00002PRCP06
0208825710999992005013100004-05500-045267FM-12+017499999V0200501N003112200019N0100001N1+02731+02451100741ADDAA106000091GA1001+999999999GF100991001001999999001001KA1240M+03131MA1999999099011MD1999999-0021REMSYN082AAXX  31004 82571 32997 00506 10273 20245 39901 40074 333 10313 29084 55041 59002;EQDQ01  00002PRCP06
0201825710999992005013112004-05500-045267FM-12+017499999V0200501N001010042019N0100001N1+02591+02371101021ADDAY161061GF107991051051004501031001KA1240N+02401MA1999999999999MD1999999+0051MW1011REMSYN088AAXX  31124 82571 21497 70502 10259 20237 39092 40102 7016/ 85530 333 20240 58005 69914;EQDQ01 090923APOSP 
0183825710999992005013118004-05500-045267FM-12+017499999V0200901N001010450019N0100001N1+03031+02431100741ADDAA106000091GF106991041051004501031001MA1999999099022MD1999999+0151REMSYN070AAXX  31184 82571 32497 60902 10303 20243 39902 40074 84530 333 58015;EQDQ01+099023APOSP Q02  00002PRCP06
0208825710999992005020100004-05500-045267FM-12+017499999V0202301N001012200019N0100001N1+02691+02461100811ADDAA106000091GA1001+999999999GF100991001001999999001001KA1240M+03111MA1999999099081MD1999999-0071REMSYN082AAXX  01004 82571 32997 02302 10269 20246 39908 40081 333 10311 29083 55022 59007;EQDQ01  00002PRCP06
0186825710999992005020112004-05500-045267FM-12+017499999V0200701N002112200019N0100001N1+02641+02411100941ADDAA106000091GF104991031021004501031001KA1240N+02371MA1999999099201MD1999999-0081REMSYN076AAXX  01124 82571 32497 40704 10264 20241 39920 40094 83230 333 20237 59008;EQDQ01  00002PRCP06
0167825710999992005020118004-05500-045267FM-12+017499999V0203201N001010450019N0100001N1+03061+02501100591ADDAA106000091GF106991031021004501071001MA1999999098871MD1999999-0151REMSYN070AAXX  01184 82571 32497 63202 10306 20250 39887 40059 83270 333 59015;EQDQ01  00002PRCP06
0186825710999992005020212004-05500-045267FM-12+017499999V0203601N001012200019N0100001N1+02781+02321100921ADDAA106000091GF103991011011004501031001KA1240N+02481MA1999999099191MD1999999-0011REMSYN076AAXX  02124 82571 32497 33602 10278 20232 39919 40092 81130 333 20248 59001;EQDQ01  00002PRCP06
0167825710999992005020218004-05500-045267FM-12+017499999V0200501N001010090019N0100001N1+03171+02391100531ADDAA106000091GF105991051081004501001001MA1999999098821MD1999999-0051REMSYN070AAXX  02184 82571 32497 50502 10317 20239 39882 40053 85800 333 59005;EQDQ01  00002PRCP06
0198825710999992005020300004-05500-045267FM-12+017499999V0201401N001012200019N0100001N1+02901+02391100721ADDAA106000091GF103991031001017501031001KA1240M+03301MA1999999099001MD1999999+0001REMSYN088AAXX  03004 82571 32797 31402 10290 20239 39900 40072 83030 333 10330 29072 55081 58000;EQDQ01  00002PRCP06
0190825710999992005020312004-05500-045267FM-12+017499999V0200501N001010450019N0040001N1+02291+02251101061ADDAY191061AY261061GF108991041071004501021999KA1240N+02291MA1999999099321MD1999999+0131MW1911REMSYN088AAXX  03124 82571 21496 80502 10229 20225 39932 40106 79196 8472/ 333 20229 58013 60044;
0171825710999992005020318004-05500-045267FM-12+017499999V0202301N001010450019N0100001N1+02941+02561100751ADDAY161061AY221061GF106991031021004501041011MA1999999099021MD1999999+0201MW1011REMSYN082AAXX  03184 82571 21497 62302 10294 20256 39902 40075 70162 83241 333 58020 69961;
0210825710999992005020400004-05500-045267FM-12+017499999V0202701N001012200019N0100001N1+02731+02561100991ADDAA106000091GF104991021041004501011001KA1240M+03121MA1999999099241MD1999999+0241MW1131REMSYN094AAXX  04004 82571 31497 42702 10273 20256 39924 40099 713// 82410 333 10312 29089 55020 58024;EQDQ01  00002PRCP06
0174825710999992005020412004-05500-045267FM-12+017499999V0200501N001010450019N0020001N1+02271+02251101311ADDGF108991031071004501021999KA1240N+02261MA1999999099561MD1999999+0241MW1951REMSYN088AAXX  04124 82571 21495 80502 10227 20225 39956 40131 795// 8372/ 333 20226 58024 60274;
0171825710999992005020418004-05500-045267FM-12+017499999V0203201N001010042019N0100001N1+02461+02361100981ADDAY161061AY221061GF107991061051004501041001MA1999999099231MD1999999+0211MW1021REMSYN082AAXX  04184 82571 21497 73202 10246 20236 39923 40098 70262 86540 333 58021 60081;
0194825710999992005020500004-05500-045267FM-12+017499999V0202301N001010042019N0100001N1+02431+02371101271ADDAY161061GF108991081051004501999999KA1240M+02741MA1999999099511MD1999999+0271MW1021REMSYN100AAXX  05004 82571 21497 82302 10243 20237 39951 40127 7026/ 885// 333 10274 29096 55000 58027 69921;
0182825710999992005020512004-05500-045267FM-12+017499999V0202301N001010450019N0100001N1+02541+02361101391ADDAY161061GF106991041051004501031001KA1240N+02241MA1999999099641MD1999999+0081MW1021REMSYN088AAXX  05124 82571 21497 62302 10254 20236 39964 40139 7026/ 84530 333 20224 58008 60094;
0167825710999992005020518004-05500-045267FM-12+017499999V0201801N001012200019N0100001N1+03221+02341101021ADDAA106000091GF103991021021004501031001MA1999999099291MD1999999+0061REMSYN070AAXX  05184 82571 32497 31802 10322 20234 39929 40102 82230 333 58006;EQDQ01  00002PRCP06
0183825710999992005020600004-05500-045270FM-12+015399999V0202301N001012200019N0100001N1+02411+02301101181ADDAY191061AY261061GF100991001001999999001001MA1999999099431MD1999999-0081MW1001REMSYN094AAXX  06004 82571 21997 02302 10241 20230 39943 40118 70096 333 10330 29084 55077 59008 60101;
0149825710999992005020612004-05500-045270FM-12+015399999V0200501N001012200019N0100001N1+02571+02371101261ADDGF102991011021004501031001MA1999999099511MD1999999-0131REMSYN082AAXX  06124 82571 22497 20502 10257 20237 39951 40126 81230 333 20223 59013 60104;
0167825710999992005020618004-05500-045270FM-12+015399999V0201801N001012200019N0100001N1+03191+02461100831ADDAA106000091GF103991031021004501001001MA1999999099101MD1999999-0191REMSYN070AAXX  06184 82571 32497 31802 10319 20246 39910 40083 83200 333 59019;EQDQ01  00002PRCP06
0212825710999992005020700004-05500-045267FM-12+017499999V0209999C000012200019N0100001N1+02631+02371100951ADDAY191061AY261061GA1001+999999999GF100991001001999999001001KA1240M+03271MA1999999099211MD1999999-0221MW1001REMSYN094AAXX  07004 82571 21997 00000 10263 20237 39921 40095 70096 333 10327 29081 55084 59022 69951;
0162825710999992005020712004-05500-045267FM-12+017499999V0200501N001010042019N0100001N1+02571+02401101091ADDGF108991081051004501999999KA1240N+02341MA1999999099351MD1999999-0161REMSYN082AAXX  07124 82571 22497 80502 10257 20240 39935 40109 885// 333 20234 59016 60054;
0163825710999992005020718004-05500-045267FM-12+017499999V0201401N001012200019N0100001N1+03081+02441100751ADDAY161061GF102991021021004501001001MA1999999099031MD1999999-0071MW1021REMSYN082AAXX  07184 82571 21497 21402 10308 20244 39903 40075 7026/ 82200 333 59007 60011;
0208825710999992005020800004-05500-045267FM-12+017499999V0209999C000012200019N0100001N1+02791+02421100851ADDAA106000091GA1001+999999999GF100991001001999999001001KA1240M+03231MA1999999099121MD1999999-0091REMSYN082AAXX  08004 82571 32997 00000 10279 20242 39912 40085 333 10323 29080 55063 59009;EQDQ01  00002PRCP06
0162825710999992005020812004-05500-045267FM-12+017499999V0200501N001010450019N0100001N1+02651+02391101051ADDGF106991031021004501031001KA1240N+02341MA1999999099321MD1999999-0031REMSYN082AAXX  08124 82571 22497 60502 10265 20239 39932 40105 83230 333 20234 59003 60014;
0171825710999992005020818004-05500-045267FM-12+017499999V0203601N003110450019N0100001N1+02691+02501100881ADDAY161061AY211061GF106991041051004501031001MA1999999099141MD1999999+0111MW1021REMSYN082AAXX  08184 82571 21497 63606 10269 20250 39914 40088 70261 84530 333 58011 69971;
0220825710999992005020900004-05500-045267FM-12+017499999V0200901N001012200019N0100001N1+02541+02451100961ADDAA106000091GA1001+999999999GF100991001001999999001001KA1240M+02961MA1999999099221MD1999999+0101MW1131REMSYN088AAXX  09004 82571 31997 00902 10254 20245 39922 40096 713// 333 10296 29091 55027 58010;EQDQ01  00002PRCP06
0162825710999992005020912004-05500-045267FM-12+017499999V0203601N001010042019N0100001N1+02521+02381101131ADDGF108991081051004501999999KA1240N+02351MA1999999099381MD1999999+0061REMSYN082AAXX  09124 82571 22497 83602 10252 20238 39938 40113 885// 333 20235 58006 69974;
0167825710999992005020918004-05500-045267FM-12+017499999V0201401N001010450019N0100001N1+02871+02601100821ADDAA106000091GF106991031021004501031011MA1999999099091MD1999999-0051REMSYN070AAXX  09184 82571 32497 61402 10287 20260 39909 40082 83231 333 59005;EQDQ01  00002PRCP06
0208825710999992005021000004-05500-045267FM-12+017499999V0202301N001012200019N0100001N1+02551+02381100901ADDAA106000091GA1001+999999999GF100991001001999999001001KA1240M+03011MA1999999099161MD1999999-0061REMSYN082AAXX  10004 82571 32997 02302 10255 20238 39916 40090 333 10301 29089 55033 59006;EQDQ01  00002PRCP06
0186825710999992005021012004-05500-045267FM-12+017499999V0203201N001012200019N0100001N1+02661+02461100991ADDAA106000091GF103991021021004501001011KA1240N+02301MA1999999099251MD1999999-0131REMSYN076AAXX  10124 82571 32497 33202 10266 20246 39925 40099 82201 333 20230 59013;EQDQ01  00002PRCP06
0167825710999992005021018004-05500-045267FM-12+017499999V0200501N002110450019N0100001N1+03191+02301100621ADDAA106000091GF106991031021004501011011MA1999999098901MD1999999-0191REMSYN070AAXX  10184 82571 32497 60504 10319 20230 39890 40062 83211 333 59019;EQDQ01  00002PRCP06
0198825710999992005021100004-05500-045267FM-12+017499999V0201401N001012200019N0100001N1+02741+02401100851ADDAA106000091GF102991021011004501001001KA1240M+03261MA1999999099121MD1999999-0041REMSYN088AAXX  11004 82571 32497 21402 10274 20240 39912 40085 82100 333 10326 29078 55095 59004;EQDQ01  00002PRCP06
0186825710999992005021112004-05500-045267FM-12+017499999V0200201N002112200019N0100001N1+02721+02371101051ADDAA106000091GF103991021021004501031001KA1240N+02481MA1999999099321MD1999999+0071REMSYN076AAXX  11124 82571 32497 30204 10272 20237 39932 40105 82230 333 20248 58007;EQDQ01  00002PRCP06
0167825710999992005021118004-05500-045267FM-12+017499999V0200501N003112200019N0100001N1+03221+02371100651ADDAA106000091GF103991021021004501001011MA1999999098941MD1999999-0041REMSYN070AAXX  11184 82571 32497 30506 10322 20237 39894 40065 82201 333 59004;EQDQ01  00002PRCP06
0198825710999992005021200004-05500-045267FM-12+017499999V0209999C000012200019N0100001N1+02871+02561100921ADDAA106000091GF102991021001017501041001KA1240M+03301MA1999999099191MD1999999+0071REMSYN088AAXX  12004 82571 32797 20000 10287 20256 39919 40092 82040 333 10330 29077 55083 58007;EQDQ01  00002PRCP06
0190825710999992005021212004-05500-045267FM-12+017499999V0201801N001010042019N0040001N1+02481+02451101171ADDAY191061AY261061GF108991081051004501999999KA1240N+02321MA1999999099431MD1999999+0111MW1611REMSYN088AAXX  12124 82571 21496 81802 10248 20245 39943 40117 76196 885// 333 20232 58011 60714;
0148825710999992005021218004-05500-045267FM-12+017499999V0200501N003110450019N0100001N1+02891+02411100821ADDAA106000021GF106991031021004501031001MA1999999099091MD1999999+0151REMSYN070AAXX  12184 82571 32497 60506 10289 20241 39909 40082 83230 333 58015;
0185825710999992005021300004-05500-045270FM-12+015399999V0202301N001012200019N0100001N1+02501+02401101101ADDAA106000091GF101991011011004501001001MA1999999099351MD1999999+0161REMSYN088AAXX  13004 82571 32497 12302 10250 20240 39935 40110 81100 333 10298 29090 55016 58016;EQDQ01  00002PRCP06
0169825710999992005021312004-05500-045270FM-12+015399999V0203201N001010042019N0100001N1+02451+02321101291ADDAY161061GF108991081051004501999999MA1999999099541MD1999999+0111MW1021REMSYN088AAXX  13124 82571 21497 83202 10245 20232 39954 40129 7026/ 885// 333 20234 58011 69944;
0171825710999992005021318004-05500-045270FM-12+015399999V0200501N001012200019N0100001N1+02971+02371100851ADDAY161061AY201061GF103991021021004501031001MA1999999099121MD1999999+0031MW1011REMSYN082AAXX  13184 82571 21497 30502 10297 20237 39912 40085 70160 82230 333 58003 69911;
0208825710999992005021400004-05500-045267FM-12+017499999V0209999C000012200019N0100001N1+02751+02501101031ADDAA106000091GA1001+999999999GF100991001001999999001001KA1240M+03101MA1999999099291MD1999999-0061REMSYN082AAXX  14004 82571 32997 00000 10275 20250 39929 40103 333 10310 29084 55058 59006;EQDQ01  00002PRCP06
0162825710999992005021412004-05500-045267FM-12+017499999V0202701N001010042019N0100001N1+02541+02381101201ADDGF107991051051004501041001KA1240N+02371MA1999999099461MD1999999-0081REMSYN082AAXX  14124 82571 22497 72702 10254 20238 39946 40120 85540 333 20237 59008 69914;
0171825710999992005021418004-05500-045267FM-12+017499999V0203201N001010090019N0100001N1+02591+02441100811ADDAY161061AY221061GF107991051081004501041001MA1999999099071MD1999999-0051MW1021REMSYN082AAXX  14184 82571 21497 73202 10259 20244 39907 40081 70262 85840 333 59005 60041;
0198825710999992005021500004-05500-045267FM-12+017499999V0202301N001012200019N0100001N1+02431+02371101011ADDAA106000091GF104991011021004501041001KA1240M+02911MA1999999099261MD1999999-0031REMSYN088AAXX  15004 82571 32497 42302 10243 20237 39926 40101 81240 333 10291 29094 55008 59003;EQDQ01  00002PRCP06
0162825710999992005021512004-05500-045267FM-12+017499999V0200501N001010042019N0100001N1+02531+02441101081ADDGF107991071051004501001001KA1240N+02391MA1999999099331MD1999999-0131REMSYN082AAXX  15124 82571 22497 70502 10253 20244 39933 40108 87500 333 20239 59013 60044;
0167825710999992005021518004-05500-045267FM-12+017499999V0200501N001010450019N0100001N1+03081+02351100541ADDAA106000091GF105991031051004501041011MA1999999098821MD1999999-0251REMSYN070AAXX  15184 82571 32497 50502 10308 20235 39882 40054 83541 333 59025;EQDQ01  00002PRCP06
0202825710999992005021600004-05500-045267FM-12+017499999V0200501N001010450019N0020001N1+02441+02351100971ADDAY191061AY261061GF108991031071004501021999KA1240M+03121MA1999999099221MD1999999-0041MW1631REMSYN100AAXX  16004 82571 21495 80502 10244 20235 39922 40097 76396 8372/ 333 10312 29087 55033 59004 60081;
0182825710999992005021612004-05500-045267FM-12+017499999V0203601N001010042019N0100001N1+02481+02391101021ADDAY161061GF107991061051004501051001KA1240N+02351MA1999999099271MD1999999-0061MW1021REMSYN088AAXX  16124 82571 21497 73602 10248 20239 39927 40102 7026/ 86550 333 20235 59006 60114;
0167825710999992005021618004-05500-045267FM-12+017499999V0200501N001010450019N0100001N1+03041+02381100571ADDAA106000091GF105991031021004501041011MA1999999098841MD1999999+0021REMSYN070AAXX  16184 82571 32497 50502 10304 20238 39884 40057 83241 333 58002;EQDQ01  00002PRCP06
0202825710999992005021700004-05500-045267FM-12+017499999V0209999C000010042019N0100001N1+02501+02431100931ADDAY191061AY261061GF108991081051004501999999KA1240M+03101MA1999999099181MD1999999-0041MW1131REMSYN100AAXX  17004 82571 21497 80000 10250 20243 39918 40093 71396 885// 333 10310 29089 55041 59004 60281;
0182825710999992005021712004-05500-045267FM-12+017499999V0202301N001010450019N0100001N1+02461+02321101191ADDAY161061GF106991041051004501031001KA1240N+02281MA1999999099441MD1999999+0171MW1031REMSYN088AAXX  17124 82571 21497 62302 10246 20232 39944 40119 7036/ 84530 333 20228 58017 60414;
0171825710999992005021718004-05500-045267FM-12+017499999V0202301N001010450019N0100001N1+02921+02541100771ADDAY161061AY221061GF105991031021004501041011MA1999999099041MD1999999+0201MW1011REMSYN082AAXX  17184 82571 21497 52302 10292 20254 39904 40077 70162 83241 333 58020 60061;
0210825710999992005021800004-05500-045267FM-12+017499999V0202501N001010150019N0100001N1+02601+02441101091ADDAA106000091GF106991061001017501071001KA1240M+03051MA1999999099341MD1999999+0161MW1131REMSYN094AAXX  18004 82571 31797 62502 10260 20244 39934 40109 713// 86070 333 10305 29088 55023 58016;EQDQ01  00002PRCP06
0182825710999992005021812004-05500-045267FM-12+017499999V0202701N001010042019N0100001N1+02251+02231101361ADDAY161061GF108991081051004501999999KA1240N+02221MA1999999099601MD1999999+0161MW1021REMSYN088AAXX  18124 82571 21497 82702 10225 20223 39960 40136 7026/ 885// 333 20222 58016 60094;
0167825710999992005021818004-05500-045267FM-12+017499999V0203201N001010042019N0100001N1+02941+02521100951ADDAA106000091GF106991051021004501041001MA1999999099221MD1999999+0181REMSYN070AAXX  18184 82571 32497 63202 10294 20252 39922 40095 85240 333 58018;EQDQ01  00002PRCP06
0198825710999992005021900004-05500-045267FM-12+017499999V0201801N001010150019N0100001N1+02651+02541101131ADDAA106000091GF106991061001017501031001KA1240M+02981MA1999999099381MD1999999+0041REMSYN088AAXX  19004 82571 32797 61802 10265 20254 39938 40113 86030 333 10298 29090 55022 58004;EQDQ01  00002PRCP06
0186825710999992005021912004-05500-045267FM-12+017499999V0202301N001010450019N0100001N1+02791+02521101061ADDAA106000091GF105991041021004501031001KA1240N+02271MA1999999099331MD1999999-0271REMSYN076AAXX  19124 82571 32497 52302 10279 20252 39933 40106 84230 333 20227 59027;EQDQ01  00002PRCP06
0167825710999992005021918004-05500-045267FM-12+017499999V0200501N001010450019N0100001N1+03271+02151100791ADDAA106000091GF106991041021004501031001MA1999999099071MD1999999-0151REMSYN070AAXX  19184 82571 32497 60502 10327 20215 39907 40079 84230 333 59015;EQDQ01  00002PRCP06
0149825710999992005022012004-05500-045270FM-12+015399999V0202701N001010450019N0100001N1+02551+02461101201ADDGF106991041091004501031001MA1999999099451MD1999999+0121REMSYN082AAXX  20124 82571 22497 62702 10255 20246 39945 40120 84930 333 20237 58012 60284;
0167825710999992005022018004-05500-045270FM-12+015399999V0202301N001010450019N0100001N1+03091+02581100761ADDAA106000091GF105991021021004501031001MA1999999099031MD1999999-0041REMSYN070AAXX  20184 82571 32497 52302 10309 20258 39903 40076 82230 333 59004;EQDQ01  00002PRCP06
0208825710999992005022100004-05500-045267FM-12+017499999V0209999C000012200019N0100001N1+02811+02621100811ADDAA106000091GA1001+999999999GF100991001001999999001001KA1240M+03271MA1999999099081MD1999999-0201REMSYN082AAXX  21004 82571 32997 00000 10281 20262 39908 40081 333 10327 29086 55040 59020;EQDQ01  00002PRCP06
0186825710999992005022112004-05500-045267FM-12+017499999V0200201N001010042019N0100001N1+02651+02541101111ADDAA106000091GF107991061051004501011001KA1240N+02491MA1999999099381MD1999999-0071REMSYN076AAXX  21124 82571 32497 70202 10265 20254 39938 40111 86510 333 20249 59007;EQDQ01  00002PRCP06
0167825710999992005022118004-05500-045267FM-12+017499999V0203601N002110450019N0100001N1+03241+02551100501ADDAA106000091GF106991031021004501011011MA1999999098791MD1999999-0241REMSYN070AAXX  21184 82571 32497 63604 10324 20255 39879 40050 83211 333 59024;EQDQ01  00002PRCP06
0210825710999992005022200004-05500-045267FM-12+017499999V0200501N004110042019N0100001N1+02711+02371100911ADDAA106000091GF107991071051004501001001KA1240M+03301MA1999999099181MD1999999+0101MW1131REMSYN094AAXX  22004 82571 31497 70508 10271 20237 39918 40091 713// 87500 333 10330 29080 55052 58010;EQDQ01  00002PRCP06
0190825710999992005022212004-05500-045267FM-12+017499999V0202301N001010042019N0100001N1+02411+02391101141ADDAY191061AY261061GF107991071051004501001001KA1240N+02321MA1999999099391MD1999999+0011MW1021REMSYN088AAXX  22124 82571 21497 72302 10241 20239 39939 40114 70296 87500 333 20232 58001 60064;
0171825710999992005022218004-05500-045267FM-12+017499999V0201401N003110042019N0100001N1+02391+02231100951ADDAY161061AY221061GF108991081051004501999999MA1999999099201MD1999999+0411MW1911REMSYN082AAXX  22184 82571 21497 81406 10239 20223 39920 40095 79162 885// 333 58041 60031;
0202825710999992005022300004-05500-045267FM-12+017499999V0209999C000010450019N0100001N1+02271+02251101231ADDAY161061AY221061GF107991021021004501071001KA1240M+02941MA1999999099471MD1999999+0291MW1501REMSYN100AAXX  23004 82571 21497 70000 10227 20225 39947 40123 75062 82270 333 10294 29096 55010 58029 60091;
0182825710999992005022312004-05500-045267FM-12+017499999V0202701N001010042019N0100001N1+02291+02281101321ADDAY141061GF108991081051004501999999KA1240N+02211MA1999999099551MD1999999+0161MW1021REMSYN088AAXX  23124 82571 21497 82702 10229 20228 39955 40132 7024/ 885// 333 20221 58016 60134;
0167825710999992005022318004-05500-045267FM-12+017499999V0200901N001010450019N0100001N1+02871+02351100981ADDAA106000091GF106991021021004501041011MA1999999099241MD1999999+0041REMSYN070AAXX  23184 82571 32497 60902 10287 20235 39924 40098 82241 333 58004;EQDQ01  00002PRCP06
0198825710999992005022400004-05500-045267FM-12+017499999V0209999C000010150019N0100001N1+02631+02501101171ADDAA106000091GF106991061001017501041001KA1240M+02981MA1999999099421MD1999999-0051REMSYN088AAXX  24004 82571 32797 60000 10263 20250 39942 40117 86040 333 10298 29089 55034 59005;EQDQ01  00002PRCP06
0186825710999992005022412004-05500-045267FM-12+017499999V0200901N003110042019N0100001N1+02551+02381101421ADDAA106000091GF107991061051004501031001KA1240N+02311MA1999999099671MD1999999+0121REMSYN076AAXX  24124 82571 32497 70906 10255 20238 39967 40142 86530 333 20231 58012;EQDQ01  00002PRCP06
0171825710999992005022418004-05500-045267FM-12+017499999V0200901N001012200019N0100001N1+02871+02481100931ADDAY161061AY221061GF104991031021004501041001MA1999999099191MD1999999-0051MW1611REMSYN082AAXX  24184 82571 21497 40902 10287 20248 39919 40093 76162 83240 333 59005 69991;
0179825710999992005022500004-05500-045267FM-12+017499999V0202301N001012200019N0100001N1+02591+02391101201ADDAA106000021GF103991031001017501011001KA1240M+03101MA1999999099451MD1999999+0031REMSYN088AAXX  25004 82571 32797 32302 10259 20239 39945 40120 83010 333 10310 29086 55053 58003;
0162825710999992005022512004-05500-045267FM-12+017499999V0202301N001010042019N0100001N1+02531+02471101321ADDGF108991081051004501999999KA1240N+02311MA1999999099571MD1999999-0101REMSYN082AAXX  25124 82571 22497 82302 10253 20247 39957 40132 885// 333 20231 59010 69994;
0167825710999992005022518004-05500-045267FM-12+017499999V0201401N002110450019N0100001N1+03231+02441100831ADDAA106000091GF105991031021004501011001MA1999999099111MD1999999-0081REMSYN070AAXX  25184 82571 32497 51404 10323 20244 39911 40083 83210 333 59008;EQDQ01  00002PRCP06
0198825710999992005022600004-05500-045267FM-12+017499999V0202301N001012200019N0100001N1+02631+02461101011ADDAA106000091GF102991021001017501031001KA1240M+03301MA1999999099271MD1999999-0181REMSYN088AAXX  26004 82571 32797 22302 10263 20246 39927 40101 82030 333 10330 29085 55043 59018;EQDQ01  00002PRCP06
0182825710999992005022612004-05500-045267FM-12+017499999V0201401N001012200019N0100001N1+02771+02421101131ADDAY161061GF102991021021004501001001KA1240N+02421MA1999999099391MD1999999-0181MW1011REMSYN088AAXX  26124 82571 21497 21402 10277 20242 39939 40113 7016/ 82200 333 20242 59018 69934;
0167825710999992005022618004-05500-045267FM-12+017499999V0200501N003110042019N0100001N1+03231+02521100821ADDAA106000091GF105991051021004501001001MA1999999099101MD1999999-0011REMSYN070AAXX  26184 82571 32497 50506 10323 20252 39910 40082 85200 333 59001;EQDQ01  00002PRCP06
0185825710999992005022700004-05500-045270FM-12+015399999V0209999C000010150019N0100001N1+02651+02521101041ADDAA106000091GF106991061001017501071001MA1999999099311MD1999999+0041REMSYN088AAXX  27004 82571 32797 60000 10265 20252 39931 40104 86070 333 10333 29083 55076 58004;EQDQ01  00002PRCP06
0173825710999992005022712004-05500-045270FM-12+015399999V0200501N003110042019N0100001N1+02731+02521101151ADDAA106000091GF106991061051004501001001MA1999999099411MD1999999+0021REMSYN076AAXX  27124 82571 32497 60506 10273 20252 39941 40115 86500 333 20249 58002;EQDQ01  00002PRCP06
0186825710999992005022812004-05500-045267FM-12+017499999V0201801N001010450019N0100001N1+02571+02381101281ADDAA106000091GF107991021021004501071001KA1240N+02401MA1999999099541MD1999999+0131REMSYN076AAXX  28124 82571 32497 71802 10257 20238 39954 40128 82270 333 20240 58013;EQDQ01  00002PRCP06
0167825710999992005022818004-05500-045267FM-12+017499999V0201401N001010042019N0100001N1+03201+02481100891ADDAA106000091GF105991051021004501001001MA1999999099171MD1999999+0091REMSYN070AAXX  28184 82571 32497 51402 10320 20248 39917 40089 85200 333 58009;EQDQ01  00002PRCP06
0210825710999992005030100004-05500-045267FM-12+017499999V0209999C000012200019N0100001N1+02811+02541101071ADDAA106000091GF101991011011004501001001KA1240M+03261MA1999999099341MD1999999-0081MW1131REMSYN094AAXX  01004 82571 31497 10000 10281 20254 39934 40107 713// 81100 333 10326 29081 55072 59008;EQDQ01  00002PRCP06
0186825710999992005030112004-05500-045267FM-12+017499999V0200901N001010042019N0100001N1+02631+02461101251ADDAA106000091GF106991051051004501031001KA1240N+02511MA1999999099521MD1999999-0021REMSYN076AAXX  01124 82571 32497 60902 10263 20246 39952 40125 85530 333 20251 59002;EQDQ01  00002PRCP06
0167825710999992005030118004-05500-045267FM-12+017499999V0200501N001010450019N0100001N1+03171+02441100931ADDAA106000091GF106991031021004501031011MA1999999099211MD1999999+0041REMSYN070AAXX  01184 82571 32497 60502 10317 20244 39921 40093 83231 333 58004;EQDQ01  00002PRCP06
0208825710999992005030200004-05500-045267FM-12+017499999V0209999C000012200019N0100001N1+02851+02561101001ADDAA106000091GA1001+999999999GF100991001001999999001001KA1240M+03281MA1999999099271MD1999999-0071REMSYN082AAXX  02004 82571 32997 00000 10285 20256 39927 40100 333 10328 29080 55061 59007;EQDQ01  00002PRCP06
0186825710999992005030212004-05500-045267FM-12+017499999V0200501N002110450019N0100001N1+02721+02471101141ADDAA106000091GF106991021011004501011001KA1240N+02451MA1999999099411MD1999999-0111REMSYN076AAXX  02124 82571 32497 60504 10272 20247 39941 40114 82110 333 20245 59011;EQDQ01  00002PRCP06
0167825710999992005030218004-05500-045267FM-12+017499999V0200201N001010450019N0100001N1+03211+02531100831ADDAA106000091GF106991021021004501011011MA1999999099121MD1999999-0091REMSYN070AAXX  02184 82571 32497 60202 10321 20253 39912 40083 82211 333 59009;EQDQ01  00002PRCP06
0220825710999992005030300004-05500-045267FM-12+017499999V0200901N001012200019N0100001N1+02731+02401101091ADDAA106000091GA1001+999999999GF100991001001999999001001KA1240M+03301MA1999999099351MD1999999+0081MW1131REMSYN088AAXX  03004 82571 31997 00902 10273 20240 39935 40109 713// 333 10330 29079 55075 58008;EQDQ01  00002PRCP06
0186825710999992005030312004-05500-045267FM-12+017499999V0200501N001010042019N0100001N1+02681+02461101181ADDAA106000091GF107991071051004501001001KA1240N+02461MA1999999099441MD1999999+0031REMSYN076AAXX  03124 82571 32497 70502 10268 20246 39944 40118 87500 333 20246 58003;EQDQ01  00002PRCP06
0202825710999992005030400004-05500-045267FM-12+017499999V0201401N001010042019N0100001N1+02551+02471101181ADDAY191061AY261061GF105991051061004501001001KA1240M+03371MA1999999099441MD1999999+0091MW1021REMSYN100AAXX  04004 82571 21497 51402 10255 20247 39944 40118 70296 85600 333 10337 29086 55054 58009 69981;
0182825710999992005030412004-05500-045267FM-12+017499999V0201401N001010042019N0100001N1+02321+02251101421ADDAY161061GF108991081051004501999999KA1240N+02311MA1999999099661MD1999999+0221MW1211REMSYN088AAXX  04124 82571 21497 81402 10232 20225 39966 40142 7216/ 885// 333 20231 58022 60154;
0171825710999992005030418004-05500-045267FM-12+017499999V0201401N001010450019N0100001N1+02721+02371101081ADDAY161061AY221061GF108991031031004501011011MA1999999099341MD1999999+0281MW1021REMSYN082AAXX  04184 82571 21497 81402 10272 20237 39934 40108 70262 83311 333 58028 60101;
0162825710999992005030512004-05500-045267FM-12+017499999V0202301N001010042019N0100001N1+02551+02441101391ADDGF105991051021004501001001KA1240N+02281MA1999999099641MD1999999-0021REMSYN082AAXX  05124 82571 22497 52302 10255 20244 39964 40139 85200 333 20228 59002 60104;
0167825710999992005030518004-05500-045267FM-12+017499999V0200501N003112200019N0100001N1+03191+02381101051ADDAA106000091GF106991041021004501001011MA1999999099321MD1999999-0021REMSYN070AAXX  05184 82571 32497 60506 10319 20238 39932 40105 84201 333 59002;EQDQ01  00002PRCP06
0179825710999992005030600004-05500-045270FM-12+015399999V0209999C000012200019N0100001N1+02781+02561101151ADDAA106000091GF100991001001999999001001MA1999999099411MD1999999+0021REMSYN082AAXX  06004 82571 32997 00000 10278 20256 39941 40115 333 10325 29083 55095 58002;EQDQ01  00002PRCP06
0193825710999992005030612004-05500-045270FM-12+015399999V0200901N001012200019N0100001N1+02681+02451101201ADDAA106000091AY141061GF106991021021004501001011MA1999999099471MD1999999-0171MW1011REMSYN082AAXX  06124 82571 31497 60902 10268 20245 39947 40120 7014/ 82201 333 20237 59017;EQDQ01  00002PRCP06
0167825710999992005030618004-05500-045270FM-12+015399999V0200501N001010450019N0100001N1+03251+02461100851ADDAA106000091GF106991031021004501011011MA1999999099131MD1999999-0191REMSYN070AAXX  06184 82571 32497 60502 10325 20246 39913 40085 83211 333 59019;EQDQ01  00002PRCP06
0186825710999992005030712004-05500-045267FM-12+017499999V0200501N002110042019N0100001N1+02691+02461101231ADDAA106000091GF107991071051004501001001KA1240N+02501MA1999999099501MD1999999+0031REMSYN076AAXX  07124 82571 32497 70504 10269 20246 39950 40123 87500 333 20250 58003;EQDQ01  00002PRCP06
0167825710999992005030718004-05500-045267FM-12+017499999V0200501N001010450019N0100001N1+03201+02461100831ADDAA106000091GF106991031021004501011011MA1999999099121MD1999999-0011REMSYN070AAXX  07184 82571 32497 60502 10320 20246 39912 40083 83211 333 59001;EQDQ01  00002PRCP06
0190825710999992005030812004-05500-045267FM-12+017499999V0202301N001010450019N0100001N1+02571+02511101261ADDAY191061AY261061GF106991021021004501031011KA1240N+02321MA1999999099521MD1999999+0021MW1011REMSYN088AAXX  08124 82571 21497 62302 10257 20251 39952 40126 70196 82231 333 20232 58002 60664;
0167825710999992005030818004-05500-045267FM-12+017499999V0200501N001010450019N0100001N1+02911+02541100841ADDAA106000091GF107991041081004501041001MA1999999099111MD1999999-0011REMSYN070AAXX  08184 82571 32497 70502 10291 20254 39911 40084 84840 333 59001;EQDQ01  00002PRCP06
0210825710999992005030900004-05500-045267FM-12+017499999V0202301N001012200019N0100001N1+02711+02601101061ADDAA106000091GF104991021021004501011001KA1240M+03031MA1999999099321MD1999999-0121MW1131REMSYN094AAXX  09004 82571 31497 42302 10271 20260 39932 40106 713// 82210 333 10303 29090 55015 59012;EQDQ01  00002PRCP06
0186825710999992005030912004-05500-045267FM-12+017499999V0203601N003112200019N0100001N1+02721+02471101171ADDAA106000091GF104991031021004501031001KA1240N+02511MA1999999099431MD1999999-0091REMSYN076AAXX  09124 82571 32497 43606 10272 20247 39943 40117 83230 333 20251 59009;EQDQ01  00002PRCP06
0167825710999992005030918004-05500-045267FM-12+017499999V0200901N001010450019N0100001N1+03101+02511100731ADDAA106000091GF106991041081004501011001MA1999999099011MD1999999-0101REMSYN070AAXX  09184 82571 32497 60902 10310 20251 39901 40073 84810 333 59010;EQDQ01  00002PRCP06
0202825710999992005031000004-05500-045267FM-12+017499999V0200701N001010042019N0100001N1+02351+02311101151ADDAY191061AY261061GF108991081051004501999999KA1240M+03161MA1999999099401MD1999999+0081MW1611REMSYN100AAXX  10004 82571 21497 80702 10235 20231 39940 40115 76196 885// 333 10316 29088 55046 58008 60491;
0182825710999992005031012004-05500-045267FM-12+017499999V0202701N001010042019N0100001N1+02461+02391101281ADDAY161061GF107991061021004501031001KA1240N+02271MA1999999099521MD1999999+0091MW1021REMSYN088AAXX  10124 82571 21497 72702 10246 20239 39952 40128 7026/ 86230 333 20227 58009 60504;
0167825710999992005031018004-05500-045267FM-12+017499999V0203601N002112200019N0100001N1+03151+02551100841ADDAA106000091GF104991031021004501001011MA1999999099111MD1999999+0101REMSYN070AAXX  10184 82571 32497 43604 10315 20255 39911 40084 83201 333 58010;EQDQ01  00002PRCP06
0198825710999992005031100004-05500-045267FM-12+017499999V0209999C000012200019N0100001N1+02811+02561101051ADDAA106000091GF104991041001017501011001KA1240M+03211MA1999999099311MD1999999-0091REMSYN088AAXX  11004 82571 32797 40000 10281 20256 39931 40105 84010 333 10321 29084 55083 59009;EQDQ01  00002PRCP06
0182825710999992005031112004-05500-045267FM-12+017499999V0201801N001010042019N0100001N1+02661+02431101301ADDAY161061GF106991051051004501031001KA1240N+02461MA1999999099561MD1999999+0041MW1031REMSYN088AAXX  11124 82571 21497 61802 10266 20243 39956 40130 7036/ 85530 333 20246 58004 60044;
0171825710999992005031118004-05500-045267FM-12+017499999V0200501N002111050019N0100001N1+03101+02461100891ADDAY161061AY221061GF105991021021004501031011MA1999999099171MD1999999+0061MW1011REMSYN082AAXX  11184 82571 21497 50504 10310 20246 39917 40089 70162 82231 333 58006 69971;
0202825710999992005031200004-05500-045267FM-12+017499999V0202301N001012200019N0100001N1+02651+02521101131ADDAY161061AY211061GF102991021041004501001001KA1240M+03231MA1999999099391MD1999999+0081MW1131REMSYN100AAXX  12004 82571 21497 22302 10265 20252 39939 40113 71361 82400 333 10323 29085 55053 58008 60011;
0162825710999992005031212004-05500-045267FM-12+017499999V0200901N001010450019N0100001N1+02631+02421101321ADDGF106991021021004501011001KA1240N+02451MA1999999099581MD1999999+0021REMSYN082AAXX  12124 82571 22497 60902 10263 20242 39958 40132 82210 333 20245 58002 60024;
0167825710999992005031218004-05500-045267FM-12+017499999V0200501N001010042019N0100001N1+03021+02341100901ADDAA106000091GF106991061021004501001001MA1999999099161MD1999999-0011REMSYN070AAXX  12184 82571 32497 60502 10302 20234 39916 40090 86200 333 59001;EQDQ01  00002PRCP06
0185825710999992005031300004-05500-045270FM-12+015399999V0200501N003110042019N0100001N1+02681+02461101151ADDAA106000091GF105991051061004501001001MA1999999099411MD1999999+0021REMSYN088AAXX  13004 82571 32497 50506 10268 20246 39941 40115 85600 333 10307 29083 55055 58002;EQDQ01  00002PRCP06
0169825710999992005031312004-05500-045270FM-12+015399999V0203601N001010042019N0100001N1+02631+02481101261ADDAY161061GF108991081051004501999999MA1999999099521MD1999999-0061MW1021REMSYN088AAXX  13124 82571 21497 83602 10263 20248 39952 40126 7026/ 885// 333 20246 59006 60014;
0171825710999992005031318004-05500-045270FM-12+015399999V0201801N001010042019N0100001N1+02351+02221100951ADDAY191061AY261061GF108991081051004501999999MA1999999099201MD1999999+0041MW1951REMSYN082AAXX  13184 82571 21497 81802 10235 20222 39920 40095 79596 885// 333 58004 60291;
0181825710999992005031400004-05500-045270FM-12+015399999V0202301N001010042019N0100001N1+02291+02271101181ADDAY161061GF108991081051004501999999MA1999999099431MD1999999+0021MW1131REMSYN100AAXX  14004 82571 21497 82302 10229 20227 39943 40118 7136/ 885// 333 10288 29095 55006 58002 69971;
0169825710999992005031412004-05500-045270FM-12+015399999V0202301N001010042019N0100001N1+02461+02341101241ADDAY161061GF107991061051004501031001MA1999999099481MD1999999-0041MW1011REMSYN088AAXX  14124 82571 21497 72302 10246 20234 39948 40124 7016/ 86530 333 20228 59004 60304;
0167825710999992005031418004-05500-045267FM-12+017499999V0200501N003110042019N0100001N1+02881+02371100851ADDAA106000091GF106991061021004501001001MA1999999099111MD1999999-0091REMSYN070AAXX  14184 82571 32497 60506 10288 20237 39911 40085 86200 333 59009;EQDQ01  00002PRCP06
0186825710999992005031500004-05500-045267FM-12+017499999V0200501N001010042019N0100001N1+02481+02381101061ADDGF108991081051004501999999KA1240M+03111MA1999999099311MD1999999-0121MW1511REMSYN100AAXX  15004 82571 21497 80502 10248 20238 39931 40106 751// 885// 333 10311 29089 55038 59012 69921;
0162825710999992005031512004-05500-045267FM-12+017499999V0203201N001010450019N0100001N1+02531+02401101231ADDGF106991041021004501031001KA1240N+02351MA1999999099481MD1999999+0001REMSYN082AAXX  15124 82571 22497 63202 10253 20240 39948 40123 84230 333 20235 58000 69924;
0167825710999992005031518004-05500-045267FM-12+017499999V0200501N001012200019N0100001N1+03071+02421100841ADDAA106000091GF104991041021004501001001MA1999999099111MD1999999+0001REMSYN070AAXX  15184 82571 32497 40502 10307 20242 39911 40084 84200 333 58000;EQDQ01  00002PRCP06
0198825710999992005031600004-05500-045267FM-12+017499999V0209999C000012200019N0100001N1+02711+02521101031ADDAA106000091GF104991041001017501011001KA1240M+03131MA1999999099291MD1999999-0021REMSYN088AAXX  16004 82571 32797 40000 10271 20252 39929 40103 84010 333 10313 29084 55067 59002;EQDQ01  00002PRCP06
0186825710999992005031612004-05500-045267FM-12+017499999V0201801N001010450019N0100001N1+02641+02421101211ADDAA106000091GF106991041021004501011001KA1240N+02421MA1999999099471MD1999999-0011REMSYN076AAXX  16124 82571 32497 61802 10264 20242 39947 40121 84210 333 20242 59001;EQDQ01  00002PRCP06
0171825710999992005031618004-05500-045267FM-12+017499999V0202701N001010042019N0100001N1+02331+02271100941ADDAY191061AY261061GF107991051071004501021001MA1999999099191MD1999999+0081MW1501REMSYN082AAXX  16184 82571 21497 72702 10233 20227 39919 40094 75096 85720 333 58008 60281;
0202825710999992005031700004-05500-045267FM-12+017499999V0200701N001012200019N0020001N1+02341+02291101111ADDAY161061AY241061GF103991031001017501041001KA1240M+02881MA1999999099361MD1999999+0071MW1131REMSYN100AAXX  17004 82571 21795 30702 10234 20229 39936 40111 71364 83040 333 10288 29094 55008 58007 69921;
0182825710999992005031712004-05500-045267FM-12+017499999V0202301N001010450019N0100001N1+02451+02391101301ADDAY141061GF106991041051004501051011KA1240N+02251MA1999999099541MD1999999+0071MW1011REMSYN088AAXX  17124 82571 21497 62302 10245 20239 39954 40130 7014/ 84551 333 20225 58007 60284;
0167825710999992005031718004-05500-045267FM-12+017499999V0201601N001010450019N0100001N1+03181+02491100811ADDAA106000091GF106991031021004501041011MA1999999099081MD1999999-0111REMSYN070AAXX  17184 82571 32497 61602 10318 20249 39908 40081 83241 333 59011;EQDQ01  00002PRCP06
0210825710999992005031800004-05500-045267FM-12+017499999V0209999C000012200019N0100001N1+02661+02561101021ADDAA106000091GF102991011031004501031001KA1240M+03231MA1999999099271MD1999999-0091MW1131REMSYN094AAXX  18004 82571 31497 20000 10266 20256 39927 40102 713// 81330 333 10323 29088 55067 59009;EQDQ01  00002PRCP06
0186825710999992005031812004-05500-045267FM-12+017499999V0200501N001010042019N0100001N1+02621+02441101291ADDAA106000091GF107991071051004501001001KA1240N+02371MA1999999099551MD1999999+0011REMSYN076AAXX  18124 82571 32497 70502 10262 20244 39955 40129 87500 333 20237 58001;EQDQ01  00002PRCP06
0167825710999992005031818004-05500-045267FM-12+017499999V0201801N002110450019N0100001N1+03291+02451100721ADDAA106000091GF105991031021004501011011MA1999999099011MD1999999-0071REMSYN070AAXX  18184 82571 32497 51804 10329 20245 39901 40072 83211 333 59007;EQDQ01  00002PRCP06
0202825710999992005031900004-05500-045267FM-12+017499999V0203601N005110042019N0100001N1+02391+02261101131ADDAY191061AY261061GF106991061071004501001001KA1240M+03401MA1999999099381MD1999999+0111MW1171REMSYN100AAXX  19004 82571 21497 63610 10239 20226 39938 40113 71796 86700 333 10340 29084 55085 58011 60041;
0190825710999992005031912004-05500-045267FM-12+017499999V0200501N001010450019N0100001N1+02411+02331101421ADDAY161061AY241061GF106991041051004501031001KA1240N+02301MA1999999099661MD1999999+0111MW1011REMSYN088AAXX  19124 82571 21497 60502 10241 20233 39966 40142 70164 84530 333 20230 58011 60104;
0213825710999992005032000004-05500-045270FM-12+015399999V0203601N001012200019N0100001N1+02481+02391101341ADDAA106000091AY191061AY201061GF102991021001017501031001MA1999999099591MD1999999+0211MW1011REMSYN094AAXX  20004 82571 31797 23602 10248 20239 39959 40134 70190 82030 333 10310 29090 55058 58021;EQDQ01  00002PRCP06
0169825710999992005032012004-05500-045270FM-12+015399999V0202701N001010042019N0100001N1+02291+02221101341ADDAY161061GF108991081051004501999999MA1999999099581MD1999999-0081MW1021REMSYN088AAXX  20124 82571 21497 82702 10229 20222 39958 40134 7026/ 885// 333 20220 59008 69964;
0161825710999992005032018004-05500-045270FM-12+015399999V0202501N001012200019N0100001N1+03011+02391101021ADDAA106000091GF100991001001999999001001MA1999999099291MD1999999+0021REMSYN064AAXX  20184 82571 32497 02502 10301 20239 39929 40102 333 58002;EQDQ01  00002PRCP06
0186825710999992005032100004-05500-045267FM-12+017499999V0201401N001010042019N0100001N1+02691+02501101231ADDGF108991081051004501999999KA1240M+03081MA1999999099481MD1999999-0111MW1611REMSYN100AAXX  21004 82571 21497 81402 10269 20250 39948 40123 761// 885// 333 10308 29086 55066 59011 69931;
0182825710999992005032112004-05500-045267FM-12+017499999V0202301N001010042019N0100001N1+02391+02351101401ADDAY161061GF107991071051004501001001KA1240N+02241MA1999999099651MD1999999+0071MW1031REMSYN088AAXX  21124 82571 21497 72302 10239 20235 39965 40140 7036/ 87500 333 20224 58007 60174;
0167825710999992005032118004-05500-045267FM-12+017499999V0202701N001010450019N0100001N1+03121+02481100831ADDAA106000091GF106991031051004501041011MA1999999099111MD1999999-0181REMSYN070AAXX  21184 82571 32497 62702 10312 20248 39911 40083 83541 333 59018;EQDQ01  00002PRCP06
0202825710999992005032200004-05500-045267FM-12+017499999V0200501N001011050019N0100001N1+02511+02451101251ADDAY191061AY261061GF105991011021004501041011KA1240M+03171MA1999999099491MD1999999+0011MW1131REMSYN100AAXX  22004 82571 21497 50502 10251 20245 39949 40125 71396 81241 333 10317 29090 55035 58001 60051;
0190825710999992005032212004-05500-045267FM-12+017499999V0202301N001010450019N0100001N1+02401+02301101411ADDAY191061AY261061GF106991031021004501041011KA1240N+02241MA1999999099651MD1999999+0001MW1011REMSYN088AAXX  22124 82571 21497 62302 10240 20230 39965 40141 70196 83241 333 20224 58000 60144;
0167825710999992005032218004-05500-045267FM-12+017499999V0202701N001010450019N0100001N1+03041+02451100941ADDAA106000091GF106991031051004501011011MA1999999099211MD1999999+0101REMSYN070AAXX  22184 82571 32497 62702 10304 20245 39921 40094 83511 333 58010;EQDQ01  00002PRCP06
0202825710999992005032300004-05500-045267FM-12+017499999V0209999C000012200019N0100001N1+02531+02471101311ADDAY191061AY261061GF103991031001017501031001KA1240M+03091MA1999999099551MD1999999+0061MW1021REMSYN100AAXX  23004 82571 21797 30000 10253 20247 39955 40131 70296 83030 333 10309 29089 55052 58006 60041;
0207825710999992005032312004-05500-045267FM-12+017499999V0201401N001012200019N0100001N1+02541+02351101461ADDAA124004091AY161061AY211061GF104991031021004501031001KA1240N+02291MA1999999099711MD1999999+0061MW1011REMSYN094AAXX  23124 82571 21497 41402 10254 20235 39971 40146 70161 83230 333 20229 58006 60044 10040;
0167825710999992005032318004-05500-045267FM-12+017499999V0201401N001010090019N0100001N1+02981+02441101031ADDAA106000091GF106991061081004501001001MA1999999099301MD1999999+0091REMSYN070AAXX  23184 82571 32497 61402 10298 20244 39930 40103 86800 333 58009;EQDQ01  00002PRCP06
0226825710999992005032400004-05500-045267FM-12+017499999V0209999C000012200019N0100001N1+02551+02381101381ADDAA106000091AY111061AY201061GF103991031001017501041001KA1240M+03101MA1999999099631MD1999999+0081MW1131REMSYN094AAXX  24004 82571 31797 30000 10255 20238 39963 40138 71310 83040 333 10310 29086 55064 58008;EQDQ01  00002PRCP06
0186825710999992005032412004-05500-045267FM-12+017499999V0200501N001010042019N0100001N1+02551+02381101471ADDAA106000091GF105991051021004501001001KA1240N+02341MA1999999099721MD1999999+0011REMSYN076AAXX  24124 82571 32497 50502 10255 20238 39972 40147 85200 333 20234 58001;EQDQ01  00002PRCP06
0167825710999992005032418004-05500-045267FM-12+017499999V0203201N001012200019N0100001N1+03171+02411101401ADDAA106000091GF103991021021004501031001MA1999999099311MD1999999+0011REMSYN070AAXX  24184 82571 32497 33202 10317 20241 39931 40140 82230 333 58001;EQDQ01  00002PRCP06
0226825710999992005032500004-05500-045267FM-12+017499999V0200501N003110042019N0100001N1+02571+02401101281ADDAA106000091AY121061AY211061GF106991061051004501001001KA1240M+03221MA1999999099531MD1999999-0101MW1131REMSYN094AAXX  25004 82571 31497 60506 10257 20240 39953 40128 71321 86500 333 10322 29084 55073 59010;EQDQ01  00002PRCP06
0186825710999992005032512004-05500-045267FM-12+017499999V0200501N001012200019N0100001N1+02691+02391101341ADDAA106000091GF104991031021004501001011KA1240N+02371MA1999999099601MD1999999-0121REMSYN076AAXX  25124 82571 32497 40502 10269 20239 39960 40134 83201 333 20237 59012;EQDQ01  00002PRCP06
0171825710999992005032518004-05500-045267FM-12+017499999V0201801N003110042019N0100001N1+02881+02371100971ADDAY161061AY211061GF106991061021004501001001MA1999999099241MD1999999-0071MW1171REMSYN082AAXX  25184 82571 21497 61806 10288 20237 39924 40097 71761 86200 333 59007 60041;
0226825710999992005032600004-05500-045267FM-12+017499999V0203201N005110042019N0100001N1+02541+02381101301ADDAA106000091AY121061AY221061GF108991081051004501999999KA1240M+03081MA1999999099551MD1999999+0021MW1131REMSYN094AAXX  26004 82571 31497 83210 10254 20238 39955 40130 71322 885// 333 10308 29085 55029 58002;EQDQ01  00002PRCP06
0190825710999992005032612004-05500-045267FM-12+017499999V0201801N001010042019N0100001N1+02541+02381101341ADDAY161061AY211061GF108991081051004501999999KA1240N+02351MA1999999099591MD1999999-0011MW1021REMSYN088AAXX  26124 82571 21497 81802 10254 20238 39959 40134 70261 885// 333 20235 59001 60054;
0171825710999992005032618004-05500-045267FM-12+017499999V0203201N001010042019N0100001N1+02891+02501100931ADDAY161061AY211061GF106991061051004501001001MA1999999099191MD1999999-0051MW1021REMSYN082AAXX  26184 82571 21497 63202 10289 20250 39919 40093 70261 86500 333 59005 60021;
0213825710999992005032700004-05500-045270FM-12+015399999V0201801N001012200019N0100001N1+02591+02481101201ADDAA106000091AY121061AY211061GF102991021001017501031001MA1999999099451MD1999999-0101MW1131REMSYN094AAXX  27004 82571 31797 21802 10259 20248 39945 40120 71321 82030 333 10306 29089 55007 59010;EQDQ01  00002PRCP06
0149825710999992005032712004-05500-045270FM-12+015399999V0203601N001010042019N0100001N1+02491+02381101311ADDGF106991061051004501001001MA1999999099561MD1999999-0031REMSYN082AAXX  27124 82571 22497 63602 10249 20238 39956 40131 86500 333 20232 59003 60024;
0171825710999992005032718004-05500-045270FM-12+015399999V0203601N001012200019N0100001N1+03071+02471100871ADDAY161061AY211061GF103991021021004501001011MA1999999099141MD1999999-0051MW1011REMSYN082AAXX  27184 82571 21497 33602 10307 20247 39914 40087 70161 82201 333 59005 60021;
0189825710999992005032800004-05500-045270FM-12+015399999V0200501N003110042019N0100001N1+02511+02401101241ADDAY121061AY211061GF108991081001004501021999MA1999999099491MD1999999+0041MW1631REMSYN100AAXX  28004 82571 21497 80506 10251 20240 39949 40124 76321 8802/ 333 10315 29087 55065 58004 60051;
0194825710999992005032812004-05500-045270FM-12+015399999V0200501N001010450019N0100001N1+02481+02411101341ADDAA124030091AY161061AY221061GF106991041051004501031011MA1999999099591MD1999999+0031MW1211REMSYN094AAXX  28124 82571 21497 60502 10248 20241 39959 40134 72162 84531 333 20234 58003 60304 10302;
0148825710999992005032818004-05500-045270FM-12+015399999V0201801N001012200019N0100001N1+02991+02461100881ADDAA106000021GF103991021021004501001011MA1999999099151MD1999999+0011REMSYN070AAXX  28184 82571 32497 31802 10299 20246 39915 40088 82201 333 58001;
0202825710999992005032900004-05500-045267FM-12+017499999V0201401N001012200019N0100001N1+02451+02371101161ADDAY191061AY261061GF104991041061004501001001KA1240M+03151MA1999999099411MD1999999-0081MW1011REMSYN100AAXX  29004 82571 21497 41402 10245 20237 39941 40116 70196 84600 333 10315 29090 55067 59008 60081;
0162825710999992005032912004-05500-045267FM-12+017499999V0203601N001010450019N0100001N1+02621+02411101301ADDGF106991031021004501031001KA1240N+02351MA1999999099551MD1999999-0041REMSYN082AAXX  29124 82571 22497 63602 10262 20241 39955 40130 83230 333 20235 59004 60084;
0171825710999992005032918004-05500-045267FM-12+017499999V0203201N001012200019N0100001N1+02931+02401100851ADDAY161061AY211061GF105991031021004501001011MA1999999099121MD1999999-0031MW1021REMSYN082AAXX  29184 82571 21497 53202 10293 20240 39912 40085 70261 83201 333 59003 60031;
0226825710999992005033000004-05500-045267FM-12+017499999V0203601N001010042019N0100001N1+02631+02501101191ADDAA106000091AY121061AY211061GF106991061061004501001001KA1240M+03041MA1999999099451MD1999999+0041MW1131REMSYN094AAXX  30004 82571 31497 63602 10263 20250 39945 40119 71321 86600 333 10304 29086 55033 58004;EQDQ01  00002PRCP06
0190825710999992005033012004-05500-045267FM-12+017499999V0202701N001010042019N0100001N1+02411+02371101341ADDAY161061AY211061GF107991061051004501031001KA1240N+02381MA1999999099591MD1999999+0041MW1021REMSYN088AAXX  30124 82571 21497 72702 10241 20237 39959 40134 70261 86530 333 20238 58004 60284;
0167825710999992005033018004-05500-045267FM-12+017499999V0201801N001010042019N0100001N1+02861+02441100921ADDAA106000091GF107991051051004501011001MA1999999099191MD1999999+0071REMSYN070AAXX  30184 82571 32497 71802 10286 20244 39919 40092 85510 333 58007;EQDQ01  00002PRCP06
0202825710999992005033100004-05500-045267FM-12+017499999V0202701N001012200019N0100001N1+02371+02331101181ADDAY161061AY211061GF103991031021004501001001KA1240M+02921MA1999999099421MD1999999-0031MW1031REMSYN100AAXX  31004 82571 21497 32702 10237 20233 39942 40118 70361 83200 333 10292 29092 55000 59003 60061;
0190825710999992005033112004-05500-045267FM-12+017499999V0202501N001010450019N0100001N1+02331+02271101371ADDAY161061AY211061GF107991041051004501031001KA1240N+02201MA1999999099611MD1999999+0021MW1011REMSYN088AAXX  31124 82571 21497 72502 10233 20227 39961 40137 70161 84530 333 20220 58002 60184;
0167825710999992005033118004-05500-045267FM-12+017499999V0202301N001011050019N0100001N1+02981+02491100841ADDAA106000091GF105991021021004501051011MA1999999099111MD1999999-0081REMSYN070AAXX  31184 82571 32497 52302 10298 20249 39911 40084 82251 333 59008;EQDQ01  00002PRCP06
0202825710999992005040100004-05500-045267FM-12+017499999V0201801N002110042019N0020001N1+02441+02371101221ADDAY121061AY221061GF108991081091004501999999KA1240M+03101MA1999999099461MD1999999+0041MW1951REMSYN100AAXX  01004 82571 21495 81804 10244 20237 39946 40122 79522 889// 333 10310 29091 55031 58004 60181;
0190825710999992005040112004-05500-045267FM-12+017499999V0203601N001010042019N0100001N1+02481+02381101431ADDAY191061AY261061GF107991061051004501031001KA1240N+02291MA1999999099671MD1999999+0061MW1021REMSYN088AAXX  01124 82571 21497 73602 10248 20238 39967 40143 70296 86530 333 20229 58006 60234;
0167825710999992005040118004-05500-045267FM-12+017499999V0203201N001012200019N0100001N1+03061+02431100951ADDAA106000091GF104991031021004501001011MA1999999099221MD1999999+0111REMSYN070AAXX  01184 82571 32497 43202 10306 20243 39922 40095 83201 333 58011;EQDQ01  00002PRCP06
0208825710999992005040200004-05500-045267FM-12+017499999V0200501N001012200019N0100001N1+02671+02461101241ADDAA106000091GA1001+999999999GF100991001001999999001001KA1240M+03261MA1999999099491MD1999999+0031REMSYN082AAXX  02004 82571 32497 00502 10267 20246 39949 40124 333 10326 29085 55070 58003;EQDQ01  00002PRCP06
0186825710999992005040212004-05500-045267FM-12+017499999V0201401N001010042019N0100001N1+02571+02401101371ADDAA106000091GF105991051021004501001001KA1240N+02351MA1999999099621MD1999999-0051REMSYN076AAXX  02124 82571 32497 51402 10257 20240 39962 40137 85200 333 20235 59005;EQDQ01  00002PRCP06
0167825710999992005040218004-05500-045267FM-12+017499999V0200501N001012200019N0100001N1+03181+02391100921ADDAA106000091GF102991021021004501001001MA1999999099201MD1999999-0021REMSYN070AAXX  02184 82571 32497 20502 10318 20239 39920 40092 82200 333 59002;EQDQ01  00002PRCP06
0207825710999992005040300004-05500-045270FM-12+015399999V0203201N001012200019N0100001N1+02651+02521101231ADDAA106000091AY121061AY211061GF100991001001999999001001MA1999999099481MD1999999-0011MW1131REMSYN088AAXX  03004 82571 31997 03202 10265 20252 39948 40123 71321 333 10328 29084 55083 59001;EQDQ01  00002PRCP06
0173825710999992005040312004-05500-045270FM-12+015399999V0201801N001010042019N0100001N1+02501+02381101481ADDAA106000091GF108991081051004501999999MA1999999099731MD1999999+0111REMSYN076AAXX  03124 82571 32497 81802 10250 20238 39973 40148 885// 333 20227 58011;EQDQ01  00002PRCP06
0167825710999992005040318004-05500-045270FM-12+015399999V0201401N001012200019N0100001N1+03151+02451100921ADDAA106000091GF104991031021004501001011MA1999999099191MD1999999-0011REMSYN070AAXX  03184 82571 32497 41402 10315 20245 39919 40092 83201 333 59001;EQDQ01  00002PRCP06
0236825710999992005040400004-05500-045267FM-12+017499999V0209999C000012200019N0100001N1+02671+02451101251ADDAA106000091AY101061AY201061GA1001+999999999GF100991001001999999001001KA1240M+03221MA1999999099501MD1999999+0021MW1131REMSYN088AAXX  04004 82571 31997 00000 10267 20245 39950 40125 71300 333 10322 29083 55063 58002;EQDQ01  00002PRCP06
0186825710999992005040412004-05500-045267FM-12+017499999V0202701N001010042019N0100001N1+02591+02481101421ADDAA106000091GF107991071051004501001001KA1240N+02381MA1999999099671MD1999999-0061REMSYN076AAXX  04124 82571 32497 72702 10259 20248 39967 40142 87500 333 20238 59006;EQDQ01  00002PRCP06
0167825710999992005040418004-05500-045267FM-12+017499999V0200501N001012200019N0100001N1+03161+02371100921ADDAA106000091GF102991021021004501001001MA1999999099201MD1999999+0011REMSYN070AAXX  04184 82571 32497 20502 10316 20237 39920 40092 82200 333 58001;EQDQ01  00002PRCP06
0208825710999992005040500004-05500-045267FM-12+017499999V0201401N001012200019N0100001N1+02751+02541101171ADDAA106000091GA1001+999999999GF100991001001999999001001KA1240M+03251MA1999999099431MD1999999-0071REMSYN082AAXX  05004 82571 32997 01402 10275 20254 39943 40117 333 10325 29083 55079 59007;EQDQ01  00002PRCP06
0186825710999992005040512004-05500-045267FM-12+017499999V0203601N001012200019N0100001N1+02621+02421101281ADDAA106000091GF105991041021004501001011KA1240N+02401MA1999999099541MD1999999-0131REMSYN076AAXX  05124 82571 32497 53602 10262 20242 39954 40128 84201 333 20240 59013;EQDQ01  00002PRCP06
0167825710999992005040518004-05500-045267FM-12+017499999V0200901N003112200019N0100001N1+03221+02291100891ADDAA106000091GF103991011021004501011011MA1999999099171MD1999999-0031REMSYN070AAXX  05184 82571 32497 30906 10322 20229 39917 40089 81211 333 59003;EQDQ01  00002PRCP06
0208825710999992005040600004-05500-045267FM-12+017499999V0202301N001012200019N0100001N1+02751+02501101241ADDAA106000091GA1001+999999999GF100991001001999999001001KA1240M+03271MA1999999099501MD1999999+0071REMSYN082AAXX  06004 82571 32997 02302 10275 20250 39950 40124 333 10327 29080 55095 58007;EQDQ01  00002PRCP06
0186825710999992005040612004-05500-045267FM-12+017499999V0201801N001011050019N0100001N1+02601+02421101261ADDAA106000091GF105991011021004501041011KA1240N+02421MA1999999099521MD1999999-0021REMSYN076AAXX  06124 82571 32497 51802 10260 20242 39952 40126 81241 333 20242 59002;EQDQ01  00002PRCP06
0167825710999992005040618004-05500-045267FM-12+017499999V0201101N002110450019N0100001N1+03191+02381100911ADDAA106000091GF106991021021004501011011MA1999999099191MD1999999+0021REMSYN070AAXX  06184 82571 32497 61104 10319 20238 39919 40091 82211 333 58002;EQDQ01  00002PRCP06
0226825710999992005040700004-05500-045267FM-12+017499999V0209999C000012200019N0100001N1+02751+02581101071ADDAA106000091AY111061AY201061GF101991011031004501001001KA1240M+03281MA1999999099341MD1999999-0161MW1131REMSYN094AAXX  07004 82571 31497 10000 10275 20258 39934 40107 71310 81300 333 10328 29083 55054 59016;EQDQ01  00002PRCP06
0186825710999992005040712004-05500-045267FM-12+017499999V0200201N002110450019N0100001N1+02751+02441101191ADDAA106000091GF106991011011004501011011KA1240N+02371MA1999999099461MD1999999-0061REMSYN076AAXX  07124 82571 32497 60204 10275 20244 39946 40119 81111 333 20237 59006;EQDQ01  00002PRCP06
0171825710999992005040718004-05500-045267FM-12+017499999V0201401N003111050019N0100001N1+03171+02471100841ADDAY111061AY211061GF105991021021004501011011MA1999999099121MD1999999-0071MW1211REMSYN082AAXX  07184 82571 21497 51406 10317 20247 39912 40084 72111 82211 333 59007 69931;
0189825710999992005040800004-05500-045267FM-12+017499999V0201401N001012200019N0100001N1+02761+02501101071ADDAA106000021GA1001+999999999GF100991001001999999001001KA1240M+03301MA1999999099341MD1999999+0001REMSYN082AAXX  08004 82571 32997 01402 10276 20250 39934 40107 333 10330 29080 55096 58000;
0190825710999992005040812004-05500-045267FM-12+017499999V0200501N005112200019N0100001N1+02871+02321101151ADDAY141061AY201061GF103991011011004501001011KA1240N+02301MA1999999099421MD1999999+0041MW1011REMSYN088AAXX  08124 82571 21497 30510 10287 20232 39942 40115 70140 81101 333 20230 58004 69934;
0167825710999992005040818004-05500-045267FM-12+017499999V0201401N001012200019N0100001N1+03221+02261100821ADDAA106000091GF102991021021004501001001MA1999999099101MD1999999+0021REMSYN070AAXX  08184 82571 32497 21402 10322 20226 39910 40082 82200 333 58002;EQDQ01  00002PRCP06
0208825710999992005040900004-05500-045267FM-12+017499999V0201401N001012200019N0100001N1+02671+02201101091ADDAA106000091GA1001+999999999GF100991001001999999001001KA1240M+03281MA1999999099361MD1999999+0021REMSYN082AAXX  09004 82571 32997 01402 10267 20220 39936 40109 333 10328 29070 55106 58002;EQDQ01  00002PRCP06
0172825710999992005040912004-05500-045267FM-12+017499999V0202301N001019999999N0100001N1+02611+99999999999ADDAA106000091GF107991999999004501999999KA1240M+99999REMSYN075AAXX  09124 82571 32497 72302 10261 2018 39953 40127 87500 333 10227 58011;EQDQ01  00002PRCP06Q02 +02272ATMX  
0167825710999992005040918004-05500-045267FM-12+017499999V0201401N003110450019N0100001N1+03031+02311100931ADDAA106000091GF108991021021004501011011MA1999999099201MD1999999+0101REMSYN070AAXX  09184 82571 32497 81406 10303 20231 39920 40093 82211 333 58010;EQDQ01  00002PRCP06
0207825710999992005041012004-05500-045267FM-12+017499999V0200501N001010090019N0100001N1+02431+02341101161ADDAA124000191AY161061AY241061GF106991061081004501001001KA1240N+02171MA1999999099411MD1999999-0121MW1011REMSYN094AAXX  10124 82571 21497 60502 10243 20234 39941 40116 70164 86800 333 20217 59012 69914 10001;
0186825710999992005041112004-05500-045267FM-12+017499999V0201101N001012200019N0100001N1+02791+02311101021ADDAA106000091GF104991031021004501001011KA1240N+02421MA1999999099291MD1999999-0121REMSYN076AAXX  11124 82571 32497 41102 10279 20231 39929 40102 83201 333 20242 59012;EQDQ01  00002PRCP06
0167825710999992005041118004-05500-045267FM-12+017499999V0200901N001012200019N0100001N1+03151+02391100731ADDAA106000091GF104991031021004501001011MA1999999099011MD1999999-0091REMSYN070AAXX  11184 82571 32497 40902 10315 20239 39901 40073 83201 333 59009;EQDQ01  00002PRCP06
0236825710999992005041200004-05500-045267FM-12+017499999V0209999C000012200019N0100001N1+02731+02431100991ADDAA106000091AY101061AY201061GA1001+999999999GF100991001001999999001001KA1240M+03261MA1999999099261MD1999999+0031MW1131REMSYN088AAXX  12004 82571 31997 00000 10273 20243 39926 40099 71300 333 10326 29076 55099 58003;EQDQ01  00002PRCP06
0186825710999992005041212004-05500-045267FM-12+017499999V0200501N001010450019N0100001N1+02601+02401101181ADDAA106000091GF106991041021004501031011KA1240N+02351MA1999999099441MD1999999+0151REMSYN076AAXX  12124 82571 32497 60502 10260 20240 39944 40118 84231 333 20235 58015;EQDQ01  00002PRCP06
0167825710999992005041218004-05500-045267FM-12+017499999V0202001N001010450019N0100001N1+02991+02491100901ADDAA106000091GF106991011021004501071011MA1999999099171MD1999999+0161REMSYN070AAXX  12184 82571 32497 62002 10299 20249 39917 40090 81271 333 58016;EQDQ01  00002PRCP06
0198825710999992005041300004-05500-045267FM-12+017499999V0201101N001012200019N0100001N1+02671+02481101091ADDAA106000091GF102991011021004501011001KA1240M+03021MA1999999099351MD1999999+0091REMSYN088AAXX  13004 82571 32497 21102 10267 20248 39935 40109 81210 333 10302 29085 55014 58009;EQDQ01  00002PRCP06
0186825710999992005041312004-05500-045267FM-12+017499999V0200201N002112200019N0100001N1+02811+02501101201ADDAA106000091GF104991031021004501031001KA1240N+02501MA1999999099471MD1999999+0031REMSYN076AAXX  13124 82571 32497 40204 10281 20250 39947 40120 83230 333 20250 58003;EQDQ01  00002PRCP06
0167825710999992005041318004-05500-045267FM-12+017499999V0200701N002112200019N0100001N1+03201+02431100761ADDAA106000091GF104991021021004501041011MA1999999099051MD1999999-0121REMSYN070AAXX  13184 82571 32497 40704 10320 20243 39905 40076 82241 333 59012;EQDQ01  00002PRCP06
0226825710999992005041400004-05500-045267FM-12+017499999V0201401N001012200019N0100001N1+02631+02421101031ADDAA106000091AY191061AY201061GF103991031001017501041001KA1240M+03301MA1999999099301MD1999999-0051MW1131REMSYN094AAXX  14004 82571 31797 31402 10263 20242 39930 40103 71390 83040 333 10330 29081 55091 59005;EQDQ01  00002PRCP06
0186825710999992005041412004-05500-045267FM-12+017499999V0200901N001012200019N0100001N1+02671+02391101181ADDAA106000091GF103991011021004501031011KA1240N+02341MA1999999099441MD1999999-0031REMSYN076AAXX  14124 82571 32497 30902 10267 20239 39944 40118 81231 333 20234 59003;EQDQ01  00002PRCP06
0167825710999992005041418004-05500-045267FM-12+017499999V0200901N002112200019N0100001N1+03191+02411100741ADDAA106000091GF104991031021004501031001MA1999999099021MD1999999-0031REMSYN070AAXX  14184 82571 32497 40904 10319 20241 39902 40074 83230 333 59003;EQDQ01  00002PRCP06
0226825710999992005041500004-05500-045267FM-12+017499999V0200501N001012200019N0100001N1+02781+02481101011ADDAA106000091AY101061AY201061GF104991041001017501041001KA1240M+03291MA1999999099281MD1999999-0021MW1131REMSYN094AAXX  15004 82571 31797 40502 10278 20248 39928 40101 71300 84040 333 10329 29079 55092 59002;EQDQ01  00002PRCP06
0186825710999992005041512004-05500-045267FM-12+017499999V0201101N001010042019N0100001N1+02581+02441101211ADDAA106000091GF108991081051004501999999KA1240N+02401MA1999999099471MD1999999+0031REMSYN076AAXX  15124 82571 32497 81102 10258 20244 39947 40121 885// 333 20240 58003;EQDQ01  00002PRCP06
0171825710999992005041518004-05500-045267FM-12+017499999V0202301N001010450019N0100001N1+02901+02521100871ADDAY161061AY211061GF106991021021004501041011MA1999999099141MD1999999+0121MW1011REMSYN082AAXX  15184 82571 21497 62302 10290 20252 39914 40087 70161 82241 333 58012 60061;
0198825710999992005041600004-05500-045267FM-12+017499999V0201401N001012200019N0100001N1+02691+02541101091ADDAA106000091GF102991021001017501041001KA1240M+03181MA1999999099351MD1999999+0071REMSYN088AAXX  16004 82571 32797 21402 10269 20254 39935 40109 82040 333 10318 29088 55030 58007;EQDQ01  00002PRCP06
0162825710999992005041612004-05500-045267FM-12+017499999V0200501N001010042019N0100001N1+02651+02481101321ADDGF106991051051004501031001KA1240N+02421MA1999999099581MD1999999+0111REMSYN082AAXX  16124 82571 22497 60502 10265 20248 39958 40132 85530 333 20242 58011 60064;
0167825710999992005041618004-05500-045267FM-12+017499999V0200501N001011050019N0100001N1+03101+02441100901ADDAA106000091GF105991021021004501031011MA1999999099181MD1999999+0041REMSYN070AAXX  16184 82571 32497 50502 10310 20244 39918 40090 82231 333 58004;EQDQ01  00002PRCP06
0189825710999992005041700004-05500-045270FM-12+015399999V0209999C000012200019N0100001N1+02591+02461101181ADDAY161061AY211061GF104991041041004501001001MA1999999099441MD1999999+0091MW1021REMSYN100AAXX  17004 82571 21497 40000 10259 20246 39944 40118 70261 84400 333 10316 29086 55046 58009 60041;
0177825710999992005041712004-05500-045270FM-12+015399999V0203601N001012200019N0100001N1+02711+02431101291ADDAY151061AY241061GF105991031021004501001011MA1999999099551MD1999999-0031MW1021REMSYN088AAXX  17124 82571 21497 53602 10271 20243 39955 40129 70254 83201 333 20235 59003 60044;
0171825710999992005041718004-05500-045270FM-12+015399999V0200501N001012200019N0100001N1+03151+02551100941ADDAY121061AY211061GF105991041021004501001011MA1999999099211MD1999999+0031MW1511REMSYN082AAXX  17184 82571 21497 50502 10315 20255 39921 40094 75121 84201 333 58003 69911;
0202825710999992005041800004-05500-045267FM-12+017499999V0201401N001010042019N0100001N1+02551+02471101071ADDAY191061AY261061GF106991061071004501001001KA1240M+03271MA1999999099331MD1999999-0111MW1031REMSYN100AAXX  18004 82571 21497 61402 10255 20247 39933 40107 70396 86700 333 10327 29086 55076 59011 60161;
0190825710999992005041812004-05500-045267FM-12+017499999V0203601N001012200019N0100001N1+02531+02511101111ADDAY151061AY241061GF104991031021004501001011KA1240N+02321MA1999999099361MD1999999-0191MW1281REMSYN088AAXX  18124 82571 21497 43602 10253 20251 39936 40111 72854 83201 333 20232 59019 60164;
0167825710999992005041818004-05500-045267FM-12+017499999V0200501N001012200019N0100001N1+03191+02461100691ADDAA106000091GF105991031021004501001011MA1999999098971MD1999999-0241REMSYN070AAXX  18184 82571 32497 50502 10319 20246 39897 40069 83201 333 59024;EQDQ01  00002PRCP06
0202825710999992005041900004-05500-045267FM-12+017499999V0202301N001010450019N0100001N1+02551+02461100991ADDAY161061AY201061GF106991041051004501031001KA1240M+03261MA1999999099251MD1999999-0081MW1021REMSYN100AAXX  19004 82571 21497 62302 10255 20246 39925 40099 70260 84530 333 10326 29088 55062 59008 60031;
0209825710999992005041912004-05500-045267FM-12+017499999V0200201N001010042019N0100001N1+02421+02351101151ADDAY161061AY221061GF107991051051004501031001KA1240N+02351MA1999999099401MD1999999+0041MW1242REMSYN088AAXX  19124 82571 21497 70202 10242 20235 39940 40115 72462 85530 333 20235 58004 60034;EQDQ01+000002PRSWM1
0148825710999992005041918004-05500-045267FM-12+017499999V0200201N002110450019N0100001N1+03051+02541100731ADDAA106000021GF106991031021004501041001MA1999999099001MD1999999+0031REMSYN070AAXX  19184 82571 32497 60204 10305 20254 39900 40073 83240 333 58003;
0186825710999992005042012004-05500-045267FM-12+017499999V0200501N001010450019N0100001N1+02611+02421101231ADDAA106000091GF106991031021004501031011KA1240N+02391MA1999999099491MD1999999+0091REMSYN076AAXX  20124 82571 32497 60502 10261 20242 39949 40123 83231 333 20239 58009;EQDQ01  00002PRCP06
0171825710999992005042018004-05500-045267FM-12+017499999V0200501N001010450019N0100001N1+02911+02521100871ADDAY191061AY251061GF106991031021004501041001MA1999999099141MD1999999+0141MW1021REMSYN082AAXX  20184 82571 21497 60502 10291 20252 39914 40087 70295 83240 333 58014 69911;
0198825710999992005042100004-05500-045267FM-12+017499999V0209999C000012200019N0100001N1+02671+02541101151ADDAA106000091GF104991041001017501041001KA1240M+03081MA1999999099411MD1999999+0091REMSYN088AAXX  21004 82571 32797 40000 10267 20254 39941 40115 84040 333 10308 29088 55033 58009;EQDQ01  00002PRCP06
0190825710999992005042112004-05500-045267FM-12+017499999V0202301N001010450019N0100001N1+02591+02441101171ADDAY141061AY221061GF106991021021004501041011KA1240N+02381MA1999999099431MD1999999-0061MW1011REMSYN088AAXX  21124 82571 21497 62302 10259 20244 39943 40117 70142 82241 333 20238 59006 69914;
0167825710999992005042118004-05500-045267FM-12+017499999V0200901N001010450019N0100001N1+02981+02441100851ADDAA106000091GF107991011011004501071001MA1999999099121MD1999999-0021REMSYN070AAXX  21184 82571 32497 70902 10298 20244 39912 40085 81170 333 59002;EQDQ01  00002PRCP06
0198825710999992005042200004-05500-045267FM-12+017499999V0209999C000010150019N0100001N1+02711+02561101071ADDAA106000091GF106991061001017501051001KA1240M+03121MA1999999099331MD1999999-0081REMSYN088AAXX  22004 82571 32797 60000 10271 20256 39933 40107 86050 333 10312 29086 55024 59008;EQDQ01  00002PRCP06
0186825710999992005042212004-05500-045267FM-12+017499999V0200901N001010450019N0100001N1+02761+02481101161ADDAA106000091GF105991041021004501031001KA1240N+02371MA1999999099431MD1999999+0001REMSYN076AAXX  22124 82571 32497 50902 10276 20248 39943 40116 84230 333 20237 58000;EQDQ01  00002PRCP06
0167825710999992005042218004-05500-045267FM-12+017499999V0200901N002112200019N0100001N1+03251+02351100691ADDAA106000091GF104991021021004501011011MA1999999098981MD1999999-0141REMSYN070AAXX  22184 82571 32497 40904 10325 20235 39898 40069 82211 333 59014;EQDQ01  00002PRCP06
0198825710999992005042300004-05500-045267FM-12+017499999V0201401N001012200019N0100001N1+02791+02501101011ADDAA106000091GF102991021001017501031001KA1240M+03311MA1999999099281MD1999999-0051REMSYN088AAXX  23004 82571 32797 21402 10279 20250 39928 40101 82030 333 10331 29078 55093 59005;EQDQ01  00002PRCP06
0202825710999992005042312004-05500-045267FM-12+017499999V0201801N001010042019N0100001N1+02631+02461101201ADDAA106000091GF107991999051004501001001KA1240N+02421MA1999999099461MD1999999+0031REMSYN076AAXX  23124 82571 32497 71802 10263 20246 39946 40120 86500 333 20242 58003;EQDQ01+000062SCOTLCQ02  00002PRCP06
0167825710999992005042318004-05500-045267FM-12+017499999V0202301N001010450019N0100001N1+03131+02551100741ADDAA106000091GF106991041051004501041001MA1999999099021MD1999999+0041REMSYN070AAXX  23184 82571 32497 62302 10313 20255 39902 40074 84540 333 58004;EQDQ01  00002PRCP06
0189825710999992005042400004-05500-045270FM-12+015399999V0202701N001010450019N0100001N1+02711+02601100991ADDAY161061AY221061GF106991031051004501031001MA1999999099251MD1999999-0031MW1021REMSYN100AAXX  24004 82571 21497 62702 10271 20260 39925 40099 70262 83530 333 10338 29087 55045 59003 60031;
0177825710999992005042412004-05500-045270FM-12+015399999V0200501N001010042019N0100001N1+02731+02521101231ADDAY141061AY211061GF107991071051004501001001MA1999999099491MD1999999+0031MW1021REMSYN088AAXX  24124 82571 21497 70502 10273 20252 39949 40123 70241 87500 333 20238 58003 60034;
0171825710999992005042418004-05500-045270FM-12+015399999V0203601N001010450019N0100001N1+02871+02521100801ADDAY161061AY221061GF108991041031004501011999MA1999999099071MD1999999+0051MW1021REMSYN082AAXX  24184 82571 21497 83602 10287 20252 39907 40080 70262 8431/ 333 58005 69911;
0198825710999992005042500004-05500-045267FM-12+017499999V0203201N001010042019N0100001N1+02671+02501101141ADDAA106000091GF108991081051004501999999KA1240M+03151MA1999999099401MD1999999+0151REMSYN088AAXX  25004 82571 32497 83202 10267 20250 39940 40114 885// 333 10315 29087 55037 58015;EQDQ01  00002PRCP06
0162825710999992005042512004-05500-045267FM-12+017499999V0202301N001010042019N0100001N1+02591+02441101311ADDGF108991081051004501999999KA1240N+02421MA1999999099571MD1999999+0081REMSYN082AAXX  25124 82571 22497 82302 10259 20244 39957 40131 885// 333 20242 58008 69914;
0171825710999992005042518004-05500-045267FM-12+017499999V0203201N001010042019N0100001N1+02491+02451101021ADDAY191061AY261061GF106991051051004501041001MA1999999099271MD1999999+0201MW1021REMSYN082AAXX  25184 82571 21497 63202 10249 20245 39927 40102 70296 85540 333 58020 60211;
0198825710999992005042600004-05500-045267FM-12+017499999V0201801N001010090019N0100001N1+02481+02431101281ADDAA106000091GF106991061081004501001001KA1240M+03121MA1999999099531MD1999999+0131REMSYN088AAXX  26004 82571 32497 61802 10248 20243 39953 40128 86800 333 10312 29096 55007 58013;EQDQ01  00002PRCP06
0190825710999992005042612004-05500-045267FM-12+017499999V0203201N001010042019N0100001N1+02641+02481101291ADDAY141061AY211061GF106991061051004501001001KA1240N+02401MA1999999099541MD1999999-0031MW1031REMSYN088AAXX  26124 82571 21497 63202 10264 20248 39954 40129 70341 86500 333 20240 59003 60214;
0167825710999992005042618004-05500-045267FM-12+017499999V0200501N001012200019N0100001N1+03201+02411100841ADDAA106000091GF104991021021004501041011MA1999999099121MD1999999-0151REMSYN070AAXX  26184 82571 32497 40502 10320 20241 39912 40084 82241 333 59015;EQDQ01  00002PRCP06
0226825710999992005042700004-05500-045267FM-12+017499999V0200501N001012200019N0100001N1+02761+02521101161ADDAA106000091AY101061AY201061GF102991011031004501041001KA1240M+03301MA1999999099421MD1999999-0111MW1131REMSYN094AAXX  27004 82571 31497 20502 10276 20252 39942 40116 71300 81340 333 10330 29082 55079 59011;EQDQ01  00002PRCP06
0186825710999992005042712004-05500-045267FM-12+017499999V0200201N001010042019N0100001N1+02581+02441101271ADDAA106000091GF107991061051004501031001KA1240N+02371MA1999999099531MD1999999-0011REMSYN076AAXX  27124 82571 32497 70202 10258 20244 39953 40127 86530 333 20237 59001;EQDQ01  00002PRCP06
0167825710999992005042718004-05500-045267FM-12+017499999V0200901N001011050019N0100001N1+03111+02481100841ADDAA106000091GF105991021021004501011011MA1999999099121MD1999999+0001REMSYN070AAXX  27184 82571 32497 50902 10311 20248 39912 40084 82211 333 58000;EQDQ01  00002PRCP06
0226825710999992005042800004-05500-045267FM-12+017499999V0209999C000012200019N0100001N1+02651+02561101131ADDAA106000091AY111061AY201061GF101991011031004501001001KA1240M+03271MA1999999099391MD1999999-0031MW1131REMSYN094AAXX  28004 82571 31497 10000 10265 20256 39939 40113 71310 81300 333 10327 29087 55052 59003;EQDQ01  00002PRCP06
0190825710999992005042812004-05500-045267FM-12+017499999V0200501N002110042019N0100001N1+02621+02481101391ADDAY191061AY261061GF107991071051004501001001KA1240N+02471MA1999999099651MD1999999+0121MW1011REMSYN088AAXX  28124 82571 21497 70504 10262 20248 39965 40139 70196 87500 333 20247 58012 60054;
0171825710999992005042818004-05500-045267FM-12+017499999V0201801N001010450019N0040001N1+02291+02251101081ADDAY161061AY221061GF108991041071004501021999MA1999999099321MD1999999+0201MW1611REMSYN082AAXX  28184 82571 21496 81802 10229 20225 39932 40108 76162 8472/ 333 58020 60131;
0202825710999992005042900004-05500-045267FM-12+017499999V0209999C000010090019N0100001N1+02351+02291101321ADDAY161061AY221061GF106991061081004501001001KA1240M+02921MA1999999099571MD1999999+0181MW1021REMSYN100AAXX  29004 82571 21497 60000 10235 20229 39957 40132 70262 86800 333 10292 29095 55010 58018 69911;
0162825710999992005042912004-05500-045267FM-12+017499999V0202701N001010042019N0100001N1+02431+02271101501ADDGF108991081051004501999999KA1240N+02251MA1999999099741MD1999999+0091REMSYN082AAXX  29124 82571 22497 82702 10243 20227 39974 40150 885// 333 20225 58009 60134;
0167825710999992005042918004-05500-045267FM-12+017499999V0203201N001010450019N0100001N1+02911+02361101191ADDAA106000091GF106991031021004501031001MA1999999099451MD1999999+0131REMSYN070AAXX  29184 82571 32497 63202 10291 20236 39945 40119 83230 333 58013;EQDQ01  00002PRCP06
0208825710999992005043000004-05500-045267FM-12+017499999V0209999C000012200019N0100001N1+02591+02461101481ADDAA106000091GA1001+999999999GF100991001001999999001001KA1240M+03111MA1999999099721MD1999999-0151REMSYN082AAXX  30004 82571 32997 00000 10259 20246 39972 40148 333 10311 29086 55044 59015;EQDQ01  00002PRCP06
0190825710999992005043012004-05500-045267FM-12+017499999V0203201N001010450019N0100001N1+02471+02381101531ADDAY191061AY261061GF106991041051004501031001KA1240N+02241MA1999999099781MD1999999+0041MW1021REMSYN088AAXX  30124 82571 21497 63202 10247 20238 39978 40153 70296 84530 333 20224 58004 60054;
0167825710999992005043018004-05500-045267FM-12+017499999V0200501N001011050019N0100001N1+03031+02411101171ADDAA106000091GF105991021031004501031011MA1999999099431MD1999999-0021REMSYN070AAXX  30184 82571 32497 50502 10303 20241 39943 40117 82331 333 59002;EQDQ01  00002PRCP06
0189825710999992005050100004-05500-045270FM-12+015399999V0209999C000010042019N0100001N1+02351+02291101431ADDAY161061AY221061GF108991081071004501999999MA1999999099671MD1999999-0051MW1021REMSYN100AAXX  01004 82571 21497 80000 10235 20229 39967 40143 70262 887// 333 10310 29089 55037 59005 60021;
