0179825830999992005010100004-05167-040667FM-12+029999999V0200901N002112200019N0040001N1+03031+01601100831ADDAA106000091GF100991001001999999001001MA1999999097511MD1999999-0101REMSYN082AAXX  01004 82583 32996 00904 10303 20160 39751 40083 333 10360 29040 55106 59010;EQDQ01  00002PRCP06
0173825830999992005010112004-05167-040667FM-12+029999999V0200901N005112200019N0500001N1+02871+01831101091ADDAA106000091GF101991011011008001001001MA1999999097751MD1999999-0101REMSYN076AAXX  01124 82583 32599 10910 10287 20183 39775 40109 81100 333 20233 59010;EQDQ01  00002PRCP06
0173825830999992005010212004-05167-040667FM-12+029999999V0200901N005710075019N0500001N1+02651+01921101311ADDAA106000091GF107991071021008001001001MA1999999097961MD1999999+0211REMSYN076AAXX  02124 82583 32599 70911 10265 20192 39796 40131 87200 333 20231 58021;EQDQ01  00002PRCP06
0179825830999992005010300004-05167-040667FM-12+029999999V0200501N002112200019N0040001N1+03001+01491100961ADDAA106000091GF100991001001999999001001MA1999999097621MD1999999+0021REMSYN082AAXX  03004 82583 32996 00504 10300 20149 39762 40096 333 10360 29042 55074 58002;EQDQ01  00002PRCP06
0173825830999992005010312004-05167-040667FM-12+029999999V0200901N004612200019N0500001N1+02901+01841101251ADDAA106000091GF103991031011008001001001MA1999999097911MD1999999-0051REMSYN076AAXX  03124 82583 32599 30909 10290 20184 39791 40125 83100 333 20235 59005;EQDQ01  00002PRCP06
0179825830999992005010400004-05167-040667FM-12+029999999V0200501N001512200019N0040001N1+03001+01411100911ADDAA106000091GF100991001001999999001001MA1999999097591MD1999999-0031REMSYN082AAXX  04004 82583 32996 00503 10300 20141 39759 40091 333 10362 29038 55113 59003;EQDQ01  00002PRCP06
0173825830999992005010412004-05167-040667FM-12+029999999V0200901N006712200019N0500001N1+02931+01821101131ADDAA106000091GF102991021011008001001001MA1999999097791MD1999999-0121REMSYN076AAXX  04124 82583 32599 20913 10293 20182 39779 40113 82100 333 20246 59012;EQDQ01  00002PRCP06
0179825830999992005010500004-05167-040667FM-12+029999999V0200501N002112200019N0040001N1+03071+01271100761ADDAA106000091GF100991001001999999001001MA1999999097441MD1999999-0151REMSYN082AAXX  05004 82583 32996 00504 10307 20127 39744 40076 333 10373 29034 55110 59015;EQDQ01  00002PRCP06
0173825830999992005010512004-05167-040667FM-12+029999999V0200901N008212200019N0500001N1+02881+01801101121ADDAA106000091GF102991011011008001001011MA1999999097791MD1999999+0001REMSYN076AAXX  05124 82583 32599 20916 10288 20180 39779 40112 81101 333 20236 58000;EQDQ01  00002PRCP06
0179825830999992005010600004-05167-040667FM-12+029999999V0200901N003112200019N0040001N1+03041+01451100731ADDAA106000091GF100991001001999999001001MA1999999097411MD1999999-0031REMSYN082AAXX  06004 82583 32996 00906 10304 20145 39741 40073 333 10363 29038 55099 59003;EQDQ01  00002PRCP06
0173825830999992005010612004-05167-040667FM-12+029999999V0200901N006212200019N0500001N1+02931+01721101051ADDAA106000091GF101991011011008001001001MA1999999097731MD1999999-0061REMSYN076AAXX  06124 82583 32599 10912 10293 20172 39773 40105 81100 333 20235 59006;EQDQ01  00002PRCP06
0179825830999992005010700004-05167-040667FM-12+029999999V0200501N002612200019N0040001N1+03071+01311100741ADDAA106000091GF100991001001999999001001MA1999999097421MD1999999+0011REMSYN082AAXX  07004 82583 32996 00505 10307 20131 39742 40074 333 10367 29035 55110 58001;EQDQ01  00002PRCP06
0173825830999992005010712004-05167-040667FM-12+029999999V0200901N004612200019N0500001N1+02911+01921101021ADDAA106000091GF102991021011008001001001MA1999999097701MD1999999-0031REMSYN076AAXX  07124 82583 32599 20909 10291 20192 39770 40102 82100 333 20244 59003;EQDQ01  00002PRCP06
0179825830999992005010800004-05167-040667FM-12+029999999V0200901N003112200019N0040001N1+03181+01101100701ADDAA106000091GF100991001001999999001001MA1999999097391MD1999999-0031REMSYN082AAXX  08004 82583 32996 00906 10318 20110 39739 40070 333 10378 29033 55106 59003;EQDQ01  00002PRCP06
0173825830999992005010812004-05167-040667FM-12+029999999V0200901N003110120019N0500001N1+02881+02051101041ADDAA106000091GF107991071081008001001001MA1999999097721MD1999999+0021REMSYN076AAXX  08124 82583 32599 70906 10288 20205 39772 40104 87800 333 20233 58002;EQDQ01  00002PRCP06
0185825830999992005010900004-05170-040670FM-12+029999999V0200901N001012200019N0040001N1+03181+01531100711ADDAA106000091GF102991021021008001001001MA1999999097401MD1999999+0011REMSYN088AAXX  09004 82583 32596 20902 10318 20153 39740 40071 82200 333 10369 29041 55088 58001;EQDQ01  00002PRCP06
0173825830999992005010912004-05170-040670FM-12+029999999V0200901N004610075019N0500001N1+02921+01921101091ADDAA106000091GF106991061021008001001001MA1999999097771MD1999999+0051REMSYN076AAXX  09124 82583 32599 60909 10292 20192 39777 40109 86200 333 20241 58005;EQDQ01  00002PRCP06
0189825830999992005011000004-05167-040667FM-12+029999999V0200501N003112200019N0040001N1+03121+01951100701ADDAY161061AY261061GF102991021011008001001001MA1999999097351MD1999999-0021MW1021REMSYN100AAXX  10004 82583 21596 20506 10312 20195 39735 40070 70266 82100 333 10363 29046 55083 59002 60031;
0149825830999992005011012004-05167-040667FM-12+029999999V0200501N002610075019N0500001N1+02911+02011100991ADDGF107991051021008001001011MA1999999097671MD1999999-0101REMSYN082AAXX  10124 82583 22599 70505 10291 20201 39767 40099 85201 333 20246 59010 60024;
0185825830999992005011100004-05167-040667FM-12+029999999V0200901N003612200019N0040001N1+03171+01401100761ADDAA106000091GF102991021011008001001001MA1999999097451MD1999999+0071REMSYN088AAXX  11004 82583 32596 20907 10317 20140 39745 40076 82100 333 10364 29038 55064 58007;EQDQ01  00002PRCP06
0173825830999992005011112004-05167-040667FM-12+029999999V0200501N003610120019N0500001N1+02661+02001101111ADDAA106000091GF108991081081008001999999MA1999999097771MD1999999+0101REMSYN076AAXX  11124 82583 32599 80507 10266 20200 39777 40111 888// 333 20244 58010;EQDQ01  00002PRCP06
0185825830999992005011200004-05167-040667FM-12+029999999V0200901N002612200019N0040001N1+03071+01521100771ADDAA106000091GF102991021011008001001001MA1999999097431MD1999999-0021REMSYN088AAXX  12004 82583 32596 20905 10307 20152 39743 40077 82100 333 10361 29043 55056 59002;EQDQ01  00002PRCP06
0173825830999992005011212004-05167-040667FM-12+029999999V0200501N003112200019N0500001N1+02871+01941101011ADDAA106000091GF104991031011008001031001MA1999999097681MD1999999-0091REMSYN076AAXX  12124 82583 32599 40506 10287 20194 39768 40101 83130 333 20238 59009;EQDQ01  00002PRCP06
0156825830999992005011300004-05167-040667FM-12+029999999V0200501N005112200019N0040001N1+03161+01751999999ADDAA106000091GF102991999999008001999999REMSYN088AAXX  13004 82583 32596 20510 10316 20175 29741 40073 82000 333 10372 29042 55102 59002;EQDQ01  00002PRCP06
0173825830999992005011312004-05167-040667FM-12+029999999V0200901N003110075019N0500001N1+02891+02041100991ADDAA106000091GF107991061021008001021001MA1999999097671MD1999999-0011REMSYN076AAXX  13124 82583 32599 70906 10289 20204 39767 40099 86220 333 20249 59001;EQDQ01  00002PRCP06
0179825830999992005011400004-05167-040667FM-12+029999999V0209999C000012200019N0040001N1+03081+01851100751ADDAA106000091GF100991001001999999001001MA1999999097431MD1999999+0021REMSYN082AAXX  14004 82583 32996 01400 10308 20185 39743 40075 333 10348 29047 55026 58002;EQDQ01  00002PRCP06
0173825830999992005011412004-05167-040667FM-12+029999999V0203601N001010075019N0500001N1+02661+02141100961ADDAA106000091GF108991081051008001999999MA1999999097621MD1999999-0051REMSYN076AAXX  14124 82583 32599 83602 10266 20214 39762 40096 885// 333 20244 59005;EQDQ01  00002PRCP06
0189825830999992005011500004-05167-040667FM-12+029999999V0200501N008210120019N0040001N1+02741+02101100811ADDAY121061AY221061GF107991071081008001001001MA1999999097461MD1999999+0031MW1611REMSYN100AAXX  15004 82583 21596 70516 10274 20210 39746 40081 76122 87800 333 10363 29060 55063 58003 69911;
0177825830999992005011512004-05167-040667FM-12+029999999V0200901N002610075019N0500001N1+02591+02271101011ADDAY191061AY291061GF108991081051008001999999MA1999999097651MD1999999+0031MW1021REMSYN088AAXX  15124 82583 21599 80905 10259 20227 39765 40101 70299 885// 333 20219 58003 60224;
0189825830999992005011600004-05167-040667FM-12+029999999V0202301N002110075019N0040001N1+02791+02311100811ADDAY161061AY261061GF108991081051008001999999MA1999999097461MD1999999+0001MW1021REMSYN100AAXX  16004 82583 21596 82304 10279 20231 39746 40081 70266 885// 333 10317 29067 55009 58000 69951;
0149825830999992005011612004-05167-040667FM-12+029999999V0200901N033910120019N0500001N1+02821+02151100931ADDGF108991081081008001999999MA1999999097591MD1999999-0061REMSYN082AAXX  16124 82583 22599 80966 10282 20215 39759 40093 888// 333 20240 59006 69954;
0185825830999992005011700004-05170-040670FM-12+029999999V0203601N005110075019N0040001N1+02411+02231100831ADDAA106000091GF108991061061008001021999MA1999999097471MD1999999+0011REMSYN088AAXX  17004 82583 32596 83610 10241 20223 39747 40083 8662/ 333 10315 29073 55010 58001;EQDQ01  00002PRCP06
0177825830999992005011712004-05170-040670FM-12+029999999V0203601N000510075019N0500001N1+02511+02271100971ADDAY161061AY261061GF108991081051008001999999MA1999999097591MD1999999+0001MW1021REMSYN088AAXX  17124 82583 21599 83601 10251 20227 39759 40097 70266 885// 333 20220 58000 60054;
0185825830999992005011800004-05167-040667FM-12+029999999V0203601N002610075019N0040001N1+02441+02071100841ADDAA106000091GF108991081051008001999999MA1999999097481MD1999999+0011REMSYN088AAXX  18004 82583 32596 83605 10244 20207 39748 40084 885// 333 10304 29075 55009 58001;EQDQ01  00002PRCP06
0173825830999992005011812004-05167-040667FM-12+029999999V0200501N003110075019N0500001N1+02711+01771100871ADDAA106000091GF108991081061008001999999MA1999999097501MD1999999-0091REMSYN076AAXX  18124 82583 32599 80506 10271 20177 39750 40087 886// 333 20225 59009;EQDQ01  00002PRCP06
0185825830999992005011900004-05167-040667FM-12+029999999V0203601N001512200019N0040001N1+02731+02101100721ADDAA106000091GF101991001001999999001011MA1999999097381MD1999999-0101REMSYN088AAXX  19004 82583 32996 13603 10273 20210 39738 40072 80001 333 10321 29056 55011 59010;EQDQ01  00002PRCP06
0173825830999992005011912004-05167-040667FM-12+029999999V0203601N001510120019N0500001N1+02731+02101101071ADDAA106000091GF106991061081008001001001MA1999999097721MD1999999+0221REMSYN076AAXX  19124 82583 32599 63603 10273 20210 39772 40107 86800 333 20229 58022;EQDQ01  00002PRCP06
0189825830999992005012000004-05167-040667FM-12+029999999V0203601N001510042019N0020001N1+02361+02241101031ADDAY161061AY261061GF108991081051004501999999MA1999999097651MD1999999+0271MW1611REMSYN100AAXX  20004 82583 21495 83603 10236 20224 39765 40103 76166 885// 333 10346 29072 55061 58027 60041;
0177825830999992005012012004-05167-040667FM-12+029999999V0200501N003110075019N0500001N1+02691+02241101171ADDAY161061AY251061GF106991051021008001001011MA1999999097791MD1999999+0071MW1021REMSYN088AAXX  20124 82583 21599 60506 10269 20224 39779 40117 70265 85201 333 20232 58007 60084;
0185825830999992005012100004-05167-040667FM-12+029999999V0203601N002119999999N0040001N1+02831+01911100911ADDAA106000091GF105991001001999999001021MA1999999097561MD1999999-0091REMSYN088AAXX  21004 82583 32896 53604 10283 20191 39756 40091 80002 333 10338 29054 55058 59009;EQDQ01  00002PRCP06
0173825830999992005012112004-05167-040667FM-12+029999999V0200901N003110075019N0500001N1+02741+02211101121ADDAA106000091GF107991061051008001031001MA1999999097761MD1999999-0031REMSYN076AAXX  21124 82583 32599 70906 10274 20221 39776 40112 86530 333 20229 59003;EQDQ01  00002PRCP06
0185825830999992005012200004-05167-040667FM-12+029999999V0200901N000510075019N0040001N1+02861+02091100901ADDAA106000091GF108991081051008001999999MA1999999097561MD1999999+0001REMSYN088AAXX  22004 82583 32596 80901 10286 20209 39756 40090 885// 333 10337 29058 55028 58000;EQDQ01  00002PRCP06
0173825830999992005012212004-05167-040667FM-12+029999999V0200901N002610075019N0500001N1+02761+02141101181ADDAA106000091GF108991081051008001999999MA1999999097831MD1999999+0071REMSYN076AAXX  22124 82583 32599 80905 10276 20214 39783 40118 885// 333 20244 58007;EQDQ01  00002PRCP06
0189825830999992005012300004-05170-040670FM-12+029999999V0203601N003112200019N0040001N1+02741+02121100991ADDAY161061AY261061GF102991001001999999001031MA1999999097641MD1999999+0081MW1011REMSYN100AAXX  23004 82583 21996 23606 10274 20212 39764 40099 70166 80003 333 10347 29063 55034 58008 60051;
0149825830999992005012312004-05170-040670FM-12+029999999V0203201N001010075019N0040001N1+02591+02251101331ADDGF108991081051008001999999MA1999999097961MD1999999+0131REMSYN082AAXX  23124 82583 22596 83202 10259 20225 39796 40133 885// 333 20238 58013 60054;
0185825830999992005012400004-05170-040670FM-12+029999999V0200501N002112200019N0040001N1+02621+02071101031ADDAA106000091GF103991031051008001001001MA1999999097661MD1999999+0021REMSYN088AAXX  24004 82583 32596 30504 10262 20207 39766 40103 83500 333 10321 29066 55039 58002;EQDQ01  00002PRCP06
0173825830999992005012412004-05170-040670FM-12+029999999V0203201N002110120019N0500001N1+02691+02261101141ADDAA106000091GF106991061081008001001001MA1999999097781MD1999999-0181REMSYN076AAXX  24124 82583 32599 63204 10269 20226 39778 40114 86800 333 20245 59018;EQDQ01  00002PRCP06
0185825830999992005012500004-05167-040667FM-12+029999999V0203201N000510120019N0040001N1+02771+02321101021ADDAA106000091GF108991081081008001999999MA1999999097661MD1999999+0001REMSYN088AAXX  25004 82583 32596 83201 10277 20232 39766 40102 888// 333 10317 29069 55049 58000;EQDQ01  00002PRCP06
0177825830999992005012512004-05167-040667FM-12+029999999V0203601N002110075019N0500001N1+02571+02291101101ADDAY191061AY291061GF106991051051008001001011MA1999999097741MD1999999-0041MW1021REMSYN088AAXX  25124 82583 21599 63604 10257 20229 39774 40110 70299 85501 333 20230 59004 60444;
0189825830999992005012600004-05167-040667FM-12+029999999V0202301N004610075019N0020001N1+02581+02191101021ADDAY121061AY221061GF108991081091008001999999MA1999999097651MD1999999-0011MW1951REMSYN100AAXX  26004 82583 21595 82309 10258 20219 39765 40102 79522 889// 333 10326 29072 55077 59001 60101;
0177825830999992005012612004-05167-040667FM-12+029999999V0200901N001510075019N0500001N1+02261+02181101431ADDAY191061AY261061GF108991081051008001999999MA1999999098031MD1999999+0291MW1611REMSYN088AAXX  26124 82583 21599 80903 10226 20218 39803 40143 76196 885// 333 20213 58029 61144;
0189825830999992005012700004-05167-040667FM-12+029999999V0202701N000510075019N0040001N1+02561+02331101011ADDAY161061AY261061GF105991051091008001001001MA1999999097621MD1999999-0031MW1021REMSYN100AAXX  27004 82583 21596 52701 10256 20233 39762 40101 70266 85900 333 10306 29084 55036 59003 69951;
0149825830999992005012712004-05167-040667FM-12+029999999V0200901N002612200019N0500001N1+02761+02281101271ADDGF104991041021008001001001MA1999999097901MD1999999-0131REMSYN082AAXX  27124 82583 22599 40905 10276 20228 39790 40127 84200 333 20222 59013 69954;
0179825830999992005012800004-05167-040667FM-12+029999999V0200901N001012200019N0040001N1+02751+02541100821ADDAA106000091GF100991001001999999001001MA1999999097481MD1999999+0141REMSYN082AAXX  28004 82583 32996 00902 10275 20254 39748 40082 333 10339 29076 55104 58014;EQDQ01  00002PRCP06
0173825830999992005012812004-05167-040667FM-12+029999999V0200901N002110075019N0500001N1+02651+02181101171ADDAA106000091GF107991051051008001001021MA1999999097811MD1999999-0091REMSYN076AAXX  28124 82583 32599 70904 10265 20218 39781 40117 85502 333 20237 59009;EQDQ01  00002PRCP06
0185825830999992005012900004-05167-040667FM-12+029999999V0203201N001012200019N0040001N1+02801+02361100781ADDAA106000091GF102991021011008001001001MA1999999097431MD1999999-0051REMSYN088AAXX  29004 82583 32596 23202 10280 20236 39743 40078 82100 333 10322 29070 55062 59005;EQDQ01  00002PRCP06
0173825830999992005012912004-05167-040667FM-12+029999999V0200501N004610075019N0500001N1+02621+02181100941ADDAA106000091GF106991061051008001001001MA1999999097581MD1999999-0231REMSYN076AAXX  29124 82583 32599 60509 10262 20218 39758 40094 86500 333 20225 59023;EQDQ01  00002PRCP06
0195825830999992005013000004-05170-040670FM-12+029999999V0209999C000012200019N0040001N1+02691+02371100731ADDAA106000091GA1001+999999999GF100991001001999999001001MA1999999097371MD1999999-0061REMSYN082AAXX  30004 82583 32996 03200 10269 20237 39737 40073 333 10312 29072 55058 59006;EQDQ01  00002PRCP06
0173825830999992005013012004-05170-040670FM-12+029999999V0200501N004110075019N0500001N1+02631+02161100891ADDAA106000091GF106991061021008001001001MA1999999097541MD1999999-0041REMSYN076AAXX  30124 82583 32599 60508 10263 20216 39754 40089 86200 333 20229 59004;EQDQ01  00002PRCP06
0198825830999992005013100004-05167-040667FM-12+029999999V0203201N000512200019N0040001N1+02691+02261100681ADDAA106000091GF102991021051008001001001KA1240M+03261MA1999999097341MD1999999-0031REMSYN088AAXX  31004 82583 32596 23201 10269 20226 39734 40068 82500 333 10326 29070 55079 59003;EQDQ01  00002PRCP06
0186825830999992005013112004-05167-040667FM-12+029999999V0200501N003610120019N0500001N1+02631+02091100901ADDAA106000091GF105991051081008001001001KA1240N+02201MA1999999097541MD1999999+0001REMSYN076AAXX  31124 82583 32599 50507 10263 20209 39754 40090 85800 333 20220 58000;EQDQ01  00002PRCP06
0185825830999992005020100004-05167-040667FM-12+029999999V0202701N001012200019N0040001N1+02691+02111100671ADDAA106000091GF102991021011008001001001MA1999999097321MD1999999-0021REMSYN088AAXX  01004 82583 32596 22702 10269 20211 39732 40067 82100 333 10331 29062 55098 59002;EQDQ01  00002PRCP06
0173825830999992005020112004-05167-040667FM-12+029999999V0200901N001510120019N0500001N1+02641+02091100961ADDAA106000091GF107991051081008001031001MA1999999097601MD1999999+0061REMSYN076AAXX  01124 82583 32599 70903 10264 20209 39760 40096 85830 333 20228 58006;EQDQ01  00002PRCP06
0185825830999992005020200004-05167-040667FM-12+029999999V0203601N002610075019N0040001N1+02771+02161100741ADDAA106000091GF106991061051008001001001MA1999999097391MD1999999+0071REMSYN088AAXX  02004 82583 32596 63605 10277 20216 39739 40074 86500 333 10338 29064 55067 58007;EQDQ01  00002PRCP06
0173825830999992005020212004-05167-040667FM-12+029999999V0200501N003112200019N0500001N1+02831+02191100831ADDAA106000091GF102991011011008001001011MA1999999097491MD1999999-0111REMSYN076AAXX  02124 82583 32599 20506 10283 20219 39749 40083 81101 333 20237 59011;EQDQ01  00002PRCP06
0185825830999992005020300004-05167-040667FM-12+029999999V0200901N001512200019N0040001N1+02711+02031100661ADDAA106000091GF101991011011008001001001MA1999999097321MD1999999-0071REMSYN088AAXX  03004 82583 32596 10903 10271 20203 39732 40066 81100 333 10340 29058 55096 59007;EQDQ01  00002PRCP06
0173825830999992005020312004-05167-040667FM-12+029999999V0200901N004110450019N0500001N1+02761+02161100991ADDAA106000091GF105991021011008001031001MA1999999097641MD1999999+0151REMSYN076AAXX  03124 82583 32599 50908 10276 20216 39764 40099 82130 333 20248 58015;EQDQ01  00002PRCP06
0185825830999992005020400004-05167-040667FM-12+029999999V0209999C000012200019N0040001N1+02801+02111100781ADDAA106000091GF102991021011008001001001MA1999999097441MD1999999+0121REMSYN088AAXX  04004 82583 32596 20900 10280 20211 39744 40078 82100 333 10344 29058 55090 58012;EQDQ01  00002PRCP06
0173825830999992005020412004-05167-040667FM-12+029999999V0200901N004612200019N0500001N1+02831+02221101111ADDAA106000091GF102991011011008001001011MA1999999097761MD1999999+0121REMSYN076AAXX  04124 82583 32599 20909 10283 20222 39776 40111 81101 333 20236 58012;EQDQ01  00002PRCP06
0185825830999992005020500004-05167-040667FM-12+029999999V0200901N000512200019N0040001N1+02811+01941101021ADDAA106000091GF104991041011008001001001MA1999999097671MD1999999+0231REMSYN088AAXX  05004 82583 32596 40901 10281 20194 39767 40102 84100 333 10345 29062 55100 58023;EQDQ01  00002PRCP06
0173825830999992005020512004-05167-040667FM-12+029999999V0200501N003610075019N0500001N1+02771+02161101291ADDAA106000091GF106991061021008001001001MA1999999097941MD1999999+0181REMSYN076AAXX  05124 82583 32599 60507 10277 20216 39794 40129 86200 333 20229 58018;EQDQ01  00002PRCP06
0185825830999992005020600004-05170-040670FM-12+029999999V0201801N002610120019N0040001N1+02871+02051100961ADDAA106000091GF107991071081008001001001MA1999999097621MD1999999-0051REMSYN088AAXX  06004 82583 32596 71805 10287 20205 39762 40096 87800 333 10354 29055 55091 59005;EQDQ01  00002PRCP06
0173825830999992005020612004-05170-040670FM-12+029999999V0200901N003112200019N0500001N1+02791+02201101141ADDAA106000091GF103991999011008001001001MA1999999097801MD1999999-0141REMSYN076AAXX  06124 82583 32599 30906 10279 20220 39780 40114 82100 333 20229 59014;EQDQ01  00002PRCP06
0185825830999992005020700004-05167-040667FM-12+029999999V0203601N002619999999N0040001N1+02841+02091100791ADDAA106000091GF107991999021008001001001MA1999999097451MD1999999-0171REMSYN088AAXX  07004 82583 32596 73605 10284 20209 39745 40079 83200 333 10348 29059 55092 59017;EQDQ01  00002PRCP06
0173825830999992005020712004-05167-040667FM-12+029999999V0200901N003610075019N0500001N1+02701+02201100991ADDAA106000091GF107991071021008001001001MA1999999097651MD1999999-0151REMSYN076AAXX  07124 82583 32599 70907 10270 20220 39765 40099 87200 333 20247 59015;EQDQ01  00002PRCP06
0185825830999992005020800004-05167-040667FM-12+029999999V0200901N000512200019N0040001N1+02941+02031100721ADDAA106000091GF102991021011008001001001MA1999999097381MD1999999-0071REMSYN088AAXX  08004 82583 32596 20901 10294 20203 39738 40072 82100 333 10331 29058 55072 59007;EQDQ01  00002PRCP06
0173825830999992005020812004-05167-040667FM-12+029999999V0200901N004610120019N0500001N1+02661+02091101011ADDAA106000091GF108991081081008001999999MA1999999097661MD1999999+0011REMSYN076AAXX  08124 82583 32599 80909 10266 20209 39766 40101 888// 333 20242 58001;EQDQ01  00002PRCP06
0179825830999992005020900004-05167-040667FM-12+029999999V0203601N001012200019N0040001N1+02751+02041100841ADDAA106000091GF100991001001999999001001MA1999999097491MD1999999+0111REMSYN082AAXX  09004 82583 32996 03602 10275 20204 39749 40084 333 10326 29060 55056 58011;EQDQ01  00002PRCP06
0173825830999992005020912004-05167-040667FM-12+029999999V0200901N004610075019N0500001N1+02671+02111101011ADDAA106000091GF106991061021008001001001MA1999999097651MD1999999-0011REMSYN076AAXX  09124 82583 32599 60909 10267 20211 39765 40101 86200 333 20224 59001;EQDQ01  00002PRCP06
0179825830999992005021000004-05167-040667FM-12+029999999V0203601N001012200019N0040001N1+02861+02031100691ADDAA106000091GF100991001001999999001001MA1999999097611MD1999999-0141REMSYN082AAXX  10004 82583 32996 03602 10286 20203 39761 40069 333 10335 29058 55087 59014;EQDQ01  00002PRCP06
0173825830999992005021012004-05167-040667FM-12+029999999V0200501N003110120019N0500001N1+02651+02041100961ADDAA106000091GF108991081081008001999999MA1999999097611MD1999999-0041REMSYN076AAXX  10124 82583 32599 80506 10265 20204 39761 40096 888// 333 20235 59004;EQDQ01  00002PRCP06
0185825830999992005021100004-05167-040667FM-12+029999999V0203201N000512200019N0040001N1+02871+02251100711ADDAA106000091GF102991021011008001001001MA1999999097371MD1999999+0021REMSYN088AAXX  11004 82583 32596 23201 10287 20225 39737 40071 82100 333 10334 29062 55077 58002;EQDQ01  00002PRCP06
0177825830999992005021112004-05167-040667FM-12+029999999V0200501N002110075019N0500001N1+02701+02221100961ADDAY151061AY251061GF108991051051008001021999MA1999999097621MD1999999+0011MW1021REMSYN088AAXX  11124 82583 21599 80504 10270 20222 39762 40096 70255 8552/ 333 20246 58001 69914;
0185825830999992005021200004-05167-040667FM-12+029999999V0201401N002612200019N0040001N1+02781+02131100811ADDAA106000091GF101991011011008001001001MA1999999097461MD1999999+0091REMSYN088AAXX  12004 82583 32596 11405 10278 20213 39746 40081 81100 333 10329 29064 55032 58009;EQDQ01  00002PRCP06
0177825830999992005021212004-05167-040667FM-12+029999999V0200901N003110075019N0500001N1+02551+02271101021ADDAY161061AY261061GF107991071051008001001001MA1999999097661MD1999999+0041MW1021REMSYN088AAXX  12124 82583 21599 70906 10255 20227 39766 40102 70266 87500 333 20230 58004 60024;
0185825830999992005021300004-05170-040670FM-12+029999999V0203601N001012200019N0040001N1+02601+02251101081ADDAA106000091GF104991041011008001001001MA1999999097711MD1999999+0251REMSYN088AAXX  13004 82583 32596 43602 10260 20225 39771 40108 84100 333 10298 29074 55004 58025;EQDQ01  00002PRCP06
0173825830999992005021312004-05170-040670FM-12+029999999V0200901N003110075019N0500001N1+02761+02231101161ADDAA106000091GF106991061021008001001001MA1999999097801MD1999999+0141REMSYN076AAXX  13124 82583 32599 60906 10276 20223 39780 40116 86200 333 20224 58014;EQDQ01  00002PRCP06
0185825830999992005021400004-05167-040667FM-12+029999999V0203601N003112200019N0040001N1+02971+02151100931ADDAA106000091GF102991021011008001001001MA1999999097601MD1999999-0111REMSYN088AAXX  14004 82583 32596 23606 10297 20215 39760 40093 82100 333 10345 29055 55075 59011;EQDQ01  00002PRCP06
0173825830999992005021412004-05167-040667FM-12+029999999V0209999C000010075019N0500001N1+02631+02271101011ADDAA106000091GF108991081071008001999999MA1999999097661MD1999999-0141REMSYN076AAXX  14124 82583 32599 80500 10263 20227 39766 40101 887// 333 20247 59014;EQDQ01  00002PRCP06
0185825830999992005021500004-05167-040667FM-12+029999999V0203601N004612200019N0040001N1+02561+02111100971ADDAA106000091GF104991041081008001001001MA1999999097601MD1999999+0001REMSYN088AAXX  15004 82583 32596 43609 10256 20211 39760 40097 84800 333 10302 29072 55000 58000;EQDQ01  00002PRCP06
0173825830999992005021512004-05167-040667FM-12+029999999V0203201N001010120019N0500001N1+02561+02251100971ADDAA106000091GF108991081081008001999999MA1999999097591MD1999999-0091REMSYN076AAXX  15124 82583 32599 83202 10256 20225 39759 40097 888// 333 20232 59009;EQDQ01  00002PRCP06
0189825830999992005021600004-05167-040667FM-12+029999999V0203601N002110075019N0040001N1+02391+02301100901ADDAY161061AY261061GF108991081051008001999999MA1999999097511MD1999999-0091MW1021REMSYN100AAXX  16004 82583 21596 83604 10239 20230 39751 40090 70266 885// 333 10323 29092 55022 59009 60291;
0149825830999992005021612004-05167-040667FM-12+029999999V0203601N001510075019N0500001N1+02521+02231100911ADDGF108991081051008001999999MA1999999097531MD1999999-0061REMSYN082AAXX  16124 82583 22599 83603 10252 20223 39753 40091 885// 333 20223 59006 60294;
0185825830999992005021700004-05167-040667FM-12+029999999V0202701N001510075019N0040001N1+02491+02361100901ADDAA106000091GF108991081051008001999999MA1999999097531MD1999999+0021REMSYN088AAXX  17004 82583 32596 82703 10249 20236 39753 40090 885// 333 10309 29081 55032 58002;EQDQ01  00002PRCP06
0177825830999992005021712004-05167-040667FM-12+029999999V0200901N003110075019N0500001N1+02681+02331101021ADDAY161061AY261061GF107991051021008001021001MA1999999097651MD1999999+0121MW1021REMSYN088AAXX  17124 82583 21599 70906 10268 20233 39765 40102 70266 85220 333 20236 58012 69944;
0189825830999992005021800004-05167-040667FM-12+029999999V0203201N002110120019N0040001N1+02481+02291101001ADDAY161061AY261061GF108991081081008001999999MA1999999097621MD1999999+0091MW1021REMSYN100AAXX  18004 82583 21596 83204 10248 20229 39762 40100 70266 888// 333 10318 29078 55040 58009 60021;
0149825830999992005021812004-05167-040667FM-12+029999999V0201401N002110075019N0500001N1+02751+02301101161ADDGF106991051021008001001011MA1999999097791MD1999999+0141REMSYN082AAXX  18124 82583 22599 61404 10275 20230 39779 40116 85201 333 20229 58014 60024;
0185825830999992005021900004-05167-040667FM-12+029999999V0209999C000010075019N0040001N1+02831+02351101001ADDAA106000091GF108991081091008001999999MA1999999097661MD1999999+0041REMSYN088AAXX  19004 82583 32596 83200 10283 20235 39766 40100 889// 333 10341 29064 55070 58004;EQDQ01  00002PRCP06
0177825830999992005021912004-05167-040667FM-12+029999999V0200901N005712200019N0500001N1+02831+02171101061ADDAY161061AY261061GF106991031011008001001011MA1999999097721MD1999999-0071MW1031REMSYN088AAXX  19124 82583 21599 60911 10283 20217 39772 40106 70366 83101 333 20238 59007 69934;
0173825830999992005022012004-05170-040670FM-12+029999999V0200501N002110120019N0500001N1+02681+02261101061ADDAA106000091GF108991081081008001999999MA1999999097711MD1999999-0011REMSYN076AAXX  20124 82583 32599 80504 10268 20226 39771 40106 888// 333 20227 59001;EQDQ01  00002PRCP06
0201825830999992005022100004-05167-040667FM-12+029999999V0201801N001010075019N0040001N1+02811+02361100701ADDAA106000091GF106991061051008001001001MA1999999999999MD1999999-0161REMSYN088AAXX  21004 82583 32596 61802 10281 20236 39536 40070 86500 333 10332 29066 55075 59016;EQDQ01  00002PRCP06Q02 095363APOSP 
0173825830999992005022112004-05167-040667FM-12+029999999V0200501N002610450019N0500001N1+02581+02171100941ADDAA106000091GF108991041051008001021999MA1999999097581MD1999999-0131REMSYN076AAXX  21124 82583 32599 80505 10258 20217 39758 40094 8452/ 333 20237 59013;EQDQ01  00002PRCP06
0185825830999992005022200004-05167-040667FM-12+029999999V0202701N000512200019N0040001N1+02741+02241100741ADDAA106000091GF103991001001999999001011MA1999999097381MD1999999+0021REMSYN088AAXX  22004 82583 32996 32701 10274 20224 39738 40074 80001 333 10328 29068 55052 58002;EQDQ01  00002PRCP06
0173825830999992005022212004-05167-040667FM-12+029999999V0200901N001510450019N0500001N1+02581+02171101091ADDAA106000091GF108991021011008001021999MA1999999097731MD1999999+0151REMSYN076AAXX  22124 82583 32599 80903 10258 20217 39773 40109 8212/ 333 20236 58015;EQDQ01  00002PRCP06
0185825830999992005022300004-05167-040667FM-12+029999999V0202301N001510450019N0040001N1+02731+02051101011ADDAA106000091GF108991041051008001051999MA1999999097651MD1999999+0271REMSYN088AAXX  23004 82583 32596 82303 10273 20205 39765 40101 8455/ 333 10310 29064 55001 58027;EQDQ01  00002PRCP06
0173825830999992005022312004-05167-040667FM-12+029999999V0200501N004110450019N0500001N1+02821+02241101141ADDAA106000091GF106991041021008001051001MA1999999097791MD1999999+0061REMSYN076AAXX  23124 82583 32599 60508 10282 20224 39779 40114 84250 333 20238 58006;EQDQ01  00002PRCP06
0185825830999992005022400004-05167-040667FM-12+029999999V0203201N001010120019N0040001N1+02971+02171101001ADDAA106000091GF105991051081008001051999MA1999999097661MD1999999+0011REMSYN088AAXX  24004 82583 32596 53202 10297 20217 39766 40100 8585/ 333 10349 29056 55074 58001;EQDQ01  00002PRCP06
0177825830999992005022412004-05167-040667FM-12+029999999V0200501N004610120019N0500001N1+02731+02211101181ADDAY151061AY251061GF108991071081008001001011MA1999999097841MD1999999+0051MW1021REMSYN088AAXX  24124 82583 21599 80509 10273 20221 39784 40118 70255 87801 333 20245 58005 69944;
0185825830999992005022500004-05167-040667FM-12+029999999V0200501N002110075019N0040001N1+02951+01991101061ADDAA106000091GF105991051011008001001001MA1999999097711MD1999999+0051REMSYN088AAXX  25004 82583 32596 50504 10295 20199 39771 40106 85100 333 10348 29052 55082 58005;EQDQ01  00002PRCP06
0173825830999992005022512004-05167-040667FM-12+029999999V0200901N003610075019N0500001N1+02841+02221101131ADDAA106000091GF106991061021008001001001MA1999999097791MD1999999-0051REMSYN076AAXX  25124 82583 32599 60907 10284 20222 39779 40113 86200 333 20236 59005;EQDQ01  00002PRCP06
0189825830999992005022600004-05167-040667FM-12+029999999V0200501N003110120019N0040001N1+02541+02331101061ADDAY161061AY261061GF106991061081008001001001MA1999999097701MD1999999-0011MW1021REMSYN100AAXX  26004 82583 21596 60506 10254 20233 39770 40106 70266 86800 333 10361 29068 55093 59001 60041;
0149825830999992005022612004-05167-040667FM-12+029999999V0200901N002112200019N0500001N1+02791+02271101111ADDGF103991031021008001001001MA1999999097751MD1999999-0041REMSYN082AAXX  26124 82583 22599 30904 10279 20227 39775 40111 83200 333 20238 59004 60044;
0189825830999992005022700004-05170-040670FM-12+029999999V0203201N003610120019N0040001N1+02721+02261101021ADDAY121061AY221061GF108991081081008001999999MA1999999097671MD1999999+0031MW1511REMSYN100AAXX  27004 82583 21596 83207 10272 20226 39767 40102 75122 888// 333 10349 29064 55083 58003 69911;
0177825830999992005022712004-05170-040670FM-12+029999999V0200901N001512200019N0040001N1+02741+02401101091ADDAY151061AY251061GF103991031021008001001001MA1999999097731MD1999999-0021MW1021REMSYN088AAXX  27124 82583 21596 30903 10274 20240 39773 40109 70255 83200 333 20242 59002 69954;
0162825830999992005022812004-05167-040667FM-12+029999999V0200501N005712200019N0500001N1+02941+02191101181ADDGF105991041021008001001011KA1240N+02471MA1999999097831MD1999999+0101REMSYN082AAXX  28124 82583 22599 50511 10294 20219 39783 40118 84201 333 20247 58010 69924;
0179825830999992005030100004-05167-040667FM-12+029999999V0200501N002612200019N0040001N1+02931+01881100871ADDAA106000091GF100991001001999999001001MA1999999097551MD1999999-0051REMSYN082AAXX  01004 82583 32996 00505 10293 20188 39755 40087 333 10363 29048 55104 59005;EQDQ01  00002PRCP06
0173825830999992005030112004-05167-040667FM-12+029999999V0200901N004610075019N0500001N1+02771+02131101161ADDAA106000091GF106991061021008001001001MA1999999097821MD1999999-0011REMSYN076AAXX  01124 82583 32599 60909 10277 20213 39782 40116 86200 333 20222 59001;EQDQ01  00002PRCP06
0185825830999992005030200004-05167-040667FM-12+029999999V0200501N001512200019N0040001N1+02991+01811100771ADDAA106000091GF101991001001999999001011MA1999999097441MD1999999-0111REMSYN088AAXX  02004 82583 32996 10503 10299 20181 39744 40077 80001 333 10360 29050 55087 59011;EQDQ01  00002PRCP06
0173825830999992005030212004-05167-040667FM-12+029999999V0200901N002110075019N0500001N1+02781+02131101221ADDAA106000091GF107991071051008001001001MA1999999097781MD1999999-0041REMSYN076AAXX  02124 82583 32599 70904 10278 20213 39778 40122 87500 333 20227 59004;EQDQ01  00002PRCP06
0185825830999992005030300004-05167-040667FM-12+029999999V0203601N002112200019N0040001N1+03021+01861100871ADDAA106000091GF101991011011008001001001MA1999999097541MD1999999+0101REMSYN088AAXX  03004 82583 32596 13604 10302 20186 39754 40087 81100 333 10356 29049 55069 58010;EQDQ01  00002PRCP06
0173825830999992005030312004-05167-040667FM-12+029999999V0200501N003610075019N0500001N1+02821+02241101111ADDAA106000091GF106991051021008001041001MA1999999097771MD1999999-0011REMSYN076AAXX  03124 82583 32599 60507 10282 20224 39777 40111 85240 333 20251 59001;EQDQ01  00002PRCP06
0185825830999992005030400004-05167-040667FM-12+029999999V0203601N002610075019N0040001N1+03001+02271100881ADDAA106000091GF105991051051008001001001MA1999999097561MD1999999+0021REMSYN088AAXX  04004 82583 32596 53605 10300 20227 39756 4//// 85500 333 10364 29/// 55068 58002;EQDQ01  00002PRCP06
0173825830999992005030412004-05167-040667FM-12+029999999V0200901N004611050019N0500001N1+02841+02041101251ADDAA106000091GF107991011011008001001021MA1999999097911MD1999999+0141REMSYN076AAXX  04124 82583 32599 70909 10284 20204 39791 40125 81102 333 20248 58014;EQDQ01  00002PRCP06
0185825830999992005030500004-05167-040667FM-12+029999999V0200501N002612200019N0040001N1+02921+01721100931ADDAA106000091GF101991011011008001001001MA1999999097601MD1999999+0041REMSYN088AAXX  05004 82583 32596 10505 10292 20172 39760 40093 81100 333 10356 29/// 55048 58004;EQDQ01  00002PRCP06
0173825830999992005030512004-05167-040667FM-12+029999999V0200901N007212200019N0500001N1+02901+01871101331ADDAA106000091GF102991011011008001001011MA1999999097981MD1999999+0071REMSYN076AAXX  05124 82583 32599 20914 10290 20187 39798 40133 81101 333 20232 58007;EQDQ01  00002PRCP06
0179825830999992005030600004-05170-040670FM-12+029999999V0200901N001512200019N0040001N1+02921+01671101001ADDAA106000091GF100991001001999999001001MA1999999097661MD1999999+0061REMSYN082AAXX  06004 82583 32996 00903 10292 20167 39766 40100 333 10365 29/// 55100 58006;EQDQ01  00002PRCP06
0173825830999992005030612004-05170-040670FM-12+029999999V0200901N004612200019N0500001N1+02951+01961101101ADDAA106000091GF102991011011008001001011MA1999999097761MD1999999-0221REMSYN076AAXX  06124 82583 32599 20909 10295 20196 39776 40110 81101 333 20233 59022;EQDQ01  00002PRCP06
0179825830999992005030700004-05167-040667FM-12+029999999V0200501N002112200019N0040001N1+03061+01581100811ADDAA106000091GF100991001001999999001001MA1999999097491MD1999999-0171REMSYN082AAXX  07004 82583 32996 00504 10306 20158 39749 40081 333 10374 29/// 55100 59017;EQDQ01  00002PRCP06
0173825830999992005030712004-05167-040667FM-12+029999999V0200901N002612200019N0500001N1+02901+02201101051ADDAA106000091GF106991041011008001001011MA1999999097731MD1999999-0031REMSYN076AAXX  07124 82583 32599 60905 10290 20220 39773 40105 84101 333 20234 59003;EQDQ01  00002PRCP06
0185825830999992005030800004-05167-040667FM-12+029999999V0200501N001010075019N0040001N1+02871+01571100961ADDAA106000091GF106991061051008001001001MA1999999097631MD1999999+0141REMSYN088AAXX  08004 82583 32596 60502 10287 20157 39763 40096 86500 333 10353 29/// 55060 58014;EQDQ01  00002PRCP06
0179825830999992005030900004-05167-040667FM-12+029999999V0203601N001512200019N0040001N1+02841+02241100941ADDAA106000091GF100991001001999999001001MA1999999097601MD1999999-0031REMSYN082AAXX  09004 82583 32996 03603 10284 20224 39760 40094 333 10364 29/// 55051 59003;EQDQ01  00002PRCP06
0149825830999992005030912004-05167-040667FM-12+029999999V0200901N003112200019N0500001N1+02911+02121101121ADDGF103991021021008001001011MA1999999097781MD1999999-0041REMSYN082AAXX  09124 82583 22599 30906 10291 20212 39778 40112 82201 333 20247 59004 60034;
0185825830999992005031000004-05167-040667FM-12+029999999V0203601N003112200019N0040001N1+02811+02101100901ADDAA106000091GF102991021011008001001001MA1999999097561MD1999999-0041REMSYN088AAXX  10004 82583 32596 23606 10281 20210 39756 40090 82100 333 10362 29/// 55102 59004;EQDQ01  00002PRCP06
0173825830999992005031012004-05167-040667FM-12+029999999V0200901N001510075019N0500001N1+02851+02161101151ADDAA106000091GF106991061021008001001001MA1999999097811MD1999999+0031REMSYN076AAXX  10124 82583 32599 60903 10285 20216 39781 40115 86200 333 20240 58003;EQDQ01  00002PRCP06
0189825830999992005031100004-05167-040667FM-12+029999999V0203601N001512200019N0040001N1+02681+02201101031ADDAY151061AY251061GF103991031011008001001001MA1999999097681MD1999999+0121MW1021REMSYN100AAXX  11004 82583 21596 33603 10268 20220 39768 40103 70255 83100 333 10369 29/// 55080 58012 69911;
0149825830999992005031112004-05167-040667FM-12+029999999V0201401N003110075019N0500001N1+02791+02181101151ADDGF107991061021008001031001MA1999999097801MD1999999-0011REMSYN082AAXX  11124 82583 22599 71406 10279 20218 39780 40115 86230 333 20258 59001 69914;
0173825830999992005031212004-05167-040667FM-12+029999999V0200901N003610120019N0500001N1+02811+02101101221ADDAA106000091GF107991071081008001001001MA1999999097861MD1999999+0061REMSYN076AAXX  12124 82583 32599 70907 10281 20210 39786 40122 87800 333 20236 58006;EQDQ01  00002PRCP06
0185825830999992005031300004-05170-040670FM-12+029999999V0203601N003110120019N0040001N1+02731+02211100961ADDAA106000091GF106991061081008001001001MA1999999097621MD1999999-0131REMSYN088AAXX  13004 82583 32596 63606 10273 20221 39762 40096 86800 333 10343 29/// 55023 59013;EQDQ01  00002PRCP06
0173825830999992005031312004-05170-040670FM-12+029999999V0200501N002110075019N0500001N1+02791+02201101181ADDAA106000091GF106991061021008001001001MA1999999097831MD1999999-0031REMSYN076AAXX  13124 82583 32599 60504 10279 20220 39783 40118 86200 333 20237 59003;EQDQ01  00002PRCP06
0185825830999992005031400004-05170-040670FM-12+029999999V0203601N003612200019N0040001N1+02671+02091100841ADDAA106000091GF101991011011008001001001MA1999999097491MD1999999-0131REMSYN088AAXX  14004 82583 32596 13607 10267 20209 39749 40084 81100 333 10365 29/// 55089 59013;EQDQ01  00002PRCP06
0173825830999992005031412004-05170-040670FM-12+029999999V0200901N001510075019N0500001N1+02821+02201101071ADDAA106000091GF106991051021008001031001MA1999999097711MD1999999-0121REMSYN076AAXX  14124 82583 32599 60903 10282 20220 39771 40107 85230 333 20238 59012;EQDQ01  00002PRCP06
0189825830999992005031500004-05167-040667FM-12+029999999V0202701N000510120019N0040001N1+02791+02201100721ADDAY161061AY261061GF107991071081008001001001MA1999999097381MD1999999-0111MW1131REMSYN100AAXX  15004 82583 21596 72701 10279 20220 39738 40072 71366 87800 333 10368 29059 55075 59011 60021;
0149825830999992005031512004-05167-040667FM-12+029999999V0200901N002110450019N0500001N1+02841+02191100941ADDGF106991041021008001031001MA1999999097601MD1999999-0111REMSYN082AAXX  15124 82583 22599 60904 10284 20219 39760 40094 84230 333 20243 59011 60024;
0185825830999992005031600004-05167-040667FM-12+029999999V0202701N003110120019N0040001N1+02941+02261100861ADDAA106000091GF106991061081008001001001MA1999999097531MD1999999+0151REMSYN088AAXX  16004 82583 32596 62706 10294 20226 39753 40086 86800 333 10356 29056 55067 58015;EQDQ01  00002PRCP06
0173825830999992005031612004-05167-040667FM-12+029999999V0200901N006710450019N0500001N1+02841+01991101061ADDAA106000091GF107991021011008001021001MA1999999097721MD1999999+0121REMSYN076AAXX  16124 82583 32599 70913 10284 20199 39772 40106 82120 333 20250 58012;EQDQ01  00002PRCP06
0185825830999992005031700004-05167-040667FM-12+029999999V0201401N001512200019N0040001N1+02931+01821100871ADDAA106000091GF103991021011008001001011MA1999999097541MD1999999+0011REMSYN088AAXX  17004 82583 32596 31403 10293 20182 39754 40087 82101 333 10351 29049 55038 58001;EQDQ01  00002PRCP06
0173825830999992005031712004-05167-040667FM-12+029999999V0200501N001511050019N0500001N1+02811+02051101131ADDAA106000091GF106991021011008001001021MA1999999097791MD1999999+0071REMSYN076AAXX  17124 82583 32599 60503 10281 20205 39779 40113 82102 333 20247 58007;EQDQ01  00002PRCP06
0213825830999992005031800004-05167-040667FM-12+029999999V0203201N002119999999N0040001N1+03021+02071100911ADDAA106000091AY121061AY211061GF108991081999008001999999MA1999999097581MD1999999+0041MW1131REMSYN094AAXX  18004 82583 31596 83204 10302 20207 39758 40091 71321 88/// 333 10367 29050 55061 58004;EQDQ01  00002PRCP06
0173825830999992005031812004-05167-040667FM-12+029999999V0203601N001011050019N0500001N1+02831+02191101111ADDAA106000091GF106991041021008001001021MA1999999097771MD1999999-0021REMSYN076AAXX  18124 82583 32599 63602 10283 20219 39777 40111 84202 333 20251 59002;EQDQ01  00002PRCP06
0189825830999992005031900004-05167-040667FM-12+029999999V0203601N001510042019N0010001N1+02361+02291101191ADDAY121061AY221061GF108991081051004501999999MA1999999097821MD1999999+0241MW1951REMSYN100AAXX  19004 82583 21494 83603 10236 20229 39782 40119 79522 885// 333 10362 29076 55059 58024 60111;
0177825830999992005031912004-05167-040667FM-12+029999999V0200501N001510450019N0500001N1+02631+02331101221ADDAY161061AY261061GF106991041021008001031001MA1999999097841MD1999999+0071MW1021REMSYN088AAXX  19124 82583 21599 60503 10263 20233 39784 40122 70266 84230 333 20231 58007 60334;
0189825830999992005032000004-05170-040670FM-12+029999999V0203601N001510450019N0040001N1+02331+02261101321ADDAY161061AY261061GF108991041061008001021999MA1999999097931MD1999999+0111MW1031REMSYN100AAXX  20004 82583 21596 83603 10233 20226 39793 40132 70366 8462/ 333 10322 29090 55049 58011 60011;
0149825830999992005032012004-05170-040670FM-12+029999999V0200901N001510075019N0500001N1+02641+02271101351ADDGF106991061021008001001001MA1999999097961MD1999999+0121REMSYN082AAXX  20124 82583 22599 60903 10264 20227 39796 40135 86200 333 20225 58012 60014;
0189825830999992005032100004-05167-040667FM-12+029999999V0209999C000010075019N0040001N1+02381+02311101101ADDAY161061AY261061GF108991081051008001999999MA1999999097721MD1999999-0211MW1021REMSYN100AAXX  21004 82583 21596 82700 10238 20231 39772 40110 70266 885// 333 10329 29080 55053 59021 60101;
0177825830999992005032112004-05167-040667FM-12+029999999V0200501N002112200019N0500001N1+02731+02321101221ADDAY161061AY261061GF104991031011008001041001MA1999999097841MD1999999-0121MW1021REMSYN088AAXX  21124 82583 21599 40504 10273 20232 39784 40122 70266 83140 333 20240 59012 60224;
0189825830999992005032200004-05167-040667FM-12+029999999V0202701N001010075019N0040001N1+02281+02231101131ADDAY161061AY261061GF108991081051008001999999MA1999999097751MD1999999+0031MW1211REMSYN100AAXX  22004 82583 21596 82702 10228 20223 39775 40113 72166 885// 333 10320 29081 55047 58003 60251;
0149825830999992005032212004-05167-040667FM-12+029999999V0201401N000510120019N0500001N1+02531+02311101321ADDGF107991061081008001021999MA1999999097921MD1999999+0011REMSYN082AAXX  22124 82583 22599 71401 10253 20231 39792 40132 8682/ 333 20223 58001 60254;
0189825830999992005032300004-05167-040667FM-12+029999999V0203601N003119999999N0040001N1+02461+02341101181ADDAY161061AY261061GF108991081999008001999999MA1999999097801MD1999999+0051MW1021REMSYN100AAXX  23004 82583 21596 83606 10246 20234 39780 40118 70266 88/// 333 10291 29089 55015 58005 60061;
0177825830999992005032312004-05167-040667FM-12+029999999V0201401N001510120019N0500001N1+02581+02371101331ADDAY161061AY251061GF108991081081008001999999MA1999999097991MD1999999+0071MW1021REMSYN088AAXX  23124 82583 21599 81403 10258 20237 39799 40133 70265 888// 333 20232 58007 60164;
0189825830999992005032400004-05167-040667FM-12+029999999V0203201N000510075019N0040001N1+02341+02271101291ADDAY161061AY261061GF108991081051008001999999MA1999999097891MD1999999+0091MW1021REMSYN100AAXX  24004 82583 21596 83201 10234 20227 39789 40129 70266 885// 333 10297 29094 55020 58009 60181;
0149825830999992005032412004-05167-040667FM-12+029999999V0200501N001010075019N0500001N1+02641+02271101401ADDGF106991061021008001001001MA1999999098011MD1999999+0021REMSYN082AAXX  24124 82583 22599 60502 10264 20227 39801 40140 86200 333 20229 58002 60184;
0189825830999992005032500004-05167-040667FM-12+029999999V0201801N001510042019N0010001N1+02351+02311101331ADDAY161061AY261061GF108991081051004501999999MA1999999097941MD1999999+0051MW1631REMSYN100AAXX  25004 82583 21494 81803 10235 20231 39794 40133 76366 885// 333 10320 29081 55076 58005 60071;
0177825830999992005032512004-05167-040667FM-12+029999999V0200901N001519999999N0500001N1+02511+02291101321ADDAY161061AY261061GF107991999061008001031999MA1999999097921MD1999999-0091MW1021REMSYN088AAXX  25124 82583 21599 70903 10251 20229 39792 40132 70266 8863/ 333 20227 59009 60134;
0189825830999992005032600004-05167-040667FM-12+029999999V0202301N001010042019N0010001N1+02361+02291101191ADDAY161061AY261061GF108991081051004501999999MA1999999097841MD1999999-0091MW1611REMSYN100AAXX  26004 82583 21494 82302 10236 20229 39784 40119 76166 885// 333 10323 29082 55057 59009 60091;
0177825830999992005032612004-05167-040667FM-12+029999999V0202301N003110120019N0500001N1+02221+02141101251ADDAY161061AY261061GF107991071081008001001001MA1999999097841MD1999999-0081MW1021REMSYN088AAXX  26124 82583 21599 72306 10222 20214 39784 40125 70266 87800 333 20207 59008 60694;
0185825830999992005032700004-05170-040670FM-12+029999999V0203601N002610120019N0040001N1+02361+02171101171ADDAA106000091GF108991081081008001999999MA1999999097761MD1999999-0091REMSYN088AAXX  27004 82583 32596 83605 10236 20217 39776 40117 888// 333 10302 29083 55034 59009;EQDQ01  00002PRCP06
0173825830999992005032712004-05170-040670FM-12+029999999V0200901N002110120019N0500001N1+02591+02391101171ADDAA106000091GF106991061081008001001001MA1999999097791MD1999999-0051REMSYN076AAXX  27124 82583 32599 60904 10259 20239 39779 40117 86800 333 20222 59005;EQDQ01  00002PRCP06
0189825830999992005032800004-05170-040670FM-12+029999999V0200501N002110042019N0010001N1+02361+02241101181ADDAY121061AY221061GF108991081051004501999999MA1999999097801MD1999999+0041MW1611REMSYN100AAXX  28004 82583 21494 80504 10236 20224 39780 40118 76122 885// 333 10324 29082 55051 58004 69991;
0177825830999992005032812004-05170-040670FM-12+029999999V0200901N001510120019N0500001N1+02541+02331101221ADDAY161061AY251061GF108991081081008001999999MA1999999097831MD1999999+0041MW1021REMSYN088AAXX  28124 82583 21599 80903 10254 20233 39783 40122 70265 888// 333 20229 58004 60124;
0202825830999992005032900004-05167-040667FM-12+029999999V0203601N001510042019N0020001N1+02321+02271101051ADDAY161061AY261061GF108991081051004501999999KA1240M+03101MA1999999097671MD1999999-0131MW1611REMSYN100AAXX  29004 82583 21495 83603 10232 20227 39767 40105 76166 885// 333 10310 29084 55016 59013 60041;
0190825830999992005032912004-05167-040667FM-12+029999999V0201401N001010120019N0500001N1+02551+02311101101ADDAY161061AY251061GF107991061081008001041001KA1240N+02271MA1999999097721MD1999999-0111MW1021REMSYN088AAXX  29124 82583 21599 71402 10255 20231 39772 40110 70265 86840 333 20227 59011 60064;
0202825830999992005033000004-05167-040667FM-12+029999999V0202701N000510120019N0040001N1+02431+02301101171ADDAY161061AY261061GF108991081081008001999999KA1240M+03111MA1999999097791MD1999999+0121MW1021REMSYN100AAXX  30004 82583 21596 82701 10243 20230 39779 40117 70266 888// 333 10311 29082 55032 58012 69931;
0190825830999992005033012004-05167-040667FM-12+029999999V0201401N002110120019N0500001N1+02561+02311101191ADDAY161061AY261061GF108991071081008001031999KA1240N+02281MA1999999097811MD1999999+0091MW1031REMSYN088AAXX  30124 82583 21599 81404 10256 20231 39781 40119 70366 8783/ 333 20228 58009 60024;
0202825830999992005033100004-05167-040667FM-12+029999999V0203201N000510075019N0040001N1+02471+02381101111ADDAY161061AY261061GF105991051021008001001001KA1240M+03141MA1999999097731MD1999999-0061MW1211REMSYN100AAXX  31004 82583 21596 53201 10247 20238 39773 40111 72166 85200 333 10314 29084 55055 59006 60061;
0190825830999992005033112004-05167-040667FM-12+029999999V0201401N002610075019N0500001N1+02311+02241101231ADDAY161061AY261061GF108991081051008001999999KA1240N+02151MA1999999097831MD1999999+0021MW1021REMSYN088AAXX  31124 82583 21599 81405 10231 20224 39783 40123 70266 885// 333 20215 58002 60264;
0189825830999992005040100004-05167-040667FM-12+029999999V0203201N001512200019N0040001N1+02371+02281101121ADDAY161061AY261061GF103991031021008001001001MA1999999097721MD1999999-0011MW1021REMSYN100AAXX  01004 82583 21596 33203 10237 20228 39772 40112 70266 83200 333 10290 29087 55030 59001 69941;
0149825830999992005040112004-05167-040667FM-12+029999999V0201401N001512200019N0500001N1+02641+02311101271ADDGF104991031021008001031001MA1999999097881MD1999999+0051REMSYN082AAXX  01124 82583 22599 41403 10264 20231 39788 40127 83230 333 20229 58005 69944;
0185825830999992005040200004-05167-040667FM-12+029999999V0203601N000512200019N0040001N1+02471+02271101231ADDAA106000091GF103991031011008001001001MA1999999097851MD1999999+0131REMSYN088AAXX  02004 82583 32596 33601 10247 20227 39785 40123 83100 333 10314 29076 55095 58013;EQDQ01  00002PRCP06
0173825830999992005040212004-05167-040667FM-12+029999999V0200901N004610075019N0500001N1+02621+02311101321ADDAA106000091GF107991071051008001001001MA1999999097931MD1999999+0081REMSYN076AAXX  02124 82583 32599 70909 10262 20231 39793 40132 87500 333 20217 58008;EQDQ01  00002PRCP06
0189825830999992005040300004-05170-040670FM-12+029999999V0209999C000012200019N0040001N1+02481+02391101251ADDAY161061AY261061GF101991011011008001001001MA1999999097871MD1999999+0021MW1021REMSYN100AAXX  03004 82583 21596 10500 10248 20239 39787 40125 70266 81100 333 10318 29080 55104 58002 60021;
0149825830999992005040312004-05170-040670FM-12+029999999V0200901N004110075019N0500001N1+02641+02271101391ADDGF106991061021008001001001MA1999999098011MD1999999+0081REMSYN082AAXX  03124 82583 22599 60908 10264 20227 39801 40139 86200 333 20229 58008 60024;
0189825830999992005040400004-05167-040667FM-12+029999999V0201401N001512200019N0040001N1+02491+02291101211ADDAY151061AY251061GF101991011011008001001001MA1999999097841MD1999999-0031MW1021REMSYN100AAXX  04004 82583 21596 11403 10249 20229 39784 40121 70255 81100 333 10315 29077 55076 59003 69951;
0149825830999992005040412004-05167-040667FM-12+029999999V0201401N003112200019N0500001N1+02711+02371101371ADDGF104991041021008001001001MA1999999097991MD1999999-0021REMSYN082AAXX  04124 82583 22599 41406 10271 20237 39799 40137 84200 333 20226 59002 69984;
0185825830999992005040500004-05167-040667FM-12+029999999V0200901N001512200019N0040001N1+02551+02311101091ADDAA106000091GF102991021011008001001001MA1999999097731MD1999999-0111REMSYN088AAXX  05004 82583 32596 20903 10255 20231 39773 40109 82100 333 10315 29076 55095 59011;EQDQ01  00002PRCP06
0173825830999992005040512004-05167-040667FM-12+029999999V0201401N002610075019N0500001N1+02651+02411101301ADDAA106000091GF106991051021008001001011MA1999999097921MD1999999-0071REMSYN076AAXX  05124 82583 32599 61405 10265 20241 39792 40130 85201 333 20229 59007;EQDQ01  00002PRCP06
0185825830999992005040600004-05167-040667FM-12+029999999V0201401N001512200019N0040001N1+02521+02251101171ADDAA106000091GF102991021011008001001001MA1999999097811MD1999999+0081REMSYN088AAXX  06004 82583 32596 21403 10252 20225 39781 40117 82100 333 10311 29070 55072 58008;EQDQ01  00002PRCP06
0173825830999992005040612004-05167-040667FM-12+029999999V0200901N003111050019N0500001N1+02781+02341101241ADDAA106000091GF106991041021008001001021MA1999999097871MD1999999-0051REMSYN076AAXX  06124 82583 32599 60906 10278 20234 39787 40124 84202 333 20232 59005;EQDQ01  00002PRCP06
0185825830999992005040700004-05167-040667FM-12+029999999V0201401N002112200019N0040001N1+02501+02291101051ADDAA106000091GF101991011011008001001001MA1999999097691MD1999999-0121REMSYN088AAXX  07004 82583 32596 11404 10250 20229 39769 40105 81100 333 10309 29078 55073 59012;EQDQ01  00002PRCP06
0173825830999992005040712004-05167-040667FM-12+029999999V0200901N004610075019N0500001N1+02731+02261101131ADDAA106000091GF106991051021008001001011MA1999999097761MD1999999-0111REMSYN076AAXX  07124 82583 32599 60909 10273 20226 39776 40113 85201 333 20233 59011;EQDQ01  00002PRCP06
0177825830999992005040812004-05167-040667FM-12+029999999V0201401N005110450019N0500001N1+02711+02241101071ADDAY161061AY261061GF106991041021008001031001MA1999999097701MD1999999-0061MW1021REMSYN088AAXX  08124 82583 21599 61410 10271 20224 39770 40107 70266 84230 333 20238 59006 69914;
0159825830999992005041812004-05167-040667FM-12+029999999V0200901N003610075019N0500001N1+02711+02341999999ADDAA106000091GF106991061021008001001001MA1999999097651REMSYN076AAXX  18124 82583 32599 60907 10271 20234 39765 4//// 86200 333 202// 5////;EQDQ01  00002PRCP06
0171825830999992005041900004-05167-040667FM-12+029999999V0200901N001012200019N0040001N1+02541+02251100891ADDAA106000091GF101991001001999999001011MA1999999097531REMSYN088AAXX  19004 82583 32996 10902 10254 20225 39753 40089 80001 333 10322 29076 55091 5////;EQDQ01  00002PRCP06
0173825830999992005041912004-05167-040667FM-12+029999999V0200901N002610450019N0500001N1+02731+02341101071ADDAA106000091GF105991041011008001031001MA1999999097711MD1999999+0061REMSYN076AAXX  19124 82583 32599 50905 10273 20234 39771 40107 84130 333 20226 58006;EQDQ01  00002PRCP06
0185825830999992005042000004-05167-040667FM-12+029999999V0200501N004610120019N0040001N1+02591+02351101091ADDAA106000091GF108991081081008001999999MA1999999097731MD1999999+0201REMSYN088AAXX  20004 82583 32596 80509 10259 20235 39773 40109 888// 333 10321 29077 55080 58020;EQDQ01  00002PRCP06
0173825830999992005042012004-05167-040667FM-12+029999999V0200901N004610075019N0500001N1+02771+02231101131ADDAA106000091GF106991999021008001001001MA1999999097771MD1999999+0061REMSYN076AAXX  20124 82583 32599 60909 10277 20223 39777 40113 85200 333 20227 58006;EQDQ01  00002PRCP06
0185825830999992005042100004-05167-040667FM-12+029999999V0201401N001012200019N0040001N1+02541+02211101051ADDAA106000091GF102991001001999999001021MA1999999097691MD1999999-0041REMSYN088AAXX  21004 82583 32996 21402 10254 20221 39769 40105 80002 333 10314 29071 55071 59004;EQDQ01  00002PRCP06
0173825830999992005042112004-05167-040667FM-12+029999999V0200901N001010075019N0500001N1+02601+02231101171ADDAA106000091GF108991081051008001999999MA1999999097791MD1999999+0021REMSYN076AAXX  21124 82583 32599 80902 10260 20223 39779 40117 885// 333 20225 58002;EQDQ01  00002PRCP06
0185825830999992005042200004-05167-040667FM-12+029999999V0201401N001012200019N0040001N1+02521+02291100981ADDAA106000091GF102991001001999999001021MA1999999097601MD1999999-0091REMSYN088AAXX  22004 82583 32996 21402 10252 20229 39760 40098 80002 333 10310 29078 55033 59009;EQDQ01  00002PRCP06
0173825830999992005042212004-05167-040667FM-12+029999999V0200501N001012200019N0500001N1+02821+02201101111ADDAA106000091GF105991041011008001001011MA1999999097751MD1999999-0041REMSYN076AAXX  22124 82583 32599 50502 10282 20220 39775 40111 84101 333 20222 59004;EQDQ01  00002PRCP06
0185825830999992005042300004-05167-040667FM-12+029999999V0200901N001019999999N0040001N1+02571+02191101211ADDAA106000091GF105991001001999999001021MA1999999097591MD1999999+0011REMSYN088AAXX  23004 82583 32596 50902 10257 20219 39759 40121 80002 333 10328 29069 55080 58001;EQDQ01  00002PRCP06
0173825830999992005042312004-05167-040667FM-12+029999999V0200901N002612200019N0500001N1+02901+02321101051ADDAA106000091GF103991999011008001001001MA1999999097691MD1999999-0061REMSYN076AAXX  23124 82583 32599 30905 10290 20232 39769 40105 82100 333 20229 59006;EQDQ01  00002PRCP06
0185825830999992005042400004-05170-040670FM-12+029999999V0200901N002112200019N0020001N1+02721+02221101011ADDAA106000091GF102991021011008001999999MA1999999097621MD1999999+0071REMSYN088AAXX  24004 82583 32595 20904 10272 20222 39762 40101 821// 333 10327 29067 55083 58007;EQDQ01  00002PRCP06
0173825830999992005042412004-05170-040670FM-12+029999999V0200501N001012200019N0500001N1+02741+02191101201ADDAA106000091GF103991031021008001001001MA1999999097841MD1999999+0151REMSYN076AAXX  24124 82583 32599 30502 10274 20219 39784 40120 83200 333 20221 58015;EQDQ01  00002PRCP06
0198825830999992005042500004-05167-040667FM-12+029999999V0200501N001512200019N0040001N1+02611+02251101031ADDAA106000091GF102991021011008001001001KA1240M+03311MA1999999097671MD1999999+0011REMSYN088AAXX  25004 82583 32596 20503 10261 20225 39767 40103 82100 333 10331 29069 55094 58001;EQDQ01  00002PRCP06
0186825830999992005042512004-05167-040667FM-12+029999999V0203601N001010120019N0500001N1+02681+02281101181ADDAA106000091GF108991071081008001001011KA1240N+02271MA1999999097821MD1999999-0021REMSYN076AAXX  25124 82583 32599 83602 10268 20228 39782 40118 87801 333 20227 59002;EQDQ01  00002PRCP06
0134825830999992005042600004-05167-040667FM-12+029999999V0203601N002619999999N0040001N1+02521+02211999999ADDGF108991999999008001999999REMSYN096AAXX  26004 82583 21596 83605 10252 20221 10322 29074 39774 40111 55043 58007 60041 70266 885//;
0190825830999992005042612004-05167-040667FM-12+029999999V0200501N001510075019N0500001N1+02581+02381101221ADDAY161061AY261061GF108991081051008001999999KA1240N+02321MA1999999097841MD1999999+0021MW1031REMSYN088AAXX  26124 82583 21599 80503 10258 20238 39784 40122 70366 885// 333 20232 58002 60064;
0198825830999992005042700004-05167-040667FM-12+029999999V0203601N001010120019N0040001N1+02651+02201101081ADDAA106000091GF107991061081008001001011KA1240M+03331MA1999999097711MD1999999-0031REMSYN088AAXX  27004 82583 32596 73602 10265 20220 39771 40108 86801 333 10333 29072 55073 59003;EQDQ01  00002PRCP06
0186825830999992005042712004-05167-040667FM-12+029999999V0201401N002112200019N0500001N1+02801+02311101211ADDAA106000091GF103991031011008001001001KA1240N+02341MA1999999097851MD1999999+0011REMSYN076AAXX  27124 82583 32599 31404 10280 20231 39785 40121 83100 333 20234 58001;EQDQ01  00002PRCP06
0198825830999992005042800004-05167-040667FM-12+029999999V0202701N001512200019N0040001N1+02561+02271101001ADDAA106000091GF102991021011008001001001KA1240M+03361MA1999999097641MD1999999-0071REMSYN088AAXX  28004 82583 32596 22703 10256 20227 39764 40100 82100 333 10336 29072 55079 59007;EQDQ01  00002PRCP06
0186825830999992005042812004-05167-040667FM-12+029999999V0200901N004610075019N0500001N1+02851+02231101241ADDAA106000091GF106991051021008001001011KA1240N+02341MA1999999097881MD1999999+0031REMSYN076AAXX  28124 82583 32599 60909 10285 20223 39788 40124 85201 333 20234 58003;EQDQ01  00002PRCP06
0202825830999992005042900004-05167-040667FM-12+029999999V0202701N000512200019N0040001N1+02371+02281101191ADDAY161061AY261061GF102991021011008001001001KA1240M+03281MA1999999097821MD1999999+0141MW1021REMSYN100AAXX  29004 82583 21596 22701 10237 20228 39782 40119 70266 82100 333 10328 29076 55048 58014 60091;
0162825830999992005042912004-05167-040667FM-12+029999999V0200901N003110075019N0500001N1+02751+02361101321ADDGF106991051021008001001011KA1240N+02311MA1999999097941MD1999999+0061REMSYN082AAXX  29124 82583 22599 60906 10275 20236 39794 40132 85201 333 20231 58006 60094;
0202825830999992005043000004-05167-040667FM-12+029999999V0203201N001010120019N0040001N1+02511+02421101331ADDAY161061AY261061GF106991061081008001001001KA1240M+03251MA1999999097951MD1999999+0131MW1021REMSYN100AAXX  30004 82583 21596 63202 10251 20242 39795 40133 70266 86800 333 10325 29080 55071 58013 69941;
0190825830999992005043012004-05167-040667FM-12+029999999V0203201N000510450019N0500001N1+02541+02251101441ADDAY161061AY261061GF106991021011008001021011KA1240N+02251MA1999999098051MD1999999+0111MW1031REMSYN088AAXX  30124 82583 21599 63201 10254 20225 39805 40144 70366 82121 333 20225 58011 60234;
0185825830999992005050100004-05170-040670FM-12+029999999V0209999C000012200019N0040001N1+02581+02401101231ADDAA106000091GF102991021011008001001001MA1999999097851MD1999999-0101REMSYN088AAXX  01004 82583 32596 21800 10258 20240 39785 40123 82100 333 10312 29082 55067 59010;EQDQ01  00002PRCP06
0173825830999992005050112004-05170-040670FM-12+029999999V0200901N001510075019N0500001N1+02611+02331101371ADDAA106000091GF108991081051008001999999MA1999999097991MD1999999-0061REMSYN076AAXX  01124 82583 32599 80903 10261 20233 39799 40137 885// 333 20229 59006;EQDQ01  00002PRCP06
0189825830999992005050200004-05170-040670FM-12+029999999V0203601N001012200019N0040001N1+02501+02381101271ADDAY161061AY261061GF101991011011008001001001MA1999999097891MD1999999+0041MW1021REMSYN100AAXX  02004 82583 21596 13602 10250 20238 39789 40127 70266 81100 333 10315 29081 55046 58004 60011;
0183825830999992005050300004-05167-040667FM-12+029999999V0202301N001510042019N0020001N1+02281+02231101351ADDAY131061AY261061GF108991081051004501999999MA1999999097951MD1999999+0061REMSYN100AAXX  03004 82583 21495 82303 10228 20223 39795 40135 77636 885// 333 10324 29084 55050 58006 60441;
0177825830999992005050312004-05167-040667FM-12+029999999V0200901N001510120019N0500001N1+02521+02311101501ADDAY161061AY261061GF108991081081008001999999MA1999999098091MD1999999+0081MW1211REMSYN088AAXX  03124 82583 21599 80903 10252 20231 39809 40150 72166 888// 333 20214 58008 60524;
0189825830999992005050400004-05167-040667FM-12+029999999V0200501N000512200019N0040001N1+02441+02371101271ADDAY161061AY261061GF102991021021008001001001MA1999999097881MD1999999-0011MW1011REMSYN100AAXX  04004 82583 21596 20501 10244 20237 39788 40127 70166 82200 333 10294 29092 55021 59001 60111;
0177825830999992005050412004-05167-040667FM-12+029999999V0200901N003112200019N0500001N1+02631+02331101401ADDAY151061AY251061GF104991999021008001001001MA1999999098021MD1999999-0071MW1021REMSYN088AAXX  04124 82583 21599 40906 10263 20233 39802 40140 70255 83200 333 20232 59007 60114;
0185825830999992005050500004-05167-040667FM-12+029999999V0201801N003112200019N0040001N1+02401+02211101381ADDAA106000091GF104991041021008001001001MA1999999097991MD1999999+0111REMSYN088AAXX  05004 82583 32596 41806 10240 20221 39799 40138 84200 333 10307 29082 55079 58011;EQDQ01  00002PRCP06
0173825830999992005050512004-05167-040667FM-12+029999999V0200901N003610075019N0500001N1+02581+02171101441ADDAA106000091GF106991051021008001031001MA1999999098051MD1999999+0031REMSYN076AAXX  05124 82583 32599 60907 10258 20217 39805 40144 85230 333 20219 58003;EQDQ01  00002PRCP06
0185825830999992005050600004-05167-040667FM-12+029999999V0201401N001010120019N0040001N1+02431+02211101311ADDAA106000091GF106991061081008001001001MA1999999097921MD1999999-0071REMSYN088AAXX  06004 82583 32596 61402 10243 20221 39792 40131 86800 333 10296 29078 55045 59007;EQDQ01  00002PRCP06
0173825830999992005050612004-05167-040667FM-12+029999999V0200901N004610075019N0500001N1+02601+02191101401ADDAA106000091GF106991061021008001001001MA1999999098011MD1999999-0041REMSYN076AAXX  06124 82583 32599 60909 10260 20219 39801 40140 86200 333 20221 59004;EQDQ01  00002PRCP06
0185825830999992005050700004-05167-040667FM-12+029999999V0201401N002112200019N0040001N1+02361+02191101161ADDAA106000091GF101991011011008001001001MA1999999097791MD1999999-0131REMSYN088AAXX  07004 82583 32596 11404 10236 20219 39779 40116 81100 333 10301 29080 55079 59013;EQDQ01  00002PRCP06
0173825830999992005050712004-05167-040667FM-12+029999999V0201401N003112200019N0500001N1+02631+02141101321ADDAA106000091GF101991011011008001001001MA1999999097931MD1999999+0081REMSYN076AAXX  07124 82583 32599 11406 10263 20214 39793 40132 81100 333 20210 58008;EQDQ01  00002PRCP06
0185825830999992005050800004-05170-040670FM-12+029999999V0201401N001512200019N0040001N1+02391+02231101191ADDAA106000091GF101991011011008001001001MA1999999097811MD1999999+0021REMSYN088AAXX  08004 82583 32596 11403 10239 20223 39781 40119 81100 333 10300 29079 55105 58002;EQDQ01  00002PRCP06
0177825830999992005050812004-05170-040670FM-12+029999999V0200901N006210075019N0500001N1+02661+02221101261ADDAY161061AY261061GF105991051021008001001001MA1999999097871MD1999999-0061MW1021REMSYN088AAXX  08124 82583 21599 50912 10266 20222 39787 40126 70266 85200 333 20222 59006 60074;
0185825830999992005050900004-05167-040667FM-12+029999999V0200901N001512200019N0040001N1+02451+02071101211ADDAA106000091GF101991011011008001001001MA1999999097831MD1999999+0021REMSYN088AAXX  09004 82583 32596 10903 10245 20207 39783 40121 81100 333 10303 29070 55077 58002;EQDQ01  00002PRCP06
0173825830999992005050912004-05167-040667FM-12+029999999V0201401N004110120019N0500001N1+02521+02111101301ADDAA106000091GF106991061081008001001001MA1999999097911MD1999999+0041REMSYN076AAXX  09124 82583 32599 61408 10252 20211 39791 40130 86800 333 20207 58004;EQDQ01  00002PRCP06
0185825830999992005051000004-05167-040667FM-12+029999999V0209999C000012200019N0040001N1+02461+02091101201ADDAA106000091GF101991011011008001001001MA1999999097821MD1999999-0011REMSYN088AAXX  10004 82583 32596 10900 10246 20209 39782 40120 81100 333 10307 29073 55043 59001;EQDQ01  00002PRCP06
0173825830999992005051012004-05167-040667FM-12+029999999V0200901N003112200019N0500001N1+02671+02161101271ADDAA106000091GF101991011011008001001001MA1999999097891MD1999999-0021REMSYN076AAXX  10124 82583 32599 10906 10267 20216 39789 40127 81100 333 20206 59002;EQDQ01  00002PRCP06
0185825830999992005051100004-05167-040667FM-12+029999999V0200901N001512200019N0040001N1+02461+02111101111ADDAA106000091GF101991011011008001001001MA1999999097741MD1999999-0081REMSYN088AAXX  11004 82583 32596 10903 10246 20211 39774 40111 81100 333 10315 29070 55106 59008;EQDQ01  00002PRCP06
0173825830999992005051112004-05167-040667FM-12+029999999V0200901N002612200019N0500001N1+02681+02261101241ADDAA106000091GF104991041021008001001001MA1999999097861MD1999999-0031REMSYN076AAXX  11124 82583 32599 40905 10268 20226 39786 40124 84200 333 20220 59003;EQDQ01  00002PRCP06
0185825830999992005051200004-05167-040667FM-12+029999999V0200901N001512200019N0040001N1+02461+02131101141ADDAA106000091GF101991011011008001001001MA1999999097771MD1999999+0031REMSYN088AAXX  12004 82583 32596 10903 10246 20213 39777 40114 81100 333 10314 29073 55092 58003;EQDQ01  00002PRCP06
0177825830999992005051212004-05167-040667FM-12+029999999V0200901N002610120019N0500001N1+02621+02181101251ADDAY161061AY261061GF106991061081008001001001MA1999999097871MD1999999+0011MW1021REMSYN088AAXX  12124 82583 21599 60905 10262 20218 39787 40125 70266 86800 333 20229 58001 69944;
0185825830999992005051300004-05167-040667FM-12+029999999V0200901N001512200019N0040001N1+02481+02211101131ADDAA106000091GF102991021051008001001001MA1999999097751MD1999999-0021REMSYN088AAXX  13004 82583 32596 20903 10248 20221 39775 40113 82500 333 10293 29078 55028 59002;EQDQ01  00002PRCP06
0177825830999992005051312004-05167-040667FM-12+029999999V0200901N002110120019N0500001N1+02491+02291101211ADDAY161061AY261061GF106991051081008001001011MA1999999097831MD1999999-0041MW1021REMSYN088AAXX  13124 82583 21599 60904 10249 20229 39783 40121 70266 85801 333 20227 59004 60024;
0185825830999992005051400004-05167-040667FM-12+029999999V0200501N001512200019N0040001N1+02451+02251101101ADDAA106000091GF102991021051008001001001MA1999999097691MD1999999-0061REMSYN088AAXX  14004 82583 32596 20503 10245 20225 39769 40110 82500 333 10313 29080 55067 59006;EQDQ01  00002PRCP06
0177825830999992005051412004-05167-040667FM-12+029999999V0200901N002610075019N0500001N1+02571+02291101101ADDAY161061AY261061GF106991061051008001001001MA1999999097721MD1999999-0111MW1021REMSYN088AAXX  14124 82583 21599 60905 10257 20229 39772 40110 70266 86500 333 20225 59011 60014;
0185825830999992005051500004-05170-040670FM-12+029999999V0201401N002112200019N0040001N1+02441+02151100931ADDAA106000091GF102991021011008001001001MA1999999097551MD1999999-0141REMSYN088AAXX  15004 82583 32596 21404 10244 20215 39755 40093 82100 333 10297 29078 55072 59014;EQDQ01  00002PRCP06
0173825830999992005051512004-05170-040670FM-12+029999999V0201401N005110075019N0500001N1+02651+02241101041ADDAA106000091GF106991061021008001001001MA1999999097661MD1999999-0061REMSYN076AAXX  15124 82583 32599 61410 10265 20224 39766 40104 86200 333 20233 59006;EQDQ01  00002PRCP06
0185825830999992005051600004-05167-040667FM-12+029999999V0201401N002112200019N0040001N1+02421+02191100991ADDAA106000091GF101991999021008001001001MA1999999097611MD1999999+0061REMSYN088AAXX  16004 82583 32596 11404 10242 20219 39761 40099 83200 333 10310 29075 55096 58006;EQDQ01  00002PRCP06
0173825830999992005051612004-05167-040667FM-12+029999999V0201401N004112200019N0500001N1+02711+02191101061ADDAA106000091GF104991031011008001001011MA1999999097681MD1999999+0021REMSYN076AAXX  16124 82583 32599 41408 10271 20219 39768 40106 83101 333 20220 58002;EQDQ01  00002PRCP06
0185825830999992005051700004-05167-040667FM-12+029999999V0200901N004110075019N0040001N1+02541+02251100961ADDAA106000091GF108991081051008001999999MA1999999097591MD1999999-0021REMSYN088AAXX  17004 82583 32596 80908 10254 20225 39759 40096 885// 333 10308 29076 55047 59002;EQDQ01  00002PRCP06
0173825830999992005051712004-05167-040667FM-12+029999999V0200901N004110075019N0500001N1+02691+02301101011ADDAA106000091GF107991051021008001001011MA1999999097641MD1999999-0041REMSYN076AAXX  17124 82583 32599 70908 10269 20230 39764 40101 85201 333 20229 59004;EQDQ01  00002PRCP06
0185825830999992005051800004-05167-040667FM-12+029999999V0200901N001510150019N0040001N1+02571+02211100841ADDAA106000091GF105991051001017501031001MA1999999097481MD1999999-0111REMSYN088AAXX  18004 82583 32796 50903 10257 20221 39748 40084 85030 333 10307 29074 55038 59011;EQDQ01  00002PRCP06
0173825830999992005051812004-05167-040667FM-12+029999999V0201401N004110120019N0500001N1+02601+02191101061ADDAA106000091GF107991051081008001041011MA1999999097691MD1999999+0051REMSYN076AAXX  18124 82583 32599 71408 10260 20219 39769 40106 85841 333 20228 58005;EQDQ01  00002PRCP06
0185825830999992005051900004-05167-040667FM-12+029999999V0200501N001012200019N0040001N1+02501+02211100901ADDAA106000091GF102991021011008001001001MA1999999097541MD1999999+0061REMSYN088AAXX  19004 82583 32596 20502 10250 20221 39754 40090 82100 333 10301 29075 55021 58006;EQDQ01  00002PRCP06
0177825830999992005051912004-05167-040667FM-12+029999999V0200901N002610075019N0040001N1+02491+02341101041ADDAY161061AY261061GF106991051051008001041011MA1999999097661MD1999999-0031MW1031REMSYN088AAXX  19124 82583 21596 60905 10249 20234 39766 40104 70366 85541 333 20216 59003 69924;
0185825830999992005052000004-05167-040667FM-12+029999999V0201401N000511050019N0040001N1+02471+02271100991ADDAA106000091GF107991011011008001001071MA1999999097611MD1999999+0071REMSYN088AAXX  20004 82583 32596 71401 10247 20227 39761 40099 81107 333 10296 29082 55012 58007;EQDQ01  00002PRCP06
0177825830999992005052012004-05167-040667FM-12+029999999V0200901N005110075019N0500001N1+02661+02241101171ADDAY161061AY261061GF107991051021008001001071MA1999999097791MD1999999+0131MW1031REMSYN088AAXX  20124 82583 21599 70910 10266 20224 39779 40117 70366 85207 333 20223 58013 69914;
0189825830999992005052100004-05167-040667FM-12+029999999V0203601N000510075019N0040001N1+02541+02211101081ADDAY161061AY261061GF107991071051008001001001MA1999999097711MD1999999+0101MW1021REMSYN100AAXX  21004 82583 21596 73601 10254 20221 39771 40108 70266 87500 333 10308 29075 55036 58010 60031;
0149825830999992005052112004-05167-040667FM-12+029999999V0200901N002119999999N0500001N1+02601+02311101271ADDGF106991999021008001001001MA1999999097891MD1999999+0101REMSYN082AAXX  21124 82583 22599 60904 10260 20231 39789 40127 83200 333 20216 58010 60034;
0185825830999992005052200004-05170-040670FM-12+029999999V0200501N000512200019N0040001N1+02661+02181101061ADDAA106000091GF102991001001999999001011MA1999999097701MD1999999-0011REMSYN088AAXX  22004 82583 32996 20501 10266 20218 39770 40106 80001 333 10321 29070 55060 59001;EQDQ01  00002PRCP06
0173825830999992005052212004-05170-040670FM-12+029999999V0200901N003612200019N0040001N1+02731+02191101211ADDAA106000091GF104991041021008001001001MA1999999097851MD1999999-0041REMSYN076AAXX  22124 82583 32596 40907 10273 20219 39785 40121 84200 333 20217 59004;EQDQ01  00002PRCP06
0189825830999992005052300004-05170-040670FM-12+029999999V0203601N001512200019N0040001N1+02521+02341101091ADDAY161061AY261061GF106991041051008001001011MA1999999097721MD1999999+0021MW1021REMSYN100AAXX  23004 82583 21596 63603 10252 20234 39772 40109 70266 84501 333 10324 29074 55062 58002 60031;
0149825830999992005052312004-05170-040670FM-12+029999999V0200901N001510120019N0500001N1+02581+02271101221ADDGF107991061081008001001011MA1999999097841MD1999999-0011REMSYN082AAXX  23124 82583 22599 70903 10258 20227 39784 40122 86801 333 20223 59001 60034;
0189825830999992005052400004-05167-040667FM-12+029999999V0201801N001510450019N0040001N1+02271+02231101071ADDAY161061AY261061GF107991031061008001031001MA1999999097681MD1999999-0041MW1021REMSYN100AAXX  24004 82583 21596 71803 10227 20223 39768 40107 70266 83630 333 10301 29087 55022 59004 60081;
0149825830999992005052412004-05167-040667FM-12+029999999V0200901N004610450019N0500001N1+02671+02201101221ADDGF106991041021008001031001MA1999999097831MD1999999-0011REMSYN082AAXX  24124 82583 22599 60909 10267 20220 39783 40122 84230 333 20212 59001 60084;
0185825830999992005052500004-05167-040667FM-12+029999999V0200501N000512200019N0040001N1+02441+02151101161ADDAA106000091GF103991011001017501031011MA1999999097781MD1999999+0101REMSYN088AAXX  25004 82583 32796 30501 10244 20215 39778 40116 81031 333 10314 29076 55052 58010;EQDQ01  00002PRCP06
0173825830999992005052512004-05167-040667FM-12+029999999V0200901N005110120019N0500001N1+02681+02181101301ADDAA106000091GF106991061081008001001001MA1999999097921MD1999999-0091REMSYN076AAXX  25124 82583 32599 60910 10268 20218 39792 40130 86800 333 20215 59009;EQDQ01  00002PRCP06
0185825830999992005052600004-05167-040667FM-12+029999999V0200501N001512200019N0040001N1+02551+02171101241ADDAA106000091GF103991031021008001001001MA1999999097861MD1999999+0081REMSYN088AAXX  26004 82583 32596 30503 10255 20217 39786 40124 83200 333 10322 29065 55088 58008;EQDQ01  00002PRCP06
0173825830999992005052612004-05167-040667FM-12+029999999V0200901N004110120019N0500001N1+02631+02161101491ADDAA106000091GF107991061081008001031001MA1999999098111MD1999999+0191REMSYN076AAXX  26124 82583 32599 70908 10263 20216 39811 40149 86830 333 20216 58019;EQDQ01  00002PRCP06
0185825830999992005052700004-05167-040667FM-12+029999999V0200501N001012200019N0040001N1+02621+02371101401ADDAA106000091GF102991021011008001001001MA1999999098021MD1999999+0161REMSYN088AAXX  27004 82583 32596 20502 10262 20237 39802 40140 82100 333 10320 29071 55087 58016;EQDQ01  00002PRCP06
0173825830999992005052712004-05167-040667FM-12+029999999V0200901N004610075019N0500001N1+02721+02171101411ADDAA106000091GF106991061021008001001001MA1999999098031MD1999999-0081REMSYN076AAXX  27124 82583 32599 60909 10272 20217 39803 40141 86200 333 20213 59008;EQDQ01  00002PRCP06
0179825830999992005052800004-05167-040667FM-12+029999999V0200901N001512200019N0040001N1+02541+02251101311ADDAA106000091GF100991001001999999001001MA1999999097931MD1999999-0091REMSYN082AAXX  28004 82583 32996 00903 10254 20225 39793 40131 333 10329 29069 55077 59009;EQDQ01  00002PRCP06
0177825830999992005052812004-05167-040667FM-12+029999999V0200901N003112200019N0500001N1+02651+02351101381ADDAY161061AY261061GF103991031051008001001001MA1999999098001MD1999999-0031MW1021REMSYN088AAXX  28124 82583 21599 30906 10265 20235 39800 40138 70266 83500 333 20215 59003 69974;
0195825830999992005052900004-05170-040670FM-12+029999999V0200501N000512200019N0040001N1+02471+02171101271ADDAA106000091GA1001+999999999GF100991001001999999001001MA1999999097891MD1999999-0041REMSYN082AAXX  29004 82583 32996 00501 10247 20217 39789 40127 333 10328 29070 55103 59004;EQDQ01  00002PRCP06
0173825830999992005052912004-05170-040670FM-12+029999999V0201401N006712200019N0500001N1+02751+01891101301ADDAA106000091GF102991021011008001001001MA1999999097921MD1999999-0081REMSYN076AAXX  29124 82583 32599 21413 10275 20189 39792 40130 82100 333 20219 59008;EQDQ01  00002PRCP06
0198825830999992005053000004-05167-040667FM-12+029999999V0200501N002112200019N0040001N1+02551+02251101231ADDAA106000091GF101991011011008001001001KA1240M+03201MA1999999097861MD1999999-0031REMSYN088AAXX  30004 82583 32596 10504 10255 20225 39786 40123 81100 333 10320 29063 55103 59003;EQDQ01  00002PRCP06
0202825830999992005053012004-05167-040667FM-12+029999999V0201401N004612200019N0500001N1+02741+01921999999ADDAA106000091GF102991011011008001001011KA1240N+02091MA1999999097971MD1999999+0051REMSYN076AAXX  30124 82583 32599 21409 10274 20192 39797 40435 81101 333 20209 58005;EQDQ01  00002PRCP06Q02 104353APOSLP
0198825830999992005053100004-05167-040667FM-12+029999999V0200501N001010120019N0040001N1+02501+02001101241ADDAA106000091GF108991081081008001999999KA1240M+03031MA1999999097861MD1999999+0001REMSYN088AAXX  31004 82583 32596 80502 10250 20200 39786 40124 888// 333 10303 29066 55044 58000;EQDQ01  00002PRCP06
0190825830999992005053112004-05167-040667FM-12+029999999V0201401N003610120019N0500001N1+02471+02191101301ADDAY161061AY261061GF107991071081008001001001KA1240N+02171MA1999999097911MD1999999-0061MW1031REMSYN088AAXX  31124 82583 21599 71407 10247 20219 39791 40130 70366 87800 333 20217 59006 60024;
0183825830999992005060100004-05167-040667FM-12+029999999V0200901N001012200019N0040001N1+02331+02071101221ADDAY161061AY261061GF100991001001999999001001MA1999999097821MD1999999-0041MW1001REMSYN094AAXX  01004 82583 21996 00902 10233 20207 39782 40122 70066 333 10303 29076 55029 59004 69921;
0177825830999992005060112004-05167-040667FM-12+029999999V0201801N001510120019N0500001N1+02441+02211101351ADDAY161061AY261061GF106991061081008001001001MA1999999097951MD1999999-0021MW1021REMSYN088AAXX  01124 82583 21599 61803 10244 20221 39795 40135 70266 86800 333 20214 59002 60014;
0189825830999992005060200004-05167-040667FM-12+029999999V0201401N001012200019N0040001N1+02421+02191101181ADDAY161061AY261061GF102991021011008001001001MA1999999097791MD1999999-0031MW1011REMSYN100AAXX  02004 82583 21596 21402 10242 20219 39779 40118 70166 82100 333 10308 29079 55042 59003 69951;
0149825830999992005060212004-05167-040667FM-12+029999999V0201401N005712200019N0500001N1+02711+02001101301ADDGF101991011011008001001001MA1999999097921MD1999999-0031REMSYN082AAXX  02124 82583 22599 11411 10271 20200 39792 40130 81100 333 20215 59003 69954;
0213825830999992005060300004-05167-040667FM-12+029999999V0200501N001012200019N0040001N1+02471+02111101151ADDAA106000091AY121061AY221061GF101991011021008001001001MA1999999097781MD1999999-0011MW1131REMSYN094AAXX  03004 82583 31596 10502 10247 20211 39778 40115 71322 81200 333 10324 29069 55076 59001;EQDQ01  00002PRCP06
0173825830999992005060312004-05167-040667FM-12+029999999V0201401N004612200019N0500001N1+02561+01951101301ADDAA106000091GF106991041011008001001011MA1999999097911MD1999999-0011REMSYN076AAXX  03124 82583 32599 61409 10256 20195 39791 40130 84101 333 20222 59001;EQDQ01  00002PRCP06
0179825830999992005060400004-05167-040667FM-12+029999999V0200901N001512200019N0040001N1+02381+02241101301ADDAA106000091GF100991001001999999001001MA1999999097911MD1999999+0131REMSYN082AAXX  04004 82583 32996 00903 10238 20224 39791 40130 333 10300 29076 55032 58013;EQDQ01  00002PRCP06
0173825830999992005060412004-05170-040670FM-12+029999999V0200901N005110120019N0500001N1+02611+02031101331ADDAA106000091GF107991071081008001001001MA1999999097941MD1999999+0031REMSYN076AAXX  04124 82583 32599 70910 10261 20203 39794 40133 87800 333 20217 58003;EQDQ01  00002PRCP06
0179825830999992005060500004-05170-040670FM-12+029999999V0200901N001012200019N0040001N1+02431+02191101271ADDAA106000091GF100991001001999999001001MA1999999097881MD1999999-0031REMSYN082AAXX  05004 82583 32996 00902 10243 20219 39788 40127 333 10322 29071 55055 59003;EQDQ01  00002PRCP06
0194825830999992005060512004-05167-040667FM-12+029999999V0201401N005110075019N0500001N1+02431+02251101381ADDAA124000391AY161061AY261061GF108991081051008001999999MA1999999097981MD1999999+0041MW1021REMSYN094AAXX  05124 82583 21599 81410 10243 20225 39798 40138 70266 885// 333 20224 58004 69934 10003;
0189825830999992005060600004-05167-040667FM-12+029999999V0200901N000512200019N0040001N1+02481+02361101221ADDAY161061AY261061GF103991031011008001001001MA1999999097831MD1999999-0051MW1021REMSYN100AAXX  06004 82583 21596 30901 10248 20236 39783 40122 70266 83100 333 10325 29079 55047 59005 69921;
0185825830999992005060700004-05167-040667FM-12+029999999V0200901N002610075019N0040001N1+02681+01971101121ADDAA106000091GF108991051051008001999999MA1999999097761MD1999999-0071REMSYN088AAXX  07004 82583 32596 80905 10268 20197 39776 40112 855// 333 10327 29063 55052 59007;EQDQ01  00002PRCP06
0173825830999992005060712004-05167-040667FM-12+029999999V0201401N005110120019N0500001N1+02531+02151101191ADDAA106000091GF108991071081008001041999MA1999999097821MD1999999-0021REMSYN076AAXX  07124 82583 32599 81410 10253 20215 39782 40119 8784/ 333 20225 59002;EQDQ01  00002PRCP06
0185825830999992005060800004-05167-040667FM-12+029999999V0200501N001012200019N0040001N1+02571+02121101081ADDAA106000091GF101991011011008001001001MA1999999097701MD1999999-0061REMSYN088AAXX  08004 82583 32596 10502 10257 20212 39770 40108 81100 333 10304 29072 55016 59006;EQDQ01  00002PRCP06
0177825830999992005060812004-05167-040667FM-12+029999999V0200901N003610075019N0500001N1+02601+02231101311ADDAY161061AY261061GF106991051021008001001011MA1999999097931MD1999999+0111MW1021REMSYN088AAXX  08124 82583 21599 60907 10260 20223 39793 40131 70266 85201 333 20222 58011 60054;
0185825830999992005060900004-05167-040667FM-12+029999999V0200901N001512200019N0040001N1+02571+02151101221ADDAA106000091GF104991041051008001001001MA1999999097851MD1999999+0151REMSYN088AAXX  09004 82583 32596 40903 10257 20215 39785 40122 84500 333 10314 29072 55048 58015;EQDQ01  00002PRCP06
0173825830999992005060912004-05167-040667FM-12+029999999V0200901N004612200019N0500001N1+02691+02061101421ADDAA106000091GF102991021011008001001001MA1999999098041MD1999999+0111REMSYN076AAXX  09124 82583 32599 20909 10269 20206 39804 40142 82100 333 20219 58011;EQDQ01  00002PRCP06
0179825830999992005061000004-05167-040667FM-12+029999999V0200901N002112200019N0040001N1+02491+02291101481ADDAA106000091GF100991001001999999001001MA1999999098101MD1999999+0251REMSYN082AAXX  10004 82583 32996 00904 10249 20229 39810 40148 333 10315 29073 55053 58025;EQDQ01  00002PRCP06
0173825830999992005061012004-05167-040667FM-12+029999999V0200901N002612200019N0500001N1+02691+01861101331ADDAA106000091GF101991011011008001001001MA1999999098011MD1999999-0031REMSYN076AAXX  10124 82583 32599 10905 10269 20186 39801 40133 81100 333 20188 59003;EQDQ01  00002PRCP06
0179825830999992005061100004-05167-040667FM-12+029999999V0200901N001012200019N0040001N1+02441+01921101231ADDAA106000091GF100991001001999999001001MA1999999097851MD1999999-0151REMSYN082AAXX  11004 82583 32996 00902 10244 20192 39785 40123 333 10329 29061 55104 59015;EQDQ01  00002PRCP06
0173825830999992005061112004-05167-040667FM-12+029999999V0200901N003612200019N0500001N1+02851+02141101301ADDAA106000091GF103991031011008001001001MA1999999097921MD1999999-0091REMSYN076AAXX  11124 82583 32599 30907 10285 20214 39792 40130 83100 333 20213 59009;EQDQ01  00002PRCP06
0185825830999992005061200004-05170-040670FM-12+029999999V0200901N003610075019N0040001N1+02681+02061101231ADDAA106000091GF105991051011008001001001MA1999999097881MD1999999+0031REMSYN088AAXX  12004 82583 32596 50907 10268 20206 39788 40123 85100 333 10319 29063 55067 58003;EQDQ01  00002PRCP06
0177825830999992005061212004-05170-040670FM-12+029999999V0201401N003612200019N0500001N1+02651+02141101271ADDAY161061AY261061GF104991041021008001001001MA1999999097911MD1999999-0011MW1021REMSYN088AAXX  12124 82583 21599 41407 10265 20214 39791 40127 70266 84200 333 20225 59001 69934;
0185825830999992005061300004-05167-040667FM-12+029999999V0200501N001512200019N0040001N1+02611+02141101151ADDAA106000091GF104991041051008001001001MA1999999097791MD1999999-0091REMSYN088AAXX  13004 82583 32596 40503 10261 20214 39779 40115 84500 333 10316 29068 55053 59009;EQDQ01  00002PRCP06
0177825830999992005061312004-05167-040667FM-12+029999999V0201401N002612200019N0500001N1+02591+02231101321ADDAY161061AY261061GF104991041021008001001001MA1999999097941MD1999999+0031MW1211REMSYN088AAXX  13124 82583 21599 41405 10259 20223 39794 40132 72166 84200 333 20227 58003 60014;
0185825830999992005061400004-05167-040667FM-12+029999999V0200901N001512200019N0040001N1+02461+01971101191ADDAA106000091GF102991021011008001001001MA1999999097811MD1999999+0021REMSYN088AAXX  14004 82583 32596 20903 10246 20197 39781 40119 82100 333 10329 29074 55082 58002;EQDQ01  00002PRCP06
0177825830999992005061412004-05167-040667FM-12+029999999V0200901N002610120019N0500001N1+02481+02191101471ADDAY161061AY261061GF108991081081008001999999MA1999999098071MD1999999+0131MW1031REMSYN088AAXX  14124 82583 21599 80905 10248 20219 39807 40147 70366 888// 333 20220 58013 69924;
0185825830999992005061500004-05167-040667FM-12+029999999V0200501N002110075019N0040001N1+02671+02041101371ADDAA106000091GF108991081051008001999999MA1999999097991MD1999999+0181REMSYN088AAXX  15004 82583 32596 80504 10267 20204 39799 40137 885// 333 10330 29063 55051 58018;EQDQ01  00002PRCP06
0173825830999992005061512004-05167-040667FM-12+029999999V0200901N005112200019N0500001N1+02811+02071101451ADDAA106000091GF103991031011008001001001MA1999999098091MD1999999+0021REMSYN076AAXX  15124 82583 32599 30910 10281 20207 39809 40145 83100 333 20207 58002;EQDQ01  00002PRCP06
0179825830999992005061600004-05167-040667FM-12+029999999V0200901N002112200019N0040001N1+02541+02021101221ADDAA106000091GF100991001001999999001001MA1999999097861MD1999999-0131REMSYN082AAXX  16004 82583 32996 00904 10254 20202 39786 40122 333 10334 29060 55094 59013;EQDQ01  00002PRCP06
0173825830999992005061612004-05167-040667FM-12+029999999V0201401N004612200019N0500001N1+02851+01901101341ADDAA106000091GF104991041011008001001001MA1999999097971MD1999999-0121REMSYN076AAXX  16124 82583 32599 41409 10285 20190 39797 40134 84100 333 20217 59012;EQDQ01  00002PRCP06
0179825830999992005061700004-05167-040667FM-12+029999999V0200501N000512200019N0040001N1+02531+01981101241ADDAA106000091GF100991001001999999001001MA1999999097881MD1999999+0021REMSYN082AAXX  17004 82583 32996 00501 10253 20198 39788 40124 333 10335 29056 55078 58002;EQDQ01  00002PRCP06
0173825830999992005061712004-05167-040667FM-12+029999999V0200501N002112200019N0500001N1+02701+02111101461ADDAA106000091GF103991031021008001001001MA1999999098081MD1999999+0211REMSYN076AAXX  17124 82583 32599 30504 10270 20211 39808 40146 83200 333 20202 58021;EQDQ01  00002PRCP06
0173825830999992005061812004-05167-040667FM-12+029999999V0200901N003112200019N0500001N1+02841+02041101381ADDAA106000091GF102991021021008001001001MA1999999098021MD1999999-0061REMSYN076AAXX  18124 82583 32599 20906 10284 20204 39802 40138 82200 333 20208 59006;EQDQ01  00002PRCP06
0185825830999992005061900004-05170-040670FM-12+029999999V0200501N001010075019N0040001N1+02491+02311101341ADDAA106000091GF106991061011008001001001MA1999999097971MD1999999+0071REMSYN088AAXX  19004 82583 32596 60502 10249 20231 39797 40134 86100 333 10340 29064 55062 58007;EQDQ01  00002PRCP06
0173825830999992005061912004-05170-040670FM-12+029999999V0200901N004612200019N0500001N1+02841+02071101421ADDAA106000091GF102991021011008001001001MA1999999098051MD1999999+0031REMSYN076AAXX  19124 82583 32599 20909 10284 20207 39805 40142 82100 333 20228 58003;EQDQ01  00002PRCP06
0185825830999992005062000004-05170-040670FM-12+029999999V0200901N002612200019N0040001N1+02571+02011101271ADDAA106000091GF101991011011008001001001MA1999999097911MD1999999-0061REMSYN088AAXX  20004 82583 32596 10905 10257 20201 39791 40127 81100 333 10332 29060 55091 59006;EQDQ01  00002PRCP06
0173825830999992005062012004-05170-040670FM-12+029999999V0200901N005112200019N0500001N1+02811+02021101411ADDAA106000091GF102991021011008001001001MA1999999098041MD1999999+0011REMSYN076AAXX  20124 82583 32599 20910 10281 20202 39804 40141 82100 333 20201 58001;EQDQ01  00002PRCP06
0179825830999992005062100004-05167-040667FM-12+029999999V0201401N000512200019N0040001N1+02491+01871101261ADDAA106000091GF100991001001999999001001MA1999999097891MD1999999-0021REMSYN082AAXX  21004 82583 32996 01401 10249 20187 39789 40126 333 10331 29058 55090 59002;EQDQ01  00002PRCP06
0173825830999992005062112004-05167-040667FM-12+029999999V0201401N004610450019N0500001N1+02711+02101101421ADDAA106000091GF106991041021008001051001MA1999999098041MD1999999+0001REMSYN076AAXX  21124 82583 32599 61409 10271 20210 39804 40142 84250 333 20224 58000;EQDQ01  00002PRCP06
0185825830999992005062200004-05167-040667FM-12+029999999V0200901N000512200019N0040001N1+02611+01981101231ADDAA106000091GF101991001001999999001011MA1999999097861MD1999999-0031REMSYN088AAXX  22004 82583 32996 10901 10261 20198 39786 40123 80001 333 10335 29060 55090 59003;EQDQ01  00002PRCP06
0173825830999992005062212004-05167-040667FM-12+029999999V0200901N004612200019N0500001N1+02861+01811101371ADDAA106000091GF102991011011008001001011MA1999999098011MD1999999-0031REMSYN076AAXX  22124 82583 32599 20909 10286 20181 39801 40137 81101 333 20209 59003;EQDQ01  00002PRCP06
0185825830999992005062300004-05167-040667FM-12+029999999V0200901N001512200019N0040001N1+02601+01791101251ADDAA106000091GF101991011011012501001001MA1999999097891MD1999999+0031REMSYN088AAXX  23004 82583 32696 10903 10260 20179 39789 40125 81100 333 10342 29050 55103 58003;EQDQ01  00002PRCP06
0173825830999992005062312004-05167-040667FM-12+029999999V0201401N005712200019N0500001N1+02811+01861101471ADDAA106000091GF101991011011012501001001MA1999999098041MD1999999+0031REMSYN076AAXX  23124 82583 32699 11411 10281 20186 39804 40147 81100 333 20213 58003;EQDQ01  00002PRCP06
0185825830999992005062400004-05167-040667FM-12+029999999V0201801N001012200019N0040001N1+02711+01711101291ADDAA106000091GF103991031011008001001001MA1999999097941MD1999999+0051REMSYN088AAXX  24004 82583 32596 31802 10271 20171 39794 40129 83100 333 10349 29047 55102 58005;EQDQ01  00002PRCP06
0173825830999992005062412004-05167-040667FM-12+029999999V0201401N003610075019N0500001N1+02621+02011101491ADDAA106000091GF107991071051008001001001MA1999999098111MD1999999+0041REMSYN076AAXX  24124 82583 32599 71407 10262 20201 39811 40149 87500 333 20226 58004;EQDQ01  00002PRCP06
0185825830999992005062500004-05167-040667FM-12+029999999V0200901N001512200019N0040001N1+02601+01921101221ADDAA106000091GF102991021051008001001001MA1999999097851MD1999999-0031REMSYN088AAXX  25004 82583 32596 20903 10260 20192 39785 40122 82500 333 10334 29060 55031 59003;EQDQ01  00002PRCP06
0173825830999992005062512004-05167-040667FM-12+029999999V0200901N002110075019N0500001N1+02531+02041101381ADDAA106000091GF108991081051008001999999MA1999999098001MD1999999-0111REMSYN076AAXX  25124 82583 32599 80904 10253 20204 39800 40138 885// 333 20213 59011;EQDQ01  00002PRCP06
0185825830999992005062600004-05170-040670FM-12+029999999V0200501N001512200019N0040001N1+02671+02111101261ADDAA106000091GF102991021011008001001001MA1999999097881MD1999999+0031REMSYN088AAXX  26004 82583 32596 20503 10267 20211 39788 40126 82100 333 10196 29069 55006 58003;EQDQ01  00002PRCP06
0173825830999992005062612004-05170-040670FM-12+029999999V0200901N004110075019N0500001N1+02551+01901101451ADDAA106000091GF107991071051008001001001MA1999999098071MD1999999+0071REMSYN076AAXX  26124 82583 32599 70908 10255 20190 39807 40145 87500 333 20217 58007;EQDQ01  00002PRCP06
0198825830999992005062700004-05167-040667FM-12+029999999V0200901N003112200019N0040001N1+02691+01881101201ADDAA106000091GF102991021011008001001001KA1240M+03181MA1999999097831MD1999999-0051REMSYN088AAXX  27004 82583 32596 20906 10269 20188 39783 40120 82100 333 10318 29057 55041 59005;EQDQ01  00002PRCP06
0190825830999992005062712004-05167-040667FM-12+029999999V0200901N003110042019N0020001N1+02291+02251101411ADDAY161061AY261061GF108991081051004501999999KA1240N+02291MA1999999098021MD1999999-0051MW1631REMSYN088AAXX  27124 82583 21495 80906 10229 20225 39802 40141 76366 885// 333 20229 59005 60044;
0202825830999992005062800004-05167-040667FM-12+029999999V0203601N001512200019N0040001N1+02291+01901101411ADDAY161061AY261061GF101991011011008001001001KA1240M+02811MA1999999098001MD1999999+0171MW1021REMSYN100AAXX  28004 82583 21596 13603 10229 20190 39800 40141 70266 81100 333 10281 29076 55001 58017 60011;
0162825830999992005062812004-05167-040667FM-12+029999999V0200901N004610120019N0500001N1+02581+02101101491ADDGF108991081081008001999999KA1240N+02001MA1999999098091MD1999999+0071REMSYN082AAXX  28124 82583 22599 80909 10258 20210 39809 40149 888// 333 20200 58007 60014;
0208825830999992005062900004-05167-040667FM-12+029999999V0200901N001512200019N0040001N1+02421+01911101331ADDAA106000091GA1001+999999999GF100991001001999999001001KA1240M+03281MA1999999097941MD1999999-0061REMSYN082AAXX  29004 82583 32996 00903 10242 20191 39794 40133 333 10328 29064 55071 59006;EQDQ01  00002PRCP06
0186825830999992005062912004-05167-040667FM-12+029999999V0201401N003112200019N0500001N1+02691+01881101371ADDAA106000091GF101991011011008001001001KA1240N+01941MA1999999097991MD1999999-0101REMSYN076AAXX  29124 82583 32599 11406 10269 20188 39799 40137 81100 333 20194 59010;EQDQ01  00002PRCP06
0198825830999992005063000004-05167-040667FM-12+029999999V0209999C000012200019N0040001N1+02571+01991101231ADDAA106000091GF103991031051008001001001KA1240M+03091MA1999999097861MD1999999-0081REMSYN088AAXX  30004 82583 32596 30900 10257 20199 39786 40123 83500 333 10309 29062 55044 59008;EQDQ01  00002PRCP06
0186825830999992005063012004-05167-040667FM-12+029999999V0200901N007212200019N0500001N1+02701+01601101371ADDAA106000091GF102991011011008001001011KA1240N+01951MA1999999097991MD1999999+0001REMSYN076AAXX  30124 82583 32599 20914 10270 20160 39799 40137 81101 333 20195 58000;EQDQ01  00002PRCP06
0179825830999992005070100004-05167-040667FM-12+029999999V0200501N002112200019N0040001N1+02591+01791101281ADDAA106000091GF100991001001999999001001MA1999999097901MD1999999+0041REMSYN082AAXX  01004 82583 32996 00504 10259 20179 39790 40128 333 10326 29050 55076 58004;EQDQ01  00002PRCP06
0173825830999992005070112004-05167-040667FM-12+029999999V0200901N004610075019N0500001N1+02711+02051101391ADDAA106000091GF106991061021008001001001MA1999999098011MD1999999+0021REMSYN076AAXX  01124 82583 32599 60909 10271 20205 39801 40139 86200 333 20221 58002;EQDQ01  00002PRCP06
0173825830999992005070212004-05167-040667FM-12+029999999V0201401N004612200019N0500001N1+02721+01821101511ADDAA106000091GF101991011011008001001001MA1999999098131MD1999999+0121REMSYN076AAXX  02124 82583 32599 11409 10272 20182 39813 40151 81100 333 20197 58012;EQDQ01  00002PRCP06
0185825830999992005070300004-05170-040670FM-12+029999999V0200901N002112200019N0040001N1+02651+01821101541ADDAA106000091GF101991011011008001001001MA1999999098161MD1999999+0171REMSYN088AAXX  03004 82583 32596 10904 10265 20182 39816 40154 81100 333 10342 29051 55091 58017;EQDQ01  00002PRCP06
0173825830999992005070312004-05170-040670FM-12+029999999V0201401N006210075019N0500001N1+02731+01971101551ADDAA106000091GF106991061021008001001001MA1999999098171MD1999999+0041REMSYN076AAXX  03124 82583 32599 61412 10273 20197 39817 40155 86200 333 20201 58004;EQDQ01  00002PRCP06
0185825830999992005070400004-05167-040667FM-12+029999999V0200901N002112200019N0040001N1+02591+01871101391ADDAA106000091GF104991041051008001001001MA1999999098011MD1999999-0151REMSYN088AAXX  04004 82583 32596 40904 10259 20187 39801 40139 84500 333 10324 29058 55102 59015;EQDQ01  00002PRCP06
0173825830999992005070412004-05167-040667FM-12+029999999V0200901N004610120019N0500001N1+02661+02041101401ADDAA106000091GF108991081081008001999999MA1999999098021MD1999999-0151REMSYN076AAXX  04124 82583 32599 80909 10266 20204 39802 40140 888// 333 20216 59015;EQDQ01  00002PRCP06
0179825830999992005070500004-05167-040667FM-12+029999999V0200901N001512200019N0040001N1+02501+01721101331ADDAA106000091GF100991001001999999001001MA1999999097951MD1999999-0061REMSYN082AAXX  05004 82583 32996 00903 10250 20172 39795 40133 333 10320 29058 55035 59006;EQDQ01  00002PRCP06
0173825830999992005070512004-05167-040667FM-12+029999999V0201401N003112200019N0500001N1+02691+02061101501ADDAA106000091GF104991041011008001001001MA1999999098121MD1999999+0101REMSYN076AAXX  05124 82583 32599 41406 10269 20206 39812 40150 84100 333 20197 58010;EQDQ01  00002PRCP06
0179825830999992005070600004-05167-040667FM-12+029999999V0200901N001512200019N0040001N1+02691+01781101351ADDAA106000091GF100991001001999999001001MA1999999097981MD1999999+0031REMSYN082AAXX  06004 82583 32996 00903 10269 20178 39798 40135 333 10348 29056 55014 58003;EQDQ01  00002PRCP06
0173825830999992005070612004-05167-040667FM-12+029999999V0201401N004110075019N0500001N1+02711+02001101591ADDAA106000091GF106991051021008001041001MA1999999098211MD1999999+0091REMSYN076AAXX  06124 82583 32599 61408 10271 20200 39821 40159 85240 333 20221 58009;EQDQ01  00002PRCP06
0179825830999992005070700004-05167-040667FM-12+029999999V0200901N002112200019N0040001N1+02681+01921101401ADDAA106000091GF100991001001999999001001MA1999999098031MD1999999+0051REMSYN082AAXX  07004 82583 32996 00904 10268 20192 39803 40140 333 10339 29055 55075 58005;EQDQ01  00002PRCP06
0173825830999992005070712004-05167-040667FM-12+029999999V0200901N004612200019N0500001N1+02691+02011101631ADDAA106000091GF103991021021008001001011MA1999999098251MD1999999+0041REMSYN076AAXX  07124 82583 32599 30909 10269 20201 39825 40163 82201 333 20210 58004;EQDQ01  00002PRCP06
0179825830999992005070800004-05167-040667FM-12+029999999V0200901N001512200019N0040001N1+02751+01801101371ADDAA106000091GF100991001001999999001001MA1999999098001MD1999999-0031REMSYN082AAXX  08004 82583 32996 00903 10275 20180 39800 40137 333 10382 29052 55089 59003;EQDQ01  00002PRCP06
0173825830999992005070812004-05167-040667FM-12+029999999V0200901N004610120019N0500001N1+02581+02101101591ADDAA106000091GF107991061081008001041999MA1999999098211MD1999999-0041REMSYN076AAXX  08124 82583 32599 70909 10258 20210 39821 40159 8684/ 333 20240 59004;EQDQ01  00002PRCP06
0185825830999992005070900004-05167-040667FM-12+029999999V0200901N001512200019N0040001N1+02581+01971101421ADDAA106000091GF102991021011008001001001MA1999999098041MD1999999+0041REMSYN088AAXX  09004 82583 32596 20903 10258 20197 39804 40142 82100 333 10322 29064 55029 58004;EQDQ01  00002PRCP06
