0202827650999992005010100004-07333-047467FM-12+021299999V0203601N001012200019N0200001N1+02421+02301101381ADDAY161061AY261061GF104991021021008001041001KA1240M+03121MA1999999098981MD1999999+0031MW1131REMSYN100AAXX  01004 82765 21598 43602 10242 20230 39898 40138 71366 82240 333 10312 29089 55/// 58003 60061;
0162827650999992005010112004-07333-047467FM-12+021299999V0203401N000510450019N0200001N1+02601+02371101511ADDGF106991021051008001041001KA1240N+02291MA1999999099101MD1999999-0051REMSYN082AAXX  01124 82765 22598 63401 10260 20237 39910 40151 82540 333 20229 59005 60124;
0171827650999992005010118004-07333-047467FM-12+021299999V0203401N002110450019N0200001N1+02981+02581101101ADDAY161061AY261061GF106991031021008001041001MA1999999098711MD1999999-0191MW1001REMSYN082AAXX  01184 82765 21598 63404 10298 20258 39871 40110 70066 83240 333 59019 60081;
0202827650999992005010200004-07333-047467FM-12+021299999V0201801N001019999999N0100001N1+02441+02341101431ADDAY191061AY251061GF108991021081004501999999KA1240M+03141MA1999999099021MD1999999+0041MW1001REMSYN100AAXX  02004 82765 21497 81802 10244 20234 39902 40143 70095 828// 333 10314 29088 55/// 58004 69941;
0190827650999992005010212004-07333-047467FM-12+021299999V0209999C000010450019N0200001N1+02421+02351101611ADDAY191061AY261061GF106991031081008001021001KA1240N+02331MA1999999099191MD1999999+0091MW1031REMSYN088AAXX  02124 82765 21598 60000 10242 20235 39919 40161 70396 83820 333 20233 58009 60244;
0171827650999992005010218004-07333-047467FM-12+021299999V0209999C000010120019N0200001N1+02661+02521101421ADDAY191061AY261061GF108991061081008001021999MA1999999099011MD1999999+0301MW1031REMSYN082AAXX  02184 82765 21598 80000 10266 20252 39901 40142 70396 8682/ 333 58030 60031;
0212827650999992005010300004-07333-047467FM-12+021299999V0209999C000012200019N0200001N1+02501+02361101541ADDAY191061AY251061GA1001+999999999GF100991001001999999001001KA1240M+02841MA1999999099121MD1999999+0101MW1001REMSYN094AAXX  03004 82765 21998 00000 10250 20236 39912 40154 70095 333 10284 29093 55/// 58010 69921;
0162827650999992005010312004-07333-047467FM-12+021299999V0201801N000510120019N0200001N1+02321+02251101731ADDGF108991071081008001021999KA1240N+02271MA1999999099301MD1999999+0111REMSYN082AAXX  03124 82765 22598 81801 10232 20225 39930 40173 8782/ 333 20227 58011 60034;
0167827650999992005010318004-07333-047467FM-12+021299999V0202301N001512200019N0200001N1+03061+02521101301ADDAA106000091GF104991031021008001041001MA1999999098911MD1999999-0101REMSYN070AAXX  03184 82765 32598 42303 10306 20252 39891 40130 83240 333 59010;EQDQ01  00002PRCP06
0208827650999992005010400004-07333-047467FM-12+021299999V0209999C000012200019N0200001N1+02641+02541101411ADDAA106000091GA1001+999999999GF100991001001999999001001KA1240M+03201MA1999999099001MD1999999-0121REMSYN082AAXX  04004 82765 32998 00000 10264 20254 39900 40141 333 10320 29087 55/// 59012;EQDQ01  00002PRCP06
0186827650999992005010412004-07333-047467FM-12+021299999V0200501N000510075019N0200001N1+02681+02431101451ADDAA106000091GF106991061011008001001001KA1240N+02321MA1999999099061MD1999999-0241REMSYN076AAXX  04124 82765 32598 60501 10268 20243 39906 40145 86100 333 20232 59024;EQDQ01  00002PRCP06
0195827650999992005010418004-07333-047467FM-12+021299999V0201801N002110450019N0200001N1+03001+02491101111ADDAA106000091AY101061AY201061GF106991041021008001061001MA1999999098721MD1999999-0191MW1161REMSYN076AAXX  04184 82765 31598 61804 10300 20249 39872 40111 71600 84260 333 59019;EQDQ01  00002PRCP06
0208827650999992005010500004-07333-047467FM-12+021299999V0200501N000512200019N0200001N1+02901+02721101161ADDAA106000091GA1001+999999999GF100991001001999999001001KA1240M+03301MA1999999098791MD1999999-0211REMSYN082AAXX  05004 82765 32998 00501 10290 20272 39879 40116 333 10330 29085 55/// 59021;EQDQ01  00002PRCP06
0186827650999992005010512004-07333-047467FM-12+021299999V0203601N002610450019N0200001N1+02821+02401101441ADDAA106000091GF105991031021008001041001KA1240N+02431MA1999999099061MD1999999+0001REMSYN076AAXX  05124 82765 32598 53605 10282 20240 39906 40144 83240 333 20243 58000;EQDQ01  00002PRCP06
0167827650999992005010518004-07333-047467FM-12+021299999V0200901N001510450019N0200001N1+03301+02301100951ADDAA106000091GF106991041021008001041001MA1999999098591MD1999999-0131REMSYN070AAXX  05184 82765 32598 60903 10330 20230 39859 40095 84240 333 59013;EQDQ01  00002PRCP06
0202827650999992005010600004-07333-047467FM-12+021299999V0200501N000512200019N0200001N1+02901+02561101071ADDAY151061AY251061GF102991021011008001001001KA1240M+03441MA1999999098701MD1999999-0091MW1001REMSYN100AAXX  06004 82765 21598 20501 10290 20256 39870 40107 70055 82100 333 10344 29074 55/// 59009 69911;
0162827650999992005010612004-07333-047467FM-12+021299999V0200501N000510450019N0200001N1+02801+02461101411ADDGF105991021011008001041001KA1240N+02471MA1999999099041MD1999999-0021REMSYN082AAXX  06124 82765 22598 50501 10280 20246 39904 40141 82140 333 20247 59002 69914;
0167827650999992005010618004-07333-047467FM-12+021299999V0200501N002112200019N0200001N1+03321+02441100981ADDAA106000091GF104991041021008001001001MA1999999098621MD1999999+0031REMSYN070AAXX  06184 82765 32598 40504 10332 20244 39862 40098 84200 333 58003;EQDQ01  00002PRCP06
0208827650999992005010700004-07333-047467FM-12+021299999V0209999C000012200019N0200001N1+02961+02661101071ADDAA106000091GA1001+999999999GF100991001001999999001001KA1240M+03461MA1999999098711MD1999999+0011REMSYN082AAXX  07004 82765 32998 00000 10296 20266 39871 40107 333 10346 29076 55/// 58001;EQDQ01  00002PRCP06
0186827650999992005010712004-07333-047467FM-12+021299999V0200501N001512200019N0200001N1+02721+02501101441ADDAA106000091GF103991021011008001041001KA1240N+02371MA1999999099061MD1999999+0021REMSYN076AAXX  07124 82765 32598 30503 10272 20250 39906 40144 82140 333 20237 58002;EQDQ01  00002PRCP06
0167827650999992005010718004-07333-047467FM-12+021299999V0201401N002612200019N0200001N1+03441+02371101041ADDAA106000091GF104991041021008001001001MA1999999098681MD1999999+0061REMSYN070AAXX  07184 82765 32598 41405 10344 20237 39868 40104 84200 333 58006;EQDQ01  00002PRCP06
0208827650999992005010800004-07333-047467FM-12+021299999V0200501N001512200019N0200001N1+02941+02431101101ADDAA106000091GA1001+999999999GF100991001001999999001001KA1240M+03541MA1999999098731MD1999999+0021REMSYN082AAXX  08004 82765 32998 00503 10294 20243 39873 40110 333 10354 29071 55/// 58002;EQDQ01  00002PRCP06
0186827650999992005010812004-07333-047467FM-12+021299999V0200901N001512200019N0200001N1+02841+02291101371ADDAA106000091GF102991001001999999001011KA1240N+02281MA1999999099001MD1999999-0061REMSYN076AAXX  08124 82765 32998 20903 10284 20229 39900 40137 80001 333 20228 59006;EQDQ01  00002PRCP06
0167827650999992005010818004-07333-047467FM-12+021299999V0200901N001512200019N0200001N1+03431+02361100951ADDAA106000091GF104991031091008001061001MA1999999098591MD1999999-0091REMSYN070AAXX  08184 82765 32598 40903 10343 20236 39859 40095 83960 333 59009;EQDQ01  00002PRCP06
0173827650999992005010912004-07330-047470FM-12+019399999V0203601N004110120019N0200001N1+02861+02351101451ADDAA106000091GF106991061081008001001001MA1999999099081MD1999999+0081REMSYN076AAXX  09124 82765 32598 63608 10286 20235 39908 40145 86800 333 20246 58008;EQDQ01  00002PRCP06
0167827650999992005010918004-07330-047470FM-12+019399999V0203201N001510450019N0200001N1+03201+02351101031ADDAA106000091GF106991041021008001061041MA1999999098661MD1999999+0071REMSYN070AAXX  09184 82765 32598 63203 10320 20235 39866 40103 84264 333 58007;EQDQ01  00002PRCP06
0226827650999992005011000004-07333-047467FM-12+021299999V0200501N002110090019N0200001N1+02881+02351101231ADDAA106000091AY121061AY221061GF108991081081004501999999KA1240M+03431MA1999999098861MD1999999+0191MW1131REMSYN094AAXX  10004 82765 31498 80504 10288 20235 39886 40123 71322 888// 333 10343 29070 55/// 58019;EQDQ01  00002PRCP06
0186827650999992005011012004-07333-047467FM-12+021299999V0201401N000512200019N0200001N1+02531+02271101461ADDAA106000091GF104991021011008001031001KA1240N+02381MA1999999099071MD1999999-0011REMSYN076AAXX  10124 82765 32598 41401 10253 20227 39907 40146 82130 333 20238 59001;EQDQ01  00002PRCP06
0167827650999992005011018004-07333-047467FM-12+021299999V0200501N001012200019N0200001N1+03231+02431101031ADDAA106000091GF104991031031008001061001MA1999999098661MD1999999+0001REMSYN070AAXX  10184 82765 32598 40502 10323 20243 39866 40103 83360 333 58000;EQDQ01  00002PRCP06
0202827650999992005011100004-07333-047467FM-12+021299999V0202301N000510090019N0200001N1+02391+02281101351ADDAY161061AY221061GF108991081081004501999999KA1240M+03461MA1999999098941MD1999999+0081MW1131REMSYN100AAXX  11004 82765 21498 82301 10239 20228 39894 40135 71362 888// 333 10346 29084 55/// 58008 60141;
0162827650999992005011112004-07333-047467FM-12+021299999V0202701N000512200019N0200001N1+02681+02431101551ADDGF104991021011008001041001KA1240N+02391MA1999999099141MD1999999+0071REMSYN082AAXX  11124 82765 22598 42701 10268 20243 39914 40155 82140 333 20239 58007 60144;
0167827650999992005011118004-07333-047467FM-12+021299999V0203201N001010075019N0200001N1+03121+02481101121ADDAA106000091GF108991061021008001021999MA1999999098741MD1999999+0081REMSYN070AAXX  11184 82765 32598 83202 10312 20248 39874 40112 8622/ 333 58008;EQDQ01  00002PRCP06
0162827650999992005011212004-07333-047467FM-12+021299999V0200501N001510120019N0200001N1+02601+02461101401ADDGF107991051081008001021001KA1240N+02491MA1999999099001MD1999999-0141REMSYN082AAXX  12124 82765 22598 70503 10260 20246 39900 40140 85820 333 20249 59014 69924;
0171827650999992005011218004-07333-047467FM-12+021299999V0202301N001510120019N0200001N1+02661+02481101191ADDAY151061AY251061GF108991051081008001021999MA1999999098791MD1999999+0051MW1511REMSYN082AAXX  12184 82765 21598 82303 10266 20248 39879 40119 75155 8582/ 333 58005 69961;
0202827650999992005011300004-07333-047467FM-12+021299999V0201801N001010120019N0200001N1+02521+02431101301ADDAY151061AY251061GF105991051081008001001001KA1240M+02881MA1999999098901MD1999999+0021MW1001REMSYN100AAXX  13004 82765 21598 51802 10252 20243 39890 40130 70055 85800 333 10288 29093 55/// 58002 69911;
0162827650999992005011312004-07333-047467FM-12+021299999V0200201N000510075019N0200001N1+02561+02421101561ADDGF107991061061008001031001KA1240N+02431MA1999999099151MD1999999+0151REMSYN082AAXX  13124 82765 22598 70201 10256 20242 39915 40156 86630 333 20243 58015 69974;
0171827650999992005011318004-07333-047467FM-12+021299999V0203601N002110075019N0200001N1+02881+02411101211ADDAY161061AY261061GF108991061021008001021999MA1999999098821MD1999999+0031MW1151REMSYN082AAXX  13184 82765 21598 83604 10288 20241 39882 40121 71566 8622/ 333 58003 60091;
0208827650999992005011400004-07333-047467FM-12+021299999V0209999C000010024019N0040001N1+02681+02581101281ADDAA106000091GA1091+999999999GF109991091999999999999999KA1240M+02941MA1999999098881MD1999999-0021REMSYN082AAXX  14004 82765 32/96 90000 10268 20258 39888 40128 333 10294 29089 55/// 59002;EQDQ01  00002PRCP06
0190827650999992005011412004-07333-047467FM-12+021299999V0200501N000510120019N0040001N1+02481+02411101431ADDAY101061AY201061GF108991081081008001999999KA1240N+02451MA1999999099031MD1999999-0121MW1101REMSYN088AAXX  14124 82765 21596 80501 10248 20241 39903 40143 71000 888// 333 20245 59012 60094;
0171827650999992005011418004-07333-047467FM-12+021299999V0200501N002110120019N0200001N1+02621+02411101101ADDAY161061AY251061GF107991051081008001021001MA1999999098971MD1999999-0121MW1001REMSYN082AAXX  14184 82765 21598 70504 10262 20241 39897 40110 70065 85820 333 59012 60031;
0190827650999992005011512004-07333-047467FM-12+021299999V0200901N000510120019N0200001N1+02501+02411101471ADDAY191061AY261061GF107991051081008001021001KA1240N+02411MA1999999099061MD1999999+0031MW1001REMSYN088AAXX  15124 82765 21598 70901 10250 20241 39906 40147 70096 85820 333 20241 58003 60134;
0167827650999992005011518004-07333-047467FM-12+021299999V0203601N003110120019N0200001N1+02821+02361101081ADDAA106000091GF107991061081008001041001MA1999999098691MD1999999-0011REMSYN070AAXX  15184 82765 32598 73606 10282 20236 39869 40108 86840 333 59001;EQDQ01  00002PRCP06
0202827650999992005011600004-07333-047467FM-12+021299999V0200501N001010075019N0200001N1+02561+02381101351ADDAY151061AY251061GF108991081051008001999999KA1240M+02861MA1999999098951MD1999999+0231MW1511REMSYN100AAXX  16004 82765 21598 80502 10256 20238 39895 40135 75155 885// 333 10286 29088 55/// 58023 69981;
0190827650999992005011612004-07333-047467FM-12+021299999V0201401N000510120019N0200001N1+02461+02341101431ADDAY151061AY251061GF108991061081008001021999KA1240N+02351MA1999999099021MD1999999-0041MW1001REMSYN088AAXX  16124 82765 21598 81401 10246 20234 39902 40143 70055 8682/ 333 20235 59004 60014;
0167827650999992005011618004-07333-047467FM-12+021299999V0203601N001510450019N0200001N1+02921+02361100981ADDAA106000091GF106991041021008001041001MA1999999098591MD1999999-0101REMSYN070AAXX  16184 82765 32598 63603 10292 20236 39859 40098 84240 333 59010;EQDQ01  00002PRCP06
0185827650999992005011700004-07330-047470FM-12+019399999V0200501N001010450019N0200001N1+02661+02411101001ADDAA106000091GF107991041081008001041001MA1999999098611MD1999999-0341REMSYN088AAXX  17004 82765 32598 70502 10266 20241 39861 40100 84840 333 10306 29084 55/// 59034;EQDQ01  00002PRCP06
0173827650999992005011712004-07330-047470FM-12+019399999V0200501N002610090019N0200001N1+02551+02291101351ADDAA106000091GF108991051081004501021999MA1999999098951MD1999999-0071REMSYN076AAXX  17124 82765 32498 80505 10255 20229 39895 40135 8582/ 333 20243 59007;EQDQ01  00002PRCP06
0167827650999992005011718004-07330-047470FM-12+019399999V0203601N002610450019N0200001N1+03151+02321100891ADDAA106000091GF106991041031008001061001MA1999999098521MD1999999-0071REMSYN070AAXX  17184 82765 32598 63605 10315 20232 39852 40089 84360 333 59007;EQDQ01  00002PRCP06
0202827650999992005011800004-07333-047467FM-12+021299999V0201401N001010090019N0100001N1+02561+02421101211ADDAY161061AY221061GF108991081081004501999999KA1240M+03231MA1999999098811MD1999999+0201MW1291REMSYN100AAXX  18004 82765 21497 81402 10256 20242 39881 40121 72962 888// 333 10323 29083 55/// 58020 60041;
0190827650999992005011812004-07333-047467FM-12+021299999V0203601N001510450019N0200001N1+02611+02401101281ADDAY161061AY221061GF106991041021004501031001KA1240N+02401MA1999999098881MD1999999-0071MW1031REMSYN088AAXX  18124 82765 21498 63603 10261 20240 39888 40128 70362 84230 333 20240 59007 60204;
0195827650999992005011818004-07333-047467FM-12+021299999V0202701N003610042019N0100001N1+03071+02431100981ADDAA106000091AY121061AY221061GF107991051031004501061001MA1999999098601MD1999999+0081MW1151REMSYN076AAXX  18184 82765 31497 72707 10307 20243 39860 40098 71522 85360 333 58008;EQDQ01  00002PRCP06
0202827650999992005011900004-07333-047467FM-12+021299999V0200501N001010090019N0100001N1+02391+02291101361ADDAY161061AY221061GF108991081081004501999999KA1240M+03121MA1999999098951MD1999999+0141MW1201REMSYN100AAXX  19004 82765 21497 80502 10239 20229 39895 40136 72062 888// 333 10312 29087 55/// 58014 60181;
0190827650999992005011912004-07333-047467FM-12+021299999V0203201N002610090019N0200001N1+02411+02231101451ADDAY151061AY221061GF108991051081004501021999KA1240N+02341MA1999999099031MD1999999+0151MW1031REMSYN088AAXX  19124 82765 21498 83205 10241 20223 39903 40145 70352 8582/ 333 20234 58015 60184;
0167827650999992005011918004-07333-047467FM-12+021299999V0203201N001010075019N0200001N1+02871+02351101091ADDAA106000091GF108991051021008001011999MA1999999098701MD1999999+0101REMSYN070AAXX  19184 82765 32598 83202 10287 20235 39870 40109 8521/ 333 58010;EQDQ01  00002PRCP06
0198827650999992005012000004-07333-047467FM-12+021299999V0209999C000010120019N0200001N1+02581+02491101191ADDAA106000091GF108991051081008001011999KA1240M+02981MA1999999098791MD1999999-0161REMSYN088AAXX  20004 82765 32598 80000 10258 20249 39879 40119 8581/ 333 10298 29088 55/// 59016;EQDQ01  00002PRCP06
0190827650999992005012012004-07333-047467FM-12+021299999V0202901N002110120019N0200001N1+02461+02321101541ADDAY151061AY251061GF108991061081008001021999KA1240N+02441MA1999999099131MD1999999+0101MW1501REMSYN088AAXX  20124 82765 21598 82904 10246 20232 39913 40154 75055 8682/ 333 20244 58010 69914;
0171827650999992005012018004-07333-047467FM-12+021299999V0201101N001010450019N0200001N1+02981+02531101111ADDAY151061AY251061GF105991021021008001021001MA1999999098731MD1999999+0031MW1001REMSYN082AAXX  20184 82765 21598 51102 10298 20253 39873 40111 70055 82220 333 58003 60011;
0198827650999992005012100004-07333-047467FM-12+021299999V0200701N002119999999N0200001N1+02741+02481101261ADDAA106000091GF106991061001008001011001KA1240M+03141MA1999999098861MD1999999+0071REMSYN088AAXX  21004 82765 32598 60704 10274 20248 39886 40126 86010 333 10314 29085 55/// 58007;EQDQ01  00002PRCP06
0162827650999992005012112004-07333-047467FM-12+021299999V0202901N002112200019N0200001N1+02801+02361101521ADDGF104991021011008001041001KA1240N+02491MA1999999099131MD1999999+0001REMSYN082AAXX  21124 82765 22598 42904 10280 20236 39913 40152 82140 333 20249 58000 69964;
0167827650999992005012118004-07333-047467FM-12+021299999V0203401N002610075019N0200001N1+03181+02391101161ADDAA106000091GF106991061021008001001001MA1999999098791MD1999999+0061REMSYN070AAXX  21184 82765 32598 63405 10318 20239 39879 40116 86200 333 58006;EQDQ01  00002PRCP06
0202827650999992005012200004-07333-047467FM-12+021299999V0202701N002110042019N0100001N1+02321+02201101441ADDAY191061AY261061GF108991071071004501021999KA1240M+03341MA1999999099041MD1999999+0181MW1511REMSYN100AAXX  22004 82765 21497 82704 10232 20220 39904 40144 75196 8772/ 333 10334 29082 55/// 58018 60221;
0162827650999992005012212004-07333-047467FM-12+021299999V0202901N001510450019N0200001N1+02561+02381101681ADDGF105991021011008001041001KA1240N+02331MA1999999099261MD1999999+0131REMSYN082AAXX  22124 82765 22598 52903 10256 20238 39926 40168 82140 333 20233 58013 60244;
0167827650999992005012218004-07333-047467FM-12+021299999V0202501N002110450019N0200001N1+03161+02451101191ADDAA106000091GF107991041021008001021001MA1999999098811MD1999999+0021REMSYN070AAXX  22184 82765 32598 72504 10316 20245 39881 40119 84220 333 58002;EQDQ01  00002PRCP06
0213827650999992005012300004-07330-047470FM-12+019399999V0200201N000510450019N0200001N1+02701+02461101511ADDAA106000091AY191061AY201061GF108991031021008001011001MA1999999099111MD1999999+0071MW1131REMSYN094AAXX  23004 82765 31598 80201 10270 20246 39911 40151 71390 83210 333 10326 29082 55/// 58007;EQDQ01  00002PRCP06
0177827650999992005012312004-07330-047470FM-12+019399999V0200501N001510120019N0200001N1+02321+02241101951ADDAY191061AY261061GF108991061081008001021999MA1999999099571MD1999999+0311MW1001REMSYN088AAXX  23124 82765 21598 80503 10232 20224 39957 40195 70096 8682/ 333 20219 58031 60854;
0167827650999992005012318004-07330-047470FM-12+019399999V0201401N000510120019N0200001N1+02761+02481101421ADDAA106000091GF108991051081008001021999MA1999999099001MD1999999+0191REMSYN070AAXX  23184 82765 32598 81401 10276 20248 39900 40142 8582/ 333 58019;EQDQ01  00002PRCP06
0173827650999992005012412004-07330-047470FM-12+019399999V0209999C000010450019N0200001N1+02441+02341101691ADDAA106000091GF106991041021008001041001MA1999999099241MD1999999-0331REMSYN076AAXX  24124 82765 32598 60000 10244 20234 39924 40169 84240 333 20233 59033;EQDQ01  00002PRCP06
0167827650999992005012418004-07330-047470FM-12+019399999V0203201N000510450019N0200001N1+03141+02401101171ADDAA106000091GF105991041011008001041001MA1999999098791MD1999999-0111REMSYN070AAXX  24184 82765 32598 53201 10314 20240 39879 40117 84140 333 59011;EQDQ01  00002PRCP06
0198827650999992005012500004-07333-047467FM-12+021299999V0203601N001012200019N0200001N1+02821+02461101391ADDAA106000091GF103991021011008001041001KA1240M+03341MA1999999099001MD1999999-0151REMSYN088AAXX  25004 82765 32598 33602 10282 20246 39900 40139 82140 333 10334 29080 55/// 59015;EQDQ01  00002PRCP06
0190827650999992005012512004-07333-047467FM-12+021299999V0200501N000510120019N0200001N1+02321+02251101481ADDAY161061AY261061GF108991061081008001021999KA1240N+02271MA1999999099081MD1999999-0161MW1001REMSYN088AAXX  25124 82765 21598 80501 10232 20225 39908 40148 70066 8682/ 333 20227 59016 60154;
0167827650999992005012518004-07333-047467FM-12+021299999V0203201N003110450019N0200001N1+02861+02441101131ADDAA106000091GF106991041021008001041001MA1999999098841MD1999999+0051REMSYN070AAXX  25184 82765 32598 63206 10286 20244 39884 40113 84240 333 58005;EQDQ01  00002PRCP06
0226827650999992005012600004-07333-047467FM-12+021299999V0203201N000510450019N0200001N1+02701+02501101451ADDAA106000091AY101061AY201061GF107991041081008001021001KA1240M+03061MA1999999099041MD1999999+0041MW1131REMSYN094AAXX  26004 82765 31598 73201 10270 20250 39904 40145 71300 84820 333 10306 29088 55/// 58004;EQDQ01  00002PRCP06
0186827650999992005012612004-07333-047467FM-12+021299999V0203601N001010090019N0200001N1+02641+02371101611ADDAA106000091GF108991051081004501021999KA1240N+02361MA1999999099211MD1999999+0131REMSYN076AAXX  26124 82765 32498 83602 10264 20237 39921 40161 8582/ 333 20236 58013;EQDQ01  00002PRCP06
0171827650999992005012618004-07333-047467FM-12+021299999V0202701N001510450019N0200001N1+03111+02411101231ADDAY161061AY221061GF106991031031004501061041MA1999999098851MD1999999+0011MW1031REMSYN082AAXX  26184 82765 21498 62703 10311 20241 39885 40123 70362 83364 333 58001 69931;
0202827650999992005012700004-07333-047467FM-12+021299999V0201801N000510450019N0200001N1+02661+02541101481ADDAY161061AY221061GF106991041021008001061001KA1240M+03221MA1999999099081MD1999999+0041MW1131REMSYN100AAXX  27004 82765 21598 61801 10266 20254 39908 40148 71362 84260 333 10322 29084 55/// 58004 69961;
0162827650999992005012712004-07333-047467FM-12+021299999V0200501N001010450019N0200001N1+02701+02431101601ADDGF107991021021008001031001KA1240N+02461MA1999999099211MD1999999+0001REMSYN082AAXX  27124 82765 22598 70502 10270 20243 39921 40160 82230 333 20246 58000 69994;
0171827650999992005012718004-07333-047467FM-12+021299999V0203201N003110450019N0040001N1+03061+02431101201ADDAY121061AY221061GF107991041041004501021001MA1999999098821MD1999999-0031MW1611REMSYN082AAXX  27184 82765 21496 73206 10306 20243 39882 40120 76122 84420 333 59003 69911;
0202827650999992005012800004-07333-047467FM-12+021299999V0209999C000010450019N0200001N1+02521+02381101351ADDAY161061AY221061GF105991021011008001031001KA1240M+03321MA1999999098951MD1999999-0131MW1011REMSYN100AAXX  28004 82765 21598 50000 10252 20238 39895 40135 70162 82130 333 10332 29084 55/// 59013 60041;
0162827650999992005012812004-07333-047467FM-12+021299999V0200901N000511050019N0200001N1+02631+02481101531ADDGF105991021011008001061041KA1240N+02421MA1999999099131MD1999999-0081REMSYN082AAXX  28124 82765 22598 50901 10263 20248 39913 40153 82164 333 20242 59008 60044;
0171827650999992005012818004-07333-047467FM-12+021299999V0201801N001510450019N0200001N1+03061+02471101021ADDAY161061AY221061GF106991041031004501061001MA1999999098651MD1999999-0171MW1031REMSYN082AAXX  28184 82765 21498 61803 10306 20247 39865 40102 70362 84360 333 59017 60011;
0226827650999992005012900004-07333-047467FM-12+021299999V0209999C000012200019N0200001N1+02761+02601101081ADDAA106000091AY121061AY221061GF104991041031004501001001KA1240M+03291MA1999999098701MD1999999-0251MW1131REMSYN094AAXX  29004 82765 31498 40000 10276 20260 39870 40108 71322 84300 333 10329 29086 55/// 59025;EQDQ01  00002PRCP06
0162827650999992005012912004-07333-047467FM-12+021299999V0209999C000012200019N0200001N1+02631+02461101231ADDGF104991021031008001031001KA1240N+02421MA1999999098851MD1999999-0281REMSYN082AAXX  29124 82765 22598 40100 10263 20246 39885 40123 82330 333 20242 59028 60014;
0171827650999992005012918004-07333-047467FM-12+021299999V0209999C000010450019N0200001N1+02631+02371101061ADDAY161061AY221061GF108991041031004501021999MA1999999098661MD1999999+0011MW1031REMSYN082AAXX  29184 82765 21498 80000 10263 20237 39866 40106 70362 8432/ 333 58001 60191;
0179827650999992005013000004-07330-047470FM-12+019399999V0200901N001510024019N0100001N1+02501+02401101001ADDAA106000091GF109991091999999999999999MA1999999098611MD1999999-0091REMSYN082AAXX  30004 82765 32/97 90903 10250 20240 39861 40100 333 10303 29091 55/// 59009;EQDQ01  00002PRCP06
0149827650999992005013012004-07330-047470FM-12+019399999V0200501N000510120019N0200001N1+02521+02381101271ADDGF107991051081008001021001MA1999999098861MD1999999+0011REMSYN082AAXX  30124 82765 22598 70501 10252 20238 39886 40127 85820 333 20235 58001 60194;
0167827650999992005013018004-07330-047470FM-12+019399999V0200501N001510120019N0200001N1+02981+02531100911ADDAA106000091GF107991061081008001021001MA1999999098531MD1999999-0131REMSYN070AAXX  30184 82765 32598 70503 10298 20253 39853 40091 86820 333 59013;EQDQ01  00002PRCP06
0198827650999992005013100004-07333-047467FM-12+021299999V0201401N001510120019N0200001N1+02501+02321101131ADDAA106000091GF107991051081008001021001KA1240M+03041MA1999999098731MD1999999+0121REMSYN088AAXX  31004 82765 32598 71403 10250 20232 39873 40113 85820 333 10304 29087 55/// 58012;EQDQ01  00002PRCP06
0186827650999992005013112004-07333-047467FM-12+021299999V0209999C000010450019N0200001N1+02521+02381101401ADDAA106000091GF106991041021008001021001KA1240N+02401MA1999999098991MD1999999+0131REMSYN076AAXX  31124 82765 32598 60000 10252 20238 39899 40140 84220 333 20240 58013;EQDQ01  00002PRCP06
0171827650999992005013118004-07333-047467FM-12+021299999V0201801N004610075019N0100001N1+02621+02421101001ADDAY191061AY261061GF108991061071008001021999MA1999999098601MD1999999+0071MW1631REMSYN082AAXX  31184 82765 21597 81809 10262 20242 39860 40100 76396 8672/ 333 58007 60161;
0202827650999992005020100004-07333-047467FM-12+021299999V0201801N000510120019N0200001N1+02361+02281101261ADDAY191061AY261061GF108991061081008001021999KA1240M+03141MA1999999098851MD1999999+0121MW1001REMSYN100AAXX  01004 82765 21598 81801 10236 20228 39885 40126 70096 8682/ 333 10314 29093 55/// 58012 60141;
0162827650999992005020112004-07333-047467FM-12+021299999V0209999C000010450019N0200001N1+02441+02341101321ADDGF106991041081008001041001KA1240N+02291MA1999999098901MD1999999-0091REMSYN082AAXX  01124 82765 22598 60000 10244 20234 39890 40132 84840 333 20229 59009 60204;
0167827650999992005020118004-07333-047467FM-12+021299999V0202701N001010450019N0200001N1+03081+02401100871ADDAA106000091GF106991041021008001041001MA1999999098491MD1999999-0111REMSYN070AAXX  01184 82765 32598 62702 10308 20240 39849 40087 84240 333 59011;EQDQ01  00002PRCP06
0186827650999992005020212004-07333-047467FM-12+021299999V0201801N000510120019N0200001N1+02561+02381101221ADDAA106000091GF107991051081008001041001KA1240N+02471MA1999999098831MD1999999-0071REMSYN076AAXX  02124 82765 32598 71801 10256 20238 39883 40122 85840 333 20247 59007;EQDQ01  00002PRCP06
0171827650999992005020218004-07333-047467FM-12+021299999V0202701N002110450019N0200001N1+02441+02271100981ADDAY191061AY261061GF107991021031008001021001MA1999999098581MD1999999-0091MW1961REMSYN082AAXX  02184 82765 21598 72704 10244 20227 39858 40098 79696 82320 333 59009 60071;
0179827650999992005020300004-07333-047467FM-12+021299999V0209999C000010450019N0200001N1+02501+02401101131ADDAA106000021GF108991041081008001021999KA1240M+03161MA1999999098731MD1999999+0111REMSYN088AAXX  03004 82765 32598 80000 10250 20240 39873 40113 8482/ 333 10316 29092 55019 58011;
0162827650999992005020312004-07333-047467FM-12+021299999V0202301N001510120019N0200001N1+02521+02341101451ADDGF108991061081008001021999KA1240N+02371MA1999999099041MD1999999+0211REMSYN082AAXX  03124 82765 22598 82303 10252 20234 39904 40145 8682/ 333 20237 58021 60074;
0171827650999992005020318004-07333-047467FM-12+021299999V0200501N000510450019N0200001N1+02661+02461101241ADDAY191061AY261061GF108991041031008001021999MA1999999098841MD1999999+0261MW1961REMSYN082AAXX  03184 82765 21598 80501 10266 20246 39884 40124 79696 8432/ 333 58026 60101;
0202827650999992005020400004-07333-047467FM-12+021299999V0209999C000010120019N0200001N1+02441+02341101471ADDAY191061AY261061GF108991061081008001021999KA1240M+03061MA1999999099061MD1999999+0331MW1001REMSYN100AAXX  04004 82765 21598 80000 10244 20234 39906 40147 70096 8682/ 333 10306 29092 55023 58033 60021;
0162827650999992005020412004-07333-047467FM-12+021299999V0202301N001510450019N0200001N1+02521+02381101581ADDGF107991041021004501031001KA1240N+02371MA1999999099171MD1999999+0131REMSYN082AAXX  04124 82765 22498 72303 10252 20238 39917 40158 84230 333 20237 58013 60124;
0171827650999992005020418004-07333-047467FM-12+021299999V0201401N001510060019N0040001N1+02561+02351101321ADDAY161061AY221061GF108991051081002501021999MA1999999098911MD1999999+0071MW1531REMSYN082AAXX  04184 82765 21396 81403 10256 20235 39891 40132 75362 8582/ 333 58007 60111;
0202827650999992005020500004-07333-047467FM-12+021299999V0203201N002110450019N0100001N1+02371+02291101681ADDAY161061AY221061GF108991041081004501021999KA1240M+03151MA1999999099261MD1999999+0201MW1031REMSYN100AAXX  05004 82765 21497 83204 10237 20229 39926 40168 70362 8482/ 333 10315 29093 55051 58020 69961;
0190827650999992005020512004-07333-047467FM-12+021299999V0202701N001510090019N0200001N1+02411+02281101781ADDAY161061AY221061GF108991061081004501021999KA1240N+02311MA1999999099351MD1999999+0181MW1031REMSYN088AAXX  05124 82765 21498 82703 10241 20228 39935 40178 70362 8682/ 333 20231 58018 60244;
0167827650999992005020518004-07333-047467FM-12+021299999V0202301N001510450019N0200001N1+03011+02491101391ADDAA106000091GF106991031021008001031041MA1999999099001MD1999999+0091REMSYN070AAXX  05184 82765 32598 62303 10301 20249 39900 40139 83234 333 58009;EQDQ01  00002PRCP06
0179827650999992005020600004-07330-047470FM-12+019399999V0200501N001012200019N0200001N1+02461+02301101461ADDAA106000091GF100991001001999999001001MA1999999099051MD1999999-0211REMSYN082AAXX  06004 82765 32998 00502 10246 20230 39905 40146 333 10321 29087 55065 59021;EQDQ01  00002PRCP06
0167827650999992005020612004-07330-047470FM-12+019399999V0202301N001012200019N0200001N1+02671+02391101591ADDAA106000091GF100991001001999999001001MA1999999099181MD1999999-0171REMSYN070AAXX  06124 82765 32998 02302 10267 20239 39918 40159 333 20231 59017;EQDQ01  00002PRCP06
0195827650999992005020618004-07330-047470FM-12+019399999V0201401N001510042019N0200001N1+03271+02351101121ADDAA106000091AY121061AY221061GF105991051031004501001001MA1999999098741MD1999999-0261MW1171REMSYN076AAXX  06184 82765 31498 51403 10327 20235 39874 40112 71722 85300 333 59026;EQDQ01  00002PRCP06
0208827650999992005020700004-07333-047467FM-12+021299999V0200501N001012200019N0200001N1+02691+02451101131ADDAA106000091GA1001+999999999GF100991001001999999001001KA1240M+03421MA1999999098751MD1999999-0301REMSYN082AAXX  07004 82765 32998 00502 10269 20245 39875 40113 333 10342 29080 55104 59030;EQDQ01  00002PRCP06
0186827650999992005020712004-07333-047467FM-12+021299999V0203401N000512200019N0200001N1+02761+02441101351ADDAA106000091GF102991021001008001041001KA1240N+02451MA1999999098961MD1999999-0221REMSYN076AAXX  07124 82765 32598 23401 10276 20244 39896 40135 82040 333 20245 59022;EQDQ01  00002PRCP06
0167827650999992005020718004-07333-047467FM-12+021299999V0200201N002110450019N0200001N1+03281+02431100981ADDAA106000091GF105991041081008001041001MA1999999098621MD1999999-0121REMSYN070AAXX  07184 82765 32598 50204 10328 20243 39862 40098 84840 333 59012;EQDQ01  00002PRCP06
0198827650999992005020800004-07333-047467FM-12+021299999V0200201N001510450019N0200001N1+02741+02381101061ADDAA106000091GF106991041081008001021999KA1240M+03401MA1999999098681MD1999999-0071REMSYN088AAXX  08004 82765 32598 60203 10274 20238 39868 40106 8482/ 333 10340 29076 55097 59007;EQDQ01  00002PRCP06
0186827650999992005020812004-07333-047467FM-12+021299999V0200201N001512200019N0200001N1+02821+02421101311ADDAA106000091GF103991011011008001041001KA1240N+02431MA1999999098931MD1999999-0031REMSYN076AAXX  08124 82765 32598 30203 10282 20242 39893 40131 81140 333 20243 59003;EQDQ01  00002PRCP06
0167827650999992005020818004-07333-047467FM-12+021299999V0200201N003110450019N0200001N1+03181+02411101031ADDAA106000091GF106991041021008001041001MA1999999098661MD1999999+0041REMSYN070AAXX  08184 82765 32598 60206 10318 20241 39866 40103 84240 333 58004;EQDQ01  00002PRCP06
0208827650999992005020900004-07333-047467FM-12+021299999V0203601N000512200019N0200001N1+02901+02661101131ADDAA106000091GA1001+999999999GF100991001001999999001001KA1240M+03321MA1999999098761MD1999999+0081REMSYN082AAXX  09004 82765 32998 03601 10290 20266 39876 40113 333 10332 29079 55077 58008;EQDQ01  00002PRCP06
0186827650999992005020912004-07333-047467FM-12+021299999V0200701N001010120019N0200001N1+02641+02391101401ADDAA106000091GF108991061081008001021999KA1240N+02411MA1999999098021MD1999999+0091REMSYN076AAXX  09124 82765 32598 80702 10264 20239 39802 40140 8682/ 333 20241 58009;EQDQ01  00002PRCP06
0167827650999992005020918004-07333-047467FM-12+021299999V0200901N001510450019N0200001N1+03201+02431100951ADDAA106000091GF105991041021008001041001MA1999999098581MD1999999-0081REMSYN070AAXX  09184 82765 32598 50903 10320 20243 39858 40095 84240 333 59008;EQDQ01  00002PRCP06
0236827650999992005021000004-07333-047467FM-12+021299999V0203601N001512200019N0200001N1+02721+02451101071ADDAA106000091AY191061AY291061GA1001+999999999GF100991001001999999001001KA1240M+03321MA1999999098691MD1999999-0071MW1001REMSYN088AAXX  10004 82765 31998 03603 10272 20245 39869 40107 70099 333 10332 29080 55070 59007;EQDQ01  00002PRCP06
0186827650999992005021012004-07333-047467FM-12+021299999V0203201N001010450019N0200001N1+02681+02371101351ADDAA106000091GF105991021081008001041001KA1240N+02451MA1999999098961MD1999999-0061REMSYN076AAXX  10124 82765 32598 53202 10268 20237 39896 40135 82840 333 20245 59006;EQDQ01  00002PRCP06
0167827650999992005021018004-07333-047467FM-12+021299999V0201801N001510450019N0200001N1+03201+02511100941ADDAA106000091GF105991021021008001041001MA1999999098571MD1999999-0011REMSYN070AAXX  10184 82765 32598 51803 10320 20251 39857 40094 82240 333 59001;EQDQ01  00002PRCP06
0226827650999992005021100004-07333-047467FM-12+021299999V0201801N000510450019N0200001N1+02701+02451101181ADDAA106000091AY191061AY291061GF106991041021008001041001KA1240M+03241MA1999999098801MD1999999+0111MW1131REMSYN094AAXX  11004 82765 31598 61801 10270 20245 39880 40118 71399 84240 333 10324 29080 55057 58011;EQDQ01  00002PRCP06
0190827650999992005021112004-07333-047467FM-12+021299999V0201401N001010450019N0200001N1+02481+02381101381ADDAY161061AY261061GF106991021011008001041001KA1240N+02371MA1999999098981MD1999999+0021MW1001REMSYN088AAXX  11124 82765 21598 61402 10248 20238 39898 40138 70066 82140 333 20237 58002 60094;
0171827650999992005021118004-07333-047467FM-12+021299999V0200901N001510075019N0200001N1+02781+02521101031ADDAY191061AY261061GF108991061071008001021999MA1999999098641MD1999999+0071MW1521REMSYN082AAXX  11184 82765 21598 80903 10278 20252 39864 40103 75296 8672/ 333 58007 60041;
0202827650999992005021200004-07333-047467FM-12+021299999V0209999C000010120019N0200001N1+02441+02421101341ADDAY191061AY261061GF108991061081008001021999KA1240M+03061MA1999999098931MD1999999+0131MW1001REMSYN100AAXX  12004 82765 21598 80000 10244 20242 39893 40134 70096 8682/ 333 10306 29094 55019 58013 60631;
0190827650999992005021212004-07333-047467FM-12+021299999V0209999C000010075019N0200001N1+02441+02341101511ADDAY101061AY201061GF108991061051008001021999KA1240N+02371MA1999999099091MD1999999+0111MW1511REMSYN088AAXX  12124 82765 21598 80000 10244 20234 39909 40151 75100 8652/ 333 20237 58011 60684;
0171827650999992005021218004-07333-047467FM-12+021299999V0203601N000510075019N0200001N1+02621+02371101261ADDAY161061AY261061GF107991051021008001041001MA1999999098861MD1999999-0051MW1001REMSYN082AAXX  12184 82765 21598 73601 10262 20237 39886 40126 70066 85240 333 59005 60111;
0185827650999992005021300004-07330-047470FM-12+019399999V0201801N000510120019N0200001N1+02501+02361101431ADDAA106000091GF108991061081008001021999MA1999999099021MD1999999+0091REMSYN088AAXX  13004 82765 32598 81801 10250 20236 39902 40143 8682/ 333 10270 29091 55005 58009;EQDQ01  00002PRCP06
0149827650999992005021312004-07330-047470FM-12+019399999V0209999C000010450019N0200001N1+02431+02351101621ADDGF108991041081004501021999MA1999999099201MD1999999+0111REMSYN082AAXX  13124 82765 22498 80000 10243 20235 39920 40162 8482/ 333 20237 58011 60114;
0171827650999992005021318004-07330-047470FM-12+019399999V0202301N001010042019N0200001N1+03001+02491101111ADDAY151061AY221061GF107991051031004501061001MA1999999098731MD1999999-0131MW1031REMSYN082AAXX  13184 82765 21498 72302 10300 20249 39873 40111 70352 85360 333 59013 69911;
0212827650999992005021400004-07333-047467FM-12+021299999V0202301N001510024019N0100001N1+02461+02361101381ADDAY161061AY221061GA1091+999999999GF109991091999999999999999KA1240M+03201MA1999999098971MD1999999-0051MW1131REMSYN094AAXX  14004 82765 21/97 92303 10246 20236 39897 40138 71362 333 10320 29089 55035 59005 60011;
0190827650999992005021412004-07333-047467FM-12+021299999V0203601N000510042019N0040001N1+02351+02271101591ADDAY161061AY251061GF108991081071004501999999KA1240N+02351MA1999999099171MD1999999-0031MW1511REMSYN088AAXX  14124 82765 21496 83601 10235 20227 39917 40159 75165 887// 333 20235 59003 60334;
0171827650999992005021418004-07333-047467FM-12+021299999V0202701N001010450019N0200001N1+02691+02451101191ADDAY161061AY221061GF107991041021004501061001MA1999999098791MD1999999+0061MW1011REMSYN082AAXX  14184 82765 21498 72702 10269 20245 39879 40119 70162 84260 333 58006 60021;
0198827650999992005021500004-07333-047467FM-12+021299999V0209999C000010075019N0200001N1+02561+02381101381ADDAA106000091GF108991061021008001041999KA1240M+02921MA1999999098971MD1999999+0001REMSYN088AAXX  15004 82765 32598 80000 10256 20238 39897 40138 8624/ 333 10292 29091 55013 58000;EQDQ01  00002PRCP06
0190827650999992005021512004-07333-047467FM-12+021299999V0203601N000510042019N0200001N1+02461+02371101381ADDAY161061AY221061GF108991051071004501021999KA1240N+02361MA1999999098971MD1999999-0201MW1031REMSYN088AAXX  15124 82765 21498 83601 10246 20237 39897 40138 70362 8572/ 333 20236 59020 60064;
0171827650999992005021518004-07333-047467FM-12+021299999V0203601N003110090019N0200001N1+02571+02311101121ADDAY161061AY221061GF108991051081004501021999MA1999999098711MD1999999-0081MW1201REMSYN082AAXX  15184 82765 21498 83606 10257 20231 39871 40112 72062 8582/ 333 59008 69961;
0179827650999992005021600004-07333-047467FM-12+021299999V0200901N001510450019N0200001N1+02461+02361101141ADDAA106000021GF106991041011008001031001KA1240M+02901MA1999999098731MD1999999-0241REMSYN088AAXX  16004 82765 32598 60903 10246 20236 39873 40114 84130 333 10290 29092 55008 59024;
0162827650999992005021612004-07333-047467FM-12+021299999V0209999C000010090019N0200001N1+02481+02411101371ADDGF108991061081004501021999KA1240N+02391MA1999999098961MD1999999-0011REMSYN082AAXX  16124 82765 22498 80000 10248 20241 39896 40137 8682/ 333 20239 59001 69964;
0171827650999992005021618004-07333-047467FM-12+021299999V0200901N001510042019N0100001N1+02501+02401101081ADDAY161061AY261061GF108991051051004501021999MA1999999098671MD1999999-0041MW1511REMSYN082AAXX  16184 82765 21497 80903 10250 20240 39867 40108 75166 8552/ 333 59004 60181;
0202827650999992005021700004-07333-047467FM-12+021299999V0209999C000010450019N0200001N1+02461+02431101241ADDAY191061AY261061GF106991041081008001011001KA1240M+02821MA1999999098831MD1999999+0101MW1001REMSYN100AAXX  17004 82765 21598 60000 10246 20243 39883 40124 70096 84810 333 10282 29096 55000 58010 60011;
0190827650999992005021712004-07333-047467FM-12+021299999V0200201N002610075019N0200001N1+02521+02401101561ADDAY161061AY261061GF108991061051008001021999KA1240N+02371MA1999999099151MD1999999+0191MW1541REMSYN088AAXX  17124 82765 21598 80205 10252 20240 39915 40156 75466 8652/ 333 20237 58019 60244;
0171827650999992005021718004-07333-047467FM-12+021299999V0201401N000510075019N0200001N1+02421+02331101261ADDAY161061AY261061GF108991061051008001021999MA1999999098851MD1999999+0181MW1031REMSYN082AAXX  17184 82765 21598 81401 10242 20233 39885 40126 70366 8652/ 333 58018 60211;
0198827650999992005021800004-07333-047467FM-12+021299999V0200901N000510120019N0200001N1+02381+02331101461ADDAA106000091GF108991061081008001021999KA1240M+02581MA1999999099051MD1999999+0221REMSYN088AAXX  18004 82765 32598 80901 10238 20233 39905 40146 8682/ 333 10258 29096 55000 58022;EQDQ01  00002PRCP06
0190827650999992005021812004-07333-047467FM-12+021299999V0209999C000010120019N0100001N1+02461+02371101721ADDAY151061AY251061GF107991061081008001021001KA1240N+02321MA1999999099291MD1999999+0141MW1031REMSYN088AAXX  18124 82765 21597 70000 10246 20237 39929 40172 70355 86820 333 20232 58014 60214;
0171827650999992005021818004-07333-047467FM-12+021299999V0200901N002110450019N0200001N1+03021+02311101241ADDAY161061AY261061GF105991041021008001041001MA1999999098851MD1999999+0001MW1001REMSYN082AAXX  18184 82765 21598 50904 10302 20231 39885 40124 70066 84240 333 58000 60011;
0198827650999992005021900004-07333-047467FM-12+021299999V0201401N002110450019N0200001N1+02601+02371101451ADDAA106000091GF106991041081008001041001KA1240M+03141MA1999999099051MD1999999+0001REMSYN088AAXX  19004 82765 32598 61404 10260 20237 39905 40145 84840 333 10314 29084 55052 58000;EQDQ01  00002PRCP06
0162827650999992005021912004-07333-047467FM-12+021299999V0202701N000512200019N0200001N1+02641+02441101511ADDGF103991031021008001001001KA1240N+02351MA1999999099111MD1999999-0181REMSYN082AAXX  19124 82765 22598 32701 10264 20244 39911 40151 83200 333 20235 59018 60014;
0167827650999992005021918004-07333-047467FM-12+021299999V0200501N000510450019N0200001N1+03261+02491101091ADDAA106000091GF106991041021008001041001MA1999999098721MD1999999-0131REMSYN070AAXX  19184 82765 32598 60501 10326 20249 39872 40109 84240 333 59013;EQDQ01  00002PRCP06
0173827650999992005022012004-07330-047470FM-12+019399999V0202701N000510450019N0200001N1+02561+02361101471ADDAA106000091GF106991041011008001041001MA1999999099091MD1999999-0021REMSYN076AAXX  20124 82765 32598 62701 10256 20236 39909 40147 84140 333 20251 59002;EQDQ01  00002PRCP06
0167827650999992005022018004-07330-047470FM-12+019399999V0202301N000510450019N0200001N1+03281+02531100971ADDAA106000091GF105991031021008001041001MA1999999098611MD1999999-0111REMSYN070AAXX  20184 82765 32598 52301 10328 20253 39861 40097 83240 333 59011;EQDQ01  00002PRCP06
0198827650999992005022100004-07333-047467FM-12+021299999V0209999C000010450019N0200001N1+03021+02781101091ADDAA106000091GF105991031011008001041001KA1240M+03501MA1999999098721MD1999999-0151REMSYN088AAXX  21004 82765 32598 50000 10302 20278 39872 40109 83140 333 10350 29082 55062 59015;EQDQ01  00002PRCP06
0186827650999992005022112004-07333-047467FM-12+021299999V0202301N000510450019N0200001N1+02741+02501101371ADDAA106000091GF107991041081008001041001KA1240N+02521MA1999999099001MD1999999-0091REMSYN076AAXX  21124 82765 32598 72301 10274 20250 39900 40137 84840 333 20252 59009;EQDQ01  00002PRCP06
0171827650999992005022118004-07333-047467FM-12+021299999V0202301N000510120019N0200001N1+02461+02411101091ADDAY191061AY261061GF108991061081008001021999MA1999999098691MD1999999+0081MW1001REMSYN082AAXX  21184 82765 21598 82301 10246 20241 39869 40109 70096 8682/ 333 58008 60071;
0198827650999992005022200004-07333-047467FM-12+021299999V0200501N000510120019N0200001N1+02441+02341101261ADDAA106000091GF108991061081008001021999KA1240M+03001MA1999999098861MD1999999+0141REMSYN088AAXX  22004 82765 32598 80501 10244 20234 39886 40126 8682/ 333 10300 29093 55001 58014;EQDQ01  00002PRCP06
0190827650999992005022212004-07333-047467FM-12+021299999V0209999C000010450019N0020001N1+02321+02251101541ADDAY161061AY221061GF108991041071004501021999KA1240N+02321MA1999999099121MD1999999+0121MW1531REMSYN088AAXX  22124 82765 21495 80000 10232 20225 39912 40154 75362 8472/ 333 20232 58012 60184;
0171827650999992005022218004-07333-047467FM-12+021299999V0203201N001010450019N0200001N1+02761+02401101211ADDAY161061AY221061GF107991041021008001061001MA1999999098811MD1999999+0121MW1031REMSYN082AAXX  22184 82765 21598 73202 10276 20240 39881 40121 70362 84260 333 58012 60031;
0226827650999992005022300004-07333-047467FM-12+021299999V0209999C000010075019N0200001N1+02621+02481101411ADDAA106000091AY121061AY221061GF108991051021008001011999KA1240M+02891MA1999999099001MD1999999+0141MW1131REMSYN094AAXX  23004 82765 31598 80000 10262 20248 39900 40141 71322 8521/ 333 10289 29090 55011 58014;EQDQ01  00002PRCP06
0162827650999992005022312004-07333-047467FM-12+021299999V0200901N002110075019N0200001N1+02411+02241101631ADDGF107991051021008001061001KA1240N+02321MA1999999099221MD1999999+0101REMSYN082AAXX  23124 82765 22598 70904 10241 20224 39922 40163 85260 333 20232 58010 60034;
0167827650999992005022318004-07333-047467FM-12+021299999V0203601N001510450019N0200001N1+03071+02451101221ADDAA106000091GF106991031021008001031081MA1999999098841MD1999999+0031REMSYN070AAXX  23184 82765 32598 63603 10307 20245 39884 40122 83238 333 58003;EQDQ01  00002PRCP06
0202827650999992005022400004-07333-047467FM-12+021299999V0200501N001510075019N0200001N1+02631+02421101461ADDAY151061AY221061GF107991071021008001001001KA1240M+03301MA1999999099051MD1999999+0051MW1011REMSYN100AAXX  24004 82765 21598 70503 10263 20242 39905 40146 70152 87200 333 10330 29085 55067 58005 69921;
0162827650999992005022412004-07333-047467FM-12+021299999V0200901N000512200019N0200001N1+02641+02421101691ADDGF103991021011008001061001KA1240N+02381MA1999999099291MD1999999+0071REMSYN082AAXX  24124 82765 22598 30901 10264 20242 39929 40169 82160 333 20238 58007 69924;
0171827650999992005022418004-07333-047467FM-12+021299999V0201401N001510450019N0200001N1+02931+02561101211ADDAY151061AY221061GF106991031031008001061041MA1999999098821MD1999999-0021MW1031REMSYN082AAXX  24184 82765 21598 61403 10293 20256 39882 40121 70352 83364 333 59002 69911;
0202827650999992005022500004-07333-047467FM-12+021299999V0209999C000010450019N0200001N1+02761+02581101421ADDAY161061AY221061GF106991031011008001011001KA1240M+03241MA1999999099031MD1999999-0021MW1021REMSYN100AAXX  25004 82765 21598 60000 10276 20258 39903 40142 70262 83110 333 10324 29087 55070 59002 60011;
0162827650999992005022512004-07333-047467FM-12+021299999V0200201N001510450019N0200001N1+02661+02431101581ADDGF105991021011008001041001KA1240N+02451MA1999999099191MD1999999-0101REMSYN082AAXX  25124 82765 22598 50203 10266 20243 39919 40158 82140 333 20245 59010 60014;
0195827650999992005022518004-07333-047467FM-12+021299999V0201101N003110450019N0200001N1+02941+02361101261ADDAA106000091AY101061AY201061GF107991031051008001021001MA1999999098881MD1999999+0061MW1161REMSYN076AAXX  25184 82765 31598 71106 10294 20236 39888 40126 71600 83520 333 58006;EQDQ01  00002PRCP06
0202827650999992005022600004-07333-047467FM-12+021299999V0200501N000512200019N0200001N1+02681+02521101281ADDAY161061AY261061GF102991021001008001021001KA1240M+03281MA1999999098901MD1999999-0131MW1001REMSYN100AAXX  26004 82765 21598 20501 10268 20252 39890 40128 70066 82020 333 10328 29085 55061 59013 60021;
0162827650999992005022612004-07333-047467FM-12+021299999V0200901N001012200019N0200001N1+02761+02601101491ADDGF102991021011008001001001KA1240N+02451MA1999999099101MD1999999-0091REMSYN082AAXX  26124 82765 22598 20902 10276 20260 39910 40149 82100 333 20245 59009 60024;
0167827650999992005022618004-07333-047467FM-12+021299999V0202001N001510075019N0200001N1+03321+02551101371ADDAA106000091GF106991061021008001001001MA1999999098711MD1999999-0171REMSYN070AAXX  26184 82765 32598 62003 10332 20255 39871 40137 86200 333 59017;EQDQ01  00002PRCP06
0213827650999992005022700004-07330-047470FM-12+019399999V0202301N000510450019N0200001N1+02841+02521101251ADDAA106000091AY191061AY291061GF106991031011008001041001MA1999999098871MD1999999-0031MW1001REMSYN094AAXX  27004 82765 31598 62301 10284 20252 39887 40125 70099 83140 333 10348 29080 55089 59003;EQDQ01  00002PRCP06
0173827650999992005022712004-07330-047470FM-12+019399999V0202901N000510450019N0200001N1+02781+02521101461ADDAA106000091GF106991041021008001041001MA1999999099081MD1999999-0021REMSYN076AAXX  27124 82765 32598 62901 10278 20252 39908 40146 84240 333 20259 59002;EQDQ01  00002PRCP06
0162827650999992005022812004-07333-047467FM-12+021299999V0202701N000510450019N0200001N1+02621+02481101601ADDGF106991041021008001041001KA1240N+02411MA1999999099201MD1999999+0121REMSYN082AAXX  28124 82765 22598 62701 10262 20248 39920 40160 84240 333 20241 58012 60014;
0171827650999992005022818004-07333-047467FM-12+021299999V0201801N000510120019N0200001N1+02921+02561101181ADDAY191061AY251061GF108991061081008001021999MA1999999098801MD1999999-0011MW1001REMSYN082AAXX  28184 82765 21598 81801 10292 20256 39880 40118 70095 8682/ 333 59001 69991;
0198827650999992005030100004-07333-047467FM-12+021299999V0209999C000012200019N0200001N1+02641+02501101361ADDAA106000091GF104991031021008001041001KA1240M+03101MA1999999098971MD1999999+0021REMSYN088AAXX  01004 82765 32598 40000 10264 20250 39897 40136 83240 333 10310 29089 55023 58002;EQDQ01  00002PRCP06
0162827650999992005030112004-07333-047467FM-12+021299999V0200901N000510120019N0200001N1+02581+02511101601ADDGF107991051081008001041001KA1240N+02491MA1999999099201MD1999999+0001REMSYN082AAXX  01124 82765 22598 70901 10258 20251 39920 40160 85840 333 20249 58000 69994;
0171827650999992005030118004-07333-047467FM-12+021299999V0209999C000010120019N0200001N1+02641+02541101231ADDAY161061AY251061GF107991051081008001021001MA1999999098841MD1999999+0041MW1001REMSYN082AAXX  01184 82765 21598 70000 10264 20254 39884 40123 70065 85820 333 58004 60021;
0198827650999992005030200004-07333-047467FM-12+021299999V0201801N001012200019N0200001N1+02521+02431101361ADDAA106000091GF103991021011008001041001KA1240M+02961MA1999999098961MD1999999-0011REMSYN088AAXX  02004 82765 32598 31802 10252 20243 39896 40136 82140 333 10296 29095 55015 59001;EQDQ01  00002PRCP06
0162827650999992005030212004-07333-047467FM-12+021299999V0209999C000010120019N0200001N1+02481+02411101551ADDGF107991051081008001041001KA1240N+02391MA1999999099141MD1999999-0061REMSYN082AAXX  02124 82765 22598 70000 10248 20241 39914 40155 85840 333 20239 59006 60024;
0167827650999992005030218004-07333-047467FM-12+021299999V0201801N000510075019N0200001N1+03241+02521101181ADDAA106000091GF107991051021008001041001MA1999999098811MD1999999-0031REMSYN070AAXX  02184 82765 32598 71801 10324 20252 39881 40118 85240 333 59003;EQDQ01  00002PRCP06
0226827650999992005030300004-07333-047467FM-12+021299999V0200501N000512200019N0200001N1+02741+02431101381ADDAA106000091AY191061AY291061GF102991011011008001041001KA1240M+03501MA1999999098981MD1999999+0021MW1001REMSYN094AAXX  03004 82765 31598 20501 10274 20243 39898 40138 70099 81140 333 10350 29082 55072 58002;EQDQ01  00002PRCP06
0190827650999992005030312004-07333-047467FM-12+021299999V0209999C000010450019N0200001N1+02801+02501101461ADDAY161061AY221061GF106991031021008001061041KA1240N+02481MA1999999099071MD1999999-0071MW1021REMSYN088AAXX  03124 82765 21598 60000 10280 20250 39907 40146 70262 83264 333 20248 59007 60114;
0218827650999992005030400004-07333-047467FM-12+021299999V0209999C000010024019N0100001N1+02581+02491101381ADDAY161061AY221061GA1091+999999999GF109991091999999999999999KA1240M+03421MA1999999099001MD1999999+0021MW1001REMSYN100AAXX  04004 82765 21/97 90000 10258 20249 39900 40138 70062 8//// 333 10342 29088 55071 58002 60021;
0190827650999992005030412004-07333-047467FM-12+021299999V0201401N001510090019N0200001N1+02581+02441101651ADDAY161061AY221061GF107991051081004501031001KA1240N+02481MA1999999099251MD1999999+0181MW1031REMSYN088AAXX  04124 82765 21498 71403 10258 20244 39925 40165 70362 85830 333 20248 58018 60044;
0171827650999992005030418004-07333-047467FM-12+021299999V0201801N001010450019N0200001N1+02681+02521101311ADDAY161061AY221061GF108991041031004501021999MA1999999098911MD1999999+0141MW1291REMSYN082AAXX  04184 82765 21498 81802 10268 20252 39891 40131 72962 8432/ 333 58014 69961;
0162827650999992005030512004-07333-047467FM-12+021299999V0209999C000012200019N0200001N1+02591+02481101771ADDGF105991021011008001031091KA1240N+02481MA1999999099361MD1999999+0111REMSYN082AAXX  05124 82765 22598 50000 10259 20248 39936 40177 82139 333 20248 58011 60024;
0171827650999992005030518004-07333-047467FM-12+021299999V0200501N005710450019N0200001N1+03141+02531101321ADDAY161061AY221061GF106991041031004501061001MA1999999098941MD1999999+0031MW1171REMSYN082AAXX  05184 82765 21498 60511 10314 20253 39894 40132 71762 84360 333 58003 69941;
0183827650999992005030600004-07330-047470FM-12+019399999V0209999C000012200019N0200001N1+02641+02521101441ADDAY161061AY221061GF100991001001999999001001MA1999999099041MD1999999-0121MW1001REMSYN094AAXX  06004 82765 21998 00000 10264 20252 39904 40144 70062 333 10322 29088 55047 59012 60101;
0177827650999992005030612004-07330-047470FM-12+019399999V0201601N000512200019N0200001N1+02681+02521101541ADDAY161061AY261061GF104991031011008001041001MA1999999099141MD1999999-0221MW1001REMSYN088AAXX  06124 82765 21598 41601 10268 20252 39914 40154 70066 83140 333 20247 59022 60224;
0195827650999992005030618004-07330-047470FM-12+019399999V0201101N003110450019N0200001N1+03121+02531101081ADDAA106000091AY191061AY221061GF106991041021008001021001MA1999999098711MD1999999-0231MW1001REMSYN076AAXX  06184 82765 31598 61106 10312 20253 39871 40108 70092 84220 333 59023;EQDQ01  00002PRCP06
0190827650999992005030712004-07333-047467FM-12+021299999V0202701N001510075019N0200001N1+02341+02261101701ADDAY191061AY261061GF108991071051008001021999KA1240N+02341MA1999999099291MD1999999+0151MW1511REMSYN088AAXX  07124 82765 21598 82703 10234 20226 39929 40170 75196 8752/ 333 20234 58015 60324;
0171827650999992005030718004-07333-047467FM-12+021299999V0202701N001510075019N0200001N1+02781+02401101381ADDAY161061AY261061GF108991061021008001011999MA1999999098981MD1999999+0271MW1001REMSYN082AAXX  07184 82765 21598 82703 10278 20240 39898 40138 70066 8621/ 333 58027 60011;
0162827650999992005030812004-07333-047467FM-12+021299999V0201801N000510450019N0200001N1+02621+02441101681ADDGF106991041081008001041001KA1240N+02351MA1999999099271MD1999999-0021REMSYN082AAXX  08124 82765 22598 61801 10262 20244 39927 40168 84840 333 20235 59002 60014;
0167827650999992005030818004-07333-047467FM-12+021299999V0201801N001510450019N0200001N1+03261+02521101151ADDAA106000091GF105991041021008001041001MA1999999098781MD1999999-0201REMSYN070AAXX  08184 82765 32598 51803 10326 20252 39878 40115 84240 333 59020;EQDQ01  00002PRCP06
0226827650999992005030900004-07333-047467FM-12+021299999V0209999C000012200019N0200001N1+02921+02681101311ADDAA106000091AY101061AY201061GF103991021021008001041001KA1240M+03321MA1999999098931MD1999999-0171MW1131REMSYN094AAXX  09004 82765 31598 30000 10292 20268 39893 40131 71300 82240 333 10332 29082 55093 59017;EQDQ01  00002PRCP06
0190827650999992005030912004-07333-047467FM-12+021299999V0209999C000010075019N0200001N1+02361+02281101611ADDAY161061AY261061GF108991061051008001021999KA1240N+02371MA1999999099211MD1999999-0061MW1581REMSYN088AAXX  09124 82765 21598 80000 10236 20228 39921 40161 75866 8652/ 333 20237 59006 60184;
0171827650999992005030918004-07333-047467FM-12+021299999V0200501N001510120019N0200001N1+02761+02441101171ADDAY161061AY251061GF106991051081008001041001MA1999999098781MD1999999+0001MW1001REMSYN082AAXX  09184 82765 21598 60503 10276 20244 39878 40117 70065 85840 333 58000 60031;
0198827650999992005031000004-07333-047467FM-12+021299999V0209999C000010450019N0200001N1+02701+02501101421ADDAA106000091GF106991041081008001021001KA1240M+02921MA1999999099021MD1999999+0091REMSYN088AAXX  10004 82765 32598 60000 10270 20250 39902 40142 84820 333 10292 29089 55010 58009;EQDQ01  00002PRCP06
0190827650999992005031012004-07333-047467FM-12+021299999V0209999C000010075019N0200001N1+02501+02361101621ADDAY151061AY251061GF107991051021008001041001KA1240N+02371MA1999999099221MD1999999+0011MW1001REMSYN088AAXX  10124 82765 21598 70000 10250 20236 39922 40162 70055 85240 333 20237 58001 60034;
0167827650999992005031018004-07333-047467FM-12+021299999V0202301N001012200019N0200001N1+03201+02531101131ADDAA106000091GF104991031011008001041001MA1999999098761MD1999999-0021REMSYN070AAXX  10184 82765 32598 42302 10320 20253 39876 40113 83140 333 59002;EQDQ01  00002PRCP06
0202827650999992005031100004-07333-047467FM-12+021299999V0200501N000512200019N0200001N1+02501+02411101371ADDAY161061AY261061GF104991031021008001041001KA1240M+03291MA1999999098961MD1999999-0061MW1001REMSYN100AAXX  11004 82765 21598 40501 10250 20241 39896 40137 70066 83240 333 10329 29087 55052 59006 60391;
0162827650999992005031112004-07333-047467FM-12+021299999V0209999C000010450019N0200001N1+02661+02521101601ADDGF105991031011008001041001KA1240N+02451MA1999999099201MD1999999-0021REMSYN082AAXX  11124 82765 22598 50000 10266 20252 39920 40160 83140 333 20245 59002 60394;
0167827650999992005031118004-07333-047467FM-12+021299999V0202701N001510120019N0200001N1+02801+02561101291ADDAA106000091GF108991061081008001021999MA1999999098891MD1999999+0131REMSYN070AAXX  11184 82765 32598 82703 10280 20256 39889 40129 8682/ 333 58013;EQDQ01  00002PRCP06
0198827650999992005031200004-07333-047467FM-12+021299999V0201801N002110120019N0200001N1+02561+02441101521ADDAA106000091GF108991061081008001021999KA1240M+03101MA1999999099121MD1999999+0161REMSYN088AAXX  12004 82765 32598 81804 10256 20244 39912 40152 8682/ 333 10310 29091 55026 58016;EQDQ01  00002PRCP06
0190827650999992005031212004-07333-047467FM-12+021299999V0209999C000010450019N0200001N1+02611+02401101591ADDAY161061AY221061GF107991041011008001061001KA1240N+02321MA1999999099191MD1999999-0011MW1011REMSYN088AAXX  12124 82765 21598 70000 10261 20240 39919 40159 70162 84160 333 20232 59001 60224;
0171827650999992005031218004-07333-047467FM-12+021299999V0203601N001010450019N0200001N1+02661+02441101261ADDAY161061AY221061GF106991031011008001061001MA1999999098861MD1999999-0031MW1021REMSYN082AAXX  12184 82765 21598 63602 10266 20244 39886 40126 70262 83160 333 59003 60181;
0179827650999992005031300004-07330-047470FM-12+019399999V0201801N000510024019N0100001N1+02661+02541101411ADDAA106000091GF109991091999999999999999MA1999999099021MD1999999-0101REMSYN082AAXX  13004 82765 32/97 91801 10266 20254 39902 40141 333 10291 29091 55037 59010;EQDQ01  00002PRCP06
0177827650999992005031312004-07330-047470FM-12+019399999V0202701N000510042019N0040001N1+02371+02311101691ADDAY161061AY221061GF108991081071004501999999MA1999999099271MD1999999+0081MW1611REMSYN088AAXX  13124 82765 21496 82701 10237 20231 39927 40169 76162 887// 333 20237 58008 60844;
0171827650999992005031318004-07330-047470FM-12+019399999V0202301N001510450019N0100001N1+02391+02331101301ADDAY161061AY221061GF108991041071004501021999MA1999999098891MD1999999+0031MW1511REMSYN082AAXX  13184 82765 21497 82303 10239 20233 39889 40130 75162 8472/ 333 58003 60331;
0183827650999992005031400004-07330-047470FM-12+019399999V0209999C000012200019N0200001N1+02371+02311101501ADDAY151061AY221061GF100991001001999999001001MA1999999099071MD1999999+0051MW1001REMSYN094AAXX  14004 82765 21998 00000 10237 20231 39907 40150 70052 333 10270 29097 55000 58005 69911;
0177827650999992005031412004-07330-047470FM-12+019399999V0209999C000010450019N0200001N1+02441+02371101581ADDAY151061AY221061GF108991041081004501021999MA1999999099161MD1999999-0111MW1021REMSYN088AAXX  14124 82765 21498 80000 10244 20237 39916 40158 70252 8482/ 333 20235 59011 60344;
0167827650999992005031418004-07333-047467FM-12+021299999V0209999C000010450019N0200001N1+03011+02371101021ADDAA106000091GF105991031021008001061041MA1999999098641MD1999999-0251REMSYN070AAXX  14184 82765 32598 50000 10301 20237 39864 40102 83264 333 59025;EQDQ01  00002PRCP06
0226827650999992005031500004-07333-047467FM-12+021299999V0203601N003110075019N0200001N1+02581+02381101351ADDAA106000091AY191061AY291061GF108991061051008001021999KA1240M+03201MA1999999098941MD1999999-0131MW1001REMSYN094AAXX  15004 82765 31598 83606 10258 20238 39894 40135 70099 8652/ 333 10320 29086 55050 59013;EQDQ01  00002PRCP06
0190827650999992005031512004-07333-047467FM-12+021299999V0209999C000010450019N0200001N1+02361+02311101391ADDAY191061AY261061GF106991031011008001041001KA1240N+02281MA1999999098981MD1999999-0181MW1001REMSYN088AAXX  15124 82765 21598 60000 10236 20231 39898 40139 70096 83140 333 20228 59018 60504;
0167827650999992005031518004-07333-047467FM-12+021299999V0203401N000510450019N0200001N1+03021+02461101051ADDAA106000091GF105991031021008001041001MA1999999098661MD1999999+0021REMSYN070AAXX  15184 82765 32598 53401 10302 20246 39866 40105 83240 333 58002;EQDQ01  00002PRCP06
0226827650999992005031600004-07333-047467FM-12+021299999V0200201N001510120019N0200001N1+02641+02391101361ADDAA106000091AY191061AY201061GF107991061081008001021001KA1240M+03221MA1999999098951MD1999999+0011MW1131REMSYN094AAXX  16004 82765 31598 70203 10264 20239 39895 40136 71390 86820 333 10322 29085 55057 58001;EQDQ01  00002PRCP06
0190827650999992005031612004-07333-047467FM-12+021299999V0201801N000510450019N0200001N1+02561+02421101561ADDAY191061AY251061GF108991031011008001011999KA1240N+02451MA1999999099161MD1999999+0181MW1001REMSYN088AAXX  16124 82765 21598 81801 10256 20242 39916 40156 70095 8311/ 333 20245 58018 69924;
0195827650999992005031618004-07333-047467FM-12+021299999V0202301N000510450019N0200001N1+03021+02461101141ADDAA106000091AY101061AY201061GF106991031021008001021001MA1999999098761MD1999999+0101MW1291REMSYN076AAXX  16184 82765 31598 62301 10302 20246 39876 40114 72900 83220 333 58010;EQDQ01  00002PRCP06
0202827650999992005031700004-07333-047467FM-12+021299999V0203601N000510120019N0200001N1+02621+02481101461ADDAY191061AY251061GF108991061081008001021999KA1240M+03101MA1999999099061MD1999999+0111MW1001REMSYN100AAXX  17004 82765 21598 83601 10262 20248 39906 40146 70095 8682/ 333 10310 29087 55008 58011 69911;
0162827650999992005031712004-07333-047467FM-12+021299999V0202901N000510450019N0200001N1+02561+02421101571ADDGF106991031021008001011001KA1240N+02431MA1999999099171MD1999999+0011REMSYN082AAXX  17124 82765 22598 62901 10256 20242 39917 40157 83210 333 20243 58001 69914;
0195827650999992005031718004-07333-047467FM-12+021299999V0203601N002610450019N0200001N1+03001+02571101101ADDAA106000091AY191061AY291061GF106991041021008001021001MA1999999098721MD1999999-0041MW1151REMSYN076AAXX  17184 82765 31598 63605 10300 20257 39872 40110 71599 84220 333 59004;EQDQ01  00002PRCP06
0198827650999992005031800004-07333-047467FM-12+021299999V0203201N001512200019N0200001N1+02681+02481101411ADDAA106000091GF103991021021008001041001KA1240M+03241MA1999999099011MD1999999-0051REMSYN088AAXX  18004 82765 32598 33203 10268 20248 39901 40141 82240 333 10324 29086 55046 59005;EQDQ01  00002PRCP06
0186827650999992005031812004-07333-047467FM-12+021299999V0203601N001510450019N0200001N1+02621+02481101641ADDAA106000091GF106991031021008001041001KA1240N+02471MA1999999099241MD1999999+0071REMSYN076AAXX  18124 82765 32598 63603 10262 20248 39924 40164 83240 333 20247 58007;EQDQ01  00002PRCP06
0167827650999992005031818004-07333-047467FM-12+021299999V0203601N002110450019N0200001N1+03221+02501101221ADDAA106000091GF106991041021008001041001MA1999999098851MD1999999+0131REMSYN070AAXX  18184 82765 32598 63604 10322 20250 39885 40122 84240 333 58013;EQDQ01  00002PRCP06
0202827650999992005031900004-07333-047467FM-12+021299999V0209999C000010450019N0200001N1+02561+02441101391ADDAY191061AY261061GF108991031081008001011001KA1240M+03301MA1999999098991MD1999999-0021MW1001REMSYN100AAXX  19004 82765 21598 80000 10256 20244 39899 40139 70096 83810 333 10330 29086 55038 59002 60201;
0190827650999992005031912004-07333-047467FM-12+021299999V0203601N004110042019N0200001N1+02381+02331101761ADDAY161061AY261061GF108991061051004501021999KA1240N+02371MA1999999099341MD1999999+0101MW1921REMSYN088AAXX  19124 82765 21498 83608 10238 20233 39934 40176 79266 8652/ 333 20237 58010 60634;
0185827650999992005032000004-07330-047470FM-12+019399999V0200501N001510120019N0200001N1+02621+02501101611ADDAA106000091GF108991061081008001021999MA1999999099201MD1999999+0211REMSYN088AAXX  20004 82765 32598 80503 10262 20250 39920 40161 8682/ 333 10314 29088 55057 58021;EQDQ01  00002PRCP06
0149827650999992005032012004-07330-047470FM-12+019399999V0203601N001510120019N0200001N1+02521+02291101741ADDGF107991051081008001041001MA1999999099331MD1999999-0011REMSYN082AAXX  20124 82765 22598 73603 10252 20229 39933 40174 85840 333 20237 59001 60034;
0167827650999992005032018004-07330-047470FM-12+019399999V0202701N000512200019N0200001N1+03141+02431101161ADDAA106000091GF104991031021008001041001MA1999999098791MD1999999-0081REMSYN070AAXX  20184 82765 32598 42701 10314 20243 39879 40116 83240 333 59008;EQDQ01  00002PRCP06
0202827650999992005032100004-07333-047467FM-12+021299999V0200501N002110450019N0200001N1+02421+02301101431ADDAY191061AY261061GF105991021031008001021001KA1240M+03301MA1999999099021MD1999999-0181MW1291REMSYN100AAXX  21004 82765 21598 50504 10242 20230 39902 40143 72996 82320 333 10330 29085 55055 59018 60251;
0190827650999992005032112004-07333-047467FM-12+021299999V0201801N001510090019N0200001N1+02501+02341101791ADDAY151061AY221061GF108991051081004501011999KA1240N+02391MA1999999099371MD1999999+0041MW1031REMSYN088AAXX  21124 82765 21498 81803 10250 20234 39937 40179 70352 8581/ 333 20239 58004 60254;
0171827650999992005032118004-07333-047467FM-12+021299999V0209999C000010090019N0200001N1+02301+02201101391ADDAY161061AY221061GF108991051081004501021999MA1999999098971MD1999999+0181MW1031REMSYN082AAXX  21184 82765 21498 80000 10230 20220 39897 40139 70362 8582/ 333 58018 60331;
0198827650999992005032200004-07333-047467FM-12+021299999V0209999C000012200019N0200001N1+02311+02201101541ADDAA106000091GF104991021011008001061001KA1240M+02581MA1999999099121MD1999999+0101REMSYN088AAXX  22004 82765 32598 40000 10231 20220 39912 40154 82160 333 10258 29093 55001 58010;EQDQ01  00002PRCP06
0190827650999992005032212004-07333-047467FM-12+021299999V0209999C000010450019N0200001N1+02461+02341101721ADDAY161061AY261061GF106991021021008001041001KA1240N+02251MA1999999099291MD1999999-0081MW1001REMSYN088AAXX  22124 82765 21598 60000 10246 20234 39929 40172 70066 82240 333 20225 59008 60404;
0171827650999992005032218004-07333-047467FM-12+021299999V0203201N001510450019N0200001N1+02601+02481101331ADDAY161061AY221061GF106991031031008001061001MA1999999098911MD1999999-0061MW1031REMSYN082AAXX  22184 82765 21598 63203 10260 20248 39891 40133 70362 83360 333 59006 60151;
0226827650999992005032300004-07333-047467FM-12+021299999V0209999C000010075019N0200001N1+02661+02561101581ADDAA106000091AY121061AY221061GF108991051021008001011999KA1240M+03121MA1999999099171MD1999999+0051MW1131REMSYN094AAXX  23004 82765 31598 80000 10266 20256 39917 40158 71322 8521/ 333 10312 29094 55074 58005;EQDQ01  00002PRCP06
0179827650999992005032312004-07333-047467FM-12+021299999V0202301N001012200019N0200001N1+02641+02411101791ADDAA124015091GF104991031021008001041001KA1240N+02451MA1999999099391MD1999999+0101REMSYN088AAXX  23124 82765 22598 42302 10264 20241 39939 40179 83240 333 20245 58010 60154 10149;
0167827650999992005032318004-07333-047467FM-12+021299999V0200501N001510075019N0200001N1+02831+02401101431ADDAA106000091GF108991051031008001021999MA1999999099031MD1999999+0121REMSYN070AAXX  23184 82765 32598 80503 10283 20240 39903 40143 8532/ 333 58012;EQDQ01  00002PRCP06
0226827650999992005032400004-07333-047467FM-12+021299999V0209999C000010450019N0200001N1+02561+02441101651ADDAA106000091AY121061AY221061GF106991041021008001051091KA1240M+03231MA1999999099251MD1999999+0081MW1131REMSYN094AAXX  24004 82765 31598 60000 10256 20244 39925 40165 71322 84259 333 10323 29088 55056 58008;EQDQ01  00002PRCP06
0190827650999992005032412004-07333-047467FM-12+021299999V0203601N001010450019N0200001N1+02561+02361101891ADDAY151061AY251061GF105991031021008001041001KA1240N+02391MA1999999099471MD1999999+0081MW1001REMSYN088AAXX  24124 82765 21598 53602 10256 20236 39947 40189 70055 83240 333 20239 58008 69944;
0167827650999992005032418004-07333-047467FM-12+021299999V0202701N002110450019N0200001N1+03161+02391101341ADDAA106000091GF105991031021008001041001MA1999999098961MD1999999+0071REMSYN070AAXX  24184 82765 32598 52704 10316 20239 39896 40134 83240 333 58007;EQDQ01  00002PRCP06
0198827650999992005032500004-07333-047467FM-12+021299999V0200501N000510450019N0200001N1+02821+02661101541ADDAA106000091GF105991021021008001041001KA1240M+03241MA1999999099151MD1999999-0101REMSYN088AAXX  25004 82765 32598 50501 10282 20266 39915 40154 82240 333 10324 29084 55051 59010;EQDQ01  00002PRCP06
0190827650999992005032512004-07333-047467FM-12+021299999V0202701N001512200019N0200001N1+02581+02381101661ADDAY161061AY261061GF103991021011008001041001KA1240N+02351MA1999999099261MD1999999-0211MW1001REMSYN088AAXX  25124 82765 21598 32703 10258 20238 39926 40166 70066 82140 333 20235 59021 60124;
0171827650999992005032518004-07333-047467FM-12+021299999V0200201N003110450019N0200001N1+02801+02461101281ADDAY161061AY201061GF106991041051008001041001MA1999999098881MD1999999-0081MW1621REMSYN082AAXX  25184 82765 21598 60206 10280 20246 39888 40128 76260 84540 333 59008 60051;
0202827650999992005032600004-07333-047467FM-12+021299999V0200201N003110120019N0200001N1+02581+02441101481ADDAY111061AY201061GF108991061081008001021999KA1240M+03201MA1999999099081MD1999999-0071MW1131REMSYN100AAXX  26004 82765 21598 80206 10258 20244 39908 40148 71310 8682/ 333 10320 29089 55063 59007 60061;
0162827650999992005032612004-07333-047467FM-12+021299999V0203201N002110075019N0200001N1+02621+02411101551ADDGF107991051021008001041001KA1240N+02381MA1999999099151MD1999999-0111REMSYN082AAXX  26124 82765 22598 73204 10262 20241 39915 40155 85240 333 20238 59011 60104;
0167827650999992005032618004-07333-047467FM-12+021299999V0203201N001510075019N0200001N1+03021+02461101111ADDAA106000091GF106991051021008001041001MA1999999098741MD1999999-0341REMSYN070AAXX  26184 82765 32598 63203 10302 20246 39874 40111 85240 333 59034;EQDQ01  00002PRCP06
0213827650999992005032700004-07330-047470FM-12+019399999V0203201N000510450019N0200001N1+02501+02381101391ADDAA106000091AY191061AY291061GF105991011011008001041001MA1999999098991MD1999999-0161MW1001REMSYN094AAXX  27004 82765 31598 53201 10250 20238 39899 40139 70099 81140 333 10312 29085 55042 59016;EQDQ01  00002PRCP06
0173827650999992005032712004-07330-047470FM-12+019399999V0200501N001010450019N0200001N1+02721+02501101571ADDAA106000091GF106991031021008001041001MA1999999099171MD1999999+0021REMSYN076AAXX  27124 82765 32598 60502 10272 20250 39917 40157 83240 333 20241 58002;EQDQ01  00002PRCP06
0171827650999992005032718004-07330-047470FM-12+019399999V0202701N000510450019N0200001N1+02641+02441101271ADDAY161061AY261061GF107991021031008001021001MA1999999098861MD1999999+0121MW1171REMSYN082AAXX  27184 82765 21598 72701 10264 20244 39886 40127 71766 82320 333 58012 60341;
0185827650999992005032800004-07330-047470FM-12+019399999V0202301N001510120019N0200001N1+02561+02421101401ADDAA106000091GF108991061081008001021999MA1999999099011MD1999999+0021REMSYN088AAXX  28004 82765 32598 82303 10256 20242 39901 40140 8682/ 333 10306 29090 55031 58002;EQDQ01  00002PRCP06
0194827650999992005032812004-07330-047470FM-12+019399999V0203201N001010075019N0200001N1+02261+02211101691ADDAA124055091AY161061AY261061GF108991051071008001011999MA1999999099261MD1999999+0091MW1001REMSYN094AAXX  28124 82765 21598 83202 10226 20221 39926 40169 70066 8571/ 333 20221 58009 60554 10550;
0167827650999992005032818004-07330-047470FM-12+019399999V0202701N001510450019N0200001N1+02841+02401101191ADDAA106000091GF106991041011008001041001MA1999999098801MD1999999-0061REMSYN070AAXX  28184 82765 32598 62703 10284 20240 39880 40119 84140 333 59006;EQDQ01  00002PRCP06
0198827650999992005032900004-07333-047467FM-12+021299999V0203601N000510210019N0200001N1+02601+02461101291ADDAA106000091GF106991061001022501011001KA1240M+03011MA1999999098881MD1999999-0131REMSYN088AAXX  29004 82765 32898 63601 10260 20246 39888 40129 86010 333 10301 29089 55022 59013;EQDQ01  00002PRCP06
0190827650999992005032912004-07333-047467FM-12+021299999V0200501N001010120019N0200001N1+02541+02441101621ADDAY161061AY261061GF107991061081008001041001KA1240N+02391MA1999999099221MD1999999-0041MW1001REMSYN088AAXX  29124 82765 21598 70502 10254 20244 39922 40162 70066 86840 333 20239 59004 60084;
0171827650999992005032918004-07333-047467FM-12+021299999V0202701N002610450019N0200001N1+02901+02501101201ADDAY151061AY251061GF108991031031008001021999MA1999999098801MD1999999+0001MW1291REMSYN082AAXX  29184 82765 21598 82705 10290 20250 39880 40120 72955 8332/ 333 58000 69981;
0202827650999992005033000004-07333-047467FM-12+021299999V0209999C000012200019N0200001N1+02541+02441101491ADDAY161061AY251061GF102991021011008001001001KA1240M+02981MA1999999099081MD1999999+0201MW1001REMSYN100AAXX  30004 82765 21598 20000 10254 20244 39908 40149 70065 82100 333 10298 29090 55011 58020 60011;
0190827650999992005033012004-07333-047467FM-12+021299999V0202701N000512200019N0200001N1+02571+02461101641ADDAY151061AY221061GF104991021041008001081061KA1240N+02311MA1999999099231MD1999999+0011MW1021REMSYN088AAXX  30124 82765 21598 42701 10257 20246 39923 40164 70252 82486 333 20231 58001 60024;
0171827650999992005033018004-07333-047467FM-12+021299999V0200501N002110450019N0200001N1+02651+02371101301ADDAY161061AY221061GF108991041021008001071999MA1999999098881MD1999999+0081MW1031REMSYN082AAXX  30184 82765 21598 80504 10265 20237 39888 40130 70362 8427/ 333 58008 60111;
0214827650999992005033100004-07333-047467FM-12+021299999V0209999C000010024019N0100001N1+02471+02371101491ADDAA106000091GA1091+999999999GF109991091999999999999999KA1240M+03161MA1999999099081MD1999999+0001REMSYN088AAXX  31004 82765 32597 90000 10247 20237 39908 40149 8//// 333 10316 29092 55050 58000;EQDQ01  00002PRCP06
0190827650999992005033112004-07333-047467FM-12+021299999V0201801N001510042019N0200001N1+02511+02361101731ADDAY161061AY241061GF108991051071004501071999KA1240N+02421MA1999999099311MD1999999+0081MW1031REMSYN088AAXX  31124 82765 21498 81803 10251 20236 39931 40173 70364 8577/ 333 20242 58008 60124;
0171827650999992005033118004-07333-047467FM-12+021299999V0202001N000510450019N0200001N1+02661+02351101351ADDAY161061AY221061GF108991041051008001011999MA1999999098941MD1999999+0061MW1021REMSYN082AAXX  31184 82765 21598 82001 10266 20235 39894 40135 70262 8451/ 333 58006 60121;
0198827650999992005040100004-07333-047467FM-12+021299999V0209999C000010075019N0200001N1+02531+02421101491ADDAA106000091GF105991051051008001001001KA1240M+02751MA1999999099081MD1999999+0001REMSYN088AAXX  01004 82765 32598 50000 10253 20242 39908 40149 85500 333 10275 29091 55000 58000;EQDQ01  00002PRCP06
0190827650999992005040112004-07333-047467FM-12+021299999V0209999C000010450019N0200001N1+02421+02281101771ADDAY161061AY221061GF107991041011008001081051KA1240N+02261MA1999999099351MD1999999+0041MW1021REMSYN088AAXX  01124 82765 21598 70000 10242 20228 39935 40177 70262 84185 333 20226 58004 60224;
0167827650999992005040118004-07333-047467FM-12+021299999V0200901N000510450019N0200001N1+03061+02401101331ADDAA106000091GF106991031041008001071081MA1999999098951MD1999999+0011REMSYN070AAXX  01184 82765 32598 60901 10306 20240 39895 40133 83478 333 58001;EQDQ01  00002PRCP06
0208827650999992005040200004-07333-047467FM-12+021299999V0200501N000512200019N0200001N1+02651+02521101521ADDAA106000091GA1001+999999999GF100991001001999999001001KA1240M+03201MA1999999099111MD1999999+0031REMSYN082AAXX  02004 82765 32998 00501 10265 20252 39911 40152 333 10320 29086 55072 58003;EQDQ01  00002PRCP06
0186827650999992005040212004-07333-047467FM-12+021299999V0200501N000510075019N0200001N1+02561+02441101721ADDAA106000091GF107991051051008001021001KA1240N+02411MA1999999099311MD1999999-0041REMSYN076AAXX  02124 82765 32598 70501 10256 20244 39931 40172 85520 333 20241 59004;EQDQ01  00002PRCP06
0167827650999992005040218004-07333-047467FM-12+021299999V0201801N001510450019N0200001N1+03261+02411101231ADDAA106000091GF106991041021008001081001MA1999999098861MD1999999-0091REMSYN070AAXX  02184 82765 32598 61803 10326 20241 39886 40123 84280 333 59009;EQDQ01  00002PRCP06
0207827650999992005040300004-07330-047470FM-12+019399999V0200501N001512200019N0200001N1+02801+02601101471ADDAA106000091AY191061AY291061GF100991001001999999001001MA1999999099081MD1999999-0031MW1001REMSYN088AAXX  03004 82765 31998 00503 10280 20260 39908 40147 70099 333 10334 29083 55066 59003;EQDQ01  00002PRCP06
0177827650999992005040312004-07330-047470FM-12+019399999V0201401N000510450019N0200001N1+02701+02451101721ADDAY161061AY261061GF106991021021008001041011MA1999999099331MD1999999+0021MW1001REMSYN088AAXX  03124 82765 21598 61401 10270 20245 39933 40172 70066 82241 333 20241 58002 60014;
0195827650999992005040318004-07330-047470FM-12+019399999V0202301N002110450019N0200001N1+03081+02441101271ADDAA106000091AY191061AY291061GF106991021051008001041011MA1999999098891MD1999999+0031MW1001REMSYN076AAXX  03184 82765 31598 62304 10308 20244 39889 40127 70099 82541 333 58003;EQDQ01  00002PRCP06
0202827650999992005040400004-07333-047467FM-12+021299999V0209999C000012200019N0200001N1+02541+02401101551ADDAY191061AY261061GF102991021031008001001001KA1240M+03261MA1999999099151MD1999999+0071MW1131REMSYN100AAXX  04004 82765 21598 20000 10254 20240 39915 40155 71396 82300 333 10326 29085 55064 58007 60121;
0162827650999992005040412004-07333-047467FM-12+021299999V0201401N001512200019N0200001N1+02721+02501101701ADDGF103991021021008001041001KA1240N+02411MA1999999099301MD1999999-0031REMSYN082AAXX  04124 82765 22598 31403 10272 20250 39930 40170 82240 333 20241 59003 60124;
0195827650999992005040418004-07333-047467FM-12+021299999V0202701N001010450019N0200001N1+02981+02531101311ADDAA106000091AY191061AY291061GF108991021021008001021999MA1999999098921MD1999999+0021MW1001REMSYN076AAXX  04184 82765 31598 82702 10298 20253 39892 40131 70099 8222/ 333 58002;EQDQ01  00002PRCP06
0208827650999992005040500004-07333-047467FM-12+021299999V0202301N001512200019N0200001N1+02661+02521101501ADDAA106000091GA1001+999999999GF100991001001999999001001KA1240M+03161MA1999999099111MD1999999-0041REMSYN082AAXX  05004 82765 32998 02303 10266 20252 39911 40150 333 10316 29087 55041 59004;EQDQ01  00002PRCP06
0186827650999992005040512004-07333-047467FM-12+021299999V0201401N000510450019N0200001N1+02641+02481101651ADDAA106000091GF106991021011008001071001KA1240N+02451MA1999999099251MD1999999-0051REMSYN076AAXX  05124 82765 32598 61401 10264 20248 39925 40165 82170 333 20245 59005;EQDQ01  00002PRCP06
0167827650999992005040518004-07333-047467FM-12+021299999V0201401N002610450019N0200001N1+03341+02371101191ADDAA106000091GF106991031011008001071001MA1999999098831MD1999999-0091REMSYN070AAXX  05184 82765 32598 61405 10334 20237 39883 40119 83170 333 59009;EQDQ01  00002PRCP06
0208827650999992005040600004-07333-047467FM-12+021299999V0200501N000512200019N0200001N1+02761+02441101461ADDAA106000091GA1001+999999999GF100991001001999999001001KA1240M+03401MA1999999099071MD1999999-0041REMSYN082AAXX  06004 82765 32998 00501 10276 20244 39907 40146 333 10340 29078 55070 59004;EQDQ01  00002PRCP06
0186827650999992005040612004-07333-047467FM-12+021299999V0201101N001510450019N0200001N1+02601+02251101591ADDAA106000091GF106991021011008001011001KA1240N+02531MA1999999099201MD1999999-0051REMSYN076AAXX  06124 82765 32598 61103 10260 20225 39920 40159 82110 333 20253 59005;EQDQ01  00002PRCP06
0167827650999992005040618004-07333-047467FM-12+021299999V0201601N002610450019N0200001N1+03161+02451101361ADDAA106000091GF106991031021008001011001MA1999999098981MD1999999+0151REMSYN070AAXX  06184 82765 32598 61605 10316 20245 39898 40136 83210 333 58015;EQDQ01  00002PRCP06
0208827650999992005040700004-07333-047467FM-12+021299999V0200901N000512200019N0200001N1+02821+02541101431ADDAA106000091GA1001+999999999GF100991001001999999001001KA1240M+03221MA1999999099041MD1999999-0031REMSYN082AAXX  07004 82765 32998 00901 10282 20254 39904 40143 333 10322 29078 55049 59003;EQDQ01  00002PRCP06
0186827650999992005040712004-07333-047467FM-12+021299999V0201101N000510450019N0200001N1+02601+02371101561ADDAA106000091GF106991021011008001011001KA1240N+02291MA1999999099171MD1999999-0031REMSYN076AAXX  07124 82765 32598 61101 10260 20237 39917 40156 82110 333 20229 59003;EQDQ01  00002PRCP06
0167827650999992005040718004-07333-047467FM-12+021299999V0200901N002610450019N0200001N1+03401+02241101191ADDAA106000091GF105991031021008001041001MA1999999098831MD1999999-0151REMSYN070AAXX  07184 82765 32598 50905 10340 20224 39883 40119 83240 333 59015;EQDQ01  00002PRCP06
0208827650999992005040800004-07333-047467FM-12+021299999V0200901N000512200019N0200001N1+02901+02581101351ADDAA106000091GA1001+999999999GF100991001001999999001001KA1240M+03481MA1999999098971MD1999999-0071REMSYN082AAXX  08004 82765 32998 00901 10290 20258 39897 40135 333 10348 29076 55097 59007;EQDQ01  00002PRCP06
0186827650999992005040812004-07333-047467FM-12+021299999V0200901N001512200019N0200001N1+02841+02381101421ADDAA106000091GF102991021001008001051001KA1240N+02411MA1999999099051MD1999999-0121REMSYN076AAXX  08124 82765 32598 20903 10284 20238 39905 40142 82050 333 20241 59012;EQDQ01  00002PRCP06
0167827650999992005040818004-07333-047467FM-12+021299999V0200901N001512200019N0200001N1+03401+02211101111ADDAA106000091GF104991041021008001001001MA1999999098751MD1999999-0081REMSYN070AAXX  08184 82765 32598 40903 10340 20221 39875 40111 84200 333 59008;EQDQ01  00002PRCP06
0208827650999992005040900004-07333-047467FM-12+021299999V0200901N000512200019N0200001N1+02921+02231101301ADDAA106000091GA1001+999999999GF100991001001999999001001KA1240M+03481MA1999999098931MD1999999-0041REMSYN082AAXX  09004 82765 32998 00901 10292 20223 39893 40130 333 10348 29071 55109 59004;EQDQ01  00002PRCP06
0186827650999992005040912004-07333-047467FM-12+021299999V0200901N001512200019N0200001N1+02701+02151101531ADDAA106000091GF105991011011008001001081KA1240N+02231MA1999999099151MD1999999+0101REMSYN076AAXX  09124 82765 32598 50903 10270 20215 39915 40153 81108 333 20223 58010;EQDQ01  00002PRCP06
0167827650999992005040918004-07333-047467FM-12+021299999V0201401N002611050019N0200001N1+03401+02181101121ADDAA106000091GF106991021021008001001081MA1999999098761MD1999999+0011REMSYN070AAXX  09184 82765 32598 61405 10340 20218 39876 40112 82208 333 58001;EQDQ01  00002PRCP06
0186827650999992005041012004-07333-047467FM-12+021299999V0201401N001012200019N0200001N1+02721+02301101451ADDAA106000091GF104991011011008001001081KA1240N+02281MA1999999099071MD1999999-0081REMSYN076AAXX  10124 82765 32598 41402 10272 20230 39907 40145 81108 333 20228 59008;EQDQ01  00002PRCP06
0186827650999992005041112004-07333-047467FM-12+021299999V0200901N003112200019N0200001N1+02811+02201101361ADDAA106000091GF105991031001022501071041KA1240N+02351MA1999999098981MD1999999-0091REMSYN076AAXX  11124 82765 32898 50906 10281 20220 39898 40136 83074 333 20235 59009;EQDQ01  00002PRCP06
0167827650999992005041118004-07333-047467FM-12+021299999V0200901N002610450019N0200001N1+03331+02191101051ADDAA106000091GF106991031071012501031051MA1999999098681MD1999999-0021REMSYN070AAXX  11184 82765 32698 60905 10333 20219 39868 40105 83735 333 59002;EQDQ01  00002PRCP06
0208827650999992005041200004-07333-047467FM-12+021299999V0200901N001512200019N0200001N1+02921+02361101181ADDAA106000091GA1001+999999999GF100991001001999999001001KA1240M+03481MA1999999098811MD1999999-0111REMSYN082AAXX  12004 82765 32998 00903 10292 20236 39881 40118 333 10348 29066 55108 59011;EQDQ01  00002PRCP06
0186827650999992005041212004-07333-047467FM-12+021299999V0201801N001512200019N0200001N1+02871+02281101451ADDAA106000091GF103991031001022501061001KA1240N+02451MA1999999099081MD1999999+0101REMSYN076AAXX  12124 82765 32898 31803 10287 20228 39908 40145 83060 333 20245 58010;EQDQ01  00002PRCP06
0167827650999992005041218004-07333-047467FM-12+021299999V0201801N002612200019N0200001N1+03411+02181101141ADDAA106000091GF104991041041012501001001MA1999999098781MD1999999+0101REMSYN070AAXX  12184 82765 32698 41805 10341 20218 39878 40114 84400 333 58010;EQDQ01  00002PRCP06
0208827650999992005041300004-07333-047467FM-12+021299999V0209999C000012200019N0200001N1+02851+02291101351ADDAA106000091GA1001+999999999GF100991001001999999001001KA1240M+03501MA1999999098981MD1999999+0171REMSYN082AAXX  13004 82765 32998 00000 10285 20229 39898 40135 333 10350 29066 55107 58017;EQDQ01  00002PRCP06
0186827650999992005041312004-07333-047467FM-12+021299999V0200501N000512200019N0200001N1+02861+02371101521ADDAA106000091GF104991031021008001041001KA1240N+02391MA1999999099141MD1999999+0061REMSYN076AAXX  13124 82765 32598 40501 10286 20237 39914 40152 83240 333 20239 58006;EQDQ01  00002PRCP06
0167827650999992005041318004-07333-047467FM-12+021299999V0200901N002612200019N0200001N1+03441+02181101081ADDAA106000091GF102991021021008001001001MA1999999098721MD1999999-0061REMSYN070AAXX  13184 82765 32598 20905 10344 20218 39872 40108 82200 333 59006;EQDQ01  00002PRCP06
0198827650999992005041400004-07333-047467FM-12+021299999V0200901N001012200019N0200001N1+02981+02491101261ADDAA106000091GF104991041001008001081001KA1240M+03521MA1999999098891MD1999999-0091REMSYN088AAXX  14004 82765 32598 40902 10298 20249 39889 40126 84080 333 10352 29068 55105 59009;EQDQ01  00002PRCP06
0186827650999992005041412004-07333-047467FM-12+021299999V0200501N001012200019N0200001N1+03001+02391101421ADDAA106000091GF102991011011008001001011KA1240N+02611MA1999999099061MD1999999-0081REMSYN076AAXX  14124 82765 32598 20502 10300 20239 39906 40142 81101 333 20261 59008;EQDQ01  00002PRCP06
0167827650999992005041418004-07333-047467FM-12+021299999V0200501N003112200019N0200001N1+03421+02291101041ADDAA106000091GF104991031021008001001051MA1999999098691MD1999999-0031REMSYN070AAXX  14184 82765 32598 40506 10342 20229 39869 40104 83205 333 59003;EQDQ01  00002PRCP06
0226827650999992005041500004-07333-047467FM-12+021299999V0203601N001012200019N0200001N1+02941+02561101091ADDAA106000091AY101061AY201061GF103991031031008001001001KA1240M+03521MA1999999098841MD1999999-0051MW1131REMSYN094AAXX  15004 82765 31598 33602 10294 20256 39884 40109 71300 83300 333 10352 29070 55103 59005;EQDQ01  00002PRCP06
0190827650999992005041512004-07333-047467FM-12+021299999V0202301N001010450019N0200001N1+02761+02421101521ADDAY151061AY201061GF106991031011008001071001KA1240N+02411MA1999999099141MD1999999+0081MW1001REMSYN088AAXX  15124 82765 21598 62302 10276 20242 39914 40152 70050 83170 333 20241 58008 69994;
0167827650999992005041518004-07333-047467FM-12+021299999V0209999C000010450019N0200001N1+03421+02391101111ADDAA106000091GF106991041021008001071001MA1999999098751MD1999999+0061REMSYN070AAXX  15184 82765 32598 60000 10342 20239 39875 40111 84270 333 58006;EQDQ01  00002PRCP06
0198827650999992005041600004-07333-047467FM-12+021299999V0209999C000012200019N0200001N1+02961+02661101331ADDAA106000091GF103991031001008001041001KA1240M+03521MA1999999098961MD1999999-0121REMSYN088AAXX  16004 82765 32598 30000 10296 20266 39896 40133 83040 333 10352 29076 55076 59012;EQDQ01  00002PRCP06
0186827650999992005041612004-07333-047467FM-12+021299999V0200501N001010450019N0200001N1+02821+02501101531ADDAA106000091GF105991031021008001011021KA1240N+02391MA1999999099161MD1999999+0021REMSYN076AAXX  16124 82765 32598 50502 10282 20250 39916 40153 83212 333 20239 58002;EQDQ01  00002PRCP06
0195827650999992005041618004-07333-047467FM-12+021299999V0203601N004610450019N0040001N1+03211+02351101181ADDAA106000091AY121061AY221061GF107991041051004501021051MA1999999098811MD1999999+0061MW1171REMSYN076AAXX  16184 82765 31496 73609 10321 20235 39881 40118 71722 84525 333 58006;EQDQ01  00002PRCP06
0185827650999992005041700004-07330-047470FM-12+019399999V0209999C000010090019N0200001N1+02771+02401101341ADDAA106000091GF108991081081004501999999MA1999999098961MD1999999+0001REMSYN088AAXX  17004 82765 32498 80000 10277 20240 39896 40134 888// 333 10354 29076 55074 58000;EQDQ01  00002PRCP06
0173827650999992005041712004-07330-047470FM-12+019399999V0209999C000010450019N0200001N1+02701+02451101601ADDAA106000091GF107991021011008001071001MA1999999099211MD1999999+0051REMSYN076AAXX  17124 82765 32598 70000 10270 20245 39921 40160 82170 333 20241 58005;EQDQ01  00002PRCP06
0167827650999992005041718004-07330-047470FM-12+019399999V0201401N001010450019N0200001N1+03241+02501101161ADDAA106000091GF107991021011008001071001MA1999999098801MD1999999-0011REMSYN070AAXX  17184 82765 32598 71402 10324 20250 39880 40116 82170 333 59001;EQDQ01  00002PRCP06
0198827650999992005041800004-07333-047467FM-12+021299999V0209999C000010450019N0200001N1+02901+02661101411ADDAA106000091GF106991011011008001071091KA1240M+03281MA1999999099001MD1999999+0041REMSYN088AAXX  18004 82765 32598 60000 10290 20266 39900 40141 81179 333 10328 29081 55008 58004;EQDQ01  00002PRCP06
0186827650999992005041812004-07333-047467FM-12+021299999V0209999C000010450019N0200001N1+02781+02561101441ADDAA106000091GF106991011011008001071091KA1240N+02491MA1999999099061MD1999999-0151REMSYN076AAXX  18124 82765 32598 60000 10278 20256 39906 40144 81179 333 20249 59015;EQDQ01  00002PRCP06
0167827650999992005041818004-07333-047467FM-12+021299999V0200901N002110450019N0200001N1+03401+02401100991ADDAA106000091GF106991021011008001071051MA1999999098641MD1999999-0161REMSYN070AAXX  18184 82765 32598 60904 10340 20240 39864 40099 82175 333 59016;EQDQ01  00002PRCP06
0198827650999992005041900004-07333-047467FM-12+021299999V0200501N000512200019N0200001N1+02941+02521101201ADDAA106000091GF104991011011008001001051KA1240M+03461MA1999999098831MD1999999-0171REMSYN088AAXX  19004 82765 32598 40501 10294 20252 39883 40120 81105 333 10346 29075 55073 59017;EQDQ01  00002PRCP06
0186827650999992005041912004-07333-047467FM-12+021299999V0209999C000010450019N0200001N1+02821+02581101341ADDAA106000091GF107991031081008001031021KA1240N+02531MA1999999099071MD1999999+0011REMSYN076AAXX  19124 82765 32598 70000 10282 20258 39907 40134 83832 333 20253 58001;EQDQ01  00002PRCP06
0167827650999992005041918004-07333-047467FM-12+021299999V0201401N001510450019N0200001N1+03241+02391101001ADDAA106000091GF107991041021008001011001MA1999999098641MD1999999+0001REMSYN070AAXX  19184 82765 32598 71403 10324 20239 39864 40100 84210 333 58000;EQDQ01  00002PRCP06
0198827650999992005042000004-07333-047467FM-12+021299999V0203601N001510450019N0200001N1+02641+02291101401ADDAA106000091GF108991041021008001021999KA1240M+03281MA1999999099021MD1999999+0191REMSYN088AAXX  20004 82765 32598 83603 10264 20229 39902 40140 8422/ 333 10328 29076 55038 58019;EQDQ01  00002PRCP06
0186827650999992005042012004-07333-047467FM-12+021299999V0201401N000510450019N0200001N1+02711+02391101591ADDAA106000091GF107991041041008001031001KA1240N+02391MA1999999099201MD1999999+0131REMSYN076AAXX  20124 82765 32598 71401 10271 20239 39920 40159 84430 333 20239 58013;EQDQ01  00002PRCP06
0171827650999992005042018004-07333-047467FM-12+021299999V0200501N001010450019N0200001N1+02751+02301101241ADDAY161061AY221061GF107991041021008001081001MA1999999098841MD1999999+0201MW1021REMSYN082AAXX  20184 82765 21598 70502 10275 20230 39884 40124 70262 84280 333 58020 60211;
0198827650999992005042100004-07333-047467FM-12+021299999V0209999C000010450019N0200001N1+02801+02561101471ADDAA106000091GF107991041081008001011001KA1240M+03241MA1999999099081MD1999999+0061REMSYN088AAXX  21004 82765 32598 70000 10280 20256 39908 40147 84810 333 10324 29084 55035 58006;EQDQ01  00002PRCP06
0162827650999992005042112004-07333-047467FM-12+021299999V0209999C000012200019N0200001N1+02821+02481101511ADDGF104991021011008001051061KA1240N+02401MA1999999099131MD1999999-0071REMSYN082AAXX  21124 82765 22598 40000 10282 20248 39913 40151 82156 333 20240 59007 60214;
0167827650999992005042118004-07333-047467FM-12+021299999V0200701N002610450019N0200001N1+03371+02361101061ADDAA106000091GF106991031041008001011081MA1999999098701MD1999999-0141REMSYN070AAXX  21184 82765 32598 60705 10337 20236 39870 40106 83418 333 59014;EQDQ01  00002PRCP06
0198827650999992005042200004-07333-047467FM-12+021299999V0209999C000010450019N0200001N1+02881+02561101401ADDAA106000091GF108991041061004501011999KA1240M+03461MA1999999098921MD1999999-0161REMSYN088AAXX  22004 82765 32498 80000 10288 20256 39892 40140 8461/ 333 10346 29076 55078 59016;EQDQ01  00002PRCP06
0186827650999992005042212004-07333-047467FM-12+021299999V0200501N000510450019N0200001N1+02851+02481101461ADDAA106000091GF106991031011008001061081KA1240N+02411MA1999999099081MD1999999-0121REMSYN076AAXX  22124 82765 32598 60501 10285 20248 39908 40146 83168 333 20241 59012;EQDQ01  00002PRCP06
0167827650999992005042218004-07333-047467FM-12+021299999V0202301N001512200019N0200001N1+03281+02401101031ADDAA106000091GF105991021021008001061091MA1999999098661MD1999999-0041REMSYN070AAXX  22184 82765 32598 52303 10328 20240 39866 40103 82269 333 59004;EQDQ01  00002PRCP06
0198827650999992005042300004-07333-047467FM-12+021299999V0209999C000010075019N0200001N1+02821+02561101301ADDAA106000091GF106991061021008001001001KA1240M+03421MA1999999098931MD1999999+0011REMSYN088AAXX  23004 82765 32598 60000 10282 20256 39893 40130 86200 333 10342 29078 55059 58001;EQDQ01  00002PRCP06
0162827650999992005042312004-07333-047467FM-12+021299999V0202401N000512200019N0200001N1+02881+02481101441ADDGF102991021011008001001001KA1240N+02481MA1999999099061MD1999999-0021REMSYN082AAXX  23124 82765 22598 22401 10288 20248 39906 40144 82100 333 20248 59002 60024;
0167827650999992005042318004-07333-047467FM-12+021299999V0201401N001010450019N0200001N1+03501+02401100951ADDAA106000091GF106991041021008001071001MA1999999098601MD1999999-0061REMSYN070AAXX  23184 82765 32598 61402 10350 20240 39860 40095 84270 333 59006;EQDQ01  00002PRCP06
0185827650999992005042400004-07330-047470FM-12+019399999V0202701N001010450019N0200001N1+02841+02441101251ADDAA106000091GF108991021011008001071001MA1999999098881MD1999999-0051REMSYN088AAXX  24004 82765 32598 82702 10284 20244 39888 40125 82170 333 10358 29072 55095 59005;EQDQ01  00002PRCP06
0173827650999992005042412004-07330-047470FM-12+019399999V0203201N001010450019N0200001N1+02701+02461101491ADDAA106000091GF108991021021008001011999MA1999999099101MD1999999+0041REMSYN076AAXX  24124 82765 32598 83202 10270 20246 39910 40149 8221/ 333 20246 58004;EQDQ01  00002PRCP06
0171827650999992005042418004-07330-047470FM-12+019399999V0203601N002110450019N0200001N1+02661+02181101331ADDAY191061AY261061GF108991031021008001021999MA1999999098931MD1999999+0331MW1291REMSYN082AAXX  24184 82765 21598 83604 10266 20218 39893 40133 72996 8322/ 333 58033 60021;
0202827650999992005042500004-07333-047467FM-12+021299999V0203601N000510450019N0200001N1+02421+02281101471ADDAY191061AY251061GF108991021011008001011999KA1240M+03311MA1999999099061MD1999999+0181MW1001REMSYN100AAXX  25004 82765 21598 83601 10242 20228 30906 40147 70095 8211/ 333 10331 29086 55014 58018 69911;
0162827650999992005042512004-07333-047467FM-12+021299999V0203201N001510450019N0100001N1+02521+02341101621ADDGF108991021061004501021999KA1240N+02331MA1999999099201MD1999999+0101REMSYN082AAXX  25124 82765 22497 83203 10252 20234 39920 40162 8262/ 333 20233 58010 60024;
0167827650999992005042518004-07333-047467FM-12+021299999V0203201N001510450019N0200001N1+03121+02411101181ADDAA106000091GF106991041021008001041001MA1999999098801MD1999999-0131REMSYN070AAXX  25184 82765 32598 63203 10312 20241 39880 40118 84240 333 59013;EQDQ01  00002PRCP06
0213827650999992005042600004-07333-047467FM-12+021299999V0200501N000510450019N0200001N1+02841+02541101481ADDAA106000091AY121061AY201061GF107991041021008001031001KA1240M+03321KA2999N+00811MA1999999099091MW1001REMSYN082AAXX  26004 82765 31598 70501 10284 20254 39909 40148 70020 84230 333 10332 29081;EQDQ01  00002PRCP06
0209827650999992005042612004-07333-047467FM-12+021299999V0201401N000510450019N0200001N1+02761+02541101631ADDAY101061AY201061GF106991041011008001041001KA1240N+02501MA1999999099251MD1999999+0051MW1651REMSYN088AAXX  26124 82765 21598 61401 10276 20254 39925 40163 76500 84140 333 20250 58005 60034;EQDQ01+000652PRSWM1
0148827650999992005042618004-07333-047467FM-12+021299999V0203201N001510450019N0200001N1+03341+02371101171ADDAA106000021GF106991031021008001041001MA1999999098811MD1999999+0011REMSYN070AAXX  26184 82765 32598 63203 10334 20237 39881 40117 83240 333 58001;
0202827650999992005042700004-07333-047467FM-12+021299999V0209999C000010450019N0200001N1+02681+02411101491ADDAY191061AY251061GF106991031021008001041001KA1240M+03401MA1999999099101MD1999999+0011MW1001REMSYN100AAXX  27004 82765 21598 60000 10268 20241 39910 40149 70095 83240 333 10340 29079 55084 58001 69951;
0162827650999992005042712004-07333-047467FM-12+021299999V0202301N002110450019N0200001N1+02661+02431101661ADDGF107991041081008001041051KA1240N+02491MA1999999099261MD1999999+0011REMSYN082AAXX  27124 82765 22598 72304 10266 20243 39926 40166 84845 333 20249 58001 69954;
0195827650999992005042718004-07333-047467FM-12+021299999V0201401N003110450019N0200001N1+03141+02441101231ADDAA106000091AY101061AY201061GF107991031031008001021001MA1999999098851MD1999999+0041MW1171REMSYN076AAXX  27184 82765 31598 71406 10314 20244 39885 40123 71700 83320 333 58004;EQDQ01  00002PRCP06
0202827650999992005042800004-07333-047467FM-12+021299999V0201801N000510450019N0200001N1+02441+02341101551ADDAY191061AY261061GF106991041081008001041001KA1240M+03301MA1999999099141MD1999999+0041MW1001REMSYN100AAXX  28004 82765 21598 61801 10244 20234 39914 40155 70096 84840 333 10330 29084 55057 58004 60121;
0190827650999992005042812004-07333-047467FM-12+021299999V0209999C000010120019N0200001N1+02541+02441101711ADDAY151061AY251061GF108991051081008001021999KA1240N+02371MA1999999099291MD1999999+0031MW1001REMSYN088AAXX  28124 82765 21598 80000 10254 20244 39929 40171 70055 8582/ 333 20237 58003 60134;
0171827650999992005042818004-07333-047467FM-12+021299999V0201401N001010450019N0200001N1+02501+02311101501ADDAY161061AY261061GF108991031031008001051999MA1999999099081MD1999999+0231MW1951REMSYN082AAXX  28184 82765 21598 81402 10250 20231 39908 40150 79566 8335/ 333 58023 60221;
0202827650999992005042900004-07333-047467FM-12+021299999V0202301N001010120019N0200001N1+02341+02201101751ADDAY161061AY261061GF108991061081008001021999KA1240M+03081MA1999999099331MD1999999-0191MW1001REMSYN100AAXX  29004 82765 21598 82302 10234 20220 39933 40175 70066 8682/ 333 10308 29092 55023 59019 60191;
0162827650999992005042912004-07333-047467FM-12+021299999V0209999C000010450019N0200001N1+02461+02301101921ADDGF106991041071004501031001KA1240N+02211MA1999999099491MD1999999+0201REMSYN082AAXX  29124 82765 22498 60000 10246 20230 39949 40192 84730 333 20221 58020 60414;
0167827650999992005042918004-07333-047467FM-12+021299999V0202301N002612200019N0200001N1+03071+02321101431ADDAA106000091GF104991041091004501001001MA1999999099041MD1999999-0041REMSYN070AAXX  29184 82765 32498 42305 10307 20232 39904 40143 84900 333 59004;EQDQ01  00002PRCP06
0218827650999992005043000004-07333-047467FM-12+021299999V0200201N001510024019N0100001N1+02531+02361101851ADDAY161061AY221061GA1091+999999999GF109991091999999999999999KA1240M+03211MA1999999099431MD1999999+0101MW1531REMSYN100AAXX  30004 82765 21/97 90203 10253 20236 39943 40185 75362 8//// 333 10321 29084 55077 58010 60041;
0190827650999992005043012004-07333-047467FM-12+021299999V0201801N001510075019N0200001N1+02511+02291101871ADDAY161061AY221061GF105991051051008001001001KA1240N+02361MA1999999099451MD1999999-0041MW1031REMSYN088AAXX  30124 82765 21598 51803 10251 20229 39945 40187 70362 85500 333 20236 59004 60084;
0167827650999992005043018004-07333-047467FM-12+021299999V0202301N001012200019N0200001N1+03141+02351101371ADDAA106000091GF104991021021008001031011MA1999999098991MD1999999-0051REMSYN070AAXX  30184 82765 32598 42302 10314 20235 39899 40137 82231 333 59005;EQDQ01  00002PRCP06
0179827650999992005050100004-07330-047470FM-12+019399999V0209999C000012200019N0200001N1+02661+02441101651ADDAA106000091GF100991001001999999001001MA1999999099251MD1999999-0181REMSYN082AAXX  01004 82765 32998 00000 10266 20244 39925 40165 333 10334 29082 55075 59018;EQDQ01  00002PRCP06
