0208829860999992005010100004-09400-038217FM-12+0252SBUF V0200901N005112200019N0020001N1+02891+01831101051ADDAA106000091GA1001+999999999GF100991001001999999001001KA1240M+03421MA1999999098241MD1999999-0041REMSYN082AAXX  01004 82986 32995 00910 10289 20183 39824 40105 333 10342 29052 55099 59004;EQDQ01  00002PRCP06
0186829860999992005010112004-09400-038217FM-12+0252SBUF V0200901N003112200019N0200001N1+02701+01751101251ADDAA106000091GF102991021011008001001001KA1240N+02241MA1999999098431MD1999999-0091REMSYN076AAXX  01124 82986 32598 20906 10270 20175 39843 40125 82100 333 20224 59009;EQDQ01  00002PRCP06
0167829860999992005010118004-09400-038217FM-12+0252SBUF V0200901N004612200019N0200001N1+03511+01581100821ADDAA106000091GF104991041021008001001001MA1999999098021MD1999999-0121REMSYN070AAXX  01184 82986 32598 40909 10351 20158 39802 40082 84200 333 59012;EQDQ01  00002PRCP06
0208829860999992005010200004-09400-038217FM-12+0252SBUF V0200901N005712200019N0020001N1+02861+01901101121ADDAA106000091GA1001+999999999GF100991001001999999001001KA1240M+03541MA1999999098301MD1999999+0061REMSYN082AAXX  02004 82986 32995 00911 10286 20190 39830 40112 333 10354 29050 55104 58006;EQDQ01  00002PRCP06
0186829860999992005010212004-09400-038217FM-12+0252SBUF V0200901N003612200019N0200001N1+02761+01721101421ADDAA106000091GF103991031011008001001001KA1240N+02241MA1999999098601MD1999999+0171REMSYN076AAXX  02124 82986 32598 30907 10276 20172 39860 40142 83100 333 20224 58017;EQDQ01  00002PRCP06
0167829860999992005010218004-09400-038217FM-12+0252SBUF V0200901N002112200019N0200001N1+03441+01481100911ADDAA106000091GF103991021011008001001031MA1999999098111MD1999999+0091REMSYN070AAXX  02184 82986 32598 30904 10344 20148 39811 40091 82103 333 58009;EQDQ01  00002PRCP06
0186829860999992005010312004-09400-038217FM-12+0252SBUF V0200901N003112200019N0200001N1+02821+01801101541ADDAA106000091GF106991021011008001001061KA1240N+02401MA1999999098611MD1999999+0011REMSYN076AAXX  03124 82986 32598 60906 10282 20180 39861 40154 82106 333 20240 58001;EQDQ01  00002PRCP06
0167829860999992005010318004-09400-038217FM-12+0252SBUF V0201801N001511050019N0200001N1+03421+01611100951ADDAA106000091GF106991031021008001001081MA1999999098151MD1999999+0041REMSYN070AAXX  03184 82986 32598 61803 10342 20161 39815 40095 83208 333 58004;EQDQ01  00002PRCP06
0208829860999992005010400004-09400-038217FM-12+0252SBUF V0200901N005712200019N0020001N1+02831+01891101241ADDAA106000091GA1001+999999999GF100991001001999999001001KA1240M+03471MA1999999098421MD1999999+0051REMSYN082AAXX  04004 82986 32995 00911 10283 20189 39842 40124 333 10347 29050 55088 58005;EQDQ01  00002PRCP06
0167829860999992005010418004-09400-038217FM-12+0252SBUF V0200901N003112200019N0200001N1+03471+01501100811ADDAA106000091GF103991031011008001001001MA1999999098021MD1999999-0131REMSYN070AAXX  04184 82986 32598 30906 10347 20150 39802 40081 83100 333 59013;EQDQ01  00002PRCP06
0208829860999992005010500004-09400-038217FM-12+0252SBUF V0200901N008212200019N0020001N1+02851+01501101091ADDAA106000091GA1001+999999999GF100991001001999999001001KA1240M+03501MA1999999098271MD1999999-0151REMSYN082AAXX  05004 82986 32995 00916 10285 20150 39827 40109 333 10350 29045 55097 59015;EQDQ01  00002PRCP06
0186829860999992005010512004-09400-038217FM-12+0252SBUF V0201401N003119999999N0100001N1+02751+01761101341ADDAA106000091GF105991051001012501061001KA1240N+02211MA1999999098521MD1999999-0041REMSYN076AAXX  05124 82986 32697 51406 10275 20176 39852 40134 85060 333 20221 59004;EQDQ01  00002PRCP06
0167829860999992005010518004-09400-038217FM-12+0252SBUF V0201401N002112200019N0200001N1+03411+01501100821ADDAA106000091GF103991031011008001001001MA1999999098021MD1999999+0001REMSYN070AAXX  05184 82986 32598 31404 10341 20150 39802 40082 83100 333 58000;EQDQ01  00002PRCP06
0208829860999992005010600004-09400-038217FM-12+0252SBUF V0201401N006712200019N0020001N1+02811+01501101091ADDAA106000091GA1001+999999999GF100991001001999999001001KA1240M+03491MA1999999098271MD1999999+0001REMSYN082AAXX  06004 82986 32995 01413 10281 20150 39827 40109 333 10349 29044 55109 58000;EQDQ01  00002PRCP06
0186829860999992005010612004-09400-038217FM-12+0252SBUF V0200901N007710042019N0100001N1+02661+01711101321ADDAA106000091GF106991061041004501001001KA1240N+02261MA1999999098491MD1999999-0031REMSYN076AAXX  06124 82986 32497 60915 10266 20171 39849 40132 86400 333 20226 59003;EQDQ01  00002PRCP06
0167829860999992005010618004-09400-038217FM-12+0252SBUF V0200901N003612200019N0200001N1+03431+01311100811ADDAA106000091GF101991011011008001001001MA1999999098011MD1999999-0011REMSYN070AAXX  06184 82986 32598 10907 10343 20131 39801 40081 81100 333 59001;EQDQ01  00002PRCP06
0208829860999992005010700004-09400-038217FM-12+0252SBUF V0201401N008212200019N0020001N1+02841+01601101101ADDAA106000091GA1001+999999999GF100991001001999999001001KA1240M+03481MA1999999098281MD1999999+0011REMSYN082AAXX  07004 82986 32995 01416 10284 20160 39828 40110 333 10348 29044 55112 58001;EQDQ01  00002PRCP06
0186829860999992005010712004-09400-038217FM-12+0252SBUF V0201401N005712200019N0100001N1+02661+01871101321ADDAA106000091GF104991031031008001031001KA1240N+02241MA1999999098491MD1999999+0001REMSYN076AAXX  07124 82986 32597 41411 10266 20187 39849 40132 83330 333 20224 58000;EQDQ01  00002PRCP06
0167829860999992005010718004-09400-038217FM-12+0252SBUF V0201401N006212200019N0200001N1+03521+01161100801ADDAA106000091GF101991011011008001001001MA1999999098001MD1999999-0011REMSYN070AAXX  07184 82986 32598 11412 10352 20116 39800 40080 81100 333 59001;EQDQ01  00002PRCP06
0208829860999992005010800004-09400-038217FM-12+0252SBUF V0201401N008212200019N0020001N1+02841+01851101101ADDAA106000091GA1001+999999999GF100991001001999999001001KA1240M+03561MA1999999098281MD1999999+0001REMSYN082AAXX  08004 82986 32995 01416 10284 20185 39828 40110 333 10356 29049 55109 58000;EQDQ01  00002PRCP06
0186829860999992005010812004-09400-038217FM-12+0252SBUF V0200901N007212200019N0200001N1+02831+01911101211ADDAA106000091GF103991021011008001001011KA1240N+02461MA1999999098401MD1999999-0091REMSYN076AAXX  08124 82986 32598 30914 10283 20191 39840 40121 82101 333 20246 59009;EQDQ01  00002PRCP06
0167829860999992005010818004-09400-038217FM-12+0252SBUF V0201401N003112200019N0200001N1+03581+01501100691ADDAA106000091GF103991021011008001001011MA1999999097911MD1999999-0091REMSYN070AAXX  08184 82986 32598 31406 10358 20150 39791 40069 82101 333 59009;EQDQ01  00002PRCP06
0173829860999992005010912004-09400-038220FM-12+0253SBUF V0201401N002610450019N0100001N1+02781+01981101231ADDAA106000091GF106991031011008001051031MA1999999098411MD1999999+0001REMSYN076AAXX  09124 82986 32597 61405 10278 20198 39841 40123 83153 333 20236 58000;EQDQ01  00002PRCP06
0167829860999992005010918004-09400-038220FM-12+0253SBUF V0200901N001512200019N0200001N1+03541+01351100661ADDAA106000091GF103991031011008001001001MA1999999097871MD1999999-0041REMSYN070AAXX  09184 82986 32598 30903 10354 20135 39787 40066 83100 333 59004;EQDQ01  00002PRCP06
0190829860999992005011012004-09400-038217FM-12+0252SBUF V0200901N003110042019N0100001N1+02631+02231101141ADDAY161061AY251061GF108991081071004501999999KA1240N+02461MA1999999098321MD1999999-0091MW1031REMSYN088AAXX  10124 82986 21497 80906 10263 20223 39832 40114 70365 887// 333 20246 59009 69924;
0167829860999992005011018004-09400-038217FM-12+0252SBUF V0201401N004111050019N0200001N1+03411+01681100691ADDAA106000091GF106991011011008001001081MA1999999097901MD1999999+0031REMSYN070AAXX  10184 82986 32598 61408 10341 20168 39790 40069 81108 333 58003;EQDQ01  00002PRCP06
0208829860999992005011100004-09400-038217FM-12+0252SBUF V0200901N003612200019N0020001N1+02921+01921100981ADDAA106000091GA1001+999999999GF100991001001999999001001KA1240M+03461MA1999999098171MD1999999-0021REMSYN082AAXX  11004 82986 32995 00907 10292 20192 39817 40098 333 10346 29056 55012 59002;EQDQ01  00002PRCP06
0186829860999992005011112004-09400-038217FM-12+0252SBUF V0200901N002112200019N0200001N1+02801+01901101201ADDAA106000091GF103991021011008001051001KA1240N+02371MA1999999098391MD1999999+0071REMSYN076AAXX  11124 82986 32598 30904 10280 20190 39839 40120 82150 333 20237 58007;EQDQ01  00002PRCP06
0167829860999992005011118004-09400-038217FM-12+0252SBUF V0201401N002610450019N0200001N1+03571+01641100681ADDAA106000091GF106991031011008001031081MA1999999097901MD1999999-0271REMSYN070AAXX  11184 82986 32598 61405 10357 20164 39790 40068 83138 333 59027;EQDQ01  00002PRCP06
0208829860999992005011200004-09400-038217FM-12+0252SBUF V0200901N005712200019N0020001N1+03101+01901100881ADDAA106000091GA1001+999999999GF100991001001999999001001KA1240M+03621MA1999999098091MD1999999-0081REMSYN082AAXX  12004 82986 32995 00911 10310 20190 39809 40088 333 10362 29047 55097 59008;EQDQ01  00002PRCP06
0186829860999992005011212004-09400-038217FM-12+0252SBUF V0200501N001512200019N0200001N1+02911+01811101061ADDAA106000091GF102991011011008001001011KA1240N+02381MA1999999098271MD1999999-0121REMSYN076AAXX  12124 82986 32598 20503 10291 20181 39827 40106 81101 333 20238 59012;EQDQ01  00002PRCP06
0167829860999992005011218004-09400-038217FM-12+0252SBUF V0203201N001510450019N0200001N1+03711+01551100541ADDAA106000091GF106991021011008001031081MA1999999097761MD1999999-0141REMSYN070AAXX  12184 82986 32598 63203 10371 20155 39776 40054 82138 333 59014;EQDQ01  00002PRCP06
0208829860999992005011300004-09400-038217FM-12+0252SBUF V0201401N005712200019N0020001N1+03261+01721100681ADDAA106000091GA1001+999999999GF100991001001999999001001KA1240M+03741MA1999999097911MD1999999-0181REMSYN082AAXX  13004 82986 32995 01411 10326 20172 39791 40068 333 10374 29040 55108 59018;EQDQ01  00002PRCP06
0214829860999992005011312004-09400-038217FM-12+0252SBUF V0203201N001511050019N0100001N1+02941+02031100961ADDAA106000091AY141061AY211061GF106991011011008001001081KA1240N+02531MA1999999098181MD1999999-0091MW1051REMSYN082AAXX  13124 82986 31597 63203 10294 20203 39818 40096 70541 81108 333 20253 59009;EQDQ01  00002PRCP06
0167829860999992005011318004-09400-038217FM-12+0252SBUF V0203201N001011050019N0200001N1+03631+01641100481ADDAA106000091GF106991031021008001001081MA1999999097721MD1999999-0041REMSYN070AAXX  13184 82986 32598 63202 10363 20164 39772 40048 83208 333 59004;EQDQ01  00002PRCP06
0202829860999992005011400004-09400-038217FM-12+0252SBUF V0202301N002610012019N0020001N1+02421+02211101171ADDAY121061AY221061GF108991081091001501999999KA1240M+03651MA1999999098341MD1999999+0431MW1611REMSYN100AAXX  14004 82986 21295 82305 10242 20221 39834 40117 76122 889// 333 10365 29066 55070 58043 60201;
0190829860999992005011412004-09400-038217FM-12+0252SBUF V0200501N000510450019N0100001N1+02561+02081101131ADDAY161061AY221061GF108991041071002501071999KA1240N+02321MA1999999098281MD1999999+0101MW1031REMSYN088AAXX  14124 82986 21397 80501 10256 20208 39828 40113 70362 8477/ 333 20232 58010 60034;
0167829860999992005011418004-09400-038217FM-12+0252SBUF V0201801N002110450019N0200001N1+03201+02091100651ADDAA106000091GF105991031021008001031011MA1999999097851MD1999999+0131REMSYN070AAXX  14184 82986 32598 51804 10320 20209 39785 40065 83231 333 58013;EQDQ01  00002PRCP06
0202829860999992005011500004-09400-038217FM-12+0252SBUF V0201801N001510021019N0020001N1+02391+02151101151ADDAY161061AY261061GF108991081061002501999999KA1240M+03231MA1999999098301MD1999999-0041MW1211REMSYN100AAXX  15004 82986 21395 81803 10239 20215 39830 40115 72166 886// 333 10323 29075 55033 59004 60051;
0190829860999992005011512004-09400-038217FM-12+0252SBUF V0201801N001010450019N0100001N1+02561+02271101101ADDAY161061AY221061GF106991031061002501011001KA1240N+02301MA1999999098251MD1999999-0031MW1011REMSYN088AAXX  15124 82986 21397 61802 10256 20227 39825 40110 70162 83610 333 20230 59003 60064;
0167829860999992005011518004-09400-038217FM-12+0252SBUF V0200901N001512200019N0200001N1+03321+01821100591ADDAA106000091GF104991021011008001051021MA1999999097801MD1999999-0051REMSYN070AAXX  15184 82986 32598 40903 10332 20182 39780 40059 82152 333 59005;EQDQ01  00002PRCP06
0186829860999992005011612004-09400-038217FM-12+0252SBUF V0200901N002110450019N0100001N1+02721+02081101041ADDAA106000091GF106991031021004501051081KA1240N+02401MA1999999098231MD1999999-0021REMSYN076AAXX  16124 82986 32497 60904 10272 20208 39823 40104 83258 333 20240 59002;EQDQ01  00002PRCP06
0167829860999992005011618004-09400-038217FM-12+0252SBUF V0201401N003611050019N0200001N1+03221+01971100611ADDAA106000091GF106991021011008001051061MA1999999097811MD1999999+0011REMSYN070AAXX  16184 82986 32598 61407 10322 20197 39781 40061 82156 333 58001;EQDQ01  00002PRCP06
0179829860999992005011700004-09400-038220FM-12+0253SBUF V0200901N005112200019N0020001N1+02801+01901100721ADDAA106000091GF100991001001999999001001MA1999999097911MD1999999-0151REMSYN082AAXX  17004 82986 32995 00910 10280 20190 39791 40072 333 10327 29057 55048 59015;EQDQ01  00002PRCP06
0173829860999992005011712004-09400-038220FM-12+0253SBUF V0200901N001510075019N0100001N1+02711+02081100971ADDAA106000091GF105991051021008001001001MA1999999098151MD1999999-0081REMSYN076AAXX  17124 82986 32597 50903 10271 20208 39815 40097 85200 333 20230 59008;EQDQ01  00002PRCP06
0167829860999992005011718004-09400-038220FM-12+0253SBUF V0201401N003112200019N0200001N1+03441+01841100591ADDAA106000091GF104991031011008001001091MA1999999097811MD1999999+0001REMSYN070AAXX  17184 82986 32598 41406 10344 20184 39781 40059 83109 333 58000;EQDQ01  00002PRCP06
0208829860999992005011800004-09400-038217FM-12+0252SBUF V0200901N006212200019N0020001N1+02901+01841100891ADDAA106000091GA1001+999999999GF100991001001999999001001KA1240M+03471MA1999999098081MD1999999+0171REMSYN082AAXX  18004 82986 32995 00912 10290 20184 39808 40089 333 10347 29054 55101 58017;EQDQ01  00002PRCP06
0214829860999992005011812004-09400-038217FM-12+0252SBUF V0200901N002612200019N0100001N1+02761+02021100991ADDAA106000091AY141061AY201061GF102991021011008001001001KA1240N+02341MA1999999098181MD1999999+0031MW1051REMSYN082AAXX  18124 82986 31597 20905 10276 20202 39818 40099 70540 82100 333 20234 58003;EQDQ01  00002PRCP06
0167829860999992005011818004-09400-038217FM-12+0252SBUF V0201401N003110042019N0200001N1+03311+01681100621ADDAA106000091GF106991061051004501001001MA1999999097821MD1999999+0011REMSYN070AAXX  18184 82986 32498 61406 10331 20168 39782 40062 86500 333 58001;EQDQ01  00002PRCP06
0208829860999992005011900004-09400-038217FM-12+0252SBUF V0201401N005112200019N0020001N1+02901+01991100871ADDAA106000091GA1001+999999999GF100991001001999999001001KA1240M+03391MA1999999098071MD1999999-0011REMSYN082AAXX  19004 82986 32995 01410 10290 20199 39807 40087 333 10339 29054 55094 59001;EQDQ01  00002PRCP06
0230829860999992005011912004-09400-038217FM-12+0252SBUF V0200901N003612200019N0100001N1+02821+02021101101ADDAA106000091AY141061AY221061GF104991999011008001001001KA1240N+02381MA1999999098291MD1999999+0111MW1051REMSYN082AAXX  19124 82986 31597 40907 10282 20202 39829 40110 70542 83100 333 20238 58011;EQDQ01+000032SCOTLCQ02  00002PRCP06
0167829860999992005011918004-09400-038217FM-12+0252SBUF V0201401N003612200019N0200001N1+03481+01751100621ADDAA106000091GF104991031021008001001011MA1999999097841MD1999999+0021REMSYN070AAXX  19184 82986 32598 41407 10348 20175 39784 40062 83201 333 58002;EQDQ01  00002PRCP06
0202829860999992005012000004-09400-038217FM-12+0252SBUF V0200901N002110021019N0020001N1+02351+02071101071ADDAY161061AY221061GF106991061071002501001001KA1240M+03501MA1999999098231MD1999999+0161MW1131REMSYN100AAXX  20004 82986 21395 60904 10235 20207 39823 40107 71362 86700 333 10350 29067 55103 58016 60041;
0162829860999992005012012004-09400-038217FM-12+0252SBUF V0200501N001012200019N0100001N1+02741+02121101231ADDGF102991011011008001041001KA1240N+02281MA1999999098381MD1999999+0091REMSYN082AAXX  20124 82986 22597 20502 10274 20212 39838 40123 81140 333 20228 58009 60044;
0167829860999992005012018004-09400-038217FM-12+0252SBUF V0200901N001512200019N0200001N1+03491+01751100681ADDAA106000091GF103991031021008001001001MA1999999097891MD1999999+0051REMSYN070AAXX  20184 82986 32598 30903 10349 20175 39789 40068 83200 333 58005;EQDQ01  00002PRCP06
0221829860999992005012100004-09400-038217FM-12+0252SBUF V0200101N046320090019N0020001N1+02411+01991101081ADDAY161061AY221061GF108991081081004501999999KA1240M+03541MA1999999098241MD1999999+0011MW1201REMSYN100AAXX  21004 82986 21495 80190 10241 20199 39824 40108 72062 888// 333 10354 29065 55111 58001 69981;EQDQ01+004633WOSPD 
0190829860999992005012112004-09400-038217FM-12+0252SBUF V0200501N002110450019N0100001N1+02661+02221101341ADDAY121061AY221061GF106991031071002501051081KA1240N+02341MA1999999098491MD1999999+0111MW1051REMSYN088AAXX  21124 82986 21397 60504 10266 20222 39849 40134 70522 83758 333 20234 58011 60014;
0167829860999992005012118004-09400-038217FM-12+0252SBUF V0200901N002110450019N0200001N1+03481+01841100851ADDAA106000091GF105991031021008001051021MA1999999098061MD1999999+0171REMSYN070AAXX  21184 82986 32598 50904 10348 20184 39806 40085 83252 333 58017;EQDQ01  00002PRCP06
0198829860999992005012200004-09400-038217FM-12+0252SBUF V0200901N005112200019N0020001N1+02971+02181101021ADDAA106000091GF104991041001017501051001KA1240M+03491MA1999999098211MD1999999-0031REMSYN088AAXX  22004 82986 32795 40910 10297 20218 39821 40102 84050 333 10349 29060 55087 59003;EQDQ01  00002PRCP06
0214829860999992005012212004-09400-038217FM-12+0252SBUF V0200501N001510450019N0100001N1+02751+02121101311ADDAA106000091AY141061AY211061GF106991031071008001051001KA1240N+02481MA1999999098491MD1999999+0001MW1051REMSYN082AAXX  22124 82986 31597 60503 10275 20212 39849 40131 70541 83750 333 20248 58000;EQDQ01  00002PRCP06
0167829860999992005012218004-09400-038217FM-12+0252SBUF V0201401N003612200019N0200001N1+03501+01901100791ADDAA106000091GF104991041021008001001001MA1999999098011MD1999999-0051REMSYN070AAXX  22184 82986 32598 41407 10350 20190 39801 40079 84200 333 59005;EQDQ01  00002PRCP06
0173829860999992005012312004-09400-038220FM-12+0253SBUF V0200901N002112200019N0100001N1+02761+02021101261ADDAA106000091GF104991021011008001001021MA1999999098451MD1999999-0041REMSYN076AAXX  23124 82986 32597 40904 10276 20202 39845 40126 82102 333 20231 59004;EQDQ01  00002PRCP06
0167829860999992005012318004-09400-038220FM-12+0253SBUF V0201401N003112200019N0200001N1+03501+01861100671ADDAA106000091GF104991021011008001001061MA1999999097881MD1999999-0131REMSYN070AAXX  23184 82986 32598 41406 10350 20186 39788 40067 82106 333 59013;EQDQ01  00002PRCP06
0173829860999992005012412004-09400-038220FM-12+0253SBUF V0201401N001512200019N0100001N1+02861+01901101161ADDAA106000091GF103991021001017501081051MA1999999098361MD1999999-0091REMSYN076AAXX  24124 82986 32797 31403 10286 20190 39836 40116 82085 333 20242 59009;EQDQ01  00002PRCP06
0167829860999992005012418004-09400-038220FM-12+0253SBUF V0200501N001511050019N0200001N1+03491+01661100621ADDAA106000091GF106991021021008001001081MA1999999097841MD1999999-0041REMSYN070AAXX  24184 82986 32598 60503 10349 20166 39784 40062 82208 333 59004;EQDQ01  00002PRCP06
0186829860999992005012512004-09400-038217FM-12+0252SBUF V0203201N001512200019N0100001N1+02911+02041101061ADDAA106000091GF102991011011012501001041KA1240N+02401MA1999999098271MD1999999-0091REMSYN076AAXX  25124 82986 32697 23203 10291 20204 39827 40106 81104 333 20240 59009;EQDQ01  00002PRCP06
0167829860999992005012518004-09400-038217FM-12+0252SBUF V0200501N003112200019N0200001N1+03701+01711100521ADDAA106000091GF103991021021008001001021MA1999999097751MD1999999-0091REMSYN070AAXX  25184 82986 32598 30506 10370 20171 39775 40052 82202 333 59009;EQDQ01  00002PRCP06
0214829860999992005012600004-09400-038217FM-12+0252SBUF V0200901N006212200019N0020001N1+03081+02071100851ADDAA106000091GF101991999001022501051001KA1240M+03751MA1999999098061MD1999999-0011REMSYN088AAXX  26004 82986 32895 10912 10308 20207 39806 40085 80050 333 10375 29050 55109 59001;EQDQ01+000002SCOTLCQ02  00002PRCP06
0186829860999992005012612004-09400-038217FM-12+0252SBUF V0203201N004611050019N0200001N1+03041+02151101191ADDAA106000091GF105991031021008001001021KA1240N+02651MA1999999098401MD1999999+0131REMSYN076AAXX  26124 82986 32598 53209 10304 20215 39840 40119 83202 333 20265 58013;EQDQ01  00002PRCP06
0167829860999992005012618004-09400-038217FM-12+0252SBUF V0203601N003112200019N0200001N1+03491+02181100721ADDAA106000091GF105991031021008001001061MA1999999097951MD1999999+0201REMSYN070AAXX  26184 82986 32598 53606 10349 20218 39795 40072 83206 333 58020;EQDQ01  00002PRCP06
0198829860999992005012700004-09400-038217FM-12+0252SBUF V0203601N001012200019N0020001N1+02881+02281101001ADDAA106000091GF104991031001008001051011KA1240M+03531MA1999999098201MD1999999+0141REMSYN088AAXX  27004 82986 32595 43602 10288 20228 39820 40100 83051 333 10353 29062 55089 58014;EQDQ01  00002PRCP06
0190829860999992005012712004-09400-038217FM-12+0252SBUF V0203601N002112200019N0100001N1+02881+02211101191ADDAY161061AY221061GF102991011011008001001011KA1240N+02591MA1999999098381MD1999999-0021MW1051REMSYN088AAXX  27124 82986 21597 23604 10288 20221 39838 40119 70562 81101 333 20259 59002 69944;
0167829860999992005012718004-09400-038217FM-12+0252SBUF V0203201N001012200019N0200001N1+03661+02001100611ADDAA106000091GF104991031021008001001051MA1999999097851MD1999999-0101REMSYN070AAXX  27184 82986 32598 43202 10366 20200 39785 40061 83205 333 59010;EQDQ01  00002PRCP06
0202829860999992005012800004-09400-038217FM-12+0252SBUF V0202301N001510450019N0020001N1+02321+02051101241ADDAY161061AY251061GF108991041011004501081071KA1240M+03711MA1999999098401MD1999999+0201MW1131REMSYN100AAXX  28004 82986 21495 82303 10232 20205 39840 40124 71365 84187 333 10371 29069 55089 58020 60031;
0190829860999992005012812004-09400-038217FM-12+0252SBUF V0200901N001511050019N0100001N1+02711+02081101291ADDAY141061AY211061GF106991021021008001001051KA1240N+02281MA1999999098431MD1999999+0051MW1051REMSYN088AAXX  28124 82986 21597 60903 10271 20208 39843 40129 70541 82205 333 20228 58005 60034;
0167829860999992005012818004-09400-038217FM-12+0252SBUF V0201401N004611050019N0100001N1+03411+01721100731ADDAA106000091GF106991031021004501001081MA1999999097941MD1999999+0091REMSYN070AAXX  28184 82986 32497 61409 10341 20172 39794 40073 83208 333 58009;EQDQ01  00002PRCP06
0162829860999992005012912004-09400-038217FM-12+0252SBUF V0202701N001510450019N0100001N1+02661+02111100961ADDGF106991021021008001051011KA1240N+02341MA1999999098141MD1999999-0291REMSYN082AAXX  29124 82986 22597 62703 10266 20211 39814 40096 82251 333 20234 59029 60054;
0167829860999992005012918004-09400-038217FM-12+0252SBUF V0201401N001010075019N0200001N1+03391+01711100521ADDAA106000091GF106991061021008001001001MA1999999097731MD1999999-0211REMSYN070AAXX  29184 82986 32598 61402 10339 20171 39773 40052 86200 333 59021;EQDQ01  00002PRCP06
0173829860999992005013012004-09400-038220FM-12+0253SBUF V0203201N001512200019N0100001N1+02741+01891100981ADDAA106000091GF106991041001017501051011MA1999999098171MD1999999+0031REMSYN076AAXX  30124 82986 32797 63203 10274 20189 39817 40098 84051 333 20236 58003;EQDQ01  00002PRCP06
0167829860999992005013018004-09400-038220FM-12+0253SBUF V0200501N002610450019N0200001N1+03431+01611100651ADDAA106000091GF105991031021008001031011MA1999999097681MD1999999-0051REMSYN070AAXX  30184 82986 32598 50505 10343 20161 39768 40065 83231 333 59005;EQDQ01  00002PRCP06
0208829860999992005013100004-09400-038217FM-12+0252SBUF V0200901N008212200019N0020001N1+02971+01981100701ADDAA106000091GA1001+999999999GF100991001001999999001001KA1240M+03541MA1999999097901MD1999999-0011REMSYN082AAXX  31004 82986 32995 00916 10297 20198 39790 40070 333 10354 29051 55091 59001;EQDQ01  00002PRCP06
0224829860999992005013112004-09400-038217FM-12+0252SBUF V0200901N002612200019N0100001N1+02841+01701100961ADDAA106000091AY141061AY201061GA1001+999999999GF100991001001999999001001KA1240N+02361MA1999999098161MD1999999-0011MW1051REMSYN076AAXX  31124 82986 31997 00905 10284 20170 39816 40096 70540 333 20236 59001;EQDQ01  00002PRCP06
0167829860999992005013118004-09400-038217FM-12+0252SBUF V0201401N003112200019N0200001N1+03551+01521100491ADDAA106000091GF102991021011008001001001MA1999999097711MD1999999+0031REMSYN070AAXX  31184 82986 32598 21406 10355 20152 39771 40049 82100 333 58003;EQDQ01  00002PRCP06
0208829860999992005020100004-09400-038217FM-12+0252SBUF V0200901N008212200019N0020001N1+03001+02031100681ADDAA106000091GA1001+999999999GF100991001001999999001001KA1240M+03581MA1999999097901MD1999999+0001REMSYN082AAXX  01004 82986 32995 00916 10300 20203 39790 40068 333 10358 29048 55111 58000;EQDQ01  00002PRCP06
0186829860999992005020112004-09400-038217FM-12+0252SBUF V0200901N003112200019N0200001N1+02771+01891100961ADDAA106000091GF102991021001022501061001KA1240N+02321MA1999999098161MD1999999+0001REMSYN076AAXX  01124 82986 32898 20906 10277 20189 39816 40096 82060 333 20232 58000;EQDQ01  00002PRCP06
0167829860999992005020118004-09400-038217FM-12+0252SBUF V0200901N003110450019N0200001N1+03591+01501100521ADDAA106000091GF105991031021008001061001MA1999999097741MD1999999+0031REMSYN070AAXX  01184 82986 32598 50906 10359 20150 39774 40052 83260 333 58003;EQDQ01  00002PRCP06
0208829860999992005020200004-09400-038217FM-12+0252SBUF V0200901N004612200019N0020001N1+02981+01791100731ADDAA106000091GA1001+999999999GF100991001001999999001001KA1240M+03601MA1999999097941MD1999999+0041REMSYN082AAXX  02004 82986 32995 00909 10298 20179 39794 40073 333 10360 29046 55108 58004;EQDQ01  00002PRCP06
0186829860999992005020212004-09400-038217FM-12+0252SBUF V0200901N006210450019N0100001N1+02721+02051101101ADDAA106000091GF106991021021008001071081KA1240N+02381MA1999999098191MD1999999+0031REMSYN076AAXX  02124 82986 32597 60912 10272 20205 39819 40110 82278 333 20238 58003;EQDQ01  00002PRCP06
0167829860999992005020218004-09400-038217FM-12+0252SBUF V0200901N005110450019N0200001N1+03241+01931100711ADDAA106000091GF106991031031008001051001MA1999999097911MD1999999+0171REMSYN070AAXX  02184 82986 32598 60910 10324 20193 39791 40071 83350 333 58017;EQDQ01  00002PRCP06
0208829860999992005020300004-09400-038217FM-12+0252SBUF V0200901N003112200019N0020001N1+02881+02031100921ADDAA106000091GA1001+999999999GF100991001001999999001001KA1240M+03291MA1999999098111MD1999999+0171REMSYN082AAXX  03004 82986 32995 00906 10288 20203 39811 40092 333 10329 29058 55033 58017;EQDQ01  00002PRCP06
0186829860999992005020312004-09400-038217FM-12+0252SBUF V0200901N003610075019N0100001N1+02881+02101101131ADDAA106000091GF106991051021008001001011KA1240N+02511MA1999999098331MD1999999+0141REMSYN076AAXX  03124 82986 32597 60907 10288 20210 39833 40113 85201 333 20251 58014;EQDQ01  00002PRCP06
0167829860999992005020318004-09400-038217FM-12+0252SBUF V0200901N003610120019N0200001N1+03471+01731100751ADDAA106000091GF106991061021012501001001MA1999999097971MD1999999+0061REMSYN070AAXX  03184 82986 32698 60907 10347 20173 39797 40075 86200 333 58006;EQDQ01  00002PRCP06
0208829860999992005020400004-09400-038217FM-12+0252SBUF V0200901N007212200019N0020001N1+02881+02001101081ADDAA106000091GA1001+999999999GF100991001001999999001001KA1240M+03571MA1999999098281MD1999999+0171REMSYN082AAXX  04004 82986 32995 00914 10288 20200 39828 40108 333 10357 29054 55099 58017;EQDQ01  00002PRCP06
0186829860999992005020412004-09400-038217FM-12+0252SBUF V0200901N003110075019N0100001N1+02781+02061101361ADDAA106000091GF106991051021008001001021KA1240N+02371MA1999999098541MD1999999+0211REMSYN076AAXX  04124 82986 32597 60906 10278 20206 39854 40136 85202 333 20237 58021;EQDQ01  00002PRCP06
0167829860999992005020418004-09400-038217FM-12+0252SBUF V0200901N004110075019N0200001N1+03531+01451100881ADDAA106000091GF106991061021008001001001MA1999999098091MD1999999+0121REMSYN070AAXX  04184 82986 32598 60908 10353 20145 39809 40088 86200 333 58012;EQDQ01  00002PRCP06
0208829860999992005020500004-09400-038217FM-12+0252SBUF V0201401N008212200019N0020001N1+02881+01891101221ADDAA106000091GA1001+999999999GF100991001001999999001001KA1240M+03561MA1999999098401MD1999999+0121REMSYN082AAXX  05004 82986 32995 01416 10288 20189 39840 40122 333 10356 29051 55105 58012;EQDQ01  00002PRCP06
0120829860999992005020511004-09400-038217FM-15+0252SBUF V0201501N00461005101CN0112651N1+02701+02201999999ADDGA1075+005101999GF107991999999999999999999MA1101591999999MW1001REMMET045SBUF 051100Z 15009KT 9999 BKN017 27/22 Q1016;
0186829860999992005020512004-09400-038217FM-12+0252SBUF V0201401N004110075019N0100001N1+02781+02041101411ADDAA106000091GF106991061021008001001001KA1240N+02301MA1999999098591MD1999999+0051REMSYN076AAXX  05124 82986 32597 61408 10278 20204 39859 40141 86200 333 20230 58005;EQDQ01  00002PRCP06
0167829860999992005020518004-09400-038217FM-12+0252SBUF V0200901N003112200019N0200001N1+03451+01671100931ADDAA106000091GF103991031021008001001001MA1999999098141MD1999999+0051REMSYN070AAXX  05184 82986 32598 30906 10345 20167 39814 40093 83200 333 58005;EQDQ01  00002PRCP06
0179829860999992005020600004-09400-038220FM-12+0253SBUF V0200901N005712200019N0020001N1+02951+01941101161ADDAA106000091GF100991001001999999001001MA1999999098351MD1999999-0051REMSYN082AAXX  06004 82986 32995 00911 10295 20194 39835 40116 333 10356 29052 55098 59005;EQDQ01  00002PRCP06
0173829860999992005020612004-09400-038220FM-12+0253SBUF V0201401N004110075019N0100001N1+02811+01981101291ADDAA106000091GF106991051021008001081001MA1999999098481MD1999999-0111REMSYN076AAXX  06124 82986 32597 61408 10281 20198 39848 40129 85280 333 20244 59011;EQDQ01  00002PRCP06
0167829860999992005020618004-09400-038220FM-12+0253SBUF V0201401N003112200019N0200001N1+03611+01411100771ADDAA106000091GF102991021011008001001001MA1999999097991MD1999999-0151REMSYN070AAXX  06184 82986 32598 21406 10361 20141 39799 40077 82100 333 59015;EQDQ01  00002PRCP06
0186829860999992005020712004-09400-038217FM-12+0252SBUF V0200901N003110450019N0100001N1+02661+01951101201ADDAA106000091GF106991041021008001031011KA1240N+02341MA1999999098381MD1999999-0101REMSYN076AAXX  07124 82986 32597 60906 10266 20195 39838 40120 84231 333 20234 59010;EQDQ01  00002PRCP06
0167829860999992005020718004-09400-038217FM-12+0252SBUF V0200901N004612200019N0200001N1+03471+01731100711ADDAA106000091GF105991041021008001001011MA1999999097921MD1999999-0071REMSYN070AAXX  07184 82986 32598 50909 10347 20173 39792 40071 84201 333 59007;EQDQ01  00002PRCP06
0186829860999992005020812004-09400-038217FM-12+0252SBUF V0200901N006210075019N0100001N1+02841+02091101111ADDAA106000091GF106991061021008001001001KA1240N+02401MA1999999098301MD1999999-0081REMSYN076AAXX  08124 82986 32597 60912 10284 20209 39830 40111 86200 333 20240 59008;EQDQ01  00002PRCP06
0167829860999992005020818004-09400-038217FM-12+0252SBUF V0200901N005112200019N0200001N1+03501+01631100641ADDAA106000091GF104991021021008001041011MA1999999097861MD1999999-0061REMSYN070AAXX  08184 82986 32598 40910 10350 20163 39786 40064 82241 333 59006;EQDQ01  00002PRCP06
0186829860999992005020912004-09400-038217FM-12+0252SBUF V0201401N003110450019N0100001N1+02731+02001101131ADDAA106000091GF106991031021008001061001KA1240N+02301MA1999999098321MD1999999+0021REMSYN076AAXX  09124 82986 32597 61406 10273 20200 39832 40113 83260 333 20230 58002;EQDQ01  00002PRCP06
0167829860999992005020918004-09400-038217FM-12+0252SBUF V0201801N003610075019N0200001N1+03491+01791100561ADDAA106000091GF105991051021008001001001MA1999999097781MD1999999-0081REMSYN070AAXX  09184 82986 32598 51807 10349 20179 39778 40056 85200 333 59008;EQDQ01  00002PRCP06
0208829860999992005021000004-09400-038217FM-12+0252SBUF V0201401N006712200019N0020001N1+02721+02051100941ADDAA106000091GA1001+999999999GF100991001001999999001001KA1240M+03521MA1999999098121MD1999999-0061REMSYN082AAXX  10004 82986 32995 01413 10272 20205 39812 40094 333 10352 29059 55095 59006;EQDQ01  00002PRCP06
0186829860999992005021012004-09400-038217FM-12+0252SBUF V0200901N003110042019N0100001N1+02701+02081101041ADDAA106000091GF107991071071004501001001KA1240N+02421MA1999999098211MD1999999-0111REMSYN076AAXX  10124 82986 32497 70906 10270 20208 39821 40104 87700 333 20242 59011;EQDQ01  00002PRCP06
0195829860999992005021018004-09400-038217FM-12+0252SBUF V0202301N003110042019N0200001N1+03371+01931100571ADDAA106000091AY121061AY221061GF106991061021004501001001MA1999999097791MD1999999+0011MW1151REMSYN076AAXX  10184 82986 31498 62306 10337 20193 39779 40057 71522 86200 333 58001;EQDQ01  00002PRCP06
0226829860999992005021100004-09400-038217FM-12+0252SBUF V0201401N005712200019N0020001N1+02761+02041100891ADDAA106000091AY111061AY211061GF103991031051008001001001KA1240M+03441MA1999999098071MD1999999-0051MW1131REMSYN094AAXX  11004 82986 31595 31411 10276 20204 39807 40089 71311 83500 333 10344 29060 55073 59005;EQDQ01  00002PRCP06
0186829860999992005021112004-09400-038217FM-12+0252SBUF V0201401N003110075019N0200001N1+02881+02081101011ADDAA106000091GF106991051011008001001011KA1240N+02361MA1999999098201MD1999999-0011REMSYN076AAXX  11124 82986 32598 61406 10288 20208 39820 40101 85101 333 20236 59001;EQDQ01  00002PRCP06
0167829860999992005021118004-09400-038217FM-12+0252SBUF V0200901N006212200019N0200001N1+03541+01801100491ADDAA106000091GF105991041021008001001011MA1999999097711MD1999999-0081REMSYN070AAXX  11184 82986 32598 50912 10354 20180 39771 40049 84201 333 59008;EQDQ01  00002PRCP06
0202829860999992005021200004-09400-038217FM-12+0252SBUF V0203601N003110012019N0020001N1+02381+02071101061ADDAY101061AY211061GF108991061091001501999999KA1240M+03581MA1999999098231MD1999999+0161MW1611REMSYN100AAXX  12004 82986 21295 83606 10238 20207 39823 40106 76101 869// 333 10358 29066 55109 58016 60041;
0190829860999992005021212004-09400-038217FM-12+0252SBUF V0200501N001010450019N0100001N1+02661+02091101111ADDAY191061AY261061GF106991021041008001051081KA1240N+02281MA1999999098261MD1999999+0061MW1021REMSYN088AAXX  12124 82986 21597 60502 10266 20209 39826 40111 70296 82458 333 20228 58006 60184;
0167829860999992005021218004-09400-038217FM-12+0252SBUF V0201801N001510450019N0100001N1+03181+01941100691ADDAA106000091GF107991041021008001071999MA1999999097881MD1999999+0171REMSYN070AAXX  12184 82986 32597 71803 10318 20194 39788 40069 8427/ 333 58017;EQDQ01  00002PRCP06
0185829860999992005021300004-09400-038220FM-12+0253SBUF V0209999C000012200019N0020001N1+02781+02111100921ADDAA106000091GF102991021001022501071001MA1999999098101MD1999999-0131REMSYN088AAXX  13004 82986 32895 22700 10278 20211 39810 40092 82070 333 10321 29063 55045 59013;EQDQ01  00002PRCP06
0173829860999992005021312004-09400-038220FM-12+0253SBUF V0203201N001510450019N0100001N1+02901+02101101141ADDAA106000091GF106991021011008001031081MA1999999098331MD1999999+0071REMSYN076AAXX  13124 82986 32597 63203 10290 20210 39833 40114 82138 333 20257 58007;EQDQ01  00002PRCP06
0167829860999992005021318004-09400-038220FM-12+0253SBUF V0202701N001010450019N0200001N1+03381+01981100661ADDAA106000091GF106991021031008001051081MA1999999097881MD1999999+0001REMSYN070AAXX  13184 82986 32598 62702 10338 20198 39788 40066 82358 333 58000;EQDQ01  00002PRCP06
0226829860999992005021400004-09400-038217FM-12+0252SBUF V0201801N001510120019N0020001N1+02801+02181101021ADDAA106000091AY121061AY221061GF106991061081008001001001KA1240M+03471MA1999999098211MD1999999+0111MW1131REMSYN094AAXX  14004 82986 31595 61803 10280 20218 39821 40102 71322 86800 333 10347 29061 55084 58011;EQDQ01  00002PRCP06
0190829860999992005021412004-09400-038217FM-12+0252SBUF V0203601N000511050019N0200001N1+02821+02291101041ADDAY151061AY221061GF106991021021008001051041KA1240N+02401MA1999999098231MD1999999-0101MW1051REMSYN088AAXX  14124 82986 21598 63601 10282 20229 39823 40104 70552 82254 333 20240 59010 69934;
0195829860999992005021418004-09400-038217FM-12+0252SBUF V0203601N001511050019N0200001N1+03311+02241100541ADDAA106000091AY121061AY221061GF106991021021008001051031MA1999999097751MD1999999-0131MW1151REMSYN076AAXX  14184 82986 31598 63603 10331 20224 39775 40054 71522 82253 333 59013;EQDQ01  00002PRCP06
0202829860999992005021500004-09400-038217FM-12+0252SBUF V0203201N002119999999N0020001N1+02701+02261100771ADDAY121061AY221061GF106991061001012501081001KA1240M+03401MA1999999097961MD1999999-0251MW1211REMSYN100AAXX  15004 82986 21695 63204 10270 20226 39796 40077 72122 86080 333 10340 29070 55066 59025 69941;
0190829860999992005021512004-09400-038217FM-12+0252SBUF V0209999C000010042019N0040001N1+02581+02331100951ADDAY191061AY261061GF108991081071004501999999KA1240N+02351MA1999999098121MD1999999-0111MW1031REMSYN088AAXX  15124 82986 21496 80900 10258 20233 39812 40095 70396 887// 333 20235 59011 60174;
0171829860999992005021518004-09400-038217FM-12+0252SBUF V0203601N001510042019N0100001N1+03011+02291100561ADDAY151061AY221061GF107991051021004501091001MA1999999097751MD1999999+0001MW1151REMSYN082AAXX  15184 82986 21497 73603 10301 20229 39775 40056 71552 85290 333 58000 69901;
0202829860999992005021600004-09400-038217FM-12+0252SBUF V0200901N001510120019N0020001N1+02451+02271100911ADDAY161061AY251061GF108991081081008001999999KA1240M+03051MA1999999098061MD1999999+0101MW1511REMSYN100AAXX  16004 82986 21595 80903 10245 20227 39806 40091 75165 888// 333 10305 29083 55001 58010 69991;
0190829860999992005021612004-09400-038217FM-12+0252SBUF V0203201N000510450019N0100001N1+02661+02241100961ADDAY161061AY221061GF106991031021008001051011KA1240N+02361MA1999999098121MD1999999+0001MW1021REMSYN088AAXX  16124 82986 21597 63201 10266 20224 39812 40096 70262 83251 333 20236 58000 60024;
0171829860999992005021618004-09400-038217FM-12+0252SBUF V0200901N002610021019N0040001N1+02641+02421100551ADDAY191061AY221061GF108991061091002501071999MA1999999097721MD1999999-0031MW1951REMSYN082AAXX  16184 82986 21396 80905 10264 20242 39772 40055 79592 8697/ 333 59003 60021;
0202829860999992005021700004-09400-038217FM-12+0252SBUF V0200901N003610090019N0020001N1+02421+02301101111ADDAY191061AY251061GF108991081081004501999999KA1240M+03231MA1999999098261MD1999999+0201MW1631REMSYN100AAXX  17004 82986 21495 80907 10242 20230 39826 40111 76395 888// 333 10323 29088 55050 58020 60021;
0190829860999992005021712004-09400-038217FM-12+0252SBUF V0200901N001510042019N0040001N1+02621+02311101241ADDAY161061AY251061GF107991051071004501081001KA1240N+02321MA1999999098381MD1999999+0261MW1101REMSYN088AAXX  17124 82986 21496 70903 10262 20231 39838 40124 71065 85780 333 20232 58026 60114;
0171829860999992005021718004-09400-038217FM-12+0252SBUF V0201401N002610450019N0100001N1+02521+02361100851ADDAY191061AY221061GF107991021021008001081001MA1999999098001MD1999999+0281MW1171REMSYN082AAXX  17184 82986 21597 71405 10252 20236 39800 40085 71792 82280 333 58028 60161;
0198829860999992005021800004-09400-038217FM-12+0252SBUF V0200901N006210210019N0020001N1+02741+02141101101ADDAA106000091GF105991051001022501011001KA1240M+03171MA1999999098271MD1999999+0011REMSYN088AAXX  18004 82986 32895 50912 10274 20214 39827 40110 85010 333 10317 29078 55040 58001;EQDQ01  00002PRCP06
0190829860999992005021812004-09400-038217FM-12+0252SBUF V0200901N004110075019N0100001N1+02741+02211101351ADDAY121061AY221061GF106991061021008001001001KA1240N+02231MA1999999098521MD1999999+0141MW1101REMSYN088AAXX  18124 82986 21597 60908 10274 20221 39852 40135 71022 86200 333 20223 58014 60164;
0167829860999992005021818004-09400-038217FM-12+0252SBUF V0200901N005112200019N0200001N1+03221+01911100971ADDAA106000091GF104991041021008001001001MA1999999098161MD1999999+0161REMSYN070AAXX  18184 82986 32598 40910 10322 20191 39816 40097 84200 333 58016;EQDQ01  00002PRCP06
0208829860999992005021900004-09400-038217FM-12+0252SBUF V0200901N005112200019N0020001N1+02791+02091101221ADDAA106000091GA1001+999999999GF100991001001999999001001KA1240M+03251MA1999999098391MD1999999+0121REMSYN082AAXX  19004 82986 32995 00910 10279 20209 39839 40122 333 10325 29063 55099 58012;EQDQ01  00002PRCP06
0186829860999992005021912004-09400-038217FM-12+0252SBUF V0201401N003110042019N0100001N1+02601+02171101391ADDAA106000091GF107991071071004501001001KA1240N+02261MA1999999098551MD1999999+0031REMSYN076AAXX  19124 82986 32497 71406 10260 20217 39855 40139 87700 333 20226 58003;EQDQ01  00002PRCP06
0167829860999992005021918004-09400-038217FM-12+0252SBUF V0200901N003112200019N0200001N1+03231+01691100911ADDAA106000091GF104991041021008001001001MA1999999098101MD1999999+0061REMSYN070AAXX  19184 82986 32598 40906 10323 20169 39810 40091 84200 333 58006;EQDQ01  00002PRCP06
0179829860999992005022000004-09400-038220FM-12+0253SBUF V0200901N003112200019N0020001N1+02811+01921101081ADDAA106000091GF100991001001999999001001MA1999999098251MD1999999-0141REMSYN082AAXX  20004 82986 32995 00906 10281 20192 39825 40108 333 10325 29059 55084 59014;EQDQ01  00002PRCP06
0173829860999992005022012004-09400-038220FM-12+0253SBUF V0200901N003112200019N0100001N1+02581+02151101221ADDAA106000091GF104991021011008001031011MA1999999098391MD1999999-0161REMSYN076AAXX  20124 82986 32597 40906 10258 20215 39839 40122 82131 333 20224 59016;EQDQ01  00002PRCP06
0167829860999992005022018004-09400-038220FM-12+0253SBUF V0201401N001512200019N0200001N1+03251+01581100691ADDAA106000091GF104991021011008001001031MA1999999097891MD1999999-0211REMSYN070AAXX  20184 82986 32598 41403 10325 20158 39789 40069 82103 333 59021;EQDQ01  00002PRCP06
0198829860999992005022100004-09400-038217FM-12+0252SBUF V0202301N001012200019N0020001N1+02911+02041100881ADDAA106000091GF103991031001012501051001KA1240M+03281MA1999999098061MD1999999-0191REMSYN088AAXX  21004 82986 32695 32302 10291 20204 39806 40088 83050 333 10328 29058 55092 59019;EQDQ01  00002PRCP06
0186829860999992005022112004-09400-038217FM-12+0252SBUF V0203601N001012200019N0200001N1+02741+02171100971ADDAA106000091GF102991011001012501041011KA1240N+02341MA1999999098161MD1999999-0231REMSYN076AAXX  21124 82986 32698 23602 10274 20217 39816 40097 81041 333 20234 59023;EQDQ01  00002PRCP06
0167829860999992005022118004-09400-038217FM-12+0252SBUF V0203201N001012200019N0200001N1+03441+02001100471ADDAA106000091GF104991031011008001001031MA1999999097681MD1999999-0211REMSYN070AAXX  21184 82986 32598 43202 10344 20200 39768 40047 83103 333 59021;EQDQ01  00002PRCP06
0214829860999992005022200004-09400-038217FM-12+0252SBUF V0201801N003119999999N0020001N1+02921+02061100811ADDAA106000091GF106991001001999999001081KA1240M+03481MA1999999098011MD1999999-0051REMSYN088AAXX  22004 82986 32995 61806 10292 20206 39801 40081 86008 333 10348 29058 55108 59005;EQDQ01+000062SCOTLCQ02  00002PRCP06
0186829860999992005022212004-09400-038217FM-12+0252SBUF V0200901N001510450019N0100001N1+02641+01931101121ADDAA106000091GF106991031051008001071001KA1240N+02541MA1999999098301MD1999999+0141REMSYN076AAXX  22124 82986 32597 60903 10264 20193 39830 40112 83570 333 20254 58014;EQDQ01  00002PRCP06
0167829860999992005022218004-09400-038217FM-12+0252SBUF V0201401N003110450019N0200001N1+03241+02061100751ADDAA106000091GF107991021021008001031081MA1999999097951MD1999999+0271REMSYN070AAXX  22184 82986 32598 71406 10324 20206 39795 40075 82238 333 58027;EQDQ01  00002PRCP06
0198829860999992005022300004-09400-038217FM-12+0252SBUF V0201401N002110150019N0020001N1+02881+02131101091ADDAA106000091GF107991071001017501021001KA1240M+03271MA1999999098271MD1999999+0261REMSYN088AAXX  23004 82986 32795 71404 10288 20213 39827 40109 87020 333 10327 29061 55021 58026;EQDQ01  00002PRCP06
0214829860999992005022312004-09400-038217FM-12+0252SBUF V0200901N003110450019N0040001N1+02761+02251101311ADDAA106000091AY121061AY221061GF107991031081004501021001KA1240N+02551MA1999999098491MD1999999+0191MW1101REMSYN082AAXX  23124 82986 31496 70906 10276 20225 39849 40131 71022 83820 333 20255 58019;EQDQ01  00002PRCP06
0167829860999992005022318004-09400-038217FM-12+0252SBUF V0200501N002610450019N0100001N1+03291+01931100881ADDAA106000091GF106991021041004501031081MA1999999098091MD1999999+0141REMSYN070AAXX  23184 82986 32497 60505 10329 20193 39809 40088 82438 333 58014;EQDQ01  00002PRCP06
0198829860999992005022400004-09400-038217FM-12+0252SBUF V0201401N004612200019N0020001N1+02871+02161101211ADDAA106000091GF106991021001022501051061KA1240M+03291MA1999999098391MD1999999+0121REMSYN088AAXX  24004 82986 32895 61409 10287 20216 39839 40121 82056 333 10329 29063 55020 58012;EQDQ01  00002PRCP06
0214829860999992005022412004-09400-038217FM-12+0252SBUF V0200901N003110450019N0040001N1+02721+02191101421ADDAA106000091AY121061AY221061GF107991021041004501031001KA1240N+02401MA1999999098601MD1999999+0111MW1101REMSYN082AAXX  24124 82986 31496 70906 10272 20219 39860 40142 71022 82430 333 20240 58011;EQDQ01  00002PRCP06
0167829860999992005022418004-09400-038217FM-12+0252SBUF V0200901N005111050019N0100001N1+03391+01951100941ADDAA106000091GF106991021021008001031041MA1999999098141MD1999999+0051REMSYN070AAXX  24184 82986 32597 60910 10339 20195 39814 40094 82234 333 58005;EQDQ01  00002PRCP06
0198829860999992005022500004-09400-038217FM-12+0252SBUF V0200901N006712200019N0020001N1+02931+01861101161ADDAA106000091GF104991021001022501051021KA1240M+03441MA1999999098341MD1999999-0051REMSYN088AAXX  25004 82986 32895 40913 10293 20186 39834 40116 82052 333 10344 29056 55076 59005;EQDQ01  00002PRCP06
0214829860999992005022512004-09400-038217FM-12+0252SBUF V0200901N003111050019N0200001N1+02751+02171101371ADDAA106000091AY121061AY221061GF106991021041004501031041KA1240N+02331MA1999999098551MD1999999-0051MW1101REMSYN082AAXX  25124 82986 31498 60906 10275 20217 39855 40137 71022 82434 333 20233 59005;EQDQ01  00002PRCP06
0167829860999992005022518004-09400-038217FM-12+0252SBUF V0200901N004611050019N0200001N1+03351+01981100891ADDAA106000091GF106991021031004501051041MA1999999098091MD1999999-0051REMSYN070AAXX  25184 82986 32498 60909 10335 20198 39809 40089 82354 333 59005;EQDQ01  00002PRCP06
0190829860999992005022612004-09400-038217FM-12+0252SBUF V0200901N004110075019N0200001N1+02751+02211101211ADDAY191061AY221061GF106991061021008001001001KA1240N+02461MA1999999098381MD1999999-0171MW1011REMSYN088AAXX  26124 82986 21598 60908 10275 20221 39838 40121 70192 86200 333 20246 59017 60094;
0167829860999992005022618004-09400-038217FM-12+0252SBUF V0200901N001512200019N0200001N1+03411+02001100821ADDAA106000091GF103991031021008001001001MA1999999098031MD1999999-0061REMSYN070AAXX  26184 82986 32598 30903 10341 20200 39803 40082 83200 333 59006;EQDQ01  00002PRCP06
0167829860999992005022718004-09400-038220FM-12+0253SBUF V0200901N002612200019N0200001N1+03511+01901100781ADDAA106000091GF101991011011008001001001MA1999999097991MD1999999-0041REMSYN070AAXX  27184 82986 32598 10905 10351 20190 39799 40078 81100 333 59004;EQDQ01  00002PRCP06
0208829860999992005022800004-09400-038217FM-12+0252SBUF V0200901N006712200019N0020001N1+03001+02051100981ADDAA106000091GA1001+999999999GF100991001001999999001001KA1240M+03541MA1999999098171MD1999999-0041REMSYN082AAXX  28004 82986 32995 00913 10300 20205 39817 40098 333 10354 29056 55110 59004;EQDQ01  00002PRCP06
0186829860999992005022812004-09400-038217FM-12+0252SBUF V0200901N001511050019N0200001N1+02801+02111101341ADDAA106000091GF105991031011008001001051KA1240N+02401MA1999999098531MD1999999+0151REMSYN076AAXX  28124 82986 32598 50903 10280 20211 39853 40134 83105 333 20240 58015;EQDQ01  00002PRCP06
0167829860999992005022818004-09400-038217FM-12+0252SBUF V0200901N001512200019N0200001N1+03511+01771100821ADDAA106000091GF102991001001999999001061MA1999999098041MD1999999+0051REMSYN070AAXX  28184 82986 32998 20903 10351 20177 39804 40082 80006 333 58005;EQDQ01  00002PRCP06
0208829860999992005030100004-09400-038217FM-12+0252SBUF V0200901N005112200019N0020001N1+03061+01991100951ADDAA106000091GA1001+999999999GF100991001001999999001001KA1240M+03521MA1999999098151MD1999999-0021REMSYN082AAXX  01004 82986 32995 00910 10306 20199 39815 40095 333 10352 29052 55104 59002;EQDQ01  00002PRCP06
0224829860999992005030112004-09400-038217FM-12+0252SBUF V0200501N002112200019N0100001N1+02811+02081101211ADDAA106000091AY101061AY201061GA1001+999999999GF100991001001999999001001KA1240N+02371MA1999999098411MD1999999-0121MW1051REMSYN076AAXX  01124 82986 31997 00504 10281 20208 39841 40121 70500 333 20237 59012;EQDQ01  00002PRCP06
0167829860999992005030118004-09400-038217FM-12+0252SBUF V0200901N002612200019N0200001N1+03551+01571100751ADDAA106000091GF102991011011008001001011MA1999999097971MD1999999-0071REMSYN070AAXX  01184 82986 32598 20905 10355 20157 39797 40075 81101 333 59007;EQDQ01  00002PRCP06
0208829860999992005030200004-09400-038217FM-12+0252SBUF V0200901N006712200019N0020001N1+03061+02021100891ADDAA106000091GA1001+999999999GF100991001001999999001001KA1240M+03581MA1999999098101MD1999999-0051REMSYN082AAXX  02004 82986 32995 00913 10306 20202 39810 40089 333 10358 29051 55111 59005;EQDQ01  00002PRCP06
0214829860999992005030212004-09400-038217FM-12+0252SBUF V0200501N001512200019N0040001N1+02821+02151101201ADDAA106000091AY101061AY201061GF102991011011008001001021KA1240N+02471MA1999999098401MD1999999-0011MW1051REMSYN082AAXX  02124 82986 31596 20503 10282 20215 39840 40120 70500 81102 333 20247 59001;EQDQ01  00002PRCP06
0167829860999992005030218004-09400-038217FM-12+0252SBUF V0200501N001511050019N0200001N1+03551+01671100721ADDAA106000091GF105991021021008001001021MA1999999097941MD1999999-0031REMSYN070AAXX  02184 82986 32598 50503 10355 20167 39794 40072 82202 333 59003;EQDQ01  00002PRCP06
0208829860999992005030300004-09400-038217FM-12+0252SBUF V0200901N007712200019N0020001N1+03201+02201101041ADDAA106000091GA1001+999999999GF100991001001999999001001KA1240M+03571MA1999999098241MD1999999+0141REMSYN082AAXX  03004 82986 32995 00915 10320 20220 39824 40104 333 10357 29052 55106 58014;EQDQ01  00002PRCP06
0186829860999992005030312004-09400-038217FM-12+0252SBUF V0200901N004110450019N0100001N1+02741+02191101311ADDAA106000091GF106991041041004501031001KA1240N+02531MA1999999098501MD1999999+0101REMSYN076AAXX  03124 82986 32497 60908 10274 20219 39850 40131 84430 333 20253 58010;EQDQ01  00002PRCP06
0208829860999992005030400004-09400-038217FM-12+0252SBUF V0200901N006712200019N0020001N1+02871+02031101181ADDAA106000091GA1001+999999999GF100991001001999999001001KA1240M+03481MA1999999098361MD1999999+0121REMSYN082AAXX  04004 82986 32995 00913 10287 20203 39836 40118 333 10348 29058 55103 58012;EQDQ01  00002PRCP06
0186829860999992005030412004-09400-038217FM-12+0252SBUF V0200901N005110450019N0200001N1+02821+01941101401ADDAA106000091GF105991031041004501031001KA1240N+02421MA1999999098581MD1999999+0081REMSYN076AAXX  04124 82986 32498 50910 10282 20194 39858 40140 83430 333 20242 58008;EQDQ01  00002PRCP06
0167829860999992005030418004-09400-038217FM-12+0252SBUF V0201401N002112200019N0200001N1+03551+01851100851ADDAA106000091GF104991031041008001001021MA1999999098061MD1999999-0041REMSYN070AAXX  04184 82986 32598 41404 10355 20185 39806 40085 83402 333 59004;EQDQ01  00002PRCP06
0208829860999992005030500004-09400-038217FM-12+0252SBUF V0200901N005112200019N0020001N1+02951+02031101141ADDAA106000091GA1001+999999999GF100991001001999999001001KA1240M+03551MA1999999098341MD1999999-0021REMSYN082AAXX  05004 82986 32995 00910 10295 20203 39834 40114 333 10355 29053 55109 59002;EQDQ01  00002PRCP06
0186829860999992005030512004-09400-038217FM-12+0252SBUF V0200901N003110450019N0200001N1+02811+01981101481ADDAA106000091GF105991031011008001031021KA1240N+02361MA1999999098661MD1999999+0081REMSYN076AAXX  05124 82986 32598 50906 10281 20198 39866 40148 83132 333 20236 58008;EQDQ01  00002PRCP06
0167829860999992005030518004-09400-038217FM-12+0252SBUF V0200901N002112200019N0200001N1+03511+01771100961ADDAA106000091GF106991031011008001001061MA1999999098171MD1999999+0111REMSYN070AAXX  05184 82986 32598 60904 10351 20177 39817 40096 83106 333 58011;EQDQ01  00002PRCP06
0192829860999992005030600004-09400-038220FM-12+0253SBUF V0200901N008212200019N0020001N1+02961+01961101231ADDAA106000091GF100991001001999999001001KA1240M+03521MA1999999098421MD1999999+0081REMSYN082AAXX  06004 82986 32995 00916 10296 20196 39842 40123 333 10352 29052 55101 58008;EQDQ01  00002PRCP06
0186829860999992005030612004-09400-038220FM-12+0253SBUF V0200901N002112200019N0200001N1+02761+02141101321ADDAA106000091GF104991041011008001001001KA1240N+02341MA1999999098501MD1999999-0161REMSYN076AAXX  06124 82986 32598 40904 10276 20214 39850 40132 84100 333 20234 59016;EQDQ01  00002PRCP06
0167829860999992005030618004-09400-038220FM-12+0253SBUF V0201401N003612200019N0200001N1+03591+01551100691ADDAA106000091GF102991021011008001001001MA1999999097911MD1999999-0261REMSYN070AAXX  06184 82986 32598 21407 10359 20155 39791 40069 82100 333 59026;EQDQ01  00002PRCP06
0186829860999992005030712004-09400-038217FM-12+0252SBUF V0200901N003112200019N0100001N1+02801+01981101231ADDAA106000091GF103991011011008001001021KA1240N+02321MA1999999098421MD1999999-0081REMSYN076AAXX  07124 82986 32597 30906 10280 20198 39842 40123 81102 333 20232 59008;EQDQ01  00002PRCP06
0167829860999992005030718004-09400-038217FM-12+0252SBUF V0201401N002612200019N0200001N1+03471+01641100761ADDAA106000091GF104991031021008001001011MA1999999097971MD1999999+0061REMSYN070AAXX  07184 82986 32598 41405 10347 20164 39797 40076 83201 333 58006;EQDQ01  00002PRCP06
0208829860999992005030800004-09400-038217FM-12+0252SBUF V0200901N006712200019N0020001N1+03081+01821101061ADDAA106000091GA1001+999999999GF100991001001999999001001KA1240M+03501MA1999999098261MD1999999-0021REMSYN082AAXX  08004 82986 32995 00913 10308 20182 39826 40106 333 10350 29047 55104 59002;EQDQ01  00002PRCP06
0214829860999992005030812004-09400-038217FM-12+0252SBUF V0200901N002611050019N0100001N1+02671+02041101321ADDAA106000091AY121061AY221061GF106991011011008001001021KA1240N+02341MA1999999098511MD1999999+0091MW1051REMSYN082AAXX  08124 82986 31597 60905 10267 20204 39851 40132 70522 81102 333 20234 58009;EQDQ01  00002PRCP06
0167829860999992005030818004-09400-038217FM-12+0252SBUF V0200901N003610450019N0200001N1+03261+01911100821ADDAA106000091GF108991031021008001011081MA1999999098021MD1999999+0051REMSYN070AAXX  08184 82986 32598 80907 10326 20191 39802 40082 83218 333 58005;EQDQ01  00002PRCP06
0208829860999992005030900004-09400-038217FM-12+0252SBUF V0200901N007212200019N0020001N1+02941+01821101091ADDAA106000091GA1001+999999999GF100991001001999999001001KA1240M+03321MA1999999098271MD1999999+0011REMSYN082AAXX  09004 82986 32995 00914 10294 20182 39827 40109 333 10332 29054 55048 58001;EQDQ01  00002PRCP06
0186829860999992005030912004-09400-038217FM-12+0252SBUF V0200901N003112200019N0200001N1+02801+01951101211ADDAA106000091GF104991011001999999041041KA1240N+02321MA1999999098401MD1999999-0111REMSYN076AAXX  09124 82986 32998 40906 10280 20195 39840 40121 81044 333 20232 59011;EQDQ01  00002PRCP06
0167829860999992005030918004-09400-038217FM-12+0252SBUF V0203601N001012200019N0200001N1+03561+01681100631ADDAA106000091GF104991021021012501041011MA1999999097841MD1999999-0181REMSYN070AAXX  09184 82986 32698 43602 10356 20168 39784 40063 82241 333 59018;EQDQ01  00002PRCP06
0208829860999992005031000004-09400-038217FM-12+0252SBUF V0200901N007712200019N0020001N1+03061+01961100881ADDAA106000091GA1001+999999999GF100991001001999999001001KA1240M+03631MA1999999098091MD1999999-0181REMSYN082AAXX  10004 82986 32995 00915 10306 20196 39809 40088 333 10363 29049 55103 59018;EQDQ01  00002PRCP06
0186829860999992005031012004-09400-038217FM-12+0252SBUF V0200901N002111050019N0200001N1+02901+01961101201ADDAA106000091GF106991021011008001051061KA1240N+02511MA1999999098411MD1999999+0011REMSYN076AAXX  10124 82986 32598 60904 10290 20196 39841 40120 82156 333 20251 58001;EQDQ01  00002PRCP06
0167829860999992005031018004-09400-038217FM-12+0252SBUF V0201401N001510450019N0200001N1+03311+01871100851ADDAA106000091GF106991021021008001041081MA1999999098061MD1999999+0221REMSYN070AAXX  10184 82986 32598 61403 10331 20187 39806 40085 82248 333 58022;EQDQ01  00002PRCP06
0198829860999992005031100004-09400-038217FM-12+0252SBUF V0200901N002612200019N0020001N1+02891+02081101131ADDAA106000091GF103991031001012501031001KA1240M+03321MA1999999098331MD1999999+0241REMSYN088AAXX  11004 82986 32695 30905 10289 20208 39833 40113 83030 333 10332 29056 55030 58024;EQDQ01  00002PRCP06
0214829860999992005031112004-09400-038217FM-12+0252SBUF V0201401N001510450019N0100001N1+02861+02231101291ADDAA106000091AY141061AY211061GF106991031011008001051021KA1240N+02541MA1999999098481MD1999999+0071MW1051REMSYN082AAXX  11124 82986 31597 61403 10286 20223 39848 40129 70541 83152 333 20254 58007;EQDQ01  00002PRCP06
0167829860999992005031118004-09400-038217FM-12+0252SBUF V0201401N003610450019N0200001N1+03581+01791100791ADDAA106000091GF106991031021008001041001MA1999999098021MD1999999-0041REMSYN070AAXX  11184 82986 32598 61407 10358 20179 39802 40079 83240 333 59004;EQDQ01  00002PRCP06
0208829860999992005031200004-09400-038217FM-12+0252SBUF V0201401N003612200019N0020001N1+02961+02071101051ADDAA106000091GA1001+999999999GF100991001001999999001001KA1240M+03601MA1999999098251MD1999999-0081REMSYN082AAXX  12004 82986 32995 01407 10296 20207 39825 40105 333 10360 29056 55082 59008;EQDQ01  00002PRCP06
0186829860999992005031212004-09400-038217FM-12+0252SBUF V0203601N001512200019N0200001N1+02831+02291101241ADDAA106000091GF104991041021008001001001KA1240N+02511MA1999999098431MD1999999-0051REMSYN076AAXX  12124 82986 32598 43603 10283 20229 39843 40124 84200 333 20251 59005;EQDQ01  00002PRCP06
0167829860999992005031218004-09400-038217FM-12+0252SBUF V0203601N002112200019N0200001N1+03431+01651100671ADDAA106000091GF104991031021008001041061MA1999999097891MD1999999-0131REMSYN070AAXX  12184 82986 32598 43604 10343 20165 39789 40067 83246 333 59013;EQDQ01  00002PRCP06
0202829860999992005031300004-09400-038220FM-12+0253SBUF V0201401N002610042019N0020001N1+02451+02281101071ADDAY191061AY261061GF108991081091004501999999KA1240M+03481MA1999999098241MD1999999-0011MW1961REMSYN100AAXX  13004 82986 21495 81405 10245 20228 39824 40107 79696 889// 333 10348 29072 55096 59001 60231;
0190829860999992005031312004-09400-038220FM-12+0253SBUF V0200901N002610450019N0100001N1+02831+02171101231ADDAY191061AY221061GF106991031041008001041051KA1240N+02401MA1999999098391MD1999999-0041MW1101REMSYN088AAXX  13124 82986 21597 60905 10283 20217 39839 40123 71092 83445 333 20240 59004 60244;
0171829860999992005031318004-09400-038220FM-12+0253SBUF V0202301N004610021019N0020001N1+02481+02071100891ADDAY121061AY221061GF108991051041002501071999MA1999999098051MD1999999+0161MW1951REMSYN082AAXX  13184 82986 21395 82309 10248 20207 39805 40089 79522 8547/ 333 58016 60091;
0202829860999992005031400004-09400-038220FM-12+0253SBUF V0200901N003110042019N0010001N1+02261+02161101041ADDAY191061AY221061GF105991051071004501999999KA1240M+03371MA1999999098201MD1999999-0041MW1951REMSYN100AAXX  14004 82986 21494 50906 10226 20216 39820 40104 79592 857// 333 10337 29084 55073 59004 60161;
0162829860999992005031412004-09400-038220FM-12+0253SBUF V0200901N002110042019N0100001N1+02601+02291101261ADDGF106991061051004501001001KA1240N+02221MA1999999098401MD1999999+0011REMSYN082AAXX  14124 82986 22497 60904 10260 20229 39840 40126 86500 333 20222 58001 60254;
0167829860999992005031418004-09400-038217FM-12+0252SBUF V0201401N004111050019N0200001N1+03231+02011100741ADDAA106000091GF105991041021008001001031MA1999999097941MD1999999-0111REMSYN070AAXX  14184 82986 32598 51408 10323 20201 39794 40074 84203 333 59011;EQDQ01  00002PRCP06
0208829860999992005031500004-09400-038217FM-12+0252SBUF V0200901N005112200019N0020001N1+02811+02131100921ADDAA106000091GA1001+999999999GF100991001001999999001001KA1240M+03281MA1999999098101MD1999999-0101REMSYN082AAXX  15004 82986 32995 00910 10281 20213 39810 40092 333 10328 29066 55088 59010;EQDQ01  00002PRCP06
0186829860999992005031512004-09400-038217FM-12+0252SBUF V0200901N003610450019N0100001N1+02701+02171101121ADDAA106000091GF106991041041008001051001KA1240N+02341MA1999999098301MD1999999-0101REMSYN076AAXX  15124 82986 32597 60907 10270 20217 39830 40112 84450 333 20234 59010;EQDQ01  00002PRCP06
0167829860999992005031518004-09400-038217FM-12+0252SBUF V0201401N003610450019N0200001N1+03191+02011100731ADDAA106000091GF106991031021008001051011MA1999999097921MD1999999-0021REMSYN070AAXX  15184 82986 32598 61407 10319 20201 39792 40073 83251 333 59002;EQDQ01  00002PRCP06
0208829860999992005031600004-09400-038217FM-12+0252SBUF V0200901N003112200019N0020001N1+02831+02001101041ADDAA106000091GA1001+999999999GF100991001001999999001001KA1240M+03231MA1999999098221MD1999999+0121REMSYN082AAXX  16004 82986 32995 00906 10283 20200 39822 40104 333 10323 29061 55083 58012;EQDQ01  00002PRCP06
0186829860999992005031612004-09400-038217FM-12+0252SBUF V0200901N004110450019N0100001N1+02661+02201101301ADDAA106000091GF107991021021008001091999KA1240N+02381MA1999999098471MD1999999+0171REMSYN076AAXX  16124 82986 32597 70908 10266 20220 39847 40130 8229/ 333 20238 58017;EQDQ01  00002PRCP06
0208829860999992005031700004-09400-038217FM-12+0252SBUF V0200901N003112200019N0020001N1+02841+02041101081ADDAA106000091GA1001+999999999GF100991001001999999001001KA1240M+03301MA1999999098261MD1999999+0041REMSYN082AAXX  17004 82986 32995 00906 10284 20204 39826 40108 333 10330 29061 55063 58004;EQDQ01  00002PRCP06
0186829860999992005031712004-09400-038217FM-12+0252SBUF V0200901N004110450019N0100001N1+02741+02241101271ADDAA106000091GF106991031021008001051011KA1240N+02381MA1999999098451MD1999999-0021REMSYN076AAXX  17124 82986 32597 60908 10274 20224 39845 40127 83251 333 20238 59002;EQDQ01  00002PRCP06
0167829860999992005031718004-09400-038217FM-12+0252SBUF V0201401N002112200019N0200001N1+03281+01961100801ADDAA106000091GF104991021021008001041021MA1999999097991MD1999999-0081REMSYN070AAXX  17184 82986 32598 41404 10328 20196 39799 40080 82242 333 59008;EQDQ01  00002PRCP06
0208829860999992005031800004-09400-038217FM-12+0252SBUF V0200901N005712200019N0020001N1+02861+02061100941ADDAA106000091GA1001+999999999GF100991001001999999001001KA1240M+03331MA1999999098131MD1999999-0131REMSYN082AAXX  18004 82986 32995 00911 10286 20206 39813 40094 333 10333 29061 55072 59013;EQDQ01  00002PRCP06
0186829860999992005031812004-09400-038217FM-12+0252SBUF V0200901N001510075019N0100001N1+02771+02191101271ADDAA106000091GF106991051021008001001011KA1240N+02391MA1999999098451MD1999999+0001REMSYN076AAXX  18124 82986 32597 60903 10277 20219 39845 40127 85201 333 20239 58000;EQDQ01  00002PRCP06
0167829860999992005031818004-09400-038217FM-12+0252SBUF V0200901N002612200019N0200001N1+03331+01891100761ADDAA106000091GF105991031021008001001041MA1999999097961MD1999999-0031REMSYN070AAXX  18184 82986 32598 50905 10333 20189 39796 40076 83204 333 59003;EQDQ01  00002PRCP06
0198829860999992005031900004-09400-038217FM-12+0252SBUF V0200901N005712200019N0020001N1+02931+02121101061ADDAA106000091GF104991031041008001001021KA1240M+03371MA1999999098251MD1999999+0121REMSYN088AAXX  19004 82986 32595 40911 10293 20212 39825 40106 83402 333 10337 29062 55107 58012;EQDQ01  00002PRCP06
0186829860999992005031912004-09400-038217FM-12+0252SBUF V0200901N001510450019N0100001N1+02781+02211101291ADDAA106000091GF106991021041008001031011KA1240N+02381MA1999999098471MD1999999+0021REMSYN076AAXX  19124 82986 32597 60903 10278 20221 39847 40129 82431 333 20238 58002;EQDQ01  00002PRCP06
0195829860999992005031918004-09400-038217FM-12+0252SBUF V0203601N002610450019N0200001N1+03121+02301100841ADDAA106000091AY121061AY211061GF107991031031008001091061MA1999999098031MD1999999+0071MW1151REMSYN076AAXX  19184 82986 31598 73605 10312 20230 39803 40084 71521 83396 333 58007;EQDQ01  00002PRCP06
0198829860999992005032000004-09400-038220FM-12+0253SBUF V0203601N001010150019N0020001N1+02851+02091101121ADDAA106000091GF106991061001017501091001KA1240M+03391MA1999999098301MD1999999+0051REMSYN088AAXX  20004 82986 32795 63602 10285 20209 39830 40112 86090 333 10339 29065 55077 58005;EQDQ01  00002PRCP06
0190829860999992005032012004-09400-038220FM-12+0253SBUF V0203201N001010450019N0100001N1+02721+02241101321ADDAY191061AY261061GF106991031021008001051001KA1240N+02261MA1999999098501MD1999999+0031MW1021REMSYN088AAXX  20124 82986 21597 63202 10272 20224 39850 40132 70296 83250 333 20226 58003 60184;
0167829860999992005032018004-09400-038220FM-12+0253SBUF V0200901N003111050019N0200001N1+03241+02101100841ADDAA106000091GF106991021021008001051061MA1999999098031MD1999999+0001REMSYN070AAXX  20184 82986 32598 60906 10324 20210 39803 40084 82256 333 58000;EQDQ01  00002PRCP06
0202829860999992005032100004-09400-038217FM-12+0252SBUF V0201801N000510150019N0020001N1+02721+02321101171ADDAY161061AY221061GF106991061001017501071001KA1240M+03251MA1999999098341MD1999999+0041MW1011REMSYN100AAXX  21004 82986 21795 61801 10272 20232 39834 40117 70162 86070 333 10325 29071 55060 58004 69981;
0162829860999992005032112004-09400-038217FM-12+0252SBUF V0200901N002110450019N0100001N1+02681+02221101301ADDGF106991021021008001051081KA1240N+02341MA1999999098471MD1999999-0031REMSYN082AAXX  21124 82986 22597 60904 10268 20222 39847 40130 82258 333 20234 59003 69984;
0167829860999992005032118004-09400-038217FM-12+0252SBUF V0200901N003612200019N0200001N1+03311+01981100841ADDAA106000091GF105991031021008001001011MA1999999098041MD1999999+0011REMSYN070AAXX  21184 82986 32598 50907 10331 20198 39804 40084 83201 333 58001;EQDQ01  00002PRCP06
0198829860999992005032200004-09400-038217FM-12+0252SBUF V0201401N003612200019N0020001N1+02831+01911101091ADDAA106000091GF103991021001012501051011KA1240M+03321MA1999999098271MD1999999-0071REMSYN088AAXX  22004 82986 32695 31407 10283 20191 39827 40109 82051 333 10332 29060 55083 59007;EQDQ01  00002PRCP06
0186829860999992005032212004-09400-038217FM-12+0252SBUF V0200901N003112200019N0100001N1+02661+02271101391ADDAA106000091GF106991021041008001001061KA1240N+02371MA1999999098561MD1999999+0091REMSYN076AAXX  22124 82986 32597 60906 10266 20227 39856 40139 82406 333 20237 58009;EQDQ01  00002PRCP06
0167829860999992005032218004-09400-038217FM-12+0252SBUF V0200901N001512200019N0200001N1+03221+01951100901ADDAA106000091GF106991031021008001001061MA1999999098101MD1999999+0061REMSYN070AAXX  22184 82986 32598 60903 10322 20195 39810 40090 83206 333 58006;EQDQ01  00002PRCP06
0198829860999992005032300004-09400-038217FM-12+0252SBUF V0200901N003619999999N0020001N1+02801+02001101271ADDAA106000091GF105991051001012501071001KA1240M+03311MA1999999098441MD1999999+0171REMSYN088AAXX  23004 82986 32695 50907 10280 20200 39844 40127 85070 333 10331 29062 55074 58017;EQDQ01  00002PRCP06
0214829860999992005032312004-09400-038217FM-12+0252SBUF V0200901N004110042019N0040001N1+02711+02171101461ADDAA106000091AY121061AY221061GF108991081071004501999999KA1240N+02341MA1999999098631MD1999999+0071MW1151REMSYN082AAXX  23124 82986 31496 80908 10271 20217 39863 40146 71522 887// 333 20234 58007;EQDQ01  00002PRCP06
0171829860999992005032318004-09400-038217FM-12+0252SBUF V0201801N001510075019N0200001N1+03301+02091100921ADDAY161061AY221061GF106991061021008001001001MA1999999098121MD1999999+0021MW1021REMSYN082AAXX  23184 82986 21598 61803 10330 20209 39812 40092 70262 86200 333 58002 69991;
0162829860999992005032412004-09400-038217FM-12+0252SBUF V0200901N001511050019N0100001N1+02751+02211101401ADDGF106991041041008001001051KA1240N+02331MA1999999098581MD1999999-0051REMSYN082AAXX  24124 82986 22597 60903 10275 20221 39858 40140 84405 333 20233 59005 69994;
0195829860999992005032418004-09400-038217FM-12+0252SBUF V0202701N001510450019N0100001N1+03451+01761100811ADDAA106000091AY121061AY221061GF106991041021008001041081MA1999999098021MD1999999-0101MW1151REMSYN076AAXX  24184 82986 31597 62703 10345 20176 39802 40081 71522 84248 333 59010;EQDQ01  00002PRCP06
0198829860999992005032500004-09400-038217FM-12+0252SBUF V0201401N004110450019N0020001N1+02701+02081101271ADDAA106000091GF107991021041008001051999KA1240M+03461MA1999999098441MD1999999+0011REMSYN088AAXX  25004 82986 32595 71408 10270 20208 39844 40127 8245/ 333 10346 29062 55106 58001;EQDQ01  00002PRCP06
0186829860999992005032512004-09400-038217FM-12+0252SBUF V0202701N001010075019N0100001N1+02701+02241101341ADDAA106000091GF107991051021008001081999KA1240N+02401MA1999999098511MD1999999-0071REMSYN076AAXX  25124 82986 32597 72702 10270 20224 39851 40134 8528/ 333 20240 59007;EQDQ01  00002PRCP06
0195829860999992005032518004-09400-038217FM-12+0252SBUF V0201401N002611050019N0100001N1+03411+02001100751ADDAA106000091AY121061AY211061GF106991041021008001001021MA1999999097951MD1999999-0071MW1151REMSYN076AAXX  25184 82986 31597 61405 10341 20200 39795 40075 71521 84202 333 59007;EQDQ01  00002PRCP06
0202829860999992005032600004-09400-038217FM-12+0252SBUF V0200901N002110021019N0020001N1+02361+02291101141ADDAY121061AY221061GF108991061091002501071999KA1240M+03411MA1999999098291MD1999999-0151MW1921REMSYN100AAXX  26004 82986 21395 80904 10236 20229 39829 40114 79222 8697/ 333 10341 29078 55067 59015 60271;
0190829860999992005032612004-09400-038217FM-12+0252SBUF V0202701N002110450019N0100001N1+02561+02351101281ADDAY191061AY261061GF106991031021004501051061KA1240N+02301MA1999999098421MD1999999-0091MW1021REMSYN088AAXX  26124 82986 21497 62704 10256 20235 39842 40128 70296 83256 333 20230 59009 60654;
0167829860999992005032618004-09400-038217FM-12+0252SBUF V0203601N001512200019N0200001N1+03171+01961100701ADDAA106000091GF106991031021008001001061MA1999999097901MD1999999-0051REMSYN070AAXX  26184 82986 32598 63603 10317 20196 39790 40070 83206 333 59005;EQDQ01  00002PRCP06
0198829860999992005032700004-09400-038220FM-12+0253SBUF V0200901N005710450019N0020001N1+02611+02211101111ADDAA106000091GF106991031071002501071999KA1240M+03171MA1999999098271MD1999999-0021REMSYN088AAXX  27004 82986 32395 60911 10261 20221 39827 40111 8377/ 333 10317 29074 55060 59002;EQDQ01  00002PRCP06
0190829860999992005032712004-09400-038220FM-12+0253SBUF V0202701N001510450019N0100001N1+02631+02251101221ADDAY191061AY261061GF107991031071002501081021KA1240N+02331MA1999999098381MD1999999-0041MW1031REMSYN088AAXX  27124 82986 21397 72703 10263 20225 39838 40122 70396 83782 333 20233 59004 60264;
0167829860999992005032718004-09400-038220FM-12+0253SBUF V0200901N001010450019N0200001N1+03001+02141100741ADDAA106000091GF106991031071008001051011MA1999999097921MD1999999+0021REMSYN070AAXX  27184 82986 32598 60902 10300 20214 39792 40074 83751 333 58002;EQDQ01  00002PRCP06
0226829860999992005032800004-09400-038220FM-12+0253SBUF V0202301N005110450019N0010001N1+02671+02181101191ADDAA106000091AY101061AY201061GF108991041091004501071999KA1240M+03001MA1999999098351MD1999999+0081MW1131REMSYN094AAXX  28004 82986 31494 82310 10267 20218 39835 40119 71300 8497/ 333 10300 29072 55017 58008;EQDQ01  00002PRCP06
0190829860999992005032812004-09400-038220FM-12+0253SBUF V0202701N000510450019N0100001N1+02501+02211101281ADDAY191061AY261061GF107991021051008001091081KA1240N+02121MA1999999098441MD1999999+0061MW1011REMSYN088AAXX  28124 82986 21597 72701 10250 20221 39844 40128 70196 82598 333 20212 58006 60364;
0167829860999992005032818004-09400-038220FM-12+0253SBUF V0203601N001010450019N0200001N1+03061+02301100781ADDAA106000091GF106991031021008001051021MA1999999097971MD1999999+0051REMSYN070AAXX  28184 82986 32598 63602 10306 20230 39797 40078 83252 333 58005;EQDQ01  00002PRCP06
0226829860999992005032900004-09400-038217FM-12+0252SBUF V0201801N001510450019N0020001N1+02751+02281101041ADDAA106000091AY101061AY201061GF106991031051008001051999KA1240M+03101MA1999999098201MD1999999-0151MW1131REMSYN094AAXX  29004 82986 31595 61803 10275 20228 39820 40104 71300 8355/ 333 10310 29075 55066 59015;EQDQ01  00002PRCP06
0186829860999992005032912004-09400-038217FM-12+0252SBUF V0201801N001510450019N0100001N1+02671+02331101231ADDAA106000091GF106991021071008001051081KA1240N+02421MA1999999098401MD1999999-0041REMSYN076AAXX  29124 82986 32597 61803 10267 20233 39840 40123 82758 333 20242 59004;EQDQ01  00002PRCP06
0167829860999992005032918004-09400-038217FM-12+0252SBUF V0200901N001510450019N0200001N1+03001+02981100781ADDAA106000091GF107991021031004501031081MA1999999097971MD1999999+0001REMSYN070AAXX  29184 82986 32498 70903 10300 20298 39797 40078 82338 333 58000;EQDQ01  00002PRCP06
0226829860999992005033000004-09400-038217FM-12+0252SBUF V0201801N003110060019N0020001N1+02521+02311101221ADDAA106000091AY121061AY221061GF108991081081002501999999KA1240M+03011MA1999999098381MD1999999+0181MW1131REMSYN094AAXX  30004 82986 31395 81806 10252 20231 39838 40122 71322 888// 333 10301 29081 55012 58018;EQDQ01  00002PRCP06
0167829860999992005033018004-09400-038217FM-12+0252SBUF V0201401N005111050019N0200001N1+03041+02201100851ADDAA106000091GF106991031081004501001081MA1999999098041MD1999999+0071REMSYN070AAXX  30184 82986 32498 61410 10304 20220 39804 40085 83808 333 58007;EQDQ01  00002PRCP06
0198829860999992005033100004-09400-038217FM-12+0252SBUF V0200901N002110075019N0020001N1+02581+02211101201ADDAA106000091GF108991071051008001071999KA1240M+03061MA1999999098351MD1999999-0031REMSYN088AAXX  31004 82986 32595 80904 10258 20221 39835 40120 8757/ 333 10306 29077 55051 59003;EQDQ01  00002PRCP06
0190829860999992005033112004-09400-038217FM-12+0252SBUF V0201401N001010042019N0040001N1+02541+02211101331ADDAY161061AY221061GF107991071071004501999999KA1240N+02211MA1999999098481MD1999999+0011MW1151REMSYN088AAXX  31124 82986 21496 71402 10254 20221 39848 40133 71562 877// 333 20221 58001 60104;
0198829860999992005040100004-09400-038217FM-12+0252SBUF V0201801N001512200019N0020001N1+02571+02251101211ADDAA106000091GF102991021041008001001001KA1240M+03071MA1999999098361MD1999999+0011REMSYN088AAXX  01004 82986 32595 21803 10257 20225 39836 40121 82400 333 10307 29077 55067 58001;EQDQ01  00002PRCP06
0162829860999992005040112004-09400-038217FM-12+0252SBUF V0201401N003110075019N0100001N1+02681+02311101321ADDGF106991061021008001001001KA1240N+02181MA1999999098471MD1999999-0011REMSYN082AAXX  01124 82986 22597 61406 10268 20231 39847 40132 86200 333 20218 59001 69914;
0167829860999992005040118004-09400-038217FM-12+0252SBUF V0201801N004111050019N0200001N1+02901+02121101031ADDAA106000091GF106991021021008001031061MA1999999098201MD1999999+0141REMSYN070AAXX  01184 82986 32598 61808 10290 20212 39820 40103 82236 333 58014;EQDQ01  00002PRCP06
0208829860999992005040200004-09400-038217FM-12+0252SBUF V0200901N003112200019N0020001N1+02631+02291101291ADDAA106000091GA1001+999999999GF100991001001999999001001KA1240M+03121MA1999999098451MD1999999+0091REMSYN082AAXX  02004 82986 32995 00906 10263 20229 39845 40129 333 10312 29077 55084 58009;EQDQ01  00002PRCP06
0186829860999992005040212004-09400-038217FM-12+0252SBUF V0200901N003110450019N0100001N1+02681+02311101371ADDAA106000091GF106991041021008001071001KA1240N+02381MA1999999098531MD1999999+0061REMSYN076AAXX  02124 82986 32597 60906 10268 20231 39853 40137 84270 333 20238 58006;EQDQ01  00002PRCP06
0167829860999992005040218004-09400-038217FM-12+0252SBUF V0200901N001512200019N0200001N1+03121+02171100971ADDAA106000091GF103991031021008001001001MA1999999098161MD1999999-0041REMSYN070AAXX  02184 82986 32598 30903 10312 20217 39816 40097 83200 333 59004;EQDQ01  00002PRCP06
0189829860999992005040300004-09400-038220FM-12+0253SBUF V0201801N001519999999N0020001N1+02541+02361101361ADDAY161061AY221061GF106991061001012501071001MA1999999098511MD1999999+0061MW1131REMSYN100AAXX  03004 82986 21695 61803 10254 20236 39851 40136 71362 86070 333 10313 29079 55100 58006 69971;
0149829860999992005040312004-09400-038220FM-12+0253SBUF V0200901N003110075019N0100001N1+02631+02251101491ADDGF106991061021008001001001MA1999999098641MD1999999+0111REMSYN082AAXX  03124 82986 22597 60906 10263 20225 39864 40149 86200 333 20236 58011 69984;
0195829860999992005040318004-09400-038220FM-12+0253SBUF V0200901N006710450019N0100001N1+03141+02131101051ADDAA106000091AY121061AY221061GF106991021021008001071021MA1999999098221MD1999999+0071MW1151REMSYN076AAXX  03184 82986 31597 60913 10314 20213 39822 40105 71522 82272 333 58007;EQDQ01  00002PRCP06
0208829860999992005040400004-09400-038217FM-12+0252SBUF V0200901N001512200019N0020001N1+02501+02291101351ADDAA106000091GA1001+999999999GF100991001001999999001001KA1240M+03141MA1999999098501MD1999999-0011REMSYN082AAXX  04004 82986 32995 00903 10250 20229 39850 40135 333 10314 29078 55092 59001;EQDQ01  00002PRCP06
0186829860999992005040412004-09400-038217FM-12+0252SBUF V0201401N001512200019N0100001N1+02631+02231101611ADDAA106000091GF106991041021008001001011KA1240N+02301MA1999999098751MD1999999+0111REMSYN076AAXX  04124 82986 32597 61403 10263 20223 39875 40161 84201 333 20230 58011;EQDQ01  00002PRCP06
0167829860999992005040418004-09400-038217FM-12+0252SBUF V0200901N001512200019N0200001N1+03081+02011101141ADDAA106000091GF103991031011008001001001MA1999999098311MD1999999+0081REMSYN070AAXX  04184 82986 32598 30903 10308 20201 39831 40114 83100 333 58008;EQDQ01  00002PRCP06
0208829860999992005040500004-09400-038217FM-12+0252SBUF V0200901N005712200019N0020001N1+02701+02081101371ADDAA106000091GA1001+999999999GF100991001001999999001001KA1240M+03081MA1999999098531MD1999999+0031REMSYN082AAXX  05004 82986 32995 00911 10270 20208 39853 40137 333 10308 29068 55098 58003;EQDQ01  00002PRCP06
0186829860999992005040512004-09400-038217FM-12+0252SBUF V0200901N003110450019N0100001N1+02621+02311101541ADDAA106000091GF106991031021004501081011KA1240N+02281MA1999999098691MD1999999-0061REMSYN076AAXX  05124 82986 32497 60906 10262 20231 39869 40154 83281 333 20228 59006;EQDQ01  00002PRCP06
0167829860999992005040518004-09400-038217FM-12+0252SBUF V0201401N004612200019N0200001N1+03121+01991101041ADDAA106000091GF102991011011008001001051MA1999999098221MD1999999-0091REMSYN070AAXX  05184 82986 32598 21409 10312 20199 39822 40104 81105 333 59009;EQDQ01  00002PRCP06
0208829860999992005040600004-09400-038217FM-12+0252SBUF V0200901N005712200019N0020001N1+02681+01941101391ADDAA106000091GA1001+999999999GF100991001001999999001001KA1240M+03121MA1999999098551MD1999999+0021REMSYN082AAXX  06004 82986 32995 00911 10268 20194 39855 40139 333 10312 29066 55088 58002;EQDQ01  00002PRCP06
0186829860999992005040612004-09400-038217FM-12+0252SBUF V0200901N003110042019N0100001N1+02581+02271101521ADDAA106000091GF106991051051004501001051KA1240N+02281MA1999999098671MD1999999-0021REMSYN076AAXX  06124 82986 32497 60906 10258 20227 39867 40152 85505 333 20228 59002;EQDQ01  00002PRCP06
0195829860999992005040618004-09400-038217FM-12+0252SBUF V0200901N006710021019N0200001N1+02871+02161101151ADDAA106000091AY121061AY211061GF107991071071002501999999MA1999999098311MD1999999+0091MW1151REMSYN076AAXX  06184 82986 31398 70913 10287 20216 39831 40115 71521 877// 333 58009;EQDQ01  00002PRCP06
0208829860999992005040700004-09400-038217FM-12+0252SBUF V0201801N001512200019N0020001N1+02501+02171101321ADDAA106000091GA1001+999999999GF100991001001999999001001KA1240M+03111MA1999999098471MD1999999-0081REMSYN082AAXX  07004 82986 32995 01803 10250 20217 39847 40132 333 10311 29078 55066 59008;EQDQ01  00002PRCP06
0186829860999992005040712004-09400-038217FM-12+0252SBUF V0201401N004110075019N0100001N1+02601+02121101411ADDAA106000091GF106991051021008001001091KA1240N+02321MA1999999098561MD1999999-0111REMSYN076AAXX  07124 82986 32597 61408 10260 20212 39856 40141 85209 333 20232 59011;EQDQ01  00002PRCP06
0167829860999992005040718004-09400-038217FM-12+0252SBUF V0201401N005110075019N0200001N1+03111+02001100971ADDAA106000091GF105991051021008001001001MA1999999098151MD1999999-0161REMSYN070AAXX  07184 82986 32598 51410 10311 20200 39815 40097 85200 333 59016;EQDQ01  00002PRCP06
0208829860999992005040800004-09400-038217FM-12+0252SBUF V0201401N005712200019N0020001N1+02601+01991101361ADDAA106000091GA1001+999999999GF100991001001999999001001KA1240M+03131MA1999999098511MD1999999+0041REMSYN082AAXX  08004 82986 32995 01411 10260 20199 39851 40136 333 10313 29066 55096 58004;EQDQ01  00002PRCP06
0186829860999992005040812004-09400-038217FM-12+0252SBUF V0201401N006712200019N0100001N1+02631+02071101421ADDAA106000091GF103991031021008001001001KA1240N+02281MA1999999098571MD1999999+0011REMSYN076AAXX  08124 82986 32597 31413 10263 20207 39857 40142 83200 333 20228 58001;EQDQ01  00002PRCP06
0167829860999992005040818004-09400-038217FM-12+0252SBUF V0200901N003112200019N0200001N1+03121+01601100941ADDAA106000091GF103991021011008001031001MA1999999098121MD1999999-0031REMSYN070AAXX  08184 82986 32598 30906 10312 20160 39812 40094 82130 333 59003;EQDQ01  00002PRCP06
0208829860999992005040900004-09400-038217FM-12+0252SBUF V0200901N003112200019N0020001N1+02601+01891101321ADDAA106000091GA1001+999999999GF100991001001999999001001KA1240M+03131MA1999999098471MD1999999-0041REMSYN082AAXX  09004 82986 32995 00906 10260 20189 39847 40132 333 10313 29060 55105 59004;EQDQ01  00002PRCP06
0186829860999992005040912004-09400-038217FM-12+0252SBUF V0200901N003610075019N0200001N1+02561+02061101381ADDAA106000091GF105991051041008001001001KA1240N+02141MA1999999098531MD1999999-0041REMSYN076AAXX  09124 82986 32598 50907 10256 20206 39853 40138 85400 333 20214 59004;EQDQ01  00002PRCP06
0167829860999992005040918004-09400-038217FM-12+0252SBUF V0201401N003112200019N0200001N1+03071+01801100941ADDAA106000091GF104991021021008001051001MA1999999098111MD1999999-0011REMSYN070AAXX  09184 82986 32598 41406 10307 20180 39811 40094 82250 333 59001;EQDQ01  00002PRCP06
0208829860999992005041000004-09400-038217FM-12+0252SBUF V0200901N002612200019N0020001N1+02591+02101101211ADDAA106000091GA1001+999999999GF100991001001999999001001KA1240M+03101MA1999999098371MD1999999-0101REMSYN082AAXX  10004 82986 32995 00905 10259 20210 39837 40121 333 10310 29068 55105 59010;EQDQ01  00002PRCP06
0190829860999992005041012004-09400-038217FM-12+0252SBUF V0201801N001510450019N0100001N1+02571+02251101291ADDAY161061AY251061GF108991041071004501071999KA1240N+02301MA1999999098451MD1999999-0081MW1151REMSYN088AAXX  10124 82986 21497 81803 10257 20225 39845 40129 71565 8477/ 333 20230 59008 69954;
0206829860999992005041018004-09400-038217FM-12+0252SBUF V0201401N003610090019N0040001N1+02841+02221100941ADDAY161061AY221061GF108991061081004501091999MA1999999999999MD1999999+0001MW1151REMSYN082AAXX  10184 82986 21496 81407 10284 20222 39111 40094 71562 8689/ 333 58000 69991;EQDQ01+091113APOSP Q02 091113APOSP 
0202829860999992005041100004-09400-038217FM-12+0252SBUF V0201401N003110021019N0020001N1+02321+02221101241ADDAY121061AY221061GF108991081071002501999999KA1240M+02851MA1999999098381MD1999999+0011MW1211REMSYN100AAXX  11004 82986 21395 81406 10232 20222 39838 40124 72122 887// 333 10285 29085 55001 58001 69971;
0190829860999992005041112004-09400-038217FM-12+0252SBUF V0200901N003110075019N0100001N1+02611+02271101231ADDAY161061AY221061GF106991051041008001001011KA1240N+02251MA1999999098371MD1999999-0081MW1151REMSYN088AAXX  11124 82986 21597 60906 10261 20227 39837 40123 71562 85401 333 20225 59008 60074;
0171829860999992005041118004-09400-038217FM-12+0252SBUF V0200901N002610450019N0200001N1+02701+02171100881ADDAY161061AY221061GF106991021021008001091001MA1999999098041MD1999999-0071MW1021REMSYN082AAXX  11184 82986 21598 60905 10270 20217 39804 40088 70262 82290 333 59007 60011;
0214829860999992005041200004-09400-038217FM-12+0252SBUF V0201401N005112200019N0020001N1+02501+02211101161ADDAA106000091GF103991999001017501051001KA1240M+02971MA1999999098311MD1999999-0071REMSYN088AAXX  12004 82986 32795 31410 10250 20221 39831 40116 82050 333 10297 29081 55050 59007;EQDQ01+000022SCOTLCQ02  00002PRCP06
0190829860999992005041212004-09400-038217FM-12+0252SBUF V0201801N003110021019N0020001N1+02461+02301101291ADDAY161061AY251061GF108991081071002501999999KA1240N+02221MA1999999098431MD1999999+0061MW1161REMSYN088AAXX  12124 82986 21395 81806 10246 20230 39843 40129 71665 887// 333 20222 58006 60044;
0167829860999992005041218004-09400-038217FM-12+0252SBUF V0200901N002610450019N0200001N1+02951+02311100901ADDAA106000091GF106991021021008001041081MA1999999098071MD1999999+0031REMSYN070AAXX  12184 82986 32598 60905 10295 20231 39807 40090 82248 333 58003;EQDQ01  00002PRCP06
0198829860999992005041300004-09400-038217FM-12+0252SBUF V0201401N005710021019N0020001N1+02551+02231101301ADDAA106000091GF106991061071002501001001KA1240M+02971MA1999999098441MD1999999+0131REMSYN088AAXX  13004 82986 32395 61411 10255 20223 39844 40130 86700 333 10297 29082 55045 58013;EQDQ01  00002PRCP06
0190829860999992005041312004-09400-038217FM-12+0252SBUF V0200901N003110042019N0100001N1+02601+02231101371ADDAY161061AY221061GF107991051021004501001061KA1240N+02301MA1999999098521MD1999999+0091MW1021REMSYN088AAXX  13124 82986 21497 70906 10260 20223 39852 40137 70262 85206 333 20230 58009 60014;
0167829860999992005041318004-09400-038217FM-12+0252SBUF V0201801N002112200019N0200001N1+02981+02281100921ADDAA106000091GF104991021021008001041011MA1999999098101MD1999999+0031REMSYN070AAXX  13184 82986 32598 41804 10298 20228 39810 40092 82241 333 58003;EQDQ01  00002PRCP06
0202829860999992005041400004-09400-038217FM-12+0252SBUF V0201401N002612200019N0020001N1+02481+02191101301ADDAY161061AY221061GF103991031001022501021001KA1240M+03031MA1999999098451MD1999999+0011MW1011REMSYN100AAXX  14004 82986 21895 31405 10248 20219 39845 40130 70162 83020 333 10303 29078 55069 58001 60041;
0162829860999992005041412004-09400-038217FM-12+0252SBUF V0201401N003110021019N0100001N1+02481+02321101381ADDGF107991071071002501999999KA1240N+02261MA1999999098521MD1999999+0001REMSYN082AAXX  14124 82986 22397 71406 10248 20232 39852 40138 877// 333 20226 58000 60044;
0195829860999992005041418004-09400-038217FM-12+0252SBUF V0200901N003110450019N0100001N1+02941+02161100981ADDAA106000091AY121061AY221061GF106991031041004501071999MA1999999098151MD1999999+0051MW1151REMSYN076AAXX  14184 82986 31497 60906 10294 20216 39815 40098 71522 8347/ 333 58005;EQDQ01  00002PRCP06
0198829860999992005041500004-09400-038217FM-12+0252SBUF V0200901N003112200019N0020001N1+02481+02251101221ADDAA106000091GF104991041001012501021001KA1240M+02991MA1999999098361MD1999999-0091REMSYN088AAXX  15004 82986 32695 40906 10248 20225 39836 40122 84020 333 10299 29082 55044 59009;EQDQ01  00002PRCP06
0190829860999992005041512004-09400-038217FM-12+0252SBUF V0200901N004610450019N0100001N1+02671+02221101371ADDAY151061AY221061GF106991041021008001031001KA1240N+02301MA1999999098521MD1999999+0001MW1011REMSYN088AAXX  15124 82986 21597 60909 10267 20222 39852 40137 70152 84230 333 20230 58000 69934;
0167829860999992005041518004-09400-038217FM-12+0252SBUF V0200901N002612200019N0200001N1+03091+02041100961ADDAA106000091GF104991041021008001001001MA1999999098141MD1999999-0011REMSYN070AAXX  15184 82986 32598 40905 10309 20204 39814 40096 84200 333 59001;EQDQ01  00002PRCP06
0208829860999992005041600004-09400-038217FM-12+0252SBUF V0201401N004612200019N0020001N1+02621+02251101341ADDAA106000091GA1001+999999999GF100991001001999999001001KA1240M+03101MA1999999098501MD1999999+0141REMSYN082AAXX  16004 82986 32995 01409 10262 20225 39850 40134 333 10310 29073 55101 58014;EQDQ01  00002PRCP06
0186829860999992005041612004-09400-038217FM-12+0252SBUF V0201401N003110075019N0100001N1+02641+02161101411ADDAA106000091GF106991051021008001001011KA1240N+02351MA1999999098571MD1999999+0051REMSYN076AAXX  16124 82986 32597 61406 10264 20216 39857 40141 85201 333 20235 58005;EQDQ01  00002PRCP06
0167829860999992005041618004-09400-038217FM-12+0252SBUF V0200901N002612200019N0200001N1+03151+02001100961ADDAA106000091GF103991031011008001001001MA1999999098151MD1999999+0011REMSYN070AAXX  16184 82986 32598 30905 10315 20200 39815 40096 83100 333 58001;EQDQ01  00002PRCP06
0173829860999992005041712004-09400-038220FM-12+0253SBUF V0200901N002610450019N0100001N1+02671+02181101361ADDAA106000091GF106991031071004501081011MA1999999098531MD1999999-0041REMSYN076AAXX  17124 82986 32497 60905 10267 20218 39853 40136 83781 333 20231 59004;EQDQ01  00002PRCP06
0195829860999992005041718004-09400-038220FM-12+0253SBUF V0200901N005110450019N0100001N1+03141+02201100991ADDAA106000091AY121061AY221061GF106991031021004501071011MA1999999098161MD1999999+0011MW1151REMSYN076AAXX  17184 82986 31497 60910 10314 20220 39816 40099 71522 83271 333 58001;EQDQ01  00002PRCP06
0198829860999992005041800004-09400-038217FM-12+0252SBUF V0201401N004612200019N0020001N1+02621+02121101241ADDAA106000091GF103991001001999999001061KA1240M+03071MA1999999098401MD1999999-0041REMSYN088AAXX  18004 82986 32995 31409 10262 20212 39840 40124 80006 333 10307 29071 55070 59004;EQDQ01  00002PRCP06
0186829860999992005041812004-09400-038217FM-12+0252SBUF V0200901N003610075019N0100001N1+02621+02141101241ADDAA106000091GF106991051021008001001061KA1240N+02281MA1999999098401MD1999999-0131REMSYN076AAXX  18124 82986 32597 60907 10262 20214 39840 40124 85206 333 20228 59013;EQDQ01  00002PRCP06
0167829860999992005041818004-09400-038217FM-12+0252SBUF V0201401N006710450019N0200001N1+02981+02121100821ADDAA106000091GF106991031021008001031061MA1999999098001MD1999999-0161REMSYN070AAXX  18184 82986 32598 61413 10298 20212 39800 40082 83236 333 59016;EQDQ01  00002PRCP06
0208829860999992005041900004-09400-038217FM-12+0252SBUF V0201801N002612200019N0020001N1+02751+02131101201ADDAA106000091GA1001+999999999GF100991001001999999001001KA1240M+03131MA1999999098351MD1999999-0051REMSYN082AAXX  19004 82986 32995 01805 10275 20213 39835 40120 333 10313 29075 55084 59005;EQDQ01  00002PRCP06
0186829860999992005041912004-09400-038217FM-12+0252SBUF V0201401N004110075019N0100001N1+02601+02171101371ADDAA106000091GF107991051071008001051061KA1240N+02141MA1999999098511MD1999999+0111REMSYN076AAXX  19124 82986 32597 71408 10260 20217 39851 40137 85756 333 20214 58011;EQDQ01  00002PRCP06
0167829860999992005041918004-09400-038217FM-12+0252SBUF V0200901N003111050019N0200001N1+03081+02101100881ADDAA106000091GF106991031021008001001081MA1999999098061MD1999999+0061REMSYN070AAXX  19184 82986 32598 60906 10308 20210 39806 40088 83208 333 58006;EQDQ01  00002PRCP06
0198829860999992005042000004-09400-038217FM-12+0252SBUF V0200901N005110450019N0020001N1+02571+02151101251ADDAA106000091GF106991041071004501011999KA1240M+03131MA1999999098411MD1999999+0061REMSYN088AAXX  20004 82986 32495 60910 10257 20215 39841 40125 8471/ 333 10313 29072 55085 58006;EQDQ01  00002PRCP06
0186829860999992005042012004-09400-038217FM-12+0252SBUF V0201401N003110450019N0100001N1+02701+02281101371ADDAA106000091GF106991041021008001031001KA1240N+02321MA1999999098531MD1999999+0021REMSYN076AAXX  20124 82986 32597 61406 10270 20228 39853 40137 84230 333 20232 58002;EQDQ01  00002PRCP06
0167829860999992005042018004-09400-038217FM-12+0252SBUF V0201401N003112200019N0200001N1+03241+02001100901ADDAA106000091GF104991021021008001041011MA1999999098101MD1999999+0041REMSYN070AAXX  20184 82986 32598 41406 10324 20200 39810 40090 82241 333 58004;EQDQ01  00002PRCP06
0202829860999992005042100004-09400-038217FM-12+0252SBUF V0201801N003112200019N0020001N1+02491+02251101401ADDAY161061AY221061GF105991041051008001001011KA1240M+03241MA1999999098551MD1999999+0141MW1021REMSYN100AAXX  21004 82986 21595 51806 10249 20225 39855 40140 70262 84501 333 10324 29075 55090 58014 60021;
0190829860999992005042112004-09400-038217FM-12+0252SBUF V0200901N004112200019N0040001N1+02601+02311101361ADDAY161061AY221061GF104991041021008001001001KA1240N+02321MA1999999098511MD1999999-0021MW1011REMSYN088AAXX  21124 82986 21596 40908 10260 20231 39851 40136 70162 84200 333 20232 59002 60044;
0167829860999992005042118004-09400-038217FM-12+0252SBUF V0200901N003110450019N0200001N1+03091+01981100891ADDAA106000091GF106991031021008001051021MA1999999098071MD1999999-0031REMSYN070AAXX  21184 82986 32598 60906 10309 20198 39807 40089 83252 333 59003;EQDQ01  00002PRCP06
0198829860999992005042200004-09400-038217FM-12+0252SBUF V0200901N003110120019N0020001N1+02651+02001101141ADDAA106000091GF105991051001012501021001KA1240M+03141MA1999999098301MD1999999-0251REMSYN088AAXX  22004 82986 32695 50906 10265 20200 39830 40114 85020 333 10314 29068 55068 59025;EQDQ01  00002PRCP06
0186829860999992005042212004-09400-038217FM-12+0252SBUF V0200901N004112200019N0100001N1+02701+02241101271ADDAA106000091GF106991041041008001001011KA1240N+02261MA1999999098441MD1999999-0071REMSYN076AAXX  22124 82986 32597 60908 10270 20224 39844 40127 84401 333 20226 59007;EQDQ01  00002PRCP06
0199829860999992005042218004-09400-038217FM-12+0252SBUF V0200901N003611050019N0200001N1+02111+02001100821ADDAA106000091GF106991021011008001001081MA1999999999999MD1999999-0061REMSYN070AAXX  22184 82986 32598 60907 10211 20200 39501 40082 82108 333 59006;EQDQ01+095013APOSP Q02  00002PRCP06Q03 095013APOSP 
0198829860999992005042300004-09400-038217FM-12+0252SBUF V0201401N004112200019N0020001N1+02611+02191101231ADDAA106000091GF104991021041008001001021KA1240M+03131MA1999999098391MD1999999+0091REMSYN088AAXX  23004 82986 32595 41408 10261 20219 39839 40123 82402 333 10313 29071 55059 58009;EQDQ01  00002PRCP06
0186829860999992005042312004-09400-038217FM-12+0252SBUF V0201401N003111050019N0100001N1+02591+02191101241ADDAA106000091GF106991041041008001001021KA1240N+02231MA1999999098401MD1999999-0041REMSYN076AAXX  23124 82986 32597 61406 10259 20219 39840 40124 84402 333 20223 59004;EQDQ01  00002PRCP06
0167829860999992005042318004-09400-038217FM-12+0252SBUF V0201801N002611050019N0200001N1+03111+01971100781ADDAA106000091GF106991031021008001001081MA1999999097971MD1999999-0041REMSYN070AAXX  23184 82986 32598 61805 10311 20197 39797 40078 83208 333 59004;EQDQ01  00002PRCP06
0179829860999992005042400004-09400-038220FM-12+0253SBUF V0200901N005712200019N0020001N1+02631+02011101161ADDAA106000091GF100991001001999999001001MA1999999098321MD1999999-0071REMSYN082AAXX  24004 82986 32995 00911 10263 20201 39832 40116 333 10321 29067 55088 59007;EQDQ01  00002PRCP06
0201829860999992005042412004-09400-038220FM-12+0253SBUF V0201401N003110090019N0100001N1+02601+02121101381ADDAA106000091AY121061AY221061GF106991051081004501081001MA1999999098531MD1999999+0131MW1141REMSYN082AAXX  24124 82986 31497 61406 10260 20212 39853 40138 71422 85880 333 20222 58013;EQDQ01  00002PRCP06
0167829860999992005042418004-09400-038220FM-12+0253SBUF V0201801N002112200019N0200001N1+03121+01901100921ADDAA106000091GF104991041021008001001001MA1999999098101MD1999999+0131REMSYN070AAXX  24184 82986 32598 41804 10312 20190 39810 40092 84200 333 58013;EQDQ01  00002PRCP06
0208829860999992005042500004-09400-038217FM-12+0252SBUF V0200901N003112200019N0020001N1+02661+02041101201ADDAA106000091GA1001+999999999GF100991001001999999001001KA1240M+03131MA1999999098361MD1999999+0041REMSYN082AAXX  25004 82986 32995 00906 10266 20204 39836 40120 333 10313 29066 55089 58004;EQDQ01  00002PRCP06
0186829860999992005042512004-09400-038217FM-12+0252SBUF V0200901N003110075019N0100001N1+02671+02141101351ADDAA106000091GF106991051021008001001011KA1240N+02181MA1999999098511MD1999999-0021REMSYN076AAXX  25124 82986 32597 60906 10267 20214 39851 40135 85201 333 20218 59002;EQDQ01  00002PRCP06
0167829860999992005042518004-09400-038217FM-12+0252SBUF V0202301N001010450019N0200001N1+03221+01731100921ADDAA106000091GF106991031021008001041021MA1999999098101MD1999999+0001REMSYN070AAXX  25184 82986 32598 62302 10322 20173 39810 40092 83242 333 58000;EQDQ01  00002PRCP06
0208829860999992005042600004-09400-038217FM-12+0252SBUF V0200901N003112200019N0020001N1+02641+01801101171ADDAA106000091GA1001+999999999GF100991001001999999001001KA1240M+03271MA1999999098341MD1999999-0021REMSYN082AAXX  26004 82986 32995 00906 10264 20180 39834 40117 333 10327 29058 55098 59002;EQDQ01  00002PRCP06
0186829860999992005042612004-09400-038217FM-12+0252SBUF V0201401N002112200019N0200001N1+02601+02081101351ADDAA106000091GF106991021001017501041061KA1240N+02081MA1999999098501MD1999999-0011REMSYN076AAXX  26124 82986 32798 61404 10260 20208 39850 40135 82046 333 20208 59001;EQDQ01  00002PRCP06
0167829860999992005042618004-09400-038217FM-12+0252SBUF V0200901N001512200019N0200001N1+03261+01641100821ADDAA106000091GF104991011011008001001061MA1999999098001MD1999999-0101REMSYN070AAXX  26184 82986 32598 40903 10326 20164 39800 40082 81106 333 59010;EQDQ01  00002PRCP06
0208829860999992005042700004-09400-038217FM-12+0252SBUF V0201801N002112200019N0020001N1+02671+01771101171ADDAA106000091GA1001+999999999GF100991001001999999001001KA1240M+03351MA1999999098311MD1999999-0031REMSYN082AAXX  27004 82986 32995 01804 10267 20177 39831 40117 333 10335 29057 55103 59003;EQDQ01  00002PRCP06
0196829860999992005042712004-09400-038217FM-12+0252SBUF V0203201N001012200019N0200001N1+02701+02151101271ADDAA106000091GA1001+999999999GF100991001001999999001001KA1240N+02201MA1999999098441MD1999999-0061REMSYN070AAXX  27124 82986 32998 03202 10270 20215 39844 40127 333 20220 59006;EQDQ01  00002PRCP06
0167829860999992005042718004-09400-038217FM-12+0252SBUF V0203601N001012200019N0200001N1+03471+01901100751ADDAA106000091GF103991021021008001001051MA1999999097951MD1999999-0051REMSYN070AAXX  27184 82986 32598 33602 10347 20190 39795 40075 82205 333 59005;EQDQ01  00002PRCP06
0208829860999992005042800004-09400-038217FM-12+0252SBUF V0201401N005112200019N0020001N1+02841+02311101141ADDAA106000091GA1001+999999999GF100991001001999999001001KA1240M+03501MA1999999098321MD1999999+0011REMSYN082AAXX  28004 82986 32995 01410 10284 20231 39832 40114 333 10350 29064 55100 58001;EQDQ01  00002PRCP06
0186829860999992005042812004-09400-038217FM-12+0252SBUF V0201801N001010450019N0100001N1+02791+02251101391ADDAA106000091GF105991031041008001051001KA1240N+02371MA1999999098571MD1999999+0131REMSYN076AAXX  28124 82986 32597 51802 10279 20225 39857 40139 83450 333 20237 58013;EQDQ01  00002PRCP06
0167829860999992005042818004-09400-038217FM-12+0252SBUF V0203201N001512200019N0200001N1+03441+01881100871ADDAA106000091GF105991021021008001001061MA1999999098081MD1999999+0131REMSYN070AAXX  28184 82986 32598 53203 10344 20188 39808 40087 82206 333 58013;EQDQ01  00002PRCP06
0202829860999992005042900004-09400-038217FM-12+0252SBUF V0200901N002610075019N0020001N1+02481+02251101331ADDAY191061AY281061GF107991051021008001091999KA1240M+03451MA1999999098491MD1999999+0171MW1021REMSYN100AAXX  29004 82986 21595 70905 10248 20225 39849 40133 70298 8529/ 333 10345 29072 55097 58017 60071;
0190829860999992005042912004-09400-038217FM-12+0252SBUF V0201801N001510090019N0100001N1+02441+02341101521ADDAY191061AY281061GF108991081081004501999999KA1240N+02211MA1999999098651MD1999999+0081MW1031REMSYN088AAXX  29124 82986 21497 81803 10244 20234 39865 40152 70398 888// 333 20221 58008 60904;
0211829860999992005042918004-09400-038217FM-12+0252SBUF V0201801N002610450019N0100001N1+03011+02341101071ADDAA106000091AY121061AY221061GF106991031091008001051061MA1999999095342MD1999999+0161MW1151REMSYN076AAXX  29184 82986 31597 61805 10301 20234 39534 40107 71522 83956 333 58016;EQDQ01+095343APOSP Q02  00002PRCP06
0162829860999992005043012004-09400-038217FM-12+0252SBUF V0201401N002110075019N0100001N1+02731+02261101471ADDGF106991051021008001001011KA1240N+02381MA1999999098621MD1999999-0031REMSYN082AAXX  30124 82986 22597 61404 10273 20226 39862 40147 85201 333 20238 59003 60014;
0167829860999992005043018004-09400-038217FM-12+0252SBUF V0201401N001511050019N0200001N1+03091+02131101041ADDAA106000091GF105991021021008001041031MA1999999098221MD1999999-0021REMSYN070AAXX  30184 82986 32598 51403 10309 20213 39822 40104 82243 333 59002;EQDQ01  00002PRCP06
0185829860999992005050100004-09400-038220FM-12+0253SBUF V0201401N006712200019N0020001N1+02641+02271101341ADDAA106000091GF103991031001017501061001MA1999999098511MD1999999-0081REMSYN088AAXX  01004 82986 32795 31413 10264 20227 39851 40134 83060 333 10311 29073 55100 59008;EQDQ01  00002PRCP06
0173829860999992005050112004-09400-038220FM-12+0253SBUF V0202701N000510042019N0100001N1+02661+02241101421ADDAA106000091GF107991051051004501061001MA1999999098581MD1999999-0041REMSYN076AAXX  01124 82986 32497 72701 10266 20224 39858 40142 85560 333 20238 59004;EQDQ01  00002PRCP06
0167829860999992005050118004-09400-038220FM-12+0253SBUF V0200901N001510450019N0200001N1+03101+02151100931ADDAA106000091GF106991031091008001061081MA1999999098121MD1999999-0101REMSYN070AAXX  01184 82986 32598 60903 10310 20215 39812 40093 83968 333 59010;EQDQ01  00002PRCP06
0185829860999992005050200004-09400-038220FM-12+0253SBUF V0201801N003110150019N0020001N1+02741+02401101191ADDAA106000091GF105991051001017501021001MA1999999098361MD1999999-0111REMSYN088AAXX  02004 82986 32795 51806 10274 20240 39836 40119 85020 333 10313 29075 55052 59011;EQDQ01  00002PRCP06
0166829860999992005050212004-09400-038217FM-15+0252SBUF V0201701N00211002401CN0060001N1+02301+02201999999ADDGA1075+002401999GA2085+024001999GF108991999999999999999999MA1101691999999MW1611REMMET056SBUF 021200Z 17004KT 6000 -RA BKN008 OVC080 23/22 Q1017;EQDQ01    003PRSWM1
