0208832360999992005010100004-12150-045000FM-12+044099999V0209999C000012200019N0200001N1+02711+02171100841ADDAA106000091GA1001+999999999GF100991001001999999001001KA1240M+03431MA1999999096011MD1999999-0051REMSYN082AAXX  01004 83236 32998 00000 10271 20217 39601 40084 333 10343 29064 55/// 59005;EQDQ01  00002PRCP06
0186832360999992005010112004-12150-045000FM-12+044099999V0202301N000512200019N0200001N1+02701+02031101041ADDAA106000091GF103991011011008001041001KA1240N+01961MA1999999096201MD1999999-0121REMSYN076AAXX  01124 83236 32598 32301 10270 20203 39620 40104 81140 333 20196 59012;EQDQ01  00002PRCP06
0167832360999992005010118004-12150-045000FM-12+044099999V0203601N001012200019N0200001N1+03441+01801100601ADDAA106000091GF103991021011008001001041MA1999999095781MD1999999-0161REMSYN070AAXX  01184 83236 32598 33602 10344 20180 39578 40060 82104 333 59016;EQDQ01  00002PRCP06
0226832360999992005010200004-12150-045000FM-12+044099999V0209999C000010450019N0100001N1+02691+02111100861ADDAA106000091AY101061AY221061GF107991041071008001021001KA1240M+03511MA1999999096031MD1999999+0021MW1131REMSYN094AAXX  02004 83236 31597 70000 10269 20211 39603 40086 71302 84720 333 10351 29061 55/// 58002;EQDQ01  00002PRCP06
0190832360999992005010212004-12150-045000FM-12+044099999V0203601N001510450019N0100001N1+02621+02141101281ADDAY191061AY261061GF107991041081008001071001KA1240N+02111MA1999999096421MD1999999+0221MW1021REMSYN088AAXX  02124 83236 21597 73603 10262 20214 39642 40128 70296 84870 333 20211 58022 60244;
0195832360999992005010218004-12150-045000FM-12+044099999V0200501N006210450019N0100001N1+02681+02111101011ADDAA106000091AY101061AY221061GF107991041071008001021001MA1999999096131MD1999999+0351MW1151REMSYN076AAXX  02184 83236 31597 70512 10268 20211 39613 40101 71502 84720 333 58035;EQDQ01  00002PRCP06
0190832360999992005010312004-12150-045000FM-12+044099999V0201801N002110075019N0040001N1+02461+02051101351ADDAY151061AY251061GF107991051021008001031001KA1240N+02151MA1999999096441MD1999999+0021MW1021REMSYN088AAXX  03124 83236 21596 71804 10246 20205 39644 40135 70255 85230 333 20215 58002 60064;
0195832360999992005010318004-12150-045000FM-12+044099999V0203601N002111050019N0100001N1+02991+02231100901ADDAA106000091AY101061AY291061GF106991041031008001001031MA1999999096041MD1999999-0091MW1291REMSYN076AAXX  03184 83236 31597 63604 10299 20223 39604 40090 72909 84303 333 59009;EQDQ01  00002PRCP06
0186832360999992005010412004-12150-045000FM-12+044099999V0209999C000012200019N0200001N1+02631+02141101161ADDAA106000091GF103991011011008001041001KA1240N+02111MA1999999096281MD1999999-0161REMSYN076AAXX  04124 83236 32598 30000 10263 20214 39628 40116 81140 333 20211 59016;EQDQ01  00002PRCP06
0167832360999992005010418004-12150-045000FM-12+044099999V0203601N002612200019N0200001N1+03151+02171100711ADDAA106000091GF104991031021008001001041MA1999999095871MD1999999-0171REMSYN070AAXX  04184 83236 32598 43605 10315 20217 39587 40071 83204 333 59017;EQDQ01  00002PRCP06
0198832360999992005010500004-12150-045000FM-12+044099999V0209999C000010450019N0200001N1+02611+02211100861ADDAA106000091GF105991021061008001021001KA1240M+03211MA1999999096011MD1999999-0251REMSYN088AAXX  05004 83236 32598 50000 10261 20221 39601 40086 82620 333 10321 29072 55/// 59025;EQDQ01  00002PRCP06
0186832360999992005010512004-12150-045000FM-12+044099999V0200501N001010450019N0100001N1+02651+02121101081ADDAA106000091GF106991021021008001071001KA1240N+02251MA1999999096251MD1999999-0031REMSYN076AAXX  05124 83236 32597 60502 10265 20212 39625 40108 82270 333 20225 59003;EQDQ01  00002PRCP06
0167832360999992005010518004-12150-045000FM-12+044099999V0203601N004111050019N0100001N1+03221+02111100611ADDAA106000091GF107991021021008001001061MA1999999095801MD1999999-0071REMSYN070AAXX  05184 83236 32597 73608 10322 20211 39580 40061 82206 333 59007;EQDQ01  00002PRCP06
0198832360999992005010600004-12150-045000FM-12+044099999V0201801N001012200019N0100001N1+02461+02251100791ADDAA106000091GF103991001001999999001061KA1240M+03291MA1999999095941MD1999999-0071REMSYN088AAXX  06004 83236 32997 31802 10246 20225 39594 40079 80006 333 10329 29075 55/// 59007;EQDQ01  00002PRCP06
0190832360999992005010612004-12150-045000FM-12+044099999V0209999C000011050019N0200001N1+02701+02111101061ADDAY151061AY251061GF106991021001022501031051KA1240N+02191MA1999999096201MD1999999-0051MW1021REMSYN088AAXX  06124 83236 21898 60000 10270 20211 39620 40106 70255 82035 333 20219 59005 69944;
0167832360999992005010618004-12150-045000FM-12+044099999V0203601N001512200019N0200001N1+03291+01961100621ADDAA106000091GF106991031021008001001041MA1999999095811MD1999999+0011REMSYN070AAXX  06184 83236 32598 63603 10329 20196 39581 40062 83204 333 58001;EQDQ01  00002PRCP06
0198832360999992005010700004-12150-045000FM-12+044099999V0202301N001512200019N0200001N1+02551+02251100751ADDAA106000091GF102991021021008001001001KA1240M+03371MA1999999095911MD1999999-0031REMSYN088AAXX  07004 83236 32598 22303 10255 20225 39591 40075 82200 333 10337 29070 55/// 59003;EQDQ01  00002PRCP06
0186832360999992005010712004-12150-045000FM-12+044099999V0209999C000012200019N0200001N1+02761+01941101091ADDAA106000091GF103991001001999999001041KA1240N+02061MA1999999096241MD1999999+0041REMSYN076AAXX  07124 83236 32998 30000 10276 20194 39624 40109 80004 333 20206 58004;EQDQ01  00002PRCP06
0167832360999992005010718004-12150-045000FM-12+044099999V0200901N001012200019N0200001N1+03431+01701100671ADDAA106000091GF105991031021008001001041MA1999999095871MD1999999+0061REMSYN070AAXX  07184 83236 32598 50902 10343 20170 39587 40067 83204 333 58006;EQDQ01  00002PRCP06
0208832360999992005010800004-12150-045000FM-12+044099999V0202301N000512200019N0200001N1+02661+02021100811ADDAA106000091GA1001+999999999GF100991001001999999001001KA1240M+03511MA1999999095981MD1999999+0071REMSYN082AAXX  08004 83236 32998 02301 10266 20202 39598 40081 333 10351 29058 55/// 58007;EQDQ01  00002PRCP06
0167832360999992005010818004-12150-045000FM-12+044099999V0203601N003612200019N0200001N1+03381+01571100601ADDAA106000091GF103991021011008001001021MA1999999095791MD1999999-0081REMSYN070AAXX  08184 83236 32598 33607 10338 20157 39579 40060 82102 333 59008;EQDQ01  00002PRCP06
0186832360999992005010912004-12150-045000FM-12+043999999V0200501N004111050019N0200001N1+02761+01891101011ADDAA106000091GF105991031021008001001091KA1240N+02171MA1999999096161MD1999999-0021REMSYN076AAXX  09124 83236 32598 50508 10276 20189 39616 40101 83209 333 20217 59002;EQDQ01  00002PRCP06
0167832360999992005010918004-12150-045000FM-12+043999999V0203601N000511050019N0200001N1+03281+01821100481ADDAA106000091GF105991031021008001001021MA1999999095681MD1999999-0111REMSYN070AAXX  09184 83236 32598 53601 10328 20182 39568 40048 83202 333 59011;EQDQ01  00002PRCP06
0198832360999992005011000004-12150-045000FM-12+044099999V0201801N001510450019N0100001N1+02801+02001100721ADDAA106000091GF105991041041008001041001KA1240M+03411MA1999999095911MD1999999+0111REMSYN088AAXX  10004 83236 32597 51803 10280 20200 39591 40072 84440 333 10341 29056 55/// 58011;EQDQ01  00002PRCP06
0186832360999992005011012004-12150-045000FM-12+044099999V0201801N001012200019N0200001N1+02881+02081100941ADDAA106000091GF102991021001022501041001KA1240N+02221MA1999999096141MD1999999-0021REMSYN076AAXX  10124 83236 32898 21802 10288 20208 39614 40094 82040 333 20222 59002;EQDQ01  00002PRCP06
0167832360999992005011018004-12150-045000FM-12+044099999V0200501N002610450019N0200001N1+03391+01961100531ADDAA106000091GF106991041081008001041001MA1999999095751MD1999999+0071REMSYN070AAXX  10184 83236 32598 60505 10339 20196 39575 40053 84840 333 58007;EQDQ01  00002PRCP06
0226832360999992005011100004-12150-045000FM-12+044099999V0200501N002110075019N0100001N1+02661+01971100911ADDAA106000091AY101061AY221061GF106991061071008001001001KA1240M+03511MA1999999096091MD1999999+0181MW1131REMSYN094AAXX  11004 83236 31597 60504 10266 20197 39609 40091 71302 86700 333 10351 29059 55/// 58018;EQDQ01  00002PRCP06
0186832360999992005011112004-12150-045000FM-12+044099999V0202301N001510075019N0200001N1+02791+02111101051ADDAA106000091GF106991051021008001061001KA1240N+02251MA1999999096211MD1999999+0071REMSYN076AAXX  11124 83236 32598 62303 10279 20211 39621 40105 85260 333 20225 58007;EQDQ01  00002PRCP06
0195832360999992005011118004-12150-045000FM-12+044099999V0201401N003610450019N0200001N1+03011+02001100671ADDAA106000091AY121061AY221061GF106991041051008001071051MA1999999095841MD1999999+0091MW1151REMSYN076AAXX  11184 83236 31598 61407 10301 20200 39584 40067 71522 84575 333 58009;EQDQ01  00002PRCP06
0198832360999992005011200004-12150-045000FM-12+044099999V0203201N001510075019N0200001N1+02511+02151100871ADDAA106000091GF105991051021008001061001KA1240M+03171MA1999999096031MD1999999-0061REMSYN088AAXX  12004 83236 32598 53203 10251 20215 39603 40087 85260 333 10317 29072 55/// 59006;EQDQ01  00002PRCP06
0186832360999992005011212004-12150-045000FM-12+044099999V0203601N002610450019N0200001N1+02781+02211100981ADDAA106000091GF106991041041008001061071KA1240N+02281MA1999999096141MD1999999-0071REMSYN076AAXX  12124 83236 32598 63605 10278 20221 39614 40098 84467 333 20228 59007;EQDQ01  00002PRCP06
0167832360999992005011218004-12150-045000FM-12+044099999V0203601N001510450019N0200001N1+02991+02221100511ADDAA106000091GF106991031021008001071061MA1999999095691MD1999999-0151REMSYN070AAXX  12184 83236 32598 63603 10299 20222 39569 40051 83276 333 59015;EQDQ01  00002PRCP06
0226832360999992005011300004-12150-045000FM-12+044099999V0200501N008710075019N0100001N1+02511+01911100941ADDAA106000091AY121061AY221061GF108991071051008001021999KA1240M+03241MA1999999096101MD1999999+0071MW1131REMSYN094AAXX  13004 83236 31597 80517 10251 20191 39610 40094 71322 8752/ 333 10324 29069 55/// 58007;EQDQ01  00002PRCP06
0209832360999992005011312004-12150-045000FM-12+044099999V0200501N002110075019N0100001N1+02371+02191101121ADDAY161061AY251061GF108991999071008001041999KA1240N+02081MA1999999096231MD1999999+0091MW1101REMSYN088AAXX  13124 83236 21597 80504 10237 20219 39623 40112 71065 8874/ 333 20208 58009 60204;EQDQ01+000082SCOTLC
0171832360999992005011318004-12150-045000FM-12+044099999V0200501N006210075019N0040001N1+02361+02111100851ADDAY161061AY261061GF108991071051008001021999MA1999999095921MD1999999+0231MW1101REMSYN082AAXX  13184 83236 21596 80512 10236 20211 39592 40085 71066 8752/ 333 58023 60201;
0202832360999992005011400004-12150-045000FM-12+044099999V0200501N004610075019N0040001N1+02231+02101100961ADDAY161061AY261061GF108991061071008001021999KA1240M+02531MA1999999096051MD1999999-0051MW1101REMSYN100AAXX  14004 83236 21596 80509 10223 20210 39605 40096 71066 8672/ 333 10253 29090 55/// 59005 69941;
0189832360999992005011412004-12150-045000FM-12+044099999V0200501N002610120019N0200001N1+02371+02131100981ADDAY121061AY221061GF108991071081008001041999KA1999N+02161MA1999999096071MD1999999-0161MW1101REMSYN087AAXX  14124 83236 21598 80505 10237 20213 39607 40098 71022 8784/ 33320216 59016 60204;
0171832360999992005011418004-12150-045000FM-12+044099999V0202701N004610075019N0040001N1+02501+02171100521ADDAY151061AY251061GF108991071061008001021999MA1999999095641MD1999999-0281MW1511REMSYN082AAXX  14184 83236 21596 82709 10250 20217 39564 40052 75155 8762/ 333 59028 69961;
0202832360999992005011500004-12150-045000FM-12+044099999V0200501N003110075019N0020001N1+02261+02211100821ADDAY161061AY261061GF108991051061008001999999KA1240M+03001MA1999999095921MD1999999-0131MW1611REMSYN100AAXX  15004 83236 21595 80506 10226 20221 39592 40082 76166 856// 333 10300 29091 55/// 59013 60181;
0190832360999992005011512004-12150-045000FM-12+044099999V0209999C000010075019N0040001N1+02301+02161101071ADDAY161061AY261061GF108991061071008001021999KA1240N+02151MA1999999096151MD1999999+0081MW1101REMSYN088AAXX  15124 83236 21596 80000 10230 20216 39615 40107 71066 8672/ 333 20215 58008 60494;
0167832360999992005011518004-12150-045000FM-12+044099999V0202701N002110075019N0040001N1+02691+02181100671ADDAA106000091GF108991071041008001071999MA1999999095801MD1999999+0161REMSYN070AAXX  15184 83236 32596 82704 10269 20218 39580 40067 8747/ 333 58016;EQDQ01  00002PRCP06
0198832360999992005011600004-12150-045000FM-12+044099999V0200501N004110075019N0040001N1+02351+02181100921ADDAA106000091GF108991061071008001021999KA1240M+02741MA1999999096011MD1999999+0091REMSYN088AAXX  16004 83236 32596 80508 10235 20218 39601 40092 8672/ 333 10274 29087 55/// 58009;EQDQ01  00002PRCP06
0186832360999992005011612004-12150-045000FM-12+044099999V0200501N001010075019N0100001N1+02541+02251100961ADDAA106000091GF107991061041008001071051KA1240N+02291MA1999999096081MD1999999-0071REMSYN076AAXX  16124 83236 32597 70502 10254 20225 39608 40096 86475 333 20229 59007;EQDQ01  00002PRCP06
0167832360999992005011618004-12150-045000FM-12+044099999V0203601N004610450019N0200001N1+02681+02221100511ADDAA106000091GF106991041031008001071051MA1999999095661MD1999999-0141REMSYN070AAXX  16184 83236 32598 63609 10268 20222 39566 40051 84375 333 59014;EQDQ01  00002PRCP06
0198832360999992005011700004-12150-045000FM-12+043999999V0200501N001512200019N0200001N1+02451+02171100581ADDAA106000091GF104991031021012501081051KA1240M+02941MA1999999095731MD1999999-0281REMSYN088AAXX  17004 83236 32698 40503 10245 20217 39573 40058 83285 333 10294 29082 55/// 59028;EQDQ01  00002PRCP06
0214832360999992005011712004-12150-045000FM-12+043999999V0200501N002110075019N0100001N1+02481+02211100941ADDAA106000091AY121061AY221061GF108991061051008001071999KA1240N+02231MA1999999096061MD1999999-0021MW1161REMSYN082AAXX  17124 83236 31597 80504 10248 20221 39606 40094 71622 8657/ 333 20223 59002;EQDQ01  00002PRCP06
0195832360999992005011718004-12150-045000FM-12+043999999V0203601N004110075019N0200001N1+02811+02201100521ADDAA106000091AY121061AY221061GF106991051051008001041051MA1999999095681MD1999999+0021MW1151REMSYN076AAXX  17184 83236 31598 63608 10281 20220 39568 40052 71522 85545 333 58002;EQDQ01  00002PRCP06
0198832360999992005011800004-12150-045000FM-12+044099999V0203601N001512200019N0200001N1+02331+02111100811ADDAA106000091GF104991031021012501071031KA1240M+03031MA1999999095931MD1999999+0201REMSYN088AAXX  18004 83236 32698 43603 10233 20211 39593 40081 83273 333 10303 29083 55/// 58020;EQDQ01  00002PRCP06
0186832360999992005011812004-12150-045000FM-12+044099999V0200501N002612200019N0200001N1+02631+02161100881ADDAA106000091GF104991031021008001001051KA1240N+02191MA1999999096011MD1999999-0051REMSYN076AAXX  18124 83236 32598 40505 10263 20216 39601 40088 83205 333 20219 59005;EQDQ01  00002PRCP06
0167832360999992005011818004-12150-045000FM-12+044099999V0203601N003112200019N0200001N1+03021+01211100531ADDAA106000091GF103991031021008001001001MA1999999095701MD1999999+0021REMSYN070AAXX  18184 83236 32598 33606 10302 20121 39570 40053 83200 333 58002;EQDQ01  00002PRCP06
0198832360999992005011900004-12150-045000FM-12+044099999V0209999C000010450019N0200001N1+02511+02231100781ADDAA106000091GF105991041021012501061051KA1240M+03061MA1999999095931MD1999999+0001REMSYN088AAXX  19004 83236 32698 50000 10251 20223 39593 40078 84265 333 10306 29076 55/// 58000;EQDQ01  00002PRCP06
0186832360999992005011912004-12150-045000FM-12+044099999V0209999C000010075019N0200001N1+02701+02281100921ADDAA106000091GF106991051021008001071051KA1240N+02311MA1999999096061MD1999999+0051REMSYN076AAXX  19124 83236 32598 60000 10270 20228 39606 40092 85275 333 20231 58005;EQDQ01  00002PRCP06
0167832360999992005011918004-12150-045000FM-12+044099999V0200501N003610075019N0100001N1+03021+02181100541ADDAA106000091GF108991061021008001081999MA1999999095721MD1999999+0021REMSYN070AAXX  19184 83236 32597 80507 10302 20218 39572 40054 8628/ 333 58002;EQDQ01  00002PRCP06
0198832360999992005012000004-12150-045000FM-12+044099999V0201401N001510120019N0100001N1+02451+02251100751ADDAA106000091GF108991071021012501071051KA1240M+03081MA1999999095901MD1999999-0031REMSYN088AAXX  20004 83236 32697 81403 10245 20225 39590 40075 87275 333 10308 29079 55/// 59003;EQDQ01  00002PRCP06
0190832360999992005012012004-12150-045000FM-12+044099999V0200501N001510120019N0100001N1+02391+02131101181ADDAY151061AY251061GF108991071081008001041999KA1240N+02211MA1999999096281MD1999999+0221MW1101REMSYN088AAXX  20124 83236 21597 80503 10239 20213 39628 40118 71055 8784/ 333 20221 58022 69994;
0167832360999992005012018004-12150-045000FM-12+044099999V0203601N003610075019N0200001N1+03001+02191100681ADDAA106000091GF106991051021008001001071MA1999999095841MD1999999+0121REMSYN070AAXX  20184 83236 32598 63607 10300 20219 39584 40068 85207 333 58012;EQDQ01  00002PRCP06
0198832360999992005012100004-12150-045000FM-12+044099999V0209999C000011050019N0200001N1+02521+02291100801ADDAA106000091GF105991031021012501001051KA1240M+03041MA1999999095931MD1999999+0031REMSYN088AAXX  21004 83236 32698 50000 10252 20229 39593 40080 83205 333 10304 29080 55/// 58003;EQDQ01  00002PRCP06
0190832360999992005012112004-12150-045000FM-12+044099999V0209999C000010075019N0040001N1+02191+02131101341ADDAY161061AY261061GF108991061071008001021999KA1240N+02001MA1999999096421MD1999999+0141MW1101REMSYN088AAXX  21124 83236 21596 80000 10219 20213 39642 40134 71066 8672/ 333 20200 58014 60344;
0167832360999992005012118004-12150-045000FM-12+044099999V0203601N001510450019N0200001N1+02941+02311100871ADDAA106000091GF105991041021008001071031MA1999999096021MD1999999+0181REMSYN070AAXX  21184 83236 32598 53603 10294 20231 39602 40087 84273 333 58018;EQDQ01  00002PRCP06
0198832360999992005012200004-12150-045000FM-12+044099999V0209999C000011050019N0200001N1+02431+02131101111ADDAA106000091GF106991031001022501061071KA1240M+03011MA1999999096191MD1999999+0261REMSYN088AAXX  22004 83236 32898 60000 10243 20213 39619 40111 83067 333 10301 29084 55/// 58026;EQDQ01  00002PRCP06
0186832360999992005012212004-12150-045000FM-12+044099999V0202301N001510450019N0200001N1+02641+02231101241ADDAA106000091GF106991041021012501061051KA1240N+02121MA1999999096361MD1999999-0061REMSYN076AAXX  22124 83236 32698 62303 10264 20223 39636 40124 84265 333 20212 59006;EQDQ01  00002PRCP06
0195832360999992005012218004-12150-045000FM-12+044099999V0201401N001510075019N0100001N1+02771+02161100831ADDAA106000091AY121061AY221061GF108991071051008001071999MA1999999095951MD1999999-0071MW1151REMSYN076AAXX  22184 83236 31597 81403 10277 20216 39595 40083 71522 8757/ 333 59007;EQDQ01  00002PRCP06
0186832360999992005012312004-12150-045000FM-12+043999999V0209999C000010120019N0100001N1+02421+02111101281ADDAA106000091GF108991071081008001041999KA1240N+02131MA1999999096341MD1999999-0021REMSYN076AAXX  23124 83236 32597 80000 10242 20211 39634 40128 8784/ 333 20213 59002;EQDQ01  00002PRCP06
0195832360999992005012318004-12150-045000FM-12+043999999V0201401N005710075019N0100001N1+02631+02121100811ADDAA106000091AY121061AY221061GF108991071051008001081999MA1999999095921MD1999999-0031MW1131REMSYN076AAXX  23184 83236 31597 81411 10263 20212 39592 40081 71322 8758/ 333 59003;EQDQ01  00002PRCP06
0186832360999992005012412004-12150-045000FM-12+043999999V0209999C000010450019N0200001N1+02481+02211101151ADDAA106000091GF106991041021008001061051KA1240N+02131MA1999999096251MD1999999-0091REMSYN076AAXX  24124 83236 32598 60000 10248 20221 39625 40115 84265 333 20213 59009;EQDQ01  00002PRCP06
0195832360999992005012418004-12150-045000FM-12+043999999V0200501N002110075019N0200001N1+03071+02191100691ADDAA106000091AY121061AY221061GF107991051051008001071051MA1999999095851MD1999999-0071MW1151REMSYN076AAXX  24184 83236 31598 70504 10307 20219 39585 40069 71522 85575 333 59007;EQDQ01  00002PRCP06
0198832360999992005012500004-12150-045000FM-12+044099999V0209999C000011050019N0200001N1+02411+02131100901ADDAA106000091GF105991031001022501061031KA1240M+03141MA1999999096021MD1999999-0251REMSYN088AAXX  25004 83236 32898 50000 10241 20213 39602 40090 83063 333 10314 29079 55/// 59025;EQDQ01  00002PRCP06
0186832360999992005012512004-12150-045000FM-12+044099999V0209999C000011050019N0200001N1+02631+02231101011ADDAA106000091GF106991041001022501061051KA1240N+02201MA1999999096141MD1999999-0111REMSYN076AAXX  25124 83236 32898 60000 10263 20223 39614 40101 84065 333 20220 59011;EQDQ01  00002PRCP06
0171832360999992005012518004-12150-045000FM-12+044099999V0203601N001510450019N0200001N1+03081+02291100571ADDAY151061AY251061GF106991041021012501071051MA1999999095751MD1999999-0101MW1031REMSYN082AAXX  25184 83236 21698 63603 10308 20229 39575 40057 70355 84275 333 59010 60011;
0226832360999992005012600004-12150-045000FM-12+044099999V0203601N002110450019N0100001N1+02591+02231100891ADDAA106000091AY121061AY221061GF108991041051008001081999KA1240M+03241MA1999999096041MD1999999+0021MW1131REMSYN094AAXX  26004 83236 31597 83604 10259 20223 39604 40089 71322 8458/ 333 10324 29076 55/// 58002;EQDQ01  00002PRCP06
0162832360999992005012612004-12150-045000FM-12+044099999V0200901N001010075019N0100001N1+02731+02191101091ADDGF107991051041008001021001KA1240N+02271MA1999999096241MD1999999+0101REMSYN082AAXX  26124 83236 22597 70902 10273 20219 39624 40109 85420 333 20227 58010 60014;
0171832360999992005012618004-12150-045000FM-12+044099999V0202701N003610075019N0100001N1+02761+02231100741ADDAY161061AY261061GF108991051071008001021999MA1999999095901MD1999999+0151MW1291REMSYN082AAXX  26184 83236 21597 82707 10276 20223 39590 40074 72966 8572/ 333 58015 60191;
0226832360999992005012700004-12150-045000FM-12+044099999V0209999C000010450019N0100001N1+02501+02321101081ADDAA106000091AY101061AY291061GF106991031041008001021001KA1240M+03011MA1999999096221MD1999999+0181MW1021REMSYN094AAXX  27004 83236 31597 60000 10250 20232 39622 40108 70209 83420 333 10301 29082 55/// 58018;EQDQ01  00002PRCP06
0162832360999992005012712004-12150-045000FM-12+044099999V0209999C000012200019N0100001N1+02501+02271101251ADDGF106991041021008001001041KA1240N+02141MA1999999096361MD1999999+0121REMSYN082AAXX  27124 83236 22597 60000 10250 20227 39636 40125 84204 333 20214 58012 60194;
0167832360999992005012718004-12150-045000FM-12+044099999V0201801N001010450019N0100001N1+02601+02191100991ADDAA106000091GF108991031071008001021999MA1999999096111MD1999999+0211REMSYN070AAXX  27184 83236 32597 81802 10260 20219 39611 40099 8372/ 333 58021;EQDQ01  00002PRCP06
0198832360999992005012800004-12150-045000FM-12+044099999V0201801N001510450019N0100001N1+02411+02241101081ADDAA106000091GF107991031071008001021001KA1240M+03211MA1999999096191MD1999999-0031REMSYN088AAXX  28004 83236 32597 71803 10241 20224 39619 40108 83720 333 10321 29087 55/// 59003;EQDQ01  00002PRCP06
0190832360999992005012812004-12150-045000FM-12+044099999V0202301N000510450019N0100001N1+02681+02241101231ADDAY151061AY251061GF106991041021008001081001KA1240N+02221MA1999999096351MD1999999-0011MW1021REMSYN088AAXX  28124 83236 21597 62301 10268 20224 39635 40123 70255 84280 333 20222 59001 69944;
0167832360999992005012818004-12150-045000FM-12+044099999V0203601N002610075019N0100001N1+03091+02201100681ADDAA106000091GF105991051021008001001001MA1999999095861MD1999999-0251REMSYN070AAXX  28184 83236 32597 53605 10309 20220 39586 40068 85200 333 59025;EQDQ01  00002PRCP06
0226832360999992005012900004-12150-045000FM-12+044099999V0209999C000012200019N0100001N1+02601+02311100681ADDAA106000091AY101061AY221061GF103991031091008001001001KA1240M+03291MA1999999095851MD1999999-0341MW1131REMSYN094AAXX  29004 83236 31597 30000 10260 20231 39585 40068 71302 83900 333 10329 29076 55/// 59034;EQDQ01  00002PRCP06
0186832360999992005012912004-12150-045000FM-12+044099999V0209999C000011050019N0200001N1+02671+02201100851ADDAA106000091GF105991021021008001061041KA1240N+02251MA1999999096011MD1999999-0341REMSYN076AAXX  29124 83236 32598 50000 10267 20220 39601 40085 82264 333 20225 59034;EQDQ01  00002PRCP06
0171832360999992005012918004-12150-045000FM-12+044099999V0201401N005110075019N0100001N1+02381+02211100661ADDAY161061AY261061GF107991051071008001021001MA1999999095771MD1999999-0091MW1951REMSYN082AAXX  29184 83236 21597 71410 10238 20221 39577 40066 79566 85720 333 59009 60471;
0202832360999992005013000004-12150-045000FM-12+043999999V0209999C000010450019N0040001N1+02271+02161100811ADDAY161061AY261061GF108991031071008001021999KA1240M+02931MA1999999095941MD1999999+0091MW1021REMSYN100AAXX  30004 83236 21596 80000 10227 20216 39594 40081 70266 8372/ 333 10293 29088 55/// 58009 60051;
0190832360999992005013012004-12150-045000FM-12+043999999V0201801N001012200019N0100001N1+02441+02131100921ADDAY151061AY251061GF106991041021008001001041KA1240N+02141MA1999999096021MD1999999+0011MW1021REMSYN088AAXX  30124 83236 21597 61802 10244 20213 39602 40092 70255 84204 333 20214 58001 60534;
0167832360999992005013018004-12150-045000FM-12+043999999V0200901N001012200019N0100001N1+02941+02051100451ADDAA106000091GF105991021021008001001061MA1999999095621MD1999999-0151REMSYN070AAXX  30184 83236 32597 50902 10294 20205 39562 40045 82206 333 59015;EQDQ01  00002PRCP06
0226832360999992005013100004-12150-045000FM-12+044099999V0200501N004110450019N0100001N1+02541+02231100661ADDAA106000091AY101061AY221061GF106991041031008001041001KA1240M+03071MA1999999095801MD1999999-0141MW1131REMSYN094AAXX  31004 83236 31597 60508 10254 20223 39580 40066 71302 84340 333 10307 29078 55/// 59014;EQDQ01  00002PRCP06
0186832360999992005013112004-12150-045000FM-12+044099999V0202701N000510075019N0100001N1+02451+02171100941ADDAA106000091GF108991051051008001021999KA1240N+02201MA1999999096071MD1999999+0051REMSYN076AAXX  31124 83236 32597 82701 10245 20217 39607 40094 8552/ 333 20220 58005;EQDQ01  00002PRCP06
0167832360999992005013118004-12150-045000FM-12+044099999V0202701N003110075019N0100001N1+02931+02211100481ADDAA106000091GF107991051051008001001041MA1999999095661MD1999999+0041REMSYN070AAXX  31184 83236 32597 72706 10293 20221 39566 40048 85504 333 58004;EQDQ01  00002PRCP06
0202832360999992005020100004-12150-045000FM-12+044099999V0209999C000010075019N0040001N1+02381+02291100811ADDAY161061AY261061GF108991051051008001021999KA1240M+03011MA1999999095931MD1999999+0131MW1121REMSYN100AAXX  01004 83236 21596 80000 10238 20229 39593 40081 71266 8552/ 333 10301 29086 55/// 58013 60071;
0162832360999992005020112004-12150-045000FM-12+044099999V0202301N000510120019N0100001N1+02501+02131100871ADDGF107991051081008001001041KA1240N+02181MA1999999095991MD1999999-0081REMSYN082AAXX  01124 83236 22597 72301 10250 20213 39599 40087 85804 333 20218 59008 60074;
0167832360999992005020118004-12150-045000FM-12+044099999V0200501N004612200019N0100001N1+02971+02231100401ADDAA106000091GF106991031021008001001061MA1999999095571MD1999999-0091REMSYN070AAXX  01184 83236 32597 60509 10297 20223 39557 40040 83206 333 59009;EQDQ01  00002PRCP06
0202832360999992005020200004-12150-045000FM-12+044099999V0209999C000010450019N0100001N1+02211+02121100771ADDAY191061AY261061GF107991031071008001021001KA1240M+03071MA1999999095881MD1999999-0051MW1021REMSYN100AAXX  02004 83236 21597 70000 10221 20212 39588 40077 70296 83720 333 10307 29083 55/// 59005 60071;
0162832360999992005020212004-12150-045000FM-12+044099999V0202301N001010450019N0100001N1+02421+02191100971ADDGF107991021021008001031061KA1240N+02101MA1999999096061MD1999999+0071REMSYN082AAXX  02124 83236 22597 72302 10242 20219 39606 40097 82236 333 20210 58007 60074;
0167832360999992005020218004-12150-045000FM-12+044099999V0200501N003112200019N0100001N1+03001+02141100601ADDAA106000091GF106991021021008001001061MA1999999095751MD1999999+0181REMSYN070AAXX  02184 83236 32597 60506 10300 20214 39575 40060 82206 333 58018;EQDQ01  00002PRCP06
0198832360999992005020300004-12150-045000FM-12+044099999V0209999C000010450019N0100001N1+02581+02371100831ADDAA106000091GF108991041071008001021999KA1240M+03081MA1999999095961MD1999999+0081REMSYN088AAXX  03004 83236 32597 80000 10258 20237 39596 40083 8472/ 333 10308 29081 55/// 58008;EQDQ01  00002PRCP06
0186832360999992005020312004-12150-045000FM-12+044099999V0202301N001510450019N0100001N1+02391+02151101191ADDAA106000091GF108991021021008001021999KA1240N+02271MA1999999096311MD1999999+0251REMSYN076AAXX  03124 83236 32597 82303 10239 20215 39631 40119 8222/ 333 20227 58025;EQDQ01  00002PRCP06
0167832360999992005020318004-12150-045000FM-12+044099999V0209999C000010450019N0100001N1+03001+02141100881ADDAA106000091GF107991041021008001061061MA1999999096051MD1999999+0301REMSYN070AAXX  03184 83236 32597 70000 10300 20214 39605 40088 84266 333 58030;EQDQ01  00002PRCP06
0198832360999992005020400004-12150-045000FM-12+044099999V0209999C000010450019N0100001N1+02491+02211101061ADDAA106000091GF106991021011008001021001KA1240M+03131MA1999999096171MD1999999+0211REMSYN088AAXX  04004 83236 32597 60000 10249 20221 39617 40106 82120 333 10313 29078 55/// 58021;EQDQ01  00002PRCP06
0186832360999992005020412004-12150-045000FM-12+044099999V0209999C000019999999N0100001N1+02611+01931101241ADDAA106000091GF105991001001999999001091KA1240N+02031MA1999999096361MD1999999+0051REMSYN076AAXX  04124 83236 32997 50000 10261 20193 39636 40124 80009 333 20203 58005;EQDQ01  00002PRCP06
0167832360999992005020418004-12150-045000FM-12+044099999V0200901N002111050019N0100001N1+03291+01951100871ADDAA106000091GF106991041021008001001021MA1999999096041MD1999999-0011REMSYN070AAXX  04184 83236 32597 60904 10329 20195 39604 40087 84202 333 59001;EQDQ01  00002PRCP06
0198832360999992005020500004-12150-045000FM-12+044099999V0202701N001012200019N0100001N1+02501+01891101161ADDAA106000091GF102991021011008001001001KA1240M+03391MA1999999096291MD1999999+0121REMSYN088AAXX  05004 83236 32597 22702 10250 20189 39629 40116 82100 333 10339 29062 55/// 58012;EQDQ01  00002PRCP06
0186832360999992005020512004-12150-045000FM-12+044099999V0209999C000012200019N0200001N1+02511+01861101281ADDAA106000091GF103991001001999999001041KA1240N+02161MA1999999096391MD1999999+0031REMSYN076AAXX  05124 83236 32998 30000 10251 20186 39639 40128 80004 333 20216 58003;EQDQ01  00002PRCP06
0167832360999992005020518004-12150-045000FM-12+044099999V0203601N001512200019N0200001N1+03231+02051100901ADDAA106000091GF104991021011008001001041MA1999999096061MD1999999+0041REMSYN070AAXX  05184 83236 32598 43603 10323 20205 39606 40090 82104 333 58004;EQDQ01  00002PRCP06
0208832360999992005020600004-12150-045000FM-12+043999999V0209999C000012200019N0200001N1+02551+02191100991ADDAA106000091GA1001+999999999GF100991001001999999001001KA1240M+03271MA1999999096131MD1999999-0161REMSYN082AAXX  06004 83236 32998 00000 10255 20219 39613 40099 333 10327 29069 55/// 59016;EQDQ01  00002PRCP06
0186832360999992005020612004-12150-045000FM-12+043999999V0202701N001012200019N0200001N1+02431+02091101241ADDAA106000091GF104991021011008001001011KA1240N+01981MA1999999096351MD1999999-0041REMSYN076AAXX  06124 83236 32598 42702 10243 20209 39635 40124 82101 333 20198 59004;EQDQ01  00002PRCP06
0176832360999992005020618004-12150-045000FM-12+043999999V0203601N001510075019N0200001N1+03301+02091100801ADDAA106000021AY101061AY291061GF105991051031008001001001MA1999999095971MD1999999-0091MW1951REMSYN076AAXX  06184 83236 31598 53603 10330 20209 39597 40080 79509 85300 333 59009;
0179832360999992005020700004-12150-045000FM-12+044099999V0201801N000510120019N0100001N1+02691+02081100811ADDAA106000021GF106991061081008001001001KA1240M+03371MA1999999095951MD1999999-0181REMSYN088AAXX  07004 83236 32597 61801 10269 20208 39595 40081 86800 333 10337 29067 55/// 59018;
0186832360999992005020712004-12150-045000FM-12+044099999V0201801N003112200019N0200001N1+02701+01991101031ADDAA106000091GF104991001001999999001051KA1240N+02041MA1999999096191MD1999999-0161REMSYN076AAXX  07124 83236 32998 41806 10270 20199 39619 40103 80005 333 20204 59016;EQDQ01  00002PRCP06
0202832360999992005020800004-12150-045000FM-12+044099999V0209999C000012200019N0200001N1+02541+02381100801ADDAY161061AY261061GF103991031011008001001001KA1240M+03331MA1999999095951MD1999999+0001MW1021REMSYN100AAXX  08004 83236 21598 30000 10254 20238 39595 40080 70266 83100 333 10333 29075 55/// 58000 60111;
0162832360999992005020812004-12150-045000FM-12+044099999V0201801N001012200019N0200001N1+02601+01991101051ADDGF104991001001999999001061KA1240N+02081MA1999999096181MD1999999-0011REMSYN082AAXX  08124 83236 22998 41802 10260 20199 39618 40105 80006 333 20208 59001 60114;
0167832360999992005020818004-12150-045000FM-12+044099999V0203601N001510450019N0200001N1+03221+02261100601ADDAA106000091GF105991031031008001041001MA1999999095781MD1999999-0101REMSYN070AAXX  08184 83236 32598 53603 10322 20226 39578 40060 83340 333 59010;EQDQ01  00002PRCP06
0186832360999992005020912004-12150-045000FM-12+044099999V0201801N003112200019N0200001N1+02581+01951101091ADDAA106000091GF103991011011008001031001KA1240N+02041MA1999999096221MD1999999+0041REMSYN076AAXX  09124 83236 32598 31806 10258 20195 39622 40109 81130 333 20204 58004;EQDQ01  00002PRCP06
0167832360999992005020918004-12150-045000FM-12+044099999V0200501N002612200019N0200001N1+03151+02181100611ADDAA106000091GF105991041031008001001011MA1999999095771MD1999999-0011REMSYN070AAXX  09184 83236 32598 50505 10315 20218 39577 40061 84301 333 59001;EQDQ01  00002PRCP06
0198832360999992005021000004-12150-045000FM-12+044099999V0209999C000012200019N0200001N1+02561+02171100741ADDAA106000091GF103991031001022501041001KA1240M+03351MA1999999095891MD1999999-0121REMSYN088AAXX  10004 83236 32898 30000 10256 20217 39589 40074 83040 333 10335 29071 55/// 59012;EQDQ01  00002PRCP06
0186832360999992005021012004-12150-045000FM-12+044099999V0202301N001012200019N0200001N1+02591+01971100901ADDAA106000091GF102991021021012501001001KA1240N+02091MA1999999096051MD1999999-0151REMSYN076AAXX  10124 83236 32698 22302 10259 20197 39605 40090 82200 333 20209 59015;EQDQ01  00002PRCP06
0167832360999992005021018004-12150-045000FM-12+044099999V0203601N003112200019N0200001N1+03171+01991100511ADDAA106000091GF103991031021008001001001MA1999999095691MD1999999-0081REMSYN070AAXX  10184 83236 32598 33606 10317 20199 39569 40051 83200 333 59008;EQDQ01  00002PRCP06
0226832360999992005021100004-12150-045000FM-12+044099999V0201801N001512200019N0200001N1+02491+02111100671ADDAA106000091AY121061AY221061GF104991041051008001001001KA1240M+03221MA1999999095821MD1999999-0071MW1131REMSYN094AAXX  11004 83236 31598 41803 10249 20211 39582 40067 71322 84500 333 10322 29070 55/// 59007;EQDQ01  00002PRCP06
0186832360999992005021112004-12150-045000FM-12+044099999V0209999C000012200019N0200001N1+02771+02211100821ADDAA106000091GF104991041021008001001001KA1240N+02141MA1999999095981MD1999999-0071REMSYN076AAXX  11124 83236 32598 40000 10277 20221 39598 40082 84200 333 20214 59007;EQDQ01  00002PRCP06
0171832360999992005021118004-12150-045000FM-12+044099999V0202301N001510075019N0100001N1+02431+02171100661ADDAY151061AY251061GF108991071051008001071999MA1999999095751MD1999999+0061MW1151REMSYN082AAXX  11184 83236 21597 82303 10243 20217 39575 40066 71555 8757/ 333 58006 60031;
0198832360999992005021200004-12150-045000FM-12+044099999V0209999C000010075019N0100001N1+02301+02201100811ADDAA106000091GF108991071071008001021999KA1240M+03061MA1999999095951MD1999999+0131REMSYN088AAXX  12004 83236 32597 80000 10230 20220 39595 40081 8772/ 333 10306 29086 55/// 58013;EQDQ01  00002PRCP06
0162832360999992005021212004-12150-045000FM-12+044099999V0200501N001510120019N0100001N1+02391+02191101001ADDGF108991071081008001041999KA1240N+02191MA1999999096101MD1999999+0121REMSYN082AAXX  12124 83236 22597 80503 10239 20219 39610 40100 8784/ 333 20219 58012 60034;
0171832360999992005021218004-12150-045000FM-12+044099999V0203601N007210075019N0100001N1+02601+02121100711ADDAY151061AY251061GF108991061051008001021999MA1999999095831MD1999999+0081MW1171REMSYN082AAXX  12184 83236 21597 83614 10260 20212 39583 40071 71755 8652/ 333 58008 60011;
0202832360999992005021300004-12150-045000FM-12+043999999V0203601N001510075019N0040001N1+02271+02191100961ADDAY151061AY251061GF108991071061008001999999KA1240M+02941MA1999999096061MD1999999+0111MW1511REMSYN100AAXX  13004 83236 21596 83603 10227 20219 39606 40096 75155 876// 333 10294 29089 55/// 58011 60031;
0190832360999992005021312004-12150-045000FM-12+043999999V0201401N002110120019N0040001N1+02341+02171101081ADDAY151061AY251061GF108991071081008001041999KA1240N+02151MA1999999096161MD1999999+0061MW1101REMSYN088AAXX  13124 83236 21596 81404 10234 20217 39616 40108 71055 8784/ 333 20215 58006 60094;
0171832360999992005021318004-12150-045000FM-12+043999999V0200501N002610450019N0200001N1+02601+02311100671ADDAY161061AY261061GF106991041021008001071051MA1999999095781MD1999999-0051MW1031REMSYN082AAXX  13184 83236 21598 60505 10260 20231 39578 40067 70366 84275 333 59005 60081;
0226832360999992005021400004-12150-045000FM-12+044099999V0209999C000010075019N0100001N1+02471+02321100671ADDAA106000091AY121061AY221061GF108991071051008001041999KA1240M+02851MA1999999095951MD1999999-0111MW1171REMSYN094AAXX  14004 83236 31597 80000 10247 20232 39595 40067 71722 8754/ 333 10285 29090 55/// 59011;EQDQ01  00002PRCP06
0190832360999992005021412004-12150-045000FM-12+044099999V0200501N001510075019N0040001N1+02401+02261101011ADDAY161061AY261061GF108991071061008001021999KA1240N+02251MA1999999096141MD1999999-0031MW1511REMSYN088AAXX  14124 83236 21596 80503 10240 20226 39614 40101 75166 8762/ 333 20225 59003 60214;
0171832360999992005021418004-12150-045000FM-12+044099999V0209999C000010075019N0040001N1+02461+02431100701ADDAY161061AY261061GF108991061061008001021999MA1999999095811MD1999999+0031MW1161REMSYN082AAXX  14184 83236 21596 80000 10246 20243 39581 40070 71666 8662/ 333 58003 60041;
0202832360999992005021500004-12150-045000FM-12+044099999V0200501N002610075019N0040001N1+02331+02251100791ADDAY161061AY251061GF108991071061008001999999KA1240M+03111MA1999999095901MD1999999-0051MW1101REMSYN100AAXX  15004 83236 21596 80505 10233 20225 39590 40079 71065 876// 333 10311 29096 55/// 59005 60071;
0190832360999992005021512004-12150-045000FM-12+044099999V0200901N001510075019N0040001N1+02541+02271100771ADDAY161061AY261061GF108991061071008001041999KA1240N+02251MA1999999095901MD1999999-0221MW1101REMSYN088AAXX  15124 83236 21596 80903 10254 20227 39590 40077 71066 8674/ 333 20225 59022 60344;
0171832360999992005021518004-12150-045000FM-12+044099999V0200501N003110450019N0200001N1+02891+02351100301ADDAY151061AY251061GF106991041051008001071031MA1999999095471MD1999999-0341MW1151REMSYN082AAXX  15184 83236 21598 60506 10289 20235 39547 40030 71555 84573 333 59034 69961;
0202832360999992005021600004-12150-045000FM-12+044099999V0203601N001510075019N0040001N1+02331+02271100641ADDAY161061AY261061GF108991061061008001999999KA1240M+02971MA1999999095771MD1999999-0131MW1511REMSYN100AAXX  16004 83236 21596 83603 10233 20227 39577 40064 75166 866// 333 10297 29088 55/// 59013 60341;
0190832360999992005021612004-12150-045000FM-12+044099999V0200501N001510075019N0040001N1+02371+02281100861ADDAY161061AY261061GF108991071071008001041999KA1240N+02271MA1999999095961MD1999999+0061MW1101REMSYN088AAXX  16124 83236 21596 80503 10237 20228 39596 40086 71066 8774/ 333 20227 58006 60774;
0195832360999992005021618004-12150-045000FM-12+044099999V0203601N001010075019N0040001N1+02441+02231100581ADDAA106000091AY191061AY291061GF108991061051008001071999MA1999999095701MD1999999+0231MW1171REMSYN076AAXX  16184 83236 31596 83602 10244 20223 39570 40058 71799 8657/ 333 58023;EQDQ01  00002PRCP06
0198832360999992005021700004-12150-045000FM-12+044099999V0200501N003110120019N0040001N1+02331+02201100801ADDAA106000091GF108991061081008001041999KA1240M+02901MA1999999095911MD1999999+0141REMSYN088AAXX  17004 83236 32596 80506 10233 20220 39591 40080 8684/ 333 10290 29092 55/// 58014;EQDQ01  00002PRCP06
0190832360999992005021712004-12150-045000FM-12+044099999V0200501N003110075019N0200001N1+02391+02241101151ADDAY151061AY251061GF108991061071008001041999KA1240N+02231MA1999999096241MD1999999+0281MW1101REMSYN088AAXX  17124 83236 21598 80506 10239 20224 39624 40115 71055 8674/ 333 20223 58028 69934;
0167832360999992005021718004-12150-045000FM-12+044099999V0203601N002110120019N0040001N1+02701+02241100791ADDAA106000091GF108991071081008001041999MA1999999095931MD1999999+0231REMSYN070AAXX  17184 83236 32596 83604 10270 20224 39593 40079 8784/ 333 58023;EQDQ01  00002PRCP06
0198832360999992005021800004-12150-045000FM-12+044099999V0209999C000010450019N0100001N1+02381+02191101061ADDAA106000091GF108991041021008001071051KA1240M+02771MA1999999096161MD1999999+0251REMSYN088AAXX  18004 83236 32597 80000 10238 20219 39616 40106 84275 333 10277 29086 55/// 58025;EQDQ01  00002PRCP06
0186832360999992005021812004-12150-045000FM-12+044099999V0209999C000010075019N0100001N1+02531+02271101281ADDAA106000091GF107991061021008001001071KA1240N+02171MA1999999096381MD1999999+0141REMSYN076AAXX  18124 83236 32597 70000 10253 20227 39638 40128 86207 333 20217 58014;EQDQ01  00002PRCP06
0195832360999992005021818004-12150-045000FM-12+044099999V0200901N003110075019N0100001N1+02951+02331100881ADDAA106000091AY121061AY221061GF108991071051008001041999MA1999999096021MD1999999+0091MW1151REMSYN076AAXX  18184 83236 31597 80906 10295 20233 39602 40088 71522 8754/ 333 58009;EQDQ01  00002PRCP06
0198832360999992005021900004-12150-045000FM-12+044099999V0200901N001010450019N0200001N1+02471+02361101151ADDAA106000091GF106991041021012501061071KA1240M+03111MA1999999096271MD1999999+0111REMSYN088AAXX  19004 83236 32698 60902 10247 20236 39627 40115 84267 333 10311 29086 55/// 58011;EQDQ01  00002PRCP06
0186832360999992005021912004-12150-045000FM-12+044099999V0209999C000012200019N0200001N1+02591+02291101231ADDAA106000091GF102991021021012501001001KA1240N+02231MA1999999096361MD1999999-0021REMSYN076AAXX  19124 83236 32698 20000 10259 20229 39636 40123 82200 333 20223 59002;EQDQ01  00002PRCP06
0167832360999992005021918004-12150-045000FM-12+044099999V0203601N003612200019N0200001N1+03141+02101100731ADDAA106000091GF104991041021008001001001MA1999999095911MD1999999-0111REMSYN070AAXX  19184 83236 32598 43607 10314 20210 39591 40073 84200 333 59011;EQDQ01  00002PRCP06
0226832360999992005022000004-12150-045000FM-12+043999999V0209999C000010450019N0200001N1+02511+02271100971ADDAA106000091AY121061AY221061GF106991041051008001041071KA1240M+03231MA1999999096111MD1999999-0161MW1131REMSYN094AAXX  20004 83236 31598 60000 10251 20227 39611 40097 71322 84547 333 10323 29078 55/// 59016;EQDQ01  00002PRCP06
0186832360999992005022012004-12150-045000FM-12+043999999V0202301N001012200019N0200001N1+02551+02251101131ADDAA106000091GF104991021021008001001051KA1240N+02191MA1999999096261MD1999999-0101REMSYN076AAXX  20124 83236 32598 42302 10255 20225 39626 40113 82205 333 20219 59010;EQDQ01  00002PRCP06
0167832360999992005022018004-12150-045000FM-12+043999999V0203601N001510450019N0200001N1+03221+02241100551ADDAA106000091GF106991041021008001081071MA1999999095741MD1999999-0171REMSYN070AAXX  20184 83236 32598 63603 10322 20224 39574 40055 84287 333 59017;EQDQ01  00002PRCP06
0202832360999992005022100004-12150-045000FM-12+044099999V0209999C000011050019N0200001N1+02411+02301100841ADDAY151061AY251061GF105991031021008001001051KA1240M+03271MA1999999095971MD1999999-0141MW1021REMSYN100AAXX  21004 83236 21598 50000 10241 20230 39597 40084 70255 83205 333 10327 29082 55/// 59014 69921;
0190832360999992005022112004-12150-045000FM-12+044099999V0209999C000010450019N0200001N1+02471+02321100911ADDAY151061AY251061GF106991041021008001051071KA1240N+02291MA1999999096031MD1999999-0231MW1021REMSYN088AAXX  21124 83236 21598 60000 10247 20232 39603 40091 70255 84257 333 20229 59023 69974;
0167832360999992005022118004-12150-045000FM-12+044099999V0200501N002610450019N0200001N1+03211+02381100331ADDAA106000091GF106991031021008001081051MA1999999095541MD1999999-0201REMSYN070AAXX  21184 83236 32598 60505 10321 20238 39554 40033 83285 333 59020;EQDQ01  00002PRCP06
0202832360999992005022200004-12150-045000FM-12+044099999V0209999C000010450019N0200001N1+02341+02221100681ADDAY161061AY291061GF106991031051008001071051KA1240M+03271MA1999999095801MD1999999-0171MW1131REMSYN100AAXX  22004 83236 21598 60000 10234 20222 39580 40068 71369 83575 333 10327 29085 55/// 59017 60031;
0190832360999992005022212004-12150-045000FM-12+044099999V0200901N001510075019N0200001N1+02561+02331100971ADDAY161061AY251061GF108991071021008001081999KA1240N+02311MA1999999096091MD1999999+0061MW1031REMSYN088AAXX  22124 83236 21598 80903 10256 20233 39609 40097 70365 8728/ 333 20231 58006 60054;
0167832360999992005022218004-12150-045000FM-12+044099999V0203601N003610075019N0100001N1+02821+02291100711ADDAA106000091GF108991061041008001071999MA1999999095861MD1999999+0321REMSYN070AAXX  22184 83236 32597 83607 10282 20229 39586 40071 8647/ 333 58032;EQDQ01  00002PRCP06
0198832360999992005022300004-12150-045000FM-12+044099999V0203601N003110075019N0040001N1+02281+02141101091ADDAA106000091GF108991061031008001071999KA1240M+03001MA1999999096191MD1999999+0391REMSYN088AAXX  23004 83236 32596 83606 10228 20214 39619 40109 8637/ 333 10300 29087 55/// 58039;EQDQ01  00002PRCP06
0186832360999992005022312004-12150-045000FM-12+044099999V0209999C000010450019N0200001N1+02441+02151101251ADDAA106000091GF106991041021008001021061KA1240N+02231MA1999999096341MD1999999+0251REMSYN076AAXX  23124 83236 32598 60000 10244 20215 39634 40125 84226 333 20223 58025;EQDQ01  00002PRCP06
0167832360999992005022318004-12150-045000FM-12+044099999V0203601N003111050019N0200001N1+03031+02131100851ADDAA106000091GF105991031021008001001051MA1999999096011MD1999999+0151REMSYN070AAXX  23184 83236 32598 53606 10303 20213 39601 40085 83205 333 58015;EQDQ01  00002PRCP06
0226832360999992005022400004-12150-045000FM-12+044099999V0209999C000010450019N0200001N1+02491+02321101161ADDAA106000091AY121061AY221061GF105991031051008001071031KA1240M+03111MA1999999096271MD1999999+0081MW1131REMSYN094AAXX  24004 83236 31598 50000 10249 20232 39627 40116 71322 83573 333 10311 29081 55/// 58008;EQDQ01  00002PRCP06
0186832360999992005022412004-12150-045000FM-12+044099999V0202301N001010450019N0200001N1+02621+02291101341ADDAA106000091GF106991041021012501051071KA1240N+02231MA1999999096461MD1999999+0121REMSYN076AAXX  24124 83236 32698 62302 10262 20229 39646 40134 84257 333 20223 58012;EQDQ01  00002PRCP06
0167832360999992005022418004-12150-045000FM-12+044099999V0201801N002110450019N0200001N1+02551+02311100911ADDAA106000091GF107991041031012501071051MA1999999096031MD1999999+0021REMSYN070AAXX  24184 83236 32698 71804 10255 20231 39603 40091 84375 333 58002;EQDQ01  00002PRCP06
0226832360999992005022500004-12150-045000FM-12+044099999V0209999C000010075019N0100001N1+02501+02341101141ADDAA106000091AY121061AY221061GF108991061051008001041999KA1240M+03141MA1999999096271MD1999999+0001MW1131REMSYN094AAXX  25004 83236 31597 80000 10250 20234 39627 40114 71322 8654/ 333 10314 29088 55/// 58000;EQDQ01  00002PRCP06
0186832360999992005022512004-12150-045000FM-12+044099999V0209999C000012200019N0200001N1+02541+02241101281ADDAA106000091GF103991031021008001001001KA1240N+02251MA1999999096391MD1999999-0071REMSYN076AAXX  25124 83236 32598 30000 10254 20224 39639 40128 83200 333 20225 59007;EQDQ01  00002PRCP06
0167832360999992005022518004-12150-045000FM-12+044099999V0203601N003612200019N0200001N1+03201+02121100771ADDAA106000091GF104991031021008001001041MA1999999095951MD1999999-0081REMSYN070AAXX  25184 83236 32598 43607 10320 20212 39595 40077 83204 333 59008;EQDQ01  00002PRCP06
0198832360999992005022600004-12150-045000FM-12+044099999V0201401N001512200019N0100001N1+02531+02251100871ADDAA106000091GF104991021001022501061081KA1240M+03221MA1999999096031MD1999999-0241REMSYN088AAXX  26004 83236 32897 41403 10253 20225 39603 40087 82068 333 10322 29074 55/// 59024;EQDQ01  00002PRCP06
0186832360999992005022612004-12150-045000FM-12+044099999V0201801N001512200019N0200001N1+02721+02241101111ADDAA106000091GF104991031021008001041001KA1240N+02191MA1999999096251MD1999999-0141REMSYN076AAXX  26124 83236 32598 41803 10272 20224 39625 40111 83240 333 20219 59014;EQDQ01  00002PRCP06
0167832360999992005022618004-12150-045000FM-12+044099999V0200501N004112200019N0200001N1+03271+02211100661ADDAA106000091GF104991031021008001001041MA1999999095851MD1999999-0101REMSYN070AAXX  26184 83236 32598 40508 10327 20221 39585 40066 83204 333 59010;EQDQ01  00002PRCP06
0186832360999992005022712004-12150-045000FM-12+043999999V0209999C000012200019N0200001N1+02701+02301101051ADDAA106000091GF103991001001999999001041KA1240N+02191MA1999999096201MD1999999-0051REMSYN076AAXX  27124 83236 32998 30000 10270 20230 39620 40105 80004 333 20219 59005;EQDQ01  00002PRCP06
0167832360999992005022718004-12150-045000FM-12+043999999V0200501N003112200019N0200001N1+03321+02171100611ADDAA106000091GF104991021021008001001041MA1999999095821MD1999999-0031REMSYN070AAXX  27184 83236 32598 40506 10332 20217 39582 40061 82204 333 59003;EQDQ01  00002PRCP06
0226832360999992005022800004-12150-045000FM-12+044099999V0209999C000012200019N0200001N1+02651+02241100971ADDAA106000091AY101061AY221061GF103991031031008001001001KA1240M+03391MA1999999096141MD1999999+0181MW1131REMSYN094AAXX  28004 83236 31598 30000 10265 20224 39614 40097 71302 83300 333 10339 29072 55/// 58018;EQDQ01  00002PRCP06
0186832360999992005022812004-12150-045000FM-12+044099999V0202701N001010450019N0200001N1+02581+02251101221ADDAA106000091GF107991031041008001021001KA1240N+02041MA1999999096351MD1999999+0151REMSYN076AAXX  28124 83236 32598 72702 10258 20225 39635 40122 83420 333 20204 58015;EQDQ01  00002PRCP06
0167832360999992005022818004-12150-045000FM-12+044099999V0202701N001512200019N0200001N1+02951+02291100751ADDAA106000091GF106991041021008001001041MA1999999095931MD1999999+0111REMSYN070AAXX  28184 83236 32598 62703 10295 20229 39593 40075 84204 333 58011;EQDQ01  00002PRCP06
0226832360999992005030100004-12150-045000FM-12+044099999V0201801N001510450019N0200001N1+02461+02231101011ADDAA106000091AY101061AY291061GF105991031071008001041001KA1240M+03341MA1999999096141MD1999999+0001MW1131REMSYN094AAXX  01004 83236 31598 51803 10246 20223 39614 40101 71309 83740 333 10334 29081 55/// 58000;EQDQ01  00002PRCP06
0186832360999992005030112004-12150-045000FM-12+044099999V0200501N001511050019N0200001N1+02681+02241101191ADDAA106000091GF106991021021008001061041KA1240N+02251MA1999999096321MD1999999-0031REMSYN076AAXX  01124 83236 32598 60503 10268 20224 39632 40119 82264 333 20225 59003;EQDQ01  00002PRCP06
0167832360999992005030118004-12150-045000FM-12+044099999V0202701N001511050019N0200001N1+03041+02311100721ADDAA106000091GF107991031021008001001061MA1999999095891MD1999999-0041REMSYN070AAXX  01184 83236 32598 72703 10304 20231 39589 40072 83206 333 59004;EQDQ01  00002PRCP06
0198832360999992005030200004-12150-045000FM-12+044099999V0201801N001012200019N0200001N1+02531+02331100881ADDAA106000091GF104991021021008001001041KA1240M+03251MA1999999096031MD1999999-0111REMSYN088AAXX  02004 83236 32598 41802 10253 20233 39603 40088 82204 333 10325 29080 55/// 59011;EQDQ01  00002PRCP06
0190832360999992005030212004-12150-045000FM-12+044099999V0209999C000012200019N0200001N1+02581+02311101111ADDAY151061AY251061GF106991041021008001001041KA1240N+02251MA1999999096241MD1999999-0081MW1021REMSYN088AAXX  02124 83236 21598 60000 10258 20231 39624 40111 70255 84204 333 20225 59008 69944;
0167832360999992005030218004-12150-045000FM-12+044099999V0203601N002111050019N0200001N1+03261+02151100611ADDAA106000091GF106991031021008001001031MA1999999095821MD1999999-0071REMSYN070AAXX  02184 83236 32598 63604 10326 20215 39582 40061 83203 333 59007;EQDQ01  00002PRCP06
0226832360999992005030300004-12150-045000FM-12+044099999V0201801N001510450019N0200001N1+02661+02351100951ADDAA106000091AY101061AY221061GF106991031071008001021001KA1240M+03371MA1999999096101MD1999999+0071MW1131REMSYN094AAXX  03004 83236 31598 61803 10266 20235 39610 40095 71302 83720 333 10337 29076 55/// 58007;EQDQ01  00002PRCP06
0190832360999992005030312004-12150-045000FM-12+044099999V0202701N001010450019N0100001N1+02471+02321101171ADDAY191061AY261061GF107991041021008001061041KA1240N+02251MA1999999096301MD1999999+0061MW1021REMSYN088AAXX  03124 83236 21597 72702 10247 20232 39630 40117 70296 84264 333 20225 58006 60054;
0198832360999992005030400004-12150-045000FM-12+044099999V0202701N000510450019N0100001N1+02621+02211101101ADDAA106000091GF108991041021008001021999KA1240M+03211MA1999999096231MD1999999+0131REMSYN088AAXX  04004 83236 32597 82701 10262 20221 39623 40110 8422/ 333 10321 29078 55/// 58013;EQDQ01  00002PRCP06
0186832360999992005030412004-12150-045000FM-12+044099999V0209999C000019999999N0200001N1+02641+02161101211ADDAA106000091GF106991051001008001071041KA1240N+02141MA1999999096351MD1999999+0051REMSYN076AAXX  04124 83236 32598 60000 10264 20216 39635 40121 85074 333 20214 58005;EQDQ01  00002PRCP06
0167832360999992005030418004-12150-045000FM-12+044099999V0203601N003611050019N0200001N1+03041+02181100841ADDAA106000091GF106991021021008001061061MA1999999096001MD1999999+0101REMSYN070AAXX  04184 83236 32598 63607 10304 20218 39600 40084 82266 333 58010;EQDQ01  00002PRCP06
0226832360999992005030500004-12150-045000FM-12+044099999V0209999C000010450019N0200001N1+02611+02331101081ADDAA106000091AY101061AY221061GF106991031071008001021001KA1240M+03111MA1999999096221MD1999999-0011MW1131REMSYN094AAXX  05004 83236 31598 60000 10261 20233 39622 40108 71302 83720 333 10311 29076 55/// 59001;EQDQ01  00002PRCP06
0186832360999992005030512004-12150-045000FM-12+044099999V0201801N001010075019N0100001N1+02601+02291101391ADDAA106000091GF108991051051008001021999KA1240N+02391MA1999999096521MD1999999+0171REMSYN076AAXX  05124 83236 32597 81802 10260 20229 39652 40139 8552/ 333 20239 58017;EQDQ01  00002PRCP06
0171832360999992005030518004-12150-045000FM-12+044099999V0203601N003610450019N0100001N1+02611+02391101121ADDAY161061AY261061GF108991031071008001021999MA1999999096261MD1999999+0261MW1951REMSYN082AAXX  05184 83236 21597 83607 10261 20239 39626 40112 79566 8372/ 333 58026 60041;
0202832360999992005030600004-12150-045000FM-12+043999999V0209999C000010450019N0100001N1+02351+02311101271ADDAY161061AY261061GF108991031071008001021999KA1240M+02791MA1999999096361MD1999999+0141MW1021REMSYN100AAXX  06004 83236 21597 80000 10235 20231 39636 40127 70266 8372/ 333 10279 29091 55/// 58014 60131;
0162832360999992005030612004-12150-045000FM-12+043999999V0209999C000010075019N0020001N1+02521+02341101271ADDGF108991051051008001021999KA1240N+02251MA1999999096371MD1999999-0151REMSYN082AAXX  06124 83236 22595 80000 10252 20234 39637 40127 8552/ 333 20225 59015 60174;
0167832360999992005030618004-12150-045000FM-12+043999999V0203601N002612200019N0100001N1+03071+02211100691ADDAA106000091GF105991031021008001001041MA1999999095871MD1999999-0391REMSYN070AAXX  06184 83236 32597 53605 10307 20221 39587 40069 83204 333 59039;EQDQ01  00002PRCP06
0178832360999992005030700004-12150-045000FM-12+044099999V0209999C000010075019N0100001N1+02511+02341100981ADDAA106000091GF108991051051008001021999KA1240M+03171MA1999999096111REMSYN082AAXX  07004 83236 32597 80000 10251 20234 39611 40098 8552/ 333 10317 29082 55///;EQDQ01  00002PRCP06
0190832360999992005030712004-12150-045000FM-12+044099999V0202701N000510075019N0040001N1+02231+02191101251ADDAY161061AY261061GF108991081001008001021999KA1240N+02201MA1999999096361MD1999999-0031MW1511REMSYN088AAXX  07124 83236 21596 82701 10223 20219 39636 40125 75166 8802/ 333 20220 59003 60354;
0171832360999992005030718004-12150-045000FM-12+044099999V0201801N001010450019N0040001N1+02431+02321100991ADDAY151061AY251061GF108991031051008001021999MA1999999096101MD1999999+0231MW1511REMSYN082AAXX  07184 83236 21596 81802 10243 20232 39610 40099 75155 8352/ 333 58023 60031;
0202832360999992005030800004-12150-045000FM-12+044099999V0201801N000510210019N0020001N1+02371+02221101291ADDAY151061AY251061GF108991081001022501021999KA1240M+02561MA1999999096361MD1999999+0251MW1501REMSYN100AAXX  08004 83236 21895 81801 10237 20222 39636 40129 75055 8802/ 333 10256 29095 55/// 58025 60041;
0190832360999992005030812004-12150-045000FM-12+044099999V0200501N001510450019N0100001N1+02351+02221101321ADDAY151061AY251061GF108991041021008001021999KA1240N+02161MA1999999096401MD1999999+0061MW1021REMSYN088AAXX  08124 83236 21597 80503 10235 20222 39640 40132 70255 8422/ 333 20216 58006 60094;
0167832360999992005030818004-12150-045000FM-12+044099999V0201801N001510450019N0100001N1+02731+02341100861ADDAA106000091GF106991031021008001041041MA1999999095991MD1999999-0111REMSYN070AAXX  08184 83236 32597 61803 10273 20234 39599 40086 83244 333 59011;EQDQ01  00002PRCP06
0198832360999992005030900004-12150-045000FM-12+044099999V0209999C000010450019N0100001N1+02511+02341101091ADDAA106000091GF108991041051008001021999KA1240M+02891MA1999999096021MD1999999-0161REMSYN088AAXX  09004 83236 32597 80000 10251 20234 39602 40109 8452/ 333 10289 29088 55/// 59016;EQDQ01  00002PRCP06
0190832360999992005030912004-12150-045000FM-12+044099999V0209999C000010450019N0100001N1+02551+02191101101ADDAY151061AY251061GF105991021021008001061001KA1240N+02231MA1999999096231MD1999999-0171MW1021REMSYN088AAXX  09124 83236 21597 50000 10255 20219 39623 40110 70255 82260 333 20223 59017 69924;
0195832360999992005030918004-12150-045000FM-12+044099999V0200501N007211050019N0100001N1+03011+02181100641ADDAA106000091AY101061AY221061GF106991041031008001001031MA1999999095811MD1999999-0181MW1151REMSYN076AAXX  09184 83236 31597 60514 10301 20218 39581 40064 71502 84303 333 59018;EQDQ01  00002PRCP06
0198832360999992005031000004-12150-045000FM-12+044099999V0209999C000012200019N0100001N1+02451+02301100951ADDAA106000091GF104991021021008001041001KA1240M+03101MA1999999096081MD1999999-0121REMSYN088AAXX  10004 83236 32597 40000 10245 20230 39608 40095 82240 333 10310 29081 55/// 59012;EQDQ01  00002PRCP06
0186832360999992005031012004-12150-045000FM-12+044099999V0209999C000010450019N0100001N1+02441+02271101231ADDAA106000091GF108991021021008001071999KA1240N+02271MA1999999096341MD1999999+0111REMSYN076AAXX  10124 83236 32597 80000 10244 20227 39634 40123 8227/ 333 20227 58011;EQDQ01  00002PRCP06
0167832360999992005031018004-12150-045000FM-12+044099999V0203601N002610450019N0100001N1+02811+02081100811ADDAA106000091GF107991021021008001061051MA1999999095961MD1999999+0151REMSYN070AAXX  10184 83236 32597 73605 10281 20208 39596 40081 82265 333 58015;EQDQ01  00002PRCP06
0198832360999992005031100004-12150-045000FM-12+044099999V0200901N002112200019N0100001N1+02441+02191101161ADDAA106000091GF104991021021008001001051KA1240M+03021MA1999999096271MD1999999+0191REMSYN088AAXX  11004 83236 32597 40904 10244 20219 39627 40116 82205 333 10302 29082 55/// 58019;EQDQ01  00002PRCP06
0186832360999992005031112004-12150-045000FM-12+044099999V0201801N000510450019N0100001N1+02501+02211101291ADDAA106000091GF105991021021008001081001KA1240N+02121MA1999999096391MD1999999+0051REMSYN076AAXX  11124 83236 32597 51801 10250 20221 39639 40129 82280 333 20212 58005;EQDQ01  00002PRCP06
0167832360999992005031118004-12150-045000FM-12+044099999V0203601N002112200019N0100001N1+03211+02091100771ADDAA106000091GF104991031021008001001021MA1999999095951MD1999999-0011REMSYN070AAXX  11184 83236 32597 43604 10321 20209 39595 40077 83202 333 59001;EQDQ01  00002PRCP06
0198832360999992005031200004-12150-045000FM-12+044099999V0209999C000012200019N0100001N1+02531+02381101061ADDAA106000091GF103991021021008001001041KA1240M+03301MA1999999096181MD1999999-0091REMSYN088AAXX  12004 83236 32597 30000 10253 20238 39618 40106 82204 333 10330 29080 55/// 59009;EQDQ01  00002PRCP06
0186832360999992005031212004-12150-045000FM-12+044099999V0209999C000010450019N0200001N1+02691+02311101141ADDAA106000091GF105991031021012501051071KA1240N+02251MA1999999096281MD1999999-0111REMSYN076AAXX  12124 83236 32698 50000 10269 20231 39628 40114 83257 333 20225 59011;EQDQ01  00002PRCP06
0195832360999992005031218004-12150-045000FM-12+044099999V0203601N001510075019N0200001N1+03131+02281100571ADDAA106000091AY121061AY221061GF108991061051008001071999MA1999999095751MD1999999-0201MW1151REMSYN076AAXX  12184 83236 31598 83603 10313 20228 39575 40057 71522 8657/ 333 59020;EQDQ01  00002PRCP06
0226832360999992005031300004-12150-045000FM-12+043999999V0209999C000010450019N0200001N1+02461+02321100921ADDAA106000091AY121061AY221061GF106991041051008001041071KA1240M+03231MA1999999096061MD1999999-0121MW1131REMSYN094AAXX  13004 83236 31598 60000 10246 20232 39606 40092 71322 84547 333 10323 29081 55/// 59012;EQDQ01  00002PRCP06
0190832360999992005031312004-12150-045000FM-12+043999999V0209999C000010075019N0100001N1+02321+02201101171ADDAY151061AY251061GF108991071061008001041999KA1240N+02231MA1999999096271MD1999999-0011MW1151REMSYN088AAXX  13124 83236 21597 80000 10232 20220 39627 40117 71555 8764/ 333 20223 59001 60064;
0167832360999992005031318004-12150-045000FM-12+043999999V0209999C000010075019N0100001N1+02731+02321100661ADDAA106000091GF108991071041008001071999MA1999999095801MD1999999+0051REMSYN070AAXX  13184 83236 32597 80000 10273 20232 39580 40066 8747/ 333 58005;EQDQ01  00002PRCP06
0202832360999992005031400004-12150-045000FM-12+043999999V0209999C000010075019N0100001N1+02251+02141101001ADDAY161061AY251061GF108991071071008001041999KA1240M+03011MA1999999096091MD1999999+0031MW1031REMSYN100AAXX  14004 83236 21597 80000 10225 20214 39609 40100 70365 8774/ 333 10301 29090 55/// 58003 60061;
0190832360999992005031412004-12150-045000FM-12+043999999V0203601N001510120019N0100001N1+02411+02231101151ADDAY121061AY221061GF108991061081008001041999KA1240N+02191MA1999999096241MD1999999-0031MW1101REMSYN088AAXX  14124 83236 21597 83603 10241 20223 39624 40115 71022 8684/ 333 20219 59003 60064;
0195832360999992005031418004-12150-045000FM-12+044099999V0200501N003110450019N0200001N1+02861+02281100601ADDAA106000091AY121061AY221061GF107991041051008001071041MA1999999095751MD1999999-0051MW1151REMSYN076AAXX  14184 83236 31598 70506 10286 20228 39575 40060 71522 84574 333 59005;EQDQ01  00002PRCP06
0202832360999992005031500004-12150-045000FM-12+044099999V0201801N001010075019N0100001N1+02251+02101100991ADDAY151061AY251061GF108991061071008001041999KA1240M+02971MA1999999096031MD1999999-0061MW1031REMSYN100AAXX  15004 83236 21597 81802 10225 20210 39603 40099 70355 8674/ 333 10297 29086 55/// 59006 69951;
0162832360999992005031512004-12150-045000FM-12+044099999V0209999C000010450019N0200001N1+02411+02191101071ADDGF105991031021008001061051KA1240N+02131MA1999999096151MD1999999-0091REMSYN082AAXX  15124 83236 22598 50000 10241 20219 39615 40107 83265 333 20213 59009 69954;
0167832360999992005031518004-12150-045000FM-12+044099999V0200501N002610450019N0200001N1+03031+02291100571ADDAA106000091GF106991041021008001041071MA1999999095741MD1999999-0011REMSYN070AAXX  15184 83236 32598 60505 10303 20229 39574 40057 84247 333 59001;EQDQ01  00002PRCP06
0226832360999992005031600004-12150-045000FM-12+044099999V0201401N001010075019N0100001N1+02571+02311100951ADDAA106000091AY121061AY221061GF108991051051008001071999KA1240M+03101MA1999999096081MD1999999+0051MW1131REMSYN094AAXX  16004 83236 31597 81402 10257 20231 39608 40095 71322 8557/ 333 10310 29081 55/// 58005;EQDQ01  00002PRCP06
0190832360999992005031612004-12150-045000FM-12+044099999V0202701N001010450019N0200001N1+02541+02291101211ADDAY161061AY251061GF106991041021008001071051KA1240N+02251MA1999999096341MD1999999+0191MW1031REMSYN088AAXX  16124 83236 21598 62702 10254 20229 39634 40121 70365 84275 333 20225 58019 60034;
0167832360999992005031618004-12150-045000FM-12+044099999V0200901N001510450019N0200001N1+03051+02231100761ADDAA106000091GF106991031021008001081051MA1999999095921MD1999999+0181REMSYN070AAXX  16184 83236 32598 60903 10305 20223 39592 40076 83285 333 58018;EQDQ01  00002PRCP06
0226832360999992005031700004-12150-045000FM-12+044099999V0209999C000010450019N0200001N1+02461+02321101141ADDAA106000091AY121061AY221061GF106991041051008001071041KA1240M+03161MA1999999096261MD1999999+0181MW1131REMSYN094AAXX  17004 83236 31598 60000 10246 20232 39626 40114 71322 84574 333 10316 29083 55/// 58018;EQDQ01  00002PRCP06
0186832360999992005031712004-12150-045000FM-12+044099999V0209999C000010450019N0200001N1+02651+02251101141ADDAA106000091GF105991031021008001051031KA1240N+02201MA1999999096271MD1999999-0071REMSYN076AAXX  17124 83236 32598 50000 10265 20225 39627 40114 83253 333 20220 59007;EQDQ01  00002PRCP06
0195832360999992005031718004-12150-045000FM-12+044099999V0201801N001510450019N0200001N1+02941+02211100701ADDAA106000091AY121061AY221061GF106991041051008001041071MA1999999095861MD1999999-0061MW1151REMSYN076AAXX  17184 83236 31598 61803 10294 20221 39586 40070 71522 84547 333 59006;EQDQ01  00002PRCP06
0202832360999992005031800004-12150-045000FM-12+044099999V0209999C000012200019N0200001N1+02391+02291100931ADDAY161061AY251061GF103991021051008001001071KA1240M+03191MA1999999096061MD1999999-0201MW1131REMSYN100AAXX  18004 83236 21598 30000 10239 20229 39606 40093 71365 82507 333 10319 29084 55/// 59020 60071;
0162832360999992005031812004-12150-045000FM-12+044099999V0209999C000010450019N0200001N1+02541+02211101201ADDGF106991031021008001071051KA1240N+02091MA1999999096311MD1999999+0041REMSYN082AAXX  18124 83236 22598 60000 10254 20221 39631 40120 83275 333 20209 58004 60074;
0167832360999992005031818004-12150-045000FM-12+044099999V0200901N001510450019N0200001N1+03141+02241100711ADDAA106000091GF106991041041008001071051MA1999999095871MD1999999+0011REMSYN070AAXX  18184 83236 32598 60903 10314 20224 39587 40071 84475 333 58001;EQDQ01  00002PRCP06
0198832360999992005031900004-12150-045000FM-12+044099999V0209999C000012200019N0200001N1+02381+02131101001ADDAA106000091GF104991021021012501061051KA1240M+03211MA1999999096121MD1999999+0061REMSYN088AAXX  19004 83236 32698 40000 10238 20213 39612 40100 82265 333 10321 29078 55/// 58006;EQDQ01  00002PRCP06
0186832360999992005031912004-12150-045000FM-12+044099999V0202701N001012200019N0200001N1+02671+02291101191ADDAA106000091GF104991031021012501001051KA1240N+02131MA1999999096311MD1999999+0001REMSYN076AAXX  19124 83236 32698 42702 10267 20229 39631 40119 83205 333 20213 58000;EQDQ01  00002PRCP06
0167832360999992005031918004-12150-045000FM-12+044099999V0203201N001510450019N0200001N1+03091+02211100731ADDAA106000091GF106991041041008001071051MA1999999095901MD1999999+0031REMSYN070AAXX  19184 83236 32598 63203 10309 20221 39590 40073 84475 333 58003;EQDQ01  00002PRCP06
0198832360999992005032000004-12150-045000FM-12+043999999V0209999C000011050019N0200001N1+02461+02251101061ADDAA106000091GF106991031001022501061051KA1240M+03261MA1999999096191MD1999999+0071REMSYN088AAXX  20004 83236 32898 60000 10246 20225 39619 40106 83065 333 10326 29079 55/// 58007;EQDQ01  00002PRCP06
0186832360999992005032012004-12150-045000FM-12+043999999V0200501N001510450019N0200001N1+02651+02271101281ADDAA106000091GF106991041021008001051071KA1240N+02171MA1999999096401MD1999999+0091REMSYN076AAXX  20124 83236 32598 60503 10265 20227 39640 40128 84257 333 20217 58009;EQDQ01  00002PRCP06
0167832360999992005032018004-12150-045000FM-12+043999999V0203601N003111050019N0200001N1+03071+02051100761ADDAA106000091GF105991031021008001001051MA1999999095931MD1999999+0031REMSYN070AAXX  20184 83236 32598 53606 10307 20205 39593 40076 83205 333 58003;EQDQ01  00002PRCP06
0198832360999992005032100004-12150-045000FM-12+044099999V0209999C000010450019N0200001N1+02451+02251101081ADDAA106000091GF106991041021008001071051KA1240M+03131MA1999999096211MD1999999+0021REMSYN088AAXX  21004 83236 32598 60000 10245 20225 39621 40108 84275 333 10313 29078 55/// 58002;EQDQ01  00002PRCP06
0186832360999992005032112004-12150-045000FM-12+044099999V0202301N001010075019N0100001N1+02591+02251101231ADDAA106000091GF108991071021008001071999KA1240N+02131MA1999999096351MD1999999-0051REMSYN076AAXX  21124 83236 32597 82302 10259 20225 39635 40123 8727/ 333 20213 59005;EQDQ01  00002PRCP06
0171832360999992005032118004-12150-045000FM-12+044099999V0209999C000010450019N0200001N1+02871+02371100881ADDAY151061AY251061GF106991041051008001081051MA1999999096001MD1999999+0071MW1151REMSYN082AAXX  21184 83236 21598 60000 10287 20237 39600 40088 71555 84585 333 58007 69921;
0198832360999992005032200004-12150-045000FM-12+044099999V0209999C000010450019N0200001N1+02271+02141101111ADDAA106000091GF106991031021008001061071KA1240M+02951MA1999999096221MD1999999+0011REMSYN088AAXX  22004 83236 32598 60000 10227 20214 39622 40111 83267 333 10295 29086 55/// 58001;EQDQ01  00002PRCP06
0190832360999992005032212004-12150-045000FM-12+044099999V0209999C000010450019N0200001N1+02341+02221101401ADDAY151061AY251061GF107991041051008001071051KA1240N+02131MA1999999096481MD1999999+0131MW1151REMSYN088AAXX  22124 83236 21598 70000 10234 20222 39648 40140 71555 84575 333 20213 58013 69944;
0167832360999992005032218004-12150-045000FM-12+044099999V0200501N001511050019N0200001N1+03081+02211100871ADDAA106000091GF105991031021008001001051MA1999999096021MD1999999+0021REMSYN070AAXX  22184 83236 32598 50503 10308 20221 39602 40087 83205 333 58002;EQDQ01  00002PRCP06
0226832360999992005032300004-12150-045000FM-12+044099999V0209999C000012200019N0200001N1+02411+02231101211ADDAA106000091AY121061AY221061GF102991021051008001001001KA1240M+03151MA1999999096301MD1999999+0081MW1131REMSYN094AAXX  23004 83236 31598 20000 10241 20223 39630 40121 71322 82500 333 10315 29083 55/// 58008;EQDQ01  00002PRCP06
0186832360999992005032312004-12150-045000FM-12+044099999V0209999C000012200019N0200001N1+02641+02251101381ADDAA106000091GF103991021021012501001031KA1240N+02111MA1999999096491MD1999999+0011REMSYN076AAXX  23124 83236 32698 30000 10264 20225 39649 40138 82203 333 20211 58001;EQDQ01  00002PRCP06
0195832360999992005032318004-12150-045000FM-12+044099999V0209999C000011050019N0200001N1+03161+02201100901ADDAA106000091AY121061AY221061GF105991031051008001001051MA1999999096061MD1999999+0041MW1151REMSYN076AAXX  23184 83236 31598 50000 10316 20220 39606 40090 71522 83505 333 58004;EQDQ01  00002PRCP06
0202832360999992005032400004-12150-045000FM-12+044099999V0209999C000012200019N0200001N1+02361+02281101171ADDAY151061AY251061GF102991021051012501001001KA1240M+03301MA1999999096291MD1999999+0011MW1131REMSYN100AAXX  24004 83236 21698 20000 10236 20228 39629 40117 71355 82500 333 10330 29082 55/// 58001 69911;
0190832360999992005032412004-12150-045000FM-12+044099999V0209999C000012200019N0200001N1+02561+02311101391ADDAY151061AY251061GF102991021021012501001001KA1240N+02141MA1999999096491MD1999999+0001MW1021REMSYN088AAXX  24124 83236 21698 20000 10256 20231 39649 40139 70255 82200 333 20214 58000 69934;
0167832360999992005032418004-12150-045000FM-12+044099999V0200501N001511050019N0200001N1+03241+02131100851ADDAA106000091GF105991041021008001001051MA1999999096021MD1999999-0041REMSYN070AAXX  24184 83236 32598 50503 10324 20213 39602 40085 84205 333 59004;EQDQ01  00002PRCP06
0202832360999992005032500004-12150-045000FM-12+044099999V0209999C000012200019N0200001N1+02331+02131101121ADDAY151061AY251061GF102991021001022501061001KA1240M+03301MA1999999096231MD1999999-0061MW1021REMSYN100AAXX  25004 83236 21898 20000 10233 20213 39623 40112 70255 82060 333 10330 29079 55/// 59006 69921;
0162832360999992005032512004-12150-045000FM-12+044099999V0200501N001511050019N0200001N1+02621+02251101331ADDGF105991041021012501001051KA1240N+02081MA1999999096431MD1999999-0061REMSYN082AAXX  25124 83236 22698 50503 10262 20225 39643 40133 84205 333 20208 59006 69924;
0167832360999992005032518004-12150-045000FM-12+044099999V0200501N003610450019N0200001N1+03151+02161100751ADDAA106000091GF105991031021008001071031MA1999999095911MD1999999-0111REMSYN070AAXX  25184 83236 32598 50507 10315 20216 39591 40075 83273 333 59011;EQDQ01  00002PRCP06
0198832360999992005032600004-12150-045000FM-12+044099999V0202301N001012200019N0200001N1+02411+02231100941ADDAA106000091GF104991041001022501061001KA1240M+03201MA1999999096071MD1999999-0161REMSYN088AAXX  26004 83236 32898 42302 10241 20223 39607 40094 84060 333 10320 29079 55/// 59016;EQDQ01  00002PRCP06
0186832360999992005032612004-12150-045000FM-12+044099999V0209999C000010450019N0200001N1+02581+02231101131ADDAA106000091GF105991031021008001051071KA1240N+02091MA1999999096251MD1999999-0181REMSYN076AAXX  26124 83236 32598 50000 10258 20223 39625 40113 83257 333 20209 59018;EQDQ01  00002PRCP06
0167832360999992005032618004-12150-045000FM-12+044099999V0200501N002110120019N0200001N1+03261+02151100581ADDAA106000091GF106991051021012501071051MA1999999095761MD1999999-0151REMSYN070AAXX  26184 83236 32698 60504 10326 20215 39576 40058 85275 333 59015;EQDQ01  00002PRCP06
0202832360999992005032700004-12150-045000FM-12+043999999V0201801N001010075019N0200001N1+02401+02261100921ADDAY151061AY251061GF107991051021008001071051KA1240M+03291MA1999999096051MD1999999-0021MW1021REMSYN100AAXX  27004 83236 21598 71802 10240 20226 39605 40092 70255 85275 333 10329 29079 55/// 59002 69921;
0190832360999992005032712004-12150-045000FM-12+043999999V0209999C000011050019N0200001N1+02541+02191101131ADDAY151061AY251061GF105991021011008001061041KA1240N+02091MA1999999096241MD1999999-0011MW1021REMSYN088AAXX  27124 83236 21598 50000 10254 20219 39624 40113 70255 82164 333 20209 59001 69944;
0167832360999992005032718004-12150-045000FM-12+043999999V0203601N001011050019N0200001N1+03261+02051100581ADDAA106000091GF105991031031008001001031MA1999999095761MD1999999+0001REMSYN070AAXX  27184 83236 32598 53602 10326 20205 39576 40058 83303 333 58000;EQDQ01  00002PRCP06
0198832360999992005032800004-12150-045000FM-12+043999999V0209999C000010450019N0100001N1+02451+02211101041ADDAA106000091GF108991041071008001021999KA1240M+03351MA1999999096161MD1999999+0111REMSYN088AAXX  28004 83236 32597 80000 10245 20221 39616 40104 8472/ 333 10335 29076 55/// 58011;EQDQ01  00002PRCP06
0186832360999992005032812004-12150-045000FM-12+043999999V0209999C000012200019N0200001N1+02601+02171101121ADDAA106000091GF104991021021008001061001KA1240N+02121MA1999999096241MD1999999+0001REMSYN076AAXX  28124 83236 32598 40000 10260 20217 39624 40112 82260 333 20212 58000;EQDQ01  00002PRCP06
0167832360999992005032818004-12150-045000FM-12+043999999V0200501N004611050019N0200001N1+03041+02091100641ADDAA106000091GF105991031021008001001021MA1999999095811MD1999999+0051REMSYN070AAXX  28184 83236 32598 50509 10304 20209 39581 40064 83202 333 58005;EQDQ01  00002PRCP06
0226832360999992005032900004-12150-045000FM-12+044099999V0203601N001510450019N0100001N1+02581+02211100921ADDAA106000091AY101061AY221061GF108991041071008001021999KA1240M+03151MA1999999096071MD1999999-0091MW1131REMSYN094AAXX  29004 83236 31597 83603 10258 20221 39607 40092 71302 8472/ 333 10315 29074 55/// 59009;EQDQ01  00002PRCP06
0190832360999992005032912004-12150-045000FM-12+044099999V0209999C000010450019N0100001N1+02461+02231101271ADDAY101061AY221061GF107991041051008001071001KA1240N+02351MA1999999096381MD1999999+0141MW1051REMSYN088AAXX  29124 83236 21597 70000 10246 20223 39638 40127 70502 84570 333 20235 58014 69914;
0167832360999992005032918004-12150-045000FM-12+044099999V0200501N004112200019N0200001N1+03121+01991100711ADDAA106000091GF104991041021008001001001MA1999999095901MD1999999+0091REMSYN070AAXX  29184 83236 32598 40508 10312 20199 39590 40071 84200 333 58009;EQDQ01  00002PRCP06
0226832360999992005033000004-12150-045000FM-12+044099999V0209999C000012200019N0200001N1+02531+02171101091ADDAA106000091AY101061AY221061GF104991031031008001041001KA1240M+03201MA1999999096211MD1999999+0171MW1131REMSYN094AAXX  30004 83236 31598 40000 10253 20217 39621 40109 71302 83340 333 10320 29075 55/// 58017;EQDQ01  00002PRCP06
0186832360999992005033012004-12150-045000FM-12+044099999V0200501N001012200019N0200001N1+02681+02181101241ADDAA106000091GF104991031011008001001011KA1240N+02141MA1999999096371MD1999999-0011REMSYN076AAXX  30124 83236 32598 40502 10268 20218 39637 40124 83101 333 20214 59001;EQDQ01  00002PRCP06
0167832360999992005033018004-12150-045000FM-12+044099999V0201801N003610450019N0200001N1+02811+02271100821ADDAA106000091GF105991041021008001041001MA1999999095951MD1999999+0051REMSYN070AAXX  30184 83236 32598 51807 10281 20227 39595 40082 84240 333 58005;EQDQ01  00002PRCP06
0226832360999992005033100004-12150-045000FM-12+044099999V0201801N001510450019N0100001N1+02531+02311101031ADDAA106000091AY101061AY221061GF105991031031008001041001KA1240M+03071MA1999999096171MD1999999-0041MW1131REMSYN094AAXX  31004 83236 31597 51803 10253 20231 39617 40103 71302 83340 333 10307 29080 55/// 59004;EQDQ01  00002PRCP06
0162832360999992005033112004-12150-045000FM-12+044099999V0200501N001010075019N0100001N1+02561+02271101261ADDGF108991061021008001071999KA1240N+02251MA1999999096381MD1999999+0011REMSYN082AAXX  31124 83236 22597 80502 10256 20227 39638 40126 8627/ 333 20225 58001 69924;
0167832360999992005033118004-12150-045000FM-12+044099999V0201801N002110450019N0200001N1+02541+02211100881ADDAA106000091GF106991041041008001081071MA1999999096001MD1999999+0051REMSYN070AAXX  31184 83236 32598 61804 10254 20221 39600 40088 84487 333 58005;EQDQ01  00002PRCP06
0226832360999992005040100004-12150-045000FM-12+044099999V0202301N001512200019N0200001N1+02381+02281101091ADDAA106000091AY121061AY221061GF102991021051008001001001KA1240M+03251MA1999999096201MD1999999+0031MW1131REMSYN094AAXX  01004 83236 31598 22303 10238 20228 39620 40109 71322 82500 333 10325 29088 55/// 58003;EQDQ01  00002PRCP06
0186832360999992005040112004-12150-045000FM-12+044099999V0209999C000010450019N0100001N1+02681+02241101321ADDAA106000091GF106991021021008001061001KA1240N+02251MA1999999096441MD1999999+0061REMSYN076AAXX  01124 83236 32597 60000 10268 20224 39644 40132 82260 333 20225 58006;EQDQ01  00002PRCP06
0195832360999992005040118004-12150-045000FM-12+044099999V0200901N003611050019N0100001N1+02831+02051100901ADDAA106000091AY101061AY221061GF105991031031008001001031MA1999999096051MD1999999+0051MW1151REMSYN076AAXX  01184 83236 31597 50907 10283 20205 39605 40090 71502 83303 333 58005;EQDQ01  00002PRCP06
0198832360999992005040200004-12150-045000FM-12+044099999V0209999C000012200019N0100001N1+02551+02351101111ADDAA106000091GF103991031041008001001001KA1240M+03251MA1999999096251MD1999999+0051REMSYN088AAXX  02004 83236 32597 30000 10255 20235 39625 40111 83400 333 10325 29079 55/// 58005;EQDQ01  00002PRCP06
0190832360999992005040212004-12150-045000FM-12+044099999V0201801N001012200019N0200001N1+02651+02161101301ADDAY161061AY261061GF104991041021008001001001KA1240N+02121MA1999999096431MD1999999+0011MW1021REMSYN088AAXX  02124 83236 21598 41802 10265 20216 39643 40130 70266 84200 333 20212 58001 60144;
0195832360999992005040218004-12150-045000FM-12+044099999V0201401N003610075019N0200001N1+03181+02221100891ADDAA106000091AY101061AY221061GF105991051031008001001001MA1999999096061MD1999999+0011MW1151REMSYN076AAXX  02184 83236 31598 51407 10318 20222 39606 40089 71502 85300 333 58001;EQDQ01  00002PRCP06
0202832360999992005040300004-12150-045000FM-12+043999999V0209999C000012200019N0200001N1+02351+02281101121ADDAY161061AY261061GF103991031031008001001001KA1240M+03251MA1999999096241MD1999999-0011MW1131REMSYN100AAXX  03004 83236 21598 30000 10235 20228 39624 40112 71366 83300 333 10325 29080 55/// 59001 60061;
0162832360999992005040312004-12150-045000FM-12+043999999V0200501N001012200019N0200001N1+02581+02171101441ADDGF104991041021008001001001KA1240N+02251MA1999999096541MD1999999+0111REMSYN082AAXX  03124 83236 22598 40502 10258 20217 39654 40144 84200 333 20225 58011 60064;
0167832360999992005040318004-12150-045000FM-12+043999999V0203601N002110075019N0200001N1+03111+01991100911ADDAA106000091GF105991051021008001001001MA1999999096081MD1999999+0021REMSYN070AAXX  03184 83236 32598 53604 10311 20199 39608 40091 85200 333 58002;EQDQ01  00002PRCP06
0198832360999992005040400004-12150-045000FM-12+044099999V0209999C000012200019N0200001N1+02541+02331101101ADDAA106000091GF102991021061008001001001KA1240M+03191MA1999999096231MD1999999-0011REMSYN088AAXX  04004 83236 32598 20000 10254 20233 39623 40110 82600 333 10319 29078 55/// 59001;EQDQ01  00002PRCP06
0190832360999992005040412004-12150-045000FM-12+044099999V0201801N001012200019N0200001N1+02711+02201101451ADDAY151061AY251061GF103991031011008001001001KA1240N+02041MA1999999096571MD1999999+0041MW1021REMSYN088AAXX  04124 83236 21598 31802 10271 20220 39657 40145 70255 83100 333 20204 58004 69924;
0195832360999992005040418004-12150-045000FM-12+044099999V0200501N005711050019N0200001N1+03181+02131100881ADDAA106000091AY101061AY221061GF105991031031008001001031MA1999999096061MD1999999-0021MW1151REMSYN076AAXX  04184 83236 31598 50511 10318 20213 39606 40088 71502 83303 333 59002;EQDQ01  00002PRCP06
0202832360999992005040500004-12150-045000FM-12+044099999V0209999C000012200019N0200001N1+02401+02311101191ADDAY191061AY261061GF103991031041008001001001KA1240M+03251MA1999999096321MD1999999+0091MW1021REMSYN100AAXX  05004 83236 21598 30000 10240 20231 39632 40119 70296 83400 333 10325 29080 55/// 58009 69951;
0190832360999992005040512004-12150-045000FM-12+044099999V0209999C000012200019N0200001N1+02511+02111101381ADDAY151061AY251061GF104991011011008001001041KA1240N+02111MA1999999096481MD1999999-0091MW1021REMSYN088AAXX  05124 83236 21598 40000 10251 20211 39648 40138 70255 81104 333 20211 59009 69964;
0195832360999992005040518004-12150-045000FM-12+044099999V0200501N005110075019N0200001N1+03101+02231100961ADDAA106000091AY101061AY221061GF106991051021008001001041MA1999999096121MD1999999+0061MW1151REMSYN076AAXX  05184 83236 31598 60510 10310 20223 39612 40096 71502 85204 333 58006;EQDQ01  00002PRCP06
0202832360999992005040600004-12150-045000FM-12+044099999V0209999C000012200019N0200001N1+02421+02281101261ADDAY161061AY261061GF103991031061008001001001KA1240M+03211MA1999999096371MD1999999+0051MW1021REMSYN100AAXX  06004 83236 21598 30000 10242 20228 39637 40126 70266 83600 333 10321 29081 55/// 58005 60011;
0162832360999992005040612004-12150-045000FM-12+044099999V0209999C000012200019N0200001N1+02521+01961101461ADDGF104991001001999999001081KA1240N+01981MA1999999096551MD1999999+0071REMSYN082AAXX  06124 83236 22998 40000 10252 20196 39655 40146 80008 333 20198 58007 60014;
0167832360999992005040618004-12150-045000FM-12+044099999V0200901N001512200019N0200001N1+03201+01891101011ADDAA106000091GF105991041021008001001041MA1999999096161MD1999999+0041REMSYN070AAXX  06184 83236 32598 50903 10320 20189 39616 40101 84204 333 58004;EQDQ01  00002PRCP06
0198832360999992005040700004-12150-045000FM-12+044099999V0209999C000010120019N0200001N1+02421+02151101211ADDAA106000091GF106991061081008001001001KA1240M+03371MA1999999096321MD1999999-0051REMSYN088AAXX  07004 83236 32598 60000 10242 20215 39632 40121 86800 333 10337 29072 55/// 59005;EQDQ01  00002PRCP06
0186832360999992005040712004-12150-045000FM-12+044099999V0203601N001012200019N0200001N1+02681+02111101311ADDAA106000091GF104991031021008001041001KA1240N+02191MA1999999096431MD1999999-0121REMSYN076AAXX  07124 83236 32598 43602 10268 20211 39643 40131 83240 333 20219 59012;EQDQ01  00002PRCP06
0171832360999992005040718004-12150-045000FM-12+044099999V0202701N000512200019N0200001N1+02641+02291101001ADDAY161061AY261061GF104991031021008001041001MA1999999096121MD1999999-0041MW1021REMSYN082AAXX  07184 83236 21598 42701 10264 20229 39612 40100 70266 83240 333 59004 60101;
0202832360999992005040800004-12150-045000FM-12+044099999V0209999C000012200019N0200001N1+02371+02171101171ADDAY161061AY261061GF102991021011008001001001KA1240M+03121MA1999999096291MD1999999-0031MW1021REMSYN100AAXX  08004 83236 21598 20000 10237 20217 39629 40117 70266 82100 333 10312 29082 55/// 59003 60021;
0172832360999992005040812004-12150-045000FM-12+044099999V0201801N001512200019N0200001N1+02511+02031101381ADDGA1001+999999999GF100991001001999999001001KA1240N+01981MA1999999096481MD1999999+0031REMSYN076AAXX  08124 83236 22998 01803 10251 20203 39648 40138 333 20198 58003 60124;
0167832360999992005040818004-12150-045000FM-12+044099999V0201401N002612200019N0200001N1+03181+01871100851ADDAA106000091GF104991041021008001001001MA1999999096051MD1999999-0071REMSYN070AAXX  08184 83236 32598 41405 10318 20187 39605 40085 84200 333 59007;EQDQ01  00002PRCP06
0208832360999992005040900004-12150-045000FM-12+044099999V0202701N000512200019N0200001N1+02321+02071101121ADDAA106000091GA1001+999999999GF100991001001999999001001KA1240M+03231MA1999999096221MD1999999-0071REMSYN082AAXX  09004 83236 32998 02701 10232 20207 39622 40112 333 10323 29073 55/// 59007;EQDQ01  00002PRCP06
0196832360999992005040912004-12150-045000FM-12+044099999V0201801N000512200019N0200001N1+02451+01921101321ADDAA106000091GA1001+999999999GF100991001001999999001001KA1240N+01931MA1999999096411MD1999999-0071REMSYN070AAXX  09124 83236 32998 01801 10245 20192 39641 40132 333 20193 59007;EQDQ01  00002PRCP06
0167832360999992005040918004-12150-045000FM-12+044099999V0201401N005112200019N0200001N1+03111+01621100871ADDAA106000091GF104991041021008001001001MA1999999096011MD1999999-0041REMSYN070AAXX  09184 83236 32598 41410 10311 20162 39601 40087 84200 333 59004;EQDQ01  00002PRCP06
0198832360999992005041000004-12150-045000FM-12+044099999V0209999C000012200019N0200001N1+02251+02011101101ADDAA106000091GF102991021011008001001001KA1240M+03171MA1999999096191MD1999999-0031REMSYN088AAXX  10004 83236 32598 20000 10225 20201 39619 40110 82100 333 10317 29072 55/// 59003;EQDQ01  00002PRCP06
0162832360999992005041012004-12150-045000FM-12+044099999V0209999C000012200019N0200001N1+02411+01931101311ADDGF102991021011008001001001KA1240N+01891MA1999999096391MD1999999-0021REMSYN082AAXX  10124 83236 22598 20000 10241 20193 39639 40131 82100 333 20189 59002 60024;
0183832360999992005041018004-12150-045000FM-12+044099999V0200501N002612200019N0200001N1+03091+01921100482ADDAA106000091GF103991031021008001001001MA1999999095981MD1999999-0031REMSYN070AAXX  10184 83236 32598 30505 10309 20192 39598 40048 83200 333 59003;EQDQ01+100483APOSLPQ02  00002PRCP06
0208832360999992005041100004-12150-045000FM-12+044099999V0201801N001512200019N0200001N1+02271+01881101091ADDAA106000091GA1001+999999999GF100991001001999999001001KA1240M+03161MA1999999096181MD1999999-0011REMSYN082AAXX  11004 83236 32998 01803 10227 20188 39618 40109 333 10316 29071 55/// 59001;EQDQ01  00002PRCP06
0186832360999992005041112004-12150-045000FM-12+044099999V0201801N001512200019N0200001N1+02511+01871101271ADDAA106000091GF102991021001022501051001KA1240N+01811MA1999999096361MD1999999-0031REMSYN076AAXX  11124 83236 32898 21803 10251 20187 39636 40127 82050 333 20181 59003;EQDQ01  00002PRCP06
0167832360999992005041118004-12150-045000FM-12+044099999V0200501N002110075019N0200001N1+03121+01851100781ADDAA106000091GF106991051021008001001051MA1999999095921MD1999999-0061REMSYN070AAXX  11184 83236 32598 60504 10312 20185 39592 40078 85205 333 59006;EQDQ01  00002PRCP06
0198832360999992005041200004-12150-045000FM-12+044099999V0209999C000010450019N0200001N1+02531+02231100991ADDAA106000091GF106991041021008001051071KA1240M+03271MA1999999096121MD1999999-0061REMSYN088AAXX  12004 83236 32598 60000 10253 20223 39612 40099 84257 333 10327 29071 55/// 59006;EQDQ01  00002PRCP06
0186832360999992005041212004-12150-045000FM-12+044099999V0202301N001012200019N0200001N1+02511+01961101281ADDAA106000091GF102991021011012501001001KA1240N+01911MA1999999096401MD1999999+0041REMSYN076AAXX  12124 83236 32698 22302 10251 20196 39640 40128 82100 333 20191 58004;EQDQ01  00002PRCP06
0167832360999992005041218004-12150-045000FM-12+044099999V0201401N005110075019N0200001N1+03111+01871100891ADDAA106000091GF105991051021008001001001MA1999999096031MD1999999+0111REMSYN070AAXX  12184 83236 32598 51410 10311 20187 39603 40089 85200 333 58011;EQDQ01  00002PRCP06
0208832360999992005041300004-12150-045000FM-12+044099999V0209999C000012200019N0500001N1+02351+02001101191ADDAA106000091GA1001+999999999GF100991001001999999001001KA1240M+03291MA1999999096301MD1999999+0181REMSYN082AAXX  13004 83236 32999 00000 10235 20200 39630 40119 333 10329 29070 55/// 58018;EQDQ01  00002PRCP06
0186832360999992005041312004-12150-045000FM-12+044099999V0201801N001512200019N0200001N1+02621+02051101311ADDAA106000091GF101991011011012501001001KA1240N+01871MA1999999096421MD1999999+0021REMSYN076AAXX  13124 83236 32698 11803 10262 20205 39642 40131 81100 333 20187 58002;EQDQ01  00002PRCP06
0167832360999992005041318004-12150-045000FM-12+044099999V0201401N003110075019N0200001N1+03221+01981100871ADDAA106000091GF105991051021008001001001MA1999999096011MD1999999-0021REMSYN070AAXX  13184 83236 32598 51406 10322 20198 39601 40087 85200 333 59002;EQDQ01  00002PRCP06
0208832360999992005041400004-12150-045000FM-12+044099999V0209999C000012200019N0500001N1+02341+02131101081ADDAA106000091GA1001+999999999GF100991001001999999001001KA1240M+03271MA1999999096201MD1999999-0101REMSYN082AAXX  14004 83236 32999 00000 10234 20213 39620 40108 333 10327 29074 55/// 59010;EQDQ01  00002PRCP06
0186832360999992005041412004-12150-045000FM-12+044099999V0209999C000010450019N0200001N1+02551+02001101271ADDAA106000091GF105991031021008001071031KA1240N+01951MA1999999096371MD1999999-0051REMSYN076AAXX  14124 83236 32598 50000 10255 20200 39637 40127 83273 333 20195 59005;EQDQ01  00002PRCP06
0167832360999992005041418004-12150-045000FM-12+044099999V0200501N001010450019N0200001N1+03141+02071100811ADDAA106000091GF106991041021012501051071MA1999999095951MD1999999-0061REMSYN070AAXX  14184 83236 32698 60502 10314 20207 39595 40081 84257 333 59006;EQDQ01  00002PRCP06
0198832360999992005041500004-12150-045000FM-12+044099999V0201801N001012200019N0200001N1+02411+02071101011ADDAA106000091GF104991041021012501061001KA1240M+03231MA1999999096131MD1999999+0071REMSYN088AAXX  15004 83236 32698 41802 10241 20207 39613 40101 84260 333 10323 29072 55/// 58007;EQDQ01  00002PRCP06
0186832360999992005041512004-12150-045000FM-12+044099999V0201401N001512200019N0200001N1+02641+02001101241ADDAA106000091GF103991031021012501001001KA1240N+02001MA1999999096351MD1999999+0021REMSYN076AAXX  15124 83236 32698 31403 10264 20200 39635 40124 83200 333 20200 58002;EQDQ01  00002PRCP06
0195832360999992005041518004-12150-045000FM-12+044099999V0200501N002610075019N0200001N1+03031+02041100901ADDAA106000091AY121061AY221061GF105991051051008001001001MA1999999096041MD1999999+0091MW1151REMSYN076AAXX  15184 83236 31598 50505 10303 20204 39604 40090 71522 85500 333 58009;EQDQ01  00002PRCP06
0198832360999992005041600004-12150-045000FM-12+044099999V0209999C000012200019N0200001N1+02361+02111101121ADDAA106000091GF102991021011012501001001KA1240M+03281MA1999999096241MD1999999+0111REMSYN088AAXX  16004 83236 32698 20000 10236 20211 39624 40112 82100 333 10328 29074 55/// 58011;EQDQ01  00002PRCP06
0186832360999992005041612004-12150-045000FM-12+044099999V0209999C000012200019N0200001N1+02631+02011101271ADDAA106000091GF102991001001999999001031KA1240N+01901MA1999999096381MD1999999+0031REMSYN076AAXX  16124 83236 32998 20000 10263 20201 39638 40127 80003 333 20190 58003;EQDQ01  00002PRCP06
0167832360999992005041618004-12150-045000FM-12+044099999V0200501N003110075019N0200001N1+03291+02101100811ADDAA106000091GF106991051021008001001051MA1999999095971MD1999999-0071REMSYN070AAXX  16184 83236 32598 60506 10329 20210 39597 40081 85205 333 59007;EQDQ01  00002PRCP06
0208832360999992005041700004-12150-045000FM-12+043999999V0201801N001512200019N0200001N1+02451+02151101061ADDAA106000091GA1001+999999999GF100991001001999999001001KA1240M+03391MA1999999096191MD1999999-0051REMSYN082AAXX  17004 83236 32898 01803 10245 20215 39619 40106 333 10339 29072 55/// 59005;EQDQ01  00002PRCP06
0186832360999992005041712004-12150-045000FM-12+043999999V0201401N001510075019N0200001N1+02471+02171101331ADDAA106000091GF106991051021008001071051KA1240N+02131MA1999999096431MD1999999+0051REMSYN076AAXX  17124 83236 32598 61403 10247 20217 39643 40133 85275 333 20213 58005;EQDQ01  00002PRCP06
0167832360999992005041718004-12150-045000FM-12+043999999V0203601N001010450019N0200001N1+03221+02111100841ADDAA106000091GF106991041021008001081051MA1999999096001MD1999999+0031REMSYN070AAXX  17184 83236 32598 63602 10322 20211 39600 40084 84285 333 58003;EQDQ01  00002PRCP06
0198832360999992005041800004-12150-045000FM-12+044099999V0201801N001011050019N0200001N1+02471+02231101021ADDAA106000091GF106991021021012501001071KA1240M+03331MA1999999096141MD1999999-0051REMSYN088AAXX  18004 83236 32698 61802 10247 20223 39614 40102 82207 333 10333 29078 55/// 59005;EQDQ01  00002PRCP06
0190832360999992005041812004-12150-045000FM-12+044099999V0203601N001510075019N0100001N1+02351+02181101161ADDAY161061AY261061GF108991061041008001071999KA1240N+02261MA1999999096261MD1999999-0171MW1101REMSYN088AAXX  18124 83236 21597 83603 10235 20218 39626 40116 71066 8647/ 333 20226 59017 60064;
0167832360999992005041818004-12150-045000FM-12+044099999V0200501N003110075019N0100001N1+02791+02231100771ADDAA106000091GF108991061021008001081999MA1999999095911MD1999999-0091REMSYN070AAXX  18184 83236 32597 80506 10279 20223 39591 40077 8628/ 333 59009;EQDQ01  00002PRCP06
0198832360999992005041900004-12150-045000FM-12+044099999V0209999C000011050019N0200001N1+02331+02201101071ADDAA106000091GF105991031001022501061071KA1240M+03021MA1999999096161MD1999999+0021REMSYN088AAXX  19004 83236 32898 50000 10233 20220 39616 40107 83067 333 10302 29087 55/// 58002;EQDQ01  00002PRCP06
0190832360999992005041912004-12150-045000FM-12+044099999V0201801N001010450019N0200001N1+02591+02151101221ADDAY151061AY251061GF107991041021008001061071KA1240N+02151MA1999999096331MD1999999+0071MW1021REMSYN088AAXX  19124 83236 21598 71802 10259 20215 39633 40122 70255 84267 333 20215 58007 69944;
0195832360999992005041918004-12150-045000FM-12+044099999V0203201N001510450019N0200001N1+02751+02171100851ADDAA106000091AY121061AY221061GF106991031051008001041071MA1999999095971MD1999999+0061MW1161REMSYN076AAXX  19184 83236 31598 63203 10275 20217 39597 40085 71622 83547 333 58006;EQDQ01  00002PRCP06
0198832360999992005042000004-12150-045000FM-12+044099999V0209999C000010450019N0200001N1+02381+02221100991ADDAA106000091GF105991031021012501051071KA1240M+03241MA1999999096121MD1999999-0041REMSYN088AAXX  20004 83236 32698 50000 10238 20222 39612 40099 83257 333 10324 29082 55/// 59004;EQDQ01  00002PRCP06
0186832360999992005042012004-12150-045000FM-12+044099999V0201401N001510450019N0200001N1+02611+02011101301ADDAA106000091GF106991041021008001061071KA1240N+02081MA1999999096411MD1999999+0081REMSYN076AAXX  20124 83236 32598 61403 10261 20201 39641 40130 84267 333 20208 58008;EQDQ01  00002PRCP06
0167832360999992005042018004-12150-045000FM-12+044099999V0203201N001010075019N0100001N1+02861+02211100981ADDAA106000091GF108991061031008001081999MA1999999096101MD1999999+0131REMSYN070AAXX  20184 83236 32597 83202 10286 20221 39610 40098 8638/ 333 58013;EQDQ01  00002PRCP06
0198832360999992005042100004-12150-045000FM-12+044099999V0201801N001010075019N0100001N1+02381+02211101131ADDAA106000091GF108991061021008001061999KA1240M+03021MA1999999096251MD1999999+0131REMSYN088AAXX  21004 83236 32597 81802 10238 20221 39625 40113 8626/ 333 10302 29080 55/// 58013;EQDQ01  00002PRCP06
0186832360999992005042112004-12150-045000FM-12+044099999V0209999C000012200019N0500001N1+02531+02151101221ADDAA106000091GF103991001001999999001071KA1240N+01971MA1999999096331MD1999999-0081REMSYN076AAXX  21124 83236 32999 30000 10253 20215 39633 40122 80007 333 20197 59008;EQDQ01  00002PRCP06
0195832360999992005042118004-12150-045000FM-12+044099999V0200501N003111050019N0200001N1+03331+02101100691ADDAA106000091AY121061AY221061GF105991041051012501001071MA1999999095871MD1999999-0231MW1151REMSYN076AAXX  21184 83236 31698 50506 10333 20210 39587 40069 71522 84507 333 59023;EQDQ01  00002PRCP06
0198832360999992005042200004-12150-045000FM-12+044099999V0209999C000012200019N0200001N1+02341+01911101011ADDAA106000091GF103991001001999999001071KA1240M+03391MA1999999096131MD1999999-0121REMSYN088AAXX  22004 83236 32998 30000 10234 20191 39613 40101 80007 333 10339 29072 55/// 59012;EQDQ01  00002PRCP06
0186832360999992005042212004-12150-045000FM-12+044099999V0209999C000011050019N0200001N1+02591+02111101111ADDAA106000091GF105991021011012501001051KA1240N+02031MA1999999096221MD1999999-0101REMSYN076AAXX  22124 83236 32698 50000 10259 20211 39622 40111 82105 333 20203 59010;EQDQ01  00002PRCP06
0167832360999992005042218004-12150-045000FM-12+044099999V0203601N001510450019N0200001N1+03381+01571100621ADDAA106000091GF105991031021008001041071MA1999999095801MD1999999-0071REMSYN070AAXX  22184 83236 32598 53603 10338 20157 39580 40062 83247 333 59007;EQDQ01  00002PRCP06
0226832360999992005042300004-12150-045000FM-12+044099999V0209999C000010075019N0200001N1+02411+02131100911ADDAA106000091AY121061AY221061GF106991051051008001071051KA1240M+03411MA1999999096041MD1999999-0091MW1131REMSYN094AAXX  23004 83236 31598 60000 10241 20213 39604 40091 71322 85575 333 10341 29070 55/// 59009;EQDQ01  00002PRCP06
0186832360999992005042312004-12150-045000FM-12+044099999V0209999C000010450019N0200001N1+02691+02181101141ADDAA106000091GF105991031021012501061051KA1240N+02151MA1999999096271MD1999999+0051REMSYN076AAXX  23124 83236 32698 50000 10269 20218 39627 40114 83265 333 20215 58005;EQDQ01  00002PRCP06
0167832360999992005042318004-12150-045000FM-12+044099999V0203601N002111050019N0200001N1+03431+02021100591ADDAA106000091GF106991041021008001001071MA1999999095801MD1999999+0001REMSYN070AAXX  23184 83236 32598 63604 10343 20202 39580 40059 84207 333 58000;EQDQ01  00002PRCP06
0198832360999992005042400004-12150-045000FM-12+043999999V0209999C000010450019N0200001N1+02471+02151100891ADDAA106000091GF105991031021012501051071KA1240M+03481MA1999999096041MD1999999+0001REMSYN088AAXX  24004 83236 32698 50000 10247 20215 39604 40089 83257 333 10348 29071 55/// 58000;EQDQ01  00002PRCP06
0190832360999992005042412004-12150-045000FM-12+043999999V0209999C000011050019N0200001N1+02761+02321101221ADDAY161061AY251061GF105991031021008001001051KA1240N+02281MA1999999096351MD1999999+0081MW1021REMSYN088AAXX  24124 83236 21598 50000 10276 20232 39635 40122 70265 83205 333 20228 58008 60024;
0171832360999992005042418004-12150-045000FM-12+043999999V0200501N003110450019N0200001N1+03091+02241100711ADDAY151061AY251061GF106991041051008001041071MA1999999095891MD1999999+0091MW1151REMSYN082AAXX  24184 83236 21598 60506 10309 20224 39589 40071 71555 84547 333 58009 60021;
0198832360999992005042500004-12150-045000FM-12+044099999V0201401N001010075019N0200001N1+02451+02231100931ADDAA106000091GF108991061021008001071999KA1240M+03381MA1999999096081MD1999999+0041REMSYN088AAXX  25004 83236 32598 81402 10245 20223 39608 40093 8627/ 333 10338 29079 55/// 58004;EQDQ01  00002PRCP06
0162832360999992005042512004-12150-045000FM-12+044099999V0209999C000011050019N0200001N1+02621+02161101201ADDGF105991021001022501041051KA1240N+02091MA1999999096331MD1999999-0021REMSYN082AAXX  25124 83236 22898 50000 10262 20216 39633 40120 82045 333 20209 59002 60024;
0167832360999992005042518004-12150-045000FM-12+044099999V0203601N002112200019N0200001N1+03241+01891100681ADDAA106000091GF106991031021008001001061MA1999999095861MD1999999-0031REMSYN070AAXX  25184 83236 32598 63604 10324 20189 39586 40068 83206 333 59003;EQDQ01  00002PRCP06
0198832360999992005042600004-12150-045000FM-12+044099999V0209999C000010120019N0200001N1+02741+02121101011ADDAA106000091GF107991071081008001001001KA1240M+03381MA1999999096171MD1999999+0091REMSYN088AAXX  26004 83236 32598 70000 10274 20212 39617 40101 87800 333 10338 29065 55/// 58009;EQDQ01  00002PRCP06
0186832360999992005042612004-12150-045000FM-12+044099999V0209999C000010450019N0200001N1+02511+02071101201ADDAA106000091GF107991021011008001041061KA1240N+02041MA1999999096341MD1999999+0011REMSYN076AAXX  26124 83236 32598 70000 10251 20207 39634 40120 82146 333 20204 58001;EQDQ01  00002PRCP06
0167832360999992005042618004-12150-045000FM-12+044099999V0201401N000512200019N0200001N1+03171+02041100701ADDAA106000091GF106991031021008001001061MA1999999095871MD1999999+0011REMSYN070AAXX  26184 83236 32598 61401 10317 20204 39587 40070 83206 333 58001;EQDQ01  00002PRCP06
0202832360999992005042700004-12150-045000FM-12+044099999V0202701N001010450019N0100001N1+02411+02251101131ADDAY151061AY251061GF108991031021008001021999KA1240M+03271MA1999999096241MD1999999+0071MW1021REMSYN100AAXX  27004 83236 21597 82702 10241 20225 39624 40113 70255 8322/ 333 10327 29077 55/// 58007 69941;
0162832360999992005042712004-12150-045000FM-12+044099999V0203601N001010450019N0200001N1+02621+02141101201ADDGF106991021011008001031001KA1240N+02151MA1999999096321MD1999999-0021REMSYN082AAXX  27124 83236 22598 63602 10262 20214 39632 40120 82130 333 20215 59002 69944;
