0208832420999992005010100004-12567-041383FM-12+042799999V0200501N001012200019N0020001N1+02681+99999101091ADDAA106000091GA1001+999999999GF100991001001999999001001KA1240M+03261MA1999999096211MD1999999-0021REMSYN082AAXX  01004 83242 32995 00502 10268 2//// 39621 40109 333 10326 29/// 55082 59002;EQDQ01  00002PRCP06
0186832420999992005010112004-12567-041383FM-12+042799999V0201401N001010042019N0040001N1+02411+99999101371ADDAA106000091GF108991081071004501999999KA1240N+02261MA1999999096481MD1999999-0121REMSYN076AAXX  01124 83242 32496 81402 10241 2//// 39648 40137 887// 333 20226 59012;EQDQ01  00002PRCP06
0167832420999992005010118004-12567-041383FM-12+042799999V0201801N002112200019N0100001N1+03081+99999100841ADDAA106000091GF104991011031004501051061MA1999999095991MD1999999-0071REMSYN070AAXX  01184 83242 32497 41804 10308 2//// 39599 40084 81356 333 59007;EQDQ01  00002PRCP06
0198832420999992005010200004-12567-041383FM-12+042799999V0203201N001012200019N0020001N1+02531+99999101201ADDAA106000091GF102991011021004501051001KA1240M+03181MA1999999096301MD1999999+0091REMSYN088AAXX  02004 83242 32495 23202 10253 2//// 39630 40120 81250 333 10318 29/// 55038 58009;EQDQ01  00002PRCP06
0190832420999992005010212004-12567-041383FM-12+042799999V0201801N001510042019N0040001N1+02291+99999101541ADDAY161061AY211061GF108991081071004501999999KA1240N+02091MA1999999096611MD1999999+0131MW1501REMSYN088AAXX  02124 83242 21496 81803 10229 2//// 39661 40154 75061 887// 333 20209 58013 60574;
0171832420999992005010218004-12567-041383FM-12+042799999V0201401N001510450019N0100001N1+02751+99999101031ADDAY151061AY221061GF108991041071004501051071MA1999999096131MD1999999+0141MW1031REMSYN082AAXX  02184 83242 21497 81403 10275 2//// 39613 40103 70352 84757 333 58014 69951;
0162832420999992005010312004-12567-041383FM-12+042799999V0201401N003110042019N0040001N1+02451+99999101581ADDGF108991061071004501051071KA1240N+02151MA1999999096661MD1999999+0051REMSYN082AAXX  03124 83242 22496 81406 10245 2//// 39666 40158 86757 333 20215 58005 69954;
0167832420999992005010318004-12567-041383FM-12+042799999V0201801N001510042019N0100001N1+02871+99999101201ADDAA106000091GF107991051071004501051001MA1999999096321MD1999999+0191REMSYN070AAXX  03184 83242 32497 71803 10287 2//// 39632 40120 85750 333 58019;EQDQ01  00002PRCP06
0208832420999992005010400004-12567-041383FM-12+042799999V0209999C000012200019N0020001N1+02391+02091101311ADDAA106000091GA1001+999999999GF100991001001999999001001KA1240M+02921MA1999999096391MD1999999+0021REMSYN082AAXX  04004 83242 32995 00000 10239 20209 39639 40131 333 10292 29083 55042 58002;EQDQ01  00002PRCP06
0186832420999992005010412004-12567-041383FM-12+042799999V0201801N001510042019N0040001N1+02411+02011101411ADDAA106000091GF108991061071004501091071KA1240N+02221MA1999999096581MD1999999-0081REMSYN076AAXX  04124 83242 32496 81803 10241 20201 39658 40141 86797 333 20222 59008;EQDQ01  00002PRCP06
0167832420999992005010418004-12567-041383FM-12+042799999V0201801N002611050019N0100001N1+03041+02031100951ADDAA106000091GF106991031071004501001021MA1999999096101MD1999999-0221REMSYN070AAXX  04184 83242 32497 61805 10304 20203 39610 40095 83702 333 59022;EQDQ01  00002PRCP06
0168832420999992005010500004-12567-041383FM-12+042799999V0201401N001512200019N0020001N1+02651+02041999999ADDAA106000091GF102991999999004501999999KA1240M+03121REMSYN087AAXX  05004 83242 32495 21403 10265 20204 3929 40117 82700 333 10312 29068 55088 59010;EQDQ01  00002PRCP06
0186832420999992005010512004-12567-041383FM-12+042799999V0201401N001510042019N0040001N1+02301+01871101491ADDAA106000091GF108991081071004501999999KA1240N+02221MA1999999096581MD1999999+0001REMSYN076AAXX  05124 83242 32496 81403 10230 20187 39658 40149 887// 333 20222 58000;EQDQ01  00002PRCP06
0167832420999992005010518004-12567-041383FM-12+042799999V0201401N002112200019N0100001N1+02921+01951100991ADDAA106000091GF104991021031004501001011MA1999999096131MD1999999+0031REMSYN070AAXX  05184 83242 32497 41404 10292 20195 39613 40099 82301 333 58003;EQDQ01  00002PRCP06
0198832420999992005010600004-12567-041383FM-12+042799999V0201801N001510042019N0020001N1+02501+02031101161ADDAA106000091GF107991071071004501001001KA1240M+03001MA1999999096251MD1999999-0041REMSYN088AAXX  06004 83242 32495 71803 10250 20203 39625 40116 87700 333 10300 29071 55061 59004;EQDQ01  00002PRCP06
0186832420999992005010612004-12567-041383FM-12+042799999V0201801N002610042019N0040001N1+02451+02031101431ADDAA106000091GF107991061071004501081001KA1240N+02191MA1999999096531MD1999999-0051REMSYN076AAXX  06124 83242 32496 71805 10245 20203 39653 40143 86780 333 20219 59005;EQDQ01  00002PRCP06
0167832420999992005010618004-12567-041383FM-12+042799999V0201801N002612200019N0100001N1+03121+01821100821ADDAA106000091GF104991021011004501001021MA1999999095971MD1999999-0161REMSYN070AAXX  06184 83242 32497 41805 10312 20182 39597 40082 82102 333 59016;EQDQ01  00002PRCP06
0208832420999992005010700004-12567-041383FM-12+042799999V0200501N000512200019N0020001N1+02551+01881101131ADDAA106000091GA1001+999999999GF100991001001999999001001KA1240M+03201MA1999999096241MD1999999-0011REMSYN082AAXX  07004 83242 32995 00501 10255 20188 39624 40113 333 10320 29064 55099 59001;EQDQ01  00002PRCP06
0186832420999992005010712004-12567-041383FM-12+042799999V0201801N002610042019N0040001N1+02451+01991101491ADDAA106000091GF106991051071004501051001KA1240N+02261MA1999999096581MD1999999-0051REMSYN076AAXX  07124 83242 32496 61805 10245 20199 39658 40149 85750 333 20226 59005;EQDQ01  00002PRCP06
0167832420999992005010718004-12567-041383FM-12+042799999V0201401N002112200019N0100001N1+03131+01841100961ADDAA106000091GF103991031011004501001001MA1999999096111MD1999999+0141REMSYN070AAXX  07184 83242 32497 31404 10313 20184 39611 40096 83100 333 58014;EQDQ01  00002PRCP06
0208832420999992005010800004-12567-041383FM-12+042799999V0201401N000512200019N0020001N1+02601+01961101091ADDAA106000091GA1001+999999999GF100991001001999999001001KA1240M+03221MA1999999096201MD1999999-0041REMSYN082AAXX  08004 83242 32995 01401 10260 20196 39620 40109 333 10322 29064 55094 59004;EQDQ01  00002PRCP06
0167832420999992005010818004-12567-041383FM-12+042799999V0201801N002610450019N0100001N1+02961+01841100981ADDAA106000091GF107991031071004501051091MA1999999096121MD1999999+0011REMSYN070AAXX  08184 83242 32497 71805 10296 20184 39612 40098 83759 333 58001;EQDQ01  00002PRCP06
0173832420999992005010912004-12570-041380FM-12+043999999V0201401N001510042019N0040001N1+02561+02021101321ADDAA106000091GF107991061071004501081001MA1999999096441MD1999999-0131REMSYN076AAXX  09124 83242 32496 71403 10256 20202 39644 40132 86780 333 20215 59013;EQDQ01  00002PRCP06
0167832420999992005010918004-12570-041380FM-12+043999999V0201801N001510450019N0100001N1+03211+01951100741ADDAA106000091GF106991021011004501051021MA1999999095931MD1999999-0191REMSYN070AAXX  09184 83242 32497 61803 10321 20195 39593 40074 82152 333 59019;EQDQ01  00002PRCP06
0208832420999992005011000004-12567-041383FM-12+042799999V0203601N000512200019N0020001N1+02631+02091100881ADDAA106000091GA1001+999999999GF100991001001999999001001KA1240M+03261MA1999999096021MD1999999-0111REMSYN082AAXX  10004 83242 32995 03601 10263 20209 39602 40088 333 10326 29066 55094 59011;EQDQ01  00002PRCP06
0186832420999992005011012004-12567-041383FM-12+042799999V0201401N001010042019N0100001N1+02511+02071101291ADDAA106000091GF106991051071004501041001KA1240N+02241MA1999999096401MD1999999-0041REMSYN076AAXX  10124 83242 32497 61402 10251 20207 39640 40129 85740 333 20224 59004;EQDQ01  00002PRCP06
0167832420999992005011018004-12567-041383FM-12+042799999V0201401N002111050019N0100001N1+03211+01881100621ADDAA106000091GF108991021071004501001071MA1999999095801MD1999999-0131REMSYN070AAXX  10184 83242 32497 81404 10321 20188 39580 40062 82707 333 59013;EQDQ01  00002PRCP06
0208832420999992005011100004-12567-041383FM-12+042799999V0203601N001012200019N0020001N1+02691+02031100891ADDAA106000091GA1001+999999999GF100991001001999999001001KA1240M+03311MA1999999096021MD1999999+0001REMSYN082AAXX  11004 83242 32995 03602 10269 20203 39602 40089 333 10331 29064 55082 58000;EQDQ01  00002PRCP06
0186832420999992005011112004-12567-041383FM-12+042799999V0201401N001510450019N0100001N1+02491+02051101301ADDAA106000091GF106991041071004501031001KA1240N+02241MA1999999096421MD1999999+0021REMSYN076AAXX  11124 83242 32497 61403 10249 20205 39642 40130 84730 333 20224 58002;EQDQ01  00002PRCP06
0167832420999992005011118004-12567-041383FM-12+042799999V0201401N002610042019N0100001N1+03041+02031100841ADDAA106000091GF108991051041004501001071MA1999999096001MD1999999+0201REMSYN070AAXX  11184 83242 32497 81405 10304 20203 39600 40084 85407 333 58020;EQDQ01  00002PRCP06
0198832420999992005011200004-12567-041383FM-12+042799999V0203601N001012200019N0020001N1+02621+02031100951ADDAA106000091GF102991021041004501001001KA1240M+03141MA1999999096081MD1999999+0061REMSYN088AAXX  12004 83242 32495 23602 10262 20203 39608 40095 82400 333 10314 29068 55064 58006;EQDQ01  00002PRCP06
0186832420999992005011212004-12567-041383FM-12+042799999V0200501N001510042019N0100001N1+02681+02181101131ADDAA106000091GF106991051071004501041001KA1240N+02241MA1999999096271MD1999999-0151REMSYN076AAXX  12124 83242 32497 60503 10268 20218 39627 40113 85740 333 20224 59015;EQDQ01  00002PRCP06
0167832420999992005011218004-12567-041383FM-12+042799999V0200501N001510042019N0100001N1+03341+02151100421ADDAA106000091GF108991051071004501001071MA1999999095631MD1999999-0371REMSYN070AAXX  12184 83242 32497 80503 10334 20215 39563 40042 85707 333 59037;EQDQ01  00002PRCP06
0202832420999992005011300004-12567-041383FM-12+042799999V0200501N002610042019N0020001N1+02291+02091100861ADDAY191061AY261061GF108991081071004501999999KA1240M+03441MA1999999095981MD1999999-0101MW1291REMSYN100AAXX  13004 83242 21495 80505 10229 20209 39598 40086 72996 887// 333 10344 29075 55091 59010 60081;
0190832420999992005011312004-12567-041383FM-12+042799999V0201801N001010042019N0020001N1+02091+02031101331ADDAY191061AY261061GF108991081071004501999999KA1240N+02071MA1999999096371MD1999999+0101MW1611REMSYN088AAXX  13124 83242 21495 81802 10209 20203 39637 40133 76196 887// 333 20207 58010 60394;
0171832420999992005011318004-12567-041383FM-12+042799999V0201801N001510042019N0040001N1+02441+02191100921ADDAY151061AY221061GF108991081071004501999999MA1999999095991MD1999999+0361MW1101REMSYN082AAXX  13184 83242 21496 81803 10244 20219 39599 40092 71052 887// 333 58036 69981;
0202832420999992005011400004-12567-041383FM-12+042799999V0201801N001510042019N0005001N1+02321+02251101091ADDAY151061AY241061GF108991081071004501999999KA1240M+02501MA1999999096141MD1999999+0161MW1101REMSYN100AAXX  14004 83242 21493 81803 10232 20225 39614 40109 71054 887// 333 10250 29094 55000 58016 69921;
0162832420999992005011412004-12567-041383FM-12+042799999V0201801N001010042019N0100001N1+02391+02131101041ADDGF106991051071004501051001KA1240N+01971MA1999999096131MD1999999-0241REMSYN082AAXX  14124 83242 22497 61802 10239 20213 39613 40104 85750 333 20197 59024 60014;
0171832420999992005011418004-12567-041383FM-12+042799999V0202301N005110042019N0100001N1+02511+01931100731ADDAY151061AY221061GF108991081071004501999999MA1999999095821MD1999999-0101MW1031REMSYN082AAXX  14184 83242 21497 82310 10251 20193 39582 40073 70352 887// 333 59010 69901;
0210832420999992005011500004-12567-041383FM-12+042799999V0201801N000510042019N0020001N1+02431+02211100991ADDAA106000091GF105991051071004501001001KA1240M+03001MA1999999096091MD1999999-0051MW1131REMSYN094AAXX  15004 83242 31495 51801 10243 20221 39609 40099 713// 85700 333 10300 29082 55025 59005;EQDQ01  00002PRCP06
0190832420999992005011512004-12567-041383FM-12+042799999V0201801N001510042019N0020001N1+02281+02251101161ADDAY161061AY221061GF108991081071004501999999KA1240N+02221MA1999999096241MD1999999+0111MW1101REMSYN088AAXX  15124 83242 21495 81803 10228 20225 39624 40116 71062 887// 333 20222 58011 60164;
0171832420999992005011518004-12567-041383FM-12+042799999V0202701N003110042019N0040001N1+02371+02131100871ADDAY161061AY221061GF108991081071004501999999MA1999999095931MD1999999+0111MW1291REMSYN082AAXX  15184 83242 21496 82706 10237 20213 39593 40087 72962 887// 333 58011 60091;
0202832420999992005011600004-12567-041383FM-12+042799999V0201801N000510042019N0020001N1+02211+02121101111ADDAY151061AY241061GF108991081071004501999999KA1240M+02741MA1999999096171MD1999999+0081MW1501REMSYN100AAXX  16004 83242 21495 81801 10221 20212 39617 40111 75054 887// 333 10274 29093 55004 58008 69951;
0190832420999992005011612004-12567-041383FM-12+042799999V0201801N001010042019N0020001N1+02211+02191101251ADDAY151061AY221061GF108991051071004501999999KA1240N+02151MA1999999096291MD1999999+0051MW1611REMSYN088AAXX  16124 83242 21495 81802 10221 20219 39629 40125 76152 857// 333 20215 58005 60124;
0148832420999992005011618004-12567-041383FM-12+042799999V0201401N003110042019N0100001N1+02931+02211100931ADDAA106000021GF106991051071004501061001MA1999999095811MD1999999-0121REMSYN070AAXX  16184 83242 32497 61406 10293 20221 39581 40093 85760 333 59012;
0185832420999992005011700004-12570-041380FM-12+043999999V0202701N000510042019N0020001N1+02491+02321100741ADDAA106000091GF106991061071004501001001MA1999999095841MD1999999-0331REMSYN088AAXX  17004 83242 32495 62701 10249 20232 39584 40074 86700 333 10297 29086 55043 59033;EQDQ01  00002PRCP06
0173832420999992005011712004-12570-041380FM-12+043999999V0201801N001510042019N0100001N1+02311+02111101121ADDAA106000091GF108991081071004501999999MA1999999096211MD1999999-0081REMSYN076AAXX  17124 83242 32497 81803 10231 20211 39621 40112 887// 333 20219 59008;EQDQ01  00002PRCP06
0167832420999992005011718004-12570-041380FM-12+043999999V0201401N001510042019N0100001N1+02891+02171100761ADDAA106000091GF107991061071004501061001MA1999999095901MD1999999+0091REMSYN070AAXX  17184 83242 32497 71403 10289 20217 39590 40076 86760 333 58009;EQDQ01  00002PRCP06
0198832420999992005011800004-12567-041383FM-12+042799999V0203601N001512200019N0020001N1+02441+02171101001ADDAA106000091GF102991021001022501031001KA1240M+02941MA1999999096101MD1999999+0261REMSYN088AAXX  18004 83242 32895 23603 10244 20217 39610 40100 82030 333 10294 29081 55040 58026;EQDQ01  00002PRCP06
0186832420999992005011812004-12567-041383FM-12+042799999V0201401N001510042019N0100001N1+02281+02001101221ADDAA106000091GF108991081071004501999999KA1240N+02171MA1999999096271MD1999999+0061REMSYN076AAXX  18124 83242 32497 81403 10228 20200 39627 40122 887// 333 20217 58006;EQDQ01  00002PRCP06
0167832420999992005011818004-12567-041383FM-12+042799999V0201401N001510450019N0100001N1+02711+02081100871ADDAA106000091GF106991041071004501051001MA1999999095981MD1999999+0081REMSYN070AAXX  18184 83242 32497 61403 10271 20208 39598 40087 84750 333 58008;EQDQ01  00002PRCP06
0198832420999992005011900004-12567-041383FM-12+042799999V0203601N000512200019N0020001N1+02371+02071101041ADDAA106000091GF102991021001022501051001KA1240M+02821MA1999999096121MD1999999+0021REMSYN088AAXX  19004 83242 32895 23601 10237 20207 39612 40104 82050 333 10282 29080 55041 58002;EQDQ01  00002PRCP06
0186832420999992005011912004-12567-041383FM-12+042799999V0201801N001010042019N0040001N1+02361+02031101241ADDAA106000091GF108991081071004501999999KA1240N+02151MA1999999096321MD1999999+0051REMSYN076AAXX  19124 83242 32496 81802 10236 20203 39632 40124 887// 333 20215 58005;EQDQ01  00002PRCP06
0167832420999992005011918004-12567-041383FM-12+042799999V0201401N002111050019N0100001N1+03001+02031100791ADDAA106000091GF106991041021004501001031MA1999999095941MD1999999-0041REMSYN070AAXX  19184 83242 32497 61404 10300 20203 39594 40079 84203 333 59004;EQDQ01  00002PRCP06
0198832420999992005012000004-12567-041383FM-12+042799999V0200501N001512200019N0020001N1+02501+02071100951ADDAA106000091GF102991001001999999001021KA1240M+03061MA1999999096061MD1999999-0061REMSYN088AAXX  20004 83242 32995 20503 10250 20207 39606 40095 80002 333 10306 29073 55064 59006;EQDQ01  00002PRCP06
0190832420999992005012012004-12567-041383FM-12+042799999V0201401N001010042019N0040001N1+02441+02191101331ADDAY151061AY201061GF108991061071004501001071KA1240N+02281MA1999999096421MD1999999+0101MW1031REMSYN088AAXX  20124 83242 21496 81402 10244 20219 39642 40133 70350 86707 333 20228 58010 69914;
0167832420999992005012018004-12567-041383FM-12+042799999V0201401N001512200019N0100001N1+03181+01991100761ADDAA106000091GF104991031031004501001021MA1999999095931MD1999999-0011REMSYN070AAXX  20184 83242 32497 41403 10318 20199 39593 40076 83302 333 59001;EQDQ01  00002PRCP06
0198832420999992005012100004-12567-041383FM-12+042799999V0202301N001012200019N0020001N1+02611+02031100951ADDAA106000091GF101991011001022501051001KA1240M+03221MA1999999096041MD1999999+0011REMSYN088AAXX  21004 83242 32895 12302 10261 20203 39604 40095 81050 333 10322 29069 55095 58001;EQDQ01  00002PRCP06
0186832420999992005012112004-12567-041383FM-12+042799999V0201401N001510450019N0040001N1+02691+02171101361ADDAA106000091GF105991031031004501051091KA1240N+02371MA1999999096491MD1999999+0071REMSYN076AAXX  21124 83242 32496 51403 10269 20217 39649 40136 83359 333 20237 58007;EQDQ01  00002PRCP06
0171832420999992005012118004-12567-041383FM-12+042799999V0203201N003110042019N0040001N1+03151+02021100831ADDAY191061AY251061GF107991051071004501051031MA1999999096021MD1999999+0091MW1151REMSYN082AAXX  21184 83242 21496 73206 10315 20202 39602 40083 71595 85753 333 58009 69901;
0210832420999992005012200004-12567-041383FM-12+042799999V0202701N001010042019N0020001N1+02671+02021101081ADDAA106000091GF108991081071004501999999KA1240M+03341MA1999999096231MD1999999+0161MW1131REMSYN094AAXX  22004 83242 31495 82702 10267 20202 39623 40108 713// 887// 333 10334 29064 55099 58016;EQDQ01  00002PRCP06
0186832420999992005012212004-12567-041383FM-12+042799999V0203201N001010042019N0040001N1+02351+02151101411ADDAA106000091GF108991081071004501999999KA1240N+02091MA1999999096511MD1999999+0021REMSYN076AAXX  22124 83242 32496 83202 10235 20215 39651 40141 887// 333 20209 58002;EQDQ01  00002PRCP06
0167832420999992005012218004-12567-041383FM-12+042799999V0201401N003110450019N0100001N1+03191+02301100911ADDAA106000091GF107991041071004501051021MA1999999096061MD1999999+0041REMSYN070AAXX  22184 83242 32497 71406 10319 20230 39606 40091 84752 333 58004;EQDQ01  00002PRCP06
0173832420999992005012312004-12570-041380FM-12+043999999V0200501N001510042019N0040001N1+02461+02111101291ADDAA106000091GF108991051071004501021999MA1999999096381MD1999999-0131REMSYN076AAXX  23124 83242 32496 80503 10246 20211 39638 40129 8572/ 333 20219 59013;EQDQ01  00002PRCP06
0167832420999992005012318004-12570-041380FM-12+043999999V0201801N001510042019N0100001N1+02911+02221100901ADDAA106000091GF108991061071004501021999MA1999999096021MD1999999-0041REMSYN070AAXX  23184 83242 32497 81803 10291 20222 39602 40090 8672/ 333 59004;EQDQ01  00002PRCP06
0173832420999992005012412004-12570-041380FM-12+043999999V0201401N001010042019N0040001N1+02631+02161101221ADDAA106000091GF108991061071004501051071MA1999999096341MD1999999-0041REMSYN076AAXX  24124 83242 32496 81402 10263 20216 39634 40122 86757 333 20224 59004;EQDQ01  00002PRCP06
0167832420999992005012418004-12570-041380FM-12+043999999V0201401N001510450019N0100001N1+03211+02081100731ADDAA106000091GF105991031031004501051001MA1999999095901MD1999999-0121REMSYN070AAXX  24184 83242 32497 51403 10321 20208 39590 40073 83350 333 59012;EQDQ01  00002PRCP06
0198832420999992005012500004-12567-041383FM-12+042799999V0203601N001012200019N0020001N1+02601+01961100861ADDAA106000091GF103991021001022501041021KA1240M+03341MA1999999096001MD1999999-0151REMSYN088AAXX  25004 83242 32895 33602 10260 20196 39600 40086 82042 333 10334 29066 55096 59015;EQDQ01  00002PRCP06
0186832420999992005012512004-12567-041383FM-12+042799999V0200501N001011050019N0040001N1+02741+02121101121ADDAA106000091GF108991011011004501001071KA1240N+02071MA1999999096261MD1999999-0081REMSYN076AAXX  25124 83242 32496 80502 10274 20212 39626 40112 81107 333 20207 59008;EQDQ01  00002PRCP06
0167832420999992005012518004-12567-041383FM-12+042799999V0201401N001512200019N0100001N1+03451+01861100591ADDAA106000091GF104991021031004501001051MA1999999095771MD1999999-0131REMSYN070AAXX  25184 83242 32497 41403 10345 20186 39577 40059 82305 333 59013;EQDQ01  00002PRCP06
0198832420999992005012600004-12567-041383FM-12+042799999V0203601N000510042019N0020001N1+02771+01881100831ADDAA106000091GF108991081071004501999999KA1240M+03541MA1999999096001MD1999999+0001REMSYN088AAXX  26004 83242 32495 83601 10277 20188 39600 40083 887// 333 10354 29056 55117 58000;EQDQ01  00002PRCP06
0186832420999992005012612004-12567-041383FM-12+042799999V0201401N001511050019N0040001N1+02691+02241101151ADDAA106000091GF108991041071004501001071KA1240N+02351MA1999999096311MD1999999+0051REMSYN076AAXX  26124 83242 32496 81403 10269 20224 39631 40115 84707 333 20235 58005;EQDQ01  00002PRCP06
0167832420999992005012618004-12567-041383FM-12+042799999V0203601N001510042019N0100001N1+03411+02191100581ADDAA106000091GF106991051071004501051001MA1999999095801MD1999999+0031REMSYN070AAXX  26184 83242 32497 63603 10341 20219 39580 40058 85750 333 58003;EQDQ01  00002PRCP06
0210832420999992005012700004-12567-041383FM-12+042799999V0203201N002612200019N0020001N1+03001+02051100951ADDAA106000091GF102991011071004501031001KA1240M+03471MA1999999096141MD1999999+0141MW1131REMSYN094AAXX  27004 83242 31495 23205 10300 20205 39614 40095 713// 81730 333 10347 29060 55099 58014;EQDQ01  00002PRCP06
0186832420999992005012712004-12567-041383FM-12+042799999V0201801N001010450019N0040001N1+02731+02301101221ADDAA106000091GF108991041071004501081071KA1240N+02481MA1999999096401MD1999999+0091REMSYN076AAXX  27124 83242 32496 81802 10273 20230 39640 40122 84787 333 20248 58009;EQDQ01  00002PRCP06
0199832420999992005012718004-12567-041383FM-12+042799999V0201101N999991050019N0100001N1+03191+02121100811ADDAA106000091GF106991041071004501001021MA1999999096001MD1999999+0201REMSYN070AAXX  27184 83242 32497 61180 10319 20212 39600 40081 84702 333 58020;EQDQ01+004113WOSPD Q02  00002PRCP06Q030004113WOSPD 
0202832420999992005012800004-12567-041383FM-12+042799999V0201801N001510042019N0020001N1+02711+02081101161ADDAY151061AY221061GF108991081071004501999999KA1240M+03341MA1999999096311MD1999999+0171MW1131REMSYN100AAXX  28004 83242 21495 81803 10271 20208 39631 40116 71352 887// 333 10334 29066 55078 58017 69901;
0186832420999992005012812004-12567-041383FM-12+042799999V0201801N001010042019N0040001N1+02591+02211101301ADDAA106000091GF107991051071004501051021KA1240N+02381MA1999999096431MD1999999+0031REMSYN076AAXX  28124 83242 32496 71802 10259 20221 39643 40130 85752 333 20238 58003;EQDQ01  00002PRCP06
0171832420999992005012818004-12567-041383FM-12+042799999V0201401N001010042019N0040001N1+02711+02451100941ADDAY161061AY221061GF108991081071004501999999MA1999999096071MD1999999+0071MW1021REMSYN082AAXX  28184 83242 21496 81402 10271 20245 39607 40094 70262 887// 333 58007 60011;
0198832420999992005012900004-12567-041383FM-12+042799999V0201401N001010042019N0020001N1+02551+02231101001ADDAA106000091GF107991071071004501001001KA1240M+03041MA1999999096131MD1999999-0181REMSYN088AAXX  29004 83242 32495 71402 10255 20223 39613 40100 87700 333 10304 29082 55053 59018;EQDQ01  00002PRCP06
0190832420999992005012912004-12567-041383FM-12+042799999V0200901N001010042019N0040001N1+02451+02211101081ADDAY151061AY221061GF108991081071004501999999KA1240N+02341MA1999999096191MD1999999-0241MW1501REMSYN088AAXX  29124 83242 21496 80902 10245 20221 39619 40108 75052 887// 333 20234 59024 60014;
0171832420999992005012918004-12567-041383FM-12+042799999V0201401N000510042019N0100001N1+02771+02401100741ADDAY191061AY251061GF108991081071004501999999MA1999999095881MD1999999-0191MW1021REMSYN082AAXX  29184 83242 21497 81401 10277 20240 39588 40074 70295 887// 333 59019 69901;
0189832420999992005013000004-12570-041380FM-12+043999999V0201801N001510042019N0020001N1+02291+02281100891ADDAY161061AY221061GF108991081071004501999999MA1999999095981MD1999999-0151MW1021REMSYN100AAXX  30004 83242 21495 81803 10229 20228 39598 40089 70262 887// 333 10288 29091 55005 59015 60181;
0177832420999992005013012004-12570-041380FM-12+043999999V0201801N001510042019N0040001N1+02331+02221101061ADDAY151061AY221061GF108991081071004501999999MA1999999096141MD1999999-0051MW1021REMSYN088AAXX  30124 83242 21496 81803 10233 20222 39614 40106 70252 887// 333 20224 59005 60184;
0171832420999992005013018004-12570-041380FM-12+043999999V0201801N001510042019N0100001N1+02681+02221100691ADDAY151061AY221061GF107991051071004501061031MA1999999095811MD1999999-0071MW1291REMSYN082AAXX  30184 83242 21497 71803 10268 20222 39581 40069 72952 85763 333 59007 69961;
0202832420999992005013100004-12567-041383FM-12+042799999V0200501N001512200019N0020001N1+02451+02281100881ADDAY151061AY221061GF103991031071004501001001KA1240M+02801MA1999999095981MD1999999+0001MW1131REMSYN100AAXX  31004 83242 21495 30503 10245 20228 39598 40088 71352 83700 333 10280 29087 55017 58000 69901;
0190832420999992005013112004-12567-041383FM-12+042799999V0201801N001510042019N0040001N1+02251+02141101211ADDAY161061AY211061GF108991081071004501999999KA1240N+02241MA1999999096291MD1999999+0111MW1021REMSYN088AAXX  31124 83242 21496 81803 10225 20214 39629 40121 70261 887// 333 20224 58011 60014;
0171832420999992005013118004-12567-041383FM-12+042799999V0201801N001510450019N0100001N1+02831+02171100681ADDAY151061AY221061GF105991031031004501051021MA1999999095821MD1999999+0011MW1031REMSYN082AAXX  31184 83242 21497 51803 10283 20217 39582 40068 70352 83352 333 58001 69921;
0218832420999992005020100004-12567-041383FM-12+042799999V0203601N001012200019N0020001N1+02451+02191100901ADDAA106000091AY181061GF102991021071004501001001KA1240M+02921MA1999999095991MD1999999+0011MW1131REMSYN094AAXX  01004 83242 31495 23602 10245 20219 39599 40090 7138/ 82700 333 10292 29082 55041 58001;EQDQ01  00002PRCP06
0190832420999992005020112004-12567-041383FM-12+042799999V0201801N001010042019N0040001N1+02311+02111101091ADDAY151061AY211061GF108991081071004501999999KA1240N+02201MA1999999096181MD1999999-0111MW1501REMSYN088AAXX  01124 83242 21496 81802 10231 20211 39618 40109 75051 887// 333 20220 59011 69924;
0148832420999992005020118004-12567-041383FM-12+042799999V0201401N001010042019N0100001N1+02831+02121100711ADDAA106000021GF107991051071004501041001MA1999999095851MD1999999+0031REMSYN070AAXX  01184 83242 32497 71402 10283 20212 39585 40071 85740 333 58003;
0210832420999992005020200004-12567-041383FM-12+042799999V0203601N000512200019N0020001N1+02451+02191100911ADDAA106000091GF102991021071004501001001KA1240M+02961MA1999999096011MD1999999+0021MW1131REMSYN094AAXX  02004 83242 31495 23601 10245 20219 39601 40091 713// 82700 333 10296 29081 55025 58002;EQDQ01  00002PRCP06
0186832420999992005020212004-12567-041383FM-12+042799999V0201401N001510042019N0100001N1+02411+01971101201ADDAA106000091GF106991051051004501031001KA1240N+02241MA1999999096301MD1999999+0121REMSYN076AAXX  02124 83242 32497 61403 10241 20197 39630 40120 85530 333 20224 58012;EQDQ01  00002PRCP06
0167832420999992005020218004-12567-041383FM-12+042799999V0201801N001510042019N0100001N1+03061+01931100791ADDAA106000091GF106991051041004501031021MA1999999095951MD1999999+0101REMSYN070AAXX  02184 83242 32497 61803 10306 20193 39595 40079 85432 333 58010;EQDQ01  00002PRCP06
0198832420999992005020300004-12567-041383FM-12+042799999V0201801N001012200019N0020001N1+02691+01961101331ADDAA106000091GF103991031041004501001001KA1240M+03161MA1999999096101MD1999999+0091REMSYN088AAXX  03004 83242 32495 31802 10269 20196 39610 40133 83400 333 10316 29064 55096 58009;EQDQ01  00002PRCP06
0186832420999992005020312004-12567-041383FM-12+042799999V0201401N001510450019N0100001N1+02501+02111101351ADDAA106000091GF106991041071004501031001KA1240N+02221MA1999999096471MD1999999+0171REMSYN076AAXX  03124 83242 32497 61403 10250 20211 39647 40135 84730 333 20222 58017;EQDQ01  00002PRCP06
0167832420999992005020318004-12567-041383FM-12+042799999V0201401N001510042019N0100001N1+03101+02001100981ADDAA106000091GF107991051071004501001031MA1999999096131MD1999999+0181REMSYN070AAXX  03184 83242 32497 71403 10310 20200 39613 40098 85703 333 58018;EQDQ01  00002PRCP06
0208832420999992005020400004-12567-041383FM-12+042799999V0203601N001512200019N0020001N1+02531+01931101131ADDAA106000091GA1001+999999999GF100991001001999999001001KA1240M+03221MA1999999096241MD1999999+0141REMSYN082AAXX  04004 83242 32995 03603 10253 20193 39624 40113 333 10322 29067 55095 58014;EQDQ01  00002PRCP06
0186832420999992005020412004-12567-041383FM-12+042799999V0201801N003110042019N0100001N1+02531+02021101561ADDAA106000091GF106991051071004501081001KA1240N+02221MA1999999096661MD1999999+0191REMSYN076AAXX  04124 83242 32497 61806 10253 20202 39666 40156 85780 333 20222 58019;EQDQ01  00002PRCP06
0167832420999992005020418004-12567-041383FM-12+042799999V0200501N003110450019N0100001N1+03191+01781101081ADDAA106000091GF105991031011004501051051MA1999999096231MD1999999+0101REMSYN070AAXX  04184 83242 32497 50506 10319 20178 39623 40108 83155 333 58010;EQDQ01  00002PRCP06
0208832420999992005020500004-12567-041383FM-12+042799999V0201801N001512200019N0020001N1+02571+01771101281ADDAA106000091GA1001+999999999GF100991001001999999001001KA1240M+03221MA1999999096391MD1999999+0151REMSYN082AAXX  05004 83242 32995 01803 10257 20177 39639 40128 333 10322 29060 55117 58015;EQDQ01  00002PRCP06
0186832420999992005020512004-12567-041383FM-12+042799999V0201401N001010042019N0100001N1+02391+01971101591ADDAA106000091GF107991061071004501081001KA1240N+02131MA1999999096681MD1999999+0021REMSYN076AAXX  05124 83242 32497 71402 10239 20197 39668 40159 86780 333 20213 58002;EQDQ01  00002PRCP06
0167832420999992005020518004-12567-041383FM-12+042799999V0201401N001512200019N0100001N1+03211+01881101071ADDAA106000091GF102991021011004501001001MA1999999096211MD1999999-0021REMSYN070AAXX  05184 83242 32497 21403 10321 20188 39621 40107 82100 333 59002;EQDQ01  00002PRCP06
0179832420999992005020600004-12570-041380FM-12+043999999V0203601N001512200019N0020001N1+02611+01861101141ADDAA106000091GF100991001001999999001001MA1999999096251MD1999999-0141REMSYN082AAXX  06004 83242 32995 03603 10261 20186 39625 40114 333 10328 29062 55098 59014;EQDQ01  00002PRCP06
0173832420999992005020612004-12570-041380FM-12+043999999V0201401N001510042019N0040001N1+02411+02091101511ADDAA106000091GF108991081071004501999999MA1999999096601MD1999999-0081REMSYN076AAXX  06124 83242 32496 81403 10241 20209 39660 40151 887// 333 20230 59008;EQDQ01  00002PRCP06
0167832420999992005020618004-12570-041380FM-12+043999999V0201401N003111050019N0100001N1+03191+01891100941ADDAA106000091GF106991031031004501001051MA1999999096111MD1999999-0101REMSYN070AAXX  06184 83242 32497 61406 10319 20189 39611 40094 83305 333 59010;EQDQ01  00002PRCP06
0208832420999992005020700004-12567-041383FM-12+042799999V0203201N001512200019N0020001N1+02531+01861101011ADDAA106000091GA1001+999999999GF100991001001999999001001KA1240M+03281MA1999999096121MD1999999-0131REMSYN082AAXX  07004 83242 32995 03203 10253 20186 39612 40101 333 10328 29065 55065 59013;EQDQ01  00002PRCP06
0190832420999992005020712004-12567-041383FM-12+042799999V0201401N001510042019N0040001N1+02471+02111101351ADDAY151061AY211061GF107991061071004501081001KA1240N+02281MA1999999096451MD1999999-0151MW1031REMSYN088AAXX  07124 83242 21496 71403 10247 20211 39645 40135 70351 86780 333 20228 59015 69914;
0183832420999992005020718004-12567-041383FM-12+042799999V0201401N002112200019N0100001N1+03151+02021100152ADDAA106000091GF104991021031004501051011MA1999999095961MD1999999-0151REMSYN070AAXX  07184 83242 32497 41404 10315 20202 39596 40015 82351 333 59015;EQDQ01+100153APOSLPQ02  00002PRCP06
0198832420999992005020800004-12567-041383FM-12+042799999V0200901N001510042019N0020001N1+02731+02071101081ADDAA106000091GF108991081071004501999999KA1240M+03221MA1999999096211MD1999999+0091REMSYN088AAXX  08004 83242 32495 80903 10273 20207 39621 40108 887// 333 10322 29066 55076 58009;EQDQ01  00002PRCP06
0190832420999992005020812004-12567-041383FM-12+042799999V0201801N002110042019N0040001N1+02291+02051101341ADDAY151061AY221061GF108991081071004501999999KA1240N+02221MA1999999096441MD1999999-0011MW1021REMSYN088AAXX  08124 83242 21496 81804 10229 20205 39644 40134 70252 887// 333 20222 59001 69954;
0167832420999992005020818004-12567-041383FM-12+042799999V0201801N001010042019N0100001N1+02851+01981100941ADDAA106000091GF107991051071004501031001MA1999999096081MD1999999+0121REMSYN070AAXX  08184 83242 32497 71802 10285 20198 39608 40094 85730 333 58012;EQDQ01  00002PRCP06
0190832420999992005020912004-12567-041383FM-12+042799999V0201801N003110450019N0040001N1+02331+01811101431ADDAY161061AY221061GF107991011031004501031011KA1240N+02051MA1999999096501MD1999999+0061MW1031REMSYN088AAXX  09124 83242 21496 71806 10233 20181 39650 40143 70362 81331 333 20205 58006 60034;
0183832420999992005020918004-12567-041383FM-12+042799999V0200901N002610450019N0100001N1+03141+01771100612ADDAA106000091GF106991031041004501051061MA1999999095791MD1999999-0291REMSYN070AAXX  09184 83242 32497 60905 10314 20177 39579 40061 83456 333 59029;EQDQ01+100613APOSLPQ02  00002PRCP06
0198832420999992005021000004-12567-041383FM-12+042799999V0200901N001510042019N0020001N1+02771+01821100941ADDAA106000091GF108991081071004501999999KA1240M+03221MA1999999096071MD1999999-0331REMSYN088AAXX  10004 83242 32495 80903 10277 20182 39607 40094 887// 333 10322 29057 55089 59033;EQDQ01  00002PRCP06
0186832420999992005021012004-12567-041383FM-12+042799999V0201801N002610042019N0040001N1+02521+01981101161ADDAA106000091GF107991061071004501031001KA1240N+02281MA1999999096301MD1999999-0201REMSYN076AAXX  10124 83242 32496 71805 10252 20198 39630 40116 86730 333 20228 59020;EQDQ01  00002PRCP06
0167832420999992005021018004-12567-041383FM-12+042799999V0200501N000510450019N0100001N1+03131+01941100551ADDAA106000091GF106991031071004501031031MA1999999095761MD1999999-0031REMSYN070AAXX  10184 83242 32497 60501 10313 20194 39576 40055 83733 333 59003;EQDQ01  00002PRCP06
0198832420999992005021100004-12567-041383FM-12+042799999V0200501N001510042019N0020001N1+02651+02021100731ADDAA106000091GF107991071071004501001001KA1240M+03181MA1999999095881MD1999999-0191REMSYN088AAXX  11004 83242 32495 70503 10265 20202 39588 40073 87700 333 10318 29064 55071 59019;EQDQ01  00002PRCP06
0190832420999992005021112004-12567-041383FM-12+042799999V0203601N001510042019N0100001N1+02531+02171101061ADDAY161061AY221061GF106991051071004501041001KA1240N+02261MA1999999096191MD1999999-0111MW1031REMSYN088AAXX  11124 83242 21497 63603 10253 20217 39619 40106 70362 85740 333 20226 59011 60024;
0167832420999992005021118004-12567-041383FM-12+042799999V0201801N002112200019N0100001N1+03141+02041100561ADDAA106000091GF104991031071004501031001MA1999999095771MD1999999+0011REMSYN070AAXX  11184 83242 32497 41804 10314 20204 39577 40056 83730 333 58001;EQDQ01  00002PRCP06
0210832420999992005021200004-12567-041383FM-12+042799999V0203601N000510042019N0020001N1+02531+02231100751ADDAA106000091GF108991081071004501999999KA1240M+03181MA1999999095891MD1999999+0011MW1131REMSYN094AAXX  12004 83242 31495 83601 10253 20223 39589 40075 713// 887// 333 10318 29074 55033 58001;EQDQ01  00002PRCP06
0190832420999992005021212004-12567-041383FM-12+042799999V0201801N001510042019N0040001N1+02111+02091101131ADDAY191061AY261061GF108991081071004501999999KA1240N+02031MA1999999096201MD1999999+0011MW1031REMSYN088AAXX  12124 83242 21496 81803 10211 20209 39620 40113 70396 887// 333 20203 58001 61364;
0167832420999992005021218004-12567-041383FM-12+042799999V0200501N001510042019N0100001N1+02731+02361100711ADDAA106000091GF107991061071004501061001MA1999999095851MD1999999+0081REMSYN070AAXX  12184 83242 32497 70503 10273 20236 39585 40071 86760 333 58008;EQDQ01  00002PRCP06
0185832420999992005021300004-12570-041380FM-12+043999999V0203201N002112200019N0020001N1+02591+02011100901ADDAA106000091GF102991021071004501001001MA1999999095991MD1999999+0101REMSYN088AAXX  13004 83242 32495 23204 10259 20201 39599 40090 82700 333 10285 29080 55000 58010;EQDQ01  00002PRCP06
0173832420999992005021312004-12570-041380FM-12+043999999V0200901N001510042019N0100001N1+02521+02271101121ADDAA106000091GF107991061071004501061001MA1999999096241MD1999999+0041REMSYN076AAXX  13124 83242 32497 70903 10252 20227 39624 40112 86760 333 20211 58004;EQDQ01  00002PRCP06
0167832420999992005021318004-12570-041380FM-12+043999999V0203201N002110042019N0100001N1+03081+02161100571ADDAA106000091GF107991061071004501041001MA1999999095771MD1999999-0081REMSYN070AAXX  13184 83242 32497 73204 10308 20216 39577 40057 86740 333 59008;EQDQ01  00002PRCP06
0202832420999992005021400004-12567-041383FM-12+042799999V0203601N001010042019N0020001N1+02371+02331100971ADDAY161061AY221061GF108991081071004501999999KA1240M+03161MA1999999096081MD1999999+0091MW1031REMSYN100AAXX  14004 83242 21495 83602 10237 20233 39608 40097 70362 887// 333 10316 29084 55015 58009 60031;
0190832420999992005021412004-12567-041383FM-12+042799999V0203601N000510042019N0020001N1+02281+02251101111ADDAY161061AY221061GF108991081071004501999999KA1240N+02261MA1999999096191MD1999999-0051MW1601REMSYN088AAXX  14124 83242 21495 83601 10228 20225 39619 40111 76062 887// 333 20226 59005 60114;
0171832420999992005021418004-12567-041383FM-12+042799999V0203601N003110042019N0100001N1+02931+02211100571ADDAY161061AY251061GF107991061071004501061001MA1999999095721MD1999999-0051MW1031REMSYN082AAXX  14184 83242 21497 73606 10293 20221 39572 40057 70365 86760 333 59005 60011;
0202832420999992005021500004-12567-041383FM-12+042799999V0202701N005110042019N0010001N1+02431+02111100831ADDAY151061AY221061GF108991081071004501999999KA1240M+02971MA1999999095931MD1999999-0151MW1631REMSYN100AAXX  15004 83242 21494 82710 10243 20211 39593 40083 76352 887// 333 10297 29082 55021 59015 60021;
0190832420999992005021512004-12567-041383FM-12+042799999V0201801N001010042019N0040001N1+02271+02261100941ADDAY161061AY221061GF108991081071004501999999KA1240N+02191MA1999999096031MD1999999-0161MW1101REMSYN088AAXX  15124 83242 21496 81802 10227 20226 39603 40094 71062 887// 333 20219 59016 60134;
0171832420999992005021518004-12567-041383FM-12+042799999V0203601N002110042019N0100001N1+02531+02231100791ADDAY161061AY241061GF108991081071004501999999MA1999999095701MD1999999-0021MW1031REMSYN082AAXX  15184 83242 21497 83604 10253 20223 39570 40079 70364 887// 333 59002 60011;
0198832420999992005021600004-12567-041383FM-12+042799999V0203201N003110042019N0020001N1+02431+02171100861ADDAA106000091GF108991081071004501999999KA1240M+02611MA1999999095951MD1999999+0021REMSYN088AAXX  16004 83242 32495 83206 10243 20217 39595 40086 887// 333 10261 29088 55000 58002;EQDQ01  00002PRCP06
0190832420999992005021612004-12567-041383FM-12+042799999V0203601N000510042019N0040001N1+02291+02251100981ADDAY161061AY241061GF108991081071004501999999KA1240N+02131MA1999999096071MD1999999+0041MW1031REMSYN088AAXX  16124 83242 21496 83601 10229 20225 39607 40098 70364 887// 333 20213 58004 60094;
0171832420999992005021618004-12567-041383FM-12+042799999V0201801N001510042019N0100001N1+02701+02391100651ADDAY161061AY221061GF108991081071004501999999MA1999999095761MD1999999+0061MW1031REMSYN082AAXX  16184 83242 21497 81803 10270 20239 39576 40065 70362 887// 333 58006 60041;
0202832420999992005021700004-12567-041383FM-12+042799999V0209999C000010042019N0010001N1+02281+02281101031ADDAY191061AY261061GF108991081071004501999999KA1240M+02801MA1999999096111MD1999999+0161MW1611REMSYN100AAXX  17004 83242 21494 80000 10228 20228 39611 40103 76196 887// 333 10280 29095 55003 58016 60441;
0190832420999992005021712004-12567-041383FM-12+042799999V0203601N000510042019N0100001N1+02331+02221101321ADDAY161061AY221061GF108991081071004501999999KA1240N+02151MA1999999096381MD1999999+0311MW1031REMSYN088AAXX  17124 83242 21497 83601 10233 20222 39638 40132 70362 887// 333 20215 58031 60774;
0167832420999992005021718004-12567-041383FM-12+042799999V0201801N001010042019N0100001N1+02871+02371100911ADDAA106000091GF107991061071004501041001MA1999999096031MD1999999+0271REMSYN070AAXX  17184 83242 32497 71802 10287 20237 39603 40091 86740 333 58027;EQDQ01  00002PRCP06
0202832420999992005021800004-12567-041383FM-12+042799999V0202301N001010042019N0010001N1+02281+02181101301ADDAY161061AY251061GF108991081071004501999999KA1240M+02941MA1999999096401MD1999999+0291MW1611REMSYN100AAXX  18004 83242 21494 82302 10228 20218 39640 40130 76165 887// 333 10294 29089 55023 58029 60191;
0190832420999992005021812004-12567-041383FM-12+042799999V0203601N001010042019N0100001N1+02401+02211101661ADDAY161061AY221061GF107991061071004501041001KA1240N+02221MA1999999096621MD1999999+0241MW1031REMSYN088AAXX  18124 83242 21497 73602 10240 20221 39662 40166 70362 86740 333 20222 58024 60214;
0167832420999992005021818004-12567-041383FM-12+042799999V0201401N001510042019N0100001N1+02791+02251101141ADDAA106000091GF107991061071004501051001MA1999999096241MD1999999+0211REMSYN070AAXX  18184 83242 32497 71403 10279 20225 39624 40114 86750 333 58021;EQDQ01  00002PRCP06
0198832420999992005021900004-12567-041383FM-12+042799999V0209999C000010042019N0020001N1+02461+02251101271ADDAA106000091GF106991061071004501001001KA1240M+02841MA1999999096361MD1999999-0041REMSYN088AAXX  19004 83242 32495 60000 10246 20225 39636 40127 86700 333 10284 29084 55000 59004;EQDQ01  00002PRCP06
0186832420999992005021912004-12567-041383FM-12+042799999V0200901N001010042019N0100001N1+02391+01971101571ADDAA106000091GF108991081071004501999999KA1240N+02191MA1999999096641MD1999999+0021REMSYN076AAXX  19124 83242 32497 80902 10239 20197 39664 40157 887// 333 20219 58002;EQDQ01  00002PRCP06
0167832420999992005021918004-12567-041383FM-12+042799999V0200801N001011050019N0100001N1+02961+02051100991ADDAA106000091GF108991031011004501001071MA1999999096131MD1999999-0111REMSYN070AAXX  19184 83242 32497 80802 10296 20205 39613 40099 83107 333 59011;EQDQ01  00002PRCP06
0185832420999992005022000004-12570-041380FM-12+043999999V0209999C000012200019N0020001N1+02451+02111101211ADDAA106000091GF103991031061004501001001MA1999999096301MD1999999-0061REMSYN088AAXX  20004 83242 32495 30000 10245 20211 39630 40121 83600 333 10304 29074 55070 59006;EQDQ01  00002PRCP06
0173832420999992005022012004-12570-041380FM-12+043999999V0209999C000010042019N0100001N1+02451+02151101291ADDAA106000091GF106991051071004501031001MA1999999096381MD1999999-0261REMSYN076AAXX  20124 83242 32497 60000 10245 20215 39638 40129 85730 333 20215 59026;EQDQ01  00002PRCP06
0167832420999992005022018004-12570-041380FM-12+043999999V0201401N001510042019N0100001N1+03211+02231100571ADDAA106000091GF108991061071004501041061MA1999999095741MD1999999-0391REMSYN070AAXX  20184 83242 32497 81403 10321 20223 39574 40057 86746 333 59039;EQDQ01  00002PRCP06
0202832420999992005022100004-12567-041383FM-12+042799999V0203601N001510042019N0020001N1+02341+02201101001ADDAY191061AY261061GF108991081071004501999999KA1240M+03231MA1999999096101MD1999999-0201MW1031REMSYN100AAXX  21004 83242 21495 83603 10234 20220 39610 40100 70396 887// 333 10323 29081 55054 59020 60161;
0190832420999992005022112004-12567-041383FM-12+042799999V0200501N001510042019N0100001N1+02341+02291101001ADDAY161061AY251061GF108991081071004501999999KA1240N+02241MA1999999096091MD1999999-0291MW1031REMSYN088AAXX  21124 83242 21497 80503 10234 20229 39609 40100 70365 887// 333 20224 59029 60174;
0171832420999992005022118004-12567-041383FM-12+042799999V0201801N003610042019N0040001N1+02251+02191100851ADDAY191061AY261061GF108991081071004501999999MA1999999095911MD1999999-0171MW1611REMSYN082AAXX  21184 83242 21496 81807 10225 20219 39591 40085 76196 887// 333 59017 60311;
0202832420999992005022200004-12567-041383FM-12+042799999V0203601N000511050019N0020001N1+02181+02131100961ADDAY161061AY221061GF106991041071004501001021KA1240M+02991MA1999999096031MD1999999-0071MW1031REMSYN100AAXX  22004 83242 21495 63601 10218 20213 39603 40096 70362 84702 333 10299 29097 55021 59007 60041;
0190832420999992005022212004-12567-041383FM-12+042799999V0200901N000510042019N0020001N1+02171+02151101221ADDAY161061AY241061GF108991081071004501999999KA1240N+02071MA1999999096251MD1999999+0161MW1211REMSYN088AAXX  22124 83242 21495 80901 10217 20215 39625 40122 72164 887// 333 20207 58016 60374;
0148832420999992005022218004-12567-041383FM-12+042799999V0200501N001010042019N0100001N1+02761+02251100941ADDAA106000021GF108991051071004501041021MA1999999096041MD1999999+0131REMSYN070AAXX  22184 83242 32497 80502 10276 20225 39604 40094 85742 333 58013;
0198832420999992005022300004-12567-041383FM-12+042799999V0201801N001010042019N0020001N1+02351+02111101211ADDAA106000091GF108991081071004501999999KA1240M+02901MA1999999096261MD1999999+0231REMSYN088AAXX  23004 83242 32495 81802 10235 20211 39626 40121 887// 333 10290 29086 55016 58023;EQDQ01  00002PRCP06
0186832420999992005022312004-12567-041383FM-12+042799999V0200901N000510042019N0100001N1+02301+02231101441ADDAA106000091GF108991081071004501999999KA1240N+02111MA1999999096491MD1999999+0241REMSYN076AAXX  23124 83242 32497 80901 10230 20223 39649 40144 887// 333 20211 58024;EQDQ01  00002PRCP06
0179832420999992005022318004-12567-041383FM-12+042799999V0200501N003110042019N0040001N1+02871+02281100901ADDAA106000091GF108991051071004501051061MA1999999096111MD1999999+0071MW1161REMSYN076AAXX  23184 83242 31496 80506 10287 20228 39611 40090 716// 85756 333 58007;EQDQ01  00002PRCP06
0202832420999992005022400004-12567-041383FM-12+042799999V0209999C000010042019N0020001N1+02471+02251101351ADDAY191061AY251061GF106991061071004501001001KA1240M+03061MA1999999096431MD1999999+0171MW1031REMSYN100AAXX  24004 83242 21495 60000 10247 20225 39643 40135 70395 86700 333 10306 29085 55046 58017 69901;
0190832420999992005022412004-12567-041383FM-12+042799999V0201801N001510042019N0100001N1+02391+02241101571ADDAY161061AY221061GF108991081071004501999999KA1240N+02301MA1999999096651MD1999999+0161MW1031REMSYN088AAXX  24124 83242 21497 81803 10239 20224 39665 40157 70362 887// 333 20230 58016 60014;
0167832420999992005022418004-12567-041383FM-12+042799999V0201401N001510042019N0100001N1+02961+02281101061ADDAA106000091GF107991061071004501041011MA1999999096201MD1999999+0091REMSYN070AAXX  24184 83242 32497 71403 10296 20228 39620 40106 86741 333 58009;EQDQ01  00002PRCP06
0202832420999992005022500004-12567-041383FM-12+042799999V0202301N001010042019N0020001N1+02511+02331101351ADDAY191061AY251061GF107991071071004501001001KA1240M+03041MA1999999096441MD1999999+0011MW1031REMSYN100AAXX  25004 83242 21495 72302 10251 20233 39644 40135 70395 87700 333 10304 29084 55041 58001 69951;
0162832420999992005022512004-12567-041383FM-12+042799999V0201401N001510042019N0100001N1+02481+02291101521ADDGF107991061071004501031001KA1240N+02321MA1999999096601MD1999999-0051REMSYN082AAXX  25124 83242 22497 71403 10248 20229 39660 40152 86730 333 20232 59005 69954;
0167832420999992005022518004-12567-041383FM-12+042799999V0201401N001510450019N0100001N1+03021+02161101041ADDAA106000091GF105991031051004501041001MA1999999096181MD1999999-0021REMSYN070AAXX  25184 83242 32497 51403 10302 20216 39618 40104 83540 333 59002;EQDQ01  00002PRCP06
0198832420999992005022600004-12567-041383FM-12+042799999V0203601N000512200019N0020001N1+02521+01961101101ADDAA106000091GF104991021051004501031001KA1240M+03121MA1999999096211MD1999999-0231REMSYN088AAXX  26004 83242 32495 43601 10252 20196 39621 40110 82530 333 10312 29078 55091 59023;EQDQ01  00002PRCP06
0186832420999992005022612004-12567-041383FM-12+042799999V0201401N001510042019N0100001N1+02491+02271101311ADDAA106000091GF107991071071004501001001KA1240N+02241MA1999999096411MD1999999-0191REMSYN076AAXX  26124 83242 32497 71403 10249 20227 39641 40131 87700 333 20224 59019;EQDQ01  00002PRCP06
0167832420999992005022618004-12567-041383FM-12+042799999V0201401N002112200019N0100001N1+03221+02231100911ADDAA106000091GF104991041011004501001001MA1999999096071MD1999999-0111REMSYN070AAXX  26184 83242 32497 41404 10322 20223 39607 40091 84100 333 59011;EQDQ01  00002PRCP06
0185832420999992005022700004-12570-041380FM-12+043999999V0202701N000512200019N0020001N1+02751+02281101121ADDAA106000091GF104991031051004501031001MA1999999095251MD1999999+0041REMSYN088AAXX  27004 83242 32495 42701 10275 20228 39525 40112 83530 333 10326 29073 55076 58004;EQDQ01  00002PRCP06
0185832420999992005022712004-12570-041380FM-12+043999999V0200901N001010042019N0040001N1+02711+02241101241ADDAA106000091GF108991061071004501031071MA1999999096391MD1999999-0021MW1051REMSYN082AAXX  27124 83242 31496 80902 10271 20224 39639 40124 705// 86737 333 20230 59002;EQDQ01  00002PRCP06
0167832420999992005022718004-12570-041380FM-12+043999999V0200901N000510042019N0100001N1+03181+02381100921ADDAA106000091GF108991051011004501041071MA1999999095981MD1999999-0091REMSYN070AAXX  27184 83242 32497 80901 10318 20238 39598 40092 85147 333 59009;EQDQ01  00002PRCP06
0198832420999992005022800004-12567-041383FM-12+042799999V0209999C000012200019N0020001N1+02671+02391101121ADDAA106000091GF103991031031004501001001KA1240M+03231MA1999999096271MD1999999+0021REMSYN088AAXX  28004 83242 32495 30000 10267 20239 39627 40112 83300 333 10323 29076 55076 58002;EQDQ01  00002PRCP06
0186832420999992005022812004-12567-041383FM-12+042799999V0200901N001510042019N0100001N1+02531+02251101421ADDAA106000091GF108991061071004501041071KA1240N+02301MA1999999096541MD1999999+0151REMSYN076AAXX  28124 83242 32497 80903 10253 20225 39654 40142 86747 333 20230 58015;EQDQ01  00002PRCP06
0167832420999992005022818004-12567-041383FM-12+042799999V0201401N001510450019N0100001N1+03101+02231100941ADDAA106000091GF108991041011004501021071MA1999999096091MD1999999+0101REMSYN070AAXX  28184 83242 32497 81403 10310 20223 39609 40094 84127 333 58010;EQDQ01  00002PRCP06
0208832420999992005030100004-12567-041383FM-12+042799999V0202301N001012200019N0020001N1+02631+02231101251ADDAA106000091GA1001+999999999GF100991001001999999001001KA1240M+03201MA1999999096281MD1999999+0011REMSYN082AAXX  01004 83242 32995 02302 10263 20223 39628 40125 333 10320 29075 55076 58001;EQDQ01  00002PRCP06
0198832420999992005030112004-12567-041383FM-12+042799999V0201401N001510042019N0040001N1+02551+02231101341ADDAA106000091GF108991051041004501031071KA1240N+02261MA1999999096461MD1999999-0081MW1101REMSYN082AAXX  01124 83242 31496 81403 10255 20223 39646 40134 710// 85437 333 20226 59008;EQDQ01  00002PRCP06
0167832420999992005030118004-12567-041383FM-12+042799999V0201401N001511050019N0100001N1+03191+02151100821ADDAA106000091GF108991021031004501001071MA1999999095981MD1999999-0111REMSYN070AAXX  01184 83242 32497 81403 10319 20215 39598 40082 82307 333 59011;EQDQ01  00002PRCP06
0208832420999992005030200004-12567-041383FM-12+042799999V0200501N001012200019N0020001N1+02751+02321101061ADDAA106000091GA1001+999999999GF100991001001999999001001KA1240M+03261MA1999999096201MD1999999-0081REMSYN082AAXX  02004 83242 32995 00502 10275 20232 39620 40106 333 10326 29072 55095 59008;EQDQ01  00002PRCP06
0198832420999992005030212004-12567-041383FM-12+042799999V0201401N001510042019N0040001N1+02451+02281101331ADDAA106000091GF108991081071004501999999KA1240N+02301MA1999999096451MD1999999-0011MW1101REMSYN082AAXX  02124 83242 31496 81403 10245 20228 39645 40133 710// 887// 333 20230 59001;EQDQ01  00002PRCP06
0167832420999992005030218004-12567-041383FM-12+042799999V0201401N002610450019N0100001N1+03001+02191100981ADDAA106000091GF107991041071004501081021MA1999999096121MD1999999+0141REMSYN070AAXX  02184 83242 32497 71405 10300 20219 39612 40098 84782 333 58014;EQDQ01  00002PRCP06
0208832420999992005030300004-12567-041383FM-12+042799999V0203601N000512200019N0020001N1+02411+02131101221ADDAA106000091GA1001+999999999GF100991001001999999001001KA1240M+03021MA1999999096321MD1999999+0121REMSYN082AAXX  03004 83242 32995 03601 10241 20213 39632 40122 333 10302 29080 55055 58012;EQDQ01  00002PRCP06
0186832420999992005030312004-12567-041383FM-12+042799999V0201801N001510042019N0100001N1+02371+02031101561ADDAA106000091GF108991081071004501999999KA1240N+02071MA1999999096631MD1999999+0181REMSYN076AAXX  03124 83242 32497 81803 10237 20203 39663 40156 887// 333 20207 58018;EQDQ01  00002PRCP06
0208832420999992005030400004-12567-041383FM-12+042799999V0209999C000012200019N0020001N1+02481+02291101401ADDAA106000091GA1001+999999999GF100991001001999999001001KA1240M+03101MA1999999096481MD1999999+0161REMSYN082AAXX  04004 83242 32995 00000 10248 20229 39648 40140 333 10310 29078 55081 58016;EQDQ01  00002PRCP06
0186832420999992005030412004-12567-041383FM-12+042799999V0201401N001510450019N0100001N1+02431+01921101561ADDAA106000091GF106991041071004501031001KA1240N+02171MA1999999096641MD1999999+0011REMSYN076AAXX  04124 83242 32497 61403 10243 20192 39664 40156 84730 333 20217 58001;EQDQ01  00002PRCP06
0167832420999992005030418004-12567-041383FM-12+042799999V0200501N001510450019N0100001N1+02981+01981101131ADDAA106000091GF105991041041004501031001MA1999999096251MD1999999-0011REMSYN070AAXX  04184 83242 32497 50503 10298 20198 39625 40113 84430 333 59001;EQDQ01  00002PRCP06
0208832420999992005030500004-12567-041383FM-12+042799999V0200501N000512200019N0020001N1+02461+02091101291ADDAA106000091GA1001+999999999GF100991001001999999001001KA1240M+03011MA1999999096381MD1999999-0101REMSYN082AAXX  05004 83242 32995 00501 10246 20209 39638 40129 333 10301 29072 55088 59010;EQDQ01  00002PRCP06
0190832420999992005030512004-12567-041383FM-12+042799999V0201801N000510042019N0040001N1+02391+02191101561ADDAY151061AY221061GF108991081071004501999999KA1240N+02131MA1999999096631MD1999999-0011MW1161REMSYN088AAXX  05124 83242 21496 81801 10239 20219 39663 40156 71652 887// 333 20213 59001 69904;
0167832420999992005030518004-12567-041383FM-12+042799999V0201801N001510450019N0100001N1+02971+02331101111ADDAA106000091GF106991041051004501091061MA1999999096281MD1999999+0031REMSYN070AAXX  05184 83242 32497 61803 10297 20233 39628 40111 84596 333 58003;EQDQ01  00002PRCP06
0185832420999992005030600004-12570-041380FM-12+043999999V0203601N001012200019N0020001N1+02531+02191101341ADDAA106000091GF104991041001022501011001MA1999999096431MD1999999+0051REMSYN088AAXX  06004 83242 32895 43602 10253 20219 39643 40134 84010 333 10304 29079 55046 58005;EQDQ01  00002PRCP06
0173832420999992005030612004-12570-041380FM-12+043999999V0201801N001510042019N0100001N1+02381+02151101451ADDAA106000091GF108991081071004501999999MA1999999096541MD1999999-0091REMSYN076AAXX  06124 83242 32497 81803 10238 20215 39654 40145 887// 333 20230 59009;EQDQ01  00002PRCP06
0167832420999992005030618004-12570-041380FM-12+043999999V0201401N001511050019N0100001N1+02901+02251100921ADDAA106000091GF105991021041004501031061MA1999999096061MD1999999-0221REMSYN070AAXX  06184 83242 32497 51403 10290 20225 39606 40092 82436 333 59022;EQDQ01  00002PRCP06
0208832420999992005030700004-12567-041383FM-12+042799999V0203601N001012200019N0020001N1+02531+02111101131ADDAA106000091GA1001+999999999GF100991001001999999001001KA1240M+03081MA1999999096231MD1999999-0201REMSYN082AAXX  07004 83242 32995 03602 10253 20211 39623 40113 333 10308 29077 55057 59020;EQDQ01  00002PRCP06
0190832420999992005030712004-12567-041383FM-12+042799999V0201401N001010042019N0100001N1+02411+02071101391ADDAY161061AY211061GF108991081071004501999999KA1240N+02171MA1999999096481MD1999999-0061MW1031REMSYN088AAXX  07124 83242 21497 81402 10241 20207 39648 40139 70361 887// 333 20217 59006 60024;
0167832420999992005030718004-12567-041383FM-12+042799999V0201801N000510450019N0100001N1+02811+02171100981ADDAA106000091GF106991041061004501031081MA1999999096091MD1999999+0031REMSYN070AAXX  07184 83242 32497 61801 10281 20217 39609 40098 84638 333 58003;EQDQ01  00002PRCP06
0208832420999992005030800004-12567-041383FM-12+042799999V0203601N000512200019N0020001N1+02421+02191101321ADDAA106000091GA1001+999999999GF100991001001999999001001KA1240M+02811MA1999999096401MD1999999+0171REMSYN082AAXX  08004 83242 32995 03601 10242 20219 39640 40132 333 10281 29080 55006 58017;EQDQ01  00002PRCP06
0186832420999992005030812004-12567-041383FM-12+042799999V0200901N001510042019N0100001N1+02611+02121101381ADDAA106000091GF107991061071004501051001KA1240N+02191MA1999999096501MD1999999+0021REMSYN076AAXX  08124 83242 32497 70903 10261 20212 39650 40138 86750 333 20219 58002;EQDQ01  00002PRCP06
0167832420999992005030818004-12567-041383FM-12+042799999V0200901N001510042019N0100001N1+02961+02261100901ADDAA106000091GF107991061061004501031001MA1999999096041MD1999999-0051REMSYN070AAXX  08184 83242 32497 70903 10296 20226 39604 40090 86630 333 59005;EQDQ01  00002PRCP06
0198832420999992005030900004-12567-041383FM-12+042799999V0203601N000510042019N0020001N1+02561+02291101141ADDAA106000091GF108991081061004501999999KA1240M+03041MA1999999096271MD1999999-0131REMSYN088AAXX  09004 83242 32495 83601 10256 20229 39627 40114 886// 333 10304 29078 55050 59013;EQDQ01  00002PRCP06
0186832420999992005030912004-12567-041383FM-12+042799999V0201801N000510450019N0100001N1+02351+02091101191ADDAA106000091GF106991041051004501061001KA1240N+02111MA1999999096291MD1999999-0211REMSYN076AAXX  09124 83242 32497 61801 10235 20209 39629 40119 84560 333 20211 59021;EQDQ01  00002PRCP06
0167832420999992005030918004-12567-041383FM-12+042799999V0201401N001510450019N0100001N1+03001+02171100731ADDAA106000091GF106991041061004501051081MA1999999095901MD1999999-0141REMSYN070AAXX  09184 83242 32497 61403 10300 20217 39590 40073 84658 333 59014;EQDQ01  00002PRCP06
0208832420999992005031000004-12567-041383FM-12+042799999V0201401N000512200019N0020001N1+02611+02211100941ADDAA106000091GA1001+999999999GF100991001001999999001001KA1240M+03061MA1999999096061MD1999999-0211REMSYN082AAXX  10004 83242 32995 01401 10261 20221 39606 40094 333 10306 29075 55068 59021;EQDQ01  00002PRCP06
0186832420999992005031012004-12567-041383FM-12+042799999V0200501N000510042019N0100001N1+02411+02111101471ADDAA106000091GF108991081071004501999999KA1240N+02301MA1999999096521MD1999999+0231REMSYN076AAXX  10124 83242 32497 80501 10241 20211 39652 40147 887// 333 20230 58023;EQDQ01  00002PRCP06
0179832420999992005031018004-12567-041383FM-12+042799999V0201401N001512200019N0040001N1+02911+02171100961ADDAA106000091GF104991021041004501031081MA1999999096101MD1999999+0201MW1051REMSYN076AAXX  10184 83242 31496 41403 10291 20217 39610 40096 705// 82438 333 58020;EQDQ01  00002PRCP06
0208832420999992005031100004-12567-041383FM-12+042799999V0201801N000512200019N0020001N1+02551+02271101231ADDAA106000091GA1001+999999999GF100991001001999999001001KA1240M+02991MA1999999096341MD1999999+0281REMSYN082AAXX  11004 83242 32995 01801 10255 20227 39634 40123 333 10299 29079 55030 58028;EQDQ01  00002PRCP06
0186832420999992005031112004-12567-041383FM-12+042799999V0200501N001010042019N0100001N1+02431+02231101401ADDAA106000091GF108991081071004501999999KA1240N+02191MA1999999096501MD1999999-0021REMSYN076AAXX  11124 83242 32497 80502 10243 20223 39650 40140 887// 333 20219 59002;EQDQ01  00002PRCP06
0167832420999992005031118004-12567-041383FM-12+042799999V0201401N001510450019N0100001N1+03201+02241100901ADDAA106000091GF105991031021004501031001MA1999999096061MD1999999-0041REMSYN070AAXX  11184 83242 32497 51403 10320 20224 39606 40090 83230 333 59004;EQDQ01  00002PRCP06
0198832420999992005031200004-12567-041383FM-12+042799999V0209999C000012200019N0020001N1+02791+02521101111ADDAA106000091GF104991041041004501001001KA1240M+03231MA1999999096241MD1999999-0101REMSYN088AAXX  12004 83242 32495 40000 10279 20252 39624 40111 84400 333 10323 29079 55063 59010;EQDQ01  00002PRCP06
0190832420999992005031212004-12567-041383FM-12+042799999V0200901N000510042019N0040001N1+02311+02241101351ADDAY161061AY211061GF108991081071004501999999KA1240N+02171MA1999999096471MD1999999-0031MW1101REMSYN088AAXX  12124 83242 21496 80901 10231 20224 39647 40135 71061 887// 333 20217 59003 60244;
0167832420999992005031218004-12567-041383FM-12+042799999V0201801N000510042019N0100001N1+02981+02251100821ADDAA106000091GF107991061071004501061001MA1999999095951MD1999999-0111REMSYN070AAXX  12184 83242 32497 71801 10298 20225 39595 40082 86760 333 59011;EQDQ01  00002PRCP06
0185832420999992005031300004-12570-041380FM-12+043999999V0209999C000010042019N0020001N1+02571+02351101031ADDAA106000091GF108991081071004501999999MA1999999096141MD1999999-0101REMSYN088AAXX  13004 83242 32495 80000 10257 20235 39614 40103 887// 333 10296 29084 55015 59010;EQDQ01  00002PRCP06
0177832420999992005031312004-12570-041380FM-12+043999999V0201801N001010042019N0040001N1+02351+02331101291ADDAY161061AY221061GF108991081071004501999999MA1999999096381MD1999999-0091MW1101REMSYN088AAXX  13124 83242 21496 81802 10235 20233 39638 40129 71062 887// 333 20224 59009 60064;
0171832420999992005031318004-12570-041380FM-12+043999999V0200501N003110042019N0100001N1+02811+02171100801ADDAY181061AY221061GF107991061071004501041001MA1999999095931MD1999999-0021MW1031REMSYN082AAXX  13184 83242 21497 70506 10281 20217 39593 40080 70382 86740 333 59002 60431;
0189832420999992005031400004-12570-041380FM-12+043999999V0200901N001510042019N0020001N1+02471+02091101131ADDAY151061AY221061GF108991081071004501999999MA1999999096211MD1999999+0071MW1031REMSYN100AAXX  14004 83242 21495 80903 10247 20209 39621 40113 70352 887// 333 10289 29081 55003 58007 69901;
0177832420999992005031412004-12570-041380FM-12+043999999V0201801N001010042019N0040001N1+02311+02291101311ADDAY161061AY221061GF108991081071004501999999MA1999999096401MD1999999+0021MW1101REMSYN088AAXX  14124 83242 21496 81802 10231 20229 39640 40131 71062 887// 333 20217 58002 60464;
0167832420999992005031418004-12567-041383FM-12+042799999V0201401N001510042019N0100001N1+02931+02241100841ADDAA106000091GF106991051071004501061001MA1999999095961MD1999999+0031REMSYN070AAXX  14184 83242 32497 61403 10293 20224 39596 40084 85760 333 58003;EQDQ01  00002PRCP06
0210832420999992005031500004-12567-041383FM-12+042799999V0202301N000510042019N0020001N1+02471+02271101011ADDAA106000091GF107991071071004501001001KA1240M+03021MA1999999096111MD1999999-0101MW1131REMSYN094AAXX  15004 83242 31495 72301 10247 20227 39611 40101 713// 87700 333 10302 29085 55049 59010;EQDQ01  00002PRCP06
0190832420999992005031512004-12567-041383FM-12+042799999V0201401N002110042019N0040001N1+02371+02211101291ADDAY151061AY221061GF108991081071004501999999KA1240N+02321MA1999999096371MD1999999-0031MW1151REMSYN088AAXX  15124 83242 21496 81404 10237 20221 39637 40129 71552 887// 333 20232 59003 69904;
0171832420999992005031518004-12567-041383FM-12+042799999V0201401N002610042019N0100001N1+02841+02171100841ADDAY161061AY221061GF108991051071004501001071MA1999999095981MD1999999+0021MW1001REMSYN082AAXX  15184 83242 21497 81405 10284 20217 39598 40084 70062 85707 333 58002 60051;
0198832420999992005031600004-12567-041383FM-12+042799999V0203601N001010042019N0020001N1+02481+02191101161ADDAA106000091GF108991081071004501999999KA1240M+02961MA1999999096251MD1999999+0141REMSYN088AAXX  16004 83242 32495 83602 10248 20219 39625 40116 887// 333 10296 29081 55069 58014;EQDQ01  00002PRCP06
0190832420999992005031612004-12567-041383FM-12+042799999V0201401N002110042019N0100001N1+02301+02161101481ADDAY161061AY221061GF107991061071004501061001KA1240N+02241MA1999999096551MD1999999+0181MW1031REMSYN088AAXX  16124 83242 21497 71404 10230 20216 39655 40148 70362 86760 333 20224 58018 60074;
0167832420999992005031618004-12567-041383FM-12+042799999V0201401N001010042019N0100001N1+02961+02211101041ADDAA106000091GF106991051051004501031001MA1999999096181MD1999999+0101REMSYN070AAXX  16184 83242 32497 61402 10296 20221 39618 40104 85530 333 58010;EQDQ01  00002PRCP06
0198832420999992005031700004-12567-041383FM-12+042799999V0209999C000010042019N0020001N1+02511+02211101221ADDAA106000091GF108991081071004501999999KA1240M+03001MA1999999096311MD1999999+0061REMSYN088AAXX  17004 83242 32495 80000 10251 20221 39631 40122 887// 333 10300 29080 55078 58006;EQDQ01  00002PRCP06
0190832420999992005031712004-12567-041383FM-12+042799999V0201801N001010042019N0100001N1+02391+02071101451ADDAY151061AY221061GF107991051071004501051011KA1240N+02171MA1999999096541MD1999999-0011MW1031REMSYN088AAXX  17124 83242 21497 71802 10239 20207 39654 40145 70352 85751 333 20217 59001 69954;
0167832420999992005031718004-12567-041383FM-12+042799999V0202301N001010450019N0100001N1+03021+02181100931ADDAA106000091GF105991031061004501061041MA1999999096081MD1999999-0101REMSYN070AAXX  17184 83242 32497 52302 10302 20218 39608 40093 83664 333 59010;EQDQ01  00002PRCP06
0198832420999992005031800004-12567-041383FM-12+042799999V0209999C000010450019N0020001N1+02451+02211101081ADDAA106000091GF105991031041004501031001KA1240M+03071MA1999999096171MD1999999-0141REMSYN088AAXX  18004 83242 32495 50000 10245 20221 39617 40108 83430 333 10307 29078 55075 59014;EQDQ01  00002PRCP06
0186832420999992005031812004-12567-041383FM-12+042799999V0201401N001010042019N0100001N1+02461+02091101371ADDAA106000091GF107991061071004501031001KA1240N+02221MA1999999096461MD1999999-0081REMSYN076AAXX  18124 83242 32497 71402 10246 20209 39646 40137 86730 333 20222 59008;EQDQ01  00002PRCP06
0167832420999992005031818004-12567-041383FM-12+042799999V0200901N000512200019N0100001N1+03081+02071100891ADDAA106000091GF104991021021004501051081MA1999999096041MD1999999-0041REMSYN070AAXX  18184 83242 32497 40901 10308 20207 39604 40089 82258 333 59004;EQDQ01  00002PRCP06
0198832420999992005031900004-12567-041383FM-12+042799999V0203601N001010042019N0020001N1+02471+02031101051ADDAA106000091GF106991061041004501001001KA1240M+03141MA1999999096151MD1999999-0021REMSYN088AAXX  19004 83242 32495 63602 10247 20203 39615 40105 86400 333 10314 29072 55087 59002;EQDQ01  00002PRCP06
0190832420999992005031912004-12567-041383FM-12+042799999V0203601N001010042019N0100001N1+02351+02091101421ADDAY151061AY221061GF108991081071004501999999KA1240N+02281MA1999999096501MD1999999+0041MW1031REMSYN088AAXX  19124 83242 21497 83602 10235 20209 39650 40142 70352 887// 333 20228 58004 69914;
0179832420999992005031918004-12567-041383FM-12+042799999V0201401N001512200019N0040001N1+02901+02101100911ADDAA106000091GF104991031021004501041021MA1999999096041MD1999999+0001MW1051REMSYN076AAXX  19184 83242 31496 41403 10290 20210 39604 40091 705// 83242 333 58000;EQDQ01  00002PRCP06
0179832420999992005032000004-12570-041380FM-12+043999999V0203601N001012200019N0020001N1+02431+02051101161ADDAA106000091GF100991001001999999001001MA1999999096251MD1999999+0101REMSYN082AAXX  20004 83242 32995 03602 10243 20205 39625 40116 333 10302 29076 55058 58010;EQDQ01  00002PRCP06
0173832420999992005032012004-12570-041380FM-12+043999999V0200901N001010042019N0100001N1+02511+02191101441ADDAA106000091GF108991051071004501031071MA1999999096531MD1999999+0031REMSYN076AAXX  20124 83242 32497 80902 10251 20219 39653 40144 85737 333 20215 58003;EQDQ01  00002PRCP06
0179832420999992005032018004-12570-041380FM-12+043999999V0201401N001512200019N0040001N1+03131+02071100891ADDAA106000091GF104991021031004501061061MA1999999096041MD1999999+0001MW1051REMSYN076AAXX  20184 83242 31496 41403 10313 20207 39604 40089 705// 82366 333 58000;EQDQ01  00002PRCP06
0208832420999992005032100004-12567-041383FM-12+042799999V0203601N000512200019N0020001N1+02561+02131101181ADDAA106000091GA1001+999999999GF100991001001999999001001KA1240M+03141MA1999999096261MD1999999+0011REMSYN082AAXX  21004 83242 32995 03601 10256 20213 39626 40118 333 10314 29072 55096 58001;EQDQ01  00002PRCP06
0190832420999992005032112004-12567-041383FM-12+042799999V0201801N001010090019N0040001N1+02401+02231101481ADDAY151061AY211061GF108991999081004501071999KA1240N+02301MA1999999096571MD1999999+0041MW1161REMSYN088AAXX  21124 83242 21496 81802 10240 20223 39657 40148 71651 8887/ 333 20230 58004 69904;
0167832420999992005032118004-12567-041383FM-12+042799999V0201401N001012200019N0100001N1+03081+02071100961ADDAA106000091GF103991011041004501041091MA1999999096121MD1999999+0101REMSYN070AAXX  21184 83242 32497 31402 10308 20207 39612 40096 81449 333 58010;EQDQ01  00002PRCP06
0198832420999992005032200004-12567-041383FM-12+042799999V0209999C000012200019N0020001N1+02491+02091101271ADDAA106000091GF101991011001022501051001KA1240M+03121MA1999999096361MD1999999+0101REMSYN088AAXX  22004 83242 32895 10000 10249 20209 39636 40127 81050 333 10312 29075 55072 58010;EQDQ01  00002PRCP06
0190832420999992005032212004-12567-041383FM-12+042799999V0201801N001510042019N0040001N1+02511+02191101151ADDAY151061AY211061GF107991061071004501031001KA1240N+02261MA1999999096641MD1999999+0071MW1001REMSYN088AAXX  22124 83242 21496 71803 10251 20219 39664 40115 70051 86730 333 20226 58007 69904;
0167832420999992005032218004-12567-041383FM-12+042799999V0201401N001010450019N0100001N1+03061+02141101041ADDAA106000091GF105991041061004501031001MA1999999096221MD1999999+0101REMSYN070AAXX  22184 83242 32497 51402 10306 20214 39622 40104 84630 333 58010;EQDQ01  00002PRCP06
0202832420999992005032300004-12567-041383FM-12+042799999V0201801N001510042019N0010001N1+02411+02261101381ADDAY161061AY221061GF108991081071004501999999KA1240M+03041MA1999999096471MD1999999+0111MW1511REMSYN100AAXX  23004 83242 21494 81803 10241 20226 39647 40138 75162 887// 333 10304 29080 55082 58011 69971;
0190832420999992005032312004-12567-041383FM-12+042799999V0201801N001010042019N0100001N1+02441+02171101701ADDAY161061AY221061GF107991051071004501031001KA1240N+02191MA1999999096761MD1999999+0121MW1031REMSYN088AAXX  23124 83242 21497 71802 10244 20217 39676 40170 70362 85730 333 20219 58012 60014;
0167832420999992005032318004-12567-041383FM-12+042799999V0201401N001012200019N0100001N1+03031+02061101191ADDAA106000091GF103991031021004501001001MA1999999096351MD1999999+0091REMSYN070AAXX  23184 83242 32497 31402 10303 20206 39635 40119 83200 333 58009;EQDQ01  00002PRCP06
0198832420999992005032400004-12567-041383FM-12+042799999V0201801N001010042019N0020001N1+02481+02191101411ADDAA106000091GF108991081071004501999999KA1240M+03101MA1999999096501MD1999999+0031REMSYN088AAXX  24004 83242 32495 81802 10248 20219 39650 40141 887// 333 10310 29077 55069 58003;EQDQ01  00002PRCP06
0186832420999992005032412004-12567-041383FM-12+042799999V0201401N001510042019N0040001N1+02531+02191101571ADDAA106000091GF107991061071004501001021KA1240N+02151MA1999999096661MD1999999-0101REMSYN076AAXX  24124 83242 32496 71403 10253 20219 39666 40157 86702 333 20215 59010;EQDQ01  00002PRCP06
0167832420999992005032418004-12567-041383FM-12+042799999V0200901N002610042019N0100001N1+02891+02171101061ADDAA106000091GF107991051071004501051001MA1999999096211MD1999999-0141REMSYN070AAXX  24184 83242 32497 70905 10289 20217 39621 40106 85750 333 59014;EQDQ01  00002PRCP06
0198832420999992005032500004-12567-041383FM-12+042799999V0202701N001012200019N0020001N1+02471+02191101361ADDAA106000091GF102991011071004501051001KA1240M+03001MA1999999096461MD1999999-0041REMSYN088AAXX  25004 83242 32495 22702 10247 20219 39646 40136 81750 333 10300 29078 55063 59004;EQDQ01  00002PRCP06
0186832420999992005032512004-12567-041383FM-12+042799999V0201401N001010042019N0100001N1+02521+01981101511ADDAA106000091GF107991051071004501081091KA1240N+02111MA1999999096601MD1999999-0061REMSYN076AAXX  25124 83242 32497 71402 10252 20198 39660 40151 85789 333 20211 59006;EQDQ01  00002PRCP06
0167832420999992005032518004-12567-041383FM-12+042799999V0200901N001510450019N0100001N1+02971+02041100971ADDAA106000091GF107991031071004501051021MA1999999096141MD1999999-0071REMSYN070AAXX  25184 83242 32497 70903 10297 20204 39614 40097 83752 333 59007;EQDQ01  00002PRCP06
0198832420999992005032600004-12567-041383FM-12+042799999V0203601N001010210019N0020001N1+02411+02071101161ADDAA106000091GF107991061001022501031031KA1240M+03021MA1999999096261MD1999999-0241REMSYN088AAXX  26004 83242 32895 73602 10241 20207 39626 40116 86033 333 10302 29073 55080 59024;EQDQ01  00002PRCP06
0186832420999992005032612004-12567-041383FM-12+042799999V0200501N000510042019N0040001N1+02381+02071101361ADDAA106000091GF108991081071004501999999KA1240N+02161MA1999999096441MD1999999-0161REMSYN076AAXX  26124 83242 32496 80501 10238 20207 39644 40136 887// 333 20216 59016;EQDQ01  00002PRCP06
0167832420999992005032618004-12567-041383FM-12+042799999V0200501N001512200019N0100001N1+03101+02001100771ADDAA106000091GF103991021031004501001021MA1999999095941MD1999999-0201REMSYN070AAXX  26184 83242 32497 30503 10310 20200 39594 40077 82302 333 59020;EQDQ01  00002PRCP06
0185832420999992005032700004-12570-041380FM-12+043999999V0203601N001510210019N0020001N1+02511+02001101071ADDAA106000091GF106991061001022501031001MA1999999096171MD1999999-0091REMSYN088AAXX  27004 83242 32895 63603 10251 20200 39617 40107 86030 333 10312 29070 55067 59009;EQDQ01  00002PRCP06
0177832420999992005032712004-12570-041380FM-12+043999999V0201801N000510042019N0040001N1+02411+02211101351ADDAY151061AY221061GF108991081071004501999999MA1999999096441MD1999999+0001MW1021REMSYN088AAXX  27124 83242 21496 81801 10241 20221 39644 40135 70252 887// 333 20228 58000 69944;
0167832420999992005032718004-12570-041380FM-12+043999999V0201401N001012200019N0100001N1+03171+02101100701ADDAA106000091GF104991031071004501001021MA1999999095901MD1999999-0041REMSYN070AAXX  27184 83242 32497 41402 10317 20210 39590 40070 83702 333 59004;EQDQ01  00002PRCP06
0197832420999992005032800004-12570-041380FM-12+043999999V0203601N001010042019N0020001N1+02611+02131101041ADDAA106000091GF107991061071004501031001MA1999999096151MD1999999-0021MW1131REMSYN094AAXX  28004 83242 31495 73602 10261 20213 39615 40104 713// 86730 333 10320 29072 55058 59002;EQDQ01  00002PRCP06
0177832420999992005032812004-12570-041380FM-12+043999999V0201801N001010042019N0100001N1+02331+02261101231ADDAY191061AY261061GF108991081071004501999999MA1999999096331MD1999999-0111MW1031REMSYN088AAXX  28124 83242 21497 81802 10233 20226 39633 40123 70396 887// 333 20209 59011 60694;
0167832420999992005032818004-12570-041380FM-12+043999999V0209999C000010042019N0100001N1+02981+02121100801ADDAA106000091GF106991051071004501051001MA1999999095951MD1999999+0051REMSYN070AAXX  28184 83242 32497 61400 10298 20212 39595 40080 85750 333 58005;EQDQ01  00002PRCP06
0198832420999992005032900004-12567-041383FM-12+042799999V0201801N000510042019N0020001N1+02431+02251101111ADDAA106000091GF108991081071004501999999KA1240M+03021MA1999999096201MD1999999+0051REMSYN088AAXX  29004 83242 32495 81801 10243 20225 39620 40111 887// 333 10302 29083 55047 58005;EQDQ01  00002PRCP06
0190832420999992005032912004-12567-041383FM-12+042799999V0209999C000010042019N0040001N1+02291+02181101441ADDAY161061AY221061GF108991081071004501999999KA1240N+02171MA1999999096511MD1999999+0181MW1501REMSYN088AAXX  29124 83242 21496 80000 10229 20218 39651 40144 75062 887// 333 20217 58018 60104;
0171832420999992005032918004-12567-041383FM-12+042799999V0203601N000510042019N0040001N1+02671+02201101061ADDAY161061AY221061GF107991061071004501031001MA1999999096151MD1999999+0201MW1171REMSYN082AAXX  29184 83242 21496 73601 10267 20220 39615 40106 71762 86730 333 58020 60031;
0210832420999992005033000004-12567-041383FM-12+042799999V0209999C000010042019N0010001N1+02391+02281101291ADDAA106000091GF105991051071004501001001KA1240M+02761MA1999999096361MD1999999+0161MW1101REMSYN094AAXX  30004 83242 31494 50000 10239 20228 39636 40129 710// 85700 333 10276 29088 55000 58016;EQDQ01  00002PRCP06
0190832420999992005033012004-12567-041383FM-12+042799999V0201801N001510042019N0100001N1+02231+02211101531ADDAY161061AY221061GF108991081071004501999999KA1240N+02151MA1999999096581MD1999999+0071MW1031REMSYN088AAXX  30124 83242 21497 81803 10223 20221 39658 40153 70362 887// 333 20215 58007 60534;
0167832420999992005033018004-12567-041383FM-12+042799999V0201801N001012200019N0100001N1+02921+02141100981ADDAA106000091GF104991031041004501041001MA1999999096111MD1999999-0041REMSYN070AAXX  30184 83242 32497 41802 10292 20214 39611 40098 83440 333 59004;EQDQ01  00002PRCP06
0198832420999992005033100004-12567-041383FM-12+042799999V0202301N001510042019N0020001N1+02471+02251101251ADDAA106000091GF108991081071004501999999KA1240M+02971MA1999999096581MD1999999-0031REMSYN088AAXX  31004 83242 32495 82303 10247 20225 39658 40125 887// 333 10297 29084 55061 59003;EQDQ01  00002PRCP06
0186832420999992005033112004-12567-041383FM-12+042799999V0201801N001510042019N0100001N1+02311+02161101461ADDAA106000091GF108991081071004501999999KA1240N+02281MA1999999096541MD1999999-0041REMSYN076AAXX  31124 83242 32497 81803 10231 20216 39654 40146 887// 333 20228 59004;EQDQ01  00002PRCP06
0171832420999992005033118004-12567-041383FM-12+042799999V0200901N001010042019N0100001N1+02571+02271101091ADDAY161061AY221061GF106991051061004501031001MA1999999096191MD1999999+0081MW1011REMSYN082AAXX  31184 83242 21497 60902 10257 20227 39619 40109 70162 85630 333 58008 60021;
0198832420999992005040100004-12567-041383FM-12+042799999V0200501N001010042019N0020001N1+02291+02181101331ADDAA106000091GF108991081071004501999999KA1240M+02841MA1999999096391MD1999999+0061REMSYN088AAXX  01004 83242 32495 80502 10229 20218 39639 40133 887// 333 10284 29090 55001 58006;EQDQ01  00002PRCP06
0190832420999992005040112004-12567-041383FM-12+042799999V0201801N002110042019N0040001N1+02341+02181101541ADDAY161061AY221061GF108991081071004501999999KA1240N+02141MA1999999096591MD1999999+0041MW1511REMSYN088AAXX  01124 83242 21496 81804 10234 20218 39659 40154 75162 887// 333 20214 58004 60254;
0171832420999992005040118004-12567-041383FM-12+042799999V0201801N002110042019N0020001N1+02891+02271101251ADDAY151061AY221061GF108991081071004501999999MA1999999096261MD1999999+0071MW1511REMSYN082AAXX  01184 83242 21495 81804 10289 20227 39626 40125 75152 887// 333 58007 69951;
0202832420999992005040200004-12567-041383FM-12+042799999V0201801N000512200019N0010001N1+02231+02211101531ADDAY161061AY211061GF104991041071004501001001KA1240M+03001MA1999999096581MD1999999+0191MW1101REMSYN100AAXX  02004 83242 21494 41801 10223 20221 39658 40153 71061 84700 333 10300 29089 55026 58019 60061;
0190832420999992005040212004-12567-041383FM-12+042799999V0201801N001510042019N0100001N1+02301+02221101571ADDAY161061AY251061GF108991081071004501999999KA1240N+02221MA1999999096611MD1999999+0021MW1031REMSYN088AAXX  02124 83242 21497 81803 10230 20222 39661 40157 70365 887// 333 20222 58002 60084;
0179832420999992005040218004-12567-041383FM-12+042799999V0201801N001010042019N0040001N1+02921+02191101131ADDAA106000091GF105991051071004501001001MA1999999096251MD1999999+0011MW1151REMSYN076AAXX  02184 83242 31496 51802 10292 20219 39625 40113 715// 85700 333 58001;EQDQ01  00002PRCP06
0189832420999992005040300004-12570-041380FM-12+043999999V0201401N001510042019N0010001N1+02341+02201101521ADDAY161061AY221061GF108991081071004501999999MA1999999096571MD1999999-0041MW1501REMSYN100AAXX  03004 83242 21494 81403 10234 20220 39657 40152 75062 887// 333 10299 29086 55041 59004 69971;
0177832420999992005040312004-12570-041380FM-12+043999999V0201801N002110042019N0100001N1+02331+02171101651ADDAY161061AY251061GF108991081071004501999999MA1999999096701MD1999999+0091MW1031REMSYN088AAXX  03124 83242 21497 81804 10233 20217 39670 40165 70365 887// 333 20211 58009 60024;
0171832420999992005040318004-12570-041380FM-12+043999999V0201801N000510042019N0040001N1+02691+02261101271ADDAY151061AY221061GF106991051071004501031001MA1999999096351MD1999999+0101MW1151REMSYN082AAXX  03184 83242 21496 61801 10269 20226 39635 40127 71552 85730 333 58010 69961;
0202832420999992005040400004-12567-041383FM-12+042799999V0203201N003110042019N0020001N1+02271+02211101521ADDAY161061AY221061GF108991081071004501999999KA1240M+02851MA1999999096571MD1999999+0001MW1031REMSYN100AAXX  04004 83242 21495 83206 10227 20221 39657 40152 70362 887// 333 10285 29090 55033 58000 60091;
0190832420999992005040412004-12567-041383FM-12+042799999V0201801N001510042019N0100001N1+02361+02281101751ADDAY161061AY251061GF108991081071004501999999KA1240N+02191MA1999999096791MD1999999+0081MW1031REMSYN088AAXX  04124 83242 21497 81803 10236 20228 39679 40175 70365 887// 333 20219 58008 60104;
0171832420999992005040418004-12567-041383FM-12+042799999V0201401N001510042019N0040001N1+02891+02321101211ADDAY151061AY221061GF106991051071004501051001MA1999999096331MD1999999-0021MW1151REMSYN082AAXX  04184 83242 21496 61403 10289 20232 39633 40121 71552 85750 333 59002 69901;
0198832420999992005040500004-12567-041383FM-12+042799999V0200501N000510042019N0020001N1+02371+02241101451ADDAA106000091GF107991071071004501001001KA1240M+02921MA1999999096521MD1999999-0051REMSYN088AAXX  05004 83242 32495 70501 10237 20224 39652 40145 87700 333 10292 29088 55063 59005;EQDQ01  00002PRCP06
0190832420999992005040512004-12567-041383FM-12+042799999V0201801N002110042019N0100001N1+02261+02121101691ADDAY151061AY221061GF108991081071004501999999KA1240N+02191MA1999999096731MD1999999-0061MW1031REMSYN088AAXX  05124 83242 21497 81804 10226 20212 39673 40169 70352 887// 333 20219 59006 69954;
0167832420999992005040518004-12567-041383FM-12+042799999V0201801N001510042019N0100001N1+02891+02251101241ADDAA106000091GF106991051061004501081001MA1999999096351MD1999999+0021REMSYN070AAXX  05184 83242 32497 61803 10289 20225 39635 40124 85680 333 58002;EQDQ01  00002PRCP06
0208832420999992005040600004-12567-041383FM-12+042799999V0202301N000512200019N0020001N1+02331+02171101531ADDAA106000091GA1001+999999999GF100991001001999999001001KA1240M+02961MA1999999096581MD1999999+0061REMSYN082AAXX  06004 83242 32995 02301 10233 20217 39658 40153 333 10296 29085 55067 58006;EQDQ01  00002PRCP06
0186832420999992005040612004-12567-041383FM-12+042799999V0201801N001010042019N0100001N1+02331+02171101661ADDAA106000091GF108991081071004501999999KA1240N+02171MA1999999096711MD1999999-0021REMSYN076AAXX  06124 83242 32497 81802 10233 20217 39671 40166 887// 333 20217 59002;EQDQ01  00002PRCP06
0171832420999992005040618004-12567-041383FM-12+042799999V0202701N000510042019N0020001N1+02471+02191101361ADDAY161061AY221061GF108991081071004501999999MA1999999096401MD1999999+0151MW1151REMSYN082AAXX  06184 83242 21495 82701 10247 20219 39640 40136 71562 887// 333 58015 60021;
0202832420999992005040700004-12567-041383FM-12+042799999V0201401N001010042019N0020001N1+02251+02111101551ADDAY151061AY221061GF108991081071004501999999KA1240M+02761MA1999999096601MD1999999+0021MW1021REMSYN100AAXX  07004 83242 21495 81402 10225 20211 39660 40155 70252 887// 333 10276 29089 55013 58002 69961;
0190832420999992005040712004-12567-041383FM-12+042799999V0201801N002610042019N0040001N1+02261+02151101561ADDAY161061AY251061GF108991081071004501999999KA1240N+02191MA1999999096601MD1999999-0111MW1501REMSYN088AAXX  07124 83242 21496 81805 10226 20215 39660 40156 75065 887// 333 20219 59011 60084;
0171832420999992005040718004-12567-041383FM-12+042799999V0201801N001010042019N0100001N1+02821+02271101211ADDAY161061AY221061GF106991051061004501031001MA1999999096311MD1999999-0091MW1011REMSYN082AAXX  07184 83242 21497 61802 10282 20227 39631 40121 70162 85630 333 59009 60041;
0208832420999992005040800004-12567-041383FM-12+042799999V0201801N001512200019N0020001N1+02331+02111101441ADDAA106000091GA1001+999999999GF100991001001999999001001KA1240M+02941MA1999999096491MD1999999-0111REMSYN082AAXX  08004 83242 32995 01803 10233 20211 39649 40144 333 10294 29086 55030 59011;EQDQ01  00002PRCP06
0162832420999992005040812004-12567-041383FM-12+042799999V0201401N002110450019N0100001N1+02271+02051101651ADDGF106991041051004501031001KA1240N+01831MA1999999096691MD1999999+0091REMSYN082AAXX  08124 83242 22497 61404 10227 20205 39669 40165 84530 333 20183 58009 60044;
0167832420999992005040818004-12567-041383FM-12+042799999V0201401N001510042019N0100001N1+02651+02021101251ADDAA106000091GF107991051061004501051001MA1999999096331MD1999999+0021REMSYN070AAXX  08184 83242 32497 71403 10265 20202 39633 40125 85650 333 58002;EQDQ01  00002PRCP06
0198832420999992005040900004-12567-041383FM-12+042799999V0203601N001510210019N0020001N1+02271+02051101381ADDAA106000091GF106991061001022501051001KA1240M+02741MA1999999096431MD1999999-0061REMSYN088AAXX  09004 83242 32895 63603 10227 20205 39643 40138 86050 333 10274 29082 55056 59006;EQDQ01  00002PRCP06
0190832420999992005040912004-12567-041383FM-12+042799999V0201401N002110042019N0100001N1+02301+02071101551ADDAY151061AY221061GF107991061071004501031001KA1240N+02131MA1999999096601MD1999999-0091MW1031REMSYN088AAXX  09124 83242 21497 71404 10230 20207 39660 40155 70352 86730 333 20213 59009 69914;
0171832420999992005040918004-12567-041383FM-12+042799999V0202701N001510042019N0040001N1+02291+02091101271ADDAY161061AY221061GF107991061071004501041001MA1999999096311MD1999999-0021MW1161REMSYN082AAXX  09184 83242 21496 72703 10229 20209 39631 40127 71662 86740 333 59002 60051;
0202832420999992005041000004-12567-041383FM-12+042799999V0201801N000510042019N0010001N1+02051+01961101401ADDAY161061AY221061GF108991081071004501999999KA1240M+02801MA1999999096441MD1999999+0011MW1101REMSYN100AAXX  10004 83242 21494 81801 10205 20196 39644 40140 71062 887// 333 10280 29091 55051 58001 60011;
0162832420999992005041012004-12567-041383FM-12+042799999V0201401N002110450019N0100001N1+02251+02011101601ADDGF105991031041004501031001KA1240N+01931MA1999999096621MD1999999+0021REMSYN082AAXX  10124 83242 22497 51404 10225 20201 39662 40160 83430 333 20193 58002 60064;
0167832420999992005041018004-12567-041383FM-12+042799999V0201401N001510450019N0100001N1+02871+01941101161ADDAA106000091GF106991041051004501031001MA1999999096251MD1999999-0061REMSYN070AAXX  10184 83242 32497 61403 10287 20194 39625 40116 84530 333 59006;EQDQ01  00002PRCP06
0198832420999992005041100004-12567-041383FM-12+042799999V0201401N001010042019N0020001N1+02431+02111101331ADDAA106000091GF108991081071004501999999KA1240M+02921MA1999999096401MD1999999-0041REMSYN088AAXX  11004 83242 32495 81402 10243 20211 39640 40133 887// 333 10292 29077 55071 59004;EQDQ01  00002PRCP06
0190832420999992005041112004-12567-041383FM-12+042799999V0201801N001010042019N0040001N1+02131+02071101481ADDAY161061AY241061GF108991081071004501999999KA1240N+02051MA1999999096531MD1999999-0091MW1611REMSYN088AAXX  11124 83242 21496 81802 10213 20207 39653 40148 76164 887// 333 20205 59009 60034;
0171832420999992005041118004-12567-041383FM-12+042799999V0202301N003110042019N0040001N1+02261+02121101261ADDAY161061AY221061GF108991081071004501999999MA1999999096301MD1999999+0051MW1511REMSYN082AAXX  11184 83242 21496 82306 10226 20212 39630 40126 75162 887// 333 58005 60031;
0202832420999992005041200004-12567-041383FM-12+042799999V0201801N001010042019N0020001N1+02201+02151101391ADDAY161061AY221061GF108991081071004501999999KA1240M+02501MA1999999096421MD1999999+0021MW1021REMSYN100AAXX  12004 83242 21495 81802 10220 20215 39642 40139 70262 887// 333 10250 29096 55000 58002 60011;
0190832420999992005041212004-12567-041383FM-12+042799999V0201401N002112200019N0100001N1+02231+02101101521ADDAY161061AY221061GF104991031071004501031001KA1240N+02071MA1999999096551MD1999999+0021MW1031REMSYN088AAXX  12124 83242 21497 41404 10223 20210 39655 40152 70362 83730 333 20207 58002 60054;
0171832420999992005041218004-12567-041383FM-12+042799999V0202301N002110450019N0100001N1+02721+02171101151ADDAY151061AY211061GF106991041071004501041001MA1999999096241MD1999999-0061MW1031REMSYN082AAXX  12184 83242 21497 62304 10272 20217 39624 40115 70351 84740 333 59006 69951;
0198832420999992005041300004-12567-041383FM-12+042799999V0209999C000010042019N0020001N1+02311+02131101481ADDAA106000091GF108991081071004501999999KA1240M+02841MA1999999096521MD1999999+0101REMSYN088AAXX  13004 83242 32495 80500 10231 20213 39652 40148 887// 333 10284 29086 55038 58010;EQDQ01  00002PRCP06
0162832420999992005041312004-12567-041383FM-12+042799999V0201401N002110450019N0100001N1+02441+02031101511ADDGF106991041071004501031001KA1240N+02131MA1999999096581MD1999999+0031REMSYN082AAXX  13124 83242 22497 61404 10244 20203 39658 40151 84730 333 20213 58003 69954;
0167832420999992005041318004-12567-041383FM-12+042799999V0201801N001010042019N0100001N1+02841+02191101081ADDAA106000091GF106991051061004501031001MA1999999096211MD1999999+0031REMSYN070AAXX  13184 83242 32497 61802 10284 20219 39621 40108 85630 333 58003;EQDQ01  00002PRCP06
0202832420999992005041400004-12567-041383FM-12+042799999V0200901N001010042019N0020001N1+02351+02151101431ADDAY151061AY221061GF108991081071004501999999KA1240M+02921MA1999999096511MD1999999-0011MW1021REMSYN100AAXX  14004 83242 21495 80902 10235 20215 39651 40143 70252 887// 333 10292 29081 55089 59001 69911;
0190832420999992005041412004-12567-041383FM-12+042799999V0201801N002110042019N0100001N1+02241+02141101531ADDAY161061AY251061GF107991061071004501041001KA1240N+02071MA1999999096581MD1999999+0001MW1031REMSYN088AAXX  14124 83242 21497 71804 10224 20214 39658 40153 70365 86740 333 20207 58000 60044;
0167832420999992005041418004-12567-041383FM-12+042799999V0201801N000510042019N0100001N1+02741+02231101141ADDAA106000091GF105991051061004501001001MA1999999096231MD1999999+0021REMSYN070AAXX  14184 83242 32497 51801 10274 20223 39623 40114 85600 333 58002;EQDQ01  00002PRCP06
0202832420999992005041500004-12567-041383FM-12+042799999V0201401N001510042019N0005001N1+02291+02141101461ADDAY121061AY211061GF108991081071004501999999KA1240M+02881MA1999999096501MD1999999-0011MW1211REMSYN100AAXX  15004 83242 21493 81403 10229 20214 39650 40146 72121 887// 333 10288 29086 55049 59001 60031;
0190832420999992005041512004-12567-041383FM-12+042799999V0201401N002110042019N0100001N1+02271+02161101541ADDAY161061AY221061GF107991061071004501061001KA1240N+02131MA1999999096591MD1999999+0011MW1031REMSYN088AAXX  15124 83242 21497 71404 10227 20216 39659 40154 70362 86760 333 20213 58001 60044;
0179832420999992005041518004-12567-041383FM-12+042799999V0201401N001510042019N0040001N1+02861+02191101161ADDAA106000091GF107991061071004501031001MA1999999096271MD1999999+0041MW1151REMSYN076AAXX  15184 83242 31496 71403 10286 20219 39627 40116 715// 86730 333 58004;EQDQ01  00002PRCP06
0202832420999992005041600004-12567-041383FM-12+042799999V0201801N003610042019N0020001N1+02311+02161101551ADDAY151061AY221061GF108991081071004501999999KA1240M+02881MA1999999096601MD1999999+0101MW1021REMSYN100AAXX  16004 83242 21495 81807 10231 20216 39660 40155 70252 887// 333 10288 29086 55035 58010 69951;
0190832420999992005041612004-12567-041383FM-12+042799999V0201401N002610042019N0020001N1+02291+02131101551ADDAY161061AY221061GF108991081071004501999999KA1240N+02131MA1999999096601MD1999999+0011MW1501REMSYN088AAXX  16124 83242 21495 81405 10229 20213 39660 40155 75062 887// 333 20213 58001 60084;
0160832420999992005041618004-12567-041383FM-12+042799999V0201401N000510042019N0040001N1+02691+02201101201ADDAA106000021GF107991071071004501001001MA1999999096291MD1999999+0021MW1151REMSYN076AAXX  16184 83242 31496 71401 10269 20220 39629 40120 715// 87700 333 58002;
0185832420999992005041700004-12570-041380FM-12+043999999V0203601N000510042019N0020001N1+02351+02241101411ADDAA106000091GF107991071071004501001001MA1999999096451MD1999999-0151REMSYN088AAXX  17004 83242 32495 73601 10235 20224 39645 40141 87700 333 10278 29087 55031 59015;EQDQ01  00002PRCP06
0177832420999992005041712004-12570-041380FM-12+043999999V0201801N001510042019N0100001N1+02351+02201101541ADDAY151061AY221061GF107991071071004501001001MA1999999096601MD1999999+0001MW1031REMSYN088AAXX  17124 83242 21497 71803 10235 20220 39660 40154 70352 87700 333 20224 58000 69954;
0167832420999992005041718004-12570-041380FM-12+043999999V0201801N000510042019N0100001N1+02831+02221101091ADDAA106000091GF106991051051004501081001MA1999999096211MD1999999+0081REMSYN070AAXX  17184 83242 32497 61801 10283 20222 39621 40109 85580 333 58008;EQDQ01  00002PRCP06
0198832420999992005041800004-12567-041383FM-12+042799999V0201801N001010042019N0020001N1+02351+02191101371ADDAA106000091GF108991081071004501999999KA1240M+02861MA1999999096441MD1999999-0011REMSYN088AAXX  18004 83242 32495 81802 10235 20219 39644 40137 887// 333 10286 29085 55045 59001;EQDQ01  00002PRCP06
0190832420999992005041812004-12567-041383FM-12+042799999V0201801N001510042019N0040001N1+02321+02161101381ADDAY161061AY221061GF108991081071004501999999KA1240N+02171MA1999999096451MD1999999-0151MW1101REMSYN088AAXX  18124 83242 21496 81803 10232 20216 39645 40138 71062 887// 333 20217 59015 60044;
0167832420999992005041818004-12567-041383FM-12+042799999V0201401N001510042019N0100001N1+02741+02281101021ADDAA106000091GF108991081071004501999999MA1999999096141MD1999999+0071REMSYN070AAXX  18184 83242 32497 81403 10274 20228 39614 40102 887// 333 58007;EQDQ01  00002PRCP06
0202832420999992005041900004-12567-041383FM-12+042799999V0201801N001010042019N0005001N1+02271+02231101291ADDAY161061AY221061GF108991081071004501999999KA1240M+02821MA1999999096351MD1999999-0091MW1101REMSYN100AAXX  19004 83242 21493 81802 10227 20223 39635 40129 71062 887// 333 10282 29091 55014 59009 60131;
0190832420999992005041912004-12567-041383FM-12+042799999V0201801N002610042019N0100001N1+02331+02181101531ADDAY161061AY221061GF107991051071004501061001KA1240N+02111MA1999999096581MD1999999+0131MW1031REMSYN088AAXX  19124 83242 21497 71805 10233 20218 39658 40153 70362 85760 333 20211 58013 60144;
0167832420999992005041918004-12567-041383FM-12+042799999V0201801N001010042019N0100001N1+02631+02161101151ADDAA106000091GF106991051051004501031001MA1999999096231MD1999999+0091REMSYN070AAXX  19184 83242 32497 61802 10263 20216 39623 40115 85530 333 58009;EQDQ01  00002PRCP06
0198832420999992005042000004-12567-041383FM-12+042799999V0202301N001510450019N0020001N1+02231+02091101361ADDAA106000091GF107991041071004501051001KA1240M+02741MA1999999096421MD1999999+0071REMSYN088AAXX  20004 83242 32495 72303 10223 20209 39642 40136 84750 333 10274 29087 55038 58007;EQDQ01  00002PRCP06
0190832420999992005042012004-12567-041383FM-12+042799999V0201401N001010042019N0040001N1+02271+02201101571ADDAY161061AY251061GF108991081071004501999999KA1240N+02131MA1999999096611MD1999999+0031MW1101REMSYN088AAXX  20124 83242 21496 81402 10227 20220 39661 40157 71065 887// 333 20213 58003 60024;
0167832420999992005042018004-12567-041383FM-12+042799999V0201401N001010450019N0100001N1+02871+02181101121ADDAA106000091GF106991041061004501051031MA1999999096331MD1999999+0101REMSYN070AAXX  20184 83242 32497 61402 10287 20218 39633 40112 84653 333 58010;EQDQ01  00002PRCP06
0198832420999992005042100004-12567-041383FM-12+042799999V0201801N000510450019N0020001N1+02271+02131101471ADDAA106000091GF107991031041004501051021KA1240M+02871MA1999999096511MD1999999+0081REMSYN088AAXX  21004 83242 32495 71801 10227 20213 39651 40147 83452 333 10287 29085 55053 58008;EQDQ01  00002PRCP06
0186832420999992005042112004-12567-041383FM-12+042799999V0201801N001510042019N0040001N1+02331+02151101521ADDAA106000091GF108991081071004501999999KA1240N+02191MA1999999096571MD1999999-0041REMSYN076AAXX  21124 83242 32496 81803 10233 20215 39657 40152 887// 333 20219 59004;EQDQ01  00002PRCP06
0167832420999992005042118004-12567-041383FM-12+042799999V0201801N001010450019N0100001N1+02891+02151101001ADDAA106000091GF106991031031004501021021MA1999999096121MD1999999-0211REMSYN070AAXX  21184 83242 32497 61802 10289 20215 39612 40100 83322 333 59021;EQDQ01  00002PRCP06
0198832420999992005042200004-12567-041383FM-12+042799999V0200501N002110042019N0020001N1+02291+02131101351ADDAA106000091GF107991071071004501001001KA1240M+02941MA1999999096411MD1999999-0101REMSYN088AAXX  22004 83242 32495 70504 10229 20213 39641 40135 87700 333 10294 29083 55056 59010;EQDQ01  00002PRCP06
0186832420999992005042212004-12567-041383FM-12+042799999V0201801N000510042019N0040001N1+02341+02091101451ADDAA106000091GF108991081071004501999999KA1240N+02191MA1999999096501MD1999999-0071REMSYN076AAXX  22124 83242 32496 81801 10234 20209 39650 40145 887// 333 20219 59007;EQDQ01  00002PRCP06
0167832420999992005042218004-12567-041383FM-12+042799999V0201401N001511050019N0100001N1+02931+02111100921ADDAA106000091GF107991031031004501001061MA1999999096051MD1999999-0071REMSYN070AAXX  22184 83242 32497 71403 10293 20211 39605 40092 83306 333 59007;EQDQ01  00002PRCP06
0198832420999992005042300004-12567-041383FM-12+042799999V0202301N000510042019N0020001N1+02481+02191101301ADDAA106000091GF107991061071004501081001KA1240M+02981MA1999999096381MD1999999-0031REMSYN088AAXX  23004 83242 32495 72301 10248 20219 39638 40130 86780 333 10298 29079 55070 59003;EQDQ01  00002PRCP06
0186832420999992005042312004-12567-041383FM-12+042799999V0201801N001010042019N0040001N1+02331+02131101391ADDAA106000091GF107991071071004501001001KA1240N+02221MA1999999096471MD1999999-0031REMSYN076AAXX  23124 83242 32496 71802 10233 20213 39647 40139 87700 333 20222 59003;EQDQ01  00002PRCP06
0167832420999992005042318004-12567-041383FM-12+042799999V0201401N001512200019N0100001N1+02911+02121100951ADDAA106000091GF104991021031004501051091MA1999999096081MD1999999+0031REMSYN070AAXX  23184 83242 32497 41403 10291 20212 39608 40095 82359 333 58003;EQDQ01  00002PRCP06
0179832420999992005042400004-12570-041380FM-12+043999999V0201401N000512200019N0020001N1+02351+02151101201ADDAA106000091GF100991001001999999001001MA1999999096281MD1999999-0101REMSYN082AAXX  24004 83242 32495 01401 10235 20215 39628 40120 333 10296 29082 55065 59010;EQDQ01  00002PRCP06
0173832420999992005042412004-12570-041380FM-12+043999999V0201801N001510042019N0040001N1+02431+02071101511ADDAA106000091GF106991051071004501001051MA1999999096581MD1999999+0111REMSYN076AAXX  24124 83242 32496 61803 10243 20207 39658 40151 85705 333 20219 58011;EQDQ01  00002PRCP06
0167832420999992005042418004-12570-041380FM-12+043999999V0201401N001510450019N0100001N1+02921+02141101001ADDAA106000091GF106991041071004501051001MA1999999096131MD1999999+0051REMSYN070AAXX  24184 83242 32497 61403 10292 20214 39613 40100 84750 333 58005;EQDQ01  00002PRCP06
0198832420999992005042500004-12567-041383FM-12+042799999V0202701N000510042019N0020001N1+02351+02151101201ADDAA106000091GF107991061071004501081001KA1240M+02981MA1999999096291MD1999999+0011REMSYN088AAXX  25004 83242 32495 72701 10235 20215 39629 40120 86780 333 10298 29080 55087 58001;EQDQ01  00002PRCP06
0186832420999992005042512004-12567-041383FM-12+042799999V0201401N001010042019N0100001N1+02491+02111101431ADDAA106000091GF106991051071004501041001KA1240N+02191MA1999999096511MD1999999-0071REMSYN076AAXX  25124 83242 32497 61402 10249 20211 39651 40143 85740 333 20219 59007;EQDQ01  00002PRCP06
0167832420999992005042518004-12567-041383FM-12+042799999V0200901N000512200019N0100001N1+02801+02131100961ADDAA106000091GF104991021031004501041041MA1999999096141MD1999999+0011REMSYN070AAXX  25184 83242 32497 40901 10280 20213 39614 40096 82344 333 58001;EQDQ01  00002PRCP06
0208832420999992005042600004-12567-041383FM-12+042799999V0203601N000512200019N0020001N1+02281+02001101271ADDAA106000091GA1001+999999999GF100991001001999999001001KA1240M+02871MA1999999096351MD1999999+0061REMSYN082AAXX  26004 83242 32995 03601 10228 20200 39635 40127 333 10287 29078 55072 58006;EQDQ01  00002PRCP06
0198832420999992005042612004-12567-041383FM-12+042799999V0209999C000010450019N0040001N1+02401+02071101371ADDAA106000091GF106991041051004501031001KA1240N+02091MA1999999096441MD1999999-0071MW1041REMSYN082AAXX  26124 83242 31496 60000 10240 20207 39644 40137 704// 84530 333 20209 59007;EQDQ01  00002PRCP06
0179832420999992005042618004-12567-041383FM-12+042799999V0201401N000510450019N0040001N1+03061+02331100801ADDAA106000091GF108991021031004501051071MA1999999095951MD1999999+0191MW1051REMSYN076AAXX  26184 83242 31496 81401 10306 20233 39595 40080 705// 82357 333 58019;EQDQ01  00002PRCP06
0198832420999992005042700004-12567-041383FM-12+042799999V0209999C000012200019N0020001N1+02501+02171101091ADDAA106000091GF101991011001012501011001KA1240M+03101MA1999999096191MD1999999-0161REMSYN088AAXX  27004 83242 32695 10000 10250 20217 39619 40109 81010 333 10310 29078 55075 59016;EQDQ01  00002PRCP06
0198832420999992005042712004-12567-041383FM-12+042799999V0201801N001510042019N0040001N1+02431+02211101391ADDAA106000091GF108991071071004501051001KA1240N+02091MA1999999096481MD1999999+0041MW1051REMSYN082AAXX  27124 83242 31496 81803 10243 20221 39648 40139 705// 87750 333 20209 58004;EQDQ01  00002PRCP06
0179832420999992005042718004-12567-041383FM-12+042799999V0201401N000510042019N0040001N1+02831+02291100951ADDAA106000091GF108991061071004501031071MA1999999096081MD1999999+0031MW1151REMSYN076AAXX  27184 83242 31496 81401 10283 20229 39608 40095 715// 86737 333 58003;EQDQ01  00002PRCP06
