0208832880999992005010100004-13267-043417FM-12+0458SBLP V0201401N001512200019N0020001N1+02691+01811100861ADDAA106000091GA1001+999999999GF100991001001999999001001KA1240M+03381MA1999999096021MD1999999+0061REMSYN082AAXX  01004 83288 32995 01403 10269 20181 39602 40086 333 10338 29053 55119 58006;EQDQ01  00002PRCP06
0196832880999992005010112004-13267-043417FM-12+0458SBLP V0203601N001012200019N0200001N1+02811+02061101061ADDAA106000091GA1001+999999999GF100991001001999999001001KA1240N+02121MA1999999096221MD1999999-0131REMSYN070AAXX  01124 83288 32998 03602 10281 20206 39622 40106 333 20212 59013;EQDQ01  00002PRCP06
0167832880999992005010118004-13267-043417FM-12+0458SBLP V0203201N001012200019N0200001N1+03441+02341100601ADDAA106000091GF104991041021008001001001MA1999999095811MD1999999-0141REMSYN070AAXX  01184 83288 32598 43202 10344 20234 39581 40060 84200 333 59014;EQDQ01  00002PRCP06
0208832880999992005010200004-13267-043417FM-12+0458SBLP V0201801N001012200019N0020001N1+02751+02131101001ADDAA106000091GA1001+999999999GF100991001001999999001001KA1240M+03511MA1999999096181MD1999999+0161REMSYN082AAXX  02004 83288 32995 01802 10275 20213 39618 40100 333 10351 29062 55112 58016;EQDQ01  00002PRCP06
0186832880999992005010212004-13267-043417FM-12+0458SBLP V0200901N000510075019N0200001N1+02541+02041101341ADDAA106000091GF106991061051008001001021KA1240N+02171MA1999999096471MD1999999+0251REMSYN076AAXX  02124 83288 32598 60901 10254 20204 39647 40134 86502 333 20217 58025;EQDQ01  00002PRCP06
0171832880999992005010218004-13267-043417FM-12+0458SBLP V0201401N001510075019N0200001N1+03121+01991100971ADDAY191061AY261061GF108991061051008001021999MA1999999096141MD1999999+0331MW1991REMSYN082AAXX  02184 83288 21598 81403 10312 20199 39614 40097 79996 8652/ 333 58033 60261;
0162832880999992005010312004-13267-043417FM-12+0458SBLP V0209999C000010042019N0200001N1+02321+02161101361ADDGF108991051051004501071071KA1240N+02031MA1999999096411MD1999999-0061REMSYN082AAXX  03124 83288 22498 80000 10232 20216 39641 40136 85577 333 20203 59006 60344;
0167832880999992005010318004-13267-043417FM-12+0458SBLP V0201401N001511050019N0200001N1+02831+02361101131ADDAA106000091GF106991041081004501001091MA1999999096161MD1999999+0021REMSYN070AAXX  03184 83288 32498 61403 10283 20236 39616 40113 84809 333 58002;EQDQ01  00002PRCP06
0202832880999992005010400004-13267-043417FM-12+0458SBLP V0201801N001510450019N0020001N1+02211+02101101241ADDAY161061AY251061GF105991041041004501071081KA1240M+02911MA1999999096291MD1999999-0091MW1021REMSYN100AAXX  04004 83288 21495 51803 10221 20210 39629 40124 70265 84478 333 10291 29089 55016 59009 60041;
0162832880999992005010412004-13267-043417FM-12+0458SBLP V0201801N000512200019N0200001N1+02451+02201101281ADDGF104991011011008001031001KA1240N+02081MA1999999096341MD1999999-0071REMSYN082AAXX  04124 83288 22598 41801 10245 20220 39634 40128 81130 333 20208 59007 60044;
0167832880999992005010418004-13267-043417FM-12+0458SBLP V0200901N001012200019N0200001N1+03131+02521100881ADDAA106000091GF104991041021008001001001MA1999999096031MD1999999-0131REMSYN070AAXX  04184 83288 32598 40902 10313 20252 39603 40088 84200 333 59013;EQDQ01  00002PRCP06
0198832880999992005010500004-13267-043417FM-12+0458SBLP V0209999C000012200019N0020001N1+02551+02301100931ADDAA106000091GF102991021011008001001001KA1240M+03211MA1999999096051MD1999999-0241REMSYN088AAXX  05004 83288 32595 20000 10255 20230 39605 40093 82100 333 10321 29081 55091 59024;EQDQ01  00002PRCP06
0186832880999992005010512004-13267-043417FM-12+0458SBLP V0201801N001511050019N0200001N1+02671+02161101051ADDAA106000091GF105991041011008001001021KA1240N+02081MA1999999096181MD1999999-0161REMSYN076AAXX  05124 83288 32598 51803 10267 20216 39618 40105 84102 333 20208 59016;EQDQ01  00002PRCP06
0167832880999992005010518004-13267-043417FM-12+0458SBLP V0202701N001012200019N0200001N1+03191+02101100561ADDAA106000091GF103991021021008001001021MA1999999095751MD1999999-0281REMSYN070AAXX  05184 83288 32598 32702 10319 20210 39575 40056 82202 333 59028;EQDQ01  00002PRCP06
0208832880999992005010600004-13267-043417FM-12+0458SBLP V0201801N001512200019N0020001N1+02741+02101100701ADDAA106000091GA1001+999999999GF100991001001999999001001KA1240M+03271MA1999999095871MD1999999-0181REMSYN082AAXX  06004 83288 32995 01803 10274 20210 39587 40070 333 10327 29065 55087 59018;EQDQ01  00002PRCP06
0186832880999992005010612004-13267-043417FM-12+0458SBLP V0201401N001512200019N0200001N1+02721+02081101221ADDAA106000091GF103991001001999999001011KA1240N+02021MA1999999096371MD1999999+0191REMSYN076AAXX  06124 83288 32998 31403 10272 20208 39637 40122 80001 333 20202 58019;EQDQ01  00002PRCP06
0167832880999992005010618004-13267-043417FM-12+0458SBLP V0203601N001512200019N0200001N1+03261+02111100711ADDAA106000091GF101991011021999999001001MA1999999095891MD1999999+0141REMSYN070AAXX  06184 83288 32998 13603 10326 20211 39589 40071 81200 333 58014;EQDQ01  00002PRCP06
0208832880999992005010700004-13267-043417FM-12+0458SBLP V0201801N001512200019N0020001N1+02651+01931100801ADDAA106000091GA1001+999999999GF100991001001999999001001KA1240M+03391MA1999999095961MD1999999+0091REMSYN082AAXX  07004 83288 32995 01803 10265 20193 39596 40080 333 10339 29062 55119 58009;EQDQ01  00002PRCP06
0186832880999992005010712004-13267-043417FM-12+0458SBLP V0200901N001012200019N0200001N1+02711+02021101191ADDAA106000091GF102991001001999999001021KA1240N+01981MA1999999096341MD1999999-0031REMSYN076AAXX  07124 83288 32998 20902 10271 20202 39634 40119 80002 333 20198 59003;EQDQ01  00002PRCP06
0167832880999992005010718004-13267-043417FM-12+0458SBLP V0201401N001512200019N0200001N1+03341+02121100791ADDAA106000091GF103991031011008001001001MA1999999095961MD1999999+0071REMSYN070AAXX  07184 83288 32598 31403 10334 20212 39596 40079 83100 333 58007;EQDQ01  00002PRCP06
0208832880999992005010800004-13267-043417FM-12+0458SBLP V0201801N001512200019N0020001N1+02691+02191100901ADDAA106000091GA1001+999999999GF100991001001999999001001KA1240M+03391MA1999999096061MD1999999+0101REMSYN082AAXX  08004 83288 32995 01803 10269 20219 39606 40090 333 10339 29063 55113 58010;EQDQ01  00002PRCP06
0167832880999992005010818004-13267-043417FM-12+0458SBLP V0202701N001010450019N0200001N1+03271+01961100401ADDAA106000091GF106991041011008001031021MA1999999095611MD1999999-0351REMSYN070AAXX  08184 83288 32598 62702 10327 20196 39561 40040 84132 333 59035;EQDQ01  00002PRCP06
0173832880999992005010912004-13270-043420FM-12+0440SBLP V0209999C000019999999N0200001N1+02711+01941100961ADDAA106000091GF107991999001017501071001MA1999999096141MD1999999+0091REMSYN076AAXX  09124 83288 32798 70000 10271 20194 39614 40096 84070 333 20222 58009;EQDQ01  00002PRCP06
0161832880999992005010918004-13270-043420FM-12+0440SBLP V0209999C000012200019N0200001N1+03331+02171100481ADDAA106000091GF100991001001999999001001MA1999999095681MD1999999+0071REMSYN064AAXX  09184 83288 32998 00000 10333 20217 39568 40048 333 58007;EQDQ01  00002PRCP06
0186832880999992005011012004-13267-043417FM-12+0458SBLP V0203601N000511050019N0200001N1+02811+02191101021ADDAA106000091GF105991031041008001001091KA1240N+02201MA1999999096201MD1999999+0061REMSYN076AAXX  10124 83288 32598 53601 10281 20219 39620 40102 83409 333 20220 58006;EQDQ01  00002PRCP06
0167832880999992005011018004-13267-043417FM-12+0458SBLP V0202701N001012200019N0200001N1+03381+02441100561ADDAA106000091GF103991021021008001001021MA1999999095781MD1999999+0101REMSYN070AAXX  10184 83288 32598 32702 10338 20244 39578 40056 82202 333 58010;EQDQ01  00002PRCP06
0198832880999992005011100004-13267-043417FM-12+0458SBLP V0209999C000010120019N0020001N1+02971+02221100671ADDAA106000091GF105991051081008001001001KA1240M+03451MA1999999095881MD1999999+0001REMSYN088AAXX  11004 83288 32595 50000 10297 20222 39588 40067 85800 333 10345 29065 55100 58000;EQDQ01  00002PRCP06
0186832880999992005011112004-13267-043417FM-12+0458SBLP V0201401N001011050019N0200001N1+02651+02091101061ADDAA106000091GF106991041011008001001021KA1240N+02131MA1999999096261MD1999999+0061REMSYN076AAXX  11124 83288 32598 61402 10265 20209 39626 40106 84102 333 20213 58006;EQDQ01  00002PRCP06
0167832880999992005011118004-13267-043417FM-12+0458SBLP V0203601N000512200019N0200001N1+03241+02001100551ADDAA106000091GF105991031021008001001041MA1999999095781MD1999999+0001REMSYN070AAXX  11184 83288 32598 53601 10324 20200 39578 40055 83204 333 58000;EQDQ01  00002PRCP06
0214832880999992005011200004-13267-043417FM-12+0458SBLP V0202701N001512200019N0020001N1+02741+02101100751ADDAA106000091GF102991999021008001001001KA1240M+03301MA1999999095921MD1999999+0041REMSYN088AAXX  12004 83288 32595 22703 10274 20210 39592 40075 81200 333 10330 29063 55077 58004;EQDQ01+000012SCOTLCQ02  00002PRCP06
0186832880999992005011212004-13267-043417FM-12+0458SBLP V0203201N001011050019N0200001N1+02761+02231100971ADDAA106000091GF107991021001017501071091KA1240N+02351MA1999999096141MD1999999-0121REMSYN076AAXX  12124 83288 32798 73202 10276 20223 39614 40097 82079 333 20235 59012;EQDQ01  00002PRCP06
0167832880999992005011218004-13267-043417FM-12+0458SBLP V0202301N001511050019N0200001N1+03251+02131100391ADDAA106000091GF107991021081004501001021MA1999999095621MD1999999-0161REMSYN070AAXX  12184 83288 32498 72303 10325 20213 39562 40039 82802 333 59016;EQDQ01  00002PRCP06
0202832880999992005011300004-13267-043417FM-12+0458SBLP V0202301N001511050019N0020001N1+02371+02191100821ADDAY161061AY251061GF108991041001012501021071KA1240M+03311MA1999999095951MD1999999+0031MW1021REMSYN100AAXX  13004 83288 21695 82303 10237 20219 39595 40082 70265 84027 333 10331 29076 55052 58003 60061;
0190832880999992005011312004-13267-043417FM-12+0458SBLP V0203601N000510120019N0200001N1+02251+02111101121ADDAY161061AY261061GF108991051081008001071999KA1240N+02081MA1999999096291MD1999999+0151MW1031REMSYN088AAXX  13124 83288 21598 83601 10225 20211 39629 40112 70366 8587/ 333 20208 58015 60114;
0171832880999992005011318004-13267-043417FM-12+0458SBLP V0203601N002110075019N0200001N1+02501+02281100791ADDAY161061AY261061GF108991061051008001011999MA1999999096001MD1999999+0381MW1031REMSYN082AAXX  13184 83288 21598 83604 10250 20228 39600 40079 70366 8651/ 333 58038 60021;
0202832880999992005011400004-13267-043417FM-12+0458SBLP V0203601N001510450019N0020001N1+02251+02221101061ADDAY161061AY261061GF108991041051008001021999KA1240M+02631MA1999999096121MD1999999+0171MW1031REMSYN100AAXX  14004 83288 21595 83603 10225 20222 39612 40106 70366 8452/ 333 10263 29092 55000 58017 69971;
0162832880999992005011412004-13267-043417FM-12+0458SBLP V0203601N001010075019N0200001N1+02341+02111101131ADDGF108991061051008001021999KA1240N+02091MA1999999096331MD1999999+0041REMSYN082AAXX  14124 83288 22598 83602 10234 20211 39633 40113 8652/ 333 20209 58004 60034;
0167832880999992005011418004-13267-043417FM-12+0458SBLP V0203601N001010450019N0200001N1+02871+02211100851ADDAA106000091GF106991041081008001021001MA1999999095861MD1999999-0141REMSYN070AAXX  14184 83288 32598 63602 10287 20221 39586 40085 84820 333 59014;EQDQ01  00002PRCP06
0202832880999992005011500004-13267-043417FM-12+0458SBLP V0200501N000510075019N0020001N1+02191+02041101111ADDAY161061AY261061GF108991051051008001021999KA1240M+02931MA1999999096171MD1999999+0051MW1031REMSYN100AAXX  15004 83288 21595 80501 10219 20204 39617 40111 70366 8552/ 333 10293 29082 55036 58005 60111;
0190832880999992005011512004-13267-043417FM-12+0458SBLP V0203601N001010042019N0200001N1+02231+02171101151ADDAY161061AY251061GF108991061051004501021999KA1240N+02161MA1999999096201MD1999999-0131MW1631REMSYN088AAXX  15124 83288 21498 83602 10223 20217 39620 40115 76365 8652/ 333 20216 59013 60304;
0171832880999992005011518004-13267-043417FM-12+0458SBLP V0203601N001510450019N0200001N1+02451+02211100791ADDAY151061AY251061GF107991031051004501021081MA1999999095891MD1999999+0031MW1021REMSYN082AAXX  15184 83288 21498 73603 10245 20221 39589 40079 70255 83528 333 58003 60051;
0198832880999992005011600004-13267-043417FM-12+0458SBLP V0200501N001512200019N0020001N1+02301+02221100921ADDAA106000091GF102991001001999999001091KA1240M+02541MA1999999096001MD1999999-0171REMSYN088AAXX  16004 83288 32995 20503 10230 20222 39600 40092 80009 333 10254 29092 55005 59017;EQDQ01  00002PRCP06
0162832880999992005011612004-13267-043417FM-12+0458SBLP V0203601N001510450019N0200001N1+02431+02121101091ADDGF108991041081008001031999KA1240N+02101MA1999999096181MD1999999-0021REMSYN082AAXX  16124 83288 22598 83603 10243 20212 39618 40109 8483/ 333 20210 59002 60054;
0167832880999992005011618004-13267-043417FM-12+0458SBLP V0203601N002111050019N0200001N1+03031+02491100451ADDAA106000091GF105991031011008001001051MA1999999095631MD1999999-0261REMSYN070AAXX  16184 83288 32598 53604 10303 20249 39563 40045 83105 333 59026;EQDQ01  00002PRCP06
0185832880999992005011700004-13270-043420FM-12+0440SBLP V0203601N001012200019N0020001N1+02551+02301100701ADDAA106000091GF104991031081008001001051MA1999999095831MD1999999-0171REMSYN088AAXX  17004 83288 32595 43602 10255 20230 39583 40070 83805 333 10307 29080 55073 59017;EQDQ01  00002PRCP06
0173832880999992005011712004-13270-043420FM-12+0440SBLP V0203601N001510120019N0200001N1+02481+02231101271ADDAA106000091GF106991051081008001021001MA1999999096371MD1999999-0191REMSYN076AAXX  17124 83288 32598 63603 10248 20223 39637 40127 85820 333 20215 59019;EQDQ01  00002PRCP06
0167832880999992005011718004-13270-043420FM-12+0440SBLP V0202301N004110075019N0200001N1+03051+02391101081ADDAA106000091GF106991061051008001021001MA1999999095861MD1999999-0231REMSYN070AAXX  17184 83288 32598 62308 10305 20239 39586 40108 86520 333 59023;EQDQ01  00002PRCP06
0186832880999992005011812004-13267-043417FM-12+0458SBLP V0203601N001012200019N0200001N1+02641+02231101071ADDAA106000091GF101991011011008001001001KA1240N+02161MA1999999096211MD1999999-0161REMSYN076AAXX  18124 83288 32598 13602 10264 20223 39621 40107 81100 333 20216 59016;EQDQ01  00002PRCP06
0167832880999992005011818004-13267-043417FM-12+0458SBLP V0203201N002112200019N0200001N1+03171+02261100501ADDAA106000091GF104991021021008001071001MA1999999095701MD1999999-0161REMSYN070AAXX  18184 83288 32598 43204 10317 20226 39570 40050 82270 333 59016;EQDQ01  00002PRCP06
0198832880999992005011900004-13267-043417FM-12+0458SBLP V0200901N001512200019N0020001N1+02561+02251100741ADDAA106000091GF101991001001999999001091KA1240M+03341MA1999999095881MD1999999+0061REMSYN088AAXX  19004 83288 32995 10903 10256 20225 39588 40074 80009 333 10334 29076 55105 58006;EQDQ01  00002PRCP06
0186832880999992005011912004-13267-043417FM-12+0458SBLP V0202701N000512200019N0200001N1+02751+02201100911ADDAA106000091GF104991021011008001001021KA1240N+02201MA1999999096061MD1999999-0151REMSYN076AAXX  19124 83288 32598 42701 10275 20220 39606 40091 82102 333 20220 59015;EQDQ01  00002PRCP06
0167832880999992005011918004-13267-043417FM-12+0458SBLP V0203601N000512200019N0200001N1+03241+02281100541ADDAA106000091GF105991031021008001001041MA1999999095741MD1999999+0041REMSYN070AAXX  19184 83288 32598 53601 10324 20228 39574 40054 83204 333 58004;EQDQ01  00002PRCP06
0198832880999992005012000004-13267-043417FM-12+0458SBLP V0200901N000512200019N0020001N1+02711+02161100751ADDAA106000091GF103991011021008001031021KA1240M+03311MA1999999095921MD1999999+0041REMSYN088AAXX  20004 83288 32595 30901 10271 20216 39592 40075 81232 333 10331 29067 55113 58004;EQDQ01  00002PRCP06
0186832880999992005012012004-13267-043417FM-12+0458SBLP V0203601N001510450019N0200001N1+02651+02181101191ADDAA106000091GF106991041081008001021041KA1240N+02281MA1999999096321MD1999999+0261REMSYN076AAXX  20124 83288 32598 63603 10265 20218 39632 40119 84824 333 20228 58026;EQDQ01  00002PRCP06
0167832880999992005012018004-13267-043417FM-12+0458SBLP V0203601N002611050019N0200001N1+03151+02131100621ADDAA106000091GF105991031011008001001021MA1999999095831MD1999999+0091REMSYN070AAXX  20184 83288 32598 53605 10315 20213 39583 40062 83102 333 58009;EQDQ01  00002PRCP06
0214832880999992005012100004-13267-043417FM-12+0458SBLP V0203601N000512200019N0200001N1+02871+02261100651ADDAA106000091GF102991999011008001001001KA1240M+03281MA1999999095711MD1999999-0211REMSYN088AAXX  21004 83288 32598 23601 10287 20226 39571 40065 81100 333 10328 29067 55102 59021;EQDQ01+000012SCOTLCQ02  00002PRCP06
0162832880999992005012112004-13267-043417FM-12+0458SBLP V0203601N001512200019N0200001N1+02531+02231101221ADDGF103991031081004501001021KA1240N+02121MA1999999096361MD1999999+0041REMSYN082AAXX  21124 83288 22498 33603 10253 20223 39636 40122 83802 333 20212 58004 60474;
0167832880999992005012118004-13267-043417FM-12+0458SBLP V0203201N001512200019N0200001N1+03191+02221100801ADDAA106000091GF104991031021008001001081MA1999999095991MD1999999+0161REMSYN070AAXX  21184 83288 32598 43203 10319 20222 39599 40080 83208 333 58016;EQDQ01  00002PRCP06
0198832880999992005012200004-13267-043417FM-12+0458SBLP V0200901N001512200019N0020001N1+02491+02151101111ADDAA106000091GF103991031001017501071001KA1240M+03241MA1999999096221MD1999999-0511REMSYN088AAXX  22004 83288 32795 30903 10249 20215 39622 40111 83070 333 10324 29076 55084 59051;EQDQ01  00002PRCP06
0186832880999992005012212004-13267-043417FM-12+0458SBLP V0201801N000510450019N0200001N1+02511+02221101331ADDAA106000091GF106991041081008001031001KA1240N+02041MA1999999096431MD1999999+0071REMSYN076AAXX  22124 83288 32598 61801 10251 20222 39643 40133 84830 333 20204 58007;EQDQ01  00002PRCP06
0167832880999992005012218004-13267-043417FM-12+0458SBLP V0202701N002111050019N0200001N1+03211+02361100851ADDAA106000091GF106991031051008001001051MA1999999096021MD1999999+0031REMSYN070AAXX  22184 83288 32598 62704 10321 20236 39602 40085 83505 333 58003;EQDQ01  00002PRCP06
0149832880999992005012312004-13270-043420FM-12+0440SBLP V0201401N001012200019N0200001N1+02471+01311101311ADDGF103991021011008001001021MA1999999096401MD1999999-0031REMSYN082AAXX  23124 83288 22598 31402 10247 20131 39640 40131 82102 333 20205 59003 69924;
0167832880999992005012318004-13270-043420FM-12+0440SBLP V0203601N000511050019N0200001N1+03221+02081100841ADDAA106000091GF105991041021008001001021MA1999999096011MD1999999-0011REMSYN070AAXX  23184 83288 32598 53601 10322 20208 39601 40084 84202 333 59001;EQDQ01  00002PRCP06
0149832880999992005012412004-13270-043420FM-12+0440SBLP V0209999C000010150019N0200001N1+02471+02171101191ADDGF107991051001017501021081MA1999999096281MD1999999-0121REMSYN082AAXX  24124 83288 22798 70000 10247 20217 39628 40119 85028 333 20219 59012 60094;
0167832880999992005012418004-13270-043420FM-12+0440SBLP V0209999C000012200019N0200001N1+03071+02221100731ADDAA106000091GF102991001001999999001091MA1999999095901MD1999999-0111REMSYN070AAXX  24184 83288 32998 20000 10307 20222 39590 40073 80009 333 59011;EQDQ01  00002PRCP06
0198832880999992005012500004-13267-043417FM-12+0458SBLP V0200501N002619999999N0020001N1+02541+02171100931ADDAA106000091GF107991001001999999001091KA1240M+03191MA1999999096051MD1999999+0011REMSYN088AAXX  25004 83288 32995 70505 10254 20217 39605 40093 80009 333 10319 29076 55054 58001;EQDQ01  00002PRCP06
0186832880999992005012512004-13267-043417FM-12+0458SBLP V0200901N000512200019N0200001N1+02781+02341101011ADDAA106000091GF102991011011008001051001KA1240N+02141MA1999999096151MD1999999-0131REMSYN076AAXX  25124 83288 32598 20901 10278 20234 39615 40101 81150 333 20214 59013;EQDQ01  00002PRCP06
0167832880999992005012518004-13267-043417FM-12+0458SBLP V0203601N001512200019N0200001N1+03131+02201100661ADDAA106000091GF103991011011008001031001MA1999999095841MD1999999-0061REMSYN070AAXX  25184 83288 32598 33603 10313 20220 39584 40066 81130 333 59006;EQDQ01  00002PRCP06
0198832880999992005012600004-13267-043417FM-12+0458SBLP V0209999C000011050019N0020001N1+02691+02401100891ADDAA106000091GF105991011011008001031021KA1240M+03291MA1999999096051MD1999999+0001REMSYN088AAXX  26004 83288 32595 50000 10269 20240 39605 40089 81132 333 10329 29073 55084 58000;EQDQ01  00002PRCP06
0186832880999992005012612004-13267-043417FM-12+0458SBLP V0203601N001011050019N0200001N1+02711+02241100981ADDAA106000091GF105991041021008001001021KA1240N+02181MA1999999096141MD1999999-0011REMSYN076AAXX  26124 83288 32598 53602 10271 20224 39614 40098 84202 333 20218 59001;EQDQ01  00002PRCP06
0171832880999992005012618004-13267-043417FM-12+0458SBLP V0202701N001510450019N0200001N1+02951+02351100671ADDAY151061AY251061GF106991041081008001021021MA1999999095841MD1999999+0001MW1031REMSYN082AAXX  26184 83288 21598 62703 10295 20235 39584 40067 70355 84822 333 58000 60021;
0198832880999992005012700004-13267-043417FM-12+0458SBLP V0200501N001010450019N0020001N1+02441+02071101021ADDAA106000091GF105991041011008001021001KA1240M+03171MA1999999096151MD1999999+0101REMSYN088AAXX  27004 83288 32595 50502 10244 20207 39615 40102 84120 333 10317 29075 55080 58010;EQDQ01  00002PRCP06
0162832880999992005012712004-13267-043417FM-12+0458SBLP V0202701N001011050019N0200001N1+02711+02371101211ADDGF105991031081004501001021KA1240N+02171MA1999999096341MD1999999+0201REMSYN082AAXX  27124 83288 22498 52702 10271 20237 39634 40121 83802 333 20217 58020 60024;
0167832880999992005012718004-13267-043417FM-12+0458SBLP V0201401N001510450019N0200001N1+02951+02291100891ADDAA106000091GF107991021031004501071081MA1999999096031MD1999999+0191REMSYN070AAXX  27184 83288 32498 71403 10295 20229 39603 40089 82378 333 58019;EQDQ01  00002PRCP06
0198832880999992005012800004-13267-043417FM-12+0458SBLP V0209999C000010450019N0020001N1+02481+02151101001ADDAA106000091GF107991021081004501071081KA1240M+03221MA1999999096141MD1999999-0011REMSYN088AAXX  28004 83288 32495 70000 10248 20215 39614 40100 82878 333 10322 29078 55065 59001;EQDQ01  00002PRCP06
0190832880999992005012812004-13267-043417FM-12+0458SBLP V0201801N000512200019N0200001N1+02531+02371101311ADDAY161061AY261061GF104991041021008001001001KA1240N+02181MA1999999096411MD1999999+0071MW1021REMSYN088AAXX  28124 83288 21598 41801 10253 20237 39641 40131 70266 84200 333 20218 58007 60014;
0167832880999992005012818004-13267-043417FM-12+0458SBLP V0203601N001512200019N0200001N1+03281+02321100721ADDAA106000091GF105991041021008001001011MA1999999095901MD1999999-0131REMSYN070AAXX  28184 83288 32598 53603 10328 20232 39590 40072 84201 333 59013;EQDQ01  00002PRCP06
0202832880999992005012900004-13267-043417FM-12+0458SBLP V0200901N000512200019N0020001N1+02491+02331100741ADDAY161061AY261061GF103991031081008001001001KA1240M+03371MA1999999095871MD1999999-0271MW1021REMSYN100AAXX  29004 83288 21595 30901 10249 20233 39587 40074 70266 83800 333 10337 29080 55076 59027 60101;
0162832880999992005012912004-13267-043417FM-12+0458SBLP V0201801N000512200019N0200001N1+02751+02101100911ADDGF103991021011008001001021KA1240N+02251MA1999999096051MD1999999-0361REMSYN082AAXX  29124 83288 22598 31801 10275 20210 39605 40091 82102 333 20225 59036 60104;
0171832880999992005012918004-13267-043417FM-12+0458SBLP V0202301N001010450019N0200001N1+02881+02321100581ADDAY161061AY261061GF105991041081008001021021MA1999999095741MD1999999-0161MW1031REMSYN082AAXX  29184 83288 21598 52302 10288 20232 39574 40058 70366 84822 333 59016 60031;
0177832880999992005013012004-13270-043420FM-12+0440SBLP V0209999C000012200019N0200001N1+02651+02161100861ADDAY151061AY251061GF102991001001999999001091MA1999999095971MD1999999-0081MW1021REMSYN088AAXX  30124 83288 21998 20000 10265 20216 39597 40086 70255 80009 333 20209 59008 60124;
0167832880999992005013018004-13270-043420FM-12+0440SBLP V0201801N001510450019N0200001N1+02661+02291100441ADDAA106000091GF108991031081004501071021MA1999999095571MD1999999-0171REMSYN070AAXX  30184 83288 32498 81803 10266 20229 39557 40044 83872 333 59017;EQDQ01  00002PRCP06
0198832880999992005013100004-13267-043417FM-12+0458SBLP V0209999C000010450019N0020001N1+02371+02171100681ADDAA106000091GF108991031081004501021999KA1240M+02671MA1999999095811MD1999999-0051REMSYN088AAXX  31004 83288 32495 80000 10237 20217 39581 40068 8382/ 333 10267 29083 55064 59005;EQDQ01  00002PRCP06
0186832880999992005013112004-13267-043417FM-12+0458SBLP V0203601N000510450019N0200001N1+02611+02361100951ADDAA106000091GF106991031051008001031091KA1240N+02221MA1999999096071MD1999999+0101REMSYN076AAXX  31124 83288 32598 63601 10261 20236 39607 40095 83539 333 20222 58010;EQDQ01  00002PRCP06
0171832880999992005013118004-13267-043417FM-12+0458SBLP V0203601N001010450019N0200001N1+03031+02401100501ADDAY161061AY261061GF106991041021008001011051MA1999999095681MD1999999+0111MW1021REMSYN082AAXX  31184 83288 21598 63602 10303 20240 39568 40050 70266 84215 333 58011 69981;
0202832880999992005020100004-13267-043417FM-12+0458SBLP V0202701N001010450019N0020001N1+02291+02151100841ADDAY161061AY261061GF108991031051008001021999KA1240M+03071MA1999999095951MD1999999+0141MW1131REMSYN100AAXX  01004 83288 21595 82702 10229 20215 39595 40084 71366 8352/ 333 10307 29082 55045 58014 60131;
0190832880999992005020112004-13267-043417FM-12+0458SBLP V0202301N002110450019N0200001N1+02221+02081101011ADDAY161061AY251061GF108991041051004501021071KA1240N+01981MA1999999096071MD1999999+0001MW1021REMSYN088AAXX  01124 83288 21498 82304 10222 20208 39607 40101 70265 84527 333 20198 58000 60344;
0167832880999992005020118004-13267-043417FM-12+0458SBLP V0203601N001511050019N0200001N1+02751+02471100561ADDAA106000091GF107991031081004501001021MA1999999095691MD1999999+0011REMSYN070AAXX  01184 83288 32498 73603 10275 20247 39569 40056 83802 333 58001;EQDQ01  00002PRCP06
0198832880999992005020200004-13267-043417FM-12+0458SBLP V0201801N001012200019N0020001N1+02491+02231100771ADDAA106000091GF103991031001004501071021KA1240M+02891MA1999999095871MD1999999-0081REMSYN088AAXX  02004 83288 32495 31802 10249 20223 39587 40077 83072 333 10289 29087 55035 59008;EQDQ01  00002PRCP06
0190832880999992005020212004-13267-043417FM-12+0458SBLP V0201801N001010450019N0200001N1+02471+02151101121ADDAY161061AY261061GF105991041011008001021021KA1240N+01991MA1999999096221MD1999999+0151MW1031REMSYN088AAXX  02124 83288 21598 51802 10247 20215 39622 40112 70366 84122 333 20199 58015 60044;
0167832880999992005020218004-13267-043417FM-12+0458SBLP V0201801N000512200019N0200001N1+03071+02301100691ADDAA106000091GF104991031021008001001041MA1999999095841MD1999999+0151REMSYN070AAXX  02184 83288 32598 41801 10307 20230 39584 40069 83204 333 58015;EQDQ01  00002PRCP06
0198832880999992005020300004-13267-043417FM-12+0458SBLP V0201801N001510075019N0020001N1+02391+02261100771ADDAA106000091GF108991061051008001021999KA1240M+03201MA1999999095961MD1999999-0091REMSYN088AAXX  03004 83288 32595 81803 10239 20226 39596 40077 8652/ 333 10320 29080 55071 59009;EQDQ01  00002PRCP06
0186832880999992005020312004-13267-043417FM-12+0458SBLP V0201801N001512200019N0200001N1+02591+02261101151ADDAA106000091GF104991011011008001031001KA1240N+02141MA1999999096351MD1999999+0131REMSYN076AAXX  03124 83288 32598 41803 10259 20226 39635 40115 81130 333 20214 58013;EQDQ01  00002PRCP06
0167832880999992005020318004-13267-043417FM-12+0458SBLP V0201801N001511050019N0200001N1+03191+02171100921ADDAA106000091GF105991031011008001001051MA1999999096091MD1999999+0251REMSYN070AAXX  03184 83288 32598 51803 10319 20217 39609 40092 83105 333 58025;EQDQ01  00002PRCP06
0208832880999992005020400004-13267-043417FM-12+0458SBLP V0201801N001512200019N0020001N1+02651+02171101041ADDAA106000091GA1001+999999999GF100991001001999999001001KA1240M+03251MA1999999096171MD1999999+0211REMSYN082AAXX  04004 83288 32995 01803 10265 20217 39617 40104 333 10325 29071 55089 58021;EQDQ01  00002PRCP06
0186832880999992005020412004-13267-043417FM-12+0458SBLP V0201801N000512200019N0200001N1+02651+02001101191ADDAA106000091GF103991021011008001001021KA1240N+02031MA1999999096331MD1999999-0021REMSYN076AAXX  04124 83288 32598 31801 10265 20200 39633 40119 82102 333 20203 59002;EQDQ01  00002PRCP06
0167832880999992005020418004-13267-043417FM-12+0458SBLP V0200901N000512200019N0200001N1+03291+01741100851ADDAA106000091GF105991041021008001001041MA1999999096021MD1999999-0071REMSYN070AAXX  04184 83288 32598 50901 10329 20174 39602 40085 84204 333 59007;EQDQ01  00002PRCP06
0208832880999992005020500004-13267-043417FM-12+0458SBLP V0201801N001512200019N0020001N1+02671+01771100871ADDAA106000091GA1001+999999999GF100991001001999999001001KA1240M+03361MA1999999096021MD1999999-0151REMSYN082AAXX  05004 83288 32995 01803 10267 20177 39602 40087 333 10336 29055 55116 59015;EQDQ01  00002PRCP06
0196832880999992005020512004-13267-043417FM-12+0458SBLP V0201401N001012200019N0200001N1+02551+01951101321ADDAA106000091GA1001+999999999GF100991001001999999001001KA1240N+02001MA1999999096451MD1999999-0121REMSYN070AAXX  05124 83288 32998 01402 10255 20195 39645 40132 333 20200 59012;EQDQ01  00002PRCP06
0167832880999992005020518004-13267-043417FM-12+0458SBLP V0202301N000512200019N0200001N1+03251+01881100851ADDAA106000091GF103991021011008001001021MA1999999096021MD1999999+0001REMSYN070AAXX  05184 83288 32598 32301 10325 20188 39602 40085 82102 333 58000;EQDQ01  00002PRCP06
0167832880999992005020612004-13270-043420FM-12+0440SBLP V0201801N001012200019N0200001N1+02731+02131101221ADDAA106000091GF100991001001999999001001MA1999999096391MD1999999-0061REMSYN070AAXX  06124 83288 32998 01802 10273 20213 39639 40122 333 20194 59006;EQDQ01  00002PRCP06
0167832880999992005020618004-13270-043420FM-12+0440SBLP V0201801N001512200019N0200001N1+03321+02381100791ADDAA106000091GF104991041021008001001001MA1999999095961MD1999999-0061REMSYN070AAXX  06184 83288 32598 41803 10332 20238 39596 40079 84200 333 59006;EQDQ01  00002PRCP06
0212832880999992005020700004-13267-043417FM-12+0458SBLP V0201801N001012200019N0020001N1+02731+02331100871ADDAY151061AY251061GA1001+999999999GF100991001001999999001001KA1240M+03451MA1999999096031MD1999999+0111MW1011REMSYN094AAXX  07004 83288 21995 01802 10273 20233 39603 40087 70155 333 10345 29069 55108 58011 69921;
0172832880999992005020712004-13267-043417FM-12+0458SBLP V0201401N001512200019N0200001N1+02731+02081101091ADDGA1001+999999999GF100991001001999999001001KA1240N+02051MA1999999096251MD1999999-0141REMSYN076AAXX  07124 83288 22998 01403 10273 20208 39625 40109 333 20205 59014 69924;
0167832880999992005020718004-13267-043417FM-12+0458SBLP V0202301N001512200019N0200001N1+03321+02141100761ADDAA106000091GF103991021021008001001021MA1999999095941MD1999999-0021REMSYN070AAXX  07184 83288 32598 32303 10332 20214 39594 40076 82202 333 59002;EQDQ01  00002PRCP06
0208832880999992005020800004-13267-043417FM-12+0458SBLP V0201401N001512200019N0020001N1+02611+01971100981ADDAA106000091GA1001+999999999GF100991001001999999001001KA1240M+03451MA1999999096131MD1999999+0101REMSYN082AAXX  08004 83288 32995 01403 10261 20197 39613 40098 333 10345 29062 55114 58010;EQDQ01  00002PRCP06
0196832880999992005020812004-13267-043417FM-12+0458SBLP V0201801N001512200019N0200001N1+02581+01941101111ADDAA106000091GA1001+999999999GF100991001001999999001001KA1240N+01981MA1999999096241MD1999999-0011REMSYN070AAXX  08124 83288 32998 01803 10258 20194 39624 40111 333 20198 59001;EQDQ01  00002PRCP06
0167832880999992005020818004-13267-043417FM-12+0458SBLP V0201401N001510450019N0200001N1+03321+01891100651ADDAA106000091GF106991041021008001021041MA1999999095831MD1999999-0111REMSYN070AAXX  08184 83288 32598 61403 10332 20189 39583 40065 84224 333 59011;EQDQ01  00002PRCP06
0186832880999992005020912004-13267-043417FM-12+0458SBLP V0201401N001012200019N0200001N1+02531+02081101151ADDAA106000091GF102991001001999999001051KA1240N+02001MA1999999096281MD1999999-0041REMSYN076AAXX  09124 83288 32998 21402 10253 20208 39628 40115 80005 333 20200 59004;EQDQ01  00002PRCP06
0167832880999992005020918004-13267-043417FM-12+0458SBLP V0203601N001012200019N0200001N1+03221+02271100681ADDAA106000091GF104991041021008001001001MA1999999095851MD1999999+0021REMSYN070AAXX  09184 83288 32598 43602 10322 20227 39585 40068 84200 333 58002;EQDQ01  00002PRCP06
0198832880999992005021000004-13267-043417FM-12+0458SBLP V0201801N001512200019N0020001N1+02641+02091100811ADDAA106000091GF102991021011008001001001KA1240M+03351MA1999999095951MD1999999+0041REMSYN088AAXX  10004 83288 32595 21803 10264 20209 39595 40081 82100 333 10335 29068 55114 58004;EQDQ01  00002PRCP06
0186832880999992005021012004-13267-043417FM-12+0458SBLP V0201401N000512200019N0200001N1+02671+01971100941ADDAA106000091GF101991001001999999001011KA1240N+02041MA1999999096101MD1999999-0181REMSYN076AAXX  10124 83288 32998 11401 10267 20197 39610 40094 80001 333 20204 59018;EQDQ01  00002PRCP06
0167832880999992005021018004-13267-043417FM-12+0458SBLP V0203601N000512200019N0200001N1+03221+02261100601ADDAA106000091GF102991021021008001001001MA1999999095781MD1999999-0071REMSYN070AAXX  10184 83288 32598 23601 10322 20226 39578 40060 82200 333 59007;EQDQ01  00002PRCP06
0208832880999992005021100004-13267-043417FM-12+0458SBLP V0201401N000512200019N0020001N1+02731+02031100581ADDAA106000091GA1001+999999999GF100991001001999999001001KA1240M+03331MA1999999095811MD1999999-0141REMSYN082AAXX  11004 83288 32995 01401 10273 20203 39581 40058 333 10333 29064 55116 59014;EQDQ01  00002PRCP06
0186832880999992005021112004-13267-043417FM-12+0458SBLP V0203601N000510450019N0200001N1+02771+02021100821ADDAA106000091GF105991031011008001021021KA1240N+01841MA1999999095981MD1999999-0021REMSYN076AAXX  11124 83288 32598 53601 10277 20202 39598 40082 83122 333 20184 59002;EQDQ01  00002PRCP06
0167832880999992005021118004-13267-043417FM-12+0458SBLP V0203601N000512200019N0200001N1+03311+01981100381ADDAA106000091GF103991021021008001001021MA1999999095591MD1999999-0191REMSYN070AAXX  11184 83288 32598 33601 10331 20198 39559 40038 82202 333 59019;EQDQ01  00002PRCP06
0198832880999992005021200004-13267-043417FM-12+0458SBLP V0201401N001011050019N0020001N1+02441+02031100741ADDAA106000091GF105991041081008001001021KA1240M+03361MA1999999095891MD1999999+0081REMSYN088AAXX  12004 83288 32595 51402 10244 20203 39589 40074 84802 333 10336 29071 55091 58008;EQDQ01  00002PRCP06
0186832880999992005021212004-13267-043417FM-12+0458SBLP V0203601N001510120019N0200001N1+02391+02201101001ADDAA106000091GF108991061081008001011999KA1240N+02121MA1999999096101MD1999999+0121REMSYN076AAXX  12124 83288 32598 83603 10239 20220 39610 40100 8681/ 333 20212 58012;EQDQ01  00002PRCP06
0171832880999992005021218004-13267-043417FM-12+0458SBLP V0203601N002110450019N0200001N1+02431+02121100871ADDAY161061AY261061GF106991041051008001011001MA1999999095951MD1999999+0561MW1031REMSYN082AAXX  12184 83288 21598 63604 10243 20212 39595 40087 70366 84510 333 58056 60011;
0185832880999992005021300004-13270-043420FM-12+0440SBLP V0203601N001510075019N0020001N1+02311+02171101011ADDAA106000091GF108991061051008001021999MA1999999096101MD1999999+0211REMSYN088AAXX  13004 83288 32595 83603 10231 20217 39610 40101 8652/ 333 10289 29092 55022 58021;EQDQ01  00002PRCP06
0177832880999992005021312004-13270-043420FM-12+0440SBLP V0203601N002610120019N0200001N1+02391+02211102241ADDAY161061AY261061GF107991051081008001001051MA1999999096221MD1999999+0121MW1021REMSYN088AAXX  13124 83288 21598 73605 10239 20221 39622 40224 70266 85805 333 20212 58012 60024;
0190832880999992005021318004-13270-043420FM-12+0440SBLP V0203601N001512200019N0200001N1+02691+02261100722ADDAY161061AY261061GF102991021021008001001001MA1999999095841MD1999999-0111MW1021REMSYN082AAXX  13184 83288 21598 23603 10269 20226 39584 40072 70266 82200 333 59011 60031;EQDQ01+100723APOSLP
0198832880999992005021400004-13267-043417FM-12+0458SBLP V0209999C000019999999N0020001N1+02491+02231100861ADDAA106000091GF106991061081999999001001KA1240M+02971MA1999999095971MD1999999-0131REMSYN088AAXX  14004 83288 32995 60000 10249 20223 39597 40086 86800 333 10297 29085 55051 59013;EQDQ01  00002PRCP06
0162832880999992005021412004-13267-043417FM-12+0458SBLP V0203201N000510075019N0200001N1+02411+02261101001ADDGF108991061051008001021999KA1240N+02211MA1999999096111MD1999999+0271REMSYN082AAXX  14124 83288 22598 83201 10241 20226 39611 40100 8652/ 333 20221 58027 60034;
0171832880999992005021418004-13267-043417FM-12+0458SBLP V0203601N001510450019N0200001N1+02441+02351100661ADDAY161061AY251061GF106991041051008001021001MA1999999095781MD1999999-0061MW1021REMSYN082AAXX  14184 83288 21598 63603 10244 20235 39578 40066 70265 84520 333 59006 60171;
0202832880999992005021500004-13267-043417FM-12+0458SBLP V0203601N001510075019N0020001N1+02371+02221100771ADDAY151061AY251061GF108991061051008001021999KA1240M+02891MA1999999095881MD1999999-0091MW1021REMSYN100AAXX  15004 83288 21595 83603 10237 20222 39588 40077 70255 8652/ 333 10289 29093 55022 59009 69961;
0190832880999992005021512004-13267-043417FM-12+0458SBLP V0203601N001510450019N0200001N1+02311+02231100901ADDAY161061AY261061GF108991031051008001021999KA1240N+02141MA1999999095991MD1999999-0121MW1031REMSYN088AAXX  15124 83288 21598 83603 10231 20223 39599 40090 70366 8352/ 333 20214 59012 60224;
0167832880999992005021518004-13267-043417FM-12+0458SBLP V0203601N001510075019N0200001N1+02881+02441100411ADDAA106000091GF108991081051008001999999MA1999999095591MD1999999-0191REMSYN070AAXX  15184 83288 32598 83603 10288 20244 39559 40041 885// 333 59019;EQDQ01  00002PRCP06
0202832880999992005021600004-13267-043417FM-12+0458SBLP V0203601N001510075019N0020001N1+02441+02291100611ADDAY161061AY261061GF108991061051008001011999KA1240M+02971MA1999999095731MD1999999-0151MW1031REMSYN100AAXX  16004 83288 21595 83603 10244 20229 39573 40061 70366 8651/ 333 10297 29088 55033 59015 60081;
0190832880999992005021612004-13267-043417FM-12+0458SBLP V0203601N001510075019N0200001N1+02291+02231100861ADDAY161061AY261061GF108991081051008001999999KA1240N+02081MA1999999096021MD1999999+0031MW1601REMSYN088AAXX  16124 83288 21598 83603 10229 20223 39602 40086 76066 885// 333 20208 58003 60504;
0171832880999992005021618004-13267-043417FM-12+0458SBLP V0200501N000510075019N0200001N1+02211+02171100731ADDAY161061AY261061GF108991051051008001011999MA1999999095821MD1999999+0231MW1611REMSYN082AAXX  16184 83288 21598 80501 10221 20217 39582 40073 76166 8551/ 333 58023 60191;
0179832880999992005021700004-13267-043417FM-12+0458SBLP V0200501N001512200019N0020001N1+02201+02131100891ADDAA106000021GF102991001001999999001051KA1240M+02501MA1999999095961MD1999999+0231REMSYN088AAXX  17004 83288 32995 20503 10220 20213 39596 40089 80005 333 10250 29097 55000 58023;
0190832880999992005021712004-13267-043417FM-12+0458SBLP V0203601N000511050019N0020001N1+02451+01861101151ADDAY161061AY261061GF105991041011008001001021KA1240N+01991MA1999999096221MD1999999+0201MW1031REMSYN088AAXX  17124 83288 21595 53601 10245 20186 39622 40115 70366 84102 333 20199 58020 60194;
0167832880999992005021718004-13267-043417FM-12+0458SBLP V0203601N001011050019N0200001N1+02461+00701100641ADDAA106000091GF106991031021008001001021MA1999999095741MD1999999-0081REMSYN070AAXX  17184 83288 32598 63602 10246 20070 39574 40064 83202 333 59008;EQDQ01  00002PRCP06
0190832880999992005021812004-13267-043417FM-12+0458SBLP V0202701N001510450019N0200001N1+02451+02311101321ADDAY161061AY261061GF106991041081008001031001KA1240N+02121MA1999999096401MD1999999+0181MW1021REMSYN088AAXX  18124 83288 21598 62703 10245 20231 39640 40132 70266 84830 333 20212 58018 60224;
0171832880999992005021818004-13267-043417FM-12+0458SBLP V0203601N001010075019N0200001N1+02611+01931101081ADDAY161061AY261061GF107991051051008001031001MA1999999096191MD1999999+0451MW1031REMSYN082AAXX  18184 83288 21598 73602 10261 20193 39619 40108 70366 85530 333 58045 60021;
0202832880999992005021900004-13267-043417FM-12+0458SBLP V0201801N001510450019N0020001N1+02411+02271101231ADDAY151061AY251061GF108991031081008001031011KA1240M+03031MA1999999096321MD1999999+0151MW1031REMSYN100AAXX  19004 83288 21595 81803 10241 20227 39632 40123 70355 83831 333 10303 29090 55022 58015 69921;
0162832880999992005021912004-13267-043417FM-12+0458SBLP V0201801N001012200019N0200001N1+02571+02311101241ADDGF103991011011008001031081KA1240N+02121MA1999999096441MD1999999+0041REMSYN082AAXX  19124 83288 22598 31802 10257 20231 39644 40124 81138 333 20212 58004 60024;
0167832880999992005021918004-13267-043417FM-12+0458SBLP V0203601N001012200019N0200001N1+03221+02201100741ADDAA106000091GF102991011011008001001021MA1999999095931MD1999999-0261REMSYN070AAXX  19184 83288 32598 23602 10322 20220 39593 40074 81102 333 59026;EQDQ01  00002PRCP06
0185832880999992005022000004-13270-043420FM-12+0440SBLP V0209999C000012200019N0020001N1+02771+02401100951ADDAA106000091GF103991001001999999001051MA1999999096101MD1999999-0221REMSYN088AAXX  20004 83288 32995 30000 10277 20240 39610 40095 80005 333 10330 29075 55088 59022;EQDQ01  00002PRCP06
0173832880999992005022012004-13270-043420FM-12+0440SBLP V0201801N000511050019N0200001N1+02551+02251101151ADDAA106000091GF105991011011008001041061MA1999999096271MD1999999-0171REMSYN076AAXX  20124 83288 32598 51801 10255 20225 39627 40115 81146 333 20203 59017;EQDQ01  00002PRCP06
0167832880999992005022018004-13270-043420FM-12+0440SBLP V0202301N001011050019N0200001N1+02911+02301100621ADDAA106000091GF105991011031008001031021MA1999999095821MD1999999-0111REMSYN070AAXX  20184 83288 32598 52302 10291 20230 39582 40062 81332 333 59011;EQDQ01  00002PRCP06
0198832880999992005022100004-13267-043417FM-12+0458SBLP V0203601N001510450019N0020001N1+02531+02251100801ADDAA106000091GF107991021021008001041021KA1240M+03131MA1999999095941MD1999999-0161REMSYN088AAXX  21004 83288 32595 73603 10253 20225 39594 40080 82242 333 10313 29081 55053 59016;EQDQ01  00002PRCP06
0190832880999992005022112004-13267-043417FM-12+0458SBLP V0200901N001512200019N0200001N1+02531+02321101011ADDAY161061AY261061GF105991031021008001001041KA1240N+02221MA1999999096131MD1999999-0141MW1021REMSYN088AAXX  21124 83288 21598 50903 10253 20232 39613 40101 70266 83204 333 20222 59014 60024;
0167832880999992005022118004-13267-043417FM-12+0458SBLP V0202701N001012200019N0200001N1+03111+02371100461ADDAA106000091GF104991031021008001001021MA1999999095661MD1999999-0161REMSYN070AAXX  21184 83288 32598 42702 10311 20237 39566 40046 83202 333 59016;EQDQ01  00002PRCP06
0198832880999992005022200004-13267-043417FM-12+0458SBLP V0200901N001010120019N0020001N1+02531+02371100731ADDAA106000091GF106991061081008001001001KA1240M+03191MA1999999095861MD1999999-0081REMSYN088AAXX  22004 83288 32595 60902 10253 20237 39586 40073 86800 333 10319 29081 55074 59008;EQDQ01  00002PRCP06
0190832880999992005022212004-13267-043417FM-12+0458SBLP V0203601N000510075019N0200001N1+02171+02131101171ADDAY191061AY261061GF108991081061008001999999KA1240N+02021MA1999999096251MD1999999+0121MW1951REMSYN088AAXX  22124 83288 21598 83601 10217 20213 39625 40117 79596 886// 333 20202 58012 60354;
0171832880999992005022218004-13267-043417FM-12+0458SBLP V0200901N001511050019N0200001N1+02711+02261100811ADDAY161061AY261061GF105991031081008001001021MA1999999095951MD1999999+0291MW1031REMSYN082AAXX  22184 83288 21598 50903 10271 20226 39595 40081 70366 83802 333 58029 60041;
0198832880999992005022300004-13267-043417FM-12+0458SBLP V0203601N001010450019N0020001N1+02331+02151101211ADDAA106000091GF106991031081008001011021KA1240M+02791MA1999999096251MD1999999+0391REMSYN088AAXX  23004 83288 32595 63602 10233 20215 39625 40121 83812 333 10279 29089 55020 58039;EQDQ01  00002PRCP06
0162832880999992005022312004-13267-043417FM-12+0458SBLP V0200501N001012200019N0200001N1+02561+02131101291ADDGF101991011011008001001001KA1240N+01981MA1999999096381MD1999999+0131REMSYN082AAXX  23124 83288 22598 10502 10256 20213 39638 40129 81100 333 20198 58013 60044;
0167832880999992005022318004-13267-043417FM-12+0458SBLP V0203201N001512200019N0200001N1+03111+02171100951ADDAA106000091GF102991011021008001001021MA1999999096011MD1999999+0061REMSYN070AAXX  23184 83288 32598 23203 10311 20217 39601 40095 81202 333 58006;EQDQ01  00002PRCP06
0198832880999992005022400004-13267-043417FM-12+0458SBLP V0200501N001510120019N0200001N1+02521+02251101131ADDAA106000091GF108991051081008001021999KA1240M+03211MA1999999096251MD1999999+0011REMSYN088AAXX  24004 83288 32598 80503 10252 20225 39625 40113 8582/ 333 10321 29076 55107 58001;EQDQ01  00002PRCP06
0190832880999992005022412004-13267-043417FM-12+0458SBLP V0201801N001512200019N0200001N1+02551+02351101391ADDAY151061AY251061GF105991031021008001001041KA1240N+02221MA1999999096491MD1999999+0111MW1021REMSYN088AAXX  24124 83288 21598 51803 10255 20235 39649 40139 70255 83204 333 20222 58011 69944;
0171832880999992005022418004-13267-043417FM-12+0458SBLP V0200901N002110075019N0200001N1+02211+02161101011ADDAY161061AY291061GF108991051071008001021999MA1999999096101MD1999999+0091MW1611REMSYN082AAXX  24184 83288 21598 80904 10221 20216 39610 40101 76169 8572/ 333 58009 60291;
0202832880999992005022500004-13267-043417FM-12+0458SBLP V0200901N001012200019N0020001N1+02331+02301101191ADDAY161061AY261061GF104991021021008001001021KA1240M+03131MA1999999096291MD1999999+0041MW1021REMSYN100AAXX  25004 83288 21595 40902 10233 20230 39629 40119 70266 82202 333 10313 29095 55053 58004 60011;
0172832880999992005022512004-13267-043417FM-12+0458SBLP V0209999C000012200019N0200001N1+02651+02331101271ADDGA1001+999999999GF100991001001999999001001KA1240N+02021MA1999999096371MD1999999-0121REMSYN076AAXX  25124 83288 22998 00000 10265 20233 39637 40127 333 20202 59012 60314;
0167832880999992005022518004-13267-043417FM-12+0458SBLP V0203201N002111050019N0200001N1+03281+02031100871ADDAA106000091GF107991031081008001001081MA1999999096031MD1999999-0071REMSYN070AAXX  25184 83288 32598 73204 10328 20203 39603 40087 83808 333 59007;EQDQ01  00002PRCP06
0208832880999992005022600004-13267-043417FM-12+0458SBLP V0209999C000012200019N0020001N1+02591+02371100931ADDAA106000091GA1001+999999999GF100991001001999999001001KA1240M+03351MA1999999096071MD1999999-0221REMSYN082AAXX  26004 83288 32995 00000 10259 20237 39607 40093 333 10335 29077 55094 59022;EQDQ01  00002PRCP06
0186832880999992005022612004-13267-043417FM-12+0458SBLP V0202301N001012200019N0200001N1+02571+02271100751ADDAA106000091GF101991001001999999001021KA1240N+02271MA1999999096271MD1999999-0101REMSYN076AAXX  26124 83288 32998 12302 10257 20227 39627 40075 80002 333 20227 59010;EQDQ01  00002PRCP06
0167832880999992005022618004-13267-043417FM-12+0458SBLP V0203601N001512200019N0200001N1+03261+02211100611ADDAA106000091GF101991011021008001001001MA1999999095821MD1999999-0211REMSYN070AAXX  26184 83288 32598 13603 10326 20221 39582 40061 81200 333 59021;EQDQ01  00002PRCP06
0179832880999992005022700004-13270-043420FM-12+0440SBLP V0209999C000012200019N0020001N1+02751+02241100821ADDAA106000091GF100991001001999999001001MA1999999095971MD1999999+0101REMSYN082AAXX  27004 83288 32995 00000 10275 20224 39597 40082 333 10337 29072 55100 58010;EQDQ01  00002PRCP06
0173832880999992005022712004-13270-043420FM-12+0440SBLP V0201801N001512200019N0200001N1+02681+02311101081ADDAA106000091GF103991021011008001001021MA1999999096231MD1999999-0041REMSYN076AAXX  27124 83288 32598 31803 10268 20231 39623 40108 82102 333 20222 59004;EQDQ01  00002PRCP06
0167832880999992005022718004-13270-043420FM-12+0440SBLP V0200901N001012200019N0200001N1+03301+02451100631ADDAA106000091GF104991021011008001001051MA1999999095841MD1999999+0021REMSYN070AAXX  27184 83288 32598 40902 10330 20245 39584 40063 82105 333 58002;EQDQ01  00002PRCP06
0198832880999992005022800004-13267-043417FM-12+0458SBLP V0200901N001512200019N0020001N1+02811+02431100941ADDAA106000091GF103991031051008001001001KA1240M+03431MA1999999096111MD1999999+0141REMSYN088AAXX  28004 83288 32595 30903 10281 20243 39611 40094 83500 333 10343 29074 55098 58014;EQDQ01  00002PRCP06
0190832880999992005022812004-13267-043417FM-12+0458SBLP V0202301N002110042019N0200001N1+02331+02241101291ADDAY161061AY261061GF108991061041004501001021KA1240N+02071MA1999999096401MD1999999+0171MW1021REMSYN088AAXX  28124 83288 21498 82304 10233 20224 39640 40129 70266 86402 333 20207 58017 60274;
0183832880999992005022818004-13267-043417FM-12+0458SBLP V0209999C000012200019N0200001N1+03011+02241100771ADDAA106000091GF103991001001999999001021MA1999999095941MD1999999+0101REMSYN070AAXX  28184 83288 32998 30000 10301 20224 39594 40077 83002 333 58010;EQDQ01+000032SCOTLCQ02  00002PRCP06
0208832880999992005030100004-13267-043417FM-12+0458SBLP V0209999C000012200019N0020001N1+02571+02351100961ADDAA106000091GA1001+999999999GF100991001001999999001001KA1240M+03121MA1999999096071MD1999999-0041REMSYN082AAXX  01004 83288 32995 00000 10257 20235 39607 40096 333 10312 29084 55032 59004;EQDQ01  00002PRCP06
0186832880999992005030112004-13267-043417FM-12+0458SBLP V0209999C000012200019N0200001N1+02661+02371101151ADDAA106000091GF102991021081008001001001KA1240N+02221MA1999999096281MD1999999-0121REMSYN076AAXX  01124 83288 32598 20000 10266 20237 39628 40115 82800 333 20222 59012;EQDQ01  00002PRCP06
0167832880999992005030118004-13267-043417FM-12+0458SBLP V0209999C000012200019N0200001N1+03321+02231100661ADDAA106000091GF102991021021008001001001MA1999999095861MD1999999-0081REMSYN070AAXX  01184 83288 32598 20000 10332 20223 39586 40066 82200 333 59008;EQDQ01  00002PRCP06
0198832880999992005030200004-13267-043417FM-12+0458SBLP V0201801N001512200019N0020001N1+02871+02391100841ADDAA106000091GF103991031081008001001001KA1240M+03371MA1999999096011MD1999999-0061REMSYN088AAXX  02004 83288 32595 31803 10287 20239 39601 40084 83800 333 10337 29072 55097 59006;EQDQ01  00002PRCP06
0190832880999992005030212004-13267-043417FM-12+0458SBLP V0202701N001011050019N0200001N1+02411+01341101101ADDAY161061AY261061GF106991041081008001001081KA1240N+02181MA1999999096261MD1999999+0251MW1021REMSYN088AAXX  02124 83288 21598 62702 10241 20134 39626 40110 70266 84808 333 20218 58025 60244;
0167832880999992005030218004-13267-043417FM-12+0458SBLP V0201801N002110075019N0200001N1+02991+02541100841ADDAA106000091GF108991061051008001011999MA1999999095981MD1999999+0121REMSYN070AAXX  02184 83288 32598 81804 10299 20254 39598 40084 8651/ 333 58012;EQDQ01  00002PRCP06
0198832880999992005030300004-13267-043417FM-12+0458SBLP V0200901N001012200019N0020001N1+02411+02361101081ADDAA106000091GF104991041081008001001001KA1240M+03171MA1999999096191MD1999999+0181REMSYN088AAXX  03004 83288 32595 40902 10241 20236 39619 40108 84800 333 10317 29086 55056 58018;EQDQ01  00002PRCP06
0190832880999992005030312004-13267-043417FM-12+0458SBLP V0200901N001512200019N0200001N1+02751+02191101201ADDAY151061AY251061GF101991001001999999001011KA1240N+02201MA1999999096331MD1999999+0071MW1011REMSYN088AAXX  03124 83288 21998 10903 10275 20219 39633 40120 70155 80001 333 20220 58007 69964;
0208832880999992005030400004-13267-043417FM-12+0458SBLP V0201801N001012200019N0020001N1+02751+02261101001ADDAA106000091GA1001+999999999GF100991001001999999001001KA1240M+03271MA1999999096161MD1999999-0051REMSYN082AAXX  04004 83288 32995 01802 10275 20226 39616 40100 333 10327 29070 55088 59005;EQDQ01  00002PRCP06
0186832880999992005030412004-13267-043417FM-12+0458SBLP V0201401N000510450019N0200001N1+02611+02331101231ADDAA106000091GF105991031011008001051021KA1240N+02091MA1999999096371MD1999999+0041REMSYN076AAXX  04124 83288 32598 51401 10261 20233 39637 40123 83152 333 20209 58004;EQDQ01  00002PRCP06
0167832880999992005030418004-13267-043417FM-12+0458SBLP V0201401N000512200019N0200001N1+03091+02131100751ADDAA106000091GF106991041011008001001041MA1999999095921MD1999999-0101REMSYN070AAXX  04184 83288 32598 61401 10309 20213 39592 40075 84104 333 59010;EQDQ01  00002PRCP06
0198832880999992005030500004-13267-043417FM-12+0458SBLP V0203601N000512200019N0020001N1+02771+02251100881ADDAA106000091GF103991021011008001021001KA1240M+03181MA1999999096041MD1999999-0121REMSYN088AAXX  05004 83288 32595 33601 10277 20225 39604 40088 82120 333 10318 29071 55087 59012;EQDQ01  00002PRCP06
0186832880999992005030512004-13267-043417FM-12+0458SBLP V0202701N000510120019N0200001N1+02531+02241101431ADDAA106000091GF108991081081008001999999KA1240N+02281MA1999999096551MD1999999+0181REMSYN076AAXX  05124 83288 32598 82701 10253 20224 39655 40143 888// 333 20228 58018;EQDQ01  00002PRCP06
0167832880999992005030518004-13267-043417FM-12+0458SBLP V0202301N002110450019N0200001N1+02791+02331101151ADDAA106000091GF106991021021008001061021MA1999999096271MD1999999+0351REMSYN070AAXX  05184 83288 32598 62304 10279 20233 39627 40115 82262 333 58035;EQDQ01  00002PRCP06
0185832880999992005030600004-13270-043420FM-12+0440SBLP V0202301N001510075019N0020001N1+02531+02371101271ADDAA106000091GF108991051051008001011999MA1999999096371MD1999999+0331REMSYN088AAXX  06004 83288 32595 82303 10253 20237 39637 40127 8551/ 333 10293 29084 55073 58033;EQDQ01  00002PRCP06
0173832880999992005030612004-13270-043420FM-12+0440SBLP V0202301N000510450019N0200001N1+02621+02031101181ADDAA106000091GF105991031081008001061001MA1999999096351MD1999999-0201REMSYN076AAXX  06124 83288 32598 52301 10262 20203 39635 40118 83860 333 20220 59020;EQDQ01  00002PRCP06
0167832880999992005030618004-13270-043420FM-12+0440SBLP V0203201N001510450019N0200001N1+03111+02181100771ADDAA106000091GF106991021021008001011021MA1999999095941MD1999999-0331REMSYN070AAXX  06184 83288 32598 63203 10311 20218 39594 40077 82212 333 59033;EQDQ01  00002PRCP06
0198832880999992005030700004-13267-043417FM-12+0458SBLP V0209999C000011050019N0020001N1+02471+02251101011ADDAA106000091GF105991021081008001011021KA1240M+03211MA1999999096141MD1999999-0231REMSYN088AAXX  07004 83288 32595 50000 10247 20225 39614 40101 82812 333 10321 29076 55056 59023;EQDQ01  00002PRCP06
0186832880999992005030712004-13267-043417FM-12+0458SBLP V0201801N000510075019N0200001N1+02581+02311101141ADDAA106000091GF108991061051008001021999KA1240N+02281MA1999999096251MD1999999-0101REMSYN076AAXX  07124 83288 32598 81801 10258 20231 39625 40114 8652/ 333 20228 59010;EQDQ01  00002PRCP06
0167832880999992005030718004-13267-043417FM-12+0458SBLP V0202301N001510450019N0200001N1+02421+02191100991ADDAA106000091GF105991041051008001021999MA1999999096081MD1999999-0141REMSYN070AAXX  07184 83288 32598 52303 10242 20219 39608 40099 8452/ 333 59014;EQDQ01  00002PRCP06
0202832880999992005030800004-13267-043417FM-12+0458SBLP V0202701N000510075019N0020001N1+02271+02181101311ADDAY161061AY261061GF108991061051008001021999KA1240M+02731MA1999999096401MD1999999+0261MW1021REMSYN100AAXX  08004 83288 21595 82701 10227 20218 39640 40131 70266 8652/ 333 10273 29089 55000 58026 60051;
0190832880999992005030812004-13267-043417FM-12+0458SBLP V0202701N001010450019N0200001N1+02331+02191101411ADDAY161061AY261061GF108991041051008001011999KA1240N+02021MA1999999096461MD1999999+0211MW1031REMSYN088AAXX  08124 83288 21598 82702 10233 20219 39646 40141 70366 8451/ 333 20202 58021 60064;
0167832880999992005030818004-13267-043417FM-12+0458SBLP V0202301N001010450019N0200001N1+02791+02171100921ADDAA106000091GF106991021021008001031051MA1999999096031MD1999999-0051REMSYN070AAXX  08184 83288 32598 62302 10279 20217 39603 40092 82235 333 59005;EQDQ01  00002PRCP06
0198832880999992005030900004-13267-043417FM-12+0458SBLP V0200901N001510450019N0020001N1+02391+02201101211ADDAA106000091GF108991041051008001021999KA1240M+02871MA1999999096291MD1999999-0111REMSYN088AAXX  09004 83288 32595 80903 10239 20220 39629 40121 8452/ 333 10287 29083 55017 59011;EQDQ01  00002PRCP06
0186832880999992005030912004-13267-043417FM-12+0458SBLP V0209999C000010150019N0200001N1+02411+02171101191ADDAA106000091GF106991061001017501031001KA1240N+02121MA1999999096281MD1999999-0181REMSYN076AAXX  09124 83288 32798 60000 10241 20217 39628 40119 86030 333 20212 59018;EQDQ01  00002PRCP06
0167832880999992005030918004-13267-043417FM-12+0458SBLP V0201401N002110450019N0200001N1+02971+02311100711ADDAA106000091GF106991031081008001021021MA1999999095871MD1999999-0161REMSYN070AAXX  09184 83288 32598 61404 10297 20231 39587 40071 83822 333 59016;EQDQ01  00002PRCP06
0202832880999992005031000004-13267-043417FM-12+0458SBLP V0203601N003110450019N0020001N1+02421+02211100981ADDAY161061AY261061GF108991041081008001021999KA1240M+02691MA1999999096081MD1999999-0211MW1511REMSYN100AAXX  10004 83288 21595 83606 10242 20221 39608 40098 75166 8482/ 333 10269 29083 55050 59021 60041;
0190832880999992005031012004-13267-043417FM-12+0458SBLP V0203601N000510075019N0200001N1+02451+02251101391ADDAY161061AY261061GF107991051051008001021001KA1240N+02101MA1999999096481MD1999999+0201MW1521REMSYN088AAXX  10124 83288 21598 73601 10245 20225 39648 40139 75266 85520 333 20210 58020 60054;
0148832880999992005031018004-13267-043417FM-12+0458SBLP V0202301N001012200019N0200001N1+03031+02161100821ADDAA106000021GF105991031021008001001041MA1999999095961MD1999999+0091REMSYN070AAXX  10184 83288 32598 52302 10303 20216 39596 40082 83204 333 58009;
0202832880999992005031100004-13267-043417FM-12+0458SBLP V0203601N002612200019N0020001N1+02251+02121101101ADDAY151061AY251061GF103991999021008001001001KA1240M+03141MA1999999096181MD1999999+0101MW1011REMSYN100AAXX  11004 83288 21595 33605 10225 20212 39618 40110 70155 82200 333 10314 29081 55055 58010 60021;
0162832880999992005031112004-13267-043417FM-12+0458SBLP V0202701N000512200019N0200001N1+02431+02261101371ADDGF103991031011008001001001KA1240N+02061MA1999999096441MD1999999-0041REMSYN082AAXX  11124 83288 22598 32701 10243 20226 39644 40137 83100 333 20206 59004 69924;
0167832880999992005031118004-13267-043417FM-12+0458SBLP V0202701N001012200019N0200001N1+03221+02261100881ADDAA106000091GF104991021021008001001041MA1999999096041MD1999999+0081REMSYN070AAXX  11184 83288 32598 42702 10322 20226 39604 40088 82204 333 58008;EQDQ01  00002PRCP06
0198832880999992005031200004-13267-043417FM-12+0458SBLP V0200901N001012200019N0020001N1+02651+02361101111ADDAA106000091GF102991011011008001001021KA1240M+03291MA1999999096231MD1999999+0051REMSYN088AAXX  12004 83288 32595 20902 10265 20236 39623 40111 81102 333 10329 29077 55098 58005;EQDQ01  00002PRCP06
0186832880999992005031212004-13267-043417FM-12+0458SBLP V0202701N001010120019N0200001N1+02631+02381101171ADDAA106000091GF106991061081008001001001KA1240N+02301MA1999999096311MD1999999-0131REMSYN076AAXX  12124 83288 32598 62702 10263 20238 39631 40117 86800 333 20230 59013;EQDQ01  00002PRCP06
0167832880999992005031218004-13267-043417FM-12+0458SBLP V0203601N001510450019N0200001N1+03181+02441100631ADDAA106000091GF105991041091008001041001MA1999999095831MD1999999-0211REMSYN070AAXX  12184 83288 32598 53603 10318 20244 39583 40063 84940 333 59021;EQDQ01  00002PRCP06
0185832880999992005031300004-13270-043420FM-12+0440SBLP V0200901N000510450019N0020001N1+02471+02311100971ADDAA106000091GF108991031051008001021999MA1999999096101MD1999999-0131REMSYN088AAXX  13004 83288 32595 80901 10247 20231 39610 40097 8352/ 333 10323 29081 55070 59013;EQDQ01  00002PRCP06
0173832880999992005031312004-13270-043420FM-12+0440SBLP V0202701N000510075019N0200001N1+02501+02291101091ADDAA106000091GF108991061051008001021999MA1999999096201MD1999999-0111REMSYN076AAXX  13124 83288 32598 82701 10250 20229 39620 40109 8652/ 333 20223 59011;EQDQ01  00002PRCP06
0167832880999992005031318004-13270-043420FM-12+0440SBLP V0200901N001510075019N0200001N1+02451+02071100751ADDAA106000091GF108991061051008001021999MA1999999095861MD1999999+0031REMSYN070AAXX  13184 83288 32598 80903 10245 20207 39586 40075 8652/ 333 58003;EQDQ01  00002PRCP06
0185832880999992005031400004-13270-043420FM-12+0440SBLP V0200901N001512200019N0020001N1+02321+02201100951ADDAA106000091GF103991999021008001001001MA1999999096051MD1999999-0051REMSYN088AAXX  14004 83288 32595 30903 10232 20220 39605 40095 82200 333 10306 29087 55036 59005;EQDQ01  00002PRCP06
0169832880999992005031412004-13270-043420FM-12+0440SBLP V0200901N000510075019N0200001N1+02291+02231101321ADDAY121061GF108991081051008001999999MA1999999096381MD1999999+0181MW1611REMSYN088AAXX  14124 83288 21598 80901 10229 20223 39638 40132 7612/ 885// 333 20210 58018 69964;
0171832880999992005031418004-13267-043417FM-12+0458SBLP V0201401N001011050019N0200001N1+02671+02351100761ADDAY161061AY261061GF106991021021008001001021MA1999999095891MD1999999+0031MW1021REMSYN082AAXX  14184 83288 21598 61402 10267 20235 39589 40076 70266 82202 333 58003 60011;
0198832880999992005031500004-13267-043417FM-12+0458SBLP V0209999C000012200019N0020001N1+02501+02381100921ADDAA106000091GF101991011021008001001001KA1240M+02811MA1999999096021MD1999999-0031REMSYN088AAXX  15004 83288 32595 10000 10250 20238 39602 40092 81200 333 10281 29091 55005 59003;EQDQ01  00002PRCP06
0162832880999992005031512004-13267-043417FM-12+0458SBLP V0201401N001012200019N0200001N1+02651+02391101051ADDGF103991021021008001031001KA1240N+02201MA1999999096181MD1999999-0201REMSYN082AAXX  15124 83288 22598 31402 10265 20239 39618 40105 82230 333 20220 59020 60014;
0167832880999992005031518004-13267-043417FM-12+0458SBLP V0203601N000510450019N0200001N1+03071+02191100711ADDAA106000091GF106991021021008001021021MA1999999095881MD1999999-0011REMSYN070AAXX  15184 83288 32598 63601 10307 20219 39588 40071 82222 333 59001;EQDQ01  00002PRCP06
0198832880999992005031600004-13267-043417FM-12+0458SBLP V0202301N001512200019N0020001N1+02471+02211101031ADDAA106000091GF102991011021008001001011KA1240M+03211MA1999999096141MD1999999+0121REMSYN088AAXX  16004 83288 32595 22303 10247 20221 39614 40103 81201 333 10321 29079 55060 58012;EQDQ01  00002PRCP06
0186832880999992005031612004-13267-043417FM-12+0458SBLP V0200901N001010450019N0200001N1+02631+02371101271ADDAA106000091GF105991031011008001021041KA1240N+02041MA1999999096381MD1999999+0201REMSYN076AAXX  16124 83288 32598 50902 10263 20237 39638 40127 83124 333 20204 58020;EQDQ01  00002PRCP06
0167832880999992005031618004-13267-043417FM-12+0458SBLP V0200901N001510450019N0200001N1+03121+02171100771ADDAA106000091GF106991041081008001021001MA1999999095941MD1999999+0061REMSYN070AAXX  16184 83288 32598 60903 10312 20217 39594 40077 84820 333 58006;EQDQ01  00002PRCP06
0202832880999992005031700004-13267-043417FM-12+0458SBLP V0202301N001012200019N0020001N1+02641+02351100911ADDAY161061AY261061GF103991999011008001001001KA1240M+03181MA1999999096061MD1999999-0081MW1021REMSYN100AAXX  17004 83288 21595 32302 10264 20235 39606 40091 70266 82100 333 10318 29075 55070 59008 60041;
0162832880999992005031712004-13267-043417FM-12+0458SBLP V0201801N000512200019N0200001N1+02551+02241101181ADDGF103991011011008001001091KA1240N+02061MA1999999096311MD1999999-0071REMSYN082AAXX  17124 83288 22598 31801 10255 20224 39631 40118 81109 333 20206 59007 60044;
0167832880999992005031718004-13267-043417FM-12+0458SBLP V0201801N001512200019N0200001N1+03111+02351100791ADDAA106000091GF104991041021008001001001MA1999999095951MD1999999+0011REMSYN070AAXX  17184 83288 32598 41803 10311 20235 39595 40079 84200 333 58001;EQDQ01  00002PRCP06
0198832880999992005031800004-13267-043417FM-12+0458SBLP V0209999C000012200019N0020001N1+02731+02491100911ADDAA106000091GF103991031021008001001001KA1240M+03131MA1999999096061MD1999999+0001REMSYN088AAXX  18004 83288 32595 30000 10273 20249 39606 40091 83200 333 10313 29078 55098 58000;EQDQ01  00002PRCP06
0186832880999992005031812004-13267-043417FM-12+0458SBLP V0202301N001012200019N0200001N1+02611+02061101121ADDAA106000091GF102991011011008001001011KA1240N+02061MA1999999096301MD1999999-0011REMSYN076AAXX  18124 83288 32598 22302 10261 20206 39630 40112 81101 333 20206 59001;EQDQ01  00002PRCP06
0167832880999992005031818004-13267-043417FM-12+0458SBLP V0203201N001011050019N0200001N1+03221+02111100761ADDAA106000091GF105991021021008001001021MA1999999095961MD1999999+0011REMSYN070AAXX  18184 83288 32598 53202 10322 20211 39596 40076 82202 333 58001;EQDQ01  00002PRCP06
0208832880999992005031900004-13267-043417FM-12+0458SBLP V0202701N001012200019N0020001N1+02651+02271100941ADDAA106000091GA1001+999999999GF100991001001999999001001KA1240M+03291MA1999999096091MD1999999+0031REMSYN082AAXX  19004 83288 32995 02702 10265 20227 39609 40094 333 10329 29071 55100 58003;EQDQ01  00002PRCP06
0186832880999992005031912004-13267-043417FM-12+0458SBLP V0203601N000510450019N0200001N1+02471+02131101191ADDAA106000091GF105991031051008001021001KA1240N+02161MA1999999096271MD1999999-0031REMSYN076AAXX  19124 83288 32598 53601 10247 20213 39627 40119 83520 333 20216 59003;EQDQ01  00002PRCP06
0167832880999992005031918004-13267-043417FM-12+0458SBLP V0203601N001012200019N0200001N1+03191+01941100631ADDAA106000091GF103991021021008001001041MA1999999095831MD1999999-0131REMSYN070AAXX  19184 83288 32598 33602 10319 20194 39583 40063 82204 333 59013;EQDQ01  00002PRCP06
0185832880999992005032000004-13270-043420FM-12+0440SBLP V0201401N000512200019N0020001N1+02851+02041100781ADDAA106000091GF102991011011008001001021MA1999999095941MD1999999-0111REMSYN088AAXX  20004 83288 32595 21401 10285 20204 39594 40078 81102 333 10327 29072 55087 59011;EQDQ01  00002PRCP06
0177832880999992005032012004-13270-043420FM-12+0440SBLP V0203601N001010450019N0200001N1+02571+02361101391ADDAY161061AY261061GF106991031021008001041061MA1999999096531MD1999999+0261MW1021REMSYN088AAXX  20124 83288 21598 63602 10257 20236 39653 40139 70266 83246 333 20220 58026 60104;
0167832880999992005032018004-13270-043420FM-12+0440SBLP V0202701N001011050019N0200001N1+03011+02521100881ADDAA106000091GF106991031021008001001021MA1999999096041MD1999999+0211REMSYN070AAXX  20184 83288 32598 62702 10301 20252 39604 40088 83202 333 58021;EQDQ01  00002PRCP06
0198832880999992005032100004-13267-043417FM-12+0458SBLP V0209999C000012200019N0020001N1+02491+02331101081ADDAA106000091GF104991011011008001001051KA1240M+03051MA1999999096191MD1999999+0251REMSYN088AAXX  21004 83288 32595 40000 10249 20233 39619 40108 81105 333 10305 29085 55052 58025;EQDQ01  00002PRCP06
0186832880999992005032112004-13267-043417FM-12+0458SBLP V0201401N001010075019N0200001N1+02431+02261101391ADDAA106000091GF108991051051008001011999KA1240N+02201MA1999999096481MD1999999-0051REMSYN076AAXX  21124 83288 32598 81402 10243 20226 39648 40139 8551/ 333 20220 59005;EQDQ01  00002PRCP06
0167832880999992005032118004-13267-043417FM-12+0458SBLP V0203201N001511050019N0200001N1+02551+02191100941ADDAA106000091GF105991021031008001021031MA1999999096041MD1999999+0001REMSYN070AAXX  21184 83288 32598 53203 10255 20219 39604 40094 82323 333 58000;EQDQ01  00002PRCP06
0198832880999992005032200004-13267-043417FM-12+0458SBLP V0209999C000012200019N0020001N1+02571+02151101111ADDAA106000091GF101991011011008001001001KA1240M+03151MA1999999096221MD1999999+0031REMSYN088AAXX  22004 83288 32595 10000 10257 20215 39622 40111 81100 333 10315 29082 55068 58003;EQDQ01  00002PRCP06
0186832880999992005032212004-13267-043417FM-12+0458SBLP V0200901N000512200019N0200001N1+02631+02101101251ADDAA106000091GF102991011011008001001021KA1240N+02101MA1999999096371MD1999999-0111REMSYN076AAXX  22124 83288 32598 20901 10263 20210 39637 40125 81102 333 20210 59011;EQDQ01  00002PRCP06
0167832880999992005032218004-13267-043417FM-12+0458SBLP V0202301N001011050019N0200001N1+03131+02051100941ADDAA106000091GF105991041021008001001021MA1999999096111MD1999999+0071REMSYN070AAXX  22184 83288 32598 52302 10313 20205 39611 40094 84202 333 58007;EQDQ01  00002PRCP06
0208832880999992005032300004-13267-043417FM-12+0458SBLP V0201801N000512200019N0020001N1+02771+02211100911ADDAA106000091GA1001+999999999GF100991001001999999001001KA1240M+03181MA1999999096081MD1999999-0141REMSYN082AAXX  23004 83288 32995 01801 10277 20221 39608 40091 333 10318 29066 55102 59014;EQDQ01  00002PRCP06
0196832880999992005032312004-13267-043417FM-12+0458SBLP V0201401N001512200019N0200001N1+02711+02131101451ADDAA106000091GA1001+999999999GF100991001001999999001001KA1240N+02201MA1999999096591MD1999999+0241REMSYN070AAXX  23124 83288 32998 01403 10271 20213 39659 40145 333 20220 58024;EQDQ01  00002PRCP06
0167832880999992005032318004-13267-043417FM-12+0458SBLP V0200901N001512200019N0200001N1+03211+02201101001ADDAA106000091GF103991031021008001001001MA1999999096191MD1999999+0081REMSYN070AAXX  23184 83288 32598 30903 10321 20220 39619 40100 83200 333 58008;EQDQ01  00002PRCP06
0208832880999992005032400004-13267-043417FM-12+0458SBLP V0201401N000512200019N0020001N1+02591+02101101161ADDAA106000091GA1001+999999999GF100991001001999999001001KA1240M+03251MA1999999096281MD1999999+0201REMSYN082AAXX  24004 83288 32995 01401 10259 20210 39628 40116 333 10325 29068 55111 58020;EQDQ01  00002PRCP06
0186832880999992005032412004-13267-043417FM-12+0458SBLP V0200901N001012200019N0200001N1+02751+02201101421ADDAA106000091GF102991021011008001001001KA1240N+02101MA1999999096551MD1999999-0041REMSYN076AAXX  24124 83288 32598 20902 10275 20220 39655 40142 82100 333 20210 59004;EQDQ01  00002PRCP06
0167832880999992005032418004-13267-043417FM-12+0458SBLP V0202301N002112200019N0200001N1+03191+02321100901ADDAA106000091GF103991031021008001001001MA1999999096081MD1999999-0111REMSYN070AAXX  24184 83288 32598 32304 10319 20232 39608 40090 83200 333 59011;EQDQ01  00002PRCP06
0198832880999992005032500004-13267-043417FM-12+0458SBLP V0200901N001510450019N0020001N1+02631+02321101081ADDAA106000091GF105991031081008001031001KA1240M+03251MA1999999096231MD1999999-0051REMSYN088AAXX  25004 83288 32595 50903 10263 20232 39623 40108 83830 333 10325 29072 55092 59005;EQDQ01  00002PRCP06
0186832880999992005032512004-13267-043417FM-12+0458SBLP V0203601N001511050019N0200001N1+02721+02031100911ADDAA106000091GF106991021011008001031041KA1240N+02231MA1999999096351MD1999999-0201REMSYN076AAXX  25124 83288 32598 63603 10272 20203 39635 40091 82134 333 20223 59020;EQDQ01  00002PRCP06
0167832880999992005032518004-13267-043417FM-12+0458SBLP V0203201N000512200019N0200001N1+03131+01991100651ADDAA106000091GF103991031011008001001021MA1999999095821MD1999999-0111REMSYN070AAXX  25184 83288 32598 33201 10313 20199 39582 40065 83102 333 59011;EQDQ01  00002PRCP06
0208832880999992005032600004-13267-043417FM-12+0458SBLP V0203201N000512200019N0020001N1+02791+02251100741ADDAA106000091GA1001+999999999GF100991001001999999001001KA1240M+03251MA1999999095921MD1999999-0311REMSYN082AAXX  26004 83288 32995 03201 10279 20225 39592 40074 333 10325 29065 55073 59031;EQDQ01  00002PRCP06
0186832880999992005032612004-13267-043417FM-12+0458SBLP V0201801N000512200019N0200001N1+02691+02211101131ADDAA106000091GF102991021011008001001001KA1240N+02181MA1999999096291MD1999999-0061REMSYN076AAXX  26124 83288 32598 21801 10269 20221 39629 40113 82100 333 20218 59006;EQDQ01  00002PRCP06
0167832880999992005032618004-13267-043417FM-12+0458SBLP V0203601N001012200019N0200001N1+03241+02251100061ADDAA106000091GF102991021021008001001001MA1999999095841MD1999999+0011REMSYN070AAXX  26184 83288 32598 23602 10324 20225 39584 40006 82200 333 58001;EQDQ01  00002PRCP06
0185832880999992005032700004-13270-043420FM-12+0440SBLP V0200901N000512200019N0020001N1+02631+02321100931ADDAA106000091GF101991011011008001001001MA1999999096081MD1999999+0161REMSYN088AAXX  27004 83288 32595 10901 10263 20232 39608 40093 81100 333 10329 29071 55108 58016;EQDQ01  00002PRCP06
0173832880999992005032712004-13270-043420FM-12+0440SBLP V0200501N000511050019N0200001N1+02521+02231101011ADDAA106000091GF105991031011008001001021MA1999999096141MD1999999-0151REMSYN076AAXX  27124 83288 32598 50501 10252 20223 39614 40101 83102 333 20220 59015;EQDQ01  00002PRCP06
0167832880999992005032718004-13270-043420FM-12+0440SBLP V0203201N001511050019N0200001N1+02921+02171100821ADDAA106000091GF106991041021008001001021MA1999999095731MD1999999-0111REMSYN070AAXX  27184 83288 32598 63203 10292 20217 39573 40082 84202 333 59011;EQDQ01  00002PRCP06
0185832880999992005032800004-13270-043420FM-12+0440SBLP V0201801N001511050019N0020001N1+02551+02251100881ADDAA106000091GF105991041051008001001021MA1999999096031MD1999999-0051REMSYN088AAXX  28004 83288 32595 51803 10255 20225 39603 40088 84502 333 10312 29077 55076 59005;EQDQ01  00002PRCP06
0173832880999992005032812004-13270-043420FM-12+0440SBLP V0200901N001012200019N0200001N1+02731+01851101111ADDAA106000091GF101991011011008001001001MA1999999096251MD1999999+0111REMSYN076AAXX  28124 83288 32598 10902 10273 20185 39625 40111 81100 333 20214 58011;EQDQ01  00002PRCP06
0167832880999992005032818004-13270-043420FM-12+0440SBLP V0200501N002110450019N0200001N1+02511+02251100731ADDAA106000091GF108991041081008001021999MA1999999095851MD1999999+0121REMSYN070AAXX  28184 83288 32598 80504 10251 20225 39585 40073 8482/ 333 58012;EQDQ01  00002PRCP06
0198832880999992005032900004-13267-043417FM-12+0458SBLP V0203601N002112200019N0020001N1+02311+02151101011ADDAA106000091GF102991011021008001001011KA1240M+03131MA1999999096131MD1999999+0101REMSYN088AAXX  29004 83288 32595 23604 10231 20215 39613 40101 81201 333 10313 29081 55075 58010;EQDQ01  00002PRCP06
0190832880999992005032912004-13267-043417FM-12+0458SBLP V0200901N000510075019N0040001N1+02191+02141101571ADDAY161061AY261061GF108991051071008001011999KA1240N+02001MA1999999096611MD1999999+0361MW1631REMSYN088AAXX  29124 83288 21596 80901 10219 20214 39661 40157 76366 8571/ 333 20200 58036 60134;
0171832880999992005032918004-13267-043417FM-12+0458SBLP V0200901N000512200019N0200001N1+02771+02331100961ADDAY161061AY261061GF104991041021008001001001MA1999999096071MD1999999+0221MW1021REMSYN082AAXX  29184 83288 21598 40901 10277 20233 39607 40096 70266 84200 333 58022 60011;
0198832880999992005033000004-13267-043417FM-12+0458SBLP V0200901N001012200019N0020001N1+02331+02251101221ADDAA106000091GF102991021021008001001001KA1240M+02891MA1999999096271MD1999999+0141REMSYN088AAXX  30004 83288 32595 20902 10233 20225 39627 40122 82200 333 10289 29090 55050 58014;EQDQ01  00002PRCP06
0162832880999992005033012004-13267-043417FM-12+0458SBLP V0201401N001012200019N0200001N1+02641+02251101291ADDGF101991011011008001001001KA1240N+02041MA1999999096391MD1999999+0221REMSYN082AAXX  30124 83288 22598 11402 10264 20225 39639 40129 81100 333 20204 58022 60014;
0167832880999992005033018004-13267-043417FM-12+0458SBLP V0200501N002112200019N0200001N1+02811+02251100911ADDAA106000091GF104991031021008001001021MA1999999096031MD1999999-0041REMSYN070AAXX  30184 83288 32598 40504 10281 20225 39603 40091 83202 333 59004;EQDQ01  00002PRCP06
0208832880999992005033100004-13267-043417FM-12+0458SBLP V0201801N000512200019N0020001N1+02571+02151101051ADDAA106000091GA1001+999999999GF100991001001999999001001KA1240M+03071MA1999999096181MD1999999-0091REMSYN082AAXX  31004 83288 32995 01801 10257 20215 39618 40105 333 10307 29077 55099 59009;EQDQ01  00002PRCP06
0186832880999992005033112004-13267-043417FM-12+0458SBLP V0200901N000512200019N0200001N1+02651+02141101121ADDAA106000091GF103991021011008001001021KA1240N+02031MA1999999096381MD1999999-0011REMSYN076AAXX  31124 83288 32598 30901 10265 20214 39638 40112 82102 333 20203 59001;EQDQ01  00002PRCP06
0167832880999992005033118004-13267-043417FM-12+0458SBLP V0201801N001011050019N0200001N1+02821+02241100891ADDAA106000091GF105991031081008001001021MA1999999095941MD1999999-0091REMSYN070AAXX  31184 83288 32598 51802 10282 20224 39594 40089 83802 333 59009;EQDQ01  00002PRCP06
0208832880999992005040100004-13267-043417FM-12+0458SBLP V0201801N000512200019N0020001N1+02651+02181100771ADDAA106000091GA1001+999999999GF100991001001999999001001KA1240M+03041MA1999999096051MD1999999-0131REMSYN082AAXX  01004 83288 32995 01801 10265 20218 39605 40077 333 10304 29074 55088 59013;EQDQ01  00002PRCP06
0186832880999992005040112004-13267-043417FM-12+0458SBLP V0201801N001012200019N0200001N1+02691+02291101311ADDAA106000091GF102991021011008001001001KA1240N+02061MA1999999096451MD1999999+0071REMSYN076AAXX  01124 83288 32598 21802 10269 20229 39645 40131 82100 333 20206 58007;EQDQ01  00002PRCP06
0167832880999992005040118004-13267-043417FM-12+0458SBLP V0200901N001512200019N0200001N1+02911+02441100981ADDAA106000091GF104991031021008001031001MA1999999096121MD1999999+0181REMSYN070AAXX  01184 83288 32598 40903 10291 20244 39612 40098 83230 333 58018;EQDQ01  00002PRCP06
0198832880999992005040200004-13267-043417FM-12+0458SBLP V0209999C000012200019N0020001N1+02631+02431101131ADDAA106000091GF102991021021008001001001KA1240M+03071MA1999999096271MD1999999+0221REMSYN088AAXX  02004 83288 32595 20000 10263 20243 39627 40113 82200 333 10307 29081 55100 58022;EQDQ01  00002PRCP06
0196832880999992005040212004-13267-043417FM-12+0458SBLP V0201401N000512200019N0200001N1+02651+02001101391ADDAA106000091GA1001+999999999GF100991001001999999001001KA1240N+02041MA1999999096521MD1999999+0071REMSYN070AAXX  02124 83288 32998 01401 10265 20200 39652 40139 333 20204 58007;EQDQ01  00002PRCP06
0167832880999992005040218004-13267-043417FM-12+0458SBLP V0200901N000512200019N0200001N1+03031+02211101031ADDAA106000091GF104991041021008001001001MA1999999096171MD1999999+0051REMSYN070AAXX  02184 83288 32598 40901 10303 20221 39617 40103 84200 333 58005;EQDQ01  00002PRCP06
0179832880999992005040300004-13270-043420FM-12+0440SBLP V0201401N000512200019N0020001N1+02551+02061101161ADDAA106000091GF100991001001999999001001MA1999999096291MD1999999+0021REMSYN082AAXX  03004 83288 32995 01401 10255 20206 39629 40116 333 10312 29069 55105 58002;EQDQ01  00002PRCP06
0167832880999992005040312004-13270-043420FM-12+0440SBLP V0201801N000512200019N0200001N1+02571+02021101361ADDAA106000091GF100991001001999999001001MA1999999096471MD1999999-0051REMSYN070AAXX  03124 83288 32998 01801 10257 20202 39647 40136 333 20206 59005;EQDQ01  00002PRCP06
0167832880999992005040318004-13270-043420FM-12+0440SBLP V0201801N000512200019N0200001N1+03041+01971100991ADDAA106000091GF104991021021008001001021MA1999999096151MD1999999-0021REMSYN070AAXX  03184 83288 32598 41801 10304 20197 39615 40099 82202 333 59002;EQDQ01  00002PRCP06
0208832880999992005040400004-13267-043417FM-12+0458SBLP V0200901N000512200019N0020001N1+02551+02151100851ADDAA106000091GA1001+999999999GF100991001001999999001001KA1240M+03181MA1999999096031MD1999999-0261REMSYN082AAXX  04004 83288 32995 00901 10255 20215 39603 40085 333 10318 29079 55098 59026;EQDQ01  00002PRCP06
0190832880999992005040412004-13267-043417FM-12+0458SBLP V0201801N000512200019N0200001N1+02631+02281101541ADDAY161061AY261061GF101991011011008001001001KA1240N+02121MA1999999096651MD1999999+0181MW1011REMSYN088AAXX  04124 83288 21598 11801 10263 20228 39665 40154 70166 81100 333 20212 58018 60104;
0167832880999992005040418004-13267-043417FM-12+0458SBLP V0201801N001012200019N0200001N1+03111+02521101031ADDAA106000091GF104991031021008001001051MA1999999096181MD1999999+0031REMSYN070AAXX  04184 83288 32598 41802 10311 20252 39618 40103 83205 333 58003;EQDQ01  00002PRCP06
0208832880999992005040500004-13267-043417FM-12+0458SBLP V0203601N000512200019N0020001N1+02531+02371101201ADDAA106000091GA1001+999999999GF100991001001999999001001KA1240M+03151MA1999999096331MD1999999+0301REMSYN082AAXX  05004 83288 32995 03601 10253 20237 39633 40120 333 10315 29082 55101 58030;EQDQ01  00002PRCP06
0186832880999992005040512004-13267-043417FM-12+0458SBLP V0201401N000512200019N0200001N1+02611+02191101421ADDAA106000091GF101991001001999999001011KA1240N+01981MA1999999096531MD1999999-0121REMSYN076AAXX  05124 83288 32998 11401 10261 20219 39653 40142 80001 333 20198 59012;EQDQ01  00002PRCP06
0167832880999992005040518004-13267-043417FM-12+0458SBLP V0200901N001512200019N0200001N1+03131+02161101091ADDAA106000091GF104991021021008001001051MA1999999096221MD1999999+0041REMSYN070AAXX  05184 83288 32598 40903 10313 20216 39622 40109 82205 333 58004;EQDQ01  00002PRCP06
0208832880999992005040600004-13267-043417FM-12+0458SBLP V0200901N001012200019N0020001N1+02491+02031101261ADDAA106000091GA1001+999999999GF100991001001999999001001KA1240M+03191MA1999999096371MD1999999+0041REMSYN082AAXX  06004 83288 32995 00902 10249 20203 39637 40126 333 10319 29072 55104 58004;EQDQ01  00002PRCP06
0202832880999992005040612004-13267-043417FM-12+0458SBLP V0201401N002612200019N0200001N1+02521+01961101631ADDAA106000091GF102991999011008001001021KA1240N+02111MA1999999096721MD1999999+0191REMSYN076AAXX  06124 83288 32598 21405 10252 20196 39672 40163 83102 333 20211 58019;EQDQ01+000032SCOTLCQ02  00002PRCP06
0167832880999992005040618004-13267-043417FM-12+0458SBLP V0201801N001512200019N0200001N1+03071+02281101391ADDAA106000091GF103991021011008001001021MA1999999096251MD1999999+0031REMSYN070AAXX  06184 83288 32598 31803 10307 20228 39625 40139 82102 333 58003;EQDQ01  00002PRCP06
0198832880999992005040700004-13267-043417FM-12+0458SBLP V0201801N001510450019N0020001N1+02631+02161101191ADDAA106000091GF105991031081008001021001KA1240M+03151MA1999999096311MD1999999+0061REMSYN088AAXX  07004 83288 32595 51803 10263 20216 39631 40119 83820 333 10315 29067 55088 58006;EQDQ01  00002PRCP06
0186832880999992005040712004-13267-043417FM-12+0458SBLP V0201401N001512200019N0200001N1+02631+02191101371ADDAA106000091GF103991031011008001001001KA1240N+02041MA1999999096491MD1999999-0231REMSYN076AAXX  07124 83288 32598 31403 10263 20219 39649 40137 83100 333 20204 59023;EQDQ01  00002PRCP06
0167832880999992005040718004-13267-043417FM-12+0458SBLP V0201401N001512200019N0200001N1+02991+02241101001ADDAA106000091GF104991041021008001001001MA1999999096151MD1999999-0101REMSYN070AAXX  07184 83288 32598 41403 10299 20224 39615 40100 84200 333 59010;EQDQ01  00002PRCP06
0208832880999992005040800004-13267-043417FM-12+0458SBLP V0203601N001012200019N0020001N1+02391+02141101251ADDAA106000091GA1001+999999999GF100991001001999999001001KA1240M+03091MA1999999096351MD1999999+0041REMSYN082AAXX  08004 83288 32995 03602 10239 20214 39635 40125 333 10309 29076 55086 58004;EQDQ01  00002PRCP06
0196832880999992005040812004-13267-043417FM-12+0458SBLP V0201401N000512200019N0200001N1+02531+02091101431ADDAA106000091GA1001+999999999GF100991001001999999001001KA1240N+01921MA1999999096551MD1999999+0061REMSYN070AAXX  08124 83288 32998 01401 10253 20209 39655 40143 333 20192 58006;EQDQ01  00002PRCP06
0167832880999992005040818004-13267-043417FM-12+0458SBLP V0201401N001512200019N0200001N1+03171+01941101011ADDAA106000091GF102991021011008001001001MA1999999096151MD1999999+0001REMSYN070AAXX  08184 83288 32598 21403 10317 20194 39615 40101 82100 333 58000;EQDQ01  00002PRCP06
0208832880999992005040900004-13267-043417FM-12+0458SBLP V0201401N001012200019N0020001N1+02371+01631101151ADDAA106000091GA1001+999999999GF100991001001999999001001KA1240M+03211MA1999999096251MD1999999-0101REMSYN082AAXX  09004 83288 32995 01402 10237 20163 39625 40115 333 10321 29063 55108 59010;EQDQ01  00002PRCP06
0196832880999992005040912004-13267-043417FM-12+0458SBLP V0201401N001512200019N0200001N1+02481+01901101501ADDAA106000091GA1001+999999999GF100991001001999999001001KA1240N+02231MA1999999096571MD1999999+0021REMSYN070AAXX  09124 83288 32998 01403 10248 20190 39657 40150 333 20223 58002;EQDQ01  00002PRCP06
0167832880999992005040918004-13267-043417FM-12+0458SBLP V0201801N001010450019N0200001N1+03051+01911100981ADDAA106000091GF105991041021008001021001MA1999999096121MD1999999-0031REMSYN070AAXX  09184 83288 32598 51802 10305 20191 39612 40098 84220 333 59003;EQDQ01  00002PRCP06
0208832880999992005041000004-13267-043417FM-12+0458SBLP V0200901N000512200019N0020001N1+02491+01831101141ADDAA106000091GA1001+999999999GF100991001001999999001001KA1240M+03181MA1999999096251MD1999999+0001REMSYN082AAXX  10004 83288 32595 00901 10249 20183 39625 40114 333 10318 29063 55102 58000;EQDQ01  00002PRCP06
0212832880999992005041012004-13267-043417FM-12+0458SBLP V0201801N001512200019N0200001N1+02481+01851101381ADDAA106000091GA1001+999999999GF100991001001999999001001KA1240N+02101MA1999999999999MD1999999-0091REMSYN070AAXX  10124 83288 32998 01803 10248 20185 39948 40138 333 20210 59009;EQDQ01  00002PRCP06Q02 099483APOSP 
0183832880999992005041018004-13267-043417FM-12+0458SBLP V0200901N001512200019N0200001N1+03111+02181101011ADDAA106000091GF104991041021008001001001MA1999999096142MD1999999+0021REMSYN070AAXX  10184 83288 32598 40903 10311 20218 39614 40101 84200 333 58002;EQDQ01+096143APOSP Q02  00002PRCP06
0208832880999992005041100004-13267-043417FM-12+0458SBLP V0201801N001012200019N0020001N1+02491+02021101101ADDAA106000091GA1001+999999999GF100991001001999999001001KA1240M+03151MA1999999096211MD1999999-0041REMSYN082AAXX  11004 83288 32995 01802 10249 20202 39621 40110 333 10315 29067 55108 59004;EQDQ01  00002PRCP06
0196832880999992005041112004-13267-043417FM-12+0458SBLP V0201401N001512200019N0200001N1+02531+02021101351ADDAA106000091GA1001+999999999GF100991001001999999001001KA1240N+02201MA1999999096451MD1999999-0031REMSYN070AAXX  11124 83288 32998 01403 10253 20202 39645 40135 333 20220 59003;EQDQ01  00002PRCP06
0167832880999992005041118004-13267-043417FM-12+0458SBLP V0200901N002110120019N0200001N1+03111+02051100881ADDAA106000091GF105991051081008001001001MA1999999096021MD1999999-0121REMSYN070AAXX  11184 83288 32598 50904 10311 20205 39602 40088 85800 333 59012;EQDQ01  00002PRCP06
0208832880999992005041200004-13267-043417FM-12+0458SBLP V0201401N001012200019N0020001N1+02461+01901101101ADDAA106000091GA1001+999999999GF100991001001999999001001KA1240M+03191MA1999999096211MD1999999+0001REMSYN082AAXX  12004 83288 32995 01402 10246 20190 39621 40110 333 10319 29067 55101 58000;EQDQ01  00002PRCP06
0186832880999992005041212004-13267-043417FM-12+0458SBLP V0201801N000512200019N0200001N1+02401+01991101591ADDAA106000091GF102991011011008001031001KA1240N+02231MA1999999096671MD1999999-0221REMSYN076AAXX  12124 83288 32598 21801 10240 20199 39667 40159 81130 333 20223 59022;EQDQ01  00002PRCP06
0167832880999992005041218004-13267-043417FM-12+0458SBLP V0201401N001011050019N0200001N1+02951+01821101221ADDAA106000091GF105991031011008001001021MA1999999096341MD1999999+0321REMSYN070AAXX  12184 83288 32598 51402 10295 20182 39634 40122 83102 333 58032;EQDQ01  00002PRCP06
0208832880999992005041300004-13267-043417FM-12+0458SBLP V0201801N001012200019N0020001N1+02531+01961101181ADDAA106000091GA1001+999999999GF100991001001999999001001KA1240M+03081MA1999999096281MD1999999+0071REMSYN082AAXX  13004 83288 32995 01802 10253 20196 39628 40118 333 10308 29067 55069 58007;EQDQ01  00002PRCP06
0186832880999992005041312004-13267-043417FM-12+0458SBLP V0201801N001512200019N0200001N1+02591+02131101361ADDAA106000091GF102991021011008001001001KA1240N+02301MA1999999096471MD1999999-0201REMSYN076AAXX  13124 83288 32598 21803 10259 20213 39647 40136 82100 333 20230 59020;EQDQ01  00002PRCP06
0167832880999992005041318004-13267-043417FM-12+0458SBLP V0201401N001512200019N0200001N1+03031+02021101101ADDAA106000091GF103991031021008001001001MA1999999096221MD1999999-0121REMSYN070AAXX  13184 83288 32598 31403 10303 20202 39622 40110 83200 333 59012;EQDQ01  00002PRCP06
0208832880999992005041400004-13267-043417FM-12+0458SBLP V0201401N002112200019N0020001N1+02431+01981101141ADDAA106000091GA1001+999999999GF100991001001999999001001KA1240M+03111MA1999999096251MD1999999-0031REMSYN082AAXX  14004 83288 32995 01404 10243 20198 39625 40114 333 10311 29069 55106 59003;EQDQ01  00002PRCP06
0186832880999992005041412004-13267-043417FM-12+0458SBLP V0201401N000512200019N0200001N1+02591+01971101381ADDAA106000091GF101991011011008001001001KA1240N+02221MA1999999096481MD1999999+0011REMSYN076AAXX  14124 83288 32598 11401 10259 20197 39648 40138 81100 333 20222 58001;EQDQ01  00002PRCP06
0167832880999992005041418004-13267-043417FM-12+0458SBLP V0201401N002110450019N0200001N1+03111+02031100901ADDAA106000091GF105991041021008001031001MA1999999096031MD1999999-0191REMSYN070AAXX  14184 83288 32598 51404 10311 20203 39603 40090 84230 333 59019;EQDQ01  00002PRCP06
0198832880999992005041500004-13267-043417FM-12+0458SBLP V0201401N001512200019N0020001N1+02611+01981101071ADDAA106000091GF104991011011008001031001KA1240M+03191MA1999999096201MD1999999-0051REMSYN088AAXX  15004 83288 32595 41403 10261 20198 39620 40107 81130 333 10319 29065 55088 59005;EQDQ01  00002PRCP06
0196832880999992005041512004-13267-043417FM-12+0458SBLP V0200901N001012200019N0200001N1+02591+01851101361ADDAA106000091GA1001+999999999GF100991001001999999001001KA1240N+02221MA1999999096481MD1999999+0001REMSYN070AAXX  15124 83288 32998 00902 10259 20185 39648 40136 333 20222 58000;EQDQ01  00002PRCP06
0167832880999992005041518004-13267-043417FM-12+0458SBLP V0201801N001010450019N0200001N1+03171+01821101081ADDAA106000091GF106991041081008001031021MA1999999096221MD1999999+0191REMSYN070AAXX  15184 83288 32598 61802 10317 20182 39622 40108 84832 333 58019;EQDQ01  00002PRCP06
0198832880999992005041600004-13267-043417FM-12+0458SBLP V0201401N001012200019N0020001N1+02571+01971101041ADDAA106000091GF103991011011008001031021KA1240M+03271MA1999999096241MD1999999+0041REMSYN088AAXX  16004 83288 32595 31402 10257 20197 39624 40104 81132 333 10327 29060 55098 58004;EQDQ01  00002PRCP06
0186832880999992005041612004-13267-043417FM-12+0458SBLP V0201801N001012200019N0200001N1+02591+02131101341ADDAA106000091GF101991011011008001001001KA1240N+02221MA1999999096461MD1999999-0021REMSYN076AAXX  16124 83288 32598 11802 10259 20213 39646 40134 81100 333 20222 59002;EQDQ01  00002PRCP06
0167832880999992005041618004-13267-043417FM-12+0458SBLP V0202301N001012200019N0200001N1+03211+02281100891ADDAA106000091GF104991041021008001001001MA1999999096041MD1999999-0181REMSYN070AAXX  16184 83288 32598 42302 10321 20228 39604 40089 84200 333 59018;EQDQ01  00002PRCP06
0185832880999992005041700004-13270-043420FM-12+0440SBLP V0200901N001012200019N0020001N1+02511+02221101131ADDAA106000091GF102991011011008001041001MA1999999096251MD1999999+0011REMSYN088AAXX  17004 83288 32595 20902 10251 20222 39625 40113 81140 333 10331 29073 55107 58001;EQDQ01  00002PRCP06
0173832880999992005041712004-13270-043420FM-12+0440SBLP V0200901N001512200019N0200001N1+02771+02131101341ADDAA106000091GF102991001001999999001011MA1999999096471MD1999999+0011REMSYN076AAXX  17124 83288 32998 20903 10277 20213 39647 40134 80001 333 20214 58001;EQDQ01  00002PRCP06
0167832880999992005041718004-13270-043420FM-12+0440SBLP V0200501N001012200019N0200001N1+03281+02011100851ADDAA106000091GF104991031021008001001011MA1999999096021MD1999999-0021REMSYN070AAXX  17184 83288 32598 40502 10328 20201 39602 40085 83201 333 59002;EQDQ01  00002PRCP06
0198832880999992005041800004-13267-043417FM-12+0458SBLP V0201801N001510120019N0020001N1+02671+02021101071ADDAA106000091GF105991051081008001001001KA1240M+03371MA1999999096221MD1999999-0031REMSYN088AAXX  18004 83288 32595 51803 10267 20202 39622 40107 85800 333 10337 29064 55098 59003;EQDQ01  00002PRCP06
0186832880999992005041812004-13267-043417FM-12+0458SBLP V0200901N000510450019N0200001N1+02671+02141101141ADDAA106000091GF106991041011008001021021KA1240N+02301MA1999999096281MD1999999-0191REMSYN076AAXX  18124 83288 32598 60901 10267 20214 39628 40114 84122 333 20230 59019;EQDQ01  00002PRCP06
0167832880999992005041818004-13267-043417FM-12+0458SBLP V0201801N001010075019N0200001N1+03051+02121100851ADDAA106000091GF105991051021008001021021MA1999999096011MD1999999-0011REMSYN070AAXX  18184 83288 32598 51802 10305 20212 39601 40085 85222 333 59001;EQDQ01  00002PRCP06
0214832880999992005041900004-13267-043417FM-12+0458SBLP V0200901N001012200019N0020001N1+02551+01981101011ADDAA106000091GF103991999011008001001001KA1240M+03141MA1999999096151MD1999999-0071REMSYN088AAXX  19004 83288 32595 30902 10255 20198 39615 40101 82100 333 10314 29083 55033 59007;EQDQ01+000022SCOTLCQ02  00002PRCP06
0186832880999992005041912004-13267-043417FM-12+0458SBLP V0200901N000511050019N0200001N1+02551+02101101311ADDAA106000091GF105991021011008001031021KA1240N+02321MA1999999096421MD1999999+0141REMSYN076AAXX  19124 83288 32598 50901 10255 20210 39642 40131 82132 333 20232 58014;EQDQ01  00002PRCP06
0167832880999992005041918004-13267-043417FM-12+0458SBLP V0200901N001012200019N0200001N1+03131+02031100871ADDAA106000091GF105991031021008001001081MA1999999096021MD1999999+0011REMSYN070AAXX  19184 83288 32598 50902 10313 20203 39602 40087 83208 333 58001;EQDQ01  00002PRCP06
0198832880999992005042000004-13267-043417FM-12+0458SBLP V0200901N000510450019N0020001N1+02511+02081101111ADDAA106000091GF106991031081008001031021KA1240M+03231MA1999999096221MD1999999+0071REMSYN088AAXX  20004 83288 32595 60901 10251 20208 39622 40111 83832 333 10323 29069 55076 58007;EQDQ01  00002PRCP06
0186832880999992005042012004-13267-043417FM-12+0458SBLP V0201801N000512200019N0200001N1+02551+02001101371ADDAA106000091GF103991001001999999001021KA1240N+02121MA1999999096481MD1999999+0061REMSYN076AAXX  20124 83288 32998 31801 10255 20200 39648 40137 80002 333 20212 58006;EQDQ01  00002PRCP06
0167832880999992005042018004-13267-043417FM-12+0458SBLP V0200501N001012200019N0200001N1+03281+02011100851ADDAA106000091GF104991031021008001001011MA1999999096021MD1999999-0021REMSYN070AAXX  20184 83288 32598 40502 10328 20201 39602 40085 83201 333 59002;EQDQ01  00002PRCP06
0198832880999992005042100004-13267-043417FM-12+0458SBLP V0209999C000010450019N0020001N1+02711+02051101061ADDAA106000091GF107991031081008001031021KA1240M+03211MA1999999096201MD1999999-0021REMSYN088AAXX  21004 83288 32595 70000 10271 20205 39620 40106 83832 333 10321 29065 55085 59002;EQDQ01  00002PRCP06
0186832880999992005042112004-13267-043417FM-12+0458SBLP V0200901N001011050019N0200001N1+02671+01971101241ADDAA106000091GF106991041011008001001021KA1240N+02061MA1999999096381MD1999999-0101REMSYN076AAXX  21124 83288 32598 60902 10267 20197 39638 40124 84102 333 20206 59010;EQDQ01  00002PRCP06
0183832880999992005042118004-13267-043417FM-12+0458SBLP V0200901N001019999999N0200001N1+03261+01941100821ADDAA106000091GF105991999051008001011021MA1999999096901MD1999999+0101REMSYN070AAXX  21184 83288 32598 50902 10326 20194 39690 40082 80512 333 58010;EQDQ01+000002SCOTLCQ02  00002PRCP06
0214832880999992005042200004-13267-043417FM-12+0458SBLP V0201801N000512200019N0020001N1+02741+02051100891ADDAA106000091GF103991999011008001001001KA1240M+03341MA1999999096051MD1999999-0151REMSYN088AAXX  22004 83288 32595 31801 10274 20205 39605 40089 82100 333 10334 29059 55091 59015;EQDQ01+000022SCOTLCQ02  00002PRCP06
0186832880999992005042212004-13267-043417FM-12+0458SBLP V0201401N001512200019N0200001N1+02631+02041101161ADDAA106000091GF104991001001999999001041KA1240N+01961MA1999999096311MD1999999-0071REMSYN076AAXX  22124 83288 32998 41403 10263 20204 39631 40116 80004 333 20196 59007;EQDQ01  00002PRCP06
0167832880999992005042218004-13267-043417FM-12+0458SBLP V0202301N001012200019N0200001N1+03321+02291100661ADDAA106000091GF104991021021008001001051MA1999999095841MD1999999-0191REMSYN070AAXX  22184 83288 32598 42302 10332 20229 39584 40066 82205 333 59019;EQDQ01  00002PRCP06
0198832880999992005042300004-13267-043417FM-12+0458SBLP V0200901N000512200019N0200001N1+02771+02281100891ADDAA106000091GF103991031011008001001001KA1240M+03371MA1999999096051MD1999999+0001REMSYN088AAXX  23004 83288 32598 30901 10277 20228 39605 40089 83100 333 10337 29066 55107 58000;EQDQ01  00002PRCP06
0186832880999992005042312004-13267-043417FM-12+0458SBLP V0201401N001512200019N0200001N1+02771+02071101131ADDAA106000091GF102991001001999999001041KA1240N+02221MA1999999096291MD1999999-0021REMSYN076AAXX  23124 83288 32998 21403 10277 20207 39629 40113 80004 333 20222 59002;EQDQ01  00002PRCP06
0167832880999992005042318004-13267-043417FM-12+0458SBLP V0202301N002112200019N0200001N1+03301+01981100691ADDAA106000091GF102991011021008001001011MA1999999095891MD1999999+0051REMSYN070AAXX  23184 83288 32598 22304 10330 20198 39589 40069 81201 333 58005;EQDQ01  00002PRCP06
0185832880999992005042400004-13270-043420FM-12+0440SBLP V0209999C000012200019N0020001N1+02791+02031100841ADDAA106000091GF104991011021008001031021MA1999999096021MD1999999-0031REMSYN088AAXX  24004 83288 32595 40000 10279 20203 39602 40084 81232 333 10337 29059 55104 59003;EQDQ01  00002PRCP06
0167832880999992005042412004-13270-043420FM-12+0440SBLP V0200901N000512200019N0200001N1+02771+01941101251ADDAA106000091GF100991001001999999001001MA1999999096321MD1999999+0031REMSYN070AAXX  24124 83288 32998 00901 10277 20194 39632 40125 333 20216 58003;EQDQ01  00002PRCP06
0167832880999992005042418004-13270-043420FM-12+0440SBLP V0201801N001011050019N0200001N1+03271+01981100711ADDAA106000091GF105991031021008001001021MA1999999095831MD1999999-0061REMSYN070AAXX  24184 83288 32598 51802 10327 20198 39583 40071 83202 333 59006;EQDQ01  00002PRCP06
0198832880999992005042500004-13267-043417FM-12+0458SBLP V0201401N001012200019N0020001N1+02631+01861100861ADDAA106000091GF102991021011008001001021KA1240M+03271MA1999999096021MD1999999+0001REMSYN088AAXX  25004 83288 32595 21402 10263 20186 39602 40086 82102 333 10327 29057 55107 58000;EQDQ01  00002PRCP06
0186832880999992005042512004-13267-043417FM-12+0458SBLP V0201801N000512200019N0200001N1+02631+02151101271ADDAA106000091GF103991011011008001001041KA1240N+02041MA1999999096391MD1999999+0071REMSYN076AAXX  25124 83288 32598 31801 10263 20215 39639 40127 81104 333 20204 58007;EQDQ01  00002PRCP06
0167832880999992005042518004-13267-043417FM-12+0458SBLP V0201801N001012200019N0200001N1+03211+02221100751ADDAA106000091GF105991031021008001001041MA1999999095921MD1999999+0091REMSYN070AAXX  25184 83288 32598 51802 10321 20222 39592 40075 83204 333 58009;EQDQ01  00002PRCP06
0198832880999992005042600004-13267-043417FM-12+0458SBLP V0209999C000012200019N0020001N1+02731+02011100961ADDAA106000091GF104991021011008001001071KA1240M+03291MA1999999096121MD1999999+0101REMSYN088AAXX  26004 83288 32595 40000 10273 20201 39612 40096 82107 333 10329 29065 55093 58010;EQDQ01  00002PRCP06
0186832880999992005042612004-13267-043417FM-12+0458SBLP V0203201N002612200019N0200001N1+02751+02161101161ADDAA106000091GF102991011011008001011001KA1240N+02121MA1999999096321MD1999999-0071REMSYN076AAXX  26124 83288 32598 23205 10275 20216 39632 40116 81110 333 20212 59007;EQDQ01  00002PRCP06
0167832880999992005042618004-13267-043417FM-12+0458SBLP V0202301N000512200019N0200001N1+03321+02071100691ADDAA106000091GF104991031021008001001021MA1999999095871MD1999999-0051REMSYN070AAXX  26184 83288 32598 42301 10332 20207 39587 40069 83202 333 59005;EQDQ01  00002PRCP06
0198832880999992005042700004-13267-043417FM-12+0458SBLP V0203201N001510120019N0200001N1+02711+02061101051ADDAA106000091GF108991051081008001021999KA1240M+03471MA1999999096211MD1999999-0091REMSYN088AAXX  27004 83288 32598 83203 10271 20206 39621 40105 8582/ 333 10347 29064 55099 59009;EQDQ01  00002PRCP06
0186832880999992005042712004-13267-043417FM-12+0458SBLP V0202301N001010450019N0200001N1+02631+01951101221ADDAA106000091GF106991041011008001021021KA1240N+02211MA1999999096351MD1999999+0031REMSYN076AAXX  27124 83288 32598 62302 10263 20195 39635 40122 84122 333 20221 58003;EQDQ01  00002PRCP06
0167832880999992005042718004-13267-043417FM-12+0458SBLP V0200901N001511050019N0200001N1+03171+02261100791ADDAA106000091GF105991031021008001001021MA1999999095791MD1999999-0081REMSYN070AAXX  27184 83288 32598 50903 10317 20226 39579 40079 83202 333 59008;EQDQ01  00002PRCP06
0202832880999992005042800004-13267-043417FM-12+0458SBLP V0201801N001510075019N0020001N1+02401+02231100931ADDAY101061AY251061GF108991061051008001021999KA1240M+03271MA1999999096141MD1999999-0071MW1521REMSYN100AAXX  28004 83288 21595 81803 10240 20223 39614 40093 75205 8652/ 333 10327 29076 55037 59007 69961;
0162832880999992005042812004-13267-043417FM-12+0458SBLP V0201801N001010450019N0200001N1+02491+02161101421ADDGF106991041081008001031001KA1240N+02121MA1999999096511MD1999999+0161REMSYN082AAXX  28124 83288 22598 61802 10249 20216 39651 40142 84830 333 20212 58016 69964;
0167832880999992005042818004-13267-043417FM-12+0458SBLP V0200901N001010450019N0200001N1+02991+02361100941ADDAA106000091GF106991031021008001041021MA1999999096081MD1999999+0291REMSYN070AAXX  28184 83288 32598 60902 10299 20236 39608 40094 83242 333 58029;EQDQ01  00002PRCP06
0202832880999992005042900004-13267-043417FM-12+0458SBLP V0202701N001510450019N0020001N1+02291+02241101371ADDAY161061AY291061GF108991041071008001021999KA1240M+03071MA1999999096451MD1999999+0311MW1611REMSYN100AAXX  29004 83288 21595 82703 10229 20224 39645 40137 76169 8472/ 333 10307 29083 55024 58031 60261;
0190832880999992005042912004-13267-043417FM-12+0458SBLP V0201401N001011050019N0200001N1+02571+02171101501ADDAY161061AY251061GF105991011041008001031081KA1240N+02101MA1999999096581MD1999999+0071MW1031REMSYN088AAXX  29124 83288 21598 51402 10257 20217 39658 40150 70365 81438 333 20210 58007 60284;
0171832880999992005042918004-13267-043417FM-12+0458SBLP V0202301N001010450019N0200001N1+02511+02231101211ADDAY151061AY251061GF107991041081008001021021MA1999999096271MD1999999-0191MW1031REMSYN082AAXX  29184 83288 21598 72302 10251 20223 39627 40121 70355 84822 333 59019 69941;
0198832880999992005043000004-13267-043417FM-12+0458SBLP V0201401N000510120019N0020001N1+02391+02241101401ADDAA106000091GF108991051081008001021999KA1240M+02951MA1999999096501MD1999999+0051REMSYN088AAXX  30004 83288 32595 81401 10239 20224 39650 40140 8582/ 333 10295 29087 55021 58005;EQDQ01  00002PRCP06
