0098825860999992014010100004-05200-039300FM-12+021299999V0203601N0067122000199001000199+02791+02251101181ADDAA101999990AZ101061AZ201061GF100991999999999999999999MA1999990098591MD1909990-0091REMSYN004BUFR
0149825860999992014010112004-05200-039300FM-12+021299999V0200501N0051100800199020000199+02721+02191101421ADDAA101999990AZ101061AZ201061GA1061+008001081GE19MSL   +99999+99999GF106991061990008001991991KA1120N+02301MA1999990098761MD1909990+0021REMSYN004BUFR
0136825860999992014010118004-05200-039300FM-12+021299999V0200501N0031199999999020000199+03391+02271101031ADDAA101999990AZ101061AZ201061GA1041+008001081GE19MSL   +99999+99999GF104991041990008001991991MA1999990098381MD1909990-0091REMSYN004BUFR
0098825860999992014010200004-05200-039300FM-12+021299999V0203601N0051122000199001000199+02791+02361101151ADDAA101999990AZ101061AZ201061GF100991999999999999999999MA1999990098491MD1909990-0041REMSYN004BUFR
0149825860999992014010212004-05200-039300FM-12+021299999V0200901N0036100800199020000199+02751+02231101311ADDAA101999990AZ101061AZ201061GA1051+008001081GE19MSL   +99999+99999GF105991051990008001991991KA1120N+02201MA1999990098651MD1909990-0111REMSYN004BUFR
0136825860999992014010218004-05200-039300FM-12+021299999V0200501N0026100800199020000199+03391+02271100971ADDAA101999990AZ101061AZ201061GA1051+008001081GE19MSL   +99999+99999GF105991051990008001991991MA1999990098331MD1909990-0051REMSYN004BUFR
0098825860999992014010300004-05200-039300FM-12+021299999V0203601N0051122000199001000199+02601+02271101091ADDAA101999990AZ101061AZ201061GF100991999999999999999999MA1999990098431MD1909990-0061REMSYN004BUFR
0165825860999992014010312004-05200-039300FM-12+021299999V0200501N0051199999999020000199+02691+02301101291ADDAA101999990AZ101061AZ201061GA1031+008001061GA2991+999991031GE19MSL   +99999+99999GF105991031990008001991991KA1120N+02281MA1999990098621MD1909990-0031REMSYN004BUFR
0136825860999992014010318004-05200-039300FM-12+021299999V0200901N0031100800199020000199+03321+02121101031ADDAA101999990AZ101061AZ201061GA1051+008001081GE19MSL   +99999+99999GF105991051990008001991991MA1999990098381MD1909990+0051REMSYN004BUFR
0098825860999992014010400004-05200-039300FM-12+021299999V0203601N0031122000199001000199+02591+02371101151ADDAA101999990AZ101061AZ201061GF100991999999999999999999MA1999990098521MD1909990+0091REMSYN004BUFR
0149825860999992014010412004-05200-039300FM-12+021299999V0200501N0031100800199020000199+02751+02321101441ADDAA101999990AZ101061AZ201061GA1051+008001081GE19MSL   +99999+99999GF105991051990008001991991KA1120N+02401MA1999990098771MD1909990+0151REMSYN004BUFR
0136825860999992014010418004-05200-039300FM-12+021299999V0200501N0041199999999020000199+03351+02071101171ADDAA101999990AZ101061AZ201061GA1041+008001081GE19MSL   +99999+99999GF104991041990008001991991MA1999990098531MD1909990+0151REMSYN004BUFR
0149825860999992014010512004-05200-039300FM-12+021299999V0200501N0041100800199020000199+02751+02421101391ADDAA101999990AZ101061AZ201061GA1051+008001081GE19MSL   +99999+99999GF107991051990008001991991KA1120N+02401MA1999990098871MD1909990-0051REMSYN004BUFR
0152825860999992014010518004-05200-039300FM-12+021299999V0200901N0031199999999020000199+03291+02271101171ADDAA101999990AZ101061AZ201061GA1031+008001061GA2991+999991031GE19MSL   +99999+99999GF105991031990008001991991MA1999990098521MD1909990-0011REMSYN004BUFR
0136825860999992014010600004-05200-039300FM-12+021299999V0203601N0051199999999001000199+02801+02081101241ADDAA101999990AZ101061AZ201061GA1032+008001081GE19MSL   +99999+99999GF102992032990008001991991MA1999990098581MD1909990+0051REMSYN004BUFR
0181825860999992014010612004-05200-039300FM-12+021299999V0200501N0041100800199020000199+02721+02341101361ADDAA101999990AZ101061AZ201061GA1081+008001061GA2991+999991101GA3991+999991101GE19MSL   +99999+99999GF108991081990008001991991KA1120N+02381MA1999990098691MD1909990-0031REMSYN004BUFR
0136825860999992014010618004-05200-039300FM-12+021299999V0200901N0031199999999020000199+03191+02381100981ADDAA101999990AZ101061AZ201061GA1031+008001081GE19MSL   +99999+99999GF105991031990008001991991MA1999990098331MD1909990-0201REMSYN004BUFR
0136825860999992014010700004-05200-039300FM-12+021299999V0203601N0051100800199001000199+02771+02341101091ADDAA101999990AZ101061AZ201061GA1051+008001061GE19MSL   +99999+99999GF105991051990008001991991MA1999990098431MD1909990-0151REMSYN004BUFR
0187825860999992014010712004-05200-039300FM-12+021299999V0200501N0031100800199020000199+02621+02291101281ADDAA101999990AY121061AY221061GA1081+008001071GA2991+999991101GA3991+999991101GE19MSL   +99999+99999GF108991081990008001991991KA1120N+02401MA1999990098641MD1909990-0081MW1151REMSYN004BUFR
0168825860999992014010718004-05200-039300FM-12+021299999V0201801N0031100800199020000199+02721+02341101181ADDAA101999990AZ101061AZ201061GA1081+008001061GA2991+999991101GA3991+999991101GE19MSL   +99999+99999GF108991081990008001991991MA1999990098501MD1909990+0171REMSYN004BUFR
0136825860999992014010800004-05200-039300FM-12+021299999V0202701N0026100800199001000199+02441+02231101191ADDAA101999990AZ101061AZ201061GA1061+008001061GE19MSL   +99999+99999GF106991061990008001991991MA1999990098511MD1909990+0081REMSYN004BUFR
0165825860999992014010812004-05200-039300FM-12+021299999V0200501N0041199999999020000199+02741+02191101251ADDAA101999990AZ101061AZ201061GA1041+008001061GA2991+999991031GE19MSL   +99999+99999GF106991041990008001991991KA1120N+02201MA1999990098571MD1909990-0041REMSYN004BUFR
0136825860999992014010818004-05200-039300FM-12+021299999V0200501N0026100800199020000199+03391+02161101001ADDAA101999990AZ101061AZ201061GA1061+008001061GE19MSL   +99999+99999GF106991061990008001991991MA1999990098351MD1909990-0151REMSYN004BUFR
0142825860999992014010900004-05200-039300FM-12+021299999V0203601N0031199999999001000199+02791+02381101161ADDAA101999990AY121061AY221061GA1041+008001091GE19MSL   +99999+99999GF104991041990008001991991MA1999990098501MD1909990-0011MW1131REMSYN004BUFR
0149825860999992014010912004-05200-039300FM-12+021299999V0200501N0031100800199020000199+02741+02301101321ADDAA101999990AZ101061AZ201061GA1061+008001061GE19MSL   +99999+99999GF106991061990008001991991KA1120N+02401MA1999990098651MD1909990+0081REMSYN004BUFR
0136825860999992014010918004-05200-039300FM-12+021299999V0200501N0051100800199020000199+03421+01931101021ADDAA101999990AZ101061AZ201061GA1051+008001081GE19MSL   +99999+99999GF105991051990008001991991MA1999990098381MD1909990+0031REMSYN004BUFR
0136825860999992014011000004-05200-039300FM-12+021299999V0203601N0031100800199001000199+02671+02361101271ADDAA101999990AZ101061AZ201061GA1061+008001061GE19MSL   +99999+99999GF106991061990008001991991MA1999990098601MD1909990+0101REMSYN004BUFR
0149825860999992014011012004-05200-039300FM-12+021299999V0200501N0026100800199020000199+02721+02321101361ADDAA101999990AZ101061AZ201061GA1051+008001061GE19MSL   +99999+99999GF105991051990008001991991KA1120N+02301MA1999990098691MD1909990+0041REMSYN004BUFR
0142825860999992014011018004-05200-039300FM-12+021299999V0200901N0031100800199020000199+02891+02721101051ADDAA106001031AY121061AY221061GA1051+008001061GE19MSL   +99999+99999GF105991051990008001991991MA1999990098381MD1909990+0001MW1611REMSYN004BUFR
0142825860999992014011100004-05200-039300FM-12+021299999V0203601N0041199999999001000199+02671+02311101201ADDAA106001031AY161061AY221061GA1041+008001081GE19MSL   +99999+99999GF104991041990008001991991MA1999990098531MD1909990-0071MW1031REMSYN004BUFR
0149825860999992014011112004-05200-039300FM-12+021299999V0200901N0041199999999020000199+02791+02151101361ADDAA124002031AZ101061AZ201061GA1041+008001081GE19MSL   +99999+99999GF104991041990008001991991KA1120N+02361MA1999990098691MD1909990+0001REMSYN004BUFR
0136825860999992014011200004-05200-039300FM-12+021299999V0203601N0067199999999001000199+02771+02401101211ADDAA101999990AZ101061AZ201061GA1021+008001061GE19MSL   +99999+99999GF102991021990008001991991MA1999990098551MD1909990+0021REMSYN004BUFR
0149825860999992014011212004-05200-039300FM-12+021299999V0200501N0051100800199020000199+02691+02331101401ADDAA101999990AZ101061AZ201061GA1061+008001061GE19MSL   +99999+99999GF106991061990008001991991KA1120N+02471MA1999990098731MD1909990+0041REMSYN004BUFR
0136825860999992014011300004-05200-039300FM-12+021299999V0203601N0041100800199001000199+02691+02371101401ADDAA101999990AZ101061AZ201061GA1051+008001061GE19MSL   +99999+99999GF105991051990008001991991MA1999990098731MD1909990+0181REMSYN004BUFR
0149825860999992014011312004-05200-039300FM-12+021299999V0200501N0051100800199020000199+02691+02331101401ADDAA101999990AZ101061AZ201061GA1061+008001061GE19MSL   +99999+99999GF106991061990008001991991KA1120N+02471MA1999990098731MD1909990+0041REMSYN004BUFR
0168825860999992014011400004-05200-039300FM-12+021299999V0203601N0031100800199001000199+02741+02451101331ADDAA101999990AZ101061AZ201061GA1081+008001061GA2991+999991101GA3991+999991101GE19MSL   +99999+99999GF108991081990008001991991MA1999990098661MD1909990-0071REMSYN004BUFR
0149825860999992014011412004-05200-039300FM-12+021299999V0200901N0031100800199020000199+02771+02301101471ADDAA101999990AZ101061AZ201061GA1061+008001081GE19MSL   +99999+99999GF106991061990008001991991KA1120N+02451MA1999990098801MD1909990-0051REMSYN004BUFR
0136825860999992014011500004-05200-039300FM-12+021299999V0203601N0005199999999001000199+02821+02381101231ADDAA101999990AZ101061AZ201061GA1031+025001081GE19MSL   +99999+99999GF103991031990025001991991MA1999990098571MD1909990-0091REMSYN004BUFR
0149825860999992014011512004-05200-039300FM-12+021299999V0200901N0051199999999020000199+02851+02331101391ADDAA101999990AZ101061AZ201061GA1041+008001081GE19MSL   +99999+99999GF104991041990008001991991KA1120N+02471MA1999990098731MD1909990-0071REMSYN004BUFR
0142825860999992014011600004-05200-039300FM-12+021299999V0203601N0041199999999020000199+02821+02291101201ADDAA106000231AY121061AY221061GA1041+008001081GE19MSL   +99999+99999GF104991041990008001991991MA1999990098551MD1909990-0021MW1201REMSYN004BUFR
0181825860999992014011612004-05200-039300FM-12+021299999V0200501N0041100800199020000199+02671+02411101381ADDAA124000231AZ101061AZ201061GA1081+008001071GA2991+999991101GA3991+999991101GE19MSL   +99999+99999GF108991081990008001991991KA1120N+02451MA1999990098711MD1909990-0021REMSYN004BUFR
0098825860999992014011700004-05200-039300FM-12+021299999V0203601N0051122000199001000199+02771+02401101261ADDAA101999990AZ101061AZ201061GF100991999999999999999999MA1999990098601MD1909990+0051REMSYN004BUFR
0149825860999992014011712004-05200-039300FM-12+021299999V0200501N0051199999999020000199+02741+02361101461ADDAA101999990AZ101061AZ201061GA1041+008001081GE19MSL   +99999+99999GF107991041990008001991991KA1120N+02451MA1999990098791MD1909990+0081REMSYN004BUFR
0098825860999992014011800004-05200-039300FM-12+021299999V0203601N0051122000199001000199+02791+02441101321ADDAA101999990AZ101061AZ201061GF100991999999999999999999MA1999990098651MD1909990+0051REMSYN004BUFR
0149825860999992014011812004-05200-039300FM-12+021299999V0200501N0041100800199020000199+02821+02401101351ADDAA101999990AZ101061AZ201061GA1061+008001061GE19MSL   +99999+99999GF106991061990008001991991KA1120N+02501MA1999990098691MD1909990-0101REMSYN004BUFR
0136825860999992014011900004-05200-039300FM-12+021299999V0203601N0067199999999001000199+02841+02331101141ADDAA101999990AZ101061AZ201061GA1021+008001081GE19MSL   +99999+99999GF102991021990008001991991MA1999990098481MD1909990-0171REMSYN004BUFR
0149825860999992014011912004-05200-039300FM-12+021299999V0200501N0041100800199020000199+02841+02381101311ADDAA101999990AZ101061AZ201061GA1061+008001061GE19MSL   +99999+99999GF106991061990008001991991KA1120N+02351MA1999990098661MD1909990-0031REMSYN004BUFR
0142825860999992014012000004-05200-039300FM-12+021299999V0203601N0057199999999001000199+02691+02411101191ADDAA101999990AY121061AY221061GA1041+008001091GE19MSL   +99999+99999GF104991041990008001991991MA1999990098531MD1909990+0051MW1131REMSYN004BUFR
0181825860999992014012012004-05200-039300FM-12+021299999V0200901N0015100800199020000199+02491+02291101301ADDAA101999990AZ101061AZ201061GA1081+008001071GA2991+999991101GA3991+999991101GE19MSL   +99999+99999GF108991081990008001991991KA1120N+02391MA1999990098621MD1909990-0041REMSYN004BUFR
0142825860999992014012100004-05200-039300FM-12+021299999V0203601N0031100800199020000199+02591+02331101211ADDAA106001031AY161061AY221061GA1061+008001081GE19MSL   +99999+99999GF106991061990008001991991MA1999990098531MD1909990+0001MW1031REMSYN004BUFR
0149825860999992014012112004-05200-039300FM-12+021299999V0200901N0021100800199020000199+02621+02211101361ADDAA124001031AZ101061AZ201061GA1061+008001061GE19MSL   +99999+99999GF106991061990008001991991KA1120N+02261MA1999990098681MD1909990+0061REMSYN004BUFR
0098825860999992014012200004-05200-039300FM-12+021299999V0203601N0051122000199001000199+02791+02131101201ADDAA101999990AZ101061AZ201061GF100991999999999999999999MA1999990098531MD1909990+0001REMSYN004BUFR
0149825860999992014012212004-05200-039300FM-12+021299999V0200901N0015199999999020000199+02751+02361101341ADDAA101999990AZ101061AZ201061GA1041+008001081GE19MSL   +99999+99999GF104991041990008001991991KA1120N+02381MA1999990098681MD1909990+0001REMSYN004BUFR
0168825860999992014012300004-05200-039300FM-12+021299999V0203601N0051199999999001000199+02871+02371101221ADDAA101999990AZ101061AZ201061GA1991+025001101GA2991+999991101GA3991+999991101GE19MSL   +99999+99999GF104991990990025001991991MA1999990098561MD1909990+0031REMSYN004BUFR
0149825860999992014012312004-05200-039300FM-12+021299999V0200901N0031199999999020000199+02841+02191101351ADDAA101999990AZ101061AZ201061GA1021+008001081GE19MSL   +99999+99999GF102991021990008001991991KA1120N+02401MA1999990098701MD1909990+0021REMSYN004BUFR
0098825860999992014012400004-05200-039300FM-12+021299999V0203601N0051122000199001000199+02841+02291101011ADDAA101999990AZ101061AZ201061GF100991999999999999999999MA1999990098461MD1909990-0101REMSYN004BUFR
0149825860999992014012412004-05200-039300FM-12+021299999V0200901N0026100800199020000199+02671+02501101251ADDAA101999990AZ101061AZ201061GA1061+008001061GE19MSL   +99999+99999GF106991061990008001991991KA1120N+02401MA1999990098591MD1909990-0111REMSYN004BUFR
0098825860999992014012500004-05200-039300FM-12+021299999V0203601N0057122000199001000199+02651+02441101031ADDAA101999990AZ101061AZ201061GF100991999999999999999999MA1999990098361MD1909990-0101REMSYN004BUFR
0149825860999992014012512004-05200-039300FM-12+021299999V0200901N0026100800199020000199+02791+02191101231ADDAA101999990AZ101061AZ201061GA1061+008001081GE19MSL   +99999+99999GF106991061990008001991991KA1120N+02401MA1999990098571MD1909990-0021REMSYN004BUFR
0136825860999992014012600004-05200-039300FM-12+021299999V0203601N0041199999999020000199+02741+02281101111ADDAA101999990AZ101061AZ201061GA1041+008001081GE19MSL   +99999+99999GF104991041990008001991991MA1999990098451MD1909990+0091REMSYN004BUFR
0149825860999992014012612004-05200-039300FM-12+021299999V0200901N0051100800199020000199+02871+02281101291ADDAA101999990AZ101061AZ201061GA1061+008001061GE19MSL   +99999+99999GF106991061990008001991991KA1120N+02361MA1999990098631MD1909990+0061REMSYN004BUFR
0138825860999992014012618004-05200-039300FM-12+021299999V0200901N0031199999999020000199+03441+02251101001ADDAA101999990AZ101061AZ201061GA1021+008001081GA2991+999991001GE19MSL   +99999+99999GF104991021990008001991991MA1999990098361REMSYN004BUFR
0136825860999992014012700004-05200-039300FM-12+021299999V0200501N0051199999999001000199+02851+02311101111ADDAA101999990AZ101061AZ201061GA1021+008001081GE19MSL   +99999+99999GF102991021990008001991991MA1999990098461MD1909990+0011REMSYN004BUFR
0165825860999992014012712004-05200-039300FM-12+021299999V0200901N0067100800199020000199+02791+02461101421ADDAA101999990AZ101061AZ201061GA1051+008001061GA2991+999991031GE19MSL   +99999+99999GF107991051990008001991991KA1120N+02381MA1999990098761MD1909990+0131REMSYN004BUFR
0152825860999992014012718004-05200-039300FM-12+021299999V0200901N0041199999999020000199+03491+02051101101ADDAA101999990AZ101061AZ201061GA1031+008001081GA2991+999991031GE19MSL   +99999+99999GF105991031990008001991991MA1999990098461MD1909990+0101REMSYN004BUFR
0142825860999992014012800004-05200-039300FM-12+021299999V0203601N0031199999999001000199+02821+02501101241ADDAA101999990AY121061AY221061GA1041+008001091GE19MSL   +99999+99999GF104991041990008001991991MA1999990098581MD1909990+0121MW1131REMSYN004BUFR
0149825860999992014012812004-05200-039300FM-12+021299999V0200901N0051100800199020000199+02841+02331101321ADDAA101999990AZ101061AZ201061GA1051+008001081GE19MSL   +99999+99999GF105991051990008001991991KA1120N+02381MA1999990098671MD1909990-0091REMSYN004BUFR
0152825860999992014012818004-05200-039300FM-12+021299999V0200901N0051199999999020000199+03451+02061101021ADDAA101999990AZ101061AZ201061GA1031+008001081GA2991+999991031GE19MSL   +99999+99999GF104991031990008001991991MA1999990098381MD1909990-0081REMSYN004BUFR
0098825860999992014012900004-05200-039300FM-12+021299999V0203601N0051122000199001000199+02851+02351101181ADDAA101999990AZ101061AZ201061GF100991999999999999999999MA1999990098531MD1909990-0051REMSYN004BUFR
0149825860999992014012912004-05200-039300FM-12+021299999V0200901N0062199999999020000199+02891+02101101291ADDAA101999990AZ101061AZ201061GA1011+008001081GE19MSL   +99999+99999GF101991011990008001991991KA1120N+02361MA1999990098641MD1909990-0031REMSYN004BUFR
0168825860999992014012918004-05200-039300FM-12+021299999V0200501N0051100800199020000199+03351+02001101111ADDAA101999990AZ101061AZ201061GA1081+008001071GA2991+999991101GA3991+999991101GE19MSL   +99999+99999GF108991081990008001991991MA1999990098461MD1909990+0081REMSYN004BUFR
0098825860999992014013000004-05200-039300FM-12+021299999V0203601N0051122000199001000199+02941+02211101151ADDAA101999990AZ101061AZ201061GF100991999999999999999999MA1999990098541MD1909990+0011REMSYN004BUFR
0187825860999992014013012004-05200-039300FM-12+021299999V0203601N0015100800199020000199+02651+02541101391ADDAA124001031AY161061AY221061GA1081+008001071GA2991+999991101GA3991+999991101GE19MSL   +99999+99999GF108991081990008001991991KA1120N+02421MA1999990098731MD1909990+0091MW1031REMSYN004BUFR
0174825860999992014013018004-05200-039300FM-12+021299999V0203601N0010100800199020000199+02591+02551101271ADDAA106001031AY161061AY221061GA1081+008001071GA2991+999991101GA3991+999991101GE19MSL   +99999+99999GF108991081990008001991991MA1999990098581MD1909990+0121MW1031REMSYN004BUFR
0136825860999992014013100004-05200-039300FM-12+021299999V0203601N0010100800199001000199+02471+02451101381ADDAA101999990AZ101061AZ201061GA1061+008001061GE19MSL   +99999+99999GF106991061990008001991991MA1999990098701MD1909990+0171REMSYN004BUFR
0149825860999992014013112004-05200-039300FM-12+021299999V0200901N0046100800199020000199+02751+02321101381ADDAA124001031AZ101061AZ201061GA1061+008001061GE19MSL   +99999+99999GF106991061990008001991991KA1120N+02281MA1999990098701MD1909990-0031REMSYN004BUFR
0136825860999992014013118004-05200-039300FM-12+021299999V0200901N0031100800199020000199+03391+02241101071ADDAA101999990AZ101061AZ201061GA1061+008001061GE19MSL   +99999+99999GF106991061990008001991991MA1999990098421MD1909990-0161REMSYN004BUFR
0136825860999992014020100004-05200-039300FM-12+021299999V0203601N0031199999999001000199+02841+02311101251ADDAA101999990AZ101061AZ201061GA1041+008001081GE19MSL   +99999+99999GF104991041990008001991991MA1999990098591MD1909990-0111REMSYN004BUFR
0149825860999992014020112004-05200-039300FM-12+021299999V0200901N0031100800199020000199+02691+02331101341ADDAA101999990AZ101061AZ201061GA1061+008001061GE19MSL   +99999+99999GF106991061990008001991991KA1120N+02401MA1999990098671MD1909990-0031REMSYN004BUFR
0136825860999992014020118004-05200-039300FM-12+021299999V0200501N0026100800199020000199+03351+01971101041ADDAA101999990AZ101061AZ201061GA1071+008001061GE19MSL   +99999+99999GF107991071990008001991991MA1999990098401MD1909990-0021REMSYN004BUFR
0136825860999992014020200004-05200-039300FM-12+021299999V0203601N0031100800199001000199+02851+02371101091ADDAA101999990AZ101061AZ201061GA1061+008001061GE19MSL   +99999+99999GF106991061990008001991991MA1999990098461MD1909990-0131REMSYN004BUFR
0149825860999992014020212004-05200-039300FM-12+021299999V0200501N0031100800199020000199+02771+02251101261ADDAA101999990AZ101061AZ201061GA1061+008001061GE19MSL   +99999+99999GF106991061990008001991991KA1120N+02481MA1999990098601MD1909990-0071REMSYN004BUFR
0136825860999992014020218004-05200-039300FM-12+021299999V0200501N0031100800199020000199+03491+02051101001ADDAA101999990AZ101061AZ201061GA1051+008001081GE19MSL   +99999+99999GF105991051990008001991991MA1999990098361MD1909990-0041REMSYN004BUFR
0136825860999992014020300004-05200-039300FM-12+021299999V0203601N0051100800199001000199+02721+02501101111ADDAA101999990AZ101061AZ201061GA1061+008001061GE19MSL   +99999+99999GF106991061990008001991991MA1999990098451MD1909990-0011REMSYN004BUFR
0187825860999992014020312004-05200-039300FM-12+021299999V0200501N0031100800199020000199+02741+02451101171ADDAA124001031AY161061AY221061GA1081+008001061GA2991+999991101GA3991+999991101GE19MSL   +99999+99999GF108991081990008001991991KA1120N+02381MA1999990098511MD1909990-0091MW1021REMSYN004BUFR
0152825860999992014020318004-05200-039300FM-12+021299999V0200501N0031199999999020000199+03391+02311100931ADDAA101999990AZ101061AZ201061GA1041+008001081GA2991+999991031GE19MSL   +99999+99999GF106991041990008001991991MA1999990098291MD1909990-0071REMSYN004BUFR
0136825860999992014020400004-05200-039300FM-12+021299999V0203601N0051100800199001000199+02721+02411101141ADDAA101999990AZ101061AZ201061GA1061+008001061GE19MSL   +99999+99999GF106991061990008001991991MA1999990098481MD1909990+0031REMSYN004BUFR
0187825860999992014020412004-05200-039300FM-12+021299999V0200901N0051100800199020000199+02241+02211101431ADDAA124008031AY161061AY251061GA1081+008001071GA2991+999991101GA3991+999991101GE19MSL   +99999+99999GF108991081990008001991991KA1120N+02001MA1999990098741MD1909990+0231MW1501REMSYN004BUFR
0142825860999992014020418004-05200-039300FM-12+021299999V0202701N0015100800199020000199+02441+02431101301ADDAA106004031AY161061AY221061GA1061+008001061GE19MSL   +99999+99999GF106991061990008001991991MA1999990098581MD1909990+0291MW1031REMSYN004BUFR
0136825860999992014020500004-05200-039300FM-12+021299999V0203601N0015100800199020000199+02291+02221101331ADDAA101999990AZ101061AZ201061GA1061+008001061GE19MSL   +99999+99999GF106991061990008001991991MA1999990098611MD1909990+0131REMSYN004BUFR
0181825860999992014020512004-05200-039300FM-12+021299999V0200901N0026100800199020000199+02551+02271101321ADDAA124004031AZ101061AZ201061GA1081+008001071GA2991+999991101GA3991+999991101GE19MSL   +99999+99999GF108991081990008001991991KA1120N+02081MA1999990098621MD1909990-0121REMSYN004BUFR
0136825860999992014020518004-05200-039300FM-12+021299999V0200901N0031100800199020000199+03221+02371101071ADDAA101999990AZ101061AZ201061GA1061+008001081GE19MSL   +99999+99999GF106991061990008001991991MA1999990098421MD1909990-0161REMSYN004BUFR
0098825860999992014020600004-05200-039300FM-12+021299999V0203601N0057122000199001000199+02671+02281101181ADDAA101999990AZ101061AZ201061GF100991999999999999999999MA1999990098501MD1909990-0111REMSYN004BUFR
0165825860999992014020612004-05200-039300FM-12+021299999V0200901N0051199999999020000199+02741+02141101361ADDAA101999990AZ101061AZ201061GA1021+008001081GA2991+999991001GE19MSL   +99999+99999GF103991021990008001991991KA1120N+02161MA1999990098691MD1909990+0071REMSYN004BUFR
0136825860999992014020618004-05200-039300FM-12+021299999V0200901N0031100800199020000199+03391+02111101131ADDAA101999990AZ101061AZ201061GA1051+008001061GE19MSL   +99999+99999GF105991051990008001991991MA1999990098481MD1909990+0061REMSYN004BUFR
0136825860999992014020700004-05200-039300FM-12+021299999V0203601N0051100800199001000199+02701+02241101271ADDAA101999990AZ101061AZ201061GA1061+008001081GE19MSL   +99999+99999GF106991061990008001991991MA1999990098611MD1909990+0121REMSYN004BUFR
0149825860999992014020712004-05200-039300FM-12+021299999V0200501N0051199999999020000199+02791+02201101451ADDAA101999990AZ101061AZ201061GA1041+008001081GE19MSL   +99999+99999GF104991041990008001991991KA1120N+02261MA1999990098781MD1909990+0091REMSYN004BUFR
0152825860999992014020718004-05200-039300FM-12+021299999V0200901N0041199999999020000199+03391+02241101151ADDAA101999990AZ101061AZ201061GA1041+008001081GA2991+999991001GE19MSL   +99999+99999GF105991041990008001991991MA1999990098501MD1909990+0021REMSYN004BUFR
0136825860999992014020800004-05200-039300FM-12+021299999V0203601N0031199999999001000199+02771+02231101371ADDAA101999990AZ101061AZ201061GA1041+008001081GE19MSL   +99999+99999GF104991041990008001991991MA1999990098711MD1909990+0101REMSYN004BUFR
0149825860999992014020812004-05200-039300FM-12+021299999V0200501N0041100800199020000199+02841+02421101461ADDAA101999990AZ101061AZ201061GA1061+008001061GE19MSL   +99999+99999GF106991061990008001991991KA1120N+02461MA1999990098801MD1909990+0021REMSYN004BUFR
0136825860999992014020818004-05200-039300FM-12+021299999V0200901N0031100800199020000199+03491+02021101071ADDAA101999990AZ101061AZ201061GA1061+008001061GE19MSL   +99999+99999GF106991061990008001991991MA1999990098431MD1909990-0071REMSYN004BUFR
0168825860999992014020900004-05200-039300FM-12+021299999V0203601N0026100800199001000199+02591+02551101301ADDAA101999990AZ101061AZ201061GA1081+008001071GA2991+999991101GA3991+999991101GE19MSL   +99999+99999GF108991081990008001991991MA1999990098631MD1909990-0081REMSYN004BUFR
0181825860999992014020912004-05200-039300FM-12+021299999V0200901N0026199999999020000199+02691+02431101461ADDAA101999990AZ101061AZ201061GA1031+008001081GA2991+999991101GA3991+999991051GE19MSL   +99999+99999GF108991031990008001991991KA1120N+02491MA1999990098781MD1909990-0021REMSYN004BUFR
0136825860999992014020918004-05200-039300FM-12+021299999V0200901N0041100800199020000199+03391+01961101171ADDAA101999990AZ101061AZ201061GA1061+008001061GE19MSL   +99999+99999GF106991061990008001991991MA1999990098531MD1909990+0101REMSYN004BUFR
0136825860999992014021000004-05200-039300FM-12+021299999V0203601N0051100800199001000199+02771+02441101261ADDAA101999990AZ101061AZ201061GA1061+008001061GE19MSL   +99999+99999GF106991061990008001991991MA1999990098601MD1909990-0031REMSYN004BUFR
0149825860999992014021012004-05200-039300FM-12+021299999V0200901N0031100800199020000199+02641+02411101431ADDAA101999990AZ101061AZ201061GA1061+008001081GE19MSL   +99999+99999GF106991061990008001991991KA1120N+02541MA1999990098761MD1909990-0021REMSYN004BUFR
0152825860999992014021018004-05200-039300FM-12+021299999V0200501N0036199999999020000199+03391+02111101101ADDAA101999990AZ101061AZ201061GA1031+008001081GA2991+999991051GE19MSL   +99999+99999GF107991031990008001991991MA1999990098461MD1909990-0071REMSYN004BUFR
0136825860999992014021100004-05200-039300FM-12+021299999V0203601N0051100800199001000199+02751+02341101201ADDAA101999990AZ101061AZ201061GA1061+008001061GE19MSL   +99999+99999GF106991061990008001991991MA1999990098531MD1909990-0071REMSYN004BUFR
0149825860999992014021112004-05200-039300FM-12+021299999V0200901N0051100800199020000199+02791+02401101291ADDAA101999990AZ101061AZ201061GA1061+008001061GE19MSL   +99999+99999GF106991061990008001991991KA1120N+02441MA1999990098631MD1909990-0131REMSYN004BUFR
0136825860999992014021118004-05200-039300FM-12+021299999V0200501N0051100800199020000199+03491+01981101011ADDAA101999990AZ101061AZ201061GA1051+008001081GE19MSL   +99999+99999GF105991051990008001991991MA1999990098371MD1909990-0091REMSYN004BUFR
0136825860999992014021200004-05200-039300FM-12+021299999V0203601N0026199999999001000199+02771+02341101131ADDAA101999990AZ101061AZ201061GA1041+008001081GE19MSL   +99999+99999GF104991041990008001991991MA1999990098481MD1909990-0051REMSYN004BUFR
0165825860999992014021212004-05200-039300FM-12+021299999V0200901N0031199999999020000199+02791+02341101131ADDAA101999990AZ101061AZ201061GA1021+008001081GA2991+999991001GE19MSL   +99999+99999GF105991021990008001991991KA1120N+02491MA1999990098571MD1909990-0061REMSYN004BUFR
0136825860999992014021218004-05200-039300FM-12+021299999V0200901N0041100800199020000199+03391+02211100931ADDAA101999990AZ101061AZ201061GA1061+008001061GE19MSL   +99999+99999GF106991061990008001991991MA1999990098291MD1909990-0081REMSYN004BUFR
0136825860999992014021300004-05200-039300FM-12+021299999V0200501N0021199999999001000199+02841+02311101101ADDAA101999990AZ101061AZ201061GA1041+008001061GE19MSL   +99999+99999GF104991041990008001991991MA1999990098451MD1909990-0031REMSYN004BUFR
0149825860999992014021312004-05200-039300FM-12+021299999V0200901N0026100800199020000199+02691+02391101261ADDAA101999990AZ101061AZ201061GA1061+008001061GE19MSL   +99999+99999GF106991061990008001991991KA1120N+02401MA1999990098601MD1909990+0031REMSYN004BUFR
0136825860999992014021318004-05200-039300FM-12+021299999V0200901N0031100800199020000199+03371+02261101001ADDAA101999990AZ101061AZ201061GA1061+008001061GE19MSL   +99999+99999GF106991061990008001991991MA1999990098351MD1909990+0061REMSYN004BUFR
0136825860999992014021400004-05200-039300FM-12+021299999V0203601N0067100800199001000199+02771+02401101141ADDAA101999990AZ101061AZ201061GA1061+008001061GE19MSL   +99999+99999GF106991061990008001991991MA1999990098481MD1909990+0031REMSYN004BUFR
0187825860999992014021412004-05200-039300FM-12+021299999V0200501N0031100800199020000199+02491+02471101371ADDAA124005031AY161061AY251061GA1081+008001071GA2991+999991101GA3991+999991101GE19MSL   +99999+99999GF108991081990008001991991KA1120N+02301MA1999990098691MD1909990+0091MW1031REMSYN004BUFR
0168825860999992014021418004-05200-039300FM-12+021299999V0200901N0051100800199020000199+03191+02331101141ADDAA101999990AZ101061AZ201061GA1081+008001071GA2991+999991101GA3991+999991101GE19MSL   +99999+99999GF108991081990008001991991MA1999990098481MD1909990+0131REMSYN004BUFR
0174825860999992014021500004-05200-039300FM-12+021299999V0203601N0051100800199001000199+02591+02461101291ADDAA106011031AY161061AY221061GA1081+008001071GA2991+999991101GA3991+999991101GE19MSL   +99999+99999GF108991081990008001991991MA1999990098601MD1909990+0121MW1031REMSYN004BUFR
0181825860999992014021512004-05200-039300FM-12+021299999V0200501N0031100800199020000199+02751+02601101391ADDAA124011031AZ101061AZ201061GA1081+008001071GA2991+999991101GA3991+999991101GE19MSL   +99999+99999GF108991081990008001991991KA1120N+02301MA1999990098721MD1909990+0031REMSYN004BUFR
0152825860999992014021518004-05200-039300FM-12+021299999V0200901N0051199999999020000199+02791+02501101141ADDAA101999990AZ101061AZ201061GA1031+008001081GA2991+999991001GE19MSL   +99999+99999GF106991031990008001991991MA1999990098491MD1909990+0011REMSYN004BUFR
0136825860999992014021600004-05200-039300FM-12+021299999V0203601N0026100800199001000199+02641+02421101261ADDAA101999990AZ101061AZ201061GA1061+008001061GE19MSL   +99999+99999GF106991061990008001991991MA1999990098591MD1909990-0011REMSYN004BUFR
0149825860999992014021612004-05200-039300FM-12+021299999V0200501N0031100800199020000199+02751+02481101301ADDAA101999990AZ101061AZ201061GA1061+008001061GE19MSL   +99999+99999GF106991061990008001991991KA1120N+02401MA1999990098631MD1909990-0091REMSYN004BUFR
0136825860999992014021618004-05200-039300FM-12+021299999V0200501N0041100800199020000199+03351+02171101011ADDAA101999990AZ101061AZ201061GA1061+008001061GE19MSL   +99999+99999GF106991061990008001991991MA1999990098371MD1909990-0121REMSYN004BUFR
0174825860999992014021700004-05200-039300FM-12+021299999V0203601N0031100800199001000199+02391+02171101201ADDAA106002031AY161061AY221061GA1081+008001071GA2991+999991101GA3991+999991101GE19MSL   +99999+99999GF108991081990008001991991MA1999990098521MD1909990-0071MW1031REMSYN004BUFR
0187825860999992014021712004-05200-039300FM-12+021299999V0200501N0015100800199020000199+02341+02131101421ADDAA124010031AY161061AY221061GA1061+008001071GA2991+999991101GA3991+999991051GE19MSL   +99999+99999GF108991061990008001991991KA1120N+02201MA1999990098711MD1909990+0081MW1201REMSYN004BUFR
0168825860999992014021718004-05200-039300FM-12+021299999V0200501N0046100800199020000199+02921+02391101151ADDAA101999990AZ101061AZ201061GA1071+008001061GA2991+999991101GA3991+999991101GE19MSL   +99999+99999GF108991071990008001991991MA1999990098471MD1909990+0101REMSYN004BUFR
0136825860999992014021800004-05200-039300FM-12+021299999V0201401N0015100800199001000199+02491+02381101231ADDAA101999990AZ101061AZ201061GA1061+008001061GE19MSL   +99999+99999GF106991061990008001991991MA1999990098531MD1909990+0011REMSYN004BUFR
0149825860999992014021812004-05200-039300FM-12+021299999V0200901N0026100800199020000199+02641+02421101271ADDAA101999990AZ101061AZ201061GA1061+008001061GE19MSL   +99999+99999GF106991061990008001991991KA1120N+02301MA1999990098581MD1909990-0131REMSYN004BUFR
0136825860999992014021818004-05200-039300FM-12+021299999V0200501N0031100800199020000199+02951+02101101051ADDAA101999990AZ101061AZ201061GA1061+008001061GE19MSL   +99999+99999GF106991061990008001991991MA1999990098381MD1909990-0091REMSYN004BUFR
0142825860999992014021900004-05200-039300FM-12+021299999V0203601N0051199999999001000199+02651+02331101121ADDAA101999990AY121061AY221061GA1041+008001091GE19MSL   +99999+99999GF104991041990008001991991MA1999990098451MD1909990-0081MW1131REMSYN004BUFR
0181825860999992014021912004-05200-039300FM-12+021299999V0200901N0031100800199020000199+02491+02471101251ADDAA101999990AZ101061AZ201061GA1081+008001071GA2991+999991101GA3991+999991101GE19MSL   +99999+99999GF108991081990008001991991KA1120N+02261MA1999990098571MD1909990-0011REMSYN004BUFR
0174825860999992014021918004-05200-039300FM-12+021299999V0203601N0051100800199020000199+02551+02441101101ADDAA106002031AY121061AY221061GA1081+008001071GA2991+999991101GA3991+999991101GE19MSL   +99999+99999GF108991081990008001991991MA1999990098401MD1909990+0021MW1211REMSYN004BUFR
0174825860999992014022000004-05200-039300FM-12+021299999V0200901N0015100800199001000199+02391+02311101221ADDAA106002031AY161061AY221061GA1081+008001071GA2991+999991101GA3991+999991101GE19MSL   +99999+99999GF108991081990008001991991MA1999990098531MD1909990+0081MW1031REMSYN004BUFR
0165825860999992014022012004-05200-039300FM-12+021299999V0200901N0041199999999020000199+02591+02531101281ADDAA124004031AZ101061AZ201061GA1041+008001071GA2991+999991051GE19MSL   +99999+99999GF108991041990008001991991KA1120N+02291MA1999990098591MD1909990+0021REMSYN004BUFR
0136825860999992014022018004-05200-039300FM-12+021299999V0200901N0041199999999020000199+02951+02101101051ADDAA101999990AZ101061AZ201061GA1031+008001081GE19MSL   +99999+99999GF106991031990008001991991MA1999990098321MD1909990-0021REMSYN004BUFR
0174825860999992014022100004-05200-039300FM-12+021299999V0202301N0010100800199001000199+02371+02291101231ADDAA106003031AY161061AY251061GA1081+008001071GA2991+999991101GA3991+999991101GE19MSL   +99999+99999GF108991081990008001991991MA1999990098541MD1909990+0011MW1511REMSYN004BUFR
0149825860999992014022112004-05200-039300FM-12+021299999V0200901N0051100800199020000199+02691+02541101241ADDAA124004031AZ101061AZ201061GA1071+008001071GE19MSL   +99999+99999GF107991071990008001991991KA1120N+02261MA1999990098551MD1909990-0041REMSYN004BUFR
0136825860999992014022118004-05200-039300FM-12+021299999V0200901N0031100800199020000199+03141+02381101041ADDAA101999990AZ101061AZ201061GA1061+008001061GE19MSL   +99999+99999GF106991061990008001991991MA1999990098381MD1909990+0001REMSYN004BUFR
0136825860999992014022200004-05200-039300FM-12+021299999V0200501N0015100800199020000199+02641+02391101111ADDAA101999990AZ101061AZ201061GA1061+008001061GE19MSL   +99999+99999GF106991061990008001991991MA1999990098441MD1909990-0101REMSYN004BUFR
0149825860999992014022212004-05200-039300FM-12+021299999V0200501N0041100800199020000199+02691+02221101201ADDAA101999990AZ101061AZ201061GA1051+008001081GE19MSL   +99999+99999GF105991051990008001991991KA1120N+02221MA1999990098531MD1909990-0031REMSYN004BUFR
0152825860999992014022218004-05200-039300FM-12+021299999V0200901N0026100800199020000199+03171+02221101061ADDAA101999990AZ101061AZ201061GA1051+008001081GA2991+999991051GE19MSL   +99999+99999GF107991051990008001991991MA1999990098401MD1909990+0021REMSYN004BUFR
0136825860999992014022300004-05200-039300FM-12+021299999V0203601N0015100800199001000199+02671+02351101091ADDAA101999990AZ101061AZ201061GA1061+008001061GE19MSL   +99999+99999GF106991061990008001991991MA1999990098431MD1909990-0011REMSYN004BUFR
0165825860999992014022312004-05200-039300FM-12+021299999V0200901N0051199999999020000199+02821+02241101261ADDAA101999990AZ101061AZ201061GA1031+008001081GA2991+999991031GE19MSL   +99999+99999GF106991031990008001991991KA1120N+02371MA1999990098601MD1909990+0071REMSYN004BUFR
0152825860999992014022318004-05200-039300FM-12+021299999V0200901N0031199999999020000199+03341+02251101031ADDAA101999990AZ101061AZ201061GA1031+008001081GA2991+999991001GE19MSL   +99999+99999GF106991031990008001991991MA1999990098381MD1909990-0021REMSYN004BUFR
0136825860999992014022400004-05200-039300FM-12+021299999V0203601N0031100800199001000199+02741+02241101081ADDAA101999990AZ101061AZ201061GA1061+008001061GE19MSL   +99999+99999GF106991061990008001991991MA1999990098431MD1909990+0001REMSYN004BUFR
0149825860999992014022412004-05200-039300FM-12+021299999V0200501N0051100800199020000199+02791+02271101181ADDAA101999990AZ101061AZ201061GA1051+008001081GE19MSL   +99999+99999GF105991051990008001991991KA1120N+02221MA1999990098521MD1909990-0081REMSYN004BUFR
0136825860999992014022418004-05200-039300FM-12+021299999V0200901N0041100800199020000199+03351+02111100901ADDAA101999990AZ101061AZ201061GA1051+008001081GE19MSL   +99999+99999GF105991051990008001991991MA1999990098251MD1909990-0131REMSYN004BUFR
0136825860999992014022500004-05200-039300FM-12+021299999V0203601N0051199999999001000199+02751+02461101101ADDAA101999990AZ101061AZ201061GA1041+008001081GE19MSL   +99999+99999GF104991041990008001991991MA1999990098451MD1909990+0021REMSYN004BUFR
0149825860999992014022512004-05200-039300FM-12+021299999V0200501N0031199999999020000199+02791+02251101151ADDAA101999990AZ101061AZ201061GA1041+008001081GE19MSL   +99999+99999GF104991041990008001991991KA1120N+02341MA1999990098501MD1909990-0021REMSYN004BUFR
0136825860999992014022518004-05200-039300FM-12+021299999V0201401N0041100800199020000199+03451+02091100901ADDAA101999990AZ101061AZ201061GA1051+008001081GE19MSL   +99999+99999GF105991051990008001991991MA1999990098261MD1909990+0011REMSYN004BUFR
0098825860999992014022600004-05200-039300FM-12+021299999V0203601N0067122000199001000199+02791+02251101001ADDAA101999990AZ101061AZ201061GF100991999999999999999999MA1999990098351MD1909990-0101REMSYN004BUFR
0181825860999992014022612004-05200-039300FM-12+021299999V0200901N0031100800199020000199+02671+02391101141ADDAA101999990AZ101061AZ201061GA1081+008001071GA2991+999991101GA3991+999991101GE19MSL   +99999+99999GF108991081990008001991991KA1120N+02321MA1999990098481MD1909990-0021REMSYN004BUFR
0136825860999992014022618004-05200-039300FM-12+021299999V0200501N0015199999999020000199+03341+02281100891ADDAA101999990AZ101061AZ201061GA1041+008001081GE19MSL   +99999+99999GF104991041990008001991991MA1999990098251MD1909990-0011REMSYN004BUFR
0098825860999992014022700004-05200-039300FM-12+021299999V0203601N0067122000199001000199+02621+02421101031ADDAA101999990AZ101061AZ201061GF100991999999999999999999MA1999990098361MD1909990+0011REMSYN004BUFR
0149825860999992014022712004-05200-039300FM-12+021299999V0200501N0041100800199020000199+02721+02341101161ADDAA101999990AZ101061AZ201061GA1051+008001081GE19MSL   +99999+99999GF105991051990008001991991KA1120N+02391MA1999990098491MD1909990+0011REMSYN004BUFR
0136825860999992014022718004-05200-039300FM-12+021299999V0200901N0041100800199020000199+03291+02421100921ADDAA101999990AZ101061AZ201061GA1051+008001081GE19MSL   +99999+99999GF105991051990008001991991MA1999990098281MD1909990+0031REMSYN004BUFR
0098825860999992014022800004-05200-039300FM-12+021299999V0203601N0031122000199001000199+02671+02381101091ADDAA101999990AZ101061AZ201061GF100991999999999999999999MA1999990098431MD1909990+0071REMSYN004BUFR
0149825860999992014022812004-05200-039300FM-12+021299999V0200901N0031100800199020000199+02791+02251101241ADDAA101999990AZ101061AZ201061GA1061+008001081GE19MSL   +99999+99999GF106991061990008001991991KA1120N+02301MA1999990098581MD1909990+0091REMSYN004BUFR
0136825860999992014022818004-05200-039300FM-12+021299999V0200901N0051199999999020000199+03391+02571100971ADDAA101999990AZ101061AZ201061GA1041+008001081GE19MSL   +99999+99999GF104991041990008001991991MA1999990098331MD1909990+0051REMSYN004BUFR
0136825860999992014030100004-05200-039300FM-12+021299999V0203601N0041199999999001000199+02721+02321101071ADDAA101999990AZ101061AZ201061GA1041+008001081GE19MSL   +99999+99999GF104991041990008001991991MA1999990098411MD1909990-0021REMSYN004BUFR
0181825860999992014030112004-05200-039300FM-12+021299999V0200501N0031100800199020000199+02671+02311101251ADDAA101999990AZ101061AZ201061GA1081+008001071GA2991+999991101GA3991+999991101GE19MSL   +99999+99999GF108991081990008001991991KA1120N+02321MA1999990098581MD1909990+0001REMSYN004BUFR
0136825860999992014030118004-05200-039300FM-12+021299999V0200501N0051100800199020000199+03391+02311100861ADDAA101999990AZ101061AZ201061GA1051+008001081GE19MSL   +99999+99999GF105991051990008001991991MA1999990098251MD1909990-0081REMSYN004BUFR
0149825860999992014030212004-05200-039300FM-12+021299999V0200501N0041100800199020000199+02851+02261101151ADDAA101999990AZ101061AZ201061GA1051+008001081GE19MSL   +99999+99999GF105991051990008001991991KA1120N+02361MA1999990098501MD1909990-0081REMSYN004BUFR
0136825860999992014030218004-05200-039300FM-12+021299999V0200901N0041199999999020000199+03451+02421100821ADDAA101999990AZ101061AZ201061GA1041+008001061GE19MSL   +99999+99999GF104991041990008001991991MA1999990098181MD1909990-0071REMSYN004BUFR
0098825860999992014030300004-05200-039300FM-12+021299999V0203601N0051122000199001000199+02741+02241100981ADDAA101999990AZ101061AZ201061GF100991999999999999999999MA1999990098331MD1909990+0011REMSYN004BUFR
0149825860999992014030312004-05200-039300FM-12+021299999V0200501N0057100800199020000199+02851+02351101241ADDAA101999990AZ101061AZ201061GA1061+008001061GE19MSL   +99999+99999GF106991061990008001991991KA1120N+02321MA1999990098581MD1909990+0081REMSYN004BUFR
0136825860999992014030318004-05200-039300FM-12+021299999V0200501N0051100800199020000199+03451+02451100871ADDAA101999990AZ101061AZ201061GA1051+008001061GE19MSL   +99999+99999GF105991051990008001991991MA1999990098231MD1909990+0051REMSYN004BUFR
0136825860999992014030400004-05200-039300FM-12+021299999V0200501N0041199999999001000199+02791+02381101061ADDAA101999990AZ101061AZ201061GA1031+008001081GE19MSL   +99999+99999GF103991031990008001991991MA1999990098411MD1909990+0081REMSYN004BUFR
0155825860999992014030412004-05200-039300FM-12+021299999V0200501N0051100800199020000199+02691+02461101261ADDAA124002031AY161061AY221061GA1061+008001061GE19MSL   +99999+99999GF106991061990008001991991KA1120N+02381MA1999990098601MD1909990+0021MW1151REMSYN004BUFR
0136825860999992014030418004-05200-039300FM-12+021299999V0200901N0046100800199020000199+03321+02291100971ADDAA101999990AZ101061AZ201061GA1051+008001061GE19MSL   +99999+99999GF105991051990008001991991MA1999990098321MD1909990+0091REMSYN004BUFR
0142825860999992014030500004-05200-039300FM-12+021299999V0200501N0031100800199001000199+02721+02451101181ADDAA106000231AY151061AY221061GA1061+008001061GE19MSL   +99999+99999GF106991061990008001991991MA1999990098511MD1909990+0101MW1031REMSYN004BUFR
0149825860999992014030512004-05200-039300FM-12+021299999V0200901N0026100800199020000199+02771+02361101351ADDAA101999990AZ101061AZ201061GA1061+008001061GE19MSL   +99999+99999GF106991061990008001991991KA1120N+02321MA1999990098681MD1909990+0081REMSYN004BUFR
0136825860999992014030518004-05200-039300FM-12+021299999V0200901N0051100800199020000199+03491+02221101021ADDAA101999990AZ101061AZ201061GA1051+008001081GE19MSL   +99999+99999GF105991051990008001991991MA1999990098381MD1909990+0061REMSYN004BUFR
0136825860999992014030600004-05200-039300FM-12+021299999V0200501N0031100800199001000199+02841+01991101121ADDAA101999990AZ101061AZ201061GA1051+008001081GE19MSL   +99999+99999GF105991051990008001991991MA1999990098471MD1909990-0041REMSYN004BUFR
0181825860999992014030612004-05200-039300FM-12+021299999V0200901N0041100800199020000199+02691+02371101261ADDAA101999990AZ101061AZ201061GA1081+008001071GA2991+999991101GA3991+999991101GE19MSL   +99999+99999GF108991081990008001991991KA1120N+02461MA1999990098601MD1909990-0081REMSYN004BUFR
0174825860999992014030618004-05200-039300FM-12+021299999V0200501N0026100800199020000199+02491+02451101171ADDAA106014031AY161061AY221061GA1081+008001071GA2991+999991101GA3991+999991101GE19MSL   +99999+99999GF108991081990008001991991MA1999990098481MD1909990+0101MW1031REMSYN004BUFR
0136825860999992014030700004-05200-039300FM-12+021299999V0203601N0015199999999001000199+02541+02421101231ADDAA101999990AZ101061AZ201061GA1041+008001081GE19MSL   +99999+99999GF104991041990008001991991MA1999990098521MD1909990+0081REMSYN004BUFR
0187825860999992014030712004-05200-039300FM-12+021299999V0200501N0021100800199020000199+02591+02531101361ADDAA124014031AY151061AY221061GA1081+008001071GA2991+999991101GA3991+999991101GE19MSL   +99999+99999GF108991081990008001991991KA1120N+02291MA1999990098681MD1909990+0081MW1031REMSYN004BUFR
0142825860999992014030718004-05200-039300FM-12+021299999V0200501N0036199999999020000199+03051+02401101091ADDAA106004031AY161061AY221061GA1041+008001081GE19MSL   +99999+99999GF104991041990008001991991MA1999990098421MD1909990-0061MW1031REMSYN004BUFR
0142825860999992014030800004-05200-039300FM-12+021299999V0203601N0000100800199001000199+02521+02431101211ADDAA101999990AY121061AY221061GA1061+008001091GE19MSL   +99999+99999GF106991061990008001991991MA1999990098531MD1909990-0021MW1131REMSYN004BUFR
0181825860999992014030812004-05200-039300FM-12+021299999V0200901N0021100800199020000199+02641+02421101471ADDAA124004031AZ101061AZ201061GA1081+008001071GA2991+999991101GA3991+999991101GE19MSL   +99999+99999GF108991081990008001991991KA1120N+02361MA1999990098781MD1909990+0101REMSYN004BUFR
0136825860999992014030818004-05200-039300FM-12+021299999V0200501N0062100800199020000199+02971+02701101061ADDAA101999990AZ101061AZ201061GA1061+008001061GE19MSL   +99999+99999GF106991061990008001991991MA1999990098401MD1909990-0021REMSYN004BUFR
0136825860999992014030900004-05200-039300FM-12+021299999V0203601N0031199999999001000199+02741+02471101181ADDAA101999990AZ101061AZ201061GA1041+008001081GE19MSL   +99999+99999GF104991041990008001991991MA1999990098511MD1909990-0021REMSYN004BUFR
0149825860999992014030912004-05200-039300FM-12+021299999V0200501N0036100800199020000199+02771+02661101351ADDAA101999990AZ101061AZ201061GA1071+008001061GE19MSL   +99999+99999GF107991071990008001991991KA1120N+02391MA1999990098681MD1909990-0101REMSYN004BUFR
0136825860999992014030918004-05200-039300FM-12+021299999V0200501N0051100800199020000199+03251+02441101101ADDAA101999990AZ101061AZ201061GA1061+008001061GE19MSL   +99999+99999GF106991061990008001991991MA1999990098451MD1909990+0051REMSYN004BUFR
0136825860999992014031000004-05200-039300FM-12+021299999V0203601N0031100800199001000199+02621+02371101291ADDAA101999990AZ101061AZ201061GA1051+008001061GE19MSL   +99999+99999GF105991051990008001991991MA1999990098621MD1909990+0111REMSYN004BUFR
0187825860999992014031012004-05200-039300FM-12+021299999V0201401N0021100800199020000199+02491+02411101461ADDAA124007031AY161061AY261061GA1081+008001071GA2991+999991101GA3991+999991101GE19MSL   +99999+99999GF108991081990008001991991KA1120N+02201MA1999990098771MD1909990+0091MW1151REMSYN004BUFR
0142825860999992014031018004-05200-039300FM-12+021299999V0200901N0041100800199020000199+03151+02391100991ADDAA106008031AY161061AY261061GA1051+008001061GE19MSL   +99999+99999GF105991051990008001991991MA1999990098331MD1909990-0121MW1021REMSYN004BUFR
0168825860999992014031100004-05200-039300FM-12+021299999V0203601N0031100800199001000199+02591+02481101181ADDAA101999990AZ101061AZ201061GA1081+008001071GA2991+999991101GA3991+999991101GE19MSL   +99999+99999GF108991081990008001991991MA1999990098501MD1909990-0121REMSYN004BUFR
0155825860999992014031112004-05200-039300FM-12+021299999V0200901N0046100800199020000199+02591+02481101391ADDAA124011031AY161061AY221061GA1071+008001061GE19MSL   +99999+99999GF107991071990008001991991KA1120N+02121MA1999990098711MD1909990-0061MW1151REMSYN004BUFR
0142825860999992014031118004-05200-039300FM-12+021299999V0201401N0051100800199020000199+02491+02381100162ADDAA106004031AY161061AY251061GA1061+008001061GE19MSL   +99999+99999GF106991061990008001991991MA1999990098451MD1909990+0121MW1611REMSYN004BUFR
0136825860999992014031200004-05200-039300FM-12+021299999V0203601N0031100800199001000199+02621+02411101231ADDAA101999990AZ101061AZ201061GA1061+008001061GE19MSL   +99999+99999GF106991061990008001991991MA1999990098551MD1909990+0051REMSYN004BUFR
0155825860999992014031212004-05200-039300FM-12+021299999V020999999999900800199020000199+02591+02481101351ADDAA124005031AY161061AY221061GA1061+008001061GE19MSL   +99999+99999GF106991061990008001991991KA1120N+02281MA1999990098711MD1909990+0001MW1151REMSYN004BUFR
0142825860999992014031218004-05200-039300FM-12+021299999V0200901N0021100800199020000199+03191+02431101001ADDAA106001031AY161061AY221061GA1061+008001061GE19MSL   +99999+99999GF106991061990008001991991MA1999990098351MD1909990-0101MW1151REMSYN004BUFR
0174825860999992014031300004-05200-039300FM-12+021299999V0203601N0051100800199001000199+02271+02231101221ADDAA106012031AY191061AY261061GA1081+008001061GA2991+999991101GA3991+999991101GE19MSL   +99999+99999GF108991081990008001991991MA1999990098531MD1909990-0021MW1631REMSYN004BUFR
0187825860999992014031312004-05200-039300FM-12+021299999V0203601N0000100800199020000199+02491+02451101441ADDAA124018031AY161061AY261061GA1081+008001071GA2991+999991101GA3991+999991101GE19MSL   +99999+99999GF108991081990008001991991KA1120N+02181MA1999990098731MD1909990+0021MW1211REMSYN004BUFR
0142825860999992014031318004-05200-039300FM-12+021299999V0203601N0031100800199020000199+02991+02721101161ADDAA106004031AY161061AY221061GA1061+008001081GE19MSL   +99999+99999GF106991061990008001991991MA1999990098481MD1909990+0131MW1031REMSYN004BUFR
0174825860999992014031400004-05200-039300FM-12+021299999V0203601N0021100800199001000199+02241+02211101431ADDAA106010031AY191061AY261061GA1081+008001091GA2991+999991101GA3991+999991101GE19MSL   +99999+99999GF108991081990008001991991MA1999990098721MD1909990+0191MW1611REMSYN004BUFR
0171825860999992014031412004-05200-039300FM-12+021299999V0200901N0021199999999020000199+02471+02361101501ADDAA124014031AY151061AY221061GA1041+008001061GA2991+999991031GE19MSL   +99999+99999GF106991041990008001991991KA1120N+02111MA1999990098791MD1909990+0061MW1151REMSYN004BUFR
0136825860999992014031418004-05200-039300FM-12+021299999V0200501N0015100800199020000199+03041+02111101121ADDAA101999990AZ101061AZ201061GA1061+008001061GE19MSL   +99999+99999GF106991061990008001991991MA1999990098451MD1909990-0031REMSYN004BUFR
0149825860999992014031512004-05200-039300FM-12+021299999V0200901N0031199999999020000199+02771+02561101321ADDAA124016031AZ101061AZ201061GA1031+008001081GE19MSL   +99999+99999GF105991031990008001991991KA1120N+02081MA1999990098631MD1909990-0161REMSYN004BUFR
0152825860999992014031518004-05200-039300FM-12+021299999V0200901N0015199999999020000199+03051+02301101041ADDAA101999990AZ101061AZ201061GA1021+008001081GA2991+999991031GE19MSL   +99999+99999GF102991021990008001991991MA1999990098371MD1909990-0081REMSYN004BUFR
0158825860999992014031600004-05200-039300FM-12+021299999V0201401N0026199999999004000199+02441+02321101261ADDAA101999990AY121061AY221061GA1041+008001091GA2991+999991031GE19MSL   +99999+99999GF106991041990008001991991MA1999990098571MD1909990-0051MW1131REMSYN004BUFR
0155825860999992014031612004-05200-039300FM-12+021299999V0200901N0031100800199020000199+02491+02471101361ADDAA124023031AY191061AY261061GA1051+008001061GE19MSL   +99999+99999GF105991051990008001991991KA1120N+02161MA1999990098671MD1909990+0041MW1031REMSYN004BUFR
0136825860999992014031618004-05200-039300FM-12+021299999V0200501N0051199999999020000199+03191+02461101091ADDAA101999990AZ101061AZ201061GA1041+008001081GE19MSL   +99999+99999GF104991041990008001991991MA1999990098421MD1909990+0051REMSYN004BUFR
0174825860999992014031700004-05200-039300FM-12+021299999V0203601N0015100800199001000199+02321+02291101301ADDAA106011031AY191061AY261061GA1081+008001071GA2991+999991101GA3991+999991101GE19MSL   +99999+99999GF108991081990008001991991MA1999990098601MD1909990+0031MW1511REMSYN004BUFR
0155825860999992014031712004-05200-039300FM-12+021299999V0200501N0036100800199020000199+02641+02521101421ADDAA124011031AY121061AY221061GA1061+008001061GE19MSL   +99999+99999GF106991061990008001991991KA1120N+02181MA1999990098731MD1909990+0061MW1151REMSYN004BUFR
0136825860999992014031718004-05200-039300FM-12+021299999V0200501N0051100800199020000199+03191+02461101081ADDAA101999990AZ101061AZ201061GA1051+008001081GE19MSL   +99999+99999GF105991051990008001991991MA1999990098521MD1909990+0001REMSYN004BUFR
0136825860999992014031800004-05200-039300FM-12+021299999V0200501N0031199999999001000199+02491+02381101211ADDAA101999990AZ101061AZ201061GA1021+008001081GE19MSL   +99999+99999GF102991021990008001991991MA1999990098531MD1909990-0071REMSYN004BUFR
0149825860999992014031812004-05200-039300FM-12+021299999V0200901N0041100800199020000199+02691+02561101381ADDAA101999990AZ101061AZ201061GA1061+008001081GE19MSL   +99999+99999GF106991061990008001991991KA1120N+02281MA1999990098701MD1909990-0031REMSYN004BUFR
0136825860999992014031818004-05200-039300FM-12+021299999V0200501N0031199999999020000199+03191+02351100921ADDAA101999990AZ101061AZ201061GA1041+008001081GE19MSL   +99999+99999GF104991041990008001991991MA1999990098361MD1909990-0061REMSYN004BUFR
0174825860999992014031900004-05200-039300FM-12+021299999V0203601N0026100800199001000199+02451+02411101191ADDAA106005031AY161061AY221061GA1081+008001091GA2991+999991101GA3991+999991101GE19MSL   +99999+99999GF108991081990008001991991MA1999990098511MD1909990-0021MW1131REMSYN004BUFR
0187825860999992014031912004-05200-039300FM-12+021299999V0200901N0015100800199020000199+02451+02341101491ADDAA124010031AY191061AY261061GA1081+008001071GA2991+999991101GA3991+999991101GE19MSL   +99999+99999GF108991081990008001991991KA1120N+02081MA1999990098791MD1909990+0091MW1151REMSYN004BUFR
0168825860999992014031918004-05200-039300FM-12+021299999V0200901N0036100800199020000199+03091+02371101161ADDAA101999990AZ101061AZ201061GA1081+008001071GA2991+999991101GA3991+999991101GE19MSL   +99999+99999GF108991081990008001991991MA1999990098481MD1909990+0121REMSYN004BUFR
0174825860999992014032000004-05200-039300FM-12+021299999V0200901N0031100800199001000199+02341+02311101281ADDAA106004031AY191061AY261061GA1081+008001071GA2991+999991101GA3991+999991101GE19MSL   +99999+99999GF108991081990008001991991MA1999990098581MD1909990+0071MW1511REMSYN004BUFR
0155825860999992014032012004-05200-039300FM-12+021299999V0200501N0041100800199020000199+02621+02531101371ADDAA124004031AY151061AY221061GA1061+008001061GE19MSL   +99999+99999GF106991061990008001991991KA1120N+02221MA1999990098681MD1909990-0111MW1151REMSYN004BUFR
0152825860999992014032018004-05200-039300FM-12+021299999V0200501N0026199999999020000199+03091+02541101061ADDAA101999990AZ101061AZ201061GA1041+008001081GA2991+999991051GE19MSL   +99999+99999GF106991041990008001991991MA1999990098401MD1909990-0081REMSYN004BUFR
0149825860999992014032112004-05200-039300FM-12+021299999V0200901N0026199999999020000199+02691+02561101381ADDAA101999990AZ101061AZ201061GA1041+008001081GE19MSL   +99999+99999GF106991041990008001991991KA1120N+02391MA1999990098701MD1909990+0021REMSYN004BUFR
0136825860999992014032118004-05200-039300FM-12+021299999V0200501N0041100800199020000199+03191+02581101171ADDAA101999990AZ101061AZ201061GA1051+008001081GE19MSL   +99999+99999GF105991051990008001991991MA1999990098521MD1909990+0121REMSYN004BUFR
0136825860999992014032200004-05200-039300FM-12+021299999V0203601N0031100800199001000199+02721+02451101221ADDAA101999990AZ101061AZ201061GA1061+008001081GE19MSL   +99999+99999GF106991061990008001991991MA1999990098551MD1909990+0071REMSYN004BUFR
0165825860999992014032212004-05200-039300FM-12+021299999V0200901N0026199999999020000199+02691+02501101401ADDAA101999990AZ101061AZ201061GA1031+008001081GA2991+999991001GE19MSL   +99999+99999GF105991031990008001991991KA1120N+02341MA1999990098731MD1909990+0031REMSYN004BUFR
0152825860999992014032218004-05200-039300FM-12+021299999V0200901N0031199999999020000199+03241+02501101171ADDAA101999990AZ101061AZ201061GA1031+008001081GA2991+999991001GE19MSL   +99999+99999GF106991031990008001991991MA1999990098521MD1909990+0001REMSYN004BUFR
0136825860999992014032300004-05200-039300FM-12+021299999V0203601N0031100800199001000199+02641+02521101261ADDAA101999990AZ101061AZ201061GA1061+008001061GE19MSL   +99999+99999GF106991061990008001991991MA1999990098591MD1909990+0041REMSYN004BUFR
0149825860999992014032312004-05200-039300FM-12+021299999V0200501N0041100800199020000199+02651+02431101371ADDAA101999990AZ101061AZ201061GA1071+008001061GE19MSL   +99999+99999GF107991071990008001991991KA1120N+02401MA1999990098691MD1909990-0041REMSYN004BUFR
0152825860999992014032318004-05200-039300FM-12+021299999V0200501N0041199999999020000199+03271+02341101121ADDAA101999990AZ101061AZ201061GA1031+008001081GA2991+999991001GE19MSL   +99999+99999GF106991031990008001991991MA1999990098471MD1909990-0051REMSYN004BUFR
0136825860999992014032400004-05200-039300FM-12+021299999V0203601N0026199999999001000199+02691+02461101201ADDAA101999990AZ101061AZ201061GA1041+008001081GE19MSL   +99999+99999GF104991041990008001991991MA1999990098531MD1909990-0061REMSYN004BUFR
0149825860999992014032412004-05200-039300FM-12+021299999V0200501N0031199999999050000199+02791+02441101461ADDAA101999990AZ101061AZ201061GA1041+008001081GE19MSL   +99999+99999GF106991041990008001991991KA1120N+02321MA1999990098791MD1909990+0101REMSYN004BUFR
0152825860999992014032418004-05200-039300FM-12+021299999V0200501N0036100800199020000199+03091+02361101091ADDAA101999990AZ101061AZ201061GA1051+008001061GA2991+999991051GE19MSL   +99999+99999GF107991051990008001991991MA1999990098431MD1909990-0041REMSYN004BUFR
0098825860999992014032500004-05200-039300FM-12+021299999V0203601N0015122000199001000199+02591+02371101171ADDAA101999990AZ101061AZ201061GF100991999999999999999999MA1999990098521MD1909990-0011REMSYN004BUFR
0149825860999992014032512004-05200-039300FM-12+021299999V0200901N0015100800199020000199+02691+02411101471ADDAA101999990AZ101061AZ201061GA1071+008001061GE19MSL   +99999+99999GF107991071990008001991991KA1120N+02381MA1999990098801MD1909990+0011REMSYN004BUFR
0136825860999992014032518004-05200-039300FM-12+021299999V0200501N0051100800199020000199+03421+02231101171ADDAA101999990AZ101061AZ201061GA1051+008001081GE19MSL   +99999+99999GF105991051990008001991991MA1999990098531MD1909990+0101REMSYN004BUFR
0142825860999992014032600004-05200-039300FM-12+021299999V0203601N0051100800199001000199+02671+02461101341ADDAA101999990AY121061AY221061GA1061+008001091GE19MSL   +99999+99999GF106991061990008001991991MA1999990098671MD1909990-0151MW1131REMSYN004BUFR
0165825860999992014032612004-05200-039300FM-12+021299999V0200501N0041199999999020000199+02791+02361101551ADDAA101999990AZ101061AZ201061GA1021+008001081GA2991+999991001GE19MSL   +99999+99999GF104991021990008001991991KA1120N+02281MA1999990098881MD1909990+0081REMSYN004BUFR
0152825860999992014032618004-05200-039300FM-12+021299999V0200501N0031199999999020000199+03171+02361101241ADDAA101999990AZ101061AZ201061GA1021+008001081GA2991+999991001GE19MSL   +99999+99999GF104991021990008001991991MA1999990098581MD1909990+0051REMSYN004BUFR
0136825860999992014032700004-05200-039300FM-12+021299999V0203601N0041199999999001000199+02621+02371101381ADDAA101999990AZ101061AZ201061GA1041+008001081GE19MSL   +99999+99999GF104991041990008001991991MA1999990098711MD1909990+0041REMSYN004BUFR
0149825860999992014032712004-05200-039300FM-12+021299999V0200901N0026100800199020000199+02791+02311101451ADDAA101999990AZ101061AZ201061GA1061+008001061GE19MSL   +99999+99999GF106991061990008001991991KA1120N+02221MA1999990098781MD1909990-0101REMSYN004BUFR
0136825860999992014032718004-05200-039300FM-12+021299999V0200901N0036100800199020000199+03391+02401101151ADDAA101999990AZ101061AZ201061GA1051+008001061GE19MSL   +99999+99999GF105991051990008001991991MA1999990098501MD1909990-0081REMSYN004BUFR
0142825860999992014032800004-05200-039300FM-12+021299999V0203601N0041100800199002000199+02641+02461101241ADDAA101999990AY121061AY221061GA1061+008001081GE19MSL   +99999+99999GF106991061990008001991991MA1999990098571MD1909990-0141MW1131REMSYN004BUFR
0155825860999992014032812004-05200-039300FM-12+021299999V0200901N0021100800199020000199+02591+02481101501ADDAA124001031AY161061AY251061GA1061+008001061GE19MSL   +99999+99999GF106991061990008001991991KA1120N+02241MA1999990098811MD1909990+0031MW1501REMSYN004BUFR
0152825860999992014032818004-05200-039300FM-12+021299999V0200901N0051199999999020000199+03141+02401101061ADDAA101999990AZ101061AZ201061GA1031+008001081GA2991+999991001GE19MSL   +99999+99999GF106991031990008001991991MA1999990098401MD1909990-0101REMSYN004BUFR
0098825860999992014032900004-05200-039300FM-12+021299999V0203601N0041122000199001000199+02591+02251101211ADDAA101999990AZ101061AZ201061GF100991999999999999999999MA1999990098531MD1909990-0041REMSYN004BUFR
0155825860999992014032912004-05200-039300FM-12+021299999V0200501N0015199999999020000199+02451+02371101421ADDAA124004031AY161061AY221061GA1031+008001081GE19MSL   +99999+99999GF107991031990008001991991KA1120N+02261MA1999990098731MD1909990-0081MW1511REMSYN004BUFR
0136825860999992014032918004-05200-039300FM-12+021299999V0200501N0031100800199020000199+03251+02641101171ADDAA101999990AZ101061AZ201061GA1061+008001061GE19MSL   +99999+99999GF106991061990008001991991MA1999990098511MD1909990+0111REMSYN004BUFR
0136825860999992014033000004-05200-039300FM-12+021299999V0203601N0026100800199001000199+02491+02401101321ADDAA101999990AZ101061AZ201061GA1061+008001061GE19MSL   +99999+99999GF106991061990008001991991MA1999990098631MD1909990+0101REMSYN004BUFR
0149825860999992014033012004-05200-039300FM-12+021299999V0200901N0031100800199020000199+02691+02431101391ADDAA101999990AZ101061AZ201061GA1051+008001081GE19MSL   +99999+99999GF105991051990008001991991KA1120N+02301MA1999990098711MD1909990-0021REMSYN004BUFR
0136825860999992014033018004-05200-039300FM-12+021299999V0200501N0041199999999020000199+03291+02501101131ADDAA101999990AZ101061AZ201061GA1031+008001081GE19MSL   +99999+99999GF106991031990008001991991MA1999990098481MD1909990-0031REMSYN004BUFR
0142825860999992014033100004-05200-039300FM-12+021299999V0203601N0041100800199001000199+02571+02461101251ADDAA101999990AY121061AY221061GA1061+008001091GE19MSL   +99999+99999GF106991061990008001991991MA1999990098581MD1909990-0051MW1131REMSYN004BUFR
0155825860999992014033112004-05200-039300FM-12+021299999V0201801N0010100800199020000199+02521+01441101441ADDAA124008031AY161061AY251061GA1071+008001071GE19MSL   +99999+99999GF107991071990008001991991KA1120N+02141MA1999990098751MD1909990+0041MW1031REMSYN004BUFR
0152825860999992014033118004-05200-039300FM-12+021299999V0203601N0041199999999020000199+02991+02441101081ADDAA101999990AZ101061AZ201061GA1021+008001081GA2991+999991001GE19MSL   +99999+99999GF105991021990008001991991MA1999990098411MD1909990-0071REMSYN004BUFR
0136825860999992014040100004-05200-039300FM-12+021299999V0202301N0015199999999001000199+02391+02331101201ADDAA101999990AZ101061AZ201061GA1041+008001081GE19MSL   +99999+99999GF104991041990008001991991MA1999990098511MD1909990-0071REMSYN004BUFR
0149825860999992014040112004-05200-039300FM-12+021299999V0200501N0015100800199020000199+02591+02551101291ADDAA101999990AZ101061AZ201061GA1071+008001071GE19MSL   +99999+99999GF107991071990008001991991KA1120N+02201MA1999990098601MD1909990-0151REMSYN004BUFR
0152825860999992014040118004-05200-039300FM-12+021299999V0200501N0051199999999020000199+03191+02281101071ADDAA101999990AZ101061AZ201061GA1021+008001081GA2991+999991001GE19MSL   +99999+99999GF104991021990008001991991MA1999990098411MD1909990+0001REMSYN004BUFR
0136825860999992014040200004-05200-039300FM-12+021299999V0203601N0031199999999001000199+02621+02501101151ADDAA101999990AZ101061AZ201061GA1021+008001081GE19MSL   +99999+99999GF102991021990008001991991MA1999990098471MD1909990-0041REMSYN004BUFR
0149825860999992014040212004-05200-039300FM-12+021299999V0200501N0031100800199020000199+02641+02441101251ADDAA101999990AZ101061AZ201061GA1051+008001081GE19MSL   +99999+99999GF108991051990008001991991KA1120N+02401MA1999990098581MD1909990-0021REMSYN004BUFR
0136825860999992014040218004-05200-039300FM-12+021299999V0200501N0015100800199020000199+03191+02331101041ADDAA101999990AZ101061AZ201061GA1061+008001081GE19MSL   +99999+99999GF106991061990008001991991MA1999990098391MD1909990-0021REMSYN004BUFR
0136825860999992014040300004-05200-039300FM-12+021299999V0203601N0010100800199001000199+02441+02371101161ADDAA101999990AZ101061AZ201061GA1061+008001081GE19MSL   +99999+99999GF106991061990008001991991MA1999990098481MD1909990+0011REMSYN004BUFR
0149825860999992014040312004-05200-039300FM-12+021299999V0200501N0031100800199020000199+02691+02561101201ADDAA101999990AZ101061AZ201061GA1061+008001061GE19MSL   +99999+99999GF106991061990008001991991KA1120N+02291MA1999990098521MD1909990-0061REMSYN004BUFR
0136825860999992014040318004-05200-039300FM-12+021299999V0200501N0041199999999020000199+03291+02481100981ADDAA101999990AZ101061AZ201061GA1041+008001081GE19MSL   +99999+99999GF106991041990008001991991MA1999990098331MD1909990-0061REMSYN004BUFR
0187825860999992014040412004-05200-039300FM-12+021299999V0200901N0036100800199020000199+02441+02391101521ADDAA124001031AY161061AY221061GA1081+008001071GA2991+999991101GA3991+999991101GE19MSL   +99999+99999GF108991081990008001991991KA1120N+02261MA1999990098821MD1909990+0301MW1021REMSYN004BUFR
0136825860999992014040418004-05200-039300FM-12+021299999V0200901N0051100800199020000199+03191+02531101221ADDAA101999990AZ101061AZ201061GA1061+008001061GE19MSL   +99999+99999GF106991061990008001991991MA1999990098331MD1909990+0221REMSYN004BUFR
0149825860999992014040512004-05200-039300FM-12+021299999V0200501N0026100800199020000199+02741+02601101471ADDAA101999990AZ101061AZ201061GA1061+008001081GE19MSL   +99999+99999GF106991061990008001991991KA1120N+02401MA1999990098781MD1909990-0041REMSYN004BUFR
0142825860999992014040518004-05200-039300FM-12+021299999V0203601N0026100800199020000199+02621+02481101381ADDAA106007031AY161061AY221061GA1061+008001081GE19MSL   +99999+99999GF106991061990008001991991MA1999990098391MD1909990+0131MW1031REMSYN004BUFR
0136825860999992014040600004-05200-039300FM-12+021299999V0201401N0015100800199001000199+02351+02281101411ADDAA101999990AZ101061AZ201061GA1061+008001061GE19MSL   +99999+99999GF106991061990008001991991MA1999990098721MD1909990+0051REMSYN004BUFR
0149825860999992014040612004-05200-039300FM-12+021299999V0200901N0031100800199020000199+02641+02611101531ADDAA124007031AZ101061AZ201061GA1071+008001061GE19MSL   +99999+99999GF107991071990008001991991KA1120N+02261MA1999990098831MD1909990+0051REMSYN004BUFR
0174825860999992014040618004-05200-039300FM-12+021299999V0203601N0051100800199020000199+02821+02791101291ADDAA106002031AY121061AY221061GA1081+008001071GA2991+999991101GA3991+999991101GE19MSL   +99999+99999GF108991081990008001991991MA1999990098601MD1909990-0091MW1601REMSYN004BUFR
0142825860999992014040700004-05200-039300FM-12+021299999V0200501N0015199999999001000199+02421+02371101411ADDAA106001031AY161061AY221061GA1031+008001081GE19MSL   +99999+99999GF106991031990008001991991MA1999990098721MD1909990+0001MW1031REMSYN004BUFR
0181825860999992014040712004-05200-039300FM-12+021299999V0200501N0015100800199020000199+02591+02481101431ADDAA124003031AZ101061AZ201061GA1081+008001071GA2991+999991101GA3991+999991101GE19MSL   +99999+99999GF108991081990008001991991KA1120N+02261MA1999990098741MD1909990-0091REMSYN004BUFR
0174825860999992014040800004-05200-039300FM-12+021299999V0200501N0021100800199001000199+02391+02301101481ADDAA106001031AY161061AY221061GA1081+008001071GA2991+999991101GA3991+999991101GE19MSL   +99999+99999GF108991081990008001991991MA1999990098781MD1909990+0061MW1031REMSYN004BUFR
0187825860999992014040812004-05200-039300FM-12+021299999V0200501N0015100800199020000199+02491+02451101531ADDAA124010031AY151061AY221061GA1081+008001071GA2991+999991101GA3991+999991101GE19MSL   +99999+99999GF108991081990008001991991KA1120N+02141MA1999990098831MD1909990+0091MW1161REMSYN004BUFR
0136825860999992014040818004-05200-039300FM-12+021299999V0200901N0015100800199020000199+02941+02521101271ADDAA101999990AZ101061AZ201061GA1051+008001081GE19MSL   +99999+99999GF105991051990008001991991MA1999990098581MD1909990+0011REMSYN004BUFR
0142825860999992014040900004-05200-039300FM-12+021299999V0200501N0015100800199001000199+02371+02331101381ADDAA106001031AY161061AY221061GA1061+008001061GE19MSL   +99999+99999GF106991061990008001991991MA1999990098681MD1909990-0101MW1031REMSYN004BUFR
0181825860999992014040912004-05200-039300FM-12+021299999V0200501N0031100800199020000199+02491+02451101481ADDAA124001031AZ101061AZ201061GA1081+008001071GA2991+999991101GA3991+999991101GE19MSL   +99999+99999GF108991081990008001991991KA1120N+02291MA1999990098781MD1909990-0051REMSYN004BUFR
0158825860999992014040918004-05200-039300FM-12+021299999V0203601N0031199999999020000199+02841+02521101211ADDAA106008031AY161061AY221061GA1031+008001081GA2991+999991001GE19MSL   +99999+99999GF106991031990008001991991MA1999990098531MD1909990-0051MW1031REMSYN004BUFR
0136825860999992014041000004-05200-039300FM-12+021299999V0203601N0000199999999001000199+02451+02431101271ADDAA101999990AZ101061AZ201061GA1041+008001081GE19MSL   +99999+99999GF104991041990008001991991MA1999990098581MD1909990-0101REMSYN004BUFR
0149825860999992014041012004-05200-039300FM-12+021299999V0200501N0026100800199020000199+02541+02491101391ADDAA124008031AZ101061AZ201061GA1071+008001061GE19MSL   +99999+99999GF107991071990008001991991KA1120N+02201MA1999990098701MD1909990-0081REMSYN004BUFR
0158825860999992014041018004-05200-039300FM-12+021299999V0200501N0036199999999020000199+02991+02551101151ADDAA106002031AY161061AY221061GA1021+008001081GA2991+999991001GE19MSL   +99999+99999GF104991021990008001991991MA1999990098471MD1909990-0061MW1031REMSYN004BUFR
0136825860999992014041100004-05200-039300FM-12+021299999V0203601N0015199999999001000199+02591+02511101371ADDAA101999990AZ101061AZ201061GA1021+008001081GE19MSL   +99999+99999GF102991021990008001991991MA1999990098671MD1909990+0091REMSYN004BUFR
0181825860999992014041112004-05200-039300FM-12+021299999V0200901N0026100800199020000199+02541+02511101411ADDAA124002031AZ101061AZ201061GA1081+008001071GA2991+999991101GA3991+999991101GE19MSL   +99999+99999GF108991081990008001991991KA1120N+02301MA1999990098721MD1909990+0021REMSYN004BUFR
0152825860999992014041118004-05200-039300FM-12+021299999V0200501N0036199999999020000199+02991+02551101301ADDAA101999990AZ101061AZ201061GA1021+008001081GA2991+999991001GE19MSL   +99999+99999GF104991021990008001991991MA1999990098611MD1909990+0141REMSYN004BUFR
0136825860999992014041200004-05200-039300FM-12+021299999V0203601N0015199999999001000199+02591+02511101291ADDAA101999990AZ101061AZ201061GA1021+008001081GE19MSL   +99999+99999GF102991021990008001991991MA1999990098611MD1909990+0061REMSYN004BUFR
0149825860999992014041212004-05200-039300FM-12+021299999V0200501N0031100800199020000199+02691+02561101431ADDAA101999990AZ101061AZ201061GA1061+008001061GE19MSL   +99999+99999GF106991061990008001991991KA1120N+02391MA1999990098751MD1909990+0031REMSYN004BUFR
0152825860999992014041218004-05200-039300FM-12+021299999V0200501N0021199999999020000199+03051+02611101161ADDAA101999990AZ101061AZ201061GA1031+008001081GA2991+999991051GE19MSL   +99999+99999GF106991031990008001991991MA1999990098501MD1909990-0011REMSYN004BUFR
0142825860999992014041300004-05200-039300FM-12+021299999V0200501N0015100800199001000199+02471+02411101221ADDAA101999990AY121061AY221061GA1051+008001091GE19MSL   +99999+99999GF105991051990008001991991MA1999990098551MD1909990+0041MW1131REMSYN004BUFR
0149825860999992014041312004-05200-039300FM-12+021299999V0200501N0041199999999020000199+02741+02601101311ADDAA101999990AZ101061AZ201061GA1041+008001081GE19MSL   +99999+99999GF104991041990008001991991KA1120N+02401MA1999990098631MD1909990-0121REMSYN004BUFR
0136825860999992014041318004-05200-039300FM-12+021299999V0200501N0031199999999020000199+03151+02551101071ADDAA101999990AZ101061AZ201061GA1021+008001081GE19MSL   +99999+99999GF102991021990008001991991MA1999990098411MD1909990-0091REMSYN004BUFR
0098825860999992014041400004-05200-039300FM-12+021299999V0203601N0031122000199001000199+02591+02401101191ADDAA101999990AZ101061AZ201061GF100991999999999999999999MA1999990098521MD1909990-0031REMSYN004BUFR
0149825860999992014041412004-05200-039300FM-12+021299999V0200501N0036100800199020000199+02641+02371101261ADDAA101999990AZ101061AZ201061GA1061+008001061GE19MSL   +99999+99999GF106991061990008001991991KA1120N+02301MA1999990098581MD1909990-0051REMSYN004BUFR
0136825860999992014041418004-05200-039300FM-12+021299999V0200501N0031199999999020000199+03191+02151100901ADDAA101999990AZ101061AZ201061GA1041+008001081GE19MSL   +99999+99999GF104991041990008001991991MA1999990098251MD1909990-0161REMSYN004BUFR
0136825860999992014041500004-05200-039300FM-12+021299999V0203601N0046199999999001000199+02641+02091101101ADDAA101999990AZ101061AZ201061GA1021+008001081GE19MSL   +99999+99999GF102991021990008001991991MA1999990098431MD1909990-0091REMSYN004BUFR
0149825860999992014041512004-05200-039300FM-12+021299999V0200501N0041100800199020000199+02791+02441101291ADDAA101999990AZ101061AZ201061GA1051+008001061GE19MSL   +99999+99999GF105991051990008001991991KA1120N+02361MA1999990098571MD1909990-0011REMSYN004BUFR
0152825860999992014041518004-05200-039300FM-12+021299999V0200501N0046199999999020000199+03291+02301100911ADDAA101999990AZ101061AZ201061GA1021+008001081GA2991+999991001GE19MSL   +99999+99999GF104991021990008001991991MA1999990098201MD1909990+0021REMSYN004BUFR
0136825860999992014041600004-05200-039300FM-12+021299999V0203601N0015101250199001000199+02591+02391101031ADDAA101999990AZ101061AZ201061GA1061+012501031GE19MSL   +99999+99999GF106991061990012501991991MA1999990098371MD1909990-0061REMSYN004BUFR
0149825860999992014041612004-05200-039300FM-12+021299999V0200901N0010100800199020000199+02691+02481101151ADDAA101999990AZ101061AZ201061GA1051+008001081GE19MSL   +99999+99999GF105991051990008001991991KA1120N+02441MA1999990098481MD1909990-0091REMSYN004BUFR
0174825860999992014041618004-05200-039300FM-12+021299999V0201801N0021100800199020000199+02651+02611100951ADDAA106008031AY161061AY251061GA1081+008001071GA2991+999991101GA3991+999991101GE19MSL   +99999+99999GF108991081990008001991991MA1999990098271MD1909990+0001MW1151REMSYN004BUFR
0142825860999992014041700004-05200-039300FM-12+021299999V0202701N0015199999999001000199+02371+02351101141ADDAA106003031AY161061AY251061GA1041+008001081GE19MSL   +99999+99999GF104991041990008001991991MA1999990098461MD1909990+0091MW1031REMSYN004BUFR
0149825860999992014041712004-05200-039300FM-12+021299999V0200901N0041100800199020000199+02591+02511101221ADDAA124011031AZ101061AZ201061GA1061+008001061GE19MSL   +99999+99999GF106991061990008001991991KA1120N+02301MA1999990098511MD1909990+0031REMSYN004BUFR
0136825860999992014041718004-05200-039300FM-12+021299999V0200501N0046100800199020000199+03191+02121100951ADDAA101999990AZ101061AZ201061GA1051+008001081GE19MSL   +99999+99999GF105991051990008001991991MA1999990098271MD1909990+0001REMSYN004BUFR
0136825860999992014041800004-05200-039300FM-12+021299999V0200501N0046100800199004000199+02541+02491101151ADDAA101999990AZ101061AZ201061GA1061+008001081GE19MSL   +99999+99999GF106991061990008001991991MA1999990098471MD1909990+0011REMSYN004BUFR
0149825860999992014041812004-05200-039300FM-12+021299999V0200901N0021100800199020000199+02671+02391101201ADDAA101999990AZ101061AZ201061GA1051+008001081GE19MSL   +99999+99999GF105991051990008001991991KA1120N+02401MA1999990098521MD1909990+0031REMSYN004BUFR
0136825860999992014041818004-05200-039300FM-12+021299999V0200901N0051100800199020000199+03391+01801101011ADDAA101999990AZ101061AZ201061GA1051+008001081GE19MSL   +99999+99999GF105991051990008001991991MA1999990098361MD1909990+0091REMSYN004BUFR
0136825860999992014041900004-05200-039300FM-12+021299999V0203601N0031199999999001000199+02621+02481101091ADDAA101999990AZ101061AZ201061GA1041+008001061GE19MSL   +99999+99999GF104991041990008001991991MA1999990098481MD1909990-0051REMSYN004BUFR
0149825860999992014041912004-05200-039300FM-12+021299999V0200501N0026199999999020000199+02891+02521101251ADDAA101999990AZ101061AZ201061GA1041+008001081GE19MSL   +99999+99999GF104991041990008001991991KA1120N+02201MA1999990098591MD1909990+0071REMSYN004BUFR
0136825860999992014041918004-05200-039300FM-12+021299999V0200901N0051100800199020000199+03191+02611101071ADDAA101999990AZ101061AZ201061GA1051+008001081GE19MSL   +99999+99999GF105991051990008001991991MA1999990098411MD1909990+0051REMSYN004BUFR
0098825860999992014042000004-05200-039300FM-12+021299999V0203601N0015122000199001000199+02551+02491101141ADDAA101999990AZ101061AZ201061GF100991999999999999999999MA1999990098481MD1909990+0061REMSYN004BUFR
0149825860999992014042012004-05200-039300FM-12+021299999V0200501N0015100800199020000199+02791+02381101241ADDAA101999990AZ101061AZ201061GA1051+008001081GE19MSL   +99999+99999GF105991051990008001991991KA1120N+02361MA1999990098571MD1909990-0021REMSYN004BUFR
0152825860999992014042018004-05200-039300FM-12+021299999V0200901N0051199999999020000199+03391+02431101031ADDAA101999990AZ101061AZ201061GA1011+008001081GA2991+999991001GE19MSL   +99999+99999GF102991011990008001991991MA1999990098391MD1909990-0021REMSYN004BUFR
0098825860999992014042100004-05200-039300FM-12+021299999V0203601N0015122000199001000199+02621+02101101091ADDAA101999990AZ101061AZ201061GF100991999999999999999999MA1999990098431MD1909990-0051REMSYN004BUFR
0165825860999992014042112004-05200-039300FM-12+021299999V0200501N0031199999999020000199+02871+02351101181ADDAA101999990AZ101061AZ201061GA1021+008001081GA2991+999991001GE19MSL   +99999+99999GF104991021990008001991991KA1120N+02301MA1999990098521MD1909990-0051REMSYN004BUFR
0136825860999992014042118004-05200-039300FM-12+021299999V0200901N0051100800199020000199+03291+02451101011ADDAA101999990AZ101061AZ201061GA1051+008001081GE19MSL   +99999+99999GF105991051990008001991991MA1999990098361MD1909990-0031REMSYN004BUFR
0149825860999992014042212004-05200-039300FM-12+021299999V0200901N0041100800199020000199+02791+02381101251ADDAA101999990AZ101061AZ201061GA1051+008001081GE19MSL   +99999+99999GF105991051990008001991991KA1120N+02401MA1999990098591MD1909990+0071REMSYN004BUFR
0136825860999992014042300004-05200-039300FM-12+021299999V0200501N0026100800199001000199+02491+02381101121ADDAA101999990AZ101061AZ201061GA1062+008001061GE19MSL   +99999+99999GF105992062990008001991991MA1999990098471MD1909990-0041REMSYN004BUFR
0149825860999992014042312004-05200-039300FM-12+021299999V0200501N0051199999999020000199+02791+02461101291ADDAA101999990AZ101061AZ201061GA1031+008001081GE19MSL   +99999+99999GF105991031990008001991991KA1120N+02401MA1999990098621MD1909990+0031REMSYN004BUFR
0152825860999992014042318004-05200-039300FM-12+021299999V0200901N0041199999999020000199+03491+02411101051ADDAA101999990AZ101061AZ201061GA1021+008001081GA2991+999991001GE19MSL   +99999+99999GF104991021990008001991991MA1999990098411MD1909990+0111REMSYN004BUFR
0136825860999992014042400004-05200-039300FM-12+021299999V0203601N0031100800199001000199+02671+02541101161ADDAA101999990AZ101061AZ201061GA1051+008001061GE19MSL   +99999+99999GF105991051990008001991991MA1999990098501MD1909990+0051REMSYN004BUFR
0149825860999992014042412004-05200-039300FM-12+021299999V0200901N0010100800199020000199+02821+02481101271ADDAA101999990AZ101061AZ201061GA1061+008001081GE19MSL   +99999+99999GF106991061990008001991991KA1120N+02401MA1999990098611MD1909990-0011REMSYN004BUFR
0136825860999992014042418004-05200-039300FM-12+021299999V0200501N0026100800199020000199+03351+02331100921ADDAA101999990AZ101061AZ201061GA1051+008001081GE19MSL   +99999+99999GF105991051990008001991991MA1999990098281MD1909990-0131REMSYN004BUFR
0136825860999992014042500004-05200-039300FM-12+021299999V0203601N0051199999999001000199+02721+02501101051ADDAA101999990AZ101061AZ201061GA1021+008001081GE19MSL   +99999+99999GF102991021990008001991991MA1999990098381MD1909990-0121REMSYN004BUFR
0149825860999992014042512004-05200-039300FM-12+021299999V0200501N0051199999999020000199+02871+02281101171ADDAA101999990AZ101061AZ201061GA1041+008001081GE19MSL   +99999+99999GF104991041990008001991991KA1120N+02381MA1999990098521MD1909990-0091REMSYN004BUFR
0136825860999992014042518004-05200-039300FM-12+021299999V0200501N0041199999999020000199+03271+02261100941ADDAA101999990AZ101061AZ201061GA1031+008001081GE19MSL   +99999+99999GF103991031990008001991991MA1999990098301MD1909990+0021REMSYN004BUFR
0136825860999992014042600004-05200-039300FM-12+021299999V0200501N0041100800199001000199+02721+02341101051ADDAA101999990AZ101061AZ201061GA1051+008001081GE19MSL   +99999+99999GF105991051990008001991991MA1999990098401MD1909990+0021REMSYN004BUFR
0149825860999992014042612004-05200-039300FM-12+021299999V0200901N0031199999999020000199+02871+02441101181ADDAA101999990AZ101061AZ201061GA1021+008001081GE19MSL   +99999+99999GF102991021990008001991991KA1120N+02411MA1999990098531MD1909990+0011REMSYN004BUFR
0136825860999992014042618004-05200-039300FM-12+021299999V0200901N0041199999999020000199+03441+02281100841ADDAA101999990AZ101061AZ201061GA1031+008001081GE19MSL   +99999+99999GF103991031990008001991991MA1999990098211MD1909990-0091REMSYN004BUFR
0136825860999992014042700004-05200-039300FM-12+021299999V0203601N0015199999999001000199+02691+02371101061ADDAA101999990AZ101061AZ201061GA1041+008001061GE19MSL   +99999+99999GF104991041990008001991991MA1999990098401MD1909990+0001REMSYN004BUFR
0181825860999992014042712004-05200-039300FM-12+021299999V0200901N0026100800199020000199+02691+02501101251ADDAA101999990AZ101061AZ201061GA1081+008001071GA2991+999991101GA3991+999991101GE19MSL   +99999+99999GF108991081990008001991991KA1120N+02381MA1999990098581MD1909990+0051REMSYN004BUFR
0136825860999992014042718004-05200-039300FM-12+021299999V0200501N0051199999999020000199+03441+02431100921ADDAA101999990AZ101061AZ201061GA1041+008001081GE19MSL   +99999+99999GF104991041990008001991991MA1999990098281MD1909990+0071REMSYN004BUFR
0142825860999992014042800004-05200-039300FM-12+021299999V0203601N0021199999999002000199+02721+02411101091ADDAA101999990AY121061AY221061GA1041+008001081GE19MSL   +99999+99999GF104991041990008001991991MA1999990098481MD1909990+0031MW1131REMSYN004BUFR
0171825860999992014042812004-05200-039300FM-12+021299999V0201801N0015199999999020000199+02591+02511101271ADDAA124019031AY161061AY251061GA1031+008001081GA2991+999991001GE19MSL   +99999+99999GF105991031990008001991991KA1120N+02201MA1999990098601MD1909990+0021MW1031REMSYN004BUFR
0142825860999992014042818004-05200-039300FM-12+021299999V0201801N0026199999999020000199+02991+02621101101ADDAA101999990AY121061AY221061GA1041+008001081GE19MSL   +99999+99999GF104991041990008001991991MA1999990098431MD1909990+0151MW1151REMSYN004BUFR
0136825860999992014042900004-05200-039300FM-12+021299999V0203601N0000199999999001000199+02591+02461101191ADDAA101999990AZ101061AZ201061GA1041+008001081GE19MSL   +99999+99999GF104991041990008001991991MA1999990098511MD1909990+0081REMSYN004BUFR
0187825860999992014042912004-05200-039300FM-12+021299999V0201401N0021100800199020000199+02491+02401101321ADDAA124006031AY161061AY251061GA1081+008001061GA2991+999991101GA3991+999991101GE19MSL   +99999+99999GF108991081990008001991991KA1120N+02231MA1999990098631MD1909990+0031MW1031REMSYN004BUFR
0168825860999992014042918004-05200-039300FM-12+021299999V0201401N0036100800199020000199+02951+02401101171ADDAA101999990AZ101061AZ201061GA1081+008001061GA2991+999991101GA3991+999991101GE19MSL   +99999+99999GF108991081990008001991991MA1999990098491MD1909990+0061REMSYN004BUFR
0136825860999992014043000004-05200-039300FM-12+021299999V0201801N0015199999999001000199+02541+02471101191ADDAA101999990AZ101061AZ201061GA1041+008001081GE19MSL   +99999+99999GF106991041990008001991991MA1999990098501MD1909990-0011REMSYN004BUFR
0181825860999992014043012004-05200-039300FM-12+021299999V0201401N0031100800199020000199+02591+02421101151ADDAA101999990AZ101061AZ201061GA1081+008001071GA2991+999991101GA3991+999991101GE19MSL   +99999+99999GF108991081990008001991991KA1120N+02301MA1999990098471MD1909990-0161REMSYN004BUFR
0136825860999992014043018004-05200-039300FM-12+021299999V0200901N0041100800199020000199+02871+02661100951ADDAA101999990AZ101061AZ201061GA1071+008001071GE19MSL   +99999+99999GF107991071990008001991991MA1999990098281MD1909990-0211REMSYN004BUFR
0174825860999992014050100004-05200-039300FM-12+021299999V0203601N0000100800199001000199+02491+02471101011ADDAA106001031AY161061AY221061GA1081+008001071GA2991+999991101GA3991+999991101GE19MSL   +99999+99999GF108991081990008001991991MA1999990098331MD1909990-0171MW1031REMSYN004BUFR
0187825860999992014050112004-05200-039300FM-12+021299999V0203601N0000100800199020000199+02351+02341101121ADDAA124019031AY161061AY251061GA1081+008001071GA2991+999991101GA3991+999991101GE19MSL   +99999+99999GF108991081990008001991991KA1120N+02201MA1999990098431MD1909990-0041MW1211REMSYN004BUFR
0136825860999992014050118004-05200-039300FM-12+021299999V0200501N0041199999999020000199+03051+02401100881ADDAA101999990AZ101061AZ201061GA1041+008001081GE19MSL   +99999+99999GF104991041990008001991991MA1999990098221MD1909990-0061REMSYN004BUFR
0136825860999992014050200004-05200-039300FM-12+021299999V0203601N0015199999999020000199+02501+02431101061ADDAA101999990AZ101061AZ201061GA1041+008001081GE19MSL   +99999+99999GF104991041990008001991991MA1999990098371MD1909990+0041REMSYN004BUFR
0136825860999992014050218004-05200-039300FM-12+021299999V0200901N0041199999999020000199+03041+02651101041ADDAA101999990AZ101061AZ201061GA1021+008001081GE19MSL   +99999+99999GF104991021990008001991991MA1999990098331MD1909990+0161REMSYN004BUFR
0142825860999992014050300004-05200-039300FM-12+021299999V0201801N0015199999999001000199+02571+02491101181ADDAA101999990AY121061AY221061GA1041+008001091GE19MSL   +99999+99999GF104991041990008001991991MA1999990098501MD1909990+0131MW1131REMSYN004BUFR
0149825860999992014050312004-05200-039300FM-12+021299999V0200501N0010199999999020000199+02551+02351101321ADDAA101999990AZ101061AZ201061GA1041+008001081GE19MSL   +99999+99999GF107991041990008001991991KA1120N+02301MA1999990098631MD1909990+0111REMSYN004BUFR
0152825860999992014050318004-05200-039300FM-12+021299999V0200501N0031199999999020000199+03141+02431101121ADDAA101999990AZ101061AZ201061GA1031+008001081GA2991+999991001GE19MSL   +99999+99999GF104991031990008001991991MA1999990098451MD1909990+0081REMSYN004BUFR
0142825860999992014050400004-05200-039300FM-12+021299999V0200501N0015100800199001000199+02471+02411101261ADDAA106000231AY151061AY221061GA1051+008001091GE19MSL   +99999+99999GF105991051990008001991991MA1999990098571MD1909990+0071MW1131REMSYN004BUFR
0171825860999992014050412004-05200-039300FM-12+021299999V0200501N0041199999999020000199+02641+02411101331ADDAA124000431AY151061AY221061GA1031+008001081GA2991+999991031GE19MSL   +99999+99999GF105991031990008001991991KA1120N+02321MA1999990098651MD1909990+0021MW1031REMSYN004BUFR
0136825860999992014050418004-05200-039300FM-12+021299999V0200501N0041199999999020000199+03191+02331101091ADDAA101999990AZ101061AZ201061GA1041+008001081GE19MSL   +99999+99999GF104991041990008001991991MA1999990098431MD1909990-0021REMSYN004BUFR
0155825860999992014050512004-05200-039300FM-12+021299999V0200501N0015100800199020000199+02491+02321101261ADDAA124009031AY161061AY251061GA1071+008001071GE19MSL   +99999+99999GF107991071990008001991991KA1120N+02001MA1999990098571MD1909990-0081MW1031REMSYN004BUFR
0136825860999992014050518004-05200-039300FM-12+021299999V0200501N0041100800199020000199+03241+02391101081ADDAA101999990AZ101061AZ201061GA1051+008001081GE19MSL   +99999+99999GF105991051990008001991991MA1999990098411MD1909990-0021REMSYN004BUFR
0136825860999992014050600004-05200-039300FM-12+021299999V0201401N0010199999999001000199+02521+02341101171ADDAA101999990AZ101061AZ201061GA1021+008001081GE19MSL   +99999+99999GF102991021990008001991991MA1999990098481MD1909990-0041REMSYN004BUFR
0187825860999992014050612004-05200-039300FM-12+021299999V0203601N0000100800199020000199+02421+02391101381ADDAA124016031AY161061AY251061GA1081+008001071GA2991+999991101GA3991+999991101GE19MSL   +99999+99999GF108991081990008001991991KA1120N+02201MA1999990098681MD1909990+0111MW1031REMSYN004BUFR
0136825860999992014050618004-05200-039300FM-12+021299999V0200901N0041100800199020000199+03091+02631101141ADDAA101999990AZ101061AZ201061GA1071+008001071GE19MSL   +99999+99999GF107991071990008001991991MA1999990098471MD1909990+0061REMSYN004BUFR
0136825860999992014050700004-05200-039300FM-12+021299999V0203601N0015199999999001000199+02441+02331101251ADDAA101999990AZ101061AZ201061GA1021+008001081GE19MSL   +99999+99999GF102991021990008001991991MA1999990098551MD1909990+0071REMSYN004BUFR
0149825860999992014050712004-05200-039300FM-12+021299999V0200501N0015100800199020000199+02621+02531101321ADDAA101999990AZ101061AZ201061GA1071+008001081GE19MSL   +99999+99999GF107991071990008001991991KA1120N+02301MA1999990098631MD1909990-0051REMSYN004BUFR
0136825860999992014050718004-05200-039300FM-12+021299999V0200501N0036100800199020000199+03251+02331101171ADDAA101999990AZ101061AZ201061GA1061+008001061GE19MSL   +99999+99999GF106991061990008001991991MA1999990098521MD1909990+0051REMSYN004BUFR
0136825860999992014050800004-05200-039300FM-12+021299999V0200501N0031100800199001000199+02571+02461101271ADDAA101999990AZ101061AZ201061GA1062+008001071GE19MSL   +99999+99999GF105992062990008001991991MA1999990098591MD1909990+0041REMSYN004BUFR
0181825860999992014050812004-05200-039300FM-12+021299999V0200501N0026100800199020000199+02491+02361101311ADDAA101999990AZ101061AZ201061GA1081+008001061GA2991+999991101GA3991+999991101GE19MSL   +99999+99999GF108991081990008001991991KA1120N+02261MA1999990098621MD1909990-0011REMSYN004BUFR
0136825860999992014050818004-05200-039300FM-12+021299999V0200901N0031100800199020000199+03121+02251101091ADDAA101999990AZ101061AZ201061GA1061+008001061GE19MSL   +99999+99999GF106991061990008001991991MA1999990098491MD1909990-0091REMSYN004BUFR
0136825860999992014050900004-05200-039300FM-12+021299999V0203601N0000199999999001000199+02471+02371101181ADDAA101999990AZ101061AZ201061GA1041+008001081GE19MSL   +99999+99999GF104991041990008001991991MA1999990098491MD1909990-0101REMSYN004BUFR
0149825860999992014050912004-05200-039300FM-12+021299999V0200901N0015100800199020000199+02591+02511101241ADDAA101999990AZ101061AZ201061GA1071+008001071GE19MSL   +99999+99999GF107991071990008001991991KA1120N+02301MA1999990098551MD1909990-0071REMSYN004BUFR
0136825860999992014050918004-05200-039300FM-12+021299999V0200901N0031199999999020000199+03241+02311100961ADDAA101999990AZ101061AZ201061GA1041+008001081GE19MSL   +99999+99999GF104991041990008001991991MA1999990098311MD1909990-0121REMSYN004BUFR
0098825860999992014051000004-05200-039300FM-12+021299999V0203601N0015122000199001000199+02491+02361101061ADDAA101999990AZ101061AZ201061GF100991999999999999999999MA1999990098381MD1909990-0111REMSYN004BUFR
0149825860999992014051012004-05200-039300FM-12+021299999V0200901N0031100800199020000199+02741+02431101191ADDAA101999990AZ101061AZ201061GA1051+008001081GE19MSL   +99999+99999GF105991051990008001991991KA1120N+02201MA1999990098531MD1909990-0021REMSYN004BUFR
0152825860999992014051018004-05200-039300FM-12+021299999V0200901N0036199999999020000199+03251+02351100921ADDAA101999990AZ101061AZ201061GA1021+008001081GA2991+999991001GE19MSL   +99999+99999GF106991021990008001991991MA1999990098271MD1909990-0041REMSYN004BUFR
0152825860999992014051100004-05200-039300FM-12+021299999V0203601N0031199999999001000199+02571+02461101131ADDAA101999990AZ101061AZ201061GA1031+008001081GA2991+999991051GE19MSL   +99999+99999GF107991031990008001991991MA1999990098461MD1909990+0081REMSYN004BUFR
0149825860999992014051112004-05200-039300FM-12+021299999V0200501N0021100800199020000199+02691+02581101251ADDAA101999990AZ101061AZ201061GA1071+008001061GE19MSL   +99999+99999GF107991071990008001991991KA1120N+02301MA1999990098581MD1909990+0051REMSYN004BUFR
0136825860999992014051118004-05200-039300FM-12+021299999V0200501N0051100800199020000199+03291+02361101001ADDAA101999990AZ101061AZ201061GA1061+008001061GE19MSL   +99999+99999GF106991061990008001991991MA1999990098351MD1909990+0071REMSYN004BUFR
0174825860999992014051200004-05200-039300FM-12+021299999V0201801N0026100800199001000199+02471+02391101211ADDAA106004031AY161061AY251061GA1081+008001071GA2991+999991101GA3991+999991101GE19MSL   +99999+99999GF108991081990008001991991MA1999990098531MD1909990+0071MW1031REMSYN004BUFR
0155825860999992014051212004-05200-039300FM-12+021299999V0200501N0051100800199020000199+02551+02511101291ADDAA124007031AY161061AY251061GA1071+008001061GE19MSL   +99999+99999GF107991071990008001991991KA1120N+02261MA1999990098601MD1909990+0021MW1031REMSYN004BUFR
0152825860999992014051218004-05200-039300FM-12+021299999V0200501N0031199999999020000199+03221+02531101061ADDAA101999990AZ101061AZ201061GA1031+008001081GA2991+999991031GE19MSL   +99999+99999GF106991031990008001991991MA1999990098401MD1909990+0051REMSYN004BUFR
0168825860999992014051300004-05200-039300FM-12+021299999V0203601N0015199999999001000199+02541+02451101161ADDAA101999990AZ101061AZ201061GA1041+008001061GA2991+999991031GA3991+999991101GE19MSL   +99999+99999GF108991041990008001991991MA1999990098481MD1909990-0031REMSYN004BUFR
0149825860999992014051312004-05200-039300FM-12+021299999V0200901N0015100800199020000199+02591+02401101261ADDAA101999990AZ101061AZ201061GA1061+008001081GE19MSL   +99999+99999GF106991061990008001991991KA1120N+02291MA1999990098581MD1909990-0021REMSYN004BUFR
0136825860999992014051318004-05200-039300FM-12+021299999V0200901N0015100800199020000199+03091+02651101071ADDAA101999990AZ101061AZ201061GA1061+008001061GE19MSL   +99999+99999GF106991061990008001991991MA1999990098411MD1909990+0011REMSYN004BUFR
0152825860999992014051400004-05200-039300FM-12+021299999V0200901N0015199999999001000199+02551+02441101191ADDAA101999990AZ101061AZ201061GA1031+008001061GA2991+999991001GE19MSL   +99999+99999GF106991031990008001991991MA1999990098511MD1909990+0031REMSYN004BUFR
0181825860999992014051412004-05200-039300FM-12+021299999V0200501N0026100800199020000199+02491+02411101261ADDAA101999990AZ101061AZ201061GA1081+008001071GA2991+999991101GA3991+999991101GE19MSL   +99999+99999GF108991081990008001991991KA1120N+02391MA1999990098581MD1909990-0011REMSYN004BUFR
0168825860999992014051418004-05200-039300FM-12+021299999V0203601N0051100800199020000199+02691+02431101131ADDAA101999990AZ101061AZ201061GA1081+008001061GA2991+999991101GA3991+999991101GE19MSL   +99999+99999GF108991081990008001991991MA1999990098451MD1909990+0041REMSYN004BUFR
0174825860999992014051500004-05200-039300FM-12+021299999V0203601N0051100800199001000199+02391+02361101281ADDAA106009031AY191061AY261061GA1081+008001061GA2991+999991101GA3991+999991101GE19MSL   +99999+99999GF108991081990008001991991MA1999990098581MD1909990+0071MW1611REMSYN004BUFR
0187825860999992014051512004-05200-039300FM-12+021299999V0200501N0010100800199020000199+02441+02411101321ADDAA124012031AY161061AY221061GA1081+008001071GA2991+999991101GA3991+999991101GE19MSL   +99999+99999GF108991081990008001991991KA1120N+02291MA1999990098621MD1909990+0051MW1031REMSYN004BUFR
0142825860999992014051518004-05200-039300FM-12+021299999V0200501N0031100800199020000199+02991+02821101181ADDAA106001031AY121061AY221061GA1061+008001061GE19MSL   +99999+99999GF106991061990008001991991MA1999990098411MD1909990-0041MW1211REMSYN004BUFR
0142825860999992014051600004-05200-039300FM-12+021299999V0203601N0015199999999001000199+02471+02391101161ADDAA106003031AY161061AY221061GA1021+008001081GE19MSL   +99999+99999GF102991021990008001991991MA1999990098461MD1909990-0121MW1031REMSYN004BUFR
0149825860999992014051612004-05200-039300FM-12+021299999V0200901N0021100800199020000199+02591+02481101181ADDAA124004031AZ101061AZ201061GA1051+008001061GE19MSL   +99999+99999GF105991051990008001991991KA1120N+02301MA1999990098501MD1909990-0121REMSYN004BUFR
0136825860999992014051618004-05200-039300FM-12+021299999V0200501N0046199999999020000199+03221+02291100981ADDAA101999990AZ101061AZ201061GA1041+008001081GE19MSL   +99999+99999GF104991041990008001991991MA1999990098331MD1909990-0081REMSYN004BUFR
0136825860999992014051700004-05200-039300FM-12+021299999V0203601N0015100800199001000199+02541+02451101061ADDAA101999990AZ101061AZ201061GA1051+008001061GE19MSL   +99999+99999GF105991051990008001991991MA1999990098381MD1909990-0081REMSYN004BUFR
0155825860999992014051712004-05200-039300FM-12+021299999V0200901N0015199999999020000199+02541+02421101161ADDAA124004031AY161061AY251061GA1031+008001081GE19MSL   +99999+99999GF106991031990008001991991KA1120N+02321MA1999990098481MD1909990-0021MW1031REMSYN004BUFR
0136825860999992014051718004-05200-039300FM-12+021299999V0200501N0031199999999020000199+02991+02051100971ADDAA101999990AZ101061AZ201061GA1021+008001081GE19MSL   +99999+99999GF102991021990008001991991MA1999990098301MD1909990-0031REMSYN004BUFR
0098825860999992014051800004-05200-039300FM-12+021299999V0203601N0031122000199001000199+02491+02411101111ADDAA101999990AZ101061AZ201061GF100991999999999999999999MA1999990098421MD1909990+0041REMSYN004BUFR
0149825860999992014051812004-05200-039300FM-12+021299999V0200501N0010100800199020000199+02551+02471101241ADDAA101999990AZ101061AZ201061GA1071+008001071GE19MSL   +99999+99999GF107991071990008001991991KA1120N+02201MA1999990098551MD1909990+0071REMSYN004BUFR
0136825860999992014051818004-05200-039300FM-12+021299999V0200501N0041199999999001000199+03221+02051101001ADDAA101999990AZ101061AZ201061GA1041+008001081GE19MSL   +99999+99999GF104991041990008001991991MA1999990098341MD1909990+0041REMSYN004BUFR
0136825860999992014051900004-05200-039300FM-12+021299999V0203601N0015199999999001000199+02541+02421101111ADDAA101999990AZ101061AZ201061GA1021+008001081GE19MSL   +99999+99999GF102991021990008001991991MA1999990098431MD1909990+0011REMSYN004BUFR
0165825860999992014051912004-05200-039300FM-12+021299999V0200501N0015199999999020000199+02541+02231101271ADDAA101999990AZ101061AZ201061GA1011+008001081GA2991+999991001GE19MSL   +99999+99999GF102991011990008001991991KA1120N+02181MA1999990098581MD1909990+0031REMSYN004BUFR
0136825860999992014051918004-05200-039300FM-12+021299999V0200901N0031199999999020000199+03291+01951101031ADDAA101999990AZ101061AZ201061GA1021+008001081GE19MSL   +99999+99999GF102991021990008001991991MA1999990098371MD1909990+0031REMSYN004BUFR
0098825860999992014052000004-05200-039300FM-12+021299999V0203601N0000122000199001000199+02521+02361101161ADDAA101999990AZ101061AZ201061GF100991999999999999999999MA1999990098481MD1909990+0051REMSYN004BUFR
0149825860999992014052012004-05200-039300FM-12+021299999V0200501N0031100800199020000199+02591+02351101271ADDAA101999990AZ101061AZ201061GA1051+008001061GE19MSL   +99999+99999GF105991051990008001991991KA1120N+02091MA1999990098581MD1909990+0001REMSYN004BUFR
0136825860999992014052018004-05200-039300FM-12+021299999V0200901N0041199999999020000199+03291+02151101021ADDAA101999990AZ101061AZ201061GA1021+008001081GE19MSL   +99999+99999GF102991021990008001991991MA1999990098361MD1909990-0011REMSYN004BUFR
0149825860999992014052112004-05200-039300FM-12+021299999V0200901N0021199999999020000199+02391+02281101231ADDAA101999990AZ101061AZ201061GA1041+008001081GE19MSL   +99999+99999GF106991041990008001991991KA1120N+02091MA1999990098581MD1909990+0001REMSYN004BUFR
