0098829830999992014010100004-09383-040483FM-12+037299999V0201401N0015122000199002000199+02951+01961100961ADDAA101999990AZ101061AZ201061GF100991999999999999999999MA1999990096881MD1909990-0091REMSYN004BUFR
0149829830999992014010112004-09383-040483FM-12+037299999V0201401N0041199999999020000199+02641+01951101261ADDAA101999990AZ101061AZ201061GA1011+008001081GE19MSL   +99999+99999GF101991011990008001991991KA1120N+02391MA1999990097161MD1909990-0071REMSYN004BUFR
0136829830999992014010200004-09383-040483FM-12+037299999V0201801N0015199999999002000199+02891+01901100901ADDAA101999990AZ101061AZ201061GA1011+008001081GE19MSL   +99999+99999GF101991011990008001991991MA1999990096811MD1909990-0071REMSYN004BUFR
0111829830999992014010212004-09383-040483FM-12+037299999V0200901N0057122000199020000199+02641+01751101131ADDAA101999990AZ101061AZ201061GF100991999999999999999999KA1120N+02331MA1999990097021MD1909990-0131REMSYN004BUFR
0098829830999992014010300004-09383-040483FM-12+037299999V0201401N0026122000199002000199+02951+01901100801ADDAA101999990AZ101061AZ201061GF100991999999999999999999MA1999990096721MD1909990-0091REMSYN004BUFR
0165829830999992014010312004-09383-040483FM-12+037299999V0201401N0051199999999010000199+02551+01831101191ADDAA101999990AZ101061AZ201061GA1041+008001081GA2991+999991031GE19MSL   +99999+99999GF105991041990008001991991KA1120N+02291MA1999990097091MD1909990+0061REMSYN004BUFR
0098829830999992014010400004-09383-040483FM-12+037299999V0201401N0015122000199002000199+02871+01941101041ADDAA101999990AZ101061AZ201061GF100991999999999999999999MA1999990096941MD1909990+0221REMSYN004BUFR
0165829830999992014010412004-09383-040483FM-12+037299999V0201401N0031100800199020000199+02621+01881101421ADDAA101999990AZ101061AZ201061GA1051+008001081GA2991+999991031GE19MSL   +99999+99999GF106991051990008001991991KA1120N+02271MA1999990097311MD1909990+0221REMSYN004BUFR
0149829830999992014010512004-09383-040483FM-12+037299999V0201401N0031199999999010000199+02551+01801101431ADDAA101999990AZ101061AZ201061GA1041+008001081GE19MSL   +99999+99999GF105991041990008001991991KA1120N+02251MA1999990097321MD1909990+0011REMSYN004BUFR
0098829830999992014010600004-09383-040483FM-12+037299999V0201401N0010122000199002000199+02821+02001101141ADDAA101999990AZ101061AZ201061GF100991999999999999999999MA1999990097031MD1909990+0081REMSYN004BUFR
0149829830999992014010612004-09383-040483FM-12+037299999V0201401N0031100800199010000199+02541+01811101351ADDAA101999990AZ101061AZ201061GA1051+008001081GE19MSL   +99999+99999GF106991051990008001991991KA1120N+02201MA1999990097241MD1909990-0081REMSYN004BUFR
0098829830999992014010700004-09383-040483FM-12+037299999V0203601N0000122000199002000199+02841+01931101021ADDAA101999990AZ101061AZ201061GF100991999999999999999999MA1999990096921MD1909990-0111REMSYN004BUFR
0165829830999992014010712004-09383-040483FM-12+037299999V0201401N0031100800199010000199+02551+01801101261ADDAA101999990AZ101061AZ201061GA1051+008001081GA2991+999991031GE19MSL   +99999+99999GF106991051990008001991991KA1120N+02241MA1999990097151MD1909990-0091REMSYN004BUFR
0098829830999992014010800004-09383-040483FM-12+037299999V0201401N0015122000199002000199+02871+01891100941ADDAA101999990AZ101061AZ201061GF100991999999999999999999MA1999990096841MD1909990-0081REMSYN004BUFR
0149829830999992014010812004-09383-040483FM-12+037299999V0201401N0031199999999010000199+02651+01791101181ADDAA101999990AZ101061AZ201061GA1021+008001081GE19MSL   +99999+99999GF102991021990008001991991KA1120N+02271MA1999990097081MD1909990-0071REMSYN004BUFR
0098829830999992014010900004-09383-040483FM-12+037299999V0201401N0015122000199002000199+02941+01761100921ADDAA101999990AZ101061AZ201061GF100991999999999999999999MA1999990096841MD1909990+0001REMSYN004BUFR
0165829830999992014010912004-09383-040483FM-12+037299999V0201401N0031199999999010000199+02651+01831101211ADDAA101999990AZ101061AZ201061GA1011+008001081GA2991+999991021GE19MSL   +99999+99999GF102991011990008001991991KA1120N+02331MA1999990097121MD1909990+0041REMSYN004BUFR
0152829830999992014011000004-09383-040483FM-12+037299999V0201401N0015199999999002000199+03021+01831100841ADDAA101999990AZ101061AZ201061GA1021+008001081GA2991+999991021GE19MSL   +99999+99999GF102991021990008001991991MA1999990096771MD1909990-0071REMSYN004BUFR
0187829830999992014011012004-09383-040483FM-12+037299999V0201401N0015199999999002000199+02241+02161101371ADDAA124017031AY161061AY251061GA1031+008001081GA2991+999991101GA3991+999991051GE19MSL   +99999+99999GF108991031990008001991991KA1120N+02171MA1999990097251MD1909990+0131MW1021REMSYN004BUFR
0142829830999992014011100004-09383-040483FM-12+037299999V0203601N0000100800199002000199+02721+02411101011ADDAA106001031AY161061AY221061GA1051+008001041GE19MSL   +99999+99999GF105991051990008001991991MA1999990096871MD1909990+0101MW1031REMSYN004BUFR
0165829830999992014011112004-09383-040483FM-12+037299999V0201401N0041100800199010000199+02551+01951101361ADDAA124001031AZ101061AZ201061GA1051+008001081GA2991+999991031GE19MSL   +99999+99999GF106991051990008001991991KA1120N+02401MA1999990097241MD1909990-0011REMSYN004BUFR
0152829830999992014011200004-09383-040483FM-12+037299999V0201401N0015199999999002000199+02891+01991101091ADDAA101999990AZ101061AZ201061GA1031+008001081GA2991+999991031GE19MSL   +99999+99999GF104991031990008001991991MA1999990096991MD1909990+0121REMSYN004BUFR
0181829830999992014011212004-09383-040483FM-12+037299999V0201401N0031100800199010000199+02591+02011101421ADDAA101999990AZ101061AZ201061GA1071+008001081GA2991+999991101GA3991+999991101GE19MSL   +99999+99999GF107991071990008001991991KA1120N+02431MA1999990097311MD1909990+0071REMSYN004BUFR
0136829830999992014011300004-09383-040483FM-12+037299999V0203601N0000199999999002000199+02841+02261101301ADDAA101999990AZ101061AZ201061GA1031+008001041GE19MSL   +99999+99999GF103991031990008001991991MA1999990097191MD1909990+0201REMSYN004BUFR
0181829830999992014011312004-09383-040483FM-12+037299999V0201401N0041199999999020000199+02591+01941101591ADDAA101999990AZ101061AZ201061GA1041+008001081GA2991+999991021GA3991+999991031GE19MSL   +99999+99999GF106991041990008001991991KA1120N+02301MA1999990097461MD1909990+0151REMSYN004BUFR
0136829830999992014011400004-09383-040483FM-12+037299999V0201401N0015100800199002000199+02991+01941101251ADDAA101999990AZ101061AZ201061GA1061+008001071GE19MSL   +99999+99999GF106991061990008001991991MA1999990097151MD1909990-0041REMSYN004BUFR
0149829830999992014011412004-09383-040483FM-12+037299999V0201401N0026100800199020000199+02641+01981101511ADDAA101999990AZ101061AZ201061GA1061+008001081GE19MSL   +99999+99999GF108991061990008001991991KA1120N+02451MA1999990095401MD1909990-0061REMSYN004BUFR
0142829830999992014011500004-09383-040483FM-12+037299999V0202701N0010199999999002000199+02391+02211101241ADDAA106008031AY181061AY221061GA1041+008001081GE19MSL   +99999+99999GF106991041990008001991991MA1999990097091MD1909990-0061MW1021REMSYN004BUFR
0165829830999992014011512004-09383-040483FM-12+037299999V0201401N0041199999999010000199+02491+01961101491ADDAA124008031AZ101061AZ201061GA1041+008001081GA2991+999991021GE19MSL   +99999+99999GF106991041990008001991991KA1120N+02231MA1999990097331MD1909990-0071REMSYN004BUFR
0152829830999992014011600004-09383-040483FM-12+037299999V0203601N0015199999999002000199+02791+02201101141ADDAA101999990AZ101061AZ201061GA1021+008001071GA2991+999991001GE19MSL   +99999+99999GF106991021990008001991991MA1999990097031MD1909990-0061REMSYN004BUFR
0165829830999992014011612004-09383-040483FM-12+037299999V0201401N0031199999999010000199+02641+01981101351ADDAA101999990AZ101061AZ201061GA1011+008001081GA2991+999991001GE19MSL   +99999+99999GF104991011990008001991991KA1120N+02371MA1999990097241MD1909990-0091REMSYN004BUFR
0136829830999992014011700004-09383-040483FM-12+037299999V0201401N0015199999999002000199+02951+02071101081ADDAA101999990AZ101061AZ201061GA1991+008001001GE19MSL   +99999+99999GF104991990990008001991991MA1999990096991MD1909990-0041REMSYN004BUFR
0165829830999992014011712004-09383-040483FM-12+037299999V0201401N0031199999999010000199+02621+01861101471ADDAA101999990AZ101061AZ201061GA1041+008001081GA2991+999991021GE19MSL   +99999+99999GF106991041990008001991991KA1120N+02321MA1999990097361MD1909990+0121REMSYN004BUFR
0136829830999992014011800004-09383-040483FM-12+037299999V0200901N0015199999999002000199+03041+02061101071ADDAA101999990AZ101061AZ201061GA1031+008001051GE19MSL   +99999+99999GF103991031990008001991991MA1999990096991MD1909990+0001REMSYN004BUFR
0165829830999992014011812004-09383-040483FM-12+037299999V0201401N0031199999999010000199+02821+02021101281ADDAA101999990AZ101061AZ201061GA1031+008001081GA2991+999991021GE19MSL   +99999+99999GF105991031990008001991991KA1120N+02391MA1999990097211MD1909990-0151REMSYN004BUFR
0098829830999992014011900004-09383-040483FM-12+037299999V0201401N0015122000199002000199+03121+01921100941ADDAA101999990AZ101061AZ201061GF100991999999999999999999MA1999990096881MD1909990-0111REMSYN004BUFR
0149829830999992014011912004-09383-040483FM-12+037299999V0201401N0031100800199010000199+02671+02061101231ADDAA101999990AZ101061AZ201061GA1061+008001081GE19MSL   +99999+99999GF106991061990008001991991KA1120N+02411MA1999990097151MD1909990-0061REMSYN004BUFR
0098829830999992014012000004-09383-040483FM-12+037299999V0201801N0015122000199002000199+03041+01941100901ADDAA101999990AZ101061AZ201061GF100991999999999999999999MA1999990096831MD1909990-0051REMSYN004BUFR
0149829830999992014012012004-09383-040483FM-12+037299999V0201401N0031100800199010000199+02691+01941101221ADDAA101999990AZ101061AZ201061GA1061+008001081GE19MSL   +99999+99999GF106991061990008001991991KA1120N+02431MA1999990097141MD1909990-0011REMSYN004BUFR
0136829830999992014012100004-09383-040483FM-12+037299999V0201401N0010100800199002000199+03221+02171100881ADDAA101999990AZ101061AZ201061GA1061+008001081GE19MSL   +99999+99999GF106991061990008001991991MA1999990096831MD1909990+0001REMSYN004BUFR
0149829830999992014012112004-09383-040483FM-12+037299999V0201401N0031199999999010000199+02671+01971101311ADDAA101999990AZ101061AZ201061GA1031+008001081GE19MSL   +99999+99999GF106991031990008001991991KA1120N+02471MA1999990097241MD1909990+0101REMSYN004BUFR
0152829830999992014012200004-09383-040483FM-12+037299999V0201401N0015199999999002000199+03051+01901100991ADDAA101999990AZ101061AZ201061GA1041+008001081GA2991+999991031GE19MSL   +99999+99999GF106991041990008001991991MA1999990096911MD1909990+0081REMSYN004BUFR
0149829830999992014012212004-09383-040483FM-12+037299999V0201401N0031199999999010000199+02671+01921101371ADDAA101999990AZ101061AZ201061GA1991+008001001GE19MSL   +99999+99999GF106991990990008001991991KA1120N+02401MA1999990097281MD1909990+0041REMSYN004BUFR
0136829830999992014012300004-09383-040483FM-12+037299999V0201401N0015100800199002000199+03151+01821101041ADDAA101999990AZ101061AZ201061GA1061+008001061GE19MSL   +99999+99999GF106991061990008001991991MA1999990096971MD1909990+0061REMSYN004BUFR
0149829830999992014012312004-09383-040483FM-12+037299999V0201401N0031199999999010000199+02641+01881101361ADDAA101999990AZ101061AZ201061GA1991+008001001GE19MSL   +99999+99999GF106991990990008001991991KA1120N+02381MA1999990097281MD1909990+0001REMSYN004BUFR
0098829830999992014012400004-09383-040483FM-12+037299999V0203601N0000122000199002000199+02991+02031100961ADDAA101999990AZ101061AZ201061GF100991999999999999999999MA1999990096861MD1909990-0111REMSYN004BUFR
0165829830999992014012412004-09383-040483FM-12+037299999V0201401N0031100800199010000199+02641+01901101201ADDAA101999990AZ101061AZ201061GA1051+008001081GA2991+999991001GE19MSL   +99999+99999GF106991051990008001991991KA1120N+02371MA1999990097111MD1909990-0171REMSYN004BUFR
0136829830999992014012500004-09383-040483FM-12+037299999V0203601N0000100800199002000199+03121+02021100741ADDAA101999990AZ101061AZ201061GA1051+008001081GE19MSL   +99999+99999GF105991051990008001991991MA1999990096681MD1909990-0181REMSYN004BUFR
0149829830999992014012512004-09383-040483FM-12+037299999V0201401N0041199999999020000199+02621+01781101191ADDAA101999990AZ101061AZ201061GA1031+008001081GE19MSL   +99999+99999GF105991031990008001991991KA1120N+02391MA1999990097111MD1909990+0001REMSYN004BUFR
0098829830999992014012600004-09383-040483FM-12+037299999V0201401N0015122000199002000199+03051+01621100811ADDAA101999990AZ101061AZ201061GF100991999999999999999999MA1999990097741MD1909990+0061REMSYN004BUFR
0181829830999992014012612004-09383-040483FM-12+037299999V0201401N0031199999999020000199+02671+02021101291ADDAA101999990AZ101061AZ201061GA1021+008001081GA2991+999991001GA3991+999991031GE19MSL   +99999+99999GF106991021990008001991991KA1120N+02451MA1999990097201MD1909990+0091REMSYN004BUFR
0098829830999992014012700004-09383-040483FM-12+037299999V0201401N0015122000199002000199+02991+01781100911ADDAA101999990AZ101061AZ201061GF100991999999999999999999MA1999990096841MD1909990+0101REMSYN004BUFR
0149829830999992014012712004-09383-040483FM-12+037299999V0201401N0031100800199020000199+02691+01991101371ADDAA101999990AZ101061AZ201061GA1061+008001081GE19MSL   +99999+99999GF106991061990008001991991KA1120N+02371MA1999990097281MD1909990+0081REMSYN004BUFR
0158829830999992014012800004-09383-040483FM-12+037299999V0201401N0026199999999002000199+02571+02061101151ADDAA106003031AY161061AY221061GA1011+008001081GA2991+999991031GE19MSL   +99999+99999GF103991011990008001991991MA1999990097041MD1909990+0201MW1021REMSYN004BUFR
0165829830999992014012812004-09383-040483FM-12+037299999V0201401N0015199999999010000199+02591+01921101331ADDAA101999990AZ101061AZ201061GA1041+008001081GA2991+999991051GE19MSL   +99999+99999GF106991041990008001991991KA1120N+02301MA1999990097201MD1909990-0081REMSYN004BUFR
0136829830999992014012900004-09383-040483FM-12+037299999V0201401N0031199999999002000199+02951+01991101011ADDAA101999990AZ101061AZ201061GA1041+008001081GE19MSL   +99999+99999GF104991041990008001991991MA1999990096931MD1909990-0111REMSYN004BUFR
0149829830999992014012912004-09383-040483FM-12+037299999V0201401N0031100800199020000199+02571+01901101371ADDAA101999990AZ101061AZ201061GA1061+008001081GE19MSL   +99999+99999GF106991061990008001991991KA1120N+02291MA1999990097261MD1909990+0061REMSYN004BUFR
0098829830999992014013000004-09383-040483FM-12+037299999V0201401N0015122000199002000199+03071+01921100891ADDAA101999990AZ101061AZ201061GF100991999999999999999999MA1999990096821MD1909990-0111REMSYN004BUFR
0149829830999992014013012004-09383-040483FM-12+037299999V0201401N0031100800199010000199+02621+01861101321ADDAA101999990AZ101061AZ201061GA1061+008001081GE19MSL   +99999+99999GF106991061990008001991991KA1120N+02331MA1999990097231MD1909990-0031REMSYN004BUFR
0152829830999992014013100004-09383-040483FM-12+037299999V0201401N0031100800199002000199+02951+01781101061ADDAA101999990AZ101061AZ201061GA1051+008001081GA2991+999991031GE19MSL   +99999+99999GF106991051990008001991991MA1999990096971MD1909990+0151REMSYN004BUFR
0165829830999992014013112004-09383-040483FM-12+037299999V0201401N0041199999999010000199+02571+01821101371ADDAA101999990AZ101061AZ201061GA1041+008001081GA2991+999991001GE19MSL   +99999+99999GF106991041990008001991991KA1120N+02291MA1999990097261MD1909990+0031REMSYN004BUFR
0098829830999992014020100004-09383-040483FM-12+037299999V0201401N0026122000199002000199+03041+01601100991ADDAA101999990AZ101061AZ201061GF100991999999999999999999MA1999990096911MD1909990-0061REMSYN004BUFR
0181829830999992014020112004-09383-040483FM-12+037299999V0201401N0031100800199010000199+02621+01961101171ADDAA101999990AZ101061AZ201061GA1071+008001081GA2991+999991101GA3991+999991101GE19MSL   +99999+99999GF107991071990008001991991KA1120N+02371MA1999990097091MD1909990-0171REMSYN004BUFR
0136829830999992014020118004-09383-040483FM-12+037299999V0201801N0021199999999020000199+02891+01661100881ADDAA101999990AZ101061AZ201061GA1031+008001081GE19MSL   +99999+99999GF103991031990008001991991MA1999990096801MD1909990-0021REMSYN004BUFR
0098829830999992014020200004-09383-040483FM-12+037299999V0203601N0000122000199002000199+02791+02111100971ADDAA101999990AZ101061AZ201061GF100991999999999999999999MA1999990096871MD1909990-0011REMSYN004BUFR
0149829830999992014020212004-09383-040483FM-12+037299999V0201401N0031100800199020000199+02591+01921101221ADDAA101999990AZ101061AZ201061GA1051+008001081GE19MSL   +99999+99999GF105991051990008001991991KA1120N+02331MA1999990097111MD1909990+0021REMSYN004BUFR
0152829830999992014020218004-09383-040483FM-12+037299999V0201401N0031199999999020000199+03321+01821100711ADDAA101999990AZ101061AZ201061GA1031+008001081GA2991+999991001GE19MSL   +99999+99999GF104991031990008001991991MA1999990096641MD1909990-0161REMSYN004BUFR
0136829830999992014020300004-09383-040483FM-12+037299999V0201401N0026199999999002000199+03021+01891100811ADDAA101999990AZ101061AZ201061GA1011+008001081GE19MSL   +99999+99999GF101991011990008001991991MA1999990096731MD1909990-0141REMSYN004BUFR
0181829830999992014020312004-09383-040483FM-12+037299999V0201401N0051100800199010000199+02621+01881101101ADDAA101999990AZ101061AZ201061GA1071+008001081GA2991+999991101GA3991+999991101GE19MSL   +99999+99999GF107991071990008001991991KA1120N+02291MA1999990097011MD1909990-0101REMSYN004BUFR
0152829830999992014020318004-09383-040483FM-12+037299999V0201401N0041199999999010000199+03251+01911100651ADDAA101999990AZ101061AZ201061GA1041+008001081GA2991+999991001GE19MSL   +99999+99999GF106991041990008001991991MA1999990096581MD1909990-0061REMSYN004BUFR
0142829830999992014020400004-09383-040483FM-12+037299999V0201401N0010100800199002000199+02891+02621101061ADDAA106001031AY161061AY221061GA1061+008001081GE19MSL   +99999+99999GF106991061990008001991991MA1999990096961MD1909990+0231MW1021REMSYN004BUFR
0149829830999992014020412004-09383-040483FM-12+037299999V0201401N0031199999999020000199+02621+01781101161ADDAA124001031AZ101061AZ201061GA1041+008001081GE19MSL   +99999+99999GF107991041990008001991991KA1120N+02291MA1999990097061MD1909990+0051REMSYN004BUFR
0152829830999992014020418004-09383-040483FM-12+037299999V0200901N0041199999999020000199+03351+01731100661ADDAA101999990AZ101061AZ201061GA1031+000201081GA2991+999991001GE19MSL   +99999+99999GF199999031990000201991991MA1999990096611MD1909990+0031REMSYN004BUFR
0174829830999992014020500004-09383-040483FM-12+037299999V0201401N0051100800199002000199+02721+02081101001ADDAA106000431AY161061AY221061GA1071+008001061GA2991+999991101GA3991+999991101GE19MSL   +99999+99999GF107991071990008001991991MA1999990096891MD1909990-0071MW1021REMSYN004BUFR
0149829830999992014020512004-09383-040483FM-12+037299999V0201401N0031199999999010000199+02691+01961101171ADDAA124000431AZ101061AZ201061GA1041+008001081GE19MSL   +99999+99999GF106991041990008001991991KA1120N+02371MA1999990097061MD1909990+0001REMSYN004BUFR
0168829830999992014020518004-09383-040483FM-12+037299999V0201401N0031199999999020000199+03271+01891100721ADDAA101999990AZ101061AZ201061GA1031+008001081GA2991+999991021GA3991+999991051GE19MSL   +99999+99999GF106991031990008001991991MA1999990096681MD1909990+0071REMSYN004BUFR
0152829830999992014020600004-09383-040483FM-12+037299999V0201401N0031199999999002000199+02891+01871100891ADDAA101999990AZ101061AZ201061GA1041+008001081GA2991+999991031GE19MSL   +99999+99999GF106991041990008001991991MA1999990096811MD1909990-0081REMSYN004BUFR
0149829830999992014020612004-09383-040483FM-12+037299999V0201401N0036100800199020000199+02551+01881101291ADDAA101999990AZ101061AZ201061GA1071+008001081GE19MSL   +99999+99999GF107991071990008001991991KA1120N+02281MA1999990097181MD1909990+0121REMSYN004BUFR
0152829830999992014020618004-09383-040483FM-12+037299999V0201401N0026199999999020000199+03321+01701100761ADDAA101999990AZ101061AZ201061GA1041+008001081GA2991+999991021GE19MSL   +99999+99999GF105991041990008001991991MA1999990096681MD1909990+0001REMSYN004BUFR
0168829830999992014020700004-09383-040483FM-12+037299999V0201401N0041100800199002000199+02691+01961101221ADDAA101999990AZ101061AZ201061GA1071+008001061GA2991+999991101GA3991+999991101GE19MSL   +99999+99999GF107991071990008001991991MA1999990097101MD1909990+0291REMSYN004BUFR
0165829830999992014020712004-09383-040483FM-12+037299999V0201401N0015199999999020000199+02521+01961101371ADDAA101999990AZ101061AZ201061GA1041+008001081GA2991+999991051GE19MSL   +99999+99999GF106991041990008001991991KA1120N+02271MA1999990097241MD1909990+0061REMSYN004BUFR
0168829830999992014020718004-09383-040483FM-12+037299999V0201401N0031199999999020000199+03141+01971100981ADDAA101999990AZ101061AZ201061GA1031+008001081GA2991+999991021GA3991+999991031GE19MSL   +99999+99999GF106991031990008001991991MA1999990096881MD1909990+0201REMSYN004BUFR
0136829830999992014020800004-09383-040483FM-12+037299999V0201401N0015100800199002000199+02871+01891101191ADDAA101999990AZ101061AZ201061GA1051+008001061GE19MSL   +99999+99999GF105991051990008001991991MA1999990097081MD1909990-0021REMSYN004BUFR
0149829830999992014020812004-09383-040483FM-12+037299999V0201401N0031100800199010000199+02691+01881101381ADDAA101999990AZ101061AZ201061GA1051+008001081GE19MSL   +99999+99999GF106991051990008001991991KA1120N+02471MA1999990097281MD1909990+0041REMSYN004BUFR
0152829830999992014020818004-09383-040483FM-12+037299999V0201401N0031199999999020000199+03271+01781100921ADDAA101999990AZ101061AZ201061GA1041+008001081GA2991+999991031GE19MSL   +99999+99999GF106991041990008001991991MA1999990096841MD1909990-0041REMSYN004BUFR
0136829830999992014020900004-09383-040483FM-12+037299999V0201401N0031199999999002000199+02971+01861101021ADDAA101999990AZ101061AZ201061GA1021+008001081GE19MSL   +99999+99999GF102991021990008001991991MA1999990096941MD1909990-0141REMSYN004BUFR
0181829830999992014020912004-09383-040483FM-12+037299999V0201401N0031100800199010000199+02621+01931101341ADDAA101999990AZ101061AZ201061GA1071+008001081GA2991+999991101GA3991+999991101GE19MSL   +99999+99999GF107991071990008001991991KA1120N+02361MA1999990097241MD1909990-0041REMSYN004BUFR
0152829830999992014020918004-09383-040483FM-12+037299999V0201401N0031199999999020000199+03251+01881100861ADDAA101999990AZ101061AZ201061GA1041+008001081GA2991+999991021GE19MSL   +99999+99999GF106991041990008001991991MA1999990096791MD1909990-0051REMSYN004BUFR
0136829830999992014021000004-09383-040483FM-12+037299999V0201401N0015199999999002000199+02991+01881100891ADDAA101999990AZ101061AZ201061GA1031+008001031GE19MSL   +99999+99999GF103991031990008001991991MA1999990096811MD1909990-0131REMSYN004BUFR
0149829830999992014021012004-09383-040483FM-12+037299999V0201401N0051199999999010000199+02651+01901101311ADDAA101999990AZ101061AZ201061GA1031+008001081GE19MSL   +99999+99999GF105991031990008001991991KA1120N+02331MA1999990097221MD1909990-0021REMSYN004BUFR
0136829830999992014021018004-09383-040483FM-12+037299999V0201401N0015199999999020000199+03341+01871100821ADDAA101999990AZ101061AZ201061GA1031+008001081GE19MSL   +99999+99999GF104991031990008001991991MA1999990096761MD1909990-0031REMSYN004BUFR
0136829830999992014021100004-09383-040483FM-12+037299999V0201401N0041100800199002000199+03121+01791100931ADDAA101999990AZ101061AZ201061GA1061+008001081GE19MSL   +99999+99999GF106991061990008001991991MA1999990096861MD1909990+0051REMSYN004BUFR
0149829830999992014021112004-09383-040483FM-12+037299999V0201401N0031100800199020000199+02691+01861101231ADDAA101999990AZ101061AZ201061GA1061+008001081GE19MSL   +99999+99999GF106991061990008001991991KA1120N+02431MA1999990097151MD1909990-0071REMSYN004BUFR
0152829830999992014021118004-09383-040483FM-12+037299999V0200901N0031100800199020000199+03391+01681100741ADDAA101999990AZ101061AZ201061GA1051+008001081GA2991+999991001GE19MSL   +99999+99999GF106991051990008001991991MA1999990096691MD1909990-0071REMSYN004BUFR
0136829830999992014021200004-09383-040483FM-12+037299999V0201801N0026100800199002000199+03121+01711100801ADDAA101999990AZ101061AZ201061GA1051+008001081GE19MSL   +99999+99999GF105991051990008001991991MA1999990096741MD1909990-0121REMSYN004BUFR
0149829830999992014021212004-09383-040483FM-12+037299999V0201401N0031100800199010000199+02671+01841101161ADDAA101999990AZ101061AZ201061GA1061+008001081GE19MSL   +99999+99999GF106991061990008001991991KA1120N+02391MA1999990097091MD1909990-0061REMSYN004BUFR
0168829830999992014021218004-09383-040483FM-12+037299999V0201401N0015199999999010000199+03371+01571100631ADDAA101999990AZ101061AZ201061GA1031+008001081GA2991+999991021GA3991+999991051GE19MSL   +99999+99999GF105991031990008001991991MA1999990096581MD1909990-0111REMSYN004BUFR
0152829830999992014021300004-09383-040483FM-12+037299999V0201401N0015199999999002000199+03091+01841100791ADDAA101999990AZ101061AZ201061GA1021+008001081GA2991+999991021GE19MSL   +99999+99999GF103991021990008001991991MA1999990096731MD1909990-0011REMSYN004BUFR
0165829830999992014021312004-09383-040483FM-12+037299999V0200901N0046199999999020000199+02591+01821101141ADDAA101999990AZ101061AZ201061GA1041+008001081GA2991+999991021GE19MSL   +99999+99999GF106991041990008001991991KA1120N+02321MA1999990097061MD1909990-0031REMSYN004BUFR
0152829830999992014021318004-09383-040483FM-12+037299999V0201401N0031199999999020000199+03391+01721100651ADDAA101999990AZ101061AZ201061GA1031+008001081GA2991+999991021GE19MSL   +99999+99999GF104991031990008001991991MA1999990096601MD1909990+0021REMSYN004BUFR
0152829830999992014021400004-09383-040483FM-12+037299999V0201401N0015199999999002000199+03141+01731100791ADDAA101999990AZ101061AZ201061GA1041+008001081GA2991+999991021GE19MSL   +99999+99999GF105991041990008001991991MA1999990096711MD1909990-0021REMSYN004BUFR
0181829830999992014021412004-09383-040483FM-12+037299999V0201401N0031199999999010000199+02621+01831101231ADDAA101999990AZ101061AZ201061GA1011+008001081GA2991+999991021GA3991+999991051GE19MSL   +99999+99999GF107991011990008001991991KA1120N+02441MA1999990097151MD1909990+0091REMSYN004BUFR
0152829830999992014021418004-09383-040483FM-12+037299999V0200901N0026199999999020000199+03441+01671100741ADDAA101999990AZ101061AZ201061GA1041+008001081GA2991+999991021GE19MSL   +99999+99999GF106991041990008001991991MA1999990096691MD1909990+0091REMSYN004BUFR
0152829830999992014021500004-09383-040483FM-12+037299999V0201401N0015199999999002000199+03151+01821100871ADDAA101999990AZ101061AZ201061GA1011+008001081GA2991+999991021GE19MSL   +99999+99999GF108991011990008001991991MA1999990096811MD1909990+0101REMSYN004BUFR
0165829830999992014021512004-09383-040483FM-12+037299999V0201401N0031100800199010000199+02651+01901101191ADDAA101999990AZ101061AZ201061GA1051+008001081GA2991+999991051GE19MSL   +99999+99999GF106991051990008001991991KA1120N+02491MA1999990097121MD1909990-0031REMSYN004BUFR
0168829830999992014021518004-09383-040483FM-12+037299999V0203201N0041199999999010000199+03241+02251100731ADDAA101999990AZ101061AZ201061GA1041+008001081GA2991+999991021GA3991+999991051GE19MSL   +99999+99999GF106991041990008001991991MA1999990096681MD1909990-0011REMSYN004BUFR
0168829830999992014021600004-09383-040483FM-12+037299999V0203201N0015199999999002000199+02971+01221100921ADDAA101999990AZ101061AZ201061GA1041+008001081GA2991+999991001GA3991+999991051GE19MSL   +99999+99999GF107991041990008001991991MA1999990096841MD1909990+0031REMSYN004BUFR
0187829830999992014021612004-09383-040483FM-12+037299999V0201401N0031100800199010000199+02651+02041101261ADDAA124003031AY161061AY221061GA1051+008001081GA2991+999991101GA3991+999991051GE19MSL   +99999+99999GF107991051990008001991991KA1120N+02351MA1999990097161MD1909990+0041MW1021REMSYN004BUFR
0174829830999992014021618004-09383-040483FM-12+037299999V0200501N0026199999999020000199+03191+02061100741ADDAA106000431AY151061AY221061GA1021+008001081GA2991+999991001GA3991+999991031GE19MSL   +99999+99999GF106991021990008001991991MA1999990096661MD1909990-0021MW1021REMSYN004BUFR
0152829830999992014021700004-09383-040483FM-12+037299999V0200501N0015199999999002000199+02871+02001100821ADDAA101999990AZ101061AZ201061GA1021+008001081GA2991+999991031GE19MSL   +99999+99999GF106991021990008001991991MA1999990096741MD1909990-0101REMSYN004BUFR
0187829830999992014021712004-09383-040483FM-12+037299999V0201401N0031199999999010000199+02741+01891101231ADDAA124002031AY161061AY221061GA1041+008001081GA2991+999991021GA3991+999991051GE19MSL   +99999+99999GF106991041990008001991991KA1120N+02411MA1999990097141MD1909990-0021MW1021REMSYN004BUFR
0152829830999992014021718004-09383-040483FM-12+037299999V0203201N0015199999999010000199+03091+01871100771ADDAA101999990AZ101061AZ201061GA1021+008001081GA2991+999991041GE19MSL   +99999+99999GF107991021990008001991991MA1999990096691MD1909990+0031REMSYN004BUFR
0152829830999992014021800004-09383-040483FM-12+037299999V0203201N0015199999999002000199+02741+02171100821ADDAA101999990AZ101061AZ201061GA1021+008001081GA2991+999991031GE19MSL   +99999+99999GF104991021990008001991991MA1999990096741MD1909990+0001REMSYN004BUFR
0171829830999992014021812004-09383-040483FM-12+037299999V0200901N0031100800199020000199+02591+01921101151ADDAA124003031AY161061AY221061GA1061+008001061GA2991+999991021GE19MSL   +99999+99999GF107991061990008001991991KA1120N+02271MA1999990097041MD1909990-0101MW1011REMSYN004BUFR
0168829830999992014021818004-09383-040483FM-12+037299999V0200901N0026199999999020000199+03291+01841100691ADDAA101999990AZ101061AZ201061GA1021+008001081GA2991+999991001GA3991+999991031GE19MSL   +99999+99999GF106991021990008001991991MA1999990096611MD1909990-0081REMSYN004BUFR
0168829830999992014021900004-09383-040483FM-12+037299999V0203601N0000199999999002000199+03021+02361100831ADDAA101999990AZ101061AZ201061GA1021+008001081GA2991+999991021GA3991+999991051GE19MSL   +99999+99999GF108991021990008001991991MA1999990096751MD1909990+0011REMSYN004BUFR
0181829830999992014021912004-09383-040483FM-12+037299999V0201401N0031100800199010000199+02591+01841101111ADDAA101999990AZ101061AZ201061GA1061+008001061GA2991+999991101GA3991+999991101GE19MSL   +99999+99999GF106991061990008001991991KA1120N+02491MA1999990097021MD1909990-0021REMSYN004BUFR
0168829830999992014021918004-09383-040483FM-12+037299999V0201401N0026199999999020000199+03271+01741100661ADDAA101999990AZ101061AZ201061GA1021+008001081GA2991+999991001GA3991+999991031GE19MSL   +99999+99999GF105991021990008001991991MA1999990096611MD1909990+0001REMSYN004BUFR
0168829830999992014022000004-09383-040483FM-12+037299999V0201401N0031100800199002000199+03021+01891100821ADDAA101999990AZ101061AZ201061GA1061+008001081GA2991+999991101GA3991+999991101GE19MSL   +99999+99999GF106991061990008001991991MA1999990096741MD1909990-0011REMSYN004BUFR
0181829830999992014022012004-09383-040483FM-12+037299999V0201401N0031100800199010000199+02591+02011101181ADDAA101999990AZ101061AZ201061GA1081+008001071GA2991+999991101GA3991+999991101GE19MSL   +99999+99999GF108991081990008001991991KA1120N+02601MA1999990097131MD1909990+0111REMSYN004BUFR
0152829830999992014022018004-09383-040483FM-12+037299999V0201401N0031100800199010000199+03221+01911100821ADDAA101999990AZ101061AZ201061GA1061+008001081GA2991+999991031GE19MSL   +99999+99999GF108991061990008001991991MA1999990096771MD1909990+0161REMSYN004BUFR
0168829830999992014022100004-09383-040483FM-12+037299999V0200901N0067199999999002000199+02651+02041101131ADDAA101999990AZ101061AZ201061GA1031+008001081GA2991+999991101GA3991+999991051GE19MSL   +99999+99999GF108991031990008001991991MA1999990097021MD1909990+0281REMSYN004BUFR
0181829830999992014022112004-09383-040483FM-12+037299999V0201401N0031100800199010000199+02551+02041101321ADDAA101999990AZ101061AZ201061GA1061+008001081GA2991+999991101GA3991+999991041GE19MSL   +99999+99999GF108991061990008001991991KA1120N+02431MA1999990097191MD1909990+0061REMSYN004BUFR
0168829830999992014022118004-09383-040483FM-12+037299999V0200501N0031199999999020000199+03241+02001100801ADDAA101999990AZ101061AZ201061GA1041+008001081GA2991+999991021GA3991+999991031GE19MSL   +99999+99999GF107991041990008001991991MA1999990096721MD1909990-0021REMSYN004BUFR
0136829830999992014022200004-09383-040483FM-12+037299999V0200901N0031100800199002000199+02841+01931101001ADDAA101999990AZ101061AZ201061GA1051+008001081GE19MSL   +99999+99999GF105991051990008001991991MA1999990096901MD1909990-0121REMSYN004BUFR
0181829830999992014022212004-09383-040483FM-12+037299999V0200901N0051100800199010000199+02551+01951101191ADDAA101999990AZ101061AZ201061GA1061+008001061GA2991+999991101GA3991+999991031GE19MSL   +99999+99999GF108991061990008001991991KA1120N+02331MA1999990097081MD1909990-0111REMSYN004BUFR
0168829830999992014022218004-09383-040483FM-12+037299999V0201401N0031199999999020000199+03221+02011100921ADDAA101999990AZ101061AZ201061GA1031+008001081GA2991+999991021GA3991+999991031GE19MSL   +99999+99999GF108991031990008001991991MA1999990096841MD1909990+0121REMSYN004BUFR
0174829830999992014022300004-09383-040483FM-12+037299999V0200901N0015100800199002000199+02171+02061101201ADDAA106028031AY161061AY221061GA1081+008001071GA2991+999991101GA3991+999991101GE19MSL   +99999+99999GF108991081990008001991991MA1999990097031MD1909990+0131MW1501REMSYN004BUFR
0165829830999992014022312004-09383-040483FM-12+037299999V0201401N0031199999999010000199+02571+02101101371ADDAA124028031AZ101061AZ201061GA1041+008001081GA2991+999991001GE19MSL   +99999+99999GF107991041990008001991991KA1120N+02141MA1999990097201MD1909990+0121REMSYN004BUFR
0168829830999992014022318004-09383-040483FM-12+037299999V0200501N0031199999999010000199+03151+02051100891ADDAA101999990AZ101061AZ201061GA1031+008001081GA2991+999991001GA3991+999991031GE19MSL   +99999+99999GF106991031990008001991991MA1999990096801MD1909990-0041REMSYN004BUFR
0136829830999992014022400004-09383-040483FM-12+037299999V0203601N0015199999999002000199+02851+02231100971ADDAA101999990AZ101061AZ201061GA1031+008001081GE19MSL   +99999+99999GF103991031990008001991991MA1999990096871MD1909990-0161REMSYN004BUFR
0165829830999992014022412004-09383-040483FM-12+037299999V0201401N0041199999999010000199+02751+01831101251ADDAA101999990AZ101061AZ201061GA1021+008001061GA2991+999991031GE19MSL   +99999+99999GF103991021990008001991991KA1120N+02371MA1999990097151MD1909990-0051REMSYN004BUFR
0152829830999992014022418004-09383-040483FM-12+037299999V0201401N0031199999999010000199+03421+01651100721ADDAA101999990AZ101061AZ201061GA1031+008001081GA2991+999991031GE19MSL   +99999+99999GF104991031990008001991991MA1999990096671MD1909990-0131REMSYN004BUFR
0136829830999992014022500004-09383-040483FM-12+037299999V0201401N0015100800199002000199+03151+01891100831ADDAA101999990AZ101061AZ201061GA1061+008001081GE19MSL   +99999+99999GF106991061990008001991991MA1999990096781MD1909990-0091REMSYN004BUFR
0181829830999992014022512004-09383-040483FM-12+037299999V0200901N0031100800199010000199+02571+01921101251ADDAA101999990AZ101061AZ201061GA1081+008001071GA2991+999991101GA3991+999991101GE19MSL   +99999+99999GF108991081990008001991991KA1120N+02451MA1999990097161MD1909990+0011REMSYN004BUFR
0152829830999992014022518004-09383-040483FM-12+037299999V0200901N0031199999999020000199+03221+01771100771ADDAA101999990AZ101061AZ201061GA1041+008001081GA2991+999991021GE19MSL   +99999+99999GF106991041990008001991991MA1999990096701MD1909990+0031REMSYN004BUFR
0168829830999992014022600004-09383-040483FM-12+037299999V0200901N0015100800199002000199+03151+01921100901ADDAA101999990AZ101061AZ201061GA1061+008001081GA2991+999991101GA3991+999991101GE19MSL   +99999+99999GF106991061990008001991991MA1999990096831MD1909990+0051REMSYN004BUFR
0149829830999992014022612004-09383-040483FM-12+037299999V0201401N0031100800199010000199+02651+01791101201ADDAA101999990AZ101061AZ201061GA1061+008001081GE19MSL   +99999+99999GF106991061990008001991991KA1120N+02351MA1999990097131MD1909990-0031REMSYN004BUFR
0152829830999992014022618004-09383-040483FM-12+037299999V0201401N0015199999999020000199+03251+01881100681ADDAA101999990AZ101061AZ201061GA1031+008001081GA2991+999991001GE19MSL   +99999+99999GF107991031990008001991991MA1999990096621MD1909990-0081REMSYN004BUFR
0152829830999992014022700004-09383-040483FM-12+037299999V0201401N0015199999999002000199+03041+01851100831ADDAA101999990AZ101061AZ201061GA1031+008001081GA2991+999991031GE19MSL   +99999+99999GF105991031990008001991991MA1999990096761MD1909990-0071REMSYN004BUFR
0181829830999992014022712004-09383-040483FM-12+037299999V0200901N0041199999999010000199+02591+01871101171ADDAA101999990AZ101061AZ201061GA1041+008001081GA2991+999991101GA3991+999991051GE19MSL   +99999+99999GF108991041990008001991991KA1120N+02471MA1999990097081MD1909990-0051REMSYN004BUFR
0168829830999992014022718004-09383-040483FM-12+037299999V0200901N0031199999999010000199+02991+01881100901ADDAA101999990AZ101061AZ201061GA1031+008001081GA2991+999991001GA3991+999991051GE19MSL   +99999+99999GF108991031990008001991991MA1999990096811MD1909990+0191REMSYN004BUFR
0136829830999992014022800004-09383-040483FM-12+037299999V0200901N0021199999999002000199+02791+01901101041ADDAA101999990AZ101061AZ201061GA1011+008001081GE19MSL   +99999+99999GF101991011990008001991991MA1999990096941MD1909990+0181REMSYN004BUFR
0165829830999992014022812004-09383-040483FM-12+037299999V0201401N0015100800199010000199+02591+01941101251ADDAA101999990AZ101061AZ201061GA1051+008001071GA2991+999991031GE19MSL   +99999+99999GF106991051990008001991991KA1120N+02501MA1999990097141MD1909990+0061REMSYN004BUFR
0152829830999992014022818004-09383-040483FM-12+037299999V0201401N0015199999999020000199+03291+01951100741ADDAA101999990AZ101061AZ201061GA1041+008001081GA2991+999991051GE19MSL   +99999+99999GF106991041990008001991991MA1999990096681MD1909990-0131REMSYN004BUFR
0142829830999992014030100004-09383-040483FM-12+037299999V0200901N0015199999999002000199+02721+02081101051ADDAA106000231AY151061AY221061GA1041+008001071GE19MSL   +99999+99999GF104991041990008001991991MA1999990096941MD1909990+0001MW1031REMSYN004BUFR
0187829830999992014030112004-09383-040483FM-12+037299999V0201401N0015199999999010000199+02451+02191101201ADDAA124000331AY151061AY221061GA1011+008001081GA2991+999991101GA3991+999991051GE19MSL   +99999+99999GF108991011990008001991991KA1120N+02451MA1999990097071MD1909990-0071MW1501REMSYN004BUFR
0168829830999992014030118004-09383-040483FM-12+037299999V0203601N0000199999999020000199+03191+01961100721ADDAA101999990AZ101061AZ201061GA1031+008001081GA2991+999991001GA3991+999991051GE19MSL   +99999+99999GF107991031990008001991991MA1999990096651MD1909990-0031REMSYN004BUFR
0187829830999992014030212004-09383-040483FM-12+037299999V0200901N0041199999999020000199+02741+02101101111ADDAA124000331AY151061AY221061GA1041+008001081GA2991+999991001GA3991+999991031GE19MSL   +99999+99999GF107991041990008001991991KA1120N+02431MA1999990097021MD1909990-0051MW1001REMSYN004BUFR
0168829830999992014030218004-09383-040483FM-12+037299999V0201801N0036199999999020000199+03221+02051100581ADDAA101999990AZ101061AZ201061GA1041+008001081GA2991+999991001GA3991+999991051GE19MSL   +99999+99999GF107991041990008001991991MA1999990096521MD1909990-0131REMSYN004BUFR
0174829830999992014030300004-09383-040483FM-12+037299999V0201401N0041100800199002000199+02241+02161101011ADDAA106035031AY161061AY221061GA1081+008001071GA2991+999991101GA3991+999991101GE19MSL   +99999+99999GF108991081990008001991991MA1999990096871MD1909990+0091MW1621REMSYN004BUFR
0181829830999992014030312004-09383-040483FM-12+037299999V0201401N0015100800199010000199+02521+02191101151ADDAA124036031AZ101061AZ201061GA1071+008001081GA2991+999991101GA3991+999991101GE19MSL   +99999+99999GF107991071990008001991991KA1120N+02231MA1999990096991MD1909990-0031REMSYN004BUFR
0168829830999992014030318004-09383-040483FM-12+037299999V0201401N0015199999999020000199+03171+02071100591ADDAA101999990AZ101061AZ201061GA1021+008001081GA2991+999991021GA3991+999991051GE19MSL   +99999+99999GF104991021990008001991991MA1999990096511MD1909990-0011REMSYN004BUFR
0142829830999992014030400004-09383-040483FM-12+037299999V0200501N0010100800199002000199+02421+02261101011ADDAA106015031AY161061AY221061GA1051+008001081GE19MSL   +99999+99999GF105991051990008001991991MA1999990096861MD1909990-0011MW1161REMSYN004BUFR
0187829830999992014030412004-09383-040483FM-12+037299999V0201401N0026199999999010000199+02591+02321101271ADDAA124016031AY101061AY211061GA1041+008001081GA2991+999991001GA3991+999991051GE19MSL   +99999+99999GF107991041990008001991991KA1120N+02321MA1999990097121MD1909990+0131MW1051REMSYN004BUFR
0168829830999992014030418004-09383-040483FM-12+037299999V0200901N0036100800199020000199+03151+02141100821ADDAA101999990AZ101061AZ201061GA1051+008001081GA2991+999991001GA3991+999991051GE19MSL   +99999+99999GF107991051990008001991991MA1999990096741MD1909990+0231REMSYN004BUFR
0168829830999992014030500004-09383-040483FM-12+037299999V0200901N0031199999999002000199+02621+02271101151ADDAA101999990AZ101061AZ201061GA1041+008001081GA2991+999991101GA3991+999991051GE19MSL   +99999+99999GF108991041990008001991991MA1999990097031MD1909990+0171REMSYN004BUFR
0149829830999992014030512004-09383-040483FM-12+037299999V0201401N0041100800199010000199+02571+02061101351ADDAA101999990AZ101061AZ201061GA1061+008001081GE19MSL   +99999+99999GF106991061990008001991991KA1120N+02391MA1999990097221MD1909990+0101REMSYN004BUFR
0168829830999992014030518004-09383-040483FM-12+037299999V0201401N0031199999999010000199+03141+02101100861ADDAA101999990AZ101061AZ201061GA1031+008001081GA2991+999991021GA3991+999991031GE19MSL   +99999+99999GF105991031990008001991991MA1999990096771MD1909990+0031REMSYN004BUFR
0136829830999992014030600004-09383-040483FM-12+037299999V0201801N0021199999999002000199+02821+01971101021ADDAA101999990AZ101061AZ201061GA1011+008001081GE19MSL   +99999+99999GF101991011990008001991991MA1999990096921MD1909990-0111REMSYN004BUFR
0149829830999992014030612004-09383-040483FM-12+037299999V0201401N0041100800199020000199+02491+01891101321ADDAA101999990AZ101061AZ201061GA1061+008001081GE19MSL   +99999+99999GF106991061990008001991991KA1120N+02221MA1999990097201MD1909990-0021REMSYN004BUFR
0136829830999992014030618004-09383-040483FM-12+037299999V0200901N0026199999999020000199+03151+01631100821ADDAA101999990AZ101061AZ201061GA1031+008001081GE19MSL   +99999+99999GF103991031990008001991991MA1999990096741MD1909990-0031REMSYN004BUFR
0136829830999992014030700004-09383-040483FM-12+037299999V0203601N0010199999999002000199+02841+02041100971ADDAA101999990AZ101061AZ201061GA1021+008001081GE19MSL   +99999+99999GF102991021990008001991991MA1999990096861MD1909990-0061REMSYN004BUFR
0165829830999992014030712004-09383-040483FM-12+037299999V0201401N0031100800199010000199+02591+02061101341ADDAA101999990AZ101061AZ201061GA1051+008001081GA2991+999991031GE19MSL   +99999+99999GF106991051990008001991991KA1120N+02351MA1999990097231MD1909990+0031REMSYN004BUFR
0152829830999992014030718004-09383-040483FM-12+037299999V0201401N0026199999999020000199+03151+01861100801ADDAA101999990AZ101061AZ201061GA1031+008001081GA2991+999991021GE19MSL   +99999+99999GF105991031990008001991991MA1999990096731MD1909990-0011REMSYN004BUFR
0136829830999992014030800004-09383-040483FM-12+037299999V0200501N0031100800199002000199+02871+02101101001ADDAA101999990AZ101061AZ201061GA1061+008001081GE19MSL   +99999+99999GF106991061990008001991991MA1999990096911MD1909990+0051REMSYN004BUFR
0181829830999992014030812004-09383-040483FM-12+037299999V0200901N0031100800199020000199+02721+02191101341ADDAA101999990AZ101061AZ201061GA1092+008001081GA2991+999991101GA3991+999991101GE19MSL   +99999+99999GF107992092990008001991991KA1120N+02471MA1999990097241MD1909990+0011REMSYN004BUFR
0152829830999992014030818004-09383-040483FM-12+037299999V0200501N0046199999999020000199+03221+02081100801ADDAA101999990AZ101061AZ201061GA1031+008001081GA2991+999991021GE19MSL   +99999+99999GF105991031990008001991991MA1999990096731MD1909990+0001REMSYN004BUFR
0136829830999992014030900004-09383-040483FM-12+037299999V0200901N0026199999999002000199+02941+02001100991ADDAA101999990AZ101061AZ201061GA1031+008001081GE19MSL   +99999+99999GF103991031990008001991991MA1999990096911MD1909990+0001REMSYN004BUFR
0181829830999992014030912004-09383-040483FM-12+037299999V0201401N0031199999999010000199+02651+02021101351ADDAA101999990AZ101061AZ201061GA1031+008001081GA2991+999991101GA3991+999991051GE19MSL   +99999+99999GF107991031990008001991991KA1120N+02441MA1999990097251MD1909990+0111REMSYN004BUFR
0152829830999992014030918004-09383-040483FM-12+037299999V0200901N0026199999999020000199+03251+02021100881ADDAA101999990AZ101061AZ201061GA1031+008001081GA2991+999991021GE19MSL   +99999+99999GF106991031990008001991991MA1999990096821MD1909990+0091REMSYN004BUFR
0152829830999992014031000004-09383-040483FM-12+037299999V0200501N0015199999999002000199+02941+02161101051ADDAA101999990AZ101061AZ201061GA1041+008001081GA2991+999991031GE19MSL   +99999+99999GF106991041990008001991991MA1999990096951MD1909990+0041REMSYN004BUFR
0165829830999992014031012004-09383-040483FM-12+037299999V0201401N0041199999999010000199+02671+02021101411ADDAA101999990AZ101061AZ201061GA1031+008001081GA2991+999991051GE19MSL   +99999+99999GF106991031990008001991991KA1120N+02431MA1999990097301MD1909990+0051REMSYN004BUFR
0152829830999992014031018004-09383-040483FM-12+037299999V0201401N0031199999999020000199+03291+01911100741ADDAA101999990AZ101061AZ201061GA1021+008001081GA2991+999991001GE19MSL   +99999+99999GF105991021990008001991991MA1999990096691MD1909990-0131REMSYN004BUFR
0136829830999992014031100004-09383-040483FM-12+037299999V0201401N0015100800199002000199+03291+02001100921ADDAA101999990AZ101061AZ201061GA1061+008001081GE19MSL   +99999+99999GF106991061990008001991991MA1999990096851MD1909990-0101REMSYN004BUFR
0181829830999992014031112004-09383-040483FM-12+037299999V0200901N0046199999999010000199+02641+01901101301ADDAA101999990AZ101061AZ201061GA1041+008001081GA2991+999991021GA3991+999991031GE19MSL   +99999+99999GF108991041990008001991991KA1120N+02411MA1999990097201MD1909990-0101REMSYN004BUFR
0152829830999992014031118004-09383-040483FM-12+037299999V0201401N0041199999999020000199+03241+01821100851ADDAA101999990AZ101061AZ201061GA1021+008001081GA2991+999991021GE19MSL   +99999+99999GF108991021990008001991991MA1999990096751MD1909990+0061REMSYN004BUFR
0168829830999992014031200004-09383-040483FM-12+037299999V0201401N0021100800199002000199+03141+02451100971ADDAA101999990AZ101061AZ201061GA1071+008001061GA2991+999991101GA3991+999991101GE19MSL   +99999+99999GF107991071990008001991991MA1999990096901MD1909990+0051REMSYN004BUFR
0149829830999992014031212004-09383-040483FM-12+037299999V0201401N0031199999999020000199+02641+01981101361ADDAA101999990AZ101061AZ201061GA1041+008001081GE19MSL   +99999+99999GF106991041990008001991991KA1120N+02351MA1999990097281MD1909990+0081REMSYN004BUFR
0152829830999992014031218004-09383-040483FM-12+037299999V0201401N0031199999999010000199+03341+01751100841ADDAA101999990AZ101061AZ201061GA1031+008001081GA2991+999991001GE19MSL   +99999+99999GF105991031990008001991991MA1999990096771MD1909990+0021REMSYN004BUFR
0136829830999992014031300004-09383-040483FM-12+037299999V0201401N0015199999999002000199+03021+01891101011ADDAA101999990AZ101061AZ201061GA1041+008001081GE19MSL   +99999+99999GF104991041990008001991991MA1999990096931MD1909990+0031REMSYN004BUFR
0149829830999992014031312004-09383-040483FM-12+037299999V0201401N0046100800199020000199+02691+01961101341ADDAA101999990AZ101061AZ201061GA1051+008001081GE19MSL   +99999+99999GF105991051990008001991991KA1120N+02441MA1999990097251MD1909990-0031REMSYN004BUFR
0168829830999992014031318004-09383-040483FM-12+037299999V0201401N0031100800199020000199+03291+01721100911ADDAA101999990AZ101061AZ201061GA1071+008001061GA2991+999991101GA3991+999991101GE19MSL   +99999+99999GF107991071990008001991991MA1999990096851MD1909990+0081REMSYN004BUFR
0168829830999992014031400004-09383-040483FM-12+037299999V0200901N0031199999999002000199+02991+01881101121ADDAA101999990AZ101061AZ201061GA1021+008001081GA2991+999991101GA3991+999991051GE19MSL   +99999+99999GF106991021990008001991991MA1999990097071MD1909990+0111REMSYN004BUFR
0181829830999992014031412004-09383-040483FM-12+037299999V0201401N0031199999999020000199+02641+01901101321ADDAA101999990AZ101061AZ201061GA1031+008001081GA2991+999991001GA3991+999991031GE19MSL   +99999+99999GF106991031990008001991991KA1120N+02351MA1999990097221MD1909990-0031REMSYN004BUFR
0152829830999992014031418004-09383-040483FM-12+037299999V0201401N0015199999999020000199+03341+01831100831ADDAA101999990AZ101061AZ201061GA1021+008001081GA2991+999991031GE19MSL   +99999+99999GF106991021990008001991991MA1999990096751MD1909990-0101REMSYN004BUFR
0136829830999992014031500004-09383-040483FM-12+037299999V0201401N0015100800199002000199+03051+01901100911ADDAA101999990AZ101061AZ201061GA1061+008001081GE19MSL   +99999+99999GF106991061990008001991991MA1999990096841MD1909990-0201REMSYN004BUFR
0181829830999992014031512004-09383-040483FM-12+037299999V0200901N0041100800199010000199+02551+01971101271ADDAA101999990AZ101061AZ201061GA1081+008001061GA2991+999991101GA3991+999991101GE19MSL   +99999+99999GF108991081990008001991991KA1120N+02501MA1999990097131MD1909990-0051REMSYN004BUFR
0136829830999992014031518004-09383-040483FM-12+037299999V0200901N0026100800199010000199+03221+01841100821ADDAA101999990AZ101061AZ201061GA1051+008001081GE19MSL   +99999+99999GF108991051990008001991991MA1999990096741MD1909990+0001REMSYN004BUFR
0136829830999992014031600004-09383-040483FM-12+037299999V0203601N0000199999999002000199+02941+02291100941ADDAA101999990AZ101061AZ201061GA1031+008001081GE19MSL   +99999+99999GF107991031990008001991991MA1999990096851MD1909990+0011REMSYN004BUFR
0181829830999992014031612004-09383-040483FM-12+037299999V0201401N0026100800199010000199+02591+01711101211ADDAA101999990AZ101061AZ201061GA1051+008001081GA2991+999991001GA3991+999991031GE19MSL   +99999+99999GF108991051990008001991991KA1120N+02481MA1999990097141MD1909990-0031REMSYN004BUFR
0168829830999992014031618004-09383-040483FM-12+037299999V0200901N0031199999999020000199+03141+01941100861ADDAA101999990AZ101061AZ201061GA1031+008001081GA2991+999991031GA3991+999991001GE19MSL   +99999+99999GF107991031990008001991991MA1999990096781MD1909990+0031REMSYN004BUFR
0152829830999992014031700004-09383-040483FM-12+037299999V0200901N0046199999999002000199+02751+02071101111ADDAA101999990AZ101061AZ201061GA1011+008001081GA2991+999991021GE19MSL   +99999+99999GF106991011990008001991991MA1999990097001MD1909990+0151REMSYN004BUFR
0165829830999992014031712004-09383-040483FM-12+037299999V0201401N0041199999999010000199+02651+02001101331ADDAA101999990AZ101061AZ201061GA1041+008001081GA2991+999991051GE19MSL   +99999+99999GF108991041990008001991991KA1120N+02371MA1999990097221MD1909990+0081REMSYN004BUFR
0168829830999992014031718004-09383-040483FM-12+037299999V0201401N0031199999999020000199+03241+01891100831ADDAA101999990AZ101061AZ201061GA1021+008001081GA2991+999991001GA3991+999991051GE19MSL   +99999+99999GF106991021990008001991991MA1999990096751MD1909990-0031REMSYN004BUFR
0174829830999992014031800004-09383-040483FM-12+037299999V0201401N0031199999999002000199+02771+02161101031ADDAA106000831AY181061AY221061GA1031+008001081GA2991+999991001GA3991+999991031GE19MSL   +99999+99999GF106991031990008001991991MA1999990096931MD1909990-0071MW1021REMSYN004BUFR
0181829830999992014031812004-09383-040483FM-12+037299999V0201401N0031100800199010000199+02671+01971101331ADDAA124000831AZ101061AZ201061GA1081+008001071GA2991+999991101GA3991+999991101GE19MSL   +99999+99999GF108991081990008001991991KA1120N+02441MA1999990097221MD1909990+0001REMSYN004BUFR
0136829830999992014031818004-09383-040483FM-12+037299999V0201401N0031199999999020000199+03251+02111100871ADDAA101999990AZ101061AZ201061GA1041+008001081GE19MSL   +99999+99999GF108991041990008001991991MA1999990096801MD1909990+0051REMSYN004BUFR
0136829830999992014031900004-09383-040483FM-12+037299999V0201401N0015100800199002000199+03021+02041101001ADDAA101999990AZ101061AZ201061GA1061+008001081GE19MSL   +99999+99999GF106991061990008001991991MA1999990096921MD1909990-0011REMSYN004BUFR
0165829830999992014031912004-09383-040483FM-12+037299999V0201401N0031199999999010000199+02591+01991101321ADDAA101999990AZ101061AZ201061GA1021+008001081GA2991+999991021GE19MSL   +99999+99999GF106991021990008001991991KA1120N+02271MA1999990097221MD1909990+0001REMSYN004BUFR
0136829830999992014031918004-09383-040483FM-12+037299999V0201401N0026199999999010000199+03391+02341100781ADDAA101999990AZ101061AZ201061GA1031+008001081GE19MSL   +99999+99999GF106991031990008001991991MA1999990096721MD1909990-0081REMSYN004BUFR
0152829830999992014032000004-09383-040483FM-12+037299999V0200901N0041199999999002000199+02991+01971100921ADDAA101999990AZ101061AZ201061GA1031+008001081GA2991+999991051GE19MSL   +99999+99999GF106991031990008001991991MA1999990096841MD1909990-0081REMSYN004BUFR
0181829830999992014032012004-09383-040483FM-12+037299999V0201401N0041199999999020000199+02671+02021101291ADDAA101999990AZ101061AZ201061GA1011+008001081GA2991+999991011GA3991+999991031GE19MSL   +99999+99999GF103991011990008001991991KA1120N+02421MA1999990097201MD1909990-0021REMSYN004BUFR
0152829830999992014032018004-09383-040483FM-12+037299999V0200901N0031199999999020000199+03391+02211100801ADDAA101999990AZ101061AZ201061GA1031+008001081GA2991+999991021GE19MSL   +99999+99999GF105991031990008001991991MA1999990096751MD1909990+0031REMSYN004BUFR
0149829830999992014032112004-09383-040483FM-12+037299999V0201401N0031199999999020000199+02791+02181101281ADDAA101999990AZ101061AZ201061GA1021+008001081GE19MSL   +99999+99999GF103991021990008001991991KA1120N+02501MA1999990097211MD1909990+0011REMSYN004BUFR
0136829830999992014032118004-09383-040483FM-12+037299999V0201401N0031199999999010000199+03491+02431100761ADDAA101999990AZ101061AZ201061GA1031+008001081GE19MSL   +99999+99999GF105991031990008001991991MA1999990096731MD1909990-0021REMSYN004BUFR
0136829830999992014032200004-09383-040483FM-12+037299999V0201401N0031100800199002000199+03241+02061100871ADDAA101999990AZ101061AZ201061GA1051+008001081GE19MSL   +99999+99999GF105991051990008001991991MA1999990096831MD1909990+0101REMSYN004BUFR
0165829830999992014032212004-09383-040483FM-12+037299999V0200901N0031100800199010000199+02691+02201101301ADDAA101999990AZ101061AZ201061GA1061+008001081GA2991+999991001GE19MSL   +99999+99999GF107991061990008001991991KA1120N+02521MA1999990097231MD1909990+0011REMSYN004BUFR
0152829830999992014032218004-09383-040483FM-12+037299999V0200901N0026199999999020000199+03491+02401100781ADDAA101999990AZ101061AZ201061GA1041+008001081GA2991+999991001GE19MSL   +99999+99999GF106991041990008001991991MA1999990096741MD1909990+0011REMSYN004BUFR
0136829830999992014032300004-09383-040483FM-12+037299999V0201401N0031199999999002000199+03241+02221100871ADDAA101999990AZ101061AZ201061GA1031+008001081GE19MSL   +99999+99999GF103991031990008001991991MA1999990096821MD1909990-0011REMSYN004BUFR
0165829830999992014032312004-09383-040483FM-12+037299999V0201401N0031199999999010000199+02841+02121101191ADDAA101999990AZ101061AZ201061GA1011+008001081GA2991+999991001GE19MSL   +99999+99999GF104991011990008001991991KA1120N+02661MA1999990097141MD1909990-0091REMSYN004BUFR
0168829830999992014032318004-09383-040483FM-12+037299999V0201401N0015199999999020000199+03551+02451100591ADDAA101999990AZ101061AZ201061GA1021+008001081GA2991+999991001GA3991+999991051GE19MSL   +99999+99999GF105991021990008001991991MA1999990096581MD1909990-0161REMSYN004BUFR
0136829830999992014032400004-09383-040483FM-12+037299999V0201401N0015100800199002000199+03241+02031100811ADDAA101999990AZ101061AZ201061GA1051+008001081GE19MSL   +99999+99999GF105991051990008001991991MA1999990096771MD1909990-0051REMSYN004BUFR
0149829830999992014032412004-09383-040483FM-12+037299999V0201401N0026199999999020000199+02841+01931101211ADDAA101999990AZ101061AZ201061GA1021+008001081GE19MSL   +99999+99999GF102991021990008001991991KA1120N+02511MA1999990097161MD1909990+0021REMSYN004BUFR
0136829830999992014032418004-09383-040483FM-12+037299999V0200901N0021199999999020000199+03521+02451100671ADDAA101999990AZ101061AZ201061GA1031+008001081GE19MSL   +99999+99999GF103991031990008001991991MA1999990096651MD1909990+0071REMSYN004BUFR
0136829830999992014032500004-09383-040483FM-12+037299999V0201401N0021199999999002000199+03191+02271100861ADDAA101999990AZ101061AZ201061GA1031+008001081GE19MSL   +99999+99999GF103991031990008001991991MA1999990096821MD1909990+0051REMSYN004BUFR
0165829830999992014032512004-09383-040483FM-12+037299999V0200901N0046199999999020000199+02671+01971101371ADDAA101999990AZ101061AZ201061GA1041+008001081GA2991+999991001GE19MSL   +99999+99999GF105991041990008001991991KA1120N+02461MA1999990097301MD1909990+0141REMSYN004BUFR
0136829830999992014032518004-09383-040483FM-12+037299999V0201401N0015199999999020000199+03451+02391100831ADDAA101999990AZ101061AZ201061GA1031+008001081GE19MSL   +99999+99999GF103991031990008001991991MA1999990096791MD1909990+0141REMSYN004BUFR
0136829830999992014032600004-09383-040483FM-12+037299999V0201401N0015199999999002000199+03151+02201101041ADDAA101999990AZ101061AZ201061GA1011+008001081GE19MSL   +99999+99999GF101991011990008001991991MA1999990096971MD1909990+0151REMSYN004BUFR
0165829830999992014032612004-09383-040483FM-12+037299999V0201401N0031199999999020000199+02621+01931101411ADDAA101999990AZ101061AZ201061GA1041+008001081GA2991+999991021GE19MSL   +99999+99999GF106991041990008001991991KA1120N+02401MA1999990097331MD1909990+0031REMSYN004BUFR
0152829830999992014032618004-09383-040483FM-12+037299999V0201801N0015199999999020000199+03471+02381100801ADDAA101999990AZ101061AZ201061GA1031+008001081GA2991+999991021GE19MSL   +99999+99999GF104991031990008001991991MA1999990096761MD1909990-0031REMSYN004BUFR
0152829830999992014032700004-09383-040483FM-12+037299999V0201401N0015199999999002000199+03171+02311100971ADDAA101999990AZ101061AZ201061GA1021+008001081GA2991+999991031GE19MSL   +99999+99999GF104991021990008001991991MA1999990096901MD1909990-0071REMSYN004BUFR
0181829830999992014032712004-09383-040483FM-12+037299999V0200901N0026199999999010000199+02821+02291101221ADDAA101999990AZ101061AZ201061GA1031+008001081GA2991+999991021GA3991+999991051GE19MSL   +99999+99999GF106991031990008001991991KA1120N+02661MA1999990097161MD1909990-0171REMSYN004BUFR
0152829830999992014032718004-09383-040483FM-12+037299999V0200901N0015100800199020000199+03391+02511100651ADDAA101999990AZ101061AZ201061GA1051+008001081GA2991+999991001GE19MSL   +99999+99999GF106991051990008001991991MA1999990096611MD1909990-0151REMSYN004BUFR
0098829830999992014032800004-09383-040483FM-12+037299999V0201401N0015122000199002000199+03171+02361100861ADDAA101999990AZ101061AZ201061GF100991999999999999999999MA1999990096821MD1909990-0081REMSYN004BUFR
0181829830999992014032812004-09383-040483FM-12+037299999V0201401N0031100800199002000199+02641+01851101281ADDAA101999990AZ101061AZ201061GA1061+008001081GA2991+999991101GA3991+999991101GE19MSL   +99999+99999GF106991061990008001991991KA1120N+02461MA1999990097201MD1909990+0041REMSYN004BUFR
0152829830999992014032818004-09383-040483FM-12+037299999V0201401N0031199999999020000199+03391+02401100631ADDAA101999990AZ101061AZ201061GA1041+008001081GA2991+999991051GE19MSL   +99999+99999GF105991041990008001991991MA1999990096591MD1909990-0021REMSYN004BUFR
0136829830999992014032900004-09383-040483FM-12+037299999V0200901N0015100800199002000199+03151+02291100831ADDAA101999990AZ101061AZ201061GA1051+008001081GE19MSL   +99999+99999GF105991051990008001991991MA1999990096771MD1909990-0051REMSYN004BUFR
0149829830999992014032912004-09383-040483FM-12+037299999V0200901N0041100800199020000199+02771+02361101251ADDAA101999990AZ101061AZ201061GA1051+008001081GE19MSL   +99999+99999GF107991051990008001991991KA1120N+02521MA1999990097181MD1909990-0021REMSYN004BUFR
0152829830999992014032918004-09383-040483FM-12+037299999V0200501N0036199999999020000199+03371+02551100711ADDAA101999990AZ101061AZ201061GA1041+008001081GA2991+999991051GE19MSL   +99999+99999GF105991041990008001991991MA1999990096671MD1909990+0081REMSYN004BUFR
0136829830999992014033000004-09383-040483FM-12+037299999V0200501N0015100800199002000199+02991+02391100991ADDAA101999990AZ101061AZ201061GA1061+008001081GE19MSL   +99999+99999GF106991061990008001991991MA1999990096921MD1909990+0151REMSYN004BUFR
0187829830999992014033012004-09383-040483FM-12+037299999V0201401N0026199999999010000199+02591+02121101321ADDAA124003031AY101061AY211061GA1031+008001081GA2991+999991031GA3991+999991021GE19MSL   +99999+99999GF107991031990008001991991KA1120N+02411MA1999990097221MD1909990+0041MW1261REMSYN004BUFR
0136829830999992014033018004-09383-040483FM-12+037299999V0201401N0026199999999020000199+03321+02421100821ADDAA101999990AZ101061AZ201061GA1031+008001081GE19MSL   +99999+99999GF108991031990008001991991MA1999990096751MD1909990+0081REMSYN004BUFR
0142829830999992014033100004-09383-040483FM-12+037299999V0201401N0021199999999002000199+03021+02501100991ADDAA101999990AY121061AY211061GA1011+008001081GE19MSL   +99999+99999GF101991011990008001991991MA1999990096911MD1909990-0011MW1131REMSYN004BUFR
0149829830999992014033112004-09383-040483FM-12+037299999V0201401N0015100800199020000199+02651+01951101411ADDAA101999990AZ101061AZ201061GA1061+008001081GE19MSL   +99999+99999GF106991061990008001991991KA1120N+02421MA1999990097321MD1909990+0101REMSYN004BUFR
0152829830999992014033118004-09383-040483FM-12+037299999V0201401N0015199999999020000199+03441+01801100851ADDAA101999990AZ101061AZ201061GA1041+008001081GA2991+999991001GE19MSL   +99999+99999GF105991041990008001991991MA1999990096811MD1909990+0061REMSYN004BUFR
0136829830999992014040100004-09383-040483FM-12+037299999V0201401N0031199999999002000199+03141+01801101051ADDAA101999990AZ101061AZ201061GA1041+008001081GE19MSL   +99999+99999GF105991041990008001991991MA1999990096981MD1909990+0071REMSYN004BUFR
0181829830999992014040112004-09383-040483FM-12+037299999V0201401N0031100800199010000199+02621+01961101361ADDAA101999990AZ101061AZ201061GA1081+008001071GA2991+999991101GA3991+999991101GE19MSL   +99999+99999GF108991081990008001991991KA1120N+02391MA1999990097281MD1909990+0041REMSYN004BUFR
0136829830999992014040118004-09383-040483FM-12+037299999V0200901N0046100800199020000199+03321+01891100891ADDAA101999990AZ101061AZ201061GA1061+008001081GE19MSL   +99999+99999GF106991061990008001991991MA1999990096851MD1909990+0041REMSYN004BUFR
0098829830999992014040200004-09383-040483FM-12+037299999V0201401N0015122000199002000199+03091+01841101001ADDAA101999990AZ101061AZ201061GF100991999999999999999999MA1999990096921MD1909990-0061REMSYN004BUFR
0149829830999992014040212004-09383-040483FM-12+037299999V0201401N0031199999999010000199+02691+01991101321ADDAA101999990AZ101061AZ201061GA1031+008001081GE19MSL   +99999+99999GF106991031990008001991991KA1120N+02411MA1999990097241MD1909990-0041REMSYN004BUFR
0152829830999992014040218004-09383-040483FM-12+037299999V0201401N0015199999999010000199+03371+01791100761ADDAA101999990AZ101061AZ201061GA1011+008001081GA2991+999991001GE19MSL   +99999+99999GF102991011990008001991991MA1999990096721MD1909990-0131REMSYN004BUFR
0098829830999992014040300004-09383-040483FM-12+037299999V0201801N0015122000199002000199+02991+02001100961ADDAA101999990AZ101061AZ201061GF100991999999999999999999MA1999990096881MD1909990-0041REMSYN004BUFR
0165829830999992014040312004-09383-040483FM-12+037299999V0201401N0031199999999020000199+02791+02001101181ADDAA101999990AZ101061AZ201061GA1031+008001081GA2991+999991021GE19MSL   +99999+99999GF106991031990008001991991KA1120N+02471MA1999990097111MD1909990-0131REMSYN004BUFR
0152829830999992014040318004-09383-040483FM-12+037299999V0200901N0031199999999020000199+03471+02171100731ADDAA101999990AZ101061AZ201061GA1031+008001081GA2991+999991021GE19MSL   +99999+99999GF106991031990008001991991MA1999990096701MD1909990-0021REMSYN004BUFR
0098829830999992014040400004-09383-040483FM-12+037299999V0200901N0015122000199002000199+03041+01851100981ADDAA101999990AZ101061AZ201061GF100991999999999999999999MA1999990096911MD1909990+0031REMSYN004BUFR
0181829830999992014040412004-09383-040483FM-12+037299999V0201401N0031100800199010000199+02621+02011101421ADDAA101999990AZ101061AZ201061GA1071+008001081GA2991+999991101GA3991+999991101GE19MSL   +99999+99999GF107991071990008001991991KA1120N+02471MA1999990097331MD1909990+0221REMSYN004BUFR
0168829830999992014040418004-09383-040483FM-12+037299999V0201401N0010199999999010000199+03271+01961100881ADDAA101999990AZ101061AZ201061GA1021+008001081GA2991+999991101GA3991+999991051GE19MSL   +99999+99999GF107991021990008001991991MA1999990096831MD1909990+0131REMSYN004BUFR
0098829830999992014040500004-09383-040483FM-12+037299999V0201401N0015122000199002000199+03051+01901101141ADDAA101999990AZ101061AZ201061GF100991999999999999999999MA1999990097061MD1909990+0151REMSYN004BUFR
0181829830999992014040512004-09383-040483FM-12+037299999V0201401N0031199999999020000199+02771+02091101391ADDAA101999990AZ101061AZ201061GA1031+008001081GA2991+999991001GA3991+999991031GE19MSL   +99999+99999GF105991031990008001991991KA1120N+02541MA1999990097311MD1909990-0021REMSYN004BUFR
0152829830999992014040518004-09383-040483FM-12+037299999V0201401N0015199999999020000199+03491+02401100901ADDAA101999990AZ101061AZ201061GA1031+008001081GA2991+999991001GE19MSL   +99999+99999GF107991031990008001991991MA1999990096871MD1909990+0041REMSYN004BUFR
0136829830999992014040600004-09383-040483FM-12+037299999V0200901N0015199999999002000199+03141+01911101041ADDAA101999990AZ101061AZ201061GA1021+008001081GE19MSL   +99999+99999GF102991021990008001991991MA1999990096981MD1909990-0081REMSYN004BUFR
0149829830999992014040612004-09383-040483FM-12+037299999V0201401N0031199999999020000199+02871+02131101371ADDAA101999990AZ101061AZ201061GA1021+008001081GE19MSL   +99999+99999GF102991021990008001991991KA1120N+02571MA1999990097301MD1909990-0011REMSYN004BUFR
0168829830999992014040618004-09383-040483FM-12+037299999V0200501N0031199999999020000199+03371+01981100791ADDAA101999990AZ101061AZ201061GA1021+008001081GA2991+999991001GA3991+999991051GE19MSL   +99999+99999GF105991021990008001991991MA1999990096751MD1909990-0121REMSYN004BUFR
0136829830999992014040700004-09383-040483FM-12+037299999V0200501N0015199999999002000199+02941+02161101091ADDAA101999990AZ101061AZ201061GA1031+008001081GE19MSL   +99999+99999GF103991031990008001991991MA1999990097021MD1909990+0041REMSYN004BUFR
0171829830999992014040712004-09383-040483FM-12+037299999V0201401N0026100800199010000199+02571+02291101331ADDAA124029031AY161061AY221061GA1051+008001081GA2991+999991021GE19MSL   +99999+99999GF107991051990008001991991KA1120N+02371MA1999990097221MD1909990-0081MW1011REMSYN004BUFR
0152829830999992014040718004-09383-040483FM-12+037299999V0201401N0015199999999020000199+03191+02091100821ADDAA101999990AZ101061AZ201061GA1021+008001081GA2991+999991001GE19MSL   +99999+99999GF107991021990008001991991MA1999990096741MD1909990-0011REMSYN004BUFR
0136829830999992014040800004-09383-040483FM-12+037299999V0202701N0010100800199002000199+02891+02371101051ADDAA101999990AZ101061AZ201061GA1071+008001081GE19MSL   +99999+99999GF107991071990008001991991MA1999990096951MD1909990-0071REMSYN004BUFR
0171829830999992014040812004-09383-040483FM-12+037299999V0201801N0010199999999010000199+02321+02251101451ADDAA124117031AY181061AY261061GA1021+008001081GA2991+999991041GE19MSL   +99999+99999GF108991021990008001991991KA1120N+02241MA1999990097311MD1909990+0091MW1501REMSYN004BUFR
0152829830999992014040818004-09383-040483FM-12+037299999V0201401N0015199999999020000199+02971+02281100901ADDAA101999990AZ101061AZ201061GA1031+008001081GA2991+999991001GE19MSL   +99999+99999GF105991031990008001991991MA1999990096781MD1909990+0041REMSYN004BUFR
0168829830999992014040900004-09383-040483FM-12+037299999V0203601N0000100800199002000199+02791+02481101171ADDAA101999990AZ101061AZ201061GA1081+008001071GA2991+999991101GA3991+999991101GE19MSL   +99999+99999GF108991081990008001991991MA1999990096741MD1909990+0091REMSYN004BUFR
0187829830999992014040912004-09383-040483FM-12+037299999V0200501N0015100800199010000199+02441+02271101441ADDAA101999990AY121061AY221061GA1051+008001081GA2991+999991101GA3991+999991031GE19MSL   +99999+99999GF107991051990008001991991KA1120N+02331MA1999990097301MD1909990-0011MW1141REMSYN004BUFR
0136829830999992014040918004-09383-040483FM-12+037299999V0201401N0015199999999010000199+03091+02231100771ADDAA101999990AZ101061AZ201061GA1031+008001081GE19MSL   +99999+99999GF106991031990008001991991MA1999990096701MD1909990-0081REMSYN004BUFR
0152829830999992014041000004-09383-040483FM-12+037299999V0200901N0015199999999002000199+02741+02281101141ADDAA101999990AZ101061AZ201061GA1011+008001081GA2991+999991031GE19MSL   +99999+99999GF104991011990008001991991MA1999990097021MD1909990-0021REMSYN004BUFR
0187829830999992014041012004-09383-040483FM-12+037299999V0200901N0015199999999010000199+02371+02171101461ADDAA124003031AY161061AY221061GA1041+008001081GA2991+999991101GA3991+999991051GE19MSL   +99999+99999GF106991041990008001991991KA1120N+02231MA1999990097311MD1909990+0011MW1021REMSYN004BUFR
0168829830999992014041018004-09383-040483FM-12+037299999V0202701N0046100800199010000199+02891+02251100951ADDAA101999990AZ101061AZ201061GA1051+008001081GA2991+999991001GA3991+999991051GE19MSL   +99999+99999GF107991051990008001991991MA1999990096841MD1909990+0141REMSYN004BUFR
0174829830999992014041100004-09383-040483FM-12+037299999V0202301N0015100800199002000199+02321+02241101361ADDAA106012031AY161061AY221061GA1081+008001071GA2991+999991101GA3991+999991101GE19MSL   +99999+99999GF108991081990008001991991MA1999990097181MD1909990+0161MW1511REMSYN004BUFR
0155829830999992014041112004-09383-040483FM-12+037299999V0200901N0015199999999010000199+02491+02291101561ADDAA124012031AY161061AY221061GA1031+008001081GE19MSL   +99999+99999GF108991031990008001991991KA1120N+02281MA1999990097381MD1909990+0071MW1141REMSYN004BUFR
0152829830999992014041118004-09383-040483FM-12+037299999V0200901N0015199999999010000199+03121+02141100851ADDAA101999990AZ101061AZ201061GA1031+008001081GA2991+999991001GE19MSL   +99999+99999GF105991031990008001991991MA1999990096751MD1909990-0091REMSYN004BUFR
0152829830999992014041200004-09383-040483FM-12+037299999V0200501N0015199999999002000199+02621+02331101141ADDAA101999990AZ101061AZ201061GA1041+008001081GA2991+999991031GE19MSL   +99999+99999GF106991041990008001991991MA1999990097011MD1909990-0171REMSYN004BUFR
0171829830999992014041212004-09383-040483FM-12+037299999V0201401N0015100800199010000199+02571+02101101471ADDAA124004031AY161061AY221061GA1061+008001081GA2991+999991001GE19MSL   +99999+99999GF107991061990008001991991KA1120N+02331MA1999990097331MD1909990-0051MW1011REMSYN004BUFR
0152829830999992014041218004-09383-040483FM-12+037299999V0201401N0021199999999020000199+03071+02131101021ADDAA101999990AZ101061AZ201061GA1031+008001081GA2991+999991021GE19MSL   +99999+99999GF104991031990008001991991MA1999990096931MD1909990+0181REMSYN004BUFR
0136829830999992014041300004-09383-040483FM-12+037299999V0201401N0021199999999002000199+02751+02161101161ADDAA101999990AZ101061AZ201061GA1991+008001001GE19MSL   +99999+99999GF103991990990008001991991MA1999990097051MD1909990+0041REMSYN004BUFR
0181829830999992014041312004-09383-040483FM-12+037299999V0201401N0015100800199020000199+02651+02071101381ADDAA101999990AZ101061AZ201061GA1051+008001081GA2991+999991011GA3991+999991051GE19MSL   +99999+99999GF108991051990008001991991KA1120N+02411MA1999990097261MD1909990-0071REMSYN004BUFR
0136829830999992014041318004-09383-040483FM-12+037299999V0200901N0036100800199020000199+03151+02521100821ADDAA101999990AZ101061AZ201061GA1051+008001081GE19MSL   +99999+99999GF105991051990008001991991MA1999990096741MD1909990-0191REMSYN004BUFR
0168829830999992014041400004-09383-040483FM-12+037299999V0201401N0021100800199002000199+02841+02071101001ADDAA101999990AZ101061AZ201061GA1071+008001061GA2991+999991101GA3991+999991101GE19MSL   +99999+99999GF107991071990008001991991MA1999990096911MD1909990-0141REMSYN004BUFR
0149829830999992014041412004-09383-040483FM-12+037299999V0201401N0051100800199010000199+02691+02241101281ADDAA101999990AZ101061AZ201061GA1061+008001081GE19MSL   +99999+99999GF106991061990008001991991KA1120N+02501MA1999990097151MD1909990-0111REMSYN004BUFR
0136829830999992014041418004-09383-040483FM-12+037299999V0201401N0031100800199020000199+03221+02201100731ADDAA101999990AZ101061AZ201061GA1051+008001081GE19MSL   +99999+99999GF105991051990008001991991MA1999990096661MD1909990-0081REMSYN004BUFR
0136829830999992014041500004-09383-040483FM-12+037299999V0201401N0015199999999002000199+02871+02251100941ADDAA101999990AZ101061AZ201061GA1031+008001081GE19MSL   +99999+99999GF103991031990008001991991MA1999990096861MD1909990-0051REMSYN004BUFR
0181829830999992014041512004-09383-040483FM-12+037299999V0201401N0041100800199010000199+02591+01941101371ADDAA101999990AZ101061AZ201061GA1071+008001061GA2991+999991101GA3991+999991101GE19MSL   +99999+99999GF107991071990008001991991KA1120N+02401MA1999990097251MD1909990+0101REMSYN004BUFR
0152829830999992014041518004-09383-040483FM-12+037299999V0201401N0026199999999020000199+03121+01951100851ADDAA101999990AZ101061AZ201061GA1041+008001081GA2991+999991001GE19MSL   +99999+99999GF106991041990008001991991MA1999990096761MD1909990+0101REMSYN004BUFR
0098829830999992014041600004-09383-040483FM-12+037299999V0200901N0031122000199002000199+02751+01861100991ADDAA101999990AZ101061AZ201061GF100991999999999999999999MA1999990096891MD1909990+0031REMSYN004BUFR
0149829830999992014041612004-09383-040483FM-12+037299999V0201401N0031100800199010000199+02591+01921101351ADDAA101999990AZ101061AZ201061GA1061+008001081GE19MSL   +99999+99999GF106991061990008001991991KA1120N+02301MA1999990097241MD1909990-0011REMSYN004BUFR
0168829830999992014041618004-09383-040483FM-12+037299999V0201401N0031199999999010000199+03041+02181100881ADDAA101999990AZ101061AZ201061GA1021+008001081GA2991+999991001GA3991+999991051GE19MSL   +99999+99999GF106991021990008001991991MA1999990096771MD1909990+0011REMSYN004BUFR
0152829830999992014041700004-09383-040483FM-12+037299999V0201401N0015199999999002000199+02821+02241101071ADDAA101999990AZ101061AZ201061GA1011+008001081GA2991+999991021GE19MSL   +99999+99999GF102991011990008001991991MA1999990096961MD1909990+0071REMSYN004BUFR
0165829830999992014041712004-09383-040483FM-12+037299999V0201401N0026199999999020000199+02541+02021101231ADDAA101999990AZ101061AZ201061GA1021+008001081GA2991+999991051GE19MSL   +99999+99999GF106991021990008001991991KA1120N+02281MA1999990097121MD1909990+0121REMSYN004BUFR
0152829830999992014041718004-09383-040483FM-12+037299999V0201401N0026199999999020000199+03091+02711100801ADDAA101999990AZ101061AZ201061GA1031+008001081GA2991+999991031GE19MSL   +99999+99999GF104991031990008001991991MA1999990096711MD1909990-0061REMSYN004BUFR
0136829830999992014041800004-09383-040483FM-12+037299999V0201401N0021199999999002000199+02821+01891101071ADDAA101999990AZ101061AZ201061GA1011+008001081GE19MSL   +99999+99999GF101991011990008001991991MA1999990096931MD1909990-0031REMSYN004BUFR
0165829830999992014041812004-09383-040483FM-12+037299999V0201401N0031199999999010000199+02571+02041101251ADDAA101999990AZ101061AZ201061GA1041+008001081GA2991+999991021GE19MSL   +99999+99999GF106991041990008001991991KA1120N+02361MA1999990097141MD1909990+0021REMSYN004BUFR
0168829830999992014041818004-09383-040483FM-12+037299999V0201401N0031199999999010000199+03171+02011100781ADDAA101999990AZ101061AZ201061GA1031+008001081GA2991+999991021GA3991+999991051GE19MSL   +99999+99999GF105991031990008001991991MA1999990096701MD1909990-0011REMSYN004BUFR
0136829830999992014041900004-09383-040483FM-12+037299999V0201401N0015199999999002000199+02851+02061101011ADDAA101999990AZ101061AZ201061GA1021+008001081GE19MSL   +99999+99999GF102991021990008001991991MA1999990096911MD1909990-0021REMSYN004BUFR
0149829830999992014041912004-09383-040483FM-12+037299999V0201401N0036199999999020000199+02691+02111101391ADDAA101999990AZ101061AZ201061GA1041+008001081GE19MSL   +99999+99999GF104991041990008001991991KA1120N+02421MA1999990097291MD1909990+0151REMSYN004BUFR
0168829830999992014041918004-09383-040483FM-12+037299999V0201401N0026199999999020000199+03251+01911100941ADDAA101999990AZ101061AZ201061GA1041+008001081GA2991+999991001GA3991+999991051GE19MSL   +99999+99999GF106991041990008001991991MA1999990096861MD1909990+0161REMSYN004BUFR
0098829830999992014042000004-09383-040483FM-12+037299999V0203601N0000122000199002000199+02921+02121101011ADDAA101999990AZ101061AZ201061GF100991999999999999999999MA1999990096931MD1909990+0021REMSYN004BUFR
0149829830999992014042012004-09383-040483FM-12+037299999V0201401N0041100800199010000199+02691+02081101381ADDAA101999990AZ101061AZ201061GA1061+008001081GE19MSL   +99999+99999GF106991061990008001991991KA1120N+02491MA1999990097281MD1909990-0011REMSYN004BUFR
0136829830999992014042018004-09383-040483FM-12+037299999V0201401N0031199999999020000199+03241+02281100891ADDAA101999990AZ101061AZ201061GA1031+008001081GE19MSL   +99999+99999GF103991031990008001991991MA1999990096821MD1909990-0041REMSYN004BUFR
0098829830999992014042100004-09383-040483FM-12+037299999V0201401N0031122000199002000199+02741+02071101111ADDAA101999990AZ101061AZ201061GF100991999999999999999999MA1999990097001MD1909990+0071REMSYN004BUFR
0149829830999992014042112004-09383-040483FM-12+037299999V0201401N0026199999999010000199+02591+02011101381ADDAA101999990AZ101061AZ201061GA1031+008001081GE19MSL   +99999+99999GF108991031990008001991991KA1120N+02391MA1999990097261MD1909990-0021REMSYN004BUFR
0136829830999992014042118004-09383-040483FM-12+037299999V0201401N0015199999999020000199+03091+02001100891ADDAA101999990AZ101061AZ201061GA1031+008001081GE19MSL   +99999+99999GF107991031990008001991991MA1999990096811MD1909990-0011REMSYN004BUFR
0098829830999992014042200004-09383-040483FM-12+037299999V0201401N0015122000199002000199+02821+01891101051ADDAA101999990AZ101061AZ201061GF100991999999999999999999MA1999990096941MD1909990-0061REMSYN004BUFR
0149829830999992014042212004-09383-040483FM-12+037299999V0201401N0031100800199020000199+02571+02041101381ADDAA101999990AZ101061AZ201061GA1061+008001081GE19MSL   +99999+99999GF108991061990008001991991KA1120N+02361MA1999990097261MD1909990+0001REMSYN004BUFR
0152829830999992014042218004-09383-040483FM-12+037299999V0200901N0026199999999020000199+03141+01731100861ADDAA101999990AZ101061AZ201061GA1031+008001081GA2991+999991021GE19MSL   +99999+99999GF105991031990008001991991MA1999990096771MD1909990-0041REMSYN004BUFR
0098829830999992014042300004-09383-040483FM-12+037299999V0201401N0026122000199002000199+02791+01841101081ADDAA101999990AZ101061AZ201061GF100991999999999999999999MA1999990096971MD1909990+0031REMSYN004BUFR
0149829830999992014042312004-09383-040483FM-12+037299999V0201401N0026199999999010000199+02671+02041101441ADDAA101999990AZ101061AZ201061GA1041+008001081GE19MSL   +99999+99999GF105991041990008001991991KA1120N+02361MA1999990097331MD1909990+0071REMSYN004BUFR
0136829830999992014042318004-09383-040483FM-12+037299999V0201401N0026199999999020000199+03191+01961100871ADDAA101999990AZ101061AZ201061GA1031+008001081GE19MSL   +99999+99999GF104991031990008001991991MA1999990096791MD1909990+0021REMSYN004BUFR
0136829830999992014042400004-09383-040483FM-12+037299999V0201401N0015199999999004000199+02951+02051101061ADDAA101999990AZ101061AZ201061GA1021+008001081GE19MSL   +99999+99999GF102991021990008001991991MA1999990096971MD1909990+0001REMSYN004BUFR
0149829830999992014042412004-09383-040483FM-12+037299999V0200901N0015199999999020000199+02691+02031101311ADDAA101999990AZ101061AZ201061GA1041+008001081GE19MSL   +99999+99999GF105991041990008001991991KA1120N+02481MA1999990097221MD1909990-0111REMSYN004BUFR
0152829830999992014042418004-09383-040483FM-12+037299999V0201401N0026199999999020000199+03251+02051100771ADDAA101999990AZ101061AZ201061GA1021+008001081GA2991+999991021GE19MSL   +99999+99999GF103991021990008001991991MA1999990096711MD1909990-0081REMSYN004BUFR
0098829830999992014042500004-09383-040483FM-12+037299999V0201401N0026122000199002000199+02951+02051100881ADDAA101999990AZ101061AZ201061GF100991999999999999999999MA1999990096811MD1909990-0161REMSYN004BUFR
0165829830999992014042512004-09383-040483FM-12+037299999V0200901N0031199999999020000199+02741+02171101131ADDAA101999990AZ101061AZ201061GA1021+008001081GA2991+999991021GE19MSL   +99999+99999GF104991021990008001991991KA1120N+02471MA1999990097051MD1909990-0171REMSYN004BUFR
0152829830999992014042518004-09383-040483FM-12+037299999V0200901N0031199999999020000199+03351+01971100561ADDAA101999990AZ101061AZ201061GA1031+008001081GA2991+999991021GE19MSL   +99999+99999GF104991031990008001991991MA1999990096521MD1909990-0191REMSYN004BUFR
0152829830999992014042600004-09383-040483FM-12+037299999V0201801N0015199999999002000199+02851+02161100901ADDAA101999990AZ101061AZ201061GA1031+008001081GA2991+999991031GE19MSL   +99999+99999GF104991031990008001991991MA1999990096821MD1909990-0011REMSYN004BUFR
0181829830999992014042612004-09383-040483FM-12+037299999V0200901N0031199999999020000199+02841+02121101171ADDAA101999990AZ101061AZ201061GA1021+008001081GA2991+999991001GA3991+999991031GE19MSL   +99999+99999GF108991021990008001991991KA1120N+02561MA1999990097091MD1909990+0041REMSYN004BUFR
0168829830999992014042618004-09383-040483FM-12+037299999V0201801N0015199999999010000199+03171+02011100661ADDAA101999990AZ101061AZ201061GA1021+008001081GA2991+999991021GA3991+999991031GE19MSL   +99999+99999GF108991021990008001991991MA1999990096611MD1909990+0091REMSYN004BUFR
0168829830999992014042700004-09383-040483FM-12+037299999V0202701N0015100800199002000199+02751+02161100951ADDAA101999990AZ101061AZ201061GA1071+008001071GA2991+999991101GA3991+999991101GE19MSL   +99999+99999GF107991071990008001991991MA1999990096871MD1909990+0051REMSYN004BUFR
0187829830999992014042712004-09383-040483FM-12+037299999V0201401N0015100800199002000199+02321+02241101451ADDAA124012031AY161061AY221061GA1081+008001081GA2991+999991101GA3991+999991101GE19MSL   +99999+99999GF108991081990008001991991KA1120N+02281MA1999990097301MD1909990+0211MW1511REMSYN004BUFR
0174829830999992014042718004-09383-040483FM-12+037299999V0201401N0031199999999002000199+02551+02311101111ADDAA106003031AY161061AY221061GA1041+008001081GA2991+999991101GA3991+999991051GE19MSL   +99999+99999GF107991041990008001991991MA1999990096961MD1909990+0351MW1021REMSYN004BUFR
0168829830999992014042800004-09383-040483FM-12+037299999V0201401N0015100800199002000199+02421+02151101441ADDAA101999990AZ101061AZ201061GA1081+008001061GA2991+999991101GA3991+999991101GE19MSL   +99999+99999GF108991081990008001991991MA1999990097261MD1909990+0391REMSYN004BUFR
0181829830999992014042812004-09383-040483FM-12+037299999V0201401N0031100800199010000199+02421+01991101541ADDAA124003031AZ101061AZ201061GA1061+008001061GA2991+999991101GA3991+999991051GE19MSL   +99999+99999GF108991061990008001991991KA1120N+02261MA1999990097361MD1909990+0061REMSYN004BUFR
0152829830999992014042818004-09383-040483FM-12+037299999V0201401N0015100800199010000199+02721+02001101271ADDAA101999990AZ101061AZ201061GA1061+008001061GA2991+999991041GE19MSL   +99999+99999GF108991061990008001991991MA1999990097121MD1909990-0161REMSYN004BUFR
0136829830999992014042900004-09383-040483FM-12+037299999V0201401N0015100800199002000199+02551+02021101391ADDAA101999990AZ101061AZ201061GA1061+008001061GE19MSL   +99999+99999GF106991061990008001991991MA1999990097241MD1909990-0021REMSYN004BUFR
0149829830999992014042912004-09383-040483FM-12+037299999V0201401N0031100800199010000199+02371+01891101601ADDAA101999990AZ101061AZ201061GA1081+008001061GE19MSL   +99999+99999GF108991081990008001991991KA1120N+02191MA1999990097431MD1909990+0071REMSYN004BUFR
0136829830999992014042918004-09383-040483FM-12+037299999V0201401N0036100800199020000199+02671+01971101281ADDAA101999990AZ101061AZ201061GA1051+008001081GE19MSL   +99999+99999GF106991051990008001991991MA1999990097121MD1909990+0001REMSYN004BUFR
0136829830999992014043000004-09383-040483FM-12+037299999V0201401N0031199999999002000199+02321+01871101521ADDAA101999990AZ101061AZ201061GA1041+008001081GE19MSL   +99999+99999GF104991041990008001991991MA1999990097341MD1909990-0101REMSYN004BUFR
0181829830999992014043012004-09383-040483FM-12+037299999V0201401N0041100800199010000199+02371+01781101431ADDAA101999990AZ101061AZ201061GA1081+008001071GA2991+999991101GA3991+999991101GE19MSL   +99999+99999GF108991081990008001991991KA1120N+02141MA1999990097251MD1909990-0181REMSYN004BUFR
0136829830999992014043018004-09383-040483FM-12+037299999V0201401N0031100800199010000199+02621+01861101071ADDAA101999990AZ101061AZ201061GA1051+008001081GE19MSL   +99999+99999GF108991051990008001991991MA1999990096911MD1909990-0211REMSYN004BUFR
0152829830999992014050100004-09383-040483FM-12+037299999V0201401N0015100800199002000199+02491+01941101271ADDAA101999990AZ101061AZ201061GA1051+008001081GA2991+999991041GE19MSL   +99999+99999GF106991051990008001991991MA1999990097121MD1909990-0221REMSYN004BUFR
0181829830999992014050112004-09383-040483FM-12+037299999V0201401N0031199999999010000199+02451+01901101291ADDAA101999990AZ101061AZ201061GA1021+008001081GA2991+999991051GA3991+999991001GE19MSL   +99999+99999GF108991021990008001991991KA1120N+02171MA1999990097141MD1909990-0111REMSYN004BUFR
0168829830999992014050118004-09383-040483FM-12+037299999V0201401N0031100800199002000199+02691+01961101001ADDAA101999990AZ101061AZ201061GA1081+008001081GA2991+999991101GA3991+999991101GE19MSL   +99999+99999GF108991081990008001991991MA1999990096851MD1909990-0061REMSYN004BUFR
0168829830999992014050200004-09383-040483FM-12+037299999V0201401N0031199999999002000199+02441+02031101251ADDAA101999990AZ101061AZ201061GA1041+008001081GA2991+999991041GA3991+999991101GE19MSL   +99999+99999GF107991041990008001991991MA1999990097101MD1909990-0021REMSYN004BUFR
0155829830999992014050212004-09383-040483FM-12+037299999V0201401N0041100800199010000199+02491+01941101441ADDAA124000631AY101061AY211061GA1051+008001061GE19MSL   +99999+99999GF107991051990008001991991KA1120N+02191MA1999990097281MD1909990+0141MW1521REMSYN004BUFR
0152829830999992014050218004-09383-040483FM-12+037299999V0201401N0041199999999020000199+02851+02091101111ADDAA101999990AZ101061AZ201061GA1041+008001081GA2991+999991031GE19MSL   +99999+99999GF107991041990008001991991MA1999990096981MD1909990+0131REMSYN004BUFR
0152829830999992014050300004-09383-040483FM-12+037299999V0201401N0026199999999002000199+02571+02171101311ADDAA101999990AZ101061AZ201061GA1011+008001081GA2991+999991031GE19MSL   +99999+99999GF106991011990008001991991MA1999990097171MD1909990+0071REMSYN004BUFR
0187829830999992014050312004-09383-040483FM-12+037299999V0201401N0031100800199002000199+02341+02131101581ADDAA124000231AY151061AY221061GA1081+008001061GA2991+999991101GA3991+999991101GE19MSL   +99999+99999GF108991081990008001991991KA1120N+02211MA1999990097411MD1909990+0131MW1141REMSYN004BUFR
0158829830999992014050318004-09383-040483FM-12+037299999V0201401N0026199999999010000199+02671+02181101181ADDAA106000831AY151061AY221061GA1041+008001081GA2991+999991031GE19MSL   +99999+99999GF105991041990008001991991MA1999990097031MD1909990+0051MW1021REMSYN004BUFR
0136829830999992014050400004-09383-040483FM-12+037299999V0201401N0015100800199002000199+02591+02081101471ADDAA101999990AZ101061AZ201061GA1061+008001081GE19MSL   +99999+99999GF106991061990008001991991MA1999990097311MD1909990+0141REMSYN004BUFR
0165829830999992014050412004-09383-040483FM-12+037299999V0201401N0031100800199010000199+02471+01961101621ADDAA124000831AZ101061AZ201061GA1061+008001061GA2991+999991021GE19MSL   +99999+99999GF107991061990008001991991KA1120N+02291MA1999990097471MD1909990+0061REMSYN004BUFR
0152829830999992014050418004-09383-040483FM-12+037299999V0201401N0041199999999020000199+02821+02001101221ADDAA101999990AZ101061AZ201061GA1031+008001081GA2991+999991031GE19MSL   +99999+99999GF105991031990008001991991MA1999990097081MD1909990+0051REMSYN004BUFR
0098829830999992014050500004-09383-040483FM-12+037299999V0201401N0026122000199002000199+02551+02021101401ADDAA101999990AZ101061AZ201061GF100991999999999999999999MA1999990097251MD1909990-0061REMSYN004BUFR
0149829830999992014050512004-09383-040483FM-12+037299999V0201401N0031199999999020000199+02441+02071101521ADDAA101999990AZ101061AZ201061GA1031+008001081GE19MSL   +99999+99999GF103991031990008001991991KA1120N+02091MA1999990097361MD1909990-0111REMSYN004BUFR
0136829830999992014050518004-09383-040483FM-12+037299999V0201401N0015199999999020000199+03041+01911101021ADDAA101999990AZ101061AZ201061GA1041+008001081GE19MSL   +99999+99999GF104991041990008001991991MA1999990096911MD1909990-0171REMSYN004BUFR
0098829830999992014050600004-09383-040483FM-12+037299999V0201401N0015122000199002000199+02571+02041101291ADDAA101999990AZ101061AZ201061GF100991999999999999999999MA1999990097141MD1909990-0111REMSYN004BUFR
0181829830999992014050612004-09383-040483FM-12+037299999V0201401N0021100800199010000199+02391+01971101611ADDAA101999990AZ101061AZ201061GA1081+008001071GA2991+999991101GA3991+999991101GE19MSL   +99999+99999GF108991081990008001991991KA1120N+02161MA1999990097451MD1909990+0091REMSYN004BUFR
0152829830999992014050618004-09383-040483FM-12+037299999V0201401N0026199999999020000199+02951+02131101111ADDAA101999990AZ101061AZ201061GA1031+008001081GA2991+999991031GE19MSL   +99999+99999GF104991031990008001991991MA1999990096991MD1909990+0081REMSYN004BUFR
0136829830999992014050700004-09383-040483FM-12+037299999V0201401N0015199999999002000199+02571+01921101291ADDAA101999990AZ101061AZ201061GA1021+008001061GE19MSL   +99999+99999GF102991021990008001991991MA1999990097141MD1909990+0001REMSYN004BUFR
0149829830999992014050712004-09383-040483FM-12+037299999V0201401N0031100800199020000199+02621+02031101541ADDAA101999990AZ101061AZ201061GA1061+008001081GE19MSL   +99999+99999GF106991061990008001991991KA1120N+02301MA1999990097401MD1909990-0051REMSYN004BUFR
0152829830999992014050718004-09383-040483FM-12+037299999V0201401N0015199999999020000199+03121+01891101151ADDAA101999990AZ101061AZ201061GA1031+008001081GA2991+999991031GE19MSL   +99999+99999GF104991031990008001991991MA1999990097041MD1909990+0051REMSYN004BUFR
0136829830999992014050800004-09383-040483FM-12+037299999V0201401N0015100800199002000199+02541+01931101411ADDAA101999990AZ101061AZ201061GA1061+008001061GE19MSL   +99999+99999GF106991061990008001991991MA1999990097271MD1909990+0131REMSYN004BUFR
0149829830999992014050812004-09383-040483FM-12+037299999V0201401N0031100800199020000199+02491+01891101571ADDAA101999990AZ101061AZ201061GA1071+008001061GE19MSL   +99999+99999GF107991071990008001991991KA1120N+02291MA1999990097411MD1909990+0011REMSYN004BUFR
0136829830999992014050818004-09383-040483FM-12+037299999V0201401N0015199999999020000199+03051+01731101011ADDAA101999990AZ101061AZ201061GA1041+008001081GE19MSL   +99999+99999GF104991041990008001991991MA1999990096901MD1909990-0141REMSYN004BUFR
0098829830999992014050900004-09383-040483FM-12+037299999V0201401N0015122000199002000199+02671+01861101191ADDAA101999990AZ101061AZ201061GF100991999999999999999999MA1999990097061MD1909990-0211REMSYN004BUFR
0181829830999992014050912004-09383-040483FM-12+037299999V0200901N0026100800199010000199+02441+01971101371ADDAA101999990AZ101061AZ201061GA1071+008001061GA2991+999991101GA3991+999991101GE19MSL   +99999+99999GF107991071990008001991991KA1120N+02161MA1999990097231MD1909990-0181REMSYN004BUFR
0152829830999992014050918004-09383-040483FM-12+037299999V0201401N0026199999999020000199+03091+01841100811ADDAA101999990AZ101061AZ201061GA1021+008001081GA2991+999991021GE19MSL   +99999+99999GF105991021990008001991991MA1999990096711MD1909990-0191REMSYN004BUFR
0098829830999992014051000004-09383-040483FM-12+037299999V0201401N0010122000199002000199+02721+02001101041ADDAA101999990AZ101061AZ201061GF100991999999999999999999MA1999990096921MD1909990-0141REMSYN004BUFR
0149829830999992014051012004-09383-040483FM-12+037299999V0200901N0015199999999020000199+02591+02011101231ADDAA101999990AZ101061AZ201061GA1991+008001001GE19MSL   +99999+99999GF101991990990008001991991KA1120N+02231MA1999990097111MD1909990-0121REMSYN004BUFR
0136829830999992014051018004-09383-040483FM-12+037299999V0200901N0015199999999020000199+03321+01741100741ADDAA101999990AZ101061AZ201061GA1011+008001081GE19MSL   +99999+99999GF101991011990008001991991MA1999990096661MD1909990-0051REMSYN004BUFR
0136829830999992014051100004-09383-040483FM-12+037299999V0203601N0000100800199002000199+02971+02281100981ADDAA101999990AZ101061AZ201061GA1061+008001061GE19MSL   +99999+99999GF106991061990008001991991MA1999990096901MD1909990-0021REMSYN004BUFR
0149829830999992014051112004-09383-040483FM-12+037299999V0201401N0031199999999010000199+02541+02021101461ADDAA101999990AZ101061AZ201061GA1031+008001081GE19MSL   +99999+99999GF108991031990008001991991KA1120N+02451MA1999990097351MD1909990+0241REMSYN004BUFR
0168829830999992014051118004-09383-040483FM-12+037299999V0201401N0031199999999010000199+03021+01831101001ADDAA101999990AZ101061AZ201061GA1021+008001081GA2991+999991051GA3991+999991101GE19MSL   +99999+99999GF108991021990008001991991MA1999990096911MD1909990+0251REMSYN004BUFR
0136829830999992014051200004-09383-040483FM-12+037299999V0201401N0031199999999002000199+02321+02031101491ADDAA101999990AZ101061AZ201061GA1041+008001081GE19MSL   +99999+99999GF106991041990008001991991MA1999990097331MD1909990+0431REMSYN004BUFR
0149829830999992014051212004-09383-040483FM-12+037299999V0201401N0031100800199010000199+02421+01881101551ADDAA101999990AZ101061AZ201061GA1071+008001061GE19MSL   +99999+99999GF107991071990008001991991KA1120N+02141MA1999990097361MD1909990+0011REMSYN004BUFR
0136829830999992014051218004-09383-040483FM-12+037299999V0201401N0015100800199020000199+02641+01881101181ADDAA101999990AZ101061AZ201061GA1071+008001061GE19MSL   +99999+99999GF107991071990008001991991MA1999990097011MD1909990+0101REMSYN004BUFR
0168829830999992014051300004-09383-040483FM-12+037299999V0201401N0051199999999002000199+02421+01841101431ADDAA101999990AZ101061AZ201061GA1011+008001081GA2991+999991041GA3991+999991101GE19MSL   +99999+99999GF107991011990008001991991MA1999990097261MD1909990-0071REMSYN004BUFR
0149829830999992014051312004-09383-040483FM-12+037299999V0201401N0031100800199010000199+02341+01681101621ADDAA101999990AZ101061AZ201061GA1071+008001061GE19MSL   +99999+99999GF107991071990008001991991KA1120N+02041MA1999990097441MD1909990+0081REMSYN004BUFR
0136829830999992014051318004-09383-040483FM-12+037299999V0201401N0015100800199010000199+02841+01731101131ADDAA101999990AZ101061AZ201061GA1051+008001061GE19MSL   +99999+99999GF105991051990008001991991MA1999990096981MD1909990-0031REMSYN004BUFR
0098829830999992014051400004-09383-040483FM-12+037299999V0201401N0031122000199002000199+02521+01711101311ADDAA101999990AZ101061AZ201061GF100991999999999999999999MA1999990097151MD1909990-0111REMSYN004BUFR
0165829830999992014051412004-09383-040483FM-12+037299999V0201801N0036199999999020000199+02451+01761101561ADDAA101999990AZ101061AZ201061GA1041+008001081GA2991+999991021GE19MSL   +99999+99999GF107991041990008001991991KA1120N+02091MA1999990097401MD1909990-0041REMSYN004BUFR
0168829830999992014051418004-09383-040483FM-12+037299999V0201401N0031100800199010000199+02821+01861101181ADDAA101999990AZ101061AZ201061GA1081+008001061GA2991+999991101GA3991+999991101GE19MSL   +99999+99999GF108991081990008001991991MA1999990097031MD1909990+0051REMSYN004BUFR
0136829830999992014051500004-09383-040483FM-12+037299999V0201401N0026100800199002000199+02641+01901101321ADDAA101999990AZ101061AZ201061GA1061+008001061GE19MSL   +99999+99999GF106991061990008001991991MA1999990097181MD1909990+0031REMSYN004BUFR
0149829830999992014051512004-09383-040483FM-12+037299999V0201401N0031100800199010000199+02491+01961101481ADDAA101999990AZ101061AZ201061GA1061+008001061GE19MSL   +99999+99999GF106991061990008001991991KA1120N+02261MA1999990097331MD1909990-0041REMSYN004BUFR
0136829830999992014051518004-09383-040483FM-12+037299999V0201401N0015100800199010000199+03041+02031100971ADDAA101999990AZ101061AZ201061GA1061+008001061GE19MSL   +99999+99999GF106991061990008001991991MA1999990096871MD1909990-0161REMSYN004BUFR
0136829830999992014051600004-09383-040483FM-12+037299999V0201401N0021100800199002000199+02741+02071101211ADDAA101999990AZ101061AZ201061GA1061+008001061GE19MSL   +99999+99999GF106991061990008001991991MA1999990097081MD1909990-0101REMSYN004BUFR
0165829830999992014051612004-09383-040483FM-12+037299999V0201401N0031100800199010000199+02571+02121101261ADDAA101999990AZ101061AZ201061GA1061+008001061GA2991+999991001GE19MSL   +99999+99999GF107991061990008001991991KA1120N+02411MA1999990097141MD1909990-0191REMSYN004BUFR
0152829830999992014051618004-09383-040483FM-12+037299999V0201401N0021199999999020000199+03241+01891100771ADDAA101999990AZ101061AZ201061GA1041+008001081GA2991+999991001GE19MSL   +99999+99999GF104991041990008001991991MA1999990096691MD1909990-0181REMSYN004BUFR
0168829830999992014051700004-09383-040483FM-12+037299999V0201401N0031100800199002000199+02671+02111101081ADDAA101999990AZ101061AZ201061GA1081+008001081GA2991+999991101GA3991+999991101GE19MSL   +99999+99999GF108991081990008001991991MA1999990096971MD1909990-0111REMSYN004BUFR
0181829830999992014051712004-09383-040483FM-12+037299999V0201401N0026100800199020000199+02551+02041101351ADDAA101999990AZ101061AZ201061GA1081+008001061GA2991+999991101GA3991+999991101GE19MSL   +99999+99999GF108991081990008001991991KA1120N+02411MA1999990097201MD1909990+0061REMSYN004BUFR
0136829830999992014051718004-09383-040483FM-12+037299999V0201401N0031199999999020000199+03151+01791100891ADDAA101999990AZ101061AZ201061GA1031+008001081GE19MSL   +99999+99999GF104991031990008001991991MA1999990096811MD1909990+0121REMSYN004BUFR
0098829830999992014051800004-09383-040483FM-12+037299999V0201401N0031122000199002000199+02641+01881101211ADDAA101999990AZ101061AZ201061GF100991999999999999999999MA1999990097081MD1909990+0111REMSYN004BUFR
0149829830999992014051812004-09383-040483FM-12+037299999V0201401N0031100800199020000199+02441+01861101471ADDAA101999990AZ101061AZ201061GA1051+008001061GE19MSL   +99999+99999GF105991051990008001991991KA1120N+02211MA1999990097321MD1909990+0121REMSYN004BUFR
0136829830999992014051818004-09383-040483FM-12+037299999V0201801N0031100800199020000199+02991+01881101011ADDAA101999990AZ101061AZ201061GA1061+008001061GE19MSL   +99999+99999GF106991061990008001991991MA1999990096901MD1909990+0091REMSYN004BUFR
0098829830999992014051900004-09383-040483FM-12+037299999V0201801N0026122000199002000199+02591+01991101291ADDAA101999990AZ101061AZ201061GF100991999999999999999999MA1999990097141MD1909990+0061REMSYN004BUFR
0149829830999992014051912004-09383-040483FM-12+037299999V0201401N0036100800199020000199+02541+01861101431ADDAA101999990AZ101061AZ201061GA1061+008001081GE19MSL   +99999+99999GF106991061990008001991991KA1120N+02201MA1999990097281MD1909990-0041REMSYN004BUFR
0136829830999992014051918004-09383-040483FM-12+037299999V0201401N0036199999999020000199+02941+02001101041ADDAA101999990AZ101061AZ201061GA1041+008001081GE19MSL   +99999+99999GF104991041990008001991991MA1999990096921MD1909990+0021REMSYN004BUFR
0098829830999992014052000004-09383-040483FM-12+037299999V0201401N0031122000199002000199+02591+02081101311ADDAA101999990AZ101061AZ201061GF100991999999999999999999MA1999990097171MD1909990+0031REMSYN004BUFR
0165829830999992014052012004-09383-040483FM-12+037299999V0201401N0031199999999010000199+02441+01951101451ADDAA101999990AZ101061AZ201061GA1031+008001081GA2991+999991051GE19MSL   +99999+99999GF108991031990008001991991KA1120N+02231MA1999990097301MD1909990+0021REMSYN004BUFR
0136829830999992014052018004-09383-040483FM-12+037299999V0201401N0031100800199010000199+02991+01971101081ADDAA101999990AZ101061AZ201061GA1051+008001081GE19MSL   +99999+99999GF106991051990008001991991MA1999990096961MD1909990+0041REMSYN004BUFR
0098829830999992014052100004-09383-040483FM-12+037299999V0201401N0015122000199002000199+02591+01941101281ADDAA101999990AZ101061AZ201061GF100991999999999999999999MA1999990097141MD1909990-0021REMSYN004BUFR
0181829830999992014052112004-09383-040483FM-12+037299999V0201401N0031100800199020000199+02451+01921101481ADDAA101999990AZ101061AZ201061GA1081+008001061GA2991+999991101GA3991+999991101GE19MSL   +99999+99999GF108991081990008001991991KA1120N+02181MA1999990097301MD1909990+0001REMSYN004BUFR
0152829830999992014052118004-09383-040483FM-12+037299999V0201401N0021199999999020000199+03051+01831101001ADDAA101999990AZ101061AZ201061GA1041+008001061GA2991+999991031GE19MSL   +99999+99999GF107991041990008001991991MA1999990096881MD1909990-0081REMSYN004BUFR
