0149830960999992014010112004-10910-037050FM-12+000599999V0200901N0031199999999002000199+02821+02311101371ADDAA101999990AZ101061AZ201061GA1021+012501081GE19MSL   +99999+99999GF102991021990012501991991KA1120N+02411MA1999990101301MD1909990-0051REMSYN004BUFR
0136830960999992014010118004-10910-037050FM-12+000599999V0200901N0026199999999002000199+02921+02291101231ADDAA101999990AZ101061AZ201061GA1021+012501081GE19MSL   +99999+99999GF102991021990012501991991MA1999990101161MD1909990-0101REMSYN004BUFR
0149830960999992014010212004-10910-037050FM-12+000599999V0200901N0026199999999002000199+02821+02291101221ADDAA101999990AZ101061AZ201061GA1021+012501081GE19MSL   +99999+99999GF102991021990012501991991KA1120N+02351MA1999990101151MD1909990-0151REMSYN004BUFR
0136830960999992014010218004-10910-037050FM-12+000599999V0200901N0026199999999002000199+02901+02251101071ADDAA101999990AZ101061AZ201061GA1021+012501081GE19MSL   +99999+99999GF102991021990012501991991MA1999990101001MD1909990-0161REMSYN004BUFR
0149830960999992014010312004-10910-037050FM-12+000599999V0200901N0026199999999002000199+02841+02241101231ADDAA101999990AZ101061AZ201061GA1021+012501081GE19MSL   +99999+99999GF102991021990012501991991KA1120N+02411MA1999990101161MD1909990+0011REMSYN004BUFR
0136830960999992014010318004-10910-037050FM-12+000599999V0200901N0026199999999002000199+02941+02261101091ADDAA101999990AZ101061AZ201061GA1011+012501081GE19MSL   +99999+99999GF101991011990012501991991MA1999990101021MD1909990+0021REMSYN004BUFR
0136830960999992014010400004-10910-037050FM-12+000599999V0200901N0026199999999002000199+02651+02241101191ADDAA101999990AZ101061AZ201061GA1021+012501081GE19MSL   +99999+99999GF102991021990012501991991MA1999990101121MD1909990+0021REMSYN004BUFR
0149830960999992014010412004-10910-037050FM-12+000599999V0200901N0026199999999002000199+02841+02241101421ADDAA101999990AZ101061AZ201061GA1021+012501081GE19MSL   +99999+99999GF102991021990012501991991KA1120N+02351MA1999990101351MD1909990+0191REMSYN004BUFR
0136830960999992014010418004-10910-037050FM-12+000599999V0200901N0026199999999002000199+02951+02281101291ADDAA101999990AZ101061AZ201061GA1021+012501081GE19MSL   +99999+99999GF102991021990012501991991MA1999990101221MD1909990+0201REMSYN004BUFR
0149830960999992014010512004-10910-037050FM-12+000599999V0200901N0026199999999002000199+02851+02231101431ADDAA101999990AZ101061AZ201061GA1011+012501081GE19MSL   +99999+99999GF101991011990012501991991KA1120N+02431MA1999990101261MD1909990+0011REMSYN004BUFR
0136830960999992014010518004-10910-037050FM-12+000599999V0200901N0026199999999002000199+02971+02281101311ADDAA101999990AZ101061AZ201061GA1011+012501081GE19MSL   +99999+99999GF101991011990012501991991MA1999990101241MD1909990+0021REMSYN004BUFR
0149830960999992014010612004-10910-037050FM-12+000599999V0200901N0015199999999002000199+02701+02341101451ADDAA101999990AZ101061AZ201061GA1031+012501081GE19MSL   +99999+99999GF103991031990012501991991KA1120N+02351MA1999990101381MD1909990+0021REMSYN004BUFR
0136830960999992014010618004-10910-037050FM-12+000599999V0200901N0015101250199002000199+02771+02401101281ADDAA101999990AZ101061AZ201061GA1051+012501081GE19MSL   +99999+99999GF105991051990012501991991MA1999990101211MD1909990-0031REMSYN004BUFR
0136830960999992014010700004-10910-037050FM-12+000599999V0201801N0015101250199002000199+02651+02371101301ADDAA101999990AZ101061AZ201061GA1051+012501061GE19MSL   +99999+99999GF105991051990012501991991MA1999990101231MD1909990-0091REMSYN004BUFR
0149830960999992014010712004-10910-037050FM-12+000599999V0200901N0015199999999002000199+02871+02371101361ADDAA101999990AZ101061AZ201061GA1031+012501081GE19MSL   +99999+99999GF103991031990012501991991KA1120N+02431MA1999990101291MD1909990-0091REMSYN004BUFR
0136830960999992014010718004-10910-037050FM-12+000599999V0200901N0026199999999002000199+02891+02321101151ADDAA101999990AZ101061AZ201061GA1031+012501081GE19MSL   +99999+99999GF103991031990012501991991MA1999990101081MD1909990-0131REMSYN004BUFR
0136830960999992014010800004-10910-037050FM-12+000599999V0200901N0015101250199002000199+02591+02311101301ADDAA101999990AZ101061AZ201061GA1051+012501061GE19MSL   +99999+99999GF105991051990012501991991MA1999990101231MD1909990+0001REMSYN004BUFR
0149830960999992014010812004-10910-037050FM-12+000599999V0201801N0015199999999002000199+02891+02341101261ADDAA124000831AZ101061AZ201061GA1031+012501081GE19MSL   +99999+99999GF103991031990012501991991KA1120N+02361MA1999990101191MD1909990-0101REMSYN004BUFR
0136830960999992014010818004-10910-037050FM-12+000599999V0200901N0015199999999002000199+02921+02341101101ADDAA101999990AZ101061AZ201061GA1021+012501081GE19MSL   +99999+99999GF102991021990012501991991MA1999990101031MD1909990-0051REMSYN004BUFR
0136830960999992014010900004-10910-037050FM-12+000599999V0200901N0015199999999002000199+02571+02291101231ADDAA101999990AZ101061AZ201061GA1021+012501061GE19MSL   +99999+99999GF102991021990012501991991MA1999990101161MD1909990-0071REMSYN004BUFR
0149830960999992014010912004-10910-037050FM-12+000599999V0200901N0015199999999002000199+02871+02321101411ADDAA101999990AZ101061AZ201061GA1031+012501081GE19MSL   +99999+99999GF103991031990012501991991KA1120N+02421MA1999990101341MD1909990+0091REMSYN004BUFR
0142830960999992014010918004-10910-037050FM-12+000599999V0200901N0026199999999002000199+02901+02361101041ADDAA106001031AY161061AY261061GA1021+012501081GE19MSL   +99999+99999GF102991021990012501991991MA1999990100971MD1909990+0041MW1161REMSYN004BUFR
0136830960999992014011000004-10910-037050FM-12+000599999V0200901N0041199999999002000199+02651+02331101251ADDAA101999990AZ101061AZ201061GA1031+012501061GE19MSL   +99999+99999GF103991031990012501991991MA1999990101181MD1909990+0021REMSYN004BUFR
0149830960999992014011012004-10910-037050FM-12+000599999V0200901N0026101250199002000199+02921+02361101471ADDAA124001031AZ101061AZ201061GA1051+012501081GE19MSL   +99999+99999GF105991051990012501991991KA1120N+02421MA1999990101401MD1909990+0121REMSYN004BUFR
0136830960999992014011018004-10910-037050FM-12+000599999V0200901N0031101250199002000199+02941+02381101301ADDAA101999990AZ101061AZ201061GA1051+012501081GE19MSL   +99999+99999GF105991051990012501991991MA1999990101231MD1909990+0261REMSYN004BUFR
0136830960999992014011100004-10910-037050FM-12+000599999V0200901N0031101250199002000199+02671+02431101291ADDAA101999990AZ101061AZ201061GA1051+012501061GE19MSL   +99999+99999GF105991051990012501991991MA1999990101221MD1909990+0041REMSYN004BUFR
0149830960999992014011112004-10910-037050FM-12+000599999V0200901N0026199999999002000199+02851+02351101351ADDAA101999990AZ101061AZ201061GA1031+012501081GE19MSL   +99999+99999GF103991031990012501991991KA1120N+02401MA1999990101281MD1909990-0121REMSYN004BUFR
0136830960999992014011118004-10910-037050FM-12+000599999V0200901N0015199999999002000199+02941+02351101421ADDAA101999990AZ101061AZ201061GA1031+012501081GE19MSL   +99999+99999GF103991031990012501991991MA1999990101351MD1909990+0121REMSYN004BUFR
0155830960999992014011212004-10910-037050FM-12+000599999V0200901N0026199999999002000199+02941+02381101561ADDAA124001031AY161061AY261061GA1031+012501081GE19MSL   +99999+99999GF103991031990012501991991KA1120N+02441MA1999990101491MD1909990+0211MW1161REMSYN004BUFR
0136830960999992014011218004-10910-037050FM-12+000599999V0200901N0026199999999002000199+02941+02401101391ADDAA101999990AZ101061AZ201061GA1031+012501081GE19MSL   +99999+99999GF103991031990012501991991MA1999990101321MD1909990-0031REMSYN004BUFR
0149830960999992014011312004-10910-037050FM-12+000599999V0200901N0026199999999002000199+02871+02281101591ADDAA101999990AZ101061AZ201061GA1021+012501081GE19MSL   +99999+99999GF102991021990012501991991KA1120N+02411MA1999990101521MD1909990+0031REMSYN004BUFR
0136830960999992014011318004-10910-037050FM-12+000599999V0200901N0026199999999002000199+02951+02331101431ADDAA101999990AZ101061AZ201061GA1021+012501081GE19MSL   +99999+99999GF102991021990012501991991MA1999990101361MD1909990+0041REMSYN004BUFR
0136830960999992014011400004-10910-037050FM-12+000599999V0200901N0026199999999002000199+02641+02231101631ADDAA101999990AZ101061AZ201061GA1021+012501061GE19MSL   +99999+99999GF102991021990012501991991MA1999990101561MD1909990+0031REMSYN004BUFR
0149830960999992014011412004-10910-037050FM-12+000599999V0200901N0026199999999002000199+02821+02221101621ADDAA101999990AZ101061AZ201061GA1021+012501081GE19MSL   +99999+99999GF102991021990012501991991KA1120N+02451MA1999990101551MD1909990+0031REMSYN004BUFR
0136830960999992014011418004-10910-037050FM-12+000599999V0200901N0026199999999002000199+02921+02271101471ADDAA101999990AZ101061AZ201061GA1021+012501081GE19MSL   +99999+99999GF102991021990012501991991MA1999990101401MD1909990+0041REMSYN004BUFR
0136830960999992014011500004-10910-037050FM-12+000599999V0200901N0026199999999002000199+02621+02181101661ADDAA101999990AZ101061AZ201061GA1021+012501061GE19MSL   +99999+99999GF102991021990012501991991MA1999990101591MD1909990+0031REMSYN004BUFR
0149830960999992014011512004-10910-037050FM-12+000599999V0200901N0026199999999002000199+02841+02291101421ADDAA101999990AZ101061AZ201061GA1031+012501081GE19MSL   +99999+99999GF103991031990012501991991KA1120N+02461MA1999990101251MD1909990-0201REMSYN004BUFR
0136830960999992014011518004-10910-037050FM-12+000599999V0200901N0026199999999002000199+02941+02311101311ADDAA101999990AZ101061AZ201061GA1021+012501081GE19MSL   +99999+99999GF102991021990012501991991MA1999990101241MD1909990-0161REMSYN004BUFR
0136830960999992014011600004-10910-037050FM-12+000599999V0200901N0026199999999002000199+02621+02211101461ADDAA101999990AZ101061AZ201061GA1021+012501061GE19MSL   +99999+99999GF102991021990012501991991MA1999990101391MD1909990-0201REMSYN004BUFR
0149830960999992014011612004-10910-037050FM-12+000599999V0200901N0026199999999002000199+02841+02241101391ADDAA101999990AZ101061AZ201061GA1021+012501081GE19MSL   +99999+99999GF102991021990012501991991KA1120N+02471MA1999990101321MD1909990-0031REMSYN004BUFR
0136830960999992014011618004-10910-037050FM-12+000599999V0200901N0026199999999002000199+02941+02291101291ADDAA101999990AZ101061AZ201061GA1021+012501081GE19MSL   +99999+99999GF102991021990012501991991MA1999990101221MD1909990-0021REMSYN004BUFR
0136830960999992014011700004-10910-037050FM-12+000599999V0200901N0026199999999002000199+02641+02201101411ADDAA101999990AZ101061AZ201061GA1031+012501061GE19MSL   +99999+99999GF103991031990012501991991MA1999990101341MD1909990-0051REMSYN004BUFR
0149830960999992014011712004-10910-037050FM-12+000599999V0200901N0026199999999002000199+02821+02221101471ADDAA101999990AZ101061AZ201061GA1021+012501081GE19MSL   +99999+99999GF102991021990012501991991KA1120N+02431MA1999990101401MD1909990+0081REMSYN004BUFR
0136830960999992014011718004-10910-037050FM-12+000599999V0200901N0026199999999002000199+02921+02291101371ADDAA101999990AZ101061AZ201061GA1021+012501081GE19MSL   +99999+99999GF102991021990012501991991MA1999990101301MD1909990+0081REMSYN004BUFR
0136830960999992014011800004-10910-037050FM-12+000599999V0200901N0026199999999002000199+02641+02181101451ADDAA101999990AZ101061AZ201061GA1021+012501061GE19MSL   +99999+99999GF102991021990012501991991MA1999990101381MD1909990+0041REMSYN004BUFR
0149830960999992014011812004-10910-037050FM-12+000599999V0200901N0026199999999002000199+02841+02311101391ADDAA101999990AZ101061AZ201061GA1031+012501081GE19MSL   +99999+99999GF103991031990012501991991KA1120N+02461MA1999990101321MD1909990-0081REMSYN004BUFR
0136830960999992014011818004-10910-037050FM-12+000599999V0200901N0026199999999002000199+02941+02291101331ADDAA101999990AZ101061AZ201061GA1021+012501081GE19MSL   +99999+99999GF102991021990012501991991MA1999990101261MD1909990-0041REMSYN004BUFR
0149830960999992014011912004-10910-037050FM-12+000599999V0200901N0026199999999002000199+02851+02231101321ADDAA101999990AZ101061AZ201061GA1021+012501081GE19MSL   +99999+99999GF102991021990012501991991KA1120N+02471MA1999990101251MD1909990-0071REMSYN004BUFR
0136830960999992014011918004-10910-037050FM-12+000599999V0200901N0026199999999002000199+02971+02281101271ADDAA101999990AZ101061AZ201061GA1011+012501081GE19MSL   +99999+99999GF101991011990012501991991MA1999990101201MD1909990-0061REMSYN004BUFR
0149830960999992014012012004-10910-037050FM-12+000599999V0200901N0031199999999002000199+02891+02321101341ADDAA101999990AZ101061AZ201061GA1021+012501081GE19MSL   +99999+99999GF102991021990012501991991KA1120N+02431MA1999990101271MD1909990+0021REMSYN004BUFR
0136830960999992014012018004-10910-037050FM-12+000599999V0200901N0031199999999002000199+02941+02351101161ADDAA101999990AZ101061AZ201061GA1031+012501081GE19MSL   +99999+99999GF103991031990012501991991MA1999990101091MD1909990-0201REMSYN004BUFR
0136830960999992014012100004-10910-037050FM-12+000599999V0200901N0026199999999002000199+02701+02431101261ADDAA101999990AZ101061AZ201061GA1031+012501061GE19MSL   +99999+99999GF103991031990012501991991MA1999990101191MD1909990-0031REMSYN004BUFR
0155830960999992014012112004-10910-037050FM-12+000599999V0200901N0031199999999002000199+02941+02361101451ADDAA124000831AY161061AY261061GA1031+012501081GE19MSL   +99999+99999GF103991031990012501991991KA1120N+02491MA1999990101381MD1909990+0111MW1161REMSYN004BUFR
0136830960999992014012118004-10910-037050FM-12+000599999V0200901N0041199999999002000199+02991+02371101241ADDAA101999990AZ101061AZ201061GA1031+012501081GE19MSL   +99999+99999GF103991031990012501991991MA1999990101171MD1909990+0081REMSYN004BUFR
0136830960999992014012200004-10910-037050FM-12+000599999V0200901N0031199999999002000199+02701+02411101391ADDAA101999990AZ101061AZ201061GA1031+012501061GE19MSL   +99999+99999GF103991031990012501991991MA1999990101321MD1909990+0131REMSYN004BUFR
0149830960999992014012212004-10910-037050FM-12+000599999V0200901N0031199999999002000199+02971+02351101451ADDAA101999990AZ101061AZ201061GA1031+012501081GE19MSL   +99999+99999GF103991031990012501991991KA1120N+02491MA1999990101481MD1909990+0101REMSYN004BUFR
0136830960999992014012218004-10910-037050FM-12+000599999V0200901N0041199999999002000199+02991+02371101321ADDAA101999990AZ101061AZ201061GA1021+012501081GE19MSL   +99999+99999GF102991021990012501991991MA1999990101251MD1909990+0081REMSYN004BUFR
0136830960999992014012300004-10910-037050FM-12+000599999V0200901N0031199999999002000199+02691+02411101471ADDAA101999990AZ101061AZ201061GA1021+012501061GE19MSL   +99999+99999GF102991021990012501991991MA1999990101401MD1909990+0081REMSYN004BUFR
0149830960999992014012312004-10910-037050FM-12+000599999V0200901N0015101250199002000199+02841+02421101551ADDAA101999990AZ101061AZ201061GA1051+012501081GE19MSL   +99999+99999GF105991051990012501991991KA1120N+02491MA1999990101481MD1909990+0001REMSYN004BUFR
0136830960999992014012318004-10910-037050FM-12+000599999V0200901N0015199999999002000199+02991+02371101221ADDAA101999990AZ101061AZ201061GA1021+012501081GE19MSL   +99999+99999GF102991021990012501991991MA1999990101151MD1909990-0101REMSYN004BUFR
0136830960999992014012400004-10910-037050FM-12+000599999V0200901N0031199999999002000199+02701+02281101221ADDAA101999990AZ101061AZ201061GA1031+012501061GE19MSL   +99999+99999GF103991031990012501991991MA1999990101151MD1909990-0251REMSYN004BUFR
0149830960999992014012412004-10910-037050FM-12+000599999V0200901N0026199999999002000199+02971+02331101351ADDAA101999990AZ101061AZ201061GA1021+012501081GE19MSL   +99999+99999GF102991021990012501991991KA1120N+02511MA1999990101281MD1909990-0201REMSYN004BUFR
0136830960999992014012418004-10910-037050FM-12+000599999V0200901N0031199999999002000199+02991+02341101121ADDAA101999990AZ101061AZ201061GA1031+012501081GE19MSL   +99999+99999GF103991031990012501991991MA1999990101051MD1909990-0101REMSYN004BUFR
0136830960999992014012500004-10910-037050FM-12+000599999V0200901N0031199999999002000199+02721+02301101121ADDAA101999990AZ101061AZ201061GA1021+012501061GE19MSL   +99999+99999GF102991021990012501991991MA1999990101051MD1909990-0101REMSYN004BUFR
0149830960999992014012512004-10910-037050FM-12+000599999V0200901N0026199999999002000199+03021+02311101431ADDAA101999990AZ101061AZ201061GA1011+012501061GE19MSL   +99999+99999GF101991011990012501991991KA1120N+02511MA1999990101361MD1909990+0081REMSYN004BUFR
0136830960999992014012518004-10910-037050FM-12+000599999V0200901N0026199999999002000199+02991+02321101061ADDAA101999990AZ101061AZ201061GA1011+012501081GE19MSL   +99999+99999GF101991011990012501991991MA1999990100991MD1909990-0061REMSYN004BUFR
0149830960999992014012612004-10910-037050FM-12+000599999V0200901N0026199999999002000199+02891+02281101371ADDAA101999990AZ101061AZ201061GA1021+012501081GE19MSL   +99999+99999GF102991021990012501991991KA1120N+02511MA1999990101301MD1909990-0061REMSYN004BUFR
0136830960999992014012618004-10910-037050FM-12+000599999V0200901N0026199999999002000199+03001+02331101241ADDAA101999990AZ101061AZ201061GA1021+012501081GE19MSL   +99999+99999GF102991021990012501991991MA1999990101171MD1909990+0181REMSYN004BUFR
0155830960999992014012712004-10910-037050FM-12+000599999V0200901N0026199999999002000199+02841+02311101421ADDAA124003031AY151061AY251061GA1031+012501081GE19MSL   +99999+99999GF103991031990012501991991KA1120N+02451MA1999990101351MD1909990+0051MW1211REMSYN004BUFR
0142830960999992014012718004-10910-037050FM-12+000599999V0200901N0026199999999002000199+02941+02331101281ADDAA106005031AY161061AY261061GA1031+012501081GE19MSL   +99999+99999GF103991031990012501991991MA1999990101211MD1909990+0041MW1211REMSYN004BUFR
0136830960999992014012800004-10910-037050FM-12+000599999V0200901N0026199999999002000199+02701+02221101251ADDAA101999990AZ101061AZ201061GA1031+012501061GE19MSL   +99999+99999GF103991031990012501991991MA1999990101181MD1909990+0031REMSYN004BUFR
0155830960999992014012812004-10910-037050FM-12+000599999V0200901N0026199999999002000199+02841+02261101291ADDAA124006031AY151061AY251061GA1031+012501081GE19MSL   +99999+99999GF103991031990012501991991KA1120N+02411MA1999990101221MD1909990-0131MW1201REMSYN004BUFR
0136830960999992014012818004-10910-037050FM-12+000599999V0200901N0026199999999002000199+02921+02321101191ADDAA101999990AZ101061AZ201061GA1031+012501081GE19MSL   +99999+99999GF103991031990012501991991MA1999990101121MD1909990-0091REMSYN004BUFR
0136830960999992014012900004-10910-037050FM-12+000599999V0200901N0026199999999002000199+02701+02241101201ADDAA101999990AZ101061AZ201061GA1031+012501061GE19MSL   +99999+99999GF103991031990012501991991MA1999990101131MD1909990-0051REMSYN004BUFR
0149830960999992014012912004-10910-037050FM-12+000599999V0200901N0026199999999002000199+02871+02261101271ADDAA101999990AZ101061AZ201061GA1031+012501081GE19MSL   +99999+99999GF103991031990012501991991KA1120N+02471MA1999990101201MD1909990-0021REMSYN004BUFR
0136830960999992014012918004-10910-037050FM-12+000599999V0200901N0026199999999002000199+02991+02341101151ADDAA101999990AZ101061AZ201061GA1021+012501081GE19MSL   +99999+99999GF102991021990012501991991MA1999990101081MD1909990-0041REMSYN004BUFR
0136830960999992014013000004-10910-037050FM-12+000599999V0200901N0026199999999002000199+02721+02241101131ADDAA101999990AZ101061AZ201061GA1031+012501061GE19MSL   +99999+99999GF103991031990012501991991MA1999990101061MD1909990-0071REMSYN004BUFR
0155830960999992014013012004-10910-037050FM-12+000599999V0200901N0026199999999002000199+02891+02301101321ADDAA124003031AY151061AY251061GA1031+012501081GE19MSL   +99999+99999GF103991031990012501991991KA1120N+02451MA1999990101251MD1909990+0051MW1211REMSYN004BUFR
0136830960999992014013018004-10910-037050FM-12+000599999V0200901N0026199999999002000199+03001+02341101231ADDAA101999990AZ101061AZ201061GA1021+012501081GE19MSL   +99999+99999GF102991021990012501991991MA1999990101161MD1909990+0081REMSYN004BUFR
0136830960999992014013100004-10910-037050FM-12+000599999V0200901N0026199999999002000199+02741+02281101191ADDAA101999990AZ101061AZ201061GA1031+012501061GE19MSL   +99999+99999GF103991031990012501991991MA1999990101121MD1909990+0061REMSYN004BUFR
0149830960999992014013112004-10910-037050FM-12+000599999V0200901N0021199999999002000199+02921+02271101251ADDAA101999990AZ101061AZ201061GA1021+012501081GE19MSL   +99999+99999GF102991021990012501991991KA1120N+02471MA1999990101181MD1909990-0071REMSYN004BUFR
0136830960999992014013118004-10910-037050FM-12+000599999V0200901N0026199999999002000199+02971+02301101171ADDAA101999990AZ101061AZ201061GA1021+012501081GE19MSL   +99999+99999GF102991021990012501991991MA1999990101101MD1909990-0061REMSYN004BUFR
0136830960999992014020100004-10910-037050FM-12+000599999V0200901N0026199999999002000199+02741+02261101161ADDAA101999990AZ101061AZ201061GA1031+012501061GE19MSL   +99999+99999GF103991031990012501991991MA1999990101091MD1909990-0031REMSYN004BUFR
0149830960999992014020112004-10910-037050FM-12+000599999V0200901N0026199999999002000199+02901+02251101221ADDAA101999990AZ101061AZ201061GA1021+012501081GE19MSL   +99999+99999GF102991021990012501991991KA1120N+02451MA1999990101151MD1909990-0031REMSYN004BUFR
0136830960999992014020118004-10910-037050FM-12+000599999V0200901N0026199999999002000199+02991+02321101121ADDAA101999990AZ101061AZ201061GA1021+012501081GE19MSL   +99999+99999GF102991021990012501991991MA1999990101051MD1909990-0051REMSYN004BUFR
0155830960999992014020212004-10910-037050FM-12+000599999V0200901N0021199999999002000199+02791+02271101221ADDAA124001031AY151061AY251061GA1031+012501081GE19MSL   +99999+99999GF103991031990012501991991KA1120N+02391MA1999990101151MD1909990+0001MW1201REMSYN004BUFR
0136830960999992014020218004-10910-037050FM-12+000599999V0200901N0026199999999002000199+02971+02331101131ADDAA101999990AZ101061AZ201061GA1021+012501081GE19MSL   +99999+99999GF102991021990012501991991MA1999990101061MD1909990+0011REMSYN004BUFR
0155830960999992014020312004-10910-037050FM-12+000599999V0200901N0026199999999002000199+02901+02361101221ADDAA124005031AY161061AY261061GA1021+012501081GE19MSL   +99999+99999GF102991021990012501991991KA1120N+02441MA1999990101151MD1909990+0001MW1161REMSYN004BUFR
0136830960999992014020318004-10910-037050FM-12+000599999V0200901N0015199999999002000199+02991+02371101031ADDAA101999990AZ101061AZ201061GA1031+012501081GE19MSL   +99999+99999GF103991031990012501991991MA1999990100961MD1909990-0101REMSYN004BUFR
0155830960999992014020412004-10910-037050FM-12+000599999V0200901N0015101250199002000199+02891+02411101251ADDAA124002031AY161061AY261061GA1051+012501061GE19MSL   +99999+99999GF105991051990012501991991KA1120N+02411MA1999990101181MD1909990+0031MW1161REMSYN004BUFR
0136830960999992014020418004-10910-037050FM-12+000599999V0200901N0015199999999002000199+02921+02361101051ADDAA101999990AZ101061AZ201061GA1021+012501081GE19MSL   +99999+99999GF102991021990012501991991MA1999990100981MD1909990+0021REMSYN004BUFR
0149830960999992014020512004-10910-037050FM-12+000599999V0200901N0026199999999002000199+02901+02391101281ADDAA124005031AZ101061AZ201061GA1031+012501081GE19MSL   +99999+99999GF103991031990012501991991KA1120N+02431MA1999990101211MD1909990+0031REMSYN004BUFR
0136830960999992014020518004-10910-037050FM-12+000599999V0200901N0015199999999002000199+02971+02401101131ADDAA101999990AZ101061AZ201061GA1021+012501081GE19MSL   +99999+99999GF102991021990012501991991MA1999990101061MD1909990+0081REMSYN004BUFR
0155830960999992014020612004-10910-037050FM-12+000599999V0200901N0026199999999002000199+02921+02381101361ADDAA124006031AY161061AY261061GA1031+012501081GE19MSL   +99999+99999GF103991031990012501991991KA1120N+02391MA1999990101291MD1909990+0081MW1161REMSYN004BUFR
0136830960999992014020618004-10910-037050FM-12+000599999V0200901N0031199999999002000199+03001+02291101161ADDAA101999990AZ101061AZ201061GA1011+012501081GE19MSL   +99999+99999GF101991011990012501991991MA1999990101091MD1909990+0031REMSYN004BUFR
0149830960999992014020712004-10910-037050FM-12+000599999V0200901N0026199999999002000199+02971+02371101461ADDAA101999990AZ101061AZ201061GA1031+012501081GE19MSL   +99999+99999GF103991031990012501991991KA1120N+02401MA1999990101391MD1909990+0101REMSYN004BUFR
0136830960999992014020718004-10910-037050FM-12+000599999V0200901N0026199999999002000199+02971+02301101241ADDAA101999990AZ101061AZ201061GA1031+012501081GE19MSL   +99999+99999GF103991031990012501991991MA1999990101201MD1909990+0111REMSYN004BUFR
0149830960999992014020812004-10910-037050FM-12+000599999V0200901N0015101250199002000199+02691+02201101351ADDAA124000431AZ101061AZ201061GA1051+012501081GE19MSL   +99999+99999GF105991051990012501991991KA1120N+02421MA1999990101281MD1909990-0111REMSYN004BUFR
0142830960999992014020818004-10910-037050FM-12+000599999V0200901N0026199999999002000199+02991+02321101261ADDAA106002031AY161061AY261061GA1031+012501081GE19MSL   +99999+99999GF103991031990012501991991MA1999990101191MD1909990-0011MW1161REMSYN004BUFR
0149830960999992014020912004-10910-037050FM-12+000599999V0200901N0015101250199002000199+02741+02261101461ADDAA124002031AZ101061AZ201061GA1061+012501061GE19MSL   +99999+99999GF106991061990012501991991KA1120N+02371MA1999990101391MD1909990+0111REMSYN004BUFR
0136830960999992014020918004-10910-037050FM-12+000599999V0200901N0010101250199002000199+02891+02221101321ADDAA101999990AZ101061AZ201061GA1061+012501061GE19MSL   +99999+99999GF106991061990012501991991MA1999990101251MD1909990+0061REMSYN004BUFR
0155830960999992014021012004-10910-037050FM-12+000599999V0200901N0026199999999002000199+02871+02281101371ADDAA124000431AY151061AY251061GA1031+012501081GE19MSL   +99999+99999GF103991031990012501991991KA1120N+02391MA1999990101301MD1909990-0091MW1201REMSYN004BUFR
0136830960999992014021018004-10910-037050FM-12+000599999V0200901N0026199999999002000199+02921+02291101271ADDAA101999990AZ101061AZ201061GA1021+012501081GE19MSL   +99999+99999GF102991021990012501991991MA1999990101201MD1909990-0051REMSYN004BUFR
0136830960999992014021118004-10910-037050FM-12+000599999V0200901N0026199999999002000199+03001+02341101121ADDAA101999990AZ101061AZ201061GA1021+012501081GE19MSL   +99999+99999GF102991021990012501991991MA1999990101051MD1909990-0151REMSYN004BUFR
0149830960999992014021212004-10910-037050FM-12+000599999V0200901N0026199999999002000199+02901+02271101171ADDAA101999990AZ101061AZ201061GA1021+012501081GE19MSL   +99999+99999GF102991021990012501991991KA1120N+02461MA1999990101101MD1909990-0051REMSYN004BUFR
0136830960999992014021218004-10910-037050FM-12+000599999V0200901N0026199999999002000199+03021+02361101071ADDAA101999990AZ101061AZ201061GA1021+012501081GE19MSL   +99999+99999GF102991021990012501991991MA1999990101001MD1909990-0041REMSYN004BUFR
0149830960999992014021312004-10910-037050FM-12+000599999V0200901N0026199999999002000199+02921+02271101101ADDAA101999990AZ101061AZ201061GA1021+012501081GE19MSL   +99999+99999GF102991021990012501991991KA1120N+02471MA1999990101031MD1909990-0071REMSYN004BUFR
0136830960999992014021318004-10910-037050FM-12+000599999V0200901N0026199999999002000199+03041+02361100951ADDAA101999990AZ101061AZ201061GA1021+012501081GE19MSL   +99999+99999GF102991021990012501991991MA1999990100381MD1909990-0121REMSYN004BUFR
0149830960999992014021412004-10910-037050FM-12+000599999V0200901N0026199999999002000199+02901+02301101221ADDAA101999990AZ101061AZ201061GA1021+012501081GE19MSL   +99999+99999GF102991021990012501991991KA1120N+02431MA1999990101151MD1909990+0121REMSYN004BUFR
0136830960999992014021418004-10910-037050FM-12+000599999V0200901N0026199999999002000199+03041+02381101071ADDAA101999990AZ101061AZ201061GA1021+012501081GE19MSL   +99999+99999GF102991021990012501991991MA1999990101001MD1909990+0121REMSYN004BUFR
0136830960999992014021518004-10910-037050FM-12+000599999V0200901N0026199999999002000199+03041+02381101091ADDAA101999990AZ101061AZ201061GA1021+012501081GE19MSL   +99999+99999GF102991021990012501991991MA1999990101021MD1909990+0021REMSYN004BUFR
0155830960999992014021612004-10910-037050FM-12+000599999V0201401N0015199999999002000199+02521+02111101171ADDAA124020031AY161061AY261061GA1031+012501061GE19MSL   +99999+99999GF103991031990012501991991KA1120N+02301MA1999990101101MD1909990-0061MW1211REMSYN004BUFR
0142830960999992014021618004-10910-037050FM-12+000599999V0200901N0026199999999002000199+02941+02471101061ADDAA106000431AY151061AY251061GA1031+012501081GE19MSL   +99999+99999GF103991031990012501991991MA1999990100991MD1909990-0031MW1201REMSYN004BUFR
0149830960999992014021712004-10910-037050FM-12+000599999V0200901N0031101250199002000199+02921+02361101261ADDAA101999990AZ101061AZ201061GA1061+012501061GE19MSL   +99999+99999GF106991061990012501991991KA1120N+02451MA1999990101191MD1909990+0091REMSYN004BUFR
0136830960999992014021718004-10910-037050FM-12+000599999V0200901N0026199999999002000199+02991+02341101031ADDAA101999990AZ101061AZ201061GA1021+012501081GE19MSL   +99999+99999GF102991021990012501991991MA1999990100961MD1909990-0031REMSYN004BUFR
0149830960999992014021812004-10910-037050FM-12+000599999V0200901N0026199999999002000199+02941+02351101171ADDAA101999990AZ101061AZ201061GA1031+012501061GE19MSL   +99999+99999GF103991031990012501991991KA1120N+02411MA1999990101101MD1909990-0091REMSYN004BUFR
0136830960999992014021818004-10910-037050FM-12+000599999V0200901N0031199999999002000199+02971+02351101011ADDAA101999990AZ101061AZ201061GA1011+012501081GE19MSL   +99999+99999GF101991011990012501991991MA1999990100941MD1909990-0021REMSYN004BUFR
0149830960999992014021912004-10910-037050FM-12+000599999V0200901N0026101250199002000199+02891+02371101291ADDAA101999990AZ101061AZ201061GA1061+012501081GE19MSL   +99999+99999GF106991061990012501991991KA1120N+02421MA1999990101221MD1909990+0121REMSYN004BUFR
0136830960999992014021918004-10910-037050FM-12+000599999V0200901N0041101250199002000199+03021+02181101111ADDAA101999990AZ101061AZ201061GA1051+012501081GE19MSL   +99999+99999GF105991051990012501991991MA1999990101041MD1909990+0101REMSYN004BUFR
0181830960999992014022012004-10910-037050FM-12+000599999V0200901N0015101250199002000199+02691+02431101351ADDAA101999990AZ101061AZ201061GA1081+012501061GA2991+999991101GA3991+999991101GE19MSL   +99999+99999GF108991081990012501991991KA1120N+02331MA1999990101281MD1909990+0061REMSYN004BUFR
0174830960999992014022018004-10910-037050FM-12+000599999V0200901N0015101250199002000199+02571+02481101251ADDAA106001031AY161061AY261061GA1081+012501061GA2991+999991101GA3991+999991101GE19MSL   +99999+99999GF108991081990012501991991MA1999990101181MD1909990+0141MW1161REMSYN004BUFR
0155830960999992014022112004-10910-037050FM-12+000599999V0200901N0031199999999002000199+02941+02381101461ADDAA124011031AY161061AY261061GA1021+012501081GE19MSL   +99999+99999GF102991021990012501991991KA1120N+02431MA1999990101391MD1909990+0111MW1161REMSYN004BUFR
0136830960999992014022118004-10910-037050FM-12+000599999V0200901N0041101250199002000199+02921+02361101191ADDAA101999990AZ101061AZ201061GA1061+012501081GE19MSL   +99999+99999GF106991061990012501991991MA1999990101121MD1909990-0061REMSYN004BUFR
0155830960999992014022212004-10910-037050FM-12+000599999V0200901N0026199999999002000199+02751+02481101331ADDAA124001031AY161061AY261061GA1021+012501081GE19MSL   +99999+99999GF102991021990012501991991KA1120N+02401MA1999990101261MD1909990-0131MW1161REMSYN004BUFR
0136830960999992014022218004-10910-037050FM-12+000599999V0200901N0015101250199002000199+02821+02521101221ADDAA101999990AZ101061AZ201061GA1061+012501061GE19MSL   +99999+99999GF106991061990012501991991MA1999990101151MD1909990+0031REMSYN004BUFR
0187830960999992014022312004-10910-037050FM-12+000599999V0200901N0015101250199002000199+02601+02461101431ADDAA124002031AY161061AY261061GA1081+012501061GA2991+999991101GA3991+999991101GE19MSL   +99999+99999GF108991081990012501991991KA1120N+02311MA1999990101161MD1909990-0101MW1161REMSYN004BUFR
0136830960999992014022318004-10910-037050FM-12+000599999V0200901N0031199999999002000199+02921+02361101191ADDAA101999990AZ101061AZ201061GA1011+012501081GE19MSL   +99999+99999GF101991011990012501991991MA1999990101121MD1909990-0031REMSYN004BUFR
0149830960999992014022412004-10910-037050FM-12+000599999V0200901N0026101250199002000199+02941+02291101441ADDAA101999990AZ101061AZ201061GA1051+012501081GE19MSL   +99999+99999GF105991051990012501991991KA1120N+02351MA1999990101371MD1909990+0011REMSYN004BUFR
0136830960999992014022418004-10910-037050FM-12+000599999V0200901N0026199999999002000199+02951+02181101131ADDAA101999990AZ101061AZ201061GA1021+012501081GE19MSL   +99999+99999GF102991021990012501991991MA1999990101061MD1909990-0061REMSYN004BUFR
0155830960999992014022512004-10910-037050FM-12+000599999V0200901N0026101250199002000199+02851+02311101351ADDAA124001031AY161061AY261061GA1051+012501081GE19MSL   +99999+99999GF105991051990012501991991KA1120N+02341MA1999990101281MD1909990-0091MW1161REMSYN004BUFR
0136830960999992014022518004-10910-037050FM-12+000599999V0200901N0026101250199002000199+02971+02301101071ADDAA101999990AZ101061AZ201061GA1051+012501081GE19MSL   +99999+99999GF105991051990012501991991MA1999990101001MD1909990-0061REMSYN004BUFR
0149830960999992014022612004-10910-037050FM-12+000599999V0200901N0015199999999002000199+02921+02241101341ADDAA101999990AZ101061AZ201061GA1041+012501081GE19MSL   +99999+99999GF104991041990012501991991KA1120N+02371MA1999990101271MD1909990-0011REMSYN004BUFR
0136830960999992014022618004-10910-037050FM-12+000599999V0200901N0026199999999002000199+02991+02241101071ADDAA101999990AZ101061AZ201061GA1031+012501081GE19MSL   +99999+99999GF103991031990012501991991MA1999990101001MD1909990+0001REMSYN004BUFR
0155830960999992014022712004-10910-037050FM-12+000599999V0200901N0015101250199002000199+02901+02361101291ADDAA124000431AY151061AY251061GA1061+012501061GE19MSL   +99999+99999GF106991061990012501991991KA1120N+02391MA1999990101221MD1909990-0051MW1161REMSYN004BUFR
0136830960999992014022718004-10910-037050FM-12+000599999V0200901N0015101250199002000199+02851+02371101031ADDAA101999990AZ101061AZ201061GA1061+012501061GE19MSL   +99999+99999GF106991061990012501991991MA1999990100961MD1909990-0041REMSYN004BUFR
0149830960999992014022812004-10910-037050FM-12+000599999V0200901N0021199999999002000199+02701+02201101191ADDAA101999990AZ101061AZ201061GA1041+012501061GE19MSL   +99999+99999GF104991041990012501991991KA1120N+02331MA1999990101121MD1909990-0101REMSYN004BUFR
0136830960999992014022818004-10910-037050FM-12+000599999V0200901N0026199999999002000199+02841+02241101121ADDAA101999990AZ101061AZ201061GA1041+012501061GE19MSL   +99999+99999GF104991041990012501991991MA1999990101051MD1909990+0091REMSYN004BUFR
0149830960999992014030112004-10910-037050FM-12+000599999V0200901N0015101250199002000199+02741+02301101211ADDAA101999990AZ101061AZ201061GA1051+012501061GE19MSL   +99999+99999GF105991051990012501991991KA1120N+02151MA1999990101141MD1909990+0021REMSYN004BUFR
0149830960999992014030212004-10910-037050FM-12+000599999V0200901N0026199999999002000199+02791+02251101131ADDAA101999990AZ101061AZ201061GA1031+012501081GE19MSL   +99999+99999GF103991031990012501991991KA1120N+02361MA1999990101061MD1909990-0081REMSYN004BUFR
0136830960999992014030218004-10910-037050FM-12+000599999V0200901N0026199999999002000199+02921+02291101031ADDAA101999990AZ101061AZ201061GA1021+012501081GE19MSL   +99999+99999GF102991021990012501991991MA1999990100961MD1909990-0121REMSYN004BUFR
0155830960999992014030312004-10910-037050FM-12+000599999V0201401N0015101250199002000199+02591+02311101171ADDAA124015031AY161061AY261061GA1061+012501061GE19MSL   +99999+99999GF106991061990012501991991KA1120N+02281MA1999990101101MD1909990+0041MW1211REMSYN004BUFR
0142830960999992014030318004-10910-037050FM-12+000599999V0200501N0021199999999002000199+02621+02291101161ADDAA106008031AY161061AY261061GA1041+012501061GE19MSL   +99999+99999GF104991041990012501991991MA1999990101091MD1909990+0131MW1211REMSYN004BUFR
0149830960999992014030412004-10910-037050FM-12+000599999V0200901N0026199999999002000199+02871+02261101321ADDAA124008031AZ101061AZ201061GA1031+012501081GE19MSL   +99999+99999GF103991031990012501991991KA1120N+02301MA1999990101251MD1909990+0151REMSYN004BUFR
0136830960999992014030418004-10910-037050FM-12+000599999V0200901N0026199999999002000199+03001+02371101221ADDAA101999990AZ101061AZ201061GA1021+012501081GE19MSL   +99999+99999GF102991021990012501991991MA1999990101151MD1909990+0061REMSYN004BUFR
0155830960999992014030512004-10910-037050FM-12+000599999V0200901N0026199999999002000199+02851+02311101421ADDAA124000631AY151061AY251061GA1031+012501081GE19MSL   +99999+99999GF103991031990012501991991KA1120N+02331MA1999990101351MD1909990+0151MW1201REMSYN004BUFR
0136830960999992014030518004-10910-037050FM-12+000599999V0200901N0026199999999002000199+03041+02381101321ADDAA101999990AZ101061AZ201061GA1021+012501081GE19MSL   +99999+99999GF102991021990012501991991MA1999990101251MD1909990+0101REMSYN004BUFR
0149830960999992014030612004-10910-037050FM-12+000599999V0200901N0026199999999002000199+02871+02261101371ADDAA101999990AZ101061AZ201061GA1021+012501081GE19MSL   +99999+99999GF102991021990012501991991KA1120N+02301MA1999990101301MD1909990-0051REMSYN004BUFR
0136830960999992014030618004-10910-037050FM-12+000599999V0200901N0026199999999002000199+03071+02421101301ADDAA101999990AZ101061AZ201061GA1021+012501081GE19MSL   +99999+99999GF102991021990012501991991MA1999990101231MD1909990-0021REMSYN004BUFR
0149830960999992014030712004-10910-037050FM-12+000599999V0200901N0021199999999002000199+02771+02281101421ADDAA101999990AZ101061AZ201061GA1031+012501061GE19MSL   +99999+99999GF103991031990012501991991KA1120N+02281MA1999990101351MD1909990+0051REMSYN004BUFR
0136830960999992014030718004-10910-037050FM-12+000599999V0200901N0026199999999002000199+02971+02351101371ADDAA101999990AZ101061AZ201061GA1031+012501081GE19MSL   +99999+99999GF103991031990012501991991MA1999990101301MD1909990+0071REMSYN004BUFR
0149830960999992014030812004-10910-037050FM-12+000599999V0201801N0015199999999002000199+02701+02221101461ADDAA101999990AZ101061AZ201061GA1031+012501061GE19MSL   +99999+99999GF103991031990012501991991KA1120N+02301MA1999990101391MD1909990+0041REMSYN004BUFR
0136830960999992014030818004-10910-037050FM-12+000599999V0200901N0031199999999002000199+03001+02321101321ADDAA101999990AZ101061AZ201061GA1011+012501081GE19MSL   +99999+99999GF101991011990012501991991MA1999990101251MD1909990-0051REMSYN004BUFR
0149830960999992014030912004-10910-037050FM-12+000599999V0200901N0026199999999002000199+02921+02321101451ADDAA101999990AZ101061AZ201061GA1021+012501081GE19MSL   +99999+99999GF102991021990012501991991KA1120N+02381MA1999990101381MD1909990-0011REMSYN004BUFR
0136830960999992014030918004-10910-037050FM-12+000599999V0200901N0026199999999002000199+03021+02361101271ADDAA101999990AZ101061AZ201061GA1021+012501081GE19MSL   +99999+99999GF102991021990012501991991MA1999990101201MD1909990-0051REMSYN004BUFR
0155830960999992014031012004-10910-037050FM-12+000599999V0200901N0026199999999002000199+02701+02171101521ADDAA124001031AY151061AY251061GA1031+012501061GE19MSL   +99999+99999GF103991031990012501991991KA1120N+02391MA1999990101451MD1909990+0071MW1201REMSYN004BUFR
0142830960999992014031018004-10910-037050FM-12+000599999V0200901N0026199999999002000199+02801+02251101421ADDAA106002031AY151061AY251061GA1021+012501061GE19MSL   +99999+99999GF102991021990012501991991MA1999990101351MD1909990+0151MW1201REMSYN004BUFR
0149830960999992014031112004-10910-037050FM-12+000599999V0200901N0021199999999002000199+02891+02251101421ADDAA124005031AZ101061AZ201061GA1021+012501081GE19MSL   +99999+99999GF102991021990012501991991KA1120N+02411MA1999990101351MD1909990-0101REMSYN004BUFR
0136830960999992014031118004-10910-037050FM-12+000599999V0200901N0026199999999002000199+02941+02261101321ADDAA101999990AZ101061AZ201061GA1021+012501081GE19MSL   +99999+99999GF102991021990012501991991MA1999990101251MD1909990-0101REMSYN004BUFR
0149830960999992014031212004-10910-037050FM-12+000599999V0200901N0026199999999002000199+02901+02301101491ADDAA101999990AZ101061AZ201061GA1031+012501081GE19MSL   +99999+99999GF103991031990012501991991KA1120N+02391MA1999990101421MD1909990+0071REMSYN004BUFR
0136830960999992014031218004-10910-037050FM-12+000599999V0200901N0026199999999002000199+02941+02291101381ADDAA101999990AZ101061AZ201061GA1021+012501081GE19MSL   +99999+99999GF102991021990012501991991MA1999990101311MD1909990+0061REMSYN004BUFR
0149830960999992014031312004-10910-037050FM-12+000599999V0200901N0026199999999002000199+02991+02331101471ADDAA101999990AZ101061AZ201061GA1032+012501081GE19MSL   +99999+99999GF102992032990012501991991KA1120N+02421MA1999990101401MD1909990-0021REMSYN004BUFR
0136830960999992014031318004-10910-037050FM-12+000599999V0200901N0026199999999002000199+03021+02341101421ADDAA101999990AZ101061AZ201061GA1021+012501081GE19MSL   +99999+99999GF102991021990012501991991MA1999990101351MD1909990+0041REMSYN004BUFR
0149830960999992014031412004-10910-037050FM-12+000599999V0200901N0026199999999002000199+02941+02331101421ADDAA101999990AZ101061AZ201061GA1031+012501081GE19MSL   +99999+99999GF103991031990012501991991KA1120N+02431MA1999990101351MD1909990-0051REMSYN004BUFR
0136830960999992014031418004-10910-037050FM-12+000599999V0200901N0026199999999002000199+03001+02341101331ADDAA101999990AZ101061AZ201061GA1021+012501081GE19MSL   +99999+99999GF102991021990012501991991MA1999990101261MD1909990-0091REMSYN004BUFR
0149830960999992014031512004-10910-037050FM-12+000599999V0200901N0026199999999002000199+02941+02331101371ADDAA101999990AZ101061AZ201061GA1031+012501081GE19MSL   +99999+99999GF103991031990012501991991KA1120N+02451MA1999990101031MD1909990-0051REMSYN004BUFR
0136830960999992014031518004-10910-037050FM-12+000599999V0200901N0026199999999002000199+03021+02361101291ADDAA101999990AZ101061AZ201061GA1021+012501081GE19MSL   +99999+99999GF102991021990012501991991MA1999990101221MD1909990-0041REMSYN004BUFR
0155830960999992014031612004-10910-037050FM-12+000599999V0200901N0026101250199010000199+02591+02121101471ADDAA124004031AY161061AY261061GA1051+012501061GE19MSL   +99999+99999GF105991051990012501991991KA1120N+02331MA1999990101401MD1909990+0101MW1211REMSYN004BUFR
0142830960999992014031618004-10910-037050FM-12+000599999V0200901N0026199999999002000199+02891+02301101321ADDAA106000231AY151061AY251061GA1031+012501081GE19MSL   +99999+99999GF103991031990012501991991MA1999990101251MD1909990+0031MW1201REMSYN004BUFR
0155830960999992014031712004-10910-037050FM-12+000599999V0200901N0021199999999002000199+02721+02241101371ADDAA124014031AY161061AY261061GA1041+012501081GE19MSL   +99999+99999GF104991041990012501991991KA1120N+02301MA1999990101301MD1909990-0101MW1211REMSYN004BUFR
0174830960999992014031718004-10910-037050FM-12+000599999V0200901N0015100800199002000199+02591+02421101211ADDAA106011031AY161061AY261061GA1081+008001061GA2991+999991101GA3991+999991101GE19MSL   +99999+99999GF108991081990008001991991MA1999990101141MD1909990-0111MW1621REMSYN004BUFR
0155830960999992014031812004-10910-037050FM-12+000599999V0200901N0015101250199002000199+02841+02351101451ADDAA124012031AY161061AY261061GA1061+012501061GE19MSL   +99999+99999GF106991061990012501991991KA1120N+02351MA1999990101381MD1909990+0081MW1161REMSYN004BUFR
0136830960999992014031818004-10910-037050FM-12+000599999V0200901N0026101250199002000199+02791+02341101191ADDAA101999990AZ101061AZ201061GA1061+012501081GE19MSL   +99999+99999GF106991061990012501991991MA1999990101121MD1909990-0021REMSYN004BUFR
0149830960999992014031912004-10910-037050FM-12+000599999V0200901N0015101250199002000199+02921+02341101441ADDAA101999990AZ101061AZ201061GA1051+012501081GE19MSL   +99999+99999GF105991051990012501991991KA1120N+02351MA1999990101371MD1909990-0011REMSYN004BUFR
0136830960999992014031918004-10910-037050FM-12+000599999V0200901N0026199999999002000199+02991+02421101261ADDAA101999990AZ101061AZ201061GA1031+012501081GE19MSL   +99999+99999GF103991031990012501991991MA1999990101191MD1909990+0071REMSYN004BUFR
0149830960999992014032012004-10910-037050FM-12+000599999V0200901N0026101250199002000199+02871+02371101431ADDAA101999990AZ101061AZ201061GA1051+012501081GE19MSL   +99999+99999GF105991051990012501991991KA1120N+02371MA1999990101361MD1909990-0011REMSYN004BUFR
0136830960999992014032018004-10910-037050FM-12+000599999V0200901N0031101250199002000199+02901+02321101111ADDAA101999990AZ101061AZ201061GA1061+012501081GE19MSL   +99999+99999GF106991061990012501991991MA1999990101041MD1909990-0151REMSYN004BUFR
0149830960999992014032112004-10910-037050FM-12+000599999V0200901N0031101250199002000199+03041+02291101441ADDAA101999990AZ101061AZ201061GA1051+012501081GE19MSL   +99999+99999GF105991051990012501991991KA1120N+02401MA1999990101371MD1909990+0011REMSYN004BUFR
0136830960999992014032118004-10910-037050FM-12+000599999V0200901N0041101250199002000199+03001+02311101221ADDAA101999990AZ101061AZ201061GA1061+012501081GE19MSL   +99999+99999GF106991061990012501991991MA1999990101151MD1909990+0111REMSYN004BUFR
0187830960999992014032212004-10910-037050FM-12+000599999V0200901N0015100800199002000199+02591+02511101491ADDAA124007031AY161061AY261061GA1081+008001061GA2991+999991101GA3991+999991101GE19MSL   +99999+99999GF108991081990008001991991KA1120N+02371MA1999990101421MD1909990+0051MW1631REMSYN004BUFR
0174830960999992014032218004-10910-037050FM-12+000599999V0200901N0015101250199002000199+02891+02371101201ADDAA106002031AY161061AY261061GA1081+012501061GA2991+999991101GA3991+999991101GE19MSL   +99999+99999GF108991081990012501991991MA1999990101131MD1909990-0021MW1161REMSYN004BUFR
0149830960999992014032312004-10910-037050FM-12+000599999V0200901N0015199999999002000199+02971+02331101431ADDAA124002031AZ101061AZ201061GA1021+012501081GE19MSL   +99999+99999GF102991021990012501991991KA1120N+02401MA1999990101361MD1909990-0061REMSYN004BUFR
0136830960999992014032318004-10910-037050FM-12+000599999V0200901N0026199999999002000199+02991+02321101031ADDAA101999990AZ101061AZ201061GA1021+012501081GE19MSL   +99999+99999GF102991021990012501991991MA1999990100961MD1909990-0071REMSYN004BUFR
0149830960999992014032412004-10910-037050FM-12+000599999V0200901N0026199999999002000199+02921+02321101471ADDAA101999990AZ101061AZ201061GA1031+012501081GE19MSL   +99999+99999GF103991031990012501991991KA1120N+02391MA1999990101401MD1909990+0041REMSYN004BUFR
0136830960999992014032418004-10910-037050FM-12+000599999V0200901N0026199999999002000199+03001+02371101131ADDAA101999990AZ101061AZ201061GA1021+012501081GE19MSL   +99999+99999GF102991021990012501991991MA1999990101061MD1909990+0101REMSYN004BUFR
0136830960999992014032500004-10910-037050FM-12+000599999V0200901N0026199999999002000199+02721+02301101351ADDAA101999990AZ101061AZ201061GA1031+012501081GE19MSL   +99999+99999GF103991031990012501991991MA1999990101281MD1909990+0081REMSYN004BUFR
0149830960999992014032512004-10910-037050FM-12+000599999V0200901N0026199999999002000199+02901+02301101481ADDAA101999990AZ101061AZ201061GA1031+012501081GE19MSL   +99999+99999GF103991031990012501991991KA1120N+02391MA1999990101411MD1909990+0011REMSYN004BUFR
0136830960999992014032518004-10910-037050FM-12+000599999V0200901N0026199999999002000199+03021+02361101321ADDAA101999990AZ101061AZ201061GA1021+012501081GE19MSL   +99999+99999GF102991021990012501991991MA1999990101251MD1909990+0191REMSYN004BUFR
0136830960999992014032600004-10910-037050FM-12+000599999V0200901N0026199999999002000199+02721+02241101311ADDAA101999990AZ101061AZ201061GA1031+012501081GE19MSL   +99999+99999GF103991031990012501991991MA1999990101241MD1909990-0041REMSYN004BUFR
0155830960999992014032612004-10910-037050FM-12+000599999V0200501N0021199999999002000199+02691+02221101471ADDAA124002031AY151061AY251061GA1031+012501061GE19MSL   +99999+99999GF103991031990012501991991KA1120N+02301MA1999990101401MD1909990-0011MW1211REMSYN004BUFR
0136830960999992014032618004-10910-037050FM-12+000599999V0200901N0026199999999002000199+02891+02301101311ADDAA101999990AZ101061AZ201061GA1031+012501081GE19MSL   +99999+99999GF103991031990012501991991MA1999990101241MD1909990-0011REMSYN004BUFR
0136830960999992014032700004-10910-037050FM-12+000599999V0200901N0026199999999002000199+02691+02241101301ADDAA101999990AZ101061AZ201061GA1031+012501061GE19MSL   +99999+99999GF103991031990012501991991MA1999990101231MD1909990-0011REMSYN004BUFR
0155830960999992014032712004-10910-037050FM-12+000599999V0200201N0463299999999002000199+02291+99999101371ADDAA101999990AZ101061AZ201061GA1032+012501081GE19MSL   +99999+99999GF101992032990012501991991MA1999990101301MD1909990-0101REMSYN004BUFREQDQ0123.0  2ATOD  
0136830960999992014032718004-10910-037050FM-12+000599999V0200901N0026199999999002000199+02991+02341101281ADDAA101999990AZ101061AZ201061GA1021+012501081GE19MSL   +99999+99999GF102991021990012501991991MA1999990101211MD1909990-0011REMSYN004BUFR
0136830960999992014032800004-10910-037050FM-12+000599999V0200901N0026199999999002000199+02741+02241101271ADDAA101999990AZ101061AZ201061GA1031+012501081GE19MSL   +99999+99999GF103991031990012501991991MA1999990101201MD1909990-0011REMSYN004BUFR
0155830960999992014032812004-10910-037050FM-12+000599999V0200901N0026199999999002000199+02871+02351101371ADDAA124007031AY161061AY261061GA1031+012501061GE19MSL   +99999+99999GF103991031990012501991991KA1120N+02411MA1999990101301MD1909990+0001MW1211REMSYN004BUFR
0136830960999992014032818004-10910-037050FM-12+000599999V0200901N0026199999999002000199+03001+02391101291ADDAA101999990AZ101061AZ201061GA1021+012501081GE19MSL   +99999+99999GF102991021990012501991991MA1999990101221MD1909990-0011REMSYN004BUFR
0136830960999992014032900004-10910-037050FM-12+000599999V0200901N0026199999999002000199+02721+02221101251ADDAA101999990AZ101061AZ201061GA1031+012501081GE19MSL   +99999+99999GF103991031990012501991991MA1999990101181MD1909990-0021REMSYN004BUFR
0149830960999992014032912004-10910-037050FM-12+000599999V0200901N0026199999999002000199+02941+02311101421ADDAA101999990AZ101061AZ201061GA1021+012501081GE19MSL   +99999+99999GF102991021990012501991991KA1120N+02451MA1999990101351MD1909990+0051REMSYN004BUFR
0136830960999992014032918004-10910-037050FM-12+000599999V0200901N0026199999999002000199+03041+02381101371ADDAA101999990AZ101061AZ201061GA1021+012501081GE19MSL   +99999+99999GF102991021990012501991991MA1999990101301MD1909990+0081REMSYN004BUFR
0149830960999992014033012004-10910-037050FM-12+000599999V0200901N0026199999999002000199+02991+02331101471ADDAA101999990AZ101061AZ201061GA1021+012501081GE19MSL   +99999+99999GF102991021990012501991991KA1120N+02491MA1999990101401MD1909990+0051REMSYN004BUFR
0136830960999992014033018004-10910-037050FM-12+000599999V0200901N0026199999999002000199+03041+02361101391ADDAA101999990AZ101061AZ201061GA1021+012501081GE19MSL   +99999+99999GF102991021990012501991991MA1999990101321MD1909990+0021REMSYN004BUFR
0155830960999992014033112004-10910-037050FM-12+000599999V0200901N0026101250199002000199+02571+02191101521ADDAA124000831AY151061AY251061GA1051+012501061GE19MSL   +99999+99999GF105991051990012501991991KA1120N+02381MA1999990101451MD1909990+0081MW1201REMSYN004BUFR
0136830960999992014033118004-10910-037050FM-12+000599999V0200901N0026199999999002000199+03071+02401101391ADDAA101999990AZ101061AZ201061GA1021+012501081GE19MSL   +99999+99999GF102991021990012501991991MA1999990101321MD1909990+0001REMSYN004BUFR
0136830960999992014040100004-10910-037050FM-12+000599999V0200901N0026199999999002000199+02741+02241101321ADDAA101999990AZ101061AZ201061GA1031+012501081GE19MSL   +99999+99999GF103991031990012501991991MA1999990101251MD1909990-0021REMSYN004BUFR
0149830960999992014040112004-10910-037050FM-12+000599999V0200901N0026199999999002000199+03001+02341101511ADDAA101999990AZ101061AZ201061GA1031+012501081GE19MSL   +99999+99999GF103991031990012501991991KA1120N+02491MA1999990101441MD1909990-0011REMSYN004BUFR
0136830960999992014040118004-10910-037050FM-12+000599999V0200901N0026199999999002000199+03021+02291101301ADDAA101999990AZ101061AZ201061GA1011+012501081GE19MSL   +99999+99999GF101991011990012501991991MA1999990101231MD1909990-0091REMSYN004BUFR
0136830960999992014040200004-10910-037050FM-12+000599999V0200901N0015199999999002000199+02751+02281101401ADDAA101999990AZ101061AZ201061GA1031+012501061GE19MSL   +99999+99999GF103991031990012501991991MA1999990101331MD1909990+0081REMSYN004BUFR
0149830960999992014040212004-10910-037050FM-12+000599999V0200901N0026199999999002000199+03051+02301101331ADDAA101999990AZ101061AZ201061GA1031+012501081GE19MSL   +99999+99999GF103991031990012501991991KA1120N+02491MA1999990101261MD1909990-0181REMSYN004BUFR
0142830960999992014040218004-10910-037050FM-12+000599999V0200901N0015101250199002000199+02651+02311101121ADDAA106005031AY161061AY261061GA1061+012501061GE19MSL   +99999+99999GF106991061990012501991991MA1999990101051MD1909990-0181MW1161REMSYN004BUFR
0136830960999992014040300004-10910-037050FM-12+000599999V0200901N0010199999999002000199+02641+02231101231ADDAA101999990AZ101061AZ201061GA1031+012501061GE19MSL   +99999+99999GF103991031990012501991991MA1999990101161MD1909990-0171REMSYN004BUFR
0149830960999992014040312004-10910-037050FM-12+000599999V0200901N0015199999999002000199+02991+02321101301ADDAA124005031AZ101061AZ201061GA1021+012501081GE19MSL   +99999+99999GF102991021990012501991991KA1120N+02491MA1999990101231MD1909990-0031REMSYN004BUFR
0136830960999992014040318004-10910-037050FM-12+000599999V0200901N0015101250199002000199+03001+02211101111ADDAA101999990AZ101061AZ201061GA1051+012501081GE19MSL   +99999+99999GF105991051990012501991991MA1999990101041MD1909990-0011REMSYN004BUFR
0136830960999992014040400004-10910-037050FM-12+000599999V0200901N0026199999999002000199+02721+02281101221ADDAA101999990AZ101061AZ201061GA1021+012501061GE19MSL   +99999+99999GF102991021990012501991991MA1999990101151MD1909990-0011REMSYN004BUFR
0149830960999992014040412004-10910-037050FM-12+000599999V0200901N0015101250199002000199+02951+02331101481ADDAA101999990AZ101061AZ201061GA1061+012501061GE19MSL   +99999+99999GF106991061990012501991991KA1120N+02311MA1999990101411MD1909990+0181REMSYN004BUFR
0136830960999992014040418004-10910-037050FM-12+000599999V0200901N0010101250199002000199+02991+02321101181ADDAA101999990AZ101061AZ201061GA1061+012501081GE19MSL   +99999+99999GF106991061990012501991991MA1999990101111MD1909990+0071REMSYN004BUFR
0136830960999992014040500004-10910-037050FM-12+000599999V0200901N0031199999999002000199+02691+02281101261ADDAA101999990AZ101061AZ201061GA1031+012501061GE19MSL   +99999+99999GF103991031990012501991991MA1999990101191MD1909990+0041REMSYN004BUFR
0155830960999992014040512004-10910-037050FM-12+000599999V0200901N0015199999999002000199+02851+02311101391ADDAA124000831AY161061AY261061GA1031+012501081GE19MSL   +99999+99999GF103991031990012501991991KA1120N+02381MA1999990101321MD1909990-0091MW1161REMSYN004BUFR
0136830960999992014040518004-10910-037050FM-12+000599999V0200901N0015199999999002000199+03021+02311101321ADDAA101999990AZ101061AZ201061GA1021+012501081GE19MSL   +99999+99999GF102991021990012501991991MA1999990101251MD1909990+0141REMSYN004BUFR
0155830960999992014040612004-10910-037050FM-12+000599999V0200901N0026101250199002000199+02991+02391101611ADDAA124000231AY151061AY251061GA1061+012501081GE19MSL   +99999+99999GF106991061990012501991991KA1120N+02321MA1999990101541MD1909990+0221MW1161REMSYN004BUFR
0136830960999992014040618004-10910-037050FM-12+000599999V0200901N0026199999999002000199+02941+02331101401ADDAA101999990AZ101061AZ201061GA1021+012501081GE19MSL   +99999+99999GF102991021990012501991991MA1999990101331MD1909990+0081REMSYN004BUFR
0149830960999992014040712004-10910-037050FM-12+000599999V0200901N0010199999999002000199+02991+02321101421ADDAA101999990AZ101061AZ201061GA1031+012501081GE19MSL   +99999+99999GF103991031990012501991991KA1120N+02341MA1999990101351MD1909990-0191REMSYN004BUFR
0136830960999992014040718004-10910-037050FM-12+000599999V0200901N0026199999999002000199+02941+02331101401ADDAA101999990AZ101061AZ201061GA1021+012501081GE19MSL   +99999+99999GF102991021990012501991991MA1999990101331MD1909990+0081REMSYN004BUFR
0136830960999992014040800004-10910-037050FM-12+000599999V0200901N0010199999999002000199+02791+02251101241ADDAA101999990AZ101061AZ201061GA1031+012501061GE19MSL   +99999+99999GF103991031990012501991991MA1999990101171MD1909990-0221REMSYN004BUFR
0149830960999992014040812004-10910-037050FM-12+000599999V0200901N0026199999999002000199+03001+02371101391ADDAA101999990AZ101061AZ201061GA1021+012501081GE19MSL   +99999+99999GF102991021990012501991991KA1120N+02301MA1999990101321MD1909990-0031REMSYN004BUFR
0136830960999992014040818004-10910-037050FM-12+000599999V0200901N0026199999999002000199+03101+02411101111ADDAA101999990AZ101061AZ201061GA1021+012501081GE19MSL   +99999+99999GF102991021990012501991991MA1999990101041MD1909990-0021REMSYN004BUFR
0136830960999992014040900004-10910-037050FM-12+000599999V0200901N0026199999999002000199+02791+02301101221ADDAA101999990AZ101061AZ201061GA1031+012501081GE19MSL   +99999+99999GF103991031990012501991991MA1999990101151MD1909990-0021REMSYN004BUFR
0155830960999992014040912004-10910-037050FM-12+000599999V0200501N0015101250199002000199+02491+02131101371ADDAA124013031AY161061AY261061GA1061+012501061GE19MSL   +99999+99999GF106991061990012501991991KA1120N+02241MA1999990101301MD1909990-0021MW1211REMSYN004BUFR
0136830960999992014040918004-10910-037050FM-12+000599999V0200901N0021199999999002000199+03001+02391101171ADDAA101999990AZ101061AZ201061GA1031+012501081GE19MSL   +99999+99999GF103991031990012501991991MA1999990101101MD1909990+0061REMSYN004BUFR
0136830960999992014041000004-10910-037050FM-12+000599999V0200901N0026199999999002000199+02741+02261101251ADDAA101999990AZ101061AZ201061GA1031+012501061GE19MSL   +99999+99999GF103991031990012501991991MA1999990101181MD1909990+0031REMSYN004BUFR
0149830960999992014041012004-10910-037050FM-12+000599999V0200901N0021199999999002000199+02801+02251101321ADDAA101999990AZ101061AZ201061GA1021+012501081GE19MSL   +99999+99999GF102991021990012501991991KA1120N+02391MA1999990101251MD1909990-0051REMSYN004BUFR
0136830960999992014041018004-10910-037050FM-12+000599999V0200901N0026199999999002000199+02971+02351101211ADDAA101999990AZ101061AZ201061GA1021+012501081GE19MSL   +99999+99999GF102991021990012501991991MA1999990101141MD1909990-0041REMSYN004BUFR
0136830960999992014041100004-10910-037050FM-12+000599999V0200901N0026199999999002000199+02741+02281101251ADDAA101999990AZ101061AZ201061GA1031+012501081GE19MSL   +99999+99999GF103991031990012501991991MA1999990101181MD1909990+0001REMSYN004BUFR
0155830960999992014041112004-10910-037050FM-12+000599999V0200901N0021199999999002000199+02971+02451101471ADDAA124000631AY151061AY251061GA1031+012501081GE19MSL   +99999+99999GF103991031990012501991991KA1120N+02411MA1999990101401MD1909990+0151MW1201REMSYN004BUFR
0136830960999992014041118004-10910-037050FM-12+000599999V0200901N0026199999999002000199+03021+02411101371ADDAA101999990AZ101061AZ201061GA1021+012501081GE19MSL   +99999+99999GF102991021990012501991991MA1999990101301MD1909990+0161REMSYN004BUFR
0136830960999992014041200004-10910-037050FM-12+000599999V0200901N0026199999999002000199+02721+02281101421ADDAA101999990AZ101061AZ201061GA1041+012501061GE19MSL   +99999+99999GF104991041990012501991991MA1999990101351MD1909990+0171REMSYN004BUFR
0155830960999992014041212004-10910-037050FM-12+000599999V0200501N0015199999999002000199+02741+02241101461ADDAA124004031AY161061AY261061GA1031+012501061GE19MSL   +99999+99999GF103991031990012501991991KA1120N+02391MA1999990101391MD1909990-0011MW1211REMSYN004BUFR
0136830960999992014041218004-10910-037050FM-12+000599999V0200901N0026199999999002000199+03001+02391101271ADDAA101999990AZ101061AZ201061GA1031+012501081GE19MSL   +99999+99999GF103991031990012501991991MA1999990101201MD1909990-0101REMSYN004BUFR
0149830960999992014041312004-10910-037050FM-12+000599999V0200901N0026199999999002000199+03001+02341101371ADDAA101999990AZ101061AZ201061GA1021+012501081GE19MSL   +99999+99999GF102991021990012501991991KA1120N+02411MA1999990101301MD1909990-0091REMSYN004BUFR
0142830960999992014041318004-10910-037050FM-12+000599999V0200901N0026199999999002000199+02941+02401101251ADDAA106002031AY151061AY251061GA1031+012501081GE19MSL   +99999+99999GF103991031990012501991991MA1999990101181MD1909990-0021MW1211REMSYN004BUFR
0149830960999992014041412004-10910-037050FM-12+000599999V0200901N0026199999999002000199+02991+02321101351ADDAA124003031AZ101061AZ201061GA1031+012501081GE19MSL   +99999+99999GF103991031990012501991991KA1120N+02371MA1999990101281MD1909990-0021REMSYN004BUFR
0136830960999992014041418004-10910-037050FM-12+000599999V0200901N0026199999999002000199+03001+02341101231ADDAA101999990AZ101061AZ201061GA1021+012501081GE19MSL   +99999+99999GF102991021990012501991991MA1999990101161MD1909990-0021REMSYN004BUFR
0142830960999992014041500004-10910-037050FM-12+000599999V0200901N0031101250199002000199+02651+02331101331ADDAA106002031AY161061AY261061GA1061+012501061GE19MSL   +99999+99999GF106991061990012501991991MA1999990101261MD1909990+0011MW1161REMSYN004BUFR
0155830960999992014041512004-10910-037050FM-12+000599999V0200901N0026101250199002000199+02691+02281101251ADDAA124005031AY161061AY261061GA1051+012501081GE19MSL   +99999+99999GF105991051990012501991991KA1120N+02401MA1999990101181MD1909990-0101MW1161REMSYN004BUFR
0136830960999992014041518004-10910-037050FM-12+000599999V0200901N0026199999999002000199+02971+02301101091ADDAA101999990AZ101061AZ201061GA1031+012501081GE19MSL   +99999+99999GF103991031990012501991991MA1999990101021MD1909990-0141REMSYN004BUFR
0142830960999992014041600004-10910-037050FM-12+000599999V0200901N0015101250199002000199+02671+02281101191ADDAA106000231AY151061AY251061GA1051+012501061GE19MSL   +99999+99999GF105991051990012501991991MA1999990101121MD1909990-0141MW1161REMSYN004BUFR
0155830960999992014041612004-10910-037050FM-12+000599999V0201801N0026101250199002000199+02801+02241101411ADDAA124005031AY161061AY261061GA1061+012501061GE19MSL   +99999+99999GF106991061990012501991991KA1120N+02401MA1999990101341MD1909990+0161MW1161REMSYN004BUFR
0142830960999992014041618004-10910-037050FM-12+000599999V0201801N0015101250199002000199+02721+02301101151ADDAA106002031AY161061AY261061GA1061+012501061GE19MSL   +99999+99999GF106991061990012501991991MA1999990101081MD1909990+0061MW1161REMSYN004BUFR
0155830960999992014041712004-10910-037050FM-12+000599999V0201801N0010199999999002000199+02901+02361101351ADDAA124003031AY161061AY261061GA1031+012501081GE19MSL   +99999+99999GF103991031990012501991991KA1120N+02401MA1999990101281MD1909990-0061MW1161REMSYN004BUFR
0136830960999992014041718004-10910-037050FM-12+000599999V0201401N0015199999999002000199+03001+02341101031ADDAA101999990AZ101061AZ201061GA1021+012501081GE19MSL   +99999+99999GF102991021990012501991991MA1999990100961MD1909990-0141REMSYN004BUFR
0149830960999992014041812004-10910-037050FM-12+000599999V0200901N0015199999999002000199+02921+02361101291ADDAA101999990AZ101061AZ201061GA1031+012501081GE19MSL   +99999+99999GF103991031990012501991991KA1120N+02401MA1999990101221MD1909990-0061REMSYN004BUFR
0136830960999992014041818004-10910-037050FM-12+000599999V0200901N0015199999999002000199+02991+02321101121ADDAA101999990AZ101061AZ201061GA1031+012501081GE19MSL   +99999+99999GF103991031990012501991991MA1999990101051MD1909990+0091REMSYN004BUFR
0149830960999992014041912004-10910-037050FM-12+000599999V0200501N0015101250199002000199+02891+02321101501ADDAA101999990AZ101061AZ201061GA1051+012501061GE19MSL   +99999+99999GF105991051990012501991991KA1120N+02471MA1999990101431MD1909990+0211REMSYN004BUFR
0142830960999992014041918004-10910-037050FM-12+000599999V0200901N0015199999999002000199+02871+02351101231ADDAA106008031AY161061AY261061GA1031+012501061GE19MSL   +99999+99999GF103991031990012501991991MA1999990101161MD1909990+0111MW1161REMSYN004BUFR
0155830960999992014042012004-10910-037050FM-12+000599999V0200901N0010101250199002000199+02791+02361101551ADDAA124009031AY161061AY261061GA1051+012501061GE19MSL   +99999+99999GF105991051990012501991991KA1120N+02331MA1999990101441MD1909990+0011MW1161REMSYN004BUFR
0136830960999992014042018004-10910-037050FM-12+000599999V0200901N0026199999999002000199+02991+02321101221ADDAA101999990AZ101061AZ201061GA1021+012501081GE19MSL   +99999+99999GF102991021990012501991991MA1999990101151MD1909990-0011REMSYN004BUFR
0149830960999992014042112004-10910-037050FM-12+000599999V0200901N0015199999999002000199+03051+02271101441ADDAA101999990AZ101061AZ201061GA1021+012501081GE19MSL   +99999+99999GF102991021990012501991991KA1120N+02491MA1999990101371MD1909990-0071REMSYN004BUFR
0136830960999992014042118004-10910-037050FM-12+000599999V0200901N0015199999999002000199+03091+02311101181ADDAA101999990AZ101061AZ201061GA1021+012501081GE19MSL   +99999+99999GF102991021990012501991991MA1999990101111MD1909990-0041REMSYN004BUFR
0149830960999992014042212004-10910-037050FM-12+000599999V0200901N0021199999999002000199+03001+02241101471ADDAA101999990AZ101061AZ201061GA1021+012501081GE19MSL   +99999+99999GF102991021990012501991991KA1120N+02501MA1999990101401MD1909990+0031REMSYN004BUFR
0136830960999992014042218004-10910-037050FM-12+000599999V0200901N0026199999999002000199+03091+02291101221ADDAA101999990AZ101061AZ201061GA1021+012501081GE19MSL   +99999+99999GF102991021990012501991991MA1999990101151MD1909990+0041REMSYN004BUFR
0155830960999992014042312004-10910-037050FM-12+000599999V0200901N0015199999999002000199+02741+02261101511ADDAA124049031AY161061AY261061GA1041+012501081GE19MSL   +99999+99999GF104991041990012501991991KA1120N+02261MA1999990101441MD1909990+0041MW1211REMSYN004BUFR
0136830960999992014042318004-10910-037050FM-12+000599999V0200901N0026199999999002000199+02971+02401101271ADDAA101999990AZ101061AZ201061GA1031+012501081GE19MSL   +99999+99999GF103991031990012501991991MA1999990101201MD1909990+0051REMSYN004BUFR
0155830960999992014042412004-10910-037050FM-12+000599999V0200901N0021199999999002000199+02751+02251101501ADDAA124021031AY161061AY261061GA1041+012501081GE19MSL   +99999+99999GF104991041990012501991991KA1120N+02391MA1999990101431MD1909990-0011MW1211REMSYN004BUFR
0136830960999992014042418004-10910-037050FM-12+000599999V0200901N0026199999999002000199+02991+02391101261ADDAA101999990AZ101061AZ201061GA1031+012501081GE19MSL   +99999+99999GF103991031990012501991991MA1999990101191MD1909990-0011REMSYN004BUFR
0149830960999992014042512004-10910-037050FM-12+000599999V0200901N0026199999999002000199+02901+02371101271ADDAA101999990AZ101061AZ201061GA1021+012501081GE19MSL   +99999+99999GF102991021990012501991991KA1120N+02351MA1999990101201MD1909990-0231REMSYN004BUFR
0136830960999992014042518004-10910-037050FM-12+000599999V0200901N0026199999999002000199+02991+02371101221ADDAA101999990AZ101061AZ201061GA1021+012501081GE19MSL   +99999+99999GF102991021990012501991991MA1999990101151MD1909990-0041REMSYN004BUFR
0149830960999992014042612004-10910-037050FM-12+000599999V0200901N0026199999999002000199+02891+02391101301ADDAA101999990AZ101061AZ201061GA1031+012501081GE19MSL   +99999+99999GF103991031990012501991991KA1120N+02381MA1999990101231MD1909990+0031REMSYN004BUFR
0136830960999992014042618004-10910-037050FM-12+000599999V0200901N0026199999999002000199+03021+02391101221ADDAA101999990AZ101061AZ201061GA1021+012501081GE19MSL   +99999+99999GF102991021990012501991991MA1999990101151MD1909990+0001REMSYN004BUFR
0155830960999992014042712004-10910-037050FM-12+000599999V0201401N0015199999999002000199+02691+02221101401ADDAA124011031AY161061AY261061GA1031+012501061GE19MSL   +99999+99999GF103991031990012501991991KA1120N+02331MA1999990101331MD1909990+0101MW1211REMSYN004BUFR
0142830960999992014042718004-10910-037050FM-12+000599999V0200901N0026199999999002000199+02921+02321101271ADDAA106006031AY161061AY261061GA1031+012501061GE19MSL   +99999+99999GF103991031990012501991991MA1999990101201MD1909990+0051MW1211REMSYN004BUFR
0155830960999992014042812004-10910-037050FM-12+000599999V0200901N0026101250199002000199+02651+02351101561ADDAA124011031AY161061AY261061GA1061+012501061GE19MSL   +99999+99999GF106991061990012501991991KA1120N+02371MA1999990101491MD1909990+0161MW1161REMSYN004BUFR
0136830960999992014042818004-10910-037050FM-12+000599999V0201401N0041101250199002000199+02871+02301101351ADDAA101999990AZ101061AZ201061GA1061+012501061GE19MSL   +99999+99999GF106991061990012501991991MA1999990101281MD1909990+0081REMSYN004BUFR
0155830960999992014042912004-10910-037050FM-12+000599999V0201801N0031101250199002000199+02671+02281101571ADDAA124001031AY161061AY261061GA1081+012501061GE19MSL   +99999+99999GF108991081990012501991991KA1120N+02351MA1999990101501MD1909990+0011MW1161REMSYN004BUFR
0136830960999992014042918004-10910-037050FM-12+000599999V0201801N0031101250199002000199+02691+02301101351ADDAA101999990AZ101061AZ201061GA1061+012501081GE19MSL   +99999+99999GF106991061990012501991991MA1999990101281MD1909990+0001REMSYN004BUFR
0136830960999992014043000004-10910-037050FM-12+000599999V0201801N0051101250199002000199+02641+02291101521ADDAA101999990AZ101061AZ201061GA1061+012501061GE19MSL   +99999+99999GF106991061990012501991991MA1999990101451MD1909990+0161REMSYN004BUFR
0155830960999992014043012004-10910-037050FM-12+000599999V0201801N0031199999999002000199+02621+02071101471ADDAA124007031AY161061AY261061GA1031+012501061GE19MSL   +99999+99999GF103991031990012501991991KA1120N+02241MA1999990101401MD1909990-0101MW1211REMSYN004BUFR
0142830960999992014043018004-10910-037050FM-12+000599999V0201801N0031199999999002000199+02891+02131101311ADDAA106001031AY151061AY251061GA1031+012501081GE19MSL   +99999+99999GF103991031990012501991991MA1999990101241MD1909990-0041MW1201REMSYN004BUFR
0136830960999992014050100004-10910-037050FM-12+000599999V0201801N0026199999999002000199+02671+02311101471ADDAA101999990AZ101061AZ201061GA1041+012501061GE19MSL   +99999+99999GF104991041990012501991991MA1999990101401MD1909990-0051REMSYN004BUFR
0155830960999992014050112004-10910-037050FM-12+000599999V0200901N0015101250199002000199+02641+02161101291ADDAA124007031AY161061AY261061GA1051+012501061GE19MSL   +99999+99999GF105991051990012501991991KA1120N+02321MA1999990101221MD1909990-0181MW1211REMSYN004BUFR
0142830960999992014050118004-10910-037050FM-12+000599999V0201401N0021101250199002000199+02671+02201101271ADDAA106007031AY161061AY261061GA1051+012501061GE19MSL   +99999+99999GF105991051990012501991991MA1999990101201MD1909990-0041MW1211REMSYN004BUFR
0149830960999992014050212004-10910-037050FM-12+000599999V0200901N0015199999999002000199+02941+02351101471ADDAA124007031AZ101061AZ201061GA1031+012501081GE19MSL   +99999+99999GF103991031990012501991991KA1120N+02421MA1999990101401MD1909990+0181REMSYN004BUFR
0136830960999992014050218004-10910-037050FM-12+000599999V0200901N0015101250199002000199+02991+02321101261ADDAA101999990AZ101061AZ201061GA1051+012501081GE19MSL   +99999+99999GF105991051990012501991991MA1999990101191MD1909990-0011REMSYN004BUFR
0136830960999992014050300004-10910-037050FM-12+000599999V0201401N0015101250199002000199+02621+02231101341ADDAA101999990AZ101061AZ201061GA1061+012501061GE19MSL   +99999+99999GF106991061990012501991991MA1999990101271MD1909990-0061REMSYN004BUFR
0155830960999992014050312004-10910-037050FM-12+000599999V0201401N0026101250199002000199+02821+02521101571ADDAA124006031AY161061AY261061GA1051+012501081GE19MSL   +99999+99999GF105991051990012501991991KA1120N+02401MA1999990101501MD1909990+0101MW1161REMSYN004BUFR
0142830960999992014050318004-10910-037050FM-12+000599999V0201801N0015101250199002000199+02751+02541101371ADDAA106002031AY161061AY261061GA1061+012501061GE19MSL   +99999+99999GF106991061990012501991991MA1999990101301MD1909990+0111MW1161REMSYN004BUFR
0187830960999992014050412004-10910-037050FM-12+000599999V0201401N0015100800199002000199+02401+02391101751ADDAA124016031AY161061AY261061GA1081+008001061GA2991+999991101GA3991+999991101GE19MSL   +99999+99999GF108991081990008001991991KA1120N+02281MA1999990101681MD1909990+0181MW1631REMSYN004BUFR
0142830960999992014050418004-10910-037050FM-12+000599999V0201401N0015101250199002000199+02871+02231101331ADDAA106000831AY161061AY261061GA1051+012501081GE19MSL   +99999+99999GF105991051990012501991991MA1999990101261MD1909990-0041MW1161REMSYN004BUFR
0155830960999992014050512004-10910-037050FM-12+000599999V0201401N0015199999999002000199+02891+02341101521ADDAA124003031AY161061AY261061GA1021+012501081GE19MSL   +99999+99999GF102991021990012501991991KA1120N+02421MA1999990101451MD1909990-0231MW1161REMSYN004BUFR
0136830960999992014050518004-10910-037050FM-12+000599999V0201401N0015101250199002000199+02901+02361101281ADDAA101999990AZ101061AZ201061GA1051+012501061GE19MSL   +99999+99999GF105991051990012501991991MA1999990101211MD1909990-0051REMSYN004BUFR
0142830960999992014050600004-10910-037050FM-12+000599999V0201401N0015101250199002000199+02521+02361101441ADDAA106005031AY161061AY261061GA1051+012501061GE19MSL   +99999+99999GF105991051990012501991991MA1999990101371MD1909990-0101MW1161REMSYN004BUFR
0155830960999992014050612004-10910-037050FM-12+000599999V0200901N0026199999999002000199+02901+02291101571ADDAA124007031AY161061AY261061GA1031+012501081GE19MSL   +99999+99999GF103991031990012501991991KA1120N+02421MA1999990101501MD1909990+0051MW1161REMSYN004BUFR
0142830960999992014050618004-10910-037050FM-12+000599999V0200901N0015199999999002000199+02821+02241101331ADDAA106000631AY161061AY231061GA1021+012501081GE19MSL   +99999+99999GF102991021990012501991991MA1999990101261MD1909990+0051MW1161REMSYN004BUFR
0136830960999992014050700004-10910-037050FM-12+000599999V0200901N0015199999999002000199+02621+02231101411ADDAA101999990AZ101061AZ201061GA1031+012501061GE19MSL   +99999+99999GF103991031990012501991991MA1999990101341MD1909990-0031REMSYN004BUFR
0155830960999992014050712004-10910-037050FM-12+000599999V0201401N0015199999999002000199+02691+02221101631ADDAA124013031AY161061AY261061GA1031+012501061GE19MSL   +99999+99999GF103991031990012501991991KA1120N+02261MA1999990101561MD1909990+0061MW1211REMSYN004BUFR
0136830960999992014050718004-10910-037050FM-12+000599999V0200901N0026199999999002000199+02921+02341101391ADDAA101999990AZ101061AZ201061GA1031+012501081GE19MSL   +99999+99999GF103991031990012501991991MA1999990101321MD1909990+0061REMSYN004BUFR
0136830960999992014050800004-10910-037050FM-12+000599999V0200901N0026199999999002000199+02621+02211101531ADDAA101999990AZ101061AZ201061GA1031+012501061GE19MSL   +99999+99999GF103991031990012501991991MA1999990101461MD1909990+0121REMSYN004BUFR
0155830960999992014050812004-10910-037050FM-12+000599999V0200901N0021199999999002000199+02841+02241101571ADDAA124000831AY151061AY251061GA1031+012501081GE19MSL   +99999+99999GF103991031990012501991991KA1120N+02381MA1999990101501MD1909990-0061MW1201REMSYN004BUFR
0136830960999992014050818004-10910-037050FM-12+000599999V0200501N0026199999999002000199+02921+02291101291ADDAA101999990AZ101061AZ201061GA1021+012501081GE19MSL   +99999+99999GF102991021990012501991991MA1999990101221MD1909990-0101REMSYN004BUFR
0136830960999992014050900004-10910-037050FM-12+000599999V0200901N0026199999999002000199+02651+02201101431ADDAA101999990AZ101061AZ201061GA1031+012501081GE19MSL   +99999+99999GF103991031990012501991991MA1999990101361MD1909990-0101REMSYN004BUFR
0155830960999992014050912004-10910-037050FM-12+000599999V0200901N0021199999999002000199+02721+02221101421ADDAA124002031AY151061AY251061GA1031+012501081GE19MSL   +99999+99999GF103991031990012501991991KA1120N+02281MA1999990101351MD1909990-0151MW1211REMSYN004BUFR
0136830960999992014050918004-10910-037050FM-12+000599999V0200901N0026199999999002000199+02921+02321101191ADDAA101999990AZ101061AZ201061GA1021+012501081GE19MSL   +99999+99999GF102991021990012501991991MA1999990101121MD1909990-0101REMSYN004BUFR
0136830960999992014051000004-10910-037050FM-12+000599999V0200901N0026199999999002000199+02671+02181101331ADDAA101999990AZ101061AZ201061GA1031+012501081GE19MSL   +99999+99999GF103991031990012501991991MA1999990101261MD1909990-0101REMSYN004BUFR
0149830960999992014051012004-10910-037050FM-12+000599999V0200901N0021199999999002000199+02791+02231101251ADDAA101999990AZ101061AZ201061GA1031+012501081GE19MSL   +99999+99999GF103991031990012501991991KA1120N+02301MA1999990101181MD1909990-0171REMSYN004BUFR
0136830960999992014051018004-10910-037050FM-12+000599999V0200901N0026199999999002000199+02941+02291101151ADDAA101999990AZ101061AZ201061GA1021+012501081GE19MSL   +99999+99999GF102991021990012501991991MA1999990101081MD1909990-0041REMSYN004BUFR
0149830960999992014051112004-10910-037050FM-12+000599999V0200901N0021199999999002000199+02801+02201101471ADDAA101999990AZ101061AZ201061GA1031+012501081GE19MSL   +99999+99999GF103991031990012501991991KA1120N+02381MA1999990101401MD1909990+0221REMSYN004BUFR
0136830960999992014051118004-10910-037050FM-12+000599999V0200901N0026199999999002000199+02991+02341101211ADDAA101999990AZ101061AZ201061GA1021+012501081GE19MSL   +99999+99999GF102991021990012501991991MA1999990101141MD1909990+0061REMSYN004BUFR
0155830960999992014051212004-10910-037050FM-12+000599999V0200901N0026199999999002000199+02721+02281101531ADDAA124010031AY161061AY261061GA1031+012501081GE19MSL   +99999+99999GF103991031990012501991991KA1120N+02351MA1999990101461MD1909990+0061MW1161REMSYN004BUFR
0142830960999992014051218004-10910-037050FM-12+000599999V0201801N0031101250199002000199+02571+02351101171ADDAA106003031AY161061AY261061GA1061+012501081GE19MSL   +99999+99999GF106991061990012501991991MA1999990101101MD1909990-0041MW1161REMSYN004BUFR
0136830960999992014051300004-10910-037050FM-12+000599999V0201801N0031101250199002000199+02591+02291101311ADDAA101999990AZ101061AZ201061GA1061+012501061GE19MSL   +99999+99999GF106991061990012501991991MA1999990101241MD1909990+0031REMSYN004BUFR
0149830960999992014051312004-10910-037050FM-12+000599999V0201801N0031199999999002000199+02771+02271101581ADDAA124003031AZ101061AZ201061GA1031+012501081GE19MSL   +99999+99999GF103991031990012501991991KA1120N+02341MA1999990101511MD1909990+0051REMSYN004BUFR
0136830960999992014051318004-10910-037050FM-12+000599999V0201801N0026101250199002000199+02771+02271101311ADDAA101999990AZ101061AZ201061GA1061+012501081GE19MSL   +99999+99999GF106991061990012501991991MA1999990101241MD1909990+0141REMSYN004BUFR
0136830960999992014051400004-10910-037050FM-12+000599999V0201801N0015101250199002000199+02571+02311101411ADDAA101999990AZ101061AZ201061GA1061+012501061GE19MSL   +99999+99999GF106991061990012501991991MA1999990101341MD1909990+0141REMSYN004BUFR
0187830960999992014051412004-10910-037050FM-12+000599999V0201801N0015101250199002000199+02521+02441101641ADDAA124003031AY161061AY261061GA1081+012501061GA2991+999991101GA3991+999991101GE19MSL   +99999+99999GF108991081990012501991991KA1120N+02281MA1999990101571MD1909990+0061MW1161REMSYN004BUFR
0142830960999992014051418004-10910-037050FM-12+000599999V0201801N0015199999999002000199+02771+02361101261ADDAA106003031AY161061AY261061GA1031+012501081GE19MSL   +99999+99999GF103991031990012501991991MA1999990101191MD1909990-0051MW1161REMSYN004BUFR
0174830960999992014051500004-10910-037050FM-12+000599999V0201801N0015101250199002000199+02521+02361101371ADDAA106001031AY161061AY261061GA1081+012501061GA2991+999991101GA3991+999991101GE19MSL   +99999+99999GF108991081990012501991991MA1999990101301MD1909990-0081MW1161REMSYN004BUFR
0187830960999992014051512004-10910-037050FM-12+000599999V0201801N0010100800199002000199+02571+02491101481ADDAA124016031AY161061AY261061GA1081+008001061GA2991+999991101GA3991+999991101GE19MSL   +99999+99999GF108991081990008001991991KA1120N+02261MA1999990101411MD1909990-0161MW1621REMSYN004BUFR
0142830960999992014051518004-10910-037050FM-12+000599999V0200901N0010199999999002000199+02841+02371101151ADDAA106001031AY161061AY261061GA1021+012501081GE19MSL   +99999+99999GF102991021990012501991991MA1999990101081MD1909990-0111MW1161REMSYN004BUFR
0174830960999992014051600004-10910-037050FM-12+000599999V0200901N0015101250199002000199+02501+02361101281ADDAA106001031AY161061AY261061GA1081+012501061GA2991+999991101GA3991+999991101GE19MSL   +99999+99999GF108991081990012501991991MA1999990101211MD1909990-0091MW1161REMSYN004BUFR
0155830960999992014051612004-10910-037050FM-12+000599999V0200901N0015199999999002000199+02771+02421101321ADDAA124012031AY161061AY261061GA1031+012501081GE19MSL   +99999+99999GF103991031990012501991991KA1120N+02311MA1999990101251MD1909990-0161MW1161REMSYN004BUFR
0136830960999992014051618004-10910-037050FM-12+000599999V0200901N0015199999999002000199+02841+02401101051ADDAA101999990AZ101061AZ201061GA1021+012501081GE19MSL   +99999+99999GF102991021990012501991991MA1999990100981MD1909990+0101REMSYN004BUFR
0136830960999992014051700004-10910-037050FM-12+000599999V0200901N0015101250199002000199+02621+02331101161ADDAA101999990AZ101061AZ201061GA1051+012501061GE19MSL   +99999+99999GF105991051990012501991991MA1999990101091MD1909990-0121REMSYN004BUFR
0149830960999992014051712004-10910-037050FM-12+000599999V0200901N0015199999999002000199+02801+02201101371ADDAA124002031AZ101061AZ201061GA1021+012501081GE19MSL   +99999+99999GF102991021990012501991991KA1120N+02381MA1999990101301MD1909990+0051REMSYN004BUFR
0136830960999992014051718004-10910-037050FM-12+000599999V0201401N0015101250199002000199+02771+02251101171ADDAA101999990AZ101061AZ201061GA1061+012501061GE19MSL   +99999+99999GF106991061990012501991991MA1999990101101MD1909990+0121REMSYN004BUFR
0149830960999992014051812004-10910-037050FM-12+000599999V0200901N0015199999999002000199+02791+02231101251ADDAA101999990AZ101061AZ201061GA1021+012501081GE19MSL   +99999+99999GF102991021990012501991991KA1120N+02391MA1999990101181MD1909990-0121REMSYN004BUFR
0136830960999992014051818004-10910-037050FM-12+000599999V0200901N0015199999999002000199+02901+02291101221ADDAA101999990AZ101061AZ201061GA1021+012501081GE19MSL   +99999+99999GF102991021990012501991991MA1999990101151MD1909990+0051REMSYN004BUFR
0155830960999992014051912004-10910-037050FM-12+000599999V0201401N0015199999999002000199+02691+02201101461ADDAA124002031AY151061AY251061GA1031+012501061GE19MSL   +99999+99999GF103991031990012501991991KA1120N+02241MA1999990101391MD1909990+0211MW1211REMSYN004BUFR
0136830960999992014051918004-10910-037050FM-12+000599999V0201401N0021199999999002000199+02791+02181101371ADDAA101999990AZ101061AZ201061GA1031+012501081GE19MSL   +99999+99999GF103991031990012501991991MA1999990101301MD1909990+0151REMSYN004BUFR
0136830960999992014052000004-10910-037050FM-12+000599999V0200901N0026199999999002000199+02591+02211101431ADDAA101999990AZ101061AZ201061GA1031+012501061GE19MSL   +99999+99999GF103991031990012501991991MA1999990101361MD1909990+0071REMSYN004BUFR
0155830960999992014052012004-10910-037050FM-12+000599999V0200901N0026199999999002000199+02701+02201101471ADDAA124007031AY161061AY261061GA1041+012501061GE19MSL   +99999+99999GF104991041990012501991991KA1120N+02261MA1999990101401MD1909990+0011MW1211REMSYN004BUFR
0136830960999992014052018004-10910-037050FM-12+000599999V0200901N0026199999999002000199+02821+02201101371ADDAA101999990AZ101061AZ201061GA1021+012501081GE19MSL   +99999+99999GF102991021990012501991991MA1999990101301MD1909990+0001REMSYN004BUFR
0136830960999992014052100004-10910-037050FM-12+000599999V0200901N0026199999999002000199+02621+02241101421ADDAA101999990AZ101061AZ201061GA1031+012501061GE19MSL   +99999+99999GF103991031990012501991991MA1999990101351MD1909990-0011REMSYN004BUFR
0155830960999992014052112004-10910-037050FM-12+000599999V0201401N0021199999999002000199+02821+02241101481ADDAA124002031AY151061AY251061GA1031+012501081GE19MSL   +99999+99999GF103991031990012501991991KA1120N+02331MA1999990101411MD1909990+0011MW1211REMSYN004BUFR
0136830960999992014052118004-10910-037050FM-12+000599999V0200901N0026199999999002000199+02921+02271101391ADDAA101999990AZ101061AZ201061GA1021+012501081GE19MSL   +99999+99999GF102991021990012501991991MA1999990101321MD1909990+0021REMSYN004BUFR
0142830960999992014052200004-10910-037050FM-12+000599999V0200901N0026199999999002000199+02641+02181101451ADDAA106003031AY151061AY251061GA1031+012501061GE19MSL   +99999+99999GF103991031990012501991991MA1999990101381MD1909990+0031MW1211REMSYN004BUFR
0155830960999992014052212004-10910-037050FM-12+000599999V0200901N0021199999999002000199+02801+02271101521ADDAA124007031AY151061AY251061GA1031+012501081GE19MSL   +99999+99999GF103991031990012501991991KA1120N+02241MA1999990101451MD1909990+0041MW1211REMSYN004BUFR
0136830960999992014052218004-10910-037050FM-12+000599999V0200901N0026199999999002000199+02901+02301101431ADDAA101999990AZ101061AZ201061GA1031+012501081GE19MSL   +99999+99999GF103991031990012501991991MA1999990101361MD1909990+0041REMSYN004BUFR
0136830960999992014052300004-10910-037050FM-12+000599999V0200901N0026199999999002000199+02641+02161101451ADDAA101999990AZ101061AZ201061GA1031+012501081GE19MSL   +99999+99999GF103991031990012501991991MA1999990101381MD1909990+0001REMSYN004BUFR
0149830960999992014052312004-10910-037050FM-12+000599999V0200901N0026199999999002000199+02941+02231101551ADDAA101999990AZ101061AZ201061GA1031+012501081GE19MSL   +99999+99999GF103991031990012501991991KA1120N+02441MA1999990101481MD1909990+0031REMSYN004BUFR
0136830960999992014052318004-10910-037050FM-12+000599999V0200901N0026199999999002000199+02901+02271101231ADDAA101999990AZ101061AZ201061GA1021+012501081GE19MSL   +99999+99999GF102991021990012501991991MA1999990101161MD1909990-0201REMSYN004BUFR
0136830960999992014052400004-10910-037050FM-12+000599999V0200901N0015101250199002000199+02621+02211101461ADDAA101999990AZ101061AZ201061GA1061+012501061GE19MSL   +99999+99999GF106991061990012501991991MA1999990101391MD1909990-0011REMSYN004BUFR
0149830960999992014052412004-10910-037050FM-12+000599999V0200901N0015199999999002000199+02921+02241101471ADDAA101999990AZ101061AZ201061GA1031+012501081GE19MSL   +99999+99999GF103991031990012501991991KA1120N+02401MA1999990101401MD1909990-0081REMSYN004BUFR
0136830960999992014052418004-10910-037050FM-12+000599999V0200901N0015199999999002000199+02901+02221101191ADDAA101999990AZ101061AZ201061GA1021+012501081GE19MSL   +99999+99999GF102991021990012501991991MA1999990101121MD1909990-0041REMSYN004BUFR
0149830960999992014052512004-10910-037050FM-12+000599999V0200901N0015199999999002000199+02871+02301101621ADDAA101999990AZ101061AZ201061GA1031+012501081GE19MSL   +99999+99999GF103991031990012501991991KA1120N+02391MA1999990101551MD1909990+0151REMSYN004BUFR
0136830960999992014052518004-10910-037050FM-12+000599999V0200901N0015199999999002000199+02891+02221101341ADDAA101999990AZ101061AZ201061GA1011+012501081GE19MSL   +99999+99999GF101991011990012501991991MA1999990101271MD1909990+0151REMSYN004BUFR
0155830960999992014052612004-10910-037050FM-12+000599999V0200901N0015199999999002000199+02871+02371101771ADDAA124000631AY161061AY211061GA1021+012501081GE19MSL   +99999+99999GF102991021990012501991991KA1120N+02421MA1999990101701MD1909990+0151MW1161REMSYN004BUFR
0136830960999992014052618004-10910-037050FM-12+000599999V0200901N0010199999999002000199+02851+02331101421ADDAA101999990AZ101061AZ201061GA1011+012501081GE19MSL   +99999+99999GF101991011990012501991991MA1999990101351MD1909990+0081REMSYN004BUFR
0136830960999992014052700004-10910-037050FM-12+000599999V0200901N0015199999999002000199+02601+02211101551ADDAA101999990AZ101061AZ201061GA1021+012501061GE19MSL   +99999+99999GF102991021990012501991991MA1999990101481MD1909990-0041REMSYN004BUFR
0149830960999992014052712004-10910-037050FM-12+000599999V0200901N0015199999999002000199+02871+02251101701ADDAA101999990AZ101061AZ201061GA1021+012501081GE19MSL   +99999+99999GF102991021990012501991991KA1120N+02421MA1999990101631MD1909990-0071REMSYN004BUFR
0136830960999992014052718004-10910-037050FM-12+000599999V0200901N0015199999999002000199+02871+02231101341ADDAA101999990AZ101061AZ201061GA1011+012501081GE19MSL   +99999+99999GF101991011990012501991991MA1999990101271MD1909990+0081REMSYN004BUFR
0149830960999992014052812004-10910-037050FM-12+000599999V0200901N0026101250199002000199+02771+02401101531ADDAA101999990AZ101061AZ201061GA1061+012501081GE19MSL   +99999+99999GF106991061990012501991991KA1120N+02391MA1999990101461MD1909990-0171REMSYN004BUFR
0149830960999992014052912004-10910-037050FM-12+000599999V0200901N0026199999999002000199+02951+02231101551ADDAA101999990AZ101061AZ201061GA1031+012501081GE19MSL   +99999+99999GF103991031990012501991991KA1120N+02471MA1999990101481MD1909990+0021REMSYN004BUFR
0122830960999992014052918004-10910-037050FM-12+000599999V0200901N0026199999999002000199+02971+02331101231ADDAA101999990AZ101061AZ201061GA1031+012501081GE19MSL   +99999+99999GF103991031990012501991991MA1999990101161REMSYN004BUFR
0136830960999992014053000004-10910-037050FM-12+000599999V0200901N0015199999999002000199+02641+02291101451ADDAA101999990AZ101061AZ201061GA1031+012501061GE19MSL   +99999+99999GF103991031990012501991991MA1999990101381MD1909990+0081REMSYN004BUFR
0149830960999992014053012004-10910-037050FM-12+000599999V0200901N0021199999999002000199+02841+02191101571ADDAA101999990AZ101061AZ201061GA1021+012501081GE19MSL   +99999+99999GF102991021990012501991991KA1120N+02411MA1999990101501MD1909990+0021REMSYN004BUFR
0136830960999992014053018004-10910-037050FM-12+000599999V0200901N0026199999999002000199+02941+02261101271ADDAA101999990AZ101061AZ201061GA1021+012501081GE19MSL   +99999+99999GF102991021990012501991991MA1999990101201MD1909990+0041REMSYN004BUFR
0136830960999992014053100004-10910-037050FM-12+000599999V0200901N0026199999999002000199+02641+02181101511ADDAA101999990AZ101061AZ201061GA1031+012501081GE19MSL   +99999+99999GF103991031990012501991991MA1999990101441MD1909990+0061REMSYN004BUFR
0155830960999992014053112004-10910-037050FM-12+000599999V0200901N0026199999999002000199+02841+02241101521ADDAA124000231AY101061AY251061GA1031+012501081GE19MSL   +99999+99999GF103991031990012501991991KA1120N+02301MA1999990101451MD1909990-0051MW1211REMSYN004BUFR
0136830960999992014053118004-10910-037050FM-12+000599999V0200901N0026199999999002000199+02971+02311101271ADDAA101999990AZ101061AZ201061GA1021+012501081GE19MSL   +99999+99999GF102991021990012501991991MA1999990101201MD1909990+0001REMSYN004BUFR
0155830960999992014060112004-10910-037050FM-12+000599999V0201801N0015101250199002000199+02391+02231101561ADDAA124011031AY161061AY261061GA1061+012501061GE19MSL   +99999+99999GF106991061990012501991991KA1120N+02201MA1999990101491MD1909990+0041MW1211REMSYN004BUFR
0142830960999992014060118004-10910-037050FM-12+000599999V0201801N0015101250199002000199+02601+02311101421ADDAA106005031AY161061AY261061GA1051+012501061GE19MSL   +99999+99999GF105991051990012501991991MA1999990101251MD1909990+0151MW1211REMSYN004BUFR
0149830960999992014060212004-10910-037050FM-12+000599999V0200901N0021199999999002000199+02701+02201101371ADDAA124005031AZ101061AZ201061GA1031+012501081GE19MSL   +99999+99999GF103991031990012501991991KA1120N+02221MA1999990101301MD1909990-0191REMSYN004BUFR
0136830960999992014060218004-10910-037050FM-12+000599999V0200901N0021199999999002000199+02801+02201101271ADDAA101999990AZ101061AZ201061GA1031+012501081GE19MSL   +99999+99999GF103991031990012501991991MA1999990101201MD1909990-0151REMSYN004BUFR
0136830960999992014060300004-10910-037050FM-12+000599999V0200901N0026199999999002000199+02621+02141101211ADDAA101999990AZ101061AZ201061GA1031+012501061GE19MSL   +99999+99999GF103991031990012501991991MA1999990101241MD1909990-0061REMSYN004BUFR
0149830960999992014060312004-10910-037050FM-12+000599999V0200901N0021199999999002000199+02721+02121101291ADDAA101999990AZ101061AZ201061GA1031+012501081GE19MSL   +99999+99999GF103991031990012501991991KA1120N+02201MA1999990101221MD1909990-0081REMSYN004BUFR
0136830960999992014060318004-10910-037050FM-12+000599999V0200901N0010199999999002000199+02821+02201101171ADDAA101999990AZ101061AZ201061GA1021+012501081GE19MSL   +99999+99999GF102991021990012501991991MA1999990101101MD1909990-0101REMSYN004BUFR
0136830960999992014060400004-10910-037050FM-12+000599999V0200901N0026199999999002000199+02641+02161101191ADDAA101999990AZ101061AZ201061GA1031+012501081GE19MSL   +99999+99999GF103991031990012501991991MA1999990101121MD1909990-0121REMSYN004BUFR
0149830960999992014060412004-10910-037050FM-12+000599999V0200901N0021199999999002000199+02771+02161101421ADDAA101999990AZ101061AZ201061GA1031+012501081GE19MSL   +99999+99999GF103991031990012501991991KA1120N+02201MA1999990101351MD1909990+0131REMSYN004BUFR
0136830960999992014060418004-10910-037050FM-12+000599999V0200901N0026199999999002000199+02901+02251101301ADDAA101999990AZ101061AZ201061GA1021+012501081GE19MSL   +99999+99999GF102991021990012501991991MA1999990101231MD1909990+0131REMSYN004BUFR
0136830960999992014060500004-10910-037050FM-12+000599999V0200901N0026199999999002000199+02691+02241101291ADDAA101999990AZ101061AZ201061GA1031+012501081GE19MSL   +99999+99999GF103991031990012501991991MA1999990101221MD1909990+0101REMSYN004BUFR
0155830960999992014060512004-10910-037050FM-12+000599999V0200901N0021199999999002000199+02821+02201101471ADDAA124000631AY151061AY251061GA1021+012501081GE19MSL   +99999+99999GF102991021990012501991991KA1120N+02351MA1999990101401MD1909990+0051MW1201REMSYN004BUFR
0136830960999992014060518004-10910-037050FM-12+000599999V0200901N0026199999999002000199+02951+02311101331ADDAA101999990AZ101061AZ201061GA1021+012501081GE19MSL   +99999+99999GF102991021990012501991991MA1999990101261MD1909990+0031REMSYN004BUFR
0136830960999992014060600004-10910-037050FM-12+000599999V0200901N0026199999999002000199+02701+02211101321ADDAA101999990AZ101061AZ201061GA1031+012501081GE19MSL   +99999+99999GF103991031990012501991991MA1999990101251MD1909990+0031REMSYN004BUFR
0155830960999992014060612004-10910-037050FM-12+000599999V0200901N0026199999999002000199+02791+02221101421ADDAA124000631AY151061AY251061GA1031+012501081GE19MSL   +99999+99999GF103991031990012501991991KA1120N+02351MA1999990101351MD1909990-0051MW1201REMSYN004BUFR
0136830960999992014060618004-10910-037050FM-12+000599999V0200901N0026199999999002000199+02841+02221101301ADDAA101999990AZ101061AZ201061GA1021+012501081GE19MSL   +99999+99999GF102991021990012501991991MA1999990101231MD1909990-0031REMSYN004BUFR
0136830960999992014060700004-10910-037050FM-12+000599999V0200901N0026199999999002000199+02691+02201101311ADDAA101999990AZ101061AZ201061GA1031+012501081GE19MSL   +99999+99999GF103991031990012501991991MA1999990101241MD1909990-0011REMSYN004BUFR
0149830960999992014060712004-10910-037050FM-12+000599999V0200901N0026199999999002000199+02841+02221101421ADDAA101999990AZ101061AZ201061GA1021+012501081GE19MSL   +99999+99999GF102991021990012501991991KA1120N+02371MA1999990101351MD1909990+0001REMSYN004BUFR
0136830960999992014060718004-10910-037050FM-12+000599999V0200901N0026199999999002000199+02941+02221101311ADDAA101999990AZ101061AZ201061GA1021+012501081GE19MSL   +99999+99999GF102991021990012501991991MA1999990101241MD1909990+0011REMSYN004BUFR
0149830960999992014060812004-10910-037050FM-12+000599999V0200901N0026199999999002000199+02821+02221101391ADDAA101999990AZ101061AZ201061GA1031+012501081GE19MSL   +99999+99999GF103991031990012501991991KA1120N+02331MA1999990101321MD1909990-0021REMSYN004BUFR
0136830960999992014060818004-10910-037050FM-12+000599999V0200901N0026199999999002000199+02941+02311101291ADDAA101999990AZ101061AZ201061GA1021+012501081GE19MSL   +99999+99999GF102991021990012501991991MA1999990101221MD1909990-0021REMSYN004BUFR
0149830960999992014060912004-10910-037050FM-12+000599999V0202701N0010199999999002000199+02691+02371101701ADDAA101999990AZ101061AZ201061GA1021+012501081GE19MSL   +99999+99999GF102991021990012501991991KA1120N+02421MA1999990101631MD1909990+0311REMSYN004BUFR
0149830960999992014072612004-10910-037050FM-12+000599999V0200901N0015101250199002000199+02671+02311101841ADDAA101999990AZ101061AZ201061GA1051+012501081GE19MSL   +99999+99999GF105991051990012501991991KA1120N+02291MA1999990101771MD1909990+0051REMSYN004BUFR
0136830960999992014091218004-10910-037050FM-12+000599999V0200901N0015199999999002000199+02791+02271101441ADDAA101999990AZ101061AZ201061GA1021+012501081GE19MSL   +99999+99999GF102991021990012501991991MA1999990101371MD1909990-0071REMSYN004BUFR
0155830960999992014101212004-10910-037050FM-12+000599999V0200901N0026199999999002000199+02701+02201101771ADDAA124001031AY151061AY251061GA1031+012501081GE19MSL   +99999+99999GF103991031990012501991991KA1120N+02241MA1999990101751MD1909990+0051MW1201REMSYN004BUFR
0149830960999992014101312004-10910-037050FM-12+000599999V0201401N0015199999999002000199+02791+02381101881ADDAA101999990AZ101061AZ201061GA1031+012501081GE19MSL   +99999+99999GF103991031990012501991991KA1120N+02281MA1999990101811MD1909990+0111REMSYN004BUFR
0136830960999992014111118004-10910-037050FM-12+000599999V0200901N0031199999999002000199+02991+02291101171ADDAA101999999AZ101061AZ201061GA1031+012501081GE19MSL   +99999+99999GF103991031999012501999999MA1999999101101MD1999999+0261REMSYN004BUFR
0136830960999992014122318004-10910-037050FM-12+000599999V0200901N0010101250199002000199+02871+02321101331ADDAA101999999AZ101061AZ201061GA1061+012501081GE19MSL   +99999+99999GF106991061999012501999999MA1999999101261MD1999999+0131REMSYN004BUFR
