0181832420999992014010112004-12560-041380FM-12+043999999V0201401N0010100450199004000199+02321+02001101541ADDAA101999990AZ101061AZ201061GA1081+004501071GA2991+999991101GA3991+999991101GE19MSL   +99999+99999GF108991081990004501991991KA1120N+01671MA1999990096591MD1909990-0081REMSYN004BUFR
0136832420999992014010118004-12560-041380FM-12+043999999V0203601N0015100450199010000199+03021+01861100971ADDAA101999990AZ101061AZ201061GA1051+004501071GE19MSL   +99999+99999GF105991051990004501991991MA1999990096101MD1909990-0131REMSYN004BUFR
0149832420999992014010212004-12560-041380FM-12+043999999V0202701N0015100450199010000199+02391+01971101381ADDAA101999990AZ101061AZ201061GA1071+004501071GE19MSL   +99999+99999GF107991071990004501991991KA1120N+01801MA1999990096461MD1909990-0131REMSYN004BUFR
0136832420999992014010218004-12560-041380FM-12+043999999V0203601N0010100450199010000199+03091+01801100871ADDAA101999990AZ101061AZ201061GA1061+004501071GE19MSL   +99999+99999GF106991061990004501991991MA1999990096021MD1909990-0091REMSYN004BUFR
0149832420999992014010312004-12560-041380FM-12+043999999V0200901N0015100450199010000199+02401+01861101491ADDAA101999990AZ101061AZ201061GA1071+004501071GE19MSL   +99999+99999GF107991071990004501991991KA1120N+01731MA1999990096581MD1909990+0121REMSYN004BUFR
0136832420999992014010318004-12560-041380FM-12+043999999V0201801N0021100450199010000199+03091+01701100961ADDAA101999990AZ101061AZ201061GA1061+004501071GE19MSL   +99999+99999GF106991061990004501991991MA1999990096091MD1909990+0071REMSYN004BUFR
0098832420999992014010400004-12560-041380FM-12+043999999V0201801N0015122000199002000199+02491+01841101311ADDAA101999990AZ101061AZ201061GF100991999999999999999999MA1999990096401MD1909990+0161REMSYN004BUFR
0155832420999992014010412004-12560-041380FM-12+043999999V0201801N0015100450199010000199+02541+01901101581ADDAA124000131AY151061AY221061GA1061+004501071GE19MSL   +99999+99999GF106991061990004501991991KA1120N+01891MA1999990096681MD1909990+0101MW1021REMSYN004BUFR
0136832420999992014010418004-12560-041380FM-12+043999999V0201801N0015199999999010000199+03191+01821101041ADDAA101999990AZ101061AZ201061GA1041+004501081GE19MSL   +99999+99999GF104991041990004501991991MA1999990096191MD1909990+0101REMSYN004BUFR
0155832420999992014010512004-12560-041380FM-12+043999999V0201401N0005100450199010000199+02341+01991101591ADDAA124000131AY151061AY221061GA1071+004501071GE19MSL   +99999+99999GF107991071990004501991991KA1120N+01831MA1999990096691MD1909990+0011MW1201REMSYN004BUFR
0136832420999992014010518004-12560-041380FM-12+043999999V0201801N0026100450199010000199+03071+01681101181ADDAA101999990AZ101061AZ201061GA1061+004501071GE19MSL   +99999+99999GF106991061990004501991991MA1999990096311MD1909990+0121REMSYN004BUFR
0155832420999992014010612004-12560-041380FM-12+043999999V0200901N0015100450199010000199+02471+01851101591ADDAA124000131AY151061AY221061GA1061+004501071GE19MSL   +99999+99999GF106991061990004501991991KA1120N+01671MA1999990096681MD1909990-0011MW1021REMSYN004BUFR
0136832420999992014010618004-12560-041380FM-12+043999999V0201801N0021100450199010000199+03051+01581101111ADDAA101999990AZ101061AZ201061GA1061+004501071GE19MSL   +99999+99999GF106991061990004501991991MA1999990096341MD1909990-0071REMSYN004BUFR
0168832420999992014010700004-12560-041380FM-12+043999999V0202301N0021100450199002000199+02441+01661101371ADDAA101999990AZ101061AZ201061GA1081+004501071GA2991+999991101GA3991+999991101GE19MSL   +99999+99999GF108991081990004501991991MA1999990096461MD1909990+0041REMSYN004BUFR
0155832420999992014010712004-12560-041380FM-12+043999999V0201801N0015100450199010000199+02401+01841101491ADDAA124000231AY151061AY221061GA1071+004501071GE19MSL   +99999+99999GF107991071990004501991991KA1120N+01811MA1999990096571MD1909990-0111MW1021REMSYN004BUFR
0136832420999992014010718004-12560-041380FM-12+043999999V0201801N0010100450199010000199+03021+01731101051ADDAA101999990AZ101061AZ201061GA1071+004501071GE19MSL   +99999+99999GF107991071990004501991991MA1999990096181MD1909990-0061REMSYN004BUFR
0168832420999992014010800004-12560-041380FM-12+043999999V0201801N0021100450199002000199+02621+01951101311ADDAA101999990AZ101061AZ201061GA1081+004501071GA2991+999991101GA3991+999991101GE19MSL   +99999+99999GF108991081990004501991991MA1999990096411MD1909990-0051REMSYN004BUFR
0149832420999992014010812004-12560-041380FM-12+043999999V0201801N0015100450199010000199+02421+01861101471ADDAA101999990AZ101061AZ201061GA1071+004501071GE19MSL   +99999+99999GF107991071990004501991991KA1120N+01811MA1999990096571MD1909990+0001REMSYN004BUFR
0136832420999992014010818004-12560-041380FM-12+043999999V0201801N0015100450199010000199+02991+01711100961ADDAA101999990AZ101061AZ201061GA1071+004501071GE19MSL   +99999+99999GF107991071990004501991991MA1999990096101MD1909990-0081REMSYN004BUFR
0136832420999992014010900004-12560-041380FM-12+043999999V0201801N0010100450199002000199+02591+01791101271ADDAA101999990AZ101061AZ201061GA1071+004501071GE19MSL   +99999+99999GF107991071990004501991991MA1999990096321MD1909990-0091REMSYN004BUFR
0155832420999992014010912004-12560-041380FM-12+043999999V0200501N0010100450199010000199+02341+02051101361ADDAA124000131AY151061AY221061GA1071+004501071GE19MSL   +99999+99999GF107991071990004501991991KA1120N+01801MA1999990096461MD1909990-0111MW1201REMSYN004BUFR
0142832420999992014010918004-12560-041380FM-12+043999999V0201801N0010100450199010000199+02971+01891100861ADDAA106002031AY151061AY221061GA1071+004501071GE19MSL   +99999+99999GF107991071990004501991991MA1999990096011MD1909990-0091MW1031REMSYN004BUFR
0168832420999992014011000004-12560-041380FM-12+043999999V0201801N0015100450199002000199+02421+01881101141ADDAA101999990AZ101061AZ201061GA1081+004501061GA2991+999991101GA3991+999991101GE19MSL   +99999+99999GF108991081990004501991991MA1999990096231MD1909990-0091REMSYN004BUFR
0149832420999992014011012004-12560-041380FM-12+043999999V0201401N0015100450199010000199+02391+01971101581ADDAA124002031AZ101061AZ201061GA1071+004501071GE19MSL   +99999+99999GF107991071990004501991991KA1120N+01861MA1999990096651MD1909990+0201REMSYN004BUFR
0136832420999992014011018004-12560-041380FM-12+043999999V0200901N0010100450199010000199+03051+01961100981ADDAA101999990AZ101061AZ201061GA1071+004501071GE19MSL   +99999+99999GF107991071990004501991991MA1999990096131MD1909990+0121REMSYN004BUFR
0168832420999992014011100004-12560-041380FM-12+043999999V0201801N0010100450199002000199+02591+01941101291ADDAA101999990AZ101061AZ201061GA1081+004501071GA2991+999991101GA3991+999991101GE19MSL   +99999+99999GF108991081990004501991991MA1999990096391MD1909990+0161REMSYN004BUFR
0187832420999992014011112004-12560-041380FM-12+043999999V0201801N0015100450199004000199+02241+02141101591ADDAA124001031AY161061AY221061GA1081+004501071GA2991+999991101GA3991+999991101GE19MSL   +99999+99999GF108991081990004501991991KA1120N+01831MA1999990096661MD1909990+0011MW1211REMSYN004BUFR
0142832420999992014011118004-12560-041380FM-12+043999999V0201801N0010100450199010000199+02871+02161101151ADDAA106001031AY161061AY221061GA1071+004501071GE19MSL   +99999+99999GF107991071990004501991991MA1999990096281MD1909990+0151MW1021REMSYN004BUFR
0187832420999992014011212004-12560-041380FM-12+043999999V0201801N0015100450199004000199+02121+02111101701ADDAA124004031AY151061AY221061GA1081+004501071GA2991+999991101GA3991+999991101GE19MSL   +99999+99999GF108991081990004501991991KA1120N+01731MA1999990096751MD1909990+0091MW1211REMSYN004BUFR
0142832420999992014011218004-12560-041380FM-12+043999999V0201801N0010100450199010000199+02701+02151101351ADDAA106000131AY151061AY221061GA1071+004501071GE19MSL   +99999+99999GF107991071990004501991991MA1999990096441MD1909990+0161MW1031REMSYN004BUFR
0187832420999992014011312004-12560-041380FM-12+043999999V0201801N0015100450199004000199+02291+02131101301ADDAA124001031AY161061AY221061GA1081+004501071GA2991+999991101GA3991+999991101GE19MSL   +99999+99999GF108991081990004501991991KA1120N+01731MA1999990096381MD1909990-0371MW1201REMSYN004BUFR
0136832420999992014011318004-12560-041380FM-12+043999999V0201801N0015100450199010000199+03021+02041101351ADDAA101999990AZ101061AZ201061GA1071+004501071GE19MSL   +99999+99999GF107991071990004501991991MA1999990096471MD1909990+0031REMSYN004BUFR
0168832420999992014011400004-12560-041380FM-12+043999999V0201801N0015100450199002000199+02641+02001101711ADDAA101999990AZ101061AZ201061GA1081+004501081GA2991+999991101GA3991+999991031GE19MSL   +99999+99999GF108991081990004501991991MA1999990096781MD1909990+0121REMSYN004BUFR
0149832420999992014011412004-12560-041380FM-12+043999999V0201801N0031100450199010000199+02421+01901101731ADDAA101999990AZ101061AZ201061GA1071+004501071GE19MSL   +99999+99999GF107991071990004501991991KA1120N+01851MA1999990096821MD1909990+0441REMSYN004BUFR
0136832420999992014011418004-12560-041380FM-12+043999999V0200901N0015100450199010000199+03121+01861101221ADDAA101999990AZ101061AZ201061GA1061+004501071GE19MSL   +99999+99999GF106991061990004501991991MA1999990096361MD1909990-0111REMSYN004BUFR
0152832420999992014011500004-12560-041380FM-12+043999999V0202701N0010199999999002000199+02521+01861101651ADDAA101999990AZ101061AZ201061GA1041+004501071GA2991+999991031GE19MSL   +99999+99999GF108991041990004501991991MA1999990096741MD1909990-0041REMSYN004BUFR
0181832420999992014011512004-12560-041380FM-12+043999999V0202301N0005100450199010000199+02401+01971101561ADDAA101999990AZ101061AZ201061GA1081+004501071GA2991+999991101GA3991+999991101GE19MSL   +99999+99999GF108991081990004501991991KA1120N+01871MA1999990096651MD1909990-0171REMSYN004BUFR
0168832420999992014011518004-12560-041380FM-12+043999999V0201801N0015100450199010000199+02921+02061101201ADDAA101999990AZ101061AZ201061GA1081+004501071GA2991+999991101GA3991+999991101GE19MSL   +99999+99999GF108991081990004501991991MA1999990096331MD1909990-0031REMSYN004BUFR
0136832420999992014011600004-12560-041380FM-12+043999999V0200501N0015100450199002000199+02441+02111101511ADDAA101999990AZ101061AZ201061GA1061+004501071GE19MSL   +99999+99999GF106991061990004501991991MA1999990096591MD1909990-0151REMSYN004BUFR
0187832420999992014011612004-12560-041380FM-12+043999999V0201801N0015100450199004000199+02201+02081101661ADDAA124000131AY151061AY221061GA1081+004501071GA2991+999991101GA3991+999991101GE19MSL   +99999+99999GF108991081990004501991991KA1120N+01771MA1999990096711MD1909990+0061MW1201REMSYN004BUFR
0136832420999992014011618004-12560-041380FM-12+043999999V0201801N0015100450199010000199+03051+01991101101ADDAA101999990AZ101061AZ201061GA1061+004501071GE19MSL   +99999+99999GF106991061990004501991991MA1999990096241MD1909990-0091REMSYN004BUFR
0168832420999992014011700004-12560-041380FM-12+043999999V0203601N0010100450199002000199+02601+02051101381ADDAA101999990AZ101061AZ201061GA1081+004501071GA2991+999991101GA3991+999991101GE19MSL   +99999+99999GF108991081990004501991991MA1999990096461MD1909990-0131REMSYN004BUFR
0149832420999992014011712004-12560-041380FM-12+043999999V0203601N0015100450199010000199+02391+01861101591ADDAA101999990AZ101061AZ201061GA1071+004501071GE19MSL   +99999+99999GF107991071990004501991991KA1120N+01851MA1999990096681MD1909990-0031REMSYN004BUFR
0152832420999992014011718004-12560-041380FM-12+043999999V0200901N0015199999999010000199+03041+01881101151ADDAA101999990AZ101061AZ201061GA1021+004501081GA2991+999991021GE19MSL   +99999+99999GF108991021990004501991991MA1999990096291MD1909990+0051REMSYN004BUFR
0152832420999992014011800004-12560-041380FM-12+043999999V0203601N0015199999999002000199+02521+01931101231ADDAA101999990AZ101061AZ201061GA1011+004501071GA2991+999991031GE19MSL   +99999+99999GF102991011990004501991991MA1999990096331MD1909990-0131REMSYN004BUFR
0149832420999992014011812004-12560-041380FM-12+043999999V0201801N0010100450199004000199+02521+02021101461ADDAA101999990AZ101061AZ201061GA1071+004501071GE19MSL   +99999+99999GF107991071990004501991991KA1120N+01871MA1999990096561MD1909990-0121REMSYN004BUFR
0136832420999992014011818004-12560-041380FM-12+043999999V0201401N0031100450199010000199+03051+01991101051ADDAA101999990AZ101061AZ201061GA1071+004501071GE19MSL   +99999+99999GF107991071990004501991991MA1999990096191MD1909990-0101REMSYN004BUFR
0181832420999992014011912004-12560-041380FM-12+043999999V0200501N0015100450199004000199+02471+02111101461ADDAA101999990AZ101061AZ201061GA1081+004501071GA2991+999991101GA3991+999991101GE19MSL   +99999+99999GF108991081990004501991991KA1120N+01991MA1999990096561MD1909990+0001REMSYN004BUFR
0136832420999992014011918004-12560-041380FM-12+043999999V0201801N0015100450199010000199+03221+01961100921ADDAA101999990AZ101061AZ201061GA1071+004501071GE19MSL   +99999+99999GF107991071990004501991991MA1999990096101MD1909990-0091REMSYN004BUFR
0149832420999992014012012004-12560-041380FM-12+043999999V0201801N0015100450199010000199+02521+02021101331ADDAA101999990AZ101061AZ201061GA1071+004501071GE19MSL   +99999+99999GF107991071990004501991991KA1120N+01961MA1999990096441MD1909990-0121REMSYN004BUFR
0168832420999992014012018004-12560-041380FM-12+043999999V0200901N0015100450199010000199+02991+02081101041ADDAA101999990AZ101061AZ201061GA1081+004501071GA2991+999991101GA3991+999991101GE19MSL   +99999+99999GF108991081990004501991991MA1999990096191MD1909990+0091REMSYN004BUFR
0168832420999992014012100004-12560-041380FM-12+043999999V0201801N0015100450199002000199+02541+02061101341ADDAA101999990AZ101061AZ201061GA1081+004501071GA2991+999991101GA3991+999991101GE19MSL   +99999+99999GF108991081990004501991991MA1999990096451MD1909990+0301REMSYN004BUFR
0155832420999992014012112004-12560-041380FM-12+043999999V0201801N0010100450199010000199+02371+02071101581ADDAA124000131AY121061AY221061GA1071+004501071GE19MSL   +99999+99999GF107991071990004501991991KA1120N+01881MA1999990096661MD1909990+0221MW1201REMSYN004BUFR
0168832420999992014012118004-12560-041380FM-12+043999999V0201801N0010100450199010000199+03021+01891101111ADDAA101999990AZ101061AZ201061GA1081+004501071GA2991+999991101GA3991+999991101GE19MSL   +99999+99999GF108991081990004501991991MA1999990096261MD1909990+0071REMSYN004BUFR
0174832420999992014012200004-12560-041380FM-12+043999999V0201801N0026100450199002000199+02601+02051101501ADDAA106999990AY121061AY221061GA1081+004501071GA2991+999991101GA3991+999991101GE19MSL   +99999+99999GF108991081990004501991991MA1999990096591MD1909990+0141MW1201REMSYN004BUFR
0187832420999992014012212004-12560-041380FM-12+043999999V0201801N0010100450199004000199+02391+02191101601ADDAA124001031AY151061AY221061GA1081+004501071GA2991+999991101GA3991+999991101GE19MSL   +99999+99999GF108991081990004501991991KA1120N+01871MA1999990096691MD1909990+0031MW1201REMSYN004BUFR
0136832420999992014012218004-12560-041380FM-12+043999999V0201801N0015100450199010000199+02991+02081101121ADDAA101999990AZ101061AZ201061GA1071+004501071GE19MSL   +99999+99999GF107991071990004501991991MA1999990096261MD1909990+0001REMSYN004BUFR
0168832420999992014012300004-12560-041380FM-12+043999999V0201801N0015100450199002000199+02521+02021101621ADDAA101999990AZ101061AZ201061GA1081+004501071GA2991+999991101GA3991+999991101GE19MSL   +99999+99999GF108991081990004501991991MA1999990096701MD1909990+0111REMSYN004BUFR
0149832420999992014012312004-12560-041380FM-12+043999999V0200901N0010100450199004000199+02451+01991101591ADDAA101999990AZ101061AZ201061GA1071+004501071GE19MSL   +99999+99999GF107991071990004501991991KA1120N+01921MA1999990096681MD1909990-0011REMSYN004BUFR
0136832420999992014012318004-12560-041380FM-12+043999999V0201801N0015100450199010000199+03191+01931101021ADDAA101999990AZ101061AZ201061GA1061+004501071GE19MSL   +99999+99999GF106991061990004501991991MA1999990096181MD1909990-0081REMSYN004BUFR
0136832420999992014012400004-12560-041380FM-12+043999999V0201801N0010100450199002000199+02601+02031101361ADDAA101999990AZ101061AZ201061GA1071+004501071GE19MSL   +99999+99999GF107991071990004501991991MA1999990096471MD1909990-0231REMSYN004BUFR
0165832420999992014012412004-12560-041380FM-12+043999999V0201801N0031100450199010000199+02441+01921101461ADDAA101999990AZ101061AZ201061GA1061+004501071GA2991+999991031GE19MSL   +99999+99999GF106991061990004501991991KA1120N+01781MA1999990096561MD1909990-0121REMSYN004BUFR
0136832420999992014012418004-12560-041380FM-12+043999999V0201801N0015100450199010000199+02971+01691100991ADDAA101999990AZ101061AZ201061GA1071+004501071GE19MSL   +99999+99999GF107991071990004501991991MA1999990096121MD1909990-0061REMSYN004BUFR
0098832420999992014012500004-12560-041380FM-12+043999999V0200901N0005122000199002000199+02401+01791101141ADDAA101999990AZ101061AZ201061GF100991999999999999999999MA1999990096241MD1909990-0231REMSYN004BUFR
0149832420999992014012512004-12560-041380FM-12+043999999V0201801N0015100450199010000199+02441+01991101501ADDAA101999990AZ101061AZ201061GA1071+004501071GE19MSL   +99999+99999GF107991071990004501991991KA1120N+01791MA1999990096571MD1909990+0011REMSYN004BUFR
0136832420999992014012518004-12560-041380FM-12+043999999V0201801N0015100450199010000199+03071+02071100891ADDAA101999990AZ101061AZ201061GA1071+004501071GE19MSL   +99999+99999GF107991071990004501991991MA1999990096031MD1909990-0091REMSYN004BUFR
0149832420999992014012612004-12560-041380FM-12+043999999V0201401N0015100450199010000199+02391+01861101601ADDAA101999990AZ101061AZ201061GA1071+004501071GE19MSL   +99999+99999GF107991071990004501991991KA1120N+01741MA1999990096671MD1909990+0101REMSYN004BUFR
0136832420999992014012618004-12560-041380FM-12+043999999V0201801N0021100450199010000199+03091+01701101211ADDAA101999990AZ101061AZ201061GA1061+004501071GE19MSL   +99999+99999GF106991061990004501991991MA1999990096331MD1909990+0301REMSYN004BUFR
0165832420999992014012712004-12560-041380FM-12+043999999V0201401N0041100450199010000199+02651+01851101571ADDAA101999990AZ101061AZ201061GA1061+004501071GA2991+999991031GE19MSL   +99999+99999GF107991061990004501991991KA1120N+01731MA1999990096681MD1909990+0011REMSYN004BUFR
0142832420999992014012718004-12560-041380FM-12+043999999V0201801N0015100450199010000199+02821+02091101151ADDAA101999990AY121061AY221061GA1071+004501071GE19MSL   +99999+99999GF107991071990004501991991MA1999990096251MD1909990-0081MW1291REMSYN004BUFR
0142832420999992014012800004-12560-041380FM-12+043999999V0201801N0010100450199002000199+02271+02231101221ADDAA106007031AY191061AY261061GA1071+004501071GE19MSL   +99999+99999GF107991071990004501991991MA1999990096321MD1909990-0151MW1031REMSYN004BUFR
0181832420999992014012812004-12560-041380FM-12+043999999V0201801N0015100450199010000199+02391+01911101661ADDAA124007031AZ101061AZ201061GA1081+004501071GA2991+999991101GA3991+999991101GE19MSL   +99999+99999GF108991081990004501991991KA1120N+01611MA1999990096711MD1909990+0031REMSYN004BUFR
0136832420999992014012818004-12560-041380FM-12+043999999V0201801N0026100450199010000199+02921+01921101191ADDAA101999990AZ101061AZ201061GA1061+004501071GE19MSL   +99999+99999GF106991061990004501991991MA1999990096291MD1909990+0041REMSYN004BUFR
0142832420999992014012900004-12560-041380FM-12+043999999V0201401N0015100450199002000199+02501+02001101491ADDAA106000331AY161061AY221061GA1071+004501071GE19MSL   +99999+99999GF107991071990004501991991MA1999990096571MD1909990+0251MW1031REMSYN004BUFR
0149832420999992014012912004-12560-041380FM-12+043999999V0201801N0015100450199010000199+02221+01841101651ADDAA124000331AZ101061AZ201061GA1071+004501071GE19MSL   +99999+99999GF107991071990004501991991KA1120N+01601MA1999990096721MD1909990+0011REMSYN004BUFR
0136832420999992014012918004-12560-041380FM-12+043999999V0201801N0015100450199010000199+03041+01851101071ADDAA101999990AZ101061AZ201061GA1071+004501071GE19MSL   +99999+99999GF107991071990004501991991MA1999990096181MD1909990-0111REMSYN004BUFR
0168832420999992014013000004-12560-041380FM-12+043999999V0201801N0051100450199002000199+02541+02171101411ADDAA101999990AZ101061AZ201061GA1081+004501071GA2991+999991101GA3991+999991101GE19MSL   +99999+99999GF108991081990004501991991MA1999990096491MD1909990-0081REMSYN004BUFR
0155832420999992014013012004-12560-041380FM-12+043999999V0201801N0015100450199010000199+02241+02161101641ADDAA124003031AY161061AY221061GA1071+004501071GE19MSL   +99999+99999GF107991071990004501991991KA1120N+01791MA1999990096711MD1909990-0011MW1201REMSYN004BUFR
0152832420999992014013018004-12560-041380FM-12+043999999V0201801N0021100450199010000199+02971+02011101091ADDAA101999990AZ101061AZ201061GA1051+004501071GA2991+999991001GE19MSL   +99999+99999GF107991051990004501991991MA1999990096211MD1909990+0031REMSYN004BUFR
0168832420999992014013100004-12560-041380FM-12+043999999V0201801N0031100450199002000199+02541+02041101531ADDAA101999990AZ101061AZ201061GA1081+004501071GA2991+999991101GA3991+999991101GE19MSL   +99999+99999GF108991081990004501991991MA1999990096601MD1909990+0111REMSYN004BUFR
0187832420999992014013112004-12560-041380FM-12+043999999V0201801N0015100450199004000199+02271+01901101651ADDAA124000431AY151061AY221061GA1081+004501071GA2991+999991101GA3991+999991101GE19MSL   +99999+99999GF108991081990004501991991KA1120N+01651MA1999990096721MD1909990-0011MW1021REMSYN004BUFR
0152832420999992014013118004-12560-041380FM-12+043999999V0201801N0015199999999010000199+03091+01801101051ADDAA101999990AZ101061AZ201061GA1041+004501081GA2991+999991001GE19MSL   +99999+99999GF107991041990004501991991MA1999990096171MD1909990-0041REMSYN004BUFR
0168832420999992014020100004-12560-041380FM-12+043999999V0201801N0046100450199002000199+02601+02051101411ADDAA101999990AZ101061AZ201061GA1081+004501071GA2991+999991101GA3991+999991101GE19MSL   +99999+99999GF108991081990004501991991MA1999990096501MD1909990-0101REMSYN004BUFR
0187832420999992014020112004-12560-041380FM-12+043999999V0201801N0010100450199004000199+02071+02051101531ADDAA124006031AY151061AY221061GA1081+004501071GA2991+999991101GA3991+999991101GE19MSL   +99999+99999GF108991081990004501991991KA1120N+01671MA1999990096591MD1909990-0131MW1211REMSYN004BUFR
0168832420999992014020118004-12560-041380FM-12+043999999V0200901N0015100450199010000199+02601+01831101171ADDAA101999990AZ101061AZ201061GA1081+004501071GA2991+999991101GA3991+999991101GE19MSL   +99999+99999GF108991081990004501991991MA1999990096251MD1909990+0081REMSYN004BUFR
0155832420999992014020212004-12560-041380FM-12+043999999V0201801N0015100450199010000199+02341+02011101451ADDAA124000231AY151061AY221061GA1061+004501071GE19MSL   +99999+99999GF106991061990004501991991KA1120N+01611MA1999990096521MD1909990-0071MW1031REMSYN004BUFR
0136832420999992014020218004-12560-041380FM-12+043999999V0201801N0015100450199010000199+03041+01851101001ADDAA101999990AZ101061AZ201061GA1061+004501071GE19MSL   +99999+99999GF106991061990004501991991MA1999990096141MD1909990-0111REMSYN004BUFR
0149832420999992014020312004-12560-041380FM-12+043999999V0201401N0031100450199010000199+02391+01891101371ADDAA101999990AZ101061AZ201061GA1071+004501071GE19MSL   +99999+99999GF107991071990004501991991KA1120N+01781MA1999990096461MD1909990-0061REMSYN004BUFR
0136832420999992014020318004-12560-041380FM-12+043999999V0201801N0021100450199010000199+03091+01841100861ADDAA101999990AZ101061AZ201061GA1061+004501071GE19MSL   +99999+99999GF106991061990004501991991MA1999990096011MD1909990-0131REMSYN004BUFR
0149832420999992014020412004-12560-041380FM-12+043999999V0201801N0015100450199010000199+02401+01951101481ADDAA101999990AZ101061AZ201061GA1071+004501071GE19MSL   +99999+99999GF107991071990004501991991KA1120N+01631MA1999990096571MD1909990+0111REMSYN004BUFR
0136832420999992014020418004-12560-041380FM-12+043999999V0201801N0015100450199010000199+02941+01971101001ADDAA101999990AZ101061AZ201061GA1071+004501071GE19MSL   +99999+99999GF107991071990004501991991MA1999990096131MD1909990+0121REMSYN004BUFR
0155832420999992014020512004-12560-041380FM-12+043999999V0201801N0015100450199010000199+02271+02131101571ADDAA124013031AY161061AY221061GA1071+004501071GE19MSL   +99999+99999GF107991071990004501991991KA1120N+01731MA1999990096601MD1909990+0031MW1021REMSYN004BUFR
0142832420999992014020518004-12560-041380FM-12+043999999V0201801N0021100450199010000199+02821+02121101071ADDAA106000331AY151061AY221061GA1071+004501071GE19MSL   +99999+99999GF107991071990004501991991MA1999990096181MD1909990+0051MW1031REMSYN004BUFR
0187832420999992014020612004-12560-041380FM-12+043999999V0201801N0015100450199004000199+02071+02011101581ADDAA124004031AY161061AY221061GA1081+004501071GA2991+999991101GA3991+999991101GE19MSL   +99999+99999GF108991081990004501991991KA1120N+01651MA1999990096611MD1909990+0011MW1231REMSYN004BUFR
0142832420999992014020618004-12560-041380FM-12+043999999V0201801N0021100450199010000199+02521+02131101221ADDAA106002031AY151061AY221061GA1061+004501071GE19MSL   +99999+99999GF106991061990004501991991MA1999990096301MD1909990+0121MW1201REMSYN004BUFR
0155832420999992014020712004-12560-041380FM-12+043999999V0202301N0015100450199010000199+02241+02091101691ADDAA124003031AY121061AY221061GA1071+004501071GE19MSL   +99999+99999GF107991071990004501991991KA1120N+01721MA1999990096721MD1909990+0111MW1201REMSYN004BUFR
0142832420999992014020718004-12560-041380FM-12+043999999V0200901N0015100450199010000199+02591+02141101341ADDAA106001031AY121061AY221061GA1071+004501071GE19MSL   +99999+99999GF107991071990004501991991MA1999990096411MD1909990+0111MW1201REMSYN004BUFR
0155832420999992014020812004-12560-041380FM-12+043999999V0201401N0010100450199010000199+02271+02051101691ADDAA124004031AY161061AY221061GA1082+004501071GE19MSL   +99999+99999GF107992082990004501991991KA1120N+01671MA1999990096721MD1909990+0001MW1021REMSYN004BUFR
0136832420999992014020818004-12560-041380FM-12+043999999V0201401N0015100450199010000199+02941+02031101211ADDAA101999990AZ101061AZ201061GA1061+004501071GE19MSL   +99999+99999GF106991061990004501991991MA1999990096321MD1909990-0091REMSYN004BUFR
0149832420999992014020912004-12560-041380FM-12+043999999V0201801N0015100450199010000199+02441+01901101631ADDAA124000531AZ101061AZ201061GA1071+004501071GE19MSL   +99999+99999GF107991071990004501991991KA1120N+01771MA1999990096701MD1909990-0021REMSYN004BUFR
0152832420999992014020918004-12560-041380FM-12+043999999V0201401N0015100450199010000199+02921+01711101191ADDAA101999990AZ101061AZ201061GA1061+004501071GA2991+999991031GE19MSL   +99999+99999GF107991061990004501991991MA1999990096311MD1909990-0011REMSYN004BUFR
0149832420999992014021012004-12560-041380FM-12+043999999V0201801N0015100450199010000199+02501+01981101581ADDAA101999990AZ101061AZ201061GA1071+004501071GE19MSL   +99999+99999GF107991071990004501991991KA1120N+01771MA1999990096691MD1909990-0011REMSYN004BUFR
0136832420999992014021018004-12560-041380FM-12+043999999V0201801N0015100450199010000199+02951+02051101101ADDAA101999990AZ101061AZ201061GA1061+004501071GE19MSL   +99999+99999GF106991061990004501991991MA1999990096241MD1909990-0071REMSYN004BUFR
0136832420999992014021118004-12560-041380FM-12+043999999V0201801N0015100450199010000199+03091+02001101011ADDAA101999990AZ101061AZ201061GA1061+004501071GE19MSL   +99999+99999GF106991061990004501991991MA1999990096151MD1909990-0091REMSYN004BUFR
0155832420999992014021212004-12560-041380FM-12+043999999V0201801N0010100450199010000199+02191+02051101451ADDAA124006031AY161061AY221061GA1071+004501071GE19MSL   +99999+99999GF107991071990004501991991KA1120N+01671MA1999990096531MD1909990-0051MW1201REMSYN004BUFR
0136832420999992014021218004-12560-041380FM-12+043999999V0201801N0015100450199010000199+02991+02001100901ADDAA101999990AZ101061AZ201061GA1061+004501071GE19MSL   +99999+99999GF106991061990004501991991MA1999990096021MD1909990-0131REMSYN004BUFR
0149832420999992014021312004-12560-041380FM-12+043999999V0201401N0005100450199010000199+02441+01921101341ADDAA101999990AZ101061AZ201061GA1071+004501071GE19MSL   +99999+99999GF107991071990004501991991KA1120N+01771MA1999990096451MD1909990-0081REMSYN004BUFR
0136832420999992014021318004-12560-041380FM-12+043999999V0201801N0015100450199010000199+03171+01771100761ADDAA101999990AZ101061AZ201061GA1061+004501091GE19MSL   +99999+99999GF106991061990004501991991MA1999990095941MD1909990-0081REMSYN004BUFR
0149832420999992014021412004-12560-041380FM-12+043999999V0201801N0010100450199004000199+02401+01971101481ADDAA101999990AZ101061AZ201061GA1071+004501071GE19MSL   +99999+99999GF107991071990004501991991KA1120N+01871MA1999990096571MD1909990+0121REMSYN004BUFR
0136832420999992014021418004-12560-041380FM-12+043999999V0201801N0010100450199010000199+03191+01891100871ADDAA101999990AZ101061AZ201061GA1061+004501071GE19MSL   +99999+99999GF106991061990004501991991MA1999990096031MD1909990+0091REMSYN004BUFR
0136832420999992014021518004-12560-041380FM-12+043999999V0200901N0021100450199010000199+03201+01981100771ADDAA101999990AZ101061AZ201061GA1061+004501071GE19MSL   +99999+99999GF106991061990004501991991MA1999990095961MD1909990-0071REMSYN004BUFR
0187832420999992014021612004-12560-041380FM-12+043999999V0201801N0015100450199010000199+02391+02131101351ADDAA124004031AY151061AY221061GA1081+004501071GA2991+999991101GA3991+999991101GE19MSL   +99999+99999GF108991081990004501991991KA1120N+01511MA1999990096461MD1909990-0101MW1021REMSYN004BUFR
0136832420999992014021618004-12560-041380FM-12+043999999V0200901N0005100450199010000199+02971+02011100891ADDAA101999990AZ101061AZ201061GA1071+004501071GE19MSL   +99999+99999GF107991071990004501991991MA1999990096051MD1909990+0081REMSYN004BUFR
0155832420999992014021712004-12560-041380FM-12+043999999V0201801N0015100450199010000199+02491+02071101481ADDAA124001031AY161061AY221061GA1071+004501071GE19MSL   +99999+99999GF107991071990004501991991KA1120N+01801MA1999990096561MD1909990+0101MW1021REMSYN004BUFR
0136832420999992014021718004-12560-041380FM-12+043999999V0200901N0015100450199010000199+03241+01881100821ADDAA101999990AZ101061AZ201061GA1061+004501071GE19MSL   +99999+99999GF106991061990004501991991MA1999990095971MD1909990-0081REMSYN004BUFR
0181832420999992014021812004-12560-041380FM-12+043999999V0201401N0005100450199004000199+02451+01991101341ADDAA101999990AZ101061AZ201061GA1081+004501071GA2991+999991101GA3991+999991101GE19MSL   +99999+99999GF108991081990004501991991KA1120N+01791MA1999990096451MD1909990-0111REMSYN004BUFR
0136832420999992014021818004-12560-041380FM-12+043999999V0201801N0015100450199010000199+03201+01841100791ADDAA101999990AZ101061AZ201061GA1061+004501071GE19MSL   +99999+99999GF106991061990004501991991MA1999990095961MD1909990-0011REMSYN004BUFR
0181832420999992014021912004-12560-041380FM-12+043999999V0201401N0015100450199004000199+02521+02021101441ADDAA124000731AZ101061AZ201061GA1081+004501071GA2991+999991101GA3991+999991101GE19MSL   +99999+99999GF108991081990004501991991KA1120N+01861MA1999990096551MD1909990+0101REMSYN004BUFR
0174832420999992014021918004-12560-041380FM-12+043999999V0201801N0010100450199010000199+02951+02051100931ADDAA106002031AY161061AY221061GA1081+004501071GA2991+999991101GA3991+999991101GE19MSL   +99999+99999GF108991081990004501991991MA1999990096071MD1909990+0111MW1021REMSYN004BUFR
0155832420999992014022012004-12560-041380FM-12+043999999V0201801N0015100450199010000199+02401+02171101501ADDAA124003031AY161061AY221061GA1071+004501071GE19MSL   +99999+99999GF107991071990004501991991KA1120N+01751MA1999990096581MD1909990+0031MW1021REMSYN004BUFR
0136832420999992014022018004-12560-041380FM-12+043999999V0201801N0015100450199010000199+02791+02151101151ADDAA101999990AZ101061AZ201061GA1061+004501071GE19MSL   +99999+99999GF106991061990004501991991MA1999990096261MD1909990+0191REMSYN004BUFR
0187832420999992014022112004-12560-041380FM-12+043999999V0201801N0010100450199004000199+02221+02101101671ADDAA124026031AY161061AY221061GA1081+004501071GA2991+999991101GA3991+999991101GE19MSL   +99999+99999GF108991081990004501991991KA1120N+01761MA1999990096721MD1909990+0141MW1201REMSYN004BUFR
0136832420999992014022118004-12560-041380FM-12+043999999V0201801N0015100450199010000199+02671+02181101181ADDAA101999990AZ101061AZ201061GA1071+004501071GE19MSL   +99999+99999GF107991071990004501991991MA1999990096271MD1909990+0011REMSYN004BUFR
0155832420999992014022212004-12560-041380FM-12+043999999V0201401N0015100450199010000199+02391+01971101511ADDAA124000231AY151061AY221061GA1071+004501071GE19MSL   +99999+99999GF107991071990004501991991KA1120N+01771MA1999990096591MD1909990-0131MW1021REMSYN004BUFR
0136832420999992014022218004-12560-041380FM-12+043999999V0202301N0005100450199010000199+02971+02091101291ADDAA101999990AZ101061AZ201061GA1061+004501071GE19MSL   +99999+99999GF106991061990004501991991MA1999990096401MD1909990+0131REMSYN004BUFR
0155832420999992014022312004-12560-041380FM-12+043999999V0200901N0015100450199004000199+02441+02011101591ADDAA124999990AY121061AY221061GA1071+004501071GE19MSL   +99999+99999GF107991071990004501991991KA1120N+01831MA1999990096681MD1909990+0091MW1201REMSYN004BUFR
0142832420999992014022318004-12560-041380FM-12+043999999V0201801N0031100450199010000199+02891+02101101241ADDAA106000331AY151061AY221061GA1071+004501071GE19MSL   +99999+99999GF107991071990004501991991MA1999990096361MD1909990-0041MW1021REMSYN004BUFR
0187832420999992014022412004-12560-041380FM-12+043999999V0201801N0026100450199004000199+02291+02231101551ADDAA124022031AY161061AY221061GA1081+004501071GA2991+999991101GA3991+999991101GE19MSL   +99999+99999GF108991081990004501991991KA1120N+01791MA1999990096601MD1909990-0081MW1021REMSYN004BUFR
0142832420999992014022418004-12560-041380FM-12+043999999V0201801N0015100450199010000199+02971+02201101021ADDAA106000231AY151061AY221061GA1071+004501071GE19MSL   +99999+99999GF107991071990004501991991MA1999990096151MD1909990-0211MW1031REMSYN004BUFR
0149832420999992014022512004-12560-041380FM-12+043999999V0201801N0026100450199010000199+02401+02051101521ADDAA124000531AZ101061AZ201061GA1071+004501071GE19MSL   +99999+99999GF107991071990004501991991KA1120N+01871MA1999990096581MD1909990-0021REMSYN004BUFR
0174832420999992014022518004-12560-041380FM-12+043999999V0201801N0015100450199010000199+02741+02121101051ADDAA101999990AY121061AY221061GA1081+004501071GA2991+999991101GA3991+999991101GE19MSL   +99999+99999GF108991081990004501991991MA1999990096161MD1909990+0011MW1151REMSYN004BUFR
0187832420999992014022612004-12560-041380FM-12+043999999V0201801N0015100450199004000199+02301+02021101561ADDAA124000831AY151061AY221061GA1081+004501071GA2991+999991101GA3991+999991101GE19MSL   +99999+99999GF108991081990004501991991KA1120N+01771MA1999990096601MD1909990+0021MW1201REMSYN004BUFR
0174832420999992014022618004-12560-041380FM-12+043999999V0200901N0015100450199010000199+02771+02131101051ADDAA106000531AY151061AY221061GA1081+004501071GA2991+999991101GA3991+999991101GE19MSL   +99999+99999GF108991081990004501991991MA1999990096151MD1909990-0011MW1031REMSYN004BUFR
0181832420999992014022712004-12560-041380FM-12+043999999V0201801N0015100450199004000199+02391+01991101371ADDAA124000531AZ101061AZ201061GA1081+004501071GA2991+999991101GA3991+999991101GE19MSL   +99999+99999GF108991081990004501991991KA1120N+01751MA1999990096461MD1909990-0141REMSYN004BUFR
0168832420999992014022718004-12560-041380FM-12+043999999V0201801N0010100450199010000199+02721+01971101051ADDAA101999990AZ101061AZ201061GA1081+004501071GA2991+999991101GA3991+999991101GE19MSL   +99999+99999GF108991081990004501991991MA1999990096161MD1909990+0011REMSYN004BUFR
0181832420999992014022812004-12560-041380FM-12+043999999V0201401N0005100450199004000199+02271+02091101401ADDAA101999990AZ101061AZ201061GA1081+004501071GA2991+999991101GA3991+999991101GE19MSL   +99999+99999GF108991081990004501991991KA1120N+01861MA1999990096471MD1909990+0011REMSYN004BUFR
0168832420999992014022818004-12560-041380FM-12+043999999V0201801N0010100450199010000199+02841+02031100941ADDAA101999990AZ101061AZ201061GA1081+004501071GA2991+999991101GA3991+999991101GE19MSL   +99999+99999GF108991081990004501991991MA1999990096071MD1909990-0091REMSYN004BUFR
0155832420999992014030112004-12560-041380FM-12+043999999V0202301N0005100450199004000199+02421+02171101371ADDAA124000531AY151061AY221061GA1071+004501071GE19MSL   +99999+99999GF107991071990004501991991KA1120N+01921MA1999990096461MD1909990-0011MW1021REMSYN004BUFR
0187832420999992014030212004-12560-041380FM-12+043999999V0201801N0015100450199004000199+02191+02131101471ADDAA124090031AY161061AY221061GA1081+004501071GA2991+999991101GA3991+999991101GE19MSL   +99999+99999GF108991081990004501991991KA1120N+01681MA1999990096491MD1909990+0031MW1021REMSYN004BUFR
0136832420999992014030218004-12560-041380FM-12+043999999V0201801N0015100450199010000199+02741+02141101851ADDAA101999990AZ101061AZ201061GA1071+004501071GE19MSL   +99999+99999GF107991071990004501991991MA1999990095961MD1909990+0081REMSYN004BUFR
0149832420999992014030312004-12560-041380FM-12+043999999V0201401N0015100450199010000199+02471+01901101391ADDAA101999990AZ101061AZ201061GA1071+004501071GE19MSL   +99999+99999GF107991071990004501991991KA1120N+01741MA1999990096481MD1909990-0011REMSYN004BUFR
0136832420999992014030318004-12560-041380FM-12+043999999V0201801N0010100450199010000199+02971+01951100831ADDAA101999990AZ101061AZ201061GA1061+004501071GE19MSL   +99999+99999GF106991061990004501991991MA1999990095981MD1909990+0021REMSYN004BUFR
0187832420999992014030412004-12560-041380FM-12+043999999V0202301N0015100450199004000199+02191+02131101531ADDAA124005031AY161061AY221061GA1081+004501071GA2991+999991101GA3991+999991101GE19MSL   +99999+99999GF108991081990004501991991KA1120N+01831MA1999990096601MD1909990+0121MW1211REMSYN004BUFR
0142832420999992014030418004-12560-041380FM-12+043999999V0201801N0015100450199010000199+02891+02121101041ADDAA106002031AY151061AY221061GA1061+004501071GE19MSL   +99999+99999GF106991061990004501991991MA1999990096161MD1909990+0181MW1031REMSYN004BUFR
0155832420999992014030512004-12560-041380FM-12+043999999V0201801N0015100450199010000199+02191+02081101651ADDAA124009031AY161061AY221061GA1071+004501071GE19MSL   +99999+99999GF107991071990004501991991KA1120N+01711MA1999990096681MD1909990+0081MW1021REMSYN004BUFR
0136832420999992014030518004-12560-041380FM-12+043999999V0201801N0015100450199010000199+02801+01941101211ADDAA101999990AZ101061AZ201061GA1061+004501071GE19MSL   +99999+99999GF106991061990004501991991MA1999990096331MD1909990+0171REMSYN004BUFR
0149832420999992014030612004-12560-041380FM-12+043999999V0200901N0010100450199010000199+02391+01911101601ADDAA101999990AZ101061AZ201061GA1071+004501071GE19MSL   +99999+99999GF107991071990004501991991KA1120N+01731MA1999990096681MD1909990+0001REMSYN004BUFR
0136832420999992014030618004-12560-041380FM-12+043999999V0200901N0015100450199010000199+02971+02011100931ADDAA101999990AZ101061AZ201061GA1061+004501071GE19MSL   +99999+99999GF106991061990004501991991MA1999990096071MD1909990-0261REMSYN004BUFR
0149832420999992014030712004-12560-041380FM-12+043999999V0201801N0015100450199010000199+02391+01971101501ADDAA101999990AZ101061AZ201061GA1071+004501071GE19MSL   +99999+99999GF107991071990004501991991KA1120N+01831MA1999990096571MD1909990-0011REMSYN004BUFR
0152832420999992014030718004-12560-041380FM-12+043999999V0201801N0015199999999010000199+03051+01961100901ADDAA101999990AZ101061AZ201061GA1041+004501071GA2991+999991021GE19MSL   +99999+99999GF107991041990004501991991MA1999990096051MD1909990-0021REMSYN004BUFR
0181832420999992014030812004-12560-041380FM-12+043999999V0201401N0015100450199010000199+02491+02001101481ADDAA101999990AZ101061AZ201061GA1081+004501071GA2991+999991101GA3991+999991101GE19MSL   +99999+99999GF108991081990004501991991KA1120N+01911MA1999990096571MD1909990+0001REMSYN004BUFR
0152832420999992014030818004-12560-041380FM-12+043999999V0202701N0015199999999010000199+02991+02081100981ADDAA101999990AZ101061AZ201061GA1031+004501071GA2991+999991001GE19MSL   +99999+99999GF107991031990004501991991MA1999990096131MD1909990+0081REMSYN004BUFR
0149832420999992014030912004-12560-041380FM-12+043999999V0201801N0010100450199010000199+02371+02031101551ADDAA101999990AZ101061AZ201061GA1061+004501071GE19MSL   +99999+99999GF106991061990004501991991KA1120N+01891MA1999990096631MD1909990+0061REMSYN004BUFR
0152832420999992014030918004-12560-041380FM-12+043999999V0201801N0015199999999010000199+03091+02001101011ADDAA101999990AZ101061AZ201061GA1041+004501071GA2991+999991021GE19MSL   +99999+99999GF107991041990004501991991MA1999990096161MD1909990+0031REMSYN004BUFR
0181832420999992014031012004-12560-041380FM-12+043999999V0201801N0026100450199004000199+02441+01991101601ADDAA101999990AZ101061AZ201061GA1081+004501071GA2991+999991101GA3991+999991101GE19MSL   +99999+99999GF108991081990004501991991KA1120N+01921MA1999990096691MD1909990+0061REMSYN004BUFR
0136832420999992014031018004-12560-041380FM-12+043999999V0201801N0015100450199010000199+03091+02001100981ADDAA101999990AZ101061AZ201061GA1061+004501071GE19MSL   +99999+99999GF106991061990004501991991MA1999990096141MD1909990-0021REMSYN004BUFR
0164832420999992014031112004-12560-041380FM-12+043999999V0201801N0005100450199010000199+02371+02071999999ADDAA124001031AY161061AY221061GA1991+004501991GE19MSL   +99999+99999GF107991990990004501991991KA1120N+01791MA1999990096661MD1909990-0031ME1904569MW1021REMSYN004BUFR
0168832420999992014031118004-12560-041380FM-12+043999999V0201801N0015100450199010000199+02941+02081101101ADDAA101999990AZ101061AZ201061GA1081+004501071GA2991+999991101GA3991+999991101GE19MSL   +99999+99999GF108991081990004501991991MA1999990096231MD1909990+0091REMSYN004BUFR
0149832420999992014031212004-12560-041380FM-12+043999999V0201801N0015100450199010000199+02321+01941101651ADDAA101999990AZ101061AZ201061GA1071+004501071GE19MSL   +99999+99999GF107991071990004501991991KA1120N+01731MA1999990096701MD1909990+0041REMSYN004BUFR
0136832420999992014031218004-12560-041380FM-12+043999999V0201801N0015100450199010000199+03021+01991101101ADDAA101999990AZ101061AZ201061GA1061+004501071GE19MSL   +99999+99999GF106991061990004501991991MA1999990096231MD1909990+0001REMSYN004BUFR
0149832420999992014031312004-12560-041380FM-12+043999999V0201401N0031100450199004000199+02441+02031101591ADDAA101999990AZ101061AZ201061GA1071+004501071GE19MSL   +99999+99999GF107991071990004501991991KA1120N+01881MA1999990096691MD1909990-0011REMSYN004BUFR
0136832420999992014031318004-12560-041380FM-12+043999999V0201801N0015100450199010000199+03051+01901101121ADDAA101999990AZ101061AZ201061GA1051+004501071GE19MSL   +99999+99999GF105991051990004501991991MA1999990096261MD1909990+0031REMSYN004BUFR
0149832420999992014031412004-12560-041380FM-12+043999999V0201401N0005100450199010000199+02391+01951101561ADDAA101999990AZ101061AZ201061GA1072+004501071GE19MSL   +99999+99999GF106992072990004501991991KA1120N+01871MA1999990096661MD1909990-0031REMSYN004BUFR
0174832420999992014031418004-12560-041380FM-12+043999999V0201801N0031100450199010000199+02721+02101101191ADDAA101999990AY121061AY221061GA1081+004501071GA2991+999991101GA3991+999991101GE19MSL   +99999+99999GF108991081990004501991991MA1999990096291MD1909990+0031MW1151REMSYN004BUFR
0149832420999992014031512004-12560-041380FM-12+043999999V0201801N0015100450199004000199+02371+02051101531ADDAA124003031AZ101061AZ201061GA1071+004501071GE19MSL   +99999+99999GF107991071990004501991991KA1120N+01691MA1999990096591MD1909990-0071REMSYN004BUFR
0142832420999992014031518004-12560-041380FM-12+043999999V0201801N0026100450199010000199+02901+02061101041ADDAA101999990AY121061AY221061GA1071+004501071GE19MSL   +99999+99999GF107991071990004501991991MA1999990096151MD1909990-0141MW1151REMSYN004BUFR
0155832420999992014031612004-12560-041380FM-12+043999999V0201801N0015100450199010000199+02321+02071101551ADDAA124015031AY161061AY221061GA1071+004501071GE19MSL   +99999+99999GF107991071990004501991991KA1120N+01751MA1999990096591MD1909990+0001MW1021REMSYN004BUFR
0136832420999992014031618004-12560-041380FM-12+043999999V0201801N0010100450199010000199+02771+01981101291ADDAA101999990AZ101061AZ201061GA1071+004501071GE19MSL   +99999+99999GF107991071990004501991991MA1999990096371MD1909990+0221REMSYN004BUFR
0165832420999992014031712004-12560-041380FM-12+043999999V0201401N0015100450199010000199+02471+01981101511ADDAA101999990AZ101061AZ201061GA1071+004501071GA2991+999991001GE19MSL   +99999+99999GF108991071990004501991991KA1120N+01811MA1999990096591MD1909990+0001REMSYN004BUFR
0152832420999992014031718004-12560-041380FM-12+043999999V0201801N0010100450199010000199+02941+02031101051ADDAA101999990AZ101061AZ201061GA1061+004501071GA2991+999991001GE19MSL   +99999+99999GF108991061990004501991991MA1999990096201MD1909990-0171REMSYN004BUFR
0149832420999992014031812004-12560-041380FM-12+043999999V0201401N0005100450199004000199+02441+02031101491ADDAA101999990AZ101061AZ201061GA1071+004501071GE19MSL   +99999+99999GF107991071990004501991991KA1120N+01911MA1999990096571MD1909990-0021REMSYN004BUFR
0152832420999992014031818004-12560-041380FM-12+043999999V0201801N0010100450199010000199+02891+02121101111ADDAA101999990AZ101061AZ201061GA1051+004501071GA2991+999991021GE19MSL   +99999+99999GF107991051990004501991991MA1999990096241MD1909990+0041REMSYN004BUFR
0187832420999992014031912004-12560-041380FM-12+043999999V0203601N0000100450199004000199+02171+02101101611ADDAA124004031AY161061AY221061GA1081+004501071GA2991+999991101GA3991+999991101GE19MSL   +99999+99999GF108991081990004501991991KA1120N+01771MA1999990096681MD1909990+0111MW1211REMSYN004BUFR
0174832420999992014031918004-12560-041380FM-12+043999999V0201801N0010100450199010000199+02791+02131101091ADDAA106000331AY151061AY221061GA1081+004501071GA2991+999991101GA3991+999991101GE19MSL   +99999+99999GF108991081990004501991991MA1999990096191MD1909990-0051MW1221REMSYN004BUFR
0155832420999992014032012004-12560-041380FM-12+043999999V0202701N0010100450199004000199+02371+02031101511ADDAA124000531AY161061AY221061GA1071+004501071GE19MSL   +99999+99999GF107991071990004501991991KA1120N+01841MA1999990096571MD1909990-0111MW1021REMSYN004BUFR
0136832420999992014032018004-12560-041380FM-12+043999999V0200901N0015199999999010000199+03041+02061100981ADDAA101999990AZ101061AZ201061GA1041+004501071GE19MSL   +99999+99999GF104991041990004501991991MA1999990096131MD1909990-0061REMSYN004BUFR
0155832420999992014032112004-12560-041380FM-12+043999999V0201801N0015100450199004000199+02441+02071101491ADDAA124000831AY151061AY221061GA1071+004501071GE19MSL   +99999+99999GF107991071990004501991991KA1120N+01911MA1999990096571MD1909990+0001MW1021REMSYN004BUFR
0136832420999992014032118004-12560-041380FM-12+043999999V0201801N0015100450199010000199+03041+02151101071ADDAA101999990AZ101061AZ201061GA1051+004501071GE19MSL   +99999+99999GF105991051990004501991991MA1999990096221MD1909990+0091REMSYN004BUFR
0155832420999992014032212004-12560-041380FM-12+043999999V0201401N0005100450199010000199+02491+02191101561ADDAA124000431AY151061AY221061GA1071+004501071GE19MSL   +99999+99999GF107991071990004501991991KA1120N+02011MA1999990096651MD1909990+0081MW1021REMSYN004BUFR
0152832420999992014032218004-12560-041380FM-12+043999999V0200901N0010199999999010000199+03201+02111100971ADDAA101999990AZ101061AZ201061GA1041+004501071GA2991+999991021GE19MSL   +99999+99999GF106991041990004501991991MA1999990096151MD1909990-0071REMSYN004BUFR
0187832420999992014032312004-12560-041380FM-12+043999999V0201801N0015100450199004000199+02401+02171101481ADDAA124000231AY151061AY221061GA1081+004501071GA2991+999991101GA3991+999991101GE19MSL   +99999+99999GF108991081990004501991991KA1120N+02011MA1999990096571MD1909990-0081MW1021REMSYN004BUFR
0152832420999992014032318004-12560-041380FM-12+043999999V0201801N0015199999999010000199+03171+02071100871ADDAA101999990AZ101061AZ201061GA1031+004501071GA2991+999991021GE19MSL   +99999+99999GF106991031990004501991991MA1999990096051MD1909990-0101REMSYN004BUFR
0181832420999992014032412004-12560-041380FM-12+043999999V0203601N0000100450199004000199+02441+02071101481ADDAA101999990AZ101061AZ201061GA1081+004501071GA2991+999991101GA3991+999991101GE19MSL   +99999+99999GF108991081990004501991991KA1120N+01991MA1999990096571MD1909990+0001REMSYN004BUFR
0152832420999992014032418004-12560-041380FM-12+043999999V0200901N0015199999999010000199+03191+01891100921ADDAA101999990AZ101061AZ201061GA1041+004501071GA2991+999991021GE19MSL   +99999+99999GF107991041990004501991991MA1999990096101MD1909990+0051REMSYN004BUFR
0174832420999992014032500004-12560-041380FM-12+043999999V0201801N0015100450199002000199+02571+02061101281ADDAA101999990AY121061AY221061GA1081+004501071GA2991+999991101GA3991+999991101GE19MSL   +99999+99999GF108991081990004501991991MA1999990096381MD1909990+0191MW1131REMSYN004BUFR
0187832420999992014032512004-12560-041380FM-12+043999999V0201801N0005100450199004000199+02251+02181101621ADDAA124003031AY161061AY221061GA1081+004501081GA2991+999991101GA3991+999991031GE19MSL   +99999+99999GF108991081990004501991991KA1120N+01891MA1999990096701MD1909990+0131MW1211REMSYN004BUFR
0142832420999992014032518004-12560-041380FM-12+043999999V0201801N0015199999999010000199+03021+02241101101ADDAA106000131AY151061AY221061GA1041+004501071GE19MSL   +99999+99999GF104991041990004501991991MA1999990096251MD1909990+0151MW1021REMSYN004BUFR
0136832420999992014032600004-12560-041380FM-12+043999999V0200501N0015100450199002000199+02521+02171101361ADDAA101999990AZ101061AZ201061GA1071+004501071GE19MSL   +99999+99999GF107991071990004501991991MA1999990096441MD1909990+0061REMSYN004BUFR
0149832420999992014032612004-12560-041380FM-12+043999999V0203601N0015100450199010000199+02491+02171101591ADDAA124000131AZ101061AZ201061GA1071+004501071GE19MSL   +99999+99999GF107991071990004501991991KA1120N+01931MA1999990096681MD1909990-0021REMSYN004BUFR
0152832420999992014032618004-12560-041380FM-12+043999999V0203601N0010199999999010000199+03171+02071100971ADDAA101999990AZ101061AZ201061GA1041+004501071GA2991+999991021GE19MSL   +99999+99999GF107991041990004501991991MA1999990096151MD1909990-0101REMSYN004BUFR
0098832420999992014032700004-12560-041380FM-12+043999999V0200901N0005122000199002000199+02551+02041101311ADDAA101999990AZ101061AZ201061GF100991999999999999999999MA1999990096421MD1909990-0021REMSYN004BUFR
0181832420999992014032712004-12560-041380FM-12+043999999V0200501N0005100450199004000199+02421+02171101471ADDAA101999990AZ101061AZ201061GA1081+004501071GA2991+999991101GA3991+999991101GE19MSL   +99999+99999GF108991081990004501991991KA1120N+01991MA1999990096561MD1909990-0121REMSYN004BUFR
0168832420999992014032718004-12560-041380FM-12+043999999V0201801N0015100450199010000199+02721+02171101021ADDAA101999990AZ101061AZ201061GA1081+004501071GA2991+999991101GA3991+999991101GE19MSL   +99999+99999GF108991081990004501991991MA1999990096151MD1909990+0001REMSYN004BUFR
0136832420999992014032800004-12560-041380FM-12+043999999V0201801N0015199999999002000199+02371+02211101401ADDAA101999990AZ101061AZ201061GA1031+004501071GE19MSL   +99999+99999GF103991031990004501991991MA1999990096481MD1909990+0061REMSYN004BUFR
0187832420999992014032812004-12560-041380FM-12+043999999V0201801N0015100450199004000199+02351+02201101511ADDAA124008031AY161061AY221061GA1081+004501071GA2991+999991101GA3991+999991101GE19MSL   +99999+99999GF108991081990004501991991KA1120N+01781MA1999990096581MD1909990+0021MW1021REMSYN004BUFR
0142832420999992014032818004-12560-041380FM-12+043999999V0201801N0015100450199010000199+02891+02171100951ADDAA106000431AY151061AY221061GA1071+004501071GE19MSL   +99999+99999GF107991071990004501991991MA1999990096091MD1909990-0061MW1031REMSYN004BUFR
0136832420999992014032900004-12560-041380FM-12+043999999V0201801N0005199999999002000199+02501+02111101271ADDAA101999990AZ101061AZ201061GA1021+004501071GE19MSL   +99999+99999GF102991021990004501991991MA1999990096361MD1909990-0121REMSYN004BUFR
0187832420999992014032912004-12560-041380FM-12+043999999V0201801N0021100450199010000199+02341+02151101491ADDAA124002031AY161061AY221061GA1081+004501071GA2991+999991101GA3991+999991101GE19MSL   +99999+99999GF108991081990004501991991KA1120N+01781MA1999990096571MD1909990-0011MW1031REMSYN004BUFR
0168832420999992014032918004-12560-041380FM-12+043999999V0201801N0010199999999010000199+03021+02101100941ADDAA101999990AZ101061AZ201061GA1041+004501071GA2991+999991001GA3991+999991031GE19MSL   +99999+99999GF107991041990004501991991MA1999990096091MD1909990+0001REMSYN004BUFR
0187832420999992014033012004-12560-041380FM-12+043999999V0201801N0010100450199010000199+02191+02131101621ADDAA124003031AY151061AY221061GA1081+004501071GA2991+999991101GA3991+999991101GE19MSL   +99999+99999GF108991081990004501991991KA1120N+01791MA1999990096671MD1909990+0101MW1101REMSYN004BUFR
0168832420999992014033018004-12560-041380FM-12+043999999V0201801N0015100450199010000199+02691+02151101251ADDAA101999990AZ101061AZ201061GA1081+004501071GA2991+999991101GA3991+999991101GE19MSL   +99999+99999GF108991081990004501991991MA1999990096351MD1909990+0261REMSYN004BUFR
0155832420999992014033112004-12560-041380FM-12+043999999V0201801N0010100450199010000199+02401+02111101651ADDAA124002031AY161061AY221061GA1071+004501071GE19MSL   +99999+99999GF107991071990004501991991KA1120N+01861MA1999990096701MD1909990+0031MW1021REMSYN004BUFR
0136832420999992014033118004-12560-041380FM-12+043999999V0201801N0010100450199010000199+02991+02171101131ADDAA101999990AZ101061AZ201061GA1061+004501071GE19MSL   +99999+99999GF106991061990004501991991MA1999990096271MD1909990-0081REMSYN004BUFR
0168832420999992014040100004-12560-041380FM-12+043999999V0202701N0005100450199002000199+02571+02191101421ADDAA101999990AZ101061AZ201061GA1081+004501071GA2991+999991101GA3991+999991101GE19MSL   +99999+99999GF108991081990004501991991MA1999990096521MD1909990+0021REMSYN004BUFR
0155832420999992014040112004-12560-041380FM-12+043999999V0200901N0015100450199010000199+02601+02071101561ADDAA124001031AY161061AY221061GA1071+004501071GE19MSL   +99999+99999GF107991071990004501991991KA1120N+01851MA1999990096671MD1909990-0031MW1021REMSYN004BUFR
0152832420999992014040118004-12560-041380FM-12+043999999V0201801N0015100450199010000199+03021+02101101101ADDAA101999990AZ101061AZ201061GA1051+004501071GA2991+999991001GE19MSL   +99999+99999GF107991051990004501991991MA1999990096241MD1909990-0031REMSYN004BUFR
0168832420999992014040200004-12560-041380FM-12+043999999V0203601N0026100450199002000199+02571+02171101381ADDAA101999990AZ101061AZ201061GA1081+004501071GA2991+999991101GA3991+999991101GE19MSL   +99999+99999GF108991081990004501991991MA1999990096501MD1909990-0021REMSYN004BUFR
0149832420999992014040212004-12560-041380FM-12+043999999V0201801N0031100450199010000199+02471+02011101461ADDAA101999990AZ101061AZ201061GA1071+004501071GE19MSL   +99999+99999GF107991071990004501991991KA1120N+01931MA1999990096561MD1909990-0111REMSYN004BUFR
0136832420999992014040218004-12560-041380FM-12+043999999V0201801N0015100450199010000199+03041+02091100971ADDAA101999990AZ101061AZ201061GA1061+004501071GE19MSL   +99999+99999GF106991061990004501991991MA1999990096131MD1909990-0111REMSYN004BUFR
0142832420999992014040300004-12560-041380FM-12+043999999V0202701N0010199999999002000199+02551+02151101221ADDAA101999990AY111061AY211061GA1021+004501071GE19MSL   +99999+99999GF102991021990004501991991MA1999990096331MD1909990-0171MW1131REMSYN004BUFR
0181832420999992014040312004-12560-041380FM-12+043999999V0202301N0010100450199004000199+02391+02011101481ADDAA101999990AZ101061AZ201061GA1081+004501071GA2991+999991101GA3991+999991101GE19MSL   +99999+99999GF108991081990004501991991KA1120N+01771MA1999990096571MD1909990+0011REMSYN004BUFR
0152832420999992014040318004-12560-041380FM-12+043999999V0200901N0010199999999010000199+03091+02061100961ADDAA101999990AZ101061AZ201061GA1031+004501081GA2991+999991021GE19MSL   +99999+99999GF108991031990004501991991MA1999990096111MD1909990-0021REMSYN004BUFR
0142832420999992014040400004-12560-041380FM-12+043999999V0201801N0015199999999002000199+02521+02041101211ADDAA101999990AY121061AY221061GA1021+004501071GE19MSL   +99999+99999GF102991021990004501991991MA1999990096311MD1909990-0021MW1131REMSYN004BUFR
0149832420999992014040412004-12560-041380FM-12+043999999V0201801N0010100450199004000199+02571+02151101541ADDAA101999990AZ101061AZ201061GA1071+004501071GE19MSL   +99999+99999GF107991071990004501991991KA1120N+02021MA1999990096641MD1909990-0071REMSYN004BUFR
0152832420999992014040418004-12560-041380FM-12+043999999V0200901N0015199999999010000199+03271+01931100981ADDAA101999990AZ101061AZ201061GA1041+004501071GA2991+999991021GE19MSL   +99999+99999GF108991041990004501991991MA1999990096171MD1909990+0061REMSYN004BUFR
0098832420999992014040500004-12560-041380FM-12+043999999V0201801N0010122000199002000199+02591+02101101321ADDAA101999990AZ101061AZ201061GF100991999999999999999999MA1999990096441MD1909990+0131REMSYN004BUFR
0149832420999992014040512004-12560-041380FM-12+043999999V0201801N0015100450199010000199+02551+02131101631ADDAA101999990AZ101061AZ201061GA1071+004501071GE19MSL   +99999+99999GF107991071990004501991991KA1120N+01991MA1999990096741MD1909990+0101REMSYN004BUFR
0152832420999992014040518004-12560-041380FM-12+043999999V0200901N0021199999999010000199+03221+02051101031ADDAA101999990AZ101061AZ201061GA1031+004501071GA2991+999991001GE19MSL   +99999+99999GF104991031990004501991991MA1999990096211MD1909990+0041REMSYN004BUFR
0187832420999992014040612004-12560-041380FM-12+043999999V0201801N0010100450199004000199+02491+02211101631ADDAA124001031AY161061AY221061GA1081+004501071GA2991+999991101GA3991+999991101GE19MSL   +99999+99999GF108991081990004501991991KA1120N+01971MA1999990096741MD1909990+0001MW1021REMSYN004BUFR
0142832420999992014040618004-12560-041380FM-12+043999999V0201801N0031100450199010000199+02841+02161101161ADDAA106002031AY161061AY221061GA1071+004501071GE19MSL   +99999+99999GF107991071990004501991991MA1999990096301MD1909990+0091MW1021REMSYN004BUFR
0187832420999992014040712004-12560-041380FM-12+043999999V0201401N0015100450199004000199+02221+02211101651ADDAA124020031AY161061AY221061GA1081+004501071GA2991+999991101GA3991+999991101GE19MSL   +99999+99999GF108991081990004501991991KA1120N+01891MA1999990096711MD1909990-0031MW1631REMSYN004BUFR
0142832420999992014040718004-12560-041380FM-12+043999999V0201801N0010100450199010000199+03021+02241100921ADDAA106008031AY161061AY221061GA1061+004501071GE19MSL   +99999+99999GF106991061990004501991991MA1999990096071MD1909990-0231MW1011REMSYN004BUFR
0142832420999992014040800004-12560-041380FM-12+043999999V0203601N0015100450199002000199+02521+02271101291ADDAA101999990AY121061AY221061GA1071+004501071GE19MSL   +99999+99999GF107991071990004501991991MA1999990096371MD1909990-0131MW1131REMSYN004BUFR
0187832420999992014040812004-12560-041380FM-12+043999999V0201401N0005100450199004000199+02371+02211101571ADDAA124008031AY161061AY221061GA1081+004501071GA2991+999991101GA3991+999991101GE19MSL   +99999+99999GF108991081990004501991991KA1120N+01851MA1999990096651MD1909990-0061MW1201REMSYN004BUFR
0136832420999992014040818004-12560-041380FM-12+043999999V0200901N0005100450199010000199+02971+02331100931ADDAA101999990AZ101061AZ201061GA1061+004501071GE19MSL   +99999+99999GF106991061990004501991991MA1999990096081MD1909990+0011REMSYN004BUFR
0136832420999992014040900004-12560-041380FM-12+043999999V0203601N0026100450199002000199+02371+02091101311ADDAA101999990AZ101061AZ201061GA1061+004501071GE19MSL   +99999+99999GF106991061990004501991991MA1999990096391MD1909990+0021REMSYN004BUFR
0181832420999992014040912004-12560-041380FM-12+043999999V0200501N0005100450199004000199+02491+02251101481ADDAA101999990AZ101061AZ201061GA1081+004501071GA2991+999991101GA3991+999991101GE19MSL   +99999+99999GF108991081990004501991991KA1120N+01881MA1999990096561MD1909990-0091REMSYN004BUFR
0142832420999992014040918004-12560-041380FM-12+043999999V0201801N0015100450199010000199+02741+02281100961ADDAA101999990AY121061AY221061GA1071+004501071GE19MSL   +99999+99999GF107991071990004501991991MA1999990096081MD1909990+0001MW1171REMSYN004BUFR
0174832420999992014041000004-12560-041380FM-12+043999999V0201801N0010100450199002000199+02541+02311101261ADDAA101999990AY191061AY221061GA1081+004501071GA2991+999991101GA3991+999991101GE19MSL   +99999+99999GF108991081990004501991991MA1999990096371MD1909990-0021MW1131REMSYN004BUFR
0155832420999992014041012004-12560-041380FM-12+043999999V0200501N0010100450199004000199+02471+02271101461ADDAA124021031AY191061AY261061GA1991+004501991GE19MSL   +99999+99999GF108991990990004501991991KA1120N+01941MA1999990096561MD1909990+0001MW1021REMSYN004BUFR
0136832420999992014041018004-12560-041380FM-12+043999999V0201801N0015100450199010000199+03191+02181100911ADDAA101999990AZ101061AZ201061GA1071+004501071GE19MSL   +99999+99999GF107991071990004501991991MA1999990096081MD1909990+0001REMSYN004BUFR
0174832420999992014041100004-12560-041380FM-12+043999999V0203601N0031100450199002000199+02591+02061101371ADDAA106000431AY191061AY221061GA1081+004501071GA2991+999991101GA3991+999991101GE19MSL   +99999+99999GF108991081990004501991991MA1999990096481MD1909990+0111MW1291REMSYN004BUFR
0187832420999992014041112004-12560-041380FM-12+043999999V0200501N0005100450199004000199+02371+02221101591ADDAA124007031AY161061AY221061GA1081+004501071GA2991+999991101GA3991+999991101GE19MSL   +99999+99999GF108991081990004501991991KA1120N+01901MA1999990096681MD1909990+0121MW1201REMSYN004BUFR
0136832420999992014041118004-12560-041380FM-12+043999999V0201801N0010100450199010000199+03021+02211101031ADDAA101999990AZ101061AZ201061GA1061+004501071GE19MSL   +99999+99999GF106991061990004501991991MA1999990096161MD1909990+0081REMSYN004BUFR
0152832420999992014041200004-12560-041380FM-12+043999999V0201801N0015199999999002000199+02441+02131101281ADDAA101999990AZ101061AZ201061GA1031+004501071GA2991+999991031GE19MSL   +99999+99999GF106991031990004501991991MA1999990096361MD1909990-0121REMSYN004BUFR
0149832420999992014041212004-12560-041380FM-12+043999999V0201401N0015100450199010000199+02501+01931101671ADDAA101999990AZ101061AZ201061GA1071+004501071GE19MSL   +99999+99999GF107991071990004501991991KA1120N+01821MA1999990096751MD1909990+0071REMSYN004BUFR
0136832420999992014041218004-12560-041380FM-12+043999999V0201801N0010100450199010000199+02991+01941101201ADDAA101999990AZ101061AZ201061GA1051+004501071GE19MSL   +99999+99999GF105991051990004501991991MA1999990096321MD1909990+0161REMSYN004BUFR
0155832420999992014041312004-12560-041380FM-12+043999999V0200501N0010100450199010000199+02421+02071101621ADDAA124000431AY151061AY221061GA1071+004501071GE19MSL   +99999+99999GF107991071990004501991991KA1120N+01871MA1999990096691MD1909990-0061MW1021REMSYN004BUFR
0136832420999992014041318004-12560-041380FM-12+043999999V0201801N0010100450199010000199+02991+02051100991ADDAA101999990AZ101061AZ201061GA1071+004501071GE19MSL   +99999+99999GF107991071990004501991991MA1999990096141MD1909990-0181REMSYN004BUFR
0187832420999992014041412004-12560-041380FM-12+043999999V0203601N0010100450199004000199+02441+02111101531ADDAA124000331AY151061AY221061GA1081+004501071GA2991+999991101GA3991+999991101GE19MSL   +99999+99999GF108991081990004501991991KA1120N+01921MA1999990096621MD1909990-0071MW1201REMSYN004BUFR
0142832420999992014041418004-12560-041380FM-12+043999999V0201801N0015199999999010000199+02941+02211100931ADDAA106000331AY151061AY221061GA1041+004501071GE19MSL   +99999+99999GF105991041990004501991991MA1999990096081MD1909990-0061MW1021REMSYN004BUFR
0136832420999992014041500004-12560-041380FM-12+043999999V0203601N0005100450199002000199+02491+02171101181ADDAA101999990AZ101061AZ201061GA1071+004501071GE19MSL   +99999+99999GF107991071990004501991991MA1999990096281MD1909990-0071REMSYN004BUFR
0149832420999992014041512004-12560-041380FM-12+043999999V0201801N0015100450199010000199+02501+02071101471ADDAA124000331AZ101061AZ201061GA1071+004501071GE19MSL   +99999+99999GF107991071990004501991991KA1120N+01961MA1999990096561MD1909990-0061REMSYN004BUFR
0136832420999992014041518004-12560-041380FM-12+043999999V0201801N0015100450199010000199+03071+01981100891ADDAA101999990AZ101061AZ201061GA1061+004501071GE19MSL   +99999+99999GF106991061990004501991991MA1999990096051MD1909990-0031REMSYN004BUFR
0152832420999992014041600004-12560-041380FM-12+043999999V0201801N0015199999999002000199+02541+01971101121ADDAA101999990AZ101061AZ201061GA1041+004501071GA2991+999991031GE19MSL   +99999+99999GF107991041990004501991991MA1999990096241MD1909990-0041REMSYN004BUFR
0149832420999992014041612004-12560-041380FM-12+043999999V0200501N0015199999999010000199+02441+01951101481ADDAA101999990AZ101061AZ201061GA1031+004501071GE19MSL   +99999+99999GF103991031990004501991991KA1120N+01601MA1999990096571MD1909990+0011REMSYN004BUFR
0136832420999992014041618004-12560-041380FM-12+043999999V0201801N0015199999999010000199+03051+01901100961ADDAA101999990AZ101061AZ201061GA1021+004501081GE19MSL   +99999+99999GF102991021990004501991991MA1999990096101MD1909990+0051REMSYN004BUFR
0149832420999992014041712004-12560-041380FM-12+043999999V0200501N0015199999999010000199+02521+01931101491ADDAA101999990AZ101061AZ201061GA1031+004501071GE19MSL   +99999+99999GF103991031990004501991991KA1120N+01651MA1999990096571MD1909990+0001REMSYN004BUFR
0152832420999992014041718004-12560-041380FM-12+043999999V0202701N0010100450199010000199+02971+01891100981ADDAA101999990AZ101061AZ201061GA1061+004501071GA2991+999991021GE19MSL   +99999+99999GF108991061990004501991991MA1999990096101MD1909990+0001REMSYN004BUFR
0149832420999992014041812004-12560-041380FM-12+043999999V0201801N0005100450199010000199+02491+02031101221ADDAA101999990AZ101061AZ201061GA1071+004501071GE19MSL   +99999+99999GF107991071990004501991991KA1120N+01831MA1999990096571MD1909990+0001REMSYN004BUFR
0136832420999992014041818004-12560-041380FM-12+043999999V0201801N0015100450199010000199+03191+01781100881ADDAA101999990AZ101061AZ201061GA1061+004501071GE19MSL   +99999+99999GF106991061990004501991991MA1999990096041MD1909990-0061REMSYN004BUFR
0149832420999992014041912004-12560-041380FM-12+043999999V0201801N0005199999999010000199+02591+02031101561ADDAA101999990AZ101061AZ201061GA1041+004501071GE19MSL   +99999+99999GF104991041990004501991991KA1120N+01911MA1999990096671MD1909990+0101REMSYN004BUFR
0136832420999992014041918004-12560-041380FM-12+043999999V0201801N0015199999999010000199+03241+02051101031ADDAA101999990AZ101061AZ201061GA1041+004501071GE19MSL   +99999+99999GF104991041990004501991991MA1999990096191MD1909990+0151REMSYN004BUFR
0181832420999992014042012004-12560-041380FM-12+043999999V0201801N0010100450199010000199+02421+02011101681ADDAA101999990AZ101061AZ201061GA1081+004501071GA2991+999991101GA3991+999991101GE19MSL   +99999+99999GF108991081990004501991991KA1120N+01931MA1999990096761MD1909990+0091REMSYN004BUFR
0098832420999992014042018004-12560-041380FM-12+043999999V0200901N0005122000199010000199+03051+01771101081ADDAA101999990AZ101061AZ201061GF100991999999999999999999MA1999990096241MD1909990+0051REMSYN004BUFR
0149832420999992014042112004-12560-041380FM-12+043999999V0202301N0015100450199010000199+02471+02011101591ADDAA101999990AZ101061AZ201061GA1071+004501071GE19MSL   +99999+99999GF107991071990004501991991KA1120N+01811MA1999990096661MD1909990-0101REMSYN004BUFR
0152832420999992014042118004-12560-041380FM-12+043999999V0201801N0015199999999010000199+03171+01771100971ADDAA101999990AZ101061AZ201061GA1021+004501081GA2991+999991001GE19MSL   +99999+99999GF107991021990004501991991MA1999990096121MD1909990-0121REMSYN004BUFR
0149832420999992014042212004-12560-041380FM-12+043999999V0200901N0015100450199010000199+02471+01871101601ADDAA101999990AZ101061AZ201061GA1071+004501071GE19MSL   +99999+99999GF107991071990004501991991KA1120N+01751MA1999990096681MD1909990+0021REMSYN004BUFR
0152832420999992014042218004-12560-041380FM-12+043999999V0201801N0010199999999010000199+03091+01801100931ADDAA101999990AZ101061AZ201061GA1021+004501081GA2991+999991001GE19MSL   +99999+99999GF106991021990004501991991MA1999990096071MD1909990-0051REMSYN004BUFR
0149832420999992014042312004-12560-041380FM-12+043999999V0201801N0005100450199010000199+02501+01891101601ADDAA101999990AZ101061AZ201061GA1071+004501071GE19MSL   +99999+99999GF107991071990004501991991KA1120N+01691MA1999990096681MD1909990+0001REMSYN004BUFR
0152832420999992014042318004-12560-041380FM-12+043999999V0201801N0015199999999010000199+03091+01801101071ADDAA101999990AZ101061AZ201061GA1021+004501081GA2991+999991001GE19MSL   +99999+99999GF106991021990004501991991MA1999990096201MD1909990+0131REMSYN004BUFR
0181832420999992014042412004-12560-041380FM-12+043999999V0202301N0005100450199004000199+02321+02031101651ADDAA101999990AZ101061AZ201061GA1081+004501071GA2991+999991101GA3991+999991101GE19MSL   +99999+99999GF108991081990004501991991KA1120N+01761MA1999990096701MD1909990+0021REMSYN004BUFR
0152832420999992014042418004-12560-041380FM-12+043999999V0200901N0010199999999010000199+03091+02001100941ADDAA101999990AZ101061AZ201061GA1021+004501071GA2991+999991021GE19MSL   +99999+99999GF107991021990004501991991MA1999990096091MD1909990-0111REMSYN004BUFR
0149832420999992014042512004-12560-041380FM-12+043999999V0201401N0010100450199004000199+02521+02151101351ADDAA101999990AZ101061AZ201061GA1071+004501071GE19MSL   +99999+99999GF107991071990004501991991KA1120N+01741MA1999990096451MD1909990-0251REMSYN004BUFR
0136832420999992014042518004-12560-041380FM-12+043999999V0201801N0015199999999010000199+03371+02091100631ADDAA101999990AZ101061AZ201061GA1041+004501071GE19MSL   +99999+99999GF104991041990004501991991MA1999990095811MD1909990-0281REMSYN004BUFR
0187832420999992014042612004-12560-041380FM-12+043999999V0200501N0005100450199004000199+02541+02041101421ADDAA124000331AY151061AY221061GA1081+004501071GA2991+999991101GA3991+999991101GE19MSL   +99999+99999GF108991081990004501991991KA1120N+01971MA1999990096541MD1909990+0091MW1021REMSYN004BUFR
0152832420999992014042618004-12560-041380FM-12+043999999V0203601N0000199999999010000199+02971+02091100751ADDAA101999990AZ101061AZ201061GA1041+004501071GA2991+999991001GE19MSL   +99999+99999GF108991041990004501991991MA1999990095921MD1909990+0111REMSYN004BUFR
0187832420999992014042712004-12560-041380FM-12+043999999V0201801N0031100450199004000199+02171+02131101701ADDAA124031031AY161061AY221061GA1081+004501071GA2991+999991101GA3991+999991101GE19MSL   +99999+99999GF108991081990004501991991KA1120N+01681MA1999990096731MD1909990+0191MW1201REMSYN004BUFR
0168832420999992014042718004-12560-041380FM-12+043999999V0201801N0015100450199004000199+02341+02071101421ADDAA101999990AZ101061AZ201061GA1081+004501071GA2991+999991101GA3991+999991101GE19MSL   +99999+99999GF108991081990004501991991MA1999990096471MD1909990+0551REMSYN004BUFR
0155832420999992014042812004-12560-041380FM-12+043999999V0201801N0015100450199004000199+02201+02191101841ADDAA124000331AY151061AY221061GA1071+004501071GE19MSL   +99999+99999GF107991071990004501991991KA1120N+01731MA1999990096851MD1909990+0121MW1201REMSYN004BUFR
0136832420999992014042818004-12560-041380FM-12+043999999V0201901N0015100450199010000199+02741+01801101381ADDAA101999990AZ101061AZ201061GA1061+004501071GE19MSL   +99999+99999GF106991061990004501991991MA1999990096471MD1909990+0001REMSYN004BUFR
0098832420999992014042900004-12560-041380FM-12+043999999V0202301N0015122000199002000199+02071+01761101641ADDAA101999990AZ101061AZ201061GF100991999999999999999999MA1999990096651MD1909990-0061REMSYN004BUFR
0149832420999992014042912004-12560-041380FM-12+043999999V0201801N0031100450199004000199+02121+01641102021ADDAA101999990AZ101061AZ201061GA1071+004501071GE19MSL   +99999+99999GF107991071990004501991991KA1120N+01571MA1999990097011MD1909990+0161REMSYN004BUFR
0168832420999992014042918004-12560-041380FM-12+043999999V0201801N0015100450199010000199+02441+01781101531ADDAA101999990AZ101061AZ201061GA1081+004501071GA2991+999991101GA3991+999991101GE19MSL   +99999+99999GF108991081990004501991991MA1999990096561MD1909990+0091REMSYN004BUFR
0168832420999992014043000004-12560-041380FM-12+043999999V0201801N0026100450199002000199+02191+01781101791ADDAA101999990AZ101061AZ201061GA1081+004501071GA2991+999991101GA3991+999991101GE19MSL   +99999+99999GF108991081990004501991991MA1999990096801MD1909990+0151REMSYN004BUFR
0181832420999992014043012004-12560-041380FM-12+043999999V0201401N0031100450199004000199+02121+01701101741ADDAA101999990AZ101061AZ201061GA1081+004501071GA2991+999991101GA3991+999991101GE19MSL   +99999+99999GF108991081990004501991991KA1120N+01611MA1999990096751MD1909990-0211REMSYN004BUFR
0168832420999992014043018004-12560-041380FM-12+043999999V0201801N0015100450199010000199+02571+01741101511ADDAA101999990AZ101061AZ201061GA1081+004501071GA2991+999991101GA3991+999991101GE19MSL   +99999+99999GF108991081990004501991991MA1999990096371MD1909990-0191REMSYN004BUFR
0168832420999992014050100004-12560-041380FM-12+043999999V0203601N0015100450199002000199+02171+01801101511ADDAA101999990AZ101061AZ201061GA1081+004501071GA2991+999991101GA3991+999991101GE19MSL   +99999+99999GF108991081990004501991991MA1999990096531MD1909990-0271REMSYN004BUFR
0181832420999992014050112004-12560-041380FM-12+043999999V0201801N0015100450199004000199+02171+01861101711ADDAA101999990AZ101061AZ201061GA1081+004501071GA2991+999991101GA3991+999991101GE19MSL   +99999+99999GF108991081990004501991991KA1120N+01671MA1999990096731MD1909990-0021REMSYN004BUFR
0168832420999992014050118004-12560-041380FM-12+043999999V0201801N0010100450199010000199+02521+01981101271ADDAA101999990AZ101061AZ201061GA1081+004501071GA2991+999991101GA3991+999991101GE19MSL   +99999+99999GF108991081990004501991991MA1999990096331MD1909990-0041REMSYN004BUFR
0155832420999992014050212004-12560-041380FM-12+043999999V0201401N0015199999999010000199+02501+02001101631ADDAA124000231AY151061AY221061GA1031+004501071GE19MSL   +99999+99999GF103991031990004501991991KA1120N+01711MA1999990096701MD1909990-0031MW1021REMSYN004BUFR
0136832420999992014050218004-12560-041380FM-12+043999999V0201801N0010199999999010000199+03021+01991101171ADDAA101999990AZ101061AZ201061GA1041+004501071GE19MSL   +99999+99999GF104991041990004501991991MA1999990096291MD1909990-0041REMSYN004BUFR
0168832420999992014050300004-12560-041380FM-12+043999999V0201801N0005100450199002000199+02571+01871101481ADDAA101999990AZ101061AZ201061GA1081+004501071GA2991+999991101GA3991+999991101GE19MSL   +99999+99999GF108991081990004501991991MA1999990096581MD1909990+0091REMSYN004BUFR
0181832420999992014050312004-12560-041380FM-12+043999999V0201801N0015100450199004000199+02241+01861101801ADDAA101999990AZ101061AZ201061GA1081+004501071GA2991+999991101GA3991+999991101GE19MSL   +99999+99999GF108991081990004501991991KA1120N+01861MA1999990096871MD1909990+0171REMSYN004BUFR
0174832420999992014050318004-12560-041380FM-12+043999999V0201801N0015100450199010000199+02521+02021101491ADDAA106000231AY151061AY221061GA1081+004501071GA2991+999991101GA3991+999991101GE19MSL   +99999+99999GF108991081990004501991991MA1999990096561MD1909990+0271MW1031REMSYN004BUFR
0155832420999992014050412004-12560-041380FM-12+043999999V0201801N0015100450199010000199+02321+01951101851ADDAA124000431AY151061AY221061GA1071+004501071GE19MSL   +99999+99999GF107991071990004501991991KA1120N+01651MA1999990096891MD1909990+0021MW1021REMSYN004BUFR
0168832420999992014050418004-12560-041380FM-12+043999999V0201401N0010100450199010000199+02691+02011101441ADDAA101999990AZ101061AZ201061GA1081+004501071GA2991+999991101GA3991+999991101GE19MSL   +99999+99999GF108991081990004501991991MA1999990096511MD1909990-0051REMSYN004BUFR
0149832420999992014050512004-12560-041380FM-12+043999999V0201401N0015100450199010000199+02321+01871101801ADDAA101999990AZ101061AZ201061GA1071+004501071GE19MSL   +99999+99999GF107991071990004501991991KA1120N+01641MA1999990096841MD1909990-0051REMSYN004BUFR
0136832420999992014050518004-12560-041380FM-12+043999999V0201801N0010100450199010000199+02771+01981101321ADDAA101999990AZ101061AZ201061GA1061+004501071GE19MSL   +99999+99999GF106991061990004501991991MA1999990096401MD1909990-0111REMSYN004BUFR
0136832420999992014050600004-12560-041380FM-12+043999999V0201801N0015100450199002000199+02241+01821101551ADDAA101999990AZ101061AZ201061GA1071+004501071GE19MSL   +99999+99999GF107991071990004501991991MA1999990096601MD1909990-0201REMSYN004BUFR
0149832420999992014050612004-12560-041380FM-12+043999999V0202301N0015100450199010000199+02171+01821101841ADDAA101999990AZ101061AZ201061GA1071+004501071GE19MSL   +99999+99999GF107991071990004501991991KA1120N+01461MA1999990096851MD1909990+0011REMSYN004BUFR
0136832420999992014050618004-12560-041380FM-12+043999999V0201801N0015100450199002000199+02921+01981101331ADDAA101999990AZ101061AZ201061GA1051+004501071GE19MSL   +99999+99999GF105991051990004501991991MA1999990096391MD1909990-0011REMSYN004BUFR
0168832420999992014050700004-12560-041380FM-12+043999999V0201801N0031100450199002000199+02541+02001101531ADDAA101999990AZ101061AZ201061GA1081+004501071GA2991+999991101GA3991+999991101GE19MSL   +99999+99999GF108991081990004501991991MA1999990096591MD1909990-0011REMSYN004BUFR
0187832420999992014050712004-12560-041380FM-12+043999999V0201801N0026100450199004000199+02171+02151101811ADDAA124004031AY161061AY221061GA1081+004501071GA2991+999991101GA3991+999991101GE19MSL   +99999+99999GF108991081990004501991991KA1120N+01801MA1999990096851MD1909990+0001MW1221REMSYN004BUFR
0142832420999992014050718004-12560-041380FM-12+043999999V0201801N0015100450199010000199+02441+02281101491ADDAA106012031AY161061AY221061GA1061+004501071GE19MSL   +99999+99999GF106991061990004501991991MA1999990096541MD1909990+0151MW1211REMSYN004BUFR
0158832420999992014050800004-12560-041380FM-12+043999999V0203601N0021199999999002000199+02171+02041101741ADDAA106000331AY151061AY221061GA1021+004501071GA2991+999991031GE19MSL   +99999+99999GF106991021990004501991991MA1999990096761MD1909990+0171MW1031REMSYN004BUFR
0187832420999992014050812004-12560-041380FM-12+043999999V0201801N0015100450199004000199+02321+02221101831ADDAA124013031AY161061AY221061GA1081+004501071GA2991+999991101GA3991+999991101GE19MSL   +99999+99999GF108991081990004501991991KA1120N+01781MA1999990096851MD1909990+0001MW1201REMSYN004BUFR
0142832420999992014050818004-12560-041380FM-12+043999999V0201801N0015100450199010000199+02741+01911101241ADDAA106000631AY151061AY221061GA1071+004501071GE19MSL   +99999+99999GF107991071990004501991991MA1999990096331MD1909990-0211MW1021REMSYN004BUFR
0152832420999992014050900004-12560-041380FM-12+043999999V0203601N0026199999999002000199+02191+01881101461ADDAA101999990AZ101061AZ201061GA1011+004501071GA2991+999991031GE19MSL   +99999+99999GF107991011990004501991991MA1999990096501MD1909990-0261REMSYN004BUFR
0149832420999992014050912004-12560-041380FM-12+043999999V0201401N0005100450199010000199+02251+01971101531ADDAA124000631AZ101061AZ201061GA1061+004501071GE19MSL   +99999+99999GF106991061990004501991991KA1120N+02051MA1999990096581MD1909990-0271REMSYN004BUFR
0152832420999992014050918004-12560-041380FM-12+043999999V0201801N0015199999999010000199+02971+02041100901ADDAA101999990AZ101061AZ201061GA1041+004501091GA2991+999991021GE19MSL   +99999+99999GF108991041990004501991991MA1999990096021MD1909990-0311REMSYN004BUFR
0174832420999992014051000004-12560-041380FM-12+043999999V0200901N0005100450199002000199+02451+02071101181ADDAA106000231AY151061AY221061GA1081+004501071GA2991+999991101GA3991+999991101GE19MSL   +99999+99999GF108991081990004501991991MA1999990096271MD1909990-0231MW1031REMSYN004BUFR
0149832420999992014051012004-12560-041380FM-12+043999999V0201801N0015100450199010000199+02491+02071101231ADDAA124000231AZ101061AZ201061GA1071+004501071GE19MSL   +99999+99999GF107991071990004501991991KA1120N+01701MA1999990096341MD1909990-0241REMSYN004BUFR
0136832420999992014051018004-12560-041380FM-12+043999999V0201801N0015100450199010000199+02971+02041100881ADDAA101999990AZ101061AZ201061GA1071+004501071GE19MSL   +99999+99999GF107991071990004501991991MA1999990096001MD1909990+0011REMSYN004BUFR
0187832420999992014051112004-12560-041380FM-12+043999999V0201801N0015100450199004000199+02171+02111101691ADDAA124004031AY161061AY221061GA1081+004501071GA2991+999991101GA3991+999991101GE19MSL   +99999+99999GF108991081990004501991991KA1120N+01751MA1999990096751MD1909990+0411MW1101REMSYN004BUFR
0174832420999992014051118004-12560-041380FM-12+043999999V0201801N0015100450199010000199+02321+02071101461ADDAA101999990AY121061AY221061GA1081+004501081GA2991+999991031GA3991+999991101GE19MSL   +99999+99999GF108991081990004501991991MA1999990096491MD1909990+0491MW1101REMSYN004BUFR
0181832420999992014051212004-12560-041380FM-12+043999999V0201801N0031100450199004000199+02121+01781101861ADDAA124000131AZ101061AZ201061GA1081+004501071GA2991+999991101GA3991+999991101GE19MSL   +99999+99999GF108991081990004501991991KA1120N+01651MA1999990096871MD1909990+0141REMSYN004BUFR
0136832420999992014051218004-12560-041380FM-12+043999999V0201801N0010100450199010000199+02371+01731101491ADDAA101999990AZ101061AZ201061GA1071+004501071GE19MSL   +99999+99999GF107991071990004501991991MA1999990096511MD1909990+0021REMSYN004BUFR
0168832420999992014051300004-12560-041380FM-12+043999999V0202301N0015199999999002000199+01971+01791101781ADDAA101999990AZ101061AZ201061GA1011+004501071GA2991+999991031GA3991+999991001GE19MSL   +99999+99999GF107991011990004501991991MA1999990096771MD1909990+0011REMSYN004BUFR
0149832420999992014051312004-12560-041380FM-12+043999999V0201801N0010199999999010000199+02151+01721101871ADDAA101999990AZ101061AZ201061GA1031+004501071GE19MSL   +99999+99999GF103991031990004501991991KA1120N+01521MA1999990096861MD1909990-0011REMSYN004BUFR
0152832420999992014051318004-12560-041380FM-12+043999999V0201801N0015199999999010000199+02641+01621101321ADDAA101999990AZ101061AZ201061GA1021+004501081GA2991+999991021GE19MSL   +99999+99999GF108991021990004501991991MA1999990096391MD1909990-0121REMSYN004BUFR
0098832420999992014051400004-12560-041380FM-12+043999999V0203601N0010122000199002000199+02041+01641101601ADDAA101999990AZ101061AZ201061GF100991999999999999999999MA1999990096611MD1909990-0161REMSYN004BUFR
0149832420999992014051412004-12560-041380FM-12+043999999V0203601N0000199999999010000199+02171+01781101871ADDAA101999990AZ101061AZ201061GA1021+004501081GE19MSL   +99999+99999GF102991021990004501991991KA1120N+01351MA1999990096861MD1909990+0001REMSYN004BUFR
0136832420999992014051418004-12560-041380FM-12+043999999V0201801N0015199999999010000199+02791+01781101281ADDAA101999990AZ101061AZ201061GA1991+025001021GE19MSL   +99999+99999GF107991990990025001991991MA1999990096361MD1909990-0031REMSYN004BUFR
0098832420999992014051500004-12560-041380FM-12+043999999V0203601N0015122000199002000199+02141+01761101681ADDAA101999990AZ101061AZ201061GF100991999999999999999999MA1999990096691MD1909990+0081REMSYN004BUFR
0149832420999992014051512004-12560-041380FM-12+043999999V0201401N0015100450199010000199+02201+01971101841ADDAA101999990AZ101061AZ201061GA1071+004501071GE19MSL   +99999+99999GF107991071990004501991991KA1120N+01561MA1999990096851MD1909990-0011REMSYN004BUFR
0168832420999992014051518004-12560-041380FM-12+043999999V0201801N0010100450199010000199+02791+02001101201ADDAA101999990AZ101061AZ201061GA1081+004501071GA2991+999991101GA3991+999991101GE19MSL   +99999+99999GF108991081990004501991991MA1999990096301MD1909990-0061REMSYN004BUFR
0168832420999992014051600004-12560-041380FM-12+043999999V0203601N0000100450199002000199+02491+02091101461ADDAA101999990AZ101061AZ201061GA1081+004501071GA2991+999991101GA3991+999991101GE19MSL   +99999+99999GF108991081990004501991991MA1999990096531MD1909990-0161REMSYN004BUFR
0187832420999992014051612004-12560-041380FM-12+043999999V0201801N0010100450199004000199+02241+02211101541ADDAA124004031AY161061AY221061GA1081+004501071GA2991+999991101GA3991+999991101GE19MSL   +99999+99999GF108991081990004501991991KA1120N+01861MA1999990096601MD1909990-0251MW1201REMSYN004BUFR
0142832420999992014051618004-12560-041380FM-12+043999999V0201801N0015100450199010000199+02801+02151101001ADDAA106001031AY151061AY221061GA1061+004501071GE19MSL   +99999+99999GF106991061990004501991991MA1999990096131MD1909990-0171MW1031REMSYN004BUFR
0174832420999992014051700004-12560-041380FM-12+043999999V0202701N0015100450199002000199+02391+02281101361ADDAA106000731AY161061AY221061GA1081+004501071GA2991+999991101GA3991+999991101GE19MSL   +99999+99999GF108991081990004501991991MA1999990096431MD1909990-0101MW1211REMSYN004BUFR
0187832420999992014051712004-12560-041380FM-12+043999999V0201401N0005100450199004000199+02221+02161101551ADDAA124007031AY161061AY221061GA1081+004501071GA2991+999991101GA3991+999991101GE19MSL   +99999+99999GF108991081990004501991991KA1120N+01841MA1999990096601MD1909990+0001MW1211REMSYN004BUFR
0136832420999992014051718004-12560-041380FM-12+043999999V0200901N0021100450199010000199+02771+02161101081ADDAA101999990AZ101061AZ201061GA1071+004501071GE19MSL   +99999+99999GF107991071990004501991991MA1999990096201MD1909990+0071REMSYN004BUFR
0187832420999992014051812004-12560-041380FM-12+043999999V0202301N0015100450199004000199+02091+02031101721ADDAA124008031AY161061AY221061GA1081+004501071GA2991+999991101GA3991+999991101GE19MSL   +99999+99999GF108991081990004501991991KA1120N+01721MA1999990096731MD1909990+0131MW1211REMSYN004BUFR
0136832420999992014051818004-12560-041380FM-12+043999999V0200901N0015100450199010000199+02641+02021101301ADDAA101999990AZ101061AZ201061GA1071+004501071GE19MSL   +99999+99999GF107991071990004501991991MA1999990096391MD1909990+0191REMSYN004BUFR
0181832420999992014051912004-12560-041380FM-12+043999999V0202701N0005100450199004000199+02251+01981101561ADDAA101999990AZ101061AZ201061GA1081+004501071GA2991+999991101GA3991+999991101GE19MSL   +99999+99999GF108991081990004501991991KA1120N+01731MA1999990096601MD1909990-0131REMSYN004BUFR
0136832420999992014051918004-12560-041380FM-12+043999999V0201801N0015100450199010000199+02701+01931101191ADDAA101999990AZ101061AZ201061GA1061+004501071GE19MSL   +99999+99999GF106991061990004501991991MA1999990096301MD1909990-0091REMSYN004BUFR
0136832420999992014052000004-12560-041380FM-12+043999999V0200901N0015100450199002000199+02221+02011101481ADDAA101999990AZ101061AZ201061GA1071+004501071GE19MSL   +99999+99999GF107991071990004501991991MA1999990096521MD1909990-0041REMSYN004BUFR
0149832420999992014052012004-12560-041380FM-12+043999999V0201401N0010100450199010000199+02291+02031101661ADDAA101999990AZ101061AZ201061GA1071+004501071GE19MSL   +99999+99999GF107991071990004501991991KA1120N+01771MA1999990096691MD1909990+0091REMSYN004BUFR
0136832420999992014052018004-12560-041380FM-12+043999999V0201801N0015100450199010000199+02821+01851101261ADDAA101999990AZ101061AZ201061GA1071+004501071GE19MSL   +99999+99999GF107991071990004501991991MA1999990096351MD1909990+0051REMSYN004BUFR
0168832420999992014052100004-12560-041380FM-12+043999999V0200901N0015100450199002000199+02341+01971101621ADDAA101999990AZ101061AZ201061GA1081+004501071GA2991+999991101GA3991+999991101GE19MSL   +99999+99999GF108991081990004501991991MA1999990096671MD1909990+0151REMSYN004BUFR
0181832420999992014052112004-12560-041380FM-12+043999999V0201401N0031100450199004000199+02101+01971101701ADDAA101999990AZ101061AZ201061GA1081+004501071GA2991+999991101GA3991+999991101GE19MSL   +99999+99999GF108991081990004501991991KA1120N+01751MA1999990096731MD1909990+0041REMSYN004BUFR
0174832420999992014052118004-12560-041380FM-12+043999999V0201801N0005100450199010000199+02491+02031101311ADDAA106000531AY151061AY221061GA1081+004501071GA2991+999991101GA3991+999991101GE19MSL   +99999+99999GF108991081990004501991991MA1999990096371MD1909990+0021MW1201REMSYN004BUFR
0168832420999992014052200004-12560-041380FM-12+043999999V0202701N0010100450199002000199+02221+02051101581ADDAA101999990AZ101061AZ201061GA1081+004501071GA2991+999991101GA3991+999991101GE19MSL   +99999+99999GF108991081990004501991991MA1999990096601MD1909990-0071REMSYN004BUFR
0149832420999992014052212004-12560-041380FM-12+043999999V0201401N0015199999999010000199+02341+02011101671ADDAA124000531AZ101061AZ201061GA1021+004501071GE19MSL   +99999+99999GF102991021990004501991991KA1120N+01641MA1999990096711MD1909990-0021REMSYN004BUFR
0168832420999992014052218004-12560-041380FM-12+043999999V0200901N0015100450199010000199+02871+02031101281ADDAA101999990AZ101061AZ201061GA1081+004501071GA2991+999991101GA3991+999991101GE19MSL   +99999+99999GF108991081990004501991991MA1999990096381MD1909990+0011REMSYN004BUFR
0136832420999992014052300004-12560-041380FM-12+043999999V0200901N0010199999999002000199+02421+02111101511ADDAA101999990AZ101061AZ201061GA1011+004501091GE19MSL   +99999+99999GF101991011990004501991991MA1999990096581MD1909990-0021REMSYN004BUFR
0149832420999992014052312004-12560-041380FM-12+043999999V0200901N0005100450199010000199+02421+02151101621ADDAA101999990AZ101061AZ201061GA1061+004501071GE19MSL   +99999+99999GF106991061990004501991991KA1120N+01871MA1999990096701MD1909990-0011REMSYN004BUFR
0136832420999992014052318004-12560-041380FM-12+043999999V0201801N0015100450199010000199+03021+02021101091ADDAA101999990AZ101061AZ201061GA1061+004501071GE19MSL   +99999+99999GF106991061990004501991991MA1999990096221MD1909990-0161REMSYN004BUFR
0098832420999992014052400004-12560-041380FM-12+043999999V0203601N0010122000199002000199+02371+02211101451ADDAA101999990AZ101061AZ201061GF100991999999999999999999MA1999990096531MD1909990-0051REMSYN004BUFR
0149832420999992014052412004-12560-041380FM-12+043999999V0200501N0010100450199010000199+02501+02251101571ADDAA101999990AZ101061AZ201061GA1061+004501071GE19MSL   +99999+99999GF106991061990004501991991KA1120N+01911MA1999990096651MD1909990-0051REMSYN004BUFR
0136832420999992014052418004-12560-041380FM-12+043999999V0201401N0015100450199010000199+03041+02051100951ADDAA101999990AZ101061AZ201061GA1051+004501091GE19MSL   +99999+99999GF105991051990004501991991MA1999990096151MD1909990-0071REMSYN004BUFR
0155832420999992014052512004-12560-041380FM-12+043999999V0201801N0010100450199010000199+02401+02131101621ADDAA124002031AY161061AY221061GA1071+004501071GE19MSL   +99999+99999GF107991071990004501991991KA1120N+01921MA1999990096701MD1909990+0051MW1021REMSYN004BUFR
0136832420999992014052518004-12560-041380FM-12+043999999V0201801N0015100450199010000199+02991+02051101051ADDAA101999990AZ101061AZ201061GA1061+004501071GE19MSL   +99999+99999GF106991061990004501991991MA1999990096281MD1909990+0131REMSYN004BUFR
0149832420999992014052612004-12560-041380FM-12+043999999V0200901N0010100450199010000199+02471+02131101781ADDAA101999990AZ101061AZ201061GA1071+004501071GE19MSL   +99999+99999GF107991071990004501991991KA1120N+01871MA1999990096861MD1909990+0161REMSYN004BUFR
0136832420999992014052618004-12560-041380FM-12+043999999V0201801N0005100450199010000199+02951+02721101251ADDAA101999990AZ101061AZ201061GA1051+004501091GE19MSL   +99999+99999GF105991051990004501991991MA1999990096361MD1909990+0081REMSYN004BUFR
0136832420999992014052700004-12560-041380FM-12+043999999V0201601N0010100450199002000199+02521+02091101621ADDAA101999990AZ101061AZ201061GA1061+004501071GE19MSL   +99999+99999GF106991061990004501991991MA1999990096711MD1909990+0021REMSYN004BUFR
0149832420999992014052712004-12560-041380FM-12+043999999V0200901N0010100450199004000199+02401+02131101831ADDAA101999990AZ101061AZ201061GA1071+004501071GE19MSL   +99999+99999GF107991071990004501991991KA1120N+01851MA1999990096911MD1909990+0051REMSYN004BUFR
0152832420999992014052718004-12560-041380FM-12+043999999V0201801N0015199999999010000199+02951+01931101181ADDAA101999990AZ101061AZ201061GA1011+004501071GA2991+999991001GE19MSL   +99999+99999GF106991011990004501991991MA1999990096301MD1909990-0061REMSYN004BUFR
0149832420999992014052812004-12560-041380FM-12+043999999V0201401N0015199999999010000199+02151+01931101711ADDAA101999990AZ101061AZ201061GA1021+004501071GE19MSL   +99999+99999GF102991021990004501991991KA1120N+01331MA1999990096731MD1909990-0181REMSYN004BUFR
0152832420999992014052818004-12560-041380FM-12+043999999V0200901N0015199999999010000199+02951+01841101141ADDAA101999990AZ101061AZ201061GA1021+004501071GA2991+999991021GE19MSL   +99999+99999GF107991021990004501991991MA1999990096231MD1909990-0071REMSYN004BUFR
0149832420999992014052912004-12560-041380FM-12+043999999V0201801N0005100450199004000199+02271+02001101681ADDAA101999990AZ101061AZ201061GA1071+004501071GE19MSL   +99999+99999GF107991071990004501991991KA1120N+01501MA1999990096721MD1909990-0011REMSYN004BUFR
0152832420999992014052918004-12560-041380FM-12+043999999V0200901N0015100450199010000199+02771+01911101251ADDAA101999990AZ101061AZ201061GA1061+004501071GA2991+999991021GE19MSL   +99999+99999GF108991061990004501991991MA1999990096331MD1909990+0101REMSYN004BUFR
0098832420999992014053000004-12560-041380FM-12+043999999V0201401N0005122000199002000199+02201+02011101541ADDAA101999990AZ101061AZ201061GF100991999999999999999999MA1999990096581MD1909990+0071REMSYN004BUFR
0187832420999992014053012004-12560-041380FM-12+043999999V0201801N0015100450199004000199+02141+02081101841ADDAA124000831AY151061AY221061GA1081+004501071GA2991+999991101GA3991+999991101GE19MSL   +99999+99999GF108991081990004501991991KA1120N+01701MA1999990096851MD1909990+0131MW1021REMSYN004BUFR
0174832420999992014053018004-12560-041380FM-12+043999999V0201801N0015100450199010000199+02801+01941101311ADDAA106000131AY151061AY221061GA1081+004501071GA2991+999991101GA3991+999991101GE19MSL   +99999+99999GF108991081990004501991991MA1999990096411MD1909990+0081MW1031REMSYN004BUFR
0174832420999992014053100004-12560-041380FM-12+043999999V0201801N0021100450199002000199+02351+02071101741ADDAA106999990AY151061AY221061GA1081+004501071GA2991+999991101GA3991+999991101GE19MSL   +99999+99999GF108991081990004501991991MA1999990096771MD1909990+0191MW1201REMSYN004BUFR
0187832420999992014053112004-12560-041380FM-12+043999999V0201801N0026100450199004000199+02091+01951101881ADDAA124007031AY161061AY221061GA1081+004501071GA2991+999991101GA3991+999991101GE19MSL   +99999+99999GF108991081990004501991991KA1120N+01631MA1999990096901MD1909990+0051MW1101REMSYN004BUFR
0136832420999992014053118004-12560-041380FM-12+043999999V0201801N0021100450199010000199+02441+01881101471ADDAA101999990AZ101061AZ201061GA1071+004501071GE19MSL   +99999+99999GF107991071990004501991991MA1999990096511MD1909990+0101REMSYN004BUFR
0149832420999992014060112004-12560-041380FM-12+043999999V0200901N0010100450199010000199+02301+01851101691ADDAA101999990AZ101061AZ201061GA1071+004501071GE19MSL   +99999+99999GF107991071990004501991991KA1120N+01951MA1999990096711MD1909990-0191REMSYN004BUFR
0152832420999992014060118004-12560-041380FM-12+043999999V0201801N0005199999999010000199+02841+02061101251ADDAA101999990AZ101061AZ201061GA1021+004501071GA2991+999991021GE19MSL   +99999+99999GF108991021990004501991991MA1999990096141MD1909990-0371REMSYN004BUFR
0187832420999992014060212004-12560-041380FM-12+043999999V0201801N0005100450199004000199+02051+01911101481ADDAA124000131AY151061AY221061GA1081+004501071GA2991+999991101GA3991+999991101GE19MSL   +99999+99999GF108991081990004501991991KA1120N+01601MA1999990096501MD1909990-0211MW1021REMSYN004BUFR
0152832420999992014060218004-12560-041380FM-12+043999999V0201801N0005199999999010000199+02671+01761100991ADDAA101999990AZ101061AZ201061GA1021+004501071GA2991+999991021GE19MSL   +99999+99999GF107991021990004501991991MA1999990096091MD1909990-0051REMSYN004BUFR
0098832420999992014060300004-12560-041380FM-12+043999999V0203601N0010122000199002000199+02071+01911101331ADDAA101999990AZ101061AZ201061GF100991999999999999999999MA1999990096341MD1909990-0061REMSYN004BUFR
0149832420999992014060312004-12560-041380FM-12+043999999V0201401N0010199999999010000199+02121+01911101491ADDAA101999990AZ101061AZ201061GA1011+004501081GE19MSL   +99999+99999GF101991011990004501991991KA1120N+01371MA1999990096501MD1909990+0001REMSYN004BUFR
0136832420999992014060318004-12560-041380FM-12+043999999V0203601N0005100450199010000199+03051+02191100921ADDAA101999990AZ101061AZ201061GA1061+004501071GE19MSL   +99999+99999GF106991061990004501991991MA1999990096021MD1909990-0071REMSYN004BUFR
0168832420999992014060400004-12560-041380FM-12+043999999V0201801N0010100450199002000199+02391+02011101321ADDAA101999990AZ101061AZ201061GA1081+004501071GA2991+999991101GA3991+999991101GE19MSL   +99999+99999GF108991081990004501991991MA1999990096371MD1909990+0031REMSYN004BUFR
0181832420999992014060412004-12560-041380FM-12+043999999V0201401N0010100450199004000199+02271+01981101641ADDAA101999990AZ101061AZ201061GA1081+004501071GA2991+999991101GA3991+999991101GE19MSL   +99999+99999GF108991081990004501991991KA1120N+01751MA1999990096691MD1909990+0191REMSYN004BUFR
0152832420999992014060418004-12560-041380FM-12+043999999V0201801N0021199999999010000199+02801+01911101211ADDAA101999990AZ101061AZ201061GA1031+004501071GA2991+999991021GE19MSL   +99999+99999GF108991031990004501991991MA1999990096311MD1909990+0291REMSYN004BUFR
0168832420999992014060500004-12560-041380FM-12+043999999V0203601N0015100450199002000199+02321+02001101401ADDAA101999990AZ101061AZ201061GA1081+004501071GA2991+999991101GA3991+999991101GE19MSL   +99999+99999GF108991081990004501991991MA1999990096451MD1909990+0081REMSYN004BUFR
0181832420999992014060512004-12560-041380FM-12+043999999V0201401N0015100450199004000199+02241+01941101681ADDAA101999990AZ101061AZ201061GA1081+004501071GA2991+999991101GA3991+999991101GE19MSL   +99999+99999GF108991081990004501991991KA1120N+01771MA1999990096721MD1909990+0031REMSYN004BUFR
0136832420999992014060518004-12560-041380FM-12+043999999V0201801N0010100450199010000199+02791+01871101231ADDAA101999990AZ101061AZ201061GA1071+004501071GE19MSL   +99999+99999GF107991071990004501991991MA1999990096341MD1909990+0031REMSYN004BUFR
0098832420999992014060600004-12560-041380FM-12+043999999V0201801N0015122000199002000199+02171+01901101451ADDAA101999990AZ101061AZ201061GF100991999999999999999999MA1999990096481MD1909990+0031REMSYN004BUFR
0149832420999992014060612004-12560-041380FM-12+043999999V0201801N0015100450199010000199+02351+01991101671ADDAA101999990AZ101061AZ201061GA1071+004501071GE19MSL   +99999+99999GF107991071990004501991991KA1120N+01671MA1999990096711MD1909990-0011REMSYN004BUFR
0136832420999992014060618004-12560-041380FM-12+043999999V0201801N0005100450199010000199+02891+02071101131ADDAA101999990AZ101061AZ201061GA1061+004501071GE19MSL   +99999+99999GF106991061990004501991991MA1999990096241MD1909990-0101REMSYN004BUFR
0168832420999992014060700004-12560-041380FM-12+043999999V0202701N0015100450199002000199+02291+01981101411ADDAA101999990AZ101061AZ201061GA1081+004501071GA2991+999991101GA3991+999991101GE19MSL   +99999+99999GF108991081990004501991991MA1999990096481MD1909990+0001REMSYN004BUFR
0149832420999992014060712004-12560-041380FM-12+043999999V0201401N0010100450199010000199+02291+01901101671ADDAA101999990AZ101061AZ201061GA1061+004501071GE19MSL   +99999+99999GF106991061990004501991991KA1120N+01551MA1999990096711MD1909990+0001REMSYN004BUFR
0152832420999992014060718004-12560-041380FM-12+043999999V0201801N0021100450199010000199+02721+02001101211ADDAA101999990AZ101061AZ201061GA1051+004501071GA2991+999991031GE19MSL   +99999+99999GF107991051990004501991991MA1999990096321MD1909990+0081REMSYN004BUFR
0149832420999992014060812004-12560-041380FM-12+043999999V0201401N0010199999999010000199+02121+01801101731ADDAA101999990AZ101061AZ201061GA1031+004501071GE19MSL   +99999+99999GF103991031990004501991991KA1120N+01261MA1999990096741MD1909990+0031REMSYN004BUFR
0152832420999992014060818004-12560-041380FM-12+043999999V0201801N0015100450199010000199+02741+01891101271ADDAA101999990AZ101061AZ201061GA1051+004501071GA2991+999991031GE19MSL   +99999+99999GF106991051990004501991991MA1999990096421MD1909990+0101REMSYN004BUFR
0149832420999992014060912004-12560-041380FM-12+043999999V0201401N0015100450199010000199+02241+01981101941ADDAA101999990AZ101061AZ201061GA1061+004501071GE19MSL   +99999+99999GF106991061990004501991991KA1120N+01611MA1999990096981MD1909990+0241REMSYN004BUFR
0174832420999992014062412004-12560-041380FM-12+043999999V0201401N0026199999999010000199+02051+01871102291ADDAA124000131AY151061AY221061GA1031+004501071GE19MSL   +99999+99999GF103991031990004501991991KA1120N+99999MA1999990097261MD1909990+0001MW1021REMSYN004BUFREQDQ01 +02112ATMN  
0168832420999992014072318004-12560-041380FM-12+043999999V0201801N0015100450199010000199+02501+01861101791ADDAA101999990AZ101061AZ201061GA1081+004501071GA2991+999991101GA3991+999991101GE19MSL   +99999+99999GF108991081990004501991991MA1999990096821MD1909990-0081REMSYN004BUFR
0174832420999992014082118004-12560-041380FM-12+043999999V0201801N0026100450199010000199+02341+01731101821ADDAA106000131AY151061AY221061GA1081+004501071GA2991+999991101GA3991+999991101GE19MSL   +99999+99999GF108991081990004501991991MA1999990096821MD1909990+0131MW1031REMSYN004BUFR
0181832420999992014092912004-12560-041380FM-12+043999999V0201801N0015100450199004000199+02301+02131101911ADDAA101999990AZ101061AZ201061GA1081+004501071GA2991+999991101GA3991+999991101GE19MSL   +99999+99999GF108991081990004501991991KA1120N+01871MA1999990096971MD1909990-0011REMSYN004BUFR
