0112833390999992014010112004-14050-042617FM-12+088299999V0209999C000019999999N010000199+02411+01791101151ADDKA1240N+01821MA1999990091641MD1909990-0041REMSYN05883339 32997 009// 10241 20179 39164 40115 333 20182 59004=
0163833390999992014010118004-14050-042617FM-12+088299999V0209999C000019999999N010000199+02871+01601100751ADDGA1021+999991081GE19MSL   +99999+99999GF102991021990999999991991MA1999990091321MD1909990-0051REMSYN05883339 32497 214// 10287 20160 39132 40075 82100 333 59005=
0112833390999992014010212004-14050-042617FM-12+088299999V0209999C000019999999N010000199+02351+01781101071ADDKA1240N+01851MA1999990091531MD1909990-0111REMSYN05883339 32997 009// 10235 20178 39153 40107 333 20185 59011=
0163833390999992014010218004-14050-042617FM-12+088299999V0209999C000019999999N010000199+02801+01631100731ADDGA1021+999991081GE19MSL   +99999+99999GF102991021990999999991991MA1999990091271MD1909990-0051REMSYN05883339 32497 209// 10280 20163 39127 40073 82100 333 59005=
0182833390999992014010312004-14050-042617FM-12+088299999V0209999C000019999999N010000199+02231+01821101141ADDGA1041+999991081GE19MSL   +99999+99999GF104991041990999999991991KA1240N+01761MA1999990091591MD1909990+0061REMSYN06483339 32497 409// 10223 20182 39159 40114 84200 333 20176 58006=
0163833390999992014010318004-14050-042617FM-12+088299999V0209999C000019999999N010000199+02791+01721100781ADDGA1031+999991081GE19MSL   +99999+99999GF103991031990999999991991MA1999990091321MD1909990+0051REMSYN05883339 32497 309// 10279 20172 39132 40078 83100 333 58005=
0123833390999992014010400004-14050-042617FM-12+088299999V0209999C000019999999N002000199+02301+01581101031ADDKA1120M+02881KA2120N+00641MA1999990091471REMSYN07083339 32995 009// 10230 20158 39147 40103 333 10288 29064 55105 58014=
0182833390999992014010412004-14050-042617FM-12+088299999V0209999C000019999999N010000199+02141+01841101401ADDGA1051+999991081GE19MSL   +99999+99999GF105991051990999999991991KA1240N+01791MA1999990091781MD1909990+0191REMSYN06483339 32497 514// 10214 20184 39178 40140 85200 333 20179 58019=
0163833390999992014010418004-14050-042617FM-12+088299999V0209999C000019999999N010000199+02891+01621100971ADDGA1031+999991081GE19MSL   +99999+99999GF103991031990999999991991MA1999990091491MD1909990+0171REMSYN05883339 32497 309// 10289 20162 39149 40097 83100 333 58017=
0182833390999992014010512004-14050-042617FM-12+088299999V0209999C000019999999N010000199+02241+01821101361ADDGA1031+999991081GE19MSL   +99999+99999GF103991031990999999991991KA1240N+01841MA1999990091791MD1909990+0011REMSYN06483339 32497 314// 10224 20182 39179 40136 83100 333 20184 58001=
0163833390999992014010518004-14050-042617FM-12+088299999V0209999C000019999999N010000199+02761+01721101041ADDGA1041+999991081GE19MSL   +99999+99999GF104991041990999999991991MA1999990091551MD1909990+0061REMSYN05883339 32497 409// 10276 20172 39155 40104 84100 333 58006=
0182833390999992014010612004-14050-042617FM-12+088299999V0209999C000019999999N010000199+02191+01611101291ADDGA1021+999991081GE19MSL   +99999+99999GF102991021990999999991991KA1240N+01801MA1999990091701MD1909990-0091REMSYN06483339 32497 209// 10219 20161 39170 40129 82200 333 20180 59009=
0163833390999992014010618004-14050-042617FM-12+088299999V0209999C000019999999N010000199+02691+01391100981ADDGA1031+999991081GE19MSL   +99999+99999GF103991031990999999991991MA1999990091461MD1909990-0091REMSYN05883339 32497 314// 10269 20139 39146 40098 83200 333 59009=
0193833390999992014010700004-14050-042617FM-12+088299999V0209999C000019999999N002000199+02231+01221100991ADDGA1021+999991081GE19MSL   +99999+99999GF102991021990999999991991KA1120M+02801KA2120N+00521MA1999990091411REMSYN07683339 32495 209// 10223 20122 39141 40099 82200 333 10280 29052 55119 59021=
0182833390999992014010712004-14050-042617FM-12+088299999V0209999C000019999999N010000199+02191+01561101241ADDGA1031+999991081GE19MSL   +99999+99999GF103991031990999999991991KA1240N+01841MA1999990091641MD1909990-0061REMSYN06483339 32497 314// 10219 20156 39164 40124 83200 333 20184 59006=
0163833390999992014010718004-14050-042617FM-12+088299999V0209999C000019999999N010000199+02691+01421100911ADDGA1041+999991081GE19MSL   +99999+99999GF104991041990999999991991MA1999990091401MD1909990-0061REMSYN05883339 32497 409// 10269 20142 39140 40091 84200 333 59006=
0221833390999992014010800004-14050-042617FM-12+088299999V0209999C000019999999N002000199+02091+01761101011ADDAY101021AY201021GA1051+999991081GE19MSL   +99999+99999GF105991051990999999991991KA1120M+02781KA2120N+00701MA1999990091411MW1101REMSYN08283339 31495 514// 10209 20176 39141 40101 71000 85200 333 10278 29070 55106 58000=
0227833390999992014010812004-14050-042617FM-12+088299999V0209999C000019999999N010000199+02071+01661101251ADDAA124000431AY161021AY261021GA1051+999991081GE19MSL   +99999+99999GF105991051990999999991991KA1240N+01801MA1999990091611MD1909990-0031MW1021REMSYN07683339 21497 505// 10207 20166 39161 40125 70266 85200 333 20180 59003 69944=
0163833390999992014010818004-14050-042617FM-12+088299999V0209999C000019999999N010000199+02671+01401100911ADDGA1041+999991081GE19MSL   +99999+99999GF104991041990999999991991MA1999990091381MD1909990-0021REMSYN05883339 32497 409// 10267 20140 39138 40091 84200 333 59002=
0193833390999992014010900004-14050-042617FM-12+088299999V0209999C000019999999N002000199+02131+01601101081ADDGA1061+999991081GE19MSL   +99999+99999GF106991061990999999991991KA1120M+02821KA2120N+00671MA1999990091451REMSYN07683339 32495 618// 10213 20160 39145 40108 86200 333 10282 29067 55097 58004=
0182833390999992014010912004-14050-042617FM-12+088299999V0209999C000019999999N010000199+02191+01741101111ADDGA1061+999991081GE19MSL   +99999+99999GF106991061990999999991991KA1240N+01861MA1999990091501MD1909990-0111REMSYN06483339 32497 609// 10219 20174 39150 40111 86200 333 20186 59011=
0163833390999992014010918004-14050-042617FM-12+088299999V0209999C000019999999N010000199+02651+01601100791ADDGA1051+999991081GE19MSL   +99999+99999GF105991051990999999991991MA1999990091271MD1909990-0111REMSYN05883339 32497 514// 10265 20160 39127 40079 85200 333 59011=
0193833390999992014011000004-14050-042617FM-12+088299999V0209999C000019999999N002000199+02171+01271101001ADDGA1031+999991081GE19MSL   +99999+99999GF103991031990999999991991KA1120M+02741KA2120N+00611MA1999990091421REMSYN07683339 32495 309// 10217 20127 39142 40100 83200 333 10274 29061 55055 59003=
0210833390999992014011012004-14050-042617FM-12+088299999V0209999C000019999999N010000199+02031+01781101251ADDAY101021AY201021GA1061+999991081GE19MSL   +99999+99999GF106991061990999999991991KA1240N+01841MA1999990091611MD1909990+0111MW1101REMSYN07083339 31497 609// 10203 20178 39161 40125 71000 86200 333 20184 58011=
0163833390999992014011018004-14050-042617FM-12+088299999V0209999C000019999999N010000199+02751+01511100831ADDGA1031+999991081GE19MSL   +99999+99999GF103991031990999999991991MA1999990091331MD1909990+0061REMSYN05883339 32497 305// 10275 20151 39133 40083 83200 333 58006=
0193833390999992014011100004-14050-042617FM-12+088299999V0209999C000019999999N002000199+02351+01471100991ADDGA1061+999991081GE19MSL   +99999+99999GF106991061990999999991991KA1120M+02861KA2120N+00621MA1999990091411REMSYN07683339 32495 618// 10235 20147 39141 40099 86200 333 10286 29062 55095 59001=
0210833390999992014011112004-14050-042617FM-12+088299999V0209999C000019999999N004000199+02071+01841101321ADDAY101021AY201021GA1081+999991061GE19MSL   +99999+99999GF108991081990999999991991KA1240N+01921MA1999990091711MD1909990+0101MW1101REMSYN07083339 31496 809// 10207 20184 39171 40132 71000 885// 333 20192 58010=
0179833390999992014011118004-14050-042617FM-12+088299999V0209999C000019999999N010000199+02631+01671101001ADDGA1991+999991031GA2041+999991081GE19MSL   +99999+99999GF105991990990999999991991MA1999990091501MD1909990+0171REMSYN05883339 32497 505// 10263 20167 39150 40100 84230 333 58017=
0226833390999992014011212004-14050-042617FM-12+088299999V0209999C000019999999N004000199+02131+01781101451ADDAY101021AY201021GA1991+999991051GA2061+999991081GE19MSL   +99999+99999GF107991990990999999991991KA1240N+01861MA1999990091811MD1909990+0101MW1101REMSYN07083339 31496 709// 10213 20178 39181 40145 71000 8622/ 333 20186 58010=
0163833390999992014011218004-14050-042617FM-12+088299999V0209999C000019999999N010000199+02571+01801101181ADDGA1061+999991081GE19MSL   +99999+99999GF106991061990999999991991MA1999990091631MD1909990+0131REMSYN05883339 32497 605// 10257 20180 39163 40118 86200 333 58013=
0182833390999992014011312004-14050-042617FM-12+088299999V0209999C000019999999N010000199+02071+01951101661ADDGA1061+999991081GE19MSL   +99999+99999GF106991061990999999991991KA1240N+01931MA1999990092001MD1909990+0191REMSYN06483339 32497 609// 10207 20195 39200 40166 86200 333 20193 58019=
0179833390999992014011318004-14050-042617FM-12+088299999V0209999C000019999999N010000199+02791+01751101241ADDGA1991+999991001GA2031+999991081GE19MSL   +99999+99999GF105991990990999999991991MA1999990091741MD1909990+0111REMSYN05883339 32497 509// 10279 20175 39174 40124 83101 333 58011=
0123833390999992014011400004-14050-042617FM-12+088299999V0209999C000019999999N010000199+02311+01671101421ADDKA1120M+02881KA2120N+00691MA1999990091801REMSYN07083339 32997 014// 10231 20167 39180 40142 333 10288 29069 55073 58011=
0182833390999992014011412004-14050-042617FM-12+088299999V0209999C000019999999N010000199+02201+01691101621ADDGA1051+999991081GE19MSL   +99999+99999GF105991051990999999991991KA1240N+01881MA1999990092001MD1909990+0001REMSYN06483339 32497 514// 10220 20169 39200 40162 85200 333 20188 58000=
0163833390999992014011418004-14050-042617FM-12+088299999V0209999C000019999999N010000199+02691+01691101201ADDGA1021+999991081GE19MSL   +99999+99999GF102991021990999999991991MA1999990091681MD1909990-0061REMSYN05883339 32497 214// 10269 20169 39168 40120 82100 333 59006=
0123833390999992014011500004-14050-042617FM-12+088299999V0209999C000019999999N002000199+02371+01681101231ADDKA1120M+02781KA2120N+00641MA1999990091671REMSYN07083339 32995 009// 10237 20168 39167 40123 333 10278 29064 55097 59013=
0198833390999992014011512004-14050-042617FM-12+088299999V0209999C000019999999N010000199+02061+01851101431ADDGA1991+999991051GA2051+999991081GE19MSL   +99999+99999GF108991990990999999991991KA1240N+01941MA1999990091811MD1909990-0191REMSYN06483339 32497 809// 10206 20185 39181 40143 8522/ 333 20194 59019=
0179833390999992014011518004-14050-042617FM-12+088299999V0209999C000019999999N010000199+02531+01881101111ADDGA1991+999991001GA2041+999991081GE19MSL   +99999+99999GF106991990990999999991991MA1999990091581MD1909990-0101REMSYN05883339 32497 618// 10253 20188 39158 40111 84201 333 59010=
0209833390999992014011600004-14050-042617FM-12+088299999V0209999C000019999999N002000199+02231+01801101191ADDGA1991+999991001GA2011+999991081GE19MSL   +99999+99999GF102991990990999999991991KA1120M+02621KA2120N+00771MA1999990091571REMSYN07683339 32495 218// 10223 20180 39157 40119 81101 333 10262 29077 55016 59010=
0198833390999992014011612004-14050-042617FM-12+088299999V0209999C000019999999N010000199+02171+01921101411ADDGA1991+999991051GA2051+999991081GE19MSL   +99999+99999GF108991990990999999991991KA1240N+01941MA1999990091791MD1909990-0021REMSYN06483339 32497 809// 10217 20192 39179 40141 8522/ 333 20194 59002=
0163833390999992014011618004-14050-042617FM-12+088299999V0209999C000019999999N010000199+02911+01921100971ADDGA1021+999991081GE19MSL   +99999+99999GF102991021990999999991991MA1999990091511MD1909990-0071REMSYN05883339 32497 214// 10291 20192 39151 40097 82200 333 59007=
0123833390999992014011700004-14050-042617FM-12+088299999V0209999C000019999999N002000199+02471+01781101041ADDKA1120M+03001KA2120N+00681MA1999990091501REMSYN07083339 32995 009// 10247 20178 39150 40104 333 10300 29068 55080 59007=
0198833390999992014011712004-14050-042617FM-12+088299999V0209999C000019999999N010000199+02171+01901101361ADDGA1991+999991051GA2061+999991081GE19MSL   +99999+99999GF108991990990999999991991KA1240N+01891MA1999990091791MD1909990+0001REMSYN06483339 32497 809// 10217 20190 39179 40136 8622/ 333 20189 58000=
0163833390999992014011718004-14050-042617FM-12+088299999V0209999C000019999999N010000199+02851+01751101061ADDGA1021+999991081GE19MSL   +99999+99999GF102991021990999999991991MA1999990091591MD1909990+0081REMSYN05883339 32497 209// 10285 20175 39159 40106 82100 333 58008=
0212833390999992014011800004-14050-042617FM-12+088299999V0209999C000019999999N002000199+02351+01641101191ADDGA1999+999991001GE19MSL   +99999+99999GF103991001990999999991991KA1120M+02931KA2120N+00661MA1999990091621REMSYN07683339 32895 30000 10235 20164 39162 40119 80001 333 10293 29066 55083 58012=EQDQ01    003SCCGA1
0198833390999992014011812004-14050-042617FM-12+088299999V0209999C000019999999N010000199+02091+01881101371ADDGA1991+999991051GA2051+999991081GE19MSL   +99999+99999GF108991990990999999991991KA1240N+01861MA1999990091751MD1909990-0041REMSYN06483339 32497 809// 10209 20188 39175 40137 8522/ 333 20186 59004=
0163833390999992014011818004-14050-042617FM-12+088299999V0209999C000019999999N010000199+02851+01721100911ADDGA1021+999991081GE19MSL   +99999+99999GF102991021990999999991991MA1999990091451MD1909990-0141REMSYN05883339 32497 218// 10285 20172 39145 40091 82100 333 59014=
0182833390999992014011912004-14050-042617FM-12+088299999V0209999C000019999999N010000199+02211+01971101221ADDGA1061+999991081GE19MSL   +99999+99999GF106991061990999999991991KA1240N+01991MA1999990091661MD1909990-0091REMSYN06483339 32497 618// 10221 20197 39166 40122 86200 333 20199 59009=
0195833390999992014011918004-14050-042617FM-12+088299999V0209999C000019999999N010000199+02601+01961100851ADDGA1031+999991081GA2991+999991001GA3991+999991051GE19MSL   +99999+99999GF108991031990999999991991MA1999990091361MD1909990-0091REMSYN05883339 32497 814// 10260 20196 39136 40085 83121 333 59009=
0226833390999992014012012004-14050-042617FM-12+088299999V0209999C000019999999N004000199+02211+01971101161ADDAY101021AY201021GA1991+999991051GA2061+999991081GE19MSL   +99999+99999GF107991990990999999991991KA1240N+02061MA1999990091611MD1909990-0051MW1101REMSYN07083339 31496 718// 10221 20197 39161 40116 71000 8622/ 333 20206 59005=
0163833390999992014012018004-14050-042617FM-12+088299999V0209999C000019999999N010000199+02751+01731100821ADDGA1051+999991081GE19MSL   +99999+99999GF105991051990999999991991MA1999990091381MD1909990+0021REMSYN05883339 32497 514// 10275 20173 39138 40082 85200 333 58002=
0193833390999992014012100004-14050-042617FM-12+088299999V0209999C000019999999N002000199+02351+01831101121ADDGA1061+999991081GE19MSL   +99999+99999GF106991061990999999991991KA1120M+02921KA2120N+00721MA1999990091571REMSYN07683339 32495 609// 10235 20183 39157 40112 86200 333 10292 29072 55040 58007=
0226833390999992014012112004-14050-042617FM-12+088299999V0209999C000019999999N004000199+02171+01801101291ADDAY101021AY201021GA1991+999991051GA2061+999991081GE19MSL   +99999+99999GF107991990990999999991991KA1240N+01981MA1999990091701MD1909990+0091MW1101REMSYN07083339 31496 709// 10217 20180 39170 40129 71000 8622/ 333 20198 58009=
0179833390999992014012118004-14050-042617FM-12+088299999V0209999C000019999999N010000199+02871+01521100941ADDGA1991+999991001GA2031+999991081GE19MSL   +99999+99999GF104991990990999999991991MA1999990091481MD1909990+0101REMSYN05883339 32497 414// 10287 20152 39148 40094 83202 333 58010=
0193833390999992014012200004-14050-042617FM-12+088299999V0209999C000019999999N002000199+02251+01531101261ADDGA1021+999991081GE19MSL   +99999+99999GF102991021990999999991991KA1120M+02961KA2120N+00631MA1999990091651REMSYN07683339 32495 218// 10225 20153 39165 40126 82200 333 10296 29063 55070 58008=
0182833390999992014012212004-14050-042617FM-12+088299999V0209999C000019999999N010000199+02231+01761101351ADDGA1051+999991081GE19MSL   +99999+99999GF105991051990999999991991KA1240N+01881MA1999990091751MD1909990+0051REMSYN06483339 32497 509// 10223 20176 39175 40135 85200 333 20188 58005=
0179833390999992014012218004-14050-042617FM-12+088299999V0209999C000019999999N010000199+02811+00971101021ADDGA1991+999991001GA2041+999991081GE19MSL   +99999+99999GF105991990990999999991991MA1999990091541MD1909990+0061REMSYN05883339 32497 509// 10281 20097 39154 40102 84204 333 58006=
0193833390999992014012300004-14050-042617FM-12+088299999V0209999C000019999999N002000199+02291+01881101261ADDGA1031+999991081GE19MSL   +99999+99999GF103991031990999999991991KA1120M+02981KA2120N+00691MA1999990091671REMSYN07683339 32495 314// 10229 20188 39167 40126 83200 333 10298 29069 55104 58002=
0210833390999992014012312004-14050-042617FM-12+088299999V0209999C000019999999N010000199+02171+01861101371ADDAY101021AY201021GA1061+999991081GE19MSL   +99999+99999GF106991061990999999991991KA1240N+01921MA1999990091771MD1909990+0021MW1101REMSYN07083339 31497 614// 10217 20186 39177 40137 71000 86200 333 20192 58002=
0179833390999992014012318004-14050-042617FM-12+088299999V0209999C000019999999N010000199+02831+01481100961ADDGA1991+999991001GA2031+999991081GE19MSL   +99999+99999GF104991990990999999991991MA1999990091481MD1909990-0061REMSYN05883339 32497 414// 10283 20148 39148 40096 83202 333 59006=
0193833390999992014012400004-14050-042617FM-12+088299999V0209999C000019999999N002000199+02351+01301101091ADDGA1021+999991081GE19MSL   +99999+99999GF102991021990999999991991KA1120M+02961KA2120N+00581MA1999990091531REMSYN07683339 32495 218// 10235 20130 39153 40109 82200 333 10296 29058 55091 59014=
0210833390999992014012412004-14050-042617FM-12+088299999V0209999C000019999999N004000199+01991+01681101221ADDAY101021AY201021GA1081+999991061GE19MSL   +99999+99999GF108991081990999999991991KA1240N+01921MA1999990091601MD1909990-0171MW1101REMSYN07083339 31496 809// 10199 20168 39160 40122 71000 885// 333 20192 59017=
0179833390999992014012418004-14050-042617FM-12+088299999V0209999C000019999999N010000199+02631+01051100871ADDGA1991+999991001GA2041+999991081GE19MSL   +99999+99999GF105991990990999999991991MA1999990091381MD1909990-0101REMSYN05883339 32497 518// 10263 20105 39138 40087 84204 333 59010=
0193833390999992014012500004-14050-042617FM-12+088299999V0209999C000019999999N002000199+02371+00881101051ADDGA1021+999991081GE19MSL   +99999+99999GF102991021990999999991991KA1120M+02721KA2120N+00521MA1999990091431REMSYN07683339 32495 209// 10237 20088 39143 40105 82200 333 10272 29052 55070 59010=
0182833390999992014012512004-14050-042617FM-12+088299999V0209999C000019999999N010000199+02151+01661101221ADDGA1031+999991081GE19MSL   +99999+99999GF103991031990999999991991KA1240N+01681MA1999990091601MD1909990+0001REMSYN06483339 32497 314// 10215 20166 39160 40122 83200 333 20168 58000=
0179833390999992014012518004-14050-042617FM-12+088299999V0209999C000019999999N010000199+02811+01111100751ADDGA1991+999991051GA2051+999991081GE19MSL   +99999+99999GF106991990990999999991991MA1999990091251MD1909990-0131REMSYN05883339 32497 609// 10281 20111 39125 40075 85220 333 59013=
0243833390999992014012612004-14050-042617FM-12+088299999V0209999C000019999999N010000199+02121+01681101321ADDAA124006031AY161021AY261021GA1991+999991051GA2051+999991081GE19MSL   +99999+99999GF106991990990999999991991KA1240N+01861MA1999990091671MD1909990+0071MW1021REMSYN07683339 21497 609// 10212 20168 39167 40132 70266 85220 333 20186 58007 60064=
0179833390999992014012618004-14050-042617FM-12+088299999V0209999C000019999999N010000199+02811+01111101001ADDGA1991+999991051GA2051+999991081GE19MSL   +99999+99999GF106991990990999999991991MA1999990091501MD1909990+0251REMSYN05883339 32497 609// 10281 20111 39150 40100 85220 333 58025=
0182833390999992014012712004-14050-042617FM-12+088299999V0209999C000019999999N010000199+02131+01641101421ADDGA1051+999991081GE19MSL   +99999+99999GF105991051990999999991991KA1240N+01841MA1999990091421MD1909990+0151REMSYN06483339 32497 514// 10213 20164 39142 40142 85200 333 20184 58015=
0163833390999992014012718004-14050-042617FM-12+088299999V0209999C000019999999N010000199+02771+01281100961ADDGA1021+999991081GE19MSL   +99999+99999GF102991021990999999991991MA1999990091481MD1909990-0021REMSYN05883339 32497 209// 10277 20128 39148 40096 82200 333 59002=
0123833390999992014012800004-14050-042617FM-12+088299999V0209999C000019999999N002000199+02231+01211101531ADDKA1120M+02881KA2120N+00611MA1999990091611REMSYN07083339 32995 014// 10223 20121 39161 40153 333 10288 29061 55117 59002=
0182833390999992014012812004-14050-042617FM-12+088299999V0209999C000019999999N010000199+02151+01531101321ADDGA1021+999991081GE19MSL   +99999+99999GF102991021990999999991991KA1240N+01901MA1999990091711MD1909990-0111REMSYN06483339 32497 205// 10215 20153 39171 40132 82200 333 20190 59011=
0163833390999992014012818004-14050-042617FM-12+088299999V0209999C000019999999N010000199+02571+01471101071ADDGA1041+999991081GE19MSL   +99999+99999GF104991041990999999991991MA1999990091531MD1909990+0051REMSYN05883339 32497 409// 10257 20147 39153 40107 84200 333 58005=
0238833390999992014012900004-14050-042617FM-12+088299999V0209999C000019999999N002000199+02051+01701101331ADDAA106000431AY161021AY261021GA1021+999991081GE19MSL   +99999+99999GF102991021990999999991991KA1120M+02761KA2120N+00701MA1999990091681MW1101REMSYN08883339 21495 209// 10205 20170 39168 40133 71066 82200 333 10276 29070 55115 58007 69941=
0243833390999992014012912004-14050-042617FM-12+088299999V0209999C000019999999N010000199+02071+01581101391ADDAA124000431AY161021AY261021GA1991+999991051GA2051+999991081GE19MSL   +99999+99999GF106991990990999999991991KA1240N+01721MA1999990091721MD1909990+0011MW1021REMSYN07683339 21497 609// 10207 20158 39172 40139 70266 85220 333 20172 58001 69944=
0163833390999992014012918004-14050-042617FM-12+088299999V0209999C000019999999N010000199+02511+01621101071ADDGA1061+999991081GE19MSL   +99999+99999GF106991061990999999991991MA1999990091481MD1909990-0051REMSYN05883339 32497 614// 10251 20162 39148 40107 86200 333 59005=
0238833390999992014013000004-14050-042617FM-12+088299999V0209999C000019999999N002000199+02051+01921101221ADDAA106000631AY161021AY261021GA1081+999991061GE19MSL   +99999+99999GF108991081990999999991991KA1120M+02661KA2120N+00801MA1999990091561MW1101REMSYN08883339 21495 805// 10205 20192 39156 40122 71066 885// 333 10266 29080 55072 59012 69961=
0243833390999992014013012004-14050-042617FM-12+088299999V0209999C000019999999N004000199+01931+01841101431ADDAA124003031AY161021AY261021GA1991+999991051GA2051+999991081GE19MSL   +99999+99999GF106991990990999999991991KA1240N+01821MA1999990091731MD1909990+0011MW1501REMSYN07683339 21496 623// 10193 20184 39173 40143 75066 85220 333 20182 58001 60034=
0207833390999992014013018004-14050-042617FM-12+088299999V0209999C000019999999N010000199+02551+01071101711ADDAY101021AY251021GA1991+999991051GA2051+999991081GE19MSL   +99999+99999GF106991990990999999991991MA1999990091511MD1909990+0031MW1021REMSYN06483339 31497 609// 10255 20107 39151 40171 70205 85220 333 58003=
0193833390999992014013100004-14050-042617FM-12+088299999V0209999C000019999999N002000199+02151+01481101301ADDGA1021+999991081GE19MSL   +99999+99999GF102991021990999999991991KA1120M+02641KA2120N+00721MA1999990091641REMSYN07683339 32495 218// 10215 20148 39164 40130 82200 333 10264 29072 55091 58008=
0182833390999992014013112004-14050-042617FM-12+088299999V0209999C000019999999N010000199+01971+01551101391ADDGA1061+999991081GE19MSL   +99999+99999GF106991061990999999991991KA1240N+01721MA1999990091721MD1909990-0011REMSYN06483339 32497 614// 10197 20155 39172 40139 86200 333 20172 59001=
0163833390999992014013118004-14050-042617FM-12+088299999V0209999C000019999999N010000199+02571+01241100991ADDGA1051+999991081GE19MSL   +99999+99999GF105991051990999999991991MA1999990091441MD1909990-0071REMSYN05883339 32497 509// 10257 20124 39144 40099 85200 333 59007=
0193833390999992014020100004-14050-042617FM-12+088299999V0209999C000019999999N002000199+02171+01591101221ADDGA1021+999991081GE19MSL   +99999+99999GF102991021990999999991991KA1120M+02661KA2120N+00651MA1999990091561REMSYN07683339 32495 218// 10217 20159 39156 40122 82200 333 10266 29065 55083 59008=
0210833390999992014020112004-14050-042617FM-12+088299999V0209999C000019999999N010000199+02051+01681101271ADDAY101021AY201021GA1061+999991081GE19MSL   +99999+99999GF106991061990999999991991KA1240N+01781MA1999990091631MD1909990-0091MW1101REMSYN07083339 31497 614// 10205 20168 39163 40127 71000 86200 333 20178 59009=
0163833390999992014020118004-14050-042617FM-12+088299999V0209999C000019999999N010000199+02651+01601100941ADDGA1031+999991081GE19MSL   +99999+99999GF103991031990999999991991MA1999990091411MD1909990-0031REMSYN05883339 32497 309// 10265 20160 39141 40094 83200 333 59003=
0182833390999992014020212004-14050-042617FM-12+088299999V0209999C000019999999N010000199+02011+01521101261ADDGA1051+999991081GE19MSL   +99999+99999GF105991051990999999991991KA1240N+01761MA1999990091621MD1909990-0011REMSYN06483339 32497 514// 10201 20152 39162 40126 85200 333 20176 59001=
0179833390999992014020218004-14050-042617FM-12+088299999V0209999C000019999999N010000199+02811+01351100821ADDGA1991+999991051GA2021+999991081GE19MSL   +99999+99999GF103991990990999999991991MA1999990091341MD1909990-0071REMSYN05883339 32497 318// 10281 20135 39134 40082 82220 333 59007=
0210833390999992014020312004-14050-042617FM-12+088299999V0209999C000019999999N004000199+01931+01681101121ADDAY101021AY201021GA1081+999991061GE19MSL   +99999+99999GF108991081990999999991991KA1240N+01741MA1999990091511MD1909990-0111MW1501REMSYN07083339 31496 809// 10193 20168 39151 40112 75000 885// 333 20174 59011=
0207833390999992014020318004-14050-042617FM-12+088299999V0209999C000019999999N010000199+02791+00811100691ADDAY101021AY251021GA1991+999991051GA2041+999991081GE19MSL   +99999+99999GF105991990990999999991991MA1999990091221MD1909990-0121MW1021REMSYN06483339 31497 514// 10279 20081 39122 40069 70205 84220 333 59012=
0198833390999992014020412004-14050-042617FM-12+088299999V0209999C000019999999N010000199+02151+01721101101ADDGA1991+999991031GA2051+999991081GE19MSL   +99999+99999GF106991990990999999991991KA1240N+01881MA1999990091551MD1909990+0041REMSYN06483339 32497 605// 10215 20172 39155 40110 85230 333 20188 58004=
0163833390999992014020418004-14050-042617FM-12+088299999V0209999C000019999999N010000199+02851+01501100751ADDGA1041+999991081GE19MSL   +99999+99999GF104991041990999999991991MA1999990091321MD1909990+0101REMSYN05883339 32497 409// 10285 20150 39132 40075 84200 333 58010=
0243833390999992014020512004-14050-042617FM-12+088299999V0209999C000019999999N004000199+02051+01801101121ADDAA124000631AY161021AY261021GA1991+999991051GA2061+999991081GE19MSL   +99999+99999GF107991990990999999991991KA1240N+01881MA1999990091531MD1909990-0021MW1101REMSYN07683339 21496 705// 10205 20180 39153 40112 71066 8622/ 333 20188 59002 69964=
0163833390999992014020518004-14050-042617FM-12+088299999V0209999C000019999999N010000199+02761+01461100611ADDGA1041+999991081GE19MSL   +99999+99999GF104991041990999999991991MA1999990091361MD1909990+0041REMSYN05883339 32497 414// 10276 20146 39136 40061 84200 333 58004=
0227833390999992014020612004-14050-042617FM-12+088299999V0209999C000019999999N010000199+02091+01451101281ADDAA124000831AY161021AY261021GA1061+999991081GE19MSL   +99999+99999GF106991061990999999991991KA1240N+01841MA1999990091641MD1909990+0111MW1021REMSYN07683339 21497 609// 10209 20145 39164 40128 70266 86200 333 20184 58011 69984=
0163833390999992014020618004-14050-042617FM-12+088299999V0209999C000019999999N010000199+02751+01181100891ADDGA1041+999991081GE19MSL   +99999+99999GF104991041990999999991991MA1999990091381MD1909990+0021REMSYN05883339 32497 414// 10275 20118 39138 40089 84200 333 58002=
0182833390999992014020712004-14050-042617FM-12+088299999V0209999C000019999999N010000199+02071+01641101321ADDGA1061+999991081GE19MSL   +99999+99999GF106991061990999999991991KA1240N+01841MA1999990091691MD1909990+0051REMSYN06483339 32497 609// 10207 20164 39169 40132 86200 333 20184 58005=
0163833390999992014020718004-14050-042617FM-12+088299999V0209999C000019999999N010000199+02691+01491100981ADDGA1021+999991081GE19MSL   +99999+99999GF102991021990999999991991MA1999990091461MD1909990+0081REMSYN05883339 32497 218// 10269 20149 39146 40098 82200 333 58008=
0182833390999992014020812004-14050-042617FM-12+088299999V0209999C000019999999N010000199+02131+01601101281ADDGA1051+999991081GE19MSL   +99999+99999GF105991051990999999991991KA1240N+01801MA1999990091671MD1909990-0021REMSYN06483339 32497 509// 10213 20160 39167 40128 85200 333 20180 59002=
0163833390999992014020818004-14050-042617FM-12+088299999V0209999C000019999999N010000199+02851+01351100851ADDGA1021+999991081GE19MSL   +99999+99999GF102991021990999999991991MA1999990091381MD1909990-0081REMSYN05883339 32497 205// 10285 20135 39138 40085 82200 333 59008=
0198833390999992014020912004-14050-042617FM-12+088299999V0209999C000019999999N010000199+02091+01511101301ADDGA1991+999991051GA2051+999991081GE19MSL   +99999+99999GF106991990990999999991991KA1240N+01861MA1999990091711MD1909990+0041REMSYN06483339 32497 614// 10209 20151 39171 40130 85220 333 20186 58004=
0179833390999992014020918004-14050-042617FM-12+088299999V0209999C000019999999N010000199+02611+01481101001ADDGA1991+999991031GA2041+999991081GE19MSL   +99999+99999GF105991990990999999991991MA1999990091481MD1909990+0101REMSYN05883339 32497 505// 10261 20148 39148 40100 84230 333 58010=
0198833390999992014021012004-14050-042617FM-12+088299999V0209999C000019999999N010000199+02131+01681101241ADDGA1991+999991001GA2051+999991081GE19MSL   +99999+99999GF106991990990999999991991KA1240N+01801MA1999990091641MD1909990-0071REMSYN06483339 32497 609// 10213 20168 39164 40124 85202 333 20180 59007=
0179833390999992014021018004-14050-042617FM-12+088299999V0209999C000019999999N010000199+02751+01441100871ADDGA1991+999991051GA2041+999991081GE19MSL   +99999+99999GF105991990990999999991991MA1999990091381MD1909990-0101REMSYN05883339 32497 518// 10275 20144 39138 40087 84220 333 59010=
0179833390999992014021118004-14050-042617FM-12+088299999V0209999C000019999999N010000199+02791+01481100781ADDGA1991+999991051GA2041+999991081GE19MSL   +99999+99999GF105991990990999999991991MA1999990091321MD1909990-0061REMSYN05883339 32497 514// 10279 20148 39132 40078 84220 333 59006=
0198833390999992014021212004-14050-042617FM-12+088299999V0209999C000019999999N010000199+02171+01701101091ADDGA1991+999991051GA2051+999991081GE19MSL   +99999+99999GF106991990990999999991991KA1240N+01841MA1999990091501MD1909990-0041REMSYN06483339 32497 605// 10217 20170 39150 40109 85220 333 20184 59004=
0163833390999992014021218004-14050-042617FM-12+088299999V0209999C000019999999N010000199+02671+01591100851ADDGA1051+999991081GE19MSL   +99999+99999GF105991051990999999991991MA1999990091231MD1909990-0091REMSYN05883339 32497 509// 10267 20159 39123 40085 85200 333 59009=
0198833390999992014021312004-14050-042617FM-12+088299999V0209999C000019999999N010000199+02191+01741100951ADDGA1991+999991001GA2021+999991081GE19MSL   +99999+99999GF103991990990999999991991KA1240N+01801MA1999990091421MD1909990-0081REMSYN06483339 32497 314// 10219 20174 39142 40095 82204 333 20180 59008=
0163833390999992014021318004-14050-042617FM-12+088299999V0209999C000019999999N010000199+02891+01271100691ADDGA1021+999991081GE19MSL   +99999+99999GF102991021990999999991991MA1999990091101MD1909990-0131REMSYN05883339 32497 218// 10289 20127 39110 40069 82200 333 59013=
0198833390999992014021412004-14050-042617FM-12+088299999V0209999C000019999999N010000199+02291+01771100991ADDGA1991+999991051GA2041+999991081GE19MSL   +99999+99999GF105991990990999999991991KA1240N+01841MA1999990091471MD1909990+0051REMSYN06483339 32497 509// 10229 20177 39147 40099 84220 333 20184 58005=
0163833390999992014021418004-14050-042617FM-12+088299999V0209999C000019999999N010000199+02951+01441100551ADDGA1041+999991081GE19MSL   +99999+99999GF104991041990999999991991MA1999990091151MD1909990+0051REMSYN05883339 32497 436// 10295 20144 39115 40055 84200 333 58005=
0210833390999992014021512004-14050-042617FM-12+088299999V0209999C000019999999N010000199+02291+01941100991ADDAY101021AY201021GA1061+999991081GE19MSL   +99999+99999GF106991061990999999991991KA1240N+01961MA1999990091491MD1909990+0021MW1101REMSYN07083339 31497 609// 10229 20194 39149 40099 71000 86200 333 20196 58002=
0163833390999992014021518004-14050-042617FM-12+088299999V0209999C000019999999N010000199+02931+01571100491ADDGA1031+999991081GE19MSL   +99999+99999GF103991031990999999991991MA1999990091151MD1909990+0001REMSYN05883339 32497 305// 10293 20157 39115 40049 83200 333 58000=
0198833390999992014021612004-14050-042617FM-12+088299999V0209999C000019999999N010000199+02271+01821100951ADDGA1991+999991051GA2051+999991081GE19MSL   +99999+99999GF106991990990999999991991KA1240N+01901MA1999990091491MD1909990+0001REMSYN06483339 32497 609// 10227 20182 39149 40095 85220 333 20190 58000=
0179833390999992014021618004-14050-042617FM-12+088299999V0209999C000019999999N010000199+02751+01611100571ADDGA1991+999991051GA2031+999991081GE19MSL   +99999+99999GF104991990990999999991991MA1999990091151MD1909990+0001REMSYN05883339 32497 436// 10275 20161 39115 40057 83220 333 58000=
0182833390999992014021712004-14050-042617FM-12+088299999V0209999C000019999999N010000199+02331+01821101141ADDGA1031+999991081GE19MSL   +99999+99999GF103991031990999999991991KA1240N+01941MA1999990091611MD1909990+0121REMSYN06483339 32497 309// 10233 20182 39161 40114 83100 333 20194 58012=
0163833390999992014021718004-14050-042617FM-12+088299999V0209999C000019999999N010000199+02961+01681100661ADDGA1051+999991081GE19MSL   +99999+99999GF105991051990999999991991MA1999990091251MD1909990+0101REMSYN05883339 32497 514// 10296 20168 39125 40066 85200 333 58010=
0182833390999992014021812004-14050-042617FM-12+088299999V0209999C000019999999N010000199+02331+01851101001ADDGA1061+999991081GE19MSL   +99999+99999GF106991061990999999991991KA1240N+02031MA1999990091521MD1909990-0091REMSYN06483339 32497 614// 10233 20185 39152 40100 86200 333 20203 59009=
0163833390999992014021818004-14050-042617FM-12+088299999V0209999C000019999999N010000199+02931+01551100581ADDGA1081+999991081GE19MSL   +99999+99999GF108991081990999999991991MA1999990091201MD1909990-0051REMSYN05883339 32497 818// 10293 20155 39120 40058 882// 333 59005=
0243833390999992014021912004-14050-042617FM-12+088299999V0209999C000019999999N010000199+02071+01981101181ADDAA124030031AY161021AY221021GA1991+999991051GA2051+999991081GE19MSL   +99999+99999GF108991990990999999991991KA1240N+01991MA1999990091581MD1909990+0061MW1021REMSYN07683339 21497 809// 10207 20198 39158 40118 70262 8522/ 333 20199 58006 60304=
0179833390999992014021918004-14050-042617FM-12+088299999V0209999C000019999999N010000199+02331+01911100861ADDGA1991+999991051GA2061+999991081GE19MSL   +99999+99999GF108991990990999999991991MA1999990091351MD1909990+0151REMSYN05883339 32497 832// 10233 20191 39135 40086 8622/ 333 58015=
0243833390999992014022012004-14050-042617FM-12+088299999V0209999C000019999999N010000199+02041+01911101361ADDAA124002031AY161021AY221021GA1991+999991051GA2051+999991081GE19MSL   +99999+99999GF108991990990999999991991KA1240N+01921MA1999990091661MD1909990+0081MW1021REMSYN07683339 21497 809// 10204 20191 39166 40136 70262 8522/ 333 20192 58008 60024=
0179833390999992014022018004-14050-042617FM-12+088299999V0209999C000019999999N010000199+02591+01791100961ADDGA1991+999991031GA2041+999991081GE19MSL   +99999+99999GF105991990990999999991991MA1999990091431MD1909990+0081REMSYN05883339 32497 509// 10259 20179 39143 40096 84230 333 58008=
0182833390999992014022112004-14050-042617FM-12+088299999V0209999C000019999999N010000199+02131+01861101351ADDGA1061+999991081GE19MSL   +99999+99999GF106991061990999999991991KA1240N+01861MA1999990091741MD1909990+0081REMSYN06483339 32497 614// 10213 20186 39174 40135 86200 333 20186 58008=
0179833390999992014022118004-14050-042617FM-12+088299999V0209999C000019999999N010000199+02751+01751100891ADDGA1051+999991081GA2991+999991001GE19MSL   +99999+99999GF106991051990999999991991MA1999990091401MD1909990-0031REMSYN05883339 32497 609// 10275 20175 39140 40089 85201 333 59003=
0198833390999992014022212004-14050-042617FM-12+088299999V0209999C000019999999N010000199+02241+01601101241ADDGA1991+999991001GA2031+999991081GE19MSL   +99999+99999GF104991990990999999991991KA1240N+01911MA1999990091701MD1909990-0041REMSYN06483339 32497 409// 10224 20160 39170 40124 83101 333 20191 59004=
0179833390999992014022218004-14050-042617FM-12+088299999V0209999C000019999999N010000199+02801+01691100961ADDGA1991+999991001GA2041+999991081GE19MSL   +99999+99999GF105991990990999999991991MA1999990091501MD1909990+0101REMSYN05883339 32497 509// 10280 20169 39150 40096 84101 333 58010=
0198833390999992014022312004-14050-042617FM-12+088299999V0209999C000019999999N010000199+02271+01751101301ADDGA1991+999991001GA2041+999991081GE19MSL   +99999+99999GF105991990990999999991991KA1240N+01921MA1999990091751MD1909990+0051REMSYN06483339 32497 509// 10227 20175 39175 40130 84101 333 20192 58005=
0163833390999992014022318004-14050-042617FM-12+088299999V0209999C000019999999N010000199+02901+01841100831ADDGA1031+999991081GE19MSL   +99999+99999GF103991031990999999991991MA1999990091411MD1909990-0091REMSYN05883339 32497 309// 10290 20184 39141 40083 83100 333 59009=
0182833390999992014022412004-14050-042617FM-12+088299999V0209999C000019999999N010000199+02131+01741101291ADDGA1061+999991081GE19MSL   +99999+99999GF106991061990999999991991KA1240N+01941MA1999990091701MD1909990-0051REMSYN06483339 32497 614// 10213 20174 39170 40129 86200 333 20194 59005=
0163833390999992014022418004-14050-042617FM-12+088299999V0209999C000019999999N010000199+02851+01531100771ADDGA1031+999991081GE19MSL   +99999+99999GF103991031990999999991991MA1999990091341MD1909990-0071REMSYN05883339 32497 318// 10285 20153 39134 40077 83200 333 59007=
0182833390999992014022512004-14050-042617FM-12+088299999V0209999C000019999999N010000199+02311+01651101171ADDGA1041+999991081GE19MSL   +99999+99999GF104991041990999999991991KA1240N+01921MA1999990091601MD1909990-0101REMSYN06483339 32497 409// 10231 20165 39160 40117 84200 333 20192 59010=
0179833390999992014022518004-14050-042617FM-12+088299999V0209999C000019999999N010000199+02911+01481100731ADDGA1991+999991001GA2041+999991081GE19MSL   +99999+99999GF105991990990999999991991MA1999990091301MD1909990-0041REMSYN05883339 32497 514// 10291 20148 39130 40073 84202 333 59004=
0182833390999992014022612004-14050-042617FM-12+088299999V0209999C000019999999N010000199+02131+01661101041ADDGA1051+999991081GE19MSL   +99999+99999GF105991051990999999991991KA1240N+01861MA1999990091501MD1909990-0101REMSYN06483339 32497 509// 10213 20166 39150 40104 85200 333 20186 59010=
0179833390999992014022618004-14050-042617FM-12+088299999V0209999C000019999999N010000199+02831+00901100691ADDGA1991+999991001GA2021+999991081GE19MSL   +99999+99999GF103991990990999999991991MA1999990091261MD1909990-0041REMSYN05883339 32497 314// 10283 20090 39126 40069 82204 333 59004=
0198833390999992014022712004-14050-042617FM-12+088299999V0209999C000019999999N010000199+02171+01721101081ADDGA1991+999991031GA2041+999991081GE19MSL   +99999+99999GF105991990990999999991991KA1240N+01961MA1999990091521MD1909990+0021REMSYN06483339 32497 514// 10217 20172 39152 40108 84230 333 20196 58002=
0179833390999992014022718004-14050-042617FM-12+088299999V0209999C000019999999N010000199+02931+01461100641ADDGA1991+999991051GA2031+999991081GE19MSL   +99999+99999GF104991990990999999991991MA1999990091241MD1909990-0021REMSYN05883339 32497 405// 10293 20146 39124 40064 83220 333 59002=
0198833390999992014022812004-14050-042617FM-12+088299999V0209999C000019999999N010000199+02291+01811101031ADDGA1991+999991051GA2021+999991081GE19MSL   +99999+99999GF103991990990999999991991KA1240N+01801MA1999990091491MD1909990-0031REMSYN06483339 32497 309// 10229 20181 39149 40103 82220 333 20180 59003=
0224833390999992014022818004-14050-042617FM-12+088299999V0209999C000019999999N010000199+02771+01561100601ADDAA106003031AY161021AY261021GA1991+999991051GA2051+999991081GE19MSL   +99999+99999GF106991990990999999991991MA1999990091141MD1909990-0101MW1171REMSYN07083339 21497 627// 10277 20156 39114 40060 71766 85220 333 59010 60031=
0227833390999992014030112004-14050-042617FM-12+088299999V0209999C000019999999N010000199+01971+01861101211ADDAA124007031AY161021AY261021GA1061+999991081GE19MSL   +99999+99999GF106991061990999999991991KA1240N+01801MA1999990091551MD1909990+0061MW1101REMSYN07683339 21497 60000 10197 20186 39155 40121 71066 86200 333 20180 58006 60074=
0227833390999992014030212004-14050-042617FM-12+088299999V0209999C000019999999N004000199+02071+01891101141ADDAA124000431AY161021AY261021GA1081+999991061GE19MSL   +99999+99999GF108991081990999999991991KA1240N+01941MA1999990091511MD1909990-0041MW1101REMSYN07683339 21496 809// 10207 20189 39151 40114 71066 885// 333 20194 59004 69944=
0179833390999992014030218004-14050-042617FM-12+088299999V0209999C000019999999N010000199+02771+01531100551ADDGA1991+999991051GA2031+999991081GE19MSL   +99999+99999GF104991990990999999991991MA1999990091091MD1909990-0101REMSYN05883339 32497 414// 10277 20153 39109 40055 83220 333 59010=
0182833390999992014030312004-14050-042617FM-12+088299999V0209999C000019999999N010000199+02111+01681101071ADDGA1051+999991081GE19MSL   +99999+99999GF105991051990999999991991KA1240N+01861MA1999990091511MD1909990+0001REMSYN06483339 32497 509// 10211 20168 39151 40107 85200 333 20186 58000=
0179833390999992014030318004-14050-042617FM-12+088299999V0209999C000019999999N010000199+02791+01411100651ADDGA1991+999991001GA2051+999991081GE19MSL   +99999+99999GF106991990990999999991991MA1999990091201MD1909990+0111REMSYN05883339 32497 614// 10279 20141 39120 40065 85202 333 58011=
0227833390999992014030412004-14050-042617FM-12+088299999V0209999C000019999999N004000199+02031+01971101231ADDAA124000831AY161021AY261021GA1081+999991061GE19MSL   +99999+99999GF108991081990999999991991KA1240N+01901MA1999990091611MD1909990+0101MW1101REMSYN07683339 21496 809// 10203 20197 39161 40123 71066 885// 333 20190 58010 69984=
0163833390999992014030418004-14050-042617FM-12+088299999V0209999C000019999999N010000199+02811+01601100801ADDGA1041+999991081GE19MSL   +99999+99999GF104991041990999999991991MA1999990091341MD1909990+0141REMSYN05883339 32497 414// 10281 20160 39134 40080 84200 333 58014=
0227833390999992014030512004-14050-042617FM-12+088299999V0209999C000019999999N010000199+02131+01801101391ADDAA124002031AY161021AY241021GA1061+999991081GE19MSL   +99999+99999GF106991061990999999991991KA1240N+01881MA1999990091771MD1909990+0161MW1021REMSYN07683339 21497 609// 10213 20180 39177 40139 70264 86200 333 20188 58016 60024=
0163833390999992014030518004-14050-042617FM-12+088299999V0209999C000019999999N010000199+02751+01661100971ADDGA1051+999991081GE19MSL   +99999+99999GF105991051990999999991991MA1999990091471MD1909990+0131REMSYN05883339 32497 505// 10275 20166 39147 40097 85100 333 58013=
0198833390999992014030612004-14050-042617FM-12+088299999V0209999C000019999999N010000199+02251+01641101191ADDGA1991+999991001GA2011+999991081GE19MSL   +99999+99999GF102991990990999999991991KA1240N+01851MA1999990091641MD1909990-0131REMSYN06483339 32497 205// 10225 20164 39164 40119 81101 333 20185 59013=
0179833390999992014030618004-14050-042617FM-12+088299999V0209999C000019999999N010000199+02911+01421100741ADDGA1991+999991001GA2021+999991081GE19MSL   +99999+99999GF103991990990999999991991MA1999990091311MD1909990-0161REMSYN05883339 32497 305// 10291 20142 39131 40074 82101 333 59016=
0198833390999992014030712004-14050-042617FM-12+088299999V0209999C000019999999N010000199+02241+01841101171ADDGA1991+999991001GA2011+999991081GE19MSL   +99999+99999GF102991990990999999991991KA1240N+01881MA1999990091621MD1909990-0021REMSYN06483339 32497 218// 10224 20184 39162 40117 81101 333 20188 59002=
0179833390999992014030718004-14050-042617FM-12+088299999V0209999C000019999999N010000199+03111+01561100601ADDGA1991+999991001GA2031+999991081GE19MSL   +99999+99999GF104991990990999999991991MA1999990091221MD1909990-0091REMSYN05883339 32497 414// 10311 20156 39122 40060 83201 333 59009=
0198833390999992014030812004-14050-042617FM-12+088299999V0209999C000019999999N010000199+02471+01831101071ADDGA1991+999991001GA2011+999991081GE19MSL   +99999+99999GF103991990990999999991991KA1240N+01951MA1999990091631MD1909990-0011REMSYN06483339 32497 309// 10247 20183 39163 40107 81101 333 20195 59001=
0179833390999992014030818004-14050-042617FM-12+088299999V0209999C000019999999N010000199+03231+01821100501ADDGA1991+999991001GA2041+999991081GE19MSL   +99999+99999GF105991990990999999991991MA1999990091191MD1909990-0031REMSYN05883339 32497 505// 10323 20182 39119 40050 84201 333 59003=
0243833390999992014030912004-14050-042617FM-12+088299999V0209999C000019999999N010000199+02151+02041101251ADDAA124002031AY161021AY221021GA1051+999991081GA2991+999991051GE19MSL   +99999+99999GF108991051990999999991991KA1240N+02101MA1999990091731MD1909990+0101MW1021REMSYN07683339 21497 809// 10215 20204 39173 40125 70262 8522/ 333 20210 58010 60024=
0163833390999992014030918004-14050-042617FM-12+088299999V0209999C000019999999N010000199+02701+01881100851ADDGA1061+999991081GE19MSL   +99999+99999GF106991061990999999991991MA1999990091431MD1909990+0241REMSYN05883339 32497 618// 10270 20188 39143 40085 86200 333 58024=
0227833390999992014031012004-14050-042617FM-12+088299999V0209999C000019999999N004000199+02071+01891101351ADDAA124000431AY161021AY261021GA1081+999991061GE19MSL   +99999+99999GF108991081990999999991991KA1240N+02001MA1999990091751MD1909990+0021MW1101REMSYN07683339 21496 809// 10207 20189 39175 40135 71066 885// 333 20200 58002 69944=
0163833390999992014031018004-14050-042617FM-12+088299999V0209999C000019999999N010000199+02871+01481100741ADDGA1061+999991081GE19MSL   +99999+99999GF106991061990999999991991MA1999990091331MD1909990-0101REMSYN05883339 32497 609// 10287 20148 39133 40074 86200 333 59010=
0210833390999992014031112004-14050-042617FM-12+088299999V0209999C000019999999N010000199+02121+01821101211ADDAY101021AY201021GA1061+999991081GE19MSL   +99999+99999GF106991061990999999991991KA1240N+01901MA1999990091641MD1909990-0111MW1101REMSYN07083339 31497 614// 10212 20182 39164 40121 71000 86200 333 20190 59011=
0179833390999992014031118004-14050-042617FM-12+088299999V0209999C000019999999N010000199+02711+01341100871ADDGA1991+999991051GA2041+999991081GE19MSL   +99999+99999GF105991990990999999991991MA1999990091381MD1909990+0051REMSYN05883339 32497 518// 10271 20134 39138 40087 84220 333 58005=
0182833390999992014031212004-14050-042617FM-12+088299999V0209999C000019999999N010000199+02271+01591101261ADDGA1031+999991081GE19MSL   +99999+99999GF103991031990999999991991KA1240N+01841MA1999990091701MD1909990+0061REMSYN06483339 32497 309// 10227 20159 39170 40126 83200 333 20184 58006=
0163833390999992014031218004-14050-042617FM-12+088299999V0209999C000019999999N010000199+02871+01161100841ADDGA1041+999991081GE19MSL   +99999+99999GF104991041990999999991991MA1999990091401MD1909990+0021REMSYN05883339 32497 423// 10287 20116 39140 40084 84200 333 58002=
0182833390999992014031312004-14050-042617FM-12+088299999V0209999C000019999999N010000199+02111+01641101281ADDGA1061+999991081GE19MSL   +99999+99999GF106991061990999999991991KA1240N+01881MA1999990091721MD1909990+0021REMSYN06483339 32497 609// 10211 20164 39172 40128 86200 333 20188 58002=
0163833390999992014031318004-14050-042617FM-12+088299999V0209999C000019999999N010000199+02931+01261100861ADDGA1031+999991081GE19MSL   +99999+99999GF103991031990999999991991MA1999990091441MD1909990+0041REMSYN05883339 32497 314// 10293 20126 39144 40086 83200 333 58004=
0198833390999992014031412004-14050-042617FM-12+088299999V0209999C000019999999N004000199+02121+01681101171ADDGA1991+999991051GA2061+999991081GE19MSL   +99999+99999GF107991990990999999991991KA1240N+01901MA1999990091641MD1909990-0081REMSYN06483339 32496 714// 10212 20168 39164 40117 8622/ 333 20190 59008=
0179833390999992014031418004-14050-042617FM-12+088299999V0209999C000019999999N010000199+02871+01411100781ADDGA1991+999991001GA2031+999991081GE19MSL   +99999+99999GF104991990990999999991991MA1999990091361MD1909990-0081REMSYN05883339 32497 409// 10287 20141 39136 40078 83202 333 59008=
0182833390999992014031512004-14050-042617FM-12+088299999V0209999C000019999999N010000199+02071+01621101181ADDGA1061+999991081GE19MSL   +99999+99999GF106991061990999999991991KA1240N+01861MA1999990091611MD1909990-0031REMSYN06483339 32497 609// 10207 20162 39161 40118 86200 333 20186 59003=
0163833390999992014031518004-14050-042617FM-12+088299999V0209999C000019999999N010000199+02891+01351100771ADDGA1031+999991081GE19MSL   +99999+99999GF103991031990999999991991MA1999990091341MD1909990-0021REMSYN05883339 32497 305// 10289 20135 39134 40077 83200 333 59002=
0243833390999992014031612004-14050-042617FM-12+088299999V0209999C000019999999N004000199+01991+01721101321ADDAA124000431AY161021AY261021GA1991+999991051GA2051+999991081GE19MSL   +99999+99999GF108991990990999999991991KA1240N+01801MA1999990091641MD1909990+0031MW1101REMSYN07683339 21496 814// 10199 20172 39164 40132 71066 85220 333 20180 58003 69944=
0179833390999992014031618004-14050-042617FM-12+088299999V0209999C000019999999N010000199+02801+01501100911ADDGA1011+999991081GA2991+999991001GE19MSL   +99999+99999GF104991011990999999991991MA1999990091401MD1909990+0061REMSYN05883339 32497 409// 10280 20150 39140 40091 81104 333 58006=
0214833390999992014031712004-14050-042617FM-12+088299999V0209999C000019999999N010000199+02151+01741101351ADDGA1021+999991081GA2991+999991001GA3991+999991031GE19MSL   +99999+99999GF106991021990999999991991KA1240N+01861MA1999990091751MD1909990+0111REMSYN06483339 32497 609// 10215 20174 39175 40135 82131 333 20186 58011=
0179833390999992014031718004-14050-042617FM-12+088299999V0209999C000019999999N010000199+02811+01711100901ADDGA1991+999991001GA2031+999991081GE19MSL   +99999+99999GF106991990990999999991991MA1999990091431MD1909990+0031REMSYN05883339 32497 609// 10281 20171 39143 40090 83101 333 58003=
0182833390999992014031812004-14050-042617FM-12+088299999V0209999C000019999999N010000199+02191+01861101341ADDGA1051+999991081GE19MSL   +99999+99999GF105991051990999999991991KA1240N+01941MA1999990091791MD1909990+0041REMSYN06483339 32497 514// 10219 20186 39179 40134 85200 333 20194 58004=
0179833390999992014031818004-14050-042617FM-12+088299999V0209999C000019999999N010000199+02931+01761100881ADDGA1991+999991031GA2031+999991081GE19MSL   +99999+99999GF104991990990999999991991MA1999990091451MD1909990+0021REMSYN05883339 32497 414// 10293 20176 39145 40088 83130 333 58002=
0182833390999992014031912004-14050-042617FM-12+088299999V0209999C000019999999N010000199+02151+01841101261ADDGA1061+999991081GE19MSL   +99999+99999GF106991061990999999991991KA1240N+01941MA1999990091701MD1909990-0091REMSYN06483339 32497 609// 10215 20184 39170 40126 86200 333 20194 59009=
0179833390999992014031918004-14050-042617FM-12+088299999V0209999C000019999999N010000199+02861+01721100731ADDGA1991+999991001GA2041+999991081GE19MSL   +99999+99999GF105991990990999999991991MA1999990091321MD1909990-0131REMSYN05883339 32497 509// 10286 20172 39132 40073 84201 333 59013=
0182833390999992014032012004-14050-042617FM-12+088299999V0209999C000019999999N010000199+02351+01931101201ADDGA1041+999991081GE19MSL   +99999+99999GF104991041990999999991991KA1240N+01941MA1999990091681MD1909990-0021REMSYN06483339 32497 409// 10235 20193 39168 40120 84100 333 20194 59002=
0163833390999992014032018004-14050-042617FM-12+088299999V0209999C000019999999N010000199+03071+01781100641ADDGA1041+999991081GE19MSL   +99999+99999GF104991041990999999991991MA1999990091271MD1909990-0051REMSYN05883339 32497 405// 10307 20178 39127 40064 84200 333 59005=
0182833390999992014032112004-14050-042617FM-12+088299999V0209999C000019999999N010000199+02381+01951101211ADDGA1031+999991081GE19MSL   +99999+99999GF103991031990999999991991KA1240N+01961MA1999990091731MD1909990+0051REMSYN06483339 32497 314// 10238 20195 39173 40121 83100 333 20196 58005=
0163833390999992014032118004-14050-042617FM-12+088299999V0209999C000019999999N010000199+03131+01691100741ADDGA1021+999991081GE19MSL   +99999+99999GF102991021990999999991991MA1999990091381MD1909990+0111REMSYN05883339 32497 218// 10313 20169 39138 40074 82100 333 58011=
0182833390999992014032212004-14050-042617FM-12+088299999V0209999C000019999999N010000199+02431+01951101221ADDGA1021+999991081GE19MSL   +99999+99999GF102991021990999999991991KA1240N+01991MA1999990091761MD1909990+0031REMSYN06483339 32497 205// 10243 20195 39176 40122 82100 333 20199 58003=
0163833390999992014032218004-14050-042617FM-12+088299999V0209999C000019999999N010000199+03171+01771100661ADDGA1021+999991081GE19MSL   +99999+99999GF102991021990999999991991MA1999990091331MD1909990-0051REMSYN05883339 32497 218// 10317 20177 39133 40066 82100 333 59005=
0198833390999992014032312004-14050-042617FM-12+088299999V0209999C000019999999N010000199+02451+02091101041ADDGA1991+999991001GA2041+999991081GE19MSL   +99999+99999GF105991990990999999991991KA1240N+02071MA1999990091601MD1909990-0161REMSYN06483339 32497 518// 10245 20209 39160 40104 84101 333 20207 59016=
0179833390999992014032318004-14050-042617FM-12+088299999V0209999C000019999999N010000199+03121+01821100551ADDGA1991+999991001GA2021+999991081GE19MSL   +99999+99999GF105991990990999999991991MA1999990091221MD1909990-0111REMSYN05883339 32497 518// 10312 20182 39122 40055 82201 333 59011=
0210833390999992014032412004-14050-042617FM-12+088299999V0209999C000019999999N010000199+02211+01921101921ADDAY101021AY201021GA1061+999991081GE19MSL   +99999+99999GF106991061990999999991991KA1240N+02081MA1999990091701MD1909990+0101MW1101REMSYN07083339 31497 609// 10221 20192 39170 40192 71000 86200 333 20208 58010=
0179833390999992014032418004-14050-042617FM-12+088299999V0209999C000019999999N010000199+02931+01421100771ADDGA1991+999991051GA2041+999991081GE19MSL   +99999+99999GF105991990990999999991991MA1999990091391MD1909990+0171REMSYN05883339 32497 518// 10293 20142 39139 40077 84220 333 58017=
0193833390999992014032500004-14050-042617FM-12+088299999V0209999C000019999999N002000199+02471+01581101091ADDGA1021+999991081GE19MSL   +99999+99999GF102991021990999999991991KA1120M+03061KA2120N+00601MA1999990091561REMSYN07683339 32495 218// 10247 20158 39156 40109 82200 333 10306 29060 55057 58016=
0182833390999992014032512004-14050-042617FM-12+088299999V0209999C000019999999N010000199+02271+01861101351ADDGA1061+999991081GE19MSL   +99999+99999GF106991061990999999991991KA1240N+02061MA1999990091801MD1909990+0101REMSYN06483339 32497 614// 10227 20186 39180 40135 86200 333 20206 58010=
0163833390999992014032518004-14050-042617FM-12+088299999V0209999C000019999999N010000199+02991+01471100901ADDGA1041+999991081GE19MSL   +99999+99999GF104991041990999999991991MA1999990091491MD1909990+0101REMSYN05883339 32497 418// 10299 20147 39149 40090 84200 333 58010=
0123833390999992014032600004-14050-042617FM-12+088299999V0209999C000019999999N002000199+02591+01331101091ADDKA1120M+03121KA2120N+00521MA1999990091601REMSYN07083339 32995 014// 10259 20133 39160 40109 333 10312 29052 55092 58004=
0182833390999992014032612004-14050-042617FM-12+088299999V0209999C000019999999N010000199+02431+01821101261ADDGA1051+999991081GE19MSL   +99999+99999GF105991051990999999991991KA1240N+02031MA1999990091771MD1909990-0031REMSYN06483339 32497 509// 10243 20182 39177 40126 85200 333 20203 59003=
0163833390999992014032618004-14050-042617FM-12+088299999V0209999C000019999999N010000199+03011+01371100771ADDGA1041+999991081GE19MSL   +99999+99999GF104991041990999999991991MA1999990091391MD1909990-0101REMSYN05883339 32497 414// 10301 20137 39139 40077 84200 333 59010=
0193833390999992014032700004-14050-042617FM-12+088299999V0209999C000019999999N002000199+02571+01501101051ADDGA1021+999991081GE19MSL   +99999+99999GF102991021990999999991991KA1120M+03241KA2120N+00521MA1999990091581REMSYN07683339 32495 214// 10257 20150 39158 40105 82200 333 10324 29052 55102 59002=
0227833390999992014032712004-14050-042617FM-12+088299999V0209999C000019999999N010000199+02191+01971101211ADDAA124022031AY191021AY261021GA1061+999991081GE19MSL   +99999+99999GF106991061990999999991991KA1240N+02001MA1999990091691MD1909990-0081MW1101REMSYN07683339 21497 636// 10219 20197 39169 40121 71096 86200 333 20200 59008 60224=
0179833390999992014032718004-14050-042617FM-12+088299999V0209999C000019999999N010000199+02591+01851100801ADDGA1991+999991051GA2051+999991081GE19MSL   +99999+99999GF106991990990999999991991MA1999990091341MD1909990-0051REMSYN05883339 32497 609// 10259 20185 39134 40080 85220 333 59005=
0221833390999992014032800004-14050-042617FM-12+088299999V0209999C000019999999N002000199+02151+01931101171ADDAY101021AY201021GA1031+999991081GE19MSL   +99999+99999GF103991031990999999991991KA1120M+02881KA2120N+00821MA1999990091551MW1101REMSYN08283339 31495 309// 10215 20193 39155 40117 71000 83200 333 10288 29082 55059 59003=
0227833390999992014032812004-14050-042617FM-12+088299999V0209999C000019999999N004000199+01911+01851101331ADDAA124006031AY161021AY261021GA1081+999991061GE19MSL   +99999+99999GF108991081990999999991991KA1240N+01901MA1999990091661MD1909990-0031MW1101REMSYN07683339 21496 809// 10191 20185 39166 40133 71066 885// 333 20190 59003 60064=
0179833390999992014032818004-14050-042617FM-12+088299999V0209999C000019999999N010000199+02691+01611100801ADDGA1991+999991001GA2011+999991081GE19MSL   +99999+99999GF102991990990999999991991MA1999990091301MD1909990-0041REMSYN05883339 32497 214// 10269 20161 39130 40080 81202 333 59004=
0193833390999992014032900004-14050-042617FM-12+088299999V0209999C000019999999N002000199+02351+01571101101ADDGA1021+999991081GE19MSL   +99999+99999GF102991021990999999991991KA1120M+02781KA2120N+00681MA1999990091491REMSYN07683339 32495 218// 10235 20157 39149 40110 82200 333 10278 29068 55062 59006=
0226833390999992014032912004-14050-042617FM-12+088299999V0209999C000019999999N002000199+02051+01851101321ADDAY101021AY201021GA1991+999991051GA2061+999991081GE19MSL   +99999+99999GF107991990990999999991991KA1240N+01931MA1999990091711MD1909990+0051MW1101REMSYN07083339 31495 705// 10205 20185 39171 40132 71000 8622/ 333 20193 58005=
0179833390999992014032918004-14050-042617FM-12+088299999V0209999C000019999999N010000199+02731+01351100801ADDGA1991+999991001GA2041+999991081GE19MSL   +99999+99999GF105991990990999999991991MA1999990091341MD1909990+0041REMSYN05883339 32497 509// 10273 20135 39134 40080 84204 333 58004=
0210833390999992014033012004-14050-042617FM-12+088299999V0209999C000019999999N004000199+02071+01871101421ADDAY101021AY201021GA1081+999991061GE19MSL   +99999+99999GF108991081990999999991991KA1240N+02001MA1999990091801MD1909990+0091MW1101REMSYN07083339 31496 818// 10207 20187 39180 40142 71000 885// 333 20200 58009=
0179833390999992014033018004-14050-042617FM-12+088299999V0209999C000019999999N010000199+02691+01611101001ADDGA1991+999991051GA2051+999991081GE19MSL   +99999+99999GF106991990990999999991991MA1999990091501MD1909990+0161REMSYN05883339 32497 614// 10269 20161 39150 40100 85220 333 58016=
0182833390999992014033112004-14050-042617FM-12+088299999V0209999C000019999999N010000199+02201+01941101461ADDGA1051+999991081GE19MSL   +99999+99999GF105991051990999999991991KA1240N+01961MA1999990091851MD1909990+0051REMSYN06483339 32497 509// 10220 20194 39185 40146 85100 333 20196 58005=
0163833390999992014033118004-14050-042617FM-12+088299999V0209999C000019999999N010000199+02871+01641100961ADDGA1031+999991081GE19MSL   +99999+99999GF103991031990999999991991MA1999990091501MD1909990+0001REMSYN05883339 32497 309// 10287 20164 39150 40096 83100 333 58000=
0123833390999992014040100004-14050-042617FM-12+088299999V0209999C000019999999N002000199+02511+01431101121ADDKA1120M+02931KA2120N+00591MA1999990091591REMSYN07083339 32995 018// 10251 20143 39159 40112 333 10293 29059 55094 59004=
0182833390999992014040112004-14050-042617FM-12+088299999V0209999C000019999999N010000199+02251+01881101331ADDGA1061+999991081GE19MSL   +99999+99999GF106991061990999999991991KA1240N+01981MA1999990091801MD1909990-0051REMSYN06483339 32497 618// 10225 20188 39180 40133 86200 333 20198 59005=
0163833390999992014040118004-14050-042617FM-12+088299999V0209999C000019999999N010000199+02891+01691100851ADDGA1021+999991081GE19MSL   +99999+99999GF102991021990999999991991MA1999990091431MD1909990-0071REMSYN05883339 32497 218// 10289 20169 39143 40085 82100 333 59007=
0123833390999992014040200004-14050-042617FM-12+088299999V0209999C000019999999N002000199+02491+01671101091ADDKA1120M+02971KA2120N+00621MA1999990091561REMSYN07083339 32995 018// 10249 20167 39156 40109 333 10297 29062 55097 59003=
0198833390999992014040212004-14050-042617FM-12+088299999V0209999C000019999999N010000199+02251+01921101241ADDGA1991+999991051GA2051+999991061GE19MSL   +99999+99999GF108991990990999999991991KA1240N+01991MA1999990091701MD1909990-0101REMSYN06483339 32497 814// 10225 20192 39170 40124 8552/ 333 20199 59010=
0179833390999992014040218004-14050-042617FM-12+088299999V0209999C000019999999N010000199+02931+01761100731ADDGA1991+999991001GA2031+999991081GE19MSL   +99999+99999GF104991990990999999991991MA1999990091341MD1909990-0091REMSYN05883339 32497 409// 10293 20176 39134 40073 83101 333 59009=
0123833390999992014040300004-14050-042617FM-12+088299999V0209999C000019999999N002000199+02541+01631100971ADDKA1120M+03031KA2120N+00611MA1999990091471REMSYN07083339 32995 014// 10254 20163 39147 40097 333 10303 29061 55075 59009=
0182833390999992014040312004-14050-042617FM-12+088299999V0209999C000019999999N010000199+02351+01971101151ADDGA1021+999991081GE19MSL   +99999+99999GF102991021990999999991991KA1240N+01921MA1999990091651MD1909990-0051REMSYN06483339 32497 209// 10235 20197 39165 40115 82100 333 20192 59005=
0163833390999992014040318004-14050-042617FM-12+088299999V0209999C000019999999N010000199+03051+01661100581ADDGA1031+999991081GE19MSL   +99999+99999GF103991031990999999991991MA1999990091221MD1909990-0121REMSYN05883339 32497 318// 10305 20166 39122 40058 83100 333 59012=
0193833390999992014040400004-14050-042617FM-12+088299999V0209999C000019999999N002000199+02611+01671100911ADDGA1041+999991081GE19MSL   +99999+99999GF104991041990999999991991KA1120M+03131KA2120N+00591MA1999990091461REMSYN07683339 32495 418// 10261 20167 39146 40091 84100 333 10313 29059 55091 59001=
0243833390999992014040412004-14050-042617FM-12+088299999V0209999C000019999999N010000199+02331+02011101211ADDAA124000631AY161021AY221021GA1031+999991081GA2991+999991001GE19MSL   +99999+99999GF104991031990999999991991KA1240N+02101MA1999990091711MD1909990+0061MW1021REMSYN07683339 21497 409// 10233 20201 39171 40121 70262 83101 333 20210 58006 69964=
0163833390999992014040418004-14050-042617FM-12+088299999V0209999C000019999999N010000199+02871+02001100831ADDGA1061+999991081GE19MSL   +99999+99999GF106991061990999999991991MA1999990091431MD1909990+0211REMSYN05883339 32497 627// 10287 20200 39143 40083 86200 333 58021=
0238833390999992014040500004-14050-042617FM-12+088299999V0209999C000019999999N002000199+02341+01951101231ADDAA106000231AY161021AY221021GA1021+999991081GE19MSL   +99999+99999GF102991021990999999991991KA1120M+03141KA2120N+00741MA1999990091691MW1021REMSYN08883339 21495 218// 10234 20195 39169 40123 70262 82100 333 10314 29074 55068 58023 69921=
0243833390999992014040512004-14050-042617FM-12+088299999V0209999C000019999999N002000199+02081+02001101521ADDAA124000231AY161021AY221021GA1991+999991051GA2051+999991061GE19MSL   +99999+99999GF108991990990999999991991KA1240N+01991MA1999990091891MD1909990+0181MW1401REMSYN07683339 21495 809// 10208 20200 39189 40152 74062 8552/ 333 20199 58018 69924=
0191833390999992014040518004-14050-042617FM-12+088299999V0209999C000019999999N010000199+02831+01791100961ADDAY141021AY221021GA1031+999991081GE19MSL   +99999+99999GF103991031990999999991991MA1999990091501MD1909990+0071MW1021REMSYN06483339 31497 309// 10283 20179 39150 40096 70242 83200 333 58007=
0243833390999992014040612004-14050-042617FM-12+088299999V0209999C000019999999N010000199+02101+01931101511ADDAA124000631AY161021AY221021GA1991+999991051GA2061+999991061GE19MSL   +99999+99999GF108991990990999999991991KA1240N+01981MA1999990091901MD1909990+0011MW1021REMSYN07683339 21497 809// 10210 20193 39190 40151 70262 8652/ 333 20198 58001 69964=
0163833390999992014040618004-14050-042617FM-12+088299999V0209999C000019999999N010000199+02811+01861100961ADDGA1051+999991081GE19MSL   +99999+99999GF105991051990999999991991MA1999990091501MD1909990+0001REMSYN05883339 32497 518// 10281 20186 39150 40096 85200 333 58000=
0210833390999992014040712004-14050-042617FM-12+088299999V0209999C000019999999N004000199+02111+01881101311ADDAY101021AY201021GA1081+999991061GE19MSL   +99999+99999GF108991081990999999991991KA1240N+02001MA1999990091721MD1909990-0181MW1101REMSYN07083339 31496 809// 10211 20188 39172 40131 71000 885// 333 20200 59018=
0163833390999992014040718004-14050-042617FM-12+088299999V0209999C000019999999N010000199+02771+01561100771ADDGA1051+999991081GE19MSL   +99999+99999GF105991051990999999991991MA1999990091341MD1909990-0161REMSYN05883339 32497 518// 10277 20156 39134 40077 85200 333 59016=
0254833390999992014040800004-14050-042617FM-12+088299999V0209999C000019999999N002000199+02231+02051101171ADDAA106004031AY161021AY261021GA1991+999991031GA2051+999991081GE19MSL   +99999+99999GF106991990990999999991991KA1120M+02961KA2120N+00791MA1999990091551MW1101REMSYN08883339 21495 60000 10223 20205 39155 40117 71066 85230 333 10296 29079 55055 59012 60041=
0227833390999992014040812004-14050-042617FM-12+088299999V0209999C000019999999N010000199+02431+01931101121ADDAA124004031AY161021AY261021GA1021+999991081GE19MSL   +99999+99999GF102991021990999999991991KA1240N+02001MA1999990091591MD1909990-0131MW1021REMSYN07683339 21497 209// 10243 20193 39159 40112 70266 82200 333 20200 59013 60044=
0163833390999992014040818004-14050-042617FM-12+088299999V0209999C000019999999N010000199+02691+01841100781ADDGA1041+999991081GE19MSL   +99999+99999GF104991041990999999991991MA1999990091301MD1909990-0041REMSYN05883339 32497 40000 10269 20184 39130 40078 84200 333 59004=
0254833390999992014040900004-14050-042617FM-12+088299999V0209999C000019999999N002000199+02151+02091101141ADDAA106011031AY191021AY261021GA1991+999991051GA2061+999991081GE19MSL   +99999+99999GF107991990990999999991991KA1120M+03001KA2120N+00821MA1999990091591MW1601REMSYN08883339 21495 709// 10215 20209 39159 40114 76096 8622/ 333 10300 29082 55060 58004 60111=
0243833390999992014040912004-14050-042617FM-12+088299999V0209999C000019999999N010000199+02231+01821101311ADDAA124013031AY161021AY261021GA1991+999991031GA2051+999991081GE19MSL   +99999+99999GF106991990990999999991991KA1240N+01981MA1999990091701MD1909990+0111MW1021REMSYN07683339 21497 60000 10223 20182 39170 40131 70266 85230 333 20198 58011 60134=
0224833390999992014040918004-14050-042617FM-12+088299999V0209999C000019999999N010000199+02651+01951100751ADDAA106001031AY161021AY261021GA1991+999991051GA2041+999991081GE19MSL   +99999+99999GF105991990990999999991991MA1999990091251MD1909990-0051MW1601REMSYN07083339 21497 50000 10265 20195 39125 40075 76066 84220 333 59005 60011=
0238833390999992014041000004-14050-042617FM-12+088299999V0209999C000019999999N002000199+02331+01961100921ADDAA106000631AY161021AY261021GA1031+999991081GE19MSL   +99999+99999GF103991031990999999991991KA1120M+02861KA2120N+00761MA1999990091391MW1101REMSYN08883339 21495 30000 10233 20196 39139 40092 71066 83200 333 10286 29076 55052 59020 69961=
0227833390999992014041012004-14050-042617FM-12+088299999V0209999C000019999999N010000199+02371+01951101131ADDAA124002031AY161021AY261021GA1021+999991081GE19MSL   +99999+99999GF102991021990999999991991KA1240N+01981MA1999990091591MD1909990-0101MW1021REMSYN07683339 21497 209// 10237 20195 39159 40113 70266 82200 333 20198 59010 60024=
0224833390999992014041018004-14050-042617FM-12+088299999V0209999C000019999999N010000199+02371+01991100871ADDAA106004031AY161021AY261021GA1991+999991051GA2051+999991081GE19MSL   +99999+99999GF106991990990999999991991MA1999990091331MD1909990+0081MW1101REMSYN07083339 21497 60000 10237 20199 39133 40087 71066 85220 333 58008 60041=
0221833390999992014041100004-14050-042617FM-12+088299999V0209999C000019999999N002000199+02191+01971101131ADDAY101021AY201021GA1021+999991081GE19MSL   +99999+99999GF102991021990999999991991KA1120M+02981KA2120N+00841MA1999990091581MW1101REMSYN08283339 31495 218// 10219 20197 39158 40113 71000 82200 333 10298 29084 55064 58019=
0227833390999992014041112004-14050-042617FM-12+088299999V0209999C000019999999N010000199+02291+01941101311ADDAA124004031AY161021AY261021GA1061+999991081GE19MSL   +99999+99999GF106991061990999999991991KA1240N+02001MA1999990091721MD1909990+0121MW1101REMSYN07683339 21497 614// 10229 20194 39172 40131 71066 86200 333 20200 58012 60044=
0163833390999992014041118004-14050-042617FM-12+088299999V0209999C000019999999N010000199+02871+01551100801ADDGA1031+999991081GE19MSL   +99999+99999GF103991031990999999991991MA1999990091361MD1909990+0031REMSYN05883339 32497 309// 10287 20155 39136 40080 83200 333 58003=
0123833390999992014041200004-14050-042617FM-12+088299999V0209999C000019999999N002000199+02431+01301101011ADDKA1120M+02981KA2120N+00571MA1999990091491REMSYN07083339 32995 014// 10243 20130 39149 40101 333 10298 29057 55093 59009=
0198833390999992014041212004-14050-042617FM-12+088299999V0209999C000019999999N010000199+02151+01571101321ADDGA1991+999991001GA2011+999991081GE19MSL   +99999+99999GF102991990990999999991991KA1240N+01921MA1999990091751MD1909990+0031REMSYN06483339 32497 209// 10215 20157 39175 40132 81202 333 20192 58003=
0163833390999992014041218004-14050-042617FM-12+088299999V0209999C000019999999N010000199+02751+01221100981ADDGA1041+999991081GE19MSL   +99999+99999GF104991041990999999991991MA1999990091501MD1909990+0141REMSYN05883339 32497 418// 10275 20122 39150 40098 84200 333 58014=
0210833390999992014041312004-14050-042617FM-12+088299999V0209999C000019999999N004000199+02071+01851101331ADDAY101021AY201021GA1081+999991061GE19MSL   +99999+99999GF108991081990999999991991KA1240N+01961MA1999990091701MD1909990-0051MW1101REMSYN07083339 31496 809// 10207 20185 39170 40133 71000 885// 333 20196 59005=
0163833390999992014041318004-14050-042617FM-12+088299999V0209999C000019999999N010000199+02891+01311100731ADDGA1021+999991081GE19MSL   +99999+99999GF102991021990999999991991MA1999990091301MD1909990-0201REMSYN05883339 32497 223// 10289 20131 39130 40073 82200 333 59020=
0182833390999992014041412004-14050-042617FM-12+088299999V0209999C000019999999N010000199+02391+01931101191ADDGA1021+999991081GE19MSL   +99999+99999GF102991021990999999991991KA1240N+02091MA1999990091691MD1909990-0011REMSYN06483339 32497 209// 10239 20193 39169 40119 82100 333 20209 59001=
0163833390999992014041418004-14050-042617FM-12+088299999V0209999C000019999999N010000199+03031+01641100641ADDGA1031+999991081GE19MSL   +99999+99999GF103991031990999999991991MA1999990091271MD1909990-0031REMSYN05883339 32497 309// 10303 20164 39127 40064 83100 333 59003=
0123833390999992014041500004-14050-042617FM-12+088299999V0209999C000019999999N002000199+02521+01691100971ADDKA1120M+03121KA2120N+00601MA1999990091491REMSYN07083339 32995 014// 10252 20169 39149 40097 333 10312 29060 55093 58005=
0182833390999992014041512004-14050-042617FM-12+088299999V0209999C000019999999N010000199+02291+01871101251ADDGA1051+999991081GE19MSL   +99999+99999GF105991051990999999991991KA1240N+02101MA1999990091731MD1909990+0041REMSYN06483339 32497 509// 10229 20187 39173 40125 85200 333 20210 58004=
0163833390999992014041518004-14050-042617FM-12+088299999V0209999C000019999999N010000199+02931+01551100671ADDGA1021+999991081GE19MSL   +99999+99999GF102991021990999999991991MA1999990091281MD1909990+0011REMSYN05883339 32497 218// 10293 20155 39128 40067 82100 333 58001=
0193833390999992014041600004-14050-042617FM-12+088299999V0209999C000019999999N002000199+02431+01661100941ADDGA1021+999991081GE19MSL   +99999+99999GF102991021990999999991991KA1120M+03001KA2120N+00611MA1999990091431REMSYN07683339 32495 218// 10243 20166 39143 40094 82100 333 10300 29061 55090 59006=
0112833390999992014041612004-14050-042617FM-12+088299999V0209999C000019999999N010000199+02241+01611101251ADDKA1240N+01901MA1999990091711MD1909990-0021REMSYN05883339 32997 009// 10224 20161 39171 40125 333 20190 59002=
0093833390999992014041618004-14050-042617FM-12+088299999V0209999C000019999999N010000199+02931+01361100761ADDMA1999990091341MD1909990+0061REMSYN05283339 32997 009// 10293 20136 39134 40076 333 58006=
0182833390999992014041712004-14050-042617FM-12+088299999V0209999C000019999999N010000199+02231+01671101191ADDGA1041+999991081GE19MSL   +99999+99999GF104991041990999999991991KA1240N+01921MA1999990091651MD1909990-0061REMSYN06483339 32497 409// 10223 20167 39165 40119 84200 333 20192 59006=
0163833390999992014041718004-14050-042617FM-12+088299999V0209999C000019999999N010000199+02891+00901100741ADDGA1021+999991081GE19MSL   +99999+99999GF102991021990999999991991MA1999990091331MD1909990-0011REMSYN05883339 32497 214// 10289 20090 39133 40074 82200 333 59001=
0182833390999992014041812004-14050-042617FM-12+088299999V0209999C000019999999N010000199+02391+01801101191ADDGA1031+999991081GE19MSL   +99999+99999GF103991031990999999991991KA1240N+01901MA1999990091671MD1909990+0021REMSYN06483339 32497 309// 10239 20180 39167 40119 83200 333 20190 58002=
0163833390999992014041818004-14050-042617FM-12+088299999V0209999C000019999999N010000199+02931+01421100741ADDGA1051+999991081GE19MSL   +99999+99999GF105991051990999999991991MA1999990091331MD1909990+0001REMSYN05883339 32497 514// 10293 20142 39133 40074 85200 333 58000=
0182833390999992014041912004-14050-042617FM-12+088299999V0209999C000019999999N010000199+02231+01711101321ADDGA1061+999991081GE19MSL   +99999+99999GF106991061990999999991991KA1240N+01981MA1999990091751MD1909990+0081REMSYN06483339 32497 609// 10223 20171 39175 40132 86200 333 20198 58008=
0179833390999992014041918004-14050-042617FM-12+088299999V0209999C000019999999N010000199+03091+00961100811ADDGA1991+999991051GA2031+999991081GE19MSL   +99999+99999GF104991990990999999991991MA1999990093432MD1909990+0101REMSYN05883339 32497 414// 10309 20096 39343 40081 83220 333 58010=
0182833390999992014042012004-14050-042617FM-12+088299999V0209999C000019999999N010000199+02311+01721101301ADDGA1021+999991081GE19MSL   +99999+99999GF102991021990999999991991KA1240N+01981MA1999990091791MD1909990+0041REMSYN06483339 32497 214// 10231 20172 39179 40130 82200 333 20198 58004=
0163833390999992014042018004-14050-042617FM-12+088299999V0209999C000019999999N010000199+02991+01041100831ADDGA1021+999991081GE19MSL   +99999+99999GF102991021990999999991991MA1999990091431MD1909990+0001REMSYN05883339 32497 218// 10299 20104 39143 40083 82200 333 58000=
0198833390999992014042112004-14050-042617FM-12+088299999V0209999C000019999999N010000199+02291+01791101211ADDGA1991+999991001GA2011+999991081GE19MSL   +99999+99999GF102991990990999999991991KA1240N+01821MA1999990091671MD1909990-0121REMSYN06483339 32497 209// 10229 20179 39167 40121 81202 333 20182 59012=
0163833390999992014042118004-14050-042617FM-12+088299999V0209999C000019999999N010000199+02971+01291100681ADDGA1041+999991081GE19MSL   +99999+99999GF104991041990999999991991MA1999990091271MD1909990-0161REMSYN05883339 32497 405// 10297 20129 39127 40068 84200 333 59016=
0198833390999992014042212004-14050-042617FM-12+088299999V0209999C000019999999N010000199+02311+01751101171ADDGA1991+999991001GA2051+999991081GE19MSL   +99999+99999GF106991990990999999991991KA1240N+01921MA1999990091641MD1909990-0031REMSYN06483339 32497 609// 10231 20175 39164 40117 85202 333 20192 59003=
0163833390999992014042218004-14050-042617FM-12+088299999V0209999C000019999999N010000199+02911+01241100711ADDGA1021+999991081GE19MSL   +99999+99999GF103991021990999999991991MA1999990091301MD1909990+0031REMSYN05883339 32497 309// 10291 20124 39130 40071 82200 333 58003=
0198833390999992014042312004-14050-042617FM-12+088299999V0209999C000019999999N010000199+02231+01651101221ADDGA1991+999991051GA2051+999991081GE19MSL   +99999+99999GF106991990990999999991991KA1240N+01881MA1999990091661MD1909990+0021REMSYN06483339 32497 614// 10223 20165 39166 40122 85220 333 20188 58002=
0179833390999992014042318004-14050-042617FM-12+088299999V0209999C000019999999N010000199+02891+01391100771ADDGA1991+999991051GA2051+999991081GE19MSL   +99999+99999GF106991990990999999991991MA1999990091341MD1909990+0041REMSYN05883339 32497 609// 10289 20139 39134 40077 85220 333 58004=
0112833390999992014042412004-14050-042617FM-12+088299999V0209999C000019999999N010000199+02401+01651101221ADDKA1240N+01841MA1999990091701MD1909990+0041REMSYN05883339 32997 009// 10240 20165 39170 40122 333 20184 58004=
0179833390999992014042418004-14050-042617FM-12+088299999V0209999C000019999999N010000199+03061+01421100691ADDGA1991+999991001GA2041+999991081GE19MSL   +99999+99999GF105991990990999999991991MA1999990091301MD1909990-0041REMSYN05883339 32497 523// 10306 20142 39130 40069 84201 333 59004=
0112833390999992014042512004-14050-042617FM-12+088299999V0209999C000019999999N010000199+02531+01631100921ADDKA1240N+02001MA1999990091491MD1909990-0211REMSYN05883339 32997 014// 10253 20163 39149 40092 333 20200 59021=
0163833390999992014042518004-14050-042617FM-12+088299999V0209999C000019999999N010000199+03231+01211100401ADDGA1051+999991081GE19MSL   +99999+99999GF105991051990999999991991MA1999990091101MD1909990-0201REMSYN05883339 32497 532// 10323 20121 39110 40040 85100 333 59020=
0243833390999992014042612004-14050-042617FM-12+088299999V0209999C000019999999N002000199+02091+01981101211ADDAA124001031AY161021AY221021GA1991+999991051GA2051+999991061GE19MSL   +99999+99999GF108991990990999999991991KA1240N+02091MA1999990091671MD1909990+0181MW1401REMSYN07683339 21495 814// 10209 20198 39167 40121 74062 8552/ 333 20209 58018 60014=
0207833390999992014042618004-14050-042617FM-12+088299999V0209999C000019999999N010000199+02121+01891100851ADDAY141021AY221021GA1991+999991051GA2061+999991081GE19MSL   +99999+99999GF108991990990999999991991MA1999990091311MD1909990+0211MW1021REMSYN06483339 31497 814// 10212 20189 39131 40085 70242 8622/ 333 58021=
0243833390999992014042712004-14050-042617FM-12+088299999V0209999C000019999999N002000199+01841+01711101661ADDAA124004031AY161021AY221021GA1991+999991051GA2041+999991081GE19MSL   +99999+99999GF108991990990999999991991KA1240N+01821MA1999990091901MD1909990+0231MW1401REMSYN07683339 21495 814// 10184 20171 39190 40166 74062 8422/ 333 20182 58023 60044=
0207833390999992014042718004-14050-042617FM-12+088299999V0209999C000019999999N010000199+02211+01801101221ADDAY141021AY221021GA1991+999991031GA2061+999991081GE19MSL   +99999+99999GF107991990990999999991991MA1999990091561MD1909990+0251MW1021REMSYN06483339 31497 705// 10221 20180 39156 40122 70242 86230 333 58025=
0182833390999992014042812004-14050-042617FM-12+088299999V0209999C000019999999N010000199+02991+01661101751ADDGA1062+999991081GE19MSL   +99999+99999GF105992062990999999991991KA1240N+01781MA1999990092021MD1909990+0121REMSYN06483339 32497 509// 10299 20166 39202 40175 86200 333 20178 58012=
0179833390999992014042818004-14050-042617FM-12+088299999V0209999C000019999999N010000199+02481+01141101341ADDGA1991+999991001GA2011+999991081GE19MSL   +99999+99999GF102991990990999999991991MA1999990091731MD1909990+0171REMSYN05883339 32497 209// 10248 20114 39173 40134 81101 333 58017=
0123833390999992014042900004-14050-042617FM-12+088299999V0209999C000019999999N002000199+01991+01171101501ADDKA1120M+02581KA2120N+00611MA1999990091791REMSYN07083339 32995 009// 10199 20117 39179 40150 333 10258 29061 55092 58002=
0182833390999992014042912004-14050-042617FM-12+088299999V0209999C000019999999N010000199+01731+01271101811ADDGA1061+999991081GE19MSL   +99999+99999GF106991061990999999991991KA1240N+01541MA1999990092021MD1909990+0001REMSYN06483339 32497 609// 10173 20127 39202 40181 86200 333 20154 58000=
0179833390999992014042918004-14050-042617FM-12+088299999V0209999C000019999999N010000199+02341+01331101361ADDGA1991+999991001GA2031+999991081GE19MSL   +99999+99999GF105991990990999999991991MA1999990091691MD1909990-0041REMSYN05883339 32497 509// 10234 20133 39169 40136 83101 333 59004=
0193833390999992014043000004-14050-042617FM-12+088299999V0209999C000019999999N002000199+01911+01341101671ADDGA1021+999991081GE19MSL   +99999+99999GF102991021990999999991991KA1120M+02411KA2120N+00661MA1999990091871REMSYN07683339 32495 214// 10191 20134 39187 40167 82100 333 10241 29066 55061 58008=
0182833390999992014043012004-14050-042617FM-12+088299999V0209999C000019999999N010000199+01771+01311101561ADDGA1041+004501081GE19MSL   +99999+99999GF104991041990004501991991KA1240N+01501MA1999990091791MD1909990-0231REMSYN06483339 32497 409// 10177 20131 39179 40156 84100 333 20150 59023=
0163833390999992014043018004-14050-042617FM-12+088299999V0209999C000019999999N010000199+02471+01101101121ADDGA1021+004501081GE19MSL   +99999+99999GF102991021990004501991991MA1999990091491MD1909990-0201REMSYN05883339 32497 209// 10247 20110 39149 40112 82100 333 59020=
0123833390999992014050100004-14050-042617FM-12+088299999V0209999C000019999999N002000199+02051+01181101341ADDKA1120M+02541KA2120N+00581MA1999990091611REMSYN07083339 32995 014// 10205 20118 39161 40134 333 10254 29058 55105 59026=
0182833390999992014050112004-14050-042617FM-12+088299999V0209999C000019999999N010000199+01951+01461101531ADDGA1021+004501081GE19MSL   +99999+99999GF102991021990004501991991KA1240N+01621MA1999990091821MD1909990+0031REMSYN06483339 32497 205// 10195 20146 39182 40153 82100 333 20162 58003=
0163833390999992014050118004-14050-042617FM-12+088299999V0209999C000019999999N010000199+02551+01381101031ADDGA1031+004501081GE19MSL   +99999+99999GF103991031990004501991991MA1999990091411MD1909990-0081REMSYN05883339 32497 305// 10255 20138 39141 40103 83100 333 59008=
0112833390999992014050212004-14050-042617FM-12+088299999V0209999C000019999999N010000199+02191+01651101441ADDKA1240N+01611MA1999990091821MD1909990+0001REMSYN05883339 32997 009// 10219 20165 39182 40144 333 20161 58000=
0163833390999992014050218004-14050-042617FM-12+088299999V0209999C000019999999N010000199+02881+01271101031ADDGA1021+004501081GE19MSL   +99999+99999GF102991021990004501991991MA1999990091531MD1909990+0121REMSYN05883339 32497 205// 10288 20127 39153 40103 82100 333 58012=
0123833390999992014050300004-14050-042617FM-12+088299999V0209999C000019999999N002000199+02291+01431101371ADDKA1120M+02981KA2120N+00561MA1999990091771REMSYN07083339 32995 018// 10229 20143 39177 40137 333 10298 29056 55106 58012=
0182833390999992014050312004-14050-042617FM-12+088299999V0209999C000019999999N010000199+02201+01671101591ADDGA1021+004501081GE19MSL   +99999+99999GF102991021990004501991991KA1240N+01861MA1999990091971MD1909990+0151REMSYN06483339 32497 209// 10220 20167 39197 40159 82100 333 20186 58015=
0179833390999992014050318004-14050-042617FM-12+088299999V0209999C000019999999N010000199+02611+01431101251ADDGA1041+004501081GA2991+999991001GE19MSL   +99999+99999GF105991041990004501991991MA1999990091711MD1909990+0181REMSYN05883339 32497 509// 10261 20143 39171 40125 84101 333 58018=
0201833390999992014050412004-14050-042617FM-12+088299999V0209999C000019999999N010000199+02061+01401101711ADDGA1999+022501001GE19MSL   +99999+99999GF104991001990022501991991KA1240N+01731MA1999990092061MD1909990+0091REMSYN06483339 32897 405// 10206 20140 39206 40171 80001 333 20173 58009=EQDQ01    003SCCGA1
0179833390999992014050418004-14050-042617FM-12+088299999V0209999C000019999999N010000199+02651+01561101251ADDGA1031+004501081GA2991+999991001GE19MSL   +99999+99999GF104991031990004501991991MA1999990091711MD1909990+0001REMSYN05883339 32497 405// 10265 20156 39171 40125 83101 333 58000=
0210833390999992014050512004-14050-042617FM-12+088299999V0209999C000019999999N010000199+02031+01721101581ADDAY101021AY201021GA1061+004501081GE19MSL   +99999+99999GF106991061990004501991991KA1240N+01781MA1999990091931MD1909990-0131MW1101REMSYN07083339 31497 609// 10203 20172 39193 40158 71000 86200 333 20178 59013=
0163833390999992014050518004-14050-042617FM-12+088299999V0209999C000019999999N010000199+02691+01351101061ADDGA1031+004501081GE19MSL   +99999+99999GF103991031990004501991991MA1999990091541MD1909990-0171REMSYN05883339 32497 305// 10269 20135 39154 40106 83200 333 59017=
0193833390999992014050600004-14050-042617FM-12+088299999V0209999C000019999999N002000199+02271+01251101261ADDGA1021+004501081GE19MSL   +99999+99999GF102991021990004501991991KA1120M+02781KA2120N+00581MA1999990091641REMSYN07683339 32495 209// 10227 20125 39164 40126 82100 333 10278 29058 55086 59019=
0210833390999992014050612004-14050-042617FM-12+088299999V0209999C000019999999N010000199+02091+01701101521ADDAY101021AY201021GA1031+004501081GE19MSL   +99999+99999GF103991031990004501991991KA1240N+01721MA1999990091891MD1909990-0041MW1101REMSYN07083339 31497 305// 10209 20170 39189 40152 71000 83200 333 20172 59004=
0179833390999992014050618004-14050-042617FM-12+088299999V0209999C000019999999N004000199+02491+01571101161ADDGA1061+004501081GA2991+999991051GE19MSL   +99999+99999GF107991061990004501991991MA1999990091591MD1909990+0051REMSYN05883339 32496 714// 10249 20157 39159 40116 8622/ 333 58005=
0221833390999992014050700004-14050-042617FM-12+088299999V0209999C000019999999N002000199+02131+01861101421ADDAY101021AY201021GA1061+004501081GE19MSL   +99999+99999GF106991061990004501991991KA1120M+02641KA2120N+00761MA1999990091761MW1101REMSYN08283339 31495 609// 10213 20186 39176 40142 71000 86200 333 10264 29076 55045 58012=
0227833390999992014050712004-14050-042617FM-12+088299999V0209999C000019999999N004000199+01871+01831101651ADDAA124002031AY161021AY261021GA1081+004501061GE19MSL   +99999+99999GF108991081990004501991991KA1240N+01841MA1999990091931MD1909990+0041MW1101REMSYN07683339 21496 836// 10187 20183 39193 40165 71066 885// 333 20184 58004 60024=
0179833390999992014050718004-14050-042617FM-12+088299999V0209999C000019999999N010000199+02431+01701101311ADDGA1051+004501081GA2991+999991001GE19MSL   +99999+99999GF106991051990004501991991MA1999990091701MD1909990+0111REMSYN05883339 32497 614// 10243 20170 39170 40131 85202 333 58011=
0209833390999992014050800004-14050-042617FM-12+088299999V0209999C000019999999N002000199+02231+01551101491ADDGA1051+004501081GA2991+999991031GE19MSL   +99999+99999GF106991051990004501991991KA1120M+02641KA2120N+00741MA1999990091811REMSYN07683339 32495 60000 10223 20155 39181 40149 85230 333 10264 29074 55020 58005=
0227833390999992014050812004-14050-042617FM-12+088299999V0209999C000019999999N004000199+01851+01791101601ADDAA124004031AY161021AY261021GA1081+004501061GE19MSL   +99999+99999GF108991081990004501991991KA1240N+01801MA1999990091911MD1909990-0021MW1101REMSYN07683339 21496 814// 10185 20179 39191 40160 71066 885// 333 20180 59002 60044=
0163833390999992014050818004-14050-042617FM-12+088299999V0209999C000019999999N010000199+02571+01441101031ADDGA1051+004501081GE19MSL   +99999+99999GF105991051990004501991991MA1999990091491MD1909990-0221REMSYN05883339 32497 509// 10257 20144 39149 40103 85200 333 59022=
0123833390999992014050900004-14050-042617FM-12+088299999V0209999C000019999999N002000199+02151+01571101251ADDKA1120M+02721KA2120N+00721MA1999990091571REMSYN07083339 32995 00000 10215 20157 39157 40125 333 10272 29072 55032 59024=
0226833390999992014050912004-14050-042617FM-12+088299999V0209999C000019999999N010000199+01911+01781101271ADDAY101021AY201021GA1051+004501081GA2991+999991031GE19MSL   +99999+99999GF106991051990004501991991KA1240N+01701MA1999990091611MD1909990-0301MW1101REMSYN07083339 31497 636// 10191 20178 39161 40127 71000 85230 333 20170 59030=
0163833390999992014050918004-14050-042617FM-12+088299999V0209999C000019999999N010000199+02711+01541100731ADDGA1061+004501081GE19MSL   +99999+99999GF106991061990004501991991MA1999990091241MD1909990-0251REMSYN05883339 32497 609// 10271 20154 39124 40073 86200 333 59025=
0193833390999992014051000004-14050-042617FM-12+088299999V0209999C000019999999N002000199+02411+01601101001ADDGA1061+004501081GE19MSL   +99999+99999GF106991061990004501991991KA1120M+02821KA2120N+00661MA1999990091401REMSYN07683339 32495 60000 10241 20160 39140 40100 86200 333 10282 29066 55048 59017=
0243833390999992014051012004-14050-042617FM-12+088299999V0209999C000019999999N004000199+02011+01881101181ADDAA124006031AY161021AY261021GA1061+004501081GA2991+999991051GE19MSL   +99999+99999GF107991061990004501991991KA1240N+01881MA1999990091581MD1909990-0031MW1101REMSYN07683339 21496 723// 10201 20188 39158 40118 71066 8622/ 333 20188 59003 60064=
0179833390999992014051018004-14050-042617FM-12+088299999V0209999C000019999999N010000199+02731+01521100771ADDGA1041+004501081GA2991+999991051GE19MSL   +99999+99999GF105991041990004501991991MA1999990091311MD1909990+0071REMSYN05883339 32497 509// 10273 20152 39131 40077 84220 333 58007=
0227833390999992014051112004-14050-042617FM-12+088299999V0209999C000019999999N004000199+01831+01771101541ADDAA124002031AY161021AY261021GA1081+004501061GE19MSL   +99999+99999GF108991081990004501991991KA1240N+01801MA1999990091851MD1909990+0271MW1101REMSYN07683339 21496 809// 10183 20177 39185 40154 71066 885// 333 20180 58027 60024=
0179833390999992014051118004-14050-042617FM-12+088299999V0209999C000019999999N010000199+02171+01571101281ADDGA1051+004501081GA2991+999991051GE19MSL   +99999+99999GF106991051990004501991991MA1999990091641MD1909990+0331REMSYN05883339 32497 614// 10217 20157 39164 40128 85220 333 58033=
0198833390999992014051212004-14050-042617FM-12+088299999V0209999C000019999999N010000199+01811+01431101701ADDGA1051+004501061GA2991+999991051GE19MSL   +99999+99999GF108991051990004501991991KA1240N+01681MA1999990091941MD1909990+0091REMSYN06483339 32497 805// 10181 20143 39194 40170 8552/ 333 20168 58009=
0093833390999992014051218004-14050-042617FM-12+088299999V0209999C000019999999N010000199+02361+01321101191ADDMA1999990091551MD1909990-0091REMSYN05283339 32997 009// 10236 20132 39155 40119 333 59009=
0123833390999992014051300004-14050-042617FM-12+088299999V0209999C000019999999N002000199+02011+01191101501ADDKA1120M+02441KA2120N+00621MA1999990091751REMSYN07083339 32995 018// 10201 20119 39175 40150 333 10244 29062 55064 58002=
0182833390999992014051312004-14050-042617FM-12+088299999V0209999C000019999999N010000199+01821+01291101721ADDGA1021+004501081GE19MSL   +99999+99999GF102991021990004501991991KA1240N+01491MA1999990091951MD1909990+0011REMSYN06483339 32497 209// 10182 20129 39195 40172 82100 333 20149 58001=
0093833390999992014051318004-14050-042617FM-12+088299999V0209999C000019999999N010000199+02521+01061101151ADDMA1999990091541MD1909990-0011REMSYN05283339 32997 009// 10252 20106 39154 40115 333 59001=
0123833390999992014051400004-14050-042617FM-12+088299999V0209999C000019999999N002000199+01951+01001101411ADDKA1120M+02601KA2120N+00551MA1999990091671REMSYN07083339 32995 018// 10195 20100 39167 40141 333 10260 29055 55107 59008=
0198833390999992014051412004-14050-042617FM-12+088299999V0209999C000019999999N010000199+01961+01421101701ADDGA1011+004501081GA2991+999991001GE19MSL   +99999+99999GF102991011990004501991991KA1240N+01401MA1999990091951MD1909990+0001REMSYN06483339 32497 209// 10196 20142 39195 40170 81101 333 20140 58000=
0093833390999992014051418004-14050-042617FM-12+088299999V0209999C000019999999N010000199+02591+01101101171ADDMA1999990091551MD1909990+0011REMSYN05283339 32997 009// 10259 20110 39155 40117 333 58001=
0123833390999992014051500004-14050-042617FM-12+088299999V0209999C000019999999N002000199+02111+01151101401ADDKA1120M+02721KA2120N+00551MA1999990091731REMSYN07083339 32995 018// 10211 20115 39173 40140 333 10272 29055 55107 58006=
0182833390999992014051512004-14050-042617FM-12+088299999V0209999C000019999999N010000199+02041+01561101601ADDGA1021+004501081GE19MSL   +99999+99999GF102991021990004501991991KA1240N+01601MA1999990091931MD1909990-0021REMSYN06483339 32497 209// 10204 20156 39193 40160 82100 333 20160 59002=
0163833390999992014051518004-14050-042617FM-12+088299999V0209999C000019999999N010000199+02771+01331101001ADDGA1021+004501081GE19MSL   +99999+99999GF102991021990004501991991MA1999990091461MD1909990-0091REMSYN05883339 32497 236// 10277 20133 39146 40100 82100 333 59009=
0123833390999992014051600004-14050-042617FM-12+088299999V0209999C000019999999N002000199+02351+01511101191ADDKA1120M+02891KA2120N+00581MA1999990091591REMSYN07083339 32995 014// 10235 20151 39159 40119 333 10289 29058 55107 59014=
0198833390999992014051612004-14050-042617FM-12+088299999V0209999C000019999999N010000199+02081+01841101331ADDGA1041+004501081GA2991+999991051GE19MSL   +99999+99999GF108991041990004501991991KA1240N+01941MA1999990091721MD1909990-0211REMSYN06483339 32497 814// 10208 20184 39172 40133 8422/ 333 20194 59021=
0163833390999992014051618004-14050-042617FM-12+088299999V0209999C000019999999N010000199+02811+01611100751ADDGA1021+004501081GE19MSL   +99999+99999GF102991021990004501991991MA1999990091321MD1909990-0141REMSYN05883339 32497 214// 10281 20161 39132 40075 82100 333 59014=
0123833390999992014051700004-14050-042617FM-12+088299999V0209999C000019999999N002000199+02451+01661101031ADDKA1120M+02941KA2120N+00641MA1999990091471REMSYN07083339 32995 009// 10245 20166 39147 40103 333 10294 29064 55064 59012=
0182833390999992014051712004-14050-042617FM-12+088299999V0209999C000019999999N010000199+02201+01901101261ADDGA1061+004501081GE19MSL   +99999+99999GF106991061990004501991991KA1240N+01981MA1999990091701MD1909990-0021REMSYN06483339 32497 614// 10220 20190 39170 40126 86200 333 20198 59002=
0163833390999992014051718004-14050-042617FM-12+088299999V0209999C000019999999N010000199+02781+01641100841ADDGA1021+004501081GE19MSL   +99999+99999GF102991021990004501991991MA1999990091401MD1909990+0081REMSYN05883339 32497 209// 10278 20164 39140 40084 82100 333 58008=
0182833390999992014051812004-14050-042617FM-12+088299999V0209999C000019999999N010000199+02091+01661101391ADDGA1061+004501081GE19MSL   +99999+99999GF106991061990004501991991KA1240N+01901MA1999990091791MD1909990+0091REMSYN06483339 32497 609// 10209 20166 39179 40139 86200 333 20190 58009=
0179833390999992014051818004-14050-042617FM-12+088299999V0209999C000019999999N010000199+02741+01481100951ADDGA1021+004501081GA2991+999991001GE19MSL   +99999+99999GF103991021990004501991991MA1999990091471MD1909990+0071REMSYN05883339 32497 309// 10274 20148 39147 40095 82101 333 58007=
0210833390999992014051912004-14050-042617FM-12+088299999V0209999C000019999999N004000199+01891+01801101461ADDAY101021AY201021GA1081+004501061GE19MSL   +99999+99999GF108991081990004501991991KA1240N+01731MA1999990091801MD1909990+0011MW1101REMSYN07083339 31496 809// 10189 20180 39180 40146 71000 885// 333 20173 58001=
0179833390999992014051918004-14050-042617FM-12+088299999V0209999C000019999999N010000199+02671+01441100991ADDGA1011+004501081GA2991+999991051GE19MSL   +99999+99999GF102991011990004501991991MA1999990091471MD1909990+0001REMSYN05883339 32497 218// 10267 20144 39147 40099 81220 333 58000=
0123833390999992014052000004-14050-042617FM-12+088299999V0209999C000019999999N002000199+02231+01331101281ADDKA1120M+02781KA2120N+00641MA1999990091621REMSYN07083339 32995 018// 10223 20133 39162 40128 333 10278 29064 55065 59001=
0182833390999992014052012004-14050-042617FM-12+088299999V0209999C000019999999N010000199+02091+01621101371ADDGA1021+004501081GE19MSL   +99999+99999GF102991021990004501991991KA1240N+01841MA1999990091741MD1909990-0061REMSYN06483339 32497 209// 10209 20162 39174 40137 82200 333 20184 59006=
0093833390999992014052018004-14050-042617FM-12+088299999V0209999C000019999999N010000199+02731+00711101011ADDMA1999990091511MD1909990+0041REMSYN05283339 32997 005// 10273 20071 39151 40101 333 58004=
0123833390999992014052100004-14050-042617FM-12+088299999V0209999C000019999999N002000199+02231+01271101291ADDKA1120M+02821KA2120N+00531MA1999990091661REMSYN07083339 32995 018// 10223 20127 39166 40129 333 10282 29053 55098 58004=
0226833390999992014052112004-14050-042617FM-12+088299999V0209999C000019999999N004000199+01891+01551101471ADDAY101021AY201021GA1061+004501081GA2991+999991051GE19MSL   +99999+99999GF107991061990004501991991KA1240N+01781MA1999990091791MD1909990+0051MW1101REMSYN07083339 31496 714// 10189 20155 39179 40147 71000 8622/ 333 20178 58005=
0179833390999992014052118004-14050-042617FM-12+088299999V0209999C000019999999N010000199+02551+01451100991ADDGA1051+004501081GA2991+999991001GE19MSL   +99999+99999GF106991051990004501991991MA1999990091441MD1909990-0071REMSYN05883339 32497 605// 10255 20145 39144 40099 85202 333 59007=
0123833390999992014052200004-14050-042617FM-12+088299999V0209999C000019999999N002000199+02151+01531101381ADDKA1120M+02681KA2120N+00671MA1999990091681REMSYN07083339 32995 009// 10215 20153 39168 40138 333 10268 29067 55042 58002=
0182833390999992014052212004-14050-042617FM-12+088299999V0209999C000019999999N010000199+02171+01681101441ADDGA1021+004501081GE19MSL   +99999+99999GF102991021990004501991991KA1240N+01681MA1999990091801MD1909990+0011REMSYN06483339 32497 209// 10217 20168 39180 40144 82200 333 20168 58001=
0163833390999992014052218004-14050-042617FM-12+088299999V0209999C000019999999N010000199+02891+01141100941ADDGA1021+004501081GE19MSL   +99999+99999GF102991021990004501991991MA1999990091451MD1909990+0011REMSYN05883339 32497 214// 10289 20114 39145 40094 82100 333 58001=
0123833390999992014052300004-14050-042617FM-12+088299999V0209999C000019999999N002000199+02371+01661101141ADDKA1120M+03021KA2120N+00601MA1999990091571REMSYN07083339 32995 009// 10237 20166 39157 40114 333 10302 29060 55107 59011=
0182833390999992014052312004-14050-042617FM-12+088299999V0209999C000019999999N010000199+02331+01991101351ADDGA1021+004501081GE19MSL   +99999+99999GF102991021990004501991991KA1240N+01821MA1999990091801MD1909990+0001REMSYN06483339 32497 209// 10233 20199 39180 40135 82100 333 20182 58000=
0163833390999992014052318004-14050-042617FM-12+088299999V0209999C000019999999N010000199+03111+01501100821ADDGA1041+004501081GE19MSL   +99999+99999GF104991041990004501991991MA1999990091421MD1909990-0031REMSYN05883339 32497 418// 10311 20150 39142 40082 84200 333 59003=
0193833390999992014052400004-14050-042617FM-12+088299999V0209999C000019999999N002000199+02611+01451101021ADDGA1021+004501081GE19MSL   +99999+99999GF102991021990004501991991KA1120M+03221KA2120N+00361MA1999990091541REMSYN07683339 32495 218// 10261 20145 39154 40102 82200 333 10322 29036 55093 59003=
0112833390999992014052412004-14050-042617FM-12+088299999V0209999C000019999999N010000199+02511+02061101161ADDKA1240N+01941MA1999990091711MD1909990-0091REMSYN05883339 32997 009// 10251 20206 39171 40116 333 20194 59009=
0163833390999992014052418004-14050-042617FM-12+088299999V0209999C000019999999N010000199+02991+01311100751ADDGA1031+004501081GE19MSL   +99999+99999GF103991031990004501991991MA1999990091371MD1909990-0051REMSYN05883339 32497 314// 10299 20131 39137 40075 83200 333 59005=
0210833390999992014052512004-14050-042617FM-12+088299999V0209999C000019999999N010000199+02211+01981101351ADDAY101021AY201021GA1041+004501081GE19MSL   +99999+99999GF104991041990004501991991KA1240N+02001MA1999990091801MD1909990+0091MW1101REMSYN07083339 31497 414// 10221 20198 39180 40135 71000 84200 333 20200 58009=
0163833390999992014052518004-14050-042617FM-12+088299999V0209999C000019999999N010000199+02831+01331100901ADDGA1021+004501081GE19MSL   +99999+99999GF102991021990004501991991MA1999990091471MD1909990+0101REMSYN05883339 32497 209// 10283 20133 39147 40090 82200 333 58010=
0182833390999992014052612004-14050-042617FM-12+088299999V0209999C000019999999N010000199+02331+01851101561ADDGA1031+004501081GE19MSL   +99999+99999GF103991031990004501991991KA1240N+01941MA1999990091991MD1909990+0191REMSYN06483339 32497 309// 10233 20185 39199 40156 83100 333 20194 58019=
0163833390999992014052618004-14050-042617FM-12+088299999V0209999C000019999999N010000199+02861+01481101041ADDGA1021+004501081GE19MSL   +99999+99999GF102991021990004501991991MA1999990091571MD1909990+0101REMSYN05883339 32497 205// 10286 20148 39157 40104 82100 333 58010=
