0178833390999992009010100004-14050-042617FM-12+088299999V0201401N001012200019N0020001N1+02331+01671101001ADDGA1001+999999999GF100991001001999999001001KA1240M+02921MA1999999091461MD1999999+0071REMSYN082AAXX  01004 83339 32995 01402 10233 20167 39146 40100 333 10292 29065 55090 58007;
0156833390999992009010112004-14050-042617FM-12+088299999V0200901N003112200019N0100001N1+02331+01931101101ADDGF102991011011004501001011KA1240N+01841MA1999999091551MD1999999-0121REMSYN076AAXX  01124 83339 32497 20906 10233 20193 39155 40110 81101 333 20184 59012;
0137833390999992009010118004-14050-042617FM-12+088299999V0201401N002112200019N0100001N1+02901+01841100701ADDGF104991031021004501001011MA1999999091271MD1999999-0021REMSYN070AAXX  01184 83339 32497 41404 10290 20184 39127 40070 83201 333 59002;
0178833390999992009010200004-14050-042617FM-12+088299999V0209999C000012200019N0020001N1+02441+01741100801ADDGA1001+999999999GF100991001001999999001001KA1240M+02981MA1999999091321MD1999999-0141REMSYN082AAXX  02004 83339 32995 00000 10244 20174 39132 40080 333 10298 29065 55111 59014;
0175833390999992009010212004-14050-042617FM-12+088299999V0200501N002612200019N0100001N1+02561+02021101181ADDGF102991001001999999001011KA1240N+01961MA1999999091461MD1999999-0091REMSYN076AAXX  02124 83339 32897 20505 10256 20202 39146 40118 80001 333 20196 59009;EQDQ01+022502SCOLCB
0137833390999992009010218004-14050-042617FM-12+088299999V0203201N001512200019N0100001N1+02761+01941100541ADDGF106991031021004501001041MA1999999091131MD1999999-0141REMSYN070AAXX  02184 83339 32497 63203 10276 20194 39113 40054 83204 333 59014;
0168833390999992009010300004-14050-042617FM-12+088299999V0202301N001012200019N0020001N1+02361+01911100701ADDGF102991021021004501001001KA1240M+02901MA1999999091251MD1999999-0071REMSYN088AAXX  03004 83339 32495 22302 10236 20191 39125 40070 82200 333 10290 29071 55060 59007;
0156833390999992009010312004-14050-042617FM-12+088299999V0202701N003112200019N0100001N1+02481+01981100901ADDGF104991011011004501001041KA1240N+02241MA1999999091411MD1999999-0051REMSYN076AAXX  03124 83339 32497 42706 10248 20198 39141 40090 81104 333 20224 59005;
0182833390999992009010318004-14050-042617FM-12+088299999V0203201N001510042019N0100001N1+02451+02211100511ADDAA106009991AY161061AY221061GF106991061021004501001001MA1999999091051MD1999999-0081MW1021REMSYN082AAXX  03184 83339 21497 63203 10245 20221 39105 40051 70262 86200 333 59008 60101;
0213833390999992009010400004-14050-042617FM-12+088299999V0203201N000510042019N0020001N1+02181+01971100791ADDAA106000391AY121061AY221061GF108991051021004501021999KA1240M+02861MA1999999091291MD1999999+0041MW1601REMSYN100AAXX  04004 83339 21495 83201 10218 20197 39129 40079 76022 8522/ 333 10286 29084 55018 58004 69931;
0201833390999992009010412004-14050-042617FM-12+088299999V0203201N001010042019N0100001N1+02431+02031100971ADDAA124010991AY161061AY221061GF106991061021004501001001KA1240N+02131MA1999999091441MD1999999+0031MW1021REMSYN088AAXX  04124 83339 21497 63202 10243 20203 39144 40097 70262 86200 333 20213 58003 60114;
0182833390999992009010418004-14050-042617FM-12+088299999V0200501N001010450019N0100001N1+02381+02131100601ADDAA106008991AY161061AY221061GF106991031021004501021001MA1999999091081MD1999999+0031MW1021REMSYN082AAXX  04184 83339 21497 60502 10238 20213 39108 40060 70262 83220 333 58003 60091;
0196833390999992009010500004-14050-042617FM-12+088299999V0202301N001510042019N0100001N1+02191+01971100831ADDAY121061AY221061GF108991051021004501021999KA1240M+02521MA1999999091311MD1999999+0021MW1131REMSYN094AAXX  05004 83339 31497 82303 10219 20197 39131 40083 71322 8522/ 333 10252 29084 55008 58002;
0201833390999992009010512004-14050-042617FM-12+088299999V0203601N000510042019N0040001N1+02191+01951101041ADDAA124022191AY161061AY261061GF107991061021004501021999KA1240N+01981MA1999999091451MD1999999+0011MW1101REMSYN088AAXX  05124 83339 21496 73601 10219 20195 39145 40104 71066 8622/ 333 20198 58001 60224;
0137833390999992009010518004-14050-042617FM-12+088299999V0203201N002610042019N0100001N1+02571+01901100591ADDGF106991051021004501021001MA1999999091091MD1999999+0011REMSYN070AAXX  05184 83339 32497 63205 10257 20190 39109 40059 85220 333 58001;
0232833390999992009010600004-14050-042617FM-12+088299999V0200901N001510042019N0020001N1+02171+01901100911ADDAA106000091AY161061AY261061GF106991051021004501021999KA1240M+02741MA1999999091341MD1999999+0031MW1131REMSYN100AAXX  06004 83339 21495 60903 10217 20190 39134 40091 71366 8522/ 333 10274 29081 55025 58003 69921;EQDQ01  00002PRCP06
0201833390999992009010612004-14050-042617FM-12+088299999V0202701N001510042019N0100001N1+02251+01901101021ADDAA124000591AY161061AY261061GF106991061021004501001001KA1240N+01981MA1999999091441MD1999999-0011MW1101REMSYN088AAXX  06124 83339 21497 62703 10225 20190 39144 40102 71066 86200 333 20198 59001 69964;
0165833390999992009010618004-14050-042617FM-12+088299999V0200501N000510042019N0100001N1+02311+01791100671ADDAY101061AY291061GF106991061021004501001001MA1999999091131MD1999999+0041MW1021REMSYN076AAXX  06184 83339 31497 60501 10231 20179 39113 40067 70209 86200 333 58004;
0213833390999992009010700004-14050-042617FM-12+088299999V0209999C000010042019N0020001N1+02091+01891101001ADDAA106004191AY191061AY261061GF108991081051004501999999KA1240M+02801MA1999999091401MD1999999+0061MW1101REMSYN100AAXX  07004 83339 21495 80000 10209 20189 39140 40100 71096 885// 333 10280 29083 55038 58006 60041;
0201833390999992009010712004-14050-042617FM-12+088299999V0201401N000510042019N0040001N1+02151+01991100981ADDAA124005191AY161061AY261061GF107991061021004501021999KA1240N+01941MA1999999091361MD1999999-0081MW1101REMSYN088AAXX  07124 83339 21496 71401 10215 20199 39136 40098 71066 8622/ 333 20194 59008 60054;
0137833390999992009010718004-14050-042617FM-12+088299999V0201401N003610042019N0100001N1+02391+01911100831ADDGF106991061021004501001001MA1999999091261MD1999999+0131REMSYN070AAXX  07184 83339 32497 61407 10239 20191 39126 40083 86200 333 58013;
0213833390999992009010800004-14050-042617FM-12+088299999V0202701N003110042019N0020001N1+02091+01951101051ADDAA106001091AY161061AY261061GF107991061021004501031999KA1240M+02471MA1999999091431MD1999999+0031MW1101REMSYN100AAXX  08004 83339 21495 72706 10209 20195 39143 40105 71066 8623/ 333 10247 29088 55010 58003 60011;
0201833390999992009010812004-14050-042617FM-12+088299999V0200901N003110042019N0020001N1+02141+02021101211ADDAA124005191AY161061AY241061GF108991051021004501021999KA1240N+01921MA1999999091571MD1999999+0211MW1401REMSYN088AAXX  08124 83339 21495 80906 10214 20202 39157 40121 74064 8522/ 333 20192 58021 60054;
0165833390999992009010818004-14050-042617FM-12+088299999V0201401N005712200019N0100001N1+02651+02041100891ADDAY141061AY221061GF105991031021004501001011MA1999999091381MD1999999+0121MW1021REMSYN076AAXX  08184 83339 31497 51411 10265 20204 39138 40089 70242 83201 333 58012;
0196833390999992009010900004-14050-042617FM-12+088299999V0201401N003112200019N0020001N1+02151+01801101111ADDAY101061AY201061GF103991031021004501001001KA1240M+02701MA1999999091501MD1999999+0071MW1101REMSYN094AAXX  09004 83339 31495 31406 10215 20180 39150 40111 71000 83200 333 10270 29081 55056 58007;
0156833390999992009010912004-14050-042617FM-12+088299999V0201401N005710042019N0100001N1+02171+01681101291ADDGF106991061021004501001001KA1240N+01861MA1999999091661MD1999999+0091REMSYN076AAXX  09124 83339 32497 61411 10217 20168 39166 40129 86200 333 20186 58009;
0137833390999992009010918004-14050-042617FM-12+088299999V0201401N004110042019N0100001N1+02591+01691101061ADDGF105991051021004501001001MA1999999091521MD1999999+0141REMSYN070AAXX  09184 83339 32497 51408 10259 20169 39152 40106 85200 333 58014;
0196833390999992009011000004-14050-042617FM-12+088299999V0201401N002612200019N0020001N1+02151+01861101331ADDAY101061AY201061GF104991031021004501031001KA1240M+02681MA1999999091701MD1999999+0201MW1101REMSYN094AAXX  10004 83339 31495 41405 10215 20186 39170 40133 71000 83230 333 10268 29076 55093 58020;
0201833390999992009011012004-14050-042617FM-12+088299999V0201401N004110042019N0040001N1+01931+01871101511ADDAA124000891AY161061AY261061GF108991081051004501999999KA1240N+01821MA1999999091831MD1999999+0171MW1501REMSYN088AAXX  10124 83339 21496 81408 10193 20187 39183 40151 75066 885// 333 20182 58017 69984;
0165833390999992009011018004-14050-042617FM-12+088299999V0201401N006212200019N0100001N1+02591+01661101161ADDAY101061AY251061GF103991031021004501001001MA1999999091611MD1999999+0091MW1021REMSYN076AAXX  10184 83339 31497 31412 10259 20166 39161 40116 70205 83200 333 58009;
0196833390999992009011100004-14050-042617FM-12+088299999V0201401N006210042019N0020001N1+02131+01801101391ADDAY101061AY201061GF106991061021004501001001KA1240M+02661MA1999999091721MD1999999+0021MW1101REMSYN094AAXX  11004 83339 31495 61412 10213 20180 39172 40139 71000 86200 333 10266 29080 55073 58002;
0201833390999992009011112004-14050-042617FM-12+088299999V0201401N002110042019N0040001N1+01951+01771101471ADDAA124000891AY161061AY261061GF108991081051004501999999KA1240N+01801MA1999999091791MD1999999-0041MW1101REMSYN088AAXX  11124 83339 21496 81404 10195 20177 39179 40147 71066 885// 333 20180 59004 69984;
0137833390999992009011118004-14050-042617FM-12+088299999V0201401N005112200019N0100001N1+02551+01711101021ADDGF102991011021004501001041MA1999999091581MD1999999-0031REMSYN070AAXX  11184 83339 32497 21410 10255 20171 39158 40102 81204 333 59003;
0178833390999992009011200004-14050-042617FM-12+088299999V0201401N003112200019N0020001N1+02171+01661101261ADDGA1001+999999999GF100991001001999999001001KA1240M+02631MA1999999091601MD1999999-0121REMSYN082AAXX  12004 83339 32995 01406 10217 20166 39160 40126 333 10263 29074 55077 59012;
0156833390999992009011212004-14050-042617FM-12+088299999V0201401N003610042019N0100001N1+02101+01891101421ADDGF108991051021004501021999KA1240N+01941MA1999999091821MD1999999+0031REMSYN076AAXX  12124 83339 32497 81407 10210 20189 39182 40142 8522/ 333 20194 58003;
0137833390999992009011218004-14050-042617FM-12+088299999V0201401N006212200019N0100001N1+02701+01831101081ADDGF103991031021004501001001MA1999999091571MD1999999-0011REMSYN070AAXX  12184 83339 32497 31412 10270 20183 39157 40108 83200 333 59001;
0213833390999992009011300004-14050-042617FM-12+088299999V0201401N002612200019N0020001N1+02151+02011101261ADDAA106000591AY161061AY221061GF104991021021004501001041KA1240M+02801MA1999999091621MD1999999+0021MW1021REMSYN100AAXX  13004 83339 21495 41405 10215 20201 39162 40126 70262 82204 333 10280 29082 55071 58002 69961;
0201833390999992009011312004-14050-042617FM-12+088299999V0201401N004110042019N0100001N1+02151+01971101331ADDAA124000591AY161061AY221061GF108991061021004501021999KA1240N+01951MA1999999091701MD1999999-0121MW1021REMSYN088AAXX  13124 83339 21497 81408 10215 20197 39170 40133 70262 8622/ 333 20195 59012 69964;
0137833390999992009011318004-14050-042617FM-12+088299999V0201401N005710042019N0100001N1+02641+01931101061ADDGF106991051021004501031001MA1999999091541MD1999999-0031REMSYN070AAXX  13184 83339 32497 61411 10264 20193 39154 40106 85230 333 59003;
0168833390999992009011400004-14050-042617FM-12+088299999V0201401N003112200019N0020001N1+02271+01881101221ADDGF102991021021004501001001KA1240M+02701MA1999999091621MD1999999+0001REMSYN088AAXX  14004 83339 32495 21406 10227 20188 39162 40122 82200 333 10270 29078 55056 58000;
0156833390999992009011412004-14050-042617FM-12+088299999V0201401N004110042019N0100001N1+02121+01781101351ADDGF106991061021004501001001KA1240N+01891MA1999999091741MD1999999+0041REMSYN076AAXX  14124 83339 32497 61408 10212 20178 39174 40135 86200 333 20189 58004;
0137833390999992009011418004-14050-042617FM-12+088299999V0200901N005112200019N0100001N1+02711+01711100931ADDGF102991021021004501001001MA1999999091441MD1999999-0101REMSYN070AAXX  14184 83339 32497 20910 10271 20171 39144 40093 82200 333 59010;
0178833390999992009011500004-14050-042617FM-12+088299999V0201401N002112200019N0020001N1+02211+01551101101ADDGA1001+999999999GF100991001001999999001001KA1240M+02751MA1999999091491MD1999999-0131REMSYN082AAXX  15004 83339 32995 01404 10221 20155 39149 40110 333 10275 29067 55097 59013;
0156833390999992009011512004-14050-042617FM-12+088299999V0201401N002110042019N0100001N1+02171+01901101301ADDGF106991061021004501001001KA1240N+01891MA1999999091691MD1999999-0051REMSYN076AAXX  15124 83339 32497 61404 10217 20190 39169 40130 86200 333 20189 59005;
0137833390999992009011518004-14050-042617FM-12+088299999V0201401N002112200019N0100001N1+02871+01801100761ADDGF103991021021004501001011MA1999999091301MD1999999-0141REMSYN070AAXX  15184 83339 32497 31404 10287 20180 39130 40076 82201 333 59014;
0178833390999992009011600004-14050-042617FM-12+088299999V0201401N002612200019N0020001N1+02311+01871100971ADDGA1001+999999999GF100991001001999999001001KA1240M+02941MA1999999091421MD1999999-0071REMSYN082AAXX  16004 83339 32995 01405 10231 20187 39142 40097 333 10294 29072 55092 59007;
0156833390999992009011612004-14050-042617FM-12+088299999V0201401N002612200019N0100001N1+02241+01901101321ADDGF106991041021004501001011KA1240N+01841MA1999999091731MD1999999+0041REMSYN076AAXX  16124 83339 32497 61405 10224 20190 39173 40132 84201 333 20184 58004;
0137833390999992009011618004-14050-042617FM-12+088299999V0201401N002612200019N0100001N1+02931+01761100831ADDGF105991041021004501001011MA1999999091391MD1999999+0091REMSYN070AAXX  16184 83339 32497 51405 10293 20176 39139 40083 84201 333 58009;
0178833390999992009011700004-14050-042617FM-12+088299999V0201401N004112200019N0020001N1+02241+01881101141ADDGA1001+999999999GF100991001001999999001001KA1240M+03001MA1999999091571MD1999999+0151REMSYN082AAXX  17004 83339 32995 01408 10224 20188 39157 40114 333 10300 29073 55076 58015;
0184833390999992009011712004-14050-042617FM-12+088299999V0201401N002610042019N0040001N1+02211+01901101291ADDAY101061AY201061GF107991061021004501021999KA1240N+01841MA1999999091681MD1999999-0051MW1101REMSYN082AAXX  17124 83339 31496 71405 10221 20190 39168 40129 71000 8622/ 333 20184 59005;
0137833390999992009011718004-14050-042617FM-12+088299999V0201401N004612200019N0100001N1+02771+01771100931ADDGF104991031021004501021001MA1999999091441MD1999999+0051REMSYN070AAXX  17184 83339 32497 41409 10277 20177 39144 40093 83220 333 58005;
0178833390999992009011800004-14050-042617FM-12+088299999V0201801N001512200019N0020001N1+02271+01821101181ADDGA1001+999999999GF100991001001999999001001KA1240M+02861MA1999999091611MD1999999+0041REMSYN082AAXX  18004 83339 32995 01803 10227 20182 39161 40118 333 10286 29072 55072 58004;
0184833390999992009011812004-14050-042617FM-12+088299999V0201401N001510042019N0040001N1+02091+01891101311ADDAY101061AY201061GF108991081051004501999999KA1240N+01901MA1999999091701MD1999999+0021MW1011REMSYN082AAXX  18124 83339 31496 81403 10209 20189 39170 40131 70100 885// 333 20190 58002;
0137833390999992009011818004-14050-042617FM-12+088299999V0200901N003612200019N0100001N1+02711+01881100921ADDGF104991031021004501001021MA1999999091431MD1999999-0011REMSYN070AAXX  18184 83339 32497 40907 10271 20188 39143 40092 83202 333 59001;
0178833390999992009011900004-14050-042617FM-12+088299999V0201801N000512200019N0020001N1+02291+01831101171ADDGA1001+999999999GF100991001001999999001001KA1240M+02821MA1999999091571MD1999999-0041REMSYN082AAXX  19004 83339 32995 01801 10229 20183 39157 40117 333 10282 29076 55081 59004;
0156833390999992009011912004-14050-042617FM-12+088299999V0201401N002110042019N0100001N1+02231+01821101241ADDGF106991061021004501001001KA1240N+01881MA1999999091651MD1999999-0051REMSYN076AAXX  19124 83339 32497 61404 10223 20182 39165 40124 86200 333 20188 59005;
0137833390999992009011918004-14050-042617FM-12+088299999V0201401N002610450019N0100001N1+02891+01861100691ADDGF105991041021004501021001MA1999999091261MD1999999-0171REMSYN070AAXX  19184 83339 32497 51405 10289 20186 39126 40069 84220 333 59017;
0178833390999992009012000004-14050-042617FM-12+088299999V0201801N003112200019N0020001N1+02271+01641100961ADDGA1001+999999999GF100991001001999999001001KA1240M+02941MA1999999091411MD1999999-0161REMSYN082AAXX  20004 83339 32995 01806 10227 20164 39141 40096 333 10294 29067 55096 59016;
0156833390999992009012012004-14050-042617FM-12+088299999V0200901N002110042019N0100001N1+02351+01761101011ADDGF106991051021004501021001KA1240N+01841MA1999999091471MD1999999-0181REMSYN076AAXX  20124 83339 32497 60904 10235 20176 39147 40101 85220 333 20184 59018;
0137833390999992009012018004-14050-042617FM-12+088299999V0201401N004110042019N0100001N1+02851+01761100651ADDGF105991051021004501001001MA1999999091201MD1999999-0061REMSYN070AAXX  20184 83339 32497 51408 10285 20176 39120 40065 85200 333 59006;
0215833390999992009012100004-14050-042617FM-12+088299999V0201801N002612200019N0020001N1+02271+01621100901ADDAY101061AY201061GF103991999021004501001001KA1240M+03021MA1999999091371MD1999999-0041MW1131REMSYN094AAXX  21004 83339 31495 31805 10227 20162 39137 40090 71300 82200 333 10302 29063 55101 59004;EQDQ01+000022SCOTLC
0156833390999992009012112004-14050-042617FM-12+088299999V0203201N001510042019N0100001N1+02411+01891101021ADDGF105991051021004501001001KA1240N+02041MA1999999091501MD1999999+0031REMSYN076AAXX  21124 83339 32497 53203 10241 20189 39150 40102 85200 333 20204 58003;
0165833390999992009012118004-14050-042617FM-12+088299999V0203201N002610042019N0100001N1+02831+01891100711ADDAY101061AY201061GF106991051021004501021001MA1999999091281MD1999999+0081MW1171REMSYN076AAXX  21184 83339 31497 63205 10283 20189 39128 40071 71700 85220 333 58008;
0196833390999992009012200004-14050-042617FM-12+088299999V0209999C000012200019N0020001N1+02331+01981100991ADDAY101061AY291061GF102991021021004501001001KA1240M+02901MA1999999091471MD1999999+0101MW1101REMSYN094AAXX  22004 83339 31495 20000 10233 20198 39147 40099 71009 82200 333 10290 29073 55061 58010;
0156833390999992009012212004-14050-042617FM-12+088299999V0203601N002110042019N0100001N1+02271+01821101141ADDGF106991051021004501001021KA1240N+02001MA1999999091591MD1999999+0091REMSYN076AAXX  22124 83339 32497 63604 10227 20182 39159 40114 85202 333 20200 58009;
0182833390999992009012218004-14050-042617FM-12+088299999V0203201N003110042019N0100001N1+02731+01771100711ADDAA106006191AY191061AY261061GF106991051021004501021001MA1999999091251MD1999999-0031MW1021REMSYN082AAXX  22184 83339 21497 63206 10273 20177 39125 40071 70296 85220 333 59003 60061;
0196833390999992009012300004-14050-042617FM-12+088299999V0202701N001512200019N0020001N1+02351+02001100961ADDAY101061AY201061GF104991041021004501001001KA1240M+02821MA1999999091431MD1999999-0041MW1101REMSYN094AAXX  23004 83339 31495 42703 10235 20200 39143 40096 71000 84200 333 10282 29074 55053 59004;
0201833390999992009012312004-14050-042617FM-12+088299999V0200501N001510042019N0100001N1+02311+01981101101ADDAA124006191AY161061AY261061GF106991051021004501031001KA1240N+02181MA1999999091571MD1999999-0021MW1101REMSYN088AAXX  23124 83339 21497 60503 10231 20198 39157 40110 71066 85230 333 20218 59002 60064;
0182833390999992009012318004-14050-042617FM-12+088299999V0202301N003110042019N0040001N1+02411+01991100891ADDAA106004191AY161061AY261061GF107991061021004501021999MA1999999091381MD1999999+0131MW1021REMSYN082AAXX  23184 83339 21496 72306 10241 20199 39138 40089 70266 8622/ 333 58013 60041;
0196833390999992009012400004-14050-042617FM-12+088299999V0202701N000512200019N0020001N1+02131+01951101061ADDAY101061AY201061GF103991031021004501001001KA1240M+02601MA1999999091471MD1999999+0041MW1101REMSYN094AAXX  24004 83339 31495 32701 10213 20195 39147 40106 71000 83200 333 10260 29085 55023 58004;
0201833390999992009012412004-14050-042617FM-12+088299999V0201401N004610042019N0040001N1+02031+01891101151ADDAA124004191AY161061AY261061GF108991081051004501999999KA1240N+01921MA1999999091521MD1999999-0051MW1101REMSYN088AAXX  24124 83339 21496 81409 10203 20189 39152 40115 71066 885// 333 20192 59005 60044;
0137833390999992009012418004-14050-042617FM-12+088299999V0201401N003612200019N0100001N1+02731+01881100691ADDGF103991031021004501001001MA1999999091201MD1999999-0181REMSYN070AAXX  24184 83339 32497 31407 10273 20188 39120 40069 83200 333 59018;
0168833390999992009012500004-14050-042617FM-12+088299999V0201401N004112200019N0020001N1+02251+01781100891ADDGF103991031021004501001001KA1240M+02821MA1999999091301MD1999999-0171REMSYN088AAXX  25004 83339 32495 31408 10225 20178 39130 40089 83200 333 10282 29074 55079 59017;
0184833390999992009012512004-14050-042617FM-12+088299999V0201401N004110042019N0100001N1+02191+01951100981ADDAY101061AY201061GF106991061021004501001001KA1240N+02001MA1999999091401MD1999999-0121MW1101REMSYN082AAXX  25124 83339 31497 61408 10219 20195 39140 40098 71000 86200 333 20200 59012;
0137833390999992009012518004-14050-042617FM-12+088299999V0201401N003112200019N0100001N1+02791+01791100561ADDGF102991021021004501001001MA1999999091121MD1999999-0081REMSYN070AAXX  25184 83339 32497 21406 10279 20179 39112 40056 82200 333 59008;
0196833390999992009012600004-14050-042617FM-12+088299999V0200901N004612200019N0020001N1+02231+01711100951ADDAY101061AY201061GF103991031021004501001001KA1240M+02961MA1999999091371MD1999999+0071MW1131REMSYN094AAXX  26004 83339 31495 30909 10223 20171 39137 40095 71300 83200 333 10296 29072 55094 58007;
0184833390999992009012612004-14050-042617FM-12+088299999V0201401N002610042019N0100001N1+02211+01971101151ADDAY101061AY201061GF106991061021004501001001KA1240N+02001MA1999999091551MD1999999+0151MW1101REMSYN082AAXX  26124 83339 31497 61405 10221 20197 39155 40115 71000 86200 333 20200 58015;
0137833390999992009012618004-14050-042617FM-12+088299999V0201401N003612200019N0100001N1+02811+01751100631ADDGF104991031021004501001041MA1999999091181MD1999999+0061REMSYN070AAXX  26184 83339 32497 41407 10281 20175 39118 40063 83204 333 58006;
0168833390999992009012700004-14050-042617FM-12+088299999V0201401N004612200019N0020001N1+02331+01941100921ADDGF102991021021004501001001KA1240M+02761MA1999999091371MD1999999+0001REMSYN088AAXX  27004 83339 32495 21409 10233 20194 39137 40092 82200 333 10276 29074 55084 58000;
0156833390999992009012712004-14050-042617FM-12+088299999V0201401N003110042019N0100001N1+02251+01731101161ADDGF106991061021004501001001KA1240N+01961MA1999999091611MD1999999+0061REMSYN076AAXX  27124 83339 32497 61406 10225 20173 39161 40116 86200 333 20196 58006;
0137833390999992009012718004-14050-042617FM-12+088299999V0201401N003112200019N0100001N1+02851+01701100761ADDGF102991011021004501001021MA1999999091331MD1999999-0151REMSYN070AAXX  27184 83339 32497 21406 10285 20170 39133 40076 81202 333 59015;
0168833390999992009012800004-14050-042617FM-12+088299999V0201401N003612200019N0020001N1+02271+01791100981ADDGF104991041021004501001001KA1240M+02921MA1999999091431MD1999999+0061REMSYN088AAXX  28004 83339 32495 41407 10227 20179 39143 40098 84200 333 10292 29068 55102 58006;
0156833390999992009012812004-14050-042617FM-12+088299999V0201401N004112200019N0100001N1+02251+01731101101ADDGF103991031021004501001001KA1240N+01851MA1999999091541MD1999999-0071REMSYN076AAXX  28124 83339 32497 31408 10225 20173 39154 40110 83200 333 20185 59007;
0137833390999992009012818004-14050-042617FM-12+088299999V0201401N004612200019N0100001N1+02771+01391100811ADDGF102991021021004501001001MA1999999091331MD1999999+0001REMSYN070AAXX  28184 83339 32497 21409 10277 20139 39133 40081 82200 333 58000;
0168833390999992009012900004-14050-042617FM-12+088299999V0201401N004612200019N0020001N1+02351+01271101031ADDGF102991021021004501001001KA1240M+02841MA1999999091491MD1999999+0061REMSYN088AAXX  29004 83339 32495 21409 10235 20127 39149 40103 82200 333 10284 29054 55108 58006;
0156833390999992009012912004-14050-042617FM-12+088299999V0201401N003112200019N0100001N1+02211+01581101071ADDGF102991011021004501021001KA1240N+01781MA1999999091531MD1999999-0011REMSYN076AAXX  29124 83339 32497 21406 10221 20158 39153 40107 81220 333 20178 59001;
0137833390999992009012918004-14050-042617FM-12+088299999V0201401N004612200019N0100001N1+02911+01591100701ADDGF102991011021004501001041MA1999999091271MD1999999-0061REMSYN070AAXX  29184 83339 32497 21409 10291 20159 39127 40070 81204 333 59006;
0178833390999992009013000004-14050-042617FM-12+088299999V0201401N003112200019N0020001N1+02351+01411100961ADDGA1001+999999999GF100991001001999999001001KA1240M+02951MA1999999091431MD1999999+0061REMSYN082AAXX  30004 83339 32995 01406 10235 20141 39143 40096 333 10295 29056 55117 58006;
0156833390999992009013012004-14050-042617FM-12+088299999V0201401N001512200019N0100001N1+02321+01761101051ADDGF102991021021004501001001KA1240N+01821MA1999999091531MD1999999+0001REMSYN076AAXX  30124 83339 32497 21403 10232 20176 39153 40105 82200 333 20182 58000;
0137833390999992009013018004-14050-042617FM-12+088299999V0200901N004612200019N0100001N1+02951+01551100681ADDGF102991021021004501001001MA1999999091251MD1999999-0021REMSYN070AAXX  30184 83339 32497 20909 10295 20155 39125 40068 82200 333 59002;
0178833390999992009013100004-14050-042617FM-12+088299999V0201401N001512200019N0020001N1+02331+01251100711ADDGA1001+999999999GF100991001001999999001001KA1240M+03001MA1999999091201MD1999999-0231REMSYN082AAXX  31004 83339 32995 01403 10233 20125 39120 40071 333 10300 29054 55117 59023;
0156833390999992009013112004-14050-042617FM-12+088299999V0200501N003612200019N0100001N1+02331+01791100991ADDGF102991021021004501001001KA1240N+01741MA1999999091471MD1999999-0061REMSYN076AAXX  31124 83339 32497 20507 10233 20179 39147 40099 82200 333 20174 59006;
0137833390999992009013118004-14050-042617FM-12+088299999V0200901N004612200019N0100001N1+02951+01481100581ADDGF102991021021004501001001MA1999999091161MD1999999-0091REMSYN070AAXX  31184 83339 32497 20909 10295 20148 39116 40058 82200 333 59009;
0178833390999992009020100004-14050-042617FM-12+088299999V0201801N000512200019N0020001N1+02331+01471100701ADDGA1001+999999999GF100991001001999999001001KA1240M+03041MA1999999091211MD1999999+0011REMSYN082AAXX  01004 83339 32995 01801 10233 20147 39121 40070 333 10304 29058 55115 58001;
0166833390999992009020112004-14050-042617FM-12+088299999V0200901N003112200019N0100001N1+02411+01821100921ADDGA1001+999999999GF100991001001999999001001KA1240N+01821MA1999999091411MD1999999+0061REMSYN070AAXX  01124 83339 32997 00906 10241 20182 39141 40092 333 20182 58006;
0137833390999992009020118004-14050-042617FM-12+088299999V0201401N003112200019N0100001N1+03131+01211100481ADDGF102991011021004501021001MA1999999091111MD1999999-0051REMSYN070AAXX  01184 83339 32497 21406 10313 20121 39111 40048 81220 333 59005;
0213833390999992009020200004-14050-042617FM-12+088299999V0201401N003112200019N0020001N1+02471+01661100691ADDGA1001+999999999GF100991001001999999001001KA1240M+03001MA1999999999999MD1999999+0031REMSYN082AAXX  02004 83339 32995 01406 10247 20166 30124 40069 333 10300 29058 55118 58003;EQDQ01+101243APOSP Q02 101243APOSP 
0156833390999992009020212004-14050-042617FM-12+088299999V0201401N004110042019N0100001N1+02301+01921100951ADDGF107991061021004501021999KA1240N+01941MA1999999091451MD1999999+0041REMSYN076AAXX  02124 83339 32497 71408 10230 20192 39145 40095 8622/ 333 20194 58004;
0137833390999992009020218004-14050-042617FM-12+088299999V0201401N004612200019N0100001N1+02891+01781100571ADDGF104991041021004501001001MA1999999091111MD1999999+0001REMSYN070AAXX  02184 83339 32497 41409 10289 20178 39111 40057 84200 333 58000;
0178833390999992009020300004-14050-042617FM-12+088299999V0201401N003612200019N0020001N1+02461+01301100771ADDGA1001+999999999GF100991001001999999001001KA1240M+03001MA1999999091241MD1999999+0001REMSYN082AAXX  03004 83339 32995 01407 10246 20130 39124 40077 333 10300 29/// 55082 58000;
0184833390999992009020312004-14050-042617FM-12+088299999V0201401N004610042019N0040001N1+02151+01821101121ADDAY101061AY201061GF108991081051004501999999KA1240N+01921MA1999999091591MD1999999+0141MW1101REMSYN082AAXX  03124 83339 31496 81409 10215 20182 39159 40112 71000 885// 333 20192 58014;
0137833390999992009020318004-14050-042617FM-12+088299999V0200501N003112200019N0100001N1+02871+01531100881ADDGF104991041021004501001001MA1999999091931MD1999999+0201REMSYN070AAXX  03184 83339 32497 40506 10287 20153 39193 40088 84200 333 58020;
0196833390999992009020400004-14050-042617FM-12+088299999V0201401N004612200019N0020001N1+02431+01781100971ADDAY101061AY201061GF102991021021004501001001KA1240M+02971MA1999999091441MD1999999+0201MW1131REMSYN094AAXX  04004 83339 31495 21409 10243 20178 39144 40097 71300 82200 333 10297 29066 55094 58020;
0156833390999992009020412004-14050-042617FM-12+088299999V0201401N004612200019N0100001N1+02471+01711101101ADDGF103991031021004501001001KA1240N+02001MA1999999091611MD1999999+0021REMSYN076AAXX  04124 83339 32497 31409 10247 20171 39161 40110 83200 333 20200 58002;
0137833390999992009020418004-14050-042617FM-12+088299999V0200901N003112200019N0100001N1+02851+01811100951ADDGF104991041021004501001001MA1999999091371MD1999999+0061REMSYN070AAXX  04184 83339 32497 40906 10285 20181 39137 40095 84200 333 58006;
0168833390999992009020500004-14050-042617FM-12+088299999V0201401N004612200019N0020001N1+02411+01731100871ADDGF102991021021004501001001KA1240M+02921MA1999999091401MD1999999-0041REMSYN088AAXX  05004 83339 32495 21409 10241 20173 39140 40087 82200 333 10292 29066 55116 59004;
0203833390999992009020512004-14050-042617FM-12+088299999V0200901N001512200019N0040001N1+02151+01951101031ADDAY101061AY201061GF102991999051004501999999KA1240N+02001MA1999999091531MD1999999-0081MW1101REMSYN082AAXX  05124 83339 31496 20903 10215 20195 39153 40103 71000 885// 333 20200 59008;EQDQ01+000082SCOTLC
0137833390999992009020518004-14050-042617FM-12+088299999V0201401N004612200019N0100001N1+02971+01531100491ADDGF102991021021004501001001MA1999999091121MD1999999-0251REMSYN070AAXX  05184 83339 32497 21409 10297 20153 39112 40049 82200 333 59025;
0168833390999992009020600004-14050-042617FM-12+088299999V0201401N002112200019N0020001N1+02491+01531100861ADDGF102991021021004501001001KA1240M+03101MA1999999091341MD1999999-0061REMSYN088AAXX  06004 83339 32495 21404 10249 20153 39134 40086 82200 333 10310 29061 55077 59006;
0184833390999992009020612004-14050-042617FM-12+088299999V0201401N003110042019N0040001N1+02131+01931101101ADDAY101061AY201061GF108991081051004501999999KA1240N+01901MA1999999091551MD1999999+0021MW1101REMSYN082AAXX  06124 83339 31496 81406 10213 20193 39155 40110 71000 885// 333 20190 58002;
0137833390999992009020618004-14050-042617FM-12+088299999V0201401N004112200019N0100001N1+02961+01871100611ADDGF103991031021004501001001MA1999999091211MD1999999+0091REMSYN070AAXX  06184 83339 32497 31408 10296 20187 39121 40061 83200 333 58009;
0196833390999992009020700004-14050-042617FM-12+088299999V0200901N001512200019N0020001N1+02451+01711100851ADDAY101061AY201061GF102991021021004501001001KA1240M+03091MA1999999091331MD1999999-0011MW1131REMSYN094AAXX  07004 83339 31495 20903 10245 20171 39133 40085 71300 82200 333 10309 29067 55075 59001;
0156833390999992009020712004-14050-042617FM-12+088299999V0200501N003110042019N0100001N1+02351+01911101061ADDGF106991061021004501001001KA1240N+01941MA1999999091551MD1999999+0001REMSYN076AAXX  07124 83339 32497 60506 10235 20191 39155 40106 86200 333 20194 58000;
0137833390999992009020718004-14050-042617FM-12+088299999V0201401N001512200019N0100001N1+03051+01781100591ADDGF102991021021004501001001MA1999999091211MD1999999+0001REMSYN070AAXX  07184 83339 32497 21403 10305 20178 39121 40059 82200 333 58000;
0178833390999992009020800004-14050-042617FM-12+088299999V0209999C000012200019N0020001N1+02471+01551100731ADDGA1001+999999999GF100991001001999999001001KA1240M+03161MA1999999091251MD1999999-0081REMSYN082AAXX  08004 83339 32995 00000 10247 20155 39125 40073 333 10316 29060 55104 59008;
0156833390999992009020812004-14050-042617FM-12+088299999V0200501N004112200019N0100001N1+02451+01861101061ADDGF102991021021004501001001KA1240N+01941MA1999999091571MD1999999+0021REMSYN076AAXX  08124 83339 32497 20508 10245 20186 39157 40106 82200 333 20194 58002;
0137833390999992009020818004-14050-042617FM-12+088299999V0201401N005112200019N0100001N1+02991+01661100481ADDGF103991031021004501001001MA1999999091111MD1999999-0101REMSYN070AAXX  08184 83339 32497 31410 10299 20166 39111 40048 83200 333 59010;
0178833390999992009020900004-14050-042617FM-12+088299999V0209999C000012200019N0020001N1+02471+01611100691ADDGA1001+999999999GF100991001001999999001001KA1240M+03121MA1999999091241MD1999999-0011REMSYN082AAXX  09004 83339 32995 00000 10247 20161 39124 40069 333 10312 29058 55116 59001;
0184833390999992009020912004-14050-042617FM-12+088299999V0201401N001510042019N0040001N1+02211+01941101001ADDAY101061AY201061GF108991081051004501999999KA1240N+01981MA1999999091461MD1999999-0111MW1101REMSYN082AAXX  09124 83339 31496 81403 10221 20194 39146 40100 71000 885// 333 20198 59011;
0137833390999992009020918004-14050-042617FM-12+088299999V0200501N004112200019N0100001N1+03031+01511100551ADDGF102991021021004501001001MA1999999091171MD1999999+0061REMSYN070AAXX  09184 83339 32497 20508 10303 20151 39117 40055 82200 333 58006;
0178833390999992009021000004-14050-042617FM-12+088299999V0202301N001512200019N0020001N1+02521+01581100691ADDGA1001+999999999GF100991001001999999001001KA1240M+03161MA1999999091201MD1999999-0041REMSYN082AAXX  10004 83339 32995 02303 10252 20158 39120 40069 333 10316 29059 55085 59004;
0184833390999992009021012004-14050-042617FM-12+088299999V0201401N004110042019N0100001N1+02291+01941100971ADDAY101061AY201061GF106991061021004501001001KA1240N+02001MA1999999091471MD1999999+0011MW1101REMSYN082AAXX  10124 83339 31497 61408 10229 20194 39147 40097 71000 86200 333 20200 58001;
0137833390999992009021018004-14050-042617FM-12+088299999V0200901N005712200019N0100001N1+03071+01771100491ADDGF103991031021004501001001MA1999999091141MD1999999-0031REMSYN070AAXX  10184 83339 32497 30911 10307 20177 39114 40049 83200 333 59003;
0168833390999992009021100004-14050-042617FM-12+088299999V0201401N004112200019N0020001N1+02591+01721100691ADDGF102991021021004501001001KA1240M+03141MA1999999091241MD1999999+0041REMSYN088AAXX  11004 83339 32495 21408 10259 20172 39124 40069 82200 333 10314 29061 55091 58004;
0156833390999992009021112004-14050-042617FM-12+088299999V0201401N003612200019N0100001N1+02411+01751100931ADDGF102991021021004501001001KA1240N+01941MA1999999091471MD1999999+0001REMSYN076AAXX  11124 83339 32497 21407 10241 20175 39147 40093 82200 333 20194 58000;
0137833390999992009021118004-14050-042617FM-12+088299999V0201401N004112200019N0100001N1+03071+01381100571ADDGF103991031021004501001001MA1999999091211MD1999999+0071REMSYN070AAXX  11184 83339 32497 31408 10307 20138 39121 40057 83200 333 58007;
0168833390999992009021200004-14050-042617FM-12+088299999V0201401N002112200019N0020001N1+02451+01201100601ADDGF102991021011004501001001KA1240M+03141MA1999999091151MD1999999-0091REMSYN088AAXX  12004 83339 32495 21404 10245 20120 39115 40060 82100 333 10314 29049 55117 59009;
0156833390999992009021212004-14050-042617FM-12+088299999V0200501N001510450019N0100001N1+02251+01841100811ADDGF105991041021004501021001KA1240N+01901MA1999999091311MD1999999-0161REMSYN076AAXX  12124 83339 32497 50503 10225 20184 39131 40081 84220 333 20190 59016;
0137833390999992009021218004-14050-042617FM-12+088299999V0201401N002112200019N0100001N1+02911+01481100261ADDGF103991021021004501001021MA1999999090891MD1999999-0321REMSYN070AAXX  12184 83339 32497 31404 10291 20148 39089 40026 82202 333 59032;
0168833390999992009021300004-14050-042617FM-12+088299999V0201401N005712200019N0020001N1+02591+01581100341ADDGF102991021021004501001001KA1240M+03231MA1999999090901MD1999999-0251REMSYN088AAXX  13004 83339 32495 21411 10259 20158 39090 40034 82200 333 10323 29057 55087 59025;
0156833390999992009021312004-14050-042617FM-12+088299999V0200901N002110042019N0100001N1+02451+01791100481ADDGF106991051021004501021001KA1240N+01941MA1999999091071MD1999999-0241REMSYN076AAXX  13124 83339 32497 60904 10245 20179 39107 40048 85220 333 20194 59024;
0137833390999992009021318004-14050-042617FM-12+088299999V0203601N003110042019N0100001N1+03091+01681100051ADDGF106991051021004501001021MA1999999090741MD1999999-0151REMSYN070AAXX  13184 83339 32497 63606 10309 20168 39074 40005 85202 333 59015;
0201833390999992009021412004-14050-042617FM-12+088299999V0201401N001510042019N0040001N1+02151+01931100881ADDAA124041991AY161061AY261061GF108991081051004501999999KA1240N+01841MA1999999091271MD1999999+0201MW1101REMSYN088AAXX  14124 83339 21496 81403 10215 20193 39127 40088 71066 885// 333 20184 58020 60424;
0165833390999992009021418004-14050-042617FM-12+088299999V0200901N004111050019N0100001N1+02751+01811100451ADDAY101061AY201061GF106991041021004501001021MA1999999090981MD1999999+0241MW1171REMSYN076AAXX  14184 83339 31497 60908 10275 20181 39098 40045 71700 84202 333 58024;
0213833390999992009021500004-14050-042617FM-12+088299999V0202301N001510042019N0020001N1+02191+01761100681ADDAA106000591AY161061AY261061GF106991061021004501001001KA1240M+02901MA1999999091111MD1999999+0151MW1131REMSYN100AAXX  15004 83339 21495 62303 10219 20176 39111 40068 71366 86200 333 10290 29075 55041 58015 69961;
0201833390999992009021512004-14050-042617FM-12+088299999V0201401N007210042019N0100001N1+02251+01751101161ADDAA124000591AY161061AY221061GF105991051021004501001001KA1240N+01891MA1999999091561MD1999999+0291MW1021REMSYN088AAXX  15124 83339 21497 51414 10225 20175 39156 40116 70262 85200 333 20189 58029 69964;
0137833390999992009021518004-14050-042617FM-12+088299999V0201401N005110042019N0100001N1+02651+01651100781ADDGF106991061021004501001041MA1999999091281MD1999999+0301REMSYN070AAXX  15184 83339 32497 61410 10265 20165 39128 40078 86204 333 58030;
0178833390999992009021600004-14050-042617FM-12+088299999V0201401N006212200019N0020001N1+02331+01571100881ADDGA1001+999999999GF100991001001999999001001KA1240M+02761MA1999999091351MD1999999+0241REMSYN082AAXX  16004 83339 32995 01412 10233 20157 39135 40088 333 10276 29063 55064 58024;
0156833390999992009021612004-14050-042617FM-12+088299999V0201401N003110042019N0100001N1+02091+01781101181ADDGF108991061021004501021999KA1240N+01871MA1999999091581MD1999999+0021REMSYN076AAXX  16124 83339 32497 81406 10209 20178 39158 40118 8622/ 333 20187 58002;
0137833390999992009021618004-14050-042617FM-12+088299999V0200901N004110042019N0100001N1+02701+01751100851ADDGF105991051021004501001001MA1999999091361MD1999999+0081REMSYN070AAXX  16184 83339 32497 50908 10270 20175 39136 40085 85200 333 58008;
0168833390999992009021700004-14050-042617FM-12+088299999V0201401N004612200019N0020001N1+02351+01711100911ADDGF102991021021004501001001KA1240M+02781MA1999999091431MD1999999+0081REMSYN088AAXX  17004 83339 32495 21409 10235 20171 39143 40091 82200 333 10278 29068 55078 58008;
0156833390999992009021712004-14050-042617FM-12+088299999V0201401N006710042019N0100001N1+02171+01721101251ADDGF106991061021004501001001KA1240N+01851MA1999999091661MD1999999+0081REMSYN076AAXX  17124 83339 32497 61413 10217 20172 39166 40125 86200 333 20185 58008;
0137833390999992009021718004-14050-042617FM-12+088299999V0200901N003612200019N0100001N1+02851+01651100751ADDGF103991031021004501001001MA1999999091321MD1999999-0041REMSYN070AAXX  17184 83339 32497 30907 10285 20165 39132 40075 83200 333 59004;
0178833390999992009021800004-14050-042617FM-12+088299999V0201401N002612200019N0020001N1+02451+01581100951ADDGA1001+999999999GF100991001001999999001001KA1240M+02911MA1999999091421MD1999999-0011REMSYN082AAXX  18004 83339 32995 01405 10245 20158 39142 40095 333 10291 29060 55112 59001;
0156833390999992009021812004-14050-042617FM-12+088299999V0201401N007710042019N0100001N1+02201+01801101181ADDGF106991061021004501001001KA1240N+01991MA1999999091631MD1999999-0031REMSYN076AAXX  18124 83339 32497 61415 10220 20180 39163 40118 86200 333 20199 59003;
0137833390999992009021818004-14050-042617FM-12+088299999V0201401N005710042019N0100001N1+02821+01741100771ADDGF105991051021004501001001MA1999999091341MD1999999+0021REMSYN070AAXX  18184 83339 32497 51411 10282 20174 39134 40077 85200 333 58002;
0168833390999992009021900004-14050-042617FM-12+088299999V0201401N005710450019N0020001N1+02181+01741101091ADDGF106991041021004501021001KA1240M+02861MA1999999091501MD1999999+0081REMSYN088AAXX  19004 83339 32495 61411 10218 20174 39150 40109 84220 333 10286 29071 55081 58008;
0156833390999992009021912004-14050-042617FM-12+088299999V0201401N004110042019N0100001N1+02051+01701101301ADDGF108991051021004501021999KA1240N+01781MA1999999091651MD1999999+0021REMSYN076AAXX  19124 83339 32497 81408 10205 20170 39165 40130 8522/ 333 20178 58002;
0137833390999992009021918004-14050-042617FM-12+088299999V0201401N002612200019N0100001N1+02691+01661100841ADDGF103991021021004501001011MA1999999091341MD1999999+0001REMSYN070AAXX  19184 83339 32497 31405 10269 20166 39134 40084 82201 333 58000;
0213833390999992009022000004-14050-042617FM-12+088299999V0201401N001510042019N0020001N1+02011+01801101241ADDAA106001091AY161061AY221061GF106991061021004501001001KA1240M+02781MA1999999091581MD1999999+0081MW1021REMSYN100AAXX  20004 83339 21495 61403 10201 20180 39158 40124 70262 86200 333 10278 29077 55048 58008 60011;
0201833390999992009022012004-14050-042617FM-12+088299999V0201401N005710042019N0100001N1+01991+01701101231ADDAA124001091AY161061AY221061GF106991061021004501001001KA1240N+01781MA1999999091551MD1999999-0101MW1021REMSYN088AAXX  20124 83339 21497 61411 10199 20170 39155 40123 70262 86200 333 20178 59010 60014;
0156833390999992009022018004-14050-042617FM-12+088299999V0201401N004112200019N0100001N1+02751+01531100701ADDGF104991031021004501001011MA1999999061212MD1999999-0131REMSYN070AAXX  20184 83339 32497 41408 10275 20153 36121 40070 83201 333 59013;EQDQ01+061213APOSP 
0156833390999992009022112004-14050-042617FM-12+088299999V0201401N004612200019N0100001N1+02251+01791101061ADDGF104991041021004501001001KA1240N+01841MA1999999091501MD1999999-0051REMSYN076AAXX  21124 83339 32497 41409 10225 20179 39150 40106 84200 333 20184 59005;
0137833390999992009022118004-14050-042617FM-12+088299999V0201401N004112200019N0100001N1+02921+01501100551ADDGF102991021021004501001001MA1999999091141MD1999999-0071REMSYN070AAXX  21184 83339 32497 21408 10292 20150 39114 40055 82200 333 59007;
0156833390999992009022212004-14050-042617FM-12+088299999V0200901N001512200019N0100001N1+02261+01821101161ADDGF102991021011004501001001KA1240N+01851MA1999999091631MD1999999+0131REMSYN076AAXX  22124 83339 32497 20903 10226 20182 39163 40116 82100 333 20185 58013;
0137833390999992009022218004-14050-042617FM-12+088299999V0201401N004112200019N0100001N1+03001+01411100701ADDGF105991041021004501001011MA1999999091311MD1999999+0171REMSYN070AAXX  22184 83339 32497 51408 10300 20141 39131 40070 84201 333 58017;
0156833390999992009022312004-14050-042617FM-12+088299999V0201401N003110450019N0100001N1+02271+01731101171ADDGF105991041021004501031001KA1240N+01831MA1999999091641MD1999999+0011REMSYN076AAXX  23124 83339 32497 51406 10227 20173 39164 40117 84230 333 20183 58001;
0137833390999992009022318004-14050-042617FM-12+088299999V0200901N002110042019N0100001N1+02851+01601100681ADDGF106991061021004501001001MA1999999091251MD1999999-0061REMSYN070AAXX  23184 83339 32497 60904 10285 20160 39125 40068 86200 333 59006;
0156833390999992009022412004-14050-042617FM-12+088299999V0201401N001010042019N0100001N1+02291+01731101051ADDGF106991051021004501031001KA1240N+01881MA1999999091491MD1999999-0151REMSYN076AAXX  24124 83339 32497 61402 10229 20173 39149 40105 85230 333 20188 59015;
0137833390999992009022418004-14050-042617FM-12+088299999V0201401N004612200019N0100001N1+02971+01571100521ADDGF103991021021004501001021MA1999999091111MD1999999-0141REMSYN070AAXX  24184 83339 32497 31409 10297 20157 39111 40052 82202 333 59014;
0156833390999992009022512004-14050-042617FM-12+088299999V0201401N002612200019N0100001N1+02351+01851101021ADDGF103991031021004501001001KA1240N+01901MA1999999091521MD1999999+0031REMSYN076AAXX  25124 83339 32497 31405 10235 20185 39152 40102 83200 333 20190 58003;
0137833390999992009022518004-14050-042617FM-12+088299999V0201401N003112200019N0100001N1+03051+01571100611ADDGF104991031021004501021001MA1999999091231MD1999999+0121REMSYN070AAXX  25184 83339 32497 41406 10305 20157 39123 40061 83220 333 58012;
0168833390999992009022600004-14050-042617FM-12+088299999V0201401N004612200019N0020001N1+02571+01561100821ADDGF102991021021004501001001KA1240M+03131MA1999999091351MD1999999+0091REMSYN088AAXX  26004 83339 32495 21409 10257 20156 39135 40082 82200 333 10313 29056 55110 58009;
0156833390999992009022612004-14050-042617FM-12+088299999V0201401N004610042019N0100001N1+02291+01771100901ADDGF106991061021004501001001KA1240N+02081MA1999999091431MD1999999-0091REMSYN076AAXX  26124 83339 32497 61409 10229 20177 39143 40090 86200 333 20208 59009;
0137833390999992009022618004-14050-042617FM-12+088299999V0201401N003612200019N0100001N1+02991+01621100531ADDGF104991031021004501021001MA1999999091171MD1999999-0061REMSYN070AAXX  26184 83339 32497 41407 10299 20162 39117 40053 83220 333 59006;
0168833390999992009022700004-14050-042617FM-12+088299999V0201801N006712200019N0020001N1+02371+01951100871ADDGF102991021021004501001001KA1240M+03081MA1999999091361MD1999999+0011REMSYN088AAXX  27004 83339 32495 21813 10237 20195 39136 40087 82200 333 10308 29068 55085 58001;
0156833390999992009022712004-14050-042617FM-12+088299999V0201401N003610042019N0100001N1+02251+01691101061ADDGF106991061021004501001001KA1240N+01851MA1999999091521MD1999999+0091REMSYN076AAXX  27124 83339 32497 61407 10225 20169 39152 40106 86200 333 20185 58009;
0137833390999992009022718004-14050-042617FM-12+088299999V0201401N003610042019N0100001N1+02651+01631100791ADDGF106991051021004501001021MA1999999091311MD1999999+0141REMSYN070AAXX  27184 83339 32497 61407 10265 20163 39131 40079 85202 333 58014;
0168833390999992009022800004-14050-042617FM-12+088299999V0201401N003112200019N0020001N1+02251+01641100961ADDGF102991021021004501001001KA1240M+02761MA1999999091411MD1999999+0051REMSYN088AAXX  28004 83339 32495 21406 10225 20164 39141 40096 82200 333 10276 29066 55066 58005;
0156833390999992009022812004-14050-042617FM-12+088299999V0202301N006210042019N0100001N1+02151+01761101201ADDGF106991061021004501001001KA1240N+01901MA1999999091601MD1999999+0081REMSYN076AAXX  28124 83339 32497 62312 10215 20176 39160 40120 86200 333 20190 58008;
0156833390999992009022818004-14050-042617FM-12+088299999V0201401N001519999999N0100001N1+02871+01521100781ADDGF105991999021004501001001MA1999999091321MD1999999+0011REMSYN070AAXX  28184 83339 32497 51403 10287 20152 39132 40078 81200 333 58001;EQDQ01+000012SCOTLC
0168833390999992009030100004-14050-042617FM-12+088299999V0201401N004612200019N0020001N1+02451+01561100991ADDGF102991021021004501001001KA1240M+02981MA1999999091451MD1999999+0041REMSYN088AAXX  01004 83339 32495 21409 10245 20156 39145 40099 82200 333 10298 29060 55097 58004;
0156833390999992009030112004-14050-042617FM-12+088299999V0201401N004610042019N0100001N1+02331+01761101211ADDGF105991051021004501001001KA1240N+01971MA1999999091691MD1999999+0091REMSYN076AAXX  01124 83339 32497 51409 10233 20176 39169 40121 85200 333 20197 58009;
0137833390999992009030118004-14050-042617FM-12+088299999V0200501N001512200019N0100001N1+03111+01371100751ADDGF103991021021004501001021MA1999999091371MD1999999+0051REMSYN070AAXX  01184 83339 32497 30503 10311 20137 39137 40075 82202 333 58005;
0168833390999992009030200004-14050-042617FM-12+088299999V0201801N002612200019N0020001N1+02471+01411101431ADDGF104991041021004501001001KA1240M+03061MA1999999091461MD1999999+0011REMSYN088AAXX  02004 83339 32495 41805 10247 20141 39146 40143 84200 333 10306 29053 55098 58001;
0156833390999992009030212004-14050-042617FM-12+088299999V0200501N006712200019N0100001N1+02391+01701101271ADDGF102991021011004501001001KA1240N+02041MA1999999091761MD1999999+0071REMSYN076AAXX  02124 83339 32497 20513 10239 20170 39176 40127 82100 333 20204 58007;
0178833390999992009030300004-14050-042617FM-12+088299999V0201401N001512200019N0020001N1+02571+01361100911ADDGA1001+999999999GF100991001001999999001001KA1240M+03121MA1999999091451MD1999999-0011REMSYN082AAXX  03004 83339 32995 01403 10257 20136 39145 40091 333 10312 29048 55114 59001;
0156833390999992009030312004-14050-042617FM-12+088299999V0201401N004612200019N0100001N1+02331+01871101241ADDGF104991041021004501001001KA1240N+01991MA1999999091741MD1999999-0021REMSYN076AAXX  03124 83339 32497 41409 10233 20187 39174 40124 84200 333 20199 59002;
0137833390999992009030318004-14050-042617FM-12+088299999V0201401N003112200019N0100001N1+03111+01351100631ADDGF102991021011004501001001MA1999999091281MD1999999-0081REMSYN070AAXX  03184 83339 32497 21406 10311 20135 39128 40063 82100 333 59008;
0178833390999992009030400004-14050-042617FM-12+088299999V0202301N002112200019N0020001N1+02561+01281100641ADDGA1001+999999999GF100991001001999999001001KA1240M+03221MA1999999091371MD1999999-0081REMSYN082AAXX  04004 83339 32995 02304 10256 20128 39137 40064 333 10322 29050 55094 59008;
0150833390999992009030412004-14050-042617FM-12+088299999V0203601N001519999999N0100001N1+02421+01991101011ADDGF105991999999008001999999KA1240N+01891MA1999999092961MD1999999-0171REMSYN070AAXX  04124 83339 32597 53603 10242 20199 39296 40101 333 20189 59017;
0156833390999992009030418004-14050-042617FM-12+088299999V0203601N001512200019N0100001N1+03301+01091100461ADDGF102991021011004501001001MA1999999091152MD1999999-0131REMSYN070AAXX  04184 83339 32497 23603 10330 20109 39115 40046 82100 333 59013;EQDQ01+091153APOSP 
0168833390999992009030500004-14050-042617FM-12+088299999V0200901N001512200019N0020001N1+02611+01191100711ADDGF102991021011004501001001KA1240M+03361MA1999999091301MD1999999-0071REMSYN088AAXX  05004 83339 32495 20903 10261 20119 39130 40071 82100 333 10336 29042 55114 59007;
0166833390999992009030512004-14050-042617FM-12+088299999V0201401N002112200019N0020001N1+02651+01711100921ADDGA1001+999999999GF100991001001999999001001KA1240N+02081MA1999999091531MD1999999-0041REMSYN070AAXX  05124 83339 32995 01404 10265 20171 39153 40092 333 20208 59004;
0137833390999992009030518004-14050-042617FM-12+088299999V0201801N002612200019N0100001N1+03311+01331100331ADDGF102991021021004501001001MA1999999091071MD1999999-0081REMSYN070AAXX  05184 83339 32497 21805 10331 20133 39107 40033 82200 333 59008;
0178833390999992009030600004-14050-042617FM-12+088299999V0209999C000012200019N0020001N1+02771+01411100571ADDGA1001+999999999GF100991001001999999001001KA1240M+03371MA1999999091231MD1999999-0071REMSYN082AAXX  06004 83339 32995 00000 10277 20141 39123 40057 333 10337 29043 55105 59007;
0156833390999992009030612004-14050-042617FM-12+088299999V0200901N001512200019N0100001N1+02571+01881100901ADDGF104991011011004501001011KA1240N+02081MA1999999091551MD1999999+0021REMSYN076AAXX  06124 83339 32497 40903 10257 20188 39155 40090 81101 333 20208 58002;
0137833390999992009030618004-14050-042617FM-12+088299999V0203201N000510042019N0100001N1+03251+01641100421ADDGF106991051021004501001011MA1999999091151MD1999999+0081REMSYN070AAXX  06184 83339 32497 63201 10325 20164 39115 40042 85201 333 58008;
0196833390999992009030700004-14050-042617FM-12+088299999V0202701N005110042019N0020001N1+02541+01951100781ADDAY121061AY221061GF107991071021004501001001KA1240M+03311MA1999999091361MD1999999+0131MW1131REMSYN094AAXX  07004 83339 31495 72710 10254 20195 39136 40078 71322 87200 333 10331 29061 55073 58013;
0156833390999992009030712004-14050-042617FM-12+088299999V0202701N004112200019N0100001N1+02421+01841101111ADDGF103991011011004501001011KA1240N+02191MA1999999091641MD1999999+0091REMSYN076AAXX  07124 83339 32497 32708 10242 20184 39164 40111 81101 333 20219 58009;
0137833390999992009030718004-14050-042617FM-12+088299999V0202701N002110042019N0100001N1+03231+01711100501ADDGF105991051021004501001001MA1999999091211MD1999999+0061REMSYN070AAXX  07184 83339 32497 52704 10323 20171 39121 40050 85200 333 58006;
0213833390999992009030800004-14050-042617FM-12+088299999V0202701N004610042019N0020001N1+02131+01501100991ADDAA106030091AY161061AY291061GF108991061021004501021999KA1240M+03291MA1999999091451MD1999999+0091MW1131REMSYN100AAXX  08004 83339 21495 82709 10213 20150 39145 40099 71369 8622/ 333 10329 29061 55087 58009 60301;
0201833390999992009030812004-14050-042617FM-12+088299999V0200901N003110042019N0100001N1+02201+01991101351ADDAA124030091AY161061AY221061GF108991051021004501021999KA1240N+01751MA1999999091721MD1999999+0081MW1021REMSYN088AAXX  08124 83339 21497 80906 10220 20199 39172 40135 70262 8522/ 333 20175 58008 60304;
0137833390999992009030818004-14050-042617FM-12+088299999V0201401N002112200019N0100001N1+02931+01761100681ADDGF104991031021004501001011MA1999999091231MD1999999+0021REMSYN070AAXX  08184 83339 32497 41404 10293 20176 39123 40068 83201 333 58002;
0168833390999992009030900004-14050-042617FM-12+088299999V0201401N003112200019N0020001N1+02571+01611100801ADDGF102991021011004501001001KA1240M+02981MA1999999091321MD1999999-0131REMSYN088AAXX  09004 83339 32495 21406 10257 20161 39132 40080 82100 333 10298 29062 55084 59013;
0156833390999992009030912004-14050-042617FM-12+088299999V0201401N004610042019N0100001N1+02291+01771101081ADDGF106991061021004501001001KA1240N+01921MA1999999091591MD1999999-0131REMSYN076AAXX  09124 83339 32497 61409 10229 20177 39159 40108 86200 333 20192 59013;
0137833390999992009030918004-14050-042617FM-12+088299999V0200501N001512200019N0100001N1+02951+01691100581ADDGF103991031021004501001001MA1999999091201MD1999999-0031REMSYN070AAXX  09184 83339 32497 30503 10295 20169 39120 40058 83200 333 59003;
0168833390999992009031000004-14050-042617FM-12+088299999V0201401N001512200019N0020001N1+02611+01511100771ADDGF102991021021004501001001KA1240M+03021MA1999999091311MD1999999-0011REMSYN088AAXX  10004 83339 32495 21403 10261 20151 39131 40077 82200 333 10302 29056 55105 59001;
0156833390999992009031012004-14050-042617FM-12+088299999V0200901N003112200019N0100001N1+02291+01811101011ADDGF102991011021004501001021KA1240N+01881MA1999999091531MD1999999-0061REMSYN076AAXX  10124 83339 32497 20906 10229 20181 39153 40101 81202 333 20188 59006;
0137833390999992009031018004-14050-042617FM-12+088299999V0201401N003612200019N0100001N1+02951+01481100601ADDGF102991021021004501001001MA1999999091221MD1999999+0021REMSYN070AAXX  10184 83339 32497 21407 10295 20148 39122 40060 82200 333 58002;
0178833390999992009031100004-14050-042617FM-12+088299999V0201801N003612200019N0020001N1+02491+01071100741ADDGA1001+999999999GF100991001001999999001001KA1240M+03041MA1999999091261MD1999999-0051REMSYN082AAXX  11004 83339 32995 01807 10249 20107 39126 40074 333 10304 29050 55109 59005;
0156833390999992009031112004-14050-042617FM-12+088299999V0201401N003112200019N0100001N1+02291+01731101031ADDGF102991021021004501001001KA1240N+01931MA1999999091531MD1999999+0001REMSYN076AAXX  11124 83339 32497 21406 10229 20173 39153 40103 82200 333 20193 58000;
0147833390999992009031118004-14050-042617FM-12+088299999V0201401N003612200019N0100001N1+03071+00831100471ADDGA1001+999999999GF100991001001999999001001MA1999999091161MD1999999-0061REMSYN064AAXX  11184 83339 32997 01407 10307 20083 39116 40047 333 59006;
0168833390999992009031200004-14050-042617FM-12+088299999V0201401N002612200019N0020001N1+02571+01171100721ADDGF103991031021004501001001KA1240M+03151MA1999999091261MD1999999+0001REMSYN088AAXX  12004 83339 32495 31405 10257 20117 39126 40072 83200 333 10315 29045 55114 58000;
0156833390999992009031212004-14050-042617FM-12+088299999V0201401N006712200019N0100001N1+02311+01751100951ADDGF104991041021004501001001KA1240N+01961MA1999999091471MD1999999-0061REMSYN076AAXX  12124 83339 32497 41413 10231 20175 39147 40095 84200 333 20196 59006;
0137833390999992009031218004-14050-042617FM-12+088299999V0201401N002612200019N0100001N1+02951+01321100501ADDGF102991011021004501021001MA1999999091131MD1999999-0031REMSYN070AAXX  12184 83339 32497 21405 10295 20132 39113 40050 81220 333 59003;
0178833390999992009031300004-14050-042617FM-12+088299999V0200901N001512200019N0020001N1+02531+01241100601ADDGA1001+999999999GF100991001001999999001001KA1240M+03051MA1999999091141MD1999999-0121REMSYN082AAXX  13004 83339 32995 00903 10253 20124 39114 40060 333 10305 29050 55111 59012;
0160833390999992009031312004-14050-042617FM-12+088299999V0201401N003112200019N0100001N1+02331+01811100871ADDGF102991021021004501001001KA1240N+01921MD1999999-0071REMSYN076AAXX  13124 83339 32497 21406 10233 20181 33914 40087 82200 333 20192 59007;EQDQ01+039141APOSP 
0137833390999992009031318004-14050-042617FM-12+088299999V0201401N003112200019N0100001N1+03051+01371100401ADDGF103991021021004501021001MA1999999091051MD1999999-0081REMSYN070AAXX  13184 83339 32497 31406 10305 20137 39105 40040 82220 333 59008;
0178833390999992009031400004-14050-042617FM-12+088299999V0209999C000012200019N0020001N1+02511+01191100631ADDGA1001+999999999GF100991001001999999001001KA1240M+03141MA1999999091161MD1999999+0021REMSYN082AAXX  14004 83339 32995 00000 10251 20119 39116 40063 333 10314 29049 55108 58002;
0166833390999992009031412004-14050-042617FM-12+088299999V0200901N002112200019N0100001N1+02411+01651100851ADDGA1001+999999999GF100991001001999999001001KA1240N+01981MA1999999091381MD1999999-0021REMSYN070AAXX  14124 83339 32997 00904 10241 20165 39138 40085 333 20198 59002;
0137833390999992009031418004-14050-042617FM-12+088299999V0203201N000512200019N0100001N1+03311+01091100361ADDGF104991041021004501001001MA1999999091041MD1999999-0011REMSYN070AAXX  14184 83339 32497 43201 10331 20109 39104 40036 84200 333 59001;
0178833390999992009031500004-14050-042617FM-12+088299999V0202301N002112200019N0020001N1+02721+00951100561ADDGA1001+999999999GF100991001001999999001001KA1240M+03461MA1999999091161MD1999999+0001REMSYN082AAXX  15004 83339 32995 02304 10272 20095 39116 40056 333 10346 29039 55114 58000;
0156833390999992009031512004-14050-042617FM-12+088299999V0200501N001512200019N0100001N1+02711+01751100851ADDGF102991021021004501001001KA1240N+02161MA1999999091481MD1999999+0101REMSYN076AAXX  15124 83339 32497 20503 10271 20175 39148 40085 82200 333 20216 58010;
0137833390999992009031518004-14050-042617FM-12+088299999V0203601N006210042019N0100001N1+03031+01831100461ADDGF106991051021004501021001MA1999999091151MD1999999+0111REMSYN070AAXX  15184 83339 32497 63612 10303 20183 39115 40046 85220 333 58011;
0168833390999992009031600004-14050-042617FM-12+088299999V0202701N000512200019N0020001N1+02571+01801100601ADDGF103991031021004501001001KA1240M+03201MA1999999091241MD1999999+0081REMSYN088AAXX  16004 83339 32495 32701 10257 20180 39124 40060 83200 333 10320 29058 55062 58008;
0201833390999992009031612004-14050-042617FM-12+088299999V0200501N002611050019N0100001N1+02531+02111100971ADDAA124034091AY191061AY261061GF105991011011004501031011KA1240N+01991MA1999999091541MD1999999+0061MW1021REMSYN088AAXX  16124 83339 21497 50505 10253 20211 39154 40097 70296 81131 333 20199 58006 60344;
0137833390999992009031618004-14050-042617FM-12+088299999V0201401N003112200019N0100001N1+03051+01771100471ADDGF105991041021004501001011MA1999999091121MD1999999-0031REMSYN070AAXX  16184 83339 32497 51406 10305 20177 39112 40047 84201 333 59003;
0178833390999992009031700004-14050-042617FM-12+088299999V0201401N001512200019N0020001N1+02631+01601100781ADDGA1001+999999999GF100991001001999999001001KA1240M+03121MA1999999091381MD1999999+0141REMSYN082AAXX  17004 83339 32995 01403 10263 20160 39138 40078 333 10312 29057 55094 58014;
0156833390999992009031712004-14050-042617FM-12+088299999V0201401N003612200019N0100001N1+02231+01801101201ADDGF106991021011004501001011KA1240N+02041MA1999999091701MD1999999+0161REMSYN076AAXX  17124 83339 32497 61407 10223 20180 39170 40120 82101 333 20204 58016;
0137833390999992009031718004-14050-042617FM-12+088299999V0201401N001510450019N0100001N1+02891+01591100771ADDGF105991031021004501031011MA1999999091371MD1999999+0251REMSYN070AAXX  17184 83339 32497 51403 10289 20159 39137 40077 83231 333 58025;
0168833390999992009031800004-14050-042617FM-12+088299999V0201401N006712200019N0020001N1+02341+01831101151ADDGF102991021011004501001001KA1240M+02981MA1999999091601MD1999999+0221REMSYN088AAXX  18004 83339 32495 21413 10234 20183 39160 40115 82100 333 10298 29067 55085 58022;
0156833390999992009031812004-14050-042617FM-12+088299999V0201401N004610042019N0100001N1+02231+01841101251ADDGF106991061021004501001001KA1240N+02031MA1999999091691MD1999999-0011REMSYN076AAXX  18124 83339 32497 61409 10223 20184 39169 40125 86200 333 20203 59001;
0137833390999992009031818004-14050-042617FM-12+088299999V0200901N003112200019N0100001N1+02931+01591100741ADDGF104991041021004501001001MA1999999091331MD1999999-0041REMSYN070AAXX  18184 83339 32497 40906 10293 20159 39133 40074 84200 333 59004;
0168833390999992009031900004-14050-042617FM-12+088299999V0201801N003112200019N0020001N1+02501+01671101001ADDGF102991021021004501001001KA1240M+02981MA1999999091481MD1999999-0121REMSYN088AAXX  19004 83339 32495 21806 10250 20167 39148 40100 82200 333 10298 29061 55073 59012;
0220833390999992009031912004-14050-042617FM-12+088299999V0201401N005110042019N0100001N1+02191+01991101141ADDAA124023191AY161061AY221061GF106991061021004501001001KA1240N+02041MA1999999999999MD1999999-0081MW1021REMSYN088AAXX  19124 83339 21497 61410 10219 20199 30161 40114 70262 86200 333 20204 59008 60234;EQDQ01 101613APOSP 
0156833390999992009031918004-14050-042617FM-12+088299999V0201401N001010042019N0100001N1+02351+02051100851ADDGF105991051021004501001001MA1999999091332MD1999999+0001REMSYN070AAXX  19184 83339 32497 51402 10235 20205 39133 40085 85200 333 58000;EQDQ01+091333APOSP 
0178833390999992009032000004-14050-042617FM-12+088299999V0201401N004112200019N0020001N1+02231+01961100941ADDGA1001+999999999GF100991001001999999001001KA1240M+02751MA1999999091361MD1999999-0121REMSYN082AAXX  20004 83339 32995 01408 10223 20196 39136 40094 333 10275 29085 55043 59012;
0156833390999992009032012004-14050-042617FM-12+088299999V0201401N005112200019N0100001N1+02301+01921101151ADDGF104991041021004501001001KA1240N+02001MA1999999091581MD1999999-0031REMSYN076AAXX  20124 83339 32497 41410 10230 20192 39158 40115 84200 333 20200 59003;
0137833390999992009032018004-14050-042617FM-12+088299999V0201401N002612200019N0100001N1+02821+01741100651ADDGF102991021021004501001001MA1999999091201MD1999999-0131REMSYN070AAXX  20184 83339 32497 21405 10282 20174 39120 40065 82200 333 59013;
0178833390999992009032100004-14050-042617FM-12+088299999V0202301N001512200019N0020001N1+02351+01731100901ADDGA1001+999999999GF100991001001999999001001KA1240M+02891MA1999999091371MD1999999+0011REMSYN082AAXX  21004 83339 32995 02303 10235 20173 39137 40090 333 10289 29067 55107 58001;
0156833390999992009032112004-14050-042617FM-12+088299999V0201401N003110042019N0100001N1+02271+02001101081ADDGF106991061021004501001001KA1240N+02061MA1999999091541MD1999999-0041REMSYN076AAXX  21124 83339 32497 61406 10227 20200 39154 40108 86200 333 20206 59004;
0137833390999992009032118004-14050-042617FM-12+088299999V0201401N003112200019N0100001N1+02931+01821100461ADDGF102991021021004501001001MA1999999091071MD1999999-0131REMSYN070AAXX  21184 83339 32497 21406 10293 20182 39107 40046 82200 333 59013;
0178833390999992009032200004-14050-042617FM-12+088299999V0201401N003112200019N0020001N1+02531+01781100771ADDGA1001+999999999GF100991001001999999001001KA1240M+02981MA1999999091291MD1999999-0081REMSYN082AAXX  22004 83339 32995 01406 10253 20178 39129 40077 333 10298 29065 55087 59008;
0156833390999992009032212004-14050-042617FM-12+088299999V0201401N002610042019N0100001N1+02271+02031100981ADDGF106991061021004501001001KA1240N+02081MA1999999091481MD1999999-0061REMSYN076AAXX  22124 83339 32497 61405 10227 20203 39148 40098 86200 333 20208 59006;
0137833390999992009032218004-14050-042617FM-12+088299999V0203201N002110042019N0100001N1+02771+02011100401ADDGF106991051021004501001041MA1999999091021MD1999999-0051REMSYN070AAXX  22184 83339 32497 63204 10277 20201 39102 40040 85204 333 59005;
0168833390999992009032300004-14050-042617FM-12+088299999V0209999C000012200019N0020001N1+02351+02011100681ADDGF104991041021004501001001KA1240M+03011MA1999999091191MD1999999-0101REMSYN088AAXX  23004 83339 32495 40000 10235 20201 39119 40068 84200 333 10301 29078 55049 59010;
0201833390999992009032312004-14050-042617FM-12+088299999V0201401N003110042019N0040001N1+02091+02011101001ADDAA124003091AY191061AY261061GF108991081051004501999999KA1240N+01961MA1999999091421MD1999999-0061MW1101REMSYN088AAXX  23124 83339 21496 81406 10209 20201 39142 40100 71096 885// 333 20196 59006 60034;
0137833390999992009032318004-14050-042617FM-12+088299999V0201401N001510042019N0100001N1+02611+02081100581ADDGF106991051021004501021001MA1999999091121MD1999999+0101REMSYN070AAXX  23184 83339 32497 61403 10261 20208 39112 40058 85220 333 58010;
0196833390999992009032400004-14050-042617FM-12+088299999V0202701N001512200019N0020001N1+02321+02021100901ADDAY101061AY201061GF104991041021004501001001KA1240M+02661MA1999999091331MD1999999+0141MW1131REMSYN094AAXX  24004 83339 31495 42703 10232 20202 39133 40090 71300 84200 333 10266 29084 55028 58014;
0184833390999992009032412004-14050-042617FM-12+088299999V0200901N001510042019N0040001N1+02231+02011101051ADDAY101061AY201061GF107991061021004501021999KA1240N+02001MA1999999091491MD1999999+0071MW1101REMSYN082AAXX  24124 83339 31496 70903 10223 20201 39149 40105 71000 8622/ 333 20200 58007;
0182833390999992009032418004-14050-042617FM-12+088299999V0202301N002110042019N0040001N1+02231+02031100801ADDAA106055191AY191061AY261061GF106991051021004501021001MA1999999091241MD1999999+0121MW1101REMSYN082AAXX  24184 83339 21496 62304 10223 20203 39124 40080 71096 85220 333 58012 60551;
0196833390999992009032500004-14050-042617FM-12+088299999V0209999C000010042019N0020001N1+02151+02071100931ADDAY101061AY201061GF108991081051004501999999KA1240M+02801MA1999999091351MD1999999+0021MW1101REMSYN094AAXX  25004 83339 31495 80000 10215 20207 39135 40093 71000 885// 333 10280 29092 55016 58002;
0201833390999992009032512004-14050-042617FM-12+088299999V0203601N001510042019N0040001N1+02291+02051101021ADDAA124055191AY161061AY261061GF108991081051004501999999KA1240N+02061MA1999999091441MD1999999-0051MW1101REMSYN088AAXX  25124 83339 21496 83603 10229 20205 39144 40102 71066 885// 333 20206 59005 60554;
0182833390999992009032518004-14050-042617FM-12+088299999V0202701N002110042019N0040001N1+02331+01981100751ADDAA106007191AY161061AY261061GF108991081051004501999999MA1999999091191MD1999999-0051MW1101REMSYN082AAXX  25184 83339 21496 82704 10233 20198 39119 40075 71066 885// 333 59005 60071;
0196833390999992009032600004-14050-042617FM-12+088299999V0201801N001010042019N0020001N1+02131+02021100891ADDAY101061AY201061GF106991061021004501001001KA1240M+02401MA1999999091321MD1999999-0031MW1101REMSYN094AAXX  26004 83339 31495 61802 10213 20202 39132 40089 71000 86200 333 10240 29089 55000 59003;
0201833390999992009032612004-14050-042617FM-12+088299999V0200901N001510042019N0100001N1+02251+02011101091ADDAA124007191AY161061AY261061GF106991051021004501031001KA1240N+01971MA1999999091501MD1999999+0061MW1101REMSYN088AAXX  26124 83339 21497 60903 10225 20201 39150 40109 71066 85230 333 20197 58006 60074;
0182833390999992009032618004-14050-042617FM-12+088299999V0201801N001510042019N0100001N1+02331+02091100751ADDAA106000891AY191061AY261061GF106991051021004501021001MA1999999091191MD1999999+0001MW1171REMSYN082AAXX  26184 83339 21497 61803 10233 20209 39119 40075 71796 85220 333 58000 69981;
0196833390999992009032700004-14050-042617FM-12+088299999V0202701N001512200019N0020001N1+02271+02011100881ADDAY101061AY201061GF104991041021004501001001KA1240M+02861MA1999999091341MD1999999+0021MW1101REMSYN094AAXX  27004 83339 31495 42703 10227 20201 39134 40088 71000 84200 333 10286 29086 55043 58002;
0201833390999992009032712004-14050-042617FM-12+088299999V0202301N001510042019N0040001N1+01931+01871101371ADDAA124024991AY191061AY261061GF108991081051004501999999KA1240N+01901MA1999999091721MD1999999+0221MW1621REMSYN088AAXX  27124 83339 21496 82303 10193 20187 39172 40137 76296 885// 333 20190 58022 60254;
0182833390999992009032718004-14050-042617FM-12+088299999V0200901N001510042019N0040001N1+02261+02051101001ADDAA106005191AY161061AY261061GF107991061021004501021999MA1999999091401MD1999999+0211MW1101REMSYN082AAXX  27184 83339 21496 70903 10226 20205 39140 40100 71066 8622/ 333 58021 60051;
0196833390999992009032800004-14050-042617FM-12+088299999V0209999C000012200019N0020001N1+02011+01831101131ADDAY101061AY201061GF102991021021004501001001KA1240M+02341MA1999999091441MD1999999+0101MW1101REMSYN094AAXX  28004 83339 31495 20000 10201 20183 39144 40113 71000 82200 333 10234 29091 55006 58010;
0201833390999992009032812004-14050-042617FM-12+088299999V0200901N002112200019N0100001N1+02311+01961101131ADDAA124005191AY161061AY261061GF102991011021004501001021KA1240N+01801MA1999999091521MD1999999-0201MW1101REMSYN088AAXX  28124 83339 21497 20904 10231 20196 39152 40113 71066 81202 333 20180 59020 60054;
0137833390999992009032818004-14050-042617FM-12+088299999V0201401N002612200019N0100001N1+02771+01941100671ADDGF104991041021004501001001MA1999999091181MD1999999-0221REMSYN070AAXX  28184 83339 32497 41405 10277 20194 39118 40067 84200 333 59022;
0196833390999992009032900004-14050-042617FM-12+088299999V0202701N001012200019N0020001N1+02371+01891100841ADDAY101061AY201061GF102991021021004501001001KA1240M+02921MA1999999091341MD1999999-0101MW1131REMSYN094AAXX  29004 83339 31495 22702 10237 20189 39134 40084 71300 82200 333 10292 29073 55094 59010;
0201833390999992009032912004-14050-042617FM-12+088299999V0202301N003610042019N0100001N1+02331+01941101021ADDAA124000891AY161061AY261061GF106991051021004501021001KA1240N+02001MA1999999091501MD1999999-0021MW1021REMSYN088AAXX  29124 83339 21497 62307 10233 20194 39150 40102 70266 85220 333 20200 59002 69984;
0137833390999992009032918004-14050-042617FM-12+088299999V0202701N005110450019N0100001N1+02751+01971100631ADDGF105991041021004501021001MA1999999091181MD1999999+0001REMSYN070AAXX  29184 83339 32497 52710 10275 20197 39118 40063 84220 333 58000;
0196833390999992009033000004-14050-042617FM-12+088299999V0202701N001512200019N0020001N1+02331+02001100811ADDAY101061AY201061GF103991031021004501001001KA1240M+02841MA1999999091311MD1999999-0031MW1131REMSYN094AAXX  30004 83339 31495 32703 10233 20200 39131 40081 71300 83200 333 10284 29076 55057 59003;
0201833390999992009033012004-14050-042617FM-12+088299999V0202301N001012200019N0100001N1+02201+02031101121ADDAA124004191AY161061AY261061GF105991041021004501001011KA1240N+02121MA1999999091551MD1999999+0051MW1021REMSYN088AAXX  30124 83339 21497 52302 10220 20203 39155 40112 70266 84201 333 20212 58005 60044;
0137833390999992009033018004-14050-042617FM-12+088299999V0200501N001512200019N0100001N1+02401+02131100671ADDGF106991041021004501001041MA1999999091161MD1999999-0021REMSYN070AAXX  30184 83339 32497 60503 10240 20213 39116 40067 84204 333 59002;
0168833390999992009033100004-14050-042617FM-12+088299999V0209999C000012200019N0020001N1+02311+01981100711ADDGF103991031021004501001001KA1240M+02871MA1999999091681MD1999999-0131REMSYN088AAXX  31004 83339 32495 30000 10231 20198 39168 40071 83200 333 10287 29084 55029 59013;
0156833390999992009033112004-14050-042617FM-12+088299999V0200901N002612200019N0100001N1+02531+01861100851ADDGF102991011021004501001011KA1240N+02061MA1999999091361MD1999999-0191REMSYN076AAXX  31124 83339 32497 20905 10253 20186 39136 40085 81201 333 20206 59019;
0182833390999992009033118004-14050-042617FM-12+088299999V0203601N001510042019N0100001N1+02501+02071100601ADDAA106001091AY161061AY221061GF108991061021004501021999MA1999999091121MD1999999-0041MW1021REMSYN082AAXX  31184 83339 21497 83603 10250 20207 39112 40060 70262 8622/ 333 59004 60011;
0168833390999992009040100004-14050-042617FM-12+088299999V0202301N001512200019N0020001N1+02351+01801100671ADDGF103991031021004501001001KA1240M+02821MA1999999091221MD1999999+0041REMSYN088AAXX  01004 83339 32495 32303 10235 20180 39122 40067 83200 333 10282 29071 55043 58004;
0201833390999992009040112004-14050-042617FM-12+088299999V0203201N001510042019N0020001N1+02161+02061101051ADDAA124003091AY161061AY241061GF108991061021004501021999KA1240N+02141MA1999999091491MD1999999+0131MW1601REMSYN088AAXX  01124 83339 21495 83203 10216 20206 39149 40105 76064 8622/ 333 20214 58013 60034;
0182833390999992009040118004-14050-042617FM-12+088299999V0203201N004610042019N0100001N1+02601+02011100581ADDAA106000591AY161061AY221061GF106991051021004501001011MA1999999091121MD1999999+0001MW1021REMSYN082AAXX  01184 83339 21497 63209 10260 20201 39112 40058 70262 85201 333 58000 69961;
0168833390999992009040200004-14050-042617FM-12+088299999V0202701N002110042019N0020001N1+02391+02051100891ADDGF106991061021004501001001KA1240M+02661MA1999999091361MD1999999+0141REMSYN088AAXX  02004 83339 32495 62704 10239 20205 39136 40089 86200 333 10266 29082 55025 58014;
0201833390999992009040212004-14050-042617FM-12+088299999V0200501N001510042019N0100001N1+02261+02091101081ADDAA124000591AY161061AY221061GF108991051021004501021999KA1240N+02141MA1999999091541MD1999999-0051MW1021REMSYN088AAXX  02124 83339 21497 80503 10226 20209 39154 40108 70262 8522/ 333 20214 59005 69964;
0137833390999992009040218004-14050-042617FM-12+088299999V0200901N001510042019N0100001N1+02651+02141100721ADDGF106991051021004501021001MA1999999091261MD1999999+0141REMSYN070AAXX  02184 83339 32497 60903 10265 20214 39126 40072 85220 333 58014;
0168833390999992009040300004-14050-042617FM-12+088299999V0209999C000010042019N0020001N1+02261+02141100941ADDGF105991051021004501001001KA1240M+02761MA1999999091391MD1999999+0031REMSYN088AAXX  03004 83339 32495 50000 10226 20214 39139 40094 85200 333 10276 29087 55014 58003;
0201833390999992009040312004-14050-042617FM-12+088299999V0201401N002110042019N0020001N1+02111+02051101201ADDAA124000591AY161061AY241061GF108991061021004501021999KA1240N+02081MA1999999091581MD1999999+0041MW1401REMSYN088AAXX  03124 83339 21495 81404 10211 20205 39158 40120 74064 8622/ 333 20208 58004 69964;
0182833390999992009040318004-14050-042617FM-12+088299999V0201401N002111050019N0100001N1+02431+02051100731ADDAA106001091AY161061AY241061GF105991021021004501031011MA1999999091201MD1999999-0061MW1021REMSYN082AAXX  03184 83339 21497 51404 10243 20205 39120 40073 70264 82231 333 59006 60011;
0168833390999992009040400004-14050-042617FM-12+088299999V0200901N001010042019N0020001N1+02131+01971101061ADDGF108991081021004501999999KA1240M+02551MA1999999091441MD1999999+0051REMSYN088AAXX  04004 83339 32495 80902 10213 20197 39144 40106 882// 333 10255 29089 55028 58005;
0201833390999992009040412004-14050-042617FM-12+088299999V0201401N004110042019N0100001N1+02111+01861101301ADDAA124001091AY161061AY221061GF106991051021004501031001KA1240N+01941MA1999999091651MD1999999+0071MW1021REMSYN088AAXX  04124 83339 21497 61408 10211 20186 39165 40130 70262 85230 333 20194 58007 60014;
0137833390999992009040418004-14050-042617FM-12+088299999V0200901N004112200019N0100001N1+02621+01931100781ADDGF104991041021004501001001MA1999999091281MD1999999+0081REMSYN070AAXX  04184 83339 32497 40908 10262 20193 39128 40078 84200 333 58008;
0168833390999992009040500004-14050-042617FM-12+088299999V0202301N001510450019N0020001N1+02231+02031101181ADDGF108991041021004501021999KA1240M+02721MA1999999091561MD1999999+0121REMSYN088AAXX  05004 83339 32495 82303 10223 20203 39156 40118 8422/ 333 10272 29082 55056 58012;
0201833390999992009040512004-14050-042617FM-12+088299999V0200901N003110042019N0020001N1+02181+02041101171ADDAA124018091AY161061AY221061GF108991051021004501021999KA1240N+01981MA1999999091571MD1999999-0081MW1401REMSYN088AAXX  05124 83339 21495 80906 10218 20204 39157 40117 74062 8522/ 333 20198 59008 60184;
0165833390999992009040518004-14050-042617FM-12+088299999V0202301N001510042019N0100001N1+02731+02101100751ADDAY141061AY221061GF106991061021004501001001MA1999999091271MD1999999-0011MW1021REMSYN076AAXX  05184 83339 31497 62303 10273 20210 39127 40075 70242 86200 333 59001;
0213833390999992009040600004-14050-042617FM-12+088299999V0209999C000010042019N0020001N1+02171+02131101091ADDAA106003091AY161061AY221061GF108991061021004501021999KA1240M+02781MA1999999091501MD1999999-0061MW1401REMSYN100AAXX  06004 83339 21495 80000 10217 20213 39150 40109 74062 8622/ 333 10278 29089 55044 59006 60031;
0201833390999992009040612004-14050-042617FM-12+088299999V0200901N001510042019N0040001N1+02191+02081101271ADDAA124004191AY161061AY261061GF108991081051004501999999KA1240N+02041MA1999999091661MD1999999+0091MW1101REMSYN088AAXX  06124 83339 21496 80903 10219 20208 39166 40127 71066 885// 333 20204 58009 60044;
0137833390999992009040618004-14050-042617FM-12+088299999V0202701N004110042019N0100001N1+02491+02031100921ADDGF106991051021004501031001MA1999999091391MD1999999+0121REMSYN070AAXX  06184 83339 32497 62708 10249 20203 39139 40092 85230 333 58012;
0196833390999992009040700004-14050-042617FM-12+088299999V0203601N000512200019N0020001N1+02131+01951101091ADDAY101061AY201061GF104991041021004501001001KA1240M+02581MA1999999091481MD1999999-0021MW1131REMSYN094AAXX  07004 83339 31495 43601 10213 20195 39148 40109 71300 84200 333 10258 29088 55004 59002;
0156833390999992009040712004-14050-042617FM-12+088299999V0201401N001010042019N0100001N1+02191+01971101351ADDGF106991061021004501001001KA1240N+01901MA1999999091721MD1999999+0061REMSYN076AAXX  07124 83339 32497 61402 10219 20197 39172 40135 86200 333 20190 58006;
0137833390999992009040718004-14050-042617FM-12+088299999V0201401N004610042019N0100001N1+02751+01891100791ADDGF105991051021004501001001MA1999999091311MD1999999-0081REMSYN070AAXX  07184 83339 32497 51409 10275 20189 39131 40079 85200 333 59008;
0232833390999992009040800004-14050-042617FM-12+088299999V0201801N001512200019N0020001N1+02291+01831101021ADDAA106000091AY161061AY261061GF102991021021004501001001KA1240M+02901MA1999999091461MD1999999-0021MW1021REMSYN100AAXX  08004 83339 21495 21803 10229 20183 39146 40102 70266 82200 333 10290 29075 55069 59002 69921;EQDQ01  00002PRCP06
0236833390999992009040812004-14050-042617FM-12+088299999V0203601N046820042019N0100001N1+02151+01911101171ADDAA124000091AY161061AY261061GF106991061021004501001001KA1240N+02061MA1999999091571MD1999999-0151MW1101REMSYN088AAXX  08124 83339 21497 63691 10215 20191 39157 40117 71066 86200 333 20206 59015 69924;EQDQ01+004683WOSPD Q02  00002PRCP24
0137833390999992009040818004-14050-042617FM-12+088299999V0202701N004112200019N0100001N1+02891+01891100631ADDGF104991041021004501001001MA1999999091231MD1999999-0081REMSYN070AAXX  08184 83339 32497 42708 10289 20189 39123 40063 84200 333 59008;
0196833390999992009040900004-14050-042617FM-12+088299999V0201401N000512200019N0020001N1+02271+02071100981ADDAY101061AY201061GF102991021021004501001001KA1240M+02951MA1999999091401MD1999999-0061MW1101REMSYN094AAXX  09004 83339 31495 21401 10227 20207 39140 40098 71000 82200 333 10295 29078 55069 59006;
0184833390999992009040912004-14050-042617FM-12+088299999V0203601N000510042019N0100001N1+02321+02001101121ADDAY101061AY201061GF106991061021004501001001KA1240N+02081MA1999999091571MD1999999+0001MW1101REMSYN082AAXX  09124 83339 31497 63601 10232 20200 39157 40112 71000 86200 333 20208 58000;
0137833390999992009040918004-14050-042617FM-12+088299999V0202701N003110042019N0100001N1+02411+01971100801ADDGF106991051021004501021001MA1999999091281MD1999999+0051REMSYN070AAXX  09184 83339 32497 62706 10241 20197 39128 40080 85220 333 58005;
0196833390999992009041000004-14050-042617FM-12+088299999V0209999C000012200019N0020001N1+02151+02001101031ADDAY101061AY201061GF103991031021004501001001KA1240M+02601MA1999999091471MD1999999+0071MW1101REMSYN094AAXX  10004 83339 31495 30000 10215 20200 39147 40103 71000 83200 333 10260 29086 55025 58007;
0184833390999992009041012004-14050-042617FM-12+088299999V0200901N003110042019N0100001N1+02231+02031101091ADDAY101061AY201061GF106991061021004501001001KA1240N+01981MA1999999091501MD1999999-0071MW1101REMSYN082AAXX  10124 83339 31497 60906 10223 20203 39150 40109 71000 86200 333 20198 59007;
0137833390999992009041018004-14050-042617FM-12+088299999V0201801N001510042019N0100001N1+02531+02071100711ADDGF106991051021004501021001MA1999999091201MD1999999-0081REMSYN070AAXX  10184 83339 32497 61803 10253 20207 39120 40071 85220 333 59008;
0196833390999992009041100004-14050-042617FM-12+088299999V0202701N001510042019N0020001N1+02291+02001100941ADDAY101061AY201061GF107991061021004501021999KA1240M+02781MA1999999091391MD1999999-0081MW1131REMSYN094AAXX  11004 83339 31495 72703 10229 20200 39139 40094 71300 8622/ 333 10278 29083 55041 59008;
0201833390999992009041112004-14050-042617FM-12+088299999V0209999C000010042019N0040001N1+02011+01931101281ADDAA124010991AY161061AY211061GF108991081051004501999999KA1240N+02001MA1999999091651MD1999999+0151MW1601REMSYN088AAXX  11124 83339 21496 80000 10201 20193 39165 40128 76061 885// 333 20200 58015 60114;
0182833390999992009041118004-14050-042617FM-12+088299999V0201401N004110042019N0100001N1+02431+01951100831ADDAA106000891AY161061AY261061GF106991051021004501021001MA1999999091311MD1999999+0111MW1021REMSYN082AAXX  11184 83339 21497 61408 10243 20195 39131 40083 70266 85220 333 58011 69981;
0196833390999992009041200004-14050-042617FM-12+088299999V0201401N004610042019N0020001N1+02211+01971101171ADDAY101061AY201061GF105991051021004501001001KA1240M+02521MA1999999091541MD1999999+0151MW1101REMSYN094AAXX  12004 83339 31495 51409 10221 20197 39154 40117 71000 85200 333 10252 29086 55022 58015;
0201833390999992009041212004-14050-042617FM-12+088299999V0201401N006210042019N0100001N1+02171+01841101291ADDAA124001091AY161061AY261061GF105991051021004501001001KA1240N+01921MA1999999091681MD1999999+0031MW1101REMSYN088AAXX  12124 83339 21497 51412 10217 20184 39168 40129 71066 85200 333 20192 58003 60014;
0137833390999992009041218004-14050-042617FM-12+088299999V0201401N004112200019N0100001N1+02531+01741101021ADDGF104991041021004501001001MA1999999091481MD1999999+0171REMSYN070AAXX  12184 83339 32497 41408 10253 20174 39148 40102 84200 333 58017;
0168833390999992009041300004-14050-042617FM-12+088299999V0201401N004610042019N0020001N1+02271+01861101291ADDGF106991061021004501001001KA1240M+02661MA1999999091681MD1999999+0141REMSYN088AAXX  13004 83339 32495 61409 10227 20186 39168 40129 86200 333 10266 29075 55096 58014;
0201833390999992009041312004-14050-042617FM-12+088299999V0201401N005110042019N0020001N1+01891+01851101551ADDAA124017091AY161061AY241061GF108991051021004501021999KA1240N+01871MA1999999091881MD1999999+0201MW1501REMSYN088AAXX  13124 83339 21495 81410 10189 20185 39188 40155 75064 8522/ 333 20187 58020 60174;
0182833390999992009041318004-14050-042617FM-12+088299999V0201401N005110042019N0020001N1+02011+01991101301ADDAA106007991AY161061AY241061GF108991061021004501021999MA1999999091641MD1999999+0161MW1401REMSYN082AAXX  13184 83339 21495 81410 10201 20199 39164 40130 74064 8622/ 333 58016 60081;
0196833390999992009041400004-14050-042617FM-12+088299999V0201401N005110042019N0020001N1+02051+02011101521ADDAY141061AY241061GF105991051021004501001001KA1240M+02341MA1999999091791MD1999999+0111MW1401REMSYN094AAXX  14004 83339 31495 51410 10205 20201 39179 40152 74044 85200 333 10234 29097 55001 58011;
0137833390999992009041418004-14050-042617FM-12+088299999V0201401N002612200019N0100001N1+02571+01851101181ADDGF102991021011004501001001MA1999999091611MD1999999-0031REMSYN070AAXX  14184 83339 32497 21405 10257 20185 39161 40118 82100 333 59003;
0178833390999992009041500004-14050-042617FM-12+088299999V0201401N003112200019N0020001N1+02251+01821101321ADDGA1001+999999999GF100991001001999999001001KA1240M+02621MA1999999091711MD1999999-0081REMSYN082AAXX  15004 83339 32995 01406 10225 20182 39171 40132 333 10262 29076 55090 59008;
0156833390999992009041512004-14050-042617FM-12+088299999V0201401N002610042019N0100001N1+02141+01911101551ADDGF106991061021004501001001KA1240N+01951MA1999999091921MD1999999-0031REMSYN076AAXX  15124 83339 32497 61405 10214 20191 39192 40155 86200 333 20195 59003;
0137833390999992009041518004-14050-042617FM-12+088299999V0201001N005112200019N0100001N1+02651+01851101061ADDGF102991021021004501001001MA1999999091551MD1999999-0061REMSYN070AAXX  15184 83339 32497 21010 10265 20185 39155 40106 82200 333 59006;
0178833390999992009041600004-14050-042617FM-12+088299999V0202301N001512200019N0020001N1+02171+01841101321ADDGA1001+999999999GF100991001001999999001001KA1240M+02741MA1999999091691MD1999999-0021REMSYN082AAXX  16004 83339 32995 02303 10217 20184 39169 40132 333 10274 29078 55085 59002;
0156833390999992009041612004-14050-042617FM-12+088299999V0201401N003110042019N0100001N1+02291+01981101481ADDGF106991061021004501001001KA1240N+01841MA1999999091871MD1999999-0051REMSYN076AAXX  16124 83339 32497 61406 10229 20198 39187 40148 86200 333 20184 59005;
0137833390999992009041618004-14050-042617FM-12+088299999V0200901N004112200019N0100001N1+02561+01931101161ADDGF106991041021004501001041MA1999999091611MD1999999+0061REMSYN070AAXX  16184 83339 32497 60908 10256 20193 39161 40116 84204 333 58006;
0168833390999992009041700004-14050-042617FM-12+088299999V0201401N007712200019N0020001N1+02171+01881101471ADDGF102991021021004501001001KA1240M+02661MA1999999091861MD1999999+0171REMSYN088AAXX  17004 83339 32495 21415 10217 20188 39186 40147 82200 333 10266 29079 55078 58017;
0156833390999992009041712004-14050-042617FM-12+088299999V0201401N005110042019N0100001N1+02131+01781101531ADDGF106991061021004501001001KA1240N+01881MA1999999091881MD1999999+0011REMSYN076AAXX  17124 83339 32497 61410 10213 20178 39188 40153 86200 333 20188 58001;
0137833390999992009041718004-14050-042617FM-12+088299999V0201401N003110042019N0100001N1+02381+01801101181ADDGF106991061021004501001001MA1999999091611MD1999999+0001REMSYN070AAXX  17184 83339 32497 61406 10238 20180 39161 40118 86200 333 58000;
0187833390999992009041800004-14050-042617FM-12+088299999V0201401N011319999999N0020001N1+02131+01821101391ADDGF108991999011004501001001KA1240M+02581MA1999999091751MD1999999-0111REMSYN088AAXX  18004 83339 32495 81422 10213 20182 39175 40139 82100 333 10258 29079 55055 59011;EQDQ01+000022SCOTLC
0156833390999992009041812004-14050-042617FM-12+088299999V0201401N003610042019N0100001N1+01931+01681101491ADDGF108991051021004501021999KA1240N+01821MA1999999091831MD1999999-0051REMSYN076AAXX  18124 83339 32497 81407 10193 20168 39183 40149 8522/ 333 20182 59005;
0137833390999992009041818004-14050-042617FM-12+088299999V0201401N003610042019N0100001N1+02301+01751101211ADDGF106991061021004501001001MA1999999091591MD1999999-0021REMSYN070AAXX  18184 83339 32497 61407 10230 20175 39159 40121 86200 333 59002;
0178833390999992009041900004-14050-042617FM-12+088299999V0201401N004112200019N0020001N1+02101+01721101361ADDGA1001+999999999GF100991001001999999001001KA1240M+02361MA1999999091711MD1999999-0041REMSYN082AAXX  19004 83339 32995 01408 10210 20172 39171 40136 333 10236 29079 55024 59004;
0156833390999992009041912004-14050-042617FM-12+088299999V0201801N005110042019N0100001N1+01951+01791101501ADDGF108991051021004501021999KA1240N+01851MA1999999091821MD1999999-0011REMSYN076AAXX  19124 83339 32497 81810 10195 20179 39182 40150 8522/ 333 20185 59001;
0137833390999992009041918004-14050-042617FM-12+088299999V0201401N005110042019N0100001N1+02351+01781101151ADDGF108991061021004501021999MA1999999091541MD1999999-0051REMSYN070AAXX  19184 83339 32497 81410 10235 20178 39154 40115 8622/ 333 59005;
0178833390999992009042000004-14050-042617FM-12+088299999V0201401N003112200019N0020001N1+02051+01841101421ADDGA1001+999999999GF100991001001999999001001KA1240M+02471MA1999999091721MD1999999+0011REMSYN082AAXX  20004 83339 32995 01406 10205 20184 39172 40142 333 10247 29084 55031 58001;
0184833390999992009042012004-14050-042617FM-12+088299999V0201401N004610042019N0100001N1+02071+01801101471ADDAY101061AY201061GF106991061021004501001001KA1240N+01901MA1999999091791MD1999999-0031MW1101REMSYN082AAXX  20124 83339 31497 61409 10207 20180 39179 40147 71000 86200 333 20190 59003;
0137833390999992009042018004-14050-042617FM-12+088299999V0201401N002610042019N0100001N1+02451+01711101111ADDGF105991051021004501001001MA1999999091521MD1999999-0021REMSYN070AAXX  20184 83339 32497 51405 10245 20171 39152 40111 85200 333 59002;
0168833390999992009042100004-14050-042617FM-12+088299999V0200901N001512200019N0020001N1+02171+01741101361ADDGF102991021021004501001001KA1240M+02601MA1999999091711MD1999999-0011REMSYN088AAXX  21004 83339 32495 20903 10217 20174 39171 40136 82200 333 10260 29076 55040 59001;
0184833390999992009042112004-14050-042617FM-12+088299999V0201401N006210042019N0040001N1+02011+01881101491ADDAY101061AY201061GF108991081051004501999999KA1240N+01921MA1999999091831MD1999999+0041MW1101REMSYN082AAXX  21124 83339 31496 81412 10201 20188 39183 40149 71000 885// 333 20192 58004;
0137833390999992009042118004-14050-042617FM-12+088299999V0201401N005110042019N0100001N1+02491+01801101101ADDGF106991051021004501021001MA1999999091541MD1999999+0021REMSYN070AAXX  21184 83339 32497 61410 10249 20180 39154 40110 85220 333 58002;
0168833390999992009042200004-14050-042617FM-12+088299999V0201401N003112200019N0020001N1+02191+01741101351ADDGF102991021021004501001001KA1240M+02561MA1999999091701MD1999999-0011REMSYN088AAXX  22004 83339 32495 21406 10219 20174 39170 40135 82200 333 10256 29076 55042 59001;
0201833390999992009042212004-14050-042617FM-12+088299999V0201401N006210450019N0100001N1+02031+01521101451ADDAA124000391AY161061AY261061GF105991041021004501031001KA1240N+01781MA1999999091791MD1999999-0041MW1021REMSYN088AAXX  22124 83339 21497 51412 10203 20152 39179 40145 70266 84230 333 20178 59004 69934;
0137833390999992009042218004-14050-042617FM-12+088299999V0201401N005110042019N0100001N1+02421+01591101081ADDGF106991061021004501001001MA1999999091491MD1999999-0051REMSYN070AAXX  22184 83339 32497 61410 10242 20159 39149 40108 86200 333 59005;
0184833390999992009042312004-14050-042617FM-12+088299999V0200901N004610042019N0100001N1+02011+01661101291ADDAY101061AY201061GF106991051021004501031001KA1240N+01741MA1999999091631MD1999999-0161MW1101REMSYN082AAXX  23124 83339 31497 60909 10201 20166 39163 40129 71000 85230 333 20174 59016;
0137833390999992009042318004-14050-042617FM-12+088299999V0201401N003112200019N0100001N1+02371+01561100961ADDGF104991031021004501021001MA1999999091361MD1999999-0131REMSYN070AAXX  23184 83339 32497 41406 10237 20156 39136 40096 83220 333 59013;
0196833390999992009042400004-14050-042617FM-12+088299999V0209999C000012200019N0020001N1+02011+01701101161ADDAY101061AY201061GF102991021021004501001001KA1240M+02461MA1999999091491MD1999999-0111MW1101REMSYN094AAXX  24004 83339 31495 20000 10201 20170 39149 40116 71000 82200 333 10246 29077 55040 59011;
0184833390999992009042412004-14050-042617FM-12+088299999V0200901N002110042019N0040001N1+02071+01871101281ADDAY101061AY201061GF107991061021004501021999KA1240N+01761MA1999999091621MD1999999-0011MW1101REMSYN082AAXX  24124 83339 31496 70904 10207 20187 39162 40128 71000 8622/ 333 20176 59001;
0137833390999992009042418004-14050-042617FM-12+088299999V0201401N003612200019N0100001N1+02631+01671100841ADDGF103991021021004501001021MA1999999091301MD1999999-0061REMSYN070AAXX  24184 83339 32497 31407 10263 20167 39130 40084 82202 333 59006;
0178833390999992009042500004-14050-042617FM-12+088299999V0202701N001512200019N0020001N1+02221+01731101111ADDGA1001+999999999GF100991001001999999001001KA1240M+02581MA1999999091501MD1999999+0011REMSYN082AAXX  25004 83339 32995 02703 10222 20173 39150 40111 333 10258 29073 55057 58001;
0156833390999992009042512004-14050-042617FM-12+088299999V0200501N003112200019N0100001N1+02331+01871101181ADDGF102991021021004501001001KA1240N+01801MA1999999091611MD1999999-0011REMSYN076AAXX  25124 83339 32497 20506 10233 20187 39161 40118 82200 333 20180 59001;
0137833390999992009042518004-14050-042617FM-12+088299999V0201401N003612200019N0100001N1+02751+01731100811ADDGF104991041021004501001001MA1999999091331MD1999999+0031REMSYN070AAXX  25184 83339 32497 41407 10275 20173 39133 40081 84200 333 58003;
0168833390999992009042600004-14050-042617FM-12+088299999V0209999C000012200019N0020001N1+02311+01631101111ADDGF102991021021004501001001KA1240M+02841MA1999999091561MD1999999+0061REMSYN088AAXX  26004 83339 32495 20000 10231 20163 39156 40111 82200 333 10284 29066 55097 58006;
0184833390999992009042612004-14050-042617FM-12+088299999V0203601N001510042019N0040001N1+02091+01821101341ADDAY101061AY201061GF106991051021004501021001KA1240N+01981MA1999999091731MD1999999+0121MW1101REMSYN082AAXX  26124 83339 31496 63603 10209 20182 39173 40134 71000 85220 333 20198 58012;
0137833390999992009042618004-14050-042617FM-12+088299999V0202701N004610042019N0100001N1+02561+01851100951ADDGF106991061021004501001001MA1999999091441MD1999999+0111REMSYN070AAXX  26184 83339 32497 62709 10256 20185 39144 40095 86200 333 58011;
0215833390999992009042700004-14050-042617FM-12+088299999V0202701N001012200019N0020001N1+02151+01861101261ADDAY101061AY201061GF102991999021004501001001KA1240M+02641MA1999999091621MD1999999+0061MW1101REMSYN094AAXX  27004 83339 31495 22702 10215 20186 39162 40126 71000 83200 333 10264 29080 55004 58006;EQDQ01+000032SCOTLC
0156833390999992009042712004-14050-042617FM-12+088299999V0209999C000012200019N0100001N1+02291+02001101291ADDGF105991031021004501001011KA1240N+01941MA1999999091681MD1999999-0051REMSYN076AAXX  27124 83339 32497 50000 10229 20200 39168 40129 83201 333 20194 59005;
0137833390999992009042718004-14050-042617FM-12+088299999V0201401N002610042019N0100001N1+02751+01891100781ADDGF105991051021004501001001MA1999999091301MD1999999-0141REMSYN070AAXX  27184 83339 32497 51405 10275 20189 39130 40078 85200 333 59014;
0178833390999992009042800004-14050-042617FM-12+088299999V0209999C000012200019N0020001N1+02371+01911101031ADDGA1001+999999999GF100991001001999999001001KA1240M+02901MA1999999091511MD1999999-0111REMSYN082AAXX  28004 83339 32995 00000 10237 20191 39151 40103 333 10290 29073 55086 59011;
0201833390999992009042812004-14050-042617FM-12+088299999V0201401N001510042019N0020001N1+02171+02081101211ADDAA124007991AY161061AY221061GF108991051021004501021999KA1240N+02101MA1999999091641MD1999999-0041MW1401REMSYN088AAXX  28124 83339 21495 81403 10217 20208 39164 40121 74062 8522/ 333 20210 59004 60084;
0165833390999992009042818004-14050-042617FM-12+088299999V0201401N005110042019N0100001N1+02191+02011100981ADDAY141061AY221061GF108991061021004501021999MA1999999091401MD1999999+0101MW1021REMSYN076AAXX  28184 83339 31497 81410 10219 20201 39140 40098 70242 8622/ 333 58010;
0213833390999992009042900004-14050-042617FM-12+088299999V0201401N003110042019N0020001N1+01991+01951101311ADDAA106007191AY161061AY221061GF108991061021004501021999KA1240M+02441MA1999999091661MD1999999+0151MW1401REMSYN100AAXX  29004 83339 21495 81406 10199 20195 39166 40131 74062 8622/ 333 10244 29094 55018 58015 60071;
0201833390999992009042912004-14050-042617FM-12+088299999V0201401N003110042019N0020001N1+01931+01891101521ADDAA124007191AY161061AY241061GF108991051021004501021999KA1240N+01901MA1999999091791MD1999999+0151MW1401REMSYN088AAXX  29124 83339 21495 81406 10193 20189 39179 40152 74064 8522/ 333 20190 58015 60074;
0165833390999992009042918004-14050-042617FM-12+088299999V0200901N003110450019N0100001N1+02091+01891101251ADDAY141061AY241061GF108991041021004501021999MA1999999091571MD1999999+0171MW1021REMSYN076AAXX  29184 83339 31497 80906 10209 20189 39157 40125 70244 8422/ 333 58017;
0168833390999992009043000004-14050-042617FM-12+088299999V0201401N004610042019N0020001N1+01941+01821101421ADDGF108991051021004501021999KA1240M+02161MA1999999091701MD1999999+0041REMSYN088AAXX  30004 83339 32495 81409 10194 20182 39170 40142 8522/ 333 10216 29093 55000 58004;
0156833390999992009043012004-14050-042617FM-12+088299999V0200901N002610042019N0100001N1+02011+01831101571ADDGF106991061021004501001001KA1240N+01811MA1999999091851MD1999999+0061REMSYN076AAXX  30124 83339 32497 60905 10201 20183 39185 40157 86200 333 20181 58006;
0137833390999992009043018004-14050-042617FM-12+088299999V0201401N002612200019N0100001N1+02511+01891101051ADDGF104991041021004501001001MA1999999091461MD1999999-0111REMSYN070AAXX  30184 83339 32497 41405 10251 20189 39146 40105 84200 333 59011;
0168833390999992009050100004-14050-042617FM-12+088299999V0209999C000012200019N0020001N1+02121+01841101341ADDGF103991011021004501031001KA1240M+02581MA1999999091671MD1999999-0031REMSYN088AAXX  01004 83339 32495 30000 10212 20184 39167 40134 81230 333 10258 29081 55057 59003;
0156833390999992009050112004-14050-042617FM-12+088299999V0201401N004110042019N0100001N1+02071+01821101441ADDGF106991061021004501001001KA1240N+01891MA1999999091781MD1999999-0071REMSYN076AAXX  01124 83339 32497 61408 10207 20182 39178 40144 86200 333 20189 59007;
0137833390999992009050118004-14050-042617FM-12+088299999V0201401N005110450019N0100001N1+02191+01691101151ADDGF106991031011004501081001MA1999999091521MD1999999+0061REMSYN070AAXX  01184 83339 32497 61410 10219 20169 39152 40115 83180 333 58006;
0168833390999992009050200004-14050-042617FM-12+088299999V0201401N005110450019N0020001N1+02031+01601101401ADDGF108991041021004501021999KA1240M+02241MA1999999091731MD1999999+0061REMSYN088AAXX  02004 83339 32495 81410 10203 20160 39173 40140 8422/ 333 10224 29078 55003 58006;
0201833390999992009050212004-14050-042617FM-12+088299999V0201401N006710042019N0020001N1+01771+01631101411ADDAA124002091AY161061AY241061GF108991051021004501021999KA1240N+01741MA1999999091841MD1999999+0061MW1401REMSYN088AAXX  02124 83339 21495 81413 10177 20163 39184 40141 74064 8522/ 333 20174 58006 60024;
0165833390999992009050218004-14050-042617FM-12+088299999V0201401N003110042019N0100001N1+02081+01581101211ADDAY141061AY221061GF108991051051004501021999MA1999999091541MD1999999+0021MW1021REMSYN076AAXX  02184 83339 31497 81406 10208 20158 39154 40121 70242 8552/ 333 58002;
0168833390999992009050300004-14050-042617FM-12+088299999V0201401N003110042019N0020001N1+01851+01661101571ADDGF108991061021004501021999KA1240M+02131MA1999999091781MD1999999+0051REMSYN088AAXX  03004 83339 32495 81406 10185 20166 39178 40157 8622/ 333 10213 29085 55000 58005;
0184833390999992009050312004-14050-042617FM-12+088299999V0201401N005710042019N0020001N1+01741+01681101621ADDAY121061AY221061GF106991061021004501001001KA1240N+01691MA1999999091831MD1999999-0011MW1401REMSYN082AAXX  03124 83339 31495 61411 10174 20168 39183 40162 74022 86200 333 20169 59001;
0165833390999992009050318004-14050-042617FM-12+088299999V0201401N005110450019N0100001N1+02161+01701101231ADDAY141061AY221061GF106991041021004501031001MA1999999091531MD1999999-0011MW1021REMSYN076AAXX  03184 83339 31497 61410 10216 20170 39153 40123 70242 84230 333 59001;
0168833390999992009050400004-14050-042617FM-12+088299999V0201401N006210450019N0020001N1+01951+01721101441ADDGF105991031011004501031001KA1240M+02201MA1999999091681MD1999999-0101REMSYN088AAXX  04004 83339 32495 51412 10195 20172 39168 40144 83130 333 10220 29086 55023 59010;
0184833390999992009050412004-14050-042617FM-12+088299999V0201401N004610042019N0040001N1+01911+01621101521ADDAY101061AY201061GF107991061021004501021999KA1240N+01741MA1999999091791MD1999999-0041MW1101REMSYN082AAXX  04124 83339 31496 71409 10191 20162 39179 40152 71000 8622/ 333 20174 59004;
0137833390999992009050418004-14050-042617FM-12+088299999V0201401N003610042019N0100001N1+02311+01681101171ADDGF106991051021004501031001MA1999999091521MD1999999-0011REMSYN070AAXX  04184 83339 32497 61407 10231 20168 39152 40117 85230 333 59001;
0196833390999992009050500004-14050-042617FM-12+088299999V0201801N005710042019N0020001N1+01971+01721101391ADDAY101061AY201061GF106991061021004501001001KA1240M+02401MA1999999091671MD1999999-0011MW1101REMSYN094AAXX  05004 83339 31495 61811 10197 20172 39167 40139 71000 86200 333 10240 29081 55015 59001;
0184833390999992009050512004-14050-042617FM-12+088299999V0201401N004610042019N0040001N1+01931+01751101591ADDAY101061AY201061GF108991081051004501999999KA1240N+01821MA1999999091851MD1999999+0061MW1101REMSYN082AAXX  05124 83339 31496 81409 10193 20175 39185 40159 71000 885// 333 20182 58006;
