0072833440999992009010111004-14950-040883FM-15+0914SBQV V0200601N00211220001CN0099001N1+02201+01801999999ADDMA1101801999999REMMET045METAR SBQV 011100Z 06004KT CAVOK 22/18 Q1018;
0120833440999992009010112004-14950-040883FM-15+0914SBQV V0200501N004112200019N0112651N1+02501+01901999999ADDGA1021+005401999GF102991999999999999999999MA1101801999999REMMET051METAR SBQV 011200Z 05008KT 9999 FEW018 25/19 Q1018;
0120833440999992009010113004-14950-040883FM-15+0914SBQV V0200201N003112200019N0112651N1+02601+01801999999ADDGA1021+007501999GF102991999999999999999999MA1101801999999REMMET051METAR SBQV 011300Z 02006KT 9999 FEW025 26/18 Q1018;
0120833440999992009010114004-14950-040883FM-15+0914SBQV V0203401N001012200019N0112651N1+02601+01701999999ADDGA1041+007501999GF104991999999999999999999MA1101801999999REMMET051METAR SBQV 011400Z 34002KT 9999 SCT025 26/17 Q1018;
0120833440999992009010115004-14950-040883FM-15+0914SBQV V0203301N001512200019N0112651N1+02801+01901999999ADDGA1041+007501999GF104991999999999999999999MA1101691999999REMMET051METAR SBQV 011500Z 33003KT 9999 SCT025 28/19 Q1017;
0120833440999992009010116004-14950-040883FM-15+0914SBQV V0203501N003112200019N0112651N1+02801+01901999999ADDGA1041+007501999GF104991999999999999999999MA1101691999999REMMET051METAR SBQV 011600Z 35006KT 9999 SCT025 28/19 Q1017;
0120833440999992009010117004-14950-040883FM-15+0914SBQV V0200101N001512200019N0112651N1+02801+01901999999ADDGA1041+007501999GF104991999999999999999999MA1101591999999REMMET051METAR SBQV 011700Z 01003KT 9999 SCT025 28/19 Q1016;
0120833440999992009010118004-14950-040883FM-15+0914SBQV V0203001N001512200019N0112651N1+02901+02001999999ADDGA1041+007501999GF104991999999999999999999MA1101491999999REMMET051METAR SBQV 011800Z 30003KT 9999 SCT025 29/20 Q1015;
0120833440999992009010119004-14950-040883FM-15+0914SBQV V0209999C000012200019N0112651N1+02801+01901999999ADDGA1041+006001999GF104991999999999999999999MA1101491999999REMMET051METAR SBQV 011900Z 00000KT 9999 SCT020 28/19 Q1015;
0120833440999992009010120004-14950-040883FM-15+0914SBQV V0209999C000012200019N0112651N1+02901+02001999999ADDGA1041+005401999GF104991999999999999999999MA1101391999999REMMET051METAR SBQV 012000Z 00000KT 9999 SCT018 29/20 Q1014;
0120833440999992009010121004-14950-040883FM-15+0914SBQV V0201201N002612200019N0112651N1+02701+01901999999ADDGA1021+004801999GF102991999999999999999999MA1101491999999REMMET051METAR SBQV 012100Z 12005KT 9999 FEW016 27/19 Q1015;
0120833440999992009010122004-14950-040883FM-15+0914SBQV V0201001N002612200019N0112651N1+02501+02001999999ADDGA1021+004501999GF102991999999999999999999MA1101491999999REMMET051METAR SBQV 012200Z 10005KT 9999 FEW015 25/20 Q1015;
0120833440999992009010211004-14950-040883FM-15+0914SBQV V0200101N003112200019N0112651N1+02501+02001999999ADDGA1021+004801999GF102991999999999999999999MA1101691999999REMMET051METAR SBQV 021100Z 01006KT 9999 FEW016 25/20 Q1017;
0120833440999992009010212004-14950-040883FM-15+0914SBQV V0203501N003612200019N0112651N1+02501+02101999999ADDGA1041+004801999GF104991999999999999999999MA1101691999999REMMET051METAR SBQV 021200Z 35007KT 9999 SCT016 25/21 Q1017;
0120833440999992009010213004-14950-040883FM-15+0914SBQV V0203401N003112200019N0112651N1+02501+02001999999ADDGA1041+005401999GF104991999999999999999999MA1101691999999REMMET051METAR SBQV 021300Z 34006KT 9999 SCT018 25/20 Q1017;
0120833440999992009010214004-14950-040883FM-15+0914SBQV V0203401N003612200019N0112651N1+02701+02101999999ADDGA1041+006001999GF104991999999999999999999MA1101691999999REMMET051METAR SBQV 021400Z 34007KT 9999 SCT020 27/21 Q1017;
0120833440999992009010215004-14950-040883FM-15+0914SBQV V0203401N003110060019N0112651N1+02701+02101999999ADDGA1071+006001999GF107991999999999999999999MA1101591999999REMMET051METAR SBQV 021500Z 34006KT 9999 BKN020 27/21 Q1016;
0120833440999992009010216004-14950-040883FM-15+0914SBQV V0203601N001510075019N0112651N1+02801+02101999999ADDGA1071+007501999GF107991999999999999999999MA1101491999999REMMET051METAR SBQV 021600Z 36003KT 9999 BKN025 28/21 Q1015;
0120833440999992009010217004-14950-040883FM-15+0914SBQV V0203301N003110075019N0112651N1+02801+02101999999ADDGA1071+007501999GF107991999999999999999999MA1101391999999REMMET051METAR SBQV 021700Z 33006KT 9999 BKN025 28/21 Q1014;
0120833440999992009010218004-14950-040883FM-15+0914SBQV V0203301N001510075019N0112651N1+02901+02001999999ADDGA1071+007501999GF107991999999999999999999MA1101291999999REMMET051METAR SBQV 021800Z 33003KT 9999 BKN025 29/20 Q1013;
0120833440999992009010219004-14950-040883FM-15+0914SBQV V0203501N003112200019N0112651N1+02901+02101999999ADDGA1041+009001999GF104991999999999999999999MA1101191999999REMMET051METAR SBQV 021900Z 35006KT 9999 SCT030 29/21 Q1012;
0120833440999992009010220004-14950-040883FM-15+0914SBQV V0200201N003612200019N0112651N1+02801+01901999999ADDGA1021+007501999GF102991999999999999999999MA1101191999999REMMET051METAR SBQV 022000Z 02007KT 9999 FEW025 28/19 Q1012;
0120833440999992009010221004-14950-040883FM-15+0914SBQV V0200101N001012200019N0112651N1+02701+02001999999ADDGA1021+007501999GF102991999999999999999999MA1101391999999REMMET051METAR SBQV 022100Z 01002KT 9999 FEW025 27/20 Q1014;
0154833440999992009010222004-14950-040883FM-15+0914SBQV V0203401N000512200019N0112651N1+02701+01901999999ADDGA1021+006001999GA2021+007501091GF102991999999999999999999MA1101391999999MW1171REMMET063METAR SBQV 022200Z 34001KT 9999 TS FEW020 FEW025CB 27/19 Q1014;
0120833440999992009010311004-14950-040883FM-15+0914SBQV V0203601N006712200019N0112651N1+02401+02101999999ADDGA1021+004801999GF102991999999999999999999MA1101491999999REMMET051METAR SBQV 031100Z 36013KT 9999 FEW016 24/21 Q1015;
0120833440999992009010312004-14950-040883FM-15+0914SBQV V0200101N005712200019N0112651N1+02601+02101999999ADDGA1021+005401999GF102991999999999999999999MA1101591999999REMMET051METAR SBQV 031200Z 01011KT 9999 FEW018 26/21 Q1016;
0120833440999992009010313004-14950-040883FM-15+0914SBQV V0203401N004112200019N0112651N1+02501+02101999999ADDGA1021+004501999GF102991999999999999999999MA1101591999999REMMET051METAR SBQV 031300Z 34008KT 9999 FEW015 25/21 Q1016;
0120833440999992009010314004-14950-040883FM-15+0914SBQV V0203201N003112200019N0112651N1+02701+02201999999ADDGA1021+006001999GF102991999999999999999999MA1101591999999REMMET051METAR SBQV 031400Z 32006KT 9999 FEW020 27/22 Q1016;
0120833440999992009010315004-14950-040883FM-15+0914SBQV V0203101N004112200019N0112651N1+02801+02201999999ADDGA1021+007501999GF102991999999999999999999MA1101491999999REMMET051METAR SBQV 031500Z 31008KT 9999 FEW025 28/22 Q1015;
0120833440999992009010316004-14950-040883FM-15+0914SBQV V0202901N003612200019N0112651N1+02901+02301999999ADDGA1021+007501999GF102991999999999999999999MA1101391999999REMMET051METAR SBQV 031600Z 29007KT 9999 FEW025 29/23 Q1014;
0120833440999992009010317004-14950-040883FM-15+0914SBQV V0203101N004112200019N0112651N1+02901+02201999999ADDGA1041+007501999GF104991999999999999999999MA1101291999999REMMET051METAR SBQV 031700Z 31008KT 9999 SCT025 29/22 Q1013;
0120833440999992009010318004-14950-040883FM-15+0914SBQV V0203401N003612200019N0112651N1+02801+02201999999ADDGA1021+007501999GF102991999999999999999999MA1101291999999REMMET051METAR SBQV 031800Z 34007KT 9999 FEW025 28/22 Q1013;
0143833440999992009010319004-14950-040883FM-15+0914SBQV V0203301N003610270019N0112651N1+02701+02201999999ADDGA1021+006001999GA2071+027001999GF107991999999999999999999MA1101191999999REMMET058METAR SBQV 031900Z 33007KT 9999 FEW020 BKN090 27/22 Q1012;
0143833440999992009010320004-14950-040883FM-15+0914SBQV V0203201N002110270019N0112651N1+02601+02001999999ADDGA1021+006001999GA2071+027001999GF107991999999999999999999MA1101291999999REMMET058METAR SBQV 032000Z 32004KT 9999 FEW020 BKN090 26/20 Q1013;
0143833440999992009010321004-14950-040883FM-15+0914SBQV V0209999C000010240019N0112651N1+02501+02101999999ADDGA1021+005401999GA2071+024001999GF107991999999999999999999MA1101291999999REMMET058METAR SBQV 032100Z 00000KT 9999 FEW018 BKN080 25/21 Q1013;
0072833440999992009010322004-14950-040883FM-15+0914SBQV V0209999C00001220001CN0099001N1+02301+02101999999ADDMA1101391999999REMMET045METAR SBQV 032200Z 00000KT CAVOK 23/21 Q1014;
0143833440999992009010411004-14950-040883FM-15+0914SBQV V0203101N004610210019N0112651N1+02201+02101999999ADDGA1021+003301999GA2071+021001999GF107991999999999999999999MA1101591999999REMMET058METAR SBQV 041100Z 31009KT 9999 FEW011 BKN070 22/21 Q1016;
0143833440999992009010412004-14950-040883FM-15+0914SBQV V0203101N003610210019N0112651N1+02201+02101999999ADDGA1041+003301999GA2071+021001999GF107991999999999999999999MA1101591999999REMMET058METAR SBQV 041200Z 31007KT 9999 SCT011 BKN070 22/21 Q1016;
0153833440999992009010413004-14950-040883FM-15+0914SBQV V0203101N002610210019N0112651N1+02201+02101999999ADDGA1041+003001999GA2071+021001999GF107991999999999999999999MA1101591999999MW1611REMMET062METAR SBQV 041300Z 31005KT 9999 -RA SCT010 BKN070 22/21 Q1016;
0143833440999992009010414004-14950-040883FM-15+0914SBQV V0202901N002610210019N0112651N1+02301+02201999999ADDGA1021+003001999GA2071+021001999GF107991999999999999999999MA1101591999999REMMET058METAR SBQV 041400Z 29005KT 9999 FEW010 BKN070 23/22 Q1016;
0143833440999992009010415004-14950-040883FM-15+0914SBQV V0203401N003110210019N0112651N1+02501+02201999999ADDGA1021+005401999GA2071+021001999GF107991999999999999999999MA1101491999999REMMET058METAR SBQV 041500Z 34006KT 9999 FEW018 BKN070 25/22 Q1015;
0143833440999992009010416004-14950-040883FM-15+0914SBQV V0203201N003110240019N0112651N1+02601+02101999999ADDGA1021+006001999GA2071+024001999GF107991999999999999999999MA1101391999999REMMET058METAR SBQV 041600Z 32006KT 9999 FEW020 BKN080 26/21 Q1014;
0143833440999992009010417004-14950-040883FM-15+0914SBQV V0203001N002610240019N0112651N1+02801+02201999999ADDGA1021+007501999GA2071+024001999GF107991999999999999999999MA1101291999999REMMET058METAR SBQV 041700Z 30005KT 9999 FEW025 BKN080 28/22 Q1013;
0143833440999992009010418004-14950-040883FM-15+0914SBQV V0203001N002112200019N0112651N1+02801+02101999999ADDGA1041+007501999GA2041+027001999GF104991999999999999999999MA1101191999999REMMET058METAR SBQV 041800Z 30004KT 9999 SCT025 SCT090 28/21 Q1012;
0120833440999992009010419004-14950-040883FM-15+0914SBQV V0203101N002612200019N0112651N1+02801+02101999999ADDGA1021+007501999GF102991999999999999999999MA1101191999999REMMET051METAR SBQV 041900Z 31005KT 9999 FEW025 28/21 Q1012;
0120833440999992009010420004-14950-040883FM-15+0914SBQV V0203101N001012200019N0112651N1+02801+01901999999ADDGA1021+006001999GF102991999999999999999999MA1101191999999REMMET051METAR SBQV 042000Z 31002KT 9999 FEW020 28/19 Q1012;
0120833440999992009010421004-14950-040883FM-15+0914SBQV V0203101N001012200019N0112651N1+02601+02001999999ADDGA1021+004801999GF102991999999999999999999MA1101291999999REMMET051METAR SBQV 042100Z 31002KT 9999 FEW016 26/20 Q1013;
0120833440999992009010422004-14950-040883FM-15+0914SBQV V0200501N005112200019N0112651N1+02401+02101999999ADDGA1041+004501999GF104991999999999999999999MA1101391999999REMMET051METAR SBQV 042200Z 05010KT 9999 SCT015 24/21 Q1014;
0166833440999992009010511004-14950-040883FM-15+0914SBQV V0203301N003110015019N0112651N1+02001+02001999999ADDGA1071+001501999GA2041+003601999GA3081+021001999GF108991999999999999999999MA1101691999999REMMET065METAR SBQV 051100Z 33006KT 9999 BKN005 SCT012 OVC070 20/20 Q1017;
0176833440999992009010512004-14950-040883FM-15+0914SBQV V0203001N00461003601CN0112651N1+02001+02001999999ADDGA1041+001501999GA2041+003601999GA3081+021001999GF108991999999999999999999MA1101801999999MW1611REMMET069METAR SBQV 051200Z 30009KT 9999 -RA SCT005 SCT012 OVC070 20/20 Q1018;
0176833440999992009010513004-14950-040883FM-15+0914SBQV V0203001N00311003601CN0070001N1+02101+02101999999ADDGA1021+001501999GA2041+003601999GA3081+021001999GF108991999999999999999999MA1101691999999MW1611REMMET069METAR SBQV 051300Z 30006KT 7000 -RA FEW005 SCT012 OVC070 21/21 Q1017;
0153833440999992009010514004-14950-040883FM-15+0914SBQV V0203201N003110210019N0112651N1+02101+02101999999ADDGA1021+001501999GA2081+021001999GF108991999999999999999999MA1101691999999MW1611REMMET062METAR SBQV 051400Z 32006KT 9999 -RA FEW005 OVC070 21/21 Q1017;
0143833440999992009010515004-14950-040883FM-15+0914SBQV V0203201N003110210019N0112651N1+02201+02101999999ADDGA1021+003601999GA2081+021001999GF108991999999999999999999MA1101691999999REMMET058METAR SBQV 051500Z 32006KT 9999 FEW012 OVC070 22/21 Q1017;
0166833440999992009010516004-14950-040883FM-15+0914SBQV V0203301N00261004501CN0112651N1+02301+02101999999ADDGA1021+003901999GA2041+004501999GA3081+021001999GF108991999999999999999999MA1101591999999REMMET065METAR SBQV 051600Z 33005KT 9999 FEW013 SCT015 OVC070 23/21 Q1016;
0143833440999992009010517004-14950-040883FM-15+0914SBQV V0203401N004110240019N0112651N1+02401+02101999999ADDGA1021+004501999GA2071+024001999GF107991999999999999999999MA1101491999999REMMET058METAR SBQV 051700Z 34008KT 9999 FEW015 BKN080 24/21 Q1015;
0143833440999992009010518004-14950-040883FM-15+0914SBQV V0203301N002110240019N0112651N1+02501+02101999999ADDGA1021+006001999GA2071+024001999GF107991999999999999999999MA1101391999999REMMET058METAR SBQV 051800Z 33004KT 9999 FEW020 BKN080 25/21 Q1014;
0143833440999992009010519004-14950-040883FM-15+0914SBQV V0203401N002110240019N0112651N1+02501+02101999999ADDGA1021+006001999GA2071+024001999GF107991999999999999999999MA1101391999999REMMET058METAR SBQV 051900Z 34004KT 9999 FEW020 BKN080 25/21 Q1014;
0143833440999992009010520004-14950-040883FM-15+0914SBQV V0200101N001510240019N0112651N1+02401+02101999999ADDGA1021+005401999GA2071+024001999GF107991999999999999999999MA1101391999999REMMET058METAR SBQV 052000Z 01003KT 9999 FEW018 BKN080 24/21 Q1014;
0143833440999992009010521004-14950-040883FM-15+0914SBQV V0200401N003110210019N0112651N1+02301+02101999999ADDGA1021+003901999GA2081+021001999GF108991999999999999999999MA1101491999999REMMET058METAR SBQV 052100Z 04006KT 9999 FEW013 OVC070 23/21 Q1015;
0143833440999992009010522004-14950-040883FM-15+0914SBQV V0200601N004110210019N0112651N1+02201+02101999999ADDGA1021+003301999GA2081+021001999GF108991999999999999999999MA1101591999999REMMET058METAR SBQV 052200Z 06008KT 9999 FEW011 OVC070 22/21 Q1016;
0143833440999992009010611004-14950-040883FM-15+0914SBQV V0200101N001510210019N0112651N1+02201+01901999999ADDGA1021+004501999GA2071+021001999GF107991999999999999999999MA1101691999999REMMET058METAR SBQV 061100Z 01003KT 9999 FEW015 BKN070 22/19 Q1017;
0143833440999992009010612004-14950-040883FM-15+0914SBQV V0203601N003110210019N0112651N1+02201+02101999999ADDGA1021+003901999GA2071+021001999GF107991999999999999999999MA1101801999999REMMET058METAR SBQV 061200Z 36006KT 9999 FEW013 BKN070 22/21 Q1018;
0143833440999992009010613004-14950-040883FM-15+0914SBQV V0203401N002610210019N0112651N1+02301+02101999999ADDGA1021+004501999GA2071+021001999GF107991999999999999999999MA1101801999999REMMET058METAR SBQV 061300Z 34005KT 9999 FEW015 BKN070 23/21 Q1018;
0143833440999992009010614004-14950-040883FM-15+0914SBQV V0203601N004110240019N0112651N1+02501+02101999999ADDGA1041+005401999GA2071+024001999GF107991999999999999999999MA1101691999999REMMET058METAR SBQV 061400Z 36008KT 9999 SCT018 BKN080 25/21 Q1017;
0143833440999992009010615004-14950-040883FM-15+0914SBQV V0203501N003612200019N0112651N1+02501+02101999999ADDGA1041+004801999GA2041+024001999GF104991999999999999999999MA1101691999999REMMET058METAR SBQV 061500Z 35007KT 9999 SCT016 SCT080 25/21 Q1017;
0143833440999992009010616004-14950-040883FM-15+0914SBQV V0200101N003110240019N0112651N1+02501+02101999999ADDGA1021+006001999GA2071+024001999GF107991999999999999999999MA1101591999999REMMET058METAR SBQV 061600Z 01006KT 9999 FEW020 BKN080 25/21 Q1016;
0143833440999992009010617004-14950-040883FM-15+0914SBQV V0200101N002610270019N0112651N1+02701+02101999999ADDGA1041+007501999GA2071+027001999GF107991999999999999999999MA1101491999999REMMET058METAR SBQV 061700Z 01005KT 9999 SCT025 BKN090 27/21 Q1015;
0120833440999992009010618004-14950-040883FM-15+0914SBQV V0200101N003612200019N0112651N1+02801+02101999999ADDGA1041+007501999GF104991999999999999999999MA1101391999999REMMET051METAR SBQV 061800Z 01007KT 9999 SCT025 28/21 Q1014;
0143833440999992009010619004-14950-040883FM-15+0914SBQV V0200101N003112200019N0112651N1+02701+02001999999ADDGA1041+006001999GA2041+024001999GF104991999999999999999999MA1101391999999REMMET058METAR SBQV 061900Z 01006KT 9999 SCT020 SCT080 27/20 Q1014;
0143833440999992009010620004-14950-040883FM-15+0914SBQV V0203501N000512200019N0112651N1+02701+02001999999ADDGA1041+005401999GA2041+024001999GF104991999999999999999999MA1101391999999REMMET058METAR SBQV 062000Z 35001KT 9999 SCT018 SCT080 27/20 Q1014;
0153833440999992009010621004-14950-040883FM-15+0914SBQV V0203401N002612200019N0112651N1+02201+02001999999ADDGA1041+004801999GA2041+021001999GF104991999999999999999999MA1101491999999MW1611REMMET062METAR SBQV 062100Z 34005KT 9999 -RA SCT016 SCT070 22/20 Q1015;
0177833440999992009010622004-14950-040883FM-15+0914SBQV V0201601N001012200019N0112651N1+02301+02201999999ADDGA1021+003001999GA2021+005401091GA3041+021001999GF104991999999999999999999MA1101491999999MW1171REMMET070METAR SBQV 062200Z 16002KT 9999 TS FEW010 FEW018CB SCT070 23/22 Q1015;
0143833440999992009010711004-14950-040883FM-15+0914SBQV V0200401N000510210019N0112651N1+02201+02101999999ADDGA1021+001501999GA2081+021001999GF108991999999999999999999MA1101801999999REMMET058METAR SBQV 071100Z 04001KT 9999 FEW005 OVC070 22/21 Q1018;
0143833440999992009010712004-14950-040883FM-15+0914SBQV V0200501N001510210019N0112651N1+02201+02101999999ADDGA1041+003601999GA2081+021001999GF108991999999999999999999MA1101801999999REMMET058METAR SBQV 071200Z 05003KT 9999 SCT012 OVC070 22/21 Q1018;
0143833440999992009010713004-14950-040883FM-15+0914SBQV V0200201N002610210019N0112651N1+02301+02101999999ADDGA1041+003901999GA2081+021001999GF108991999999999999999999MA1101801999999REMMET058METAR SBQV 071300Z 02005KT 9999 SCT013 OVC070 23/21 Q1018;
0143833440999992009010714004-14950-040883FM-15+0914SBQV V0200701N003110210019N0112651N1+02401+02101999999ADDGA1041+004501999GA2081+021001999GF108991999999999999999999MA1101801999999REMMET058METAR SBQV 071400Z 07006KT 9999 SCT015 OVC070 24/21 Q1018;
0143833440999992009010715004-14950-040883FM-15+0914SBQV V0200201N002110240019N0112651N1+02501+02101999999ADDGA1041+004801999GA2071+024001999GF107991999999999999999999MA1101691999999REMMET058METAR SBQV 071500Z 02004KT 9999 SCT016 BKN080 25/21 Q1017;
0143833440999992009010716004-14950-040883FM-15+0914SBQV V0200601N004110240019N0112651N1+02401+02101999999ADDGA1041+005401999GA2071+024001999GF107991999999999999999999MA1101691999999REMMET058METAR SBQV 071600Z 06008KT 9999 SCT018 BKN080 24/21 Q1017;
0143833440999992009010717004-14950-040883FM-15+0914SBQV V0200201N002610240019N0112651N1+02501+02001999999ADDGA1041+005401999GA2071+024001999GF107991999999999999999999MA1101591999999REMMET058METAR SBQV 071700Z 02005KT 9999 SCT018 BKN080 25/20 Q1016;
0143833440999992009010718004-14950-040883FM-15+0914SBQV V0203001N001010240019N0112651N1+02401+02201999999ADDGA1041+005401999GA2071+024001999GF107991999999999999999999MA1101491999999REMMET058METAR SBQV 071800Z 30002KT 9999 SCT018 BKN080 24/22 Q1015;
0158833440999992009010719004-14950-040883FM-15+0914SBQV V0202501N000510210019N0070001N1+02101+02101999999ADDGA1021+003601999GA2071+021001999GF107991999999999999999999MA1101491999999MW1611REMMET067METAR SBQV 071900Z 25001KT 7000 -RA FEW012 BKN070 21/21 Q1015 RERA;
0148833440999992009010720004-14950-040883FM-15+0914SBQV V0209999C000010210019N0112651N1+02201+02201999999ADDGA1021+003601999GA2071+021001999GF107991999999999999999999MA1101491999999REMMET063METAR SBQV 072000Z 00000KT 9999 FEW012 BKN070 22/22 Q1015 RERA;
0143833440999992009010721004-14950-040883FM-15+0914SBQV V0209999C000010210019N0112651N1+02201+02201999999ADDGA1021+003601999GA2071+021001999GF107991999999999999999999MA1101591999999REMMET058METAR SBQV 072100Z 00000KT 9999 FEW012 BKN070 22/22 Q1016;
0143833440999992009010722004-14950-040883FM-15+0914SBQV V0201201N002110210019N0112651N1+02201+02201999999ADDGA1021+003301999GA2071+021001999GF107991999999999999999999MA1101691999999REMMET058METAR SBQV 072200Z 12004KT 9999 FEW011 BKN070 22/22 Q1017;
0120833440999992009010800004-14950-040883FM-15+0914SBQV V0201001N002112200019N0112651N1+02101+02101999999ADDGA1021+003001999GF102991999999999999999999MA1101691999999REMMET051METAR SBQV 080000Z 10004KT 9999 FEW010 21/21 Q1017;
0143833440999992009010801004-14950-040883FM-15+0914SBQV V0200901N002612200019N0112651N1+02101+02101999999ADDGA1021+002701999GA2041+021001999GF104991999999999999999999MA1101801999999REMMET058METAR SBQV 080100Z 09005KT 9999 FEW009 SCT070 21/21 Q1018;
0143833440999992009010802004-14950-040883FM-15+0914SBQV V0200901N002612200019N0112651N1+02101+02101999999ADDGA1021+002701999GA2041+021001999GF104991999999999999999999MA1101801999999REMMET058METAR SBQV 080200Z 09005KT 9999 FEW009 SCT070 21/21 Q1018;
0120833440999992009010803004-14950-040883FM-15+0914SBQV V0201001N003612200019N0112651N1+02001+02001999999ADDGA1021+002401999GF102991999999999999999999MA1101691999999REMMET051METAR SBQV 080300Z 10007KT 9999 FEW008 20/20 Q1017;
0120833440999992009010804004-14950-040883FM-15+0914SBQV V0201001N002112200019N0112651N1+02001+02001999999ADDGA1021+002401999GF102991999999999999999999MA1101691999999REMMET051METAR SBQV 080400Z 10004KT 9999 FEW008 20/20 Q1017;
0166833440999992009010811004-14950-040883FM-15+0914SBQV V0200801N00461003001CN0112651N1+02201+02001999999ADDGA1021+002101999GA2041+003001999GA3071+021001999GF107991999999999999999999MA1101801999999REMMET065METAR SBQV 081100Z 08009KT 9999 FEW007 SCT010 BKN070 22/20 Q1018;
0166833440999992009010812004-14950-040883FM-15+0914SBQV V0200901N00461004801CN0112651N1+02301+02001999999ADDGA1021+003301999GA2041+004801999GA3071+024001999GF107991999999999999999999MA1101901999999REMMET065METAR SBQV 081200Z 09009KT 9999 FEW011 SCT016 BKN080 23/20 Q1019;
0143833440999992009010813004-14950-040883FM-15+0914SBQV V0201101N003610054019N0112651N1+02501+02001999999ADDGA1071+005401999GA2071+024001999GF107991999999999999999999MA1101901999999REMMET058METAR SBQV 081300Z 11007KT 9999 BKN018 BKN080 25/20 Q1019;
0143833440999992009010814004-14950-040883FM-15+0914SBQV V0200801N005710054019N0112651N1+02201+01901999999ADDGA1071+005401999GA2071+024001999GF107991999999999999999999MA1101901999999REMMET058METAR SBQV 081400Z 08011KT 9999 BKN018 BKN080 22/19 Q1019;
0143833440999992009010815004-14950-040883FM-15+0914SBQV V0200801N004110240019N0112651N1+02501+01901999999ADDGA1041+006001999GA2071+024001999GF107991999999999999999999MA1101901999999REMMET058METAR SBQV 081500Z 08008KT 9999 SCT020 BKN080 25/19 Q1019;
0143833440999992009010816004-14950-040883FM-15+0914SBQV V0200901N003112200019N0112651N1+02601+01901999999ADDGA1041+006001999GA2041+024001999GF104991999999999999999999MA1101801999999REMMET058METAR SBQV 081600Z 09006KT 9999 SCT020 SCT080 26/19 Q1018;
0136833440999992009010817004-14950-040883FM-15+0914SBQV V0201201N00311220001CN0112651N1+02601+02001999999ADDGA1071+006001999GA2041+024001999MA1101801999999REMMET058METAR SBQV 081700Z 12006KT 9999 BKN020 SCT080 26/20 Q1018;EQDQ01+000042SCOTCV
0143833440999992009010818004-14950-040883FM-15+0914SBQV V0201301N004110240019N0112651N1+02601+02101999999ADDGA1041+006001999GA2071+024001999GF107991999999999999999999MA1101691999999REMMET058METAR SBQV 081800Z 13008KT 9999 SCT020 BKN080 26/21 Q1017;
0120833440999992009010819004-14950-040883FM-15+0914SBQV V0201201N003612200019N0112651N1+02601+02001999999ADDGA1021+006001999GF102991999999999999999999MA1101691999999REMMET051METAR SBQV 081900Z 12007KT 9999 FEW020 26/20 Q1017;
0120833440999992009010820004-14950-040883FM-15+0914SBQV V0201401N004112200019N0112651N1+02601+02001999999ADDGA1021+006001999GF102991999999999999999999MA1101591999999REMMET051METAR SBQV 082000Z 14008KT 9999 FEW020 26/20 Q1016;
0143833440999992009010821004-14950-040883FM-15+0914SBQV V0201101N005712200019N0112651N1+02401+02101999999ADDGA1021+005401999GA2041+021001999GF104991999999999999999999MA1101691999999REMMET058METAR SBQV 082100Z 11011KT 9999 FEW018 SCT070 24/21 Q1017;
0120833440999992009010822004-14950-040883FM-15+0914SBQV V0201001N004112200019N0112651N1+02301+02001999999ADDGA1021+004501999GF102991999999999999999999MA1101801999999REMMET051METAR SBQV 082200Z 10008KT 9999 FEW015 23/20 Q1018;
0143833440999992009010904004-14950-040883FM-15+0914SBQV V0200901N004112200019N0112651N1+02001+01901999999ADDGA1021+003901999GA2041+021001999GF104991999999999999999999MA1101801999999REMMET058METAR SBQV 090400Z 09008KT 9999 FEW013 SCT070 20/19 Q1018;
0072833440999992009010905004-14950-040883FM-15+0914SBQV V0201101N00211220001CN0099001N1+01901+01901999999ADDMA1101801999999REMMET045METAR SBQV 090500Z 11004KT CAVOK 19/19 Q1018;
0120833440999992009010911004-14950-040883FM-15+0914SBQV V0201101N003612200019N0112651N1+02101+01901999999ADDGA1041+003901999GF104991999999999999999999MA1102101999999REMMET051METAR SBQV 091100Z 11007KT 9999 SCT013 21/19 Q1021;
0143833440999992009010912004-14950-040883FM-15+0914SBQV V0200801N004110210019N0112651N1+02001+02001999999ADDGA1021+001801999GA2071+021001999GF107991999999999999999999MA1102101999999REMMET058METAR SBQV 091200Z 08008KT 9999 FEW006 BKN070 20/20 Q1021;
0143833440999992009010913004-14950-040883FM-15+0914SBQV V0201001N004112200019N0112651N1+02401+02001999999ADDGA1041+003901999GA2041+021001999GF104991999999999999999999MA1102101999999REMMET058METAR SBQV 091300Z 10008KT 9999 SCT013 SCT070 24/20 Q1021;
0120833440999992009010914004-14950-040883FM-15+0914SBQV V0201001N005112200019N0112651N1+02601+01901999999ADDGA1041+004501999GF104991999999999999999999MA1102101999999REMMET051METAR SBQV 091400Z 10010KT 9999 SCT015 26/19 Q1021;
0120833440999992009010915004-14950-040883FM-15+0914SBQV V0201301N004112200019N0112651N1+02601+01801999999ADDGA1041+005401999GF104991999999999999999999MA1102101999999REMMET051METAR SBQV 091500Z 13008KT 9999 SCT018 26/18 Q1021;
0143833440999992009010916004-14950-040883FM-15+0914SBQV V0201401N005112200019N0112651N1+02601+01801999999ADDGA1041+005401999GA2041+024001999GF104991999999999999999999MA1102001999999REMMET058METAR SBQV 091600Z 14010KT 9999 SCT018 SCT080 26/18 Q1020;
0160833440999992009010917004-14950-040883FM-15+0914SBQV V0201201N007210240019N0112651N1+02401+02001999999ADDGA1041+005401999GA2071+024001999GF107991999999999999999999MA1102001999999MW1611REMMET069METAR SBQV 091700Z 12014KT 9999 4000SE -RA SCT018 BKN080 24/20 Q1020;
0143833440999992009010918004-14950-040883FM-15+0914SBQV V0200901N003610240019N0112651N1+02401+02001999999ADDGA1021+005401999GA2071+024001999GF107991999999999999999999MA1102001999999REMMET058METAR SBQV 091800Z 09007KT 9999 FEW018 BKN080 24/20 Q1020;
0143833440999992009010919004-14950-040883FM-15+0914SBQV V0201001N006210240019N0112651N1+02501+01801999999ADDGA1021+005401999GA2071+024001999GF107991999999999999999999MA1101901999999REMMET058METAR SBQV 091900Z 10012KT 9999 FEW018 BKN080 25/18 Q1019;
0143833440999992009010920004-14950-040883FM-15+0914SBQV V0201001N005710240019N0112651N1+02501+01901999999ADDGA1021+005401999GA2071+024001999GF107991999999999999999999MA1101901999999REMMET058METAR SBQV 092000Z 10011KT 9999 FEW018 BKN080 25/19 Q1019;
0143833440999992009010921004-14950-040883FM-15+0914SBQV V0201001N005112200019N0112651N1+02301+01901999999ADDGA1021+005401999GA2041+024001999GF104991999999999999999999MA1101901999999REMMET058METAR SBQV 092100Z 10010KT 9999 FEW018 SCT080 23/19 Q1019;
0120833440999992009010922004-14950-040883FM-15+0914SBQV V0201001N004612200019N0112651N1+02201+01901999999ADDGA1021+004801999GF102991999999999999999999MA1102001999999REMMET051METAR SBQV 092200Z 10009KT 9999 FEW016 22/19 Q1020;
0143833440999992009011011004-14950-040883FM-15+0914SBQV V0201101N005112200019N0112651N1+02201+01901999999ADDGA1041+003001999GA2041+021001999GF104991999999999999999999MA1102201999999REMMET058METAR SBQV 101100Z 11010KT 9999 SCT010 SCT070 22/19 Q1022;
0120833440999992009011012004-14950-040883FM-15+0914SBQV V0201101N006212200019N0112651N1+02301+01901999999ADDGA1041+004501999GF104991999999999999999999MA1102301999999REMMET051METAR SBQV 101200Z 11012KT 9999 SCT015 23/19 Q1023;
0120833440999992009011013004-14950-040883FM-15+0914SBQV V0201301N006210045019N0112651N1+02301+02001999999ADDGA1071+004501999GF107991999999999999999999MA1102301999999REMMET051METAR SBQV 101300Z 13012KT 9999 BKN015 23/20 Q1023;
0120833440999992009011014004-14950-040883FM-15+0914SBQV V0201301N006210048019N0112651N1+02301+02101999999ADDGA1071+004801999GF107991999999999999999999MA1102301999999REMMET051METAR SBQV 101400Z 13012KT 9999 BKN016 23/21 Q1023;
0120833440999992009011015004-14950-040883FM-15+0914SBQV V0201001N004610048019N0112651N1+02301+02201999999ADDGA1071+004801999GF107991999999999999999999MA1102201999999REMMET051METAR SBQV 101500Z 10009KT 9999 BKN016 23/22 Q1022;
0120833440999992009011016004-14950-040883FM-15+0914SBQV V0201201N004610054019N0112651N1+02501+02101999999ADDGA1071+005401999GF107991999999999999999999MA1102201999999REMMET051METAR SBQV 101600Z 12009KT 9999 BKN018 25/21 Q1022;
0120833440999992009011017004-14950-040883FM-15+0914SBQV V0201001N006212200019N0112651N1+02401+02101999999ADDGA1041+005401999GF104991999999999999999999MA1102101999999REMMET051METAR SBQV 101700Z 10012KT 9999 SCT018 24/21 Q1021;
0120833440999992009011018004-14950-040883FM-15+0914SBQV V0201201N006212200019N0112651N1+02501+02001999999ADDGA1041+006001999GF104991999999999999999999MA1102001999999REMMET051METAR SBQV 101800Z 12012KT 9999 SCT020 25/20 Q1020;
0120833440999992009011019004-14950-040883FM-15+0914SBQV V0201101N006212200019N0112651N1+02501+02001999999ADDGA1041+006001999GF104991999999999999999999MA1102001999999REMMET051METAR SBQV 101900Z 11012KT 9999 SCT020 25/20 Q1020;
0143833440999992009011020004-14950-040883FM-15+0914SBQV V0201001N007210210019N0112651N1+02101+01901999999ADDGA1021+004801999GA2071+021001999GF107991999999999999999999MA1102001999999REMMET058METAR SBQV 102000Z 10014KT 9999 FEW016 BKN070 21/19 Q1020;
0120833440999992009011021004-14950-040883FM-15+0914SBQV V0201201N004112200019N0112651N1+02101+02001999999ADDGA1021+004801999GF102991999999999999999999MA1102101999999REMMET051METAR SBQV 102100Z 12008KT 9999 FEW016 21/20 Q1021;
0120833440999992009011022004-14950-040883FM-15+0914SBQV V0201001N005712200019N0112651N1+02101+01901999999ADDGA1021+004801999GF102991999999999999999999MA1102101999999REMMET051METAR SBQV 102200Z 10011KT 9999 FEW016 21/19 Q1021;
0120833440999992009011111004-14950-040883FM-15+0914SBQV V0201001N005110033019N0112651N1+02001+02001999999ADDGA1071+003301999GF107991999999999999999999MA1102101999999REMMET051METAR SBQV 111100Z 10010KT 9999 BKN011 20/20 Q1021;
0143833440999992009011112004-14950-040883FM-15+0914SBQV V0201001N005710210019N0112651N1+02201+02001999999ADDGA1041+003901999GA2071+021001999GF107991999999999999999999MA1102201999999REMMET058METAR SBQV 111200Z 10011KT 9999 SCT013 BKN070 22/20 Q1022;
0120833440999992009011113004-14950-040883FM-15+0914SBQV V0200901N005710045019N0112651N1+02301+01901999999ADDGA1071+004501999GF107991999999999999999999MA1102201999999REMMET051METAR SBQV 111300Z 09011KT 9999 BKN015 23/19 Q1022;
0120833440999992009011114004-14950-040883FM-15+0914SBQV V0201001N005710048019N0112651N1+02401+01901999999ADDGA1071+004801999GF107991999999999999999999MA1102201999999REMMET051METAR SBQV 111400Z 10011KT 9999 BKN016 24/19 Q1022;
0120833440999992009011115004-14950-040883FM-15+0914SBQV V0200901N005712200019N0112651N1+02601+01801999999ADDGA1041+006001999GF104991999999999999999999MA1102101999999REMMET051METAR SBQV 111500Z 09011KT 9999 SCT020 26/18 Q1021;
0120833440999992009011116004-14950-040883FM-15+0914SBQV V0200901N005112200019N0112651N1+02601+01801999999ADDGA1041+006001999GF104991999999999999999999MA1102101999999REMMET051METAR SBQV 111600Z 09010KT 9999 SCT020 26/18 Q1021;
0120833440999992009011117004-14950-040883FM-15+0914SBQV V0200801N005112200019N0112651N1+02701+01901999999ADDGA1041+006001999GF104991999999999999999999MA1102001999999REMMET051METAR SBQV 111700Z 08010KT 9999 SCT020 27/19 Q1020;
0120833440999992009011118004-14950-040883FM-15+0914SBQV V0200801N005112200019N0112651N1+02601+02101999999ADDGA1041+005401999GF104991999999999999999999MA1101901999999REMMET051METAR SBQV 111800Z 08010KT 9999 SCT018 26/21 Q1019;
0120833440999992009011119004-14950-040883FM-15+0914SBQV V0201401N004612200019N0112651N1+02601+02101999999ADDGA1041+005401999GF104991999999999999999999MA1101901999999REMMET051METAR SBQV 111900Z 14009KT 9999 SCT018 26/21 Q1019;
0120833440999992009011120004-14950-040883FM-15+0914SBQV V0201301N005712200019N0112651N1+02401+02101999999ADDGA1041+004801999GF104991999999999999999999MA1101901999999REMMET051METAR SBQV 112000Z 13011KT 9999 SCT016 24/21 Q1019;
0120833440999992009011121004-14950-040883FM-15+0914SBQV V0201301N004612200019N0112651N1+02301+02101999999ADDGA1041+004501999GF104991999999999999999999MA1101901999999REMMET051METAR SBQV 112100Z 13009KT 9999 SCT015 23/21 Q1019;
0120833440999992009011122004-14950-040883FM-15+0914SBQV V0201401N004612200019N0112651N1+02201+02101999999ADDGA1021+003901999GF102991999999999999999999MA1102001999999REMMET051METAR SBQV 112200Z 14009KT 9999 FEW013 22/21 Q1020;
0120833440999992009011200004-14950-040883FM-15+0914SBQV V0201301N004110015019N0070001N1+02101+02101999999ADDGA1071+001501999GF107991999999999999999999MA1102101999999REMMET051METAR SBQV 120000Z 13008KT 7000 BKN005 21/21 Q1021;
0143833440999992009011211004-14950-040883FM-15+0914SBQV V0201301N005110021019N0112651N1+02101+02101999999ADDGA1041+001501999GA2071+002101999GF107991999999999999999999MA1102001999999REMMET058METAR SBQV 121100Z 13010KT 9999 SCT005 BKN007 21/21 Q1020;
0143833440999992009011212004-14950-040883FM-15+0914SBQV V0201401N005110024019N0112651N1+02101+02101999999ADDGA1041+001501999GA2071+002401999GF107991999999999999999999MA1102101999999REMMET058METAR SBQV 121200Z 14010KT 9999 SCT005 BKN008 21/21 Q1021;
0143833440999992009011213004-14950-040883FM-15+0914SBQV V0201301N005710024019N0112651N1+02301+02201999999ADDGA1041+001801999GA2071+002401999GF107991999999999999999999MA1102101999999REMMET058METAR SBQV 121300Z 13011KT 9999 SCT006 BKN008 23/22 Q1021;
0143833440999992009011214004-14950-040883FM-15+0914SBQV V0201401N004610030019N0112651N1+02301+02201999999ADDGA1021+001801999GA2071+003001999GF107991999999999999999999MA1102101999999REMMET058METAR SBQV 121400Z 14009KT 9999 FEW006 BKN010 23/22 Q1021;
0153833440999992009011215004-14950-040883FM-15+0914SBQV V0201401N004610024019N0060001N1+02401+02201999999ADDGA1041+001501999GA2071+002401999GF107991999999999999999999MA1102001999999MW1511REMMET062METAR SBQV 121500Z 14009KT 6000 -DZ SCT005 BKN008 24/22 Q1020;
0127833440999992009011216004-14950-040883FM-15+0914SBQV V0201201N004110033019N0112651N1+02401+02201999999ADDGA1021+001801999GA2071+003301999GF107991999999999999999999REMMET057METAR SBQV 121600Z 12008KT 9999 FEW006 BKN011 24/22 Q101;
0143833440999992009011217004-14950-040883FM-15+0914SBQV V0201101N004112200019N0112651N1+02401+02201999999ADDGA1021+001801999GA2041+003301999GF104991999999999999999999MA1101901999999REMMET058METAR SBQV 121700Z 11008KT 9999 FEW006 SCT011 24/22 Q1019;
0169833440999992009011218004-14950-040883FM-15+0914SBQV V0200901N003612200019N0112651N1+02601+02101999999ADDGA1021+004501999GA2021+005401021GA3041+090001999GF104991999999999999999999MA1101691999999REMMET068METAR SBQV 121800Z 09007KT 9999 FEW015 FEW018TCU SCT300 26/21 Q1017;
0153833440999992009011219004-14950-040883FM-15+0914SBQV V0201401N00511220001CN0070001N1+02701+02101999999ADDGA1071+004501999GA2041+090001999MA1101691999999MW1611REMMET069METAR SBQV 121900Z 14010KT 7000 1000SE -RA BKN015 SCT300 27/21 Q1017;EQDQ01+000042SCOTCV
0148833440999992009011220004-14950-040883FM-15+0914SBQV V0201301N002610900019N0112651N1+02101+02101999999ADDGA1041+004501999GA2071+090001999GF107991999999999999999999MA1101801999999REMMET063METAR SBQV 122000Z 13005KT 9999 SCT015 BKN300 21/21 Q1018 RETS;
0136833440999992009011221004-14950-040883FM-15+0914SBQV V0201001N00361220001CN0112651N1+02101+02101999999ADDGA1071+002701999GA2041+090001999MA1101801999999REMMET058METAR SBQV 122100Z 10007KT 9999 BKN009 SCT300 21/21 Q1018;EQDQ01+000042SCOTCV
0120833440999992009011222004-14950-040883FM-15+0914SBQV V0201101N002610021019N0112651N1+02101+02101999999ADDGA1071+002101999GF107991999999999999999999MA1101801999999REMMET051METAR SBQV 122200Z 11005KT 9999 BKN007 21/21 Q1018;
0146833440999992009011311004-14950-040883FM-15+0914SBQV V0201201N00311220001CN0050001N1+02201+02201999999ADDGA1071+002101999GA2041+002701999MA1102001999999MW1511REMMET062METAR SBQV 131100Z 12006KT 5000 -DZ BKN007 SCT009 22/22 Q1020;EQDQ01+000042SCOTCV
0146833440999992009011312004-14950-040883FM-15+0914SBQV V0201101N00361220001CN0070001N1+02301+02301999999ADDGA1071+002101999GA2041+002701999MA1102001999999MW1511REMMET062METAR SBQV 131200Z 11007KT 7000 -DZ BKN007 SCT009 23/23 Q1020;EQDQ01+000042SCOTCV
0143833440999992009011313004-14950-040883FM-15+0914SBQV V0200901N004112200019N0112651N1+02601+02601999999ADDGA1021+002101999GA2041+003001999GF104991999999999999999999MA1102001999999REMMET058METAR SBQV 131300Z 09008KT 9999 FEW007 SCT010 26/26 Q1020;
0143833440999992009011314004-14950-040883FM-15+0914SBQV V0200401N004112200019N0112651N1+02501+02501999999ADDGA1041+003001999GA2041+021001999GF104991999999999999999999MA1102001999999REMMET058METAR SBQV 131400Z 04008KT 9999 SCT010 SCT070 25/25 Q1020;
0136833440999992009011315004-14950-040883FM-15+0914SBQV V0200801N00411220001CN0112651N1+02301+02301999999ADDGA1071+004501999GA2041+021001999MA1102001999999REMMET058METAR SBQV 131500Z 08008KT 9999 BKN015 SCT070 23/23 Q1020;EQDQ01+000042SCOTCV
0120833440999992009011316004-14950-040883FM-15+0914SBQV V0201101N006712200019N0112651N1+02701+02701999999ADDGA1041+004801999GF104991999999999999999999MA1101901999999REMMET051METAR SBQV 131600Z 11013KT 9999 SCT016 27/27 Q1019;
0120833440999992009011317004-14950-040883FM-15+0914SBQV V0200901N006212200019N0112651N1+02701+02001999999ADDGA1041+006001999GF104991999999999999999999MA1101901999999REMMET051METAR SBQV 131700Z 09012KT 9999 SCT020 27/20 Q1019;
0120833440999992009011318004-14950-040883FM-15+0914SBQV V0200901N005112200019N0112651N1+02701+01801999999ADDGA1041+006001999GF104991999999999999999999MA1101801999999REMMET051METAR SBQV 131800Z 09010KT 9999 SCT020 27/18 Q1018;
0120833440999992009011319004-14950-040883FM-15+0914SBQV V0201301N005712200019N0112651N1+02501+02101999999ADDGA1021+005401999GF102991999999999999999999MA1101801999999REMMET051METAR SBQV 131900Z 13011KT 9999 FEW018 25/21 Q1018;
0120833440999992009011320004-14950-040883FM-15+0914SBQV V0201201N004612200019N0112651N1+02601+02001999999ADDGA1021+005401999GF102991999999999999999999MA1101801999999REMMET051METAR SBQV 132000Z 12009KT 9999 FEW018 26/20 Q1018;
0120833440999992009011321004-14950-040883FM-15+0914SBQV V0201101N004612200019N0112651N1+02401+01901999999ADDGA1021+004801999GF102991999999999999999999MA1101801999999REMMET051METAR SBQV 132100Z 11009KT 9999 FEW016 24/19 Q1018;
0120833440999992009011322004-14950-040883FM-15+0914SBQV V0201101N002112200019N0112651N1+02201+02001999999ADDGA1021+004501999GF102991999999999999999999MA1101801999999REMMET051METAR SBQV 132200Z 11004KT 9999 FEW015 22/20 Q1018;
0120833440999992009011411004-14950-040883FM-15+0914SBQV V0201101N004610045019N0112651N1+02001+01901999999ADDGA1071+004501999GF107991999999999999999999MA1102001999999REMMET051METAR SBQV 141100Z 11009KT 9999 BKN015 20/19 Q1020;
0120833440999992009011412004-14950-040883FM-15+0914SBQV V0201101N004610048019N0112651N1+02201+01901999999ADDGA1071+004801999GF107991999999999999999999MA1102001999999REMMET051METAR SBQV 141200Z 11009KT 9999 BKN016 22/19 Q1020;
0120833440999992009011413004-14950-040883FM-15+0914SBQV V0201101N003612200019N0112651N1+02401+01901999999ADDGA1041+005401999GF104991999999999999999999MA1102001999999REMMET051METAR SBQV 141300Z 11007KT 9999 SCT018 24/19 Q1020;
0120833440999992009011414004-14950-040883FM-15+0914SBQV V0200901N004112200019N0112651N1+02401+01801999999ADDGA1041+005401999GF104991999999999999999999MA1102001999999REMMET051METAR SBQV 141400Z 09008KT 9999 SCT018 24/18 Q1020;
0120833440999992009011415004-14950-040883FM-15+0914SBQV V0200901N003612200019N0112651N1+02601+01701999999ADDGA1041+006001999GF104991999999999999999999MA1101901999999REMMET051METAR SBQV 141500Z 09007KT 9999 SCT020 26/17 Q1019;
0120833440999992009011416004-14950-040883FM-15+0914SBQV V0201101N003610060019N0112651N1+02601+01701999999ADDGA1071+006001999GF107991999999999999999999MA1101801999999REMMET051METAR SBQV 141600Z 11007KT 9999 BKN020 26/17 Q1018;
0120833440999992009011417004-14950-040883FM-15+0914SBQV V0200901N002610075019N0112651N1+02701+01801999999ADDGA1071+007501999GF107991999999999999999999MA1101801999999REMMET051METAR SBQV 141700Z 09005KT 9999 BKN025 27/18 Q1018;
0120833440999992009011418004-14950-040883FM-15+0914SBQV V0201301N003112200019N0112651N1+02701+01901999999ADDGA1041+007501999GF104991999999999999999999MA1101691999999REMMET051METAR SBQV 141800Z 13006KT 9999 SCT025 27/19 Q1017;
0120833440999992009011419004-14950-040883FM-15+0914SBQV V0201401N003112200019N0112651N1+02601+01801999999ADDGA1041+006001999GF104991999999999999999999MA1101591999999REMMET051METAR SBQV 141900Z 14006KT 9999 SCT020 26/18 Q1016;
0120833440999992009011420004-14950-040883FM-15+0914SBQV V0201201N003612200019N0112651N1+02501+01901999999ADDGA1041+005401999GF104991999999999999999999MA1101591999999REMMET051METAR SBQV 142000Z 12007KT 9999 SCT018 25/19 Q1016;
0120833440999992009011421004-14950-040883FM-15+0914SBQV V0201001N005712200019N0112651N1+02301+02001999999ADDGA1041+004501999GF104991999999999999999999MA1101691999999REMMET051METAR SBQV 142100Z 10011KT 9999 SCT015 23/20 Q1017;
0120833440999992009011511004-14950-040883FM-15+0914SBQV V0200301N002612200019N0112651N1+02101+01901999999ADDGA1021+004501999GF102991999999999999999999MA1102001999999REMMET051METAR SBQV 151100Z 03005KT 9999 FEW015 21/19 Q1020;
0120833440999992009011512004-14950-040883FM-15+0914SBQV V0200201N004112200019N0112651N1+02301+01901999999ADDGA1041+004801999GF104991999999999999999999MA1102001999999REMMET051METAR SBQV 151200Z 02008KT 9999 SCT016 23/19 Q1020;
0120833440999992009011513004-14950-040883FM-15+0914SBQV V0200201N004112200019N0112651N1+02401+02001999999ADDGA1041+005401999GF104991999999999999999999MA1102001999999REMMET051METAR SBQV 151300Z 02008KT 9999 SCT018 24/20 Q1020;
0120833440999992009011514004-14950-040883FM-15+0914SBQV V0200301N003610060019N0112651N1+02401+01901999999ADDGA1071+006001999GF107991999999999999999999MA1101901999999REMMET051METAR SBQV 151400Z 03007KT 9999 BKN020 24/19 Q1019;
0120833440999992009011515004-14950-040883FM-15+0914SBQV V0200101N003110075019N0112651N1+02601+02001999999ADDGA1071+007501999GF107991999999999999999999MA1101801999999REMMET051METAR SBQV 151500Z 01006KT 9999 BKN025 26/20 Q1018;
0120833440999992009011516004-14950-040883FM-15+0914SBQV V0200101N003110075019N0112651N1+02701+01901999999ADDGA1071+007501999GF107991999999999999999999MA1101691999999REMMET051METAR SBQV 151600Z 01006KT 9999 BKN025 27/19 Q1017;
0120833440999992009011517004-14950-040883FM-15+0914SBQV V0203601N002112200019N0112651N1+02701+01801999999ADDGA1041+007501999GF104991999999999999999999MA1101591999999REMMET051METAR SBQV 151700Z 36004KT 9999 SCT025 27/18 Q1016;
0120833440999992009011518004-14950-040883FM-15+0914SBQV V0203501N002612200019N0112651N1+02801+02001999999ADDGA1041+007501999GF104991999999999999999999MA1101591999999REMMET051METAR SBQV 151800Z 35005KT 9999 SCT025 28/20 Q1016;
0120833440999992009011519004-14950-040883FM-15+0914SBQV V0203601N003112200019N0112651N1+02801+01901999999ADDGA1021+007501999GF102991999999999999999999MA1101491999999REMMET051METAR SBQV 151900Z 36006KT 9999 FEW025 28/19 Q1015;
0120833440999992009011520004-14950-040883FM-15+0914SBQV V0203201N001012200019N0112651N1+02801+02001999999ADDGA1041+007501999GF104991999999999999999999MA1101491999999REMMET051METAR SBQV 152000Z 32002KT 9999 SCT025 28/20 Q1015;
0146833440999992009011521004-14950-040883FM-15+0914SBQV V0201301N003612200019N0112651N1+02501+02101999999ADDGA1021+006001999GA2021+007501021GF102991999999999999999999MA1101591999999REMMET061METAR SBQV 152100Z 13007KT 9999 FEW020 FEW025TCU 25/21 Q1016;
0162833440999992009011522004-14950-040883FM-15+0914SBQV V0201101N002112200019N0112651N1+02401+02101999999ADDGA1021+004801999GA2041+006001999GA3021+007501021MA1101591999999REMMET068METAR SBQV 152200Z 11004KT 9999 FEW016 SCT020 FEW025TCU 24/21 Q1016;EQDQ01+000022SCOTCV
0120833440999992009011602004-14950-040883FM-15+0914SBQV V0200901N004612200019N0112651N1+02101+02001999999ADDGA1021+004501999GF102991999999999999999999MA1101801999999REMMET051METAR SBQV 160200Z 09009KT 9999 FEW015 21/20 Q1018;
0120833440999992009011603004-14950-040883FM-15+0914SBQV V0200701N004612200019N0112651N1+02101+02001999999ADDGA1021+004501999GF102991999999999999999999MA1101801999999REMMET051METAR SBQV 160300Z 07009KT 9999 FEW015 21/20 Q1018;
0143833440999992009011611004-14950-040883FM-15+0914SBQV V0200101N002110240019N0112651N1+02201+01901999999ADDGA1021+005401999GA2071+024001999GF107991999999999999999999MA1102001999999REMMET058METAR SBQV 161100Z 01004KT 9999 FEW018 BKN080 22/19 Q1020;
0143833440999992009011612004-14950-040883FM-15+0914SBQV V0200401N002610240019N0112651N1+02401+01901999999ADDGA1021+006001999GA2071+024001999GF107991999999999999999999MA1102001999999REMMET058METAR SBQV 161200Z 04005KT 9999 FEW020 BKN080 24/19 Q1020;
0143833440999992009011613004-14950-040883FM-15+0914SBQV V0200101N002610240019N0112651N1+02401+01901999999ADDGA1021+006001999GA2071+024001999GF107991999999999999999999MA1102001999999REMMET058METAR SBQV 161300Z 01005KT 9999 FEW020 BKN080 24/19 Q1020;
0143833440999992009011614004-14950-040883FM-15+0914SBQV V0200101N003110270019N0112651N1+02601+01901999999ADDGA1021+006001999GA2071+027001999GF107991999999999999999999MA1102001999999REMMET058METAR SBQV 161400Z 01006KT 9999 FEW020 BKN090 26/19 Q1020;
0143833440999992009011615004-14950-040883FM-15+0914SBQV V0200101N003610270019N0112651N1+02701+02001999999ADDGA1021+007501999GA2071+027001999GF107991999999999999999999MA1101901999999REMMET058METAR SBQV 161500Z 01007KT 9999 FEW025 BKN090 27/20 Q1019;
0143833440999992009011616004-14950-040883FM-15+0914SBQV V0200301N003110270019N0112651N1+02701+02001999999ADDGA1021+007501999GA2071+027001999GF107991999999999999999999MA1101901999999REMMET058METAR SBQV 161600Z 03006KT 9999 FEW025 BKN090 27/20 Q1019;
0143833440999992009011617004-14950-040883FM-15+0914SBQV V0203601N002610270019N0112651N1+02701+02001999999ADDGA1041+007501999GA2071+027001999GF107991999999999999999999MA1101801999999REMMET058METAR SBQV 161700Z 36005KT 9999 SCT025 BKN090 27/20 Q1018;
0143833440999992009011618004-14950-040883FM-15+0914SBQV V0200501N002110270019N0112651N1+02701+02001999999ADDGA1041+007501999GA2071+027001999GF107991999999999999999999MA1101691999999REMMET058METAR SBQV 161800Z 05004KT 9999 SCT025 BKN090 27/20 Q1017;
0143833440999992009011619004-14950-040883FM-15+0914SBQV V0200701N002112200019N0112651N1+02801+01901999999ADDGA1021+007501999GA2041+027001999GF104991999999999999999999MA1101691999999REMMET058METAR SBQV 161900Z 07004KT 9999 FEW025 SCT090 28/19 Q1017;
0143833440999992009011620004-14950-040883FM-15+0914SBQV V0200601N002612200019N0112651N1+02701+01901999999ADDGA1021+006001999GA2041+024001999GF104991999999999999999999MA1101591999999REMMET058METAR SBQV 162000Z 06005KT 9999 FEW020 SCT080 27/19 Q1016;
0143833440999992009011621004-14950-040883FM-15+0914SBQV V0201201N004112200019N0112651N1+02501+02101999999ADDGA1021+004801999GA2041+024001999GF104991999999999999999999MA1101691999999REMMET058METAR SBQV 162100Z 12008KT 9999 FEW016 SCT080 25/21 Q1017;
0072833440999992009011622004-14950-040883FM-15+0914SBQV V0200901N00411220001CN0099001N1+02401+02001999999ADDMA1101691999999REMMET045METAR SBQV 162200Z 09008KT CAVOK 24/20 Q1017;
0143833440999992009011711004-14950-040883FM-15+0914SBQV V0200801N002110210019N0112651N1+02301+02001999999ADDGA1021+003901999GA2071+021001999GF107991999999999999999999MA1101901999999REMMET058METAR SBQV 171100Z 08004KT 9999 FEW013 BKN070 23/20 Q1019;
0143833440999992009011712004-14950-040883FM-15+0914SBQV V0200501N004612200019N0112651N1+02501+02001999999ADDGA1041+004501999GA2041+024001999GF104991999999999999999999MA1101901999999REMMET058METAR SBQV 171200Z 05009KT 9999 SCT015 SCT080 25/20 Q1019;
0120833440999992009011713004-14950-040883FM-15+0914SBQV V0200201N002110048019N0112651N1+02601+02001999999ADDGA1071+004801999GF107991999999999999999999MA1102001999999REMMET051METAR SBQV 171300Z 02004KT 9999 BKN016 26/20 Q1020;
0120833440999992009011714004-14950-040883FM-15+0914SBQV V0203401N002110054019N0112651N1+02601+02001999999ADDGA1071+005401999GF107991999999999999999999MA1102001999999REMMET051METAR SBQV 171400Z 34004KT 9999 BKN018 26/20 Q1020;
0120833440999992009011715004-14950-040883FM-15+0914SBQV V0203501N002610060019N0112651N1+02601+01901999999ADDGA1071+006001999GF107991999999999999999999MA1101901999999REMMET051METAR SBQV 171500Z 35005KT 9999 BKN020 26/19 Q1019;
0120833440999992009011716004-14950-040883FM-15+0914SBQV V0203001N001010075019N0112651N1+02701+02001999999ADDGA1071+007501999GF107991999999999999999999MA1101901999999REMMET051METAR SBQV 171600Z 30002KT 9999 BKN025 27/20 Q1019;
0120833440999992009011717004-14950-040883FM-15+0914SBQV V0209999C000010090019N0112651N1+02901+02001999999ADDGA1071+009001999GF107991999999999999999999MA1101801999999REMMET051METAR SBQV 171700Z 00000KT 9999 BKN030 29/20 Q1018;
0120833440999992009011718004-14950-040883FM-15+0914SBQV V0203101N001510090019N0112651N1+02801+02101999999ADDGA1071+009001999GF107991999999999999999999MA1101691999999REMMET051METAR SBQV 171800Z 31003KT 9999 BKN030 28/21 Q1017;
0163833440999992009011719004-14950-040883FM-15+0914SBQV V0202301N00461220001CN0090001N1+02301+02101999999ADDGA1071+006001999GA2021+007501091MA1101691999999MW1801MW2951REMMET073METAR SBQV 171900Z 23009KT 9000 4000NW -TSRA BKN020 FEW025CB 23/21 Q1017;EQDQ01+000022SCOTCV
0125833440999992009011720004-14950-040883FM-15+0914SBQV V0203001N003110060019N0112651N1+02101+02101999999ADDGA1071+006001999GF107991999999999999999999MA1101691999999REMMET056METAR SBQV 172000Z 30006KT 9999 BKN020 21/21 Q1017 RETS;
0143833440999992009011721004-14950-040883FM-15+0914SBQV V0209999C000012200019N0112651N1+02201+02101999999ADDGA1041+006001999GA2041+090001999GF104991999999999999999999MA1101691999999REMMET058METAR SBQV 172100Z 00000KT 9999 SCT020 SCT300 22/21 Q1017;
0120833440999992009011722004-14950-040883FM-15+0914SBQV V0209999C000012200019N0112651N1+02201+02201999999ADDGA1021+003601999GF102991999999999999999999MA1101801999999REMMET051METAR SBQV 172200Z 00000KT 9999 FEW012 22/22 Q1018;
0120833440999992009011811004-14950-040883FM-15+0914SBQV V0200601N001012200019N0112651N1+02101+02001999999ADDGA1021+002401999GF102991999999999999999999MA1102001999999REMMET051METAR SBQV 181100Z 06002KT 9999 FEW008 21/20 Q1020;
0120833440999992009011812004-14950-040883FM-15+0914SBQV V0200801N001512200019N0112651N1+02401+02101999999ADDGA1021+004501999GF102991999999999999999999MA1102001999999REMMET051METAR SBQV 181200Z 08003KT 9999 FEW015 24/21 Q1020;
0120833440999992009011813004-14950-040883FM-15+0914SBQV V0200801N002110048019N0112651N1+02501+02001999999ADDGA1071+004801999GF107991999999999999999999MA1102001999999REMMET051METAR SBQV 181300Z 08004KT 9999 BKN016 25/20 Q1020;
0120833440999992009011815004-14950-040883FM-15+0914SBQV V0209999C000010060019N0112651N1+02701+02001999999ADDGA1071+006001999GF107991999999999999999999MA1102001999999REMMET051METAR SBQV 181500Z 00000KT 9999 BKN020 27/20 Q1020;
0120833440999992009011816004-14950-040883FM-15+0914SBQV V0209999C000010060019N0112651N1+02601+02001999999ADDGA1071+006001999GF107991999999999999999999MA1101901999999REMMET051METAR SBQV 181600Z 00000KT 9999 BKN020 26/20 Q1019;
0120833440999992009011817004-14950-040883FM-15+0914SBQV V0202801N001010060019N0112651N1+02601+02101999999ADDGA1071+006001999GF107991999999999999999999MA1101801999999REMMET051METAR SBQV 181700Z 28002KT 9999 BKN020 26/21 Q1018;
0120833440999992009011818004-14950-040883FM-15+0914SBQV V0201601N000510060019N0112651N1+02601+02101999999ADDGA1071+006001999GF107991999999999999999999MA1101691999999REMMET051METAR SBQV 181800Z 16001KT 9999 BKN020 26/21 Q1017;
0120833440999992009011819004-14950-040883FM-15+0914SBQV V0201401N004110060019N0112651N1+02601+02101999999ADDGA1071+006001999GF107991999999999999999999MA1101691999999REMMET051METAR SBQV 181900Z 14008KT 9999 BKN020 26/21 Q1017;
0120833440999992009011820004-14950-040883FM-15+0914SBQV V0201001N004112200019N0112651N1+02601+01901999999ADDGA1021+006001999GF102991999999999999999999MA1101591999999REMMET051METAR SBQV 182000Z 10008KT 9999 FEW020 26/19 Q1016;
0120833440999992009011821004-14950-040883FM-15+0914SBQV V0201301N004612200019N0112651N1+02501+02001999999ADDGA1021+005401999GF102991999999999999999999MA1101691999999REMMET051METAR SBQV 182100Z 13009KT 9999 FEW018 25/20 Q1017;
0120833440999992009011822004-14950-040883FM-15+0914SBQV V0201101N002612200019N0112651N1+02301+02001999999ADDGA1021+004501999GF102991999999999999999999MA1101691999999REMMET051METAR SBQV 182200Z 11005KT 9999 FEW015 23/20 Q1017;
0072833440999992009011911004-14950-040883FM-15+0914SBQV V0200501N00051220001CN0099001N1+02301+01701999999ADDMA1102001999999REMMET045METAR SBQV 191100Z 05001KT CAVOK 23/17 Q1020;
0120833440999992009011912004-14950-040883FM-15+0914SBQV V0200101N000512200019N0112651N1+02401+01901999999ADDGA1021+005401999GF102991999999999999999999MA1102001999999REMMET051METAR SBQV 191200Z 01001KT 9999 FEW018 24/19 Q1020;
0120833440999992009011913004-14950-040883FM-15+0914SBQV V0203601N000512200019N0112651N1+02601+01901999999ADDGA1021+006001999GF102991999999999999999999MA1102001999999REMMET051METAR SBQV 191300Z 36001KT 9999 FEW020 26/19 Q1020;
0120833440999992009011914004-14950-040883FM-15+0914SBQV V0200401N001512200019N0112651N1+02601+01901999999ADDGA1021+006001999GF102991999999999999999999MA1101901999999REMMET051METAR SBQV 191400Z 04003KT 9999 FEW020 26/19 Q1019;
0120833440999992009011915004-14950-040883FM-15+0914SBQV V0203501N000512200019N0112651N1+02601+01701999999ADDGA1041+006001999GF104991999999999999999999MA1101801999999REMMET051METAR SBQV 191500Z 35001KT 9999 SCT020 26/17 Q1018;
0120833440999992009011916004-14950-040883FM-15+0914SBQV V0209999C000012200019N0112651N1+02801+01701999999ADDGA1041+006001999GF104991999999999999999999MA1101691999999REMMET051METAR SBQV 191600Z 00000KT 9999 SCT020 28/17 Q1017;
0120833440999992009011917004-14950-040883FM-15+0914SBQV V0203301N000512200019N0112651N1+02801+01801999999ADDGA1041+007501999GF104991999999999999999999MA1101591999999REMMET051METAR SBQV 191700Z 33001KT 9999 SCT025 28/18 Q1016;
0120833440999992009011918004-14950-040883FM-15+0914SBQV V0201101N001512200019N0112651N1+02701+01901999999ADDGA1041+007501999GF104991999999999999999999MA1101591999999REMMET051METAR SBQV 191800Z 11003KT 9999 SCT025 27/19 Q1016;
0120833440999992009011919004-14950-040883FM-15+0914SBQV V0200901N001012200019N0112651N1+02701+01901999999ADDGA1041+006001999GF104991999999999999999999MA1101491999999REMMET051METAR SBQV 191900Z 09002KT 9999 SCT020 27/19 Q1015;
0120833440999992009011920004-14950-040883FM-15+0914SBQV V0201101N004612200019N0112651N1+02601+01801999999ADDGA1021+006001999GF102991999999999999999999MA1101491999999REMMET051METAR SBQV 192000Z 11009KT 9999 FEW020 26/18 Q1015;
0120833440999992009011921004-14950-040883FM-15+0914SBQV V0201101N004612200019N0112651N1+02501+01601999999ADDGA1021+004801999GF102991999999999999999999MA1101591999999REMMET051METAR SBQV 192100Z 11009KT 9999 FEW016 25/16 Q1016;
0143833440999992009011922004-14950-040883FM-15+0914SBQV V0201001N003612200019N0112651N1+02301+01501999999ADDGA1021+004501999GA2041+021001999GF104991999999999999999999MA1101591999999REMMET058METAR SBQV 192200Z 10007KT 9999 FEW015 SCT070 23/15 Q1016;
0120833440999992009012011004-14950-040883FM-15+0914SBQV V0200401N005712200019N0112651N1+02101+01801999999ADDGA1021+004801999GF102991999999999999999999MA1101801999999REMMET051METAR SBQV 201100Z 04011KT 9999 FEW016 21/18 Q1018;
0120833440999992009012012004-14950-040883FM-15+0914SBQV V0200301N004612200019N0112651N1+02301+01801999999ADDGA1021+005401999GF102991999999999999999999MA1101801999999REMMET051METAR SBQV 201200Z 03009KT 9999 FEW018 23/18 Q1018;
0120833440999992009012013004-14950-040883FM-15+0914SBQV V0200201N003612200019N0112651N1+02501+01901999999ADDGA1021+006001999GF102991999999999999999999MA1101801999999REMMET051METAR SBQV 201300Z 02007KT 9999 FEW020 25/19 Q1018;
0120833440999992009012014004-14950-040883FM-15+0914SBQV V0200201N002612200019N0112651N1+02601+01801999999ADDGA1041+006001999GF104991999999999999999999MA1101801999999REMMET051METAR SBQV 201400Z 02005KT 9999 SCT020 26/18 Q1018;
0120833440999992009012015004-14950-040883FM-15+0914SBQV V0203601N002112200019N0112651N1+02601+01801999999ADDGA1041+006001999GF104991999999999999999999MA1101801999999REMMET051METAR SBQV 201500Z 36004KT 9999 SCT020 26/18 Q1018;
0120833440999992009012016004-14950-040883FM-15+0914SBQV V0203601N002612200019N0112651N1+02801+01801999999ADDGA1041+007501999GF104991999999999999999999MA1101691999999REMMET051METAR SBQV 201600Z 36005KT 9999 SCT025 28/18 Q1017;
0120833440999992009012017004-14950-040883FM-15+0914SBQV V0203601N002612200019N0112651N1+02801+01801999999ADDGA1041+007501999GF104991999999999999999999MA1101591999999REMMET051METAR SBQV 201700Z 36005KT 9999 SCT025 28/18 Q1016;
0120833440999992009012018004-14950-040883FM-15+0914SBQV V0200701N001012200019N0112651N1+02801+01701999999ADDGA1041+007501999GF104991999999999999999999MA1101491999999REMMET051METAR SBQV 201800Z 07002KT 9999 SCT025 28/17 Q1015;
0120833440999992009012019004-14950-040883FM-15+0914SBQV V0200501N003612200019N0112651N1+02801+01701999999ADDGA1041+007501999GF104991999999999999999999MA1101391999999REMMET051METAR SBQV 201900Z 05007KT 9999 SCT025 28/17 Q1014;
0120833440999992009012020004-14950-040883FM-15+0914SBQV V0201201N004112200019N0112651N1+02701+01901999999ADDGA1021+007501999GF102991999999999999999999MA1101391999999REMMET051METAR SBQV 202000Z 12008KT 9999 FEW025 27/19 Q1014;
0120833440999992009012021004-14950-040883FM-15+0914SBQV V0201101N003612200019N0112651N1+02601+01801999999ADDGA1021+006001999GF102991999999999999999999MA1101491999999REMMET051METAR SBQV 202100Z 11007KT 9999 FEW020 26/18 Q1015;
0120833440999992009012022004-14950-040883FM-15+0914SBQV V0201001N003112200019N0112651N1+02401+01801999999ADDGA1021+005401999GF102991999999999999999999MA1101591999999REMMET051METAR SBQV 202200Z 10006KT 9999 FEW018 24/18 Q1016;
0120833440999992009012111004-14950-040883FM-15+0914SBQV V0200101N002612200019N0112651N1+02301+01901999999ADDGA1021+004801999GF102991999999999999999999MA1101801999999REMMET051METAR SBQV 211100Z 01005KT 9999 FEW016 23/19 Q1018;
0120833440999992009012112004-14950-040883FM-15+0914SBQV V0200101N005112200019N0112651N1+02401+01901999999ADDGA1021+005401999GF102991999999999999999999MA1101801999999REMMET051METAR SBQV 211200Z 01010KT 9999 FEW018 24/19 Q1018;
0120833440999992009012113004-14950-040883FM-15+0914SBQV V0200101N003612200019N0112651N1+02501+02001999999ADDGA1021+006001999GF102991999999999999999999MA1101901999999REMMET051METAR SBQV 211300Z 01007KT 9999 FEW020 25/20 Q1019;
0120833440999992009012114004-14950-040883FM-15+0914SBQV V0203401N002112200019N0112651N1+02601+02101999999ADDGA1021+007501999GF102991999999999999999999MA1101901999999REMMET051METAR SBQV 211400Z 34004KT 9999 FEW025 26/21 Q1019;
0120833440999992009012115004-14950-040883FM-15+0914SBQV V0203201N003112200019N0112651N1+02701+02001999999ADDGA1021+007501999GF102991999999999999999999MA1101801999999REMMET051METAR SBQV 211500Z 32006KT 9999 FEW025 27/20 Q1018;
0120833440999992009012116004-14950-040883FM-15+0914SBQV V0203201N002612200019N0112651N1+02701+02001999999ADDGA1041+007501999GF104991999999999999999999MA1101801999999REMMET051METAR SBQV 211600Z 32005KT 9999 SCT025 27/20 Q1018;
0120833440999992009012117004-14950-040883FM-15+0914SBQV V0203101N003112200019N0112651N1+02801+02101999999ADDGA1041+007501999GF104991999999999999999999MA1101691999999REMMET051METAR SBQV 211700Z 31006KT 9999 SCT025 28/21 Q1017;
0120833440999992009012118004-14950-040883FM-15+0914SBQV V0203101N002112200019N0112651N1+02801+02101999999ADDGA1041+007501999GF104991999999999999999999MA1101591999999REMMET051METAR SBQV 211800Z 31004KT 9999 SCT025 28/21 Q1016;
0120833440999992009012119004-14950-040883FM-15+0914SBQV V0203101N001512200019N0112651N1+02801+02001999999ADDGA1041+007501999GF104991999999999999999999MA1101491999999REMMET051METAR SBQV 211900Z 31003KT 9999 SCT025 28/20 Q1015;
0120833440999992009012120004-14950-040883FM-15+0914SBQV V0203101N001512200019N0112651N1+02701+02001999999ADDGA1021+006001999GF102991999999999999999999MA1101491999999REMMET051METAR SBQV 212000Z 31003KT 9999 FEW020 27/20 Q1015;
0120833440999992009012121004-14950-040883FM-15+0914SBQV V0203201N001012200019N0112651N1+02601+02101999999ADDGA1021+004801999GF102991999999999999999999MA1101591999999REMMET051METAR SBQV 212100Z 32002KT 9999 FEW016 26/21 Q1016;
0120833440999992009012122004-14950-040883FM-15+0914SBQV V0203301N000512200019N0112651N1+02401+02101999999ADDGA1021+004501999GF102991999999999999999999MA1101591999999REMMET051METAR SBQV 212200Z 33001KT 9999 FEW015 24/21 Q1016;
0120833440999992009012211004-14950-040883FM-15+0914SBQV V0200101N004112200019N0112651N1+02401+02101999999ADDGA1021+004801999GF102991999999999999999999MA1101801999999REMMET051METAR SBQV 221100Z 01008KT 9999 FEW016 24/21 Q1018;
0120833440999992009012212004-14950-040883FM-15+0914SBQV V0203301N002612200019N0112651N1+02501+02101999999ADDGA1041+004801999GF104991999999999999999999MA1101901999999REMMET051METAR SBQV 221200Z 33005KT 9999 SCT016 25/21 Q1019;
0120833440999992009012213004-14950-040883FM-15+0914SBQV V0203401N003112200019N0112651N1+02501+02101999999ADDGA1041+005401999GF104991999999999999999999MA1101901999999REMMET051METAR SBQV 221300Z 34006KT 9999 SCT018 25/21 Q1019;
0120833440999992009012214004-14950-040883FM-15+0914SBQV V0203301N003112200019N0112651N1+02701+02201999999ADDGA1041+006001999GF104991999999999999999999MA1101901999999REMMET051METAR SBQV 221400Z 33006KT 9999 SCT020 27/22 Q1019;
0120833440999992009012215004-14950-040883FM-15+0914SBQV V0203401N003110075019N0112651N1+02701+02201999999ADDGA1071+007501999GF107991999999999999999999MA1101801999999REMMET051METAR SBQV 221500Z 34006KT 9999 BKN025 27/22 Q1018;
0120833440999992009012216004-14950-040883FM-15+0914SBQV V0203301N002110075019N0112651N1+02701+02101999999ADDGA1071+007501999GF107991999999999999999999MA1101691999999REMMET051METAR SBQV 221600Z 33004KT 9999 BKN025 27/21 Q1017;
0120833440999992009012217004-14950-040883FM-15+0914SBQV V0202801N002112200019N0112651N1+02801+02201999999ADDGA1041+007501999GF104991999999999999999999MA1101591999999REMMET051METAR SBQV 221700Z 28004KT 9999 SCT025 28/22 Q1016;
0169833440999992009012218004-14950-040883FM-15+0914SBQV V0202901N002612200019N0112651N1+02901+02201999999ADDGA1041+009001999GA2021+010501021GA3041+090001999GF104991999999999999999999MA1101491999999REMMET068METAR SBQV 221800Z 29005KT 9999 SCT030 FEW035TCU SCT300 29/22 Q1015;
0144833440999992009012220004-14950-040883FM-15+0914SBQV V0201101N002612200019N0112651N1+02801+02101999999ADDGA1041+009001999GA2021+010501021MA1101491999999REMMET066METAR SBQV 222000Z 11005KT 9999 SCT030 FEW035TCU 28/21 Q1015 RETS;EQDQ01+000022SCOTCV
0130833440999992009012221004-14950-040883FM-15+0914SBQV V0201201N002612200019N0112651N1+02601+02201999999ADDGA1041+007501999GF104991999999999999999999MA1101491999999MW1611REMMET055METAR SBQV 222100Z 12005KT 9999 -RA SCT025 26/22 Q1015;
0147833440999992009012222004-14950-040883FM-15+0914SBQV V0201001N003112200019N0112651N1+02501+02101999999ADDGA1041+006001999GA2021+007501091MA1101591999999MW1171REMMET063METAR SBQV 222200Z 10006KT 9999 TS SCT020 FEW025CB 25/21 Q1016;EQDQ01+000022SCOTCV
0153833440999992009012311004-14950-040883FM-15+0914SBQV V0200101N001510240019N0112651N1+02101+02001999999ADDGA1021+004501999GA2071+024001999GF107991999999999999999999MA1101901999999MW1611REMMET062METAR SBQV 231100Z 01003KT 9999 -RA FEW015 BKN080 21/20 Q1019;
0143833440999992009012312004-14950-040883FM-15+0914SBQV V0203001N002110270019N0112651N1+02401+02101999999ADDGA1021+006001999GA2071+027001999GF107991999999999999999999MA1101901999999REMMET058METAR SBQV 231200Z 30004KT 9999 FEW020 BKN090 24/21 Q1019;
0143833440999992009012313004-14950-040883FM-15+0914SBQV V0203201N002610270019N0112651N1+02501+02101999999ADDGA1041+007501999GA2071+027001999GF107991999999999999999999MA1101901999999REMMET058METAR SBQV 231300Z 32005KT 9999 SCT025 BKN090 25/21 Q1019;
0136833440999992009012314004-14950-040883FM-15+0914SBQV V0203201N00311220001CN0112651N1+02701+02201999999ADDGA1071+009001999GA2041+030001999MA1101901999999REMMET058METAR SBQV 231400Z 32006KT 9999 BKN030 SCT100 27/22 Q1019;EQDQ01+000042SCOTCV
0136833440999992009012315004-14950-040883FM-15+0914SBQV V0203001N00361220001CN0112651N1+02701+02301999999ADDGA1071+009001999GA2041+030001999MA1101801999999REMMET058METAR SBQV 231500Z 30007KT 9999 BKN030 SCT100 27/23 Q1018;EQDQ01+000042SCOTCV
0136833440999992009012316004-14950-040883FM-15+0914SBQV V0202901N00361220001CN0112651N1+02601+02201999999ADDGA1071+009001999GA2041+030001999MA1101691999999REMMET058METAR SBQV 231600Z 29007KT 9999 BKN030 SCT100 26/22 Q1017;EQDQ01+000042SCOTCV
0130833440999992009012317004-14950-040883FM-15+0914SBQV V0202401N006210075019N0112651N1+02301+02201999999ADDGA1071+007501999GF107991999999999999999999MA1101691999999MW1611REMMET055METAR SBQV 231700Z 24012KT 9999 -RA BKN025 23/22 Q1017;
0143833440999992009012318004-14950-040883FM-15+0914SBQV V0202601N003612200019N0112651N1+02501+02201999999ADDGA1021+007501999GA2041+027001999GF104991999999999999999999MA1101591999999REMMET058METAR SBQV 231800Z 26007KT 9999 FEW025 SCT090 25/22 Q1016;
0186833440999992009012319004-14950-040883FM-15+0914SBQV V0202501N003110270019N0112651N1+02501+02101999999ADDGA1021+007501999GA2021+009001021GA3071+027001999GF107991999999999999999999MA1101591999999MW1611REMMET079METAR SBQV 231900Z 25006KT 9999 3000SW -RA FEW025 FEW030TCU BKN090 25/21 Q1016;
0143833440999992009012320004-14950-040883FM-15+0914SBQV V0202601N002110240019N0112651N1+02401+02201999999ADDGA1021+006001999GA2071+024001999GF107991999999999999999999MA1101491999999REMMET058METAR SBQV 232000Z 26004KT 9999 FEW020 BKN080 24/22 Q1015;
0143833440999992009012321004-14950-040883FM-15+0914SBQV V0202001N003610240019N0112651N1+02301+02101999999ADDGA1021+005401999GA2071+024001999GF107991999999999999999999MA1101591999999REMMET058METAR SBQV 232100Z 20007KT 9999 FEW018 BKN080 23/21 Q1016;
0143833440999992009012322004-14950-040883FM-15+0914SBQV V0201501N003110210019N0112651N1+02201+02101999999ADDGA1021+004801999GA2071+021001999GF107991999999999999999999MA1101691999999REMMET058METAR SBQV 232200Z 15006KT 9999 FEW016 BKN070 22/21 Q1017;
0143833440999992009012411004-14950-040883FM-15+0914SBQV V0201001N004110030019N0112651N1+02001+02001999999ADDGA1021+001801999GA2071+003001999GF107991999999999999999999MA1101801999999REMMET058METAR SBQV 241100Z 10008KT 9999 FEW006 BKN010 20/20 Q1018;
0120833440999992009012412004-14950-040883FM-15+0914SBQV V0201101N001010033019N0112651N1+02001+01901999999ADDGA1071+003301999GF107991999999999999999999MA1101801999999REMMET051METAR SBQV 241200Z 11002KT 9999 BKN011 20/19 Q1018;
0136833440999992009012413004-14950-040883FM-15+0914SBQV V0200701N00051220001CN0112651N1+02101+01901999999ADDGA1071+003901999GA2041+004501999MA1101901999999REMMET058METAR SBQV 241300Z 07001KT 9999 BKN013 SCT015 21/19 Q1019;EQDQ01+000042SCOTCV
0136833440999992009012414004-14950-040883FM-15+0914SBQV V0209999C00001220001CN0112651N1+02201+01901999999ADDGA1071+004801999GA2041+021001999MA1101801999999REMMET058METAR SBQV 241400Z 00000KT 9999 BKN016 SCT070 22/19 Q1018;EQDQ01+000042SCOTCV
0120833440999992009012415004-14950-040883FM-15+0914SBQV V0201501N002112200019N0112651N1+02501+02001999999ADDGA1041+005401999GF104991999999999999999999MA1101691999999REMMET051METAR SBQV 241500Z 15004KT 9999 SCT018 25/20 Q1017;
0120833440999992009012416004-14950-040883FM-15+0914SBQV V0201801N002610060019N0112651N1+02501+02001999999ADDGA1071+006001999GF107991999999999999999999MA1101691999999REMMET051METAR SBQV 241600Z 18005KT 9999 BKN020 25/20 Q1017;
0120833440999992009012417004-14950-040883FM-15+0914SBQV V0201701N003110060019N0112651N1+02701+02101999999ADDGA1071+006001999GF107991999999999999999999MA1101591999999REMMET051METAR SBQV 241700Z 17006KT 9999 BKN020 27/21 Q1016;
0120833440999992009012418004-14950-040883FM-15+0914SBQV V0201901N002610060019N0112651N1+02601+02001999999ADDGA1071+006001999GF107991999999999999999999MA1101491999999REMMET051METAR SBQV 241800Z 19005KT 9999 BKN020 26/20 Q1015;
0120833440999992009012419004-14950-040883FM-15+0914SBQV V0201401N003610060019N0112651N1+02601+02001999999ADDGA1071+006001999GF107991999999999999999999MA1101491999999REMMET051METAR SBQV 241900Z 14007KT 9999 BKN020 26/20 Q1015;
0120833440999992009012420004-14950-040883FM-15+0914SBQV V0201301N003612200019N0112651N1+02601+01901999999ADDGA1021+006001999GF102991999999999999999999MA1101391999999REMMET051METAR SBQV 242000Z 13007KT 9999 FEW020 26/19 Q1014;
0077833440999992009012421004-14950-040883FM-15+0914SBQV V02099999999992200019N0020081N1+02401+01901999999ADDMA1101501999999REMMET050METAR SBQV 242100Z 2008KT 9999 FEW020 24/19 Q1015;
0120833440999992009012422004-14950-040883FM-15+0914SBQV V0201201N003612200019N0112651N1+02301+02001999999ADDGA1021+004801999GF102991999999999999999999MA1101491999999REMMET051METAR SBQV 242200Z 12007KT 9999 FEW016 23/20 Q1015;
0130833440999992009012511004-14950-040883FM-15+0914SBQV V0201301N001510018019N0060001N1+02101+02101999999ADDGA1071+001801999GF107991999999999999999999MA1101691999999MW1511REMMET055METAR SBQV 251100Z 13003KT 6000 -DZ BKN006 21/21 Q1017;
0120833440999992009012512004-14950-040883FM-15+0914SBQV V0201401N001010030019N0112651N1+02201+02201999999ADDGA1071+003001999GF107991999999999999999999MA1101691999999REMMET051METAR SBQV 251200Z 14002KT 9999 BKN010 22/22 Q1017;
0120833440999992009012513004-14950-040883FM-15+0914SBQV V0201401N001010033019N0112651N1+02301+02201999999ADDGA1071+003301999GF107991999999999999999999MA1101691999999REMMET051METAR SBQV 251300Z 14002KT 9999 BKN011 23/22 Q1017;
0183833440999992009012514004-14950-040883FM-15+0914SBQV V0201401N002110027019N0112651N1+02301+02201999999ADDGA1041+001801999GA2071+002701999GA3081+021001999GF108991999999999999999999MA1101691999999MW1611REMMET076METAR SBQV 251400Z 14004KT 9999 3000SW -RA SCT006 BKN009 OVC070 23/22 Q1017;
0184833440999992009012515004-14950-040883FM-15+0914SBQV V0201901N00211220001CN0080001N1+02101+02101999999ADDGA1071+002401999GA2041+004501999GA3021+005401091MA1101691999999MW1801MW2951REMMET078METAR SBQV 251500Z 19004KT 8000 -TSRA BKN008 SCT015 FEW018CB 21/21 Q1017 RERA;EQDQ01+000022SCOTCV
0143833440999992009012516004-14950-040883FM-15+0914SBQV V0202801N000512200019N0112651N1+02201+02201999999ADDGA1021+003301999GA2041+004801999GF104991999999999999999999MA1101591999999REMMET058METAR SBQV 251600Z 28001KT 9999 FEW011 SCT016 22/22 Q1016;
0143833440999992009012517004-14950-040883FM-15+0914SBQV V0201801N001012200019N0112651N1+02601+02301999999ADDGA1021+003601999GA2041+004801999GF104991999999999999999999MA1101491999999REMMET058METAR SBQV 251700Z 18002KT 9999 FEW012 SCT016 26/23 Q1015;
0192833440999992009012518004-14950-040883FM-15+0914SBQV V0201401N002612200019N0112651N1+02601+02201999999ADDGA1041+004801999GA2021+005401091GA3041+021001999GF104991999999999999999999MA1101391999999MW1801MW2951REMMET079METAR SBQV 251800Z 14005KT 9999 4000E -TSRA SCT016 FEW018CB SCT070 26/22 Q1014;
0186833440999992009012519004-14950-040883FM-15+0914SBQV V0201301N003112200019N0070001N1+02201+02101999999ADDGA1041+004501999GA2021+004801091GA3041+021001999GF104991999999999999999999MA1101491999999MW1801MW2951REMMET073METAR SBQV 251900Z 13006KT 7000 -TSRA SCT015 FEW016CB SCT070 22/21 Q1015;
0181833440999992009012520004-14950-040883FM-15+0914SBQV V0201001N00411004501CN0080001N1+02201+02201999999ADDGA1021+003301999GA2041+004501999GA3071+021001999GF107991999999999999999999MA1101491999999MW1611REMMET074METAR SBQV 252000Z 10008KT 8000 -RA FEW011 SCT015 BKN070 22/22 Q1015 RETS;
0153833440999992009012521004-14950-040883FM-15+0914SBQV V0201001N003110210019N0112651N1+02201+02201999999ADDGA1041+003001999GA2071+021001999GF107991999999999999999999MA1101591999999MW1611REMMET062METAR SBQV 252100Z 10006KT 9999 -RA SCT010 BKN070 22/22 Q1016;
0143833440999992009012522004-14950-040883FM-15+0914SBQV V0200801N004112200019N0112651N1+02101+02101999999ADDGA1021+003001999GA2041+021001999GF104991999999999999999999MA1101591999999REMMET058METAR SBQV 252200Z 08008KT 9999 FEW010 SCT070 21/21 Q1016;
0143833440999992009012523004-14950-040883FM-15+0914SBQV V0200801N003612200019N0112651N1+02101+02101999999ADDGA1021+002701999GA2041+090001999GF104991999999999999999999MA1101691999999REMMET058METAR SBQV 252300Z 08007KT 9999 FEW009 SCT300 21/21 Q1017;
0143833440999992009012611004-14950-040883FM-15+0914SBQV V0200601N002610039019N0112651N1+02201+02101999999ADDGA1071+003901999GA2071+021001999GF107991999999999999999999MA1101901999999REMMET058METAR SBQV 261100Z 06005KT 9999 BKN013 BKN070 22/21 Q1019;
0120833440999992009012612004-14950-040883FM-15+0914SBQV V0200601N003110054019N0112651N1+02401+02101999999ADDGA1071+005401999GF107991999999999999999999MA1101901999999REMMET051METAR SBQV 261200Z 06006KT 9999 BKN018 24/21 Q1019;
0120833440999992009012613004-14950-040883FM-15+0914SBQV V0200701N003610060019N0112651N1+02401+02101999999ADDGA1071+006001999GF107991999999999999999999MA1101901999999REMMET051METAR SBQV 261300Z 07007KT 9999 BKN020 24/21 Q1019;
0120833440999992009012614004-14950-040883FM-15+0914SBQV V0200701N003110060019N0112651N1+02601+02201999999ADDGA1071+006001999GF107991999999999999999999MA1101901999999REMMET051METAR SBQV 261400Z 07006KT 9999 BKN020 26/22 Q1019;
0143833440999992009012615004-14950-040883FM-15+0914SBQV V0200901N003112200019N0112651N1+02401+02201999999ADDGA1041+004501999GA2041+006001999GF104991999999999999999999MA1101801999999REMMET058METAR SBQV 261500Z 09006KT 9999 SCT015 SCT020 24/22 Q1018;
0143833440999992009012616004-14950-040883FM-15+0914SBQV V0202401N003612200019N0112651N1+02201+02201999999ADDGA1041+003901999GA2041+005401999GF104991999999999999999999MA1101801999999REMMET058METAR SBQV 261600Z 24007KT 9999 SCT013 SCT018 22/22 Q1018;
0150833440999992009012617004-14950-040883FM-15+0914SBQV V0202701N002110210019N0112651N1+02101+02101999999ADDGA1041+005401999GA2071+021001999GF107991999999999999999999MA1101801999999REMMET065METAR SBQV 261700Z 27004KT 9999 SCT018 BKN070 21/21 Q1018 RETSRA;
0170833440999992009012618004-14950-040883FM-15+0914SBQV V0201501N003612200019N0112651N1+02101+02101999999ADDGA1021+001801999GA2041+005401999GA3021+006001091MA1101691999999MW1171REMMET070METAR SBQV 261800Z 15007KT 9999 TS FEW006 SCT018 FEW020CB 21/21 Q1017;EQDQ01+000022SCOTCV
0148833440999992009012619004-14950-040883FM-15+0914SBQV V0201101N002610210019N0112651N1+02101+02101999999ADDGA1041+004501999GA2071+021001999GF107991999999999999999999MA1101691999999REMMET063METAR SBQV 261900Z 11005KT 9999 SCT015 BKN070 21/21 Q1017 RETS;
0143833440999992009012620004-14950-040883FM-15+0914SBQV V0201101N003610210019N0112651N1+02201+02201999999ADDGA1021+001801999GA2071+021001999GF107991999999999999999999MA1101691999999REMMET058METAR SBQV 262000Z 11007KT 9999 FEW006 BKN070 22/22 Q1017;
0143833440999992009012621004-14950-040883FM-15+0914SBQV V0201301N002610210019N0112651N1+02101+02101999999ADDGA1021+001801999GA2071+021001999GF107991999999999999999999MA1101691999999REMMET058METAR SBQV 262100Z 13005KT 9999 FEW006 BKN070 21/21 Q1017;
0143833440999992009012622004-14950-040883FM-15+0914SBQV V0201301N004110210019N0112651N1+02101+02101999999ADDGA1021+001801999GA2071+021001999GF107991999999999999999999MA1101801999999REMMET058METAR SBQV 262200Z 13008KT 9999 FEW006 BKN070 21/21 Q1018;
0120833440999992009012707004-14950-040883FM-15+0914SBQV V0200901N005712200019N0112651N1+01901+01901999999ADDGA1021+003001999GF102991999999999999999999MA1101801999999REMMET051METAR SBQV 270700Z 09011KT 9999 FEW010 19/19 Q1018;
0143833440999992009012708004-14950-040883FM-15+0914SBQV V0200801N005112200019N0112651N1+01901+01901999999ADDGA1021+001501999GA2041+003001999GF104991999999999999999999MA1101901999999REMMET058METAR SBQV 270800Z 08010KT 9999 FEW005 SCT010 19/19 Q1019;
0120833440999992009012709004-14950-040883FM-15+0914SBQV V0200901N003612200019N0112651N1+01901+01901999999ADDGA1021+004501999GF102991999999999999999999MA1102001999999REMMET051METAR SBQV 270900Z 09007KT 9999 FEW015 19/19 Q1020;
0120833440999992009012711004-14950-040883FM-15+0914SBQV V0200801N005110045019N0112651N1+02201+02001999999ADDGA1071+004501999GF107991999999999999999999MA1102001999999REMMET051METAR SBQV 271100Z 08010KT 9999 BKN015 22/20 Q1020;
0120833440999992009012712004-14950-040883FM-15+0914SBQV V0200801N003610060019N0112651N1+02301+02001999999ADDGA1071+006001999GF107991999999999999999999MA1102101999999REMMET051METAR SBQV 271200Z 08007KT 9999 BKN020 23/20 Q1021;
0120833440999992009012713004-14950-040883FM-15+0914SBQV V0201001N003612200019N0112651N1+02501+02001999999ADDGA1041+007501999GF104991999999999999999999MA1102101999999REMMET051METAR SBQV 271300Z 10007KT 9999 SCT025 25/20 Q1021;
0120833440999992009012714004-14950-040883FM-15+0914SBQV V0200901N003612200019N0112651N1+02601+01901999999ADDGA1021+009001999GF102991999999999999999999MA1102101999999REMMET051METAR SBQV 271400Z 09007KT 9999 FEW030 26/19 Q1021;
0120833440999992009012715004-14950-040883FM-15+0914SBQV V0201001N003612200019N0112651N1+02701+01901999999ADDGA1041+009001999GF104991999999999999999999MA1102001999999REMMET051METAR SBQV 271500Z 10007KT 9999 SCT030 27/19 Q1020;
0120833440999992009012716004-14950-040883FM-15+0914SBQV V0201001N003612200019N0112651N1+02701+01901999999ADDGA1041+009001999GF104991999999999999999999MA1101901999999REMMET051METAR SBQV 271600Z 10007KT 9999 SCT030 27/19 Q1019;
0136833440999992009012717004-14950-040883FM-15+0914SBQV V0200601N00311220001CN0112651N1+02801+02101999999ADDGA1071+009001999GA2041+030001999MA1101801999999REMMET058METAR SBQV 271700Z 06006KT 9999 BKN030 SCT100 28/21 Q1018;EQDQ01+000042SCOTCV
0120833440999992009012718004-14950-040883FM-15+0914SBQV V0200901N004612200019N0112651N1+02801+02001999999ADDGA1041+009001999GF104991999999999999999999MA1101801999999REMMET051METAR SBQV 271800Z 09009KT 9999 SCT030 28/20 Q1018;
0136833440999992009012719004-14950-040883FM-15+0914SBQV V0200701N00511220001CN0112651N1+02501+02201999999ADDGA1071+007501999GA2041+027001999MA1101691999999REMMET058METAR SBQV 271900Z 07010KT 9999 BKN025 SCT090 25/22 Q1017;EQDQ01+000042SCOTCV
0179833440999992009012720004-14950-040883FM-15+0914SBQV V0200601N004112200019N0112651N1+02401+02201999999ADDGA1041+006001999GA2021+007501021GA3041+024001999GF104991999999999999999999MA1101801999999MW1611REMMET072METAR SBQV 272000Z 06008KT 9999 -RA SCT020 FEW025TCU SCT080 24/22 Q1018;
0143833440999992009012721004-14950-040883FM-15+0914SBQV V0200601N004612200019N0112651N1+02301+02001999999ADDGA1021+006001999GA2041+090001999GF104991999999999999999999MA1101801999999REMMET058METAR SBQV 272100Z 06009KT 9999 FEW020 SCT300 23/20 Q1018;
0143833440999992009012722004-14950-040883FM-15+0914SBQV V0200701N003112200019N0112651N1+02201+02101999999ADDGA1021+004801999GA2041+090001999GF104991999999999999999999MA1101901999999REMMET058METAR SBQV 272200Z 07006KT 9999 FEW016 SCT300 22/21 Q1019;
0120833440999992009012811004-14950-040883FM-15+0914SBQV V0200601N003110060019N0112651N1+02101+01901999999ADDGA1071+006001999GF107991999999999999999999MA1102001999999REMMET051METAR SBQV 281100Z 06006KT 9999 BKN020 21/19 Q1020;
0120833440999992009012812004-14950-040883FM-15+0914SBQV V0200801N003610075019N0112651N1+02301+01801999999ADDGA1071+007501999GF107991999999999999999999MA1102001999999REMMET051METAR SBQV 281200Z 08007KT 9999 BKN025 23/18 Q1020;
0120833440999992009012813004-14950-040883FM-15+0914SBQV V0200601N005110075019N0112651N1+02401+01801999999ADDGA1071+007501999GF107991999999999999999999MA1102001999999REMMET051METAR SBQV 281300Z 06010KT 9999 BKN025 24/18 Q1020;
0120833440999992009012814004-14950-040883FM-15+0914SBQV V0200601N003610090019N0112651N1+02501+01701999999ADDGA1071+009001999GF107991999999999999999999MA1102001999999REMMET051METAR SBQV 281400Z 06007KT 9999 BKN030 25/17 Q1020;
0120833440999992009012815004-14950-040883FM-15+0914SBQV V0200701N003610090019N0112651N1+02601+01701999999ADDGA1071+009001999GF107991999999999999999999MA1101901999999REMMET051METAR SBQV 281500Z 07007KT 9999 BKN030 26/17 Q1019;
0120833440999992009012816004-14950-040883FM-15+0914SBQV V0200801N003110090019N0112651N1+02601+01801999999ADDGA1071+009001999GF107991999999999999999999MA1101901999999REMMET051METAR SBQV 281600Z 08006KT 9999 BKN030 26/18 Q1019;
0120833440999992009012817004-14950-040883FM-15+0914SBQV V0200601N003110090019N0112651N1+02701+01901999999ADDGA1071+009001999GF107991999999999999999999MA1101801999999REMMET051METAR SBQV 281700Z 06006KT 9999 BKN030 27/19 Q1018;
0120833440999992009012818004-14950-040883FM-15+0914SBQV V0200901N004612200019N0112651N1+02701+01701999999ADDGA1041+009001999GF104991999999999999999999MA1101801999999REMMET051METAR SBQV 281800Z 09009KT 9999 SCT030 27/17 Q1018;
0120833440999992009012819004-14950-040883FM-15+0914SBQV V0200801N004612200019N0112651N1+02701+01701999999ADDGA1021+009001999GF102991999999999999999999MA1101691999999REMMET051METAR SBQV 281900Z 08009KT 9999 FEW030 27/17 Q1017;
0120833440999992009012820004-14950-040883FM-15+0914SBQV V0201101N005112200019N0112651N1+02601+01801999999ADDGA1021+009001999GF102991999999999999999999MA1101801999999REMMET051METAR SBQV 282000Z 11010KT 9999 FEW030 26/18 Q1018;
0120833440999992009012821004-14950-040883FM-15+0914SBQV V0201001N004612200019N0112651N1+02401+01701999999ADDGA1021+006001999GF102991999999999999999999MA1101801999999REMMET051METAR SBQV 282100Z 10009KT 9999 FEW020 24/17 Q1018;
0120833440999992009012822004-14950-040883FM-15+0914SBQV V0201001N003112200019N0112651N1+02201+01801999999ADDGA1021+004801999GF102991999999999999999999MA1101901999999REMMET051METAR SBQV 282200Z 10006KT 9999 FEW016 22/18 Q1019;
0120833440999992009012911004-14950-040883FM-15+0914SBQV V0200801N005712200019N0112651N1+02201+01901999999ADDGA1021+005401999GF102991999999999999999999MA1102001999999REMMET051METAR SBQV 291100Z 08011KT 9999 FEW018 22/19 Q1020;
0120833440999992009012912004-14950-040883FM-15+0914SBQV V0200801N004112200019N0112651N1+02401+01901999999ADDGA1021+006001999GF102991999999999999999999MA1102001999999REMMET051METAR SBQV 291200Z 08008KT 9999 FEW020 24/19 Q1020;
0120833440999992009012913004-14950-040883FM-15+0914SBQV V0200801N004112200019N0112651N1+02501+01901999999ADDGA1021+006001999GF102991999999999999999999MA1102001999999REMMET051METAR SBQV 291300Z 08008KT 9999 FEW020 25/19 Q1020;
0120833440999992009012914004-14950-040883FM-15+0914SBQV V0201001N003612200019N0112651N1+02701+01801999999ADDGA1021+007501999GF102991999999999999999999MA1102001999999REMMET051METAR SBQV 291400Z 10007KT 9999 FEW025 27/18 Q1020;
0120833440999992009012915004-14950-040883FM-15+0914SBQV V0201301N004612200019N0112651N1+02701+01701999999ADDGA1021+007501999GF102991999999999999999999MA1101901999999REMMET051METAR SBQV 291500Z 13009KT 9999 FEW025 27/17 Q1019;
0120833440999992009012916004-14950-040883FM-15+0914SBQV V0200901N004112200019N0112651N1+02701+01701999999ADDGA1021+007501999GF102991999999999999999999MA1101801999999REMMET051METAR SBQV 291600Z 09008KT 9999 FEW025 27/17 Q1018;
0120833440999992009012917004-14950-040883FM-15+0914SBQV V0201101N004612200019N0112651N1+02801+01801999999ADDGA1021+009001999GF102991999999999999999999MA1101691999999REMMET051METAR SBQV 291700Z 11009KT 9999 FEW030 28/18 Q1017;
0120833440999992009012918004-14950-040883FM-15+0914SBQV V0201001N003112200019N0112651N1+02801+01601999999ADDGA1021+009001999GF102991999999999999999999MA1101691999999REMMET051METAR SBQV 291800Z 10006KT 9999 FEW030 28/16 Q1017;
0120833440999992009012919004-14950-040883FM-15+0914SBQV V0201101N004612200019N0112651N1+02801+01701999999ADDGA1021+009001999GF102991999999999999999999MA1101691999999REMMET051METAR SBQV 291900Z 11009KT 9999 FEW030 28/17 Q1017;
0120833440999992009012920004-14950-040883FM-15+0914SBQV V0201101N004612200019N0112651N1+02701+01701999999ADDGA1021+007501999GF102991999999999999999999MA1101691999999REMMET051METAR SBQV 292000Z 11009KT 9999 FEW025 27/17 Q1017;
0120833440999992009012921004-14950-040883FM-15+0914SBQV V0201201N004612200019N0112651N1+02501+01801999999ADDGA1021+006001999GF102991999999999999999999MA1101801999999REMMET051METAR SBQV 292100Z 12009KT 9999 FEW020 25/18 Q1018;
0120833440999992009012922004-14950-040883FM-15+0914SBQV V0201101N003612200019N0112651N1+02301+01901999999ADDGA1021+005401999GF102991999999999999999999MA1101801999999REMMET051METAR SBQV 292200Z 11007KT 9999 FEW018 23/19 Q1018;
0120833440999992009013011004-14950-040883FM-15+0914SBQV V0200401N003112200019N0112651N1+02201+01801999999ADDGA1021+004501999GF102991999999999999999999MA1102001999999REMMET051METAR SBQV 301100Z 04006KT 9999 FEW015 22/18 Q1020;
0120833440999992009013012004-14950-040883FM-15+0914SBQV V0200701N003112200019N0112651N1+02401+01801999999ADDGA1021+005401999GF102991999999999999999999MA1102001999999REMMET051METAR SBQV 301200Z 07006KT 9999 FEW018 24/18 Q1020;
0120833440999992009013013004-14950-040883FM-15+0914SBQV V0200501N002612200019N0112651N1+02501+01801999999ADDGA1021+006001999GF102991999999999999999999MA1101901999999REMMET051METAR SBQV 301300Z 05005KT 9999 FEW020 25/18 Q1019;
0120833440999992009013014004-14950-040883FM-15+0914SBQV V0201001N002112200019N0112651N1+02601+01701999999ADDGA1041+006001999GF104991999999999999999999MA1101901999999REMMET051METAR SBQV 301400Z 10004KT 9999 SCT020 26/17 Q1019;
0120833440999992009013015004-14950-040883FM-15+0914SBQV V0200801N002112200019N0112651N1+02801+01801999999ADDGA1041+007501999GF104991999999999999999999MA1101801999999REMMET051METAR SBQV 301500Z 08004KT 9999 SCT025 28/18 Q1018;
0120833440999992009013016004-14950-040883FM-15+0914SBQV V0201201N003612200019N0112651N1+02701+01901999999ADDGA1041+007501999GF104991999999999999999999MA1101691999999REMMET051METAR SBQV 301600Z 12007KT 9999 SCT025 27/19 Q1017;
0120833440999992009013017004-14950-040883FM-15+0914SBQV V0201301N004612200019N0112651N1+02701+02001999999ADDGA1041+007501999GF104991999999999999999999MA1101691999999REMMET051METAR SBQV 301700Z 13009KT 9999 SCT025 27/20 Q1017;
0120833440999992009013018004-14950-040883FM-15+0914SBQV V0201301N004612200019N0112651N1+02801+01801999999ADDGA1021+007501999GF102991999999999999999999MA1101591999999REMMET051METAR SBQV 301800Z 13009KT 9999 FEW025 28/18 Q1016;
0120833440999992009013019004-14950-040883FM-15+0914SBQV V0201401N004112200019N0112651N1+02701+01901999999ADDGA1021+007501999GF102991999999999999999999MA1101691999999REMMET051METAR SBQV 301900Z 14008KT 9999 FEW025 27/19 Q1017;
0120833440999992009013020004-14950-040883FM-15+0914SBQV V0201401N004612200019N0112651N1+02601+01801999999ADDGA1021+006001999GF102991999999999999999999MA1101691999999REMMET051METAR SBQV 302000Z 14009KT 9999 FEW020 26/18 Q1017;
0120833440999992009013021004-14950-040883FM-15+0914SBQV V0201301N004112200019N0112651N1+02401+01801999999ADDGA1021+006001999GF102991999999999999999999MA1101591999999REMMET051METAR SBQV 302100Z 13008KT 9999 FEW020 24/18 Q1016;
0120833440999992009013022004-14950-040883FM-15+0914SBQV V0201301N003112200019N0112651N1+02201+01801999999ADDGA1021+004801999GF102991999999999999999999MA1101591999999REMMET051METAR SBQV 302200Z 13006KT 9999 FEW016 22/18 Q1016;
0120833440999992009013111004-14950-040883FM-15+0914SBQV V0200201N002612200019N0112651N1+02201+01901999999ADDGA1021+004501999GF102991999999999999999999MA1101901999999REMMET051METAR SBQV 311100Z 02005KT 9999 FEW015 22/19 Q1019;
0120833440999992009013112004-14950-040883FM-15+0914SBQV V0200201N001012200019N0112651N1+02501+01701999999ADDGA1021+006001999GF102991999999999999999999MA1101901999999REMMET051METAR SBQV 311200Z 02002KT 9999 FEW020 25/17 Q1019;
0120833440999992009013113004-14950-040883FM-15+0914SBQV V0200501N001512200019N0112651N1+02501+01801999999ADDGA1021+006001999GF102991999999999999999999MA1101901999999REMMET051METAR SBQV 311300Z 05003KT 9999 FEW020 25/18 Q1019;
0120833440999992009013114004-14950-040883FM-15+0914SBQV V0209999C000012200019N0112651N1+02601+01601999999ADDGA1041+007501999GF104991999999999999999999MA1101801999999REMMET051METAR SBQV 311400Z 00000KT 9999 SCT025 26/16 Q1018;
0120833440999992009013115004-14950-040883FM-15+0914SBQV V0202801N000512200019N0112651N1+02801+01901999999ADDGA1041+007501999GF104991999999999999999999MA1101801999999REMMET051METAR SBQV 311500Z 28001KT 9999 SCT025 28/19 Q1018;
0120833440999992009013116004-14950-040883FM-15+0914SBQV V0203001N000512200019N0112651N1+02701+01801999999ADDGA1041+007501999GF104991999999999999999999MA1101691999999REMMET051METAR SBQV 311600Z 30001KT 9999 SCT025 27/18 Q1017;
0120833440999992009013117004-14950-040883FM-15+0914SBQV V0200601N001012200019N0112651N1+02701+01601999999ADDGA1041+007501999GF104991999999999999999999MA1101591999999REMMET051METAR SBQV 311700Z 06002KT 9999 SCT025 27/16 Q1016;
0120833440999992009013118004-14950-040883FM-15+0914SBQV V0201701N002112200019N0112651N1+02701+01901999999ADDGA1041+007501999GF104991999999999999999999MA1101491999999REMMET051METAR SBQV 311800Z 17004KT 9999 SCT025 27/19 Q1015;
0120833440999992009013119004-14950-040883FM-15+0914SBQV V0201301N003612200019N0112651N1+02801+02001999999ADDGA1021+007501999GF102991999999999999999999MA1101491999999REMMET051METAR SBQV 311900Z 13007KT 9999 FEW025 28/20 Q1015;
0120833440999992009013120004-14950-040883FM-15+0914SBQV V0201201N004612200019N0112651N1+02701+01801999999ADDGA1021+007501999GF102991999999999999999999MA1101491999999REMMET051METAR SBQV 312000Z 12009KT 9999 FEW025 27/18 Q1015;
0120833440999992009013121004-14950-040883FM-15+0914SBQV V0201401N003612200019N0112651N1+02501+01801999999ADDGA1021+006001999GF102991999999999999999999MA1101491999999REMMET051METAR SBQV 312100Z 14007KT 9999 FEW020 25/18 Q1015;
0072833440999992009013122004-14950-040883FM-15+0914SBQV V0201201N00311220001CN0099001N1+02401+01801999999ADDMA1101491999999REMMET045METAR SBQV 312200Z 12006KT CAVOK 24/18 Q1015;
0120833440999992009020111004-14950-040883FM-15+0914SBQV V0209999C000012200019N0112651N1+02301+02001999999ADDGA1021+006001999GF102991999999999999999999MA1101801999999REMMET051METAR SBQV 011100Z 00000KT 9999 FEW020 23/20 Q1018;
0120833440999992009020112004-14950-040883FM-15+0914SBQV V0209999C000012200019N0112651N1+02401+01901999999ADDGA1041+007501999GF104991999999999999999999MA1101801999999REMMET051METAR SBQV 011200Z 00000KT 9999 SCT025 24/19 Q1018;
0120833440999992009020113004-14950-040883FM-15+0914SBQV V0200101N002110075019N0112651N1+02501+02001999999ADDGA1071+007501999GF107991999999999999999999MA1101801999999REMMET051METAR SBQV 011300Z 01004KT 9999 BKN025 25/20 Q1018;
0120833440999992009020114004-14950-040883FM-15+0914SBQV V0203201N002110090019N0112651N1+02701+02201999999ADDGA1071+009001999GF107991999999999999999999MA1101801999999REMMET051METAR SBQV 011400Z 32004KT 9999 BKN030 27/22 Q1018;
0120833440999992009020115004-14950-040883FM-15+0914SBQV V0200201N001510090019N0112651N1+02801+02001999999ADDGA1071+009001999GF107991999999999999999999MA1101691999999REMMET051METAR SBQV 011500Z 02003KT 9999 BKN030 28/20 Q1017;
0120833440999992009020116004-14950-040883FM-15+0914SBQV V0202901N002610090019N0112651N1+02701+02101999999ADDGA1071+009001999GF107991999999999999999999MA1101691999999REMMET051METAR SBQV 011600Z 29005KT 9999 BKN030 27/21 Q1017;
0139833440999992009020117004-14950-040883FM-15+0914SBQV V0202701N00101009001CN0112651N1+02701+02001999999ADDGA1071+009001999GA2021+010501021MA1101591999999REMMET061METAR SBQV 011700Z 27002KT 9999 BKN030 FEW035TCU 27/20 Q1016;EQDQ01+000022SCOTCV
0139833440999992009020118004-14950-040883FM-15+0914SBQV V0200401N00411007501CN0112651N1+02501+02301999999ADDGA1071+007501999GA2021+009001021MA1101591999999REMMET061METAR SBQV 011800Z 04008KT 9999 BKN025 FEW030TCU 25/23 Q1016;EQDQ01+000022SCOTCV
0120833440999992009020119004-14950-040883FM-15+0914SBQV V0200601N001512200019N0112651N1+02801+02101999999ADDGA1021+007501999GF102991999999999999999999MA1101491999999REMMET051METAR SBQV 011900Z 06003KT 9999 FEW025 28/21 Q1015;
0120833440999992009020120004-14950-040883FM-15+0914SBQV V0201101N002612200019N0112651N1+02601+02001999999ADDGA1041+007501999GF104991999999999999999999MA1101491999999REMMET051METAR SBQV 012000Z 11005KT 9999 SCT025 26/20 Q1015;
0120833440999992009020121004-14950-040883FM-15+0914SBQV V0201301N003112200019N0112651N1+02601+02001999999ADDGA1021+007501999GF102991999999999999999999MA1101491999999REMMET051METAR SBQV 012100Z 13006KT 9999 FEW025 26/20 Q1015;
0120833440999992009020122004-14950-040883FM-15+0914SBQV V0201001N002112200019N0112651N1+02401+02001999999ADDGA1021+006001999GF102991999999999999999999MA1101591999999REMMET051METAR SBQV 012200Z 10004KT 9999 FEW020 24/20 Q1016;
0120833440999992009020211004-14950-040883FM-15+0914SBQV V0200601N003110045019N0112651N1+02201+02001999999ADDGA1071+004501999GF107991999999999999999999MA1101901999999REMMET051METAR SBQV 021100Z 06006KT 9999 BKN015 22/20 Q1019;
0143833440999992009020212004-14950-040883FM-15+0914SBQV V0200801N003110060019N0112651N1+02401+02001999999ADDGA1041+004801999GA2071+006001999GF107991999999999999999999MA1101901999999REMMET058METAR SBQV 021200Z 08006KT 9999 SCT016 BKN020 24/20 Q1019;
0120833440999992009020213004-14950-040883FM-15+0914SBQV V0200901N002612200019N0112651N1+02501+02001999999ADDGA1041+006001999GF104991999999999999999999MA1101901999999REMMET051METAR SBQV 021300Z 09005KT 9999 SCT020 25/20 Q1019;
0120833440999992009020214004-14950-040883FM-15+0914SBQV V0200601N001510060019N0112651N1+02501+01801999999ADDGA1071+006001999GF107991999999999999999999MA1101901999999REMMET051METAR SBQV 021400Z 06003KT 9999 BKN020 25/18 Q1019;
0120833440999992009020215004-14950-040883FM-15+0914SBQV V0201101N002610060019N0112651N1+02501+01901999999ADDGA1071+006001999GF107991999999999999999999MA1101801999999REMMET051METAR SBQV 021500Z 11005KT 9999 BKN020 25/19 Q1018;
0120833440999992009020216004-14950-040883FM-15+0914SBQV V0201401N002610075019N0112651N1+02701+02101999999ADDGA1071+007501999GF107991999999999999999999MA1101691999999REMMET051METAR SBQV 021600Z 14005KT 9999 BKN025 27/21 Q1017;
0120833440999992009020217004-14950-040883FM-15+0914SBQV V0201501N002610075019N0112651N1+02701+01901999999ADDGA1071+007501999GF107991999999999999999999MA1101691999999REMMET051METAR SBQV 021700Z 15005KT 9999 BKN025 27/19 Q1017;
0120833440999992009020218004-14950-040883FM-15+0914SBQV V0201301N004612200019N0112651N1+02801+01901999999ADDGA1021+007501999GF102991999999999999999999MA1101491999999REMMET051METAR SBQV 021800Z 13009KT 9999 FEW025 28/19 Q1015;
0120833440999992009020219004-14950-040883FM-15+0914SBQV V0201401N004112200019N0112651N1+02701+01801999999ADDGA1021+007501999GF102991999999999999999999MA1101491999999REMMET051METAR SBQV 021900Z 14008KT 9999 FEW025 27/18 Q1015;
0120833440999992009020221004-14950-040883FM-15+0914SBQV V0201301N005112200019N0112651N1+02601+01701999999ADDGA1021+006001999GF102991999999999999999999MA1101491999999REMMET051METAR SBQV 022100Z 13010KT 9999 FEW020 26/17 Q1015;
0104833440999992009020222004-14950-040883FM-15+0914SBQV V0201101N005112200019N0112651N1+02301+02001999999ADDGA1021+004801999GF102991999999999999999999REMMET050METAR SBQV 022200Z 11010KT 9999 FEW016 23/20 Q101;
0143833440999992009020311004-14950-040883FM-15+0914SBQV V0200901N004110048019N0112651N1+02201+02001999999ADDGA1021+004501999GA2071+004801999GF107991999999999999999999MA1102001999999REMMET058METAR SBQV 031100Z 09008KT 9999 FEW015 BKN016 22/20 Q1020;
0120833440999992009020312004-14950-040883FM-15+0914SBQV V0200901N004610054019N0112651N1+02301+02001999999ADDGA1071+005401999GF107991999999999999999999MA1102101999999REMMET051METAR SBQV 031200Z 09009KT 9999 BKN018 23/20 Q1021;
0120833440999992009020313004-14950-040883FM-15+0914SBQV V0200701N003610054019N0112651N1+02401+02001999999ADDGA1071+005401999GF107991999999999999999999MA1102101999999REMMET051METAR SBQV 031300Z 07007KT 9999 BKN018 24/20 Q1021;
0120833440999992009020314004-14950-040883FM-15+0914SBQV V0200601N004110060019N0112651N1+02601+02001999999ADDGA1071+006001999GF107991999999999999999999MA1102101999999REMMET051METAR SBQV 031400Z 06008KT 9999 BKN020 26/20 Q1021;
0120833440999992009020315004-14950-040883FM-15+0914SBQV V0200601N003110060019N0112651N1+02701+02001999999ADDGA1071+006001999GF107991999999999999999999MA1102001999999REMMET051METAR SBQV 031500Z 06006KT 9999 BKN020 27/20 Q1020;
0120833440999992009020316004-14950-040883FM-15+0914SBQV V0201101N003110060019N0112651N1+02601+02001999999ADDGA1071+006001999GF107991999999999999999999MA1101901999999REMMET051METAR SBQV 031600Z 11006KT 9999 BKN020 26/20 Q1019;
0120833440999992009020317004-14950-040883FM-15+0914SBQV V0201301N003610060019N0112651N1+02601+02001999999ADDGA1071+006001999GF107991999999999999999999MA1101901999999REMMET051METAR SBQV 031700Z 13007KT 9999 BKN020 26/20 Q1019;
0130833440999992009020318004-14950-040883FM-15+0914SBQV V0200501N002110060019N0112651N1+02301+02101999999ADDGA1071+006001999GF107991999999999999999999MA1101801999999MW1611REMMET055METAR SBQV 031800Z 05004KT 9999 -RA BKN020 23/21 Q1018;
0120833440999992009020319004-14950-040883FM-15+0914SBQV V0200901N003612200019N0112651N1+02601+02001999999ADDGA1041+006001999GF104991999999999999999999MA1101801999999REMMET051METAR SBQV 031900Z 09007KT 9999 SCT020 26/20 Q1018;
0120833440999992009020320004-14950-040883FM-15+0914SBQV V0201301N004112200019N0112651N1+02701+01901999999ADDGA1041+006001999GF104991999999999999999999MA1101801999999REMMET051METAR SBQV 032000Z 13008KT 9999 SCT020 27/19 Q1018;
0072833440999992009020322004-14950-040883FM-15+0914SBQV V0201201N00261999999CY0099001N1+02301+02001999999ADDMA1101801999999REMMET045METAR SBQV 032200Z 12005KT CAVOK 23/20 Q1018;
0120833440999992009020402004-14950-040883FM-15+0914SBQV V0201001N004112200019N0112651N1+02101+02001999999ADDGA1021+003901999GF102991999999999999999999MA1102001999999REMMET051METAR SBQV 040200Z 10008KT 9999 FEW013 21/20 Q1020;
0120833440999992009020403004-14950-040883FM-15+0914SBQV V0201001N004112200019N0112651N1+02001+02001999999ADDGA1021+003301999GF102991999999999999999999MA1102001999999REMMET051METAR SBQV 040300Z 10008KT 9999 FEW011 20/20 Q1020;
0072833440999992009020404004-14950-040883FM-15+0914SBQV V0201001N00411999999CY0099001N1+02001+01901999999ADDMA1101901999999REMMET045METAR SBQV 040400Z 10008KT CAVOK 20/19 Q1019;
0072833440999992009020405004-14950-040883FM-15+0914SBQV V0200901N00411999999CY0099001N1+02001+01901999999ADDMA1101901999999REMMET045METAR SBQV 040500Z 09008KT CAVOK 20/19 Q1019;
0120833440999992009020411004-14950-040883FM-15+0914SBQV V0201101N002612200019N0112651N1+02201+02001999999ADDGA1041+004501999GF104991999999999999999999MA1102101999999REMMET051METAR SBQV 041100Z 11005KT 9999 SCT015 22/20 Q1021;
0120833440999992009020412004-14950-040883FM-15+0914SBQV V0201001N003110048019N0112651N1+02301+02001999999ADDGA1071+004801999GF107991999999999999999999MA1102101999999REMMET051METAR SBQV 041200Z 10006KT 9999 BKN016 23/20 Q1021;
0120833440999992009020413004-14950-040883FM-15+0914SBQV V0201001N003110060019N0112651N1+02401+02001999999ADDGA1071+006001999GF107991999999999999999999MA1102101999999REMMET051METAR SBQV 041300Z 10006KT 9999 BKN020 24/20 Q1021;
0120833440999992009020414004-14950-040883FM-15+0914SBQV V0201101N002610075019N0112651N1+02601+02101999999ADDGA1071+007501999GF107991999999999999999999MA1102001999999REMMET051METAR SBQV 041400Z 11005KT 9999 BKN025 26/21 Q1020;
0120833440999992009020415004-14950-040883FM-15+0914SBQV V0201301N003610075019N0112651N1+02501+02101999999ADDGA1071+007501999GF107991999999999999999999MA1102001999999REMMET051METAR SBQV 041500Z 13007KT 9999 BKN025 25/21 Q1020;
