0140821980999991995010212004-01717-045400FM-12+004499999V0200901N004119999999N0100001N1+02801+02481100971ADDAA124006091AG10000GF105991999051017501001001KA1240N+02401MA1999999100461MD1999999+0011REMSYN023 333 20240 58001 60064;EQDQ01+000022SCOTLC
0115821980999991995010312004-01717-045400FM-12+004499999V0200501N00211045001CN0100001N1+02741+02541100981ADDAA106000091AG10000GF108991021021017501031001KA1240N+02451MA1999999100471MD1999999+0011REMSYN017 333 20245 58001;
0096821980999991995010318004-01717-045400FM-12+004499999V0200901N00571045001CN0100001N1+03021+02481100791ADDAA106000091AG10000GF105991031051017501061001MA1999999100281MD1999999+0001REMSYN011 333 58000;
0115821980999991995010412004-01717-045400FM-12+004499999V0200901N00511045001CN0100001N1+02641+02461100981ADDAA106000091AG10000GF106991031021017501031081KA1240N+02411MA1999999100471MD1999999+0001REMSYN017 333 20241 58000;
0096821980999991995010418004-01717-045400FM-12+004499999V0200501N00461045001CN0100001N1+03121+02461100831ADDAA106000091AG10000GF106991041021017501061001MA1999999100321MD1999999+0041REMSYN011 333 58004;
0115821980999991995010512004-01717-045400FM-12+004499999V0200901N00411220001CN0100001N1+02821+02481101041ADDAA106000091AG10000GF104991021021017501061011KA1240N+02401MA1999999100531MD1999999+0061REMSYN017 333 20240 58006;
0124821980999991995010518004-01717-045400FM-12+004499999V0200501N00511045001CN0100001N1+02701+02541100781ADDAA106038091AG10006AY161061AY221061GF108991041021017501061001MA1999999100261MD1999999-0061MW1021REMSYN017 333 59006 60381;
0132821980999991995010612004-01717-045400FM-12+004499999V0202301N00211015001CN0100001N1+02461+02391101161ADDAA106000091AA224048091AG10000GF108991051051017501041001KA1240N+02301MA1999999100641MD1999999+0111REMSYN023 333 20230 58011 60484;
0096821980999991995010618004-01717-045400FM-12+004499999V0201801N003110450019N0100001N1+02741+02501100941ADDAA106000091AG10000GF108991041071017501011001MA1999999100431MD1999999+0171REMSYN011 333 58017;
0115821980999991995010712004-01717-045400FM-12+004499999V0201801N00211220001CN0100001N1+02581+02441101121ADDAA106000091AG10000GF104991041001017501031001KA1240N+02141MA1999999100611MD1999999-0031REMSYN017 333 20214 59003;
0143821980999991995010812004-01717-045400FM-12+004499999V0200501N00211045001CN0100001N1+02461+02411100921ADDAA124014091AG10006AY161061AY221061GF108991041051017501041001KA1240N+02231MA1999999100401MD1999999-0211MW1021REMSYN023 333 20223 59021 60144;
0121821980999991995010912004-01717-045400FM-12+004499999V0201801N00261045001CN0100001N1+02461+02371101061ADDAA124022091AG10000GF107991041021017501061001KA1240N+02231MA1999999100551MD1999999+0151REMSYN023 333 20223 58015 60224;
0096821980999991995010918004-01717-045400FM-12+004499999V0200901N00051045001CN0100001N1+02741+02501100811ADDAA106000091AG10000GF108991031021017501041001MA1999999100301MD1999999-0011REMSYN011 333 59001;
0096821980999991995011018004-01717-045400FM-12+004499999V0200501N00311045001CN0100001N1+02901+02371100841ADDAA106000091AG10000GF108991041021017501061001MA1999999100331MD1999999+0031REMSYN011 333 58003;
0121821980999991995011112004-01717-045400FM-12+004499999V0200901N00211045001CN0100001N1+02711+01371101051ADDAA124000191AG10006GF107991041021017501061001KA1240N+02381MA1999999100531MD1999999-0161REMSYN023 333 20238 59016 69914;
0096821980999991995011118004-01717-045400FM-12+004499999V0200501N00571015001CN0100001N1+02941+02381100731ADDAA106000091AG10000GF108991051021017501061001MA1999999100221MD1999999-0111REMSYN011 333 59011;
0124821980999991995011218004-01717-045400FM-12+004499999V0203601N00151045001CN0100001N1+02581+02491100831ADDAA106003091AG10006AY161061AY221061GF108991041051017501061001MA1999999100321MD1999999+0101MW1021REMSYN017 333 58010 60031;
0124821980999991995011318004-01717-045400FM-12+004499999V0200901N00571045001CN0100001N1+02901+02341100691ADDAA106001091AG10001AY151061AY221061GF105991031021017501061001MA1999999100181MD1999999-0141MW1021REMSYN017 333 59014 69971;
0096821980999991995011418004-01717-045400FM-12+004499999V0200501N00461045001CN0100001N1+02801+02291100881ADDAA106000091AG10000GF106991031021017501061001MA1999999100371MD1999999+0191REMSYN011 333 58019;
0047821980999991995011618004-01717-045400FM-12+004499999V0200501N004619999999N0100001N1+02941+02301999999ADDAA106000091AG10000GF105991999999017501999999
0115821980999991995011712004-01717-045400FM-12+004499999V0200901N00261015001CN0100001N1+02771+02421101151ADDAA106000091AG10000GF105991051021017501001001KA1240N+02411MA1999999100631MD1999999+0061REMSYN017 333 20241 58006;
0096821980999991995011718004-01717-045400FM-12+004499999V0200501N00621220001CN0100001N1+02941+02381100891ADDAA106000091AG10000GF104991041021017501001001MA1999999100381MD1999999+0021REMSYN011 333 58002;
0115821980999991995011800004-01717-045400FM-12+004499999V0200501N004619999999N0100001N1+02511+02341100961ADDAA106000091AG10000GF105991051001017501001011KA1240M+03031MA1999999100441MD1999999-0091REMSYN017 333 10303 59009;
0115821980999991995011812004-01717-045400FM-12+004499999V0200501N00261015001CN0100001N1+02761+02361101121ADDAA106000091AG10000GF106991061021017501001001KA1240N+02451MA1999999100601MD1999999-0031REMSYN017 333 20245 59003;
0096821980999991995011818004-01717-045400FM-12+004499999V0200501N00461015001CN0100001N1+02961+02451100761ADDAA106000091AG10000GF106991061021017501001001MA1999999100251MD1999999-0121REMSYN011 333 59012;
0096821980999991995011918004-01717-045400FM-12+004499999V0200901N00671015001CN0100001N1+03121+02321100811ADDAA106000091AG10000GF105991051021017501001001MA1999999100301MD1999999+0051REMSYN011 333 58005;
0131821980999991995012100004-01717-045400FM-12+004499999V0200901N00311220001CN0100001N1+02621+02421101031ADDAA106000091AG10000GA1001+999999999GF100991001001999999001001KA1240M+03211MA1999999100521MD1999999-0021REMSYN017 333 10321 59002;
0115821980999991995012112004-01717-045400FM-12+004499999V0200901N00411015001CN0100001N1+02771+02461101151ADDAA106000091AG10000GF105991051021017501001001KA1240N+02471MA1999999100631MD1999999-0011REMSYN017 333 20247 59001;
0096821980999991995012318004-01717-045400FM-12+004499999V0200501N00511015001CN0100001N1+02961+02471100761ADDAA106000091AG10000GF105991051021017501001001MA1999999100251MD1999999+0041REMSYN011 333 58004;
0096821980999991995012418004-01717-045400FM-12+004499999V0200501N00511220001CN0100001N1+03161+02291100791ADDAA106000091AG10000GF103991031021017501001001MA1999999100281MD1999999+0031REMSYN011 333 58003;
0115821980999991995012600004-01717-045400FM-12+004499999V0200501N00411220001CN0100001N1+02621+02421100881ADDAA106000091AG10000GF103991031011017501001001KA1240M+03101MA1999999100371MD1999999-0041REMSYN017 333 10310 59004;
0115821980999991995012612004-01717-045400FM-12+004499999V0200901N00211220001CN0100001N1+02821+02481100951ADDAA106000091AG10000GF106991031021004501001011KA1240N+02311MA1999999100441MD1999999-0091REMSYN017 333 20231 59009;
0096821980999991995012618004-01717-045400FM-12+004499999V0200501N00511220001CN0100001N1+02981+02371100751ADDAA106000091AG10000GF105991041021017501001011MA1999999100241MD1999999-0071REMSYN011 333 59007;
0115821980999991995012712004-01717-045400FM-12+004499999V0200501N00411045001CN0100001N1+02831+02421101041ADDAA106000091AG10000GF106991031021017501041011KA1240N+02491MA1999999100531MD1999999+0091REMSYN017 333 20249 58009;
0096821980999991995012818004-01717-045400FM-12+004499999V0200501N00771045001CN0100001N1+02891+02481100781ADDAA106000091AG10000GF108991041021017501061001MA1999999100261MD1999999-0011REMSYN011 333 59001;
0121821980999991995013012004-01717-045400FM-12+004499999V0201401N00151045001CN0100001N1+02591+02441101031ADDAA124023091AG10000GF107991031051017501041011KA1240N+02321MA1999999100521MD1999999-0061REMSYN023 333 20232 59006 60234;
0124821980999991995013018004-01717-045400FM-12+004499999V0201401N00101045001CN0100001N1+02551+02471100741ADDAA106020091AG10006AY161061AY221061GF108991041051017501041001MA1999999100231MD1999999-0171MW1021REMSYN017 333 59017 60201;
0124821980999991995013118004-01717-045400FM-12+004499999V0200501N00721045001CN0100001N1+02991+02421100651ADDAA106005091AG10006AY161061AY221061GF106991041021017501061001MA1999999100141MD1999999-0091MW1021REMSYN017 333 59009 60051;
0085821980999991995020118004-01717-045400FM-12+004499999V0200501N00671015001CN0100001N1+02941+02381100791ADDAG10000GF105991051021017501001001MA1999999100281MD1999999+0141REMSYN011 333 58014;
0131821980999991995020200004-01717-045400FM-12+004499999V0200501N00411220001CN0100001N1+02581+02381100941ADDAA106000091AG10000GA1001+999999999GF100991001001999999001001KA1240M+03031MA1999999100421MD1999999+0111REMSYN017 333 10303 58011;
0143821980999991995020212004-01717-045400FM-12+004499999V0200501N00621045001CN0100001N1+02451+02301101061ADDAA124007091AG10006AY161061AY201061GF107991031051017501041001KA1240N+02331MA1999999100541MD1999999-0041MW1031REMSYN023 333 20233 59004 60074;
0124821980999991995020218004-01717-045400FM-12+004499999V0203601N00361045001CN0100001N1+02581+02481100741ADDAA199001091AG10006AY161061AY221061GF108991031071017501011001MA1999999100231MD1999999-0051MW1021REMSYN017 333 59005 60010;
0143821980999991995020312004-01717-045400FM-12+004499999V0200901N00311015001CN0040001N1+02361+02111101201ADDAA124090091AG10006AY161061AY261061GF108991061071017501021999KA1240N+02171MA1999999100681MD1999999+0141MW1631REMSYN023 333 20217 58014 60904;
0143821980999991995020412004-01717-045400FM-12+004499999V0202301N00151015001CN0100001N1+02451+02371101221ADDAA124021091AG10006AY161061AY221061GF108991051021017501011001KA1240N+02191MA1999999100701MD1999999+0021MW1021REMSYN023 333 20219 58002 60214;
0115821980999991995020418004-01717-045400FM-12+004499999V0203601N00361015001CN0100001N1+02621+02501100971ADDAA106000091AG10000GF108991999021017501001001MA1999999100461MD1999999+0001REMSYN011 333 58000;EQDQ01+000052SCOTLC
0124821980999991995020518004-01717-045400FM-12+004499999V0203201N00311015001CN0100001N1+02421+02371101111ADDAA106003091AG10006AY161061AY221061GF108991051051017501021001MA1999999100591MD1999999+0131MW1021REMSYN017 333 58013 60031;
0143821980999991995020612004-01717-045400FM-12+004499999V0203201N00051045001CN0100001N1+02561+02471101371ADDAA124008091AG10006AY161061AY221061GF106991021021017501041011KA1240N+02241MA1999999100851MD1999999+0051MW1011REMSYN023 333 20224 58005 60084;
0124821980999991995020618004-01717-045400FM-12+004499999V0200501N00511045001CN0100001N1+02641+02551101091ADDAA106001091AG10001AY151061AY221061GF108991031021017501041001MA1999999100571MD1999999-0021MW1021REMSYN017 333 59002 69981;
0115821980999991995020800004-01717-045400FM-12+004499999V0200501N00311220001CN0100001N1+02501+02431101261ADDAA106000091AG10000GF103991031061017501001001KA1240M+02931MA1999999100751MD1999999+0051REMSYN017 333 10293 58005;
0143821980999991995020812004-01717-045400FM-12+004499999V0200501N00361220001CN0100001N1+02711+02651101321ADDAA124001091AG10006AY161061AY211061GF106991031021017501001011KA1240N+02381MA1999999100801MD1999999-0071MW1031REMSYN023 333 20238 59007 69974;
0124821980999991995020818004-01717-045400FM-12+004499999V0200501N00721045001CN0100001N1+02821+02641101051ADDAA106002091AG10006AY161061AY221061GF106991041021017501061001MA1999999100541MD1999999-0121MW1021REMSYN017 333 59012 60021;
0115821980999991995020900004-01717-045400FM-12+004499999V0200501N00461220001CN0100001N1+02651+02461100831ADDAA106000091AG10000GF103991031011017501001001KA1240M+03011MA1999999100311MD1999999-0441REMSYN017 333 10301 59044;
0143821980999991995020912004-01717-045400FM-12+004499999V0203601N00461015001CN0100001N1+02411+02371101531ADDAA124015091AG10006AY161061AY211061GF108991061051017501011001KA1240N+02221MA1999999101011MD1999999+0211MW1011REMSYN023 333 20222 58021 60154;
0124821980999991995020918004-01717-045400FM-12+004499999V0200501N00361045001CN0200001N1+02721+02611101251ADDAA106014091AG10006AY161061AY221061GF108991041051017501021001MA1999999100731MD1999999+0191MW1521REMSYN017 333 58019 60141;
0121821980999991995021012004-01717-045400FM-12+004499999V0200501N00411045001CN0100001N1+02781+02621101371ADDAA124004091AG10000GF106991031021017501041011KA1240N+02221MA1999999100851MD1999999-0161REMSYN023 333 20222 59016 60044;
0137821980999991995021112004-01717-045400FM-12+004499999V0201401N00051220001CN0100001N1+02561+02531101271ADDAA124011091AG10000GA1001+999999999GF100991001001999999001001KA1240N+02251MA1999999100751MD1999999-0101REMSYN023 333 20225 59010 60114;
0124821980999991995021118004-01717-045400FM-12+004499999V0201401N00211015001CN0040001N1+02461+02431101041ADDAA106037091AG10006AY161061AY221061GF108991081001017501021001MA1999999100521MD1999999-0141MW1621REMSYN017 333 59014 60371;
0121821980999991995021312004-01717-045400FM-12+004499999V0200501N00151045001CN0100001N1+02411+02351101271ADDAA124027091AG10000GF108991041051017501011001KA1240N+02181MA1999999100751MD1999999+0071REMSYN023 333 20218 58007 60274;
0124821980999991995021318004-01717-045400FM-12+004499999V0200501N00361045001CN0100001N1+02521+02381100961ADDAA106008091AG10006AY161061AY251061GF108991021051017501021001MA1999999100441MD1999999-0121MW1621REMSYN017 333 59012 60081;
0121821980999991995021412004-01717-045400FM-12+004499999V0200501N00511045001CN0100001N1+02751+02641101181ADDAA124010091AG10000GF106991031021017501041011KA1240N+02321MA1999999100661MD1999999-0091REMSYN023 333 20232 59009 60104;
0124821980999991995021418004-01717-045400FM-12+004499999V0200501N00571045001CN0100001N1+02721+02521100881ADDAA106008091AG10006AY161061AY221061GF108991021021017501041001MA1999999100371MD1999999-0071MW1021REMSYN017 333 59007 60081;
0096821980999991995021518004-01717-045400FM-12+004499999V0200501N00571045001CN0100001N1+02911+02501100941ADDAA106000091AG10000GF106991031021017501051011MA1999999100431MD1999999+0061REMSYN011 333 58006;
0115821980999991995021612004-01717-045400FM-12+004499999V0200501N00311045001CN0100001N1+02681+02631101081ADDAA106000091AG10000GF106991031021017501041011KA1240N+02341MA1999999100561MD1999999-0121REMSYN017 333 20234 59012;
0115821980999991995021618004-01717-045400FM-12+004499999V0201501N00511045001CN0100001N1+03001+02621100791ADDAA106000091AG10000GF106991031021017501061001MA1999999100281MD1999999-0151REMSYN011 333 59015;EQDQ01+999990APOSP 
0115821980999991995022112004-01717-045400FM-12+004499999V0201801N00361015001CN0100001N1+02441+02371100941ADDAA106000091AG10000GF108991051071017501021001KA1240N+02211MA1999999100421MD1999999-0011REMSYN017 333 20221 59001;
0124821980999991995022118004-01717-045400FM-12+004499999V0203301N00051015001CN0100001N1+02541+02511100681ADDAA106009091AG10006AY161061AY221061GF108991051071017501011001MA1999999100161MD1999999+0031MW1021REMSYN017 333 58003 60091;
0096821980999991995022218004-01717-045400FM-12+004499999V0200501N00461015001CN0100001N1+03061+02671100641ADDAA106000091AG10000GF105991051021017501001001MA1999999100131MD1999999-0031REMSYN011 333 59003;
0130821980999991995022312004-01717-045400FM-12+004499999V0201801N00151045001CN0100001N1+02441+02381101201ADDAA124002091AG10006AY161061AY221061GF108991041011017501011011MA1999999100581MD1999999+0001MW1031REMSYN023 333 50220 58000 60024;
0124821980999991995022318004-01717-045400FM-12+004499999V0201401N00261045001CN0100001N1+02881+02721100661ADDAA106004091AG10006AY161061AY221061GF108991021021017501041001MA1999999100141MD1999999+0011MW1021REMSYN017 333 58001 60041;
0132821980999991995022412004-01717-045400FM-12+004499999V0203201N00051045001CN0100001N1+02651+02631101021ADDAA106000091AA224002091AG10000GF105991031021017501041011KA1240N+02261MA1999999100501MD1999999+0021REMSYN023 333 20226 58002 60024;
0115821980999991995022512004-01717-045400FM-12+004499999V0200501N00311220001CN0100001N1+02861+02781101091ADDAA106000091AG10000GF106991041021017501001011KA1240N+02221MA1999999100571MD1999999+0071REMSYN017 333 20222 58007;
0115821980999991995022612004-01717-045400FM-12+004499999V0202301N00211015001CN0100001N1+02481+02481101321ADDAA106000091AG10000GF108991061071017501021001KA1240N+02211MA1999999100801MD1999999+0231REMSYN017 333 20221 58023;
0143821980999991995022712004-01717-045400FM-12+004499999V0201801N00151045001CN0100001N1+02591+02581101051ADDAA124004091AG10006AY161061AY221061GF107991031021017501041091KA1240N+02251MA1999999100531MD1999999-0271MW1031REMSYN023 333 20225 59027 60044;
0143821980999991995022812004-01717-045400FM-12+004499999V0200501N00211045001CN0100001N1+02831+02691101041ADDAA124000591AG10006AY161061AY201061GF106991031021017501041041KA1240N+02351MA1999999100521MD1999999-0011MW1031REMSYN023 333 20235 59001 69944;
0096821980999991995030118004-01717-045400FM-12+004499999V0200501N00411045001CN0100001N1+02571+02431100961ADDAA106000091AG10000GF108991031021017501061001MA1999999100441MD1999999-0021REMSYN011 333 59002;
0115821980999991995030212004-01717-045400FM-12+004499999V0200901N003610450019N0100001N1+02711+02521100971ADDAA106000091AG10000GF106991021021017501041999KA1240N+02301MA1999999100451MD1999999-0301REMSYN017 333 20230 59030;
0124821980999991995030218004-01717-045400FM-12+004499999V0200501N00461045001CN0100001N1+02681+02541100841ADDAA106011091AG10006AY161061AY221061GF108991041021017501061001MA1999999100321MD1999999-0121MW1021REMSYN017 333 59012 60111;
0096821980999991995030318004-01717-045400FM-12+004499999V0200501N00621015001CN0100001N1+99999+99999100721ADDAA106000091AG10000GF105991051021017501001001MA1999999100211MD1999999-0111REMSYN011 333 59011;
0115821980999991995030412004-01717-045400FM-12+004499999V0200501N00311045001CN0100001N1+02711+02631101081ADDAA106000091AG10000GF106991031021017501041041KA1240N+02381MA1999999100561MD1999999+0011REMSYN017 333 20238 58001;
0096821980999991995030418004-01717-045400FM-12+004499999V0200501N00621220001CN0100001N1+03021+02701100691ADDAA106000091AG10000GF104991021021017501001021MA1999999100181MD1999999-0031REMSYN011 333 59003;
0124821980999991995030618004-01717-045400FM-12+004499999V0200501N00411045001CN0100001N1+02931+02721100731ADDAA106001091AG10006AY161061AY221061GF105991031021017501061001MA1999999100221MD1999999-0011MW1021REMSYN017 333 59001 60011;
0124821980999991995030718004-01717-045400FM-12+004499999V0201401N00151045001CN0100001N1+03541+02491100651ADDAA106010091AG10006AY161061AY221061GF108991031051017501061001MA1999999100141MD1999999+0081MW1021REMSYN017 333 58008 60101;
0143821980999991995030812004-01717-045400FM-12+004499999V0200501N00101045001CN0100001N1+02661+02611100961ADDAA124016091AG10006AY161061AY221061GF106991031021017501041061KA1240N+02231MA1999999100441MD1999999-0061MW1011REMSYN023 333 20223 59006 60164;
0124821980999991995030818004-01717-045400FM-12+004499999V0200501N00361045001CN0100001N1+02811+02751100641ADDAA106007091AG10006AY161061AY291061GF108991041051017501061001MA1999999100121MD1999999-0021MW1021REMSYN017 333 59002 60071;
0124821980999991995030918004-01717-045400FM-12+004499999V0203601N00051045001CN0100001N1+02681+02641100721ADDAA106016091AG10006AY161061AY221061GF108991031021017501041001MA1999999100201MD1999999+0081MW1021REMSYN017 333 58008 60161;
0124821980999991995031018004-01717-045400FM-12+004499999V0200901N00361045001CN0100001N1+02861+02641100781ADDAA106002091AG10006AY161061AY221061GF106991031021017501061001MA1999999100261MD1999999+0061MW1021REMSYN017 333 58006 60021;
0121821980999991995031112004-01717-045400FM-12+004499999V0200901N00311045001CN0100001N1+02861+02681101001ADDAA124002091AG10000GF106991031021017501041061KA1240N+02261MA1999999100481MD1999999-0091REMSYN023 333 20226 59009 60024;
0124821980999991995031118004-01717-045400FM-12+004499999V0201801N00411045001CN0100001N1+02521+02431100681ADDAA106017091AG10006AY161061AY221061GF108991041051017501041001MA1999999100161MD1999999-0101MW1021REMSYN017 333 59010 60171;
0124821980999991995031318004-01717-045400FM-12+004499999V0200501N00311045001CN0100001N1+02741+02691100531ADDAA106011091AG10006AY161061AY291061GF108991041021017501041001MA1999999100011MD1999999-0091MW1021REMSYN017 333 59009 60111;
0115821980999991995031700004-01717-045400FM-12+004499999V0200901N00101045001CN0100001N1+02531+02451100941ADDAA106000091AG10000GF105991021011017501031001KA1240M+02971MA1999999100421MD1999999+0051REMSYN017 333 10297 58005;
0115821980999991995031712004-01717-045400FM-12+004499999V0200901N00211045001CN0100001N1+02691+02571101151ADDAA106000091AG10000GF107991021051017501061001KA1240N+02331MA1999999100631MD1999999+0131REMSYN017 333 20233 58013;
0096821980999991995031718004-01717-045400FM-12+004499999V0200501N00511045001CN0100001N1+02961+02631100871ADDAA106000091AG10000GF105991031021017501061001MA1999999100361MD1999999+0041REMSYN011 333 58004;
0143821980999991995031812004-01717-045400FM-12+004499999V0203601N00151045001CN0100001N1+02551+99999101241ADDAA124005091AG10006AY161061AY221061GF108991041051017501041001KA1240N+02361MA1999999100721MD1999999+0091MW1031REMSYN023 333 20236 58009 60054;
0096821980999991995031818004-01717-045400FM-12+004499999V0200501N00571220001CN0100001N1+03021+02741100791ADDAA106000091AG10000GF104991021021017501001021MA1999999100281MD1999999-0081REMSYN011 333 59008;
0132821980999991995032112004-01717-045400FM-12+004499999V0200501N003110450019N0100001N1+02681+02651101151ADDAA106000091AA224006091AG10006GF106991021051017501041011KA1240N+02371MA1999999100631MD1999999-0071REMSYN023 333 20237 59007 60064;
0124821980999991995032218004-01717-045400FM-12+004499999V0200501N00411045001CN0100001N1+02991+02761100541ADDAA106004091AG10006AY161061AY291061GF106991031021017501041001MA1999999100031MD1999999-0291MW1021REMSYN017 333 59029 60041;
0121821980999991995032312004-01717-045400FM-12+004499999V0200501N00361220001CN0100001N1+02871+02731100901ADDAA124004091AG10000GF104991021021017501041001KA1240N+02401MA1999999100381MD1999999-0071REMSYN023 333 20240 59007 60044;
0143821980999991995032412004-01717-045400FM-12+004499999V0203201N00151015001CN0100001N1+02611+02591100951ADDAA124014091AG10006AY161061AY221061GF107991051071017501021001KA1240N+02231MA1999999100431MD1999999+0051MW1031REMSYN023 333 20223 58005 60144;
0124821980999991995032418004-01717-045400FM-12+004499999V0203601N00261045001CN0100001N1+02711+02581100581ADDAA106005091AG10006AY161061AY291061GF108991041021017501041001MA1999999100061MD1999999+0021MW1021REMSYN017 333 58002 60051;
0143821980999991995032512004-01717-045400FM-12+004499999V0202701N00151015001CN0100001N1+02431+02431101121ADDAA124006091AG10006AY161061AY221061GF108991051051017501021001KA1240N+02301MA1999999100601MD1999999+0171MW1021REMSYN023 333 20230 58017 60064;
0124821980999991995032718004-01717-045400FM-12+004499999V0203601N00211045001CN0100001N1+02551+02491100641ADDAA106013091AG10006AY161061AY221061GF108991041071017501041001MA1999999100121MD1999999-0101MW1021REMSYN017 333 59010 60131;
0121821980999991995032812004-01717-045400FM-12+004499999V0200501N00311015001CN0100001N1+02451+02371100961ADDAA124013091AG10000GF108991061071017501021001KA1240N+02221MA1999999100441MD1999999-0041REMSYN023 333 20222 59004 60134;
0124821980999991995032818004-01717-045400FM-12+004499999V0200901N00211045001CN0100001N1+02711+02631100631ADDAA106002091AG10006AY161061AY221061GF108991041021017501061001MA1999999100121MD1999999+0001MW1021REMSYN017 333 58000 60021;
0121821980999991995032912004-01717-045400FM-12+004499999V0200501N00361045001CN0100001N1+02531+02451100961ADDAA124002091AG10000GF108991041051017501011001KA1240N+02211MA1999999100441MD1999999+0001REMSYN023 333 20221 58000 60024;
0121821980999991995033012004-01717-045400FM-12+004499999V0209991C00001015001CN0100001N1+02611+02551100951ADDAA124028091AG10000GF105991051021017501001001KA1240N+02301MA1999999100431MD1999999-0011REMSYN023 333 20230 59001 60284;
0124821980999991995033018004-01717-045400FM-12+004499999V0200501N00411045001CN0100001N1+02671+02581100701ADDAA106001091AG10001AY151061AY221061GF108991041051017501021001MA1999999100181MD1999999-0021MW1021REMSYN017 333 59002 69981;
0143821980999991995033112004-01717-045400FM-12+004499999V0200501N00361015001CN0100001N1+02641+02571100891ADDAA124002091AG10006AY161061AY221061GF106991061021017501001001KA1240N+02301MA1999999100371MD1999999+0061MW1021REMSYN023 333 20230 58006 60024;
0124821980999991995033118004-01717-045400FM-12+004499999V0200501N00211045001CN0100001N1+02801+02691100581ADDAA106010091AG10006AY161061AY221061GF108991041021017501041001MA1999999100061MD1999999-0121MW1021REMSYN017 333 59012 60101;
0124821980999991995040118004-01717-045400FM-12+004499999V0200501N00511015001CN0100001N1+02741+02671100681ADDAA106008091AG10006AY161061AY221061GF108991051051017501041001MA1999999100161MD1999999+0101MW1021REMSYN017 333 58010 60081;
0115821980999991995040200004-01717-045400FM-12+004499999V0200501N00511045001CN0100001N1+02481+02461100891ADDAA106000091AG10000GF108991031051017501041001KA1240M+02781MA1999999100371MD1999999+0111REMSYN017 333 10278 58011;
0143821980999991995040212004-01717-045400FM-12+004499999V0201801N00311015001CN0100001N1+02491+02481101181ADDAA124015091AG10006AY161061AY221061GF108991051071017501021001KA1240N+01841MA1999999100601MD1999999+0131MW1021REMSYN023 333 20184 58013 60154;
0124821980999991995040218004-01717-045400FM-12+004499999V0200901N00261045001CN0100001N1+02601+02551100831ADDAA106017091AG10006AY161061AY221061GF108991031071017501041001MA1999999100321MD1999999+0161MW1021REMSYN017 333 58016 60171;
0121821980999991995040312004-01717-045400FM-12+004499999V0200501N00311045001CN0100001N1+02661+02571100941ADDAA124017091AG10000GF106991041021017501061001KA1240N+02171MA1999999100421MD1999999-0241REMSYN023 333 20217 59024 60174;
0115821980999991995040412004-01717-045400FM-12+004499999V0200501N00411045001CN0100001N1+02771+02731100901ADDAA106000091AG10000GF106991031021017501041001KA1240N+02331MA1999999100381MD1999999-0041REMSYN017 333 20233 59004;
0124821980999991995040418004-01717-045400FM-12+004499999V0200501N00571045001CN0100001N1+02581+02511100641ADDAA106020091AG10006AY161061AY221061GF108991031051017501041001MA1999999100121MD1999999-0041MW1021REMSYN017 333 59004 60201;
0143821980999991995040512004-01717-045400FM-12+004499999V0200501N00311015001CN0100001N1+02481+02431100981ADDAA124024091AG10006AY161061AY221061GF108991061071017501021001KA1240N+02331MA1999999100461MD1999999+0081MW1031REMSYN023 333 20233 58008 60244;
0124821980999991995041218004-01717-045400FM-12+004499999V0200501N00051015001CN0100001N1+02621+02571100681ADDAA106010091AG10006AY161061AY221061GF108991051051017501021001MA1999999100161MD1999999+0041MW1021REMSYN017 333 58004 60101;
0124821980999991995041318004-01717-045400FM-12+004499999V0200901N00211045001CN0100001N1+02711+02631100541ADDAA106012091AG10006AY161061AY221061GF107991041021017501061001MA1999999100021MD1999999-0141MW1021REMSYN017 333 59014 60121;
0115821980999991995041400004-01717-045400FM-12+004499999V0200901N00211015001CN0100001N1+02521+02491100741ADDAA106000091AG10000GF106991061021017501001001KA1240M+02981MA1999999100201MD1999999-0161REMSYN017 333 10298 59016;
0143821980999991995041412004-01717-045400FM-12+004499999V0203201N00051045001CN0100001N1+02531+02481100981ADDAA124014091AG10006AY161061AY221061GF106991031021017501061001KA1240N+02301MA1999999100461MD1999999-0011MW1021REMSYN023 333 20230 59001 60144;
0096821980999991995041818004-01717-045400FM-12+004499999V0200501N00461045001CN0100001N1+02721+02631100531ADDAA106000091AG10000GF106991041021017501061001MA1999999100021MD1999999-0041REMSYN011 333 59004;
0096821980999991995041918004-01717-045400FM-12+004499999V0201401N00311045001CN0100001N1+02701+02591100741ADDAA106000091AG10000GF108991031021017501061001MA1999999100231MD1999999+0211REMSYN011 333 58021;
0115821980999991995042012004-01717-045400FM-12+004499999V0201401N00361015001CN0100001N1+02631+02551101101ADDAA106000091AG10000GF105991051021017501001001KA1240N+02311MA1999999100581MD1999999+0101REMSYN017 333 20231 58010;
0124821980999991995042018004-01717-045400FM-12+004499999V0200501N00461015001CN0100001N1+02541+02491100691ADDAA106032091AG10006AY161061AY291061GF108991051051017501041001MA1999999100171MD1999999-0061MW1021REMSYN017 333 59006 60321;
0124821980999991995042118004-01717-045400FM-12+004499999V0200501N00671045001CN0100001N1+02641+02541100681ADDAA106003091AG10006AY161061AY221061GF108991041051017501041001MA1999999100161MD1999999-0011MW1021REMSYN017 333 59001 60031;
0115821980999991995042200004-01717-045400FM-12+004499999V0200901N00261220001CN0100001N1+02481+02471100781ADDAA106000091AG10000GF104991041011017501001001KA1240M+02901MA1999999100261MD1999999-0221REMSYN017 333 10290 59022;
0143821980999991995042212004-01717-045400FM-12+004499999V0200501N00151015001CN0100001N1+02531+02481100961ADDAA124005091AG10006AY161061AY211061GF107991071001017501011001KA1240N+02291MA1999999100441MD1999999-0041MW1031REMSYN023 333 20229 59004 60054;
0115821980999991995042312004-01717-045400FM-12+004499999V0202701N00101220001CN0100001N1+02831+02581101051ADDAA106000091AG10000GF103991031021017501001001KA1240N+02211MA1999999100531MD1999999+0091REMSYN017 333 20221 58009;
0124821980999991995042418004-01717-045400FM-12+004499999V0203601N00151045001CN0100001N1+02501+02471100841ADDAA106022091AG10006AY161061AY221061GF108991031071017501041001MA1999999100321MD1999999+0181MW1021REMSYN017 333 58018 60221;
0134821980999991995042500004-01717-045400FM-12+004499999V0200901N00051220001CN0100001N1+02431+02391101041ADDAA106000091AG10000GF104991999001017501061001KA1240M+03111MA1999999100521MD1999999+0071REMSYN017 333 10311 58007;EQDQ01+000052SCOTLC
0121821980999991995042512004-01717-045400FM-12+004499999V0200501N00311015001CN0100001N1+02821+02751101071ADDAA124022091AG10000GF106991061021017501001001KA1240N+02211MA1999999100551MD1999999-0011REMSYN023 333 20221 59001 60224;
0124821980999991995042518004-01717-045400FM-12+004499999V0200501N00671015001CN0100001N1+02941+02741100641ADDAA106005091AG10006AY161061AY221061GF105991051021017501001001MA1999999100121MD1999999+0051MW1021REMSYN017 333 58005 60051;
0115821980999991995042612004-01717-045400FM-12+004499999V0200901N00361015001CN0100001N1+02861+02781100901ADDAA106000091AG10000GF105991051021017501001001KA1240N+02331MA1999999100381MD1999999-0171REMSYN017 333 20233 59017;
0124821980999991995042618004-01717-045400FM-12+004499999V0203601N00311045001CN0100001N1+02561+02511100591ADDAA106003091AG10006AY161061AY291061GF108991041021017501041001MA1999999100081MD1999999-0041MW1021REMSYN017 333 59004 60031;
0121821980999991995042712004-01717-045400FM-12+004499999V0203201N00051015001CN0100001N1+02501+02471100911ADDAA124003091AG10000GF108991081001017501011001KA1240N+02301MA1999999100391MD1999999+0011REMSYN023 333 20230 58001 60034;
0124821980999991995042918004-01717-045400FM-12+004499999V0200501N00361045001CN0100001N1+02581+02551100781ADDAA106011091AG10006AY161061AY221061GF108991041051017501021001MA1999999100261MD1999999+0101MW1021REMSYN017 333 58010 60111;
0124821980999991995050118004-01717-045400FM-12+004499999V0200901N00361045001CN0100001N1+02571+02511100691ADDAA106002091AG10005AY161061AY221061GF108991041051017501041001MA1999999100171MD1999999-0171MW1021REMSYN017 333 59017 60021;
0124821980999991995050218004-01717-045400FM-12+004499999V0203601N00211045001CN0100001N1+02801+02641100661ADDAA106009091AG10005AY161061AY221061GF108991041021017501041001MA1999999100141MD1999999-0031MW1021REMSYN017 333 59003 60091;
0143821980999991995050312004-01717-045400FM-12+004499999V0201401N00051015001CN0100001N1+02391+02381101231ADDAA124022091AG10005AY161061AY221061GF108991081001017501021001KA1240N+02251MA1999999100711MD1999999+0261MW1031REMSYN023 333 20225 58026 60224;
0124821980999991995050318004-01717-045400FM-12+004499999V0203601N00211045001CN0100001N1+02491+02451100921ADDAA106003091AG10005AY161061AY221061GF108991031051017501041001MA1999999100401MD1999999+0261MW1021REMSYN017 333 58026 60031;
0121821980999991995050412004-01717-045400FM-12+004499999V0200901N001510450019N0100001N1+02711+02671101171ADDAA124013091AG10000GF106991031021017501011001KA1240N+02301MA1999999100651MD1999999-0061REMSYN023 333 20230 59006 60134;
0096821980999991995050518004-01717-045400FM-12+004499999V0200501N00151045001CN0100001N1+02941+02871100731ADDAA106000091AG10000GF108991041021017501041001MA1999999100211MD1999999-0071REMSYN011 333 59007;
0115821980999991995050600004-01717-045400FM-12+004499999V0202301N00211220001CN0100001N1+02531+02471100991ADDAA106000091AG10000GF104991041021017501001001KA1240M+03061MA1999999100481MD1999999-0091REMSYN017 333 10306 59009;
0115821980999991995050612004-01717-045400FM-12+004499999V0202301N00151045001CN0100001N1+02511+02451101041ADDAA106000091AG10000GF106991041051017501011001KA1240N+02201MA1999999100521MD1999999+0011REMSYN017 333 20220 58001;
0131821980999991995050700004-01717-045400FM-12+004499999V0200901N00261220001CN0100001N1+02451+02371100881ADDAA106000091AG10000GA1001+999999999GF100991001001999999001001KA1240M+03201MA1999999100361MD1999999-0121REMSYN017 333 10320 59012;
0124821980999991995050718004-01717-045400FM-12+004499999V0200501N00211220001CN0100001N1+02721+02651100731ADDAA106011091AG10005AY161061AY221061GF104991021021017501061011MA1999999100221MD1999999-0011MW1021REMSYN017 333 59001 60111;
0121821980999991995050812004-01717-045400FM-12+004499999V0200901N00151045001CN0100001N1+02741+02611101121ADDAA124011091AG10000GF106991041021017501031001KA1240N+02391MA1999999100601MD1999999+0111REMSYN023 333 20239 58011 60114;
0124821980999991995050818004-01717-045400FM-12+004499999V0200901N00051045001CN0100001N1+02701+02651100841ADDAA106016091AG10005AY161061AY221061GF108991041051017501041001MA1999999100321MD1999999+0101MW1021REMSYN017 333 58010 60161;
0121821980999991995050912004-01717-045400FM-12+004499999V0200901N00311015001CN0100001N1+02711+02651101151ADDAA124017091AG10000GF105991051021017501001001KA1240N+02231MA1999999100631MD1999999+0031REMSYN023 333 20223 58003 60174;
0121821980999991995051012004-01717-045400FM-12+004499999V0200501N00461220001CN0100001N1+02841+02811101301ADDAA124003091AG10000GF104991041021017501001001KA1240N+02401MA1999999100781MD1999999+0751REMSYN023 333 20240 58075 60034;
0115821980999991995051112004-01717-045400FM-12+004499999V0200501N00261015001CN0100001N1+02831+02751101201ADDAA106000091AG10000GF105991051021017501001001KA1240N+02311MA1999999100671MD1999999-0101REMSYN017 333 20231 59010;
0124821980999991995051118004-01717-045400FM-12+004499999V0200501N00511045001CN0100001N1+02981+02761100841ADDAA106002091AG10005AY161061AY221061GF105991031021017501061001MA1999999100321MD1999999-0101MW1021REMSYN017 333 59010 60021;
0096821980999991995051218004-01717-045400FM-12+004499999V0200501N00461015001CN0100001N1+02881+02771100731ADDAA106000091AG10000GF108991051021017501061001MA1999999100221MD1999999-0101REMSYN011 333 59010;
0115821980999991995051312004-01717-045400FM-12+004499999V0200501N00261220001CN0100001N1+02841+02751101041ADDAA106000091AG10000GF104991041021017501001001KA1240N+02211MA1999999100521MD1999999-0071REMSYN017 333 20221 59007;
0076821980999991995051618004-01717-045400FM-12+004499999V02099999999999999999N0100001N1+03061+02881100621ADDAA106000091AG10000GF106991011999017501999999MA1999999100101REMSYN005 333;
0143821980999991995051712004-01717-045400FM-12+004499999V0200901N00261045001CN0100001N1+02731+02591101031ADDAA124002091AG10005AY161061AY201061GF107991031051017501061001KA1240N+02381MA1999999100521MD1999999+0091MW1031REMSYN023 333 20238 58009 60024;
0124821980999991995051718004-01717-045400FM-12+004499999V0200901N00211045001CN0100001N1+02541+02511100761ADDAA106020091AG10005AY161061AY221061GF108991041021017501041001MA1999999100241MD1999999+0141MW1021REMSYN017 333 58014 60201;
0124821980999991995051918004-01717-045400FM-12+004499999V0203601N00311015001CN0200001N1+02761+02711100681ADDAA106001091AG10005AY161061AY221061GF108991051051017501041001MA1999999100161MD1999999-0101MW1021REMSYN017 333 59010 60011;
0096821980999991995052018004-01717-045400FM-12+004499999V0200501N00151045001CN0100001N1+03001+02911100731ADDAA106000091AG10000GF106991031031017501061001MA1999999100221MD1999999+0061REMSYN011 333 58006;
0096821980999991995052218004-01717-045400FM-12+004499999V0200501N00361045001CN0100001N1+03021+02881100751ADDAA106000091AG10000GF106991041021017501061001MA1999999100241MD1999999-0191REMSYN011 333 59019;
0096821980999991995052318004-01717-045400FM-12+004499999V0200501N00461045001CN0100001N1+02841+02681100741ADDAA106000091AG10000GF106991041021017501061001MA1999999100231MD1999999-0011REMSYN011 333 59001;
0096821980999991995052418004-01717-045400FM-12+004499999V0201401N00211045001CN0100001N1+03021+02841100691ADDAA106000091AG10000GF105991031021017501061001MA1999999100181MD1999999-0051REMSYN011 333 59005;
0096821980999991995052518004-01717-045400FM-12+004499999V0200501N00671045001CN0100001N1+02881+02661100781ADDAA106000091AG10000GF106991041021017501041001MA1999999100261MD1999999+0081REMSYN011 333 58008;
0115821980999991995052612004-01717-045400FM-12+004499999V0202301N00101220001CN0100001N1+02661+02591101141ADDAA106000091AG10000GF104991041021017501001001KA1240N+02131MA1999999100621MD1999999-0021REMSYN017 333 20213 59002;
0124821980999991995052618004-01717-045400FM-12+004499999V0200901N00261045001CN0100001N1+02761+02581100841ADDAA106000591AG10001AY151061AY291061GF108991031021017501041001MA1999999100321MD1999999+0061MW1021REMSYN017 333 58006 69941;
0121821980999991995052712004-01717-045400FM-12+004499999V0202301N00101220001CN0100001N1+02681+02661101171ADDAA124000591AG10000GF103991031011017501001001KA1240N+02221MA1999999100651MD1999999+0031REMSYN023 333 20222 58003 69944;
0096821980999991995052718004-01717-045400FM-12+004499999V0201401N00311015001CN0100001N1+03211+02751100671ADDAA106000091AG10000GF105991051021017501001001MA1999999100161MD1999999-0161REMSYN011 333 59016;
0121821980999991995052912004-01717-045400FM-12+004499999V0201401N00211015001CN0100001N1+02831+02731101191ADDAA124004091AG10000GF105991051021017501001001KA1240N+02251MA1999999100671MD1999999+0011REMSYN023 333 20225 58001 60044;
0124821980999991995052918004-01717-045400FM-12+004499999V0203201N00211045001CN0100001N1+02571+02531100971ADDAA106008091AG10005AY161061AY291061GF108991041021017501041001MA1999999100451MD1999999+0021MW1021REMSYN017 333 58002 60081;
0121821980999991995053112004-01717-045400FM-12+004499999V0202301N00051105001CN0100001N1+02631+02571101171ADDAA124005091AG10000GF105991021021017501031011KA1240N+02201MA1999999100651MD1999999-0011REMSYN023 333 20220 59001 60054;
0124821980999991995053118004-01717-045400FM-12+004499999V0200901N00361015001CN0100001N1+02661+02591100821ADDAA106021091AG10005AY161061AY221061GF108991051021017501041001MA1999999100301MD1999999-0131MW1021REMSYN017 333 59013 60211;
0096821980999991995060618004-01717-045400FM-12+004499999V0201401N00261015001CN0100001N1+03021+02861100891ADDAA106000091AG10000GF106991061021017501001001MA1999999100381MD1999999-0051REMSYN011 333 59005;
0096821980999991995060718004-01717-045400FM-12+004499999V0201401N00361015001CN0100001N1+03101+02871100931ADDAA106000091AG10000GF106991061021017501001001MA1999999100421MD1999999+0041REMSYN011 333 58004;
0096821980999991995060818004-01717-045400FM-12+004499999V0201801N00361220001CN0100001N1+03121+02841100791ADDAA106000091AG10000GF104991041021017501001001MA1999999100281MD1999999-0141REMSYN011 333 59014;
0115821980999991995060912004-01717-045400FM-12+004499999V0202301N00051015001CN0100001N1+02821+02731101101ADDAA106000091AG10000GF105991051021017501001001KA1240N+02301MA1999999100581MD1999999-0021REMSYN017 333 20230 59002;
0096821980999991995060918004-01717-045400FM-12+004499999V0201401N00211045001CN0100001N1+02921+02871100751ADDAA106000091AG10000GF106991021021017501061001MA1999999100231MD1999999-0051REMSYN011 333 59005;
0115821980999991995061012004-01717-045400FM-12+004499999V0209991C00001045001CN0100001N1+02501+02471101141ADDAA106000091AG10000GF106991031021017501061001KA1240N+02241MA1999999100671MD1999999+0041REMSYN017 333 20224 58004;
0124821980999991995061218004-01717-045400FM-12+004499999V0200901N00261045001CN0100001N1+02551+02491100941ADDAA106008091AG10005AY161061AY221061GF108991041051017501041001MA1999999100421MD1999999+0051MW1021REMSYN017 333 58005 60081;
0121821980999991995061312004-01717-045400FM-12+004499999V0201801N003110450019N0100001N1+02711+02651101231ADDAA124008091AG10000GF106991031021017501031001KA1240N+02221MA1999999100711MD1999999+0041REMSYN023 333 20222 58004 60084;
0096821980999991995061318004-01717-045400FM-12+004499999V0201401N00361220001CN0100001N1+03041+02741100931ADDAA106000091AG10000GF104991041021017501001001MA1999999100421MD1999999+0001REMSYN011 333 58000;
0096821980999991995061418004-01717-045400FM-12+004499999V0201401N00311220001CN0100001N1+03091+02861100891ADDAA106000091AG10000GF104991041021017501001001MA1999999100381MD1999999-0041REMSYN011 333 59004;
0115821980999991995061512004-01717-045400FM-12+004499999V0200901N00311220001CN0100001N1+02761+02591101071ADDAA106000091AG10000GF102991021011017501001001KA1240N+02311MA1999999100561MD1999999-0131REMSYN017 333 20231 59013;
0115821980999991995061612004-01717-045400FM-12+004499999V0201401N00261015001CN0100001N1+02841+02751101071ADDAA106000091AG10000GF105991051021017501001001KA1240N+02301MA1999999100551MD1999999-0011REMSYN017 333 20230 59001;
0115821980999991995061618004-01717-045400FM-12+004499999V0200901N00511220001CN0100001N1+03071+02801100831ADDAA106000091AG10000GF104991041021999999001001MA1999999100321MD1999999+0021REMSYN011 333 58002;EQDQ01+000992SCOLCB
0096821980999991995061718004-01717-045400FM-12+004499999V0201401N00461220001CN0100001N1+03141+02861100881ADDAA106000091AG10000GF103991031021017501001001MA1999999100371MD1999999+0051REMSYN011 333 58005;
0124821980999991995061918004-01717-045400FM-12+004499999V0200501N00261220001CN0100001N1+02631+02551100841ADDAA106005091AG10005AY161061AY221061GF104991041021017501001001MA1999999100321MD1999999-0221MW1021REMSYN017 333 59022 60051;
0107821980999991995062018004-01717-045400FM-12+004499999V0202701N00101045001CN0100001N1+02661+02611100881ADDAG10005AY161061AY221061GF105991031021017501061001MA1999999100361MD1999999+0041MW1021REMSYN011 333 58004;
0121821980999991995062112004-01717-045400FM-12+004499999V0200901N00151015001CN0100001N1+02751+02731101211ADDAA124016091AG10000GF105991051021017501001001KA1240N+02241MA1999999100701MD1999999+0131REMSYN023 333 20224 58013 60164;
0124821980999991995062118004-01717-045400FM-12+004499999V0203201N00151045001CN0100001N1+02521+02471100981ADDAA106018091AG10005AY161061AY291061GF108991041021017501041001MA1999999100461MD1999999+0101MW1021REMSYN017 333 58010 60181;
0143821980999991995062212004-01717-045400FM-12+004499999V0201801N00261045001CN0200001N1+02421+02331101361ADDAA124032091AG10005AY161061AY221061GF107991021021022501061001KA1240N+02201MA1999999100581MD1999999+0151MW1031REMSYN023 333 20220 58015 60324;
0115821980999991995062312004-01717-045400FM-12+004499999V0201801N00151220001CN0100001N1+02761+02691101121ADDAA106000091AG10000GF103991011011017501041011KA1240N+02201MA1999999100611MD1999999-0241REMSYN017 333 20220 59024;
0124821980999991995062318004-01717-045400FM-12+004499999V0200901N00151220001CN0100001N1+02551+02491100731ADDAA106003091AG10005AY161061AY221061GF104991021021017501061001MA1999999100221MD1999999-0251MW1021REMSYN017 333 59025 60031;
0115821980999991995062612004-01717-045400FM-12+004499999V0200501N00151015001CN0100001N1+02751+99999101121ADDAA106000091AG10000GF105991051021017501001001KA1240N+02231MA1999999100661MD1999999-0111REMSYN017 333 20223 59011;
0124821980999991995062618004-01717-045400FM-12+004499999V0201401N00361220001CN0100001N1+02811+02731100981ADDAA106002091AG10005AY161061AY221061GF104991041021017501001001MA1999999100461MD1999999+0051MW1021REMSYN017 333 58005 60021;
0115821980999991995062812004-01717-045400FM-12+004499999V0201401N00311015001CN0100001N1+02821+02751101081ADDAA106000091AG10000GF106991061021017501001001KA1240N+02381MA1999999100571MD1999999-0011REMSYN017 333 20238 59001;
0124821980999991995062818004-01717-045400FM-12+004499999V0200901N00211045001CN0100001N1+02741+02691100801ADDAA106004091AG10005AY161061AY291061GF108991041021017501061001MA1999999100281MD1999999-0171MW1021REMSYN017 333 59017 60041;
0124821980999991995070118004-01717-045400FM-12+004499999V0202701N00101045001CN0100001N1+02621+02591100961ADDAA106015091AG10005AY161061AY231061GF106991041021017501061001MA1999999100441MD1999999+0021MW1021REMSYN017 333 58002 60151;
0143821980999991995070212004-01717-045400FM-12+004499999V0201401N00261045001CN0100001N1+02641+02621101351ADDAA124043091AG10005AY161061AY221061GF105991031021017501061001KA1240N+02171MA1999999100841MD1999999+0191MW1011REMSYN023 333 20217 58019 60434;
0121821980999991995070312004-01717-045400FM-12+004499999V0201401N00361015001CN0100001N1+02821+02821101221ADDAA124005091AG10000GF105991051021017501001001KA1240N+02181MA1999999100711MD1999999-0131REMSYN023 333 20218 59013 60054;
0124821980999991995070318004-01717-045400FM-12+004499999V0201401N00411220001CN0100001N1+02761+02671101021ADDAA106000591AG10001AY151061AY221061GF104991021021017501061001MA1999999100501MD1999999-0071MW1021REMSYN017 333 59007 69941;
0121821980999991995070412004-01717-045400FM-12+004499999V0201401N00211045001CN0100001N1+02471+02331101241ADDAA199000591AG10000GF105991031021017501041011KA1240N+02111MA1999999100731MD1999999+0021REMSYN023 333 20211 58002 69949;
0096821980999991995070418004-01717-045400FM-12+004499999V0200901N00361045001CN0100001N1+02731+02651100971ADDAA106000091AG10000GF108991031021017501041001MA1999999100461MD1999999-0041REMSYN011 333 59004;
0115821980999991995070512004-01717-045400FM-12+004499999V0201401N00261015001CN0100001N1+02601+02501101251ADDAA106000091AG10000GF106991061021017501001001KA1240N+02221MA1999999100741MD1999999+0011REMSYN017 333 20222 58001;
0124821980999991995070518004-01717-045400FM-12+004499999V0200901N00361045001CN0100001N1+02861+02751100851ADDAA106000591AG10001AY151061AY221061GF105991041021017501061001MA1999999100341MD1999999-0121MW1021REMSYN017 333 59012 69941;
0121821980999991995070612004-01717-045400FM-12+004499999V0200901N00311015001CN0100001N1+02741+02691101251ADDAA124000591AG10000GF105991051021017501001001KA1240N+02191MA1999999100741MD1999999+0001REMSYN023 333 20219 58000 69944;
0096821980999991995071318004-01717-045400FM-12+004499999V0201401N00261220001CN0100001N1+03061+02841100781ADDAA106000091AG10000GF104991041021017501001001MA1999999100261MD1999999-0041REMSYN011 333 59004;
0096821980999991995071418004-01717-045400FM-12+004499999V0201801N00211220001CN0100001N1+03121+02841100751ADDAA106000091AG10000GF103991031021017501001001MA1999999100241MD1999999-0021REMSYN011 333 59002;
0115821980999991995071512004-01717-045400FM-12+004499999V0209991C00001015001CN0100001N1+02531+02481101021ADDAA106000091AG10000GF107991051051017501011001KA1240N+02231MA1999999100511MD1999999-0021REMSYN017 333 20223 59002;
0124821980999991995071518004-01717-045400FM-12+004499999V0209991C00001015001CN0100001N1+02781+02671100841ADDAA106000591AG10001AY151061AY221061GF108991051051017501041001MA1999999100331MD1999999-0091MW1021REMSYN017 333 59009 69961;
0124821980999991995071918004-01717-045400FM-12+004499999V0209991C00001220001CN0100001N1+03781+02681100921ADDAA106003091AG10005AY161061AY221061GF102991021021017501001001MA1999999100411MD1999999+0251MW1021REMSYN017 333 58025 60031;
0096821980999991995072018004-01717-045400FM-12+004499999V0209991C00001045001CN0100001N1+03031+02861100941ADDAA106000091AG10000GF108991041031017501061001MA1999999100431MD1999999+0021REMSYN011 333 58002;
0131821980999991995072100004-01717-045400FM-12+004499999V0209999999999220001CN0100001N1+02491+02331101201ADDAA106000091AG10000GA1001+999999999GF100991001001999999001001KA1240M+03061MA1999999100691MD1999999+0031REMSYN017 333 10306 58003;
0134821980999991995072112004-01717-045400FM-12+004499999V0209999999999220001CN0100001N1+02671+02461101181ADDAA106000091AG10000GF104991999021017501001001KA1240N+02321MA1999999100661MD1999999-0091REMSYN017 333 20232 59009;EQDQ01+000032SCOTLC
0143821980999991995072212004-01717-045400FM-12+004499999V0209999999999045001CN0100001N1+02401+02331101081ADDAA124001091AG10005AY161061AY201061GF107991041051017501061001KA1240N+02221MA1999999100571MD1999999-0091MW1031REMSYN023 333 20222 59009 60014;
0124821980999991995072418004-01717-045400FM-12+004499999V0209991C00001045001CN0100001N1+02741+02631100871ADDAA106006091AG10005AY161061AY221061GF106991041021017501061001MA1999999100361MD1999999+0001MW1021REMSYN017 333 58000 60061;
0143821980999991995072518004-01717-045400FM-12+004499999V0209991C000019999999N0100001N1+02951+02641100791ADDAA106001091AG10005AY161061AY221061GF108991999021017501001001MA1999999100271MD1999999-0091MW1021REMSYN017 333 59009 60011;EQDQ01+000042SCOTLC
0121821980999991995072612004-01717-045400FM-12+004499999V0209999999999015001CN0100001N1+02811+02541100991ADDAA124001091AG10000GF106991051021017501061001KA1240N+02241MA1999999100471MD1999999-0141REMSYN023 333 20224 59014 60014;
0096821980999991995072618004-01717-045400FM-12+004499999V0209991C00001220001CN0100001N1+03061+02671100731ADDAA106000091AG10000GF104991041021017501001001MA1999999100221MD1999999-0051REMSYN011 333 59005;
0096821980999991995072718004-01717-045400FM-12+004499999V0209991C00001220001CN0100001N1+02991+02531100641ADDAA106000091AG10000GF104991041021017501001001MA1999999100131MD1999999-0091REMSYN011 333 59009;
0124821980999991995072818004-01717-045400FM-12+004499999V0209991C00001045001CN0100001N1+02641+02571100841ADDAA106002091AG10005AY161061AY221061GF106991041021017501061001MA1999999100331MD1999999+0201MW1021REMSYN017 333 58020 60021;
0121821980999991995073112004-01717-045400FM-12+004499999V0209991C00001220001CN0100001N1+02771+02661101001ADDAA124004091AG10000GF104991021011017501011011KA1240N+02361MA1999999100481MD1999999+0001REMSYN023 333 20236 58000 60044;
0096821980999991995073118004-01717-045400FM-12+004499999V0209991C00001220001CN0100001N1+03031+02681100741ADDAA106000091AG10000GF104991041021017501001001MA1999999100231MD1999999-0021REMSYN011 333 59002;
0115821980999991995080112004-01717-045400FM-12+004499999V0209999999999220001CN0100001N1+02791+02711101011ADDAA106000091AG10000GF104991041021017501001001KA1240N+02321MA1999999100491MD1999999+0011REMSYN017 333 20232 58001;
0096821980999991995080118004-01717-045400FM-12+004499999V0200901N00461015001CN0100001N1+03071+02821100771ADDAA106000091AG10000GF105991051021017501001001MA1999999100261MD1999999+0031REMSYN011 333 58003;
0115821980999991995080312004-01717-045400FM-12+004499999V0209991C00001220001CN0100001N1+02741+02611100991ADDAA106000091AG10000GF103991031021017501001001KA1240N+02411MA1999999100471MD1999999+0051REMSYN017 333 20241 58005;
0096821980999991995080318004-01717-045400FM-12+004499999V0200901N00461015001CN0100001N1+03091+02741100781ADDAA106000091AG10000GF105991051021017501001001MA1999999100271MD1999999+0011REMSYN011 333 58001;
0131821980999991995080400004-01717-045400FM-12+004499999V0200901N00151220001CN0100001N1+02581+99999101021ADDAA106000091AG10000GA1001+999999999GF100991001001999999001001KA1240M+03131MA1999999100501MD1999999-0041REMSYN017 333 10313 59004;
0115821980999991995080412004-01717-045400FM-12+004499999V0200901N00411015001CN0100001N1+02821+02641100971ADDAA106000091AG10000GF105991051021017501001001KA1240N+02371MA1999999100461MD1999999-0011REMSYN017 333 20237 59001;
0096821980999991995080418004-01717-045400FM-12+004499999V0200901N00511015001CN0100001N1+02991+02611100781ADDAA106000091AG10000GF108991051021017501061001MA1999999100271MD1999999+0001REMSYN011 333 58000;
0115821980999991995080512004-01717-045400FM-12+004499999V0200901N00411015001CN0100001N1+02791+02621101071ADDAA106000091AG10000GF105991051021017501001001KA1240N+02421MA1999999100561MD1999999+0101REMSYN017 333 20242 58010;
0096821980999991995080618004-01717-045400FM-12+004499999V0200901N00461015001CN0100001N1+03041+02741100971ADDAA106000091AG10000GF105991051021017501001001MA1999999100461MD1999999+0141REMSYN011 333 58014;
0115821980999991995080718004-01717-045400FM-12+004499999V0200901N00411015001CN0100001N1+03001+02761100881ADDAA106000091AG10000GF106991061021017501001001MA1999999100371MD1999999-0091REMSYN011 333 59009;EQDQ01+999990APOSP 
0115821980999991995080800004-01717-045400FM-12+004499999V0200901N00311015001CN0100001N1+02611+02511101101ADDAA106000091AG10000GF106991061021017501001001KA1240M+03081MA1999999100591MD1999999-0051REMSYN017 333 10308 59005;
0115821980999991995080812004-01717-045400FM-12+004499999V0200901N00411015001CN0100001N1+02781+02591101201ADDAA106000091AG10000GF105991051021017501001001KA1240N+02461MA1999999100691MD1999999-0061REMSYN017 333 20246 59006;
0096821980999991995080918004-01717-045400FM-12+004499999V0200901N00361015001CN0100001N1+03011+02781100691ADDAA106000091AG10000GF106991061021017501001001MA1999999100181MD1999999-0171REMSYN011 333 59017;
0096821980999991995081118004-01717-045400FM-12+004499999V0200901N00361015001CN0100001N1+03191+02691100841ADDAA106000091AG10000GF105991051021017501001001MA1999999100331MD1999999+0031REMSYN011 333 58003;
0115821980999991995081212004-01717-045400FM-12+004499999V0200501N00411015001CN0100001N1+02851+02681101141ADDAA106000091AG10000GF105991051021017501001001KA1240N+02451MA1999999100631MD1999999+0031REMSYN017 333 20245 58003;
0096821980999991995081218004-01717-045400FM-12+004499999V0201401N00311015001CN0100001N1+03121+02861100911ADDAA106000091AG10000GF105991051021017501001001MA1999999100401MD1999999+0071REMSYN011 333 58007;
0134821980999991995081312004-01717-045400FM-12+004499999V0200901N00361220001CN0100001N1+02841+02661101111ADDAA106000091AG10000GF102991021011017501001001KA1240N+02411MA1999999100601MD1999999-0031REMSYN017 333 20241 59003;EQDQ01+999990APOSLP
0115821980999991995081412004-01717-045400FM-12+004499999V0200901N00411220001CN0100001N1+02881+02761101041ADDAA106000091AG10000GF102991021011017501001001KA1240N+02421MA1999999100531MD1999999-0071REMSYN017 333 20242 59007;
0096821980999991995081418004-01717-045400FM-12+004499999V0201901N00511015001CN0100001N1+03001+02621100741ADDAA106000091AG10000GF105991051021017501001001MA1999999100231MD1999999-0111REMSYN011 333 59011;
0115821980999991995081512004-01717-045400FM-12+004499999V0200901N005110150019N0100001N1+02761+99999101051ADDAA106000091AG10000GF105991051021017501001001KA1240N+02421MA1999999100531MD1999999+0001REMSYN017 333 20242 58000;
0096821980999991995081518004-01717-045400FM-12+004499999V0200901N00461220001CN0100001N1+03121+02521100871ADDAA106000091AG10000GF102991021021017501001001MA1999999100361MD1999999+0131REMSYN011 333 58013;
0115821980999991995081612004-01717-045400FM-12+004499999V0200901N00311015001CN0100001N1+02791+02641101191ADDAA106000091AG10000GF105991051021017501001001KA1240N+02391MA1999999100671MD1999999-0181REMSYN017 333 20239 59018;
0115821980999991995081618004-01717-045400FM-12+004499999V0200501N00511015001CN0100001N1+03041+02821101021ADDAA106000091AG10000GF106991061021017501001001MA1999999100511MD1999999+0151REMSYN011 333 58015;EQDQ01+999990APOSLP
0115821980999991995081712004-01717-045400FM-12+004499999V0200901N00151220001CN0100001N1+02761+02561101151ADDAA106000091AG10000GF103991999999017501999999KA1240N+02391MA1999999100631MD1999999-0041REMSYN017 333 20239 59004;
0096821980999991995081718004-01717-045400FM-12+004499999V0200901N00411220001CN0100001N1+03101+02601100881ADDAA106000091AG10000GF104991041021017501001001MA1999999100361MD1999999-0151REMSYN011 333 59015;
0115821980999991995081812004-01717-045400FM-12+004499999V0200901N00461220001CN0100001N1+02791+02521101201ADDAA106000091AG10000GF103991031021017501001001KA1240N+02371MA1999999100681MD1999999+0051REMSYN017 333 20237 58005;
0096821980999991995081818004-01717-045400FM-12+004499999V0201401N00571220001CN0100001N1+02971+02621100931ADDAA106000091AG10000GF103991031021017501001001MA1999999100411MD1999999+0051REMSYN011 333 58005;
0115821980999991995081912004-01717-045400FM-12+004499999V0200901N00511220001CN0100001N1+02791+02711101241ADDAA106000091AG10000GF104991041021017501001001KA1240N+02371MA1999999100731MD1999999+0051REMSYN017 333 20237 58005;
0096821980999991995081918004-01717-045400FM-12+004499999V0200901N00571220001CN0100001N1+03081+02631100961ADDAA106000091AG10000GF103991031021017501001001MA1999999100441MD1999999+0031REMSYN011 333 58003;
0115821980999991995082112004-01717-045400FM-12+004499999V0200901N00511220001CN0100001N1+02811+02581101291ADDAA106000091AG10000GF103991031021017501001001KA1240N+02381MA1999999100781MD1999999-0021REMSYN017 333 20238 59002;
0124821980999991995082118004-01717-045400FM-12+004499999V0200901N00511045001CN0100001N1+02831+02501100971ADDAA106005091AG10005AY161061AY221061GF106991031021017501061001MA1999999100451MD1999999-0031MW1031REMSYN017 333 59003 60051;
0104821980999991995082212004-01717-045400FM-12+004499999V0200901N006210150019N0100001N1+02771+02661101281ADDAG10000GF105991051021017501001001KA1240N+02381MA1999999100731MD1999999-0011REMSYN017 333 20238 59001;
0096821980999991995082218004-01717-045400FM-12+004499999V0201401N00361220001CN0100001N1+02971+02661100951ADDAA106000091AG10000GF104991041021017501001001MA1999999100431MD1999999-0021REMSYN011 333 59002;
0115821980999991995082312004-01717-045400FM-12+004499999V0200901N00461045001CN0100001N1+02731+02411101191ADDAA106000091AG10000GF106991021021017501061001KA1240N+02331MA1999999100681MD1999999-0091REMSYN017 333 20233 59009;
0096821980999991995082318004-01717-045400FM-12+004499999V0201401N00511015001CN0100001N1+03081+02441100861ADDAA106000091AG10000GF105991051021017501001001MA1999999100351MD1999999-0081REMSYN011 333 59008;
0131821980999991995082400004-01717-045400FM-12+004499999V0200501N00261220001CN0100001N1+02541+02381101011ADDAA106000091AG10000GA1001+999999999GF100991001001999999001001KA1240M+03171MA1999999100501MD1999999-0141REMSYN017 333 10317 59014;
0115821980999991995082412004-01717-045400FM-12+004499999V0200901N00361220001CN0100001N1+02801+02661101061ADDAA106000091AG10000GF103991031021017501001001KA1240N+02391MA1999999100541MD1999999-0141REMSYN017 333 20239 59014;
0096821980999991995082418004-01717-045400FM-12+004499999V0201401N00361220001CN0100001N1+03071+02531100821ADDAA106000091AG10000GF103991031021017501001001MA1999999100301MD1999999-0051REMSYN011 333 59005;
0131821980999991995082500004-01717-045400FM-12+004499999V0200901N00461220001CN0100001N1+02561+02401101011ADDAA106000091AG10000GA1001+999999999GF100991001001999999001001KA1240M+03211MA1999999100501MD1999999+0001REMSYN017 333 10321 58000;
0115821980999991995082512004-01717-045400FM-12+004499999V0200901N00461015001CN0100001N1+02811+02521101141ADDAA106000091AG10000GF105991051021017501001001KA1240N+02611MA1999999100631MD1999999+0091REMSYN017 333 20261 58009;
0096821980999991995082518004-01717-045400FM-12+004499999V0200901N00571015001CN0100001N1+03031+02571100871ADDAA106000091AG10000GF106991051021017501061001MA1999999100351MD1999999+0051REMSYN011 333 58005;
0115821980999991995082612004-01717-045400FM-12+004499999V0200901N00411220001CN0100001N1+02741+02451101231ADDAA106000091AG10000GF103991031021017501001001KA1240N+02401MA1999999100721MD1999999+0091REMSYN017 333 20240 58009;
0115821980999991995082812004-01717-045400FM-12+004499999V0200901N00621045001CN0100001N1+02841+02561101231ADDAA106000091AG10000GF106991041021017501031001KA1240N+02441MA1999999099721MD1999999-0041REMSYN017 333 20244 59004;
0115821980999991995082912004-01717-045400FM-12+004499999V0200901N00361015001CN0100001N1+02811+02401101241ADDAA106000091AG10000GF106991061021017501001001KA1240N+02421MA1999999100731MD1999999+0011REMSYN017 333 20242 58001;
0096821980999991995082918004-01717-045400FM-12+004499999V0200901N00361220001CN0100001N1+02091+99999100961ADDAA106000091AG10000GF103991031021017501001001MA1999999100451MD1999999+0031REMSYN011 333 58003;
0115821980999991995083012004-01717-045400FM-12+004499999V0200901N00511015001CN0100001N1+02871+02381101281ADDAA106000091AG10000GF105991051021017501001001KA1240N+02401MA1999999100771MD1999999+0031REMSYN017 333 20240 58003;
0096821980999991995083118004-01717-045400FM-12+004499999V0201401N00771220001CN0100001N1+03101+02411101041ADDAA106000091AG10000GF103991031021017501001001MA1999999100531MD1999999-0031REMSYN011 333 59003;
0115821980999991995090112004-01717-045400FM-12+004499999V0200901N00671015001CN0100001N1+02831+02401101271ADDAA106000091AG10000GF106991061021017501001001KA1240N+02501MA1999999100761MD1999999-0111REMSYN017 333 20250 59011;
0096821980999991995090118004-01717-045400FM-12+004499999V0200901N00571045001CN0100001N1+02891+02361101061ADDAA106000091AG10000GF105991031021017501031001MA1999999100551MD1999999+0021REMSYN011 333 58002;
0115821980999991995090212004-01717-045400FM-12+004499999V0200901N00261220001CN0100001N1+02801+02221101371ADDAA106000091AG10000GF103991031021017501001001KA1240N+02411MA1999999100861MD1999999-0101REMSYN017 333 20241 59010;
0096821980999991995090218004-01717-045400FM-12+004499999V0200901N00571015001CN0100001N1+03141+02881101151ADDAA106000091AG10000GF105991051021017501001001MA1999999100641MD1999999+0091REMSYN011 333 58009;
0131821980999991995090500004-01717-045400FM-12+004499999V0200501N00261220001CN0100001N1+02511+02451101351ADDAA106000091AG10000GA1001+999999999GF100991001001999999001001KA1240M+03101MA1999999100841MD1999999+0141REMSYN017 333 10310 58014;
0096821980999991995090518004-01717-045400FM-12+004499999V0200901N00821015001CN0100001N1+02971+02491101011ADDAA106000091AG10000GF105991051021017501001001MA1999999100491MD1999999-0141REMSYN011 333 59014;
0101821980999991995090612004-01717-045400FM-12+004499999V0200901N00411045001CN0100001N1+02771+02581100171ADDAA106000091AG10000GF106991041021017501031001KA1240N+02381MA1999999100661REMSYN017 333 20238 50019;
0096821980999991995090618004-01717-045400FM-12+004499999V0200901N00571015001CN0100001N1+03161+02591100831ADDAA106000091AG10000GF105991051021017501001001MA1999999100321MD1999999-0171REMSYN011 333 59017;
0115821980999991995090912004-01717-045400FM-12+004499999V0200901N00511015001CN0100001N1+02831+02501101301ADDAA106000091AG10000GF105991051021017501001001KA1240N+02411MA1999999100781MD1999999+0191REMSYN017 333 20241 58019;
0096821980999991995091118004-01717-045400FM-12+004499999V0200901N00261015001CN0100001N1+03131+02861100841ADDAA106000091AG10000GF106991061021017501001001MA1999999100331MD1999999-0121REMSYN011 333 59012;
0096821980999991995091218004-01717-045400FM-12+004499999V0200901N00511220001CN0100001N1+03141+02691100831ADDAA106000091AG10000GF104991041021017501001001MA1999999100321MD1999999-0011REMSYN011 333 59001;
0101821980999991995091312004-01717-045400FM-12+004499999V0200901N00261045001CN0017001N1+02841+02361101171ADDAA106000091AG10000GF106991041021017501061001KA1240N+02411MA1999999100661REMSYN017 333 20241 50008;
0096821980999991995091418004-01717-045400FM-12+004499999V0200901N00511220001CN0100001N1+03061+02471101071ADDAA106000091AG10000GF103991031021017501001001MA1999999100561MD1999999+0191REMSYN011 333 58019;
0115821980999991995091512004-01717-045400FM-12+004499999V0200901N00361015001CN0100001N1+02821+02521101241ADDAA106000091AG10000GF108991061051017501061001KA1240N+02491MA1999999100731MD1999999+0081REMSYN017 333 20249 58008;
0096821980999991995091618004-01717-045400FM-12+004499999V0200901N00571045001CN0100001N1+02961+02701100941ADDAA106000091AG10000GF108991041021017501061001MA1999999100431MD1999999-0071REMSYN011 333 59007;
0096821980999991995091718004-01717-045400FM-12+004499999V0200901N00621220001CN0100001N1+03181+02831101041ADDAA106000091AG10000GF103991031021017501001001MA1999999100531MD1999999+0101REMSYN011 333 58010;
0115821980999991995091812004-01717-045400FM-12+004499999V0200901N00571015001CN0100001N1+02771+02661101381ADDAA106000091AG10000GF106991061021017501001001KA1240N+02451MA1999999100871MD1999999+0011REMSYN017 333 20245 58001;
0115821980999991995091912004-01717-045400FM-12+004499999V0200901N00621015001CN0100001N1+02801+02661101301ADDAA106000091AG10000GF105991051021017501001001KA1240N+02401MA1999999100781MD1999999-0091REMSYN017 333 20240 59009;
0115821980999991995091918004-01717-045400FM-12+004499999V0200501N006219999999N0100001N1+03051+02881100951ADDAA106000091AG10000GF105991999021017501001001MA1999999100481MD1999999-0071REMSYN011 333 59007;EQDQ01+000032SCOTLC
0115821980999991995092012004-01717-045400FM-12+004499999V0200901N00361220001CN0100001N1+02711+02591101201ADDAA106000091AG10000GF104991041021017501001001KA1240N+02321MA1999999100591MD1999999-0091REMSYN017 333 20232 59009;
0096821980999991995092118004-01717-045400FM-12+004499999V0200901N00461220001CN0100001N1+03091+02781100891ADDAA106000091AG10000GF104991041021017501001001MA1999999100381MD1999999+0041REMSYN011 333 58004;
0115821980999991995092212004-01717-045400FM-12+004499999V0200901N00461015001CN0100001N1+02891+02581101271ADDAA106000091AG10000GF105991051021017501001001KA1240N+02411MA1999999100761MD1999999+0151REMSYN017 333 20241 58015;
0096821980999991995092218004-01717-045400FM-12+004499999V0200901N00621015001CN0100001N1+03001+02861100971ADDAA106000091AG10000GF106991061021017501001001MA1999999100461MD1999999+0081REMSYN011 333 58008;
0096821980999991995092418004-01717-045400FM-12+004499999V0200901N00621220001CN0100001N1+03081+02881100951ADDAA106000091AG10000GF104991041021017501001001MA1999999100441MD1999999-0021REMSYN011 333 59002;
0096821980999991995092518004-01717-045400FM-12+004499999V0200501N00511015001CN0100001N1+03141+02861100951ADDAA106000091AG10000GF105991051021017501001001MA1999999100441MD1999999+0001REMSYN011 333 58000;
0115821980999991995092612004-01717-045400FM-12+004499999V0200501N00511220001CN0100001N1+02851+02771101181ADDAA106000091AG10000GF104991041021017501001001KA1240N+02421MA1999999100671MD1999999-0101REMSYN017 333 20242 59010;
0102821980999991995092618004-01717-045400FM-12+004499999V0203601N00311015001CN0100001N1+02721+02631100861ADDAA106011091AG10006GF108991051051017501021001MA1999999100351MD1999999-0091REMSYN017 333 59009 60111;
0096821980999991995092718004-01717-045400FM-12+004499999V0200901N00621015001CN0100001N1+03011+02861100871ADDAA106000091AG10000GF105991051021017501001001MA1999999100361MD1999999+0011REMSYN011 333 58001;
0096821980999991995092818004-01717-045400FM-12+004499999V0200901N00461220001CN0100001N1+02921+02721100961ADDAA106000091AG10000GF104991041021017501001001MA1999999100451MD1999999+0011REMSYN011 333 58001;
0096821980999991995092918004-01717-045400FM-12+004499999V0200901N00571220001CN0100001N1+03101+02881101011ADDAA106000091AG10000GF104991041021017501001001MA1999999100501MD1999999+0051REMSYN011 333 58005;
0115821980999991995093012004-01717-045400FM-12+004499999V0200901N00511220001CN0100001N1+02871+02561101131ADDAA106000091AG10000GF102991021021017501001001KA1240N+02431MA1999999100621MD1999999-0101REMSYN017 333 20243 59010;
0115821980999991995100312004-01717-045400FM-12+004499999V0200501N00511220001CN0100001N1+02831+02711101261ADDAA106000091AG10000GF104991041021017501001001KA1240N+02501MA1999999100751MD1999999+0051REMSYN017 333 20250 58005;
0096821980999991995100318004-01717-045400FM-12+004499999V0200501N00671015001CN0100001N1+02991+02871101071ADDAA106000091AG10000GF106991061021017501001001MA1999999100561MD1999999+0141REMSYN011 333 58014;
0115821980999991995100412004-01717-045400FM-12+004499999V0200501N00361015001CN0100001N1+02851+02731101301ADDAA106000091AG10000GF106991061021017501001001KA1240N+02421MA1999999100791MD1999999+0041REMSYN017 333 20242 58004;
0096821980999991995100418004-01717-045400FM-12+004499999V0200501N00571220001CN0100001N1+03001+02841100971ADDAA106000091AG10000GF103991031021017501001001MA1999999100461MD1999999-0101REMSYN011 333 59010;
0115821980999991995100512004-01717-045400FM-12+004499999V0200901N00511220001CN0100001N1+02821+02661101021ADDAA106000091AG10000GF103991031021017501001001KA1240N+02441MA1999999100501MD1999999-0291REMSYN017 333 20244 59029;
0096821980999991995100518004-01717-045400FM-12+004499999V0200501N00511015001CN0100001N1+03011+02891100761ADDAA106000091AG10000GF106991061021017501001001MA1999999100241MD1999999-0221REMSYN011 333 59022;
0115821980999991995100712004-01717-045400FM-12+004499999V0200501N00361015001CN0100001N1+02851+02751101001ADDAA106000091AG10000GF105991051021017501001001KA1240N+02431MA1999999100481MD1999999+0061REMSYN017 333 20243 58006;
0115821980999991995100912004-01717-045400FM-12+004499999V0200901N00461220001CN0100001N1+02891+02711100951ADDAA106000091AG10000GF103991031021017501001001KA1240N+02481MA1999999100431MD1999999+0061REMSYN017 333 20248 58006;
0096821980999991995100918004-01717-045400FM-12+004499999V0200901N00511015001CN0100001N1+03011+02821100701ADDAA106000091AG10000GF106991061021017501001001MA1999999100191MD1999999+0031REMSYN011 333 58003;
0131821980999991995101000004-01717-045400FM-12+004499999V0200901N00461220001CN0100001N1+02671+02551100741ADDAA106000091AG10000GA1001+999999999GF100991001001999999001001KA1240M+03131MA1999999100231MD1999999-0051REMSYN017 333 10313 59005;
0115821980999991995101012004-01717-045400FM-12+004499999V0200501N00361015001CN0100001N1+02951+02821100921ADDAA106000091AG10000GF106991061021017501001001KA1240N+02501MA1999999100411MD1999999-0021REMSYN017 333 20250 59002;
0096821980999991995101018004-01717-045400FM-12+004499999V0200901N00361015001CN0100001N1+02921+02761100741ADDAA106000091AG10000GF106991061021017501001001MA1999999100231MD1999999+0041REMSYN011 333 58004;
0096821980999991995101118004-01717-045400FM-12+004499999V0200501N00511045001CN0100001N1+03021+02841100791ADDAA106000091AG10000GF106991041021017501061001MA1999999100281MD1999999+0051REMSYN011 333 58005;
0096821980999991995101318004-01717-045400FM-12+004499999V0200901N00151015001CN0100001N1+03061+02721100911ADDAA106000091AG10000GF106991061021017501001001MA1999999100401MD1999999+0151REMSYN011 333 58015;
0131821980999991995101400004-01717-045400FM-12+004499999V0200501N00311220001CN0100001N1+02651+02551101171ADDAA106000091AG10000GA1001+999999999GF100991001001999999001001KA1240M+03191MA1999999100661MD1999999+0121REMSYN017 333 10319 58012;
0131821980999991995101500004-01717-045400FM-12+004499999V0200901N00261220001CN0100001N1+02541+02451101291ADDAA106000091AG10000GA1001+999999999GF100991001001999999001001KA1240M+03211MA1999999100781MD1999999+0121REMSYN017 333 10321 58012;
0096821980999991995101518004-01717-045400FM-12+004499999V0200901N00621220001CN0100001N1+03181+02811100951ADDAA106000091AG10000GF102991021011017501001001MA1999999100441MD1999999-0141REMSYN011 333 59014;
0096821980999991995101818004-01717-045400FM-12+004499999V0200501N00511220001CN0100001N1+03121+02861100731ADDAA106000091AG10000GF102991021021017501001001MA1999999100221MD1999999-0071REMSYN011 333 59007;
0096821980999991995101918004-01717-045400FM-12+004499999V0200501N00361015001CN0100001N1+03061+02801100741ADDAA106000091AG10000GF105991051021017501001001MA1999999100231MD1999999+0011REMSYN011 333 58001;
0115821980999991995102012004-01717-045400FM-12+004499999V0200501N00621220001CN0100001N1+02911+02791100981ADDAA106000091AG10000GF103991031011017501001001KA1240N+02511MA1999999100471MD1999999-0121REMSYN017 333 20251 59012;
0096821980999991995102018004-01717-045400FM-12+004499999V0200901N00671015001CN0100001N1+03161+02841100771ADDAA106000091AG10000GF105991051021017501001001MA1999999100261MD1999999+0031REMSYN011 333 58003;
0096821980999991995102318004-01717-045400FM-12+004499999V0200901N00461220001CN0100001N1+03101+02821100731ADDAA106000091AG10000GF103991031021017501001001MA1999999100221MD1999999+0121REMSYN011 333 58012;
0115821980999991995102612004-01717-045400FM-12+004499999V0200901N00721015001CN0100001N1+02791+02731101011ADDAA106000091AG10000GF106991061021017501001001KA1240N+02511MA1999999100501MD1999999-0071REMSYN017 333 20251 59007;
0096821980999991995102618004-01717-045400FM-12+004499999V0200901N00511015001CN0100001N1+03011+02531100671ADDAA106000091AG10000GF106991061021017501001001MA1999999100161MD1999999-0101REMSYN011 333 59010;
0096821980999991995102718004-01717-045400FM-12+004499999V0200501N00621220001CN0100001N1+03001+02571100761ADDAA106000091AG10000GF104991031021017501061001MA1999999100251MD1999999+0091REMSYN011 333 58009;
0096821980999991995102818004-01717-045400FM-12+004499999V0203601N00571220001CN0100001N1+03021+02721100771ADDAA106000091AG10000GF102991021021017501001001MA1999999100261MD1999999+0011REMSYN011 333 58001;
0118821980999991995103018004-01717-045400FM-12+004499999V0203601N00571220001CN0100001N1+02981+02641100701ADDAA106000091AG10000GA1021+090009029GF104991031021017501001011MA1999999100191MD1999999-0091REMSYN017 333 59009 82280;
0124821980999991995103118004-01717-045400FM-12+004499999V0203601N00571045001CN0100001N1+02981+02721100651ADDAA106004091AG10006AY161061AY221061GF106991041021017501061001MA1999999100141MD1999999-0051MW1021REMSYN017 333 59005 60041;
0143821980999991995110112004-01717-045400FM-12+004499999V0200501N00621045001CN0100001N1+02631+02441101101ADDAA124003091AG10006AY161061AY221061GF107991041021017501041001KA1240N+02221MA1999999100591MD1999999+0051MW1031REMSYN023 333 20222 58005 60034;
0096821980999991995110318004-01717-045400FM-12+004499999V0200501N00571220001CN0100001N1+03071+02761100791ADDAA106000091AG10000GF104991041021017501001001MA1999999100281MD1999999-0061REMSYN011 333 59006;
0096821980999991995110418004-01717-045400FM-12+004499999V0200901N00571220001CN0100001N1+03091+02741100831ADDAA106000091AG10000GF102991021021017501001001MA1999999100321MD1999999+0041REMSYN011 333 58004;
0115821980999991995110612004-01717-045400FM-12+004499999V0200501N00571045001CN0100001N1+02881+02681101081ADDAA106000091AG10000GF107991041021017501061001KA1240N+02511MA1999999100571MD1999999+0011REMSYN017 333 20251 58001;
0096821980999991995110618004-01717-045400FM-12+004499999V0200501N00621015001CN0100001N1+02981+02621100751ADDAA106000091AG10000GF105991051021017501001001MA1999999100241MD1999999+0001REMSYN011 333 58000;
0131821980999991995110700004-01717-045400FM-12+004499999V0200501N00311220001CN0100001N1+02591+02571100731ADDAA106000091AG10000GA1001+999999999GF100991001001999999001001KA1240M+03871MA1999999100451MD1999999-0011REMSYN017 333 10387 59001;
0115821980999991995110712004-01717-045400FM-12+004499999V0200501N00621220001CN0100001N1+02811+02581101011ADDAA106000091AG10000GF104991041021017501001001KA1240N+02501MA1999999100501MD1999999-0071REMSYN017 333 20250 59007;
0137821980999991995110718004-01717-045400FM-12+004499999V0200501N00261015001CN0100001N1+03081+02651100731ADDAA106000091AG10000GA1021+090009029GF105991051021017501001999MA1999999100221MD1999999-0011REMSYN017 333 59001 82280;EQDQ01+000002SCOHCG
0096821980999991995111218004-01717-045400FM-12+004499999V0200501N00621220001CN0100001N1+03111+02561100771ADDAA106000091AG10000GF104991031021017501001011MA1999999100261MD1999999+0021REMSYN011 333 58002;
0096821980999991995111418004-01717-045400FM-12+004499999V0200501N00621220001CN0100001N1+03161+02551100771ADDAA106000091AG10000GF103991031021017501001001MA1999999100261MD1999999+0031REMSYN011 333 58003;
0115821980999991995111512004-01717-045400FM-12+004499999V0200501N00461220001CN0100001N1+02931+02601100981ADDAA106000091AG10000GF103991031021017501001001KA1240N+02511MA1999999100471MD1999999+0041REMSYN017 333 20251 58004;
0096821980999991995111518004-01717-045400FM-12+004499999V0200501N00621015001CN0100001N1+03191+02541100751ADDAA106000091AG10000GF105991051021017501001001MA1999999100251MD1999999-0011REMSYN011 333 59001;
0096821980999991995111618004-01717-045400FM-12+004499999V0203601N00511045001CN0100001N1+03061+02591100571ADDAA106000091AG10000GF106991031021017501061001MA1999999100061MD1999999-0191REMSYN011 333 59019;
0096821980999991995111718004-01717-045400FM-12+004499999V0203601N00511045001CN0100001N1+03941+02701100601ADDAA106000091AG10000GF105991021021017501061001MA1999999100091MD1999999+0031REMSYN011 333 58003;
0096821980999991995112018004-01717-045400FM-12+004499999V0200501N00511220001CN0100001N1+03221+02741100631ADDAA106000091AG10000GF104991041021017501001001MA1999999100121MD1999999-0141REMSYN011 333 59014;
0115821980999991995112212004-01717-045400FM-12+004499999V0203601N00461015001CN0100001N1+02891+02681100991ADDAA106000091AG10000GF107991051021017501061001KA1240N+02521MA1999999100481MD1999999+0081REMSYN017 333 20252 58008;
0096821980999991995112418004-01717-045400FM-12+004499999V0200501N00621015001CN0100001N1+03121+02801100601ADDAA106000091AG10000GF105991051021017501001001MA1999999100091MD1999999-0131REMSYN011 333 59013;
0096821980999991995112518004-01717-045400FM-12+004499999V0200501N00621045001CN0100001N1+03091+02801100551ADDAA106000091AG10000GF106991031021017501061001MA1999999100041MD1999999-0051REMSYN011 333 59005;
0096821980999991995112618004-01717-045400FM-12+004499999V0200501N00361045001CN0100001N1+03161+02791100591ADDAA106000091AG10000GF106991041021017501061001MA1999999100081MD1999999+0041REMSYN011 333 58004;
0096821980999991995112718004-01717-045400FM-12+004499999V0200501N00571015001CN0100001N1+03161+02771100771ADDAA106000091AG10000GF105991051021017501001001MA1999999100261MD1999999+0181REMSYN011 333 58018;
0115821980999991995112912004-01717-045400FM-12+004499999V0200501N00411220001CN0100001N1+03011+02741101021ADDAA106000091AG10000GF104991041021017501001001KA1240N+02481MA1999999100511MD1999999-0041REMSYN017 333 20248 59004;
0096821980999991995112918004-01717-045400FM-12+004499999V0200501N00511015001CN0100001N1+03221+02791100691ADDAA106000091AG10000GF105991051021017501001001MA1999999100181MD1999999-0061REMSYN011 333 59006;
0115821980999991995113012004-01717-045400FM-12+004499999V0203601N00411045001CN0100001N1+02811+02501101421ADDAA106000091AG10000GF106991041021017501061001KA1240N+02301MA1999999100911MD1999999+0131REMSYN017 333 20230 58013;
0124821980999991995113018004-01717-045400FM-12+004499999V0200501N00461015001CN0100001N1+02471+02391100891ADDAA106028091AG10006AY161061AY291061GF108991051051017501021001MA1999999100381MD1999999+0201MW1021REMSYN017 333 58020 60281;
0115821980999991995120100004-01717-045400FM-12+004499999V0202301N00211045001CN0100001N1+02421+02351101201ADDAA106000091AG10000GF106991031051017501061001KA1240M+03071MA1999999100691MD1999999+0191REMSYN017 333 10307 58019;
0096821980999991995120118004-01717-045400FM-12+004499999V0200501N00511220001CN0100001N1+03121+02801100791ADDAA106000091AG10000GF103991031021017501001001MA1999999100281MD1999999-0101REMSYN011 333 59010;
0115821980999991995120412004-01717-045400FM-12+004499999V0200501N00361220001CN0100001N1+02571+02491100901ADDAA106000091AG10000GF104991041001017501061001KA1240N+02191MA1999999100391MD1999999-0121REMSYN017 333 20219 59012;
0096821980999991995120418004-01717-045400FM-12+004499999V0203601N00621045001CN0100001N1+02981+02721100641ADDAA106000091AG10000GF105991031021017501061001MA1999999100131MD1999999-0121REMSYN011 333 59012;
0096821980999991995120518004-01717-045400FM-12+004499999V0200501N00621045001CN0100001N1+03041+02801100661ADDAA106000091AG10000GF105991031021017501061011MA1999999100151MD1999999+0021REMSYN011 333 58002;
0096821980999991995120618004-01717-045400FM-12+004499999V0203601N00621015001CN0100001N1+03041+02741100631ADDAA106000091AG10000GF105991051021017501001001MA1999999100121MD1999999-0031REMSYN011 333 59003;
0096821980999991995120718004-01717-045400FM-12+004499999V0200501N00461045001CN0100001N1+03101+02711100731ADDAA106000091AG10000GF107991041021017501061001MA1999999100221MD1999999-0101REMSYN011 333 59010;
0096821980999991995120818004-01717-045400FM-12+004499999V0200501N00511015001CN0100001N1+02941+02581100731ADDAA106000091AG10000GF108991051021017501061001MA1999999100221MD1999999+0001REMSYN011 333 58000;
0115821980999991995120912004-01717-045400FM-12+004499999V0200501N00411220001CN0100001N1+02871+02681101031ADDAA106000091AG10000GF104991041021017501001001KA1240N+02491MA1999999100521MD1999999+0071REMSYN017 333 20249 58007;
0096821980999991995120918004-01717-045400FM-12+004499999V0200501N00511045001CN0100001N1+03151+02771100741ADDAA106000091AG10000GF106991031021017501061011MA1999999100231MD1999999+0011REMSYN011 333 58001;
0096821980999991995121118004-01717-045400FM-12+004499999V0203601N00621015001CN0100001N1+03161+02821100641ADDAA106000091AG10000GF105991051021017501001001MA1999999100131MD1999999-0081REMSYN011 333 59008;
0124821980999991995121318004-01717-045400FM-12+004499999V0203601N00511045001CN0100001N1+02781+02671100841ADDAA106005091AG10006AY161061AY221061GF108991041021017501061001MA1999999100331MD1999999+0091MW1021REMSYN017 333 58009 60051;
0096821980999991995121418004-01717-045400FM-12+004499999V0203601N00571220001CN0100001N1+03061+02741100761ADDAA106000091AG10000GF103991031021017501001001MA1999999100251MD1999999-0081REMSYN011 333 59008;
0096821980999991995121518004-01717-045400FM-12+004499999V0203601N00621220001CN0100001N1+03001+02741100731ADDAA106000091AG10000GF104991021021017501061001MA1999999100221MD1999999-0031REMSYN011 333 59003;
0096821980999991995121918004-01717-045400FM-12+004499999V0200501N00621220001CN0100001N1+03181+02631100831ADDAA106000091AG10000GF103991021021017501061001MA1999999100321MD1999999-0111REMSYN011 333 59011;
0115821980999991995122012004-01717-045400FM-12+004499999V0200501N00311045001CN0100001N1+02841+02621101171ADDAA106000091AG10000GF108991041021017501061001KA1240N+02561MA1999999100661MD1999999+0081REMSYN017 333 20256 58008;
0096821980999991995122018004-01717-045400FM-12+004499999V0200501N00671015001CN0100001N1+03001+02761100801ADDAA106000091AG10000GF108991051021017501061001MA1999999100291MD1999999-0031REMSYN011 333 59003;
0096821980999991995122118004-01717-045400FM-12+004499999V0200501N00621220001CN0100001N1+03161+02771100821ADDAA106000091AG10000GF104991041021017501001001MA1999999100311MD1999999+0021REMSYN011 333 58002;
0115821980999991995122212004-01717-045400FM-12+004499999V0200501N004110450019N0100001N1+02841+99999101131ADDAA106000091AG10000GF105991041021017501061001KA1240N+02531MA1999999100621MD1999999-0011REMSYN017 333 20253 59001;
0096821980999991995122218004-01717-045400FM-12+004499999V0200501N00571015001CN0100001N1+03061+02801100891ADDAA106000091AG10000GF106991051021017501061001MA1999999100381MD1999999+0071REMSYN011 333 58007;
0134821980999991995122312004-01717-045400FM-12+004499999V0200501N00411045001CN0100001N1+02821+02701101151ADDAA106000091AG10000GF105991031021017501061001KA1240M+99999MA1999999100641MD1999999+0021REMSYN017 333 10251 58002;EQDQ01 +02512ATMX  
0096821980999991995122318004-01717-045400FM-12+004499999V0200501N00571015001CN0100001N1+03121+02801100871ADDAA106000091AG10000GF105991051021017501001001MA1999999100361MD1999999-0021REMSYN011 333 59002;
0096821980999991995122518004-01717-045400FM-12+004499999V0200501N00671015001CN0100001N1+03101+02731100791ADDAA106000091AG10000GF105991051021017501001001MA1999999100281MD1999999-0081REMSYN011 333 59008;
0115821980999991995122612004-01717-045400FM-12+004499999V0200501N00511015001CN0100001N1+02861+02701101171ADDAA106000091AG10000GF105991051021017501001001KA1240N+02521MA1999999100661MD1999999+0101REMSYN017 333 20252 58010;
0115821980999991995122712004-01717-045400FM-12+004499999V0200501N00411045001CN0100001N1+02891+02741101151ADDAA106000091AG10000GF105991031021017501061001KA1240N+02541MA1999999100641MD1999999-0021REMSYN017 333 20254 59002;
0096821980999991995122718004-01717-045400FM-12+004499999V0200501N00771220001CN0100001N1+03081+02721100821ADDAA106000091AG10000GF104991041021017501001001MA1999999100311MD1999999-0131REMSYN011 333 59013;
0115821980999991995122812004-01717-045400FM-12+004499999V0200501N00461045001CN0100001N1+02921+02721101141ADDAA106000091AG10000GF105991031021017501061001KA1240N+02501MA1999999100631MD1999999-0011REMSYN017 333 20250 59001;
0096821980999991995122818004-01717-045400FM-12+004499999V0200501N00621045001CN0100001N1+03061+02741100851ADDAA106000091AG10000GF105991041021017501061001MA1999999100341MD1999999+0031REMSYN011 333 58003;
0115821980999991995122912004-01717-045400FM-12+004499999V0200501N00361220001CN0100001N1+02941+02601101171ADDAA106000091AG10000GF105991041021017501001011KA1240N+02521MA1999999100661MD1999999+0031REMSYN017 333 20252 58003;
0096821980999991995122918004-01717-045400FM-12+004499999V0200501N00411045001CN0100001N1+03011+02701100831ADDAA106000091AG10000GF106991041021017501061001MA1999999100321MD1999999-0021REMSYN011 333 59002;
0143821980999991995123012004-01717-045400FM-12+004499999V0202301N00211045001CN0100001N1+02501+02451101291ADDAA124005091AG10006AY161061AY221061GF108991041021017501061021KA1240N+02401MA1999999100781MD1999999+0121MW1021REMSYN023 333 20240 58012 60054;
0124821980999991995123018004-01717-045400FM-12+004499999V0200501N00361045001CN0100001N1+02971+02801100591ADDAA106002091AG10006AY161061AY221061GF106991041021017501061001MA1999999100381MD1999999+0061MW1021REMSYN017 333 58006 60021;
