0143825710999991995010100004-05500-045267FM-12+017499999V0202701N00101004201CN0100001N1+02431+02321101141ADDAA106001091AG10018AY191061AY261061GF108991081051004501999999KA1240M+03351MA1999999099161MD1999999-0091MW1131REMSYN023 333 10335 59009 60011;
0121825710999991995010112004-05500-045267FM-12+017499999V0200501N00211045001CN0100001N1+02681+02451101361ADDAA124001091AG10000GF106991031021004501031001KA1240N+02201MA1999999099381MD1999999+0101REMSYN023 333 20220 58010 60014;
0115825710999991995010212004-05500-045267FM-12+017499999V0203201N00101220001CN0100001N1+02621+02251101341ADDAA106000091AG10000GF102991011011004501031001KA1240N+02171MA1999999099361MD1999999-0021REMSYN017 333 20217 59002;
0096825710999991995010218004-05500-045267FM-12+017499999V0203601N00211220001CN0100001N1+03221+02401100911ADDAA106000091AG10000GF104991041021008001001001MA1999999098961MD1999999+0021REMSYN011 333 58002;
0135825710999991995010300004-05500-045267FM-12+017499999V0201401N00101220001CN0100001N1+02461+02431101151ADDAA106014091AG10006AY161061GF104991041021008001001001KA1240M+03261MA1999999099171MD1999999-0061MW1131REMSYN023 333 10326 59006 60141;
0151825710999991995010312004-05500-045267FM-12+017499999V0200501N00211220001CN0100001N1+02651+02391101331ADDAA106000091AA224014091AG10000GF104991999051004501001001KA1240N+02201MA1999999099751MD1999999-0011REMSYN023 333 20220 59001 60144;EQDQ01+000072SCOTLC
0096825710999991995010318004-05500-045267FM-12+017499999V0200501N00311045001CN0100001N1+03221+02401100911ADDAA106000091AG10000GF105991031021008001011001MA1999999098961MD1999999+0001REMSYN011 333 58000;
0115825710999991995010400004-05500-045267FM-12+017499999V0209991C00001007501CN0100001N1+02701+02431101131ADDAA106000091AG10000GF106991061021008001001001KA1240M+03271MA1999999099171MD1999999+0001REMSYN017 333 10327 58000;
0135825710999991995010412004-05500-045267FM-12+017499999V0202301N00101045001CN0040001N1+02261+02231101521ADDAA124031091AG10006AY161061GF108991041071004501021999KA1240N+02041MA1999999099531MD1999999+0181MW1911REMSYN023 333 20204 58018 60314;
0151825710999991995010418004-05500-045267FM-12+017499999V0202701N001019999999N0100001N1+02721+02391101251ADDAA106001091AG10006AY161061GF107991999051008001011001MA1999999099281MD1999999+0321MW1011REMSYN017 333 58032 60011;EQDQ01+000082SCOTLCQ02+999990APOSLP
0115825710999991995010500004-05500-045267FM-12+017499999V0202301N00101220001CN0100001N1+02501+02411101361ADDAA106000091AG10000GF104991041001017501041001KA1240M+02771MA1999999099371MD1999999+0201REMSYN017 333 10277 58020;
0121825710999991995010512004-05500-045267FM-12+017499999V0202301N00101009001CN0100001N1+02431+02281101501ADDAA124001091AG10000GF108991081081004501999999KA1240N+02141MA1999999099511MD1999999-0021REMSYN023 333 20214 59002 60014;
0096825710999991995010518004-05500-045267FM-12+017499999V0203201N00101045001CN0100001N1+02721+02261101181ADDAA106000091AG10000GF108991041071008001011999MA1999999099201MD1999999-0081REMSYN011 333 59008;
0115825710999991995010600004-05500-045267FM-12+017499999V0201401N00211007501CN0100001N1+02441+02341101451ADDAA106000091AG10000GF108991081051008001999999KA1240M+02891MA1999999099461MD1999999+0091REMSYN017 333 10289 58009;
0135825710999991995010612004-05500-045267FM-12+017499999V0201801N00211045001CN0040001N1+02241+02191101771ADDAA124028091AG10006AY161061GF108991041021004501071999KA1240N+02021MA1999999099771MD1999999+0261MW1911REMSYN023 333 20202 58026 60284;
0116825710999991995010618004-05500-045267FM-12+017499999V0202301N002110450019N0040001N1+02231+02171101571ADDAA106002091AG10006AY161061GF108991041071008001021999MA1999999099561MD1999999+0361MW1911REMSYN017 333 58036 60021;
0135825710999991995010700004-05500-045267FM-12+017499999V0201401N00101004201CN0040001N1+02201+02151101451ADDAA106001091AG10006AY161061GF108991081051004501999999KA1240M+02451MA1999999099441MD1999999-0021MW1911REMSYN023 333 10245 59002 60011;
0135825710999991995010712004-05500-045267FM-12+017499999V0202701N00101045001CN0100001N1+02271+02121101551ADDAA199006091AG10006AY161061GF107991041071004501011001KA1240N+01941MA1999999099541MD1999999-0231MW1021REMSYN023 333 20194 59023 60060;
0135825710999991995010812004-05500-045267FM-12+017499999V0202701N00101004201CN0100001N1+02541+02251101341ADDAA124000591AG10006AY161061GF108991081051004501999999KA1240N+02131MA1999999099361MD1999999-0181MW1821REMSYN023 333 20213 59018 69944;
0096825710999991995010818004-05500-045267FM-12+017499999V0202301N00101045001CN0100001N1+02841+02311101021ADDAA106000091AG10000GF107991031021008001011001MA1999999099051MD1999999-0051REMSYN011 333 59005;
0115825710999991995010900004-05500-045267FM-12+017499999V0203601N00101004201CN0100001N1+02401+02331101251ADDAA106000091AG10000GF108991081051004501999999KA1240M+02961MA1999999099261MD1999999+0051REMSYN017 333 10296 58005;
0115825710999991995010912004-05500-045267FM-12+017499999V0202701N001019999999N0100001N1+02361+02261101451ADDAA106000091AG10000GF108991021081004501999999KA1240N+02101MA1999999099461MD1999999+0101REMSYN017 333 20210 58010;
0096825710999991995010918004-05500-045267FM-12+017499999V0202301N00101045001CN0100001N1+02801+02311101031ADDAA106000091AG10000GF107991031021008001011001MA1999999099051MD1999999+0001REMSYN011 333 58000;
0121825710999991995011000004-05500-045267FM-12+017499999V0200501N00211007501CN0100001N1+02491+02321101281ADDAA106000091AG10000GF108991081051008001999999KA1240M+02851MA1999999099291MD1999999+0031MW1131REMSYN017 333 10285 58003;
0115825710999991995011012004-05500-045267FM-12+017499999V0203201N00101045001CN0100001N1+02341+02151101471ADDAA106000091AG10000GF107991031021004501041001KA1240N+02031MA1999999099481MD1999999+0021REMSYN017 333 20203 58002;
0096825710999991995011018004-05500-045267FM-12+017499999V0203201N00101045001CN0100001N1+02881+02321101091ADDAA106000091AG10000GF107991041051008001011001MA1999999099121MD1999999+0071REMSYN011 333 58007;
0143825710999991995011100004-05500-045267FM-12+017499999V0209991C00001012001CN0100001N1+02201+02151101351ADDAA106001091AG10018AY191061AY261061GF107991071081008001001001KA1240M+02951MA1999999099351MD1999999+0061MW1021REMSYN023 333 10295 58006 60011;
0121825710999991995011112004-05500-045267FM-12+017499999V0202301N00101220001CN0100001N1+02541+02251101461ADDAA199700092AG10000GF105991031021004501001011KA1240N+01941MA1999999099461MD1999999-0021REMSYN023 333 20194 59002 67001;
0115825710999991995011200004-05500-045267FM-12+017499999V0201801N00101015001CN0100001N1+02541+02331101291ADDAA106000091AG10000GF105991051001017501051001KA1240M+03011MA1999999099311MD1999999-0041REMSYN017 333 10301 59004;
0135825710999991995011212004-05500-045267FM-12+017499999V0202301N00101004201CN0100001N1+02231+02171101501ADDAA124000591AG10006AY161061GF108991081051004501999999KA1240N+02021MA1999999099511MD1999999+0051MW1021REMSYN023 333 20202 58005 69964;
0096825710999991995011218004-05500-045267FM-12+017499999V0203201N00101045001CN0100001N1+02701+02261101161ADDAA106000091AG10000GF106991041021008001041001MA1999999099181MD1999999+0011REMSYN011 333 58001;
0115825710999991995011312004-05500-045267FM-12+017499999V0200901N00411004201CN0100001N1+02601+02351101391ADDAA106000091AG10000GF106991061051004501001001KA1240N+02021MA1999999099411MD1999999-0101REMSYN017 333 20202 59010;
0135825710999991995011400004-05500-045267FM-12+017499999V0209991C00001004201CN0100001N1+02121+02091101381ADDAA106010091AG10006AY161061GF108991081051004501999999KA1240M+03051MA1999999099381MD1999999+0041MW1911REMSYN023 333 10305 58004 60101;
0121825710999991995011412004-05500-045267FM-12+017499999V0202301N00101007501CN0100001N1+02211+02151101511ADDAA124010091AG10000GF108991081051008001999999KA1240N+01941MA1999999099501MD1999999+0091REMSYN023 333 20194 58009 60104;
0096825710999991995011418004-05500-045267FM-12+017499999V0203601N00101220001CN0100001N1+02981+02301101191ADDAA106000091AG10000GF104991021021008001031011MA1999999099211MD1999999+0141REMSYN011 333 58014;
0135825710999991995011512004-05500-045267FM-12+017499999V0202301N00101220001CN0100001N1+02401+02301101381ADDAA106000591AG10006AY161061GF103991011011008001011001KA1240M+03111MA1999999099381MD1999999+0001MW1131REMSYN023 333 10311 58000 69941;
0096825710999991995011518004-05500-045267FM-12+017499999V0200501N00101220001CN0100001N1+03211+02211101121ADDAA106000091AG10000GF103991031021008001001001MA1999999099161MD1999999-0051REMSYN011 333 59005;
0115825710999991995011612004-05500-045267FM-12+017499999V0200501N00101007501CN0100001N1+02621+02411101411ADDAA106000091AG10000GF106991061051008001001001KA1240N+02021MA1999999099441MD1999999-0081REMSYN017 333 20202 59008;
0115825710999991995011712004-05500-045267FM-12+017499999V0200501N00101007501CN0100001N1+02661+02431101471ADDAA106000091AG10000GF105991051021008001001001KA1240N+02171MA1999999099501MD1999999+0061REMSYN017 333 20217 58006;
0081825710999991995011718004-05500-045267FM-12+017499999V0200501N00211220001CN0100001N1+03141+02321999999ADDAA106000091AG10000GF103991999999008001999999MA1999999090142EQDQ01+090143APOSP 
0115825710999991995011812004-05500-045267FM-12+017499999V0200501N00101007501CN0100001N1+02631+02411101361ADDAA106000091AG10000GF107991071051008001001001KA1240N+02161MA1999999099391MD1999999-0111REMSYN017 333 20216 59011;
0096825710999991995011818004-05500-045267FM-12+017499999V0200901N00101220001CN0100001N1+03211+02271101051ADDAA106000091AG10000GF103991031021008001001001MA1999999099101MD1999999-0041REMSYN011 333 59004;
0131825710999991995011900004-05500-045267FM-12+017499999V0203201N00101220001CN0100001N1+02681+02431101071ADDAA106000091AG10000GA1001+999999999GF100991001001999999001001KA1240M+03271MA1999999099111MD1999999-0121REMSYN017 333 10327 59012;
0115825710999991995011912004-05500-045267FM-12+017499999V0203601N00101007501CN0100001N1+02551+02361101401ADDAA106000091AG10000GF107991061051008001011001KA1240N+02181MA1999999099431MD1999999+0041REMSYN017 333 20218 58004;
0096825710999991995011918004-05500-045267FM-12+017499999V0200501N00101220001CN0100001N1+03081+02371101961ADDAA106000091AG10000GF104991041021008001001001MA1999999099131MD1999999+0031REMSYN011 333 58003;
0115825710999991995012012004-05500-045267FM-12+017499999V0209999999999220001CN0100001N1+02661+02371101481ADDAA106000091AG10000GF103991031021008001001001KA1240N+02181MA1999999099511MD1999999+0081REMSYN017 333 20218 58008;
0096825710999991995012018004-05500-045267FM-12+017499999V0201401N00101220001CN0100001N1+03211+02241101171ADDAA106000091AG10000GF104991031021008001001011MA1999999099221MD1999999+0091REMSYN011 333 58009;
0131825710999991995012100004-05500-045267FM-12+017499999V0203201N00101220001CN0100001N1+02661+02371101231ADDAA106000091AG10000GA1001+999999999GF100991001001999999001001KA1240M+03271MA1999999099261MD1999999+0081REMSYN017 333 10327 58008;
0115825710999991995012112004-05500-045267FM-12+017499999V0203601N00101220001CN0100001N1+02681+02371101471ADDAA106000091AG10000GF102991021051008001001001KA1240N+02091MA1999999099501MD1999999-0011REMSYN017 333 20209 59001;
0096825710999991995012118004-05500-045267FM-12+017499999V0203201N00101220001CN0100001N1+03311+02151101051ADDAA106000091AG10000GF103991031021008001001001MA1999999099101MD1999999-0121REMSYN011 333 59012;
0137825710999991995012200004-05500-045267FM-12+017499999V0203201N00101220001CN0100001N1+02701+02331101161ADDAA106000091AG10000GA1001+999999999GF100991001001999999001001KA1240M+03431MA1999999099201MD1999999-0061MW1131REMSYN017 333 10343 59006;
0115825710999991995012212004-05500-045267FM-12+017499999V0203201N00101220001CN0100001N1+02521+02231101421ADDAA106000091AG10000GF103991021041008001001011KA1240N+01871MA1999999099451MD1999999-0051REMSYN017 333 20187 59005;
0115825710999991995012300004-05500-045267FM-12+017499999V0200501N00101220001CN0100001N1+02561+02231101401ADDAA106000091AG10000GF104991021021008001031001KA1240N+02061MA1999999099411MD1999999-0041REMSYN017 333 20206 59004;
0115825710999991995012412004-05500-045267FM-12+017499999V0203601N00101007501CN0100001N1+03631+02371101411ADDAA106000091AG10000GF107991071051008001001001KA1240N+02201MA1999999099441MD1999999+0031REMSYN017 333 20220 58003;
0134825710999991995012512004-05500-045267FM-12+017499999V0200501N003119999999N0100001N1+02711+02371101441ADDAA106000091AG10000GF105991999041008001071001KA1240N+02091MA1999999099471MD1999999+0031REMSYN017 333 20209 58003;EQDQ01+000062SCOTLC
0096825710999991995012518004-05500-045267FM-12+017499999V0201801N00101220001CN0100001N1+03231+02231100991ADDAA106000091AG10000GF104991041021008001001001MA1999999099041MD1999999+0011REMSYN011 333 58001;
0131825710999991995012600004-05500-045267FM-12+017499999V0209991C00001220001CN0100001N1+02661+02371101131ADDAA106000091AG10000GA1001+999999999GF100991001001999999001001KA1240M+03291MA1999999099171MD1999999-0011REMSYN017 333 10329 59001;
0115825710999991995012612004-05500-045267FM-12+017499999V0200501N00101007501CN0100001N1+02701+02371101371ADDAA106000091AG10000GF106991061051008001001001KA1240N+02121MA1999999099401MD1999999-0071REMSYN017 333 20212 59007;
0131825710999991995012700004-05500-045267FM-12+017499999V0203201N00101220001CN0100001N1+02761+02401101131ADDAA106000091AG10000GA1001+999999999GF100991001001999999001001KA1240M+03321MA1999999099171MD1999999+0001REMSYN017 333 10332 58000;
0115825710999991995012712004-05500-045267FM-12+017499999V0203201N00101220001CN0100001N1+02701+02411101331ADDAA106000091AG10000GF104991031021008001011001KA1240N+02181MA1999999099371MD1999999-0031REMSYN017 333 20218 59003;
0108825710999991995012718004-05500-045267FM-12+017499999V0202301N00101045001CN0100001N1+03171+02371100991ADDAA106095091AG10000GF105991031031008001031011MA1999999099041MD1999999+0001MW1021REMSYN017 333 58000 60951;
0131825710999991995012800004-05500-045267FM-12+017499999V0209991C00001220001CN0100001N1+02611+02391101121ADDAA106000091AG10000GA1001+999999999GF100991001001999999001001KA1240M+03241MA1999999099511MD1999999-0021REMSYN017 333 10324 59002;
0121825710999991995012812004-05500-045267FM-12+017499999V0200501N00101105001CN0100001N1+02581+02291101351ADDAA124000591AG10000GF105991021051008001031011KA1240N+02251MA1999999099381MD1999999+0011REMSYN023 333 20225 58001 69954;
0096825710999991995012818004-05500-045267FM-12+017499999V0200501N00101045001CN0100001N1+03051+02281101031ADDAA106000091AG10000GF106991031011008001011011MA1999999099071MD1999999+0031REMSYN011 333 58003;
0115825710999991995012912004-05500-045267FM-12+017499999V0200901N00101045001CN0100001N1+02651+02371101411ADDAA106000091AG10000GF106991041051008001031001KA1240N+02081MA1999999099441MD1999999+0061REMSYN017 333 20208 58006;
0162825710999991995013012004-05500-045267FM-12+017499999V0201301N052420075019N0100001N1+02301+02221101381ADDAA124008091AG10018AY191061AY261061GF108991081051008001999999KA1240N+02081MA1999999099401MD1999999-0041MW1021REMSYN023 333 20208 59004 60084;EQDQ01+005243WOSPD 
0096825710999991995013018004-05500-045267FM-12+017499999V0201401N00101007501CN0100001N1+03121+02171100981ADDAA106000091AG10000GF105991051021008001001001MA1999999099031MD1999999+0041REMSYN011 333 58004;
0115825710999991995013112004-05500-045267FM-12+017499999V0202701N00101007501CN0100001N1+02481+02361101291ADDAA106000091AG10000GF108991081051008001999999KA1240N+02001MA1999999099311MD1999999-0091REMSYN017 333 20200 59009;
0115825710999991995013118004-05500-045267FM-12+017499999V0200901N00101220001CN0100001N1+03201+02381100911ADDAA106000091AG10000GF104991999031008001001001MA1999999098951MD1999999-0081REMSYN011 333 59008;EQDQ01+000022SCOTLC
0115825710999991995020112004-05500-045267FM-12+017499999V0203601N00101045001CN0100001N1+02651+02371101391ADDAA106000091AG10000GF106991041021008001031001KA1240N+02081MA1999999099421MD1999999+0111REMSYN017 333 20208 58011;
0096825710999991995020118004-05500-045267FM-12+017499999V0200501N00411045001CN0100001N1+03281+02261100961ADDAA106000091AG10000GF106991041021008001011011MA1999999099011MD1999999+0061REMSYN011 333 58006;
0121825710999991995020200004-05500-045267FM-12+017499999V0209991C00001220001CN0100001N1+02681+02351101121ADDAA106000091AG10000GF103991031001017501041001KA1240M+03341MA1999999099151MD1999999+0091MW1131REMSYN017 333 10334 58009;
0134825710999991995020212004-05500-045267FM-12+017499999V0200501N002119999999N0100001N1+02701+02391101331ADDAA106000091AG10000GF105991999051004501001001KA1240N+02271MA1999999099361MD1999999-0061REMSYN017 333 20227 59006;EQDQ01+000072SCOTLC
0116825710999991995020218004-05500-045267FM-12+017499999V0200501N00211045001CN0100001N1+03101+02311100911ADDAA106000191AG10007AY161061GF106991041021008001031001MA1999999098961MD1999999-0051MW1021REMSYN017 333 59005 69911;
0115825710999991995020300004-05500-045267FM-12+017499999V0209991C00001220001CN0100001N1+02541+02421101201ADDAA106000091AG10000GF103991031001017501041001KA1240M+03151MA1999999099231MD1999999+0081REMSYN017 333 10315 58008;
0118825710999991995020312004-05500-045267FM-12+017499999V0201401N00211045001CN0100001N1+02351+02291101531ADDAG10007AY161061GF108991041071004501021999KA1240N+02121MA1999999099541MD1999999+0181MW1911REMSYN017 333 20212 58018;
0135825710999991995020412004-05500-045267FM-12+017499999V0202701N00101004201CN0100001N1+02381+02311101521ADDAA124057091AG10007AY161061GF108991081051004501999999KA1240N+02041MA1999999099521MD1999999-0021MW1021REMSYN023 333 20204 59002 60574;
0116825710999991995020418004-05500-045267FM-12+017499999V0202301N00211007501CN0100001N1+02641+02411101241ADDAA106000391AG10007AY161061GF108991081051008001999999MA1999999099251MD1999999+0071MW1021REMSYN017 333 58007 69931;
0135825710999991995020500004-05500-045267FM-12+017499999V0209991C00001045001CN0040001N1+02321+02291101521ADDAA106014091AG10007AY161061GF108991041071004501021999KA1240M+02751MA1999999099521MD1999999+0111MW1911REMSYN023 333 10275 58011 60141;
0121825710999991995020512004-05500-045267FM-12+017499999V0202701N00101004201CN0100001N1+02541+02351101601ADDAA124014091AG10000GF107991051021004501031001KA1240N+02111MA1999999099611MD1999999+0091REMSYN023 333 20211 58009 60144;
0116825710999991995020518004-05500-045267FM-12+017499999V0202701N00101007501CN0100001N1+02641+02501101231ADDAA106001091AG10007AY161061GF107991051021008001041001MA1999999099251MD1999999+0001MW1021REMSYN017 333 58000 60011;
0127825710999991995020612004-05500-045267FM-12+017499999V0209991C00001004201CN0100001N1+02331+02241101681ADDAA124010091AG10000GF108991081051004501999999KA1240N+02021MA1999999099671MD1999999+0061MW1021REMSYN023 333 20202 58006 60104;
0096825710999991995020618004-05500-045267FM-12+017499999V0203201N00101007501CN0100001N1+02761+02341101471ADDAA106000091AG10000GF107991071051008001001001MA1999999099481MD1999999+0231REMSYN011 333 58023;
0121825710999991995020700004-05500-045267FM-12+017499999V0209991C00001220001CN0100001N1+02421+02351101521ADDAA106000091AG10000GF104991041001017501041001KA1240M+02811MA1999999099531MD1999999-0091MW1131REMSYN017 333 10281 59009;
0096825710999991995020718004-05500-045267FM-12+017499999V0200501N00311220001CN0100001N1+03101+02341101341ADDAA106000091AG10000GF103991031021008001001001MA1999999099371MD1999999-0111REMSYN011 333 59011;
0115825710999991995020800004-05500-045267FM-12+017499999V0203201N00101220001CN0100001N1+02601+02351101391ADDAA106000091AG10000GF101991011001017501041001KA1240M+03151MA1999999099411MD1999999-0121REMSYN017 333 10315 59012;
0134825710999991995020812004-05500-045267FM-12+017499999V0200501N00211004201CN0100001N1+02481+02321101721ADDAA106000091AG10000GF106991061021004501001001KA1240N+02101MA1999999099721MD1999999-0031REMSYN017 333 20210 59003;EQDQ01+999990APOSP 
0096825710999991995020818004-05500-045267FM-12+017499999V0203601N00101220001CN0100001N1+03021+02021101281ADDAA106000091AG10000GF103991031021008001001001MA1999999099231MD1999999-0051REMSYN011 333 59005;
0135825710999991995020900004-05500-045267FM-12+017499999V0200501N00211004201CN0040001N1+02421+02301101511ADDAA106002091AG10007AY161061GF106991061051004501001001KA1240M+03191MA1999999099531MD1999999+0121MW1911REMSYN023 333 10319 58012 60021;
0127825710999991995020912004-05500-045267FM-12+017499999V0202701N00101045001CN0100001N1+02501+02301101921ADDAA124002091AG10000GF106991031021004501031001KA1240N+02101MA1999999099921MD1999999+0191MW1021REMSYN023 333 20210 58019 60024;
0096825710999991995020918004-05500-045267FM-12+017499999V0203601N00101045001CN0100001N1+03121+02251101461ADDAA106000091AG10000GF106991041021008001011001MA1999999099511MD1999999+0191REMSYN011 333 58019;
0115825710999991995021000004-05500-045267FM-12+017499999V0203201N00101220001CN0100001N1+02581+02371101611ADDAA106000091AG10000GF104991021021008001011001KA1240M+03171MA1999999099631MD1999999+0101REMSYN017 333 10317 58010;
0115825710999991995021012004-05500-045267FM-12+017499999V0203201N00101004201CN0100001N1+02411+02301101761ADDAA106000091AG10000GF108991081051004501999999KA1240N+02141MA1999999099771MD1999999-0151REMSYN017 333 20214 59015;
0096825710999991995021018004-05500-045267FM-12+017499999V0203601N00101220001CN0100001N1+02981+02351101271ADDAA106000091AG10000GF103991021021008001011001MA1999999099301MD1999999-0211REMSYN011 333 59021;
0143825710999991995021100004-05500-045267FM-12+017499999V0209991C00001007501CN0100001N1+02381+02281101591ADDAA106003091AG10020AY191061AY261061GF108991081051008001999999KA1240M+03151MA1999999099591MD1999999-0041MW1131REMSYN023 333 10315 59004 60031;
0135825710999991995021112004-05500-045267FM-12+017499999V0203601N00211004201CN0100001N1+02561+02351101611ADDAA124005091AG10007AY161061GF106991061051004501001001KA1240N+02081MA1999999099621MD1999999-0151MW1031REMSYN023 333 20208 59015 60054;
0116825710999991995021118004-05500-045267FM-12+017499999V0201401N00411045001CN0100001N1+02841+02421101171ADDAA106004091AG10007AY161061GF106991031021008001041001MA1999999099191MD1999999-0111MW1021REMSYN017 333 59011 60041;
0121825710999991995021200004-05500-045267FM-12+017499999V0203201N00211007501CN0100001N1+02581+02381101411ADDAA106000091AG10000GF107991071051008001001001KA1240M+03091MA1999999099431MD1999999-0121MW1131REMSYN017 333 10309 59012;
0115825710999991995021300004-05500-045267FM-12+017499999V0203201N00101220001CN0100001N1+02571+02351101331ADDAA106000091AG10000GF103991031001017501041001KA1240M+03181MA1999999099351MD1999999-0081REMSYN017 333 10318 59008;
0115825710999991995021312004-05500-045267FM-12+017499999V0202701N00101007501CN0100001N1+02461+02301101561ADDAA106000091AG10000GF108991081051008001999999KA1240N+02121MA1999999099571MD1999999+0041REMSYN017 333 20212 58004;
0096825710999991995021318004-05500-045267FM-12+017499999V0203201N00101045001CN0100001N1+03021+02341101131ADDAA106000091AG10000GF106991041021008001041001MA1999999099171MD1999999+0011REMSYN011 333 58001;
0121825710999991995021400004-05500-045267FM-12+017499999V0209991C00001220001CN0100001N1+02581+02421101281ADDAA106000091AG10000GF102991021001017501041001KA1240M+03161MA1999999099301MD1999999-0051MW1131REMSYN017 333 10316 59005;
0115825710999991995021412004-05500-045267FM-12+017499999V0200501N00101007501CN0100001N1+02521+02381101491ADDAA106000091AG10000GF106991061051008001001001KA1240N+02181MA1999999099511MD1999999-0061REMSYN017 333 20218 59006;
0096825710999991995021418004-05500-045267FM-12+017499999V0203201N00101007501CN0100001N1+03071+02351101071ADDAA106000091AG10000GF106991051021008001001011MA1999999099111MD1999999-0061REMSYN011 333 59006;
0121825710999991995021500004-05500-045267FM-12+017499999V0203201N00101220001CN0100001N1+02521+02361101271ADDAA106000091AG10000GF102991011031008001041001KA1240M+03131MA1999999099291MD1999999-0011MW1131REMSYN017 333 10313 59001;
0143825710999991995021512004-05500-045267FM-12+017499999V0202701N00101007501CN0100001N1+02361+02291101521ADDAA124005091AG10020AY191061AY261061GF108991081051008001999999KA1240N+02081MA1999999099531MD1999999+0021MW1021REMSYN023 333 20208 58002 60054;
0115825710999991995021518004-05500-045267FM-12+017499999V0203201N00101045001CN0100001N1+03101+02441101121ADDAA106000091AG10000GF106991031021008001011001MA1999999099171MD1999999-0051REMSYN011 333 59005;EQDQ01+999990APOSP 
0115825710999991995021600004-05500-045267FM-12+017499999V0200501N00211004201CN0100001N1+02521+02291101351ADDAA106000091AG10000GF106991061051004501001001KA1240M+03191MA1999999099361MD1999999+0071REMSYN017 333 10319 58007;
0115825710999991995021612004-05500-045267FM-12+017499999V0203201N00101007501CN0100001N1+02481+02251101321ADDAA106000091AG10000GF106991061021008001001001KA1240N+02101MA1999999099341MD1999999-0191REMSYN017 333 20210 59019;
0096825710999991995021618004-05500-045267FM-12+017499999V0203201N00101220001CN0100001N1+03011+02371101001ADDAA106000091AG10000GF103991021031008001011001MA1999999099041MD1999999-0121REMSYN011 333 59012;
0121825710999991995021700004-05500-045267FM-12+017499999V0202701N00101045001CN0100001N1+02421+02211101161ADDAA106000091AG10000GF106991031061008001021001KA1240M+03111MA1999999099181MD1999999-0181MW1131REMSYN017 333 10311 59018;
0121825710999991995021800004-05500-045267FM-12+017499999V0203201N00101220001CN0100001N1+02451+02271101101ADDAA106000091AG10000GF102991021081008001001001KA1240M+02901MA1999999099121MD1999999-0061MW1131REMSYN017 333 10290 59006;
0096825710999991995021918004-05500-045267FM-12+017499999V0203201N00101220001CN0100001N1+02981+02331100891ADDAA106000091AG10000GF104991021021008001011001MA1999999098921MD1999999-0061REMSYN011 333 59006;
0135825710999991995022000004-05500-045267FM-12+017499999V0203201N00101007501CN0100001N1+02401+02301101031ADDAA106002091AG10007AY161061GF106991061051008001001001KA1240M+03111MA1999999099041MD1999999-0171MW1131REMSYN023 333 10311 59017 60021;
0135825710999991995022012004-05500-045267FM-12+017499999V0203201N00101007501CN0100001N1+02341+02291101271ADDAA124025091AG10007AY161061GF108991081051008001999999KA1240N+00261MA1999999099281MD1999999-0031MW1021REMSYN023 333 20026 59003 60254;
0115825710999991995022018004-05500-045267FM-12+017499999V0201401N00101220001CN0100001N1+02071+99999100921ADDAA106000091AG10000GF104991999021008001001001MA1999999098961MD1999999+0041REMSYN011 333 58004;EQDQ01+000052SCOTLC
0121825710999991995022100004-05500-045267FM-12+017499999V0209991C00001007501CN0100001N1+02581+02461101051ADDAA106000091AG10000GF108991081051008001999999KA1240M+03201MA1999999099071MD1999999+0031MW1131REMSYN017 333 10320 58003;
0115825710999991995022112004-05500-045267FM-12+017499999V0202301N00101007501CN0100001N1+02401+02261101291ADDAA106000091AG10000GF108991081051008001999999KA1240N+02091MA1999999099311MD1999999+0031REMSYN017 333 20209 58003;
0102825710999991995022118004-05500-045267FM-12+017499999V0203201N00101220001CN0100001N1+03081+02241100821ADDAA106000091AG10000GF104991031021008001001011MA1999999098871MD1999999-0071MW1171REMSYN011 333 59007;
0143825710999991995022200004-05500-045267FM-12+017499999V0203601N00101007501CN0040001N1+02251+02211101231ADDAA106003091AG10020AY191061AY261061GF108991081051008001999999KA1240M+03181MA1999999099231MD1999999+0161MW1131REMSYN023 333 10318 58016 60031;
0154825710999991995022212004-05500-045267FM-12+017499999V0200501N00101045001CN0100001N1+02381+02261101371ADDAA124005091AG10007AY161061GF106991031051008001031001KA1240N+02051MA1999999099371MD1999999+0061MW1021REMSYN023 333 20205 58006 60054;EQDQ01+999990APOSLP
0096825710999991995022218004-05500-045267FM-12+017499999V0203201N00101045001CN0100001N1+03031+02341100941ADDAA106000091AG10000GF105991031031008001031001MA1999999098971MD1999999+0101REMSYN011 333 58010;
0127825710999991995022300004-05500-045267FM-12+017499999V0201401N00311004201CN0100001N1+02311+02251101261ADDAA106003091AG10000GF108991081051004501999999KA1240M+03081MA1999999099271MD1999999+0041MW1911REMSYN023 333 10308 58004 60031;
0135825710999991995022312004-05500-045267FM-12+017499999V0203201N00101007501CN0100001N1+02321+02321101401ADDAA124004091AG10007AY161061GF108991081051008001999999KA1240N+02051MA1999999099401MD1999999+0031MW1021REMSYN023 333 20205 58003 60044;
0108825710999991995022318004-05500-045267FM-12+017499999V0202701N00101045001CN0100001N1+02781+02561101001ADDAA106000591AG10000GF107991031031008001011001MA1999999099021MD1999999-0051MW1911REMSYN017 333 59005 69941;
0129825710999991995022400004-05500-045267FM-12+017499999V0209991C00001220001CN0100001N1+02291+02231101231ADDAA106000091AG10020AY191061GF102991021001017501041001KA1240M+03021MA1999999099231MD1999999-0041MW1131REMSYN017 333 10302 59004;
0121825710999991995022412004-05500-045267FM-12+017499999V0203201N00101045001CN0100001N1+02521+02381101401ADDAA124000591AG10000GF108991041051008001021011KA1240N+02051MA1999999099411MD1999999+0011REMSYN023 333 20205 58001 69944;
0096825710999991995022418004-05500-045267FM-12+017499999V0203201N00101045001CN0100001N1+02761+02441101041ADDAA106000091AG10000GF108991031031008001041011MA1999999099061MD1999999+0041REMSYN011 333 58004;
0145825710999991995022500004-05500-045267FM-12+017499999V0202301N00101220001CN0100001N1+02441+02231101211ADDAA106000091AG10020AY191061GA1001+999999999GF100991001001999999001001KA1240M+03021MA1999999099231MD1999999+0001MW1001REMSYN017 333 10302 58000;
0115825710999991995022512004-05500-045267FM-12+017499999V0203201N00101007501CN0100001N1+02531+02321101501ADDAA106000091AG10000GF107991071051008001001001KA1240N+02061MA1999999099511MD1999999+0101REMSYN017 333 20206 58010;
0096825710999991995022518004-05500-045267FM-12+017499999V0203201N00101045001CN0100001N1+02981+02421101121ADDAA106000091AG10000GF106991031031008001041011MA1999999099151MD1999999+0091REMSYN011 333 58009;
0135825710999991995022612004-05500-045267FM-12+017499999V0203601N00101007501CN0100001N1+02261+02181101651ADDAA124013091AG10007AY161061GF108991081051008001999999KA1240N+01981MA1999999099641MD1999999+0131MW1021REMSYN023 333 20198 58013 60134;
0096825710999991995022618004-05500-045267FM-12+017499999V0201401N00311220001CN0100001N1+02901+02321101221ADDAA106000091AG10000GF104991041021008001001001MA1999999099241MD1999999+0091REMSYN011 333 58009;
0115825710999991995022712004-05500-045267FM-12+017499999V0203201N00101220001CN0100001N1+02441+02131101471ADDAA106000091AG10000GF103991031001017501031001KA1240N+01961MA1999999099481MD1999999-0161REMSYN017 333 20196 59016;
0115825710999991995022718004-05500-045267FM-12+017499999V0200901N001012200019N9999999N9+03081+02291101081ADDAA106000091AG10000GF105991031021008001001011MA1999999099121MD1999999-0121REMSYN011 333 59012;EQDQ01+000002VOVAR 
0131825710999991995022800004-05500-045267FM-12+017499999V0203201N00101220001CN0100001N1+02501+02321101131ADDAA106000091AG10000GA1001+999999999GF100991001001999999001001KA1240M+03111MA1999999099151MD1999999-0251REMSYN017 333 10311 59025;
0115825710999991995022812004-05500-045267FM-12+017499999V0203201N00101007501CN0100001N1+02501+02361101361ADDAA106000091AG10000GF108991081051008001999999KA1240N+01961MA1999999099381MD1999999-0101REMSYN017 333 20196 59010;
0135825710999991995030112004-05500-045267FM-12+017499999V0202701N001019999999N0100001N1+02441+02391101501ADDAA124012091AG10006AY161061GF108991999999008001999999KA1240N+02161MA1999999099511MD1999999-0131MW1021REMSYN023 333 20216 59013 60124;
0096825710999991995030118004-05500-045267FM-12+017499999V0203201N00211045001CN0100001N1+02941+02431101101ADDAA106000091AG10000GF105991031021008001041001MA1999999099131MD1999999+0251REMSYN011 333 58025;
0096825710999991995030218004-05500-045267FM-12+017499999V0200501N00311045001CN0100001N1+03031+02261101191ADDAA106000091AG10000GF105991031021008001011001MA1999999099211MD1999999+0081REMSYN011 333 58008;
0127825710999991995030312004-05500-045267FM-12+017499999V0203201N00211004201CN0020001N1+02221+02171101561ADDAA124006091AG10000GF108991081051004501999999KA1240N+02081MA1999999099561MD1999999+0141MW1911REMSYN023 333 20208 58014 60064;
0116825710999991995030318004-05500-045267FM-12+017499999V0200501N00211007501CN0100001N1+03041+02451101071ADDAA106000191AG10006AY161061GF105991051021008001001001MA1999999099111MD1999999-0101MW1171REMSYN017 333 59010 69921;
0143825710999991995030400004-05500-045267FM-12+017499999V0202301N00101220001CN0100001N1+02341+02271101331ADDAA106002091AG10018AY191061AY261061GF103991031051004501001001KA1240M+03121MA1999999099331MD1999999+0041MW1131REMSYN023 333 10312 58004 60021;
0135825710999991995030412004-05500-045267FM-12+017499999V0202701N00101045001CN0100001N1+02471+02361101461ADDAA124004091AG10006AY161061GF105991041021004501031001KA1240N+02051MA1999999099471MD1999999-0091MW1021REMSYN023 333 20205 59009 60044;
0096825710999991995030418004-05500-045267FM-12+017499999V0203601N00211220001CN0100001N1+03021+02461100991ADDAA106000091AG10000GF104991031021008001011001MA1999999099021MD1999999-0091REMSYN011 333 59009;
0154825710999991995030500004-05500-045267FM-12+017499999V0209991C00001220001CN0100001N1+02441+02341101141ADDAA106001091AG10006AY161061GF101991999011008001001001KA1240M+03111MA1999999099161MD1999999-0171MW1021REMSYN023 333 10311 59017 60011;EQDQ01+000082SCOTLC
0121825710999991995030512004-05500-045267FM-12+017499999V0200501N00211004201CN0100001N1+02641+02421101391ADDAA124001091AG10000GF105991051021004501001001KA1240N+02181MA1999999099411MD1999999-0061REMSYN023 333 20218 59006 60014;
0096825710999991995030518004-05500-045267FM-12+017499999V0200501N00311220001CN0100001N1+03111+02341101011ADDAA106000091AG10000GF104991031021008001011001MA1999999099051MD1999999+0031REMSYN011 333 58003;
0131825710999991995030600004-05500-045267FM-12+017499999V0209991C00001220001CN0100001N1+02501+02321101131ADDAA106000091AG10000GA1001+999999999GF100991001001999999001001KA1240M+03161MA1999999099151MD1999999-0011REMSYN017 333 10316 59001;
0115825710999991995030612004-05500-045267FM-12+017499999V0202701N00101220001CN0100001N1+02541+02381101311ADDAA106000091AG10000GF104991021021004501001041KA1240N+02021MA1999999099331MD1999999-0081REMSYN017 333 20202 59008;
0096825710999991995030618004-05500-045267FM-12+017499999V0203201N00101220001CN0100001N1+03181+02221100981ADDAA106000091AG10000GF103991021021008001011001MA1999999099021MD1999999-0031REMSYN011 333 59003;
0115825710999991995030700004-05500-045267FM-12+017499999V0209991C00001220001CN0100001N1+02541+02331101081ADDAA106000091AG10000GF101991011001017501031001KA1240M+03221MA1999999099111MD1999999-0041REMSYN017 333 10322 59004;
0115825710999991995030712004-05500-045267FM-12+017499999V0200501N00211004201CN0100001N1+02521+02361101341ADDAA106000091AG10000GF108991081051004501999999KA1240N+02121MA1999999099361MD1999999+0031REMSYN017 333 20212 58003;
0096825710999991995030718004-05500-045267FM-12+017499999V0202701N00101220001CN0100001N1+03081+02401100921ADDAA106000091AG10000GF103991031021008001001001MA1999999098961MD1999999-0061REMSYN011 333 59006;
0121825710999991995030800004-05500-045267FM-12+017499999V0203201N00101220001CN0100001N1+02541+02361100981ADDAA106000091AG10000GF101991011021008001001001KA1240M+03171MA1999999099011MD1999999-0101MW1131REMSYN017 333 10317 59010;
0096825710999991995030818004-05500-045267FM-12+017499999V0203601N00211220001CN0100001N1+03221+02341100841ADDAA106000091AG10000GF104991041021008001001001MA1999999098891MD1999999-0071REMSYN011 333 59007;
0143825710999991995030912004-05500-045267FM-12+017499999V0200901N00101045001CN0100001N1+02511+02291101351ADDAA124002091AG10018AY191061AY261061GF106991031021008001011001KA1240N+02021MA1999999099371MD1999999+0081MW1021REMSYN023 333 20202 58008 60024;
0076825710999991995030918004-05500-045267FM-12+017499999V0203601N00211045001CN0100001N1+03101+02491100971ADDAA106000091AG10000GF106991041021008001011001MA1999999099011REMSYN005 333;
0129825710999991995031000004-05500-045267FM-12+017499999V0202301N00101220001CN0100001N1+02401+02331101301ADDAA106000091AG10018AY191061GF103991031001017501011001KA1240M+03171MA1999999099311MD1999999+0241MW1131REMSYN017 333 10317 58024;
0115825710999991995031012004-05500-045267FM-12+017499999V0203601N00211220001CN0100001N1+02701+02411101421ADDAA106000091AG10000GF104991041021004501001001KA1240N+02081MA1999999099441MD1999999+0071REMSYN017 333 20208 58007;
0096825710999991995031018004-05500-045267FM-12+017499999V0200501N00211220001CN0100001N1+03181+02471100991ADDAA106000091AG10000GF104991041021008001001001MA1999999099031MD1999999+0021REMSYN011 333 58002;
0127825710999991995031112004-05500-045267FM-12+017499999V0209991C00001004201CN0100001N1+02321+02271101481ADDAA124000591AG10000GF108991081051004501999999KA1240N+02121MA1999999099481MD1999999+0041MW1911REMSYN023 333 20212 58004 69954;
0116825710999991995031118004-05500-045267FM-12+017499999V0202301N00101004201CN0100001N1+02491+02381101191ADDAA106003091AG10006AY161061GF108991081051004501999999MA1999999099201MD1999999+0171MW1911REMSYN017 333 58017 60031;
0115825710999991995031200004-05500-045267FM-12+017499999V0209991C00001004201CN0100001N1+02421+02401101371ADDAA106000091AG10000GF107991071051004501001001KA1240M+02551MA1999999099371MD1999999+0001REMSYN017 333 10255 58000;
0121825710999991995031212004-05500-045267FM-12+017499999V0201801N00211007501CN0100001N1+02401+02351101211ADDAA124003091AG10000GF108991081051008001999999KA1240N+02141MA1999999099221MD1999999-0261REMSYN023 333 20214 59026 60034;
0096825710999991995031218004-05500-045267FM-12+017499999V0203201N00101045001CN0100001N1+02781+02501100801ADDAA106000091AG10000GF107991041031008001041001MA1999999098831MD1999999-0371REMSYN011 333 59037;
0096825710999991995031318004-05500-045267FM-12+017499999V0200501N00101220001CN0100001N1+03071+02321100651ADDAA106000091AG10000GF104991041021008001001001MA1999999098691MD1999999-0141REMSYN011 333 59014;
0135825710999991995031412004-05500-045267FM-12+017499999V0203201N00101004201CN0100001N1+02191+02151101281ADDAA124060091AG10006AY161061GF108991081051004501999999KA1240N+02001MA1999999099281MD1999999+0091MW1921REMSYN023 333 20200 58009 60604;
0116825710999991995031418004-05500-045267FM-12+017499999V0202701N00101007501CN0100001N1+02801+02381100931ADDAA106006091AG10006AY161061GF106991051021008001041001MA1999999098951MD1999999+0261MW1031REMSYN017 333 58026 60061;
0135825710999991995031500004-05500-045267FM-12+017499999V0202301N00101007501CN0100001N1+02281+02231101221ADDAA106000391AG10001AY151061GF107991071091008001001001KA1240M+02881MA1999999099221MD1999999+0151MW1131REMSYN023 333 10288 58015 69931;
0121825710999991995031512004-05500-045267FM-12+017499999V0200901N00211045001CN0100001N1+02601+02291101291ADDAA124006091AG10000GF106991031021004501041001KA1240N+01991MA1999999099301MD1999999+0021REMSYN023 333 20199 58002 60064;
0121825710999991995031600004-05500-045267FM-12+017499999V0203201N00101045001CN0100001N1+02611+02291101221ADDAA106000091AG10000GF107991021031008001031001KA1240M+03111MA1999999099251MD1999999+0031MW1131REMSYN017 333 10311 58003;
0115825710999991995031612004-05500-045267FM-12+017499999V0200501N00101007501CN0100001N1+02701+02451101261ADDAA106000091AG10000GF106991051021008001051001KA1240N+02181MA1999999099291MD1999999-0011REMSYN017 333 20218 59001;
0096825710999991995031618004-05500-045267FM-12+017499999V0200501N00211045001CN0100001N1+03101+02461100971ADDAA106000091AG10000GF106991041021008001011001MA1999999099021MD1999999+0081REMSYN011 333 58008;
0115825710999991995031700004-05500-045267FM-12+017499999V0202301N00101220001CN0100001N1+02381+02351101261ADDAA106000091AG10000GF102991021001017501031001KA1240M+03201MA1999999099281MD1999999+0031REMSYN017 333 10320 58003;
0115825710999991995031712004-05500-045267FM-12+017499999V0202301N00101007501CN0100001N1+02411+02371101461ADDAA106000091AG10000GF108991081051008001999999KA1240N+02061MA1999999099471MD1999999+0181REMSYN017 333 20206 58018;
0096825710999991995031718004-05500-045267FM-12+017499999V0203201N00101045001CN0100001N1+03061+02351100991ADDAA106000091AG10000GF105991041021008001041001MA1999999099031MD1999999+0011REMSYN011 333 58001;
0143825710999991995031800004-05500-045267FM-12+017499999V0209991C00001007501CN0100001N1+02481+02451101321ADDAA106003091AG10018AY191061AY261061GF107991071051008001001001KA1240M+03191MA1999999099331MD1999999+0051MW1131REMSYN023 333 10319 58005 60031;
0121825710999991995031812004-05500-045267FM-12+017499999V0202301N00101045001CN0100001N1+02501+02471101521ADDAA199003091AG10000GF107991041051008001011001KA1240N+02121MA1999999099531MD1999999+0061REMSYN023 333 20212 58006 60036;
0108825710999991995031818004-05500-045267FM-12+017499999V0202301N00211045001CN0100001N1+02711+02501101081ADDAA106001091AG10000GF107991041031008001011001MA1999999099101MD1999999+0071MW1951REMSYN017 333 58007 69971;
0135825710999991995031900004-05500-045267FM-12+017499999V0209991C00001220001CN0100001N1+02441+02411101311ADDAA106002091AG10006AY161061GF102991021001017501041001KA1240M+03111MA1999999099321MD1999999-0011MW1131REMSYN023 333 10311 59001 60021;
0121825710999991995031912004-05500-045267FM-12+017499999V0202301N00101007501CN0100001N1+02511+02401101451ADDAA124003091AG10000GF106991061021008001001001KA1240N+02121MA1999999099461MD1999999-0071REMSYN023 333 20212 59007 60034;
0143825710999991995032000004-05500-045267FM-12+017499999V0203201N00101220001CN0100001N1+02381+02311101341ADDAA106001091AG10018AY191061AY261061GF103991021031004501041001KA1240M+03151MA1999999099351MD1999999+0031MW1171REMSYN023 333 10315 58003 60011;
0121825710999991995032012004-05500-045267FM-12+017499999V0203201N00101220001CN0100001N1+02571+02271101501ADDAA124001091AG10000GF103991021011008001031001KA1240N+02091MA1999999099511MD1999999+0051REMSYN023 333 20209 58005 60014;
0121825710999991995032100004-05500-045267FM-12+017499999V0209991C00001220001CN0100001N1+02541+02441101331ADDAA106000091AG10000GF102991021031008001001001KA1240M+03081MA1999999099351MD1999999+0001MW1131REMSYN017 333 10308 58000;
0121825710999991995032112004-05500-045267FM-12+017499999V0200501N00311004201CN0100001N1+02601+02351101471ADDAA124001091AG10000GF106991061021004501001001KA1240N+02141MA1999999099491MD1999999-0021REMSYN023 333 20214 59002 60014;
0096825710999991995032118004-05500-045267FM-12+017499999V0203201N00101220001CN0100001N1+03091+02401101041ADDAA106000091AG10000GF104991031021008001001011MA1999999099081MD1999999-0101REMSYN011 333 59010;
0131825710999991995032200004-05500-045267FM-12+017499999V0209991C00001220001CN0100001N1+02501+02381101171ADDAA106000091AG10000GA1001+999999999GF100991001001999999001001KA1240M+03181MA1999999099191MD1999999-0161REMSYN017 333 10318 59016;
0135825710999991995032212004-05500-045267FM-12+017499999V0203601N00101220001CN0100001N1+02641+02421101251ADDAA124005091AG10006AY161061GF104991041021008001001001KA1240N+02141MA1999999099271MD1999999-0221MW1011REMSYN023 333 20214 59022 60054;
0108825710999991995032218004-05500-045267FM-12+017499999V0202301N00101007501CN0100001N1+02941+02471100811ADDAA106000191AG10000GF106991061031008001001001MA1999999098851MD1999999-0231MW1951REMSYN017 333 59023 69921;
0137825710999991995032300004-05500-045267FM-12+017499999V0209991C00001220001CN0100001N1+02401+02351100951ADDAA106000091AG10000GA1001+999999999GF100991001001999999001001KA1240M+03161MA1999999098981MD1999999-0211MW1131REMSYN017 333 10316 59021;
0140825710999991995032312004-05500-045267FM-12+017499999V0202701N00101007501CN0100001N1+02501+02431101201ADDAA124000191AG10000GF106991061051008001001001KA1240M+99999MA1999999099221MD1999999-0071REMSYN023 333 10215 59007 69924;EQDQ01 +02152ATMX  
0096825710999991995032318004-05500-045267FM-12+017499999V0200501N00101220001CN0100001N1+03121+02461100651ADDAA106000091AG10000GF103991031021008001001001MA1999999098701MD1999999-0151REMSYN011 333 59015;
0115825710999991995032412004-05500-045267FM-12+017499999V0202701N00101007501CN0100001N1+02401+02311101681ADDAA106000091AG10000GF108991081051008001999999KA1240N+02071MA1999999099681MD1999999+0461REMSYN017 333 20207 58046;
0115825710999991995032418004-05500-045267FM-12+017499999V0203201N00101045001CN0100001N1+03021+02461999999ADDAA106000091AG10000GF107991031021008001041011MA1999999098812MD1999999+0111REMSYN011 333 58011;EQDQ01+098813APOSP 
0127825710999991995032500004-05500-045267FM-12+017499999V0201401N00101004201CN0100001N1+02461+02341101141ADDAA106000591AG10000GF108991081051004501999999KA1240M+03131MA1999999099161MD1999999+0081MW1911REMSYN023 333 10313 58008 69951;
0143825710999991995032512004-05500-045267FM-12+017499999V0202301N00101007501CN0100001N1+02381+02331101391ADDAA124023091AG10018AY191061AY261061GF108991081051008001999999KA1240N+02041MA1999999099401MD1999999-0281MW1021REMSYN023 333 20204 59028 60234;
0096825710999991995032518004-05500-045267FM-12+017499999V0203201N00101220001CN0100001N1+03061+02381100961ADDAA106000091AG10000GF105991031021008001001011MA1999999099001MD1999999+0191REMSYN011 333 58019;
0131825710999991995032600004-05500-045267FM-12+017499999V0203201N00101220001CN0100001N1+02581+02451101131ADDAA106000091AG10000GA1001+999999999GF100991001001999999001001KA1240M+03191MA1999999099151MD1999999-0011REMSYN017 333 10319 59001;
0135825710999991995032612004-05500-045267FM-12+017499999V0203201N00101007501CN0100001N1+02441+02411101341ADDAA124001091AG10006AY161061GF108991081051008001999999KA1240N+02101MA1999999099361MD1999999-0041MW1021REMSYN023 333 20210 59004 69984;
0116825710999991995032618004-05500-045267FM-12+017499999V0202301N00311220001CN0100001N1+02941+02561100921ADDAA106000591AG10006AY161061GF106991031021008001001011MA1999999098951MD1999999-0051MW1021REMSYN017 333 59005 69961;
0129825710999991995032800004-05500-045267FM-12+017499999V0203201N00101220001CN0100001N1+02591+02441101051ADDAA106000091AG10018AY191061GF103991031001017501031001KA1240M+03211MA1999999099071MD1999999-0071MW1171REMSYN017 333 10321 59007;
0096825710999991995032818004-05500-045267FM-12+017499999V0203201N00101045001CN0100001N1+03061+02451100751ADDAA106000091AG10000GF106991031031008001011001MA1999999098801MD1999999+0061REMSYN011 333 58006;
0135825710999991995032900004-05500-045267FM-12+017499999V0203201N00311007501CN0100001N1+02471+02391101141ADDAA106000591AG10018AY191061GF108991081051008001999999KA1240M+03151MA1999999099151MD1999999+0081MW1911REMSYN023 333 10315 58008 69951;
0143825710999991995032912004-05500-045267FM-12+017499999V0203201N00101007501CN0100001N1+02421+02391101351ADDAA124028091AG10018AY191061AY261061GF108991081051008001999999KA1240N+02111MA1999999099361MD1999999+0061MW1021REMSYN023 333 20211 58006 60284;
0096825710999991995032918004-05500-045267FM-12+017499999V0203601N00101220001CN0100001N1+03101+02411100881ADDAA106000091AG10000GF103991031021008001001001MA1999999098921MD1999999+0121REMSYN011 333 58012;
0137825710999991995033000004-05500-045267FM-12+017499999V0202701N00101220001CN0100001N1+02601+02481101111ADDAA106000091AG10000GA1001+999999999GF100991001001999999001001KA1240M+03171MA1999999099141MD1999999-0011MW1131REMSYN017 333 10317 59001;
0115825710999991995033012004-05500-045267FM-12+017499999V0203601N00101007501CN0100001N1+02561+02361101291ADDAA106000091AG10000GF106991061051008001001001KA1240N+02161MA1999999099321MD1999999-0041REMSYN017 333 20216 59004;
0096825710999991995033018004-05500-045267FM-12+017499999V0203601N00311220001CN0100001N1+03061+02381100821ADDAA106000091AG10000GF102991021021008001001001MA1999999098871MD1999999-0051REMSYN011 333 59005;
0131825710999991995033100004-05500-045267FM-12+017499999V0209991C00001220001CN0100001N1+02481+02361101091ADDAA106000091AG10000GA1001+999999999GF100991001001999999001001KA1240M+03161MA1999999099111MD1999999-0031REMSYN017 333 10316 59003;
0115825710999991995033112004-05500-045267FM-12+017499999V0200501N00101007501CN0100001N1+02541+02001101241ADDAA106000091AG10000GF108991081051008001999999KA1240N+02161MA1999999099261MD1999999-0061REMSYN017 333 20216 59006;
0096825710999991995033118004-05500-045267FM-12+017499999V0200501N00101220001CN0100001N1+03121+02361100871ADDAA106000091AG10000GF103991031021008001001001MA1999999098921MD1999999+0051REMSYN011 333 58005;
0137825710999991995040100004-05500-045267FM-12+017499999V0209991C00001220001CN0100001N1+02601+02481100951ADDAA106000091AG10000GA1001+999999999GF100991001001999999001001KA1240M+03191MA1999999098981MD1999999-0131MW1131REMSYN017 333 10319 59013;
0135825710999991995040112004-05500-045267FM-12+017499999V0203201N00101220001CN0100001N1+02581+02331101261ADDAA124001091AG10006AY161061GF102991021001017501031001KA1240N+02251MA1999999099291MD1999999+0031MW1021REMSYN023 333 20225 58003 60014;
0115825710999991995040118004-05500-045267FM-12+017499999V0203601N00211220001CN0100001N1+03041+02481100791ADDAA106000091AG10000GF104991999021008001001001MA1999999098841MD1999999-0081REMSYN011 333 59008;EQDQ01+000032SCOTLC
0143825710999991995040200004-05500-045267FM-12+017499999V0209991C00001004201CN0040001N1+02341+02311101261ADDAA106011091AG10017AY191061AY261061GF108991081051004501999999KA1240M+03111MA1999999099271MD1999999+0291MW1131REMSYN023 333 10311 58029 60111;
0135825710999991995040212004-05500-045267FM-12+017499999V0202301N00101004201CN0100001N1+02441+02321101371ADDAA124012091AG10006AY161061GF108991081051004501999999KA1240N+02161MA1999999099381MD1999999+0091MW1021REMSYN023 333 20216 58009 60124;
0096825710999991995040218004-05500-045267FM-12+017499999V0203601N00211045001CN0100001N1+03041+02431101001ADDAA106000091AG10000GF105991031021008001031001MA1999999099041MD1999999+0201REMSYN011 333 58020;
0115825710999991995040312004-05500-045267FM-12+017499999V0202301N00101004201CN0100001N1+02441+02321101271ADDAA106000091AG10000GF108991081051004501999999KA1240N+02131MA1999999099281MD1999999-0101REMSYN017 333 20213 59010;
0121825710999991995040400004-05500-045267FM-12+017499999V0203201N00101220001CN0100001N1+02481+02381101121ADDAA106000091AG10000GF101991011001017501041001KA1240M+03081MA1999999099141MD1999999-0211MW1131REMSYN017 333 10308 59021;
0115825710999991995040412004-05500-045267FM-12+017499999V0203201N00101004201CN0100001N1+02541+02421101281ADDAA106000091AG10000GF106991061021004501001001KA1240N+02141MA1999999099301MD1999999+0021REMSYN017 333 20214 58002;
0096825710999991995040418004-05500-045267FM-12+017499999V0200901N00211007501CN0100001N1+03031+02311100881ADDAA106000091AG10000GF107991051021008001011001MA1999999098921MD1999999-0041REMSYN011 333 59004;
0115825710999991995040500004-05500-045267FM-12+017499999V0202701N00101220001CN0100001N1+02581+02421101051ADDAA106000091AG10000GF101991011001017501041001KA1240M+03121MA1999999099081MD1999999-0061REMSYN017 333 10312 59006;
0115825710999991995040512004-05500-045267FM-12+017499999V0202701N00101004201CN0100001N1+02641+02441101241ADDAA106000091AG10000GF107991071051004501001001KA1240N+02211MA1999999099271MD1999999-0031REMSYN017 333 20221 59003;
0116825710999991995040518004-05500-045267FM-12+017499999V0202701N00101007501CN0100001N1+02521+02421100891ADDAA106009091AG10006AY161061GF107991071051008001001001MA1999999098911MD1999999-0011MW1021REMSYN017 333 59001 60091;
0135825710999991995040612004-05500-045267FM-12+017499999V0202701N00101045001CN0100001N1+02521+02311101411ADDAA124012091AG10006AY161061GF106991031021004501031001KA1240N+02091MA1999999099421MD1999999+0151MW1031REMSYN023 333 20209 58015 60124;
0096825710999991995040618004-05500-045267FM-12+017499999V0200501N00211220001CN0100001N1+02961+02331100961ADDAA106000091AG10000GF103991031021008001001001MA1999999098991MD1999999+0081REMSYN011 333 58008;
0135825710999991995040712004-05500-045267FM-12+017499999V0202301N00101045001CN0100001N1+02501+02341101421ADDAA124029091AG10006AY161061GF106991041021004501031001KA1240N+02101MA1999999099431MD1999999+0071MW1021REMSYN023 333 20210 58007 60294;
0116825710999991995041218004-05500-045267FM-12+017499999V0203201N00101007501CN0100001N1+02621+02501100981ADDAA106004091AG10006AY161061GF108991081051008001999999MA1999999099001MD1999999+0011MW1021REMSYN017 333 58001 60041;
0115825710999991995041300004-05500-045267FM-12+017499999V0209991C00001004201CN0100001N1+02341+02291101221ADDAA106000091AG10000GF108991081051004501999999KA1240M+03001MA1999999099231MD1999999-0011REMSYN017 333 10300 59001;
0135825710999991995041312004-05500-045267FM-12+017499999V0203201N00101045001CN0100001N1+02501+02431101301ADDAA124006091AG10006AY161061GF106991041051008001031001KA1240N+02101MA1999999099311MD1999999-0061MW1011REMSYN023 333 20210 59006 60064;
0096825710999991995041318004-05500-045267FM-12+017499999V0203601N00101007501CN0100001N1+02991+02471100771ADDAA106000091AG10000GF106991051021008001031001MA1999999098811MD1999999-0191REMSYN011 333 59019;
0121825710999991995041400004-05500-045267FM-12+017499999V0203201N00101220001CN0100001N1+02531+02471101031ADDAA106000091AG10000GF103991021041008001051001KA1240M+03121MA1999999099051MD1999999-0181MW1131REMSYN017 333 10312 59018;
0135825710999991995041412004-05500-045267FM-12+017499999V0203201N00101045001CN0100001N1+02481+02361101231ADDAA124002091AG10006AY161061GF106991041051008001011001KA1240N+02101MA1999999099251MD1999999-0061MW1011REMSYN023 333 20210 59006 60024;
0110825710999991995041418004-05500-045267FM-12+017499999V0201801N00311004201CN0100001N1+02541+02421100841ADDAA106000091AG10017AY191061GF108991081051004501999999MA1999999098861MD1999999+0051MW1151REMSYN011 333 58005;
0121825710999991995041500004-05500-045267FM-12+017499999V0209991C00001012001CN0100001N1+02351+02311101241ADDAA106000091AG10000GF107991071081008001001001KA1240M+03011MA1999999099251MD1999999+0201MW1131REMSYN017 333 10301 58020;
0135825710999991995041512004-05500-045267FM-12+017499999V0202701N00101007501CN0100001N1+02281+02261101491ADDAA124044091AG10006AY161061GF108991081051008001999999KA1240N+02051MA1999999099491MD1999999+0241MW1021REMSYN023 333 20205 58024 60444;
0096825710999991995041518004-05500-045267FM-12+017499999V0202301N00211045001CN0100001N1+02781+02401101111ADDAA106000091AG10000GF107991041021008001011001MA1999999099131MD1999999+0271REMSYN011 333 58027;
0135825710999991995041612004-05500-045267FM-12+017499999V0202701N00101004201CN0040001N1+02281+02261101421ADDAA124015091AG10006AY161061GF108991081051004501999999KA1240N+02041MA1999999099421MD1999999-0071MW1911REMSYN023 333 20204 59007 60154;
0096825710999991995041618004-05500-045267FM-12+017499999V0203201N00101045001CN0100001N1+02751+02401101061ADDAA106000091AG10000GF106991031021008001011001MA1999999099081MD1999999-0051REMSYN011 333 59005;
0115825710999991995041800004-05500-045267FM-12+017499999V0203201N00101220001CN0100001N1+02371+02291101011ADDAA106000091AG10000GF102991021001017501041001KA1240M+03071MA1999999099031MD1999999-0201REMSYN017 333 10307 59020;
0115825710999991995041812004-05500-045267FM-12+017499999V0203201N00101045001CN0100001N1+02501+02381101211ADDAA106000091AG10000GF106991041021008001011001KA1240N+02021MA1999999099231MD1999999-0011REMSYN017 333 20202 59001;
0096825710999991995041818004-05500-045267FM-12+017499999V0200501N00211220001CN0100001N1+03161+02421100751ADDAA106000091AG10000GF103991021021008001001011MA1999999098801MD1999999-0071REMSYN011 333 59007;
0135825710999991995041912004-05500-045267FM-12+017499999V0209991C00001004201CN0040001N1+02231+02171101401ADDAA124006091AG10006AY161061GF108991081051004501999999KA1240N+02061MA1999999099401MD1999999+0171MW1911REMSYN023 333 20206 58017 60064;
0116825710999991995041918004-05500-045267FM-12+017499999V0203601N00101045001CN0100001N1+02761+02481100981ADDAA106001091AG10006AY161061GF106991041021008001031001MA1999999099001MD1999999+0201MW1031REMSYN017 333 58020 60011;
0121825710999991995042012004-05500-045267FM-12+017499999V0203201N00101045001CN0100001N1+02461+02341101371ADDAA124001091AG10000GF106991041021008001011001KA1240N+02121MA1999999099381MD1999999-0021REMSYN023 333 20212 59002 60014;
0096825710999991995042018004-05500-045267FM-12+017499999V0203201N00101220001CN0100001N1+03041+02431100881ADDAA106000091AG10000GF104991031021008001011001MA1999999098921MD1999999-0081REMSYN011 333 59008;
0143825710999991995042100004-05500-045267FM-12+017499999V0209991C00001007501CN0100001N1+02401+02311101141ADDAA106000591AG10017AY191061AY261061GF106991061051008001001001KA1240M+03131MA1999999099161MD1999999-0071MW1131REMSYN023 333 10313 59007 69951;
0135825710999991995042112004-05500-045267FM-12+017499999V0203201N00101004201CN0100001N1+02601+02421101341ADDAA124002091AG10006AY161061GF107991071051004501001001KA1240N+02161MA1999999099361MD1999999-0021MW1021REMSYN023 333 20216 59002 60024;
0143825710999991995042212004-05500-045267FM-12+017499999V0202701N00101220001CN0100001N1+02561+02311101151ADDAA124011091AG10017AY191061AY261061GF104991041001017501031001KA1240N+02081MA1999999099181MD1999999-0181MW1011REMSYN023 333 20208 59018 60114;
0096825710999991995042218004-05500-045267FM-12+017499999V0203201N00101220001CN0100001N1+03161+02471100821ADDAA106000091AG10000GF103991031021008001001001MA1999999098871MD1999999-0041REMSYN011 333 59004;
0131825710999991995042300004-05500-045267FM-12+017499999V0209991C00001220001CN0100001N1+02561+02471101071ADDAA106000091AG10000GA1001+999999999GF100991001001999999001001KA1240M+03231MA1999999099101MD1999999-0041REMSYN017 333 10323 59004;
0115825710999991995042312004-05500-045267FM-12+017499999V0203201N00101220001CN0100001N1+02751+02401101361ADDAA106000091AG10000GF103991031021008001001001KA1240N+02111MA1999999099391MD1999999+0211REMSYN017 333 20211 58021;
0096825710999991995042318004-05500-045267FM-12+017499999V0202701N00101220001CN0100001N1+03231+02501100791ADDAA106000091AG10000GF103991031021008001001001MA1999999098841MD1999999-0031REMSYN011 333 59003;
0131825710999991995042400004-05500-045267FM-12+017499999V0202301N00101220001CN0100001N1+02621+02501101141ADDAA106000091AG10000GA1001+999999999GF100991001001999999001001KA1240M+03271MA1999999099181MD1999999+0081REMSYN017 333 10327 58008;
0115825710999991995042412004-05500-045267FM-12+017499999V0203201N00101007501CN0100001N1+02551+02381101421ADDAA106000091AG10000GF108991081051008001999999KA1240N+02211MA1999999099471MD1999999+0061REMSYN017 333 20221 58006;
0096825710999991995042418004-05500-045267FM-12+017499999V0203201N00101220001CN0100001N1+03151+02481100941ADDAA106000091AG10000GF102991021021008001001001MA1999999098991MD1999999+0151REMSYN011 333 58015;
0115825710999991995042512004-05500-045267FM-12+017499999V0203201N00311007501CN0100001N1+02481+02381101361ADDAA106000091AG10000GF108991081051008001999999KA1240N+02091MA1999999099381MD1999999-0071REMSYN017 333 20209 59007;
0096825710999991995042518004-05500-045267FM-12+017499999V0202701N00101220001CN0100001N1+03171+02471100801ADDAA106000091AG10000GF103991031021008001001001MA1999999098851MD1999999-0141REMSYN011 333 59014;
0115825710999991995042612004-05500-045267FM-12+017499999V0203601N00101007501CN0100001N1+02521+02381101081ADDAA106000091AG10000GF108991081051008001999999KA1240N+02051MA1999999099281MD1999999-0101REMSYN017 333 20205 59010;
0096825710999991995042618004-05500-045267FM-12+017499999V0203201N00101045001CN0100001N1+02981+02471101831ADDAA106000091AG10000GF106991041031008001031001MA1999999098871MD1999999+0021REMSYN011 333 58002;
0170825710999991995042700004-05500-045267FM-12+017499999V0209991C00001220001CN0100001N1+02441+02321100992ADDAA106000191AG10006AY161061GA1001+999999999GF100991001001999999001001KA1240M+03171MA1999999099011MD1999999-0091MW1131REMSYN023 333 10317 59009 69921;EQDQ01+100993APOSLP
0121825710999991995042712004-05500-045267FM-12+017499999V0202701N00101045001CN0100001N1+02521+02401101161ADDAA124000191AG10000GF106991041021008001031001KA1240N+02011MA1999999098181MD1999999-0101REMSYN023 333 20201 59010 69924;
0131825710999991995042800004-05500-045267FM-12+017499999V0202701N00101220001CN0100001N1+02541+02381101061ADDAA106000091AG10000GA1001+999999999GF100991001001999999001001KA1240M+03211MA1999999099091MD1999999+0081REMSYN017 333 10321 58008;
0115825710999991995042812004-05500-045267FM-12+017499999V0202701N00101007501CN0100001N1+02481+02411101311ADDAA106000091AG10000GF108991081051008001999999KA1240N+02171MA1999999099331MD1999999+0151REMSYN017 333 20217 58015;
0096825710999991995042818004-05500-045267FM-12+017499999V0202301N00101045001CN0100001N1+02361+99999100781ADDAA106000091AG10000GF107991041031008001041001MA1999999098831MD1999999+0001REMSYN011 333 58000;
0131825710999991995042900004-05500-045267FM-12+017499999V0203201N00101220001CN0100001N1+02441+02321101151ADDAA106000091AG10000GA1001+999999999GF100991001001999999001001KA1240M+03151MA1999999099171MD1999999+0081REMSYN017 333 10315 58008;
0115825710999991995042912004-05500-045267FM-12+017499999V0202301N00101045001CN0100001N1+02541+02331101341ADDAA106000091AG10000GF106991041051008001031001KA1240N+02151MA1999999099361MD1999999+0031REMSYN017 333 20215 58003;
0096825710999991995042918004-05500-045267FM-12+017499999V0202301N00101045001CN0100001N1+03041+02381100971ADDAA106000091AG10000GF105991021031008001031001MA1999999099011MD1999999+0181REMSYN011 333 58018;
0131825710999991995043000004-05500-045267FM-12+017499999V0209991C00001220001CN0100001N1+02561+02421101201ADDAA106000091AG10000GA1001+999999999GF100991001001999999001001KA1240M+03151MA1999999099221MD1999999+0051REMSYN017 333 10315 58005;
0115825710999991995043012004-05500-045267FM-12+017499999V0203201N01031007501CN0100001N1+02511+02401101381ADDAA106000091AG10000GF108991081051008001999999KA1240N+02151MA1999999099401MD1999999+0041REMSYN017 333 20215 58004;
0096825710999991995043018004-05500-045267FM-12+017499999V0203201N00101007501CN0100001N1+02741+02451101021ADDAA106000091AG10017GF108991051031008001041999MA1999999099051MD1999999+0041REMSYN011 333 58004;
0137825710999991995050100004-05500-045267FM-12+017499999V0202301N00101220001CN0100001N1+02521+02431101211ADDAA106000091AG10000GA1001+999999999GF100991001001999999001001KA1240M+03061MA1999999099231MD1999999+0011MW1131REMSYN017 333 10306 58001;
0096825710999991995050118004-05500-045267FM-12+017499999V0200901N00101045001CN0100001N1+03001+02421100961ADDAA106000091AG10000GF106991031031008001041011MA1999999099001MD1999999-0051REMSYN011 333 59005;
0137825710999991995050200004-05500-045267FM-12+017499999V0202701N00101220001CN0100001N1+02521+02451101131ADDAA106000091AG10000GA1001+999999999GF100991001001999999001001KA1240M+03081MA1999999099151MD1999999-0081MW1131REMSYN017 333 10308 59008;
0135825710999991995050212004-05500-045267FM-12+017499999V0202701N00101004201CN0100001N1+02451+02321101291ADDAA124000591AG10005AY161061GF108991081051004501999999KA1240N+02121MA1999999099311MD1999999-0101MW1021REMSYN023 333 20212 59010 69954;
0096825710999991995050218004-05500-045267FM-12+017499999V0201401N00211220001CN0100001N1+03081+02401100861ADDAA106000091AG10000GF104991031021008001011001MA1999999098901MD1999999-0101REMSYN011 333 59010;
0121825710999991995050300004-05500-045267FM-12+017499999V0202701N00101220001CN0100001N1+02461+02361101211ADDAA106000091AG10000GF103991031021008001001001KA1240M+03111MA1999999099231MD1999999+0081MW1131REMSYN017 333 10311 58008;
0115825710999991995050312004-05500-045267FM-12+017499999V0200501N00311004201CN0100001N1+02621+02351101431ADDAA106000091AG10000GF107991071051004501001001KA1240N+02161MA1999999099451MD1999999+0141REMSYN017 333 20216 58014;
0096825710999991995050318004-05500-045267FM-12+017499999V0200501N00211220001CN0100001N1+03001+02371100951ADDAA106000091AG10000GF103991021021008001041001MA1999999098991MD1999999+0091REMSYN011 333 58009;
0115825710999991995050400004-05500-045267FM-12+017499999V0209991C00001220001CN0100001N1+02561+02421101231ADDAA106000091AG10000GF102991021021008001001001KA1240M+03101MA1999999099261MD1999999+0031REMSYN017 333 10310 58003;
0115825710999991995050412004-05500-045267FM-12+017499999V0202301N00101220001CN0100001N1+02481+02391101451ADDAA106000091AG10000GF104991041021004501001001KA1240N+02141MA1999999099461MD1999999+0011REMSYN017 333 20214 58001;
0143825710999991995050500004-05500-045267FM-12+017499999V0203201N00101045001CN0040001N1+02401+02331101341ADDAA106000591AG10015AY191061AY201061GF105991021071004501021001KA1240M+03151MA1999999099351MD1999999+0091MW1951REMSYN023 333 10315 58009 69961;
0135825710999991995050512004-05500-045267FM-12+017499999V0202701N00101015001CN0020001N1+02211+02171101491ADDAA124032091AG10005AY161061GF108991081001017501061999KA1240N+02041MA1999999099491MD1999999+0031MW1921REMSYN023 333 20204 58003 60324;
0116825710999991995050518004-05500-045267FM-12+017499999V0203201N00101045001CN0100001N1+02821+02361101101ADDAA106003091AG10005AY161061GF106991041021008001041001MA1999999099121MD1999999+0101MW1021REMSYN017 333 58010 60031;
0140825710999991995050600004-05500-045267FM-12+017499999V0202301N00101220001CN0100001N1+02451+02411101201ADDAA106000091AG10000GF102991021031008001001001KA1240M+02901MA1999999099211MD1999999-0141MW1131REMSYN017 333 10290 59014;EQDQ01+999990APOSLP
0121825710999991995050612004-05500-045267FM-12+017499999V0202701N00101004201CN0100001N1+02441+02371101371ADDAA124002091AG10000GF107991071021004501001001KA1240N+02101MA1999999099381MD1999999-0111REMSYN023 333 20210 59011 60024;
0096825710999991995050618004-05500-045267FM-12+017499999V0203201N00211220001CN0100001N1+03121+02411100871ADDAA106000091AG10000GF104991031021008001011001MA1999999098911MD1999999-0211REMSYN011 333 59021;
0121825710999991995050700004-05500-045267FM-12+017499999V0203201N00101220001CN0100001N1+02521+02361101191ADDAA106000091AG10000GF104991041061008001001001KA1240M+03161MA1999999099211MD1999999+0001MW1131REMSYN017 333 10316 58000;
0135825710999991995050712004-05500-045267FM-12+017499999V0202701N00101004201CN0100001N1+02251+02141101411ADDAA124006091AG10005AY161061GF107991071051004501001001KA1240N+02061MA1999999099421MD1999999+0041MW1021REMSYN023 333 20206 58004 60064;
0096825710999991995050718004-05500-045267FM-12+017499999V0202701N00101220001CN0100001N1+02941+02451100921ADDAA106000091AG10000GF104991031021008001041001MA1999999098951MD1999999+0041REMSYN011 333 58004;
0115825710999991995050812004-05500-045267FM-12+017499999V0200501N00101004201CN0100001N1+02521+02331101491ADDAA106000091AG10000GF108991081051004501999999KA1240N+02121MA1999999099511MD1999999+0091REMSYN017 333 20212 58009;
0096825710999991995050818004-05500-045267FM-12+017499999V0202701N00101220001CN0100001N1+03061+02451101091ADDAA106000091AG10000GF104991031021008001011001MA1999999100131MD1999999+0181REMSYN011 333 58018;
0135825710999991995050900004-05500-045267FM-12+017499999V0209991C00001220001CN0100001N1+02531+02421101401ADDAA106002091AG10005AY161061GF101991011001017501011001KA1240M+03111MA1999999099421MD1999999+0171MW1131REMSYN023 333 10311 58017 60021;
0121825710999991995050912004-05500-045267FM-12+017499999V0209999999999004201CN0100001N1+02521+02421101521ADDAA124002091AG10000GF108991081051004501999999KA1240N+02181MA1999999099531MD1999999+0021REMSYN023 333 20218 58002 60024;
0096825710999991995050918004-05500-045267FM-12+017499999V0203201N00211045001CN0100001N1+03071+02451101151ADDAA106000091AG10000GF105991031021008001011001MA1999999099191MD1999999+0061REMSYN011 333 58006;
0115825710999991995051012004-05500-045267FM-12+017499999V0203201N00101220001CN0100001N1+02701+02461101571ADDAA106000091AG10000GF103991021021004501011001KA1240N+02101MA1999999099591MD1999999+0061REMSYN017 333 20210 58006;
0096825710999991995051018004-05500-045267FM-12+017499999V0203601N00211220001CN0100001N1+03141+02401101081ADDAA106000091AG10000GF104991031021008001011001MA1999999099121MD1999999-0071REMSYN011 333 59007;
0115825710999991995051100004-05500-045267FM-12+017499999V0209991C00001220001CN0100001N1+02581+02421101351ADDAA106000091AG10000GF102991021001017501041001KA1240M+03171MA1999999099381MD1999999-0041REMSYN017 333 10317 59004;
0115825710999991995051112004-05500-045267FM-12+017499999V0203201N00101004201CN0100001N1+02621+02411101561ADDAA106000091AG10000GF107991071051004501001001KA1240N+02201MA1999999099581MD1999999-0011REMSYN017 333 20220 59001;
0096825710999991995051118004-05500-045267FM-12+017499999V0203601N00211220001CN0100001N1+03111+02361101061ADDAA106000091AG10000GF103991031021008001001001MA1999999099101MD1999999-0021REMSYN011 333 59002;
0131825710999991995051200004-05500-045267FM-12+017499999V0209991C00001220001CN0100001N1+02501+02381101251ADDAA106000091AG10000GA1001+999999999GF100991001001999999001001KA1240M+03171MA1999999099271MD1999999-0111REMSYN017 333 10317 59011;
0115825710999991995051212004-05500-045267FM-12+017499999V0202301N001010042019N0100001N1+02521+02361101481ADDAA106000091AG10000GF107991071021004501001001KA1240N+02161MA1999999099491MD1999999-0091REMSYN017 333 20216 59009;
0096825710999991995051218004-05500-045267FM-12+017499999V0202701N00101045001CN0100001N1+03111+02361101001ADDAA106000091AG10000GF105991041021008001011001MA1999999099041MD1999999-0061REMSYN011 333 59006;
0131825710999991995051300004-05500-045267FM-12+017499999V0209991C00001220001CN0100001N1+02441+02371101201ADDAA106000091AG10000GA1001+999999999GF100991001001999999001001KA1240M+03211MA1999999099221MD1999999-0051REMSYN017 333 10321 59005;
0134825710999991995051312004-05500-045267FM-12+017499999V0203201N001012200019N0100001N1+02561+02471101401ADDAA106000091AG10000GF105991041021004501001011KA1240N+02081MA1999999099411MD1999999-0081REMSYN017 333 20208 59008;EQDQ01+999990APOSLP
0096825710999991995051318004-05500-045267FM-12+017499999V0200501N00211220001CN0100001N1+03081+02371101021ADDAA106000091AG10000GF103991031021008001001001MA1999999099061MD1999999+0021REMSYN011 333 58002;
0115825710999991995051412004-05500-045267FM-12+017499999V0202701N00101004201CN0100001N1+02541+02421101491ADDAA106000091AG10000GF107991071051004501001001KA1240N+02041MA1999999099501MD1999999+0091REMSYN017 333 20204 58009;
0096825710999991995051418004-05500-045267FM-12+017499999V0200501N00211220001CN0100001N1+03131+02361101001ADDAA106000091AG10000GF103991021021008001001011MA1999999099041MD1999999-0021REMSYN011 333 59002;
0115825710999991995051512004-05500-045267FM-12+017499999V0202301N00101045001CN0100001N1+02541+02361101421ADDAA106000091AG10000GF107991041021008001031001KA1240N+02091MA1999999099441MD1999999-0061REMSYN017 333 20209 59006;
0134825710999991995051600004-05500-045267FM-12+017499999V0209991C00001220001CN0100001N1+02391+02281101181ADDAA106000091AG10000GF102991001001999999001011KA1240M+03181MA1999999099201MD1999999-0051REMSYN017 333 10318 59005;EQDQ01+000022SCOTLC
0115825710999991995051612004-05500-045267FM-12+017499999V0202301N00151045001CN0100001N1+02441+02271101291ADDAA106000091AG10000GF106991041021004501041001KA1240N+02041MA1999999099301MD1999999-0141REMSYN017 333 20204 59014;
0096825710999991995051618004-05500-045267FM-12+017499999V0201401N00311220001CN0100001N1+03111+02391100921ADDAA106000091AG10000GF104991041021008001001001MA1999999098961MD1999999-0091REMSYN011 333 59009;
0131825710999991995051700004-05500-045267FM-12+017499999V0202701N00101220001CN0100001N1+99999+99999101111ADDAA106000091AG10000GA1001+999999999GF100991001001999999001001KA1240M+03171MA1999999099131MD1999999-0071REMSYN017 333 10317 59007;
0135825710999991995051712004-05500-045267FM-12+017499999V0201401N00101045001CN0100001N1+02521+02451101351ADDAA124003091AG10005AY161061GF106991041051008001031001KA1240N+02181MA1999999099371MD1999999+0071MW1021REMSYN023 333 20218 58007 60034;
0096825710999991995051718004-05500-045267FM-12+017499999V0201401N00101045001CN0100001N1+02301+99999101041ADDAA106000091AG10000GF105991031021008001031001MA1999999099081MD1999999+0121REMSYN011 333 58012;
0137825710999991995051800004-05500-045267FM-12+017499999V0209991C00001220001CN0100001N1+02541+02381101161ADDAA106000091AG10000GA1001+999999999GF100991001001999999001001KA1240M+03181MA1999999099181MD1999999+0051MW1131REMSYN017 333 10318 58005;
0096825710999991995051818004-05500-045267FM-12+017499999V0203201N00101045001CN0100001N1+02861+02481101081ADDAA106000091AG10000GF106991031031008001041011MA1999999099111MD1999999+0031REMSYN011 333 58003;
0131825710999991995051900004-05500-045267FM-12+017499999V0209991C00001220001CN0100001N1+02481+02451101181ADDAA106000091AG10000GA1001+999999999GF100991001001999999001001KA1240M+03041MA1999999099201MD1999999+0021REMSYN017 333 10304 58002;
0115825710999991995051912004-05500-045267FM-12+017499999V0202701N00101004201CN0100001N1+02461+02431101291ADDAA106000091AG10000GF108991081051004501999999KA1240N+02161MA1999999099301MD1999999-0081REMSYN017 333 20216 59008;
0121825710999991995052000004-05500-045267FM-12+017499999V0209991C00001007501CN0100001N1+02501+02401101171ADDAA106000091AG10000GF108991081051008001999999KA1240M+03171MA1999999099191MD1999999-0011MW1131REMSYN017 333 10317 59001;
0135825710999991995052212004-05500-045267FM-12+017499999V0202701N00101007501CN0100001N1+02341+02311101511ADDAA124049091AG10005AY161061GF108991081051008001999999KA1240N+02071MA1999999099511MD1999999-0041MW1021REMSYN023 333 20207 59004 60494;
0096825710999991995052218004-05500-045267FM-12+017499999V0203201N00101045001CN0100001N1+02971+02261101121ADDAA106000091AG10000GF106991031021008001011001MA1999999099151MD1999999+0061REMSYN011 333 58006;
0137825710999991995052300004-05500-045267FM-12+017499999V0209991C00001220001CN0100001N1+02561+02421101361ADDAA106000091AG10000GA1001+999999999GF100991001001999999001001KA1240M+03051MA1999999099371MD1999999-0171MW1131REMSYN017 333 10305 59017;
0115825710999991995052312004-05500-045267FM-12+017499999V0203201N00101220001CN0100001N1+02521+02341101431ADDAA106000091AG10000GF102991011011008001041001KA1240N+02041MA1999999099451MD1999999-0061REMSYN017 333 20204 59006;
0096825710999991995052318004-05500-045267FM-12+017499999V0202301N00311220001CN0100001N1+03111+02391100971ADDAA106000091AG10000GF104991041021008001001001MA1999999099011MD1999999-0141REMSYN011 333 59014;
0143825710999991995052400004-05500-045267FM-12+017499999V0202301N00101004201CN0100001N1+02351+02291101421ADDAA106017091AG10015AY191061AY261061GF108991081051004501999999KA1240M+03181MA1999999099431MD1999999+0061MW1911REMSYN023 333 10318 58006 60171;
0135825710999991995052412004-05500-045267FM-12+017499999V0202701N00101007501CN0100001N1+02281+02251101471ADDAA124039091AG10005AY161061GF108991081051008001999999KA1240N+02091MA1999999099471MD1999999+0021MW1021REMSYN023 333 20209 58002 60394;
0096825710999991995052418004-05500-045267FM-12+017499999V0203201N00101220001CN0100001N1+02991+02351101041ADDAA106000091AG10000GF104991031021008001041001MA1999999099071MD1999999+0061REMSYN011 333 58006;
0131825710999991995052500004-05500-045267FM-12+017499999V0209991C00001220001CN0100001N1+02471+02361101241ADDAA106000091AG10000GA1001+999999999GF100991001001999999001001KA1240M+03081MA1999999099251MD1999999-0181REMSYN017 333 10308 59018;
0115825710999991995052600004-05500-045267FM-12+017499999V0209991C00001007501CN0100001N1+02381+02351101331ADDAA106000091AG10000GF106991061051008001001001KA1240M+03231MA1999999099351MD1999999+0101REMSYN017 333 10323 58010;
0115825710999991995052612004-05500-045267FM-12+017499999V0203201N00101007501CN0100001N1+02401+02301101211ADDAA106000091AG10000GF108991081051008001999999KA1240N+02111MA1999999099521MD1999999+0071REMSYN017 333 20211 58007;
0096825710999991995052618004-05500-045267FM-12+017499999V0203601N00101045001CN0100001N1+03001+02371101071ADDAA106000091AG10000GF105991031021008001011001MA1999999099101MD1999999-0011REMSYN011 333 59001;
0131825710999991995052700004-05500-045267FM-12+017499999V0209991C00001220001CN0100001N1+02421+02331101281ADDAA106000091AG10000GA1001+999999999GF100991001001999999001001KA1240M+03081MA1999999099291MD1999999-0061REMSYN017 333 10308 59006;
0127825710999991995052712004-05500-045267FM-12+017499999V0200501N00101004201CN0100001N1+02391+02291101611ADDAA124000591AG10000GF107991071051004501001001KA1240N+02121MA1999999099611MD1999999+0091MW1911REMSYN023 333 20212 58009 69944;
0096825710999991995052718004-05500-045267FM-12+017499999V0200501N00211105001CN0100001N1+02791+02361101131ADDAA106000091AG10000GF105991021031008001031011MA1999999099151MD1999999+0051REMSYN011 333 58005;
0131825710999991995052800004-05500-045267FM-12+017499999V0209991C00001220001CN0100001N1+02471+02361101351ADDAA106000091AG10000GA1001+999999999GF100991001001999999001001KA1240M+02931MA1999999099361MD1999999+0071REMSYN017 333 10293 58007;
0115825710999991995052812004-05500-045267FM-12+017499999V0201801N00311220001CN0100001N1+02681+02311101481ADDAA106000091AG10000GF104991021011008001001011KA1240N+02081MA1999999099501MD1999999-0111REMSYN017 333 20208 59011;
0096825710999991995052818004-05500-045267FM-12+017499999V0201401N00311220001CN0100001N1+03091+02321101151ADDAA106000091AG10000GF105991041021008001001011MA1999999099191MD1999999+0041REMSYN011 333 58004;
0121825710999991995052900004-05500-045267FM-12+017499999V0202301N00101007501CN0100001N1+02611+02351101421ADDAA106000091AG10000GF108991081051008001999999KA1240M+03131MA1999999099451MD1999999+0091MW1131REMSYN017 333 10313 58009;
0135825710999991995052912004-05500-045267FM-12+017499999V0202701N001019999999N0100001N1+02311+02281101631ADDAA124010091AG10005AY161061GF108991999999008001999999KA1240N+02141MA1999999099661MD1999999+0161MW1911REMSYN023 333 20214 58016 60104;
0096825710999991995052918004-05500-045267FM-12+017499999V0201401N00411220001CN0100001N1+02821+02401101261ADDAA106000091AG10000GF103991031021008001001001MA1999999099291MD1999999+0101REMSYN011 333 58010;
0131825710999991995053000004-05500-045267FM-12+017499999V0209991C00001220001CN0100001N1+02421+02391101491ADDAA106000091AG10000GA1001+999999999GF100991001001999999001001KA1240M+02931MA1999999099491MD1999999+0041REMSYN017 333 10293 58004;
0115825710999991995053012004-05500-045267FM-12+017499999V0202301N00101220001CN0100001N1+02421+02351101481ADDAA106000091AG10000GF103991021001017501041011KA1240N+02061MA1999999099491MD1999999-0171REMSYN017 333 20206 59017;
0096825710999991995053018004-05500-045267FM-12+017499999V0201401N00101045001CN0100001N1+02921+02341101171ADDAA106000091AG10000GF105991041021008001031001MA1999999099201MD1999999-0091REMSYN011 333 59009;
0131825710999991995053100004-05500-045267FM-12+017499999V0209991C00001220001CN0100001N1+02421+02301101351ADDAA106000091AG10000GA1001+999999999GF100991001001999999001001KA1240M+03061MA1999999099361MD1999999-0131REMSYN017 333 10306 59013;
0115825710999991995053112004-05500-045267FM-12+017499999V0202701N00101220001CN0100001N1+02541+02381101511ADDAA106000091AG10000GF104991021021008001031001KA1240N+02041MA1999999099521MD1999999+0031REMSYN017 333 20204 58003;
0096825710999991995053118004-05500-045267FM-12+017499999V0202301N00101220001CN0100001N1+02961+02351101111ADDAA106000091AG10000GF103991021021008001041001MA1999999099141MD1999999-0061REMSYN011 333 59006;
0131825710999991995060100004-05500-045267FM-12+017499999V0202701N00101220001CN0100001N1+02501+02401101291ADDAA106000091AG10000GA1001+999999999GF100991001001999999001001KA1240M+03091MA1999999099311MD1999999-0051REMSYN017 333 10309 59005;
0135825710999991995060112004-05500-045267FM-12+017499999V0203201N00101007501CN0100001N1+02431+02391101541ADDAA124000591AG10005AY161061GF108991081051008001999999KA1240N+02101MA1999999099551MD1999999+0031MW1021REMSYN023 333 20210 58003 69944;
0096825710999991995060118004-05500-045267FM-12+017499999V0201401N00211220001CN0100001N1+03071+02251101161ADDAA106000091AG10000GF103991021021008001011001MA1999999099201MD1999999+0061REMSYN011 333 58006;
0115825710999991995060200004-05500-045267FM-12+017499999V0202301N00101007501CN0100001N1+02531+02291101341ADDAA106000091AG10000GF108991081051008001999999KA1240M+03121MA1999999099361MD1999999+0051REMSYN017 333 10312 58005;
0115825710999991995060212004-05500-045267FM-12+017499999V0201401N00311220001CN0100001N1+02561+02151101541ADDAA106000091AG10000GF105991031001017501041011KA1240N+01871MA1999999099561MD1999999+0011REMSYN017 333 20187 58001;
0115825710999991995060312004-05500-045267FM-12+017499999V0202301N00311220001CN0100001N1+02461+02171101421ADDAA106000091AG10000GF102991001001999999001011KA1240N+01781MA1999999099431MD1999999-0131REMSYN017 333 20178 59013;
0115825710999991995060400004-05500-045267FM-12+017499999V0209991C00001220001CN0100001N1+02571+02401101391ADDAA106000091AG10000GF103991031001017501011001KA1240M+03111MA1999999099411MD1999999+0161REMSYN017 333 10311 58016;
0115825710999991995060512004-05500-045267FM-12+017499999V0201801N00621220001CN0100001N1+02521+02021101631ADDAA106000091AG10000GF103991021021004501001011KA1240N+01741MA1999999099641MD1999999+0071REMSYN017 333 20174 58007;
0096825710999991995060518004-05500-045267FM-12+017499999V0202301N00211007501CN0100001N1+02881+02101101351ADDAA106000091AG10000GF106991061021008001001001MA1999999099371MD1999999+0051REMSYN011 333 58005;
0131825710999991995060600004-05500-045267FM-12+017499999V0202301N00101220001CN0100001N1+02301+02171101421ADDAA106000091AG10000GA1001+999999999GF100991001001999999001001KA1240M+02991MA1999999099431MD1999999-0071REMSYN017 333 10299 59007;
0131825710999991995060612004-05500-045267FM-12+017499999V0201801N00411220001CN0100001N1+02601+02301101591ADDAA106000091AG10000GA1001+999999999GF100991001001999999001001KA1240N+01791MA1999999099601MD1999999-0041REMSYN017 333 20179 59004;
0096825710999991995060618004-05500-045267FM-12+017499999V0200901N00311220001CN0100001N1+03001+02051101341ADDAA106000091AG10000GF103991021021008001001011MA1999999099361MD1999999-0011REMSYN011 333 59001;
0131825710999991995060700004-05500-045267FM-12+017499999V0202301N00101220001CN0100001N1+02281+02091101451ADDAA106000091AG10000GA1001+999999999GF100991001001999999001001KA1240M+03021MA1999999099461MD1999999+0031REMSYN017 333 10302 58003;
0131825710999991995060712004-05500-045267FM-12+017499999V0201401N00311220001CN0100001N1+02521+02121101551ADDAA106000091AG10000GA1001+999999999GF100991001001999999001001KA1240N+01701MA1999999099551MD1999999-0051REMSYN017 333 20170 59005;
0096825710999991995060718004-05500-045267FM-12+017499999V0200901N00311220001CN0100001N1+03101+02061101291ADDAA106000091AG10000GF103991031021008001001001MA1999999099311MD1999999-0051REMSYN011 333 59005;
0115825710999991995060800004-05500-045267FM-12+017499999V0201401N00311220001CN0100001N1+02411+02071101551ADDAA106000091AG10000GF101991011021004501001001KA1240M+03141MA1999999099561MD1999999+0101REMSYN017 333 10314 58010;
0131825710999991995060812004-05500-045267FM-12+017499999V0202301N00101220001CN0100001N1+02401+02091101621ADDAA106000091AG10000GA1001+999999999GF100991001001999999001001KA1240N+01761MA1999999099621MD1999999+0071REMSYN017 333 20176 58007;
0115825710999991995060818004-05500-045267FM-12+017499999V0201401N00311220001CN0100001N1+03101+02061101171ADDAA106000091AG10000GF102991999021008001001001MA1999999099201MD1999999-0111REMSYN011 333 59011;EQDQ01+000042SCOTLC
0131825710999991995060900004-05500-045267FM-12+017499999V0201801N00101220001CN0100001N1+02461+02111101451ADDAA106000091AG10000GA1001+999999999GF100991001001999999001001KA1240M+03171MA1999999099461MD1999999-0101REMSYN017 333 10317 59010;
0115825710999991995060912004-05500-045267FM-12+017499999V0202301N00101220001CN0100001N1+02441+02171101541ADDAA106000091AG10000GF101991001001999999001011KA1240N+01791MA1999999099551MD1999999-0071REMSYN017 333 20179 59007;
0096825710999991995060918004-05500-045267FM-12+017499999V0200901N00411220001CN0100001N1+03091+02131101181ADDAA106000091AG10000GF104991031021008001001011MA1999999099211MD1999999+0011REMSYN011 333 58001;
0131825710999991995061012004-05500-045267FM-12+017499999V0201801N00411220001CN0100001N1+02661+02111101541ADDAA106000091AG10000GA1001+999999999GF100991001001999999001001KA1240N+01891MA1999999099561MD1999999+0011REMSYN017 333 20189 58001;
0096825710999991995061018004-05500-045267FM-12+017499999V0201401N00311220001CN0100001N1+03101+02061101241ADDAA106000091AG10000GF102991021021008001001001MA1999999099371MD1999999+0061REMSYN011 333 58006;
0115825710999991995061100004-05500-045267FM-12+017499999V0209991C00001220001CN0100001N1+02381+02211101561ADDAA106000091AG10000GF102991021001017501011001KA1240M+03141MA1999999099571MD1999999+0161REMSYN017 333 10314 58016;
0115825710999991995061112004-05500-045267FM-12+017499999V0201401N00511220001CN0100001N1+02591+02011101541ADDAA106000091AG10000GF101991011001017501011001KA1240N+01831MA1999999099551MD1999999-0011REMSYN017 333 20183 59001;
0096825710999991995061118004-05500-045267FM-12+017499999V0201401N00311220001CN0100001N1+03151+02041101201ADDAA106000091AG10000GF102991021021008001001001MA1999999099231MD1999999-0041REMSYN011 333 59004;
0131825710999991995061200004-05500-045267FM-12+017499999V0209991C00001220001CN0100001N1+02381+02131101381ADDAA106000091AG10000GA1001+999999999GF100991001001999999001001KA1240M+03211MA1999999099391MD1999999-0181REMSYN017 333 10321 59018;
0115825710999991995061212004-05500-045267FM-12+017499999V0203201N00101220001CN0100001N1+02621+02311101561ADDAA106000091AG10000GF103991021001017501041011KA1240N+01881MA1999999099571MD1999999+0021REMSYN017 333 20188 58002;
0096825710999991995061218004-05500-045267FM-12+017499999V0201401N00211007501CN0100001N1+02961+02231101281ADDAA106000091AG10000GF106991061021008001001001MA1999999099301MD1999999+0071REMSYN011 333 58007;
0134825710999991995061300004-05500-045267FM-12+017499999V0201401N00101012001CN0100001N1+02401+02191101531ADDAA106000091AG10000GF107991071081008001001001KA1240M+99999MA1999999099541MD1999999+0051REMSYN017 333 10209 58005;EQDQ01 +02092ATMX  
0143825710999991995061312004-05500-045267FM-12+017499999V0201801N00101220001CN0100001N1+02721+02241101591ADDAA106000091AG10000AJ199999999999999GF101991011001017501031001IA1249KA1240N+02121MA1999999099611REMSYN017 333 20212 48004;EQDQ01  00042SNDP  
0096825710999991995061318004-05500-045267FM-12+017499999V0201401N00211220001CN0100001N1+03101+01971101271ADDAA106000091AG10000GF102991021021008001001001MA1999999099311MD1999999+0011REMSYN011 333 58001;
0131825710999991995061400004-05500-045267FM-12+017499999V0209991C00001220001CN0100001N1+02341+02151101511ADDAA106000091AG10000GA1001+999999999GF100991001001999999001001KA1240M+03141MA1999999099531MD1999999-0011REMSYN017 333 10314 59001;
0131825710999991995061412004-05500-045267FM-12+017499999V0201401N00311220001CN0100001N1+02461+02071101581ADDAA106000091AG10000GA1001+999999999GF100991001001999999001001KA1240N+01761MA1999999099581MD1999999-0031REMSYN017 333 20176 59003;
0096825710999991995061418004-05500-045267FM-12+017499999V0201401N00211220001CN0100001N1+03161+02171101281ADDAA106000091AG10000GF104991041021008001001001MA1999999099311MD1999999+0001REMSYN011 333 58000;
0115825710999991995061500004-05500-045267FM-12+017499999V0209991C00001220001CN0100001N1+02421+02281101441ADDAA106000091AG10000GF102991021001017501031001KA1240M+03171MA1999999099451MD1999999-0081REMSYN017 333 10317 59008;
0096825710999991995061518004-05500-045267FM-12+017499999V0201401N00211220001CN0100001N1+03111+02151101141ADDAA106000091AG10000GF103991031021008001001001MA1999999099171MD1999999-0141REMSYN011 333 59014;
0131825710999991995061612004-05500-045267FM-12+017499999V0201401N00311220001CN0100001N1+02641+02141101471ADDAA106000091AG10000GA1001+999999999GF100991001001999999001001KA1240N+01901MA1999999099491MD1999999+0051REMSYN017 333 20190 58005;
0096825710999991995061618004-05500-045267FM-12+017499999V0200901N00311220001CN0100001N1+03111+01971101241ADDAA106000091AG10000GF102991021011008001001001MA1999999099271MD1999999+0101REMSYN011 333 58010;
0131825710999991995061712004-05500-045267FM-12+017499999V0200501N00101220001CN0100001N1+02561+02021101591ADDAA106000091AG10000GA1001+999999999GF100991001001999999001001KA1240N+01721MA1999999099601MD1999999+0111REMSYN017 333 20172 58011;
0096825710999991995061718004-05500-045267FM-12+017499999V0201401N00311220001CN0100001N1+03121+02111101291ADDAA106000091AG10000GF102991021021008001001001MA1999999099311MD1999999+0041REMSYN011 333 58004;
0131825710999991995061800004-05500-045267FM-12+017499999V0209991C00001220001CN0100001N1+02391+02171101411ADDAA106000091AG10000GA1001+999999999GF100991001001999999001001KA1240M+03201MA1999999099431MD1999999-0011REMSYN017 333 10320 59001;
0096825710999991995061818004-05500-045267FM-12+017499999V0200901N00211220001CN0100001N1+03201+02121101271ADDAA106000091AG10000GF102991021021008001001001MA1999999099301MD1999999-0011REMSYN011 333 59001;
0115825710999991995061912004-05500-045267FM-12+017499999V0200201N00101220001CN0100001N1+02401+02051101501ADDAA106000091AG10000GF101991011001017501011001KA1240N+01821MA1999999099511MD1999999-0011REMSYN017 333 20182 59001;
0096825710999991995061918004-05500-045267FM-12+017499999V0201401N00311220001CN0100001N1+03221+02011101141ADDAA106000091AG10000GF102991021021008001001001MA1999999099181MD1999999-0121REMSYN011 333 59012;
0131825710999991995062000004-05500-045267FM-12+017499999V0209991C00001220001CN0100001N1+02381+02191101281ADDAA106000091AG10000GA1001+999999999GF100991001001999999001001KA1240M+03261MA1999999099291MD1999999-0201REMSYN017 333 10326 59020;
0115825710999991995062012004-05500-045267FM-12+017499999V0200501N00101220001CN0100001N1+02191+99999101471ADDAA106000091AG10000GF101991011001017501011001KA1240N+01761MA1999999099481MD1999999-0031REMSYN017 333 20176 59003;
0096825710999991995062018004-05500-045267FM-12+017499999V0201401N00101220001CN0100001N1+03161+02171101171ADDAA106000091AG10000GF102991021021008001001001MA1999999099201MD1999999+0021REMSYN011 333 58002;
0131825710999991995062100004-05500-045267FM-12+017499999V0203201N00101220001CN0100001N1+02441+02211101341ADDAA106000091AG10000GA1001+999999999GF100991001001999999001001KA1240M+03211MA1999999099361MD1999999+0071REMSYN017 333 10321 58007;
0115825710999991995062112004-05500-045267FM-12+017499999V0203601N00101004201CN0100001N1+02341+02241101611ADDAA106000091AG10000GF108991081051004501999999KA1240N+01841MA1999999099611MD1999999+0131REMSYN017 333 20184 58013;
0096825710999991995062118004-05500-045267FM-12+017499999V0201401N00211220001CN0100001N1+03061+02141101261ADDAA106000091AG10000GF102991021021008001001001MA1999999099291MD1999999+0091REMSYN011 333 58009;
0131825710999991995062200004-05500-045267FM-12+017499999V0209991C00001220001CN0100001N1+02401+02191101431ADDAA106000091AG10000GA1001+999999999GF100991001001999999001001KA1240M+03151MA1999999099431MD1999999+0071REMSYN017 333 10315 58007;
0115825710999991995062212004-05500-045267FM-12+017499999V0201401N00101220001CN0100001N1+02541+02151101791ADDAA106000091AG10000GF102991021001017501031001KA1240N+01801MA1999999099791MD1999999+0181REMSYN017 333 20180 58018;
0131825710999991995062300004-05500-045267FM-12+017499999V0209991C00001220001CN0100001N1+99999+99999101421ADDAA106000091AG10000GA1001+999999999GF100991001001999999001001KA1240M+02961MA1999999099431MD1999999+0001REMSYN017 333 10296 58000;
0115825710999991995062312004-05500-045267FM-12+017499999V0201401N00311220001CN0100001N1+02381+02151101541ADDAA106000091AG10000GF102991021001008001031001KA1240N+01821MA1999999099541MD1999999-0251REMSYN017 333 20182 59025;
0096825710999991995062318004-05500-045267FM-12+017499999V0201401N00411220001CN0100001N1+03151+01971101061ADDAA106000091AG10000GF102991011011008001031001MA1999999099091MD1999999-0291REMSYN011 333 59029;
0131825710999991995062400004-05500-045267FM-12+017499999V0202301N00101220001CN0100001N1+02471+02071101251ADDAA106000091AG10000GA1001+999999999GF100991001001999999001001KA1240M+03211MA1999999099261MD1999999-0171REMSYN017 333 10321 59017;
0115825710999991995062412004-05500-045267FM-12+017499999V0201801N00311220001CN0100001N1+02621+02011101461ADDAA106000091AG10000GF101991011001017501031001KA1240N+01741MA1999999099481MD1999999-0061REMSYN017 333 20174 59006;
0131825710999991995062500004-05500-045267FM-12+017499999V0209991C00001220001CN0100001N1+02371+02171101371ADDAA106000091AG10000GA1001+999999999GF100991001001999999001001KA1240M+03201MA1999999099381MD1999999+0121REMSYN017 333 10320 58012;
0131825710999991995062512004-05500-045267FM-12+017499999V0201801N00311220001CN0100001N1+02481+02071101591ADDAA106000091AG10000GA1001+999999999GF100991001001999999001001KA1240N+02191MA1999999099591MD1999999+0111REMSYN017 333 20219 58011;
0131825710999991995062600004-05500-045267FM-12+017499999V0209991C00001220001CN0100001N1+02491+02171101381ADDAA106000091AG10000GA1001+999999999GF100991001001999999001001KA1240M+03231MA1999999099401MD1999999+0021REMSYN017 333 10323 58002;
0115825710999991995062612004-05500-045267FM-12+017499999V0203601N00101045001CN0100001N1+02501+02231101631ADDAA106000091AG10000GF106991031051008001031001KA1240N+01861MA1999999099641MD1999999+0051REMSYN017 333 20186 58005;
0096825710999991995062618004-05500-045267FM-12+017499999V0201401N00311220001CN0100001N1+03041+02231101271ADDAA106000091AG10000GF103991021021008001001011MA1999999099301MD1999999+0051REMSYN011 333 58005;
0131825710999991995062700004-05500-045267FM-12+017499999V0209991C00001220001CN0100001N1+02441+02261101361ADDAA106000091AG10000GA1001+999999999GF100991001001999999001001KA1240M+03091MA1999999099371MD1999999-0031REMSYN017 333 10309 59003;
0115825710999991995062712004-05500-045267FM-12+017499999V0203601N00101220001CN0100001N1+02521+02291101531ADDAA106000091AG10000GF103991021001017501031011KA1240N+01921MA1999999099541MD1999999-0101REMSYN017 333 20192 59010;
0131825710999991995062800004-05500-045267FM-12+017499999V0209991C00001220001CN0100001N1+02501+02321101301ADDAA106000091AG10000GA1001+999999999GF100991001001999999001001KA1240M+03211MA1999999099321MD1999999-0051REMSYN017 333 10321 59005;
0137825710999991995062812004-05500-045267FM-12+017499999V0201401N00511220001CN0100001N1+02601+02171101441ADDAA124002091AG10000GA1001+999999999GF100991001001999999001001KA1240N+01941MA1999999099461MD1999999-0081REMSYN023 333 20194 59008 60024;
0096825710999991995062818004-05500-045267FM-12+017499999V0201401N00311220001CN0100001N1+03141+02601101141ADDAA106000091AG10000GF103991031021008001001001MA1999999099181MD1999999-0031REMSYN011 333 59003;
0131825710999991995062900004-05500-045267FM-12+017499999V0202301N00311220001CN0100001N1+02451+02191101351ADDAA106000091AG10000GA1001+999999999GF100991001001999999001001KA1240M+03191MA1999999099371MD1999999+0051REMSYN017 333 10319 58005;
0150825710999991995062912004-05500-045267FM-12+017499999V0201401N00051220001CN0100001N1+02601+02081101581ADDAA106000091AG10000GA1001+999999999GF100991001001999999001001KA1240N+99999MA1999999099591MD1999999+0131REMSYN017 333 20272 58013;EQDQ01 +02722ATMN  
0096825710999991995062918004-05500-045267FM-12+017499999V0201801N00311220001CN0100001N1+03141+02041101231ADDAA106000091AG10000GF102991021021008001001001MA1999999099261MD1999999+0081REMSYN011 333 58008;
0131825710999991995063000004-05500-045267FM-12+017499999V0209991C00001220001CN0100001N1+02461+02091101351ADDAA106000091AG10000GA1001+999999999GF100991001001999999001001KA1240M+03181MA1999999099371MD1999999+0001REMSYN017 333 10318 58000;
0131825710999991995063012004-05500-045267FM-12+017499999V0201401N00311220001CN0100001N1+02471+02011101511ADDAA106000091AG10000GA1001+999999999GF100991001001999999001001KA1240N+01691MA1999999099521MD1999999-0071REMSYN017 333 20169 59007;
0096825710999991995063018004-05500-045267FM-12+017499999V0201401N00311220001CN0100001N1+03141+02071101201ADDAA106000091AG10000GF102991021021008001001001MA1999999099231MD1999999-0031REMSYN011 333 59003;
0131825710999991995070100004-05500-045267FM-12+017499999V0209991C00001220001CN0100001N1+02521+02171101411ADDAA106000091AG10000GA1001+999999999GF100991001001999999001001KA1240M+03201MA1999999099421MD1999999+0051REMSYN017 333 10320 58005;
0131825710999991995070112004-05500-045267FM-12+017499999V0201401N00721220001CN0100001N1+02591+01971101621ADDAA106000091AG10000GA1001+999999999GF100991001001999999001001KA1240N+01841MA1999999099631MD1999999+0111REMSYN017 333 20184 58011;
0096825710999991995070118004-05500-045267FM-12+017499999V0201401N00311220001CN0100001N1+03111+01941101331ADDAA106000091AG10000GF102991021021008001001001MA1999999099361MD1999999+0131REMSYN011 333 58013;
0131825710999991995070200004-05500-045267FM-12+017499999V0202301N00101220001CN0100001N1+02501+01961101531ADDAA106000091AG10000GA1001+999999999GF100991001001999999001001KA1240M+03151MA1999999099551MD1999999+0131REMSYN017 333 10315 58013;
0115825710999991995070212004-05500-045267FM-12+017499999V0201401N00411015001CN0100001N1+02481+02031101691ADDAA106000091AG10000GF107991071001017501051001KA1240N+02061MA1999999099701MD1999999+0071REMSYN017 333 20206 58007;
0096825710999991995070218004-05500-045267FM-12+017499999V0201401N00511220001CN0100001N1+03181+02071101361ADDAA106000091AG10000GF103991031021008001001001MA1999999099401MD1999999+0041REMSYN011 333 58004;
0124825710999991995070312004-05500-045267FM-12+017499999V0201801N001010042019N0100001N1+02461+02271101731ADDAG10005AY161061GF107991071021004501001001KA1240N+02041MA1999999099741MD1999999+0041MW1011REMSYN023 333 20204 58004 79974;
0096825710999991995070318004-05500-045267FM-12+017499999V0201401N00411220001CN0100001N1+02941+02191101361ADDAA106000091AG10000GF104991041021008001001001MA1999999099391MD1999999-0011REMSYN011 333 59001;
0115825710999991995070412004-05500-045267FM-12+017499999V0202301N00211220001CN0100001N1+02641+02121101601ADDAA106000091AG10000GF102991021001017501011001KA1240N+01901MA1999999099611MD1999999-0131REMSYN017 333 20190 59013;
0096825710999991995070418004-05500-045267FM-12+017499999V0201801N00211220001CN0100001N1+03201+02031101271ADDAA106000091AG10000GF103991031021008001001001MA1999999099311MD1999999-0081REMSYN011 333 59008;
0131825710999991995070500004-05500-045267FM-12+017499999V0209991C00001220001CN0100001N1+02401+02111101371ADDAA106000091AG10000GA1001+999999999GF100991001001999999001001KA1240M+03251MA1999999099391MD1999999-0151REMSYN017 333 10325 59015;
0115825710999991995070512004-05500-045267FM-12+017499999V0202701N00101004201CN0100001N1+02381+02211101661ADDAA106000091AG10000GF107991071051004501001001KA1240N+01861MA1999999099661MD1999999+0051REMSYN017 333 20186 58005;
0096825710999991995070518004-05500-045267FM-12+017499999V0200901N00311220001CN0100001N1+03041+01911101251ADDAA106000091AG10000GF104991021021008001011001MA1999999099181MD1999999-0031REMSYN011 333 59003;
0131825710999991995070600004-05500-045267FM-12+017499999V0209991C00001220001CN0100001N1+02431+02091101451ADDAA106000091AG10000GA1001+999999999GF100991001001999999001001KA1240M+03141MA1999999099461MD1999999+0071REMSYN017 333 10314 58007;
0150825710999991995070612004-05500-045267FM-12+017499999V0201801N00511220001CN0100001N1+02631+01961101581ADDAA106000091AG10000GA1001+999999999GF100991001001999999001001KA1240N+01731MA1999999099591MD1999999-0061REMSYN017 333 20173 59006;EQDQ01+999990APOSP 
0096825710999991995070618004-05500-045267FM-12+017499999V0200901N00211220001CN0100001N1+03141+99999101261ADDAA106000091AG10000GF103991031021008001001001MA1999999099291MD1999999+0011REMSYN011 333 58001;
0131825710999991995070700004-05500-045267FM-12+017499999V0209991C00001220001CN0100001N1+02411+02071101501ADDAA106000091AG10000GA1001+999999999GF100991001001999999001001KA1240M+03191MA1999999099511MD1999999+0051REMSYN017 333 10319 58005;
0131825710999991995070712004-05500-045267FM-12+017499999V0201801N00511220001CN0100001N1+02561+01901101581ADDAA106000091AG10000GA1001+999999999GF100991001001999999001001KA1240N+01681MA1999999099591MD1999999-0011REMSYN017 333 20168 59001;
0096825710999991995070718004-05500-045267FM-12+017499999V0202301N00211045001CN0100001N1+03181+01981101221ADDAA106000091AG10000GF107991011021008001011001MA1999999099251MD1999999-0041REMSYN011 333 59004;
0131825710999991995071000004-05500-045267FM-12+017499999V0209991C00001220001CN0100001N1+02421+02071101441ADDAA106000091AG10000GA1001+999999999GF100991001001999999001001KA1240M+03241MA1999999099451MD1999999+0041REMSYN017 333 10324 58004;
0096825710999991995071118004-05500-045267FM-12+017499999V0201401N00311220001CN0100001N1+03201+01711101161ADDAA106000091AG10000GF102991021021008001001001MA1999999099191MD1999999-0121REMSYN011 333 59012;
0131825710999991995071200004-05500-045267FM-12+017499999V0209991C00001220001CN0100001N1+02421+02111101341ADDAA106000091AG10000GA1001+999999999GF100991001001999999001001KA1240M+03251MA1999999099361MD1999999-0091REMSYN017 333 10325 59009;
0131825710999991995071312004-05500-045267FM-12+017499999V0202301N00101220001CN0100001N1+02341+01571101501ADDAA106000091AG10000GA1001+999999999GF100991001001999999001001KA1240N+01401MA1999999099501MD1999999-0021REMSYN017 333 20140 59002;
0096825710999991995071318004-05500-045267FM-12+017499999V0200501N00211220001CN0100001N1+03101+01501101181ADDAA106000091AG10000GF101991011011008001001001MA1999999099201MD1999999+0041REMSYN011 333 58004;
0131825710999991995071400004-05500-045267FM-12+017499999V0209991C00001220001CN0100001N1+02201+01841101431ADDAA106000091AG10000GA1001+999999999GF100991001001999999001001KA1240M+03151MA1999999099431MD1999999+0161REMSYN017 333 10315 58016;
