0096825830999991995010118004-05167-040667FM-12+029999999V0200901N00511220001CN0200001N1+03391+01811100931ADDAA106000091AG10000GF102991011011008001001011MA1999999097601MD1999999-0191REMSYN011 333 59019;
0150825830999991995010300004-05167-040667FM-12+029999999V0200901N00151220001CN9999999N9+02811+02121101071ADDAA106000091AG10000GA1001+999999999GF100991001001999999001001KA1240M+03321MA1999999097731MD1999999-0051REMSYN017 333 10332 59005;EQDQ01+000002VOVAR 
0115825830999991995010312004-05167-040667FM-12+029999999V0200901N00621045001CN0200001N1+02831+02041101271ADDAA106000091AG10000GF105991041011008001031001KA1240N+02371MA1999999097921MD1999999-0011REMSYN017 333 20237 59001;
0096825830999991995010418004-05167-040667FM-12+029999999V0201401N00261007501CN0200001N1+03141+02001101031ADDAA106000091AG10000GF107991071051008001001001MA1999999097681MD1999999+0131REMSYN011 333 58013;
0121825830999991995010512004-05167-040667FM-12+029999999V0201401N00101045001CN0040001N1+02411+02131101421ADDAA124000191AG10000GF108991031061008001051999KA1240N+02361MA1999999098041MD1999999+0111REMSYN023 333 20236 58011 69924;
0124825830999991995010618004-05167-040667FM-12+029999999V0201401N00151007501CN0200001N1+02341+02151101031ADDAA199999929AG10006AY161061AY261061GF108991081051008001999999MA1999999098051MD1999999+0241MW1011REMSYN017 333 58024 69902;
0134825830999991995010800004-05167-040667FM-12+029999999V0201801N00051012001CN9999999N9+02481+02381101191ADDAA106000091AG10000GF108991081081008001999999KA1240M+02761MA1999999097851MD1999999-0261REMSYN017 333 10276 59026;EQDQ01+000002VOVAR 
0143825830999991995010812004-05167-040667FM-12+029999999V0201801N00101007501CN0200001N1+02471+02111101241ADDAA124000191AG10001AY151061AY251061GF108991081071008001999999KA1240N+02171MA1999999097951MD1999999-0021MW1021REMSYN023 333 20217 59002 69924;
0115825830999991995010912004-05167-040667FM-12+029999999V0200501N00151045001CN0200001N1+02311+02111101431ADDAA106000091AG10000GF108991041051008001021999KA1240N+02221MA1999999098021MD1999999+0071REMSYN017 333 20222 58007;
0096825830999991995010918004-05167-040667FM-12+029999999V0200901N00461045001CN0200001N1+02671+02061101101ADDAA106000091AG10000GF108991041021008001021999MA1999999097711MD1999999+0101REMSYN011 333 58010;
0134825830999991995011000004-05167-040667FM-12+029999999V0201401N00101007501CN9999999N9+02441+02191101341ADDAA106000091AG10000GF108991081051008001999999KA1240M+02681MA1999999097941MD1999999+0011REMSYN017 333 10268 58001;EQDQ01+000002VOVAR 
0115825830999991995011012004-05167-040667FM-12+029999999V0201401N00261045001CN0200001N1+02611+02051101401ADDAA106000091AG10000GF107991031011008001031001KA1240N+02271MA1999999098021MD1999999+0001REMSYN017 333 20227 58000;
0096825830999991995011018004-05167-040667FM-12+029999999V0200901N00571045001CN0200001N1+03101+01581101061ADDAA106000091AG10000GF107991031011008001031001MA1999999097701MD1999999-0011REMSYN011 333 59001;
0115825830999991995011112004-05167-040667FM-12+029999999V0200901N00461220001CN0200001N1+02701+02011101351ADDAA106000091AG10000GF103991011011008001031001KA1240N+02271MA1999999097971MD1999999-0051REMSYN017 333 20227 59005;
0134825830999991995011400004-05167-040667FM-12+029999999V0203201N00151012001CN9999999N9+02761+02171101341ADDAA106000091AG10000GF108991081081008001999999KA1240M+03321MA1999999097961MD1999999+0111REMSYN017 333 10332 58011;EQDQ01+000002VOVAR 
0115825830999991995011512004-05167-040667FM-12+029999999V0200901N00151220001CN0200001N1+02691+99999101481ADDAA106000091AG10000GF101991011011008001001001KA1240N+02101MA1999999098111MD1999999+0081REMSYN017 333 20210 58008;
0115825830999991995011612004-05167-040667FM-12+029999999V0201401N00211007501CN0200001N1+02501+01961101051ADDAA106000091AG10000GF108991081051008001999999KA1240N+02281MA1999999098071MD1999999-0041REMSYN017 333 20228 59004;
0096825830999991995011618004-05167-040667FM-12+029999999V0200901N00211220001CN0200001N1+03341+01831101041ADDAA106000091AG10000GF101991011011008001001001MA1999999097691MD1999999-0041REMSYN011 333 59004;
0096825830999991995011718004-05167-040667FM-12+029999999V0200901N00461220001CN0200001N1+02341+01761101001ADDAA106000091AG10000GF103991031021008001001001MA1999999097661MD1999999-0031REMSYN011 333 59003;
0115825830999991995011812004-05167-040667FM-12+029999999V0200901N00411012001CN0200001N1+02671+02111101361ADDAA106000091AG10000GF108991081081008001999999KA1240N+02351MA1999999097981MD1999999-0011REMSYN017 333 20235 59001;
0096825830999991995011818004-05167-040667FM-12+029999999V0201401N00361220001CN0200001N1+03481+01751100881ADDAA106000091AG10000GF101991011011008001001001MA1999999097561MD1999999-0101REMSYN011 333 59010;
0115825830999991995011912004-05167-040667FM-12+029999999V0200901N00461007501CN0200001N1+02811+01971101381ADDAA106000091AG10000GF106991061021008001001001KA1240N+02451MA1999999098021MD1999999+0041REMSYN017 333 20245 58004;
0096825830999991995011918004-05167-040667FM-12+029999999V0200901N00461220001CN0200001N1+03451+01821100941ADDAA106000091AG10000GF102991021021008001001001MA1999999097621MD1999999+0061REMSYN011 333 58006;
0115825830999991995012112004-05167-040667FM-12+029999999V0201401N00311007501CN0200001N1+02761+02041101441ADDAA106000091AG10000GF108991081051008001999999KA1240N+02451MA1999999098081MD1999999-0131REMSYN017 333 20245 59013;
0121825830999991995012312004-05167-040667FM-12+029999999V0200901N00211012001CN0200001N1+02691+02131101341ADDAA124005091AG10000GF107991071081008001001001KA1240N+02351MA1999999097961MD1999999+0031REMSYN023 333 20235 58003 60054;
0096825830999991995012318004-05167-040667FM-12+029999999V0201801N00211220001CN0200001N1+03351+01891100871ADDAA106000091AG10000GF103991031021008001001001MA1999999097541MD1999999+0111REMSYN011 333 58011;
0115825830999991995012412004-05167-040667FM-12+029999999V0200901N00511220001CN0200001N1+02801+02081101351ADDAA106000091AG10000GF103991031021008001001001KA1240N+02331MA1999999097991MD1999999+0031REMSYN017 333 20233 58003;
0115825830999991995012512004-05167-040667FM-12+029999999V0200901N00621220001CN0200001N1+02781+01961101361ADDAA106000091AG10000GF102991011011008001001011KA1240N+02161MA1999999098001MD1999999+0011REMSYN017 333 20216 58001;
0150825830999991995012600004-05167-040667FM-12+029999999V0201401N00261220001CN9999999N9+02761+01661101161ADDAA106000091AG10000GA1001+999999999GF100991001001999999001001KA1240M+03451MA1999999097811MD1999999-0021REMSYN017 333 10345 59002;EQDQ01+000002VOVAR 
0115825830999991995012612004-05167-040667FM-12+029999999V0200901N00621220001CN0200001N1+02871+02051101261ADDAA106000091AG10000GF102991011011012501001011KA1240N+02271MA1999999097901MD1999999-0101REMSYN017 333 20227 59010;
0096825830999991995012618004-05167-040667FM-12+029999999V0200901N00411220001CN0200001N1+03481+01791100861ADDAA106000091AG10000GF101991011011008001001001MA1999999097541MD1999999-0051REMSYN011 333 59005;
0115825830999991995012712004-05167-040667FM-12+029999999V0200501N00311007501CN0200001N1+02791+02131101261ADDAA106000091AG10000GF107991071021008001001001KA1240N+02451MA1999999097921MD1999999+0021REMSYN017 333 20245 58002;
0115825830999991995012812004-05167-040667FM-12+029999999V0200901N00411012001CN0200001N1+02751+02091101261ADDAA106000091AG10000GF108991081081008001999999KA1240N+02471MA1999999097021MD1999999+0001REMSYN017 333 20247 58000;
0154825830999991995012818004-05167-040667FM-12+029999999V0203201N00211012001CN0200001N1+02661+02311101031ADDAA106999999AA224002091AG10006AY161061AY261061GF108991081081008001999999MA1999999097661MD1999999+0131MW1601REMSYN017 333 58013 60024;EQDQ01  00002PRCP06
0143825830999991995013012004-05167-040667FM-12+029999999V0200901N00211007501CN0200001N1+02361+02191101391ADDAA124006091AG10001AY151061AY261061GF108991081051008001999999KA1240N+02231MA1999999097971MD1999999-0041MW1021REMSYN023 333 20223 59004 60064;
0096825830999991995013018004-05167-040667FM-12+029999999V0200901N00411007501CN0200001N1+03171+01911100931ADDAA106000091AG10000GF105991051021008001001001MA1999999097571MD1999999+0081REMSYN011 333 58008;
0115825830999991995013112004-05167-040667FM-12+029999999V0200901N00621220001CN0200001N1+02701+02001101181ADDAA106000091AG10000GF102991021011008001001001KA1240N+02211MA1999999097921MD1999999-0151REMSYN017 333 20221 59015;
0115825830999991995020112004-05167-040667FM-12+029999999V0200501N00461220001CN0200001N1+02731+02051101281ADDAA106000091AG10000GF105991041021008001001011KA1240N+02251MA1999999097931MD1999999+0111REMSYN017 333 20225 58011;
0096825830999991995020118004-05167-040667FM-12+029999999V0200901N00311105001CN0200001N1+03401+01891100751ADDAA106000091AG10000GF105991021021008001001021MA1999999098411MD1999999+0131REMSYN011 333 58013;
0134825830999991995020200004-05167-040667FM-12+029999999V0200901N00211220001CN9999999N9+02661+02141101161ADDAA106000091AG10000GF101991011021008001001001KA1240M+03481MA1999999097801MD1999999+0131REMSYN017 333 10348 58013;EQDQ01+000002VOVAR 
0096825830999991995020218004-05167-040667FM-12+029999999V0200901N00311012001CN0200001N1+03361+01891100821ADDAA106000091AG10000GF107991051081008001031021MA1999999097491MD1999999+0081REMSYN011 333 58008;
0124825830999991995020318004-05167-040667FM-12+029999999V0200901N00311007501CN0200001N1+02641+02271101071ADDAA106002091AG10007AY161061AY251061GF108991081051008001999999MA1999999097691MD1999999+0201MW1021REMSYN017 333 58020 60021;
0115825830999991995020612004-05167-040667FM-12+029999999V0203601N00211012001CN0200001N1+02651+02151101511ADDAA106000091AG10000GF108991081081008001999999KA1240N+02321MA1999999098171MD1999999-0041REMSYN017 333 20232 59004;
0096825830999991995020618004-05167-040667FM-12+029999999V0200501N00261045001CN0200001N1+02871+02211101321ADDAA106000091AG10000GF108991031051008001021999MA1999999097941MD1999999+0121REMSYN011 333 58012;
0134825830999991995020700004-05167-040667FM-12+029999999V0203201N00101012001CN9999999N9+02501+02171101491ADDAA106000091AG10000GF107991071081008001001001KA1240M+02901MA1999999098101MD1999999-0031REMSYN017 333 10290 59003;EQDQ01+000002VOVAR 
0115825830999991995020712004-05167-040667FM-12+029999999V0200501N00151007501CN0200001N1+02641+01091101611ADDAA106000091AG10000GF107991051021008001021011KA1240N+02341MA1999999098271MD1999999+0101REMSYN017 333 20234 58010;
0096825830999991995020718004-05167-040667FM-12+029999999V0200901N00311220001CN0200001N1+03061+01901101281ADDAA106000091AG10000GF102991021031008001001001MA1999999097921MD1999999-0021REMSYN011 333 59002;
0134825830999991995020800004-05167-040667FM-12+029999999V0200501N00311220001CN9999999N9+02541+02231101591ADDAA106000091AG10000GF103991031021008001001001KA1240M+03251MA1999999098201MD1999999+0101REMSYN017 333 10325 58010;EQDQ01+000002VOVAR 
0096825830999991995020818004-05167-040667FM-12+029999999V0203601N00621007501CN0200001N1+03071+02041101241ADDAA106000091AG10000GF105991051031008001001001MA1999999097881MD1999999-0041REMSYN011 333 59004;
0134825830999991995020900004-05167-040667FM-12+029999999V0200501N00411007501CN9999999N9+02561+02151101591ADDAA106000091AG10000GF108991081051008001999999KA1240M+03361MA1999999098211MD1999999+0011REMSYN017 333 10336 58001;EQDQ01+000002VOVAR 
0115825830999991995020912004-05167-040667FM-12+029999999V0200501N00211012001CN0200001N1+02611+02161101771ADDAA106000091AG10000GF108991081081008001999999KA1240N+02351MA1999999098381MD1999999+0101REMSYN017 333 20235 58010;
0096825830999991995020918004-05167-040667FM-12+029999999V0200901N00621012001CN0200001N1+03001+02171101281ADDAA106000091AG10000GF108991081081008001999999MA1999999097921MD1999999+0041REMSYN011 333 58004;
0143825830999991995021012004-05167-040667FM-12+029999999V0200901N00101002101CN0200001N1+02471+02231101711ADDAA124019091AG10007AY161061AY261061GF108991081051002501999999KA1240N+02271MA1999999098301MD1999999+0081MW1021REMSYN023 333 20227 58008 60194;
0115825830999991995021112004-05167-040667FM-12+029999999V0201401N00151007501CN0200001N1+02551+02171101541ADDAA106000091AG10000GF107991061021008001031001KA1240N+02241MA1999999098141MD1999999-0161REMSYN017 333 20224 59016;
0115825830999991995021212004-05167-040667FM-12+029999999V0200901N00211045001CN0200001N1+02511+02171101531ADDAA106000091AG10000GF107991031011008001031001KA1240N+02131MA1999999098131MD1999999-0011REMSYN017 333 20213 59001;
0115825830999991995021312004-05167-040667FM-12+029999999V0200501N00151012001CN0200001N1+02551+02191101561ADDAA106000091AG10000GF108991081081008001999999KA1240N+02301MA1999999098171MD1999999+0041REMSYN017 333 20230 58004;
0121825830999991995021412004-05167-040667FM-12+029999999V0200501N00051007501CN0200001N1+02691+02131101431ADDAA124001091AG10000GF106991061021008001001001KA1240N+02361MA1999999098091MD1999999-0081REMSYN023 333 20236 59008 60014;
0124825830999991995021418004-05167-040667FM-12+029999999V0201801N00461007501CN0008001N1+02871+02181101031ADDAA106099091AG10000AY121061AY221061GF106991051021008001001011MA1999999097661MD1999999-0031MW1211REMSYN017 333 59003 60991;
0121825830999991995021512004-05167-040667FM-12+029999999V0200501N00151012001CN0200001N1+02501+02191101461ADDAA124002091AG10000GF107991071081008001001001KA1240N+02351MA1999999098071MD1999999-0021REMSYN023 333 20235 59002 60024;
0096825830999991995021518004-05167-040667FM-12+029999999V0200901N00721007501CN0200001N1+02881+02001101071ADDAA106000091AG10000GF107991071021008001001001MA1999999097711MD1999999+0021REMSYN011 333 58002;
0143825830999991995021612004-05167-040667FM-12+029999999V0203601N00211045001CN0200001N1+02561+02211101341ADDAA124000591AG10007AY161061AY251061GF106991041011008001031001KA1240N+02271MA1999999097941MD1999999-0131MW1021REMSYN023 333 20227 59013 69954;
0096825830999991995021618004-05167-040667FM-12+029999999V0201801N00101007501CN0200001N1+03171+01841100821ADDAA106000091AG10000GF106991061021008001001001MA1999999097741MD1999999+0031REMSYN011 333 58003;
0143825830999991995021700004-05167-040667FM-12+029999999V0201401N00101007501CN0200001N1+02451+02281101171ADDAA106005091AG10000AY101061AY221061GF108991081051008001999999KA1240M+03281MA1999999097791MD1999999-0241MW1601REMSYN023 333 10328 59024 60051;
0143825830999991995021712004-05167-040667FM-12+029999999V0200901N00051007501CN0200001N1+02501+02251101291ADDAA124034091AG10007AY161061AY261061GF108991081051008001999999KA1240N+02301MA1999999097901MD1999999-0041MW1021REMSYN023 333 20230 59004 60344;
0115825830999991995021718004-05167-040667FM-12+029999999V0201801N00151220001CN9999999N9+03221+02051100791ADDAA106000091AG10000GF102991021021008001001001MA1999999097451MD1999999-0031REMSYN011 333 59003;EQDQ01+000002VOVAR 
0132825830999991995021812004-05167-040667FM-12+029999999V0200901N00051220001CN0200001N1+02481+02301101271ADDAA106000091AA224030091AG10000GF104991041021008001001001KA1240N+02101MA1999999097861MD1999999-0301REMSYN023 333 20210 59030 60304;
0150825830999991995022000004-05167-040667FM-12+029999999V0202701N00211220001CN9999999N9+02381+02171101161ADDAA106000091AG10000GA1001+999999999GF100991001001999999001001KA1240M+03221MA1999999097781MD1999999+0031REMSYN017 333 10322 58003;EQDQ01+000002VOVAR 
0115825830999991995022012004-05167-040667FM-12+029999999V0200901N00151007501CN0200001N1+02631+02201101201ADDAA106000091AG10000GF105991051021008001001001KA1240N+02271MA1999999097821MD1999999-0031REMSYN017 333 20227 59003;
0115825830999991995022112004-05167-040667FM-12+029999999V0200901N00511007501CN0200001N1+02691+02081101291ADDAA106000091AG10000GF106991061021008001001001KA1240N+02241MA1999999097911MD1999999+0091REMSYN017 333 20224 58009;
0143825830999991995022212004-05167-040667FM-12+029999999V0202301N00051045001CN0200001N1+02561+02231101281ADDAA124017091AG10001AY151061AY251061GF106991041011008001021001KA1240N+02271MA1999999097891MD1999999-0021MW1021REMSYN023 333 20227 59002 60174;
0134825830999991995022300004-05167-040667FM-12+029999999V0201801N00261220001CN9999999N9+02431+02231101211ADDAA106000091AG10000GF101991011021008001001001KA1240M+03141MA1999999097831MD1999999+0051REMSYN017 333 10314 58005;EQDQ01+000002VOVAR 
0115825830999991995022312004-05167-040667FM-12+029999999V0200901N00311007501CN0200001N1+02581+02121101321ADDAA106000091AG10000GF107991071051008001001001KA1240N+02291MA1999999097931MD1999999+0041REMSYN017 333 20229 58004;
0096825830999991995022318004-05167-040667FM-12+029999999V0201801N00261220001CN0200001N1+03121+02251100851ADDAA106000091AG10000GF104991041021008001001001MA1999999097511MD1999999+0031REMSYN011 333 58003;
0150825830999991995022400004-05167-040667FM-12+029999999V0200501N00101220001CN9999999N9+02441+02151101091ADDAA106000091AG10000GA1001+999999999GF100991001001999999001001KA1240M+03181MA1999999097711MD1999999-0121REMSYN017 333 10318 59012;EQDQ01+000002VOVAR 
0115825830999991995022412004-05167-040667FM-12+029999999V0200501N00151012001CN0200001N1+02551+02231101391ADDAA106000091AG10000GF108991081081008001999999KA1240N+02241MA1999999098001MD1999999+0071REMSYN017 333 20224 58007;
0096825830999991995022518004-05167-040667FM-12+029999999V0201401N00311007501CN0200001N1+02661+02201101101ADDAA106000091AG10000GF106991061021008001001001MA1999999097721MD1999999+0171REMSYN011 333 58017;
0132825830999991995022712004-05167-040667FM-12+029999999V0200901N00311007501CN0200001N1+02591+02121101431ADDAA106000091AA224000591AG10000GF107991071051008001001001KA1240N+02141MA1999999098041MD1999999-0101REMSYN023 333 20214 59010 69954;
0096825830999991995022718004-05167-040667FM-12+029999999V0201801N00151220001CN0200001N1+03201+01991100981ADDAA106000091AG10000GF102991021021008001001001MA1999999097621MD1999999-0191REMSYN011 333 59019;
0096825830999991995022818004-05167-040667FM-12+029999999V0200901N00361220001CN0200001N1+03291+01951100761ADDAA106000091AG10000GF103991031021008001001001MA1999999097421MD1999999-0201REMSYN011 333 59020;
0162825830999991995030100004-05167-040667FM-12+029999999V0203201N00211220001CN9999999N9+02541+02251101151ADDAA106002091AG10006AY161061AY261061GF102991021021008001001001KA1240M+03351MA1999999097781MD1999999-0021MW1021REMSYN023 333 10335 59002 60021;EQDQ01+000002VOVAR 
0121825830999991995030112004-05167-040667FM-12+029999999V0200901N00151220001CN0200001N1+02621+02251101411ADDAA124002091AG10000GF106991041011008001001011KA1240N+02351MA1999999098031MD1999999+0091REMSYN023 333 20235 58009 60024;
0096825830999991995030118004-05167-040667FM-12+029999999V0201401N00461220001CN0200001N1+02881+02211101141ADDAA106000091AG10000GF103991031011008001001001MA1999999097781MD1999999+0361REMSYN011 333 58036;
0150825830999991995030200004-05167-040667FM-12+029999999V0202701N00101220001CN9999999N9+02461+02151101311ADDAA106000091AG10000GA1001+999999999GF100991001001999999001001KA1240M+02981MA1999999097931MD1999999+0151REMSYN017 333 10298 58015;EQDQ01+000002VOVAR 
0115825830999991995030212004-05167-040667FM-12+029999999V0200501N00311007501CN0200001N1+02671+02161101461ADDAA106000091AG10000GF107991061021008001031001KA1240N+02211MA1999999098071MD1999999+0041REMSYN017 333 20221 58004;
0096825830999991995030218004-05167-040667FM-12+029999999V0200501N00461045001CN0200001N1+03291+01961101001ADDAA106000091AG10000GF106991041021008001031001MA1999999097651MD1999999-0131REMSYN011 333 59013;
0134825830999991995030300004-05167-040667FM-12+029999999V0200501N00151220001CN9999999N9+02761+02121101251ADDAA106000091AG10000GF101991011021008001001001KA1240M+03391MA1999999097891MD1999999-0041REMSYN017 333 10339 59004;EQDQ01+000002VOVAR 
0115825830999991995030312004-05167-040667FM-12+029999999V0200901N00261220001CN0200001N1+02811+02121101381ADDAA106000091AG10000GF105991041011008001001011KA1240N+02341MA1999999098021MD1999999-0051REMSYN017 333 20234 59005;
0096825830999991995030318004-05167-040667FM-12+029999999V0203201N00261007501CN0200001N1+02951+02231101621ADDAA106000091AG10000GF106991061021008001001001MA1999999097661MD1999999+0011REMSYN011 333 58001;
0143825830999991995030412004-05167-040667FM-12+029999999V0200901N00621220001CN0200001N1+02711+02101101471ADDAA124005091AG10006AY161061AY261061GF102991011011008001001011KA1240N+02211MA1999999098091MD1999999+0071MW1031REMSYN023 333 20221 58007 60054;
0115825830999991995030512004-05167-040667FM-12+029999999V0200901N00311220001CN0200001N1+02711+02051101341ADDAA106000091AG10000GF102991021011008001001001KA1240N+02071MA1999999097971MD1999999-0121REMSYN017 333 20207 59012;
0115825830999991995030612004-05167-040667FM-12+029999999V0201401N00411220001CN0200001N1+02721+02001101231ADDAA106000091AG10000GF102991011011008001001011KA1240N+02031MA1999999097861MD1999999-0111REMSYN017 333 20203 59011;
0189825830999991995030618004-05167-040667FM-12+029999999V0203401N00051001201CN0020001N1+99999-00112100761ADDAA199001091AG10005AY171061AY271061GA1081+001209079GF108991081061001501999999KA1240M+00181MD1310011+9999MW1731REMSYN017 333 10018 88704;EQDQ01+027303ATOT  Q02+027213ATOD  Q03 -00023ATOT  
0096825830999991995030718004-05167-040667FM-12+029999999V0200901N00361007501CN0200001N1+03321+02041100781ADDAA106000091AG10000GF107991071021008001001001MA1999999097451MD1999999-0111REMSYN011 333 59011;
0162825830999991995030800004-05167-040667FM-12+029999999V0203601N00101007501CN9999999N9+02341+02221101141ADDAA106011091AG10006AY161061AY261061GF108991081051008001999999KA1240M+03361MA1999999097771MD1999999-0041MW1021REMSYN023 333 10336 59004 60111;EQDQ01+000002VOVAR 
0121825830999991995030812004-05167-040667FM-12+029999999V0201401N00261012001CN0200001N1+02631+02231101281ADDAA124011091AG10000GF106991051081008001031001KA1240N+02271MA1999999097891MD1999999-0061REMSYN023 333 20227 59006 60114;
0096825830999991995030818004-05167-040667FM-12+029999999V0201801N00461012001CN0200001N1+03071+02211100801ADDAA106000091AG10000GF106991051081008001001021MA1999999097451MD1999999+0001REMSYN011 333 58000;
0162825830999991995030900004-05167-040667FM-12+029999999V0209991C00001007501CN9999999N9+02401+02281101091ADDAA106001091AG10006AY161061AY261061GF108991081051008001999999KA1240M+03221MA1999999097711MD1999999-0011MW1021REMSYN023 333 10322 59001 60011;EQDQ01+000002VOVAR 
0121825830999991995030912004-05167-040667FM-12+029999999V0200901N00461012001CN0200001N1+02691+02171101361ADDAA124001091AG10000GF108991061081008001021999KA1240N+02371MA1999999097981MD1999999+0091REMSYN023 333 20237 58009 60014;
0096825830999991995030918004-05167-040667FM-12+029999999V0201401N00151220001CN0200001N1+03171+02131100931ADDAA106000091AG10000GF101991011021008001001001MA1999999097591MD1999999+0141REMSYN011 333 58014;
0162825830999991995031000004-05167-040667FM-12+029999999V0202701N00261007501CN9999999N9+02421+02191101251ADDAA106002091AG10006AY161061AY261061GF108991081051008001999999KA1240M+03221MA1999999097871MD1999999+0161MW1211REMSYN023 333 10322 58016 60021;EQDQ01+000002VOVAR 
0121825830999991995031012004-05167-040667FM-12+029999999V0200901N00311007501CN0200001N1+02731+02191101391ADDAA124002091AG10000GF106991061021008001001001KA1240N+02301MA1999999098011MD1999999-0031REMSYN023 333 20230 59003 60024;
0115825830999991995031112004-05167-040667FM-12+029999999V0200901N00461220001CN0200001N1+02831+02071101341ADDAA106000091AG10000GF104991021011008001001011KA1240N+02361MA1999999097981MD1999999-0031REMSYN017 333 20236 59003;
0096825830999991995031118004-05167-040667FM-12+029999999V0201801N00211220001CN0200001N1+03281+02201100901ADDAA106000091AG10000GF104991041011008001001001MA1999999097571MD1999999-0031REMSYN011 333 59003;
0121825830999991995031312004-05167-040667FM-12+029999999V0200901N00151012001CN0200001N1+02581+02271101081ADDAA124000591AG10000GF108991081081008001999999KA1240N+02261MA1999999097701MD1999999-0181REMSYN023 333 20226 59018 69944;
0096825830999991995031318004-05167-040667FM-12+029999999V0201401N00211012001CN0200001N1+03061+02171100581ADDAA106000091AG10000GF108991081081008001999999MA1999999097241MD1999999-0201REMSYN011 333 59020;
0162825830999991995031400004-05167-040667FM-12+029999999V0201801N00211007501CN9999999N9+02321+02251101011ADDAA106006091AG10006AY161061AY261061GF108991081051008001999999KA1240M+03221MA1999999097631MD1999999-0061MW1601REMSYN023 333 10322 59006 60061;EQDQ01+000002VOVAR 
0143825830999991995031412004-05167-040667FM-12+029999999V0203601N00151045001CN0200001N1+02581+02211101051ADDAA124010091AG10006AY161061AY261061GF106991041011008001031001KA1240N+02271MA1999999097671MD1999999-0031MW1021REMSYN023 333 20227 59003 60104;
0143825830999991995031512004-05167-040667FM-12+029999999V0200501N00051012001CN0200001N1+02611+02311101291ADDAA124003091AG10006AY161061AY261061GF108991081081008001999999KA1240N+02271MA1999999097901MD1999999+0271MW1021REMSYN023 333 20227 58027 60034;
0137825830999991995031600004-05167-040667FM-12+029999999V0203201N00211220001CN0040001N1+02301+99999101061ADDAA106000091AG10000AY121061AY221061GF104991021021008001001031KA1240M+02561MA1999999095911MD1999999+0171MW1131REMSYN017 333 10256 58017;
0132825830999991995031612004-05167-040667FM-12+029999999V0200901N004110075019N0200001N1+02531+99999101251ADDAA106000091AA224002091AG10000GF106991051021008001031001KA1240N+02171MA1999999096101MD1999999+0071REMSYN023 333 20217 58007 60024;
0115825830999991995031712004-05167-040667FM-12+029999999V0203601N00261007501CN0200001N1+02541+02211101431ADDAA106000091AG10000GF108991081051008001999999KA1240N+02241MA1999999098041MD1999999+0061REMSYN017 333 20224 58006;
0096825830999991995031718004-05167-040667FM-12+029999999V0203201N00101220001CN0200001N1+03161+02321100911ADDAA106000091AG10000GF101991011021008001001001MA1999999097571MD1999999-0061REMSYN011 333 59006;
0115825830999991995031800004-05167-040667FM-12+029999999V0209991C00001015001CN0100001N1+02761+02621100961ADDAA106000091AG10000GF106991061061017501001001MA1999999100402MD1999999+0301REMSYN011 333 58030;EQDQ01+100403APOSP 
0143825830999991995032012004-05167-040667FM-12+029999999V0201401N00151007501CN0200001N1+02551+02351101561ADDAA124015091AG10006AY161061AY261061GF108991081051008001999999KA1240N+02221MA1999999098151MD1999999+0131MW1021REMSYN023 333 20222 58013 60154;
0121825830999991995032112004-05167-040667FM-12+029999999V0201401N00151007501CN0200001N1+02691+02261101421ADDAA124000591AG10000GF108991081021008001999999KA1240N+02271MA1999999098041MD1999999-0111REMSYN023 333 20227 59011 69954;
0134825830999991995032200004-05167-040667FM-12+029999999V0201801N00051220001CN9999999N9+02341+02291101301ADDAA106000091AG10000GF101991011021008001001001KA1240M+03041MA1999999097901MD1999999-0151REMSYN017 333 10304 59015;EQDQ01+000002VOVAR 
0121825830999991995032212004-05167-040667FM-12+029999999V0200501N00261220001CN0200001N1+02581+02231101261ADDAA124004091AG10000GF104991011011008001001021KA1240N+02271MA1999999097861MD1999999-0121REMSYN023 333 20227 59012 60044;
0115825830999991995032312004-05167-040667FM-12+029999999V0201401N00211007501CN0200001N1+02591+02291101221ADDAA106000091AG10000GF106991061021008001001001KA1240N+02261MA1999999097841MD1999999-0021REMSYN017 333 20226 59002;
0096825830999991995032418004-05167-040667FM-12+029999999V0200901N00211007501CN0200001N1+02911+02301100691ADDAA106000091AG10000GF107991071021008001001001MA1999999097331MD1999999+0011REMSYN011 333 58001;
0134825830999991995032712004-05167-040667FM-12+029999999V0203601N00151220001CN9999999N9+02581+02311101161ADDAA106000091AG10000GF101991011021008001001001KA1240M+03281MA1999999097781MD1999999-0161REMSYN017 333 10328 59016;EQDQ01+000002VOVAR 
0134825830999991995032800004-05167-040667FM-12+029999999V0203201N00151220001CN9999999N9+02441+02271101101ADDAA106000091AG10000GF101991011021008001001001KA1240M+03301MA1999999097721MD1999999-0061REMSYN017 333 10330 59006;EQDQ01+000002VOVAR 
0115825830999991995032812004-05167-040667FM-12+029999999V0200901N00151012001CN0200001N1+02591+02261101231ADDAA106000091AG10000GF107991071081008001001001KA1240N+02351MA1999999097851MD1999999+0001REMSYN017 333 20235 58000;
0124825830999991995032818004-05167-040667FM-12+029999999V0200901N00211007501CN0200001N1+02711+02281100781ADDAA106016091AG10006AY161061AY261061GF106991051091008001001021MA1999999097421MD1999999+0091MW1031REMSYN017 333 58009 60161;
0162825830999991995032900004-05167-040667FM-12+029999999V0203201N00211007501CN9999999N9+02201+02151101211ADDAA106007091AG10006AY161061AY261061GF108991081051008001999999KA1240M+02881MA1999999097821MD1999999+0101MW1021REMSYN023 333 10288 58010 60071;EQDQ01+000002VOVAR 
0121825830999991995032912004-05167-040667FM-12+029999999V0200501N00211007501CN0200001N1+02531+02331101251ADDAA124024091AG10000GF106991061051008001001001KA1240N+02151MA1999999097851MD1999999+0001REMSYN023 333 20215 58000 60244;
0115825830999991995033012004-05167-040667FM-12+029999999V0200501N00261007501CN0200001N1+02551+02251101331ADDAA106000091AG10000GF108991081051008001999999KA1240N+02271MA1999999097941MD1999999+0091REMSYN017 333 20227 58009;
0150825830999991995033100004-05167-040667FM-12+029999999V0202301N00101220001CN9999999N9+02401+02301101121ADDAA106000091AG10000GA1001+999999999GF100991001001999999001001KA1240M+03151MA1999999097741MD1999999-0061REMSYN017 333 10315 59006;EQDQ01+000002VOVAR 
0115825830999991995033112004-05167-040667FM-12+029999999V0200901N00361220001CN0200001N1+02711+02241101191ADDAA106000091AG10000GF103991031011008001001001KA1240N+02261MA1999999097811MD1999999-0131REMSYN017 333 20226 59013;
0096825830999991995033118004-05167-040667FM-12+029999999V0200501N00361220001CN0200001N1+03061+02301100761ADDAA106000091AG10000GF104991041011008001001011MA1999999097411MD1999999-0051REMSYN011 333 59005;
0140825830999991995040112004-05167-040667FM-12+029999999V0200901N004119999999N0200001N1+02431+02331101201ADDAA124004091AG10000GF107991999081008001001001KA1240N+02311MA1999999097821MD1999999+0011REMSYN023 333 20231 58001 60044;EQDQ01+000082SCOTLC
0096825830999991995040218004-05167-040667FM-12+029999999V0200901N00211220001CN0200001N1+03041+02201101021ADDAA106000091AG10000GF104991041021008001001001MA1999999097661MD1999999+0241REMSYN011 333 58024;
0134825830999991995040300004-05167-040667FM-12+029999999V0203201N00051220001CN9999999N9+02421+02321101301ADDAA106000091AG10000GF102991021021008001001001KA1240M+03121MA1999999097911MD1999999+0121REMSYN017 333 10312 58012;EQDQ01+000002VOVAR 
0115825830999991995040412004-05167-040667FM-12+029999999V0200901N00311007501CN0200001N1+02631+02231101191ADDAA106000091AG10000GF108991081051008001999999KA1240N+02281MA1999999097821MD1999999+0001REMSYN017 333 20228 58000;
0134825830999991995040500004-05167-040667FM-12+029999999V0203201N00261220001CN9999999N9+02461+02281101141ADDAA106000091AG10000GF104991041021008001001001KA1240M+03231MA1999999097831MD1999999-0011REMSYN017 333 10323 59001;EQDQ01+000002VOVAR 
0162825830999991995040512004-05167-040667FM-12+029999999V0203601N00101007501CN0200001N1+02531+02331101211ADDAA124000591AG10000AY121061AY221061GF108991081051008001999999KA1240M+99999MA1999999097831MD1999999+0011MW1211REMSYN023 333 10235 58001 69964;EQDQ01 +02352ATMX  
0143825830999991995040612004-05167-040667FM-12+029999999V0201401N00151007501CN0200001N1+02531+02351101361ADDAA124087091AG10006AY161061AY251061GF108991081051008001999999KA1240N+02251MA1999999097961MD1999999+0131MW1021REMSYN023 333 20225 58013 60874;
0124825830999991995040618004-05167-040667FM-12+029999999V0200501N00211007501CN0200001N1+02431+02341101011ADDAA106003091AG10006AY161061AY261061GF108991081051008001999999MA1999999097621MD1999999+0231MW1211REMSYN017 333 58023 60031;
0143825830999991995040712004-05167-040667FM-12+029999999V0201401N00211007501CN0200001N1+02631+02251101291ADDAA124009091AG10001AY151061AY251061GF108991081051008001999999KA1240N+02231MA1999999097891MD1999999-0071MW1021REMSYN023 333 20223 59007 60094;
0124825830999991995040818004-05167-040667FM-12+029999999V0200901N00211007501CN0200001N1+02281+02181101031ADDAA106031091AG10006AY161061AY261061GF108991081051008001999999MA1999999097631MD1999999+0131MW1211REMSYN017 333 58013 60311;
0151825830999991995040912004-05167-040667FM-12+029999999V0200901N00261007501CN0200001N1+02491+02251101191ADDAA106000091AA224035091AG10000GF107991071021008001001001KA1240M+99999MA1999999097791MD1999999-0081REMSYN023 333 10220 59008 60354;EQDQ01 +02202ATMX  
0107825830999991995041018004-05167-040667FM-12+029999999V0201401N005719999999N0020001N1+02491+02211100751ADDAG10000AY121061AY221061GF108991081999008001999999MA1999999097371MD1999999+0071MW1151REMSYN011 333 58007;
0143825830999991995041112004-05167-040667FM-12+029999999V0201401N00261007501CN0200001N1+02381+02241101331ADDAA124005091AG10001AY151061AY261061GF108991081051008001999999KA1240N+02211MA1999999097931MD1999999-0021MW1021REMSYN023 333 20221 59002 60054;
0096825830999991995041118004-05167-040667FM-12+029999999V0202301N00101045001CN0200001N1+02871+02281100871ADDAA106000091AG10000GF106991031021008001021001MA1999999097511MD1999999+0141REMSYN011 333 58014;
0143825830999991995041212004-05167-040667FM-12+029999999V0200901N00411007501CN0200001N1+02611+02251101351ADDAA124004091AG10006AY161061AY261061GF108991071051008001031999KA1240N+02271MA1999999097961MD1999999+0031MW1021REMSYN023 333 20227 58003 60044;
0096825830999991995041318004-05167-040667FM-12+029999999V0202301N00151220001CN0200001N1+02901+02341100751ADDAA106000091AG10000GF104991041031008001001001MA1999999097391MD1999999-0131REMSYN011 333 59013;
0162825830999991995041400004-05167-040667FM-12+029999999V0203201N00151220001CN9999999N9+02341+02271101111ADDAA106012091AG10006AY161061AY261061GF102991021001017501031011KA1240M+03031MA1999999097731MD1999999-0061MW1021REMSYN023 333 10303 59006 60121;EQDQ01+000002VOVAR 
0121825830999991995041412004-05167-040667FM-12+029999999V0201401N00151007501CN0200001N1+02621+02291101121ADDAA124012091AG10000GF108991071051008001001011KA1240N+02301MA1999999097741MD1999999-0071REMSYN023 333 20230 59007 60124;
0124825830999991995041418004-05167-040667FM-12+029999999V0200901N00411007501CN0200001N1+02501+02361100811ADDAA106010091AG10006AY161061AY261061GF108991081051008001999999MA1999999097431MD1999999+0041MW1601REMSYN017 333 58004 60101;
0143825830999991995041712004-05167-040667FM-12+029999999V0201401N00261220001CN0200001N1+02551+02271101281ADDAA124031091AG10001AY151061AY251061GF103991021011008001001011KA1240N+02151MA1999999097881MD1999999-0061MW1011REMSYN023 333 20215 59006 60314;
0096825830999991995041718004-05167-040667FM-12+029999999V0201401N00151220001CN0200001N1+03051+02221100811ADDAA106000091AG10000GF102991011011008001001011MA1999999097451MD1999999-0221REMSYN011 333 59022;
0115825830999991995041812004-05167-040667FM-12+029999999V0203601N00101007501CN0200001N1+02471+02311101161ADDAA106000091AG10000GF108991081051008001999999KA1240N+02271MA1999999097781MD1999999-0101REMSYN017 333 20227 59010;
0132825830999991995042012004-05167-040667FM-12+029999999V0201401N00211007501CN0200001N1+02521+02311101331ADDAA106000091AA224001091AG10000GF108991081051008001999999KA1240N+02231MA1999999097931MD1999999+0021REMSYN023 333 20223 58002 60014;
0096825830999991995042018004-05167-040667FM-12+029999999V0200901N00151220001CN0200001N1+02921+01191100941ADDAA106000091AG10000GF103991031021008001001001MA1999999097571MD1999999+0061REMSYN011 333 58006;
0162825830999991995042100004-05167-040667FM-12+029999999V0201401N00051007501CN9999999N9+02481+02291101191ADDAA106000191AG10000AY121061AY221061GF107991071021008001001001KA1240M+03021MA1999999097811MD1999999-0131MW1211REMSYN023 333 10302 59013 69911;EQDQ01+000002VOVAR 
0143825830999991995042112004-05167-040667FM-12+029999999V0200901N00311220001CN0200001N1+02701+02221101091ADDAA124000591AG10006AY161061AY261061GF102991021011008001031001KA1240N+02261MA1999999097721MD1999999-0211MW1021REMSYN023 333 20226 59021 69944;
0150825830999991995042300004-05167-040667FM-12+029999999V0201401N00151220001CN9999999N9+02521+02311101071ADDAA106000091AG10000GA1001+999999999GF100991001001999999001001KA1240M+03141MA1999999097651MD1999999-0171REMSYN017 333 10314 59017;EQDQ01+000002VOVAR 
0115825830999991995042312004-05167-040667FM-12+029999999V0200501N00211220001CN0200001N1+02751+02401101231ADDAA106000091AG10000GF101991011011008001001999KA1240N+02251MA1999999097851MD1999999-0011REMSYN017 333 20225 59001;
0121825830999991995042412004-05167-040667FM-12+029999999V0200501N00211007501CN0200001N1+02671+02351101331ADDAA124002091AG10000GF106991061021008001001001KA1240N+02271MA1999999097951MD1999999+0101REMSYN023 333 20227 58010 60024;
0115825830999991995042512004-05167-040667FM-12+029999999V0200901N00211012001CN0200001N1+02611+02371101331ADDAA106000091AG10000GF107991071081008001001001KA1240N+02251MA1999999097951MD1999999+0001REMSYN017 333 20225 58000;
0096825830999991995042518004-05167-040667FM-12+029999999V0201401N00261220001CN0200001N1+03021+02261100911ADDAA106000091AG10000GF103991021021008001001011MA1999999097551MD1999999+0001REMSYN011 333 58000;
0121825830999991995042612004-05167-040667FM-12+029999999V0200901N00101220001CN0200001N1+02621+02251101201ADDAA124023091AG10000GF103991031011008001001001KA1240N+02291MA1999999097781MD1999999-0131REMSYN023 333 20229 59013 60234;
0115825830999991995042712004-05167-040667FM-12+029999999V0200901N00211007501CN0200001N1+02681+02281101101ADDAA106000091AG10000GF105991051021008001001001KA1240N+02311MA1999999097731MD1999999-0091REMSYN017 333 20231 59009;
0096825830999991995042718004-05167-040667FM-12+029999999V0201801N00151007501CN0200001N1+02961+02351100721ADDAA106000091AG10000GF106991051021008001001011MA1999999097371MD1999999-0071REMSYN011 333 59007;
0143825830999991995042812004-05167-040667FM-12+029999999V0200901N00051007501CN0200001N1+02611+02371101181ADDAA124007091AG10006AY161061AY261061GF107991061021008001001011KA1240N+02311MA1999999097801MD1999999+0071MW1031REMSYN023 333 20231 58007 60074;
0132825830999991995043012004-05167-040667FM-12+029999999V0201401N00051007501CN0200001N1+02541+02311101361ADDAA106000091AA224003091AG10000GF105991051021008001001001KA1240N+02251MA1999999097961MD1999999+0041REMSYN023 333 20225 58004 60034;
0115825830999991995050112004-05167-040667FM-12+029999999V0201401N00101012001CN0200001N1+02601+02351101291ADDAA106000091AG10000GF107991071081008001001001KA1240N+02321MA1999999097911MD1999999-0051REMSYN017 333 20232 59005;
0143825830999991995050118004-05167-040667FM-12+029999999V0202701N00211012001CN0200001N1+02571+02351100961ADDAA106001091AG10005AY161061AY261061GF106991999081008001001001MA1999999097581MD1999999+0051MW1031REMSYN017 333 58005 60011;EQDQ01+000052SCOTLC
0143825830999991995050212004-05167-040667FM-12+029999999V0200901N00151007501CN0200001N1+02561+02271101221ADDAA124019091AG10005AY161061AY291061GF108991081051008001999999KA1240N+02221MA1999999097831MD1999999+0081MW1031REMSYN023 333 20222 58008 60194;
0115825830999991995050512004-05167-040667FM-12+029999999V0200501N00211012001CN0200001N1+02571+02271101351ADDAA106000091AG10000GF108991081081008001999999KA1240N+02241MA1999999097961MD1999999-0051REMSYN017 333 20224 59005;
0115825830999991995050712004-05167-040667FM-12+029999999V0200901N00151007501CN0200001N1+02671+02281101231ADDAA106000091AG10000GF105991051021008001001001KA1240N+02281MA1999999097851MD1999999-0091REMSYN017 333 20228 59009;
0115825830999991995050912004-05167-040667FM-12+029999999V0200901N00311012001CN0200001N1+02601+02251101501ADDAA106000091AG10000GF108991081081008001999999KA1240N+02291MA1999999098111MD1999999+0101REMSYN017 333 20229 58010;
0115825830999991995051012004-05167-040667FM-12+029999999V0200501N00151012001CN0200001N1+02611+02211101511ADDAA106000091AG10000GF106991061081008001001001KA1240N+02391MA1999999098131MD1999999+0021REMSYN017 333 20239 58002;
0096825830999991995051018004-05167-040667FM-12+029999999V0202701N00051220001CN0200001N1+03101+02201101111ADDAA106000091AG10000GF101991011011008001001001MA1999999097751MD1999999+0021REMSYN011 333 58002;
0096825830999991995051118004-05167-040667FM-12+029999999V0201801N00151220001CN0200001N1+03101+02181101011ADDAA106000091AG10000GF101991011011008001001001MA1999999097631MD1999999-0121REMSYN011 333 59012;
0115825830999991995051312004-05167-040667FM-12+029999999V0200901N00311007501CN0200001N1+02551+02521101401ADDAA106000091AG10000GF107991071021008001001001KA1240N+02201MA1999999098011MD1999999-0041REMSYN017 333 20220 59004;
0115825830999991995051412004-05167-040667FM-12+029999999V0201401N00151007501CN0200001N1+02601+02221101421ADDAA106000091AG10000GF107991071021008001001001KA1240N+02281MA1999999098031MD1999999+0031REMSYN017 333 20228 58003;
0096825830999991995051518004-05167-040667FM-12+029999999V0200901N00151220001CN0200001N1+03081+02211100931ADDAA106000091AG10000GF104991041021008001001011MA1999999097571MD1999999-0161REMSYN011 333 59016;
0143825830999991995051612004-05167-040667FM-12+029999999V0200901N00311012001CN0200001N1+02511+02251101291ADDAA124004091AG10005AY161061AY261061GF108991081081008001999999KA1240N+02221MA1999999097891MD1999999-0091MW1021REMSYN023 333 20222 59009 60044;
0115825830999991995051712004-05167-040667FM-12+029999999V0201401N00211012001CN0200001N1+02491+02221101331ADDAA106000091AG10000GF108991071081008001031999KA1240N+02211MA1999999097931MD1999999+0041REMSYN017 333 20221 58004;
0096825830999991995051718004-05167-040667FM-12+029999999V0200901N00361045001CN0200001N1+03051+02171101021ADDAA106000091AG10000GF106991021021008001031011MA1999999097661MD1999999+0101REMSYN011 333 58010;
0115825830999991995051812004-05167-040667FM-12+029999999V0201401N00151012001CN0200001N1+02541+02211101291ADDAA106000091AG10000GF108991081081008001999999KA1240N+02201MA1999999097891MD1999999-0041REMSYN017 333 20220 59004;
0121825830999991995051912004-05167-040667FM-12+029999999V0200901N00101220001CN0200001N1+02691+02301101181ADDAA124000191AG10000GF103991021021008001001011KA1240N+02211MA1999999097801MD1999999-0091REMSYN023 333 20221 59009 69924;
0132825830999991995052112004-05167-040667FM-12+029999999V0201401N00101007501CN0200001N1+02461+02271101541ADDAA106000091AA224001091AG10000GF108991081051008001999999KA1240N+02241MA1999999098131MD1999999+0201REMSYN023 333 20224 58020 60014;
0096825830999991995052218004-05167-040667FM-12+029999999V0201801N00151220001CN0090001N1+02881+02411101031ADDAA106000091AG10000GF102991021021002501001001MA1999999097661MD1999999-0121REMSYN011 333 59012;
0115825830999991995052312004-05167-040667FM-12+029999999V0203201N00101012001CN0200001N1+02531+02231101391ADDAA106000091AG10000GF106991061081008001001001KA1240N+02231MA1999999098001MD1999999-0021REMSYN017 333 20223 59002;
0121825830999991995052412004-05167-040667FM-12+029999999V0201401N00101012001CN0200001N1+02361+02211101441ADDAA124029091AG10000GF108991081081008001999999KA1240N+02121MA1999999098021MD1999999+0021REMSYN023 333 20212 58002 60294;
0143825830999991995052512004-05167-040667FM-12+029999999V0201801N00211007501CN0010001N1+02241+02211101561ADDAA124056091AG10005AY161061AY261061GF108991081051008001999999KA1240N+02191MA1999999098141MD1999999+0121MW1631REMSYN023 333 20219 58012 60564;
0132825830999991995052712004-05167-040667FM-12+029999999V0201801N00051007501CN0200001N1+02501+02251101471ADDAA106000091AA224006091AG10000GF108991081051008001999999KA1240N+02221MA1999999098071MD1999999+0041REMSYN023 333 20222 58004 60064;
0096825830999991995052818004-05167-040667FM-12+029999999V0200901N00361220001CN0200001N1+02981+02041101121ADDAA106000091AG10000GF101991011011008001001001MA1999999097761MD1999999+0051REMSYN011 333 58005;
0096825830999991995052918004-05167-040667FM-12+029999999V0200901N00261012001CN0200001N1+02851+02191101251ADDAA106000091AG10000GF107991061081008001001011MA1999999097871MD1999999+0111REMSYN011 333 58011;
0096825830999991995053118004-05167-040667FM-12+029999999V0201801N00261105001CN0200001N1+02931+02291101041ADDAA106000091AG10000GF106991011011008001031041MA1999999097701MD1999999-0131REMSYN011 333 59013;
0143825830999991995060312004-05167-040667FM-12+029999999V0200901N00511007501CN0200001N1+02481+02171101401ADDAA124002091AG10005AY161061AY261061GF108991081051008001999999KA1240N+02201MA1999999098001MD1999999-0141MW1021REMSYN023 333 20220 59014 60024;
0115825830999991995060412004-05167-040667FM-12+029999999V0201401N00411012001CN0200001N1+02341+02011101531ADDAA106000091AG10000GF107991071081008001001001KA1240N+02051MA1999999098121MD1999999+0121REMSYN017 333 20205 58012;
0115825830999991995060512004-05167-040667FM-12+029999999V0201401N00411220001CN0200001N1+02461+02191101551ADDAA106000091AG10000GF103991021011008001001011KA1240N+02181MA1999999098141MD1999999+0021REMSYN017 333 20218 58002;
0096825830999991995060518004-05167-040667FM-12+029999999V0200901N00461220001CN0200001N1+02921+01951101221ADDAA106000091AG10000GF101991011001008001001011MA1999999097841MD1999999-0021REMSYN011 333 59002;
0115825830999991995060612004-05167-040667FM-12+029999999V0201401N00461007501CN0200001N1+02511+01981101541ADDAA106000091AG10000GF106991061011008001001001KA1240N+02001MA1999999098131MD1999999-0011REMSYN017 333 20200 59001;
0096825830999991995060718004-05167-040667FM-12+029999999V0200901N00571007501CN0200001N1+02831+99999101271ADDAA106000091AG10000GF107991071021008001001001MA1999999097871MD1999999+0061REMSYN011 333 58006;
0115825830999991995060812004-05167-040667FM-12+029999999V0201401N00461220001CN0200001N1+02581+02101101531ADDAA106000091AG10000GF103991031021008001001001KA1240N+02101MA1999999098131MD1999999-0021REMSYN017 333 20210 59002;
0096825830999991995060818004-05167-040667FM-12+029999999V0200901N00411220001CN0200001N1+02891+02081101171ADDAA106000091AG10000GF103991031021008001001001MA1999999097781MD1999999-0091REMSYN011 333 59009;
0096825830999991995061118004-05167-040667FM-12+029999999V0200901N00511220001CN0200001N1+02981+02041101171ADDAA106000091AG10000GF101991011011008001001001MA1999999097791MD1999999+0021REMSYN011 333 58002;
0143825830999991995061212004-05167-040667FM-12+029999999V0200901N00151012001CN0200001N1+02451+02191101531ADDAA124002091AG10005AY161061AY261061GF108991081081008001999999KA1240N+02101MA1999999098131MD1999999-0021MW1021REMSYN023 333 20210 59002 60024;
0121825830999991995061312004-05167-040667FM-12+029999999V0201401N00361220001CN0200001N1+02551+02171101631ADDAA124000591AG10000GF101991011011008001001001KA1240N+01711MA1999999098221MD1999999+0091REMSYN023 333 20171 58009 69944;
0096825830999991995061318004-05167-040667FM-12+029999999V0201401N00311220001CN0200001N1+02941+01941101291ADDAA106000091AG10000GF101991011011008001001001MA1999999097891MD1999999+0051REMSYN011 333 58005;
0143825830999991995061412004-05167-040667FM-12+029999999V0201401N00311007501CN0100001N1+02331+02291101621ADDAA124002091AG10005AY161061AY251061GF108991061051008001051999KA1240N+02171MA1999999098211MD1999999-0011MW1211REMSYN023 333 20217 59001 60024;
0096825830999991995061418004-05167-040667FM-12+029999999V0200901N00311012001CN0200001N1+02811+02121101261ADDAA106000091AG10000GF107991071081008001001001MA1999999097881MD1999999-0011REMSYN011 333 59001;
0101825830999991995061612004-05167-040667FM-12+029999999V0201401N00461220001CN0200001N1+02651+02071101461ADDAA106000091AG10000GF101991011011008001001001KA1240N+02121MA1999999098061REMSYN017 333 20212 5800/;
0115825830999991995061712004-05167-040667FM-12+029999999V0201401N00361220001CN0200001N1+02551+02081101591ADDAA106000091AG10000GF102991021011008001001001KA1240N+01911MA1999999098181MD1999999+0121REMSYN017 333 20191 58012;
0096825830999991995061718004-05167-040667FM-12+029999999V0201401N00461220001CN0200001N1+03021+01991101221ADDAA106000091AG10000GF101991011011008001001001MA1999999097841MD1999999+0011REMSYN011 333 58001;
0134825830999991995061912004-05167-040667FM-12+029999999V0201401N00261220001CN0200001N1+02681+02131101541ADDAA106000091AG10000GF101991999011008001001001KA1240N+02101MA1999999098141MD1999999+0021REMSYN017 333 20210 58002;EQDQ01+000082SCOTLC
0115825830999991995062012004-05167-040667FM-12+029999999V0202301N00051220001CN0200001N1+02511+02151101461ADDAA106000091AG10000GF101991011011008001001001KA1240N+01971MA1999999098061MD1999999-0081REMSYN017 333 20197 59008;
0096825830999991995062018004-05167-040667FM-12+029999999V0201801N00461220001CN0200001N1+03151+02021101091ADDAA106000091AG10000GF102991011011008001001011MA1999999097711MD1999999-0041REMSYN011 333 59004;
0115825830999991995062112004-05167-040667FM-12+029999999V0201801N00261007501CN0200001N1+02401+02031101631ADDAA106000091AG10000GF107991071051008001001001KA1240N+02071MA1999999098221MD1999999+0121REMSYN017 333 20207 58012;
0107825830999991995062118004-05167-040667FM-12+029999999V0200901N00261007501CN0200001N1+02931+02261101201ADDAG10005AY161061AY261061GF105991051021008001001001MA1999999097821MD1999999+0111MW1021REMSYN011 333 58011;
0121825830999991995062212004-05167-040667FM-12+029999999V0201401N00461007501CN0200001N1+02501+02231101631ADDAA124000391AG10000GF107991071051008001001001KA1240N+02101MA1999999098221MD1999999+0001REMSYN023 333 20210 58000 69934;
0096825830999991995062218004-05167-040667FM-12+029999999V0201801N00051007501CN0200001N1+02871+02001101291ADDAA106000091AG10000GF107991071051008001021021MA1999999097911MD1999999+0091REMSYN011 333 58009;
0115825830999991995062312004-05167-040667FM-12+029999999V0201401N00511220001CN0200001N1+02541+02061101501ADDAA106000091AG10000GF101991011011008001001001KA1240N+01981MA1999999098101MD1999999-0121REMSYN017 333 20198 59012;
0115825830999991995062412004-05167-040667FM-12+029999999V0201401N00361220001CN0200001N1+02561+01961101401ADDAA106000091AG10000GF101991011011008001001001KA1240N+01951MA1999999098001MD1999999-0101REMSYN017 333 20195 59010;
0096825830999991995062618004-05167-040667FM-12+029999999V0200901N00211045001CN0200001N1+02761+02121101291ADDAA106000091AG10000GF106991041021008001031001MA1999999097891MD1999999+0111REMSYN011 333 58011;
0096825830999991995062718004-05167-040667FM-12+029999999V0200901N00461220001CN0200001N1+03041+02121101141ADDAA106000091AG10000GF101991011011008001001001MA1999999097761MD1999999-0131REMSYN011 333 59013;
0121825830999991995062812004-05167-040667FM-12+029999999V0200901N00571007501CN0200001N1+02561+02061101491ADDAA124000191AG10000GF106991061021008001001001KA1240N+02201MA1999999098091MD1999999-0081REMSYN023 333 20220 59008 69924;
0096825830999991995062818004-05167-040667FM-12+029999999V0201401N00311220001CN0200001N1+02891+01931101231ADDAA106000091AG10000GF102991021021008001001001MA1999999097851MD1999999+0091REMSYN011 333 58009;
0131825830999991995062821004-05167-040667FM-12+029999999V0202701N00101220001CN0500001N1+00622+00312100711ADDAG10000GF103991031051008001001999MD1410001+9999REMSYN037 22276 10000 20056 40080 57003 81030;EQDQ01+027943ATOT  Q02+027633ATOD  
0115825830999991995062912004-05167-040667FM-12+029999999V0201401N00311220001CN0200001N1+02531+02001101541ADDAA106000091AG10000GF102991011011012501001011KA1240N+01791MA1999999098131MD1999999+0041REMSYN017 333 20179 58004;
0115825830999991995063012004-05167-040667FM-12+029999999V0201401N00461220001CN0200001N1+02571+02101101491ADDAA106000091AG10000GF102991011011008001031011KA1240N+01911MA1999999098091MD1999999-0041REMSYN017 333 20191 59004;
0096825830999991995063018004-05167-040667FM-12+029999999V0201401N00571045001CN0200001N1+03071+02101101171ADDAA106000091AG10000GF106991021011008001031001MA1999999097791MD1999999+0011REMSYN011 333 58001;
0062825830999991995070112004-05167-040667FM-12+029999999V0201401N00511220001CN0200001N1+02641+01981999999ADDAA106000091AG10000GF102991999999008001999999MA1999999098151
0096825830999991995070118004-05167-040667FM-12+029999999V0200901N00571007501CN0200001N1+02901+01991101331ADDAA106000091AG10000GF107991071021008001001001MA1999999097951MD1999999+0161REMSYN011 333 58016;
0143825830999991995070212004-05167-040667FM-12+029999999V0200901N00311007501CN0200001N1+02431+02151101741ADDAA124006091AG10005AY161061AY261061GF108991081051008001999999KA1240N+02091MA1999999098341MD1999999+0191MW1021REMSYN023 333 20209 58019 60064;
0121825830999991995070313004-05167-040667FM-12+029999999V0201401N00311007501CN0200001N1+02491+02131101631ADDAA124000191AG10999GF106991061021008001001001KA1240N+02161MA1999999098231MD1999999-0111REMSYN023 333 20216 59011 69914;
0096825830999991995070318004-05167-040667FM-12+029999999V0201401N00411012001CN0200001N1+02801+02111101361ADDAA106000091AG10000GF108991081081008001999999MA1999999097981MD1999999+0011REMSYN011 333 58001;
0096825830999991995070418004-05167-040667FM-12+029999999V0201401N00461220001CN0200001N1+03091+02061101231ADDAA106000091AG10000GF104991031011008001031001MA1999999097851MD1999999-0131REMSYN011 333 59013;
0115825830999991995070512004-05167-040667FM-12+029999999V0201401N00361220001CN0200001N1+02571+02041101611ADDAA106000091AG10000GF101991011011008001001001KA1240N+01901MA1999999098211MD1999999-0031REMSYN017 333 20190 59003;
0096825830999991995070518004-05167-040667FM-12+029999999V0201401N00311220001CN0200001N1+03081+01851101261ADDAA106000091AG10000GF101991011011008001001001MA1999999097851MD1999999+0001REMSYN011 333 58000;
0115825830999991995070612004-05167-040667FM-12+029999999V0201401N00361220001CN0200001N1+02581+02081101551ADDAA106000091AG10000GF102991021011008001001001KA1240N+02101MA1999999098141MD1999999-0071REMSYN017 333 20210 59007;
0115825830999991995070718004-05167-040667FM-12+029999999V0201401N00411220001CN0200001N1+03181+01941101121ADDAA106000091AG10000GF101991999021008001001001MA1999999097741MD1999999-0061REMSYN011 333 59006;EQDQ01+000022SCOTLC
0096825830999991995071018004-05167-040667FM-12+029999999V0200901N00411220001CN0200001N1+03171+01531101221ADDAA106000091AG10000GF102991011011008001031001MA1999999097851MD1999999+0051REMSYN011 333 58005;
0112825830999991995071218004-05167-040667FM-12+029999999V0201801N00361220001CN0500001N1+03191+00871101021ADDAA106000091AG10000GA1001+999999999GF100991001001999999001001MA1999999097641MD1999999-0151REMSYN011 333 59015;
0115825830999991995071312004-05167-040667FM-12+029999999V0201401N00571220001CN0500001N1+02431+01661101511ADDAA106000091AG10000GF101991011011008001001001KA1240N+01561MA1999999098081MD1999999-0051REMSYN017 333 20156 59005;
0115825830999991995071412004-05167-040667FM-12+029999999V0201401N00411220001CN0200001N1+02601+01841101461ADDAA106000091AG10000GF101991011021008001001001KA1240N+01701MA1999999098061MD1999999-0021REMSYN017 333 20170 59002;
0115825830999991995071518004-05167-040667FM-12+029999999V0201401N00511220001CN0200001N1+02731+01951101321ADDAA106000091AG10000GF101991011021008001001001KA1240N+01751MA1999999098001MD1999999-0061REMSYN017 333 20175 59006;
0143825830999991995071612004-05167-040667FM-12+029999999V0201401N00461007501CN0200001N1+02381+02071101521ADDAA124007091AG10005AY161061AY261061GF107991071021008001001001KA1240N+02101MA1999999098111MD1999999+0111MW1021REMSYN023 333 20210 58011 60074;
0134825830999991995071712004-05167-040667FM-12+029999999V0201401N004619999999N0200001N1+02531+01961101471ADDAA106000091AG10000GF106991999061008001001001KA1240N+01971MA1999999098071MD1999999-0041REMSYN017 333 20197 59004;EQDQ01+000022SCOTLC
0115825830999991995071912004-05167-040667FM-12+029999999V0201401N00511220001CN0200001N1+02601+01991101511ADDAA106000091AG10000GF102991021011008001001001KA1240N+01921MA1999999098111MD1999999+0021REMSYN017 333 20192 58002;
0096825830999991995071918004-05167-040667FM-12+029999999V0201401N00571220001CN0200001N1+03101+02001101231ADDAA106000091AG10000GF102991021021008001001001MA1999999097851MD1999999+0161REMSYN011 333 58016;
0115825830999991995072012004-05167-040667FM-12+029999999V0201401N00461220001CN0200001N1+02671+01971101621ADDAA106000091AG10000GF101991011011008001001001KA1240N+01991MA1999999098221MD1999999+0111REMSYN017 333 20199 58011;
0096825830999991995072118004-05167-040667FM-12+029999999V0201401N00361220001CN0200001N1+03081+01751101141ADDAA106000091AG10000GF101991011011008001001001MA1999999097791MD1999999-0051REMSYN011 333 59005;
0143825830999991995072512004-05167-040667FM-12+029999999V0201001N00721220001CN0200001N1+02501+02111101541ADDAA124005091AG10005AY161061AY261061GF102991021021008001001001KA1240N+01841MA1999999098141MD1999999-0051MW1021REMSYN023 333 20184 59005 60054;
0096825830999991995072718004-05167-040667FM-12+029999999V0201401N00461012001CN0200001N1+02971+01921101031ADDAA106000091AG10000GF107991071081008001001001MA1999999097651MD1999999+0011REMSYN011 333 58001;
0121825830999991995072812004-05167-040667FM-12+029999999V0201401N00511220001CN9999999N9+99999+99999999999ADDAA106000091AG10000GF101991011011999999001001KA1240N+02321REMSYN017 333 20232 58881;EQDQ01+000992SCOLCBQ02+000002VOVAR 
0081825830999991995073003004-05167-040667FM-12+029999999V0203401N00151004201CN0500001N1+00851+00551102031ADDAA106000091AG10000GF107991071051004501999999MD1210091+9999REMSYN011 333 55115;
0150825830999991995073012004-05167-040667FM-12+029999999V0201401N00151220001CN9999999N9+02441+01761101191ADDAA106000091AG10000GA1001+999999999GF100991001001999999001001KA1240M+03241MA1999999097811MD1999999-0021REMSYN017 333 10324 59002;EQDQ01+000002VOVAR 
0096825830999991995073118004-05167-040667FM-12+029999999V0201401N00411220001CN0200001N1+03161+01751100971ADDAA106000091AG10000GF101991011021008001001001MA1999999097611MD1999999-0151REMSYN011 333 59015;
0115825830999991995080112004-05167-040667FM-12+029999999V0201401N00311220001CN0200001N1+02681+01971101391ADDAA106000091AG10000GF104991041011008001001001KA1240N+01901MA1999999098011MD1999999+0091REMSYN017 333 20190 58009;
0115825830999991995080212004-05167-040667FM-12+029999999V0201401N00211220001CN0200001N1+02701+01941101391ADDAA106000091AG10000GF101991011021008001001001KA1240N+01831MA1999999098011MD1999999+0001REMSYN017 333 20183 58000;
0115825830999991995080312004-05167-040667FM-12+029999999V0201401N00461220001CN0200001N1+02621+01831101441ADDAA106000091AG10000GF102991021011008001001001KA1240N+01891MA1999999098061MD1999999+0051REMSYN017 333 20189 58005;
0096825830999991995080318004-05167-040667FM-12+029999999V0201401N00511220001CN0200001N1+03321+01481100951ADDAA106000091AG10000GF101991011011008001001001MA1999999097591MD1999999+0011REMSYN011 333 58001;
0115825830999991995080412004-05167-040667FM-12+029999999V0200901N00151007501CN0200001N1+02551+02021101371ADDAA106000091AG10000GF106991061021008001001001KA1240N+01841MA1999999097991MD1999999+0071REMSYN017 333 20184 58007;
0096825830999991995080418004-05167-040667FM-12+029999999V0200501N00101220001CN0200001N1+03261+01681100981ADDAA106000091AG10000GF103991031011008001001001MA1999999097611MD1999999+0021REMSYN011 333 58002;
0115825830999991995080512004-05167-040667FM-12+029999999V0201401N00361007501CN0200001N1+02631+02001101451ADDAA106000091AG10000GF106991061011008001001001KA1240N+02221MA1999999098071MD1999999+0081REMSYN017 333 20222 58008;
0115825830999991995080612004-05167-040667FM-12+029999999V0200901N00461012001CN0200001N1+02591+02031101571ADDAA106000091AG10000GF108991081081008001999999KA1240N+02171MA1999999098171MD1999999+0101REMSYN017 333 20217 58010;
0096825830999991995080718004-05167-040667FM-12+029999999V0201801N00461220001CN0200001N1+03421+01471101051ADDAA106000091AG10000GF102991011011012501001011MA1999999097711MD1999999+0001REMSYN011 333 58000;
0115825830999991995080812004-05167-040667FM-12+029999999V0201401N00461220001CN0200001N1+02611+01881101581ADDAA106000091AG10000GF103991031011008001001001KA1240N+01831MA1999999098191MD1999999-0011REMSYN017 333 20183 59001;
0096825830999991995080818004-05167-040667FM-12+029999999V0201401N00261220001CN0200001N1+03211+01411101071ADDAA106000091AG10000GF102991021011008001001001MA1999999097701MD1999999-0011REMSYN011 333 59001;
0096825830999991995080918004-05167-040667FM-12+029999999V0201401N00411220001CN0200001N1+03251+01601100941ADDAA106000091AG10000GF101991011011008001001001MA1999999097571MD1999999-0131REMSYN011 333 59013;
0115825830999991995081012004-05167-040667FM-12+029999999V0201401N00361007501CN0200001N1+02591+02011101441ADDAA106000091AG10000GF107991071021008001001001KA1240N+01991MA1999999098061MD1999999+0081REMSYN017 333 20199 58008;
0115825830999991995081112004-05167-040667FM-12+029999999V0201401N00411012001CN0200001N1+02451+01991101511ADDAA106000091AG10000GF108991081081008001999999KA1240N+01961MA1999999098131MD1999999+0071REMSYN017 333 20196 58007;
0096825830999991995081118004-05167-040667FM-12+029999999V0200901N00461220001CN0200001N1+03221+01771101051ADDAA106000091AG10000GF102991021011008001001001MA1999999097691MD1999999+0061REMSYN011 333 58006;
0115825830999991995081212004-05167-040667FM-12+029999999V0201401N00461220001CN0200001N1+02611+01861101561ADDAA106000091AG10000GF103991031011008001001001KA1240N+01981MA1999999098171MD1999999+0041REMSYN017 333 20198 58004;
0096825830999991995081218004-05167-040667FM-12+029999999V0201801N00211220001CN0200001N1+03381+01661101101ADDAA106000091AG10000GF102991021011008001001001MA1999999097741MD1999999+0051REMSYN011 333 58005;
0096825830999991995081318004-05167-040667FM-12+029999999V0201401N00411220001CN0500001N1+03231+01291100971ADDAA106000091AG10000GF102991021011008001001001MA1999999098431MD1999999-0131REMSYN011 333 59013;
0115825830999991995081512004-05167-040667FM-12+029999999V0200901N00261220001CN0200001N1+02641+01851101471ADDAA106000091AG10000GF102991021011008001001001KA1240N+01851MA1999999098091MD1999999+0091REMSYN017 333 20185 58009;
0115825830999991995081612004-05167-040667FM-12+029999999V0201801N00411220001CN0200001N1+02611+01881101521ADDAA106000091AG10000GF102991021011008001001001KA1240N+01781MA1999999098131MD1999999+0041REMSYN017 333 20178 58004;
0115825830999991995081712004-05167-040667FM-12+029999999V0201401N00361220001CN0200001N1+02601+01711101581ADDAA106000091AG10000GF103991031011008001001001KA1240N+01871MA1999999098181MD1999999+0051REMSYN017 333 20187 58005;
0096825830999991995081718004-05167-040667FM-12+029999999V0201401N00571220001CN0200001N1+03271+01041101071ADDAA106000091AG10000GF101991011011008001001001MA1999999097711MD1999999-0041REMSYN011 333 59004;
0115825830999991995082012004-05167-040667FM-12+029999999V0200901N00311007501CN0200001N1+02591+02011101721ADDAA106000091AG10000GF107991071021008001001001KA1240N+02041MA1999999098321MD1999999+0141REMSYN017 333 20204 58014;
0115825830999991995082112004-05167-040667FM-12+029999999V0200901N00511220001CN0200001N1+02851+01901101631ADDAA106000091AG10000GF103991031011008001001001KA1240N+02171MA1999999098251MD1999999-0071REMSYN017 333 20217 59007;
0115825830999991995082118004-05167-040667FM-12+029999999V0201801N00461045001CN0200001N1+02611+01351101411ADDAA106000091AG10000GF105991021041008001021001MA1999999093842MD1999999+0001REMSYN011 333 58000;EQDQ01+093843APOSP 
0115825830999991995082212004-05167-040667FM-12+029999999V0201401N00511220001CN0200001N1+02771+01641101661ADDAA106000091AG10000GF101991011011008001001001KA1240N+02031MA1999999098281MD1999999+0031REMSYN017 333 20203 58003;
0115825830999991995082312004-05167-040667FM-12+029999999V0201401N004619999999N0200001N1+02791+01951101611ADDAA106000091AG10000GF105991051001008001001001KA1240N+02071MA1999999098231MD1999999-0051REMSYN017 333 20207 59005;
0115825830999991995082412004-05167-040667FM-12+029999999V0201401N00571007501CN0200001N1+02561+01831101521ADDAA106000091AG10000GF106991061021008001001001KA1240N+01881MA1999999098141MD1999999-0091REMSYN017 333 20188 59009;
0096825830999991995082418004-05167-040667FM-12+029999999V0201401N00411220001CN0200001N1+03341+01581100991ADDAA106000091AG10000GF101991011011012501001001MA1999999097631MD1999999-0061REMSYN011 333 59006;
0115825830999991995082512004-05167-040667FM-12+029999999V0201401N00671220001CN0200001N1+02711+01911101541ADDAA106000091AG10000GF102991021011008001001001KA1240N+02171MA1999999098171MD1999999+0031REMSYN017 333 20217 58003;
0115825830999991995082612004-05167-040667FM-12+029999999V0201401N00721220001CN0200001N1+02601+01791101701ADDAA106000091AG10000GF102991021021008001001001KA1240N+02221MA1999999098321MD1999999+0151REMSYN017 333 20222 58015;
0096825830999991995082618004-05167-040667FM-12+029999999V0201401N00461220001CN0200001N1+03301+01591101161ADDAA106000091AG10000GF102991021021008001001001MA1999999097811MD1999999+0141REMSYN011 333 58014;
0131825830999991995082809004-05167-040667FM-12+029999999V0209991C00001220001CN0200001N1+01481+01201101731ADDAA106000091AG10000GA1001+999999999GF100991001001999999001001MA1999999098191MD1999999-0131REMSYN011 333 59013;EQDQ01+999990APOSP 
0096825830999991995082818004-05167-040667FM-12+029999999V0201401N00261220001CN0200001N1+03221+01391101131ADDAA106000091AG10000GF103991031021008001001001MA1999999097781MD1999999+0021REMSYN011 333 58002;
0112825830999991995082918004-05167-040667FM-12+029999999V0201401N00511220001CN0200001N1+03441+01211101071ADDAA106000091AG10000GA1001+999999999GF100991001001999999001001MA1999999097731MD1999999-0051REMSYN011 333 59005;
0115825830999991995083012004-05167-040667FM-12+029999999V0201401N00771220001CN0200001N1+02701+01801101691ADDAA106000091AG10000GF101991011021008001001001KA1240N+02101MA1999999098311MD1999999+0061REMSYN017 333 20210 58006;
0115825830999991995083112004-05167-040667FM-12+029999999V0201401N00571220001CN0200001N1+02801+01871101661ADDAA106000091AG10000GF101991011011008001001001KA1240N+02101MA1999999098281MD1999999-0061REMSYN017 333 20210 59006;
0096825830999991995090118004-05167-040667FM-12+029999999V0200901N00571220001CN0200001N1+03281+01781101231ADDAA106000091AG10000GF103991031021008001001001MA1999999097891MD1999999+0111REMSYN011 333 58011;
0115825830999991995090318004-05167-040667FM-12+029999999V0201401N00211220001CN0200001N1+02761+01971101731ADDAA106000091AG10000GF101991011011008001001001KA1240N+02101MA1999999098381MD1999999-0011REMSYN017 333 20210 59001;
0134825830999991995090512004-05167-040667FM-12+029999999V0201401N006719999999N0200001N1+02731+01671101731ADDAA106000091AG10000GF106991999011008001001001KA1240N+02231MA1999999098351MD1999999-0061REMSYN017 333 20223 59006;EQDQ01+000032SCOTLC
0115825830999991995090612004-05167-040667FM-12+029999999V0201401N00771220001CN0200001N1+02871+01531101561ADDAA106000091AG10000GF101991011001017501031001KA1240N+02241MA1999999098181MD1999999-0171REMSYN017 333 20224 59017;
0115825830999991995090712004-05167-040667FM-12+029999999V0201401N00931007501CN0200001N1+02811+01741101451ADDAA106000091AG10000GF106991061011008001001001KA1240N+01111MA1999999098091MD1999999-0091REMSYN017 333 20111 59009;
0096825830999991995090718004-05167-040667FM-12+029999999V0201401N00411220001CN0200001N1+03201+01671101091ADDAA106000091AG10000GF101991011011008001001001MA1999999097731MD1999999+0091REMSYN011 333 58009;
0096825830999991995090818004-05167-040667FM-12+029999999V0200901N00361007501CN0200001N1+03291+01551101051ADDAA106000091AG10000GF106991061011008001001001MA1999999097691MD1999999-0041REMSYN011 333 59004;
0115825830999991995090912004-05167-040667FM-12+029999999V0200901N00461220001CN0200001N1+02761+01891101621ADDAA106000091AG10000GF101991011011008001001001KA1240N+02051MA1999999098241MD1999999+0141REMSYN017 333 20205 58014;
0096825830999991995090918004-05167-040667FM-12+029999999V0201401N00361220001CN0200001N1+03301+01721101111ADDAA106000091AG10000GF102991021021008001001001MA1999999097771MD1999999+0011REMSYN011 333 58001;
0115825830999991995091112004-05167-040667FM-12+029999999V0201401N00461007501CN0200001N1+02621+01881101441ADDAA106000091AG10000GF106991061021008001001001KA1240N+02041MA1999999098061MD1999999-0131REMSYN017 333 20204 59013;
0115825830999991995091212004-05167-040667FM-12+029999999V0201401N00511220001CN0200001N1+02761+01751101451ADDAA106000091AG10000GF101991011011008001001001KA1240N+02091MA1999999098091MD1999999+0031REMSYN017 333 20209 58003;
0096825830999991995091218004-05167-040667FM-12+029999999V0201401N00311220001CN0200001N1+03441+01381100941ADDAA106000091AG10000GF101991011011008001001001MA1999999097601MD1999999+0061REMSYN011 333 58006;
0115825830999991995091312004-05167-040667FM-12+029999999V0200901N00311220001CN0200001N1+02731+01781101541ADDAA106000091AG10000GF101991011011008001001001KA1240N+01921MA1999999088161MD1999999+0071REMSYN017 333 20192 58007;
0115825830999991995091318004-05167-040667FM-12+029999999V0200901N00311220001CN0200001N1+03541+01411100961ADDAA106000091AG10000GF101991011011012501001001MA1999999097622MD1999999+0021REMSYN011 333 58002;EQDQ01+097623APOSP 
0115825830999991995091412004-05167-040667FM-12+029999999V0201401N00511007501CN0200001N1+02661+01971101491ADDAA106000091AG10000GF107991071021008001001001KA1240N+01961MA1999999098131MD1999999-0031REMSYN017 333 20196 59003;
0096825830999991995091418004-05167-040667FM-12+029999999V0201401N00361220001CN0200001N1+03481+01711101101ADDAA106000091AG10000GF101991011011008001001001MA1999999097761MD1999999+0141REMSYN011 333 58014;
0115825830999991995091512004-05167-040667FM-12+029999999V0201401N00511220001CN0200001N1+02801+01951101551ADDAA106000091AG10000GF101991011021008001001001KA1240N+02371MA1999999098191MD1999999+0061REMSYN017 333 20237 58006;
0115825830999991995091612004-05167-040667FM-12+029999999V0200901N00461220001CN0200001N1+02821+01891101521ADDAA106000091AG10000GF101991011011008001001001KA1240N+02101MA1999999098161MD1999999-0031REMSYN017 333 20210 59003;
0096825830999991995091618004-05167-040667FM-12+029999999V0201401N00511220001CN0200001N1+03521+01451100951ADDAA106000091AG10000GF101991011011008001001001MA1999999097611MD1999999-0011REMSYN011 333 59001;
0096825830999991995091718004-05167-040667FM-12+029999999V0200901N00411220001CN0200001N1+03451+01451101101ADDAA106000091AG10000GF101991011011008001001001MA1999999097761MD1999999+0151REMSYN011 333 58015;
0115825830999991995091812004-05167-040667FM-12+029999999V0200901N00361220001CN0200001N1+02711+02051101701ADDAA106000091AG10000GF101991011011008001001001KA1240N+01971MA1999999098321MD1999999+0041REMSYN017 333 20197 58004;
0096825830999991995091918004-05167-040667FM-12+029999999V0201401N00361220001CN0200001N1+03541+01301101011ADDAA106000091AG10000GF101991011011012501001001MA1999999097671MD1999999-0101REMSYN011 333 59010;
0115825830999991995092012004-05167-040667FM-12+029999999V0200901N00461220001CN0200001N1+02771+02171101571ADDAA106000091AG10000GF101991011011008001001001KA1240N+02041MA1999999098211MD1999999-0021REMSYN017 333 20204 59002;
0112825830999991995092018004-05167-040667FM-12+029999999V0200901N00361220001CN0200001N1+03541+01461100851ADDAA106000091AG10000GA1001+999999999GF100991001001999999001001MA1999999097531MD1999999-0141REMSYN011 333 59014;
0115825830999991995092112004-05167-040667FM-12+029999999V0200901N00461220001CN0200001N1+02691+01861101571ADDAA106000091AG10000GF104991041011008001001001KA1240N+02271MA1999999098211MD1999999+0001REMSYN017 333 20227 58000;
0115825830999991995092212004-05167-040667FM-12+029999999V0201401N00571220001CN0200001N1+02861+01811101551ADDAA106000091AG10000GF101991011021008001001001KA1240N+01921MA1999999098191MD1999999-0021REMSYN017 333 20192 59002;
0096825830999991995092218004-05167-040667FM-12+029999999V0201401N00461220001CN0200001N1+03481+01611101021ADDAA106000091AG10000GF102991021011008001001001MA1999999097681MD1999999+0031REMSYN011 333 58003;
0115825830999991995092312004-05167-040667FM-12+029999999V0200901N00671220001CN0200001N1+02801+01841101581ADDAA106000091AG10000GF101991011011008001001001KA1240N+02291MA1999999098221MD1999999+0031REMSYN017 333 20229 58003;
0096825830999991995092318004-05167-040667FM-12+029999999V0201401N00361220001CN0200001N1+03401+01681101031ADDAA106000091AG10000GF101991011021008001001001MA1999999097701MD1999999+0021REMSYN011 333 58002;
0096825830999991995092518004-05167-040667FM-12+029999999V0201401N00361220001CN0200001N1+03501+01431101941ADDAA106000091AG10000GF101991011011008001001001MA1999999097611MD1999999-0061REMSYN011 333 59006;
0115825830999991995092612004-05167-040667FM-12+029999999V0200901N00461007501CN0200001N1+02741+02001101451ADDAA106000091AG10000GF106991061011008001001001KA1240N+02211MA1999999098071MD1999999-0121REMSYN017 333 20221 59012;
0096825830999991995092718004-05167-040667FM-12+029999999V0201401N00511220001CN0200001N1+03561+01591100901ADDAA106000091AG10000GF101991011011008001001001MA1999999097581MD1999999+0061REMSYN011 333 58006;
0115825830999991995092812004-05167-040667FM-12+029999999V0200901N00621007501CN0200001N1+02731+99999101601ADDAA106000091AG10000GF105991051011008001001001KA1240N+02311MA1999999098221MD1999999+0031REMSYN017 333 20231 58003;
0115825830999991995092818004-05167-040667FM-12+029999999V0200901N00511220001CN0200001N1+03411+99999101031ADDAA106000091AG10000GF102991021011008001001001MA1999999096692MD1999999+0111REMSYN011 333 58011;EQDQ01+096693APOSP 
0115825830999991995092912004-05167-040667FM-12+029999999V0200901N00461007501CN0200001N1+02831+01821101671ADDAA106000091AG10000GF106991061021008001001001KA1240N+02351MA1999999098311MD1999999+0091REMSYN017 333 20235 58009;
0115825830999991995093012004-05167-040667FM-12+029999999V0201401N00571220001CN0200001N1+02951+01991101441ADDAA106000091AG10000GF101991011011008001001001KA1240N+02141MA1999999098081MD1999999-0231REMSYN017 333 20214 59023;
0115825830999991995100112004-05167-040667FM-12+029999999V0201401N00511007501CN0200001N1+02721+01901101371ADDAA106000091AG10000GF106991061021008001001001KA1240N+02021MA1999999098011MD1999999-0071REMSYN017 333 20202 59007;
0115825830999991995100212004-05167-040667FM-12+029999999V0201401N00461220001CN0200001N1+02731+01841101431ADDAA106000091AG10000GF103991031011008001001001KA1240N+02181MA1999999098071MD1999999+0061REMSYN017 333 20218 58006;
0096825830999991995100218004-05167-040667FM-12+029999999V0201801N00261220001CN0200001N1+03571+01551100821ADDAA106000091AG10000GF103991021011008001001011MA1999999097501MD1999999+0041REMSYN011 333 58004;
0115825830999991995100312004-05167-040667FM-12+029999999V0200901N00411220001CN0200001N1+02831+01731101481ADDAA106000091AG10000GF101991001001999999001011KA1240N+02091MA1999999098121MD1999999+0051REMSYN017 333 20209 58005;
0096825830999991995100318004-05167-040667FM-12+029999999V0200901N00151220001CN0200001N1+03521+01791100941ADDAA106000091AG10000GF101991011011008001001001MA1999999097611MD1999999+0111REMSYN011 333 58011;
0134825830999991995100412004-05167-040667FM-12+029999999V0200901N003119999999N0200001N1+02761+01941101491ADDAA106000091AG10000GF106991999011008001001001KA1240N+02231MA1999999098141MD1999999+0021REMSYN017 333 20223 58002;EQDQ01+000012SCOTLC
0096825830999991995100418004-05167-040667FM-12+029999999V0201801N00311220001CN0200001N1+03501+01861100921ADDAA106000091AG10000GF104991031011008001001011MA1999999097601MD1999999-0011REMSYN011 333 59001;
0096825830999991995100618004-05167-040667FM-12+029999999V0201801N00211220001CN0200001N1+03591+01671100541ADDAA106000091AG10000GF101991011011008001001001MA1999999097231MD1999999-0081REMSYN011 333 59008;
0115825830999991995100712004-05167-040667FM-12+029999999V0203601N00101007501CN0200001N1+02621+01981101161ADDAA106000091AG10000GF106991061011008001011001KA1240N+02151MA1999999097811MD1999999+0031REMSYN017 333 20215 58003;
0096825830999991995100718004-05167-040667FM-12+029999999V0200901N00311220001CN0200001N1+03581+01601100601ADDAA106000091AG10000GF101991011011008001001001MA1999999097281MD1999999+0051REMSYN011 333 58005;
0096825830999991995100918004-05167-040667FM-12+029999999V0201401N00211220001CN0200001N1+03561+01731100571ADDAA106000091AG10000GF103991031021008001001001MA1999999097271MD1999999-0041REMSYN011 333 59004;
0096825830999991995101018004-05167-040667FM-12+029999999V0200901N00261220001CN0200001N1+03521+01721100601ADDAA106000091AG10000GF101991011011008001001001MA1999999097291MD1999999+0021REMSYN011 333 58002;
0096825830999991995101118004-05167-040667FM-12+029999999V0200901N00151220001CN0200001N1+03491+01631100691ADDAA106000091AG10000GF102991021011008001001001MA1999999097371MD1999999+0081REMSYN011 333 58008;
0115825830999991995101312004-05167-040667FM-12+029999999V0200901N00821220001CN0200001N1+02881+01861101321ADDAA106000091AG10000GF102991021011008001001001KA1240N+02171MA1999999097981MD1999999+0001REMSYN017 333 20217 58000;
0096825830999991995101518004-05167-040667FM-12+029999999V0200901N00461220001CN0200001N1+03431+01671101141ADDAA106000091AG10000GF102991021011008001001001MA1999999097791MD1999999+0231REMSYN011 333 58023;
0115825830999991995101712004-05167-040667FM-12+029999999V0200901N00461220001CN0200001N1+02871+01801101391ADDAA106000091AG10000GF101991011011008001001001KA1240N+02291MA1999999098051MD1999999+0091REMSYN017 333 20229 58009;
0096825830999991995101718004-05167-040667FM-12+029999999V0200501N00261220001CN0200001N1+03571+01701100771ADDAA106000091AG10000GF102991021011008001001001MA1999999097451MD1999999+0021REMSYN011 333 58002;
0115825830999991995101812004-05167-040667FM-12+029999999V0200501N00361220001CN0200001N1+02991+01811101261ADDAA106000091AG10000GF101991011011008001001001KA1240N+02291MA1999999097931MD1999999-0121REMSYN017 333 20229 59012;
0096825830999991995101818004-05167-040667FM-12+029999999V0201801N00311220001CN0200001N1+03731+01481100681ADDAA106000091AG10000GF102991021011008001001001MA1999999097381MD1999999-0071REMSYN011 333 59007;
0115825830999991995101912004-05167-040667FM-12+029999999V0200901N00571220001CN0200001N1+02891+02041101301ADDAA106000091AG10000GF102991021011008001001001KA1240N+02371MA1999999097951MD1999999+0021REMSYN017 333 20237 58002;
0115825830999991995102612004-05167-040667FM-12+029999999V0201401N00511220001CN0200001N1+02911+01891101261ADDAA106000091AG10000GF103991031011008001001001KA1240N+02381MA1999999097931MD1999999-0061REMSYN017 333 20238 59006;
0115825830999991995102712004-05167-040667FM-12+029999999V0200901N00511220001CN0200001N1+02891+01871101211ADDAA106000091AG10000GF102991021011008001001001KA1240N+02251MA1999999097871MD1999999-0061REMSYN017 333 20225 59006;
0115825830999991995110612004-05167-040667FM-12+029999999V0201401N00571007501CN0200001N1+02871+01971101381ADDAA106000091AG10000GF106991051021008001001011KA1240N+02401MA1999999098021MD1999999+0061REMSYN017 333 20240 58006;
0096825830999991995110618004-05167-040667FM-12+029999999V0201801N00461220001CN0200001N1+03491+01631100841ADDAA106000091AG10000GF103991021021008001001011MA1999999097521MD1999999-0011REMSYN011 333 59001;
0115825830999991995111412004-05167-040667FM-12+029999999V0200901N00621220001CN0200001N1+03031+01941101361ADDAA106000091AG10000GF102991021011008001001001KA1240N+02381MA1999999097961MD1999999-0051REMSYN017 333 20238 59005;
0081825830999991995111918004-05167-040667FM-12+029999999V0201401N00361220001CN0200001N1+02561+01701100941ADDAA106000091AG10000GF104991031011008001001011MA1999999097551EQDQ01+999990APOSP 
0096825830999991995112018004-05167-040667FM-12+029999999V0201401N00261220001CN0200001N1+03571+01751100581ADDAA106000091AG10000GF104991031011008001001011MA1999999097281MD1999999-0071REMSYN011 333 59007;
0115825830999991995112112004-05167-040667FM-12+029999999V0200901N00571007501CN0200001N1+02791+01921101131ADDAA106000091AG10000GF107991061021008001001011KA1240N+02271MA1999999097801MD1999999-0081REMSYN017 333 20227 59008;
0096825830999991995112318004-05167-040667FM-12+029999999V0200501N004119999999N0200001N1+03081+02041100761ADDAA106000091AG10000GF107991061001008001011999MA1999999097411MD1999999-0111REMSYN011 333 59011;
0096825830999991995112418004-05167-040667FM-12+029999999V0200901N00411012001CN0040001N1+02571+02231100921ADDAA106000091AG10000GF108991081081008001999999MA1999999097531MD1999999+0121REMSYN011 333 58012;
0115825830999991995112512004-05167-040667FM-12+029999999V0200501N00311007501CN0200001N1+02711+02151101111ADDAA106000091AG10000GF108991051021008001021999KA1240N+02081MA1999999097741MD1999999-0021REMSYN017 333 20208 59002;
0115825830999991995112612004-05167-040667FM-12+029999999V0200501N00411220001CN0200001N1+02841+01761101031ADDAA106000091AG10000GF103991011011008001021041KA1240N+02221MA1999999097691MD1999999-0051REMSYN017 333 20222 59005;
0096825830999991995112618004-05167-040667FM-12+029999999V0203201N00211007501CN0200001N1+03261+01881100661ADDAA106000091AG10000GF108991061021008001021999MA1999999097341MD1999999+0041REMSYN011 333 58004;
0115825830999991995112712004-05167-040667FM-12+029999999V0200901N00361045001CN0200001N1+02791+02111101131ADDAA106000091AG10000GF105991021011008001031001KA1240N+02351MA1999999097781MD1999999+0091REMSYN017 333 20235 58009;
0096825830999991995112718004-05167-040667FM-12+029999999V0200901N00461012001CN0200001N1+03211+02051100781ADDAA106000091AG10000GF107991061081008001031001MA1999999097441MD1999999+0101REMSYN011 333 58010;
0115825830999991995112912004-05167-040667FM-12+029999999V0200901N00461105001CN0200001N1+02791+01951101181ADDAA106000091AG10000GF106991011011008001001021KA1240N+02291MA1999999097831MD1999999-0051REMSYN017 333 20229 59005;
0096825830999991995112918004-05167-040667FM-12+029999999V0200501N00261105001CN0200001N1+03391+01771100721ADDAA106000091AG10000GF106991011011008001001021MA1999999097391MD1999999-0031REMSYN011 333 59003;
0115825830999991995113012004-05167-040667FM-12+029999999V0200901N00261007501CN0200001N1+02751+01991101231ADDAA106000091AG10000GF107991061021008001001011KA1240N+02231MA1999999097881MD1999999+0051REMSYN017 333 20223 58005;
0096825830999991995113018004-05167-040667FM-12+029999999V0200901N00151007501CN0200001N1+03281+01781100871ADDAA106000091AG10000GF106991051021008001001011MA1999999097531MD1999999+0141REMSYN011 333 58014;
0115825830999991995120112004-05167-040667FM-12+029999999V0200901N00151220001CN0200001N1+02651+02041101481ADDAA106000091AG10000GF103991021011008001001011KA1240N+01171MA1999999098121MD1999999+0241REMSYN017 333 20117 58024;
0096825830999991995120118004-05167-040667FM-12+029999999V0201401N00311220001CN0200001N1+03401+01591100921ADDAA106000091AG10000GF102991021011008001001001MA1999999097581MD1999999+0051REMSYN011 333 58005;
0115825830999991995120212004-05167-040667FM-12+029999999V0200901N00361220001CN0200001N1+02881+01971101271ADDAA106000091AG10000GF102991021011008001001001KA1240N+02121MA1999999097931MD1999999-0191REMSYN017 333 20212 59019;
0096825830999991995120218004-05167-040667FM-12+029999999V0200901N00211220001CN0200001N1+03341+01981100861ADDAA106000091AG10000GF102991021011008001001001MA1999999097521MD1999999-0061REMSYN011 333 59006;
0096825830999991995120318004-05167-040667FM-12+029999999V0201401N00311220001CN0200001N1+03311+01891100811ADDAA106000091AG10000GF102991021011008001001001MA1999999097481MD1999999-0041REMSYN011 333 59004;
0115825830999991995120412004-05167-040667FM-12+029999999V0200901N00361007501CN0200001N1+02701+02011101151ADDAA106000091AG10000GF107991071021008001001001KA1240N+02221MA1999999097711MD1999999-0081REMSYN017 333 20222 59008;
0115825830999991995121912004-05167-040667FM-12+029999999V0200901N00511220001CN0200001N1+02931+01971101351ADDAA106000091AG10000GF103991021011008001001011KA1240N+02221MA1999999098001MD1999999-0051REMSYN017 333 20222 59005;
0121825830999991995122712004-05167-040667FM-12+029999999V0200501N00151220001CN0200001N1+02751+02211101371ADDAA124000191AG10000GF103991021011008001001011KA1240N+02271MA1999999098011MD1999999+0011REMSYN023 333 20227 58001 69924;
0143825830999991995122812004-05167-040667FM-12+029999999V0200901N00151012001CN0100001N1+02611+02251101381ADDAA124002091AG10006AY161061AY261061GF108991081081008001999999KA1240N+02211MA1999999098021MD1999999+0011MW1031REMSYN023 333 20221 58001 60024;
