0135827980999991995010112004-07100-034867FM-12+0007SBJP V0201401N00311012001CN0040001N1+02901+02321101491ADDAA124005091AG10000AY121061GF105991051081008001001001KA1240N+02471MA1999999101401MD1999999-0011MW1061REMSYN023 333 20247 59001 60054;
0177827980999991995010212004-07100-034867SY-MT+0007SBJP V0201401N00411006001CN0040001N1+02861+02331101481ADDAA106000091AG10000GA1071+006009999GF199999051081008001001001KA1240N+02631MA1101391101391MD1999999-0011REMSYN017 333 20263 59001;MET005NEW ;EQDQ01+000052SCOTCVQ02+000000PRSWM2
0096827980999991995010218004-07100-034867FM-12+0007SBJP V0200501N00311007501CN0040001N1+02861+02331101221ADDAA106000091AG10000GF105991051071008001001001MA1999999101131MD1999999-0151REMSYN011 333 59015;
0077827980999991995010221004-07100-034867FM-15+0007SBJP V0201301N00261006001CN0080001N1+02501+02401999999ADDAG10002GA1021+003009999GA2071+006009999MA1101191999999MW1161REMMET005NEW ;
0090827980999991995010311004-07100-034867FM-15+0007SBJP V0200801N00261006001CN0112651N1+02801+02301999999ADDAG10999GA1071+006009999GA2021+030009999MA1101291999999REMMET005NEW ;EQDQ01+000000PRSWM2
0074827980999991995010312004-07100-034867FM-15+0007SBJP V0200801N00361006001CN0112651N1+02801+02201999999ADDAG10000GA1071+006009999MA1101391999999REMMET005NEW ;EQDQ01+000000PRSWM2
0074827980999991995010315004-07100-034867FM-15+0007SBJP V0200601N00361006001CN0112651N1+03001+02301999999ADDAG10000GA1071+006009999MA1101291999999REMMET005NEW ;EQDQ01+000000PRSWM2
0074827980999991995010316004-07100-034867FM-15+0007SBJP V0200501N00361006001CN0112651N1+03001+02201999999ADDAG10999GA1071+006009999MA1101191999999REMMET005NEW ;EQDQ01+000000PRSWM2
0074827980999991995010317004-07100-034867FM-15+0007SBJP V0200801N00261220001CN0112651N1+03001+02201999999ADDAG10999GA1021+006009999MA1101191999999REMMET005NEW ;EQDQ01+000000PRSWM2
0090827980999991995010318004-07100-034867FM-15+0007SBJP V0200701N00261220001CN0112651N1+03001+02201999999ADDAG10000GA1021+006009999GA2021+030009999MA1101081999999REMMET005NEW ;EQDQ01+000000PRSWM2
0090827980999991995010409004-07100-034867FM-15+0007SBJP V0209991C00001030001CN0112651N1+02401+02301999999ADDAG10000GA1021+006009999GA2071+030009999MA1101191999999REMMET005NEW ;EQDQ01+000000PRSWM2
0090827980999991995010411004-07100-034867FM-15+0007SBJP V0200801N00261030001CN0112651N1+02701+02301999999ADDAG10999GA1021+006009999GA2071+030009999MA1101291999999REMMET005NEW ;EQDQ01+000000PRSWM2
0189827980999991995010412004-07100-034867SY-MT+0007SBJP V0201401N00311007501CN9999999N9+02881+02211101401ADDAA106000091AG10000GA1021+006009999GA2021+030009999GF105991051091008001001001KA1999N+02511MA1101291101311REMSYN011 333 20251;MET005NEW ;EQDQ01+040002VODIS Q02+000002VOVAR Q03+000000PRSWM2
0090827980999991995010415004-07100-034867FM-15+0007SBJP V0201101N00361030001CN0112651N1+03001+02101999999ADDAG10000GA1021+006009999GA2071+030009999MA1101191999999REMMET005NEW ;EQDQ01+000000PRSWM2
0090827980999991995010416004-07100-034867FM-15+0007SBJP V0201001N00411030001CN0112651N1+03001+02201999999ADDAG10999GA1021+006009999GA2071+030009999MA1101081999999REMMET005NEW ;EQDQ01+000000PRSWM2
0115827980999991995010512004-07100-034867FM-12+0007SBJP V0200501N00261007501CN0040001N1+02801+02271101491ADDAA106000091AG10000GF107991071071008001001001KA1240N+02661MA1999999101401MD1999999+0091REMSYN017 333 20266 58009;
0076827980999991995010518004-07100-034867FM-12+0007SBJP V0201401N00311220001CN0040001N1+02821+02291101231ADDAA106000091AG10000GF104991041091008001999999MA1999999101141REMSYN005 333;
0090827980999991995010609004-07100-034867FM-15+0007SBJP V0201801N00211030001CN0112651N1+02401+02301999999ADDAG10000GA1021+006009999GA2071+030009999MA1101391999999REMMET005NEW ;EQDQ01+000000PRSWM2
0090827980999991995010610004-07100-034867FM-15+0007SBJP V0202001N00211030001CN0112651N1+02401+02301999999ADDAG10999GA1021+005409999GA2081+030009999MA1101391999999REMMET005NEW ;EQDQ01+000000PRSWM2
0090827980999991995010611004-07100-034867FM-15+0007SBJP V0201801N00211030001CN0112651N1+02501+02301999999ADDAG10999GA1021+005409999GA2071+030009999MA1101491999999REMMET005NEW ;EQDQ01+000000PRSWM2
0090827980999991995010612004-07100-034867FM-15+0007SBJP V0201801N00151030001CN0112651N1+02601+02301999999ADDAG10000GA1021+005409999GA2071+030009999MA1101491999999REMMET005NEW ;EQDQ01+000000PRSWM2
0090827980999991995010614004-07100-034867FM-15+0007SBJP V0200701N00361005401CN0112651N1+02801+02201999999ADDAG10999GA1071+005409999GA2071+030009999MA1101491999999REMMET005NEW ;EQDQ01+000000PRSWM2
0090827980999991995010710004-07100-034867FM-15+0007SBJP V0201701N00261030001CN0112651N1+02501+02301999999ADDAG10999GA1021+006009999GA2071+030009999MA1101291999999REMMET005NEW ;EQDQ01+000000PRSWM2
0090827980999991995010711004-07100-034867FM-15+0007SBJP V0201501N00261030001CN0112651N1+02601+02301999999ADDAG10999GA1021+006009999GA2071+030009999MA1101391999999REMMET005NEW ;EQDQ01+000000PRSWM2
0090827980999991995010712004-07100-034867FM-15+0007SBJP V0201501N00411006001CN0112651N1+02701+02201999999ADDAG10000GA1071+006009999GA2071+030009999MA1101391999999REMMET005NEW ;EQDQ01+000000PRSWM2
0115827980999991995010800004-07100-034867FM-12+0007SBJP V0201401N00461007501CN0040001N1+02601+02331101331ADDAA106000091AG10000GF107991071091008001001001KA1240M+02921MA1999999101241MD1999999+0081REMSYN017 333 10292 58008;
0090827980999991995010809004-07100-034867FM-15+0007SBJP V0202701N00211030001CN0112651N1+02301+02201999999ADDAG10000GA1021+006009999GA2071+030009999MA1101191999999REMMET005NEW ;EQDQ01+000000PRSWM2
0090827980999991995010811004-07100-034867FM-15+0007SBJP V0201001N00211006001CN0112651N1+02501+02201999999ADDAG10999GA1071+006009999GA2071+030009999MA1101191999999REMMET005NEW ;EQDQ01+000000PRSWM2
0162827980999991995010812004-07100-034867FM-12+0007SBJP V0201401N004119999999N0040001N1+02821+02271101391ADDAA124000591AG10006AY161061AY221061GF105991999091008001001001KA1240N+02431MA1999999101301MD1999999+0101MW1001REMSYN023 333 20243 58010 69944;EQDQ01+000062SCOTLC
0090827980999991995010814004-07100-034867FM-15+0007SBJP V0200701N00311006001CN0112651N1+02901+02201999999ADDAG10999GA1071+006009999GA2021+030009999MA1101191999999REMMET005NEW ;EQDQ01+000000PRSWM2
0090827980999991995010816004-07100-034867FM-15+0007SBJP V0200601N00511006001CN0112651N1+02901+02201999999ADDAG10999GA1071+006009999GA2021+030009999MA1101081999999REMMET005NEW ;EQDQ01+000000PRSWM2
0090827980999991995010817004-07100-034867FM-15+0007SBJP V0200701N00411006001CN0112651N1+02901+02201999999ADDAG10999GA1071+006009999GA2021+030009999MA1101081999999REMMET005NEW ;EQDQ01+000000PRSWM2
0090827980999991995010910004-07100-034867FM-15+0007SBJP V0201101N00261030001CN0112651N1+02601+02201999999ADDAG10999GA1021+006009999GA2071+030009999MA1101291999999REMMET005NEW ;EQDQ01+000000PRSWM2
0090827980999991995010911004-07100-034867FM-15+0007SBJP V0201001N00411006001CN0112651N1+02801+02201999999ADDAG10999GA1071+006009999GA2021+060009999MA1101291999999REMMET005NEW ;EQDQ01+000000PRSWM2
0193827980999991995010912004-07100-034867SY-MT+0007SBJP V0201401N00411006001CN0040001N1+02901+02371101511ADDAA106000091AG10000GA1071+006009999GA2021+060009999GF199999051091008001001001KA1240N+02511MA1101391101421MD1999999-0081REMSYN017 333 20251 59008;MET005NEW ;EQDQ01+000052SCOTCVQ02+000000PRSWM2
0096827980999991995010918004-07100-034867FM-12+0007SBJP V0201401N00311220001CN0040001N1+02871+02131101231ADDAA106000091AG10000GF104991041021008001001001MA1999999101131MD1999999-0091REMSYN011 333 59009;
0115827980999991995011000004-07100-034867FM-12+0007SBJP V0201401N00311220001CN0040001N1+02701+02171101371ADDAA106000091AG10000GF104991041081008001001001KA1240M+03981MA1999999101281MD1999999+0031REMSYN017 333 10398 58003;
0090827980999991995011011004-07100-034867FM-15+0007SBJP V0201301N00411030001CN0112651N1+02701+02201999999ADDAG10999GA1021+006009999GA2071+030009999MA1101391999999REMMET005NEW ;EQDQ01+000000PRSWM2
0193827980999991995011012004-07100-034867SY-MT+0007SBJP V0201401N00311012001CN0112651N1+02861+02211101511ADDAA106000091AG10000GA1021+006009999GA2021+060009999GF105991051081008001001001KA1240N+02641MA1101391101421MD1999999+0001REMSYN017 333 20264 58000;MET005NEW ;EQDQ01+040002VODIS Q02+000000PRSWM2
0090827980999991995011013004-07100-034867FM-15+0007SBJP V0201001N00621006001CN0112651N1+02901+02001999999ADDAG10999GA1071+006009999GA2071+060009999MA1101391999999REMMET005NEW ;EQDQ01+000000PRSWM2
0144827980999991995011018004-07100-034867FM-12+0007SBJP V0200901N00411000151CN9999999N9+02831+02041101301ADDAG10006AY161061AY221061GA1061+000159089GF106991999999008001999999MA1999999101211MW1001REMSYN011 333 86800;EQDQ01+040002VODIS Q02+000002VOVAR 
0178827980999991995011112004-07100-034867FM-12+0007SBJP V0201401N00311007501CN9999999N9+02861+02251101491ADDAA124001091AG10006AY161061AY221061GF105991051021008001001001KA1240N+02591MA1999999101401MD1999999+0021MW1001REMSYN023 333 20259 58002 60014;EQDQ01+040002VODIS Q02+000002VOVAR 
0090827980999991995011113004-07100-034867FM-15+0007SBJP V0201201N00361006001CN0112651N1+02901+02101999999ADDAG10999GA1071+006009999GA2021+075009999MA1101391999999REMMET005NEW ;EQDQ01+000000PRSWM2
0090827980999991995011114004-07100-034867FM-15+0007SBJP V0201601N00511075001CN0112651N1+02901+02101999999ADDAG10999GA1021+006009999GA2071+075009999MA1101391999999REMMET005NEW ;EQDQ01+000000PRSWM2
0090827980999991995011115004-07100-034867FM-15+0007SBJP V0201301N00411006001CN0990001N1+02801+02101999999ADDAG10000GA1071+006009999GA2071+075009999MA1101291999999REMMET005NEW ;EQDQ01+000000PRSWM2
0096827980999991995011118004-07100-034867FM-12+0007SBJP V0201401N00311007501CN0040001N1+02881+02251101291ADDAA106000091AG10000GF105991051021008001001001MA1999999101201MD1999999+0011REMSYN011 333 58001;
0115827980999991995011300004-07100-034867FM-12+0007SBJP V0201401N00311007501CN0040001N1+02621+02211101391ADDAA106000091AG10000GF106991061091008001001001KA1240M+03001MA1999999101301MD1999999+0001REMSYN017 333 10300 58000;
0205827980999991995011312004-07100-034867SY-MT+0007SBJP V0201401N00511006001CN0040001N1+02801+02251101491ADDAA124001091AG10006AY161061AY221061GA1071+006009999GF199999051091008001001001KA1240N+02591MA1101391101401MD1999999-0021MW1001REMSYN023 333 20259 59002 60014;MET005NEW ;EQDQ01+000052SCOTCVQ02+000000PRSWM2
0074827980999991995011323004-07100-034867FM-15+0007SBJP V0201201N00311220001CN0112651N1+02501+02101999999ADDAG10999GA1021+006009999MA1101391999999REMMET005NEW ;EQDQ01+000000PRSWM2
0115827980999991995011412004-07100-034867FM-12+0007SBJP V0201401N00411220001CN0040001N1+02801+02131101511ADDAA106000091AG10000GF104991041021008001001001KA1240N+02311MA1999999101421MD1999999-0021REMSYN017 333 20231 59002;
0096827980999991995011418004-07100-034867FM-12+0007SBJP V0201401N00411007501CN0040001N1+02801+02151101291ADDAA106000091AG10000GF105991051021008001001001MA1999999101241MD1999999+0021REMSYN011 333 58002;
0134827980999991995011512004-07100-034867FM-12+0007SBJP V0201401N00411220001CN0040001N1+02881+02031101491ADDAA106000091AG10000GF104991999021008001001001KA1240N+02321MA1999999101401MD1999999+0021REMSYN017 333 20232 58002;EQDQ01+000052SCOTLC
0096827980999991995011518004-07100-034867FM-12+0007SBJP V0201401N00411220001CN0040001N1+02901+99999101271ADDAA106000091AG10000GF104991041021008001001001MA1999999101181MD1999999+0021REMSYN011 333 58002;
0178827980999991995011612004-07100-034867FM-12+0007SBJP V0201401N00411220001CN9999999N9+02861+02191101551ADDAA124001091AG10006AY161061AY221061GF104991041021008001001001KA1240N+02531MA1999999101461MD1999999-0061MW1001REMSYN023 333 20253 59006 69984;EQDQ01+040002VODIS Q02+000002VOVAR 
0074827980999991995011614004-07100-034867FM-15+0007SBJP V0201001N00361220001CN0112651N1+02901+02101999999ADDAG10999GA1021+006009999MA1101391999999REMMET005NEW ;EQDQ01+000000PRSWM2
0096827980999991995011718004-07100-034867FM-12+0007SBJP V0201401N00411220001CN0040001N1+02901+02271101371ADDAA106000091AG10000GF104991041021008001001001MA1999999101281MD1999999-0041REMSYN011 333 59004;
0072827980999991995011809004-07100-034867FM-16+0007SBJP V0209991C00001220001CN0112651N1+99999+99999999999ADDAG10000GA1021+006009999REMMET018NEW 2 4/22 Q1013 ;EQDQ01+000000PRSWM2
0134827980999991995011812004-07100-034867FM-12+0007SBJP V0201401N00411007501CN0040001N1+02871+02251101491ADDAA106000091AG10000GF105991051021008001001001KA1240N+02591MA1999999101401MD1999999+0031REMSYN017 333 20259 58003;EQDQ01+999990APOSP 
0096827980999991995011818004-07100-034867FM-12+0007SBJP V0201401N00411007501CN0040001N1+02921+02241101391ADDAA106000091AG10000GF105991051021008001001001MA1999999101131MD1999999-0021REMSYN011 333 59002;
0074827980999991995011909004-07100-034867FM-15+0007SBJP V0201901N00261220001CN0112651N1+02101+02001999999ADDAG10000GA1021+006009999MA1101291999999REMMET005NEW ;EQDQ01+000000PRSWM2
0115827980999991995011912004-07100-034867FM-12+0007SBJP V0201401N00411220001CN0040001N1+02891+02151101551ADDAA106000091AG10000GF104991041021008001001001KA1240N+02391MA1999999101461MD1999999-0061REMSYN017 333 20239 59006;
0096827980999991995011918004-07100-034867FM-12+0007SBJP V0201401N00311007501CN0040001N1+02901+02251101411ADDAA106000091AG10000GF105991051021008001001001MA1999999101321MD1999999-0021REMSYN011 333 59002;
0074827980999991995012011004-07100-034867FM-15+0007SBJP V0201001N00511006001CN0112651N1+02801+02101999999ADDAG10999GA1071+006009999MA1101491999999REMMET005NEW ;EQDQ01+000000PRSWM2
0074827980999991995012016004-07100-034867FM-15+0007SBJP V0200901N00411220001CN0112651N1+03001+02101999999ADDAG10999GA1021+006009999MA1101391999999REMMET005NEW ;EQDQ01+000000PRSWM2
0074827980999991995012017004-07100-034867FM-15+0007SBJP V0201101N00411220001CN0112651N1+03001+02101999999ADDAG10999GA1021+006009999MA1101391999999REMMET005NEW ;EQDQ01+000000PRSWM2
0115827980999991995012100004-07100-034867FM-12+0007SBJP V0201401N00261007501CN0040001N1+02621+02211101491ADDAA106000091AG10000GF106991061021008001001001KA1240M+03031MA1999999101401MD1999999-0021REMSYN017 333 10303 59002;
0115827980999991995012112004-07100-034867FM-12+0007SBJP V0201401N00311007501CN0040001N1+02861+02261101521ADDAA106000091AG10000GF106991061021008001001001KA1240N+02611MA1999999101501MD1999999-0021REMSYN017 333 20261 59002;
0074827980999991995012123004-07100-034867FM-15+0007SBJP V0201001N00411220001CN0112651N1+02601+02301999999ADDAG10999GA1021+006009999MA1101291999999REMMET005NEW ;EQDQ01+000000PRSWM2
0143827980999991995012212004-07100-034867FM-12+0007SBJP V0200901N00311007501CN0040001N1+02821+02271101331ADDAA124000191AG10006AY161061AY221061GF105991051021008001001001KA1240N+02631MA1999999101241MD1999999+0261MW1001REMSYN023 333 20263 58026 69924;
0074827980999991995012409004-07100-034867FM-15+0007SBJP V0209991C00001220001CN0112651N1+02301+02201999999ADDAG10000GA1021+006009999MA1101191999999REMMET005NEW ;EQDQ01+000000PRSWM2
0074827980999991995012410004-07100-034867FM-15+0007SBJP V0202701N00151220001CN0112651N1+02501+02301999999ADDAG10999GA1021+006009999MA1101291999999REMMET005NEW ;EQDQ01+000000PRSWM2
0141827980999991995012412004-07100-034867SY-MT+0007SBJP V0201401N00931220001CN0040001N1+02821+02271101491ADDAA106000091AG10000GA1021+006009999GF104991041021008001001001KA1999N+02431MA1101291101401REMSYN011 333 20243;MET005NEW ;EQDQ01+000000PRSWM2
0074827980999991995012413004-07100-034867FM-15+0007SBJP V0200301N00311220001CN0112651N1+03001+02201999999ADDAG10999GA1021+006009999MA1101291999999REMMET005NEW ;EQDQ01+000000PRSWM2
0074827980999991995012421004-07100-034867FM-15+0007SBJP V0200701N00361220001CN0112651N1+02701+02201999999ADDAG10000GA1021+006009999MA1101191999999REMMET005NEW ;EQDQ01+000000PRSWM2
0074827980999991995012422004-07100-034867FM-15+0007SBJP V0200501N00261220001CN0112651N1+02701+02201999999ADDAG10999GA1021+006009999MA1101291999999REMMET005NEW ;EQDQ01+000000PRSWM2
0074827980999991995012423004-07100-034867FM-15+0007SBJP V0200801N00211220001CN0112651N1+02601+02201999999ADDAG10999GA1021+006009999MA1101291999999REMMET005NEW ;EQDQ01+000000PRSWM2
0074827980999991995012507004-07100-034867FM-15+0007SBJP V0201801N00151220001CN0112651N1+02301+02201999999ADDAG10999GA1021+006009999MA1101191999999REMMET005NEW ;EQDQ01+000000PRSWM2
0090827980999991995012509004-07100-034867FM-15+0007SBJP V0202401N00101220001CN0112651N1+02401+02201999999ADDAG10000GA1021+006009999GA2021+030009999MA1101291999999REMMET005NEW ;EQDQ01+000000PRSWM2
0090827980999991995012510004-07100-034867FM-15+0007SBJP V0209991C00001060001CN0112651N1+02601+02301999999ADDAG10999GA1021+006009999GA2071+060009999MA1101391999999REMMET005NEW ;EQDQ01+000000PRSWM2
0115827980999991995012512004-07100-034867FM-12+0007SBJP V0201401N00311220001CN0040001N1+02881+02161101491ADDAA106000091AG10000GF104991041021008001001001KA1240N+02591MA1999999101401MD1999999+0001REMSYN017 333 20259 58000;
0090827980999991995012514004-07100-034867FM-15+0007SBJP V0201101N00311060001CN0112651N1+03001+02101999999ADDAG10999GA1021+006009999GA2071+060009999MA1101391999999REMMET005NEW ;EQDQ01+000000PRSWM2
0074827980999991995012516004-07100-034867FM-15+0007SBJP V0200801N00511220001CN0112651N1+99999+99999999999ADDAG10999GA1021+006009999REMMET020NEW BBKN200 30/20 Q1EQDQ01+000000PRSWM2
0074827980999991995012521004-07100-034867FM-15+0007SBJP V0201001N00261220001CN0112651N1+02701+02201999999ADDAG10000GA1021+006009999MA1101191999999REMMET005NEW ;EQDQ01+000000PRSWM2
0074827980999991995012522004-07100-034867FM-15+0007SBJP V0200901N00211220001CN0112651N1+02701+02201999999ADDAG10999GA1021+006009999MA1101291999999REMMET005NEW ;EQDQ01+000000PRSWM2
0074827980999991995012523004-07100-034867FM-15+0007SBJP V0201001N00211220001CN0112651N1+02601+02201999999ADDAG10999GA1021+006009999MA1101391999999REMMET005NEW ;EQDQ01+000000PRSWM2
0161827980999991995012600004-07100-034867SY-MT+0007SBJP V0201401N00261007501CN0040001N1+02621+02211101391ADDAA106000091AG10000GA1021+006009999GF106991061021008001001001KA1240M+03041MA1101391101301MD1999999+0001REMSYN017 333 10304 58000;MET005NEW ;EQDQ01+000000PRSWM2
0074827980999991995012611004-07100-034867FM-15+0007SBJP V0201401N00211220001CN0112651N1+02701+02201999999ADDAG10999GA1021+006009999MA1101291999999REMMET005NEW ;EQDQ01+000000PRSWM2
0177827980999991995012612004-07100-034867SY-MT+0007SBJP V0201401N00311006001CN0060001N1+02871+99999101451ADDAA106000091AG10000GA1071+006009999GF199999051021008001001001KA1240N+02431MA1101291101361MD1999999+0041REMSYN017 333 20243 58004;MET005NEW ;EQDQ01+000052SCOTCVQ02+000000PRSWM2
0074827980999991995012613004-07100-034867FM-15+0007SBJP V0201101N00411006001CN0112651N1+03001+02201999999ADDAG10999GA1071+006009999MA1101291999999REMMET005NEW ;EQDQ01+000000PRSWM2
0074827980999991995012620004-07100-034867FM-15+0007SBJP V0201001N00411220001CN0112651N1+02801+02301999999ADDAG10999GA1021+006009999MA1101081999999REMMET005NEW ;EQDQ01+000000PRSWM2
0074827980999991995012621004-07100-034867FM-15+0007SBJP V0201001N00311220001CN0112651N1+02701+02301999999ADDAG10000GA1021+006009999MA1101191999999REMMET005NEW ;EQDQ01+000000PRSWM2
0074827980999991995012700004-07100-034867FM-15+0007SBJP V0201101N00411220001CN0112651N1+02601+02301999999ADDAG10000GA1021+006009999MA1101291999999REMMET005NEW ;EQDQ01+000000PRSWM2
0074827980999991995012711004-07100-034867FM-15+0007SBJP V0201201N00411006001CN0112651N1+02701+02201999999ADDAG10999GA1071+006009999MA1101291999999REMMET005NEW ;EQDQ01+000000PRSWM2
0209827980999991995012712004-07100-034867SY-MT+0007SBJP V0201401N00411006001CN9999999N9+02821+02121101431ADDAA106000091AG10000GA1071+006009999GF199999051021008001001001KA1240N+02661MA1101391101341MD1999999+0021REMSYN017 333 20266 58002;MET005NEW ;EQDQ01+000052SCOTCVQ02+040002VODIS Q03+000002VOVAR Q04+000000PRSWM2
0076827980999991995012718004-07100-034867FM-12+0007SBJP V0201401N00311220001CN0040001N1+02901+02221101241ADDAA106000091AG10000GF104991041021008001001001MA1999999101151REMSYN005 333;
0095827980999991995012800004-07100-034867FM-12+0007SBJP V0201401N00411007501CN0040001N1+02601+99999101341ADDAA106000091AG10000GF105991051021008001001001KA1999M+03061MA1999999101251REMSYN011 333 10306;
0074827980999991995012812004-07100-034867FM-15+0007SBJP V0201601N00261006001CN0112651N1+02701+02101999999ADDAG10000GA1071+006009999MA1101291999999REMMET005NEW ;EQDQ01+000000PRSWM2
0096827980999991995012818004-07100-034867FM-12+0007SBJP V0201401N00311220001CN0040001N1+02891+02151101291ADDAA106000091AG10000GF104991041021008001001001MA1999999101201MD1999999-0051REMSYN011 333 59005;
0115827980999991995012900004-07100-034867FM-12+0007SBJP V0201401N00411007501CN0040001N1+02641+02231101331ADDAA106000091AG10000GF106991061021008001001001KA1240M+03071MA1999999101241MD1999999+0011REMSYN017 333 10307 58001;
0221827980999991995012912004-07100-034867SY-MT+0007SBJP V0201401N00311030001CN0040001N1+02821+02341101391ADDAA124003091AG10006AY161061AY221061GA1021+006009999GA2071+030009999GF199999061091008001001001KA1240N+02531MA1101391101301MD1999999+0001MW1001REMSYN023 333 20253 58000 60034;MET005NEW ;EQDQ01+000062SCOTCVQ02+000000PRSWM2
0090827980999991995012913004-07100-034867FM-15+0007SBJP V0200701N00261030001CN0112651N1+03001+02301999999ADDAG10999GA1021+006009999GA2071+030009999MA1101291999999REMMET005NEW ;EQDQ01+000000PRSWM2
0090827980999991995012915004-07100-034867FM-15+0007SBJP V0200801N00411220001CN0112651N1+03001+02401999999ADDAG10000GA1021+006009999GA2021+060009999MA1101191999999REMMET005NEW ;EQDQ01+000000PRSWM2
0096827980999991995012918004-07100-034867FM-12+0007SBJP V0200901N00411007501CN0040001N1+02901+02411101141ADDAA106000091AG10000GF106991061091008001001001MA1999999101051MD1999999-0151REMSYN011 333 59015;
0090827980999991995012922004-07100-034867FM-15+0007SBJP V0200701N00311220001CN0112651N1+02701+02401999999ADDAG10999GA1021+006009999GA2021+030009999MA1101191999999REMMET005NEW ;EQDQ01+000000PRSWM2
0090827980999991995013000004-07100-034867FM-15+0007SBJP V0200701N00211220001CN0112651N1+02701+02401999999ADDAG10000GA1021+006009999GA2021+030009999MA1101291999999REMMET005NEW ;EQDQ01+000000PRSWM2
0115827980999991995013012004-07100-034867FM-12+0007SBJP V0200901N00411007501CN0040001N1+02901+02341101401ADDAA106000091AG10000GF105991051091008001001001KA1240N+02661MA1999999101311MD1999999-0011REMSYN017 333 20266 59001;
0096827980999991995013018004-07100-034867FM-12+0007SBJP V0200901N00311220001CN0040001N1+02901+02121101271ADDAA106000091AG10000GF104991041021008001001001MA1999999101181MD1999999+0021REMSYN011 333 58002;
0074827980999991995013020004-07100-034867FM-15+0007SBJP V0201001N00261220001CN0112651N1+02901+02401999999ADDAG10999GA1021+006009999MA1101021999999REMMET005NEW ;EQDQ01+000000PRSWM2
0090827980999991995013110004-07100-034867FM-15+0007SBJP V0209991C00001220001CN0112651N1+02601+02301999999ADDAG10999GA1021+006009999GA2021+060009999MA1101191999999REMMET005NEW ;EQDQ01+000000PRSWM2
0225827980999991995013112004-07100-034867SY-MT+0007SBJP V0200901N00411060001CN9999999N9+02891+02221101291ADDAA106000091AG10000GA1021+006009999GA2071+060009999GF199999051021008001001001KA1240N+01711MA1101191101201MD1999999+0111REMSYN017 333 20171 58011;MET005NEW ;EQDQ01+000052SCOTCVQ02+040002VODIS Q03+000002VOVAR Q04+000000PRSWM2
0096827980999991995013118004-07100-034867FM-12+0007SBJP V0201401N00411220001CN0040001N1+02941+02331101141ADDAA106000091AG10000GF103991031021008001001001MA1999999101051MD1999999+0131REMSYN011 333 58013;
0074827980999991995013120004-07100-034867FM-15+0007SBJP V0201101N00411006001CN0112651N1+02901+02101999999ADDAG10999GA1071+006009999MA1101081999999REMMET005NEW ;EQDQ01+000000PRSWM2
0090827980999991995013121004-07100-034867FM-15+0007SBJP V0201001N00361220001CN0112651N1+02701+02201999999ADDAG10000GA1021+006009999GA2021+030009999MA1101081999999REMMET005NEW ;EQDQ01+000000PRSWM2
0209827980999991995020112004-07100-034867SY-MT+0007SBJP V0201401N00311006001CN9999999N9+02921+02271101391ADDAA106000091AG10000GA1071+006009999GF199999061021008001001001KA1240N+02411MA1101291101301MD1999999-0011REMSYN017 333 20241 59001;MET005NEW ;EQDQ01+000062SCOTCVQ02+040002VODIS Q03+000002VOVAR Q04+000000PRSWM2
0090827980999991995020116004-07100-034867FM-15+0007SBJP V0200601N00261220001CN0112651N1+03101+02001999999ADDAG10999GA1021+006009999GA2021+030009999MA1101081999999REMMET005NEW ;EQDQ01+000000PRSWM2
0090827980999991995020117004-07100-034867FM-15+0007SBJP V0200601N00311075001CN0112651N1+03101+02001999999ADDAG10999GA1021+006009999GA2071+075009999MA1101081999999REMMET005NEW ;EQDQ01+000000PRSWM2
0206827980999991995020118004-07100-034867SY-MT+0007SBJP V0200501N00311075001CN0112651N1+02941+02261101211ADDAA106000091AG10000GA1021+006009999GA2021+030009999GA3071+075009999GF199999051081008001001001MA1101081101121MD1999999+0071REMSYN011 333 58007;MET005NEW ;EQDQ01+000052SCOTCVQ02+040002VODIS Q03+000000PRSWM2
0090827980999991995020119004-07100-034867FM-15+0007SBJP V0200701N00511027001CN0112651N1+02901+02101999999ADDAG10999GA1071+027009999GA2071+075009999MA1101081999999REMMET005NEW ;EQDQ01+000000PRSWM2
0090827980999991995020121004-07100-034867FM-15+0007SBJP V0201001N00311060001CN0112651N1+02801+02301999999ADDAG10000GA1021+027009999GA2071+060009999MA1101081999999REMMET005NEW ;EQDQ01+000000PRSWM2
0131827980999991995020200004-07100-034867FM-12+0007SBJP V0200501N00311220001CN0020001N1+02721+02301101391ADDAA106000091AG10000GA1001+999999999GF100991001001999999001001KA1240M+03071MA1999999101301MD1999999+0101REMSYN017 333 10307 58010;
0090827980999991995020211004-07100-034867FM-15+0007SBJP V0201301N00261006001CN0112651N1+02601+02301999999ADDAG10999GA1071+006009999GA2071+090009999MA1101291999999REMMET005NEW ;EQDQ01+000000PRSWM2
0090827980999991995020212004-07100-034867FM-15+0007SBJP V0200601N00211006001CN0112651N1+02801+02201999999ADDAG10000GA1071+006009999GA2071+030009999MA1101291999999REMMET005NEW ;EQDQ01+000000PRSWM2
0096827980999991995020218004-07100-034867FM-12+0007SBJP V0200501N00311220001CN0040001N1+02941+02241101251ADDAA106000091AG10000GF104991041081008001001001MA1999999101161MD1999999+0041REMSYN011 333 58004;
0090827980999991995020220004-07100-034867FM-15+0007SBJP V0201301N00511220001CN0112651N1+02901+02201999999ADDAG10999GA1021+006009999GA2021+030009999MA1101081999999REMMET005NEW ;EQDQ01+000000PRSWM2
0090827980999991995020222004-07100-034867FM-15+0007SBJP V0201001N00311060001CN0112651N1+02701+02301999999ADDAG10999GA1021+006009999GA2071+060009999MA1101081999999REMMET005NEW ;EQDQ01+000000PRSWM2
0106827980999991995020308004-07100-034867FM-15+0007SBJP V0201701N00261090001CN0112651N1+02401+02301999999ADDAG10999GA1021+006009999GA2021+030009999GA3071+090009999MA1101081999999REMMET005NEW ;EQDQ01+000000PRSWM2
0090827980999991995020310004-07100-034867FM-15+0007SBJP V0201601N00151060001CN0112651N1+02601+02301999999ADDAG10999GA1021+006009999GA2071+060009999MA1101191999999REMMET005NEW ;EQDQ01+000000PRSWM2
0090827980999991995020311004-07100-034867FM-15+0007SBJP V0201101N00511004801CN0112651N1+02701+02301999999ADDAG10999GA1071+004809999GA2021+030009999MA1101291999999REMMET005NEW ;EQDQ01+000000PRSWM2
0171827980999991995020312004-07100-034867FM-12+0007SBJP V0201401N00311007501CN0040001N1+02741+02321101381ADDAA124005091AG10006AY161061AY221061GF108991071091008001999999KA1240N+02471MA1999999101291MD1999999-0021ME1103809MW1001REMSYN023 333 20247 59002 60054;EQDQ01+999990APOSLP
0090827980999991995020315004-07100-034867FM-15+0007SBJP V0201201N00621030001CN0112651N1+03001+02201999999ADDAG10000GA1021+006009999GA2071+030009999MA1101191999999REMMET005NEW ;EQDQ01+000000PRSWM2
0096827980999991995020318004-07100-034867FM-12+0007SBJP V0201401N00311007501CN0040001N1+02271+02271101291ADDAA106000091AG10000GF106991061021008001001001MA1999999101201MD1999999-0041REMSYN011 333 59004;
0090827980999991995020320004-07100-034867FM-15+0007SBJP V0201401N00411030001CN0112651N1+02801+02101999999ADDAG10999GA1021+006009999GA2071+030009999MA1101021999999REMMET005NEW ;EQDQ01+000000PRSWM2
0090827980999991995020321004-07100-034867FM-15+0007SBJP V0201201N00261030001CN0112651N1+02701+02201999999ADDAG10000GA1021+006009999GA2071+030009999MA1101081999999REMMET005NEW ;EQDQ01+000000PRSWM2
0090827980999991995020322004-07100-034867FM-15+0007SBJP V0201301N00261030001CN0112651N1+02601+02201999999ADDAG10999GA1021+006009999GA2071+030009999MA1101081999999REMMET005NEW ;EQDQ01+000000PRSWM2
0090827980999991995020323004-07100-034867FM-15+0007SBJP V0201301N00311030001CN0112651N1+02601+02201999999ADDAG10999GA1021+006009999GA2071+030009999MA1101191999999REMMET005NEW ;EQDQ01+000000PRSWM2
0090827980999991995020400004-07100-034867FM-15+0007SBJP V0201501N00261030001CN0112651N1+02601+02201999999ADDAG10000GA1021+006009999GA2071+030009999MA1101291999999REMMET005NEW ;EQDQ01+000000PRSWM2
0090827980999991995020401004-07100-034867FM-15+0007SBJP V0201201N00261220001CN0112651N1+02601+02201999999ADDAG10999GA1021+006009999GA2021+030009999MA1101291999999REMMET005NEW ;EQDQ01+000000PRSWM2
0094827980999991995020402004-07100-034867FM-15+0007SBJP V0209991C00001220001CN0112651N1+02601+99999999999ADDAG10999GA1021+006009999GA2021+030009999REMMET008NEW 2 Q1EQDQ01+027523ATOD  Q02+000000PRSWM2
0090827980999991995020403004-07100-034867FM-15+0007SBJP V0201901N00261030001CN0112651N1+02401+02101999999ADDAG10000GA1021+006009999GA2071+030009999MA1101191999999REMMET005NEW ;EQDQ01+000000PRSWM2
0193827980999991995020412004-07100-034867SY-MT+0007SBJP V0201401N00311030001CN0040001N1+02801+02311101391ADDAA106000091AG10000GA1021+006009999GA2071+030009999GF199999061021008001001001KA1240N+02331MA1101291101301MD1999999-0011REMSYN017 333 20233 59001;MET005NEW ;EQDQ01+000062SCOTCVQ02+000000PRSWM2
0090827980999991995020417004-07100-034867FM-15+0007SBJP V0201001N00411030001CN0112651N1+03001+02201999999ADDAG10999GA1021+006009999GA2071+030009999MA1101081999999REMMET005NEW ;EQDQ01+000000PRSWM2
0082827980999991995020418004-07100-034867FM-12+0007SBJP V0201401N00311007501CN0040001N1+02841+02291101291ADDAA106000091AG10000GF106991061021008001001001MA1999999101201REMSYN011 333 580//;
0090827980999991995020421004-07100-034867FM-15+0007SBJP V0201001N00361060001CN0112651N1+02701+02301999999ADDAG10000GA1021+006009999GA2071+060009999MA1101191999999REMMET005NEW ;EQDQ01+000000PRSWM2
0090827980999991995020423004-07100-034867FM-15+0007SBJP V0200901N00261060001CN0112651N1+02601+02301999999ADDAG10999GA1021+006009999GA2071+060009999MA1101291999999REMMET005NEW ;EQDQ01+000000PRSWM2
0090827980999991995020511004-07100-034867FM-15+0007SBJP V0201801N00211060001CN0112651N1+02701+02201999999ADDAG10999GA1021+006009999GA2071+060009999MA1101391999999REMMET005NEW ;EQDQ01+000000PRSWM2
0143827980999991995020512004-07100-034867FM-12+0007SBJP V0209991C00001007501CN0040001N1+02661+02371101541ADDAA124005091AG10006AY161061AY221061GF106991061091008001001001KA1240N+02411MA1999999101451MD1999999+0151MW1611REMSYN023 333 20241 58015 60054;
0090827980999991995020513004-07100-034867FM-15+0007SBJP V0201001N00261060001CN0112651N1+02901+02301999999ADDAG10999GA1021+006009999GA2071+060009999MA1101391999999REMMET005NEW ;EQDQ01+000000PRSWM2
0090827980999991995020514004-07100-034867FM-15+0007SBJP V0201001N00511006001CN0112651N1+02801+02401999999ADDAG10999GA1071+006009999GA2021+060009999MA1101391999999REMMET005NEW ;EQDQ01+000000PRSWM2
0090827980999991995020516004-07100-034867FM-15+0007SBJP V0201001N00311060001CN0112651N1+03001+02201999999ADDAG10999GA1021+006009999GA2071+060009999MA1101291999999REMMET005NEW ;EQDQ01+000000PRSWM2
0106827980999991995020517004-07100-034867FM-15+0007SBJP V0201001N00361060001CN0112651N1+02901+02301999999ADDAG10999GA1021+006009999GA2021+030009999GA3071+060009999MA1101291999999REMMET005NEW ;EQDQ01+000000PRSWM2
0096827980999991995020518004-07100-034867FM-12+0007SBJP V0200501N00311007501CN0040001N1+02801+02381101311ADDAA106000091AG10000GF106991061091008001001001MA1999999101221MD1999999+0021REMSYN011 333 58002;
0090827980999991995020610004-07100-034867FM-15+0007SBJP V0201801N00261030001CN0112651N1+02501+02401999999ADDAG10999GA1021+005409999GA2071+030009999MA1101491999999REMMET005NEW ;EQDQ01+000000PRSWM2
0143827980999991995020612004-07100-034867FM-12+0007SBJP V0209999999999007501CN0040001N1+02761+02501101611ADDAA124023091AG10006AY161061AY221061GF108991081091008001999999KA1240N+02421MA1999999101521MD1999999+0071MW1001REMSYN023 333 20242 58007 60234;
0090827980999991995020613004-07100-034867FM-15+0007SBJP V0200401N00261006001CN0112651N1+02901+02401999999ADDAG10999GA1071+006009999GA2021+030009999MA1101491999999REMMET005NEW ;EQDQ01+000000PRSWM2
0090827980999991995020614004-07100-034867FM-15+0007SBJP V0200601N00311006001CN0112651N1+02901+02401999999ADDAG10999GA1071+006009999GA2021+030009999MA1101491999999REMMET005NEW ;EQDQ01+000000PRSWM2
0090827980999991995020616004-07100-034867FM-15+0007SBJP V0200601N00411006001CN0112651N1+03001+02301999999ADDAG10999GA1071+006009999GA2071+030009999MA1101291999999REMMET005NEW ;EQDQ01+000000PRSWM2
0096827980999991995020618004-07100-034867FM-12+0007SBJP V0209991C00001007501CN0040001N1+02821+02401101401ADDAA106000091AG10000GF107991071091008001001001MA1999999101311MD1999999+0091REMSYN011 333 58009;
0095827980999991995020620004-07100-034867FM-16+0007SBJP V0201001N00211030001CN0112651N1+99999+99999999999ADDAG10999GA1021+006009999GA2071+030009999REMMET025NEW BKN 300 26/25 Q1013 ;EQDQ01+000000PRSWM2
0106827980999991995020621004-07100-034867FM-15+0007SBJP V0200401N00311030001CN0112651N1+02601+02501999999ADDAG10000GA1021+006009999GA2071+030009999GA3071+090009999MA1101291999999REMMET005NEW ;EQDQ01+000000PRSWM2
0090827980999991995020622004-07100-034867FM-15+0007SBJP V0200501N00211030001CN0112651N1+02601+02501999999ADDAG10999GA1021+006009999GA2071+030009999MA1101391999999REMMET005NEW ;EQDQ01+000000PRSWM2
0090827980999991995020623004-07100-034867FM-15+0007SBJP V0203001N00261030001CN0112651N1+02601+02501999999ADDAG10999GA1021+006009999GA2071+030009999MA1101591999999REMMET005NEW ;EQDQ01+000000PRSWM2
0177827980999991995020700004-07100-034867SY-MT+0007SBJP V0200501N00261006001CN0040001N1+02621+02351101591ADDAA106000091AG10000GA1071+006009089GA2081+030009999GF199999071091008001001001KA1240M+03011MA1101491101501MD1999999-0041REMSYN017 333 10301 59004;MET005NEW ;EQDQ01+000072SCOTCV
0093827980999991995020709004-07100-034867FM-15+0007SBJP V0200301N00261005401CN0060001N1+02501+02401999999ADDAG10008GA1021+004509999GA2071+005409999GA3071+030009999MA1101491999999MW1611REMMET005NEW ;
0090827980999991995020711004-07100-034867FM-15+0007SBJP V0200301N00211220001CN0112651N1+02701+02401999999ADDAG10999GA1021+006009999GA2021+030009999MA1101591999999REMMET005NEW ;EQDQ01+000000PRSWM2
0221827980999991995020712004-07100-034867SY-MT+0007SBJP V0200501N00261003001CN0040001N1+02701+02431101691ADDAA124003091AG10027AY161061AY221061GA1071+003009999GA2071+006009999GA3071+030009999GF107991071091008001001001KA1240N+02531MA1101591101601MD1999999-0081MW1631REMSYN023 333 20253 59008 60034;MET005NEW ;EQDQ01+000003PRSWM1
0090827980999991995020714004-07100-034867FM-15+0007SBJP V0200401N00411006001CN0112651N1+02801+02401999999ADDAG10999GA1071+006009999GA2071+030009999MA1101591999999REMMET005NEW ;EQDQ01+000000PRSWM2
0090827980999991995020717004-07100-034867FM-15+0007SBJP V0200401N00311006001CN0112651N1+02801+02301999999ADDAG10999GA1071+006009999GA2071+030009999MA1101391999999REMMET005NEW ;EQDQ01+000000PRSWM2
0190827980999991995020718004-07100-034867SY-MT+0007SBJP V0200901N00311030001CN0040001N1+02801+02271101391ADDAA106000091AG10000GA1021+006009999GA2071+030009999GA3071+060009999GF199999051021008001001001MA1101291101301MD1999999+0011REMSYN011 333 58001;MET005NEW ;EQDQ01+000052SCOTCVQ02+000000PRSWM2
0106827980999991995020719004-07100-034867FM-15+0007SBJP V0200601N00411030001CN0112651N1+02901+02301999999ADDAG10999GA1021+006009999GA2071+030009999GA3071+060009999MA1101391999999REMMET005NEW ;EQDQ01+000000PRSWM2
0090827980999991995020720004-07100-034867FM-15+0007SBJP V0200501N00311030001CN0112651N1+02801+02401999999ADDAG10999GA1021+006009999GA2071+030009999MA1101391999999REMMET005NEW ;EQDQ01+000000PRSWM2
0074827980999991995020809004-07100-034867FM-15+0007SBJP V0202501N00211220001CN0112651N1+02401+02301999999ADDAG10000GA1021+006009999MA1101491999999REMMET005NEW ;EQDQ01+000000PRSWM2
0074827980999991995020810004-07100-034867FM-15+0007SBJP V0203001N00211220001CN0112651N1+02501+02401999999ADDAG10999GA1021+006009999MA1101591999999REMMET005NEW ;EQDQ01+000000PRSWM2
0074827980999991995020811004-07100-034867FM-15+0007SBJP V0203301N00211220001CN0112651N1+02801+02401999999ADDAG10999GA1021+006009999MA1101591999999REMMET005NEW ;EQDQ01+000000PRSWM2
0161827980999991995020812004-07100-034867SY-MT+0007SBJP V0200101N00261007501CN0040001N1+02841+02381101671ADDAA106000091AG10000GA1021+006009999GF105991051021008001001001KA1240N+02411MA1101591101581MD1999999+0021REMSYN017 333 20241 58002;MET005NEW ;EQDQ01+000000PRSWM2
0074827980999991995020813004-07100-034867FM-15+0007SBJP V0200601N00261220001CN0112651N1+03001+02301999999ADDAG10999GA1021+006009999MA1101591999999REMMET005NEW ;EQDQ01+000000PRSWM2
0074827980999991995020816004-07100-034867FM-15+0007SBJP V0200601N00511220001CN0112651N1+03101+02401999999ADDAG10999GA1021+006009999MA1101391999999REMMET005NEW ;EQDQ01+000000PRSWM2
0074827980999991995020818004-07100-034867FM-15+0007SBJP V0200701N00621220001CN0112651N1+03001+02401999999ADDAG10000GA1021+006009999MA1101291999999REMMET005NEW ;EQDQ01+000000PRSWM2
0074827980999991995020819004-07100-034867FM-15+0007SBJP V0200601N00361220001CN0112651N1+03001+02401999999ADDAG10999GA1021+006009999MA1101291999999REMMET005NEW ;EQDQ01+000000PRSWM2
0074827980999991995020821004-07100-034867FM-15+0007SBJP V0200401N00311006001CN0112651N1+02801+02401999999ADDAG10000GA1071+006009999MA1101391999999REMMET005NEW ;EQDQ01+000000PRSWM2
0115827980999991995020900004-07100-034867FM-12+0007SBJP V0200901N00311220001CN0040001N1+02721+02371101711ADDAA106000091AG10000GF104991041071008001001001KA1240M+03041MA1999999101621MD1999999+0141REMSYN017 333 10304 58014;
0074827980999991995020909004-07100-034867FM-15+0007SBJP V0202701N00151220001CN0112651N1+02401+02301999999ADDAG10000GA1021+006009999MA1101591999999REMMET005NEW ;EQDQ01+000000PRSWM2
0074827980999991995020910004-07100-034867FM-15+0007SBJP V0209991C00001220001CN0112651N1+02401+02301999999ADDAG10999GA1021+006009999MA1101691999999REMMET005NEW ;EQDQ01+000000PRSWM2
0090827980999991995020911004-07100-034867FM-15+0007SBJP V0209991C00001220001CN0112651N1+02601+02401999999ADDAG10999GA1021+006009999GA2021+030009999MA1101691999999REMMET005NEW ;EQDQ01+000000PRSWM2
0143827980999991995020912004-07100-034867FM-12+0007SBJP V0209991C00001007501CN0020001N1+02661+02371101821ADDAA124004091AG10006AY161061AY221061GF107991071091008001001001KA1240N+02401MA1999999101731MD1999999+0151MW1211REMSYN023 333 20240 58015 60044;
0106827980999991995020913004-07100-034867FM-15+0007SBJP V0203101N00211030001CN0112651N1+02801+02401999999ADDAG10999GA1021+004509999GA2021+005409999GA3071+030009999MA1101691999999REMMET005NEW ;EQDQ01+000000PRSWM2
0090827980999991995020914004-07100-034867FM-15+0007SBJP V0200401N00151030001CN0112651N1+02901+02401999999ADDAG10999GA1021+006009999GA2071+030009999MA1101691999999REMMET005NEW ;EQDQ01+000000PRSWM2
0090827980999991995020916004-07100-034867FM-15+0007SBJP V0201001N00361030001CN0112651N1+03001+02301999999ADDAG10999GA1021+006009999GA2071+030009999MA1101491999999REMMET005NEW ;EQDQ01+000000PRSWM2
0090827980999991995020918004-07100-034867FM-15+0007SBJP V0200701N00361030001CN0112651N1+03001+02301999999ADDAG10000GA1021+006009999GA2071+030009999MA1101291999999REMMET005NEW ;EQDQ01+000000PRSWM2
0090827980999991995020919004-07100-034867FM-15+0007SBJP V0200901N00511030001CN0112651N1+03001+02301999999ADDAG10999GA1021+006009999GA2071+030009999MA1101291999999REMMET005NEW ;EQDQ01+000000PRSWM2
0090827980999991995020920004-07100-034867FM-15+0007SBJP V0201001N00511220001CN0112651N1+02901+02301999999ADDAG10999GA1021+006009999GA2021+030009999MA1101291999999REMMET005NEW ;EQDQ01+000000PRSWM2
0074827980999991995020922004-07100-034867FM-15+0007SBJP V0200901N00261220001CN0112651N1+02701+02401999999ADDAG10999GA1021+006009999MA1101491999999REMMET005NEW ;EQDQ01+000000PRSWM2
0074827980999991995020923004-07100-034867FM-15+0007SBJP V0201001N00211006001CN0112651N1+02701+02401999999ADDAG10999GA1071+006009999MA1101491999999REMMET005NEW ;EQDQ01+000000PRSWM2
0074827980999991995021000004-07100-034867FM-15+0007SBJP V0201001N00261006001CN0112651N1+02701+02401999999ADDAG10000GA1071+006009999MA1101591999999REMMET005NEW ;EQDQ01+000000PRSWM2
0074827980999991995021008004-07100-034867FM-15+0007SBJP V0201401N00151220001CN0112651N1+02501+02401999999ADDAG10999GA1021+006009999MA1101491999999REMMET005NEW ;EQDQ01+000000PRSWM2
0074827980999991995021010004-07100-034867FM-15+0007SBJP V0201301N00261220001CN0112651N1+02601+02501999999ADDAG10999GA1021+006009999MA1101491999999REMMET005NEW ;EQDQ01+000000PRSWM2
0090827980999991995021011004-07100-034867FM-15+0007SBJP V0201141N00211006001CN0112651N1+02701+02501999999ADDAG10999GA1021+003009999GA2071+006009999MA1101591999999REMMET005NEW ;EQDQ01+000000PRSWM2
0221827980999991995021012004-07100-034867SY-MT+0007SBJP V0201401N00311006001CN0040001N1+02921+02451101681ADDAA124000191AG10006AY161061AY221061GA1021+003009999GA2071+006009999GF199999061071008001001001KA1240N+02541MA1101591101591MD1999999-0141MW1001REMSYN023 333 20254 59014 69924;MET005NEW ;EQDQ01+000062SCOTCVQ02+000000PRSWM2
0074827980999991995021014004-07100-034867FM-15+0007SBJP V0200601N00721006001CN0112651N1+03001+02301999999ADDAG10999GA1071+006009999MA1101491999999REMMET005NEW ;EQDQ01+000000PRSWM2
0074827980999991995021015004-07100-034867FM-15+0007SBJP V0201001N00511006001CN0112651N1+03101+02301999999ADDAG10000GA1071+006009999MA1101491999999REMMET005NEW ;EQDQ01+000000PRSWM2
0074827980999991995021016004-07100-034867FM-15+0007SBJP V0201001N00411006001CN0112651N1+03101+02301999999ADDAG10999GA1071+006009999MA1101391999999REMMET005NEW ;EQDQ01+000000PRSWM2
0074827980999991995021017004-07100-034867FM-15+0007SBJP V0201201N00411006001CN0112651N1+03101+02301999999ADDAG10999GA1071+006009999MA1101291999999REMMET005NEW ;EQDQ01+000000PRSWM2
0142827980999991995021018004-07100-034867SY-MT+0007SBJP V0201401N00311012001CN0040001N1+02941+02381101461ADDAA106000091AG10000GA1021+006009999GF105991051081008001001001MA1101191101371MD1999999-0091REMSYN011 333 59009;MET005NEW ;EQDQ01+000000PRSWM2
0074827980999991995021021004-07100-034867FM-15+0007SBJP V0201001N00311220001CN0112651N1+02901+02401999999ADDAG10000GA1021+006009999MA1101291999999REMMET005NEW ;EQDQ01+000000PRSWM2
0074827980999991995021022004-07100-034867FM-15+0007SBJP V0201201N00211220001CN0112651N1+02701+02401999999ADDAG10999GA1021+006009999MA1101391999999REMMET005NEW ;EQDQ01+000000PRSWM2
0074827980999991995021108004-07100-034867FM-15+0007SBJP V0202201N00261220001CN0112651N1+02401+02401999999ADDAG10999GA1021+006009999MA1101391999999REMMET005NEW ;EQDQ01+000000PRSWM2
0074827980999991995021110004-07100-034867FM-15+0007SBJP V0202201N00211220001CN0112651N1+02601+02401999999ADDAG10999GA1021+006009999MA1101491999999REMMET005NEW ;EQDQ01+000000PRSWM2
0205827980999991995021112004-07100-034867SY-MT+0007SBJP V0200901N00311006001CN0040001N1+02801+02251101581ADDAA124001091AG10006AY161061AY221061GA1071+006009999GF199999051021008001001001KA1240N+02511MA1101491101491MD1999999+0101MW1001REMSYN023 333 20251 58010 60014;MET005NEW ;EQDQ01+000052SCOTCVQ02+000000PRSWM2
0074827980999991995021113004-07100-034867FM-15+0007SBJP V0200801N00411006001CN0112651N1+02801+02401999999ADDAG10999GA1071+006009999MA1101491999999REMMET005NEW ;EQDQ01+000000PRSWM2
0090827980999991995021114004-07100-034867FM-15+0007SBJP V0200701N00311006001CN0112651N1+02901+02301999999ADDAG10999GA1071+006009999GA2021+030009999MA1101491999999REMMET005NEW ;EQDQ01+000000PRSWM2
0080827980999991995021118004-07100-034867FM-15+0007SBJP V0201001N00311220001CN0112651N1+99999+99999999999ADDAG10000GA1071+000159999REMMET026NEW 20 BKN100 29/23 Q1012;EQDQ01+000000PRSWM2
0058827980999991995021122004-07100-034867FM-15+0007SBJP V0201001N00211999999CN0112651N1+02701+02401999999ADDAG10999MA1101291999999REMMET005NEW ;EQDQ01+000000PRSWM2
0074827980999991995021209004-07100-034867FM-15+0007SBJP V0202201N00211220001CN0112651N1+02401+02301999999ADDAG10000GA1021+006009999MA1101291999999REMMET005NEW ;EQDQ01+000000PRSWM2
0177827980999991995021212004-07100-034867SY-MT+0007SBJP V0201401N00311006001CN0040001N1+02801+02311101631ADDAA106000091AG10000GA1071+006009999GF199999051021008001001001KA1240N+02451MA1101391101541MD1999999-0051REMSYN017 333 20245 59005;MET005NEW ;EQDQ01+000052SCOTCVQ02+000000PRSWM2
0074827980999991995021213004-07100-034867FM-15+0007SBJP V0201001N00311006001CN0112651N1+03001+02201999999ADDAG10999GA1071+006009999MA1101391999999REMMET005NEW ;EQDQ01+000000PRSWM2
0065827980999991995021215004-07100-034867FM-15+0007SBJP V0209999999999999999CN0080001N1+99999+99999999999ADDAG10000REMMET027NEW 99 BKN020 30/22 Q1013 ;EQDQ01+000000PRSWM2
0074827980999991995021216004-07100-034867FM-15+0007SBJP V0201001N00411006001CN0112651N1+03001+02201999999ADDAG10999GA1071+006009999MA1101191999999REMMET005NEW ;EQDQ01+000000PRSWM2
0074827980999991995021309004-07100-034867FM-15+0007SBJP V0202501N00151220001CN0112651N1+02301+02301999999ADDAG10000GA1021+006009999MA1101291999999REMMET005NEW ;EQDQ01+000000PRSWM2
0074827980999991995021310004-07100-034867FM-15+0007SBJP V0201601N00211220001CN0112651N1+02701+02301999999ADDAG10999GA1021+006009999MA1101391999999REMMET005NEW ;EQDQ01+000000PRSWM2
0074827980999991995021311004-07100-034867FM-15+0007SBJP V0201201N00151220001CN0112651N1+02801+02201999999ADDAG10999GA1021+006009999MA1101391999999REMMET005NEW ;EQDQ01+000000PRSWM2
0115827980999991995021312004-07100-034867FM-12+0007SBJP V0201401N00311012001CN0040001N1+02941+02241101531ADDAA106000091AG10000GF105991051081008001001001KA1240N+02451MA1999999101441MD1999999-0101REMSYN017 333 20245 59010;
0074827980999991995021313004-07100-034867FM-15+0007SBJP V0200501N00311006001CN0112651N1+02901+02301999999ADDAG10999GA1071+006009999MA1101391999999REMMET005NEW ;EQDQ01+000000PRSWM2
0074827980999991995021314004-07100-034867FM-15+0007SBJP V0200701N00311006001CN0112651N1+03001+02201999999ADDAG10999GA1071+006009999MA1101391999999REMMET005NEW ;EQDQ01+000000PRSWM2
0095827980999991995021315004-07100-034867FM-15+0007SBJP V0209999999999999999CN9999999N9+99999+99999999999ADDAG10000REMMET041NEW 1500Z Z08KT 9999 BKN020 30/22 Q1013 ;EQDQ01+000002VOVAR Q02+000000PRSWM2
0074827980999991995021316004-07100-034867FM-15+0007SBJP V0200701N00411220001CN0112651N1+03101+02201999999ADDAG10999GA1021+006009999MA1101191999999REMMET005NEW ;EQDQ01+000000PRSWM2
0074827980999991995021317004-07100-034867FM-15+0007SBJP V0200601N00361220001CN0112651N1+03101+02201999999ADDAG10999GA1021+006009999MA1101081999999REMMET005NEW ;EQDQ01+000000PRSWM2
0190827980999991995021318004-07100-034867SY-MT+0007SBJP V0201401N00311220001CN0112651N1+02911+02301101271ADDAA106000091AG10000GA1021+006009999GF199999001001999999001001MA1101081101181MD1999999-0021REMSYN011 333 59002;MET005NEW ;EQDQ01+000002SCOTCVQ02+000992SCOLCBQ03+040002VODIS Q04+000000PRSWM2
0074827980999991995021319004-07100-034867FM-15+0007SBJP V0200801N00311220001CN0112651N1+03001+02201999999ADDAG10999GA1021+006009999MA1101081999999REMMET005NEW ;EQDQ01+000000PRSWM2
0074827980999991995021320004-07100-034867FM-15+0007SBJP V0200901N00411220001CN0112651N1+02901+02201999999ADDAG10999GA1021+006009999MA1101081999999REMMET005NEW ;EQDQ01+000000PRSWM2
0074827980999991995021321004-07100-034867FM-15+0007SBJP V0200801N00511220001CN0112651N1+02801+02301999999ADDAG10000GA1021+006009999MA1101191999999REMMET005NEW ;EQDQ01+000000PRSWM2
0074827980999991995021322004-07100-034867FM-15+0007SBJP V0200601N00311220001CN0112651N1+02701+02301999999ADDAG10999GA1021+006009999MA1101191999999REMMET005NEW ;EQDQ01+000000PRSWM2
0074827980999991995021323004-07100-034867FM-15+0007SBJP V0200701N00261220001CN0112651N1+02701+02201999999ADDAG10999GA1021+006009999MA1101291999999REMMET005NEW ;EQDQ01+000000PRSWM2
0074827980999991995021401004-07100-034867FM-15+0007SBJP V0200601N00261220001CN0112651N1+02701+02301999999ADDAG10999GA1021+006009999MA1101391999999REMMET005NEW ;EQDQ01+000000PRSWM2
0074827980999991995021402004-07100-034867FM-15+0007SBJP V0200701N00261220001CN0112651N1+02701+02301999999ADDAG10999GA1021+006009999MA1101391999999REMMET005NEW ;EQDQ01+000000PRSWM2
0074827980999991995021407004-07100-034867FM-15+0007SBJP V0202101N00211220001CN0112651N1+02401+02301999999ADDAG10999GA1021+006009999MA1101191999999REMMET005NEW ;EQDQ01+000000PRSWM2
0090827980999991995021408004-07100-034867FM-15+0007SBJP V0202301N00151220001CN0112651N1+02401+02301999999ADDAG10999GA1021+006009999GA2021+030009999MA1101191999999REMMET005NEW ;EQDQ01+000000PRSWM2
0090827980999991995021409004-07100-034867FM-15+0007SBJP V0202401N00261030001CN0112651N1+02401+02301999999ADDAG10000GA1021+006009999GA2071+030009999MA1101291999999REMMET005NEW ;EQDQ01+000000PRSWM2
0090827980999991995021410004-07100-034867FM-15+0007SBJP V0209991C00001030001CN0112651N1+02601+02301999999ADDAG10999GA1021+006009999GA2071+030009999MA1101291999999REMMET005NEW ;EQDQ01+000000PRSWM2
0115827980999991995021412004-07100-034867FM-12+0007SBJP V0200501N00261007501CN0020001N1+02861+02331101531ADDAA106000091AG10000GF107991071071008001001001KA1240N+02531MA1999999101441MD1999999+0001REMSYN017 333 20253 58000;
0090827980999991995021413004-07100-034867FM-15+0007SBJP V0200401N00411006001CN0112651N1+03001+02301999999ADDAG10999GA1071+006009999GA2071+060009999MA1101391999999REMMET005NEW ;EQDQ01+000000PRSWM2
0074827980999991995021416004-07100-034867FM-15+0007SBJP V0200401N00411220001CN0112651N1+03101+02301999999ADDAG10999GA1021+006009999MA1101191999999REMMET005NEW ;EQDQ01+000000PRSWM2
0174827980999991995021418004-07100-034867SY-MT+0007SBJP V0200501N00311220001CN0020001N1+02901+02391101141ADDAA106000091AG10000GA1021+006009999GF199999001001999999001001MA1101021101051MD1999999+0131REMSYN011 333 58013;MET005NEW ;EQDQ01+000002SCOTCVQ02+000992SCOLCBQ03+000000PRSWM2
0074827980999991995021419004-07100-034867FM-15+0007SBJP V0200401N00411220001CN0112651N1+03001+02201999999ADDAG10999GA1021+006009999MA1101021999999REMMET005NEW ;EQDQ01+000000PRSWM2
0090827980999991995021420004-07100-034867FM-15+0007SBJP V0200301N00361090001CN0112651N1+02901+02301999999ADDAG10999GA1021+006009999GA2071+090009999MA1101021999999REMMET005NEW ;EQDQ01+000000PRSWM2
0090827980999991995021421004-07100-034867FM-15+0007SBJP V0200401N00621090001CN0112651N1+02801+02301999999ADDAG10000GA1021+006009999GA2071+090009999MA1101081999999REMMET005NEW ;EQDQ01+000000PRSWM2
0090827980999991995021423004-07100-034867FM-15+0007SBJP V0200101N00261090001CN0112651N1+02701+02301999999ADDAG10999GA1021+006009999GA2071+090009999MA1101291999999REMMET005NEW ;EQDQ01+000000PRSWM2
0090827980999991995021509004-07100-034867FM-15+0007SBJP V0202801N00211220001CN0112651N1+02401+02301999999ADDAG10000GA1021+006009999GA2021+060009999MA1101191999999REMMET005NEW ;EQDQ01+000000PRSWM2
0074827980999991995021510004-07100-034867FM-15+0007SBJP V0203101N00261220001CN0112651N1+02601+02301999999ADDAG10999GA1021+006009999MA1101191999999REMMET005NEW ;EQDQ01+000000PRSWM2
0074827980999991995021511004-07100-034867FM-15+0007SBJP V0203401N00261220001CN0112651N1+02701+02301999999ADDAG10999GA1021+006009999MA1101291999999REMMET005NEW ;EQDQ01+000000PRSWM2
0115827980999991995021512004-07100-034867FM-12+0007SBJP V0200501N003119999999N0200001N1+03001+02291101451ADDAA106000091AG10000GF105991051001008001001001KA1240N+02491MA1999999101361MD1999999-0121REMSYN017 333 20249 59012;
0090827980999991995021609004-07100-034867FM-15+0007SBJP V0200501N00211220001CN0112651N1+02501+02301999999ADDAG10000GA1021+006009999GA2021+030009999MA1101081999999REMMET005NEW ;EQDQ01+000000PRSWM2
0090827980999991995021610004-07100-034867FM-15+0007SBJP V0200301N00261030001CN0112651N1+02601+02301999999ADDAG10999GA1021+006009999GA2071+030009999MA1101081999999REMMET005NEW ;EQDQ01+000000PRSWM2
0209827980999991995021612004-07100-034867SY-MT+0007SBJP V0200501N00261030001CN0112651N1+03021+02391101381ADDAA106000091AG10000GA1021+006009999GA2071+030009999GF199999061081008001001001KA1240N+02571MA1101291101291MD1999999-0051REMSYN017 333 20257 59005;MET005NEW ;EQDQ01+000062SCOTCVQ02+040002VODIS Q03+000000PRSWM2
0090827980999991995021613004-07100-034867FM-15+0007SBJP V0200701N00311006001CN0112651N1+03001+02301999999ADDAG10999GA1071+006009999GA2021+030009999MA1101191999999REMMET005NEW ;EQDQ01+000000PRSWM2
0090827980999991995021615004-07100-034867FM-15+0007SBJP V0200801N00411006001CN0112651N1+03101+02301999999ADDAG10000GA1071+006009999GA2021+030009999MA1101081999999REMMET005NEW ;EQDQ01+000000PRSWM2
0090827980999991995021616004-07100-034867FM-15+0007SBJP V0200601N00411006001CN0112651N1+03001+02401999999ADDAG10999GA1071+006009999GA2021+030009999MA1101081999999REMMET005NEW ;EQDQ01+000000PRSWM2
0090827980999991995021617004-07100-034867FM-15+0007SBJP V0200401N00261006001CN0112651N1+03001+02301999999ADDAG10999GA1071+006009999GA2071+030009999MA1101021999999REMMET005NEW ;EQDQ01+000000PRSWM2
0074827980999991995021709004-07100-034867FM-15+0007SBJP V0209991C00001220001CN0112651N1+02501+02401999999ADDAG10000GA1021+006009999MA1101081999999REMMET005NEW ;EQDQ01+000000PRSWM2
0074827980999991995021711004-07100-034867FM-15+0007SBJP V0201001N00151006001CN0112651N1+02901+02401999999ADDAG10999GA1071+006009999MA1101191999999REMMET005NEW ;EQDQ01+000000PRSWM2
0143827980999991995021712004-07100-034867FM-12+0007SBJP V0200601N00261012001CN0020001N1+02961+02471101691ADDAA124002091AG10006AY161061AY201061GF106991061081008001001001KA1240N+02511MA1999999101351MD1999999-0061MW1001REMSYN023 333 20251 59006 60024;
0095827980999991995021713004-07100-034867FM-15+0007SBJP V0209999999999999999CN9999999N9+99999+99999999999ADDAG10999REMMET041NEW 1300Z ///// 9999 BKN020 31/24 Q1012 ;EQDQ01+000002VOVAR Q02+000000PRSWM2
0074827980999991995021716004-07100-034867FM-15+0007SBJP V0200701N00511006001CN0112651N1+03201+02801999999ADDAG10999GA1071+006009999MA1101021999999REMMET005NEW ;EQDQ01+000000PRSWM2
0096827980999991995021718004-07100-034867FM-12+0007SBJP V0200501N00261012001CN0020001N1+02981+02371101171ADDAA106000091AG10000GF105991051081008001001001MA1999999101081MD1999999-0081REMSYN011 333 59008;
0090827980999991995021809004-07100-034867FM-15+0007SBJP V0201201N00211006001CN0112651N1+02601+02401999999ADDAG10000GA1071+006009999GA2021+030009999MA1101081999999REMMET005NEW ;EQDQ01+000000PRSWM2
0067827980999991995021810004-07100-034867FM-16+0007SBJP V0201201N00211999999CN0080001N1+99999+99999999999ADDAG10999REMMET029NEW CSH SCT015 SCT020 BKN100;EQDQ01+000000PRSWM2
0093827980999991995021811004-07100-034867FM-15+0007SBJP V0201801N00261030001CN0080001N1+02601+02401999999ADDAG10999GA1021+004509999GA2021+006009999GA3071+030009999MA1101191999999MW1161REMMET005NEW ;
0115827980999991995021812004-07100-034867FM-12+0007SBJP V0201401N00311012001CN0040001N1+03021+02181101321ADDAA106000091AG10000GF105991051081008001001001KA1240N+02491MA1999999101231MD1999999-0121REMSYN017 333 20249 59012;
0090827980999991995021813004-07100-034867FM-15+0007SBJP V0200701N00511030001CN0112651N1+02901+02401999999ADDAG10999GA1021+006009999GA2071+030009999MA1101191999999REMMET005NEW ;EQDQ01+000000PRSWM2
0090827980999991995021815004-07100-034867FM-15+0007SBJP V0200701N00411006001CN0112651N1+03101+02301999999ADDAG10000GA1071+006009999GA2071+030009999MA1101081999999REMMET005NEW ;EQDQ01+000000PRSWM2
0090827980999991995021817004-07100-034867FM-15+0007SBJP V0200501N00511220001CN0112651N1+03201+02201999999ADDAG10999GA1021+006009999GA2021+060009999MA1100911999999REMMET005NEW ;EQDQ01+000000PRSWM2
0096827980999991995021818004-07100-034867FM-12+0007SBJP V0200901N00311220001CN0040001N1+02941+02401101071ADDAA106000091AG10000GF104991041081008001001001MA1999999100981MD1999999+0101REMSYN011 333 58010;
0115827980999991995021900004-07100-034867FM-12+0007SBJP V0200901N00311220001CN0040001N1+02781+02421101291ADDAA106000091AG10000GF104991041071008001001001KA1240M+03161MA1999999101201MD1999999+0021REMSYN017 333 10316 58002;
0074827980999991995021910004-07100-034867FM-15+0007SBJP V0201901N00261220001CN0112651N1+02401+02301999999ADDAG10999GA1021+006009999MA1101081999999REMMET005NEW ;EQDQ01+000000PRSWM2
0237827980999991995021912004-07100-034867SY-MT+0007SBJP V0200901N00311006001CN9999999N9+02961+02231101261ADDAA124000191AG10006AY161061AY221061GA1071+006009999GF199999051081008001001001KA1240N+02481MA1101081101171MD1999999-0061MW1001REMSYN023 333 20248 59006 69924;MET005NEW ;EQDQ01+000052SCOTCVQ02+040002VODIS Q03+000002VOVAR Q04+000000PRSWM2
0090827980999991995021914004-07100-034867FM-15+0007SBJP V0200801N00361006001CN0112651N1+02701+02201999999ADDAG10999GA1021+004509999GA2071+006009999MA1101081999999REMMET005NEW ;EQDQ01+000000PRSWM2
0096827980999991995021918004-07100-034867FM-12+0007SBJP V0200901N00311007501CN0040001N1+02941+02361101031ADDAA106000091AG10000GF106991061071008001001001MA1999999100941MD1999999-0041REMSYN011 333 59004;
0115827980999991995022000004-07100-034867FM-12+0007SBJP V0200901N00261220001CN0020001N1+02761+02421101231ADDAA106000091AG10000GF104991041081008001001001KA1240M+03121MA1999999101141MD1999999-0061REMSYN017 333 10312 59006;
0090827980999991995022010004-07100-034867FM-15+0007SBJP V0202001N00151220001CN0112651N1+02401+02201999999ADDAG10999GA1021+006009999GA2071+006009999MA1101081999999REMMET005NEW ;EQDQ01+000000PRSWM2
0090827980999991995022011004-07100-034867FM-15+0007SBJP V0201501N00261060001CN0112651N1+02701+02301999999ADDAG10999GA1021+006009999GA2071+060009999MA1101191999999REMMET005NEW ;EQDQ01+000000PRSWM2
0134827980999991995022012004-07100-034867FM-12+0007SBJP V0200901N002619999999N0020001N1+02921+02171101311ADDAA106000091AG10000GF105991999061008001001001KA1240N+02411MA1999999101221MD1999999+0051REMSYN017 333 20241 58005;EQDQ01+000042SCOTLC
0090827980999991995022013004-07100-034867FM-15+0007SBJP V0200701N00261060001CN0112651N1+02901+02101999999ADDAG10999GA1021+006009999GA2071+060009999MA1101191999999REMMET005NEW ;EQDQ01+000000PRSWM2
0074827980999991995022016004-07100-034867FM-15+0007SBJP V0201001N00411006001CN0112651N1+03101+02001999999ADDAG10999GA1071+006009999MA1101021999999REMMET005NEW ;EQDQ01+000000PRSWM2
0090827980999991995022017004-07100-034867FM-15+0007SBJP V0201101N00411220001CN0112651N1+03001+02101999999ADDAG10999GA1021+006009999GA2021+060009999MA1101021999999REMMET005NEW ;EQDQ01+000000PRSWM2
0096827980999991995022018004-07100-034867FM-12+0007SBJP V0200901N00261012001CN0040001N1+02941+02121101431ADDAA106000091AG10000GF105991051081008001001001MA1999999101341MD1999999+0401REMSYN011 333 58040;
0090827980999991995022021004-07100-034867FM-15+0007SBJP V0201001N00511060001CN0112651N1+02801+02201999999ADDAG10000GA1021+006009999GA2071+060009999MA1101021999999REMMET005NEW ;EQDQ01+000000PRSWM2
0074827980999991995022110004-07100-034867FM-15+0007SBJP V0202001N00151220001CN0112651N1+02501+02201999999ADDAG10999GA1021+006009999MA1101191999999REMMET005NEW ;EQDQ01+000000PRSWM2
0193827980999991995022112004-07100-034867SY-MT+0007SBJP V0200901N00311006001CN0112651N1+02991+02241101431ADDAA106000091AG10000GA1071+006009999GF199999041081008001001001KA1240N+03041MA1101291101341MD1999999+0121REMSYN017 333 20304 58012;MET005NEW ;EQDQ01+000052SCOTCVQ02+040002VODIS Q03+000000PRSWM2
0074827980999991995022113004-07100-034867FM-15+0007SBJP V0201201N00511006001CN0112651N1+03001+02201999999ADDAG10999GA1071+006009999MA1101291999999REMMET005NEW ;EQDQ01+000000PRSWM2
0074827980999991995022114004-07100-034867FM-15+0007SBJP V0201101N00511006001CN0112651N1+03101+02101999999ADDAG10999GA1071+006009999MA1101191999999REMMET005NEW ;EQDQ01+000000PRSWM2
0074827980999991995022116004-07100-034867FM-15+0007SBJP V0201001N00511006001CN0112651N1+03001+02201999999ADDAG10999GA1071+006009999MA1101081999999REMMET005NEW ;EQDQ01+000000PRSWM2
0074827980999991995022117004-07100-034867FM-15+0007SBJP V0201001N00411006001CN0112651N1+03001+02201999999ADDAG10999GA1071+006009999MA1101021999999REMMET005NEW ;EQDQ01+000000PRSWM2
0174827980999991995022118004-07100-034867SY-MT+0007SBJP V0200901N00261006001CN0112651N1+02981+02281101171ADDAA106000091AG10000GA1071+006009999GF199999041081008001001001MA1101021101081MD1999999-0141REMSYN011 333 59014;MET005NEW ;EQDQ01+000052SCOTCVQ02+040002VODIS Q03+000000PRSWM2
0074827980999991995022119004-07100-034867FM-15+0007SBJP V0201201N00261220001CN0112651N1+03001+02101999999ADDAG10999GA1021+006009999MA1100911999999REMMET005NEW ;EQDQ01+000000PRSWM2
0074827980999991995022122004-07100-034867FM-15+0007SBJP V0201101N00211220001CN0112651N1+02701+02201999999ADDAG10999GA1021+006009999MA1101081999999REMMET005NEW ;EQDQ01+000000PRSWM2
0074827980999991995022123004-07100-034867FM-15+0007SBJP V0201001N00261220001CN0112651N1+02701+02201999999ADDAG10999GA1021+006009999MA1101081999999REMMET005NEW ;EQDQ01+000000PRSWM2
0074827980999991995022209004-07100-034867FM-15+0007SBJP V0201901N00261220001CN0112651N1+02301+02201999999ADDAG10000GA1021+006009999MA1101081999999REMMET005NEW ;EQDQ01+000000PRSWM2
0090827980999991995022211004-07100-034867FM-15+0007SBJP V0201301N00261060001CN0112651N1+02801+02201999999ADDAG10999GA1021+006009999GA2071+060009999MA1101191999999REMMET005NEW ;EQDQ01+000000PRSWM2
0209827980999991995022212004-07100-034867SY-MT+0007SBJP V0201401N00261006001CN0112651N1+02981+02121101391ADDAA106000091AG10000GA1071+006009999GA2071+060009999GF199999061081008001001001KA1240N+02391MA1101191101301MD1999999-0041REMSYN017 333 20239 59004;MET005NEW ;EQDQ01+000062SCOTCVQ02+020002VODIS Q03+000000PRSWM2
0090827980999991995022213004-07100-034867FM-15+0007SBJP V0201001N00311006001CN0112651N1+03001+02001999999ADDAG10999GA1071+006009999GA2021+060009999MA1101191999999REMMET005NEW ;EQDQ01+000000PRSWM2
0074827980999991995022216004-07100-034867FM-15+0007SBJP V0201201N00261220001CN0112651N1+03101+02001999999ADDAG10999GA1021+006009999MA1101021999999REMMET005NEW ;EQDQ01+000000PRSWM2
0096827980999991995022218004-07100-034867FM-12+0007SBJP V0200901N00261012001CN0020001N1+02961+02131101261ADDAA106000091AG10000GF105991051081008001001001MA1999999101071MD1999999-0011REMSYN011 333 59001;
0074827980999991995022222004-07100-034867FM-15+0007SBJP V0201001N00261220001CN0112651N1+02701+02201999999ADDAG10999GA1021+006009999MA1101081999999REMMET005NEW ;EQDQ01+000000PRSWM2
0074827980999991995022223004-07100-034867FM-15+0007SBJP V0201101N00211220001CN0112651N1+02701+02201999999ADDAG10999GA1021+006009999MA1101191999999REMMET005NEW ;EQDQ01+000000PRSWM2
0115827980999991995022300004-07100-034867FM-12+0007SBJP V0200901N00261220001CN0040001N1+02821+02311101341ADDAA106000091AG10000GF104991041081008001001001KA1240M+03101MA1999999101251MD1999999+0011REMSYN017 333 10310 58001;
0074827980999991995022307004-07100-034867FM-15+0007SBJP V0202001N00211220001CN0112651N1+02301+02101999999ADDAG10999GA1021+006009999MA1101081999999REMMET005NEW ;EQDQ01+000000PRSWM2
0074827980999991995022309004-07100-034867FM-15+0007SBJP V0201801N00211220001CN0112651N1+02301+02201999999ADDAG10000GA1021+006009999MA1101081999999REMMET005NEW ;EQDQ01+000000PRSWM2
0074827980999991995022311004-07100-034867FM-15+0007SBJP V0201301N00261006001CN0112651N1+02901+02201999999ADDAG10999GA1071+006009999MA1101191999999REMMET005NEW ;EQDQ01+000000PRSWM2
0134827980999991995022312004-07100-034867FM-12+0007SBJP V0200901N03082012001CN0040001N1+02961+02281101401ADDAA106000091AG10000GF106991061081008001001001KA1240N+02371MA1999999101311MD1999999+0011REMSYN017 333 20237 58001;EQDQ01+003083WOSPD 
0074827980999991995022322004-07100-034867FM-15+0007SBJP V0201001N00411220001CN0112651N1+02701+02201999999ADDAG10999GA1021+006009999MA1101021999999REMMET005NEW ;EQDQ01+000000PRSWM2
0074827980999991995022410004-07100-034867FM-15+0007SBJP V0201901N00151220001CN0112651N1+02601+02301999999ADDAG10999GA1021+006009999MA1101191999999REMMET005NEW ;EQDQ01+000000PRSWM2
0074827980999991995022411004-07100-034867FM-15+0007SBJP V0201301N00211220001CN0112651N1+02801+02401999999ADDAG10999GA1021+006009999MA1101291999999REMMET005NEW ;EQDQ01+000000PRSWM2
0193827980999991995022412004-07100-034867SY-MT+0007SBJP V0200901N00311006001CN0112651N1+02981+02301101481ADDAA106000091AG10000GA1071+006009999GF199999061081008001001001KA1240N+02411MA1101291101391MD1999999+0081REMSYN017 333 20241 58008;MET005NEW ;EQDQ01+000062SCOTCVQ02+040002VODIS Q03+000000PRSWM2
0074827980999991995022413004-07100-034867FM-15+0007SBJP V0201001N00361006001CN0112651N1+03001+02201999999ADDAG10999GA1071+006009999MA1101291999999REMMET005NEW ;EQDQ01+000000PRSWM2
0074827980999991995022414004-07100-034867FM-15+0007SBJP V0201201N00411006001CN0112651N1+03101+02101999999ADDAG10999GA1071+006009999MA1101291999999REMMET005NEW ;EQDQ01+000000PRSWM2
0074827980999991995022417004-07100-034867FM-15+0007SBJP V0201201N00721220001CN0112651N1+03101+02101999999ADDAG10999GA1021+006009999MA1101021999999REMMET005NEW ;EQDQ01+000000PRSWM2
0096827980999991995022418004-07100-034867FM-12+0007SBJP V0200901N00311012001CN0040001N1+03021+02341101291ADDAA106000091AG10000GF105991051081008001001001MA1999999101201MD1999999+0131REMSYN011 333 58013;
0074827980999991995022422004-07100-034867FM-15+0007SBJP V0201101N00311220001CN0112651N1+02701+02301999999ADDAG10999GA1021+006009999MA1101081999999REMMET005NEW ;EQDQ01+000000PRSWM2
0074827980999991995022511004-07100-034867FM-15+0007SBJP V0201401N00211220001CN0112651N1+02901+02201999999ADDAG10999GA1021+006009999MA1101291999999REMMET005NEW ;EQDQ01+000000PRSWM2
0115827980999991995022512004-07100-034867FM-12+0007SBJP V0201401N00311007501CN0020001N1+02981+02231101481ADDAA106000091AG10000GF105991051021008001001001KA1240N+02501MA1999999101391MD1999999+0001REMSYN017 333 20250 58000;
0074827980999991995022513004-07100-034867FM-15+0007SBJP V0201001N00621220001CN0112651N1+03001+02101999999ADDAG10999GA1021+006009999MA1101391999999REMMET005NEW ;EQDQ01+000000PRSWM2
0074827980999991995022514004-07100-034867FM-15+0007SBJP V0200901N00511220001CN0112651N1+03101+02001999999ADDAG10999GA1021+006009999MA1101391999999REMMET005NEW ;EQDQ01+000000PRSWM2
0074827980999991995022515004-07100-034867FM-15+0007SBJP V0201001N00511220001CN0112651N1+03101+02001999999ADDAG10000GA1021+006009999MA1101291999999REMMET005NEW ;EQDQ01+000000PRSWM2
0074827980999991995022516004-07100-034867FM-15+0007SBJP V0209991C00001220001CN0112651N1+03201+02001999999ADDAG10999GA1021+006009999MA1101191999999REMMET005NEW ;EQDQ01+000000PRSWM2
0096827980999991995022518004-07100-034867FM-12+0007SBJP V0201401N00311220001CN0040001N1+03011+02211101241ADDAA106000091AG10000GF104991041081008001001001MA1999999101151MD1999999-0051REMSYN011 333 59005;
0074827980999991995022522004-07100-034867FM-15+0007SBJP V0201001N00311220001CN0112651N1+02701+02301999999ADDAG10999GA1021+006009999MA1101191999999REMMET005NEW ;EQDQ01+000000PRSWM2
0074827980999991995022523004-07100-034867FM-15+0007SBJP V0201001N00261220001CN0112651N1+02701+02301999999ADDAG10999GA1021+006009999MA1101291999999REMMET005NEW ;EQDQ01+000000PRSWM2
0074827980999991995022600004-07100-034867FM-15+0007SBJP V0201001N00261220001CN0112651N1+02701+02301999999ADDAG10000GA1021+006009999MA1101391999999REMMET005NEW ;EQDQ01+000000PRSWM2
0090827980999991995022609004-07100-034867FM-15+0007SBJP V0201001N00211060001CN0112651N1+02301+02201999999ADDAG10000GA1021+006009999GA2071+060009999MA1101191999999REMMET005NEW ;EQDQ01+000000PRSWM2
0074827980999991995022610004-07100-034867FM-15+0007SBJP V0201201N00151220001CN0112651N1+02501+02201999999ADDAG10999GA1021+006009999MA1101191999999REMMET005NEW ;EQDQ01+000000PRSWM2
0177827980999991995022612004-07100-034867SY-MT+0007SBJP V0200901N00311012001CN0112651N1+02961+02211101571ADDAA106000091AG10000GA1021+006009999GF105991051081008001001001KA1240N+02691MA1101491101481MD1999999+0041REMSYN017 333 20269 58004;MET005NEW ;EQDQ01+040002VODIS Q02+000000PRSWM2
0074827980999991995022613004-07100-034867FM-15+0007SBJP V0201001N00511006001CN0112651N1+02901+02201999999ADDAG10999GA1071+006009999MA1101491999999REMMET005NEW ;EQDQ01+000000PRSWM2
0074827980999991995022614004-07100-034867FM-15+0007SBJP V0200901N00411006001CN0112651N1+02901+02201999999ADDAG10999GA1071+006009999MA1101491999999REMMET005NEW ;EQDQ01+000000PRSWM2
0096827980999991995022618004-07100-034867FM-12+0007SBJP V0200901N00311220001CN0040001N1+02981+02241101321ADDAA106000091AG10000GF104991041081008001001001MA1999999101231MD1999999+0081REMSYN011 333 58008;
0225827980999991995022712004-07100-034867SY-MT+0007SBJP V0201401N00261006001CN9999999N9+02981+02231101501ADDAA106000091AG10000GA1071+006009999GA2021+030009999GF199999051021008001001001KA1240N+02451MA1101391101411MD1999999-0071REMSYN017 333 20245 59007;MET005NEW ;EQDQ01+000052SCOTCVQ02+040002VODIS Q03+000002VOVAR Q04+000000PRSWM2
0074827980999991995022713004-07100-034867FM-15+0007SBJP V0200701N00261006001CN0112651N1+03001+02001999999ADDAG10999GA1071+006009999MA1101391999999REMMET005NEW ;EQDQ01+000000PRSWM2
0096827980999991995022718004-07100-034867FM-12+0007SBJP V0201401N00261012001CN0040001N1+03021+02291101131ADDAA106000091AG10000GF105991051081008001001001MA1999999101041MD1999999-0191REMSYN011 333 59019;
0074827980999991995022810004-07100-034867FM-15+0007SBJP V0201801N00211220001CN0112651N1+02501+02201999999ADDAG10999GA1021+006009999MA1101191999999REMMET005NEW ;EQDQ01+000000PRSWM2
0209827980999991995022812004-07100-034867SY-MT+0007SBJP V0201401N00261220001CN9999999N9+03001+02241101381ADDAA106000091AG10000GA1071+006009999GF199999041081008001001001KA1240N+02471MA1101291101291MD1999999-0181REMSYN017 333 20247 59018;MET005NEW ;EQDQ01+000042SCOTCVQ02+040002VODIS Q03+000002VOVAR Q04+000000PRSWM2
0115827980999991995022813004-07100-034867FM-12+0007SBJP V0201401N00261220001CN0040001N1+02841+02351101311ADDAA106000091AG10999GF104991041021008001001001KA1240M+03181MA1999999101221MD1999999-0061REMSYN017 333 10318 59006;
0074827980999991995022814004-07100-034867FM-15+0007SBJP V0201201N00411006001CN0112651N1+03101+02201999999ADDAG10999GA1071+006009999MA1101291999999REMMET005NEW ;EQDQ01+000000PRSWM2
0074827980999991995022815004-07100-034867FM-15+0007SBJP V0201201N00511006001CN0112651N1+03101+02201999999ADDAG10000GA1071+006009999MA1101191999999REMMET005NEW ;EQDQ01+000000PRSWM2
0096827980999991995022818004-07100-034867FM-12+0007SBJP V0201401N00261012001CN0040001N1+03021+02291101101ADDAA106000091AG10000GF105991051081008001001001MA1999999101011MD1999999-0031REMSYN011 333 59003;
0131827980999991995030100004-07100-034867FM-12+0007SBJP V0200901N00261220001CN0020001N1+02781+02271101371ADDAA106000091AG10000GA1001+999999999GF100991001001999999001001KA1240M+03121MA1999999101281MD1999999+0061REMSYN017 333 10312 58006;
0209827980999991995030112004-07100-034867SY-MT+0007SBJP V0201401N00311006001CN9999999N9+02961+02231101461ADDAA106000091AG10000GA1071+006009999GF199999051081008001001001KA1240N+02721MA1101391101371MD1999999+0081REMSYN017 333 20272 58008;MET005NEW ;EQDQ01+000052SCOTCVQ02+040002VODIS Q03+000002VOVAR Q04+000000PRSWM2
0096827980999991995030118004-07100-034867FM-12+0007SBJP V0201401N00311220001CN0040001N1+02981+02211101141ADDAA106000091AG10000GF103991031081008001001001MA1999999101051MD1999999+0041REMSYN011 333 58004;
0074827980999991995030122004-07100-034867FM-15+0007SBJP V0200901N00311220001CN0112651N1+02801+02301999999ADDAG10999GA1021+006009999MA1101291999999REMMET005NEW ;EQDQ01+000000PRSWM2
0074827980999991995030123004-07100-034867FM-15+0007SBJP V0201001N00411220001CN0112651N1+02801+02301999999ADDAG10999GA1021+006009999MA1101291999999REMMET005NEW ;EQDQ01+000000PRSWM2
0161827980999991995030200004-07100-034867SY-MT+0007SBJP V0201401N00311220001CN0040001N1+02821+02361101451ADDAA106000091AG10000GA1021+006009999GF103991031021008001001001KA1240M+03141MA1101391101361MD1999999-0011REMSYN017 333 10314 59001;MET005NEW ;EQDQ01+000000PRSWM2
0074827980999991995030208004-07100-034867FM-15+0007SBJP V0201901N00261220001CN0112651N1+02401+02301999999ADDAG10999GA1021+006009999MA1101191999999REMMET005NEW ;EQDQ01+000000PRSWM2
0074827980999991995030211004-07100-034867FM-15+0007SBJP V0201201N00411220001CN0112651N1+02901+02101999999ADDAG10999GA1021+006009999MA1101391999999REMMET005NEW ;EQDQ01+000000PRSWM2
0209827980999991995030212004-07100-034867SY-MT+0007SBJP V0201401N00311006001CN9999999N9+02981+02331101561ADDAA106000091AG10000GA1071+006009999GF199999051081008001001001KA1240N+02391MA1101491101471MD1999999+0111REMSYN017 333 20239 58011;MET005NEW ;EQDQ01+000052SCOTCVQ02+040002VODIS Q03+000002VOVAR Q04+000000PRSWM2
0174827980999991995030218004-07100-034867SY-MT+0007SBJP V0201401N00311012001CN9999999N9+03021+02241101261ADDAA106000091AG10000GA1021+006009999GF105991051081008001001001MA1101191101171MD1999999+0121REMSYN011 333 58012;MET005NEW ;EQDQ01+040002VODIS Q02+000002VOVAR Q03+000000PRSWM2
0074827980999991995030309004-07100-034867FM-15+0007SBJP V0201701N00261220001CN0112651N1+02401+02301999999ADDAG10000GA1021+006009999MA1101191999999REMMET005NEW ;EQDQ01+000000PRSWM2
0074827980999991995030311004-07100-034867FM-15+0007SBJP V0201201N00511220001CN0112651N1+02801+02201999999ADDAG10999GA1021+006009999MA1101391999999REMMET005NEW ;EQDQ01+000000PRSWM2
0209827980999991995030312004-07100-034867SY-MT+0007SBJP V0201401N00571006001CN9999999N9+02941+02311101601ADDAA106000091AG10000GA1071+006009999GF199999051091008001001001KA1240N+02691MA1101391101511MD1999999+0041REMSYN017 333 20269 58004;MET005NEW ;EQDQ01+000052SCOTCVQ02+040002VODIS Q03+000002VOVAR Q04+000000PRSWM2
0074827980999991995030315004-07100-034867FM-15+0007SBJP V0201101N00411006001CN0112651N1+03101+02301999999ADDAG10000GA1071+006009999MA1101291999999REMMET005NEW ;EQDQ01+000000PRSWM2
0074827980999991995030316004-07100-034867FM-15+0007SBJP V0201001N00511006001CN0112651N1+03101+02301999999ADDAG10999GA1071+006009999MA1101291999999REMMET005NEW ;EQDQ01+000000PRSWM2
0074827980999991995030317004-07100-034867FM-15+0007SBJP V0201001N00411006001CN0112651N1+03101+02301999999ADDAG10999GA1071+006009999MA1101191999999REMMET005NEW ;EQDQ01+000000PRSWM2
0190827980999991995030318004-07100-034867SY-MT+0007SBJP V0201401N00311006001CN9999999N9+03041+02371101271ADDAA106000091AG10000GA1071+006009999GF199999051081008001001001MA1101191101181MD1999999+0011REMSYN011 333 58001;MET005NEW ;EQDQ01+000052SCOTCVQ02+040002VODIS Q03+000002VOVAR Q04+000000PRSWM2
0074827980999991995030321004-07100-034867FM-15+0007SBJP V0201201N00411220001CN0112651N1+02801+02301999999ADDAG10000GA1021+006009999MA1101291999999REMMET005NEW ;EQDQ01+000000PRSWM2
0074827980999991995030322004-07100-034867FM-15+0007SBJP V0201201N00311220001CN0112651N1+02801+02301999999ADDAG10999GA1021+006009999MA1101291999999REMMET005NEW ;EQDQ01+000000PRSWM2
0074827980999991995030323004-07100-034867FM-15+0007SBJP V0201201N00261220001CN0112651N1+02701+02401999999ADDAG10999GA1021+006009999MA1101391999999REMMET005NEW ;EQDQ01+000000PRSWM2
0074827980999991995030400004-07100-034867FM-15+0007SBJP V0201101N00311220001CN0112651N1+02601+02301999999ADDAG10000GA1021+006009999MA1101391999999REMMET005NEW ;EQDQ01+000000PRSWM2
0074827980999991995030401004-07100-034867FM-15+0007SBJP V0201301N00261220001CN0112651N1+02601+02301999999ADDAG10999GA1021+006009999MA1101491999999REMMET005NEW ;EQDQ01+000000PRSWM2
0074827980999991995030402004-07100-034867FM-15+0007SBJP V0201301N00261220001CN0112651N1+02601+02201999999ADDAG10999GA1021+006009999MA1101391999999REMMET005NEW ;EQDQ01+000000PRSWM2
0074827980999991995030403004-07100-034867FM-15+0007SBJP V0201201N00211220001CN0112651N1+02501+02201999999ADDAG10000GA1021+006009999MA1101391999999REMMET005NEW ;EQDQ01+000000PRSWM2
0074827980999991995030408004-07100-034867FM-15+0007SBJP V0201401N00151220001CN0112651N1+02401+02201999999ADDAG10999GA1021+006009999MA1101291999999REMMET005NEW ;EQDQ01+000000PRSWM2
0074827980999991995030411004-07100-034867FM-15+0007SBJP V0201001N00411006001CN0112651N1+02801+02101999999ADDAG10999GA1071+006009999MA1101491999999REMMET005NEW ;EQDQ01+000000PRSWM2
0225827980999991995030412004-07100-034867SY-MT+0007SBJP V0201401N00311220001CN9999999N9+02941+02241101601ADDAA106000091AG10000GA1021+006009999GA2071+030009999GF199999041021008001001001KA1240N+02711MA1101491101511MD1999999+0001REMSYN017 333 20271 58000;MET005NEW ;EQDQ01+000042SCOTCVQ02+040002VODIS Q03+000002VOVAR Q04+000000PRSWM2
0074827980999991995030417004-07100-034867FM-15+0007SBJP V0201001N00311006001CN0112651N1+03101+02001999999ADDAG10999GA1071+006009999MA1101191999999REMMET005NEW ;EQDQ01+000000PRSWM2
0206827980999991995030418004-07100-034867SY-MT+0007SBJP V0201401N00311220001CN9999999N9+03001+02241101251ADDAA106000091AG10000GA1071+006009999GA2071+060009999GF199999041021008001001001MA1101081101161MD1999999+0021REMSYN011 333 58002;MET005NEW ;EQDQ01+000042SCOTCVQ02+040002VODIS Q03+000002VOVAR Q04+000000PRSWM2
0178827980999991995030512004-07100-034867FM-12+0007SBJP V0201401N00311007501CN9999999N9+02961+02331101541ADDAA124000191AG10006AY161061AY221061GF105991051021008001001001KA1240N+02501MA1999999101451MD1999999+0061MW1001REMSYN023 333 20250 58006 69924;EQDQ01+040002VODIS Q02+000002VOVAR 
0074827980999991995030517004-07100-034867FM-15+0007SBJP V0201201N00511006001CN0112651N1+03101+02001999999ADDAG10999GA1071+006009999MA1101081999999REMMET005NEW ;EQDQ01+000000PRSWM2
0077827980999991995030610004-07100-034867FM-15+0007SBJP V0201601N00211006001CN0050001N1+02301+02201999999ADDAG10999GA1021+004509999GA2071+006009999MA1101191999999MW1631REMMET005NEW ;
0090827980999991995030611004-07100-034867FM-15+0007SBJP V0201501N00261030001CN0112651N1+02601+02301999999ADDAG10999GA1021+006009999GA2071+030009999MA1101191999999REMMET005NEW ;EQDQ01+000000PRSWM2
0237827980999991995030612004-07100-034867SY-MT+0007SBJP V0201801N00261012001CN9999999N9+02901+02221101241ADDAA124005091AG10006AY161061AY221061GA1021+006009999GA2021+030009999GF105991051081008001001001KA1240N+02331MA1101191101151MD1999999-0301MW1001REMSYN023 333 20233 59030 60054;MET005NEW ;EQDQ01+040002VODIS Q02+000002VOVAR Q03+000000PRSWM2
0159827980999991995030618004-07100-034867FM-12+0007SBJP V0201401N00311012001CN9999999N9+03021+02341101251ADDAA106003091AG10006AY161061AY221061GF105991051081008001001001MA1999999101161MD1999999+0041MW1001REMSYN017 333 58004 60031;EQDQ01+040002VODIS Q02+000002VOVAR 
0090827980999991995030623004-07100-034867FM-15+0007SBJP V0201501N00261030001CN0112651N1+02701+02401999999ADDAG10999GA1021+006009999GA2071+030009999MA1101191999999REMMET005NEW ;EQDQ01+000000PRSWM2
0074827980999991995030700004-07100-034867FM-15+0007SBJP V0201601N00261220001CN0112651N1+02601+02301999999ADDAG10000GA1021+006009999MA1101191999999REMMET005NEW ;EQDQ01+000000PRSWM2
0090827980999991995030710004-07100-034867FM-15+0007SBJP V0201701N00211220001CN0112651N1+02601+02401999999ADDAG10999GA1021+006009999GA2021+090009999MA1101191999999REMMET005NEW ;EQDQ01+000000PRSWM2
0090827980999991995030711004-07100-034867FM-15+0007SBJP V0201501N00361220001CN0112651N1+02801+02401999999ADDAG10999GA1021+006009999GA2021+090009999MA1101191999999REMMET005NEW ;EQDQ01+000000PRSWM2
0178827980999991995030712004-07100-034867FM-12+0007SBJP V0201401N004119999999N0112651N1+02961+02281101431ADDAA199034091AG10006AY161061AY221061GF106991999021008001001001KA1240N+02601MA1999999101341MD1999999+0191MW1001REMSYN023 333 20260 58019 6034/;EQDQ01+000072SCOTLCQ02+040002VODIS 
0074827980999991995030713004-07100-034867FM-15+0007SBJP V0201301N00511006001CN0112651N1+03001+02101999999ADDAG10999GA1071+006009999MA1101191999999REMMET005NEW ;EQDQ01+000000PRSWM2
0096827980999991995030718004-07100-034867FM-12+0007SBJP V0201401N00211012001CN0040001N1+02961+02261101141ADDAA106000091AG10000GF105991051081008001001001MA1999999101051MD1999999-0141REMSYN011 333 59014;
0090827980999991995030723004-07100-034867FM-15+0007SBJP V0201201N00261220001CN0112651N1+02601+02301999999ADDAG10999GA1021+006009999GA2021+030009999MA1101081999999REMMET005NEW ;EQDQ01+000000PRSWM2
0115827980999991995030800004-07100-034867FM-12+0007SBJP V0201401N00411007501CN0040001N1+02821+02221101311ADDAA106000091AG10000GF106991061091008001001001KA1240M+03141MA1999999101221MD1999999-0141REMSYN017 333 10314 59014;
0074827980999991995030809004-07100-034867FM-15+0007SBJP V0201901N00211220001CN0112651N1+02401+02301999999ADDAG10000GA1021+006009999MA1101081999999REMMET005NEW ;EQDQ01+000000PRSWM2
0074827980999991995030810004-07100-034867FM-15+0007SBJP V0201801N00151220001CN0112651N1+02501+02401999999ADDAG10999GA1021+006009999MA1101081999999REMMET005NEW ;EQDQ01+000000PRSWM2
0074827980999991995030811004-07100-034867FM-15+0007SBJP V0201601N00261006001CN0112651N1+02601+02301999999ADDAG10999GA1071+006009999MA1101191999999REMMET005NEW ;EQDQ01+000000PRSWM2
0237827980999991995030812004-07100-034867SY-MT+0007SBJP V0201401N00411006001CN9999999N9+02921+02291101391ADDAA124001091AG10006AY161061AY221061GA1071+006009999GF199999051021008001001001KA1240N+02461MA1101191101301MD1999999-0041MW1001REMSYN023 333 20246 59004 69984;MET005NEW ;EQDQ01+000052SCOTCVQ02+040002VODIS Q03+000002VOVAR Q04+000000PRSWM2
0090827980999991995030816004-07100-034867FM-15+0007SBJP V0201001N00511030001CN0112651N1+03101+02101999999ADDAG10999GA1021+006009999GA2071+030009999MA1101021999999REMMET005NEW ;EQDQ01+000000PRSWM2
0090827980999991995030818004-07100-034867FM-15+0007SBJP V0201001N00511220001CN0112651N1+03001+02101999999ADDAG10000GA1021+006009999GA2021+030009999MA1101021999999REMMET005NEW ;EQDQ01+000000PRSWM2
0074827980999991995030820004-07100-034867FM-15+0007SBJP V0201001N00511220001CN0112651N1+02801+02101999999ADDAG10999GA1021+045009999MA1101021999999REMMET005NEW ;EQDQ01+000000PRSWM2
0074827980999991995030822004-07100-034867FM-15+0007SBJP V0201201N00311220001CN0112651N1+02801+02101999999ADDAG10999GA1021+006009999MA1101081999999REMMET005NEW ;EQDQ01+000000PRSWM2
0115827980999991995030900004-07100-034867FM-12+0007SBJP V0201401N00311007501CN0040001N1+02741+02191101331ADDAA106000091AG10000GF106991061091008001001001KA1240M+03101MA1999999101241MD1999999+0021REMSYN017 333 10310 58002;
0090827980999991995030911004-07100-034867FM-15+0007SBJP V0201001N00261006001CN0112651N1+02801+02301999999ADDAG10999GA1071+006009999GA2021+030009999MA1101291999999REMMET005NEW ;EQDQ01+000000PRSWM2
0178827980999991995030912004-07100-034867FM-12+0007SBJP V0201401N00411007501CN9999999N9+03001+02221101401ADDAA124001091AG10006AY161061AY221061GF105991051021008001001001KA1240N+02371MA1999999101311MD1999999+0011MW1001REMSYN023 333 20237 58001 60014;EQDQ01+040002VODIS Q02+000002VOVAR 
0090827980999991995030916004-07100-034867FM-15+0007SBJP V0201001N00411090001CN0112651N1+03101+02001999999ADDAG10999GA1021+006009999GA2071+090009999MA1101191999999REMMET005NEW ;EQDQ01+000000PRSWM2
0074827980999991995030917004-07100-034867FM-15+0007SBJP V0201001N00411006001CN0112651N1+03101+02802999999ADDAG10999GA1071+006009999MA1101081999999REMMET005NEW ;EQDQ01+000000PRSWM2
0096827980999991995030918004-07100-034867FM-12+0007SBJP V0201401N00311220001CN0040001N1+03001+02171101211ADDAA106000091AG10000GF104991041021008001001001MA1999999101121MD1999999+0061REMSYN011 333 58006;
0074827980999991995030919004-07100-034867FM-15+0007SBJP V0200701N00311220001CN0112651N1+02901+02101999999ADDAG10999GA1021+006009999MA1101081999999REMMET005NEW ;EQDQ01+000000PRSWM2
0074827980999991995031001004-07100-034867FM-15+0007SBJP V0201001N00261220001CN0112651N1+02701+02301999999ADDAG10999GA1021+006009999MA1101391999999REMMET005NEW ;EQDQ01+000000PRSWM2
0074827980999991995031009004-07100-034867FM-15+0007SBJP V0202101N00211220001CN0112651N1+02301+02201999999ADDAG10000GA1021+006009999MA1101191999999REMMET005NEW ;EQDQ01+000000PRSWM2
0221827980999991995031012004-07100-034867SY-MT+0007SBJP V0201401N00311006001CN0112651N1+02981+02281101361ADDAA124001091AG10006AY161061AY221061GA1071+006009999GF199999061081008001001001KA1240N+02491MA1101491101271MD1999999-0041MW1001REMSYN023 333 20249 59004 69984;MET005NEW ;EQDQ01+000062SCOTCVQ02+040002VODIS Q03+000000PRSWM2
0074827980999991995031013004-07100-034867FM-15+0007SBJP V0201201N00511006001CN0112651N1+03101+02101999999ADDAG10999GA1071+006009999MA1101391999999REMMET005NEW ;EQDQ01+000000PRSWM2
0074827980999991995031014004-07100-034867FM-15+0007SBJP V0201101N00411006001CN0112651N1+03101+02101999999ADDAG10999GA1071+006009999MA1101391999999REMMET005NEW ;EQDQ01+000000PRSWM2
0074827980999991995031015004-07100-034867FM-15+0007SBJP V0201201N00511006001CN0112651N1+03101+02201999999ADDAG10000GA1071+006009999MA1101291999999REMMET005NEW ;EQDQ01+000000PRSWM2
0124827980999991995031018004-07100-034867FM-12+0007SBJP V0201401N00311007501CN0040001N1+02921+02341101191ADDAA199001091AG10006AY161061AY221061GF105991051021008001001001MA1999999101101MD1999999-0021MW1001REMSYN017 333 59002 60012;
0074827980999991995031022004-07100-034867FM-15+0007SBJP V0201001N00261220001CN0112651N1+02801+02301999999ADDAG10999GA1021+006009999MA1101291999999REMMET005NEW ;EQDQ01+000000PRSWM2
0074827980999991995031102004-07100-034867FM-15+0007SBJP V0201201N00261220001CN0112651N1+02601+02301999999ADDAG10999GA1021+006009999MA1101391999999REMMET005NEW ;EQDQ01+000000PRSWM2
0074827980999991995031108004-07100-034867FM-15+0007SBJP V0201601N00211220001CN0112651N1+02401+02301999999ADDAG10999GA1021+006009999MA1101191999999REMMET005NEW ;EQDQ01+000000PRSWM2
0098827980999991995031109004-07100-034867FM-15+0007SBJP V0209999999999999999CN9999999N9+99999+99999999999ADDAG10000REMMET044NEW 0900Z Z04KT 9999 SCT020 BKN200 24/23 Q10EQDQ01+000002VOVAR Q02+000000PRSWM2
0237827980999991995031112004-07100-034867SY-MT+0007SBJP V0201401N00311060001CN0112651N1+02961+02211101481ADDAA124002091AG10006AY161061AY221061GA1021+006009999GA2071+060009999GF199999061081008001001001KA1240N+02371MA1101391101391MD1999999+0121MW1001REMSYN023 333 20237 58012 60024;MET005NEW ;EQDQ01+000062SCOTCVQ02+040002VODIS Q03+000000PRSWM2
0090827980999991995031113004-07100-034867FM-15+0007SBJP V0201301N00311060001CN0112651N1+03101+02001999999ADDAG10999GA1021+006009999GA2071+060009999MA1101291999999REMMET005NEW ;EQDQ01+000000PRSWM2
0096827980999991995031118004-07100-034867FM-12+0007SBJP V0201401N00311012001CN0040001N1+03001+02271101331ADDAA106000091AG10000GF105991051081008001001001MA1999999101241MD1999999+0001REMSYN011 333 58000;
0090827980999991995031119004-07100-034867FM-15+0007SBJP V0201301N00511060001CN0112651N1+03001+02101999999ADDAG10999GA1021+006009999GA2071+060009999MA1101021999999REMMET005NEW ;EQDQ01+000000PRSWM2
0074827980999991995031123004-07100-034867FM-15+0007SBJP V0201301N00261220001CN0112651N1+02701+02201999999ADDAG10999GA1021+006009999MA1101191999999REMMET005NEW ;EQDQ01+000000PRSWM2
0074827980999991995031200004-07100-034867FM-15+0007SBJP V0201401N00261220001CN0112651N1+02601+02201999999ADDAG10000GA1021+006009999MA1101191999999REMMET005NEW ;EQDQ01+000000PRSWM2
0074827980999991995031201004-07100-034867FM-15+0007SBJP V0201301N00211220001CN0112651N1+02601+02301999999ADDAG10999GA1021+006009999MA1101191999999REMMET005NEW ;EQDQ01+000000PRSWM2
0074827980999991995031208004-07100-034867FM-15+0007SBJP V0201701N00211220001CN0112651N1+02401+02301999999ADDAG10999GA1021+006009999MA1101021999999REMMET005NEW ;EQDQ01+000000PRSWM2
0074827980999991995031209004-07100-034867FM-15+0007SBJP V0201901N00261220001CN0112651N1+02401+02301999999ADDAG10000GA1021+006009999MA1101081999999REMMET005NEW ;EQDQ01+000000PRSWM2
0074827980999991995031210004-07100-034867FM-15+0007SBJP V0201901N00261220001CN0112651N1+02501+02301999999ADDAG10999GA1021+006009999MA1101081999999REMMET005NEW ;EQDQ01+000000PRSWM2
0074827980999991995031211004-07100-034867FM-15+0007SBJP V0201701N00261220001CN0112651N1+02701+02401999999ADDAG10999GA1021+006009999MA1101191999999REMMET005NEW ;EQDQ01+000000PRSWM2
0162827980999991995031212004-07100-034867FM-12+0007SBJP V0201401N00411007501CN0112651N1+03001+02371101301ADDAA124000191AG10006AY161061AY221061GF105991051091008001001001KA1240N+02451MA1999999101211MD1999999-0181MW1001REMSYN023 333 20245 59018 69924;EQDQ01+040002VODIS 
0090827980999991995031213004-07100-034867FM-15+0007SBJP V0201001N00411006001CN0112651N1+02701+02401999999ADDAG10999GA1021+004509999GA2071+006009999MA1101191999999REMMET005NEW ;EQDQ01+000000PRSWM2
0090827980999991995031214004-07100-034867FM-15+0007SBJP V0200801N00361220001CN0112651N1+03001+02301999999ADDAG10999GA1021+006009999GA2021+030009999MA1101081999999REMMET005NEW ;EQDQ01+000000PRSWM2
0090827980999991995031217004-07100-034867FM-15+0007SBJP V0200901N00411006001CN0112651N1+03101+02201999999ADDAG10999GA1071+006009999GA2021+030009999MA1100911999999REMMET005NEW ;EQDQ01+000000PRSWM2
0096827980999991995031218004-07100-034867FM-12+0007SBJP V0201401N00311012001CN0040001N1+03001+02321101291ADDAA106000091AG10000GF105991051021012501001001MA1999999101201MD1999999-0041REMSYN011 333 59004;
0090827980999991995031310004-07100-034867FM-15+0007SBJP V0201601N00151060001CN0112651N1+02501+02301999999ADDAG10999GA1021+006009999GA2071+060009999MA1101021999999REMMET005NEW ;EQDQ01+000000PRSWM2
0090827980999991995031311004-07100-034867FM-15+0007SBJP V0201201N00151220001CN0112651N1+02701+02401999999ADDAG10999GA1021+006009999GA2021+060009999MA1101021999999REMMET005NEW ;EQDQ01+000000PRSWM2
0134827980999991995031312004-07100-034867FM-12+0007SBJP V0201401N00311007501CN0040001N1+99999+99999101241ADDAA106000091AG10000GF105991051091008001001001KA1240N+02691MA1999999101151MD1999999-0061REMSYN017 333 20269 59006;EQDQ01+028473ATOT  
0074827980999991995031313004-07100-034867FM-15+0007SBJP V0201001N00311006001CN0112651N1+02901+02201999999ADDAG10999GA1071+006009999MA1101081999999REMMET005NEW ;EQDQ01+000000PRSWM2
0074827980999991995031317004-07100-034867FM-15+0007SBJP V0200701N00411006001CN0112651N1+03001+02201999999ADDAG10999GA1071+006009999MA1100811999999REMMET005NEW ;EQDQ01+000000PRSWM2
0096827980999991995031318004-07100-034867FM-12+0007SBJP V0201401N00311007501CN0040001N1+02791+02361100901ADDAA106000091AG10000GF108991081091008001999999MA1999999100811MD1999999-0391REMSYN011 333 59039;
0115827980999991995031400004-07100-034867FM-12+0007SBJP V0201401N00311012001CN0040001N1+02701+02261101251ADDAA106000091AG10000GF106991061081008001001001KA1240M+03141MA1999999101161MD1999999+0011REMSYN017 333 10314 58001;
0074827980999991995031411004-07100-034867FM-15+0007SBJP V0201001N00311006001CN0112651N1+02801+02201999999ADDAG10999GA1071+006009999MA1101021999999REMMET005NEW ;EQDQ01+000000PRSWM2
0115827980999991995031412004-07100-034867FM-12+0007SBJP V0201401N00311012001CN0040001N1+02981+02151101281ADDAA106000091AG10000GF105991051081008001001001KA1240N+02391MA1999999101191MD1999999+0041REMSYN017 333 20239 58004;
0096827980999991995031418004-07100-034867FM-12+0007SBJP V0201401N00311012001CN0040001N1+03041+02241101071ADDAA106000091AG10000GF105991051081008001001001MA1999999100981MD1999999+0171REMSYN011 333 58017;
0074827980999991995031422004-07100-034867FM-15+0007SBJP V0201201N00361220001CN0112651N1+02801+02301999999ADDAG10999GA1021+006009999MA1100911999999REMMET005NEW ;EQDQ01+000000PRSWM2
0090827980999991995031500004-07100-034867FM-15+0007SBJP V0201001N00311220001CN0112651N1+02801+02301999999ADDAG10000GA1021+006009999GA2021+030009999MA1101081999999REMMET005NEW ;EQDQ01+000000PRSWM2
0074827980999991995031508004-07100-034867FM-15+0007SBJP V0202101N00261006001CN0112651N1+02501+02301999999ADDAG10999GA1071+006009999MA1100911999999REMMET005NEW ;EQDQ01+000000PRSWM2
0093827980999991995031510004-07100-034867FM-15+0007SBJP V0202001N00261030001CN0080001N1+02501+02401999999ADDAG10999GA1021+003009999GA2021+006009999GA3071+030009999MA1101021999999MW1161REMMET005NEW ;
0178827980999991995031512004-07100-034867FM-12+0007SBJP V0201401N00311007501CN9999999N9+02981+02351101371ADDAA124006091AG10006AY161061AY221061GF105991051021008001001001KA1240N+02451MA1999999101281MD1999999+0091MW1001REMSYN023 333 20245 58009 60064;EQDQ01+040002VODIS Q02+000002VOVAR 
0090827980999991995031516004-07100-034867FM-15+0007SBJP V0201301N00361030001CN0112651N1+03101+02301999999ADDAG10999GA1021+006009999GA2071+030009999MA1100911999999REMMET005NEW ;EQDQ01+000000PRSWM2
0096827980999991995031518004-07100-034867FM-12+0007SBJP V0201401N00311007501CN0060001N1+03061+02451101101ADDAA106000091AG10000GF105991051021008001001001MA1999999101011MD1999999-0031REMSYN011 333 59003;
0093827980999991995031521004-07100-034867FM-15+0007SBJP V0201501N00361005401CN0080001N1+02601+02501999999ADDAG10002GA1021+004509999GA2071+005409999GA3071+027009999MA1101021999999MW1161REMMET005NEW ;
0090827980999991995031523004-07100-034867FM-15+0007SBJP V0201301N00261027001CN0112651N1+02701+02501999999ADDAG10999GA1021+005409999GA2071+027009999MA1101081999999REMMET005NEW ;EQDQ01+000000PRSWM2
0177827980999991995031600004-07100-034867SY-MT+0007SBJP V0201401N00311220001CN0040001N1+02781+02161101301ADDAA106000091AG10000GA1071+005409999GA2071+027009999GF199999041021008001001001KA1240M+03161MA1101191101211MD1999999-0251REMSYN017 333 10316 59025;MET005NEW ;EQDQ01+000042SCOTCV
0090827980999991995031601004-07100-034867FM-15+0007SBJP V0201701N00261027001CN0112651N1+02501+02401999999ADDAG10999GA1021+005409999GA2071+027009999MA1101191999999REMMET005NEW ;EQDQ01+000000PRSWM2
0143827980999991995031612004-07100-034867FM-12+0007SBJP V0209991C00001007501CN0040001N1+02781+02401101401ADDAA124025091AG10006AY161061AY221061GF106991061091008001001001KA1240N+02431MA1999999101311MD1999999+0031MW1001REMSYN023 333 20243 58003 60254;
0090827980999991995031617004-07100-034867FM-15+0007SBJP V0201001N00311003001CN0112651N1+03101+02301999999ADDAG10999GA1071+003009999GA2021+060009999MA1101081999999REMMET005NEW ;EQDQ01+000000PRSWM2
0174827980999991995031618004-07100-034867SY-MT+0007SBJP V0201401N00311006001CN0040001N1+02901+02391101131ADDAA106000091AG10000GA1071+006009999GA2071+060009999GF108991999999008001999999MA1101021101041MD1999999+0031REMSYN011 333 58003;MET005NEW ;EQDQ01+000092SCOTLCQ02+000000PRSWM2
0090827980999991995031619004-07100-034867FM-15+0007SBJP V0201001N00311060001CN0112651N1+02901+02301999999ADDAG10999GA1021+006009999GA2071+060009999MA1101021999999REMMET005NEW ;EQDQ01+000000PRSWM2
0090827980999991995031620004-07100-034867FM-15+0007SBJP V0201201N00311060001CN0112651N1+02801+02301999999ADDAG10999GA1021+006009999GA2071+060009999MA1101021999999REMMET005NEW ;EQDQ01+000000PRSWM2
0090827980999991995031710004-07100-034867FM-15+0007SBJP V0202001N00151060001CN0112651N1+02601+02401999999ADDAG10999GA1021+006009999GA2071+060009999MA1101191999999REMMET005NEW ;EQDQ01+000000PRSWM2
0090827980999991995031711004-07100-034867FM-15+0007SBJP V0201501N00211220001CN0112651N1+02701+02501999999ADDAG10999GA1021+006009999GA2021+060009999MA1101191999999REMMET005NEW ;EQDQ01+000000PRSWM2
0115827980999991995031712004-07100-034867FM-12+0007SBJP V0201401N00311012001CN0040001N1+03001+02291101381ADDAA106000091AG10000GF105991051081008001001001KA1240N+02671MA1999999101201MD1999999-0021REMSYN017 333 20267 59002;
0090827980999991995031714004-07100-034867FM-15+0007SBJP V0200501N00361220001CN0112651N1+03001+02201999999ADDAG10999GA1021+006009999GA2021+075009999MA1101191999999REMMET005NEW ;EQDQ01+000000PRSWM2
0074827980999991995031715004-07100-034867FM-15+0007SBJP V0200601N00261006001CN0112651N1+03101+02201999999ADDAG10000GA1071+006009999MA1101081999999REMMET005NEW ;EQDQ01+000000PRSWM2
0090827980999991995031716004-07100-034867FM-15+0007SBJP V0200901N00311006001CN0112651N1+03101+02201999999ADDAG10999GA1071+006009999GA2021+075009999MA1101081999999REMMET005NEW ;EQDQ01+000000PRSWM2
0090827980999991995031717004-07100-034867FM-15+0007SBJP V0200901N00411006001CN0112651N1+03101+02201999999ADDAG10999GA1071+006009999GA2021+075009999MA1101021999999REMMET005NEW ;EQDQ01+000000PRSWM2
0174827980999991995031718004-07100-034867SY-MT+0007SBJP V0201401N00261220001CN0112651N1+03021+02291101151ADDAA106000091AG10000GA1021+006009999GA2021+075009999GF104991041081008001001001MA1101021101061MD1999999+0021REMSYN011 333 58002;MET005NEW ;EQDQ01+040002VODIS Q02+000000PRSWM2
0090827980999991995031719004-07100-034867FM-15+0007SBJP V0200901N00411220001CN0112651N1+03001+02201999999ADDAG10999GA1021+006009999GA2021+075009999MA1101021999999REMMET005NEW ;EQDQ01+000000PRSWM2
0074827980999991995031722004-07100-034867FM-15+0007SBJP V0201001N00211220001CN0112651N1+02701+02401999999ADDAG10999GA1021+006009999MA1101191999999REMMET005NEW ;EQDQ01+000000PRSWM2
0074827980999991995031800004-07100-034867FM-15+0007SBJP V0200901N00151220001CN0112651N1+02701+02401999999ADDAG10000GA1021+006009999MA1101291999999REMMET005NEW ;EQDQ01+000000PRSWM2
0074827980999991995031801004-07100-034867FM-15+0007SBJP V0200701N00211220001CN0112651N1+02601+02401999999ADDAG10999GA1021+006009999MA1101291999999REMMET005NEW ;EQDQ01+000000PRSWM2
0074827980999991995031811004-07100-034867FM-15+0007SBJP V0200901N00211220001CN0112651N1+02801+02301999999ADDAG10999GA1021+006009999MA1101191999999REMMET005NEW ;EQDQ01+000000PRSWM2
0115827980999991995031812004-07100-034867FM-12+0007SBJP V0200901N00261012001CN0040001N1+02991+02371101451ADDAA106000091AG10000GF105991051081008001001001KA1240N+02751MA1999999101361MD1999999+0071REMSYN017 333 20275 58007;
0074827980999991995031813004-07100-034867FM-15+0007SBJP V0200901N00261006001CN0112651N1+03001+02301999999ADDAG10999GA1071+006009999MA1101391999999REMMET005NEW ;EQDQ01+000000PRSWM2
0074827980999991995031816004-07100-034867FM-15+0007SBJP V0200501N00411006001CN0112651N1+03101+02401999999ADDAG10999GA1071+006009999MA1101081999999REMMET005NEW ;EQDQ01+000000PRSWM2
0096827980999991995031818004-07100-034867FM-12+0007SBJP V0200901N00311012001CN0040001N1+03001+02321101191ADDAA106000091AG10000GF105991051081008001001001MA1999999101101MD1999999+0041REMSYN011 333 58004;
0074827980999991995031916004-07100-034867FM-15+0007SBJP V0201001N00511006001CN0112651N1+03101+02201999999ADDAG10999GA1071+006009999MA1101081999999REMMET005NEW ;EQDQ01+000000PRSWM2
0096827980999991995031918004-07100-034867FM-12+0007SBJP V0200901N00261007501CN0040001N1+03021+02341101211ADDAA106000091AG10000GF105991051021008001001001MA1999999101121MD1999999+0021REMSYN011 333 58002;
0074827980999991995031923004-07100-034867FM-15+0007SBJP V0201301N00311220001CN0112651N1+02701+02301999999ADDAG10999GA1021+006009999MA1101291999999REMMET005NEW ;EQDQ01+000000PRSWM2
0074827980999991995032007004-07100-034867FM-15+0007SBJP V0202001N00211006001CN0112651N1+02401+02301999999ADDAG10999GA1071+006009999MA1101191999999REMMET005NEW ;EQDQ01+000000PRSWM2
0087827980999991995032008004-07100-034867FM-16+0007SBJP V0202001N00211006001CN0112651N1+99999+99999999999ADDAG10999GA1071+006009999MA1101191999999REMMET018NEW 244/23 Q1012 ;EQDQ01+000000PRSWM2
0237827980999991995032012004-07100-034867SY-MT+0007SBJP V0201301N00311030001CN9999999N9+02961+02281101541ADDAA124000191AG10006AY161061AY221061GA1021+006009999GA2071+030009999GF107991071091008001001001KA1240N+02501MA1101391101451MD1999999+0071MW1001REMSYN023 333 20250 58007 69924;MET005NEW ;EQDQ01+040002VODIS Q02+000002VOVAR Q03+000000PRSWM2
0074827980999991995032016004-07100-034867FM-15+0007SBJP V0201101N00621006001CN0112651N1+03101+02201999999ADDAG10999GA1071+006009999MA1101191999999REMMET005NEW ;EQDQ01+000000PRSWM2
0074827980999991995032017004-07100-034867FM-15+0007SBJP V0201101N00511006001CN0112651N1+03101+02201999999ADDAG10999GA1071+006009999MA1101191999999REMMET005NEW ;EQDQ01+000000PRSWM2
0112827980999991995032018004-07100-034867FM-12+0007SBJP V0209999999999220001CN0040001N1+03011+02341101361ADDAA106000091AG10000GA1001+999999999GF100991001001999999001001MA1999999101271MD1999999-0011REMSYN011 333 59001;
0090827980999991995032019004-07100-034867FM-15+0007SBJP V0201201N00511006001CN0112651N1+03001+02201999999ADDAG10999GA1071+006009999GA2021+060009999MA1101081999999REMMET005NEW ;EQDQ01+000000PRSWM2
0090827980999991995032020004-07100-034867FM-15+0007SBJP V0201001N00361060001CN0112651N1+02901+02201999999ADDAG10999GA1021+006009999GA2071+060009999MA1101191999999REMMET005NEW ;EQDQ01+000000PRSWM2
0090827980999991995032109004-07100-034867FM-15+0007SBJP V0202201N00261060001CN0112651N1+02401+02301999999ADDAG10000GA1021+006009999GA2071+060009999MA1101191999999REMMET005NEW ;EQDQ01+000000PRSWM2
0074827980999991995032111004-07100-034867FM-15+0007SBJP V0202001N00211220001CN0112651N1+02701+02401999999ADDAG10999GA1021+006009999MA1101291999999REMMET005NEW ;EQDQ01+000000PRSWM2
0189827980999991995032112004-07100-034867SY-MT+0007SBJP V0201001N00261006001CN0040001N1+02861+02351101381ADDAA124000191AG10006AY161061AY221061GA1071+006009999GF107991071091008001001001KA1240N+02481MA1101291101291MD1999999-0141MW1001REMSYN023 333 20248 59014 69924;MET005NEW ;EQDQ01+000000PRSWM2
0074827980999991995032113004-07100-034867FM-15+0007SBJP V0201501N00211006001CN0112651N1+03001+02201999999ADDAG10999GA1071+006009999MA1101291999999REMMET005NEW ;EQDQ01+000000PRSWM2
