0143829000999991995010112004-08050-034917FM-12+000799999V0201401N00361007501CN0100001N1+02781+02301101401ADDAA124001091AG10001AY151061AY221061GF107991051051008001031001KA1240N+02351MA1999999101311MD1999999+0021MW1031REMSYN023 333 20235 58002 60014;
0096829000999991995010118004-08050-034917FM-12+000799999V0201401N00361007501CN0100001N1+02811+02251101101ADDAA106000091AG10000GF107991071021008001001001MA1999999101091MD1999999+0041REMSYN011 333 58004;
0143829000999991995010212004-08050-034917FM-12+000799999V0200901N00211007501CN0100001N1+02711+02371101381ADDAA124002091AG10001AY151061AY221061GF107991051021008001031001KA1240N+02171MA1999999101231MD1999999-0081MW1611REMSYN023 333 20217 59008 60024;
0096829000999991995010218004-08050-034917FM-12+000799999V0201401N00311012001CN0100001N1+02841+02291101101ADDAA106000091AG10000GF107991061081008001031001MA1999999101011MD1999999-0081REMSYN011 333 59008;
0143829000999991995010300004-08050-034917FM-12+000799999V0200901N00261007501CN0020001N1+02571+02351101271ADDAA106000191AG10001AY151061AY221061GF106991061071008001001001KA1240M+02961MA1999999101181MD1999999-0051MW1031REMSYN023 333 10296 59005 69911;
0121829000999991995010312004-08050-034917FM-12+000799999V0200901N00311007501CN0100001N1+02821+02291101371ADDAA124007091AG10006GF106991051021008001011001KA1240N+02241MA1999999101381MD1999999+0051REMSYN023 333 20224 58005 60074;
0096829000999991995010318004-08050-034917FM-12+000799999V0200901N00461007501CN0100001N1+02921+02291101171ADDAA106000091AG10000GF106991051021008001031001MA1999999101081MD1999999+0071REMSYN011 333 58007;
0121829000999991995010412004-08050-034917FM-12+000799999V0200901N00261012001CN0100001N1+02711+02351101331ADDAA106000091AG10000GF107991051081008001031001KA1240N+02251MA1999999101241MD1999999-0041MW1161REMSYN017 333 20225 59004;
0143829000999991995010512004-08050-034917FM-12+000799999V0209991C00001007501CN0100001N1+02671+02391101421ADDAA124005091AG10019AY191061AY261061GF108991081041008001999999KA1240N+02351MA1999999101331MD1999999+0091MW1031REMSYN023 333 20235 58009 60054;
0096829000999991995010518004-08050-034917FM-12+000799999V0201401N00311007501CN0100001N1+02741+02471101191ADDAA106000091AG10000GF108991081041008001999999MA1999999101101MD1999999-0101REMSYN011 333 59010;
0115829000999991995010600004-08050-034917FM-12+000799999V0201401N00211220001CN0020001N1+02651+02181101421ADDAA106000091AG10000GF103991031041008001001001KA1240M+02921MA1999999101331MD1999999+0151REMSYN017 333 10292 58015;
0106829000999991995010612004-08050-034917FM-12+000799999V0200501N00101007501CN0100001N1+02671+02311101531ADDAG10006AY161061AY221061GF107991071041008001001001KA1999N+02211MA1999999101441MW1031REMSYN011 333 20221;
0124829000999991995010618004-08050-034917FM-12+000799999V0201401N00361007501CN0100001N1+02881+02101101241ADDAA106000391AG10006AY161061AY261061GF107991071041008001001001MA1999999101151MD1999999+0051MW1021REMSYN017 333 58005 69931;
0143829000999991995010712004-08050-034917FM-12+000799999V0202301N00151007501CN0100001N1+02631+02331101431ADDAA124012091AG10006AY161061AY261061GF107991071031008001001001KA1240N+02241MA1999999101341MD1999999-0101MW1031REMSYN023 333 20224 59010 60124;
0134829000999991995010800004-08050-034917FM-12+000799999V0201401N00211220001CN0020001N1+02581+02191101281ADDAA106000091AG10000GF103991999021008001001001KA1240M+02921MA1999999101191MD1999999-0151REMSYN017 333 10292 59015;EQDQ01+000042SCOTLC
0115829000999991995010812004-08050-034917FM-12+000799999V0201401N00151007501CN0100001N1+02751+02281101351ADDAA106000091AG10000GF106991061031008001001001KA1240N+02141MA1999999101261MD1999999-0081REMSYN017 333 20214 59008;
0096829000999991995010818004-08050-034917FM-12+000799999V0201401N00461007501CN0100001N1+02771+02231101071ADDAA106000091AG10000GF107991071021008001001001MA1999999100981MD1999999-0041REMSYN011 333 59004;
0115829000999991995010912004-08050-034917FM-12+000799999V0201401N00311007501CN0100001N1+02861+02111101421ADDAA106000091AG10000GF106991051021008001031001KA1240N+02061MA1999999101331MD1999999+0071REMSYN017 333 20206 58007;
0096829000999991995010918004-08050-034917FM-12+000799999V0201401N00361007501CN0100001N1+02821+02221101201ADDAA106000091AG10000GF106991061021008001001001MA1999999101111MD1999999+0131REMSYN011 333 58013;
0115829000999991995011012004-08050-034917FM-12+000799999V0201401N00361007501CN0100001N1+02801+02311101461ADDAA106000091AG10000GF106991051041008001021001KA1240N+02101MA1999999101371MD1999999+0041REMSYN017 333 20210 58004;
0096829000999991995011018004-08050-034917FM-12+000799999V0201401N00361007501CN0100001N1+02901+02201101221ADDAA106000091AG10000GF106991051041008001031001MA1999999101131MD1999999+0021REMSYN011 333 58002;
0115829000999991995011112004-08050-034917FM-12+000799999V0201401N00361007501CN0100001N1+02821+02121101471ADDAA106000091AG10000GF106991061031008001001001KA1240N+02001MA1999999101381MD1999999+0011REMSYN017 333 20200 58001;
0096829000999991995011118004-08050-034917FM-12+000799999V0201401N00461045001CN0100001N1+02831+02381101171ADDAA106000091AG10000GF106991041081008001031001MA1999999101081MD1999999-0051REMSYN011 333 59005;
0096829000999991995011218004-08050-034917FM-12+000799999V0201401N00411007501CN0100001N1+02881+02181101201ADDAA106000091AG10000GF106991061021008001001001MA1999999101111MD1999999+0031REMSYN011 333 58003;
0115829000999991995011300004-08050-034917FM-12+000799999V0201401N00311007501CN0020001N1+02671+02311101401ADDAA106000091AG10000GF106991061021008001001001KA1240M+03031MA1999999101311MD1999999+0021REMSYN017 333 10303 58002;
0115829000999991995011312004-08050-034917FM-12+000799999V0201401N00571007501CN0100001N1+02831+02271101471ADDAA106000091AG10000GF105991051021008001001001KA1240N+02491MA1999999101381MD1999999+0011REMSYN017 333 20249 58001;
0096829000999991995011318004-08050-034917FM-12+000799999V0201401N00461007501CN0100001N1+02851+02141101221ADDAA106000091AG10000GF106991061021008001001001MA1999999101131MD1999999+0021REMSYN011 333 58002;
0115829000999991995011412004-08050-034917FM-12+000799999V0201801N00361007501CN0100001N1+02831+02191101411ADDAA106000091AG10000GF106991061021008001001001KA1240N+02371MA1999999101321MD1999999-0061REMSYN017 333 20237 59006;
0096829000999991995011418004-08050-034917FM-12+000799999V0201401N00461007501CN0100001N1+02951+02161101101ADDAA106000091AG10000GF106991061021008001001001MA1999999101081MD1999999-0051REMSYN011 333 59005;
0143829000999991995011512004-08050-034917FM-12+000799999V0200901N00311007501CN0100001N1+02641+02371101551ADDAA124000591AG10006AY161061AY221061GF108991081051008001999999KA1240N+02031MA1999999101461MD1999999-0141MW1031REMSYN023 333 20203 59014 69954;
0096829000999991995011518004-08050-034917FM-12+000799999V0201801N00211220001CN0100001N1+02921+02061101261ADDAA106000091AG10000GF102991021021008001001001MA1999999101171MD1999999+0091REMSYN011 333 58009;
0115829000999991995011612004-08050-034917FM-12+000799999V0201401N00311007501CN0100001N1+02861+02191101491ADDAA106000091AG10000GF105991051021008001001001KA1240N+02491MA1999999101401MD1999999-0061REMSYN017 333 20249 59006;
0096829000999991995011618004-08050-034917FM-12+000799999V0201801N00411220001CN0100001N1+02961+02261101211ADDAA106000091AG10000GF103991031021008001001001MA1999999101121MD1999999-0051REMSYN011 333 59005;
0096829000999991995011718004-08050-034917FM-12+000799999V0201401N00511007501CN0100001N1+02961+02261101231ADDAA106000091AG10000GF106991061021008001001001MA1999999101141MD1999999+0021REMSYN011 333 58002;
0115829000999991995011812004-08050-034917FM-12+000799999V0200901N00211220001CN0100001N1+02891+02101101441ADDAA106000091AG10000GF104991041021008001001001KA1240N+02111MA1999999101341MD1999999-0031REMSYN017 333 20211 59003;
0115829000999991995011900004-08050-034917FM-12+000799999V0200901N00261220001CN0020001N1+02631+02071101381ADDAA106000091AG10000GF102991021021008001001001KA1240M+03011MA1999999101291MD1999999+0001REMSYN017 333 10301 58000;
0096829000999991995011918004-08050-034917FM-12+000799999V0201401N00411007501CN0100001N1+02931+02091101291ADDAA106000091AG10000GF105991051021008001001001MA1999999101201MD1999999+0091REMSYN011 333 58009;
0115829000999991995012112004-08050-034917FM-12+000799999V0201401N00311007501CN0100001N1+02901+02221101471ADDAA106000091AG10000GF107991051021008001031001KA1240N+02161MA1999999101381MD1999999-0111REMSYN017 333 20216 59011;
0096829000999991995012118004-08050-034917FM-12+000799999V0201401N00361007501CN0100001N1+02941+02311101231ADDAA106000091AG10000GF105991051021008001001001MA1999999101141MD1999999-0081REMSYN011 333 59008;
0115829000999991995012212004-08050-034917FM-12+000799999V0200901N00151045001CN0100001N1+02961+02211101201ADDAA106000091AG10000GF105991041021008001031001KA1240N+02191MA1999999101111MD1999999-0271REMSYN017 333 20219 59027;
0096829000999991995012218004-08050-034917FM-12+000799999V0200901N00511220001CN0100001N1+03041+02331100941ADDAA106000091AG10000GF104991041021008001001001MA1999999100851MD1999999-0291REMSYN011 333 59029;
0115829000999991995012312004-08050-034917FM-12+000799999V0200501N00211007501CN0100001N1+02911+02341101371ADDAA106000091AG10000GF106991061021008001001001KA1240N+02791MA1999999101231MD1999999+0121REMSYN017 333 20279 58012;
0096829000999991995012318004-08050-034917FM-12+000799999V0200501N00461007501CN0100001N1+03021+02241101021ADDAA106000091AG10000GF105991051021008001001001MA1999999100931MD1999999+0081REMSYN011 333 58008;
0115829000999991995012412004-08050-034917FM-12+000799999V0200501N00261007501CN0100001N1+02901+02221101351ADDAA106000091AG10000GF106991061021008001001001KA1240N+02121MA1999999101261MD1999999-0031REMSYN017 333 20212 59003;
0115829000999991995012512004-08050-034917FM-12+000799999V0200901N00311220001CN0100001N1+02821+02151101451ADDAA106000091AG10000GF104991031021008001021001KA1240N+02061MA1999999101361MD1999999+0101REMSYN017 333 20206 58010;
0115829000999991995012600004-08050-034917FM-12+000799999V0201401N00211220001CN0020001N1+02671+02261101391ADDAA106000091AG10000GF104991041021008001001001KA1240M+03151MA1999999101301MD1999999+0021REMSYN017 333 10315 58002;
0115829000999991995012612004-08050-034917FM-12+000799999V0201401N00211007501CN0100001N1+02911+02221101391ADDAA106000091AG10000GF106991061021008001001001KA1240N+02161MA1999999101301MD1999999-0061REMSYN017 333 20216 59006;
0096829000999991995012618004-08050-034917FM-12+000799999V0201401N00361007501CN0100001N1+03011+02371101171ADDAA106000091AG10000GF106991061021008001001001MA1999999101081MD1999999+0061REMSYN011 333 58006;
0115829000999991995012712004-08050-034917FM-12+000799999V0201401N00511007501CN0100001N1+02851+02121101381ADDAA106000091AG10000GF106991061021008001001001KA1240N+02311MA1999999101291MD1999999-0011REMSYN017 333 20231 59001;
0096829000999991995012718004-08050-034917FM-12+000799999V0201401N00511220001CN0100001N1+02911+02071101091ADDAA106000091AG10000GF104991031021008001031001MA1999999101001MD1999999-0081REMSYN011 333 59008;
0115829000999991995012800004-08050-034917FM-12+000799999V0201401N00311220001CN0020001N1+02681+02181101341ADDAA106000091AG10000GF103991031021008001001001KA1240M+03051MA1999999101251MD1999999-0051REMSYN017 333 10305 59005;
0096829000999991995012818004-08050-034917FM-12+000799999V0201401N00461220001CN0100001N1+02961+02071101071ADDAA106000091AG10000GF102991011021008001031001MA1999999100981MD1999999-0021REMSYN011 333 59002;
0115829000999991995012912004-08050-034917FM-12+000799999V0200901N00211007501CN0100001N1+02851+02371101401ADDAA106000091AG10000GF106991061041008001001001KA1240N+02771MA1999999101311MD1999999+0121REMSYN017 333 20277 58012;
0096829000999991995012918004-08050-034917FM-12+000799999V0201401N00361045001CN0100001N1+03021+02311101081ADDAA106000091AG10000GF105991041021008001031001MA1999999100991MD1999999+0011REMSYN011 333 58001;
0150829000999991995013012004-08050-034917FM-12+000799999V0201901N05452220001CN0100001N1+02941+02381101301ADDAA106000091AG10000GA1001+999999999GF100991001001999999001001KA1240N+02581MA1999999101211MD1999999-0101REMSYN017 333 20258 59010;EQDQ01+005453WOSPD 
0096829000999991995013018004-08050-034917FM-12+000799999V0200901N00211007501CN0100001N1+03011+02341101061ADDAA106000091AG10000GF106991061021008001001001MA1999999100971MD1999999-0021REMSYN011 333 59002;
0134829000999991995013112004-08050-034917FM-12+000799999V0201401N003119999999N9999999N9+02871+02141101271ADDAA106000091AG10000GF106991051041999999021001KA1240N+02521MA1999999101181MD1999999-0031REMSYN017 333 20252 59003;EQDQ01+000002VOVAR 
0096829000999991995013118004-08050-034917FM-12+000799999V0200901N00411220001CN0100001N1+03021+02131101031ADDAA106000091AG10000GF103991031021008001001001MA1999999100941MD1999999-0031REMSYN011 333 59003;
0115829000999991995020112004-08050-034917FM-12+000799999V0201401N00211012001CN0100001N1+02851+02221101351ADDAA106000091AG10000GF107991071081008001001001KA1240N+02101MA1999999101261MD1999999+0081REMSYN017 333 20210 58008;
0096829000999991995020118004-08050-034917FM-12+000799999V0201401N00311007501CN0100001N1+03041+02261101101ADDAA106000091AG10000GF106991061021008001001001MA1999999101011MD1999999+0071REMSYN011 333 58007;
0096829000999991995020218004-08050-034917FM-12+000799999V0201401N00311007501CN0100001N1+03061+02221101091ADDAA106000091AG10000GF105991051021008001001001MA1999999101001MD1999999-0011REMSYN011 333 59001;
0115829000999991995020300004-08050-034917FM-12+000799999V0201401N00211220001CN0020001N1+02731+02321101261ADDAA106000091AG10000GF102991021021008001001001KA1240M+03121MA1999999101171MD1999999-0051REMSYN017 333 10312 59005;
0143829000999991995020312004-08050-034917FM-12+000799999V0201801N00571007501CN0100001N1+02821+02311101291ADDAA124005091AG10006AY161061AY221061GF106991061021008001001001KA1240N+02441MA1999999101201MD1999999-0111MW1021REMSYN023 333 20244 59011 60054;
0096829000999991995020318004-08050-034917FM-12+000799999V0201801N00511007501CN0100001N1+02881+02181101091ADDAA106000091AG10000GF107991051041008001031001MA1999999101001MD1999999+0001REMSYN011 333 58000;
0115829000999991995020412004-08050-034917FM-12+000799999V0201401N00211007501CN0100001N1+02891+02231101351ADDAA106000091AG10000GF107991061041008001021001KA1240N+02061MA1999999101261MD1999999+0061REMSYN017 333 20206 58006;
0096829000999991995020418004-08050-034917FM-12+000799999V0201401N00461045001CN0100001N1+02991+02231101111ADDAA106000091AG10000GF106991041041008001031001MA1999999101021MD1999999+0021REMSYN011 333 58002;
0143829000999991995020512004-08050-034917FM-12+000799999V0200901N00151007501CN0100001N1+02691+02431101481ADDAA124005091AG10006AY161061AY261061GF106991061061008001031001KA1240N+02241MA1999999101391MD1999999+0131MW1021REMSYN023 333 20224 58013 60054;
0096829000999991995020518004-08050-034917FM-12+000799999V0201401N00311007501CN0100001N1+02831+02241101241ADDAA106000091AG10000GF107991071071008001001001MA1999999101151MD1999999+0131REMSYN011 333 58013;
0115829000999991995020600004-08050-034917FM-12+000799999V0201801N00151007501CN0020001N1+02671+02391101521ADDAA106000091AG10000GF106991061021008001001001KA1240M+02961MA1999999101431MD1999999+0131REMSYN017 333 10296 58013;
0096829000999991995020618004-08050-034917FM-12+000799999V0200901N00461007501CN0100001N1+02851+02351101301ADDAA106000091AG10000GF108991061051008001031001MA1999999101211MD1999999+0061REMSYN011 333 58006;
0143829000999991995020700004-08050-034917FM-12+000799999V0200901N00211007501CN0020001N1+02691+02391101481ADDAA106000191AG10001AY151061AY211061GF106991061021008001001001KA1240M+03061MA1999999101391MD1999999-0041MW1031REMSYN023 333 10306 59004 69911;
0162829000999991995020712004-08050-034917FM-12+000799999V0203601N00101007501CN0100001N1+02651+02501101631ADDAA124007091AG10006AY161061AY221061GF107991061071008001021001KA1240N+02291MA1999999999999MD1999999+0091MW1211REMSYN023 333 20229 58009 60074;EQDQ01 091543APOSP 
0143829000999991995020718004-08050-034917FM-12+000799999V0200901N00461045001CN0100001N1+02951+02311101311ADDAA106011091AG10006AY161061AY261061GF106991041021008001031001MA1999999101222MD1999999+0011MW1021REMSYN017 333 58001 60111;EQDQ01+101223APOSP 
0121829000999991995020812004-08050-034917FM-12+000799999V0200501N00211007501CN0100001N1+02971+02351101591ADDAA124011091AG10006GF106991061021008001001001KA1240N+02241MA1999999101501MD1999999-0041REMSYN023 333 20224 59004 60114;
0096829000999991995020818004-08050-034917FM-12+000799999V0200901N00211220001CN0100001N1+03001+02371101391ADDAA106000091AG10000GF103991031021008001001001MA1999999101301MD1999999+0081REMSYN011 333 58008;
0115829000999991995020900004-08050-034917FM-12+000799999V0200901N00211007501CN0020001N1+02721+02301101601ADDAA106000091AG10000GF105991051021008001001001KA1240M+03181MA1999999101511MD1999999+0011REMSYN017 333 10318 58001;
0115829000999991995020912004-08050-034917FM-12+000799999V0200501N00261007501CN0100001N1+02881+02391101651ADDAA106000091AG10000GF106991061021008001001001KA1240N+02241MA1999999101561MD1999999+0061REMSYN017 333 20224 58006;
0096829000999991995020918004-08050-034917FM-12+000799999V0201401N00361045001CN0100001N1+02971+02401101351ADDAA106000091AG10000GF106991041021008001031001MA1999999101261MD1999999+0041REMSYN011 333 58004;
0143829000999991995021012004-08050-034917FM-12+000799999V0200901N00511007501CN0100001N1+02921+02431101581ADDAA124018091AG10006AY161061AY221061GF106991051041008001021001KA1240N+02281MA1999999101491MD1999999-0071MW1011REMSYN023 333 20228 59007 60184;
0081829000999991995021018004-08050-034917FM-12+000799999V0201401N00411045001CN0100001N1+02981+02401101291ADDAA106000091AG10000GF106991041011008001021091MA1999999101201EQDQ01+999990APOSLP
0143829000999991995021112004-08050-034917FM-12+000799999V0201401N00261007501CN0100001N1+02791+02441101571ADDAA124002091AG10006AY161061AY221061GF106991061021008001001001KA1240N+02281MA1999999101481MD1999999-0011MW1021REMSYN023 333 20228 59001 60024;
0096829000999991995021118004-08050-034917FM-12+000799999V0200901N00311220001CN0100001N1+02941+02241101201ADDAA106000091AG10000GF104991031021008001031001MA1999999101111MD1999999-0091REMSYN011 333 59009;
0143829000999991995021212004-08050-034917FM-12+000799999V0201401N00621007501CN0100001N1+02891+02251101461ADDAA124000191AG10006AY161061AY221061GF106991061021008001001001KA1240N+02891MA1999999101371MD1999999+0111MW1021REMSYN023 333 20289 58011 69914;
0162829000999991995021312004-08050-034917FM-12+000799999V0200901N00151045001CN0100001N1+02871+02321101421ADDAA124001091AG10006AY161061AY211061GF105991031021008001011011KA1240M+99999MA1999999101331MD1999999-0041MW1011REMSYN023 333 10219 59004 60014;EQDQ01 +02192ATMX  
0096829000999991995021318004-08050-034917FM-12+000799999V0201401N00411220001CN0100001N1+03001+02271101081ADDAA106000091AG10000GF103991021021008001031001MA1999999100991MD1999999-0041REMSYN011 333 59004;
0115829000999991995021412004-08050-034917FM-12+000799999V0200501N00151045001CN0100001N1+02891+02201101401ADDAA106000091AG10000GF106991041021008001021001KA1240N+02261MA1999999101311MD1999999-0021REMSYN017 333 20226 59002;
0096829000999991995021418004-08050-034917FM-12+000799999V0200901N00211220001CN0100001N1+03061+02071101161ADDAA106000091AG10000GF102991011011008001031001MA1999999101071MD1999999+0081REMSYN011 333 58008;
0115829000999991995021512004-08050-034917FM-12+000799999V0203201N00151045001CN0100001N1+02891+02321101291ADDAA106000091AG10000GF106991041021008001041001KA1240N+02221MA1999999101201MD1999999-0111REMSYN017 333 20222 59011;
0096829000999991995021518004-08050-034917FM-12+000799999V0201401N00511220001CN0100001N1+03021+02341101001ADDAA106000091AG10000GF104991021021008001031001MA1999999100911MD1999999-0161REMSYN011 333 59016;
0115829000999991995021612004-08050-034917FM-12+000799999V0203601N00211045001CN0100001N1+02961+02331101221ADDAA106000091AG10000GF105991041021008001011001KA1240N+02261MA1999999101131MD1999999-0071REMSYN017 333 20226 59007;
0096829000999991995021618004-08050-034917FM-12+000799999V0200901N00411045001CN0100001N1+02941+02381100891ADDAA106000091AG10000GF106991041021008001031001MA1999999100801MD1999999-0111REMSYN011 333 59011;
0121829000999991995021712004-08050-034917FM-12+000799999V0200901N00261007501CN0100001N1+02891+02431101201ADDAA124004091AG10006GF106991061021008001001001KA1240N+02201MA1999999101111MD1999999-0021REMSYN023 333 20220 59002 60044;
0106829000999991995021812004-08050-034917FM-12+000799999V0203201N001010075019N0100001N1+02601+02461101261ADDAG10006AY161061AY221061GF108991081071008001999999KA1999N+02321MA1999999101171MW1621REMSYN011 333 20232;
0115829000999991995021900004-08050-034917FM-12+000799999V0200901N00261007501CN0020001N1+02741+02281101221ADDAA106000091AG10000GF105991051021008001001001KA1240M+03041MA1999999101131MD1999999+0051REMSYN017 333 10304 58005;
0143829000999991995021912004-08050-034917FM-12+000799999V0202701N00101045001CN0100001N1+02651+02421101181ADDAA124038091AG10006AY161061AY261061GF105991041041008001021001KA1240N+02231MA1999999101091MD1999999-0081MW1011REMSYN023 333 20223 59008 60384;
0115829000999991995022000004-08050-034917FM-12+000799999V0201401N00311220001CN0020001N1+02721+02221101081ADDAA106000091AG10000GF104991041021008001001001KA1240M+02991MA1999999100991MD1999999-0141REMSYN017 333 10299 59014;
0115829000999991995022012004-08050-034917FM-12+000799999V0201401N00261007501CN0100001N1+02841+02171101141ADDAA106000091AG10000GF106991051021008001031001KA1240N+02191MA1999999101051MD1999999-0041REMSYN017 333 20219 59004;
0096829000999991995022018004-08050-034917FM-12+000799999V0200901N00311220001CN0100001N1+02971+02121101071ADDAA106000091AG10000GF103991021021008001041001MA1999999100981MD1999999+0181REMSYN011 333 58018;
0126829000999991995022112004-08050-034917FM-12+000799999V0200901N00511007501CN0100001N1+02901+02221101331ADDAG10006AY161061AY221061GF106991061021008001001001KA1240N+02401MA1999999101241MD1999999+0191MW1021REMSYN017 333 20240 58019;
0096829000999991995022118004-08050-034917FM-12+000799999V0201401N00461007501CN0100001N1+02941+02261101031ADDAA106000091AG10000GF105991051021008001001001MA1999999100941MD1999999-0041REMSYN011 333 59004;
0115829000999991995022212004-08050-034917FM-12+000799999V0200901N00311007501CN0100001N1+02911+02121101301ADDAA106000091AG10000GF106991051041008001021001KA1240N+02151MA1999999091211MD1999999-0031REMSYN017 333 20215 59003;
0115829000999991995022218004-08050-034917FM-12+000799999V0201401N00361045001CN0100001N1+03001+02321100961ADDAA106000091AG10000GF106991041021008001031001MA1999999100872MD1999999-0071REMSYN011 333 59007;EQDQ01+100873APOSP 
0115829000999991995022300004-08050-034917FM-12+000799999V0200901N00151220001CN0020001N1+02701+02261101201ADDAA106000091AG10000GF102991021021008001001001KA1240M+03051MA1999999101111MD1999999+0021REMSYN017 333 10305 58002;
0143829000999991995022312004-08050-034917FM-12+000799999V0201401N00211007501CN0100001N1+02851+02281101331ADDAA124000191AG10001AY151061AY221061GF106991061021008001001001KA1240N+02211MA1999999101241MD1999999+0031MW1021REMSYN023 333 20221 58003 69924;
0096829000999991995022318004-08050-034917FM-12+000799999V0201401N00261220001CN0100001N1+02971+02231100961ADDAA106000091AG10000GF101991011011008001001001MA1999999100901MD1999999+0031REMSYN011 333 58003;
0115829000999991995022400004-08050-034917FM-12+000799999V0201401N00311220001CN0020001N1+02711+02261101201ADDAA106000091AG10000GF104991041021008001001001KA1240M+03071MA1999999101111MD1999999+0001REMSYN017 333 10307 58000;
0115829000999991995022412004-08050-034917FM-12+000799999V0201401N00311220001CN0020001N1+02711+02261101201ADDAA106000091AG10000GF104991041021008001001001KA1240M+03071MA1999999101111MD1999999+0001REMSYN017 333 10307 58000;
0096829000999991995022418004-08050-034917FM-12+000799999V0201401N00511220001CN0100001N1+03001+02271101041ADDAA106000091AG10000GF103991021021008001031001MA1999999100951MD1999999-0051REMSYN011 333 59005;
0115829000999991995022512004-08050-034917FM-12+000799999V0201401N00211007501CN0100001N1+02941+02191101381ADDAA106000091AG10000GF106991061021008001001001KA1240N+02191MA1999999101291MD1999999+0061REMSYN017 333 20219 58006;
0096829000999991995022518004-08050-034917FM-12+000799999V0200901N00311007501CN0100001N1+02921+02271101111ADDAA106000091AG10000GF106991061021008001001001MA1999999101021MD1999999+0071REMSYN011 333 58007;
0115829000999991995022612004-08050-034917FM-12+000799999V0201401N00211045001CN0100001N1+02901+02151101451ADDAA106000091AG10000GF106991041021008001021001KA1240N+02301MA1999999101361MD1999999+0071REMSYN017 333 20230 58007;
0096829000999991995022618004-08050-034917FM-12+000799999V0201401N00311045001CN0100001N1+02861+02301101291ADDAA106000091AG10000GF106991041021008001031001MA1999999101201MD1999999+0181REMSYN011 333 58018;
0115829000999991995022712004-08050-034917FM-12+000799999V0201401N00311045001CN0100001N1+02861+02161101411ADDAA106000091AG10000GF106991041021008001031001KA1240N+02121MA1999999101321MD1999999-0041REMSYN017 333 20212 59004;
0096829000999991995022718004-08050-034917FM-12+000799999V0201401N00511007501CN0100001N1+02811+02311101111ADDAA106000091AG10000GF107991071021008001001001MA1999999101021MD1999999-0181REMSYN011 333 59018;
0143829000999991995022812004-08050-034917FM-12+000799999V0201401N00311220001CN0020001N1+02761+02251101311ADDAA106000191AG10001AY151061AY211061GF104991041021008001001001KA1240M+03091MA1999999101221MD1999999-0071MW1011REMSYN023 333 10309 59007 69911;
0143829000999991995022813004-08050-034917FM-12+000799999V0201401N00311220001CN0020001N1+02761+02251101311ADDAA106000191AG10999AY151011AY211011GF104991041021008001001001KA1240M+03091MA1999999101221MD1999999-0071MW1011REMSYN023 333 10309 59007 69911;
0115829000999991995022818004-08050-034917FM-12+000799999V0201401N00361220001CN0100001N1+03011+02141101001ADDAA106000091AG10000GF103991999021008001001001MA1999999100911MD1999999-0111REMSYN011 333 59011;EQDQ01+000022SCOTLC
0115829000999991995030100004-08050-034917FM-12+000799999V0201401N00311007501CN0020001N1+02751+02211101251ADDAA106000091AG10000GF105991051021008001001001KA1240M+03091MA1999999101161MD1999999-0061REMSYN017 333 10309 59006;
0115829000999991995030112004-08050-034917FM-12+000799999V0201401N00311007501CN0100001N1+02991+02301101321ADDAA106000091AG10000GF106991061021008001001001KA1240N+02191MA1999999101231MD1999999+0011REMSYN017 333 20219 58001;
0096829000999991995030118004-08050-034917FM-12+000799999V0201401N00361007501CN0100001N1+02931+02211101151ADDAA106000091AG10000GF106991061021008001001001MA1999999101061MD1999999+0151REMSYN011 333 58015;
0115829000999991995030200004-08050-034917FM-12+000799999V0201401N00311220001CN0020001N1+02731+02261101381ADDAA106000091AG10000GF104991041021008001001001KA1240M+03121MA1999999101291MD1999999+0131REMSYN017 333 10312 58013;
0132829000999991995030212004-08050-034917FM-12+000799999V0200901N004110075019N0100001N1+02941+02211101491ADDAA106000091AA224002091AG10006GF105991051021008001001001KA1240N+02491MA1999999101401MD1999999+0171REMSYN023 333 20249 58017 60024;
0096829000999991995030218004-08050-034917FM-12+000799999V0201401N00361220001CN0100001N1+02971+02181101241ADDAA106000091AG10000GF104991041021008001001001MA1999999101151MD1999999+0091REMSYN011 333 58009;
0115829000999991995030312004-08050-034917FM-12+000799999V0200901N00511045001CN0100001N1+02951+02311101451ADDAA106000091AG10000GF105991041041008001021001KA1240N+02381MA1999999101361MD1999999-0041REMSYN017 333 20238 59004;
0096829000999991995030318004-08050-034917FM-12+000799999V0201401N00461220001CN0100001N1+03051+02201101831ADDAA106000091AG10000GF104991041021008001001001MA1999999101141MD1999999-0041REMSYN011 333 59004;
0115829000999991995030412004-08050-034917FM-12+000799999V0201401N00311007501CN0100001N1+02901+02021101511ADDAA106000091AG10000GF105991051021008001001001KA1240N+02181MA1999999101421MD1999999+0061REMSYN017 333 20218 58006;
0096829000999991995030418004-08050-034917FM-12+000799999V0201401N00311045001CN0100001N1+03011+02141101161ADDAA106000091AG10000GF105991031021008001031001MA1999999101071MD1999999-0071REMSYN011 333 59007;
0115829000999991995030512004-08050-034917FM-12+000799999V0201801N00311045001CN0100001N1+02901+02201101381ADDAA106000091AG10000GF106991041021008001031001KA1240N+02211MA1999999101291MD1999999+0131REMSYN017 333 20221 58013;
0096829000999991995030518004-08050-034917FM-12+000799999V0201401N00361007501CN0100001N1+03081+02241101131ADDAA106000091AG10000GF106991051021008001031001MA1999999101041MD1999999-0031REMSYN011 333 59003;
0143829000999991995030612004-08050-034917FM-12+000799999V0201401N00151007501CN0100001N1+02691+02481101231ADDAA124001091AG10001AY151061AY211061GF107991071061008001001001KA1240N+02241MA1999999101141MD1999999-0151MW1201REMSYN023 333 20224 59015 60014;
0096829000999991995030618004-08050-034917FM-12+000799999V0201401N00361045001CN0100001N1+03011+02341101031ADDAA106000091AG10000GF106991041021008001031001MA1999999100941MD1999999-0101REMSYN011 333 59010;
0115829000999991995030712004-08050-034917FM-12+000799999V0201401N00461007501CN0100001N1+03001+02291101271ADDAA106000091AG10000GF107991061051008001021001KA1240N+02501MA1999999101181MD1999999+0041REMSYN017 333 20250 58004;
0096829000999991995030718004-08050-034917FM-12+000799999V0201401N00461045001CN0100001N1+02981+02281100971ADDAA106000091AG10000GF106991041021008001031001MA1999999100881MD1999999-0061REMSYN011 333 59006;
0115829000999991995030800004-08050-034917FM-12+000799999V0201401N00311220001CN0020001N1+02751+02261101141ADDAA106000091AG10000GF103991031021008001001001KA1240M+03151MA1999999101051MD1999999-0131REMSYN017 333 10315 59013;
0115829000999991995030812004-08050-034917FM-12+000799999V0201801N00311045001CN0100001N1+02961+02261101201ADDAA106000091AG10000GF106991041021008001031001KA1240N+02241MA1999999101111MD1999999-0071REMSYN017 333 20224 59007;
0096829000999991995030818004-08050-034917FM-12+000799999V0201401N00511045001CN0100001N1+03001+02271100971ADDAA106000091AG10000GF105991031021008001031001MA1999999100881MD1999999+0001REMSYN011 333 58000;
0115829000999991995030900004-08050-034917FM-12+000799999V0201401N00261220001CN0020001N1+02711+02081101191ADDAA106000091AG10000GF102991021021008001001001KA1240M+03161MA1999999101101MD1999999+0051REMSYN017 333 10316 58005;
0115829000999991995030912004-08050-034917FM-12+000799999V0201401N00311007501CN0100001N1+02941+02311101371ADDAA106000091AG10000GF105991051021008001001001KA1240N+02161MA1999999101281MD1999999+0171REMSYN017 333 20216 58017;
0096829000999991995030918004-08050-034917FM-12+000799999V0201401N00411045001CN0100001N1+02981+02351101141ADDAA106000091AG10000GF106991041021008001051001MA1999999101051MD1999999+0171REMSYN011 333 58017;
0115829000999991995031000004-08050-034917FM-12+000799999V0200901N00211007501CN0020001N1+02771+02251101381ADDAA106000091AG10000GF106991061021008001001001KA1240M+03151MA1999999101291MD1999999+0191REMSYN017 333 10315 58019;
0096829000999991995031018004-08050-034917FM-12+000799999V0200901N00311007501CN0100001N1+03001+02441101181ADDAA106000091AG10000GF105991051021008001001001MA1999999101091MD1999999+0041REMSYN011 333 58004;
0143829000999991995031112004-08050-034917FM-12+000799999V0201401N00261007501CN0100001N1+02971+02421101391ADDAA124005091AG10006AY161061AY221061GF106991051041008001021001KA1240N+02491MA1999999101301MD1999999-0061MW1011REMSYN023 333 20249 59006 60054;
0096829000999991995031118004-08050-034917FM-12+000799999V0201401N00511045001CN0100001N1+03061+02111101031ADDAA106000091AG10000GF106991041021008001031001MA1999999100941MD1999999-0151REMSYN011 333 59015;
0143829000999991995031212004-08050-034917FM-12+000799999V0201401N00461007501CN0100001N1+02891+02411101181ADDAA124007091AG10006AY161061AY261061GF106991051021008001031001KA1240N+02311MA1999999101091MD1999999-0211MW1011REMSYN023 333 20231 59021 60074;
0124829000999991995031218004-08050-034917FM-12+000799999V0201401N00461007501CN0100001N1+02941+02381100821ADDAA106003091AG10006AY161061AY261061GF106991051021008001031001MA1999999100731MD1999999-0211MW1011REMSYN017 333 59021 60031;
0143829000999991995031312004-08050-034917FM-12+000799999V0201401N00261045001CN0100001N1+02901+02251101061ADDAA124005091AG10006AY161061AY261061GF106991041021008001031001KA1240N+02391MA1999999100971MD1999999-0121MW1011REMSYN023 333 20239 59012 60054;
0096829000999991995031318004-08050-034917FM-12+000799999V0200901N00361007501CN0100001N1+03021+02861100781ADDAA106000091AG10000GF106991051021008001031001MA1999999100691MD1999999-0041REMSYN011 333 59004;
0115829000999991995031412004-08050-034917FM-12+000799999V0201401N00361007501CN0100001N1+02941+02521101061ADDAA106000091AG10000GF106991051041008001031001KA1240N+02171MA1999999100971MD1999999+0001REMSYN017 333 20217 58000;
0096829000999991995031418004-08050-034917FM-12+000799999V0201401N00361007501CN0100001N1+03001+02221100791ADDAA106000091AG10000GF105991051021008001001001MA1999999100701MD1999999+0011REMSYN011 333 58001;
0115829000999991995031500004-08050-034917FM-12+000799999V0201401N00211220001CN0020001N1+02781+02301101041ADDAA106000091AG10000GF103991021021008001031001KA1240M+03001MA1999999100951MD1999999-0011REMSYN017 333 10300 59001;
0115829000999991995031512004-08050-034917FM-12+000799999V0201401N00311220001CN0100001N1+02991+02301101171ADDAA106000091AG10000GF104991031021008001011001KA1240N+02271MA1999999101081MD1999999+0111REMSYN017 333 20227 58011;
0112829000999991995031600004-08050-034917FM-12+000799999V0201401N00261007501CN0020001N1+02651+02481101171ADDAG10006AY161061AY221061GF107991071071008001001001KA1240M+03151MA1999999101081MW1511REMSYN017 333 10315 58///;
0106829000999991995031612004-08050-034917FM-12+000799999V0201801N00311007501CN0100001N1+02841+02421101381ADDAG10006AY161061AY261061GF107991051041008001051001KA1999N+02271MA1999999101291MW1031REMSYN011 333 20227;
0096829000999991995031618004-08050-034917FM-12+000799999V0201401N00311045001CN0100001N1+02991+02421101041ADDAA106000091AG10000GF105991041021008001031001MA1999999100951MD1999999+0211REMSYN011 333 58021;
0115829000999991995031700004-08050-034917FM-12+000799999V0201401N00151007501CN0020001N1+02681+02371101231ADDAA106000091AG10000GF106991051021008001021001KA1240M+03071MA1999999101141MD1999999+0061REMSYN017 333 10307 58006;
0115829000999991995031712004-08050-034917FM-12+000799999V0200901N00211007501CN0100001N1+02941+02331101271ADDAA106000091AG10000GF105991051021008001001001KA1240N+02241MA1999999101181MD1999999-0111REMSYN017 333 20224 59011;
0096829000999991995031718004-08050-034917FM-12+000799999V0200901N00311220001CN0100001N1+03011+02321101021ADDAA106000091AG10000GF104991041021008001001001MA1999999100931MD1999999-0021REMSYN011 333 59002;
0115829000999991995031800004-08050-034917FM-12+000799999V0200901N00211007501CN0020001N1+02271+99999101381ADDAA106000091AG10000GF106991061021008001001001KA1240M+03101MA1999999101291MD1999999-0151REMSYN017 333 10310 59015;
0096829000999991995031818004-08050-034917FM-12+000799999V0200901N00311045001CN0100001N1+03011+02341101061ADDAA106000091AG10000GF105991031021008001021001MA1999999100971MD1999999+0041REMSYN011 333 58004;
0115829000999991995031900004-08050-034917FM-12+000799999V0200901N00261007501CN0020001N1+02741+02321101371ADDAA106000091AG10000GF105991051021008001001001KA1240M+03111MA1999999101281MD1999999-0011REMSYN017 333 10311 59001;
0143829000999991995031912004-08050-034917FM-12+000799999V0201801N00311007501CN0100001N1+02691+02371101381ADDAA124005091AG10006AY161061AY261061GF106991051041008001021001KA1240N+02181MA1999999101291MD1999999+0011MW1011REMSYN023 333 20218 58001 60054;
0096829000999991995031918004-08050-034917FM-12+000799999V0201401N00461220001CN0100001N1+03001+02241101031ADDAA106000091AG10000GF103991031021008001001001MA1999999100941MD1999999-0031REMSYN011 333 59003;
0143829000999991995032012004-08050-034917FM-12+000799999V0201401N00261007501CN0100001N1+02891+02251101381ADDAA124001091AG10006AY161061AY221061GF105991051021008001001001KA1240N+02371MA1999999101291MD1999999+0001MW1011REMSYN023 333 20237 58000 60014;
0096829000999991995032018004-08050-034917FM-12+000799999V0201401N00361007501CN0100001N1+02961+02331101201ADDAA106000091AG10000GF106991051021008001031001MA1999999101111MD1999999+0001REMSYN011 333 58000;
0090829000999991995032112004-08050-034917FM-12+000799999V0201801N00261007501CN0100001N1+02781+02461101291ADDAG10000GF107991051021008001031001KA1999N+02311MA1999999101201MW1501REMSYN011 333 20231;
0096829000999991995032118004-08050-034917FM-12+000799999V0201401N00361220001CN0100001N1+02981+02251101021ADDAA106000091AG10000GF103991031021008001001001MA1999999100931MD1999999-0181REMSYN011 333 59018;
0143829000999991995032212004-08050-034917FM-12+000799999V0201401N00211045001CN0100001N1+02851+02311101191ADDAA124002091AG10006AY161061AY221061GF106991041021008001041001KA1240N+02271MA1999999101101MD1999999-0101MW1021REMSYN023 333 20227 59010 60024;
0096829000999991995032218004-08050-034917FM-12+000799999V0201401N00311220001CN0100001N1+02991+02301100801ADDAA106000091AG10000GF102991011021008001031001MA1999999100711MD1999999-0221REMSYN011 333 59022;
0115829000999991995032300004-08050-034917FM-12+000799999V0200901N00211220001CN0020001N1+02751+02251101071ADDAA106000091AG10000GF104991041021008001001001KA1240M+03091MA1999999100981MD1999999-0311REMSYN017 333 10309 59031;
0121829000999991995032312004-08050-034917FM-12+000799999V0200901N00261007501CN0100001N1+02991+02421101141ADDAA124001091AG10000GF106991051041008001021001KA1240N+02331MA1999999101051MD1999999-0051REMSYN023 333 20233 59005 60014;
0143829000999991995032412004-08050-034917FM-12+000799999V0200501N00151007501CN0100001N1+03001+02461101061ADDAA124000591AG10006AY161061AY221061GF105991051021008001001001KA1240N+02321MA1999999100971MD1999999-0081MW1021REMSYN023 333 20232 59008 69964;
0096829000999991995032418004-08050-034917FM-12+000799999V0200901N00411007501CN0100001N1+03021+02501100711ADDAA106000091AG10000GF106991051021008001031001MA1999999100621MD1999999-0041REMSYN011 333 59004;
0143829000999991995032512004-08050-034917FM-12+000799999V0200501N00101007501CN0100001N1+02911+02561101121ADDAA124011091AG10006AY161061AY261061GF107991071071008001001001KA1240N+02341MA1999999101031MD1999999+0061MW1031REMSYN023 333 20234 58006 60114;
0124829000999991995032518004-08050-034917FM-12+000799999V0200901N00311007501CN0100001N1+02941+02471100861ADDAA106004091AG10017AY191061AY261061GF106991061071008001001001MA1999999100771MD1999999+0151MW1011REMSYN017 333 58015 60041;
0115829000999991995032600004-08050-034917FM-12+000799999V0200901N00101007501CN0020001N1+02731+02401101191ADDAA106000091AG10000GF106991061021008001001001KA1240M+03001MA1999999101101MD1999999+0181REMSYN017 333 10300 58018;
0121829000999991995032612004-08050-034917FM-12+000799999V0201401N002610075019N0100001N1+02881+02301101181ADDAA124004091AG10006GF106991061021008001001001KA1240N+02161MA1999999101091MD1999999+0061REMSYN023 333 20216 58006 60044;
0134829000999991995032700004-08050-034917FM-12+000799999V0200501N002119999999N0020001N1+02751+02431101171ADDAA106000091AG10000GF105991999021008001001001KA1240M+03091MA1999999101081MD1999999-0021REMSYN017 333 10309 59002;EQDQ01+000072SCOTLC
0159829000999991995032712004-08050-034917FM-12+000799999V0200501N00211002401CN0040001N1+02471+02411101291ADDAA124120091AG10006AY161061AY291061GA1091+999999999GF109991091999999999999999KA1240N+02251MA1999999101201MD1999999+0111MW1291REMSYN023 333 20225 58011 61204;
0124829000999991995032718004-08050-034917FM-12+000799999V0201401N00311045001CN0100001N1+02951+02401100771ADDAA106001091AG10001AY151061AY211061GF105991041021008001031001MA1999999100681MD1999999-0091MW1011REMSYN017 333 59009 60011;
0143829000999991995032812004-08050-034917FM-12+000799999V0201401N00211220001CN0100001N1+02901+02201100911ADDAA124001091AG10006AY161061AY221061GF102991021021008001001001KA1240N+02081MA1999999100821MD1999999-0181MW1021REMSYN023 333 20208 59018 60014;
0096829000999991995032818004-08050-034917FM-12+000799999V0201401N00311220001CN0100001N1+02961+02181100851ADDAA106000091AG10000GF104991011011008001031001MA1999999100761MD1999999+0081REMSYN011 333 58008;
0115829000999991995032900004-08050-034917FM-12+000799999V0203201N00051220001CN0020001N1+02311+02231101151ADDAA106000091AG10000GF102991021011008001001001KA1240M+03031MA1999999101061MD1999999+0091REMSYN017 333 10303 58009;
0115829000999991995033012004-08050-034917FM-12+000799999V0200901N00101220001CN0100001N1+02731+02321101091ADDAA106000091AG10000GF103991031021008001001001KA1240N+02201MA1999999101001MD1999999-0101REMSYN017 333 20220 59010;
0096829000999991995033018004-08050-034917FM-12+000799999V0200901N00361220001CN0100001N1+02991+02491100851ADDAA106000091AG10000GF103991031021008001001001MA1999999100761MD1999999-0101REMSYN011 333 59010;
0115829000999991995033100004-08050-034917FM-12+000799999V0200901N00261007501CN0020001N1+02721+02431101191ADDAA106000091AG10000GF106991061021008001001001KA1240M+03101MA1999999101101MD1999999+0001REMSYN017 333 10310 58000;
0115829000999991995033112004-08050-034917FM-12+000799999V0201401N00051045001CN0100001N1+03001+02511101211ADDAA106000091AG10000GF105991041021008001011001KA1240N+02371MA1999999101121MD1999999+0121REMSYN017 333 20237 58012;
0096829000999991995033118004-08050-034917FM-12+000799999V0200901N00261220001CN0100001N1+02991+02371100851ADDAA106000091AG10000GF104991031021008001031001MA1999999100761MD1999999+0001REMSYN011 333 58000;
0096829000999991995040118004-08050-034917FM-12+000799999V0201401N00311007501CN0100001N1+02961+02211100931ADDAA106000091AG10000GF106991061021008001001001MA1999999100841MD1999999-0081REMSYN011 333 59008;
0115829000999991995040200004-08050-034917FM-12+000799999V0200901N00211007501CN0020001N1+02751+02321101111ADDAA106000091AG10000GF106991061021008001001001KA1240M+03091MA1999999101021MD1999999-0101REMSYN017 333 10309 59010;
0115829000999991995040212004-08050-034917FM-12+000799999V0201401N00311045001CN0100001N1+02901+02481101201ADDAA106000091AG10000GF106991041021008001031001KA1240N+02211MA1999999101111MD1999999-0031REMSYN017 333 20221 59003;
0096829000999991995040218004-08050-034917FM-12+000799999V0201401N00311007501CN0100001N1+02981+02421100931ADDAA106000091AG10000GF107991051021008001031001MA1999999100841MD1999999+0001REMSYN011 333 58000;
0115829000999991995040300004-08050-034917FM-12+000799999V0201401N00151220001CN0020001N1+02731+02431101141ADDAA106000091AG10000GF103991031021008001001001KA1240M+03121MA1999999101051MD1999999+0031REMSYN017 333 10312 58003;
0096829000999991995040318004-08050-034917FM-12+000799999V0200901N00261045001CN0100001N1+03031+02481100921ADDAA106000091AG10000GF105991041021008001031001MA1999999100831MD1999999-0011REMSYN011 333 59001;
0115829000999991995040400004-08050-034917FM-12+000799999V0200901N00261220001CN0020001N1+02781+02461101191ADDAA106000091AG10000GF102991021021008001001001KA1240M+03151MA1999999101101MD1999999+0051REMSYN017 333 10315 58005;
0096829000999991995040418004-08050-034917FM-12+000799999V0200901N00361045001CN0100001N1+02941+02431100851ADDAA106000091AG10000GF106991041021008001031001MA1999999100761MD1999999-0071REMSYN011 333 59007;
0115829000999991995040500004-08050-034917FM-12+000799999V0200901N00261007501CN0020001N1+02701+02501101111ADDAA106000091AG10000GF106991061021008001001001KA1240M+03131MA1999999101021MD1999999-0081REMSYN017 333 10313 59008;
0143829000999991995040512004-08050-034917FM-12+000799999V0201401N00411007501CN0100001N1+02961+02421101151ADDAA124000191AG10005AY161061AY221061GF106991061021008001001001KA1240N+02331MA1999999101061MD1999999+0041MW1021REMSYN023 333 20233 58004 69924;
0124829000999991995040518004-08050-034917FM-12+000799999V0201401N00511007501CN0100001N1+02821+02441100921ADDAA106007091AG10005AY161061AY231061GF108991081051008001999999MA1999999100831MD1999999+0071MW1031REMSYN017 333 58007 60071;
0143829000999991995040600004-08050-034917FM-12+000799999V0202301N00101007501CN0020001N1+02571+02441101061ADDAA106002091AG10005AY161061AY221061GF106991061021008001001001KA1240M+03131MA1999999101071MD1999999+0051MW1011REMSYN023 333 10313 58005 60021;
0124829000999991995040618004-08050-034917FM-12+000799999V0201401N00311045001CN0100001N1+03001+02321101051ADDAA106001091AG10001AY151061AY251061GF106991041021008001031001MA1999999100961MD1999999+0131MW1021REMSYN017 333 58013 60011;
0121829000999991995040712004-08050-034917FM-12+000799999V0202301N00361045001CN0100001N1+02841+02311101271ADDAA124001091AG10000GF106991041021008001031001KA1240N+02131MA1999999101181MD1999999+0001REMSYN023 333 20213 58000 60014;
0096829000999991995040718004-08050-034917FM-12+000799999V0201801N00411007501CN0100001N1+02981+02421101001ADDAA106000091AG10000GF105991051021008001001001MA1999999100911MD1999999-0051REMSYN011 333 59005;
0143829000999991995040812004-08050-034917FM-12+000799999V0202301N00051045001CN0100001N1+02581+02401101331ADDAA124040091AG10005AY161061AY221061GF105991041021008001011001KA1240N+02481MA1999999101241MD1999999+0061MW1011REMSYN023 333 20248 58006 60404;
0096829000999991995040818004-08050-034917FM-12+000799999V0200901N00151007501CN0100001N1+02871+02351100941ADDAA106000091AG10000GF107991071071008001001001MA1999999100851MD1999999-0061REMSYN011 333 59006;
0106829000999991995040912004-08050-034917FM-12+000799999V0203601N00101012001CN0040001N1+02721+02451101121ADDAG10005AY161061AY231061GF108991081081008001999999KA1999N+02281MA1999999101031MW1621REMSYN011 333 20228;
0124829000999991995040918004-08050-034917FM-12+000799999V0209991C00001012001CN0100001N1+02631+02411100751ADDAA106014091AG10005AY161061AY261061GF108991081081008001999999MA1999999100661MD1999999-0191MW1621REMSYN017 333 59019 60141;
0143829000999991995041000004-08050-034917FM-12+000799999V0203201N00051007501CN0020001N1+02441+02411100951ADDAA106009091AG10005AY161061AY261061GF105991051021008001001001KA1240M+02931MA1999999100861MD1999999-0141MW1011REMSYN023 333 10293 59014 60091;
0143829000999991995041012004-08050-034917FM-12+000799999V0202301N00101007501CN0100001N1+02531+02341101091ADDAA124051091AG10005AY161061AY261061GF107991071051008001001001KA1240N+02271MA1999999101001MD1999999-0031MW1601REMSYN023 333 20227 59003 60514;
0096829000999991995041018004-08050-034917FM-12+000799999V0200901N00311045001CN0100001N1+02921+02361100851ADDAA106000091AG10000GF106991041051008001031001MA1999999100761MD1999999-0101REMSYN011 333 59010;
0162829000999991995041112004-08050-034917FM-12+000799999V0202301N04992045001CN0100001N1+02701+02481101211ADDAA124000391AG10001AY151061AY221061GF105991031021008001021001KA1240N+02261MA1999999101121MD1999999+0121MW1021REMSYN023 333 20226 58012 69934;EQDQ01+004993WOSPD 
0143829000999991995041212004-08050-034917FM-12+000799999V0201401N00311045001CN0100001N1+02981+02471101331ADDAA124000391AG10001AY151061AY221061GF106991041041008001021001KA1240N+02301MA1999999101241MD1999999+0121MW1031REMSYN023 333 20230 58012 69934;
0124829000999991995041218004-08050-034917FM-12+000799999V0200901N00151007501CN0100001N1+02811+02381100901ADDAA106000391AG10001AY151061AY221061GF107991071071008001001001MA1999999100811MD1999999-0071MW1031REMSYN017 333 59007 69931;
0107829000999991995041318004-08050-034917FM-12+000799999V0200901N00361007501CN0100001N1+02781+02421100841ADDAG10005AY161061AY221061GF107991051041008001001999MA1999999100751MD1999999-0061MW1031REMSYN011 333 59006;
0143829000999991995041400004-08050-034917FM-12+000799999V0209991C00001007501CN0020001N1+02531+02491101121ADDAA106001091AG10005AY161061AY221061GF107991071071008001001001KA1240M+02911MA1999999101031MD1999999+0031MW1031REMSYN023 333 10291 58003 60011;
0143829000999991995041412004-08050-034917FM-12+000799999V0201401N00151007501CN0100001N1+02761+02621101101ADDAA124008091AG10005AY161061AY261061GF107991051021008001031001KA1240N+02341MA1999999101011MD1999999-0061MW1011REMSYN023 333 20234 59006 60084;
0143829000999991995041512004-08050-034917FM-12+000799999V0200901N00211045001CN0100001N1+02871+02461101211ADDAA124004091AG10005AY161061AY261061GF106991041021008001021001KA1240N+02301MA1999999101121MD1999999+0111MW1021REMSYN023 333 20230 58011 60044;
0121829000999991995041612004-08050-034917FM-12+000799999V0201801N003110075019N0100001N1+02871+02391101271ADDAA124000191AG10001GF107991051071008001031001KA1240N+02491MA1999999101181MD1999999+0061REMSYN023 333 20249 58006 69924;
0096829000999991995041618004-08050-034917FM-12+000799999V0201401N00311007501CN0100001N1+02931+02361100951ADDAA106000091AG10000GF107991071031008001001001MA1999999100861MD1999999-0021REMSYN011 333 59002;
0115829000999991995041712004-08050-034917FM-12+000799999V0201801N00261007501CN0100001N1+02921+02451101191ADDAA106000091AG10000GF106991061021008001001001KA1240N+02171MA1999999101101MD1999999-0081REMSYN017 333 20217 59008;
0121829000999991995041812004-08050-034917FM-12+000799999V0200901N00211007501CN0100001N1+02801+02421101161ADDAA124004091AG10000GF106991061021008001001001KA1240N+02131MA1999999101071MD1999999-0031REMSYN023 333 20213 59003 60044;
0096829000999991995041818004-08050-034917FM-12+000799999V0200901N00261220001CN0100001N1+02961+02421100851ADDAA106000091AG10000GF104991041021008001001001MA1999999100761MD1999999+0011REMSYN011 333 58001;
0115829000999991995041900004-08050-034917FM-12+000799999V0209991C00001220001CN0020001N1+02721+02301101081ADDAA106000091AG10000GF103991031021008001001001KA1240M+03041MA1999999100991MD1999999+0081REMSYN017 333 10304 58008;
0115829000999991995041912004-08050-034917FM-12+000799999V0201401N00211007501CN0100001N1+02391+99999101321ADDAA106000091AG10000GF106991061021008001001001KA1240N+02301MA1999999101231MD1999999+0161REMSYN017 333 20230 58016;
0096829000999991995041918004-08050-034917FM-12+000799999V0201401N00461007501CN0100001N1+02931+02451101031ADDAA106000091AG10000GF106991061021008001001001MA1999999100941MD1999999+0181REMSYN011 333 58018;
0143829000999991995042012004-08050-034917FM-12+000799999V0201401N00511007501CN0100001N1+02951+02451101271ADDAA124014091AG10005AY161061AY261061GF106991051041008001021001KA1240N+02231MA1999999101181MD1999999-0051MW1011REMSYN023 333 20223 59005 60144;
0096829000999991995042018004-08050-034917FM-12+000799999V0201401N00461007501CN0100001N1+02941+02241101021ADDAA106000091AG10000GF106991061021008001001001MA1999999100931MD1999999-0011REMSYN011 333 59001;
0115829000999991995042112004-08050-034917FM-12+000799999V0201801N00311007501CN0100001N1+02741+02301101251ADDAA106000091AG10000GF105991051021008001001001KA1240N+02021MA1999999101161MD1999999-0021REMSYN017 333 20202 59002;
0096829000999991995042118004-08050-034917FM-12+000799999V0201401N00311007501CN0100001N1+02881+02371100921ADDAA106000091AG10000GF105991051021008001001001MA1999999100831MD1999999-0101REMSYN011 333 59010;
0096829000999991995042218004-08050-034917FM-12+000799999V0201401N00311220001CN0100001N1+02971+02211100871ADDAA106000091AG10000GF102991021021008001001001MA1999999100781MD1999999-0051REMSYN011 333 59005;
0115829000999991995042300004-08050-034917FM-12+000799999V0209991C00001220001CN0020001N1+02371+02211101191ADDAA106000091AG10000GF101991011011008001001001KA1240M+03041MA1999999101101MD1999999+0031REMSYN017 333 10304 58003;
0115829000999991995042312004-08050-034917FM-12+000799999V0201801N00151007501CN0100001N1+02821+02401101241ADDAA106000091AG10000GF105991051021008001001001KA1240N+02171MA1999999101151MD1999999+0031REMSYN017 333 20217 58003;
0096829000999991995042318004-08050-034917FM-12+000799999V0201401N00311007501CN0100001N1+02921+02291100931ADDAA106000091AG10000GF105991051021008001001001MA1999999100841MD1999999+0061REMSYN011 333 58006;
0143829000999991995042412004-08050-034917FM-12+000799999V0200901N00101007501CN0100001N1+02731+02471101331ADDAA124012091AG10005AY161061AY261061GF107991061061008001021001KA1240N+02141MA1999999101241MD1999999+0091MW1011REMSYN023 333 20214 58009 60124;
0096829000999991995042418004-08050-034917FM-12+000799999V0201401N00461007501CN0100001N1+02891+02371100971ADDAA106000091AG10000GF106991061021008001001001MA1999999100881MD1999999+0041REMSYN011 333 58004;
0143829000999991995042512004-08050-034917FM-12+000799999V0201801N00311007501CN0100001N1+02811+02341101341ADDAA106000391AG10005AY161061AY221061GF106991061021008001001001KA1240N+02161MA1999999101251MD1999999+0011MW1021REMSYN023 333 20216 58001 69931;
0096829000999991995042518004-08050-034917FM-12+000799999V0201401N00211045001CN0100001N1+02881+02321100891ADDAA106000091AG10000GF106991041021008001031001MA1999999100801MD1999999-0081REMSYN011 333 59008;
0115829000999991995042600004-08050-034917FM-12+000799999V0201401N00101220001CN0020001N1+02651+02251101131ADDAA106000091AG10000GF103991031021008001001001KA1240M+03021MA1999999101041MD1999999-0211REMSYN017 333 10302 59021;
0096829000999991995042618004-08050-034917FM-12+000799999V0201401N00361007501CN0100001N1+02901+02391100891ADDAA106000091AG10000GF105991051021008001001001MA1999999100801MD1999999+0001REMSYN011 333 58000;
0115829000999991995042700004-08050-034917FM-12+000799999V0201801N00211220001CN0020001N1+02631+02271101191ADDAA106000091AG10000GF103991031021008001001001KA1240M+02981MA1999999101101MD1999999+0061REMSYN017 333 10298 58006;
0106829000999991995042712004-08050-034917FM-12+000799999V0201801N00411007501CN0100001N1+02811+02291101111ADDAG10001AY151061AY221061GF106991061021008001001001KA1999N+02131MA1999999101021MW1021REMSYN011 333 20213;
0096829000999991995042718004-08050-034917FM-12+000799999V0201401N00311220001CN0100001N1+02901+02271100831ADDAA106000091AG10000GF104991041021008001001001MA1999999100741MD1999999-0061REMSYN011 333 59006;
0115829000999991995042812004-08050-034917FM-12+000799999V0201401N00311007501CN0100001N1+02931+02291101211ADDAA106000091AG10000GF106991051041008001021001KA1240N+02131MA1999999101121MD1999999+0101REMSYN017 333 20213 58010;
0096829000999991995042818004-08050-034917FM-12+000799999V0201401N00311220001CN0100001N1+02941+02291100881ADDAA106000091AG10000GF103991021021008001031001MA1999999100791MD1999999+0051REMSYN011 333 58005;
0115829000999991995042900004-08050-034917FM-12+000799999V0202301N00261007501CN0020001N1+02561+02331101201ADDAA106000091AG10000GF106991061021008001001001KA1240M+03031MA1999999101111MD1999999+0111REMSYN017 333 10303 58011;
0143829000999991995042912004-08050-034917FM-12+000799999V0202301N00261007501CN0100001N1+02661+02411101361ADDAA124000591AG10005AY161061AY221061GF108991081071008001999999KA1240N+02211MA1999999101271MD1999999+0171MW1601REMSYN023 333 20221 58017 69954;
0124829000999991995042918004-08050-034917FM-12+000799999V0201801N00311007501CN0100001N1+02551+02451101151ADDAA106006091AG10005AY161061AY261061GF107991071061008001001001MA1999999101061MD1999999+0271MW1031REMSYN017 333 58027 60061;
0143829000999991995043012004-08050-034917FM-12+000799999V0203201N00051012001CN0100001N1+02441+02391101361ADDAA124023091AG10005AY161061AY261061GF108991081081008001999999KA1240N+02241MA1999999101271MD1999999+0001MW1621REMSYN023 333 20224 58000 60234;
0124829000999991995043018004-08050-034917FM-12+000799999V0200901N00211007501CN0100001N1+02721+02481101011ADDAA106000191AG10001AY151061AY221061GF107991051041008001031001MA1999999100921MD1999999-0141MW1161REMSYN017 333 59014 69921;
0115829000999991995050100004-08050-034917FM-12+000799999V0201801N00151007501CN0020001N1+02541+02451101241ADDAA106000091AG10000GF105991051021008001001001KA1240M+02881MA1999999101151MD1999999+0031REMSYN017 333 10288 58003;
0143829000999991995050112004-08050-034917FM-12+000799999V0209991C00001007501CN0100001N1+02471+02431101361ADDAA124005091AG10005AY161061AY261061GF108991081051008001999999KA1240N+02381MA1999999101271MD1999999+0001MW1031REMSYN023 333 20238 58000 60054;
0124829000999991995050118004-08050-034917FM-12+000799999V0201801N00101007501CN0100001N1+02711+02501101021ADDAA106000391AG10000AY151061AY221061GF107991051021008001021001MA1999999100931MD1999999+0011MW1031REMSYN017 333 58001 69931;
0143829000999991995050212004-08050-034917FM-12+000799999V0201401N00311007501CN0100001N1+02811+02441101221ADDAA124031091AG10005AY161061AY261061GF106991051041008001021001KA1240N+02131MA1999999101131MD1999999-0141MW1011REMSYN023 333 20213 59014 60314;
0124829000999991995050218004-08050-034917FM-12+000799999V0201401N00361045001CN0100001N1+02881+02321101041ADDAA106000391AG10000AY151061AY221061GF106991041021008001031001MA1999999100951MD1999999+0021MW1011REMSYN017 333 58002 69931;
0115829000999991995050300004-08050-034917FM-12+000799999V0209991C00001007501CN0020001N1+02501+02321101181ADDAA106000091AG10000GF105991051021008001001001KA1240M+02951MA1999999101091MD1999999-0181REMSYN017 333 10295 59018;
0143829000999991995050312004-08050-034917FM-12+000799999V0201401N00261007501CN0100001N1+02791+02401101211ADDAA124003091AG10005AY161061AY221061GF106991061021008001001001KA1240N+02181MA1999999101121MD1999999-0011MW1021REMSYN023 333 20218 59001 60034;
0096829000999991995050318004-08050-034917FM-12+000799999V0201401N00311220001CN0100001N1+02931+02361101021ADDAA106000091AG10000GF103991031021008001001001MA1999999100931MD1999999-0021REMSYN011 333 59002;
0115829000999991995050400004-08050-034917FM-12+000799999V0200101N00211220001CN0020001N1+02691+02351101241ADDAA106000091AG10000GF104991041021008001001001KA1240M+03041MA1999999101151MD1999999+0061REMSYN017 333 10304 58006;
0143829000999991995050412004-08050-034917FM-12+000799999V0200901N00261045001CN0100001N1+02891+02461101391ADDAA124000191AG10000AY151061AY211061GF105991041081008001031001KA1240N+02151MA1999999101301MD1999999+0181MW1021REMSYN023 333 20215 58018 69914;
0096829000999991995050418004-08050-034917FM-12+000799999V0201401N00311220001CN0100001N1+02961+02421101191ADDAA106000091AG10000GF104991041021008001001001MA1999999101101MD1999999+0171REMSYN011 333 58017;
0115829000999991995050500004-08050-034917FM-12+000799999V0201401N00311220001CN0020001N1+02611+02311101391ADDAA106000091AG10000GF102991021021008001001001KA1240M+03061MA1999999101301MD1999999+0151REMSYN017 333 10306 58015;
0143829000999991995050512004-08050-034917FM-12+000799999V0201401N00261007501CN0100001N1+02601+02371101331ADDAA124000391AG10000AY151061AY221061GF107991071071008001001001KA1240N+02201MA1999999101241MD1999999-0061MW1031REMSYN023 333 20220 59006 69934;
0124829000999991995050518004-08050-034917FM-12+000799999V0201401N00461045001CN0100001N1+02901+02431101091ADDAA106000191AG10000AY151061AY221061GF105991031051008001031001MA1999999101001MD1999999-0111MW1021REMSYN017 333 59011 69911;
0143829000999991995050612004-08050-034917FM-12+000799999V0201401N00311045001CN0100001N1+02921+02391101301ADDAA124000591AG10000AY151061AY221061GF105991041021008001011001KA1240N+02131MA1999999101211MD1999999-0031MW1011REMSYN023 333 20213 59003 69954;
0096829000999991995050618004-08050-034917FM-12+000799999V0201401N00361045001CN0100001N1+02981+02301100991ADDAA106000091AG10000GF106991041021008001031001MA1999999100901MD1999999-0101REMSYN011 333 59010;
0143829000999991995050712004-08050-034917FM-12+000799999V0201801N00261007501CN0100001N1+02841+02421101291ADDAA124011091AG10005AY161061AY221061GF106991061021008001001001KA1240N+02361MA1999999101201MD1999999-0011MW1021REMSYN023 333 20236 59001 60114;
0143829000999991995050800004-08050-034917FM-12+000799999V0201401N00151007501CN0020001N1+02671+02411101231ADDAA106000191AG10000AY151061AY221061GF106991061021008001001001KA1240M+03031MA1999999101141MD1999999+0021MW1031REMSYN023 333 10303 58002 69921;
0121829000999991995050812004-08050-034917FM-12+000799999V0201401N00411007501CN0100001N1+02901+02321101471ADDAA124000191AG10000GF105991051021008001001001KA1240N+02271MA1999999101381MD1999999+0181REMSYN023 333 20227 58018 69924;
0096829000999991995050818004-08050-034917FM-12+000799999V0201401N00261220001CN0100001N1+02821+02311101151ADDAA106000091AG10000GF104991041021008001001001MA1999999101061MD1999999+0141REMSYN011 333 58014;
0115829000999991995050900004-08050-034917FM-12+000799999V0201401N00151220001CN0020001N1+02611+02271101401ADDAA106000091AG10000GF102991021021008001001001KA1240M+03021MA1999999101311MD1999999+0171REMSYN017 333 10302 58017;
0115829000999991995050912004-08050-034917FM-12+000799999V0200901N00261007501CN0100001N1+02681+02481101491ADDAA106000091AG10000GF105991051021008001001001KA1240N+02081MA1999999101401MD1999999+0021REMSYN017 333 20208 58002;
0096829000999991995050918004-08050-034917FM-12+000799999V0201401N00311220001CN0100001N1+02971+02331101151ADDAA106000091AG10000GF103991031021008001001001MA1999999101061MD1999999+0001REMSYN011 333 58000;
0143829000999991995051000004-08050-034917FM-12+000799999V0209991C00001220001CN0020001N1+02391+02311101401ADDAA106002091AG10005AY161061AY261061GF101991011011008001001001KA1240M+03041MA1999999101311MD1999999+0001MW1011REMSYN023 333 10304 58000 60021;
0143829000999991995051012004-08050-034917FM-12+000799999V0201401N00261045001CN0100001N1+02861+02351101481ADDAA124003091AG10005AY161061AY261061GF105991041041008001021001KA1240N+02131MA1999999101391MD1999999-0011MW1011REMSYN023 333 20213 59001 60034;
0096829000999991995051018004-08050-034917FM-12+000799999V0201801N00311220001CN0100001N1+02891+02201101221ADDAA106000091AG10000GF102991021021008001001001MA1999999101131MD1999999+0071REMSYN011 333 58007;
0115829000999991995051112004-08050-034917FM-12+000799999V0201401N00311007501CN0100001N1+02771+02361101411ADDAA106000091AG10000GF106991061021008001001001KA1240N+02071MA1999999101321MD1999999-0071REMSYN017 333 20207 59007;
0096829000999991995051118004-08050-034917FM-12+000799999V0201801N00411007501CN0100001N1+02921+02271101041ADDAA106000091AG10000GF105991051021008001001001MA1999999100951MD1999999-0181REMSYN011 333 59018;
0115829000999991995051200004-08050-034917FM-12+000799999V0201401N00211007501CN0020001N1+02681+02241101271ADDAA106000091AG10000GF106991061021008001001001KA1240M+03011MA1999999101181MD1999999-0121REMSYN017 333 10301 59012;
0115829000999991995051212004-08050-034917FM-12+000799999V0201401N00151007501CN0100001N1+02771+02341101361ADDAA106000091AG10000GF107991051041008001031001KA1240N+02111MA1999999101271MD1999999-0051REMSYN017 333 20211 59005;
0096829000999991995051218004-08050-034917FM-12+000799999V0201401N00311220001CN0100001N1+02771+02231101031ADDAA106000091AG10000GF102991021021008001001001MA1999999100941MD1999999-0011REMSYN011 333 59001;
0115829000999991995051312004-08050-034917FM-12+000799999V0203201N00101007501CN0100001N1+02791+02251101421ADDAA106000091AG10000GF105991051021008001001001KA1240N+02101MA1999999101331MD1999999+0061REMSYN017 333 20210 58006;
0115829000999991995051318004-08050-034917FM-12+000799999V0201401N002619999999N0100001N1+02891+02171101071ADDAA106000091AG10000GF108991999021008001001001MA1999999100981MD1999999+0041REMSYN011 333 58004;EQDQ01+000032SCOTLC
0115829000999991995051412004-08050-034917FM-12+000799999V0202301N00311220001CN0100001N1+02771+02341101341ADDAA106000091AG10000GF104991041021008001001001KA1240N+01981MA1999999101251MD1999999-0081REMSYN017 333 20198 59008;
0124829000999991995051418004-08050-034917FM-12+000799999V0201801N00511045001CN0100001N1+02901+02431101071ADDAA106000591AG10000AY151061AY221061GF105991041021008001031001MA1999999100981MD1999999+0001MW1011REMSYN017 333 58000 69951;
0096829000999991995051518004-08050-034917FM-12+000799999V0201401N00311007501CN0100001N1+02871+02181101071ADDAA106000091AG10000GF107991051031008001031001MA1999999100981MD1999999+0001REMSYN011 333 58000;
0121829000999991995051612004-08050-034917FM-12+000799999V0201801N00311007501CN0100001N1+02731+02341101311ADDAA106000091AG10000GF106991051051008001031001KA1240N+02111MA1999999101281MD1999999-0081MW1161REMSYN017 333 20211 59008;
0102829000999991995051618004-08050-034917FM-12+000799999V0201801N00461007501CN0100001N1+02821+02331101071ADDAA106000191AG10000GF106991061021008001001001MA1999999100981MD1999999+0001REMSYN017 333 58000 69921;
0143829000999991995051712004-08050-034917FM-12+000799999V0201401N00461007501CN0100001N1+02771+02421101281ADDAA124010091AG10005AY161061AY251061GF106991061051008001001001KA1240N+02231MA1999999101191MD1999999-0031MW1021REMSYN023 333 20223 59003 60104;
0124829000999991995051718004-08050-034917FM-12+000799999V0201401N00311045001CN0100001N1+02861+02391101131ADDAA106000191AG10000AY151061AY221061GF106991041021008001031001MA1999999101041MD1999999+0061MW1021REMSYN017 333 58006 69921;
0143829000999991995051800004-08050-034917FM-12+000799999V0201401N00211007501CN0020001N1+02671+02391101331ADDAA106006091AG10005AY161061AY261061GF106991061021008001001001KA1240M+03001MA1999999101241MD1999999+0041MW1021REMSYN023 333 10300 58004 60061;
0106829000999991995051812004-08050-034917FM-12+000799999V0201401N00411220001CN0100001N1+02891+02411101221ADDAG10005AY161061AY261061GF104991031021008001011001KA1999N+02191MA1999999101131MW1011REMSYN011 333 20219;
0096829000999991995051818004-08050-034917FM-12+000799999V0201401N00211220001CN0100001N1+02851+02391100991ADDAA106000091AG10000GF104991041021008001001001MA1999999100901MD1999999-0141REMSYN011 333 59014;
0115829000999991995051912004-08050-034917FM-12+000799999V0201801N00311007501CN0100001N1+02841+02421101141ADDAA106000091AG10000GF107991051021008001031001KA1240N+02361MA1999999101051MD1999999-0081REMSYN017 333 20236 59008;
0096829000999991995051918004-08050-034917FM-12+000799999V0201401N00211007501CN0100001N1+02811+02401100901ADDAA106000091AG10000GF107991071051008001001001MA1999999100811MD1999999-0091REMSYN011 333 59009;
0143829000999991995052012004-08050-034917FM-12+000799999V0203601N00261012001CN0100001N1+02521+02361101381ADDAA124000191AG10000AY151061AY221061GF107991071081008001001001KA1240N+02311MA1999999101291MD1999999+0241MW1021REMSYN023 333 20231 58024 69914;
0096829000999991995052018004-08050-034917FM-12+000799999V0200901N00211045001CN0100001N1+02961+02311100931ADDAA106000091AG10000GF106991041021008001031001MA1999999100841MD1999999+0031REMSYN011 333 58003;
0143829000999991995052112004-08050-034917FM-12+000799999V0200901N00151045001CN0100001N1+02771+02421101411ADDAA124000591AG10000AY151061AY221061GF106991041021008001031001KA1240N+02241MA1999999101321MD1999999+0031MW1021REMSYN023 333 20224 58003 69954;
0096829000999991995052118004-08050-034917FM-12+000799999V0201401N00211045001CN0100001N1+02851+02391101171ADDAA106000091AG10000GF106991041021008001041001MA1999999101081MD1999999+0241REMSYN011 333 58024;
0143829000999991995052212004-08050-034917FM-12+000799999V0202301N00101045001CN0100001N1+02821+02401101301ADDAA124006091AG10005AY161061AY261061GF105991041021008001011001KA1240N+02271MA1999999101291MD1999999-0031MW1011REMSYN023 333 20227 59003 60064;
0096829000999991995052218004-08050-034917FM-12+000799999V0201401N00211007501CN0100001N1+02921+02411100991ADDAA106000091AG10000GF106991061021008001001001MA1999999100901MD1999999-0181REMSYN011 333 59018;
0154829000999991995052312004-08050-034917FM-12+000799999V0209991C00001007501CN0100001N1+02751+02401101321ADDAA124066091AG10004AY121061GF106991051021008001031001KA1240N+02201MA1999999101231MD1999999-0061MW1021REMSYN023 333 20220 59006 60664;EQDQ01+000072PSTWM1
0096829000999991995052318004-08050-034917FM-12+000799999V0200901N00311007501CN0100001N1+02781+02401101021ADDAA106000091AG10000GF108991061041008001031001MA1999999100931MD1999999+0031REMSYN011 333 58003;
0143829000999991995052412004-08050-034917FM-12+000799999V0201401N00101012001CN0100001N1+02521+02361101381ADDAA124004091AG10000AY151061AY251061GF108991081081008001999999KA1240N+02261MA1999999101291MD1999999+0061MW1211REMSYN023 333 20226 58006 60044;
0124829000999991995052418004-08050-034917FM-12+000799999V0201401N00211045001CN0100001N1+02681+02351101011ADDAA106017091AG10005AY161061AY251061GF105991031021008001031001MA1999999100921MD1999999-0031MW1161REMSYN017 333 59003 60171;
0115829000999991995052500004-08050-034917FM-12+000799999V0201801N00211007501CN0020001N1+02511+02361101281ADDAA106000091AG10000GF106991061071008001001001KA1240M+02861MA1999999101191MD1999999+0061REMSYN017 333 10286 58006;
0143829000999991995052512004-08050-034917FM-12+000799999V0202301N00101045001CN0100001N1+02691+02481101431ADDAA124051091AG10005AY161061AY261061GF106991041021008001031001KA1240N+02231MA1999999101341MD1999999+0051MW1031REMSYN023 333 20223 58005 60514;
0096829000999991995052518004-08050-034917FM-12+000799999V0201401N00311045001CN0100001N1+02781+02361101061ADDAA106000091AG10000GF105991031021008001031001MA1999999100971MD1999999+0051REMSYN011 333 58005;
0143829000999991995052612004-08050-034917FM-12+000799999V0202701N00151007501CN0100001N1+02691+02661101401ADDAA124014091AG10005AY161061AY261061GF106991061021008001001001KA1240N+02291MA1999999101311MD1999999-0031MW1031REMSYN023 333 20229 59003 60144;
0124829000999991995052618004-08050-034917FM-12+000799999V0202701N00151007501CN0100001N1+02451+02341101091ADDAA106040091AG10015AY191061AY261061GF107991071061008001001001MA1999999101001MD1999999+0031MW1031REMSYN017 333 58003 60401;
0115829000999991995052700004-08050-034917FM-12+000799999V0209991C00001045001CN0020001N1+02481+02411101361ADDAA106000091AG10000GF106991041021008001031001KA1240M+02831MA1999999101271MD1999999+0061REMSYN017 333 10283 58006;
0143829000999991995052712004-08050-034917FM-12+000799999V0202301N00261045001CN0100001N1+02681+02391101481ADDAA124050091AG10005AY161061AY221061GF105991041021008001031001KA1240N+02211MA1999999101391MD1999999+0081MW1021REMSYN023 333 20221 58008 60504;
0115829000999991995052800004-08050-034917FM-12+000799999V0202701N00101220001CN0020001N1+02501+02291101361ADDAA106000091AG10000GF104991021021008001031001KA1240M+02961MA1999999101271MD1999999+0001REMSYN017 333 10296 58000;
0143829000999991995052812004-08050-034917FM-12+000799999V0202701N00101007501CN0040001N1+02381+02351101481ADDAA124035091AG10005AY161061AY261061GF107991071061008001001001KA1240N+02191MA1999999101391MD1999999+0001MW1601REMSYN023 333 20219 58000 60354;
0124829000999991995052818004-08050-034917FM-12+000799999V0201801N00461045001CN0100001N1+02821+02311101201ADDAA106002091AG10005AY161061AY221061GF106991041021008001031001MA1999999101111MD1999999+0091MW1011REMSYN017 333 58009 60021;
0115829000999991995052900004-08050-034917FM-12+000799999V0202301N00151007501CN0020001N1+02481+02191101421ADDAA106000091AG10000GF106991061021008001001001KA1240M+02851MA1999999101331MD1999999+0061REMSYN017 333 10285 58006;
0143829000999991995052912004-08050-034917FM-12+000799999V0202301N00261007501CN0100001N1+02491+02361101521ADDAA124008091AG10005AY161061AY261061GF107991071071008001001001KA1240N+02191MA1999999101431MD1999999+0041MW1031REMSYN023 333 20219 58004 60084;
0096829000999991995052918004-08050-034917FM-12+000799999V0201801N00461007501CN0100001N1+02681+02331101291ADDAA106000091AG10000GF107991071071008001001001MA1999999101201MD1999999-0091REMSYN011 333 59009;
0143829000999991995053000004-08050-034917FM-12+000799999V0202301N00151007501CN0020001N1+02311+02271101511ADDAA106001091AG10000AY151061AY221061GF107991071071008001001001KA1240M+02821MA1999999101421MD1999999+0091MW1031REMSYN023 333 10282 58009 69981;
0106829000999991995053012004-08050-034917FM-12+000799999V0201801N00311045001CN0100001N1+02741+02301101441ADDAG10005AY161061AY221061GF105991041021008001011001KA1999N+02251MA1999999101351MW1011REMSYN011 333 20225;
0096829000999991995053018004-08050-034917FM-12+000799999V0201801N00511220001CN0100001N1+02821+02331101141ADDAA106000091AG10000GF104991041021008001001001MA1999999101051MD1999999-0151REMSYN011 333 59015;
0143829000999991995053112004-08050-034917FM-12+000799999V0202301N00311007501CN0100001N1+02641+02351101421ADDAA124010091AG10005AY161061AY261061GF106991061021008001001001KA1240N+02181MA1999999101331MD1999999-0021MW1021REMSYN023 333 20218 59002 60104;
0124829000999991995053118004-08050-034917FM-12+000799999V0201801N00461007501CN0100001N1+02681+02371101121ADDAA106004091AG10005AY161061AY221061GF107991051021008001031001MA1999999101031MD1999999-0021MW1031REMSYN017 333 59002 60041;
0143829000999991995060100004-08050-034917FM-12+000799999V0202301N00211007501CN0020001N1+02371+02221101361ADDAA106004091AG10004AY161061AY261061GF107991071061008001001001KA1240M+02821MA1999999101271MD1999999-0091MW1611REMSYN023 333 10282 59009 60041;
0124829000999991995060118004-08050-034917FM-12+000799999V0202301N00311007501CN0040001N1+02501+02321101261ADDAA106011091AG10004AY161061AY261061GF108991081061008001999999MA1999999101171MD1999999+0131MW1511REMSYN017 333 58013 60111;
0143829000999991995060212004-08050-034917FM-12+000799999V0202301N00311007501CN0100001N1+02551+02331101461ADDAA124026091AG10004AY161061AY261061GF106991051021008001011001KA1240N+02211MA1999999101371MD1999999+0031MW1011REMSYN023 333 20221 58003 60264;
0124829000999991995060218004-08050-034917FM-12+000799999V0202701N00151007501CN0100001N1+02491+02381101221ADDAA106002091AG10004AY161061AY221061GF107991071061008001001001MA1999999101131MD1999999-0041MW1031REMSYN017 333 59004 60021;
0143829000999991995060312004-08050-034917FM-12+000799999V0202301N00101007501CN0100001N1+02571+02401101461ADDAA124008091AG10004AY161061AY261061GF108991081051008001999999KA1240N+02211MA1999999101371MD1999999+0001MW1601REMSYN023 333 20221 58000 60084;
0096829000999991995060318004-08050-034917FM-12+000799999V0201801N00361220001CN0100001N1+02861+02231101201ADDAA106000091AG10000GF104991041021008001001001MA1999999101111MD1999999-0021REMSYN011 333 59002;
0143829000999991995060412004-08050-034917FM-12+000799999V0202301N00361012001CN0040001N1+02361+02291101561ADDAA124034091AG10004AY161061AY261061GF108991081081008001999999KA1240N+02111MA1999999101471MD1999999+0101MW1611REMSYN023 333 20211 58010 60344;
0124829000999991995060418004-08050-034917FM-12+000799999V0200301N00621007501CN0100001N1+02521+02231101461ADDAA106005091AG10004AY161061AY261061GF107991071061008001001001MA1999999101371MD1999999+0261MW1031REMSYN017 333 58026 60051;
0121829000999991995060512004-08050-034917FM-12+000799999V0201801N00511007501CN0100001N1+02761+02281101581ADDAA124005091AG10000GF106991051021008001011001KA1240N+02061MA1999999101491MD1999999+0021REMSYN023 333 20206 58002 60054;
0096829000999991995060518004-08050-034917FM-12+000799999V0201801N00511007501CN0100001N1+02681+02241101331ADDAA106000091AG10000GF107991071071008001001001MA1999999101241MD1999999-0131REMSYN011 333 59013;
0143829000999991995060612004-08050-034917FM-12+000799999V0202301N00101007501CN0020001N1+02291+02161101551ADDAA106004091AG10004AY161061AY221061GF107991071061008001001001KA1240M+02861MA1999999101461MD1999999-5901MW1031REMSYN023 333 10286 59590 60041;
0096829000999991995060618004-08050-034917FM-12+000799999V0201801N00511007501CN0100001N1+02781+02061101331ADDAA106000091AG10000GF105991051021008001001001MA1999999101241MD1999999+0001REMSYN011 333 58000;
0115829000999991995060700004-08050-034917FM-12+000799999V0201801N00151220001CN0020001N1+02531+02091101501ADDAA106000091AG10000GF104991041021008001001001KA1240M+02891MA1999999101411MD1999999-0051REMSYN017 333 10289 59005;
0124829000999991995060718004-08050-034917FM-12+000799999V0201801N00211007501CN0100001N1+02611+02291101421ADDAA106000591AG10000AY151061AY221061GF108991081031008001999999MA1999999101331MD1999999+0091MW1021REMSYN017 333 58009 69941;
0143829000999991995060800004-08050-034917FM-12+000799999V0201801N00211007501CN0020001N1+02351+02221101511ADDAA106002091AG10004AY161061AY221061GF107991071061008001001001KA1240M+02871MA1999999101421MD1999999+0011MW1031REMSYN023 333 10287 58001 60021;
0143829000999991995060812004-08050-034917FM-12+000799999V0201801N00411007501CN0100001N1+02611+02231101611ADDAA124012091AG10004AY161061AY261061GF107991061041008001021001KA1240N+02111MA1999999101521MD1999999+0111MW1011REMSYN023 333 20211 58011 60124;
0096829000999991995060818004-08050-034917FM-12+000799999V0201801N00511007501CN0100001N1+02791+02111101301ADDAA106000091AG10000GF107991071071008001001001MA1999999101211MD1999999-0121REMSYN011 333 59012;
0143829000999991995060912004-08050-034917FM-12+000799999V0201801N00511045001CN0100001N1+02771+02231101611ADDAA124000591AG10004AY161061AY221061GF105991041021008001031001KA1240N+02211MA1999999101521MD1999999+0001MW1021REMSYN023 333 20221 58000 69944;
0096829000999991995060918004-08050-034917FM-12+000799999V0201801N00511007501CN0100001N1+02751+02101101311ADDAA106000091AG10000GF105991051021008001001001MA1999999101221MD1999999+0011REMSYN011 333 58001;
0115829000999991995061000004-08050-034917FM-12+000799999V0209991C00001007501CN0020001N1+02351+02171101391ADDAA106000091AG10000GF106991061071008001001001KA1240M+02871MA1999999101301MD1999999-0151REMSYN017 333 10287 59015;
0143829000999991995061012004-08050-034917FM-12+000799999V0201801N00311007501CN0100001N1+02811+02251101501ADDAA124004091AG10004AY161061AY221061GF106991061021008001001001KA1240N+02071MA1999999101411MD1999999-0111MW1031REMSYN023 333 20207 59011 60044;
0096829000999991995061018004-08050-034917FM-12+000799999V0201801N00261007501CN0100001N1+02701+02331101281ADDAA106000091AG10000GF106991061071008001001001MA1999999101191MD1999999-0031REMSYN011 333 59003;
0104829000999991995061112004-08050-034917FM-12+000799999V0201801N002610075019N0100001N1+02711+02371101521ADDAG10004GF106991061021008001001001KA1240N+02001MA1999999101431MD1999999+0021REMSYN017 333 20200 58002;
0143829000999991995061118004-08050-034917FM-12+000799999V0201801N04832007501CN0100001N1+02681+02331101241ADDAA106000591AG10000AY151061AY211061GF107991071071008001001001MA1999999101151MD1999999-0041MW1031REMSYN017 333 59004 69941;EQDQ01+004833WOSPD 
0143829000999991995061212004-08050-034917FM-12+000799999V0202301N00311045001CN0100001N1+02681+02281101471ADDAA124002091AG10004AY161061AY221061GF105991041021008001031001KA1240N+02101MA1999999101381MD1999999-0051MW1011REMSYN023 333 20210 59005 60024;
0096829000999991995061218004-08050-034917FM-12+000799999V0201801N00311045001CN0100001N1+02851+02141101231ADDAA106000091AG10000GF106991031011008001031011MA1999999101141MD1999999-0011REMSYN011 333 59001;
0143829000999991995061300004-08050-034917FM-12+000799999V0201401N00101007501CN0020001N1+02391+02261101511ADDAA106001091AG10000AY151061AY221061GF107991071071008001001001KA1240M+02901MA1999999101421MD1999999+0121MW1501REMSYN023 333 10290 58012 69971;
0143829000999991995061312004-08050-034917FM-12+000799999V0201801N003610075019N0100001N1+02781+02271101651ADDAA124005091AG10004AY161061AY221061GF108991061041008001031001KA1240N+02221MA1999999101561MD1999999+0101MW1021REMSYN023 333 20222 58010 60054;
0124829000999991995061318004-08050-034917FM-12+000799999V0201401N00261007501CN0100001N1+02421+02301101411ADDAA106003091AG10004AY161061AY221061GF108991081051008001999999MA1999999101321MD1999999+0181MW1601REMSYN017 333 58018 60031;
0159829000999991995061412004-08050-034917FM-12+000799999V0202301N00311002401CN0100001N1+02301+02271101621ADDAA124042091AG10004AY161061AY261061GA1091+999999999GF109991091999999999999999KA1240N+02101MA1999999101531MD1999999-0031MW1211REMSYN023 333 20210 59003 60424;
0143829000999991995061512004-08050-034917FM-12+000799999V0202301N00211007501CN0100001N1+02551+02331101571ADDAA124011091AG10004AY161061AY221061GF106991051041008001031001KA1240N+02111MA1999999101481MD1999999-0051MW1021REMSYN023 333 20211 59005 60114;
0124829000999991995061518004-08050-034917FM-12+000799999V0202301N00261012001CN0100001N1+02531+02331101381ADDAA106000391AG10000AY151061AY221061GF108991081081008001999999MA1999999101291MD1999999+0021MW1031REMSYN017 333 58002 69931;
0143829000999991995061600004-08050-034917FM-12+000799999V0202301N00151012001CN0020001N1+02271+02161101461ADDAA106034091AG10013AY191061AY261061GF107991071081008001999999KA1240M+02891MA1999999101371MD1999999-0121MW1611REMSYN023 333 10289 59012 60341;
0143829000999991995061612004-08050-034917FM-12+000799999V0202301N00311007501CN0100001N1+02441+02321101491ADDAA124053091AG10004AY161061AY261061GF107991071071008001001001KA1240N+02111MA1999999101401MD1999999-0081MW1511REMSYN023 333 20211 59008 60534;
0124829000999991995061618004-08050-034917FM-12+000799999V0201801N00411007501CN0100001N1+02731+02281101281ADDAA106000591AG10000AY151061AY211061GF106991061021008001001001MA1999999101191MD1999999-0101MW1031REMSYN017 333 59010 69951;
0143829000999991995061712004-08050-034917FM-12+000799999V0202301N00211007501CN0100001N1+02601+02401101621ADDAA124015091AG10004AY161061AY221061GF106991061031008001001001KA1240N+02171MA1999999101531MD1999999-0131MW1021REMSYN023 333 20217 59013 60154;
0096829000999991995061718004-08050-034917FM-12+000799999V0201801N00311007501CN0100001N1+02721+02151101381ADDAA106000091AG10000GF105991051021008001001001MA1999999101291MD1999999+0101REMSYN011 333 58010;
0143829000999991995061812004-08050-034917FM-12+000799999V0201801N00411007501CN0100001N1+02681+02311101571ADDAA124002091AG10004AY161061AY221061GF106991051041008001021001KA1240N+02061MA1999999101481MD1999999-0051MW1011REMSYN023 333 20206 59005 60024;
0096829000999991995061818004-08050-034917FM-12+000799999V0201801N00311220001CN0100001N1+02771+02141101341ADDAA106000091AG10000GF104991041011008001001001MA1999999101251MD1999999-0041REMSYN011 333 59004;
0115829000999991995061900004-08050-034917FM-12+000799999V0201801N00101220001CN0020001N1+02311+02161101521ADDAA106000091AG10000GF101991011011008001001001KA1240M+02851MA1999999101431MD1999999-0081REMSYN017 333 10285 59008;
0115829000999991995061912004-08050-034917FM-12+000799999V0202301N00361007501CN0100001N1+02661+02221101561ADDAA106000091AG10000GF106991061021008001001001KA1240N+02071MA1999999101471MD1999999-0011REMSYN017 333 20207 59001;
0096829000999991995061918004-08050-034917FM-12+000799999V0201801N00511220001CN0100001N1+02761+02141101231ADDAA106000091AG10000GF101991011011008001001001MA1999999101141MD1999999-0111REMSYN011 333 59011;
0115829000999991995062000004-08050-034917FM-12+000799999V0202301N00261045001CN0020001N1+02391+02171101391ADDAA106000091AG10000GF105991041011008001031001KA1240M+02891MA1999999101301MD1999999-0131REMSYN017 333 10289 59013;
0122829000999991995062012004-08050-034917FM-12+000799999V0202301N004110024019N0040001N1+02281+02231101511ADDAG10000AY101061AY221061GA1091+999999999GF109991091999999999999999KA1999N+02031MA1999999101421MW1211REMSYN011 333 20203;
0124829000999991995062018004-08050-034917FM-12+000799999V0201401N00151012001CN0100001N1+02481+02321101261ADDAA106010091AG10004AY161061AY261061GF108991081081008001999999MA1999999101171MD1999999+0031MW1031REMSYN017 333 58003 60101;
0124829000999991995062118004-08050-034917FM-12+000799999V0201801N00261007501CN0100001N1+02701+02261101361ADDAA106003091AG10004AY161061AY261061GF106991051021008001031001MA1999999101271MD1999999+0101MW1031REMSYN017 333 58010 60031;
0143829000999991995062212004-08050-034917FM-12+000799999V0202301N00411007501CN0100001N1+02601+02291101631ADDAA124006091AG10004AY161061AY221061GF107991061041008001021001KA1240N+02041MA1999999101541MD1999999-0021MW1011REMSYN023 333 20204 59002 60064;
0124829000999991995062218004-08050-034917FM-12+000799999V0201801N00671007501CN0100001N1+02651+02291101351ADDAA106000591AG10000AY151061AY221061GF107991071061008001001001MA1999999101261MD1999999-0011MW1031REMSYN017 333 59001 69951;
0143829000999991995062312004-08050-034917FM-12+000799999V0201801N00511007501CN0100001N1+02721+02191101491ADDAA124005091AG10004AY161061AY221061GF105991051021008001001001KA1240N+02131MA1999999101401MD1999999-0141MW1021REMSYN023 333 20213 59014 60054;
0087829000999991995062318004-08050-034917FM-12+000799999V0201801N00211045001CN0100001N1+02661+02161101171ADDAG10000AY151061AY211061GF105991041021008001031001MA1999999101081MW1011REMSYN005 333;
0143829000999991995062412004-08050-034917FM-12+000799999V0201801N00311007501CN0100001N1+02561+02131101411ADDAA124000191AG10000AY151061AY221061GF108991071041008001021001KA1240N+02001MA1999999101321MD1999999-0081MW1031REMSYN023 333 20200 59008 69914;
0124829000999991995062418004-08050-034917FM-12+000799999V0202301N00261012001CN0100001N1+02371+02261101121ADDAA106003091AG10004AY161061AY261061GF108991081081008001999999MA1999999101031MD1999999-0051MW1031REMSYN017 333 59005 60031;
0143829000999991995062512004-08050-034917FM-12+000799999V0209991C00001012001CN0100001N1+02341+02271101611ADDAA124070091AG10004AY161061AY261061GF108991081081008001999999KA1240N+02081MA1999999101521MD1999999+0201MW1601REMSYN023 333 20208 58020 60704;
0124829000999991995062518004-08050-034917FM-12+000799999V0209991C00001012001CN0100001N1+02381+02351101371ADDAA106006091AG10004AY161061AY261061GF108991081081008001999999MA1999999101281MD1999999+0251MW1611REMSYN017 333 58025 60061;
0143829000999991995062612004-08050-034917FM-12+000799999V0202301N00101012001CN0100001N1+02341+02321101781ADDAA124032091AG10004AY161061AY261061GF108991081081008001999999KA1240N+02101MA1999999101691MD1999999+0161MW1621REMSYN023 333 20210 58016 60324;
0124829000999991995062618004-08050-034917FM-12+000799999V0201801N00311007501CN0040001N1+02331+02251101481ADDAA106027091AG10004AY161061AY261061GF108991081071008001999999MA1999999101391MD1999999+0111MW1531REMSYN017 333 58011 60271;
0143829000999991995062712004-08050-034917FM-12+000799999V0201401N00361007501CN0100001N1+02721+02191101641ADDAA124042091AG10004AY161061AY221061GF106991061021008001001001KA1240N+02051MA1999999101551MD1999999-0141MW1021REMSYN023 333 20205 59014 60424;
0143829000999991995062812004-08050-034917FM-12+000799999V0202301N00211007501CN0100001N1+02591+02271101591ADDAA124022091AG10004AY161061AY221061GF106991051041008001021001KA1240N+02111MA1999999101501MD1999999-0051MW1011REMSYN023 333 20211 59005 60224;
0096829000999991995062818004-08050-034917FM-12+000799999V0201801N00511045001CN0100001N1+02631+02161101361ADDAA106000091AG10000GF105991041021008001011001MA1999999101271MD1999999-0051REMSYN011 333 59005;
0162829000999991995062912004-08050-034917FM-12+000799999V0201801N00361007501CN0100001N1+02641+02251101511ADDAA124003091AG10004AY161061AY221061GF106991061021008001001001KA1240N+99999MA1999999101421MD1999999-0081MW1021REMSYN023 333 20296 59008 60034;EQDQ01 +02962ATMN  
0124829000999991995062918004-08050-034917FM-12+000799999V0202701N00211999999CN0100001N1+02391+02291101301ADDAA106004091AG10004AY161061AY221061GF108991081999008001999999MA1999999101211MD1999999-0061MW1601REMSYN017 333 59006 60041;
0143829000999991995063000004-08050-034917FM-12+000799999V0201801N00151012001CN0020001N1+02281+02261101531ADDAA106048091AG10004AY161061AY261061GF108991081081008001999999KA1240M+02851MA1999999101441MD1999999+0011MW1651REMSYN023 333 10285 58001 60481;
0143829000999991995063012004-08050-034917FM-12+000799999V0201801N00411007501CN0100001N1+02631+02181101521ADDAA124061091AG10004AY161061AY221061GF107991061041008001021001KA1240N+01801MA1999999101431MD1999999+0011MW1031REMSYN023 333 20180 58001 60614;
0124829000999991995063018004-08050-034917FM-12+000799999V0201801N00211007501CN0100001N1+02611+02191101441ADDAA106001091AG10004AY161061AY261061GF108991071061008001011001MA1999999101351MD1999999+0141MW1031REMSYN017 333 58014 60011;
0143829000999991995070100004-08050-034917FM-12+000799999V0209991C00001045001CN0020001N1+02311+02271101641ADDAA199000191AG10000AY151061AY221061GF106991041021008001031001KA1240M+02791MA1999999101551MD1999999+0111MW1031REMSYN023 333 10279 58011 69913;
0143829000999991995070112004-08050-034917FM-12+000799999V0201801N00211007501CN0100001N1+02601+02351101641ADDAA124010091AG10004AY161061AY221061GF107991051031008001031001KA1240N+02111MA1999999101551MD1999999+0121MW1021REMSYN023 333 20211 58012 60104;
0096829000999991995070118004-08050-034917FM-12+000799999V0201801N00311007501CN0100001N1+02651+02331101441ADDAA106000091AG10000GF107991051021008001031001MA1999999101351MD1999999+0001REMSYN011 333 58000;
0106829000999991995070212004-08050-034917FM-12+000799999V0200901N002610075019N0100001N1+02721+02481101651ADDAG10004AY161061AY221061GF107991061041008001021001KA1999N+02251MA1999999101561MW1031REMSYN011 333 20225;
0087829000999991995070218004-08050-034917FM-12+000799999V0201401N00311045001CN0100001N1+02751+02401101491ADDAG10004AY161061AY221061GF106991041021008001031001MA1999999101401MW1021REMSYN005 333;
0096829000999991995070318004-08050-034917FM-12+000799999V0201801N00411007501CN0100001N1+02741+02211101421ADDAA106000091AG10000GF106991061021008001001001MA1999999101331MD1999999-0071REMSYN011 333 59007;
0115829000999991995070400004-08050-034917FM-12+000799999V0201801N00311220001CN0020001N1+02531+02231101621ADDAA106000091AG10000GF103991021021008001021001KA1240M+02861MA1999999101531MD1999999-0101REMSYN017 333 10286 59010;
0143829000999991995070412004-08050-034917FM-12+000799999V0201401N00311007501CN0100001N1+02511+02291101641ADDAA124003091AG10004AY161061AY221061GF106991051041008001021001KA1240N+02101MA1999999101551MD1999999-0011MW1011REMSYN023 333 20210 59001 60034;
0096829000999991995070418004-08050-034917FM-12+000799999V0201401N00261045001CN0100001N1+02731+02101101401ADDAA106000091AG10000GF105991041021008001011001MA1999999101311MD1999999-0021REMSYN011 333 59002;
0143829000999991995070500004-08050-034917FM-12+000799999V0202301N00101045001CN0020001N1+02271+02211101631ADDAA106000591AG10000AY151061AY221061GF106991041021008001021001KA1240M+02841MA1999999101541MD1999999+0011MW1021REMSYN023 333 10284 58001 69951;
0143829000999991995070512004-08050-034917FM-12+000799999V0201801N00311220001CN0100001N1+02681+02261101661ADDAA124002091AG10004AY161061AY221061GF102991021021008001001001KA1240N+01961MA1999999101571MD1999999+0021MW1021REMSYN023 333 20196 58002 60024;
0096829000999991995070518004-08050-034917FM-12+000799999V0201801N00411007501CN0100001N1+02751+02101101431ADDAA106000091AG10000GF106991061021008001001001MA1999999101341MD1999999+0031REMSYN011 333 58003;
0121829000999991995070612004-08050-034917FM-12+000799999V0201801N00361045001CN0100001N1+02641+02271101601ADDAA124000591AG10000GF105991041041008001021001KA1240N+02081MA1999999101511MD1999999-0061REMSYN023 333 20208 59006 69944;
0096829000999991995070618004-08050-034917FM-12+000799999V0201401N00311007501CN0100001N1+02621+02121101371ADDAA106000091AG10000GF107991061061008001021001MA1999999101281MD1999999-0061REMSYN011 333 59006;
0143829000999991995070700004-08050-034917FM-12+000799999V0202301N00261007501CN0020001N1+02321+02151101631ADDAA124005091AG10004AY161061AY221061GF105991051031008001001001KA1240M+02841MA1999999101541MD1999999-0011MW1021REMSYN023 333 10284 59001 60054;
0162829000999991995070712004-08050-034917FM-12+000799999V0201801N00511007501CN0100001N1+02601+02231101641ADDAA124005091AG10004AY161061AY221061GF108991999021008001001001KA1240N+02101MA1999999101551MD1999999+0041MW1021REMSYN023 333 20210 58004 60054;EQDQ01+000052SCOTLC
0124829000999991995070718004-08050-034917FM-12+000799999V0201801N00511220001CN0100001N1+02731+02171101421ADDAA106002091AG10004AY161061AY221061GF103991021021008001031001MA1999999101331MD1999999+0051MW1021REMSYN017 333 58005 60021;
0096829000999991995071018004-08050-034917FM-12+000799999V0201801N00511220001CN0100001N1+02741+02101101431ADDAA106000091AG10000GF104991031021008001011001MA1999999101341MD1999999+0031REMSYN011 333 58003;
0124829000999991995071118004-08050-034917FM-12+000799999V0201801N00411220001CN0100001N1+02671+01971101421ADDAA106003091AG10004AY161061AY221061GF102991021021008001001001MA1999999101331MD1999999-0011MW1021REMSYN017 333 59001 60031;
0115829000999991995071200004-08050-034917FM-12+000799999V0202301N00151220001CN0020001N1+02111+01911101531ADDAA106000091AG10000GF102991021021008001001001KA1240M+02691MA1999999101441MD1999999+0031REMSYN017 333 10269 58003;
0143829000999991995071212004-08050-034917FM-12+000799999V0201801N00361007501CN0100001N1+02211+02151101601ADDAA124005091AG10004AY161061AY221061GF108991081061008001001001KA1240N+02001MA1999999101511MD1999999-0061MW1211REMSYN023 333 20200 59006 60054;
0124829000999991995071218004-08050-034917FM-12+000799999V0201801N00211007501CN0100001N1+02611+02001101211ADDAA106000591AG10000AY151061AY221061GF106991061021008001001001MA1999999101121MD1999999-0211MW1021REMSYN017 333 59021 69941;
0115829000999991995071300004-08050-034917FM-12+000799999V0202301N00151220001CN0020001N1+02251+01981101491ADDAA106000091AG10000GF102991021011008001001001KA1240M+02731MA1999999101401MD1999999-0041REMSYN017 333 10273 59004;
0121829000999991995071312004-08050-034917FM-12+000799999V0202301N00261007501CN0100001N1+02451+02111101531ADDAA124000591AG10000GF107991061041008001021001KA1240N+01961MA1999999101441MD1999999-0071REMSYN023 333 20196 59007 69944;
0096829000999991995071318004-08050-034917FM-12+000799999V0201801N00511007501CN0100001N1+02681+02021101311ADDAA106000091AG10000GF108991071051008001071001MA1999999101221MD1999999+0101REMSYN011 333 58010;
0143829000999991995071400004-08050-034917FM-12+000799999V0201801N00311220001CN0020001N1+02501+02071101511ADDAA106000191AG10000AY151061AY211061GF102991011021008001031001KA1240M+02721MA1999999101421MD1999999+0021MW1021REMSYN023 333 10272 58002 69921;
0143829000999991995071412004-08050-034917FM-12+000799999V0201401N00511045001CN0100001N1+02751+02101101591ADDAA124000391AG10000AY151061AY221061GF105991041041008001021001KA1240N+02231MA1999999101501MD1999999+0061MW1011REMSYN023 333 20223 58006 69934;
0096829000999991995071418004-08050-034917FM-12+000799999V0201801N00361007501CN0100001N1+02731+02101101461ADDAA106000091AG10000GF106991051041008001041001MA1999999101371MD1999999+0151REMSYN011 333 58015;
0143829000999991995071512004-08050-034917FM-12+000799999V0201801N00511220001CN0100001N1+02701+02031101621ADDAA124003091AG10004AY161061AY221061GF104991041021008001031001KA1240N+02161MA1999999101531MD1999999+0031MW1021REMSYN023 333 20216 58003 60034;
0096829000999991995071518004-08050-034917FM-12+000799999V0201801N00361007501CN0100001N1+02651+02271101421ADDAA106000091AG10000GF107991071031008001001001MA1999999101331MD1999999-0031REMSYN011 333 59003;
0143829000999991995071600004-08050-034917FM-12+000799999V0201401N00461007501CN0020001N1+02521+02091101601ADDAA106006091AG10004AY161061AY221061GF106991061031008001001001KA1240M+02871MA1999999101511MD1999999+0061MW1021REMSYN023 333 10287 58006 60061;
0143829000999991995071612004-08050-034917FM-12+000799999V0201401N00411007501CN0100001N1+02661+02221101631ADDAA124006091AG10004AY161061AY221061GF107991061041008001021001KA1240N+02231MA1999999101541MD1999999+0011MW1011REMSYN023 333 20223 58001 60064;
0096829000999991995071618004-08050-034917FM-12+000799999V0201401N00571220001CN0100001N1+02731+01931101371ADDAA106000091AG10000GF104991031021008001011001MA1999999101281MD1999999-0051REMSYN011 333 59005;
0143829000999991995071700004-08050-034917FM-12+000799999V0201801N00211007501CN0020001N1+02311+02201101511ADDAA106000591AG10000AY151061AY221061GF106991061041008001001001KA1240M+02821MA1999999101421MD1999999-0091MW1011REMSYN023 333 10282 59009 69951;
0143829000999991995071712004-08050-034917FM-12+000799999V0201801N00311007501CN0100001N1+02331+02311101541ADDAA106023091AG10004AY161061AY261061GF107991071031008001001001KA1240N+02181MA1999999101451MD1999999-0091MW1031REMSYN023 333 20218 59009 60231;
0124829000999991995071718004-08050-034917FM-12+000799999V0201801N00411007501CN0100001N1+02651+02271101341ADDAA106001091AG10004AY161061AY221061GF106991061021008001001001MA1999999101251MD1999999-0031MW1021REMSYN017 333 59003 60011;
0143829000999991995071812004-08050-034917FM-12+000799999V0201801N00311007501CN0100001N1+02701+02151101571ADDAA124003091AG10004AY161061AY221061GF107991061041008001021001KA1240N+02191MA1999999101481MD1999999+0031MW1011REMSYN023 333 20219 58003 60034;
0124829000999991995071818004-08050-034917FM-12+000799999V0201801N00261007501CN0100001N1+02501+02211101441ADDAA106002091AG10004AY161061AY221061GF106991061041008001001001MA1999999101351MD1999999+0101MW1021REMSYN017 333 58010 60021;
0143829000999991995071912004-08050-034917FM-12+000799999V0201801N00461007501CN0100001N1+02671+02261101641ADDAA124019091AG10004AY161061AY261061GF107991071041008001001001KA1240N+02181MA1999999101551MD1999999+0071MW1031REMSYN023 333 20218 58007 60194;
0096829000999991995071918004-08050-034917FM-12+000799999V0201401N00311007501CN0100001N1+02701+02241101421ADDAA106000091AG10000GF106991061021008001001001MA1999999101331MD1999999-0021REMSYN011 333 59002;
0143829000999991995072000004-08050-034917FM-12+000799999V0201401N00461220001CN0020001N1+02291+02191101721ADDAA106001091AG10004AY161061AY221061GF104991041021008001001001KA1240M+02821MA1999999101631MD1999999+0081MW1611REMSYN023 333 10282 58008 69981;
0143829000999991995072012004-08050-034917FM-12+000799999V0201801N00461007501CN0100001N1+02681+02161101691ADDAA124003091AG10004AY161061AY221061GF107991061041008001021001KA1240N+02231MA1999999101601MD1999999+0051MW1211REMSYN023 333 20223 58005 60034;
0124829000999991995072018004-08050-034917FM-12+000799999V0201801N00261007501CN0100001N1+02471+02211101521ADDAA106006091AG10004AY161061AY261061GF108991081061008001001001MA1999999101431MD1999999+0101MW1031REMSYN017 333 58010 60061;
0121829000999991995072112004-08050-034917FM-12+000799999V0201401N00311220001CN0100001N1+02651+02141101631ADDAA124013091AG10004GF102991021021008001001001KA1240N+02101MA1999999101541MD1999999-0061REMSYN023 333 20210 59006 60134;
0124829000999991995072118004-08050-034917FM-12+000799999V0201401N00671012001CN0100001N1+02681+02351101361ADDAA106001091AG10000AY121061AY221061GF108991081081008001999999MA1999999101271MD1999999-0161MW1611REMSYN017 333 59016 60011;
0143829000999991995072212004-08050-034917FM-12+000799999V0201401N00411045001CN0100001N1+02651+02351101541ADDAA124019091AG10004AY161061AY221061GF105991041021008001011001KA1240N+02041MA1999999101451MD1999999-0091MW1011REMSYN023 333 20204 59009 60194;
0124829000999991995072218004-08050-034917FM-12+000799999V0201801N00311007501CN0100001N1+02611+02191101381ADDAA106002091AG10004AY161061AY261061GF106991051041008001021001MA1999999101291MD1999999+0021MW1211REMSYN017 333 58002 60021;
0143829000999991995072412004-08050-034917FM-12+000799999V0201401N00411007501CN0100001N1+02401+02131101791ADDAA124054091AG10004AY161061AY261061GF107991061061008001021001KA1240N+02191MA1999999101701MD1999999+0081MW1011REMSYN023 333 20219 58008 60544;
0096829000999991995072418004-08050-034917FM-12+000799999V0201801N00311007501CN0100001N1+02601+01991101381ADDAA106000091AG10000GF106991051041008001021001MA1999999101291MD1999999-0021REMSYN011 333 59002;
0115829000999991995072500004-08050-034917FM-12+000799999V0201801N00211007501CN0020001N1+02491+01941101611ADDAA106000091AG10000GF106991051051008001061001KA1240M+02781MA1999999101521MD1999999+0011REMSYN017 333 10278 58001;
0115829000999991995072512004-08050-034917FM-12+000799999V0201401N00261045001CN0100001N1+02691+02131101551ADDAA106000091AG10000GF106991041021008001021001KA1240N+01871MA1999999101461MD1999999-0241REMSYN017 333 20187 59024;
0124829000999991995072518004-08050-034917FM-12+000799999V0201801N00361007501CN0100001N1+02581+02231101431ADDAA106000591AG10000AY151061AY221061GF107991051021008001021001MA1999999101341MD1999999+0051MW1021REMSYN017 333 58005 69951;
0143829000999991995072600004-08050-034917FM-12+000799999V0201401N00411007501CN0020001N1+02491+02091101551ADDAA106005091AG10004AY161061AY261061GF107991071021008001001001KA1240M+02771MA1999999101461MD1999999-0061MW1031REMSYN023 333 10277 59006 60051;
0143829000999991995072612004-08050-034917FM-12+000799999V0201401N00461007501CN0100001N1+02611+02291101531ADDAA124031091AG10004AY161061AY261061GF107991061071008001021001KA1240N+02111MA1999999101441MD1999999-0021MW1031REMSYN023 333 20211 59002 60314;
0124829000999991995072618004-08050-034917FM-12+000799999V0201401N00511007501CN0100001N1+02491+02151101281ADDAA106000191AG10004AY161061AY221061GF107991061061008001021001MA1999999101191MD1999999-0151MW1031REMSYN017 333 59015 69921;
0143829000999991995072700004-08050-034917FM-12+000799999V0202701N00101012001CN0020001N1+02281+02211101411ADDAA106007091AG10004AY161061AY261061GF108991081081008001999999KA1240M+02741MA1999999101321MD1999999-0141MW1031REMSYN023 333 10274 59014 60071;
0143829000999991995072712004-08050-034917FM-12+000799999V0201801N00211007501CN0100001N1+02491+02111101471ADDAA124035091AG10004AY161061AY261061GF107991051031008001031001KA1240N+02031MA1999999101381MD1999999-0061MW1031REMSYN023 333 20203 59006 60354;
0096829000999991995072718004-08050-034917FM-12+000799999V0201801N00311007501CN0100001N1+02681+02111101221ADDAA106000091AG10000GF107991051021008001031001MA1999999101131MD1999999-0061REMSYN011 333 59006;
0115829000999991995072812004-08050-034917FM-12+000799999V0201401N00411007501CN0100001N1+02691+02171101651ADDAA106000091AG10000GF106991051021008001011001KA1240N+02211MA1999999101561MD1999999+0181REMSYN017 333 20221 58018;
0096829000999991995072818004-08050-034917FM-12+000799999V0201801N00461007501CN0100001N1+02701+02131101271ADDAA106000091AG10000GF105991051021008001001001MA1999999101181MD1999999+0051REMSYN011 333 58005;
