0156829940999991995010100004-09667-035700FM-12+008999999V0201401N003119999999N9999999N9+02381+01971101471ADDAA106000091AG10000AY111061AY211061GF106991021001012501041041KA1240M+03071MA1999999100441MD1999999-0181MW1021REMSYN017 333 10307 59018;EQDQ01+000002VOVAR 
0143829940999991995010112004-09667-035700FM-12+008999999V0201401N00101045001CN0500001N1+02701+01961101481ADDAA124000591AG10019AY191061AY211061GF106991021021012501061011KA1240N+02141MA1999999100461MD1999999-0041MW1031REMSYN023 333 20214 59004 69964;
0156829940999991995010200004-09667-035700FM-12+008999999V0200501N00051045001CN9999999N9+02321+02161101481ADDAA106000091AG10000AY111061AY211061GF106991021021017501061001KA1240M+03161MA1999999100451MD1999999+0011MW1031REMSYN017 333 10316 58001;EQDQ01+000002VOVAR 
0143829940999991995010212004-09667-035700FM-12+008999999V0201401N00311045001CN0200001N1+02581+02041101491ADDAA124000591AG10019AY191061AY211061GF107991041031012501041001KA1240N+02061MA1999999100471MD1999999+0011MW1031REMSYN023 333 20206 58001 69954;
0124829940999991995010218004-09667-035700FM-12+008999999V0200901N00461220001CN0500001N1+02741+02081101241ADDAA106000591AG10019AY191061AY211061GF104991021011012501001011MA1999999100231MD1999999-0121MW1021REMSYN017 333 59012 69951;
0156829940999991995010300004-09667-035700FM-12+008999999V0200501N00211007501CN9999999N9+02391+02091101441ADDAA106000091AG10000AY101061AY221061GF105991051021008001001001KA1240M+02941MA1999999100421MD1999999-0031MW1031REMSYN017 333 10294 59003;EQDQ01+000002VOVAR 
0129829940999991995010312004-09667-035700FM-12+008999999V0201401N00101045001CN0100001N1+02301+02221101731ADDAA106003091AG10019AY191061AY211061GF108991041071012501021999KA1240N+02001MA1999999100701MW1031REMSYN023 333 20200 48023 60031;
0124829940999991995010318004-09667-035700FM-12+008999999V0201401N00771220001CN0500001N1+02921+02061101211ADDAA106000591AG10019AY191061AY211061GF103991021011012501001011MA1999999100201MD1999999-0031MW1011REMSYN017 333 59003 69951;
0156829940999991995010400004-09667-035700FM-12+008999999V0200901N00211220001CN9999999N9+02381+02051101431ADDAA106000091AG10000AY101061AY211061GF103991031011008001001001KA1240M+03061MA1999999100411MD1999999-0011MW1031REMSYN017 333 10306 59001;EQDQ01+000002VOVAR 
0143829940999991995010412004-09667-035700FM-12+008999999V0200901N00411045001CN0200001N1+02651+01901101441ADDAA124000591AG10019AY191061AY211061GF106991021031008001061001KA1240N+01991MA1999999100421MD1999999-0011MW1031REMSYN023 333 20199 59001 69964;
0124829940999991995010418004-09667-035700FM-12+008999999V0202301N00511045001CN0200001N1+02801+99999101281ADDAA106000191AG10019AY191061AY211061GF107991021021012501061011MA1999999100271MD1999999+0071MW1031REMSYN017 333 58007 69921;
0143829940999991995010512004-09667-035700FM-12+008999999V0201401N00311045001CN0100001N1+02561+02351101651ADDAA124002091AG10019AY191061AY211061GF108991041071012501041999KA1240N+02001MA1999999100631MD1999999+0211MW1031REMSYN023 333 20200 58021 60024;
0156829940999991995010600004-09667-035700FM-12+008999999V0201401N00361007501CN9999999N9+02421+02011101541ADDAA106000091AG10000AY101061AY221061GF105991051021008001001001KA1240M+02981MA1999999100521MD1999999+0111MW1031REMSYN017 333 10298 58011;EQDQ01+000002VOVAR 
0143829940999991995010612004-09667-035700FM-12+008999999V0200901N00151045001CN0200001N1+02301+02091101711ADDAA124002091AG10019AY191061AY211061GF106991031031008001061001KA1240N+01901MA1999999100681MD1999999+0051MW1031REMSYN023 333 20190 58005 60024;
0156829940999991995010700004-09667-035700FM-12+008999999V0200901N00101045001CN9999999N9+02281+02051101641ADDAA106000091AG10000AY101061AY221061GF106991031031008001041001KA1240M+02871MA1999999100611MD1999999+0091MW1031REMSYN017 333 10287 58009;EQDQ01+000002VOVAR 
0143829940999991995010712004-09667-035700FM-12+008999999V0200901N00101045001CN0200001N1+02601+02031101551ADDAA124005091AG10019AY191061AY211061GF106991031031008001061001KA1240N+01901MA1999999100531MD1999999-0151MW1031REMSYN023 333 20190 59015 60054;
0156829940999991995010800004-09667-035700FM-12+008999999V0200901N00151007501CN9999999N9+02331+02021101491ADDAA106000091AG10000AY101061AY221061GF105991051021008001001001KA1240M+02881MA1999999100461MD1999999-0151MW1031REMSYN017 333 10288 59015;EQDQ01+000002VOVAR 
0143829940999991995010812004-09667-035700FM-12+008999999V0200901N00361045001CN0200001N1+02581+01991101431ADDAA124000191AG10019AY191061AY211061GF106991031031008001061001KA1240N+01971MA1999999100411MD1999999+0051MW1031REMSYN023 333 20197 58005 69914;
0118829940999991995010818004-09667-035700FM-12+008999999V0200901N00511007501CN0500001N1+02861+02031101291ADDAA106000091AG10000AY101061AY221061GF105991051021008001001001MA1999999100281MD1999999-0081MW1031REMSYN011 333 59008;
0156829940999991995010900004-09667-035700FM-12+008999999V0200901N00461007501CN9999999N9+02491+02111101511ADDAA106000091AG10000AY101061AY221061GF105991051021008001001001KA1240M+02901MA1999999100491MD1999999+0031MW1031REMSYN017 333 10290 58003;EQDQ01+000002VOVAR 
0143829940999991995010912004-09667-035700FM-12+008999999V0201401N00411220001CN0500001N1+02761+02041101561ADDAA124000191AG10000AY101061AY211061GF105991021011012501001011KA1240N+02101MA1999999100541MD1999999+0131MW1011REMSYN023 333 20210 58013 69914;
0156829940999991995011000004-09667-035700FM-12+008999999V0200901N00151007501CN9999999N9+02401+02071101501ADDAA106000091AG10000AY101061AY221061GF105991051021008001001001KA1240M+03151MA1999999100481MD1999999-0011MW1031REMSYN017 333 10315 59001;EQDQ01+000002VOVAR 
0137829940999991995011012004-09667-035700FM-12+008999999V0200901N00461007501CN0500001N1+02701+01991101591ADDAA106000091AG10000AY101061AY221061GF105991051021008001001001KA1240N+01981MA1999999100571MD1999999+0031MW1031REMSYN017 333 20198 58003;
0118829940999991995011018004-09667-035700FM-12+008999999V0200901N00511045001CN0500001N1+02901+02201101361ADDAA106000091AG10000AY101061AY201061GF106991021021017501061001MA1999999100351MD1999999+0081MW1021REMSYN011 333 58008;
0156829940999991995011100004-09667-035700FM-12+008999999V0202301N00051045001CN9999999N9+02401+02131101531ADDAA106000091AG10000AY111061AY211061GF106991021021017501041011KA1240M+03161MA1999999100501MD1999999+0021MW1021REMSYN017 333 10316 58002;EQDQ01+000002VOVAR 
0143829940999991995011112004-09667-035700FM-12+008999999V0201401N00411045001CN0500001N1+02781+02201101571ADDAA124000191AG10019AY191061AY211061GF106991021021012501041011KA1240N+02181MA1999999100551MD1999999-0021MW1031REMSYN023 333 20218 59002 69914;
0118829940999991995011218004-09667-035700FM-12+008999999V0200501N00511220001CN0500001N1+02861+02031101281ADDAA106000091AG10000AY101061AY201061GF103991031011008001001001MA1999999100271MD1999999-0051MW1011REMSYN011 333 59005;
0156829940999991995011300004-09667-035700FM-12+008999999V0200901N00151007501CN9999999N9+02381+02091101491ADDAA106000091AG10000AY101061AY221061GF105991051021008001001001KA1240M+03101MA1999999100471MD1999999-0031MW1031REMSYN017 333 10310 59003;EQDQ01+000002VOVAR 
0143829940999991995011312004-09667-035700FM-12+008999999V0200501N00261012001CN0500001N1+02711+01991101411ADDAA124000591AG10019AY191061AY211061GF105991051021012501001001KA1240N+02171MA1999999100391MD1999999-0041MW1031REMSYN023 333 20217 59004 69944;
0118829940999991995011318004-09667-035700FM-12+008999999V0200901N00571007501CN0500001N1+02881+02051101291ADDAA106000091AG10000AY101061AY221061GF105991051021008001001001MA1999999100281MD1999999+0011MW1031REMSYN011 333 58001;
0126829940999991995011321004-09667-035700FM-12+008999999V0200801N00511007501CN0120001N1+02641+02071100771ADDAG10000AY121031AY211031GF107991051041008001031061MA1999999099761MD1999999-0041MW1151REMSYN011 333 59004;EQDQ01+999990APOSP 
0188829940999991995011400004-09667-035700FM-12+008999999V0200901N00101220001CN9999999N9+02401+02031101642ADDAA106000091AG10000AY101061AY201061GF103991031011008001001001KA1240M+03151MA1999999100642MD1999999+0151MW1031REMSYN017 333 10315 58015;EQDQ01+100643APOSP Q02+101643APOSLPQ03+000002VOVAR 
0137829940999991995011412004-09667-035700FM-12+008999999V0200901N00461045001CN0500001N1+02681+01971101621ADDAA106000091AG10000AY101061AY221061GF106991021031008001041001KA1240N+02151MA1999999100601MD1999999+0211MW1031REMSYN017 333 20215 58021;
0137829940999991995011512004-09667-035700FM-12+008999999V0200901N00311007501CN0500001N1+02701+01961101521ADDAA106000091AG10000AY101061AY221061GF105991051021008001001001KA1240N+02181MA1999999100501MD1999999-0101MW1031REMSYN017 333 20218 59010;
0118829940999991995011518004-09667-035700FM-12+008999999V0200501N00571220001CN0500001N1+02901+02021101331ADDAA106000091AG10000AY101061AY201061GF103991031011012501001001MA1999999100321MD1999999+0061MW1011REMSYN011 333 58006;
0143829940999991995011612004-09667-035700FM-12+008999999V0200901N00311012001CN0500001N1+02701+01991101631ADDAA124000591AG10019AY191061AY211061GF105991051031012501001001KA1240N+02161MA1999999100611MD1999999+0111MW1031REMSYN023 333 20216 58011 69954;
0156829940999991995011700004-09667-035700FM-12+008999999V0200901N00261007501CN9999999N9+02471+02051101631ADDAA106000091AG10000AY101061AY221061GF105991051021008001001001KA1240M+03101MA1999999100611MD1999999+0111MW1031REMSYN017 333 10310 58011;EQDQ01+000002VOVAR 
0137829940999991995011712004-09667-035700FM-12+008999999V0200901N00311007501CN0500001N1+02661+02001101601ADDAA106000091AG10000AY101061AY221061GF105991051021008001001001KA1240N+02151MA1999999100581MD1999999-0031MW1031REMSYN017 333 20215 59003;
0118829940999991995011718004-09667-035700FM-12+008999999V0200901N00571220001CN0500001N1+02861+02031101381ADDAA106000091AG10000AY101061AY201061GF103991031011008001001001MA1999999100371MD1999999-0021MW1011REMSYN011 333 59002;
0156829940999991995011800004-09667-035700FM-12+008999999V0200501N00261007501CN9999999N9+02371+02071101501ADDAA106000091AG10000AY101061AY221061GF105991051021008001001001KA1240M+03151MA1999999100481MD1999999-0131MW1031REMSYN017 333 10315 59013;EQDQ01+000002VOVAR 
0137829940999991995011812004-09667-035700FM-12+008999999V0200901N00361220001CN0500001N1+02701+02011101471ADDAA106000091AG10000AY101061AY221061GF104991041021008001001001KA1240N+02141MA1999999100451MD1999999-0131MW1031REMSYN017 333 20214 59013;
0118829940999991995011818004-09667-035700FM-12+008999999V0200901N00511220001CN0500001N1+02901+02041101271ADDAA106000091AG10000AY101061AY201061GF103991021031012501011001MA1999999100261MD1999999-0111MW1011REMSYN011 333 59011;
0156829940999991995011900004-09667-035700FM-12+008999999V0200501N00311007501CN9999999N9+02421+02111101511ADDAA106000091AG10000AY101061AY221061GF105991051021008001001001KA1240M+03171MA1999999100491MD1999999+0011MW1031REMSYN017 333 10317 58001;EQDQ01+000002VOVAR 
0118829940999991995011918004-09667-035700FM-12+008999999V0200901N00671220001CN0500001N1+02881+02051101431ADDAA106000091AG10000AY101061AY201061GF103991031011008001001001MA1999999100421MD1999999+0161MW1011REMSYN011 333 58016;
0156829940999991995012100004-09667-035700FM-12+008999999V0200901N00151007501CN9999999N9+02361+02051101671ADDAA106000091AG10000AY101061AY221061GF105991051021008001001001KA1240M+03091MA1999999100651MD1999999+0081MW1031REMSYN017 333 10309 58008;EQDQ01+000002VOVAR 
0137829940999991995012112004-09667-035700FM-12+008999999V0201401N00211220001CN0500001N1+02701+02031101581ADDAA106000091AG10000AY111061AY211061GF105991021011017501001041KA1240N+02201MA1999999100561MD1999999+0001MW1021REMSYN017 333 20220 58000;
0118829940999991995012118004-09667-035700FM-12+008999999V0200901N00511220001CN0500001N1+02881+02051101371ADDAA106000091AG10000AY101061AY201061GF103991031011008001001001MA1999999100361MD1999999-0061MW1011REMSYN011 333 59006;
0156829940999991995012200004-09667-035700FM-12+008999999V0200901N00211007501CN9999999N9+02391+02091101481ADDAA106000091AG10000AY101061AY221061GF105991051021008001001001KA1240M+03061MA1999999100461MD1999999-0091MW1031REMSYN017 333 10306 59009;EQDQ01+000002VOVAR 
0156829940999991995012300004-09667-035700FM-12+008999999V0200901N00311220001CN9999999N9+02481+02091101411ADDAA106000091AG10000AY101061AY221061GF104991041021008001001001KA1240M+03201MA1999999100391MD1999999-0071MW1031REMSYN017 333 10320 59007;EQDQ01+000002VOVAR 
0137829940999991995012312004-09667-035700FM-12+008999999V0200501N00311012001CN0500001N1+02711+02011101451ADDAA106000091AG10000AY101061AY221061GF105991051021012501001001KA1240N+02201MA1999999100431MD1999999-0061MW1031REMSYN017 333 20220 59006;
0118829940999991995012318004-09667-035700FM-12+008999999V0200901N00511220001CN0500001N1+02901+02071101181ADDAA106000091AG10000AY101061AY201061GF103991031011012501001001MA1999999100171MD1999999+0041MW1011REMSYN011 333 58004;
0156829940999991995012400004-09667-035700FM-12+008999999V0200901N00311220001CN9999999N9+02401+02111101481ADDAA106000091AG10000AY101061AY221061GF104991041011012501001001KA1240M+03191MA1999999100461MD1999999+0071MW1031REMSYN017 333 10319 58007;EQDQ01+000002VOVAR 
0137829940999991995012412004-09667-035700FM-12+008999999V0200901N00621007501CN0500001N1+02741+01971101381ADDAA106000091AG10000AY101061AY221061GF105991051021008001001001KA1240N+02201MA1999999100371MD1999999-0061MW1031REMSYN017 333 20220 59006;
0118829940999991995012518004-09667-035700FM-12+008999999V0200501N00571220001CN0500001N1+02901+02151101261ADDAA106000091AG10000AY101061AY201061GF103991031011008001001001MA1999999100251MD1999999-0041MW1011REMSYN011 333 59004;
0156829940999991995012600004-09667-035700FM-12+008999999V0200901N00151220001CN9999999N9+02391+02131101421ADDAA106000091AG10000AY101061AY201061GF103991031011008001001001KA1240M+03201MA1999999100401MD1999999-0061MW1011REMSYN017 333 10320 59006;EQDQ01+000002VOVAR 
0137829940999991995012612004-09667-035700FM-12+008999999V0200901N00311012001CN0500001N1+02701+01991101471ADDAA106000091AG10000AY101061AY221061GF105991051031012501001001KA1240N+02201MA1999999100451MD1999999-0201MW1031REMSYN017 333 20220 59020;
0156829940999991995012700004-09667-035700FM-12+008999999V0200501N00151007501CN9999999N9+02501+02071101551ADDAA106000091AG10000AY101061AY221061GF105991051021008001001001KA1240M+03181MA1999999100531MD1999999+0131MW1031REMSYN017 333 10318 58013;EQDQ01+000002VOVAR 
0137829940999991995012712004-09667-035700FM-12+008999999V0200501N00311220001CN0500001N1+02701+01991101551ADDAA106000091AG10000AY101061AY221061GF104991041021012501001001KA1240N+02181MA1999999100531MD1999999+0081MW1031REMSYN017 333 20218 58008;
0118829940999991995012718004-09667-035700FM-12+008999999V0200901N00511220001CN0500001N1+02881+02061101311ADDAA106000091AG10000AY101061AY201061GF103991031011008001001001MA1999999100301MD1999999+0041MW1011REMSYN011 333 58004;
0143829940999991995012812004-09667-035700FM-12+008999999V0200901N00211045001CN0200001N1+02701+01991101501ADDAA124007091AG10019AY191061AY211061GF106991031031012501061001KA1240N+02141MA1999999100481MD1999999-0051MW1031REMSYN023 333 20214 59005 60074;
0118829940999991995012818004-09667-035700FM-12+008999999V0200901N00411220001CN0500001N1+02891+02071101201ADDAA106000091AG10000AY101061AY221061GF104991041021008001001001MA1999999100191MD1999999-0111MW1031REMSYN011 333 59011;
0156829940999991995012900004-09667-035700FM-12+008999999V0201401N00151012001CN9999999N9+02301+02071101401ADDAA106000091AG10000AY101061AY221061GF105991051021012501001001KA1240M+03001MA1999999100381MD1999999-0091MW1031REMSYN017 333 10300 59009;EQDQ01+000002VOVAR 
0137829940999991995013012004-09667-035700FM-12+008999999V0201401N00571045001CN0500001N1+02811+02151101421ADDAA106000091AG10000AY111061AY211061GF106991021021012501061001KA1240N+02141MA1999999100401MD1999999+0011MW1021REMSYN017 333 20214 58001;
0156829940999991995013112004-09667-035700FM-12+008999999V0201401N00151045001CN0500001N1+02051+01931101381ADDAA106000091AG10000AY111061AY211061GF106991021021012501061011KA1240N+99999MA1999999100371MD1999999-0031MW1021REMSYN017 333 20219 59003;EQDQ01 +02192ATMN  
0118829940999991995013118004-09667-035700FM-12+008999999V0201401N00721220001CN0500001N1+02941+02111101191ADDAA106000091AG10000AY101061AY201061GF103991021011022501001011MA1999999100181MD1999999+0001MW1011REMSYN011 333 58000;
0156829940999991995020100004-09667-035700FM-12+008999999V0200901N00211012001CN9999999N9+02441+02111101291ADDAA106000091AG10000AY101061AY221061GF105991051021012501001001KA1240M+03201MA1999999100281MD1999999-0181MW1031REMSYN017 333 10320 59018;EQDQ01+000002VOVAR 
0137829940999991995020112004-09667-035700FM-12+008999999V0201401N00411220001CN0500001N1+02751+02121101491ADDAA106000091AG10000AY111061AY211061GF106991021021017501001011KA1240N+02181MA1999999100471MD1999999+0101MW1021REMSYN017 333 20218 58010;
0143829940999991995020400004-09667-035700FM-12+008999999V0200501N00051045001CN0500001N1+02501+01841101451ADDAA124000191AG10000AY111061AY211061GF105991021021012501061001KA1240N+02141MA1999999100431MD1999999-0031MW1031REMSYN023 333 20214 59003 69924;
0118829940999991995020418004-09667-035700FM-12+008999999V0201401N00511220001CN0500001N1+02901+02021101281ADDAA106000091AG10000AY111061AY211061GF105991021011017501001011MA1999999100271MD1999999-0061MW1011REMSYN011 333 59006;
0137829940999991995020512004-09667-035700FM-12+008999999V0201401N00411045001CN0200001N1+02841+02191101691ADDAA106000091AG10000AY121061AY221061GF107991021021012501061001KA1240N+02121MA1999999100671MD1999999+0241MW1031REMSYN017 333 20212 58024;
0118829940999991995020518004-09667-035700FM-12+008999999V0200501N00511045001CN0500001N1+02841+02221101401ADDAA106000091AG10000AY111061AY221061GF106991021031017501041001MA1999999100391MD1999999+0121MW1031REMSYN011 333 58012;
0156829940999991995020600004-09667-035700FM-12+008999999V0200901N00151007501CN9999999N9+02431+02131101631ADDAA106000091AG10000AY101061AY221061GF105991051031008001001001KA1240M+03151MA1999999100621MD1999999+0291MW1031REMSYN017 333 10315 58029;EQDQ01+000002VOVAR 
0137829940999991995020612004-09667-035700FM-12+008999999V0200901N00311045001CN0500001N1+02761+02321101631ADDAA106000091AG10000AY121061AY221061GF106991041021012501041041KA1240N+02291MA1999999100611MD1999999-0061MW1021REMSYN017 333 20229 59006;
0156829940999991995020700004-09667-035700FM-12+008999999V0200901N00211007501CN9999999N9+02301+02071101611ADDAA106000091AG10000AY101061AY221061GF106991061031008001001001KA1240M+03021MA1999999100591MD1999999-0031MW1031REMSYN017 333 10302 59003;EQDQ01+000002VOVAR 
0104829940999991995020703004-09667-035700FM-12+008999999V0200701N00261220001CN0200001N1+02521+02381101611ADDAG10000GF104991021021008001001011MA1999999100581MD1999999+0141REMSYN011 333 58014;EQDQ01+999990APOSP 
0137829940999991995020712004-09667-035700FM-12+008999999V0201401N00151045001CN0500001N1+02851+02141101701ADDAA106000091AG10000AY111061AY211061GF106991021021017501061001KA1240N+02241MA1999999100681MD1999999+0071MW1031REMSYN017 333 20224 58007;
0118829940999991995020718004-09667-035700FM-12+008999999V0201401N00511220001CN0500001N1+03081+02201101421ADDAA106000091AG10000AY101061AY201061GF106991021011022501001011MA1999999100411MD1999999+0001MW1011REMSYN011 333 58000;
0137829940999991995020812004-09667-035700FM-12+008999999V0200901N00511220001CN0200001N1+02981+02201101751ADDAA106000091AG10000AY101061AY201061GF104991021021012501001041KA1240N+02231MA1999999100741MD1999999+0061MW1021REMSYN017 333 20223 58006;
0156829940999991995020900004-09667-035700FM-12+008999999V0200901N00261045001CN9999999N9+02301+02071101751ADDAA106000091AG10000AY101061AY221061GF106991031031008001061001KA1240M+03181MA1999999100731MD1999999+0051MW1031REMSYN017 333 10318 58005;EQDQ01+000002VOVAR 
0137829940999991995020912004-09667-035700FM-12+008999999V0200501N00311007501CN0500001N1+02711+02061101711ADDAA106000091AG10000AY101061AY221061GF105991051021008001001001KA1240N+02211MA1999999100691MD1999999-0051MW1031REMSYN017 333 20221 59005;
0118829940999991995020918004-09667-035700FM-12+008999999V0200501N00721220001CN0500001N1+03101+02091101451ADDAA106000091AG10000AY101061AY201061GF103991031021008001001001MA1999999100441MD1999999+0011MW1011REMSYN011 333 58001;
0156829940999991995021000004-09667-035700FM-12+008999999V0200901N00311007501CN9999999N9+02471+02131101661ADDAA106000091AG10000AY101061AY221061GF105991051021008001001001KA1240M+03381MA1999999100651MD1999999-0081MW1031REMSYN017 333 10338 59008;EQDQ01+000002VOVAR 
0137829940999991995021012004-09667-035700FM-12+008999999V0200901N00311007501CN0500001N1+02721+02051101721ADDAA106000091AG10000AY101061AY221061GF105991051021008001001001KA1240N+02241MA1999999100701MD1999999+0011MW1031REMSYN017 333 20224 58001;
0156829940999991995021100004-09667-035700FM-12+008999999V0200901N00151045001CN9999999N9+02281+02011101671ADDAA106000091AG10000AY101061AY221061GF106991031031008001061001KA1240M+02801MA1999999100651MD1999999+0001MW1031REMSYN017 333 10280 58000;EQDQ01+000002VOVAR 
0118829940999991995021118004-09667-035700FM-12+008999999V0200901N00511007501CN0500001N1+02881+02051100461ADDAA106000091AG10000AY101061AY221061GF105991051021008001001001MA1999999100451MD1999999-0151MW1031REMSYN011 333 59015;
0172829940999991995021200004-09667-035700FM-12+008999999V0200901N00151007501CN9999999N9+02471+02071101552ADDAA106000091AG10000AY101061AY221061GF105991051021008001001001KA1240M+02941MA1999999100541MD1999999-0111MW1031REMSYN017 333 10294 59011;EQDQ01+101553APOSLPQ02+000002VOVAR 
0137829940999991995021212004-09667-035700FM-12+008999999V0200901N00311012001CN0500001N1+02751+02101101621ADDAA106000091AG10000AY101061AY221061GF105991051021012501001001KA1240N+02201MA1999999100601MD1999999-0041MW1031REMSYN017 333 20220 59004;
0137829940999991995021312004-09667-035700FM-12+008999999V0200901N00361012001CN0500001N1+02751+02001101541ADDAA106000091AG10000AY101061AY221061GF105991051031012501001001KA1240N+02181MA1999999100521MD1999999-0021MW1031REMSYN017 333 20218 59002;
0137829940999991995021412004-09667-035700FM-12+008999999V0200901N00261045001CN0200001N1+02601+02031101521ADDAA106000091AG10000AY101061AY221061GF106991021031008001061001KA1240N+02151MA1999999100501MD1999999-0021MW1031REMSYN017 333 20215 59002;
0153829940999991995021418004-09667-035700FM-12+008999999V0200901N00461012001CN0500001N1+02881+01971101411ADDAA106000091AG10000AY101061AY221061GF105991051021012501001001MA1999999100401MD1999999+0041MW1031REMSYN011 333 58004;EQDQ01+100413APOSLPQ02+999990APOSLP
0156829940999991995021500004-09667-035700FM-12+008999999V0200501N00261007501CN9999999N9+02401+02101101571ADDAA106000091AG10000AY101061AY221061GF105991051021008001001001KA1240M+02931MA1999999100541MD1999999+0141MW1031REMSYN017 333 10293 58014;EQDQ01+000002VOVAR 
0118829940999991995021618004-09667-035700FM-12+008999999V0200901N00621220001CN0500001N1+02901+02041101251ADDAA106000091AG10000AY101061AY201061GF103991031011008001001001MA1999999100241MD1999999+0021MW1011REMSYN011 333 58002;
0118829940999991995021718004-09667-035700FM-12+008999999V0200901N00721220001CN0500001N1+03101+02091101071ADDAA106000091AG10000AY101061AY201061GF103991031011008001001001MA1999999100071MD1999999+0171MW1011REMSYN011 333 58017;
0156829940999991995021800004-09667-035700FM-12+008999999V0200901N00361007501CN9999999N9+02471+02171101271ADDAA106000091AG10000AY101061AY221061GF105991051021008001001001KA1240M+03401MA1999999100261MD1999999-0051MW1031REMSYN017 333 10340 59005;EQDQ01+000002VOVAR 
0143829940999991995021812004-09667-035700FM-12+008999999V0201401N00461045001CN0200001N1+02701+02461101371ADDAA124003091AG10018AY191061AY211061GF107991041021012501061011KA1240N+02211MA1999999100351MD1999999-0011MW1031REMSYN023 333 20221 59001 60034;
0118829940999991995021818004-09667-035700FM-12+008999999V0201401N00511220001CN0500001N1+02981+02331101091ADDAA106000091AG10000AY111061AY211061GF106991021011012501001041MA1999999100081MD1999999+0011MW1021REMSYN011 333 58001;
0118829940999991995021918004-09667-035700FM-12+008999999V0200401N00511220001CN0500001N1+02951+01961101091ADDAA106000091AG10000AY101061AY201061GF103991021011017501001011MA1999999100801MD1999999+0001MW1011REMSYN011 333 58000;
0137829940999991995022012004-09667-035700FM-12+008999999V0201401N00261220001CN0500001N1+02881+01801101331ADDAA106000091AG10000AY101061AY211061GF104991021021012501001011KA1240N+02201MA1999999100321MD1999999-0051MW1021REMSYN017 333 20220 59005;
0118829940999991995022018004-09667-035700FM-12+008999999V0201401N00671220001CN0500001N1+02941+01791101131ADDAA106000091AG10000AY101061AY201061GF103991021011017501001011MA1999999100121MD1999999+0041MW1011REMSYN011 333 58004;
0118829940999991995022118004-09667-035700FM-12+008999999V0201401N00511220001CN0500001N1+02901+01991101181ADDAA106000091AG10000AY101061AY201061GF104991021021017501061001MA1999999100171MD1999999-0051MW1011REMSYN011 333 59005;
0156829940999991995022300004-09667-035700FM-12+008999999V0200501N00051220001CN9999999N9+02361+02131101431ADDAA106000091AG10000AY111061AY211061GF104991021021012501061041KA1240M+03061MA1999999100401MD1999999+0021MW1021REMSYN017 333 10306 58002;EQDQ01+000002VOVAR 
0143829940999991995022312004-09667-035700FM-12+008999999V0201401N00511045001CN0500001N1+02801+02131101421ADDAA124000191AG10018AY191061AY211061GF105991021021017501061001KA1240N+02231MA1999999100401MD1999999-0051MW1031REMSYN023 333 20223 59005 69924;
0137829940999991995022412004-09667-035700FM-12+008999999V0201401N00411045001CN0500001N1+02881+01731101511ADDAA106000091AG10000AY111061AY211061GF106991021011017501061011KA1240N+02201MA1999999100501MD1999999+0101MW1011REMSYN017 333 20220 58010;
0137829940999991995022512004-09667-035700FM-12+008999999V0200901N00361220001CN0500001N1+02901+02171101571ADDAA106000091AG10000AY111061AY211061GF106991021021017501001041KA1240N+02241MA1999999100561MD1999999+0061MW1031REMSYN017 333 20224 58006;
0118829940999991995022518004-09667-035700FM-12+008999999V0200901N00621045001CN0500001N1+03061+01831101291ADDAA106000091AG10000AY111061AY221061GF106991021021022501041001MA1999999100281MD1999999+0061MW1031REMSYN011 333 58006;
0143829940999991995022612004-09667-035700FM-12+008999999V0200901N00211045001CN0500001N1+02681+01641101641ADDAA124000391AG10018AY191061AY211061GF106991021021012501041011KA1240N+02161MA1999999100621MD1999999+0061MW1031REMSYN023 333 20216 58006 69934;
0124829940999991995022618004-09667-035700FM-12+008999999V0200501N00461045001CN0500001N1+02981+02011101311ADDAA106004091AG10000AY111061AY211061GF106991021031017501061001MA1999999100301MD1999999+0021MW1031REMSYN017 333 58002 60041;
0143829940999991995022812004-09667-035700FM-12+008999999V0201401N00461045001CN0500001N1+02881+02131101521ADDAA124000191AG10018AY191061AY211061GF106991021021012501061001KA1240N+02291MA1999999100511MD1999999-0041MW1021REMSYN023 333 20229 59004 69924;
0156829940999991995030100004-09667-035700FM-12+008999999V0200501N00101045001CN9999999N9+02521+02271101411ADDAA106000091AG10000AY121061AY221061GF106991041021012501041011KA1240M+03351MA1999999100381MD1999999-0091MW1031REMSYN017 333 10335 59009;EQDQ01+000002VOVAR 
0143829940999991995030112004-09667-035700FM-12+008999999V0201401N00411045001CN0500001N1+02741+02241101541ADDAA124009091AG10017AY191061AY211061GF106991041031012501041001KA1240N+02201MA1999999100531MD1999999+0021MW1031REMSYN023 333 20220 58002 60094;
0156829940999991995030200004-09667-035700FM-12+008999999V0201801N00101045001CN9999999N9+02501+02211101481ADDAA106000091AG10000AY121061AY221061GF106991021021012501061001KA1240M+03271MA1999999100451MD1999999+0081MW1031REMSYN017 333 10327 58008;EQDQ01+000002VOVAR 
0143829940999991995030212004-09667-035700FM-12+008999999V0201401N00621045001CN0500001N1+02841+02171101671ADDAA124002091AG10017AY191061AY211061GF106991041031012501041001KA1240N+02291MA1999999100661MD1999999+0131MW1031REMSYN023 333 20229 58013 60024;
0118829940999991995030318004-09667-035700FM-12+008999999V0201401N00821105001CN0500001N1+02981+02121101431ADDAA106000091AG10000AY111061AY211061GF105991021011017501041011MA1999999100421MD1999999+0061MW1021REMSYN011 333 58006;
0137829940999991995030412004-09667-035700FM-12+008999999V0201401N00411045001CN0500001N1+02941+01941101521ADDAA106000091AG10000AY111061AY211061GF106991021021017501061001KA1240N+02281MA1999999100511MD1999999-0081MW1031REMSYN017 333 20228 59008;
0137829940999991995030512004-09667-035700FM-12+008999999V0200901N00721045001CN0500001N1+02981+01981101541ADDAA106000091AG10000AY111061AY211061GF105991021011017501061001KA1240N+02251MA1999999100531MD1999999+0021MW1021REMSYN017 333 20225 58002;
0118829940999991995030518004-09667-035700FM-12+008999999V0201401N00571220001CN0500001N1+03041+01941101331ADDAA106000091AG10000AY101061AY201061GF104991021011017501061001MA1999999100321MD1999999+0021MW1021REMSYN011 333 58002;
0137829940999991995030612004-09667-035700FM-12+008999999V0201401N00261045001CN0500001N1+02861+02111101411ADDAA106000091AG10000AY111061AY211061GF106991041021017501041001KA1240N+02201MA1999999100401MD1999999-0131MW1021REMSYN017 333 20220 59013;
0118829940999991995030618004-09667-035700FM-12+008999999V0201401N00771220001CN0500001N1+03021+02071101241ADDAA106000091AG10000AY101061AY201061GF103991021011017501001011MA1999999100231MD1999999-0091MW1011REMSYN011 333 59009;
0125829940999991995030712004-09667-035700FM-12+008999999V0201401N00671220001CN0500001N1+02861+02141101391ADDAG10017AY191061AY211061GF105991021021012501001041KA1999N+02361MA1999999100381MW1021REMSYN011 333 20236;EQDQ01+999990APOSP 
0156829940999991995030900004-09667-035700FM-12+008999999V0200901N00151012001CN9999999N9+02481+02091101381ADDAA106000091AG10000AY101061AY221061GF105991051021012501001001KA1240M+03321MA1999999100371MD1999999-0011MW1031REMSYN017 333 10332 59001;EQDQ01+000002VOVAR 
0137829940999991995030912004-09667-035700FM-12+008999999V0201401N00511045001CN0500001N1+02921+02041101551ADDAA106000091AG10000AY111061AY211061GF106991021021017501061001KA1240N+02221MA1999999100541MD1999999+0141MW1021REMSYN017 333 20222 58014;
0118829940999991995030918004-09667-035700FM-12+008999999V0201401N00721220001CN0500001N1+03021+01991101291ADDAA106000091AG10000AY101061AY211061GF106991021011022501001041MA1999999100281MD1999999+0091MW1021REMSYN011 333 58009;
0156829940999991995031000004-09667-035700FM-12+008999999V0200901N00361007501CN9999999N9+02471+02091101561ADDAA106000091AG10000AY101061AY221061GF106991061021008001001001KA1240M+03301MA1999999100551MD1999999+0181MW1031REMSYN017 333 10330 58018;EQDQ01+000002VOVAR 
0137829940999991995031012004-09667-035700FM-12+008999999V0201401N00461045001CN0500001N1+02941+02241101661ADDAA106000091AG10000AY111061AY221061GF106991021021012501041011KA1240N+02301MA1999999100651MD1999999+0111MW1031REMSYN017 333 20230 58011;
0118829940999991995031018004-09667-035700FM-12+008999999V0200901N00311220001CN0500001N1+02961+02181101371ADDAA106000091AG10000AY111061AY211061GF105991021011017501001041MA1999999100361MD1999999+0081MW1031REMSYN011 333 58008;
0162829940999991995031100004-09667-035700FM-12+008999999V0200901N00211045001CN9999999N9+02491+02171101641ADDAA106000591AG10017AY191061AY211061GF106991021031008001061001KA1240M+03271MA1999999100621MD1999999+0071MW1031REMSYN023 333 10327 58007 69961;EQDQ01+000002VOVAR 
0143829940999991995031112004-09667-035700FM-12+008999999V0200501N00261045001CN0200001N1+02721+01991101711ADDAA124001091AG10017AY191061AY211061GF106991031031012501061001KA1240N+02201MA1999999100691MD1999999+0041MW1031REMSYN023 333 20220 58004 69974;
0162829940999991995031200004-09667-035700FM-12+008999999V0200901N00211007501CN9999999N9+02421+02071101451ADDAA106000191AG10017AY191061AY211061GF105991051021008001001001KA1240M+03201MA1999999100441MD1999999-0181MW1031REMSYN023 333 10320 59018 69911;EQDQ01+000002VOVAR 
0143829940999991995031218004-09667-035700FM-12+008999999V0200901N00461045001CN0500001N1+02751+01951101411ADDAA106004091AG10017AY191061AY211061GF106991021031008001061001KA1240N+02191MA1999999100391MD1999999-0301MW1031REMSYN023 333 20219 59030 60041;
0143829940999991995031312004-09667-035700FM-12+008999999V0201401N00511045001CN0100001N1+02651+02291101241ADDAA124010091AG10017AY191061AY211061GF108991021071012501041999KA1240N+02301MA1999999100221MD1999999-0171MW1031REMSYN023 333 20230 59017 60104;
0156829940999991995031400004-09667-035700FM-12+008999999V0200901N00151007501CN9999999N9+02401+02091101311ADDAA106000091AG10000AY101061AY221061GF106991061031008001001001KA1240M+02981MA1999999100291MD1999999-0061MW1031REMSYN017 333 10298 59006;EQDQ01+000002VOVAR 
0137829940999991995031412004-09667-035700FM-12+008999999V0201401N00671045001CN0500001N1+02841+02171101211ADDAA106000091AG10000AY111061AY211061GF106991021021012501061001KA1240N+02241MA1999999100201MD1999999-0021MW1021REMSYN017 333 20224 59002;
0118829940999991995031418004-09667-035700FM-12+008999999V0201401N00511220001CN0500001N1+03041+01971100921ADDAA106000091AG10000AY101061AY201061GF108991021011017501001011MA1999999100921MD1999999-0151MW1011REMSYN011 333 59015;
0134829940999991995031512004-09667-035700FM-12+008999999V0201401N002119999999N0500001N1+02901+02221101321ADDAA106000091AG10000GF106991021021999999061041KA1240N+02301MA1999999100311MD1999999+0111REMSYN017 333 20230 58011;EQDQ01+000992SCOLCB
0118829940999991995031518004-09667-035700FM-12+008999999V0201401N00461045001CN0500001N1+02921+02291101081ADDAA106000091AG10000AY121061AY221061GF106991021021017501041011MA1999999100081MD1999999+0161MW1031REMSYN011 333 58016;
0156829940999991995031600004-09667-035700FM-12+008999999V0200901N00211007501CN9999999N9+02471+01011101371ADDAA106000091AG10000AY101061AY221061GF105991051031008001001001KA1240M+03181MA1999999100361MD1999999+0101MW1031REMSYN017 333 10318 58010;EQDQ01+000002VOVAR 
0126829940999991995031612004-09667-035700FM-12+008999999V0201401N005110450019N0500001N1+02911+02041101491ADDAG10000AY111061AY211061GF106991021011017501041001KA1240N+02321MA1999999100481MD1999999+0171MW1031REMSYN017 333 20232 58017;
0118829940999991995031618004-09667-035700FM-12+008999999V0200901N00311220001CN0500001N1+02971+02131101181ADDAA106000091AG10000AY101061AY201061GF103991031011008001001001MA1999999100181MD1999999+0101MW1011REMSYN011 333 58010;
0123829940999991995032012004-09667-035700FM-12+008999999V0201401N00361045001CN0200001N1+02881+02181101561ADDAA124003091AG10017AY191061AY211061GF107991041021012501061001KA1240N+02261MA1999999100551MW1031REMSYN017 333 20226 60034;
0104829940999991995032018004-09667-035700FM-12+008999999V0201401N00511045001CN0500001N1+02881+02231101391ADDAA106003091AG10017AY191061AY211061GF106991021021017501061001MA1999999100381MW1031REMSYN011 333 60031;
0143829940999991995032112004-09667-035700FM-12+008999999V0201401N00211045001CN0500001N1+02791+02181101521ADDAA124003091AG10000AY121061AY221061GF106991021021012501061001KA1240N+02291MA1999999100511MD1999999-0041MW1031REMSYN023 333 20229 59004 60034;
0118829940999991995032118004-09667-035700FM-12+008999999V0201801N00311220001CN0500001N1+03001+02111101301ADDAA106000091AG10000AY111061AY211061GF106991021021022501001041MA1999999100291MD1999999-0091MW1021REMSYN011 333 59009;
0156829940999991995032200004-09667-035700FM-12+008999999V0200901N00051007501CN9999999N9+02451+02071101511ADDAA106000091AG10000AY101061AY221061GF105991051021008001001001KA1240M+03061MA1999999100481MD1999999-0051MW1031REMSYN017 333 10306 59005;EQDQ01+000002VOVAR 
0123829940999991995032212004-09667-035700FM-12+008999999V0201401N00101045001CN0500001N1+02961+02311101321ADDAA106000091AG10000AY111061AY211061GF106991021011017501041001KA1240N+02241MA1999999100311MW1031REMSYN017 333 20224 58///;
0156829940999991995032300004-09667-035700FM-12+008999999V0200901N00101007501CN9999999N9+02481+02051101271ADDAA106000091AG10000AY101061AY221061GF106991061021008001001001KA1240M+03221MA1999999100261MD1999999-0221MW1031REMSYN017 333 10322 59022;EQDQ01+000002VOVAR 
0156829940999991995032400004-09667-035700FM-12+008999999V0201401N00311007501CN9999999N9+02401+02111101291ADDAA106000091AG10000AY101061AY221061GF105991051031008001001001KA1240M+03251MA1999999100281MD1999999+0021MW1031REMSYN017 333 10325 58002;EQDQ01+000002VOVAR 
0137829940999991995032412004-09667-035700FM-12+008999999V0200901N00461007501CN0500001N1+02701+99999101371ADDAA106000091AG10000AY101061AY221061GF105991051031008001001001KA1240N+02241MA1999999100361MD1999999+0151MW1031REMSYN017 333 20224 58015;
0156829940999991995032500004-09667-035700FM-12+008999999V0200501N00261007501CN9999999N9+02411+02031101231ADDAA106000091AG10000AY101061AY221061GF105991051031008001001001KA1240M+03301MA1999999100221MD1999999-0061MW1031REMSYN017 333 10330 59006;EQDQ01+000002VOVAR 
0118829940999991995032518004-09667-035700FM-12+008999999V0201401N00621220001CN0500001N1+02961+02151101031ADDAA106000091AG10000AY101061AY201061GF103991031011017501001001MA1999999100031MD1999999-0121MW1011REMSYN011 333 59012;
0118829940999991995032618004-09667-035700FM-12+008999999V0200901N00621007501CN0500001N1+02961+02211101051ADDAA106000091AG10000AY101061AY221061GF105991051031008001001001MA1999999100051MD1999999+0021MW1031REMSYN011 333 58002;
0118829940999991995032712004-09667-035700FM-12+008999999V0200901N00361012001CN0500001N1+02901+02151101291ADDAA106000091AG10000AY101061AY221061GF105991051021012501001001MA1999999100281MD1999999+0091MW1031REMSYN011 333 58009;
0118829940999991995032718004-09667-035700FM-12+008999999V0201401N00671220001CN0500001N1+03001+02141101131ADDAA106000091AG10000AY101061AY201061GF103991031011008001001001MA1999999100131MD1999999+0081MW1011REMSYN011 333 58008;
0137829940999991995032812004-09667-035700FM-12+008999999V0200901N00211045001CN0500001N1+02941+02031101251ADDAA106000091AG10000AY111061AY211061GF105991021011012501041001KA1240N+02141MA1999999100241MD1999999-0191MW1021REMSYN017 333 20214 59019;
0118829940999991995032818004-09667-035700FM-12+008999999V0201401N00571220001CN0500001N1+03121+02141100971ADDAA106000091AG10000AY101061AY211061GF106991021011017501001041MA1999999099971MD1999999-0161MW1021REMSYN011 333 59016;
0156829940999991995032900004-09667-035700FM-12+008999999V0200901N00211007501CN9999999N9+02501+02231101241ADDAA106000091AG10000AY101061AY221061GF105991051031008001001001KA1240M+03271MA1999999100231MD1999999+0031MW1031REMSYN017 333 10327 58003;EQDQ01+000002VOVAR 
0137829940999991995032912004-09667-035700FM-12+008999999V0201401N00511105001CN0500001N1+02861+02161101351ADDAA106000091AG10000AY111061AY211061GF106991021021017501061041KA1240N+02231MA1999999100341MD1999999+0101MW1031REMSYN017 333 20223 58010;
0137829940999991995033012004-09667-035700FM-12+008999999V0200901N00311012001CN0500001N1+02771+01971101351ADDAA106000091AG10000AY101061AY221061GF105991051031012501001001KA1240N+02241MA1999999100341MD1999999+0131MW1031REMSYN017 333 20224 58013;
0156829940999991995033100004-09667-035700FM-12+008999999V0201401N00261220001CN9999999N9+02501+02191101271ADDAA106000091AG10000AY101061AY221061GF104991041021008001001001KA1240M+03301MA1999999100261MD1999999-0031MW1031REMSYN017 333 10330 59003;EQDQ01+000002VOVAR 
0126829940999991995033112004-09667-035700FM-12+008999999V0201401N00311045001CN0500001N1+02941+02311101331ADDAG10000AY111061AY211061GF106991021011012501061011KA1240N+02241MA1999999100381MD1999999-0021MW1021REMSYN017 333 20224 59002;
0137829940999991995040112004-09667-035700FM-12+008999999V0201401N00511045001CN0500001N1+02861+01921101361ADDAA106000091AG10000AY111061AY211061GF106991021021017501061001KA1240N+02291MA1999999100351MD1999999+0031MW1021REMSYN017 333 20229 58003;
0118829940999991995040118004-09667-035700FM-12+008999999V0200501N00511220001CN0500001N1+02961+02181101051ADDAA106000091AG10000AY111061AY211061GF104991021021012501061011MA1999999100051MD1999999-0101MW1021REMSYN011 333 59010;
0143829940999991995040212004-09667-035700FM-12+008999999V0201401N00411045001CN0500001N1+02961+02131101341ADDAA124000191AG10016AY191061AY211061GF106991021021017501061011KA1240N+02361MA1999999100331MD1999999-0021MW1031REMSYN023 333 20236 59002 69924;
0118829940999991995040218004-09667-035700FM-12+008999999V0201401N00621220001CN0500001N1+03001+01911101051ADDAA106000091AG10000AY101061AY211061GF104991021011017501001011MA1999999100051MD1999999+0001MW1021REMSYN011 333 58000;
0156829940999991995040300004-09667-035700FM-12+008999999V0200501N00051045001CN9999999N9+02471+02061101321ADDAA106000091AG10000AY111061AY211061GF106991021021012501041001KA1240M+03321MA1999999100291MD1999999+0001MW1021REMSYN017 333 10332 58000;EQDQ01+000002VOVAR 
0124829940999991995040412004-09667-035700FM-12+008999999V0201401N00211045001CN0500001N1+02861+02441101311ADDAA124000191AG10000AY121061AY221061GF106991021031012501061001MA1999999100301MD1999999+0001MW1031REMSYN017 333 58000 69914;
0106829940999991995040500004-09667-035700FM-12+008999999V0200901N00261007501CN9999999N9+02401+02131101321ADDAG10016AY191061AY211061GF105991051031008001001001MA1999999100311MW1031REMSYN005 333;EQDQ01+000002VOVAR 
0124829940999991995040512004-09667-035700FM-12+008999999V0200501N00261045001CN0100001N1+02601+02531101311ADDAA124065091AG10016AY191061AY211061GF108991041071012501041999MA1999999100301MD1999999+0001MW1211REMSYN017 333 58000 60654;
0143829940999991995040600004-09667-035700FM-12+008999999V0200901N00101045001CN9999999N9+02251+01941101421ADDAA106013091AG10016AY191061AY211061GF107991041071008001021001MA1999999100401MD1999999+0091MW1031REMSYN017 333 58009 60131;EQDQ01+000002VOVAR 
0143829940999991995040612004-09667-035700FM-12+008999999V0200901N001010450019N9999999N9+02251+01941101421ADDAA106013091AG10016AY191061AY211061GF107991041071008001021001MA1999999100401MD1999999+0091MW1031REMSYN017 333 58009 60131;EQDQ01+000002VOVAR 
0118829940999991995040618004-09667-035700FM-12+008999999V0201401N00571045001CN0500001N1+02881+02161101241ADDAA106000091AG10000AY101061AY221061GF106991021031012501061001MA1999999100231MD1999999-0031MW1031REMSYN011 333 59003;
0143829940999991995040700004-09667-035700FM-12+008999999V0200901N00211007501CN9999999N9+02381+02131101341ADDAA106000091AG10000AY101061AY221061GF105991051021008001001001MA1999999100331MD1999999-0071MW1031REMSYN017 333 10/// 59007;EQDQ01+000002VOVAR 
0124829940999991995040812004-09667-035700FM-12+008999999V0201401N00051045001CN0100001N1+02581+02481101371ADDAA124009091AG10016AY191061AY211061GF108991041071012501041999MA1999999100351MD1999999-0111MW1031REMSYN017 333 59011 60094;
0118829940999991995040818004-09667-035700FM-12+008999999V0201401N00311045001CN0500001N1+02901+02431101011ADDAA106000091AG10000AY121061AY221061GF106991021021017501041011MA1999999100001MD1999999-0261MW1031REMSYN011 333 59026;
0124829940999991995040912004-09667-035700FM-12+008999999V0201401N00311045001CN0100001N1+02631+02371101241ADDAA124035091AG10016AY191061AY211061GF108991041031012501061999MA1999999100221MD1999999-0131MW1031REMSYN017 333 59013 60354;
0130829940999991995041012004-09667-035700FM-12+008999999V0200901N00051045001CN0100001N1+02481+02381101201ADDAA124017091AG10016AY191061AY211061GF108991041071012501021999MA1999999100181MD1999999-0041MW1611REMSYN023 333 20/// 59004 60174;
0130829940999991995041112004-09667-035700FM-12+008999999V0200501N00151045001CN0100001N1+02681+02351101341ADDAA124023091AG10016AY191061AY211061GF108991041071012501041999MA1999999100321MD1999999+0141MW1031REMSYN023 333 20/// 58014 60234;
0124829940999991995041218004-09667-035700FM-12+008999999V0200901N00101045001CN0100001N1+02541+02441101121ADDAA124007091AG10016AY191061AY261061GF108991041071012501041999MA1999999100101MD1999999+0001MW1211REMSYN017 333 58000 60074;
0106829940999991995041300004-09667-035700FM-12+008999999V0200901N00101045001CN9999999N9+02151+02001101301ADDAG10016AY191061AY211061GF107991041071008001021001MA1999999100281MW1601REMSYN005 333;EQDQ01+000002VOVAR 
0123829940999991995041700004-09667-035700FM-12+008999999V0200901N00051007501CN9999999N9+02401+02221101341ADDAA106000091AG10000AY101061AY221061GF105991051031008001001001MA1999999100331MW1031REMSYN011 333 10///;EQDQ01+000002VOVAR 
0130829940999991995041712004-09667-035700FM-12+008999999V0201401N00311045001CN0200001N1+02661+02391101391ADDAA124004091AG10016AY191061AY211061GF107991041031017501041001MA1999999100371MD1999999-0071MW1031REMSYN023 333 20/// 59007 60044;
0124829940999991995041812004-09667-035700FM-12+008999999V0201401N00151045001CN0200001N1+02521+02331101311ADDAA124000591AG10016AY191061AY211061GF107991041031012501041001MA1999999100291MD1999999-0081MW1031REMSYN017 333 59008 69944;
0118829940999991995041818004-09667-035700FM-12+008999999V0201401N00311045001CN0200001N1+02241+99999101051ADDAA106000091AG10000AY121061AY221061GF107991021031012501061001MA1999999100041MD1999999+0021MW1031REMSYN011 333 58002;
0143829940999991995041900004-09667-035700FM-12+008999999V0200901N00051007501CN9999999N9+02471+02131101301ADDAA106000091AG10000AY101061AY221061GF106991061031008001001001MA1999999100281MD1999999-0011MW1031REMSYN017 333 10/// 59001;EQDQ01+000002VOVAR 
0130829940999991995041912004-09667-035700FM-12+008999999V0201401N00151045001CN0500001N1+02801+01921101461ADDAA124002091AG10016AY191061AY211061GF106991041021012501061011MA1999999100441MD1999999+0151MW1031REMSYN023 333 20/// 58015 60024;
0130829940999991995042212004-09667-035700FM-12+008999999V0201401N00211045001CN0500001N1+02821+02021101381ADDAA124001091AG10016AY191061AY211061GF106991041011017501041011MA1999999100371MD1999999-0051MW1021REMSYN023 333 20/// 59005 60014;
0118829940999991995042218004-09667-035700FM-12+008999999V0201401N00771220001CN0500001N1+02921+02061101211ADDAA106000091AG10000AY101061AY211061GF103991021021012501001011MA1999999100201MD1999999-0061MW1011REMSYN011 333 59006;
0137829940999991995042300004-09667-035700FM-12+008999999V0200501N00101045001CN9999999N9+02341+02001101331ADDAA106000091AG10000AY111061AY211061GF105991021021017501061001MA1999999100301MD1999999-0181MW1021REMSYN011 333 59018;EQDQ01+000002VOVAR 
0130829940999991995042312004-09667-035700FM-12+008999999V0200901N00411220001CN0500001N1+02821+02021101381ADDAA124000591AG10016AY191061AY211061GF105991021011012501001011MA1999999100371MD1999999+0001MW1021REMSYN023 333 20/// 58000 69944;
0118829940999991995042318004-09667-035700FM-12+008999999V0201401N00511220001CN0500001N1+02951+02051101211ADDAA106000091AG10000AY101061AY201061GF104991021011017501001011MA1999999100201MD1999999+0001MW1011REMSYN011 333 58000;
0124829940999991995042512004-09667-035700FM-12+008999999V0201401N00211045001CN0500001N1+02791+02201101521ADDAA106000091AG10016AY191061AY211061GF106991041021012501031001MA1999999100511MD1999999+0031MW1021REMSYN017 333 20/// 58003;
0124829940999991995042612004-09667-035700FM-12+008999999V0201401N00211045001CN0500001N1+02601+02331101401ADDAA124007091AG10016AY191061AY211061GF108991041071017501041999MA1999999100381MD1999999-0131MW1031REMSYN017 333 59013 60074;
0130829940999991995042712004-09667-035700FM-12+008999999V0201401N00211045001CN0200001N1+02601+02291101281ADDAA124001091AG10016AY191061AY211061GF107991021071012501021001MA1999999100261MD1999999-0121MW1031REMSYN023 333 20/// 59012 60014;
0143829940999991995042800004-09667-035700FM-12+008999999V0200901N00051220001CN9999999N9+02401+02111101321ADDAA106000091AG10000AY101061AY221061GF104991041051008001001001MA1999999100301MD1999999+0011MW1031REMSYN017 333 10/// 58001;EQDQ01+000002VOVAR 
0093829940999991995042812004-09667-035700FM-12+008999999V0201401N00101045001CN0200001N1+02681+02451101391ADDAG10016AY191061AY211061GF107991021031012501061001MA1999999100371MW1031REMSYN011 333 20///;
0143829940999991995042900004-09667-035700FM-12+008999999V0200901N00051045001CN9999999N9+02471+02071101411ADDAA106000091AG10000AY101061AY221061GF106991031031008001061001MA1999999100391MD1999999+0041MW1031REMSYN017 333 10/// 58004;EQDQ01+000002VOVAR 
0135829940999991995042912004-09667-035700FM-12+008999999V0200901N00051045001CN0500001N1+02741+02341101501ADDAA106000091AA224005091AG10016AY191061AY211061GF106991041021012501041001MA1999999100481MD1999999+0111MW1011REMSYN017 333 58011 60054;
0124829940999991995043012004-09667-035700FM-12+008999999V0201801N00101045001CN0100001N1+02461+02381101481ADDAA124034091AG10016AY191061AY211061GF108991041071008001041999MA1999999100461MD1999999-0021MW1021REMSYN017 333 59002 60344;
0149829940999991995050100004-09667-035700FM-12+008999999V0200501N00051045001CN9999999N9+02421+02331101461ADDAA106002091AG10014AY191061AY211061GF108991041071008001041999MA1999999100431MD1999999+0011MW1021REMSYN023 333 10/// 58001 60021;EQDQ01+000002VOVAR 
0140829940999991995050118004-09667-035700FM-12+008999999V0201401N001019999999N0200001N1+02581+02421101141ADDAA106039091AG10014AY191061AY211061GA1091+999999999GF109991091999999999999999MA1999999100121MD1999999-0041MW1021REMSYN017 333 59004 60391;
0124829940999991995050212004-09667-035700FM-12+008999999V0201801N00151045001CN0500001N1+02661+02371101511ADDAA124053091AG10000AY111061AY211061GF106991021021017501061001MA1999999100481MD1999999+0021MW1011REMSYN017 333 58002 60534;
0124829940999991995050218004-09667-035700FM-12+008999999V0201401N00511045001CN0500001N1+02781+02341101071ADDAA106000091AG10000AY111061AY211061GF106991021021017501061001MA1999999100061MD1999999-0061MW1011REMSYN017 333 59006 60000;
0143829940999991995050400004-09667-035700FM-12+008999999V0200901N00051007501CN9999999N9+02471+02171101491ADDAA106000091AG10000AY101061AY221061GF105991051031008001001001MA1999999100461MD1999999+0141MW1031REMSYN017 333 10/// 58014;EQDQ01+000002VOVAR 
0141829940999991995050412004-09667-035700FM-12+008999999V0201401N002611050019N0500001N1+02851+02171101541ADDAA106000091AA224000391AG10014AY191061AY211061GF106991021021012501061041MA1999999100531MD1999999+0081MW1021REMSYN023 333 20/// 58008 69934;
0130829940999991995050512004-09667-035700FM-12+008999999V0201401N00411105001CN0500001N1+02821+02071101531ADDAA124007091AG10014AY191061AY211061GF106991021021012501061041MA1999999100521MD1999999-0011MW1031REMSYN023 333 20/// 59001 60074;
0130829940999991995050612004-09667-035700FM-12+008999999V0200901N00051045001CN0200001N1+02521+02361101491ADDAA124010091AG10014AY191061AY211061GF107991021021012501061001MA1999999100471MD1999999-0051MW1611REMSYN023 333 20/// 59005 60104;
0118829940999991995050618004-09667-035700FM-12+008999999V0201401N00511045001CN0500001N1+02861+02031101211ADDAA106000091AG10000AY111061AY211061GF106991021011022501041011MA1999999100201MD1999999-0101MW1021REMSYN011 333 59010;
0130829940999991995050712004-09667-035700FM-12+008999999V0201401N00211105001CN0500001N1+02881+02081101451ADDAA124012091AG10014AY191061AY211061GF106991021011012501061041MA1999999100431MD1999999-0041MW1031REMSYN023 333 20/// 59004 60124;
0118829940999991995050718004-09667-035700FM-12+008999999V0201401N00361045001CN0500001N1+02901+02201101241ADDAA106000091AG10000AY111061AY211061GF106991021021017501041001MA1999999100231MD1999999+0031MW1031REMSYN011 333 58003;
0137829940999991995050800004-09667-035700FM-12+008999999V0200901N00051045001CN9999999N9+02361+02191101381ADDAA106000091AG10000AY111061AY211061GF106991021021017501061001MA1999999100351MD1999999+0001MW1031REMSYN011 333 58000;EQDQ01+000002VOVAR 
0124829940999991995050812004-09667-035700FM-12+008999999V0201401N00311045001CN0200001N1+02781+02541101561ADDAA124000591AG10014AY191061AY211061GF107991041041012501061001MA1999999100551MD1999999+0121MW1031REMSYN017 333 58012 69954;
0124829940999991995051012004-09667-035700FM-12+008999999V0200501N00101105001CN0500001N1+02701+02431101661ADDAA124003091AG10014AY191061AY211061GF106991021021012501061041MA1999999100641MD1999999+0051MW1031REMSYN017 333 58005 60034;
0124829940999991995051112004-09667-035700FM-12+008999999V0200901N00101045001CN0500001N1+02801+02251101611ADDAA106000091AG10000AY111061AY211061GF105991021021008001061001MA1999999100591MD1999999-0051MW1031REMSYN017 333 20/// 59005;
0137829940999991995051200004-09667-035700FM-12+008999999V0200901N00101007501CN9999999N9+02441+02091101611ADDAA106000091AG10000AY101061AY221061GF105991051021008001001001MA1999999100591MD1999999+0101MW1031REMSYN011 333 58010;EQDQ01+000002VOVAR 
0124829940999991995051212004-09667-035700FM-12+008999999V0200501N00101220001CN0500001N1+02681+02261101461ADDAA124000191AG10014AY191061AY211061GF106991021021012501001041MA1999999100441MD1999999-0151MW1021REMSYN017 333 59015 69914;
0124829940999991995051312004-09667-035700FM-12+008999999V0200901N00211007501CN0500001N1+02711+02081101471ADDAA106000091AG10000AY101061AY221061GF105991051031008001001001MA1999999100451MD1999999+0011MW1031REMSYN017 333 20/// 58001;
0118829940999991995051412004-09667-035700FM-12+008999999V0200901N00151045001CN0500001N1+02601+02031101591ADDAA106000091AG10000AY101061AY221061GF106991031031008001061001MA1999999100571MD1999999+0121MW1031REMSYN011 333 58012;
0124829940999991995051418004-09667-035700FM-12+008999999V0200901N00511007501CN0500001N1+02881+02181101351ADDAA106000191AG10014AY191061AY211061GF105991051021008001001001MA1999999100341MD1999999+0141MW1031REMSYN017 333 58014 69921;
0124829940999991995051612004-09667-035700FM-12+008999999V0201401N00311045001CN0200001N1+02601+02271101491ADDAA124005091AG10014AY191061AY211061GF107991021031012501061001MA1999999100471MD1999999+0041MW1031REMSYN017 333 58004 60054;
0137829940999991995051800004-09667-035700FM-12+008999999V0201401N00101045001CN9999999N9+02381+02291101431ADDAA106000091AG10000AY101061AY221061GF106991021031008001021001MA1999999100411MD1999999-0041MW1031REMSYN011 333 59004;EQDQ01+000002VOVAR 
0124829940999991995051812004-09667-035700FM-12+008999999V0200501N00261045001CN0500001N1+02641+02161101411ADDAA124010091AG10014AY191061AY211061GF106991041031012501061001MA1999999100391MD1999999-0041MW1031REMSYN017 333 59004 60104;
0130829940999991995051912004-09667-035700FM-12+008999999V0201401N00151045001CN0500001N1+02701+02081101321ADDAA106000591AG10014AY191061AY211061GF106991021021012501061001MA1999999100301MD1999999-0091MW1021REMSYN023 333 20/// 59009 69941;
0093829940999991995052012004-09667-035700FM-12+008999999V0200901N00211045001CN0500001N1+02741+02071101411ADDAG10014AY191061AY211061GF106991021031008001021001MA1999999100391MW1031REMSYN011 333 20///;
0118829940999991995052018004-09667-035700FM-12+008999999V0200901N00261007501CN0500001N1+02871+02181101111ADDAA106000091AG10000AY101061AY221061GF105991051021008001001001MA1999999100101MD1999999-0131MW1031REMSYN011 333 59013;
0102829940999991995052212004-09667-035700FM-12+008999999V0201401N002110450019N0500001N1+02761+02071101521ADDAA124000391AG10014GF106991041021012501061001MA1999999100501MD1999999+0041REMSYN017 333 58004 69934;
0096829940999991995052218004-09667-035700FM-12+008999999V0201401N00361045001CN0500001N1+02781+02381101181ADDAA106000091AG10000GF106991041021008001041001MA1999999100161MD1999999-0161REMSYN011 333 59016;
0131829940999991995052300004-09667-035700FM-12+008999999V0209991C00001220001CN9999999N9+02441+02301101521ADDAA106000091AG10000GF102991999021008001001001MA1999999100501MD1999999+0001REMSYN011 333 58000;EQDQ01+000052SCOTLCQ02+000002VOVAR 
0121829940999991995052412004-09667-035700FM-12+008999999V0200501N00101045001CN0100001N1+02461+02251101471ADDAA124032091AG10000GF108991041071012501021999KA1240N+02301MA1999999100441MD1999999-0041REMSYN023 333 20230 59004 60324;
0140829940999991995052500004-09667-035700FM-12+008999999V0200901N00101007501CN9999999N9+02201+02101101461ADDAA106005091AG10000GF106991061031008001001001KA1240M+02661MA1999999100431MD1999999+0041REMSYN023 333 10266 58004 60051;EQDQ01+000002VOVAR 
0121829940999991995052512004-09667-035700FM-12+008999999V0200501N00101045001CN0100001N1+02581+02421101581ADDAA124008091AG10000GF108991021071012501041999KA1240N+02201MA1999999100551MD1999999+0111REMSYN023 333 20220 58011 60084;
0121829940999991995052612004-09667-035700FM-12+008999999V0200901N00101105001CN0500001N1+02701+02431101561ADDAA124010091AG10000GF106991021031012501061041KA1240N+02191MA1999999100531MD1999999-0021REMSYN023 333 20219 59002 60104;
0123829940999991995052700004-09667-035700FM-12+008999999V0209999999999045001CN9999999N9+02151+02081101581ADDAG10000GF107991031031008001061001KA1240M+02831MA1999999100551MD1999999+0101REMSYN017 333 10283 58010;EQDQ01+000002VOVAR 
0134829940999991995052712004-09667-035700FM-12+008999999V0201401N00151045001CN0500001N1+02621+02411101671ADDAA106000091AG10000GF106991031021008001061041KA1240N+99999MA1999999100641MD1999999+0111REMSYN017 333 20286 58011;EQDQ01 +02862ATMN  
0096829940999991995052718004-09667-035700FM-12+008999999V0200901N00511007501CN0500001N1+02821+02271101341ADDAA106000091AG10000GF106991061021008001001001MA1999999100311MD1999999-0061REMSYN011 333 59006;
0121829940999991995052812004-09667-035700FM-12+008999999V0201401N00771045001CN0200001N1+02781+02061101701ADDAA124010091AG10000GF107991021071017501041011KA1240N+02361MA1999999100671MD1999999+0361REMSYN023 333 20236 58036 60104;
0134829940999991995052900004-09667-035700FM-12+008999999V0201401N00151220001CN9999999N9+02461+02171101631ADDAA106000091AG10000GF102991021011012501001001KA1240M+03221MA1999999100611MD1999999+0071REMSYN017 333 10322 58007;EQDQ01+000002VOVAR 
0096829940999991995052918004-09667-035700FM-12+008999999V0200901N00261007501CN0020001N1+02701+02301101141ADDAA106000091AG10000GF107991071061008001001001MA1999999100941MD1999999+0131REMSYN011 333 58013;
0121829940999991995053012004-09667-035700FM-12+008999999V0201801N00101015001CN0200001N1+02541+02231101661ADDAA124009091AG10000GF107991061081012501031061KA1240N+02261MA1999999100631MD1999999-0051REMSYN023 333 20226 59005 60094;
0085829940999991995053018004-09667-035700FM-12+008999999V0201401N00261012001CN0500001N1+02761+02211101371ADDAG10000GF106991061021012501031001MA1999999100341MD1999999-0231REMSYN011 333 59023;
0121829940999991995053112004-09667-035700FM-12+008999999V0201401N00101045001CN0500001N1+02761+02181101681ADDAA124000591AG10000GF105991041021012501041001KA1240N+02141MA1999999100651MD1999999+0021REMSYN023 333 20214 58002 69954;
0121829940999991995060112004-09667-035700FM-12+008999999V0201401N00671045001CN0500001N1+02721+01741101691ADDAA124000591AG10000GF106991021021012501061001KA1240N+02161MA1999999100661MD1999999+0011REMSYN023 333 20216 58001 69954;
0096829940999991995060118004-09667-035700FM-12+008999999V0200901N00511220001CN0500001N1+02941+01851101461ADDAA106000091AG10000GF105991021011012501001041MA1999999100441MD1999999+0061REMSYN011 333 58006;
0134829940999991995060200004-09667-035700FM-12+008999999V0200901N00261007501CN9999999N9+02401+02111101711ADDAA106000091AG10000GF105991051031008001001001KA1240M+03061MA1999999100681MD1999999+0131REMSYN017 333 10306 58013;EQDQ01+000002VOVAR 
0121829940999991995060212004-09667-035700FM-12+008999999V0200901N00311045001CN0100001N1+02501+02211101631ADDAA124002091AG10000GF108991021021012501061001KA1240N+02141MA1999999100601MD1999999-0061REMSYN023 333 20214 59006 60024;
0121829940999991995060312004-09667-035700FM-12+008999999V0201401N00511045001CN0100001N1+02381+02211101711ADDAA124032091AG10000GF108991041071012501021999KA1240N+02161MA1999999100681MD1999999+0081REMSYN023 333 20216 58008 60324;
0102829940999991995060318004-09667-035700FM-12+008999999V0200501N00101045001CN0500001N1+02781+01921101561ADDAA106000591AG10000GF106991021021012501041011MA1999999100531MD1999999+0041REMSYN017 333 58004 69951;
0121829940999991995060412004-09667-035700FM-12+008999999V0200901N00361045001CN0100001N1+02441+02251101781ADDAA124015091AG10000GF107991041071012501041999KA1240N+02141MA1999999100751MD1999999+0071REMSYN023 333 20214 58007 60154;
0085829940999991995060418004-09667-035700FM-12+008999999V0200901N00311045001CN0200001N1+02621+02391101651ADDAG10000GF107991021021012501061041MA1999999100621MD1999999+0091REMSYN011 333 58009;
0134829940999991995060512004-09667-035700FM-12+008999999V0200901N00671012001CN0500001N1+02721+02051101561ADDAA106000091AG10000GF106991999021012501001001KA1240N+02241MA1999999100821MD1999999+0071REMSYN017 333 20224 58007;EQDQ01+000052SCOTLC
0096829940999991995060518004-09667-035700FM-12+008999999V0201401N00721045001CN0500001N1+02721+02051101711ADDAA106000091AG10000GF106991041021012501031001MA1999999100681MD1999999+0061REMSYN011 333 58006;
0140829940999991995060612004-09667-035700FM-12+008999999V0200501N00511045001CN0500001N1+02641+02071101561ADDAA124003091AG10000GF106991021021012501031001KA1240N+99999MA1999999100761MD1999999-0061REMSYN023 333 20272 59006 60034;EQDQ01 +02722ATMN  
0147829940999991995060618004-09667-035700FM-12+008999999V0200501N999999999999N0200001N1+02741+02071101491ADDAA106000091AG10000GF106991999021008001001001MA1999999100461MD1999999-0271REMSYN011 333 59027;EQDQ01+004633WOSPD Q02+000022SCOTLCQ030004633WOSPD 
0140829940999991995060700004-09667-035700FM-12+008999999V0200901N00051045001CN9999999N9+02371+02051101691ADDAA106001091AG10000GF106991021031008001061001KA1240M+02841MA1999999100661MD1999999-0071REMSYN023 333 10284 59007 69971;EQDQ01+000002VOVAR 
0140829940999991995060800004-09667-035700FM-12+008999999V0200901N00311045001CN9999999N9+02201+02101101771ADDAA106002091AG10000GF107991031071008001021001KA1240M+02871MA1999999100741MD1999999+0081REMSYN023 333 10287 58008 60021;EQDQ01+000002VOVAR 
0121829940999991995060812004-09667-035700FM-12+008999999V0201401N00361045001CN0100001N1+02481+02231101791ADDAA124010091AG10000GF108991021071012501041999KA1240N+02131MA1999999100751MD1999999+0021REMSYN023 333 20213 58002 60104;
0102829940999991995060818004-09667-035700FM-12+008999999V0201401N00361045001CN0200001N1+02651+02181101621ADDAA106006091AG10000GF107991031031008001061001MA1999999100591MD1999999+0081REMSYN017 333 58008 60061;
0121829940999991995060912004-09667-035700FM-12+008999999V0201401N00361045001CN0500001N1+02721+01821101791ADDAA124007091AG10000GF106991041021012501061001KA1240N+02201MA1999999100761MD1999999+0011REMSYN023 333 20220 58001 60074;
0134829940999991995061000004-09667-035700FM-12+008999999V0200901N00051007501CN9999999N9+02481+02091101691ADDAA106000091AG10000GF105991051021008001001001KA1240M+02881MA1999999100661MD1999999-0051REMSYN017 333 10288 59005;EQDQ01+000002VOVAR 
0121829940999991995061012004-09667-035700FM-12+008999999V0200901N00461007501CN0500001N1+02661+01681101681ADDAA124003091AG10000GF105991051031008001001001KA1240N+02171MA1999999100651MD1999999-0111REMSYN023 333 20217 59011 60034;
0121829940999991995061112004-09667-035700FM-12+008999999V0200501N00101045001CN0100001N1+02361+02311101791ADDAA124036091AG10000GF108991041071008001021999KA1240N+02011MA1999999100761MD1999999+0111REMSYN023 333 20201 58011 60364;
0102829940999991995061118004-09667-035700FM-12+008999999V0201401N00621045001CN0100001N1+02361+02261101561ADDAA106016091AG10000GF108991041071008001021999MA1999999100531MD1999999+0131REMSYN017 333 58013 60161;
0140829940999991995061212004-09667-035700FM-12+008999999V0202301N00101045001CN0200001N1+02541+02171101721ADDAA124001091AG10000GF106991041021008001031001KA1240N+99999MA1999999100681MD1999999-0081REMSYN023 333 20284 59008 60014;EQDQ01 +02842ATMN  
0102829940999991995061218004-09667-035700FM-12+008999999V0200501N00461015001CN0500001N1+02521+02271101531ADDAA106000391AG10000GF107991051081012501061001MA1999999100491MD1999999-0041REMSYN017 333 59004 69931;
0140829940999991995061300004-09667-035700FM-12+008999999V0200901N00211045001CN9999999N9+02361+02221101861ADDAA106015091AG10000GF108991031081017501061001KA1240M+02721MA1999999100831MD1999999+0191REMSYN023 333 10272 58019 60151;EQDQ01+000002VOVAR 
0121829940999991995061312004-09667-035700FM-12+008999999V0201401N002110450019N0200001N1+02701+02061101821ADDAA124004091AG10000GF107991021031012501061001KA1240N+02081MA1999999100791MD1999999+0111REMSYN023 333 20208 58011 60044;
0102829940999991995061318004-09667-035700FM-12+008999999V0201401N00101045001CN0500001N1+02741+02021101561ADDAA106001091AG10000GF106991021021012501061001MA1999999100531MD1999999+0041REMSYN017 333 58004 60011;
0121829940999991995061412004-09667-035700FM-12+008999999V0201401N00671045001CN0500001N1+02601+02121101861ADDAA124008091AG10000GF106991041031012501061001KA1240N+02121MA1999999100831MD1999999+0041REMSYN023 333 20212 58004 60084;
0121829940999991995061512004-09667-035700FM-12+008999999V0200901N00511045001CN0500001N1+02641+01881101801ADDAA124000191AG10000GF106991021031008001041011KA1240N+02121MA1999999100771MD1999999-0061REMSYN023 333 20212 59006 69914;
0096829940999991995061518004-09667-035700FM-12+008999999V0200901N00361045001CN0500001N1+02741+02141101541ADDAA106000091AG10000GF106991021031008001061001MA1999999100511MD1999999-0051REMSYN011 333 59005;
0134829940999991995061600004-09667-035700FM-12+008999999V0200501N00101012001CN9999999N9+02391+02071101761ADDAA106000091AG10000GF105991051031012501001001KA1240M+02801MA1999999100731MD1999999-0041REMSYN017 333 10280 59004;EQDQ01+000002VOVAR 
0121829940999991995061612004-09667-035700FM-12+008999999V0201401N00361045001CN0500001N1+02521+02131101721ADDAA124003091AG10000GF106991041031012501061041KA1240N+02161MA1999999100691MD1999999-0081REMSYN023 333 20216 59008 60034;
0121829940999991995061712004-09667-035700FM-12+008999999V0200901N00211018001CN0100001N1+02421+02281101871ADDAA124002091AG10000GF107991051081017501061031KA1240N+02301MA1999999100841MD1999999+0151REMSYN023 333 20230 58015 60024;
0102829940999991995061718004-09667-035700FM-12+008999999V0200501N00211018001CN0100001N1+02661+02161101611ADDAA106001091AG10000GF107991051081017501061001MA1999999100581MD1999999-0141REMSYN017 333 59014 69981;
0115829940999991995061812004-09667-035700FM-12+008999999V0201401N00051045001CN0500001N1+02561+02111101781ADDAA106000091AG10000GF106991041021008001031001KA1240N+02081MA1999999100751MD1999999+0031REMSYN017 333 20208 58003;
0115829940999991995061818004-09667-035700FM-12+008999999V0200901N003119999999N0500001N1+02741+01891101541ADDAA106000091AG10000GF105991999021004501001001MA1999999100511MD1999999-0071REMSYN011 333 59007;EQDQ01+000032SCOTLC
0150829940999991995061900004-09667-035700FM-12+008999999V0209991C00001220001CN9999999N9+02431+02261101741ADDAA106000091AG10000GF103991999021002501001001KA1240M+02821MA1999999100711MD1999999-0011REMSYN017 333 10282 59001;EQDQ01+000022SCOTLCQ02+000002VOVAR 
0121829940999991995061912004-09667-035700FM-12+008999999V0201401N00261045001CN0500001N1+02541+02171101731ADDAA124000191AG10000GF106991041021008001031001KA1240N+02061MA1999999100711MD1999999+0001REMSYN023 333 20206 58000 69924;
0115829940999991995061918004-09667-035700FM-12+008999999V0200901N00411007501CN0500001N1+02681+02061101451ADDAA106000091AG10000GF106991999021008001001001MA1999999100411MD1999999-0101REMSYN011 333 59010;EQDQ01+000052SCOTLC
0166829940999991995062000004-09667-035700FM-12+008999999V0201801N00051220001CN9999999N9+02301+01831101621ADDAA106000091AG10000GF103991999021002501001001KA1240M+02801MA1999999090592MD1999999-0421REMSYN017 333 10280 59042;EQDQ01+000022SCOTLCQ02+090593APOSP Q03+000002VOVAR 
0096829940999991995062018004-09667-035700FM-12+008999999V0201401N00511015001CN0100001N1+02261+02211101491ADDAA106000091AG10000GF108991051071017501031999MA1999999100451MD1999999+0011REMSYN011 333 58001;
0121829940999991995062112004-09667-035700FM-12+008999999V0201401N00411045001CN0200001N1+02561+02111101901ADDAA124027091AG10000GF107991041071012501021001KA1240N+02121MA1999999100861MD1999999+0181REMSYN023 333 20212 58018 60274;
0121829940999991995062212004-09667-035700FM-12+008999999V0200501N00211045001CN0200001N1+02501+02211101891ADDAA124002091AG10000GF107991021071012501041001KA1240N+02101MA1999999100851MD1999999-0011REMSYN023 333 20210 59001 60024;
0102829940999991995062218004-09667-035700FM-12+008999999V0200501N00361045001CN0200001N1+02731+02121101611ADDAA199000191AG10000GF107991031071008001021001MA1999999100591MD1999999+0031REMSYN017 333 58003 69913;
0121829940999991995062412004-09667-035700FM-12+008999999V0202301N00151007501CN0500001N1+02461+02131101771ADDAA124000191AG10000GF106991051021008001031001KA1240N+02061MA1999999100741MD1999999+0071REMSYN023 333 20206 58007 69924;
0115829940999991995062418004-09667-035700FM-12+008999999V0201401N00211007501CN0500001N1+02721+01821101341ADDAA106000091AG10000GF106991999021008001001001MA1999999100311MD1999999-0141REMSYN011 333 59014;EQDQ01+000052SCOTLC
0104829940999991995062612004-09667-035700FM-12+008999999V0201801N00051018001CN0500001N1+02311+02051101861ADDAG10000GF108991051081017501061999KA1240N+02261MA1999999100821MD1999999+0011REMSYN017 333 20226 58001;
0121829940999991995062700004-09667-035700FM-12+008999999V0203601N00361045001CN0500001N1+02541+02211101871ADDAA124005091AG10000GF107991041081017501061031KA1240N+02121MA1999999100841MD1999999+0021REMSYN023 333 20212 58002 60054;
0096829940999991995062718004-09667-035700FM-12+008999999V0200501N00871045001CN0500001N1+02661+02071101611ADDAA106000091AG10000GF106991031021008001031001MA1999999100571MD1999999-0031REMSYN011 333 59003;
0140829940999991995062812004-09667-035700FM-12+008999999V0201401N00051045001CN0200001N1+02421+02071999999ADDAA124000391AG10004GF107991021031012501061001KA1240N+02081MA1999999100751MD1999999-0091REMSYN023 333 20208 59009 69934;EQDQ01+000072PSTWM1
0121829940999991995062912004-09667-035700FM-12+008999999V0201401N00261045001CN0200001N1+02361+02131101741ADDAA124029091AG10000GF107991041031012501061001KA1240N+02091MA1999999100701MD1999999-0051REMSYN023 333 20209 59005 60294;
0102829940999991995062918004-09667-035700FM-12+008999999V0200901N00361105001CN0500001N1+02701+01781101511ADDAA106000591AG10000GF106991021021012501061041MA1999999100481MD1999999+0021REMSYN017 333 58002 69951;
0140829940999991995063000004-09667-035700FM-12+008999999V0200901N00101007501CN9999999N9+02301+02091101721ADDAA106003091AG10000GF105991051021008001001001KA1240M+02741MA1999999100681MD1999999+0051REMSYN023 333 10274 58005 60031;EQDQ01+000002VOVAR 
0121829940999991995063012004-09667-035700FM-12+008999999V0201401N00411045001CN0500001N1+02681+02091101771ADDAA124010091AG10000GF106991021021017501061001KA1240N+02241MA1999999100741MD1999999+0041REMSYN023 333 20224 58004 60104;
0102829940999991995063018004-09667-035700FM-12+008999999V0200901N00311045001CN0100001N1+02601+02251101681ADDAA106001091AG10000GF108991041071012501041999MA1999999100641MD1999999+0161REMSYN017 333 58016 60011;
0121829940999991995070112004-09667-035700FM-12+008999999V0201401N00311045001CN0100001N1+02201+02121101901ADDAA124060091AG10000GF108991041071008001021999KA1240N+02011MA1999999100861MD1999999+0121REMSYN023 333 20201 58012 60604;
0102829940999991995070118004-09667-035700FM-12+008999999V0201401N00211045001CN0100001N1+02301+02231101691ADDAA106028091AG10000GF108991041071008001021999MA1999999100651MD1999999+0011REMSYN017 333 58001 60281;
0121829940999991995070312004-09667-035700FM-12+008999999V0203601N00101045001CN0500001N1+02391+02231101821ADDAA124008091AG10000GF107991041081017501061031KA1240N+02201MA1999999100851MD1999999-0051REMSYN023 333 20220 59005 60084;
0121829940999991995070313004-09667-035700FM-12+008999999V0203601N00101045001CN0500001N1+02391+02231101821ADDAA124008091AG10999GF107991041081017501061031KA1240N+02201MA1999999100851MD1999999-0051REMSYN023 333 20220 59005 60084;
0096829940999991995070318004-09667-035700FM-12+008999999V0201401N00361012001CN0500001N1+02681+02241101651ADDAA106000091AG10000GF106991051031012501041011MA1999999100621MD1999999-0161REMSYN011 333 59016;
0140829940999991995070400004-09667-035700FM-12+008999999V0209991C00001045001CN9999999N9+02241+02191101831ADDAA106002091AG10000GF106991031081008001061031KA1240M+02761MA1999999100791MD1999999-0051REMSYN023 333 10276 59005 60021;EQDQ01+000002VOVAR 
0121829940999991995070412004-09667-035700FM-12+008999999V0200501N00261045001CN0500001N1+02621+01881101811ADDAA124000591AG10000GF106991041031012501061031KA1240N+02121MA1999999100781MD1999999-0071REMSYN023 333 20212 59007 69954;
0096829940999991995070418004-09667-035700FM-12+008999999V0201401N00511045001CN0500001N1+02641+01981101621ADDAA106000091AG10000GF106991041081012501031001MA1999999100581MD1999999-0041REMSYN011 333 59004;
0121829940999991995070612004-09667-035700FM-12+008999999V0200501N00411045001CN0500001N1+02501+02071101811ADDAA124002091AG10000GF106991031031008001061001KA1240N+02101MA1999999100781MD1999999+0041REMSYN023 333 20210 58004 60024;
0096829940999991995070618004-09667-035700FM-12+008999999V0200901N00461007501CN0500001N1+02731+02081101621ADDAA106000091AG10000GF106991061031008001001001MA1999999100591MD1999999-0091REMSYN011 333 59009;
0134829940999991995070700004-09667-035700FM-12+008999999V0200501N00101007501CN9999999N9+02401+02211101781ADDAA106000091AG10000GF105991051021008001001001KA1240M+02771MA1999999100751MD1999999-0031REMSYN017 333 10277 59003;EQDQ01+000002VOVAR 
0115829940999991995070712004-09667-035700FM-12+008999999V0200901N00361007501CN0500001N1+02601+02031101751ADDAA106000091AG10000GF105991051031008001001001KA1240N+02091MA1999999100721MD1999999-0061REMSYN017 333 20209 59006;
0115829940999991995071018004-09667-035700FM-12+008999999V0200901N003119999999N0500001N1+02661+01921101661ADDAA106000091AG10000GF106991999021008001001001MA1999999100621MD1999999+0051REMSYN011 333 58005;EQDQ01+000042SCOTLC
0115829940999991995071118004-09667-035700FM-12+008999999V0201401N002619999999N0500001N1+02661+01741101561ADDAA106000091AG10000GF105991999021008001001001MA1999999100521MD1999999-0101REMSYN011 333 59010;EQDQ01+000032SCOTLC
0134829940999991995071200004-09667-035700FM-12+008999999V0200901N00101007501CN9999999N9+02381+02131101721ADDAA106000091AG10000GF105991051021008001001001KA1240M+02721MA1999999100691MD1999999+0071REMSYN017 333 10272 58007;EQDQ01+000002VOVAR 
0121829940999991995071212004-09667-035700FM-12+008999999V0201401N00511045001CN0500001N1+02521+01861101701ADDAA124008091AG10000GF106991021021012501061001KA1240N+02041MA1999999100671MD1999999-0171REMSYN023 333 20204 59017 60084;
0123829940999991995071300004-09667-035700FM-12+008999999V0200901N00051045001CN9999999N9+02301+02111101721ADDAG10000GF106991021031008001021001KA1240M+02761MA1999999100691MD1999999+0001REMSYN017 333 10276 58000;EQDQ01+000002VOVAR 
0134829940999991995071400004-09667-035700FM-12+008999999V0200901N00151007501CN9999999N9+02391+02111101761ADDAA106000091AG10000GF105991051021008001001001KA1240M+02801MA1999999100731MD1999999+0041REMSYN017 333 10280 58004;EQDQ01+000002VOVAR 
0121829940999991995071412004-09667-035700FM-12+008999999V0201401N00211105001CN0500001N1+02561+01931101761ADDAA124005091AG10000GF106991021031012501041041KA1240N+02081MA1999999100731MD1999999+0111REMSYN023 333 20208 58011 60054;
0062829940999991995071418004-09667-035700FM-12+008999999V0201801N00361045001CN0500001N1+02661+01971101611ADDAA106000091AG10000GF106991021021012501061011MA1999999100581
0121829940999991995071512004-09667-035700FM-12+008999999V0201401N026710450019N0200001N1+02561+01951101821ADDAA124010091AG10000GF107991041071012501061041KA1240N+01901MA1999999100791MD1999999+0061REMSYN023 333 20190 58006 60104;
0096829940999991995071518004-09667-035700FM-12+008999999V0201401N00511045001CN0200001N1+02581+02121101561ADDAA106000091AG10000GF107991041071012501061031MA1999999100531MD1999999-0051REMSYN011 333 59005;
0121829940999991995071612004-09667-035700FM-12+008999999V0203601N00361045001CN0200001N1+02521+02071101831ADDAA124007091AG10000GF107991031071008001061031KA1240N+02191MA1999999100801MD1999999+0011REMSYN023 333 20219 58001 60074;
0102829940999991995071618004-09667-035700FM-12+008999999V0201401N00721045001CN0200001N1+02561+02061101631ADDAA106000191AG10000GF107991031081008001061001MA1999999100591MD1999999+0061REMSYN017 333 58006 69911;
0121829940999991995071712004-09667-035700FM-12+008999999V0201401N00461045001CN0200001N1+02621+02051101781ADDAA124006091AG10000GF106991041081008001061041KA1240N+02341MA1999999100751MD1999999-0051REMSYN023 333 20234 59005 60064;
0102829940999991995071718004-09667-035700FM-12+008999999V0203601N00151015001CN0500001N1+02281+02011101611ADDAA106003091AG10000GF108991051081012501061031MA1999999100571MD1999999-0021REMSYN017 333 59002 60031;
0140829940999991995071800004-09667-035700FM-12+008999999V0200501N00101012001CN9999999N9+02241+02101101671ADDAA106014091AG10000GF108991051071012501061001KA1240M+02721MA1999999100641MD1999999-0041REMSYN023 333 10272 59004 60141;EQDQ01+000002VOVAR 
0140829940999991995071812004-09667-035700FM-12+008999999V0201401N004110450019N0010001N1+02541+01931101801ADDAA124021091AG10000GF106991031081008001061031KA1240N+02041MA1999999100761MD1999999+0021REMSYN023 333 20204 58002 60214;EQDQ01+999990APOSP 
0096829940999991995071818004-09667-035700FM-12+008999999V0200501N00461045001CN0500001N1+02621+01911101641ADDAA106000091AG10000GF106991031021008001061031MA1999999100601MD1999999+0031REMSYN011 333 58003;
0084829940999991995071912004-09667-035700FM-12+008999999V0201401N00511105001CN0500001N1+02561+01991101891ADDAG10000GF106991021021012501061041KA1999N+02091MA1999999100861REMSYN011 333 20209;
0121829940999991995072012004-09667-035700FM-12+008999999V0201401N00311220001CN0500001N1+02561+01831101851ADDAA124001091AG10000GF106991041021012501001041KA1240N+02001MA1999999100821MD1999999-0041REMSYN023 333 20200 59004 69984;
0102829940999991995072018004-09667-035700FM-12+008999999V0200901N00361045001CN0100001N1+02381+02131101791ADDAA106006091AG10000GF108991041031012501061999MA1999999100751MD1999999+0181REMSYN017 333 58018 60061;
0140829940999991995072100004-09667-035700FM-12+008999999V0201401N00101045001CN9999999N9+02061+01981101851ADDAA106001091AG10000GF107991021021012501061001KA1240M+02791MA1999999100821MD1999999+0041REMSYN023 333 10279 58004 60011;EQDQ01+000002VOVAR 
0121829940999991995072112004-09667-035700FM-12+008999999V0201401N00261105001CN0500001N1+02561+01731101841ADDAA124009091AG10000GF106991021031012501061041KA1240N+01971MA1999999100801MD1999999-0021REMSYN023 333 20197 59002 60094;
0102829940999991995072118004-09667-035700FM-12+008999999V0200901N00211045001CN0500001N1+02481+01941101611ADDAA106004091AG10000GF106991021031012501041001MA1999999100571MD1999999-0181REMSYN017 333 59018 60041;
0121829940999991995072212004-09667-035700FM-12+008999999V0201401N00101045001CN0500001N1+02301+01941101771ADDAA124012091AG10000GF106991041031012501061001KA1240N+02041MA1999999100731MD1999999-0071REMSYN023 333 20204 59007 60124;
0102829940999991995072218004-09667-035700FM-12+008999999V0201401N00311045001CN0500001N1+02741+01951101431ADDAA106000591AG10000GF106991021021012501061011MA1999999100401MD1999999-0171REMSYN017 333 59017 69961;
0132829940999991995072312004-09667-035700FM-12+008999999V0201801N00101045001CN0100001N1+02301+02161101781ADDAA106000091AA224010091AG10000GF108991041071012501021999KA1240N+01971MA1999999100741MD1999999+0011REMSYN023 333 20197 58001 60104;
0121829940999991995072412004-09667-035700FM-12+008999999V0200501N00311015001CN0500001N1+02541+02251101881ADDAA124070091AG10000GF108991051081012501061041KA1240N+02241MA1999999100841MD1999999+0101REMSYN023 333 20224 58010 60704;
0102829940999991995072418004-09667-035700FM-12+008999999V0203601N00361045001CN0500001N1+02421+02031101661ADDAA106000591AG10000GF107991041081008001061031MA1999999100621MD1999999+0071REMSYN017 333 58007 69951;
0150829940999991995072500004-09667-035700FM-12+008999999V0200901N00151220001CN9999999N9+02281+01901101811ADDAA106000091AG10000GF104991999021004501001001KA1240M+02721MA1999999100781MD1999999+0081REMSYN017 333 10272 58008;EQDQ01+000032SCOTLCQ02+000002VOVAR 
0102829940999991995072518004-09667-035700FM-12+008999999V0200501N00411015001CN0500001N1+02321+02181101611ADDAA106001091AG10000GF108991051081012501061001MA1999999100571MD1999999-0211REMSYN017 333 59021 60011;
0140829940999991995072600004-09667-035700FM-12+008999999V0200901N00211045001CN9999999N9+02301+02111101811ADDAA106002091AG10000GF106991031031008001061001KA1240M+02611MA1999999100771MD1999999-0011REMSYN023 333 10261 59001 60021;EQDQ01+000002VOVAR 
0121829940999991995072612004-09667-035700FM-12+008999999V0201401N00211045001CN0500001N1+02521+01931101791ADDAA124003091AG10000GF106991041031012501041011KA1240N+02051MA1999999100761MD1999999-0061REMSYN023 333 20205 59006 60034;
0134829940999991995072700004-09667-035700FM-12+008999999V0200901N00051045001CN9999999N9+02281+02141101731ADDAA106000091AG10000GF106991021021008001021001KA1240M+02801MA1999999100701MD1999999-0071REMSYN017 333 10280 59007;EQDQ01+000002VOVAR 
0140829940999991995072712004-09667-035700FM-12+008999999V0201401N00311045001CN9999999N9+02521+01961101701ADDAA124004091AG10000GF106991041021012501061041KA1240N+02031MA1999999100661MD1999999-0101REMSYN023 333 20203 59010 60044;EQDQ01+000002VOVAR 
0134829940999991995072800004-09667-035700FM-12+008999999V0200501N00151007501CN9999999N9+02361+02091101651ADDAA106000091AG10000GF105991051021008001001001KA1240M+02751MA1999999100611MD1999999+0091REMSYN017 333 10275 58009;EQDQ01+000002VOVAR 
0102829940999991995072818004-09667-035700FM-12+008999999V0201401N00621045001CN0500001N1+02601+01871101541ADDAA106004091AG10000GF106991041021012501041041MA1999999100501MD1999999+0091REMSYN017 333 58009 60041;
0096829940999991995072918004-09667-035700FM-12+008999999V0200501N00211045001CN0200001N1+02581+01971101541ADDAA106000091AG10000GF106991031031012501061001MA1999999100511MD1999999+0011REMSYN011 333 58001;
0134829940999991995073000004-09667-035700FM-12+008999999V0200901N00101007501CN9999999N9+02281+02011101651ADDAA106000091AG10000GF105991051031008001001001KA1240M+02681MA1999999100621MD1999999-0071REMSYN017 333 10268 59007;EQDQ01+000002VOVAR 
0140829940999991995073012004-09667-035700FM-12+008999999V0200901N00261045001CN0200001N1+02401+01841101681ADDAA124002091AG10000GF106991031031008001061001KA1240M+99999MA1999999100651MD1999999-0081REMSYN023 333 10180 59008 60024;EQDQ01 +01802ATMX  
0096829940999991995073018004-09667-035700FM-12+008999999V0200901N00511007501CN0500001N1+02701+02071101611ADDAA106000091AG10000GF105991051031008001001001MA1999999100581MD1999999+0071REMSYN011 333 58007;
0132829940999991995073112004-09667-035700FM-12+008999999V0201801N00101015001CN0500001N1+02361+02011101651ADDAA106000091AA224000191AG10000GF107991051081012501061031KA1240N+01981MA1999999100621MD1999999-0031REMSYN023 333 20198 59003 69924;
0096829940999991995073118004-09667-035700FM-12+008999999V0200901N00411045001CN0200001N1+02681+01861101361ADDAA106000091AG10000GF105991031021004501031001MA1999999100331MD1999999-0251REMSYN011 333 59025;
0121829940999991995080112004-09667-035700FM-12+008999999V0201801N00101015001CN0500001N1+02381+02091101731ADDAA124002091AG10000GF107991051081012501061041KA1240N+01981MA1999999100691MD1999999+0071REMSYN023 333 20198 58007 60024;
0096829940999991995080118004-09667-035700FM-12+008999999V0201401N00211015001CN0500001N1+02541+02001101481ADDAA106000091AG10000GF107991051081012501071031MA1999999100441MD1999999-0121REMSYN011 333 59012;
0051829940999991995080212004-09667-035700FM-12+008999999V0201401N00261045001CN0500001N1+02421+01841101761ADDAG10000GF106991041021012501061011MA1999999100721
0096829940999991995080218004-09667-035700FM-12+008999999V0200901N00411007501CN0500001N1+02581+02091101601ADDAA106000091AG10000GF105991051021008001001001MA1999999100571MD1999999+0131REMSYN011 333 58013;
0121829940999991995080312004-09667-035700FM-12+008999999V0201801N00051220001CN0500001N1+02421+01911101821ADDAA124000191AG10000GF105991021011012501001011KA1240N+01921MA1999999100791MD1999999+0071REMSYN023 333 20192 58007 69914;
0096829940999991995080318004-09667-035700FM-12+008999999V0200901N00461007501CN0500001N1+02731+02101101531ADDAA106000091AG10000GF105991051021008001001001MA1999999100501MD1999999-0071REMSYN011 333 59007;
0134829940999991995080400004-09667-035700FM-12+008999999V0200901N00051007501CN9999999N9+02361+02091101681ADDAA106000091AG10000GF105991051021008001001001KA1240M+02761MA1999999100641MD1999999-0091REMSYN017 333 10276 59009;EQDQ01+000002VOVAR 
0121829940999991995080412004-09667-035700FM-12+008999999V0201401N00621045001CN0500001N1+02441+02051101631ADDAA124001091AG10000GF106991041031012501041001KA1240N+02041MA1999999100601MD1999999-0191REMSYN023 333 20204 59019 69974;
0102829940999991995080418004-09667-035700FM-12+008999999V0200901N00511220001CN0500001N1+02721+01901101401ADDAA106003091AG10000GF104991021011017501001011MA1999999100371MD1999999-0131REMSYN017 333 59013 60031;
0121829940999991995080512004-09667-035700FM-12+008999999V0201801N00511045001CN0500001N1+02641+02181101721ADDAA124003091AG10000GF106991041021008001031001KA1240N+02121MA1999999100691MD1999999+0091REMSYN023 333 20212 58009 60034;
0121829940999991995080612004-09667-035700FM-12+008999999V0200501N00571015001CN0500001N1+02621+02051101961ADDAA124000191AG10000GF107991051081012501061031KA1240N+02161MA1999999100921MD1999999+0231REMSYN023 333 20216 58023 69914;
0096829940999991995080618004-09667-035700FM-12+008999999V0200501N00361007501CN0500001N1+02721+02031101651ADDAA106000091AG10000GF105991051021008001001001MA1999999100621MD1999999+0161REMSYN011 333 58016;
0150829940999991995080700004-09667-035700FM-12+008999999V0209991C000019999999N9999999N9+02361+02011101911ADDAA106000091AG10000GF106991999021008001001001KA1240M+02781MA1999999100881MD1999999-0041REMSYN017 333 10278 59004;EQDQ01+000042SCOTLCQ02+000002VOVAR 
0121829940999991995080712004-09667-035700FM-12+008999999V0200501N00311015001CN0500001N1+02221+02101102031ADDAA124006091AG10000GF108991051081012501061001KA1240N+02041MA1999999100991MD1999999+0071REMSYN023 333 20204 58007 60064;
0101829940999991995080718004-09667-035700FM-12+008999999V0201401N00311015001CN0500001N1+02401+01861101441ADDAA106005091AG10000GF108991051081012501061041MA1999999090702REMSYN011 333 60051;EQDQ01+090703APOSP 
0121829940999991995080812004-09667-035700FM-12+008999999V0201401N00261045001CN0500001N1+02521+02001101881ADDAA124005091AG10000GF106991031021004501031001KA1240N+01941MA1999999100851MD1999999-0141REMSYN023 333 20194 59014 60054;
0096829940999991995080818004-09667-035700FM-12+008999999V0203601N00211045001CN0500001N1+02681+01941101551ADDAA106000091AG10000GF106991031081004501031021MA1999999100521MD1999999-0181REMSYN011 333 59018;
0121829940999991995080912004-09667-035700FM-12+008999999V0201401N00101012001CN0100001N1+02241+02101101741ADDAA124012091AG10000GF108991051031012501061999KA1240N+02021MA1999999100701MD1999999-0151REMSYN023 333 20202 59015 60124;
0134829940999991995081000004-09667-035700FM-12+008999999V0201401N00261007501CN9999999N9+02401+02011101611ADDAA106000091AG10000GF105991051021008001001001KA1240M+02841MA1999999100581MD1999999-0131REMSYN017 333 10284 59013;EQDQ01+000002VOVAR 
0115829940999991995081012004-09667-035700FM-12+008999999V0200901N00411007501CN0500001N1+02601+02031101771ADDAA106000091AG10000GF105991051031008001001001KA1240N+02071MA1999999100741MD1999999+0041REMSYN017 333 20207 58004;
0134829940999991995081100004-09667-035700FM-12+008999999V0200901N00101007501CN9999999N9+02401+01111101711ADDAA106000091AG10000GF105991051021008001001001KA1240M+02901MA1999999100681MD1999999+0101REMSYN017 333 10290 58010;EQDQ01+000002VOVAR 
0115829940999991995081112004-09667-035700FM-12+008999999V0200901N00461045001CN0500001N1+02641+01801101801ADDAA106000091AG10000GF106991041021012501061041KA1240N+02031MA1999999100771MD1999999+0031REMSYN017 333 20203 58003;
0096829940999991995081118004-09667-035700FM-12+008999999V0201401N00511045001CN0500001N1+02701+02141101631ADDAA106000091AG10000GF106991041031017501041041MA1999999100601MD1999999+0171REMSYN011 333 58017;
0121829940999991995081212004-09667-035700FM-12+008999999V0201401N002610450019N0500001N1+02641+01851101111ADDAA124001091AG10000GF106991041021017501061001KA1240N+01981MA1999999100971MD1999999+0201REMSYN023 333 20198 58020 60014;
0096829940999991995081218004-09667-035700FM-12+008999999V0201801N00411220001CN0500001N1+02641+01751101721ADDAA106000091AG10000GF105991041011012501001041MA1999999100681MD1999999+0081REMSYN011 333 58008;
0115829940999991995081312004-09667-035700FM-12+008999999V0201401N00411045001CN0500001N1+02481+01781101921ADDAA106000091AG10000GF106991041021017501061001KA1240N+02001MA1999999100881MD1999999-0091REMSYN017 333 20200 59009;
0096829940999991995081318004-09667-035700FM-12+008999999V0201401N00461045001CN0500001N1+02701+01801101501ADDAA106000091AG10000GF106991021021017501061001MA1999999100461MD1999999-0221REMSYN011 333 59022;
0121829940999991995081412004-09667-035700FM-12+008999999V0200501N00151018001CN0500001N1+02241+02101101771ADDAA124001091AG10000GF108991061081017501061001KA1240N+02121MA1999999100731MD1999999-0151REMSYN023 333 20212 59015 69974;
0096829940999991995081418004-09667-035700FM-12+008999999V0200901N00261012001CN0500001N1+02481+02111101451ADDAA106000091AG10000GF106991051021012501031031MA1999999100421MD1999999-0041REMSYN011 333 59004;
0121829940999991995081512004-09667-035700FM-12+008999999V0200901N00211045001CN0500001N1+02421+02111101791ADDAA124003091AG10000GF106991041081008001031001KA1240N+02141MA1999999100761MD1999999+0031REMSYN023 333 20214 58003 60034;
0096829940999991995081518004-09667-035700FM-12+008999999V0201801N00511045001CN0200001N1+02681+02091101601ADDAA106000091AG10000GF106991041021008001031041MA1999999100571MD1999999+0151REMSYN011 333 58015;
0115829940999991995081612004-09667-035700FM-12+008999999V0201401N00361045001CN0500001N1+02561+01671101921ADDAA106000091AG10000GF106991041021017501061041KA1240N+01921MA1999999100891MD1999999+0131REMSYN017 333 20192 58013;
0096829940999991995081618004-09667-035700FM-12+008999999V0200901N00511007501CN0500001N1+02781+02041101821ADDAA106000091AG10000GF105991051021008001001001MA1999999100791MD1999999+0221REMSYN011 333 58022;
0121829940999991995081712004-09667-035700FM-12+008999999V0201801N00461045001CN0100001N1+02401+01971101961ADDAA124001091AG10000GF108991041031012501041999KA1240N+01901MA1999999100921MD1999999+0031REMSYN023 333 20190 58003 69984;
0121829940999991995081812004-09667-035700FM-12+008999999V0200901N00621045001CN0500001N1+02601+01871101021ADDAA124003091AG10000GF106991041031012501061001KA1240N+01971MA1999999100991MD1999999+0071REMSYN023 333 20197 58007 60034;
0102829940999991995081818004-09667-035700FM-12+008999999V0201401N00151045001CN0200001N1+02481+01981101741ADDAA106001091AG10000GF107991041071012501041001MA1999999100701MD1999999+0061REMSYN017 333 58006 60011;
0121829940999991995081912004-09667-035700FM-12+008999999V0200901N00101045001CN0200001N1+02251+02051101931ADDAA124003091AG10000GF106991031031012501061001KA1240N+02001MA1999999100891MD1999999-0101REMSYN023 333 20200 59010 60034;
0102829940999991995081918004-09667-035700FM-12+008999999V0201401N00311007501CN0500001N1+02701+02031101821ADDAA106000591AG10000GF105991051031008001001001MA1999999100791MD1999999+0091REMSYN017 333 58009 69951;
0121829940999991995082012004-09667-035700FM-12+008999999V0200901N00311045001CN0500001N1+02631+01961101851ADDAA124001091AG10000GF106991021031008001021001KA1240N+02031MA1999999100821MD1999999-0071REMSYN023 333 20203 59007 69984;
0131829940999991995082112004-09667-035700FM-12+008999999V0200901N00571220001CN0020001N1+02881+01891101411ADDAA106000091AG10000GA1001+999999999GF100991001001999999001001KA1240N+02221MA1999999101211MD1999999-0011REMSYN017 333 20222 59001;
0096829940999991995082118004-09667-035700FM-12+008999999V0201401N00311045001CN0500001N1+02561+02081101761ADDAA106000091AG10000GF106991041021008001031001MA1999999100721MD1999999+0101REMSYN011 333 58010;
0150829940999991995082200004-09667-035700FM-12+008999999V0200901N002619999999N9999999N9+02381+02021101901ADDAA106000091AG10000GF105991999021004501001001KA1240M+02821MA1999999100871MD1999999+0071REMSYN017 333 10282 58007;EQDQ01+000032SCOTLCQ02+000002VOVAR 
0121829940999991995082212004-09667-035700FM-12+008999999V0200501N002610180019N0500001N1+02561+01931101991ADDAA124002091AG10000GF107991051081017501061031KA1240N+02121MA1999999100961MD1999999-0071REMSYN023 333 20212 59007 60024;
0096829940999991995082218004-09667-035700FM-12+008999999V0200901N00261012001CN0500001N1+02601+01741101711ADDAA106000091AG10000GF106991051021012501031041MA1999999100671MD1999999-0051REMSYN011 333 59005;
0115829940999991995082312004-09667-035700FM-12+008999999V0201401N00151045001CN0500001N1+02441+01831101961ADDAA106000091AG10000GF106991041021017501061041KA1240N+01961MA1999999100921MD1999999-0041REMSYN017 333 20196 59004;
0096829940999991995082318004-09667-035700FM-12+008999999V0200901N00311007501CN0500001N1+02741+02021101681ADDAA106000091AG10000GF105991051011008001001001MA1999999100661MD1999999-0011REMSYN011 333 59001;
0121829940999991995082412004-09667-035700FM-12+008999999V0200901N00571045001CN0500001N1+02401+01801101951ADDAA124006091AG10000GF106991041031012501061001KA1240N+02071MA1999999100911MD1999999-0011REMSYN023 333 20207 59001 60064;
0096829940999991995082418004-09667-035700FM-12+008999999V0200901N00411045001CN0100001N1+02631+02051101731ADDAA106000091AG10000GF106991021031008001021001MA1999999100701MD1999999+0041REMSYN011 333 58004;
0123829940999991995082500004-09667-035700FM-12+008999999V0200901N00101045001CN9999999N9+02401+02071101871ADDAG10000GF106991031031008001061001KA1240M+02681MA1999999100841MD1999999+0031REMSYN017 333 10268 58003;EQDQ01+000002VOVAR 
0121829940999991995082512004-09667-035700FM-12+008999999V0201801N00311045001CN0500001N1+02481+01901101011ADDAA124004091AG10000GF106991041031012501061001KA1240N+01971MA1999999100981MD1999999+0071REMSYN023 333 20197 58007 60044;
0102829940999991995082518004-09667-035700FM-12+008999999V0201401N001010120019N0100001N1+02341+01951101781ADDAA106007091AG10000GF108991051071012501041999MA1999999100741MD1999999+0041REMSYN017 333 58004 60071;
0121829940999991995082612004-09667-035700FM-12+008999999V0203601N00461015001CN0500001N1+02201+02081102121ADDAA124007091AG10000GF108991051081012501061001KA1240N+02081MA1999999101071MD1999999+0121REMSYN023 333 20208 58012 60074;
0102829940999991995082618004-09667-035700FM-12+008999999V0201401N00621015001CN0500001N1+02561+02171101781ADDAA106004091AG10000GF107991051081012501061041MA1999999100741MD1999999+0001REMSYN017 333 58000 60041;
0096829940999991995082718004-09667-035700FM-12+008999999V0203601N00311045001CN0500001N1+02621+02121101871ADDAA106000091AG10000GF106991041021008001031001MA1999999100731MD1999999-0011REMSYN011 333 59001;
0156829940999991995082800004-09667-035700FM-12+008999999V0200901N002119999999N9999999N9+02241+02211101871ADDAA106005091AG10000GF106991999021008001001001KA1240M+02741MA1999999100841MD1999999-0061REMSYN023 333 10274 59006 60051;EQDQ01+000042SCOTLCQ02+000002VOVAR 
0102829940999991995082818004-09667-035700FM-12+008999999V0201401N004610450019N0500001N1+02521+01931101791ADDAA106000191AG10000GF106991041081008001061031MA1999999100751MD1999999+0021REMSYN017 333 58002 69921;
0121829940999991995082912004-09667-035700FM-12+008999999V0201401N00311045001CN0500001N1+02581+02101102081ADDAA124000591AG10000GF106991041021008001031031KA1240N+02041MA1999999101041MD1999999+0041REMSYN023 333 20204 58004 69954;
0134829940999991995083000004-09667-035700FM-12+008999999V0200901N00101045001CN9999999N9+02301+02071101981ADDAA106000091AG10000GF106991031031008001061001KA1240M+02741MA1999999100951MD1999999+0051REMSYN017 333 10274 58005;EQDQ01+000002VOVAR 
0115829940999991995083012004-09667-035700FM-12+008999999V0201401N00211045001CN0500001N1+02511+01751101081ADDAA106000091AG10000GF106991041031012501061001KA1240N+02081MA1999999101041MD1999999+0001REMSYN017 333 20208 58000;
0096829940999991995083118004-09667-035700FM-12+008999999V0200901N00461007501CN0500001N1+02741+02141101861ADDAA106000091AG10000GF105991051031008001001001MA1999999100831MD1999999+0111REMSYN011 333 58011;
0121829940999991995090112004-09667-035700FM-12+008999999V0201401N00311045001CN0500001N1+02581+01801101031ADDAA124000191AG10000GF106991041031012501061001KA1240N+02021MA1999999101001MD1999999-0061REMSYN023 333 20202 59006 69924;
0115829940999991995090118004-09667-035700FM-12+008999999V0200901N00511012001CN0100001N1+02441+01831101832ADDAA106000091AG10000GF108991051031012501061999MA1999999100791MD1999999-0041REMSYN011 333 59004;EQDQ01+101833APOSLP
0121829940999991995090212004-09667-035700FM-12+008999999V0201401N00051045001CN0200001N1+02451+02321101061ADDAA124003091AG10000GF107991041071012501041999KA1240N+02001MA1999999101021MD1999999+0021REMSYN023 333 20200 58002 60034;
0096829940999991995090218004-09667-035700FM-12+008999999V0201401N00411220001CN0500001N1+02641+01901101811ADDAA106000091AG10000GF106991041021017501001011MA1999999100781MD1999999-0011REMSYN011 333 59001;
0121829940999991995090312004-09667-035700FM-12+008999999V0201801N00511045001CN0500001N1+02561+01901101131ADDAA124004091AG10000GF106991041031012501061001KA1240N+01991MA1999999101091MD1999999+0071REMSYN023 333 20199 58007 60044;
0082829940999991995090318004-09667-035700FM-12+008999999V0200901N00621045001CN0500001N1+02641+02071101891ADDAA106000091AG10000GF106991021031008001021001MA1999999100861REMSYN011 333 50008;
0121829940999991995090412004-09667-035700FM-12+008999999V0201401N00461015001CN0500001N1+02231+02191102261ADDAA124001091AG10000GF107991051081012501061031KA1240N+02021MA1999999101221MD1999999+0131REMSYN023 333 20202 58013 69994;
0121829940999991995090512004-09667-035700FM-12+008999999V0200901N00461045001CN0500001N1+02641+01901102221ADDAA124000391AG10000GF106991041021008001031001KA1240N+02341MA1999999101181MD1999999-0041REMSYN023 333 20234 59004 69934;
0115829940999991995090518004-09667-035700FM-12+008999999V0200901N004610450019N0500001N1+02621+01911101891ADDAA106000091AG10000GF106991041081008001061031MA1999999100851MD1999999-0081REMSYN011 333 59008;EQDQ01+999990APOSLP
0082829940999991995090618004-09667-035700FM-12+008999999V0200901N00461045001CN0200001N1+02601+02061101851ADDAA106000191AG10000GF106991031031008001061001MA1999999100821REMSYN011 333 69911;
0150829940999991995090700004-09667-035700FM-12+008999999V0200901N00211045001CN9999999N9+02391+02071101052ADDAA106000091AG10000GF106991031031008001061001KA1240M+02651MA1999999101011MD1999999-0111REMSYN017 333 10265 59011;EQDQ01+101053APOSLPQ02+000002VOVAR 
0104829940999991995090712004-09667-035700FM-12+008999999V0201401N00511220001CN0500001N1+02561+01731101931ADDAG10000GF104991041011012501001011KA1240N+02041MA1999999100901MD1999999-0101REMSYN017 333 20204 59010;
0115829940999991995090812004-09667-035700FM-12+008999999V0201401N00511045001CN0500001N1+02601+01891101971ADDAA106000091AG10000GF106991021021012501061011KA1240N+02101MA1999999100931MD1999999+0031REMSYN017 333 20210 58003;
0096829940999991995090818004-09667-035700FM-12+008999999V0201401N00411012001CN0200001N1+02661+02001101681ADDAA106000091AG10000GF107991051021012501061041MA1999999100651MD1999999+0031REMSYN011 333 58003;
0134829940999991995090900004-09667-035700FM-12+008999999V0200501N00411045001CN9999999N9+02241+02031101901ADDAA106000091AG10000GF106991041021012501041001KA1240M+02811MA1999999100861MD1999999-0061REMSYN017 333 10281 59006;EQDQ01+000002VOVAR 
0121829940999991995090912004-09667-035700FM-12+008999999V0200901N00511045001CN0500001N1+02521+01911101991ADDAA124002091AG10000GF106991041031012501041011KA1240N+02051MA1999999100951MD1999999+0021REMSYN023 333 20205 58002 60024;
0115829940999991995091112004-09667-035700FM-12+008999999V0200901N00461007501CN0500001N1+02581+02041101901ADDAA106000091AG10000GF105991051021008001001001KA1240N+02081MA1999999100871MD1999999-0131REMSYN017 333 20208 59013;
0115829940999991995091118004-09667-035700FM-12+008999999V0200501N00511220001CN0500001N1+02731+02101101701ADDAA106000091AG10000GF103991999031008001001001MA1999999100671MD1999999-0011REMSYN011 333 59001;EQDQ01+000052SCOTLC
0121829940999991995091212004-09667-035700FM-12+008999999V0202701N00101012001CN0500001N1+02421+01791101821ADDAA124663092AG10000GF107991051061012501081031KA1240N+02101MA1999999100791MD1999999-0081REMSYN023 333 20210 59008 66634;
0115829940999991995091218004-09667-035700FM-12+008999999V0203601N00361220001CN0500001N1+02691+01471101451ADDAA106000091AG10000GF103991999021999999001001MA1999999100431MD1999999-0241REMSYN011 333 59024;EQDQ01+000012SCOTLC
0115829940999991995091312004-09667-035700FM-12+008999999V0200901N00051007501CN0500001N1+02581+02041101751ADDAA106000091AG10000GF105991051021008001001001KA1240N+02071MA1999999100721MD1999999-0071REMSYN017 333 20207 59007;
0115829940999991995091318004-09667-035700FM-12+008999999V0200901N00411220001CN0500001N1+02771+02111101601ADDAA106000091AG10000GF103991031011008001001001MA1999999100571MD1999999+0141REMSYN011 333 58014;EQDQ01+999990APOSP 
0121829940999991995091412004-09667-035700FM-12+008999999V0200901N00461045001CN0200001N1+02481+02091102081ADDAA124006091AG10000GF106991031031008001061001KA1240N+02001MA1999999101051MD1999999+0331REMSYN023 333 20200 58033 60064;
0096829940999991995091418004-09667-035700FM-12+008999999V0200901N00571007501CN0500001N1+02031+02011101911ADDAA106000091AG10000GF105991051031008001001001MA1999999100881MD1999999+0111REMSYN011 333 58011;
