0115830960999991995010112004-10917-037050FM-12+000699999V0209999999999220001CN0200001N1+02861+02391101391ADDAA106000091AG10000GF102991021051012501001001KA1240N+02301MA1999999101321MD1999999+0011REMSYN017 333 20230 58001;
0096830960999991995010118004-10917-037050FM-12+000699999V0209999999999220001CN0200001N1+02831+02271101271ADDAA106000091AG10000GF101991011011012501001001MA1999999101201MD1999999+0041REMSYN011 333 58004;
0115830960999991995010212004-10917-037050FM-12+000699999V0209999999999045001CN0200001N1+02901+02371101351ADDAA106000091AG10000GF105991031051012501031001KA1240N+02351MA1999999101281MD1999999-0041REMSYN017 333 20235 59004;
0096830960999991995010218004-10917-037050FM-12+000699999V0209999999999220001CN0200001N1+02811+02231101181ADDAA106000091AG10000GF102991021051012501001001MA1999999101111MD1999999-0091REMSYN011 333 59009;
0134830960999991995010300004-10917-037050FM-12+000699999V0209999999999220001CN9999999N9+02661+02241101111ADDAA106000091AG10000GF104991041021012501001001KA1240M+03021MA1999999101041MD1999999-0071REMSYN017 333 10302 59007;EQDQ01+000002VOVAR 
0115830960999991995010312004-10917-037050FM-12+000699999V0209999999999220001CN0200001N1+02921+02541101291ADDAA106000091AG10000GF102991021051012501001001KA1240N+02331MA1999999101221MD1999999-0061REMSYN017 333 20233 59006;
0096830960999991995010318004-10917-037050FM-12+000699999V0209999999999220001CN0200001N1+02871+02341101151ADDAA106000091AG10000GF103991031051012501001001MA1999999101081MD1999999-0031REMSYN011 333 59003;
0134830960999991995010400004-10917-037050FM-12+000699999V0209999999999220001CN9999999N9+02631+02251101121ADDAA106000091AG10000GF101991011011012501001001KA1240M+03001MA1999999101051MD1999999+0011REMSYN017 333 10300 58001;EQDQ01+000002VOVAR 
0115830960999991995010412004-10917-037050FM-12+000699999V0209999999999045001CN0200001N1+02911+02371101311ADDAA106000091AG10000GF106991041051012501031001KA1240N+02401MA1999999101241MD1999999-0021REMSYN017 333 20240 59002;
0096830960999991995010418004-10917-037050FM-12+000699999V0209999999999045001CN0200001N1+02841+02371101131ADDAA106000091AG10000GF106991031051012501031001MA1999999101061MD1999999-0021REMSYN011 333 59002;
0115830960999991995010512004-10917-037050FM-12+000699999V0209999999999220001CN0200001N1+02961+02311101371ADDAA106000091AG10000GF101991011051012501001001KA1240N+02291MA1999999101301MD1999999+0061REMSYN017 333 20229 58006;
0096830960999991995010518004-10917-037050FM-12+000699999V0209999999999220001CN0200001N1+02811+02251101181ADDAA106000091AG10000GF101991011051012501001001MA1999999101101MD1999999+0051REMSYN011 333 58005;
0134830960999991995010600004-10917-037050FM-12+000699999V0209999999999220001CN9999999N9+02561+02191101161ADDAA106000091AG10000GF104991041051012501001001KA1240M+03061MA1999999101091MD1999999+0071REMSYN017 333 10306 58007;EQDQ01+000002VOVAR 
0115830960999991995010612004-10917-037050FM-12+000699999V0209999999999007501CN0100001N1+02561+02351101511ADDAA106000091AG10000GF108991081071008001999999KA1240N+02431MA1999999101441MD1999999+0141REMSYN017 333 20243 58014;
0134830960999991995010700004-10917-037050FM-12+000699999V0209999999999012001CN9999999N9+02581+02251101131ADDAA106000091AG10000GF106991061051012501001001KA1240M+02911MA1999999101061MD1999999-0031REMSYN017 333 10291 59003;EQDQ01+000002VOVAR 
0121830960999991995010712004-10917-037050FM-12+000699999V0209999999999045001CN0200001N1+02761+02281101371ADDAA124001091AG10000GF106991041051012501031001KA1240N+02351MA1999999101301MD1999999-0141REMSYN023 333 20235 59014 60014;
0134830960999991995010800004-10917-037050FM-12+000699999V0209999999999220001CN9999999N9+02571+02191101081ADDAA106000091AG10000GF104991041051012501001001KA1240M+02951MA1999999101011MD1999999-0051REMSYN017 333 10295 59005;EQDQ01+000002VOVAR 
0121830960999991995010812004-10917-037050FM-12+000699999V0209999999999012001CN0200001N1+02711+02301101211ADDAA124000591AG10000GF106991061051012501001001KA1240N+02431MA1999999101141MD1999999-0161REMSYN023 333 20243 59016 69964;
0096830960999991995010818004-10917-037050FM-12+000699999V0209999999999220001CN0200001N1+02801+02221101251ADDAA106000091AG10000GF101991011051012501001001MA1999999101181MD1999999-0041REMSYN011 333 59004;
0115830960999991995010912004-10917-037050FM-12+000699999V0209999999999220001CN0200001N1+02941+02311101361ADDAA106000091AG10000GF101991011051012501001001KA1240N+02431MA1999999101291MD1999999+0151REMSYN017 333 20243 58015;
0134830960999991995011000004-10917-037050FM-12+000699999V0209999999999220001CN9999999N9+02641+02251101251ADDAA106000091AG10000GF101991011011012501001001KA1240M+03031MA1999999101181MD1999999+0041REMSYN017 333 10303 58004;EQDQ01+000002VOVAR 
0115830960999991995011012004-10917-037050FM-12+000699999V0209999999999105001CN0200001N1+02941+02191101481ADDAA106000091AG10000GF105991021051012501031011KA1240N+02371MA1999999101311MD1999999+0021REMSYN017 333 20237 58002;
0096830960999991995011018004-10917-037050FM-12+000699999V0209999999999220001CN0200001N1+02891+02291101321ADDAA106000091AG10000GF104991041051012501001001MA1999999101251MD1999999+0051REMSYN011 333 58005;
0115830960999991995011112004-10917-037050FM-12+000699999V0209999999999220001CN0200001N1+02901+02171101481ADDAA106000091AG10000GF102991021051012501001001KA1240N+02371MA1999999101411MD1999999+0101REMSYN017 333 20237 58010;
0096830960999991995011218004-10917-037050FM-12+000699999V0209999999999220001CN0200001N1+02941+02241101121ADDAA106000091AG10000GF101991011051012501001001MA1999999101051MD1999999-0151REMSYN011 333 59015;
0134830960999991995011300004-10917-037050FM-12+000699999V0209999999999012001CN9999999N9+02631+02121101251ADDAA106000091AG10000GF105991051051012501001001KA1240M+03011MA1999999101181MD1999999-0031REMSYN017 333 10301 59003;EQDQ01+000002VOVAR 
0121830960999991995011312004-10917-037050FM-12+000699999V0209999999999045001CN0200001N1+02821+02311101421ADDAA124000191AG10000GF106991041051012501031001KA1240N+02371MA1999999101351MD1999999+0031REMSYN023 333 20237 58003 69924;
0096830960999991995011318004-10917-037050FM-12+000699999V0209999999999220001CN0200001N1+02711+02131101181ADDAA106000091AG10000GF102991021051012501001001MA1999999101111MD1999999+0061REMSYN011 333 58006;
0134830960999991995011400004-10917-037050FM-12+000699999V0209999999999220001CN9999999N9+02631+02211101291ADDAA106000091AG10000GF104991041051012501001001KA1240M+03151MA1999999101221MD1999999+0041REMSYN017 333 10315 58004;EQDQ01+000002VOVAR 
0115830960999991995011412004-10917-037050FM-12+000699999V0209999999999220001CN0200001N1+02921+02271101491ADDAA106000091AG10000GF102991021051012501001001KA1240N+02381MA1999999101421MD1999999+0071REMSYN017 333 20238 58007;
0096830960999991995011418004-10917-037050FM-12+000699999V0209999999999220001CN0200001N1+02961+02261101471ADDAA106000091AG10000GF102991021011012501001001MA1999999101201MD1999999+0091REMSYN011 333 58009;
0134830960999991995011500004-10917-037050FM-12+000699999V0209999999999220001CN9999999N9+02681+02201101211ADDAA106000091AG10000GF101991011011012501001001KA1240M+03051MA1999999101141MD1999999-0081REMSYN017 333 10305 59008;EQDQ01+000002VOVAR 
0121830960999991995011512004-10917-037050FM-12+000699999V0209999999999012001CN0200001N1+02931+02121101571ADDAA124000191AG10000GF105991051051012501001001KA1240N+02341MA1999999101501MD1999999+0081REMSYN023 333 20234 58008 69924;
0096830960999991995011518004-10917-037050FM-12+000699999V0209999999999012001CN0200001N1+02971+02261101381ADDAA106000091AG10000GF106991061051012501001001MA1999999101311MD1999999+0111REMSYN011 333 58011;
0115830960999991995011612004-10917-037050FM-12+000699999V0209999999999220001CN0200001N1+02901+02211101511ADDAA106000091AG10000GF102991021051012501001001KA1240N+02341MA1999999091441MD1999999-0061REMSYN017 333 20234 59006;
0115830960999991995011618004-10917-037050FM-12+000699999V0209999999999220001CN0200001N1+02951+02341101441ADDAA106000091AG10000GF102991021051012501001001MA1999999101372MD1999999+0061REMSYN011 333 58006;EQDQ01+101373APOSP 
0115830960999991995011712004-10917-037050FM-12+000699999V0209999999999220001CN0200001N1+02931+02281101481ADDAA106000091AG10000GF102991021051012501001001KA1240N+02301MA1999999101411MD1999999-0031REMSYN017 333 20230 59003;
0096830960999991995011718004-10917-037050FM-12+000699999V0209999999999220001CN0200001N1+02911+02211101401ADDAA106000091AG10000GF101991011021012501001001MA1999999101331MD1999999-0041REMSYN011 333 59004;
0115830960999991995011812004-10917-037050FM-12+000699999V0209999999999220001CN0200001N1+02921+02271101591ADDAA106000091AG10000GF102991021051012501001001KA1240N+02301MA1999999101471MD1999999+0061REMSYN017 333 20230 58006;
0096830960999991995011818004-10917-037050FM-12+000699999V0209999999999220001CN0200001N1+02941+02311101371ADDAA106000091AG10000GF101991011051012501001001MA1999999101301MD1999999-0031REMSYN011 333 59003;
0134830960999991995011900004-10917-037050FM-12+000699999V0209999999999220001CN9999999N9+02661+02221101311ADDAA106000091AG10000GF101991011011012501001001KA1240M+03001MA1999999101241MD1999999+0131REMSYN017 333 10300 58013;EQDQ01+000002VOVAR 
0134830960999991995011912004-10917-037050FM-12+000699999V0209999999999220001CN0200001N1+02971+02231101491ADDAA106000091AG10000GF101991011051012501001001KA1240M+99999MA1999999101421MD1999999-0051REMSYN017 333 10237 59005;EQDQ01 +02372ATMX  
0096830960999991995011918004-10917-037050FM-12+000699999V0209999999999220001CN0200001N1+02951+02251101311ADDAA106000091AG10000GF101991011011012501001001MA1999999101281MD1999999-0061REMSYN011 333 59006;
0115830960999991995012012004-10917-037050FM-12+000699999V0209999999999220001CN0200001N1+02981+02331101601ADDAA106000091AG10000GF101991011011012501001001KA1240N+02371MA1999999101531MD1999999+0111REMSYN017 333 20237 58011;
0096830960999991995012018004-10917-037050FM-12+000699999V0209999999999220001CN0200001N1+02911+02251101391ADDAA106000091AG10000GF101991011051012501001001MA1999999101321MD1999999+0081REMSYN011 333 58008;
0134830960999991995012100004-10917-037050FM-12+000699999V0209999999999220001CN9999999N9+02621+02141101271ADDAA106000091AG10000GF101991011011012501001001KA1240M+03071MA1999999101201MD1999999-0021REMSYN017 333 10307 59002;EQDQ01+000002VOVAR 
0115830960999991995012112004-10917-037050FM-12+000699999V0209999999999220001CN0200001N1+02911+02261101371ADDAA106000091AG10000GF101991011051012501001001KA1240N+02371MA1999999101301MD1999999-0231REMSYN017 333 20237 59023;
0096830960999991995012118004-10917-037050FM-12+000699999V0209999999999220001CN0200001N1+02931+02181101351ADDAA106000091AG10000GF102991021051012501001001MA1999999101281MD1999999-0041REMSYN011 333 59004;
0115830960999991995012212004-10917-037050FM-12+000699999V0209999999999220001CN0200001N1+02901+02221101191ADDAA106000091AG10000GF101991011051012501001001KA1240N+02371MA1999999101121MD1999999-0181REMSYN017 333 20237 59018;
0134830960999991995012300004-10917-037050FM-12+000699999V0209999999999220001CN9999999N9+02601+02061101171ADDAA106000091AG10000GF103991031021012501001001KA1240M+03061MA1999999101101MD1999999+0001REMSYN017 333 10306 58000;EQDQ01+000002VOVAR 
0115830960999991995012312004-10917-037050FM-12+000699999V0209999999999220001CN0200001N1+02911+02171101041ADDAA106000091AG10000GF101991011051012501001001KA1240N+02371MA1999999100971MD1999999-0151REMSYN017 333 20237 59015;
0096830960999991995012318004-10917-037050FM-12+000699999V0209999999999220001CN0200001N1+02941+02291101131ADDAA106000091AG10000GF102991021011012501001001MA1999999101061MD1999999-0051REMSYN011 333 59005;
0096830960999991995012418004-10917-037050FM-12+000699999V0209999999999220001CN0200001N1+02921+02221101171ADDAA106000091AG10000GF101991011051012501001001MA1999999101101MD1999999+0041REMSYN011 333 58004;
0134830960999991995012500004-10917-037050FM-12+000699999V0209999999999220001CN9999999N9+02611+02101101201ADDAA106000091AG10000GF102991021011012501001001KA1240M+03081MA1999999101131MD1999999-0051REMSYN017 333 10308 59005;EQDQ01+000002VOVAR 
0096830960999991995012518004-10917-037050FM-12+000699999V0209999999999220001CN0200001N1+02971+02331101251ADDAA106000091AG10000GF101991011051012501001001MA1999999101181MD1999999+0081REMSYN011 333 58008;
0134830960999991995012600004-10917-037050FM-12+000699999V0209999999999220001CN9999999N9+02641+02181101221ADDAA106000091AG10000GF102991021021012501001001KA1240M+03101MA1999999101151MD1999999+0021REMSYN017 333 10310 58002;EQDQ01+000002VOVAR 
0115830960999991995012612004-10917-037050FM-12+000699999V0209999999999012001CN0200001N1+02911+02301101381ADDAA106000091AG10000GF105991051051012501001001KA1240N+02371MA1999999101311MD1999999-0011REMSYN017 333 20237 59001;
0096830960999991995012618004-10917-037050FM-12+000699999V0209999999999220001CN0200001N1+02931+02271101921ADDAA106000091AG10000GF101991011051012501001001MA1999999101221MD1999999+0041REMSYN011 333 58004;
0134830960999991995012700004-10917-037050FM-12+000699999V0209999999999220001CN9999999N9+02621+02071101181ADDAA106000091AG10000GF101991011011012501001001KA1240M+03051MA1999999101111MD1999999-0041REMSYN017 333 10305 59004;EQDQ01+000002VOVAR 
0115830960999991995012712004-10917-037050FM-12+000699999V0209999999999220001CN0200001N1+02901+02271101421ADDAA106000091AG10000GF102991021051012501001001KA1240N+02351MA1999999101351MD1999999+0041REMSYN017 333 20235 58004;
0096830960999991995012718004-10917-037050FM-12+000699999V0209999999999220001CN0200001N1+02961+02281101211ADDAA106000091AG10000GF101991011051012501001001MA1999999101141MD1999999-0081REMSYN011 333 59008;
0134830960999991995012800004-10917-037050FM-12+000699999V0209999999999012001CN9999999N9+02651+02071101241ADDAA106000091AG10000GF106991061051012501001001KA1240M+03101MA1999999101171MD1999999+0061REMSYN017 333 10310 58006;EQDQ01+000002VOVAR 
0101830960999991995012812004-10917-037050FM-12+000699999V0209999999999220001CN0200001N1+02861+02351101331ADDAA124003091AG10000GF102991021051012501001001KA1240N+02311MA1999999101261REMSYN017 333 20231 60034;
0096830960999991995012818004-10917-037050FM-12+000699999V0209999999999220001CN0200001N1+02911+02341101291ADDAA106000091AG10000GF104991041051012501001001MA1999999101221MD1999999+0081REMSYN011 333 58008;
0115830960999991995012900004-10917-037050FM-12+000699999V0209999999999220001CN0200001N1+02931+02301101401ADDAA106000091AG10000GF101991011051012501001001KA1240N+02291MA1999999101331MD1999999+0071REMSYN017 333 20229 58007;
0115830960999991995013012004-10917-037050FM-12+000699999V0209999999999220001CN0200001N1+02901+02271101311ADDAA106000091AG10000GF101991011051012501001001KA1240N+02321MA1999999101241MD1999999-0091REMSYN017 333 20232 59009;
0121830960999991995013112004-10917-037050FM-12+000699999V0200901N00151045001CN0200001N1+02301+02161101241ADDAA124013091AG10000GF108991021021008001051001KA1240N+01701MA1999999096151MD1999999-0031REMSYN023 333 20170 59003 60134;
0115830960999991995013118004-10917-037050FM-12+000699999V0209999999999220001CN0200001N1+02971+02321101131ADDAA106000091AG10000GF102991021051012501001001MA1999999101062MD1999999-0051REMSYN011 333 59005;EQDQ01+101063APOSP 
0134830960999991995020100004-10917-037050FM-12+000699999V0209999999999220001CN9999999N9+02601+02101101091ADDAA106000091AG10000GF101991011011012501001001KA1240M+03091MA1999999101021MD1999999-0081REMSYN017 333 10309 59008;EQDQ01+000002VOVAR 
0115830960999991995020112004-10917-037050FM-12+000699999V0209999999999012001CN0200001N1+02861+02261101321ADDAA106000091AG10000GF107991071051012501001001KA1240N+02391MA1999999101251MD1999999+0071REMSYN017 333 20239 58007;
0115830960999991995020312004-10917-037050FM-12+000699999V0209999999999220001CN0200001N1+02951+02301101231ADDAA106000091AG10000GF102991021051012501001001KA1240N+02311MA1999999101161MD1999999+0051REMSYN017 333 20231 58005;
0121830960999991995020400004-10917-037050FM-12+000699999V0209999999999220001CN0200001N1+02861+02281101321ADDAA124002091AG10000GF104991021051012501031001KA1240N+02311MA1999999101251MD1999999+0091REMSYN023 333 20231 58009 60024;
0096830960999991995020418004-10917-037050FM-12+000699999V0203201N00211045001CN0500001N1+02961+02131100281ADDAA106000091AG10000GF107991021011008001051001MA1999999095341MD1999999-0581REMSYN011 333 59058;
0115830960999991995020512004-10917-037050FM-12+000699999V0209999999999220001CN0200001N1+02901+02261101301ADDAA106000091AG10000GF101991011011012501001001KA1240N+02291MA1999999101231MD1999999-0021REMSYN017 333 20229 59002;
0096830960999991995020518004-10917-037050FM-12+000699999V0209999999999220001CN0200001N1+02881+02361101151ADDAA106000091AG10000GF102991021051012501001001MA1999999101081MD1999999+0051REMSYN011 333 58005;
0134830960999991995020600004-10917-037050FM-12+000699999V0209999999999012001CN9999999N9+02631+02211101111ADDAA106000091AG10000GF106991061051012501001001KA1240M+02941MA1999999101041MD1999999+0101REMSYN017 333 10294 58010;EQDQ01+000002VOVAR 
0121830960999991995020612004-10917-037050FM-12+000699999V0209999999999012001CN0200001N1+02911+02271101501ADDAA124000591AG10000GF106991061051012501001001KA1240N+02351MA1999999101431MD1999999+0201REMSYN023 333 20235 58020 69954;
0134830960999991995020700004-10917-037050FM-12+000699999V0209999999999220001CN9999999N9+02631+02151101071ADDAA106000091AG10000GF102991021021012501001001KA1240M+02961MA1999999101001MD1999999-0041REMSYN017 333 10296 59004;EQDQ01+000002VOVAR 
0115830960999991995020712004-10917-037050FM-12+000699999V0209999999999012001CN0200001N1+02881+02241101471ADDAA106000091AG10000GF105991051051012501001001KA1240N+02321MA1999999101401MD1999999-0031REMSYN017 333 20232 59003;
0096830960999991995020718004-10917-037050FM-12+000699999V0209999999999220001CN0200001N1+02901+02261101181ADDAA106000091AG10000GF101991011051012501001001MA1999999101111MD1999999+0101REMSYN011 333 58010;
0134830960999991995020800004-10917-037050FM-12+000699999V0209999999999220001CN9999999N9+02641+02231101141ADDAA106000091AG10000GF102991021021012501001001KA1240M+02981MA1999999101071MD1999999+0071REMSYN017 333 10298 58007;EQDQ01+000002VOVAR 
0115830960999991995020812004-10917-037050FM-12+000699999V0209999999999220001CN0200001N1+02911+02271101591ADDAA106000091AG10000GF101991011051012501001001KA1240N+02361MA1999999101521MD1999999+0121REMSYN017 333 20236 58012;
0096830960999991995020818004-10917-037050FM-12+000699999V0209999999999220001CN0200001N1+02891+02281101391ADDAA106000091AG10000GF101991011011012501001001MA1999999101321MD1999999+0211REMSYN011 333 58021;
0134830960999991995020900004-10917-037050FM-12+000699999V0209999999999220001CN9999999N9+02671+02181101181ADDAA106000091AG10000GF101991011011012501001001KA1240M+02991MA1999999101111MD1999999+0041REMSYN017 333 10299 58004;EQDQ01+000002VOVAR 
0115830960999991995020912004-10917-037050FM-12+000699999V0209999999999220001CN0200001N1+02921+02281101531ADDAA106000091AG10000GF104991041051012501001001KA1240N+02331MA1999999101461MD1999999-0061REMSYN017 333 20233 59006;
0096830960999991995020918004-10917-037050FM-12+000699999V0209999999999220001CN0200001N1+02871+02311101371ADDAA106000091AG10000GF101991011051012501001001MA1999999101301MD1999999-0021REMSYN011 333 59002;
0115830960999991995021012004-10917-037050FM-12+000699999V0209999999999220001CN0200001N1+02941+02401101611ADDAA106000091AG10000GF104991041051012501001001KA1240N+02431MA1999999101541MD1999999+0081REMSYN017 333 20243 58008;
0096830960999991995021118004-10917-037050FM-12+000699999V0209999999999220001CN0200001N1+02951+02341101371ADDAA106000091AG10000GF102991021051012501001001MA1999999101301MD1999999+0021REMSYN011 333 58002;
0115830960999991995021212004-10917-037050FM-12+000699999V0209999999999220001CN0200001N1+02941+02301101401ADDAA106000091AG10000GF103991031051012501001001KA1240N+02331MA1999999101331MD1999999-0061REMSYN017 333 20233 59006;
0115830960999991995021312004-10917-037050FM-12+000699999V0209999999999220001CN0200001N1+02981+02231101381ADDAA106000091AG10000GF102991011051012501001011KA1240N+02381MA1999999101311MD1999999-0021REMSYN017 333 20238 59002;
0096830960999991995021318004-10917-037050FM-12+000699999V0209999999999220001CN0200001N1+02921+02281101191ADDAA106000091AG10000GF102991021021012501001001MA1999999101121MD1999999-0151REMSYN011 333 59015;
0115830960999991995021412004-10917-037050FM-12+000699999V0209999999999012001CN0200001N1+02931+02341101441ADDAA106000091AG10000GF106991061051012501001001KA1240N+02371MA1999999101371MD1999999+0061REMSYN017 333 20237 58006;
0096830960999991995021418004-10917-037050FM-12+000699999V0209999999999220001CN0200001N1+02951+02311101171ADDAA106000091AG10000GF102991021051012501001001MA1999999101101MD1999999-0021REMSYN011 333 59002;
0115830960999991995021512004-10917-037050FM-12+000699999V0209999999999220001CN0200001N1+03001+02241101221ADDAA106000091AG10000GF101991011051012501001001KA1240N+02331MA1999999101151MD1999999-0221REMSYN017 333 20233 59022;
0134830960999991995021600004-10917-037050FM-12+000699999V0209999999999220001CN9999999N9+02681+02111101011ADDAA106000091AG10000GF101991011011012501001001KA1240M+03041MA1999999100941MD1999999-0071REMSYN017 333 10304 59007;EQDQ01+000002VOVAR 
0115830960999991995021612004-10917-037050FM-12+000699999V0209999999999220001CN0200001N1+02921+02341101191ADDAA106000091AG10000GF101991011051012501001001KA1240N+02371MA1999999101121MD1999999-0031REMSYN017 333 20237 59003;
0096830960999991995021618004-10917-037050FM-12+000699999V0209999999999220001CN0200001N1+02901+02301101081ADDAA106000091AG10000GF101991011051012501001001MA1999999101011MD1999999-0011REMSYN011 333 59001;
0115830960999991995021700004-10917-037050FM-12+000699999V0209999999999045001CN0200001N1+02941+02311101221ADDAA106000091AG10000GF106991031051012501031001KA1240N+02341MA1999999101151MD1999999+0031REMSYN017 333 20234 58003;
0115830960999991995021712004-10917-037050FM-12+000699999V0209999999999045001CN0200001N1+02941+02311101221ADDAA106000091AG10000GF106991031051012501031001KA1240N+02341MA1999999101151MD1999999+0031REMSYN017 333 20234 58003;
0096830960999991995021718004-10917-037050FM-12+000699999V0209999999999220001CN0200001N1+02881+02301101111ADDAA106000091AG10000GF104991041051012501001001MA1999999101401MD1999999+0031REMSYN011 333 58003;
0134830960999991995021812004-10917-037050FM-12+000699999V02099999999999999999N0200001N1+02951+02341101251ADDAA106000091AG10000GF108991999051012501001001KA1240N+02361MA1999999101181MD1999999+0051REMSYN017 333 20236 58005;EQDQ01+000012SCOTLC
0096830960999991995021818004-10917-037050FM-12+000699999V0209999999999220001CN0200001N1+02911+02271101181ADDAA106000091AG10000GF102991021051012501001001MA1999999101111MD1999999+0071REMSYN011 333 58007;
0134830960999991995021900004-10917-037050FM-12+000699999V0209999999999220001CN9999999N9+02641+02141101091ADDAA106000091AG10000GF101991011011012501001001KA1240M+03011MA1999999101021MD1999999-0071REMSYN017 333 10301 59007;EQDQ01+000002VOVAR 
0115830960999991995021912004-10917-037050FM-12+000699999V0209999999999045001CN0200001N1+02921+02341101281ADDAA106000091AG10000GF106991041051012501031001KA1240N+02331MA1999999101211MD1999999+0031REMSYN017 333 20233 58003;
0096830960999991995021918004-10917-037050FM-12+000699999V0209999999999220001CN0200001N1+02941+02341101071ADDAA106000091AG10000GF101991011011012501001001MA1999999101001MD1999999-0111REMSYN011 333 59011;
0115830960999991995022012004-10917-037050FM-12+000699999V0209999999999220001CN0200001N1+02941+02311101141ADDAA106000091AG10000GF104991021051012501031001KA1240N+02301MA1999999101071MD1999999-0041REMSYN017 333 20230 59004;
0096830960999991995022018004-10917-037050FM-12+000699999V0209999999999220001CN0200001N1+02901+02251101051ADDAA106000091AG10000GF102991021051012501001001MA1999999100981MD1999999-0021REMSYN011 333 59002;
0115830960999991995022112004-10917-037050FM-12+000699999V0209999999999220001CN0200001N1+03001+02291101311ADDAA106000091AG10000GF102991021051012501001001KA1240N+02431MA1999999101241MD1999999+0171REMSYN017 333 20243 58017;
0096830960999991995022118004-10917-037050FM-12+000699999V0209999999999220001CN0200001N1+02971+02311101101ADDAA106000091AG10000GF101991011051012501001001MA1999999101031MD1999999+0051REMSYN011 333 58005;
0115830960999991995022212004-10917-037050FM-12+000699999V0209999999999012001CN0200001N1+02881+02321101301ADDAA106000091AG10000GF106991051051012501031001KA1240N+02361MA1999999101231MD1999999-0011REMSYN017 333 20236 59001;
0096830960999991995022218004-10917-037050FM-12+000699999V0209999999999220001CN0200001N1+02931+02321101151ADDAA106000091AG10000GF104991041051012501001001MA1999999101081MD1999999+0051REMSYN011 333 58005;
0134830960999991995022300004-10917-037050FM-12+000699999V0209999999999220001CN9999999N9+02641+02231101041ADDAA106000091AG10000GF101991011011012501001001KA1240M+02951MA1999999100971MD1999999+0071REMSYN017 333 10295 58007;EQDQ01+000002VOVAR 
0143830960999991995022312004-10917-037050FM-12+000699999V0209999999999007501CN0100001N1+02641+02421101271ADDAA124006091AG10006AY161061AY261061GF108991081051008001999999KA1240N+02391MA1999999101201MD1999999-0031MW1601REMSYN023 333 20239 59003 60064;
0096830960999991995022318004-10917-037050FM-12+000699999V0209999999999220001CN0200001N1+02861+02341101181ADDAA106000091AG10000GF101991011051012501001001MA1999999101111MD1999999+0031REMSYN011 333 58003;
0115830960999991995022412004-10917-037050FM-12+000699999V0209999999999045001CN0200001N1+02961+02311101361ADDAA106000091AG10000GF106991021051012501031001KA1240N+02431MA1999999101291MD1999999+0091REMSYN017 333 20243 58009;
0096830960999991995022418004-10917-037050FM-12+000699999V0209999999999220001CN0200001N1+02921+02321101151ADDAA106000091AG10000GF102991021051012501001001MA1999999101081MD1999999-0031REMSYN011 333 59003;
0134830960999991995022500004-10917-037050FM-12+000699999V0209999999999220001CN9999999N9+02641+02231101071ADDAA106000091AG10000GF101991011051012501001001KA1240M+03011MA1999999101001MD1999999-0051REMSYN017 333 10301 59005;EQDQ01+000002VOVAR 
0121830960999991995022512004-10917-037050FM-12+000699999V0209999999999220001CN0200001N1+02991+02351101371ADDAA124000591AG10000GF102991021051012501001001KA1240N+02371MA1999999101301MD1999999+0011REMSYN023 333 20237 58001 69944;
0115830960999991995022612004-10917-037050FM-12+000699999V0209999999999220001CN0200001N1+99999+99999101341ADDAA106000091AG10000GF104991041021008001001001KA1240N+02401MA1999999101111MD1999999-0081REMSYN017 333 20240 59008;
0134830960999991995022700004-10917-037050FM-12+000699999V0209999999999220001CN9999999N9+02641+02291101011ADDAA106000091AG10000GF104991041051012501001001KA1240M+03021MA1999999100941MD1999999-0121REMSYN017 333 10302 59012;EQDQ01+000002VOVAR 
0121830960999991995022712004-10917-037050FM-12+000699999V0209999999999045001CN0200001N1+02841+02331101421ADDAA124046091AG10000GF106991021051012501031001KA1240N+02231MA1999999101351MD1999999-0051REMSYN023 333 20223 59005 60464;
0096830960999991995022718004-10917-037050FM-12+000699999V0209999999999220001CN0200001N1+02861+02341101091ADDAA106000091AG10000GF102991021051012501001001MA1999999101021MD1999999-0071REMSYN011 333 59007;
0134830960999991995022800004-10917-037050FM-12+000699999V0209999999999012001CN9999999N9+02611+02311101061ADDAA106000091AG10000GF106991061051012501001001KA1240M+02941MA1999999100991MD1999999+0051REMSYN017 333 10294 58005;EQDQ01+000002VOVAR 
0121830960999991995022812004-10917-037050FM-12+000699999V0209999999999045001CN0200001N1+02941+02291101361ADDAA124000391AG10000GF105991031051012501031001KA1240N+02401MA1999999101291MD1999999+0061REMSYN023 333 20240 58006 69934;
0134830960999991995030100004-10917-037050FM-12+000699999V0209999999999220001CN9999999N9+02631+02141101081ADDAA106000091AG10000GF104991041051012501001001KA1240M+03031MA1999999101011MD1999999+0021REMSYN017 333 10303 58002;EQDQ01+000002VOVAR 
0121830960999991995030112004-10917-037050FM-12+000699999V02099999999990120019N0200001N1+02941+02211101351ADDAA124003091AG10006GF106991061051012501001001KA1240N+02331MA1999999101281MD1999999-0011REMSYN023 333 20233 59001 60034;
0115830960999991995030118004-10917-037050FM-12+000699999V0209999999999220001CN0200001N1+02971+02311101091ADDAA106000091AG10000GF101991011051012501001001MA1999999101021MD1999999-0041REMSYN011 333 59004;EQDQ01+999990APOSP 
0134830960999991995030200004-10917-037050FM-12+000699999V0209999999999220001CN9999999N9+02591+02081101011ADDAA106000091AG10000GF101991011011012501001001KA1240M+03011MA1999999100941MD1999999-0071REMSYN017 333 10301 59007;EQDQ01+000002VOVAR 
0115830960999991995030212004-10917-037050FM-12+000699999V0209999999999220001CN0200001N1+02921+02221101411ADDAA106000091AG10000GF102991021051012501001001KA1240N+02381MA1999999101341MD1999999+0061REMSYN017 333 20238 58006;
0096830960999991995030218004-10917-037050FM-12+000699999V0209999999999220001CN0200001N1+02891+02281101161ADDAA106000091AG10000GF101991011011012501001001MA1999999101091MD1999999-0071REMSYN011 333 59007;
0134830960999991995030300004-10917-037050FM-12+000699999V0209999999999220001CN9999999N9+02621+02161100981ADDAA106000091AG10000GF102991021011012501001001KA1240M+03061MA1999999100911MD1999999-0031REMSYN017 333 10306 59003;EQDQ01+000002VOVAR 
0115830960999991995030312004-10917-037050FM-12+000699999V0209999999999045001CN0200001N1+02911+02261101411ADDAA106000091AG10000GF106991041051012501031001KA1240N+02311MA1999999101341MD1999999+0001REMSYN017 333 20231 58000;
0096830960999991995030318004-10917-037050FM-12+000699999V0209999999999220001CN0200001N1+02931+02221101191ADDAA106000091AG10000GF102991021051012501001001MA1999999101121MD1999999+0031REMSYN011 333 58003;
0134830960999991995030400004-10917-037050FM-12+000699999V0209999999999220001CN9999999N9+02641+02091101101ADDAA106000091AG10000GF101991011011012501001001KA1240M+03031MA1999999101031MD1999999+0121REMSYN017 333 10303 58012;EQDQ01+000002VOVAR 
0115830960999991995030412004-10917-037050FM-12+000699999V0209999999999220001CN0200001N1+02931+02151101471ADDAA106000091AG10000GF102991021051012501001001KA1240N+02291MA1999999101401MD1999999+0061REMSYN017 333 20229 58006;
0096830960999991995030418004-10917-037050FM-12+000699999V0209999999999220001CN0200001N1+02901+02261101291ADDAA106000091AG10000GF101991011051012501001001MA1999999101221MD1999999+0101REMSYN011 333 58010;
0134830960999991995030500004-10917-037050FM-12+000699999V0209999999999220001CN9999999N9+02611+02051101061ADDAA106000091AG10000GF101991011011012501001001KA1240M+03021MA1999999100991MD1999999+0041REMSYN017 333 10302 58004;EQDQ01+000002VOVAR 
0115830960999991995030512004-10917-037050FM-12+000699999V0209999999999220001CN0200001N1+02901+02271101441ADDAA106000091AG10000GF101991011051012501001001KA1240N+02371MA1999999101371MD1999999+0031REMSYN017 333 20237 58003;
0096830960999991995030518004-10917-037050FM-12+000699999V0209999999999220001CN0200001N1+02961+02321101211ADDAA106000091AG10000GF101991011051012501001001MA1999999101141MD1999999-0081REMSYN011 333 59008;
0121830960999991995030612004-10917-037050FM-12+000699999V0209999999999220001CN0200001N1+02881+02351101251ADDAA124001091AG10000GF102991021051012501001001KA1240N+02321MA1999999101181MD1999999-0191REMSYN023 333 20232 59019 60014;
0115830960999991995030618004-10917-037050FM-12+000699999V0209999999999220001CN0200001N1+02911+02301101131ADDAA106000091AG10000GF104991021021012501031001MA1999999081062MD1999999-0081REMSYN011 333 59008;EQDQ01+081063APOSP 
0115830960999991995030712004-10917-037050FM-12+000699999V0209999999999012001CN0200001N1+02881+02371101271ADDAA106000091AG10000GF105991051051012501001001KA1240N+02351MA1999999101201MD1999999+0021REMSYN017 333 20235 58002;
0096830960999991995030718004-10917-037050FM-12+000699999V0209999999999220001CN0200001N1+02961+02331101061ADDAA106000091AG10000GF101991011051012501001001MA1999999100991MD1999999-0071REMSYN011 333 59007;
0134830960999991995030800004-10917-037050FM-12+000699999V0209999999999220001CN9999999N9+02681+02181100981ADDAA106000091AG10000GF101991011011012501001001KA1240M+03041MA1999999100911MD1999999-0101REMSYN017 333 10304 59010;EQDQ01+000002VOVAR 
0115830960999991995030812004-10917-037050FM-12+000699999V0209999999999220001CN0200001N1+02971+02261101251ADDAA106000091AG10000GF102991021051012501001001KA1240N+02371MA1999999101181MD1999999-0021REMSYN017 333 20237 59002;
0096830960999991995030818004-10917-037050FM-12+000699999V0209999999999220001CN0200001N1+02931+02281101171ADDAA106000091AG10000GF101991011051012501001001MA1999999101101MD1999999+0111REMSYN011 333 58011;
0134830960999991995030900004-10917-037050FM-12+000699999V0209999999999220001CN9999999N9+02681+02131101011ADDAA106000091AG10000GF104991041051012501001001KA1240M+03031MA1999999100941MD1999999+0031REMSYN017 333 10303 58003;EQDQ01+000002VOVAR 
0143830960999991995030912004-10917-037050FM-12+000699999V0209999999999007501CN0100001N1+02561+02211101411ADDAA124011091AG10006AY161061AY261061GF108991081071008001999999KA1240N+02311MA1999999101341MD1999999+0161MW1601REMSYN023 333 20231 58016 60114;
0096830960999991995030918004-10917-037050FM-12+000699999V0209999999999220001CN0200001N1+02801+02251101231ADDAA106000091AG10000GF104991041051012501001001MA1999999101161MD1999999+0061REMSYN011 333 58006;
0115830960999991995031012004-10917-037050FM-12+000699999V0209999999999220001CN0200001N1+02881+02351101471ADDAA106000091AG10000GF102991021051012501001001KA1240N+02401MA1999999101401MD1999999+0061REMSYN017 333 20240 58006;
0134830960999991995031100004-10917-037050FM-12+000699999V0209999999999012001CN9999999N9+02611+02191101151ADDAA106000091AG10000GF105991051051012501001001KA1240M+03001MA1999999101081MD1999999+0041REMSYN017 333 10300 58004;EQDQ01+000002VOVAR 
0115830960999991995031112004-10917-037050FM-12+000699999V0209999999999012001CN0200001N1+02901+02341101451ADDAA106000091AG10000GF106991061051012501001001KA1240N+02361MA1999999101381MD1999999-0021REMSYN017 333 20236 59002;
0096830960999991995031118004-10917-037050FM-12+000699999V0209999999999220001CN0200001N1+02891+02281101211ADDAA106000091AG10000GF102991021051012501001001MA1999999101141MD1999999-0051REMSYN011 333 59005;
0121830960999991995031212004-10917-037050FM-12+000699999V02099999999990120019N0200001N1+02551+02051101281ADDAA124019091AG10006GF107991061051012501031001KA1240N+02201MA1999999101211MD1999999-0171REMSYN023 333 20220 59017 60194;
0096830960999991995031218004-10917-037050FM-12+000699999V0209999999999220001CN0200001N1+02711+02151101181ADDAA106000091AG10000GF104991041051012501001001MA1999999101111MD1999999-0031REMSYN011 333 59003;
0115830960999991995031312004-10917-037050FM-12+000699999V0209999999999045001CN0200001N1+02821+02361101171ADDAA106000091AG10000GF105991021051012501031001KA1240N+02291MA1999999101101MD1999999-0111REMSYN017 333 20229 59011;
0096830960999991995031318004-10917-037050FM-12+000699999V0209999999999220001CN0200001N1+02901+02281101091ADDAA106000091AG10000GF101991011011012501001001MA1999999101021MD1999999-0091REMSYN011 333 59009;
0134830960999991995031400004-10917-037050FM-12+000699999V0209999999999220001CN9999999N9+02621+02211101071ADDAA106000091AG10000GF104991041051012501001001KA1240M+02941MA1999999101001MD1999999+0021REMSYN017 333 10294 58002;EQDQ01+000002VOVAR 
0121830960999991995031412004-10917-037050FM-12+000699999V0209999999999045001CN0200001N1+02911+02301101001ADDAA124005091AG10006GF105991031051012501031001KA1240N+02291MA1999999100931MD1999999-0171REMSYN023 333 20229 59017 60054;
0096830960999991995031418004-10917-037050FM-12+000699999V0209999999999220001CN0200001N1+02891+02341100961ADDAA106000091AG10000GF103991031051012501001001MA1999999100891MD1999999-0131REMSYN011 333 59013;
0134830960999991995031500004-10917-037050FM-12+000699999V0209999999999012001CN9999999N9+02601+02171100991ADDAA106000091AG10000GF106991061051012501001001KA1240M+02991MA1999999100921MD1999999-0081REMSYN017 333 10299 59008;EQDQ01+000002VOVAR 
0115830960999991995031512004-10917-037050FM-12+000699999V0209999999999045001CN0200001N1+02901+02341101091ADDAA106000091AG10000GF107991041051012501031001KA1240N+02311MA1999999101021MD1999999+0091REMSYN017 333 20231 58009;
0134830960999991995031600004-10917-037050FM-12+000699999V0209999999999220001CN9999999N9+02651+02181100981ADDAA106000091AG10000GF104991041051012501001001KA1240M+02961MA1999999100911MD1999999-0011REMSYN017 333 10296 59001;EQDQ01+000002VOVAR 
0115830960999991995031612004-10917-037050FM-12+000699999V0209999999999012001CN0200001N1+02911+02371101381ADDAA106000091AG10000GF106991061051012501001001KA1240N+02321MA1999999101311MD1999999+0291REMSYN017 333 20232 58029;
0096830960999991995031618004-10917-037050FM-12+000699999V0209999999999220001CN0200001N1+02981+02361101131ADDAA106000091AG10000GF104991041051012501001001MA1999999101061MD1999999+0111REMSYN011 333 58011;
0115830960999991995031712004-10917-037050FM-12+000699999V0209999999999012001CN0200001N1+02961+02351101331ADDAA106000091AG10000GF105991051051012501001001KA1240N+02351MA1999999101261MD1999999-0051REMSYN017 333 20235 59005;
0115830960999991995031812004-10917-037050FM-12+000699999V0209999999999220001CN0200001N1+03011+02421101331ADDAA106000091AG10000GF104991041051012501001001KA1240N+02331MA1999999101261MD1999999+0001REMSYN017 333 20233 58000;
0121830960999991995031912004-10917-037050FM-12+000699999V0209999999999220001CN0200001N1+03001+02441101401ADDAA124000191AG10000GF103991031051012501001001KA1240N+02351MA1999999101331MD1999999+0071REMSYN023 333 20235 58007 69924;
0096830960999991995031918004-10917-037050FM-12+000699999V0209999999999220001CN0200001N1+02951+02301101381ADDAA106000091AG10000GF101991011011012501001001MA1999999101311MD1999999-0041REMSYN011 333 59004;
0134830960999991995032000004-10917-037050FM-12+000699999V0209999999999220001CN9999999N9+02691+02241101081ADDAA106000091AG10000GF102991021021012501001001KA1240M+03171MA1999999101011MD1999999-0081REMSYN017 333 10317 59008;EQDQ01+000002VOVAR 
0115830960999991995032012004-10917-037050FM-12+000699999V0209999999999012001CN0200001N1+02961+02381101371ADDAA106000091AG10000GF106991061051012501001001KA1240N+02301MA1999999101301MD1999999-0031REMSYN017 333 20230 59003;
0096830960999991995032018004-10917-037050FM-12+000699999V0209999999999220001CN0200001N1+03001+02361101251ADDAA106000091AG10000GF102991021051012501001001MA1999999101181MD1999999-0131REMSYN011 333 59013;
0134830960999991995032100004-10917-037050FM-12+000699999V0209999999999220001CN9999999N9+02701+02201101171ADDAA106000091AG10000GF101991011011012501001001KA1240M+03161MA1999999101101MD1999999+0091REMSYN017 333 10316 58009;EQDQ01+000002VOVAR 
0115830960999991995032112004-10917-037050FM-12+000699999V0209999999999220001CN0200001N1+02941+02331101561ADDAA106000091AG10000GF102991021051012501001001KA1240N+02361MA1999999101491MD1999999+0191REMSYN017 333 20236 58019;
0096830960999991995032118004-10917-037050FM-12+000699999V0209999999999220001CN0200001N1+02911+02361101191ADDAA106000091AG10000GF104991041021012501001001MA1999999101121MD1999999-0061REMSYN011 333 59006;
0134830960999991995032200004-10917-037050FM-12+000699999V0209999999999220001CN9999999N9+02671+02181101081ADDAA106000091AG10000GF101991011011012501001001KA1240M+03191MA1999999101011MD1999999-0091REMSYN017 333 10319 59009;EQDQ01+000002VOVAR 
0115830960999991995032212004-10917-037050FM-12+000699999V0209999999999220001CN0200001N1+02981+02441101191ADDAA106000091AG10000GF102991021051012501001001KA1240N+02381MA1999999101121MD1999999-0371REMSYN017 333 20238 59037;
0096830960999991995032218004-10917-037050FM-12+000699999V0209999999999220001CN0200001N1+02891+02371101101ADDAA106000091AG10000GF101991011051012501001001MA1999999101031MD1999999-0091REMSYN011 333 59009;
0134830960999991995032300004-10917-037050FM-12+000699999V0209999999999220001CN9999999N9+02631+02161101011ADDAA106000091AG10000GF101991011011012501001001KA1240M+03141MA1999999100941MD1999999-0071REMSYN017 333 10314 59007;EQDQ01+000002VOVAR 
0115830960999991995032312004-10917-037050FM-12+000699999V0209999999999220001CN0200001N1+03001+02391101071ADDAA106000091AG10000GF101991011051012501001001KA1240N+02341MA1999999101001MD1999999-0121REMSYN017 333 20234 59012;
0096830960999991995032318004-10917-037050FM-12+000699999V0209999999999220001CN0200001N1+02941+02301101071ADDAA106000091AG10000GF101991011021012501001001MA1999999100971MD1999999-0061REMSYN011 333 59006;
0134830960999991995032400004-10917-037050FM-12+000699999V0209999999999220001CN9999999N9+02691+02131100971ADDAA106000091AG10000GF101991011011012501001001KA1240M+03181MA1999999100901MD1999999-0041REMSYN017 333 10318 59004;EQDQ01+000002VOVAR 
0115830960999991995032412004-10917-037050FM-12+000699999V0209999999999220001CN0200001N1+02971+02331101011ADDAA106000091AG10000GF102991021051012501001001KA1240N+02361MA1999999100941MD1999999-0061REMSYN017 333 20236 59006;
0096830960999991995032418004-10917-037050FM-12+000699999V0209999999999012001CN0200001N1+02991+02371100981ADDAA106000091AG10000GF106991061051012501001001MA1999999100911MD1999999-0041REMSYN011 333 59004;
0134830960999991995032500004-10917-037050FM-12+000699999V0209999999999220001CN9999999N9+02681+02181100981ADDAA106000091AG10000GF101991011011012501001001KA1240M+03151MA1999999100911MD1999999-0011REMSYN017 333 10315 59001;EQDQ01+000002VOVAR 
0115830960999991995032512004-10917-037050FM-12+000699999V0209999999999220001CN0200001N1+03061+02431101071ADDAA106000091AG10000GF106991031051012501001011KA1240N+02381MA1999999101001MD1999999+0061REMSYN017 333 20238 58006;
0115830960999991995032612004-10917-037050FM-12+000699999V0209999999999045001CN0200001N1+03031+02411101071ADDAA106000091AG10000GF107991041051012501031001KA1240N+02311MA1999999101001MD1999999+0001REMSYN017 333 20231 58000;
0096830960999991995032618004-10917-037050FM-12+000699999V0209999999999220001CN0200001N1+02911+02261100951ADDAA106000091AG10000GF104991041051012501001001MA1999999100881MD1999999-0021REMSYN011 333 59002;
0115830960999991995032712004-10917-037050FM-12+000699999V0209999999999220001CN0200001N1+02931+02341101161ADDAA106000091AG10000GF103991031051012501001001KA1240N+02321MA1999999101091MD1999999+0091REMSYN017 333 20232 58009;
0096830960999991995032718004-10917-037050FM-12+000699999V0209999999999220001CN0200001N1+02901+02301101031ADDAA106000091AG10000GF102991021021012501001001MA1999999100961MD1999999+0081REMSYN011 333 58008;
0115830960999991995032812004-10917-037050FM-12+000699999V0209999999999220001CN0200001N1+03201+02391101101ADDAA106000091AG10000GF101991011051012501001001KA1240N+02411MA1999999101031MD1999999-0061REMSYN017 333 20241 59006;
0096830960999991995032818004-10917-037050FM-12+000699999V0209999999999220001CN0200001N1+03041+02401101061ADDAA106000091AG10000GF101991011051012501001001MA1999999100991MD1999999+0031REMSYN011 333 58003;
0096830960999991995032918004-10917-037050FM-12+000699999V0209999999999220001CN0200001N1+03011+02461101081ADDAA106000091AG10000GF101991011051012501001001MA1999999101011MD1999999+0021REMSYN011 333 58002;
0134830960999991995033000004-10917-037050FM-12+000699999V0209999999999220001CN9999999N9+02661+02221101111ADDAA106000091AG10000GF104991041021012501001001KA1240M+03171MA1999999101041MD1999999+0041REMSYN017 333 10317 58004;EQDQ01+000002VOVAR 
0115830960999991995033012004-10917-037050FM-12+000699999V0209999999999220001CN0200001N1+03001+02421101191ADDAA106000091AG10000GF102991021051012501001001KA1240N+02381MA1999999101121MD1999999+0041REMSYN017 333 20238 58004;
0096830960999991995033018004-10917-037050FM-12+000699999V0209999999999220001CN0200001N1+02961+02301101091ADDAA106000091AG10000GF101991011011012501001001MA1999999101021MD1999999+0011REMSYN011 333 58001;
0115830960999991995033112004-10917-037050FM-12+000699999V0209999999999220001CN0200001N1+03021+99999101151ADDAA106000091AG10000GF101991011051012501001001KA1240N+02391MA1999999101081MD1999999+0041REMSYN017 333 20239 58004;
0096830960999991995033118004-10917-037050FM-12+000699999V0209999999999220001CN0200001N1+02981+02381101071ADDAA106000091AG10000GF101991011051012501001001MA1999999101001MD1999999-0021REMSYN011 333 59002;
0134830960999991995040100004-10917-037050FM-12+000699999V0209999999999220001CN9999999N9+02681+02161101031ADDAA106000091AG10000GF102991021021012501001001KA1240M+03141MA1999999100961MD1999999-0021REMSYN017 333 10314 59002;EQDQ01+000002VOVAR 
0096830960999991995040118004-10917-037050FM-12+000699999V0209999999999220001CN0200001N1+03011+02381101091ADDAA106000091AG10000GF101991011051012501001001MA1999999101021MD1999999-0021REMSYN011 333 59002;
0134830960999991995040200004-10917-037050FM-12+000699999V0209999999999220001CN9999999N9+02701+02151101041ADDAA106000091AG10000GF102991021021012501001001KA1240M+03181MA1999999100971MD1999999+0011REMSYN017 333 10318 58001;EQDQ01+000002VOVAR 
0115830960999991995040212004-10917-037050FM-12+000699999V0209999999999220001CN0200001N1+02941+02331101261ADDAA106000091AG10000GF101991011051012501001001KA1240N+02321MA1999999101191MD1999999+0091REMSYN017 333 20232 58009;
0096830960999991995040218004-10917-037050FM-12+000699999V0209999999999220001CN0200001N1+02901+02271101111ADDAA106000091AG10000GF102991021011012501001001MA1999999101041MD1999999+0021REMSYN011 333 58002;
0115830960999991995040312004-10917-037050FM-12+000699999V0209999999999012001CN0200001N1+02881+02351101091ADDAA106000091AG10000GF105991051051012501001001KA1240N+02341MA1999999101021MD1999999-0171REMSYN017 333 20234 59017;
0096830960999991995040318004-10917-037050FM-12+000699999V0209999999999220001CN0200001N1+02941+02331101021ADDAA106000091AG10000GF102991021051012501001001MA1999999100991MD1999999-0051REMSYN011 333 59005;
0115830960999991995040412004-10917-037050FM-12+000699999V0209999999999012001CN0200001N1+02861+02351101101ADDAA106000091AG10000GF106991061051012501001001KA1240N+02301MA1999999101031MD1999999+0011REMSYN017 333 20230 58001;
0096830960999991995040418004-10917-037050FM-12+000699999V0209999999999220001CN0200001N1+02821+02271101161ADDAA106000091AG10000GF104991041051012501001001MA1999999101081MD1999999+0091REMSYN011 333 58009;
0134830960999991995040500004-10917-037050FM-12+000699999V0209999999999012001CN9999999N9+02651+02201101081ADDAA106000091AG10000GF106991061051012501001001KA1240M+03081MA1999999101011MD1999999+0061REMSYN017 333 10308 58006;EQDQ01+000002VOVAR 
0115830960999991995040512004-10917-037050FM-12+000699999V0209999999999012001CN0200001N1+02891+02131101191ADDAA106000091AG10000GF107991051051012501031001KA1240N+02331MA1999999101121MD1999999+0091REMSYN017 333 20233 58009;
0096830960999991995040518004-10917-037050FM-12+000699999V0209999999999012001CN0200001N1+02851+02071101161ADDAA106000091AG10000GF106991061051012501001001MA1999999101091MD1999999+0011REMSYN011 333 58001;
0162830960999991995040600004-10917-037050FM-12+000699999V0209999999999007501CN9999999N9+02501+02411101111ADDAA106008091AG10005AY161061AY261061GF108991081071008001999999KA1240M+03041MA1999999101041MD1999999+0031MW1601REMSYN023 333 10304 58003 60081;EQDQ01+000002VOVAR 
0162830960999991995040612004-10917-037050FM-12+000699999V02099999999990075019N9999999N9+02501+02411101111ADDAA106008091AG10005AY161061AY261061GF108991081071008001999999KA1240M+03041MA1999999101041MD1999999+0031MW1601REMSYN023 333 10304 58003 60081;EQDQ01+000002VOVAR 
0096830960999991995040618004-10917-037050FM-12+000699999V0209999999999045001CN0200001N1+02881+02351101111ADDAA106000091AG10000GF106991031051012501031001MA1999999101041MD1999999-0051REMSYN011 333 59005;
0115830960999991995040712004-10917-037050FM-12+000699999V0209999999999012001CN0200001N1+02841+02311101291ADDAA106000091AG10000GF106991051051012501031001KA1240N+02291MA1999999101221MD1999999+0041REMSYN017 333 20229 58004;
0134830960999991995040800004-10917-037050FM-12+000699999V0209999999999012001CN9999999N9+02541+02231101211ADDAA106000091AG10000GF107991071021012501001001KA1240M+02991MA1999999101141MD1999999+0051REMSYN017 333 10299 58005;EQDQ01+000002VOVAR 
0143830960999991995040812004-10917-037050FM-12+000699999V0209999999999007501CN0100001N1+02581+02461101231ADDAA124004091AG10005AY161061AY261061GF108991081071008001999999KA1240N+02291MA1999999101161MD1999999-0061MW1601REMSYN023 333 20229 59006 60044;
0096830960999991995040818004-10917-037050FM-12+000699999V0209999999999220001CN0200001N1+02791+02251101151ADDAA106000091AG10000GF104991041051012501001001MA1999999101081MD1999999-0031REMSYN011 333 59003;
0134830960999991995040900004-10917-037050FM-12+000699999V0209999999999012001CN9999999N9+02501+02211101121ADDAA106000091AG10000GF107991071051012501001001KA1240M+02971MA1999999101051MD1999999-0091REMSYN017 333 10297 59009;EQDQ01+000002VOVAR 
0143830960999991995040912004-10917-037050FM-12+000699999V0209999999999007501CN0100001N1+02601+02571101101ADDAA124009091AG10005AY161061AY261061GF108991081071008001999999KA1240N+02331MA1999999101031MD1999999-0131MW1601REMSYN023 333 20233 59013 60094;
0124830960999991995040918004-10917-037050FM-12+000699999V0209999999999007501CN0100001N1+02591+02121101081ADDAA106000191AG10005AY161061AY261061GF108991081071008001999999MA1999999101011MD1999999-0071MW1601REMSYN017 333 59007 69921;
0162830960999991995041000004-10917-037050FM-12+000699999V0209999999999007501CN9999999N9+02481+02391101071ADDAA106025091AG10005AY161061AY261061GF108991081071008001999999KA1240M+02891MA1999999101001MD1999999-0051MW1601REMSYN023 333 10289 59005 60251;EQDQ01+000002VOVAR 
0121830960999991995041012004-10917-037050FM-12+000699999V0209999999999012001CN0200001N1+02621+02211101041ADDAA124027091AG10005GF107991071051012501001001KA1240N+02291MA1999999100971MD1999999-0061REMSYN023 333 20229 59006 60274;
0096830960999991995041018004-10917-037050FM-12+000699999V0209999999999220001CN0200001N1+02791+02241101011ADDAA106000091AG10000GF102991021051012501001001MA1999999100941MD1999999-0071REMSYN011 333 59007;
0134830960999991995041100004-10917-037050FM-12+000699999V0209999999999012001CN9999999N9+02561+02251101101ADDAA106000091AG10000GF108991081051012501999999KA1240M+02951MA1999999101031MD1999999+0031REMSYN017 333 10295 58003;EQDQ01+000002VOVAR 
0121830960999991995041112004-10917-037050FM-12+000699999V0209999999999007501CN0100001N1+02801+02341101201ADDAA124000191AG10000GF108991081071008001001001KA1240N+02281MA1999999101131MD1999999+0161REMSYN023 333 20228 58016 69924;
0096830960999991995041118004-10917-037050FM-12+000699999V0209999999999007501CN0100001N1+02831+02291101061ADDAA106000091AG10000GF108991081051008001999999MA1999999100991MD1999999+0051REMSYN011 333 58005;
0096830960999991995041218004-10917-037050FM-12+000699999V0209999999999045001CN0200001N1+02781+02271100891ADDAA106000091AG10000GF106991041051012501031001MA1999999100821MD1999999-0171REMSYN011 333 59017;
0134830960999991995041300004-10917-037050FM-12+000699999V0209999999999012001CN9999999N9+02611+02351101041ADDAA106000091AG10000GF108991081051012501999999KA1240M+03021MA1999999100971MD1999999-0091REMSYN017 333 10302 59009;EQDQ01+000002VOVAR 
0121830960999991995041312004-10917-037050FM-12+000699999V0209999999999012001CN0200001N1+02771+02341101091ADDAA124002091AG10000GF106991061051012501001001KA1240N+02301MA1999999101021MD1999999-0101REMSYN023 333 20230 59010 60024;
0162830960999991995041400004-10917-037050FM-12+000699999V0209999999999012001CN9999999N9+02621+02531101061ADDAA106001091AG10005AY161061AY261061GF108991081051012501999999KA1240M+03001MA1999999100991MD1999999+0021MW1601REMSYN023 333 10300 58002 60011;EQDQ01+000002VOVAR 
0121830960999991995041412004-10917-037050FM-12+000699999V0209999999999045001CN0200001N1+02921+02471101221ADDAA124002091AG10000GF106991021051012501031001KA1240N+02321MA1999999101151MD1999999+0131REMSYN023 333 20232 58013 60024;
0096830960999991995041418004-10917-037050FM-12+000699999V0209999999999220001CN0200001N1+02891+02371101111ADDAA106000091AG10000GF104991041051012501001001MA1999999101041MD1999999+0081REMSYN011 333 58008;
0162830960999991995041500004-10917-037050FM-12+000699999V0209999999999007501CN9999999N9+02571+02311101151ADDAA106016091AG10005AY161061AY261061GF108991081071008001999999KA1240M+03061MA1999999101081MD1999999+0091MW1601REMSYN023 333 10306 58009 60161;EQDQ01+000002VOVAR 
0143830960999991995041512004-10917-037050FM-12+000699999V0209999999999007501CN0100001N1+02741+02321101291ADDAA124017091AG10005AY161061AY261061GF108991081051008001999999KA1240N+02291MA1999999101221MD1999999+0071MW1601REMSYN023 333 20229 58007 60174;
0124830960999991995041518004-10917-037050FM-12+000699999V0209999999999007501CN0100001N1+02381+02331101261ADDAA124026091AG10005AY161061AY261061GF108991081071008001999999MA1999999101191MD1999999+0151MW1601REMSYN017 333 58015 60264;
0143830960999991995041612004-10917-037050FM-12+000699999V0209999999999007501CN0100001N1+02641+02551101261ADDAA124034091AG10005AY161061AY261061GF108991081071008001999999KA1240N+02211MA1999999101191MD1999999-0031MW1601REMSYN023 333 20221 59003 60344;
0143830960999991995041712004-10917-037050FM-12+000699999V0209999999999007501CN0100001N1+02691+02281101181ADDAA124017091AG10005AY161061AY261061GF108991081071008001999999KA1240N+01861MA1999999101111MD1999999-0081MW1601REMSYN023 333 20186 59008 60174;
0102830960999991995041718004-10917-037050FM-12+000699999V0209999999999045001CN0200001N1+02841+02291100871ADDAA106002091AG10000GF106991031051012501031001MA1999999100801MD1999999-0121REMSYN017 333 59012 60021;
0162830960999991995041800004-10917-037050FM-12+000699999V0209999999999007501CN9999999N9+02481+02431101011ADDAA106003091AG10005AY161061AY261061GF108991081071008001999999KA1240M+02921MA1999999100941MD1999999-0081MW1601REMSYN023 333 10292 59008 60031;EQDQ01+000002VOVAR 
0124830960999991995041818004-10917-037050FM-12+000699999V0209999999999007501CN0100001N1+02801+02281100931ADDAA106001091AG10005AY161061AY261061GF108991081071008001999999MA1999999100861MD1999999+0061MW1601REMSYN017 333 58006 60011;
0134830960999991995041900004-10917-037050FM-12+000699999V0209999999999007501CN9999999N9+02501+02251100991ADDAA106000091AG10000GF108991081071008001999999KA1240M+02941MA1999999100921MD1999999-0021REMSYN017 333 10294 59002;EQDQ01+000002VOVAR 
0121830960999991995041912004-10917-037050FM-12+000699999V0209999999999012001CN0200001N1+02561+02131101251ADDAA124008091AG10000GF107991071051012501001001KA1240N+02301MA1999999101181MD1999999+0111REMSYN023 333 20230 58011 60084;
0096830960999991995041918004-10917-037050FM-12+000699999V0209999999999220001CN0200001N1+02821+02271101011ADDAA106000091AG10000GF101991011051012501001001MA1999999100941MD1999999+0081REMSYN011 333 58008;
0134830960999991995042004004-10917-037050FM-12+000699999V0209999999999007501CN9999999N9+02551+02291101041ADDAA106000091AG10999GF108991081071008001999999KA1240M+02971MA1999999100971MD1999999+0051REMSYN017 333 10297 58005;EQDQ01+000002VOVAR 
0143830960999991995042012004-10917-037050FM-12+000699999V0209999999999007501CN0100001N1+02711+02611101261ADDAA124002091AG10005AY161061AY261061GF108991081071008001999999KA1240N+02251MA1999999101191MD1999999+0011MW1601REMSYN023 333 20225 58001 60024;
0102830960999991995042018004-10917-037050FM-12+000699999V0209999999999220001CN0200001N1+02871+02461101091ADDAA106001091AG10000GF104991041051012501001001MA1999999101021MD1999999+0081REMSYN017 333 58008 60011;
0096830960999991995042118004-10917-037050FM-12+000699999V0209999999999220001CN0200001N1+02971+02451101131ADDAA106000091AG10000GF102991021051012501001001MA1999999101061MD1999999+0041REMSYN011 333 58004;
0134830960999991995042200004-10917-037050FM-12+000699999V0209999999999012001CN9999999N9+02561+02251101041ADDAA106000091AG10000GF106991061051012501001001KA1240M+03021MA1999999100971MD1999999-0031REMSYN017 333 10302 59003;EQDQ01+000002VOVAR 
0115830960999991995042212004-10917-037050FM-12+000699999V0209999999999220001CN0200001N1+02841+02421101201ADDAA106000091AG10000GF102991021051012501001001KA1240N+02271MA1999999101131MD1999999-0081REMSYN017 333 20227 59008;
0096830960999991995042218004-10917-037050FM-12+000699999V0209999999999220001CN0200001N1+02901+02381101161ADDAA106000091AG10000GF102991021051012501001001MA1999999101091MD1999999+0031REMSYN011 333 58003;
0134830960999991995042300004-10917-037050FM-12+000699999V0209999999999220001CN9999999N9+02591+02271101011ADDAA106000091AG10000GF104991041021012501001001KA1240M+03021MA1999999100941MD1999999-0031REMSYN017 333 10302 59003;EQDQ01+000002VOVAR 
0115830960999991995042312004-10917-037050FM-12+000699999V0209999999999045001CN0200001N1+02811+02341101261ADDAA106000091AG10000GF106991041051012501031001KA1240N+02361MA1999999101191MD1999999+0061REMSYN017 333 20236 58006;
0096830960999991995042318004-10917-037050FM-12+000699999V0209999999999220001CN0200001N1+02931+02391101081ADDAA106000091AG10000GF104991041051012501001001MA1999999101011MD1999999-0081REMSYN011 333 59008;
0115830960999991995042412004-10917-037050FM-12+000699999V0209999999999220001CN0200001N1+02861+02391101351ADDAA106000091AG10000GF102991021051012501001001KA1240N+02321MA1999999101281MD1999999+0091REMSYN017 333 20232 58009;
0096830960999991995042418004-10917-037050FM-12+000699999V0209999999999220001CN0200001N1+02931+02151101191ADDAA106000091AG10000GF101991011051012501001001MA1999999101121MD1999999+0111REMSYN011 333 58011;
0134830960999991995042500004-10917-037050FM-12+000699999V0209999999999220001CN9999999N9+02661+02331101081ADDAA106000091AG10000GF102991021051012501001001KA1240M+03011MA1999999101011MD1999999-0051REMSYN017 333 10301 59005;EQDQ01+000002VOVAR 
0121830960999991995042512004-10917-037050FM-12+000699999V0209999999999012001CN0200001N1+02561+02151101321ADDAA124002091AG10000GF106991061051012501001001KA1240N+02351MA1999999101251MD1999999-0031REMSYN023 333 20235 59003 60024;
0096830960999991995042518004-10917-037050FM-12+000699999V0209999999999220001CN0200001N1+02901+02381101231ADDAA106000091AG10000GF102991021051012501001001MA1999999101161MD1999999+0041REMSYN011 333 58004;
0134830960999991995042600004-10917-037050FM-12+000699999V0209999999999012001CN9999999N9+02611+02251101091ADDAA106000091AG10000GF106991061021012501001001KA1240M+03021MA1999999101021MD1999999+0011REMSYN017 333 10302 58001;EQDQ01+000002VOVAR 
0115830960999991995042612004-10917-037050FM-12+000699999V0209999999999012001CN0200001N1+02731+02241101231ADDAA106000091AG10000GF105991051051012501001001KA1240N+02281MA1999999101161MD1999999-0091REMSYN017 333 20228 59009;
0096830960999991995042618004-10917-037050FM-12+000699999V0209999999999220001CN0200001N1+02971+02361101111ADDAA106000091AG10000GF101991011051012501001001MA1999999101041MD1999999-0121REMSYN011 333 59012;
0115830960999991995042712004-10917-037050FM-12+000699999V0209999999999220001CN0200001N1+02861+02331101181ADDAA106000091AG10000GF102991021051012501001001KA1240N+02361MA1999999101111MD1999999-0051REMSYN017 333 20236 59005;
0096830960999991995042718004-10917-037050FM-12+000699999V0209999999999220001CN0200001N1+02951+02321101091ADDAA106000091AG10000GF101991011051012501001001MA1999999101021MD1999999-0021REMSYN011 333 59002;
0115830960999991995042812004-10917-037050FM-12+000699999V0209999999999220001CN0200001N1+02851+02311101251ADDAA106000091AG10000GF102991021051012501001001KA1240N+02341MA1999999101181MD1999999+0071REMSYN017 333 20234 58007;
0096830960999991995042818004-10917-037050FM-12+000699999V0209999999999220001CN0200001N1+02981+02461101121ADDAA106000091AG10000GF101991011051012501001001MA1999999101051MD1999999+0031REMSYN011 333 58003;
0134830960999991995042900004-10917-037050FM-12+000699999V0209999999999220001CN9999999N9+02631+02331101041ADDAA106000091AG10000GF101991011011012501001001KA1240M+03111MA1999999100971MD1999999-0041REMSYN017 333 10311 59004;EQDQ01+000002VOVAR 
0115830960999991995042912004-10917-037050FM-12+000699999V0209999999999220001CN0200001N1+02901+02341101171ADDAA106000091AG10000GF103991011051012501031001KA1240N+02361MA1999999101101MD1999999-0081REMSYN017 333 20236 59008;
0131830960999991995042918004-10917-037050FM-12+000699999V0201401N00261220001CN0500001N1+03181+01871100831ADDAA106000091AG10000GF103991011011008001031001MA1999999100761MD1999999+0131REMSYN011 333 58013;EQDQ01+095873APOSP Q02+999990APOSP 
0134830960999991995043000004-10917-037050FM-12+000699999V0209999999999220001CN9999999N9+02651+02251100991ADDAA106000091AG10000GF101991011011012501001001KA1240M+03061MA1999999100921MD1999999-0051REMSYN017 333 10306 59005;EQDQ01+000002VOVAR 
0115830960999991995043012004-10917-037050FM-12+000699999V0209999999999045001CN0200001N1+02881+02301101291ADDAA106000091AG10000GF106991031051012501031001KA1240N+02381MA1999999101221MD1999999+0171REMSYN017 333 20238 58017;
0096830960999991995043018004-10917-037050FM-12+000699999V0209999999999012001CN0200001N1+02961+02351101161ADDAA106000091AG10000GF106991061051012501001001MA1999999101091MD1999999-0051REMSYN011 333 59005;
0162830960999991995050100004-10917-037050FM-12+000699999V0209999999999007501CN9999999N9+02511+02451100971ADDAA106000191AG10005AY161061AY261061GF108991081071008001999999KA1240M+03031MA1999999100901MD1999999-0021MW1601REMSYN023 333 10303 59002 69921;EQDQ01+000002VOVAR 
0162830960999991995050112004-10917-037050FM-12+000699999V0209999999999007501CN9999999N9+02511+02451100971ADDAA106000191AG10005AY161061AY261061GF108991081071008001999999KA1240M+03031MA1999999100901MD1999999-0021MW1601REMSYN023 333 10303 59002 69921;EQDQ01+000002VOVAR 
0124830960999991995050118004-10917-037050FM-12+000699999V0209999999999007501CN0100001N1+02901+02481101081ADDAA106002091AG10005AY161061AY261061GF108991081071008001999999MA1999999101011MD1999999-0081MW1601REMSYN017 333 59008 60021;
0121830960999991995050212004-10917-037050FM-12+000699999V0209999999999220001CN0200001N1+02691+02241101211ADDAA124004091AG10000GF102991021051012501001001KA1240N+02211MA1999999101141MD1999999+0051REMSYN023 333 20221 58005 60044;
0102830960999991995050218004-10917-037050FM-12+000699999V0209999999999220001CN0200001N1+02771+02281101141ADDAA106000591AG10000GF104991041051012501001001MA1999999101071MD1999999+0061REMSYN017 333 58006 69961;
0121830960999991995050312004-10917-037050FM-12+000699999V0209999999999220001CN0200001N1+02681+02181101311ADDAA124000591AG10000GF101991011011012501001001KA1240N+02301MA1999999101241MD1999999+0101REMSYN023 333 20230 58010 69964;
0096830960999991995050318004-10917-037050FM-12+000699999V0209999999999220001CN0200001N1+02841+02341101161ADDAA106000091AG10000GF101991011051012501001001MA1999999101091MD1999999+0021REMSYN011 333 58002;
0134830960999991995050400004-10917-037050FM-12+000699999V0209999999999220001CN9999999N9+02631+02251101141ADDAA106000091AG10000GF102991021021012501001001KA1240M+03011MA1999999101071MD1999999+0031REMSYN017 333 10301 58003;EQDQ01+000002VOVAR 
0121830960999991995050412004-10917-037050FM-12+000699999V0209999999999012001CN0200001N1+02741+02241101291ADDAA124001091AG10000GF106991061051012501001001KA1240N+02311MA1999999101221MD1999999-0021REMSYN023 333 20231 59002 69984;
0096830960999991995050418004-10917-037050FM-12+000699999V0209999999999012001CN0200001N1+02891+02181101171ADDAA106000091AG10000GF106991061051012501001001MA1999999101101MD1999999+0011REMSYN011 333 58001;
0162830960999991995050500004-10917-037050FM-12+000699999V0209999999999007501CN9999999N9+02571+02471101091ADDAA106000591AG10005AY161061AY261061GF108991081071008001999999KA1240M+02971MA1999999101021MD1999999-0051MW1601REMSYN023 333 10297 59005 69961;EQDQ01+000002VOVAR 
0121830960999991995050512004-10917-037050FM-12+000699999V0209999999999220001CN0200001N1+02901+02371101351ADDAA124000591AG10000GF102991021051012501001001KA1240N+02341MA1999999101281MD1999999+0061REMSYN023 333 20234 58006 69964;
0096830960999991995050518004-10917-037050FM-12+000699999V0209999999999220001CN0200001N1+02871+02081101201ADDAA106000091AG10000GF104991041051012501001001MA1999999101131MD1999999+0031REMSYN011 333 58003;
0121830960999991995050612004-10917-037050FM-12+000699999V0209999999999220001CN0200001N1+02711+02261101301ADDAA124000591AG10000GF101991011051012501001001KA1240N+02311MA1999999101231MD1999999-0051REMSYN023 333 20231 59005 69944;
0096830960999991995050618004-10917-037050FM-12+000699999V0209999999999012001CN0200001N1+02901+02401101161ADDAA106000091AG10000GF106991061051012501001001MA1999999101091MD1999999-0041REMSYN011 333 59004;
0115830960999991995050712004-10917-037050FM-12+000699999V0209999999999220001CN0200001N1+02821+02291101371ADDAA106000091AG10000GF102991021051012501001001KA1240N+02341MA1999999101301MD1999999+0071REMSYN017 333 20234 58007;
0096830960999991995050718004-10917-037050FM-12+000699999V0209999999999220001CN0200001N1+02801+02011101231ADDAA106000091AG10000GF104991041051012501001001MA1999999101161MD1999999+0071REMSYN011 333 58007;
0134830960999991995050800004-10917-037050FM-12+000699999V0209999999999220001CN9999999N9+02661+02311101021ADDAA106000091AG10000GF101991011011012501001001KA1240M+03081MA1999999100951MD1999999-0051REMSYN017 333 10308 59005;EQDQ01+000002VOVAR 
0096830960999991995050818004-10917-037050FM-12+000699999V0209999999999220001CN0200001N1+02881+02171101181ADDAA106000091AG10000GF101991011011012501001001MA1999999101111MD1999999-0051REMSYN011 333 59005;
0134830960999991995050900004-10917-037050FM-12+000699999V0209999999999220001CN9999999N9+02621+02231101071ADDAA106000091AG10000GF101991011011012501001001KA1240M+03111MA1999999101001MD1999999+0051REMSYN017 333 10311 58005;EQDQ01+000002VOVAR 
0115830960999991995050912004-10917-037050FM-12+000699999V0209999999999220001CN0200001N1+02791+02251101351ADDAA106000091AG10000GF101991011011012501001001KA1240N+02331MA1999999101281MD1999999+0041REMSYN017 333 20233 58004;
0096830960999991995050918004-10917-037050FM-12+000699999V0209999999999220001CN0200001N1+02911+02101101161ADDAA106000091AG10000GF101991011051012501001001MA1999999101091MD1999999-0021REMSYN011 333 59002;
0121830960999991995051012004-10917-037050FM-12+000699999V0209999999999220001CN0200001N1+02701+02201101471ADDAA124003091AG10000GF101991011011012501001001KA1240N+02301MA1999999101401MD1999999+0121REMSYN023 333 20230 58012 60034;
0096830960999991995051018004-10917-037050FM-12+000699999V0209999999999220001CN0200001N1+02931+02121101221ADDAA106000091AG10000GF101991011051012501001001MA1999999101151MD1999999+0061REMSYN011 333 58006;
0121830960999991995051112004-10917-037050FM-12+000699999V0209999999999220001CN0200001N1+02841+02331101431ADDAA124002091AG10000GF104991041051012501001001KA1240N+02341MA1999999101361MD1999999-0041REMSYN023 333 20234 59004 60024;
0116830960999991995051118004-10917-037050FM-12+000699999V0209999999999220001CN0200001N1+99999+99999100891ADDAA106000391AG10000AY151061GF102991021011008001001001MA1999999100661MD1999999+0131MW1021REMSYN017 333 58013 69931;
0134830960999991995051200004-10917-037050FM-12+000699999V0209999999999220001CN9999999N9+02641+02231101091ADDAA106000091AG10000GF101991011011012501001001KA1240M+03171MA1999999101021MD1999999-0061REMSYN017 333 10317 59006;EQDQ01+000002VOVAR 
0115830960999991995051212004-10917-037050FM-12+000699999V0209999999999045001CN0200001N1+02881+02351101301ADDAA106000091AG10000GF106991041051012501031001KA1240N+02301MA1999999101231MD1999999-0131REMSYN017 333 20230 59013;
0096830960999991995051218004-10917-037050FM-12+000699999V0209999999999220001CN0200001N1+02951+02151101091ADDAA106000091AG10000GF101991011051012501001001MA1999999101021MD1999999-0081REMSYN011 333 59008;
0134830960999991995051300004-10917-037050FM-12+000699999V0209999999999220001CN9999999N9+02671+02271101141ADDAA106000091AG10000GF102991021021012501001001KA1240M+03091MA1999999101071MD1999999+0051REMSYN017 333 10309 58005;EQDQ01+000002VOVAR 
0115830960999991995051312004-10917-037050FM-12+000699999V0209999999999220001CN0200001N1+02851+02331101421ADDAA106000091AG10000GF101991011051012501001001KA1240N+02311MA1999999101351MD1999999+0121REMSYN017 333 20231 58012;
0096830960999991995051318004-10917-037050FM-12+000699999V0209999999999220001CN0200001N1+02871+02361101181ADDAA106000091AG10000GF104991041051012501001001MA1999999101111MD1999999+0091REMSYN011 333 58009;
0124830960999991995051418004-10917-037050FM-12+000699999V0209999999999007501CN0100001N1+02711+02251101241ADDAA106002091AG10005AY161061AY261061GF108991081051008001999999MA1999999101171MD1999999+0061MW1601REMSYN017 333 58006 60021;
0121830960999991995051512004-10917-037050FM-12+000699999V0209999999999012001CN0200001N1+02791+02321101341ADDAA124011091AG10000GF106991061051012501001001KA1240N+02291MA1999999101271MD1999999-0071REMSYN023 333 20229 59007 60114;
0121830960999991995051612004-10917-037050FM-12+000699999V0209999999999220001CN0200001N1+02811+02291101361ADDAA124001091AG10000GF104991041051012501001001KA1240N+02331MA1999999101291MD1999999+0021REMSYN023 333 20233 58002 60014;
0096830960999991995051618004-10917-037050FM-12+000699999V0209999999999220001CN0200001N1+02961+02251101151ADDAA106000091AG10000GF102991021021012501001001MA1999999101081MD1999999-0121REMSYN011 333 59012;
0121830960999991995051712004-10917-037050FM-12+000699999V0209999999999045001CN0200001N1+02781+02321101311ADDAA124013091AG10000GF106991041051012501031001KA1240N+02301MA1999999101241MD1999999-0051REMSYN023 333 20230 59005 60134;
0096830960999991995051718004-10917-037050FM-12+000699999V0209999999999220001CN0200001N1+02911+02371101171ADDAA106000091AG10000GF102991021051012501001001MA1999999101101MD1999999+0021REMSYN011 333 58002;
0134830960999991995051800004-10917-037050FM-12+000699999V0209999999999220001CN9999999N9+02641+02271101011ADDAA106000091AG10000GF101991011011012501001001KA1240M+03071MA1999999100941MD1999999-0061REMSYN017 333 10307 59006;EQDQ01+000002VOVAR 
0121830960999991995051812004-10917-037050FM-12+000699999V0209999999999012001CN0200001N1+02781+02341101191ADDAA124001091AG10000GF107991071051012501001001KA1240N+02341MA1999999101121MD1999999-0121REMSYN023 333 20234 59012 69994;
0102830960999991995051818004-10917-037050FM-12+000699999V0209999999999045001CN0200001N1+02771+02251100951ADDAA106005091AG10000GF106991041051012501031001MA1999999100881MD1999999-0221REMSYN017 333 59022 60051;
0134830960999991995051912004-10917-037050FM-12+000699999V0209999999999220001CN9999999N9+02541+02191100971ADDAA106000091AG10000GF104991041011012501001001KA1240M+02861MA1999999100901MD1999999-0041REMSYN017 333 10286 59004;EQDQ01+000002VOVAR 
0096830960999991995051918004-10917-037050FM-12+000699999V0209999999999012001CN0200001N1+02761+02281100981ADDAA106000091AG10000GF106991061051012501001001MA1999999100911MD1999999+0031REMSYN011 333 58003;
0134830960999991995052000004-10917-037050FM-12+000699999V0209999999999220001CN9999999N9+02511+02171100931ADDAA106000091AG10000GF104991999999012501999999KA1240M+02921MA1999999100861MD1999999-0041REMSYN017 333 10292 59004;EQDQ01+000002VOVAR 
0115830960999991995052012004-10917-037050FM-12+000699999V0209999999999220001CN0200001N1+02711+02221101151ADDAA106000091AG10000GF101991011051012501001001KA1240N+02311MA1999999101081MD1999999+0031REMSYN017 333 20231 58003;
0096830960999991995052018004-10917-037050FM-12+000699999V0209999999999220001CN0200001N1+02741+02201101031ADDAA106000091AG10000GF101991011011012501001001MA1999999100961MD1999999+0051REMSYN011 333 58005;
0134830960999991995052100004-10917-037050FM-12+000699999V0209999999999220001CN9999999N9+02551+02201100981ADDAA106000091AG10000GF102991021051012501001001KA1240M+02941MA1999999100911MD1999999+0051REMSYN017 333 10294 58005;EQDQ01+000002VOVAR 
0115830960999991995052112004-10917-037050FM-12+000699999V0209999999999220001CN0200001N1+02911+02321101461ADDAA106000091AG10000GF104991021051012501001011KA1240N+02381MA1999999101391MD1999999+0311REMSYN017 333 20238 58031;
0096830960999991995052118004-10917-037050FM-12+000699999V0209999999999012001CN0200001N1+02881+02171101211ADDAA106000091AG10000GF105991051051012501001001MA1999999101141MD1999999+0181REMSYN011 333 58018;
0115830960999991995052200004-10917-037050FM-12+000699999V0209999999999220001CN9999999N9+02521+02151101061ADDAA106000091AG10000GF102991021011012501001001MA1999999100991MD1999999+0081REMSYN011 333 58008;EQDQ01+000002VOVAR 
0121830960999991995052212004-10917-037050FM-12+000699999V0209999999999012001CN0200001N1+02811+02311101381ADDAA124000391AG10000GF106991061051012501001001KA1240N+02331MA1999999101311MD1999999-0081REMSYN023 333 20233 59008 69934;
0134830960999991995052300004-10917-037050FM-12+000699999V0209999999999220001CN9999999N9+02581+02231101081ADDAA106000091AG10000GF102991021011012501001001KA1240M+03001MA1999999101011MD1999999+0021REMSYN017 333 10300 58002;EQDQ01+000002VOVAR 
0143830960999991995052312004-10917-037050FM-12+000699999V0209999999999007501CN0100001N1+02581+02491101211ADDAA124003091AG10005AY161061AY261061GF108991081071008001999999KA1240N+02301MA1999999101141MD1999999-0171MW1601REMSYN023 333 20230 59017 60034;
0124830960999991995052318004-10917-037050FM-12+000699999V0209999999999007501CN0100001N1+02621+02411101001ADDAA106007091AG10005AY161061AY261061GF108991081071008001999999MA1999999100931MD1999999-0151MW1601REMSYN017 333 59015 60071;
0121830960999991995052412004-10917-037050FM-12+000699999V0209999999999045001CN0200001N1+02551+02131101261ADDAA124021091AG10000GF106991041051012501031001KA1240N+02301MA1999999101191MD1999999+0051REMSYN023 333 20230 58005 60214;
0096830960999991995052418004-10917-037050FM-12+000699999V0209999999999220001CN0200001N1+02791+02241101081ADDAA106000091AG10000GF104991041051012501001001MA1999999101011MD1999999+0081REMSYN011 333 58008;
0140830960999991995052500004-10917-037050FM-12+000699999V0209999999999220001CN9999999N9+02561+02211101011ADDAA106001091AG10000GF102991021021012501001001KA1240M+02901MA1999999100941MD1999999-0051REMSYN023 333 10290 59005 60011;EQDQ01+000002VOVAR 
0121830960999991995052512004-10917-037050FM-12+000699999V0209999999999220001CN0200001N1+02861+02331101441ADDAA124004091AG10000GF102991021051012501001001KA1240N+02351MA1999999101371MD1999999+0181REMSYN023 333 20235 58018 60044;
0096830960999991995052518004-10917-037050FM-12+000699999V0209999999999220001CN0200001N1+02911+02111101191ADDAA106000091AG10000GF101991011051012501001001MA1999999101121MD1999999+0111REMSYN011 333 58011;
0134830960999991995052600004-10917-037050FM-12+000699999V0209999999999220001CN9999999N9+02601+02231101101ADDAA106000091AG10000GF101991011011012501001001KA1240M+02971MA1999999101031MD1999999+0091REMSYN017 333 10297 58009;EQDQ01+000002VOVAR 
0121830960999991995052612004-10917-037050FM-12+000699999V0209999999999012001CN0200001N1+02591+02151101361ADDAA124002091AG10000GF107991071051012501001001KA1240N+02101MA1999999101291MD1999999-0061REMSYN023 333 20210 59006 60024;
0178830960999991995052700004-10917-037050FM-12+000699999V0209999999999007501CN9999999N9+02511+02361101211ADDAA106009091AG10004GF108991081071008001999999KA1240M+02911MA1999999101141MD1999999+0111MW1601REMSYN023 333 10291 58011 60091;EQDQ01+000002VOVAR Q02+000072PSTWM1Q03+000072PSTWM2
0121830960999991995052712004-10917-037050FM-12+000699999V0209999999999012001CN0200001N1+02751+02481101421ADDAA124014091AG10000GF106991061051012501001001KA1240N+02021MA1999999101361MD1999999+0071REMSYN023 333 20202 58007 60144;
0096830960999991995052718004-10917-037050FM-12+000699999V0209999999999045001CN0200001N1+02861+02311101231ADDAA106000091AG10000GF106991041051012501031001MA1999999101161MD1999999+0081REMSYN011 333 58008;
0121830960999991995052812004-10917-037050FM-12+000699999V0209999999999045001CN0200001N1+02791+02301101501ADDAA124011091AG10000GF105991031051012501031001KA1240N+02331MA1999999101431MD1999999-0071REMSYN023 333 20233 59007 60114;
0102830960999991995052818004-10917-037050FM-12+000699999V0209999999999045001CN0200001N1+02741+02241101301ADDAA106000591AG10000GF106991021051012501031001MA1999999101231MD1999999+0071REMSYN017 333 58007 69961;
0134830960999991995052900004-10917-037050FM-12+000699999V0209999999999012001CN9999999N9+02511+02151101141ADDAA106000091AG10000GF107991071051012501001001KA1240M+02961MA1999999101071MD1999999-0031REMSYN017 333 10296 59003;EQDQ01+000002VOVAR 
0096830960999991995052918004-10917-037050FM-12+000699999V0209999999999220001CN0200001N1+02721+99999101281ADDAA106000091AG10000GF102991021051012501001001MA1999999101211MD1999999-0021REMSYN011 333 59002;
0134830960999991995053000004-10917-037050FM-12+000699999V0209999999999220001CN9999999N9+02801+02181101081ADDAA106000091AG10000GF101991011011012501001001KA1240M+02911MA1999999101011MD1999999-0061REMSYN017 333 10291 59006;EQDQ01+000002VOVAR 
0121830960999991995053012004-10917-037050FM-12+000699999V0209999999999045001CN0200001N1+02641+02181101411ADDAA124001091AG10000GF106991041051012501031001KA1240N+02211MA1999999101341MD1999999+0111REMSYN023 333 20221 58011 60014;
0096830960999991995053018004-10917-037050FM-12+000699999V0209999999999220001CN0200001N1+02771+02221101301ADDAA106000091AG10000GF102991021051012501001001MA1999999101231MD1999999+0021REMSYN011 333 58002;
0134830960999991995053100004-10917-037050FM-12+000699999V0209999999999220001CN9999999N9+02601+02181101181ADDAA106000091AG10000GF103991031021012501001001KA1240M+02941MA1999999101111MD1999999+0101REMSYN017 333 10294 58010;EQDQ01+000002VOVAR 
0121830960999991995053112004-10917-037050FM-12+000699999V0209999999999220001CN0200001N1+02681+02181101511ADDAA124000191AG10000GF103991031051012501001001KA1240N+02281MA1999999101441MD1999999+0101REMSYN023 333 20228 58010 69924;
0096830960999991995053118004-10917-037050FM-12+000699999V0209999999999220001CN0200001N1+02811+02101101331ADDAA106000091AG10000GF101991011011012501001001MA1999999101261MD1999999+0031REMSYN011 333 58003;
0115830960999991995060112004-10917-037050FM-12+000699999V0209999999999220001CN0200001N1+02811+02271101461ADDAA106000091AG10000GF102991021051012501001001KA1240N+02321MA1999999101391MD1999999-0051REMSYN017 333 20232 59005;
0096830960999991995060118004-10917-037050FM-12+000699999V0209999999999220001CN0200001N1+02841+02041101311ADDAA106000091AG10000GF102991021021012501001001MA1999999101241MD1999999-0021REMSYN011 333 59002;
0134830960999991995060200004-10917-037050FM-12+000699999V0209999999999220001CN9999999N9+02621+02161101071ADDAA106000091AG10000GF101991011011012501001001KA1240M+02991MA1999999101001MD1999999-0091REMSYN017 333 10299 59009;EQDQ01+000002VOVAR 
0115830960999991995060212004-10917-037050FM-12+000699999V0209999999999220001CN0200001N1+02691+02181101491ADDAA106000091AG10000GF102991021051012501001001KA1240N+02131MA1999999101421MD1999999+0031REMSYN017 333 20213 58003;
0096830960999991995060218004-10917-037050FM-12+000699999V0209999999999220001CN0200001N1+02791+02271101411ADDAA106000091AG10000GF104991041051012501001001MA1999999101341MD1999999+0101REMSYN011 333 58010;
0121830960999991995060312004-10917-037050FM-12+000699999V0209999999999045001CN0200001N1+02681+02241101501ADDAA124001091AG10000GF106991021051012501031001KA1240N+02371MA1999999101431MD1999999+0011REMSYN023 333 20237 58001 60014;
0096830960999991995060318004-10917-037050FM-12+000699999V0209999999999012001CN0200001N1+02821+02301101361ADDAA106000091AG10000GF106991061051012501001001MA1999999101291MD1999999+0051REMSYN011 333 58005;
0143830960999991995060412004-10917-037050FM-12+000699999V0209999999999007501CN0100001N1+02601+02391101651ADDAA124017091AG10004AY161061AY261061GF108991081071008001999999KA1240N+02211MA1999999101581MD1999999+0151MW1601REMSYN023 333 20221 58015 60174;
0121830960999991995060418004-10917-037050FM-12+000699999V0209999999999012001CN0100001N1+02501+02131101401ADDAA106003091AG10000GF108991081071012501999999MA1999999091332MD1999999+0041REMSYN017 333 58004 60031;EQDQ01+091333APOSP 
0143830960999991995060512004-10917-037050FM-12+000699999V0209999999999007501CN0100001N1+02521+02431101211ADDAA124018091AG10004AY161061AY261061GF108991081071008001999999KA1240N+02271MA1999999101141MD1999999-0441MW1601REMSYN023 333 20227 59044 60184;
0102830960999991995060518004-10917-037050FM-12+000699999V0209999999999007501CN0100001N1+02481+02071101511ADDAA106004091AG10000GF108991081071008001999999MA1999999101441MD1999999+0111REMSYN017 333 58011 60041;
0162830960999991995060600004-10917-037050FM-12+000699999V0209999999999007501CN9999999N9+02401+02331101171ADDAA106007091AG10004AY161061AY261061GF108991081071008001999999KA1240M+02671MA1999999101101MD1999999-0021MW1601REMSYN023 333 10267 59002 60071;EQDQ01+000002VOVAR 
0143830960999991995060612004-10917-037050FM-12+000699999V0209999999999007501CN0100001N1+02331+02251101231ADDAA124034091AG10004AY161061AY261061GF108991081071008001999999KA1240N+02231MA1999999101161MD1999999+0021MW1601REMSYN023 333 20223 58002 60344;
0102830960999991995060618004-10917-037050FM-12+000699999V0209999999999012001CN0100001N1+02421+02051101461ADDAA106003091AG10004GF108991081071012501999999MA1999999101391MD1999999-0051REMSYN017 333 59005 60031;
0121830960999991995060712004-10917-037050FM-12+000699999V0209999999999012001CN0200001N1+02711+02201101201ADDAA124004091AG10000GF106991061051012501001001KA1240N+01941MA1999999101131MD1999999-0031REMSYN023 333 20194 59003 60044;
0096830960999991995060718004-10917-037050FM-12+000699999V0209999999999012001CN0200001N1+02741+02171101671ADDAA106000091AG10000GF106991061051012501001001MA1999999101601MD1999999+0291REMSYN011 333 58029;
0134830960999991995060800004-10917-037050FM-12+000699999V0209999999999220001CN9999999N9+02581+02211101211ADDAA106000091AG10000GF102991021021012501001001KA1240M+02841MA1999999101141MD1999999+0061REMSYN017 333 10284 58006;EQDQ01+000002VOVAR 
0143830960999991995060812004-10917-037050FM-12+000699999V0209999999999007501CN0100001N1+02481+02111101701ADDAA124000591AG10004AY161061AY261061GF108991081071008001999999KA1240N+02281MA1999999101631MD1999999+0501MW1601REMSYN023 333 20228 58050 69944;
0096830960999991995060818004-10917-037050FM-12+000699999V0209999999999220001CN0200001N1+02771+02261101351ADDAA106000091AG10000GF104991041051012501001001MA1999999101281MD1999999-0321REMSYN011 333 59032;
0121830960999991995060912004-10917-037050FM-12+000699999V0209999999999012001CN0200001N1+02681+02161101231ADDAA124005091AG10000GF105991051051012501001001KA1240N+01911MA1999999101161MD1999999-0471REMSYN023 333 20191 59047 60054;
0096830960999991995060918004-10917-037050FM-12+000699999V0209999999999220001CN0200001N1+02801+02231101271ADDAA106000091AG10000GF102991021051008001001001MA1999999101201MD1999999-0081REMSYN011 333 59008;
0132830960999991995061012004-10917-037050FM-12+000699999V0209999999999220001CN0200001N1+02721+02221101611ADDAA106000091AA224002091AG10000GF102991021051012501001001KA1240N+02361MA1999999101541MD1999999+0381REMSYN023 333 20236 58038 60024;
0096830960999991995061018004-10917-037050FM-12+000699999V0209999999999220001CN0200001N1+02861+02321101151ADDAA106000091AG10000GF101991011011012501001001MA1999999101081MD1999999-0121REMSYN011 333 59012;
0134830960999991995061100004-10917-037050FM-12+000699999V0209999999999220001CN9999999N9+02551+02161101081ADDAA106000091AG10000GF102991021011012501001001KA1240M+02941MA1999999101011MD1999999+0051REMSYN017 333 10294 58005;EQDQ01+000002VOVAR 
0121830960999991995061112004-10917-037050FM-12+000699999V02099999999990120019N0200001N1+02691+02201101161ADDAA124000191AG10000GF105991051051012501001001KA1240N+01911MA1999999101091MD1999999-0441REMSYN023 333 20191 59044 69924;
0124830960999991995061118004-10917-037050FM-12+000699999V0209999999999007501CN0100001N1+02361+02291101411ADDAA106008091AG10000AY121061AY221061GF108991081071008001999999MA1999999101341MD1999999+0261MW1601REMSYN017 333 58026 60081;
0162830960999991995061200004-10917-037050FM-12+000699999V0209999999999007501CN9999999N9+02301+02141101071ADDAA106016091AG10004AY161061AY261061GF108991081071008001999999KA1240M+02721MA1999999101001MD1999999-0011MW1601REMSYN023 333 10272 59001 60161;EQDQ01+000002VOVAR 
0121830960999991995061212004-10917-037050FM-12+000699999V0209999999999220001CN0200001N1+02741+02171101571ADDAA124024091AG10000GF101991011051012501001001KA1240N+02211MA1999999101501MD1999999+0411REMSYN023 333 20221 58041 60244;
0124830960999991995061218004-10917-037050FM-12+000699999V0209999999999007501CN0100001N1+02401+02331101461ADDAA106000591AG10004AY161061AY261061GF108991081071008001999999MA1999999101391MD1999999+0051MW1601REMSYN017 333 58005 69961;
0140830960999991995061300004-10917-037050FM-12+000699999V0209999999999012001CN9999999N9+02411+02111101231ADDAA106002091AG10000GF108991081071012501999999KA1240M+02821MA1999999101161MD1999999+0161REMSYN023 333 10282 58016 60021;EQDQ01+000002VOVAR 
0132830960999991995061312004-10917-037050FM-12+000699999V02099999999990120019N0200001N1+02641+02161101671ADDAA106000091AA224007091AG10000GF107991071051012501001001KA1240N+02251MA1999999101601MD1999999+0101REMSYN023 333 20225 58010 60074;
0096830960999991995061318004-10917-037050FM-12+000699999V0209999999999220001CN0200001N1+02761+02221101381ADDAA106000091AG10000GF102991021051012501001001MA1999999101311MD1999999-0081REMSYN011 333 59008;
0134830960999991995061400004-10917-037050FM-12+000699999V0209999999999220001CN9999999N9+02571+02191101271ADDAA106000091AG10000GF104991041051012501001001KA1240M+02891MA1999999101201MD1999999+0041REMSYN017 333 10289 58004;EQDQ01+000002VOVAR 
0096830960999991995061418004-10917-037050FM-12+000699999V0209999999999045001CN0200001N1+02731+02201101441ADDAA106000091AG10000GF106991021051012501031001MA1999999101371MD1999999+0161REMSYN011 333 58016;
0121830960999991995061512004-10917-037050FM-12+000699999V0209999999999045001CN0200001N1+02641+02161101631ADDAA124001091AG10000GF105991021051012501031001KA1240N+02321MA1999999101561MD1999999-0081REMSYN023 333 20232 59008 69974;
0096830960999991995061518004-10917-037050FM-12+000699999V0209999999999220001CN0200001N1+02711+02141101361ADDAA106000091AG10000GF104991041051012501001001MA1999999101291MD1999999-0081REMSYN011 333 59008;
0134830960999991995061600004-10917-037050FM-12+000699999V0209999999999012001CN9999999N9+02561+02271101171ADDAA106000091AG10000GF106991061051012501001001KA1240M+02901MA1999999101101MD1999999-0041REMSYN017 333 10290 59004;EQDQ01+000002VOVAR 
0121830960999991995061612004-10917-037050FM-12+000699999V0209999999999012001CN0200001N1+02621+02161101541ADDAA124003091AG10000GF107991071051012501001001KA1240N+02281MA1999999101471MD1999999-0091REMSYN023 333 20228 59009 60034;
0096830960999991995061618004-10917-037050FM-12+000699999V0209999999999012001CN0200001N1+02741+02201101291ADDAA106000091AG10000GF106991061051012501001001MA1999999101221MD1999999-0071REMSYN011 333 59007;
0115830960999991995061712004-10917-037050FM-12+000699999V0209999999999220001CN0200001N1+02511+02001101611ADDAA106000091AG10000GF102991021051012501001001KA1240N+02141MA1999999101541MD1999999+0071REMSYN017 333 20214 58007;
0102830960999991995061718004-10917-037050FM-12+000699999V0209999999999012001CN0200001N1+02601+02141101221ADDAA106003091AG10000GF106991061051012501001001MA1999999101151MD1999999-0071REMSYN017 333 59007 60031;
0121830960999991995061812004-10917-037050FM-12+000699999V0209999999999012001CN0200001N1+02541+02061101601ADDAA124004091AG10000GF106991061051012501001001KA1240N+02171MA1999999101531MD1999999-0011REMSYN023 333 20217 59001 60044;
0096830960999991995061818004-10917-037050FM-12+000699999V0209999999999220001CN0200001N1+02661+02141101251ADDAA106000091AG10000GF104991041051012501001001MA1999999101181MD1999999+0031REMSYN011 333 58003;
0134830960999991995061900004-10917-037050FM-12+000699999V0209999999999012001CN9999999N9+02451+02131101081ADDAA106000091AG10000GF106991061051012501001001KA1240M+02861MA1999999101011MD1999999-0091REMSYN017 333 10286 59009;EQDQ01+000002VOVAR 
0121830960999991995061912004-10917-037050FM-12+000699999V0209999999999045001CN0200001N1+02511+02071101531ADDAA124000591AG10000GF106991021051012501031001KA1240N+01891MA1999999101461MD1999999-0071REMSYN023 333 20189 59007 69944;
0096830960999991995061918004-10917-037050FM-12+000699999V0209999999999220001CN0200001N1+02681+02141101171ADDAA106000091AG10000GF101991011051012501001001MA1999999101101MD1999999-0081REMSYN011 333 59008;
0115830960999991995062012004-10917-037050FM-12+000699999V0209999999999045001CN0200001N1+02521+02111101571ADDAA106000091AG10000GF106991041051012501031001KA1240N+01731MA1999999101501MD1999999+0041REMSYN017 333 20173 58004;
0124830960999991995062018004-10917-037050FM-12+000699999V0209999999999007501CN0100001N1+02401+02331101231ADDAA106003091AG10004AY161061AY261061GF108991081071008001999999MA1999999101161MD1999999+0061MW1601REMSYN017 333 58006 60031;
0108830960999991995062112004-10917-037050FM-12+000699999V0209999999999012001CN0200001N1+02361+01951101721ADDAA124028091AG10000GF107991071051012501001001MA1999999101651MD1999999+0151REMSYN023 333 20/// 58015 60284;
0102830960999991995062118004-10917-037050FM-12+000699999V0209999999999220001CN0200001N1+02541+01991101201ADDAA106000191AG10000GF101991011011012501001001MA1999999101131MD1999999-0031REMSYN017 333 59003 69921;
0121830960999991995062212004-10917-037050FM-12+000699999V0209999999999012001CN0200001N1+02581+02171101721ADDAA124001091AG10000GF106991061051012501001001KA1240N+01791MA1999999101651MD1999999+0001REMSYN023 333 20179 58000 69984;
0102830960999991995062218004-10917-037050FM-12+000699999V0209999999999220001CN0200001N1+02701+02111101451ADDAA106000191AG10000GF102991021051012501001001MA1999999101381MD1999999+0151REMSYN017 333 58015 69921;
0121830960999991995062312004-10917-037050FM-12+000699999V0209999999999012001CN0200001N1+02481+02031101631ADDAA124002091AG10000GF107991071051012501001001KA1240N+01961MA1999999101561MD1999999-0091REMSYN023 333 20196 59009 60024;
0096830960999991995062318004-10917-037050FM-12+000699999V0209999999999012001CN0200001N1+02611+02071101391ADDAA106000091AG10000GF106991061051012501001001MA1999999101321MD1999999-0061REMSYN011 333 59006;
0121830960999991995062412004-10917-037050FM-12+000699999V0209999999999220001CN0200001N1+02671+02161101431ADDAA124003091AG10000GF101991011051012501001001KA1240N+01881MA1999999101361MD1999999-0201REMSYN023 333 20188 59020 60034;
0162830960999991995062500004-10917-037050FM-12+000699999V0209999999999007501CN9999999N9+02471+02391101191ADDAA106006091AG10004AY161061AY261061GF108991081071008001999999KA1240M+02861MA1999999101121MD1999999+0041MW1601REMSYN023 333 10286 58004 60061;EQDQ01+000002VOVAR 
0143830960999991995062512004-10917-037050FM-12+000699999V0209999999999007501CN0100001N1+02581+02511101641ADDAA124008091AG10004AY161061AY261061GF108991081071008001999999KA1240N+02201MA1999999101571MD1999999+0211MW1601REMSYN023 333 20220 58021 60084;
0124830960999991995062518004-10917-037050FM-12+000699999V0209999999999007501CN0100001N1+02561+02211101401ADDAA106000591AG10004AY161061AY261061GF108991081071008001999999MA1999999101331MD1999999+0131MW1601REMSYN017 333 58013 69941;
0143830960999991995062612004-10917-037050FM-12+000699999V0209999999999007501CN0100001N1+02411+02051101761ADDAA124008091AG10004AY161061AY261061GF108991081071008001999999KA1240N+01711MA1999999101691MD1999999+0081MW1601REMSYN023 333 20171 58008 60084;
0096830960999991995062618004-10917-037050FM-12+000699999V0209999999999012001CN0200001N1+02511+01961101421ADDAA106000091AG10000GF106991061051012501001001MA1999999101351MD1999999+0021REMSYN011 333 58002;
0102830960999991995062712004-10917-037050FM-12+000699999V0209999999999220001CN0200001N1+02641+02181101701ADDAA106000091AG10000GF104991041051012501001001MA1999999101631MD1999999-0061REMSYN017 333 20/// 59006;
0102830960999991995062718004-10917-037050FM-12+000699999V0209999999999220001CN0200001N1+02691+02161101411ADDAA106002091AG10000GF102991021051012501001001MA1999999101341MD1999999-0011REMSYN017 333 59001 60021;
0108830960999991995062812004-10917-037050FM-12+000699999V0209999999999220001CN0200001N1+02581+02101101601ADDAA124005091AG10000GF102991021051012501001001MA1999999101531MD1999999-0101REMSYN023 333 20/// 59010 60054;
0096830960999991995062818004-10917-037050FM-12+000699999V0209999999999012001CN0200001N1+02711+02111101371ADDAA106000091AG10000GF106991061051012501001001MA1999999101301MD1999999-0041REMSYN011 333 59004;
0130830960999991995062912004-10917-037050FM-12+000699999V0209999999999007501CN0100001N1+02391+02311101581ADDAA124013091AG10004AY161061AY261061GF108991081071008001999999MA1999999101511MD1999999-0021MW1601REMSYN023 333 20/// 59002 60134;
0124830960999991995062918004-10917-037050FM-12+000699999V0209999999999007501CN0100001N1+02601+02171101411ADDAA106001091AG10004AY161061AY261061GF108991081071008001999999MA1999999101341MD1999999+0041MW1601REMSYN017 333 58004 60011;
0143830960999991995063012004-10917-037050FM-12+000699999V0209999999999007501CN0100001N1+02491+02271101661ADDAA124016091AG10004AY161061AY261061GF108991081071008001999999KA1240N+01981MA1999999101591MD1999999+0081MW1601REMSYN023 333 20198 58008 60164;
0140830960999991995070112004-10917-037050FM-12+000699999V0209999999999012001CN0200001N1+02641+02161101771ADDAA124002091AG10000GF107991071051012501001001KA1240N+99999MA1999999101701MD1999999+0111REMSYN023 333 20286 58011 60024;EQDQ01 +02862ATMN  
0096830960999991995070118004-10917-037050FM-12+000699999V0209999999999012001CN0200001N1+02701+02161101421ADDAA106000091AG10000GF108991081051012501999999MA1999999101351MD1999999-0041REMSYN011 333 59004;
0143830960999991995070212004-10917-037050FM-12+000699999V0209999999999007501CN0100001N1+02521+02451101781ADDAA124018091AG10004AY161061AY261061GF108991081071008001999999KA1240N+01661MA1999999101711MD1999999+0011MW1601REMSYN023 333 20166 58001 60184;
0124830960999991995070218004-10917-037050FM-12+000699999V0209999999999012001CN0200001N1+02611+02121101501ADDAA106003091AG10004AY161061AY261061GF106991061051012501001001MA1999999101431MD1999999+0081MW1601REMSYN017 333 58008 60031;
0134830960999991995070300004-10917-037050FM-12+000699999V0209999999999220001CN9999999N9+02501+02131101281ADDAA106000091AG10000GF102991021021012501001001KA1240M+02761MA1999999101211MD1999999-0051REMSYN017 333 10276 59005;EQDQ01+000002VOVAR 
0121830960999991995070312004-10917-037050FM-12+000699999V0209999999999045001CN0200001N1+02691+02161101701ADDAA124003091AG10000GF106991041051012501031001KA1240N+02001MA1999999101631MD1999999-0081REMSYN023 333 20200 59008 60034;
0096830960999991995070418004-10917-037050FM-12+000699999V0209999999999220001CN0200001N1+02721+02221101471ADDAA106000091AG10000GF102991021051012501001001MA1999999101401MD1999999-0021REMSYN011 333 59002;
0134830960999991995070500004-10917-037050FM-12+000699999V0209999999999220001CN9999999N9+02421+02211101271ADDAA106000091AG10000GF104991041021012501001001KA1240M+02791MA1999999101201MD1999999+0031REMSYN017 333 10279 58003;EQDQ01+000002VOVAR 
0143830960999991995070512004-10917-037050FM-12+000699999V0209999999999007501CN0100001N1+02421+02351101761ADDAA124010091AG10004AY161061AY261061GF108991081071008001999999KA1240N+01711MA1999999101691MD1999999+0071MW1601REMSYN023 333 20171 58007 60104;
0124830960999991995070518004-10917-037050FM-12+000699999V0209999999999007501CN0100001N1+02381+02291101461ADDAA106011091AG10004AY161061AY261061GF108991081071008001999999MA1999999101391MD1999999-0011MW1601REMSYN017 333 59001 60111;
0121830960999991995070612004-10917-037050FM-12+000699999V0209999999999220001CN0200001N1+02581+02101101661ADDAA124029091AG10000GF103991031051012501001001KA1240N+02041MA1999999101591MD1999999-0101REMSYN023 333 20204 59010 60294;
0096830960999991995070618004-10917-037050FM-12+000699999V0209999999999220001CN0200001N1+02671+02111101371ADDAA106000091AG10000GF101991011051012501001001MA1999999101301MD1999999-0091REMSYN011 333 59009;
0134830960999991995070700004-10917-037050FM-12+000699999V0209999999999220001CN9999999N9+02541+02211101271ADDAA106000091AG10000GF102991021021012501001001KA1240M+02771MA1999999101201MD1999999+0061REMSYN017 333 10277 58006;EQDQ01+000002VOVAR 
0096830960999991995070718004-10917-037050FM-12+000699999V0209999999999220001CN0200001N1+02701+02201101361ADDAA106000091AG10000GF101991011051012501001001MA1999999101291MD1999999-0011REMSYN011 333 59001;
0096830960999991995071018004-10917-037050FM-12+000699999V0209999999999220001CN0200001N1+02721+02151101511ADDAA106000091AG10000GF101991011051012501001001MA1999999101441MD1999999+0031REMSYN011 333 58003;
0096830960999991995071118004-10917-037050FM-12+000699999V0209999999999220001CN0200001N1+02701+02201101461ADDAA106000091AG10000GF101991011021012501001001MA1999999101391MD1999999-0051REMSYN011 333 59005;
0134830960999991995071200004-10917-037050FM-12+000699999V0209999999999220001CN9999999N9+02491+02151101291ADDAA106000091AG10000GF104991041051012501001001KA1240M+02831MA1999999101221MD1999999-0091REMSYN017 333 10283 59009;EQDQ01+000002VOVAR 
0121830960999991995071212004-10917-037050FM-12+000699999V0209999999999220001CN0200001N1+02541+02001101661ADDAA124000591AG10000GF102991021051012501001001KA1240N+01681MA1999999101591MD1999999-0101REMSYN023 333 20168 59010 69944;
0134830960999991995071300004-10917-037050FM-12+000699999V0209999999999220001CN9999999N9+02521+02151101311ADDAA106000091AG10000GF101991011011012501001001KA1240M+02801MA1999999101241MD1999999+0021REMSYN017 333 10280 58002;EQDQ01+000002VOVAR 
0121830960999991995071312004-10917-037050FM-12+000699999V02099999999990120019N0200001N1+02541+02091101671ADDAA124003091AG10004GF106991061051012501001001KA1240N+01511MA1999999101601MD1999999+0011REMSYN023 333 20151 58001 60034;
0134830960999991995071400004-10917-037050FM-12+000699999V0209999999999220001CN9999999N9+02551+02171101351ADDAA106000091AG10000GF102991021011012501001001KA1240M+02751MA1999999101281MD1999999+0041REMSYN017 333 10275 58004;EQDQ01+000002VOVAR 
0102830960999991995071412004-10917-037050FM-12+000699999V0209999999999220001CN0200001N1+02661+02091101701ADDAA106000091AG10000GF101991011051012501001001MA1999999101631MD1999999+0031REMSYN017 333 20/// 58003;
0096830960999991995071418004-10917-037050FM-12+000699999V0209999999999012001CN0200001N1+02021+99999101391ADDAA106000091AG10000GF107991071051012501001001MA1999999101421MD1999999+0121REMSYN011 333 58012;
0162830960999991995071500004-10917-037050FM-12+000699999V0209999999999007501CN9999999N9+02511+02171101381ADDAA106002091AG10004AY161061AY261061GF108991081051008001999999KA1240M+02781MA1999999101311MD1999999+0031MW1601REMSYN023 333 10278 58003 60021;EQDQ01+000002VOVAR 
0096830960999991995071518004-10917-037050FM-12+000699999V0209999999999012001CN0200001N1+02651+02081101411ADDAA106000091AG10000GF106991061051012501001001MA1999999101341MD1999999-0081REMSYN011 333 59008;
0124830960999991995071612004-10917-037050FM-12+000699999V0209999999999007501CN0100001N1+02321+02251101721ADDAA124010091AG10004AY161061AY261061GF108991081071008001999999MA1999999101651MD1999999-0041MW1601REMSYN017 333 59004 60104;
0134830960999991995071700004-10917-037050FM-12+000699999V0201401N00051045001CN9999999N9+02241+01401101301ADDAA106000091AG10000GF105991011011008001051001KA1240M+03181MA1999999096252MD1999999-0111REMSYN017 333 10318 59011;EQDQ01+000002VOVAR 
0124830960999991995071718004-10917-037050FM-12+000699999V0209999999999007501CN0100001N1+02561+02161101411ADDAA106001091AG10004AY161061AY261061GF108991081051008001999999MA1999999101341MD1999999+0031MW1601REMSYN017 333 58003 60011;
0140830960999991995071800004-10917-037050FM-12+000699999V0209999999999007501CN9999999N9+02301+02091101281ADDAA106002091AG10000GF108991081071008001999999KA1240M+02741MA1999999101211MD1999999+0021REMSYN023 333 10274 58002 60021;EQDQ01+000002VOVAR 
0130830960999991995071812004-10917-037050FM-12+000699999V0209999999999007501CN0100001N1+02511+02251101581ADDAA124015091AG10004AY161061AY261061GF108991081051008001999999MA1999999101511MD1999999+0011MW1601REMSYN023 333 20/// 58001 60154;
0102830960999991995071818004-10917-037050FM-12+000699999V0209999999999220001CN0200001N1+02491+02031101371ADDAA106000591AG10000GF102991021021012501001001MA1999999101301MD1999999-0041REMSYN017 333 59004 69951;
0140830960999991995071900004-10917-037050FM-12+000699999V0209999999999012001CN9999999N9+02411+02051101311ADDAA106000591AG10000GF106991061051012501001001KA1240M+02481MA1999999101241MD1999999+0031REMSYN023 333 10248 58003 69941;EQDQ01+000002VOVAR 
0108830960999991995071912004-10917-037050FM-12+000699999V0209999999999220001CN0200001N1+02641+02121101761ADDAA124002091AG10000GF101991011051012501001001MA1999999101691MD1999999+0181REMSYN023 333 20/// 58018 60024;
0096830960999991995071918004-10917-037050FM-12+000699999V0209999999999220001CN0200001N1+02601+02031101421ADDAA106000091AG10000GF102991021051012501001001MA1999999101351MD1999999+0051REMSYN011 333 58005;
0108830960999991995072012004-10917-037050FM-12+000699999V0209999999999220001CN0200001N1+02581+02111101701ADDAA124006091AG10000GF102991021051012501001001MA1999999101631MD1999999-0061REMSYN023 333 20/// 59006 60064;
0102830960999991995072018004-10917-037050FM-12+000699999V0209999999999012001CN0200001N1+02611+02011101381ADDAA106000191AG10000GF105991051051012501001001MA1999999101311MD1999999-0041REMSYN017 333 59004 69921;
