0134832290999991995010100004-13017-038517FM-12+005199999V0201401N00151220001CN9999999N9+02581+02271101461ADDAA106000091AG10000GF101991011021008001001001KA1240M+03061MA1999999100861MD1999999-0231REMSYN017 333 10306 59023;EQDQ01+000002VOVAR 
0115832290999991995010112004-13017-038517FM-12+005199999V0201401N00151007501CN0100001N1+02901+02371101551ADDAA106000091AG10000GF105991051021008001001001KA1240N+02381MA1999999100951MD1999999+0031REMSYN017 333 20238 58003;
0115832290999991995010118004-13017-038517FM-12+005199999V0201401N00101220001CN0100001N1+02981+02311101301ADDAA106000091AG10000GF102991999021008001001001MA1999999100701MD1999999-0021REMSYN011 333 59002;EQDQ01+000032SCOTLC
0115832290999991995010212004-13017-038517FM-12+005199999V0201401N00151220001CN0100001N1+02791+02321101471ADDAA106000091AG10000GF102991021021008001001051KA1240N+02401MA1999999100871MD1999999-0081REMSYN017 333 20240 59008;
0096832290999991995010218004-13017-038517FM-12+005199999V0201401N00211220001CN0200001N1+02901+02321101251ADDAA106000091AG10000GF102991011021008001001051MA1999999100651MD1999999-0051REMSYN011 333 59005;
0134832290999991995010300004-13017-038517FM-12+005199999V0200501N00151220001CN9999999N9+02581+02271101301ADDAA106000091AG10000GF101991011011008001001001KA1240M+03041MA1999999100701MD1999999-0161REMSYN017 333 10304 59016;EQDQ01+000002VOVAR 
0143832290999991995010312004-13017-038517FM-12+005199999V0200501N00151007501CN0100001N1+02801+02381101391ADDAA124001091AG10003AY161061AY221061GF106991061051008001001001KA1240N+02401MA1999999100791MD1999999-0081MW1021REMSYN023 333 20240 59008 60014;
0096832290999991995010318004-13017-038517FM-12+005199999V0201401N00151220001CN0100001N1+02981+02301101201ADDAA106000091AG10000GF101991011011008001001001MA1999999100601MD1999999-0051REMSYN011 333 59005;
0134832290999991995010400004-13017-038517FM-12+005199999V0200501N00151220001CN9999999N9+02581+02331101251ADDAA106000091AG10000GF101991011011008001001001KA1240M+03041MA1999999100651MD1999999-0051REMSYN017 333 10304 59005;EQDQ01+000002VOVAR 
0115832290999991995010412004-13017-038517FM-12+005199999V0202301N00051220001CN0200001N1+02681+02351101431ADDAA106000091AG10000GF102991021031008001041001KA1240N+02491MA1999999100831MD1999999+0041REMSYN017 333 20249 58004;
0096832290999991995010418004-13017-038517FM-12+005199999V0201401N00211220001CN0200001N1+03001+02391101161ADDAA106000091AG10000GF102991011021008001001051MA1999999100561MD1999999-0041REMSYN011 333 59004;
0143832290999991995010512004-13017-038517FM-12+005199999V0202301N00101007501CN0100001N1+02681+02301101491ADDAA124008091AG10003AY161061AY221061GF106991061071008001001001KA1240N+02321MA1999999100891MD1999999+0061MW1021REMSYN023 333 20232 58006 60084;
0096832290999991995010518004-13017-038517FM-12+005199999V0201401N00151007501CN0100001N1+03021+02481101291ADDAA106000091AG10000GF105991051021008001001001MA1999999100691MD1999999+0131REMSYN011 333 58013;
0134832290999991995010600004-13017-038517FM-12+005199999V0200501N00101220001CN9999999N9+02561+02381101451ADDAA106000091AG10000GF101991011011008001001001KA1240M+03061MA1999999100851MD1999999+0111REMSYN017 333 10306 58011;EQDQ01+000002VOVAR 
0135832290999991995010612004-13017-038517FM-12+005199999V0201401N00151220001CN0200001N1+02801+02421101651ADDAA124000591AG10000AY151061GF102991021021008001041001KA1240N+02431MA1999999101051MD1999999+0161MW1011REMSYN023 333 20243 58016 69964;
0134832290999991995010700004-13017-038517FM-12+005199999V0200501N00101220001CN9999999N9+02501+02331101451ADDAA106000091AG10000GF101991999999008001999999KA1240M+03021MA1999999100851MD1999999+0001REMSYN017 333 10302 58000;EQDQ01+000002VOVAR 
0143832290999991995010712004-13017-038517FM-12+005199999V0203601N00101105001CN0100001N1+02651+02311101541ADDAA124002091AG10003AY161061AY221061GF107991041081008001001021KA1240N+02421MA1999999100941MD1999999-0091MW1021REMSYN023 333 20242 59009 60024;
0134832290999991995010800004-13017-038517FM-12+005199999V0201001N02211045001CN9999999N9+02581+02251101331ADDAA106000091AG10000GF105991021011008001031001KA1240M+02961MA1999999100731MD1999999-0121REMSYN017 333 10296 59012;EQDQ01+000002VOVAR 
0135832290999991995010812004-13017-038517FM-12+005199999V0203201N00151007501CN0040001N1+02581+02381101361ADDAA124002091AG10000AY151061GF106991051031008001041001KA1240N+02341MA1999999100761MD1999999-0181MW1031REMSYN023 333 20234 59018 60024;
0124832290999991995010818004-13017-038517FM-12+005199999V0200501N00211220001CN0100001N1+02861+02371101091ADDAA106005091AG10003AY161061AY251061GF104991021021008001041001MA1999999100491MD1999999-0051MW1031REMSYN017 333 59005 60051;
0134832290999991995010900004-13017-038517FM-12+005199999V0200901N00101220001CN9999999N9+02571+02211101271ADDAA106000091AG10000GF101991011011008001001001KA1240M+02901MA1999999100671MD1999999-0061REMSYN017 333 10290 59006;EQDQ01+000002VOVAR 
0121832290999991995010912004-13017-038517FM-12+005199999V0200501N00151220001CN0100001N1+02881+02321101411ADDAA124005091AG10000GF104991041021008001001001KA1240N+02361MA1999999100811MD1999999+0051REMSYN023 333 20236 58005 60054;
0134832290999991995011000004-13017-038517FM-12+005199999V0200501N00151220001CN9999999N9+02601+02311101251ADDAA106000091AG10000GF101991011011008001001001KA1240M+03081MA1999999100651MD1999999-0021REMSYN017 333 10308 59002;EQDQ01+000002VOVAR 
0115832290999991995011012004-13017-038517FM-12+005199999V0203201N00101220001CN0100001N1+02741+02241101531ADDAA106000091AG10000GF102991021021008001001001KA1240N+02421MA1999999100931MD1999999+0121REMSYN017 333 20242 58012;
0124832290999991995011018004-13017-038517FM-12+005199999V0200901N00361220001CN0200001N1+02981+02201101241ADDAA106000191AG10000AY151061AY201061GF101991001001999999001051MA1999999100641MD1999999+0141MW1021REMSYN017 333 58014 69921;
0134832290999991995011100004-13017-038517FM-12+005199999V0200501N00101220001CN9999999N9+02601+02271101431ADDAA106000091AG10000GF101991011011008001001001KA1240M+03061MA1999999100831MD1999999+0181REMSYN017 333 10306 58018;EQDQ01+000002VOVAR 
0115832290999991995011112004-13017-038517FM-12+005199999V0200501N00151007501CN0100001N1+02821+02281101561ADDAA106000091AG10000GF106991061021008001001001KA1240N+01361MA1999999100961MD1999999+0031REMSYN017 333 20136 58003;
0134832290999991995011200004-13017-038517FM-12+005199999V0200501N00151220001CN9999999N9+02561+02231101451ADDAA106000091AG10000GF101991011011008001001001KA1240M+03141MA1999999100851MD1999999+0021REMSYN017 333 10314 58002;EQDQ01+000002VOVAR 
0115832290999991995011212004-13017-038517FM-12+005199999V0201401N00151220001CN0200001N1+02901+02201101581ADDAA106000091AG10000GF101991011021008001001001KA1240N+02381MA1999999100981MD1999999+0021REMSYN017 333 20238 58002;
0096832290999991995011218004-13017-038517FM-12+005199999V0201401N00211220001CN0200001N1+02921+02191101371ADDAA106000091AG10000GF102991011021008001041001MA1999999100771MD1999999+0091REMSYN011 333 58009;
0115832290999991995011312004-13017-038517FM-12+005199999V0201401N00151007501CN0100001N1+02701+02341101551ADDAA106000091AG10000GF107991071051008001001001KA1240N+02421MA1999999100951MD1999999-0031REMSYN017 333 20242 59003;
0096832290999991995011318004-13017-038517FM-12+005199999V0201401N00151045001CN0100001N1+02941+02331101371ADDAA106000091AG10000GF107991041021008001051001MA1999999100771MD1999999+0001REMSYN011 333 58000;
0134832290999991995011400004-13017-038517FM-12+005199999V0200901N00151220001CN9999999N9+02561+02331101491ADDAA106000091AG10000GF103991031011008001001001KA1240M+03041MA1999999100891MD1999999+0011REMSYN017 333 10304 58001;EQDQ01+000002VOVAR 
0115832290999991995011412004-13017-038517FM-12+005199999V0201401N00151220001CN0100001N1+02881+02211101641ADDAA106000091AG10000GF102991021021008001041001KA1240N+02431MA1999999101041MD1999999+0091REMSYN017 333 20243 58009;
0096832290999991995011418004-13017-038517FM-12+005199999V0201401N00211220001CN0200001N1+02991+02151101431ADDAA106000091AG10000GF102991011021008001041031MA1999999100831MD1999999+0061REMSYN011 333 58006;
0115832290999991995011512004-13017-038517FM-12+005199999V0200501N00151220001CN0100001N1+02961+02261101741ADDAA106000091AG10000GF101991011021008001001001KA1240N+02441MA1999999101141MD1999999+0101REMSYN017 333 20244 58010;
0096832290999991995011518004-13017-038517FM-12+005199999V0200901N00101220001CN0100001N1+03081+02291101401ADDAA106000091AG10000GF101991011011008001001001MA1999999100801MD1999999-0031REMSYN011 333 59003;
0115832290999991995011612004-13017-038517FM-12+005199999V0201801N00151220001CN0100001N1+02751+02141101621ADDAA106000091AG10000GF102991021021008001001001KA1240N+02361MA1999999101021MD1999999-0121REMSYN017 333 20236 59012;
0096832290999991995011618004-13017-038517FM-12+005199999V0201401N00211220001CN0200001N1+03021+02181101361ADDAA106000091AG10000GF101991011011008001001001MA1999999100761MD1999999-0041REMSYN011 333 59004;
0134832290999991995011700004-13017-038517FM-12+005199999V0201401N00151220001CN9999999N9+02581+02191101341ADDAA106000091AG10000GF102991021011008001001001KA1240M+03121MA1999999100741MD1999999-0141REMSYN017 333 10312 59014;EQDQ01+000002VOVAR 
0115832290999991995011712004-13017-038517FM-12+005199999V0202301N00151007501CN0100001N1+02721+02301101591ADDAA106000091AG10000GF106991061051008001001001KA1240N+02401MA1999999100991MD1999999-0031REMSYN017 333 20240 59003;
0096832290999991995011718004-13017-038517FM-12+005199999V0200501N00151220001CN0100001N1+03121+02331101321ADDAA106000091AG10000GF101991011011008001001001MA1999999100721MD1999999-0041REMSYN011 333 59004;
0194832290999991995011800004-13017-038517FM-12+005199999V0209991C00001002401CN0100001N1+02921+02241101281ADDAA106001091AG10010AY191061AY291061GA1091+999999999GF109991091999999999999999KA1240M+03451MA1999999999999MD1999999-0171MW1031REMSYN023 333 10345 59017 60011;EQDQ01+098473APOSP Q02 098473APOSP 
0115832290999991995011812004-13017-038517FM-12+005199999V0200901N00151220001CN0100001N1+02941+02241101451ADDAA106000091AG10000GF102991021021008001001001KA1240N+02451MA1999999100851MD1999999-0141REMSYN017 333 20245 59014;
0096832290999991995011818004-13017-038517FM-12+005199999V0200501N00211220001CN0200001N1+03021+02211101171ADDAA106000091AG10000GF102991011011012501001051MA1999999100571MD1999999-0151REMSYN011 333 59015;
0134832290999991995011900004-13017-038517FM-12+005199999V0200501N00101220001CN9999999N9+02641+02371101281ADDAA106000091AG10000GF101991011011008001001001KA1240M+03181MA1999999100681MD1999999-0021REMSYN017 333 10318 59002;EQDQ01+000002VOVAR 
0137832290999991995011912004-13017-038517FM-12+005199999V0201401N00261045001CN0500001N1+02801+01921101611ADDAA106000091AG10000AY111061AY211061GF106991021021012501061011KA1240N+02101MA1999999100591MD1999999+0141MW1031REMSYN017 333 20210 58014;
0096832290999991995011918004-13017-038517FM-12+005199999V0201401N00151220001CN0100001N1+03121+02491101311ADDAA106000091AG10000GF102991021011008001001001MA1999999100711MD1999999+0141REMSYN011 333 58014;
0134832290999991995012000004-13017-038517FM-12+005199999V0200501N00151220001CN9999999N9+02611+02271101441ADDAA106000091AG10000GF101991011011008001001001KA1240M+03241MA1999999100841MD1999999+0061REMSYN017 333 10324 58006;EQDQ01+000002VOVAR 
0115832290999991995012012004-13017-038517FM-12+005199999V0201401N00151220001CN0100001N1+02881+02131101721ADDAA106000091AG10000GF102991021021008001001001KA1240N+02421MA1999999101121MD1999999+0161REMSYN017 333 20242 58016;
0096832290999991995012018004-13017-038517FM-12+005199999V0201401N00261220001CN0200001N1+03051+02131101421ADDAA106000091AG10000GF101991001001999999001051MA1999999100821MD1999999+0151REMSYN011 333 58015;
0134832290999991995012100004-13017-038517FM-12+005199999V0200501N00151220001CN9999999N9+02581+02231101411ADDAA106000091AG10000GF101991011011008001001001KA1240M+03181MA1999999100811MD1999999-0031REMSYN017 333 10318 59003;EQDQ01+000002VOVAR 
0134832290999991995012112004-13017-038517FM-12+005199999V0202301N00101007501CN0100001N1+02781+02251101591ADDAA106000091AG10000GF107991999071008001001001KA1240N+02381MA1999999100991MD1999999-0131REMSYN017 333 20238 59013;EQDQ01+000062SCOTLC
0096832290999991995012118004-13017-038517FM-12+005199999V0201401N00151220001CN0100001N1+03081+02231101191ADDAA106000091AG10000GF103991011011008001001021MA1999999100591MD1999999-0231REMSYN011 333 59023;
0115832290999991995012212004-13017-038517FM-12+005199999V0203201N00151220001CN0200001N1+02761+02191101251ADDAA106000091AG10000GF102991021021012501001001KA1240N+02441MA1999999100651MD1999999-0341REMSYN017 333 20244 59034;
0134832290999991995012300004-13017-038517FM-12+005199999V0200501N00151220001CN9999999N9+02641+02411100911ADDAA106000091AG10000GF101991011011008001001001KA1240M+03241MA1999999100311MD1999999-0181REMSYN017 333 10324 59018;EQDQ01+000002VOVAR 
0115832290999991995012312004-13017-038517FM-12+005199999V0200501N00101220001CN0040001N1+03081+02411101051ADDAA106000091AG10000GF101991011011008001001001KA1240N+02501MA1999999100451MD1999999-0201REMSYN017 333 20250 59020;
0096832290999991995012318004-13017-038517FM-12+005199999V0200501N00151220001CN0100001N1+03141+02541100771ADDAA106000091AG10000GF103991011011008001001011MA1999999100171MD1999999-0011REMSYN011 333 59001;
0096832290999991995012418004-13017-038517FM-12+005199999V0200501N00211220001CN0100001N1+03101+02341100961ADDAA106000091AG10000GF106991031001999999041061MA1999999100361MD1999999+0191REMSYN011 333 58019;
0134832290999991995012500004-13017-038517FM-12+005199999V0200501N00151220001CN9999999N9+02711+02341101311ADDAA106000091AG10000GF104991041051008001031001KA1240M+03201MA1999999100711MD1999999+0411REMSYN017 333 10320 58041;EQDQ01+000002VOVAR 
0096832290999991995012518004-13017-038517FM-12+005199999V0201401N00151105001CN0100001N1+03091+02281101131ADDAA106000091AG10000GF106991031031008001001021MA1999999100531MD1999999-0171REMSYN011 333 59017;
0134832290999991995012600004-13017-038517FM-12+005199999V0200501N00151220001CN9999999N9+02621+02251101441ADDAA106000091AG10000GF104991041081008001001001KA1240M+03201MA1999999100841MD1999999+0131REMSYN017 333 10320 58013;EQDQ01+000002VOVAR 
0115832290999991995012612004-13017-038517FM-12+005199999V0200501N00151220001CN0200001N1+02921+02241101521ADDAA106000091AG10000GF103991021021008001001061KA1240N+02381MA1999999100921MD1999999-0011REMSYN017 333 20238 59001;
0096832290999991995012618004-13017-038517FM-12+005199999V0201401N00211220001CN0200001N1+03001+02241101281ADDAA106000091AG10000GF102991001001999999001061MA1999999100681MD1999999+0151REMSYN011 333 58015;
0134832290999991995012700004-13017-038517FM-12+005199999V0200501N00151220001CN9999999N9+02601+02311101341ADDAA106000091AG10000GF102991021011008001001001KA1240M+03241MA1999999100741MD1999999-0101REMSYN017 333 10324 59010;EQDQ01+000002VOVAR 
0115832290999991995012712004-13017-038517FM-12+005199999V0201401N00151007501CN0100001N1+02881+02191101541ADDAA106000091AG10000GF106991061051008001001001KA1240N+02381MA1999999100941MD1999999+0021REMSYN017 333 20238 58002;
0096832290999991995012718004-13017-038517FM-12+005199999V0201401N00101220001CN0100001N1+03001+02431101301ADDAA106000091AG10000GF101991011011008001001001MA1999999100701MD1999999+0021REMSYN011 333 58002;
0134832290999991995012800004-13017-038517FM-12+005199999V0200501N00101220001CN9999999N9+02561+02171101341ADDAA106000091AG10000GF101991011011008001001001KA1240M+03181MA1999999100741MD1999999+0001REMSYN017 333 10318 58000;EQDQ01+000002VOVAR 
0115832290999991995012812004-13017-038517FM-12+005199999V0201401N00101220001CN0200001N1+02901+02071101471ADDAA106000091AG10000GF101991011021012501001001KA1240N+02401MA1999999100871MD1999999-0071REMSYN017 333 20240 59007;
0096832290999991995012818004-13017-038517FM-12+005199999V0201401N00261220001CN0200001N1+02981+02231101161ADDAA106000091AG10000GF101991011021012501001001MA1999999100561MD1999999-0141REMSYN011 333 59014;
0134832290999991995012900004-13017-038517FM-12+005199999V0200501N00151220001CN9999999N9+02561+02021101241ADDAA106000091AG10000GF101991011011008001001001KA1240M+03041MA1999999100641MD1999999-0101REMSYN017 333 10304 59010;EQDQ01+000002VOVAR 
0115832290999991995013012004-13017-038517FM-12+005199999V0200501N00211007501CN0100001N1+02951+02211101321ADDAA106000091AG10000GF105991051021008001001001KA1240N+02591MA1999999100721MD1999999-0011REMSYN017 333 20259 59001;
0115832290999991995013112004-13017-038517FM-12+005199999V0200501N00101007501CN0100001N1+02701+02391101241ADDAA106000091AG10000GF105991051051008001001001KA1240N+02501MA1999999100641MD1999999-0081REMSYN017 333 20250 59008;
0096832290999991995013118004-13017-038517FM-12+005199999V0200501N00101105001CN0100001N1+03081+02331101121ADDAA106000091AG10000GF107991041081008001001021MA1999999100521MD1999999-0131REMSYN011 333 59013;
0134832290999991995020100004-13017-038517FM-12+005199999V0200501N00101220001CN9999999N9+02501+02271101251ADDAA106000091AG10000GF101991011011008001001001KA1240M+03281MA1999999100651MD1999999+0031REMSYN017 333 10328 58003;EQDQ01+000002VOVAR 
0115832290999991995020112004-13017-038517FM-12+005199999V0200901N00151105001CN0100001N1+02951+02311101401ADDAA106000091AG10000GF105991021021008001041061KA1240N+02521MA1999999100801MD1999999+0161REMSYN017 333 20252 58016;
0115832290999991995020312004-13017-038517FM-12+005199999V0200501N00211220001CN0200001N1+02881+02371101511ADDAA106000091AG10000GF102991021021008001001061KA1240N+02581MA1999999100911MD1999999+0121REMSYN017 333 20258 58012;
0134832290999991995020400004-13017-038517FM-12+005199999V0200501N00151220001CN9999999N9+02601+02291101341ADDAA106000091AG10000GF101991011011008001001001KA1240M+03241MA1999999100741MD1999999+0041REMSYN017 333 10324 58004;EQDQ01+000002VOVAR 
0096832290999991995020418004-13017-038517FM-12+005199999V0201401N00151220001CN0200001N1+03001+02301101331ADDAA106000091AG10000GF101991011011008001001001MA1999999100731MD1999999+0011REMSYN011 333 58001;
0140832290999991995020512004-13017-038517FM-12+005199999V0201401N00151220001CN0100001N1+02921+02431101581ADDAA124002091AG10000GF103991999021008001001001KA1240N+02441MA1999999100981MD1999999+0131REMSYN023 333 20244 58013 60024;EQDQ01+000042SCOTLC
0096832290999991995020518004-13017-038517FM-12+005199999V0201401N00311220001CN0200001N1+03091+02291101211ADDAA106000091AG10000GF102991011021012501041001MA1999999100611MD1999999-0121REMSYN011 333 59012;
0134832290999991995020600004-13017-038517FM-12+005199999V0201401N00101220001CN9999999N9+02641+02391101531ADDAA106000091AG10000GF101991011011008001001001KA1240M+03161MA1999999100931MD1999999+0011REMSYN017 333 10316 58001;EQDQ01+000002VOVAR 
0115832290999991995020612004-13017-038517FM-12+005199999V0201801N00151045001CN0200001N1+02731+02281101611ADDAA106000091AG10000GF106991031021008001041051KA1240N+02471MA1999999101011MD1999999+0031REMSYN017 333 20247 58003;
0134832290999991995020700004-13017-038517FM-12+005199999V0201401N00151220001CN9999999N9+02641+02331101511ADDAA106000091AG10000GF101991011011008001001001KA1240M+03141MA1999999100911MD1999999-0021REMSYN017 333 10314 59002;EQDQ01+000002VOVAR 
0115832290999991995020712004-13017-038517FM-12+005199999V0203201N00151012001CN0100001N1+02701+02371101651ADDAA106000091AG10000GF107991071081008001001001KA1240N+02421MA1999999101051MD1999999+0041REMSYN017 333 20242 58004;
0112832290999991995020718004-13017-038517FM-12+005199999V0201801N00311220001CN0200001N1+03101+02311101361ADDAA106000091AG10000GA1001+999999999GF100991001001999999001001MA1999999100781MD1999999+0061REMSYN011 333 58006;
0150832290999991995020800004-13017-038517FM-12+005199999V0201401N00151220001CN9999999N9+02641+02331101451ADDAA106000091AG10000GA1001+999999999GF100991001001999999001001KA1240M+03141MA1999999100981MD1999999+0071REMSYN017 333 10314 58007;EQDQ01+000002VOVAR 
0115832290999991995020812004-13017-038517FM-12+005199999V0203601N00101220001CN0200001N1+02781+02361101651ADDAA106000091AG10000GF103991031031004501001001KA1240N+02491MA1999999101071MD1999999+0021REMSYN017 333 20249 58002;
0096832290999991995020818004-13017-038517FM-12+005199999V0201401N00261220001CN0200001N1+03001+02291101421ADDAA106000091AG10000GF101991001001999999001051MA1999999100821MD1999999+0041REMSYN011 333 58004;
0134832290999991995020900004-13017-038517FM-12+005199999V0200501N00151220001CN9999999N9+02651+02391101511ADDAA106000091AG10000GF101991011011008001001001KA1240M+03061MA1999999100911MD1999999-0071REMSYN017 333 10306 59007;EQDQ01+000002VOVAR 
0135832290999991995020912004-13017-038517FM-12+005199999V0200901N00051220001CN0200001N1+02681+02411101781ADDAA124001091AG10000AY151061GF104991031031008001001051KA1240N+02561MA1999999101181MD1999999+0111MW1031REMSYN023 333 20256 58011 69984;
0115832290999991995020918004-13017-038517FM-12+005199999V0201401N00151220001CN0200001N1+03181+02411101501ADDAA106000091AG10000GF102991999011008001001001MA1999999100901MD1999999+0081REMSYN011 333 58008;EQDQ01+000012SCOTLC
0134832290999991995021000004-13017-038517FM-12+005199999V0200501N00151220001CN9999999N9+02641+02391101511ADDAA106000091AG10000GF101991011011008001001001KA1240M+03221MA1999999100911MD1999999-0101REMSYN017 333 10322 59010;EQDQ01+000002VOVAR 
0115832290999991995021012004-13017-038517FM-12+005199999V0202701N00101220001CN0100001N1+02641+02421101651ADDAA106000091AG10000GF104991041021008001001001KA1240N+02481MA1999999101051MD1999999-0131REMSYN017 333 20248 59013;
0134832290999991995021100004-13017-038517FM-12+005199999V0200501N00101220001CN9999999N9+02661+02331101501ADDAA106000091AG10000GF101991011011008001001001KA1240M+03121MA1999999100901MD1999999-0011REMSYN017 333 10312 59001;EQDQ01+000002VOVAR 
0096832290999991995021118004-13017-038517FM-12+005199999V0201401N00151045001CN0200001N1+03081+02471101231ADDAA106000091AG10000GF105991021021008001041001MA1999999100651MD1999999-0031REMSYN011 333 59003;
0134832290999991995021200004-13017-038517FM-12+005199999V0200501N00101220001CN9999999N9+02661+02371101361ADDAA106000091AG10000GF102991021021008001001001KA1240M+03181MA1999999100761MD1999999-0141REMSYN017 333 10318 59014;EQDQ01+000002VOVAR 
0115832290999991995021212004-13017-038517FM-12+005199999V0203201N00101007501CN0100001N1+02761+02461101531ADDAA106000091AG10000GF106991061051008001001001KA1240N+02481MA1999999100931MD1999999-0011REMSYN017 333 20248 59001;
0150832290999991995021300004-13017-038517FM-12+005199999V0201401N00151220001CN9999999N9+02671+02411101311ADDAA106000091AG10000GA1001+999999999GF100991001001999999001001KA1240M+03221MA1999999100711MD1999999-0051REMSYN017 333 10322 59005;EQDQ01+000002VOVAR 
0134832290999991995021312004-13017-038517FM-12+005199999V0203601N00051004201CN0100001N1+02271+99999101451ADDAA106000091AG10000GF107991071041004501001001KA1240N+99999MA1999999100871MD1999999-0061REMSYN017 333 20249 59006;EQDQ01 +02492ATMN  
0096832290999991995021318004-13017-038517FM-12+005199999V0201401N00311220001CN0100001N1+03211+02381101161ADDAA106000091AG10000GF102991021001008001021001MA1999999100581MD1999999-0021REMSYN011 333 59002;
0150832290999991995021400004-13017-038517FM-12+005199999V0201401N00261220001CN9999999N9+02681+02331101301ADDAA106000091AG10000GA1001+999999999GF100991001001999999001001KA1240M+03251MA1999999100701MD1999999-0011REMSYN017 333 10325 59001;EQDQ01+000002VOVAR 
0115832290999991995021412004-13017-038517FM-12+005199999V0202701N00051004201CN0040001N1+02881+02271101401ADDAA106000091AG10000GF105991051041004501001001KA1240N+02451MA1999999100821MD1999999-0051REMSYN017 333 20245 59005;
0096832290999991995021418004-13017-038517FM-12+005199999V0200501N00151220001CN0100001N1+03141+02441101101ADDAA106000091AG10000GF102991011011008001001021MA1999999100501MD1999999-0081REMSYN011 333 59008;
0134832290999991995021500004-13017-038517FM-12+005199999V0203201N00151220001CN9999999N9+02641+02351101151ADDAA106000091AG10000GF103991011011008001001021KA1240M+03201MA1999999100551MD1999999-0131REMSYN017 333 10320 59013;EQDQ01+000002VOVAR 
0115832290999991995021512004-13017-038517FM-12+005199999V0200501N00151220001CN0100001N1+02781+02481101351ADDAA106000091AG10000GF103991021011008001051001KA1240N+02481MA1999999100751MD1999999-0071REMSYN017 333 20248 59007;
0134832290999991995021600004-13017-038517FM-12+005199999V0200501N00151220001CN9999999N9+02681+02391101041ADDAA106000091AG10000GF101991011011008001001001KA1240M+03281MA1999999100441MD1999999-0111REMSYN017 333 10328 59011;EQDQ01+000002VOVAR 
0115832290999991995021612004-13017-038517FM-12+005199999V0200501N00101220001CN0200001N1+02921+02321101341ADDAA106000091AG10000GF101991011011008001001001KA1240N+02521MA1999999100611MD1999999-0111REMSYN017 333 20252 59011;
0112832290999991995021618004-13017-038517FM-12+005199999V0200901N00311220001CN0200001N1+03221+02551100871ADDAA106000091AG10000GA1001+999999999GF100991001001999999001001MA1999999100291MD1999999-0191REMSYN011 333 59019;
0115832290999991995021700004-13017-038517FM-12+005199999V0201801N00151004201CN0040001N1+02781+02421101051ADDAA106000091AG10000GF106991061051004501001001KA1240N+02511MA1999999100471MD1999999-0171REMSYN017 333 20251 59017;
0115832290999991995021712004-13017-038517FM-12+005199999V0201801N00151004201CN0040001N1+02781+02421101051ADDAA106000091AG10000GF106991061051004501001001KA1240N+02511MA1999999100471MD1999999-0171REMSYN017 333 20251 59017;
0096832290999991995021718004-13017-038517FM-12+005199999V0201401N00151220001CN0200001N1+03161+02521100841ADDAA106000091AG10000GF102991011011008001001021MA1999999100241MD1999999-0051REMSYN011 333 59005;
0134832290999991995021800004-13017-038517FM-12+005199999V0200501N00101220001CN9999999N9+02721+02481101041ADDAA106000091AG10000GF101991011011008001001001KA1240M+03201MA1999999100441MD1999999+0201REMSYN017 333 10320 58020;EQDQ01+000002VOVAR 
0143832290999991995021812004-13017-038517FM-12+005199999V0200501N00151007501CN0020001N1+02621+02461101131ADDAA124006091AG10003AY161061AY221061GF108991081071008001999999KA1240N+02561MA1999999100531MD1999999+0061MW1611REMSYN023 333 20256 58006 60064;
0124832290999991995021818004-13017-038517FM-12+005199999V0200501N00151045001CN0100001N1+02921+02541101001ADDAA106003091AG10003AY161061AY221061GF107991021011008001051021MA1999999100401MD1999999+0161MW1021REMSYN017 333 58016 60031;
0134832290999991995021900004-13017-038517FM-12+005199999V0200501N00151220001CN9999999N9+02681+02281101061ADDAA106000091AG10000GF101991011011008001001001KA1240M+03171MA1999999100461MD1999999+0021REMSYN017 333 10317 58002;EQDQ01+000002VOVAR 
0115832290999991995021912004-13017-038517FM-12+005199999V0200501N00101007501CN0100001N1+02951+02361101131ADDAA106000091AG10000GF107991071051008001031001KA1240N+02501MA1999999100531MD1999999+0001REMSYN017 333 20250 58000;
0096832290999991995021918004-13017-038517FM-12+005199999V0201401N00151220001CN0200001N1+03101+02501100931ADDAA106000091AG10000GF102991011011008001001021MA1999999100331MD1999999-0071REMSYN011 333 59007;
0115832290999991995022012004-13017-038517FM-12+005199999V0202701N00151007501CN0100001N1+02821+02311101261ADDAA106000091AG10000GF106991061051008001001001KA1240N+02401MA1999999100661MD1999999+0131REMSYN017 333 20240 58013;
0096832290999991995022018004-13017-038517FM-12+005199999V0201401N00311220001CN0200001N1+03041+02091101131ADDAA106000091AG10000GF101991011021008001001001MA1999999100531MD1999999+0201REMSYN011 333 58020;
0150832290999991995022100004-13017-038517FM-12+005199999V0201401N00151220001CN9999999N9+02641+02351101151ADDAA106000091AG10000GA1001+999999999GF100991001001999999001001KA1240M+03211MA1999999100571MD1999999+0181REMSYN017 333 10321 58018;EQDQ01+000002VOVAR 
0134832290999991995022112004-13017-038517FM-12+005199999V0201401N00151007501CN0100001N1+02721+02381101431ADDAA106000091AG10000GF107991999051008001001001KA1240N+02481MA1999999100831MD1999999+0171REMSYN017 333 20248 58017;EQDQ01+000062SCOTLC
0096832290999991995022118004-13017-038517FM-12+005199999V0201401N00151220001CN0200001N1+02901+02431101191ADDAA106000091AG10000GF101991011021008001001001MA1999999100591MD1999999+0061REMSYN011 333 58006;
0162832290999991995022212004-13017-038517FM-12+005199999V0201801N001019999999N0020001N1+02681+02381101411ADDAA124003091AG10003AY161061AY221061GF105991999071008001999999KA1240N+02401MA1999999100811MD1999999-0021MW1611REMSYN023 333 20240 59002 60034;EQDQ01+000082SCOTLC
0124832290999991995022218004-13017-038517FM-12+005199999V0201801N00051009001CN0100001N1+02591+02401101211ADDAA106008091AG10003AY161061AY261061GF105991051081004501001001MA1999999100631MD1999999+0041MW1031REMSYN017 333 58004 60081;
0178832290999991995022300004-13017-038517FM-12+005199999V0201801N00051220001CN9999999N9+02541+02331101311ADDAA106004091AG10003AY161061AY261061GF102991001001999999001011KA1240M+03031MA1999999100731MD1999999-0011MW1031REMSYN023 333 10303 59001 60041;EQDQ01+000982SCOLCBQ02+000002VOVAR 
0143832290999991995022312004-13017-038517FM-12+005199999V0201801N00051004201CN0100001N1+02471+02431101321ADDAA124018091AG10003AY161061AY261061GF106991061051004501001001KA1240N+02421MA1999999100741MD1999999+0111MW1031REMSYN023 333 20242 58011 60184;
0124832290999991995022318004-13017-038517FM-12+005199999V0202301N00151220001CN0200001N1+02941+02361101131ADDAA106000591AG10000AY151061AY201061GF103991021021008001041061MA1999999100531MD1999999-0101MW1031REMSYN017 333 59010 69941;
0121832290999991995022412004-13017-038517FM-12+005199999V0201801N00151220001CN0200001N1+02871+02421101481ADDAA124000591AG10000GF103991021021008001001051KA1240N+02541MA1999999100881MD1999999+0141REMSYN023 333 20254 58014 69944;
0096832290999991995022418004-13017-038517FM-12+005199999V0201401N00151220001CN0100001N1+03081+02451101221ADDAA106000091AG10000GF102991011011008001001021MA1999999100621MD1999999+0091REMSYN011 333 58009;
0134832290999991995022500004-13017-038517FM-12+005199999V0201401N00151220001CN9999999N9+02641+02371101311ADDAA106000091AG10000GF103991031011008001001001KA1240M+03181MA1999999100711MD1999999+0111REMSYN017 333 10318 58011;EQDQ01+000002VOVAR 
0115832290999991995022512004-13017-038517FM-12+005199999V0201401N00151220001CN0100001N1+02921+02391101471ADDAA106000091AG10000GF105991031021008001001011KA1240N+02481MA1999999100871MD1999999-0011REMSYN017 333 20248 59001;
0150832290999991995022600004-13017-038517FM-12+005199999V0200901N00151220001CN9999999N9+02681+02311101381ADDAA106000091AG10000GA1001+999999999GF100991001001999999001001KA1240M+03131MA1999999100801MD1999999+0091REMSYN017 333 10313 58009;EQDQ01+000002VOVAR 
0134832290999991995022612004-13017-038517FM-12+005199999V0200901N00151220001CN0200001N1+03021+02391101491ADDAA106000091AG10000GF103991999031004501001001KA1240N+02481MA1999999100911MD1999999+0041REMSYN017 333 20248 58004;EQDQ01+000042SCOTLC
0096832290999991995022618004-13017-038517FM-12+005199999V0201401N00151105001CN0100001N1+02821+02421101331ADDAA106000091AG10000GF107991041051008001001021MA1999999100731MD1999999+0131REMSYN011 333 58013;
0150832290999991995022700004-13017-038517FM-12+005199999V0201401N00151220001CN9999999N9+02681+02331101451ADDAA106000091AG10000GF101991999011008001001001KA1240M+03101MA1999999100851MD1999999+0051REMSYN017 333 10310 58005;EQDQ01+000022SCOTLCQ02+000002VOVAR 
0135832290999991995022712004-13017-038517FM-12+005199999V0200201N02571105001CN0200001N1+02721+02381101581ADDAA124002091AG10000AY151061GF106991021031008001041061KA1240N+02361MA1999999100881MD1999999+0071MW1031REMSYN023 333 20236 58007 60024;
0096832290999991995022718004-13017-038517FM-12+005199999V0201401N00151105001CN0100001N1+03121+02501101291ADDAA106000091AG10000GF105991021021008001001031MA1999999100691MD1999999-0041REMSYN011 333 59004;
0134832290999991995022800004-13017-038517FM-12+005199999V0201401N00151220001CN9999999N9+02641+02371101431ADDAA106000091AG10000GF101991011011008001001001KA1240M+03201MA1999999100831MD1999999-0021REMSYN017 333 10320 59002;EQDQ01+000002VOVAR 
0115832290999991995022812004-13017-038517FM-12+005199999V0201401N00151220001CN0100001N1+02901+02321101451ADDAA106000091AG10000GF103991031021008001001001KA1240N+02501MA1999999100851MD1999999-0131REMSYN017 333 20250 59013;
0096832290999991995022818004-13017-038517FM-12+005199999V0201801N00261220001CN0200001N1+02961+01351101191ADDAA106000091AG10000GF101991011031008001001001MA1999999100591MD1999999-0101REMSYN011 333 59010;
0150832290999991995030100004-13017-038517FM-12+005199999V0200901N00151220001CN9999999N9+02711+02301101221ADDAA106000091AG10000GA1001+999999999GF100991001001999999001001KA1240M+03141MA1999999100641MD1999999-0191REMSYN017 333 10314 59019;EQDQ01+000002VOVAR 
0115832290999991995030112004-13017-038517FM-12+005199999V0200901N00151220001CN0200001N1+03001+02321101481ADDAA106000091AG10000GF102991021021004501001001KA1240N+02551MA1999999100901MD1999999+0151REMSYN017 333 20255 58015;
0096832290999991995030118004-13017-038517FM-12+005199999V0201401N00151220001CN0200001N1+03051+02231101351ADDAA106000091AG10000GF101991011021012501001001MA1999999100751MD1999999+0161REMSYN011 333 58016;
0115832290999991995030212004-13017-038517FM-12+005199999V0201401N00151220001CN0200001N1+03001+02341101531ADDAA106000091AG10000GF102991021021008001001001KA1240N+02581MA1999999100931MD1999999+0031REMSYN017 333 20258 58003;
0096832290999991995030218004-13017-038517FM-12+005199999V0200501N00101220001CN0100001N1+03151+02411101291ADDAA106000091AG10000GF102991021011008001001001MA1999999100691MD1999999-0061REMSYN011 333 59006;
0134832290999991995030300004-13017-038517FM-12+005199999V0200501N00151220001CN9999999N9+02701+02331101521ADDAA106000091AG10000GF101991011011008001001001KA1240M+03281MA1999999100921MD1999999+0051REMSYN017 333 10328 58005;EQDQ01+000002VOVAR 
0115832290999991995030312004-13017-038517FM-12+005199999V0201401N00101007501CN0100001N1+02901+02431101641ADDAA106000091AG10000GF105991051051008001001001KA1240N+02481MA1999999101041MD1999999+0111REMSYN017 333 20248 58011;
0096832290999991995030318004-13017-038517FM-12+005199999V0201401N00151220001CN0200001N1+03161+02521101341ADDAA106000091AG10000GF104991041011004501001001MA1999999100761MD1999999+0071REMSYN011 333 58007;
0150832290999991995030400004-13017-038517FM-12+005199999V0201401N00151220001CN9999999N9+02701+02301101381ADDAA106000091AG10000GA1001+999999999GF100991001001999999001001KA1240M+03261MA1999999100801MD1999999-0121REMSYN017 333 10326 59012;EQDQ01+000002VOVAR 
0115832290999991995030412004-13017-038517FM-12+005199999V0202701N00151105001CN0100001N1+02921+02341101521ADDAA106000091AG10000GF107991041051008001001021KA1240N+02481MA1999999100921MD1999999-0121REMSYN017 333 20248 59012;
0096832290999991995030418004-13017-038517FM-12+005199999V0200901N00311220001CN0200001N1+03181+02251101101ADDAA106000091AG10000GF102991011021008001041001MA1999999100601MD1999999-0161REMSYN011 333 59016;
0134832290999991995030500004-13017-038517FM-12+005199999V0201401N00151220001CN9999999N9+02681+02371101341ADDAA106000091AG10000GF102991021011008001001001KA1240M+03281MA1999999100741MD1999999-0061REMSYN017 333 10328 59006;EQDQ01+000002VOVAR 
0115832290999991995030512004-13017-038517FM-12+005199999V0200501N00211220001CN0200001N1+03031+02041101511ADDAA106000091AG10000GF102991011021008001001051KA1240N+02561MA1999999100911MD1999999-0011REMSYN017 333 20256 59001;
0096832290999991995030518004-13017-038517FM-12+005199999V0200501N00101105001CN0200001N1+03161+02431101271ADDAA106000091AG10000GF105991021011008001001021MA1999999100671MD1999999+0071REMSYN011 333 58007;
0134832290999991995030600004-13017-038517FM-12+005199999V0200501N00151220001CN9999999N9+02681+02391101331ADDAA106000091AG10000GF102991021021008001001001KA1240M+03261MA1999999100731MD1999999-0011REMSYN017 333 10326 59001;EQDQ01+000002VOVAR 
0115832290999991995030612004-13017-038517FM-12+005199999V0202301N00151007501CN0100001N1+02741+02581101491ADDAA106000091AG10000GF107991071051008001001001KA1240N+02581MA1999999100891MD1999999-0021REMSYN017 333 20258 59002;
0096832290999991995030618004-13017-038517FM-12+005199999V0200901N00151045001CN0100001N1+03021+02361101141ADDAA106000091AG10000GF106991041041012501041001MA1999999100561MD1999999-0111REMSYN011 333 59011;
0134832290999991995030700004-13017-038517FM-12+005199999V0201401N00151220001CN9999999N9+02691+02391101291ADDAA106000091AG10000GF103991999999022501999999KA1240M+03071MA1999999100711MD1999999-0021REMSYN017 333 10307 59002;EQDQ01+000002VOVAR 
0115832290999991995030712004-13017-038517FM-12+005199999V0200901N00151220001CN0200001N1+03071+02211101311ADDAA106000091AG10000GF102991021031004501001001KA1240N+02501MA1999999100731MD1999999-0161REMSYN017 333 20250 59016;
0096832290999991995030718004-13017-038517FM-12+005199999V0201401N00211045001CN0200001N1+02981+02331101211ADDAA106000091AG10000GF105991031081008001041051MA1999999100611MD1999999+0051REMSYN011 333 58005;
0134832290999991995030800004-13017-038517FM-12+005199999V0200901N00151220001CN9999999N9+02681+02201101251ADDAA106000091AG10000GF102991021011008001001001KA1240M+03261MA1999999100651MD1999999-0061REMSYN017 333 10326 59006;EQDQ01+000002VOVAR 
0135832290999991995030812004-13017-038517FM-12+005199999V0201401N00101220001CN0200001N1+02711+02241101431ADDAA124000191AG10000AY111061GF102991021031008001041001KA1240N+02521MA1999999100831MD1999999+0101MW1021REMSYN023 333 20252 58010 69924;
0096832290999991995030818004-13017-038517FM-12+005199999V0201401N00101220001CN0200001N1+03001+02361101191ADDAA106000091AG10000GF102991021011008001001001MA1999999100591MD1999999-0021REMSYN011 333 59002;
0134832290999991995030900004-13017-038517FM-12+005199999V0201401N00151220001CN9999999N9+02601+02371101211ADDAA106000091AG10000GF104991011011008001051001KA1240M+03141MA1999999100611MD1999999-0041REMSYN017 333 10314 59004;EQDQ01+000002VOVAR 
0143832290999991995030912004-13017-038517FM-12+005199999V0203601N00151007501CN0040001N1+02421+02351101571ADDAA124010091AG10008AY191061AY261061GF108991081071008001999999KA1240N+02301MA1999999100971MD1999999+0141MW1021REMSYN023 333 20230 58014 60104;
0124832290999991995030918004-13017-038517FM-12+005199999V0201801N00151007501CN0100001N1+02811+02311101221ADDAA106000191AG10003AY161061AY221061GF107991071061008001001001MA1999999100641MD1999999-0061MW1031REMSYN017 333 59006 69911;
0150832290999991995031000004-13017-038517FM-12+005199999V0200901N00151220001CN9999999N9+02561+02361101411ADDAA106000091AG10000GA1001+999999999GF100991001001999999001001KA1240M+02961MA1999999100831MD1999999+0221REMSYN017 333 10296 58022;EQDQ01+000002VOVAR 
0162832290999991995031012004-13017-038517FM-12+005199999V0201801N00151220001CN0200001N1+02821+02331101621ADDAA124001091AG10003AY161061AY221061GF103991001001999999001011KA1240N+02321MA1999999101041MD1999999+0071MW1031REMSYN023 333 20232 58007 69984;EQDQ01+000972SCOLCB
0134832290999991995031100004-13017-038517FM-12+005199999V0201401N00151220001CN9999999N9+02621+02421101541ADDAA106000091AG10000GF103991031021008001001001KA1240M+03121MA1999999100941MD1999999+0111REMSYN017 333 10312 58011;EQDQ01+000002VOVAR 
0121832290999991995031112004-13017-038517FM-12+005199999V0201401N00211220001CN0200001N1+02921+02341101651ADDAA124001091AG10000GF103991011021008001041051KA1240N+02561MA1999999101051MD1999999+0011REMSYN023 333 20256 58001 60014;
0096832290999991995031118004-13017-038517FM-12+005199999V0201401N00151045001CN0200001N1+02881+02371101321ADDAA106000091AG10000GF107991011021008001051001MA1999999100721MD1999999-0131REMSYN011 333 59013;
0143832290999991995031212004-13017-038517FM-12+005199999V0202701N00151220001CN0100001N1+02621+02461101411ADDAA124017091AG10003AY161061AY221061GF107991041021008001001011KA1240N+02381MA1999999100811MD1999999-0241MW1021REMSYN023 333 20238 59024 60174;
0096832290999991995031218004-13017-038517FM-12+005199999V0201801N00311045001CN0040001N1+02821+02401101061ADDAA106000091AG10000GF106991021041017501061011MA1999999100461MD1999999-0261REMSYN011 333 59026;
0162832290999991995031312004-13017-038517FM-12+005199999V0200901N00101007501CN0100001N1+02821+02501101171ADDAA124011091AG10003AY161061AY221061GF108991999051008001001001KA1240N+02281MA1999999100571MD1999999-0241MW1021REMSYN023 333 20228 59024 60114;EQDQ01+000072SCOTLC
0096832290999991995031318004-13017-038517FM-12+005199999V0201401N00261220001CN0200001N1+03021+02131100851ADDAA106000091AG10000GF102991011021008001041001MA1999999100251MD1999999-0211REMSYN011 333 59021;
0134832290999991995031400004-13017-038517FM-12+005199999V0200501N00101220001CN9999999N9+02581+02331101051ADDAA106000091AG10000GF102991021011008001001001KA1240M+03101MA1999999100451MD1999999-0081REMSYN017 333 10310 59008;EQDQ01+000002VOVAR 
0115832290999991995031412004-13017-038517FM-12+005199999V0200501N00151220001CN0200001N1+02891+02251101091ADDAA106000091AG10000GF102991011021012501001051KA1240N+02491MA1999999100491MD1999999-0081REMSYN017 333 20249 59008;
0096832290999991995031418004-13017-038517FM-12+005199999V0200901N00261045001CN0100001N1+03041+02431100761ADDAA106000091AG10000GF105991021021008001031001MA1999999100161MD1999999-0091REMSYN011 333 59009;
0134832290999991995031500004-13017-038517FM-12+005199999V0200501N00151045001CN9999999N9+02681+02351101051ADDAA106000091AG10000GF107991041081008001031001KA1240M+03171MA1999999100451MD1999999+0001REMSYN017 333 10317 58000;EQDQ01+000002VOVAR 
0115832290999991995031512004-13017-038517FM-12+005199999V0200501N00151045001CN0100001N1+02861+02391101251ADDAA106000091AG10000GF107991041021008001031001KA1240N+02541MA1999999100651MD1999999+0161REMSYN017 333 20254 58016;
0150832290999991995031600004-13017-038517FM-12+005199999V0200901N00311220001CN9999999N9+02681+02331101151ADDAA106000091AG10000GF104991001001999999001011KA1240M+03001MA1999999100551MD1999999+0101REMSYN017 333 10300 58010;EQDQ01+000982SCOLCBQ02+000002VOVAR 
0121832290999991995031612004-13017-038517FM-12+005199999V0200901N00151220001CN0200001N1+02881+02391101441ADDAA124022091AG10000GF103991021021008001021001KA1240N+02501MA1999999100841MD1999999+0191REMSYN023 333 20250 58019 60224;
0096832290999991995031618004-13017-038517FM-12+005199999V0201401N00211220001CN0200001N1+03041+02381101101ADDAA106000091AG10000GF102991011001999999041061MA1999999100501MD1999999+0151REMSYN011 333 58015;
0115832290999991995031712004-13017-038517FM-12+005199999V0201401N00051220001CN0100001N1+02941+02401101401ADDAA106000091AG10000GF102991021021008001001001KA1240N+02561MA1999999100801MD1999999-0041REMSYN017 333 20256 59004;
0115832290999991995031718004-13017-038517FM-12+005199999V0201401N00151220001CN0100001N1+03041+02401101141ADDAA106000091AG10000GF101991999011008001001001MA1999999100541MD1999999+0041REMSYN011 333 58004;EQDQ01+000022SCOTLC
0115832290999991995031812004-13017-038517FM-12+005199999V0201401N00101220001CN0100001N1+02981+02351101401ADDAA106000091AG10000GF104991041021008001001001KA1240N+02581MA1999999100801MD1999999+0001REMSYN017 333 20258 58000;
0096832290999991995031818004-13017-038517FM-12+005199999V0201401N00151105001CN0100001N1+02821+02351101331ADDAA106000091AG10000GF107991031051008001001081MA1999999100731MD1999999-0191REMSYN011 333 59019;
0115832290999991995031912004-13017-038517FM-12+005199999V0200501N00151220001CN0100001N1+02901+02541101521ADDAA106000091AG10000GF102991021021008001001001KA1240N+02581MA1999999100921MD1999999+0121REMSYN017 333 20258 58012;
0096832290999991995031918004-13017-038517FM-12+005199999V0201401N00211220001CN0200001N1+02921+02321101281ADDAA106000091AG10000GF102991011021008001001051MA1999999100681MD1999999-0051REMSYN011 333 59005;
0134832290999991995032000004-13017-038517FM-12+005199999V0201401N00101220001CN9999999N9+02681+02461101551ADDAA106000091AG10000GF101991011011008001001001KA1240M+03241MA1999999100951MD1999999+0101REMSYN017 333 10324 58010;EQDQ01+000002VOVAR 
0143832290999991995032012004-13017-038517FM-12+005199999V0201401N00101220001CN0100001N1+02731+02471101611ADDAA124010091AG10003AY161061AY251061GF102991021031008001041001KA1240N+02341MA1999999101011MD1999999+0091MW1031REMSYN023 333 20234 58009 60104;
0124832290999991995032018004-13017-038517FM-12+005199999V0201401N00151220001CN0200001N1+02861+02441101371ADDAA106001091AG10000AY151061AY201061GF102991021021008001041001MA1999999100771MD1999999+0091MW1031REMSYN017 333 58009 69981;
0134832290999991995032100004-13017-038517FM-12+005199999V0201401N00151220001CN9999999N9+02761+02361101461ADDAA106000091AG10000GF102991021011008001001001KA1240M+03081MA1999999100861MD1999999-0091REMSYN017 333 10308 59009;EQDQ01+000002VOVAR 
0140832290999991995032112004-13017-038517FM-12+005199999V0201401N00101220001CN0200001N1+02881+02401101491ADDAA124002091AG10000GF103991999021008001001001KA1240N+02301MA1999999100891MD1999999-0121REMSYN023 333 20230 59012 60024;EQDQ01+000022SCOTLC
0096832290999991995032118004-13017-038517FM-12+005199999V0201401N00151220001CN0200001N1+02901+02451101221ADDAA106000091AG10000GF101991011011008001001001MA1999999100621MD1999999-0151REMSYN011 333 59015;
0150832290999991995032200004-13017-038517FM-12+005199999V0200901N00151220001CN9999999N9+02621+02281101301ADDAA106000091AG10000GA1001+999999999GF100991001001999999001001KA1240M+03041MA1999999100721MD1999999-0141REMSYN017 333 10304 59014;EQDQ01+000002VOVAR 
0115832290999991995032212004-13017-038517FM-12+005199999V0202301N00151004201CN0100001N1+02881+02411101251ADDAA106000091AG10000GF106991061051004501001001KA1240N+02511MA1999999100651MD1999999-0171REMSYN017 333 20251 59017;
0096832290999991995032218004-13017-038517FM-12+005199999V0201401N00151220001CN0200001N1+02921+02341100901ADDAA106000091AG10000GF102991011021008001041001MA1999999100301MD1999999-0321REMSYN011 333 59032;
0134832290999991995032300004-13017-038517FM-12+005199999V0200901N00151220001CN9999999N9+02681+02331100951ADDAA106000091AG10000GF101991011011008001001001KA1240M+03021MA1999999100351MD1999999-0371REMSYN017 333 10302 59037;EQDQ01+000002VOVAR 
0115832290999991995032312004-13017-038517FM-12+005199999V0203201N00101220001CN0100001N1+02801+02401101221ADDAA106000091AG10000GF103991021021008001001051KA1240N+02561MA1999999100621MD1999999-0031REMSYN017 333 20256 59003;
0096832290999991995032318004-13017-038517FM-12+005199999V0201401N00101220001CN0200001N1+03081+02441100691ADDAA106000091AG10000GF102991021021008001001001MA1999999100101MD1999999-0201REMSYN011 333 59020;
0150832290999991995032400004-13017-038517FM-12+005199999V0200501N00101220001CN9999999N9+02701+02421100901ADDAA106000091AG10000GF102991021011008001001001KA1240M+03131MA1999999100311MD1999999-0041REMSYN017 333 10313 59004;EQDQ01+999990APOSLPQ02+000002VOVAR 
0115832290999991995032412004-13017-038517FM-12+005199999V0202701N00101007501CN0040001N1+02841+02521101071ADDAA106000091AG10000GF108991081051008001001001KA1240N+02581MA1999999100471MD1999999-0151REMSYN017 333 20258 59015;
0096832290999991995032418004-13017-038517FM-12+005199999V0200901N00151220001CN0040001N1+03021+02591100611ADDAA106000091AG10000GF103991021021004501031001MA1999999100031MD1999999-0071REMSYN011 333 59007;
0150832290999991995032500004-13017-038517FM-12+005199999V0200901N00261220001CN9999999N9+02751+02521100791ADDAA106000091AG10000GA1001+999999999GF100991001001999999001001KA1240M+03041MA1999999100211MD1999999-0101REMSYN017 333 10304 59010;EQDQ01+000002VOVAR 
0115832290999991995032512004-13017-038517FM-12+005199999V0200501N00151004201CN0040001N1+02871+02501101131ADDAA106000091AG10000GF108991081071004501999999KA1240N+02631MA1999999100551MD1999999+0081REMSYN017 333 20263 58008;
0096832290999991995032518004-13017-038517FM-12+005199999V0200501N00151045001CN0100001N1+02941+02431100851ADDAA106000091AG10000GF107991021021008001011061MA1999999100251MD1999999+0221REMSYN011 333 58022;
0115832290999991995032612004-13017-038517FM-12+005199999V0200501N00151045001CN0040001N1+02801+02361101191ADDAA106000091AG10000GF107991021021012501011001KA1240N+02621MA1999999100591MD1999999+0041REMSYN017 333 20262 58004;
0096832290999991995032618004-13017-038517FM-12+005199999V0201401N00151012001CN0100001N1+02901+02501100891ADDAA106000091AG10000GF108991081081008001001001MA1999999100291MD1999999+0091REMSYN011 333 58009;
0143832290999991995032712004-13017-038517FM-12+005199999V0203601N00101007501CN0020001N1+02561+02421101321ADDAA124006091AG10003AY161061AY221061GF108991081071008001999999KA1240N+02481MA1999999100721MD1999999+0131MW1611REMSYN023 333 20248 58013 60064;
0096832290999991995032718004-13017-038517FM-12+005199999V0200901N00051007501CN0040001N1+02701+02481100911ADDAA106000091AG10000GF107991051051008001031001MA1999999100331MD1999999+0041REMSYN011 333 58004;
0115832290999991995032812004-13017-038517FM-12+005199999V0201801N00151007501CN0040001N1+02781+02361101171ADDAA106000091AG10000GF107991071051008001001001KA1240N+02421MA1999999100571MD1999999-0151REMSYN017 333 20242 59015;
0175832290999991995032818004-13017-038517FM-12+005199999V0209991C000010075019N9999999N9+02441+02271100791ADDAA106003091AG10003AY161061AY221061GF107991999041008001001001MA1999999100191MD1999999+0151MW1031REMSYN017 333 58015 60031;EQDQ01+000062SCOTLCQ02+999990APOSP Q03+000002VOVAR 
0134832290999991995032900004-13017-038517FM-12+005199999V0201401N00151012001CN9999999N9+02661+02501100251ADDAA106000091AG10000GF107991071081008001001001KA1240M+02941MA1999999100651MD1999999+0091REMSYN017 333 10294 58009;EQDQ01+000002VOVAR 
0143832290999991995032912004-13017-038517FM-12+005199999V0200501N00101045001CN0040001N1+02681+02371101401ADDAA124002091AG10003AY161061AY251061GF107991041081008001021001KA1240N+02441MA1999999100801MD1999999+0231MW1031REMSYN023 333 20244 58023 60024;
0096832290999991995032918004-13017-038517FM-12+005199999V0200901N00211220001CN0200001N1+03021+02441101021ADDAA106000091AG10000GF102991021001008001031001MA1999999100441MD1999999+0061REMSYN011 333 58006;
0162832290999991995033000004-13017-038517FM-12+005199999V0200901N00151220001CN9999999N9+02561+02401101201ADDAA106000591AG10000AY121061AY221061GF102991021051004501001001KA1240M+03051MA1999999100621MD1999999-0031MW1581REMSYN023 333 10305 59003 69961;EQDQ01+000002VOVAR 
0121832290999991995033012004-13017-038517FM-12+005199999V0202301N00151007501CN0040001N1+02861+02521101341ADDAA124000591AG10000GF107991071051008001001001KA1240N+02521MA1999999100741MD1999999-0061REMSYN023 333 20252 59006 69964;
0096832290999991995033018004-13017-038517FM-12+005199999V0200901N00151220001CN0200001N1+03021+02411100961ADDAA106000091AG10000GF102991011021008001021001MA1999999100381MD1999999-0061REMSYN011 333 59006;
0134832290999991995033100004-13017-038517FM-12+005199999V0200901N00151220001CN9999999N9+02701+02371101091ADDAA106000091AG10000GF103991031011008001001001KA1240M+03051MA1999999100491MD1999999-0131REMSYN017 333 10305 59013;EQDQ01+000002VOVAR 
0115832290999991995033112004-13017-038517FM-12+005199999V0202301N00151007501CN0100001N1+02841+02481101271ADDAA106000091AG10000GF107991071051008001001001KA1240N+02521MA1999999100671MD1999999-0071REMSYN017 333 20252 59007;
0096832290999991995033118004-13017-038517FM-12+005199999V0201401N00211220001CN0200001N1+03051+02411100931ADDAA106000091AG10000GF102991011021012501001051MA1999999100331MD1999999-0051REMSYN011 333 59005;
0150832290999991995040100004-13017-038517FM-12+005199999V0200901N00151220001CN9999999N9+02751+02401101111ADDAA106000091AG10000GF103991999011008001001001KA1240M+03101MA1999999100511MD1999999+0021REMSYN017 333 10310 58002;EQDQ01+000042SCOTLCQ02+000002VOVAR 
0115832290999991995040112004-13017-038517FM-12+005199999V0200501N00151007501CN0100001N1+02981+02441101251ADDAA106000091AG10000GF107991071051008001001001KA1240N+02561MA1999999100651MD1999999-0021REMSYN017 333 20256 59002;
0096832290999991995040118004-13017-038517FM-12+005199999V0200501N00101220001CN0100001N1+03101+02601100951ADDAA106000091AG10000GF103991031011008001001001MA1999999100351MD1999999+0021REMSYN011 333 58002;
0134832290999991995040200004-13017-038517FM-12+005199999V0200501N00101220001CN9999999N9+02721+02431101141ADDAA106000091AG10000GF102991021011008001001001KA1240M+03201MA1999999100541MD1999999+0031REMSYN017 333 10320 58003;EQDQ01+000002VOVAR 
0115832290999991995040212004-13017-038517FM-12+005199999V0203201N00101007501CN0100001N1+02821+02461101311ADDAA106000091AG10000GF107991071051008001001001KA1240N+02561MA1999999100711MD1999999+0061REMSYN017 333 20256 58006;
0096832290999991995040218004-13017-038517FM-12+005199999V0200501N00261220001CN0200001N1+03121+02361100991ADDAA106000091AG10000GF101991011001017501031001MA1999999100391MD1999999+0041REMSYN011 333 58004;
0134832290999991995040300004-13017-038517FM-12+005199999V0200501N00151220001CN9999999N9+02721+02501101151ADDAA106000091AG10000GF101991011011008001001001KA1240M+03221MA1999999100551MD1999999+0011REMSYN017 333 10322 58001;EQDQ01+000002VOVAR 
0115832290999991995040312004-13017-038517FM-12+005199999V0203201N00151220001CN0040001N1+02821+02421101251ADDAA106000091AG10000GF104991041051008001001001KA1240N+02491MA1999999100651MD1999999-0061REMSYN017 333 20249 59006;
0143832290999991995040412004-13017-038517FM-12+005199999V0203201N00151007501CN0100001N1+02981+02251101311ADDAA124006091AG10002AY161061AY221061GF107991071051008001001001KA1240N+02411MA1999999100711MD1999999+0061MW1021REMSYN023 333 20241 58006 60064;
0096832290999991995040418004-13017-038517FM-12+005199999V0201401N00261045001CN0200001N1+02981+02441101021ADDAA106000091AG10000GF106991021021008001031001MA1999999100421MD1999999+0071REMSYN011 333 58007;
0134832290999991995040500004-13017-038517FM-12+005199999V0200901N00151220001CN9999999N9+02711+02421101261ADDAA106000091AG10000GF103991031051008001001001KA1240M+03121MA1999999100661MD1999999+0061REMSYN017 333 10312 58006;EQDQ01+000002VOVAR 
0115832290999991995040512004-13017-038517FM-12+005199999V0201401N00211220001CN0200001N1+02901+02311101381ADDAA106000091AG10000GF103991021021008001041001KA1240N+02611MA1999999100781MD1999999+0071REMSYN017 333 20261 58007;
0124832290999991995040518004-13017-038517FM-12+005199999V0201401N00151220001CN0100001N1+02701+02431101121ADDAA106000391AG10000AY121061AY221061GF104991021051004501021011MA1999999100531MD1999999+0121MW1581REMSYN017 333 58012 69931;
0134832290999991995040600004-13017-038517FM-12+005199999V0200901N00151007501CN9999999N9+02601+02121101361ADDAA106000091AG10000GF107991071051008001001001KA1240M+03061MA1999999100761MD1999999+0101REMSYN017 333 10306 58010;EQDQ01+000002VOVAR 
0143832290999991995040612004-13017-038517FM-12+005199999V0203201N00261220001CN0200001N1+02611+02391101461ADDAA124010091AG10002AY161061AY221061GF104991011021008001051001KA1240N+02311MA1999999100861MD1999999+0191MW1031REMSYN023 333 20231 58019 60104;
0153832290999991995040618004-13017-038517FM-12+005199999V0200501N00051004201CN0040001N1+02601+02501101291ADDAA106015091AG10002AY161061AY261061GF108991999071004501001001MA1999999100691MD1999999+0161REMSYN017 333 58016 60151;EQDQ01+000072SCOTLCQ02+000692PRSWM1
0134832290999991995040700004-13017-038517FM-12+005199999V0201401N00151220001CN9999999N9+02621+02251101441ADDAA106000091AG10000GF101991011021008001001001KA1240M+02861MA1999999100841MD1999999+0081REMSYN017 333 10286 58008;EQDQ01+000002VOVAR 
0162832290999991995040712004-13017-038517FM-12+005199999V0201801N00151220001CN0200001N1+02831+02291101451ADDAA124015091AG10000AY151061AY221061GF103991999031004501001001KA1240N+02451MA1999999100851MD1999999-0011MW1031REMSYN023 333 20245 59001 60154;EQDQ01+000022SCOTLC
0096832290999991995040718004-13017-038517FM-12+005199999V0201401N00151220001CN0200001N1+02821+02381101131ADDAA106000091AG10000GF103991031021008001001001MA1999999100531MD1999999-0161REMSYN011 333 59016;
0134832290999991995040800004-13017-038517FM-12+005199999V0201401N00101220001CN9999999N9+02621+02331101391ADDAA106000091AG10000GF104991041051008001001001KA1240M+02911MA1999999100791MD1999999-0051REMSYN017 333 10291 59005;EQDQ01+000002VOVAR 
0143832290999991995040812004-13017-038517FM-12+005199999V0202301N00101007501CN0040001N1+02581+02321101311ADDAA124012091AG10002AY161061AY221061GF108991081071008001999999KA1240N+02441MA1999999100711MD1999999-0141MW1021REMSYN023 333 20244 59014 60124;
0096832290999991995040818004-13017-038517FM-12+005199999V0201401N00101045001CN0100001N1+02601+02391101061ADDAA106000091AG10000GF108991031071008001021999MA1999999100461MD1999999-0071REMSYN011 333 59007;
0150832290999991995040900004-13017-038517FM-12+005199999V0201401N00151007501CN9999999N9+02581+02331101091ADDAA106000091AG10002GF107991999071008001001001KA1240M+03041MA1999999100491MD1999999-0401REMSYN017 333 10304 59040;EQDQ01+000062SCOTLCQ02+000002VOVAR 
0115832290999991995040912004-13017-038517FM-12+005199999V0202301N00151045001CN0040001N1+02621+02371101311ADDAA106000091AG10000GF107991041031008001011051KA1240N+02481MA1999999100711MD1999999+0001REMSYN017 333 20248 58000;
0096832290999991995040918004-13017-038517FM-12+005199999V0201801N00151220001CN0100001N1+02791+02421100951ADDAA106000091AG10000GF103991011031008001031021MA1999999100351MD1999999-0111REMSYN011 333 59011;
0162832290999991995041000004-13017-038517FM-12+005199999V0201401N00261007501CN9999999N9+02481+02271101141ADDAA106001091AG10000AY151061AY221061GF107991071051008001001001KA1240M+02861MA1999999100551MD1999999+0061MW1631REMSYN023 333 10286 58006 60011;EQDQ01+000002VOVAR 
0143832290999991995041012004-13017-038517FM-12+005199999V0200501N00101004201CN0040001N1+02341+02311101341ADDAA124022091AG10007AY191061AY221061GF108991081071004501999999KA1240N+02251MA1999999100641MD1999999-0071MW1811REMSYN023 333 20225 59007 60224;
0124832290999991995041018004-13017-038517FM-12+005199999V0201401N000519999999N0200001N1+02771+01381101031ADDAA106000191AG10002AY161061AY251061GF105991051001008001051001MA1999999100431MD1999999-0281MW1031REMSYN017 333 59028 69911;
0134832290999991995041100004-13017-038517FM-12+005199999V0200901N00261220001CN9999999N9+02601+02351101231ADDAA106000091AG10000GF103991031041008001001001KA1240M+02791MA1999999100641MD1999999+0091REMSYN017 333 10279 58009;EQDQ01+000002VOVAR 
0143832290999991995041112004-13017-038517FM-12+005199999V0202301N00151220001CN0100001N1+02741+02471101341ADDAA124007091AG10002AY161061AY241061GF104991041051004501001001KA1240N+02311MA1999999100741MD1999999+0101MW1031REMSYN023 333 20231 58010 60074;
0096832290999991995041118004-13017-038517FM-12+005199999V0201401N00051220001CN0200001N1+02811+02341101181ADDAA106000091AG10000GF104991031021008001041001MA1999999100601MD1999999+0171REMSYN011 333 58017;
0134832290999991995041200004-13017-038517FM-12+005199999V0200901N00211220001CN9999999N9+02651+02351101291ADDAA106000091AG10000GF105991021041008001001081KA1240M+02891MA1999999100701MD1999999+0061REMSYN017 333 10289 58006;EQDQ01+000002VOVAR 
0096832290999991995041218004-13017-038517FM-12+005199999V0200901N00151220001CN0200001N1+02781+02521101071ADDAA106000091AG10000GF103991021001008001051011MA1999999100491MD1999999-0111REMSYN011 333 59011;
0134832290999991995041300004-13017-038517FM-12+005199999V0200901N00211220001CN9999999N9+02661+02271101161ADDAA106000091AG10000GF101991011021008001001001KA1240M+02891MA1999999100561MD1999999-0141REMSYN017 333 10289 59014;EQDQ01+000002VOVAR 
0115832290999991995041312004-13017-038517FM-12+005199999V0201801N00051220001CN0100001N1+02831+02381101211ADDAA106000091AG10000GF103991021021008001041061KA1240N+02501MA1999999100611MD1999999-0151REMSYN017 333 20250 59015;
0096832290999991995041318004-13017-038517FM-12+005199999V0200901N00151220001CN0200001N1+02921+02451100901ADDAA106000091AG10000GF105991021021017501001011MA1999999100321MD1999999-0171REMSYN011 333 59017;
0134832290999991995041400004-13017-038517FM-12+005199999V0200901N00311015001CN9999999N9+02721+01451101121ADDAA106000091AG10000GF106991061001017501031001KA1240M+03081MA1999999100521MD1999999+0041REMSYN017 333 10308 58004;EQDQ01+000002VOVAR 
0143832290999991995041412004-13017-038517FM-12+005199999V0201401N00151007501CN0020001N1+02501+02411101331ADDAA124000591AG10000AY151061AY221061GF108991081071008001999999KA1240N+02451MA1999999100731MD1999999+0121MW1021REMSYN023 333 20245 58012 69944;
0096832290999991995041418004-13017-038517FM-12+005199999V0201401N00151007501CN0020001N1+02761+02351101051ADDAA106000091AG10000GF108991081071008001999999MA1999999100451MD1999999+0131REMSYN011 333 58013;
0140832290999991995041500004-13017-038517FM-12+005199999V0201401N00151007501CN9999999N9+02461+02331101431ADDAA106001091AG10000GF108991081071008001999999KA1240M+02981MA1999999100831MD1999999+0311REMSYN023 333 10298 58031 69991;EQDQ01+000002VOVAR 
0143832290999991995041512004-13017-038517FM-12+005199999V0202301N00101007501CN0020001N1+02521+02471101531ADDAA124016091AG10002AY161061AY221061GF108991081071008001999999KA1240N+02311MA1999999100931MD1999999+0201MW1021REMSYN023 333 20231 58020 60164;
0124832290999991995041518004-13017-038517FM-12+005199999V0209991C00001004201CN0010001N1+02491+02451101261ADDAA106014091AG10002AY161061AY261061GF108991081071004501999999MA1999999100671MD1999999+0221MW1651REMSYN017 333 58022 60141;
0162832290999991995041600004-13017-038517FM-12+005199999V0209991C00001220001CN9999999N9+02401+02351101431ADDAA106002091AG10002AY161061AY261061GF102991011031008001021001KA1240M+02671MA1999999100841MD1999999+0011MW1021REMSYN023 333 10267 58001 60021;EQDQ01+000002VOVAR 
0143832290999991995041612004-13017-038517FM-12+005199999V0201801N00151004201CN0020001N1+02441+02341101431ADDAA124032091AG10002AY161061AY261061GF107991071071004501001001KA1240N+02361MA1999999100841MD1999999-0091MW1631REMSYN023 333 20236 59009 60324;
0124832290999991995041618004-13017-038517FM-12+005199999V0201401N00211004201CN0010001N1+02431+02331101231ADDAA106007091AG10002AY161061AY261061GF108991081071004501999999MA1999999100651MD1999999-0021MW1651REMSYN017 333 59002 60071;
0162832290999991995041700004-13017-038517FM-12+005199999V0200501N00051004201CN9999999N9+02341+02321101381ADDAA106014091AG10002AY161061AY261061GF106991061051004501001001KA1240M+02571MA1999999100801MD1999999-0041MW1601REMSYN023 333 10257 59004 60141;EQDQ01+000002VOVAR 
0143832290999991995041712004-13017-038517FM-12+005199999V0201801N00411007501CN0040001N1+02681+02281101341ADDAA124051091AG10002AY161061AY261061GF107991071051008001001001KA1240N+02311MA1999999100761MD1999999-0081MW1031REMSYN023 333 20231 59008 60514;
0096832290999991995041718004-13017-038517FM-12+005199999V0201401N00311220001CN0100001N1+02781+02161101071ADDAA106000091AG10000GF104991021021008001041001MA1999999100471MD1999999-0181REMSYN011 333 59018;
0150832290999991995041800004-13017-038517FM-12+005199999V0201801N00211007501CN9999999N9+02721+02001101181ADDAA106000091AG10000GF106991061051008001001001KA1240M+02811MA1999999080562MD1999999-0211REMSYN017 333 10281 59021;EQDQ01+080563APOSP Q02+000002VOVAR 
0096832290999991995041818004-13017-038517FM-12+005199999V0201401N00311009001CN0040001N1+02721+02321101091ADDAA106000091AG10000GF106991051081004501021001MA1999999100491MD1999999+0021REMSYN011 333 58002;
0162832290999991995041900004-13017-038517FM-12+005199999V0200501N00101007501CN9999999N9+02351+02291101251ADDAA106001091AG10002AY161061AY221061GF105991051041008001001001KA1240M+02851MA1999999100661MD1999999+0071MW1021REMSYN023 333 10285 58007 60011;EQDQ01+000002VOVAR 
0143832290999991995041912004-13017-038517FM-12+005199999V0201801N00051045001CN0200001N1+02681+02311101311ADDAA124007091AG10002AY161061AY221061GF105991041031008001031001KA1240N+02231MA1999999100711MD1999999-0011MW1031REMSYN023 333 20223 59001 60074;
0096832290999991995041918004-13017-038517FM-12+005199999V0201401N00151220001CN0200001N1+02851+02321101141ADDAA106000091AG10000GF104991031021017501001011MA1999999100541MD1999999+0051REMSYN011 333 58005;
0134832290999991995042000004-13017-038517FM-12+005199999V0200901N00101220001CN9999999N9+02621+02311101431ADDAA106000091AG10000GF104991041021008001001001KA1240M+02991MA1999999100831MD1999999+0171REMSYN017 333 10299 58017;EQDQ01+000002VOVAR 
0115832290999991995042012004-13017-038517FM-12+005199999V0201801N00051220001CN0100001N1+02721+02481101341ADDAA106000091AG10000GF104991041021004501001001KA1240N+02441MA1999999100741MD1999999+0031REMSYN017 333 20244 58003;
0096832290999991995042018004-13017-038517FM-12+005199999V0201401N00151220001CN0200001N1+02841+02351101171ADDAA106000091AG10000GF103991021021008001041051MA1999999100571MD1999999+0031REMSYN011 333 58003;
0115832290999991995042112004-13017-038517FM-12+005199999V0203201N00051220001CN0200001N1+02801+02311101371ADDAA106000091AG10000GF102991021021008001041001KA1240N+02451MA1999999100771MD1999999+0031REMSYN017 333 20245 58003;
0112832290999991995042118004-13017-038517FM-12+005199999V0200901N00151220001CN0200001N1+02931+02361101241ADDAA106000091AG10000GA1001+999999999GF100991001001999999001001MA1999999100441MD1999999-0131REMSYN011 333 59013;
0150832290999991995042200004-13017-038517FM-12+005199999V0200901N00151220001CN9999999N9+02641+02291101211ADDAA106000091AG10000GA1001+999999999GF100991001001999999001001KA1240M+02941MA1999999100611MD1999999-0121REMSYN017 333 10294 59012;EQDQ01+000002VOVAR 
0115832290999991995042212004-13017-038517FM-12+005199999V0203601N00101004201CN0200001N1+02811+02271101241ADDAA106000091AG10000GF105991051021004501001001KA1240N+02421MA1999999100641MD1999999-0131REMSYN017 333 20242 59013;
0096832290999991995042218004-13017-038517FM-12+005199999V0201401N00151220001CN0200001N1+02971+02331101031ADDAA106000091AG10000GF102991011021008001041001MA1999999100431MD1999999-0011REMSYN011 333 59001;
0134832290999991995042300004-13017-038517FM-12+005199999V0200501N00151220001CN9999999N9+02621+02271101191ADDAA106000091AG10000GF101991011021008001001001KA1240M+03041MA1999999100591MD1999999-0021REMSYN017 333 10304 59002;EQDQ01+000002VOVAR 
0115832290999991995042312004-13017-038517FM-12+005199999V0200501N00151220001CN0200001N1+02891+02371101381ADDAA106000091AG10000GF103991031021008001001001KA1240N+02441MA1999999100781MD1999999+0141REMSYN017 333 20244 58014;
0096832290999991995042318004-13017-038517FM-12+005199999V0200401N00151220001CN0200001N1+02981+02351101131ADDAA106000091AG10000GF102991021021004501001001MA1999999100551MD1999999+0121REMSYN011 333 58012;
0150832290999991995042400004-13017-038517FM-12+005199999V0200901N00151220001CN9999999N9+02641+02181101341ADDAA106000091AG10000GA1001+999999999GF100991001001999999001001KA1240M+03051MA1999999100741MD1999999+0151REMSYN017 333 10305 58015;EQDQ01+000002VOVAR 
0115832290999991995042412004-13017-038517FM-12+005199999V0201401N00101220001CN0100001N1+02831+02241101481ADDAA106000091AG10000GF102991021021008001001001KA1240N+02441MA1999999100881MD1999999+0101REMSYN017 333 20244 58010;
0096832290999991995042418004-13017-038517FM-12+005199999V0200901N00311220001CN0200001N1+02951+02331101131ADDAA106000091AG10000GF102991021021004501001001MA1999999100551MD1999999+0001REMSYN011 333 58000;
0134832290999991995042500004-13017-038517FM-12+005199999V0200901N00151220001CN9999999N9+02621+02231101351ADDAA106000091AG10000GF101991011021008001001001KA1240M+02981MA1999999100751MD1999999+0011REMSYN017 333 10298 58001;EQDQ01+000002VOVAR 
0115832290999991995042512004-13017-038517FM-12+005199999V0200901N00151220001CN0200001N1+02841+02221101411ADDAA106000091AG10000GF102991021031004501001001KA1240N+02501MA1999999100811MD1999999-0071REMSYN017 333 20250 59007;
0096832290999991995042518004-13017-038517FM-12+005199999V0201401N00151220001CN0200001N1+02931+02241101211ADDAA106000091AG10000GF101991011031008001001001MA1999999100611MD1999999+0061REMSYN011 333 58006;
0134832290999991995042600004-13017-038517FM-12+005199999V0201401N00211220001CN9999999N9+02631+02181101321ADDAA106000091AG10000GF101991011021008001001001KA1240M+02951MA1999999100721MD1999999-0031REMSYN017 333 10295 59003;EQDQ01+000002VOVAR 
0143832290999991995042612004-13017-038517FM-12+005199999V0200901N00151004201CN0100001N1+02581+02291101341ADDAA124023091AG10002AY161061AY221061GF106991061071004501001001KA1240N+02411MA1999999100741MD1999999-0071MW1581REMSYN023 333 20241 59007 60234;
0096832290999991995042618004-13017-038517FM-12+005199999V0201401N00101220001CN0100001N1+02831+02331101091ADDAA106000091AG10000GF103991021021008001041001MA1999999100491MD1999999-0121REMSYN011 333 59012;
0162832290999991995042700004-13017-038517FM-12+005199999V0200901N00261004201CN9999999N9+02431+02371101221ADDAA106001091AG10002AY161061AY241061GF108991081071004501999999KA1240M+02951MA1999999100621MD1999999-0101MW1581REMSYN023 333 10295 59010 60011;EQDQ01+000002VOVAR 
0143832290999991995042712004-13017-038517FM-12+005199999V0202301N00151004201CN0020001N1+02491+02321101331ADDAA124010091AG10002AY161061AY251061GF108991061071004501021999KA1240N+02331MA1999999100731MD1999999-0011MW1511REMSYN023 333 20233 59001 60104;
0096832290999991995042718004-13017-038517FM-12+005199999V0202301N00311004201CN0040001N1+02501+02311101031ADDAA106000091AG10000GF107991071071004501001001MA1999999100431MD1999999-0061REMSYN011 333 59006;
0162832290999991995042800004-13017-038517FM-12+005199999V0201801N00571002101CN9999999N9+02451+02411101221ADDAA106007091AG10002AY161061AY221061GF108991081071002501999999KA1240M+02621MA1999999100631MD1999999+0011MW1651REMSYN023 333 10262 58001 60071;EQDQ01+000002VOVAR 
0143832290999991995042812004-13017-038517FM-12+005199999V0201801N00261004201CN0040001N1+02381+02261101461ADDAA124043091AG10002AY161061AY261061GF108991081071004501999999KA1240N+02251MA1999999100861MD1999999+0131MW1031REMSYN023 333 20225 58013 60434;
0096832290999991995042818004-13017-038517FM-12+005199999V0202301N001519999999N0200001N1+02631+02351101111ADDAA106000091AG10000GF105991041001012501061011MA1999999100531MD1999999+0101REMSYN011 333 58010;
0162832290999991995042900004-13017-038517FM-12+005199999V0200501N00101004201CN9999999N9+02461+02371101411ADDAA106000391AG10000AY151061AY221061GF108991081071004501999999KA1240M+02681MA1999999100821MD1999999+0191MW1631REMSYN023 333 10268 58019 69931;EQDQ01+000002VOVAR 
0121832290999991995042912004-13017-038517FM-12+005199999V0202301N00151007501CN0100001N1+02621+02441101501ADDAA124023091AG10000GF107991071051008001001001KA1240N+02341MA1999999100911MD1999999+0051REMSYN023 333 20234 58005 60234;
0096832290999991995042918004-13017-038517FM-12+005199999V0201401N00151105001CN0200001N1+02741+02401101251ADDAA106000091AG10000GF105991021021008001041061MA1999999100651MD1999999+0121REMSYN011 333 58012;
0134832290999991995043000004-13017-038517FM-12+005199999V0201401N00211007501CN9999999N9+02561+02231101481ADDAA106000091AG10000GF106991061051008001001001KA1240M+02841MA1999999100881MD1999999+0061REMSYN017 333 10284 58006;EQDQ01+000002VOVAR 
0115832290999991995043012004-13017-038517FM-12+005199999V0201401N00101220001CN0100001N1+02791+02321101511ADDAA106000091AG10000GF103991031021008001001001KA1240N+02471MA1999999100911MD1999999+0001REMSYN017 333 20247 58000;
0096832290999991995043018004-13017-038517FM-12+005199999V0201401N00151220001CN0100001N1+02801+02341101271ADDAA106000091AG10000GF103991031051008001001001MA1999999100681MD1999999+0031REMSYN011 333 58003;
0150832290999991995050100004-13017-038517FM-12+005199999V0201401N00261220001CN9999999N9+02571+02231101421ADDAA106000091AG10000GA1001+999999999GF100991001001999999001001KA1240M+02901MA1999999100821MD1999999+0061REMSYN017 333 10290 58006;EQDQ01+000002VOVAR 
0150832290999991995050112004-13017-038517FM-12+005199999V0201401N00261220001CN9999999N9+02571+02231101421ADDAA106000091AG10000GA1001+999999999GF100991001001999999001001KA1240M+02901MA1999999100821MD1999999+0061REMSYN017 333 10290 58006;EQDQ01+000002VOVAR 
0096832290999991995050118004-13017-038517FM-12+005199999V0201401N00151220001CN0200001N1+02851+02261101191ADDAA106000091AG10000GF101991011021008001001001MA1999999100591MD1999999-0091REMSYN011 333 59009;
0115832290999991995050212004-13017-038517FM-12+005199999V0201401N00151004201CN0040001N1+02721+02451101311ADDAA106000091AG10000GF105991051071004501001001KA1240N+02481MA1999999100731MD1999999-0071REMSYN017 333 20248 59007;
0124832290999991995050218004-13017-038517FM-12+005199999V0201401N00151220001CN0200001N1+02751+02431101041ADDAA106002091AG10002AY161061AY211061GF102991021021008001001001MA1999999100441MD1999999-0151MW1201REMSYN017 333 59015 60021;
0134832290999991995050300004-13017-038517FM-12+005199999V0200501N00151220001CN9999999N9+02601+02311101251ADDAA106000091AG10000GF102991021021008001001001KA1240M+02901MA1999999100651MD1999999-0081REMSYN017 333 10290 59008;EQDQ01+000002VOVAR 
0121832290999991995050312004-13017-038517FM-12+005199999V0203201N00051220001CN0200001N1+02751+02401101371ADDAA124002091AG10000GF103991031021008001001001KA1240N+02481MA1999999100771MD1999999+0041REMSYN023 333 20248 58004 60024;
0082832290999991995050318004-13017-038517FM-12+005199999V0200901N00151220001CN0200001N1+02941+02381101121ADDAA106000091AG10000GF102991011011008001001011MA1999999100521REMSYN011 333 50008;
0150832290999991995050400004-13017-038517FM-12+005199999V0200501N00151220001CN9999999N9+02641+02311101271ADDAA106000091AG10000GA1001+999999999GF100991001001999999001001KA1240M+02941MA1999999100671MD1999999+0021REMSYN017 333 10294 58002;EQDQ01+000002VOVAR 
0115832290999991995050412004-13017-038517FM-12+005199999V0200501N00051004201CN0100001N1+02891+02441101431ADDAA106000091AG10000GF106991061041004501001001KA1240N+02511MA1999999100831MD1999999+0061REMSYN017 333 20251 58006;
0096832290999991995050418004-13017-038517FM-12+005199999V0200901N00211220001CN0200001N1+02971+02251101241ADDAA106000091AG10000GF102991011021008001021001MA1999999100641MD1999999+0121REMSYN011 333 58012;
0140832290999991995050500004-13017-038517FM-12+005199999V0201401N00461004201CN9999999N9+02461+02361101581ADDAA106000191AG10000GF107991071051004501001001KA1240M+03051MA1999999100991MD1999999+0321REMSYN023 333 10305 58032 69921;EQDQ01+000002VOVAR 
0143832290999991995050512004-13017-038517FM-12+005199999V0200901N00151004201CN0100001N1+02711+02301101491ADDAA124018091AG10002AY161061AY221061GF107991071071004501001001KA1240N+02311MA1999999100891MD1999999+0061MW1031REMSYN023 333 20231 58006 60184;
0096832290999991995050518004-13017-038517FM-12+005199999V0200901N00151220001CN0200001N1+02861+02161101301ADDAA106000091AG10000GF102991021021008001001001MA1999999100701MD1999999+0061REMSYN011 333 58006;
0134832290999991995050600004-13017-038517FM-12+005199999V0200901N00151007501CN9999999N9+02561+02061101391ADDAA106000091AG10000GF105991051021008001001001KA1240M+02921MA1999999100791MD1999999-0201REMSYN017 333 10292 59020;EQDQ01+000002VOVAR 
0115832290999991995050612004-13017-038517FM-12+005199999V0202301N00151220001CN0200001N1+02661+02311101521ADDAA106000091AG10000GF104991041021008001001001KA1240N+02401MA1999999100921MD1999999+0031REMSYN017 333 20240 58003;
0096832290999991995050618004-13017-038517FM-12+005199999V0201401N00211220001CN0040001N1+02821+02311101191ADDAA106000091AG10000GF104991031041008001031001MA1999999100591MD1999999-0111REMSYN011 333 59011;
0134832290999991995050700004-13017-038517FM-12+005199999V0200901N00101220001CN9999999N9+02581+02251101301ADDAA106000091AG10000GF101991011021008001001001KA1240M+02861MA1999999100701MD1999999-0091REMSYN017 333 10286 59009;EQDQ01+000002VOVAR 
0115832290999991995050712004-13017-038517FM-12+005199999V0200501N00151220001CN0040001N1+02881+02251101391ADDAA106000091AG10000GF104991041031008001001001KA1240N+02441MA1999999100791MD1999999-0131REMSYN017 333 20244 59013;
0096832290999991995050718004-13017-038517FM-12+005199999V0200901N00211220001CN0200001N1+02921+02341101181ADDAA106000091AG10000GF101991011031008001001001MA1999999100581MD1999999-0011REMSYN011 333 59001;
0150832290999991995050800004-13017-038517FM-12+005199999V0200901N00151220001CN9999999N9+02641+02331101231ADDAA106000091AG10000GA1001+999999999GF100991001001999999001001KA1240M+03061MA1999999100631MD1999999-0071REMSYN017 333 10306 59007;EQDQ01+000002VOVAR 
0096832290999991995050818004-13017-038517FM-12+005199999V0201401N00151220001CN0200001N1+02901+02341101271ADDAA106000091AG10000GF102991011021008001041051MA1999999100671MD1999999+0091REMSYN011 333 58009;
0134832290999991995050900004-13017-038517FM-12+005199999V0200501N00101220001CN9999999N9+02651+02351101471ADDAA106000091AG10000GF101991011021008001001001KA1240M+02941MA1999999100871MD1999999+0241REMSYN017 333 10294 58024;EQDQ01+000002VOVAR 
0115832290999991995050912004-13017-038517FM-12+005199999V0201401N00101220001CN0100001N1+02801+02381101561ADDAA106000091AG10000GF102991021021008001001001KA1240N+02481MA1999999100961MD1999999+0141REMSYN017 333 20248 58014;
0096832290999991995050918004-13017-038517FM-12+005199999V0200901N00151220001CN0200001N1+02881+02391101351ADDAA106000091AG10000GF103991021021012501001011MA1999999100751MD1999999+0081REMSYN011 333 58008;
0134832290999991995051000004-13017-038517FM-12+005199999V0201401N00261220001CN9999999N9+02641+02271101591ADDAA106000091AG10000GF103991031021008001001001KA1240M+02981MA1999999100991MD1999999+0121REMSYN017 333 10298 58012;EQDQ01+000002VOVAR 
0115832290999991995051012004-13017-038517FM-12+005199999V0201801N00051220001CN0200001N1+02741+02381101611ADDAA106000091AG10000GF103991021041008001021001KA1240N+02481MA1999999101011MD1999999+0051REMSYN017 333 20248 58005;
0096832290999991995051018004-13017-038517FM-12+005199999V0201401N00051220001CN0200001N1+02831+02271101221ADDAA106000091AG10000GF103991021021008001041001MA1999999100621MD1999999-0131REMSYN011 333 59013;
0115832290999991995051112004-13017-038517FM-12+005199999V0201401N00151220001CN0200001N1+02791+02341101561ADDAA106000091AG10000GF103991021031008001001021KA1240N+02461MA1999999100961MD1999999-0051REMSYN017 333 20246 59005;
0096832290999991995051118004-13017-038517FM-12+005199999V0201401N00101220001CN0100001N1+02841+02291101181ADDAA106000091AG10000GF101991011011008001001001MA1999999100581MD1999999-0041REMSYN011 333 59004;
0134832290999991995051200004-13017-038517FM-12+005199999V0201401N00101220001CN9999999N9+02621+02351101331ADDAA106000091AG10000GF103991031021008001001001KA1240M+02921MA1999999100731MD1999999-0171REMSYN017 333 10292 59017;EQDQ01+000002VOVAR 
0115832290999991995051212004-13017-038517FM-12+005199999V0200901N00101220001CN0100001N1+02861+02261101491ADDAA106000091AG10000GF102991021011008001001001KA1240N+02451MA1999999100891MD1999999-0071REMSYN017 333 20245 59007;
0096832290999991995051218004-13017-038517FM-12+005199999V0200901N00051220001CN0200001N1+02821+02201101211ADDAA106000091AG10000GF102991021021008001001001MA1999999100611MD1999999+0031REMSYN011 333 58003;
0134832290999991995051300004-13017-038517FM-12+005199999V0201401N00101220001CN9999999N9+02741+02351101431ADDAA106000091AG10000GF103991031021008001001001KA1240M+02931MA1999999100831MD1999999+0101REMSYN017 333 10293 58010;EQDQ01+000002VOVAR 
0143832290999991995051312004-13017-038517FM-12+005199999V0200501N00211045001CN0100001N1+02641+02541101511ADDAA124010091AG10002AY161061AY221061GF106991041031008001041001KA1240N+02441MA1999999100911MD1999999+0021MW1201REMSYN023 333 20244 58002 60104;
0124832290999991995051318004-13017-038517FM-12+005199999V0200501N001510075019N0020001N1+02541+02401101321ADDAA106004091AG10002AY161061AY221061GF108991081071008001999999MA1999999100721MD1999999+0111MW1021REMSYN017 333 58011 60041;
0107832290999991995051418004-13017-038517FM-12+005199999V0201401N00261220001CN0200001N1+02921+02331101331ADDAG10000AY151061AY251061GF102991021041008001001001MA1999999100741MD1999999+0021MW1021REMSYN011 333 58002;
0134832290999991995051500004-13017-038517FM-12+005199999V0201401N00151220001CN9999999N9+02621+02251101521ADDAA106000091AG10000GF101991011021008001001001KA1240M+02931MA1999999100931MD1999999+0101REMSYN017 333 10293 58010;EQDQ01+000002VOVAR 
0143832290999991995051512004-13017-038517FM-12+005199999V0201401N00151220001CN0100001N1+02761+02401101571ADDAA124012091AG10002AY161061AY221061GF104991031031008001021001KA1240N+02361MA1999999100971MD1999999-0041MW1031REMSYN023 333 20236 59004 60124;
0115832290999991995051612004-13017-038517FM-12+005199999V0201401N00101220001CN0100001N1+02781+02381101541ADDAA106000091AG10000GF102991021021008001001001KA1240N+02321MA1999999100941MD1999999-0031REMSYN017 333 20232 59003;
0124832290999991995051618004-13017-038517FM-12+005199999V0201801N00211007501CN0040001N1+02501+02291101311ADDAA106001091AG10000AY111061AY211061GF107991061071008001021001MA1999999100711MD1999999+0041MW1521REMSYN017 333 58004 69981;
0121832290999991995051712004-13017-038517FM-12+005199999V0201401N00211220001CN0200001N1+02771+02231101571ADDAA106001091AG10000GF102991021021008001001001KA1240N+02391MA1999999100971MD1999999+0031REMSYN023 333 20239 58003 69981;
0096832290999991995051718004-13017-038517FM-12+005199999V0201401N00261220001CN0100001N1+02841+02311101731ADDAA106000091AG10000GF103991011041008001051001MA1999999100741MD1999999+0031REMSYN011 333 58003;
0162832290999991995051800004-13017-038517FM-12+005199999V0200501N00151004201CN9999999N9+02471+02341101431ADDAA106000591AG10000AY151061AY221061GF106991061051004501001001KA1240M+02941MA1999999100841MD1999999-0041MW1621REMSYN023 333 10294 59004 69941;EQDQ01+000002VOVAR 
0143832290999991995051812004-13017-038517FM-12+005199999V0209991C000010042019N0020001N1+02481+02411101371ADDAA124012091AG10002AY161061AY251061GF107991071051004501001001KA1240N+02381MA1999999100781MD1999999-0191MW1631REMSYN023 333 20238 59019 60124;
0124832290999991995051818004-13017-038517FM-12+005199999V0202701N00051004201CN0040001N1+02521+02401101091ADDAA106016091AG10002AY161061AY261061GF106991051051004501041001MA1999999100491MD1999999-0251MW1581REMSYN017 333 59025 60161;
0134832290999991995051900004-13017-038517FM-12+005199999V0209991C00001012001CN9999999N9+02391+02221101181ADDAA106000091AG10000GF105991051001012501021001KA1240M+02671MA1999999100591MD1999999-0251REMSYN017 333 10267 59025;EQDQ01+000002VOVAR 
0121832290999991995051912004-13017-038517FM-12+005199999V0202701N00151220001CN0200001N1+02721+02371101121ADDAA124012091AG10000GF103991021021008001031001KA1240N+02311MA1999999100521MD1999999-0261REMSYN023 333 20231 59026 60124;
0134832290999991995052000004-13017-038517FM-12+005199999V0200501N00151220001CN9999999N9+02621+02331101091ADDAA106000091AG10000GF102991021011008001001001KA1240M+03001MA1999999100491MD1999999-0101REMSYN017 333 10300 59010;EQDQ01+000002VOVAR 
0115832290999991995052012004-13017-038517FM-12+005199999V0200501N00151220001CN0100001N1+02741+02471101371ADDAA106000091AG10000GF104991041021008001001001KA1240N+02421MA1999999100771MD1999999+0251REMSYN017 333 20242 58025;
0124832290999991995052018004-13017-038517FM-12+005199999V0201401N00151105001CN0200001N1+02701+02391101141ADDAA106006091AG10002AY161061AY211061GF105991021021008001041061MA1999999100541MD1999999+0371MW1031REMSYN017 333 58037 60061;
0134832290999991995052100004-13017-038517FM-12+005199999V0200501N00101220001CN9999999N9+02561+02281101361ADDAA106000091AG10000GF103991031011008001001001KA1240M+02911MA1999999100761MD1999999+0271REMSYN017 333 10291 58027;EQDQ01+000002VOVAR 
0143832290999991995052112004-13017-038517FM-12+005199999V0200501N00101007501CN0020001N1+02581+02371101591ADDAA124008091AG10002AY161061AY211061GF107991051031008001011001KA1240N+02471MA1999999100991MD1999999+0221MW1211REMSYN023 333 20247 58022 60084;
0096832290999991995052118004-13017-038517FM-12+005199999V0201801N00151045001CN0100001N1+02681+02411101271ADDAA106000091AG10000GF107991041071008001031001MA1999999100671MD1999999+0131REMSYN011 333 58013;
0134832290999991995052200004-13017-038517FM-12+005199999V0201401N00051220001CN9999999N9+02451+02281101401ADDAA106000091AG10000GF104991041001017501021001KA1240M+02901MA1999999100801MD1999999+0041REMSYN017 333 10290 58004;EQDQ01+000002VOVAR 
0143832290999991995052212004-13017-038517FM-12+005199999V0202301N00151004201CN0020001N1+02601+02421101541ADDAA124095091AG10002AY161061AY221061GF107991051051004501001061KA1240N+02101MA1999999100951MD1999999-0041MW1021REMSYN023 333 20210 59004 60954;
0134832290999991995052300004-13017-038517FM-12+005199999V0201401N00151045001CN9999999N9+02561+02351101361ADDAA106000091AG10000GF105991041011008001031001KA1240M+02761MA1999999100761MD1999999-0041REMSYN017 333 10276 59004;EQDQ01+000002VOVAR 
0143832290999991995052312004-13017-038517FM-12+005199999V0201801N00211004201CN0010001N1+02401+02351101481ADDAA124029091AG10002AY161061AY221061GF108991081071004501999999KA1240N+02311MA1999999100891MD1999999-0061MW1961REMSYN023 333 20231 59006 60294;
0124832290999991995052318004-13017-038517FM-12+005199999V0201401N00151007501CN0020001N1+02441+02351101261ADDAA124002091AG10002AY161061AY221061GF108991081071008001999999MA1999999100661MD1999999+0111MW1961REMSYN017 333 58011 60024;
0143832290999991995052412004-13017-038517FM-12+005199999V0202701N00151007501CN0040001N1+02601+02441101501ADDAA124034091AG10002AY161061AY221061GF108991081071008001999999KA1240N+02301MA1999999100901MD1999999+0011MW1021REMSYN023 333 20230 58001 60344;
0124832290999991995052418004-13017-038517FM-12+005199999V0209991C00001045001CN0100001N1+02381+02311101281ADDAA106019091AG10002AY161061AY251061GF106991041031008001041001MA1999999100681MD1999999+0021MW1031REMSYN017 333 58002 60191;
0134832290999991995052500004-13017-038517FM-12+005199999V0201401N00151045001CN9999999N9+02571+02381101401ADDAA106000091AG10000GF107991021011008001031001KA1240M+02661MA1999999100801MD1999999+0001REMSYN017 333 10266 58000;EQDQ01+000002VOVAR 
0143832290999991995052512004-13017-038517FM-12+005199999V0201801N00151045001CN0100001N1+02621+02391101621ADDAA124020091AG10000AY151061AY221061GF106991031031008001041061KA1240N+02261MA1999999101021MD1999999+0121MW1501REMSYN023 333 20226 58012 60204;
0124832290999991995052518004-13017-038517FM-12+005199999V0209991C00001004201CN0020001N1+02431+02301101301ADDAA106012091AG10002AY161061AY261061GF108991081071004501999999MA1999999100711MD1999999+0031MW1631REMSYN017 333 58003 60121;
0162832290999991995052600004-13017-038517FM-12+005199999V0201401N00051220001CN9999999N9+02521+02311101511ADDAA106000191AG10002AY161061AY251061GF104991041021008001001001KA1240M+02731MA1999999100921MD1999999+0121MW1021REMSYN023 333 10273 58012 69921;EQDQ01+000002VOVAR 
0143832290999991995052612004-13017-038517FM-12+005199999V0200901N00101220001CN0200001N1+02681+02391101571ADDAA124035091AG10002AY161061AY261061GF103991021021008001001011KA1240N+02351MA1999999100971MD1999999+0051MW1031REMSYN023 333 20235 58005 60354;
0134832290999991995052700004-13017-038517FM-12+005199999V0201801N00101007501CN9999999N9+02501+02291101581ADDAA106000091AG10000GF107991071051008001001001KA1240M+02501MA1999999100991MD1999999+0071REMSYN017 333 10250 58007;EQDQ01+000002VOVAR 
0143832290999991995052712004-13017-038517FM-12+005199999V0201401N00261004201CN0005001N1+02401+02301101711ADDAA124020091AG10002AY161061AY261061GF108991081071004501999999KA1240N+02291MA1999999101121MD1999999+0151MW1651REMSYN023 333 20229 58015 60204;
0124832290999991995052718004-13017-038517FM-12+005199999V0201401N00151007501CN0020001N1+02441+02351101501ADDAA106047091AG10002AY161061AY221061GF108991081071008001999999MA1999999100901MD1999999+0151MW1611REMSYN017 333 58015 60471;
0162832290999991995052800004-13017-038517FM-12+005199999V0201401N00211007501CN9999999N9+02581+02441101581ADDAA106002091AG10002AY161061AY221061GF108991081071008001999999KA1240M+02601MA1999999100981MD1999999-0011MW1021REMSYN023 333 10260 59001 60021;EQDQ01+000002VOVAR 
0143832290999991995052812004-13017-038517FM-12+005199999V0201401N00151007501CN0020001N1+02381+02291101721ADDAA124074091AG10002AY161061AY221061GF108991081071008001999999KA1240N+02181MA1999999101121MD1999999+0001MW1611REMSYN023 333 20218 58000 60744;
0124832290999991995052818004-13017-038517FM-12+005199999V0201401N00101004201CN0020001N1+02351+02181101551ADDAA106009091AG10002AY161061AY251061GF108991061071004501021999MA1999999100951MD1999999+0051MW1611REMSYN017 333 58005 60091;
0151832290999991995052900004-13017-038517FM-12+005199999V0201401N00151007501CN9999999N9+02321+02241101721ADDAG10002AY161061AY221061GF108991081071008001999999KA1240M+02601MA1999999101121MD1999999+0141MW1611REMSYN023 333 10260 58014 69131;EQDQ01+000002VOVAR 
0102832290999991995052918004-13017-038517FM-12+005199999V0201801N00361004201CN0200001N1+02371+02261101581ADDAA106002091AG10000GF108991081071004501999999MA1999999100991MD1999999+0041REMSYN017 333 58004 60021;
0162832290999991995053000004-13017-038517FM-12+005199999V0203601N00051002101CN9999999N9+02251+02211101711ADDAA106009091AG10002AY161061AY261061GF108991081071002501999999KA1240M+02461MA1999999101121MD1999999+0001MW1651REMSYN023 333 10246 58000 60091;EQDQ01+000002VOVAR 
0143832290999991995053012004-13017-038517FM-12+005199999V0200901N00151004201CN0005001N1+02421+02331101581ADDAA124044091AG10002AY161061AY261061GF108991081071004501999999KA1240N+02191MA1999999100991MD1999999-0211MW1651REMSYN023 333 20219 59021 60444;
0124832290999991995053018004-13017-038517FM-12+005199999V0201801N00211045001CN0100001N1+02421+02321101391ADDAA106002091AG10002AY161061AY261061GF107991031021008001041001MA1999999100791MD1999999-0201MW1031REMSYN017 333 59020 60021;
0148832290999991995053100004-13017-038517FM-12+005199999V0201801N00101004201CN9999999N9+02371+02241101581ADDAA106001091AG10002AY161061AY251061GF106991061051004501001001KA1240M+02521MA1999999100991MW1031REMSYN023 333 10252 50013 69981;EQDQ01+000002VOVAR 
0143832290999991995053112004-13017-038517FM-12+005199999V0202301N00311004201CN0040001N1+02321+99999101741ADDAA124006091AG10002AY161061AY261061GF108991081071004501999999KA1240N+02201MA1999999101141MD1999999+0231MW1581REMSYN023 333 20220 58023 60064;
0124832290999991995053118004-13017-038517FM-12+005199999V0201801N00151007501CN0020001N1+02511+02231101471ADDAA106007091AG10002AY161061AY221061GF108991081071008001999999MA1999999100871MD1999999+0081MW1021REMSYN017 333 58008 60071;
0143832290999991995060112004-13017-038517FM-12+005199999V0201801N00311007501CN0020001N1+02341+02221101821ADDAA124011091AG10002AY161061AY251061GF108991061071008001021999KA1240N+02211MA1999999101221MD1999999+0081MW1031REMSYN023 333 20221 58008 60114;
0124832290999991995060118004-13017-038517FM-12+005199999V0201401N00261007501CN0020001N1+02281+02141101541ADDAA106009091AG10002AY161061AY251061GF108991061071008001021999MA1999999100941MD1999999+0071MW1201REMSYN017 333 58007 60091;
0178832290999991995060200004-13017-038517FM-12+005199999V0201401N00151220001CN9999999N9+02521+02231101401ADDAA106001091AG10002AY161061AY221061GF103991999021008001001001KA1240M+02561MA1999999100801MD1999999-0201MW1021REMSYN023 333 10256 59020 69981;EQDQ01+000042SCOTLCQ02+000002VOVAR 
0121832290999991995060212004-13017-038517FM-12+005199999V0201401N00151045001CN0040001N1+02601+02101101701ADDAA124010091AG10000GF108991041071008001021999KA1240N+02181MA1999999101101MD1999999-0121REMSYN023 333 20218 59012 60104;
0096832290999991995060218004-13017-038517FM-12+005199999V0201801N00311004201CN0040001N1+02641+02101101461ADDAA106000091AG10000GF108991081071004501999999MA1999999100861MD1999999-0081REMSYN011 333 59008;
0134832290999991995060300004-13017-038517FM-12+005199999V0201401N00311220001CN9999999N9+02581+01971101671ADDAA106000091AG10000GF102991021001008001051001KA1240M+02741MA1999999101071MD1999999+0271REMSYN017 333 10274 58027;EQDQ01+000002VOVAR 
0115832290999991995060312004-13017-038517FM-12+005199999V0201401N00151220001CN0200001N1+02671+02201101711ADDAA106000091AG10000GF102991011021008001031001KA1240N+02511MA1999999101101MD1999999+0011REMSYN017 333 20251 58001;
0096832290999991995060318004-13017-038517FM-12+005199999V0201401N00311045001CN0200001N1+02641+02141101611ADDAA106000091AG10000GF107991031041008001061001MA1999999101011MD1999999+0151REMSYN011 333 58015;
0134832290999991995060400004-13017-038517FM-12+005199999V0201401N00411220001CN9999999N9+02561+01951101761ADDAA106000091AG10000GF102991021021004501001001KA1240M+02751MA1999999101161MD1999999-0091REMSYN017 333 10275 59009;EQDQ01+000002VOVAR 
0115832290999991995060412004-13017-038517FM-12+005199999V0200901N00101220001CN0200001N1+02641+02141101871ADDAA106000091AG10000GF103991031031004501001001KA1240N+02521MA1999999101271MD1999999+0161REMSYN017 333 20252 58016;
0096832290999991995060418004-13017-038517FM-12+005199999V0201401N00151220001CN0100001N1+02601+02461101771ADDAA106000091AG10000GF103991031021008001001001MA1999999101171MD1999999+0161REMSYN011 333 58016;
0162832290999991995060500004-13017-038517FM-12+005199999V0201401N00151220001CN9999999N9+02441+02361101801ADDAA106000191AG10000AY151061AY221061GF103991031051008001001001KA1240M+02741MA1999999101201MD1999999+0041MW1021REMSYN023 333 10274 58004 69921;EQDQ01+000002VOVAR 
0121832290999991995060512004-13017-038517FM-12+005199999V0201401N00311220001CN0100001N1+02611+01351101961ADDAA124009091AG10000GF104991041021008001001001KA1240N+02281MA1999999101361MD1999999+0091REMSYN023 333 20228 58009 60094;
0096832290999991995060518004-13017-038517FM-12+005199999V0201401N00311220001CN0200001N1+02581+01801101811ADDAA106000091AG10000GF102991021021008001001001MA1999999101211MD1999999+0041REMSYN011 333 58004;
0134832290999991995060600004-13017-038517FM-12+005199999V0201401N00151220001CN9999999N9+02491+02131101861ADDAA106000091AG10000GF103991031021008001001001KA1240M+02701MA1999999101261MD1999999+0061REMSYN017 333 10270 58006;EQDQ01+000002VOVAR 
0146832290999991995060612004-13017-038517FM-12+005199999V0201401N00311220001CN0200001N1+02681+01941101901ADDAA106000091AA224001091AG10000AY151061GF103991011021008001041061KA1240N+02271MA1999999101301MD1999999-0061MW1031REMSYN023 333 20227 59006 60014;
0096832290999991995060618004-13017-038517FM-12+005199999V0201801N00311220001CN0200001N1+02581+02081101621ADDAA106000091AG10000GF104991031021012501001011MA1999999101021MD1999999-0191REMSYN011 333 59019;
0134832290999991995060700004-13017-038517FM-12+005199999V0201401N00261220001CN9999999N9+02521+02111101811ADDAA106000091AG10000GF102991021001008001031001KA1240M+02751MA1999999101211MD1999999-0051REMSYN017 333 10275 59005;EQDQ01+000002VOVAR 
0115832290999991995060712004-13017-038517FM-12+005199999V0202301N00101007501CN0040001N1+02411+02171101901ADDAA106000091AG10000GF107991071051008001001001KA1240N+02341MA1999999101301MD1999999+0001REMSYN017 333 20234 58000;
0124832290999991995060718004-13017-038517FM-12+005199999V0201801N00211007501CN0040001N1+02341+02241101661ADDAA106010091AG10002AY161061AY221061GF107991071051008001001001MA1999999101071MD1999999+0051MW1631REMSYN017 333 58005 60101;
0162832290999991995060800004-13017-038517FM-12+005199999V0201401N003619999999N9999999N9+02291+02111101821ADDAA106000591AG10002AY161061AY251061GF106991061001012501071001KA1240M+02551MA1999999101231MD1999999+0021MW1031REMSYN023 333 10255 58002 69941;EQDQ01+000002VOVAR 
0143832290999991995060812004-13017-038517FM-12+005199999V0202301N00151007501CN0040001N1+02401+02211101851ADDAA124013091AG10002AY161061AY261061GF107991061051008001071001KA1240N+02151MA1999999101261MD1999999-0041MW1021REMSYN023 333 20215 59004 60134;
0096832290999991995060818004-13017-038517FM-12+005199999V0201401N00151220001CN0200001N1+02641+02091101671ADDAA106000091AG10000GF104991021021008001021001MA1999999101071MD1999999+0001REMSYN011 333 58000;
0121832290999991995060912004-13017-038517FM-12+005199999V0202301N00151220001CN0040001N1+02501+02191101881ADDAA124000191AG10000GF104991031041008001031001KA1240N+02261MA1999999101291MD1999999+0031REMSYN023 333 20226 58003 69924;
0096832290999991995060918004-13017-038517FM-12+005199999V0201801N00211220001CN0200001N1+02591+02251101531ADDAA106000091AG10000GF102991021021008001001061MA1999999100931MD1999999-0141REMSYN011 333 59014;
0134832290999991995061000004-13017-038517FM-12+005199999V0201401N00101220001CN9999999N9+02421+02411101701ADDAA106000091AG10000GF103991031011008001001001KA1240M+02641MA1999999101101MD1999999-0111REMSYN017 333 10264 59011;EQDQ01+000002VOVAR 
0135832290999991995061012004-13017-038517FM-12+005199999V0201401N00211220001CN0200001N1+02491+02071101811ADDAA124002091AG10000AY151061GF103991021021008001041001KA1240N+02271MA1999999101211MD1999999-0081MW1031REMSYN023 333 20227 59008 60024;
0124832290999991995061018004-13017-038517FM-12+005199999V0201801N00101220001CN0020001N1+02501+02231101501ADDAA106005091AG10002AY161061AY221061GF103991999999008001999999MA1999999100901MD1999999-0061MW1611REMSYN017 333 59006 60051;
0162832290999991995061100004-13017-038517FM-12+005199999V0202301N00101007501CN9999999N9+02411+02251101801ADDAA106002091AG10002AY161061AY221061GF108991081071008001999999KA1240M+02541MA1999999101201MD1999999+0101MW1021REMSYN023 333 10254 58010 60021;EQDQ01+000002VOVAR 
0115832290999991995061112004-13017-038517FM-12+005199999V0201401N00101220001CN0040001N1+02621+02181101801ADDAA106000091AG10000GF104991041011008001001021KA1240N+02211MA1999999101301MD1999999+0091REMSYN017 333 20221 58009;
0096832290999991995061118004-13017-038517FM-12+005199999V0201401N00151220001CN0100001N1+02641+02271101591ADDAA106000091AG10000GF104991031031008001051001MA1999999100991MD1999999+0091REMSYN011 333 58009;
0134832290999991995061200004-13017-038517FM-12+005199999V0201401N00311220001CN9999999N9+02521+02191101651ADDAA106000091AG10000GF103991031031004501001001KA1240M+02741MA1999999101051MD1999999-0251REMSYN017 333 10274 59025;EQDQ01+000002VOVAR 
0115832290999991995061212004-13017-038517FM-12+005199999V0201401N00151004201CN0040001N1+02481+02191101871ADDAA106000091AG10000GF108991081071004501999999KA1240N+02341MA1999999101271MD1999999-0031REMSYN017 333 20234 59003;
0096832290999991995061218004-13017-038517FM-12+005199999V0201401N00101220001CN0100001N1+02701+02201101591ADDAA106000091AG10000GF104991041011008001001001MA1999999100991MD1999999+0001REMSYN011 333 58000;
0162832290999991995061300004-13017-038517FM-12+005199999V0201401N00151220001CN9999999N9+02481+02211101861ADDAA106000191AG10000AY121061AY251061GF103991031021008001001001KA1240M+02791MA1999999101261MD1999999-0211MW1101REMSYN023 333 10279 59021 69921;EQDQ01+000002VOVAR 
0143832290999991995061312004-13017-038517FM-12+005199999V0201401N001510075019N0100001N1+02501+02171101911ADDAA124002091AG10002AY161061AY221061GF107991071011008001001021KA1240N+02321MA1999999101311MD1999999+0241MW1021REMSYN023 333 20232 58024 60024;
0124832290999991995061318004-13017-038517FM-12+005199999V0200901N00151220001CN0200001N1+02701+02131101661ADDAA106000591AG10000AY151061AY211061GF102991021031008001041001MA1999999101061MD1999999+0071MW1031REMSYN017 333 58007 69941;
0134832290999991995061400004-13017-038517FM-12+005199999V0200901N00101220001CN9999999N9+02361+02311101801ADDAA106000091AG10000GF103991031051008001001001KA1240M+02741MA1999999101201MD1999999-0061REMSYN017 333 10274 59006;EQDQ01+000002VOVAR 
0124832290999991995061418004-13017-038517FM-12+005199999V0201801N00151045001CN0040001N1+02361+02221101661ADDAA106006091AG10002AY161061AY221061GF107991041021004501051001MA1999999101061MD1999999+0001MW1581REMSYN017 333 58000 60061;
0121832290999991995061512004-13017-038517FM-12+005199999V0201401N00151220001CN0100001N1+02611+02121101841ADDAA124009091AG10000GF105991031051008001001061KA1240N+02261MA1999999101251MD1999999-0071REMSYN023 333 20226 59007 60094;
0096832290999991995061518004-13017-038517FM-12+005199999V0201401N001019999999N0200001N1+02641+02141101611ADDAA106000091AG10000GF105991031001008001051011MA1999999101011MD1999999-0051REMSYN011 333 59005;
0115832290999991995061612004-13017-038517FM-12+005199999V0200901N00151220001CN0200001N1+02731+02081101781ADDAA106000091AG10000GF102991011021008001001051KA1240N+02361MA1999999101191MD1999999-0061REMSYN017 333 20236 59006;
0096832290999991995061618004-13017-038517FM-12+005199999V0201401N00151007501CN0100001N1+02701+02071101521ADDAA106000091AG10000GF107991071051008001001001MA1999999100921MD1999999-0091REMSYN011 333 59009;
0134832290999991995061700004-13017-038517FM-12+005199999V0201801N001519999999N9999999N9+02441+02111101801ADDAA106000091AG10000GF107991999999008001999999KA1240M+02841MA1999999101201MD1999999+0141REMSYN017 333 10284 58014;EQDQ01+000002VOVAR 
0143832290999991995061712004-13017-038517FM-12+005199999V0202301N00101007501CN0040001N1+02301+02181101901ADDAA124000191AG10000AY151061AY221061GF108991081071008001999999KA1240N+02221MA1999999101301MD1999999+0111MW1021REMSYN023 333 20222 58011 69924;
0096832290999991995061718004-13017-038517FM-12+005199999V0201801N00151045001CN0040001N1+02501+02131101511ADDAA106000091AG10000GF107991041021008001051001MA1999999100911MD1999999-0011REMSYN011 333 59001;
0134832290999991995061800004-13017-038517FM-12+005199999V0201801N00101220001CN9999999N9+02341+02131101601ADDAA106000091AG10000GF103991021011008001001031KA1240M+02681MA1999999101101MD1999999+0101REMSYN017 333 10268 58010;EQDQ01+000002VOVAR 
0143832290999991995061812004-13017-038517FM-12+005199999V0202301N00151045001CN0100001N1+02541+02251101771ADDAA124002091AG10002AY161061AY221061GF107991041051008001051001KA1240N+02211MA1999999101171MD1999999-0131MW1021REMSYN023 333 20221 59013 60024;
