0121834980999991995010100004-17733-039250FM-12+000399999V0200501N00361220001CN9999999N9+02581+02381101461ADDAA106000091AG10000GF102991021011008001001001MA1999999101411MD1999999-0151REMSYN017 333 10/// 59015;EQDQ01+000002VOVAR 
0143834980999991995010112004-17733-039250FM-12+000399999V0203601N00361007501CN0200001N1+02881+02371101521ADDAA124000191AG10003AY161061AY221061GF106991061021008001001001KA1240N+02181MA1999999101471MD1999999+0021MW1211REMSYN023 333 20218 58002 69914;
0096834980999991995010118004-17733-039250FM-12+000399999V0200901N00411220001CN0200001N1+02961+02381101321ADDAA106000091AG10000GF103991021011008001001051MA1999999101271MD1999999+0121REMSYN011 333 58012;
0115834980999991995010200004-17733-039250FM-12+000399999V0203601N00261220001CN9999999N9+02581+02371101471ADDAA106000091AG10000GF102991021011008001001001MA1999999101421MD1999999+0011REMSYN011 333 58001;EQDQ01+000002VOVAR 
0115834980999991995010212004-17733-039250FM-12+000399999V0203601N00211007501CN0200001N1+02721+02471101501ADDAA106000091AG10000GF106991051021008001001011KA1240N+02101MA1999999101451MD1999999-0021REMSYN017 333 20210 59002;
0096834980999991995010218004-17733-039250FM-12+000399999V0200901N00411220001CN0200001N1+02981+02401101171ADDAA106000091AG10000GF102991011011008001001051MA1999999101121MD1999999-0151REMSYN011 333 59015;
0121834980999991995010300004-17733-039250FM-12+000399999V0200501N00151220001CN9999999N9+02561+02331101301ADDAA106000091AG10000GF102991021011008001001001MA1999999101251MD1999999-0171REMSYN017 333 10/// 59017;EQDQ01+000002VOVAR 
0115834980999991995010312004-17733-039250FM-12+000399999V0200501N00461220001CN0200001N1+02911+02251101321ADDAA106000091AG10000GF104991041021008001001001KA1240N+02231MA1999999101271MD1999999-0181REMSYN017 333 20223 59018;
0096834980999991995010318004-17733-039250FM-12+000399999V0200501N00621220001CN0200001N1+02931+02241101151ADDAA106000091AG10000GF105991021011008001001011MA1999999101101MD1999999-0021REMSYN011 333 59002;
0131834980999991995010400004-17733-039250FM-12+000399999V0200501N00211220001CN9999999N9+02511+02341101321ADDAA106000091AG10000GA1001+999999999GF100991001001999999001001MA1999999101271MD1999999+0021REMSYN011 333 58002;EQDQ01+000002VOVAR 
0115834980999991995010412004-17733-039250FM-12+000399999V0200501N00411220001CN0200001N1+02861+02371101451ADDAA106000091AG10000GF104991041021008001001001KA1240N+02151MA1999999101401MD1999999+0131REMSYN017 333 20215 58013;
0096834980999991995010418004-17733-039250FM-12+000399999V0200501N00511220001CN0200001N1+03021+02361101211ADDAA106000091AG10000GF102991011011008001001011MA1999999101161MD1999999+0061REMSYN011 333 58006;
0162834980999991995010512004-17733-039250FM-12+000399999V0200501N00461045001CN0200001N1+02741+02501101511ADDAA124001091AG10003AY161061AY261061GF107991031021008001061091KA1240N+02181MA1999999101461MD1999999+0061MW1621REMSYN023 333 20218 58006 69994;EQDQ01+999990APOSP 
0096834980999991995010518004-17733-039250FM-12+000399999V0200501N00511220001CN0200001N1+02941+02311101281ADDAA106000091AG10000GF104991031011008001001091MA1999999101231MD1999999+0071REMSYN011 333 58007;
0137834980999991995010600004-17733-039250FM-12+000399999V0200501N00411220001CN9999999N9+02481+02341101471ADDAA106000091AG10000GA1001+999999999GF100991001001999999001001MA1999999101421MD1999999+0121REMSYN017 333 10/// 58012;EQDQ01+000002VOVAR 
0115834980999991995010612004-17733-039250FM-12+000399999V0200501N00411045001CN0200001N1+02901+02321101621ADDAA106000091AG10000GF105991041021008001081001KA1240N+02121MA1999999101571MD1999999+0111REMSYN017 333 20212 58011;
0121834980999991995010700004-17733-039250FM-12+000399999V0200501N00151220001CN9999999N9+02581+02371101451ADDAA106000091AG10000GF102991021011008001001001MA1999999101401MD1999999-0031REMSYN017 333 10/// 59003;EQDQ01+000002VOVAR 
0115834980999991995010712004-17733-039250FM-12+000399999V0203601N00461220001CN0200001N1+02861+02351101441ADDAA106000091AG10000GF104991041021008001001001KA1240N+02121MA1999999101391MD1999999-0181REMSYN017 333 20212 59018;
0131834980999991995010800004-17733-039250FM-12+000399999V0200501N00311220001CN9999999N9+02521+02311101281ADDAA106000091AG10000GA1001+999999999GF100991001001999999001001MA1999999101231MD1999999-0171REMSYN011 333 59017;EQDQ01+000002VOVAR 
0115834980999991995010812004-17733-039250FM-12+000399999V0200501N00461012001CN0200001N1+02761+02361101271ADDAA106000091AG10000GF106991061081008001001001KA1240N+02191MA1999999101221MD1999999-0171REMSYN017 333 20219 59017;
0096834980999991995010818004-17733-039250FM-12+000399999V0200501N00571220001CN0200001N1+03001+02341101001ADDAA106000091AG10000GF101991011011008001001001MA1999999100951MD1999999-0111REMSYN011 333 59011;
0121834980999991995010900004-17733-039250FM-12+000399999V0200501N00361220001CN9999999N9+02601+02401101191ADDAA106000091AG10000GF103991031011008001001001MA1999999101141MD1999999-0091REMSYN017 333 10/// 59009;EQDQ01+000002VOVAR 
0115834980999991995010912004-17733-039250FM-12+000399999V0203601N00621007501CN0200001N1+02861+02331101311ADDAA106000091AG10000GF105991051021008001001001KA1240N+02221MA1999999101261MD1999999+0041REMSYN017 333 20222 58004;
0131834980999991995011000004-17733-039250FM-12+000399999V0203601N00511220001CN9999999N9+02581+02381101101ADDAA106000091AG10000GA1001+999999999GF100991001001999999001001MA1999999101051MD1999999-0091REMSYN011 333 59009;EQDQ01+000002VOVAR 
0134834980999991995011012004-17733-039250FM-12+000399999V0203601N00671220001CN0200001N1+02941+02311101341ADDAA106000091AG10000GF103991999041008001001001KA1240N+02331MA1999999101291MD1999999+0031REMSYN017 333 20233 58003;EQDQ01+000062SCOTLC
0096834980999991995011018004-17733-039250FM-12+000399999V0200501N00821220001CN0200001N1+02981+02471101041ADDAA106000091AG10000GF101991011081008001001001MA1999999100991MD1999999+0041REMSYN011 333 58004;
0115834980999991995011100004-17733-039250FM-12+000399999V0203601N00511220001CN9999999N9+02561+02331101221ADDAA106000091AG10000GF102991021011008001001001MA1999999101171MD1999999+0171REMSYN011 333 58017;EQDQ01+000002VOVAR 
0115834980999991995011112004-17733-039250FM-12+000399999V0200501N00511007501CN0200001N1+02881+02411101441ADDAA106000091AG10000GF105991051021008001001001KA1240N+02311MA1999999101391MD1999999+0101REMSYN017 333 20231 58010;
0096834980999991995011118004-17733-039250FM-12+000399999V0200501N00821220001CN0200001N1+03001+02371101161ADDAA106000091AG10000GF103991001001999999001041MA1999999101111MD1999999+0111REMSYN011 333 58011;
0131834980999991995011200004-17733-039250FM-12+000399999V0200501N00461220001CN9999999N9+02551+02361101401ADDAA106000091AG10000GA1001+999999999GF100991001001999999001001MA1999999101351MD1999999+0181REMSYN011 333 58018;EQDQ01+000002VOVAR 
0115834980999991995011212004-17733-039250FM-12+000399999V0203601N00211220001CN0200001N1+02741+02361101691ADDAA106000091AG10000GF103991031021008001001001KA1240N+02231MA1999999101641MD1999999+0251REMSYN017 333 20223 58025;
0096834980999991995011218004-17733-039250FM-12+000399999V0200501N00511220001CN0200001N1+02061+99999101411ADDAA106000091AG10000GF103991011011008001001041MA1999999101361MD1999999+0251REMSYN011 333 58025;
0121834980999991995011300004-17733-039250FM-12+000399999V0200501N00101220001CN9999999N9+02461+02301101561ADDAA106000091AG10000GF103991031011008001001001MA1999999101511MD1999999+0161REMSYN017 333 10/// 58016;EQDQ01+000002VOVAR 
0115834980999991995011312004-17733-039250FM-12+000399999V0203601N00101007501CN0200001N1+02821+02461101701ADDAA106000091AG10000GF106991061021008001001001KA1240N+02061MA1999999101651MD1999999+0011REMSYN017 333 20206 58001;
0096834980999991995011318004-17733-039250FM-12+000399999V0200901N00411220001CN0200001N1+02941+02361101411ADDAA106000091AG10000GF102991021011008001001001MA1999999101361MD1999999+0001REMSYN011 333 58000;
0137834980999991995011400004-17733-039250FM-12+000399999V0200901N00101220001CN9999999N9+02521+02341101511ADDAA106000091AG10000GA1001+999999999GF100991001001999999001001MA1999999101461MD1999999-0061REMSYN017 333 10/// 59006;EQDQ01+000002VOVAR 
0115834980999991995011412004-17733-039250FM-12+000399999V0201401N00151220001CN0200001N1+02691+02461101651ADDAA106000091AG10000GF105991041021008001001041KA1240N+02201MA1999999101601MD1999999-0051REMSYN017 333 20220 59005;
0096834980999991995011418004-17733-039250FM-12+000399999V0200901N00461220001CN0200001N1+02971+02351101411ADDAA106000091AG10000GF102991011011008001001041MA1999999101361MD1999999+0001REMSYN011 333 58000;
0115834980999991995011512004-17733-039250FM-12+000399999V0203601N00151220001CN0200001N1+02721+02521101661ADDAA106000091AG10000GF104991041021008001001001KA1240N+01571MA1999999101611MD1999999+0011REMSYN017 333 20157 58001;
0096834980999991995011518004-17733-039250FM-12+000399999V0200501N00511220001CN0200001N1+03001+02321101331ADDAA106000091AG10000GF101991011011008001001001MA1999999101281MD1999999-0081REMSYN011 333 59008;
0115834980999991995011612004-17733-039250FM-12+000399999V0203601N00361007501CN0200001N1+02761+02421101591ADDAA106000091AG10000GF106991061041008001001001KA1240N+02211MA1999999101541MD1999999-0071REMSYN017 333 20221 59007;
0096834980999991995011618004-17733-039250FM-12+000399999V0200501N00621220001CN0200001N1+02941+02311101211ADDAA106000091AG10000GF105991001001999999001061MA1999999101161MD1999999-0121REMSYN011 333 59012;
0121834980999991995011700004-17733-039250FM-12+000399999V0200501N00261220001CN9999999N9+02561+02361101361ADDAA106000091AG10000GF101991011011008001001001MA1999999101311MD1999999-0091REMSYN017 333 10/// 59009;EQDQ01+000002VOVAR 
0115834980999991995011712004-17733-039250FM-12+000399999V0203601N00511220001CN0200001N1+02731+02341101421ADDAA106000091AG10000GF104991041021008001001001KA1240N+02231MA1999999101371MD1999999-0171REMSYN017 333 20223 59017;
0096834980999991995011718004-17733-039250FM-12+000399999V0200501N00571220001CN0200001N1+02991+02441101071ADDAA106000091AG10000GF105991001001999999001011MA1999999101021MD1999999-0141REMSYN011 333 59014;
0121834980999991995011800004-17733-039250FM-12+000399999V0200501N00261220001CN9999999N9+02571+02361101211ADDAA106000091AG10000GF103991001001999999001011MA1999999101161MD1999999-0151REMSYN017 333 10/// 59015;EQDQ01+000002VOVAR 
0096834980999991995011818004-17733-039250FM-12+000399999V0200501N00621220001CN0200001N1+02981+02331101141ADDAA106000091AG10000GF103991001001999999001091MA1999999101091MD1999999+0071REMSYN011 333 58007;
0137834980999991995011900004-17733-039250FM-12+000399999V0200501N00311220001CN9999999N9+02521+02431101251ADDAA106000091AG10000GA1001+999999999GF100991001001999999001001MA1999999101201MD1999999+0041REMSYN017 333 10/// 58004;EQDQ01+000002VOVAR 
0115834980999991995011912004-17733-039250FM-12+000399999V0200501N00621007501CN0200001N1+02821+02481101521ADDAA106000091AG10000GF106991061021008001001001KA1240N+02291MA1999999101471MD1999999+0191REMSYN017 333 20229 58019;
0096834980999991995011918004-17733-039250FM-12+000399999V0200501N00571220001CN0200001N1+02981+02351101311ADDAA106000091AG10000GF103991011011008001001051MA1999999101261MD1999999+0171REMSYN011 333 58017;
0137834980999991995012000004-17733-039250FM-12+000399999V0200501N00311220001CN9999999N9+99999+99999101461ADDAA106000091AG10000GA1001+999999999GF100991001001999999001001MA1999999101411MD1999999+0211REMSYN017 333 10/// 58021;EQDQ01+000002VOVAR 
0115834980999991995012012004-17733-039250FM-12+000399999V0203601N00461007501CN0200001N1+02741+02501101621ADDAA106000091AG10000GF106991061051008001001001KA1240N+02321MA1999999101571MD1999999+0101REMSYN017 333 20232 58010;
0096834980999991995012018004-17733-039250FM-12+000399999V0200501N00621220001CN0200001N1+02971+02401101381ADDAA106000091AG10000GF103991011011008001001081MA1999999101331MD1999999+0071REMSYN011 333 58007;
0121834980999991995012100004-17733-039250FM-12+000399999V0200501N00311220001CN9999999N9+02571+02491101391ADDAA106000091AG10000GF101991011011008001001001MA1999999101341MD1999999-0071REMSYN017 333 10/// 59007;EQDQ01+000002VOVAR 
0115834980999991995012112004-17733-039250FM-12+000399999V0200501N00571220001CN0200001N1+02861+02311101441ADDAA106000091AG10000GF104991021011008001001091KA1240N+02171MA1999999101391MD1999999-0181REMSYN017 333 20217 59018;
0096834980999991995012118004-17733-039250FM-12+000399999V0200501N00621220001CN0200001N1+03001+02321100981ADDAA106000091AG10000GF103991011011008001001081MA1999999100931MD1999999-0401REMSYN011 333 59040;
0115834980999991995012212004-17733-039250FM-12+000399999V0203601N00411105001CN0200001N1+02841+02481100941ADDAA106000091AG10000GF107991001001999999001061KA1240N+02351MA1999999100891MD1999999-0501REMSYN017 333 20235 59050;
0143834980999991995012300004-17733-039250FM-12+000399999V0202701N002619999999N9999999N9+02381+02361101021ADDAA106011091AG10009GA1091+999999999GF109991091999999999999999MA1999999100971MD1999999+0071REMSYN023 333 10/// 58007 60111;EQDQ01+000002VOVAR 
0156834980999991995012312004-17733-039250FM-12+000399999V0203601N00361220001CN0200001N1+02961+02531100841ADDAA124015091AG10003GF103991001001999999001041KA1240N+02191MA1999999100791MD1999999-0101REMSYN023 333 20219 59010 60154;EQDQ01+000072PSTWM1Q02+000072PSTWM2
0149834980999991995012400004-17733-039250FM-12+000399999V0200901N00101045001CN9999999N9+02381+02291101021ADDAA106009091AG10009AY191061AY291061GF108991031091008001041999MA1999999100971MD1999999+0001MW1971REMSYN023 333 10/// 58000 60091;EQDQ01+000002VOVAR 
0143834980999991995012412004-17733-039250FM-12+000399999V0203601N00311045001CN0200001N1+02701+02391101261ADDAA124012091AG10003AY161061AY221061GF106991011021008001031081KA1240N+02201MA1999999101211MD1999999+0421MW1211REMSYN023 333 20220 58042 60124;
0096834980999991995012518004-17733-039250FM-12+000399999V0200501N00571105001CN0200001N1+03021+02481101091ADDAA106000091AG10000GF106991021011008001041041MA1999999101041MD1999999+0111REMSYN011 333 58011;
0127834980999991995012600004-17733-039250FM-12+000399999V0200501N00411220001CN9999999N9+02621+02501101381ADDAA106000091AG10000GF102991021031008001001001MA1999999101331MD1999999+0081MW1131REMSYN017 333 10/// 58008;EQDQ01+000002VOVAR 
0115834980999991995012612004-17733-039250FM-12+000399999V0203601N00571105001CN0200001N1+02821+02461101461ADDAA106000091AG10000GF105991041011008001001091KA1240N+02321MA1999999101411MD1999999+0031REMSYN017 333 20232 58003;
0096834980999991995012618004-17733-039250FM-12+000399999V0200501N00571220001CN0200001N1+03001+02221101171ADDAA106000091AG10000GF103991011091008001081091MA1999999101121MD1999999+0081REMSYN011 333 58008;
0121834980999991995012700004-17733-039250FM-12+000399999V0200501N00311220001CN9999999N9+02551+02381101351ADDAA106000091AG10000GF103991001001999999001091MA1999999101301MD1999999-0031REMSYN017 333 10/// 59003;EQDQ01+000002VOVAR 
0115834980999991995012712004-17733-039250FM-12+000399999V0200501N00461220001CN0200001N1+02851+02311101551ADDAA106000091AG10000GF103991031021008001001001KA1240N+02181MA1999999101501MD1999999+0091REMSYN017 333 20218 58009;
0096834980999991995012718004-17733-039250FM-12+000399999V0200501N00571220001CN0200001N1+03011+02221101211ADDAA106000091AG10000GF102991001001999999001091MA1999999101161MD1999999+0041REMSYN011 333 58004;
0137834980999991995012800004-17733-039250FM-12+000399999V0200501N00311220001CN9999999N9+02521+02401101241ADDAA106000091AG10000GA1001+999999999GF100991001001999999001001MA1999999101191MD1999999-0111REMSYN017 333 10/// 59011;EQDQ01+000002VOVAR 
0115834980999991995012812004-17733-039250FM-12+000399999V0203601N00461220001CN0200001N1+02921+02321101321ADDAA106000091AG10000GF101991001001999999001051KA1240N+02091MA1999999101271MD1999999-0231REMSYN017 333 20209 59023;
0096834980999991995012818004-17733-039250FM-12+000399999V0200501N00721220001CN0200001N1+02961+02311100951ADDAA106000091AG10000GF104991001001999999001061MA1999999100901MD1999999-0261REMSYN011 333 59026;
0137834980999991995012900004-17733-039250FM-12+000399999V0200501N00511220001CN9999999N9+02561+02401101041ADDAA106000091AG10000GA1001+999999999GF100991001001999999001001MA1999999100991MD1999999-0201REMSYN017 333 10/// 59020;EQDQ01+000002VOVAR 
0115834980999991995013012004-17733-039250FM-12+000399999V0203601N00571045001CN0200001N1+02811+02461101211ADDAA106000091AG10000GF106991031021008001031081KA1240N+02281MA1999999101161MD1999999+0101REMSYN017 333 20228 58010;
0115834980999991995013112004-17733-039250FM-12+000399999V0203601N00461012001CN0100001N1+02841+02501101281ADDAA106000091AG10000GF108991051081008001011071KA1240N+02421MA1999999101241MD1999999+0071REMSYN017 333 20242 58007;
0096834980999991995013118004-17733-039250FM-12+000399999V0200501N00671045001CN0200001N1+02981+02441101011ADDAA106000091AG10000GF107991011011008001021061MA1999999100961MD1999999+0071REMSYN011 333 58007;
0121834980999991995020100004-17733-039250FM-12+000399999V0200501N00311105001CN9999999N9+02601+02151101251ADDAA106000091AG10000GF107991001001999999001061MA1999999101201MD1999999+0111REMSYN017 333 10/// 58011;EQDQ01+000002VOVAR 
0115834980999991995020112004-17733-039250FM-12+000399999V0203601N00511045001CN0200001N1+02891+02371101331ADDAA106000091AG10000GF106991031021008001021041KA1240N+02381MA1999999101281MD1999999+0051REMSYN017 333 20238 58005;
0115834980999991995020400004-17733-039250FM-12+000399999V0200901N00411105001CN0200001N1+02921+02341101541ADDAA106000091AG10000GF107991011011008001001021KA1240N+02221MA1999999101491MD1999999+0061REMSYN017 333 20222 58006;
0096834980999991995020418004-17733-039250FM-12+000399999V0200901N00411105001CN0200001N1+02961+02451101401ADDAA106000091AG10000GF107991011011008001001021MA1999999101351MD1999999+0141REMSYN011 333 58014;
0115834980999991995020512004-17733-039250FM-12+000399999V0200501N00461220001CN0200001N1+02861+02371101611ADDAA106000091AG10000GF106991031021008001001041KA1240N+02201MA1999999101561MD1999999+0071REMSYN017 333 20220 58007;
0096834980999991995020518004-17733-039250FM-12+000399999V0200501N00461220001CN0200001N1+03021+02211101341ADDAA106000091AG10000GF104991011011008001001041MA1999999101291MD1999999-0061REMSYN011 333 59006;
0121834980999991995020600004-17733-039250FM-12+000399999V0200501N00211220001CN9999999N9+02531+02381101531ADDAA106000091AG10000GF102991011011008001001011MA1999999101481MD1999999-0071REMSYN017 333 10/// 59007;EQDQ01+000002VOVAR 
0115834980999991995020612004-17733-039250FM-12+000399999V0200501N00311105001CN0200001N1+02881+02351101621ADDAA106000091AG10000GF105991041021008001001021KA1240N+02201MA1999999101571MD1999999+0011REMSYN017 333 20220 58001;
0121834980999991995020700004-17733-039250FM-12+000399999V0200501N00311220001CN9999999N9+02611+02481101401ADDAA106000091AG10000GF102991001001999999001091MA1999999100351MD1999999-0131REMSYN017 333 10/// 59013;EQDQ01+000002VOVAR 
0115834980999991995020712004-17733-039250FM-12+000399999V0203601N00151220001CN0200001N1+02801+02421101541ADDAA106000091AG10000GF105991041021008001001011KA1240N+02261MA1999999101491MD1999999-0081REMSYN017 333 20226 59008;
0096834980999991995020718004-17733-039250FM-12+000399999V0200501N00311220001CN0200001N1+03061+99999101321ADDAA106000091AG10000GF103991021011008001001011MA1999999101271MD1999999+0041REMSYN011 333 58004;
0121834980999991995020800004-17733-039250FM-12+000399999V0200501N00311220001CN9999999N9+02621+02441101551ADDAA106000091AG10000GF102991021011008001001001MA1999999101501MD1999999+0151REMSYN017 333 10/// 58015;EQDQ01+000002VOVAR 
0115834980999991995020812004-17733-039250FM-12+000399999V0200501N00461007501CN0200001N1+02861+02501101711ADDAA106000091AG10000GF106991051021008001001061KA1240N+02181MA1999999101661MD1999999+0171REMSYN017 333 20218 58017;
0096834980999991995020818004-17733-039250FM-12+000399999V0200901N00461105001CN0200001N1+03001+02491101401ADDAA106000091AG10000GF107991011011008001001021MA1999999101351MD1999999+0081REMSYN011 333 58008;
0121834980999991995020900004-17733-039250FM-12+000399999V0200901N00151220001CN9999999N9+02581+02511101661ADDAA106000091AG10000GF101991001001999999001051MA1999999101611MD1999999+0111REMSYN017 333 10/// 58011;EQDQ01+000002VOVAR 
0115834980999991995020912004-17733-039250FM-12+000399999V0203601N00261220001CN0200001N1+02871+02441101731ADDAA106000091AG10000GF105991031021008001001041KA1240N+02291MA1999999101681MD1999999+0021REMSYN017 333 20229 58002;
0096834980999991995020918004-17733-039250FM-12+000399999V0200501N00511105001CN0200001N1+03021+02341101371ADDAA106000091AG10000GF106991001001999999001071MA1999999101321MD1999999-0031REMSYN011 333 59003;
0121834980999991995021000004-17733-039250FM-12+000399999V0200501N003119999999N9999999N9+02681+02541101511ADDAA106000091AG10000GF106991031001012501031071MA1999999101461MD1999999-0151REMSYN017 333 10/// 59015;EQDQ01+000002VOVAR 
0115834980999991995021012004-17733-039250FM-12+000399999V0203601N00461045001CN0200001N1+02801+02481101581ADDAA106000091AG10000GF106991021021008001031081KA1240N+02481MA1999999101531MD1999999-0151REMSYN017 333 20248 59015;
0096834980999991995021118004-17733-039250FM-12+000399999V0200501N00511220001CN0200001N1+03061+02351101071ADDAA106000091AG10000GF102991021011008001001001MA1999999101021MD1999999-0161REMSYN011 333 59016;
0121834980999991995021200004-17733-039250FM-12+000399999V0200501N00311220001CN9999999N9+02621+02421101281ADDAA106000091AG10000GF104991021011008001001011MA1999999101231MD1999999-0121REMSYN017 333 10/// 59012;EQDQ01+000002VOVAR 
0115834980999991995021212004-17733-039250FM-12+000399999V0203601N00411007501CN0200001N1+02921+02471101431ADDAA106000091AG10000GF107991051041008001001061KA1240N+02321MA1999999101381MD1999999-0021REMSYN017 333 20232 59002;
0121834980999991995021300004-17733-039250FM-12+000399999V0200501N00211220001CN9999999N9+02661+02521101291ADDAA106000091AG10000GF101991001001999999001051MA1999999101241MD1999999+0011REMSYN017 333 10/// 58001;EQDQ01+000002VOVAR 
0096834980999991995021318004-17733-039250FM-12+000399999V0200501N00461220001CN0200001N1+03081+02441101041ADDAA106000091AG10000GF106991001001999999001041MA1999999100991MD1999999-0081REMSYN011 333 59008;
0137834980999991995021400004-17733-039250FM-12+000399999V0200501N00261220001CN9999999N9+02631+02521101211ADDAA106000091AG10000GA1001+999999999GF100991001001999999001001MA1999999101161MD1999999-0081REMSYN017 333 10/// 59008;EQDQ01+000002VOVAR 
0115834980999991995021412004-17733-039250FM-12+000399999V0200501N00311220001CN0200001N1+02921+02501101311ADDAA106000091AG10000GF103991031011008001001001KA1240N+02291MA1999999101261MD1999999-0071REMSYN017 333 20229 59007;
0096834980999991995021418004-17733-039250FM-12+000399999V0200501N00621220001CN0200001N1+03101+02361100941ADDAA106000091AG10000GF104991001001999999001041MA1999999100891MD1999999-0101REMSYN011 333 59010;
0137834980999991995021500004-17733-039250FM-12+000399999V0200501N00461220001CN9999999N9+02641+02501101041ADDAA106000091AG10000GA1001+999999999GF100991001001999999001001MA1999999100991MD1999999-0171REMSYN017 333 10/// 59017;EQDQ01+000002VOVAR 
0115834980999991995021512004-17733-039250FM-12+000399999V0203601N00411220001CN0200001N1+02881+02441101251ADDAA106000091AG10000GF104991041021008001001001KA1240N+02311MA1999999101201MD1999999-0061REMSYN017 333 20231 59006;
0115834980999991995021612004-17733-039250FM-12+000399999V0203601N00571220001CN0200001N1+03001+02551101041ADDAA106000091AG10000GF105991011011008001001081KA1240N+02371MA1999999100991MD1999999-0211REMSYN017 333 20237 59021;
0096834980999991995021618004-17733-039250FM-12+000399999V0203601N00671220001CN0200001N1+03201+02411100781ADDAA106000091AG10000GF104991001001999999001081MA1999999100731MD1999999-0161REMSYN011 333 59016;
0115834980999991995021700004-17733-039250FM-12+000399999V0200501N00311220001CN0200001N1+02961+02531101231ADDAA106000091AG10000GF105991021021008001001081KA1240N+02381MA1999999101181MD1999999+0191REMSYN017 333 20238 58019;
0096834980999991995021718004-17733-039250FM-12+000399999V0200501N00571220001CN0200001N1+03181+02411100871ADDAA106000091AG10000GF103991001001999999001081MA1999999100821MD1999999+0091REMSYN011 333 58009;
0121834980999991995021800004-17733-039250FM-12+000399999V0200501N00151220001CN9999999N9+02641+02501101061ADDAA106000091AG10000GF102991001001999999001081MA1999999101011MD1999999+0161REMSYN017 333 10/// 58016;EQDQ01+000002VOVAR 
0096834980999991995021818004-17733-039250FM-12+000399999V0203601N00621220001CN0200001N1+03161+02371100951ADDAA106000091AG10000GF102991021011008001001001MA1999999100901MD1999999+0081REMSYN011 333 58008;
0115834980999991995022012004-17733-039250FM-12+000399999V0201401N00101220001CN0200001N1+02741+02501101351ADDAA106000091AG10000GF106991041021008001001041KA1240N+02291MA1999999101301MD1999999+0111REMSYN017 333 20229 58011;
0096834980999991995022018004-17733-039250FM-12+000399999V0200901N00511220001CN0200001N1+03161+02421101091ADDAA106000091AG10000GF103991001001999999001081MA1999999101041MD1999999+0251REMSYN011 333 58025;
0121834980999991995022100004-17733-039250FM-12+000399999V0200901N00151220001CN9999999N9+02641+02411101341ADDAA106000091AG10000GF101991011011008001001001MA1999999101291MD1999999+0301REMSYN017 333 10/// 58030;EQDQ01+000002VOVAR 
0173834980999991995022112004-17733-039250FM-12+000399999V0201801N00101105001CN0200001N1+02561+02541101521ADDAA106999999AA224000591AG10003AY161061AY221061GF106991041021008001001091KA1240N+02291MA1999999101471MD1999999+0171MW1911REMSYN023 333 20229 58017 69944;EQDQ01  00002PRCP06
0096834980999991995022118004-17733-039250FM-12+000399999V0200901N00311045001CN0200001N1+02961+02561101301ADDAA106000091AG10000GF106991031021008001051001MA1999999101251MD1999999+0211REMSYN011 333 58021;
0115834980999991995022212004-17733-039250FM-12+000399999V0201401N00261007501CN0200001N1+02881+02051101521ADDAA106000091AG10000GF105991051021008001001001KA1240N+02331MA1999999101471MD1999999+0001REMSYN017 333 20233 58000;
0096834980999991995022218004-17733-039250FM-12+000399999V0201401N00311220001CN0200001N1+03021+02481101211ADDAA106000091AG10000GF102991021011008001001001MA1999999101161MD1999999-0091REMSYN011 333 59009;
0137834980999991995022300004-17733-039250FM-12+000399999V0200901N00151220001CN9999999N9+02661+02391101431ADDAA106000091AG10000GA1001+999999999GF100991001001999999001001MA1999999101381MD1999999-0021REMSYN017 333 10/// 59002;EQDQ01+000002VOVAR 
0115834980999991995022312004-17733-039250FM-12+000399999V0201401N00051007501CN0200001N1+02681+02521101411ADDAA106000091AG10000GF106991061021008001001001KA1240N+02221MA1999999101361MD1999999-0111REMSYN017 333 20222 59011;
0096834980999991995022318004-17733-039250FM-12+000399999V0200901N00411220001CN0200001N1+03161+02371101091ADDAA106000091AG10000GF102991021011008001001001MA1999999101041MD1999999-0121REMSYN011 333 59012;
0115834980999991995022412004-17733-039250FM-12+000399999V0201801N00151045001CN0200001N1+02781+02561101491ADDAA106000091AG10000GF106991041021008001041001KA1240N+02261MA1999999101441MD1999999+0081REMSYN017 333 20226 58008;
0096834980999991995022418004-17733-039250FM-12+000399999V0200501N00211220001CN0200001N1+03141+02381101201ADDAA106000091AG10000GF103991021011008001001011MA1999999101151MD1999999+0111REMSYN011 333 58011;
0121834980999991995022500004-17733-039250FM-12+000399999V0200501N00101220001CN9999999N9+02581+02441101381ADDAA106000091AG10000GF101991011011008001001001MA1999999101331MD1999999+0131REMSYN017 333 10/// 58013;EQDQ01+000002VOVAR 
0115834980999991995022512004-17733-039250FM-12+000399999V0201801N00101007501CN0200001N1+02781+02561101551ADDAA106000091AG10000GF105991051021008001001001KA1240N+02271MA1999999101501MD1999999+0061REMSYN017 333 20227 58006;
0102834980999991995022612004-17733-039250FM-12+000399999V0201401N00151220001CN0200001N1+02831+02601101631ADDAA106000091AG10000GF104991041021008001001001MA1999999101581MD1999999+0081REMSYN017 333 02231 58008;
0096834980999991995022618004-17733-039250FM-12+000399999V0201401N00461220001CN0200001N1+03161+02571101381ADDAA106000091AG10000GF102991001001999999001081MA1999999101331MD1999999+0051REMSYN011 333 58005;
0137834980999991995022700004-17733-039250FM-12+000399999V0200901N00151220001CN9999999N9+02681+02401101551ADDAA106000091AG10000GA1001+999999999GF100991001001999999001001MA1999999101501MD1999999+0071REMSYN017 333 10/// 58007;EQDQ01+000002VOVAR 
0115834980999991995022712004-17733-039250FM-12+000399999V0200501N00101007501CN0200001N1+02821+02561101791ADDAA106000091AG10000GF105991051021008001001001KA1240N+02341MA1999999101741MD1999999+0161REMSYN017 333 20234 58016;
0096834980999991995022718004-17733-039250FM-12+000399999V0200901N00261220001CN0200001N1+03141+02501101331ADDAA106000091AG10000GF103991021011008001001011MA1999999101281MD1999999-0051REMSYN011 333 59005;
0121834980999991995022800004-17733-039250FM-12+000399999V0200901N00101220001CN9999999N9+02681+02461101431ADDAA106000091AG10000GF102991021011008001001001MA1999999101381MD1999999-0121REMSYN017 333 10/// 59012;EQDQ01+000002VOVAR 
0143834980999991995022812004-17733-039250FM-12+000399999V0200901N00211007501CN0200001N1+02901+02681101531ADDAA124002091AG10003AY161061AY221061GF106991061031008001001001KA1240N+02361MA1999999101481MD1999999-0261MW1211REMSYN023 333 20236 59026 60024;
0096834980999991995022818004-17733-039250FM-12+000399999V0200901N00361220001CN0200001N1+02971+02531101221ADDAA106000091AG10000GF103991011011008001001041MA1999999101171MD1999999-0111REMSYN011 333 59011;
0137834980999991995030100004-17733-039250FM-12+000399999V0200901N00211220001CN9999999N9+02711+02371101321ADDAA106000091AG10000GA1001+999999999GF100991001001999999001001MA1999999101271MD1999999-0111REMSYN017 333 10/// 59011;EQDQ01+000002VOVAR 
0143834980999991995030112004-17733-039250FM-12+000399999V0201801N00151045001CN0040001N1+02481+02341101641ADDAA124024091AG10003AY161061AY261061GF108991031071008001021999KA1240N+02321MA1999999101591MD1999999+0111MW1631REMSYN023 333 20232 58011 60244;
0124834980999991995030118004-17733-039250FM-12+000399999V0201401N00151220001CN0200001N1+03021+02661101351ADDAA106002091AG10003AY161061AY201061GF103991011011008001001021MA1999999101301MD1999999+0131MW1211REMSYN017 333 58013 60021;
0143834980999991995030212004-17733-039250FM-12+000399999V0201801N00101045001CN0100001N1+02621+02571101591ADDAA124003091AG10003AY161061AY221061GF108991031051008001011999KA1240N+02361MA1999999101541MD1999999-0051MW1211REMSYN023 333 20236 59005 60034;
0085834980999991995030218004-17733-039250FM-12+000399999V0201401N00311045001CN0200001N1+02841+02601101391ADDAG10000GF106991021051008001011001MA1999999101341MD1999999+0041REMSYN011 333 58004;
0137834980999991995030300004-17733-039250FM-12+000399999V0200901N00101220001CN9999999N9+02661+02411101491ADDAA106000091AG10000GA1001+999999999GF100991001001999999001001MA1999999101441MD1999999+0071REMSYN017 333 10/// 58007;EQDQ01+000002VOVAR 
0143834980999991995030312004-17733-039250FM-12+000399999V0202301N001519999999N0200001N1+02881+02701101621ADDAA124001091AG10003AY161061AY221061GF106991999999008001999999KA1240N+02411MA1999999101571MD1999999+0031MW1991REMSYN023 333 20241 58003 69984;
0096834980999991995030318004-17733-039250FM-12+000399999V0200901N00361220001CN0200001N1+03161+02571101301ADDAA106000091AG10000GF103991011011008001031041MA1999999101251MD1999999-0091REMSYN011 333 59009;
0137834980999991995030400004-17733-039250FM-12+000399999V0200501N00211220001CN9999999N9+02641+02541101431ADDAA106000091AG10000GA1001+999999999GF100991001001999999001001MA1999999101381MD1999999-0061REMSYN017 333 10/// 59006;EQDQ01+000002VOVAR 
0115834980999991995030412004-17733-039250FM-12+000399999V0201401N00101220001CN0200001N1+02811+02441101561ADDAA106000091AG10000GF105991031021008001001081KA1240N+02291MA1999999101511MD1999999-0061REMSYN017 333 20229 59006;
0096834980999991995030418004-17733-039250FM-12+000399999V0200901N00461220001CN0200001N1+03101+02441101181ADDAA106000091AG10000GF102991001001999999001021MA1999999101131MD1999999-0121REMSYN011 333 59012;
0137834980999991995030500004-17733-039250FM-12+000399999V0200501N00311220001CN9999999N9+02621+02501101281ADDAA106000091AG10000GA1001+999999999GF100991001001999999001001MA1999999101231MD1999999-0151REMSYN017 333 10/// 59015;EQDQ01+000002VOVAR 
0115834980999991995030512004-17733-039250FM-12+000399999V0200501N00311007501CN0200001N1+02901+02431101461ADDAA106000091AG10000GF105991051021008001001001KA1240N+02261MA1999999101411MD1999999-0101REMSYN017 333 20226 59010;
0096834980999991995030518004-17733-039250FM-12+000399999V0203601N00511220001CN0200001N1+02981+02331101151ADDAA106000091AG10000GF102991021011008001001001MA1999999101101MD1999999-0031REMSYN011 333 59003;
0121834980999991995030600004-17733-039250FM-12+000399999V0200501N00461220001CN9999999N9+02621+02441101261ADDAA106000091AG10000GF102991021011008001001001MA1999999101211MD1999999-0021REMSYN017 333 10/// 59002;EQDQ01+000002VOVAR 
0115834980999991995030612004-17733-039250FM-12+000399999V0203601N00461220001CN0200001N1+02991+02401101441ADDAA106000091AG10000GF105991031021008001001041KA1240N+02371MA1999999101391MD1999999-0021REMSYN017 333 20237 59002;
0082834980999991995030618004-17733-039250FM-12+000399999V0200501N00571220001CN0200001N1+03091+02521101141ADDAA106000091AG10000GF105991021011008001001041MA1999999101091REMSYN011 333 52001;
0121834980999991995030700004-17733-039250FM-12+000399999V0200501N00211220001CN9999999N9+02701+02501101301ADDAA106000091AG10000GF102991021011008001001001MA1999999101331MD1999999+0121REMSYN017 333 10/// 58012;EQDQ01+000002VOVAR 
0143834980999991995030712004-17733-039250FM-12+000399999V0200501N00151220001CN0200001N1+02761+02501101471ADDAA124000191AG10003AY161061AY211061GF104991021021008001001041KA1240N+02341MA1999999101421MD1999999+0031MW1211REMSYN023 333 20234 58003 69924;
0096834980999991995030718004-17733-039250FM-12+000399999V0200501N00511220001CN0200001N1+03081+02291101201ADDAA106000091AG10000GF102991001001999999001081MA1999999101151MD1999999+0061REMSYN011 333 58006;
0121834980999991995030800004-17733-039250FM-12+000399999V0200901N00311220001CN9999999N9+02641+02291101371ADDAA106000091AG10000GF101991011011008001001001MA1999999101321MD1999999-0011REMSYN017 333 10/// 59001;EQDQ01+000002VOVAR 
0115834980999991995030812004-17733-039250FM-12+000399999V0202301N00101045001CN0100001N1+02721+02501101491ADDAA106000091AG10000GF108991041051008001011999KA1240N+02241MA1999999101441MD1999999+0021REMSYN017 333 20224 58002;
0096834980999991995030818004-17733-039250FM-12+000399999V0200901N00311105001CN0200001N1+03061+02301101251ADDAA106000091AG10000GF105991021011008001041011MA1999999101201MD1999999+0051REMSYN011 333 58005;
0137834980999991995030900004-17733-039250FM-12+000399999V0200501N00101220001CN9999999N9+02641+02331101351ADDAA106000091AG10000GA1001+999999999GF100991001001999999001001MA1999999101301MD1999999-0021REMSYN017 333 10/// 59002;EQDQ01+000002VOVAR 
0115834980999991995030912004-17733-039250FM-12+000399999V0200901N00411007501CN0200001N1+02961+02381101561ADDAA106000091AG10000GF106991051041008001001011KA1240N+02201MA1999999101511MD1999999+0071REMSYN017 333 20220 58007;
0096834980999991995030918004-17733-039250FM-12+000399999V0200901N00411007501CN0200001N1+03101+02441101341ADDAA106000091AG10000GF106991051021008001001051MA1999999101291MD1999999+0091REMSYN011 333 58009;
0121834980999991995031000004-17733-039250FM-12+000399999V0200901N00101220001CN9999999N9+02641+02501101541ADDAA106000091AG10000GF102991011051008001001051MA1999999101491MD1999999-0191REMSYN017 333 10/// 59019;EQDQ01+000002VOVAR 
0156834980999991995031012004-17733-039250FM-12+000399999V0200501N00101045001CN0100001N1+02501+02431101791ADDAA106999999AG10008AY191061AY291061GF107991041051008001021081KA1240N+02301MA1999999101741MD1999999+0231MW1971REMSYN017 333 20230 58023;EQDQ01  00002PRCP06
0132834980999991995031100004-17733-039250FM-12+000399999V0200901N00211220001CN9999999N9+02591+02481101711ADDAG10003AY161061AY251061GF103991021011008001001081MA1999999101661MD1999999+0171MW1211REMSYN017 333 10/// 58017;EQDQ01+000002VOVAR 
0121834980999991995031112004-17733-039250FM-12+000399999V0201401N00261220001CN0200001N1+02921+02471101781ADDAA124002091AG10000GF103991031021008001001001KA1240N+02261MA1999999101731MD1999999-0011REMSYN023 333 20226 59001 60024;
0096834980999991995031118004-17733-039250FM-12+000399999V0201401N00311220001CN0200001N1+02981+02431101451ADDAA106000091AG10000GF102991021011008001001001MA1999999101401MD1999999-0191REMSYN011 333 59019;
0121834980999991995031200004-17733-039250FM-12+000399999V0201401N00311220001CN9999999N9+02741+02481101591ADDAA106000091AG10000GF102991021021008001001001MA1999999101541MD1999999-0121REMSYN017 333 10/// 59012;EQDQ01+000002VOVAR 
0115834980999991995031212004-17733-039250FM-12+000399999V0201401N00101007501CN0200001N1+02781+02581101461ADDAA106000091AG10000GF106991051021008001041001KA1240N+02221MA1999999101411MD1999999-0321REMSYN017 333 20222 59032;
0096834980999991995031218004-17733-039250FM-12+000399999V0200901N00261220001CN0200001N1+02981+02441101011ADDAA106000091AG10000GF103991021011008001041001MA1999999100961MD1999999-0441REMSYN011 333 59044;
0115834980999991995031312004-17733-039250FM-12+000399999V0200901N00211007501CN0200001N1+02781+02581101161ADDAA106000091AG10000GF106991061021008001001001KA1240N+02321MA1999999101111MD1999999-0301REMSYN017 333 20232 59030;
0096834980999991995031318004-17733-039250FM-12+000399999V0200901N00461220001CN0200001N1+03061+02451100831ADDAA106000091AG10000GF103991011011008001001061MA1999999100781MD1999999-0181REMSYN011 333 59018;
0121834980999991995031400004-17733-039250FM-12+000399999V0200501N00211220001CN9999999N9+02661+02461101011ADDAA106000091AG10000GF103991011011008001061061MA1999999100961MD1999999-0211REMSYN017 333 10/// 59021;EQDQ01+000002VOVAR 
0115834980999991995031412004-17733-039250FM-12+000399999V0200501N00461220001CN0200001N1+02771+02461100991ADDAA106000091AG10000GF105991041031008001001041KA1240N+02491MA1999999100941MD1999999-0171REMSYN017 333 20249 59017;
0096834980999991995031418004-17733-039250FM-12+000399999V0200501N00621220001CN0200001N1+03071+02431100701ADDAA106000091AG10000GF104991021011008001001041MA1999999100651MD1999999-0131REMSYN011 333 59013;
0143834980999991995031512004-17733-039250FM-12+000399999V0202701N00101045001CN0100001N1+02611+02531101171ADDAA124002091AG10003AY161061AY221061GF107991031051008001011091KA1240N+02351MA1999999101121MD1999999+0181MW1211REMSYN023 333 20235 58018 60024;
0121834980999991995031600004-17733-039250FM-12+000399999V0200501N00311105001CN9999999N9+02621+02441101091ADDAA106000091AG10000GF106991021001017501031081MA1999999101041MD1999999+0041REMSYN017 333 10/// 58004;EQDQ01+000002VOVAR 
0115834980999991995031612004-17733-039250FM-12+000399999V0203601N00511045001CN0200001N1+02961+02531101231ADDAA106000091AG10000GF106991041021008001031001KA1240N+02421MA1999999101181MD1999999+0061REMSYN017 333 20242 58006;
0124834980999991995031618004-17733-039250FM-12+000399999V0203601N00311045001CN0200001N1+02781+02601100991ADDAA106000591AG10003AY161061AY221061GF108991041051008001011999MA1999999100941MD1999999+0091MW1211REMSYN017 333 58009 69941;
0143834980999991995031712004-17733-039250FM-12+000399999V0201801N00361007501CN0100001N1+02701+02501101471ADDAA124000591AG10003AY161061AY261061GF108991071071008001071021KA1240N+02371MA1999999101421MD1999999+0241MW1161REMSYN023 333 20237 58024 69944;
0124834980999991995031718004-17733-039250FM-12+000399999V0201801N004110120019N0200001N1+02841+02601101331ADDAA106003091AG10003AY161061AY221061GF107991051081008001051061MA1999999101281MD1999999+0341MW1211REMSYN017 333 58034 60031;
0121834980999991995031812004-17733-039250FM-12+000399999V0201801N00461220001CN0200001N1+02861+02541101571ADDAA124003091AG10000GF105991041021008001001041KA1240N+02441MA1999999101521MD1999999-0101REMSYN023 333 20244 59010 60034;
0096834980999991995031818004-17733-039250FM-12+000399999V0201801N00511220001CN0200001N1+02961+02491101431ADDAA106000091AG10000GF104991031021008001001011MA1999999101381MD1999999-0101REMSYN011 333 59010;
0115834980999991995031912004-17733-039250FM-12+000399999V0201401N00411220001CN0200001N1+02861+02441101611ADDAA106000091AG10000GF105991021011008001001081KA1240N+02221MA1999999101561MD1999999+0041REMSYN017 333 20222 58004;
0096834980999991995031918004-17733-039250FM-12+000399999V0201401N00411045001CN0200001N1+02951+02491101451ADDAA106000091AG10000GF106991021021008001031081MA1999999101401MD1999999+0021REMSYN011 333 58002;
0121834980999991995032000004-17733-039250FM-12+000399999V0201401N00311007501CN9999999N9+02751+02481101631ADDAA106000091AG10000GF107991051051008001011001MA1999999101581MD1999999+0011REMSYN017 333 10/// 58001;EQDQ01+000002VOVAR 
0115834980999991995032012004-17733-039250FM-12+000399999V0201801N00261045001CN0100001N1+02781+02421101661ADDAA106000091AG10000GF107991031021008001041011KA1240N+02331MA1999999101611MD1999999+0051REMSYN017 333 20233 58005;
0096834980999991995032018004-17733-039250FM-12+000399999V0201401N00311045001CN0200001N1+02821+02461101431ADDAA106000091AG10000GF106991041021008001041001MA1999999101381MD1999999-0021REMSYN011 333 59002;
0121834980999991995032100004-17733-039250FM-12+000399999V0201401N00311220001CN9999999N9+02741+02471101591ADDAA106000091AG10000GF102991011011008001001011MA1999999101541MD1999999-0041REMSYN017 333 10/// 59004;EQDQ01+000002VOVAR 
0115834980999991995032112004-17733-039250FM-12+000399999V0201801N00211007501CN0200001N1+02761+02421101591ADDAA106000091AG10000GF106991051041008001001051KA1240N+02241MA1999999101541MD1999999-0071REMSYN017 333 20224 59007;
0096834980999991995032118004-17733-039250FM-12+000399999V0201801N00621220001CN0200001N1+02881+02351101211ADDAA106000091AG10000GF106991001001999999001061MA1999999101161MD1999999-0221REMSYN011 333 59022;
0121834980999991995032200004-17733-039250FM-12+000399999V0201801N00461220001CN9999999N9+02741+02451101311ADDAA106000091AG10000GF101991001001999999001051MA1999999101261MD1999999-0281REMSYN017 333 10/// 59028;EQDQ01+000002VOVAR 
0115834980999991995032212004-17733-039250FM-12+000399999V0201401N00151105001CN0200001N1+02801+02541101241ADDAA106000091AG10000GF106991031021008001001091KA1240N+02271MA1999999101191MD1999999-0351REMSYN017 333 20227 59035;
0096834980999991995032218004-17733-039250FM-12+000399999V0201801N00511105001CN0200001N1+02881+02561100891ADDAA106000091AG10000GF106991011011008001001091MA1999999100841MD1999999-0321REMSYN011 333 59032;
0121834980999991995032300004-17733-039250FM-12+000399999V0201401N00261220001CN9999999N9+02721+02451101021ADDAA106000091AG10000GF102991001001999999001091MA1999999100971MD1999999-0291REMSYN017 333 10/// 59029;EQDQ01+000002VOVAR 
0096834980999991995032318004-17733-039250FM-12+000399999V0201401N00211105001CN0200001N1+02871+02421100691ADDAA106000091AG10000GF106991031021008001001081MA1999999100641MD1999999-0201REMSYN011 333 59020;
0121834980999991995032400004-17733-039250FM-12+000399999V0200901N00101220001CN9999999N9+02641+02501100941ADDAA106000091AG10000GF103991001001999999001091MA1999999100851MD1999999-0121REMSYN017 333 10/// 59012;EQDQ01+000002VOVAR 
0143834980999991995032412004-17733-039250FM-12+000399999V0203601N00411045001CN0100001N1+02701+02591100851ADDAA124018091AG10003AY161061AY221061GF108991041051008001011999KA1240N+02221MA1999999100801MD1999999-0291MW1211REMSYN023 333 20222 59029 60184;
0115834980999991995032418004-17733-039250FM-12+000399999V0203601N00411220001CN0200001N1+03061+02521100461ADDAA106000091AG10000GF104991021011008001041001MA1999999100411MD1999999-0231REMSYN011 333 59023;EQDQ01+999990APOSLP
0121834980999991995032500004-17733-039250FM-12+000399999V0203601N00311007501CN9999999N9+02661+02521100671ADDAA106000091AG10000GF108991051051008001011999MA1999999100621MD1999999-0231REMSYN017 333 10/// 59023;EQDQ01+000002VOVAR 
0143834980999991995032512004-17733-039250FM-12+000399999V0203601N00361045001CN0200001N1+02961+02531100851ADDAA124004091AG10003AY161061AY221061GF107991011031008001081061KA1240N+02361MA1999999100801MD1999999+0001MW1211REMSYN023 333 20236 58000 60044;
0096834980999991995032518004-17733-039250FM-12+000399999V0200501N00821045001CN0200001N1+03101+02631100591ADDAA106000091AG10000GF107991021031008001091031MA1999999100541MD1999999+0131REMSYN011 333 58013;
0143834980999991995032612004-17733-039250FM-12+000399999V0201801N00461007501CN0100001N1+02581+02511101171ADDAA124024091AG10003AY161061AY261061GF108991051071008001021999KA1240N+02251MA1999999101121MD1999999+0321MW1211REMSYN023 333 20225 58032 60244;
0124834980999991995032618004-17733-039250FM-12+000399999V0201801N00621045001CN0100001N1+02571+02541100931ADDAA106019091AG10003AY161061AY261061GF108991041071008001021999MA1999999100881MD1999999+0391MW1211REMSYN017 333 58039 60191;
0143834980999991995032712004-17733-039250FM-12+000399999V0201801N00101045001CN0040001N1+02381+02361101321ADDAA124124091AG10003AY161061AY261061GF108991031071008001021999KA1240N+02201MA1999999101271MD1999999+0151MW1211REMSYN023 333 20220 58015 61244;
0124834980999991995032718004-17733-039250FM-12+000399999V0201801N00261007501CN0100001N1+02471+02321101001ADDAA106008091AG10003AY161061AY221061GF108991051051008001021999MA1999999100951MD1999999+0071MW1211REMSYN017 333 58007 60081;
0121834980999991995032812004-17733-039250FM-12+000399999V0202301N00311007501CN0040001N1+02401+02371101051ADDAA124018091AG10000GF108991051071008001021999KA1240N+02141MA1999999101001MD1999999-0271REMSYN023 333 20214 59027 60184;
0124834980999991995032818004-17733-039250FM-12+000399999V0203601N00411045001CN0200001N1+02421+02391100971ADDAA106009091AG10003AY161061AY261061GF108991041071008001021999MA1999999100921MD1999999-0031MW1601REMSYN017 333 59003 60091;
0149834980999991995032900004-17733-039250FM-12+000399999V0203601N00101045001CN9999999N9+02541+02491101251ADDAA106005091AG10003AY161061AY261061GF108991031071008001021999MA1999999101201MD1999999+0111MW1601REMSYN023 333 10/// 58011 60051;EQDQ01+000002VOVAR 
0143834980999991995032912004-17733-039250FM-12+000399999V0203601N00361045001CN0100001N1+02521+02341101461ADDAA124015091AG10003AY161061AY261061GF107991041071008001021081KA1240N+02141MA1999999101411MD1999999+0411MW1611REMSYN023 333 20214 58041 60154;
0137834980999991995033000004-17733-039250FM-12+000399999V0200501N00051220001CN9999999N9+02501+02411101241ADDAA106000091AG10000GA1001+999999999GF100991001001999999001001MA1999999101191MD1999999-0011REMSYN017 333 10/// 59001;EQDQ01+000002VOVAR 
0115834980999991995033012004-17733-039250FM-12+000399999V0203601N00211007501CN0200001N1+02781+02461101201ADDAA106000091AG10000GF106991051021008001001081KA1240N+02211MA1999999101271MD1999999-0161REMSYN017 333 20221 59016;
0096834980999991995033018004-17733-039250FM-12+000399999V0200501N00311220001CN0200001N1+03021+02311100941ADDAA106000091AG10000GF102991011021008001001081MA1999999100891MD1999999-0181REMSYN011 333 59018;
0115834980999991995033112004-17733-039250FM-12+000399999V0203601N00151220001CN0200001N1+02811+02401101261ADDAA106000091AG10000GF104991041021008001001001KA1240N+02241MA1999999101211MD1999999-0041REMSYN017 333 20224 59004;
0096834980999991995033118004-17733-039250FM-12+000399999V0200501N00461220001CN0200001N1+02961+02421100901ADDAA106000091AG10000GF103991031011008001001001MA1999999100851MD1999999-0041REMSYN011 333 59004;
0137834980999991995040100004-17733-039250FM-12+000399999V0200501N00311220001CN9999999N9+02681+02481101091ADDAA106000091AG10000GA1001+999999999GF100991001001999999001001MA1999999101041MD1999999-0071REMSYN017 333 10/// 59007;EQDQ01+000002VOVAR 
0101834980999991995040112004-17733-039250FM-12+000399999V0203601N00411045001CN0200001N1+02781+02561101261ADDAA106000091AG10000GF107991041021008001041001KA1240N+02461MA1999999101211REMSYN017 333 20246 50000;
0096834980999991995040118004-17733-039250FM-12+000399999V0200501N00511220001CN0200001N1+02961+02451100931ADDAA106000091AG10000GF104991021011008001041001MA1999999100881MD1999999+0031REMSYN011 333 58003;
0121834980999991995040200004-17733-039250FM-12+000399999V0203601N00211220001CN9999999N9+02681+02481101101ADDAA106000091AG10000GF102991021011008001001001MA1999999101051MD1999999+0011REMSYN017 333 10/// 58001;EQDQ01+000002VOVAR 
0143834980999991995040212004-17733-039250FM-12+000399999V0203601N00311007501CN0200001N1+02921+02561101241ADDAA124000191AG10002AY161061AY221061GF106991061041008001001001KA1240N+02401MA1999999101191MD1999999-0021MW1211REMSYN023 333 20240 59002 69924;
0096834980999991995040218004-17733-039250FM-12+000399999V0200501N00621220001CN0200001N1+03041+02381100891ADDAA106000091AG10000GF102991011021008001001051MA1999999100841MD1999999-0041REMSYN011 333 59004;
0137834980999991995040300004-17733-039250FM-12+000399999V0200501N00311220001CN9999999N9+02681+02521101131ADDAA106000091AG10000GA1001+999999999GF100991001001999999001001MA1999999101081MD1999999+0031REMSYN017 333 10/// 58003;EQDQ01+000002VOVAR 
0115834980999991995040312004-17733-039250FM-12+000399999V0203601N00461220001CN0200001N1+02931+02471101121ADDAA106000091AG10000GF105991021011008001001041KA1240N+02391MA1999999101071MD1999999-0121REMSYN017 333 20239 59012;
0096834980999991995040318004-17733-039250FM-12+000399999V0200501N00361045001CN0200001N1+02801+02421100941ADDAA106000091AG10000GF106991041031008001021001MA1999999100891MD1999999+0051REMSYN011 333 58005;
0147834980999991995040412004-17733-039250FM-12+000399999V0202301N001519999999N0100001N1+02481+01481101441ADDAG10002AY161061AY261061GA1999+000159999GF107991031071008001011001KA1240N+02251MA1999999101391MW1211REMSYN017 333 20225 8032/;EQDQ01    003SCCGA1
0096834980999991995040418004-17733-039250FM-12+000399999V0201801N00571105001CN0200001N1+02751+02401101221ADDAA106000091AG10000GF106991021021008001001081MA1999999101171MD1999999+0281REMSYN011 333 58028;
0149834980999991995040500004-17733-039250FM-12+000399999V0201401N00311220001CN9999999N9+02601+02421101461ADDAA106000191AG10002AY161061AY201061GF103991031061008001001001MA1999999101411MD1999999+0091MW1211REMSYN023 333 10/// 58009 69921;EQDQ01+000002VOVAR 
0143834980999991995040512004-17733-039250FM-12+000399999V0201801N00311045001CN0100001N1+02541+02441101561ADDAA124002091AG10002AY161061AY221061GF106991031071008001011001KA1240N+02131MA1999999101511MD1999999+0121MW1211REMSYN023 333 20213 58012 60024;
0096834980999991995040518004-17733-039250FM-12+000399999V0201401N00411045001CN0100001N1+02661+02521101361ADDAA106000091AG10000GF108991021061008001011999MA1999999101311MD1999999+0141REMSYN011 333 58014;
0149834980999991995040600004-17733-039250FM-12+000399999V0201801N00511007501CN9999999N9+02541+02471101481ADDAA106003091AG10002AY161061AY221061GF108991051071008001021999MA1999999101431MD1999999+0021MW1211REMSYN023 333 10/// 58002 60031;EQDQ01+000002VOVAR 
0149834980999991995040612004-17733-039250FM-12+000399999V0201801N00511007501CN9999999N9+02541+02471101481ADDAA106003091AG10002AY161061AY221061GF108991051071008001021999MA1999999101431MD1999999+0021MW1211REMSYN023 333 10/// 58002 60031;EQDQ01+000002VOVAR 
0124834980999991995040618004-17733-039250FM-12+000399999V0201801N00411045001CN0200001N1+02641+02481101391ADDAA106011091AG10002AY161061AY261061GF107991011081008001071081MA1999999101341MD1999999+0031MW1621REMSYN017 333 58003 60111;
0143834980999991995040712004-17733-039250FM-12+000399999V0201401N00511220001CN0200001N1+02761+02301101571ADDAA124043091AG10002AY161061AY261061GF106991021011008001001041KA1240N+02221MA1999999101521MD1999999-0021MW1211REMSYN023 333 20222 59002 60434;
0096834980999991995040718004-17733-039250FM-12+000399999V0201801N00571045001CN0200001N1+02771+02361101331ADDAA106000091AG10000GF106991041051008001021041MA1999999101281MD1999999-0061REMSYN011 333 59006;
0149834980999991995040800004-17733-039250FM-12+000399999V0201801N00361045001CN9999999N9+02601+02481101391ADDAA106001091AG10002AY161061AY221061GF106991041051008001021041MA1999999101341MD1999999-0211MW1211REMSYN023 333 10/// 59021 60011;EQDQ01+000002VOVAR 
0143834980999991995040812004-17733-039250FM-12+000399999V0201401N00151045001CN0100001N1+02681+02561101431ADDAA124025091AG10002AY161061AY221061GF107991031051008001021041KA1240N+02221MA1999999101381MD1999999-0141MW1211REMSYN023 333 20222 59014 60254;
0096834980999991995040818004-17733-039250FM-12+000399999V0201401N00151007501CN0100001N1+02801+02481101211ADDAA106000091AG10000GF108991051051008001021999MA1999999101161MD1999999-0121REMSYN011 333 59012;
0149834980999991995040900004-17733-039250FM-12+000399999V0201401N001019999999N9999999N9+02641+02551101321ADDAA106000191AG10000GA1091+999999999GF109991091999999999999999MA1999999101271MD1999999-0071MW1211REMSYN023 333 10/// 59007 69921;EQDQ01+000002VOVAR 
0143834980999991995040912004-17733-039250FM-12+000399999V0200901N00101045001CN0100001N1+02601+02551101411ADDAA124002091AG10002AY161061AY261061GF107991041071008001011001KA1240N+02301MA1999999101361MD1999999-0021MW1211REMSYN023 333 20230 59002 60024;
0124834980999991995040918004-17733-039250FM-12+000399999V0201401N00151045001CN0040001N1+02621+02501101111ADDAA106003091AG10002AY161061AY261061GF108991031071008001021999MA1999999101061MD1999999-0101MW1211REMSYN017 333 59010 60031;
0149834980999991995041000004-17733-039250FM-12+000399999V0201401N00051045001CN9999999N9+02601+02151101271ADDAA106000191AG10002AY161061AY261061GF108991021071008001011999MA1999999101221MD1999999-0051MW1211REMSYN023 333 10/// 59005 69911;EQDQ01+000002VOVAR 
0143834980999991995041112004-17733-039250FM-12+000399999V0203601N00261045001CN0100001N1+02491+02411101481ADDAA124098091AG10002AY161061AY261061GF107991031071008001011071KA1240N+02161MA1999999101431MD1999999+0081MW1601REMSYN023 333 20216 58008 60984;
0124834980999991995041118004-17733-039250FM-12+000399999V0200501N00361045001CN0200001N1+02781+02341101151ADDAA106000191AG10002AY161061AY221061GF107991041081008001051051MA1999999101101MD1999999-0051MW1211REMSYN017 333 59005 69921;
0121834980999991995041200004-17733-039250FM-12+000399999V0200501N00101220001CN9999999N9+02521+02361101371ADDAA106000091AG10000GF105991001001999999001041MA1999999101321MD1999999+0001REMSYN017 333 10/// 58000;EQDQ01+000002VOVAR 
0096834980999991995041218004-17733-039250FM-12+000399999V0200501N00411220001CN0200001N1+02901+02341100901ADDAA106000091AG10000GF102991021011008001001001MA1999999100851MD1999999-0251REMSYN011 333 59025;
0121834980999991995041300004-17733-039250FM-12+000399999V0200501N00411220001CN9999999N9+02661+02431101081ADDAA106000091AG10000GF102991021001999999031001MA1999999101031MD1999999-0291REMSYN017 333 10/// 59029;EQDQ01+000002VOVAR 
0115834980999991995041312004-17733-039250FM-12+000399999V0201801N00261045001CN0100001N1+02701+02461101211ADDAA106000091AG10000GF108991021041008001011999KA1240N+02311MA1999999101161MD1999999-0111REMSYN017 333 20231 59011;
0124834980999991995041318004-17733-039250FM-12+000399999V0201801N00411045001CN0200001N1+02601+02401100971ADDAA106011091AG10002AY161061AY221061GF108991041071008001021999MA1999999100921MD1999999-0071MW1211REMSYN017 333 59007 60111;
0149834980999991995041400004-17733-039250FM-12+000399999V0201401N00311007501CN9999999N9+02521+02381101251ADDAA106008091AG10002AY161061AY261061GF108991051071008001021999MA1999999101201MD1999999-0171MW1621REMSYN023 333 10/// 59017 60081;EQDQ01+000002VOVAR 
0143834980999991995041412004-17733-039250FM-12+000399999V0201801N00261007501CN0040001N1+02381+02261101511ADDAA124055091AG10002AY161061AY261061GF108991051071008001021999KA1240N+02241MA1999999101461MD1999999+0301MW1631REMSYN023 333 20224 58030 60554;
0124834980999991995041418004-17733-039250FM-12+000399999V0201801N00511007501CN0100001N1+02541+02331101241ADDAA106002091AG10002AY161061AY261061GF108991051071008001021061MA1999999101191MD1999999+0271MW1631REMSYN017 333 58027 60021;
0149834980999991995041500004-17733-039250FM-12+000399999V0201801N00261045001CN9999999N9+02511+02291101531ADDAA106003091AG10002AY161061AY261061GF108991041071008001021999MA1999999101481MD1999999+0281MW1211REMSYN023 333 10/// 58028 60031;EQDQ01+000002VOVAR 
0143834980999991995041512004-17733-039250FM-12+000399999V0201801N00511045001CN0200001N1+02601+02291101671ADDAA124012091AG10002AY161061AY261061GF106991031051008001021061KA1240N+02191MA1999999101621MD1999999+0161MW1211REMSYN023 333 20219 58016 60124;
0096834980999991995041518004-17733-039250FM-12+000399999V0201801N00411045001CN0200001N1+02551+02291101501ADDAA106000091AG10000GF106991031071008001021001MA1999999101461MD1999999+0261REMSYN011 333 58026;
0121834980999991995041600004-17733-039250FM-12+000399999V0201801N00461045001CN9999999N9+02611+02121101691ADDAA106000091AG10000GF107991031051008001021001MA1999999101641MD1999999+0161REMSYN017 333 10/// 58016;EQDQ01+000002VOVAR 
0115834980999991995041612004-17733-039250FM-12+000399999V0201801N00311220001CN0200001N1+02651+02141101681ADDAA106000091AG10000GF103991021021008001001041KA1240N+02241MA1999999101631MD1999999+0011REMSYN017 333 20224 58001;
0096834980999991995041618004-17733-039250FM-12+000399999V0201401N00461220001CN0200001N1+02661+02141101431ADDAA106000091AG10000GF105991031021008001001081MA1999999101381MD1999999-0071REMSYN011 333 59007;
0143834980999991995041712004-17733-039250FM-12+000399999V0201801N00151007501CN0040001N1+02441+02341100581ADDAA124005091AG10000AY101061AY221061GF108991081091008001001001KA1240N+02331MA1999999099921MD1999999-0061MW1201REMSYN023 333 20233 59006 60054;
0115834980999991995041718004-17733-039250FM-12+000399999V0201401N00311220001CN0200001N1+02681+02111101171ADDAA106000091AG10000GF104991021011008001041001MA1999999101122MD1999999-0261REMSYN011 333 59026;EQDQ01+101123APOSP 
0121834980999991995041800004-17733-039250FM-12+000399999V0200901N00101220001CN9999999N9+02401+02211101381ADDAA106000091AG10000GF102991021011008001001001MA1999999101331MD1999999-0201REMSYN017 333 10/// 59020;EQDQ01+000002VOVAR 
0137834980999991995041900004-17733-039250FM-12+000399999V0200901N00101220001CN9999999N9+02341+02171101351ADDAA106000091AG10000GA1001+999999999GF100991001001999999001001MA1999999101301MD1999999-0031REMSYN017 333 10/// 59003;EQDQ01+000002VOVAR 
0115834980999991995041912004-17733-039250FM-12+000399999V0202701N00101220001CN0200001N1+02571+02351101481ADDAA106000091AG10000GF104991021011008001031011KA1240N+02071MA1999999101431MD1999999+0091REMSYN017 333 20207 58009;
0096834980999991995041918004-17733-039250FM-12+000399999V0200501N00311220001CN0200001N1+02901+02461101181ADDAA106000091AG10000GF103991011011008001001011MA1999999101131MD1999999+0141REMSYN011 333 58014;
0121834980999991995042000004-17733-039250FM-12+000399999V0200901N00151220001CN9999999N9+02561+02381101411ADDAA106000091AG10000GF102991021011008001001001MA1999999101361MD1999999+0061REMSYN017 333 10/// 58006;EQDQ01+000002VOVAR 
0115834980999991995042012004-17733-039250FM-12+000399999V0202701N00151007501CN0200001N1+02641+02481101471ADDAA106000091AG10000GF106991051041008001001061KA1240N+02131MA1999999101421MD1999999-0011REMSYN017 333 20213 59001;
0096834980999991995042018004-17733-039250FM-12+000399999V0201401N00311220001CN0200001N1+02921+02501101141ADDAA106000091AG10000GF103991021081008001001051MA1999999101091MD1999999-0041REMSYN011 333 59004;
0115834980999991995042112004-17733-039250FM-12+000399999V0203601N00311045001CN0200001N1+02721+02471101301ADDAA106000091AG10000GF105991041021008001041001KA1240N+02161MA1999999101251MD1999999-0171REMSYN017 333 20216 59017;
0096834980999991995042118004-17733-039250FM-12+000399999V0200501N00361220001CN0200001N1+02941+02521100931ADDAA106000091AG10000GF102991021011008001001001MA1999999100881MD1999999-0211REMSYN011 333 59021;
0137834980999991995042200004-17733-039250FM-12+000399999V0200501N00261220001CN9999999N9+02581+02511101131ADDAA106000091AG10000GA1001+999999999GF100991001001999999001001MA1999999101081MD1999999-0181REMSYN017 333 10/// 59018;EQDQ01+000002VOVAR 
0115834980999991995042212004-17733-039250FM-12+000399999V0203601N00361012001CN0100001N1+02761+02501101271ADDAA106000091AG10000GF107991051081008001051061KA1240N+02231MA1999999101221MD1999999-0031REMSYN017 333 20223 59003;
0124834980999991995042218004-17733-039250FM-12+000399999V0201801N00261045001CN0100001N1+02661+02481101041ADDAA106999929AG10002AY161061AY261061GF108991031061008001091061MA1999999100991MD1999999+0111MW1611REMSYN017 333 58011 69901;
0121834980999991995042300004-17733-039250FM-12+000399999V0201801N00511220001CN9999999N9+02601+02461101251ADDAA106000091AG10000GF102991021041008001001001MA1999999101201MD1999999+0121REMSYN017 333 10/// 58012;EQDQ01+000002VOVAR 
0143834980999991995042312004-17733-039250FM-12+000399999V0202701N00101045001CN0100001N1+02451+02411101391ADDAA124046091AG10002AY161061AY261061GF107991031061008001021091KA1240N+02231MA1999999101341MD1999999+0121MW1211REMSYN023 333 20223 58012 60464;
0124834980999991995042318004-17733-039250FM-12+000399999V0200501N00151105001CN0200001N1+02701+02501101101ADDAA106001091AG10002AY161061AY261061GF106991021051008001021041MA1999999101051MD1999999+0061MW1211REMSYN017 333 58006 69971;
0137834980999991995042400004-17733-039250FM-12+000399999V0209991C00001220001CN9999999N9+02451+02371101341ADDAA106000091AG10000GA1001+999999999GF100991001001999999001001MA1999999101291MD1999999+0091REMSYN017 333 10/// 58009;EQDQ01+000002VOVAR 
0121834980999991995042412004-17733-039250FM-12+000399999V0203601N00211045001CN0200001N1+02721+02501101461ADDAA124001091AG10000GF106991041051008001041001KA1240N+02211MA1999999101411MD1999999+0071REMSYN023 333 20221 58007 69974;
0124834980999991995042418004-17733-039250FM-12+000399999V0200501N00311220001CN0200001N1+02941+02311101131ADDAA106000391AG10002AY161061AY201061GF102991021041008001001001MA1999999101081MD1999999+0031MW1211REMSYN017 333 58003 69931;
0137834980999991995042500004-17733-039250FM-12+000399999V0200901N00101220001CN9999999N9+02561+02421101421ADDAA106000091AG10000GA1001+999999999GF100991001001999999001001MA1999999101371MD1999999+0081REMSYN017 333 10/// 58008;EQDQ01+000002VOVAR 
0115834980999991995042512004-17733-039250FM-12+000399999V0202701N00101045001CN0100001N1+02661+02431101491ADDAA106000091AG10000GF107991031041008001041001KA1240N+02291MA1999999101441MD1999999+0031REMSYN017 333 20229 58003;
0124834980999991995042518004-17733-039250FM-12+000399999V0201801N00211045001CN0100001N1+02621+02421101231ADDAA106000191AG10002AY161061AY221061GF107991031051008001041001MA1999999101181MD1999999+0101MW1211REMSYN017 333 58010 69921;
0149834980999991995042600004-17733-039250FM-12+000399999V0201401N00261045001CN9999999N9+02501+02471101461ADDAA106008091AG10002AY161061AY261061GF108991031071008001021001MA1999999101411MD1999999+0041MW1921REMSYN023 333 10/// 58004 60081;EQDQ01+000002VOVAR 
0143834980999991995042612004-17733-039250FM-12+000399999V0201801N00621045001CN0100001N1+02601+02121101621ADDAA124015091AG10002AY161061AY221061GF107991031081008001051061KA1240N+02291MA1999999101571MD1999999+0131MW1211REMSYN023 333 20229 58013 60154;
0096834980999991995042618004-17733-039250FM-12+000399999V0201801N00511045001CN0100001N1+02581+01991101371ADDAA106000091AG10000GF107991031081008001071001MA1999999101321MD1999999+0141REMSYN011 333 58014;
0121834980999991995042700004-17733-039250FM-12+000399999V0201801N00311220001CN9999999N9+02481+01941101531ADDAA106000091AG10000GF101991011081008001001001MA1999999101481MD1999999+0071REMSYN017 333 10/// 58007;EQDQ01+000002VOVAR 
0115834980999991995042712004-17733-039250FM-12+000399999V0201401N00211045001CN0200001N1+02341+02111101551ADDAA106000091AG10000GF105991031031008001021091KA1240N+02041MA1999999101501MD1999999-0071REMSYN017 333 20204 59007;
0096834980999991995042718004-17733-039250FM-12+000399999V0209991C00001220001CN0200001N1+02641+02001101191ADDAA106000091AG10000GF103991011021008001021041MA1999999101141MD1999999-0081REMSYN011 333 59008;
0121834980999991995042800004-17733-039250FM-12+000399999V0201801N00211220001CN9999999N9+02481+02091101481ADDAA106000091AG10000GF103991021001012501021041MA1999999101431MD1999999-0051REMSYN017 333 10/// 59005;EQDQ01+000002VOVAR 
0115834980999991995042812004-17733-039250FM-12+000399999V0202701N00151220001CN0200001N1+02281+02161101611ADDAA106000091AG10000GF105991031051008001001041KA1240N+02111MA1999999101561MD1999999+0061REMSYN017 333 20211 58006;
0096834980999991995042818004-17733-039250FM-12+000399999V0201801N00511105001CN0200001N1+02651+02141101351ADDAA106000091AG10000GF106991011011008001031041MA1999999101301MD1999999+0161REMSYN011 333 58016;
0137834980999991995042900004-17733-039250FM-12+000399999V0201401N002619999999N9999999N9+02561+02251101591ADDAA106000091AG10000GA1091+999999999GF109991091999999999999999MA1999999101541MD1999999+0111REMSYN017 333 10/// 58011;EQDQ01+000002VOVAR 
0143834980999991995042912004-17733-039250FM-12+000399999V0202301N00151045001CN0040001N1+02321+99999101631ADDAA124012091AG10002AY161061AY261061GF108991031071008001011999KA1240N+02121MA1999999101581MD1999999+0021MW1211REMSYN023 333 20212 58002 60124;
0124834980999991995042918004-17733-039250FM-12+000399999V0202301N00261045001CN0100001N1+02601+02501101351ADDAA106000591AG10002AY161061AY261061GF107991021071008001011001MA1999999101301MD1999999+0001MW1211REMSYN017 333 58000 69961;
0143834980999991995043012004-17733-039250FM-12+000399999V0201801N00101045001CN0100001N1+02481+02461101591ADDAA124027091AG10002AY161061AY261061GF108991041061008001021061KA1240N+02241MA1999999101541MD1999999-0041MW1601REMSYN023 333 20224 59004 60274;
0124834980999991995043018004-17733-039250FM-12+000399999V0201401N00211045001CN0100001N1+02701+02451101321ADDAA106010091AG10002AY161061AY221061GF107991031081008001071061MA1999999101271MD1999999-0031MW1211REMSYN017 333 59003 60101;
0096834980999991995050118004-17733-039250FM-12+000399999V0200901N00211220001CN0200001N1+02771+02461101181ADDAA106000091AG10000GF103991021011008001001041MA1999999101131MD1999999-0141REMSYN011 333 59014;
0115834980999991995050212004-17733-039250FM-12+000399999V0200501N00151220001CN0200001N1+02711+02431101411ADDAA106000091AG10000GF103991031021008001001001KA1240N+02191MA1999999101361MD1999999-0091REMSYN017 333 20219 59009;
0096834980999991995050218004-17733-039250FM-12+000399999V0200501N00311220001CN0200001N1+02871+02421100941ADDAA106000091AG10000GF101991011011008001001001MA1999999100891MD1999999-0241REMSYN011 333 59024;
0115834980999991995050312004-17733-039250FM-12+000399999V0203601N00211045001CN0100001N1+02721+02471101351ADDAA106000091AG10000GF107991041041008001011001KA1240N+02181MA1999999101301MD1999999-0061REMSYN017 333 20218 59006;
0124834980999991995050318004-17733-039250FM-12+000399999V0200901N00151220001CN0200001N1+02681+02541101051ADDAA106008091AG10002AY161061AY211061GF102991021011008001001001MA1999999101001MD1999999+0111MW1211REMSYN017 333 58011 60081;
0137834980999991995050400004-17733-039250FM-12+000399999V0200901N00101220001CN9999999N9+02521+02431101301ADDAA106000091AG10000GA1001+999999999GF100991001001999999001001MA1999999101251MD1999999+0111REMSYN017 333 10/// 58011;EQDQ01+000002VOVAR 
0121834980999991995050412004-17733-039250FM-12+000399999V0201401N00311007501CN0200001N1+02721+02411101601ADDAA124008091AG10000GF106991051021008001001051KA1240N+02211MA1999999101501MD1999999+0251REMSYN023 333 20221 58025 60084;
0096834980999991995050418004-17733-039250FM-12+000399999V0201401N00261220001CN0200001N1+02821+02331101361ADDAA106000091AG10000GF102991011011008001081001MA1999999101311MD1999999+0311REMSYN011 333 58031;
0121834980999991995050500004-17733-039250FM-12+000399999V0209991C00001220001CN9999999N9+02381+02261101641ADDAA106000091AG10000GF101991001001999999001051MA1999999101591MD1999999+0341REMSYN017 333 10/// 58034;EQDQ01+000002VOVAR 
0115834980999991995050512004-17733-039250FM-12+000399999V0201801N00101007501CN0200001N1+02591+02381101681ADDAA106000091AG10000GF105991051021008001001001KA1240N+02071MA1999999101631MD1999999+0081REMSYN017 333 20207 58008;
0096834980999991995050518004-17733-039250FM-12+000399999V0200901N00311220001CN0200001N1+02861+02141101331ADDAA106000091AG10000GF104991021021008001001041MA1999999101281MD1999999-0031REMSYN011 333 59003;
0121834980999991995050600004-17733-039250FM-12+000399999V0200901N00101220001CN9999999N9+02411+02281101431ADDAA106000091AG10000GF104991011011008001021041MA1999999101381MD1999999-0211REMSYN017 333 10/// 59021;EQDQ01+000002VOVAR 
0115834980999991995050612004-17733-039250FM-12+000399999V0202701N00101105001CN0200001N1+02521+02381101521ADDAA106000091AG10000GF106991011011008001081041KA1240N+02101MA1999999101471MD1999999-0161REMSYN017 333 20210 59016;
0096834980999991995050618004-17733-039250FM-12+000399999V0200501N00311220001CN0200001N1+02861+02421101191ADDAA106000091AG10000GF104991021021008001001041MA1999999101141MD1999999-0141REMSYN011 333 59014;
0115834980999991995050712004-17733-039250FM-12+000399999V0203601N00311220001CN0200001N1+02741+02431101361ADDAA106000091AG10000GF104991041021008001001001KA1240N+02171MA1999999101311MD1999999-0161REMSYN017 333 20217 59016;
0096834980999991995050718004-17733-039250FM-12+000399999V0200501N00411220001CN0200001N1+02921+02341101061ADDAA106000091AG10000GF104991011011008001001011MA1999999101011MD1999999-0131REMSYN011 333 59013;
0121834980999991995050800004-17733-039250FM-12+000399999V0200501N00101220001CN9999999N9+02601+02421101231ADDAA106000091AG10000GF102991011011008001001011MA1999999101181MD1999999-0071REMSYN017 333 10/// 59007;EQDQ01+000002VOVAR 
0143834980999991995050912004-17733-039250FM-12+000399999V0201801N00621045001CN0200001N1+02701+02431101641ADDAA124028091AG10002AY161061AY221061GF106991031051008001021091KA1240N+02321MA1999999101591MD1999999+0191MW1211REMSYN023 333 20232 58019 60284;
0102834980999991995050918004-17733-039250FM-12+000399999V0201801N00511045001CN0200001N1+02701+02331101441ADDAA106001091AG10002GF106991031021008001031091MA1999999101391MD1999999+0261REMSYN017 333 58026 69971;
0121834980999991995051012004-17733-039250FM-12+000399999V0201801N00211045001CN0040001N1+02351+02221101691ADDAA124001091AG10000GF108991041051008001021999KA1240N+02141MA1999999101641MD1999999+0051REMSYN023 333 20214 58005 69974;
0102834980999991995051018004-17733-039250FM-12+000399999V0201801N002610450019N0100001N1+02621+02421101281ADDAA106003091AG10000GF106991041051008001011001MA1999999101231MD1999999-0161REMSYN017 333 59016 60031;
0121834980999991995051112004-17733-039250FM-12+000399999V0201801N00151045001CN0100001N1+02501+02471101561ADDAA124004091AG10000GF108991031041008001011999KA1240N+02231MA1999999101511MD1999999-0131REMSYN023 333 20223 59013 60044;
0124834980999991995051118004-17733-039250FM-12+000399999V0201401N00151045001CN0100001N1+02561+02441101231ADDAA106002091AG10002AY161061AY221061GF108991031071008001011999MA1999999101181MD1999999-0051MW1211REMSYN017 333 59005 60021;
0121834980999991995051200004-17733-039250FM-12+000399999V0200901N00101045001CN9999999N9+02461+02411101381ADDAA106000091AG10000GF105991021011008001031001MA1999999101331MD1999999-0211REMSYN017 333 10/// 59021;EQDQ01+000002VOVAR 
0143834980999991995051212004-17733-039250FM-12+000399999V0202301N00101045001CN0200001N1+02421+02391101561ADDAA124017091AG10002AY161061AY261061GF107991041061008001011081KA1240N+02241MA1999999101511MD1999999+0001MW1321REMSYN023 333 20224 58000 60174;
0124834980999991995051218004-17733-039250FM-12+000399999V0209991C00001045001CN0200001N1+02601+02481101321ADDAA106000391AG10002AY161061AY221061GF107991031061008001071061MA1999999101271MD1999999+0091MW1211REMSYN017 333 58009 69931;
0149834980999991995051300004-17733-039250FM-12+000399999V0209991C00001045001CN9999999N9+02461+02411101561ADDAA106000191AG10002AY161061AY221061GF107991021061008001021031MA1999999101511MD1999999+0181MW1211REMSYN023 333 10/// 58018 69911;EQDQ01+000002VOVAR 
0121834980999991995051312004-17733-039250FM-12+000399999V0200901N00101045001CN0100001N1+02501+02401101741ADDAA124000591AG10000GF107991041071008001021001KA1240N+02281MA1999999101691MD1999999+0181REMSYN023 333 20228 58018 69944;
0096834980999991995051318004-17733-039250FM-12+000399999V0201401N002610450019N0200001N1+02651+02391101491ADDAA106000091AG10000GF106991031071008001021001MA1999999101431MD1999999+0161REMSYN011 333 58016;
0096834980999991995051418004-17733-039250FM-12+000399999V0200901N00151045001CN0200001N1+02741+02361101501ADDAA106000091AG10000GF105991031021008001041001MA1999999101451MD1999999+0021REMSYN011 333 58002;
0165834980999991995051500004-17733-039250FM-12+000399999V0200901N00101220001CN9999999N9+02561+02421101701ADDAA106001091AG10002AY161061AY211061GF104991999001008001031001MA1999999101651MD1999999+0021MW1211REMSYN023 333 10/// 58002 60011;EQDQ01+000002SCOTLCQ02+000002VOVAR 
0173834980999991995051512004-17733-039250FM-12+000399999V0202301N00151220001CN0200001N1+02501+01411101701ADDAA106999999AA224003091AG10002AY161061AY261061GF104991021011008001031001KA1240N+02221MA1999999101651MD1999999-0091MW1211REMSYN023 333 20222 59009 60034;EQDQ01  00002PRCP06
0149834980999991995051600004-17733-039250FM-12+000399999V0200501N00101045001CN9999999N9+02441+02421101561ADDAA106003091AG10002AY161061AY261061GF105991041021008001011001MA1999999101511MD1999999-0141MW1211REMSYN023 333 10/// 59014 60031;EQDQ01+000002VOVAR 
0143834980999991995051612004-17733-039250FM-12+000399999V0200901N00101045001CN0100001N1+02541+02491101371ADDAA124015091AG10002AY161061AY261061GF107991041071008001021091KA1240N+02191MA1999999101321MD1999999-0061MW1601REMSYN023 333 20219 59006 60154;
0124834980999991995051618004-17733-039250FM-12+000399999V0201401N00211045001CN0200001N1+02801+02441101411ADDAA106001091AG10002AY161061AY221061GF107991031021008001071061MA1999999101361MD1999999+0031MW1211REMSYN017 333 58003 60011;
0121834980999991995051700004-17733-039250FM-12+000399999V0201401N00151105001CN9999999N9+02581+02441101671ADDAA106000091AG10000GF107991011021008001001081MA1999999101621MD1999999+0111REMSYN017 333 10/// 58011;EQDQ01+000002VOVAR 
0143834980999991995051712004-17733-039250FM-12+000399999V0200901N00151045001CN0100001N1+02421+02391101691ADDAA124011091AG10002AY161061AY261061GF107991041071008001021061KA1240N+02251MA1999999101641MD1999999+0021MW1211REMSYN023 333 20225 58002 60114;
0159834980999991995051718004-17733-039250FM-12+000399999V0202701N00101045001CN0100001N1+02451+02131101461ADDAA106003091AG10002AY161061AY261061GF107991031071008001021001MA1999999101411MD1999999+0051MW1121REMSYN017 333 58005 60031;EQDQ01+091413APOSP Q02+999990APOSP 
0121834980999991995051800004-17733-039250FM-12+000399999V0202701N00051220001CN9999999N9+02311+02251101541ADDAA106000091AG10000GF102991021001012501031001MA1999999101491MD1999999-0131REMSYN017 333 10/// 59013;EQDQ01+000002VOVAR 
0121834980999991995051812004-17733-039250FM-12+000399999V0209991C00001220001CN0200001N1+02481+02411101471ADDAA124003091AG10000GF103991011011008001001021KA1240N+02061MA1999999101421MD1999999-0221REMSYN023 333 20206 59022 60034;
0096834980999991995051818004-17733-039250FM-12+000399999V0200501N00151220001CN0200001N1+02861+02331101031ADDAA106000091AG10000GF104991011011008001001021MA1999999100981MD1999999-0431REMSYN011 333 59043;
0137834980999991995051912004-17733-039250FM-12+000399999V0200501N00101220001CN9999999N9+02401+02311101071ADDAA106000091AG10000GA1001+999999999GF100991001001999999001001MA1999999101021MD1999999-0471REMSYN017 333 10/// 59047;EQDQ01+000002VOVAR 
0096834980999991995051918004-17733-039250FM-12+000399999V0201801N00311045001CN0100001N1+02521+02231100981ADDAA106000091AG10000GF108991041061008001011999MA1999999100931MD1999999-0051REMSYN011 333 59005;
0121834980999991995052000004-17733-039250FM-12+000399999V0201801N00261045001CN9999999N9+02441+02351101201ADDAA106000091AG10000GF105991031021008001011001MA1999999101151MD1999999+0131REMSYN017 333 10/// 58013;EQDQ01+000002VOVAR 
0143834980999991995052012004-17733-039250FM-12+000399999V0201801N00411045001CN0200001N1+02461+02271101471ADDAA124000191AG10002AY161061AY221061GF106991031071008001071091KA1240N+02061MA1999999101421MD1999999+0201MW1211REMSYN023 333 20206 58020 69914;
0096834980999991995052018004-17733-039250FM-12+000399999V0200901N00211045001CN0200001N1+02541+02291101251ADDAA106000091AG10000GF107991041081008001061051MA1999999101201MD1999999+0271REMSYN011 333 58027;
0149834980999991995052100004-17733-039250FM-12+000399999V0200901N00411045001CN9999999N9+02481+02251101501ADDAA106003091AG10002AY161061AY221061GF106991031071008001021001MA1999999101451MD1999999+0301MW1211REMSYN023 333 10/// 58030 60031;EQDQ01+000002VOVAR 
0143834980999991995052112004-17733-039250FM-12+000399999V0203601N00151045001CN0100001N1+02341+02241101671ADDAA124014091AG10002AY161061AY261061GF108991041071008001021999KA1240N+02211MA1999999101621MD1999999+0201MW1211REMSYN023 333 20221 58020 60144;
0102834980999991995052118004-17733-039250FM-12+000399999V0200901N00211045001CN0200001N1+02531+02311101441ADDAA106004091AG10000GF106991031051008001021001MA1999999101391MD1999999+0191REMSYN017 333 58019 60041;
0143834980999991995052212004-17733-039250FM-12+000399999V0200501N00151045001CN0200001N1+02581+02381101611ADDAA124024091AG10002AY161061AY211061GF105991031051008001041001KA1240N+02151MA1999999101561MD1999999-0061MW1211REMSYN023 333 20215 59006 60244;
0165834980999991995052300004-17733-039250FM-12+000399999V0200901N00211045001CN9999999N9+02361+02241101621ADDAA106001091AG10002AY161061AY261061GF108991041071008001021999MA1999999999999MD1999999+0041MW1211REMSYN023 333 10/// 58004 60011;EQDQ01+000002VOVAR Q02 091573APOSP 
0143834980999991995052312004-17733-039250FM-12+000399999V0202301N00151105001CN0200001N1+02461+02361101691ADDAA124008091AG10002AY161061AY261061GF105991021011008001031011KA1240N+02121MA1999999101641MD1999999+0081MW1211REMSYN023 333 20212 58008 60084;
0096834980999991995052318004-17733-039250FM-12+000399999V0201401N00311045001CN0200001N1+02721+02341101381ADDAA106000091AG10000GF105991031021008001031001MA1999999101331MD1999999+0061REMSYN011 333 58006;
0115834980999991995052412004-17733-039250FM-12+000399999V0202301N00051045001CN0200001N1+02501+02411101621ADDAA106000091AG10000GF107991031081008001051091KA1240N+02111MA1999999101571MD1999999-0071REMSYN017 333 20211 59007;
0124834980999991995052418004-17733-039250FM-12+000399999V0201801N00311045001CN0200001N1+02621+02371101391ADDAA106000591AG10002AY161061AY221061GF107991021041008001051051MA1999999101341MD1999999+0011MW1121REMSYN017 333 58001 69941;
0165834980999991995052500004-17733-039250FM-12+000399999V0201801N004119999999N9999999N9+02361+02241101641ADDAA106006091AG10002AY161061AY221061GA1091+999999999GF109991091999999999999999MA1999999101591MD1999999+0061MW1631REMSYN023 333 10/// 58006 60061;EQDQ01+000002VOVAR 
0143834980999991995052512004-17733-039250FM-12+000399999V0202701N00101045001CN0100001N1+02381+02361101741ADDAA124032091AG10002AY161061AY261061GF107991031071008001021001KA1240N+02171MA1999999101691MD1999999+0121MW1211REMSYN023 333 20217 58012 60324;
0102834980999991995052518004-17733-039250FM-12+000399999V0201801N00211105001CN0200001N1+02601+02351101431ADDAA106000191AG10000GF106991021051008001021041MA1999999101381MD1999999+0041REMSYN017 333 58004 69911;
0115834980999991995052600004-17733-039250FM-12+000399999V0202301N00101045001CN9999999N9+02361+02311101611ADDAA106000091AG10000GF108991021051008001021999MA1999999101561MD1999999-0031REMSYN011 333 59003;EQDQ01+000002VOVAR 
0143834980999991995052612004-17733-039250FM-12+000399999V0201801N00151045001CN0200001N1+02431+02331101691ADDAA124004091AG10002AY161061AY221061GF106991041051008001051001KA1240N+02171MA1999999101641MD1999999-0051MW1211REMSYN023 333 20217 59005 60044;
0121834980999991995052700004-17733-039250FM-12+000399999V0201801N00821045001CN9999999N9+02421+02151101831ADDAA106000091AG10000GF108991041061008001021999MA1999999101781MD1999999+0221REMSYN017 333 10/// 58022;EQDQ01+000002VOVAR 
0121834980999991995052712004-17733-039250FM-12+000399999V0201801N00411045001CN0100001N1+02581+02101102011ADDAA124008091AG10000GF106991031021012501011001KA1240N+02261MA1999999101961MD1999999+0321REMSYN023 333 20226 58032 60084;
0096834980999991995052718004-17733-039250FM-12+000399999V0201801N00621220001CN0200001N1+02581+01991101841ADDAA106000091AG10000GF102991021011008001001001MA1999999101791MD1999999+0321REMSYN011 333 58032;
0121834980999991995052800004-17733-039250FM-12+000399999V0201801N00361220001CN9999999N9+02401+01931102041ADDAA106000091AG10000GF102991011011008001001011MA1999999101991MD1999999+0211REMSYN017 333 10/// 58021;EQDQ01+000002VOVAR 
0115834980999991995052812004-17733-039250FM-12+000399999V0201801N00461220001CN0200001N1+02521+99999102051ADDAA106000091AG10000GF102991021011008001001001KA1240N+02151MA1999999102001MD1999999+0041REMSYN017 333 20215 58004;
0115834980999991995052818004-17733-039250FM-12+000399999V0201801N00461220001CN0200001N1+02541+02021101791ADDAA106000091AG10000GF103991999021008001081001MA1999999101741MD1999999-0051REMSYN011 333 59005;EQDQ01+000052SCOTLC
0149834980999991995052900004-17733-039250FM-12+000399999V0201801N00621220001CN9999999N9+02301+02031101971ADDAA106002091AG10002AY161061AY261061GF101991011081008001001001MA1999999101921MD1999999-0071MW1621REMSYN023 333 10/// 59007 60021;EQDQ01+000002VOVAR 
0096834980999991995052918004-17733-039250FM-12+000399999V0201801N00311220001CN0200001N1+02521+02151101681ADDAA106000091AG10000GF103991031021008001001001MA1999999101631MD1999999-0111REMSYN011 333 59011;
0137834980999991995053000004-17733-039250FM-12+000399999V0202701N00101220001CN9999999N9+02161+02081101811ADDAA106000091AG10000GA1001+999999999GF100991001001999999001001MA1999999101761MD1999999-0161REMSYN017 333 10/// 59016;EQDQ01+000002VOVAR 
0115834980999991995053012004-17733-039250FM-12+000399999V0202301N00151220001CN0200001N1+02181+02111101711ADDAA106000091AG10000GF103991011011008001001021KA1240N+01791MA1999999101661MD1999999-0131REMSYN017 333 20179 59013;
0096834980999991995053018004-17733-039250FM-12+000399999V0201401N00151105001CN0200001N1+02561+02131101411ADDAA106000091AG10000GF105991011011008001001021MA1999999101361MD1999999-0271REMSYN011 333 59027;
0121834980999991995053100004-17733-039250FM-12+000399999V0201801N00151220001CN9999999N9+02321+01891101711ADDAA106000091AG10000GF103991031011022501001001MA1999999101661MD1999999-0101REMSYN017 333 10/// 59010;EQDQ01+000002VOVAR 
0115834980999991995053112004-17733-039250FM-12+000399999V0202301N00151045001CN0200001N1+02221+02071101811ADDAA106000091AG10000GF105991041021008001031001KA1240N+01981MA1999999101761MD1999999+0101REMSYN017 333 20198 58010;
0124834980999991995053118004-17733-039250FM-12+000399999V0201801N00311045001CN0200001N1+02501+02151101621ADDAA106000191AG10002AY161061AY221061GF106991041021008001031001MA1999999101571MD1999999+0211MW1211REMSYN017 333 58021 69921;
0121834980999991995060112004-17733-039250FM-12+000399999V0202301N00151045001CN0100001N1+02161+02041101941ADDAA124000191AG10000GF108991041071008001021071KA1240N+01841MA1999999101891MD1999999+0161REMSYN023 333 20184 58016 69924;
0096834980999991995060118004-17733-039250FM-12+000399999V0201801N00051045001CN0100001N1+02521+02091101641ADDAA106000091AG10000GF107991011081008001051051MA1999999101591MD1999999+0021REMSYN011 333 58002;
0121834980999991995060200004-17733-039250FM-12+000399999V0200901N00051220001CN9999999N9+02081+01981101801ADDAA106000091AG10000GF101991001001999999001051MA1999999101751MD1999999+0001REMSYN017 333 10/// 58000;EQDQ01+000002VOVAR 
0115834980999991995060212004-17733-039250FM-12+000399999V0202701N00101220001CN0200001N1+02271+02141101841ADDAA106000091AG10000GF102991011001012501041011KA1240N+01741MA1999999101791MD1999999-0101REMSYN017 333 20174 59010;
0096834980999991995060218004-17733-039250FM-12+000399999V0200901N00151220001CN0200001N1+02611+02081101451ADDAA106000091AG10000GF102991021021008001001001MA1999999101401MD1999999-0191REMSYN011 333 59019;
0137834980999991995060300004-17733-039250FM-12+000399999V0200901N00051220001CN9999999N9+02071+01981101671ADDAA106000091AG10000GA1001+999999999GF100991001001999999001001MA1999999101621MD1999999-0131REMSYN017 333 10/// 59013;EQDQ01+000002VOVAR 
0150834980999991995060312004-17733-039250FM-12+000399999V0202301N00101220001CN0200001N1+02221+02101101851ADDAA106000091AG10000GF102991001001999999001051KA1240N+01681MA1999999999999MD1999999+0011REMSYN017 333 20168 58001;EQDQ01+000972SCOLCBQ02 091803APOSP 
0115834980999991995060318004-17733-039250FM-12+000399999V0201801N00261220001CN0200001N1+02581+02131101741ADDAA106000091AG10000GF103991031011008001001001MA1999999101692MD1999999+0291REMSYN011 333 58029;EQDQ01+101693APOSP 
0121834980999991995060400004-17733-039250FM-12+000399999V0201801N00151220001CN9999999N9+02361+02071101911ADDAA106000091AG10000GF102991021011008001001001MA1999999101861MD1999999+0241REMSYN017 333 10/// 58024;EQDQ01+000002VOVAR 
0115834980999991995060412004-17733-039250FM-12+000399999V0202301N00101105001CN0100001N1+02141+01991102021ADDAA106000091AG10000GF105991021011008001031011KA1240N+01801MA1999999101971MD1999999+0171REMSYN017 333 20180 58017;
0096834980999991995060418004-17733-039250FM-12+000399999V0201401N00151220001CN0200001N1+02541+01981101861ADDAA106000091AG10000GF103991021021008001001011MA1999999101811MD1999999+0121REMSYN011 333 58012;
0121834980999991995060500004-17733-039250FM-12+000399999V0201401N00261220001CN9999999N9+02321+01981102111ADDAA106000091AG10000GF102991021011008001001001MA1999999102061MD1999999+0201REMSYN017 333 10/// 58020;EQDQ01+000002VOVAR 
0115834980999991995060512004-17733-039250FM-12+000399999V0201801N00311220001CN0200001N1+02461+01681102271ADDAA106000091AG10000GF101991011011008001001001KA1240N+01981MA1999999102221MD1999999+0251REMSYN017 333 20198 58025;
0096834980999991995060518004-17733-039250FM-12+000399999V0201801N00311045001CN0200001N1+02441+01951102031ADDAA106000091AG10000GF107991011041008001051061MA1999999101981MD1999999+0171REMSYN011 333 58017;
0121834980999991995060600004-17733-039250FM-12+000399999V0201801N00151220001CN9999999N9+02301+02031102121ADDAA106000091AG10000GF102991011041008001051001MA1999999102071MD1999999+0011REMSYN017 333 10/// 58001;EQDQ01+000002VOVAR 
0115834980999991995060612004-17733-039250FM-12+000399999V0202301N00101220001CN0200001N1+02251+02011102121ADDAA106000091AG10000GF103991011011008001031001KA1240N+01781MA1999999102071MD1999999-0151REMSYN017 333 20178 59015;
0096834980999991995060618004-17733-039250FM-12+000399999V0201401N00151045001CN0200001N1+02481+01871101861ADDAA106000091AG10000GF105991021031008001031001MA1999999101811MD1999999-0171REMSYN011 333 59017;
0121834980999991995060700004-17733-039250FM-12+000399999V0202301N00101220001CN9999999N9+02081+01951102001ADDAA106000091AG10000GF102991021001012501031001MA1999999101951MD1999999-0121REMSYN017 333 10/// 59012;EQDQ01+000002VOVAR 
0115834980999991995060712004-17733-039250FM-12+000399999V0202301N00101045001CN0200001N1+02031+01921102081ADDAA106000091AG10000GF105991031051008001031001KA1240N+01611MA1999999102031MD1999999-0041REMSYN017 333 20161 59004;
0096834980999991995060718004-17733-039250FM-12+000399999V0201401N00151220001CN0200001N1+02541+02061101721ADDAA106000091AG10000GF103991011011008001031001MA1999999101671MD1999999-0141REMSYN011 333 59014;
0137834980999991995060800004-17733-039250FM-12+000399999V0209991C00001220001CN9999999N9+02201+02051101901ADDAA106000091AG10000GA1001+999999999GF100991001001999999001001MA1999999101851MD1999999-0101REMSYN017 333 10/// 59010;EQDQ01+000002VOVAR 
0115834980999991995060812004-17733-039250FM-12+000399999V0202301N00101045001CN0200001N1+02041+01991101921ADDAA106000091AG10000GF106991031011008001031001KA1240N+01641MA1999999101921MD1999999-0111REMSYN017 333 20164 59011;
0096834980999991995060818004-17733-039250FM-12+000399999V0201401N00261220001CN0200001N1+02621+02101101591ADDAA106000091AG10000GF102991021011008001001001MA1999999101541MD1999999-0131REMSYN011 333 59013;
0137834980999991995060912004-17733-039250FM-12+000399999V0209991C00001007501CN0100001N1+01951+01941101971ADDAA106000091AG10000AY141061AY241061GF108991071061008001021999KA1240N+01751MA1999999101921MD1999999+0001MW1431REMSYN017 333 20175 58000;
0124834980999991995060918004-17733-039250FM-12+000399999V0201801N00151220001CN0200001N1+02581+02231101621ADDAA106007091AG10002AY161061AY211061GF103991011021008001041021MA1999999101571MD1999999+0031MW1211REMSYN017 333 58003 60071;
0121834980999991995061000004-17733-039250FM-12+000399999V0201401N000519999999N9999999N9+02331+02181101851ADDAA106000091AG10000GF106991061001012501041001MA1999999101801MD1999999-0021REMSYN017 333 10/// 59002;EQDQ01+000002VOVAR 
0121834980999991995061012004-17733-039250FM-12+000399999V0202301N00051220001CN0200001N1+02421+01281101921ADDAA124007091AG10000GF105991041041008001001061KA1240N+01851MA1999999101871MD1999999-0051REMSYN023 333 20185 59005 60074;
0096834980999991995061018004-17733-039250FM-12+000399999V0200901N00151105001CN0200001N1+02631+02231101651ADDAA106000091AG10000GF106991021041008001031041MA1999999101601MD1999999+0031REMSYN011 333 58003;
0096834980999991995061019004-17733-039250FM-12+000399999V0200901N00151105001CN0200001N1+02631+02231101651ADDAA106000091AG10999GF106991021041008001031041MA1999999101601MD1999999+0031REMSYN011 333 58003;
0121834980999991995061100004-17733-039250FM-12+000399999V0209991C00001220001CN9999999N9+02291+02181101941ADDAA106000091AG10000GF102991001001999999001011MA1999999101891MD1999999+0091REMSYN017 333 10/// 58009;EQDQ01+000002VOVAR 
0149834980999991995061112004-17733-039250FM-12+000399999V0201801N003111050019N0100001N1+02481+02291101351ADDAA106003091AG10002AY161061AY221061GF106991041051008001001021MA1999999101301MD1999999+0161MW1021REMSYN023 333 20/// 58016 60031;EQDQ01+999990APOSLP
0096834980999991995061118004-17733-039250FM-12+000399999V0200901N00151220001CN0200001N1+02661+02241101791ADDAA106000091AG10000GF102991021011008001001001MA1999999101741MD1999999+0141REMSYN011 333 58014;
0121834980999991995061200004-17733-039250FM-12+000399999V0200901N00101220001CN9999999N9+02461+02341101881ADDAA106000091AG10000GF102991021011008001001001MA1999999101831MD1999999-0061REMSYN017 333 10/// 59006;EQDQ01+000002VOVAR 
0115834980999991995061212004-17733-039250FM-12+000399999V0201401N00151007501CN0200001N1+02481+02291102021ADDAA106000091AG10000GF105991051021008001001001KA1240N+01961MA1999999101971MD1999999-0041REMSYN017 333 20196 59004;
0096834980999991995061218004-17733-039250FM-12+000399999V0200901N00211220001CN0200001N1+02641+02181101751ADDAA106000091AG10000GF103991031011008001001001MA1999999101701MD1999999-0041REMSYN011 333 59004;
0121834980999991995061300004-17733-039250FM-12+000399999V0201401N00101220001CN9999999N9+02361+02241102011ADDAA106000091AG10000GF101991011011008001001001MA1999999101961MD1999999+0131REMSYN017 333 10/// 58013;EQDQ01+000002VOVAR 
0178834980999991995061312004-17733-039250FM-12+000399999V0202701N001010075019N9999999N9+02101+02081102061ADDAA124001091AG10002AY161061AY241061GF107991061061008001001061KA1240N+01811MA1999999102011MD1999999+0041MW1431REMSYN023 333 20181 58004 60014;EQDQ01+200002VODIS Q02+000002VOVAR 
0096834980999991995061318004-17733-039250FM-12+000399999V0201401N00261045001CN0200001N1+02601+02251101751ADDAA106000091AG10000GF106991011021008001061021MA1999999101701MD1999999+0001REMSYN011 333 58000;
0121834980999991995061400004-17733-039250FM-12+000399999V0209991C00001105001CN9999999N9+02241+02141101911ADDAA106000091AG10000GF107991001001999999001061MA1999999101861MD1999999-0101REMSYN017 333 10/// 59010;EQDQ01+000002VOVAR 
0115834980999991995061512004-17733-039250FM-12+000399999V0202301N00101220001CN0200001N1+02341+02261101911ADDAA106000091AG10000GF102991021011008001001001KA1240N+01981MA1999999101861MD1999999-0131REMSYN017 333 20198 59013;
0096834980999991995061518004-17733-039250FM-12+000399999V0200501N00211045001CN0200001N1+02661+02221101601ADDAA106000091AG10000GF106991031011008001051001MA1999999101551MD1999999-0101REMSYN011 333 59010;
0115834980999991995061612004-17733-039250FM-12+000399999V0200501N00151220001CN0200001N1+02481+02301101861ADDAA106000091AG10000GF102991011011008001001051KA1240N+01951MA1999999101811MD1999999-0051REMSYN017 333 20195 59005;
0096834980999991995061618004-17733-039250FM-12+000399999V0200901N00311045001CN0200001N1+02681+02281101631ADDAA106000091AG10000GF107991021031008001051001MA1999999101581MD1999999+0031REMSYN011 333 58003;
0121834980999991995061700004-17733-039250FM-12+000399999V0200501N00151220001CN9999999N9+02241+02101101811ADDAA106000091AG10000GF102991011011008001001051MA1999999101761MD1999999+0061REMSYN017 333 10/// 58006;EQDQ01+000002VOVAR 
0115834980999991995061712004-17733-039250FM-12+000399999V0203601N00101220001CN0200001N1+02501+02271101861ADDAA106000091AG10000GF102991021011008001001001KA1240N+01931MA1999999101811MD1999999+0001REMSYN017 333 20193 58000;
0096834980999991995061718004-17733-039250FM-12+000399999V0200501N00151220001CN0200001N1+02661+02221101531ADDAA106000091AG10000GF102991021011008001001001MA1999999101531MD1999999-0051REMSYN011 333 59005;
0115834980999991995061812004-17733-039250FM-12+000399999V0203601N00101220001CN0200001N1+02321+02251101751ADDAA106000091AG10000GF102991021011008001001001KA1240N+01771MA1999999101701MD1999999-0111REMSYN017 333 20177 59011;
0096834980999991995061818004-17733-039250FM-12+000399999V0200501N00211220001CN0200001N1+02681+02181101511ADDAA106000091AG10000GF101991011011008001001001MA1999999101461MD1999999-0071REMSYN011 333 59007;
0121834980999991995061900004-17733-039250FM-12+000399999V0200501N00411220001CN9999999N9+02261+02181101571ADDAA106000091AG10000GF101991011011008001001001MA1999999101701MD1999999+0001REMSYN017 333 10/// 58000;EQDQ01+000002VOVAR 
0115834980999991995061912004-17733-039250FM-12+000399999V0202701N00151220001CN0200001N1+02421+02281101751ADDAA106000091AG10000GF102991011011008001051001KA1240N+01791MA1999999101701MD1999999+0001REMSYN017 333 20179 58000;
0096834980999991995061918004-17733-039250FM-12+000399999V0200501N00311220001CN0200001N1+02741+02171101411ADDAA106000091AG10000GF101991011011008001001001MA1999999101361MD1999999-0101REMSYN011 333 59010;
0137834980999991995062000004-17733-039250FM-12+000399999V0209991C00001220001CN9999999N9+02221+02121101621ADDAA106000091AG10000GA1001+999999999GF100991001001999999001001MA1999999101571MD1999999-0131REMSYN017 333 10/// 59013;EQDQ01+000002VOVAR 
0143834980999991995062012004-17733-039250FM-12+000399999V0201801N00411045001CN0100001N1+02351+02001101891ADDAA124007091AG10002AY161061AY221061GF107991021071008001011001KA1240N+01981MA1999999101841MD1999999+0141MW1211REMSYN023 333 20198 58014 60074;
0124834980999991995062018004-17733-039250FM-12+000399999V0201801N005110450019N0040001N1+02201+01941101821ADDAA106000591AG10002AY161061AY261061GF108991031071008001021999MA1999999101771MD1999999+0411MW1211REMSYN017 333 58041 69961;
0149834980999991995062100004-17733-039250FM-12+000399999V0201801N00511007501CN9999999N9+02361+01871102001ADDAA106003091AG10002AY161061AY221061GF108991051061008001021999MA1999999101951MD1999999+0381MW1211REMSYN023 333 10/// 58038 60031;EQDQ01+000002VOVAR 
0121834980999991995062112004-17733-039250FM-12+000399999V0201801N00151045001CN0200001N1+02481+01921102141ADDAA124004091AG10000GF106991031021008001051001KA1240N+01921MA1999999102091MD1999999+0251REMSYN023 333 20192 58025 60044;
0096834980999991995062118004-17733-039250FM-12+000399999V0201801N00411220001CN0200001N1+02441+01951101931ADDAA106000091AG10000GF104991021011008001051001MA1999999101881MD1999999+0111REMSYN011 333 58011;
0121834980999991995062200004-17733-039250FM-12+000399999V0201801N00311220001CN9999999N9+02301+02051102071ADDAA106000091AG10000GF104991031011008001031001MA1999999102021MD1999999+0071REMSYN017 333 10/// 58007;EQDQ01+000002VOVAR 
0162834980999991995062212004-17733-039250FM-12+000399999V0202301N00261045001CN0200001N1+02281+99999102131ADDAA124005091AG10002AY161061AY221061GF107991011041008001031081KA1240N+01741MA1999999102081MD1999999-0011MW1211REMSYN023 333 20174 59001 60054;EQDQ01+999990APOSLP
0096834980999991995062218004-17733-039250FM-12+000399999V0201801N00311045001CN0200001N1+02481+01981101801ADDAA106000091AG10000GF107991011011008001031081MA1999999101751MD1999999-0131REMSYN011 333 59013;
0121834980999991995062300004-17733-039250FM-12+000399999V0201801N00101220001CN9999999N9+02161+02011101981ADDAA106000091AG10000GF102991001001999999001081MA1999999101931MD1999999-0091REMSYN017 333 10/// 59009;EQDQ01+000002VOVAR 
0115834980999991995062312004-17733-039250FM-12+000399999V0202301N00101045001CN0200001N1+02131+02021101931ADDAA106000091AG10000GF106991011011008001031001KA1240N+01741MA1999999101881MD1999999-0201REMSYN017 333 20174 59020;
0096834980999991995062318004-17733-039250FM-12+000399999V0201401N00151220001CN0200001N1+02491+02091101621ADDAA106000091AG10000GF104991021021008001001061MA1999999101571MD1999999-0181REMSYN011 333 59018;
0143834980999991995062412004-17733-039250FM-12+000399999V0200901N00101045001CN0100001N1+02281+01761101821ADDAA124002091AG10002AY161061AY221061GF106991021041008001011001KA1240N+01881MA1999999101771MD1999999-0111MW1211REMSYN023 333 20188 59011 60024;
0121834980999991995062500004-17733-039250FM-12+000399999V0201401N00311045001CN9999999N9+02421+02211101751ADDAA106000091AG10000GF105991021041008001011001MA1999999101701MD1999999-0061REMSYN017 333 10/// 59006;EQDQ01+000002VOVAR 
0143834980999991995062512004-17733-039250FM-12+000399999V0202701N00051045001CN0200001N1+02261+02211101881ADDAA124006091AG10002AY161061AY221061GF107991041071008001061061KA1240N+02001MA1999999101831MD1999999+0061MW1611REMSYN023 333 20200 58006 60064;
0096834980999991995062518004-17733-039250FM-12+000399999V0200501N00361012001CN0200001N1+02581+02171101641ADDAA106000091AG10000GF107991061081008001051061MA1999999101591MD1999999+0121REMSYN011 333 58012;
0149834980999991995062600004-17733-039250FM-12+000399999V0200501N00051045001CN9999999N9+02261+01801101851ADDAA106000191AG10002AY161061AY221061GF106991041081008001051001MA1999999101801MD1999999+0101MW1211REMSYN023 333 10/// 58010 69921;EQDQ01+000002VOVAR 
0121834980999991995062612004-17733-039250FM-12+000399999V0202701N00101045001CN0200001N1+02481+02411101891ADDAA124000191AG10000GF106991041051008001041001KA1240N+01921MA1999999101841MD1999999+0011REMSYN023 333 20192 58001 69924;
0096834980999991995062618004-17733-039250FM-12+000399999V0200501N00151105001CN0200001N1+02681+02161101651ADDAA106000091AG10000GF105991011011008001031021MA1999999101601MD1999999+0011REMSYN011 333 58001;
0137834980999991995062700004-17733-039250FM-12+000399999V0200501N00101220001CN9999999N9+02251+02161101921ADDAA106000091AG10000GA1001+999999999GF100991001001999999001001MA1999999101871MD1999999+0071REMSYN017 333 10/// 58007;EQDQ01+000002VOVAR 
0143834980999991995062712004-17733-039250FM-12+000399999V0200501N00261045001CN0040001N1+02421+02131102091ADDAA124000391AG10002AY161061AY221061GF108991031071008001021999KA1240N+02121MA1999999102041MD1999999+0201MW1211REMSYN023 333 20212 58020 69934;
0096834980999991995062718004-17733-039250FM-12+000399999V0200901N00261105001CN0200001N1+02641+02161101851ADDAA106000091AG10000GF105991021011008001041021MA1999999101801MD1999999+0201REMSYN011 333 58020;
0121834980999991995062800004-17733-039250FM-12+000399999V0209991C00001220001CN9999999N9+02181+02101102031ADDAA106000091AG10000GF102991021011008001001001MA1999999101981MD1999999+0111REMSYN017 333 10/// 58011;EQDQ01+000002VOVAR 
0143834980999991995062812004-17733-039250FM-12+000399999V0200901N00151045001CN0200001N1+02381+02171102111ADDAA124000391AG10002AY161061AY221061GF107991021081008001011061KA1240N+01851MA1999999102061MD1999999+0021MW1211REMSYN023 333 20185 58002 69934;
0124834980999991995062818004-17733-039250FM-12+000399999V0200901N00361220001CN0200001N1+02561+02131101771ADDAA106002091AG10002AY161061AY211061GF104991031021008001001051MA1999999101721MD1999999-0081MW1211REMSYN017 333 59008 60021;
0143834980999991995062912004-17733-039250FM-12+000399999V0202301N00101220001CN0200001N1+02331+02221102051ADDAA124002091AG10002AY161061AY201061GF102991021021008001001001KA1240N+01921MA1999999102001MD1999999-0061MW1211REMSYN023 333 20192 59006 60024;
0096834980999991995062918004-17733-039250FM-12+000399999V0201401N00151220001CN0200001N1+02581+02081101831ADDAA106000091AG10000GF102991021011008001001001MA1999999101781MD1999999+0061REMSYN011 333 58006;
0169834980999991995063000004-17733-039250FM-12+000399999V0201401N99999220001CN9999999N9+02301+02071102121ADDAA106000091AG10000GF101991999081008001051001MA1999999102071MD1999999+0171REMSYN017 333 10/// 58017;EQDQ01+005453WOSPD Q02+000032SCOTLCQ03+000002VOVAR Q040005453WOSPD 
0143834980999991995063012004-17733-039250FM-12+000399999V0201401N00261045001CN0100001N1+02461+02111102151ADDAA124000591AG10002AY161061AY221061GF108991031021008001011999KA1240N+02001MA1999999102101MD1999999+0101MW1211REMSYN023 333 20200 58010 69964;
