0198827950999992004010100004-07217-035883FM-12+0560SBKG V0200901N003112200019N0010001N1+02291+01921101491ADDAA106000091GF103991031021008001001001KA1240M+03041MA1999999095351MD1999999+0011REMSYN088AAXX  01004 82795 32594 30906 10229 20192 39535 40149 83200 333 10304 29069 55076 58001;EQDQ01  00002PRCP06
0186827950999992004010112004-07217-035883FM-12+0560SBKG V0201401N003112200019N0100001N1+02591+01841101471ADDAA106000091GF106991041021008001001011KA1240N+02051MA1999999095341MD1999999+0051REMSYN076AAXX  01124 82795 32597 61406 10259 20184 39534 40147 84201 333 20205 58005;EQDQ01  00002PRCP06
0167827950999992004010118004-07217-035883FM-12+0560SBKG V0201401N003110075019N0100001N1+02641+01931101241ADDAA106000091GF106991061071008001001001MA1999999095101MD1999999+0161REMSYN070AAXX  01184 82795 32597 61406 10264 20193 39510 40124 86700 333 58016;EQDQ01  00002PRCP06
0198827950999992004010200004-07217-035883FM-12+0560SBKG V0200901N004112200019N0010001N1+02281+01981101371ADDAA106000091GF104991031021008001001011KA1240M+02731MA1999999095251MD1999999-0101REMSYN088AAXX  02004 82795 32594 40908 10228 20198 39525 40137 83201 333 10273 29074 55057 59010;EQDQ01  00002PRCP06
0186827950999992004010212004-07217-035883FM-12+0560SBKG V0200501N002612200019N0100001N1+02521+01911101471ADDAA106000091GF105991031021008001001011KA1240N+02061MA1999999095331MD1999999-0011REMSYN076AAXX  02124 82795 32597 50505 10252 20191 39533 40147 83201 333 20206 59001;EQDQ01  00002PRCP06
0167827950999992004010218004-07217-035883FM-12+0560SBKG V0200501N003111050019N0100001N1+02641+01951101011ADDAA106000091GF106991031031008001001021MA1999999094881MD1999999-0221REMSYN070AAXX  02184 82795 32597 60506 10264 20195 39488 40101 83302 333 59022;EQDQ01  00002PRCP06
0214827950999992004010300004-07217-035883FM-12+0560SBKG V0201401N004119999999N0010001N1+02361+02111101011ADDAA106000091GF105991999061008001001001KA1240M+03121MA1999999094881MD1999999-0221REMSYN088AAXX  03004 82795 32594 51408 10236 20211 39488 40101 86600 333 10312 29076 55092 59022;EQDQ01+000062SCOTLCQ02  00002PRCP06
0186827950999992004010312004-07217-035883FM-12+0560SBKG V0201401N005110075019N0100001N1+02691+01971101261ADDAA106000091GF105991051021008001001001KA1240N+01081MA1999999095161MD1999999-0171REMSYN076AAXX  03124 82795 32597 51410 10269 20197 39516 40126 85200 333 20108 59017;EQDQ01  00002PRCP06
0167827950999992004010318004-07217-035883FM-12+0560SBKG V0201401N004612200019N0100001N1+03131+01791100851ADDAA106000091GF104991041021008001001001MA1999999094811MD1999999-0071REMSYN070AAXX  03184 82795 32597 41409 10313 20179 39481 40085 84200 333 59007;EQDQ01  00002PRCP06
0214827950999992004010400004-07217-035883FM-12+0560SBKG V0200401N003612200019N0010001N1+02311+02071101081ADDAA106000091GF104991999031008001001001KA1240M+03261MA1999999094991MD1999999-0041REMSYN088AAXX  04004 82795 32594 40407 10231 20207 39499 40108 83300 333 10326 29071 55105 59004;EQDQ01+000032SCOTLCQ02  00002PRCP06
0186827950999992004010412004-07217-035883FM-12+0560SBKG V0201401N006210075019N0100001N1+02541+01971101231ADDAA106000091GF105991051021008001001001KA1240N+02211MA1999999095111MD1999999-0051REMSYN076AAXX  04124 82795 32597 51412 10254 20197 39511 40123 85200 333 20221 59005;EQDQ01  00002PRCP06
0198827950999992004010500004-07217-035883FM-12+0560SBKG V0201401N003612200019N0010001N1+02331+02051101181ADDAA106000091GF104991041061008001001001KA1240M+03191MA1999999095061MD1999999+0071REMSYN088AAXX  05004 82795 32594 41407 10233 20205 39506 40118 84600 333 10319 29071 55098 58007;EQDQ01  00002PRCP06
0186827950999992004010512004-07217-035883FM-12+0560SBKG V0201401N004612200019N0100001N1+02581+01851101271ADDAA106000091GF104991041021008001001001KA1240N+02121MA1999999095151MD1999999+0041REMSYN076AAXX  05124 82795 32597 41409 10258 20185 39515 40127 84200 333 20212 58004;EQDQ01  00002PRCP06
0167827950999992004010518004-07217-035883FM-12+0560SBKG V0201401N003612200019N0100001N1+03101+01501100871ADDAA106000091GF102991021021008001001001MA1999999094821MD1999999+0011REMSYN070AAXX  05184 82795 32597 21407 10310 20150 39482 40087 82200 333 58001;EQDQ01  00002PRCP06
0208827950999992004010600004-07217-035883FM-12+0560SBKG V0201401N003612200019N0010001N1+02331+01851101281ADDAA106000091GA1001+999999999GF100991001001999999001001KA1240M+03181MA1999999095161MD1999999+0101REMSYN082AAXX  06004 82795 32994 01407 10233 20185 39516 40128 333 10318 29064 55104 58010;EQDQ01  00002PRCP06
0190827950999992004010612004-07217-035883FM-12+0560SBKG V0201401N002610075019N0100001N1+02791+02001101381ADDAY161061AY221061GF105991051031008001001001KA1240N+02041MA1999999095241MD1999999+0091MW1021REMSYN088AAXX  06124 82795 21597 51405 10279 20200 39524 40138 70262 85300 333 20204 58009 60024;
0167827950999992004010618004-07217-035883FM-12+0560SBKG V0201401N004610075019N0100001N1+03071+01901101041ADDAA106000091GF105991051031008001001001MA1999999094931MD1999999+0131REMSYN070AAXX  06184 82795 32597 51409 10307 20190 39493 40104 85300 333 58013;EQDQ01  00002PRCP06
0198827950999992004010700004-07217-035883FM-12+0560SBKG V0201401N005712200019N0010001N1+02321+02021101331ADDAA106000091GF104991021061008001001011KA1240M+03161MA1999999095181MD1999999+0041REMSYN088AAXX  07004 82795 32594 41411 10232 20202 39518 40133 82601 333 10316 29072 55092 58004;EQDQ01  00002PRCP06
0186827950999992004010712004-07217-035883FM-12+0560SBKG V0201401N003112200019N0100001N1+02711+01911101361ADDAA106000091GF104991041021008001001001KA1240N+02071MA1999999095251MD1999999+0011REMSYN076AAXX  07124 82795 32597 41406 10271 20191 39525 40136 84200 333 20207 58001;EQDQ01  00002PRCP06
0167827950999992004010718004-07217-035883FM-12+0560SBKG V0201401N004612200019N0100001N1+03131+01681100961ADDAA106000091GF105991011021008001001011MA1999999094901MD1999999-0031REMSYN070AAXX  07184 82795 32597 51409 10313 20168 39490 40096 81201 333 59003;EQDQ01  00002PRCP06
0198827950999992004010800004-07217-035883FM-12+0560SBKG V0201401N005110075019N0010001N1+02401+02091101311ADDAA106000091GF106991061021008001001001KA1240M+03211MA1999999095221MD1999999+0021REMSYN088AAXX  08004 82795 32594 61410 10240 20209 39522 40131 86200 333 10321 29070 55111 58002;EQDQ01  00002PRCP06
0190827950999992004010812004-07217-035883FM-12+0560SBKG V0201401N002610450019N0100001N1+02411+02111101231ADDAY151061AY221061GF106991031071008001021001KA1240N+02161MA1999999095111MD1999999-0141MW1021REMSYN088AAXX  08124 82795 21597 61405 10241 20211 39511 40123 70252 83720 333 20216 59014 69954;
0167827950999992004010818004-07217-035883FM-12+0560SBKG V0201401N004611050019N0100001N1+03021+02071100891ADDAA106000091GF107991041041008001001021MA1999999094831MD1999999-0071REMSYN070AAXX  08184 82795 32597 71409 10302 20207 39483 40089 84402 333 59007;EQDQ01  00002PRCP06
0198827950999992004010900004-07217-035883FM-12+0560SBKG V0201401N005710075019N0010001N1+02331+02111101291ADDAA106000091GF106991061051008001001001KA1240M+03171MA1999999095151MD1999999-0071REMSYN088AAXX  09004 82795 32594 61411 10233 20211 39515 40129 86500 333 10317 29079 55069 59007;EQDQ01  00002PRCP06
0186827950999992004010912004-07217-035883FM-12+0560SBKG V0201401N004610075019N0100001N1+02621+01761101191ADDAA106000091GF105991051021008001001001KA1240N+02201MA1999999095081MD1999999-0031REMSYN076AAXX  09124 82795 32597 51409 10262 20176 39508 40119 85200 333 20220 59003;EQDQ01  00002PRCP06
0167827950999992004010918004-07217-035883FM-12+0560SBKG V0201401N003112200019N0100001N1+03161+01711100811ADDAA106000091GF103991031011008001001001MA1999999094771MD1999999-0061REMSYN070AAXX  09184 82795 32597 31406 10316 20171 39477 40081 83100 333 59006;EQDQ01  00002PRCP06
0208827950999992004011000004-07217-035883FM-12+0560SBKG V0201401N004112200019N0010001N1+02331+01911101211ADDAA106000091GA1001+999999999GF100991001001999999001001KA1240M+03231MA1999999095111MD1999999-0111REMSYN082AAXX  10004 82795 32994 01408 10233 20191 39511 40121 333 10323 29064 55101 59011;EQDQ01  00002PRCP06
0190827950999992004011012004-07217-035883FM-12+0560SBKG V0200501N002110075019N0100001N1+02321+02181101221ADDAY161061AY221061GF108991081071008001999999KA1240N+02161MA1999999095071MD1999999-0011MW1021REMSYN088AAXX  10124 82795 21597 80504 10232 20218 39507 40122 70262 887// 333 20216 59001 60014;
0167827950999992004011018004-07217-035883FM-12+0560SBKG V0201401N001510075019N0100001N1+03041+01911100831ADDAA106000091GF105991051041008001001001MA1999999094761MD1999999-0011REMSYN070AAXX  10184 82795 32597 51403 10304 20191 39476 40083 85400 333 59001;EQDQ01  00002PRCP06
0198827950999992004011100004-07217-035883FM-12+0560SBKG V0201401N004610075019N0010001N1+02371+02131101201ADDAA106000091GF105991051061008001001001KA1240M+03111MA1999999095061MD1999999-0051REMSYN088AAXX  11004 82795 32594 51409 10237 20213 39506 40120 85600 333 10311 29079 55051 59005;EQDQ01  00002PRCP06
0186827950999992004011112004-07217-035883FM-12+0560SBKG V0200901N003610450019N0100001N1+02611+02031101381ADDAA106000091GF106991041031008001031001KA1240N+02211MA1999999095271MD1999999+0201REMSYN076AAXX  11124 82795 32597 60907 10261 20203 39527 40138 84330 333 20221 58020;EQDQ01  00002PRCP06
0167827950999992004011118004-07217-035883FM-12+0560SBKG V0201401N004110450019N0100001N1+02851+02041101081ADDAA106000091GF108991031041008001081051MA1999999094991MD1999999+0231REMSYN070AAXX  11184 82795 32597 81408 10285 20204 39499 40108 83485 333 58023;EQDQ01  00002PRCP06
0221827950999992004011200004-07217-035883FM-12+0560SBKG V0200901N003619999999N0010001N1+02341+02221101381ADDAY151061AY221061GF106991999071008001999999KA1240M+03101MA1999999095261MD1999999+0201MW1021REMSYN100AAXX  12004 82795 21594 60907 10234 20222 39526 40138 70252 887// 333 10310 29079 55027 58020 69911;EQDQ01+000082SCOTLC
0190827950999992004011212004-07217-035883FM-12+0560SBKG V0201401N002610075019N0100001N1+02441+02111101441ADDAY151061AY221061GF108991051071008001021999KA1240N+02241MA1999999095301MD1999999+0091MW1021REMSYN088AAXX  12124 82795 21597 81405 10244 20211 39530 40144 70252 8572/ 333 20224 58009 69944;
0195827950999992004011218004-07217-035883FM-12+0560SBKG V0201401N004610450019N0040001N1+02861+02141101031ADDAA106000091AY121061AY221061GF107991041081008001031001MA1999999094951MD1999999-0041MW1161REMSYN076AAXX  12184 82795 31596 71409 10286 20214 39495 40103 71622 84830 333 59004;EQDQ01  00002PRCP06
0202827950999992004011300004-07217-035883FM-12+0560SBKG V0201401N003110075019N0010001N1+02261+02231101471ADDAY161061AY221061GF108991081071008001999999KA1240M+03041MA1999999095331MD1999999+0071MW1611REMSYN100AAXX  13004 82795 21594 81406 10226 20223 39533 40147 76162 887// 333 10304 29085 55025 58007 60141;
0181827950999992004011312004-07217-035883FM-12+0560SBKG V0200501N002119999999N0100001N1+02541+02151101421ADDGF106991999021008001061021KA1240N+02141MA1999999095281MD1999999-0021REMSYN082AAXX  13124 82795 22597 60504 10254 20215 39528 40142 80262 333 20214 59002 60154;EQDQ01+000002SCOTLC
0195827950999992004011318004-07217-035883FM-12+0560SBKG V0201401N005110450019N0040001N1+02871+02191100931ADDAA106000091AY121061AY221061GF108991041071008001031999MA1999999094861MD1999999-0091MW1011REMSYN076AAXX  13184 82795 31596 81410 10287 20219 39486 40093 70122 8473/ 333 59009;EQDQ01  00002PRCP06
0198827950999992004011400004-07217-035883FM-12+0560SBKG V0201401N002110075019N0010001N1+02361+02151101281ADDAA106000091GF105991051061008001001001KA1240M+03001MA1999999095151MD1999999-0111REMSYN088AAXX  14004 82795 32594 51404 10236 20215 39515 40128 85600 333 10300 29080 55049 59011;EQDQ01  00002PRCP06
0190827950999992004011412004-07217-035883FM-12+0560SBKG V0201401N004610450019N0100001N1+02441+02191101331ADDAY151061AY221061GF106991031071008001021001KA1240N+02111MA1999999095201MD1999999-0081MW1021REMSYN088AAXX  14124 82795 21597 61409 10244 20219 39520 40133 70252 83720 333 20211 59008 69934;
0171827950999992004011418004-07217-035883FM-12+0560SBKG V0200901N003110120019N0100001N1+02381+02011101181ADDAY161061AY251061GF108991081081008001999999MA1999999095031MD1999999+0171MW1201REMSYN082AAXX  14184 82795 21597 80906 10238 20201 39503 40118 72065 888// 333 58017 60061;
0202827950999992004011500004-07217-035883FM-12+0560SBKG V0202701N000510120019N0010001N1+02131+02071101531ADDAY161061AY251061GF108991081081008001999999KA1240M+02591MA1999999095391MD1999999+0241MW1511REMSYN100AAXX  15004 82795 21594 82701 10213 20207 39539 40153 75165 888// 333 10259 29090 55016 58024 60071;
0162827950999992004011512004-07217-035883FM-12+0560SBKG V0201401N003110450019N0100001N1+02341+02151101351ADDGF106991031071008001021001KA1240N+02061MA1999999095171MD1999999-0031REMSYN082AAXX  15124 82795 22597 61406 10234 20215 39517 40135 83720 333 20206 59003 60144;
0167827950999992004011518004-07217-035883FM-12+0560SBKG V0200901N003110450019N0100001N1+02881+02001100941ADDAA106000091GF107991041041008001031011MA1999999094861MD1999999-0171REMSYN070AAXX  15184 82795 32597 70906 10288 20200 39486 40094 84431 333 59017;EQDQ01  00002PRCP06
0202827950999992004011600004-07217-035883FM-12+0560SBKG V0200501N003110075019N0010001N1+02291+02181101351ADDAY161061AY221061GF105991051061008001001001KA1240M+02901MA1999999095191MD1999999-0201MW1021REMSYN100AAXX  16004 82795 21594 50506 10229 20218 39519 40135 70262 85600 333 10290 29082 55029 59020 60061;
0190827950999992004011612004-07217-035883FM-12+0560SBKG V0201401N003610075019N0100001N1+02381+02171101151ADDAY161061AY221061GF106991061071008001001001KA1240N+02051MA1999999095011MD1999999-0161MW1021REMSYN088AAXX  16124 82795 21597 61407 10238 20217 39501 40115 70262 86700 333 20205 59016 60054;
0167827950999992004011618004-07217-035883FM-12+0560SBKG V0201401N003110450019N0100001N1+02721+02131100831ADDAA106000091GF108991041051008001051999MA1999999094751MD1999999-0111REMSYN070AAXX  16184 82795 32597 81406 10272 20213 39475 40083 8455/ 333 59011;EQDQ01  00002PRCP06
0198827950999992004011700004-07217-035883FM-12+0560SBKG V0201401N004612200019N0010001N1+02331+02131101081ADDAA106000091GF104991041061008001001001KA1240M+02751MA1999999094951MD1999999-0241REMSYN088AAXX  17004 82795 32594 41409 10233 20213 39495 40108 84600 333 10275 29084 55024 59024;EQDQ01  00002PRCP06
0186827950999992004011712004-07217-035883FM-12+0560SBKG V0201401N003610450019N0100001N1+02601+02101101191ADDAA106000091GF106991031051008001031001KA1240N+02161MA1999999095081MD1999999+0071REMSYN076AAXX  17124 82795 32597 61407 10260 20210 39508 40119 83530 333 20216 58007;EQDQ01  00002PRCP06
0167827950999992004011718004-07217-035883FM-12+0560SBKG V0201401N001510450019N0100001N1+03021+01861100781ADDAA106000091GF107991041081008001031041MA1999999094731MD1999999-0081REMSYN070AAXX  17184 82795 32597 71403 10302 20186 39473 40078 84834 333 59008;EQDQ01  00002PRCP06
0202827950999992004011800004-07217-035883FM-12+0560SBKG V0201401N002110075019N0010001N1+02341+02151101161ADDAY161061AY221061GF108991081071008001999999KA1240M+03021MA1999999095051MD1999999+0101MW1021REMSYN100AAXX  18004 82795 21594 81404 10234 20215 39505 40116 70262 887// 333 10302 29075 55057 58010 60101;
0190827950999992004011812004-07217-035883FM-12+0560SBKG V0200501N001510120019N0100001N1+02471+02091101341ADDAY161061AY221061GF108991081081008001999999KA1240N+02251MA1999999095201MD1999999+0131MW1021REMSYN088AAXX  18124 82795 21597 80503 10247 20209 39520 40134 70262 888// 333 20225 58013 60104;
0202827950999992004011900004-07217-035883FM-12+0560SBKG V0209999C000010120019N0010001N1+02221+02071101511ADDAY161061AY251061GF108991081081008001999999KA1240M+02721MA1999999095351MD1999999+0301MW1501REMSYN100AAXX  19004 82795 21594 83200 10222 20207 39535 40151 75065 888// 333 10272 29087 55003 58030 60021;
0162827950999992004011912004-07217-035883FM-12+0560SBKG V0200501N002110450019N0100001N1+02721+01681101231ADDGF106991031031008001041001KA1240N+02041MA1999999095121MD1999999-0021REMSYN082AAXX  19124 82795 22597 60504 10272 20168 39512 40123 83340 333 20204 59002 60054;
0171827950999992004011918004-07217-035883FM-12+0560SBKG V0203201N003110450019N0020001N1+02481+02051101001ADDAY121061AY221061GF108991041071004501051999MA1999999094851MD1999999-0221MW1211REMSYN082AAXX  19184 82795 21495 83206 10248 20205 39485 40100 72122 8475/ 333 59022 60021;
0202827950999992004012000004-07217-035883FM-12+0560SBKG V0201401N003110090019N0010001N1+02241+02031101501ADDAY161061AY291061GF108991081081004501999999KA1240M+02981MA1999999095341MD1999999-0011MW1951REMSYN100AAXX  20004 82795 21494 81406 10224 20203 39534 40150 79569 888// 333 10298 29078 55022 59001 60021;
0190827950999992004012012004-07217-035883FM-12+0560SBKG V0201401N001510075019N0100001N1+02311+02051101351ADDAY161061AY221061GF108991051071008001011999KA1240N+02231MA1999999095181MD1999999+0061MW1021REMSYN088AAXX  20124 82795 21597 81403 10231 20205 39518 40135 70262 8571/ 333 20223 58006 60174;
0171827950999992004012018004-07217-035883FM-12+0560SBKG V0200901N002610120019N0100001N1+02601+02011100921ADDAY151061AY221061GF108991081081008001999999MA1999999094811MD1999999-0041MW1021REMSYN082AAXX  20184 82795 21597 80905 10260 20201 39481 40092 70252 888// 333 59004 69951;
0202827950999992004012100004-07217-035883FM-12+0560SBKG V0200901N000510090019N0010001N1+02031+01951101561ADDAY161061AY261061GF108991081081004501999999KA1240M+02681MA1999999095301MD1999999+0161MW1631REMSYN100AAXX  21004 82795 21494 80901 10203 20195 39530 40156 76366 888// 333 10268 29087 55008 58016 60321;
0190827950999992004012112004-07217-035883FM-12+0560SBKG V0202301N002110450019N0100001N1+02491+02231101361ADDAY161061AY221061GF106991021041008001031011KA1240N+02331MA1999999095181MD1999999+0001MW1021REMSYN088AAXX  21124 82795 21597 62304 10249 20223 39518 40136 70262 82431 333 20233 58000 60394;
0167827950999992004012118004-07217-035883FM-12+0560SBKG V0202301N001510450019N0100001N1+02851+01911101011ADDAA106000091GF107991041051008001031021MA1999999094801MD1999999-0011REMSYN070AAXX  21184 82795 32597 72303 10285 20191 39480 40101 84532 333 59001;EQDQ01  00002PRCP06
0202827950999992004012200004-07217-035883FM-12+0560SBKG V0200501N001510450019N0010001N1+02221+01951101251ADDAY161061AY221061GF108991041051008001051999KA1240M+02861MA1999999095131MD1999999-0171MW1021REMSYN100AAXX  22004 82795 21594 80503 10222 20195 39513 40125 70262 8455/ 333 10286 29079 55057 59017 60011;
0190827950999992004012212004-07217-035883FM-12+0560SBKG V0200501N001010075019N0100001N1+02631+01981101201ADDAY161061AY221061GF108991051071008001021999KA1240N+02061MA1999999095081MD1999999-0101MW1021REMSYN088AAXX  22124 82795 21597 80502 10263 20198 39508 40120 70262 8572/ 333 20206 59010 60084;
0202827950999992004012300004-07217-035883FM-12+0560SBKG V0200901N001510075019N0010001N1+02171+02011101201ADDAY161061AY251061GF108991081071008001999999KA1240M+02711MA1999999095081MD1999999+0051MW1501REMSYN100AAXX  23004 82795 21594 80903 10217 20201 39508 40120 75065 887// 333 10271 29086 55038 58005 60051;
0181827950999992004012309004-07217-035883FM-15+0560SBKG V0201301N003110030019N0050001N1+02101+02101999999ADDGA1071+003009999GA2071+004509999GF107991999999999999999999MA1101291999999MW1101REMMET055SBKG 230900Z 13006KT 5000 BR BKN010 BKN015 21/21 Q1013;EQDQ01+000003PRSWM1Q02    003PRSWM1
0185827950999992004012310004-07217-035883FM-15+0560SBKG V0201001N003110045019N0112651N1+02201+02201999999ADDGA1041+003609999GA2071+004509999GA3071+024009999GF107991999999999999999999MA1101291999999MW1001REMMET059SBKG 231000Z 10006KT 9999 SCT012 BKN015 BKN080 22/22 Q1013;EQDQ01+000000PRSWM2
0190827950999992004012312004-07217-035883FM-12+0560SBKG V0200501N001510450019N0100001N1+02171+02101101241ADDAY161061AY221061GF106991041051008001031001KA1240N+02151MA1999999095061MD1999999-0021MW1021REMSYN088AAXX  23124 82795 21597 60503 10217 20210 39506 40124 70262 84530 333 20215 59002 60494;
0167827950999992004012318004-07217-035883FM-12+0560SBKG V0201401N005110120019N0100001N1+02651+01931100911ADDAA106000091GF107991051081008001031001MA1999999094791MD1999999+0041REMSYN070AAXX  23184 82795 32597 71410 10265 20193 39479 40091 85830 333 58004;EQDQ01  00002PRCP06
0198827950999992004012400004-07217-035883FM-12+0560SBKG V0201401N003110075019N0010001N1+02261+02181101301ADDAA106000091GF106991061061008001001001KA1240M+02721MA1999999095121MD1999999+0041REMSYN088AAXX  24004 82795 32594 61406 10226 20218 39512 40130 86600 333 10272 29088 55034 58004;EQDQ01  00002PRCP06
0186827950999992004012412004-07217-035883FM-12+0560SBKG V0201401N002110450019N0100001N1+02411+01991101331ADDAA106000091GF106991031081008001031001KA1240N+02131MA1999999095151MD1999999+0111REMSYN076AAXX  24124 82795 32597 61404 10241 20199 39515 40133 83830 333 20213 58011;EQDQ01  00002PRCP06
0167827950999992004012418004-07217-035883FM-12+0560SBKG V0201401N003111050019N0100001N1+02821+01751100951ADDAA106000091GF106991031031008001001021MA1999999094871MD1999999+0081REMSYN070AAXX  24184 82795 32597 61406 10282 20175 39487 40095 83302 333 58008;EQDQ01  00002PRCP06
0198827950999992004012500004-07217-035883FM-12+0560SBKG V0201401N003112200019N0010001N1+02311+02031101281ADDAA106000091GF104991041061008001001001KA1240M+02871MA1999999095141MD1999999+0021REMSYN088AAXX  25004 82795 32594 41406 10231 20203 39514 40128 84600 333 10287 29075 55076 58002;EQDQ01  00002PRCP06
0190827950999992004012512004-07217-035883FM-12+0560SBKG V0201401N002110450019N0100001N1+02351+02111101361ADDAY161061AY221061GF106991031081008001021001KA1240N+02041MA1999999095201MD1999999+0031MW1021REMSYN088AAXX  25124 82795 21597 61404 10235 20211 39520 40136 70262 83820 333 20204 58003 60244;
0190827950999992004012518004-07217-035883FM-12+0560SBKG V0201401N003119999999N0100001N1+02711+02061100991ADDAY161061AY221061GF106991999021008001001001MA1999999094861MD1999999-0011MW1021REMSYN082AAXX  25184 82795 21597 61406 10271 20206 39486 40099 70262 84200 333 59001 60011;EQDQ01+000042SCOTLC
0202827950999992004012600004-07217-035883FM-12+0560SBKG V0201401N001510090019N0010001N1+02181+02081101371ADDAY161061AY251061GF108991081081004501999999KA1240M+02741MA1999999095201MD1999999+0061MW1501REMSYN100AAXX  26004 82795 21494 81403 10218 20208 39520 40137 75065 888// 333 10274 29085 55042 58006 60011;
0190827950999992004012612004-07217-035883FM-12+0560SBKG V0200501N002110450019N0100001N1+02321+02051101331ADDAY161061AY221061GF106991041081008001061001KA1240N+02051MA1999999095161MD1999999-0041MW1021REMSYN088AAXX  26124 82795 21597 60504 10232 20205 39516 40133 70262 84860 333 20205 59004 60204;
0167827950999992004012618004-07217-035883FM-12+0560SBKG V0201401N003610450019N0100001N1+02881+02031100971ADDAA106000091GF107991041061008001031001MA1999999094871MD1999999+0011REMSYN070AAXX  26184 82795 32597 71407 10288 20203 39487 40097 84630 333 58001;EQDQ01  00002PRCP06
0202827950999992004012700004-07217-035883FM-12+0560SBKG V0201401N003610075019N0010001N1+02241+02101101201ADDAY161061AY221061GF105991051061008001001001KA1240M+02901MA1999999095041MD1999999-0181MW1021REMSYN100AAXX  27004 82795 21594 51407 10224 20210 39504 40120 70262 85600 333 10290 29082 55038 59018 60041;
0190827950999992004012712004-07217-035883FM-12+0560SBKG V0201401N001510120019N0100001N1+02171+02111101391ADDAY161061AY221061GF108991081081008001999999KA1240N+02141MA1999999095211MD1999999+0051MW1021REMSYN088AAXX  27124 82795 21597 81403 10217 20211 39521 40139 70262 888// 333 20214 58005 60124;
0171827950999992004012718004-07217-035883FM-12+0560SBKG V0200901N001510042019N0020001N1+02221+02141101191ADDAY161061AY251061GF108991081071004501999999MA1999999095011MD1999999+0141MW1511REMSYN082AAXX  27184 82795 21495 80903 10222 20214 39501 40119 75165 887// 333 58014 60141;
0202827950999992004012800004-07217-035883FM-12+0560SBKG V0200501N003110042019N0010001N1+02121+02071101461ADDAY111061AY261061GF108991081071004501999999KA1240M+02591MA1999999095261MD1999999+0221MW1251REMSYN100AAXX  28004 82795 21494 80506 10212 20207 39526 40146 72516 887// 333 10259 29097 55000 58022 60041;
0190827950999992004012812004-07217-035883FM-12+0560SBKG V0201401N001010075019N0100001N1+02321+02051101461ADDAY161061AY221061GF107991051051008001021001KA1240N+02031MA1999999095311MD1999999+0101MW1021REMSYN088AAXX  28124 82795 21597 71402 10232 20205 39531 40146 70262 85520 333 20203 58010 60234;
0171827950999992004012818004-07217-035883FM-12+0560SBKG V0200901N003110120019N0040001N1+02211+02141101291ADDAY161061AY251061GF108991081081008001999999MA1999999095091MD1999999+0081MW1201REMSYN082AAXX  28184 82795 21596 80906 10221 20214 39509 40129 72065 888// 333 58008 60131;
0202827950999992004012900004-07217-035883FM-12+0560SBKG V0201401N001510075019N0010001N1+02081+02031101541ADDAY161061AY251061GF108991081071008001999999KA1240M+02631MA1999999095341MD1999999+0081MW1021REMSYN100AAXX  29004 82795 21594 81403 10208 20203 39534 40154 70265 887// 333 10263 29097 55024 58008 60111;
0190827950999992004012912004-07217-035883FM-12+0560SBKG V0201401N003610450019N0100001N1+02221+01921101471ADDAY161061AY221061GF106991041041008001081001KA1240N+02031MA1999999095271MD1999999-0041MW1021REMSYN088AAXX  29124 82795 21597 61407 10222 20192 39527 40147 70262 84480 333 20203 59004 60264;
0167827950999992004012918004-07217-035883FM-12+0560SBKG V0201401N005110075019N0100001N1+02531+02051101161ADDAA106000091GF107991051041008001031001MA1999999095001MD1999999-0091REMSYN070AAXX  29184 82795 32597 71410 10253 20205 39500 40116 85430 333 59009;EQDQ01  00002PRCP06
0202827950999992004013000004-07217-035883FM-12+0560SBKG V0201401N003610075019N0010001N1+02221+02101101411ADDAY151061AY221061GF105991051061008001001001KA1240M+02791MA1999999095251MD1999999-0111MW1021REMSYN100AAXX  30004 82795 21594 51407 10222 20210 39525 40141 70252 85600 333 10279 29086 55039 59011 69921;
0190827950999992004013012004-07217-035883FM-12+0560SBKG V0201401N003110075019N0100001N1+02331+02111101471ADDAY141061AY221061GF106991051051008001021001KA1240N+02101MA1999999095201MD1999999+0021MW1021REMSYN088AAXX  30124 82795 21597 61406 10233 20211 39520 40147 70242 85520 333 20210 58002 60044;
0171827950999992004013018004-07217-035883FM-12+0560SBKG V0201401N003110450019N0100001N1+02611+02101101131ADDAY151061AY221061GF107991041041008001051001MA1999999095001MD1999999+0001MW1021REMSYN082AAXX  30184 82795 21597 71406 10261 20210 39500 40113 70252 84450 333 58000 60011;
0198827950999992004013100004-07217-035883FM-12+0560SBKG V0201401N002110075019N0010001N1+02261+02141101501ADDAA106000091GF106991061061008001001001KA1240M+02731MA1999999095321MD1999999+0091REMSYN088AAXX  31004 82795 32594 61404 10226 20214 39532 40150 86600 333 10273 29084 55032 58009;EQDQ01  00002PRCP06
0190827950999992004013112004-07217-035883FM-12+0560SBKG V0201401N003111050019N0100001N1+02471+02071101321ADDAY161061AY221061GF106991041081008001001031KA1240N+02121MA1999999095181MD1999999-0111MW1021REMSYN088AAXX  31124 82795 21597 61406 10247 20207 39518 40132 70262 84803 333 20212 59011 60024;
0171827950999992004013118004-07217-035883FM-12+0560SBKG V0201401N003110075019N0100001N1+02311+02181101281ADDAY161061AY251061GF107991051071008001021001MA1999999095091MD1999999+0091MW1201REMSYN082AAXX  31184 82795 21597 71406 10231 20218 39509 40128 72065 85720 333 58009 60091;
0202827950999992004020100004-07217-035883FM-12+0560SBKG V0201401N001510075019N0010001N1+02201+02121101421ADDAY161061AY251061GF108991081071008001999999KA1240M+02721MA1999999095261MD1999999-0061MW1501REMSYN100AAXX  01004 82795 21594 81403 10220 20212 39526 40142 75065 887// 333 10272 29090 55035 59006 60141;
0190827950999992004020112004-07217-035883FM-12+0560SBKG V0200901N002610450019N0100001N1+02161+02091101581ADDAY161061AY221061GF106991021041008001041001KA1240N+01991MA1999999095371MD1999999+0191MW1021REMSYN088AAXX  01124 82795 21597 60905 10216 20209 39537 40158 70262 82440 333 20199 58019 60764;
0167827950999992004020118004-07217-035883FM-12+0560SBKG V0201401N001510120019N0100001N1+02731+02001101231ADDAA106000091GF105991051081008001001001MA1999999095091MD1999999+0001REMSYN070AAXX  01184 82795 32597 51403 10273 20200 39509 40123 85800 333 58000;EQDQ01  00002PRCP06
0202827950999992004020200004-07217-035883FM-12+0560SBKG V0201401N003110075019N0010001N1+02231+02071101501ADDAY151061AY221061GF105991051061008001001001KA1240M+02781MA1999999095311MD1999999+0051MW1021REMSYN100AAXX  02004 82795 21594 51406 10223 20207 39531 40150 70252 85600 333 10278 29085 55055 58005 69941;
0190827950999992004020212004-07217-035883FM-12+0560SBKG V0201401N003110075019N0100001N1+02521+02091101421ADDAY161061AY221061GF106991061021008001001001KA1240N+02061MA1999999095271MD1999999-0101MW1021REMSYN088AAXX  02124 82795 21597 61406 10252 20209 39527 40142 70262 86200 333 20206 59010 60044;
0171827950999992004020218004-07217-035883FM-12+0560SBKG V0201401N000510075019N0100001N1+02441+02111101061ADDAY161061AY251061GF107991051041008001081001MA1999999094961MD1999999-0131MW1211REMSYN082AAXX  02184 82795 21597 71401 10244 20211 39496 40106 72165 85480 333 59013 60041;
0179827950999992004020300004-07217-035883FM-12+0560SBKG V0200901N002110075019N0010001N1+02221+02151101381ADDAA106000021GF108991081071008001999999KA1240M+02841MA1999999095231MD1999999-0081REMSYN088AAXX  03004 82795 32594 80904 10222 20215 39523 40138 887// 333 10284 29088 55062 59008;
0162827950999992004020312004-07217-035883FM-12+0560SBKG V0201401N000510075019N0100001N1+02431+01991101261ADDGF106991061021008001001001KA1240N+02141MA1999999095111MD1999999-0161REMSYN082AAXX  03124 82795 22597 61401 10243 20199 39511 40126 86200 333 20214 59016 60044;
0171827950999992004020318004-07217-035883FM-12+0560SBKG V0201401N005110075019N0100001N1+02341+02261101061ADDAY161061AY251061GF108991081071008001999999MA1999999094911MD1999999+0051MW1611REMSYN082AAXX  03184 82795 21597 81410 10234 20226 39491 40106 76165 887// 333 58005 60051;
0202827950999992004020400004-07217-035883FM-12+0560SBKG V0200901N004110075019N0010001N1+02261+02161101351ADDAY161061AY221061GF108991081071008001999999KA1240M+02931MA1999999095211MD1999999-0021MW1021REMSYN100AAXX  04004 82795 21594 80908 10226 20216 39521 40135 70262 887// 333 10293 29090 55046 59002 60011;
0190827950999992004020412004-07217-035883FM-12+0560SBKG V0201401N003110075019N0100001N1+02461+02211101331ADDAY161061AY221061GF107991071071008001001001KA1240N+02091MA1999999095191MD1999999+0081MW1021REMSYN088AAXX  04124 82795 21597 71406 10246 20221 39519 40133 70262 87700 333 20209 58008 60114;
0171827950999992004020418004-07217-035883FM-12+0560SBKG V0201401N002110075019N0100001N1+02421+02251101081ADDAY161061AY291061GF108991081071008001999999MA1999999094931MD1999999+0021MW1951REMSYN082AAXX  04184 82795 21597 81404 10242 20225 39493 40108 79569 887// 333 58002 60051;
0202827950999992004020500004-07217-035883FM-12+0560SBKG V0200901N000510120019N0002001N1+02201+02151101371ADDAY191061AY261061GF108991081081008001999999KA1240M+02821MA1999999095211MD1999999+0061MW1611REMSYN100AAXX  05004 82795 21592 80901 10220 20215 39521 40137 76196 888// 333 10282 29092 55029 58006 60501;
0190827950999992004020512004-07217-035883FM-12+0560SBKG V0201401N001510075019N0040001N1+02341+02271101281ADDAY161061AY251061GF108991081071008001999999KA1240N+02131MA1999999095121MD1999999-0071MW1501REMSYN088AAXX  05124 82795 21596 81403 10234 20227 39512 40128 75065 887// 333 20213 59007 60584;
0171827950999992004020518004-07217-035883FM-12+0560SBKG V0201401N003110075019N0040001N1+02211+02081101091ADDAY161061AY251061GF108991081071008001999999MA1999999094911MD1999999-0021MW1511REMSYN082AAXX  05184 82795 21596 81406 10221 20208 39491 40109 75165 887// 333 59002 60011;
0202827950999992004020600004-07217-035883FM-12+0560SBKG V0200901N000510075019N0010001N1+02241+02191101331ADDAY161061AY251061GF108991081071008001999999KA1240M+02691MA1999999095171MD1999999-0041MW1021REMSYN100AAXX  06004 82795 21594 80901 10224 20219 39517 40133 70265 887// 333 10269 29096 55000 59004 60091;
0190827950999992004020612004-07217-035883FM-12+0560SBKG V0200901N002110075019N0100001N1+02391+02211101261ADDAY161061AY221061GF107991071071008001001001KA1240N+02081MA1999999095111MD1999999-0011MW1021REMSYN088AAXX  06124 82795 21597 70904 10239 20221 39511 40126 70262 87700 333 20208 59001 60164;
0167827950999992004020618004-07217-035883FM-12+0560SBKG V0200501N003110450019N0100001N1+02731+02081101061ADDAA106000091GF106991031081008001031001MA1999999094941MD1999999-0041REMSYN070AAXX  06184 82795 32597 60506 10273 20208 39494 40106 83830 333 59004;EQDQ01  00002PRCP06
0198827950999992004020700004-07217-035883FM-12+0560SBKG V0200901N002110450019N0010001N1+02291+02161101241ADDAA106000091GF107991041021008001051001KA1240M+02771MA1999999095101MD1999999-0071REMSYN088AAXX  07004 82795 32594 70904 10229 20216 39510 40124 84250 333 10277 29086 55037 59007;EQDQ01  00002PRCP06
0186827950999992004020712004-07217-035883FM-12+0560SBKG V0200901N004110075019N0100001N1+02491+02091101211ADDAA106000091GF106991061061008001001001KA1240N+02161MA1999999095091MD1999999-0021REMSYN076AAXX  07124 82795 32597 60908 10249 20209 39509 40121 86600 333 20216 59002;EQDQ01  00002PRCP06
0171827950999992004020718004-07217-035883FM-12+0560SBKG V0200901N001510450019N0020001N1+02501+02341101031ADDAY161061AY221061GF107991041031008001081021MA1999999094891MD1999999-0051MW1601REMSYN082AAXX  07184 82795 21595 70903 10250 20234 39489 40103 76062 84382 333 59005 69961;
0198827950999992004020800004-07217-035883FM-12+0560SBKG V0200901N002610075019N0010001N1+02351+02261101291ADDAA106000021GF106991999061008001001001KA1240M+02861MA1999999095161MD1999999+0061REMSYN088AAXX  08004 82795 32594 60905 10235 20226 39516 40129 85600 333 10286 29097 55074 58006;EQDQ01+000052SCOTLC
0162827950999992004020812004-07217-035883FM-12+0560SBKG V0201401N003110075019N0100001N1+02471+02091101391ADDGF106991061021008001001001KA1240N+02511MA1999999095251MD1999999+0161REMSYN082AAXX  08124 82795 22597 61406 10247 20209 39525 40139 86200 333 20251 58016 69964;
0167827950999992004020818004-07217-035883FM-12+0560SBKG V0200901N004110075019N0100001N1+02861+02141101111ADDAA106000091GF106991061021008001001001MA1999999095021MD1999999+0131REMSYN070AAXX  08184 82795 32597 60908 10286 20214 39502 40111 86200 333 58013;EQDQ01  00002PRCP06
0198827950999992004020900004-07217-035883FM-12+0560SBKG V0200901N003612200019N0010001N1+02341+02151101421ADDAA106000091GF104991041021008001001001KA1240M+02911MA1999999095281MD1999999+0161REMSYN088AAXX  09004 82795 32594 40907 10234 20215 39528 40142 84200 333 10291 29081 55090 58016;EQDQ01  00002PRCP06
0186827950999992004020912004-07217-035883FM-12+0560SBKG V0201401N003610075019N0100001N1+02521+02021101521ADDAA106000091GF106991061021008001001001KA1240N+02131MA1999999095381MD1999999+0131REMSYN076AAXX  09124 82795 32597 61407 10252 20202 39538 40152 86200 333 20213 58013;EQDQ01  00002PRCP06
0167827950999992004020918004-07217-035883FM-12+0560SBKG V0201401N003612200019N0100001N1+02851+01791101161ADDAA106000091GF103991031021008001001001MA1999999095061MD1999999+0041REMSYN070AAXX  09184 82795 32597 31407 10285 20179 39506 40116 83200 333 58004;EQDQ01  00002PRCP06
0208827950999992004021000004-07217-035883FM-12+0560SBKG V0200901N001512200019N0010001N1+02291+01941101421ADDAA106000091GA1001+999999999GF100991001001999999001001KA1240M+02881MA1999999095281MD1999999+0001REMSYN082AAXX  10004 82795 32594 00903 10229 20194 39528 40142 333 10288 29072 55098 58000;EQDQ01  00002PRCP06
0190827950999992004021012004-07217-035883FM-12+0560SBKG V0201401N003612200019N0100001N1+02491+01981101441ADDAY161061AY221061GF106991041021008001001011KA1240N+02021MA1999999095301MD1999999-0081MW1021REMSYN088AAXX  10124 82795 21597 61407 10249 20198 39530 40144 70262 84201 333 20202 59008 69914;
0167827950999992004021018004-07217-035883FM-12+0560SBKG V0201401N004110075019N0100001N1+02891+01891101201ADDAA106000091GF105991051021008001001001MA1999999095091MD1999999+0031REMSYN070AAXX  10184 82795 32597 51408 10289 20189 39509 40120 85200 333 58003;EQDQ01  00002PRCP06
0198827950999992004021100004-07217-035883FM-12+0560SBKG V0200901N002610075019N0010001N1+02301+02071101411ADDAA106000091GF106991061021008001001001KA1240M+02921MA1999999095271MD1999999-0011REMSYN088AAXX  11004 82795 32594 60905 10230 20207 39527 40141 86200 333 10292 29076 55109 59001;EQDQ01  00002PRCP06
0186827950999992004021112004-07217-035883FM-12+0560SBKG V0201401N004110075019N0100001N1+02361+01911101441ADDAA106000091GF105991051021008001001001KA1240N+01961MA1999999095281MD1999999-0021REMSYN076AAXX  11124 82795 32597 51408 10236 20191 39528 40144 85200 333 20196 59002;EQDQ01  00002PRCP06
0167827950999992004021118004-07217-035883FM-12+0560SBKG V0201401N005112200019N0100001N1+02841+01701101241ADDAA106000091GF103991031021008001001001MA1999999095131MD1999999+0041REMSYN070AAXX  11184 82795 32597 31410 10284 20170 39513 40124 83200 333 58004;EQDQ01  00002PRCP06
0198827950999992004021200004-07217-035883FM-12+0560SBKG V0201401N003110075019N0010001N1+02451+01921101421ADDAA106000091GF106991061021008001001001KA1240M+02901MA1999999095281MD1999999+0011REMSYN088AAXX  12004 82795 32594 61406 10245 20192 39528 40142 86200 333 10290 29068 55112 58001;EQDQ01  00002PRCP06
0190827950999992004021212004-07217-035883FM-12+0560SBKG V0201401N003610075019N0020001N1+02201+02151101461ADDAY161061AY251061GF108991051071008001021999KA1240N+02081MA1999999095301MD1999999+0021MW1551REMSYN088AAXX  12124 82795 21595 81407 10220 20215 39530 40146 75565 8572/ 333 20208 58002 60074;
0171827950999992004021218004-07217-035883FM-12+0560SBKG V0201401N003610120019N0040001N1+02421+02251101311ADDAY161061AY251061GF108991081081008001999999MA1999999095141MD1999999+0011MW1021REMSYN082AAXX  12184 82795 21596 81407 10242 20225 39514 40131 70265 888// 333 58001 60151;
0198827950999992004021300004-07217-035883FM-12+0560SBKG V0200901N001010075019N0010001N1+02231+02081101571ADDAA106000091GF106991061061008001001001KA1240M+02951MA1999999095371MD1999999+0091REMSYN088AAXX  13004 82795 32594 60902 10223 20208 39537 40157 86600 333 10295 29093 55000 58009;EQDQ01  00002PRCP06
0162827950999992004021312004-07217-035883FM-12+0560SBKG V0201401N003110075019N0100001N1+02361+01971101611ADDGF106991061061008001001001KA1240N+02011MA1999999095431MD1999999+0131REMSYN082AAXX  13124 82795 22597 61406 10236 20197 39543 40161 86600 333 20201 58013 60154;
0167827950999992004021318004-07217-035883FM-12+0560SBKG V0201401N003611050019N0100001N1+02751+01841101241ADDAA106000091GF106991031041008001001021MA1999999095121MD1999999-0021REMSYN070AAXX  13184 82795 32597 61407 10275 20184 39512 40124 83402 333 59002;EQDQ01  00002PRCP06
0208827950999992004021400004-07217-035883FM-12+0560SBKG V0200901N003112200019N0010001N1+02221+01941101541ADDAA106000091GA1001+999999999GF100991001001999999001001KA1240M+02841MA1999999095371MD1999999+0001REMSYN082AAXX  14004 82795 32994 00906 10222 20194 39537 40154 333 10284 29076 55077 58000;EQDQ01  00002PRCP06
0186827950999992004021412004-07217-035883FM-12+0560SBKG V0201401N001510075019N0100001N1+02391+02031101561ADDAA106000091GF106991061021008001001001KA1240N+02031MA1999999095391MD1999999-0041REMSYN076AAXX  14124 82795 32597 61403 10239 20203 39539 40156 86200 333 20203 59004;EQDQ01  00002PRCP06
0171827950999992004021418004-07217-035883FM-12+0560SBKG V0200901N002610075019N0040001N1+02481+02191101261ADDAY161061AY221061GF107991061031008001061001MA1999999095101MD1999999-0021MW1211REMSYN082AAXX  14184 82795 21596 70905 10248 20219 39510 40126 72162 86360 333 59002 69951;
0221827950999992004021500004-07217-035883FM-12+0560SBKG V0200901N003110075019N0010001N1+02281+02171101461ADDAY161061AY221061GF108991999031008001001001KA1240M+02771MA1999999095301MD1999999-0071MW1021REMSYN100AAXX  15004 82795 21594 80906 10228 20217 39530 40146 70262 87300 333 10277 29089 55057 59007 60181;EQDQ01+000072SCOTLC
0190827950999992004021512004-07217-035883FM-12+0560SBKG V0201401N003610075019N0100001N1+02321+02181101401ADDAY161061AY251061GF108991051071008001011001KA1240N+02151MA1999999095231MD1999999-0161MW1021REMSYN088AAXX  15124 82795 21597 81407 10232 20218 39523 40140 70265 85710 333 20215 59016 60224;
0190827950999992004021518004-07217-035883FM-12+0560SBKG V0201401N003610075019N0040001N1+02571+02351101121ADDAY161061AY221061GF107991999031008001001001MA1999999094991MD1999999-0111MW1601REMSYN082AAXX  15184 82795 21596 71407 10257 20235 39499 40112 76062 86300 333 59011 60011;EQDQ01+000062SCOTLC
0202827950999992004021600004-07217-035883FM-12+0560SBKG V0200901N003610075019N0010001N1+02311+02181101411ADDAY161061AY221061GF107991051031008001051001KA1240M+02711MA1999999095211MD1999999-0051MW1021REMSYN100AAXX  16004 82795 21594 70907 10231 20218 39521 40141 70262 85350 333 10271 29091 55020 59005 60021;
0162827950999992004021612004-07217-035883FM-12+0560SBKG V0201401N003610075019N0100001N1+02451+02111101441ADDGF106991061021008001001001KA1240N+02161MA1999999095291MD1999999+0061REMSYN082AAXX  16124 82795 22597 61407 10245 20211 39529 40144 86200 333 20216 58006 60034;
0167827950999992004021618004-07217-035883FM-12+0560SBKG V0201401N002112200019N0100001N1+02891+01901101101ADDAA106000091GF104991041031008001001001MA1999999095011MD1999999+0021REMSYN070AAXX  16184 82795 32597 41404 10289 20190 39501 40110 84300 333 58002;EQDQ01  00002PRCP06
0186827950999992004021712004-07217-035883FM-12+0560SBKG V0201401N002610075019N0100001N1+02401+02031101531ADDAA106000091GF106991061021008001001001KA1240N+02061MA1999999095371MD1999999+0081REMSYN076AAXX  17124 82795 32597 61405 10240 20203 39537 40153 86200 333 20206 58008;EQDQ01  00002PRCP06
0077827950999992004021718004-07217-035883FM-12+0560SBKG V02099999999999999999N9999999N1+99999+99999999999REMSYN068AAXX  17184 82795 397 51409 10283 20177 39511 40122 82201 333 58010;
0208827950999992004021800004-07217-035883FM-12+0560SBKG V0200901N003112200019N0010001N1+02271+02031101541ADDAA106000091GA1001+999999999GF100991001001999999001001KA1240M+02911MA1999999095321MD1999999+0051REMSYN082AAXX  18004 82795 32994 00906 10227 20203 39532 40154 333 10291 29077 55093 58005;EQDQ01  00002PRCP06
0186827950999992004021812004-07217-035883FM-12+0560SBKG V0201401N004110075019N0100001N1+02501+01961101481ADDAA106000091GF106991051021008001021001KA1240N+02051MA1999999095331MD1999999-0041REMSYN076AAXX  18124 82795 32597 61408 10250 20196 39533 40148 85220 333 20205 59004;EQDQ01  00002PRCP06
0171827950999992004021818004-07217-035883FM-12+0560SBKG V0201401N002610120019N0020001N1+02461+02191101251ADDAY151061AY221061GF108991081081008001999999MA1999999095091MD1999999-0021MW1201REMSYN082AAXX  18184 82795 21595 81405 10246 20219 39509 40125 72052 888// 333 59002 69951;
0181827950999992004021912004-07217-035883FM-12+0560SBKG V0201401N003110075019N0100001N1+02451+02011101381ADDGF108991999021008001001001KA1240N+01981MA1999999095231MD1999999-0101REMSYN082AAXX  19124 82795 22597 81406 10245 20201 39523 40138 86200 333 20198 59010 69974;EQDQ01+000062SCOTLC
0167827950999992004021918004-07217-035883FM-12+0560SBKG V0201401N002610075019N0100001N1+02831+01801101101ADDAA106000091GF105991051031008001001001MA1999999094981MD1999999-0111REMSYN070AAXX  19184 82795 32597 51405 10283 20180 39498 40110 85300 333 59011;EQDQ01  00002PRCP06
0198827950999992004022000004-07217-035883FM-12+0560SBKG V0200901N003112200019N0010001N1+02321+02131101201ADDAA106000091GF104991021021008001001011KA1240M+02951MA1999999095061MD1999999-0181REMSYN088AAXX  20004 82795 32594 40906 10232 20213 39506 40120 82201 333 10295 29077 55085 59018;EQDQ01  00002PRCP06
0190827950999992004022012004-07217-035883FM-12+0560SBKG V0201401N002110075019N0100001N1+02371+02131101331ADDAY161061AY221061GF106991061061008001001001KA1240N+02131MA1999999095171MD1999999-0061MW1021REMSYN088AAXX  20124 82795 21597 61404 10237 20213 39517 40133 70262 86600 333 20213 59006 69914;
0171827950999992004022018004-07217-035883FM-12+0560SBKG V0201401N002119999999N0100001N1+02421+02011101171ADDAY151061AY221061GF107991071001008001071001MA1999999095011MD1999999+0031MW1021REMSYN082AAXX  20184 82795 21597 71404 10242 20201 39501 40117 70252 87070 333 58003 69961;
0198827950999992004022100004-07217-035883FM-12+0560SBKG V0200901N004610120019N0010001N1+02261+02111101321ADDAA106000091GF107991071081008001001001KA1240M+02771MA1999999095161MD1999999+0101REMSYN088AAXX  21004 82795 32594 70909 10226 20211 39516 40132 87800 333 10277 29086 55033 58010;EQDQ01  00002PRCP06
0190827950999992004022112004-07217-035883FM-12+0560SBKG V0201401N003610075019N0100001N1+02371+02071101511ADDAY161061AY221061GF108991081071008001999999KA1240N+02061MA1999999095341MD1999999+0171MW1021REMSYN088AAXX  21124 82795 21597 81407 10237 20207 39534 40151 70262 887// 333 20206 58017 69984;
0167827950999992004022118004-07217-035883FM-12+0560SBKG V0201401N004610075019N0100001N1+02761+02041101191ADDAA106000091GF106991061021008001001001MA1999999095081MD1999999+0071REMSYN070AAXX  21184 82795 32597 61409 10276 20204 39508 40119 86200 333 58007;EQDQ01  00002PRCP06
0198827950999992004022200004-07217-035883FM-12+0560SBKG V0200901N003610075019N0010001N1+02321+02001101391ADDAA106000091GF106991061021008001001001KA1240M+02861MA1999999095241MD1999999+0081REMSYN088AAXX  22004 82795 32594 60907 10232 20200 39524 40139 86200 333 10286 29078 55082 58008;EQDQ01  00002PRCP06
0192827950999992004022212004-07217-035883FM-12+0560SBKG V0201401N003610075019N0100001N1+02461+01991101451ADDAA106000091GF105991051021008001001001KA1240N+02051MA1999999095311MD1010001-0031REMSYN082AAXX  22124 82795 32597 51407 10246 20199 39531 40145 50000 85200 333 20205 59003;EQDQ01  00002PRCP06
0167827950999992004022218004-07217-035883FM-12+0560SBKG V0200901N003112200019N0100001N1+02921+01921101111ADDAA106000091GF103991031021008001001001MA1999999095021MD1999999-0061REMSYN070AAXX  22184 82795 32597 30906 10292 20192 39502 40111 83200 333 59006;EQDQ01  00002PRCP06
0198827950999992004022300004-07217-035883FM-12+0560SBKG V0200901N004610075019N0010001N1+02371+02111101441ADDAA106000091GF106991061021008001001001KA1240M+02941MA1999999095301MD1999999+0061REMSYN088AAXX  23004 82795 32594 60909 10237 20211 39530 40144 86200 333 10294 29075 55101 58006;EQDQ01  00002PRCP06
0162827950999992004022412004-07217-035883FM-12+0560SBKG V0201401N003610075019N0100001N1+02401+02051101511ADDGF106991061061008001001001KA1240N+02161MA1999999095351MD1999999-0031REMSYN082AAXX  24124 82795 22597 61407 10240 20205 39535 40151 86600 333 20216 59003 60034;
0167827950999992004022418004-07217-035883FM-12+0560SBKG V0200901N003110450019N0100001N1+02911+01921101101ADDAA106000091GF105991031021008001061021MA1999999095021MD1999999-0031REMSYN070AAXX  24184 82795 32597 50906 10291 20192 39502 40110 83262 333 59003;EQDQ01  00002PRCP06
0198827950999992004022500004-07217-035883FM-12+0560SBKG V0200901N002610075019N0010001N1+02331+02071101401ADDAA106000091GF106991051021008001061001KA1240M+02931MA1999999095251MD1999999+0011REMSYN088AAXX  25004 82795 32594 60905 10233 20207 39525 40140 85260 333 10293 29076 55058 58001;EQDQ01  00002PRCP06
0186827950999992004022512004-07217-035883FM-12+0560SBKG V0201401N003610075019N0100001N1+02391+02031101501ADDAA106000091GF107991071071008001001001KA1240N+02131MA1999999095271MD1999999-0081REMSYN076AAXX  25124 82795 32597 71407 10239 20203 39527 40150 87700 333 20213 59008;EQDQ01  00002PRCP06
0167827950999992004022518004-07217-035883FM-12+0560SBKG V0201401N002610450019N0100001N1+02861+01921101141ADDAA106000091GF108991041021008001081071MA1999999095041MD1999999+0021REMSYN070AAXX  25184 82795 32597 81405 10286 20192 39504 40114 84287 333 58002;EQDQ01  00002PRCP06
0198827950999992004022600004-07217-035883FM-12+0560SBKG V0200901N003112200019N0010001N1+02321+02051101401ADDAA106000091GF104991031021008001041001KA1240M+02911MA1999999095261MD1999999+0011REMSYN088AAXX  26004 82795 32594 40906 10232 20205 39526 40140 83240 333 10291 29077 55057 58001;EQDQ01  00002PRCP06
0186827950999992004022612004-07217-035883FM-12+0560SBKG V0201401N002110075019N0100001N1+02481+02011101511ADDAA106000091GF105991051021008001001001KA1240N+02061MA1999999095371MD1999999+0101REMSYN076AAXX  26124 82795 32597 51404 10248 20201 39537 40151 85200 333 20206 58010;EQDQ01  00002PRCP06
0167827950999992004022618004-07217-035883FM-12+0560SBKG V0200901N003610120019N0100001N1+02811+02001101201ADDAA106000091GF107991071081008001001001MA1999999095131MD1999999+0091REMSYN070AAXX  26184 82795 32597 70907 10281 20200 39513 40120 87800 333 58009;EQDQ01  00002PRCP06
0198827950999992004022700004-07217-035883FM-12+0560SBKG V0200901N002110120019N0010001N1+02281+02141101501ADDAA106000091GF107991071081008001001001KA1240M+02881MA1999999095341MD1999999+0081REMSYN088AAXX  27004 82795 32594 70904 10228 20214 39534 40150 87800 333 10288 29080 55068 58008;EQDQ01  00002PRCP06
0186827950999992004022712004-07217-035883FM-12+0560SBKG V0201801N001511050019N0100001N1+02471+02091101531ADDAA106000091GF106991031021008001001051KA1240N+02151MA1999999095371MD1999999+0001REMSYN076AAXX  27124 82795 32597 61803 10247 20209 39537 40153 83205 333 20215 58000;EQDQ01  00002PRCP06
0167827950999992004022718004-07217-035883FM-12+0560SBKG V0200901N004110450019N0100001N1+02811+02111101091ADDAA106000091GF107991041021008001061061MA1999999095001MD1999999-0131REMSYN070AAXX  27184 82795 32597 70908 10281 20211 39500 40109 84266 333 59013;EQDQ01  00002PRCP06
0202827950999992004022800004-07217-035883FM-12+0560SBKG V0200901N002610042019N0005001N1+02281+02231101391ADDAY191061AY261061GF108991081031004501999999KA1240M+02941MA1999999095241MD1999999-0101MW1611REMSYN100AAXX  28004 82795 21493 80905 10228 20223 39524 40139 76196 883// 333 10294 29085 55054 59010 60221;
0190827950999992004022812004-07217-035883FM-12+0560SBKG V0200901N002110075019N0100001N1+02471+02111101361ADDAY161061AY221061GF106991061061008001001001KA1240N+02131MA1999999095221MD1999999-0151MW1021REMSYN088AAXX  28124 82795 21597 60904 10247 20211 39522 40136 70262 86600 333 20213 59015 60234;
0171827950999992004022818004-07217-035883FM-12+0560SBKG V0200901N004110075019N0040001N1+02481+02231101081ADDAY161061AY221061GF108991081031008001999999MA1999999094941MD1999999-0061MW1211REMSYN082AAXX  28184 82795 21596 80908 10248 20223 39494 40108 72162 883// 333 59006 69931;
0179827950999992004022900004-07217-035883FM-12+0560SBKG V0200901N002611050019N0010001N1+02291+02131101281ADDAA106000021GF108991031021008001001071KA1240M+02951MA1999999095141MD1999999-0101REMSYN088AAXX  29004 82795 32594 80905 10229 20213 39514 40128 83207 333 10295 29087 55062 59010;
0162827950999992004022912004-07217-035883FM-12+0560SBKG V0200901N003612200019N0100001N1+02471+02091101491ADDGF106991041021008001001011KA1240N+02141MA1999999095331MD1999999+0111REMSYN082AAXX  29124 82795 22597 60907 10247 20209 39533 40149 84201 333 20214 58011 69934;
0167827950999992004022918004-07217-035883FM-12+0560SBKG V0200901N002110450019N0100001N1+02641+02161101151ADDAA106000091GF106991041031008001061021MA1999999095031MD1999999+0091REMSYN070AAXX  29184 82795 32597 60904 10264 20216 39503 40115 84362 333 58009;EQDQ01  00002PRCP06
0198827950999992004030100004-07217-035883FM-12+0560SBKG V0200901N003110075019N0010001N1+02341+02171101411ADDAA106000091GF106991051021008001061001KA1240M+02841MA1999999095271MD1999999+0131REMSYN088AAXX  01004 82795 32594 60906 10234 20217 39527 40141 85260 333 10284 29084 55077 58013;EQDQ01  00002PRCP06
0186827950999992004030112004-07217-035883FM-12+0560SBKG V0200901N004110075019N0100001N1+02411+02011101451ADDAA106000091GF106991061021008001001001KA1240N+02051MA1999999095301MD1999999-0031REMSYN076AAXX  01124 82795 32597 60908 10241 20201 39530 40145 86200 333 20205 59003;EQDQ01  00002PRCP06
0167827950999992004030118004-07217-035883FM-12+0560SBKG V0200901N004610075019N0100001N1+02811+01921101151ADDAA106000091GF105991051011008001001001MA1999999095031MD1999999-0031REMSYN070AAXX  01184 82795 32597 50909 10281 20192 39503 40115 85100 333 59003;EQDQ01  00002PRCP06
0214827950999992004030200004-07217-035883FM-12+0560SBKG V0200901N002612200019N0010001N1+02381+02071101391ADDAA106000091GF103991999011012501041021KA1240M+02891MA1999999095251MD1999999-0021REMSYN088AAXX  02004 82795 32694 30905 10238 20207 39525 40139 88142 333 10289 29076 55092 59002;EQDQ01+000082SCOTLCQ02  00002PRCP06
0190827950999992004030212004-07217-035883FM-12+0560SBKG V0201401N004112200019N0100001N1+02561+01951101281ADDAY161061AY221061GF105991031021008001001011KA1240N+02061MA1999999095161MD1999999-0141MW1021REMSYN088AAXX  02124 82795 21597 51408 10256 20195 39516 40128 70262 83201 333 20206 59014 60014;
0167827950999992004030218004-07217-035883FM-12+0560SBKG V0201401N002112200019N0100001N1+02801+01951101061ADDAA106000091GF105991031011008001001011MA1999999094941MD1999999-0091REMSYN070AAXX  02184 82795 32597 51404 10280 20195 39494 40106 83101 333 59009;EQDQ01  00002PRCP06
0198827950999992004030300004-07217-035883FM-12+0560SBKG V0200901N003112200019N0010001N1+02321+02071101331ADDAA106000091GF102991011011008001001011KA1240M+02921MA1999999095211MD1999999-0041REMSYN088AAXX  03004 82795 32594 20906 10232 20207 39521 40133 81101 333 10292 29075 55105 59004;EQDQ01  00002PRCP06
0186827950999992004030312004-07217-035883FM-12+0560SBKG V0201401N001510075019N0100001N1+02501+02001101451ADDAA106000091GF106991061021008001001001KA1240N+02161MA1999999095311MD1999999+0151REMSYN076AAXX  03124 82795 32597 61403 10250 20200 39531 40145 86200 333 20216 58015;EQDQ01  00002PRCP06
0167827950999992004030318004-07217-035883FM-12+0560SBKG V0201401N001510450019N0100001N1+02961+01871101031ADDAA106000091GF106991031021008001031041MA1999999094951MD1999999+0011REMSYN070AAXX  03184 82795 32597 61403 10296 20187 39495 40103 83234 333 58001;EQDQ01  00002PRCP06
0198827950999992004030400004-07217-035883FM-12+0560SBKG V0200901N003610075019N0010001N1+02341+02111101201ADDAA106000091GF106991061021008001001001KA1240M+02981MA1999999095081MD1999999-0131REMSYN088AAXX  04004 82795 32594 60907 10234 20211 39508 40120 86200 333 10298 29075 55099 59013;EQDQ01  00002PRCP06
0186827950999992004030412004-07217-035883FM-12+0560SBKG V0200901N004111050019N0100001N1+02511+01961101451ADDAA106000091GF106991021011008001001051KA1240N+02151MA1999999095311MD1999999+0001REMSYN076AAXX  04124 82795 32597 60908 10251 20196 39531 40145 82105 333 20215 58000;EQDQ01  00002PRCP06
0167827950999992004030418004-07217-035883FM-12+0560SBKG V0200901N004110450019N0100001N1+02911+01901101121ADDAA106000091GF106991031021008001061041MA1999999095041MD1999999+0041REMSYN070AAXX  04184 82795 32597 60908 10291 20190 39504 40112 83264 333 58004;EQDQ01  00002PRCP06
0198827950999992004030500004-07217-035883FM-12+0560SBKG V0200901N003610450019N0010001N1+02371+01951101341ADDAA106000091GF106991041021008001061001KA1240M+02931MA1999999095221MD1999999+0141REMSYN088AAXX  05004 82795 32594 60907 10237 20195 39522 40134 84260 333 10293 29070 55097 58014;EQDQ01  00002PRCP06
0186827950999992004030512004-07217-035883FM-12+0560SBKG V0201401N004110075019N0100001N1+02511+02071101511ADDAA106000091GF106991051021008001001011KA1240N+02131MA1999999095381MD1999999+0071REMSYN076AAXX  05124 82795 32597 61408 10251 20207 39538 40151 85201 333 20213 58007;EQDQ01  00002PRCP06
0167827950999992004030518004-07217-035883FM-12+0560SBKG V0201401N004610075019N0100001N1+02881+02081101241ADDAA106000091GF107991071071008001001001MA1999999095141MD1999999+0101REMSYN070AAXX  05184 82795 32597 71409 10288 20208 39514 40124 87700 333 58010;EQDQ01  00002PRCP06
0198827950999992004030600004-07217-035883FM-12+0560SBKG V0200901N005110075019N0010001N1+02321+02131101431ADDAA106000091GF107991061021008001061001KA1240M+02981MA1999999095291MD1999999+0071REMSYN088AAXX  06004 82795 32594 70910 10232 20213 39529 40143 86260 333 10298 29079 55092 58007;EQDQ01  00002PRCP06
0186827950999992004030612004-07217-035883FM-12+0560SBKG V0201401N003610075019N0100001N1+02421+02051101481ADDAA106000091GF108991081071008001999999KA1240N+02131MA1999999095321MD1999999-0061REMSYN076AAXX  06124 82795 32597 81407 10242 20205 39532 40148 887// 333 20213 59006;EQDQ01  00002PRCP06
0171827950999992004030618004-07217-035883FM-12+0560SBKG V0201401N003110450019N0100001N1+02821+02751101081ADDAY161061AY221061GF107991031021008001051061MA1999999094991MD1999999-0151MW1021REMSYN082AAXX  06184 82795 21597 71406 10282 20275 39499 40108 70262 83256 333 59015 69911;
0202827950999992004030700004-07217-035883FM-12+0560SBKG V0201401N004110075019N0002001N1+02381+02201101381ADDAY161061AY221061GF107991051021008001051001KA1240M+02931MA1999999095241MD1999999-0051MW1601REMSYN100AAXX  07004 82795 21592 71408 10238 20220 39524 40138 76062 85250 333 10293 29079 55041 59005 69931;
0190827950999992004030712004-07217-035883FM-12+0560SBKG V0201401N003610075019N0100001N1+02401+02051101461ADDAY161061AY221061GF106991061061008001001001KA1240N+02031MA1999999095321MD1999999+0001MW1021REMSYN088AAXX  07124 82795 21597 61407 10240 20205 39532 40146 70262 86600 333 20203 58000 60274;
0167827950999992004030718004-07217-035883FM-12+0560SBKG V0201401N002110450019N0100001N1+02541+02061101161ADDAA106000091GF107991031021008001071001MA1999999095021MD1999999+0031REMSYN070AAXX  07184 82795 32597 71404 10254 20206 39502 40116 83270 333 58003;EQDQ01  00002PRCP06
0202827950999992004030800004-07217-035883FM-12+0560SBKG V0201401N002610075019N0200001N1+02141+02091101541ADDAY161061AY221061GF108991081071008001999999KA1240M+02611MA1999999095361MD1999999+0121MW1601REMSYN100AAXX  08004 82795 21598 81405 10214 20209 39536 40154 76062 887// 333 10261 29088 55029 58012 60031;
0190827950999992004030812004-07217-035883FM-12+0560SBKG V0201401N004610075019N0100001N1+02391+02151101581ADDAY161061AY221061GF107991071071008001001001KA1240N+02041MA1999999095401MD1999999+0081MW1021REMSYN088AAXX  08124 82795 21597 71409 10239 20215 39540 40158 70262 87700 333 20204 58008 60054;
0167827950999992004030818004-07217-035883FM-12+0560SBKG V0201401N004610075019N0100001N1+02651+02051101281ADDAA106000091GF106991061071008001001001MA1999999095131MD1999999+0011REMSYN070AAXX  08184 82795 32597 61409 10265 20205 39513 40128 86700 333 58001;EQDQ01  00002PRCP06
0202827950999992004030900004-07217-035883FM-12+0560SBKG V0200901N002119999999N0010001N1+02211+01941101571ADDAY161061AY221061GF106991041001008001031081KA1240M+02841MA1999999095401MD1999999+0041MW1031REMSYN100AAXX  09004 82795 21594 60904 10221 20194 39540 40157 70362 84038 333 10284 29080 55044 58004 69901;
0162827950999992004030912004-07217-035883FM-12+0560SBKG V0201401N004112200019N0100001N1+02481+01921101671ADDGF104991031011008001001011KA1240N+01951MA1999999095491MD1999999+0091REMSYN082AAXX  09124 82795 22597 41408 10248 20192 39549 40167 83101 333 20195 58009 69914;
0167827950999992004030918004-07217-035883FM-12+0560SBKG V0201401N005112200019N0100001N1+02821+01971101321ADDAA106000091GF105991021021008001001011MA1999999095201MD1999999+0071REMSYN070AAXX  09184 82795 32597 51410 10282 20197 39520 40132 82201 333 58007;EQDQ01  00002PRCP06
0198827950999992004031000004-07217-035883FM-12+0560SBKG V0200901N003610075019N0010001N1+02291+02131101591ADDAA106000091GF106991061021008001001001KA1240M+02861MA1999999095431MD1999999+0031REMSYN088AAXX  10004 82795 32594 60907 10229 20213 39543 40159 86200 333 10286 29078 55112 58003;EQDQ01  00002PRCP06
0186827950999992004031012004-07217-035883FM-12+0560SBKG V0201401N003110075019N0100001N1+02341+02151101631ADDAA106000091GF108991081071008001999999KA1240N+02111MA1999999095451MD1999999-0041REMSYN076AAXX  10124 82795 32597 81406 10234 20215 39545 40163 887// 333 20211 59004;EQDQ01  00002PRCP06
0171827950999992004031018004-07217-035883FM-12+0560SBKG V0201401N003110075019N0100001N1+02661+02071101341ADDAY161061AY221061GF108991081071008001999999MA1999999095201MD1999999+0001MW1021REMSYN082AAXX  10184 82795 21597 81406 10266 20207 39520 40134 70262 887// 333 58000 60021;
0202827950999992004031100004-07217-035883FM-12+0560SBKG V0200901N002110120019N0010001N1+02291+02111101561ADDAY161061AY221061GF107991071081008001001001KA1240M+02871MA1999999095391MD1999999-0041MW1021REMSYN100AAXX  11004 82795 21594 70904 10229 20211 39539 40156 70262 87800 333 10287 29085 55028 59004 60031;
0162827950999992004031112004-07217-035883FM-12+0560SBKG V0201401N001510075019N0100001N1+02441+02071101441ADDGF106991061061008001001001KA1240N+02061MA1999999095291MD1999999-0161REMSYN082AAXX  11124 82795 22597 61403 10244 20207 39529 40144 86600 333 20206 59016 60054;
0167827950999992004031118004-07217-035883FM-12+0560SBKG V0200501N001510450019N0100001N1+02821+02101100991ADDAA106000091GF106991021081008001041001MA1999999094891MD1999999-0311REMSYN070AAXX  11184 82795 32597 60503 10282 20210 39489 40099 82840 333 59031;EQDQ01  00002PRCP06
0198827950999992004031200004-07217-035883FM-12+0560SBKG V0200901N002610075019N0010001N1+02331+02181101221ADDAA106000091GF106991051021008001001011KA1240M+02901MA1999999095081MD1999999-0311REMSYN088AAXX  12004 82795 32594 60905 10233 20218 39508 40122 85201 333 10290 29082 55088 59031;EQDQ01  00002PRCP06
0186827950999992004031212004-07217-035883FM-12+0560SBKG V0201401N002610450019N0100001N1+02531+02091101351ADDAA106000091GF106991041021008001031001KA1240N+02181MA1999999095221MD1999999-0071REMSYN076AAXX  12124 82795 32597 61405 10253 20209 39522 40135 84230 333 20218 59007;EQDQ01  00002PRCP06
0167827950999992004031218004-07217-035883FM-12+0560SBKG V0201401N003112200019N0100001N1+02841+01961101081ADDAA106000091GF104991041081008001001001MA1999999094991MD1999999+0101REMSYN070AAXX  12184 82795 32597 41406 10284 20196 39499 40108 84800 333 58010;EQDQ01  00002PRCP06
0214827950999992004031300004-07217-035883FM-12+0560SBKG V0200901N003119999999N0010001N1+02361+02111101251ADDAA106000091GF106991999021008001001001KA1240M+02931MA1999999095131MD1999999+0051REMSYN088AAXX  13004 82795 32594 60906 10236 20211 39513 40125 83200 333 10293 29077 55091 58005;EQDQ01+000032SCOTLCQ02  00002PRCP06
0186827950999992004031312004-07217-035883FM-12+0560SBKG V0201401N003610075019N0100001N1+02511+02001101461ADDAA106000091GF105991051031008001001001KA1240N+02141MA1999999095311MD1999999+0091REMSYN076AAXX  13124 82795 32597 51407 10251 20200 39531 40146 85300 333 20214 58009;EQDQ01  00002PRCP06
0167827950999992004031318004-07217-035883FM-12+0560SBKG V0200901N003112200019N0100001N1+02851+01991101131ADDAA106000091GF103991031021008001001001MA1999999095031MD1999999+0041REMSYN070AAXX  13184 82795 32597 30906 10285 20199 39503 40113 83200 333 58004;EQDQ01  00002PRCP06
0198827950999992004031400004-07217-035883FM-12+0560SBKG V0200401N002612200019N0010001N1+02231+01961101441ADDAA106000091GF102991021061008001001001KA1240M+02901MA1999999095291MD1999999+0161REMSYN088AAXX  14004 82795 32594 20405 10223 20196 39529 40144 82600 333 10290 29075 55103 58016;EQDQ01  00002PRCP06
0186827950999992004031412004-07217-035883FM-12+0560SBKG V0201401N003110075019N0100001N1+02481+02051101481ADDAA106000091GF105991051041008001001001KA1240N+02131MA1999999095331MD1999999+0031REMSYN076AAXX  14124 82795 32597 51406 10248 20205 39533 40148 85400 333 20213 58003;EQDQ01  00002PRCP06
0167827950999992004031418004-07217-035883FM-12+0560SBKG V0200901N003612200019N0100001N1+02891+01941101121ADDAA106000091GF104991041021008001001001MA1999999095021MD1999999-0011REMSYN070AAXX  14184 82795 32597 40907 10289 20194 39502 40112 84200 333 59001;EQDQ01  00002PRCP06
0198827950999992004031500004-07217-035883FM-12+0560SBKG V0201401N004610075019N0010001N1+02331+02051101411ADDAA106000091GF106991061071008001001001KA1240M+02981MA1999999095271MD1999999-0021REMSYN088AAXX  15004 82795 32594 61409 10233 20205 39527 40141 86700 333 10298 29076 55098 59002;EQDQ01  00002PRCP06
0186827950999992004031512004-07217-035883FM-12+0560SBKG V0201401N002610450019N0100001N1+02541+02021101391ADDAA106000091GF106991041021008001031001KA1240N+02061MA1999999095251MD1999999-0081REMSYN076AAXX  15124 82795 32597 61405 10254 20202 39525 40139 84230 333 20206 59008;EQDQ01  00002PRCP06
0171827950999992004031518004-07217-035883FM-12+0560SBKG V0201401N002610450019N0100001N1+02401+02231101111ADDAY161061AY221061GF106991031041008001081001MA1999999094951MD1999999-0071MW1021REMSYN082AAXX  15184 82795 21597 61405 10240 20223 39495 40111 70262 83480 333 59007 60031;
0202827950999992004031600004-07217-035883FM-12+0560SBKG V0201401N002110075019N0010001N1+02131+02001101331ADDAY161061AY251061GF108991081071008001999999KA1240M+02731MA1999999095191MD1999999-0081MW1511REMSYN100AAXX  16004 82795 21594 81404 10213 20200 39519 40133 75165 887// 333 10273 29089 55053 59008 60081;
0190827950999992004031612004-07217-035883FM-12+0560SBKG V0200901N001510450019N0100001N1+02471+02111101361ADDAY161061AY221061GF106991021031008001041001KA1240N+02081MA1999999095201MD1999999-0051MW1021REMSYN088AAXX  16124 82795 21597 60903 10247 20211 39520 40136 70262 82340 333 20208 59005 60124;
0167827950999992004031618004-07217-035883FM-12+0560SBKG V0201401N003110450019N0100001N1+02641+02091100921ADDAA106000091GF107991031041008001031041MA1999999094801MD1999999-0151REMSYN070AAXX  16184 82795 32597 71406 10264 20209 39480 40092 83434 333 59015;EQDQ01  00002PRCP06
0198827950999992004031700004-07217-035883FM-12+0560SBKG V0200901N002110075019N0010001N1+02281+02161101181ADDAA106000091GF107991071021008001001001KA1240M+02691MA1999999095041MD1999999-0151REMSYN088AAXX  17004 82795 32594 70904 10228 20216 39504 40118 87200 333 10269 29085 55036 59015;EQDQ01  00002PRCP06
0190827950999992004031712004-07217-035883FM-12+0560SBKG V0201401N002610120019N0100001N1+02461+02131101231ADDAY161061AY251061GF107991071081008001001001KA1240N+02101MA1999999095091MD1999999-0111MW1021REMSYN088AAXX  17124 82795 21597 71405 10246 20213 39509 40123 70265 87800 333 20210 59011 60074;
0171827950999992004031718004-07217-035883FM-12+0560SBKG V0201401N002610120019N0100001N1+02531+02151101041ADDAY151061AY221061GF106991061081008001001001MA1999999094911MD1999999+0111MW1021REMSYN082AAXX  17184 82795 21597 61405 10253 20215 39491 40104 70252 86800 333 58011 69991;
0202827950999992004031800004-07217-035883FM-12+0560SBKG V0201401N003110075019N0010001N1+02251+02101101231ADDAY161061AY221061GF106991061021008001001001KA1240M+02771MA1999999095091MD1999999+0051MW1021REMSYN100AAXX  18004 82795 21594 61406 10225 20210 39509 40123 70262 86200 333 10277 29087 55065 58005 60021;
0162827950999992004031812004-07217-035883FM-12+0560SBKG V0201401N003110075019N0100001N1+02431+02371101281ADDGF106991061061008001001001KA1240N+02131MA1999999095161MD1999999+0071REMSYN082AAXX  18124 82795 22597 61406 10243 20237 39516 40128 86600 333 20213 58007 60034;
0190827950999992004031818004-07217-035883FM-12+0560SBKG V0200901N003619999999N0100001N1+02631+02161101071ADDAY161061AY251061GF107991999081008001999999MA1999999094951MD1999999+0141MW1511REMSYN082AAXX  18184 82795 21597 70907 10263 20216 39495 40107 75165 888// 333 58014 60011;EQDQ01+000082SCOTLC
0202827950999992004031900004-07217-035883FM-12+0560SBKG V0200901N002610075019N0010001N1+02291+02131101271ADDAY161061AY221061GF106991051021008001001021KA1240M+02861MA1999999095131MD1999999+0041MW1021REMSYN100AAXX  19004 82795 21594 60905 10229 20213 39513 40127 70262 85202 333 10286 29089 55064 58004 69941;
0190827950999992004031912004-07217-035883FM-12+0560SBKG V0201401N004110075019N0100001N1+02471+02011101411ADDAY121061AY221061GF107991051021008001001061KA1240N+02151MA1999999095261MD1999999+0101MW1021REMSYN088AAXX  19124 82795 21597 71408 10247 20201 39526 40141 70222 85206 333 20215 58010 60024;
0167827950999992004031918004-07217-035883FM-12+0560SBKG V0201401N004112200019N0100001N1+02821+01871101001ADDAA106000091GF104991011021008001001011MA1999999094921MD1999999-0071REMSYN070AAXX  19184 82795 32597 41408 10282 20187 39492 40100 81201 333 59007;EQDQ01  00002PRCP06
0198827950999992004032000004-07217-035883FM-12+0560SBKG V0200901N003110075019N0010001N1+02311+02021101271ADDAA106000091GF106991061021008001001001KA1240M+02841MA1999999095141MD1999999+0011REMSYN088AAXX  20004 82795 32594 60906 10231 20202 39514 40127 86200 333 10284 29075 55095 58001;EQDQ01  00002PRCP06
0186827950999992004032012004-07217-035883FM-12+0560SBKG V0201401N003610075019N0100001N1+02471+02031101331ADDAA106000091GF106991061021008001001001KA1240N+02031MA1999999095201MD1999999-0061REMSYN076AAXX  20124 82795 32597 61407 10247 20203 39520 40133 86200 333 20203 59006;EQDQ01  00002PRCP06
0167827950999992004032018004-07217-035883FM-12+0560SBKG V0200901N004112200019N0100001N1+02941+01791100991ADDAA106000091GF104991031021008001001011MA1999999094911MD1999999-0011REMSYN070AAXX  20184 82795 32597 40908 10294 20179 39491 40099 83201 333 59001;EQDQ01  00002PRCP06
0198827950999992004032100004-07217-035883FM-12+0560SBKG V0200901N003111050019N0010001N1+02281+02031101261ADDAA106000091GF106991041021008001001021KA1240M+02971MA1999999095121MD1999999-0021REMSYN088AAXX  21004 82795 32594 60906 10228 20203 39512 40126 84202 333 10297 29075 55100 59002;EQDQ01  00002PRCP06
0186827950999992004032112004-07217-035883FM-12+0560SBKG V0201401N004610450019N0100001N1+02481+02031101281ADDAA106000091GF106991041021008001031001KA1240N+02131MA1999999095141MD1999999-0061REMSYN076AAXX  21124 82795 32597 61409 10248 20203 39514 40128 84230 333 20213 59006;EQDQ01  00002PRCP06
0186827950999992004032212004-07217-035883FM-12+0560SBKG V0201401N004110075019N0100001N1+02501+02091101261ADDAA106000091GF106991061061008001001001KA1240N+02211MA1999999095141MD1999999+0001REMSYN076AAXX  22124 82795 32597 61408 10250 20209 39514 40126 86600 333 20221 58000;EQDQ01  00002PRCP06
0171827950999992004032218004-07217-035883FM-12+0560SBKG V0201401N002610450019N0100001N1+02621+02111100981ADDAY151061AY221061GF106991031041008001081001MA1999999094871MD1999999+0051MW1021REMSYN082AAXX  22184 82795 21597 61405 10262 20211 39487 40098 70252 83480 333 58005 69931;
0202827950999992004032300004-07217-035883FM-12+0560SBKG V0200901N003610075019N0010001N1+02311+02201101281ADDAY161061AY221061GF107991071031008001001001KA1240M+02781MA1999999095151MD1999999+0041MW1211REMSYN100AAXX  23004 82795 21594 70907 10231 20220 39515 40128 72162 87300 333 10278 29085 55049 58004 60021;
0162827950999992004032312004-07217-035883FM-12+0560SBKG V0201401N004110075019N0100001N1+02501+02151101331ADDGF107991071071008001001001KA1240N+02131MA1999999095201MD1999999+0061REMSYN082AAXX  23124 82795 22597 71408 10250 20215 39520 40133 87700 333 20213 58006 60024;
0183827950999992004032318004-07217-035883FM-12+0560SBKG V0201401N004112200019N0100001N1+02791+02011101091ADDAA106000091GF104991999081008001001001MA1999999094991MD1999999+0121REMSYN070AAXX  23184 82795 32597 41408 10279 20201 39499 40109 86800 333 58012;EQDQ01+000062SCOTLCQ02  00002PRCP06
0198827950999992004032400004-07217-035883FM-12+0560SBKG V0201401N003610075019N0020001N1+02301+02181101301ADDAA106000091GF108991081061008001999999KA1240M+02891MA1999999095171MD1999999+0021REMSYN088AAXX  24004 82795 32595 81407 10230 20218 39517 40130 886// 333 10289 29082 55072 58002;EQDQ01  00002PRCP06
0186827950999992004032412004-07217-035883FM-12+0560SBKG V0201401N004112200019N0100001N1+02451+01991101381ADDAA106000091GF106991041021008001001011KA1240N+02101MA1999999095231MD1999999+0031REMSYN076AAXX  24124 82795 32597 61408 10245 20199 39523 40138 84201 333 20210 58003;EQDQ01  00002PRCP06
0186827950999992004032512004-07217-035883FM-12+0560SBKG V0201401N004612200019N0100001N1+02511+02031101281ADDAA106000091GF106991041021008001001011KA1240N+02061MA1999999095151MD1999999-0081REMSYN076AAXX  25124 82795 32597 61409 10251 20203 39515 40128 84201 333 20206 59008;EQDQ01  00002PRCP06
0167827950999992004032518004-07217-035883FM-12+0560SBKG V0201401N003111050019N0100001N1+02931+01891100961ADDAA106000091GF105991021031008001001031MA1999999094881MD1999999-0051REMSYN070AAXX  25184 82795 32597 51406 10293 20189 39488 40096 82303 333 59005;EQDQ01  00002PRCP06
0198827950999992004032600004-07217-035883FM-12+0560SBKG V0201401N002610075019N0010001N1+02331+02151101361ADDAA106000091GF106991061021008001001001KA1240M+02971MA1999999095231MD1999999+0011REMSYN088AAXX  26004 82795 32594 61405 10233 20215 39523 40136 86200 333 10297 29077 55089 58001;EQDQ01  00002PRCP06
0167827950999992004032618004-07217-035883FM-12+0560SBKG V0201401N003111050019N0100001N1+02931+01861100911ADDAA106000091GF105991031031008001001021MA1999999094831MD1999999-0051REMSYN070AAXX  26184 82795 32597 51406 10293 20186 39483 40091 83302 333 59005;EQDQ01  00002PRCP06
0198827950999992004032700004-07217-035883FM-12+0560SBKG V0200901N003110075019N0010001N1+02351+02091101201ADDAA106000091GF106991061021008001001001KA1240M+02931MA1999999095081MD1999999-0151REMSYN088AAXX  27004 82795 32594 60906 10235 20209 39508 40120 86200 333 10293 29074 55063 59015;EQDQ01  00002PRCP06
0186827950999992004032712004-07217-035883FM-12+0560SBKG V0201401N005710075019N0100001N1+02561+01851101181ADDAA106000091GF105991051011008001001001KA1240N+02091MA1999999095071MD1999999-0051REMSYN076AAXX  27124 82795 32597 51411 10256 20185 39507 40118 85100 333 20209 59005;EQDQ01  00002PRCP06
0167827950999992004032718004-07217-035883FM-12+0560SBKG V0201401N005112200019N0100001N1+02961+01741100951ADDAA106000091GF104991031021008001001011MA1999999094871MD1999999+0041REMSYN070AAXX  27184 82795 32597 41410 10296 20174 39487 40095 83201 333 58004;EQDQ01  00002PRCP06
0198827950999992004032800004-07217-035883FM-12+0560SBKG V0201401N003112200019N0010001N1+02351+01931101231ADDAA106000091GF106991041021008001001011KA1240M+02971MA1999999095121MD1999999+0041REMSYN088AAXX  28004 82795 32594 61406 10235 20193 39512 40123 84201 333 10297 29067 55092 58004;EQDQ01  00002PRCP06
0186827950999992004032812004-07217-035883FM-12+0560SBKG V0201401N004610075019N0100001N1+02481+02051101281ADDAA106000091GF108991081071008001999999KA1240N+02101MA1999999095151MD1999999+0081REMSYN076AAXX  28124 82795 32597 81409 10248 20205 39515 40128 887// 333 20210 58008;EQDQ01  00002PRCP06
0183827950999992004032818004-07217-035883FM-12+0560SBKG V0201401N004619999999N0100001N1+02851+01671100981ADDAA106000091GF106991999041008001001001MA1999999094901MD1999999+0031REMSYN070AAXX  28184 82795 32597 61409 10285 20167 39490 40098 83400 333 58003;EQDQ01+000032SCOTLCQ02  00002PRCP06
0214827950999992004032900004-07217-035883FM-12+0560SBKG V0201401N002610075019N0010001N1+02291+01941101301ADDAA106000091GF106991999021008001001001KA1240M+02921MA1999999095161MD1999999+0041REMSYN088AAXX  29004 82795 32594 61405 10229 20194 39516 40130 85200 333 10292 29072 55085 58004;EQDQ01+000052SCOTLCQ02  00002PRCP06
0186827950999992004032912004-07217-035883FM-12+0560SBKG V0201401N004110075019N0100001N1+02431+01951101471ADDAA106000091GF106991061021008001001001KA1240N+02001MA1999999095321MD1999999+0171REMSYN076AAXX  29124 82795 32597 61408 10243 20195 39532 40147 86200 333 20200 58017;EQDQ01  00002PRCP06
0167827950999992004032918004-07217-035883FM-12+0560SBKG V0201401N004610075019N0100001N1+02911+01771101081ADDAA106000091GF105991051021008001001021MA1999999094991MD1999999+0181REMSYN070AAXX  29184 82795 32597 51409 10291 20177 39499 40108 85202 333 58018;EQDQ01  00002PRCP06
0198827950999992004033000004-07217-035883FM-12+0560SBKG V0201401N002612200019N0010001N1+02331+01931101511ADDAA106000091GF102991011011008001001011KA1240M+03011MA1999999095351MD1999999+0191REMSYN088AAXX  30004 82795 32594 21405 10233 20193 39535 40151 81101 333 10301 29070 55099 58019;EQDQ01  00002PRCP06
0186827950999992004033012004-07217-035883FM-12+0560SBKG V0201401N004112200019N0100001N1+02501+01911101591ADDAA106000091GF106991041021008001001011KA1240N+01931MA1999999095441MD1999999+0121REMSYN076AAXX  30124 82795 32597 61408 10250 20191 39544 40159 84201 333 20193 58012;EQDQ01  00002PRCP06
0167827950999992004033018004-07217-035883FM-12+0560SBKG V0201401N004112200019N0100001N1+02981+01731101211ADDAA106000091GF105991031021008001001011MA1999999095131MD1999999+0141REMSYN070AAXX  30184 82795 32597 51408 10298 20173 39513 40121 83201 333 58014;EQDQ01  00002PRCP06
0198827950999992004033100004-07217-035883FM-12+0560SBKG V0200901N002610450019N0010001N1+02381+01951101581ADDAA106000091GF105991031021008001051001KA1240M+03041MA1999999095441MD1999999+0091REMSYN088AAXX  31004 82795 32594 50905 10238 20195 39544 40158 83250 333 10304 29068 55103 58009;EQDQ01  00002PRCP06
0186827950999992004033112004-07217-035883FM-12+0560SBKG V0201401N002112200019N0100001N1+02541+02041101591ADDAA106000091GF106991031011008001001011KA1240N+02071MA1999999095451MD1999999+0011REMSYN076AAXX  31124 82795 32597 61404 10254 20204 39545 40159 83101 333 20207 58001;EQDQ01  00002PRCP06
0167827950999992004033118004-07217-035883FM-12+0560SBKG V0201401N001512200019N0100001N1+02971+01841101121ADDAA106000091GF105991031021008001001011MA1999999095041MD1999999+0191REMSYN070AAXX  31184 82795 32597 51403 10297 20184 39504 40112 83201 333 58019;EQDQ01  00002PRCP06
0198827950999992004040100004-07217-035883FM-12+0560SBKG V0200901N004110075019N0010001N1+02361+02131101421ADDAA106000091GF106991061021008001001001KA1240M+03051MA1999999095301MD1999999-0141REMSYN088AAXX  01004 82795 32594 60908 10236 20213 39530 40142 86200 333 10305 29075 55086 59014;EQDQ01  00002PRCP06
0186827950999992004040112004-07217-035883FM-12+0560SBKG V0201401N004110075019N0100001N1+02601+02121101681ADDAA106000091GF106991061061008001001001KA1240N+02111MA1999999095441MD1999999-0011REMSYN076AAXX  01124 82795 32597 61408 10260 20212 39544 40168 86600 333 20211 59001;EQDQ01  00002PRCP06
0167827950999992004040118004-07217-035883FM-12+0560SBKG V0201401N003110450019N0100001N1+02931+01891101231ADDAA106000091GF106991041081008001051001MA1999999095131MD1999999+0131REMSYN070AAXX  01184 82795 32597 61406 10293 20189 39513 40123 84850 333 58013;EQDQ01  00002PRCP06
0167827950999992004040218004-07217-035883FM-12+0560SBKG V0200501N003112200019N0100001N1+03041+01781101181ADDAA106000091GF104991041031008001001001MA1999999095081MD1999999-0051REMSYN070AAXX  02184 82795 32597 40506 10304 20178 39508 40118 84300 333 59005;EQDQ01  00002PRCP06
0198827950999992004040300004-07217-035883FM-12+0560SBKG V0200901N003610075019N0010001N1+02371+02091101471ADDAA106000091GF106991061021008001001001KA1240M+03101MA1999999095341MD1999999+0001REMSYN088AAXX  03004 82795 32594 60907 10237 20209 39534 40147 86200 333 10310 29072 55101 58000;EQDQ01  00002PRCP06
0190827950999992004040512004-07217-035883FM-12+0560SBKG V0201401N002612200019N0100001N1+02471+01971101581ADDAY161061AY221061GF106991041021008001001011KA1240N+02131MA1999999095431MD1999999-0091MW1021REMSYN088AAXX  05124 82795 21597 61405 10247 20197 39543 40158 70262 84201 333 20213 59009 69924;
0195827950999992004040518004-07217-035883FM-12+0560SBKG V0201401N003110450019N0100001N1+02701+02081101221ADDAA106000091AY121061AY221061GF106991031081008001081001MA1999999095101MD1999999-0141MW1151REMSYN076AAXX  05184 82795 31597 61406 10270 20208 39510 40122 71522 83880 333 59014;EQDQ01  00002PRCP06
0190827950999992004040612004-07217-035883FM-12+0560SBKG V0201401N003610075019N0100001N1+02421+02071101511ADDAY161061AY221061GF106991061021008001001001KA1240N+02131MA1999999095351MD1999999-0081MW1021REMSYN088AAXX  06124 82795 21597 61407 10242 20207 39535 40151 70262 86200 333 20213 59008 69924;
0167827950999992004040618004-07217-035883FM-12+0560SBKG V0201401N003112200019N0100001N1+02821+01911101171ADDAA106000091GF104991041021008001001001MA1999999095071MD1999999-0071REMSYN070AAXX  06184 82795 32597 41406 10282 20191 39507 40117 84200 333 59007;EQDQ01  00002PRCP06
0198827950999992004040700004-07217-035883FM-12+0560SBKG V0200901N004610075019N0010001N1+02331+02111101381ADDAA106000091GF107991051021008001061001KA1240M+02921MA1999999095231MD1999999-0101REMSYN088AAXX  07004 82795 32594 70909 10233 20211 39523 40138 85260 333 10292 29078 55081 59010;EQDQ01  00002PRCP06
0190827950999992004040712004-07217-035883FM-12+0560SBKG V0201401N004610075019N0100001N1+02461+02071101421ADDAY161061AY221061GF106991061061008001001001KA1240N+02111MA1999999095281MD1999999-0071MW1021REMSYN088AAXX  07124 82795 21597 61409 10246 20207 39528 40142 70262 86600 333 20211 59007 69914;
0167827950999992004040718004-07217-035883FM-12+0560SBKG V0201401N003111050019N0100001N1+02861+01951101041ADDAA106000091GF106991021081008001001021MA1999999094491MD1999999-0081REMSYN070AAXX  07184 82795 32597 61406 10286 20195 39449 40104 82802 333 59008;EQDQ01  00002PRCP06
0198827950999992004040800004-07217-035883FM-12+0560SBKG V0200901N002112200019N0010001N1+02341+02091101351ADDAA106000091GF102991011011008001001011KA1240M+02311MA1999999095221MD1999999-0011REMSYN088AAXX  08004 82795 32594 20904 10234 20209 39522 40135 81101 333 10231 29078 55060 59001;EQDQ01  00002PRCP06
0190827950999992004040812004-07217-035883FM-12+0560SBKG V0201401N003610075019N0100001N1+02461+02171101491ADDAY161061AY221061GF106991051021008001001011KA1240N+02151MA1999999095351MD1999999+0071MW1021REMSYN088AAXX  08124 82795 21597 61407 10246 20217 39535 40149 70262 85201 333 20215 58007 69934;
0211827950999992004040818004-07217-035883FM-12+0560SBKG V0201401N004619999999N0100001N1+02621+02061101261ADDAA106000091AY121061AY221061GF106991999071008001001001MA1999999095141MD1999999+0151MW1151REMSYN076AAXX  08184 82795 31597 61409 10262 20206 39514 40126 71522 87700 333 58015;EQDQ01+000072SCOTLCQ02  00002PRCP06
0202827950999992004040900004-07217-035883FM-12+0560SBKG V0200901N003110075019N0010001N1+02271+02181101551ADDAY161061AY221061GF108991081061008001999999KA1240M+02991MA1999999095391MD1999999+0171MW1021REMSYN100AAXX  09004 82795 21594 80906 10227 20218 39539 40155 70262 886// 333 10299 29087 55073 58017 60041;
0162827950999992004040912004-07217-035883FM-12+0560SBKG V0201401N004110075019N0100001N1+02401+02131101531ADDGF106991061061008001001001KA1240N+02081MA1999999095361MD1999999+0011REMSYN082AAXX  09124 82795 22597 61408 10240 20213 39536 40153 86600 333 20208 58001 60044;
0167827950999992004040918004-07217-035883FM-12+0560SBKG V0201401N004611050019N0100001N1+02841+02011101251ADDAA106000091GF106991011041008001031031MA1999999095101MD1999999+0001REMSYN070AAXX  09184 82795 32597 61409 10284 20201 39510 40125 81433 333 58000;EQDQ01  00002PRCP06
0198827950999992004041000004-07217-035883FM-12+0560SBKG V0200901N003110075019N0010001N1+02271+02111101331ADDAA106000091GF106991061021008001001001KA1240M+02891MA1999999095191MD1999999-0201REMSYN088AAXX  10004 82795 32594 60906 10227 20211 39519 40133 86200 333 10289 29082 55063 59020;EQDQ01  00002PRCP06
0186827950999992004041012004-07217-035883FM-12+0560SBKG V0201401N003110075019N0100001N1+02411+01991101311ADDAA106000091GF106991061021008001001001KA1240N+01991MA1999999095151MD1999999-0211REMSYN076AAXX  10124 82795 32597 61406 10241 20199 39515 40131 86200 333 20199 59021;EQDQ01  00002PRCP06
0167827950999992004041018004-07217-035883FM-12+0560SBKG V0200901N003111050019N0100001N1+02771+02161100881ADDAA106000091GF106991041021008001001021MA1999999094771MD1999999-0371REMSYN070AAXX  10184 82795 32597 60906 10277 20216 39477 40088 84202 333 59037;EQDQ01  00002PRCP06
0198827950999992004041100004-07217-035883FM-12+0560SBKG V0200901N003110120019N0010001N1+02201+02071101101ADDAA106000091GF106991051021012501061001KA1240M+02861MA1999999094971MD1999999-0221REMSYN088AAXX  11004 82795 32694 60906 10220 20207 39497 40110 85260 333 10286 29081 55062 59022;EQDQ01  00002PRCP06
0186827950999992004041112004-07217-035883FM-12+0560SBKG V0200901N004110075019N0100001N1+02471+02051101121ADDAA106000091GF106991061021008001001001KA1240N+02161MA1999999094991MD1999999-0161REMSYN076AAXX  11124 82795 32597 60908 10247 20205 39499 40112 86200 333 20216 59016;EQDQ01  00002PRCP06
0167827950999992004041118004-07217-035883FM-12+0560SBKG V0200901N002612200019N0100001N1+02911+02221100661ADDAA106000091GF104991031021008001001021MA1999999094611MD1999999-0161REMSYN070AAXX  11184 82795 32597 40905 10291 20222 39461 40066 83202 333 59016;EQDQ01  00002PRCP06
0198827950999992004041200004-07217-035883FM-12+0560SBKG V0200901N003610075019N0010001N1+02311+02151101071ADDAA106000091GF106991061021008001001001KA1240M+02981MA1999999094951MD1999999-0021REMSYN088AAXX  12004 82795 32594 60907 10231 20215 39495 40107 86200 333 10298 29081 55082 59002;EQDQ01  00002PRCP06
0186827950999992004041212004-07217-035883FM-12+0560SBKG V0200901N004110075019N0100001N1+02611+02141101171ADDAA106000091GF105991051021008001001001KA1240N+02181MA1999999095061MD1999999+0071REMSYN076AAXX  12124 82795 32597 50908 10261 20214 39506 40117 85200 333 20218 58007;EQDQ01  00002PRCP06
0171827950999992004041218004-07217-035883FM-12+0560SBKG V0201401N002610075019N0100001N1+02521+02131100981ADDAY161061AY221061GF108991081071008001999999MA1999999094841MD1999999+0231MW1161REMSYN082AAXX  12184 82795 21597 81405 10252 20213 39484 40098 71662 887// 333 58023 60041;
0202827950999992004041300004-07217-035883FM-12+0560SBKG V0200901N003110075019N0010001N1+02291+02131101231ADDAY161061AY221061GF107991071061008001001001KA1240M+02821MA1999999095121MD1999999+0171MW1021REMSYN100AAXX  13004 82795 21594 70906 10229 20213 39512 40123 70262 87600 333 10282 29084 55052 58017 69951;
0162827950999992004041312004-07217-035883FM-12+0560SBKG V0201401N003111050019N0100001N1+02501+01951101401ADDGF106991041021008001001021KA1240N+02031MA1999999095261MD1999999+0201REMSYN082AAXX  13124 82795 22597 61406 10250 20195 39526 40140 84202 333 20203 58020 60044;
0167827950999992004041318004-07217-035883FM-12+0560SBKG V0201401N003111050019N0100001N1+02841+02041101061ADDAA106000091GF106991031041008001001031MA1999999094971MD1999999+0131REMSYN070AAXX  13184 82795 32597 61406 10284 20204 39497 40106 83403 333 58013;EQDQ01  00002PRCP06
0202827950999992004041400004-07217-035883FM-12+0560SBKG V0200901N001510075019N0010001N1+02281+02161101421ADDAY181061AY261061GF107991071031008001001001KA1240M+02901MA1999999095281MD1999999+0161MW1021REMSYN100AAXX  14004 82795 21594 70903 10228 20216 39528 40142 70286 87300 333 10290 29080 55083 58016 60111;
0162827950999992004041412004-07217-035883FM-12+0560SBKG V0201401N002112200019N0100001N1+02541+02061101491ADDGF105991021031008001001011KA1240N+02141MA1999999095351MD1999999+0091REMSYN082AAXX  14124 82795 22597 51404 10254 20206 39535 40149 82301 333 20214 58009 60104;
0167827950999992004041418004-07217-035883FM-12+0560SBKG V0201401N003112200019N0100001N1+02831+02001101161ADDAA106000091GF103991031031008001001011MA1999999095061MD1999999+0091REMSYN070AAXX  14184 82795 32597 31406 10283 20200 39506 40116 83301 333 58009;EQDQ01  00002PRCP06
0198827950999992004041500004-07217-035883FM-12+0560SBKG V0200901N003610075019N0010001N1+02351+02191101291ADDAA106000091GF106991061021008001001001KA1240M+02321MA1999999095171MD1999999-0111REMSYN088AAXX  15004 82795 32594 60907 10235 20219 39517 40129 86200 333 10232 29079 55067 59011;EQDQ01  00002PRCP06
0186827950999992004041512004-07217-035883FM-12+0560SBKG V0201801N002610075019N0100001N1+02501+02111101401ADDAA106000091GF106991061021008001001001KA1240N+02011MA1999999095261MD1999999-0091REMSYN076AAXX  15124 82795 32597 61805 10250 20211 39526 40140 86200 333 20201 59009;EQDQ01  00002PRCP06
0167827950999992004041518004-07217-035883FM-12+0560SBKG V0201401N004110450019N0100001N1+02841+02011101231ADDAA106000091GF106991031021008001031001MA1999999095071MD1999999+0101REMSYN070AAXX  15184 82795 32597 61408 10284 20201 39507 40123 83230 333 58010;EQDQ01  00002PRCP06
0198827950999992004041600004-07217-035883FM-12+0560SBKG V0200901N003610075019N0010001N1+02301+02071101281ADDAA106000091GF107991051021008001061001KA1240M+03011MA1999999095151MD1999999-0021REMSYN088AAXX  16004 82795 32594 70907 10230 20207 39515 40128 85260 333 10301 29078 55069 59002;EQDQ01  00002PRCP06
0202827950999992004041612004-07217-035883FM-12+0560SBKG V0201401N002119999999N0100001N1+02491+02071101481ADDAA106000091GF106991999021008001001001KA1240N+02011MA1999999095341MD1999999+0081REMSYN076AAXX  16124 82795 32597 61404 10249 20207 39534 40148 84200 333 20201 58008;EQDQ01+000042SCOTLCQ02  00002PRCP06
0171827950999992004041618004-07217-035883FM-12+0560SBKG V0201401N003610450019N0100001N1+02761+02161101151ADDAY161061AY221061GF106991041031008001041001MA1999999095011MD1999999-0061MW1021REMSYN082AAXX  16184 82795 21597 61407 10276 20216 39501 40115 70262 84340 333 59006 69911;
0202827950999992004041700004-07217-035883FM-12+0560SBKG V0200901N002110075019N0010001N1+02341+02071101571ADDAY161061AY221061GF106991061021008001041001KA1240M+02921MA1999999095431MD1999999+0281MW1021REMSYN100AAXX  17004 82795 21594 60904 10234 20207 39543 40157 70262 86240 333 10292 29080 55068 58028 69911;
0190827950999992004041712004-07217-035883FM-12+0560SBKG V0201401N003110075019N0100001N1+02411+02191101591ADDAY161061AY221061GF108991051071008001011999KA1240N+02131MA1999999095431MD1999999+0091MW1021REMSYN088AAXX  17124 82795 21597 81406 10241 20219 39543 40159 70262 8571/ 333 20213 58009 69964;
0167827950999992004041718004-07217-035883FM-12+0560SBKG V0201401N003611050019N0100001N1+02911+01901101231ADDAA106000091GF106991041021008001001021MA1999999095131MD1999999+0121REMSYN070AAXX  17184 82795 32597 61407 10291 20190 39513 40123 84202 333 58012;EQDQ01  00002PRCP06
0198827950999992004041800004-07217-035883FM-12+0560SBKG V0201401N003610450019N0010001N1+02361+02171101591ADDAA106000091GF106991041021008001061001KA1240M+02971MA1999999095431MD1999999+0001REMSYN088AAXX  18004 82795 32594 61407 10236 20217 39543 40159 84260 333 10297 29080 55073 58000;EQDQ01  00002PRCP06
0190827950999992004041812004-07217-035883FM-12+0560SBKG V0201401N003610075019N0100001N1+02561+02151101591ADDAY161061AY221061GF106991051021008001001011KA1240N+02091MA1999999095451MD1999999+0021MW1021REMSYN088AAXX  18124 82795 21597 61407 10256 20215 39545 40159 70262 85201 333 20209 58002 60034;
0171827950999992004041818004-07217-035883FM-12+0560SBKG V0200901N002610075019N0100001N1+02451+02271101281ADDAY161061AY221061GF108991071031008001031999MA1999999095131MD1999999+0001MW1021REMSYN082AAXX  18184 82795 21597 80905 10245 20227 39513 40128 70262 8733/ 333 58000 69991;
0198827950999992004041900004-07217-035883FM-12+0560SBKG V0200901N001010075019N0010001N1+02261+02051101561ADDAA106000091GF105991051021008001001001KA1240M+02931MA1999999095421MD1999999-0011REMSYN088AAXX  19004 82795 32594 50902 10226 20205 39542 40156 85200 333 10293 29086 55075 59001;EQDQ01  00002PRCP06
0188827950999992004041912004-07217-035883FM-12+0560SBKG V0201401N004110075019N0100001N1+02401+02051101561ADDAA124001091AY161061AY221061GF108991051071008001011001MA1999999095391MD1999999-0061MW1021REMSYN088AAXX  19124 82795 21597 81408 10240 20205 39539 40156 70262 85710 333 59006 60014 10010;
0167827950999992004041918004-07217-035883FM-12+0560SBKG V0201401N004610450019N0100001N1+02771+02181101141ADDAA106000091GF108991041051008001021001MA1999999095021MD1999999-0111REMSYN070AAXX  19184 82795 32597 81409 10277 20218 39502 40114 84520 333 59011;EQDQ01  00002PRCP06
0202827950999992004042000004-07217-035883FM-12+0560SBKG V0201401N003112200019N0010001N1+02251+02011101461ADDAY161061AY221061GF104991021041008001001021KA1240M+02271MA1999999095301MD1999999-0121MW1011REMSYN100AAXX  20004 82795 21594 41406 10225 20201 39530 40146 70162 82402 333 10227 29081 55037 59012 69931;
0162827950999992004042012004-07217-035883FM-12+0560SBKG V0201401N002610075019N0100001N1+02331+02001101571ADDGF107991071071008001001001KA1240N+01991MA1999999095371MD1999999-0021REMSYN082AAXX  20124 82795 22597 71405 10233 20200 39537 40157 87700 333 20199 59002 69934;
0167827950999992004042018004-07217-035883FM-12+0560SBKG V0201401N003110450019N0100001N1+02651+02001101191ADDAA106000091GF108991041051008001051001MA1999999095041MD1999999+0021REMSYN070AAXX  20184 82795 32597 81406 10265 20200 39504 40119 84550 333 58002;EQDQ01  00002PRCP06
0198827950999992004042100004-07217-035883FM-12+0560SBKG V0200901N003110075019N0010001N1+02211+02061101481ADDAA106000091GF108991081051008001999999KA1240M+02751MA1999999095301MD1999999+0001REMSYN088AAXX  21004 82795 32594 80906 10221 20206 39530 40148 885// 333 10275 29083 55025 58000;EQDQ01  00002PRCP06
0190827950999992004042112004-07217-035883FM-12+0560SBKG V0201401N002610075019N0100001N1+02471+02151101471ADDAY161061AY221061GF108991081071008001999999KA1240N+02081MA1999999095321MD1999999-0051MW1021REMSYN088AAXX  21124 82795 21597 81405 10247 20215 39532 40147 70262 887// 333 20208 59005 69944;
0190827950999992004042118004-07217-035883FM-12+0560SBKG V0201401N002119999999N0100001N1+02421+02161101251ADDAY151061AY221061GF108991999051008001001001MA1999999095091MD1999999+0051MW1021REMSYN082AAXX  21184 82795 21597 81404 10242 20216 39509 40125 70252 84500 333 58005 69971;EQDQ01+000042SCOTLC
0202827950999992004042200004-07217-035883FM-12+0560SBKG V0201801N002610042019N0002001N1+02101+02051101531ADDAY161061AY221061GF108991081071004501999999KA1240M+02741MA1999999095351MD1999999+0051MW1611REMSYN100AAXX  22004 82795 21492 81805 10210 20205 39535 40153 76162 887// 333 10274 29090 55020 58005 60141;
0190827950999992004042212004-07217-035883FM-12+0560SBKG V0201401N002110042019N0040001N1+02151+02111101461ADDAY161061AY251061GF108991051051004501999999KA1240N+01961MA1999999095241MD1999999-0081MW1511REMSYN088AAXX  22124 82795 21496 81404 10215 20211 39524 40146 75165 855// 333 20196 59008 60314;
0171827950999992004042218004-07217-035883FM-12+0560SBKG V0201401N001010450019N0100001N1+02351+02171101101ADDAY161061AY221061GF106991031051008001081001MA1999999094921MD1999999-0171MW1021REMSYN082AAXX  22184 82795 21597 61402 10235 20217 39492 40110 70262 83580 333 59017 60021;
0198827950999992004042300004-07217-035883FM-12+0560SBKG V0201401N002110075019N0010001N1+02191+02081101371ADDAA106000091GF105991051021008001001001KA1240M+02961MA1999999095171MD1999999-0181REMSYN088AAXX  23004 82795 32594 51404 10219 20208 39517 40137 85200 333 10296 29093 55004 59018;EQDQ01  00002PRCP06
0209827950999992004042312004-07217-035883FM-12+0560SBKG V0201401N003110075019N0040001N1+02281+02201101211ADDAY101061AY221061GF108991999051008001001001KA1240N+01961MA1999999095031MD1999999-0121MW1511REMSYN088AAXX  23124 82795 21596 81406 10228 20220 39503 40121 75102 87500 333 20196 59012 60024;EQDQ01+000072SCOTLC
0171827950999992004042318004-07217-035883FM-12+0560SBKG V0201401N002110075019N0100001N1+02581+02211100931ADDAY161061AY221061GF107991071071008001001001MA1999999094801MD1999999-0121MW1161REMSYN082AAXX  23184 82795 21597 71404 10258 20221 39480 40093 71662 87700 333 59012 60011;
0202827950999992004042400004-07217-035883FM-12+0560SBKG V0200901N004110042019N0002001N1+02161+02111101251ADDAY161061AY221061GF108991081071004501999999KA1240M+02671MA1999999095071MD1999999-0101MW1601REMSYN100AAXX  24004 82795 21492 80908 10216 20211 39507 40125 76062 887// 333 10267 29092 55026 59010 60121;
0190827950999992004042412004-07217-035883FM-12+0560SBKG V0201401N003110450019N0100001N1+02231+02151101281ADDAY161061AY221061GF108991041071008001021999KA1240N+02051MA1999999095101MD1999999+0131MW1021REMSYN088AAXX  24124 82795 21597 81406 10223 20215 39510 40128 70262 8472/ 333 20205 58013 60134;
0195827950999992004042418004-07217-035883FM-12+0560SBKG V0201401N003110450019N0100001N1+02591+02101100971ADDAA106000091AY121061AY221061GF107991041071008001021001MA1999999094841MD1999999+0041MW1151REMSYN076AAXX  24184 82795 31597 71406 10259 20210 39484 40097 71522 84720 333 58004;EQDQ01  00002PRCP06
0202827950999992004042500004-07217-035883FM-12+0560SBKG V0201401N002110450019N0010001N1+02211+02151101281ADDAY151061AY221061GF106991041051008001021001KA1240M+02641MA1999999095101MD1999999+0031MW1021REMSYN100AAXX  25004 82795 21594 61404 10221 20215 39510 40128 70252 84520 333 10264 29091 55035 58003 69971;
0162827950999992004042512004-07217-035883FM-12+0560SBKG V0201401N003110075019N0100001N1+02481+02091101251ADDGF106991061041008001001001KA1240N+02041MA1999999095211MD1999999+0111REMSYN082AAXX  25124 82795 22597 61406 10248 20209 39521 40125 86400 333 20204 58011 69974;
0167827950999992004042518004-07217-035883FM-12+0560SBKG V0201401N003112200019N0100001N1+02831+02101101121ADDAA106000091GF106991041041008001001011MA1999999095021MD1999999+0181REMSYN070AAXX  25184 82795 32597 61406 10283 20210 39502 40112 84401 333 58018;EQDQ01  00002PRCP06
0202827950999992004042600004-07217-035883FM-12+0560SBKG V0200901N003110075019N0010001N1+02261+02211101401ADDAY161061AY221061GF108991081071008001999999KA1240M+02851MA1999999095251MD1999999+0151MW1031REMSYN100AAXX  26004 82795 21594 80906 10226 20221 39525 40140 70362 887// 333 10285 29084 55093 58015 60051;
0162827950999992004042612004-07217-035883FM-12+0560SBKG V0201401N002110075019N0100001N1+02561+02171101451ADDGF106991061021008001001001KA1240N+02121MA1999999095311MD1999999+0141REMSYN082AAXX  26124 82795 22597 61404 10256 20217 39531 40145 86200 333 20212 58014 60054;
0183827950999992004042618004-07217-035883FM-12+0560SBKG V0201401N003619999999N0100001N1+02791+01941101121ADDAA106000091GF106991999031008001001001MA1999999095031MD1999999+0011REMSYN070AAXX  26184 82795 32597 61407 10279 20194 39503 40112 84300 333 58001;EQDQ01+000042SCOTLCQ02  00002PRCP06
0198827950999992004042700004-07217-035883FM-12+0560SBKG V0200901N003110120019N0010001N1+02351+02201101441ADDAA106000091GF107991071081008001001001KA1240M+02911MA1999999095321MD1999999+0071REMSYN088AAXX  27004 82795 32594 70906 10235 20220 39532 40144 87800 333 10291 29083 55083 58007;EQDQ01  00002PRCP06
0209827950999992004042712004-07217-035883FM-12+0560SBKG V0201401N003610075019N0100001N1+02491+02071101601ADDAY161061AY221061GF106991999021008001001001KA1240N+02131MA1999999095451MD1999999+0141MW1021REMSYN088AAXX  27124 82795 21597 61407 10249 20207 39545 40160 70262 85200 333 20213 58014 60014;EQDQ01+000052SCOTLC
0167827950999992004042718004-07217-035883FM-12+0560SBKG V0201401N003111050019N0100001N1+02831+02021101271ADDAA106000091GF106991021031008001001021MA1999999095151MD1999999+0121REMSYN070AAXX  27184 82795 32597 61406 10283 20202 39515 40127 82302 333 58012;EQDQ01  00002PRCP06
0198827950999992004042800004-07217-035883FM-12+0560SBKG V0200901N002612200019N0010001N1+02211+01971101631ADDAA106000091GF102991011001012501041011KA1240M+02871MA1999999095471MD1999999+0151REMSYN088AAXX  28004 82795 32694 20905 10221 20197 39547 40163 81041 333 10287 29078 55087 58015;EQDQ01  00002PRCP06
0202827950999992004042812004-07217-035883FM-12+0560SBKG V0201401N001519999999N0100001N1+02471+01971101721ADDAA106000091GF106991999011008001001001KA1240N+02061MA1999999095551MD1999999+0101REMSYN076AAXX  28124 82795 32597 61403 10247 20197 39555 40172 84100 333 20206 58010;EQDQ01+000042SCOTLCQ02  00002PRCP06
0167827950999992004042818004-07217-035883FM-12+0560SBKG V0201401N003112200019N0100001N1+02781+01911101421ADDAA106000091GF105991021021008001001011MA1999999095301MD1999999+0051REMSYN070AAXX  28184 82795 32597 51406 10278 20191 39530 40142 82201 333 58005;EQDQ01  00002PRCP06
0198827950999992004042900004-07217-035883FM-12+0560SBKG V0200901N003110120019N0010001N1+02311+02151101631ADDAA106000091GF107991071081008001001001KA1240M+02811MA1999999095481MD1999999+0011REMSYN088AAXX  29004 82795 32594 70906 10231 20215 39548 40163 87800 333 10281 29078 55097 58001;EQDQ01  00002PRCP06
0186827950999992004042912004-07217-035883FM-12+0560SBKG V0201401N004112200019N0100001N1+02481+01961101641ADDAA106000091GF105991031011008001001011KA1240N+02031MA1999999095491MD1999999-0061REMSYN076AAXX  29124 82795 32597 51408 10248 20196 39549 40164 83101 333 20203 59006;EQDQ01  00002PRCP06
0167827950999992004042918004-07217-035883FM-12+0560SBKG V0201401N004612200019N0100001N1+02791+01911101281ADDAA106000091GF104991021021008001001021MA1999999095161MD1999999+0151REMSYN070AAXX  29184 82795 32597 41409 10279 20191 39516 40128 82202 333 58015;EQDQ01  00002PRCP06
0198827950999992004043000004-07217-035883FM-12+0560SBKG V0200901N002612200019N0010001N1+02261+01991101531ADDAA106000091GF104991041021008001001001KA1240M+02821MA1999999095371MD1999999-0111REMSYN088AAXX  30004 82795 32594 40905 10226 20199 39537 40153 84200 333 10282 29076 55092 59011;EQDQ01  00002PRCP06
0190827950999992004043012004-07217-035883FM-12+0560SBKG V0201401N003110075019N0040001N1+02841+02101101551ADDAY161061AY221061GF108991051071008001021001KA1240N+02011MA1999999095371MD1999999-0121MW1501REMSYN088AAXX  30124 82795 21596 81406 10284 20210 39537 40155 75062 85720 333 20201 59012 69914;
0171827950999992004043018004-07217-035883FM-12+0560SBKG V0201401N001510075019N0040001N1+02411+02151101221ADDAY161061AY221061GF108991071071008001999999MA1999999095061MD1999999-0101MW1511REMSYN082AAXX  30184 82795 21596 81403 10241 20215 39506 40122 75162 877// 333 59010 60021;
