0071829940999992004070221004-09667-035700FM-12+008999999V02099999999999999999N9999999N1+99999+99999999999REMSYN062AAXX  02214 829942470 61207 10264 20226 40149 85230 333 58002;
