0208832360999992004010100004-12150-045000FM-12+044099999V0201801N000512200019N0200001N1+02631+02211100771ADDAA106000091GA1001+999999999GF100991001001999999001001KA1240M+03501MA1999999095941MD1999999-0241REMSYN082AAXX  01004 83236 32998 01801 10263 20221 39594 40077 333 10350 29068 55118 59024;EQDQ01  00002PRCP06
0186832360999992004010112004-12150-045000FM-12+044099999V0203601N002612200019N0200001N1+02931+02271101041ADDAA106000091GF103991011011008001061011KA1240N+02261MA1999999096231MD1999999-0051REMSYN076AAXX  01124 83236 32598 33605 10293 20227 39623 40104 81161 333 20226 59005;EQDQ01  00002PRCP06
0167832360999992004010118004-12150-045000FM-12+044099999V0203601N001012200019N0200001N1+03441+02141100481ADDAA106000091GF104991021021008001001021MA1999999095701MD1999999-0121REMSYN070AAXX  01184 83236 32598 43602 10344 20214 39570 40048 82202 333 59012;EQDQ01  00002PRCP06
0226832360999992004010200004-12150-045000FM-12+044099999V0209999C000012200019N0200001N1+02641+02421100761ADDAA106000091AY101061AY221061GF104991031031008001041001KA1240M+03531MA1999999095981MD1999999+0041MW1131REMSYN094AAXX  02004 83236 31598 40000 10264 20242 39598 40076 71302 83340 333 10353 29073 55115 58004;EQDQ01  00002PRCP06
0190832360999992004010212004-12150-045000FM-12+044099999V0202301N001011050019N0200001N1+02401+02261101171ADDAY191061AY261061GF107991031051008001001051KA1240N+02181MA1999999096291MD1999999+0061MW1021REMSYN088AAXX  02124 83236 21598 72302 10240 20226 39629 40117 70296 83505 333 20218 58006 60054;
0167832360999992004010218004-12150-045000FM-12+044099999V0201801N000511050019N0200001N1+03231+02231100521ADDAA106000091GF105991021021008001001051MA1999999095711MD1999999+0011REMSYN070AAXX  02184 83236 32598 51801 10323 20223 39571 40052 82205 333 58001;EQDQ01  00002PRCP06
0226832360999992004010300004-12150-045000FM-12+044099999V0203601N002110450019N0200001N1+02431+01951101031ADDAA106000091AY101061AY221061GF106991041071008001021001KA1240M+03341MA1999999096141MD1999999+0161MW1131REMSYN094AAXX  03004 83236 31598 63604 10243 20195 39614 40103 71302 84720 333 10334 29074 55053 58016;EQDQ01  00002PRCP06
0190832360999992004010312004-12150-045000FM-12+044099999V0209999C000010450019N0200001N1+02261+02161101211ADDAY161061AY261061GF108991041051008001021999KA1240N+02191MA1999999096301MD1999999+0011MW1401REMSYN088AAXX  03124 83236 21598 80000 10226 20216 39630 40121 74066 8452/ 333 20219 58001 60034;
0167832360999992004010318004-12150-045000FM-12+044099999V0203601N001011050019N0200001N1+02951+02191100621ADDAA106000091GF105991021021008001061021MA1999999095781MD1999999+0071REMSYN070AAXX  03184 83236 32598 53602 10295 20219 39578 40062 82262 333 58007;EQDQ01  00002PRCP06
0186832360999992004010412004-12150-045000FM-12+044099999V0202301N001510450019N0200001N1+02581+02231100991ADDAA106000091GF106991031021008001061051KA1240N+02231MA1999999096131MD1999999-0171REMSYN076AAXX  04124 83236 32598 62303 10258 20223 39613 40099 83265 333 20223 59017;EQDQ01  00002PRCP06
0226832360999992004010500004-12150-045000FM-12+044099999V0203201N001010450019N0200001N1+02571+02351100821ADDAA106000091AY121061AY221061GF106991031051008001051071KA1240M+03131MA1999999095971MD1999999+0021MW1131REMSYN094AAXX  05004 83236 31598 63202 10257 20235 39597 40082 71322 83557 333 10313 29084 55055 58002;EQDQ01  00002PRCP06
0162832360999992004010512004-12150-045000FM-12+044099999V0202701N001011050019N0200001N1+02701+02281100971ADDGF105991021021008001061071KA1240N+02261MA1999999096131MD1999999+0001REMSYN082AAXX  05124 83236 22598 52702 10270 20228 39613 40097 82267 333 20226 58000 60014;
0171832360999992004010518004-12150-045000FM-12+044099999V0200901N002111050019N0200001N1+02781+01981100601ADDAY151061AY251061GF106991041051008001001051MA1999999095751MD1999999+0071MW1151REMSYN082AAXX  05184 83236 21598 60904 10278 20198 39575 40060 71555 84505 333 58007 69951;
0198832360999992004010600004-12150-045000FM-12+044099999V0202701N001010075019N0200001N1+02521+02291100701ADDAA106000091GF107991051021008001071051KA1240M+03231MA1999999095861MD1999999-0111REMSYN088AAXX  06004 83236 32598 72702 10252 20229 39586 40070 85275 333 10323 29074 55080 59011;EQDQ01  00002PRCP06
0162832360999992004010612004-12150-045000FM-12+044099999V0209999C000012200019N0200001N1+02681+02131101021ADDGF102991001001999999001031KA1240N+02071MA1999999096161MD1999999+0031REMSYN082AAXX  06124 83236 22998 20000 10268 20213 39616 40102 80003 333 20207 58003 69954;
0167832360999992004010618004-12150-045000FM-12+044099999V0203601N002112200019N0200001N1+03261+01511100601ADDAA106000091GF103991021021012501001031MA1999999095811MD1999999+0061REMSYN070AAXX  06184 83236 32698 33604 10326 20151 39581 40060 82203 333 58006;EQDQ01  00002PRCP06
0198832360999992004010700004-12150-045000FM-12+044099999V0202701N001512200019N0200001N1+02581+02251100771ADDAA106000091GF102991001001999999001051KA1240M+03361MA1999999095941MD1999999+0081REMSYN088AAXX  07004 83236 32998 22703 10258 20225 39594 40077 80005 333 10336 29070 55116 58008;EQDQ01  00002PRCP06
0167832360999992004010718004-12150-045000FM-12+044099999V0203601N002612200019N0200001N1+03331+01931100591ADDAA106000091GF104991021021008001001051MA1999999095801MD1999999-0011REMSYN070AAXX  07184 83236 32598 43605 10333 20193 39580 40059 82205 333 59001;EQDQ01  00002PRCP06
0198832360999992004010800004-12150-045000FM-12+044099999V0202301N001510450019N0200001N1+02581+02151100741ADDAA106000091GF106991031021008001071051KA1240M+03461MA1999999095891MD1999999-0051REMSYN088AAXX  08004 83236 32598 62303 10258 20215 39589 40074 83275 333 10346 29070 55091 59005;EQDQ01  00002PRCP06
0186832360999992004010812004-12150-045000FM-12+044099999V0202301N001010450019N0200001N1+02661+02141100941ADDAA106000091GF106991031021012501051071KA1240N+02001MA1999999096181MD1999999+0031REMSYN076AAXX  08124 83236 32698 62302 10266 20214 39618 40094 83257 333 20200 58003;EQDQ01  00002PRCP06
0167832360999992004010818004-12150-045000FM-12+044099999V0203601N001512200019N0200001N1+03371+01931100551ADDAA106000091GF104991031021008001001031MA1999999095741MD1999999-0061REMSYN070AAXX  08184 83236 32598 43603 10337 20193 39574 40055 83203 333 59006;EQDQ01  00002PRCP06
0198832360999992004010900004-12150-045000FM-12+044099999V0202301N001010450019N0200001N1+02581+02061100681ADDAA106000091GF105991031021012501061051KA1240M+03531MA1999999095841MD1999999-0051REMSYN088AAXX  09004 83236 32698 52302 10258 20206 39584 40068 83265 333 10353 29066 55105 59005;EQDQ01  00002PRCP06
0186832360999992004010912004-12150-045000FM-12+044099999V0209999C000010450019N0200001N1+03001+02271100821ADDAA106000091GF106991031021008001061071KA1240N+02331MA1999999096021MD1999999-0161REMSYN076AAXX  09124 83236 32598 60000 10300 20227 39602 40082 83267 333 20233 59016;EQDQ01  00002PRCP06
0171832360999992004010918004-12150-045000FM-12+044099999V0209999C000010075019N0200001N1+02651+02411100561ADDAY161061AY261061GF107991061071008001041071MA1999999095721MD1999999-0021MW1031REMSYN082AAXX  09184 83236 21598 70000 10265 20241 39572 40056 70366 86747 333 59002 60111;
0198832360999992004011000004-12150-045000FM-12+044099999V0201401N001010120019N0100001N1+02501+02291100781ADDAA106000091GF108991061081008001041999KA1240M+03191MA1999999095961MD1999999+0121REMSYN088AAXX  10004 83236 32597 81402 10250 20229 39596 40078 8684/ 333 10319 29082 55033 58012;EQDQ01  00002PRCP06
0190832360999992004011012004-12150-045000FM-12+044099999V0209999C000010075019N0100001N1+03331+02301100981ADDAY161061AY261061GF108991061071008001021999KA1240N+02251MA1999999096091MD1999999+0071MW1101REMSYN088AAXX  10124 83236 21597 80000 10333 20230 39609 40098 71066 8672/ 333 20225 58007 60164;
0171832360999992004011018004-12150-045000FM-12+044099999V0200901N001510075019N0040001N1+02231+02141100731ADDAY151061AY251061GF108991061051008001041999MA1999999095811MD1999999+0091MW1511REMSYN082AAXX  10184 83236 21596 80903 10223 20214 39581 40073 75155 8654/ 333 58009 60031;
0226832360999992004011112004-12150-045000FM-12+044099999V0200901N001010075019N0040001N1+02321+02161101181ADDAA124007091AY151061AY251061GF108991999071008001041999KA1240N+02161MA1999999096261MD1999999+0171MW1101REMSYN094AAXX  11124 83236 21596 80902 10232 20216 39626 40118 71055 8874/ 333 20216 58017 60074 10071;EQDQ01+000082SCOTLC
0167832360999992004011118004-12150-045000FM-12+044099999V0203201N001010075019N0100001N1+02731+02341100791ADDAA106000091GF108991061071008001051999MA1999999095921MD1999999+0111REMSYN070AAXX  11184 83236 32597 83202 10273 20234 39592 40079 8675/ 333 58011;EQDQ01  00002PRCP06
0190832360999992004011212004-12150-045000FM-12+044099999V0200501N001010120019N0040001N1+02381+02261101231ADDAY161061AY261061GF108991071081008001041999KA1240N+02201MA1999999096321MD1999999+0061MW1101REMSYN088AAXX  12124 83236 21596 80502 10238 20226 39632 40123 71066 8784/ 333 20220 58006 60314;
0221832360999992004011300004-12150-045000FM-12+044099999V0209999C000010075019N0040001N1+02271+02191101041ADDAY161061AY251061GF108991999071008001021999KA1240M+02771MA1999999096131MD1999999-0041MW1101REMSYN100AAXX  13004 83236 21596 80000 10227 20219 39613 40104 71065 8872/ 333 10277 29094 55004 59004 60091;EQDQ01+000082SCOTLC
0190832360999992004011312004-12150-045000FM-12+044099999V0200901N001510120019N0100001N1+02481+02341101061ADDAY121061AY221061GF108991071081008001021999KA1240N+02231MA1999999096151MD1999999-0171MW1101REMSYN088AAXX  13124 83236 21597 80903 10248 20234 39615 40106 71022 8782/ 333 20223 59017 60094;
0171832360999992004011318004-12150-045000FM-12+044099999V0209999C000010075019N0100001N1+02551+02421100711ADDAY161061AY261061GF108991061061008001071999MA1999999095831MD1999999-0181MW1151REMSYN082AAXX  13184 83236 21597 80000 10255 20242 39583 40071 71566 8667/ 333 59018 60031;
0202832360999992004011400004-12150-045000FM-12+044099999V0209999C000010075019N0040001N1+02281+02261101011ADDAY161061AY261061GF108991061071008001999999KA1240M+02841MA1999999096121MD1999999-0011MW1101REMSYN100AAXX  14004 83236 21596 80000 10228 20226 39612 40101 71066 867// 333 10284 29096 55009 59001 60071;
0190832360999992004011412004-12150-045000FM-12+044099999V0209999C000010120019N0040001N1+02421+02281101131ADDAY121061AY221061GF108991061081008001041999KA1240N+02181MA1999999096221MD1999999+0071MW1101REMSYN088AAXX  14124 83236 21596 80000 10242 20228 39622 40113 71022 8684/ 333 20218 58007 60094;
0171832360999992004011418004-12150-045000FM-12+044099999V0209999C000010075019N0100001N1+02671+02431100621ADDAY161061AY251061GF108991061071008001051999MA1999999095751MD1999999-0081MW1031REMSYN082AAXX  14184 83236 21597 80000 10267 20243 39575 40062 70365 8675/ 333 59008 60041;
0202832360999992004011500004-12150-045000FM-12+044099999V0209999C000010120019N0040001N1+02491+02091100881ADDAY151061AY251061GF108991061081008001021999KA1240M+02881MA1999999096001MD1999999-0121MW1101REMSYN100AAXX  15004 83236 21596 80000 10249 20209 39600 40088 71055 8682/ 333 10288 29084 55007 59012 69921;
0190832360999992004011512004-12150-045000FM-12+044099999V0200901N001010120019N0040001N1+02451+02251100981ADDAY161061AY251061GF108991071081008001021999KA1240N+02191MA1999999096101MD1999999-0121MW1101REMSYN088AAXX  15124 83236 21596 80902 10245 20225 39610 40098 71065 8782/ 333 20219 59012 60244;
0171832360999992004011518004-12150-045000FM-12+044099999V0200501N002610075019N0100001N1+02731+02301100571ADDAY161061AY261061GF108991071061008001021999MA1999999095711MD1999999-0041MW1161REMSYN082AAXX  15184 83236 21597 80505 10273 20230 39571 40057 71666 8762/ 333 59004 60091;
0226832360999992004011600004-12150-045000FM-12+044099999V0200501N001510450019N0100001N1+02431+02351100791ADDAA106000091AY121061AY221061GF106991041051008001041071KA1240M+02971MA1999999095921MD1999999-0081MW1131REMSYN094AAXX  16004 83236 31597 60503 10243 20235 39592 40079 71322 84547 333 10297 29090 55015 59008;EQDQ01  00002PRCP06
0190832360999992004011612004-12150-045000FM-12+044099999V0200901N002110120019N0040001N1+02521+02311100931ADDAY161061AY261061GF108991061081008001041999KA1240N+02241MA1999999096051MD1999999-0061MW1101REMSYN088AAXX  16124 83236 21596 80904 10252 20231 39605 40093 71066 8684/ 333 20224 59006 60384;
0171832360999992004011618004-12150-045000FM-12+044099999V0209999C000010120019N0020001N1+02271+02241100691ADDAY161061AY261061GF108991061081008001021999MA1999999095791MD1999999+0081MW1511REMSYN082AAXX  16184 83236 21595 80000 10227 20224 39579 40069 75166 8682/ 333 58008 60221;
0202832360999992004011700004-12150-045000FM-12+044099999V0200501N002110075019N0020001N1+02211+02131100921ADDAY151061AY251061GF108991071061008001041999KA1240M+02741MA1999999096021MD1999999+0101MW1511REMSYN100AAXX  17004 83236 21595 80504 10221 20213 39602 40092 75155 8764/ 333 10274 29095 55000 58010 60051;
0162832360999992004011712004-12150-045000FM-12+044099999V0209999C000010450019N0200001N1+02451+02251100931ADDGF106991031021008001061051KA1240N+02141MA1999999096031MD1999999-0021REMSYN082AAXX  17124 83236 22598 60000 10245 20225 39603 40093 83265 333 20214 59002 60274;
0190832360999992004011718004-12150-045000FM-12+044099999V0200501N001510075019N0040001N1+02681+02331100471ADDAY161061AY261061GF108991999061008001041999MA1999999095601MD1999999-0191MW1151REMSYN082AAXX  17184 83236 21596 80503 10268 20233 39560 40047 71566 8864/ 333 59019 60031;EQDQ01+000082SCOTLC
0190832360999992004011912004-12150-045000FM-12+044099999V0200501N001010120019N0040001N1+02331+02181101041ADDAY151061AY251061GF108991061081008001041999KA1240N+02151MA1999999096131MD1999999-0011MW1101REMSYN088AAXX  19124 83236 21596 80502 10233 20218 39613 40104 71055 8684/ 333 20215 59001 60264;
0171832360999992004011918004-12150-045000FM-12+044099999V0201801N002110075019N0100001N1+02441+02321100721ADDAY151061AY251061GF107991051051008001041001MA1999999095821MD1999999-0061MW1151REMSYN082AAXX  19184 83236 21597 71804 10244 20232 39582 40072 71555 85540 333 59006 69991;
0202832360999992004012000004-12150-045000FM-12+044099999V0209999C000012200019N0100001N1+02301+02271100891ADDAY151061AY251061GF104991041051008001001001KA1240M+02851MA1999999095981MD1999999-0041MW1021REMSYN100AAXX  20004 83236 21597 40000 10230 20227 39598 40089 70255 84500 333 10285 29094 55002 59004 60021;
0190832360999992004012012004-12150-045000FM-12+044099999V0209999C000010075019N0040001N1+02221+02191101081ADDAY161061AY261061GF108991081051008001999999KA1240N+02131MA1999999096151MD1999999+0021MW1461REMSYN088AAXX  20124 83236 21596 80000 10222 20219 39615 40108 74666 885// 333 20213 58002 60454;
0171832360999992004012018004-12150-045000FM-12+044099999V0209999C000010075019N0100001N1+02771+02341100671ADDAY151061AY251061GF107991051021008001011001MA1999999095811MD1999999-0011MW1021REMSYN082AAXX  20184 83236 21597 70000 10277 20234 39581 40067 70255 85210 333 59001 60011;
0226832360999992004012100004-12150-045000FM-12+044099999V0203601N002110075019N0100001N1+02441+02321100881ADDAA106000091AY101061AY221061GF107991071051008001001001KA1240M+02871MA1999999095981MD1999999+0001MW1411REMSYN094AAXX  21004 83236 31597 73604 10244 20232 39598 40088 74102 87500 333 10287 29090 55013 58000;EQDQ01  00002PRCP06
0190832360999992004012112004-12150-045000FM-12+044099999V0209999C000010120019N0100001N1+02401+02331101061ADDAY161061AY261061GF107991051081008001011001KA1240N+02231MA1999999096161MD1999999+0011MW1021REMSYN088AAXX  21124 83236 21597 70000 10240 20233 39616 40106 70266 85810 333 20223 58001 60044;
0167832360999992004012118004-12150-045000FM-12+044099999V0200901N003110075019N0100001N1+02731+02281100681ADDAA106000091GF107991051021008001081001MA1999999095821MD1999999+0011REMSYN070AAXX  21184 83236 32597 70906 10273 20228 39582 40068 85280 333 58001;EQDQ01  00002PRCP06
0202832360999992004012200004-12150-045000FM-12+044099999V0200501N003110075019N0040001N1+02311+02251100941ADDAY151061AY251061GF108991051071008001021999KA1240M+03051MA1999999096041MD1999999+0061MW1421REMSYN100AAXX  22004 83236 21596 80506 10231 20225 39604 40094 74255 8572/ 333 10305 29092 55010 58006 69921;
0202832360999992004012300004-12150-045000FM-12+044099999V0209999C000010210019N0020001N1+02221+02171100941ADDAY191061AY261061GF108991081001022501021999KA1240M+03041MA1999999096041MD1999999+0001MW1501REMSYN100AAXX  23004 83236 21895 80000 10222 20217 39604 40094 75096 8802/ 333 10304 29088 55044 58000 60391;
0190832360999992004012312004-12150-045000FM-12+044099999V0200501N002110075019N0040001N1+02301+02251101041ADDAY161061AY261061GF108991081051008001999999KA1240N+02171MA1999999096111MD1999999+0071MW1401REMSYN088AAXX  23124 83236 21596 80504 10230 20225 39611 40104 74066 885// 333 20217 58007 60514;
0167832360999992004012318004-12150-045000FM-12+044099999V0203601N003610120019N0100001N1+02631+02251100751ADDAA106000091GF108991081081008001999999MA1999999095871MD1999999+0021REMSYN070AAXX  23184 83236 32597 83607 10263 20225 39587 40075 888// 333 58002;EQDQ01  00002PRCP06
0226832360999992004012400004-12150-045000FM-12+044099999V0203601N001510075019N0040001N1+02351+02241100971ADDAA106000091AY101061AY221061GF108991081051008001999999KA1240M+02711MA1999999096071MD1999999+0031MW1401REMSYN094AAXX  24004 83236 31596 83603 10235 20224 39607 40097 74002 885// 333 10271 29091 55016 58003;EQDQ01  00002PRCP06
0209832360999992004012412004-12150-045000FM-12+044099999V0203601N000510210019N0040001N1+02231+02151101221ADDAY161061AY261061GF108991999081022501001021KA1240N+02211MA1999999096301MD1999999+0191MW1401REMSYN088AAXX  24124 83236 21896 83601 10223 20215 39630 40122 74066 88802 333 20221 58019 60024;EQDQ01+000082SCOTLC
0171832360999992004012418004-12150-045000FM-12+044099999V0200501N003110450019N0100001N1+02731+02191100831ADDAY151061AY251061GF106991031021008001041051MA1999999095951MD1999999+0081MW1021REMSYN082AAXX  24184 83236 21597 60506 10273 20219 39595 40083 70255 83245 333 58008 69951;
0190832360999992004012512004-12150-045000FM-12+044099999V0200501N002110450019N0100001N1+02571+02211101141ADDAY151061AY251061GF106991031021008001041041KA1240N+02181MA1999999096251MD1999999-0051MW1021REMSYN088AAXX  25124 83236 21597 60504 10257 20221 39625 40114 70255 83244 333 20218 59005 60024;
0171832360999992004012518004-12150-045000FM-12+044099999V0200501N004610450019N0100001N1+02821+02241100731ADDAY161061AY261061GF106991031031008001041031MA1999999096971MD1999999-0081MW1021REMSYN082AAXX  25184 83236 21597 60509 10282 20224 39697 40073 70266 83343 333 59008 60021;
0198832360999992004012600004-12150-045000FM-12+044099999V0200501N001010450019N0100001N1+02411+02211101091ADDAA106000091GF105991021021008001011001KA1240M+02941MA1999999096211MD1999999+0061REMSYN088AAXX  26004 83236 32597 50502 10241 20221 39621 40109 82210 333 10294 29082 55046 58006;EQDQ01  00002PRCP06
0162832360999992004012612004-12150-045000FM-12+044099999V0209999C000010450019N0100001N1+02591+02211101121ADDGF107991031021008001071001KA1240N+02221MA1999999096241MD1999999-0011REMSYN082AAXX  26124 83236 22597 70000 10259 20221 39624 40112 83270 333 20222 59001 60024;
0171832360999992004012618004-12150-045000FM-12+044099999V0200501N004110450019N0100001N1+02591+02171100761ADDAY161061AY261061GF107991041071008001011041MA1999999095891MD1999999+0021MW1021REMSYN082AAXX  26184 83236 21597 70508 10259 20217 39589 40076 70266 84714 333 58002 60071;
0226832360999992004012700004-12150-045000FM-12+044099999V0200501N001010450019N0040001N1+02441+02321101091ADDAA106000091AY101061AY221061GF108991031051008001021999KA1240M+02921MA1999999096211MD1999999+0001MW1401REMSYN094AAXX  27004 83236 31596 80502 10244 20232 39621 40109 74002 8352/ 333 10292 29086 55027 58000;EQDQ01  00002PRCP06
0162832360999992004012712004-12150-045000FM-12+044099999V0209999C000011050019N0100001N1+02441+02111101161ADDGF105991021021008001061041KA1240N+02141MA1999999096271MD1999999+0031REMSYN082AAXX  27124 83236 22597 50000 10244 20211 39627 40116 82264 333 20214 58003 60074;
0167832360999992004012718004-12150-045000FM-12+044099999V0200901N005112200019N0100001N1+02901+02151100761ADDAA106000091GF106991031021008001001061MA1999999095911MD1999999+0021REMSYN070AAXX  27184 83236 32597 60910 10290 20215 39591 40076 83206 333 58002;EQDQ01  00002PRCP06
0198832360999992004012800004-12150-045000FM-12+044099999V0209999C000010450019N0040001N1+02571+02421101001ADDAA106000091GF108991021071008001021999KA1240M+03031MA1999999096131MD1999999-0081REMSYN088AAXX  28004 83236 32596 80000 10257 20242 39613 40100 8272/ 333 10303 29082 55054 59008;EQDQ01  00002PRCP06
0186832360999992004012812004-12150-045000FM-12+044099999V0200901N002610450019N0100001N1+02561+02191101201ADDAA106000091GF107991041051008001071041KA1240N+02261MA1999999096331MD1999999+0061REMSYN076AAXX  28124 83236 32597 70905 10256 20219 39633 40120 84574 333 20226 58006;EQDQ01  00002PRCP06
0167832360999992004012818004-12150-045000FM-12+044099999V0200901N004110450019N0100001N1+02871+02161100881ADDAA106000091GF107991041031008001041031MA1999999096291MD1999999+0131REMSYN070AAXX  28184 83236 32597 70908 10287 20216 39629 40088 84343 333 58013;EQDQ01  00002PRCP06
0198832360999992004012900004-12150-045000FM-12+044099999V0209999C000012200019N0100001N1+02501+02361100991ADDAA106000091GF104991021071008001011001KA1240M+03061MA1999999096131MD1999999+0001REMSYN088AAXX  29004 83236 32597 40000 10250 20236 39613 40099 82710 333 10306 29082 55041 58000;EQDQ01  00002PRCP06
0190832360999992004012912004-12150-045000FM-12+044099999V0200501N001510075019N0040001N1+02301+02221101321ADDAY161061AY261061GF108991081051008001999999KA1240N+02191MA1999999096411MD1999999+0081MW1401REMSYN088AAXX  29124 83236 21596 80503 10230 20222 39641 40132 74066 885// 333 20219 58008 60074;
0171832360999992004012918004-12150-045000FM-12+044099999V0201801N003610075019N0100001N1+02291+02091101081ADDAY151061AY251061GF107991051071008001021001MA1999999096171MD1999999+0131MW1151REMSYN082AAXX  29184 83236 21597 71807 10229 20209 39617 40108 71555 85720 333 58013 69921;
0202832360999992004013000004-12150-045000FM-12+044099999V0209999C000010450019N0040001N1+02331+02201101011ADDAY151061AY251061GF108991031071008001021999KA1240M+02971MA1999999096101MD1999999-0031MW1021REMSYN100AAXX  30004 83236 21596 80000 10233 20220 39610 40101 70255 8372/ 333 10297 29092 55005 59003 69941;
0162832360999992004013012004-12150-045000FM-12+044099999V0200501N004110450019N0100001N1+02441+02111101281ADDGF107991031051008001071031KA1240N+02151MA1999999096371MD1999999-0041REMSYN082AAXX  30124 83236 22597 70508 10244 20211 39637 40128 83573 333 20215 59004 69964;
0167832360999992004013018004-12150-045000FM-12+044099999V0203601N001512200019N0100001N1+02781+02161100901ADDAA106000091GF106991021021008001001061MA1999999096031MD1999999-0141REMSYN070AAXX  30184 83236 32597 63603 10278 20216 39603 40090 82206 333 59014;EQDQ01  00002PRCP06
0198832360999992004013100004-12150-045000FM-12+044099999V0209999C000012200019N0100001N1+02401+02211101091ADDAA106000091GF104991021001022501061021KA1240M+02891MA1999999096191MD1999999+0091REMSYN088AAXX  31004 83236 32897 40000 10240 20221 39619 40109 82062 333 10289 29082 55042 58009;EQDQ01  00002PRCP06
0190832360999992004013112004-12150-045000FM-12+044099999V0209999C000010450019N0040001N1+02171+02111101491ADDAY161061AY261061GF108991041051008001021999KA1240N+02111MA1999999096531MD1999999+0161MW1601REMSYN088AAXX  31124 83236 21596 80000 10217 20211 39653 40149 76066 8452/ 333 20211 58016 60144;
0171832360999992004013118004-12150-045000FM-12+044099999V0201401N001010450019N0100001N1+02751+02301100931ADDAY161061AY261061GF106991041031008001041001MA1999999096061MD1999999+0031MW1151REMSYN082AAXX  31184 83236 21597 61402 10275 20230 39606 40093 71566 84340 333 58003 60051;
0190832360999992004020112004-12150-045000FM-12+044099999V0209999C000010075019N0040001N1+02281+02141101511ADDAY161061AY261061GF107991051051008001021001KA1240N+02171MA1999999096571MD1999999+0041MW1401REMSYN088AAXX  01124 83236 21596 70000 10228 20214 39657 40151 74066 85520 333 20217 58004 60204;
0167832360999992004020118004-12150-045000FM-12+044099999V0200501N001011050019N0100001N1+02651+02161101081ADDAA106000091GF106991021011008001081061MA1999999096191MD1999999+0131REMSYN070AAXX  01184 83236 32597 60502 10265 20216 39619 40108 82186 333 58013;EQDQ01  00002PRCP06
0202832360999992004020200004-12150-045000FM-12+044099999V0201801N000510075019N0040001N1+02291+02141101231ADDAY151061AY251061GF108991051051008001021999KA1240M+02751MA1999999096311MD1999999-0031MW1021REMSYN100AAXX  02004 83236 21596 81801 10229 20214 39631 40123 70255 8552/ 333 10275 29090 55008 59003 69951;
0203832360999992004020212004-12150-045000FM-12+044099999V0209999C000010450019N0040001N1+02181+02101101291ADDAY161061AY261061GF108991041051008001021001KA1240N+01971MA1999999096351MD1999999-0221REMSYN088AAXX  02124 83236 21596 80000 10218 20210 39635 40129 74866 84520 333 20197 59022 60194;EQDQ01+000482PRSWM1
0167832360999992004020218004-12150-045000FM-12+044099999V0203601N004112200019N0100001N1+02811+02201100781ADDAA106000091GF106991021021008001001061MA1999999095921MD1999999-0271REMSYN070AAXX  02184 83236 32597 63608 10281 20220 39592 40078 82206 333 59027;EQDQ01  00002PRCP06
0198832360999992004020300004-12150-045000FM-12+044099999V0201801N001510075019N0040001N1+02441+02171101111ADDAA106000091GF108991051051008001021999KA1240M+02971MA1999999096161MD1999999-0151REMSYN088AAXX  03004 83236 32596 81803 10244 20217 39616 40111 8552/ 333 10297 29084 55041 59015;EQDQ01  00002PRCP06
0190832360999992004020312004-12150-045000FM-12+044099999V0209999C000010075019N0040001N1+02171+02131101261ADDAY161061AY251061GF108991061061008001021999KA1240N+02101MA1999999096341MD1999999-0011MW1101REMSYN088AAXX  03124 83236 21596 80000 10217 20213 39634 40126 71065 8662/ 333 20210 59001 60224;
0199832360999992004020318004-12150-045000FM-12+044099999V0200501N001510075019N0100001N1+02691+02331100871ADDAA106000091GF107991051021008001051071MA1999999999999MD1999999+0071REMSYN070AAXX  03184 83236 32597 70503 10269 20233 38995 40087 85257 333 58007;EQDQ01+089953APOSP Q02  00002PRCP06Q03 089953APOSP 
0198832360999992004020400004-12150-045000FM-12+044099999V0202301N001010075019N0100001N1+02201+02131101111ADDAA106000091GF108991061021008001061999KA1240M+02831MA1999999096171MD1999999+0011REMSYN088AAXX  04004 83236 32597 82302 10220 20213 39617 40111 8626/ 333 10283 29093 55005 58001;EQDQ01  00002PRCP06
0186832360999992004020412004-12150-045000FM-12+044099999V0209999C000010075019N0100001N1+02401+02211101321ADDAA106000091GF108991061021008001071999KA1240N+02131MA1999999096421MD1999999+0081REMSYN076AAXX  04124 83236 32597 80000 10240 20221 39642 40132 8627/ 333 20213 58008;EQDQ01  00002PRCP06
0195832360999992004020418004-12150-045000FM-12+044099999V0203601N002110450019N0200001N1+02941+02161100821ADDAA106000091AY121061AY221061GF106991031051008001081071MA1999999095961MD1999999-0031MW1151REMSYN076AAXX  04184 83236 31598 63604 10294 20216 39596 40082 71522 83587 333 59003;EQDQ01  00002PRCP06
0198832360999992004020500004-12150-045000FM-12+044099999V0209999C000012200019N0200001N1+02411+02331100961ADDAA106000091GF104991021021012501001051KA1240M+03081MA1999999096071MD1999999-0101REMSYN088AAXX  05004 83236 32698 40000 10241 20233 39607 40096 82205 333 10308 29086 55056 59010;EQDQ01  00002PRCP06
0186832360999992004020512004-12150-045000FM-12+044099999V0209999C000010450019N0200001N1+02461+02211101201ADDAA106000091GF106991041021008001061051KA1240N+02071MA1999999096311MD1999999-0111REMSYN076AAXX  05124 83236 32598 60000 10246 20221 39631 40120 84265 333 20207 59011;EQDQ01  00002PRCP06
0167832360999992004020518004-12150-045000FM-12+044099999V0200501N001511050019N0200001N1+03061+02251100691ADDAA106000091GF105991041041008001001031MA1999999095851MD1999999-0111REMSYN070AAXX  05184 83236 32598 50503 10306 20225 39585 40069 84403 333 59011;EQDQ01  00002PRCP06
0198832360999992004020600004-12150-045000FM-12+044099999V0209999C000012200019N0200001N1+02391+02291100931ADDAA106000091GF104991021021012501051001KA1240M+03181MA1999999096041MD1999999-0031REMSYN088AAXX  06004 83236 32698 40000 10239 20229 39604 40093 82250 333 10318 29084 55082 59003;EQDQ01  00002PRCP06
0162832360999992004020612004-12150-045000FM-12+044099999V0209999C000011050019N0200001N1+02461+02251101031ADDGF105991041021008001001051KA1240N+02051MA1999999096141MD1999999-0171REMSYN082AAXX  06124 83236 22598 50000 10246 20225 39614 40103 84205 333 20205 59017 69934;
0167832360999992004020618004-12150-045000FM-12+044099999V0203601N001010450019N0200001N1+03151+02181100501ADDAA106000091GF106991031031008001051071MA1999999095681MD1999999-0171REMSYN070AAXX  06184 83236 32598 63602 10315 20218 39568 40050 83357 333 59017;EQDQ01  00002PRCP06
0226832360999992004020700004-12150-045000FM-12+044099999V0203601N002611050019N0200001N1+02601+02271100701ADDAA106000091AY121061AY221061GF106991041051008001001051KA1240M+03321MA1999999095851MD1999999-0191MW1131REMSYN094AAXX  07004 83236 31598 63605 10260 20227 39585 40070 71322 84505 333 10332 29077 55102 59019;EQDQ01  00002PRCP06
0186832360999992004020712004-12150-045000FM-12+044099999V0209999C000010450019N0200001N1+02691+02391100921ADDAA106000091GF105991031021008001051031KA1240N+02311MA1999999096081MD1999999-0061REMSYN076AAXX  07124 83236 32598 50000 10269 20239 39608 40092 83253 333 20231 59006;EQDQ01  00002PRCP06
0167832360999992004020718004-12150-045000FM-12+044099999V0203601N002611050019N0200001N1+03061+02111100501ADDAA106000091GF106991041021008001001071MA1999999095691MD1999999+0011REMSYN070AAXX  07184 83236 32598 63605 10306 20211 39569 40050 84207 333 58001;EQDQ01  00002PRCP06
0198832360999992004020800004-12150-045000FM-12+044099999V0209999C000012200019N0200001N1+02571+02381100801ADDAA106000091GF103991001001999999001051KA1240M+03171MA1999999095961MD1999999+0111REMSYN088AAXX  08004 83236 32998 30000 10257 20238 39596 40080 80005 333 10317 29080 55083 58011;EQDQ01  00002PRCP06
0190832360999992004020812004-12150-045000FM-12+044099999V0209999C000010075019N0040001N1+02441+02191101191ADDAY151061AY251061GF108991071051008001041999KA1240N+02251MA1999999096311MD1999999+0231MW1151REMSYN088AAXX  08124 83236 21596 80000 10244 20219 39631 40119 71555 8754/ 333 20225 58023 69924;
0171832360999992004020818004-12150-045000FM-12+044099999V0202701N001510075019N0040001N1+02481+02291100911ADDAY151061AY251061GF108991061061008001051999MA1999999096041MD1999999+0351MW1141REMSYN082AAXX  08184 83236 21596 82703 10248 20229 39604 40091 71455 8665/ 333 58035 60031;
0198832360999992004020900004-12150-045000FM-12+044099999V0209999C000010075019N0020001N1+02411+02311101191ADDAA106000091GF108991061071008001041999KA1240M+02971MA1999999096291MD1999999+0331REMSYN088AAXX  09004 83236 32595 80000 10241 20231 39629 40119 8674/ 333 10297 29091 55007 58033;EQDQ01  00002PRCP06
0190832360999992004020912004-12150-045000FM-12+044099999V0209999C000010075019N0020001N1+02211+02181101431ADDAY161061AY261061GF108991061051008001999999KA1240N+02111MA1999999096491MD1999999+0181MW1511REMSYN088AAXX  09124 83236 21595 80000 10221 20218 39649 40143 75166 865// 333 20211 58018 60174;
0171832360999992004020918004-12150-045000FM-12+044099999V0209999C000010075019N0020001N1+02311+02181101061ADDAY151061AY251061GF108991071061008001021999MA1999999096131MD1999999+0091MW1511REMSYN082AAXX  09184 83236 21595 80000 10231 20218 39613 40106 75155 8762/ 333 58009 60041;
0202832360999992004021000004-12150-045000FM-12+044099999V0209999C000010075019N0040001N1+02231+02191101241ADDAY121061AY221061GF108991061071008001021999KA1240M+02501MA1999999096291MD1999999+0001MW1141REMSYN100AAXX  10004 83236 21596 80000 10223 20219 39629 40124 71422 8672/ 333 10250 29097 55000 58000 69921;
0190832360999992004021012004-12150-045000FM-12+044099999V0209999C000010120019N0040001N1+02351+02241101261ADDAY151061AY251061GF108991061081008001041999KA1240N+02111MA1999999096341MD1999999-0151MW1101REMSYN088AAXX  10124 83236 21596 80000 10235 20224 39634 40126 71055 8684/ 333 20211 59015 60064;
0171832360999992004021018004-12150-045000FM-12+044099999V0202701N001510075019N0020001N1+02161+02111101021ADDAY161061AY261061GF108991051061008001999999MA1999999096171MD1999999+0041MW1611REMSYN082AAXX  10184 83236 21595 82703 10216 20211 39617 40102 76166 856// 333 58004 60241;
0202832360999992004021100004-12150-045000FM-12+044099999V0209999C000010075019N0040001N1+02161+02141101241ADDAY161061AY251061GF108991061071008001021041KA1240M+02741MA1999999096301MD1999999+0011MW1101REMSYN100AAXX  11004 83236 21596 80000 10216 20214 39630 40124 71065 86724 333 10274 29097 55000 58001 60051;
0162832360999992004021112004-12150-045000FM-12+044099999V0202301N001010450019N0200001N1+02461+02251101291ADDGF105991031021008001061051KA1240N+02051MA1999999096361MD1999999+0021REMSYN082AAXX  11124 83236 22598 52302 10246 20225 39636 40129 83265 333 20205 58002 60394;
0167832360999992004021118004-12150-045000FM-12+044099999V0203601N003110450019N0200001N1+02971+02231100881ADDAA106000091GF105991031021008001051031MA1999999096011MD1999999-0161REMSYN070AAXX  11184 83236 32598 53606 10297 20223 39601 40088 83253 333 59016;EQDQ01  00002PRCP06
0198832360999992004021200004-12150-045000FM-12+044099999V0209999C000012200019N0200001N1+02421+02231101081ADDAA106000091GF103991031021012501001001KA1240M+03081MA1999999096191MD1999999-0111REMSYN088AAXX  12004 83236 32698 30000 10242 20223 39619 40108 83200 333 10308 29083 55083 59011;EQDQ01  00002PRCP06
0186832360999992004021212004-12150-045000FM-12+044099999V0200501N001512200019N0200001N1+02601+02121101351ADDAA106000091GF102991021021012501001001KA1240N+02081MA1999999096461MD1999999+0101REMSYN076AAXX  12124 83236 32698 20503 10260 20212 39646 40135 82200 333 20208 58010;EQDQ01  00002PRCP06
0195832360999992004021218004-12150-045000FM-12+044099999V0200501N002612200019N0200001N1+02981+02171101071ADDAA106000091AY121061AY221061GF104991041051012501001001MA1999999096191MD1999999+0181MW1151REMSYN076AAXX  12184 83236 31698 40505 10298 20217 39619 40107 71522 84500 333 58018;EQDQ01  00002PRCP06
0198832360999992004021300004-12150-045000FM-12+044099999V0209999C000012200019N0200001N1+02331+02201101231ADDAA106000091GF103991021021008001001051KA1240M+03111MA1999999096341MD1999999+0151REMSYN088AAXX  13004 83236 32598 30000 10233 20220 39634 40123 82205 333 10311 29081 55105 58015;EQDQ01  00002PRCP06
0186832360999992004021312004-12150-045000FM-12+044099999V0209999C000011050019N0200001N1+02461+02171101381ADDAA106000091GF105991021021012501001071KA1240N+02021MA1999999096471MD1999999+0011REMSYN076AAXX  13124 83236 32698 50000 10246 20217 39647 40138 82207 333 20202 58001;EQDQ01  00002PRCP06
0167832360999992004021318004-12150-045000FM-12+044099999V0200501N002610450019N0200001N1+03011+02111100921ADDAA106000091GF106991041021008001071051MA1999999096051MD1999999-0141REMSYN070AAXX  13184 83236 32598 60505 10301 20211 39605 40092 84275 333 59014;EQDQ01  00002PRCP06
0198832360999992004021400004-12150-045000FM-12+044099999V0209999C000012200019N0200001N1+02521+02331101051ADDAA106000091GF102991021021012501001001KA1240M+03161MA1999999096171MD1999999-0171REMSYN088AAXX  14004 83236 32698 20000 10252 20233 39617 40105 82200 333 10316 29080 55101 59017;EQDQ01  00002PRCP06
0186832360999992004021412004-12150-045000FM-12+044099999V0200501N002111050019N0200001N1+02561+02131101281ADDAA106000091GF105991021021012501001051KA1240N+02011MA1999999096401MD1999999-0071REMSYN076AAXX  14124 83236 32698 50504 10256 20213 39640 40128 82205 333 20201 59007;EQDQ01  00002PRCP06
0167832360999992004021418004-12150-045000FM-12+044099999V0203601N002612200019N0200001N1+02971+02071100831ADDAA106000091GF103991021021012501001031MA1999999095971MD1999999-0081REMSYN070AAXX  14184 83236 32698 33605 10297 20207 39597 40083 82203 333 59008;EQDQ01  00002PRCP06
0198832360999992004021500004-12150-045000FM-12+044099999V0200501N001012200019N0200001N1+02541+02251100881ADDAA106000091GF102991001001999999001031KA1240M+03081MA1999999096021MD1999999-0151REMSYN088AAXX  15004 83236 32998 20502 10254 20225 39602 40088 80003 333 10308 29076 55111 59015;EQDQ01  00002PRCP06
0186832360999992004021512004-12150-045000FM-12+044099999V0200501N002612200019N0200001N1+02541+02001101171ADDAA106000091GF104991021021012501001051KA1240N+01931MA1999999096301MD1999999-0101REMSYN076AAXX  15124 83236 32698 40505 10254 20200 39630 40117 82205 333 20193 59010;EQDQ01  00002PRCP06
0167832360999992004021518004-12150-045000FM-12+044099999V0200501N003110450019N0200001N1+03071+01991100831ADDAA106000091GF105991031021008001061071MA1999999095971MD1999999+0001REMSYN070AAXX  15184 83236 32598 50506 10307 20199 39597 40083 83267 333 58000;EQDQ01  00002PRCP06
0186832360999992004021612004-12150-045000FM-12+044099999V0209999C000010450019N0200001N1+02531+02331101231ADDAA106000091GF105991031021008001061051KA1240N+02051MA1999999096351MD1999999+0051REMSYN076AAXX  16124 83236 32598 50000 10253 20233 39635 40123 83265 333 20205 58005;EQDQ01  00002PRCP06
0171832360999992004021618004-12150-045000FM-12+044099999V0200501N003110075019N0100001N1+02861+02231100771ADDAY161061AY261061GF108991071061008001041999MA1999999095911MD1999999-0061MW1151REMSYN082AAXX  16184 83236 21597 80506 10286 20223 39591 40077 71566 8764/ 333 59006 60081;
0202832360999992004021700004-12150-045000FM-12+044099999V0209999C000010075019N0020001N1+02371+02311101211ADDAY151061AY251061GF108991061051008001999999KA1240M+03081MA1999999096321MD1999999+0271MW1511REMSYN100AAXX  17004 83236 21595 80000 10237 20231 39632 40121 75155 865// 333 10308 29088 55059 58027 69921;
0162832360999992004021712004-12150-045000FM-12+044099999V0209999C000010450019N0100001N1+02641+02271101381ADDGF106991041021008001061051KA1240N+02171MA1999999096491MD1999999+0141REMSYN082AAXX  17124 83236 22597 60000 10264 20227 39649 40138 84265 333 20217 58014 60094;
0171832360999992004021718004-12150-045000FM-12+044099999V0209999C000010075019N0040001N1+02211+02151101241ADDAY161061AY261061GF108991081061008001999999MA1999999096291MD1999999+0381MW1101REMSYN082AAXX  17184 83236 21596 80000 10221 20215 39629 40124 71066 886// 333 58038 60131;
0198832360999992004021800004-12150-045000FM-12+044099999V0209999C000010450019N0100001N1+02221+02201101321ADDAA106000091GF106991041071012501041001KA1240M+02821MA1999999096421MD1999999+0101REMSYN088AAXX  18004 83236 32697 60000 10222 20220 39642 40132 84740 333 10282 29094 55020 58010;EQDQ01  00002PRCP06
0162832360999992004021812004-12150-045000FM-12+044099999V0209999C000010450019N0100001N1+02351+02291101431ADDGF108991021011008001051001KA1240N+02121MA1999999096511MD1999999+0021REMSYN082AAXX  18124 83236 22597 80000 10235 20229 39651 40143 82150 333 20212 58002 60134;
0203832360999992004021912004-12150-045000FM-12+044099999V0209999C000010450019N0040001N1+02281+02251101241ADDAY161061AY261061GF108991041051008001021999KA1240N+02161MA1999999096341MD1999999-0171REMSYN088AAXX  19124 83236 21596 80000 10228 20225 39634 40124 74866 8452/ 333 20216 59017 60334;EQDQ01+000482PRSWM1
0171832360999992004021918004-12150-045000FM-12+044099999V0203601N001511050019N0040001N1+02921+02291100701ADDAY151061AY251061GF107991041021008001001021MA1999999095871MD1999999-0151MW1021REMSYN082AAXX  19184 83236 21596 73603 10292 20229 39587 40070 70255 84202 333 59015 69961;
0226832360999992004022000004-12150-045000FM-12+044099999V0209999C000010450019N0100001N1+02521+02421100891ADDAA106000091AY101061AY221061GF107991031071008001021001KA1240M+03051MA1999999096001MD1999999-0131MW1131REMSYN094AAXX  20004 83236 31597 70000 10252 20242 39600 40089 71302 83720 333 10305 29089 55032 59013;EQDQ01  00002PRCP06
0203832360999992004022012004-12150-045000FM-12+044099999V0201801N001010450019N0040001N1+02111+02051101281ADDAY161061AY261061GF108991041051008001021999KA1240N+02011MA1999999096351MD1999999+0011REMSYN088AAXX  20124 83236 21596 81802 10211 20205 39635 40128 74866 8452/ 333 20201 58001 60144;EQDQ01+000482PRSWM1
0206832360999992004022018004-12150-045000FM-12+044099999V0201101N999991050019N0100001N1+02891+02281100791ADDAY161061AY261061GF107991041021008001001061MA1999999095941MD1999999+0071MW1021REMSYN082AAXX  20184 83236 21597 71180 10289 20228 39594 40079 70266 84206 333 58007 60011;EQDQ01+004113WOSPD Q020004113WOSPD 
0198832360999992004022100004-12150-045000FM-12+044099999V0209999C000010450019N0100001N1+02421+02321101031ADDAA106000091GF105991031071008001011001KA1240M+03001MA1999999096101MD1999999+0101REMSYN088AAXX  21004 83236 32597 50000 10242 20232 39610 40103 83710 333 10300 29089 55030 58010;EQDQ01  00002PRCP06
0162832360999992004022112004-12150-045000FM-12+044099999V0209999C000012200019N0100001N1+02431+02211101211ADDGF103991011011008001041001KA1240N+02111MA1999999096311MD1999999-0041REMSYN082AAXX  21124 83236 22597 30000 10243 20221 39631 40121 81140 333 20211 59004 60014;
0167832360999992004022118004-12150-045000FM-12+044099999V0201801N001510450019N0100001N1+02571+02351100911ADDAA106000091GF107991041071008001021001MA1999999096021MD1999999+0081REMSYN070AAXX  21184 83236 32597 71803 10257 20235 39602 40091 84720 333 58008;EQDQ01  00002PRCP06
0186832360999992004022212004-12150-045000FM-12+044099999V0203601N001510450019N0100001N1+02611+02331101251ADDAA106000091GF106991031021008001031021KA1240N+02261MA1999999096381MD1999999+0071REMSYN076AAXX  22124 83236 32597 63603 10261 20233 39638 40125 83232 333 20226 58007;EQDQ01  00002PRCP06
0167832360999992004022218004-12150-045000FM-12+044099999V0203601N003110450019N0100001N1+02981+02231100891ADDAA106000091GF106991031021008001071001MA1999999096041MD1999999+0021REMSYN070AAXX  22184 83236 32597 63606 10298 20223 39604 40089 83270 333 58002;EQDQ01  00002PRCP06
0167832360999992004022318004-12150-045000FM-12+044099999V0203601N003111050019N0100001N1+03031+02161100821ADDAA106000091GF105991031021008001001091MA1999999095971MD1999999-0071REMSYN070AAXX  23184 83236 32597 53606 10303 20216 39597 40082 83209 333 59007;EQDQ01  00002PRCP06
0198832360999992004022400004-12150-045000FM-12+044099999V0209999C000012200019N0100001N1+02531+02421101101ADDAA106000091GF104991041071008001001001KA1240M+03051MA1999999096231MD1999999-0041REMSYN088AAXX  24004 83236 32597 40000 10253 20242 39623 40110 84700 333 10305 29082 55103 59004;EQDQ01  00002PRCP06
0167832360999992004022418004-12150-045000FM-12+044099999V0203601N002112200019N0100001N1+02891+02251100841ADDAA106000091GF106991021021008001001061MA1999999095971MD1999999+0001REMSYN070AAXX  24184 83236 32597 63604 10289 20225 39597 40084 82206 333 58000;EQDQ01  00002PRCP06
0186832360999992004022512004-12150-045000FM-12+044099999V0202301N000510450019N0100001N1+02581+02211101231ADDAA106000091GF106991011011008001071001KA1240N+02191MA1999999096351MD1999999+0001REMSYN076AAXX  25124 83236 32597 62301 10258 20221 39635 40123 81170 333 20219 58000;EQDQ01  00002PRCP06
0167832360999992004022518004-12150-045000FM-12+044099999V0203601N002610450019N0100001N1+02941+02241100881ADDAA106000091GF107991041071008001011061MA1999999096021MD1999999+0051REMSYN070AAXX  25184 83236 32597 73605 10294 20224 39602 40088 84716 333 58005;EQDQ01  00002PRCP06
0198832360999992004022600004-12150-045000FM-12+044099999V0202701N001510450019N0100001N1+02501+02291101111ADDAA106000091GF108991041051008001021999KA1240M+03051MA1999999096241MD1999999+0161REMSYN088AAXX  26004 83236 32597 82703 10250 20229 39624 40111 8452/ 333 10305 29081 55046 58016;EQDQ01  00002PRCP06
0186832360999992004022612004-12150-045000FM-12+044099999V0209999C000010450019N0100001N1+02511+02231101401ADDAA106000091GF107991011011008001071001KA1240N+02181MA1999999096511MD1999999+0161REMSYN076AAXX  26124 83236 32597 70000 10251 20223 39651 40140 81170 333 20218 58016;EQDQ01  00002PRCP06
0176832360999992004022618004-12150-045000FM-12+044099999V0202701N001010450019N0100001N1+02871+02261100981ADDAA106000021AY101061AY291061GF107991041031008001041031MA1999999096121MD1999999+0101MW1961REMSYN076AAXX  26184 83236 31597 72702 10287 20226 39612 40098 79609 84343 333 58010;
0202832360999992004022700004-12150-045000FM-12+044099999V0202701N003110450019N0040001N1+02281+02091101421ADDAY161061AY261061GF108991041071008001021999KA1240M+03071MA1999999096511MD1999999+0271MW1021REMSYN100AAXX  27004 83236 21596 82706 10228 20209 39651 40142 70266 8472/ 333 10307 29083 55023 58027 60011;
0162832360999992004022712004-12150-045000FM-12+044099999V0209999C000012200019N0100001N1+02421+02211101331ADDGF104991011011008001061081KA1240N+02071MA1999999096391MD1999999-0171REMSYN082AAXX  27124 83236 22597 40000 10242 20221 39639 40133 81168 333 20207 59017 60014;
0167832360999992004022718004-12150-045000FM-12+044099999V0200501N002110450019N0100001N1+03051+02201100801ADDAA106000091GF106991031021008001071051MA1999999095951MD1999999-0171REMSYN070AAXX  27184 83236 32597 60504 10305 20220 39595 40080 83275 333 59017;EQDQ01  00002PRCP06
0214832360999992004022800004-12150-045000FM-12+044099999V0209999C000012200019N0100001N1+02361+02311100941ADDAA106000091GF104991021021008001061001KA1240M+99999MA1999999096051MD1999999-0461REMSYN088AAXX  28004 83236 32597 40000 10236 20231 39605 40094 82260 333 10098 29086 55065 59046;EQDQ01  00002PRCP06Q02 +00982ATMX  
0190832360999992004022812004-12150-045000FM-12+044099999V0200501N002110075019N0040001N1+02311+02231101181ADDAY161061AY261061GF108991051051008001021999KA1240N+02131MA1999999096261MD1999999-0131MW1401REMSYN088AAXX  28124 83236 21596 80504 10231 20223 39626 40118 74066 8552/ 333 20213 59013 60064;
0171832360999992004022818004-12150-045000FM-12+044099999V0200501N006710075019N0100001N1+02421+02131100741ADDAY151061AY251061GF107991071071008001001001MA1999999095861MD1999999-0091MW1151REMSYN082AAXX  28184 83236 21597 70513 10242 20213 39586 40074 71555 87700 333 59009 69941;
0198832360999992004022900004-12150-045000FM-12+044099999V0209999C000010120019N0100001N1+02401+02231100871ADDAA106000091GF107991071081008001001001KA1240M+02991MA1999999095971MD1999999-0081REMSYN088AAXX  29004 83236 32597 70000 10240 20223 39597 40087 87800 333 10299 29090 55034 59008;EQDQ01  00002PRCP06
0190832360999992004022912004-12150-045000FM-12+044099999V0203601N002110075019N0100001N1+02571+02351101171ADDAY101061AY241061GF107991071051008001001001KA1240N+02151MA1999999096291MD1999999+0031MW1021REMSYN088AAXX  29124 83236 21597 73604 10257 20235 39629 40117 70204 87500 333 20215 58003 69944;
0171832360999992004022918004-12150-045000FM-12+044099999V0203201N002111050019N0100001N1+02621+02351100731ADDAY191061AY261061GF106991041031008001001031MA1999999095851MD1999999-0011MW1151REMSYN082AAXX  29184 83236 21597 63204 10262 20235 39585 40073 71596 84303 333 59001 60011;
0202832360999992004030100004-12150-045000FM-12+044099999V0201801N001010075019N0020001N1+02251+02221101181ADDAY191061AY261061GF108991081071008001999999KA1240M+03051MA1999999096281MD1999999+0311MW1951REMSYN100AAXX  01004 83236 21595 81802 10225 20222 39628 40118 79596 887// 333 10305 29093 55054 58031 60081;
0190832360999992004030112004-12150-045000FM-12+044099999V0200901N001010450019N0100001N1+02491+02291101201ADDAY161061AY261061GF106991021021008001041051KA1240N+02141MA1999999096291MD1999999+0001MW1021REMSYN088AAXX  01124 83236 21597 60902 10249 20229 39629 40120 70266 82245 333 20214 58000 60264;
0195832360999992004030118004-12150-045000FM-12+044099999V0203601N002111050019N0100001N1+02891+02371100791ADDAA106000091AY101061AY291061GF107991041091008001001031MA1999999095931MD1999999+0081MW1151REMSYN076AAXX  01184 83236 31597 73604 10289 20237 39593 40079 71509 84903 333 58008;EQDQ01  00002PRCP06
0226832360999992004030200004-12150-045000FM-12+044099999V0200501N002110450019N0100001N1+02581+02371100991ADDAA106000091AY101061AY221061GF107991041071008001021001KA1240M+03031MA1999999096131MD1999999-0131MW1131REMSYN094AAXX  02004 83236 31597 70504 10258 20237 39613 40099 71302 84720 333 10303 29085 55057 59013;EQDQ01  00002PRCP06
0186832360999992004030212004-12150-045000FM-12+044099999V0209999C000012200019N0100001N1+02581+02251101241ADDAA106000091GF106991021021008001001061KA1240N+02201MA1999999096371MD1999999+0081REMSYN076AAXX  02124 83236 32597 60000 10258 20225 39637 40124 82206 333 20220 58008;EQDQ01  00002PRCP06
0167832360999992004030218004-12150-045000FM-12+044099999V0200501N003112200019N0100001N1+02971+02281100761ADDAA106000091GF105991021021008001001041MA1999999095921MD1999999-0011REMSYN070AAXX  02184 83236 32597 50506 10297 20228 39592 40076 82204 333 59001;EQDQ01  00002PRCP06
0226832360999992004030300004-12150-045000FM-12+044099999V0201801N001010450019N0100001N1+02531+02331101001ADDAA106000091AY101061AY221061GF107991031071008001071001KA1240M+03111MA1999999096141MD1999999+0011MW1131REMSYN094AAXX  03004 83236 31597 71802 10253 20233 39614 40100 71302 83770 333 10311 29081 55092 58001;EQDQ01  00002PRCP06
0190832360999992004030312004-12150-045000FM-12+044099999V0209999C000010075019N0020001N1+02071+02041101441ADDAY161061AY261061GF108991081001008001021999KA1240N+02011MA1999999096501MD1999999+0131MW1531REMSYN088AAXX  03124 83236 21595 80000 10207 20204 39650 40144 75366 8802/ 333 20201 58013 60394;
0171832360999992004030318004-12150-045000FM-12+044099999V0201801N001010450019N0100001N1+02761+02321100791ADDAY161061AY261061GF106991031021008001071001MA1999999095941MD1999999+0021MW1021REMSYN082AAXX  03184 83236 21597 61802 10276 20232 39594 40079 70266 83270 333 58002 60071;
0198832360999992004030400004-12150-045000FM-12+044099999V0200501N001010450019N0100001N1+02361+02191101081ADDAA106000091GF107991031071008001021001KA1240M+02871MA1999999096111MD1999999-0031REMSYN088AAXX  04004 83236 32597 70502 10236 20219 39611 40108 83720 333 10287 29089 55022 59003;EQDQ01  00002PRCP06
0162832360999992004030412004-12150-045000FM-12+044099999V0209999C000010450019N0200001N1+02321+02251101281ADDGF105991031021008001061051KA1240N+01981MA1999999096361MD1999999-0141REMSYN082AAXX  04124 83236 22598 50000 10232 20225 39636 40128 83265 333 20198 59014 60074;
0167832360999992004030418004-12150-045000FM-12+044099999V0203601N002110450019N0200001N1+02991+02421100731ADDAA106000091GF106991041021008001051071MA1999999095871MD1999999-0071REMSYN070AAXX  04184 83236 32598 63604 10299 20242 39587 40073 84257 333 59007;EQDQ01  00002PRCP06
0226832360999992004030500004-12150-045000FM-12+044099999V0201801N001010450019N0200001N1+02421+02281101091ADDAA106000091AY121061AY221061GF108991041051008001071999KA1240M+03091MA1999999096181MD1999999+0071MW1131REMSYN094AAXX  05004 83236 31598 81802 10242 20228 39618 40109 71322 8457/ 333 10309 29088 55094 58007;EQDQ01  00002PRCP06
0186832360999992004030512004-12150-045000FM-12+044099999V0209999C000010075019N0200001N1+02421+02321101331ADDAA106000091GF108991051071008001041999KA1240N+02201MA1999999096421MD1999999+0061REMSYN076AAXX  05124 83236 32598 80000 10242 20232 39642 40133 8574/ 333 20220 58006;EQDQ01  00002PRCP06
0167832360999992004030518004-12150-045000FM-12+044099999V0200501N004611050019N0200001N1+02921+02141100901ADDAA106000091GF105991031021008001001051MA1999999096041MD1999999+0171REMSYN070AAXX  05184 83236 32598 50509 10292 20214 39604 40090 83205 333 58017;EQDQ01  00002PRCP06
0198832360999992004030600004-12150-045000FM-12+044099999V0209999C000010075019N0200001N1+02341+02261101211ADDAA106000091GF107991051021008001071051KA1240M+03051MA1999999096311MD1999999+0131REMSYN088AAXX  06004 83236 32598 70000 10234 20226 39631 40121 85275 333 10305 29087 55061 58013;EQDQ01  00002PRCP06
0186832360999992004030612004-12150-045000FM-12+044099999V0209999C000012200019N0200001N1+02381+02051101321ADDAA106000091GF104991021021012501001071KA1240N+01931MA1999999096401MD1999999-0021REMSYN076AAXX  06124 83236 32698 40000 10238 20205 39640 40132 82207 333 20193 59002;EQDQ01  00002PRCP06
0167832360999992004030618004-12150-045000FM-12+044099999V0203601N003112200019N0200001N1+02941+02141100941ADDAA106000091GF103991021021008001001051MA1999999096081MD1999999+0041REMSYN070AAXX  06184 83236 32598 33606 10294 20214 39608 40094 82205 333 58004;EQDQ01  00002PRCP06
0198832360999992004030700004-12150-045000FM-12+044099999V0209999C000010450019N0200001N1+02461+02251101201ADDAA106000091GF105991031021012501051031KA1240M+03061MA1999999096301MD1999999-0011REMSYN088AAXX  07004 83236 32698 50000 10246 20225 39630 40120 83253 333 10306 29080 55108 59001;EQDQ01  00002PRCP06
0186832360999992004030712004-12150-045000FM-12+044099999V0209999C000012200019N0200001N1+02461+02131101391ADDAA106000091GF102991001001999999001031KA1240N+01941MA1999999096491MD1999999+0091REMSYN076AAXX  07124 83236 32998 20000 10246 20213 39649 40139 80003 333 20194 58009;EQDQ01  00002PRCP06
0171832360999992004030718004-12150-045000FM-12+044099999V0209999C000010075019N0200001N1+02921+02321100991ADDAY151061AY251061GF106991061051008001001001MA1999999096111MD1999999+0031MW1151REMSYN082AAXX  07184 83236 21598 60000 10292 20232 39611 40099 71555 86500 333 58003 69921;
0202832360999992004030800004-12150-045000FM-12+044099999V0209999C000012200019N0200001N1+02361+02261101191ADDAY151061AY251061GF103991021021008001001031KA1240M+03151MA1999999096291MD1999999-0011MW1021REMSYN100AAXX  08004 83236 21598 30000 10236 20226 39629 40119 70255 82203 333 10315 29085 55092 59001 60031;
0162832360999992004030812004-12150-045000FM-12+044099999V0209999C000010450019N0200001N1+02531+02151101411ADDGF106991031021008001051071KA1240N+02011MA1999999096511MD1999999+0021REMSYN082AAXX  08124 83236 22598 60000 10253 20215 39651 40141 83257 333 20201 58002 60034;
0195832360999992004030818004-12150-045000FM-12+044099999V0203601N002611050019N0200001N1+02931+02361101041ADDAA106000091AY121061AY221061GF105991041051008001001051MA1999999096151MD1999999+0041MW1151REMSYN076AAXX  08184 83236 31598 53605 10293 20236 39615 40104 71522 84505 333 58004;EQDQ01  00002PRCP06
0198832360999992004030900004-12150-045000FM-12+044099999V0209999C000012200019N0200001N1+02361+02201101171ADDAA106000091GF102991001001999999001031KA1240M+03111MA1999999096281MD1999999-0011REMSYN088AAXX  09004 83236 32998 20000 10236 20220 39628 40117 80003 333 10311 29084 55095 59001;EQDQ01  00002PRCP06
0186832360999992004030912004-12150-045000FM-12+044099999V0209999C000010450019N0200001N1+02501+02171101511ADDAA106000091GF106991041021008001051071KA1240N+02071MA1999999096601MD1999999+0091REMSYN076AAXX  09124 83236 32598 60000 10250 20217 39660 40151 84257 333 20207 58009;EQDQ01  00002PRCP06
0167832360999992004030918004-12150-045000FM-12+044099999V0203601N002611050019N0200001N1+02961+02261101061ADDAA106000091GF105991041021008001001051MA1999999096201MD1999999+0051REMSYN070AAXX  09184 83236 32598 53605 10296 20226 39620 40106 84205 333 58005;EQDQ01  00002PRCP06
0198832360999992004031000004-12150-045000FM-12+044099999V0209999C000011050019N0200001N1+02341+02151101241ADDAA106000091GF105991031021012501001071KA1240M+03121MA1999999096341MD1999999+0061REMSYN088AAXX  10004 83236 32698 50000 10234 20215 39634 40124 83207 333 10312 29082 55079 58006;EQDQ01  00002PRCP06
0186832360999992004031012004-12150-045000FM-12+044099999V0201401N001011050019N0200001N1+02511+02251101531ADDAA106000091GF106991041021008001001031KA1240N+02111MA1999999096611MD1999999+0011REMSYN076AAXX  10124 83236 32598 61402 10251 20225 39661 40153 84203 333 20211 58001;EQDQ01  00002PRCP06
0171832360999992004031018004-12150-045000FM-12+044099999V0200901N003110075019N0200001N1+02881+02181101171ADDAY151061AY251061GF107991061051008001071031MA1999999096281MD1999999+0081MW1151REMSYN082AAXX  10184 83236 21598 70906 10288 20218 39628 40117 71555 86573 333 58008 69911;
0212832360999992004031100004-12150-045000FM-12+044099999V0209999C000012200019N0200001N1+02281+02251101231ADDAY161061AY261061GA1001+999999999GF100991001001999999001001KA1240M+03051MA1999999096331MD1999999-0011MW1001REMSYN094AAXX  11004 83236 21998 00000 10228 20225 39633 40123 70066 333 10305 29087 55072 59001 69921;
0162832360999992004031112004-12150-045000FM-12+044099999V0209999C000012200019N0200001N1+02461+02231101241ADDGF103991001001999999001071KA1240N+01951MA1999999096331MD1999999-0281REMSYN082AAXX  11124 83236 22998 30000 10246 20223 39633 40124 80007 333 20195 59028 69934;
0167832360999992004031118004-12150-045000FM-12+044099999V0200501N002111050019N0200001N1+03051+02151100801ADDAA106000091GF105991031021008001001071MA1999999095941MD1999999-0341REMSYN070AAXX  11184 83236 32598 50504 10305 20215 39594 40080 83207 333 59034;EQDQ01  00002PRCP06
0202832360999992004031200004-12150-045000FM-12+044099999V0201801N001510075019N0200001N1+02381+02311100921ADDAY161061AY261061GF108991071051008001041999KA1240M+03171MA1999999096031MD1999999-0301MW1151REMSYN100AAXX  12004 83236 21598 81803 10238 20231 39603 40092 71566 8754/ 333 10317 29084 55109 59030 60031;
0162832360999992004031212004-12150-045000FM-12+044099999V0200901N001012200019N0200001N1+02621+02311101001ADDGF103991021021012501001051KA1240N+02141MA1999999096221MD1999999-0111REMSYN082AAXX  12124 83236 22698 30902 10262 20231 39622 40100 82205 333 20214 59011 60034;
0167832360999992004031218004-12150-045000FM-12+044099999V0200501N002111050019N0200001N1+03121+02331100591ADDAA106000091GF105991041021012501001071MA1999999095761MD1999999-0191REMSYN070AAXX  12184 83236 32698 50504 10312 20233 39576 40059 84207 333 59019;EQDQ01  00002PRCP06
0198832360999992004031300004-12150-045000FM-12+044099999V0209999C000012200019N0200001N1+02581+02401100841ADDAA106000091GF104991031021012501001071KA1240M+03251MA1999999095991MD1999999-0041REMSYN088AAXX  13004 83236 32698 40000 10258 20240 39599 40084 83207 333 10325 29082 55105 59004;EQDQ01  00002PRCP06
0186832360999992004031312004-12150-045000FM-12+044099999V0209999C000010450019N0200001N1+02511+02231101101ADDAA106000091GF106991041021012501061071KA1240N+02041MA1999999096231MD1999999+0011REMSYN076AAXX  13124 83236 32698 60000 10251 20223 39623 40110 84267 333 20204 58001;EQDQ01  00002PRCP06
0167832360999992004031318004-12150-045000FM-12+044099999V0203601N003110450019N0200001N1+03121+02301100741ADDAA106000091GF106991041021012501061031MA1999999095901MD1999999+0151REMSYN070AAXX  13184 83236 32698 63606 10312 20230 39590 40074 84263 333 58015;EQDQ01  00002PRCP06
0198832360999992004031400004-12150-045000FM-12+044099999V0201801N001012200019N0200001N1+02401+02261101011ADDAA106000091GF103991031021012501001001KA1240M+03251MA1999999096131MD1999999+0141REMSYN088AAXX  14004 83236 32698 31802 10240 20226 39613 40101 83200 333 10325 29083 55103 58014;EQDQ01  00002PRCP06
0186832360999992004031412004-12150-045000FM-12+044099999V0200501N001010450019N0200001N1+02501+02311101291ADDAA106000091GF106991041041008001071051KA1240N+02171MA1999999096391MD1999999+0161REMSYN076AAXX  14124 83236 32598 60502 10250 20231 39639 40129 84475 333 20217 58016;EQDQ01  00002PRCP06
0195832360999992004031418004-12150-045000FM-12+044099999V0200901N002610450019N0200001N1+02961+02061100771ADDAA106000091AY121061AY221061GF106991041051008001081071MA1999999095921MD1999999+0021MW1151REMSYN076AAXX  14184 83236 31598 60905 10296 20206 39592 40077 71522 84587 333 58002;EQDQ01  00002PRCP06
0226832360999992004031500004-12150-045000FM-12+044099999V0209999C000012200019N0200001N1+02501+02321101011ADDAA106000091AY121061AY221061GF104991041051008001001001KA1240M+03231MA1999999096141MD1999999+0011MW1131REMSYN094AAXX  15004 83236 31598 40000 10250 20232 39614 40101 71322 84500 333 10323 29082 55087 58001;EQDQ01  00002PRCP06
0214832360999992004031512004-12150-045000FM-12+044099999V0200901N001010075019N0200001N1+02491+02271101151ADDAA106000091AY121061AY221061GF106991051051008001071051KA1240N+02111MA1999999096271MD1999999-0121MW1151REMSYN082AAXX  15124 83236 31598 60902 10249 20227 39627 40115 71522 85575 333 20211 59012;EQDQ01  00002PRCP06
0171832360999992004031518004-12150-045000FM-12+044099999V0209999C000010075019N0100001N1+02651+02411100791ADDAY151061AY251061GF108991061071008001051999MA1999999095911MD1999999-0011MW1031REMSYN082AAXX  15184 83236 21597 80000 10265 20241 39591 40079 70355 8675/ 333 59001 69931;
0226832360999992004031600004-12150-045000FM-12+044099999V0209999C000010450019N0200001N1+02341+02291101031ADDAA106000091AY121061AY221061GF106991041051008001071051KA1240M+02831MA1999999096141MD1999999+0001MW1131REMSYN094AAXX  16004 83236 31598 60000 10234 20229 39614 40103 71322 84575 333 10283 29092 55021 58000;EQDQ01  00002PRCP06
0190832360999992004031612004-12150-045000FM-12+044099999V0200501N001010450019N0200001N1+02371+02171101061ADDAY161061AY261061GF106991041021008001061051KA1240N+02071MA1999999096151MD1999999-0121MW1031REMSYN088AAXX  16124 83236 21598 60502 10237 20217 39615 40106 70366 84265 333 20207 59012 60164;
0171832360999992004031618004-12150-045000FM-12+044099999V0209999C000010075019N0100001N1+02341+02311100661ADDAY161061AY261061GF108991061051008001041999MA1999999095751MD1999999-0161MW1151REMSYN082AAXX  16184 83236 21597 80000 10234 20231 39575 40066 71566 8654/ 333 59016 60031;
0202832360999992004031700004-12150-045000FM-12+044099999V0209999C000010075019N0040001N1+02301+02281100881ADDAY151061AY251061GF108991071061008001021999KA1240M+02961MA1999999095981MD1999999-0161MW1151REMSYN100AAXX  17004 83236 21596 80000 10230 20228 39598 40088 71555 8762/ 333 10296 29096 55036 59016 69951;
0190832360999992004031712004-12150-045000FM-12+044099999V0200901N001010075019N0020001N1+02121+02091101231ADDAY161061AY261061GF108991051061008001999999KA1240N+02051MA1999999096281MD1999999+0131MW1611REMSYN088AAXX  17124 83236 21595 80902 10212 20209 39628 40123 76166 856// 333 20205 58013 60294;
0171832360999992004031718004-12150-045000FM-12+044099999V0209999C000010075019N0040001N1+02481+02251100701ADDAY161061AY251061GF108991071071008001051999MA1999999095801MD1999999+0051MW1031REMSYN082AAXX  17184 83236 21596 80000 10248 20225 39580 40070 70365 8775/ 333 58005 60071;
0198832360999992004031800004-12150-045000FM-12+044099999V0209999C000010120019N0040001N1+02321+02291100921ADDAA106000091GF108991061081008001041999KA1240M+02601MA1999999095991MD1999999+0011REMSYN088AAXX  18004 83236 32596 80000 10232 20229 39599 40092 8684/ 333 10260 29095 55000 58001;EQDQ01  00002PRCP06
0190832360999992004031812004-12150-045000FM-12+044099999V0209999C000010075019N0040001N1+02361+02311101081ADDAY121061AY221061GF108991061071008001041999KA1240N+02121MA1999999096171MD1999999-0111MW1101REMSYN088AAXX  18124 83236 21596 80000 10236 20231 39617 40108 71022 8674/ 333 20212 59011 60074;
0171832360999992004031818004-12150-045000FM-12+044099999V0200901N001010075019N0040001N1+02351+02271100661ADDAY161061AY261061GF108991071051008001021999MA1999999095751MD1999999-0051MW1151REMSYN082AAXX  18184 83236 21596 80902 10235 20227 39575 40066 71566 8752/ 333 59005 60181;
0202832360999992004031900004-12150-045000FM-12+044099999V0209999C000010075019N0040001N1+02331+02271101071ADDAY121061AY221061GF108991071061008001999999KA1240M+02941MA1999999096161MD1999999+0171MW1511REMSYN100AAXX  19004 83236 21596 80000 10233 20227 39616 40107 75122 876// 333 10294 29097 55022 58017 69911;
0190832360999992004031912004-12150-045000FM-12+044099999V0200501N001010075019N0040001N1+02311+99999101211ADDAY151061AY251061GF108991061071008001041999KA1240N+02121MA1999999096291MD1999999+0121MW1101REMSYN088AAXX  19124 83236 21596 80502 10231 2//// 39629 40121 71055 8674/ 333 20212 58012 60184;
0167832360999992004031918004-12150-045000FM-12+044099999V0200501N002610120019N0100001N1+02671+02291100651ADDAA106000091GF108991071081008001051999MA1999999095771MD1999999+0021REMSYN070AAXX  19184 83236 32597 80505 10267 20229 39577 40065 8785/ 333 58002;EQDQ01  00002PRCP06
0196832360999992004032000004-12150-045000FM-12+044099999V0200901N001510075019N0040001N1+02421+02281100971ADDAY121061AY221061GF108991061051008001041999KA1240M+02931MA1999999096071MD1999999-0091MW1131REMSYN094AAXX  20004 83236 21596 80903 10242 20228 39607 40097 71322 8654/ 333 10293 29090 55020 59009;
0190832360999992004032012004-12150-045000FM-12+044099999V0209999C000010120019N0040001N1+02371+02311101131ADDAY151061AY251061GF108991061081008001041999KA1240N+02211MA1999999096231MD1999999-0061MW1101REMSYN088AAXX  20124 83236 21596 80000 10237 20231 39623 40113 71055 8684/ 333 20221 59006 60044;
0171832360999992004032018004-12150-045000FM-12+044099999V0200501N007710075019N0040001N1+02471+02071100801ADDAY161061AY251061GF108991071061008001051999MA1999999095901MD1999999+0131MW1171REMSYN082AAXX  20184 83236 21596 80515 10247 20207 39590 40080 71765 8765/ 333 58013 60031;
0202832360999992004032100004-12150-045000FM-12+044099999V0200501N001510075019N0040001N1+02261+02051101051ADDAY151061AY251061GF108991061051008001071999KA1240M+02881MA1999999096141MD1999999+0071MW1131REMSYN100AAXX  21004 83236 21596 80503 10226 20205 39614 40105 71355 8657/ 333 10288 29088 55016 58007 69911;
0190832360999992004032112004-12150-045000FM-12+044099999V0209999C000010075019N0040001N1+02301+02231101071ADDAY161061AY251061GF108991071071008001051999KA1240N+02161MA1999999096151MD1999999-0081MW1101REMSYN088AAXX  21124 83236 21596 80000 10230 20223 39615 40107 71065 8775/ 333 20216 59008 60064;
0186832360999992004032212004-12150-045000FM-12+044099999V0209999C000010450019N0200001N1+02461+02321101011ADDAA106000091GF106991041021008001061071KA1240N+02201MA1999999096131MD1999999-0021REMSYN076AAXX  22124 83236 32598 60000 10246 20232 39613 40101 84267 333 20220 59002;EQDQ01  00002PRCP06
0167832360999992004032218004-12150-045000FM-12+044099999V0209999C000010150019N0040001N1+02681+02331100661ADDAA106000091GF108991061081012501041999MA1999999095801MD1999999+0051REMSYN070AAXX  22184 83236 32696 80000 10268 20233 39580 40066 8684/ 333 58005;EQDQ01  00002PRCP06
0226832360999992004032300004-12150-045000FM-12+044099999V0209999C000010075019N0040001N1+02441+02411100991ADDAA106000091AY121061AY221061GF108991061051008001041999KA1240M+02961MA1999999096111MD1999999+0081MW1131REMSYN094AAXX  23004 83236 31596 80000 10244 20241 39611 40099 71322 8654/ 333 10296 29092 55019 58008;EQDQ01  00002PRCP06
0190832360999992004032312004-12150-045000FM-12+044099999V0201401N001510075019N0020001N1+02121+02091101281ADDAY161061AY261061GF108991071061008001041999KA1240N+02061MA1999999096351MD1999999+0221MW1511REMSYN088AAXX  23124 83236 21595 81403 10212 20209 39635 40128 75166 8764/ 333 20206 58022 60074;
0171832360999992004032318004-12150-045000FM-12+044099999V0200501N002110450019N0200001N1+02521+02331100821ADDAY151061AY251061GF106991041051008001071051MA1999999095931MD1999999+0131MW1171REMSYN082AAXX  23184 83236 21598 60504 10252 20233 39593 40082 71755 84575 333 58013 69951;
0226832360999992004032400004-12150-045000FM-12+044099999V0200501N002610075019N0040001N1+02361+02281101171ADDAA106000091AY121061AY221061GF108991061051008001041999KA1240M+02801MA1999999096241MD1999999+0131MW1131REMSYN094AAXX  24004 83236 31596 80505 10236 20228 39624 40117 71322 8654/ 333 10280 29094 55021 58013;EQDQ01  00002PRCP06
0190832360999992004032412004-12150-045000FM-12+044099999V0209999C000010450019N0040001N1+02271+02181101341ADDAY151061AY251061GF108991041051008001021999KA1240N+02091MA1999999096411MD1999999+0061MW1021REMSYN088AAXX  24124 83236 21596 80000 10227 20218 39641 40134 70255 8452/ 333 20209 58006 60044;
0214832360999992004032512004-12150-045000FM-12+044099999V0209999C000010450019N0040001N1+02391+02261101211ADDAA106000091AY121061AY221061GF108991031051008001021999KA1240N+02241MA1999999096301MD1999999-0111MW1401REMSYN082AAXX  25124 83236 31596 80000 10239 20226 39630 40121 74022 8352/ 333 20224 59011;EQDQ01  00002PRCP06
0167832360999992004032518004-12150-045000FM-12+044099999V0203601N001011050019N0040001N1+02981+02251100701ADDAA106000091GF106991041021008001001021MA1999999095871MD1999999-0121REMSYN070AAXX  25184 83236 32596 63602 10298 20225 39587 40070 84202 333 59012;EQDQ01  00002PRCP06
0202832360999992004032600004-12150-045000FM-12+044099999V0203201N000510210019N0040001N1+02241+02171101121ADDAY151061AY251061GF108991081001022501021999KA1240M+03101MA1999999096201MD1999999+0061MW1021REMSYN100AAXX  26004 83236 21896 83201 10224 20217 39620 40112 70255 8802/ 333 10310 29088 55046 58006 69931;
0190832360999992004032612004-12150-045000FM-12+044099999V0200501N001010075019N0040001N1+02261+02121101281ADDAY151061AY251061GF108991051051008001021999KA1240N+02111MA1999999096241MD1999999+0041MW1021REMSYN088AAXX  26124 83236 21596 80502 10226 20212 39624 40128 70255 8552/ 333 20211 58004 60024;
0171832360999992004032618004-12150-045000FM-12+044099999V0201801N002110075019N0040001N1+02291+02261100921ADDAY161061AY261061GF108991051071008001021999MA1999999096011MD1999999+0141MW1511REMSYN082AAXX  26184 83236 21596 81804 10229 20226 39601 40092 75166 8572/ 333 58014 60201;
0202832360999992004032700004-12150-045000FM-12+044099999V0209999C000010450019N0040001N1+02181+02151101041ADDAY151061AY251061GF108991041051008001021999KA1240M+02911MA1999999096101MD1999999-0101MW1501REMSYN100AAXX  27004 83236 21596 80000 10218 20215 39610 40104 75055 8452/ 333 10291 29097 55023 59010 60031;
0190832360999992004032712004-12150-045000FM-12+044099999V0209999C000011050019N0100001N1+02381+02191101111ADDAY151061AY251061GF106991031001022501031051KA1240N+02041MA1999999096191MD1999999-0151MW1021REMSYN088AAXX  27124 83236 21897 60000 10238 20219 39619 40111 70255 83035 333 20204 59015 60234;
0167832360999992004032718004-12150-045000FM-12+044099999V0203601N001510450019N0100001N1+02821+02241100751ADDAA106000091GF107991021021008001031061MA1999999095891MD1999999-0121REMSYN070AAXX  27184 83236 32597 73603 10282 20224 39589 40075 82236 333 59012;EQDQ01  00002PRCP06
0198832360999992004032800004-12150-045000FM-12+044099999V0209999C000010450019N0100001N1+02471+02321100891ADDAA106000091GF107991041071008001021001KA1240M+02931MA1999999096001MD1999999-0101REMSYN088AAXX  28004 83236 32597 70000 10247 20232 39600 40089 84720 333 10293 29086 55060 59010;EQDQ01  00002PRCP06
0186832360999992004032812004-12150-045000FM-12+044099999V0209999C000010450019N0100001N1+02341+02111101191ADDAA106000091GF108991031071008001031051KA1240N+02211MA1999999096291MD1999999+0101REMSYN076AAXX  28124 83236 32597 80000 10234 20211 39629 40119 83735 333 20221 58010;EQDQ01  00002PRCP06
0167832360999992004032818004-12150-045000FM-12+044099999V0200901N002610450019N0100001N1+02801+02151100801ADDAA106000091GF106991031021008001061051MA1999999095951MD1999999+0061REMSYN070AAXX  28184 83236 32597 60905 10280 20215 39595 40080 83265 333 58006;EQDQ01  00002PRCP06
0198832360999992004032900004-12150-045000FM-12+044099999V0209999C000012200019N0100001N1+02361+02261101061ADDAA106000091GF104991041071008001001001KA1240M+02941MA1999999096151MD1999999+0151REMSYN088AAXX  29004 83236 32597 40000 10236 20226 39615 40106 84700 333 10294 29086 55048 58015;EQDQ01  00002PRCP06
0186832360999992004032912004-12150-045000FM-12+044099999V0202301N001010450019N0100001N1+02521+02271101331ADDAA106000091GF106991021021008001061001KA1240N+02141MA1999999096431MD1999999+0141REMSYN076AAXX  29124 83236 32597 62302 10252 20227 39643 40133 82260 333 20214 58014;EQDQ01  00002PRCP06
0167832360999992004032918004-12150-045000FM-12+044099999V0200501N002610450019N0100001N1+03011+02171100911ADDAA106000091GF105991031021008001061091MA1999999096061MD1999999+0111REMSYN070AAXX  29184 83236 32597 50505 10301 20217 39606 40091 83269 333 58011;EQDQ01  00002PRCP06
0226832360999992004033000004-12150-045000FM-12+044099999V0209999C000012200019N0100001N1+02481+02431101181ADDAA106000091AY101061AY221061GF103991021071008001041001KA1240M+03131MA1999999096301MD1999999+0151MW1131REMSYN094AAXX  30004 83236 31597 30000 10248 20243 39630 40118 71302 82740 333 10313 29085 55085 58015;EQDQ01  00002PRCP06
0186832360999992004033012004-12150-045000FM-12+044099999V0202701N001011050019N0100001N1+02521+02231101431ADDAA106000091GF106991021021008001061041KA1240N+02051MA1999999096541MD1999999+0111REMSYN076AAXX  30124 83236 32597 62702 10252 20223 39654 40143 82264 333 20205 58011;EQDQ01  00002PRCP06
0167832360999992004033018004-12150-045000FM-12+044099999V0202701N000510450019N0100001N1+03141+02241100911ADDAA106000091GF105991041031008001041001MA1999999096071MD1999999+0011REMSYN070AAXX  30184 83236 32597 52701 10314 20224 39607 40091 84340 333 58001;EQDQ01  00002PRCP06
0202832360999992004033100004-12150-045000FM-12+044099999V0203601N003610075019N0020001N1+02111+02021101301ADDAY161061AY261061GF108991061071008001021999KA1240M+03191MA1999999096371MD1999999+0071MW1971REMSYN100AAXX  31004 83236 21595 83607 10211 20202 39637 40130 79766 8672/ 333 10319 29083 55083 58007 60091;
0190832360999992004033112004-12150-045000FM-12+044099999V0209999C000010450019N0200001N1+02371+02291101441ADDAY161061AY251061GF105991031021012501061031KA1240N+02051MA1999999096491MD1999999-0051MW1021REMSYN088AAXX  31124 83236 21698 50000 10237 20229 39649 40144 70265 83263 333 20205 59005 60164;
0167832360999992004033118004-12150-045000FM-12+044099999V0200501N001510075019N0200001N1+02951+02291100951ADDAA106000091GF107991051021008001071051MA1999999096081MD1999999+0011REMSYN070AAXX  31184 83236 32598 70503 10295 20229 39608 40095 85275 333 58001;EQDQ01  00002PRCP06
0226832360999992004040100004-12150-045000FM-12+044099999V0209999C000010450019N0200001N1+02511+02381101181ADDAA106000091AY121061AY221061GF105991031051008001071061KA1240M+03091MA1999999096291MD1999999-0081MW1131REMSYN094AAXX  01004 83236 31598 50000 10251 20238 39629 40118 71322 83576 333 10309 29088 55091 59008;EQDQ01  00002PRCP06
0190832360999992004040112004-12150-045000FM-12+044099999V0201801N001010450019N0100001N1+02501+02131101391ADDAY151061AY251061GF105991031041008001031001KA1240N+02101MA1999999096501MD1999999+0011MW1021REMSYN088AAXX  01124 83236 21597 51802 10250 20213 39650 40139 70255 83430 333 20210 58001 69924;
0195832360999992004040118004-12150-045000FM-12+044099999V0203601N002611050019N0100001N1+02971+02261100871ADDAA106000091AY101061AY291061GF105991031031008001001031MA1999999096021MD1999999-0061MW1171REMSYN076AAXX  01184 83236 31597 53605 10297 20226 39602 40087 71709 83303 333 59006;EQDQ01  00002PRCP06
0183832360999992004040218004-12150-045000FM-12+044099999V0200501N002112200019N0200001N1+03061+02251100881ADDAA106000091GF104991999021008001001001MA1999999096021MD1999999+0001REMSYN070AAXX  02184 83236 32598 40504 10306 20225 39602 40088 83200 333 58000;EQDQ01+000032SCOTLCQ02  00002PRCP06
0198832360999992004040300004-12150-045000FM-12+044099999V0202701N000510120019N0100001N1+02421+02151101151ADDAA106000091GF106991061081008001001001KA1240M+03171MA1999999096251MD1999999-0121REMSYN088AAXX  03004 83236 32597 62701 10242 20215 39625 40115 86800 333 10317 29080 55105 59012;EQDQ01  00002PRCP06
0186832360999992004040512004-12150-045000FM-12+044099999V0209999C000012200019N0200001N1+02481+02071101381ADDAA106000091GF102991001001999999001081KA1240N+01941MA1999999096491MD1999999-0041REMSYN076AAXX  05124 83236 32998 20000 10248 20207 39649 40138 80008 333 20194 59004;EQDQ01  00002PRCP06
0167832360999992004040518004-12150-045000FM-12+044099999V0200501N002112200019N0200001N1+03101+02311100921ADDAA106000091GF102991021021008001001001MA1999999096071MD1999999+0031REMSYN070AAXX  05184 83236 32598 20504 10310 20231 39607 40092 82200 333 58003;EQDQ01  00002PRCP06
0186832360999992004040612004-12150-045000FM-12+044099999V0209999C000012200019N0200001N1+02481+02171101271ADDAA106000091GF104991001001999999001051KA1240N+01911MA1999999096371MD1999999-0121REMSYN076AAXX  06124 83236 32998 40000 10248 20217 39637 40127 80005 333 20191 59012;EQDQ01  00002PRCP06
0167832360999992004040618004-12150-045000FM-12+044099999V0203601N001511050019N0200001N1+03051+02151100791ADDAA106000091GF106991021021008001001051MA1999999095931MD1999999-0141REMSYN070AAXX  06184 83236 32598 63603 10305 20215 39593 40079 82205 333 59014;EQDQ01  00002PRCP06
0226832360999992004040700004-12150-045000FM-12+044099999V0209999C000011050019N0200001N1+02401+02281101051ADDAA106000091AY101061AY221061GF105991021071008001001051KA1240M+03171MA1999999096161MD1999999-0041MW1131REMSYN094AAXX  07004 83236 31598 50000 10240 20228 39616 40105 71302 82705 333 10317 29082 55105 59004;EQDQ01  00002PRCP06
0186832360999992004040712004-12150-045000FM-12+044099999V0209999C000010450019N0100001N1+02631+02251101201ADDAA106000091GF106991011011008001051001KA1240N+02091MA1999999096321MD1999999-0051REMSYN076AAXX  07124 83236 32597 60000 10263 20225 39632 40120 81150 333 20209 59005;EQDQ01  00002PRCP06
0167832360999992004040718004-12150-045000FM-12+044099999V0203601N002610450019N0100001N1+03061+02081100741ADDAA106000091GF106991021021008001041051MA1999999095901MD1999999-0031REMSYN070AAXX  07184 83236 32597 63605 10306 20208 39590 40074 82245 333 59003;EQDQ01  00002PRCP06
0226832360999992004040800004-12150-045000FM-12+044099999V0209999C000010075019N0100001N1+02561+02361101031ADDAA106000091AY121061AY221061GF108991051071008001021999KA1240M+03191MA1999999096171MD1999999+0011MW1131REMSYN094AAXX  08004 83236 31597 80000 10256 20236 39617 40103 71322 8572/ 333 10319 29082 55058 58001;EQDQ01  00002PRCP06
0186832360999992004040812004-12150-045000FM-12+044099999V0209999C000011050019N0100001N1+02631+02331101251ADDAA106000091GF105991021021008001031011KA1240N+02221MA1999999096381MD1999999+0061REMSYN076AAXX  08124 83236 32597 50000 10263 20233 39638 40125 82231 333 20222 58006;EQDQ01  00002PRCP06
0195832360999992004040818004-12150-045000FM-12+044099999V0202301N002110450019N0100001N1+02861+02191100881ADDAA106000091AY101061AY291061GF106991041091008001041001MA1999999096021MD1999999+0121MW1171REMSYN076AAXX  08184 83236 31597 62304 10286 20219 39602 40088 71709 84940 333 58012;EQDQ01  00002PRCP06
0198832360999992004040900004-12150-045000FM-12+044099999V0201801N001012200019N0100001N1+02381+02151101091ADDAA106000091GF103991031041008001001001KA1240M+03281MA1999999096211MD1999999+0041REMSYN088AAXX  09004 83236 32597 31802 10238 20215 39621 40109 83400 333 10328 29081 55064 58004;EQDQ01  00002PRCP06
0186832360999992004040912004-12150-045000FM-12+044099999V0200501N003112200019N0200001N1+02641+02201101311ADDAA106000091GF104991021021008001041001KA1240N+02181MA1999999096421MD1999999+0041REMSYN076AAXX  09124 83236 32598 40506 10264 20220 39642 40131 82240 333 20218 58004;EQDQ01  00002PRCP06
0167832360999992004040918004-12150-045000FM-12+044099999V0203601N002112200019N0200001N1+03091+02211100871ADDAA106000091GF105991021021008001001061MA1999999096021MD1999999+0001REMSYN070AAXX  09184 83236 32598 53604 10309 20221 39602 40087 82206 333 58000;EQDQ01  00002PRCP06
0226832360999992004041000004-12150-045000FM-12+044099999V0209999C000012200019N0200001N1+02481+02341101041ADDAA106000091AY121061AY221061GF104991041071008001001001KA1240M+03151MA1999999096171MD1999999-0041MW1131REMSYN094AAXX  10004 83236 31598 40000 10248 20234 39617 40104 71322 84700 333 10315 29080 55066 59004;EQDQ01  00002PRCP06
0186832360999992004041012004-12150-045000FM-12+044099999V0209999C000011050019N0100001N1+02461+02271101061ADDAA106000091GF105991031021008001001051KA1240N+02101MA1999999096171MD1999999-0251REMSYN076AAXX  10124 83236 32597 50000 10246 20227 39617 40106 83205 333 20210 59025;EQDQ01  00002PRCP06
0167832360999992004041018004-12150-045000FM-12+044099999V0200501N003111050019N0100001N1+03041+02121100481ADDAA106000091GF105991031021008001001051MA1999999095641MD1999999-0381REMSYN070AAXX  10184 83236 32597 50506 10304 20212 39564 40048 83205 333 59038;EQDQ01  00002PRCP06
0198832360999992004041100004-12150-045000FM-12+044099999V0201801N002110450019N0100001N1+02451+02091100781ADDAA106000091GF108991041071008001021999KA1240M+03201MA1999999095911MD1999999-0261REMSYN088AAXX  11004 83236 32597 81804 10245 20209 39591 40078 8472/ 333 10320 29077 55074 59026;EQDQ01  00002PRCP06
0190832360999992004041112004-12150-045000FM-12+044099999V0202301N001010450019N0100001N1+02321+02221100931ADDAY161061AY261061GF106991041041008001041001KA1240N+02181MA1999999096041MD1999999-0131MW1401REMSYN088AAXX  11124 83236 21597 62302 10232 20222 39604 40093 74066 84440 333 20218 59013 60044;
0167832360999992004041118004-12150-045000FM-12+044099999V0203601N003110450019N0100001N1+02931+02191100471ADDAA106000091GF107991021021008001061061MA1999999095631MD1999999-0011REMSYN070AAXX  11184 83236 32597 73606 10293 20219 39563 40047 82266 333 59001;EQDQ01  00002PRCP06
0198832360999992004041200004-12150-045000FM-12+044099999V0202301N000510450019N0100001N1+02461+02341100801ADDAA106000091GF106991041071008001021001KA1240M+03081MA1999999095921MD1999999+0011REMSYN088AAXX  12004 83236 32597 62301 10246 20234 39592 40080 84720 333 10308 29086 55056 58001;EQDQ01  00002PRCP06
0186832360999992004041212004-12150-045000FM-12+044099999V0202301N000512200019N0200001N1+02501+02251100971ADDAA106000091GF104991021021008001061001KA1240N+02101MA1999999096101MD1999999+0061REMSYN076AAXX  12124 83236 32598 42301 10250 20225 39610 40097 82260 333 20210 58006;EQDQ01  00002PRCP06
0167832360999992004041218004-12150-045000FM-12+044099999V0200501N003110450019N0100001N1+02961+02211100541ADDAA106000091GF107991031021008001021001MA1999999095701MD1999999+0071REMSYN070AAXX  12184 83236 32597 70506 10296 20221 39570 40054 83220 333 58007;EQDQ01  00002PRCP06
0198832360999992004041300004-12150-045000FM-12+044099999V0201801N001010450019N0100001N1+02501+02341100951ADDAA106000091GF105991021071008001011001KA1240M+03291MA1999999096081MD1999999+0161REMSYN088AAXX  13004 83236 32597 51802 10250 20234 39608 40095 82710 333 10329 29083 55062 58016;EQDQ01  00002PRCP06
0186832360999992004041312004-12150-045000FM-12+044099999V0209999C000010075019N0100001N1+02281+02131101361ADDAA106000091GF108991061071008001041999KA1240N+02191MA1999999096451MD1999999+0351REMSYN076AAXX  13124 83236 32597 80000 10228 20213 39645 40136 8674/ 333 20219 58035;EQDQ01  00002PRCP06
0167832360999992004041318004-12150-045000FM-12+044099999V0209999C000010075019N0100001N1+02841+02261100981ADDAA106000091GF108991071021008001071999MA1999999096121MD1999999+0421REMSYN070AAXX  13184 83236 32597 80000 10284 20226 39612 40098 8727/ 333 58042;EQDQ01  00002PRCP06
0198832360999992004041400004-12150-045000FM-12+044099999V0201801N001510075019N0100001N1+02461+02271101181ADDAA106000091GF108991061021008001081999KA1240M+02961MA1999999096271MD1999999+0191REMSYN088AAXX  14004 83236 32597 81803 10246 20227 39627 40118 8628/ 333 10296 29085 55002 58019;EQDQ01  00002PRCP06
0186832360999992004041412004-12150-045000FM-12+044099999V0209999C000011050019N0200001N1+02621+02371101251ADDAA106000091GF105991031021008001001031KA1240N+02171MA1999999096371MD1999999-0081REMSYN076AAXX  14124 83236 32598 50000 10262 20237 39637 40125 83203 333 20217 59008;EQDQ01  00002PRCP06
0195832360999992004041418004-12150-045000FM-12+044099999V0200501N001511050019N0200001N1+03031+02181100831ADDAA106000091AY121061AY221061GF106991041051008001001071MA1999999095981MD1999999-0141MW1151REMSYN076AAXX  14184 83236 31598 60503 10303 20218 39598 40083 71522 84507 333 59014;EQDQ01  00002PRCP06
0198832360999992004041500004-12150-045000FM-12+044099999V0209999C000012200019N0200001N1+02291+02051101141ADDAA106000091GF103991001001999999001071KA1240M+03191MA1999999096251MD1999999-0021REMSYN088AAXX  15004 83236 32998 30000 10229 20205 39625 40114 80007 333 10319 29080 55083 59002;EQDQ01  00002PRCP06
0186832360999992004041512004-12150-045000FM-12+044099999V0209999C000010450019N0200001N1+02481+02251101271ADDAA106000091GF106991041021012501051071KA1240N+02041MA1999999096351MD1999999-0021REMSYN076AAXX  15124 83236 32698 60000 10248 20225 39635 40127 84257 333 20204 59002;EQDQ01  00002PRCP06
0167832360999992004041518004-12150-045000FM-12+044099999V0203601N001510450019N0200001N1+02961+02281100801ADDAA106000091GF106991041041008001071051MA1999999095941MD1999999-0041REMSYN070AAXX  15184 83236 32598 63603 10296 20228 39594 40080 84475 333 59004;EQDQ01  00002PRCP06
0202832360999992004041600004-12150-045000FM-12+044099999V0209999C000010075019N0040001N1+02161+02111101171ADDAY161061AY251061GF108991061051008001041999KA1240M+03141MA1999999096251MD1999999+0001MW1131REMSYN100AAXX  16004 83236 21596 80000 10216 20211 39625 40117 71365 8654/ 333 10314 29087 55057 58000 60021;
0162832360999992004041612004-12150-045000FM-12+044099999V0209999C000010450019N0200001N1+02471+02191101391ADDGF105991031021008001051071KA1240N+02111MA1999999096451MD1999999+0101REMSYN082AAXX  16124 83236 22598 50000 10247 20219 39645 40139 83257 333 20211 58010 60024;
0171832360999992004041618004-12150-045000FM-12+044099999V0203601N002110450019N0200001N1+02961+02281100971ADDAY161061AY261061GF106991041021008001051051MA1999999096111MD1999999+0171MW1021REMSYN082AAXX  16184 83236 21598 63604 10296 20228 39611 40097 70266 84255 333 58017 60031;
0202832360999992004041700004-12150-045000FM-12+044099999V0202301N001011050019N0200001N1+02311+02201101241ADDAY161061AY261061GF105991031021008001001071KA1240M+03171MA1999999096341MD1999999+0091MW1021REMSYN100AAXX  17004 83236 21598 52302 10231 20220 39634 40124 70266 83207 333 10317 29085 55064 58009 60021;
0162832360999992004041712004-12150-045000FM-12+044099999V0209999C000011050019N0200001N1+02461+02191101511ADDGF105991021021008001051071KA1240N+02041MA1999999096591MD1999999+0141REMSYN082AAXX  17124 83236 22598 50000 10246 20219 39659 40151 82257 333 20204 58014 60044;
0167832360999992004041718004-12150-045000FM-12+044099999V0209999C000010450019N0200001N1+02721+02411101151ADDAA106000091GF106991031041008001071051MA1999999096251MD1999999+0141REMSYN070AAXX  17184 83236 32598 60000 10272 20241 39625 40115 83475 333 58014;EQDQ01  00002PRCP06
0198832360999992004041800004-12150-045000FM-12+044099999V0209999C000012200019N0200001N1+02291+02161101271ADDAA106000091GF102991021021999999001001KA1240M+03061MA1999999096351MD1999999+0011REMSYN088AAXX  18004 83236 32998 20000 10229 20216 39635 40127 82200 333 10306 29088 55064 58001;EQDQ01  00002PRCP06
0186832360999992004041812004-12150-045000FM-12+044099999V0209999C000012200019N0200001N1+02421+02071101531ADDAA106000091GF103991021021012501001031KA1240N+01971MA1999999096601MD1999999+0011REMSYN076AAXX  18124 83236 32698 30000 10242 20207 39660 40153 82203 333 20197 58001;EQDQ01  00002PRCP06
0195832360999992004041818004-12150-045000FM-12+044099999V0200501N002611050019N0200001N1+03001+02191101001ADDAA106000091AY101061AY231061GF106991041051008001001051MA1999999096131MD1999999-0121MW1151REMSYN076AAXX  18184 83236 31598 60505 10300 20219 39613 40100 71503 84505 333 59012;EQDQ01  00002PRCP06
0198832360999992004041900004-12150-045000FM-12+044099999V0202701N001512200019N0200001N1+02471+02251101211ADDAA106000091GF104991021021012501001041KA1240M+03211MA1999999096321MD1999999-0031REMSYN088AAXX  19004 83236 32698 42703 10247 20225 39632 40121 82204 333 10321 29080 55093 59003;EQDQ01  00002PRCP06
0186832360999992004041912004-12150-045000FM-12+044099999V0209999C000012200019N0200001N1+02501+02171101351ADDAA106000091GF103991021021012501001051KA1240N+02021MA1999999096461MD1999999-0141REMSYN076AAXX  19124 83236 32698 30000 10250 20217 39646 40135 82205 333 20202 59014;EQDQ01  00002PRCP06
0167832360999992004041918004-12150-045000FM-12+044099999V0200501N001512200019N0200001N1+03101+02151100881ADDAA106000091GF104991021021012501001031MA1999999096031MD1999999-0101REMSYN070AAXX  19184 83236 32698 40503 10310 20215 39603 40088 82203 333 59010;EQDQ01  00002PRCP06
0186832360999992004042012004-12150-045000FM-12+044099999V0209999C000012200019N0200001N1+02551+02271101261ADDAA106000091GF104991021021012501001051KA1240N+02151MA1999999096371MD1999999-0091REMSYN076AAXX  20124 83236 32698 40000 10255 20227 39637 40126 82205 333 20215 59009;EQDQ01  00002PRCP06
0195832360999992004042018004-12150-045000FM-12+044099999V0201801N001011050019N0200001N1+03011+02341100821ADDAA106000091AY121061AY221061GF105991041051008001001071MA1999999095961MD1999999-0071MW1171REMSYN076AAXX  20184 83236 31598 51802 10301 20234 39596 40082 71722 84507 333 59007;EQDQ01  00002PRCP06
0202832360999992004042100004-12150-045000FM-12+044099999V0209999C000012200019N0200001N1+02441+02321100981ADDAY161061AY261061GF102991021021012501001001KA1240M+03311MA1999999096111MD1999999-0051MW1021REMSYN100AAXX  21004 83236 21698 20000 10244 20232 39611 40098 70266 82200 333 10331 29085 55098 59005 60011;
0162832360999992004042112004-12150-045000FM-12+044099999V0203601N001512200019N0200001N1+02671+02181101271ADDGF102991001001999999001071KA1240N+02171MA1999999096391MD1999999+0021REMSYN082AAXX  21124 83236 22998 23603 10267 20218 39639 40127 80007 333 20217 58002 60014;
0171832360999992004042118004-12150-045000FM-12+044099999V0202701N001510450019N0100001N1+02691+02411100961ADDAY161061AY261061GF106991041051008001071051MA1999999096081MD1999999+0121MW1171REMSYN082AAXX  21184 83236 21597 62703 10269 20241 39608 40096 71766 84575 333 58012 60051;
0202832360999992004042200004-12150-045000FM-12+044099999V0209999C000012200019N0200001N1+02361+02221101131ADDAY161061AY251061GF103991031021008001001001KA1240M+03321MA1999999096251MD1999999+0141MW1021REMSYN100AAXX  22004 83236 21598 30000 10236 20222 39625 40113 70265 83200 333 10332 29086 55073 58014 60011;
0162832360999992004042212004-12150-045000FM-12+044099999V0201801N001511050019N0200001N1+02431+02071101361ADDGF105991021021012501001071KA1240N+01951MA1999999096451MD1999999+0061REMSYN082AAXX  22124 83236 22698 51803 10243 20207 39645 40136 82207 333 20195 58006 60064;
0167832360999992004042218004-12150-045000FM-12+044099999V0201401N002112200019N0200001N1+02091+02041100791ADDAA106000091GF104991021011008001001031MA1999999095941MD1999999-0141REMSYN070AAXX  22184 83236 32598 41404 10209 20204 39594 40079 82103 333 59014;EQDQ01  00002PRCP06
0208832360999992004042300004-12150-045000FM-12+044099999V0202301N001512200019N0200001N1+02251+01961101091ADDAA106000091GA1001+999999999GF100991001001999999001001KA1240M+03191MA1999999096181MD1999999-0071REMSYN082AAXX  23004 83236 32998 02303 10225 20196 39618 40109 333 10319 29076 55101 59007;EQDQ01  00002PRCP06
0186832360999992004042312004-12150-045000FM-12+044099999V0209999C000012200019N0200001N1+02441+02171101281ADDAA106000091GF104991021021012501001071KA1240N+01951MA1999999096361MD1999999-0091REMSYN076AAXX  23124 83236 32698 40000 10244 20217 39636 40128 82207 333 20195 59009;EQDQ01  00002PRCP06
0167832360999992004042318004-12150-045000FM-12+044099999V0203601N001012200019N0200001N1+03101+02201100751ADDAA106000091GF104991021021012501001031MA1999999095901MD1999999-0041REMSYN070AAXX  23184 83236 32698 43602 10310 20220 39590 40075 82203 333 59004;EQDQ01  00002PRCP06
0202832360999992004042400004-12150-045000FM-12+044099999V0209999C000010075019N0200001N1+02221+02151100921ADDAY151061AY251061GF105991051021008001061001KA1240M+03251MA1999999096001MD1999999-0181MW1021REMSYN100AAXX  24004 83236 21598 50000 10222 20215 39600 40092 70255 85260 333 10325 29084 55104 59018 69911;
0162832360999992004042412004-12150-045000FM-12+044099999V0202301N001012200019N0200001N1+02431+02171101051ADDGF103991021021012501001051KA1240N+01941MA1999999096141MD1999999-0221REMSYN082AAXX  24124 83236 22698 32302 10243 20217 39614 40105 82205 333 20194 59022 69914;
0077832360999992004042418004-12150-045000FM-12+044099999V02099999999999999999N9999999N1+99999+99999999999REMSYN068AAXX  24184 83236 598 50903 10304 20199 39579 40065 83207 333 59011;
0208832360999992004042500004-12150-045000FM-12+044099999V0209999C000012200019N0200001N1+02301+02141100881ADDAA106000091GA1001+999999999GF100991001001999999001001KA1240M+03191MA1999999095981MD1999999-0021REMSYN082AAXX  25004 83236 32998 00000 10230 20214 39598 40088 333 10319 29080 55100 59002;EQDQ01  00002PRCP06
0186832360999992004042512004-12150-045000FM-12+044099999V0209999C000012200019N0200001N1+02271+01991101241ADDAA106000091GF104991021011012501061051KA1240N+01841MA1999999096321MD1999999+0181REMSYN076AAXX  25124 83236 32698 40000 10227 20199 39632 40124 82165 333 20184 58018;EQDQ01  00002PRCP06
0167832360999992004042518004-12150-045000FM-12+044099999V0200501N001512200019N0200001N1+03141+02041100801ADDAA106000091GF103991031011012501051001MA1999999095941MD1999999+0151REMSYN070AAXX  25184 83236 32698 30503 10314 20204 39594 40080 83150 333 58015;EQDQ01  00002PRCP06
0198832360999992004042600004-12150-045000FM-12+044099999V0209999C000012200019N0200001N1+02301+02141101081ADDAA106000091GF102991021011012501001001KA1240M+03341MA1999999096161MD1999999+0181REMSYN088AAXX  26004 83236 32698 20000 10230 20214 39616 40108 82100 333 10334 29080 55105 58018;EQDQ01  00002PRCP06
0186832360999992004042612004-12150-045000FM-12+044099999V0201401N001010450019N0200001N1+02501+02211101261ADDAA106000091GF105991031021012501061031KA1240N+01891MA1999999096351MD1999999+0031REMSYN076AAXX  26124 83236 32698 51402 10250 20221 39635 40126 83263 333 20189 58003;EQDQ01  00002PRCP06
0167832360999992004042618004-12150-045000FM-12+044099999V0209999C000010450019N0200001N1+03171+02171100861ADDAA106000091GF106991031021008001051071MA1999999096001MD1999999+0061REMSYN070AAXX  26184 83236 32598 60000 10317 20217 39600 40086 83257 333 58006;EQDQ01  00002PRCP06
0198832360999992004042700004-12150-045000FM-12+044099999V0201801N001010075019N0100001N1+02481+02231101151ADDAA106000091GF108991061021008001061999KA1240M+03371MA1999999096271MD1999999+0111REMSYN088AAXX  27004 83236 32597 81802 10248 20223 39627 40115 8626/ 333 10337 29078 55082 58011;EQDQ01  00002PRCP06
0186832360999992004042712004-12150-045000FM-12+044099999V0209999C000012200019N0200001N1+02461+02091101401ADDAA106000091GF103991001001999999001031KA1240N+02011MA1999999096501MD1999999+0151REMSYN076AAXX  27124 83236 32998 30000 10246 20209 39650 40140 80003 333 20201 58015;EQDQ01  00002PRCP06
0167832360999992004042718004-12150-045000FM-12+044099999V0200501N001512200019N0200001N1+03121+01951100961ADDAA106000091GF104991031021008001001051MA1999999096111MD1999999+0111REMSYN070AAXX  27184 83236 32598 40503 10312 20195 39611 40096 83205 333 58011;EQDQ01  00002PRCP06
0198832360999992004042800004-12150-045000FM-12+044099999V0201801N001510075019N0200001N1+02411+02131101331ADDAA106000091GF105991051021008001001001KA1240M+03341MA1999999096431MD1999999+0161REMSYN088AAXX  28004 83236 32598 51803 10241 20213 39643 40133 85200 333 10334 29075 55104 58016;EQDQ01  00002PRCP06
0186832360999992004042812004-12150-045000FM-12+044099999V0200901N000512200019N0200001N1+02651+02101101511ADDAA106000091GF105991031021008001001041KA1240N+02091MA1999999096621MD1999999-0121REMSYN076AAXX  28124 83236 32598 50901 10265 20210 39662 40151 83204 333 20209 59012;EQDQ01  00002PRCP06
0171832360999992004042818004-12150-045000FM-12+044099999V0202701N000512200019N0200001N1+02971+02211101061ADDAY161061AY261061GF105991041021008001001011MA1999999096191MD1999999+0011MW1021REMSYN082AAXX  28184 83236 21598 52701 10297 20221 39619 40106 70266 84201 333 58001 60091;
0226832360999992004042900004-12150-045000FM-12+044099999V0202701N001012200019N0200001N1+02311+02071101301ADDAA106000091AY101061AY221061GF103991021071008001041001KA1240M+03031MA1999999096411MD1999999-0021MW1131REMSYN094AAXX  29004 83236 31598 32702 10231 20207 39641 40130 71302 82740 333 10303 29078 55070 59002;EQDQ01  00002PRCP06
0162832360999992004042912004-12150-045000FM-12+044099999V0201401N001510450019N0100001N1+02421+01951101611ADDGF106991011011008001051001KA1240N+02211MA1999999096631MD1999999+0011REMSYN082AAXX  29124 83236 22597 61403 10242 20195 39663 40161 81150 333 20221 58001 60094;
0167832360999992004042918004-12150-045000FM-12+044099999V0200501N002610075019N0100001N1+02851+01901101021ADDAA106000091GF106991051091008001041001MA1999999096151MD1999999-0041REMSYN070AAXX  29184 83236 32597 60505 10285 20190 39615 40102 85940 333 59004;EQDQ01  00002PRCP06
0208832360999992004043000004-12150-045000FM-12+044099999V0202701N001512200019N0200001N1+02251+01981101311ADDAA106000091GA1001+999999999GF100991001001999999001001KA1240M+02971MA1999999096391MD1999999-0021REMSYN082AAXX  30004 83236 32998 02703 10225 20198 39639 40131 333 10297 29075 55043 59002;EQDQ01  00002PRCP06
0186832360999992004043012004-12150-045000FM-12+044099999V0201801N001512200019N0200001N1+02361+01801101471ADDAA106000091GF102991021001022501041001KA1240N+01871MA1999999096531MD1999999-0101REMSYN076AAXX  30124 83236 32898 21803 10236 20180 39653 40147 82040 333 20187 59010;EQDQ01  00002PRCP06
0167832360999992004043018004-12150-045000FM-12+044099999V0201801N001512200019N0200001N1+03071+01701100841ADDAA106000091GF104991041021008001001001MA1999999095991MD1999999-0161REMSYN070AAXX  30184 83236 32598 41803 10307 20170 39599 40084 84200 333 59016;EQDQ01  00002PRCP06
0198832360999992004050100004-12150-045000FM-12+044099999V0209999C000012200019N0200001N1+02201+01971101111ADDAA106000091GF102991001001999999001041KA1240M+03151MA1999999096191MD1999999-0201REMSYN088AAXX  01004 83236 32998 20000 10220 20197 39619 40111 80004 333 10315 29072 55098 59020;EQDQ01  00002PRCP06
0196832360999992004050112004-12150-045000FM-12+044099999V0209999C025712200019N0200001N1+02531+01911101251ADDAA106000091GA1001+999999999GF100991001001999999001001KA1240N+01881MA1999999096341MD1999999-0191REMSYN070AAXX  01124 83236 32998 00050 10253 20191 39634 40125 333 20188 59019;EQDQ01  00002PRCP06
0167832360999992004050118004-12150-045000FM-12+044099999V0200501N003112200019N0200001N1+03131+01731100621ADDAA106000091GF103991031011008001001001MA1999999095821MD1999999-0171REMSYN070AAXX  01184 83236 32598 30506 10313 20173 39582 40062 83100 333 59017;EQDQ01  00002PRCP06
0208832360999992004050200004-12150-045000FM-12+044099999V0209999C000012200019N0200001N1+02281+02131101031ADDAA106000091GA1001+999999999GF100991001001999999001001KA1240M+03171MA1999999096141MD1999999-0051REMSYN082AAXX  02004 83236 32998 00000 10228 20213 39614 40103 333 10317 29074 55104 59005;EQDQ01  00002PRCP06
0186832360999992004050212004-12150-045000FM-12+044099999V0209999C000012200019N0200001N1+02631+01981101371ADDAA106000091GF101991011011008001001001KA1240N+01921MA1999999096471MD1999999+0131REMSYN076AAXX  02124 83236 32598 10000 10263 20198 39647 40137 81100 333 20192 58013;EQDQ01  00002PRCP06
0167832360999992004050218004-12150-045000FM-12+044099999V0200901N004112200019N0200001N1+03081+01751100911ADDAA106000091GF104991041021008001001001MA1999999096051MD1999999+0231REMSYN070AAXX  02184 83236 32598 40908 10308 20175 39605 40091 84200 333 58023;EQDQ01  00002PRCP06
0208832360999992004050300004-12150-045000FM-12+044099999V0202301N001012200019N0200001N1+02351+02171101151ADDAA106000091GA1001+999999999GF100991001001999999001001KA1240M+03311MA1999999096271MD1999999+0131REMSYN082AAXX  03004 83236 32998 02302 10235 20217 39627 40115 333 10331 29073 55099 58013;EQDQ01  00002PRCP06
0186832360999992004050312004-12150-045000FM-12+044099999V0201401N000512200019N0200001N1+02611+01961101391ADDAA106000091GF102991021011008001001001KA1240N+02061MA1999999096501MD1999999+0031REMSYN076AAXX  03124 83236 32598 21401 10261 20196 39650 40139 82100 333 20206 58003;EQDQ01  00002PRCP06
0167832360999992004050318004-12150-045000FM-12+044099999V0200901N004612200019N0200001N1+03111+01841100991ADDAA106000091GF104991041021008001001001MA1999999096131MD1999999+0081REMSYN070AAXX  03184 83236 32598 40909 10311 20184 39613 40099 84200 333 58008;EQDQ01  00002PRCP06
0208832360999992004050400004-12150-045000FM-12+044099999V0201801N000512200019N0200001N1+02251+01921101191ADDAA106000091GA1001+999999999GF100991001001999999001001KA1240M+03181MA1999999096301MD1999999+0031REMSYN082AAXX  04004 83236 32998 01801 10225 20192 39630 40119 333 10318 29070 55106 58003;EQDQ01  00002PRCP06
0186832360999992004050412004-12150-045000FM-12+044099999V0202301N001012200019N0200001N1+02371+01761101581ADDAA106000091GF103991031001022501061001KA1240N+01721MA1999999096641MD1999999+0141REMSYN076AAXX  04124 83236 32898 32302 10237 20176 39664 40158 83060 333 20172 58014;EQDQ01  00002PRCP06
0198832360999992004050500004-12150-045000FM-12+044099999V0202701N002110120019N0200001N1+02371+01971101231ADDAA106000091GF107991071081008001001001KA1240M+03191MA1999999096321MD1999999+0021REMSYN088AAXX  05004 83236 32598 72704 10237 20197 39632 40123 87800 333 10319 29069 55091 58002;EQDQ01  00002PRCP06
0202832360999992004050512004-12150-045000FM-12+044099999V0201801N005112200019N0200001N1+02561+01901101481ADDAA106000091GF104991999001999999041001KA1240N+02061MA1999999096571MD1999999-0071REMSYN076AAXX  05124 83236 32998 41810 10256 20190 39657 40148 80040 333 20206 59007;EQDQ01+000002SCOTLCQ02  00002PRCP06
0167832360999992004050518004-12150-045000FM-12+044099999V0201801N002112200019N0200001N1+03051+01711100941ADDAA106000091GF105991031021008001001041MA1999999096091MD1999999-0031REMSYN070AAXX  05184 83236 32598 51804 10305 20171 39609 40094 83204 333 59003;EQDQ01  00002PRCP06
