0208832880999992004010100004-13267-043417FM-12+0458SBLP V0201401N001512200019N0020001N1+02991+02191100671ADDAA106000091GA1001+999999999GF100991001001999999001001KA1240M+03631MA1999999095891MD1999999-0401REMSYN082AAXX  01004 83288 32995 01403 10299 20219 39589 40067 333 10363 29058 55119 59040;EQDQ01  00002PRCP06
0186832880999992004010112004-13267-043417FM-12+0458SBLP V0203601N001012200019N0200001N1+02951+02301100991ADDAA106000091GF103991001001999999001081KA1240N+02201MA1999999096211MD1999999-0031REMSYN076AAXX  01124 83288 32998 33602 10295 20230 39621 40099 80008 333 20220 59003;EQDQ01  00002PRCP06
0167832880999992004010118004-13267-043417FM-12+0458SBLP V0202701N001511050019N0200001N1+03541+02401100461ADDAA106000091GF106991041011008001001081MA1999999095701MD1999999+0011REMSYN070AAXX  01184 83288 32598 62703 10354 20240 39570 40046 84108 333 58001;EQDQ01  00002PRCP06
0198832880999992004010200004-13267-043417FM-12+0458SBLP V0200901N001012200019N0020001N1+02811+02281100651ADDAA106000091GF104991021011008001031001KA1240M+03651MA1999999095861MD1999999-0031REMSYN088AAXX  02004 83288 32595 40902 10281 20228 39586 40065 82130 333 10365 29064 55117 59003;EQDQ01  00002PRCP06
0190832880999992004010212004-13267-043417FM-12+0458SBLP V0202301N001010450019N0020001N1+02721+02221101081ADDAY151061AY251061GF106991041051008001021001KA1240N+02401MA1999999096241MD1999999+0031MW1021REMSYN088AAXX  02124 83288 21595 62302 10272 20222 39624 40108 70255 84520 333 20240 58003 69984;
0167832880999992004010218004-13267-043417FM-12+0458SBLP V0202701N001510450019N0200001N1+03361+02141100501ADDAA106000091GF106991041081008001021021MA1999999095701MD1999999+0001REMSYN070AAXX  02184 83288 32598 62703 10336 20214 39570 40050 84822 333 58000;EQDQ01  00002PRCP06
0198832880999992004010300004-13267-043417FM-12+0458SBLP V0202301N001010120019N0020001N1+03071+01931100451ADDAA106000091GF108991061081008001021999KA1240M+03441MA1999999095891MD1999999+0031REMSYN088AAXX  03004 83288 32595 82302 10307 20193 39589 40045 8682/ 333 10344 29058 55064 58003;EQDQ01  00002PRCP06
0190832880999992004010312004-13267-043417FM-12+0458SBLP V0209999C000011050019N0200001N1+02331+02221101131ADDAY161061AY261061GF108991041051004501001071KA1240N+01991MA1999999096281MD1999999+0041MW1021REMSYN088AAXX  03124 83288 21498 80000 10233 20222 39628 40113 70266 84507 333 20199 58004 60524;
0167832880999992004010318004-13267-043417FM-12+0458SBLP V0202301N001519999999N0200001N1+02911+02251100671ADDAA106000091GF106991001001999999001091MA1999999095801MD1999999+0101REMSYN070AAXX  03184 83288 32998 62303 10291 20225 39580 40067 80009 333 58010;EQDQ01  00002PRCP06
0186832880999992004010412004-13267-043417FM-12+0458SBLP V0202301N000512200019N0200001N1+02691+02401101031ADDAA106000091GF104991041021008001001001KA1240N+02201MA1999999096171MD1999999-0111REMSYN076AAXX  04124 83288 32598 42301 10269 20240 39617 40103 84200 333 20220 59011;EQDQ01  00002PRCP06
0198832880999992004010500004-13267-043417FM-12+0458SBLP V0201801N000510120019N0020001N1+02771+02411100751ADDAA106000091GF105991051081008001001001KA1240M+03231MA1999999095921MD1999999+0011REMSYN088AAXX  05004 83288 32595 51801 10277 20241 39592 40075 85800 333 10323 29079 55093 58001;EQDQ01  00002PRCP06
0186832880999992004010512004-13267-043417FM-12+0458SBLP V0201401N000512200019N0200001N1+02821+02171100971ADDAA106000091GF103991031011008001001041KA1240N+02091MA1999999096151MD1999999-0021REMSYN076AAXX  05124 83288 32598 31401 10282 20217 39615 40097 83104 333 20209 59002;EQDQ01  00002PRCP06
0167832880999992004010518004-13267-043417FM-12+0458SBLP V0202701N000511050019N0200001N1+03321+02101100741ADDAA106000091GF105991031021008001001021MA1999999095961MD1999999+0221REMSYN070AAXX  05184 83288 32598 52701 10332 20210 39596 40074 83202 333 58022;EQDQ01  00002PRCP06
0198832880999992004010600004-13267-043417FM-12+0458SBLP V0201801N000512200019N0020001N1+02931+01801100601ADDAA106000091GF104991031011008001001021KA1240M+03431MA1999999095811MD1999999-0111REMSYN088AAXX  06004 83288 32595 41801 10293 20180 39581 40060 83102 333 10343 29056 55107 59011;EQDQ01  00002PRCP06
0196832880999992004010612004-13267-043417FM-12+0458SBLP V0200501N001512200019N0200001N1+02791+01931101811ADDAA106000091GA1001+999999999GF100991001001999999001001KA1240N+02091MA1999999096191MD1999999+0041REMSYN070AAXX  06124 83288 32998 00503 10279 20193 39619 40181 333 20209 58004;EQDQ01  00002PRCP06
0183832880999992004010618004-13267-043417FM-12+0458SBLP V0202301N001512200019N0200001N1+03341+01981100622ADDAA106000091GF104991031021008001001021MA1999999095821MD1999999-0141REMSYN070AAXX  06184 83288 32598 42303 10334 20198 39582 40062 83202 333 59014;EQDQ01+100623APOSLPQ02  00002PRCP06
0198832880999992004010700004-13267-043417FM-12+0458SBLP V0201801N001519999999N0020001N1+02871+01871100021ADDAA106000091GF105991001001999999001021KA1240M+03431MA1999999100712MD1999999+0101REMSYN088AAXX  07004 83288 32995 51803 10287 20187 30071 40002 80002 333 10343 29054 55116 58010;EQDQ01  00002PRCP06
0167832880999992004010718004-13267-043417FM-12+0458SBLP V0202701N001012200019N0200001N1+03501+02401100621ADDAA106000091GF103991031021008001001001MA1999999095851MD1999999+0031REMSYN070AAXX  07184 83288 32598 32702 10350 20240 39585 40062 83200 333 58003;EQDQ01  00002PRCP06
0198832880999992004010800004-13267-043417FM-12+0458SBLP V0201801N001012200019N0020001N1+02711+02161100701ADDAA106000091GF103991031021008001001001KA1240M+03551MA1999999095901MD1999999-0011REMSYN088AAXX  08004 83288 32595 31802 10271 20216 39590 40070 83200 333 10355 29061 55088 59001;EQDQ01  00002PRCP06
0186832880999992004010812004-13267-043417FM-12+0458SBLP V0202301N001010450019N0200001N1+02741+01971101091ADDAA106000091GF105991041011008001031021KA1240N+02151MA1999999096241MD1999999+0391REMSYN076AAXX  08124 83288 32598 52302 10274 20197 39624 40109 84132 333 20215 58039;EQDQ01  00002PRCP06
0167832880999992004010818004-13267-043417FM-12+0458SBLP V0202301N000510450019N0200001N1+03201+01821100611ADDAA106000091GF106991031021008001021021MA1999999095791MD1999999-0051REMSYN070AAXX  08184 83288 32598 62301 10320 20182 39579 40061 83222 333 59005;EQDQ01  00002PRCP06
0208832880999992004010900004-13267-043417FM-12+0458SBLP V0201401N001512200019N0020001N1+02841+01851100711ADDAA106000091GA1001+999999999GF100991001001999999001001KA1240M+03281MA1999999095911MD1999999+0011REMSYN082AAXX  09004 83288 32595 01403 10284 20185 39591 40071 333 10328 29054 55061 58001;EQDQ01  00002PRCP06
0186832880999992004010912004-13267-043417FM-12+0458SBLP V0203601N001512200019N0200001N1+02761+02021100831ADDAA106000091GF102991001001999999001091KA1240N+02091MA1999999096021MD1999999-0221REMSYN076AAXX  09124 83288 32998 23603 10276 20202 39602 40083 80009 333 20209 59022;EQDQ01  00002PRCP06
0167832880999992004010918004-13267-043417FM-12+0458SBLP V0203201N002610450019N0200001N1+03471+02091100321ADDAA106000091GF106991041081008001071021MA1999999095551MD1999999-0241REMSYN070AAXX  09184 83288 32598 63205 10347 20209 39555 40032 84872 333 59024;EQDQ01  00002PRCP06
0198832880999992004011000004-13267-043417FM-12+0458SBLP V0201401N001510450019N0020001N1+02771+02121100721ADDAA106000091GF108991041081008001071021KA1240M+03541MA1999999095901MD1999999+0011REMSYN088AAXX  10004 83288 32595 81403 10277 20212 39590 40072 84872 333 10354 29061 55090 58001;EQDQ01  00002PRCP06
0176832880999992004011012004-13267-043417FM-12+0458SBLP V0200901N001010450019N0200001N1+02251+02201101021ADDAY161061GF108991031051008001021999KA1240N+02121MA1999999096141MD1999999+0121MW1031REMSYN082AAXX  10124 83288 21598 80902 10225 20220 39614 40102 7036/ 8352/ 333 20212 58012;
0167832880999992004011018004-13267-043417FM-12+0458SBLP V0203601N002110075019N0200001N1+02531+02341100721ADDAA106000091GF108991061051008001011999MA1999999095831MD1999999+0281REMSYN070AAXX  10184 83288 32598 83604 10253 20234 39583 40072 8651/ 333 58028;EQDQ01  00002PRCP06
0190832880999992004011112004-13267-043417FM-12+0458SBLP V0200901N001010450019N0200001N1+02511+02231101331ADDAY161061AY261061GF108991041051008001021999KA1240N+02131MA1999999096431MD1999999+0221MW1031REMSYN088AAXX  11124 83288 21598 80902 10251 20223 39643 40133 70366 8452/ 333 20213 58022 60014;
0167832880999992004011118004-13267-043417FM-12+0458SBLP V0203601N001510450019N0200001N1+03031+02241100791ADDAA106000091GF106991041081008001021001MA1999999095951MD1999999+0021REMSYN070AAXX  11184 83288 32598 63603 10303 20224 39595 40079 84820 333 58002;EQDQ01  00002PRCP06
0120832880999992004011212004-13267-043417FM-12+0458SBLP V0203601N002119999999N0200001N1+02361+02221999999ADDGF108991999999004501999999REMSYN082AAXX  12124 83288 22498 83604 10236 20222 29628 40117 85527 333 20213 58010 69984;
0215832880999992004011300004-13267-043417FM-12+0458SBLP V0200901N001510450019N0020001N1+02271+02141101021ADDAY161061AY261061GF108991031051004501021071KA1240M+02831MA1999999096091MD1999999-0091REMSYN100AAXX  13004 83288 21495 80903 10227 20214 39609 40102 75666 83527 333 10283 29091 55004 59009 60051;EQDQ01+000562PRSWM1
0190832880999992004011312004-13267-043417FM-12+0458SBLP V0203601N001010075019N0200001N1+02491+02351101041ADDAY151061AY251061GF107991051051008001031001KA1240N+02101MA1999999096141MD1999999-0141MW1031REMSYN088AAXX  13124 83288 21598 73602 10249 20235 39614 40104 70355 85530 333 20210 59014 60054;
0167832880999992004011318004-13267-043417FM-12+0458SBLP V0202701N001010450019N0200001N1+02751+02511100641ADDAA106000091GF106991031021008001071001MA1999999095771MD1999999-0191REMSYN070AAXX  13184 83288 32598 62702 10275 20251 39577 40064 83270 333 59019;EQDQ01  00002PRCP06
0202832880999992004011400004-13267-043417FM-12+0458SBLP V0200501N001510450019N0020001N1+02271+02191101001ADDAY161061AY261061GF108991041071008001021999KA1240M+02951MA1999999096101MD1999999+0011MW1031REMSYN100AAXX  14004 83288 21595 80503 10227 20219 39610 40100 70366 8472/ 333 10295 29091 55026 58001 60031;
0190832880999992004011412004-13267-043417FM-12+0458SBLP V0203601N001010075019N0200001N1+02651+02141101011ADDAY161061AY261061GF108991061051008001021999KA1240N+02091MA1999999096121MD1999999+0021MW1031REMSYN088AAXX  14124 83288 21598 83602 10265 20214 39612 40101 70366 8652/ 333 20209 58002 60034;
0167832880999992004011418004-13267-043417FM-12+0458SBLP V0200501N001010450019N0200001N1+02931+02321100631ADDAA106000091GF106991041051008001021001MA1999999095781MD1999999+0011REMSYN070AAXX  14184 83288 32598 60502 10293 20232 39578 40063 84520 333 58001;EQDQ01  00002PRCP06
0215832880999992004011500004-13267-043417FM-12+0458SBLP V0201401N001010075019N0020001N1+02351+02201100661ADDAY161061AY261061GF108991061051008001021999KA1240M+02941MA1999999095791MD1999999-0311REMSYN100AAXX  15004 83288 21595 81402 10235 20220 39579 40066 75666 8652/ 333 10294 29079 55024 59031 60101;EQDQ01+000562PRSWM1
0190832880999992004011512004-13267-043417FM-12+0458SBLP V0203601N002610042019N0200001N1+02471+02321100931ADDAY161061AY261061GF108991071041004501001091KA1240N+02061MA1999999096031MD1999999-0091MW1021REMSYN088AAXX  15124 83288 21498 83605 10247 20232 39603 40093 70266 87409 333 20206 59009 60184;
0184832880999992004011518004-13267-043417FM-12+0458SBLP V0203601N001510042019N0200001N1+02291+02231100581ADDAY161061AY261061GF108991051021004501001071MA1999999095691MD1999999-0091REMSYN082AAXX  15184 83288 21498 83603 10229 20223 39569 40058 76766 85207 333 59009 60131;EQDQ01+000672PRSWM1
0198832880999992004011600004-13267-043417FM-12+0458SBLP V0200501N001512200019N0020001N1+02391+02291100681ADDAA106000091GF103991031001012501071001KA1240M+02751MA1999999095801MD1999999+0011REMSYN088AAXX  16004 83288 32695 30503 10239 20229 39580 40068 83070 333 10275 29095 55006 58001;EQDQ01  00002PRCP06
0190832880999992004011612004-13267-043417FM-12+0458SBLP V0203601N000510450019N0200001N1+02371+02281100941ADDAY161061AY261061GF108991041071008001021999KA1240N+02041MA1999999096041MD1999999+0011MW1031REMSYN088AAXX  16124 83288 21598 83601 10237 20228 39604 40094 70366 8472/ 333 20204 58001 60214;
0171832880999992004011618004-13267-043417FM-12+0458SBLP V0203201N002110075019N0200001N1+02431+02381100531ADDAY161061AY291061GF108991051051008001011999MA1999999095651MD1999999-0041MW1031REMSYN082AAXX  16184 83288 21598 83204 10243 20238 39565 40053 70369 8551/ 333 59004 60021;
0202832880999992004011700004-13267-043417FM-12+0458SBLP V0203601N001510450019N0020001N1+02131+02081101071ADDAY161061AY261061GF108991031071008001021999KA1240M+02871MA1999999096131MD1999999+0631MW1611REMSYN100AAXX  17004 83288 21595 83603 10213 20208 39613 40107 76166 8372/ 333 10287 29096 55014 58063 60201;
0190832880999992004011712004-13267-043417FM-12+0458SBLP V0203601N001010075019N0200001N1+02391+02241100731ADDAY161061AY261061GF106991051051008001021001KA1240N+02031MA1999999095821MD1999999-0221MW1031REMSYN088AAXX  17124 83288 21598 63602 10239 20224 39582 40073 70366 85520 333 20203 59022 60254;
0167832880999992004011718004-13267-043417FM-12+0458SBLP V0203201N001510450019N0200001N1+02971+02351100491ADDAA106000091GF105991041021008001021041MA1999999095581MD1999999-0071REMSYN070AAXX  17184 83288 32598 53203 10297 20235 39558 40049 84224 333 59007;EQDQ01  00002PRCP06
0190832880999992004011912004-13267-043417FM-12+0458SBLP V0203601N001510450019N0200001N1+02151+02101101131ADDAY161061AY261061GF108991041071008001011999KA1240N+02021MA1999999096181MD1999999+0081MW1531REMSYN088AAXX  19124 83288 21598 83603 10215 20210 39618 40113 75366 8471/ 333 20202 58008 60364;
0171832880999992004011918004-13267-043417FM-12+0458SBLP V0201801N000510450019N0200001N1+02531+02431100711ADDAY161061AY261061GF106991031051008001031001MA1999999095821MD1999999+0021MW1021REMSYN082AAXX  19184 83288 21598 61801 10253 20243 39582 40071 70266 83530 333 58002 60091;
0202832880999992004012000004-13267-043417FM-12+0458SBLP V0201801N001010075019N0020001N1+02331+02201100931ADDAY161061AY261061GF108991061051008001021001KA1240M+02621MA1999999096011MD1999999-0131MW1031REMSYN100AAXX  20004 83288 21595 81802 10233 20220 39601 40093 70366 86520 333 10262 29095 55000 59013 60011;
0190832880999992004012012004-13267-043417FM-12+0458SBLP V0200901N000510075019N0200001N1+02351+02241101151ADDAY161061AY261061GF108991051051008001021999KA1240N+02051MA1999999096231MD1999999+0051MW1531REMSYN088AAXX  20124 83288 21598 80901 10235 20224 39623 40115 75366 8552/ 333 20205 58005 60134;
0148832880999992004012018004-13267-043417FM-12+0458SBLP V0202701N000510450019N0200001N1+02621+02211100781ADDAA106000021GF106991031051008001021001MA1999999095901MD1999999+0081REMSYN070AAXX  20184 83288 32598 62701 10262 20221 39590 40078 83520 333 58008;
0198832880999992004012100004-13267-043417FM-12+0458SBLP V0201401N000512200019N0020001N1+02431+02191100681ADDAA106000091GF103991021021008001021001KA1240M+02661MA1999999095791MD1999999-0021REMSYN088AAXX  21004 83288 32595 31401 10243 20219 39579 40068 82220 333 10266 29086 55000 59002;EQDQ01  00002PRCP06
0190832880999992004012112004-13267-043417FM-12+0458SBLP V0209999C000010450019N0200001N1+02411+02301101031ADDAY161061AY261061GF108991041051004501021071KA1240N+02051MA1999999096131MD1999999-0101MW1021REMSYN088AAXX  21124 83288 21498 80000 10241 20230 39613 40103 70266 84527 333 20205 59010 60394;
0167832880999992004012118004-13267-043417FM-12+0458SBLP V0203201N001510450019N0200001N1+02551+02331100721ADDAA106000091GF107991011051012501021021MA1999999095831MD1999999-0071REMSYN070AAXX  21184 83288 32698 73203 10255 20233 39583 40072 81522 333 59007;EQDQ01  00002PRCP06
0198832880999992004012200004-13267-043417FM-12+0458SBLP V0200501N001512200019N0020001N1+02361+02281100781ADDAA106000091GF101991001001999999001021KA1240M+02771MA1999999095891MD1999999+0101REMSYN088AAXX  22004 83288 32995 10503 10236 20228 39589 40078 80002 333 10277 29093 55007 58010;EQDQ01  00002PRCP06
0202832880999992004012300004-13267-043417FM-12+0458SBLP V0203601N000510450019N0020001N1+02531+02471100781ADDAY151061AY251061GF108991041051008001021999KA1240M+02851MA1999999095911MD1999999+0021MW1031REMSYN100AAXX  23004 83288 21595 83601 10253 20247 39591 40078 70355 8452/ 333 10285 29092 55014 58002 69921;
0182832880999992004012309004-13267-043417FM-15+0458SBLP V0209999C000010039019N0080001N1+02201+02101999999ADDGA1071+003909999GA2071+030009999GF107991999999999999999999MA1101081999999MW1611REMMET056SBLP 230900Z 00000KT 8000 -RA BKN013 BKN100 22/21 Q1011;EQDQ01+000003PRSWM1Q02    003PRSWM1
0182832880999992004012310004-13267-043417FM-15+0458SBLP V0200601N002610045019N0112651N1+02201+02201999999ADDGA1071+004509999GA2071+030009999GF107991999999999999999999MA1101191999999MW1611REMMET056SBLP 231000Z 06005KT 9999 -RA BKN015 BKN100 22/22 Q1012;EQDQ01+000003PRSWM1Q02    003PRSWM1
0190832880999992004012312004-13267-043417FM-12+0458SBLP V0201401N001510075019N0200001N1+02251+02121101041ADDAY161061AY261061GF108991061031008001021999KA1240N+02051MA1999999096141MD1999999+0101MW1031REMSYN088AAXX  23124 83288 21598 81403 10225 20212 39614 40104 70366 8632/ 333 20205 58010 60374;
0171832880999992004012318004-13267-043417FM-12+0458SBLP V0203201N001010450019N0200001N1+02641+02251100781ADDAY151061AY231061GF106991041051008001021001MA1999999095891MD1999999+0281MW1031REMSYN082AAXX  23184 83288 21598 63202 10264 20225 39589 40078 70353 84520 333 58028 69981;
0198832880999992004012400004-13267-043417FM-12+0458SBLP V0203601N000510075019N0020001N1+02351+02221100991ADDAA106000091GF108991061051008001021001KA1240M+02701MA1999999096081MD1999999+0171REMSYN088AAXX  24004 83288 32595 83601 10235 20222 39608 40099 86520 333 10270 29093 55003 58017;EQDQ01  00002PRCP06
0162832880999992004012412004-13267-043417FM-12+0458SBLP V0203601N001510042019N0020001N1+02491+02391101101ADDGF108991061051004501001091KA1240N+02051MA1999999096191MD1999999+0051REMSYN082AAXX  24124 83288 22495 83603 10249 20239 39619 40110 86509 333 20205 58005 69984;
0167832880999992004012418004-13267-043417FM-12+0458SBLP V0203201N003110450019N0200001N1+02491+02231100891ADDAA106000091GF107991011051004501021021MA1999999095981MD1999999-0091REMSYN070AAXX  24184 83288 32498 73206 10249 20223 39598 40089 81522 333 59009;EQDQ01  00002PRCP06
0186832880999992004012512004-13267-043417FM-12+0458SBLP V0203601N001010450019N0200001N1+02451+02311101171ADDAA106000091GF107991041021008001071001KA1240N+02101MA1999999096261MD1999999+0071REMSYN076AAXX  25124 83288 32598 73602 10245 20231 39626 40117 84270 333 20210 58007;EQDQ01  00002PRCP06
0167832880999992004012518004-13267-043417FM-12+0458SBLP V0203601N001010450019N0200001N1+03131+02681100691ADDAA106000091GF105991031021008001031051MA1999999095851MD1999999-0131REMSYN070AAXX  25184 83288 32598 53602 10313 20268 39585 40069 83235 333 59013;EQDQ01  00002PRCP06
0198832880999992004012600004-13267-043417FM-12+0458SBLP V0203601N001512200019N0020001N1+02531+02341100961ADDAA106000091GF103991021021008001031001KA1240M+03171MA1999999096081MD1999999-0051REMSYN088AAXX  26004 83288 32595 33603 10253 20234 39608 40096 82230 333 10317 29087 55081 59005;EQDQ01  00002PRCP06
0186832880999992004012612004-13267-043417FM-12+0458SBLP V0200901N000510450019N0200001N1+02331+02181101101ADDAA106000091GF106991041031008001021001KA1240N+02041MA1999999096201MD1999999-0061REMSYN076AAXX  26124 83288 32598 60901 10233 20218 39620 40110 84320 333 20204 59006;EQDQ01  00002PRCP06
0167832880999992004012618004-13267-043417FM-12+0458SBLP V0203601N001011050019N0200001N1+03051+02201100691ADDAA106000091GF105991041021008001001021MA1999999095841MD1999999-0011REMSYN070AAXX  26184 83288 32598 53602 10305 20220 39584 40069 84202 333 59001;EQDQ01  00002PRCP06
0198832880999992004012700004-13267-043417FM-12+0458SBLP V0201801N000510450019N0020001N1+02721+02341100691ADDAA106000091GF106991041011008001021001KA1240M+03121MA1999999095821MD1999999-0261REMSYN088AAXX  27004 83288 32595 61801 10272 20234 39582 40069 84120 333 10312 29080 55075 59026;EQDQ01  00002PRCP06
0168832880999992004012712004-13267-043417FM-12+0458SBLP V0209999C000011050019N0200001N1+02481+02291101141ADDGF108991031001017501071021KA1240N+02091MA1999999096271MD1999999+0071REMSYN088AAXX  27124 83288 21798 80000 10248 20229 39627 40114 7//// 83072 333 20209 58007 60064;
0167832880999992004012718004-13267-043417FM-12+0458SBLP V0203201N001511050019N0200001N1+02911+02301100761ADDAA106000091GF108991031081008001001021MA1999999095921MD1999999+0081REMSYN070AAXX  27184 83288 32598 83203 10291 20230 39592 40076 83802 333 58008;EQDQ01  00002PRCP06
0218832880999992004012800004-13267-043417FM-12+0458SBLP V0200501N001011050019N0020001N1+02651+02441100981ADDAA106000091AY121061GF107991041041004501001081KA1240M+02961MA1999999096111MD1999999+0291MW1131REMSYN094AAXX  28004 83288 31495 70502 10265 20244 39611 40098 7132/ 84408 333 10296 29084 55013 58029;EQDQ01  00002PRCP06
0186832880999992004012812004-13267-043417FM-12+0458SBLP V0200901N001510450019N0200001N1+02511+02301101251ADDAA106000091GF108991031011008001021999KA1240N+02061MA1999999096371MD1999999+0101REMSYN076AAXX  28124 83288 32598 80903 10251 20230 39637 40125 8312/ 333 20206 58010;EQDQ01  00002PRCP06
0167832880999992004012818004-13267-043417FM-12+0458SBLP V0203601N001010450019N0200001N1+02951+02481100941ADDAA106000091GF108991031021008001021011MA1999999096081MD1999999+0161REMSYN070AAXX  28184 83288 32598 83602 10295 20248 39608 40094 83221 333 58016;EQDQ01  00002PRCP06
0198832880999992004012900004-13267-043417FM-12+0458SBLP V0201801N000512200019N0020001N1+02591+02391100971ADDAA106000091GF104991021011008001031001KA1240M+03011MA1999999096101MD1999999-0011REMSYN088AAXX  29004 83288 32595 41801 10259 20239 39610 40097 82130 333 10301 29084 55004 59001;EQDQ01  00002PRCP06
0186832880999992004012912004-13267-043417FM-12+0458SBLP V0200901N001012200019N0200001N1+02651+01901101251ADDAA106000091GF104991031011008001001041KA1240N+02041MA1999999096371MD1999999+0001REMSYN076AAXX  29124 83288 32598 40902 10265 20190 39637 40125 83104 333 20204 58000;EQDQ01  00002PRCP06
0167832880999992004012918004-13267-043417FM-12+0458SBLP V0203601N004111050019N0200001N1+03051+01971101031ADDAA106000091GF106991021021008001001021MA1999999096211MD1999999+0131REMSYN070AAXX  29184 83288 32598 63608 10305 20197 39621 40103 82202 333 58013;EQDQ01  00002PRCP06
0186832880999992004013012004-13267-043417FM-12+0458SBLP V0200901N001512200019N0200001N1+02711+02011101201ADDAA106000091GF101991001001999999001021KA1240N+01991MA1999999096331MD1999999-0041REMSYN076AAXX  30124 83288 32998 10903 10271 20201 39633 40120 80002 333 20199 59004;EQDQ01  00002PRCP06
0183832880999992004013018004-13267-043417FM-12+0458SBLP V0203201N001512200019N0200001N1+03111+02201100781ADDAA106000091GF103991999001008001001001MA1999999095941MD1999999-0271REMSYN070AAXX  30184 83288 32598 33203 10311 20220 39594 40078 82000 333 59027;EQDQ01+000022SCOTLCQ02  00002PRCP06
0198832880999992004013100004-13267-043417FM-12+0458SBLP V0201401N001010150019N0020001N1+02631+01811100941ADDAA106000091GF107991071001017501071001KA1240M+03251MA1999999096091MD1999999+0011REMSYN088AAXX  31004 83288 32795 71402 10263 20181 39609 40094 87070 333 10325 29069 55110 58001;EQDQ01  00002PRCP06
0190832880999992004013112004-13267-043417FM-12+0458SBLP V0201801N001010120019N0200001N1+02391+02251101361ADDAY161061AY261061GF108991051081008001011999KA1240N+02021MA1999999096461MD1999999+0131MW1031REMSYN088AAXX  31124 83288 21598 81802 10239 20225 39646 40136 70366 8581/ 333 20202 58013 60024;
0167832880999992004013118004-13267-043417FM-12+0458SBLP V0203601N000510450019N0200001N1+02781+02091101031ADDAA106000091GF106991031051008001011021MA1999999096151MD1999999+0171REMSYN070AAXX  31184 83288 32598 63601 10278 20209 39615 40103 83512 333 58017;EQDQ01  00002PRCP06
0186832880999992004020112004-13267-043417FM-12+0458SBLP V0200901N001012200019N0200001N1+02671+02221101431ADDAA106000091GF103991021011008001001021KA1240N+02001MA1999999096541MD1999999+0081REMSYN076AAXX  01124 83288 32598 30902 10267 20222 39654 40143 82102 333 20200 58008;EQDQ01  00002PRCP06
0167832880999992004020118004-13267-043417FM-12+0458SBLP V0203201N000510450019N0200001N1+03091+02291101041ADDAA106000091GF105991031021008001031021MA1999999096181MD1999999+0031REMSYN070AAXX  01184 83288 32598 53201 10309 20229 39618 40104 83232 333 58003;EQDQ01  00002PRCP06
0202832880999992004020200004-13267-043417FM-12+0458SBLP V0203601N001010120019N0020001N1+02331+02171101181ADDAY161061AY261061GF108991081081008001999999KA1240M+03151MA1999999096291MD1999999-0051MW1021REMSYN100AAXX  02004 83288 21595 83602 10233 20217 39629 40118 70266 888// 333 10315 29080 55083 59005 60111;
0162832880999992004020212004-13267-043417FM-12+0458SBLP V0200901N000510450019N0020001N1+02581+02111101121ADDGF106991041051008001021021KA1240N+02101MA1999999096271MD1999999-0271REMSYN082AAXX  02124 83288 22595 60901 10258 20211 39627 40112 84522 333 20210 59027 60114;
0171832880999992004020218004-13267-043417FM-12+0458SBLP V0200901N001510075019N0200001N1+02841+02241100911ADDAY161061AY261061GF108991061051008001051999MA1999999096041MD1999999-0041MW1021REMSYN082AAXX  02184 83288 21598 80903 10284 20224 39604 40091 70266 8655/ 333 59004 60011;
0202832880999992004020300004-13267-043417FM-12+0458SBLP V0201801N000510075019N0020001N1+02171+02041101061ADDAY161061AY251061GF108991061051008001021999KA1240M+02891MA1999999096041MD1999999-0251MW1031REMSYN100AAXX  03004 83288 21595 81801 10217 20204 39604 40106 70365 8652/ 333 10289 29082 55023 59025 60081;
0190832880999992004020312004-13267-043417FM-12+0458SBLP V0201801N001010450019N0200001N1+02381+02281101221ADDAY161061AY261061GF106991041081008001031001KA1240N+02001MA1999999096281MD1999999+0011MW1021REMSYN088AAXX  03124 83288 21598 61802 10238 20228 39628 40122 70266 84830 333 20200 58001 60104;
0137832880999992004020318004-13267-043417FM-12+0458SBLP V0200901N000519999999N0200001N1+02851+99999999999ADDAA106000091GF105991999999008001999999REMSYN069AAXX  03184 83288 32598 50901 10285 2023 39598 40086 83230 333 59006;EQDQ01  00002PRCP06
0198832880999992004020400004-13267-043417FM-12+0458SBLP V0201801N000510120019N0020001N1+02411+02261101071ADDAA106000091GF108991051081008001031999KA1240M+02931MA1999999096161MD1999999+0011REMSYN088AAXX  04004 83288 32595 81801 10241 20226 39616 40107 8583/ 333 10293 29088 55022 58001;EQDQ01  00002PRCP06
0186832880999992004020412004-13267-043417FM-12+0458SBLP V0203601N000510450019N0200001N1+02591+02291101351ADDAA106000091GF106991041011008001031001KA1240N+02041MA1999999096451MD1999999+0171REMSYN076AAXX  04124 83288 32598 63601 10259 20229 39645 40135 84130 333 20204 58017;EQDQ01  00002PRCP06
0171832880999992004020418004-13267-043417FM-12+0458SBLP V0202301N001510120019N0200001N1+02851+02391100911ADDAY151061AY251061GF106991061081008001001001MA1999999096051MD1999999+0071MW1021REMSYN082AAXX  04184 83288 21598 62303 10285 20239 39605 40091 70255 86800 333 58007 69981;
0198832880999992004020500004-13267-043417FM-12+0458SBLP V0209999C000012200019N0020001N1+02491+02291100941ADDAA106000091GF101991011011008001001001KA1240M+02951MA1999999096051MD1999999-0111REMSYN088AAXX  05004 83288 32595 10000 10249 20229 39605 40094 81100 333 10295 29082 55045 59011;EQDQ01  00002PRCP06
0162832880999992004020512004-13267-043417FM-12+0458SBLP V0201401N000512200019N0200001N1+02711+02061101151ADDGF102991011011008001021021KA1240N+01981MA1999999096281MD1999999-0171REMSYN082AAXX  05124 83288 22598 21401 10271 20206 39628 40115 81122 333 20198 59017 69984;
0167832880999992004020518004-13267-043417FM-12+0458SBLP V0202301N001510450019N0200001N1+03151+01841100771ADDAA106000091GF105991041081008001021001MA1999999095941MD1999999-0111REMSYN070AAXX  05184 83288 32598 52303 10315 20184 39594 40077 84820 333 59011;EQDQ01  00002PRCP06
0214832880999992004020600004-13267-043417FM-12+0458SBLP V0200901N001019999999N0020001N1+02651+02231100531ADDAA106000091GF105991999011008001001001KA1240M+03181MA1999999095711MD1999999-0341REMSYN088AAXX  06004 83288 32595 50902 10265 20223 39571 40053 84100 333 10318 29064 55117 59034;EQDQ01+000042SCOTLCQ02  00002PRCP06
0186832880999992004020612004-13267-043417FM-12+0458SBLP V0203601N001512200019N0200001N1+02651+02341100991ADDAA106000091GF101991011011008001001001KA1240N+02101MA1999999096141MD1999999-0141REMSYN076AAXX  06124 83288 32598 13603 10265 20234 39614 40099 81100 333 20210 59014;EQDQ01  00002PRCP06
0167832880999992004020618004-13267-043417FM-12+0458SBLP V0203601N001012200019N0200001N1+03181+02611100531ADDAA106000091GF103991021011008001001051MA1999999095721MD1999999-0221REMSYN070AAXX  06184 83288 32598 33602 10318 20261 39572 40053 82105 333 59022;EQDQ01  00002PRCP06
0198832880999992004020700004-13267-043417FM-12+0458SBLP V0203601N001012200019N0020001N1+02691+02361100651ADDAA106000091GF103991011011008001031021KA1240M+03291MA1999999095821MD1999999+0111REMSYN088AAXX  07004 83288 32595 33602 10269 20236 39582 40065 81132 333 10329 29079 55114 58011;EQDQ01  00002PRCP06
0186832880999992004020712004-13267-043417FM-12+0458SBLP V0203601N001512200019N0200001N1+02631+02371100961ADDAA106000091GF103991031011008001001001KA1240N+02101MA1999999096111MD1999999-0031REMSYN076AAXX  07124 83288 32598 33603 10263 20237 39611 40096 83100 333 20210 59003;EQDQ01  00002PRCP06
0167832880999992004020718004-13267-043417FM-12+0458SBLP V0203201N001012200019N0200001N1+03131+02431100511ADDAA106000091GF102991021011008001001021MA1999999095711MD1999999-0011REMSYN070AAXX  07184 83288 32598 23202 10313 20243 39571 40051 82102 333 59001;EQDQ01  00002PRCP06
0186832880999992004020812004-13267-043417FM-12+0458SBLP V0200901N000510450019N0200001N1+02421+02231101181ADDAA106000091GF106991041051008001051001KA1240N+02031MA1999999096281MD1999999+0171REMSYN076AAXX  08124 83288 32598 60901 10242 20223 39628 40118 84550 333 20203 58017;EQDQ01  00002PRCP06
0167832880999992004020818004-13267-043417FM-12+0458SBLP V0202701N004110450019N0200001N1+02851+02331100891ADDAA106000091GF105991031051008001021001MA1999999096051MD1999999+0341REMSYN070AAXX  08184 83288 32598 52708 10285 20233 39605 40089 83520 333 58034;EQDQ01  00002PRCP06
0202832880999992004020900004-13267-043417FM-12+0458SBLP V0200501N000510450019N0020001N1+02251+02191101091ADDAY161061AY261061GF105991041051008001021001KA1240M+02951MA1999999096171MD1999999+0231MW1031REMSYN100AAXX  09004 83288 21595 50501 10225 20219 39617 40109 70366 84520 333 10295 29087 55014 58023 60051;
0190832880999992004020912004-13267-043417FM-12+0458SBLP V0202701N000510120019N0200001N1+02391+02291101351ADDAY161061AY261061GF108991051081008001011999KA1240N+02101MA1999999096411MD1999999+0131MW1031REMSYN088AAXX  09124 83288 21598 82701 10239 20229 39641 40135 70366 8581/ 333 20210 58013 60064;
0167832880999992004020918004-13267-043417FM-12+0458SBLP V0203601N001010450019N0200001N1+02691+02401101001ADDAA106000091GF108991041081008001011999MA1999999096091MD1999999+0041REMSYN070AAXX  09184 83288 32598 83602 10269 20240 39609 40100 8481/ 333 58004;EQDQ01  00002PRCP06
0198832880999992004021000004-13267-043417FM-12+0458SBLP V0203601N001010450019N0020001N1+02311+02211101231ADDAA106000091GF108991041051008001021999KA1240M+02751MA1999999096311MD1999999+0141REMSYN088AAXX  10004 83288 32595 83602 10231 20221 39631 40123 8452/ 333 10275 29091 55000 58014;EQDQ01  00002PRCP06
0209832880999992004021012004-13267-043417FM-12+0458SBLP V0209999C000010075019N9999999N1+02211+02171101371ADDAY161061AY261061GF108991081051008001999999KA1240N+02001MA1999999096421MD1999999+0011MW1651REMSYN088AAXX  10124 83288 21598 80000 10221 20217 39642 40137 76566 885// 333 20200 58001 60304;EQDQ01+200002VODIS 
0171832880999992004021018004-13267-043417FM-12+0458SBLP V0201801N001010450019N0200001N1+02311+02271101111ADDAY161061AY261061GF107991031081008001021999MA1999999097161MD1999999+0071MW1021REMSYN082AAXX  10184 83288 21598 71802 10231 20227 39716 40111 70266 8382/ 333 58007 60451;
0208832880999992004021100004-13267-043417FM-12+0458SBLP V0202301N000512200019N0020001N1+02231+02201101261ADDAA106000091GA1001+999999999GF100991001001999999001001KA1240M+02551MA1999999096301MD1999999+0011REMSYN082AAXX  11004 83288 32995 02301 10223 20220 39630 40126 333 10255 29098 55000 58001;EQDQ01  00002PRCP06
0162832880999992004021112004-13267-043417FM-12+0458SBLP V0201401N000511050019N0200001N1+02391+02211101361ADDGF105991031051008001001021KA1240N+01861MA1999999096421MD1999999+0001REMSYN082AAXX  11124 83288 22598 51401 10239 20221 39642 40136 83502 333 20186 58000 60454;
0167832880999992004021118004-13267-043417FM-12+0458SBLP V0201401N002610450019N0200001N1+03081+01881100961ADDAA106000091GF106991041021008001031021MA1999999096101MD1999999-0061REMSYN070AAXX  11184 83288 32598 61405 10308 20188 39610 40096 84232 333 59006;EQDQ01  00002PRCP06
0198832880999992004021200004-13267-043417FM-12+0458SBLP V0201401N000512200019N0020001N1+02631+02161100941ADDAA106000091GF103991021021008001021001KA1240M+03151MA1999999096061MD1999999-0241REMSYN088AAXX  12004 83288 32595 31401 10263 20216 39606 40094 82220 333 10315 29072 55088 59024;EQDQ01  00002PRCP06
0186832880999992004021212004-13267-043417FM-12+0458SBLP V0201401N001012200019N0200001N1+02631+02321101271ADDAA106000091GF102991011011008001031001KA1240N+02061MA1999999096391MD1999999-0031REMSYN076AAXX  12124 83288 32598 21402 10263 20232 39639 40127 81130 333 20206 59003;EQDQ01  00002PRCP06
0167832880999992004021218004-13267-043417FM-12+0458SBLP V0202701N001512200019N0200001N1+03081+02601101131ADDAA106000091GF104991041021008001001001MA1999999096271MD1999999+0171REMSYN070AAXX  12184 83288 32598 42703 10308 20260 39627 40113 84200 333 58017;EQDQ01  00002PRCP06
0208832880999992004021300004-13267-043417FM-12+0458SBLP V0201801N001012200019N0020001N1+02551+02341101131ADDAA106000091GA1001+999999999GF100991001001999999001001KA1240M+03171MA1999999096261MD1999999+0201REMSYN082AAXX  13004 83288 32995 01802 10255 20234 39626 40113 333 10317 29082 55113 58020;EQDQ01  00002PRCP06
0186832880999992004021312004-13267-043417FM-12+0458SBLP V0201401N001512200019N0200001N1+02711+02151101461ADDAA106000091GF101991001001999999001011KA1240N+02141MA1999999096581MD1999999+0191REMSYN076AAXX  13124 83288 32998 11403 10271 20215 39658 40146 80001 333 20214 58019;EQDQ01  00002PRCP06
0167832880999992004021318004-13267-043417FM-12+0458SBLP V0201401N001012200019N0200001N1+03111+02141101011ADDAA106000091GF102991021021008001001001MA1999999096161MD1999999-0161REMSYN070AAXX  13184 83288 32598 21402 10311 20214 39616 40101 82200 333 59016;EQDQ01  00002PRCP06
0208832880999992004021400004-13267-043417FM-12+0458SBLP V0201401N001012200019N0020001N1+02551+02081101061ADDAA106000091GA1001+999999999GF100991001001999999001001KA1240M+03171MA1999999096201MD1999999-0061REMSYN082AAXX  14004 83288 32995 01402 10255 20208 39620 40106 333 10317 29069 55116 59006;EQDQ01  00002PRCP06
0186832880999992004021412004-13267-043417FM-12+0458SBLP V0201401N001012200019N0200001N1+02671+02071101271ADDAA106000091GF105991031011008001001041KA1240N+02161MA1999999096391MD1999999-0191REMSYN076AAXX  14124 83288 32598 51402 10267 20207 39639 40127 83104 333 20216 59019;EQDQ01  00002PRCP06
0214832880999992004021500004-13267-043417FM-12+0458SBLP V0202301N000512200019N0020001N1+02731+02121100541ADDAA106000091GF104991999011008001001001KA1240M+03191MA1999999095721MD1999999-0481REMSYN088AAXX  15004 83288 32595 42301 10273 20212 39572 40054 83100 333 10319 29067 55108 59048;EQDQ01+000032SCOTLCQ02  00002PRCP06
0186832880999992004021512004-13267-043417FM-12+0458SBLP V0203601N001012200019N0200001N1+02651+02211101151ADDAA106000091GF102991001001999999001051KA1240N+02221MA1999999096301MD1999999-0091REMSYN076AAXX  15124 83288 32998 23602 10265 20221 39630 40115 80005 333 20222 59009;EQDQ01  00002PRCP06
0167832880999992004021518004-13267-043417FM-12+0458SBLP V0203201N001512200019N0200001N1+03151+02581100921ADDAA106000091GF103991011011008001001041MA1999999096111MD1999999+0381REMSYN070AAXX  15184 83288 32598 33203 10315 20258 39611 40092 81104 333 58038;EQDQ01  00002PRCP06
0208832880999992004021600004-13267-043417FM-12+0458SBLP V0200901N001012200019N0020001N1+02611+02451100971ADDAA106000091GA1001+999999999GF100991001001999999001001KA1240M+03231MA1999999096111MD1999999+0391REMSYN082AAXX  16004 83288 32995 00902 10261 20245 39611 40097 333 10323 29080 55095 58039;EQDQ01  00002PRCP06
0186832880999992004021612004-13267-043417FM-12+0458SBLP V0201801N002112200019N0200001N1+02711+02171101221ADDAA106000091GF102991001001999999001051KA1240N+02201MA1999999096351MD1999999+0051REMSYN076AAXX  16124 83288 32998 21804 10271 20217 39635 40122 80005 333 20220 58005;EQDQ01  00002PRCP06
0167832880999992004021618004-13267-043417FM-12+0458SBLP V0203201N001512200019N0200001N1+03171+02221100711ADDAA106000091GF103991021021008001001021MA1999999095901MD1999999-0211REMSYN070AAXX  16184 83288 32598 33203 10317 20222 39590 40071 82202 333 59021;EQDQ01  00002PRCP06
0218832880999992004021700004-13267-043417FM-12+0458SBLP V0200501N003110450019N0020001N1+02321+02021101121ADDAA106000091AY121061GF108991041081008001021999KA1240M+03231MA1999999096231MD1999999+0121MW1171REMSYN094AAXX  17004 83288 31595 80506 10232 20202 39623 40112 7172/ 8482/ 333 10323 29074 55092 58012;EQDQ01  00002PRCP06
0190832880999992004021712004-13267-043417FM-12+0458SBLP V0201401N000510075019N0200001N1+02321+02201101531ADDAY161061AY261061GF108991061051008001051999KA1240N+02141MA1999999096581MD1999999+0231MW1031REMSYN088AAXX  17124 83288 21598 81401 10232 20220 39658 40153 70366 8655/ 333 20214 58023 60084;
0171832880999992004021718004-13267-043417FM-12+0458SBLP V0203601N000510075019N0200001N1+02251+02101101291ADDAY161061AY261061GF108991061051008001051999MA1999999096331MD1999999+0331MW1651REMSYN082AAXX  17184 83288 21598 83601 10225 20210 39633 40129 76566 8655/ 333 58033 60151;
0202832880999992004021800004-13267-043417FM-12+0458SBLP V0201801N000510075019N0020001N1+02221+02081101251ADDAY161061AY261061GF108991061051008001021999KA1240M+02621MA1999999096301MD1999999+0071MW1031REMSYN100AAXX  18004 83288 21595 81801 10222 20208 39630 40125 70366 8652/ 333 10262 29092 55000 58007 60021;
0190832880999992004021812004-13267-043417FM-12+0458SBLP V0200901N001010120019N0200001N1+02411+02321101471ADDAY151061AY251061GF108991051081008001031051KA1240N+02141MA1999999096521MD1999999-0061MW1031REMSYN088AAXX  18124 83288 21598 80902 10241 20232 39652 40147 70355 85835 333 20214 59006 60174;
0186832880999992004021912004-13267-043417FM-12+0458SBLP V0201401N000511050019N0200001N1+02571+02271101161ADDAA106000091GF106991021001017501031051KA1240N+02221MA1999999096281MD1999999-0241REMSYN076AAXX  19124 83288 32798 61401 10257 20227 39628 40116 82035 333 20222 59024;EQDQ01  00002PRCP06
0167832880999992004021918004-13267-043417FM-12+0458SBLP V0201401N003610450019N0200001N1+02471+02321100871ADDAA106000091GF108991041081008001021999MA1999999095971MD1999999-0061REMSYN070AAXX  19184 83288 32598 81407 10247 20232 39597 40087 8482/ 333 59006;EQDQ01  00002PRCP06
0194832880999992004022000004-13267-043417FM-12+0458SBLP V0201401N000510075019N0020001N1+02311+02181100971ADDAY151061GF108991081051008001999999KA1240M+03051MA1999999096081MD1999999-0051MW1511REMSYN100AAXX  20004 83288 21595 81401 10231 20218 39608 40097 7515/ 885// 333 10305 29090 55039 59005 69941;
0190832880999992004022012004-13267-043417FM-12+0458SBLP V0202301N000510450019N0200001N1+02521+02211101001ADDAY151061AY211061GF106991041051008001051001KA1240N+02211MA1999999096191MD1999999-0091MW1031REMSYN088AAXX  20124 83288 21598 62301 10252 20221 39619 40100 70351 84550 333 20221 59009 60024;
0167832880999992004022018004-13267-043417FM-12+0458SBLP V0202301N001010120019N0200001N1+02831+02201100841ADDAA106000091GF108991061081008001021999MA1999999095951MD1999999-0021REMSYN070AAXX  20184 83288 32598 82302 10283 20220 39595 40084 8682/ 333 59002;EQDQ01  00002PRCP06
0214832880999992004022100004-13267-043417FM-12+0458SBLP V0201801N001512200019N0020001N1+02331+02091101081ADDAA106000091GF103991999011008001001001KA1240M+02931MA1999999096181MD1999999+0101REMSYN088AAXX  21004 83288 32595 31803 10233 20209 39618 40108 82100 333 10293 29080 55020 58010;EQDQ01+000022SCOTLCQ02  00002PRCP06
0186832880999992004022112004-13267-043417FM-12+0458SBLP V0202701N000512200019N0200001N1+02571+02361101221ADDAA106000091GF104991011011008001061041KA1240N+02161MA1999999096321MD1999999+0131REMSYN076AAXX  21124 83288 32598 42701 10257 20236 39632 40122 81164 333 20216 58013;EQDQ01  00002PRCP06
0171832880999992004022118004-13267-043417FM-12+0458SBLP V0203601N000510450019N0200001N1+02431+02401101031ADDAY161061AY291061GF106991031081008001011001MA1999999096101MD1999999+0151MW1021REMSYN082AAXX  21184 83288 21598 63601 10243 20240 39610 40103 70269 83810 333 58015 60241;
0162832880999992004022212004-13267-043417FM-12+0458SBLP V0200901N001512200019N0200001N1+02611+02231101281ADDGF103991021021008001001011KA1240N+02141MA1999999096381MD1999999+0061REMSYN082AAXX  22124 83288 22598 30903 10261 20223 39638 40128 82201 333 20214 58006 60244;
0167832880999992004022218004-13267-043417FM-12+0458SBLP V0202301N001012200019N0200001N1+02871+02321100931ADDAA106000091GF104991041021008001001001MA1999999096061MD1999999-0041REMSYN070AAXX  22184 83288 32598 42302 10287 20232 39606 40093 84200 333 59004;EQDQ01  00002PRCP06
0190832880999992004022312004-13267-043417FM-12+0458SBLP V0201401N001012200019N0200001N1+02651+02141101261ADDAY151061AY201061GF103991021011008001001041KA1240N+02211MA1999999095381MD1999999+0001MW1031REMSYN088AAXX  23124 83288 21598 31402 10265 20214 39538 40126 70350 82104 333 20221 58000 69964;
0153832880999992004022318004-13267-043417FM-12+0458SBLP V0203201N000512200019N0200001N1+03091+02271100881ADDAA106000091GF102991011021008001001021MA1999999096041REMSYN070AAXX  23184 83288 32598 23201 10309 20227 39604 40088 81202 333 52002;EQDQ01  00002PRCP06
0167832880999992004022418004-13267-043417FM-12+0458SBLP V0203601N001512200019N0200001N1+03051+02561100871ADDAA106000091GF106991041021008001001041MA1999999096021MD1999999+0021REMSYN070AAXX  24184 83288 32598 63603 10305 20256 39602 40087 84204 333 58002;EQDQ01  00002PRCP06
0186832880999992004022512004-13267-043417FM-12+0458SBLP V0203601N000511050019N0200001N1+02451+02291101251ADDAA106000091GF107991031001017501071081KA1240N+02281MA1999999096351MD1999999-0011REMSYN076AAXX  25124 83288 32798 73601 10245 20229 39635 40125 83078 333 20228 59001;EQDQ01  00002PRCP06
0167832880999992004022518004-13267-043417FM-12+0458SBLP V0203601N001512200019N0200001N1+02991+02391100911ADDAA106000091GF105991021021008001001081MA1999999096051MD1999999+0031REMSYN070AAXX  25184 83288 32598 53603 10299 20239 39605 40091 82208 333 58003;EQDQ01  00002PRCP06
0198832880999992004022600004-13267-043417FM-12+0458SBLP V0200901N001510150019N0020001N1+02591+02331101141ADDAA106000091GF108991081001017501071999KA1240M+03131MA1999999096251MD1999999+0111REMSYN088AAXX  26004 83288 32795 80903 10259 20233 39625 40114 8807/ 333 10313 29082 55047 58011;EQDQ01  00002PRCP06
0186832880999992004022612004-13267-043417FM-12+0458SBLP V0202301N000512200019N0200001N1+02521+02191101421ADDAA106000091GF104991031011008001031021KA1240N+02151MA1999999096531MD1999999+0181REMSYN076AAXX  26124 83288 32598 42301 10252 20219 39653 40142 83132 333 20215 58018;EQDQ01  00002PRCP06
0167832880999992004022618004-13267-043417FM-12+0458SBLP V0203601N001510450019N0200001N1+03101+02461100971ADDAA106000091GF105991041081008001021001MA1999999096131MD1999999+0081REMSYN070AAXX  26184 83288 32598 53603 10310 20246 39613 40097 84820 333 58008;EQDQ01  00002PRCP06
0198832880999992004022700004-13267-043417FM-12+0458SBLP V0203201N001012200019N0020001N1+02551+02111101221ADDAA106000091GF102991011011008001001021KA1240M+03141MA1999999096341MD1999999+0091REMSYN088AAXX  27004 83288 32595 23202 10255 20211 39634 40122 81102 333 10314 29074 55089 58009;EQDQ01  00002PRCP06
0186832880999992004022712004-13267-043417FM-12+0458SBLP V0203601N001512200019N0200001N1+02511+02301101351ADDAA106000091GF102991021021008001001001KA1240N+02181MA1999999096451MD1999999-0081REMSYN076AAXX  27124 83288 32598 23603 10251 20230 39645 40135 82200 333 20218 59008;EQDQ01  00002PRCP06
0167832880999992004022718004-13267-043417FM-12+0458SBLP V0203601N001011050019N0200001N1+03081+02521100741ADDAA106000091GF105991021021008001001051MA1999999095901MD1999999-0231REMSYN070AAXX  27184 83288 32598 53602 10308 20252 39590 40074 82205 333 59023;EQDQ01  00002PRCP06
0198832880999992004022800004-13267-043417FM-12+0458SBLP V0203201N001512200019N0020001N1+02631+02321100891ADDAA106000091GF103991011011008001001021KA1240M+03111MA1999999096031MD1999999-0311REMSYN088AAXX  28004 83288 32595 33203 10263 20232 39603 40089 81102 333 10311 29083 55089 59031;EQDQ01  00002PRCP06
0186832880999992004022812004-13267-043417FM-12+0458SBLP V0203201N002110450019N0200001N1+02511+02311101051ADDAA106000091GF106991021021008001021021KA1240N+02221MA1999999096171MD1999999-0281REMSYN076AAXX  28124 83288 32598 63204 10251 20231 39617 40105 82222 333 20222 59028;EQDQ01  00002PRCP06
0171832880999992004022818004-13267-043417FM-12+0458SBLP V0203601N001511050019N0200001N1+02851+02481100681ADDAY161061AY261061GF106991041021008001001021MA1999999095831MD1999999-0071MW1031REMSYN082AAXX  28184 83288 21598 63603 10285 20248 39583 40068 70366 84202 333 59007 60021;
0194832880999992004022900004-13267-043417FM-12+0458SBLP V0200501N001510450019N0020001N1+02471+02321100911ADDAY121061GF108991041081008001021999KA1240M+02871MA1999999096031MD1999999+0001MW1581REMSYN100AAXX  29004 83288 21595 80503 10247 20232 39603 40091 7582/ 8482/ 333 10287 29088 55038 58000 69931;
0190832880999992004022912004-13267-043417FM-12+0458SBLP V0201401N001010450019N0200001N1+02521+02311101201ADDAY161061AY261061GF106991041051008001031021KA1240N+02211MA1999999096291MD1999999+0121MW1031REMSYN088AAXX  29124 83288 21598 61402 10252 20231 39629 40120 70366 84532 333 20221 58012 60044;
0167832880999992004022918004-13267-043417FM-12+0458SBLP V0202301N001010075019N0200001N1+02651+02331100721ADDAA106000091GF105991051021008001021001MA1999999095841MD1999999+0011REMSYN070AAXX  29184 83288 32598 52302 10265 20233 39584 40072 85220 333 58001;EQDQ01  00002PRCP06
0202832880999992004030100004-13267-043417FM-12+0458SBLP V0203601N001510450019N0020001N1+02251+02051101121ADDAY151061AY251061GF108991041051008001021999KA1240M+02961MA1999999096241MD1999999+0211MW1031REMSYN100AAXX  01004 83288 21595 83603 10225 20205 39624 40112 70355 8452/ 333 10296 29089 55040 58021 60011;
0162832880999992004030112004-13267-043417FM-12+0458SBLP V0203601N001012200019N0200001N1+02491+02231101171ADDGF105991021011008001051091KA1240N+02181MA1999999096261MD1999999-0031REMSYN082AAXX  01124 83288 22598 53602 10249 20223 39626 40117 82159 333 20218 59003 60014;
0167832880999992004030118004-13267-043417FM-12+0458SBLP V0203201N001011050019N0200001N1+03091+02641100831ADDAA106000091GF106991041031008001001021MA1999999095981MD1999999+0141REMSYN070AAXX  01184 83288 32598 63202 10309 20264 39598 40083 84302 333 58014;EQDQ01  00002PRCP06
0198832880999992004030200004-13267-043417FM-12+0458SBLP V0201401N001010450019N0020001N1+02411+02271101181ADDAA106000091GF107991041081008001011001KA1240M+03131MA1999999096281MD1999999+0041REMSYN088AAXX  02004 83288 32595 71402 10241 20227 39628 40118 84810 333 10313 29086 55071 58004;EQDQ01  00002PRCP06
0186832880999992004030212004-13267-043417FM-12+0458SBLP V0203201N000512200019N0200001N1+02511+02311101241ADDAA106000091GF105991031041008001001011KA1240N+02201MA1999999096341MD1999999+0081REMSYN076AAXX  02124 83288 32598 53201 10251 20231 39634 40124 83401 333 20220 58008;EQDQ01  00002PRCP06
0167832880999992004030218004-13267-043417FM-12+0458SBLP V0202301N002110075019N0200001N1+03051+02361100841ADDAA106000091GF106991051021008001001021MA1999999096001MD1999999+0021REMSYN070AAXX  02184 83288 32598 62304 10305 20236 39600 40084 85202 333 58002;EQDQ01  00002PRCP06
0198832880999992004030300004-13267-043417FM-12+0458SBLP V0203601N000512200019N0020001N1+02491+02311101021ADDAA106000091GF102991021001017501041001KA1240M+03131MA1999999096141MD1999999-0141REMSYN088AAXX  03004 83288 32795 23601 10249 20231 39614 40102 82040 333 10313 29083 55091 59014;EQDQ01  00002PRCP06
0190832880999992004030312004-13267-043417FM-12+0458SBLP V0200501N000510450019N0200001N1+02791+02041101291ADDAY161061AY261061GF106991041051008001021001KA1240N+02181MA1999999096421MD1999999+0081MW1031REMSYN088AAXX  03124 83288 21598 60501 10279 20204 39642 40129 70366 84520 333 20218 58008 60044;
0171832880999992004030318004-13267-043417FM-12+0458SBLP V0200501N001010450019N0200001N1+02591+02151100861ADDAY161061AY201061GF105991041051008001031021MA1999999095971MD1999999-0031MW1031REMSYN082AAXX  03184 83288 21598 50502 10259 20215 39597 40086 70360 84532 333 59003 60051;
0198832880999992004030400004-13267-043417FM-12+0458SBLP V0201401N000510450019N0020001N1+02351+02201101001ADDAA106000091GF106991041011008001021001KA1240M+03111MA1999999096091MD1999999-0051REMSYN088AAXX  04004 83288 32595 61401 10235 20220 39609 40100 84120 333 10311 29087 55017 59005;EQDQ01  00002PRCP06
0162832880999992004030412004-13267-043417FM-12+0458SBLP V0202701N001011050019N0200001N1+02551+02301101311ADDGF105991021021008001041041KA1240N+02181MA1999999096401MD1999999-0021REMSYN082AAXX  04124 83288 22598 52702 10255 20230 39640 40131 82244 333 20218 59002 60054;
0167832880999992004030418004-13267-043417FM-12+0458SBLP V0200901N001510075019N0200001N1+02951+02571100891ADDAA106000091GF106991061051008001001001MA1999999096031MD1999999+0061REMSYN070AAXX  04184 83288 32598 60903 10295 20257 39603 40089 86500 333 58006;EQDQ01  00002PRCP06
0202832880999992004030500004-13267-043417FM-12+0458SBLP V0201801N001010450019N0020001N1+02311+02231101131ADDAY161061AY261061GF106991021011008001011051KA1240M+03051MA1999999096221MD1999999+0131MW1021REMSYN100AAXX  05004 83288 21595 61802 10231 20223 39622 40113 70266 82115 333 10305 29087 55077 58013 60161;
0162832880999992004030512004-13267-043417FM-12+0458SBLP V0200901N001512200019N0200001N1+02651+02201101321ADDGF102991011011008001001041KA1240N+02161MA1999999096421MD1999999+0021REMSYN082AAXX  05124 83288 22598 20903 10265 20220 39642 40132 81104 333 20216 58002 60164;
0167832880999992004030518004-13267-043417FM-12+0458SBLP V0200501N001011050019N0200001N1+03011+02361101031ADDAA106000091GF105991021021008001001051MA1999999096161MD1999999-0131REMSYN070AAXX  05184 83288 32598 50502 10301 20236 39616 40103 82205 333 59013;EQDQ01  00002PRCP06
0198832880999992004030600004-13267-043417FM-12+0458SBLP V0201401N001012200019N0020001N1+02451+02091101241ADDAA106000091GF103991011021008001001051KA1240M+03071MA1999999096351MD1999999+0121REMSYN088AAXX  06004 83288 32595 31402 10245 20209 39635 40124 81205 333 10307 29076 55097 58012;EQDQ01  00002PRCP06
0186832880999992004030612004-13267-043417FM-12+0458SBLP V0200901N000512200019N0200001N1+02471+01921101291ADDAA106000091GF103991021011008001001041KA1240N+02001MA1999999096381MD1999999-0041REMSYN076AAXX  06124 83288 32598 30901 10247 20192 39638 40129 82104 333 20200 59004;EQDQ01  00002PRCP06
0167832880999992004030618004-13267-043417FM-12+0458SBLP V0200901N000510450019N0200001N1+03021+01891101001ADDAA106000091GF106991041021008001021041MA1999999096141MD1999999-0021REMSYN070AAXX  06184 83288 32598 60901 10302 20189 39614 40100 84224 333 59002;EQDQ01  00002PRCP06
0198832880999992004030700004-13267-043417FM-12+0458SBLP V0201801N001010120019N0020001N1+02561+02111100921ADDAA106000091GF108991051081008001021999KA1240M+03131MA1999999096041MD1999999-0311REMSYN088AAXX  07004 83288 32595 81802 10256 20211 39604 40092 8582/ 333 10313 29066 55101 59031;EQDQ01  00002PRCP06
0186832880999992004030712004-13267-043417FM-12+0458SBLP V0201801N001512200019N0200001N1+02531+02221101421ADDAA106000091GF102991021011008001001001KA1240N+02021MA1999999096531MD1999999+0151REMSYN076AAXX  07124 83288 32598 21803 10253 20222 39653 40142 82100 333 20202 58015;EQDQ01  00002PRCP06
0167832880999992004030718004-13267-043417FM-12+0458SBLP V0202301N001011050019N0200001N1+03011+02431101071ADDAA106000091GF105991031021008001001051MA1999999096191MD1999999+0051REMSYN070AAXX  07184 83288 32598 52302 10301 20243 39619 40107 83205 333 58005;EQDQ01  00002PRCP06
0198832880999992004030800004-13267-043417FM-12+0458SBLP V0201801N001512200019N0020001N1+02531+02321101261ADDAA106000091GF102991021011008001001001KA1240M+03051MA1999999096361MD1999999+0321REMSYN088AAXX  08004 83288 32595 21803 10253 20232 39636 40126 82100 333 10305 29081 55104 58032;EQDQ01  00002PRCP06
0186832880999992004030812004-13267-043417FM-12+0458SBLP V0201801N001512200019N0200001N1+02551+02041101511ADDAA106000091GF102991011001017501031041KA1240N+02021MA1999999096611MD1999999+0081REMSYN076AAXX  08124 83288 32798 21803 10255 20204 39661 40151 81034 333 20202 58008;EQDQ01  00002PRCP06
0167832880999992004030818004-13267-043417FM-12+0458SBLP V0201401N001510075019N0200001N1+02971+02021101111ADDAA106000091GF105991051021008001001001MA1999999096231MD1999999+0041REMSYN070AAXX  08184 83288 32598 51403 10297 20202 39623 40111 85200 333 58004;EQDQ01  00002PRCP06
0208832880999992004030900004-13267-043417FM-12+0458SBLP V0201401N001512200019N0020001N1+02431+02011101211ADDAA106000091GA1001+999999999GF100991001001999999001001KA1240M+03111MA1999999096321MD1999999-0041REMSYN082AAXX  09004 83288 32995 01403 10243 20201 39632 40121 333 10311 29071 55110 59004;EQDQ01  00002PRCP06
0186832880999992004030912004-13267-043417FM-12+0458SBLP V0201401N001512200019N0200001N1+02571+02081101561ADDAA106000091GF103991021011008001001041KA1240N+01981MA1999999096651MD1999999+0041REMSYN076AAXX  09124 83288 32598 31403 10257 20208 39665 40156 82104 333 20198 58004;EQDQ01  00002PRCP06
0167832880999992004030918004-13267-043417FM-12+0458SBLP V0201401N001010450019N0200001N1+02941+02161101141ADDAA106000091GF105991041021008001031021MA1999999096241MD1999999+0011REMSYN070AAXX  09184 83288 32598 51402 10294 20216 39624 40114 84232 333 58001;EQDQ01  00002PRCP06
0208832880999992004031000004-13267-043417FM-12+0458SBLP V0201401N000512200019N0020001N1+02551+02151101041ADDAA106000091GA1001+999999999GF100991001001999999001001KA1240M+02981MA1999999096231MD1999999-0091REMSYN082AAXX  10004 83288 32995 01401 10255 20215 39623 40104 333 10298 29072 55089 59009;EQDQ01  00002PRCP06
0186832880999992004031012004-13267-043417FM-12+0458SBLP V0201401N001012200019N0200001N1+02631+02241101521ADDAA106000091GF102991011011008001001051KA1240N+02241MA1999999096631MD1999999-0021REMSYN076AAXX  10124 83288 32598 21402 10263 20224 39663 40152 81105 333 20224 59002;EQDQ01  00002PRCP06
0167832880999992004031018004-13267-043417FM-12+0458SBLP V0202301N001510120019N0200001N1+02911+02441101261ADDAA106000091GF105991051081008001001001MA1999999096391MD1999999+0151REMSYN070AAXX  10184 83288 32598 52303 10291 20244 39639 40126 85800 333 58015;EQDQ01  00002PRCP06
0196832880999992004031112004-13267-043417FM-12+0458SBLP V0200901N001012200019N0200001N1+02791+02441101191ADDAA106000091GA1001+999999999GF100991001001999999001001KA1240N+02101MA1999999096331MD1999999-0301REMSYN070AAXX  11124 83288 32998 00902 10279 20244 39633 40119 333 20210 59030;EQDQ01  00002PRCP06
0167832880999992004031118004-13267-043417FM-12+0458SBLP V0201401N001512200019N0200001N1+03111+02291100841ADDAA106000091GF101991011021008001001001MA1999999095991MD1999999-0401REMSYN070AAXX  11184 83288 32598 11403 10311 20229 39599 40084 81200 333 59040;EQDQ01  00002PRCP06
0208832880999992004031200004-13267-043417FM-12+0458SBLP V0201401N000512200019N0020001N1+02531+02021100901ADDAA106000091GA1001+999999999GF100991001001999999001001KA1240M+03201MA1999999096051MD1999999-0321REMSYN082AAXX  12004 83288 32995 01401 10253 20202 39605 40090 333 10320 29070 55106 59032;EQDQ01  00002PRCP06
0186832880999992004031212004-13267-043417FM-12+0458SBLP V0201801N000512200019N0200001N1+02681+02071101111ADDAA106000091GF102991011011008001001021KA1240N+02081MA1999999096241MD1999999-0091REMSYN076AAXX  12124 83288 32598 21801 10268 20207 39624 40111 81102 333 20208 59009;EQDQ01  00002PRCP06
0167832880999992004031218004-13267-043417FM-12+0458SBLP V0202701N000512200019N0200001N1+03221+01731100651ADDAA106000091GF103991021011008001001021MA1999999095821MD1999999-0071REMSYN070AAXX  12184 83288 32598 32701 10322 20173 39582 40065 82102 333 59007;EQDQ01  00002PRCP06
0208832880999992004031300004-13267-043417FM-12+0458SBLP V0201801N000512200019N0020001N1+02731+02181100941ADDAA106000091GA1001+999999999GF100991001001999999001001KA1240M+03341MA1999999096111MD1999999+0061REMSYN082AAXX  13004 83288 32995 01801 10273 20218 39611 40094 333 10334 29061 55104 58006;EQDQ01  00002PRCP06
0218832880999992004031312004-13267-043417FM-12+0458SBLP V0201801N001012200019N0200001N1+02711+02311101091ADDAA106000091GF103991001001999999001021KA1240N+02081MA1999999999999MD1999999+0001REMSYN076AAXX  13124 83288 32998 31802 10271 20231 30962 40109 88002 333 20208 58000;EQDQ01+000082SCOTLCQ02  00002PRCP06Q03 099623APOSP 
0183832880999992004031318004-13267-043417FM-12+0458SBLP V0202301N001512200019N0200001N1+03191+02341100831ADDAA106000091GF104991041021008001001001MA1999999095982MD1999999+0161REMSYN070AAXX  13184 83288 32598 42303 10319 20234 39598 40083 84200 333 58016;EQDQ01+095983APOSP Q02  00002PRCP06
0198832880999992004031400004-13267-043417FM-12+0458SBLP V0200901N001012200019N0200001N1+02651+02341101021ADDAA106000091GF101991011011008001001001KA1240M+03291MA1999999096171MD1999999+0061REMSYN088AAXX  14004 83288 32598 10902 10265 20234 39617 40102 81100 333 10329 29074 55108 58006;EQDQ01  00002PRCP06
0186832880999992004031412004-13267-043417FM-12+0458SBLP V0201401N001012200019N0200001N1+02691+02251101271ADDAA106000091GF104991011011008001001021KA1240N+02221MA1999999096411MD1999999+0171REMSYN076AAXX  14124 83288 32598 41402 10269 20225 39641 40127 81102 333 20222 58017;EQDQ01  00002PRCP06
0167832880999992004031418004-13267-043417FM-12+0458SBLP V0201801N001512200019N0200001N1+03031+02471100911ADDAA106000091GF104991021021008001001051MA1999999096081MD1999999+0101REMSYN070AAXX  14184 83288 32598 41803 10303 20247 39608 40091 82205 333 58010;EQDQ01  00002PRCP06
0208832880999992004031500004-13267-043417FM-12+0458SBLP V0209999C000012200019N0020001N1+02551+00232101001ADDAA106000091GA1001+999999999GF100991001001999999001001KA1240M+03191MA1999999096141MD1999999-0031REMSYN082AAXX  15004 83288 32995 00000 10255 20023 39614 40100 333 10319 29079 55087 59003;EQDQ01  00002PRCP06
0186832880999992004031512004-13267-043417FM-12+0458SBLP V0202701N004110075019N0200001N1+02451+02271101101ADDAA106000091GF108991061051008001021999KA1240N+02241MA1999999096201MD1999999-0201REMSYN076AAXX  15124 83288 32598 82708 10245 20227 39620 40110 8652/ 333 20224 59020;EQDQ01  00002PRCP06
0167832880999992004031518004-13267-043417FM-12+0458SBLP V0202301N001510450019N0200001N1+02751+02341100711ADDAA106000091GF106991041051008001021001MA1999999095851MD1999999-0231REMSYN070AAXX  15184 83288 32598 62303 10275 20234 39585 40071 84520 333 59023;EQDQ01  00002PRCP06
0198832880999992004031600004-13267-043417FM-12+0458SBLP V0201801N001510450019N0020001N1+02511+02131100781ADDAA106000091GF106991041011008001021001KA1240M+02881MA1999999095941MD1999999-0201REMSYN088AAXX  16004 83288 32595 61803 10251 20213 39594 40078 84120 333 10288 29083 55008 59020;EQDQ01  00002PRCP06
0190832880999992004031612004-13267-043417FM-12+0458SBLP V0201801N001010450019N0040001N1+02231+02141101231ADDAY151061AY251061GF108991031081008001021999KA1240N+02141MA1999999096321MD1999999+0121MW1511REMSYN088AAXX  16124 83288 21596 81802 10223 20214 39632 40123 75155 8382/ 333 20214 58012 69974;
0171832880999992004031618004-13267-043417FM-12+0458SBLP V0201801N001010450019N0200001N1+02891+02551100591ADDAY161061AY261061GF107991041021008001051001MA1999999095751MD1999999-0101MW1021REMSYN082AAXX  16184 83288 21598 71802 10289 20255 39575 40059 70266 84250 333 59010 60021;
0198832880999992004031700004-13267-043417FM-12+0458SBLP V0201801N001510450019N0020001N1+02611+02471100841ADDAA106000091GF108991031081008001021999KA1240M+02951MA1999999095951MD1999999+0011REMSYN088AAXX  17004 83288 32595 81803 10261 20247 39595 40084 8382/ 333 10295 29090 55019 58001;EQDQ01  00002PRCP06
0190832880999992004031712004-13267-043417FM-12+0458SBLP V0203201N001010450019N0200001N1+02211+02171101111ADDAY161061AY261061GF108991041051008001021999KA1240N+02121MA1999999096201MD1999999-0121MW1651REMSYN088AAXX  17124 83288 21598 83202 10221 20217 39620 40111 76566 8452/ 333 20212 59012 60184;
0171832880999992004031718004-13267-043417FM-12+0458SBLP V0203201N002610450019N0200001N1+02431+02191100701ADDAY151061AY251061GF108991041081008001021999MA1999999095811MD1999999+0061MW1581REMSYN082AAXX  17184 83288 21598 83205 10243 20219 39581 40070 75855 8482/ 333 58006 69981;
0179832880999992004031800004-13267-043417FM-12+0458SBLP V0201401N001010150019N0020001N1+02371+02281100961ADDAA106000021GF108991081001017501011999KA1240M+02891MA1999999096041MD1999999+0091REMSYN088AAXX  18004 83288 32795 81402 10237 20228 39604 40096 8801/ 333 10289 29094 55012 58009;
0162832880999992004031812004-13267-043417FM-12+0458SBLP V0202701N000510450019N0200001N1+02501+02311100991ADDGF105991041051008001021001KA1240N+02181MA1999999096101MD1999999-0101REMSYN082AAXX  18124 83288 22598 52701 10250 20231 39610 40099 84520 333 20218 59010 60014;
0171832880999992004031818004-13267-043417FM-12+0458SBLP V0203601N001010450019N0200001N1+02471+02301100811ADDAY151061AY251061GF106991041051008001021001MA1999999095881MD1999999+0071MW1511REMSYN082AAXX  18184 83288 21598 63602 10247 20230 39588 40081 75155 84520 333 58007 69931;
0179832880999992004031900004-13267-043417FM-12+0458SBLP V0203601N001010075019N0020001N1+02441+02321100881ADDAA106000021GF108991061051008001021999KA1240M+02981MA1999999095991MD1999999-0051REMSYN088AAXX  19004 83288 32595 83602 10244 20232 39599 40088 8652/ 333 10298 29089 55010 59005;
0162832880999992004031912004-13267-043417FM-12+0458SBLP V0203601N001010120019N0200001N1+02431+02251101201ADDGF108991061081008001021999KA1240N+02201MA1999999096301MD1999999+0201REMSYN082AAXX  19124 83288 22598 83602 10243 20225 39630 40120 8682/ 333 20220 58020 60014;
0163832880999992004031918004-13267-043417FM-12+0458SBLP V0201401N001010120019N0200001N1+02551+02381100771ADDAY121061GF107991071081008001001001MA1999999095881MD1999999-0111MW1581REMSYN082AAXX  19184 83288 21598 71402 10255 20238 39588 40077 7582/ 87800 333 59011 69981;
0215832880999992004032000004-13267-043417FM-12+0458SBLP V0209999C000010450019N0020001N1+02271+02211101011ADDAY161061AY251061GF108991041051004501021999KA1240M+02231MA1999999096101MD1999999+0111REMSYN100AAXX  20004 83288 21495 80000 10227 20221 39610 40101 75665 8452/ 333 10223 29094 55013 58011 60021;EQDQ01+000562PRSWM1
0190832880999992004032012004-13267-043417FM-12+0458SBLP V0201401N000510075019N0200001N1+02331+02241101201ADDAY161061AY261061GF108991051051008001021999KA1240N+02121MA1999999096261MD1999999-0041MW1021REMSYN088AAXX  20124 83288 21598 81401 10233 20224 39626 40120 70266 8552/ 333 20212 59004 60224;
0184832880999992004032018004-13267-043417FM-12+0458SBLP V0200901N000510450019N0200001N1+02291+02161100911ADDAY161061AY261061GF108991041051008001021999MA1999999095971MD1999999-0091REMSYN082AAXX  20184 83288 21598 80901 10229 20216 39597 40091 75666 8452/ 333 59009 60221;EQDQ01+000562PRSWM1
0207832880999992004032100004-13267-043417FM-12+0458SBLP V0200901N001010450019N0020001N1+02291+02161101051ADDAY121061GF108991041051008001021999KA1240M+02411MA1999999096121MD1999999+0021REMSYN100AAXX  21004 83288 21595 80902 10229 20216 39612 40105 7562/ 8452/ 333 10241 29094 55000 58002 69961;EQDQ01+000562PRSWM1
0190832880999992004032112004-13267-043417FM-12+0458SBLP V0201401N000510075019N0200001N1+02371+02171101151ADDAY161061AY261061GF106991061051008001051001KA1240N+01941MA1999999096231MD1999999-0031MW1031REMSYN088AAXX  21124 83288 21598 61401 10237 20217 39623 40115 70366 86550 333 20194 59003 60214;
0186832880999992004032212004-13267-043417FM-12+0458SBLP V0201801N001012200019N0200001N1+02611+02451101031ADDAA106000091GF104991021011008001031001KA1240N+02181MA1999999096161MD1999999-0071REMSYN076AAXX  22124 83288 32598 41802 10261 20245 39616 40103 82130 333 20218 59007;EQDQ01  00002PRCP06
0167832880999992004032218004-13267-043417FM-12+0458SBLP V0203201N001511050019N0200001N1+03111+02571100631ADDAA106000091GF106991021021008001001081MA1999999095801MD1999999+0001REMSYN070AAXX  22184 83288 32598 63203 10311 20257 39580 40063 82208 333 58000;EQDQ01  00002PRCP06
0198832880999992004032300004-13267-043417FM-12+0458SBLP V0202301N001510450019N0020001N1+02611+02511100991ADDAA106000091GF108991041051008001021999KA1240M+03171MA1999999096131MD1999999+0081REMSYN088AAXX  23004 83288 32595 82303 10261 20251 39613 40099 8452/ 333 10317 29086 55082 58008;EQDQ01  00002PRCP06
0182832880999992004032312004-13267-043417FM-12+0458SBLP V0202701N001010042019N0200001N1+02211+02191101271ADDAY121061GF108991081061004501999999KA1240N+02161MA1999999096351MD1999999+0191MW1611REMSYN088AAXX  23124 83288 21498 82702 10221 20219 39635 40127 7612/ 886// 333 20216 58019 60114;
0171832880999992004032318004-13267-043417FM-12+0458SBLP V0202701N000510075019N0200001N1+02351+02311100961ADDAY151061AY251061GF108991051051008001021999MA1999999096021MD1999999+0221MW1611REMSYN082AAXX  23184 83288 21598 82701 10235 20231 39602 40096 76155 8552/ 333 58022 60021;
0202832880999992004032400004-13267-043417FM-12+0458SBLP V0209999C000010075019N0020001N1+02291+02271101021ADDAY151061AY251061GF108991051051008001021999KA1240M+02591MA1999999096081MD1999999-0051MW1021REMSYN100AAXX  24004 83288 21595 80000 10229 20227 39608 40102 70255 8552/ 333 10259 29098 55000 59005 69921;
0190832880999992004032412004-13267-043417FM-12+0458SBLP V0202701N000510075019N0200001N1+02221+02081101501ADDAY161061AY261061GF108991061051008001021999KA1240N+02111MA1999999096551MD1999999+0201MW1031REMSYN088AAXX  24124 83288 21598 82701 10222 20208 39655 40150 70366 8652/ 333 20211 58020 60184;
0162832880999992004032512004-13267-043417FM-12+0458SBLP V0201801N001012200019N0200001N1+02391+02291101241ADDGF104991011011008001041091KA1240N+02081MA1999999096301MD1999999-0251REMSYN082AAXX  25124 83288 22598 41802 10239 20229 39630 40124 81149 333 20208 59025 60024;
0167832880999992004032518004-13267-043417FM-12+0458SBLP V0201801N001510450019N0200001N1+02931+02511100781ADDAA106000091GF105991031021008001031001MA1999999095911MD1999999-0211REMSYN070AAXX  25184 83288 32598 51803 10293 20251 39591 40078 83230 333 59021;EQDQ01  00002PRCP06
0202832880999992004032600004-13267-043417FM-12+0458SBLP V0203601N001010450019N0020001N1+02291+02241101201ADDAY161061AY261061GF108991041051008001021999KA1240M+02951MA1999999096281MD1999999+0051MW1521REMSYN100AAXX  26004 83288 21595 83602 10229 20224 39628 40120 75266 8452/ 333 10295 29090 55071 58005 60011;
0190832880999992004032612004-13267-043417FM-12+0458SBLP V0202701N000510450019N0200001N1+02311+02271101331ADDAY161061AY261061GF108991041051008001021999KA1240N+02201MA1999999096391MD1999999-0091MW1511REMSYN088AAXX  26124 83288 21598 82701 10231 20227 39639 40133 75166 8452/ 333 20220 59009 60034;
0148832880999992004032618004-13267-043417FM-12+0458SBLP V0200901N001012200019N0200001N1+02871+02261100891ADDAA106000021GF103991031021008001001001MA1999999096011MD1999999+0101REMSYN070AAXX  26184 83288 32598 30902 10287 20226 39601 40089 83200 333 58010;
0198832880999992004032700004-13267-043417FM-12+0458SBLP V0200901N000510450019N0020001N1+02371+02191101041ADDAA106000091GF107991041041008001041001KA1240M+02891MA1999999096131MD1999999-0151REMSYN088AAXX  27004 83288 32595 70901 10237 20219 39613 40104 84440 333 10289 29086 55045 59015;EQDQ01  00002PRCP06
0186832880999992004032712004-13267-043417FM-12+0458SBLP V0201801N000510075019N0200001N1+02451+02031101141ADDAA106000091GF107991051011008001031041KA1240N+02061MA1999999096231MD1999999-0161REMSYN076AAXX  27124 83288 32598 71801 10245 20203 39623 40114 85134 333 20206 59016;EQDQ01  00002PRCP06
0167832880999992004032718004-13267-043417FM-12+0458SBLP V0201801N001010075019N0200001N1+02721+02171100881ADDAA106000091GF108991061051008001021999MA1999999095981MD1999999-0031REMSYN070AAXX  27184 83288 32598 81802 10272 20217 39598 40088 8652/ 333 59003;EQDQ01  00002PRCP06
0198832880999992004032800004-13267-043417FM-12+0458SBLP V0202301N001010450019N0020001N1+02461+02271100871ADDAA106000091GF106991041051008001021001KA1240M+02881MA1999999095981MD1999999-0151REMSYN088AAXX  28004 83288 32595 62302 10246 20227 39598 40087 84520 333 10288 29079 55022 59015;EQDQ01  00002PRCP06
0186832880999992004032812004-13267-043417FM-12+0458SBLP V0202301N000510450019N0200001N1+02291+02211101251ADDAA106000091GF108991031011008001071999KA1240N+01921MA1999999096341MD1999999+0111REMSYN076AAXX  28124 83288 32598 82301 10229 20221 39634 40125 8317/ 333 20192 58011;EQDQ01  00002PRCP06
0167832880999992004032818004-13267-043417FM-12+0458SBLP V0203601N001510450019N0200001N1+02911+02491100901ADDAA106000091GF105991031011008001051001MA1999999096031MD1999999+0051REMSYN070AAXX  28184 83288 32598 53603 10291 20249 39603 40090 83150 333 58005;EQDQ01  00002PRCP06
0198832880999992004032900004-13267-043417FM-12+0458SBLP V0201801N001012200019N0020001N1+02511+02411101041ADDAA106000091GF104991021011008001041001KA1240M+03011MA1999999096141MD1999999+0161REMSYN088AAXX  29004 83288 32595 41802 10251 20241 39614 40104 82140 333 10301 29089 55050 58016;EQDQ01  00002PRCP06
0186832880999992004032912004-13267-043417FM-12+0458SBLP V0200901N001011050019N0200001N1+02611+02211101351ADDAA106000091GF105991021041008001031011KA1240N+02181MA1999999096461MD1999999+0121REMSYN076AAXX  29124 83288 32598 50902 10261 20221 39646 40135 82431 333 20218 58012;EQDQ01  00002PRCP06
0167832880999992004032918004-13267-043417FM-12+0458SBLP V0202701N000512200019N0200001N1+03131+02301100941ADDAA106000091GF103991021021008001001021MA1999999096091MD1999999+0061REMSYN070AAXX  29184 83288 32598 32701 10313 20230 39609 40094 82202 333 58006;EQDQ01  00002PRCP06
0198832880999992004033000004-13267-043417FM-12+0458SBLP V0201801N001012200019N0020001N1+02511+02191101131ADDAA106000091GF101991001001999999001021KA1240M+03151MA1999999096251MD1999999+0111REMSYN088AAXX  30004 83288 32995 11802 10251 20219 39625 40113 80002 333 10315 29076 55071 58011;EQDQ01  00002PRCP06
0186832880999992004033012004-13267-043417FM-12+0458SBLP V0201401N001010450019N0200001N1+02651+02201101371ADDAA106000091GF105991031011008001021021KA1240N+02231MA1999999096491MD1999999+0031REMSYN076AAXX  30124 83288 32598 51402 10265 20220 39649 40137 83122 333 20223 58003;EQDQ01  00002PRCP06
0167832880999992004033018004-13267-043417FM-12+0458SBLP V0202301N001012200019N0200001N1+03051+02181101001ADDAA106000091GF103991021021008001001021MA1999999096141MD1999999+0051REMSYN070AAXX  30184 83288 32598 32302 10305 20218 39614 40100 82202 333 58005;EQDQ01  00002PRCP06
0198832880999992004033100004-13267-043417FM-12+0458SBLP V0201801N001510450019N0020001N1+02741+02101101081ADDAA106000091GF106991041021008001031001KA1240M+03111MA1999999096241MD1999999-0011REMSYN088AAXX  31004 83288 32595 61803 10274 20210 39624 40108 84230 333 10311 29068 55097 59001;EQDQ01  00002PRCP06
0186832880999992004033112004-13267-043417FM-12+0458SBLP V0201801N001512200019N0200001N1+02551+02261101411ADDAA106000091GF103991011011008001031021KA1240N+02161MA1999999096521MD1999999+0031REMSYN076AAXX  31124 83288 32598 31803 10255 20226 39652 40141 81132 333 20216 58003;EQDQ01  00002PRCP06
0167832880999992004033118004-13267-043417FM-12+0458SBLP V0203201N000512200019N0200001N1+03141+02161100901ADDAA106000091GF104991031021008001001021MA1999999096041MD1999999-0101REMSYN070AAXX  31184 83288 32598 43201 10314 20216 39604 40090 83202 333 59010;EQDQ01  00002PRCP06
0198832880999992004040100004-13267-043417FM-12+0458SBLP V0201801N002110075019N0020001N1+02431+02241101361ADDAA106000091GF108991051051008001011999KA1240M+03231MA1999999096461MD1999999+0221REMSYN088AAXX  01004 83288 32595 81804 10243 20224 39646 40136 8551/ 333 10323 29076 55094 58022;EQDQ01  00002PRCP06
0162832880999992004040112004-13267-043417FM-12+0458SBLP V0202301N001010450019N0200001N1+02231+02101101511ADDGF106991021041008001031081KA1240N+01961MA1999999096571MD1999999+0051REMSYN082AAXX  01124 83288 22598 62302 10223 20210 39657 40151 82438 333 20196 58005 60034;
0167832880999992004040118004-13267-043417FM-12+0458SBLP V0202301N001012200019N0200001N1+03051+02361100981ADDAA106000091GF102991011021008001001021MA1999999096121MD1999999+0081REMSYN070AAXX  01184 83288 32598 22302 10305 20236 39612 40098 81202 333 58008;EQDQ01  00002PRCP06
0183832880999992004040218004-13267-043417FM-12+0458SBLP V0202301N001019999999N0200001N1+03171+02051100891ADDAA106000091GF105991999021008001001001MA1999999096051MD1999999-0071REMSYN070AAXX  02184 83288 32598 52302 10317 20205 39605 40089 83200 333 59007;EQDQ01+000032SCOTLCQ02  00002PRCP06
0208832880999992004040300004-13267-043417FM-12+0458SBLP V0201401N000512200019N0020001N1+02551+02271100861ADDAA106000091GA1001+999999999GF100991001001999999001001KA1240M+03181MA1999999096031MD1999999-0281REMSYN082AAXX  03004 83288 32595 01401 10255 20227 39603 40086 333 10318 29067 55106 59028;EQDQ01  00002PRCP06
0186832880999992004040512004-13267-043417FM-12+0458SBLP V0201401N001512200019N0200001N1+02661+02051101281ADDAA106000091GF102991011011008001001041KA1240N+02161MA1999999096401MD1999999-0151REMSYN076AAXX  05124 83288 32598 21403 10266 20205 39640 40128 81104 333 20216 59015;EQDQ01  00002PRCP06
0167832880999992004040518004-13267-043417FM-12+0458SBLP V0203201N000511050019N0200001N1+03151+02131100961ADDAA106000091GF105991031021008001001021MA1999999096121MD1999999-0041REMSYN070AAXX  05184 83288 32598 53201 10315 20213 39612 40096 83202 333 59004;EQDQ01  00002PRCP06
0186832880999992004040612004-13267-043417FM-12+0458SBLP V0201801N001012200019N0200001N1+02551+02341101281ADDAA106000091GF103991011011008001031091KA1240N+02061MA1999999096401MD1999999+0001REMSYN076AAXX  06124 83288 32598 31802 10255 20234 39640 40128 81139 333 20206 58000;EQDQ01  00002PRCP06
0167832880999992004040618004-13267-043417FM-12+0458SBLP V0202301N001512200019N0200001N1+03211+02441100951ADDAA106000091GF103991021021008001001051MA1999999096101MD1999999-0021REMSYN070AAXX  06184 83288 32598 32303 10321 20244 39610 40095 82205 333 59002;EQDQ01  00002PRCP06
0198832880999992004040700004-13267-043417FM-12+0458SBLP V0201401N001012200019N0020001N1+02551+02351101141ADDAA106000091GF102991011011008001041001KA1240M+03271MA1999999096261MD1999999+0181REMSYN088AAXX  07004 83288 32595 21402 10255 20235 39626 40114 81140 333 10327 29080 55108 58018;EQDQ01  00002PRCP06
0186832880999992004040712004-13267-043417FM-12+0458SBLP V0201801N002112200019N0200001N1+02611+02231101181ADDAA106000091GF105991021001017501031081KA1240N+02241MA1999999096311MD1999999-0091REMSYN076AAXX  07124 83288 32798 51804 10261 20223 39631 40118 82038 333 20224 59009;EQDQ01  00002PRCP06
0167832880999992004040718004-13267-043417FM-12+0458SBLP V0203201N001512200019N0200001N1+03151+02381100751ADDAA106000091GF104991021021008001031021MA1999999095921MD1999999-0181REMSYN070AAXX  07184 83288 32598 43203 10315 20238 39592 40075 82232 333 59018;EQDQ01  00002PRCP06
0198832880999992004040800004-13267-043417FM-12+0458SBLP V0200901N000511050019N0020001N1+02591+02311100991ADDAA106000091GF108991031001017501011071KA1240M+03191MA1999999096131MD1999999-0131REMSYN088AAXX  08004 83288 32795 80901 10259 20231 39613 40099 83017 333 10319 29078 55074 59013;EQDQ01  00002PRCP06
0186832880999992004040812004-13267-043417FM-12+0458SBLP V0201401N000510450019N0200001N1+02451+02231101301ADDAA106000091GF106991041051008001031001KA1240N+02131MA1999999096401MD1999999-0091REMSYN076AAXX  08124 83288 32598 61401 10245 20223 39640 40130 84530 333 20213 59009;EQDQ01  00002PRCP06
0167832880999992004040818004-13267-043417FM-12+0458SBLP V0202301N001010120019N0200001N1+03021+02311100881ADDAA106000091GF108991061081008001021999MA1999999096041MD1999999+0121REMSYN070AAXX  08184 83288 32598 82302 10302 20231 39604 40088 8682/ 333 58012;EQDQ01  00002PRCP06
0208832880999992004040900004-13267-043417FM-12+0458SBLP V0201801N000512200019N0020001N1+02281+02091101161ADDAA106000091GA1001+999999999GF100991001001999999001001KA1240M+03081MA1999999096241MD1999999+0111REMSYN082AAXX  09004 83288 32995 01801 10228 20209 39624 40116 333 10308 29080 55037 58011;EQDQ01  00002PRCP06
0186832880999992004040912004-13267-043417FM-12+0458SBLP V0200901N001012200019N0200001N1+02681+02351101331ADDAA106000091GF101991011011008001001001KA1240N+02081MA1999999096431MD1999999+0031REMSYN076AAXX  09124 83288 32598 10902 10268 20235 39643 40133 81100 333 20208 58003;EQDQ01  00002PRCP06
0167832880999992004040918004-13267-043417FM-12+0458SBLP V0203201N001012200019N0200001N1+03221+02481100861ADDAA106000091GF104991041021008001001001MA1999999096001MD1999999-0041REMSYN070AAXX  09184 83288 32598 43202 10322 20248 39600 40086 84200 333 59004;EQDQ01  00002PRCP06
0198832880999992004041000004-13267-043417FM-12+0458SBLP V0201801N001512200019N0020001N1+02551+02391100961ADDAA106000091GF103991031021008001001001KA1240M+03311MA1999999096101MD1999999-0141REMSYN088AAXX  10004 83288 32595 31803 10255 20239 39610 40096 83200 333 10331 29079 55095 59014;EQDQ01  00002PRCP06
0186832880999992004041012004-13267-043417FM-12+0458SBLP V0200501N000512200019N0200001N1+02731+02191101001ADDAA106000091GF102991001001999999001011KA1240N+02121MA1999999096151MD1999999-0281REMSYN076AAXX  10124 83288 32998 20501 10273 20219 39615 40100 80001 333 20212 59028;EQDQ01  00002PRCP06
0167832880999992004041018004-13267-043417FM-12+0458SBLP V0203601N000511050019N0200001N1+03171+02331100521ADDAA106000091GF105991031021008001001021MA1999999095701MD1999999-0301REMSYN070AAXX  10184 83288 32598 53601 10317 20233 39570 40052 83202 333 59030;EQDQ01  00002PRCP06
0208832880999992004041100004-13267-043417FM-12+0458SBLP V0201801N001012200019N0020001N1+02631+02421100651ADDAA106000091GA1001+999999999GF100991001001999999001001KA1240M+03211MA1999999095821MD1999999-0281REMSYN082AAXX  11004 83288 32995 01802 10263 20242 39582 40065 333 10321 29075 55080 59028;EQDQ01  00002PRCP06
0186832880999992004041112004-13267-043417FM-12+0458SBLP V0201801N001510450019N0200001N1+02451+02191100921ADDAA106000091GF105991031051008001021001KA1240N+02191MA1999999096051MD1999999-0101REMSYN076AAXX  11124 83288 32598 51803 10245 20219 39605 40092 83520 333 20219 59010;EQDQ01  00002PRCP06
0167832880999992004041118004-13267-043417FM-12+0458SBLP V0201401N001010450019N0200001N1+03131+02081100471ADDAA106000091GF106991041021008001031021MA1999999095641MD1999999-0061REMSYN070AAXX  11184 83288 32598 61402 10313 20208 39564 40047 84232 333 59006;EQDQ01  00002PRCP06
0198832880999992004041200004-13267-043417FM-12+0458SBLP V0202701N000510450019N0020001N1+02671+02161100491ADDAA106000091GF105991031051008001021001KA1240M+03141MA1999999095851MD1999999-0031REMSYN088AAXX  12004 83288 32595 52701 10267 20216 39585 40049 83520 333 10314 29071 55032 59003;EQDQ01  00002PRCP06
0186832880999992004041212004-13267-043417FM-12+0458SBLP V0201801N001012200019N0200001N1+02591+02341101231ADDAA106000091GF102991011011008001001021KA1240N+02181MA1999999096351MD1999999+0301REMSYN076AAXX  12124 83288 32598 21802 10259 20234 39635 40123 81102 333 20218 58030;EQDQ01  00002PRCP06
0167832880999992004041218004-13267-043417FM-12+0458SBLP V0200901N001012200019N0200001N1+03211+02331100591ADDAA106000091GF104991021021008001031051MA1999999095771MD1999999+0131REMSYN070AAXX  12184 83288 32598 40902 10321 20233 39577 40059 82235 333 58013;EQDQ01  00002PRCP06
0198832880999992004041300004-13267-043417FM-12+0458SBLP V0201801N001512200019N0020001N1+02711+02381100931ADDAA106000091GF104991001001999999001051KA1240M+03311MA1999999096081MD1999999+0231REMSYN088AAXX  13004 83288 32995 41803 10271 20238 39608 40093 80005 333 10331 29076 55087 58023;EQDQ01  00002PRCP06
0186832880999992004041312004-13267-043417FM-12+0458SBLP V0201801N001019999999N0200001N1+02671+02261101171ADDAA106000091GF105991001001999999001061KA1240N+02281MA1999999096321MD1999999-0031REMSYN076AAXX  13124 83288 32998 51802 10267 20226 39632 40117 80006 333 20228 59003;EQDQ01  00002PRCP06
0167832880999992004041318004-13267-043417FM-12+0458SBLP V0201401N001010450019N0200001N1+02811+02381101001ADDAA106000091GF107991021021008001021061MA1999999096141MD1999999+0371REMSYN070AAXX  13184 83288 32598 71402 10281 20238 39614 40100 82226 333 58037;EQDQ01  00002PRCP06
0198832880999992004041400004-13267-043417FM-12+0458SBLP V0201801N001010450019N0020001N1+02371+02191101221ADDAA106000091GF108991041051008001021999KA1240M+02971MA1999999096331MD1999999+0251REMSYN088AAXX  14004 83288 32595 81802 10237 20219 39633 40122 8452/ 333 10297 29084 55019 58025;EQDQ01  00002PRCP06
0186832880999992004041412004-13267-043417FM-12+0458SBLP V0201401N000512200019N0200001N1+02691+02181101361ADDAA106000091GF103991021011008001031021KA1240N+02021MA1999999096471MD1999999+0151REMSYN076AAXX  14124 83288 32598 31401 10269 20218 39647 40136 82132 333 20202 58015;EQDQ01  00002PRCP06
0167832880999992004041418004-13267-043417FM-12+0458SBLP V0201801N001010450019N0200001N1+03091+02441100991ADDAA106000091GF105991041021008001021021MA1999999096141MD1999999+0001REMSYN070AAXX  14184 83288 32598 51802 10309 20244 39614 40099 84222 333 58000;EQDQ01  00002PRCP06
0214832880999992004041500004-13267-043417FM-12+0458SBLP V0201801N001512200019N0200001N1+02551+02111101051ADDAA106000091GF102991999011008001001001KA1240M+03171MA1999999096181MD1999999-0151REMSYN088AAXX  15004 83288 32598 21803 10255 20211 39618 40105 81100 333 10317 29071 55082 59015;EQDQ01+000012SCOTLCQ02  00002PRCP06
0186832880999992004041512004-13267-043417FM-12+0458SBLP V0201401N001512200019N0200001N1+02631+02171101281ADDAA106000091GF102991011011008001001021KA1240N+02101MA1999999096401MD1999999-0071REMSYN076AAXX  15124 83288 32598 21403 10263 20217 39640 40128 81102 333 20210 59007;EQDQ01  00002PRCP06
0167832880999992004041518004-13267-043417FM-12+0458SBLP V0201801N001512200019N0200001N1+03051+02371100881ADDAA106000091GF104991021021008001001051MA1999999096021MD1999999-0121REMSYN070AAXX  15184 83288 32598 41803 10305 20237 39602 40088 82205 333 59012;EQDQ01  00002PRCP06
0198832880999992004041600004-13267-043417FM-12+0458SBLP V0201801N001512200019N0020001N1+02411+02121101141ADDAA106000091GF103991031021008001001001KA1240M+03171MA1999999096251MD1999999+0071REMSYN088AAXX  16004 83288 32595 31803 10241 20212 39625 40114 83200 333 10317 29075 55098 58007;EQDQ01  00002PRCP06
0186832880999992004041612004-13267-043417FM-12+0458SBLP V0200901N000511050019N0200001N1+02451+02151101451ADDAA106000091GF107991011011008001001061KA1240N+02121MA1999999096541MD1999999+0141REMSYN076AAXX  16124 83288 32598 70901 10245 20215 39654 40145 81106 333 20212 58014;EQDQ01  00002PRCP06
0167832880999992004041618004-13267-043417FM-12+0458SBLP V0202301N000510450019N0200001N1+02821+02171101121ADDAA106000091GF107991011011008001031061MA1999999096231MD1999999+0111REMSYN070AAXX  16184 83288 32598 72301 10282 20217 39623 40112 81136 333 58011;EQDQ01  00002PRCP06
0198832880999992004041700004-13267-043417FM-12+0458SBLP V0201801N001512200019N0020001N1+02371+02111101291ADDAA106000091GF102991001001999999001011KA1240M+03031MA1999999096371MD1999999+0121REMSYN088AAXX  17004 83288 32995 21803 10237 20211 39637 40129 80001 333 10303 29081 55038 58012;EQDQ01  00002PRCP06
0186832880999992004041712004-13267-043417FM-12+0458SBLP V0201801N001010075019N0200001N1+02351+02051101681ADDAA106000091GF106991051051008001031021KA1240N+02061MA1999999096731MD1999999+0191REMSYN076AAXX  17124 83288 32598 61802 10235 20205 39673 40168 85532 333 20206 58019;EQDQ01  00002PRCP06
0167832880999992004041718004-13267-043417FM-12+0458SBLP V0201801N001510450019N0200001N1+02871+02031101261ADDAA106000091GF105991041021008001021001MA1999999096361MD1999999+0101REMSYN070AAXX  17184 83288 32598 51803 10287 20203 39636 40126 84220 333 58010;EQDQ01  00002PRCP06
0208832880999992004041800004-13267-043417FM-12+0458SBLP V0201801N001512200019N0020001N1+02321+02151101321ADDAA106000091GA1001+999999999GF100991001001999999001001KA1240M+02981MA1999999096441MD1999999+0071REMSYN082AAXX  18004 83288 32595 01803 10232 20215 39644 40132 333 10298 29078 55044 58007;EQDQ01  00002PRCP06
0186832880999992004041812004-13267-043417FM-12+0458SBLP V0200901N001012200019N0200001N1+02611+02221101561ADDAA106000091GF104991011011008001061051KA1240N+02001MA1999999096641MD1999999-0091REMSYN076AAXX  18124 83288 32598 40902 10261 20222 39664 40156 81165 333 20200 59009;EQDQ01  00002PRCP06
0167832880999992004041818004-13267-043417FM-12+0458SBLP V0201801N001511050019N0200001N1+03051+02421101091ADDAA106000091GF105991031021008001001051MA1999999096201MD1999999-0161REMSYN070AAXX  18184 83288 32598 51803 10305 20242 39620 40109 83205 333 59016;EQDQ01  00002PRCP06
0208832880999992004041900004-13267-043417FM-12+0458SBLP V0201801N001012200019N0020001N1+02491+02241101281ADDAA106000091GA1001+999999999GF100991001001999999001001KA1240M+03111MA1999999096391MD1999999-0051REMSYN082AAXX  19004 83288 32995 01802 10249 20224 39639 40128 333 10311 29078 55090 59005;EQDQ01  00002PRCP06
0186832880999992004041912004-13267-043417FM-12+0458SBLP V0201401N001512200019N0200001N1+02631+02141101451ADDAA106000091GF101991001001999999001041KA1240N+02101MA1999999096441MD1999999-0091REMSYN076AAXX  19124 83288 32998 11403 10263 20214 39644 40145 80004 333 20210 59009;EQDQ01  00002PRCP06
0167832880999992004041918004-13267-043417FM-12+0458SBLP V0202701N001012200019N0200001N1+03051+02091100981ADDAA106000091GF102991021021008001001001MA1999999096091MD1999999-0111REMSYN070AAXX  19184 83288 32598 22702 10305 20209 39609 40098 82200 333 59011;EQDQ01  00002PRCP06
0196832880999992004042012004-13267-043417FM-12+0458SBLP V0201401N001512200019N0200001N1+02571+02061101291ADDAA106000091GA1001+999999999GF100991001001999999001001KA1240N+02041MA1999999096401MD1999999-0151REMSYN070AAXX  20124 83288 32998 01403 10257 20206 39640 40129 333 20204 59015;EQDQ01  00002PRCP06
0183832880999992004042018004-13267-043417FM-12+0458SBLP V0201401N000519999999N0200001N1+03171+02171100871ADDAA106000091GF105991999021008001001001MA1999999096031MD1999999-0061REMSYN070AAXX  20184 83288 32598 51401 10317 20217 39603 40087 84200 333 59006;EQDQ01+000042SCOTLCQ02  00002PRCP06
0208832880999992004042100004-13267-043417FM-12+0458SBLP V0201801N001012200019N0020001N1+02641+02001100891ADDAA106000091GA1001+999999999GF100991001001999999001001KA1240M+03231MA1999999096031MD1999999-0121REMSYN082AAXX  21004 83288 32595 01802 10264 20200 39603 40089 333 10323 29067 55108 59012;EQDQ01  00002PRCP06
0186832880999992004042112004-13267-043417FM-12+0458SBLP V0201401N001512200019N0200001N1+02651+02171101361ADDAA106000091GF101991011011008001001001KA1240N+02101MA1999999096491MD1999999+0091REMSYN076AAXX  21124 83288 32598 11403 10265 20217 39649 40136 81100 333 20210 58009;EQDQ01  00002PRCP06
0167832880999992004042118004-13267-043417FM-12+0458SBLP V0201801N001010075019N0200001N1+03051+02321101061ADDAA106000091GF105991051021008001001001MA1999999096191MD1999999+0161REMSYN070AAXX  21184 83288 32598 51802 10305 20232 39619 40106 85200 333 58016;EQDQ01  00002PRCP06
0208832880999992004042200004-13267-043417FM-12+0458SBLP V0201801N001512200019N0020001N1+02421+02141101181ADDAA106000091GA1001+999999999GF100991001001999999001001KA1240M+03131MA1999999096301MD1999999+0271REMSYN082AAXX  22004 83288 32995 01803 10242 20214 39630 40118 333 10313 29075 55095 58027;EQDQ01  00002PRCP06
0183832880999992004042212004-13267-043417FM-12+0458SBLP V0201801N001512200019N0200001N1+02511+01981101381ADDAA106000091GA1001+999999999GF100991001001999999001001MA1999999096481MD1999999-0011REMSYN070AAXX  22124 83288 32998 01803 10251 20198 39648 40138 333 2//// 59001;EQDQ01  00002PRCP06
0167832880999992004042218004-13267-043417FM-12+0458SBLP V0201401N001512200019N0200001N1+03091+02401100911ADDAA106000091GF104991041021008001001001MA1999999096041MD1999999-0151REMSYN070AAXX  22184 83288 32598 41403 10309 20240 39604 40091 84200 333 59015;EQDQ01  00002PRCP06
0198832880999992004042300004-13267-043417FM-12+0458SBLP V0201801N001512200019N0020001N1+02411+02181101011ADDAA106000091GF102991021011008001001001KA1240M+03131MA1999999096121MD1999999-0281REMSYN088AAXX  23004 83288 32595 21803 10241 20218 39612 40101 82100 333 10313 29076 55108 59028;EQDQ01  00002PRCP06
0186832880999992004042312004-13267-043417FM-12+0458SBLP V0201401N001012200019N0200001N1+02531+02051101301ADDAA106000091GF102991011011008001001021KA1240N+02041MA1999999096391MD1999999-0351REMSYN076AAXX  23124 83288 32598 21402 10253 20205 39639 40130 81102 333 20204 59035;EQDQ01  00002PRCP06
0167832880999992004042318004-13267-043417FM-12+0458SBLP V0201401N002112200019N0200001N1+03011+02431100821ADDAA106000091GF103991031021008001001001MA1999999095961MD1999999-0081REMSYN070AAXX  23184 83288 32598 31404 10301 20243 39596 40082 83200 333 59008;EQDQ01  00002PRCP06
0208832880999992004042400004-13267-043417FM-12+0458SBLP V0201801N001012200019N0200001N1+02631+02011100781ADDAA106000091GA1001+999999999GF100991001001999999001001KA1240M+03081MA1999999095931MD1999999-0191REMSYN082AAXX  24004 83288 32598 01802 10263 20201 39593 40078 333 10308 29072 55092 59019;EQDQ01  00002PRCP06
0196832880999992004042412004-13267-043417FM-12+0458SBLP V0201801N001012200019N0200001N1+02511+02171101041ADDAA106000091GA1001+999999999GF100991001001999999001001KA1240N+01981MA1999999096171MD1999999-0221REMSYN070AAXX  24124 83288 32998 01802 10251 20217 39617 40104 333 20198 59022;EQDQ01  00002PRCP06
0167832880999992004042418004-13267-043417FM-12+0458SBLP V0202701N001512200019N0200001N1+03071+02371101691ADDAA106000091GF103991031011008001001001MA1999999095841MD1999999-0121REMSYN070AAXX  24184 83288 32598 32703 10307 20237 39584 40169 83100 333 59012;EQDQ01  00002PRCP06
0208832880999992004042500004-13267-043417FM-12+0458SBLP V0201801N001012200019N0020001N1+02671+01801100771ADDAA106000091GA1001+999999999GF100991001001999999001001KA1240M+03131MA1999999095921MD1999999-0011REMSYN082AAXX  25004 83288 32995 01802 10267 20180 39592 40077 333 10313 29071 55104 59001;EQDQ01  00002PRCP06
0196832880999992004042512004-13267-043417FM-12+0458SBLP V0202301N000512200019N0200001N1+02531+01961101171ADDAA106000091GA1001+999999999GF100991001001999999001001KA1240N+01821MA1999999096301MD1999999+0131REMSYN070AAXX  25124 83288 32998 02301 10253 20196 39630 40117 333 20182 58013;EQDQ01  00002PRCP06
0167832880999992004042518004-13267-043417FM-12+0458SBLP V0203601N000512200019N0200001N1+03211+01711100901ADDAA106000091GF104991041021008001001001MA1999999096041MD1999999+0201REMSYN070AAXX  25184 83288 32598 43601 10321 20171 39604 40090 84200 333 58020;EQDQ01  00002PRCP06
0208832880999992004042600004-13267-043417FM-12+0458SBLP V0200901N001012200019N0020001N1+02451+01901101001ADDAA106000091GA1001+999999999GF100991001001999999001001KA1240M+03311MA1999999096121MD1999999+0201REMSYN082AAXX  26004 83288 32995 00902 10245 20190 39612 40100 333 10331 29064 55104 58020;EQDQ01  00002PRCP06
0196832880999992004042612004-13267-043417FM-12+0458SBLP V0201401N000512200019N0200001N1+02551+01981101151ADDAA106000091GA1001+999999999GF100991001001999999001001KA1240N+01881MA1999999096481MD1999999-0181REMSYN070AAXX  26124 83288 32998 01401 10255 20198 39648 40115 333 20188 59018;EQDQ01  00002PRCP06
0167832880999992004042618004-13267-043417FM-12+0458SBLP V0201801N001512200019N0200001N1+03211+01751100871ADDAA106000091GF104991001001999999001051MA1999999096011MD1999999-0031REMSYN070AAXX  26184 83288 32998 41803 10321 20175 39601 40087 80005 333 59003;EQDQ01  00002PRCP06
0208832880999992004042700004-13267-043417FM-12+0458SBLP V0201801N000512200019N0020001N1+02531+01791101001ADDAA106000091GA1001+999999999GF100991001001999999001001KA1240M+03291MA1999999096121MD1999999+0001REMSYN082AAXX  27004 83288 32995 01801 10253 20179 39612 40100 333 10329 29058 55099 58000;EQDQ01  00002PRCP06
0186832880999992004042712004-13267-043417FM-12+0458SBLP V0201801N001512200019N0200001N1+02551+02121101411ADDAA106000091GF102991001001999999001021KA1240N+02041MA1999999096521MD1999999+0211REMSYN076AAXX  27124 83288 32998 21803 10255 20212 39652 40141 80002 333 20204 58021;EQDQ01  00002PRCP06
0167832880999992004042718004-13267-043417FM-12+0458SBLP V0202301N001012200019N0200001N1+03111+02371101071ADDAA106000091GF103991031011004501001001MA1999999096221MD1999999+0211REMSYN070AAXX  27184 83288 32498 32302 10311 20237 39622 40107 83100 333 58021;EQDQ01  00002PRCP06
0198832880999992004042800004-13267-043417FM-12+0458SBLP V0201801N001512200019N0020001N1+02451+01981101361ADDAA106000091GF101991011011008001001001KA1240M+03151MA1999999096461MD1999999+0341REMSYN088AAXX  28004 83288 32595 11803 10245 20198 39646 40136 81100 333 10315 29072 55104 58034;EQDQ01  00002PRCP06
0186832880999992004042812004-13267-043417FM-12+0458SBLP V0202301N002112200019N0200001N1+02491+02051101601ADDAA106000091GF101991001001999999001021KA1240N+01981MA1999999096681MD1999999+0161REMSYN076AAXX  28124 83288 32998 12304 10249 20205 39668 40160 80002 333 20198 58016;EQDQ01  00002PRCP06
0167832880999992004042818004-13267-043417FM-12+0458SBLP V0201401N001512200019N0200001N1+03091+02211101091ADDAA106000091GF104991031021008001001011MA1999999096231MD1999999+0011REMSYN070AAXX  28184 83288 32598 41403 10309 20221 39623 40109 83201 333 58001;EQDQ01  00002PRCP06
0202832880999992004042900004-13267-043417FM-12+0458SBLP V0201401N001512200019N0020001N1+02331+02051101421ADDAY161061AY261061GF102991021011999999001001KA1240M+03141MA1999999096501MD1999999+0041MW1011REMSYN100AAXX  29004 83288 21995 21403 10233 20205 39650 40142 70166 82100 333 10314 29076 55089 58004 60011;
0162832880999992004042912004-13267-043417FM-12+0458SBLP V0201801N001512200019N0200001N1+02281+02161101581ADDGF103991021011008001001021KA1240N+01981MA1999999096381MD1999999+0151REMSYN082AAXX  29124 83288 22598 31803 10228 20216 39638 40158 82102 333 20198 58015 60014;
0183832880999992004042918004-13267-043417FM-12+0458SBLP V0201401N001010075019N0200001N1+02951+02081101341ADDAA106000091GF106991999021008001001001MA1999999096461MD1999999+0231REMSYN070AAXX  29184 83288 32598 61402 10295 20208 39646 40134 85200 333 58023;EQDQ01+000052SCOTLCQ02  00002PRCP06
0198832880999992004043000004-13267-043417FM-12+0458SBLP V0201401N001510450019N0020001N1+02351+01761101431ADDAA106000091GF106991041081008001021001KA1240M+02981MA1999999096481MD1999999-0021REMSYN088AAXX  30004 83288 32595 61403 10235 20176 39648 40143 84820 333 10298 29072 55090 59002;EQDQ01  00002PRCP06
0196832880999992004043012004-13267-043417FM-12+0458SBLP V0201801N001012200019N0200001N1+02391+01911101521ADDAA106000091GA1001+999999999GF100991001001999999001001KA1240N+01841MA1999999096581MD1999999-0131REMSYN070AAXX  30124 83288 32998 01802 10239 20191 39658 40152 333 20184 59013;EQDQ01  00002PRCP06
0167832880999992004043018004-13267-043417FM-12+0458SBLP V0201401N001012200019N0200001N1+02971+02021100931ADDAA106000091GF102991021021008001001041MA1999999096061MD1999999-0401REMSYN070AAXX  30184 83288 32598 21402 10297 20202 39606 40093 82204 333 59040;EQDQ01  00002PRCP06
0198832880999992004050100004-13267-043417FM-12+0458SBLP V0200901N000512200019N0020001N1+02391+01951101191ADDAA106000091GF102991021081008001001001KA1240M+03081MA1999999096281MD1999999-0201REMSYN088AAXX  01004 83288 32595 20901 10239 20195 39628 40119 82800 333 10308 29071 55105 59020;EQDQ01  00002PRCP06
0196832880999992004050112004-13267-043417FM-12+0458SBLP V0201401N000512200019N0200001N1+02491+01981101291ADDAA106000091GA1001+999999999GF100991001001999999001001KA1240N+01861MA1999999096381MD1999999-0201REMSYN070AAXX  01124 83288 32998 01401 10249 20198 39638 40129 333 20186 59020;EQDQ01  00002PRCP06
0167832880999992004050118004-13267-043417FM-12+0458SBLP V0201401N001012200019N0200001N1+03131+02191100751ADDAA106000091GF103991031021008001001001MA1999999095911MD1999999-0151REMSYN070AAXX  01184 83288 32598 31402 10313 20219 39591 40075 83200 333 59015;EQDQ01  00002PRCP06
0198832880999992004050200004-13267-043417FM-12+0458SBLP V0200901N000512200019N0020001N1+02551+02041101121ADDAA106000091GF101991011021008001001001KA1240M+03191MA1999999096231MD1999999-0051REMSYN088AAXX  02004 83288 32595 10901 10255 20204 39623 40112 81200 333 10319 29070 55103 59005;EQDQ01  00002PRCP06
0196832880999992004050212004-13267-043417FM-12+0458SBLP V0201801N000512200019N0200001N1+02551+02041101471ADDAA106000091GA1001+999999999GF100991001001999999001001KA1240N+02041MA1999999096571MD1999999+0191REMSYN070AAXX  02124 83288 32998 01801 10255 20204 39657 40147 333 20204 58019;EQDQ01  00002PRCP06
0183832880999992004050218004-13267-043417FM-12+0458SBLP V0201401N000519999999N0200001N1+03141+02101100971ADDAA106000091GF105991999021008001001001MA1999999096141MD1999999+0231REMSYN070AAXX  02184 83288 32598 51401 10314 20210 39614 40097 84200 333 58023;EQDQ01+000042SCOTLCQ02  00002PRCP06
0171832880999992004050312004-13267-043417FM-12+0458SBLP V0201801N001512200019N0200001N1+02611+02201101471ADDAA106000091GF101991011011008001001001KA1240N+02021MA1999999096581REMSYN075AAXX  03124 83288 32598 11803 10261 20220 39658 40147 81100 333 20202 5801;EQDQ01  00002PRCP06
0078832880999992004050318004-13267-043417FM-12+0458SBLP V02099999999999999999N9999999N1+99999+99999999999REMSYN069AAXX  03184 83288 32598 3104 10301 20217 39623 40110 83100 333 58009;
0208832880999992004050400004-13267-043417FM-12+0458SBLP V0201801N001512200019N0020001N1+02251+01931101301ADDAA106000091GA1001+999999999GF100991001001999999001001KA1240M+03111MA1999999096381MD1999999+0161REMSYN082AAXX  04004 83288 32995 01803 10225 20193 39638 40130 333 10311 29074 55091 58016;EQDQ01  00002PRCP06
0186832880999992004050412004-13267-043417FM-12+0458SBLP V0201801N003111050019N0200001N1+02551+02041101601ADDAA106000091GF105991021081008001061081KA1240N+01781MA1999999096671MD1999999+0091REMSYN076AAXX  04124 83288 32598 51806 10255 20204 39667 40160 82868 333 20178 58009;EQDQ01  00002PRCP06
0208832880999992004050500004-13267-043417FM-12+0458SBLP V0201801N002112200019N0020001N1+02371+01891101281ADDAA106000091GA1001+999999999GF100991001001999999001001KA1240M+03001MA1999999096371MD1999999-0011REMSYN082AAXX  05004 83288 32995 01804 10237 20189 39637 40128 333 10300 29071 55075 59001;EQDQ01  00002PRCP06
0186832880999992004050512004-13267-043417FM-12+0458SBLP V0201801N001512200019N0200001N1+02451+01881101801ADDAA106000091GF105991041011008001001011KA1240N+01921MA1999999096861MD1999999+0191REMSYN076AAXX  05124 83288 32598 51803 10245 20188 39686 40180 84101 333 20192 58019;EQDQ01  00002PRCP06
0167832880999992004050518004-13267-043417FM-12+0458SBLP V0201401N001010450019N0200001N1+02951+02051101161ADDAA106000091GF106991031081008001021001MA1999999096271MD1999999+0041REMSYN070AAXX  05184 83288 32598 61402 10295 20205 39627 40116 83820 333 58004;EQDQ01  00002PRCP06
0198832880999992004050600004-13267-043417FM-12+0458SBLP V0201401N001010450019N0020001N1+02921+02021101191ADDAA106000091GF105991031011008001021001KA1240M+03051MA1999999096511MD1999999-0141REMSYN088AAXX  06004 83288 32595 51402 10292 20202 39651 40119 83120 333 10305 29063 55071 59014;EQDQ01  00002PRCP06
0186832880999992004050612004-13267-043417FM-12+0458SBLP V0200901N001012200019N0200001N1+02531+02141101581ADDAA106000091GF101991011011008001001001KA1240N+01191MA1999999096671MD1999999-0191REMSYN076AAXX  06124 83288 32598 10902 10253 20214 39667 40158 81100 333 20119 59019;EQDQ01  00002PRCP06
0167832880999992004050618004-13267-043417FM-12+0458SBLP V0201801N002112200019N0200001N1+03111+02181101131ADDAA106000091GF103991031011008001001001MA1999999096251MD1999999-0021REMSYN070AAXX  06184 83288 32598 31804 10311 20218 39625 40113 83100 333 59002;EQDQ01  00002PRCP06
0198832880999992004050700004-13267-043417FM-12+0458SBLP V0201801N001012200019N0020001N1+02431+01961101341ADDAA106000091GF102991021011008001001001KA1240M+03191MA1999999096441MD1999999+0331REMSYN088AAXX  07004 83288 32595 21802 10243 20196 39644 40134 82100 333 10319 29071 55100 58033;EQDQ01  00002PRCP06
0186832880999992004050712004-13267-043417FM-12+0458SBLP V0201401N001512200019N0200001N1+02571+02151101571ADDAA106000091GF101991001001999999001011KA1240N+01941MA1999999096661MD1999999-0011REMSYN076AAXX  07124 83288 32998 11403 10257 20215 39666 40157 80001 333 20194 59001;EQDQ01  00002PRCP06
