0208834980999992004010100004-17733-039250FM-12+000399999V0200501N002612200019N0020001N1+02511+02211101421ADDAA106000091GA1001+999999999GF100991001001999999001001KA1240M+03101MA1999999101371MD1999999-0171REMSYN082AAXX  01004 83498 32595 00505 10251 20221 30137 40142 333 10310 29075 55080 59017;EQDQ01  00002PRCP06
0186834980999992004010112004-17733-039250FM-12+000399999V0203601N004112200019N0020001N1+02941+02191101351ADDAA106000091GF104991041011008001001001KA1240N+02301MA1999999101301MD1999999-0251REMSYN076AAXX  01124 83498 32595 43608 10294 20219 30130 40135 84100 333 20230 59025;EQDQ01  00002PRCP06
0183834980999992004010118004-17733-039250FM-12+000399999V0200501N005112200019N0020001N1+03061+02141100941ADDAA106000091GF104991021011008001001011MA1999999099892MD1999999-0301REMSYN070AAXX  01184 83498 32595 40510 10306 20214 39989 40094 82101 333 59030;EQDQ01+099893APOSP Q02  00002PRCP06
0186834980999992004010212004-17733-039250FM-12+000399999V0203601N005711050019N0020001N1+02931+02291101201ADDAA106000091GF105991031021008001001021KA1240N+02421MA1999999101151MD1999999-0151REMSYN076AAXX  02124 83498 32595 53611 10293 20229 30115 40120 83202 333 20242 59015;EQDQ01  00002PRCP06
0183834980999992004010218004-17733-039250FM-12+000399999V0203601N005119999999N0020001N1+03041+02281100901ADDAA106000091GF105991001001999999001081MA1999999100851MD1999999-0041REMSYN070AAXX  02184 83498 32795 53610 10304 20228 30085 40090 80008 333 59004;EQDQ01+017502SCOLCBQ02  00002PRCP06
0214834980999992004010300004-17733-039250FM-12+000399999V0200501N002119999999N0020001N1+02611+02391101191ADDAA106000091GF105991001001999999001081KA1240M+03141MA1999999101141MD1999999-0061REMSYN088AAXX  03004 83498 32795 50504 10261 20239 30114 40119 80008 333 10314 29077 55083 59006;EQDQ01+017502SCOLCBQ02  00002PRCP06
0190834980999992004010312004-17733-039250FM-12+000399999V0201801N003110450019N0020001N1+02541+02251101441ADDAY161061AY221061GF108991041071008001021999KA1240N+02291MA1999999101391MD1999999+0241MW1211REMSYN088AAXX  03124 83498 21595 81806 10254 20225 30139 40144 72162 8472/ 333 20229 58024 60214;
0171834980999992004010318004-17733-039250FM-12+000399999V0201801N003610075019N0020001N1+02541+02271101251ADDAY161061AY261061GF108991061071008001021999MA1999999101201MD1999999+0351MW1601REMSYN082AAXX  03184 83498 21595 81807 10254 20227 30120 40125 76066 8672/ 333 58035 69941;
0190834980999992004010412004-17733-039250FM-12+000399999V0201801N004110450019N0020001N1+02491+02381101381ADDAY161061AY261061GF108991031071008001021999KA1240N+02361MA1999999101331MD1999999-0061MW1211REMSYN088AAXX  04124 83498 21595 81808 10249 20238 30133 40138 72166 8372/ 333 20236 59006 60184;
0202834980999992004010500004-17733-039250FM-12+000399999V0201801N002610450019N0020001N1+02421+02351101421ADDAY161061AY261061GF108991031071008001021999KA1240M+02681MA1999999101391MD1999999+0061MW1211REMSYN100AAXX  05004 83498 21595 81805 10242 20235 30139 40142 72166 8372/ 333 10268 29094 55000 58006 60411;
0190834980999992004010512004-17733-039250FM-12+000399999V0201401N001510075019N0020001N1+02521+02311101391ADDAY161061AY261061GF108991051071008001021999KA1240N+02351MA1999999101341MD1999999+0011MW1211REMSYN088AAXX  05124 83498 21595 81403 10252 20231 30134 40139 72166 8572/ 333 20235 58001 60594;
0171834980999992004010518004-17733-039250FM-12+000399999V0201401N002611050019N0020001N1+02841+02481101231ADDAY161061AY261061GF106991041021008001001021MA1999999101181MD1999999+0001MW1211REMSYN082AAXX  05184 83498 21595 61405 10284 20248 30118 40123 72166 84202 333 58000 60021;
0179834980999992004010600004-17733-039250FM-12+000399999V0201401N001012200019N0020001N1+02641+02371101471ADDAA106000021GF104991021021008001001011KA1240M+02931MA1999999101421MD1999999+0031REMSYN088AAXX  06004 83498 32595 41402 10264 20237 30142 40147 82201 333 10293 29085 55041 58003;
0162834980999992004010612004-17733-039250FM-12+000399999V0202301N001010450019N0020001N1+02721+02321101531ADDGF107991041051008001031001KA1240N+02311MA1999999101481MD1999999+0141REMSYN082AAXX  06124 83498 22595 72302 10272 20232 30148 40153 84530 333 20231 58014 60024;
0171834980999992004010618004-17733-039250FM-12+000399999V0200501N004610450019N0020001N1+02991+02281101351ADDAY161061AY221061GF106991041021008001031041MA1999999101301MD1999999+0121MW1011REMSYN082AAXX  06184 83498 21595 60509 10299 20228 30130 40135 70162 84234 333 58012 69921;
0198834980999992004010700004-17733-039250FM-12+000399999V0200501N001012200019N0020001N1+02461+02171101511ADDAA106000091GF106991021011008001001041KA1240M+03061MA1999999101461MD1999999+0041REMSYN088AAXX  07004 83498 32595 60502 10246 20217 30146 40151 82104 333 10306 29078 55043 58004;EQDQ01  00002PRCP06
0190834980999992004010712004-17733-039250FM-12+000399999V0203201N001010450019N0020001N1+02581+02311101571ADDAY161061AY261061GF108991041061008001011999KA1240N+02351MA1999999101521MD1999999+0041MW1601REMSYN088AAXX  07124 83498 21595 83202 10258 20231 30152 40157 76066 8461/ 333 20235 58004 69984;
0148834980999992004010718004-17733-039250FM-12+000399999V0200501N003110450019N0020001N1+02981+02151101331ADDAA106000021GF106991021011008001031021MA1999999101281MD1999999-0021REMSYN070AAXX  07184 83498 32595 60506 10298 20215 30128 40133 82132 333 59002;
0198834980999992004010800004-17733-039250FM-12+000399999V0200501N001510450019N0020001N1+02621+02291101451ADDAA106000091GF106991021011008001031091KA1240M+03061MA1999999101401MD1999999-0061REMSYN088AAXX  08004 83498 32595 60503 10262 20229 30140 40145 82139 333 10306 29078 55026 59006;EQDQ01  00002PRCP06
0186834980999992004010812004-17733-039250FM-12+000399999V0200501N002610450019N0020001N1+02791+02321101441ADDAA106000091GF108991041051008001021999KA1240N+02471MA1999999101391MD1999999-0131REMSYN076AAXX  08124 83498 32595 80505 10279 20232 30139 40144 8452/ 333 20247 59013;EQDQ01  00002PRCP06
0167834980999992004010818004-17733-039250FM-12+000399999V0200501N004112200019N0020001N1+02971+02281101211ADDAA106000091GF106991011011008001001061MA1999999101161MD1999999-0121REMSYN070AAXX  08184 83498 32595 60508 10297 20228 30116 40121 81106 333 59012;EQDQ01  00002PRCP06
0198834980999992004010900004-17733-039250FM-12+000399999V0200501N001510450019N0020001N1+02571+02311101371ADDAA106000091GF106991031041008001031001KA1240M+03071MA1999999101321MD1999999-0081REMSYN088AAXX  09004 83498 32595 60503 10257 20231 30132 40137 83430 333 10307 29079 55029 59008;EQDQ01  00002PRCP06
0186834980999992004010912004-17733-039250FM-12+000399999V0200501N003110450019N0020001N1+02861+02391101231ADDAA106000091GF108991041021008001011999KA1240N+02471MA1999999101181MD1999999-0211REMSYN076AAXX  09124 83498 32595 80506 10286 20239 30118 40123 8421/ 333 20247 59021;EQDQ01  00002PRCP06
0167834980999992004010918004-17733-039250FM-12+000399999V0200501N005110450019N0020001N1+02981+02281101011ADDAA106000091GF108991031011008001041021MA1999999100961MD1999999-0201REMSYN070AAXX  09184 83498 32595 80510 10298 20228 30096 40101 83142 333 59020;EQDQ01  00002PRCP06
0198834980999992004011000004-17733-039250FM-12+000399999V0200501N001510450019N0020001N1+02741+02431101231ADDAA106000091GF105991031011008001041001KA1240M+03071MA1999999101181MD1999999-0141REMSYN088AAXX  10004 83498 32595 50503 10274 20243 30118 40123 83140 333 10307 29077 55043 59014;EQDQ01  00002PRCP06
0186834980999992004011012004-17733-039250FM-12+000399999V0203601N003610450019N0020001N1+02721+02281101171ADDAA106000091GF108991031051008001071999KA1240N+02481MA1999999101121MD1999999-0061REMSYN076AAXX  10124 83498 32595 83607 10272 20228 30112 40117 8357/ 333 20248 59006;EQDQ01  00002PRCP06
0167834980999992004011018004-17733-039250FM-12+000399999V0200501N003110450019N0020001N1+02771+02401100861ADDAA106000091GF108991011011008001071999MA1999999100811MD1999999-0151REMSYN070AAXX  10184 83498 32595 80506 10277 20240 30081 40086 8117/ 333 59015;EQDQ01  00002PRCP06
0190834980999992004011112004-17733-039250FM-12+000399999V0203601N003610450019N0020001N1+02821+02401101151ADDAY161061AY221061GF108991041051008001011999KA1240N+02501MA1999999101101MD1999999-0021MW1211REMSYN088AAXX  11124 83498 21595 83607 10282 20240 30110 40115 72162 8451/ 333 20250 59002 69924;
0148834980999992004011118004-17733-039250FM-12+000399999V0203601N005110075019N0020001N1+02821+02421100941ADDAA106000021GF108991051051008001011999MA1999999100891MD1999999+0081REMSYN070AAXX  11184 83498 32595 83610 10282 20242 30089 40094 8551/ 333 58008;
0162834980999992004011212004-17733-039250FM-12+000399999V0200501N003619999999N0020001N1+02911+02391101181ADDGF107991071001012501071001KA1240N+02421MA1999999101131MD1999999+0031REMSYN082AAXX  12124 83498 22695 70507 10291 20239 30113 40118 87070 333 20242 58003 60024;
0167834980999992004011218004-17733-039250FM-12+000399999V0200501N005110450019N0020001N1+02891+02301100831ADDAA106000091GF107991011011008001071081MA1999999100781MD1999999-0111REMSYN070AAXX  12184 83498 32595 70510 10289 20230 30078 40083 81178 333 59011;EQDQ01  00002PRCP06
0202834980999992004011300004-17733-039250FM-12+000399999V0203601N002110450019N0020001N1+02571+02401101041ADDAY161061AY221061GF108991021051008001071999KA1240M+03151MA1999999100991MD1999999-0141MW1211REMSYN100AAXX  13004 83498 21595 83604 10257 20240 30099 40104 72162 8257/ 333 10315 29082 55006 59014 69941;
0190834980999992004011312004-17733-039250FM-12+000399999V0203601N004610075019N0020001N1+02681+02451101081ADDAY161061AY261061GF108991061061008001021999KA1240N+02591MA1999999101031MD1999999-0101MW1211REMSYN088AAXX  13124 83498 21595 83609 10268 20245 30103 40108 72166 8662/ 333 20259 59010 60054;
0148834980999992004011318004-17733-039250FM-12+000399999V0200501N006710075019N0020001N1+02791+02441100771ADDAA106000021GF108991051061008001071999MA1999999100721MD1999999-0061REMSYN070AAXX  13184 83498 32595 80513 10279 20244 30072 40077 8567/ 333 59006;
0202834980999992004011400004-17733-039250FM-12+000399999V0200501N004610450019N0020001N1+02571+02441101061ADDAY161061AY261061GF108991031071008001071999KA1240M+02931MA1999999101011MD1999999+0021MW1211REMSYN100AAXX  14004 83498 21595 80509 10257 20244 30101 40106 72166 8377/ 333 10293 29089 55000 58002 69931;
0162834980999992004011412004-17733-039250FM-12+000399999V0203601N005110450019N0020001N1+02801+02481101051ADDGF107991041061008001071001KA1240N+02601MA1999999101001MD1999999-0031REMSYN082AAXX  14124 83498 22595 73610 10280 20248 30100 40105 84670 333 20260 59003 69974;
0167834980999992004011418004-17733-039250FM-12+000399999V0200501N006210450019N0020001N1+02881+02371100731ADDAA106000091GF106991031021008001021081MA1999999100681MD1999999+0041REMSYN070AAXX  14184 83498 32595 60512 10288 20237 30068 40073 83228 333 58004;EQDQ01  00002PRCP06
0202834980999992004011500004-17733-039250FM-12+000399999V0203601N004110450019N0020001N1+02511+02401100951ADDAY161061AY221061GF108991031071008001071999KA1240M+02901MA1999999100901MD1999999-0111MW1211REMSYN100AAXX  15004 83498 21595 83608 10251 20240 30090 40095 72162 8377/ 333 10290 29086 55004 59011 60041;
0190834980999992004011512004-17733-039250FM-12+000399999V0203601N003110450019N0020001N1+02591+02421100881ADDAY161061AY261061GF108991031071008001021999KA1240N+02491MA1999999100831MD1999999-0171MW1211REMSYN088AAXX  15124 83498 21595 83606 10259 20242 30083 40088 72166 8372/ 333 20249 59017 60074;
0155834980999992004011518004-17733-039250FM-12+000399999V0203601N004610075019N0020001N1+02731+02431100541ADDGF108991061051008001021999MA1999999100491MD1999999-0191MW1211REMSYN082AAXX  15184 83498 21595 83609 10273 20243 30049 40054 721// 8652/ 333 59019 69911;
0202834980999992004011600004-17733-039250FM-12+000399999V0203601N006210450019N0020001N1+02571+02471100801ADDAY161061AY261061GF108991031071008001021999KA1240M+02881MA1999999100751MD1999999-0151MW1211REMSYN100AAXX  16004 83498 21595 83612 10257 20247 30075 40080 72166 8372/ 333 10288 29091 55000 59015 60031;
0209834980999992004011612004-17733-039250FM-12+000399999V0203601N003110120019N0020001N1+02621+02441100711ADDAY161061AY261061GF108991999081008001001071KA1240N+02531MA1999999100661MD1999999-0131MW1211REMSYN088AAXX  16124 83498 21595 83606 10262 20244 30066 40071 72166 88807 333 20253 59013 60054;EQDQ01+000082SCOTLC
0148834980999992004011618004-17733-039250FM-12+000399999V0200501N003610450019N0020001N1+02911+02501100431ADDAA106000021GF106991021031008001071001MA1999999100381MD1999999-0111REMSYN070AAXX  16184 83498 32595 60507 10291 20250 30038 40043 82370 333 59011;
0202834980999992004011700004-17733-039250FM-12+000399999V0203201N000510450019N0020001N1+02461+02371100801ADDAY161061AY221061GF108991031051012501071999KA1240M+03061MA1999999100751MD1999999+0001MW1291REMSYN100AAXX  17004 83498 21695 83201 10246 20237 30075 40080 72962 8357/ 333 10306 29090 55000 58000 60081;
0162834980999992004011712004-17733-039250FM-12+000399999V0201801N007210450019N0020001N1+02691+02351100951ADDGF107991041051008001021001KA1240N+02481MA1999999100901MD1999999+0241REMSYN082AAXX  17124 83498 22595 71814 10269 20235 30090 40095 84520 333 20248 58024 60084;
0171834980999992004011718004-17733-039250FM-12+000399999V0201801N007710450019N0020001N1+02731+02321100881ADDAY161061AY261061GF108991041051008001021999MA1999999100831MD1999999+0451MW1211REMSYN082AAXX  17184 83498 21595 81815 10273 20232 30083 40088 72166 8452/ 333 58045 69911;
0186834980999992004011912004-17733-039250FM-12+000399999V0201801N007712200019N0020001N1+02731+01901101311ADDAA106000091GF102991021011008001001001KA1240N+02501MA1999999101261MD1999999+0091REMSYN076AAXX  19124 83498 32595 21815 10273 20190 30126 40131 82100 333 20250 58009;EQDQ01  00002PRCP06
0167834980999992004011918004-17733-039250FM-12+000399999V0201801N005112200019N0020001N1+02711+02011101141ADDAA106000091GF103991031021008001001001MA1999999101091MD1999999+0081REMSYN070AAXX  19184 83498 32595 31810 10271 20201 30109 40114 83200 333 58008;EQDQ01  00002PRCP06
0198834980999992004012000004-17733-039250FM-12+000399999V0201401N005110450019N0020001N1+02531+01961101301ADDAA106000091GF105991031061008001011001KA1240M+02841MA1999999101251MD1999999-0011REMSYN088AAXX  20004 83498 32595 51410 10253 20196 30125 40130 83610 333 10284 29067 55113 59001;EQDQ01  00002PRCP06
0190834980999992004012012004-17733-039250FM-12+000399999V0201801N005110450019N0020001N1+02421+02191101321ADDAY151061AY261061GF108991031071008001021999KA1240N+02351MA1999999101271MD1999999+0011MW1511REMSYN088AAXX  20124 83498 21595 81810 10242 20219 30127 40132 75156 8372/ 333 20235 58001 69944;
0171834980999992004012018004-17733-039250FM-12+000399999V0201801N004110450019N0020001N1+02361+02261101141ADDAY161061AY221061GF108991041071008001021999MA1999999101091MD1999999+0001MW1211REMSYN082AAXX  20184 83498 21595 81808 10236 20226 30109 40114 72162 8472/ 333 58000 60041;
0202834980999992004012100004-17733-039250FM-12+000399999V0201801N006210075019N0020001N1+02441+02321101191ADDAY161061AY261061GF108991051071008001021999KA1240M+02601MA1999999101141MD1999999-0111MW1211REMSYN100AAXX  21004 83498 21595 81812 10244 20232 30114 40119 72166 8572/ 333 10260 29092 55000 59011 60041;
0190834980999992004012112004-17733-039250FM-12+000399999V0200501N005110450019N0020001N1+02791+02441101141ADDAY161061AY221061GF106991041051008001041001KA1240N+02401MA1999999101091MD1999999-0181MW1211REMSYN088AAXX  21124 83498 21595 60510 10279 20244 30109 40114 72162 84540 333 20240 59018 60114;
0148834980999992004012118004-17733-039250FM-12+000399999V0200501N006212200019N0020001N1+02941+02311100931ADDAA106000021GF103991021031008001041001MA1999999100881MD1999999-0211REMSYN070AAXX  21184 83498 32595 30512 10294 20231 30088 40093 82340 333 59021;
0208834980999992004012200004-17733-039250FM-12+000399999V0200501N002612200019N0020001N1+02561+02421101161ADDAA106000091GA1001+999999999GF100991001001999999001001KA1240M+03001MA1999999101111MD1999999-0031REMSYN082AAXX  22004 83498 32995 00505 10256 20242 30111 40116 333 10300 29084 55076 59003;EQDQ01  00002PRCP06
0186834980999992004012212004-17733-039250FM-12+000399999V0200501N005711050019N0020001N1+02731+02241101181ADDAA106000091GF107991041041008001001081KA1240N+02511MA1999999101131MD1999999+0041REMSYN076AAXX  22124 83498 32595 70511 10273 20224 30113 40118 84408 333 20251 58004;EQDQ01  00002PRCP06
0198834980999992004012300004-17733-039250FM-12+000399999V0200501N002112200019N0020001N1+02561+02271101261ADDAA106000091GF104991021021008001021001KA1240M+02981MA1999999101211MD1999999+0101REMSYN088AAXX  23004 83498 32595 40504 10256 20227 30121 40126 82220 333 10298 29077 55012 58010;EQDQ01  00002PRCP06
0186834980999992004012312004-17733-039250FM-12+000399999V0200501N003110075019N0020001N1+02691+02201101361ADDAA106000091GF108991051051008001021999KA1240N+02431MA1999999101311MD1999999+0181REMSYN076AAXX  23124 83498 32595 80506 10269 20220 30131 40136 8552/ 333 20243 58018;EQDQ01  00002PRCP06
0167834980999992004012318004-17733-039250FM-12+000399999V0200501N004610450019N0020001N1+02811+02291101211ADDAA106000091GF106991041051008001041001MA1999999101161MD1999999+0231REMSYN070AAXX  23184 83498 32595 60509 10281 20229 30116 40121 84540 333 58023;EQDQ01  00002PRCP06
0208834980999992004012400004-17733-039250FM-12+000399999V0200501N000512200019N0020001N1+02511+02271101401ADDAA106000091GA1001+999999999GF100991001001999999001001KA1240M+02941MA1999999101351MD1999999+0141REMSYN082AAXX  24004 83498 32995 00501 10251 20227 30135 40140 333 10294 29081 55001 58014;EQDQ01  00002PRCP06
0190834980999992004012412004-17733-039250FM-12+000399999V0200501N004110450019N0020001N1+02731+02321101471ADDAY161061AY221061GF106991031021008001031091KA1240N+02351MA1999999101421MD1999999+0111MW1211REMSYN088AAXX  24124 83498 21595 60508 10273 20232 30142 40147 72162 83239 333 20235 58011 60014;
0148834980999992004012418004-17733-039250FM-12+000399999V0200901N004111050019N0020001N1+02901+02221101321ADDAA106000021GF106991041021008001001031MA1999999101271MD1999999+0111REMSYN070AAXX  24184 83498 32595 60908 10290 20222 30127 40132 84203 333 58011;
0190834980999992004012512004-17733-039250FM-12+000399999V0200501N003110450019N0020001N1+02891+02281101491ADDAY101061AY231061GF106991041051008001041001KA1240N+02281MA1999999101441MD1999999+0021MW1211REMSYN088AAXX  25124 83498 21595 60506 10289 20228 30144 40149 72103 84540 333 20228 58002 60024;
0148834980999992004012518004-17733-039250FM-12+000399999V0200501N004111050019N0020001N1+02991+02121101281ADDAA106000021GF105991011011008001001051MA1999999101221MD1999999-0041REMSYN070AAXX  25184 83498 32595 50508 10299 20212 30122 40128 81105 333 59004;
0198834980999992004012600004-17733-039250FM-12+000399999V0200501N001012200019N0020001N1+02501+02251101421ADDAA106000091GF103991011011008001001051KA1240M+03081MA1999999101371MD1999999-0071REMSYN088AAXX  26004 83498 32595 30502 10250 20225 30137 40142 81105 333 10308 29076 55086 59007;EQDQ01  00002PRCP06
0186834980999992004012612004-17733-039250FM-12+000399999V0200501N002111050019N0020001N1+02951+02111101451ADDAA106000091GF106991031021008001001021KA1240N+02331MA1999999101401MD1999999-0041REMSYN076AAXX  26124 83498 32595 60504 10295 20211 30140 40145 83202 333 20233 59004;EQDQ01  00002PRCP06
0167834980999992004012618004-17733-039250FM-12+000399999V0200501N003611050019N0020001N1+02971+02181101231ADDAA106000091GF106991031021008001001021MA1999999101181MD1999999-0051REMSYN070AAXX  26184 83498 32595 60507 10297 20218 30118 40123 83202 333 59005;EQDQ01  00002PRCP06
0198834980999992004012700004-17733-039250FM-12+000399999V0200501N001012200019N0020001N1+02511+02271101421ADDAA106000091GF103991011021008001001021KA1240M+03101MA1999999101371MD1999999+0001REMSYN088AAXX  27004 83498 32595 30502 10251 20227 30137 40142 81202 333 10310 29074 55083 58000;EQDQ01  00002PRCP06
0190834980999992004012712004-17733-039250FM-12+000399999V0202701N001010450019N0020001N1+02571+02401101571ADDAY161061AY221061GF106991041071008001021001KA1240N+02331MA1999999101521MD1999999+0121MW1211REMSYN088AAXX  27124 83498 21595 62702 10257 20240 30152 40157 72162 84720 333 20233 58012 60144;
0148834980999992004012718004-17733-039250FM-12+000399999V0200901N002611050019N0020001N1+02911+02321101321ADDAA106000021GF106991031021008001001021MA1999999101271MD1999999+0091REMSYN070AAXX  27184 83498 32595 60905 10291 20232 30127 40132 83202 333 58009;
0198834980999992004012800004-17733-039250FM-12+000399999V0200901N001512200019N0020001N1+02591+02211101501ADDAA106000091GF102991001001999999001081KA1240M+03041MA1999999101451MD1999999+0081REMSYN088AAXX  28004 83498 32995 20903 10259 20221 30145 40150 80008 333 10304 29080 55081 58008;EQDQ01  00002PRCP06
0162834980999992004012812004-17733-039250FM-12+000399999V0200501N002610075019N0020001N1+02771+02231101661ADDGF106991051041008001001051KA1240N+02341MA1999999101611MD1999999+0091REMSYN082AAXX  28124 83498 22595 60505 10277 20223 30161 40166 85405 333 20234 58009 60014;
0167834980999992004012818004-17733-039250FM-12+000399999V0200901N004612200019N0020001N1+02951+02261101441ADDAA106000091GF104991021021008001021001MA1999999101391MD1999999+0121REMSYN070AAXX  28184 83498 32595 40909 10295 20226 30139 40144 82220 333 58012;EQDQ01  00002PRCP06
0198834980999992004012900004-17733-039250FM-12+000399999V0200901N002612200019N0020001N1+02561+02191101611ADDAA106000091GF101991001001999999001011KA1240M+03041MA1999999101561MD1999999+0111REMSYN088AAXX  29004 83498 32995 10905 10256 20219 30156 40161 80001 333 10304 29075 55085 58011;EQDQ01  00002PRCP06
0186834980999992004012912004-17733-039250FM-12+000399999V0201401N001510450019N0020001N1+02811+02311101651ADDAA106000091GF106991041051008001041001KA1240N+02381MA1999999101601MD1999999-0011REMSYN076AAXX  29124 83498 32595 61403 10281 20231 30160 40165 84540 333 20238 59001;EQDQ01  00002PRCP06
0171834980999992004012918004-17733-039250FM-12+000399999V0201401N002611050019N0020001N1+02891+02251101481ADDAY101061AY231061GF105991031021008001001021MA1999999101431MD1999999+0041MW1211REMSYN082AAXX  29184 83498 21595 51405 10289 20225 30143 40148 72103 83202 333 58004 69931;
0198834980999992004013000004-17733-039250FM-12+000399999V0200501N001012200019N0020001N1+02531+02271101611ADDAA106000021GF101991001001999999001011KA1240M+03021MA1999999101561MD1999999+0001REMSYN088AAXX  30004 83498 32595 10502 10253 20227 30156 40161 80001 333 10302 29079 55102 58000;EQDQ01+008002SCOLCB
0162834980999992004013012004-17733-039250FM-12+000399999V0200901N004110450019N0020001N1+02851+02331101611ADDGF106991041041008001021051KA1240N+02401MA1999999101561MD1999999-0041REMSYN082AAXX  30124 83498 22595 60908 10285 20233 30156 40161 84425 333 20240 59004 69934;
0195834980999992004013018004-17733-039250FM-12+000399999V0200501N003110450019N0020001N1+02691+02281101521ADDAA106000091AY101061AY221061GF106991031051008001071051MA1999999101471MD1999999+0041MW1291REMSYN076AAXX  30184 83498 31595 60506 10269 20228 30147 40152 72902 83575 333 58004;EQDQ01  00002PRCP06
0198834980999992004013100004-17733-039250FM-12+000399999V0200901N001012200019N0020001N1+02371+02191101651ADDAA106000091GF103991021001012501021051KA1240M+02921MA1999999101601MD1999999+0041REMSYN088AAXX  31004 83498 32695 30902 10237 20219 30160 40165 82025 333 10292 29083 55014 58004;EQDQ01  00002PRCP06
0162834980999992004013112004-17733-039250FM-12+000399999V0202301N001510450019N0020001N1+02671+02371101711ADDGF107991041051008001021001KA1240N+02261MA1999999101661MD1999999+0101REMSYN082AAXX  31124 83498 22595 72303 10267 20237 30166 40171 84520 333 20226 58010 69944;
0167834980999992004013118004-17733-039250FM-12+000399999V0200901N001510450019N0020001N1+02771+02231101581ADDAA106000091GF107991021031008001011081MA1999999101531MD1999999+0061REMSYN070AAXX  31184 83498 32595 70903 10277 20223 30153 40158 82318 333 58006;EQDQ01  00002PRCP06
0190834980999992004020112004-17733-039250FM-12+000399999V0201401N001010450019N0020001N1+02691+02281101811ADDAY161061AY261061GF105991031051008001031051KA1240N+02341MA1999999101761MD1999999+0101MW1211REMSYN088AAXX  01124 83498 21595 51402 10269 20228 30176 40181 72166 83535 333 20234 58010 69954;
0148834980999992004020118004-17733-039250FM-12+000399999V0200901N004111050019N0020001N1+02951+02331101491ADDAA106000021GF105991031021008001001091MA1999999101441MD1999999-0091REMSYN070AAXX  01184 83498 32595 50908 10295 20233 30144 40149 83209 333 59009;
0198834980999992004020200004-17733-039250FM-12+000399999V0200501N001012200019N0020001N1+02501+02251101571ADDAA106000091GF103991001001999999001051KA1240M+03061MA1999999101521MD1999999-0081REMSYN088AAXX  02004 83498 32995 30502 10250 20225 30152 40157 80005 333 10306 29080 55077 59008;EQDQ01  00002PRCP06
0190834980999992004020212004-17733-039250FM-12+000399999V0203601N001510450019N0020001N1+02591+02271101571ADDAY161061AY261061GF107991031071008001011001KA1240N+02381MA1999999101521MD1999999-0241MW1211REMSYN088AAXX  02124 83498 21595 73603 10259 20227 30152 40157 72166 83710 333 20238 59024 60044;
0148834980999992004020218004-17733-039250FM-12+000399999V0200501N002610075019N0020001N1+02771+02321101321ADDAA106000021GF108991051051008001021999MA1999999101271MD1999999-0171REMSYN070AAXX  02184 83498 32595 80505 10277 20232 30127 40132 8552/ 333 59017;
0198834980999992004020300004-17733-039250FM-12+000399999V0200501N000510450019N0020001N1+02501+02311101451ADDAA106000091GF107991041051008001011001KA1240M+02901MA1999999101401MD1999999-0121REMSYN088AAXX  03004 83498 32595 70501 10250 20231 30140 40145 84510 333 10290 29085 55002 59012;EQDQ01  00002PRCP06
0203834980999992004020312004-17733-039250FM-12+000399999V0200901N001010450019N0020001N1+02611+02291101521ADDAY161061AY221061GF106991041041008001021091KA1240N+02401MA1999999101471MD1999999-0051REMSYN088AAXX  03124 83498 21595 60902 10261 20229 30147 40152 77262 84429 333 20240 59005 69984;EQDQ01+000722PRSWM1
0167834980999992004020318004-17733-039250FM-12+000399999V0200501N004112200019N0020001N1+02971+02131101271ADDAA106000091GF103991021021008001021051MA1999999101221MD1999999-0051REMSYN070AAXX  03184 83498 32595 30508 10297 20213 30122 40127 82225 333 59005;EQDQ01  00002PRCP06
0198834980999992004020400004-17733-039250FM-12+000399999V0200501N001012200019N0020001N1+02511+02271101431ADDAA106000091GF102991011011008001001051KA1240M+03081MA1999999101381MD1999999-0021REMSYN088AAXX  04004 83498 32595 20502 10251 20227 30138 40143 81105 333 10308 29080 55080 59002;EQDQ01  00002PRCP06
0190834980999992004020412004-17733-039250FM-12+000399999V0200901N003110450019N0020001N1+02951+02191101641ADDAY101061AY231061GF105991041051008001041001KA1240N+02371MA1999999101591MD1999999-0121MW1211REMSYN088AAXX  04124 83498 21595 50906 10295 20219 30159 40164 72103 84540 333 20237 59012 69924;
0148834980999992004020418004-17733-039250FM-12+000399999V0200901N004112200019N0020001N1+02971+02131101341ADDAA106000021GF102991021011008001001001MA1999999101291MD1999999+0071REMSYN070AAXX  04184 83498 32595 20908 10297 20213 30129 40134 82100 333 58007;
0185834980999992004020500004-17733-039250FM-12+000399999V0200501N001012200019N0020001N1+02501+02231101431ADDAA106000091GF102991021011008001001001MA1999999101381MD1999999+0001REMSYN088AAXX  05004 83498 32595 20502 10250 20223 30138 40143 82100 333 1//// 29074 55109 58000;EQDQ01  00002PRCP06
0190834980999992004020512004-17733-039250FM-12+000399999V0200501N001510075019N0020001N1+02831+02241101501ADDAY161061AY221061GF105991051021008001001001KA1240N+02331MA1999999101451MD1999999-0141MW1211REMSYN088AAXX  05124 83498 21595 50503 10283 20224 30145 40150 72162 85200 333 20233 59014 69984;
0148834980999992004020518004-17733-039250FM-12+000399999V0200501N003610075019N0020001N1+03011+02171101151ADDAA106000021GF105991051021008001001001MA1999999101101MD1999999-0191REMSYN070AAXX  05184 83498 32595 50507 10301 20217 30110 40115 85200 333 59019;
0198834980999992004020600004-17733-039250FM-12+000399999V0200501N000512200019N0020001N1+02441+02211101231ADDAA106000091GF102991021021008001001001KA1240M+03121MA1999999101181MD1999999-0201REMSYN088AAXX  06004 83498 32595 20501 10244 20221 30118 40123 82200 333 10312 29076 55101 59020;EQDQ01  00002PRCP06
0186834980999992004020612004-17733-039250FM-12+000399999V0203601N005112200019N0020001N1+02911+02201101131ADDAA106000091GF104991011011008001001021KA1240N+02221MA1999999101081MD1999999-0371REMSYN076AAXX  06124 83498 32595 43610 10291 20220 30108 40113 81102 333 20222 59037;EQDQ01  00002PRCP06
0167834980999992004020618004-17733-039250FM-12+000399999V0200501N005112200019N0020001N1+03071+02271100811ADDAA106000091GF102991021011008001001001MA1999999100761MD1999999-0341REMSYN070AAXX  06184 83498 32595 20510 10307 20227 30076 40081 82100 333 59034;EQDQ01  00002PRCP06
0198834980999992004020700004-17733-039250FM-12+000399999V0200501N003112200019N0020001N1+02621+02411100921ADDAA106000091GF104991001001999999001051KA1240M+03121MA1999999100871MD1999999-0311REMSYN088AAXX  07004 83498 32995 40506 10262 20241 30087 40092 80005 333 10312 29076 55109 59031;EQDQ01  00002PRCP06
0186834980999992004020712004-17733-039250FM-12+000399999V0203601N005111050019N0020001N1+02851+02261100961ADDAA106000091GF107991011001012501021081KA1240N+02441MA1999999100911MD1999999-0171REMSYN076AAXX  07124 83498 32695 73610 10285 20226 30091 40096 81028 333 20244 59017;EQDQ01  00002PRCP06
0167834980999992004020718004-17733-039250FM-12+000399999V0203601N005710450019N0020001N1+02941+02381100821ADDAA106000091GF106991041091008001021081MA1999999100771MD1999999+0011REMSYN070AAXX  07184 83498 32595 63611 10294 20238 30077 40082 84928 333 58001;EQDQ01  00002PRCP06
0198834980999992004020800004-17733-039250FM-12+000399999V0200901N002110450019N0020001N1+02711+02451101191ADDAA106000091GF106991031051008001021001KA1240M+03261MA1999999101141MD1999999+0271REMSYN088AAXX  08004 83498 32595 60904 10271 20245 30114 40119 83520 333 10326 29079 55035 58027;EQDQ01  00002PRCP06
0174834980999992004020812004-17733-039250FM-12+000399999V0201801N003110075019N0020001N1+02591+02371101431ADDGF108991051051008001021999KA1240N+02281MA1999999101381MD1999999+0471MW1211REMSYN088AAXX  08124 83498 21595 81806 10259 20237 30138 40143 721// 8552/ 333 20228 58047 60024;
0155834980999992004020818004-17733-039250FM-12+000399999V0201801N004110075019N0020001N1+02641+02271101301ADDGF108991051051008001021999MA1999999101251MD1999999+0481MW1211REMSYN082AAXX  08184 83498 21595 81808 10264 20227 30125 40130 721// 8552/ 333 58048 60601;
0179834980999992004020900004-17733-039250FM-12+000399999V0201801N003610450019N0020001N1+02631+02291101491ADDAA106000021GF106991041051008001011001KA1240M+02701MA1999999101441MD1999999+0301REMSYN088AAXX  09004 83498 32595 61807 10263 20229 30144 40149 84510 333 10270 29083 55011 58030;
0190834980999992004020912004-17733-039250FM-12+000399999V0202701N002610450019N0020001N1+02371+02291101571ADDAY161061AY261061GF108991031071008001021999KA1240N+02381MA1999999101521MD1999999+0141MW1211REMSYN088AAXX  09124 83498 21595 82705 10237 20229 30152 40157 72166 8372/ 333 20238 58014 60704;
0171834980999992004020918004-17733-039250FM-12+000399999V0201801N004110450019N0020001N1+02571+02351101361ADDAY161061AY261061GF108991041071008001021999MA1999999101311MD1999999+0061MW1211REMSYN082AAXX  09184 83498 21595 81808 10257 20235 30131 40136 72166 8472/ 333 58006 60131;
0202834980999992004021000004-17733-039250FM-12+000399999V0201801N003110075019N0020001N1+02401+02231101481ADDAY161061AY261061GF108991051071008001021999KA1240M+02671MA1999999101431MD1999999-0011MW1211REMSYN100AAXX  10004 83498 21595 81806 10240 20223 30143 40148 72166 8572/ 333 10267 29091 55000 59001 60011;
0190834980999992004021012004-17733-039250FM-12+000399999V0202301N001510075019N0020001N1+02591+02291101561ADDAY101061AY231061GF107991051051008001011001KA1240N+02171MA1999999101511MD1999999-0011MW1211REMSYN088AAXX  10124 83498 21595 72303 10259 20229 30151 40156 72103 85510 333 20217 59001 60164;
0119834980999992004021018004-17733-039250FM-12+000399999V0201801N002619999999N0020001N1+02571+02351999999ADDGF107991999999008001999999REMSYN081AAXX  10184 83498 21595 71805 10257 20235 0127 40132 76066 82710 333 59004 69951;
0186834980999992004021100004-17733-039250FM-12+000399999V0201401N003110075019N0020001N1+02571+02271101581ADDGF108991051051008001021999KA1240M+02681MA1999999101531MD1999999+0101MW1211REMSYN100AAXX  11004 83498 21595 81406 10257 20227 30153 40158 721// 8552/ 333 10268 29085 55003 58010 69921;
0162834980999992004021112004-17733-039250FM-12+000399999V0201401N002610075019N0020001N1+03811+02291101641ADDGF107991051051008001001081KA1240N+02431MA1999999101591MD1999999+0081REMSYN082AAXX  11124 83498 22595 71405 10381 20229 30159 40164 85508 333 20243 58008 69974;
0167834980999992004021118004-17733-039250FM-12+000399999V0201401N002610450019N0020001N1+02911+02341101471ADDAA106000091GF106991031051008001031011MA1999999101421MD1999999+0151REMSYN070AAXX  11184 83498 32595 61405 10291 20234 30142 40147 83531 333 58015;EQDQ01  00002PRCP06
0198834980999992004021200004-17733-039250FM-12+000399999V0201401N002612200019N0020001N1+02631+02331101681ADDAA106000091GF104991041021008001001001KA1240M+02961MA1999999101631MD1999999+0101REMSYN088AAXX  12004 83498 32595 41405 10263 20233 30163 40168 84200 333 10296 29078 55087 58010;EQDQ01  00002PRCP06
0190834980999992004021212004-17733-039250FM-12+000399999V0201401N003110450019N0020001N1+02831+02421101771ADDAY161061AY261061GF106991041051008001011001KA1240N+02571MA1999999101721MD1999999+0131MW1211REMSYN088AAXX  12124 83498 21595 61406 10283 20242 30172 40177 72166 84510 333 20257 58013 60034;
0148834980999992004021218004-17733-039250FM-12+000399999V0201401N003110450019N0020001N1+02791+02421101571ADDAA106000021GF106991041051008001041001MA1999999101521MD1999999+0121REMSYN070AAXX  12184 83498 32595 61406 10279 20242 30152 40157 84540 333 58012;
0208834980999992004021300004-17733-039250FM-12+000399999V0201401N000512200019N0020001N1+02591+02371101751ADDAA106000091GA1001+999999999GF100991001001999999001001KA1240M+02901MA1999999101701MD1999999+0071REMSYN082AAXX  13004 83498 32595 01401 10259 20237 30170 40175 333 10290 29084 55022 58007;EQDQ01  00002PRCP06
0186834980999992004021312004-17733-039250FM-12+000399999V0200901N002110450019N0020001N1+02761+02341101761ADDAA106000091GF106991041021008001041001KA1240N+02401MA1999999101711MD1999999-0011REMSYN076AAXX  13124 83498 32595 60904 10276 20234 30171 40176 84240 333 20240 59001;EQDQ01  00002PRCP06
0167834980999992004021318004-17733-039250FM-12+000399999V0200901N002111050019N0020001N1+02861+02351101481ADDAA106000091GF105991021011008001001021MA1999999101431MD1999999-0111REMSYN070AAXX  13184 83498 32595 50904 10286 20235 30143 40148 82102 333 59011;EQDQ01  00002PRCP06
0198834980999992004021400004-17733-039250FM-12+000399999V0200901N001012200019N0020001N1+02581+02251101631ADDAA106000091GF102991021011008001001001KA1240M+02891MA1999999101581MD1999999-0121REMSYN088AAXX  14004 83498 32595 20902 10258 20225 30158 40163 82100 333 10289 29079 55036 59012;EQDQ01  00002PRCP06
0186834980999992004021412004-17733-039250FM-12+000399999V0203201N001010450019N0020001N1+02711+02261101641ADDAA106000091GF105991031051008001041001KA1240N+02361MA1999999101591MD1999999-0121REMSYN076AAXX  14124 83498 32595 53202 10271 20226 30159 40164 83540 333 20236 59012;EQDQ01  00002PRCP06
0167834980999992004021418004-17733-039250FM-12+000399999V0200501N003611050019N0020001N1+02971+02181101241ADDAA106000091GF106991011011008001001081MA1999999101191MD1999999-0241REMSYN070AAXX  14184 83498 32595 60507 10297 20218 30119 40124 81108 333 59024;EQDQ01  00002PRCP06
0208834980999992004021500004-17733-039250FM-12+000399999V0200501N001512200019N0020001N1+02551+02171101361ADDAA106000091GA1001+999999999GF100991001001999999001001KA1240M+03001MA1999999101311MD1999999-0271REMSYN082AAXX  15004 83498 32995 00503 10255 20217 30131 40136 333 10300 29075 55067 59027;EQDQ01  00002PRCP06
0186834980999992004021512004-17733-039250FM-12+000399999V0203601N004112200019N0020001N1+02881+02321101381ADDAA106000091GF104991031021008001001011KA1240N+02321MA1999999101331MD1999999-0261REMSYN076AAXX  15124 83498 32595 43608 10288 20232 30133 40138 83201 333 20232 59026;EQDQ01  00002PRCP06
0167834980999992004021518004-17733-039250FM-12+000399999V0203601N005110450019N0020001N1+03001+02291101101ADDAA106000091GF107991021011008001041021MA1999999101051MD1999999-0141REMSYN070AAXX  15184 83498 32595 73610 10300 20229 30105 40110 82142 333 59014;EQDQ01  00002PRCP06
0198834980999992004021600004-17733-039250FM-12+000399999V0200501N004611050019N0020001N1+02721+02451101281ADDAA106000091GF107991041051008001001021KA1240M+03061MA1999999101231MD1999999-0081REMSYN088AAXX  16004 83498 32595 70509 10272 20245 30123 40128 84502 333 10306 29077 55067 59008;EQDQ01  00002PRCP06
0190834980999992004021612004-17733-039250FM-12+000399999V0203601N004611050019N0020001N1+02981+02351101281ADDAY101061AY231061GF106991021011008001001081KA1240N+02581MA1999999101231MD1999999-0101MW1211REMSYN088AAXX  16124 83498 21595 63609 10298 20235 30123 40128 72103 82108 333 20258 59010 69974;
0148834980999992004021618004-17733-039250FM-12+000399999V0200501N006210450019N0020001N1+02891+02441100951ADDAA106000021GF107991021091008001021081MA1999999100901MD1999999-0151REMSYN070AAXX  16184 83498 32595 70512 10289 20244 30090 40095 82928 333 59015;
0202834980999992004021700004-17733-039250FM-12+000399999V0202701N001510075019N0020001N1+02421+02261101441ADDAY191061AY261061GF108991061071008001021999KA1240M+03051MA1999999101391MD1999999+0161MW1611REMSYN100AAXX  17004 83498 21595 82703 10242 20226 30139 40144 76196 8672/ 333 10305 29082 55045 58016 60021;
0190834980999992004021712004-17733-039250FM-12+000399999V0203601N003610450019N0020001N1+02861+02461101451ADDAY161061AY261061GF108991041061008001011999KA1240N+02351MA1999999101401MD1999999+0171MW1211REMSYN088AAXX  17124 83498 21595 83607 10286 20246 30140 40145 72166 8461/ 333 20235 58017 60104;
0171834980999992004021718004-17733-039250FM-12+000399999V0203201N001010075019N0020001N1+02601+02391101371ADDAY161061AY291061GF108991051071008001021999MA1999999101321MD1999999+0421MW1291REMSYN082AAXX  17184 83498 21595 83202 10260 20239 30132 40137 72969 8572/ 333 58042 60161;
0190834980999992004021812004-17733-039250FM-12+000399999V0200901N001010450019N0020001N1+02741+02471101631ADDAY101061AY231061GF106991021051008001011001KA1240N+02251MA1999999101581MD1999999+0181MW1211REMSYN088AAXX  18124 83498 21595 60902 10274 20247 30158 40163 72103 82510 333 20225 58018 60414;
0148834980999992004021818004-17733-039250FM-12+000399999V0200501N001510450019N0020001N1+02831+02381101321ADDAA106000021GF106991041051008001011001MA1999999101271MD1999999-0051REMSYN070AAXX  18184 83498 32595 60503 10283 20238 30127 40132 84510 333 59005;
0190834980999992004021912004-17733-039250FM-12+000399999V0200501N002110450019N0020001N1+02821+02361101481ADDAY161061AY221061GF108991041051008001011999KA1240N+02301MA1999999101431MD1999999-0151MW1211REMSYN088AAXX  19124 83498 21595 80504 10282 20236 30143 40148 72162 8451/ 333 20230 59015 60044;
0148834980999992004021918004-17733-039250FM-12+000399999V0200501N004612200019N0020001N1+02941+02291101151ADDAA106000021GF106991031021008001001011MA1999999101101MD1999999-0171REMSYN070AAXX  19184 83498 32595 60509 10294 20229 30110 40115 83201 333 59017;
0198834980999992004022000004-17733-039250FM-12+000399999V0200501N002612200019N0020001N1+02681+02371101401ADDAA106000091GF103991031011008001001001KA1240M+03021MA1999999101351MD1999999-0111REMSYN088AAXX  20004 83498 32595 30505 10268 20237 30135 40140 83100 333 10302 29078 55062 59011;EQDQ01  00002PRCP06
0186834980999992004022012004-17733-039250FM-12+000399999V0200501N003610450019N0020001N1+02871+02211101451ADDAA106000091GF105991031051008001051001KA1240N+02331MA1999999101401MD1999999-0031REMSYN076AAXX  20124 83498 32595 50507 10287 20221 30140 40145 83550 333 20233 59003;EQDQ01  00002PRCP06
0167834980999992004022018004-17733-039250FM-12+000399999V0200501N004112200019N0020001N1+02951+02331101231ADDAA106000091GF104991031021008001001011MA1999999101181MD1999999+0081REMSYN070AAXX  20184 83498 32595 40508 10295 20233 30118 40123 83201 333 58008;EQDQ01  00002PRCP06
0198834980999992004022100004-17733-039250FM-12+000399999V0200501N000512200019N0020001N1+02551+02311101471ADDAA106000091GF102991021011008001001001KA1240M+03041MA1999999101421MD1999999+0071REMSYN088AAXX  21004 83498 32595 20501 10255 20231 30142 40147 82100 333 10304 29078 55092 58007;EQDQ01  00002PRCP06
0186834980999992004022112004-17733-039250FM-12+000399999V0200501N003612200019N0020001N1+02841+02291101611ADDAA106000091GF104991041021008001001001KA1240N+02321MA1999999101561MD1999999+0161REMSYN076AAXX  21124 83498 32595 40507 10284 20229 30156 40161 84200 333 20232 58016;EQDQ01  00002PRCP06
0167834980999992004022118004-17733-039250FM-12+000399999V0200901N002612200019N0020001N1+02961+02231101391ADDAA106000091GF104991031011008001001011MA1999999101341MD1999999+0161REMSYN070AAXX  21184 83498 32595 40905 10296 20223 30134 40139 83101 333 58016;EQDQ01  00002PRCP06
0190834980999992004022212004-17733-039250FM-12+000399999V0200901N001510450019N0020001N1+02811+02271101711ADDAY101061AY231061GF106991021051008001041011KA1240N+02341MA1999999101661MD1999999+0101MW1211REMSYN088AAXX  22124 83498 21595 60903 10281 20227 30166 40171 72103 82541 333 20234 58010 69974;
0148834980999992004022218004-17733-039250FM-12+000399999V0200501N004112200019N0020001N1+02951+02111101411ADDAA106000021GF103991021011008001001011MA1999999101361MD1999999+0021REMSYN070AAXX  22184 83498 32595 30508 10295 20211 30136 40141 82101 333 58002;
0190834980999992004022312004-17733-039250FM-12+000399999V0203201N001010075019N0020001N1+02881+02281101531ADDAY161061AY221061GF105991051021008001001001KA1240N+02301MA1999999101481MD1999999-0181MW1211REMSYN088AAXX  23124 83498 21595 53202 10288 20228 30148 40153 72162 85200 333 20230 59018 60024;
0148834980999992004022318004-17733-039250FM-12+000399999V0200501N002612200019N0020001N1+03081+02241101161ADDAA106000021GF104991021011008001001091MA1999999101111MD1999999-0251REMSYN070AAXX  23184 83498 32595 40505 10308 20224 30111 40116 82109 333 59025;
0186834980999992004022412004-17733-039250FM-12+000399999V0203601N002611050019N0020001N1+02891+02321101411ADDAA106000091GF105991031021008001001021KA1240N+02401MA1999999101361MD1999999-0121REMSYN076AAXX  24124 83498 32595 53605 10289 20232 30136 40141 83202 333 20240 59012;EQDQ01  00002PRCP06
0167834980999992004022418004-17733-039250FM-12+000399999V0200501N004612200019N0020001N1+03091+02271101101ADDAA106000091GF103991011011008001001021MA1999999101051MD1999999-0061REMSYN070AAXX  24184 83498 32595 30509 10309 20227 30105 40110 81102 333 59006;EQDQ01  00002PRCP06
0186834980999992004022512004-17733-039250FM-12+000399999V0203601N001510450019N0020001N1+02901+02341101401ADDAA106000091GF107991041021008001031001KA1240N+02401MA1999999101351MD1999999-0011REMSYN076AAXX  25124 83498 32595 73603 10290 20234 30135 40140 84230 333 20240 59001;EQDQ01  00002PRCP06
0167834980999992004022518004-17733-039250FM-12+000399999V0200501N002611050019N0020001N1+03161+02341101311ADDAA106000091GF105991021011008001001021MA1999999101261MD1999999+0211REMSYN070AAXX  25184 83498 32595 50505 10316 20234 30126 40131 82102 333 58021;EQDQ01  00002PRCP06
0198834980999992004022600004-17733-039250FM-12+000399999V0200501N001512200019N0020001N1+02681+02371101471ADDAA106000091GF102991011011008001001011KA1240M+03261MA1999999101421MD1999999+0211REMSYN088AAXX  26004 83498 32595 20503 10268 20237 30142 40147 81101 333 10326 29075 55091 58021;EQDQ01  00002PRCP06
0196834980999992004022612004-17733-039250FM-12+000399999V0200501N001512200019N0020001N1+02851+02381101651ADDAA106000091GA1001+999999999GF100991001001999999001001KA1240N+02411MA1999999101601MD1999999+0251REMSYN070AAXX  26124 83498 32595 00503 10285 20238 30160 40165 333 20241 58025;EQDQ01  00002PRCP06
0167834980999992004022618004-17733-039250FM-12+000399999V0200901N003110450019N0020001N1+02921+02291101411ADDAA106000091GF106991021051008001011091MA1999999101361MD1999999+0101REMSYN070AAXX  26184 83498 32595 60906 10292 20229 30136 40141 82519 333 58010;EQDQ01  00002PRCP06
0198834980999992004022700004-17733-039250FM-12+000399999V0200501N001012200019N0020001N1+02501+02191101511ADDAA106000091GF102991021001008001031001KA1240M+03221MA1999999101461MD1999999+0041REMSYN088AAXX  27004 83498 32595 20502 10250 20219 30146 40151 82030 333 10322 29078 55072 58004;EQDQ01  00002PRCP06
0186834980999992004022712004-17733-039250FM-12+000399999V0203601N002612200019N0020001N1+02821+02291101481ADDAA106000091GF105991041021008001001011KA1240N+02291MA1999999101431MD1999999-0171REMSYN076AAXX  27124 83498 32595 53605 10282 20229 30143 40148 84201 333 20229 59017;EQDQ01  00002PRCP06
0167834980999992004022718004-17733-039250FM-12+000399999V0200501N005112200019N0020001N1+03071+02141101051ADDAA106000091GF103991011011008001001011MA1999999101001MD1999999-0361REMSYN070AAXX  27184 83498 32595 30510 10307 20214 30100 40105 81101 333 59036;EQDQ01  00002PRCP06
0198834980999992004022800004-17733-039250FM-12+000399999V0200501N002112200019N0020001N1+02651+02311101221ADDAA106000091GF103991031001008001031001KA1240M+03201MA1999999101171MD1999999-0291REMSYN088AAXX  28004 83498 32595 30504 10265 20231 30117 40122 83030 333 10320 29074 55094 59029;EQDQ01  00002PRCP06
0186834980999992004022812004-17733-039250FM-12+000399999V0203601N004110450019N0020001N1+02941+02311100961ADDAA106000091GF108991031021008001041011KA1240N+02471MA1999999100911MD1999999-0521REMSYN076AAXX  28124 83498 32595 83608 10294 20231 30091 40096 83241 333 20247 59052;EQDQ01  00002PRCP06
0171834980999992004022818004-17733-039250FM-12+000399999V0203601N004110075019N0020001N1+02741+02431100631ADDAY191061AY291061GF108991051031008001041999MA1999999100581MD1999999-0421MW1951REMSYN082AAXX  28184 83498 21595 83608 10274 20243 30058 40063 79599 8534/ 333 59042 69981;
0162834980999992004022912004-17733-039250FM-12+000399999V0203601N003112200019N0020001N1+03081+02191101141ADDGF103991021011008001001011KA1240N+02321MA1999999101091MD1999999-0181REMSYN082AAXX  29124 83498 22595 33606 10308 20219 30109 40114 82101 333 20232 59018 69984;
0167834980999992004022918004-17733-039250FM-12+000399999V0203601N004112200019N0020001N1+03141+02211100861ADDAA106000091GF102991011011008001001011MA1999999100811MD1999999+0231REMSYN070AAXX  29184 83498 32595 23608 10314 20221 30081 40086 81101 333 58023;EQDQ01  00002PRCP06
0198834980999992004030100004-17733-039250FM-12+000399999V0203601N003112200019N0020001N1+02801+02381101201ADDAA106000091GF104991021011008001001011KA1240M+03481MA1999999101151MD1999999+0251REMSYN088AAXX  01004 83498 32595 43606 10280 20238 30115 40120 82101 333 10348 29068 55099 58025;EQDQ01  00002PRCP06
0186834980999992004030112004-17733-039250FM-12+000399999V0203601N004611050019N0020001N1+02991+02401101341ADDAA106000091GF106991041021008001001021KA1240N+02471MA1999999101291MD1999999+0201REMSYN076AAXX  01124 83498 32595 63609 10299 20240 30129 40134 84202 333 20247 58020;EQDQ01  00002PRCP06
0179834980999992004030118004-17733-039250FM-12+000399999V0200501N004610450019N0020001N1+02831+02421101141ADDAA106000091GF108991041051008001021999MA1999999101091MD1999999+0281MW1171REMSYN076AAXX  01184 83498 31595 80509 10283 20242 30109 40114 717// 8452/ 333 58028;EQDQ01  00002PRCP06
0202834980999992004030200004-17733-039250FM-12+000399999V0200501N000510450019N0020001N1+02621+02551101531ADDAY161061AY261061GF108991041071008001021999KA1240M+03151MA1999999101481MD1999999+0331MW1611REMSYN100AAXX  02004 83498 21595 80501 10262 20255 30148 40153 76166 8472/ 333 10315 29086 55039 58033 60021;
0190834980999992004030212004-17733-039250FM-12+000399999V0203201N002110450019N0020001N1+02701+02431101531ADDAY161061AY261061GF108991041051008001011999KA1240N+02461MA1999999101481MD1999999+0191MW1211REMSYN088AAXX  02124 83498 21595 83204 10270 20243 30148 40153 72166 8451/ 333 20246 58019 60034;
0148834980999992004030218004-17733-039250FM-12+000399999V0200501N002612200019N0020001N1+03141+02271101171ADDAA106000021GF102991021011008001001001MA1999999101121MD1999999+0031REMSYN070AAXX  02184 83498 32595 20505 10314 20227 30112 40117 82100 333 58003;
0198834980999992004030300004-17733-039250FM-12+000399999V0200501N002112200019N0020001N1+02641+02371101411ADDAA106000091GF103991011011008001001011KA1240M+03161MA1999999101361MD1999999-0121REMSYN088AAXX  03004 83498 32595 30504 10264 20237 30136 40141 81101 333 10316 29079 55045 59012;EQDQ01  00002PRCP06
0186834980999992004030312004-17733-039250FM-12+000399999V0203601N003110075019N0020001N1+02851+02311101431ADDAA106000091GF107991051051008001011001KA1240N+02401MA1999999101381MD1999999-0101REMSYN076AAXX  03124 83498 32595 73606 10285 20231 30138 40143 85510 333 20240 59010;EQDQ01  00002PRCP06
0167834980999992004030318004-17733-039250FM-12+000399999V0200501N002610450019N0020001N1+02911+02251101131ADDAA106000091GF106991011021008001041081MA1999999101081MD1999999-0041REMSYN070AAXX  03184 83498 32595 60505 10291 20225 30108 40113 81248 333 59004;EQDQ01  00002PRCP06
0198834980999992004030400004-17733-039250FM-12+000399999V0200901N001512200019N0020001N1+02541+02391101311ADDAA106000091GF103991001001999999001081KA1240M+03091MA1999999101261MD1999999-0101REMSYN088AAXX  04004 83498 32995 30903 10254 20239 30126 40131 80008 333 10309 29081 55050 59010;EQDQ01  00002PRCP06
0186834980999992004030412004-17733-039250FM-12+000399999V0200501N003112200019N0020001N1+02961+02181101471ADDAA106000091GF104991041021008001001001KA1240N+02301MA1999999101421MD1999999+0041REMSYN076AAXX  04124 83498 32595 40506 10296 20218 30142 40147 84200 333 20230 58004;EQDQ01  00002PRCP06
0167834980999992004030418004-17733-039250FM-12+000399999V0200501N004111050019N0020001N1+03081+02291101301ADDAA106000091GF107991031011008001001021MA1999999101251MD1999999+0171REMSYN070AAXX  04184 83498 32595 70508 10308 20229 30125 40130 83102 333 58017;EQDQ01  00002PRCP06
0198834980999992004030500004-17733-039250FM-12+000399999V0200501N001010075019N0020001N1+02741+02401101691ADDAA106000091GF106991061021008001001001KA1240M+03181MA1999999101641MD1999999+0381REMSYN088AAXX  05004 83498 32595 60502 10274 20240 30164 40169 86200 333 10318 29075 55092 58038;EQDQ01  00002PRCP06
0190834980999992004030512004-17733-039250FM-12+000399999V0200501N002610450019N0020001N1+02791+02301101771ADDAY101061AY231061GF106991031051008001041011KA1240N+02351MA1999999101721MD1999999+0301MW1211REMSYN088AAXX  05124 83498 21595 60505 10279 20230 30172 40177 72103 83541 333 20235 58030 69924;
0171834980999992004030518004-17733-039250FM-12+000399999V0203601N001510450019N0020001N1+02671+02331101621ADDAY161061AY261061GF106991041061008001011001MA1999999101171MD1999999+0321MW1611REMSYN082AAXX  05184 83498 21595 63603 10267 20233 30117 40162 76166 84610 333 58032 60031;
0186834980999992004030600004-17733-039250FM-12+000399999V0200501N001512200019N0020001N1+02461+02321101801ADDGF103991011011008001001081KA1240M+03101MA1999999101751MD1999999+0111MW1211REMSYN100AAXX  06004 83498 21595 30503 10246 20232 30175 40180 721// 81108 333 10310 29085 55048 58011 60021;
0190834980999992004030612004-17733-039250FM-12+000399999V0203601N001510450019N0020001N1+02681+02371101831ADDAY161061AY261061GF108991041051008001011999KA1240N+02271MA1999999101781MD1999999+0061MW1211REMSYN088AAXX  06124 83498 21595 83603 10268 20237 30178 40183 72166 8451/ 333 20227 58006 60144;
0171834980999992004030618004-17733-039250FM-12+000399999V0200901N003110450019N0020001N1+02941+02291101551ADDAY161061AY261061GF107991041021008001041001MA1999999101501MD1999999-0071MW1211REMSYN082AAXX  06184 83498 21595 70906 10294 20229 30150 40155 72166 84240 333 59007 60031;
0179834980999992004030700004-17733-039250FM-12+000399999V0200901N002612200019N0020001N1+02641+02351101641ADDAA106000021GF104991041021008001001001KA1240M+02961MA1999999101591MD1999999-0161REMSYN088AAXX  07004 83498 32595 40905 10264 20235 30159 40164 84200 333 10296 29080 55037 59016;
0162834980999992004030712004-17733-039250FM-12+000399999V0200901N003111050019N0020001N1+02831+02241101821ADDGF106991041021008001001021KA1240N+02501MA1999999101771MD1999999-0011REMSYN082AAXX  07124 83498 22595 60906 10283 20224 30177 40182 84202 333 20250 59001 60034;
0167834980999992004030718004-17733-039250FM-12+000399999V0201401N001510450019N0020001N1+02891+02321101591ADDAA106000091GF106991041051008001041001MA1999999101541MD1999999+0041REMSYN070AAXX  07184 83498 32595 61403 10289 20232 30154 40159 84540 333 58004;EQDQ01  00002PRCP06
0198834980999992004030800004-17733-039250FM-12+000399999V0200501N002112200019N0020001N1+02601+02331101811ADDAA106000091GF102991021041008001001001KA1240M+03041MA1999999101761MD1999999+0171REMSYN088AAXX  08004 83498 32595 20504 10260 20233 30176 40181 82400 333 10304 29078 55081 58017;EQDQ01  00002PRCP06
0186834980999992004030812004-17733-039250FM-12+000399999V0200901N003110450019N0020001N1+02901+02201101901ADDAA106000091GF107991021011008001041021KA1240N+02371MA1999999101851MD1999999+0081REMSYN076AAXX  08124 83498 32595 70906 10290 20220 30185 40190 82142 333 20237 58008;EQDQ01  00002PRCP06
0167834980999992004030818004-17733-039250FM-12+000399999V0201401N003611050019N0020001N1+03081+02241101591ADDAA106000091GF106991031011008001001021MA1999999101541MD1999999+0001REMSYN070AAXX  08184 83498 32595 61407 10308 20224 30154 40159 83102 333 58000;EQDQ01  00002PRCP06
0198834980999992004030900004-17733-039250FM-12+000399999V0200501N001012200019N0020001N1+02701+02281101811ADDAA106000091GF103991031011008001001001KA1240M+03141MA1999999101761MD1999999+0001REMSYN088AAXX  09004 83498 32595 30502 10270 20228 30176 40181 83100 333 10314 29070 55103 58000;EQDQ01  00002PRCP06
0190834980999992004030912004-17733-039250FM-12+000399999V0201401N002110450019N0020001N1+02851+02261101941ADDAY101061AY231061GF106991031051008001051001KA1240N+02451MA1999999101891MD1999999+0041MW1211REMSYN088AAXX  09124 83498 21595 61404 10285 20226 30189 40194 72103 83550 333 20245 58004 69924;
0171834980999992004030918004-17733-039250FM-12+000399999V0203601N001510450019N0020001N1+02441+02271101711ADDAY161061AY261061GF108991041061008001011001MA1999999101661MD1999999+0121MW1611REMSYN082AAXX  09184 83498 21595 83603 10244 20227 30166 40171 76166 84610 333 58012 60021;
0198834980999992004031000004-17733-039250FM-12+000399999V0209999C000012200019N0020001N1+02351+02221101801ADDAA106000021GF102991001001999999001011KA1240M+02941MA1999999101751MD1999999-0011REMSYN088AAXX  10004 83498 32595 20000 10235 20222 30175 40180 80001 333 10294 29087 55031 59001;EQDQ01+008002SCOLCB
0162834980999992004031012004-17733-039250FM-12+000399999V0201401N001010075019N0020001N1+02861+02161101861ADDGF105991051021008001001001KA1240N+02281MA1999999101811MD1999999-0081REMSYN082AAXX  10124 83498 22595 51402 10286 20216 30181 40186 85200 333 20228 59008 60024;
0167834980999992004031018004-17733-039250FM-12+000399999V0200901N003112200019N0020001N1+03121+02061101591ADDAA106000091GF103991021011008001001011MA1999999101541MD1999999-0121REMSYN070AAXX  10184 83498 32595 30906 10312 20206 30154 40159 82101 333 59012;EQDQ01  00002PRCP06
0198834980999992004031100004-17733-039250FM-12+000399999V0200501N001512200019N0020001N1+02601+02331101691ADDAA106000091GF101991011011008001001001KA1240M+03031MA1999999101641MD1999999-0111REMSYN088AAXX  11004 83498 32595 10503 10260 20233 30164 40169 81100 333 10303 29072 55099 59011;EQDQ01  00002PRCP06
0186834980999992004031112004-17733-039250FM-12+000399999V0202301N001010450019N0020001N1+02771+02341101481ADDAA106000091GF106991041051008001041001KA1240N+02261MA1999999101431MD1999999-0381REMSYN076AAXX  11124 83498 32595 62302 10277 20234 30143 40148 84540 333 20226 59038;EQDQ01  00002PRCP06
0167834980999992004031118004-17733-039250FM-12+000399999V0201401N002612200019N0020001N1+02891+02251101181ADDAA106000091GF103991031021008001001001MA1999999101131MD1999999-0411REMSYN070AAXX  11184 83498 32595 31405 10289 20225 30113 40118 83200 333 59041;EQDQ01  00002PRCP06
0208834980999992004031200004-17733-039250FM-12+000399999V0200501N001012200019N0020001N1+02371+02191101271ADDAA106000091GA1001+999999999GF100991001001999999001001KA1240M+02941MA1999999101221MD1999999-0421REMSYN082AAXX  12004 83498 32995 00502 10237 20219 30122 40127 333 10294 29082 55079 59042;EQDQ01  00002PRCP06
0186834980999992004031212004-17733-039250FM-12+000399999V0202301N001512200019N0020001N1+02801+02341101361ADDAA106000091GF104991041021008001001001KA1240N+02281MA1999999101311MD1999999-0121REMSYN076AAXX  12124 83498 32595 42303 10280 20234 30131 40136 84200 333 20228 59012;EQDQ01  00002PRCP06
0167834980999992004031218004-17733-039250FM-12+000399999V0201801N002610450019N0020001N1+02901+02301101121ADDAA106000091GF108991041051008001011999MA1999999101071MD1999999-0061REMSYN070AAXX  12184 83498 32595 81805 10290 20230 30107 40112 8451/ 333 59006;EQDQ01  00002PRCP06
0198834980999992004031300004-17733-039250FM-12+000399999V0201401N004112200019N0020001N1+02701+02351101421ADDAA106000091GF104991041021008001001001KA1240M+02971MA1999999101371MD1999999+0151REMSYN088AAXX  13004 83498 32595 41408 10270 20235 30137 40142 84200 333 10297 29077 55041 58015;EQDQ01  00002PRCP06
0174834980999992004031312004-17733-039250FM-12+000399999V0201401N001010450019N0020001N1+02571+02251101501ADDGF107991041051008001011001KA1240N+02451MA1999999101451MD1999999+0141MW1211REMSYN088AAXX  13124 83498 21595 71402 10257 20225 30145 40150 721// 84510 333 20245 58014 60054;
0148834980999992004031318004-17733-039250FM-12+000399999V0200901N001010450019N0020001N1+02691+02391101371ADDAA106000021GF107991021071008001011001MA1999999101321MD1999999+0251REMSYN070AAXX  13184 83498 32595 70902 10269 20239 30132 40137 82710 333 58025;
0186834980999992004031400004-17733-039250FM-12+000399999V0200901N002110075019N0020001N1+02541+02211101621ADDGF108991051051008001021999KA1240M+02961MA1999999101571MD1999999+0201MW1211REMSYN100AAXX  14004 83498 21595 80904 10254 20221 30157 40162 721// 8552/ 333 10296 29083 55051 58020 69931;
0190834980999992004031412004-17733-039250FM-12+000399999V0201401N001510450019N0020001N1+02711+02171101611ADDAY161061AY261061GF106991021021008001021001KA1240N+02371MA1999999101561MD1999999+0111MW1211REMSYN088AAXX  14124 83498 21595 61403 10271 20217 30156 40161 72166 82220 333 20237 58011 60104;
0171834980999992004031418004-17733-039250FM-12+000399999V0200901N003110075019N0020001N1+02781+02361101311ADDAY161061AY261061GF107991051051008001021091MA1999999101261MD1999999-0061MW1211REMSYN082AAXX  14184 83498 21595 70906 10278 20236 30126 40131 72166 85529 333 59006 69921;
0202834980999992004031500004-17733-039250FM-12+000399999V0200501N001010450019N0020001N1+02531+02311101461ADDAY161061AY261061GF106991021051008001021001KA1240M+03021MA1999999101411MD1999999-0161MW1211REMSYN100AAXX  15004 83498 21595 60502 10253 20231 30141 40146 72166 82520 333 10302 29081 55043 59016 60011;
0190834980999992004031512004-17733-039250FM-12+000399999V0200501N002110450019N0020001N1+02781+02481101341ADDAY161061AY261061GF106991031021008001011001KA1240N+02361MA1999999101291MD1999999-0271MW1211REMSYN088AAXX  15124 83498 21595 60504 10278 20248 30129 40134 72166 83210 333 20236 59027 60034;
0171834980999992004031518004-17733-039250FM-12+000399999V0200501N003110450019N0020001N1+02961+02331101051ADDAY161061AY261061GF107991041051008001011001MA1999999101001MD1999999-0261MW1211REMSYN082AAXX  15184 83498 21595 70506 10296 20233 30100 40105 72166 84510 333 59026 60011;
0202834980999992004031600004-17733-039250FM-12+000399999V0203601N002110450019N0020001N1+02681+02411101241ADDAY191061AY261061GF108991041061008001011999KA1240M+03101MA1999999101191MD1999999-0221MW1911REMSYN100AAXX  16004 83498 21595 83604 10268 20241 30119 40124 79196 8461/ 333 10310 29080 55041 59022 69921;
0119834980999992004031612004-17733-039250FM-12+000399999V0203601N005119999999N0020001N1+99999+99999999999ADDGF107991999999008001999999REMSYN081AAXX  16124 83498 22595 73610 1287 20235 30112 40117 82519 333 20254 59017 60014;
0171834980999992004031618004-17733-039250FM-12+000399999V0200501N003110075019N0020001N1+02811+02441100811ADDAY101061AY231061GF108991051051008001021999MA1999999100761MD1999999-0241MW1211REMSYN082AAXX  16184 83498 21595 80506 10281 20244 30076 40081 72103 8552/ 333 59024 60041;
0196834980999992004031700004-17733-039250FM-12+000399999V0203601N001510012019N0020001N1+02581+02461101041ADDGA1091+999999999GF109991091999999999999999KA1240M+02921MA1999999100991MD1999999-0201MW1211REMSYN094AAXX  17004 83498 21595 93603 10258 20246 30099 40104 721// 333 10292 29085 55005 59020 60041;
0162834980999992004031712004-17733-039250FM-12+000399999V0203601N005110450019N0020001N1+02861+02351101061ADDGF107991021051008001021081KA1240N+02461MA1999999101011MD1999999-0111REMSYN082AAXX  17124 83498 22595 73610 10286 20235 30101 40106 82528 333 20246 59011 60084;
0167834980999992004031718004-17733-039250FM-12+000399999V0200501N004110450019N0020001N1+02791+02461100821ADDAA106000091GF108991031051008001021081MA1999999100771MD1999999+0011REMSYN070AAXX  17184 83498 32595 80508 10279 20246 30077 40082 83528 333 58001;EQDQ01  00002PRCP06
0198834980999992004031800004-17733-039250FM-12+000399999V0200501N001510450019N0020001N1+02631+02481101091ADDAA106000091GF108991021051008001021999KA1240M+03031MA1999999101041MD1999999+0051REMSYN088AAXX  18004 83498 32595 80503 10263 20248 30104 40109 8252/ 333 10303 29085 55016 58005;EQDQ01  00002PRCP06
0186834980999992004031812004-17733-039250FM-12+000399999V0203601N001010450019N0020001N1+02681+02351101181ADDAA106000091GF108991041051008001011999KA1240N+02361MA1999999101131MD1999999+0121REMSYN076AAXX  18124 83498 32595 83602 10268 20235 30113 40118 8451/ 333 20236 58012;EQDQ01  00002PRCP06
0171834980999992004031818004-17733-039250FM-12+000399999V0203601N003110075019N0020001N1+02601+02391100961ADDAY191061AY291061GF108991051071008001021999MA1999999100911MD1999999+0141MW1951REMSYN082AAXX  18184 83498 21595 83606 10260 20239 30091 40096 79599 8572/ 333 58014 60171;
0202834980999992004031900004-17733-039250FM-12+000399999V0200501N004610075019N0020001N1+02541+02331101411ADDAY191061AY261061GF108991081071008001999999KA1240M+03041MA1999999101361MD1999999+0321MW1951REMSYN100AAXX  19004 83498 21595 80509 10254 20233 30136 40141 79596 887// 333 10304 29086 55014 58032 60101;
0174834980999992004031912004-17733-039250FM-12+000399999V0203201N001010075019N0020001N1+02481+02151101381ADDGF108991051051008001021999KA1240N+02281MA1999999101331MD1999999+0201MW1211REMSYN088AAXX  19124 83498 21595 83202 10248 20215 30133 40138 721// 8552/ 333 20228 58020 60394;
0171834980999992004031918004-17733-039250FM-12+000399999V0200901N001010450019N0020001N1+02531+02361101111ADDAY161061AY261061GF108991031071008001021999MA1999999101061MD1999999+0151MW1601REMSYN082AAXX  19184 83498 21595 80902 10253 20236 30106 40111 76066 8372/ 333 58015 60011;
0202834980999992004032000004-17733-039250FM-12+000399999V0200501N002610450019N0020001N1+02531+02421101261ADDAY161061AY261061GF106991041051008001011001KA1240M+02661MA1999999101211MD1999999-0151MW1211REMSYN100AAXX  20004 83498 21595 60505 10253 20242 30121 40126 72166 84510 333 10266 29090 55000 59015 60011;
0190834980999992004032012004-17733-039250FM-12+000399999V0203201N002610450019N0020001N1+02301+02251101401ADDAY161061AY261061GF108991021071008001021999KA1240N+02241MA1999999101351MD1999999+0021MW1211REMSYN088AAXX  20124 83498 21595 83205 10230 20225 30135 40140 72166 8272/ 333 20224 58002 60294;
0171834980999992004032018004-17733-039250FM-12+000399999V0203601N002110450019N0020001N1+02551+02331100991ADDAY161061AY261061GF108991021051008001021999MA1999999100941MD1999999-0121MW1211REMSYN082AAXX  20184 83498 21595 83604 10255 20233 30094 40099 72166 8252/ 333 59012 60131;
0202834980999992004032100004-17733-039250FM-12+000399999V0203601N002110450019N0020001N1+02361+02191101141ADDAY161061AY261061GF106991021051008001021001KA1240M+02601MA1999999101091MD1999999-0121MW1211REMSYN100AAXX  21004 83498 21595 63604 10236 20219 30109 40114 72166 82520 333 10260 29091 55000 59012 69941;
0162834980999992004032112004-17733-039250FM-12+000399999V0203201N001510450019N0020001N1+02661+02201101181ADDGF108991041051008001011999KA1240N+02271MA1999999101131MD1999999-0221REMSYN082AAXX  21124 83498 22595 83203 10266 20220 30113 40118 8451/ 333 20227 59022 60134;
0190834980999992004032212004-17733-039250FM-12+000399999V0200501N001510075019N0020001N1+02251+02191101341ADDAY161061AY261061GF108991051071008001021999KA1240N+02281MA1999999101291MD1999999+0161MW1211REMSYN088AAXX  22124 83498 21595 80503 10225 20219 30129 40134 72166 8572/ 333 20228 58016 60854;
0171834980999992004032218004-17733-039250FM-12+000399999V0201101N020610450019N0020001N1+02401+02301101201ADDAY161061AY261061GF108991031071008001021999MA1999999101151MD1999999+0331MW1211REMSYN082AAXX  22184 83498 21595 81140 10240 20230 30115 40120 72166 8372/ 333 58033 60161;
0202834980999992004032300004-17733-039250FM-12+000399999V0200901N001010075019N0020001N1+02301+02251101491ADDAY161061AY261061GF108991051071008001021999KA1240M+02441MA1999999101441MD1999999+0251MW1211REMSYN100AAXX  23004 83498 21595 80902 10230 20225 30144 40149 72166 8572/ 333 10244 29096 55000 58025 60241;
0190834980999992004032312004-17733-039250FM-12+000399999V0209999C000010450019N0020001N1+02421+02331101501ADDAY161061AY261061GF108991031071008001021999KA1240N+02251MA1999999101451MD1999999+0161MW1211REMSYN088AAXX  23124 83498 21595 80000 10242 20233 30145 40150 72166 8372/ 333 20225 58016 60864;
0171834980999992004032318004-17733-039250FM-12+000399999V0200901N001010450019N0020001N1+02401+02301101231ADDAY161061AY261061GF108991031071008001021999MA1999999101181MD1999999+0031MW1211REMSYN082AAXX  23184 83498 21595 80902 10240 20230 30118 40123 72166 8372/ 333 58003 60271;
0202834980999992004032400004-17733-039250FM-12+000399999V0202301N002110450019N0020001N1+02321+02271101451ADDAY161061AY261061GF108991041071008001021999KA1240M+02461MA1999999101401MD1999999-0041MW1291REMSYN100AAXX  24004 83498 21595 82304 10232 20227 30140 40145 72966 8472/ 333 10246 29096 55000 59004 60131;
0190834980999992004032412004-17733-039250FM-12+000399999V0202301N001510450019N0020001N1+02301+02131101531ADDAY161061AY261061GF108991041071008001021999KA1240N+02121MA1999999101481MD1999999+0031MW1211REMSYN088AAXX  24124 83498 21595 82303 10230 20213 30148 40153 72166 8472/ 333 20212 58003 60434;
0174834980999992004032512004-17733-039250FM-12+000399999V0201801N002110075019N0020001N1+02321+02241101591ADDGF108991051051008001021999KA1240N+02211MA1999999101541MD1999999+0061MW1211REMSYN088AAXX  25124 83498 21595 81804 10232 20224 30154 40159 721// 8552/ 333 20221 58006 60074;
0171834980999992004032518004-17733-039250FM-12+000399999V0201401N002610450019N0020001N1+02611+02191101371ADDAY101061AY231061GF107991041051008001011001MA1999999101131MD1999999+0021MW1211REMSYN082AAXX  25184 83498 21595 71405 10261 20219 30113 40137 72103 84510 333 58002 69931;
0179834980999992004032600004-17733-039250FM-12+000399999V0200501N001510075019N0020001N1+02471+02131101581ADDAA106000021GF107991051061008001011001KA1240M+02671MA1999999101531MD1999999+0061REMSYN088AAXX  26004 83498 32595 70503 10247 20213 30153 40158 85610 333 10267 29084 55001 58006;
0190834980999992004032612004-17733-039250FM-12+000399999V0202301N002610450019N0020001N1+02431+02321101581ADDAY161061AY261061GF107991031071008001021001KA1240N+02271MA1999999101531MD1999999-0011MW1211REMSYN088AAXX  26124 83498 21595 72305 10243 20232 30153 40158 72166 83720 333 20227 59001 60044;
0148834980999992004032618004-17733-039250FM-12+000399999V0200901N002610450019N0020001N1+02771+02281101281ADDAA106000021GF105991031051008001031081MA1999999101231MD1999999-0091REMSYN070AAXX  26184 83498 32595 50905 10277 20228 30123 40128 83538 333 59009;
0202834980999992004032700004-17733-039250FM-12+000399999V0203201N001510450019N0020001N1+02361+02261101471ADDAY161061AY221061GF106991031051008001021081KA1240M+02851MA1999999101421MD1999999-0111MW1211REMSYN100AAXX  27004 83498 21595 63203 10236 20226 30142 40147 72162 83528 333 10285 29089 55042 59011 60021;
0162834980999992004032712004-17733-039250FM-12+000399999V0202301N000510450019N0020001N1+02481+02231101461ADDGF108991031011008001051011KA1240N+02141MA1999999101411MD1999999-0121REMSYN082AAXX  27124 83498 22595 82301 10248 20223 30141 40146 83151 333 20214 59012 60024;
0167834980999992004032718004-17733-039250FM-12+000399999V0200901N001510450019N0020001N1+02761+02281101261ADDAA106000091GF108991041051008001011999MA1999999101211MD1999999-0021REMSYN070AAXX  27184 83498 32595 80903 10276 20228 30121 40126 8451/ 333 59002;EQDQ01  00002PRCP06
0202834980999992004032800004-17733-039250FM-12+000399999V0202701N001010075019N0020001N1+02361+02131101451ADDAY161061AY221061GF108991051071008001021999KA1240M+02921MA1999999101401MD1999999-0021MW1611REMSYN100AAXX  28004 83498 21595 82702 10236 20213 30140 40145 76162 8572/ 333 10292 29084 55016 59002 60011;
0174834980999992004032812004-17733-039250FM-12+000399999V0202301N001510075019N0020001N1+02501+02311101581ADDGF108991051051008001021021KA1240N+02221MA1999999101531MD1999999+0121MW1211REMSYN088AAXX  28124 83498 21595 82303 10250 20231 30153 40158 721// 85522 333 20222 58012 60024;
0148834980999992004032818004-17733-039250FM-12+000399999V0200901N001510450019N0020001N1+02691+02281101341ADDAA106000021GF108991041051008001021999MA1999999101291MD1999999+0081REMSYN070AAXX  28184 83498 32595 80903 10269 20228 30129 40134 8452/ 333 58008;
0198834980999992004032900004-17733-039250FM-12+000399999V0200501N001012200019N0020001N1+02481+02321101481ADDAA106000091GF102991021001012501031001KA1240M+02821MA1999999101431MD1999999+0041REMSYN088AAXX  29004 83498 32695 20502 10248 20232 30143 40148 82030 333 10282 29088 55/// 58004;EQDQ01  00002PRCP06
0186834980999992004032912004-17733-039250FM-12+000399999V0202701N001010450019N0020001N1+02501+02401101691ADDAA106000091GF108991011051008001071999KA1240N+02361MA1999999101641MD1999999+0111REMSYN076AAXX  29124 83498 32595 82702 10250 20240 30164 40169 8157/ 333 20236 58011;EQDQ01  00002PRCP06
0167834980999992004032918004-17733-039250FM-12+000399999V0200901N002110450019N0020001N1+02831+02291101371ADDAA106000091GF105991021021008001031051MA1999999101321MD1999999+0031REMSYN070AAXX  29184 83498 32595 50904 10283 20229 30132 40137 82235 333 58003;EQDQ01  00002PRCP06
0198834980999992004033000004-17733-039250FM-12+000399999V0200901N000519999999N0020001N1+02461+02271101611ADDAA106000091GF106991051001012501081051KA1240M+02901MA1999999101561MD1999999+0131REMSYN088AAXX  30004 83498 32695 60901 10246 20227 30156 40161 85085 333 10290 29086 55022 58013;EQDQ01  00002PRCP06
0186834980999992004033012004-17733-039250FM-12+000399999V0202301N001010450019N0020001N1+02601+02191101791ADDAA106000091GF106991031021008001051001KA1240N+02241MA1999999101741MD1999999+0101REMSYN076AAXX  30124 83498 32595 62302 10260 20219 30174 40179 83250 333 20224 58010;EQDQ01  00002PRCP06
0167834980999992004033018004-17733-039250FM-12+000399999V0200901N003110450019N0020001N1+02961+02131101431ADDAA106000091GF106991021011008001051011MA1999999101381MD1999999+0061REMSYN070AAXX  30184 83498 32595 60906 10296 20213 30138 40143 82151 333 58006;EQDQ01  00002PRCP06
0198834980999992004033100004-17733-039250FM-12+000399999V0200501N001510450019N0020001N1+02581+02191101721ADDAA106000091GF107991031011008001051001KA1240M+03021MA1999999101671MD1999999+0111REMSYN088AAXX  31004 83498 32595 70503 10258 20219 30167 40172 83150 333 10302 29074 55079 58011;EQDQ01  00002PRCP06
0190834980999992004033112004-17733-039250FM-12+000399999V0203201N000510450019N0020001N1+02801+02381101651ADDAY101061AY231061GF106991041051008001041001KA1240N+02441MA1999999101601MD1999999-0141MW1211REMSYN088AAXX  31124 83498 21595 63201 10280 20238 30160 40165 72103 84540 333 20244 59014 69954;
0198834980999992004040100004-17733-039250FM-12+000399999V0200501N000510450019N0020001N1+02551+02331101641ADDAA106000091GF107991041081008001051001KA1240M+02991MA1999999101591MD1999999-0081REMSYN088AAXX  01004 83498 32595 70501 10255 20233 30159 40164 84850 333 10299 29081 55049 59008;EQDQ01  00002PRCP06
0186834980999992004040112004-17733-039250FM-12+000399999V0201401N001010450019N0020001N1+02761+02321101631ADDAA106000091GF106991041021008001031021KA1240N+02381MA1999999101581MD1999999-0021REMSYN076AAXX  01124 83498 32595 61402 10276 20232 30158 40163 84232 333 20238 59002;EQDQ01  00002PRCP06
0084834980999992004040118004-17733-039250FM-12+000399999V02099999999999999999N9999999N1+99999+99999999999REMSYN075AAXX  01184 83498 31595 6143 10275 20238 30126 40131 72902 84528 333 59005;
0167834980999992004040218004-17733-039250FM-12+000399999V0200501N002610450019N0020001N1+03001+02191101341ADDAA106000091GF105991021011008001051001MA1999999101291MD1999999+0031REMSYN070AAXX  02184 83498 32595 50505 10300 20219 30129 40134 82150 333 58003;EQDQ01  00002PRCP06
0202834980999992004040300004-17733-039250FM-12+000399999V0200501N001510450019N0020001N1+02601+02141101651ADDAY161061AY221061GF107991021011008001051001KA1240M+03001MA1999999101601MD1999999+0061MW1211REMSYN100AAXX  03004 83498 21595 70503 10260 20214 30160 40165 72162 82150 333 10300 29072 55086 58006 69911;
0190834980999992004040512004-17733-039250FM-12+000399999V0200501N002610450019N0020001N1+02821+02331101751ADDAY101061AY221061GF106991031051008001041031KA1240N+02401MA1999999101701MD1999999-0031MW1211REMSYN088AAXX  05124 83498 21595 60505 10282 20233 30170 40175 72102 83543 333 20240 59003 69924;
0148834980999992004040518004-17733-039250FM-12+000399999V0200501N002110450019N0020001N1+03001+02241101381ADDAA106000021GF107991021011008001031011MA1999999101331MD1999999-0091REMSYN070AAXX  05184 83498 32595 70504 10300 20224 30133 40138 82131 333 59009;
0190834980999992004040612004-17733-039250FM-12+000399999V0200501N001010075019N0020001N1+02801+02291101541ADDAY161061AY221061GF106991061021008001001001KA1240N+02301MA1999999101491MD1999999-0211MW1211REMSYN088AAXX  06124 83498 21595 60502 10280 20229 30149 40154 72162 86200 333 20230 59021 69984;
0171834980999992004040618004-17733-039250FM-12+000399999V0200501N001510450019N0020001N1+02631+02371101261ADDAY161061AY261061GF108991021071008001011091MA1999999101211MD1999999-0121MW1211REMSYN082AAXX  06184 83498 21595 80503 10263 20237 30121 40126 72166 82719 333 59012 69941;
0186834980999992004040700004-17733-039250FM-12+000399999V0200501N002110450019N0020001N1+02371+02171101471ADDGF108991031071008001021999KA1240M+02961MA1999999101421MD1999999-0101MW1211REMSYN100AAXX  07004 83498 21595 80504 10237 20217 30142 40147 721// 8372/ 333 10296 29084 55047 59010 69951;
0190834980999992004040712004-17733-039250FM-12+000399999V0200901N001510450019N0020001N1+02561+02361101481ADDAY161061AY261061GF108991041051008001021999KA1240N+02351MA1999999101431MD1999999-0061MW1211REMSYN088AAXX  07124 83498 21595 80903 10256 20236 30143 40148 72166 8452/ 333 20235 59006 60174;
0171834980999992004040718004-17733-039250FM-12+000399999V0200901N003110075019N0020001N1+02561+02351101231ADDAY161061AY261061GF107991051051008001021001MA1999999101181MD1999999-0031MW1211REMSYN082AAXX  07184 83498 21595 70906 10256 20235 30118 40123 72166 85520 333 59003 60041;
0202834980999992004040800004-17733-039250FM-12+000399999V0203601N001510450019N0020001N1+02501+02411101421ADDAY161061AY261061GF108991041071008001021999KA1240M+02921MA1999999101371MD1999999-0051MW1211REMSYN100AAXX  08004 83498 21595 83603 10250 20241 30137 40142 72166 8472/ 333 10292 29092 55016 59005 60061;
0190834980999992004040812004-17733-039250FM-12+000399999V0203601N002110450019N0020001N1+02801+02291101561ADDAY161061AY261061GF108991031011008001051021KA1240N+02381MA1999999101511MD1999999+0081MW1211REMSYN088AAXX  08124 83498 21595 83604 10280 20229 30151 40156 72166 83152 333 20238 58008 60124;
0148834980999992004040818004-17733-039250FM-12+000399999V0203601N003112200019N0020001N1+03081+02191101271ADDAA106000021GF102991021011008001001001MA1999999101221MD1999999+0041REMSYN070AAXX  08184 83498 32595 23606 10308 20219 30122 40127 82100 333 58004;
0198834980999992004040900004-17733-039250FM-12+000399999V0203601N001012200019N0020001N1+02641+02341101521ADDAA106000091GF102991021011008001001001KA1240M+03021MA1999999101471MD1999999+0101REMSYN088AAXX  09004 83498 32595 23602 10264 20234 30147 40152 82100 333 10302 29079 55085 58010;EQDQ01  00002PRCP06
0190834980999992004040912004-17733-039250FM-12+000399999V0200501N001510450019N0020001N1+02701+02371101701ADDAY101061AY231061GF107991041051008001011001KA1240N+02391MA1999999101651MD1999999+0141MW1211REMSYN088AAXX  09124 83498 21595 70503 10270 20237 30165 40170 72103 84510 333 20239 58014 60034;
0148834980999992004040918004-17733-039250FM-12+000399999V0203601N001010450019N0020001N1+02621+02391101381ADDAA106000021GF108991021071008001021999MA1999999101331MD1999999+0111REMSYN070AAXX  09184 83498 32595 83602 10262 20239 30133 40138 8272/ 333 58011;
0202834980999992004041000004-17733-039250FM-12+000399999V0209999C000010450019N0020001N1+02481+02391101441ADDAY101061AY231061GF106991041061008001011001KA1240M+02881MA1999999101391MD1999999-0081MW1211REMSYN100AAXX  10004 83498 21595 60000 10248 20239 30139 40144 72103 84610 333 10288 29090 55003 59008 69941;
0190834980999992004041012004-17733-039250FM-12+000399999V0203601N001510450019N0020001N1+02571+02351101331ADDAY161061AY261061GF107991031071008001011001KA1240N+02331MA1999999101281MD1999999-0371MW1211REMSYN088AAXX  10124 83498 21595 73603 10257 20235 30128 40133 72166 83710 333 20233 59037 60024;
0171834980999992004041018004-17733-039250FM-12+000399999V0200501N004112200019N0020001N1+02891+02251100941ADDAY101061AY211061GF103991011011008001001021MA1999999100891MD1999999-0441MW1211REMSYN082AAXX  10184 83498 21595 30508 10289 20225 30089 40094 72101 81102 333 59044 69911;
0189834980999992004041100004-17733-039250FM-12+000399999V0200501N001012200019N0020001N1+02541+02381101121ADDAA106000021GA1001+999999999GF100991001001999999001001KA1240M+03001MA1999999101071MD1999999-0321REMSYN082AAXX  11004 83498 32995 00502 10254 20238 30107 40112 333 10300 29085 55075 59032;
0162834980999992004041112004-17733-039250FM-12+000399999V0203601N002110450019N0020001N1+02701+02331101171ADDGF108991041051008001011999KA1240N+02401MA1999999101121MD1999999-0161REMSYN082AAXX  11124 83498 22595 83604 10270 20233 30112 40117 8451/ 333 20240 59016 69914;
0171834980999992004041118004-17733-039250FM-12+000399999V0200901N001510450019N0020001N1+02801+02341100921ADDAY161061AY221061GF108991031061008001011999MA1999999100871MD1999999-0021MW1211REMSYN082AAXX  11184 83498 21595 80903 10280 20234 30087 40092 72162 8361/ 333 59002 69911;
0202834980999992004041200004-17733-039250FM-12+000399999V0200901N001010450019N0020001N1+02601+02231101171ADDAY161061AY261061GF108991031061008001011999KA1240M+02861MA1999999101121MD1999999+0051MW1211REMSYN100AAXX  12004 83498 21595 80902 10260 20223 30112 40117 72166 8361/ 333 10286 29079 55005 58005 69931;
0190834980999992004041212004-17733-039250FM-12+000399999V0203201N001510450019N0020001N1+02791+02501101341ADDAY161061AY261061GF106991041051008001041001KA1240N+02481MA1999999101291MD1999999+0171MW1211REMSYN088AAXX  12124 83498 21595 63203 10279 20250 30129 40134 72166 84540 333 20248 58017 69964;
0148834980999992004041218004-17733-039250FM-12+000399999V0200501N003110450019N0020001N1+02861+02351101111ADDAA106000021GF107991041051008001011001MA1999999101061MD1999999+0191REMSYN070AAXX  12184 83498 32595 70506 10286 20235 30106 40111 84510 333 58019;
0186834980999992004041300004-17733-039250FM-12+000399999V0200501N001510075019N0020001N1+02611+02441101441ADDGF108991061061008001021999KA1240M+03021MA1999999101391MD1999999+0271MW1211REMSYN100AAXX  13004 83498 21595 80503 10261 20244 30139 40144 721// 8662/ 333 10302 29085 55036 58027 69911;
0190834980999992004041312004-17733-039250FM-12+000399999V0203201N000510075019N0020001N1+02381+02331101731ADDAY161061AY261061GF108991051071008001021999KA1240N+02381MA1999999101681MD1999999+0391MW1211REMSYN088AAXX  13124 83498 21595 83201 10238 20233 30168 40173 72166 8572/ 333 20238 58039 60164;
0171834980999992004041318004-17733-039250FM-12+000399999V0201401N001010075019N0020001N1+02771+02091101441ADDAY101061AY231061GF107991051051008001011001MA1999999101391MD1999999+0331MW1211REMSYN082AAXX  13184 83498 21595 71402 10277 20209 30139 40144 72103 85510 333 58033 60021;
0202834980999992004041400004-17733-039250FM-12+000399999V0202301N001010075019N0020001N1+02541+02441101691ADDAY161061AY261061GF108991051061008001021999KA1240M+02941MA1999999101641MD1999999-0251MW1211REMSYN100AAXX  14004 83498 21595 82302 10254 20244 30164 40169 72166 8562/ 333 10294 29088 55012 59025 69921;
0162834980999992004041412004-17733-039250FM-12+000399999V0200901N002110450019N0020001N1+02741+02381101721ADDGF108991031051008001011999KA1240N+02391MA1999999101671MD1999999-0011REMSYN082AAXX  14124 83498 22595 80904 10274 20238 30167 40172 8351/ 333 20239 59001 60024;
0167834980999992004041418004-17733-039250FM-12+000399999V0200901N002610450019N0020001N1+02881+02321101391ADDAA106000091GF108991041051008001011999MA1999999101341MD1999999-0051REMSYN070AAXX  14184 83498 32595 80905 10288 20232 30134 40139 8451/ 333 59005;EQDQ01  00002PRCP06
0198834980999992004041500004-17733-039250FM-12+000399999V0200501N001012200019N0020001N1+02561+02151101651ADDAA106000091GF102991021011008001001001KA1240M+02921MA1999999101601MD1999999-0041REMSYN088AAXX  15004 83498 32595 20502 10256 20215 30160 40165 82100 333 10292 29075 55026 59004;EQDQ01  00002PRCP06
0190834980999992004041512004-17733-039250FM-12+000399999V0200901N002611050019N0020001N1+02751+02341101671ADDAY161061AY261061GF106991041041008001001021KA1240N+02421MA1999999101621MD1999999-0051MW1211REMSYN088AAXX  15124 83498 21595 60905 10275 20234 30162 40167 72166 84402 333 20242 59005 60024;
0148834980999992004041518004-17733-039250FM-12+000399999V0200901N002110450019N0020001N1+02701+02221101401ADDAA106000021GF107991031051008001021081MA1999999101351MD1999999+0011REMSYN070AAXX  15184 83498 32595 70904 10270 20222 30135 40140 83528 333 58001;
0202834980999992004041600004-17733-039250FM-12+000399999V0203601N001010450019N0020001N1+02341+02241101601ADDAY161061AY261061GF106991031051008001021081KA1240M+02921MA1999999101551MD1999999-0051MW1211REMSYN100AAXX  16004 83498 21595 63602 10234 20224 30155 40160 72166 83528 333 10292 29086 55054 59005 60071;
0190834980999992004041612004-17733-039250FM-12+000399999V0200901N003111050019N0020001N1+02861+02331101761ADDAY161061AY261061GF106991041041008001001081KA1240N+02291MA1999999101711MD1999999+0091MW1211REMSYN088AAXX  16124 83498 21595 60906 10286 20233 30171 40176 72166 84408 333 20229 58009 60104;
0148834980999992004041618004-17733-039250FM-12+000399999V0201401N002111050019N0020001N1+02871+02281101511ADDAA106000021GF106991031021008001001081MA1999999101461MD1999999+0111REMSYN070AAXX  16184 83498 32595 61404 10287 20228 30146 40151 83208 333 58011;
0198834980999992004041700004-17733-039250FM-12+000399999V0200901N001512200019N0020001N1+02471+02211101751ADDAA106000091GF103991011011008001021001KA1240M+02941MA1999999101701MD1999999+0151REMSYN088AAXX  17004 83498 32595 30903 10247 20221 30170 40175 81120 333 10294 29079 55074 58015;EQDQ01  00002PRCP06
0186834980999992004041712004-17733-039250FM-12+000399999V0202301N001510450019N0020001N1+02641+02271101951ADDAA106000091GF108991041051008001011999KA1240N+02241MA1999999101901MD1999999+0191REMSYN076AAXX  17124 83498 32595 82303 10264 20227 30190 40195 8451/ 333 20224 58019;EQDQ01  00002PRCP06
0171834980999992004041718004-17733-039250FM-12+000399999V0200901N002610450019N0020001N1+02881+02211101581ADDAY161061AY221061GF108991021021008001011011MA1999999101531MD1999999+0071MW1211REMSYN082AAXX  17184 83498 21595 80905 10288 20221 30153 40158 72162 82211 333 58007 69941;
0179834980999992004041800004-17733-039250FM-12+000399999V0200901N000512200019N0020001N1+02501+02171101851ADDAA106000021GF105991021051008001001011KA1240M+02861MA1999999101801MD1999999+0101REMSYN088AAXX  18004 83498 32595 50901 10250 20217 30180 40185 82501 333 10286 29078 55004 58010;
0190834980999992004041812004-17733-039250FM-12+000399999V0200901N001011050019N0020001N1+02831+02171101871ADDAY161061AY261061GF105991021021008001031081KA1240N+02281MA1999999101821MD1999999-0081MW1211REMSYN088AAXX  18124 83498 21595 50902 10283 20217 30182 40187 72166 82238 333 20228 59008 60014;
0148834980999992004041818004-17733-039250FM-12+000399999V0200901N001511050019N0020001N1+02771+02231101531ADDAA106000021GF106991021021008001001081MA1999999101481MD1999999-0051REMSYN070AAXX  18184 83498 32595 60903 10277 20223 30148 40153 82208 333 59005;
0198834980999992004041900004-17733-039250FM-12+000399999V0200901N000512200019N0020001N1+02341+02201101761ADDAA106000091GF102991001001999999001081KA1240M+02951MA1999999101711MD1999999-0091REMSYN088AAXX  19004 83498 32995 20901 10234 20220 30171 40176 80008 333 10295 29081 55028 59009;EQDQ01  00002PRCP06
0186834980999992004041912004-17733-039250FM-12+000399999V0202301N001010450019N0020001N1+02631+02211101761ADDAA106000091GF105991041021008001031011KA1240N+02171MA1999999101711MD1999999-0111REMSYN076AAXX  19124 83498 32595 52302 10263 20221 30171 40176 84231 333 20217 59011;EQDQ01  00002PRCP06
0167834980999992004041918004-17733-039250FM-12+000399999V0201401N002110450019N0020001N1+02771+02301101351ADDAA106000091GF106991031051008001021011MA1999999101301MD1999999-0181REMSYN070AAXX  19184 83498 32595 61404 10277 20230 30130 40135 83521 333 59018;EQDQ01  00002PRCP06
0208834980999992004042000004-17733-039250FM-12+000399999V0200501N001512200019N0020001N1+02421+02231101461ADDAA106000091GA1001+999999999GF100991001001999999001001KA1240M+02921MA1999999101411MD1999999-0301REMSYN082AAXX  20004 83498 32995 00503 10242 20223 30141 40146 333 10292 29083 55076 59030;EQDQ01  00002PRCP06
0186834980999992004042012004-17733-039250FM-12+000399999V0203601N002110450019N0020001N1+02801+02341101561ADDAA106000091GF105991031011008001041001KA1240N+02221MA1999999101511MD1999999-0201REMSYN076AAXX  20124 83498 32595 53604 10280 20234 30151 40156 83140 333 20222 59020;EQDQ01  00002PRCP06
0167834980999992004042018004-17733-039250FM-12+000399999V0200501N002610450019N0020001N1+02901+02321101321ADDAA106000091GF108991041051008001011011MA1999999101271MD1999999-0031REMSYN070AAXX  20184 83498 32595 80505 10290 20232 30127 40132 84511 333 59003;EQDQ01  00002PRCP06
0198834980999992004042100004-17733-039250FM-12+000399999V0200501N001012200019N0020001N1+02661+02331101581ADDAA106000091GF101991011011008001001001KA1240M+03001MA1999999101531MD1999999+0121REMSYN088AAXX  21004 83498 32595 10502 10266 20233 30153 40158 81100 333 10300 29078 55044 58012;EQDQ01  00002PRCP06
0186834980999992004042112004-17733-039250FM-12+000399999V0201401N001510450019N0020001N1+02811+02381101821ADDAA106000091GF106991041051008001041001KA1240N+02251MA1999999101771MD1999999+0261REMSYN076AAXX  21124 83498 32595 61403 10281 20238 30177 40182 84540 333 20225 58026;EQDQ01  00002PRCP06
0167834980999992004042118004-17733-039250FM-12+000399999V0201401N001510450019N0020001N1+02831+02241101601ADDAA106000091GF105991031011008001041001MA1999999101551MD1999999+0281REMSYN070AAXX  21184 83498 32595 51403 10283 20224 30155 40160 83140 333 58028;EQDQ01  00002PRCP06
0198834980999992004042200004-17733-039250FM-12+000399999V0201401N001512200019N0020001N1+02591+02251101851ADDAA106000091GF102991021061008001001001KA1240M+03001MA1999999101801MD1999999+0271REMSYN088AAXX  22004 83498 32595 21403 10259 20225 30180 40185 82600 333 10300 29078 55060 58027;EQDQ01  00002PRCP06
0190834980999992004042212004-17733-039250FM-12+000399999V0201801N001010450019N0020001N1+02601+02291101791ADDAY161061AY261061GF106991031051008001021081KA1240N+02321MA1999999101741MD1999999-0031MW1211REMSYN088AAXX  22124 83498 21595 61802 10260 20229 30174 40179 72166 83528 333 20232 59003 60074;
0162834980999992004042218004-17733-039250FM-12+000399999V0201401N002119999999N0020001N1+02811+02311101451ADDGF106991999021008001061061MA1999999101401MD1999999-0151REMSYN076AAXX  22184 83498 22595 61404 10281 20231 30140 40145 80266 333 59015 60041;EQDQ01+000002SCOTLC
0202834980999992004042300004-17733-039250FM-12+000399999V0200901N001512200019N0020001N1+02421+02211101641ADDAY161061AY261061GF102991021051008001001001KA1240M+02911MA1999999101591MD1999999-0211MW1211REMSYN100AAXX  23004 83498 21595 20903 10242 20221 30159 40164 72166 82500 333 10291 29084 55053 59021 69911;
0162834980999992004042312004-17733-039250FM-12+000399999V0202701N000510450019N0020001N1+02661+02221101621ADDGF108991041051008001011999KA1240N+02171MA1999999101571MD1999999-0171REMSYN082AAXX  23124 83498 22595 82701 10266 20222 30157 40162 8451/ 333 20217 59017 69954;
0167834980999992004042318004-17733-039250FM-12+000399999V0200901N002610450019N0020001N1+02781+02211101231ADDAA106000091GF108991021011008001051021MA1999999101181MD1999999-0221REMSYN070AAXX  23184 83498 32595 80905 10278 20221 30118 40123 82152 333 59022;EQDQ01  00002PRCP06
0198834980999992004042400004-17733-039250FM-12+000399999V0200901N001510450019N0020001N1+02601+02191101341ADDAA106000091GF105991031021008001041001KA1240M+02901MA1999999101291MD1999999-0301REMSYN088AAXX  24004 83498 32595 50903 10260 20219 30129 40134 83240 333 10290 29076 55045 59030;EQDQ01  00002PRCP06
0186834980999992004042412004-17733-039250FM-12+000399999V0203201N001512200019N0020001N1+02751+02401101331ADDAA106000091GF105991041021008001001011KA1240N+02301MA1999999101281MD1999999-0291REMSYN076AAXX  24124 83498 32595 53203 10275 20240 30128 40133 84201 333 20230 59029;EQDQ01  00002PRCP06
0167834980999992004042418004-17733-039250FM-12+000399999V0200501N002612200019N0020001N1+02911+02071101021ADDAA106000091GF101991011011008001001001MA1999999100971MD1999999-0211REMSYN070AAXX  24184 83498 32595 10505 10291 20207 30097 40102 81100 333 59021;EQDQ01  00002PRCP06
0208834980999992004042500004-17733-039250FM-12+000399999V0200501N000512200019N0020001N1+02271+02091101231ADDAA106000091GA1001+999999999GF100991001001999999001001KA1240M+03081MA1999999101181MD1999999-0111REMSYN082AAXX  25004 83498 32995 00501 10227 20209 30118 40123 333 10308 29081 55093 59011;EQDQ01  00002PRCP06
0186834980999992004042512004-17733-039250FM-12+000399999V0203601N003112200019N0020001N1+02771+02281101361ADDAA106000091GF103991021011008001001011KA1240N+02101MA1999999101311MD1999999+0031REMSYN076AAXX  25124 83498 32595 33606 10277 20228 30131 40136 82101 333 20210 58003;EQDQ01  00002PRCP06
0167834980999992004042518004-17733-039250FM-12+000399999V0200501N003112200019N0020001N1+02821+02241101081ADDAA106000091GF103991021041008001001011MA1999999101031MD1999999+0061REMSYN070AAXX  25184 83498 32595 30506 10282 20224 30103 40108 82401 333 58006;EQDQ01  00002PRCP06
0198834980999992004042600004-17733-039250FM-12+000399999V0200501N000512200019N0020001N1+02411+02301101271ADDAA106000091GF103991001001999999001011KA1240M+03221MA1999999101221MD1999999+0041REMSYN088AAXX  26004 83498 32995 30501 10241 20230 30122 40127 80001 333 10322 29084 55086 58004;EQDQ01  00002PRCP06
0190834980999992004042612004-17733-039250FM-12+000399999V0201801N007210075019N0020001N1+02361+01971101601ADDAY161061AY261061GF108991051071008001021999KA1240N+02231MA1999999101551MD1999999+0241MW1631REMSYN088AAXX  26124 83498 21595 81814 10236 20197 30155 40160 76366 8572/ 333 20223 58024 60354;
0171834980999992004042618004-17733-039250FM-12+000399999V0201801N005110450019N0020001N1+02461+02191101531ADDAY161061AY261061GF108991041071008001021999MA1999999101481MD1999999+0451MW1631REMSYN082AAXX  26184 83498 21595 81810 10246 20219 30148 40153 76366 8472/ 333 58045 60111;
0202834980999992004042700004-17733-039250FM-12+000399999V0201801N002110450019N0020001N1+02401+02111101791ADDAY161061AY261061GF108991031071008001021999KA1240M+02501MA1999999101741MD1999999+0521MW1611REMSYN100AAXX  27004 83498 21595 81804 10240 20211 30174 40179 76166 8372/ 333 10250 29083 55000 58052 60021;
0190834980999992004042712004-17733-039250FM-12+000399999V0201801N002610450019N0020001N1+02261+02091101961ADDAY161061AY261061GF108991031071008001021999KA1240N+02051MA1999999101911MD1999999+0361MW1211REMSYN088AAXX  27124 83498 21595 81805 10226 20209 30191 40196 72166 8372/ 333 20205 58036 60154;
0148834980999992004042718004-17733-039250FM-12+000399999V0201801N003110075019N0020001N1+02501+02171101661ADDAA106000021GF108991051051008001021999MA1999999101611MD1999999+0131REMSYN070AAXX  27184 83498 32595 81806 10250 20217 30161 40166 8552/ 333 58013;
0202834980999992004042800004-17733-039250FM-12+000399999V0201801N003110075019N0020001N1+02311+02161101911ADDAY161061AY261061GF108991051061008001021999KA1240M+02581MA1999999101861MD1999999+0121MW1211REMSYN100AAXX  28004 83498 21595 81806 10231 20216 30186 40191 72166 8562/ 333 10258 29089 55014 58012 69961;
0162834980999992004042812004-17733-039250FM-12+000399999V0201801N004110450019N0020001N1+02461+02151102031ADDGF108991041051008001021999KA1240N+02271MA1999999101981MD1999999+0071REMSYN082AAXX  28124 83498 22595 81808 10246 20215 30198 40203 8452/ 333 20227 58007 60034;
0167834980999992004042818004-17733-039250FM-12+000399999V0201801N004610450019N0020001N1+02571+01991101821ADDAA106000091GF107991031051008001021001MA1999999101771MD1999999+0161REMSYN070AAXX  28184 83498 32595 71809 10257 20199 30177 40182 83520 333 58016;EQDQ01  00002PRCP06
0198834980999992004042900004-17733-039250FM-12+000399999V0201801N004112200019N0020001N1+02411+01991102071ADDAA106000091GF104991021021008001031001KA1240M+02611MA1999999102021MD1999999+0161REMSYN088AAXX  29004 83498 32595 41808 10241 20199 30202 40207 82230 333 10261 29078 55000 58016;EQDQ01  00002PRCP06
0190834980999992004042912004-17733-039250FM-12+000399999V0202301N002610450019N0020001N1+02361+02051102031ADDAY161061AY221061GF105991031021008001011001KA1240N+01961MA1999999101981MD1999999+0001MW1211REMSYN088AAXX  29124 83498 21595 52305 10236 20205 30198 40203 72162 83210 333 20196 58000 69944;
0148834980999992004042918004-17733-039250FM-12+000399999V0201401N003112200019N0020001N1+02701+01991101641ADDAA106000021GF103991031011008001001001MA1999999101591MD1999999-0181REMSYN070AAXX  29184 83498 32595 31406 10270 20199 30159 40164 83100 333 59018;
0198834980999992004043000004-17733-039250FM-12+000399999V0201401N001012200019N0020001N1+02501+02001101801ADDAA106000091GF101991011011008001001001KA1240M+02681MA1999999101751MD1999999-0271REMSYN088AAXX  30004 83498 32595 11402 10250 20200 30175 40180 81100 333 10268 29074 55078 59027;EQDQ01  00002PRCP06
0162834980999992004043012004-17733-039250FM-12+000399999V0201401N004112200019N0020001N1+02461+02091101821ADDGF102991021011008001001001KA1240N+01951MA1999999101771MD1999999-0211REMSYN082AAXX  30124 83498 22595 21408 10246 20209 30177 40182 82100 333 20195 59021 69924;
0167834980999992004043018004-17733-039250FM-12+000399999V0201401N002112200019N0020001N1+02631+02081101411ADDAA106000091GF102991021011008001001001MA1999999101361MD1999999-0231REMSYN070AAXX  30184 83498 32595 21404 10263 20208 30136 40141 82100 333 59023;EQDQ01  00002PRCP06
0198834980999992004050100004-17733-039250FM-12+000399999V0201401N000512200019N0020001N1+02281+02111101611ADDAA106000091GF101991011011008001001001KA1240M+02721MA1999999101561MD1999999-0191REMSYN088AAXX  01004 83498 32595 11401 10228 20211 30156 40161 81100 333 10272 29083 55097 59019;EQDQ01  00002PRCP06
0186834980999992004050112004-17733-039250FM-12+000399999V0202301N000510450019N0020001N1+02551+02231101711ADDAA106000091GF107991031011008001031001KA1240N+02071MA1999999101661MD1999999-0111REMSYN076AAXX  01124 83498 32595 72301 10255 20223 30166 40171 83130 333 20207 59011;EQDQ01  00002PRCP06
0167834980999992004050118004-17733-039250FM-12+000399999V0201401N002610450019N0020001N1+02731+02281101301ADDAA106000091GF106991031041008001021001MA1999999101251MD1999999-0111REMSYN070AAXX  01184 83498 32595 61405 10273 20228 30125 40130 83420 333 59011;EQDQ01  00002PRCP06
0202834980999992004050200004-17733-039250FM-12+000399999V0200501N001510450019N0020001N1+02411+02281101651ADDAY161061AY221061GF108991021051008001021999KA1240M+02701MA1999999101601MD1999999+0041MW1211REMSYN100AAXX  02004 83498 21595 80503 10241 20228 30160 40165 72162 8252/ 333 10270 29087 55061 58004 60011;
0190834980999992004050212004-17733-039250FM-12+000399999V0202701N001012200019N0020001N1+02561+02251101831ADDAY161061AY221061GF104991021011008001051001KA1240N+02261MA1999999101781MD1999999+0121MW1211REMSYN088AAXX  02124 83498 21595 42702 10256 20225 30178 40183 72162 82150 333 20226 58012 60164;
0148834980999992004050218004-17733-039250FM-12+000399999V0200901N003110450019N0020001N1+02881+02161101561ADDAA106000021GF107991031011008001031021MA1999999101511MD1999999+0261REMSYN070AAXX  02184 83498 32595 70906 10288 20216 30151 40156 83132 333 58026;
0198834980999992004050300004-17733-039250FM-12+000399999V0200501N000512200019N0020001N1+02561+02191101811ADDAA106000091GF101991011011008001001001KA1240M+02861MA1999999101761MD1999999+0161REMSYN088AAXX  03004 83498 32595 10501 10256 20219 30176 40181 81100 333 10286 29077 55022 58016;EQDQ01  00002PRCP06
0186834980999992004050312004-17733-039250FM-12+000399999V0201401N002112200019N0020001N1+02731+02241101901ADDAA106000091GF106991041021008001001011KA1240N+02281MA1999999101851MD1999999+0071REMSYN076AAXX  03124 83498 32595 61404 10273 20224 30185 40190 84201 333 20228 58007;EQDQ01  00002PRCP06
0167834980999992004050318004-17733-039250FM-12+000399999V0201401N002110450019N0020001N1+02751+02261101651ADDAA106000091GF106991041051008001041001MA1999999101601MD1999999+0001REMSYN070AAXX  03184 83498 32595 61404 10275 20226 30160 40165 84540 333 58000;EQDQ01  00002PRCP06
0186834980999992004050400004-17733-039250FM-12+000399999V0200501N000510075019N0020001N1+02381+02281101781ADDGF108991051051008001021999KA1240M+02861MA1999999101731MD1999999-0031MW1211REMSYN100AAXX  04004 83498 21595 80501 10238 20228 30173 40178 721// 8552/ 333 10286 29085 55061 59003 69921;
0190834980999992004050412004-17733-039250FM-12+000399999V0201401N002112200019N0020001N1+02801+02271101831ADDAY161061AY221061GF104991021021008001001011KA1240N+02251MA1999999101781MD1999999-0071MW1211REMSYN088AAXX  04124 83498 21595 41404 10280 20227 30178 40183 72162 82201 333 20225 59007 60034;
0198834980999992004050500004-17733-039250FM-12+000399999V0200901N002112200019N0020001N1+02501+02171101761ADDAA106000091GF106991031021008001001011KA1240M+02881MA1999999101711MD1999999-0021REMSYN088AAXX  05004 83498 32595 60904 10250 20217 30171 40176 83201 333 10288 29078 55081 59002;EQDQ01  00002PRCP06
0190834980999992004050512004-17733-039250FM-12+000399999V0202701N001012200019N0020001N1+02601+02251101861ADDAY161061AY211061GF103991031021008001001001KA1240N+02271MA1999999101811MD1999999+0031MW1211REMSYN088AAXX  05124 83498 21595 32702 10260 20225 30181 40186 72161 83200 333 20227 58003 69914;
0148834980999992004050518004-17733-039250FM-12+000399999V0200901N002110450019N0020001N1+02841+02171101531ADDAA106000021GF105991021011008001051001MA1999999101481MD1999999+0021REMSYN070AAXX  05184 83498 32595 50904 10284 20217 30148 40153 82150 333 58002;
0198834980999992004050600004-17733-039250FM-12+000399999V0200901N001010450019N0020001N1+02541+02251101721ADDAA106000091GF106991021011008001041011KA1240M+02881MA1999999101671MD1999999-0041REMSYN088AAXX  06004 83498 32595 60902 10254 20225 30167 40172 82141 333 10288 29079 55077 59004;EQDQ01  00002PRCP06
0190834980999992004050612004-17733-039250FM-12+000399999V0200901N001011050019N0020001N1+02761+02321101921ADDAY101061AY231061GF106991041021008001001021KA1240N+02251MA1999999101871MD1999999+0061MW1211REMSYN088AAXX  06124 83498 21595 60902 10276 20232 30187 40192 72103 84202 333 20225 58006 69924;
0148834980999992004050618004-17733-039250FM-12+000399999V0200901N002612200019N0020001N1+02781+02161101631ADDAA106000021GF104991041011008001001001MA1999999101581MD1999999+0101REMSYN070AAXX  06184 83498 32595 40905 10278 20216 30158 40163 84100 333 58010;
0198834980999992004050700004-17733-039250FM-12+000399999V0200901N000512200019N0020001N1+02291+02161101841ADDAA106000091GF101991011011008001001001KA1240M+02941MA1999999101791MD1999999+0121REMSYN088AAXX  07004 83498 32595 10901 10229 20216 30179 40184 81100 333 10294 29083 55075 58012;EQDQ01  00002PRCP06
