0135825710999991990010112004-05500-045267FM-12+017499999V0209991C00001004201CN0100001N9+02521+02311101371ADDAA124001091AG10999AY161061GF108991081051004501999999KA1240N+02051MA1999999099411MD1999999-0011MW1021REMSYN023333   20205 59001 60014
0115825710999991990010212004-05500-045267FM-12+017499999V0201401N00051015001CN0002001N9+02571+02311101461ADDAA106000091AG10999GF108991051001017501021011KA1240N+02201MA1999999099481MD1999999+0071REMSYN017333   20220 58007
0096825710999991990010218004-05500-045267FM-12+017499999V0200501N00211220001CN0100001N9+03071+02351100951ADDAA106000091AG10999GF104991041031008001001001MA1999999099011MD1999999-0141REMSYN011333   59014
0096825710999991990010318004-05500-045267FM-12+017499999V0200501N00211045001CN0100001N9+03161+02571101221ADDAA106000091AG10999GF105991041031008001031011MA1999999099001MD1999999-0011REMSYN011333   59001
0121825710999991990010412004-05500-045267FM-12+017499999V0202301N00051004201CN0100001N9+02281+02231101531ADDAA124006091AG10999GF108991081051004501999999KA1240N+02131MA1999999099541MD1999999+0211REMSYN023333   20213 58021 60064
0121825710999991990010512004-05500-045267FM-12+017499999V0202301N00051004201CN0100001N9+02301+02281101311ADDAA124002091AG10999GF108991081051004501999999KA1240N+02071MA1999999099311MD1999999-0231REMSYN023333   20207 59023 60024
0082825710999991990010518004-05500-045267FM-12+017499999V0203601N00311220001CN0100001N9+03051+02281100991ADDAA106000091AG10999GF104991031021008001041001MA1999999099021REMSYN011333   54030
0115825710999991990010612004-05500-045267FM-12+017499999V0200501N00151004201CN0100001N9+02521+02341101341ADDAA106000091AG10999GF108991081051004501999999KA1240N+02131MA1999999099351MD1999999+0041REMSYN017333   20213 58004
0096825710999991990010618004-05500-045267FM-12+017499999V0200501N00211045001CN0100001N9+03071+02271100941ADDAA106000091AG10999GF105991041021008001011001MA1999999098981MD1999999-0041REMSYN011333   59004
0115825710999991990010712004-05500-045267FM-12+017499999V0203601N00051045001CN0100001N9+02631+02291101321ADDAA106000091AG10999GF106991041021004501031001KA1240N+02251MA1999999099351MD1999999+0001REMSYN017333   20225 58000
0118825710999991990010718004-05500-045267FM-12+017499999V0202701N00151012001CN0100001N9+02471+02271101031ADDAA106000091AG10999AY191061AY231061GF108991081081008001999999MA1999999099051MD1999999+0071MW1171REMSYN011333   58007
0121825710999991990010812004-05500-045267FM-12+017499999V0203201N00151045001CN0100001N9+02501+02341101351ADDAA124000391AG10999GF106991041021004501031001KA1240N+02071MA1999999099361MD1999999+0011REMSYN023333   20207 58001 69934
0127825710999991990010912004-05500-045267FM-12+017499999V0201401N00461045001CN0040001N9+02201+02121101581ADDAA124024091AG10999GF108991041071004501021999KA1240N+02111MA1999999099571MD1999999+0211MW1911REMSYN023333   20211 58021 60244
0110825710999991990010918004-05500-045267FM-12+017499999V0200901N00051007501CN0100001N9+02411+02261101301ADDAA106003091AG10999AY161061GF107991061021008001031001MA1999999099301MD1999999+0321REMSYN017333   58032 60031
0121825710999991990011012004-05500-045267FM-12+017499999V0202701N00051004201CN0100001N9+02221+02191101351ADDAA124003091AG10999GF108991081051004501999999KA1240N+01981MA1999999099351MD1999999-0221REMSYN023333   20198 59022 60034
0096825710999991990011018004-05500-045267FM-12+017499999V0200501N00461220001CN0100001N9+02941+02191101061ADDAA106000091AG10999GF104991031021008001031001MA1999999099081MD1999999-0221REMSYN011333   59022
0115825710999991990011112004-05500-045267FM-12+017499999V0200501N00151004201CN0100001N9+02421+02321101371ADDAA106000091AG10999GF108991081051004501999999KA1240N+02091MA1999999099381MD1999999+0031REMSYN017333   20209 58003
0115825710999991990011212004-05500-045267FM-12+017499999V0209991C00001045001CN0100001N9+02461+02411101321ADDAA106000091AG10999GF106991031021008001031001KA1240N+02061MA1999999099331MD1999999-0051REMSYN017333   20206 59005
0096825710999991990011218004-05500-045267FM-12+017499999V0200501N00151045001CN0100001N9+02711+02401101131ADDAA106000091AG10999GF108991031021008001071999MA1999999099151MD1999999+0001REMSYN011333   58000
0096825710999991990011318004-05500-045267FM-12+017499999V0200901N00261220001CN0100001N9+03101+02151101131ADDAA106000091AG10999GF103991021011008001011001MA1999999099151MD1999999+0001REMSYN011333   58000
0115825710999991990011412004-05500-045267FM-12+017499999V0209991C00001015001CN0100001N9+02481+02321101381ADDAA106000091AG10999GF106991061001017501051001KA1240N+02141MA1999999099381MD1999999+0021REMSYN017333   20214 58002
0115825710999991990011512004-05500-045267FM-12+017499999V0200901N00361004201CN0100001N9+02491+02301101291ADDAA106000091AG10999GF108991081051004501999999KA1240N+02141MA1999999099311MD1999999-0071REMSYN017333   20214 59007
0096825710999991990011518004-05500-045267FM-12+017499999V0201401N00211220001CN0100001N9+03111+02181100901ADDAA106000091AG10999GF103991021021008001031001MA1999999098941MD1999999-0071REMSYN011333   59007
0115825710999991990011612004-05500-045267FM-12+017499999V0200501N00261004201CN0100001N9+02521+02231101261ADDAA106000091AG10999GF108991081051004501999999KA1240N+02231MA1999999099281MD1999999-0031REMSYN017333   20223 59003
0096825710999991990011618004-05500-045267FM-12+017499999V0203601N00261045001CN0100001N9+02801+02311100961ADDAA106000091AG10999GF105991021021008001031001MA1999999098991MD1999999+0051REMSYN011333   58005
0121825710999991990011712004-05500-045267FM-12+017499999V0200901N00151220001CN0100001N9+02551+02401101171ADDAA124028091AG10999GF103991031001017501031001KA1240N+02051MA1999999099181MD1999999-0101REMSYN023333   20205 59010 60284
0115825710999991990011812004-05500-045267FM-12+017499999V0200501N00151004201CN0100001N9+02551+02271101281ADDAA106000091AG10999GF108991081021004501999999KA1240N+02131MA1999999099301MD1999999+0121REMSYN017333   20213 58012
0115825710999991990011912004-05500-045267FM-12+017499999V0200501N00311004201CN0100001N9+02561+02351101261ADDAA106000091AG10999GF107991071021004501001001KA1240N+02141MA1999999099281MD1999999-0021REMSYN017333   20214 59002
0096825710999991990011918004-05500-045267FM-12+017499999V0200501N00151045001CN0100001N9+03001+02321100951ADDAA106000091AG10999GF107991031031008001021021MA1999999098981MD1999999+0011REMSYN011333   58001
0135825710999991990012012004-05500-045267FM-12+017499999V0200501N00101004201CN0100001N9+02511+02361101251ADDAA124002091AG10999AY161061GF105991051031004501001001KA1240N+02101MA1999999099271MD1999999-0011MW1031REMSYN023333   20210 59001 60024
0115825710999991990012112004-05500-045267FM-12+017499999V0200501N00151220001CN0100001N9+02581+02331101171ADDAA106000091AG10999GF102991001001999999001011KA1240N+01971MA1999999099201MD1999999-0021REMSYN017333   20197 59002
0096825710999991990012118004-05500-045267FM-12+017499999V0200901N00411220001CN0100001N9+03231+02231100801ADDAA106000091AG10999GF103991031021008001001001MA1999999098871MD1999999-0061REMSYN011333   59006
0096825710999991990012218004-05500-045267FM-12+017499999V0209999999999220001CN0100001N9+03041+02551100991ADDAA106000091AG10999GF106991041031008001001011MA1999999099041MD1999999+0181REMSYN011333   58018
0096825710999991990012318004-05500-045267FM-12+017499999V0209999999999220001CN0100001N9+99999+99999100931ADDAA106000091AG10999GF104991041031008001001001MA1999999098991MD1999999-0051REMSYN011333   59005
0115825710999991990012412004-05500-045267FM-12+017499999V0209999999999045001CN0100001N9+02561+02361101181ADDAA106000091AG10999GF106991031051008001031011KA1240N+02261MA1999999099211MD1999999-0061REMSYN017333   20226 59006
0096825710999991990012418004-05500-045267FM-12+017499999V0209999999999045001CN0100001N9+03051+02451100871ADDAA106000091AG10999GF106991041031008001031001MA1999999098931MD1999999-0061REMSYN011333   59006
0115825710999991990012512004-05500-045267FM-12+017499999V0209991C00001045001CN0100001N9+02621+02211101171ADDAA106000091AG10999GF108991041051004501031011KA1240N+02121MA1999999099201MD1999999-0011REMSYN017333   20212 59001
0096825710999991990012518004-05500-045267FM-12+017499999V0209999999999045001CN0100001N9+03021+02181100931ADDAA106000091AG10999GF105991031031008001031001MA1999999098971MD1999999+0041REMSYN011333   58004
0115825710999991990012612004-05500-045267FM-12+017499999V0209999999999004201CN0100001N9+02531+02381101331ADDAA106000091AG10999GF108991081051004501999999KA1240N+02101MA1999999099351MD1999999+0151REMSYN017333   20210 58015
0116825710999991990012618004-05500-045267FM-12+017499999V0203601N00311004201CN0100001N9+02881+02501101051ADDAA106008091AG10999AY161061GF108991051051004501999999MA1999999099081MD1999999+0111MW1171REMSYN017333   58011 60081
0121825710999991990012712004-05500-045267FM-12+017499999V0201401N00151004201CN0100001N9+02381+02311101361ADDAA124009091AG10999GF108991081051004501999999KA1240N+02051MA1999999099361MD1999999+0011REMSYN023333   20205 58001 60094
0096825710999991990012718004-05500-045267FM-12+017499999V0200501N00211220001CN0100001N9+03101+02391101011ADDAA106000091AG10999GF104991031031008001001011MA1999999099051MD1999999-0031REMSYN011333   59003
0115825710999991990012812004-05500-045267FM-12+017499999V0203601N00211045001CN0100001N9+02521+02311101091ADDAA106000091AG10999GF106991031051004501021011KA1240N+02221MA1999999099111MD1999999-0251REMSYN017333   20222 59025
0096825710999991990012818004-05500-045267FM-12+017499999V0200501N00261045001CN0100001N9+02991+02471100851ADDAA106000091AG10999GF106991031031008001031011MA1999999098891MD1999999-0161REMSYN011333   59016
0121825710999991990012912004-05500-045267FM-12+017499999V0209991C00001004201CN0100001N9+02321+02221101161ADDAA124010091AG10999GF108991081051004501999999KA1240N+02221MA1999999099171MD1999999+0061REMSYN023333   20222 58006 60104
0096825710999991990012918004-05500-045267FM-12+017499999V0200501N00311004201CN0100001N9+02881+02441100841ADDAA106000091AG10999GF108991081051004501999999MA1999999098891MD1999999+0001REMSYN011333   58000
0115825710999991990013012004-05500-045267FM-12+017499999V0209991C00001004201CN0100001N9+02481+02301101101ADDAA106000091AG10999GF105991051051004501001001KA1240N+01971MA1999999099411MD1999999-0031REMSYN017333   20197 59003
0115825710999991990013112004-05500-045267FM-12+017499999V0200501N00311004201CN0100001N9+02551+02351101251ADDAA106000091AG10999GF108991081051004501999999KA1240N+02201MA1999999099271MD1999999+0131REMSYN017333   20220 58013
0096825710999991990013118004-05500-045267FM-12+017499999V0200901N00311220001CN0100001N9+03201+02311101001ADDAA106000091AG10999GF104991041031008001001001MA1999999099051MD1999999+0071REMSYN011333   58007
0096825710999991990020118004-05500-045267FM-12+017499999V0201401N00211220001CN0100001N9+03241+02421100981ADDAA106000091AG10999GF106991041021008001001011MA1999999099041MD1999999-0011REMSYN011333   59001
0096825710999991990020218004-05500-045267FM-12+017499999V0200901N00151220001CN0100001N9+03271+02411100891ADDAA106000091AG10999GF104991041031008001001001MA1999999098951MD1999999-0091REMSYN011333   59009
0115825710999991990020312004-05500-045267FM-12+017499999V0200501N00151220001CN0100001N9+02641+02391101241ADDAA106000091AG10999GF104991011011004501031001KA1240N+02121MA1999999099271MD1999999+0021REMSYN017333   20212 58002
0096825710999991990020318004-05500-045267FM-12+017499999V0200901N00461220001CN0100001N9+03301+02181100931ADDAA106000091AG10999GF104991041021008001001001MA1999999098981MD1999999+0031REMSYN011333   58003
0132825710999991990020512004-05500-045267FM-12+017499999V0200901N00151004201CN0100001N9+02581+02371101411ADDAA124000291AA299000391AG10999GF108991081051004501999999KA1240N+02221MA1999999099941MD1999999+0041REMSYN023333   20222 58004 69924
0135825710999991990020518004-05500-045267FM-12+017499999V0200501N00151012001CN0100001N9+02291+02211101121ADDAA106004091AG10999AY161061GF107991071081008001001001MA1999999099132MD1999999+0051MW1911REMSYN017333   58005 60041EQDQ01+099133APOSP 
0119825710999991990020618004-05500-045267FM-12+017499999V0201401N00051045001CN0040001N9+02621+02461101221ADDAA106000291AA299000391AG10999GF108991041071008001021999MA1999999099241MD1999999+0111MW1911REMSYN017333   58011 69921
0121825710999991990020712004-05500-045267FM-12+017499999V0200501N00151045001CN0100001N9+02501+02311101391ADDAA124002091AG10999GF106991041021004501031001KA1240N+02211MA1999999099411MD1999999-0031REMSYN023333   20221 59003 60024
0113825710999991990020718004-05500-045267FM-12+017499999V0200901N00411220001CN0100001N9+02881+02301101131ADDAA106000291AA299000391AG10999GF104991031021008001041001MA1999999099161MD1999999-0081REMSYN017333   59008 69921
0129825710999991990020912004-05500-045267FM-12+017499999V0201401N00151045001CN0100001N9+02291+02231101411ADDAA124021091AG10999AY161061GF108991041071004501021999KA1240N+02021MA1999999099411MD1999999-0081REMSYN023333   20202 59008 60214
0096825710999991990020918004-05500-045267FM-12+017499999V0203601N00151007501CN0100001N9+02981+02421101021ADDAA106000091AG10999GF105991051021008001001001MA1999999099051MD1999999-0121REMSYN011333   59012
0135825710999991990021012004-05500-045267FM-12+017499999V0200901N00101004201CN0100001N9+02331+02201101371ADDAA124002091AG10999AY161061GF108991081051004501999999KA1240N+02161MA1999999099381MD1999999+0031MW1021REMSYN023333   20216 58003 60024
0096825710999991990021018004-05500-045267FM-12+017499999V0201801N00261004201CN0100001N9+02681+02391101061ADDAA106000091AG10999GF108991081051004501999999MA1999999099081MD1999999+0031REMSYN011333   58003
0115825710999991990021100004-05500-045267FM-12+017499999V0201801N00101045001CN0100001N9+02451+02371101181ADDAA106000091AG10999GF108991041051004501021999KA1240M+02731MA1999999099191MD1999999+0081REMSYN017333   10273 58008
0115825710999991990021112004-05500-045267FM-12+017499999V0202301N00051004201CN0100001N9+02401+02351101291ADDAA106000091AG10999GF108991081051004501999999KA1240N+02161MA1999999099301MD1999999-0081REMSYN017333   20216 59008
0096825710999991990021118004-05500-045267FM-12+017499999V0200501N00211220001CN0100001N9+03121+02481100941ADDAA106000091AG10999GF104991031021008001041001MA1999999098991MD1999999-0091REMSYN011333   59009
0137825710999991990021200004-05500-045267FM-12+017499999V0203601N00151045001CN0100001N9+02521+02291101201ADDAA106000091AG10999AY191061AY211061GF107991041061008001041021KA1240M+03151MA1999999099221MD1999999+0031MW1131REMSYN017333   10315 58003
0115825710999991990021212004-05500-045267FM-12+017499999V0200501N00311004201CN0100001N9+02601+02271101361ADDAA106000091AG10999GF107991071041004501001001KA1240N+02221MA1999999099381MD1999999+0051REMSYN017333   20222 58005
0096825710999991990021218004-05500-045267FM-12+017499999V0200901N00101220001CN0100001N9+02841+02501101031ADDAA106000091AG10999GF104991031031008001041001MA1999999099061MD1999999+0071REMSYN011333   58007
0115825710999991990021312004-05500-045267FM-12+017499999V0200501N00311004201CN0100001N9+02661+02371101341ADDAA106000091AG10999GF106991061041004501001001KA1240N+02221MA1999999099371MD1999999-0011REMSYN017333   20222 59001
0096825710999991990021318004-05500-045267FM-12+017499999V0200501N00261220001CN0100001N9+03001+02521100921ADDAA106000091AG10999GF104991041021008001001001MA1999999098961MD1999999-0101REMSYN011333   59010
0115825710999991990021412004-05500-045267FM-12+017499999V0203601N00151004201CN0100001N9+02561+02381101391ADDAA106000091AG10999GF108991061051004501031001KA1240N+02181MA1999999099411MD1999999+0041REMSYN017333   20218 58004
0096825710999991990021418004-05500-045267FM-12+017499999V0203201N00311004201CN0100001N9+02781+02361101081ADDAA106000091AG10999GF108991081051004501999999MA1999999099111MD1999999+0151REMSYN011333   58015
0129825710999991990021612004-05500-045267FM-12+017499999V0200501N00101045001CN0100001N9+02611+02441101451ADDAA124000391AG10999AY161061GF107991041021004501051001KA1240N+02281MA1999999099471MD1999999-0061REMSYN023333   20228 59006 69934
0096825710999991990021618004-05500-045267FM-12+017499999V0200501N00101045001CN0100001N9+02931+02391101121ADDAA106000091AG10999GF106991031051008001041001MA1999999099151MD1999999-0051REMSYN011333   59005
0143825710999991990021912004-05500-045267FM-12+017499999V0200501N00151045001CN0100001N9+02581+02331101531ADDAA124003091AG10999AY191061AY261061GF106991021021004501041021KA1240N+02181MA1999999099551MD1999999+0031MW1011REMSYN023333   20218 58003 60034
0096825710999991990021918004-05500-045267FM-12+017499999V0200501N00151045001CN0100001N9+02821+02481101221ADDAA106000091AG10999GF107991041061008001041021MA1999999099251MD1999999+0111REMSYN011333   58011
0115825710999991990022000004-05500-045267FM-12+017499999V0200501N00151000601CN0090001N9+02341+02221101511ADDAA106000091AG10999GF108991081051000751999999KA1240M+02981MA1999999099251MD1999999+0151REMSYN017333   10298 58015
0143825710999991990022012004-05500-045267FM-12+017499999V0209991C00001004201CN0100001N9+02441+02321101611ADDAA124000191AG19005AY191061AY261061GF108991081051004501999999KA1240N+02281MA1999999099611MD1999999+0061MW1021REMSYN023333   20228 58006 69914
0096825710999991990022018004-05500-045267FM-12+017499999V0200501N00151220001CN0100001N9+03031+02461101081ADDAA106000091AG10999GF104991041021008001001001MA1999999099111MD1999999-0141REMSYN011333   59014
0115825710999991990022112004-05500-045267FM-12+017499999V0209991C00001004201CN0100001N9+02371+02281101581ADDAA106000091AG10999GF108991081051004501999999KA1240N+02171MA1999999099591MD1999999-0021REMSYN017333   20217 59002
0096825710999991990022118004-05500-045267FM-12+017499999V0201801N00101045001CN0100001N9+02521+02291101221ADDAA106000091AG10999GF106991031021008001041001MA1999999099241MD1999999+0131REMSYN011333   58013
0135825710999991990022212004-05500-045267FM-12+017499999V0200901N00051004201CN0100001N9+02361+02241101641ADDAA124002091AG10999AY161061GF108991081051004501999999KA1240N+02031MA1999999099681MD1999999+0091MW1021REMSYN023333   20203 58009 60024
0096825710999991990022218004-05500-045267FM-12+017499999V0202301N00151220001CN0100001N9+03091+02521101141ADDAA106000091AG10999GF104991041021008001001001MA1999999099181MD1999999-0061REMSYN011333   59006
0115825710999991990022312004-05500-045267FM-12+017499999V0209991C00001004201CN0100001N9+02471+02361101391ADDAA106000091AG10999GF108991081051004501999999KA1240N+02291MA1999999099401MD1999999-0081REMSYN017333   20229 59008
0096825710999991990022318004-05500-045267FM-12+017499999V0202301N00151220001CN0100001N9+03121+02411100881ADDAA106000091AG10999GF104991031031008001001011MA1999999098941MD1999999-0241REMSYN011333   59024
0127825710999991990022418004-05500-045267FM-12+017499999V0203201N00151004201CN0100001N9+02451+02251101031ADDAA106000491AA299000591AG10999AY161061GF108991081051004501999999MA1999999099041MD1999999+0101MW1021REMSYN017333   58010 69941
0132825710999991990022512004-05500-045267FM-12+017499999V0200501N00211004201CN0100001N9+02401+02281101351ADDAA124000491AA299000591AG10999GF108991081051004501999999KA1240N+02141MA1999999099311MD1999999+0311REMSYN023333   20214 58031 69944
0096825710999991990022718004-05500-045267FM-12+017499999V0209991C00001045001CN0100001N9+02841+02561101021ADDAA106000091AG10999GF106991031031008001031011MA1999999099051MD1999999+0031REMSYN011333   58003
0135825710999991990022812004-05500-045267FM-12+017499999V0202301N00151004201CN0100001N9+02221+02171101461ADDAA124008091AG10999AY161061GF108991081051004501999999KA1240N+01971MA1999999099461MD1999999+0071MW1021REMSYN023333   20197 58007 60084
0096825710999991990022818004-05500-045267FM-12+017499999V0202301N00211045001CN0100001N9+02731+02391101161ADDAA106000091AG10999GF107991041031008001021011MA1999999099181MD1999999+0131REMSYN011333   58013
0115825710999991990030112004-05500-045267FM-12+017499999V0202301N00151004201CN0100001N9+02371+02281101441ADDAA106000091AG10999GF108991081051004501999999KA1240N+02081MA1999999099451MD1999999-0011REMSYN017333   20208 59001
0115825710999991990030212004-05500-045267FM-12+017499999V0209991C00001004201CN0100001N9+02361+02241101491ADDAA106000091AG10999GF108991081051004501999999KA1240N+02101MA1999999099501MD1999999+0051REMSYN017333   20210 58005
0096825710999991990030218004-05500-045267FM-12+017499999V0200901N00411045001CN0100001N9+02971+02401101211ADDAA106000091AG10999GF106991031031008001021011MA1999999099251MD1999999+0131REMSYN011333   58013
0135825710999991990030312004-05500-045267FM-12+017499999V0200501N00261004201CN0100001N9+02491+02321101591ADDAA124001091AG10999AY161061GF108991081051004501999999KA1240N+02161MA1999999099591MD1999999+0091MW1021REMSYN023333   20216 58009 60014
0096825710999991990030318004-05500-045267FM-12+017499999V0200901N00311045001CN0100001N9+02901+02431101221ADDAA106000091AG10999GF106991031031008001031011MA1999999099251MD1999999+0001REMSYN011333   58000
0116825710999991990030418004-05500-045267FM-12+017499999V0203601N00151004201CN0100001N9+02641+02481101031ADDAA106007091AG10999AY191061GF108991081051004501999999MA1999999099051MD1999999-0201MW1921REMSYN017333   59020 60071
0115825710999991990030500004-05500-045267FM-12+017499999V0200501N001019999999N0100001N9+02381+02311101231ADDAA106000091AG10999GF105991031001017501001051KA1240M+03001MA1999999099241MD1999999-0111REMSYN017333   10300 59011
0121825710999991990030512004-05500-045267FM-12+017499999V0200501N00211004201CN0100001N9+02561+02401101461ADDAA124007091AG10999GF108991081051004501999999KA1240N+02181MA1999999099471MD1999999+0001REMSYN023333   20218 58000 60074
0113825710999991990030518004-05500-045267FM-12+017499999V0201801N00101004201CN0100001N9+02631+02411101061ADDAA106000991AA299001091AG10999GF108991061061004501021999MA1999999099081MD1999999+0031REMSYN017333   58003 69991
0132825710999991990030612004-05500-045267FM-12+017499999V0200501N00151004201CN0100001N9+02401+02351101611ADDAA124000991AA299001091AG10999GF107991071051004501001001KA1240N+02131MA1999999099611MD1999999+0141REMSYN023333   20213 58014 69994
0140825710999991990030712004-05500-045267FM-12+017499999V0203601N00151220001CN0100001N9+02511+02341101401ADDAA124006091AG10999GF102991001001999999001011KA1240N+01941MA1999999099411MD1999999-0201REMSYN023333   20194 59020 60064EQDQ01+000022SCOTLC
0096825710999991990030718004-05500-045267FM-12+017499999V0200501N00211220001CN0100001N9+03141+02431101151ADDAA106000091AG10999GF104991021021008001041001MA1999999099181MD1999999+0011REMSYN011333   58001
0115825710999991990030812004-05500-045267FM-12+017499999V0203201N00101220001CN0100001N9+02501+02311101401ADDAA106000091AG10999GF101991011001017501011001KA1240N+02021MA1999999099421MD1999999+0011REMSYN017333   20202 58001
0096825710999991990030818004-05500-045267FM-12+017499999V0200901N00821045001CN0100001N9+03151+02271101111ADDAA106000091AG10999GF105991031021008001011001MA1999999099151MD1999999-0031REMSYN011333   59003
0129825710999991990030912004-05500-045267FM-12+017499999V0200501N00151015001CN0100001N9+02681+02311101591ADDAA124000391AG10999AY161061GF106991061001017501031001KA1240N+02031MA1999999099621MD1999999+0201REMSYN023333   20203 58020 69934
0096825710999991990030918004-05500-045267FM-12+017499999V0200501N00311045001CN0100001N9+03181+02221101241ADDAA106000091AG10999GF106991041021008001031001MA1999999099281MD1999999+0131REMSYN011333   58013
0115825710999991990031000004-05500-045267FM-12+017499999V0200901N00151220001CN0100001N9+02581+02351101391ADDAA106000091AG10999GF102991011021008001031001KA1240M+03241MA1999999099421MD1999999+0111REMSYN017333   10324 58011
0115825710999991990031112004-05500-045267FM-12+017499999V0200501N00051004201CN0100001N9+02541+02381101551ADDAA106000091AG10999GF107991071051004501001001KA1240N+02171MA1999999099571MD1999999-0051REMSYN017333   20217 59005
0116825710999991990031118004-05500-045267FM-12+017499999V0200501N00101045001CN0100001N9+02901+02541101221ADDAA106000591AG10999AY161061GF106991041041008001041001MA1999999099251MD1999999-0051MW1171REMSYN017333   59005 69951
0162825710999991990031200004-05500-045267FM-12+017499999V0201401N00051220001CN0100001N9+02401+02331101361ADDAA106000191AG10999AY191061AY261061GF103991001001999999001011KA1240M+02971MA1999999099381MD1999999-0021MW1021REMSYN023333   10297 59002 69911EQDQ01+000032SCOTLC
0115825710999991990031212004-05500-045267FM-12+017499999V0200501N00101004201CN0100001N9+02441+02391101491ADDAA106000091AG10999GF108991081051004501999999KA1240N+02111MA1999999099501MD1999999-0071REMSYN017333   20211 59007
0096825710999991990031218004-05500-045267FM-12+017499999V0200501N00261220001CN0100001N9+03101+02361101111ADDAA106000091AG10999GF104991041021008001001031MA1999999099151MD1999999-0101REMSYN011333   59010
0115825710999991990031312004-05500-045267FM-12+017499999V0200501N00261004201CN0100001N9+02601+02401101381ADDAA106000091AG10999GF107991071051004501001001KA1240N+02121MA1999999099401MD1999999-0101REMSYN017333   20212 59010
0096825710999991990031318004-05500-045267FM-12+017499999V0200901N00151220001CN0100001N9+03221+02481100941ADDAA106000091AG10999GF103991031021008001001001MA1999999098991MD1999999-0161REMSYN011333   59016
0115825710999991990031412004-05500-045267FM-12+017499999V0201801N00101004201CN0100001N9+02581+02371101271ADDAA106000091AG10999GF105991051021004501001001KA1240N+02121MA1999999099291MD1999999-0111REMSYN017333   20212 59011
0096825710999991990031418004-05500-045267FM-12+017499999V0200501N00261220001CN0100001N9+03171+02341100851ADDAA106000091AG10999GF104991041021008001001001MA1999999098901MD1999999-0091REMSYN011333   59009
0115825710999991990031512004-05500-045267FM-12+017499999V0200501N00151004201CN0100001N9+02581+02371101221ADDAA106000091AG10999GF107991071051004501001001KA1240N+02161MA1999999099251MD1999999-0041REMSYN017333   20216 59004
0115825710999991990031518004-05500-045267FM-12+017499999V0200901N00311045001CN0100001N9+03091+02471100312ADDAA106000091AG10999GF106991041021008001031001MA1999999098561MD1999999+0061REMSYN011333   58006EQDQ01+100313APOSLP
0096825710999991990031600004-05500-045267FM-12+017499999V0200501N00311220001CN0100001N9+03111+02361100891ADDAA106000091AG10999GF104991041021008001001001MA1999999098921MD1999999-0021REMSYN011333   59002
0115825710999991990031612004-05500-045267FM-12+017499999V0203601N00151045001CN0100001N9+02541+02401101271ADDAA106000091AG10999GF106991041021004501031001KA1240N+02041MA1999999099291MD1999999+0041REMSYN017333   20204 58004
0096825710999991990031618004-05500-045267FM-12+017499999V0200501N00311220001CN0100001N9+03111+02361100891ADDAA106000091AG10999GF104991041021008001001001MA1999999098921MD1999999-0021REMSYN011333   59002
0115825710999991990031700004-05500-045267FM-12+017499999V0200501N00101220001CN0100001N9+02541+02361101031ADDAA106000091AG10999GF100991001001999999001001KA1240M+03201MA1999999099061MD1999999+0001REMSYN017333   10320 58000
0115825710999991990031712004-05500-045267FM-12+017499999V0202001N01541045001CN0100001N9+02561+02351101331ADDAA106000091AG10999GF105991021011004501011001KA1240N+02041MA1999999099351MD1999999+0061REMSYN017333   20204 58006
0096825710999991990031718004-05500-045267FM-12+017499999V0200501N00151045001CN0100001N9+03161+02391100951ADDAA106000091AG10999GF107991041021012501011001MA1999999099001MD1999999+0061REMSYN011333   58006
0115825710999991990031800004-05500-045267FM-12+017499999V0209991C00001220001CN0100001N9+02601+02461101171ADDAA106000091AG10999GF100991001001999999001001KA1240M+03241MA1999999099201MD1999999+0141REMSYN017333   10324 58014
0115825710999991990031812004-05500-045267FM-12+017499999V0200501N00151004201CN0100001N9+02701+02461101361ADDAA106000091AG10999GF106991061031004501001001KA1240N+02211MA1999999099391MD1999999+0041REMSYN017333   20221 58004
0096825710999991990031818004-05500-045267FM-12+017499999V0200501N00211007501CN0100001N9+03221+02451100981ADDAA106000091AG10999GF107991051031008001041001MA1999999099031MD1999999+0031REMSYN011333   58003
0121825710999991990031900004-05500-045267FM-12+017499999V0200501N00101220001CN0100001N9+02581+02401101161ADDAA106000091AG10999GF101991011011008001001001KA1240M+03271MA1999999099191MD1999999-0011MW1131REMSYN017333   10327 59001
0115825710999991990031912004-05500-045267FM-12+017499999V0200501N00151004201CN0100001N9+02681+02451101421ADDAA106000091AG10999GF108991081051004501999999KA1240N+02231MA1999999099451MD1999999+0061REMSYN017333   20223 58006
0124825710999991990031918004-05500-045267FM-12+017499999V0200501N00261220001CN0100001N9+03171+02471100971ADDAA106003091AG10999AY161061AY221061GF104991041031008001001001MA1999999099021MD1999999-0011MW1011REMSYN017333   59001 60031
0143825710999991990032000004-05500-045267FM-12+017499999V0209991C00001220001CN0100001N9+02481+02411101231ADDAA106000591AG10999AY191061AY261061GF104991041061008001001001KA1240M+03231MA1999999099261MD1999999+0071MW1131REMSYN023333   10323 58007 69951
0143825710999991990032012004-05500-045267FM-12+017499999V0202701N00151004201CN0100001N9+02361+02291101501ADDAA124004091AG10999AY191061AY261061GF108991081071004501999999KA1240N+02231MA1999999099511MD1999999+0061MW1021REMSYN023333   20223 58006 60044
0096825710999991990032018004-05500-045267FM-12+017499999V0201801N00101045001CN0100001N9+02791+02401101061ADDAA106000091AG10999GF105991031031008001021001MA1999999099091MD1999999-0071REMSYN011333   59007
0121825710999991990032100004-05500-045267FM-12+017499999V0209991C00001220001CN0100001N9+02381+02281101191ADDAA106000091AG10999GF102991021001017501041001KA1240M+02911MA1999999099201MD1999999-0061MW1131REMSYN017333   10291 59006
0062825710999991990032112004-05500-045267FM-12+017499999V0202301N00101004201CN0100001N9+02681+02371101451ADDAA106000091AG10999GF107991071051004501001001MA1999999099461
0116825710999991990032118004-05500-045267FM-12+017499999V0200501N00151045001CN0100001N9+02981+02491100721ADDAA106000591AG10999AY161061GF107991041061008001021001MA1999999098961MD1999999-0131MW1011REMSYN017333   59013 69951
0135825710999991990032200004-05500-045267FM-12+017499999V0200501N00151220001CN0100001N9+02301+02231101321ADDAA106002091AG10999AY161061GF102991999999004501999999KA1240M+03111MA1999999099331MD1999999+0101MW1131REMSYN023333   10311 58010 60021
0121825710999991990032212004-05500-045267FM-12+017499999V0202301N00101220001CN0100001N9+02431+02331101361ADDAA124002091AG10999GF104991041031004501001001KA1240N+02031MA1999999099361MD1999999-0101REMSYN023333   20203 59010 60024
0096825710999991990032218004-05500-045267FM-12+017499999V0203601N00261220001CN0100001N9+03041+02311100931ADDAA106000091AG10999GF104991021021008001041001MA1999999098961MD1999999+0001REMSYN011333   58000
0115825710999991990032300004-05500-045267FM-12+017499999V0200501N00311220001CN0100001N9+02621+02371101231ADDAA106000091AG10999GF104991041031004501001001KA1240M+03131MA1999999099251MD1999999-0081REMSYN017333   10313 59008
0115825710999991990032312004-05500-045267FM-12+017499999V0203601N00151045001CN0100001N9+02641+02391101281ADDAA106000091AG10999GF106991041041004501021001KA1240N+02141MA1999999099311MD1999999-0051REMSYN017333   20214 59005
0096825710999991990032318004-05500-045267FM-12+017499999V0203601N00151105001CN0100001N9+03131+02431100871ADDAA106000091AG10999GF105991031021008001001031MA1999999098911MD1999999-0051REMSYN011333   59005
0121825710999991990032400004-05500-045267FM-12+017499999V0202701N00151220001CN0100001N9+02481+02401101131ADDAA106000091AG10999GF103991031021008001001001KA1240M+03151MA1999999099161MD1999999-0091MW1131REMSYN017333   10315 59009
0115825710999991990032412004-05500-045267FM-12+017499999V0200501N00311004201CN0100001N9+02691+02451101241ADDAA106000091AG10999GF107991071051004501001001KA1240N+02321MA1999999099271MD1999999-0041REMSYN017333   20232 59004
0110825710999991990032418004-05500-045267FM-12+017499999V0200501N00311007501CN0100001N9+03161+02471100761ADDAA106007091AG10999AY161061GF106991051051008001031001MA1999999098821MD1999999-0091REMSYN017333   59009 60071
0129825710999991990032512004-05500-045267FM-12+017499999V0203601N00101004201CN0100001N9+02241+02191101541ADDAA124043091AG10999AY161061GF108991081051004501999999KA1240N+02081MA1999999099541MD1999999+0271REMSYN023333   20208 58027 60434
0110825710999991990032518004-05500-045267FM-12+017499999V0201801N00051045001CN0100001N9+02541+02441101231ADDAA106002091AG10999AY161061GF108991041071008001021999MA1999999099251MD1999999+0431REMSYN017333   58043 60021
0115825710999991990032600004-05500-045267FM-12+017499999V0200501N00101220001CN0290001N9+02501+02331101301ADDAA106000091AG10999GF103991031001999999031001KA1240M+02641MA1999999099301MD1999999+0031REMSYN017333   10264 58003
0121825710999991990032612004-05500-045267FM-12+017499999V0203201N00101004201CN0100001N9+02411+02351101421ADDAA124002091AG10999GF107991071051004501001001KA1240N+02191MA1999999099431MD1999999-0111REMSYN023333   20219 59011 60024
0096825710999991990032618004-05500-045267FM-12+017499999V0203201N00101220001CN0100001N9+03041+02381100931ADDAA106000091AG10999GF104991041021008001001001MA1999999098971MD1999999-0281REMSYN011333   59028
0121825710999991990032712004-05500-045267FM-12+017499999V0209991C00001004201CN0100001N9+02601+02381101281ADDAA124001091AG10999GF108991081051004501999999KA1240N+02191MA1999999099351MD1999999-0131REMSYN023333   20219 59013 60014
0115825710999991990032812004-05500-045267FM-12+017499999V0203601N00101004201CN0100001N9+02551+02361101301ADDAA106000091AG10999GF107991071051004501001001KA1240N+02231MA1999999099321MD1999999+0021REMSYN017333   20223 58002
0127825710999991990032818004-05500-045267FM-12+017499999V0202701N00151220001CN0100001N9+03121+02321100801ADDAA106000791AA299001091AG10999AY161061GF104991041031008001001001MA1999999098861MD1999999-0131MW1171REMSYN017333   59013 69971
0143825710999991990032912004-05500-045267FM-12+017499999V0209991C00001004201CN0100001N9+02421+02371101461ADDAA124017091AG10999AY191061AY261061GF108991081051004501999999KA1240N+02101MA1999999099471MD1999999+0151MW1021REMSYN023333   20210 58015 60174
0062825710999991990033012004-05500-045267FM-12+017499999V0209991C00001004201CN0100001N9+02481+02321101301ADDAA106000091AG10999GF108991081051004501999999MA1999999099321
0096825710999991990033018004-05500-045267FM-12+017499999V0200501N00261220001CN0100001N9+03081+02671100971ADDAA106000091AG10999GF103991031031008001001001MA1999999098971MD1999999-0141REMSYN011333   59014
0121825710999991990033100004-05500-045267FM-12+017499999V0209991C00001220001CN0100001N9+02571+02461101181ADDAA106000091AG10999GF100991001001999999001001KA1240M+03131MA1999999099201MD1999999-0061MW1131REMSYN017333   10313 59006
0115825710999991990033112004-05500-045267FM-12+017499999V0200501N00151004201CN0100001N9+02601+02351101491ADDAA106000091AG10999GF106991051051004501021001KA1240N+02141MA1999999099411MD1999999+0091REMSYN017333   20214 58009
0074825710999991990033118004-05500-045267FM-12+017499999V0200501N00151220001CN0100001N9+02981+01471101061ADDAA106000091AG10999GF103991031031008001001001MA1999999099111REMSYN003333
0135825710999991990040112004-05500-045267FM-12+017499999V0201401N00101220001CN0100001N9+02401+02331101381ADDAA124036091AG10999AY161061GF106991021051004501001011KA1240N+02221MA1999999099391MD1999999-0021MW1021REMSYN023333   20222 59002 60364
0127825710999991990040118004-05500-045267FM-12+017499999V0200501N00151220001CN0100001N9+03101+02581100941ADDAA106000691AA299000591AG10999AY161061GF104991041031008001001001MA1999999099001MD1999999-0111MW1021REMSYN017333   59011 69961
0135825710999991990040212004-05500-045267FM-12+017499999V0200501N002119999999N0100001N9+02611+02441101421ADDAA124002091AG10999AY161061GF108991051999004501999999KA1240N+02241MA1999999099441MD1999999+0061MW1021REMSYN023333   20224 58006 60024
0102825710999991990040218004-05500-045267FM-12+017499999V0203601N00261045001CN0100001N9+02861+02501101051ADDAA106000091AG10999GF106991041031008001021001MA1999999099091MD1999999+0091MW1171REMSYN011333   58009
0121825710999991990040300004-05500-045267FM-12+017499999V0201401N00101004201CN0100001N9+02481+02461101161ADDAA106000091AG10999GF108991081051004501999999KA1240M+03101MA1999999099181MD1999999-0071MW1131REMSYN017333   10310 59007
0143825710999991990040312004-05500-045267FM-12+017499999V0200501N00101004201CN0100001N9+02351+02321101381ADDAA124030091AG10999AY191061AY261061GF108991081051004501999999KA1240N+02171MA1999999099391MD1999999-0051MW1971REMSYN023333   20217 59005 60304
0121825710999991990040400004-05500-045267FM-12+017499999V0209991C00001004201CN0100001N9+02271+02241101201ADDAA106000091AG10999GF108991081051004501999999KA1240M+03091MA1999999099201MD1999999+0021MW1131REMSYN017333   10309 58002
0143825710999991990040412004-05500-045267FM-12+017499999V0201401N00151004201CN0100001N9+02361+02331101381ADDAA124010091AG10999AY191061AY261061GF108991081051004501999999KA1240N+02091MA1999999099381MD1999999-0011MW1021REMSYN023333   20209 59001 60104
0096825710999991990040418004-05500-045267FM-12+017499999V0200501N00101220001CN0100001N9+03021+02571100911ADDAA106000091AG10999GF104991031031008001001011MA1999999098971MD1999999-0031REMSYN011333   59003
0135825710999991990040512004-05500-045267FM-12+017499999V0200501N001519999999N0100001N9+02521+02311101691ADDAA124008091AG10999AY191061GF107991999999004501999999KA1240N+02161MA1999999099691MD1999999+0311MW1021REMSYN023333   20216 58031 60084
0124825710999991990040518004-05500-045267FM-12+017499999V0200501N00151045001CN0100001N9+02871+02371101251ADDAA106005091AG10999AY161061AY211061GF107991041031008001021001MA1999999099271MD1999999+0301MW1021REMSYN017333   58030 60051
0115825710999991990040600004-05500-045267FM-12+017499999V0200501N00101220001CN0100001N9+02421+02331101371ADDAA106000091AG10999GF103991031001017501041001KA1240M+02921MA1999999099391MD1999999-0011REMSYN017333   10292 59001
0121825710999991990040612004-05500-045267FM-12+017499999V0202301N00101220001CN0100001N9+02591+02401101511ADDAA124005091AG10999GF102991011001017501041011KA1240N+02041MA1999999099521MD1999999-0171REMSYN023333   20204 59017 60054
0096825710999991990040618004-05500-045267FM-12+017499999V0203601N00211220001CN0100001N9+03191+02471101031ADDAA106000091AG10999GF104991041021008001001001MA1999999099071MD1999999-0201REMSYN011333   59020
0143825710999991990040712004-05500-045267FM-12+017499999V0203601N00261004201CN0100001N9+02671+02431101421ADDAA124006091AG10999AY191061AY261061GF106991061031004501001001KA1240N+02331MA1999999099451MD1999999-0071MW1021REMSYN023333   20233 59007 60064
0096825710999991990040718004-05500-045267FM-12+017499999V0203601N00261220001CN0100001N9+03051+02431100951ADDAA106000091AG10999GF102991011011008001001011MA1999999098991MD1999999-0081REMSYN011333   59008
0117825710999991990040800004-05500-045267FM-12+017499999V0203601N00151015001CN0100001N9+02571+02471101281ADDAA106000091AG10999AY191061AY211061GF105991051001017501021011KA1240M+03091MA1999999099311MW1171REMSYN011333   10309
0143825710999991990040812004-05500-045267FM-12+017499999V0209991C00001004201CN0100001N9+02421+02321101481ADDAA124003091AG10999AY191061AY261061GF108991081051004501999999KA1240N+02121MA1999999099491MD1999999+0041MW1021REMSYN023333   20212 58004 60034
0124825710999991990040818004-05500-045267FM-12+017499999V0200501N00261045001CN0100001N9+02621+02441101071ADDAA124006091AG10999AY191061AY261061GF106991041061004501041001MA1999999099091MD1999999+0101MW1951REMSYN017333   58010 60064
0143825710999991990040912004-05500-045267FM-12+017499999V0202301N00101045001CN0100001N9+02481+02381101681ADDAA124009091AG10999AY191061AY261061GF106991031031004501041011KA1240N+02081MA1999999099691MD1999999+0201MW1011REMSYN023333   20208 58020 60094
0124825710999991990040918004-05500-045267FM-12+017499999V0200501N00151007501CN0100001N9+03041+02521101231ADDAA106000591AG10999AY111061AY201061GF107991071071008001001001MA1999999099261MD1999999-0231MW1611REMSYN017333   59023 69951
0143825710999991990041000004-05500-045267FM-12+017499999V0203201N00051045001CN0100001N9+02381+02311101421ADDAA106014091AG10999AY191061AY261061GF107991031061008001021011KA1240M+03111MA1999999099431MD1999999-0081MW1131REMSYN023333   10311 59008 60141
0140825710999991990041012004-05500-045267FM-12+017499999V0203201N00151220001CN0100001N9+02531+02421101451ADDAA124015091AG10999GF104991999031004501001001KA1240N+02061MA1999999099461MD1999999-0231REMSYN023333   20206 59023 60154EQDQ01+000032SCOTLC
0135825710999991990041100004-05500-045267FM-12+017499999V0200901N00051015001CN0100001N9+02561+02461101211ADDAA106000591AG19027AY161061GF106991061001017501021001KA1240M+03191MA1999999099231MD1999999+0201MW1131REMSYN023333   10319 58020 69951
0096825710999991990041118004-05500-045267FM-12+017499999V0203601N00261220001CN0100001N9+03251+02551100931ADDAA106000091AG10999GF104991041031008001001001MA1999999098981MD1999999-0131REMSYN011333   59013
0115825710999991990041200004-05500-045267FM-12+017499999V0200501N00151220001CN0100001N9+02621+02461101071ADDAA106000091AG10999GF102991001001999999001011KA1240M+03221MA1999999099101MD1999999-0131REMSYN017333   10322 59013
0115825710999991990041212004-05500-045267FM-12+017499999V0200501N00211004201CN0100001N9+02701+02461101281ADDAA106000091AG10999GF107991071051004501001001KA1240N+02201MA1999999099311MD1999999-0091REMSYN017333   20220 59009
0096825710999991990041218004-05500-045267FM-12+017499999V0200501N00261220001CN0100001N9+03211+02461100881ADDAA106000091AG10999GF103991021021008001041001MA1999999098931MD1999999-0051REMSYN011333   59005
0115825710999991990041300004-05500-045267FM-12+017499999V0200501N00101220001CN0100001N9+02621+02461101071ADDAA106000091AG10999GF100991001001999999001001KA1240M+03211MA1999999099111MD1999999-0011REMSYN017333   10321 59001
0115825710999991990041312004-05500-045267FM-12+017499999V0200901N00101004201CN0100001N9+02551+02421101341ADDAA106000091AG10999GF108991081051004501999999KA1240N+02151MA1999999099371MD1999999+0061REMSYN017333   20215 58006
0096825710999991990041318004-05500-045267FM-12+017499999V0200901N00151007501CN0100001N9+03101+02541100931ADDAA106000091AG10999GF107991071061008001001001MA1999999098981MD1999999+0051REMSYN011333   58005
0143825710999991990041400004-05500-045267FM-12+017499999V0209991C00001220001CN0100001N9+02541+02471101201ADDAA106009091AG10999AY191061AY261061GF102991021001017501041001KA1240M+03171MA1999999099221MD1999999+0111MW1131REMSYN023333   10317 58011 60091
0121825710999991990041412004-05500-045267FM-12+017499999V0203601N00261220001CN0100001N9+02661+02501101251ADDAA124009091AG10999GF103991031021004501001001KA1240N+02121MA1999999099281MD1999999-0091REMSYN023333   20212 59009 60094
0096825710999991990041418004-05500-045267FM-12+017499999V0200501N00151045001CN0100001N9+03121+02481101021ADDAA106000091AG10999GF107991041041008001041011MA1999999099061MD1999999+0081REMSYN011333   58008
0115825710999991990041500004-05500-045267FM-12+017499999V0209991C00001004201CN0100001N9+02581+02441101181ADDAA106000091AG10999GF108991081051004501999999KA1240M+02581MA1999999099211MD1999999-0011REMSYN017333   10258 59001
0115825710999991990041512004-05500-045267FM-12+017499999V0200501N00211004201CN0100001N9+02601+02421101311ADDAA106000091AG10999GF108991081051004501999999KA1240N+02141MA1999999099341MD1999999+0061REMSYN017333   20214 58006
0096825710999991990041518004-05500-045267FM-12+017499999V0200501N00151220001CN0100001N9+03221+02451100881ADDAA106000091AG10999GF104991021021008001001021MA1999999098941MD1999999-0121REMSYN011333   59012
0115825710999991990041600004-05500-045267FM-12+017499999V0200901N00101220001CN0100001N9+02601+02481101051ADDAA106000091AG10999GF100991001001999999001001KA1240M+03291MA1999999099081MD1999999+0131REMSYN017333   10329 58013
0115825710999991990041612004-05500-045267FM-12+017499999V0200501N00051220001CN0100001N9+02541+02401101201ADDAA106000091AG10999GF103991021021004501011001KA1240N+02121MA1999999099221MD1999999-0121REMSYN017333   20212 59012
0096825710999991990041618004-05500-045267FM-12+017499999V0200501N00261007501CN0100001N9+03041+02381100821ADDAA106000091AG10999GF106991051021008001011001MA1999999098871MD1999999-0071REMSYN011333   59007
0115825710999991990041712004-05500-045267FM-12+017499999V0202301N00101220001CN0100001N9+02641+02391101251ADDAA106000091AG10999GF103991011021004501011001KA1240N+02181MA1999999099281MD1999999+0061REMSYN017333   20218 58006
0096825710999991990041718004-05500-045267FM-12+017499999V0200901N00261220001CN0100001N9+03001+02371100821ADDAA106000091AG10999GF104991031021008001011001MA1999999098891MD1999999+0001REMSYN011333   58000
0115825710999991990041812004-05500-045267FM-12+017499999V0200501N00051004201CN0100001N9+02591+02331101301ADDAA106000091AG10999GF107991071051004501001001KA1240N+02261MA1999999099331MD1999999+0051REMSYN017333   20226 58005
0116825710999991990041818004-05500-045267FM-12+017499999V0200901N00511007501CN0100001N9+02691+02311100941ADDAA106002091AG10999AY161061GF107991061051008001041001MA1999999098971MD1999999+0101MW1171REMSYN017333   58010 60021
0121825710999991990041912004-05500-045267FM-12+017499999V0200501N00261004201CN0100001N9+02491+02321101301ADDAA124002091AG10999GF107991071051004501001001KA1240N+02121MA1999999099321MD1999999-0011REMSYN023333   20212 59001 60024
0096825710999991990041918004-05500-045267FM-12+017499999V0200901N00361220001CN0100001N9+03081+02291100881ADDAA106000091AG10999GF103991031021008001001001MA1999999098931MD1999999-0041REMSYN011333   59004
0115825710999991990042000004-05500-045267FM-12+017499999V0200501N00101220001CN0100001N9+02581+02421101061ADDAA106000091AG10999GF100991001001999999001001KA1240M+03171MA1999999099091MD1999999-0101REMSYN017333   10317 59010
0140825710999991990042012004-05500-045267FM-12+017499999V0200901N00101004201CN0100001N9+02561+02401101291ADDAA124000291AA299000391AG10999AY161061GF108991081051004501999999KA1240N+02201MA1999999099311MD1999999-0011REMSYN023333   20220 59001 69924
0096825710999991990042018004-05500-045267FM-12+017499999V0200901N00361220001CN0100001N9+03131+02361100811ADDAA106000091AG10999GF103991031021008001001001MA1999999098861MD1999999-0071REMSYN011333   59007
0115825710999991990042100004-05500-045267FM-12+017499999V0200901N00051220001CN0100001N9+02551+02381100991ADDAA106000091AG10999GF100991001001999999001001KA1240M+03171MA1999999099021MD1999999-0071REMSYN017333   10317 59007
0115825710999991990042112004-05500-045267FM-12+017499999V0200901N00211220001CN0100001N9+02681+02411101181ADDAA106000091AG10999GF103991021021004501011001KA1240N+02061MA1999999099211MD1999999-0101REMSYN017333   20206 59010
0096825710999991990042118004-05500-045267FM-12+017499999V0200901N00211220001CN0100001N9+03141+02101100701ADDAA106000091AG10999GF103991021011008001001011MA1999999098741MD1999999-0121REMSYN011333   59012
0115825710999991990042200004-05500-045267FM-12+017499999V0209991C00001220001CN0100001N9+02461+02281100991ADDAA106000091AG10999GF102991011011008001041001KA1240M+03221MA1999999099021MD1999999+0001REMSYN017333   10322 58000
0115825710999991990042212004-05500-045267FM-12+017499999V0200501N00101220001CN0100001N9+02531+02211101251ADDAA106000091AG10999GF102991011001017501011011KA1240N+01861MA1999999099271MD1999999+0061REMSYN017333   20186 58006
0096825710999991990042218004-05500-045267FM-12+017499999V0200901N00311220001CN0100001N9+03161+02321100861ADDAA106000091AG10999GF105991021021008001001011MA1999999098891MD1999999+0151REMSYN011333   58015
0115825710999991990042312004-05500-045267FM-12+017499999V0200901N00211220001CN0100001N9+02801+02271101241ADDAA106000091AG10999GF103991011001017501031011KA1240N+02041MA1999999099271MD1999999+0001REMSYN017333   20204 58000
0115825710999991990042412004-05500-045267FM-12+017499999V0201401N00101004201CN0100001N9+02621+02441101081ADDAA106000091AG10999GF108991081051004501999999KA1240N+02271MA1999999099311MD1999999+0041REMSYN017333   20227 58004
0096825710999991990042418004-05500-045267FM-12+017499999V0203201N00511007501CN0100001N9+03051+02641100831ADDAA106000091AG10999GF105991051021008001001001MA1999999098891MD1999999+0001REMSYN011333   58000
0135825710999991990042500004-05500-045267FM-12+017499999V0209991C00001007501CN0100001N9+02571+02471101021ADDAA106000191AG10999AY161061GF106991061051008001001001KA1240M+03221MA1999999099051MD1999999-0111MW1131REMSYN023333   10322 59011 69911
0096825710999991990042518004-05500-045267FM-12+017499999V0200901N00411220001CN0100001N9+03181+02561100711ADDAA106000091AG10999GF102991021021008001001001MA1999999098771MD1999999-0121REMSYN011333   59012
0134825710999991990042612004-05500-045267FM-12+017499999V0203601N00211004201CN0100001N9+02541+02381101131ADDAA106000091AG10999GF108991999051004501011011KA1240N+02101MA1999999099151MD1999999-0071REMSYN017333   20210 59007EQDQ01+000082SCOTLC
0096825710999991990042618004-05500-045267FM-12+017499999V0200501N00311045001CN0100001N9+03061+02401100711ADDAA106000091AG10999GF106991041081008001031001MA1999999098771MD1999999+0001REMSYN011333   58000
0115825710999991990042712004-05500-045267FM-12+017499999V0209991C00001004201CN0100001N9+02421+02401101131ADDAA106000091AG10999GF108991081051004501999999KA1240N+02061MA1999999099151MD1999999+0001REMSYN017333   20206 58000
0096825710999991990042718004-05500-045267FM-12+017499999V0201401N00311220001CN0100001N9+03261+02331100711ADDAA106000091AG10999GF104991041021008001001001MA1999999098781MD1999999+0011REMSYN011333   58001
0121825710999991990042800004-05500-045267FM-12+017499999V0209991C00001220001CN0100001N9+02641+02421100911ADDAA106000091AG10999GF100991001001999999001001KA1240M+03301MA1999999098941MD1999999+0071MW1131REMSYN017333   10330 58007
0115825710999991990042812004-05500-045267FM-12+017499999V0209991C00001004201CN0100001N9+02531+02431101231ADDAA106000091AG10999GF108991081051004501999999KA1240N+02301MA1999999099261MD1999999+0111REMSYN017333   20230 58011
0116825710999991990042818004-05500-045267FM-12+017499999V0203601N00101004201CN0100001N9+02701+02451100891ADDAA106002091AG10999AY161061GF108991081051004501999999MA1999999098921MD1999999+0141MW1021REMSYN017333   58014 60021
0135825710999991990042912004-05500-045267FM-12+017499999V0209991C00001004201CN0100001N9+02451+02411101291ADDAA124001091AG10999AY161061GF108991081051004501999999KA1240N+02251MA1999999099301MD1999999+0041MW1021REMSYN023333   20225 58004 60014
0135825710999991990043012004-05500-045267FM-12+017499999V0202301N00211004201CN0100001N9+02381+02311101201ADDAA124009091AG10999AY161061GF108991081051004501999999KA1240N+02141MA1999999099211MD1999999-0091MW1021REMSYN023333   20214 59009 60094
0096825710999991990043018004-05500-045267FM-12+017499999V0203601N00101045001CN0100001N9+02981+02531100741ADDAA106000091AG10999GF107991041031008001021011MA1999999098781MD1999999-0261REMSYN011333   59026
0115825710999991990050100004-05500-045267FM-12+017499999V0209991C00001220001CN0100001N9+02561+02471100871ADDAA106000091AG10999GF100991001001999999001001KA1240M+03091MA1999999098891MD1999999-0241REMSYN017333   10309 59024
0115825710999991990050112004-05500-045267FM-12+017499999V0209991C000019999999N0100001N9+02501+02401101171ADDAA106000091AG10999GF108991999999004501999999KA1240N+02181MA1999999099191MD1999999-0021REMSYN017333   20218 59002
0096825710999991990050118004-05500-045267FM-12+017499999V0209991C00001045001CN0100001N9+03041+02381100741ADDAA106000091AG10999GF106991041021008001011001MA1999999098781MD1999999+0001REMSYN011333   58000
0121825710999991990050200004-05500-045267FM-12+017499999V0200501N00101012001CN0100001N9+02501+02381101081ADDAA106000091AG10999GF107991071081008001001001KA1240M+03121MA1999999099101MD1999999+0211MW1131REMSYN017333   10312 58021
0115825710999991990050212004-05500-045267FM-12+017499999V0202701N00101045001CN0100001N9+02501+02321101171ADDAA106000091AG10999GF106991031021004501031001KA1240N+02181MA1999999099191MD1999999+0001REMSYN017333   20218 58000
0096825710999991990050218004-05500-045267FM-12+017499999V0203201N00101220001CN0100001N9+03121+02331100711ADDAA106000091AG10999GF104991021021008001041001MA1999999098761MD1999999-0021REMSYN011333   59002
0129825710999991990050312004-05500-045267FM-12+017499999V0203201N00101220001CN0100001N9+02481+02321101201ADDAA124011091AG10999AY161061GF103991011021004501031001KA1240N+02041MA1999999099221MD1999999+0031REMSYN023333   20204 58003 60114
0096825710999991990050318004-05500-045267FM-12+017499999V0200501N00101220001CN0100001N9+03131+02511100711ADDAA106000091AG10999GF103991031021008001001001MA1999999098751MD1999999-0011REMSYN011333   59001
0115825710999991990050412004-05500-045267FM-12+017499999V0209991C00001004201CN0100001N9+02511+02361101181ADDAA106000091AG10999GF107991071021004501001001KA1240N+02141MA1999999099201MD1999999-0021REMSYN017333   20214 59002
0096825710999991990050418004-05500-045267FM-12+017499999V0203201N00101007501CN0100001N9+03121+02481100701ADDAA106000091AG10999GF105991051051008001001001MA1999999098751MD1999999+0001REMSYN011333   58000
0132825710999991990050512004-05500-045267FM-12+017499999V0203201N00101004201CN0100001N9+02571+02461101161ADDAA124000291AA299000391AG10999GF107991071021004501001001KA1240N+02101MA1999999099181MD1999999-0021REMSYN023333   20210 59002 69924
0096825710999991990050518004-05500-045267FM-12+017499999V0200501N00101045001CN0100001N9+03041+02501100831ADDAA106000091AG10999GF106991021021008001011001MA1999999098861MD1999999+0111REMSYN011333   58011
0115825710999991990050600004-05500-045267FM-12+017499999V0209991C00001220001CN0100001N9+02501+02341101031ADDAA106000091AG10999GF103991031001017501041001KA1240M+03111MA1999999099061MD1999999+0091REMSYN017333   10311 58009
0115825710999991990050612004-05500-045267FM-12+017499999V0200501N00101004201CN0100001N9+02431+02391101331ADDAA106000091AG10999GF108991051051004501999999KA1240N+02021MA1999999099341MD1999999+0161REMSYN017333   20202 58016
0096825710999991990050618004-05500-045267FM-12+017499999V0200901N00311220001CN0100001N9+03101+02421100991ADDAA106000091AG10999GF104991021011008001041001MA1999999099031MD1999999+0171REMSYN011333   58017
0115825710999991990050712004-05500-045267FM-12+017499999V0200501N00101220001CN0100001N9+02441+02341101381ADDAA106000091AG10999GF103991031021004501001001KA1240N+01981MA1999999099391MD1999999+0051REMSYN017333   20198 58005
0115825710999991990050718004-05500-045267FM-12+017499999V0200901N00211220001CN0100001N9+03101+02391101021ADDAA106000091AG10999GF104991041021008001001001MA1999999099081MD1999999+0021REMSYN011333   58002EQDQ01+999990APOSP 
0115825710999991990050800004-05500-045267FM-12+017499999V0209991C00001220001CN0100001N9+02421+02371101231ADDAA106000091AG10999GF101991011001017501011001KA1240M+03211MA1999999099251MD1999999+0031REMSYN017333   10321 58003
0115825710999991990050812004-05500-045267FM-12+017499999V0202301N00101004201CN0100001N9+02281+02251101521ADDAA106000091AG10999GF108991081051004501999999KA1240N+01921MA1999999099521MD1999999+0131REMSYN017333   20192 58013
0096825710999991990050818004-05500-045267FM-12+017499999V0200901N00311220001CN0100001N9+03101+02441101061ADDAA106000091AG10999GF102991021011008001001001MA1999999099091MD1999999+0041REMSYN011333   58004
0115825710999991990050912004-05500-045267FM-12+017499999V0200501N00311004201CN0100001N9+02541+02421101281ADDAA106000091AG10999GF106991061041004501001001KA1240N+02061MA1999999099301MD1999999-0221REMSYN017333   20206 59022
0096825710999991990050918004-05500-045267FM-12+017499999V0200501N00311220001CN0100001N9+03191+02361100931ADDAA106000091AG10999GF102991021011008001001001MA1999999098971MD1999999-0121REMSYN011333   59012
0115825710999991990051000004-05500-045267FM-12+017499999V0209991C00001220001CN0100001N9+02411+02371101101ADDAA106000091AG10999GF104991001001999999001011KA1240M+03231MA1999999099121MD1999999+0011REMSYN017333   10323 58001
0115825710999991990051012004-05500-045267FM-12+017499999V0202701N00101004201CN0100001N9+02411+02091101301ADDAA106000091AG10999GF108991081051004501999999KA1240N+01961MA1999999099311MD1999999+0011REMSYN017333   20196 58001
0096825710999991990051018004-05500-045267FM-12+017499999V0200901N00511220001CN0100001N9+03241+02311100901ADDAA106000091AG10999GF102991021011008001001001MA1999999098941MD1999999-0091REMSYN011333   59009
0115825710999991990051112004-05500-045267FM-12+017499999V0202701N00101004201CN0100001N9+02411+02201101301ADDAA106000091AG10999GF108991081051004501999999KA1240N+01961MA1999999099311MD1999999+0011REMSYN017333   20196 58001
0096825710999991990051118004-05500-045267FM-12+017499999V0200901N00311220001CN0100001N9+03201+02411100911ADDAA106000091AG10999GF102991021011008001001001MA1999999098951MD1999999+0011REMSYN011333   58001
0115825710999991990051212004-05500-045267FM-12+017499999V0202701N00101004201CN0100001N9+02501+02341101391ADDAA106000091AG10999GF107991071051004501001001KA1240N+01941MA1999999099411MD1999999+0111REMSYN017333   20194 58011
0096825710999991990051218004-05500-045267FM-12+017499999V0200901N00311220001CN0100001N9+03141+02351101001ADDAA106000091AG10999GF103991031021008001001001MA1999999099031MD1999999+0081REMSYN011333   58008
0115825710999991990051312004-05500-045267FM-12+017499999V0202601N00101220001CN0100001N9+02771+02441101351ADDAA106000091AG10999GF102991021011008001001001KA1240N+02041MA1999999099381MD1999999-0031REMSYN017333   20204 59003
0115825710999991990051412004-05500-045267FM-12+017499999V0200501N00101004201CN0100001N9+02621+02551101391ADDAA106000091AG10999GF105991051021004501001001KA1240N+02121MA1999999099411MD1999999+0031REMSYN017333   20212 58003
0096825710999991990051418004-05500-045267FM-12+017499999V0200501N00211220001CN0100001N9+03131+02411101061ADDAA106000091AG10999GF103991031021008001001001MA1999999099101MD1999999+0121REMSYN011333   58012
0115825710999991990051512004-05500-045267FM-12+017499999V0203201N00101045001CN0100001N9+02661+02391101451ADDAA106000091AG10999GF107991021011004501051001KA1240N+02241MA1999999099471MD1999999+0061REMSYN017333   20224 58006
0129825710999991990051518004-05500-045267FM-12+017499999V0200901N00411220001CN0100001N9+03141+02431101091ADDAA106007091AG10999AY161061GF104991999021008001001001MA1999999099131MD1999999+0031REMSYN017333   58003 60071EQDQ01+000032SCOTLC
0121825710999991990051612004-05500-045267FM-12+017499999V0200501N00211220001CN0100001N9+02761+02381101521ADDAA124007091AG10999GF102991011011004501031001KA1240N+02221MA1999999099551MD1999999+0081REMSYN023333   20222 58008 60074
0096825710999991990051618004-05500-045267FM-12+017499999V0201401N00311220001CN0100001N9+03161+02341101111ADDAA106000091AG10999GF103991021021008001031001MA1999999099151MD1999999+0021REMSYN011333   58002
0096825710999991990051718004-05500-045267FM-12+017499999V0200501N00101220001CN0100001N9+03181+02471101121ADDAA106000091AG10999GF102991021011008001001001MA1999999099161MD1999999+0011REMSYN011333   58001
0115825710999991990051800004-05500-045267FM-12+017499999V0209991C00001220001CN0100001N9+02561+02471101321ADDAA106000091AG10999GF100991001001999999001001KA1240M+03241MA1999999099341MD1999999+0071REMSYN017333   10324 58007
0115825710999991990051812004-05500-045267FM-12+017499999V0200501N00101004201CN0100001N9+02481+02381101591ADDAA106000091AG10999GF107991071051004501001001KA1240N+01961MA1999999099601MD1999999+0041REMSYN017333   20196 58004
0096825710999991990051818004-05500-045267FM-12+017499999V0201401N00411220001CN0100001N9+03161+02291101191ADDAA106000091AG10999GF103991021021008001011001MA1999999099221MD1999999+0061REMSYN011333   58006
0115825710999991990052000004-05500-045267FM-12+017499999V0209991C00001220001CN0100001N9+02561+02471101331ADDAA106000091AG10999GF102991011011008001041001KA1240M+03271MA1999999099341MD1999999+0001REMSYN017333   10327 58000
0115825710999991990052012004-05500-045267FM-12+017499999V0200501N00211004201CN0100001N9+02651+02461101531ADDAA106000091AG10999GF108991051051004501999999KA1240N+02301MA1999999099551MD1999999+0051REMSYN017333   20230 58005
0108825710999991990052018004-05500-045267FM-12+017499999V0201401N00311007501CN0040001N9+02581+02421101241ADDAA106000591AG10999GF108991051071008001021999MA1999999099261MD1999999+0111MW1911REMSYN017333   58011 69951
0132825710999991990052112004-05500-045267FM-12+017499999V0203601N00101045001CN0049001N9+02231+02171101731ADDAA106000091AA224003091AG10999GF108991041071000751021999KA1240N+02121MA1999999099721MD1999999+0171REMSYN023333   20212 58017 60034
0110825710999991990052118004-05500-045267FM-12+017499999V0203601N00211045001CN0100001N9+02861+02521101231ADDAA106002091AG10999AY161061GF107991041021008001051001MA1999999099251MD1999999-0011REMSYN017333   59001 60021
0134825710999991990052200004-05500-045267FM-12+017499999V0209991C00001220001CN0100001N9+02441+02391101361ADDAA106000091AG10999GF101991011001017501041001KA1240M+02991MA1999999099371MD1999999+0021REMSYN017333   10299 58002EQDQ01+999990APOSLP
0121825710999991990052212004-05500-045267FM-12+017499999V0209991C00001004201CN0100001N9+02441+02411101511ADDAA124002091AG10999GF108991081051004501999999KA1240N+02051MA1999999099521MD1999999-0201REMSYN023333   20205 59020 60024
0096825710999991990052218004-05500-045267FM-12+017499999V0200501N00211007501CN0100001N9+03041+02281101121ADDAA106000091AG10999GF105991051021008001001001MA1999999099151MD1999999-0101REMSYN011333   59010
0115825710999991990052312004-05500-045267FM-12+017499999V0200501N00211004201CN0100001N9+02501+02361101611ADDAA106000091AG10999GF108991081051004501999999KA1240N+01981MA1999999099621MD1999999+0101REMSYN017333   20198 58010
0096825710999991990052318004-05500-045267FM-12+017499999V0200901N00101220001CN0100001N9+03121+02431101281ADDAA106000091AG10999GF103991031011008001001001MA1999999099311MD1999999+0161REMSYN011333   58016
0096825710999991990052418004-05500-045267FM-12+017499999V0200901N00311220001CN0100001N9+03121+02251101341ADDAA106000091AG10999GF102991021021008001001001MA1999999099341MD1999999+0031REMSYN011333   58003
0115825710999991990052512004-05500-045267FM-12+017499999V0200901N00311220001CN0100001N9+02671+02041101771ADDAA106000091AG10999GF103991001001999999001011KA1240N+01841MA1999999099781MD1999999+0041REMSYN017333   20184 58004
0096825710999991990052518004-05500-045267FM-12+017499999V0200501N00311220001CN0100001N9+03041+02261101431ADDAA106000091AG10999GF104991031021008001011001MA1999999099451MD1999999+0111REMSYN011333   58011
0115825710999991990052600004-05500-045267FM-12+017499999V0209991C00001220001CN0100001N9+02411+02231101471ADDAA106000091AG10999GF100991001001999999001001KA1240M+03141MA1999999099491MD1999999-0121REMSYN017333   10314 59012
0115825710999991990052612004-05500-045267FM-12+017499999V0202301N00101220001CN0100001N9+02581+02271101651ADDAA106000091AG10999GF104991041001017501051001KA1240N+02101MA1999999099661MD1999999-0121REMSYN017333   20210 59012
0115825710999991990052618004-05500-045267FM-12+017499999V0200901N00311220001CN0100001N9+03151+02211101271ADDAA106000091AG10999GF103991999031008001001001MA1999999099311MD1999999-0141REMSYN011333   59014EQDQ01+000022SCOTLC
0115825710999991990052712004-05500-045267FM-12+017499999V0201401N00101220001CN0100001N9+02601+02351101581ADDAA106000091AG10999GF104991041001017501031001KA1240N+02101MA1999999099601MD1999999-0061REMSYN017333   20210 59006
0096825710999991990052718004-05500-045267FM-12+017499999V0201401N00511045001CN0100001N9+03041+02411101321ADDAA106000091AG10999GF106991031081008001031001MA1999999099501MD1999999+0041REMSYN011333   58004
0115825710999991990052812004-05500-045267FM-12+017499999V0203601N00211220001CN0100001N9+02711+02371101661ADDAA106000091AG10999GF102991011021008001031001KA1240N+02201MA1999999099681MD1999999+0081REMSYN017333   20220 58008
0115825710999991990052900004-05500-045267FM-12+017499999V0209991C00001220001CN0100001N9+02351+02261101411ADDAA106000091AG10999GF100991001001999999001001KA1240M+03071MA1999999099431MD1999999-0121REMSYN017333   10307 59012
0115825710999991990052912004-05500-045267FM-12+017499999V0200901N00101220001CN0100001N9+02631+02311101661ADDAA106000091AG10999GF102991021081008001001001KA1240N+02081MA1999999099671MD1999999-0011REMSYN017333   20208 59001
0096825710999991990052918004-05500-045267FM-12+017499999V0200901N00311220001CN0100001N9+03161+02231101271ADDAA106000091AG10999GF103991031021008001001001MA1999999099311MD1999999-0011REMSYN011333   59001
0115825710999991990053000004-05500-045267FM-12+017499999V0209991C00001220001CN0100001N9+02441+02281101411ADDAA106000091AG10999GF100991001001999999001001KA1240M+03201MA1999999099401MD1999999+0001REMSYN017333   10320 58000
0115825710999991990053012004-05500-045267FM-12+017499999V0200901N00211220001CN0100001N9+02711+02261101541ADDAA106000091AG10999GF101991011001017501031001KA1240N+01961MA1999999099561MD1999999-0111REMSYN017333   20196 59011
0096825710999991990053018004-05500-045267FM-12+017499999V0201401N00211220001CN0100001N9+03121+02281101241ADDAA106000091AG10999GF103991031021008001001001MA1999999099271MD1999999-0041REMSYN011333   59004
0115825710999991990053112004-05500-045267FM-12+017499999V0201401N00211220001CN0100001N9+02681+02241101561ADDAA106000091AG10999GF100991001001999999001001KA1240N+01941MA1999999099581MD1999999+0021REMSYN017333   20194 58002
0096825710999991990053118004-05500-045267FM-12+017499999V0201401N00211220001CN0100001N9+03041+02151101171ADDAA106000091AG10999GF104991041021008001001001MA1999999099201MD1999999-0071REMSYN011333   59007
0115825710999991990060100004-05500-045267FM-12+017499999V0209991C00001220001CN0100001N9+02421+02271101351ADDAA106000091AG10999GF100991001001999999001001KA1240M+03191MA1999999099371MD1999999-0041REMSYN017333   10319 59004
0115825710999991990060112004-05500-045267FM-12+017499999V0201401N00621220001CN0100001N9+02701+02031101521ADDAA106000091AG10999GF101991011001017501011001KA1240N+01901MA1999999099541MD1999999-0041REMSYN017333   20190 59004
0115825710999991990060212004-05500-045267FM-12+017499999V0209991C00001004201CN0100001N9+02341+02291101611ADDAA106000091AG10999GF108991081051004501999999KA1240N+01881MA1999999099611MD1999999+0071REMSYN017333   20188 58007
0096825710999991990060218004-05500-045267FM-12+017499999V0200501N00311220001CN0100001N9+03421+02331101241ADDAA106000091AG10999GF103991031021008001001001MA1999999099271MD1999999+0141REMSYN011333   58014
0115825710999991990060300004-05500-045267FM-12+017499999V0209991C00001220001CN0100001N9+02481+02231101331ADDAA106000091AG10999GF100991001001999999001001KA1240M+03181MA1999999099341MD1999999+0011REMSYN017333   10318 58001
0115825710999991990060312004-05500-045267FM-12+017499999V0201401N00311004201CN0100001N9+02581+02331101651ADDAA106000091AG10999GF108991081051004501999999KA1240N+02231MA1999999099661MD1999999+0241REMSYN017333   20223 58024
0115825710999991990060318004-05500-045267FM-12+017499999V0201401N00101007501CN0100001N9+03171+02051101271ADDAA106000091AG10999GF106991999021008001001001MA1999999099311MD1999999+0041REMSYN011333   58004EQDQ01+000052SCOTLC
0115825710999991990060400004-05500-045267FM-12+017499999V0209991C00001220001CN0100001N9+02521+02291101411ADDAA106000091AG10999GF100991001001999999001001KA1240M+03221MA1999999099431MD1999999+0111REMSYN017333   10322 58011
0115825710999991990060412004-05500-045267FM-12+017499999V0209991C00001220001CN0100001N9+02751+02241101511ADDAA106000091AG10999GF100991001001999999001001KA1240N+02081MA1999999099541MD1999999+0091REMSYN017333   20208 58009
0096825710999991990060418004-05500-045267FM-12+017499999V0200901N002119999999N0100001N9+03071+02271101191ADDAA106000091AG10999GF199999041031008001001011MA1999999099241MD1999999-0071REMSYN011333   59007
0146825710999991990060512004-05500-045267FM-12+017499999V0201401N00211004201CN0100001N9+02431+02321101531ADDAA106000091AA224004091AG10999AY161061GF108991081051004501999999KA1240N+02181MA1999999099541MD1999999+0001MW1021REMSYN023333   20218 58000 60044
0096825710999991990060518004-05500-045267FM-12+017499999V0200901N00311220001CN0100001N9+03181+02131101211ADDAA106000091AG10999GF103991021021008001001011MA1999999099271MD1999999+0031REMSYN011333   58003
0115825710999991990060612004-05500-045267FM-12+017499999V0201401N00211220001CN0100001N9+02541+02061101581ADDAA106000091AG10999GF100991001001999999001001KA1240N+01701MA1999999099601MD1999999+0061REMSYN017333   20170 58006
0096825710999991990060618004-05500-045267FM-12+017499999V0201801N00211220001CN0100001N9+03261+02111101201ADDAA106000091AG10999GF104991031021008001001011MA1999999099261MD1999999-0011REMSYN011333   59001
0115825710999991990060700004-05500-045267FM-12+017499999V0209991C00001220001CN0100001N9+02441+02321101331ADDAA106000091AG10999GF100991001001999999001001KA1240M+03291MA1999999099351MD1999999-0041REMSYN017333   10329 59004
0115825710999991990060712004-05500-045267FM-12+017499999V0203601N00101220001CN0100001N9+02591+02121101551ADDAA106000091AG10999GF100991001001999999001001KA1240N+01931MA1999999099541MD1999999-0041REMSYN017333   20193 59004
0096825710999991990060718004-05500-045267FM-12+017499999V0201401N00311220001CN0100001N9+03231+02011101131ADDAA106000091AG10999GF102991021021008001001001MA1999999099191MD1999999-0071REMSYN011333   59007
0115825710999991990060800004-05500-045267FM-12+017499999V0203601N00101220001CN0100001N9+02521+02131101221ADDAA106000091AG10999GF103991031001017501051001KA1240M+03281MA1999999099271MD1999999-0111REMSYN017333   10328 59011
0115825710999991990060812004-05500-045267FM-12+017499999V0200901N00101220001CN0100001N9+02751+02261101401ADDAA106000091AG10999GF106991041001017501031011KA1240N+02141MA1999999099461MD1999999-0101REMSYN017333   20214 59010
0115825710999991990060900004-05500-045267FM-12+017499999V0209991C00001220001CN0100001N9+02521+02341101321ADDAA106000091AG10999GF100991001001999999001001KA1240M+03281MA1999999099351MD1999999-0081REMSYN017333   10328 59008
0115825710999991990060912004-05500-045267FM-12+017499999V0209991C00001045001CN0100001N9+02501+02271101531ADDAA106000091AG10999GF106991031051008001031011KA1240N+01931MA1999999099541MD1999999+0081REMSYN017333   20193 58008
0096825710999991990060918004-05500-045267FM-12+017499999V0201401N00511220001CN0100001N9+03241+01931101071ADDAA106000091AG10999GF102991021021008001001001MA1999999099131MD1999999-0041REMSYN011333   59004
0115825710999991990061000004-05500-045267FM-12+017499999V0209991C00001220001CN0100001N9+02471+02191101241ADDAA106000091AG10999GF100991001001999999001001KA1240M+03271MA1999999099261MD1999999-0091REMSYN017333   10327 59009
0115825710999991990061012004-05500-045267FM-12+017499999V0201401N00311220001CN0100001N9+02751+02171101521ADDAA106000091AG10999GF100991001001999999001001KA1240N+01941MA1999999099541MD1999999+0001REMSYN017333   20194 58000
0096825710999991990061018004-05500-045267FM-12+017499999V0201401N00211220001CN0100001N9+03281+01891101921ADDAA106000091AG10999GF103991031021008001001001MA1999999099151MD1999999+0031REMSYN011333   58003
0115825710999991990061112004-05500-045267FM-12+017499999V0209991C00001220001CN0100001N9+02761+02251101441ADDAA106000091AG10999GF100991001001999999001001KA1240N+01981MA1999999099471MD1999999-0071REMSYN017333   20198 59007
0096825710999991990061118004-05500-045267FM-12+017499999V0201401N00311220001CN0100001N9+03201+02181101191ADDAA106000091AG10999GF104991041021008001001001MA1999999099221MD1999999+0071REMSYN011333   58007
0115825710999991990061200004-05500-045267FM-12+017499999V0209991C00001220001CN0100001N9+02481+02191101311ADDAA106000091AG10999GF100991001001999999001001KA1240M+03321MA1999999099341MD1999999+0091REMSYN017333   10332 58009
0115825710999991990061212004-05500-045267FM-12+017499999V0201401N00211220001CN0100001N9+02701+01861101631ADDAA106000091AG10999GF100991001001999999001001KA1240N+01971MA1999999099651MD1999999+0181REMSYN017333   20197 58018
0096825710999991990061218004-05500-045267FM-12+017499999V0200901N00311220001CN0100001N9+03161+02991101301ADDAA106000091AG10999GF102991021011008001001001MA1999999099331MD1999999+0111REMSYN011333   58011
0115825710999991990061300004-05500-045267FM-12+017499999V0209991C00001220001CN0100001N9+02431+02131101411ADDAA106000091AG10999GF100991001001999999001001KA1240M+03211MA1999999099431MD1999999+0091REMSYN017333   10321 58009
0115825710999991990061312004-05500-045267FM-12+017499999V0201401N00211220001CN0100001N9+02681+01941101621ADDAA106000091AG10999GF100991001001999999001001KA1240N+01821MA1999999099641MD1999999-0011REMSYN017333   20182 59001
0115825710999991990061400004-05500-045267FM-12+017499999V0209991C00001220001CN0100001N9+02431+02091101371ADDAA106000091AG10999GF100991001001999999001001KA1240M+03241MA1999999099391MD1999999-0041REMSYN017333   10324 59004
0115825710999991990061412004-05500-045267FM-12+017499999V0201401N00311220001CN0500001N9+02701+02081101621ADDAA106000091AG10999GF100991001001999999001001KA1240N+01881MA1999999099641MD1999999+0001REMSYN017333   20188 58000
0115825710999991990061500004-05500-045267FM-12+017499999V0209991C00001220001CN0100001N9+02481+02211101321ADDAA106000091AG10999GF100991001001999999001001KA1240M+03261MA1999999099351MD1999999-0041REMSYN017333   10326 59004
0115825710999991990061512004-05500-045267FM-12+017499999V0200901N00211012001CN0100001N9+02751+02261101561ADDAA106000091AG10999GF106991061081008001001001KA1240N+01981MA1999999099581MD1999999-0061REMSYN017333   20198 59006
0096825710999991990061518004-05500-045267FM-12+017499999V0201401N00211045001CN0100001N9+03081+02141101331ADDAA106000091AG10999GF106991041031008001031001MA1999999099361MD1999999+0051REMSYN011333   58005
0115825710999991990061600004-05500-045267FM-12+017499999V0209991C00001220001CN0100001N9+02421+02191101501ADDAA106000091AG10999GF100991001001999999001001KA1240M+03251MA1999999099431MD1999999+0021REMSYN017333   10325 58002
0115825710999991990061612004-05500-045267FM-12+017499999V0209991C00001004201CN0100001N9+02331+02131101681ADDAA106000091AG10999GF108991081051004501999999KA1240N+01831MA1999999099681MD1999999+0101REMSYN017333   20183 58010
0096825710999991990061618004-05500-045267FM-12+017499999V0201401N00211220001CN0100001N9+03091+02191101271ADDAA106000091AG10999GF105991031031008001001011MA1999999099291MD1999999-0071REMSYN011333   59007
0115825710999991990061712004-05500-045267FM-12+017499999V0200901N00311004201CN0100001N9+02541+02291101771ADDAA106000091AG10999GF108991081051004501999999KA1240N+02061MA1999999099781MD1999999+0101REMSYN017333   20206 58010
0096825710999991990061718004-05500-045267FM-12+017499999V0201401N00211220001CN0100001N9+03181+02191101291ADDAA106000091AG10999GF102991021021008001001001MA1999999099331MD1999999+0041REMSYN011333   58004
0115825710999991990061800004-05500-045267FM-12+017499999V0209991C00001220001CN0100001N9+02461+02231101461ADDAA106000091AG10999GF100991001001999999001001KA1240M+03261MA1999999099471MD1999999-0021REMSYN017333   10326 59002
0115825710999991990061812004-05500-045267FM-12+017499999V0200901N00101045001CN0100001N9+02441+02271101771ADDAA106000091AG10999GF108991041071004501021999KA1240N+01771MA1999999099771MD1999999-0011REMSYN017333   20177 59001
0096825710999991990061818004-05500-045267FM-12+017499999V0200901N00311220001CN0100001N9+03161+02201101281ADDAA106000091AG10999GF104991041021008001001001MA1999999099311MD1999999-0021REMSYN011333   59002
0115825710999991990061900004-05500-045267FM-12+017499999V0209991C00001220001CN0100001N9+02421+02111101461ADDAA106000091AG10999GF100991001001999999001001KA1240M+03241MA1999999099471MD1999999+0001REMSYN017333   10324 58000
0115825710999991990061912004-05500-045267FM-12+017499999V0200501N00101220001CN0100001N9+02541+02131101701ADDAA106000091AG10999GF100991001001999999001001KA1240N+01711MA1999999099711MD1999999-0061REMSYN017333   20171 59006
0096825710999991990061918004-05500-045267FM-12+017499999V0201401N00311220001CN0100001N9+03301+01951101311ADDAA106000091AG10999GF102991011011008001011001MA1999999099341MD1999999+0021REMSYN011333   58002
0115825710999991990062000004-05500-045267FM-12+017499999V0200501N00101220001CN0100001N9+02441+02071101541ADDAA106000091AG10999GF100991001001999999001001KA1240M+03331MA1999999099551MD1999999+0081REMSYN017333   10333 58008
0115825710999991990062012004-05500-045267FM-12+017499999V0200901N00101220001CN0100001N9+02581+02151101821ADDAA106000091AG10999GF100991001001999999001001KA1240N+01761MA1999999099831MD1999999+0121REMSYN017333   20176 58012
0096825710999991990062018004-05500-045267FM-12+017499999V0200901N00311220001CN0100001N9+03241+01961101431ADDAA106000091AG10999GF103991031021008001001001MA1999999099451MD1999999+0111REMSYN011333   58011
0115825710999991990062112004-05500-045267FM-12+017499999V0200501N00101220001CN0100001N9+02561+02231101711ADDAA106000091AG10999GF101991011011004501001001KA1240N+01821MA1999999099621MD1999999-0111REMSYN017333   20182 59011
0096825710999991990062118004-05500-045267FM-12+017499999V0200501N00211220001CN0100001N9+03271+02111101291ADDAA106000091AG10999GF103991031021008001001001MA1999999099321MD1999999-0131REMSYN011333   59013
0115825710999991990062200004-05500-045267FM-12+017499999V0200501N00101220001CN0100001N9+02541+02381101451ADDAA106000091AG10999GF100991001001999999001001KA1240M+03311MA1999999099471MD1999999-0161REMSYN017333   10331 59016
0115825710999991990062212004-05500-045267FM-12+017499999V0203601N00101004201CN0100001N9+02561+02331101591ADDAA106000091AG10999GF107991071021004501001001KA1240N+01841MA1999999099611MD1999999-0111REMSYN017333   20184 59011
0096825710999991990062218004-05500-045267FM-12+017499999V0202301N00211220001CN0100001N9+03101+02181101241ADDAA106000091AG10999GF104991041021008001001001MA1999999099251MD1999999-0091REMSYN011333   59009
0115825710999991990062300004-05500-045267FM-12+017499999V0200501N00101220001CN0100001N9+02601+02481101321ADDAA106000091AG10999GF103991011021008001041001KA1240M+03221MA1999999099351MD1999999-0121REMSYN017333   10322 59012
0115825710999991990062312004-05500-045267FM-12+017499999V0200501N00101004201CN0100001N9+02571+02471101501ADDAA106000091AG10999GF108991081051004501999999KA1240N+02081MA1999999099521MD1999999-0091REMSYN017333   20208 59009
0096825710999991990062318004-05500-045267FM-12+017499999V0200501N00311220001CN0100001N9+03261+02081101071ADDAA106000091AG10999GF103991031021008001001001MA1999999099111MD1999999-0121REMSYN011333   59012
0115825710999991990062400004-05500-045267FM-12+017499999V0209991C00001220001CN0100001N9+02531+02231101221ADDAA106000091AG10999GF100991001001999999001001KA1240M+03351MA1999999099241MD1999999-0111REMSYN017333   10335 59011
0115825710999991990062412004-05500-045267FM-12+017499999V0200901N00101004201CN0100001N9+02441+02341101541ADDAA106000091AG10999GF108991081051004501999999KA1240N+01961MA1999999099551MD1999999+0031REMSYN017333   20196 58003
0096825710999991990062418004-05500-045267FM-12+017499999V0200901N00151220001CN0100001N9+03181+02161101161ADDAA106000091AG10999GF104991031021008001011001MA1999999099191MD1999999+0081REMSYN011333   58008
0115825710999991990062512004-05500-045267FM-12+017499999V0201401N00101004201CN0100001N9+02561+02361101551ADDAA106000091AG10999GF107991071051004501001001KA1240N+01981MA1999999099561MD1999999+0011REMSYN017333   20198 58001
0096825710999991990062518004-05500-045267FM-12+017499999V0201401N00211220001CN0100001N9+03221+02081101191ADDAA106000091AG10999GF103991031021008001001001MA1999999099221MD1999999+0031REMSYN011333   58003
0115825710999991990062612004-05500-045267FM-12+017499999V0203201N00101004201CN0100001N9+02391+02311101671ADDAA106000091AG10999GF108991081051004501999999KA1240N+01911MA1999999099671MD1999999+0111REMSYN017333   20191 58011
0096825710999991990062618004-05500-045267FM-12+017499999V0200901N00411045001CN0100001N9+03081+02161101221ADDAA106000091AG10999GF105991041021008001011001MA1999999099241MD1999999+0221REMSYN011333   58022
0115825710999991990062700004-05500-045267FM-12+017499999V0200501N00101220001CN0100001N9+02421+02301101331ADDAA106000091AG10999GF100991001001999999001001KA1240M+03231MA1999999099341MD1999999+0001REMSYN017333   10323 58000
0115825710999991990062712004-05500-045267FM-12+017499999V0203201N00101220001CN0100001N9+02541+02231101581ADDAA106000091AG10999GF102991021011004501001001KA1240N+01841MA1999999099591MD1999999-0081REMSYN017333   20184 59008
0096825710999991990062718004-05500-045267FM-12+017499999V0200901N00211220001CN0100001N9+03321+02101101181ADDAA106000091AG10999GF103991031021008001001001MA1999999099211MD1999999-0031REMSYN011333   59003
0115825710999991990062812004-05500-045267FM-12+017499999V0200501N00101004201CN0100001N9+02341+02271101561ADDAA106000091AG10999GF108991081051004501999999KA1240N+01771MA1999999099561MD1999999-0031REMSYN017333   20177 59003
0096825710999991990062818004-05500-045267FM-12+017499999V0201401N00511220001CN0100001N9+03261+02051101071ADDAA106000091AG10999GF104991031021008001011001MA1999999099101MD1999999-0111REMSYN011333   59011
0115825710999991990062900004-05500-045267FM-12+017499999V0209991C00001220001CN0100001N9+02351+02071101241ADDAA106000091AG10999GF100991001001999999001001KA1240M+03311MA1999999099251MD1999999+0001REMSYN017333   10331 58000
0115825710999991990062912004-05500-045267FM-12+017499999V0200501N00101220001CN0100001N9+02521+01931101591ADDAA106000091AG10999GF101991011001017501031001KA1240N+01381MA1999999099061MD1999999+0041REMSYN017333   20138 58004
0096825710999991990062918004-05500-045267FM-12+017499999V0201401N00311220001CN0100001N9+03261+02071101221ADDAA106000091AG10999GF104991041021008001001001MA1999999099451MD1999999+0151REMSYN011333   58015
0115825710999991990063012004-05500-045267FM-12+017499999V0201401N00211220001CN0100001N9+02561+01901101531ADDAA106000091AG10999GF101991011001017501011001KA1240N+01831MA1999999099541MD1999999-0061REMSYN017333   20183 59006
0096825710999991990063018004-05500-045267FM-12+017499999V0200901N00211045001CN0100001N9+03281+02231101141ADDAA106000091AG10999GF107991031021008001051001MA1999999099171MD1999999-0081REMSYN011333   59008
0115825710999991990070100004-05500-045267FM-12+017499999V0209991C00001220001CN0100001N9+02561+02251101331ADDAA106000091AG10999GF100991001001999999001001KA1240M+03311MA1999999099351MD1999999-0071REMSYN017333   10331 59007
0115825710999991990070112004-05500-045267FM-12+017499999V0209991C00001009001CN0100001N9+02491+02191101571ADDAA106000091AG10999GF106991061081004501001001KA1240N+02041MA1999999099581MD1999999+0041REMSYN017333   20204 58004
0115825710999991990070212004-05500-045267FM-12+017499999V0209991C00001220001CN0100001N9+02301+02111101541ADDAA106000091AG10999GF105991031001017501031011KA1240N+02071MA1999999099551MD1999999-0031REMSYN017333   20207 59003
0096825710999991990070218004-05500-045267FM-12+017499999V0202301N00211220001CN0100001N9+03261+02051101181ADDAA106000091AG10999GF103991021021008001001011MA1999999099221MD1999999+0031REMSYN011333   58003
0143825710999991990070312004-05500-045267FM-12+017499999V0209991C00001004201CN0100001N9+02281+02211101691ADDAA124001091AG10999AY191061AY261061GF108991081051004501999999KA1240N+02111MA1999999099591MD1999999+0141MW1021REMSYN023333   20211 58014 60014
0096825710999991990070318004-05500-045267FM-12+017499999V0201401N00211045001CN0100001N9+02811+02201101301ADDAA106000091AG10999GF106991031051008001031011MA1999999099341MD1999999+0121REMSYN011333   58012
0121825710999991990070400004-05500-045267FM-12+017499999V0203601N00101220001CN0100001N9+02481+02271101531ADDAA106000091AG10999GF105991041001017501031011KA1240M+02911MA1999999099541MD1999999+0211MW1131REMSYN017333   10291 58021
0135825710999991990070412004-05500-045267FM-12+017499999V0202301N00101007501CN0100001N9+02401+02231101771ADDAA124000391AG10999AY161061GF108991081051008001999999KA1240N+02041MA1999999099781MD1999999+0091MW1021REMSYN023333   20204 58009 69934
0096825710999991990070418004-05500-045267FM-12+017499999V0201801N00311045001CN0100001N9+03041+02121101361ADDAA106000091AG10999GF105991041021008001031001MA1999999099391MD1999999+0051REMSYN011333   58005
0115825710999991990070500004-05500-045267FM-12+017499999V0209991C00001220001CN0100001N9+02501+02231101461ADDAA106000091AG10999GF100991001001999999001001KA1240M+03141MA1999999099471MD1999999-0071REMSYN017333   10314 59007
0115825710999991990070600004-05500-045267FM-12+017499999V0209991C00001007501CN0100001N9+02511+02291101391ADDAA106000091AG10999GF108991081051008001999999KA1240M+03331MA1999999099411MD1999999-0061REMSYN017333   10333 59006
0154825710999991990070712004-05500-045267FM-12+017499999V0209991C00001004201CN0100001N9+02341+02271101641ADDAA124000891AA299001091AG10999AY161061AY211061GF108991081051004501999999KA1240N+02101MA1999999099641MD1999999-0031MW1021REMSYN023333   20210 59003 69984
0096825710999991990070718004-05500-045267FM-12+017499999V0200901N00211045001CN0100001N9+03041+02201101221ADDAA106000091AG10999GF106991031021008001041011MA1999999099251MD1999999-0041REMSYN011333   59004
0115825710999991990070800004-05500-045267FM-12+017499999V0209991C00001220001CN0100001N9+02471+02271101391ADDAA106000091AG10999GF100991001001999999001001KA1240M+03121MA1999999099401MD1999999-0051REMSYN017333   10312 59005
0116825710999991990070818004-05500-045267FM-12+017499999V0201401N00411045001CN0100001N9+02981+02231101161ADDAA106005091AG10999AY161061GF106991031031008001031011MA1999999099191MD1999999-0061MW1021REMSYN017333   59006 60051
0115825710999991990070900004-05500-045267FM-12+017499999V0209991C00001007501CN0100001N9+02541+02361101281ADDAA106000091AG10999GF108991081051008001999999KA1240M+03051MA1999999099291MD1999999-0111REMSYN017333   10305 59011
0140825710999991990070912004-05500-045267FM-12+017499999V0209991C00001004201CN0100001N9+02441+02321101531ADDAA124005091AG10999GF108991081051004501999999KA1240M+99999MA1999999099541MD1999999+0001REMSYN023333   10226 58000 60054EQDQ01 +02262ATMX  
0096825710999991990070918004-05500-045267FM-12+017499999V0200901N00411045001CN0100001N9+03121+02171101171ADDAA106000091AG10999GF105991031031008001031001MA1999999099211MD1999999+0021REMSYN011333   58002
0115825710999991990071000004-05500-045267FM-12+017499999V0209991C00001220001CN0100001N9+02421+02251101201ADDAA106000091AG10999GF100991001001999999001001KA1240M+03201MA1999999099221MD1999999-0071REMSYN017333   10320 59007
0115825710999991990071012004-05500-045267FM-12+017499999V0200901N00211007501CN0100001N9+02511+02211101591ADDAA106000091AG10999GF107991071051008001001001KA1240N+02061MA1999999099591MD1999999+0051REMSYN017333   20206 58005
0134825710999991990071112004-05500-045267FM-12+017499999V0209991C000019999999N0100001N9+02261+02241101621ADDAA106000091AG10999GF108991081051999999999999KA1240N+01931MA1999999099621MD1999999+0031REMSYN017333   20193 58003EQDQ01+000992SCOLCB
0096825710999991990071118004-05500-045267FM-12+017499999V0200501N00411007501CN0100001N9+03301+02211101251ADDAA106000091AG10999GF105991051021008001001001MA1999999099291MD1999999+0021REMSYN011333   58002
0115825710999991990071200004-05500-045267FM-12+017499999V0209991C00001220001CN0100001N9+02481+02251101331ADDAA106000091AG10999GF100991001001999999001001KA1240M+03311MA1999999099341MD1999999-0031REMSYN017333   10331 59003
0115825710999991990071212004-05500-045267FM-12+017499999V0200501N00101045001CN0100001N9+02561+02531101751ADDAA106000091AG10999GF106991031051008001041011KA1240N+01981MA1999999099781MD1999999+0161REMSYN017333   20198 58016
0096825710999991990071218004-05500-045267FM-12+017499999V0200901N00411220001CN0100001N9+03211+02211101381ADDAA106000091AG10999GF104991041021008001001001MA1999999099411MD1999999+0121REMSYN011333   58012
0115825710999991990071300004-05500-045267FM-12+017499999V0209991C000019999999N0100001N9+02531+02191101511ADDAA106000091AG10999GF108991999999999999999999KA1240M+03271MA1999999099531MD1999999+0191REMSYN017333   10327 58019
0115825710999991990071312004-05500-045267FM-12+017499999V0209991C00001004201CN0100001N9+02561+02381101751ADDAA106000091AG10999GF108991081051004501999999KA1240N+02021MA1999999099761MD1999999-0021REMSYN017333   20202 59002
0096825710999991990071318004-05500-045267FM-12+017499999V0200501N00211220001CN0100001N9+03141+02271101331ADDAA106000091AG10999GF104991041021008001001001MA1999999099361MD1999999-0051REMSYN011333   59005
0096825710999991990071518004-05500-045267FM-12+017499999V0200901N00151220001CN0100001N9+03221+02001101141ADDAA106000091AG10999GF103991031021008001001001MA1999999099171MD1999999-0161REMSYN011333   59016
0115825710999991990071612004-05500-045267FM-12+017499999V0209991C00001007501CN0100001N9+02501+02321101611ADDAA106000091AG10999GF108991081051008001999999KA1240N+01931MA1999999099631MD1999999+0001REMSYN017333   20193 58000
0096825710999991990071618004-05500-045267FM-12+017499999V0200501N00311220001CN0100001N9+03051+02971101111ADDAA106000091AG10999GF104991041021008001001001MA1999999099141MD1999999-0031REMSYN011333   59003
0115825710999991990071700004-05500-045267FM-12+017499999V0209991C00001220001CN0100001N9+02491+02151101271ADDAA106000091AG10999GF100991001001999999001001KA1240M+03301MA1999999099291MD1999999-0041REMSYN017333   10330 59004
0115825710999991990071712004-05500-045267FM-12+017499999V0209991C00001007501CN0100001N9+02241+02191101581ADDAA106000091AG10999GF108991081051008001999999KA1240N+02201MA1999999099581MD1999999-0051REMSYN017333   20220 59005
0115825710999991990071800004-05500-045267FM-12+017499999V0209991C00001220001CN0100001N9+02471+02171101021ADDAA106000091AG10999GF100991001001999999001001KA1240M+03261MA1999999099201MD1999999-0091REMSYN017333   10326 59009
0115825710999991990071812004-05500-045267FM-12+017499999V0201401N00211007501CN0100001N9+02381+02241101491ADDAA106000091AG10999GF108991081051008001999999KA1240N+01801MA1999999099501MD1999999-0081REMSYN017333   20180 59008
0096825710999991990071818004-05500-045267FM-12+017499999V0201401N00211220001CN0100001N9+03241+02161101091ADDAA106000091AG10999GF102991021021008001001001MA1999999099121MD1999999+0011REMSYN011333   58001
0115825710999991990071900004-05500-045267FM-12+017499999V0209991C00001220001CN0100001N9+02501+02151101161ADDAA106000091AG10999GF100991001001999999001001KA1240M+03281MA1999999099181MD1999999-0021REMSYN017333   10328 59002
0115825710999991990071912004-05500-045267FM-12+017499999V0209991C00001004201CN0100001N9+02451+02301101451ADDAA106000091AG10999GF108991081051004501999999KA1240N+02071MA1999999099461MD1999999-0041REMSYN017333   20207 59004
0096825710999991990071918004-05500-045267FM-12+017499999V0201801N00211220001CN0100001N9+03351+02251101011ADDAA106000091AG10999GF104991041021008001001001MA1999999099021MD1999999+0001REMSYN011333   59000
0115825710999991990072000004-05500-045267FM-12+017499999V0209991C00001220001CN0100001N9+02641+02261101141ADDAA106000091AG10999GF100991001001999999001001KA1240M+03421MA1999999099161MD1999999-0021REMSYN017333   10342 59002
0096825710999991990072018004-05500-045267FM-12+017499999V0203601N00211220001CN0100001N9+03241+02191100991ADDAA106000091AG10999GF104991041021008001001001MA1999999099031MD1999999+0011REMSYN011333   58001
0115825710999991990072100004-05500-045267FM-12+017499999V0209991C00001220001CN0100001N9+02541+02151101261ADDAA106000091AG10999GF100991001001999999001001KA1240M+03301MA1999999099291MD1999999+0131REMSYN017333   10330 58013
0115825710999991990072112004-05500-045267FM-12+017499999V0209991C00001004201CN0100001N9+02521+02311101671ADDAA106000091AG10999GF108991081051004501999999KA1240N+02051MA1999999099681MD1999999+0191REMSYN017333   20205 58019
0096825710999991990072118004-05500-045267FM-12+017499999V0201801N00211220001CN0100001N9+03151+02181101201ADDAA106000091AG10999GF103991031021008001001001MA1999999099251MD1999999+0021REMSYN011333   58002
0115825710999991990072200004-05500-045267FM-12+017499999V0209991C00001220001CN0100001N9+02621+02211101371ADDAA106000091AG10999GF100991001001999999001001KA1240M+03361MA1999999099391MD1999999+0101REMSYN017333   10336 58010
0115825710999991990072212004-05500-045267FM-12+017499999V0200501N00101004201CN0100001N9+02461+02231101651ADDAA106000091AG10999GF108991081051004501999999KA1240N+02041MA1999999099661MD1999999-0021REMSYN017333   20204 59002
0096825710999991990072218004-05500-045267FM-12+017499999V0200501N00311015001CN0100001N9+03161+02421101241ADDAA106000091AG10999GF106991061001017501051001MA1999999099271MD1999999+0021REMSYN011333   58002
0115825710999991990072312004-05500-045267FM-12+017499999V0209991C00001004201CN0100001N9+02381+02261101601ADDAA106000091AG10999GF108991081051004501999999KA1240N+02141MA1999999099601MD1999999-0061REMSYN017333   20214 59006
0115825710999991990072318004-05500-045267FM-12+017499999V0200501N00311045001CN0100001N9+03211+02331101061ADDAA106000091AG10999GF106991031021008001051011MA1999999099111MD1999999-0161REMSYN011333   59016EQDQ01+999990APOSLP
0115825710999991990072412004-05500-045267FM-12+017499999V0209991C00001045001CN0100001N9+02481+02031101571ADDAA106000091AG10999GF106991041051008001041001KA1240N+02301MA1999999099581MD1999999-0021REMSYN017333   20230 59002
0096825710999991990072418004-05500-045267FM-12+017499999V0203601N00311045001CN0100001N9+03161+02081101571ADDAA106000091AG10999GF106991041051008001031001MA1999999099601MD1999999-0491REMSYN011333   59049
0115825710999991990072512004-05500-045267FM-12+017499999V0209991C00001007501CN0100001N9+02341+02271101731ADDAA106000091AG10999GF108991081051008001999999KA1240N+02011MA1999999099741MD1999999+0161REMSYN017333   20201 58016
0096825710999991990072518004-05500-045267FM-12+017499999V0200901N00211220001CN0100001N9+03191+02221101211ADDAA106000091AG10999GF102991021021008001001001MA1999999099251MD1999999-0351REMSYN011333   59035
0115825710999991990072600004-05500-045267FM-12+017499999V0209991C00001220001CN0100001N9+02541+02091101401ADDAA106000091AG10999GF100991001001999999001001KA1240M+03331MA1999999099411MD1999999+0071REMSYN017333   10333 58007
0115825710999991990072612004-05500-045267FM-12+017499999V0203601N00151220001CN0100001N9+02671+02181101661ADDAA106000091AG10999GF100991001001999999001001KA1240N+01911MA1999999099681MD1999999-0061REMSYN017333   20191 59006
0096825710999991990072618004-05500-045267FM-12+017499999V0200501N00051220001CN0100001N9+03301+01951101311ADDAA106000091AG10999GF103991021021008001031001MA1999999099351MD1999999+0101REMSYN011333   58010
0115825710999991990072700004-05500-045267FM-12+017499999V0209991C00001220001CN0100001N9+02501+02231101511ADDAA106000091AG10999GF100991001001999999001001KA1240M+03351MA1999999099431MD1999999+0021REMSYN017333   10335 58002
0115825710999991990072712004-05500-045267FM-12+017499999V0201401N00211220001CN0100001N9+02741+02001101751ADDAA106000091AG10999GF100991001001999999001001KA1240N+02001MA1999999099771MD1999999+0091REMSYN017333   20200 58009
0096825710999991990072718004-05500-045267FM-12+017499999V0200901N00211220001CN0100001N9+03301+02021101341ADDAA106000091AG10999GF106991041021008001001011MA1999999099381MD1999999+0031REMSYN011333   58003
0134825710999991990072812004-05500-045267FM-12+017499999V0209991C000019999999N0100001N9+02471+01761101831ADDAA106000091AG10999GF106991999001017501051001KA1240N+01741MA1999999099841MD1999999+0071REMSYN017333   20174 58007EQDQ01+000042SCOTLC
0115825710999991990072912004-05500-045267FM-12+017499999V0209991C00001007501CN0100001N9+02441+02111101851ADDAA106000091AG10999GF107991071051008001001001KA1240N+01761MA1999999099841MD1999999+0001REMSYN017333   20176 58000
0096825710999991990072918004-05500-045267FM-12+017499999V0200901N00411220001CN0100001N9+03221+02011102191ADDAA106000091AG10999GF104991041021008001001001MA1999999099421MD1999999+0051REMSYN011333   58005
0096825710999991990073018004-05500-045267FM-12+017499999V0201401N00211220001CN0100001N9+03251+02051101321ADDAA106000091AG10999GF104991041021008001001001MA1999999099361MD1999999-0061REMSYN011333   59006
0115825710999991990073100004-05500-045267FM-12+017499999V0209991C00001220001CN0100001N9+02581+02151101541ADDAA106000091AG10999GF100991001001999999001001KA1240M+03401MA1999999099561MD1999999-0031REMSYN017333   10340 59003
0115825710999991990073112004-05500-045267FM-12+017499999V0209991C00001007501CN0100001N9+02301+02231101841ADDAA106000091AG10999GF108991081051008001999999KA1240N+01961MA1999999099831MD1999999+0051REMSYN017333   20196 58005
0096825710999991990073118004-05500-045267FM-12+017499999V0200501N00101220001CN0100001N9+03161+02141101341ADDAA106000091AG10999GF104991041021008001001001MA1999999099371MD1999999+0011REMSYN011333   58001
0115825710999991990080712004-05500-045267FM-12+017499999V0200901N00211220001CN0100001N9+02801+01311101791ADDAA106000091AG10999GF100991001001999999001001KA1240N+02111MA1999999099401MD1999999+0001REMSYN017333   20211 58000
0082825710999991990080718004-05500-045267FM-12+017499999V0201401N00311007501CN0100001N9+03261+01641101271ADDAA106000091AG10999GF105991051021008001001001MA1999999099301REMSYN011333   58///
0115825710999991990080800004-05500-045267FM-12+017499999V0209991C00001220001CN0100001N9+02401+01751101421ADDAA106000091AG10999GF100991001001999999001001KA1240M+03341MA1999999099441MD1999999-0021REMSYN017333   10334 59002
0115825710999991990080812004-05500-045267FM-12+017499999V0201401N00211220001CN0100001N9+02541+01851101661ADDAA106000091AG10999GF100991001001999999001001KA1240N+01581MA1999999099671MD1999999-0121REMSYN017333   20158 59012
0096825710999991990080818004-05500-045267FM-12+017499999V0200501N00211220001CN0100001N9+03401+01811101251ADDAA106000091AG10999GF103991031021008001001001MA1999999099281MD1999999-0021REMSYN011333   59002
0115825710999991990080900004-05500-045267FM-12+017499999V0209991C00001045001CN0100001N9+02601+01821101501ADDAA106000091AG10999GF105991051001999999051001KA1240M+03431MA1999999099521MD1999999+0081REMSYN017333   10343 58008
0115825710999991990080912004-05500-045267FM-12+017499999V0201401N00311220001CN0100001N9+02851+01821101651ADDAA106000091AG10999GF100991001001999999001001KA1240N+02081MA1999999099681MD1999999+0011REMSYN017333   20208 58001
0096825710999991990080918004-05500-045267FM-12+017499999V0201401N00311220001CN0100001N9+03321+01741101231ADDAA106000091AG10999GF104991041021008001001001MA1999999099271MD1999999-0021REMSYN011333   59002
0115825710999991990081012004-05500-045267FM-12+017499999V0200901N00211004201CN0100001N9+02541+02331101621ADDAA106000091AG10999GF107991071021004501001001KA1240N+01951MA1999999099731MD1999999+0051REMSYN017333   20195 58005
0096825710999991990081018004-05500-045267FM-12+017499999V0200501N00101045001CN0100001N9+03241+01931101281ADDAA106000091AG10999GF106991041021008001011001MA1999999099321MD1999999+0051REMSYN011333   58005
0096825710999991990081118004-05500-045267FM-12+017499999V0200501N00311007501CN0100001N9+03541+01971101161ADDAA106000091AG10999GF105991051021008001001001MA1999999092101MD1999999-0111REMSYN011333   59011
0115825710999991990081300004-05500-045267FM-12+017499999V0209991C00001220001CN0100001N9+02691+01991101471ADDAA106000091AG10999GF100991001001999999001001KA1240M+03501MA1999999099511MD1999999+0011REMSYN017333   10350 58001
0115825710999991990081312004-05500-045267FM-12+017499999V0200501N00211220001CN0100001N9+02601+02191101791ADDAA106000091AG10999GF102991011011008001011001KA1240N+01841MA1999999099811MD1999999+0141REMSYN017333   20184 58014
0096825710999991990081318004-05500-045267FM-12+017499999V0200901N00411045001CN0100001N9+03871+01941101271ADDAA106000091AG10999GF105991021021008001011001MA1999999099331MD1999999+0021REMSYN011333   58002
0115825710999991990081412004-05500-045267FM-12+017499999V0200501N00101007501CN0100001N9+02661+02291101761ADDAA106000091AG10999GF105991051021008001001001KA1240N+01931MA1999999099781MD1999999-0031REMSYN017333   20193 59003
0096825710999991990081418004-05500-045267FM-12+017499999V0201401N00151045001CN0100001N9+03171+01861101311ADDAA106000091AG10999GF105991041021008001011001MA1999999099341MD1999999-0011REMSYN011333   59001
0115825710999991990081500004-05500-045267FM-12+017499999V0209991C00001220001CN0100001N9+02831+02091101471ADDAA106000091AG10999GF100991001001999999001001KA1240M+03331MA1999999099491MD1999999+0061REMSYN017333   10333 58006
0115825710999991990081512004-05500-045267FM-12+017499999V0200501N00211220001CN0100001N9+02761+02231101691ADDAA106000091AG10999GF102991021011004501001001KA1240N+01921MA1999999099711MD1999999-0071REMSYN017333   20192 59007
0096825710999991990081518004-05500-045267FM-12+017499999V0201801N00211220001CN0100001N9+03401+01891101151ADDAA106000091AG10999GF104991041021008001001001MA1999999099191MD1999999-0151REMSYN011333   59015
0115825710999991990081612004-05500-045267FM-12+017499999V0200901N00311220001CN0100001N9+02681+02201101591ADDAA106000091AG10999GF102991021001017501031001KA1240N+01921MA1999999099621MD1999999-0091REMSYN017333   20192 59009
0096825710999991990081618004-05500-045267FM-12+017499999V0200901N00211220001CN0100001N9+03391+02061101101ADDAA106000091AG10999GF103991031021008001001001MA1999999099141MD1999999-0051REMSYN011333   59005
0115825710999991990081712004-05500-045267FM-12+017499999V0209991C00001004201CN0100001N9+02451+02271101681ADDAA106000091AG10999GF108991081051004501999999KA1240N+01961MA1999999099701MD1999999+0081REMSYN017333   20196 58008
