0143827950999991990010212004-07217-035883FM-12+0560SBKG V0200901N00411045001CN0100001N9+02621+02001101381ADDAA124001091AG10999AY151061AY251061GF107991041061008001021001KA1240N+02521MA1999999095211MD1999999+0041MW1021REMSYN023333   20252 58004 60014
0115827950999991990010712004-07217-035883FM-12+0560SBKG V0201401N00461007501CN0100001N9+02421+01931101291ADDAA106000091AG10999GF106991061041008001001001KA1240N+01961MA1999999095131MD1999999-0041REMSYN017333   20196 59004
0115827950999991990010812004-07217-035883FM-12+0560SBKG V0201401N00261012001CN0100001N9+02411+01911101351ADDAA106000091AG10999GF107991071081008001001001KA1240N+01941MA1999999095191MD1999999+0061REMSYN017333   20194 58006
0096827950999991990010818004-07217-035883FM-12+0560SBKG V0200901N00461007501CN0200001N9+02991+01841100961ADDAA106000091AG10999GF106991061021008001001001MA1999999094851MD1999999+0091REMSYN011333   58009
0115827950999991990010912004-07217-035883FM-12+0560SBKG V0200901N00311220001CN0100001N9+02541+01761101421ADDAA106000091AG10999GF106991041021008001001041KA1240N+01941MA1999999095261MD1999999+0071REMSYN017333   20194 58007
0081827950999991990010918004-07217-035883FM-12+0560SBKG V0201401N00411007501CN0200001N9+03011+01491101051ADDAA106000091AG10999GF107991051021008001001041MD1999999+0091REMSYN011333   58009
0115827950999991990011018004-07217-035883FM-12+0560SBKG V0200901N00511007501CN0100001N9+02481+01851101441ADDAA106000091AG10999GF106991061031008001001001KA1240N+02001MA1999999095261MD1999999+0001REMSYN017333   20200 58000
0115827950999991990011218004-07217-035883FM-12+0560SBKG V0201401N00671220001CN0100001N9+02511+01631101201ADDAA106000091AG10999GF105991031021008001001041KA1240N+02021MA1999999095051MD1999999-0151REMSYN017333   20202 59015
0115827950999991990011412004-07217-035883FM-12+0560SBKG V0200901N00671007501CN0100001N9+02531+01761101351ADDAA106000091AG10999GF105991051021008001001001KA1240N+02001MA1999999095191MD1999999-0021REMSYN017333   20200 59002
0096827950999991990011518004-07217-035883FM-12+0560SBKG V0200901N00411007501CN0100001N9+03111+01711100851ADDAA106000091AG10999GF106991061021008001001001MA1999999094751MD1999999-0031REMSYN011333   59003
0115827950999991990011612004-07217-035883FM-12+0560SBKG V0201401N00461007501CN0100001N9+02541+01831101201ADDAA106000091AG10999GF106991051041008001001011KA1240N+02071MA1999999095051MD1999999-0021REMSYN017333   20207 59002
0096827950999991990011618004-07217-035883FM-12+0560SBKG V0200901N00411007501CN0100001N9+03051+01601100881ADDAA106000091AG10999GF106991051021008001001041MA1999999094701MD1999999+0221REMSYN011333   58022
0096827950999991990011818004-07217-035883FM-12+0560SBKG V0201401N00411007501CN0100001N9+03051+01451100911ADDAA106000091AG10999GF106991051021008001001041MA1999999094801MD1999999+0001REMSYN011333   58000
0115827950999991990012212004-07217-035883FM-12+0560SBKG V0200901N00411012001CN0040001N9+02401+01971101281ADDAA106000091AG10999GF108991081081008001999999KA1240N+02101MA1999999095121MD1999999+0151REMSYN017333   20210 58015
0096827950999991990012218004-07217-035883FM-12+0560SBKG V0200901N00511012001CN0200001N9+02581+02191101001ADDAA106000091AG10999GF108991061081008001081999MA1999999094861MD1999999+0121REMSYN011333   58012
0115827950999991990012312004-07217-035883FM-12+0560SBKG V0201401N00311007501CN0100001N9+02611+02031101241ADDAA106000091AG10999GF106991051041008001001041KA1240N+02141MA1999999095101MD1999999-0021REMSYN017333   20214 59002
0096827950999991990012318004-07217-035883FM-12+0560SBKG V0200901N00461007501CN0200001N9+03161+01711100811ADDAA106000091AG10999GF106991051021008001001011MA1999999094731MD1999999-0131REMSYN011333   59013
0096827950999991990012418004-07217-035883FM-12+0560SBKG V0200901N00511007501CN0200001N9+03191+01711100731ADDAA106000091AG10999GF105991051021008001001001MA1999999094651MD1999999-0081REMSYN011333   59008
0115827950999991990012512004-07217-035883FM-12+0560SBKG V0200901N00511007501CN0100001N9+02551+01881101131ADDAA106000091AG10999GF106991061041008001001001KA1240N+02011MA1999999094991MD1999999+0051REMSYN017333   20201 58005
0115827950999991990012812004-07217-035883FM-12+0560SBKG V0201401N00571045001CN0100001N9+02511+01741101241ADDAA106000091AG10999GF106991031061008001021001KA1240N+02071MA1999999095091MD1999999-0141REMSYN017333   20207 59014
0096827950999991990012818004-07217-035883FM-12+0560SBKG V0201401N00511045001CN0100001N9+02931+01971100881ADDAA106000091AG10999GF105991031021008001061001MA1999999094761MD1999999-0141REMSYN011333   59014
0143827950999991990012912004-07217-035883FM-12+0560SBKG V0201401N00511007501CN0100001N9+02531+01781101071ADDAA124000391AG10999AY151061AY251061GF107991051041008001051001KA1240N+02041MA1999999094931MD1999999-0161MW1021REMSYN023333   20204 59016 69934
0096827950999991990012918004-07217-035883FM-12+0560SBKG V0200901N00571045001CN0200001N9+02881+01731100781ADDAA106000091AG10999GF107991041051008001051001MA1999999094671MD1999999-0031REMSYN011333   59003
0095827950999991990013012004-07217-035883FM-12+0560SBKG V0209999999999007501CN0040001N9+02501+02341999999ADDAA124012091AG10999AY161061AY221061GF108991081021008001999999MW1001REMSYN017333   20/// 60124
0115827950999991990020312004-07217-035883FM-12+0560SBKG V0201401N00511220001CN0040001N9+02541+01881101261ADDAA106000091AG10999GF103991031021008001001001KA1240N+02101MA1999999095111MD1999999+0101REMSYN017333   20210 58010
0134827950999991990020412004-07217-035883FM-12+0560SBKG V0200101N00311220001CN0200001N9+02531+01761101331ADDAA106000091AG10999GF104991999021008001001001KA1240N+02001MA1999999095171MD1999999+0061REMSYN017333   20200 58006EQDQ01+000032SCOTLC
0115827950999991990020518004-07217-035883FM-12+0560SBKG V0201401N00151007501CN0100001N9+02511+01911101391ADDAA106000091AG10999GF106991051041008001011001KA1240N+02021MA1999999095231MD1999999+0061REMSYN017333   20202 58006
0081827950999991990020718004-07217-035883FM-12+0560SBKG V0201401N00211045001CN0200001N9+03001+01681101041ADDAA106000091AG10999GF105991031021008001021001MD1999999+0071REMSYN011333   58007
0115827950999991990020812004-07217-035883FM-12+0560SBKG V0200501N00361007501CN0500001N9+99999+99999101131ADDAA106000091AG10999GF108991081041008001999999KA1240N+02171MA1999999098321MD1999999-0051REMSYN017333   20217 59005
0115827950999991990020818004-07217-035883FM-12+0560SBKG V0200901N00211007501CN0200001N9+03121+01891100891ADDAA106000091AG10999GF107991061041008001081001MA1999999094812MD1999999-0031REMSYN011333   59003EQDQ01+094813APOSP 
0143827950999991990020912004-07217-035883FM-12+0560SBKG V0200901N00311012001CN0100001N9+02471+02071101311ADDAA124004091AG10999AY161061AY251061GF107991051081008001031001KA1240N+02201MA1999999095151MD1999999+0001MW1021REMSYN023333   20220 58000 60044
0096827950999991990020918004-07217-035883FM-12+0560SBKG V0200901N00411045001CN0100001N9+02261+01881101091ADDAA106000091AG10999GF108991041051008001051999MA1999999094941MD1999999+0081REMSYN011333   58008
0115827950999991990021000004-07217-035883FM-12+0560SBKG V0201401N00361045001CN0020001N9+02481+01881101211ADDAA106000091AG10999GF106991031051008001051001KA1240M+02721MA1999999095051MD1999999-0061REMSYN017333   10272 59006
0115827950999991990021012004-07217-035883FM-12+0560SBKG V0200901N00411045001CN0200001N9+02481+02031101211ADDAA106000091AG10999GF106991041051008001071001KA1240N+02121MA1999999095051MD1999999-0101REMSYN017333   20212 59010
0081827950999991990021018004-07217-035883FM-12+0560SBKG V0201401N00771045001CN0200001N9+02511+01921100741ADDAA106000091AG10999GF108991031031008001041001MD1999999+0311REMSYN011333   58031
0096827950999991990021118004-07217-035883FM-12+0560SBKG V0201401N00361045001CN0100001N9+02821+01981100821ADDAA106000091AG10999GF105991021041008001081001MA1999999098711MD1999999+0091REMSYN011333   58009
0096827950999991990021218004-07217-035883FM-12+0560SBKG V0200901N00361007501CN0200001N9+03011+01711100881ADDAA106000091AG10999GF106991061021008001001001MA1999999094781MD1999999-0071REMSYN011333   59007
0096827950999991990021318004-07217-035883FM-12+0560SBKG V0200901N00721007501CN0200001N9+02891+01731100961ADDAA106000091AG10999GF106991061041008001001001MA1999999094841MD1999999+0061REMSYN011333   58006
0115827950999991990021400004-07217-035883FM-12+0560SBKG V0201401N00511220001CN0020001N9+02251+01991101171ADDAA106000091AG10999GF102991021011008001001001KA1240M+03031MA1999999095021MD1999999+0111REMSYN017333   10303 58011
0096827950999991990021418004-07217-035883FM-12+0560SBKG V0200501N00411220001CN0100001N9+02981+01551100871ADDAA106000091AG10999GF107991041011008001001041MA1999999094771MD1999999+0071REMSYN011333   58007
0115827950999991990021512004-07217-035883FM-12+0560SBKG V0200501N00311045001CN0040001N9+02491+02031101351ADDAA106000091AG10999GF108991041021008001081999KA1240N+02051MA1999999095191MD1999999+0071REMSYN017333   20205 58007
0115827950999991990021712004-07217-035883FM-12+0560SBKG V0201801N00261045001CN0100001N9+99999+99999101341ADDAA106000091AG10999GF107991031081008001081001KA1240N+02201MA1999999095191MD1999999+0061REMSYN017333   20220 58006
0096827950999991990021718004-07217-035883FM-12+0560SBKG V0200501N00261045001CN0100001N9+03141+01581100931ADDAA106000091AG10999GF106991031021008001051001MA1999999094841MD1999999+0061REMSYN011333   58006
0115827950999991990021912004-07217-035883FM-12+0560SBKG V0200901N00511045001CN0100001N9+02481+01831101431ADDAA106000091AG10999GF106991041021008001031001KA1240N+02071MA1999999095271MD1999999+0031REMSYN017333   20207 58003
0096827950999991990021918004-07217-035883FM-12+0560SBKG V0200901N00261045001CN0100001N9+03171+01571101001ADDAA106000091AG10999GF107991041051008001051001MA1999999094901MD1999999+0101REMSYN011333   58010
0115827950999991990022012004-07217-035883FM-12+0560SBKG V0200901N00211045001CN0100001N9+02511+02001101461ADDAA106000091AG10999GF108991041081008001081999KA1240N+02221MA1999999095301MD1999999+0031REMSYN017333   20222 58003
0115827950999991990022018004-07217-035883FM-12+0560SBKG V0200901N00261220001CN0200001N9+03211+01631100901ADDAA106000091AG10999GF105991031021008001001041MA1999999098902MD1999999-0011REMSYN011333   59001EQDQ01+098903APOSP 
0115827950999991990022112004-07217-035883FM-12+0560SBKG V0201401N00311220001CN0100001N9+02521+01931101401ADDAA106000091AG10999GF104991041021008001001001KA1240N+02161MA1999999095241MD1999999+0051REMSYN017333   20216 58005
0115827950999991990022212004-07217-035883FM-12+0560SBKG V0201801N00261007501CN0100001N9+02451+01861101381ADDAA106000091AG10999GF107991061051008001031001KA1240N+02111MA1999999095221MD1999999-0031REMSYN017333   20211 59003
0096827950999991990022418004-07217-035883FM-12+0560SBKG V0201401N00261220001CN0100001N9+03041+02001100791ADDAA106000091AG10999GF104991041021008001001001MA1999999094691MD1999999+0061REMSYN011333   58006
0115827950999991990022512004-07217-035883FM-12+0560SBKG V0200501N00211220001CN0100001N9+02601+01921101261ADDAA106000091AG10999GF106991031021008001001011KA1240N+02141MA1999999095121MD1999999+0081REMSYN017333   20214 58008
0124827950999991990022518004-07217-035883FM-12+0560SBKG V0200501N00461004201CN0020001N9+02291+02161100911ADDAA106021091AG10999AY101061AY201061GF108991081071004501999999MA1999999094751MD1999999+0061MW1631REMSYN017333   58006 60211
0118827950999991990022618004-07217-035883FM-12+0560SBKG V0200901N00411012001CN0040001N9+02491+02071100851ADDAA106000091AG10999AY101061AY201061GF108991081081008001999999MA1999999094721MD1999999+0031MW1171REMSYN011333   58003
0096827950999991990022718004-07217-035883FM-12+0560SBKG V0200901N00461045001CN0100001N9+02771+02091100881ADDAA106000091AG10999GF107991041021008001081001MA1999999094751MD1999999+0061REMSYN011333   58006
0096827950999991990022818004-07217-035883FM-12+0560SBKG V0200901N00461007501CN0100001N9+02691+01881101001ADDAA106000091AG10999GF106991051041008001031001MA1999999094861MD1999999+0101REMSYN011333   58010
0096827950999991990030118004-07217-035883FM-12+0560SBKG V0200901N00411007501CN0100001N9+99999+99999101221ADDAA106000091AG10999GF108991081051008001999999MA1999999095101MD1999999+0241REMSYN011333   58024
0096827950999991990030318004-07217-035883FM-12+0560SBKG V0200901N00261220001CN0040001N9+03031+01841100371ADDAA106000091AG10999GF106991041021008001001041MA1999999094301MD1999999-0041REMSYN011333   59004
0154827950999991990030412004-07217-035883FM-12+0560SBKG V0200901N00411007501CN0100001N9+02401+01911101461ADDAA124001091AG10999AY151061GF106991061041008001001001KA1240N+02121MA1999999095291MD1999999-0041MW1021REMSYN023333   20212 59004 60014EQDQ01+000072PSTWM2
0115827950999991990030418004-07217-035883FM-12+0560SBKG V0200901N002619999999N0100001N9+03041+01491101001ADDAA106000091AG10999GF106991999041008001001001MA1999999094891MD1999999-0111REMSYN011333   59011EQDQ01+000042SCOTLC
0096827950999991990030518004-07217-035883FM-12+0560SBKG V0200901N00511105001CN0100001N9+02981+01691100971ADDAA106000091AG10999GF105991041021008001001031MA1999999094861MD1999999-0031REMSYN011333   59003
0115827950999991990030612004-07217-035883FM-12+0560SBKG V0201401N00461007501CN0100001N9+02521+01931101461ADDAA106000091AG10999GF106991061041008001001001KA1240N+02101MA1999999095301MD1999999+0071REMSYN017333   20210 58007
0096827950999991990030618004-07217-035883FM-12+0560SBKG V0200901N00511220001CN0200001N9+02931+01761102101ADDAA106000091AG10999GF105991041021008001001011MA1999999094981MD1999999+0121REMSYN011333   58012
0096827950999991990030718004-07217-035883FM-12+0560SBKG V0201401N00571220001CN0100001N9+02961+01641101121ADDAA106000091AG10999GF105991041021008001001011MA1999999094991MD1999999+0011REMSYN011333   58001
0134827950999991990030812004-07217-035883FM-12+0560SBKG V0201401N00511007501CN0200001N9+02381+01891101471ADDAA106000091AG10999GF108991999031008001011011KA1240N+02041MA1999999095291MD1999999+0041REMSYN017333   20204 58004EQDQ01+000082SCOTLC
0115827950999991990030912004-07217-035883FM-12+0560SBKG V0200901N00311045001CN0100001N9+02361+01891101641ADDAA106000091AG10999GF107991041081008001031001KA1240N+02061MA1999999095451MD1999999+0161REMSYN017333   20206 58016
0096827950999991990030918004-07217-035883FM-12+0560SBKG V0201401N00411045001CN0100001N9+02921+01571101241ADDAA106000091AG10999GF107991041021008001051001MA1999999095101MD1999999+0051REMSYN011333   58005
0115827950999991990031012004-07217-035883FM-12+0560SBKG V0201401N00151220001CN0040001N9+02521+01861101601ADDAA106000091AG10999GF103991031011008001001001KA1240N+02071MA1999999095431MD1999999-0021REMSYN017333   20207 59002
0115827950999991990031112004-07217-035883FM-12+0560SBKG V0200901N00311007501CN0200001N9+02531+02021101531ADDAA106000091AG10999GF106991061041008001001001KA1240N+02141MA1999999095361MD1999999-0071REMSYN017333   20214 59007
0096827950999991990031218004-07217-035883FM-12+0560SBKG V0201401N00411007501CN0100001N9+03081+01361101141ADDAA106000091AG10999GF106991061021008001001001MA1999999095061MD1999999-0031REMSYN011333   59003
0115827950999991990031312004-07217-035883FM-12+0560SBKG V0200501N00721007501CN0100001N9+02491+01961101291ADDAA106000091AG10999GF106991061021008001001001KA1240N+02031MA1999999095141MD1999999-0201REMSYN017333   20203 59020
0115827950999991990031412004-07217-035883FM-12+0560SBKG V0200901N00461007501CN0100001N9+02561+01881101231ADDAA106000091AG10999GF106991061021008001001001KA1240N+02021MA1999999095091MD1999999-0051REMSYN017333   20202 59005
0115827950999991990031512004-07217-035883FM-12+0560SBKG V0200501N00571007501CN0100001N9+02601+02011101251ADDAA106000091AG10999GF106991061021008001001001KA1240N+02201MA1999999095121MD1999999+0031REMSYN017333   20220 58003
0096827950999991990031518004-07217-035883FM-12+0560SBKG V0200901N00511007501CN0100001N9+03101+01461100841ADDAA106000091AG10999GF106991061021008001001001MA1999999094751MD1999999-0011REMSYN011333   59001
0096827950999991990031618004-07217-035883FM-12+0560SBKG V0200901N00511220001CN0000001N9+02951+01481100871ADDAA106000091AG10999GF104991041021008001001001MA1999999094081MD1999999+0021REMSYN011333   58002
0096827950999991990031620004-07217-035883FM-12+0560SBKG V0200901N00511220001CN0000001N9+02951+01481100871ADDAA106000091AG10999GF104991041021008001001001MA1999999094081MD1999999+0021REMSYN011333   58002
0115827950999991990031712004-07217-035883FM-12+0560SBKG V0200901N00311007501CN0100001N9+02571+01941101081ADDAA106000091AG10999GF106991061041008001001001KA1240N+02081MA1999999095141MD1999999+0061REMSYN017333   20208 58006
0096827950999991990031718004-07217-035883FM-12+0560SBKG V0200901N00511045001CN0200001N9+03141+01661100981ADDAA106000091AG10999GF106991041021008001031001MA1999999094841MD1999999-0081REMSYN011333   59008
0115827950999991990031812004-07217-035883FM-12+0560SBKG V0200901N00311007501CN0100001N9+02351+01991101401ADDAA106000091AG10999GF106991061041008001001001KA1240N+02181MA1999999096521MD1999999+0111REMSYN017333   20218 58011
0115827950999991990031818004-07217-035883FM-12+0560SBKG V0200901N00511007501CN0100001N9+03011+01681101901ADDAA106000091AG10999GF107991071021008001001001MA1999999094912MD1999999+0051REMSYN011333   58005EQDQ01+094913APOSP 
0115827950999991990031912004-07217-035883FM-12+0560SBKG V0200901N00411007501CN0100001N9+02561+02041101411ADDAA106000091AG10999GF105991051021008001001001KA1240N+02171MA1999999095261MD1999999+0001REMSYN017333   20217 58000
0096827950999991990031918004-07217-035883FM-12+0560SBKG V0200901N00511007501CN0200001N9+03111+01851100961ADDAA106000091AG10999GF106991061021008001001001MA1999999094861MD1999999-0051REMSYN011333   59005
0115827950999991990032012004-07217-035883FM-12+0560SBKG V0201401N00311007501CN0100001N9+02561+02061101181ADDAA106000091AG10999GF106991061021008001001001KA1240N+02201MA1999999095201MD1999999-0021REMSYN017333   20220 59002
0115827950999991990032118004-07217-035883FM-12+0560SBKG V0200501N00311004201CN0100001N9+02571+02271101331ADDAA106000091AG10999GF108991081051004501999999KA1240N+02241MA1999999095211MD1999999+0031REMSYN017333   20224 58003
0115827950999991990032212004-07217-035883FM-12+0560SBKG V0200901N00461045001CN0200001N9+02611+01871101281ADDAA106000091AG10999GF106991041021008001031001KA1240N+02131MA1999999095141MD1999999-0071REMSYN017333   20213 59007
0115827950999991990032312004-07217-035883FM-12+0560SBKG V0200501N00211045001CN0100001N9+02531+01981101251ADDAA106000091AG10999GF106991041021008001031001KA1240N+02061MA1999999095111MD1999999-0031REMSYN017333   20206 59003
0121827950999991990032412004-07217-035883FM-12+0560SBKG V0200501N00051007501CN0040001N9+02531+02011101281ADDAA124001091AG10999GF106991061021008001001001KA1240N+02001MA1999999095131MD1999999-0051REMSYN023333   20200 59005 60014
0096827950999991990032418004-07217-035883FM-12+0560SBKG V0200501N00511007501CN0100001N9+03031+02061100791ADDAA106000091AG10999GF105991051041008001001001MA1999999094701MD1999999-0061REMSYN011333   59006
0115827950999991990032512004-07217-035883FM-12+0560SBKG V0201401N00411007501CN0100001N9+02671+01991100131ADDAA106000091AG10999GF105991051041008001001001KA1240N+02221MA1999999095101MD1999999-0031REMSYN017333   20222 59003
0115827950999991990032518004-07217-035883FM-12+0560SBKG V0201401N00311220001CN0200001N9+03111+01991100921ADDAA106000091AG10999GF102991999021008001001001MA1999999094831MD1999999+0131REMSYN011333   58013EQDQ01+000012SCOTLC
0115827950999991990032612004-07217-035883FM-12+0560SBKG V0201401N00361220001CN0200001N9+02691+01831101271ADDAA106000091AG10999GF106991041021008001001011KA1240N+02131MA1999999095161MD1999999-0061REMSYN017333   20213 59006
0096827950999991990032618004-07217-035883FM-12+0560SBKG V0200901N00511007501CN0200001N9+02181+01571100751ADDAA106000091AG10999GF106991051021008001001011MA1999999094671MD1999999-0161REMSYN011333   59016
0115827950999991990032712004-07217-035883FM-12+0560SBKG V0200901N00311007501CN0200001N9+02611+01921101151ADDAA106000091AG10999GF106991061021008001001001KA1240N+02041MA1999999095011MD1999999-0151REMSYN017333   20204 59015
0115827950999991990032912004-07217-035883FM-12+0560SBKG V0200901N00461220001CN0200001N9+02601+01791101611ADDAA106000091AG10999GF102991021011008001001001KA1240N+02021MA1999999095181MD1999999-0091REMSYN017333   20202 59009
0115827950999991990033012004-07217-035883FM-12+0560SBKG V0200901N00511007501CN0200001N9+02731+01961101181ADDAA106000091AG10999GF106991061021008001001001KA1240N+02221MA1999999095051MD1999999-0131REMSYN017333   20222 59013
0115827950999991990033018004-07217-035883FM-12+0560SBKG V0200901N00311007501CN0200001N9+03131+01451100821ADDAA106000091AG10999GF106991061021008001001001MA1999999098722MD1999999-0081REMSYN011333   59008EQDQ01+098723APOSP 
0115827950999991990033118004-07217-035883FM-12+0560SBKG V0200901N003619999999N0200001N9+02891+01871100921ADDAA106000091AG10999GF106991999021008001001001MA1999999094831MD1999999-0311REMSYN011333   59031EQDQ01+000042SCOTLC
0096827950999991990040218004-07217-035883FM-12+0560SBKG V0200501N00511007501CN0200001N9+03111+01921101031ADDAA106000091AG10999GF106991061031008001001001MA1999999094931MD1999999+0071REMSYN011333   58007
0115827950999991990040300004-07217-035883FM-12+0560SBKG V0201401N00571220001CN0010001N9+02361+02131101331ADDAA106000091AG10999GF104991041041008001001001KA1240M+03181MA1999999095191MD1999999-0011REMSYN017333   10318 59001
0096827950999991990040400004-07217-035883FM-12+0560SBKG V0201401N00511045001CN0040001N9+02321+02161101181ADDAA106000091AG10999GF106991031051008001021001MA1999999095021MD1999999-0151REMSYN011333   59015
0124827950999991990040418004-07217-035883FM-12+0560SBKG V0200901N00311007501CN0100001N9+02441+02071100931ADDAA106005091AG10999AY151061AY251061GF108991051051008001051999MA1999999094791MD1999999+0101MW1211REMSYN017333   58010 60051
0143827950999991990040512004-07217-035883FM-12+0560SBKG V0201401N00411007501CN0200001N9+02591+02311101521ADDAA124005091AG10999AY151061AY251061GF107991051021008001001011KA1240N+02221MA1999999095341MD1999999+0181MW1021REMSYN023333   20222 58018 60054
0096827950999991990040518004-07217-035883FM-12+0560SBKG V0201401N00151007501CN0100001N9+03121+01641101031ADDAA106000091AG10999GF106991051041008001001011MA1999999094941MD1999999+0151REMSYN011333   58015
0115827950999991990040600004-07217-035883FM-12+0560SBKG V0201401N00571007501CN9999999N9+02401+02231101381ADDAA106000091AG10999GF108991061071008001001071KA1240M+03191MA1999999095241MD1999999+0081REMSYN017333   10319 58008
0143827950999991990040700004-07217-035883FM-12+0560SBKG V0200901N00411220001CN9999999N9+02341+02151101341ADDAA106999929AG10999AY131061AY221061GF104991041021008001001001KA1240M+03161MA1999999095191MD1999999+0051MW1001REMSYN023333   10316 58005 69901
0115827950999991990040712004-07217-035883FM-12+0560SBKG V0200901N00311220001CN0200001N9+02631+01951101251ADDAA106000091AG10999GF105991031021008001001011KA1240N+02141MA1999999095121MD1999999-0161REMSYN017333   20214 59016
0062827950999991990040718004-07217-035883FM-12+0560SBKG V0200601N00411007501CN0200001N9+03011+01711100871ADDAA106000091AG10999GF106991051031008001001021MA1999999094771
0162827950999991990040800004-07217-035883FM-12+0560SBKG V0200901N00411004201CN9999999N9+02301+02201101321ADDAA106005091AG10999AY161061AY251061GF106991061071004501001001KA1240M+03171MA1999999099172MD1999999-0021MW1101REMSYN023333   10317 59002 60051EQDQ01+099173APOSP 
0124827950999991990040818004-07217-035883FM-12+0560SBKG V0200901N00571007501CN0040001N9+02791+02011101081ADDAA106000391AG10999AY161061AY221061GF107991051091008001081031MA1999999094951MD1999999-0481MW1501REMSYN017333   59048 69931
0096827950999991990040918004-07217-035883FM-12+0560SBKG V0201401N00151105001CN0100001N9+03041+02031101081ADDAA106000091AG10999GF106991031041008001001021MA1999999094971MD1999999+0021REMSYN011333   58002
0115827950999991990041000004-07217-035883FM-12+0560SBKG V0200901N00461105001CN9999999N9+02361+02051101521ADDAA106000091AG10999GF106991021071004501051061KA1240M+03201MA1999999095271MD1999999+0021REMSYN017333   10320 58002
0115827950999991990041100004-07217-035883FM-12+0560SBKG V0200901N00621220001CN0010001N9+02331+01891101301ADDAA106000091AG10999GF106991001001999999001061KA1240M+03261MA1999999095151MD1999999-0121REMSYN017333   10326 59012
0096827950999991990041118004-07217-035883FM-12+0560SBKG V0201401N00361220001CN0200001N9+03141+01731100851ADDAA106000091AG10999GF101991011011008001001001MA1999999094761MD1999999-0131REMSYN011333   59013
0115827950999991990041212004-07217-035883FM-12+0560SBKG V0201401N00671045001CN0100001N9+02611+01881101271ADDAA106000091AG10999GF106991031051008001021001KA1240N+02201MA1999999095131MD1999999-0071REMSYN017333   20220 59007
0096827950999991990041218004-07217-035883FM-12+0560SBKG V0201401N00571012001CN0200001N9+03071+01551100901ADDAA106000091AG10999GF105991051011012501001001MA1999999094801MD1999999-0041REMSYN011333   59004
0115827950999991990041300004-07217-035883FM-12+0560SBKG V0201401N00411220001CN0010001N9+02331+02051101261ADDAA106000091AG10999GF104991041051008001001001KA1240M+03141MA1999999095121MD1999999+0071REMSYN017333   10314 58007
0115827950999991990041312004-07217-035883FM-12+0560SBKG V0201401N00621007501CN0100001N9+99999+99999101281ADDAA106000091AG10999GF106991061021008001001001KA1240N+02041MA1999999095141MD1999999+0011REMSYN017333   20204 58001
0096827950999991990041318004-07217-035883FM-12+0560SBKG V0201401N00311045001CN0100001N9+02961+01901100961ADDAA106000091AG10999GF106991041051008001021001MA1999999094851MD1999999+0051REMSYN011333   58005
0115827950999991990041400004-07217-035883FM-12+0560SBKG V0201401N00461220001CN9999999N9+02331+01871101341ADDAA106000091AG10999GF100991001001999999001001KA1240M+03021MA1999999095181MD1999999+0121REMSYN017333   10302 58012
0096827950999991990041418004-07217-035883FM-12+0560SBKG V0201401N00311220001CN0200001N9+03101+01501100901ADDAA106000091AG10999GF103991021021008001001011MA1999999094801MD1999999-0051REMSYN011333   59005
0115827950999991990041512004-07217-035883FM-12+0560SBKG V0201401N00211007501CN0100001N9+02551+02041101291ADDAA106000091AG10999GF106991061051008001001001KA1240N+02021MA1999999095141MD1999999-0111REMSYN017333   20202 59011
0096827950999991990041518004-07217-035883FM-12+0560SBKG V0201401N00311045001CN0100001N9+03031+02031100941ADDAA106000091AG10999GF105991021061008001041001MA1999999094841MD1999999+0041REMSYN011333   58004
0096827950999991990041618004-07217-035883FM-12+0560SBKG V0201401N00671045001CN0100001N9+02731+02021100881ADDAA106000091AG10999GF106991031091008001061001MA1999999094761MD1999999-0081REMSYN011333   59008
0143827950999991990041712004-07217-035883FM-12+0560SBKG V0201401N00411220001CN0100001N9+02591+01941101311ADDAA124000191AG10999AY151061AY251061GF104991041021008001001001KA1240N+02111MA1999999095161MD1999999+0031MW1021REMSYN023333   20211 58003 69914
0115827950999991990041800004-07217-035883FM-12+0560SBKG V0200901N00511220001CN0010001N9+99999+99999101151ADDAA106000091AG10999GF102991021021008001001001KA1240M+03241MA1999999095011MD1999999+0051REMSYN017333   10324 58005
0143827950999991990041812004-07217-035883FM-12+0560SBKG V0201401N00211004201CN0040001N9+02251+02051101281ADDAA124002091AG10999AY151061AY251061GF108991051051004501011999KA1240N+02101MA1999999095121MD1999999-0041MW1511REMSYN023333   20210 59004 60024
0124827950999991990041818004-07217-035883FM-12+0560SBKG V0200901N00361009001CN0020001N9+02231+02151100931ADDAA106003091AG10999AY151061AY251061GF108991081081004501999999MA1999999094871MD1999999+0181MW1911REMSYN017333   58018 60031
0130827950999991990041900004-07217-035883FM-12+0560SBKG V0201401N002119999999N9999999N9+02081+02071101371ADDAA106010091AG10999AY151061AY251061GF108991081081999999999999MA1999999095181MD1999999+0171MW1501REMSYN023333   1064/ 58017 60101
0096827950999991990041918004-07217-035883FM-12+0560SBKG V0201401N00151045001CN0040001N9+02501+02071101061ADDAA106000091AG10999GF108991041051008001021001MA1999999094901MD1999999+0031REMSYN011333   58003
0143827950999991990042000004-07217-035883FM-12+0560SBKG V0201401N00151004201CN0005001N9+02241+02121101261ADDAA106002091AG10999AY151061AY221061GF106991061061004501071001KA1240M+02871MA1999999095101MD1999999-0081MW1101REMSYN023333   10287 59008 60021
0096827950999991990042118004-07217-035883FM-12+0560SBKG V0200901N00571220001CN0200001N9+02831+01681100771ADDAA106000091AG10999GF102991021011008001001001MA1999999094651MD1999999-0091REMSYN011333   59009
0134827950999991990042200004-07217-035883FM-12+0560SBKG V0209999999999220001CN0010001N9+02231+02031101071ADDAA106000091AG10999GF100991001001999999001001KA1240M+02901MA1999999095922MD1999999-0071REMSYN017333   10290 59007EQDQ01+095923APOSP 
0115827950999991990042312004-07217-035883FM-12+0560SBKG V0201401N00361007501CN0100001N9+02541+02041101241ADDAA106000091AG10999GF106991061021008001001001KA1240N+02121MA1999999095101MD1999999-0031REMSYN017333   20212 59003
0124827950999991990042318004-07217-035883FM-12+0560SBKG V0201401N00361045001CN0100001N9+02431+02151100951ADDAA106002091AG10999AY151061AY251061GF107991041061008001031001MA1999999094811MD1999999+0091MW1021REMSYN017333   58009 60021
0096827950999991990042418004-07217-035883FM-12+0560SBKG V0200901N00511045001CN0100001N9+02671+02021100131ADDAA106000091AG10999GF108991011051008001021001MA1999999094801MD1999999-0011REMSYN011333   59001
0162827950999991990042500004-07217-035883FM-12+0560SBKG V0201501N00261004201CN0005001N9+02201+02121101182ADDAA106003091AG10999AY161061AY251061GF108991051071004501021999KA1240M+02831MA1999999095021MD1999999-0011MW1511REMSYN023333   10283 59001 60031EQDQ01+101183APOSLP
0102827950999991990042518004-07217-035883FM-12+0560SBKG V0201401N00311045001CN0040001N9+99999+99999090121ADDAA106002091AG10999GF108991041051004501051999MA1999999094781MD1999999-0021REMSYN017333   59002 60021
0162827950999991990042600004-07217-035883FM-12+0560SBKG V0200901N00211105001CN0005001N9+02191+02081101112ADDAA106001091AG10999AY161061AY251061GF107991041071004501001061KA1240M+02571MA1999999094951MD1999999-0071MW1101REMSYN023333   10257 59007 60011EQDQ01+101113APOSLP
0143827950999991990042618004-07217-035883FM-12+0560SBKG V0201801N003619999999N0020001N9+02301+02181101131ADDAA124003091AG10999AY151061AY221061GF108991041061004501999999KA1240N+02121MA1999999094971MD1999999-0021MW1501REMSYN023333   20212 59002 60034
0124827950999991990042718004-07217-035883FM-12+0560SBKG V0200901N003119999999N0040001N9+02411+02281101031ADDAA106004091AG10999AY161061AY251061GF108991081999008001999999MA1999999094891MD1999999-0051MW1201REMSYN017333   59005 60041
0143827950999991990042800004-07217-035883FM-12+0560SBKG V0201401N00311007501CN0040001N9+02151+01931101071ADDAA106011091AG10999AY161061AY261061GF108991081071008001999999KA1240M+02571MA1999999094911MD1999999+0001MW1611REMSYN023333   10257 58000 60111
0096827950999991990042918004-07217-035883FM-12+0560SBKG V0200901N00361105001CN0200001N9+02731+02051100881ADDAA106000091AG10999GF106991041021008001001081MA1999999094751MD1999999+0001REMSYN011333   58000
0095827950999991990043000004-07217-035883FM-12+0560SBKG V0200501N00311220001CN0010001N9+02261+02211101101ADDAA106000091AG10999GF102991001001999999001011KA1240M+02851MA1999999094951REMSYN011333   10285
0124827950999991990043018004-07217-035883FM-12+0560SBKG V0201401N00461007501CN0100001N9+02231+02121100931ADDAA106011091AG10999AY161061AY251061GF108991081071008001999999MA1999999094771MD1999999+0021MW1611REMSYN017333   58002 60111
0123827950999991990050100004-07217-035883FM-12+0560SBKG V0200501N00261002101CN0005001N9+02211+02151100961ADDAA106010091AG10999AY161061AY261061GF108991081071002501999999KA1240M+02681MA1999999094811MW1621REMSYN017333   10268 60101
0096827950999991990050118004-07217-035883FM-12+0560SBKG V0201401N00511045001CN0200001N9+02591+02351100921ADDAA106000091AG10999GF106991031041008001011999MA1999999098791MD1999999+0021REMSYN011333   58002
0096827950999991990050318004-07217-035883FM-12+0560SBKG V0200501N00211220001CN0100001N9+02821+01891100911ADDAA106000091AG10999GF105991041021008001001041MA1999999094781MD1999999+0171REMSYN011333   58017
0115827950999991990050400004-07217-035883FM-12+0560SBKG V0200501N00411220001CN0020001N9+02231+01941101001ADDAA106000091AG10999GF105991001001999999001061KA1240M+02931MA1999999094861MD1999999-0071REMSYN017333   10293 59007
0115827950999991990050412004-07217-035883FM-12+0560SBKG V0201401N00151220001CN0200001N9+02421+01791101141ADDAA106000091AG10999GF102991021011008001001001KA1240N+01861MA1999999094981MD1999999+0011REMSYN017333   20186 58001
0096827950999991990050418004-07217-035883FM-12+0560SBKG V0201401N00311220001CN0100001N9+02771+01851100891ADDAA106000091AG10999GF105991031021008001001011MA1999999094751MD1999999-0031REMSYN011333   59003
0115827950999991990050512004-07217-035883FM-12+0560SBKG V0201401N00261220001CN0200001N9+99999+99999101261ADDAA106000091AG10999GF104991041021008001001001KA1240N+01921MA1999999095171MD1999999+0121REMSYN017333   20192 58012
0096827950999991990050518004-07217-035883FM-12+0560SBKG V0200501N00311220001CN0200001N9+02841+01701100941ADDAA106000091AG10999GF104991041021008001001001MA1999999094811MD1999999+0061REMSYN011333   58006
0080827950999991990050612004-07217-035883FM-12+0560SBKG V0201401N00311220001CN0000001N9+02881+02211999999ADDAA106000091AG10999GF104991041011008001001001KA1240N+02231REMSYN011333   20223
0096827950999991990050618004-07217-035883FM-12+0560SBKG V0201401N00261220001CN0200001N9+02891+01751101071ADDAA106000091AG10999GF103991031021008001001001MA1999999094941MD1999999+0131REMSYN011333   58013
0115827950999991990050700004-07217-035883FM-12+0560SBKG V0200501N00361220001CN9999999N9+02231+02011101371ADDAA106000091AG10999GF100991001001999999001001KA1240M+02941MA1999999095211MD1999999+0111REMSYN017333   10294 58011
0096827950999991990050718004-07217-035883FM-12+0560SBKG V0201401N00361220001CN0100001N9+02891+01621100941ADDAA106000091AG10999GF103991031021008001001001MA1999999094821MD1999999-0121REMSYN011333   59012
0096827950999991990050818004-07217-035883FM-12+0560SBKG V0201401N00211220001CN0200001N9+02901+01591100921ADDAA106000091AG10999GF103991031021008001001001MA1999999094801MD1999999-0021REMSYN011333   59002
0096827950999991990050918004-07217-035883FM-12+0560SBKG V0201401N00511220001CN0200001N9+02821+01611100951ADDAA106000091AG10999GF102991021011008001001001MA1999999094831MD1999999+0031REMSYN011333   58003
0115827950999991990051000004-07217-035883FM-12+0560SBKG V0200501N00261220001CN9999999N9+02221+01991101171ADDAA106000091AG10999GF100991001001999999001001KA1240M+02921MA1999999095021MD1999999-0121REMSYN017333   10292 59012
0115827950999991990051012004-07217-035883FM-12+0560SBKG V0200501N00261007501CN0200001N9+02451+02071101191ADDAA106000091AG10999GF107991071021008001001001KA1240N+02301MA1999999095041MD1999999-0151REMSYN017333   20230 59015
0096827950999991990051018004-07217-035883FM-12+0560SBKG V0201401N00511220001CN0200001N9+02901+01751100861ADDAA106000091AG10999GF103991031021008001001001MA1999999094741MD1999999+0091REMSYN011333   58009
0115827950999991990051100004-07217-035883FM-12+0560SBKG V0200901N00311220001CN0020001N9+02231+02031101291ADDAA106000091AG10999GF100991001001999999001001KA1240M+02951MA1999999095131MD1999999+0111REMSYN017333   10295 58011
0129827950999991990051112004-07217-035883FM-12+0560SBKG V0200901N00571007501CN0100001N9+02411+02091101201ADDAA124999929AG10999AY151061AY251061GF108991051071008001011999KA1240N+02121MA1999999095041MW1021REMSYN023333   20212 50000 69904
0118827950999991990051218004-07217-035883FM-12+0560SBKG V0200901N00311220001CN0200001N9+02831+01891100911ADDAA106000091AG14011AY111061AY201061GF102991021011008001001001MA1999999094781MD1999999+0011MW1051REMSYN011333   58001
0137827950999991990051312004-07217-035883FM-12+0560SBKG V0201401N00261007501CN0100001N9+02511+01961101271ADDAA106000091AG10999AY121061AY281061GF106991061041008001001001KA1240N+02021MA1999999095131MD1999999+0051MW1051REMSYN017333   20202 58005
0118827950999991990051318004-07217-035883FM-12+0560SBKG V0200901N00311220001CN0100001N9+02961+01841100991ADDAA106000091AG10999AY121061AY221061GF106991021011008001001061MA1999999094881MD1999999+0101MW1051REMSYN011333   58010
0115827950999991990051400004-07217-035883FM-12+0560SBKG V0200901N00261220001CN0010001N9+02261+01981101311ADDAA106000091AG10999GF101991001001999999001011KA1240M+02991MA1999999095151MD1999999+0131REMSYN017333   10299 58013
0134827950999991990051412004-07217-035883FM-12+0560SBKG V0201401N00151045001CN0200001N9+02511+01811101231ADDAA106000091AG10999GF106991031041008001061001KA1240N+02011MA1999999999999MD1999999-0041REMSYN017333   20201 59004EQDQ01 098083APOSP 
0115827950999991990051418004-07217-035883FM-12+0560SBKG V0200901N00311045001CN0200001N9+02601+02061101071ADDAA106000091AG10999GF106991041041008001031001MA1999999094932MD1999999+0051REMSYN011333   58005EQDQ01+094933APOSP 
0162827950999991990051500004-07217-035883FM-12+0560SBKG V0200501N003619999999N9999999N9+02261+02141101381ADDAA106999929AG10999AY151061AY221061GF108991081071999999999999KA1240M+02751MA1999999095221MD1999999+0071MW1201REMSYN023333   10275 58007 69901EQDQ01+000992SCOLCB
0143827950999991990051512004-07217-035883FM-12+0560SBKG V0200901N00461007501CN0200001N9+02371+02171101371ADDAA124007091AG10999AY161061AY251061GF107991071061008001001001KA1240N+02121MA1999999095201MD1999999+0121MW1021REMSYN023333   20212 58012 60074
0096827950999991990051518004-07217-035883FM-12+0560SBKG V0200901N00411007501CN0200001N9+02731+02211101341ADDAA106000091AG10999GF106991061031008001001091MA1999999095001MD1999999+0001REMSYN011333   58000
0126827950999991990051600004-07217-035883FM-12+0560SBKG V0200901N00261004201CN0010001N9+02241+02141101441ADDAG19043AY161061AY251061GF107991071051004501001001KA1240M+02811MA1999999095261MD1999999+0041MW1211REMSYN017333   10281 58004
0143827950999991990051612004-07217-035883FM-12+0560SBKG V0200901N00511007501CN0200001N9+02451+01991101561ADDAA124000591AG10999AY121061AY221061GF106991061021008001001001KA1240N+02121MA1999999095381MD1999999+0181MW1021REMSYN023333   20212 58018 69954
0096827950999991990051618004-07217-035883FM-12+0560SBKG V0201401N00461220001CN0200001N9+02811+01611101181ADDAA106000091AG10999GF101991011011008001001001MA1999999095051MD1999999-0051REMSYN011333   59005
0115827950999991990051700004-07217-035883FM-12+0560SBKG V0201401N00151220001CN9999999N9+02131+01901101341ADDAA106000091AG10999GF100991001001999999001001KA1240M+02871MA1999999095191MD1999999-0091REMSYN017333   10287 59009
0115827950999991990051712004-07217-035883FM-12+0560SBKG V0201401N00361220001CN0200001N9+02511+01931101551ADDAA106000091AG10999GF102991021021008001001001KA1240N+02021MA1999999095371MD1999999-0011REMSYN017333   20202 59001
0124827950999991990051718004-07217-035883FM-12+0560SBKG V0200901N00261007501CN0100001N9+02261+01121101251ADDAA106002091AG10999AY151061AY251061GF108991081051008001999999MA1999999095071MD1999999+0021MW1021REMSYN017333   58002 60021
0143827950999991990051800004-07217-035883FM-12+0560SBKG V0201401N00151220001CN0010001N9+02161+02011101401ADDAA106999929AG10999AY151061AY211061GF100991001001999999001001KA1240M+02741MA1999999095241MD1999999+0051MW1101REMSYN023333   10274 58005 69901
0118827950999991990051918004-07217-035883FM-12+0560SBKG V0200501N00411045001CN0100001N9+02661+02091101151ADDAA106000091AG10999AY121061AY221061GF106991041031008001041011MA1999999095011MD1999999+0021MW1051REMSYN011333   58002
0115827950999991990052000004-07217-035883FM-12+0560SBKG V0200501N00411004201CN0010001N9+02241+02121101461ADDAA106000091AG10999GF107991071071004501001001KA1240M+02831MA1999999095301MD1999999+0141REMSYN017333   10283 58014
0143827950999991990052012004-07217-035883FM-12+0560SBKG V0200501N00461004201CN0040001N9+02481+02111101611ADDAA124999929AG19041AY121061AY221061GF107991051031004501001021KA1240N+02171MA1999999095431MD1999999+0081MW1521REMSYN023333   20217 58008 69904
0104827950999991990052018004-07217-035883FM-12+0560SBKG V0200901N00571220001CN0100001N9+02821+01651101231ADDAA106000091AG10999AY121061AY211061GF104991031021008001001081MA1999999095101MW1051REMSYN011333   5800/
0096827950999991990052218004-07217-035883FM-12+0560SBKG V0201401N00511220001CN0200001N9+02751+01661101151ADDAA106000091AG10999GF104991041021008001001001MA1999999095011MD1999999-0151REMSYN011333   59015
0115827950999991990052400004-07217-035883FM-12+0560SBKG V0209999999999220001CN9999999N9+02141+01781101701ADDAA106000091AG10999GF100991001001999999001001KA1240M+02831MA1999999095511MD1999999+0181REMSYN017333   10283 58018
0124827950999991990052518004-07217-035883FM-12+0560SBKG V0200501N00101045001CN0100001N9+02341+99999101501ADDAA106004091AG10999AY161061AY261061GF105991031051008001031001MA1999999095301MD1999999+0061MW1021REMSYN017333   58006 60041
0123827950999991990052600004-07217-035883FM-12+0560SBKG V0203001N00151007501CN0200001N9+02121+01951101671ADDAA106002091AG10999AY111061AY251061GF108991081071008001001001KA1240M+02681MA1999999095471MW1651REMSYN017333   10268 60021
0143827950999991990052618004-07217-035883FM-12+0560SBKG V0201401N003119999999N0100001N9+02521+02021101361ADDAA106000191AG10999AY151061AY251061GF106991999041008001001001MA1999999095191MD1999999-0151MW1021REMSYN017333   59015 69911EQDQ01+000032SCOTLC
0096827950999991990052718004-07217-035883FM-12+0560SBKG V0201401N00261045001CN0100001N9+02541+02021101421ADDAA106000091AG10999GF106991041041008001061001MA1999999095251MD1999999+0011REMSYN011333   58001
0143827950999991990052812004-07217-035883FM-12+0560SBKG V0201801N00211045001CN0200001N9+02241+01991101661ADDAA124001091AG10999AY161061AY261061GF108991041081008001051999KA1240N+02011MA1999999095451MD1999999-0031MW1021REMSYN023333   20201 59003 60014
0096827950999991990052818004-07217-035883FM-12+0560SBKG V0201401N00361045001CN0200001N9+02611+02051101321ADDAA106000091AG10999GF106991021081008001041001MA1999999095151MD1999999-0101REMSYN011333   59010
0162827950999991990052900004-07217-035883FM-12+0560SBKG V0201401N00101012001CN0200001N9+02071+01911101611ADDAA106007091AG10999AY161061AY261061GF108991081081008001999999KA1240M+02691MA1999999099402MD1999999-0021MW1021REMSYN023333   10269 59002 60071EQDQ01+099403APOSP 
0143827950999991990052918004-07217-035883FM-12+0560SBKG V0201401N003119999999N0040001N9+02191+01991101471ADDAA106014091AG10999AY161061AY261061GF107991999071008001041071MA1999999095271MD1999999+0121MW1021REMSYN017333   58012 60141EQDQ01+000082SCOTLC
0143827950999991990053012004-07217-035883FM-12+0560SBKG V0200901N00411007501CN0200001N9+02221+02101101631ADDAA124014091AG10999AY111061AY201061GF107991051051008001011999KA1240N+02011MA1999999095441MD1999999-0041MW1021REMSYN023333   20201 59004 60144
0115827950999991990053100004-07217-035883FM-12+0560SBKG V0201401N00311220001CN0010001N9+99999+99999101571ADDAA106000091AG10999GF103991031011008001001001KA1240M+02421MA1999999095371MD1999999-0061REMSYN017333   10242 59006
0115827950999991990053118004-07217-035883FM-12+0560SBKG V0201401N00151220001CN0200001N9+02421+01951101981ADDAA106000091AG10999GF104991999041008001001001MA1999999095291MD1999999+0021REMSYN011333   58002EQDQ01+000032SCOTLC
0112827950999991990060100004-07217-035883FM-12+0560SBKG V0201401N00261220001CN0010001N9+02041+01821101591ADDAG10999AY151061AY201061GF100991001001999999001001KA1240M+02571MA1999999095391MW1011REMSYN017333   10257 8002/
0096827950999991990060118004-07217-035883FM-12+0560SBKG V0201401N00361045001CN0100001N9+02511+02021101271ADDAA106000091AG10999GF108991031041008001051001MA1999999095111MD1999999-0181REMSYN011333   59018
0143827950999991990060300004-07217-035883FM-12+0560SBKG V0201401N00261004201CN0005001N9+02121+02091101551ADDAA106001091AG10999AY161061AY251061GF108991081071004501999999KA1240M+02521MA1999999095351MD1999999-0021MW1501REMSYN023333   10252 59002 60011
0124827950999991990060318004-07217-035883FM-12+0560SBKG V0201401N00311007501CN0200001N9+02211+02121101451ADDAA106004091AG10999AY151061AY251061GF108991071071008001081001MA1999999099261MD1999999+0111MW1501REMSYN017333   58011 60041
0162827950999991990060400004-07217-035883FM-12+0560SBKG V0201801N00211045001CN0005001N9+02021+01921101541ADDAA106000191AG10999AY101061AY251061GF107991041071004501021001KA1240M+02251MA1999999095342MD1999999-0011MW1601REMSYN023333   10225 59001 69911EQDQ01+095343APOSP 
0143827950999991990060418004-07217-035883FM-12+0560SBKG V0201401N00361007501CN0040001N9+02251+02011101201ADDAA124009091AG10999AY101061AY221061GF107991071061008001081001KA1240N+01971MA1999999095401MD1999999-0041MW1551REMSYN023333   20197 59004 60094
0143827950999991990060500004-07217-035883FM-12+0560SBKG V0201401N00151004201CN0005001N9+02101+02021101581ADDAA106002091AG10999AY151061AY221061GF108991081071004501999999KA1240M+02571MA1999999095381MD1999999+0041MW1101REMSYN023333   10257 58004 60021
0143827950999991990060512004-07217-035883FM-12+0560SBKG V0201401N00211045001CN0020001N9+02071+02051101641ADDAA124005091AG10999AY161061AY251061GF108991041071004501021999KA1240N+01961MA1999999095421MD1999999+0021MW1611REMSYN023333   20196 58002 60054
0143827950999991990060518004-07217-035883FM-12+0560SBKG V0201401N00311045001CN0100001N9+02291+02051101421ADDAA106001091AG10999AY151061AY251061GF106991041041008001031001MA1999999100522MD1999999+0091MW1021REMSYN017333   58009 60011EQDQ01+100523APOSP 
0124827950999991990060618004-07217-035883FM-12+0560SBKG V0201401N00311012001CN0040001N9+02211+02031101441ADDAA106004091AG10999AY151061AY251061GF108991081081008001999999MA1999999095241MD1999999+0001MW1511REMSYN017333   58000 60041
0096827950999991990060718004-07217-035883FM-12+0560SBKG V0201401N00361007501CN0100001N9+02421+01971101431ADDAA106000091AG10999GF105991051041008001031001MA1999999095251MD1999999+0011REMSYN011333   58001
0096827950999991990060818004-07217-035883FM-12+0560SBKG V0201401N00411045001CN0100001N9+02451+02091101421ADDAA106000091AG10999GF106991031041008001061001MA1999999095241MD1999999+0931REMSYN011333   58093
0124827950999991990060918004-07217-035883FM-12+0560SBKG V0200901N00211045001CN0040001N9+02221+02071101321ADDAA106004091AG10999AY161061AY251061GF107991041071004501071001MA1999999095131MD1999999-0111MW1201REMSYN017333   59011 60041
0143827950999991990061012004-07217-035883FM-12+0560SBKG V0201801N00261007501CN0100001N9+02291+01961101641ADDAA124011091AG10999AY121061AY211061GF105991051021008001001001KA1240N+01891MA1999999095441MD1999999+0001MW1021REMSYN023333   20189 58000 60114
0118827950999991990061018004-07217-035883FM-12+0560SBKG V0201401N00311220001CN0100001N9+02501+01641101281ADDAA106000091AG10999AY121061AY221061GF104991041041008001001001MA1999999095111MD1999999-0021MW1051REMSYN011333   59002
0115827950999991990061112004-07217-035883FM-12+0560SBKG V0201401N00211007501CN0200001N9+02251+01941101601ADDAA106000091AG10999GF106991061011008001001001KA1240N+01741MA1999999095401MD1999999-0041REMSYN017333   20174 59004
0115827950999991990061200004-07217-035883FM-12+0560SBKG V0200901N00311007501CN0010001N9+02191+01971101601ADDAA106000091AG10999GF107991051051008001071001KA1240M+02611MA1999999095401MD1999999+0041REMSYN017333   10261 58004
0115827950999991990061212004-07217-035883FM-12+0560SBKG V0209999999999105001CN0200001N9+02211+01861101711ADDAA106000091AG10999GF106991041061008001001021KA1240N+01821MA1999999095511MD1999999+0111REMSYN017333   20182 58011
0096827950999991990061218004-07217-035883FM-12+0560SBKG V0201401N00621220001CN0200001N9+02591+02061101391ADDAA106000091AG10999GF104991041021008001001001MA1999999095211MD1999999+0011REMSYN011333   58001
0137827950999991990061300004-07217-035883FM-12+0560SBKG V0209999999999220001CN0010001N9+02111+01931101671ADDAA106000091AG10999AY111061AY201061GF100991001001999999001001KA1240M+02691MA1999999095461MD1999999+0061MW1101REMSYN017333   10269 58006
0115827950999991990061312004-07217-035883FM-12+0560SBKG V0200901N00621220001CN0200001N9+02321+01911101681ADDAA106000091AG10999GF104991021021008001001051KA1240N+01971MA1999999095481MD1999999-0031REMSYN017333   20197 59003
0096827950999991990061318004-07217-035883FM-12+0560SBKG V0201401N00671220001CN0200001N9+02531+01951101171ADDAA106000091AG10999GF103991031011008001001001MA1999999095191MD1999999-0081REMSYN011333   59008
0115827950999991990061400004-07217-035883FM-12+0560SBKG V0200901N00261220001CN0010001N9+02071+01891101551ADDAA106000091AG10999GF100991001001999999001001KA1240M+02621MA1999999095351MD1999999-0111REMSYN017333   10262 59011
0143827950999991990061412004-07217-035883FM-12+0560SBKG V0201401N00261045001CN0040001N9+02201+01971101631ADDAA124001091AG10999AY151061AY221061GF108991031071004501021999KA1240N+01921MA1999999095431MD1999999-0051MW1101REMSYN023333   20192 59005 60014
0102827950999991990061418004-07217-035883FM-12+0560SBKG V0200501N00411045001CN0100001N9+02481+02011101381ADDAA106001091AG10999GF106991041041008001051001MA1999999095281MD1999999+0011REMSYN017333   58001 60011
0115827950999991990061500004-07217-035883FM-12+0560SBKG V0200901N00311045001CN0010001N9+02081+01951101531ADDAA106000091AG10999GF106991031071008001081001KA1240M+02521MA1999999095331MD1999999-0021REMSYN017333   10252 59002
0154827950999991990061512004-07217-035883FM-12+0560SBKG V0201401N00411007501CN0010001N9+02341+01891101621ADDAA106000091AA224001091AG10999AY121061AY221061GF106991061021008001001001KA1240N+01911MA1999999095421MD1999999-0011MW1021REMSYN023333   20191 59001 60014
0096827950999991990061518004-07217-035883FM-12+0560SBKG V0201401N00571007501CN0100001N9+02531+01861101451ADDAA106000091AG10999GF105991051021008001001001MA1999999095261MD1999999+0061REMSYN011333   58006
0115827950999991990061600004-07217-035883FM-12+0560SBKG V0200901N00261220001CN9999999N9+02101+01861101631ADDAA106000091AG10999GF102991021041999999001001KA1240M+02631MA1999999095431MD1999999+0101REMSYN017333   10263 58010
0115827950999991990061612004-07217-035883FM-12+0560SBKG V0201401N00311007501CN0100001N9+02641+02181101721ADDAA106000091AG10999GF105991051021008001001001KA1240N+01811MA1999999095541MD1999999+0121REMSYN017333   20181 58012
0096827950999991990061618004-07217-035883FM-12+0560SBKG V0201401N00311220001CN0200001N9+02551+01881101571ADDAA106000091AG10999GF102991021011008001001001MA1999999095341MD1999999+0081REMSYN011333   58008
0115827950999991990061712004-07217-035883FM-12+0560SBKG V0201401N00511007501CN0040001N9+02221+01861101851ADDAA106000091AG10999GF106991061041008001001001KA1240N+02011MA1999999095641MD1999999+0101REMSYN017333   20201 58010
0096827950999991990061718004-07217-035883FM-12+0560SBKG V0201401N00311045001CN0200001N9+02471+02111101521ADDAA106000091AG10999GF106991031061008001041001MA1999999096341MD1999999+0001REMSYN011333   58000
0096827950999991990061818004-07217-035883FM-12+0560SBKG V0201401N00571045001CN0100001N9+02431+01951101501ADDAA106000091AG10999GF106991041051008001061001MA1999999095301MD1999999-0041REMSYN011333   59004
0096827950999991990061918004-07217-035883FM-12+0560SBKG V0201401N00361220001CN0100001N9+02551+01781101581ADDAA106000091AG10999GF104991041011008001001001MA1999999095401MD1999999+0101REMSYN011333   58010
0115827950999991990062000004-07217-035883FM-12+0560SBKG V0200901N00361220001CN9999999N9+02041+01831101831ADDAA106000091AG10999GF100991001001999999001001KA1240M+03631MA1999999095611MD1999999+0111REMSYN017333   10363 58011
0137827950999991990062012004-07217-035883FM-12+0560SBKG V0201401N00511007501CN0100001N9+02231+01941101941ADDAA106000091AG10999AY121061AY221061GF106991061061008001001001KA1240N+01901MA1999999095711MD1999999+0031MW1101REMSYN017333   20190 58003
0096827950999991990062018004-07217-035883FM-12+0560SBKG V0201401N00411220001CN0200001N9+02521+02001101831ADDAA106000091AG10999GF102991021011008001001001MA1999999095621MD1999999+0121REMSYN011333   58012
0115827950999991990062100004-07217-035883FM-12+0560SBKG V0200901N00211220001CN0020001N9+02101+01881101821ADDAA106000091AG10999GF100991001001999999001001KA1240M+02641MA1999999095601MD1999999-0011REMSYN017333   10264 59001
0115827950999991990062112004-07217-035883FM-12+0560SBKG V0201401N00261007501CN0200001N9+02241+01861101851ADDAA106000091AG10999GF107991071021008001001001KA1240N+01841MA1999999095641MD1999999-0071REMSYN017333   20184 59007
0137827950999991990062300004-07217-035883FM-12+0560SBKG V0200901N00361004201CN0010001N9+02141+02001101501ADDAA106000091AG19021AY121061AY211061GF107991071061004501001001KA1240M+02741MA1999999095321MD1999999-0131MW1101REMSYN017333   10274 59013
0096827950999991990062318004-07217-035883FM-12+0560SBKG V0201401N00361220001CN0200001N9+02791+01811101131ADDAA106000091AG10999GF104991041021008001001001MA1999999094991MD1999999-0821REMSYN011333   59082
0137827950999991990062400004-07217-035883FM-12+0560SBKG V0200901N00461220001CN0005001N9+02201+01991101421ADDAA106000091AG10999AY111061AY211061GF103991021071004501081001KA1240M+02841MA1999999095241MD1999999-0081MW1041REMSYN017333   10284 59008
0137827950999991990062412004-07217-035883FM-12+0560SBKG V0201401N00311007501CN0100001N9+02261+01861101551ADDAA106000091AG10999AY121061AY221061GF107991071051008001001001KA1240N+02201MA1999999095361MD1999999-0051MW1051REMSYN017333   20220 59005
0096827950999991990062418004-07217-035883FM-12+0560SBKG V0201401N00311220001CN0200001N9+02721+01651101171ADDAA106000091AG10999GF104991031021008001001011MA1999999095031MD1999999+0041REMSYN011333   58004
0115827950999991990062500004-07217-035883FM-12+0560SBKG V0200901N00261220001CN0010001N9+02161+01701101481ADDAA106000091AG10999GF100991001001999999001001KA1240M+02781MA1999999095291MD1999999+0051REMSYN017333   10278 58005
0143827950999991990062512004-07217-035883FM-12+0560SBKG V0200901N00461007501CN0020001N9+02181+02061101591ADDAA124002091AG10999AY161061AY251061GF108991051051008001011999KA1240N+02001MA1999999095391MD1999999+0031MW1501REMSYN023333   20200 58003 60024
0124827950999991990062518004-07217-035883FM-12+0560SBKG V0201401N00461105001CN0100001N9+02451+02011101471ADDAA106003091AG10999AY161061AY261061GF105991021021008001041071MA1999999095221MD1999999-0141MW1021REMSYN017333   59014 60031
0154827950999991990062600004-07217-035883FM-12+0560SBKG V0200901N00411004201CN0005001N9+02121+02051101571ADDAA106000691AA299000591AG10999AY151061AY221061GF108991081071004501999999KA1240M+02521MA1999999095371MD1999999+0061MW1101REMSYN023333   10252 58006 69961
0143827950999991990062712004-07217-035883FM-12+0560SBKG V0200901N00411045001CN0100001N9+02261+01921101611ADDAA124012091AG10999AY121061AY221061GF107991021021008001021001KA1240N+01901MA1999999095411MD1999999-0051MW1101REMSYN023333   20190 59005 60124
0096827950999991990062718004-07217-035883FM-12+0560SBKG V0201401N00411220001CN0200001N9+02551+01751101411ADDAA106000091AG10999GF103991031011008001001001MA1999999095231MD1999999-0081REMSYN011333   59008
0115827950999991990062800004-07217-035883FM-12+0560SBKG V0200901N00211220001CN0010001N9+02601+01821101451ADDAA106000091AG10999GF102991011021008001001021KA1240M+02621MA1999999095251MD1999999-0101REMSYN017333   10262 59010
0154827950999991990062812004-07217-035883FM-12+0560SBKG V0201401N00261007501CN0100001N9+02161+99999101561ADDAA124000691AA299000591AG10999AY161061AY251061GF108991051051008001011999KA1240N+01921MA1999999095351MD1999999-0061MW1501REMSYN023333   20192 59006 69964
0124827950999991990062818004-07217-035883FM-12+0560SBKG V0201401N00311045001CN0100001N9+02141+02091101461ADDAA124001091AG10999AY161061AY251061GF106991041051008001021001MA1999999095251MD1999999+0021MW1021REMSYN017333   58002 60014
0143827950999991990062912004-07217-035883FM-12+0560SBKG V0200901N00211007501CN0200001N9+02161+01951101691ADDAA124019091AG10999AY161061AY251061GF105991051041008001001041KA1240N+01911MA1999999095471MD1999999+0121MW1021REMSYN023333   20191 58012 60194
0140827950999991990062918004-07217-035883FM-12+0560SBKG V0200901N00311007501CN0100001N9+02131+02091101501ADDAA124000591AG10999AY161061AY251061GA1091+999999999GF109991081071008001999999MA1999999095291MD1999999+0041MW1511REMSYN017333   58004 69954
0154827950999991990063000004-07217-035883FM-12+0560SBKG V0201401N00211004201CN0005001N9+02111+02021101621ADDAA106000691AA299000591AG10999AY161061AY251061GF108991071071004501999999KA1240M+02491MA1999999095421MD1999999+0341MW1501REMSYN023333   10249 58034 69961
0143827950999991990063012004-07217-035883FM-12+0560SBKG V0201401N00311045001CN0004001N9+02101+02021101601ADDAA124007091AG10999AY161061AY251061GF108991041071004501021999KA1240N+01931MA1999999095391MD1999999-0081MW1611REMSYN023333   20193 59008 60074
0143827950999991990070100004-07217-035883FM-12+0560SBKG V0200901N00311045001CN0005001N9+02101+01801101611ADDAA106999929AG10999AY161061AY221061GF107991021071004501071001KA1240M+02471MA1999999095421MD1999999+0001MW1101REMSYN023333   10247 58000 69901
0143827950999991990070112004-07217-035883FM-12+0560SBKG V0201401N00311007501CN0100001N9+02231+01941101601ADDAA124000391AG10999AY121061AY221061GF107991051031008001031001KA1240N+01961MA1999999095401MD1999999+0011MW1101REMSYN023333   20196 58001 69934
0118827950999991990070118004-07217-035883FM-12+0560SBKG V0200901N00411007501CN0200001N9+02461+01991101231ADDAA106000091AG10999AY121061AY221061GF107991051031008001081021MA1999999095061MD1999999-0031MW1021REMSYN011333   59003
0113827950999991990070218004-07217-035883FM-12+0560SBKG V0200901N00311007501CN0200001N9+02401+02031101301ADDAA106000091AA224995092AG10999GF107991051031008001081001MA1999999095121MD1999999+0061REMSYN017333   58006 79951
0154827950999991990070300004-07217-035883FM-12+0560SBKG V0201401N00211004201CN0005001N9+02121+01981101551ADDAA106000891AA299001091AG10999AY151061AY221061GF107991071071004501001001KA1240M+02571MA1999999095351MD1999999+0081MW1101REMSYN023333   10257 58008 69981
0143827950999991990070312004-07217-035883FM-12+0560SBKG V0201401N00151045001CN0040001N9+02981+01941101571ADDAA124001091AG10999AY151061AY221061GF108991041071004501021999KA1240N+02021MA1999999095371MD1999999-0011MW1501REMSYN023333   20202 59001 60014
0118827950999991990070318004-07217-035883FM-12+0560SBKG V0201401N00261045001CN0200001N9+02551+01951101351ADDAA106000091AG10999AY121061AY221061GF107991031031008001081031MA1999999095181MD1999999+0061MW1031REMSYN011333   58006
0115827950999991990070400004-07217-035883FM-12+0560SBKG V0200901N00101220001CN0020001N9+01131+99999101571ADDAA106000091AG10999GF102991021001999999091001KA1240M+02591MA1999999095371MD1999999+0021REMSYN017333   10259 58002
0096827950999991990070418004-07217-035883FM-12+0560SBKG V0200901N00361045001CN0200001N9+02571+02121101221ADDAA106000091AG10999GF106991031021008001061021MA1999999095061MD1999999-0121REMSYN011333   59012
0102827950999991990070500004-07217-035883FM-12+0560SBKG V0200901N00211045001CN0010001N9+02211+02071101571ADDAA106000091AG10999GF108991021071004501011999MA1999999095371MD1999999+0001REMSYN017333   1027/ 58000
0115827950999991990070512004-07217-035883FM-12+0560SBKG V0201401N00151220001CN0200001N9+02351+01931101541ADDAA106000091AG10999GF104991041011008001001001KA1240N+02081MA1999999095381MD1999999-0051REMSYN017333   20208 59005
0096827950999991990070518004-07217-035883FM-12+0560SBKG V0200901N00311105001CN0200001N9+02611+01911101191ADDAA106000091AG10999GF105991041031008001001021MA1999999095041MD1999999-0021REMSYN011333   59002
0096827950999991990070618004-07217-035883FM-12+0560SBKG V0201401N00411007501CN0200001N9+02461+01971101261ADDAA106000091AG10999GF106991051031008001021001MA1999999095081MD1999999+0041REMSYN011333   58004
0143827950999991990070712004-07217-035883FM-12+0560SBKG V0201801N00311045001CN0100001N9+02161+01991101681ADDAA124000391AG10999AY121061AY221061GF107991041061008001011001KA1240N+01981MA1999999095481MD1999999-0041MW1101REMSYN023333   20198 59004 69934
0124827950999991990070718004-07217-035883FM-12+0560SBKG V0201401N00361007501CN0040001N9+02321+02091101371ADDAA106999929AG10999AY121061AY221061GF107991051031008001001091MA1999999095191MD1999999+0111MW1501REMSYN017333   58011 69901
0143827950999991990070800004-07217-035883FM-12+0560SBKG V0201401N00211004201CN0005001N9+02031+01971101621ADDAA106002091AG10999AY151061AY251061GF108991081071004501999999KA1240M+02661MA1999999095411MD1999999+0061MW1101REMSYN023333   10266 58006 60021
0143827950999991990070812004-07217-035883FM-12+0560SBKG V0201401N00311045001CN0100001N9+02341+02011101631ADDAA124003091AG10999AY121061AY221061GF107991041051008001061001KA1240N+01921MA1999999095431MD1999999-0051MW1101REMSYN023333   20192 59005 60034
0115827950999991990070900004-07217-035883FM-12+0560SBKG V0200901N00311007501CN0010001N9+02161+02041101471ADDAA106000091AG10999GF105991051031008001001001KA1240M+03621MA1999999095291MD1999999+0121REMSYN017333   10362 58012
0143827950999991990070912004-07217-035883FM-12+0560SBKG V0201401N00361007501CN0100001N9+02211+01861101641ADDAA124000191AG10999AY101061AY221061GF108991051071008001021999KA1240N+01961MA1999999095441MD1999999+0011MW1801REMSYN023333   20196 58001 69914
0143827950999991990071012004-07217-035883FM-12+0560SBKG V0200101N00311007501CN0100001N9+02221+02031101521ADDAA124008091AG10999AY161061AY251061GF108991051071008001021999KA1240N+01941MA1999999095321MD1999999-0121MW1101REMSYN023333   20194 59012 60084
0115827950999991990071200004-07217-035883FM-12+0560SBKG V0201801N00101220001CN9999999N9+02851+01531101231ADDAA106000091AG10999GF100991001001999999001001KA1240M+03351MA1999999097401MD1999999+0251REMSYN017333   10335 58025
0115827950999991990071300004-07217-035883FM-12+0560SBKG V0200901N00151220001CN0020001N9+02101+01801101771ADDAA106000091AG10999GF100991001001999999001001KA1240M+02621MA1999999095551MD1999999+0051REMSYN017333   10262 58005
0143827950999991990071412004-07217-035883FM-12+0560SBKG V0201401N00361220001CN0100001N9+02351+01931101601ADDAA124014091AG10999AY121061AY211061GF104991041021008001001001KA1240N+01981MA1999999095401MD1999999-0271MW1101REMSYN023333   20198 59027 60144
0096827950999991990071418004-07217-035883FM-12+0560SBKG V0201401N00361220001CN0200001N9+02551+01781101401ADDAA106000091AG10999GF104991041021008001001001MA1999999095231MD1999999-0101REMSYN011333   59010
0143827950999991990071512004-07217-035883FM-12+0560SBKG V0201401N00311007501CN0100001N9+02131+01841101651ADDAA124001091AG10999AY121061AY221061GF107991071071008001001001KA1240N+01891MA1999999095441MD1999999+0041MW1101REMSYN023333   20189 58004 60014
0115827950999991990071600004-07217-035883FM-12+0560SBKG V0200901N00261220001CN0020001N9+02011+01761101571ADDAA106000091AG10999GF100991001001999999001001KA1240M+02561MA1999999095351MD1999999-0031REMSYN017333   10256 59003
0115827950999991990071612004-07217-035883FM-12+0560SBKG V0201401N00311220001CN0200001N9+02211+01841101291ADDAA106000091AG10999GF104991041021008001001001KA1240N+01781MA1999999095391MD1999999-0051REMSYN017333   20178 59005
0096827950999991990071618004-07217-035883FM-12+0560SBKG V0201401N00151007501CN0200001N9+02381+01951101271ADDAA106000091AG10999GF106991061051008001001001MA1999999095081MD1999999-0071REMSYN011333   59007
0106827950999991990071700004-07217-035883FM-12+0560SBKG V0200901N00261004201CN0010001N9+02111+02041101461ADDAG10999AY151061AY221061GF106991061071004501001001KA1240M+02551MA1999999095261MW1501REMSYN011333   10255
0143827950999991990071800004-07217-035883FM-12+0560SBKG V0200901N00151004201CN0010001N9+02091+02051101421ADDAA106004091AG10999AY121061AY221061GF107991071071004501001001KA1240M+02691MA1999999095231MD1999999-0031MW1021REMSYN023333   10269 59003 60041
0096827950999991990071818004-07217-035883FM-12+0560SBKG V0200901N00511007501CN0200001N9+02591+01871101141ADDAA106000091AG10999GF105991051031008001001001MA1999999094981MD1999999-0011REMSYN011333   59001
0115827950999991990071900004-07217-035883FM-12+0560SBKG V0200901N00211220001CN0020001N9+02121+01891101421ADDAA106000091AG10999GF100991001001999999001001KA1240M+02721MA1999999095241MD1999999+0011REMSYN017333   10272 58001
0143827950999991990071912004-07217-035883FM-12+0560SBKG V0201401N00151004201CN0040001N9+02101+02001101511ADDAA124000591AG10999AY151061AY221061GF108991081071004501999999KA1240N+01951MA1999999095311MD1999999+0091MW1201REMSYN023333   20195 58009 69954
0096827950999991990071918004-07217-035883FM-12+0560SBKG V0201401N00361220001CN0200001N9+02651+01931101151ADDAA106000091AG10999GF104991031021008001031011MA1999999094991MD1999999+0011REMSYN011333   58001
0124827950999991990072018004-07217-035883FM-12+0560SBKG V0202301N00151004201CN0020001N9+02001+01881101321ADDAA106010091AG10999AY151061AY251061GF108991081071004501999999MA1999999095121MD1999999+0131MW1531REMSYN017333   58013 60101
0143827950999991990072112004-07217-035883FM-12+0560SBKG V0201401N00261045001CN0040001N9+02121+02001101641ADDAA124017091AG19041AY151061AY221061GF108991031071004501021999KA1240N+01831MA1999999095421MD1999999+0121MW1201REMSYN023333   20183 58012 60174
0096827950999991990072218004-07217-035883FM-12+0560SBKG V0201401N00261045001CN0200001N9+02541+01881101351ADDAA106000091AG10999GF106991031021008001041021MA1999999095171MD1999999-0031REMSYN011333   59003
0096827950999991990072318004-07217-035883FM-12+0560SBKG V0201401N00571220001CN0200001N9+02611+01961101231ADDAA106000091AG10999GF104991041031008001001001MA1999999095001MD1999999-0101REMSYN011333   59010
0143827950999991990072412004-07217-035883FM-12+0560SBKG V0201401N00261007501CN0100001N9+02081+01931101661ADDAA124002091AG10999AY151061AY221061GF108991051051008001011999KA1240N+01821MA1999999095441MD1999999+0031MW1101REMSYN023333   20182 58003 60024
0135827950999991990072418004-07217-035883FM-12+0560SBKG V0201401N00311007501CN0200001N9+02261+02011101311ADDAA106000291AA299000391AG10999AY101061AY201061GF106991061021008001001001MA1999999095111MD1999999+0041MW1201REMSYN017333   58004 69921
0115827950999991990072500004-07217-035883FM-12+0560SBKG V0200901N00311012001CN0020001N9+01991+01811101621ADDAA106000091AG10999GF106991061081008001001001KA1240M+02461MA1999999095401MD1999999+0091REMSYN017333   10246 58009
0143827950999991990072612004-07217-035883FM-12+0560SBKG V0200901N00621045001CN0100001N9+02301+01831101841ADDAA124000191AG10999AY121061AY221061GF105991041021008001061001KA1240N+01951MA1999999095621MD1999999+0061MW1101REMSYN023333   20195 58006 69914
0096827950999991990072618004-07217-035883FM-12+0560SBKG V0200901N00671007501CN0100001N9+02571+01901101451ADDAA106000091AG10999GF106991061061008001001001MA1999999095271MD1999999+0061REMSYN011333   58006
0115827950999991990072712004-07217-035883FM-12+0560SBKG V0201401N00361007501CN0100001N9+02211+01761101811ADDAA106000091AG10999GF106991061041008001001001KA1240N+01861MA1999999095591MD1999999-0031REMSYN017333   20186 59003
0082827950999991990072818004-07217-035883FM-12+0560SBKG V0200901N00311105001CN0200001N9+02571+01901101511ADDAA106000091AG10999GF107991041021008001001061MA1999999095331REMSYN011333   58818
0143827950999991990072912004-07217-035883FM-12+0560SBKG V0201401N00411004201CN0020001N9+02081+01961101921ADDAA124030091AG10999AY161061AY251061GF108991061071004501021999KA1240N+01951MA1999999095691MD1999999+0071MW1501REMSYN023333   20195 58007 60304
0124827950999991990072918004-07217-035883FM-12+0560SBKG V0200901N00361004201CN0020001N9+02061+01991101671ADDAA106003091AG10999AY161061AY261061GF108991051071004501021999MA1999999095451MD1999999+0121MW1601REMSYN017333   58012 60031
0143827950999991990073000004-07217-035883FM-12+0560SBKG V0201801N00211004201CN0020001N9+02011+01951101891ADDAA106001091AG10999AY151061AY221061GF108991081071004501999999KA1240M+02281MA1999999095651MD1999999+0101MW1021REMSYN023333   10228 58010 60011
0096827950999991990073018004-07217-035883FM-12+0560SBKG V0201401N00461045001CN0200001N9+02511+01841101511ADDAA106000091AG10999GF106991041021008001031001MA1999999095321MD1999999-0131REMSYN011333   59013
0115827950999991990073100004-07217-035883FM-12+0560SBKG V0200901N00261220001CN0020001N9+01981+01721101801ADDAA106000091AG10999GF100991001001999999001001KA1240M+02571MA1999999095581MD1999999-0071REMSYN017333   10257 59007
0115827950999991990080100004-07217-035883FM-12+0560SBKG V0200901N00261220001CN0020001N9+02011+01741101821ADDAA106000091AG10999GF100991001001999999001001KA1240M+02571MA1999999095591MD1999999+0011REMSYN017333   10257 58001
0096827950999991990080118004-07217-035883FM-12+0560SBKG V0201401N003619999999N0000001N9+02421+99999101501ADDAA106000091AG10999GF106991061001008001001001MA1999999095781MD1999999+0431REMSYN011333   58043
0096827950999991990080218004-07217-035883FM-12+0560SBKG V0201401N00361007501CN0040001N9+02471+01851101491ADDAA106000091AG10999GF105991051021008001001001MA1999999095301MD1999999-0081REMSYN011333   59008
0124827950999991990080318004-07217-035883FM-12+0560SBKG V0201401N00461220001CN0000001N9+02591+02141101491ADDAA106001091AG10999AY161061AY251061GF103991031021008001001001MA1999999095311MD1999999+0011MW1021REMSYN017333   58001 60011
0121827950999991990080412004-07217-035883FM-12+0560SBKG V0209999999999045001CN0020001N9+02301+01851101871ADDAA124001091AG10999GF108991041051008001021001KA1240N+01651MA1999999095631MD1999999-0031REMSYN023333   20165 59003 60014
0135827950999991990080418004-07217-035883FM-12+0560SBKG V0201401N00311007501CN0100001N9+02401+02131101591ADDAA106000291AA299000391AG10999AY151061AY251061GF106991061051008001031001MA1999999095371MD1999999+0061MW1021REMSYN017333   58006 69921
0124827950999991990080518004-07217-035883FM-12+0560SBKG V0201401N00261045001CN0040001N9+02301+02091101621ADDAA106002091AG10999AY161061AY261061GF106991041051008001021001MA1999999095411MD1999999+0041MW1021REMSYN017333   58004 60021
0154827950999991990080712004-07217-035883FM-12+0560SBKG V0201401N00511007501CN0100001N9+02201+01761101791ADDAA124000991AA299001091AG10999AY121061AY221061GF107991071021008001001001KA1240N+01891MA1999999095561MD1999999-0151MW1021REMSYN023333   20189 59015 69994
0137827950999991990080800004-07217-035883FM-12+0560SBKG V0201401N00261007501CN0010001N9+02061+01961101701ADDAA106000091AG10999AY121061AY221061GF108991081071008001999999KA1240M+02661MA1999999095491MD1999999-0061MW1021REMSYN017333   10266 59006
0096827950999991990080818004-07217-035883FM-12+0560SBKG V0201401N00511007501CN0200001N9+02451+01661101561ADDAA106000091AG10999GF108991081051008001001001MA1999999095361MD1999999+0171REMSYN011333   58017
0137827950999991990081100004-07217-035883FM-12+0560SBKG V0200901N00361220001CN0005001N9+02031+01921101781ADDAA106000091AG19021AY121061AY221061GF104991041071008001041001KA1240M+02601MA1999999095551MD1999999+0041MW1101REMSYN017333   10260 58004
0096827950999991990081118004-07217-035883FM-12+0560SBKG V0201401N00511105001CN0200001N9+02561+01671101471ADDAA106000091AG10999GF106991041011008001001021MA1999999095281MD1999999-0101REMSYN011333   59010
0096827950999991990081119004-07217-035883FM-12+0560SBKG V0201401N00511105001CN0200001N9+02561+01671101471ADDAA106000091AG10999GF106991041011008001001021MA1999999095281MD1999999-0101REMSYN011333   59010
0115827950999991990081200004-07217-035883FM-12+0560SBKG V0201401N00311012001CN0020001N9+02071+01911101771ADDAA106000091AG10999GF106991061081008001001001KA1240M+02601MA1999999095551MD1999999+0001REMSYN017333   10260 58000
0137827950999991990081212004-07217-035883FM-12+0560SBKG V0201401N00311007501CN0200001N9+02191+01841101851ADDAA106000091AG10999AY121061AY221061GF107991071051008001001001KA1240N+01881MA1999999095631MD1999999-0121MW1021REMSYN017333   20188 59012
0118827950999991990081218004-07217-035883FM-12+0560SBKG V0201401N00411007501CN0100001N9+02621+01861101501ADDAA106000091AG10999AY121061AY221061GF106991061021008001001001MA1999999095321MD1999999+0041MW1051REMSYN011333   58004
0115827950999991990081300004-07217-035883FM-12+0560SBKG V0209999999999012001CN0020001N9+02051+01821101821ADDAA106000091AG10999GF106991061081008001001001KA1240M+02701MA1999999095601MD1999999+0051REMSYN017333   10270 58005
0135827950999991990081318004-07217-035883FM-12+0560SBKG V0200901N00621007501CN0100001N9+02231+02071101621ADDAA106000291AA299000391AG10999AY151061AY251061GF108991081071008001999999MA1999999095401MD1999999+0081MW1511REMSYN017333   58008 69921
0143827950999991990081412004-07217-035883FM-12+0560SBKG V0201401N00511007501CN0005001N9+01941+01891101901ADDAA124011091AG10999AY161061AY251061GF108991081071008001999999KA1240N+01911MA1999999095651MD1999999-0061MW1611REMSYN023333   20191 59006 60114
0115827950999991990081600004-07217-035883FM-12+0560SBKG V0201401N00261220001CN0020001N9+02041+01801101691ADDAA106000091AG10999GF104991041081008001001001KA1240M+02601MA1999999095471MD1999999-0121REMSYN017333   10260 59012
0115827950999991990081612004-07217-035883FM-12+0560SBKG V0201801N00311045001CN0200001N9+03161+01681101861ADDAA106000091AG10999GF107991021021008001061001KA1240N+01681MA1999999095641MD1999999+0051REMSYN017333   20168 58005
0143827950999991990081700004-07217-035883FM-12+0560SBKG V0200901N00311045001CN0005001N9+01991+01951101701ADDAA106001091AG10999AY151061AY221061GF108991031071004501021999KA1240M+02451MA1999999095481MD1999999+0011MW1501REMSYN023333   10245 58001 60011
0137827950999991990081800004-07217-035883FM-12+0560SBKG V0200901N00311007501CN0005001N9+02091+01981101801ADDAA106000091AG10999AY121061AY221061GF107991071071008001001001KA1240M+02571MA1999999095581MD1999999+0101MW1101REMSYN017333   10257 58010
0096827950999991990081818004-07217-035883FM-12+0560SBKG V0200901N00511007501CN0200001N9+02531+01861101341ADDAA106000091AG10999GF106991061021008001001001MA1999999095161MD1999999-0141REMSYN011333   59014
0115827950999991990081900004-07217-035883FM-12+0560SBKG V0200901N00361220001CN0020001N9+01971+01881101641ADDAA106000091AG10999GF101991011041008001001001KA1240M+02621MA1999999095421MD1999999-0161REMSYN017333   10262 59016
0115827950999991990082000004-07217-035883FM-12+0560SBKG V0200901N00411220001CN0020001N9+02051+01911101551ADDAA106000091AG10999GF100991001001999999001001KA1240M+02571MA1999999095341MD1999999-0071REMSYN017333   10257 59007
0137827950999991990082012004-07217-035883FM-12+0560SBKG V0201401N00461045001CN0100001N9+02241+01821101861ADDAA106000091AG10999AY121061AY221061GF107991041021008001061001KA1240N+01841MA1999999095641MD1999999+0071MW1051REMSYN017333   20184 58007
0115827950999991990082200004-07217-035883FM-12+0560SBKG V0201401N00361220001CN0020001N9+02031+01851101661ADDAA106000091AG10999GF101991011041008001001071KA1240M+02721MA1999999095441MD1999999-0031REMSYN017333   10272 59003
0124827950999991990082318004-07217-035883FM-12+0560SBKG V0201401N00151007501CN0040001N9+02111+01951101591ADDAA106001091AG10999AY151061AY251061GF108991081071008001999999MA1999999095371MD1999999+0091MW1501REMSYN017333   58009 60011
0129827950999991990082400004-07217-035883FM-12+0560SBKG V0201401N00151004201CN0005001N9+01981+01861101721ADDAA106004091AG10999AY151061AY221061GF107991051071004501071001KA1240M+02401MA1999999095501MW1101REMSYN023333   10240 5013/ 60041
0096827950999991990082518004-07217-035883FM-12+0560SBKG V0201401N00461220001CN0200001N9+02541+01731101551ADDAA106000091AG10999GF103991031021008001001001MA1999999095351MD1999999-0051REMSYN011333   59005
0115827950999991990082600004-07217-035883FM-12+0560SBKG V0201401N00151220001CN9999999N9+01981+01761101831ADDAA106000091AG10999GF100991001001999999001001KA1240M+02641MA1999999095611MD1999999-0051REMSYN017333   10264 59005
0115827950999991990082612004-07217-035883FM-12+0560SBKG V0201401N00311007501CN0020001N9+02091+01801101831ADDAA106000091AG10999GF108991081051008001999999KA1240N+01741MA1999999095591MD1999999-0171REMSYN017333   20174 59017
0126827950999991990082700004-07217-035883FM-12+0560SBKG V0200901N00261004201CN0020001N9+02011+01851999999ADDAG10999AY161061AY261061GF108991081071004501999999KA1240M+02371MA1999999095461MD1999999+0151MW1021REMSYN017333   10237 58015
0143827950999991990082712004-07217-035883FM-12+0560SBKG V0201401N00361045001CN0040001N9+02351+02011101641ADDAA124016091AG10999AY121061AY221061GF106991031021008001061001KA1240N+01961MA1999999095441MD1999999-0151MW1101REMSYN023333   20196 59015 60164
0143827950999991990082812004-07217-035883FM-12+0560SBKG V0200901N00411007501CN0040001N9+02261+02071101711ADDAA124004091AG10999AY161061AY221061GF107991061031008001041001KA1240N+02011MA1999999095511MD1999999+0071MW1101REMSYN023333   20201 58007 60044
0096827950999991990082918004-07217-035883FM-12+0560SBKG V0200501N00261220001CN0040001N9+02241+02071999999ADDAA106000091AG10999GF103991031021008001001001MA1999999095171MD1999999-0121REMSYN011333   59012
0115827950999991990083012004-07217-035883FM-12+0560SBKG V0201401N00461045001CN0200001N9+02171+01881101751ADDAA106000091AG10999GF107991021021008001061001KA1240N+01821MA1999999095531MD1999999+0021REMSYN017333   20182 58002
0096827950999991990083118004-07217-035883FM-12+0560SBKG V0201401N00411220001CN0200001N9+02481+01831101381ADDAA106000091AG10999GF102991021021008001001001MA1999999095211MD1999999+0021REMSYN011333   58002
0115827950999991990090312004-07217-035883FM-12+0560SBKG V0201401N00511007501CN0100001N9+02311+01871102731ADDAA106000091AG10999GF106991061041008001001001KA1240N+01981MA1999999095531MD1999999+0101REMSYN017333   20198 58010
0115827950999991990090412004-07217-035883FM-12+0560SBKG V0201401N00571105001CN0100001N9+02331+01731101661ADDAA106000091AG10999GF106991041021008001001021KA1240N+01881MA1999999095461MD1999999-0071REMSYN017333   20188 59007
0096827950999991990090418004-07217-035883FM-12+0560SBKG V0201401N00151220001CN0200001N9+02691+02111101281ADDAA106000091AG10999GF103991031021008001001001MA1999999095121MD1999999-0081REMSYN011333   59008
0096827950999991990090518004-07217-035883FM-12+0560SBKG V0200901N00461007501CN0200001N9+02691+01611101141ADDAA106000091AG10999GF105991051021008001001001MA1999999100001MD1999999-0141REMSYN011333   59014
0115827950999991990090612004-07217-035883FM-12+0560SBKG V0200901N00511012001CN0100001N9+02221+01691101581ADDAA106000091AG10999GF107991071081008001001001KA1240N+01771MA1999999095371MD1999999+0061REMSYN017333   20177 58006
0096827950999991990090618004-07217-035883FM-12+0560SBKG V0201401N00411220001CN0100001N9+02681+02111101301ADDAA106000091AG10999GF102991021021008001001001MA1999999095131MD1999999+0151REMSYN011333   58015
0115827950999991990090712004-07217-035883FM-12+0560SBKG V0201401N00361220001CN0100001N9+02261+01751101641ADDAA106000091AG10999GF104991041021008001001001KA1240N+01901MA1999999095441MD1999999+0071REMSYN017333   20190 58007
0096827950999991990090718004-07217-035883FM-12+0560SBKG V0201401N00311220001CN0200001N9+02631+02001101491ADDAA106000091AG10999GF103991031021008001001001MA1999999095311MD1999999+0101REMSYN011333   58010
0134827950999991990090812004-07217-035883FM-12+0560SBKG V0201401N00311220001CN0100001N9+02231+01731101711ADDAA106000091AG10999GF104991041041999999001001KA1240N+01821MA1999999095501MD1999999+0061REMSYN017333   20182 58006EQDQ01+000992SCOLCB
0115827950999991990090900004-07217-035883FM-12+0560SBKG V0200501N00361220001CN9999999N9+02021+01911101401ADDAA106000091AG10999GF100991001001999999001001KA1240M+02871MA1999999095211MD1999999-0191REMSYN017333   10287 59019
0115827950999991990090912004-07217-035883FM-12+0560SBKG V0201401N00211220001CN0100001N9+02341+01831101591ADDAA106000091AG10999GF104991041051008001001001KA1240N+01931MA1999999095391MD1999999-0111REMSYN017333   20193 59011
0115827950999991990090918004-07217-035883FM-12+0560SBKG V0201401N00311220001CN0200001N9+02781+02181101111ADDAA106000091AG10999GF104991999021008001001001MA1999999094971MD1999999-0181REMSYN011333   59018EQDQ01+000032SCOTLC
0115827950999991990091000004-07217-035883FM-12+0560SBKG V0200901N00261220001CN0020001N9+02031+01781101361ADDAA106000091AG10999GF102991021011008001001001KA1240M+02891MA1999999095181MD1999999-0031REMSYN017333   10289 59003
0096827950999991990091018004-07217-035883FM-12+0560SBKG V0200901N00511220001CN0200001N9+02771+01821101041ADDAA106000091AG10999GF103991031021008001001001MA1999999094901MD1999999-0071REMSYN011333   59007
0143827950999991990091112004-07217-035883FM-12+0560SBKG V0200901N00461007501CN0200001N9+02771+01791101581ADDAA124000191AG19011AY151061AY251061GF106991061021008001001001KA1240N+01951MA1999999095381MD1999999+0141MW1051REMSYN023333   20195 58014 69914
0096827950999991990091118004-07217-035883FM-12+0560SBKG V0200901N00361220001CN0200001N9+02631+01541101541ADDAA106000091AG10999GF105991021021008001001011MA1999999095081MD1999999-0381REMSYN011333   59038
0115827950999991990091212004-07217-035883FM-12+0560SBKG V0200901N00511007501CN0100001N9+02361+01861101631ADDAA106000091AG10999GF107991071041008001001001KA1240N+01921MA1999999095431MD1999999+0051REMSYN017333   20192 58005
0096827950999991990091218004-07217-035883FM-12+0560SBKG V0201401N00511220001CN0200001N9+02701+01691101341ADDAA106000091AG10999GF105991021011008001001011MA1999999095171MD1999999+0091REMSYN011333   58009
0115827950999991990091300004-07217-035883FM-12+0560SBKG V0200901N00361007501CN0020001N9+02121+01931101651ADDAA106000091AG10999GF106991061051008001001001KA1240M+02801MA1999999095451MD1999999+0081REMSYN017333   10280 58008
0096827950999991990091318004-07217-035883FM-12+0560SBKG V0201401N00511220001CN0100001N9+02711+01711101461ADDAA106000091AG10999GF104991041021008001001001MA1999999095281MD1999999+0111REMSYN011333   58011
0115827950999991990091412004-07217-035883FM-12+0560SBKG V0201401N00461007501CN0100001N9+02391+01731101701ADDAA106000091AG10999GF106991061041008001001001KA1240N+01961MA1999999095501MD1999999+0021REMSYN017333   20196 58002
0115827950999991990091500004-07217-035883FM-12+0560SBKG V0200901N00361220001CN0020001N9+02081+01741101671ADDAA106000091AG10999GF100991001001999999001001KA1240M+02821MA1999999095471MD1999999+0011REMSYN017333   10282 58001
0118827950999991990091518004-07217-035883FM-12+0560SBKG V0200901N00571220001CN0040001N9+02731+01731101261ADDAA106000091AG10999AY121061AY221061GF105991031021008001001011MA1999999095091MD1999999-0091MW1051REMSYN011333   59009
0115827950999991990091600004-07217-035883FM-12+0560SBKG V0200901N00411220001CN0020001N9+02031+01801101591ADDAA106000091AG10999GF100991001001999999001001KA1240M+02921MA1999999095391MD1999999-0081REMSYN017333   10292 59008
0118827950999991990091618004-07217-035883FM-12+0560SBKG V0201401N00361220001CN0100001N9+02831+01351101271ADDAA106000091AG10999AY111061AY201061GF102991021011008001001001MA1999999095111MD1999999+0021MW1051REMSYN011333   58002
0115827950999991990091700004-07217-035883FM-12+0560SBKG V0200901N00311220001CN0020001N9+02061+01681101671ADDAA106000091AG10999GF100991001001999999001001KA1240M+02891MA1999999095461MD1999999+0071REMSYN017333   10289 58007
0115827950999991990091712004-07217-035883FM-12+0560SBKG V0200901N00411007501CN0100001N9+02331+01781101701ADDAA106000091AG10999GF107991071051008001001001KA1240N+01771MA1999999095501MD1999999-0101REMSYN017333   20177 59010
0132827950999991990091812004-07217-035883FM-12+0560SBKG V0201401N00821007501CN0100001N9+02341+01721101651ADDAA106000091AA224001091AG10999GF106991061041008001001001KA1240N+01921MA1999999099471MD1999999-0031REMSYN023333   20192 59003 60014
0115827950999991990091818004-07217-035883FM-12+0560SBKG V0201401N00511220001CN0100001N9+02791+01661101271ADDAA106000091AG10999GF103991031021008001001001MA1999999095122MD1999999-0081REMSYN011333   59008EQDQ01+095123APOSP 
0131827950999991990091900004-07217-035883FM-12+0560SBKG V0209999999999001201CN0020001N9+02031+01661101601ADDAA106000091AG10999GA1091+999999999GF109991091999999999999999KA1240M+02871MA1999999095401MD1999999-0101REMSYN017333   10287 59010
0115827950999991990091912004-07217-035883FM-12+0560SBKG V0201401N00411007501CN0040001N9+02211+01841101591ADDAA106000091AG10999GF108991081071008001999999KA1240N+01791MA1999999095381MD1999999-0091REMSYN017333   20179 59009
0096827950999991990091918004-07217-035883FM-12+0560SBKG V0200501N00461220001CN0100001N9+02621+01761101381ADDAA106000091AG10999GF104991041051008001001001MA1999999095201MD1999999+0081REMSYN011333   58008
0154827950999991990092012004-07217-035883FM-12+0560SBKG V0201401N00411007501CN0100001N9+02371+01891101521ADDAA124000291AA299000391AG10999AY151061AY251061GF106991061041008001001001KA1240N+02001MA1999999095341MD1999999-0041MW1021REMSYN023333   20200 59004 69924
0096827950999991990092018004-07217-035883FM-12+0560SBKG V0201401N00621220001CN0100001N9+02811+01801101141ADDAA106000091AG10999GF104991041021008001001001MA1999999095001MD1999999-0201REMSYN011333   59020
0115827950999991990092100004-07217-035883FM-12+0560SBKG V0200901N00361007501CN0020001N9+02141+01911101441ADDAA106000091AG10999GF107991071071008001001001KA1240M+02951MA1999999095261MD1999999-0071REMSYN017333   10295 59007
0173827950999991990092112004-07217-035883FM-12+0560SBKG V0200901N005119999999N0100001N9+02421+01841101491ADDAA124000291AA299000391AG10999AY151061AY251061GF105991999021017501001001KA1240N+02061MA1999999095311MD1999999-0031MW1021REMSYN023333   20206 59003 69924EQDQ01+000022SCOTLC
0096827950999991990092118004-07217-035883FM-12+0560SBKG V0200901N00571220001CN0200001N9+02791+01751101051ADDAA106000091AG10999GF103991031021008001001001MA1999999094721MD1999999-0081REMSYN011333   59008
0100827950999991990092212004-07217-035883FM-12+0560SBKG V0200901N00571007501CN0100001N9+02471+02041101511ADDAA106000091AG10999GF106991061041008001001001KA1240N+02021MD1999999+0011REMSYN017333   20202 58001
0096827950999991990092218004-07217-035883FM-12+0560SBKG V0200901N00511007501CN0100001N9+02651+01681101141ADDAA106000091AG10999GF106991061051008001001001MA1999999094991MD1999999-0071REMSYN011333   59007
0115827950999991990092300004-07217-035883FM-12+0560SBKG V0200901N00511007501CN0020001N9+99999+99999101391ADDAA106000091AG10999GF106991061051008001001001KA1240M+02851MA1999999095311MD1999999+0051REMSYN017333   10285 58005
0143827950999991990092312004-07217-035883FM-12+0560SBKG V0200901N00511007501CN0040001N9+02281+02091101571ADDAA124001091AG10999AY151061AY251061GF107991071071008001999999KA1240N+02021MA1999999095371MD1999999+0051MW1021REMSYN023333   20202 58005 60014
0115827950999991990092412004-07217-035883FM-12+0560SBKG V0200901N00461007501CN0200001N9+02451+01951101501ADDAA106000091AG10999GF106991061021008001001001KA1240N+02011MA1999999095321MD1999999-0051REMSYN017333   20201 59005
0115827950999991990092500004-07217-035883FM-12+0560SBKG V0200901N00461007501CN0020001N9+02161+01951101441ADDAA106000091AG10999GF106991061061008001001001KA1240M+02921MA1999999095261MD1999999-0081REMSYN017333   10292 59008
0096827950999991990092518004-07217-035883FM-12+0560SBKG V0200901N00511220001CN0100001N9+02771+01981101161ADDAA106000091AG10999GF103991031041008001001001MA1999999095021MD1999999+0031REMSYN011333   58003
0096827950999991990092618004-07217-035883FM-12+0560SBKG V0201401N00311220001CN0100001N9+02921+01571101221ADDAA106000091AG10999GF104991041021008001001001MA1999999095081MD1999999+0051REMSYN011333   58005
0115827950999991990092712004-07217-035883FM-12+0560SBKG V0201801N00311007501CN0200001N9+02551+01831101591ADDAA106000091AG10999GF106991061051008001001001KA1240N+02031MA1999999095421MD1999999+0101REMSYN017333   20203 58010
0143827950999991990092900004-07217-035883FM-12+0560SBKG V0201401N00151004201CN0002001N9+01941+01861101811ADDAA124001091AG10999AY151061AY251061GF108991081071004501999999KA1240M+02271MA1999999095571MD1999999-0031MW1101REMSYN023333   10227 59003 60014
0143827950999991990092912004-07217-035883FM-12+0560SBKG V0201401N00311045001CN0020001N9+02021+01921101751ADDAA124011091AG10999AY161061AY251061GF108991031071004501021999KA1240N+01881MA1999999095521MD1999999-0011MW1501REMSYN023333   20188 59001 60114
0124827950999991990092918004-07217-035883FM-12+0560SBKG V0201401N00311045001CN0100001N9+02451+01921101351ADDAA106001091AG10999AY151061AY211061GF106991041071008001041021MA1999999095171MD1999999-0271MW1011REMSYN017333   59027 60011
0096827950999991990093018004-07217-035883FM-12+0560SBKG V0200901N00311220001CN0100001N9+02651+01561101271ADDAA106000091AG10999GF102991021011008001001001MA1999999095111MD1999999-0061REMSYN011333   59006
0134827950999991990100100004-07217-035883FM-12+0560SBKG V0200901N00361220001CN0020001N9+02021+01851101571ADDAA106000091AG10999GF102991011021999999001021KA1240M+02711MA1999999095371MD1999999-0041REMSYN017333   10271 59004EQDQ01+000992SCOLCB
0118827950999991990100118004-07217-035883FM-12+0560SBKG V0200501N00571007501CN0100001N9+02231+01991101361ADDAA106000091AG10999AY101061AY201061GF108991081051008001001001MA1999999095161MD1999999+0041MW1151REMSYN011333   58004
0154827950999991990100312004-07217-035883FM-12+0560SBKG V0200901N00311007501CN0100001N9+02261+01881101691ADDAA106000091AA224004091AG10999AY121061AY221061GF106991061021008001001001KA1240N+01901MA1999999095481MD1999999+0081MW1051REMSYN023333   20190 58008 60044
0096827950999991990100318004-07217-035883FM-12+0560SBKG V0201401N00311220001CN0200001N9+02671+02061101381ADDAA106000091AG10999GF104991041021008001001001MA1999999095211MD1999999+0041REMSYN011333   58004
0137827950999991990100412004-07217-035883FM-12+0560SBKG V0200901N00671007501CN0100001N9+02301+01831101651ADDAA106000091AG10999AY121061AY221061GF107991051021008001001031KA1240N+01891MA1999999095451MD1999999+0031MW1051REMSYN017333   20189 58003
0137827950999991990100418004-07217-035883FM-12+0560SBKG V0201401N005119999999N0100001N9+02581+01821101101ADDAA106000091AG10999AY101061AY201061GF107991999071008001001001MA1999999094941MD1999999-0271MW1151REMSYN011333   59027EQDQ01+000002SCOTLC
0154827950999991990100512004-07217-035883FM-12+0560SBKG V0200901N00671007501CN0100001N9+02181+01921101451ADDAA124000491AA299000591AG10999AY151061AY221061GF107991071061008001001001KA1240N+01911MA1999999095261MD1999999-0191MW1101REMSYN023333   20191 59019 69944
0096827950999991990100518004-07217-035883FM-12+0560SBKG V0201401N00411220001CN0100001N9+02601+01741101191ADDAA106000091AG10999GF104991041041008001001001MA1999999095031MD1999999+0041REMSYN011333   58004
0096827950999991990100618004-07217-035883FM-12+0560SBKG V0200901N00571007501CN0200001N9+02651+01921101081ADDAA106000091AG10999GF106991061021008001001001MA1999999094941MD1999999-0091REMSYN011333   59009
0123827950999991990100712004-07217-035883FM-12+0560SBKG V0200901N00461007501CN0100001N9+02401+01981101511ADDAA124001091AG10999AY121061AY221061GF106991061021008001001001KA1240N+02001MA1999999095331MW1101REMSYN017333   20200 60014
0096827950999991990100718004-07217-035883FM-12+0560SBKG V0200901N00571220001CN0200001N9+02731+01841101081ADDAA106000091AG10999GF103991031021008001001001MA1999999094941MD1999999+0001REMSYN011333   58000
0137827950999991990100812004-07217-035883FM-12+0560SBKG V0201901N00511007501CN0100001N9+02421+01891101371ADDAA106000091AG10999AY121061AY221061GF106991061021008001001001KA1240N+02021MA1999999095211MD1999999-0121MW1051REMSYN017333   20202 59012
0096827950999991990100818004-07217-035883FM-12+0560SBKG V0201401N00571220001CN0100001N9+02711+02081101041ADDAA106000091AG10999GF103991031021008001001001MA1999999094901MD1999999-0041REMSYN011333   59004
0137827950999991990100912004-07217-035883FM-12+0560SBKG V0200301N00571007501CN0020001N9+02471+01751101341ADDAA106000091AG10999AY121061AY221061GF106991061021008001001001KA1240N+02021MA1999999095171MD1999999-0041MW1051REMSYN017333   20202 59004
0096827950999991990101018004-07217-035883FM-12+0560SBKG V0201401N00621220001CN0100001N9+02731+01411101121ADDAA106000091AG10999GF104991011021008001001011MA1999999094971MD1999999+0051REMSYN011333   58005
0102827950999991990101712004-07217-035883FM-12+0560SBKG V0200901N00571007501CN0200001N9+02551+01751101391ADDAA106000091AG10999GF106991061021008001001001MA1999999095231MD1999999-0041REMSYN017333   2098/ 59004
0096827950999991990101718004-07217-035883FM-12+0560SBKG V0201401N00311007501CN0100001N9+02861+01651100921ADDAA106000091AG10999GF106991061051008001001001MA1999999094791MD1999999-0211REMSYN011333   59021
0115827950999991990101812004-07217-035883FM-12+0560SBKG V0201401N00461007501CN0200001N9+02521+01771101421ADDAA106000091AG10999GF106991061021008001001001KA1240N+02021MA1999999095251MD1999999+0021REMSYN017333   20202 58002
0143827950999991990101912004-07217-035883FM-12+0560SBKG V0200901N00411007501CN0100001N9+02451+01811101331ADDAA124000591AG10999AY151061AY251061GF106991061021008001001001KA1240N+02031MA1999999095161MD1999999-0091MW1021REMSYN023333   20203 59009 69954
0096827950999991990101918004-07217-035883FM-12+0560SBKG V0201401N00151220001CN0100001N9+02821+02711101131ADDAA106000091AG10999GF106991031021008001001011MA1999999094981MD1999999+0061REMSYN011333   58006
0137827950999991990102012004-07217-035883FM-12+0560SBKG V0209999999999220001CN0100001N9+02451+01921101351ADDAA106000091AG10999AY121061AY221061GF106991041021008001001011KA1240N+01951MA1999999095181MD1999999-0021MW1051REMSYN017333   20195 59002
0118827950999991990102018004-07217-035883FM-12+0560SBKG V0200901N00261220001CN0100001N9+02951+01641100871ADDAA106000091AG10999AY121061AY221061GF106991041021008001001011MA1999999094751MD1999999-0231MW1051REMSYN011333   59023
0085827950999991990102112004-07217-035883FM-12+0560SBKG V0200901N00411007501CN0040001N9+02221+02081100291ADDAG10999AY161061AY251061GF108991061071008001021999MA1999999095111MW1511REMSYN003333
0096827950999991990102218004-07217-035883FM-12+0560SBKG V0201401N00311220001CN0200001N9+02831+01911100971ADDAA106000091AG10999GF103991031021008001001001MA1999999094851MD1999999+0041REMSYN011333   58004
0118827950999991990102718004-07217-035883FM-12+0560SBKG V0200901N00621105001CN0100001N9+02751+01831101171ADDAA106000091AG10999AY121061AY221061GF108991041031008001001071MA1999999095031MD1999999+0121MW1051REMSYN011333   58012
0118827950999991990102818004-07217-035883FM-12+0560SBKG V0200901N00361220001CN0100001N9+02821+01651101111ADDAA106000091AG10999AY121061AY221061GF106991031021008001001061MA1999999094971MD1999999-0061MW1051REMSYN011333   59006
0132827950999991990103012004-07217-035883FM-12+0560SBKG V0200901N00461007501CN0100001N9+02461+01881101611ADDAA106000091AA224001091AG10999GF107991051021008001001011KA1240N+02031MA1999999095431MD1999999+0051REMSYN023333   20203 58005 60014
0096827950999991990103118004-07217-035883FM-12+0560SBKG V0200901N00571220001CN0200001N9+02721+01821101211ADDAA106000091AG10999GF104991041021008001001001MA1999999095051MD1999999+0011REMSYN011333   58001
0096827950999991990110118004-07217-035883FM-12+0560SBKG V0200901N00461220001CN0100001N9+02891+01811101021ADDAA106000091AG10999GF103991031021008001001001MA1999999094891MD1999999-0161REMSYN011333   59016
0096827950999991990110218004-07217-035883FM-12+0560SBKG V0200901N00511220001CN0100001N9+03001+01941100961ADDAA106000091AG10999GF103991031021008001001001MA1999999094841MD1999999-0051REMSYN011333   59005
0115827950999991990110312004-07217-035883FM-12+0560SBKG V0200501N00671220001CN0200001N9+02511+01841101311ADDAA106000091AG10999GF104991041021008001001001KA1240N+02031MA1999999095151MD1999999-0091REMSYN017333   20203 59009
0096827950999991990110418004-07217-035883FM-12+0560SBKG V0201401N00621007501CN0100001N9+02841+01851101941ADDAA106000091AG10999GF105991051041008001001001MA1999999094921MD1999999+0111REMSYN011333   58011
0096827950999991990110518004-07217-035883FM-12+0560SBKG V0200901N00511105001CN0100001N9+02901+01681100931ADDAA106000091AG10999GF105991021021008001031011MA1999999094811MD1999999+0091REMSYN011333   58009
0096827950999991990110618004-07217-035883FM-12+0560SBKG V0200501N00671007501CN0100001N9+02311+02031100251ADDAA106000091AG10999GF107991071051008001001001MA1999999095061MD1999999+0251REMSYN011333   58025
0096827950999991990110718004-07217-035883FM-12+0560SBKG V0200501N00411220001CN0100001N9+02881+01601101071ADDAA106000091AG10999GF105991031021008001001011MA1999999094931MD1999999-0131REMSYN011333   59013
0096827950999991990110818004-07217-035883FM-12+0560SBKG V0201401N00461220001CN0100001N9+02911+01671101081ADDAA106000091AG10999GF106991031021008001001011MA1999999094941MD1999999+0011REMSYN011333   58001
0096827950999991990110918004-07217-035883FM-12+0560SBKG V0201401N00511105001CN0200001N9+02881+01671101151ADDAA106000091AG10999GF107991031021008001001061MA1999999095001MD1999999+0061REMSYN011333   58006
0137827950999991990111112004-07217-035883FM-12+0560SBKG V0200501N00411105001CN0100001N9+02511+01861101541ADDAA106000091AG10999AY121061AY221061GF108991041021008001001071KA1240N+02001MA1999999095361MD1999999+0041MW1051REMSYN017333   20200 58004
0118827950999991990111118004-07217-035883FM-12+0560SBKG V0200501N00311105001CN0100001N9+02971+01761101091ADDAA106000091AG10999AY121061AY221061GF107991041021008001001061MA1999999094961MD1999999+0001MW1051REMSYN011333   58000
0137827950999991990111212004-07217-035883FM-12+0560SBKG V0200501N00361007501CN0100001N9+02581+01721101691ADDAA106000091AG10999AY121061AY221061GF105991051021008001001001KA1240N+02001MA1999999095391MD1999999+0031MW1051REMSYN017333   20200 58003
0096827950999991990111218004-07217-035883FM-12+0560SBKG V0200501N00461220001CN0100001N9+02891+01811101161ADDAA106000091AG10999GF104991041021008001001001MA1999999095001MD1999999+0041REMSYN011333   58004
0115827950999991990111312004-07217-035883FM-12+0560SBKG V0200901N00771007501CN0200001N9+02581+01901101561ADDAA106000091AG10999GF105991051021008001001001KA1240N+02001MA1999999095391MD1999999+0001REMSYN017333   20200 58000
0115827950999991990111412004-07217-035883FM-12+0560SBKG V0201401N00621007501CN0200001N9+02691+01661101431ADDAA106000091AG10999GF105991051021008001001001KA1240N+02021MA1999999095281MD1999999-0111REMSYN017333   20202 59011
0096827950999991990111418004-07217-035883FM-12+0560SBKG V0201401N00621220001CN0100001N9+03001+01531101031ADDAA106000091AG10999GF104991041021008001001001MA1999999094911MD1999999-0011REMSYN011333   59001
0137827950999991990111612004-07217-035883FM-12+0560SBKG V0200901N00821220001CN0100001N9+02681+01761101271ADDAA106000091AG10999AY121061AY221061GF106991041021008001001011KA1240N+02051MA1999999095121MD1999999-0061MW1051REMSYN017333   20205 59006
0115827950999991990111700004-07217-035883FM-12+0560SBKG V0200901N00411220001CN0020001N9+02171+01821101201ADDAA106000091AG10999GF101991001001999999001021KA1240M+02961MA1999999095061MD1999999-0141REMSYN017333   10296 59014
0118827950999991990111718004-07217-035883FM-12+0560SBKG V0200501N00361045001CN0100001N9+02981+01661100981ADDAA106000091AG10999AY121061AY211061GF106991021011008001041081MA1999999094861MD1999999+0071MW1051REMSYN011333   58007
0115827950999991990111812004-07217-035883FM-12+0560SBKG V0200901N00411045001CN0200001N9+02531+01861101401ADDAA106000091AG10999GF107991031021008001051061KA1240N+02101MA1999999095241MD1999999+0111REMSYN017333   20210 58011
0143827950999991990111912004-07217-035883FM-12+0560SBKG V0200901N00511007501CN0100001N9+02461+01901101331ADDAA124000391AG10999AY161061AY251061GF107991071061008001001001KA1240N+01961MA1999999095171MD1999999-0071MW1051REMSYN023333   20196 59007 69934
0096827950999991990112018004-07217-035883FM-12+0560SBKG V0200501N00311105001CN0100001N9+03021+01661100891ADDAA106000091AG10999GF106991031021008001001021MA1999999094771MD1999999+0021REMSYN011333   58002
0115827950999991990112112004-07217-035883FM-12+0560SBKG V0200901N00311007501CN0100001N9+02491+01801101121ADDAA106000091AG10999GF106991061051008001001001KA1240N+02041MA1999999094971MD1999999-0061REMSYN017333   20204 59006
0096827950999991990112118004-07217-035883FM-12+0560SBKG V0200501N00261220001CN0100001N9+02991+01611100721ADDAA106000091AG10999GF105991031021008001001011MA1999999094611MD1999999-0161REMSYN011333   59016
0096827950999991990112318004-07217-035883FM-12+0560SBKG V0200901N008719999999N0200001N9+02831+01761101021ADDAA106000091AG10999GF105991041001008001001011MA1999999094901MD1999999+0141REMSYN011333   58014
0115827950999991990112412004-07217-035883FM-12+0560SBKG V0200501N00211105001CN0100001N9+02511+01821101591ADDAA106000091AG10999GF106991031021008001001021KA1240N+02031MA1999999095411MD1999999+0201REMSYN017333   20203 58020
0115827950999991990112512004-07217-035883FM-12+0560SBKG V0200901N00211007501CN0100001N9+02531+01761101301ADDAA106000091AG10999GF106991061041008001001001KA1240N+01991MA1999999095141MD1999999-0271REMSYN017333   20199 59027
0134827950999991990112712004-07217-035883FM-12+0560SBKG V0200901N004619999999N9999999N9+02631+01911101271ADDAA106000091AG10999GF106991061021999999001001KA1240N+02141MA1999999095131MD1999999+0121REMSYN017333   20214 58012EQDQ01+000992SCOLCB
0096827950999991990112718004-07217-035883FM-12+0560SBKG V0200501N00511220001CN0100001N9+03001+01911100941ADDAA106000091AG10999GF103991031021008001001001MA1999999094831MD1999999+0181REMSYN011333   58018
0137827950999991990112812004-07217-035883FM-12+0560SBKG V0200501N00311007501CN0100001N9+02701+01831101291ADDAA106000091AG10999AY121061AY221061GF106991061021008001001001KA1240N+02131MA1999999095151MD1999999+0021MW1051REMSYN017333   20213 58002
