0095827980999991990010212004-07100-034867FM-12+0007SBJP V0209999999999007501CN0100001N9+02861+02311999999ADDAA124009091AG10999AY161061AY221061GF105991051091008001001001MW1001REMSYN017333   20/// 60094
0067827980999991990010312004-07100-034867FM-12+0007SBJP V0209999999999007501CN0100001N9+02841+02221999999ADDAA106000091AG10999GF105991051021008001001001REMSYN011333   20///
0067827980999991990010612004-07100-034867FM-12+0007SBJP V0209999999999007501CN0100001N9+02781+02271999999ADDAA106000091AG10999GF105991051021008001001001REMSYN011333   20///
0106827980999991990010712004-07100-034867FM-12+0007SBJP V0209999999999007501CN0040001N9+02801+02221999999ADDAA124000491AA299000591AG10999AY161061AY221061GF105991051071008001001001MW1001REMSYN017333   20/// 69944
0067827980999991990010812004-07100-034867FM-12+0007SBJP V0209999999999007501CN0020001N9+02841+02121999999ADDAA106000091AG10999GF105991051071008001001001REMSYN011333   20///
0051827980999991990011015004-07100-034867FM-12+0007SBJP V0201201N00621007501CN0150001N9+02941+02241999999ADDAG10999GF107991071011008001001001MA1999999101441
0067827980999991990011112004-07100-034867FM-12+0007SBJP V0209999999999007501CN0100001N9+02881+02251999999ADDAA106000091AG10999GF105991051041008001001001REMSYN011333   20///
0095827980999991990011312004-07100-034867FM-12+0007SBJP V0209999999999007501CN0100001N9+02661+02221999999ADDAA124003091AG19001AY161061AY221061GF106991061041008001001001MW1001REMSYN017333   20//2 60034
0051827980999991990011400004-07100-034867FM-12+0007SBJP V0201701N00411220001CN0150001N9+02541+02241999999ADDAG10999GF100991001001999999001001MA1999999101441
0067827980999991990011412004-07100-034867FM-12+0007SBJP V0209999999999007501CN0100001N9+02841+02221999999ADDAA106000091AG10999GF106991061041008001001001REMSYN011333   20///
0067827980999991990011612004-07100-034867FM-12+0007SBJP V0209999999999007501CN0100001N9+02881+02231999999ADDAA106000091AG10999GF105991051041008001001001REMSYN011333   20///
0067827980999991990011812004-07100-034867FM-12+0007SBJP V0209999999999220001CN0100001N9+02961+02331999999ADDAA106000091AG10999GF104991041011008001001001REMSYN011333   20///
0067827980999991990011912004-07100-034867FM-12+0007SBJP V0209999999999007501CN0100001N9+02901+02271999999ADDAA106000091AG10999GF105991051091008001999999REMSYN011333   20///
0095827980999991990012112004-07100-034867FM-12+0007SBJP V0209999999999007501CN0100001N9+02821+02271999999ADDAA124002091AG10999AY161061AY221061GF105991051021008001001001MW1001REMSYN017333   20/// 60024
0078827980999991990012118004-07100-034867FM-12+0007SBJP V02099999999999999999N0500001N9+02921+02201999999ADDAA106000091AG10999GF105991999001008001001001REMSYN003333EQDQ01+000022SCOTLC
0095827980999991990012212004-07100-034867FM-12+0007SBJP V0209999999999007501CN0100001N9+02681+02371999999ADDAA124002091AG10999AY161061AY221061GF108991081091008001001001MW1001REMSYN017333   20/// 60024
0082827980999991990012512004-07100-034867FM-12+0007SBJP V0209999999999220001CN0100001N9+02901+02201999999ADDAA106000091AG10999GF104991041021008001001001MA1999999100001REMSYN011333   20///
0067827980999991990012612004-07100-034867FM-12+0007SBJP V0209999999999012001CN0040001N9+02881+02231999999ADDAA106000091AG10999GF105991051081008001001001REMSYN011333   20///
0051827980999991990012703004-07100-034867FM-12+0007SBJP V0202001N00261045001CN0150001N9+02541+02441999999ADDAG10999GF107991041011008001021001MA1999999101341
0065827980999991990012706004-07100-034867FM-12+0007SBJP V0202101N00261045001CN0150001N9+02441+02441999999ADDAG10999GF107991031011004501021001MA1999999101241MD1710101+9999
0095827980999991990012712004-07100-034867FM-12+0007SBJP V0209999999999007501CN0020001N9+02801+02271999999ADDAA124004091AG10999AY161061AY221061GF108991081091008001999999MW1001REMSYN017333   20/// 60044
0059827980999991990012718004-07100-034867FM-12+0007SBJP V0209999999999007501CN0040001N9+02801+02261999999ADDAA106000091AG10999GF108991081091008001999999REMSYN003333
0051827980999991990012900004-07100-034867FM-12+0007SBJP V0201601N00361220001CN0150001N9+02541+02241999999ADDAG10999GF102991021011008001001001MA1999999101241
0095827980999991990012912004-07100-034867FM-12+0007SBJP V0209999999999007501CN0100001N9+02801+02251999999ADDAA124000091AG10999AY161061AY221061GF106991061091008001001001MW1001REMSYN017333   20/// 60004
0067827980999991990013112004-07100-034867FM-12+0007SBJP V0209999999999007501CN0100001N9+02901+02341999999ADDAA106000091AG10999GF106991061041008001001001REMSYN011333   20///
0096827980999991990013118004-07100-034867FM-12+0007SBJP V0200901N00511045001CN0200001N9+03021+01861101011ADDAA106000091AG10999GF106991031021008001021001MA1999999094901MD1999999+0061REMSYN011333   58006
0067827980999991990020212004-07100-034867FM-12+0007SBJP V0209999999999007501CN0100001N9+02861+02541999999ADDAA106000091AG10999GF106991061041008001001001REMSYN011333   20///
0067827980999991990020312004-07100-034867FM-12+0007SBJP V0209999999999220001CN0550001N9+02881+02231999999ADDAA106000091AG10999GF104991041021008001001001REMSYN011333   20///
0067827980999991990020512004-07100-034867FM-12+0007SBJP V0209999999999007501CN0100001N9+02901+02201999999ADDAA106000091AG10999GF105991051021008001001001REMSYN011333   20///
0067827980999991990020612004-07100-034867FM-12+0007SBJP V0209999999999220001CN0020001N9+02901+02221999999ADDAA106000091AG10999GF104991041081008001001001REMSYN011333   20///
0067827980999991990020712004-07100-034867FM-12+0007SBJP V0209999999999007501CN0040001N9+02881+02211999999ADDAA106000091AG10999GF105991051021008001001001REMSYN011333   20///
0059827980999991990020818004-07100-034867FM-12+0007SBJP V0209999999999007501CN0040001N9+02901+02241999999ADDAA106000091AG10999GF106991061071008001001001REMSYN003333
0095827980999991990020912004-07100-034867FM-12+0007SBJP V0209999999999007501CN0100001N9+02691+02391999999ADDAA124090091AG10999AY161061AY221061GF108991081001008001021999MW1001REMSYN017333   20/// 60904
0108827980999991990021000004-07100-034867FM-12+0007SBJP V0209999999999007501CN0040001N9+02541+02231999999ADDAA106001091AG10999AY161061AY221061GF108991081091008001999999KA1240M+02841MW1001REMSYN017333   10284 60011
0067827980999991990021312004-07100-034867FM-12+0007SBJP V0209999999999220001CN0100001N9+02901+02341999999ADDAA106000091AG10999GF104991041011008001001001REMSYN011333   20///
0059827980999991990021318004-07100-034867FM-12+0007SBJP V0209999999999007501CN0100001N9+02841+02241999999ADDAA106000091AG10999GF108991081041008001001001REMSYN003333
0067827980999991990021412004-07100-034867FM-12+0007SBJP V0209999999999007501CN0200001N9+02901+02341999999ADDAA106000091AG10999GF105991051021008001001001REMSYN011333   20///
0059827980999991990021418004-07100-034867FM-12+0007SBJP V0209999999999007501CN0100001N9+02941+02201999999ADDAA106000091AG10999GF105991051021008001001001REMSYN003333
0067827980999991990021512004-07100-034867FM-12+0007SBJP V0209999999999007501CN0040001N9+02881+02321999999ADDAA106000091AG10999GF105991051071008001001001REMSYN011333   20///
0067827980999991990021612004-07100-034867FM-12+0007SBJP V0209999999999007501CN0100001N9+02841+02291999999ADDAA106000091AG10999GF105991051041008001001001REMSYN011333   20///
0067827980999991990021712004-07100-034867FM-12+0007SBJP V0209999999999007501CN0040001N9+02881+02251999999ADDAA106000091AG10999GF105991051071008001001001REMSYN011333   20///
0059827980999991990021718004-07100-034867FM-12+0007SBJP V0209999999999220001CN0040001N9+02941+02361999999ADDAA106000091AG10999GF104991041081008001001001REMSYN003333
0067827980999991990021912004-07100-034867FM-12+0007SBJP V0209999999999007501CN0100001N9+02901+02201999999ADDAA106000091AG10999GF105991051021008001001001REMSYN011333   20///
0059827980999991990021918004-07100-034867FM-12+0007SBJP V0209999999999007501CN0100001N9+02941+02201999999ADDAA106000091AG10999GF105991051021008001001001REMSYN003333
0067827980999991990022012004-07100-034867FM-12+0007SBJP V0209999999999007501CN0100001N9+02931+02291999999ADDAA106000091AG10999GF105991051011008001001001REMSYN011333   20///
0067827980999991990022112004-07100-034867FM-12+0007SBJP V0209999999999007501CN0100001N9+02921+02221999999ADDAA106000091AG10999GF105991051011008001999999REMSYN011333   20///
0067827980999991990022212004-07100-034867FM-12+0007SBJP V0209999999999007501CN0100001N9+02821+02271999999ADDAA106000091AG10999GF105991051021008001001001REMSYN011333   20///
0067827980999991990022312004-07100-034867FM-12+0007SBJP V0209999999999007501CN0100001N9+02901+02271999999ADDAA106000091AG10999GF105991051021008001001001REMSYN011333   20///
0059827980999991990022318004-07100-034867FM-12+0007SBJP V0209999999999007501CN0200001N9+02941+02201999999ADDAA106000091AG10999GF105991051021008001001001REMSYN003333
0059827980999991990022418004-07100-034867FM-12+0007SBJP V0209999999999007501CN0040001N9+02941+02241999999ADDAA106000091AG10999GF105991051021008001001001REMSYN003333
0106827980999991990022512004-07100-034867FM-12+0007SBJP V0209999999999007501CN0040001N9+02741+02451999999ADDAA124000291AA299000391AG10999AY161061AY221061GF106991061091008001001001MW1001REMSYN017333   20/// 69924
0095827980999991990022612004-07100-034867FM-12+0007SBJP V0209999999999007501CN0100001N9+02781+02341999999ADDAA124024091AG10999AY161061AY221061GF108991081091008001999999MW1001REMSYN017333   20/// 60244
0095827980999991990022712004-07100-034867FM-12+0007SBJP V0209999999999007501CN0100001N9+02861+02281999999ADDAA124010091AG10999AY161061AY221061GF105991051041008001001001MW1001REMSYN017333   20/// 60104
0059827980999991990022718004-07100-034867FM-12+0007SBJP V0209999999999007501CN0100001N9+99999+99999999999ADDAA106000091AG10999GF105991051021008001001001REMSYN003333
0095827980999991990022812004-07100-034867FM-12+0007SBJP V0209999999999007501CN0040001N9+02601+02311999999ADDAA124005091AG10999AY161061AY221061GF108991081091008001999999MW1211REMSYN017333   20/// 60054
0059827980999991990030118004-07100-034867FM-12+0007SBJP V0209999999999007501CN0200001N9+02961+02341999999ADDAA106000091AG10999GF105991051021008001001001REMSYN003333
0067827980999991990030212004-07100-034867FM-12+0007SBJP V0209999999999220001CN0200001N9+02901+02201999999ADDAA106000091AG10999GF104991041011008001001001REMSYN011333   20///
0067827980999991990030412004-07100-034867FM-12+0007SBJP V0209999999999220001CN0100001N9+02881+02201999999ADDAA106000091AG10999GF104991041011008001001001REMSYN011333   20///
0067827980999991990030512004-07100-034867FM-12+0007SBJP V0209999999999012001CN0040001N9+02881+02251999999ADDAA106000091AG10999GF105991051081008001001001REMSYN011333   20///
0067827980999991990030612004-07100-034867FM-12+0007SBJP V0209999999999007501CN0100001N9+99999+99999999999ADDAA106000091AG10999GF106991061091008001001001REMSYN011333   20///
0059827980999991990030618004-07100-034867FM-12+0007SBJP V0209999999999007501CN0100001N9+02971+02201999999ADDAA106000091AG10999GF105991051021008001001001REMSYN003333
0067827980999991990030712004-07100-034867FM-12+0007SBJP V0209999999999007501CN0100001N9+02931+02381999999ADDAA106000091AG10999GF105991051021008001001001REMSYN011333   20///
0081827980999991990030718004-07100-034867FM-12+0007SBJP V0201401N00261220001CN0200001N9+03261+01841101041ADDAA106000091AG10999GF102991021021012501001001MD1999999-0031REMSYN011333   59003
0067827980999991990031012004-07100-034867FM-12+0007SBJP V0209999999999007501CN0100001N9+02941+02331999999ADDAA106000091AG10999GF105991051021008001001001REMSYN011333   20///
0059827980999991990031018004-07100-034867FM-12+0007SBJP V0209999999999007501CN0200001N9+02871+02201999999ADDAA106000091AG10999GF108991081041008001001001REMSYN003333
0067827980999991990031412004-07100-034867FM-12+0007SBJP V02099999999999999999N0100001N9+02941+02331999999ADDAA106000091AG10999GF105991051001008001001001REMSYN011333   20///
0067827980999991990031512004-07100-034867FM-12+0007SBJP V0209999999999007501CN0100001N9+02941+02361999999ADDAA106000091AG10999GF105991051011008001001001REMSYN011333   20///
0067827980999991990031712004-07100-034867FM-12+0007SBJP V0209999999999007501CN0100001N9+02801+02421999999ADDAA106000091AG10999GF106991061041008001001001REMSYN011333   20///
0067827980999991990031812004-07100-034867FM-12+0007SBJP V0209999999999220001CN0020001N9+02881+02231999999ADDAA106000091AG10999GF104991041021008001001001REMSYN011333   20///
0122827980999991990031912004-07100-034867FM-12+0007SBJP V0209991C00001220001CN0040001N9+03301+01011100791ADDAA106000091AG10999AY101061AY201061GF100991001001999999001001KA1240M+03571MD1999999-0251MW1051REMSYN017333   10357 59025
0074827980999991990031918004-07100-034867FM-12+0007SBJP V0209999999999220001CN0100001N9+02961+02321999999ADDAA106000091AG10999GF104991041021008001001001MA1999999100001REMSYN003333
0073827980999991990032012004-07100-034867FM-12+0007SBJP V0209999999999007501CN0100001N9+02881+02441999999ADDAA106000091AG10999GF108991081091008001001001REMSYN017333   20/// 50///
0059827980999991990032118004-07100-034867FM-12+0007SBJP V0209999999999220001CN0100001N9+02981+02301999999ADDAA106000091AG10999GF104991041011008001001001REMSYN003333
0067827980999991990032212004-07100-034867FM-12+0007SBJP V0209999999999007501CN0100001N9+02941+02261999999ADDAA106000091AG10999GF105991051021008001001001REMSYN011333   20///
0059827980999991990032218004-07100-034867FM-12+0007SBJP V0209999999999007501CN0100001N9+02961+02331999999ADDAA106000091AG10999GF106991061041008001001001REMSYN003333
0067827980999991990032312004-07100-034867FM-12+0007SBJP V0209999999999007501CN0100001N9+02991+02341999999ADDAA106000091AG10999GF105991051021008001001001REMSYN011333   20///
0067827980999991990032412004-07100-034867FM-12+0007SBJP V0209999999999012001CN0100001N9+03001+02421999999ADDAA106000091AG10999GF105991051081008001001001REMSYN011333   20///
0059827980999991990032418004-07100-034867FM-12+0007SBJP V0209999999999220001CN0040001N9+03021+02391999999ADDAA106000091AG10999GF104991041081008001001001REMSYN003333
0095827980999991990032512004-07100-034867FM-12+0007SBJP V0209999999999007501CN0100001N9+02981+02351999999ADDAA124002091AG10999AY161061AY221061GF105991051041008001001001MW1001REMSYN017333   20/// 60024
0059827980999991990032518004-07100-034867FM-12+0007SBJP V0209999999999220001CN0200001N9+02971+02241999999ADDAA106000091AG10999GF103991031011008001001001REMSYN003333
0067827980999991990032612004-07100-034867FM-12+0007SBJP V0209999999999220001CN0100001N9+02981+02331999999ADDAA106000091AG10999GF104991041021008001001001REMSYN011333   20///
0059827980999991990032618004-07100-034867FM-12+0007SBJP V0209999999999007501CN0100001N9+02981+02251999999ADDAA106000091AG10999GF105991051021008001001001REMSYN003333
0067827980999991990032912004-07100-034867FM-12+0007SBJP V0209999999999007501CN0100001N9+02961+02181999999ADDAA106000091AG10999GF105991051021008001001001REMSYN011333   20///
0067827980999991990033012004-07100-034867FM-12+0007SBJP V0209999999999007501CN0100001N9+02961+02131999999ADDAA106000091AG10999GF105991051011008001001001REMSYN011333   20///
0095827980999991990033112004-07100-034867FM-12+0007SBJP V0209999999999007501CN0100001N9+02601+02011999999ADDAA124003091AG10999AY161061AY221061GF108991081001008001021999MW1211REMSYN017333   20/// 60034
0095827980999991990040312004-07100-034867FM-12+0007SBJP V0209999999999007501CN0100001N9+02881+02411999999ADDAA124003091AG10999AY161061AY221061GF105991051091008001001001MW1001REMSYN017333   20/// 60034
0095827980999991990040412004-07100-034867FM-12+0007SBJP V0209999999999007501CN0040001N9+02901+02481999999ADDAA124033091AG10999AY161061AY221061GF106991061091008001001001MW1001REMSYN017333   20/// 60334
0059827980999991990040418004-07100-034867FM-12+0007SBJP V0209999999999220001CN0100001N9+02981+02371999999ADDAA106000091AG10999GF104991041011008001001001REMSYN003333
0067827980999991990040512004-07100-034867FM-12+0007SBJP V0209999999999007501CN0100001N9+02971+02441999999ADDAA106000091AG10999GF105991051041008001001001REMSYN011333   20///
0067827980999991990040612004-07100-034867FM-12+0007SBJP V0209999999999007501CN0100001N9+02971+02371999999ADDAA106000091AG10999GF105991051021008001001001REMSYN011333   20///
0067827980999991990040712004-07100-034867FM-12+0007SBJP V0209999999999007501CN0100001N9+02971+02321999999ADDAA106000091AG10999GF105991051021008001001001REMSYN011333   20///
0059827980999991990040818004-07100-034867FM-12+0007SBJP V0209999999999220001CN0100001N9+02991+02321999999ADDAA106000091AG10999GF104991041011008001001001REMSYN003333
0073827980999991990041012004-07100-034867FM-12+0007SBJP V0209999999999007501CN0100001N9+02981+02331999999ADDAA106000091AG10999GF105991051021008001001001REMSYN017333   20/// 50///
0067827980999991990041112004-07100-034867FM-12+0007SBJP V0209999999999007501CN0100001N9+02921+02221999999ADDAA106000091AG10999GF105991051021008001001001REMSYN011333   20///
0059827980999991990041118004-07100-034867FM-12+0007SBJP V0209999999999007501CN0200001N9+02981+02241999999ADDAA106000091AG10999GF105991051021008001001001REMSYN003333
0067827980999991990041212004-07100-034867FM-12+0007SBJP V0209999999999220001CN0100001N9+02981+02241999999ADDAA106000091AG10999GF104991041021008001001001REMSYN011333   20///
0059827980999991990041218004-07100-034867FM-12+0007SBJP V0209999999999007501CN0100001N9+03001+02191999999ADDAA106000091AG10999GF105991051021008001001001REMSYN003333
0067827980999991990041312004-07100-034867FM-12+0007SBJP V0209999999999220001CN0100001N9+03001+02081999999ADDAA106000091AG10999GF104991041011008001001001REMSYN011333   20///
0067827980999991990041412004-07100-034867FM-12+0007SBJP V0209999999999220001CN0100001N9+02991+02141999999ADDAA106000091AG10999GF104991041011008001001001REMSYN011333   20///
0059827980999991990041418004-07100-034867FM-12+0007SBJP V0209999999999220001CN0100001N9+03001+02121999999ADDAA106000091AG10999GF103991031021008001001001REMSYN003333
0067827980999991990041512004-07100-034867FM-12+0007SBJP V0209999999999007501CN0100001N9+02961+02281999999ADDAA106000091AG10999GF105991051021008001001001REMSYN011333   20///
0059827980999991990041518004-07100-034867FM-12+0007SBJP V0209999999999007501CN0100001N9+02981+02111999999ADDAA106000091AG10999GF106991061021008001001001REMSYN003333
0067827980999991990041612004-07100-034867FM-12+0007SBJP V0209999999999007501CN0200001N9+02991+02321999999ADDAA106000091AG10999GF105991051011008001001001REMSYN011333   20///
0067827980999991990041712004-07100-034867FM-12+0007SBJP V0209999999999007501CN0100001N9+03001+01111999999ADDAA106000091AG10999GF105991051091008001001001REMSYN011333   20///
0095827980999991990041812004-07100-034867FM-12+0007SBJP V0209999999999007501CN0040001N9+99999+99999999999ADDAA124062091AG10999AY161061AY221061GF108991081001008001021999MW1211REMSYN017333   20/// 60624
0089827980999991990041818004-07100-034867FM-12+0007SBJP V0209999999999007501CN0040001N9+02421+02301999999ADDAA106079091AG10999AY161061AY221061GF108991081001008001021999MW1211REMSYN011333   60791
0059827980999991990041918004-07100-034867FM-12+0007SBJP V0209999999999007501CN0100001N9+02901+02201999999ADDAA106000091AG10999GF105991051021008001001001REMSYN003333
0095827980999991990042012004-07100-034867FM-12+0007SBJP V0209999999999007501CN0100001N9+02921+02261999999ADDAA124003091AG10999AY161061AY221061GF105991051021008001001001MW1001REMSYN017333   20/// 60034
0059827980999991990042018004-07100-034867FM-12+0007SBJP V0209999999999007501CN0100001N9+02961+02241999999ADDAA106000091AG10999GF105991051011008001001001REMSYN003333
0103827980999991990042106004-07100-034867FM-12+0007SBJP V0202301N00101220001CN0040001N9+03961+01251100231ADDAA106000091AG10999AY101061AY201061GF100991001001999999001001MD1999999+0261MW1051REMSYN011333   58026
0095827980999991990042612004-07100-034867FM-12+0007SBJP V0209999999999007501CN0100001N9+02501+02451999999ADDAA124090091AG10999AY161061AY211061GF108991081001008001021999MW1211REMSYN017333   20/// 60904
0108827980999991990043000004-07100-034867FM-12+0007SBJP V0209999999999007501CN0040001N9+02721+02241999999ADDAA106003091AG10999AY161061AY221061GF107991071091008001999999KA1240M+02961MW1001REMSYN017333   10296 60031
0089827980999991990043018004-07100-034867FM-12+0007SBJP V0209999999999007501CN0100001N9+02901+02341999999ADDAA106002091AG10999AY161061AY221061GF108991081091008001999999MW1001REMSYN011333   60021
0059827980999991990050318004-07100-034867FM-12+0007SBJP V0201401N00311007501CN0100001N9+02991+02201999999ADDAA106000091AG10999GF105991051021008001001001REMSYN003333
0080827980999991990050412004-07100-034867FM-12+0007SBJP V0201801N00211007501CN0100001N9+02821+02311999999ADDAA106000091AG10999GF105991051091008001001001KA1240N+02221REMSYN011333   20222
0059827980999991990050418004-07100-034867FM-12+0007SBJP V0201801N00261220001CN0100001N9+02981+02221999999ADDAA106000091AG10999GF104991041011008001001001REMSYN003333
0080827980999991990050512004-07100-034867FM-12+0007SBJP V0209999999999220001CN0100001N9+02881+02301999999ADDAA106000091AG10999GF104991041021008001001001KA1240N+02201REMSYN011333   20220
0059827980999991990050618004-07100-034867FM-12+0007SBJP V0201401N00311220001CN0100001N9+02991+02191999999ADDAA106000091AG10999GF104991041011008001001001REMSYN003333
0080827980999991990050912004-07100-034867FM-12+0007SBJP V0201401N00261220001CN0100001N9+02881+02131999999ADDAA106000091AG10999GF104991041011008001001001KA1240N+02281REMSYN011333   20228
0095827980999991990051012004-07100-034867FM-12+0007SBJP V0201401N00151007501CN0100001N9+02871+02391999999ADDAA124003091AG10999AY161061AY221061GF105991051021008001001001MW1001REMSYN017333   20/// 60034
0059827980999991990051018004-07100-034867FM-12+0007SBJP V0201401N00311220001CN0100001N9+02981+02191999999ADDAA106000091AG10999GF104991041021008001001001REMSYN003333
0101827980999991990051100004-07100-034867FM-12+0007SBJP V0200501N00101220001CN9999999N9+02641+01721101021ADDAA106000091AG10999GF100991001001999999001001KA1240M+03491MA1999999098501REMSYN017333   10349 5900/
0095827980999991990051112004-07100-034867FM-12+0007SBJP V0201401N00261007501CN0040001N9+02641+02441999999ADDAA124019091AG10999AY161061AY221061GF108991081001008001021999MW1211REMSYN017333   20/// 60194
0080827980999991990051312004-07100-034867FM-12+0007SBJP V0201801N00261007501CN0100001N9+02821+02271999999ADDAA106000091AG10999GF105991051041008001001001KA1240N+02291REMSYN011333   20229
0080827980999991990051412004-07100-034867FM-12+0007SBJP V0201401N00261007501CN0200001N9+02761+02501999999ADDAA106000091AG10999GF105991051091008001001001KA1240N+01801REMSYN011333   20180
0059827980999991990051418004-07100-034867FM-12+0007SBJP V0201401N00261007501CN0100001N9+02861+02441999999ADDAA106000091AG10999GF105991051021008001001001REMSYN003333
0108827980999991990051512004-07100-034867FM-12+0007SBJP V0201401N00151007501CN0200001N9+02821+02381999999ADDAA124017091AG10999AY161061AY221061GF106991061091008001001001KA1240N+02291MW1001REMSYN017333   20229 60174
0059827980999991990051518004-07100-034867FM-12+0007SBJP V0201401N00311007501CN0100001N9+02991+02491999999ADDAA106000091AG10999GF106991061091008001001001REMSYN003333
0108827980999991990051712004-07100-034867FM-12+0007SBJP V0201401N00151007501CN0040001N9+02561+02351999999ADDAA124013091AG10999AY161061AY221061GF108991081001008001021999KA1240N+01701MW1211REMSYN017333   20170 60134
0100827980999991990051718004-07100-034867FM-12+0007SBJP V0201401N00261007501CN0040001N9+02901+02701999999ADDAA106000291AA299000391AG10999AY161061AY221061GF108991081091008001999999MW1001REMSYN011333   69921
0108827980999991990052612004-07100-034867FM-12+0007SBJP V0209991C00001007501CN0100001N9+02501+02381999999ADDAA124058091AG10999AY161061AY221061GF108991081091008001999999KA1240N+02281MW1001REMSYN017333   20228 60584
0108827980999991990052712004-07100-034867FM-12+0007SBJP V0201401N00311007501CN0100001N9+02781+02271999999ADDAA124062091AG10999AY161061AY221061GF105991051091008001001001KA1240N+02241MW1001REMSYN017333   20224 60624
0108827980999991990052912004-07100-034867FM-12+0007SBJP V0201401N00151007501CN0100001N9+02541+02401999999ADDAA124046091AG19001AY161061AY221061GF108991081001008001021999KA1240N+02101MW1001REMSYN017333   20210 60464
0059827980999991990053118004-07100-034867FM-12+0007SBJP V0201401N00311007501CN0100001N9+02781+02301999999ADDAA106000091AG10999GF105991051041008001001001REMSYN003333
0108827980999991990060112004-07100-034867FM-12+0007SBJP V0201401N00311007501CN0100001N9+02621+02371999999ADDAA124004091AG10999AY161061AY221061GF105991051041008001001001KA1240N+02201MW1001REMSYN017333   20220 60044
0059827980999991990060118004-07100-034867FM-12+0007SBJP V0201401N00261007501CN0100001N9+02841+02261999999ADDAA106000091AG10999GF106991061091008001001001REMSYN003333
0086827980999991990060212004-07100-034867FM-12+0007SBJP V0201401N00261007501CN0100001N9+02841+02311100001ADDAA124033091AG10999GF105991051041008001001001KA1240N+02121REMSYN017333   20212 60334
0108827980999991990060312004-07100-034867FM-12+0007SBJP V0201401N00261007501CN0040001N9+02471+02341999999ADDAA124047091AG10999AY161061AY221061GF108991081001008001021999KA1240N+02281MW1001REMSYN017333   20228 60474
0127827980999991990060412004-07100-034867FM-12+0007SBJP V0201401N003119999999N9999999N9+02781+02211999999ADDAA124024091AG10999AY161061AY221061GF106991061091999999001001KA1240N+02141MW1001REMSYN017333   20214 60244EQDQ01+000992SCOLCB
0100827980999991990060418004-07100-034867FM-12+0007SBJP V0201401N00151007501CN0100001N9+02691+02301999999ADDAA106000891AA299001091AG10999AY161061AY221061GF108991081091008001001001MW1001REMSYN011333   69981
0108827980999991990060512004-07100-034867FM-12+0007SBJP V0201401N00261007501CN0100001N9+02601+02331999999ADDAA124005091AG10999AY161061AY221061GF106991061041008001001001KA1240N+02191MW1211REMSYN017333   20219 60054
0089827980999991990060518004-07100-034867FM-12+0007SBJP V0201401N00311007501CN0100001N9+02661+02331999999ADDAA106000591AG10999AY161061AY221061GF108991081091008001001001MW1001REMSYN011333   69951
0123827980999991990060603004-07100-034867FM-12+0007SBJP V0202701N000519999999N0070001N9+01251+01231099731ADDAG10999AY161031AY261031GF108991999999004501999999MD1210882+9999MW1611REMSYN023555   20116 86172 3021/EQDQ01+000882APC3  
0089827980999991990060618004-07100-034867FM-12+0007SBJP V0201401N00261007501CN0040001N9+02421+02331999999ADDAA106008091AG10999AY161061AY221061GF108991081001008001021999MW1211REMSYN011333   60081
0108827980999991990060712004-07100-034867FM-12+0007SBJP V0201401N00311007501CN0100001N9+02641+02251999999ADDAA115701092AG10999AY161061AY221061GF105991051041008001001001KA1240N+02301MW1001REMSYN017333   20230 67019
0119827980999991990060812004-07100-034867FM-12+0007SBJP V0201401N00311007501CN0100001N9+02701+02281999999ADDAA106000491AA299000591AG10999AY161061AY221061GF105991051091008001001001KA1240N+02281MW1001REMSYN017333   20228 69941
0059827980999991990060818004-07100-034867FM-12+0007SBJP V0201001N02361007501CN0100001N9+02791+02271999999ADDAA106000091AG10999GF105991051041008001001001REMSYN003333
0108827980999991990060912004-07100-034867FM-12+0007SBJP V0201401N00151007501CN0100001N9+02461+02391999999ADDAA124030091AG10999AY161061AY221061GF108991081091008001001001KA1240N+02101MW1001REMSYN017333   20210 60304
0108827980999991990061012004-07100-034867FM-12+0007SBJP V0201401N00261007501CN0100001N9+02661+02311999999ADDAA124016091AG10999AY161061AY221061GF105991051041008001001001KA1240N+02101MW1001REMSYN017333   20210 60164
0100827980999991990061018004-07100-034867FM-12+0007SBJP V0201401N00311007501CN0100001N9+02781+02091999999ADDAA106000291AA299000391AG10999AY161061AY221061GF107991071091008001001001MW1001REMSYN011333   69921
0108827980999991990061112004-07100-034867FM-12+0007SBJP V0201401N00261007501CN0100001N9+02701+02281999999ADDAA124002091AG10999AY161061AY221061GF105991051041008001001001KA1240N+02191MW1001REMSYN017333   20219 60024
0119827980999991990061212004-07100-034867FM-12+0007SBJP V0201401N00361007501CN0100001N9+02561+02231999999ADDAA124000291AA299000391AG10999AY161061AY221061GF107991071091008001001001KA1240N+02281MW1001REMSYN017333   20228 69924
0059827980999991990061218004-07100-034867FM-12+0007SBJP V0201401N00311220001CN0100001N9+02811+02001999999ADDAA106000091AG10999GF104991041011008001001001REMSYN003333
0080827980999991990061312004-07100-034867FM-12+0007SBJP V0201401N00261007501CN0100001N9+02901+02201999999ADDAA106000091AG10999GF105991051021008001001001KA1240N+02241REMSYN011333   20224
0100827980999991990061318004-07100-034867FM-12+0007SBJP V0201401N00151007501CN0100001N9+02501+02331999999ADDAA106000491AA299000591AG10999AY161061AY221061GF108991081091008001001001MW1211REMSYN011333   69941
0138827980999991990061412004-07100-034867FM-12+0007SBJP V0209991C00001007501CN0100001N9+02601+02271999999ADDAA106999999AA224034091AG10999AY161061AY221061GF106991061041008001001001KA1240N+02201MW1211REMSYN017333   20220 60344EQDQ01  00002PRCP06
0059827980999991990061418004-07100-034867FM-12+0007SBJP V0201401N00411007501CN0100001N9+02801+02151999999ADDAA106000091AG10999GF105991051021008001001001REMSYN003333
0097827980999991990061512004-07100-034867FM-12+0007SBJP V0201401N00311007501CN0100001N9+02701+02221999999ADDAA106000091AA224001091AG10999GF105991051091008001001001KA1240N+02301REMSYN017333   20230 60014
0059827980999991990061518004-07100-034867FM-12+0007SBJP V0201401N00311220001CN0100001N9+02801+02111999999ADDAA106000091AG10999GF104991041011008001001001REMSYN003333
0080827980999991990061612004-07100-034867FM-12+0007SBJP V0201401N00151220001CN0100001N9+02701+02241999999ADDAA106000091AG10999GF104991041011008001001001KA1240N+02191REMSYN011333   20219
0059827980999991990061618004-07100-034867FM-12+0007SBJP V0201401N00311220001CN0100001N9+02801+02201999999ADDAA106000091AG10999GF104991041021008001001001REMSYN003333
0108827980999991990061712004-07100-034867FM-12+0007SBJP V0201401N00311007501CN0100001N9+02601+02311999999ADDAA199034091AG10999AY161061AY221061GF108991081091008001001001KA1240N+02241MW1001REMSYN017333   20224 6034/
0089827980999991990061718004-07100-034867FM-12+0007SBJP V0209991C00001007501CN0100001N9+02401+02231999999ADDAA106018091AG19043AY161061AY221061GF108991081001008001021999MW1211REMSYN011333   60181
0108827980999991990061812004-07100-034867FM-12+0007SBJP V0201801N00211007501CN0100001N9+02521+02151999999ADDAA124018091AG19001AY161061AY221061GF108991081091008001001001KA1240N+02281MW1001REMSYN017333   20228 60184
0081827980999991990061818004-07100-034867FM-12+0007SBJP V0201801N00261007501CN0100001N9+02651+02331999999ADDAA106000091AG10999AY161061AY221061GF108991081091008001001001MW1001REMSYN003333
0059827980999991990061918004-07100-034867FM-12+0007SBJP V0201401N00311007501CN0100001N9+02721+02121999999ADDAA106000091AG10999GF105991051021008001001001REMSYN003333
0080827980999991990062012004-07100-034867FM-12+0007SBJP V0201401N00311007501CN0100001N9+02801+02081999999ADDAA106000091AG10999GF105991051021008001001001KA1240N+02301REMSYN011333   20230
0059827980999991990062018004-07100-034867FM-12+0007SBJP V0201401N00411220001CN0100001N9+02841+02121999999ADDAA106000091AG10999GF104991041011008001001001REMSYN003333
0059827980999991990062112004-07100-034867FM-12+0007SBJP V0201801N00261007501CN0100001N9+02711+02301999999ADDAA106000091AG10999GF105991051021008001001001REMSYN003333
0080827980999991990062212004-07100-034867FM-12+0007SBJP V0201401N00311220001CN0100001N9+02801+02181999999ADDAA106000091AG10999GF104991041011008001001001KA1240N+02101REMSYN011333   20210
0059827980999991990062218004-07100-034867FM-12+0007SBJP V0201401N00311007501CN0100001N9+02801+02251999999ADDAA106000091AG10999GF105991051041008001001001REMSYN003333
0080827980999991990062312004-07100-034867FM-12+0007SBJP V0201401N00151007501CN0100001N9+02801+02251999999ADDAA106000091AG10999GF105991051021008001001001KA1240N+02191REMSYN011333   20219
0059827980999991990062318004-07100-034867FM-12+0007SBJP V0201401N00411220001CN0100001N9+02901+02271999999ADDAA106000091AG10999GF104991041011008001001001REMSYN003333
0080827980999991990062412004-07100-034867FM-12+0007SBJP V0201401N00411007501CN0100001N9+02741+02021999999ADDAA106000091AG10999GF105991051021008001001001KA1240N+02211REMSYN011333   20221
0059827980999991990062418004-07100-034867FM-12+0007SBJP V0201401N00311220001CN0100001N9+02841+02071999999ADDAA106000091AG10999GF104991041011008001001001REMSYN003333
0108827980999991990062512004-07100-034867FM-12+0007SBJP V0201401N00411007501CN0100001N9+02801+02251999999ADDAA124009091AG10999AY161061AY221061GF106991061041008001001001KA1240N+01951MW1211REMSYN017333   20195 60094
0059827980999991990062518004-07100-034867FM-12+0007SBJP V0201401N00311007501CN0100001N9+02901+02201999999ADDAA106000091AG10999GF105991051021008001001001REMSYN003333
0108827980999991990062712004-07100-034867FM-12+0007SBJP V0201401N00411007501CN0100001N9+02801+02061999999ADDAA124009091AG10999AY161061AY221061GF105991051021008001001001KA1240N+02211MW1001REMSYN017333   20221 60094
0059827980999991990062718004-07100-034867FM-12+0007SBJP V0201401N00311220001CN0100001N9+02941+02191999999ADDAA106000091AG10999GF104991041011008001001001REMSYN003333
0091827980999991990062812004-07100-034867FM-12+0007SBJP V0201401N00311007501CN0100001N9+02501+02131999999ADDAG10999AY161061AY221061GF108991081001008001021999KA1240N+02101MW1001REMSYN011333   20210
0089827980999991990062818004-07100-034867FM-12+0007SBJP V0201401N00051007501CN0100001N9+02801+02191999999ADDAA106000391AG10999AY161061AY221061GF105991051021008001001001MW1001REMSYN011333   69931
0108827980999991990062912004-07100-034867FM-12+0007SBJP V0200501N00261007501CN0100001N9+02501+02341999999ADDAA124028091AG10999AY161061AY221061GF106991061091008001001001KA1240N+01981MW1001REMSYN017333   20198 60284
0089827980999991990062918004-07100-034867FM-12+0007SBJP V0201401N00511007501CN0100001N9+02701+02411999999ADDAA112005091AG19001AY161061AY221061GF108991081001008001021999MW1001REMSYN011333   60052
0108827980999991990063012004-07100-034867FM-12+0007SBJP V0201401N00311007501CN0100001N9+02801+02251999999ADDAA124010091AG10999AY161061AY221061GF107991071021008001001001KA1240N+02141MW1001REMSYN017333   20214 60104
0108827980999991990070112004-07100-034867FM-12+0007SBJP V0201401N00311007501CN0100001N9+02601+02331999999ADDAA124003091AG10999AY161061AY221061GF107991071041008001001001KA1240N+02121MW1001REMSYN017333   20212 60034
0089827980999991990070118004-07100-034867FM-12+0007SBJP V0201401N00411007501CN0100001N9+02801+02291999999ADDAA106001091AG10999AY161061AY221061GF106991061021008001001001MW1001REMSYN011333   60011
0086827980999991990070512004-07100-034867FM-12+0007SBJP V0201801N00261007501CN0100001N9+02701+02281999999ADDAA106000091AG10999GF105991051021008001001001KA1240N+02121REMSYN017333   20212 50///
0059827980999991990070518004-07100-034867FM-12+0007SBJP V0201401N00511007501CN0100001N9+02701+02221999999ADDAA106000091AG10999GF105991051011008001001001REMSYN003333
0134827980999991990070712004-07100-034867FM-12+0007SBJP V0201401N00311220001CN0100001N9+02801+02251999999ADDAA124000491AA299000591AG10999AY161061AY221061GF104991041021008001001001KA1240N+02131MA1999999100001MW1001REMSYN017333   20213 69944
0089827980999991990070718004-07100-034867FM-12+0007SBJP V0201401N00261007501CN0100001N9+02601+02331999999ADDAA106000391AG10999AY161061AY221061GF107991071091008001001001MW1001REMSYN011333   69931
0091827980999991990070812004-07100-034867FM-12+0007SBJP V0201801N00261007501CN0020001N9+02601+02261999999ADDAG10999AY161061AY221061GF105991051071008001001001KA1240N+02201MW1001REMSYN011333   20220
0108827980999991990070912004-07100-034867FM-12+0007SBJP V0201401N00151007501CN0040001N9+02481+02341999999ADDAA124001091AG10999AY161061AY221061GF107991071041008001001001KA1240N+02001MW1001REMSYN017333   20200 60014
0108827980999991990071012004-07100-034867FM-12+0007SBJP V0200901N00261220001CN0020001N9+02761+02191999999ADDAA124001091AG10999AY161061AY221061GF103991031021008001001001KA1240N+02101MW1001REMSYN017333   20210 60014
0059827980999991990071418004-07100-034867FM-12+0007SBJP V0201401N00311220001CN0040001N9+02811+02211999999ADDAA106000091AG10999GF104991041081008001001001REMSYN003333
0108827980999991990071512004-07100-034867FM-12+0007SBJP V0201401N00311007501CN0100001N9+02701+02241999999ADDAA124002091AG10999AY161061AY221061GF106991061041008001001001KA1240N+02161MW1001REMSYN017333   20216 60024
0080827980999991990071612004-07100-034867FM-12+0007SBJP V0201401N00261007501CN0020001N9+02521+02111999999ADDAA106000091AG10999GF108991081091008001999999KA1240N+02141REMSYN011333   20214
0089827980999991990071618004-07100-034867FM-12+0007SBJP V0201401N00311007501CN0040001N9+02721+02241999999ADDAA106001091AG10999AY161061AY221061GF106991061091008001001001MW1001REMSYN011333   60011
0100827980999991990071718004-07100-034867FM-12+0007SBJP V0201801N00311007501CN0100001N9+02801+02291999999ADDAA106000491AA299000591AG10999AY161061AY221061GF106991061041008001001001MW1001REMSYN011333   69941
0108827980999991990071818004-07100-034867FM-12+0007SBJP V0201401N00311220001CN9999999N9+02801+02181999999ADDAA106001091AG10999AY161061AY221061GF104991041081008001001001MW1001REMSYN011333   60011EQDQ01+040002VODIS 
0108827980999991990071912004-07100-034867FM-12+0007SBJP V0201401N00311007501CN0100001N9+02681+02311999999ADDAA124002091AG10999AY161061AY221061GF105991051041008001001001KA1240N+02201MW1001REMSYN017333   20220 60024
0059827980999991990071918004-07100-034867FM-12+0007SBJP V0201401N00411220001CN0100001N9+02821+02151999999ADDAA106000091AG10999GF104991041011008001001001REMSYN003333
0108827980999991990072012004-07100-034867FM-12+0007SBJP V0201801N00261007501CN0020001N9+02101+02021999999ADDAA124065091AG10999AY161061AY221061GF108991081091008001999999KA1240N+02001MW1601REMSYN017333   20200 60654
0089827980999991990072018004-07100-034867FM-12+0007SBJP V0201801N00311007501CN0020001N9+02221+02171999999ADDAA106035091AG10999AY161061AY221061GF108991081091008001999999MW1611REMSYN011333   60351
0108827980999991990072112004-07100-034867FM-12+0007SBJP V0201801N00151007501CN0040001N9+02401+02211999999ADDAA124131091AG19043AY161061AY221061GF108991081001008001021999KA1240N+02111MW1211REMSYN017333   20211 61314
0059827980999991990072218004-07100-034867FM-12+0007SBJP V0201801N00261012001CN0020001N9+02761+02121999999ADDAA106000091AG10999GF106991061081008001001001REMSYN003333
0059827980999991990072318004-07100-034867FM-12+0007SBJP V0201401N00411220001CN0100001N9+02801+02131999999ADDAA106000091AG10999GF104991041011008001001001REMSYN003333
0127827980999991990072412004-07100-034867FM-12+0007SBJP V0201401N00511012001CN9999999N9+02721+02001999999ADDAA124002091AG10999AY161061AY221061GF105991051081008001001001KA1240N+02301MW1001REMSYN017333   20230 60024EQDQ01+040002VODIS 
0059827980999991990072418004-07100-034867FM-12+0007SBJP V0209999999999220001CN0040001N9+02761+01991999999ADDAA106000091AG10999GF102991021081008001001001REMSYN003333
0080827980999991990072512004-07100-034867FM-12+0007SBJP V0201401N00151220001CN0100001N9+02801+02081999999ADDAA106000091AG10999GF104991041021008001001001KA1240N+02101REMSYN011333   20210
0127827980999991990072612004-07100-034867FM-12+0007SBJP V0200901N00411012001CN9999999N9+02761+02161999999ADDAA124004091AG10999AY161061AY221061GF105991051081008001001001KA1240N+02281MW1001REMSYN017333   20228 60044EQDQ01+020002VODIS 
0108827980999991990072712004-07100-034867FM-12+0007SBJP V0201401N004119999999N0100001N9+02701+02031999999ADDAA124003091AG10999AY161061AY221061GF107991071001008001001001KA1240N+02261MW1001REMSYN017333   20226 60034
0059827980999991990072718004-07100-034867FM-12+0007SBJP V0201801N00511007501CN0100001N9+02681+01991999999ADDAA106000091AG10999GF108991081091008001999999REMSYN003333
0108827980999991990072812004-07100-034867FM-12+0007SBJP V0201801N00311007501CN0020001N9+02481+02191999999ADDAA124004091AG10999AY161061AY221061GF107991071091008001001001KA1240N+02101MW1001REMSYN017333   20210 60044
0080827980999991990072912004-07100-034867FM-12+0007SBJP V0201401N00151007501CN0100001N9+02301+02201999999ADDAA106000091AG10999GF108991081091008001001001KA1240N+01101REMSYN011333   20110
0089827980999991990072918004-07100-034867FM-12+0007SBJP V0201801N00151007501CN0100001N9+02461+02271999999ADDAA106013091AG10999AY161061AY221061GF108991081091008001001001MW1001REMSYN011333   60131
0080827980999991990073112004-07100-034867FM-12+0007SBJP V0201401N00151007501CN0100001N9+02641+02081999999ADDAA106000091AG10999GF106991061041008001001001KA1240N+02101REMSYN011333   20210
0074827980999991990080118004-07100-034867FM-12+0007SBJP V0201401N00461012001CN0040001N9+02721+02171999999ADDAA106000091AG10999GF105991051081008001001001MA1999999100001REMSYN003333
0108827980999991990080212004-07100-034867FM-12+0007SBJP V0201401N00461007501CN0100001N9+02701+02241999999ADDAA124001091AG10999AY161061AY221061GF105991051041008001001001KA1240N+02101MW1001REMSYN017333   20210 60014
0059827980999991990080218004-07100-034867FM-12+0007SBJP V0201401N00511007501CN0100001N9+02761+02091999999ADDAA106000091AG10999GF106991061091008001001001REMSYN003333
0108827980999991990080412004-07100-034867FM-12+0007SBJP V0201401N00311007501CN0100001N9+02701+02221999999ADDAA124003091AG10999AY161061AY221061GF105991051021008001001001KA1240N+02111MW1001REMSYN017333   20211 60034
0108827980999991990080512004-07100-034867FM-12+0007SBJP V0201801N00261007501CN0020001N9+02361+02191999999ADDAA124014091AG10999AY161061AY221061GF108991081091008001999999KA1240N+02051MW1211REMSYN017333   20205 60144
0089827980999991990080518004-07100-034867FM-12+0007SBJP V0201801N00261007501CN0020001N9+02341+02151999999ADDAA106019091AG10999AY161061AY221061GF108991081091008001999999MW1211REMSYN011333   60191
0089827980999991990080618004-07100-034867FM-12+0007SBJP V0201801N00411007501CN0200001N9+99999+99999999999ADDAA106001091AG10999AY161061AY221061GF107991071091008001001001MW1001REMSYN011333   60011
0108827980999991990080700004-07100-034867FM-12+0007SBJP V0201801N00411007501CN0020001N9+02281+02091999999ADDAA106005091AG10999AY161061AY221061GF108991081091008001999999KA1240M+02801MW1211REMSYN017333   10280 60051
0127827980999991990080712004-07100-034867FM-12+0007SBJP V0201801N00311007501CN9999999N9+02681+02061999999ADDAA124013091AG10999AY161061AY221061GF105991051071008001001001KA1240N+02141MW1001REMSYN017333   20214 60134EQDQ01+020002VODIS 
0100827980999991990080718004-07100-034867FM-12+0007SBJP V0201801N00511007501CN0040001N9+02561+02121999999ADDAA106000691AA299000591AG10999AY161061AY221061GF108991081091008001999999MW1001REMSYN011333   69961
0108827980999991990080812004-07100-034867FM-12+0007SBJP V0201401N00361007501CN0100001N9+02751+02041999999ADDAA124002091AG10999AY161061AY221061GF105991051021008001001001KA1240N+02101MW1001REMSYN017333   20210 60024
0108827980999991990081012004-07100-034867FM-12+0007SBJP V0201401N00511007501CN0100001N9+02681+02241999999ADDAA124021091AG10999AY161061AY221061GF107991071041008001001001KA1240N+02041MW1001REMSYN017333   20204 60214
0108827980999991990081112004-07100-034867FM-12+0007SBJP V0201801N00311007501CN0020001N9+02601+02141999999ADDAA115004091AG10999AY161061AY221061GF105991051071008001001001KA1240N+02101MW1001REMSYN017333   20210 60049
0059827980999991990081118004-07100-034867FM-12+0007SBJP V0201801N00311220001CN0040001N9+02821+02341999999ADDAA106000091AG10999GF104991041081008001001001REMSYN003333
0059827980999991990081119004-07100-034867FM-12+0007SBJP V0201801N00311220001CN0040001N9+02821+02341999999ADDAA106000091AG10999GF104991041081008001001001REMSYN003333
0059827980999991990081218004-07100-034867FM-12+0007SBJP V0201401N00411220001CN0100001N9+02801+02181999999ADDAA106000091AG10999GF104991041021008001001001REMSYN003333
0089827980999991990081318004-07100-034867FM-12+0007SBJP V0200901N00261007501CN0040001N9+02541+02331999999ADDAA106004091AG10999AY161061AY221061GF106991061091008001001001MW1211REMSYN011333   60041
0108827980999991990081412004-07100-034867FM-12+0007SBJP V0201801N00151007501CN0040001N9+02221+02101999999ADDAA124124091AG10999AY161061AY221061GF108991081001008001021999KA1240N+02001MW1211REMSYN017333   20200 61244
0108827980999991990081512004-07100-034867FM-12+0007SBJP V0201401N002619999999N9999999N9+02601+02231999999ADDAA124003091AG10999AY161061AY221061GF105991051081999999001001KA1240N+02101MW1001REMSYN017333   20210 60034
0089827980999991990081618004-07100-034867FM-12+0007SBJP V0201401N00261007501CN0100001N9+02421+02321999999ADDAA106003091AG10999AY161061AY221061GF108991081001008001021999MW1211REMSYN011333   60031
0108827980999991990081712004-07100-034867FM-12+0007SBJP V0200901N00311012001CN0040001N9+02761+02191999999ADDAA124007091AG10999AY161061AY221061GF105991051081008001001001KA1240N+02141MW1001REMSYN017333   20214 60074
0095827980999991990081812004-07100-034867FM-12+0007SBJP V0201401N00411007501CN0200001N9+02741+02121999999ADDAA124002091AG10999AY161061AY221061GF105991051021008001001001MW1001REMSYN017333   2021/ 60024
0059827980999991990081818004-07100-034867FM-12+0007SBJP V0201401N00411220001CN0100001N9+02751+02021999999ADDAA106000091AG10999GF104991041011008001001001REMSYN003333
0108827980999991990081912004-07100-034867FM-12+0007SBJP V0201401N00261007501CN0040001N9+02701+02131999999ADDAA124002091AG19001AY161061AY221061GF105991051071008001001001KA1240N+02181MW1001REMSYN017333   20218 60024
0059827980999991990081918004-07100-034867FM-12+0007SBJP V0201401N00311007501CN0040001N9+02821+02071999999ADDAA106000091AG10999GF105991051021008001001001REMSYN003333
0080827980999991990082012004-07100-034867FM-12+0007SBJP V0201401N00411220001CN0100001N9+02801+02291999999ADDAA106000091AG10999GF104991041011008001001001KA1240N+02001REMSYN011333   20200
0059827980999991990082018004-07100-034867FM-12+0007SBJP V0201401N00411220001CN0100001N9+02861+02311999999ADDAA106000091AG10999GF104991041011008001001001REMSYN003333
0059827980999991990082118004-07100-034867FM-12+0007SBJP V0201401N00311012001CN0040001N9+02881+02301999999ADDAA106000091AG10999GF105991051081008001001001REMSYN003333
0080827980999991990082212004-07100-034867FM-12+0007SBJP V0201401N00311007501CN0100001N9+02661+02351999999ADDAA106000091AG10999GF106991061041008001001001KA1240N+02041REMSYN011333   20204
0074827980999991990082218004-07100-034867FM-12+0007SBJP V0201401N00571007501CN0100001N9+02701+02151999999ADDAA106000091AG10999GF105991051021008001001001MA1999999100001REMSYN003333
0108827980999991990082312004-07100-034867FM-12+0007SBJP V0209991C00001007501CN0100001N9+02241+02141999999ADDAA124053091AG10999AY161061AY221061GF108991081001008001021999KA1240N+01901MW1211REMSYN017333   20190 60534
0089827980999991990082318004-07100-034867FM-12+0007SBJP V0201401N00311220001CN0040001N9+02621+02121999999ADDAA106013091AG10999AY101061AY261061GF104991041071008001001001MW1001REMSYN011333   60131
0108827980999991990082412004-07100-034867FM-12+0007SBJP V0201401N00311007501CN0100001N9+02541+02151999999ADDAA124015091AG10999AY161061AY221061GF108991081091008001001001KA1240N+02001MW1001REMSYN017333   20200 60154
0100827980999991990082418004-07100-034867FM-12+0007SBJP V0201401N00511007501CN0100001N9+02501+02191999999ADDAA106000291AA299000391AG10999AY161061AY221061GF108991081091008001001001MW1001REMSYN011333   69921
0138827980999991990082512004-07100-034867FM-12+0007SBJP V0201401N00511220001CN9999999N9+02701+02011999999ADDAA124000291AA299000391AG10999AY161061AY221061GF104991041081008001001001KA1240N+02101MW1001REMSYN017333   20210 69924EQDQ01+020002VODIS 
0074827980999991990082518004-07100-034867FM-12+0007SBJP V0201401N00311012001CN0040001N9+02761+02021999999ADDAA106000091AG10999GF105991051081008001001001MA1999999100001REMSYN003333
0108827980999991990082612004-07100-034867FM-12+0007SBJP V0201801N00411007501CN0100001N9+02601+02291999999ADDAA124015091AG10999AY161061AY221061GF108991081091008001001001KA1240N+02041MW1001REMSYN017333   20204 60154
0089827980999991990082618004-07100-034867FM-12+0007SBJP V0201401N00311007501CN0100001N9+02701+02221999999ADDAA106002091AG10999AY161061AY221061GF108991081091008001001001MW1021REMSYN011333   60021
0108827980999991990082712004-07100-034867FM-12+0007SBJP V0201401N00311007501CN0020001N9+02481+02321999999ADDAA124009091AG10999AY161061AY221061GF108991081091008001999999KA1240N+02161MW1611REMSYN017333   20216 60094
0108827980999991990082812004-07100-034867FM-12+0007SBJP V0201401N00411007501CN0100001N9+02801+02111999999ADDAA124001091AG10999AY161061AY221061GF105991051021008001001001KA1240N+02281MW1001REMSYN017333   20228 60014
0080827980999991990082912004-07100-034867FM-12+0007SBJP V0200901N00311220001CN0040001N9+02781+02111999999ADDAA106000091AG10999GF104991041081008001001001KA1240N+02411REMSYN011333   20241
0099827980999991990083012004-07100-034867FM-12+0007SBJP V0201401N00411007501CN0100001N9+02781+02211999999ADDAA106000091AG10999GF106991999021008001001001KA1240N+02301REMSYN011333   20230EQDQ01+000052SCOTLC
0059827980999991990083118004-07100-034867FM-12+0007SBJP V0209999999999007501CN0020001N9+02621+02141999999ADDAA106000091AG10999GF107991071091008001001001REMSYN003333
0127827980999991990090412004-07100-034867FM-12+0007SBJP V0201401N00411220001CN9999999N9+02761+02021999999ADDAA124000191AG10999AY161061AY221061GF104991041021008001001001KA1240N+02221MW1001REMSYN017333   20222 69914EQDQ01+020002VODIS 
0074827980999991990090518004-07100-034867FM-12+0007SBJP V0201801N00411220001CN0100001N9+02801+02061999999ADDAA106000091AG10999GF104991041021008001001001MA1999999100001REMSYN003333
0153827980999991990090612004-07100-034867FM-12+0007SBJP V0201401N00311007501CN9999999N9+02701+01031999999ADDAA124000291AA299000391AG10999AY161061AY221061GF105991051071008001001001KA1240N+02061MA1999999100001MW1001REMSYN017333   20206 69924EQDQ01+040002VODIS 
0108827980999991990090712004-07100-034867FM-12+0007SBJP V0201401N00311007501CN0040001N9+02701+02111999999ADDAA124004091AG10999AY161061AY221061GF105991051071008001001041KA1240N+02101MW1001REMSYN017333   20210 60044
0138827980999991990090812004-07100-034867FM-12+0007SBJP V0201801N00311007501CN9999999N9+02761+02161999999ADDAA124000291AA299000391AG10999AY161061AY221061GF105991051021008001001001KA1240N+02081MW1001REMSYN017333   20208 69924EQDQ01+020002VODIS 
0074827980999991990090818004-07100-034867FM-12+0007SBJP V0209999999999007501CN0040001N9+02801+02061999999ADDAA106000091AG10999GF199999051021008001001001MA1999999100001REMSYN003333
0080827980999991990090912004-07100-034867FM-12+0007SBJP V0201801N00461220001CN0100001N9+02801+02131999999ADDAA106000091AG10999GF104991041011008001001001KA1240N+02171REMSYN011333   20217
0059827980999991990090918004-07100-034867FM-12+0007SBJP V0201801N00311220001CN0100001N9+02801+02111999999ADDAA106000091AG10999GF104991041011008001001001REMSYN003333
0074827980999991990091018004-07100-034867FM-12+0007SBJP V0200901N00511007501CN0100001N9+02801+02221999999ADDAA106000091AG10999GF105991051011008001001001MA1999999100001REMSYN003333
0101827980999991990091112004-07100-034867FM-12+0007SBJP V0201401N00461007501CN0100001N9+02801+02081999999ADDAA106000091AG10999GF105991051021008001001001KA1240N+02241MA1999999100001REMSYN017333   20224 58///
0059827980999991990091118004-07100-034867FM-12+0007SBJP V0201401N00311220001CN0040001N9+02801+02161999999ADDAA106000091AG10999GF104991041021008001001001REMSYN003333
0080827980999991990091212004-07100-034867FM-12+0007SBJP V0201401N00311007501CN0100001N9+02811+02151999999ADDAA106000091AG10999GF105991051021008001001001KA1240N+02301REMSYN011333   20230
0059827980999991990091218004-07100-034867FM-12+0007SBJP V0201401N00311007501CN0100001N9+02801+02341999999ADDAA106000091AG10999GF105991051011008001001001REMSYN003333
0115827980999991990091312004-07100-034867FM-12+0007SBJP V0201401N00511220001CN0040001N9+02671+01901101551ADDAA106000091AG10999GF104991041021008001041001KA1240N+02201MA1999999097731MD1999999+0081REMSYN017333   20220 58008
0093827980999991990091318004-07100-034867FM-12+0007SBJP V0201401N00511007501CN0040001N9+02891+02151999999ADDAA106000091AG10999GF105991051021008001001001MA1999999100002REMSYN003333EQDQ01+100003APOSP 
0080827980999991990091412004-07100-034867FM-12+0007SBJP V0201401N00511007501CN0040001N9+02801+02251999999ADDAA106000091AG10999GF105991051021008001001001KA1240N+02301REMSYN011333   20230
0059827980999991990091518004-07100-034867FM-12+0007SBJP V0201401N00311220001CN0200001N9+02901+02041999999ADDAA106000091AG10999GF104991041021008001001001REMSYN003333
0108827980999991990091712004-07100-034867FM-12+0007SBJP V0201801N00261007501CN0100001N9+02461+02321999999ADDAA124001091AG10999AY161061AY221061GF108991081091008001999999KA1240N+02081MW1001REMSYN017333   20208 60014
0127827980999991990091812004-07100-034867FM-12+0007SBJP V0201401N00411012001CN9999999N9+02761+01991999999ADDAA124005091AG10999AY161061AY221061GF105991051081008001001001KA1240N+02281MW1001REMSYN017333   20228 60054EQDQ01+040002VODIS 
0074827980999991990091818004-07100-034867FM-12+0007SBJP V0201401N00411220001CN0040001N9+02781+02011999999ADDAA106000091AG10999GF103991031021008001001001MA1999999100001REMSYN003333
0080827980999991990091912004-07100-034867FM-12+0007SBJP V0201801N00151007501CN0100001N9+02781+02251999999ADDAA106000091AG10999GF106991061041008001001001KA1240N+02181REMSYN011333   20218
0115827980999991990091918004-07100-034867FM-12+0007SBJP V0201801N00311007501CN0100001N9+02721+02281999999ADDAA106000491AA299000591AG10999AY101061AY221061GF106991061091008001001001MA1999999100001MW1001REMSYN011333   69941
0108827980999991990092012004-07100-034867FM-12+0007SBJP V0201801N00411220001CN0040001N9+02841+02311999999ADDAA124001091AG10999AY161061AY221061GF104991041081008001001001KA1240N+02221MW1001REMSYN017333   20222 60014
0104827980999991990092018004-07100-034867FM-12+0007SBJP V0200901N00411012001CN0200001N9+02711+02391999999ADDAA106006091AG10999AY161061AY221061GF107991071081008001001001MA1999999100001MW1001REMSYN011333   60061
0069827980999991990092112004-07100-034867FM-12+0007SBJP V0201401N00311007501CN0100001N9+02841+02261999999ADDAG10999GF105991051021008001001001KA1240N+02301REMSYN011333   20230
0074827980999991990092118004-07100-034867FM-12+0007SBJP V0201401N00311220001CN0100001N9+02881+02211999999ADDAA106000091AG10999GF104991041011008001001001MA1999999100001REMSYN003333
0080827980999991990092212004-07100-034867FM-12+0007SBJP V0200901N00311220001CN0040001N9+02821+02121999999ADDAA106000091AG10999GF104991041081008001001001KA1240N+02501REMSYN011333   20250
0059827980999991990092218004-07100-034867FM-12+0007SBJP V0200901N00411012001CN0040001N9+02861+02161999999ADDAA106000091AG10999GF105991051081008001001001REMSYN003333
0108827980999991990092312004-07100-034867FM-12+0007SBJP V0200901N00461007501CN0040001N9+02901+02201999999ADDAA124002091AG10999AY161061AY221061GF106991061091008001001001KA1240N+02481MW1211REMSYN017333   20248 60024
0093827980999991990092318004-07100-034867FM-12+0007SBJP V0209999999999220001CN0007001N9+02721+02241999999ADDAA106000891AA299001091AG10999GF101991999999008001999999MA1999999100001REMSYN011333   69981
0119827980999991990092412004-07100-034867FM-12+0007SBJP V0200901N00311007501CN0100001N9+02801+02201999999ADDAA124000891AA299001091AG10999AY161061AY221061GF105991051021008001001001KA1240N+01851MW1001REMSYN017333   20185 69984
0059827980999991990092518004-07100-034867FM-12+0007SBJP V0200901N00311220001CN0100001N9+02851+02141999999ADDAA106000091AG10999GF104991041021008001001001REMSYN003333
0095827980999991990092612004-07100-034867FM-12+0007SBJP V0200901N00311007501CN0040001N9+02741+02171999999ADDAA106000091AG10999GF107991071071008001001001KA1240N+02221MA1999999100001REMSYN011333   20222
0059827980999991990092618004-07100-034867FM-12+0007SBJP V0200901N00311220001CN0040001N9+02801+02201999999ADDAA106000091AG10999GF104991041021008001001001REMSYN003333
0095827980999991990092712004-07100-034867FM-12+0007SBJP V0201801N00311007501CN0040001N9+02601+02271999999ADDAA124005091AG10999AY161061AY221061GF107991071041008001001001MW1001REMSYN017333   2022/ 60054
0108827980999991990092812004-07100-034867FM-12+0007SBJP V0202401N00261007501CN0040001N9+02701+02261999999ADDAA124108091AG10999AY161061AY221061GF105991051091008001001001KA1240N+02201MW1001REMSYN017333   20220 61084
0108827980999991990092912004-07100-034867FM-12+0007SBJP V0201801N00261012001CN0100001N9+02621+02311999999ADDAA124053091AG10999AY161061AY221061GF107991071081008001001001KA1240N+02051MW1001REMSYN017333   20205 60534
0074827980999991990092918004-07100-034867FM-12+0007SBJP V0201401N00311007501CN0100001N9+02801+02131999999ADDAA106000091AG10999GF105991051021008001001001MA1999999100001REMSYN003333
0059827980999991990093018004-07100-034867FM-12+0007SBJP V0200401N00311220001CN0100001N9+99999+99999999999ADDAA106000091AG10999GF104991041021008001001001REMSYN003333
0059827980999991990100118004-07100-034867FM-12+0007SBJP V0209999999999007501CN0100001N9+02601+02251999999ADDAA106000091AG10999GF108991081091008001999999REMSYN003333
0108827980999991990100212004-07100-034867FM-12+0007SBJP V0209999999999007501CN0040001N9+02601+02331999999ADDAA124023091AG10999AY161061AY221061GF108991081091008001999999KA1240N+02241MW1601REMSYN017333   20224 60234
0108827980999991990100312004-07100-034867FM-12+0007SBJP V0200901N00261007501CN0100001N9+02741+02081999999ADDAA124005091AG10999AY161061AY221061GF106991061091008001001001KA1240N+02191MW1001REMSYN017333   20219 60054
0059827980999991990100318004-07100-034867FM-12+0007SBJP V0200901N00411007501CN0100001N9+02861+02141999999ADDAA106000091AG10999GF105991051021008001001001REMSYN003333
0080827980999991990100412004-07100-034867FM-12+0007SBJP V0201401N00461007501CN0100001N9+02801+02251999999ADDAA106000091AG10999GF105991051021008001001001KA1240N+02391REMSYN011333   20239
0059827980999991990100418004-07100-034867FM-12+0007SBJP V0201401N00511220001CN0100001N9+02801+02081999999ADDAA106000091AG10999GF104991041011008001001001REMSYN003333
0115827980999991990100512004-07100-034867FM-12+0007SBJP V0201401N00411012001CN0200001N9+02361+01831101571ADDAA106000091AG10999GF108991081081008001999999KA1240N+01961MA1999999097391MD1999999-0011REMSYN017333   20196 59001
0059827980999991990100518004-07100-034867FM-12+0007SBJP V0201401N00511220001CN0100001N9+02821+02071999999ADDAA106000091AG10999GF104991041011008001001001REMSYN003333
0059827980999991990100618004-07100-034867FM-12+0007SBJP V0201401N00411220001CN0040001N9+02821+02071999999ADDAA106000091AG10999GF104991041011008001001001REMSYN003333
0108827980999991990100712004-07100-034867FM-12+0007SBJP V0200901N00511220001CN0040001N9+02821+02241999999ADDAA124001091AG10999AY161061AY221061GF104991041021008001001001KA1240N+02401MW1001REMSYN017333   20240 60014
0059827980999991990100718004-07100-034867FM-12+0007SBJP V0200901N00311012001CN0040001N9+02861+02141999999ADDAA106000091AG10999GF105991051081008001001001REMSYN003333
0127827980999991990100812004-07100-034867FM-12+0007SBJP V0200901N00511012001CN9999999N9+02841+02241999999ADDAA124001091AG10999AY161061AY221061GF105991051081008001001001KA1240N+02441MW1001REMSYN017333   20244 60014EQDQ01+020002VODIS 
0059827980999991990100818004-07100-034867FM-12+0007SBJP V0200901N00411012001CN0040001N9+02861+02141999999ADDAA106000091AG10999GF105991051081008001001001REMSYN003333
0095827980999991990100912004-07100-034867FM-12+0007SBJP V0209999999999007501CN0100001N9+02841+02241999999ADDAA106000091AG10999GF105991051021008001001001KA1240N+02361MA1999999100001REMSYN011333   20236
0059827980999991990101018004-07100-034867FM-12+0007SBJP V0201401N00311007501CN0040001N9+02841+02131999999ADDAA106000091AG10999GF105991051091008001001001REMSYN003333
0080827980999991990101118004-07100-034867FM-12+0007SBJP V0201401N00511012001CN0040001N9+02841+02171999999ADDAA106000091AG10999GF105991051081008001001001KA1240N+02501REMSYN011333   20250
0080827980999991990101712004-07100-034867FM-12+0007SBJP V0201401N00411220001CN0040001N9+02841+02121999999ADDAA106000091AG10999GF104991041021008001001001KA1240N+02341REMSYN011333   20234
0080827980999991990101812004-07100-034867FM-12+0007SBJP V0200901N00411012001CN0020001N9+02821+02201999999ADDAA106000091AG10999GF105991051081008001001001KA1240N+02501REMSYN011333   20250
0080827980999991990101912004-07100-034867FM-12+0007SBJP V0201401N00311220001CN0100001N9+02901+02221999999ADDAA106000091AG10999GF104991041011008001001001KA1240N+02481REMSYN011333   20248
0067827980999991990102018004-07100-034867FM-12+0007SBJP V0200901N00311220001CN0040001N9+02821+02101999999ADDAA106000091AG10999GF102991021001008001001001REMSYN011333   50///
0058827980999991990102112004-07100-034867FM-12+0007SBJP V0200901N00411007501CN0040001N9+02701+02371999999ADDAG10999AY161061AY221061GF108991081091008001001001MW1001
0047827980999991990102118004-07100-034867FM-12+0007SBJP V0200901N00261220001CN0100001N9+02821+02151999999ADDAA106000091AG10999GF104991031011008001001999
0080827980999991990102312004-07100-034867FM-12+0007SBJP V0200501N00411007501CN0100001N9+02901+02271999999ADDAA106000091AG10999GF105991051051008001001001KA1240N+02521REMSYN011333   20252
0100827980999991990102718004-07100-034867FM-12+0007SBJP V0200901N00461007501CN0100001N9+02901+02201999999ADDAA106000291AA299000391AG10999AY161061AY221061GF105991051041008001001001MW1001REMSYN011333   69921
0059827980999991990102818004-07100-034867FM-12+0007SBJP V0200901N00411007501CN0100001N9+02941+02261999999ADDAA106000091AG10999GF106991061021008001001001REMSYN003333
0119827980999991990110112004-07100-034867FM-12+0007SBJP V0200901N00311012001CN0020001N9+99999+99999999999ADDAA124000691AA299000591AG10999AY161061AY221061GF105991051081008001001001KA1240N+02521MW1001REMSYN017333   20252 69964
0059827980999991990110218004-07100-034867FM-12+0007SBJP V0209999999999220001CN0100001N9+02961+02261999999ADDAA106000091AG10999GF100991001001999999001001REMSYN003333
0080827980999991990110312004-07100-034867FM-12+0007SBJP V0209999999999220001CN0100001N9+02881+02051999999ADDAA106000091AG10999GF102991021021008001001001KA1240N+02541REMSYN011333   20254
0059827980999991990110418004-07100-034867FM-12+0007SBJP V0209999999999007501CN0100001N9+02901+02321999999ADDAA106000091AG10999GF107991071091008001001001REMSYN003333
0080827980999991990110612004-07100-034867FM-12+0007SBJP V0209999999999220001CN0100001N9+02901+02201999999ADDAA106000091AG10999GF104991041011008001001001KA1240N+02501REMSYN011333   20250
0059827980999991990110618004-07100-034867FM-12+0007SBJP V0209999999999220001CN0100001N9+02801+02251999999ADDAA106000091AG10999GF103991031011008001001001REMSYN003333
0080827980999991990110712004-07100-034867FM-12+0007SBJP V0209999999999012001CN0100001N9+02921+01091999999ADDAA106000091AG10999GF105991051081008001001001KA1240N+02521REMSYN011333   20252
0059827980999991990110718004-07100-034867FM-12+0007SBJP V0209999999999220001CN0040001N9+02861+02031999999ADDAA106000091AG10999GF199999031021008001001001REMSYN003333
0059827980999991990110818004-07100-034867FM-12+0007SBJP V0209999999999220001CN0100001N9+02941+02281999999ADDAA106000091AG10999GF104991041011008001001001REMSYN003333
0100827980999991990110918004-07100-034867FM-12+0007SBJP V0209999999999007501CN0100001N9+02761+02251999999ADDAA106000491AA299000591AG10999AY161061AY221061GF107991071071008001001001MW1001REMSYN011333   69941
0154827980999991990111112004-07100-034867FM-12+0007SBJP V0209999999999007501CN0040001N9+02821+02331999999ADDAA124000491AA299000591AG10999AY161061AY221061GA1091+999999999GF109991999071008001001001KA1240N+02241MW1211REMSYN017333   20224 69944EQDQ01+000052SCOTLC
0059827980999991990111118004-07100-034867FM-12+0007SBJP V0209999999999012001CN0100001N9+02921+02221999999ADDAA106000091AG10999GF105991051081008001001001REMSYN003333
0080827980999991990111212004-07100-034867FM-12+0007SBJP V0209999999999007501CN0100001N9+02921+02221999999ADDAA106000091AG10999GF105991051021008001001001KA1240N+02541REMSYN011333   20254
0059827980999991990111218004-07100-034867FM-12+0007SBJP V0209999999999007501CN0100001N9+02901+02251999999ADDAA106000091AG10999GF105991051021008001001001REMSYN003333
0080827980999991990111312004-07100-034867FM-12+0007SBJP V0209999999999220001CN0100001N9+02901+02101999999ADDAA106000091AG10999GF103991031021008001001001KA1240N+02561REMSYN011333   20256
0080827980999991990111412004-07100-034867FM-12+0007SBJP V0209999999999007501CN0100001N9+02901+02251999999ADDAA106000091AG10999GF105991051021008001001001KA1240N+02541REMSYN011333   20254
0059827980999991990111418004-07100-034867FM-12+0007SBJP V0209999999999220001CN0100001N9+02921+02241999999ADDAA106000091AG10999GF104991041011008001001001REMSYN003333
0108827980999991990111612004-07100-034867FM-12+0007SBJP V0209999999999007501CN0100001N9+02871+02251999999ADDAA124017091AG10999AY161061AY221061GF106991061091008001001001KA1240N+02341MW1001REMSYN017333   20234 60174
0080827980999991990111700004-07100-034867FM-12+0007SBJP V0209999999999220001CN0020001N9+02661+02161999999ADDAA106000091AG10999GF103991031081008001001001KA1240M+02981REMSYN011333   10298
0059827980999991990111718004-07100-034867FM-12+0007SBJP V0209999999999012001CN0040001N9+02921+02221999999ADDAA106000091AG10999GF105991051081008001001001REMSYN003333
0080827980999991990111812004-07100-034867FM-12+0007SBJP V0209999999999007501CN0100001N9+02881+02211999999ADDAA106000091AG10999GF105991051021008001001001KA1240N+02501REMSYN011333   20250
0127827980999991990111912004-07100-034867FM-12+0007SBJP V0209999999999007501CN0040001N9+02721+02281999999ADDAA124011091AG10999AY161061AY221061GF108991081091008001999999KA1240N+99999MW1211REMSYN017333   20334 60114EQDQ01 +03342ATMN  
0059827980999991990112018004-07100-034867FM-12+0007SBJP V0209999999999007501CN0100001N9+02801+02181999999ADDAA106000091AG10999GF105991051021008001001001REMSYN003333
0080827980999991990112112004-07100-034867FM-12+0007SBJP V0209999999999012001CN0020001N9+02841+02071999999ADDAA106000091AG10999GF105991051081008001001001KA1240N+02201REMSYN011333   20220
0059827980999991990112118004-07100-034867FM-12+0007SBJP V0209999999999012001CN0040001N9+02841+02221999999ADDAA106000091AG10999GF105991051081008001021001REMSYN003333
0134827980999991990112318004-07100-034867FM-12+0007SBJP V0209999999999012001CN9999999N9+02841+02171999999ADDAA106000491AA299000591AG10999AY161061AY221061GF105991051081008001001001MA1999999100001MW1001REMSYN011333   69941EQDQ01+040002VODIS 
0119827980999991990112712004-07100-034867FM-12+0007SBJP V0209999999999007501CN0020001N9+02761+02401999999ADDAA124000691AA299000591AG10999AY161061AY221061GF106991061091008001001001KA1240N+02601MW1211REMSYN017333   20260 69964
0080827980999991990112812004-07100-034867FM-12+0007SBJP V0209999999999220001CN0040001N9+02901+02301999999ADDAA106000091AG10999GF104991041021008001001001KA1240N+02551REMSYN011333   20255
0080827980999991990112912004-07100-034867FM-12+0007SBJP V0209999999999007501CN0100001N9+02911+02271999999ADDAA106000091AG10999GF105991051021008001001001KA1240N+02601REMSYN011333   20260
0059827980999991990112918004-07100-034867FM-12+0007SBJP V0209999999999220001CN0040001N9+02921+02221999999ADDAA106000091AG10999GF104991041021008001001001REMSYN003333
0080827980999991990120112004-07100-034867FM-12+0007SBJP V0209999999999007501CN0100001N9+02881+02101999999ADDAA106000091AG10999GF105991051021008001001001KA1240N+02241REMSYN011333   20224
0080827980999991990120212004-07100-034867FM-12+0007SBJP V0209999999999007501CN0100001N9+02901+02201999999ADDAA106000091AG10999GF105991051021008001001001KA1240N+02471REMSYN011333   20247
0074827980999991990120218004-07100-034867FM-12+0007SBJP V0209999999999007501CN0100001N9+02921+02171999999ADDAA106000091AG10999GF199999051021008001001001MA1999999100001REMSYN003333
0080827980999991990120312004-07100-034867FM-12+0007SBJP V0209999999999007501CN0040001N9+02821+02271999999ADDAA106000091AG10999GF107991071091008001001001KA1240N+02641REMSYN011333   20264
0080827980999991990120412004-07100-034867FM-12+0007SBJP V0209999999999007501CN0100001N9+02911+02171999999ADDAA106000091AG10999GF105991051021008001001001KA1240N+02601REMSYN011333   20260
0059827980999991990120418004-07100-034867FM-12+0007SBJP V0209999999999007501CN0100001N9+02901+02321999999ADDAA106000091AG10999GF107991071091008001001001REMSYN003333
0127827980999991990120512004-07100-034867FM-12+0007SBJP V0209999999999220001CN9999999N9+02901+02121999999ADDAA124005091AG10999AY161061AY221061GF104991041081008001001001KA1240N+02401MW1001REMSYN017333   20240 60054EQDQ01+020002VODIS 
0059827980999991990120518004-07100-034867FM-12+0007SBJP V0209999999999007501CN0020001N9+02741+02211999999ADDAA106000091AG10999GF107991071091008001001001REMSYN003333
0080827980999991990120612004-07100-034867FM-12+0007SBJP V0209999999999007501CN0100001N9+02921+02191999999ADDAA106000091AG10999GF105991051021008001001001KA1240N+02521REMSYN011333   20252
0078827980999991990120618004-07100-034867FM-12+0007SBJP V02099999999999999999N0100001N9+02911+02121999999ADDAA106000091AG10999GF105991999011008001001001REMSYN003333EQDQ01+000022SCOTLC
0078827980999991990120718004-07100-034867FM-12+0007SBJP V0209999999999012001CN0040001N9+02901+02341999999ADDAA106000091AG10999GF107991999081008001001001REMSYN003333EQDQ01+000062SCOTLC
0080827980999991990120812004-07100-034867FM-12+0007SBJP V0209999999999007501CN0100001N9+02901+02251999999ADDAA106000091AG10999GF105991051021008001001001KA1240N+02561REMSYN011333   20256
0059827980999991990120818004-07100-034867FM-12+0007SBJP V0209999999999007501CN0100001N9+02911+02221999999ADDAA106000091AG10999GF105991051011008001001001REMSYN003333
0059827980999991990120918004-07100-034867FM-12+0007SBJP V0209999999999007501CN0100001N9+02941+02191999999ADDAA106000091AG10999GF106991061021008001001001REMSYN003333
0080827980999991990121012004-07100-034867FM-12+0007SBJP V0209999999999220001CN0100001N9+02941+02241999999ADDAA106000091AG10999GF104991041011008001001001KA1240N+02541REMSYN011333   20254
0059827980999991990121018004-07100-034867FM-12+0007SBJP V0209999999999007501CN0100001N9+02911+02361999999ADDAA106000091AG10999GF105991051021008001001001REMSYN003333
0080827980999991990121112004-07100-034867FM-12+0007SBJP V0209999999999007501CN0100001N9+02931+02291999999ADDAA106000091AG10999GF105991051021008001001001KA1240N+02571REMSYN011333   20257
0059827980999991990121118004-07100-034867FM-12+0007SBJP V0209999999999007501CN0100001N9+02921+02221999999ADDAA106000091AG10999GF105991051011008001001001REMSYN003333
0059827980999991990121218004-07100-034867FM-12+0007SBJP V0209999999999007501CN0040001N9+02921+02141999999ADDAA106000091AG10999GF105991051021008001001001REMSYN003333
0080827980999991990121412004-07100-034867FM-12+0007SBJP V0209999999999007501CN0100001N9+02921+02061999999ADDAA106000091AG10999GF105991051011008001001001KA1240N+02561REMSYN011333   20256
0099827980999991990121512004-07100-034867FM-12+0007SBJP V02099999999999999999N0100001N9+02881+02051999999ADDAA106000091AG10999GF105991999051008001041001KA1240N+02201REMSYN011333   20220EQDQ01+000002SCOTLC
0059827980999991990121518004-07100-034867FM-12+0007SBJP V0209999999999007501CN0100001N9+02901+02121999999ADDAA106000091AG10999GF105991051011008001001001REMSYN003333
0080827980999991990121612004-07100-034867FM-12+0007SBJP V0209999999999007501CN0100001N9+02921+02041999999ADDAA106000091AG10999GF105991051011008001001001KA1240N+02501REMSYN011333   20250
0108827980999991990121712004-07100-034867FM-12+0007SBJP V0209999999999007501CN0100001N9+02701+02011999999ADDAA124003091AG10999AY161061AY221061GF106991061041008001001001KA1240N+02241MW1001REMSYN017333   20224 60034
0059827980999991990121718004-07100-034867FM-12+0007SBJP V0209999999999220001CN0100001N9+02861+02161999999ADDAA106000091AG10999GF104991041011008001001001REMSYN003333
0059827980999991990121818004-07100-034867FM-12+0007SBJP V0209999999999220001CN0100001N9+02901+02201999999ADDAA106000091AG10999GF104991041011008001001001REMSYN003333
0080827980999991990121912004-07100-034867FM-12+0007SBJP V0209999999999220001CN0100001N9+02961+02181999999ADDAA106000091AG10999GF104991041021008001001001KA1240N+02201REMSYN011333   20220
0080827980999991990122112004-07100-034867FM-12+0007SBJP V0209999999999220001CN0100001N9+02941+02111999999ADDAA106000091AG10999GF104991041011008001001001KA1240N+02601REMSYN011333   20260
0059827980999991990122118004-07100-034867FM-12+0007SBJP V0209999999999220001CN0100001N9+02941+02241999999ADDAA106000091AG10999GF104991041021008001001001REMSYN003333
0080827980999991990122212004-07100-034867FM-12+0007SBJP V0209999999999007501CN0100001N9+02921+02121999999ADDAA106000091AG10999GF106991061011008001001001KA1240N+02461REMSYN011333   20246
0059827980999991990122218004-07100-034867FM-12+0007SBJP V0209999999999220001CN0100001N9+02941+02191999999ADDAA106000091AG10999GF104991041011008001001001REMSYN003333
0080827980999991990122312004-07100-034867FM-12+0007SBJP V0209999999999007501CN0100001N9+02931+02111999999ADDAA106000091AG10999GF105991051021008001001001KA1240N+02581REMSYN011333   20258
0059827980999991990122318004-07100-034867FM-12+0007SBJP V0209999999999007501CN0100001N9+99999+99999999999ADDAA106000091AG10999GF105991051021008001001001REMSYN003333
0108827980999991990122412004-07100-034867FM-12+0007SBJP V0209999999999007501CN0100001N9+02881+02051999999ADDAA124004091AG10999AY161061AY221061GF105991051021008001001001KA1240N+02401MW1001REMSYN017333   20240 60044
0059827980999991990122518004-07100-034867FM-12+0007SBJP V0209999999999007501CN0100001N9+02941+02261999999ADDAA106000091AG10999GF105991051021008001001001REMSYN003333
0080827980999991990122612004-07100-034867FM-12+0007SBJP V0209999999999007501CN0100001N9+02941+02191999999ADDAA106000091AG10999GF106991061011008001001001KA1240N+02501REMSYN011333   20250
0108827980999991990122712004-07100-034867FM-12+0007SBJP V0209999999999007501CN0100001N9+02891+02301999999ADDAA124000391AG10999AY151061AY221061GF105991051021008001001001KA1240N+02601MW1001REMSYN017333   20260 69934
0059827980999991990122718004-07100-034867FM-12+0007SBJP V0209999999999007501CN0100001N9+02921+02221999999ADDAA106000091AG10999GF105991051011008001001001REMSYN003333
0080827980999991990122812004-07100-034867FM-12+0007SBJP V0209999999999007501CN0100001N9+02941+02241999999ADDAA106000091AG10999GF105991051011008001001001KA1240N+02421REMSYN011333   20242
0059827980999991990122818004-07100-034867FM-12+0007SBJP V0209999999999220001CN0100001N9+02901+02221999999ADDAA106000091AG10999GF102991021011008001001001REMSYN003333
0059827980999991990122918004-07100-034867FM-12+0007SBJP V0209999999999220001CN0100001N9+02941+02191999999ADDAA106000091AG10999GF104991041011008001001001REMSYN003333
0059827980999991990123018004-07100-034867FM-12+0007SBJP V0209999999999007501CN0100001N9+02961+02261999999ADDAA106000091AG10999GF199999051021008001001001REMSYN003333
0080827980999991990123112004-07100-034867FM-12+0007SBJP V0209999999999007501CN0100001N9+02941+02191999999ADDAA106000091AG10999GF106991061021008001001001KA1240N+02641REMSYN011333   20264
0059827980999991990123118004-07100-034867FM-12+0007SBJP V0209999999999007501CN0100001N9+02941+02261999999ADDAA106000091AG10999GF105991051021008001001001REMSYN003333
