0115830960999991990010100004-10917-037050FM-12+000699999V0201401N00311220001CN9999999N9+02611+02171101331ADDAA106000091AG10999GF102991021021012501001001KA1240M+02961MA1999999101261MD1999999-0011REMSYN017333   10296 59001
0143830960999991990010112004-10917-037050FM-12+000699999V0203201N00051007501CN0100001N9+02401+02171101431ADDAA124027091AG10999AY161061AY261061GF108991081071008001999999KA1240N+02251MA1999999101361MD1999999-0091MW1601REMSYN023333   20225 59009 60274
0113830960999991990010118004-10917-037050FM-12+000699999V0201401N00821220001CN0200001N9+02781+02271101221ADDAA106000891AA299001091AG10999GF102991021011012501001001MA1999999101151MD1999999-0131REMSYN017333   59013 69981
0115830960999991990010200004-10917-037050FM-12+000699999V0201401N00311220001CN9999999N9+02661+02331101271ADDAA106000091AG10999GF102991021021012501001001KA1240M+02901MA1999999101201MD1999999-0061REMSYN017333   10290 59006
0121830960999991990010212004-10917-037050FM-12+000699999V0200901N00311012001CN0200001N9+02701+02411101381ADDAA124002091AG10999GF106991061051012501001001KA1240N+02271MA1999999101311MD1999999+0111REMSYN023333   20227 58011 60024
0096830960999991990010218004-10917-037050FM-12+000699999V0201401N00311045001CN0200001N9+02841+02401101341ADDAA106000091AG10999GF106991041051012501031001MA1999999101271MD1999999+0121REMSYN011333   58012
0115830960999991990010300004-10917-037050FM-12+000699999V0200901N00311012001CN9999999N9+02691+02371101341ADDAA106000091AG10999GF106991061051012501001001KA1240M+02901MA1999999101271MD1999999+0071REMSYN017333   10290 58007
0115830960999991990010312004-10917-037050FM-12+000699999V0203201N00051012001CN0200001N9+02561+02361101281ADDAA106000091AG10999GF106991061051012501001001KA1240N+02271MA1999999101211MD1999999-0101REMSYN017333   20227 59010
0096830960999991990010318004-10917-037050FM-12+000699999V0200901N00311045001CN0200001N9+02821+02441101211ADDAA106000091AG10999GF106991031051012501031001MA1999999101141MD1999999-0131REMSYN011333   59013
0115830960999991990010400004-10917-037050FM-12+000699999V0200901N00311220001CN9999999N9+02681+02331101291ADDAA106000091AG10999GF102991021011012501001001KA1240M+02931MA1999999101221MD1999999-0051REMSYN017333   10293 59005
0115830960999991990010412004-10917-037050FM-12+000699999V0203601N00311012001CN0200001N9+02601+02351101231ADDAA106000091AG10999GF106991061051012501001001KA1240N+02351MA1999999101161MD1999999-0051REMSYN017333   20235 59005
0096830960999991990010418004-10917-037050FM-12+000699999V0200901N00411012001CN0200001N9+02801+02381101141ADDAA106000091AG10999GF107991071051012501001001MA1999999101071MD1999999-0071REMSYN011333   59007
0115830960999991990010500004-10917-037050FM-12+000699999V0200901N00311220001CN9999999N9+02661+02391101351ADDAA106000091AG10999GF102991021011012501001001KA1240M+02911MA1999999101281MD1999999+0061REMSYN017333   10291 58006
0132830960999991990010512004-10917-037050FM-12+000699999V0200501N00151220001CN0200001N9+02661+02241101251ADDAA124000891AA299001091AG10999GF104991041051012501001001KA1240N+02271MA1999999101181MD1999999+0021REMSYN023333   20227 58002 69984
0102830960999991990010518004-10917-037050FM-12+000699999V0201401N00411220001CN0200001N9+02861+02441101241ADDAA106005091AG10999GF104991041051012501001001MA1999999101171MD1999999+0101REMSYN017333   58010 60051
0121830960999991990010612004-10917-037050FM-12+000699999V0200901N00511220001CN0200001N9+02721+02101101261ADDAA124006091AG10999GF101991011011012501001001KA1240N+02321MA1999999101191MD1999999+0011REMSYN023333   20232 58001 60064
0096830960999991990010618004-10917-037050FM-12+000699999V0200901N00311220001CN0200001N9+02881+02321101121ADDAA106000091AG10999GF103991031021012501001001MA1999999101051MD1999999-0121REMSYN011333   59012
0115830960999991990010700004-10917-037050FM-12+000699999V0201401N00311220001CN9999999N9+02591+02351101291ADDAA106000091AG10999GF104991021051012501031001KA1240M+02971MA1999999101221MD1999999+0061REMSYN017333   10297 58006
0132830960999991990010718004-10917-037050FM-12+000699999V0200901N00051220001CN0200001N9+02501+02211101331ADDAA124000891AA299001091AG10999GF104991041051012501001001KA1240N+02161MA1999999101261MD1999999+0071REMSYN023333   20216 58007 69984
0115830960999991990010800004-10917-037050FM-12+000699999V0200901N00311220001CN9999999N9+02661+02271101211ADDAA106000091AG10999GF101991011011012501001001KA1240M+02881MA1999999101141MD1999999-0081REMSYN017333   10288 59008
0134830960999991990010812004-10917-037050FM-12+000699999V0200901N00051220001CN0200001N9+02501+02211101261ADDAA106000091AG10999GF104991999051012501001001KA1240N+02271MA1999999101191MD1999999-0071REMSYN017333   20227 59007EQDQ01+000032SCOTLC
0115830960999991990010900004-10917-037050FM-12+000699999V0200901N00311220001CN9999999N9+02701+02301101231ADDAA106000091AG10999GF101991011011012501001001KA1240M+02881MA1999999101461MD1999999+0021REMSYN017333   10288 58002
0115830960999991990010912004-10917-037050FM-12+000699999V0200901N00311012001CN0200001N9+02701+02301101321ADDAA106000091AG10999GF106991061051012501001001KA1240N+02411MA1999999101251MD1999999+0061REMSYN017333   20241 58006
0096830960999991990010918004-10917-037050FM-12+000699999V0200901N00461012001CN0200001N9+02841+02401101301ADDAA106000091AG10999GF106991061051012501001001MA1999999101231MD1999999+0041REMSYN011333   58004
0115830960999991990011000004-10917-037050FM-12+000699999V0200901N00311220001CN9999999N9+02721+02371101281ADDAA106000091AG10999GF104991041021012501001001KA1240M+02931MA1999999101211MD1999999+0051REMSYN017333   10293 58005
0115830960999991990011012004-10917-037050FM-12+000699999V0200901N00051220001CN0200001N9+02521+02231101301ADDAA106000091AG10999GF104991041051012501001001KA1240N+02331MA1999999101231MD1999999-0021REMSYN017333   20233 59002
0096830960999991990011018004-10917-037050FM-12+000699999V0200901N00361012001CN0200001N9+02781+02231101321ADDAA106000091AG10999GF106991061051012501001001MA1999999101251MD1999999+0021REMSYN011333   58002
0134830960999991990011100004-10917-037050FM-12+000699999V0200901N00311220001CN9999999N9+02731+02301101321ADDAA106000091AG10999GF101991011011012501001001KA1240M+02921MA1999999101251MD1999999-0031REMSYN017333   10292 59003EQDQ01+999990APOSLP
0115830960999991990011112004-10917-037050FM-12+000699999V0200501N00051012001CN0200001N9+02561+02211101291ADDAA106000091AG10999GF106991061051012501001001KA1240N+02431MA1999999101221MD1999999-0011REMSYN017333   20243 59001
0096830960999991990011118004-10917-037050FM-12+000699999V0200901N00311220001CN0200001N9+02881+02391101331ADDAA106000091AG10999GF101991011011012501001001MA1999999101261MD1999999+0011REMSYN011333   58001
0115830960999991990011212004-10917-037050FM-12+000699999V0200901N00311220001CN0200001N9+02701+02111101271ADDAA106000091AG10999GF106991021051012501001011KA1240N+02391MA1999999101201MD1999999-0021REMSYN017333   20239 59002
0096830960999991990011218004-10917-037050FM-12+000699999V0201401N00311220001CN0200001N9+02901+02151101301ADDAA106000091AG10999GF101991011011012501001001MA1999999101231MD1999999-0031REMSYN011333   59003
0115830960999991990011300004-10917-037050FM-12+000699999V0200901N00311220001CN9999999N9+02691+02351101331ADDAA106000091AG10999GF102991021021012501001001KA1240M+02981MA1999999101261MD1999999+0091REMSYN017333   10298 58009
0102830960999991990011312004-10917-037050FM-12+000699999V0200901N00311220001CN0200001N9+02801+02081101291ADDAA106000091AG10999GF101991011011012501001001MA1999999101221MD1999999+0021REMSYN017333   29246 58002
0096830960999991990011318004-10917-037050FM-12+000699999V0201401N00311220001CN0200001N9+02861+02281101291ADDAA106000091AG10999GF102991021051012501001001MA1999999101221MD1999999-0011REMSYN011333   59001
0121830960999991990011400004-10917-037050FM-12+000699999V0201401N00311220001CN9999999N9+02581+02331101361ADDAA106000391AG10999GF104991041051012501001001KA1240M+02961MA1999999101291MD1999999+0031REMSYN023333   10296 58003 69931
0132830960999991990011412004-10917-037050FM-12+000699999V0200901N00151012001CN0200001N9+02701+02281101311ADDAA124000891AA299001091AG10999GF106991061051012501001001KA1240N+02301MA1999999101241MD1999999+0021REMSYN023333   20230 58002 69984
0134830960999991990011500004-10917-037050FM-12+000699999V0201401N00311220001CN9999999N9+02681+02391101181ADDAA106000091AG10999GF101991011011012501001001KA1240M+02921MA1999999999999MD1999999-0181REMSYN017333   10292 59018EQDQ01 095113APOSP 
0115830960999991990011512004-10917-037050FM-12+000699999V0200901N00311220001CN0200001N9+02721+02051101171ADDAA106000091AG10999GF101991011011012501001001KA1240N+02431MA1999999101101MD1999999-0141REMSYN017333   20243 59014
0115830960999991990011600004-10917-037050FM-12+000699999V0200901N00211220001CN9999999N9+02691+02201101181ADDAA106000091AG10999GF101991011011012501001001KA1240M+02901MA1999999101111MD1999999+0001REMSYN017333   10290 58000
0115830960999991990011612004-10917-037050FM-12+000699999V0200901N00051220001CN0200001N9+02461+02151101171ADDAA106000091AG10999GF101991011011012501001001KA1240N+02171MA1999999101101MD1999999+0001REMSYN017333   20217 58000
0096830960999991990011618004-10917-037050FM-12+000699999V0200901N00361220001CN0200001N9+02881+02391101131ADDAA106000091AG10999GF101991011051012501001001MA1999999101061MD1999999-0091REMSYN011333   59009
0115830960999991990011700004-10917-037050FM-12+000699999V0200901N00311220001CN9999999N9+02701+02431101191ADDAA106000091AG10999GF102991021051012501001001KA1240M+02951MA1999999101121MD1999999+0011REMSYN017333   10295 58001
0121830960999991990011712004-10917-037050FM-12+000699999V0200501N00311220001CN0200001N9+02701+02281101161ADDAA124001091AG10999GF104991041051012501001001KA1240N+02301MA1999999101091MD1999999-0011REMSYN023333   20230 59001 60014
0096830960999991990011718004-10917-037050FM-12+000699999V0200901N00411220001CN0200001N9+02861+02371101211ADDAA106000091AG10999GF101991011011012501001001MA1999999101141MD1999999+0061REMSYN011333   58006
0115830960999991990011800004-10917-037050FM-12+000699999V0200901N00311220001CN9999999N9+02711+02281101231ADDAA106000091AG10999GF101991011011012501001001KA1240M+02961MA1999999101161MD1999999+0041REMSYN017333   10296 58004
0121830960999991990011812004-10917-037050FM-12+000699999V0200901N00361012001CN0200001N9+02521+02251101271ADDAA124001091AG10999GF106991061051012501001001KA1240N+02311MA1999999101201MD1999999+0111REMSYN023333   20231 58011 60014
0096830960999991990011818004-10917-037050FM-12+000699999V0200901N00311220001CN0200001N9+02871+02351101221ADDAA106000091AG10999GF102991021051012501001001MA1999999101151MD1999999+0011REMSYN011333   58001
0115830960999991990011900004-10917-037050FM-12+000699999V0200901N00311220001CN9999999N9+02701+02401101231ADDAA106000091AG10999GF102991021051012501001001KA1240M+02941MA1999999101161MD1999999+0001REMSYN017333   10294 58000
0121830960999991990011912004-10917-037050FM-12+000699999V0200901N00311220001CN0200001N9+02601+02191101181ADDAA124006091AG10999GF104991041051012501001001KA1240N+02371MA1999999101111MD1999999-0091REMSYN023333   20237 59009 60064
0096830960999991990011918004-10917-037050FM-12+000699999V0200901N00311220001CN0200001N9+02901+02431101181ADDAA106000091AG10999GF102991021021012501001001MA1999999101111MD1999999-0041REMSYN011333   59004
0115830960999991990012000004-10917-037050FM-12+000699999V0200901N00311220001CN9999999N9+02701+02351101201ADDAA106000091AG10999GF101991011011012501001001KA1240M+02941MA1999999101131MD1999999-0031REMSYN017333   10294 59003
0115830960999991990012012004-10917-037050FM-12+000699999V0200901N00361220001CN0200001N9+02801+02251101261ADDAA106000091AG10999GF102991021051012501001001KA1240N+02461MA1999999101191MD1999999+0081REMSYN017333   20246 58008
0096830960999991990012018004-10917-037050FM-12+000699999V0200901N00311220001CN0200001N9+02891+02301101251ADDAA106000091AG10999GF104991041051012501001001MA1999999101181MD1999999+0071REMSYN011333   58007
0140830960999991990012100004-10917-037050FM-12+000699999V0201401N00311220001CN9999999N9+02621+02331101341ADDAA106007091AG10999GF101991999011012501001001KA1240M+02941MA1999999101271MD1999999+0141REMSYN023333   10294 58014 60071EQDQ01+000002SCOTLC
0121830960999991990012112004-10917-037050FM-12+000699999V0201401N00311220001CN0200001N9+02821+02331101281ADDAA124007091AG10999GF102991021011012501001001KA1240N+02371MA1999999101211MD1999999+0021REMSYN023333   20237 58002 60074
0096830960999991990012118004-10917-037050FM-12+000699999V0200901N00311220001CN0200001N9+02851+02351101011ADDAA106000091AG10999GF101991011011012501001001MA1999999100941MD1999999-0241REMSYN011333   59024
0115830960999991990012200004-10917-037050FM-12+000699999V0201401N00051220001CN9999999N9+02501+02341101321ADDAA106000091AG10999GF102991021011012501001001KA1240M+02931MA1999999101251MD1999999-0021REMSYN017333   10293 59002
0115830960999991990012212004-10917-037050FM-12+000699999V0200901N00051012001CN0200001N9+02501+02211101271ADDAA106000091AG10999GF106991061051012501001001KA1240N+02191MA1999999101201MD1999999-0011REMSYN017333   20219 59001
0096830960999991990012218004-10917-037050FM-12+000699999V0201401N00311045001CN0200001N9+02901+02371101191ADDAA106000091AG10999GF106991041051012501031001MA1999999101121MD1999999-0181REMSYN011333   59018
0115830960999991990012300004-10917-037050FM-12+000699999V0200901N00151220001CN9999999N9+02721+02371101151ADDAA106000091AG10999GF101991011011012501001001KA1240M+02961MA1999999101081MD1999999-0171REMSYN017333   10296 59017
0115830960999991990012312004-10917-037050FM-12+000699999V0200901N00311220001CN0200001N9+02741+02341101151ADDAA106000091AG10999GF101991011011012501001001KA1240N+02291MA1999999101081MD1999999-0121REMSYN017333   20229 59012
0096830960999991990012318004-10917-037050FM-12+000699999V0200901N00311220001CN0200001N9+02911+02431101211ADDAA106000091AG10999GF102991021051012501001001MA1999999101141MD1999999+0021REMSYN011333   58002
0115830960999991990012400004-10917-037050FM-12+000699999V0200901N00311220001CN9999999N9+02841+02381101131ADDAA106000091AG10999GF101991011011012501001001KA1240M+02971MA1999999101061MD1999999-0021REMSYN017333   10297 59002
0115830960999991990012412004-10917-037050FM-12+000699999V0200901N00311220001CN0200001N9+02721+02281101071ADDAA106000091AG10999GF102991021051012501001001KA1240N+02451MA1999999101001MD1999999-0081REMSYN017333   20245 59008
0115830960999991990012500004-10917-037050FM-12+000699999V0201401N00311220001CN9999999N9+02821+02361101031ADDAA106000091AG10999GF101991011011012501001001KA1240M+02961MA1999999100961MD1999999-0101REMSYN017333   10296 59010
0115830960999991990012512004-10917-037050FM-12+000699999V0201401N00311045001CN0200001N9+02661+02311101091ADDAA106000091AG10999GF106991041051012501021001KA1240N+02471MA1999999101021MD1999999+0021REMSYN017333   20247 58002
0096830960999991990012518004-10917-037050FM-12+000699999V0200901N00311220001CN0200001N9+02901+02201101141ADDAA106000091AG10999GF102991021051012501001001MA1999999101071MD1999999+0021REMSYN011333   58002
0115830960999991990012600004-10917-037050FM-12+000699999V0200901N00311220001CN9999999N9+02721+02301101191ADDAA106000091AG10999GF101991011011012501001001KA1240M+02961MA1999999101121MD1999999+0161REMSYN017333   10296 58016
0115830960999991990012612004-10917-037050FM-12+000699999V0200901N00411220001CN0200001N9+02711+02171101201ADDAA106000091AG10999GF103991031051012501001001KA1240N+02501MA1999999101131MD1999999+0111REMSYN017333   20250 58011
0096830960999991990012618004-10917-037050FM-12+000699999V0200901N00511220001CN0200001N9+02861+02391101181ADDAA106000091AG10999GF101991011011012501001001MA1999999101111MD1999999+0041REMSYN011333   58004
0115830960999991990012712004-10917-037050FM-12+000699999V0200901N00311220001CN0200001N9+02741+02211101351ADDAA106000091AG10999GF102991021051012501001001KA1240N+02491MA1999999101281MD1999999+0151REMSYN017333   20249 58015
0096830960999991990012718004-10917-037050FM-12+000699999V0200901N00311220001CN0200001N9+02881+01391101341ADDAA106000091AG10999GF104991041051012501001001MA1999999101271MD1999999+0161REMSYN011333   58016
0115830960999991990012800004-10917-037050FM-12+000699999V0201401N00311220001CN9999999N9+02711+02301101411ADDAA106000091AG10999GF102991021051012501001001KA1240M+03001MA1999999101341MD1999999+0091REMSYN017333   10300 58009
0121830960999991990012812004-10917-037050FM-12+000699999V0201401N00311220001CN0200001N9+02741+02121101261ADDAA124002091AG10999GF101991011011012501001001KA1240N+02301MA1999999101191MD1999999-0091REMSYN023333   20230 59009 60024
0096830960999991990012818004-10917-037050FM-12+000699999V0200901N00361012001CN0200001N9+02721+02451101171ADDAA106000091AG10999GF106991061051012501001001MA1999999101101MD1999999-0171REMSYN011333   59017
0096830960999991990012918004-10917-037050FM-12+000699999V0201401N00311012001CN0200001N9+02841+02241101111ADDAA106000091AG10999GF106991061051012501001001MA1999999101041MD1999999-0061REMSYN011333   59006
0121830960999991990013000004-10917-037050FM-12+000699999V0200901N00051220001CN9999999N9+02561+02311101201ADDAA106006091AG10999GF101991011011012501001001KA1240M+02941MA1999999101131MD1999999-0151REMSYN023333   10294 59015 60061
0121830960999991990013012004-10917-037050FM-12+000699999V0200501N00311012001CN0200001N9+02441+02251101191ADDAA124009091AG10999GF108991081071012501999999KA1240N+02251MA1999999101121MD1999999+0031REMSYN023333   20225 58003 60094
0096830960999991990013018004-10917-037050FM-12+000699999V0201401N00311012001CN0200001N9+02901+02341101271ADDAA106000091AG10999GF106991061051012501001001MA1999999101201MD1999999+0161REMSYN011333   58016
0115830960999991990013100004-10917-037050FM-12+000699999V0201401N00261220001CN9999999N9+02701+02261101271ADDAA106000091AG10999GF101991011011012501001001KA1240M+02941MA1999999101201MD1999999+0071REMSYN017333   10294 58007
0115830960999991990013112004-10917-037050FM-12+000699999V0201401N00211220001CN0200001N9+02721+02221101291ADDAA106000091AG10999GF102991021051012501001001KA1240N+02351MA1999999101221MD1999999+0101REMSYN017333   20235 58010
0096830960999991990013118004-10917-037050FM-12+000699999V0201401N00311012001CN0200001N9+02901+02321101371ADDAA106000091AG10999GF106991061051012501001001MA1999999101301MD1999999+0101REMSYN011333   58010
0115830960999991990020100004-10917-037050FM-12+000699999V0201401N00051220001CN9999999N9+02721+02371101351ADDAA106000091AG10999GF101991011051012501001001KA1240M+03001MA1999999101281MD1999999+0081REMSYN017333   10300 58008
0115830960999991990020112004-10917-037050FM-12+000699999V0201401N00211220001CN0200001N9+02861+02161101271ADDAA106000091AG10999GF102991021051012501001001KA1240N+02471MA1999999101201MD1999999-0021REMSYN017333   20247 59002
0096830960999991990020118004-10917-037050FM-12+000699999V0201401N00361220001CN0200001N9+02841+02221101351ADDAA106000091AG10999GF102991021051012501001001MA1999999101281MD1999999-0021REMSYN011333   59002
0115830960999991990020200004-10917-037050FM-12+000699999V0201401N00051220001CN9999999N9+02711+02281101431ADDAA106000091AG10999GF104991041051012501001001KA1240M+02961MA1999999101361MD1999999+0081REMSYN017333   10296 58008
0115830960999991990020212004-10917-037050FM-12+000699999V0201401N00051220001CN0200001N9+02621+02231101211ADDAA106000091AG10999GF104991041051012501001001KA1240N+02501MA1999999101141MD1999999-0061REMSYN017333   20250 59006
0096830960999991990020218004-10917-037050FM-12+000699999V0201801N00361012001CN0200001N9+02901+02311101251ADDAA106000091AG10999GF106991061051012501001001MA1999999101181MD1999999-0101REMSYN011333   59010
0121830960999991990020300004-10917-037050FM-12+000699999V0201401N00311220001CN9999999N9+02681+02281101371ADDAA106005091AG10999GF101991011011012501001001KA1240M+03011MA1999999101301MD1999999-0061REMSYN023333   10301 59006 60051
0121830960999991990020312004-10917-037050FM-12+000699999V0200901N00311220001CN0200001N9+02721+02381101221ADDAA124005091AG10999GF102991021051012501001001KA1240N+02491MA1999999101151MD1999999+0011REMSYN023333   20249 58001 60054
0096830960999991990020318004-10917-037050FM-12+000699999V0200901N00311220001CN0200001N9+02901+02391101341ADDAA106000091AG10999GF102991021021012501001001MA1999999101271MD1999999+0111REMSYN011333   58011
0132830960999991990020412004-10917-037050FM-12+000699999V0201801N00051220001CN0200001N9+02731+02081101241ADDAA124000691AA299000591AG10999GF102991021051012501001001KA1240N+02471MA1999999101171MD1999999+0021REMSYN023333   20247 58002 69964
0096830960999991990020418004-10917-037050FM-12+000699999V0200901N00311012001CN0200001N9+02881+02211101171ADDAA106000091AG10999GF106991061051012501001001MA1999999101101MD1999999-0171REMSYN011333   59017
0115830960999991990020500004-10917-037050FM-12+000699999V0200901N00311220001CN9999999N9+02681+02311101311ADDAA106000091AG10999GF104991041051012501001001KA1240M+02981MA1999999101241MD1999999+0191REMSYN017333   10298 58019
0132830960999991990020512004-10917-037050FM-12+000699999V0200901N00311220001CN0200001N9+02761+02161101411ADDAA124000991AA299001091AG10999GF102991021051012501001001KA1240N+02451MA1999999101341MD1999999+0171REMSYN023333   20245 58017 69994
0096830960999991990020518004-10917-037050FM-12+000699999V0200901N00361220001CN0200001N9+02891+02181101281ADDAA106000091AG10999GF101991011011012501001001MA1999999101211MD1999999+0111REMSYN011333   58011
0115830960999991990020600004-10917-037050FM-12+000699999V0200901N00051220001CN9999999N9+02701+02261101341ADDAA106000091AG10999GF101991011011012501001001KA1240M+02971MA1999999101271MD1999999+0031REMSYN017333   10297 58003
0115830960999991990020612004-10917-037050FM-12+000699999V0200901N00311220001CN0200001N9+02681+02241101261ADDAA106000091AG10999GF104991041051012501001001KA1240N+02491MA1999999101191MD1999999-0151REMSYN017333   20249 59015
0115830960999991990020700004-10917-037050FM-12+000699999V0200901N00211220001CN9999999N9+02681+02281101331ADDAA106000091AG10999GF101991011011012501001001KA1240M+02971MA1999999101261MD1999999-0011REMSYN017333   10297 59001
0115830960999991990020712004-10917-037050FM-12+000699999V0201801N00211220001CN0200001N9+02721+02191101291ADDAA106000091AG10999GF102991021051012501001001KA1240N+02491MA1999999101221MD1999999+0031REMSYN017333   20249 58003
0115830960999991990020800004-10917-037050FM-12+000699999V0200901N00051220001CN9999999N9+02681+02161101361ADDAA106000091AG10999GF101991011011012501001001KA1240M+02961MA1999999101291MD1999999+0031REMSYN017333   10296 58003
0115830960999991990020812004-10917-037050FM-12+000699999V0200901N00151220001CN0200001N9+02661+02161101271ADDAA106000091AG10999GF102991021051012501001001KA1240N+02481MA1999999101201MD1999999-0021REMSYN017333   20248 59002
0096830960999991990020818004-10917-037050FM-12+000699999V0200901N00311220001CN0200001N9+02881+02181101281ADDAA106000091AG10999GF101991011011012501001001MA1999999101211MD1999999-0141REMSYN011333   59014
0115830960999991990020900004-10917-037050FM-12+000699999V0200901N00051220001CN9999999N9+02711+02221101141ADDAA106000091AG10999GF101991011011012501001001KA1240M+03061MA1999999101071MD1999999-0221REMSYN017333   10306 59022
0115830960999991990020912004-10917-037050FM-12+000699999V0200901N00051220001CN0200001N9+02621+02121101251ADDAA106000091AG10999GF102991021011012501001001KA1240N+02451MA1999999101181MD1999999-0021REMSYN017333   20245 59002
0115830960999991990021000004-10917-037050FM-12+000699999V0200901N00311220001CN9999999N9+02701+02301101121ADDAA106000091AG10999GF102991021011012501001001KA1240M+02981MA1999999101051MD1999999-0021REMSYN017333   10298 59002
0115830960999991990021012004-10917-037050FM-12+000699999V0203201N00051220001CN0200001N9+02611+02211101111ADDAA106000091AG10999GF102991021051012501001001KA1240N+02121MA1999999101041MD1999999-0141REMSYN017333   20212 59014
0096830960999991990021018004-10917-037050FM-12+000699999V0200901N00411220001CN0200001N9+02881+02371100941ADDAA106000091AG10999GF102991021011012501001001MA1999999100871MD1999999-0071REMSYN011333   59007
0115830960999991990021100004-10917-037050FM-12+000699999V0200901N00411220001CN9999999N9+02781+02301100981ADDAA106000091AG10999GF101991011011012501001001KA1240M+03041MA1999999100911MD1999999-0141REMSYN017333   10304 59014
0115830960999991990021112004-10917-037050FM-12+000699999V0203601N00051220001CN0200001N9+02721+02281101151ADDAA106000091AG10999GF101991011011012501001001KA1240N+02391MA1999999101081MD1999999+0041REMSYN017333   20239 58004
0096830960999991990021118004-10917-037050FM-12+000699999V0200901N00511220001CN0200001N9+02901+02321100901ADDAA106000091AG10999GF101991011051012501001001MA1999999100831MD1999999-0041REMSYN011333   59004
0115830960999991990021200004-10917-037050FM-12+000699999V0200901N00461220001CN9999999N9+02761+02301101121ADDAA106000091AG10999GF101991011011012501001001KA1240M+03061MA1999999101051MD1999999+0141REMSYN017333   10306 58014
0115830960999991990021212004-10917-037050FM-12+000699999V0203601N00151220001CN0200001N9+02701+02261101091ADDAA106000091AG10999GF102991021051012501001001KA1240N+02411MA1999999101021MD1999999-0061REMSYN017333   20241 59006
0096830960999991990021218004-10917-037050FM-12+000699999V0200901N00311220001CN0200001N9+02811+02261101231ADDAA106000091AG10999GF101991011011012501001001MA1999999101161MD1999999-0051REMSYN011333   59005
0115830960999991990021300004-10917-037050FM-12+000699999V0200901N00511220001CN9999999N9+02721+02281101171ADDAA106000091AG10999GF104991041051012501001001KA1240M+03011MA1999999101101MD1999999-0051REMSYN017333   10301 59005
0115830960999991990021312004-10917-037050FM-12+000699999V0203601N00311220001CN0200001N9+02721+02151101151ADDAA106000091AG10999GF104991041051012501001001KA1240N+02451MA1999999101081MD1999999+0061REMSYN017333   20245 58006
0096830960999991990021318004-10917-037050FM-12+000699999V0200901N00621220001CN0200001N9+02861+02231100921ADDAA106000091AG10999GF101991011011012501001001MA1999999100851MD1999999-0311REMSYN011333   59031
0115830960999991990021400004-10917-037050FM-12+000699999V0200901N00311220001CN9999999N9+02741+02301101161ADDAA106000091AG10999GF104991041051012501001001KA1240M+03001MA1999999101091MD1999999-0011REMSYN017333   10300 59001
0115830960999991990021412004-10917-037050FM-12+000699999V0203601N00211220001CN0200001N9+02691+02261101161ADDAA106000091AG10999GF101991011011012501001001KA1240N+02411MA1999999101091MD1999999+0011REMSYN017333   20241 58001
0115830960999991990021500004-10917-037050FM-12+000699999V0200901N00411220001CN9999999N9+02761+02381100971ADDAA106000091AG10999GF101991011011012501001001KA1240M+03031MA1999999100901MD1999999-0191REMSYN017333   10303 59019
0115830960999991990021512004-10917-037050FM-12+000699999V0203601N00311012001CN0200001N9+02501+02131101171ADDAA106000091AG10999GF106991061051012501001001KA1240N+02401MA1999999101101MD1999999+0011REMSYN017333   20240 58001
0096830960999991990021518004-10917-037050FM-12+000699999V0200901N00511012001CN0200001N9+02881+02391100911ADDAA106000091AG10999GF106991061051012501001001MA1999999100841MD1999999-0141REMSYN011333   59014
0115830960999991990021600004-10917-037050FM-12+000699999V0200901N00311220001CN9999999N9+02741+02401101071ADDAA106000091AG10999GF101991011011012501001001KA1240M+03101MA1999999101001MD1999999+0101REMSYN017333   10310 58010
0115830960999991990021612004-10917-037050FM-12+000699999V0203601N00311012001CN0200001N9+99999+99999101161ADDAA106000091AG10999GF106991061051012501001001KA1240N+02421MA1999999101091MD1999999-0011REMSYN017333   20242 59001
0096830960999991990021618004-10917-037050FM-12+000699999V0200901N00511220001CN0200001N9+02831+02241100981ADDAA106000091AG10999GF102991021051012501001001MA1999999100911MD1999999+0071REMSYN011333   58007
0115830960999991990021700004-10917-037050FM-12+000699999V0200901N00511220001CN9999999N9+02711+02351101061ADDAA106000091AG10999GF104991041051012501001001KA1240M+03021MA1999999100991MD1999999-0011REMSYN017333   10302 59001
0115830960999991990021712004-10917-037050FM-12+000699999V0203601N00051012001CN0200001N9+02701+02081101311ADDAA106000091AG10999GF106991061051012501001001KA1240N+02171MA1999999101241MD1999999+0151REMSYN017333   20217 58015
0115830960999991990021800004-10917-037050FM-12+000699999V0200901N00311012001CN9999999N9+02731+02371101101ADDAA106000091AG10999GF106991061051012501001001KA1240M+02981MA1999999101031MD1999999+0041REMSYN017333   10298 58004
0115830960999991990021812004-10917-037050FM-12+000699999V0203601N00051220001CN0200001N9+02601+02211101261ADDAA106000091AG10999GF104991041051012501001001KA1240N+02401MA1999999101191MD1999999-0051REMSYN017333   20240 59005
0096830960999991990021818004-10917-037050FM-12+000699999V0200901N00311220001CN0200001N9+02901+02221101191ADDAA106000091AG10999GF101991011011012501001001MA1999999101121MD1999999+0091REMSYN011333   58009
0115830960999991990021900004-10917-037050FM-12+000699999V0200901N00361220001CN9999999N9+02711+02261101371ADDAA106000091AG10999GF101991011011012501001001KA1240M+02961MA1999999101301MD1999999+0271REMSYN017333   10296 58027
0061830960999991990021912004-10917-037050FM-12+000699999V0203601N001019999999N0200001N9+02701+02331999999ADDAA106000091AG10999GF106991999999012501999999MD1810151+9999
0096830960999991990021918004-10917-037050FM-12+000699999V0200901N00311220001CN0200001N9+02861+02161101221ADDAA106000091AG10999GF104991041051012501001001MA1999999101151MD1999999+0031REMSYN011333   58003
0115830960999991990022012004-10917-037050FM-12+000699999V0202301N00051220001CN0200001N9+02661+02331101401ADDAA106000091AG10999GF104991041051012501001001KA1240N+02251MA1999999101331MD1999999-0011REMSYN017333   20225 59001
0096830960999991990022018004-10917-037050FM-12+000699999V0201801N00311220001CN0200001N9+02901+02321101121ADDAA106000091AG10999GF102991021051012501001001MA1999999101051MD1999999-0101REMSYN011333   59010
0115830960999991990022112004-10917-037050FM-12+000699999V0203001N00311220001CN0200001N9+02781+02271101321ADDAA106000091AG10999GF102991021051012501001001KA1240N+02301MA1999999101251MD1999999-0081REMSYN017333   20230 59008
0131830960999991990022118004-10917-037050FM-12+000699999V0203601N00051220001CN0200001N9+02881+02281101191ADDAA106000091AG10999GF101991011051012501001001MA1999999101121MD1999999+0071REMSYN011333   58007EQDQ01+091123APOSP Q02+999990APOSP 
0115830960999991990022200004-10917-037050FM-12+000699999V0201801N00051220001CN9999999N9+02741+02321101311ADDAA106000091AG10999GF101991011011012501001001KA1240M+03001MA1999999101241MD1999999-0091REMSYN017333   10300 59009
0115830960999991990022212004-10917-037050FM-12+000699999V0200901N00151220001CN0200001N9+02781+02361101351ADDAA106000091AG10999GF101991011011012501001001KA1240N+02501MA1999999101281MD1999999+0031REMSYN017333   20250 58003
0085830960999991990022218004-10917-037050FM-12+000699999V0201801N00311220001CN9999999N9+02901+02201101111ADDAG10999GF101991011011999999001001MA1999999101041MD1999999-0081REMSYN011333   59008
0115830960999991990022300004-10917-037050FM-12+000699999V0201801N00311220001CN9999999N9+02751+02261101191ADDAA106000091AG10999GF102991021011012501001001KA1240M+03061MA1999999101121MD1999999-0121REMSYN017333   10306 59012
0115830960999991990022312004-10917-037050FM-12+000699999V0203601N00051220001CN0200001N9+02841+02261101151ADDAA106000091AG10999GF102991021011012501001001KA1240N+02211MA1999999101081MD1999999-0201REMSYN017333   20221 59020
0115830960999991990022400004-10917-037050FM-12+000699999V0200901N00311220001CN9999999N9+02701+02351101061ADDAA106000091AG10999GF101991011011012501001001KA1240M+03041MA1999999100991MD1999999-0131REMSYN017333   10304 59013
0115830960999991990022412004-10917-037050FM-12+000699999V0203201N00051220001CN0200001N9+02521+02271101051ADDAA106000091AG10999GF102991021051012501001001KA1240N+02311MA1999999100981MD1999999-0101REMSYN017333   20231 59010
0096830960999991990022418004-10917-037050FM-12+000699999V0200901N00511220001CN0200001N9+02941+02331100861ADDAA106000091AG10999GF101991011011012501001001MA1999999100791MD1999999-0021REMSYN011333   59002
0115830960999991990022512004-10917-037050FM-12+000699999V0203601N00311045001CN0200001N9+02901+02301101231ADDAA106000091AG10999GF106991041051012501031001KA1240N+02411MA1999999101161MD1999999+0181REMSYN017333   20241 58018
0096830960999991990022518004-10917-037050FM-12+000699999V0200901N00311220001CN0200001N9+02941+02361101161ADDAA106000091AG10999GF101991011011012501001001MA1999999101091MD1999999+0301REMSYN011333   58030
0115830960999991990022600004-10917-037050FM-12+000699999V0200501N00411220001CN9999999N9+02721+02391101121ADDAA106000091AG10999GF101991011011012501001001KA1240M+03031MA1999999101051MD1999999+0001REMSYN017333   10303 58000
0115830960999991990022612004-10917-037050FM-12+000699999V0200901N00311220001CN0200001N9+02821+02331101151ADDAA106000091AG10999GF102991021051012501001001KA1240N+02541MA1999999101081MD1999999-0081REMSYN017333   20254 59008
0115830960999991990022700004-10917-037050FM-12+000699999V0200901N00311220001CN9999999N9+02701+02131101101ADDAA106000091AG10999GF104991041051012501001001KA1240M+02981MA1999999101031MD1999999-0021REMSYN017333   10298 59002
0115830960999991990022712004-10917-037050FM-12+000699999V0201801N00311220001CN0200001N9+02881+02181101221ADDAA106000091AG10999GF104991041051012501001001KA1240N+02521MA1999999101151MD1999999+0071REMSYN017333   20252 58007
0096830960999991990022718004-10917-037050FM-12+000699999V0200901N00311012001CN0200001N9+99999+99999101081ADDAA106000091AG10999GF105991051051012501001001MA1999999101011MD1999999+0131REMSYN011333   58013
0121830960999991990022812004-10917-037050FM-12+000699999V0202701N00051220001CN0200001N9+02681+02261101221ADDAA124001091AG10999GF102991021051012501001001KA1240N+02271MA1999999101151MD1999999+0001REMSYN023333   20227 58000 60014
0096830960999991990022818004-10917-037050FM-12+000699999V0200901N00311220001CN0200001N9+02741+02261101111ADDAA106000091AG10999GF104991041051012501001001MA1999999101041MD1999999+0031REMSYN011333   58003
0132830960999991990030100004-10917-037050FM-12+000699999V0200901N00311220001CN9999999N9+02681+02451101191ADDAA106000491AA299000591AG10999GF102991021051012501001001KA1240M+02921MA1999999101121MD1999999+0071REMSYN023333   10292 58007 69941
0132830960999991990030112004-10917-037050FM-12+000699999V0203601N00051012001CN0200001N9+02601+02191101391ADDAA124000691AA299000591AG10999GF106991061051012501001001KA1240N+02371MA1999999101321MD1999999+0171REMSYN023333   20237 58017 69964
0096830960999991990030118004-10917-037050FM-12+000699999V0200901N00311220001CN0200001N9+02801+02381101131ADDAA106000091AG10999GF104991041051012501001001MA1999999101061MD1999999+0021REMSYN011333   58002
0121830960999991990030200004-10917-037050FM-12+000699999V0200901N00311220001CN9999999N9+02681+02201101361ADDAA106003091AG10999GF102991021051012501001001KA1240M+03041MA1999999101291MD1999999+0171REMSYN023333   10304 58017 60031
0121830960999991990030212004-10917-037050FM-12+000699999V0203601N00311012001CN0200001N9+02501+02211101431ADDAA124005091AG10999GF106991061051012501001001KA1240N+02371MA1999999101361MD1999999+0041REMSYN023333   20237 58004 60054
0096830960999991990030218004-10917-037050FM-12+000699999V0200901N00411012001CN0200001N9+02841+02381101341ADDAA106000091AG10999GF106991061051012501001001MA1999999101271MD1999999+0191REMSYN011333   58019
0115830960999991990030300004-10917-037050FM-12+000699999V0200901N00311012001CN9999999N9+02721+02221101331ADDAA106000091AG10999GF106991061051012501001001KA1240M+03031MA1999999101261MD1999999-0031REMSYN017333   10303 59003
0121830960999991990030312004-10917-037050FM-12+000699999V0202701N00051012001CN0200001N9+02501+02311101491ADDAA124007091AG10999GF106991061051012501001001KA1240N+02291MA1999999101421MD1999999+0061REMSYN023333   20229 58006 60074
0115830960999991990030400004-10917-037050FM-12+000699999V0201801N00151220001CN9999999N9+02701+02171101221ADDAA106000091AG10999GF102991021021012501001001KA1240M+02841MA1999999101151MD1999999-0111REMSYN017333   10284 59011
0121830960999991990030412004-10917-037050FM-12+000699999V0201801N00261220001CN0200001N9+02801+02031101431ADDAA124006091AG10999GF102991021011012501001001KA1240N+02401MA1999999101361MD1999999-0061REMSYN023333   20240 59006 60064
0096830960999991990030418004-10917-037050FM-12+000699999V0200901N00211220001CN0200001N9+02771+02251101111ADDAA106000091AG10999GF102991021011012501001001MA1999999101041MD1999999-0181REMSYN011333   59018
0115830960999991990030500004-10917-037050FM-12+000699999V0200901N00311220001CN9999999N9+02601+02391101311ADDAA106000091AG10999GF104991021051012501001011KA1240M+02961MA1999999101241MD1999999+0091REMSYN017333   10296 58009
0115830960999991990030512004-10917-037050FM-12+000699999V0203201N00051220001CN0200001N9+02561+02251101291ADDAA106000091AG10999GF101991011011012501001001KA1240N+02351MA1999999101221MD1999999-0141REMSYN017333   20235 59014
0096830960999991990030518004-10917-037050FM-12+000699999V0200901N00411220001CN0200001N9+02941+02211101111ADDAA106000091AG10999GF101991011011012501001001MA1999999101041MD1999999+0001REMSYN011333   58000
0115830960999991990030600004-10917-037050FM-12+000699999V0200901N00511220001CN9999999N9+02761+02321101331ADDAA106000091AG10999GF101991011011012501001001KA1240M+03001MA1999999101261MD1999999+0021REMSYN017333   10300 58002
0143830960999991990030612004-10917-037050FM-12+000699999V0203201N00051007501CN0100001N9+02541+02351101361ADDAA124007091AG10999AY161061AY261061GF108991081071008001999999KA1240N+02391MA1999999101291MD1999999+0071MW1601REMSYN023333   20239 58007 60074
0115830960999991990030700004-10917-037050FM-12+000699999V0200901N00411220001CN9999999N9+02721+02301101271ADDAA106000091AG10999GF102991021051012501001001KA1240M+02981MA1999999101201MD1999999-0061REMSYN017333   10298 59006
0121830960999991990030712004-10917-037050FM-12+000699999V0200901N00311220001CN0200001N9+02761+02231101331ADDAA124011091AG10999GF101991011011012501001001KA1240N+02371MA1999999101261MD1999999-0031REMSYN023333   20237 59003 60114
0096830960999991990030718004-10917-037050FM-12+000699999V0200901N00311220001CN0200001N9+02841+02241101291ADDAA106000091AG10999GF101991011011012501001001MA1999999101221MD1999999+0021REMSYN011333   58002
0115830960999991990030800004-10917-037050FM-12+000699999V0200901N00311220001CN9999999N9+02701+02261101271ADDAA106000091AG10999GF102991021011012501001001KA1240M+03021MA1999999101201MD1999999+0051REMSYN017333   10302 58005
0096830960999991990030818004-10917-037050FM-12+000699999V0201801N00051012001CN0200001N9+02921+02271101291ADDAA106000091AG10999GF105991051051012501001001MA1999999101221MD1999999+0001REMSYN011333   58000
0115830960999991990030912004-10917-037050FM-12+000699999V0201801N00051012001CN0200001N9+02741+02141101511ADDAA106000091AG10999GF106991061051012501001001KA1240N+02401MA1999999101441MD1999999+0061REMSYN017333   20240 58006
0115830960999991990031004004-10917-037050FM-12+000699999V0201801N00051220001CN9999999N9+02711+02241101511ADDAA106000091AG10999GF101991011011012501001001KA1240M+02981MA1999999101441MD1999999+0001REMSYN017333   10298 58000
0132830960999991990031012004-10917-037050FM-12+000699999V0201801N00051045001CN0200001N9+02781+02301101461ADDAA124000891AA299001091AG10999GF106991031051012501031001KA1240N+02541MA1999999101391MD1999999-0051REMSYN023333   20254 59005 69984
0096830960999991990031018004-10917-037050FM-12+000699999V0201801N00311220001CN0200001N9+02841+02301101401ADDAA106000091AG10999GF104991041051012501001001MA1999999101331MD1999999-0041REMSYN011333   59004
0115830960999991990031100004-10917-037050FM-12+000699999V0201801N00051220001CN9999999N9+02711+02281101411ADDAA106000091AG10999GF102991021051012501001001KA1240M+03001MA1999999101341MD1999999-0101REMSYN017333   10300 59010
0115830960999991990031112004-10917-037050FM-12+000699999V0201401N00151012001CN0200001N9+02701+02281101381ADDAA106000091AG10999GF106991061051012501001001KA1240N+02471MA1999999101311MD1999999+0081REMSYN017333   20247 58008
0096830960999991990031118004-10917-037050FM-12+000699999V0201801N00311220001CN0200001N9+02881+02281101951ADDAA106000091AG10999GF104991041051012501001001MA1999999101381MD1999999+0051REMSYN011333   58005
0115830960999991990031200004-10917-037050FM-12+000699999V0201801N00261220001CN9999999N9+02721+02281101411ADDAA106000091AG10999GF101991011011012501001001KA1240M+03021MA1999999101341MD1999999+0001REMSYN017333   10302 58000
0115830960999991990031212004-10917-037050FM-12+000699999V0203201N00051220001CN0200001N9+02641+02311101371ADDAA106000091AG10999GF104991041051012501001001KA1240N+02311MA1999999101301MD1999999-0011REMSYN017333   20231 59001
0096830960999991990031218004-10917-037050FM-12+000699999V0201401N00461220001CN0200001N9+02941+02331101191ADDAA106000091AG10999GF102991021021012501001001MA1999999101101MD1999999-0221REMSYN011333   59022
0115830960999991990031300004-10917-037050FM-12+000699999V0200901N00311220001CN9999999N9+02141+02001101141ADDAA106000091AG10999GF101991011011012501001001KA1240M+03151MA1999999101071MD1999999-0271REMSYN017333   10315 59027
0115830960999991990031312004-10917-037050FM-12+000699999V0203201N00051220001CN0200001N9+02661+02241101231ADDAA106000091AG10999GF101991011011012501001001KA1240N+02291MA1999999101161MD1999999-0141REMSYN017333   20229 59014
0096830960999991990031318004-10917-037050FM-12+000699999V0200901N00311220001CN0200001N9+02941+02361101001ADDAA106000091AG10999GF101991011011012501001001MA1999999100931MD1999999-0171REMSYN011333   59017
0115830960999991990031400004-10917-037050FM-12+000699999V0200901N00361220001CN9999999N9+02761+02281101201ADDAA106000091AG10999GF101991011011012501001001KA1240M+03021MA1999999101131MD1999999+0061REMSYN017333   10302 58006
0115830960999991990031412004-10917-037050FM-12+000699999V0203601N00051220001CN0200001N9+02741+02261101171ADDAA106000091AG10999GF101991011011012501001001KA1240N+02371MA1999999101101MD1999999-0061REMSYN017333   20237 59006
0096830960999991990031418004-10917-037050FM-12+000699999V0200901N00461220001CN0200001N9+02981+02351101021ADDAA106000091AG10999GF101991011011012501001001MA1999999100951MD1999999+0021REMSYN011333   58002
0115830960999991990031512004-10917-037050FM-12+000699999V0203601N00311220001CN0200001N9+02821+02331101171ADDAA106000091AG10999GF101991011011012501001001KA1240N+02311MA1999999101101MD1999999+0001REMSYN017333   20231 58000
0096830960999991990031518004-10917-037050FM-12+000699999V0200901N00361220001CN0200001N9+03001+02321101011ADDAA106000091AG10999GF101991011011012501001001MA1999999100941MD1999999-0011REMSYN011333   59001
0115830960999991990031600004-10917-037050FM-12+000699999V0200901N00361220001CN9999999N9+02761+02301101151ADDAA106000091AG10999GF101991011011012501001001KA1240M+03071MA1999999101081MD1999999+0081REMSYN017333   10307 58008
0115830960999991990031612004-10917-037050FM-12+000699999V0200501N00101007501CN0100001N9+02791+02421101131ADDAA106000091AG10999GF107991071051008001001001KA1240N+02521MA1999999100531MD1999999+0021REMSYN017333   20252 58002
0096830960999991990031618004-10917-037050FM-12+000699999V0200901N00571220001CN0200001N9+02971+02331101021ADDAA106000091AG10999GF101991011051012501001001MA1999999100951MD1999999+0011REMSYN011333   58001
0115830960999991990031700004-10917-037050FM-12+000699999V0200901N00311220001CN9999999N9+02721+02281101091ADDAA106000091AG10999GF101991011011012501001001KA1240M+03101MA1999999101081MD1999999-0061REMSYN017333   10310 59006
0115830960999991990031712004-10917-037050FM-12+000699999V0203201N00051220001CN0200001N9+02871+02231101201ADDAA106000091AG10999GF102991021051012501001001KA1240N+02351MA1999999101131MD1999999+0051REMSYN017333   20235 58005
0115830960999991990031718004-10917-037050FM-12+000699999V0200901N00411220001CN0200001N9+02931+02331101091ADDAA106000091AG10999GF101991999001012501011011MA1999999101021MD1999999+0071REMSYN011333   58007EQDQ01+000002SCOTLC
0115830960999991990031800004-10917-037050FM-12+000699999V0200901N00311220001CN9999999N9+02761+02281101101ADDAA106000091AG10999GF101991011051012501001001KA1240M+03081MA1999999101031MD1999999+0011REMSYN017333   10308 58001
0121830960999991990031812004-10917-037050FM-12+000699999V0200901N00211220001CN0200001N9+02761+02401101281ADDAA124004091AG10999GF104991041051012501001001KA1240N+02471MA1999999101211MD1999999+0081REMSYN023333   20247 58008 60044
0096830960999991990031818004-10917-037050FM-12+000699999V0201401N00361220001CN0200001N9+02941+02331101221ADDAA106000091AG10999GF102991021051012501001001MA1999999101151MD1999999+0131REMSYN011333   58013
0115830960999991990031912004-10917-037050FM-12+000699999V0200901N00311220001CN0200001N9+02841+02241101341ADDAA106000091AG10999GF102991021051012501001001KA1240N+02521MA1999999101271MD1999999+0061REMSYN017333   20252 58006
0096830960999991990031918004-10917-037050FM-12+000699999V0201801N00311220001CN0200001N9+02961+02421101271ADDAA106000091AG10999GF101991011011012501001001MA1999999101201MD1999999+0051REMSYN011333   58005
0115830960999991990032000004-10917-037050FM-12+000699999V0201801N00311220001CN9999999N9+02641+02371101391ADDAA106000091AG10999GF104991041051012501001001KA1240M+03081MA1999999101321MD1999999+0201REMSYN017333   10308 58020
0115830960999991990032012004-10917-037050FM-12+000699999V0200901N00311220001CN0200001N9+02841+02261101391ADDAA106000091AG10999GF102991021051012501001001KA1240N+02521MA1999999101321MD1999999+0051REMSYN017333   20252 58005
0096830960999991990032018004-10917-037050FM-12+000699999V0200901N00311220001CN0200001N9+03001+02491101191ADDAA106000091AG10999GF101991011011012501001001MA1999999101121MD1999999-0081REMSYN011333   59008
0115830960999991990032100004-10917-037050FM-12+000699999V0200901N00151220001CN9999999N9+02741+02321101241ADDAA106000091AG10999GF101991011051012501001001KA1240M+03071MA1999999101171MD1999999-0151REMSYN017333   10307 59015
0121830960999991990032112004-10917-037050FM-12+000699999V0201801N00211220001CN0200001N9+02861+02381101291ADDAA124002091AG10999GF104991041051012501001001KA1240N+02531MA1999999101221MD1999999-0101REMSYN023333   20253 59010 60024
0096830960999991990032118004-10917-037050FM-12+000699999V0200901N00311220001CN0200001N9+02941+02361101081ADDAA106000091AG10999GF102991021051012501001001MA1999999101011MD1999999-0111REMSYN011333   59011
0115830960999991990032200004-10917-037050FM-12+000699999V0200901N00151220001CN9999999N9+02721+02391101151ADDAA106000091AG10999GF101991011011012501001001KA1240M+03061MA1999999101081MD1999999-0091REMSYN017333   10306 59009
0115830960999991990032212004-10917-037050FM-12+000699999V0200501N00151012001CN0200001N9+02841+02441101281ADDAA106000091AG10999GF106991061051012501001001KA1240N+02301MA1999999101211MD1999999-0011REMSYN017333   20230 59001
0096830960999991990032218004-10917-037050FM-12+000699999V0201801N00311220001CN0200001N9+03031+02241101041ADDAA106000091AG10999GF101991011011012501001001MA1999999101021MD1999999+0011REMSYN011333   58001
0115830960999991990032300004-10917-037050FM-12+000699999V0201801N00311220001CN9999999N9+02721+02371101101ADDAA106000091AG10999GF101991011011012501001001KA1240M+03061MA1999999101031MD1999999-0051REMSYN017333   10306 59005
0115830960999991990032312004-10917-037050FM-12+000699999V0203201N00051220001CN0200001N9+02861+02461101191ADDAA106000091AG10999GF101991011011012501001001KA1240N+02351MA1999999101221MD1999999-0091REMSYN017333   20235 59009
0159830960999991990032318004-10917-037050FM-12+000699999V0200501N00211045001CN0500001N9+02821+02361100741ADDAA106002091AG10999AY161061AY221061GF105991021021008001051001MA1999999100671MD1999999-0051MW1031REMSYN017333   59005 60021EQDQ01+095753APOSP Q02+999990APOSP 
0115830960999991990032400004-10917-037050FM-12+000699999V0200901N00311220001CN9999999N9+02701+02261101001ADDAA106000091AG10999GF101991011011012501001001KA1240M+03041MA1999999100931MD1999999-0101REMSYN017333   10304 59010
0115830960999991990032412004-10917-037050FM-12+000699999V0203201N00051012001CN0200001N9+02801+02381101221ADDAA106000091AG10999GF105991051051012501001001KA1240N+02391MA1999999101151MD1999999+0031REMSYN017333   20239 58003
0115830960999991990032500004-10917-037050FM-12+000699999V0200901N00311220001CN9999999N9+02811+02381101141ADDAA106000091AG10999GF102991021011012501001001KA1240M+03061MA1999999101071MD1999999+0141REMSYN017333   10306 58014
0121830960999991990032512004-10917-037050FM-12+000699999V0200901N00311220001CN0200001N9+02901+02391101301ADDAA124002091AG10999GF102991021051012501001001KA1240N+02521MA1999999101231MD1999999+0081REMSYN023333   20252 58008 60024
0096830960999991990032518004-10917-037050FM-12+000699999V0200901N00311220001CN0200001N9+02911+02401101191ADDAA106000091AG10999GF104991041051012501001001MA1999999101121MD1999999-0031REMSYN011333   59003
0115830960999991990032600004-10917-037050FM-12+000699999V0200901N00311220001CN9999999N9+02721+02281101151ADDAA106000091AG10999GF104991041051012501001001KA1240M+03081MA1999999101081MD1999999+0011REMSYN017333   10308 58001
0115830960999991990032612004-10917-037050FM-12+000699999V0200901N00311220001CN0200001N9+02861+02371101171ADDAA106000091AG10999GF102991021051012501001001KA1240N+02331MA1999999101101MD1999999-0131REMSYN017333   20233 59013
0096830960999991990032618004-10917-037050FM-12+000699999V0200901N00311220001CN0200001N9+02981+02351101041ADDAA106000091AG10999GF102991021011012501001001MA1999999100971MD1999999-0151REMSYN011333   59015
0115830960999991990032700004-10917-037050FM-12+000699999V0200901N00311220001CN9999999N9+02741+02301101101ADDAA106000091AG10999GF101991011011012501001001KA1240M+03071MA1999999101031MD1999999-0031REMSYN017333   10307 59003
0121830960999991990032712004-10917-037050FM-12+000699999V0203201N00051220001CN0200001N9+02821+02441101161ADDAA124002091AG10999GF101991011011012501001001KA1240N+02371MA1999999101091MD1999999-0011REMSYN023333   20237 59001 60024
0096830960999991990032718004-10917-037050FM-12+000699999V0201801N00311220001CN0200001N9+02961+02401101031ADDAA106000091AG10999GF101991011011012501001001MA1999999100961MD1999999-0011REMSYN011333   59001
0115830960999991990032800004-10917-037050FM-12+000699999V0201801N00051220001CN9999999N9+02741+02381101111ADDAA106000091AG10999GF102991021011012501001001KA1240M+03051MA1999999101041MD1999999+0011REMSYN017333   10305 58001
0115830960999991990032812004-10917-037050FM-12+000699999V0201801N00101220001CN0200001N9+02881+02351101191ADDAA106000091AG10999GF102991021051012501001001KA1240N+02421MA1999999101121MD1999999+0031REMSYN017333   20242 58003
0096830960999991990032818004-10917-037050FM-12+000699999V0201801N00311220001CN0200001N9+02961+02351101091ADDAA106000091AG10999GF101991011011012501001001MA1999999101021MD1999999+0061REMSYN011333   58006
0115830960999991990032906004-10917-037050FM-12+000699999V0201001N00411220001CN0200001N9+02701+02281101141ADDAA106000091AG10999GF103991999999008001999999MA1999999101071MD1999999+0061REMSYN011333   58006EQDQ01+999990APOSP 
0115830960999991990032912004-10917-037050FM-12+000699999V0200901N00311220001CN0200001N9+02851+02241101311ADDAA106000091AG10999GF102991021051012501001001KA1240N+02611MA1999999101241MD1999999+0121REMSYN017333   20261 58012
0096830960999991990032918004-10917-037050FM-12+000699999V0201801N00311045001CN0200001N9+02981+02331101211ADDAA106000091AG10999GF106991041051012501031001MA1999999101141MD1999999+0121REMSYN011333   58012
0115830960999991990033000004-10917-037050FM-12+000699999V0201801N00051220001CN9999999N9+02621+02161101241ADDAA106000091AG10999GF102991021051012501001001KA1240M+03111MA1999999101171MD1999999+0171REMSYN017333   10311 58017
0121830960999991990033012004-10917-037050FM-12+000699999V0202701N00051220001CN0200001N9+02701+02371101161ADDAA124002091AG10999GF102991021051012501001001KA1240N+02351MA1999999101091MD1999999-0151REMSYN023333   20235 59015 60024
0096830960999991990033018004-10917-037050FM-12+000699999V0201801N00311220001CN0200001N9+02941+02301101181ADDAA106000091AG10999GF104991041051012501001001MA1999999101111MD1999999-0031REMSYN011333   59003
0121830960999991990033100004-10917-037050FM-12+000699999V0201801N00051220001CN9999999N9+02711+02221101211ADDAA106000191AG10999GF101991011011012501001001KA1240M+03081MA1999999101141MD1999999-0031REMSYN023333   10308 59003 69911
0121830960999991990033112004-10917-037050FM-12+000699999V0203601N00051012001CN0200001N9+02601+02351101211ADDAA124006091AG10999GF106991061051012501001001KA1240N+02301MA1999999101141MD1999999+0051REMSYN023333   20230 58005 60064
0096830960999991990033118004-10917-037050FM-12+000699999V0201801N00311220001CN0200001N9+02901+02301101171ADDAA106000091AG10999GF102991021051012501001001MA1999999101101MD1999999+0011REMSYN011333   58001
0115830960999991990040100004-10917-037050FM-12+000699999V0201801N00211220001CN9999999N9+02721+02411101131ADDAA106000091AG10999GF101991011011012501001001KA1240M+03031MA1999999101061MD1999999-0081REMSYN017333   10303 59008
0121830960999991990040112004-10917-037050FM-12+000699999V0203601N00051012001CN0200001N9+02541+02351101401ADDAA124006091AG10999GF106991061051012501001001KA1240N+02431MA1999999101331MD1999999+0191REMSYN023333   20243 58019 60064
0102830960999991990040118004-10917-037050FM-12+000699999V0200901N00411220001CN0200001N9+02881+02371101151ADDAA106003091AG10999GF104991041051012501001001MA1999999101081MD1999999+0081REMSYN017333   58008 60031
0115830960999991990040200004-10917-037050FM-12+000699999V0200201N00311220001CN9999999N9+02651+02161101091ADDAA106000091AG10999GF102991021051012501001001KA1240M+03001MA1999999101021MD1999999-0041REMSYN017333   10300 59004
0121830960999991990040212004-10917-037050FM-12+000699999V0202301N00051012001CN0200001N9+02631+02411101371ADDAA124007091AG10999GF106991061051012501001001KA1240N+02371MA1999999101301MD1999999-0031REMSYN023333   20237 59003 60074
0096830960999991990040218004-10917-037050FM-12+000699999V0201801N00361220001CN0200001N9+02881+02391101121ADDAA106000091AG10999GF104991041051008001001001MA1999999101051MD1999999-0031REMSYN011333   59003
0115830960999991990040300004-10917-037050FM-12+000699999V0200901N00311220001CN9999999N9+02711+02221101201ADDAA106000091AG10999GF102991021051012501001001KA1240M+03021MA1999999101171MD1999999+0111REMSYN017333   10302 58011
0143830960999991990040312004-10917-037050FM-12+000699999V0203601N00051007501CN0100001N9+02521+02431101191ADDAA124002091AG10999AY161061AY261061GF108991081051008001999999KA1240N+02471MA1999999101121MD1999999-0181MW1601REMSYN023333   20247 59018 60024
0102830960999991990040318004-10917-037050FM-12+000699999V0200901N00311012001CN0200001N9+02961+02401100941ADDAA106004091AG10999GF106991061051012501001001MA1999999100871MD1999999-0181REMSYN017333   59018 60041
0115830960999991990040400004-10917-037050FM-12+000699999V0200901N00311220001CN9999999N9+02771+02441101131ADDAA106000091AG10999GF102991021051012501001001KA1240M+03021MA1999999101061MD1999999-0071REMSYN017333   10302 59007
0121830960999991990040412004-10917-037050FM-12+000699999V0203201N00151220001CN0200001N9+02831+02461101171ADDAA124004091AG10999GF102991021051012501001001KA1240N+02411MA1999999101101MD1999999-0021REMSYN023333   20241 59002 60044
0096830960999991990040418004-10917-037050FM-12+000699999V0201801N00311220001CN0200001N9+03021+02481101021ADDAA106000091AG10999GF102991021051012501001001MA1999999100951MD1999999+0081REMSYN011333   58008
0115830960999991990040500004-10917-037050FM-12+000699999V0200901N00311220001CN9999999N9+02801+02381101231ADDAA106000091AG10999GF101991011011012501001001KA1240M+03081MA1999999101161MD1999999+0011REMSYN017333   10308 58001
0121830960999991990040512004-10917-037050FM-12+000699999V0203201N00051012001CN0100001N9+02651+02421101411ADDAA124024091AG10999GF108991081051012501999999KA1240N+02431MA1999999101341MD1999999+0241REMSYN023333   20243 58024 60244
0102830960999991990040518004-10917-037050FM-12+000699999V0201801N00151220001CN0200001N9+02961+02421101241ADDAA106018091AG10999GF104991041051012501001001MA1999999101171MD1999999+0221REMSYN017333   58022 60181
0121830960999991990040612004-10917-037050FM-12+000699999V0203201N00051012001CN0200001N9+02721+02431101271ADDAA124022091AG10999GF106991061051012501001001KA1240N+02471MA1999999101201MD1999999-0141REMSYN023333   20247 59014 60224
0115830960999991990040700004-10917-037050FM-12+000699999V0200901N00151012001CN9999999N9+02761+02401101261ADDAA106000091AG10999GF106991061051012501001001KA1240M+03041MA1999999101191MD1999999-0071REMSYN017333   10304 59007
0143830960999991990040712004-10917-037050FM-12+000699999V0203601N00051007501CN0100001N9+02501+02361101311ADDAA124017091AG10999AY161061AY261061GF108991081071008001999999KA1240N+02371MA1999999101241MD1999999+0041MW1601REMSYN023333   20237 58004 60174
0096830960999991990040718004-10917-037050FM-12+000699999V0200901N00511220001CN0200001N9+02841+02381101031ADDAA106000091AG10999GF102991021051012501001001MA1999999100961MD1999999-0081REMSYN011333   59008
0132830960999991990040800004-10917-037050FM-12+000699999V0200901N00311220001CN9999999N9+02701+02431101281ADDAA106000691AA299000591AG10999GF104991041051012501001001KA1240M+02961MA1999999101211MD1999999+0021REMSYN023333   10296 58002 69961
0132830960999991990040812004-10917-037050FM-12+000699999V0203601N00051220001CN0200001N9+02781+02301101411ADDAA124000691AA299000591AG10999GF102991021051012501001001KA1240N+02371MA1999999101341MD1999999+0101REMSYN023333   20237 58010 69964
0096830960999991990040818004-10917-037050FM-12+000699999V0200901N00311220001CN0200001N9+02861+02401101271ADDAA106000091AG10999GF104991041051012501001001MA1999999101201MD1999999+0241REMSYN011333   58024
0115830960999991990040900004-10917-037050FM-12+000699999V0200901N00311220001CN9999999N9+02761+02281101501ADDAA106000091AG10999GF101991011011012501001001KA1240M+02941MA1999999101431MD1999999+0221REMSYN017333   10294 58022
0121830960999991990040912004-10917-037050FM-12+000699999V0203201N00051012001CN0200001N9+02601+02391101501ADDAA124001091AG10999GF106991061051012501001001KA1240N+02381MA1999999101431MD1999999+0091REMSYN023333   20238 58009 60014
0113830960999991990040918004-10917-037050FM-12+000699999V0200901N00311220001CN0200001N9+02941+02331101241ADDAA106000291AA299000391AG10999GF102991021011012501001001MA1999999101171MD1999999-0031REMSYN017333   59003 69921
0132830960999991990041012004-10917-037050FM-12+000699999V0203201N00051220001CN0200001N9+02801+02381101371ADDAA124000291AA299000391AG10999GF104991041051012501001001KA1240N+02431MA1999999101301MD1999999-0131REMSYN023333   20243 59013 69924
0096830960999991990041018004-10917-037050FM-12+000699999V0200901N00311220001CN0200001N9+02941+02361101161ADDAA106000091AG10999GF101991011011012501001001MA1999999101091MD1999999-0081REMSYN011333   59008
0115830960999991990041100004-10917-037050FM-12+000699999V0200901N00311220001CN9999999N9+02761+02281101251ADDAA106000091AG10999GF101991011011012501001001KA1240M+03041MA1999999101181MD1999999-0081REMSYN017333   10304 59008
0115830960999991990041112004-10917-037050FM-12+000699999V0203601N00051220001CN0200001N9+02661+02181101291ADDAA106000091AG10999GF102991021051012501001001KA1240N+02451MA1999999101221MD1999999-0081REMSYN017333   20245 59008
0115830960999991990041118004-10917-037050FM-12+000699999V0200901N003119999999N0200001N9+02921+02341101081ADDAA106000091AG10999GF105991999051012501001001MA1999999101011MD1999999-0081REMSYN011333   59008EQDQ01+000042SCOTLC
0115830960999991990041200004-10917-037050FM-12+000699999V0200901N00511220001CN9999999N9+02731+02121101251ADDAA106000091AG10999GF101991011011012501001001KA1240M+03021MA1999999101181MD1999999+0001REMSYN017333   10302 58000
0115830960999991990041212004-10917-037050FM-12+000699999V0203601N00151220001CN0200001N9+02761+02221101291ADDAA106000091AG10999GF101991011011012501001001KA1240N+02301MA1999999101221MD1999999+0001REMSYN017333   20230 58000
0096830960999991990041218004-10917-037050FM-12+000699999V0200901N00511220001CN0200001N9+02941+02331101121ADDAA106000091AG10999GF104991041051012501001001MA1999999101051MD1999999+0041REMSYN011333   58004
0115830960999991990041300004-10917-037050FM-12+000699999V0200901N00411220001CN9999999N9+02721+02121101331ADDAA106000091AG10999GF101991011011012501001001KA1240M+03001MA1999999101261MD1999999+0081REMSYN017333   10300 58008
0115830960999991990041312004-10917-037050FM-12+000699999V0203201N00051220001CN0200001N9+02811+02081101401ADDAA106000091AG10999GF101991011011012501001001KA1240N+02261MA1999999101331MD1999999+0111REMSYN017333   20226 58011
0096830960999991990041318004-10917-037050FM-12+000699999V0201801N00311045001CN0200001N9+02881+02161101101ADDAA106000091AG10999GF106991031051012501031001MA1999999101031MD1999999-0021REMSYN011333   59002
0115830960999991990041400004-10917-037050FM-12+000699999V0201801N00311220001CN9999999N9+02701+02151101251ADDAA106000091AG10999GF102991021051012501001001KA1240M+03001MA1999999101181MD1999999-0081REMSYN017333   10300 59008
0115830960999991990041412004-10917-037050FM-12+000699999V0203201N00051220001CN0200001N9+02771+02211101341ADDAA106000091AG10999GF101991011011012501001001KA1240N+02311MA1999999101271MD1999999-0061REMSYN017333   20231 59006
0096830960999991990041418004-10917-037050FM-12+000699999V0201801N00311220001CN0200001N9+02901+02341101231ADDAA106000091AG10999GF102991021051012501001001MA1999999101161MD1999999+0131REMSYN011333   58013
0115830960999991990041500004-10917-037050FM-12+000699999V0201801N00151220001CN9999999N9+02721+02221101201ADDAA106000091AG10999GF101991011011012501001001KA1240M+03041MA1999999101131MD1999999-0051REMSYN017333   10304 59005
0115830960999991990041512004-10917-037050FM-12+000699999V0202301N00051012001CN0200001N9+02741+02361101341ADDAA106000091AG10999GF106991061051012501001001KA1240N+02191MA1999999101271MD1999999+0001REMSYN017333   20219 58000
0096830960999991990041518004-10917-037050FM-12+000699999V0200901N00311220001CN0200001N9+02921+02361101191ADDAA106000091AG10999GF102991021051012501001001MA1999999101121MD1999999+0061REMSYN011333   58006
0115830960999991990041600004-10917-037050FM-12+000699999V0200901N00151012001CN9999999N9+02741+02321101201ADDAA106000091AG10999GF105991051051012501001001KA1240M+03021MA1999999101131MD1999999+0001REMSYN017333   10302 58000
0121830960999991990041612004-10917-037050FM-12+000699999V0200901N00311012001CN0200001N9+02781+02361101191ADDAA124004091AG10999GF106991061051012501001001KA1240N+02491MA1999999101121MD1999999-0151REMSYN023333   20249 59015 60044
0096830960999991990041618004-10917-037050FM-12+000699999V0200901N00311220001CN0200001N9+02911+02341101031ADDAA106000091AG10999GF104991041051012501001001MA1999999100961MD1999999-0161REMSYN011333   59016
0132830960999991990041700004-10917-037050FM-12+000699999V0200901N00101220001CN9999999N9+02721+02391101131ADDAA106000891AA299001091AG10999GF102991021051012501001001KA1240M+03011MA1999999101061MD1999999-0071REMSYN023333   10301 59007 69981
0132830960999991990041712004-10917-037050FM-12+000699999V0203601N00311220001CN0200001N9+02861+02281101171ADDAA124000891AA299001091AG10999GF102991021051012501001001KA1240N+02581MA1999999101101MD1999999-0021REMSYN023333   20258 59002 69984
0096830960999991990041718004-10917-037050FM-12+000699999V0201801N00311220001CN0200001N9+02941+02401101111ADDAA106000091AG10999GF101991011051012501001001MA1999999101041MD1999999+0081REMSYN011333   58008
0132830960999991990041800004-10917-037050FM-12+000699999V0201801N00051220001CN9999999N9+02691+02261101211ADDAA106000491AA299000591AG10999GF104991041051012501001001KA1240M+03021MA1999999101141MD1999999+0081REMSYN023333   10302 58008 69941
0132830960999991990041812004-10917-037050FM-12+000699999V0201801N00361012001CN0200001N9+02801+02311101131ADDAA124000491AA299000591AG10999GF106991061051012501001001KA1240N+02581MA1999999101061MD1999999-0041REMSYN023333   20258 59004 69944
0096830960999991990041818004-10917-037050FM-12+000699999V0200901N00311220001CN0200001N9+02941+02381101071ADDAA106000091AG10999GF102991021021012501001001MA1999999101001MD1999999-0041REMSYN011333   59004
0104830960999991990041912004-10917-037050FM-12+000699999V0201801N00311220001CN0200001N9+02841+02311101341ADDAG10999GF104991041051012501001001KA1240N+02541MA1999999101271MD1999999+0011REMSYN017333   20254 58001
0096830960999991990041918004-10917-037050FM-12+000699999V0201801N00211220001CN0200001N9+02921+02361101151ADDAA106000091AG10999GF102991021051012501001001MA1999999101081MD1999999+0081REMSYN011333   58008
0132830960999991990042012004-10917-037050FM-12+000699999V0201801N00311220001CN0200001N9+02801+02251101281ADDAA124000491AA299000591AG10999GF104991041051012501001001KA1240N+02501MA1999999101211MD1999999-0061REMSYN023333   20250 59006 69944
0096830960999991990042018004-10917-037050FM-12+000699999V0201801N00311220001CN0200001N9+02901+02341101171ADDAA106000091AG10999GF104991041051012501001001MA1999999101101MD1999999+0021REMSYN011333   58002
0132830960999991990042200004-10917-037050FM-12+000699999V0201801N00311012001CN9999999N9+02681+02351101051ADDAA106000291AA299000391AG10999GF106991061051012501001001KA1240M+03021MA1999999100981MD1999999-0121REMSYN023333   10302 59012 69921
0121830960999991990042212004-10917-037050FM-12+000699999V0201801N00311220001CN0200001N9+02881+02251101291ADDAA124002091AG10999GF102991021051012501001001KA1240N+02341MA1999999101221MD1999999+0101REMSYN023333   20234 58010 60024
0096830960999991990042218004-10917-037050FM-12+000699999V0201801N00311220001CN0200001N9+02901+02341101181ADDAA106000091AG10999GF104991041051012501001001MA1999999101111MD1999999-0051REMSYN011333   59005
0115830960999991990042300004-10917-037050FM-12+000699999V0201801N00051220001CN9999999N9+02721+02391101311ADDAA106000091AG10999GF102991021011012501001001KA1240M+03021MA1999999101241MD1999999+0261REMSYN017333   10302 58026
0121830960999991990042312004-10917-037050FM-12+000699999V0203201N00211012001CN0200001N9+02601+02291101231ADDAA124008091AG10999GF107991071051012501001001KA1240N+02351MA1999999101161MD1999999-0061REMSYN023333   20235 59006 60084
0102830960999991990042318004-10917-037050FM-12+000699999V0200901N00311012001CN0100001N9+02861+02391101051ADDAA106002091AG10999GF108991081071012501999999MA1999999100981MD1999999-0031REMSYN017333   59003 60021
0121830960999991990042412004-10917-037050FM-12+000699999V0201801N00311220001CN0200001N9+02821+02101101421ADDAA124012091AG10999GF101991011051012501001001KA1240N+02481MA1999999101351MD1999999+0191REMSYN023333   20248 58019 60124
0096830960999991990042418004-10917-037050FM-12+000699999V0201801N00311045001CN0200001N9+02881+02281101131ADDAA106000091AG10999GF106991041051012501031001MA1999999101061MD1999999+0081REMSYN011333   58008
0115830960999991990042500004-10917-037050FM-12+000699999V0209999999999220001CN9999999N9+02681+02311101261ADDAA106000091AG10999GF102991021051012501001001KA1240M+02941MA1999999101191MD1999999-0031REMSYN017333   10294 59003
0115830960999991990042512004-10917-037050FM-12+000699999V0201801N00051220001CN0200001N9+02801+02081101261ADDAA106000091AG10999GF101991011051012501001001KA1240N+02541MA1999999101191MD1999999-0161REMSYN017333   20254 59016
0096830960999991990042518004-10917-037050FM-12+000699999V0201801N00311220001CN0200001N9+02921+02221101021ADDAA106000091AG10999GF101991011051012501001001MA1999999100951MD1999999-0111REMSYN011333   59011
0121830960999991990042612004-10917-037050FM-12+000699999V0201801N00211012001CN0200001N9+02561+02291101051ADDAA124011091AG10999GF107991071051012501001001KA1240N+02301MA1999999100981MD1999999-0211REMSYN023333   20230 59021 60114
0113830960999991990042618004-10917-037050FM-12+000699999V0201801N00311220001CN0200001N9+02751+02401100871ADDAA106000791AA299001091AG10999GF104991041051012501001001MA1999999100801MD1999999-0151REMSYN017333   59015 69971
0121830960999991990042700004-10917-037050FM-12+000699999V0201801N00151012001CN9999999N9+02661+02331101041ADDAA106002091AG10999GF106991061051012501001001KA1240M+02951MA1999999100971MD1999999+0021REMSYN023333   10295 58002 60021
0143830960999991990042712004-10917-037050FM-12+000699999V0201801N00151007501CN0100001N9+02541+02331101091ADDAA124012091AG10999AY161061AY261061GF108991081071008001999999KA1240N+02371MA1999999101021MD1999999+0041MW1601REMSYN023333   20237 58004 60124
0102830960999991990042718004-10917-037050FM-12+000699999V0201801N00311012001CN0200001N9+02801+02381100981ADDAA106002091AG10999GF106991061051012501001001MA1999999100911MD1999999+0111REMSYN017333   58011 60021
0104830960999991990042800004-10917-037050FM-12+000699999V0201801N00311012001CN9999999N9+02601+02401101251ADDAG10999GF108991081071012501999999KA1240M+02831MA1999999101181MD1999999+0211REMSYN017333   10283 58021
0096830960999991990042818004-10917-037050FM-12+000699999V0200901N00311012001CN0100001N9+02781+02251100961ADDAA106000091AG10999GF108991081071012501999999MA1999999100891MD1999999-0021REMSYN011333   59002
0115830960999991990042900004-10917-037050FM-12+000699999V0200901N00311012001CN9999999N9+02701+02261101131ADDAA106000091AG10999GF106991061051012501001001KA1240M+02961MA1999999101061MD1999999-0121REMSYN017333   10296 59012
0121830960999991990043000004-10917-037050FM-12+000699999V0201801N00051012001CN9999999N9+02511+02231101111ADDAA106002091AG10999GF108991081071012501999999KA1240M+02961MA1999999101041MD1999999-0021REMSYN023333   10296 59002 60021
0143830960999991990043012004-10917-037050FM-12+000699999V0202701N00051007501CN0100001N9+02541+02401101071ADDAA124019091AG10999AY161061AY261061GF108991081071008001999999KA1240N+02411MA1999999101001MD1999999-0141MW1601REMSYN023333   20241 59014 60194
0102830960999991990043018004-10917-037050FM-12+000699999V0202701N00051012001CN0200001N9+02721+02391100871ADDAA106010091AG10999GF107991071051012501001001MA1999999100801MD1999999-0261REMSYN017333   59026 60101
0115830960999991990050100004-10917-037050FM-12+000699999V0201801N00051012001CN9999999N9+02521+02361100911ADDAA106000091AG10999GF106991061051012501001001KA1240M+02781MA1999999100841MD1999999-0201REMSYN017333   10278 59020
0085830960999991990050118004-10917-037050FM-12+000699999V0201801N00311220001CN0200001N9+02801+02301101111ADDAG10999GF102991021051012501001001MA1999999101041MD1999999+0021REMSYN011333   58002
0115830960999991990050200004-10917-037050FM-12+000699999V0200901N00311220001CN9999999N9+02721+02171100951ADDAA106000091AG10999GF101991011011012501001001KA1240M+03001MA1999999100881MD1999999+0041REMSYN017333   10300 58004
0121830960999991990050212004-10917-037050FM-12+000699999V0203201N00051012001CN0200001N9+02601+02391101021ADDAA124004091AG10999GF106991061051012501001001KA1240N+02471MA1999999100951MD1999999-0041REMSYN023333   20247 59004 60044
0096830960999991990050218004-10917-037050FM-12+000699999V0200901N00311220001CN0200001N9+02881+02391100831ADDAA106000091AG10999GF102991021051012501001001MA1999999100761MD1999999-0191REMSYN011333   59019
0115830960999991990050312004-10917-037050FM-12+000699999V0203201N00051220001CN0200001N9+02641+02271101031ADDAA106000091AG10999GF102991021051012501001001KA1240N+02361MA1999999100961MD1999999+0011REMSYN017333   20236 58001
0096830960999991990050318004-10917-037050FM-12+000699999V0200901N00311220001CN0200001N9+02861+02231100891ADDAA106000091AG10999GF101991011051012501001001MA1999999100821MD1999999+0061REMSYN011333   58006
0115830960999991990050400004-10917-037050FM-12+000699999V0200901N00051220001CN9999999N9+02621+02161100981ADDAA106000091AG10999GF101991011051012501001001KA1240M+02951MA1999999100911MD1999999+0001REMSYN017333   10295 58000
0115830960999991990050412004-10917-037050FM-12+000699999V0203201N00051220001CN0200001N9+02501+02211100981ADDAA106000091AG10999GF102991021051012501001001KA1240N+02111MA1999999100911MD1999999-0051REMSYN017333   20211 59005
0096830960999991990050418004-10917-037050FM-12+000699999V0201801N00051220001CN0200001N9+02841+02201100841ADDAA106000091AG10999GF104991041051012501001001MA1999999100771MD1999999+0051REMSYN011333   58005
0115830960999991990050512004-10917-037050FM-12+000699999V0202701N00051220001CN0200001N9+02561+02251101181ADDAA106000091AG10999GF102991021051012501001001KA1240N+02291MA1999999101111MD1999999+0201REMSYN017333   20229 58020
0096830960999991990050518004-10917-037050FM-12+000699999V0201801N00051220001CN0200001N9+02911+02341100961ADDAA106000091AG10999GF102991021011012501001001MA1999999100891MD1999999+0121REMSYN011333   58012
0115830960999991990050600004-10917-037050FM-12+000699999V0201801N00151220001CN9999999N9+02701+02281101231ADDAA106000091AG10999GF102991021051012501001001KA1240M+02981MA1999999101161MD1999999+0061REMSYN017333   10298 58006
0121830960999991990050612004-10917-037050FM-12+000699999V0203601N00151012001CN0200001N9+02521+02311101291ADDAA124003091AG10999GF107991071051012501001001KA1240N+02291MA1999999101221MD1999999+0111REMSYN023333   20229 58011 60034
0096830960999991990050618004-10917-037050FM-12+000699999V0201801N00151220001CN0200001N9+02931+02381101211ADDAA106000091AG10999GF104991041051012501001001MA1999999101141MD1999999+0251REMSYN011333   58025
0115830960999991990050700004-10917-037050FM-12+000699999V0201801N00051220001CN9999999N9+02741+02261101301ADDAA106000091AG10999GF102991021011012501001001KA1240M+03011MA1999999101231MD1999999+0071REMSYN017333   10301 58007
0132830960999991990050712004-10917-037050FM-12+000699999V0201801N00051012001CN0200001N9+02741+02261101221ADDAA124000291AA299000391AG10999GF106991061051012501001001KA1240N+02481MA1999999101151MD1999999-0071REMSYN023333   20248 59007 69924
0096830960999991990050718004-10917-037050FM-12+000699999V0201801N00051220001CN0200001N9+02821+02291101131ADDAA106000091AG10999GF102991021051012501001001MA1999999101061MD1999999-0081REMSYN011333   59008
0115830960999991990050800004-10917-037050FM-12+000699999V0201801N00051220001CN9999999N9+02711+02261101261ADDAA106000091AG10999GF102991021051012501001001KA1240M+02931MA1999999101191MD1999999-0041REMSYN017333   10293 59004
0121830960999991990050812004-10917-037050FM-12+000699999V0202301N00051012001CN0200001N9+02441+02251101291ADDAA124008091AG10999GF106991061051012501001001KA1240N+02331MA1999999101221MD1999999+0071REMSYN023333   20233 58007 60084
0096830960999991990050818004-10917-037050FM-12+000699999V0201801N00051220001CN0200001N9+02861+02371101111ADDAA106000091AG10999GF104991041051012501001001MA1999999101041MD1999999-0021REMSYN011333   59002
0115830960999991990050900004-10917-037050FM-12+000699999V0201801N00051220001CN9999999N9+02661+02221101231ADDAA106000091AG10999GF101991011011012501001001KA1240M+02931MA1999999101161MD1999999-0031REMSYN017333   10293 59003
0121830960999991990050912004-10917-037050FM-12+000699999V0203201N00051007501CN0100001N9+02451+02321101251ADDAA124014091AG10999GF108991081071008001999999KA1240N+02351MA1999999101181MD1999999-0041REMSYN023333   20235 59004 60144
0102830960999991990050918004-10917-037050FM-12+000699999V0201801N00311220001CN0200001N9+02861+02351100951ADDAA106002091AG10999GF104991041051012501001001MA1999999100881MD1999999-0161REMSYN017333   59016 60021
0115830960999991990051000004-10917-037050FM-12+000699999V0201801N00311220001CN9999999N9+02721+02281101161ADDAA106000091AG10999GF102991021051012501001001KA1240M+02921MA1999999101091MD1999999-0071REMSYN017333   10292 59007
0121830960999991990051012004-10917-037050FM-12+000699999V0203201N00051012001CN0200001N9+02541+02151101211ADDAA124002091AG10999GF107991071051012501001001KA1240N+02291MA1999999101141MD1999999-0041REMSYN023333   20229 59004 60024
0113830960999991990051018004-10917-037050FM-12+000699999V0201801N00051220001CN0200001N9+02801+02381101081ADDAA106000291AA299000391AG10999GF104991021051012501001011MA1999999101011MD1999999+0131REMSYN017333   58013 69921
0115830960999991990051100004-10917-037050FM-12+000699999V0201801N00311220001CN9999999N9+02721+02221101071ADDAA106000091AG10999GF101991011011012501001001KA1240M+02941MA1999999101001MD1999999-0091REMSYN017333   10294 59009
0132830960999991990051112004-10917-037050FM-12+000699999V0202701N00051220001CN0200001N9+02561+02291101251ADDAA124000291AA299000391AG10999GF101991011011012501001001KA1240N+02311MA1999999101181MD1999999+0041REMSYN023333   20231 58004 69924
0102830960999991990051118004-10917-037050FM-12+000699999V0201801N00051220001CN0200001N9+02841+02401100961ADDAA106001091AG10999GF101991011051012501001001MA1999999100891MD1999999-0121REMSYN017333   59012 60011
0121830960999991990051212004-10917-037050FM-12+000699999V0203601N00101220001CN0200001N9+02821+02381101261ADDAA124001091AG10999GF102991021051012501001001KA1240N+02371MA1999999101191MD1999999+0011REMSYN023333   20237 58001 60014
0115830960999991990051300004-10917-037050FM-12+000699999V0201801N00101220001CN9999999N9+02701+02261100971ADDAA106000091AG10999GF101991011011012501001001KA1240M+02971MA1999999100901MD1999999+0041REMSYN017333   10297 58004
0115830960999991990051312004-10917-037050FM-12+000699999V0203601N00051220001CN0200001N9+02761+02141101261ADDAA106000091AG10999GF102991021021012501001001KA1240N+02291MA1999999101191MD1999999+0001REMSYN017333   20229 58000
0115830960999991990051400004-10917-037050FM-12+000699999V0201801N00051220001CN9999999N9+02731+02241101341ADDAA106000091AG10999GF102991021051012501001001KA1240M+03021MA1999999101271MD1999999+0371REMSYN017333   10302 58037
0140830960999991990051412004-10917-037050FM-12+000699999V0203601N00051012001CN0200001N9+02601+02391101361ADDAA124003091AG10999GF107991071051012501001001KA1240N+02491MA1999999101291MD1999999+0101REMSYN023333   20249 58010 60034EQDQ01+999990APOSP 
0102830960999991990051418004-10917-037050FM-12+000699999V0201801N00311220001CN0200001N9+02861+02371101061ADDAA106002091AG10999GF104991041051012501001001MA1999999101091MD1999999-0021REMSYN017333   59002 60021
0121830960999991990051512004-10917-037050FM-12+000699999V0203201N00051012001CN0200001N9+02581+02331101411ADDAA124002091AG10999GF106991061051012501001001KA1240N+02271MA1999999101341MD1999999+0051REMSYN023333   20227 58005 60024
0096830960999991990051518004-10917-037050FM-12+000699999V0201801N00311220001CN0200001N9+02791+02361101241ADDAA106000091AG10999GF106991041051012501001011MA1999999101171MD1999999+0081REMSYN011333   58008
0143830960999991990051600004-10917-037050FM-12+000699999V0201801N00051007501CN9999999N9+02501+02361101371ADDAA106007091AG19057AY161061AY261061GF108991081071008001999999KA1240M+02921MA1999999101301MD1999999+0111MW1601REMSYN023333   10292 58011 60071
0121830960999991990051612004-10917-037050FM-12+000699999V0203201N00051220001CN0200001N9+02541+02351101481ADDAA124014091AG10999GF102991021051012501001001KA1240N+02301MA1999999101411MD1999999+0071REMSYN023333   20230 58007 60144
0096830960999991990051618004-10917-037050FM-12+000699999V0200901N00311220001CN0200001N9+02861+02231101311ADDAA106000091AG10999GF102991021011012501001001MA1999999101241MD1999999+0071REMSYN011333   58007
0115830960999991990051700004-10917-037050FM-12+000699999V0200901N00311220001CN9999999N9+02681+02281101491ADDAA106000091AG10999GF101991011011012501001001KA1240M+02951MA1999999101421MD1999999+0121REMSYN017333   10295 58012
0115830960999991990051712004-10917-037050FM-12+000699999V0203201N00051220001CN0200001N9+02561+02231101541ADDAA106000091AG10999GF101991011011012501001001KA1240N+02171MA1999999101471MD1999999+0061REMSYN017333   20217 58006
0096830960999991990051718004-10917-037050FM-12+000699999V0200901N00311220001CN0200001N9+02901+02381101421ADDAA106000091AG10999GF101991011011012501001001MA1999999101351MD1999999+0111REMSYN011333   58011
0115830960999991990051812004-10917-037050FM-12+000699999V0203201N00051220001CN0200001N9+02601+02191101421ADDAA106000091AG10999GF101991011011012501001001KA1240N+02351MA1999999101351MD1999999-0121REMSYN017333   20235 59012
0096830960999991990051818004-10917-037050FM-12+000699999V0201801N00311220001CN0200001N9+02861+02231101391ADDAA106000091AG10999GF102991021051012501001001MA1999999101321MD1999999-0021REMSYN011333   59002
0115830960999991990051900004-10917-037050FM-12+000699999V0200901N00311220001CN9999999N9+02661+02241101361ADDAA106000091AG10999GF101991011011012501001001KA1240M+02981MA1999999101291MD1999999-0011REMSYN017333   10298 59001
0115830960999991990051912004-10917-037050FM-12+000699999V0203201N00051220001CN0200001N9+02801+02441101271ADDAA106000091AG10999GF104991041051012501001001KA1240N+02311MA1999999101201MD1999999-0151REMSYN017333   20231 59015
0096830960999991990051918004-10917-037050FM-12+000699999V0200901N00361220001CN0200001N9+02881+02371101161ADDAA106000091AG10999GF101991011011012501001001MA1999999101091MD1999999+0231REMSYN011333   58023
0115830960999991990052012004-10917-037050FM-12+000699999V0203601N00051220001CN0200001N9+02801+02381101591ADDAA106000091AG10999GF102991021051012501001001KA1240N+02361MA1999999101521MD1999999+0321REMSYN017333   20236 58032
0096830960999991990052018004-10917-037050FM-12+000699999V0200901N00311220001CN0200001N9+02881+02371101371ADDAA106000091AG10999GF102991021051012501001001MA1999999101301MD1999999+0211REMSYN011333   58021
0121830960999991990052100004-10917-037050FM-12+000699999V0200901N00311012001CN9999999N9+02521+02361101511ADDAA106004091AG10999GF108991081051012501999999KA1240M+03001MA1999999101441MD1999999+0281REMSYN023333   10300 58028 60041
0121830960999991990052112004-10917-037050FM-12+000699999V0202701N00051012001CN0200001N9+02361+02281101571ADDAA124026091AG10999GF108991081071012501999999KA1240N+02291MA1999999101501MD1999999-0021REMSYN023333   20229 59002 60264
0096830960999991990052118004-10917-037050FM-12+000699999V0200901N00151220001CN0200001N9+02841+02351101471ADDAA106000091AG10999GF104991041051012501001001MA1999999101401MD1999999+0101REMSYN011333   58010
0115830960999991990052200004-10917-037050FM-12+000699999V0201801N00051220001CN9999999N9+02561+02151101591ADDAA106000091AG10999GF102991021011012501001001KA1240M+02881MA1999999101521MD1999999+0081REMSYN017333   10288 58008
0115830960999991990052212004-10917-037050FM-12+000699999V0203201N00051220001CN0200001N9+02601+02191101481ADDAA106000091AG10999GF101991011011012501001001KA1240N+02311MA1999999101411MD1999999-0091REMSYN017333   20231 59009
0096830960999991990052218004-10917-037050FM-12+000699999V0200901N00311220001CN0200001N9+02821+02241101111ADDAA106000091AG10999GF101991011011012501001001MA1999999101041MD1999999-0361REMSYN011333   59036
0096830960999991990052318004-10917-037050FM-12+000699999V0200901N00311220001CN0200001N9+02831+02071101461ADDAA106000091AG10999GF102991021051012501001001MA1999999101391MD1999999+0351REMSYN011333   58035
0115830960999991990052412004-10917-037050FM-12+000699999V0203601N000519999999N0200001N9+02701+02131108751ADDAA106000091AG10999GF107991999999012501999999KA1240N+02291MA1999999101701MD1999999+0121REMSYN017333   20229 58012
0115830960999991990052418004-10917-037050FM-12+000699999V0201801N00311012001CN0200001N9+02821+02241101662ADDAA106000091AG10999GF106991061051012501001001MA1999999101591MD1999999+0201REMSYN011333   58020EQDQ01+101663APOSLP
0115830960999991990052500004-10917-037050FM-12+000699999V0201801N00311220001CN9999999N9+02641+02251101761ADDAA106000091AG10999GF102991021051012501001001KA1240M+02931MA1999999101691MD1999999+0051REMSYN017333   10293 58005
0121830960999991990052512004-10917-037050FM-12+000699999V0201801N00051012001CN0200001N9+02661+02311101671ADDAA124002091AG10999GF105991051051012501001001KA1240N+02411MA1999999101601MD1999999-0101REMSYN023333   20241 59010 60024
0113830960999991990052518004-10917-037050FM-12+000699999V0201801N00311012001CN0200001N9+02801+02381101611ADDAA106000491AA299000591AG10999GF107991071051012501001001MA1999999101541MD1999999-0051REMSYN017333   59005 69941
0121830960999991990052600004-10917-037050FM-12+000699999V0201801N00051220001CN9999999N9+02621+02161101781ADDAA106002091AG10999GF102991021051012501001001KA1240M+02921MA1999999101711MD1999999+0021REMSYN023333   10292 58002 60021
0121830960999991990052612004-10917-037050FM-12+000699999V0201801N00211012001CN0200001N9+02621+02231101591ADDAA124003091AG10999GF107991071051012501001001KA1240N+02411MA1999999101521MD1999999-0081REMSYN023333   20241 59008 60034
0115830960999991990052700004-10917-037050FM-12+000699999V0201801N00051220001CN9999999N9+02601+02141101621ADDAA106000091AG10999GF104991041051012501001001KA1240M+02901MA1999999101551MD1999999-0161REMSYN017333   10290 59016
0121830960999991990052712004-10917-037050FM-12+000699999V0201801N00051220001CN0200001N9+02701+02201101511ADDAA124002091AG10999GF104991041051012501001001KA1240N+02301MA1999999101441MD1999999-0081REMSYN023333   20230 59008 60024
0121830960999991990052800004-10917-037050FM-12+000699999V0201801N00311012001CN9999999N9+02401+02231101451ADDAA106004091AG10999GF107991071051012501001001KA1240M+02901MA1999999101381MD1999999-0171REMSYN023333   10290 59017 60041
0121830960999991990052812004-10917-037050FM-12+000699999V0201801N00261220001CN0200001N9+02681+02201101571ADDAA124007091AG10999GF102991021051012501001001KA1240N+02241MA1999999101501MD1999999-0061REMSYN023333   20224 59006 60074
0102830960999991990052818004-10917-037050FM-12+000699999V0201801N00311220001CN0200001N9+02801+02251101561ADDAA106003091AG10999GF102991021051012501001001MA1999999101491MD1999999-0031REMSYN017333   59003 60031
0115830960999991990052900004-10917-037050FM-12+000699999V0201801N00311220001CN9999999N9+02641+02181101561ADDAA106000091AG10999GF102991021051012501001001KA1240M+02911MA1999999101491MD1999999+0111REMSYN017333   10291 58011
0121830960999991990052912004-10917-037050FM-12+000699999V0201801N00311012001CN0200001N9+02541+02331101671ADDAA124007091AG10999GF106991061051012501001001KA1240N+02321MA1999999101601MD1999999+0101REMSYN023333   20232 58010 60074
0102830960999991990052918004-10917-037050FM-12+000699999V0200901N00511007501CN0100001N9+02641+02231101561ADDAA106003091AG10999GF108991081071008001999999MA1999999101491MD1999999+0001REMSYN017333   58000 60031
0121830960999991990053000004-10917-037050FM-12+000699999V0200901N00311012001CN9999999N9+02641+02161101621ADDAA106001091AG10999GF106991061051012501001001KA1240M+02801MA1999999101551MD1999999+0061REMSYN023333   10280 58006 60011
0096830960999991990053018004-10917-037050FM-12+000699999V0201801N00311012001CN0200001N9+02541+02171101551ADDAA106000091AG10999GF106991061051012501001001MA1999999101481MD1999999-0011REMSYN011333   59001
0115830960999991990053100004-10917-037050FM-12+000699999V0201801N00051220001CN9999999N9+02621+02231101601ADDAA106000091AG10999GF104991041051012501001001KA1240M+02901MA1999999101531MD1999999-0021REMSYN017333   10290 59002
0121830960999991990053112004-10917-037050FM-12+000699999V0201801N00311012001CN0200001N9+02701+02201101481ADDAA124009091AG10999GF106991061051012501001001KA1240N+02211MA1999999101411MD1999999-0101REMSYN023333   20221 59010 60094
0102830960999991990053118004-10917-037050FM-12+000699999V0201801N00311220001CN0200001N9+02781+02131101391ADDAA106001091AG10999GF104991041051012501001001MA1999999101321MD1999999-0161REMSYN017333   59016 60011
0115830960999991990060100004-10917-037050FM-12+000699999V0201801N00311220001CN9999999N9+02601+02101101391ADDAA106000091AG10999GF104991041051012501001001KA1240M+02861MA1999999101521MD1999999-0011REMSYN017333   10286 59001
0143830960999991990060112004-10917-037050FM-12+000699999V0201801N00311007501CN0100001N9+02401+02171101611ADDAA124003091AG10999AY161061AY261061GF108991081071008001999999KA1240N+02371MA1999999101541MD1999999+0131MW1601REMSYN023333   20237 58013 60034
0102830960999991990060118004-10917-037050FM-12+000699999V0201801N00311012001CN0200001N9+02761+02121101401ADDAA106002091AG10999GF108991081051012501999999MA1999999101331MD1999999+0011REMSYN017333   58001 60021
0132830960999991990060200004-10917-037050FM-12+000699999V0201801N00311220001CN9999999N9+02641+02181101581ADDAA106000891AA299001091AG10999GF104991041051012501001001KA1240M+02801MA1999999101511MD1999999-0011REMSYN023333   10280 59001 69981
0121830960999991990060212004-10917-037050FM-12+000699999V0201801N00511012001CN0200001N9+02701+02081101651ADDAA124004091AG10999GF106991061051012501001001KA1240N+02351MA1999999101581MD1999999+0041REMSYN023333   20235 58004 60044
0115830960999991990060300004-10917-037050FM-12+000699999V0201801N00311220001CN9999999N9+02621+02051101611ADDAA106000091AG10999GF102991021051012501001001KA1240M+02881MA1999999101541MD1999999+0031REMSYN017333   10288 58003
0134830960999991990060312004-10917-037050FM-12+000699999V0201801N00311012001CN0200001N9+02601+02101101701ADDAA106000091AG10999GF106991061051012501001001KA1240N+02491MA1999999101631MD1999999+0051REMSYN017333   20249 58005EQDQ01+999990APOSP 
0115830960999991990060400004-10917-037050FM-12+000699999V0201801N00101220001CN9999999N9+99999+99999101661ADDAA106000091AG10999GF104991041051012501001001KA1240M+02901MA1999999101591MD1999999+0051REMSYN017333   10290 58005
0132830960999991990060412004-10917-037050FM-12+000699999V0201801N00411220001CN0200001N9+02701+02131101611ADDAA124000291AA299000391AG10999GF102991021051012501001001KA1240N+02381MA1999999101541MD1999999-0091REMSYN023333   20238 59009 69924
0115830960999991990060500004-10917-037050FM-12+000699999V0201801N00101220001CN9999999N9+02621+02121101591ADDAA106000091AG10999GF102991021011012501001001KA1240M+02921MA1999999101521MD1999999-0071REMSYN017333   10292 59007
0115830960999991990060512004-10917-037050FM-12+000699999V0202701N00151220001CN0200001N9+02601+02331101571ADDAA106000091AG10999GF104991041051012501001001KA1240N+02371MA1999999101501MD1999999-0041REMSYN017333   20237 59004
0096830960999991990060518004-10917-037050FM-12+000699999V0201801N00151220001CN0200001N9+02781+02251101431ADDAA106000091AG10999GF104991041021012501001001MA1999999101361MD1999999+0041REMSYN011333   58004
0140830960999991990060612004-10917-037050FM-12+000699999V0201801N00211220001CN0200001N9+02801+02251101621ADDAA124004091AG10999GF102991021051012501001001KA1240M+99999MA1999999101551MD1999999+0051REMSYN023333   10241 58005 60044EQDQ01 +02412ATMX  
0132830960999991990060700004-10917-037050FM-12+000699999V0201801N00051220001CN9999999N9+02611+02291101501ADDAA106000291AA299000391AG10999GF104991041051012501001001KA1240M+02881MA1999999101431MD1999999-0051REMSYN023333   10288 59005 69921
0121830960999991990060712004-10917-037050FM-12+000699999V0201801N00051220001CN0200001N9+02791+02251101591ADDAA124004091AG10999GF102991021021012501001001KA1240N+02211MA1999999101521MD1999999-0031REMSYN023333   20221 59003 60044
0102830960999991990060718004-10917-037050FM-12+000699999V0200901N00211220001CN0200001N9+02681+02241101441ADDAA106004091AG10999GF102991021051012501001001MA1999999101371MD1999999+0011REMSYN017333   58001 60041
0121830960999991990060812004-10917-037050FM-12+000699999V0200901N00311220001CN0200001N9+02701+02201101501ADDAA124004091AG10999GF104991041051012501001001KA1240N+02291MA1999999101431MD1999999-0091REMSYN023333   20229 59009 60044
0096830960999991990060818004-10917-037050FM-12+000699999V0200901N00211220001CN0200001N9+02741+02141101341ADDAA106000091AG10999GF102991021051012501001001MA1999999101271MD1999999-0101REMSYN011333   59010
0124830960999991990060912004-10917-037050FM-12+000699999V0201801N00051007501CN0100001N9+02401+02261101681ADDAA112004091AG10999AY161061AY261061GF108991071071008001999999MA1999999101611MD1999999+0181MW1601REMSYN017333   58018 60042
0115830960999991990061112004-10917-037050FM-12+000699999V0203601N00051220001CN0200001N9+02701+02261101541ADDAA106000091AG10999GF102991021051012501001001KA1240N+01911MA1999999101471MD1999999+0051REMSYN017333   20191 58005
0096830960999991990061118004-10917-037050FM-12+000699999V0201801N00051220001CN0200001N9+02801+02231101461ADDAA106000091AG10999GF102991021021012501001001MA1999999101391MD1999999+0021REMSYN011333   58002
0115830960999991990061212004-10917-037050FM-12+000699999V0201801N00051012001CN0200001N9+02601+02211101691ADDAA106000091AG10999GF108991081071012501999999KA1240N+02301MA1999999101621MD1999999+0151REMSYN017333   20230 58015
0113830960999991990061218004-10917-037050FM-12+000699999V0201801N00411012001CN0100001N9+02621+02231101531ADDAA106000291AA299000391AG10999GF108991081071012501999999MA1999999101461MD1999999+0071REMSYN017333   58007 69921
0121830960999991990061312004-10917-037050FM-12+000699999V0200901N00311012001CN0200001N9+02501+02211101621ADDAA124006091AG10999GF106991061051012501001001KA1240N+02251MA1999999101551MD1999999-0071REMSYN023333   20225 59007 60064
0102830960999991990061318004-10917-037050FM-12+000699999V0200901N00151012001CN0100001N9+02561+02191101491ADDAA124011091AG10999GF108991081071012501999999MA1999999101421MD1999999-0041REMSYN017333   59004 60114
0121830960999991990061512004-10917-037050FM-12+000699999V0202701N00051012001CN0200001N9+02411+02251101641ADDAA124036091AG10999GF106991061051012501001001KA1240N+02181MA1999999101571MD1999999+0021REMSYN023333   20218 58002 60364
0096830960999991990061518004-10917-037050FM-12+000699999V0201401N00151220001CN0200001N9+02721+02221101461ADDAA106000091AG10999GF104991041051012501001001MA1999999101391MD1999999-0021REMSYN011333   59002
0115830960999991990061600004-10917-037050FM-12+000699999V0201401N00051220001CN9999999N9+02511+02091101571ADDAA106000091AG10999GF102991021051012501001001KA1240M+02771MA1999999101501MD1999999+0061REMSYN017333   10277 58006
0115830960999991990061612004-10917-037050FM-12+000699999V0203201N00051220001CN0200001N9+02401+02111101711ADDAA106000091AG10999GF102991021051012501001001KA1240N+02051MA1999999101641MD1999999+0071REMSYN017333   20205 58007
0096830960999991990061618004-10917-037050FM-12+000699999V0200901N00151012001CN0200001N9+02701+02081101491ADDAA106000091AG10999GF106991061051012501001001MA1999999101421MD1999999+0031REMSYN011333   58003
0115830960999991990061700004-10917-037050FM-12+000699999V0200501N00311220001CN9999999N9+02481+02111101711ADDAA106000091AG10999GF104991041051012501001001KA1240M+02801MA1999999101641MD1999999+0141REMSYN017333   10280 58014
0115830960999991990061712004-10917-037050FM-12+000699999V0201401N00151220001CN0200001N9+02681+01971101811ADDAA106000091AG10999GF102991021051012501001001KA1240N+02291MA1999999101741MD1999999+0101REMSYN017333   20229 58010
0115830960999991990061800004-10917-037050FM-12+000699999V0201801N00571220001CN9999999N9+02541+02091101791ADDAA106000091AG10999GF102991021021012501001001KA1240M+02821MA1999999101721MD1999999+0021REMSYN017333   10282 58002
0115830960999991990061812004-10917-037050FM-12+000699999V0201801N00051220001CN0200001N9+02601+02011101791ADDAA106000091AG10999GF102991021011012501001001KA1240N+02431MA1999999101721MD1999999-0021REMSYN017333   20243 59002
0096830960999991990061818004-10917-037050FM-12+000699999V0201801N00311220001CN0200001N9+02781+02131101611ADDAA106000091AG10999GF102991021051012501001001MA1999999101541MD1999999+0061REMSYN011333   58006
0115830960999991990061900004-10917-037050FM-12+000699999V0201801N00311220001CN9999999N9+02661+02111101521ADDAA106000091AG10999GF102991021011012501001001KA1240M+02801MA1999999101451MD1999999-0271REMSYN017333   10280 59027
0132830960999991990061912004-10917-037050FM-12+000699999V0201401N00051220001CN0200001N9+02701+02281101731ADDAA124000491AA299000591AG10999GF102991021021012501001001KA1240N+02351MA1999999101661MD1999999-0061REMSYN023333   20235 59006 69944
0096830960999991990061918004-10917-037050FM-12+000699999V0200901N00311220001CN0200001N9+02761+02121101641ADDAA106000091AG10999GF101991011051012501001001MA1999999101571MD1999999+0031REMSYN011333   58003
0115830960999991990062000004-10917-037050FM-12+000699999V0201401N00051220001CN9999999N9+02541+02151101491ADDAA106000091AG10999GF104991041051012501001001KA1240M+02811MA1999999101421MD1999999-0031REMSYN017333   10281 59003
0121830960999991990062012004-10917-037050FM-12+000699999V0200901N00311012001CN0200001N9+02501+02211101791ADDAA124005091AG10999GF106991061051012501001001KA1240N+02271MA1999999101721MD1999999+0061REMSYN023333   20227 58006 60054
0115830960999991990062100004-10917-037050FM-12+000699999V0200901N00311220001CN9999999N9+02651+02141101821ADDAA106000091AG10999GF102991021011012501001001KA1240M+02901MA1999999101751MD1999999+0031REMSYN017333   10290 58003
0096830960999991990062118004-10917-037050FM-12+000699999V0201401N00261220001CN0200001N9+02721+02121101561ADDAA106000091AG10999GF102991021051012501001001MA1999999101491MD1999999+0011REMSYN011333   58001
0115830960999991990062200004-10917-037050FM-12+000699999V0201401N00311220001CN9999999N9+02601+02121101501ADDAA106000091AG10999GF104991041051012501001001KA1240M+02851MA1999999101431MD1999999-0321REMSYN017333   10285 59032
0132830960999991990062212004-10917-037050FM-12+000699999V0203201N00311220001CN0200001N9+02701+02281101611ADDAA124000491AA299000591AG10999GF104991041051012501001001KA1240N+02151MA1999999101541MD1999999-0081REMSYN023333   20215 59008 69944
0115830960999991990062312004-10917-037050FM-12+000699999V0200501N00261220001CN0200001N9+02601+02171101541ADDAA106000091AG10999GF104991041051012501001001KA1240N+02271MA1999999101471MD1999999-0071REMSYN017333   20227 59007
0115830960999991990062318004-10917-037050FM-12+000699999V0200901N00151220001CN0500001N9+03321+01701100981ADDAA106000091AG10999GF103991011011008001031011MA1999999095982MD1999999-0011REMSYN011333   59001EQDQ01+095983APOSP 
0121830960999991990062412004-10917-037050FM-12+000699999V0201401N00311220001CN0200001N9+02621+02311101551ADDAA124002091AG10999GF104991041051012501001001KA1240N+02251MA1999999101481MD1999999+0011REMSYN023333   20225 58001 60024
0115830960999991990062418004-10917-037050FM-12+000699999V0201401N003119999999N0200001N9+02761+02121101441ADDAA106000091AG10999GF106991999011012501001001MA1999999101371MD1999999+0051REMSYN011333   58005EQDQ01+000022SCOTLC
0121830960999991990062512004-10917-037050FM-12+000699999V0200901N00311007501CN0100001N9+02601+02191101521ADDAA124010091AG10999GF108991081071008001999999KA1240N+02311MA1999999101451MD1999999-0031REMSYN023333   20231 59003 60104
0096830960999991990062518004-10917-037050FM-12+000699999V0200901N00361012001CN0200001N9+02781+02251101401ADDAA106000091AG10999GF106991061051012501001001MA1999999101331MD1999999-0041REMSYN011333   59004
0096830960999991990062618004-10917-037050FM-12+000699999V0201401N00311220001CN0200001N9+02701+02171101451ADDAA106000091AG10999GF102991021011012501001001MA1999999101381MD1999999+0051REMSYN011333   58005
0115830960999991990062700004-10917-037050FM-12+000699999V0201401N00311220001CN9999999N9+02551+02171101391ADDAA106000091AG10999GF104991041021012501001001KA1240M+02861MA1999999101321MD1999999-0121REMSYN017333   10286 59012
0121830960999991990062712004-10917-037050FM-12+000699999V0203201N00151220001CN0200001N9+02501+02211101621ADDAA124010091AG10999GF104991041051012501001001KA1240N+02171MA1999999101551MD1999999-0031REMSYN023333   20217 59003 60104
0096830960999991990062718004-10917-037050FM-12+000699999V0201401N00311012001CN0200001N9+02261+02181101391ADDAA106000091AG10999GF106991061051012501001001MA1999999101321MD1999999-0061REMSYN011333   59006
0121830960999991990062812004-10917-037050FM-12+000699999V0203201N00311012001CN0200001N9+02401+02111101481ADDAA124001091AG10999GF106991061051012501001001KA1240N+02151MA1999999101411MD1999999-0141REMSYN023333   20215 59014 60014
0115830960999991990062818004-10917-037050FM-12+000699999V0201401N00361220001CN0500001N9+03071+01381101041ADDAA106000091AG10999GF103991011011008001041001MA1999999096022MD1999999+0001REMSYN011333   58000EQDQ01+096023APOSP 
0115830960999991990062912004-10917-037050FM-12+000699999V0201401N00311012001CN0200001N9+02601+02141101571ADDAA106000091AG10999GF106991061051012501001001KA1240N+02211MA1999999101501MD1999999+0091REMSYN017333   20221 58009
0096830960999991990062918004-10917-037050FM-12+000699999V0201401N00311012001CN0200001N9+02731+02261101491ADDAA106000091AG10999GF106991061051012501001001MA1999999101421MD1999999+0141REMSYN011333   58014
0115830960999991990063000004-10917-037050FM-12+000699999V0201401N00151220001CN9999999N9+02641+02331101561ADDAA106000091AG10999GF102991021011012501001001KA1240M+02861MA1999999101491MD1999999+0041REMSYN017333   10286 58004
0132830960999991990063012004-10917-037050FM-12+000699999V0201401N00311220001CN0200001N9+02701+02221101611ADDAA124000691AA299000591AG10999GF101991011051012501001001KA1240N+02311MA1999999101541MD1999999+0041REMSYN023333   20231 58004 69964
0121830960999991990070112004-10917-037050FM-12+000699999V0200901N00311012001CN0200001N9+02641+02181101591ADDAA124007091AG10999GF106991061051012501001001KA1240N+02211MA1999999101521MD1999999-0021REMSYN023333   20221 59002 60074
0143830960999991990070118004-10917-037050FM-12+000699999V0200901N00151007501CN0100001N9+02361+02281101291ADDAA106004091AG10999AY161061AY261061GF108991071051008001999999MA1999999101221MD1999999-0151MW1601REMSYN017333   59015 60041EQDQ01+999990APOSLP
0143830960999991990070212004-10917-037050FM-12+000699999V0201401N00311007501CN0100001N9+02701+02281101511ADDAA124007091AG10999AY161061AY261061GF108991051071008001999999KA1240N+02271MA1999999101441MD1999999-0081MW1601REMSYN023333   20227 59008 60074
