0115831820999991990010100004-11300-041867FM-12+074799999V0201401N00361220001CN9999999N9+02131+01721101401ADDAA106000091AG10999GF100991001001999999001001KA1240M+02921MA1999999093051MD1999999-0011REMSYN017333   10292 59001
0115831820999991990010112004-11300-041867FM-12+074799999V0201401N00461220001CN0100001N9+02471+01851101551ADDAA106000091AG10999GF107991041021008001001011KA1240N+01741MA1999999093191MD1999999-0021REMSYN017333   20174 59002
0096831820999991990010118004-11300-041867FM-12+074799999V0200901N00411045001CN0200001N9+02851+01671101201ADDAA106000091AG10999GF108991011021008001011011MA1999999092901MD1999999-0021REMSYN011333   59002
0115831820999991990010200004-11300-041867FM-12+074799999V0201401N00361220001CN9999999N9+02171+01781101371ADDAA106000091AG10999GF104991001001999999001011KA1240M+02921MA1999999093031MD1999999-0021REMSYN017333   10292 59002
0115831820999991990010212004-11300-041867FM-12+074799999V0201401N00261007501CN0100001N9+02361+01951101551ADDAA106000091AG10999GF107991071051008001001001KA1240N+01761MA1999999093181MD1999999-0011REMSYN017333   20176 59001
0096831820999991990010218004-11300-041867FM-12+074799999V0201401N00101220001CN0100001N9+02871+02011999999ADDAA106000091AG10999GF108991021021008001001011MA1999999092811MD1999999-0091REMSYN011333   59009
0115831820999991990010300004-11300-041867FM-12+074799999V0201401N00311220001CN9999999N9+02281+01921101321ADDAA106000091AG10999GF102991011001017501061011KA1240M+03001MA1999999092981MD1999999-0051REMSYN017333   10300 59005
0115831820999991990010312004-11300-041867FM-12+074799999V0200901N00261220001CN0100001N9+02471+02031101401ADDAA106000091AG10999GF108991011021008001001011KA1240N+01831MA1999999091071MD1999999-0111REMSYN017333   20183 59011
0143831820999991990010318004-11300-041867FM-12+074799999V0200901N00931045001CN0100001N9+02291+01901101121ADDAA106004091AG10999AY161061AY221061GF108991021031008001021999MA1999999092772MD1999999-0041MW1291REMSYN017333   59004 60041EQDQ01+092773APOSP 
0137831820999991990010400004-11300-041867FM-12+074799999V0200901N00211015001CN9999999N9+02251+02091101291ADDAA106000091AG10999AY121061AY221061GF108991081001017501011999KA1240M+02761MA1999999092961MD1999999-0021MW1131REMSYN017333   10276 59002
0121831820999991990010412004-11300-041867FM-12+074799999V0201401N00311045001CN0100001N9+02391+01991101461ADDAA124004091AG10999GF108991031021008001051011KA1240N+01961MA1999999093111MD1999999+0041REMSYN023333   20196 58004 60044
0118831820999991990010418004-11300-041867FM-12+074799999V0200901N00361045001CN0040001N9+02851+01851101151ADDAA106000091AG10999AY121061AY221061GF108991011021008001011021MA1999999092851MD1999999+0081MW1151REMSYN011333   58008
0115831820999991990010500004-11300-041867FM-12+074799999V0200501N00051045001CN9999999N9+02241+02091101441ADDAA106000091AG10999GF108991041071004501011999KA1240M+02881MA1999999093091MD1999999+0131REMSYN017333   10288 58013
0115831820999991990010512004-11300-041867FM-12+074799999V0201401N00461007501CN0100001N9+02351+01981101381ADDAA106000091AG10999GF107991071021008001001001KA1240N+01901MA1999999093041MD1999999-0071REMSYN017333   20190 59007
0096831820999991990010518004-11300-041867FM-12+074799999V0201401N00411105001CN0100001N9+02831+01711101081ADDAA106000091AG10999GF108991011021008001001021MA1999999092791MD1999999-0061REMSYN011333   59006
0154831820999991990010612004-11300-041867FM-12+074799999V0201401N00571220001CN0100001N9+02431+01771101471ADDAA124000491AA299000591AG10999AY161061AY221061GF104991041021008001001001KA1240N+01741MA1999999093121MD1999999+0081MW1031REMSYN023333   20174 58008 69944
0096831820999991990010618004-11300-041867FM-12+074799999V0201401N00411220001CN0100001N9+02821+01741101091ADDAA106000091AG10999GF102991021021008001001001MA1999999092801MD1999999+0011REMSYN011333   58001
0115831820999991990010700004-11300-041867FM-12+074799999V0201401N00361220001CN9999999N9+02091+01581101311ADDAA106000091AG10999GF100991001001999999001001KA1240M+02851MA1999999092961MD1999999-0041REMSYN017333   10285 59004
0115831820999991990010712004-11300-041867FM-12+074799999V0200901N00571007501CN0100001N9+02331+01741101481ADDAA106000091AG10999GF106991051021008001001011KA1240N+01651MA1999999093111MD1999999-0011REMSYN017333   20165 59001
0096831820999991990010718004-11300-041867FM-12+074799999V0201801N00311220001CN0100001N9+02771+01661101081ADDAA106000091AG10999GF102991021021008001001001MA1999999092771MD1999999-0031REMSYN011333   59003
0115831820999991990010800004-11300-041867FM-12+074799999V0201401N00311220001CN9999999N9+02091+01561101251ADDAA106000091AG10999GF100991001001999999001001KA1240M+02821MA1999999092901MD1999999-0061REMSYN017333   10282 59006
0115831820999991990010812004-11300-041867FM-12+074799999V0201401N00461220001CN0100001N9+02321+01701101431ADDAA106000091AG10999GF100991001001999999001001KA1240N+01711MA1999999093061MD1999999-0051REMSYN017333   20171 59005
0115831820999991990011700004-11300-041867FM-12+074799999V0200901N00361220001CN9999999N9+02281+01681101131ADDAA106000091AG10999GF106991001001999999001011KA1240M+03041MA1999999092831MD1999999+0031REMSYN017333   10304 58003
0115831820999991990011712004-11300-041867FM-12+074799999V0201401N00511220001CN0100001N9+02421+01861101311ADDAA106000091AG10999GF108991021021008001001011KA1240N+01781MA1999999092981MD1999999+0041REMSYN017333   20178 58004
0096831820999991990011718004-11300-041867FM-12+074799999V0201401N00361220001CN0100001N9+02931+01741101021ADDAA106000091AG10999GF108991021021008001001011MA1999999092731MD1999999+0091REMSYN011333   58009
0115831820999991990011800004-11300-041867FM-12+074799999V0201401N00311220001CN9999999N9+02221+01731101201ADDAA106000091AG10999GF104991001001999999001011KA1240M+02941MA1999999092871MD1999999+0041REMSYN017333   10294 58004
0115831820999991990011812004-11300-041867FM-12+074799999V0201401N00461007501CN0100001N9+02461+01901101411ADDAA106000091AG10999GF106991061021008001001001KA1240N+01921MA1999999093071MD1999999+0091REMSYN017333   20192 58009
0096831820999991990011818004-11300-041867FM-12+074799999V0201401N00311220001CN0100001N9+03051+01751101001ADDAA106000091AG10999GF107991031021008001001011MA1999999092731MD1999999+0001REMSYN011333   58000
0115831820999991990011900004-11300-041867FM-12+074799999V0201401N00311220001CN9999999N9+02331+01721101171ADDAA106000091AG10999GF106991001001999999001011KA1240M+03081MA1999999092861MD1999999-0011REMSYN017333   10308 59001
0115831820999991990011912004-11300-041867FM-12+074799999V0201401N00621007501CN0100001N9+02391+01781101401ADDAA106000091AG10999GF107991071021008001001001KA1240N+01831MA1999999093061MD1999999-0011REMSYN017333   20183 59001
0096831820999991990011918004-11300-041867FM-12+074799999V0201401N00571220001CN0200001N9+02851+01881101121ADDAA106000091AG10999GF102991021021008001001001MA1999999092821MD1999999+0091REMSYN011333   58009
0115831820999991990012000004-11300-041867FM-12+074799999V0201401N00461220001CN9999999N9+02331+01811101221ADDAA106000091AG10999GF100991001001999999001001KA1240M+02941MA1999999092901MD1999999+0041REMSYN017333   10294 58004
0115831820999991990012012004-11300-041867FM-12+074799999V0201401N00771220001CN0100001N9+02401+01681101441ADDAA106000091AG10999GF102991021021008001001001KA1240N+01821MA1999999093101MD1999999+0041REMSYN017333   20182 58004
0096831820999991990012018004-11300-041867FM-12+074799999V0201401N00461220001CN0100001N9+03001+01711101031ADDAA106000091AG10999GF103991021021008001001011MA1999999092751MD1999999-0071REMSYN011333   59007
0115831820999991990012100004-11300-041867FM-12+074799999V0201401N00361220001CN9999999N9+02281+01491101291ADDAA106000091AG10999GF100991001001999999001001KA1240M+03021MA1999999092961MD1999999+0061REMSYN017333   10302 58006
0115831820999991990012112004-11300-041867FM-12+074799999V0201401N00511220001CN0100001N9+02351+01811101371ADDAA106000091AG10999GF102991021021008001001011KA1240N+01741MA1999999093031MD1999999-0071REMSYN017333   20174 59007
0096831820999991990012118004-11300-041867FM-12+074799999V0201401N00261220001CN0100001N9+03031+01391100931ADDAA106000091AG10999GF102991021021008001001001MA1999999092651MD1999999-0101REMSYN011333   59010
0115831820999991990012200004-11300-041867FM-12+074799999V0201401N00311220001CN9999999N9+02331+01761101221ADDAA106000091AG10999GF100991001001999999001001KA1240M+03051MA1999999092901MD1999999-0061REMSYN017333   10305 59006
0115831820999991990012212004-11300-041867FM-12+074799999V0201801N00411220001CN0100001N9+02331+01741101411ADDAA106000091AG10999GF100991001001999999001001KA1240N+01781MA1999999093071MD1999999+0041REMSYN017333   20178 58004
0096831820999991990012218004-11300-041867FM-12+074799999V0201401N00361220001CN0100001N9+03211+01711100921ADDAA106000091AG10999GF102991021021008001001001MA1999999092671MD1999999+0021REMSYN011333   58002
0115831820999991990012300004-11300-041867FM-12+074799999V0200901N00361220001CN9999999N9+02411+01771101151ADDAA106000091AG10999GF100991001001999999001001KA1240M+03221MA1999999092841MD1999999-0061REMSYN017333   10322 59006
0115831820999991990012312004-11300-041867FM-12+074799999V0201401N00461220001CN0100001N9+02571+01881101341ADDAA106000091AG10999GF100991001001999999001001KA1240N+01841MA1999999093041MD1999999-0031REMSYN017333   20184 59003
0096831820999991990012318004-11300-041867FM-12+074799999V0201401N00311220001CN0100001N9+03171+01711100881ADDAA106000091AG10999GF102991021021008001001001MA1999999092631MD1999999-0041REMSYN011333   59004
0115831820999991990012400004-11300-041867FM-12+074799999V0200901N00361220001CN9999999N9+02431+01701101051ADDAA106000091AG10999GF100991001001999999001001KA1240M+03261MA1999999092771MD1999999-0071REMSYN017333   10326 59007
0115831820999991990012412004-11300-041867FM-12+074799999V0201401N00821220001CN0100001N9+02491+01921101181ADDAA106000091AG10999GF101991001001999999001011KA1240N+01731MA1999999092881MD1999999-0161REMSYN017333   20173 59016
0115831820999991990012500004-11300-041867FM-12+074799999V0200901N00621220001CN9999999N9+02411+01681101101ADDAA106000091AG10999GF104991001001999999001011KA1240M+03241MA1999999092801MD1999999+0031REMSYN017333   10324 58003
0137831820999991990012512004-11300-041867FM-12+074799999V0200901N00571220001CN0010001N9+02271+01861101341ADDAA106000091AG10999AY111061AY211061GF106991041021008001001011KA1240N+01661MA1999999093011MD1999999+0131MW1051REMSYN017333   20166 58013
0096831820999991990012518004-11300-041867FM-12+074799999V0201401N00411220001CN0040001N9+03201+01461100881ADDAA106000091AG10999GF108991001001999999001011MA1999999092621MD1999999+0031REMSYN011333   58003
0115831820999991990012600004-11300-041867FM-12+074799999V0200901N00411220001CN9999999N9+02331+01631101231ADDAA106000091AG10999GF102991001001999999001011KA1240M+03211MA1999999092901MD1999999+0101REMSYN017333   10321 58010
0115831820999991990012612004-11300-041867FM-12+074799999V0200901N00411220001CN0100001N9+02461+01831101391ADDAA106000091AG10999GF108991001001999999001011KA1240N+01681MA1999999093061MD1999999+0051REMSYN017333   20168 58005
0096831820999991990012618004-11300-041867FM-12+074799999V0200901N00261220001CN0100001N9+03111+01541100981ADDAA106000091AG10999GF103991021021008001001011MA1999999092711MD1999999+0091REMSYN011333   58009
0115831820999991990012712004-11300-041867FM-12+074799999V0200901N00461007501CN0100001N9+02491+01851101461ADDAA106000091AG10999GF105991051021008001001001KA1240N+01831MA1999999093141MD1999999+0081REMSYN017333   20183 58008
0096831820999991990012718004-11300-041867FM-12+074799999V0200901N00511220001CN0100001N9+02881+01731101151ADDAA106000091AG10999GF104991041021008001001001MA1999999092851MD1999999+0141REMSYN011333   58014
0115831820999991990012800004-11300-041867FM-12+074799999V0200901N00361220001CN9999999N9+02301+01581101301ADDAA106000091AG10999GF105991001001999999001011KA1240M+02981MA1999999092981MD1999999+0081REMSYN017333   10298 58008
0115831820999991990012812004-11300-041867FM-12+074799999V0200901N00771220001CN0100001N9+02431+01651101331ADDAA106000091AG10999GF102991021021008001001001KA1240N+01841MA1999999093001MD1999999-0141REMSYN017333   20184 59014
0096831820999991990012818004-11300-041867FM-12+074799999V0200901N00671007501CN0100001N9+02791+01731101071ADDAA106000091AG10999GF108991051021008001031011MA1999999092771MD1999999-0081REMSYN011333   59008
0115831820999991990012912004-11300-041867FM-12+074799999V0201401N00671045001CN0100001N9+02171+01161101331ADDAA106000091AG10999GF108991011021008001011999KA1240N+01821MA1999999092971MD1999999-0031REMSYN017333   20182 59003
0118831820999991990012918004-11300-041867FM-12+074799999V0201401N00671045001CN0100001N9+02661+01821101081ADDAA106000091AG10999AY121061AY221061GF108991021021008001051011MA1999999092771MD1999999+0001MW1151REMSYN011333   58000
0115831820999991990013000004-11300-041867FM-12+074799999V0201401N00411220001CN9999999N9+02131+01821101211ADDAA106000091AG10999GF108991001001999999001011KA1240M+02851MA1999999092851MD1999999-0091REMSYN017333   10285 59009
0154831820999991990013012004-11300-041867FM-12+074799999V0200901N00411004201CN0040001N9+02201+02061101431ADDAA124000691AA299000591AG10999AY161061AY221061GF108991061071004501001011KA1240N+01861MA1999999093051MD1999999+0081MW1211REMSYN023333   20186 58008 69964
0135831820999991990013018004-11300-041867FM-12+074799999V0200901N00621004201CN0040001N9+02771+01801101111ADDAA106000691AA299000591AG10999AY161061AY221061GF108991081071004501999999MA1999999092801MD1999999+0031MW1151REMSYN017333   58003 69961
0115831820999991990013100004-11300-041867FM-12+074799999V0201401N00261220001CN9999999N9+02231+01671101351ADDAA106000091AG10999GF108991001001999999001011KA1240M+02961MA1999999092991MD1999999+0141REMSYN017333   10296 58014
0132831820999991990013112004-11300-041867FM-12+074799999V0200901N00621007501CN0100001N9+02351+01761101541ADDAA124000691AA299000591AG10999GF108991081051008001999999KA1240N+01741MA1999999093181MD1999999+0121REMSYN023333   20174 58012 69964
0096831820999991990013118004-11300-041867FM-12+074799999V0200901N00621045001CN0200001N9+02651+01901101301ADDAA106000091AG10999GF106991031051008001051031MA1999999092961MD1999999+0161REMSYN011333   58016
0115831820999991990020100004-11300-041867FM-12+074799999V0201401N00411012001CN9999999N9+02331+01721101471ADDAA106000091AG10999GF107991071081008001001001KA1240M+02881MA1999999093131MD1999999+0141REMSYN017333   10288 58014
0115831820999991990020112004-11300-041867FM-12+074799999V0201401N00511220001CN0100001N9+02381+01871101481ADDAA106000091AG10999GF108991031021008001001011KA1240N+01801MA1999999093141MD1999999-0041REMSYN017333   20180 59004
0096831820999991990020118004-11300-041867FM-12+074799999V0200901N00571105001CN0100001N9+02911+01871101211ADDAA106000091AG10999GF106991041021008001001021MA1999999092891MD1999999-0071REMSYN011333   59007
0115831820999991990020200004-11300-041867FM-12+074799999V0201401N00361220001CN9999999N9+02331+01851101371ADDAA106000091AG10999GF108991001001999999001011KA1240M+03021MA1999999093041MD1999999-0091REMSYN017333   10302 59009
0115831820999991990020212004-11300-041867FM-12+074799999V0201401N00511007501CN0100001N9+02411+01771101451ADDAA106000091AG10999GF106991061051008001001001KA1240N+01841MA1999999093111MD1999999-0031REMSYN017333   20184 59003
0096831820999991990020218004-11300-041867FM-12+074799999V0200901N00461220001CN0100001N9+03061+01831101091ADDAA106000091AG10999GF103991031021008001001001MA1999999092811MD1999999-0081REMSYN011333   59008
0115831820999991990020300004-11300-041867FM-12+074799999V0201401N00411220001CN9999999N9+02381+01581101281ADDAA106000091AG10999GF100991001001999999001001KA1240M+03101MA1999999092961MD1999999-0081REMSYN017333   10310 59008
0115831820999991990020312004-11300-041867FM-12+074799999V0209999999999220001CN0100001N9+02471+01731101431ADDAA106000091AG10999GF102991021021008001001001KA1240N+01851MA1999999093111MD1999999+0001REMSYN017333   20185 58000
0096831820999991990020318004-11300-041867FM-12+074799999V0201401N00511220001CN0100001N9+03071+01771101081ADDAA106000091AG10999GF102991021021008001001001MA1999999092811MD1999999+0001REMSYN011333   58000
0115831820999991990020400004-11300-041867FM-12+074799999V0200901N00361220001CN9999999N9+02831+01781101221ADDAA106000091AG10999GF100991001001999999001001KA1240M+03121MA1999999092921MD1999999-0081REMSYN017333   10312 59008
0115831820999991990020412004-11300-041867FM-12+074799999V0201401N00511220001CN0100001N9+02441+01641101451ADDAA106000091AG10999GF101991011021008001001001KA1240N+01711MA1999999093131MD1999999+0021REMSYN017333   20171 58002
0096831820999991990020418004-11300-041867FM-12+074799999V0200901N00411220001CN0100001N9+03071+01701101091ADDAA106000091AG10999GF104991041021008001001001MA1999999092811MD1999999+0001REMSYN011333   58000
0115831820999991990020500004-11300-041867FM-12+074799999V0200901N00361220001CN9999999N9+02361+01611101341ADDAA106000091AG10999GF101991001001999999001011KA1240M+03121MA1999999093031MD1999999+0111REMSYN017333   10312 58011
0115831820999991990020512004-11300-041867FM-12+074799999V0200901N00511220001CN0100001N9+02301+01611101541ADDAA106000091AG10999GF108991011021008001001011KA1240N+01721MA1999999093191MD1999999+0061REMSYN017333   20172 58006
0096831820999991990020518004-11300-041867FM-12+074799999V0200901N00311220001CN0100001N9+03091+01521101061ADDAA106000091AG10999GF108991011021008001001011MA1999999092781MD1999999-0031REMSYN011333   59003
0115831820999991990020600004-11300-041867FM-12+074799999V0201401N00311220001CN9999999N9+02251+01571101291ADDAA106000091AG10999GF108991001001999999001011KA1240M+03111MA1999999092951MD1999999-0081REMSYN017333   10311 59008
0115831820999991990020612004-11300-041867FM-12+074799999V0201401N00461220001CN0100001N9+02371+01641101561ADDAA106000091AG10999GF108991031021008001001011KA1240N+01931MA1999999093201MD1999999+0011REMSYN017333   20193 58001
0096831820999991990020618004-11300-041867FM-12+074799999V0201401N00511220001CN0100001N9+02941+01591101191ADDAA106000091AG10999GF108991031021008001001011MA1999999092891MD1999999+0111REMSYN011333   58011
0115831820999991990020700004-11300-041867FM-12+074799999V0201401N00311015001CN9999999N9+02231+01691101361ADDAA106000091AG10999GF108991061001017501031011KA1240M+03001MA1999999093021MD1999999+0071REMSYN017333   10300 58007
0115831820999991990020712004-11300-041867FM-12+074799999V0201401N00571220001CN0100001N9+02261+01641101591ADDAA106000091AG10999GF108991011021008001001011KA1240N+01831MA1999999093221MD1999999+0021REMSYN017333   20183 58002
0096831820999991990032918004-11300-041867FM-12+074799999V0201401N00151220001CN0200001N9+02981+02421101031ADDAA106000091AG10999GF103991031021008001001001MA1999999100451MD1999999+0201REMSYN011333   58020
0115831820999991990042612004-11300-041867FM-12+074799999V0200901N00571007501CN0100001N9+02281+01831101251ADDAA106000091AG10999GF108991081051008001999999KA1240N+01701MA1999999092921MD1999999-0191REMSYN017333   20170 59019
0096831820999991990042618004-11300-041867FM-12+074799999V0200901N00571220001CN0100001N9+02801+01631100801ADDAA106000091AG10999GF104991031021008001041001MA1999999092521MD1999999-0101REMSYN011333   59010
0115831820999991990042700004-11300-041867FM-12+074799999V0201401N00361220001CN9999999N9+02311+01751101071ADDAA106000091AG10999GF100991001001999999001001KA1240M+02951MA1999999092751MD1999999-0101REMSYN017333   10295 59010
0115831820999991990042712004-11300-041867FM-12+074799999V0201401N00671220001CN0100001N9+02511+01721101201ADDAA106000091AG10999GF100991001001999999001001KA1240N+01921MA1999999092891MD1999999-0041REMSYN017333   20192 59004
0096831820999991990042718004-11300-041867FM-12+074799999V0200901N00311007501CN0100001N9+02981+01731100841ADDAA106000091AG10999GF108991081051008001999999MA1999999092571MD1999999+0051REMSYN011333   58005
0115831820999991990042800004-11300-041867FM-12+074799999V0200901N00361220001CN9999999N9+02391+01421101081ADDAA106000091AG10999GF100991001001999999001001KA1240M+03081MA1999999092791MD1999999+0041REMSYN017333   10308 58004
0115831820999991990042812004-11300-041867FM-12+074799999V0201401N00411015001CN0100001N9+02331+01631101341ADDAA106000091AG10999GF107991071001017501041001KA1240N+01781MA1999999093011MD1999999+0121REMSYN017333   20178 58012
0096831820999991990042818004-11300-041867FM-12+074799999V0200901N00721105001CN0100001N9+02861+01441100981ADDAA106000091AG10999GF108991041001017501051021MA1999999092691MD1999999+0121REMSYN011333   58012
0115831820999991990042900004-11300-041867FM-12+074799999V0201401N00311220001CN9999999N9+02311+01751101211ADDAA106000091AG10999GF108991001001999999001011KA1240M+03051MA1999999092881MD1999999+0091REMSYN017333   10305 58009
0115831820999991990042918004-11300-041867FM-12+074799999V0201801N00411007501CN0100001N9+02491+01831101361ADDAA106000091AG10999GF108991071021008001001011KA1240N+02081MA1999999093041MD1999999+0031REMSYN017333   20208 58003
0115831820999991990043000004-11300-041867FM-12+074799999V0200901N00261220001CN9999999N9+02331+01791101121ADDAA106000091AG10999GF102991001001999999001011KA1240M+03141MA1999999092821MD1999999-0061REMSYN017333   10314 59006
0115831820999991990043012004-11300-041867FM-12+074799999V0200901N00411220001CN0100001N9+02531+01841101231ADDAA106000091AG10999GF108991011021008001001011KA1240N+01881MA1999999092931MD1999999-0111REMSYN017333   20188 59011
0096831820999991990043018004-11300-041867FM-12+074799999V0201401N00211220001CN0100001N9+03201+01711100651ADDAA106000091AG10999GF105991021021008001001011MA1999999092421MD1999999-0251REMSYN011333   59025
0115831820999991990050100004-11300-041867FM-12+074799999V0200901N00151220001CN9999999N9+02481+01491100871ADDAA106000091AG10999GF102991021001017501051011KA1240M+03261MA1999999092601MD1999999-0221REMSYN017333   10326 59022
0115831820999991990050112004-11300-041867FM-12+074799999V0200901N00151220001CN0040001N9+02571+02021101131ADDAA106000091AG10999GF104991001001999999001011KA1240N+01821MA1999999092851MD1999999-0051REMSYN017333   20182 59005
0096831820999991990050118004-11300-041867FM-12+074799999V0201801N00211220001CN0100001N9+03171+01861100621ADDAA106000091AG10999GF107991021021008001001011MA1999999092381MD1999999-0041REMSYN011333   59004
0115831820999991990050200004-11300-041867FM-12+074799999V0200901N00311220001CN9999999N9+02611+01651100861ADDAA106000091AG10999GF108991001001999999001011KA1240M+03321MA1999999092611MD1999999+0011REMSYN017333   10332 58001
0115831820999991990050212004-11300-041867FM-12+074799999V0200901N00311007501CN0100001N9+02631+01911101181ADDAA106000091AG10999GF108991051021008001001011KA1240N+01961MA1999999092911MD1999999+0061REMSYN017333   20196 58006
0096831820999991990050218004-11300-041867FM-12+074799999V0201401N00361007501CN0100001N9+03151+01771100711ADDAA106000091AG10999GF108991051021008001001011MA1999999092471MD1999999+0091REMSYN011333   58009
0115831820999991990050300004-11300-041867FM-12+074799999V0200901N00311220001CN9999999N9+02471+01441100871ADDAA106000091AG10999GF108991001001999999001011KA1240M+03241MA1999999092611MD1999999+0001REMSYN017333   10324 58000
0137831820999991990050312004-11300-041867FM-12+074799999V0200501N00151220001CN0020001N9+02671+02071101171ADDAA106000091AG10999AY121061AY221061GF106991021021008001001011KA1240N+01801MA1999999092891MD1999999-0021MW1051REMSYN017333   20180 59002
0115831820999991990050400004-11300-041867FM-12+074799999V0200901N00261220001CN9999999N9+02331+01651100991ADDAA106000091AG10999GF106991001001999999001011KA1240M+03261MA1999999092711MD1999999+0101REMSYN017333   10326 58010
0137831820999991990050412004-11300-041867FM-12+074799999V0201401N00361045001CN0010001N9+02531+02071101191ADDAA106000091AG10999AY121061AY221061GF108991021021008001051011KA1240N+01851MA1999999092891MD1999999+0001MW1051REMSYN017333   20185 58000
0118831820999991990050418004-11300-041867FM-12+074799999V0200901N00511045001CN0010001N9+02911+01781100751ADDAA106000091AG10999AY121061AY221061GF106991021031008001051011MA1999999092481MD1999999+0041MW1161REMSYN011333   58004
0143831820999991990050500004-11300-041867FM-12+074799999V0201401N00511220001CN9999999N9+02351+01811101001ADDAA106000391AG10999AY161061AY221061GF108991001001999999001011KA1240M+03101MA1999999092711MD1999999+0001MW1021REMSYN023333   10310 58000 69931
0121831820999991990050512004-11300-041867FM-12+074799999V0200901N00511007501CN0100001N9+02441+01921101311ADDAA124000391AG10999GF107991061051008001051001KA1240N+01971MA1999999092991MD1999999+0101REMSYN023333   20197 58010 69934
0096831820999991990050518004-11300-041867FM-12+074799999V0200901N00461045001CN0100001N9+02851+01761100891ADDAA106000091AG10999GF107991031031008001051011MA1999999092611MD1999999+0131REMSYN011333   58013
0115831820999991990050600004-11300-041867FM-12+074799999V0201401N00461012001CN9999999N9+02251+01751101151ADDAA106000091AG10999GF106991061081008001001001KA1240M+03001MA1999999092841MD1999999+0131REMSYN017333   10300 58013
0115831820999991990050612004-11300-041867FM-12+074799999V0201401N00511220001CN0100001N9+02411+01771101401ADDAA106000091AG10999GF101991011011012501001001KA1240N+01911MA1999999093061MD1999999+0071REMSYN017333   20191 58007
0096831820999991990050618004-11300-041867FM-12+074799999V0200501N00261007501CN0200001N9+02751+01731101071ADDAA106000091AG10999GF108991081051008001999999MA1999999092781MD1999999+0171REMSYN011333   58017
0115831820999991990050700004-11300-041867FM-12+074799999V0201401N00261220001CN9999999N9+02191+01611101351ADDAA106000091AG10999GF101991001001999999001011KA1240M+02801MA1999999093011MD1999999+0171REMSYN017333   10280 58017
0115831820999991990050712004-11300-041867FM-12+074799999V0200501N00461220001CN0100001N9+02371+01891101511ADDAA106000091AG10999GF100991001001999999001001KA1240N+01781MA1999999093151MD1999999+0091REMSYN017333   20178 58009
0096831820999991990050718004-11300-041867FM-12+074799999V0200901N00211045001CN0200001N9+03011+01881101031ADDAA106000091AG10999GF106991021061008001051001MA1999999092751MD1999999-0031REMSYN011333   59003
0115831820999991990050800004-11300-041867FM-12+074799999V0201401N00361220001CN9999999N9+02351+01551101311ADDAA106000091AG10999GF103991001001999999001011KA1240M+03121MA1999999092981MD1999999-0031REMSYN017333   10312 59003
0115831820999991990050812004-11300-041867FM-12+074799999V0200901N00411220001CN0200001N9+02321+01701101581ADDAA106000091AG10999GF103991031001017501051011KA1240N+01791MA1999999093231MD1999999+0081REMSYN017333   20179 58008
0096831820999991990050818004-11300-041867FM-12+074799999V0200901N00261105001CN0100001N9+02961+01811101071ADDAA106000091AG10999GF105991021021008001051011MA1999999092781MD1999999+0031REMSYN011333   58003
0115831820999991990050900004-11300-041867FM-12+074799999V0200901N00311012001CN9999999N9+02461+01631101281ADDAA106000091AG10999GF108991081081008001999999KA1240M+03041MA1999999092961MD1999999-0021REMSYN017333   10304 59002
0115831820999991990050912004-11300-041867FM-12+074799999V0200901N00461007501CN0200001N9+02411+01771101421ADDAA106000091AG10999GF107991071051008001001001KA1240N+01961MA1999999093101MD1999999-0131REMSYN017333   20196 59013
0115831820999991990050918004-11300-041867FM-12+074799999V0200501N003119999999N0200001N9+02931+01891101011ADDAA106000091AG10999GF105991999021008001001001MA1999999092741MD1999999-0041REMSYN011333   59004EQDQ01+000032SCOTLC
0115831820999991990051000004-11300-041867FM-12+074799999V0200901N00361220001CN9999999N9+02371+01681101221ADDAA106000091AG10999GF101991001001999999001011KA1240M+02981MA1999999092911MD1999999-0051REMSYN017333   10298 59005
0115831820999991990051012004-11300-041867FM-12+074799999V0200901N00461007501CN0200001N9+02331+01911101471ADDAA106000091AG10999GF108991081051008001999999KA1240N+01991MA1999999093131MD1999999+0031REMSYN017333   20199 58003
0096831820999991990051018004-11300-041867FM-12+074799999V0200901N00261220001CN0200001N9+02991+02011100951ADDAA106000091AG10999GF104991031021008001051001MA1999999092671MD1999999-0071REMSYN011333   59007
0115831820999991990051100004-11300-041867FM-12+074799999V0201401N00361220001CN9999999N9+02291+01791101261ADDAA106000091AG10999GF101991011001017501051001KA1240M+03061MA1999999092931MD1999999+0021REMSYN017333   10306 58002
0115831820999991990051112004-11300-041867FM-12+074799999V0200901N00461007501CN0040001N9+02481+01901101421ADDAA106000091AG10999GF107991071051008001001001KA1240N+01961MA1999999093091MD1999999-0041REMSYN017333   20196 59004
0096831820999991990051118004-11300-041867FM-12+074799999V0203601N00101220001CN0200001N9+03131+01891100841ADDAA106000091AG10999GF104991041021008001001001MA1999999092601MD1999999-0071REMSYN011333   59007
0100831820999991990051200004-11300-041867FM-12+074799999V0200901N00311220001CN9999999N9+02401+01591101301ADDAA106000091AG10999GF100991001001999999001001KA1240M+03191MD1999999+0061REMSYN017333   10319 58006
0115831820999991990051212004-11300-041867FM-12+074799999V0200901N00211220001CN0040001N9+02521+02001101451ADDAA106000091AG10999GF101991011011012501001001KA1240N+01781MA1999999093091MD1999999+0001REMSYN017333   20178 58000
0137831820999991990051300004-11300-041867FM-12+074799999V0200901N00361220001CN9999999N9+02611+01651101141ADDAA106000091AG10999AY101061AY201061GF102991021001017501051001KA1240M+03281MA1999999092861MD1999999-0131MW1131REMSYN017333   10328 59013
0137831820999991990051312004-11300-041867FM-12+074799999V0200901N00461220001CN0020001N9+02611+01991101371ADDAA106000091AG10999AY101061AY201061GF104991031021004501001011KA1240N+02021MA1999999093081MD1999999-0011MW1051REMSYN017333   20202 59001
0096831820999991990051318004-11300-041867FM-12+074799999V0200901N00411220001CN0100001N9+03071+02081100991ADDAA106000091AG10999GF102991021021008001001011MA1999999092741MD1999999+0131REMSYN011333   58013
0137831820999991990051400004-11300-041867FM-12+074799999V0201401N00361220001CN9999999N9+02361+01801101271ADDAA106000091AG10999AY101061AY201061GF101991011041008001001001KA1240M+03161MA1999999092971MD1999999+0111MW1131REMSYN017333   10316 58011
0115831820999991990051412004-11300-041867FM-12+074799999V0201401N00671007501CN0200001N9+02391+01871101521ADDAA106000091AG10999GF106991061021008001001001KA1240N+02001MA1999999093181MD1999999+0101REMSYN017333   20200 58010
0096831820999991990051418004-11300-041867FM-12+074799999V0201401N00461007501CN0200001N9+02711+01831101251ADDAA106000091AG10999GF107991071051008001001001MA1999999092941MD1999999+0201REMSYN011333   58020
0115831820999991990051500004-11300-041867FM-12+074799999V0201401N00461220001CN9999999N9+02291+01811101951ADDAA106000091AG10999GF104991001001999999001011KA1240M+02801MA1999999093111MD1999999+0141REMSYN017333   10280 58014
0115831820999991990051512004-11300-041867FM-12+074799999V0201401N00511007501CN0200001N9+02361+01991101641ADDAA106000091AG10999GF107991071051008001001001KA1240N+02061MA1999999093281MD1999999+0101REMSYN017333   20206 58010
0100831820999991990051518004-11300-041867FM-12+074799999V0201401N00621007501CN0200001N9+02751+01891101261ADDAA106000091AG10999GF107991061021008001051001MD1999999+0011REMSYN011333   58001EQDQ01+091953APOSP 
0115831820999991990051600004-11300-041867FM-12+074799999V0201401N00511220001CN9999999N9+02211+01691101451ADDAA106000091AG10999GF102991001001999999001011KA1240M+02821MA1999999093101MD1999999-0011REMSYN017333   10282 59001
0115831820999991990051612004-11300-041867FM-12+074799999V0200901N00571007501CN0100001N9+02391+01781101701ADDAA106000091AG10999GF106991061021008001001001KA1240N+01821MA1999999093331MD1999999+0051REMSYN017333   20182 58005
0100831820999991990051618004-11300-041867FM-12+074799999V0201401N00101220001CN0200001N9+02781+02521101131ADDAA106000091AG10999GF104991021021008001011001MD1999999-0061REMSYN011333   59006EQDQ01+100553APOSP 
0115831820999991990051700004-11300-041867FM-12+074799999V0201401N00311012001CN9999999N9+02271+01751101401ADDAA106000091AG10999GF107991071081008001001001KA1240M+03121MA1999999093061MD1999999-0041REMSYN017333   10312 59004
0115831820999991990051712004-11300-041867FM-12+074799999V0200901N00671220001CN0040001N9+02551+01811101681ADDAA106000091AG10999GF102991021021008001001011KA1240N+01861MA1999999093331MD1999999+0001REMSYN017333   20186 58000
0096831820999991990051718004-11300-041867FM-12+074799999V0200501N00361220001CN0100001N9+03071+01421101151ADDAA106000091AG10999GF102991011021008001001011MA1999999092871MD1999999-0011REMSYN011333   59001
0115831820999991990051812004-11300-041867FM-12+074799999V0200901N00311220001CN0020001N9+02461+01881101631ADDAA106000091AG10999GF100991001001999999001001KA1240N+01641MA1999999093281MD1999999-0051REMSYN017333   20164 59005
0096831820999991990051818004-11300-041867FM-12+074799999V0201801N00261220001CN0100001N9+03211+01511101031ADDAA106000091AG10999GF102991011021008001001011MA1999999092761MD1999999-0111REMSYN011333   59011
0115831820999991990051900004-11300-041867FM-12+074799999V0200901N00261220001CN9999999N9+02401+01291101231ADDAA106000091AG10999GF100991001001999999001001KA1240M+03281MA1999999092931MD1999999-0131REMSYN017333   10328 59013
0115831820999991990051912004-11300-041867FM-12+074799999V0203601N00151220001CN0100001N9+02731+01651101431ADDAA106000091AG10999GF100991001001999999001001KA1240N+01721MA1999999093131MD1999999-0151REMSYN017333   20172 59015
0096831820999991990051918004-11300-041867FM-12+074799999V0201801N00151220001CN0100001N9+03151+01501101001ADDAA106000091AG10999GF100991001001999999001001MA1999999092741MD1999999+0231REMSYN011333   58023
0115831820999991990052000004-11300-041867FM-12+074799999V0200901N00311220001CN9999999N9+02431+01151101291ADDAA106000091AG10999GF100991001001999999001001KA1240M+03311MA1999999093011MD1999999+0081REMSYN017333   10331 58008
0137831820999991990052012004-11300-041867FM-12+074799999V0200901N00461045001CN0010001N9+02471+01991101701ADDAA106000091AG10999AY111061AY211061GF106991041021008001051011KA1240N+02051MA1999999093351MD1999999+0221MW1051REMSYN017333   20205 58022
0096831820999991990052018004-11300-041867FM-12+074799999V0200901N00411220001CN0100001N9+03011+01611101241ADDAA106000091AG10999GF104991031021008001001011MA1999999092951MD1999999+0211REMSYN011333   58021
0115831820999991990052100004-11300-041867FM-12+074799999V0200901N00411220001CN9999999N9+02411+01631101601ADDAA106000091AG10999GF100991001001999999001001KA1240M+03081MA1999999093261MD1999999+0251REMSYN017333   10308 58025
0115831820999991990052112004-11300-041867FM-12+074799999V0200901N00511007501CN0100001N9+02251+01731101861ADDAA106000091AG10999GF108991081061008001999999KA1240N+01851MA1999999093481MD1999999+0131REMSYN017333   20185 58013
0096831820999991990052118004-11300-041867FM-12+074799999V0200901N00511007501CN0100001N9+02771+01721101331ADDAA106000091AG10999GF106991051021008001051001MA1999999093011MD1999999+0061REMSYN011333   58006
0115831820999991990052200004-11300-041867FM-12+074799999V0200901N00461220001CN9999999N9+02191+01671101671ADDAA106000091AG10999GF100991001001999999001001KA1240M+02871MA1999999093281MD1999999+0021REMSYN017333   10287 58002
0115831820999991990052212004-11300-041867FM-12+074799999V0200901N00461007501CN0100001N9+02351+01691101651ADDAA106000091AG10999GF106991061021008001001001KA1240N+01741MA1999999093271MD1999999-0211REMSYN017333   20174 59021
0096831820999991990052218004-11300-041867FM-12+074799999V0200501N00361220001CN0200001N9+02971+01531101131ADDAA106000091AG10999GF104991021021008001051011MA1999999092831MD1999999-0181REMSYN011333   59018
0115831820999991990052312004-11300-041867FM-12+074799999V0201001N02521220001CN0040001N9+02401+01911101741ADDAA106000091AG10999GF108991011011008001001011KA1240N+01741MA1999999093381MD1999999+0111REMSYN017333   20174 58011
0096831820999991990052318004-11300-041867FM-12+074799999V0200901N00571220001CN0100001N9+02831+01551101411ADDAA106000091AG10999GF108991011021008001001011MA1999999093081MD1999999+0251REMSYN011333   58025
0115831820999991990052412004-11300-041867FM-12+074799999V0201401N00671007501CN0100001N9+02251+01691101991ADDAA106000091AG10999GF108991081051008001999999KA1240N+01981MA1999999093601MD1999999+0221REMSYN017333   20198 58022
0096831820999991990052418004-11300-041867FM-12+074799999V0201401N00571007501CN0200001N9+02531+01691101651ADDAA106000091AG10999GF107991051051008001051001MA1999999093291MD1999999+0211REMSYN011333   58021
0115831820999991990052500004-11300-041867FM-12+074799999V0201401N00511220001CN9999999N9+02061+01701101921ADDAA106000091AG10999GF102991021001017501051001KA1240M+02641MA1999999093511MD1999999+0161REMSYN017333   10264 58016
0115831820999991990052512004-11300-041867FM-12+074799999V0201401N00821007501CN0200001N9+02161+01781102061ADDAA106000091AG10999GF106991061051008001001001KA1240N+01751MA1999999093631MD1999999+0021REMSYN017333   20175 58002
0096831820999991990052518004-11300-041867FM-12+074799999V0200901N00571007501CN0100001N9+02591+01721101721ADDAA106000091AG10999GF107991051021008001051001MA1999999093331MD1999999+0041REMSYN011333   58004
0115831820999991990052600004-11300-041867FM-12+074799999V0201401N00461220001CN9999999N9+02091+01701101881ADDAA106000091AG10999GF104991041001017501051001KA1240M+02601MA1999999093401MD1999999-0041REMSYN017333   10260 59004
0154831820999991990052612004-11300-041867FM-12+074799999V0201401N00621004201CN0040001N9+02091+01621101961ADDAA124000491AA299000591AG10999AY161061AY221061GF107991071061004501001001KA1240N+01831MA1999999093541MD1999999-0091MW1031REMSYN023333   20183 59009 69944
0096831820999991990052618004-11300-041867FM-12+074799999V0201401N00511004201CN0100001N9+02451+01811101571ADDAA106000091AG10999GF108991051071004501051011MA1999999093191MD1999999-0141REMSYN011333   59014
0143831820999991990052700004-11300-041867FM-12+074799999V0201401N00411007501CN9999999N9+02071+01721101801ADDAA106000191AG10999AY161061AY221061GF107991071021008001001001KA1240M+02501MA1999999093391MD1999999-0081MW1031REMSYN023333   10250 59008 69911
0121831820999991990052712004-11300-041867FM-12+074799999V0201401N00461004201CN0100001N9+02111+01741101891ADDAA124000191AG10999GF108991081071004501999999KA1240N+01721MA1999999093471MD1999999-0071REMSYN023333   20172 59007 69914
0135831820999991990052718004-11300-041867FM-12+074799999V0200901N00621220001CN0200001N9+02661+01851101521ADDAA106000291AA299000391AG10999AY161061AY221061GF104991041021008001001001MA1999999093161MD1999999-0031MW1031REMSYN017333   59003 69921
0115831820999991990052800004-11300-041867FM-12+074799999V0201401N00411220001CN9999999N9+01921+01531101841ADDAA106000091AG10999GF100991001001999999001001KA1240M+02781MA1999999093411MD1999999+0021REMSYN017333   10278 58002
0132831820999991990052812004-11300-041867FM-12+074799999V0200901N00671007501CN0200001N9+02391+01821101881ADDAA124000291AA299000391AG10999GF106991061021008001001001KA1240N+01661MA1999999093471MD1999999+0001REMSYN023333   20166 58000 69924
0096831820999991990052818004-11300-041867FM-12+074799999V0200901N00621045001CN0100001N9+02961+01551101471ADDAA106000091AG10999GF106991011021008001051011MA1999999093121MD1999999-0041REMSYN011333   59004
0115831820999991990052900004-11300-041867FM-12+074799999V0201401N00411220001CN9999999N9+02171+01591101691ADDAA106000091AG10999GF106991001001999999001011KA1240M+02841MA1999999093321MD1999999+0091REMSYN017333   10284 58009
0115831820999991990052912004-11300-041867FM-12+074799999V0201401N00511007501CN0040001N9+02301+01721101861ADDAA106000091AG10999GF108991081061008001999999KA1240N+01661MA1999999093471MD1999999+0001REMSYN017333   20166 58000
0096831820999991990052918004-11300-041867FM-12+074799999V0209999999999004201CN0100001N9+02621+01701999999ADDAA106000091AG10999GF107991071071004501001001MA1999999093191MD1999999+0071REMSYN011333   58007
0154831820999991990053000004-11300-041867FM-12+074799999V0201401N00461045001CN9999999N9+02001+01851101781ADDAA106000691AA299000591AG10999AY161061AY211061GF108991041071004501011011KA1240M+02751MA1999999093381MD1999999+0061MW1021REMSYN023333   10275 58006 69961
0096831820999991990053018004-11300-041867FM-12+074799999V0200901N00721220001CN0100001N9+02631+01401101501ADDAA106000091AG10999GF104991031021008001051001MA1999999093141MD1999999-0051REMSYN011333   59005
0115831820999991990053100004-11300-041867FM-12+074799999V0201401N00461220001CN9999999N9+02121+01551101721ADDAA106000091AG10999GF100991001001999999001001KA1240M+02761MA1999999093321MD1999999-0061REMSYN017333   10276 59006
0096831820999991990053118004-11300-041867FM-12+074799999V0200901N00461007501CN0100001N9+02531+01581999999ADDAA106000091AG10999GF108991081051008001999999MA1999999093041MD1999999-0051REMSYN011333   59005
0115831820999991990060100004-11300-041867FM-12+074799999V0201401N00311220001CN9999999N9+02021+01801101711ADDAA106000091AG10999GF102991021001017501051011KA1240M+02541MA1999999093321MD1999999+0001REMSYN017333   10254 58000
0115831820999991990060112004-11300-041867FM-12+074799999V0209999999999007501CN0100001N9+02321+01581101791ADDAA106000091AG10999GF105991051021008001001001KA1240N+01661MA1999999093391MD1999999-0051REMSYN017333   20166 59005
0096831820999991990060118004-11300-041867FM-12+074799999V0201401N00621045001CN0100001N9+02521+01631101491ADDAA106000091AG10999GF107991031021008001051001MA1999999093121MD1999999+0031REMSYN011333   58003
0115831820999991990060200004-11300-041867FM-12+074799999V0200901N00511220001CN9999999N9+02061+01541101661ADDAA106000091AG10999GF103991031001017501051001KA1240M+02711MA1999999093271MD1999999-0051REMSYN017333   10271 59005
0115831820999991990060212004-11300-041867FM-12+074799999V0201401N00671007501CN0100001N9+02241+01711101801ADDAA106000091AG10999GF107991071051008001001001KA1240N+01831MA1999999093401MD1999999+0011REMSYN017333   20183 58001
0096831820999991990060218004-11300-041867FM-12+074799999V0200901N00721007501CN0100001N9+02491+01701101521ADDAA106000091AG10999GF106991051051008001051001MA1999999093151MD1999999+0031REMSYN011333   58003
0115831820999991990060312004-11300-041867FM-12+074799999V0201401N00771007501CN0100001N9+02261+01711101891ADDAA106000091AG10999GF107991071051008001001001KA1240N+01601MA1999999093481MD1999999+0081REMSYN017333   20160 58008
0096831820999991990060318004-11300-041867FM-12+074799999V0200901N00571045001CN0100001N9+02521+01611101691ADDAA106000091AG10999GF106991021021008001051001MA1999999093291MD1999999+0141REMSYN011333   58014
0115831820999991990060400004-11300-041867FM-12+074799999V0201401N00571220001CN9999999N9+02071+01601101781ADDAA106000091AG10999GF108991001001999999001011KA1240M+02641MA1999999093381MD1999999+0231REMSYN017333   10264 58023
0115831820999991990060412004-11300-041867FM-12+074799999V0201401N00771220001CN0100001N9+02111+01531101771ADDAA106000091AG10999GF102991021021008001001001KA1240N+01541MA1999999093361MD1999999-0121REMSYN017333   20154 59012
0096831820999991990060418004-11300-041867FM-12+074799999V0200901N00511007501CN0100001N9+02641+01511101401ADDAA106000091AG10999GF105991051021008001001001MA1999999093041MD1999999-0251REMSYN011333   59025
0115831820999991990060500004-11300-041867FM-12+074799999V0201401N00361220001CN9999999N9+02001+01461101661ADDAA106000091AG10999GF100991001001999999001001KA1240M+02761MA1999999093251MD1999999-0131REMSYN017333   10276 59013
0115831820999991990060512004-11300-041867FM-12+074799999V0200901N00461220001CN0100001N9+02161+01471101881ADDAA106000091AG10999GF102991021021008001001001KA1240N+01381MA1999999093461MD1999999+0101REMSYN017333   20138 58010
0159831820999991990060518004-11300-041867FM-12+074799999V0200901N00101045001CN0100001N9+02511+02391101391ADDAA106005091AG10999AY161061AY261061GF108991021071008001021999MA1999999093091MD1999999+0001MW1601REMSYN017333   58000 60051EQDQ01+100793APOSP Q02+999990APOSP 
0115831820999991990060600004-11300-041867FM-12+074799999V0200901N00261220001CN9999999N9+02091+01761101701ADDAA106000091AG10999GF106991031001017501051011KA1240M+02861MA1999999093301MD1999999+0051REMSYN017333   10286 58005
0115831820999991990060612004-11300-041867FM-12+074799999V0201401N00461004201CN0100001N9+02141+01801101871ADDAA106000091AG10999GF108991081071004501999999KA1240N+01701MA1999999093451MD1999999-0011REMSYN017333   20170 59001
0121831820999991990060712004-11300-041867FM-12+074799999V0201401N00621220001CN0100001N9+02271+01641101801ADDAA124004091AG10999GF100991001001999999001001KA1240N+01801MA1999999093391MD1999999-0061REMSYN023333   20180 59006 60044
0115831820999991990060812004-11300-041867FM-12+074799999V0201401N00571045001CN0100001N9+02291+01661101701ADDAA106000091AG10999GF108991031021008001051011KA1240N+01881MA1999999093321MD1999999-0071REMSYN017333   20188 59007
0115831820999991990061112004-11300-041867FM-12+074799999V0201401N00671220001CN0100001N9+02241+01571101791ADDAA106000091AG10999GF101991011021008001001001KA1240N+01641MA1999999093401MD1999999-0011REMSYN017333   20164 59001
0096831820999991990061118004-11300-041867FM-12+074799999V0200901N00571220001CN0100001N9+02801+01351101421ADDAA106000091AG10999GF101991011011012501001001MA1999999093061MD1999999+0111REMSYN011333   58011
0115831820999991990061212004-11300-041867FM-12+074799999V0201401N00871007501CN0100001N9+02221+01551101971ADDAA106000091AG10999GF107991071051008001001001KA1240N+01601MA1999999093541MD1999999+0141REMSYN017333   20160 58014
0096831820999991990061218004-11300-041867FM-12+074799999V0201401N00671220001CN0100001N9+02731+01491101541ADDAA106000091AG10999GF103991031021008001001001MA1999999093171MD1999999+0111REMSYN011333   58011
0115831820999991990061312004-11300-041867FM-12+074799999V0201401N00721220001CN0100001N9+02081+01561101971ADDAA106000091AG10999GF103991031051008001001001KA1240N+01661MA1999999096541MD1999999+0001REMSYN017333   20166 58000
0062831820999991990061400004-11300-041867FM-12+074799999V0201401N00261007501CN9999999N9+01971+01661101751ADDAA106000091AG10999GF107991071051008001001001MA1999999093342
0062831820999991990061412004-11300-041867FM-12+074799999V0201401N00511007501CN0100001N9+02131+01641101881ADDAA106000091AG10999GF108991081051008001999999MA1999999093451
0115831820999991990061512004-11300-041867FM-12+074799999V0201401N00511220001CN0100001N9+02211+01511101821ADDAA106000091AG10999GF101991011021008001001001KA1240N+01761MA1999999093401MD1999999-0051REMSYN017333   20176 59005
0096831820999991990061518004-11300-041867FM-12+074799999V0200901N00211220001CN0100001N9+02771+01481101311ADDAA106000091AG10999GF103991031021008001001001MA1999999092971MD1999999-0121REMSYN011333   59012
0115831820999991990061600004-11300-041867FM-12+074799999V0200901N00411220001CN9999999N9+02081+01371101611ADDAA106000091AG10999GF100991001001999999001001KA1240M+02941MA1999999093221MD1999999-0161REMSYN017333   10294 59016
0115831820999991990061612004-11300-041867FM-12+074799999V0200901N00411220001CN0100001N9+02331+01651101771ADDAA106000091AG10999GF102991011021008001001011KA1240N+01561MA1999999093381MD1999999-0021REMSYN017333   20156 59002
0115831820999991990061700004-11300-041867FM-12+074799999V0200901N00511220001CN9999999N9+02151+01571101691ADDAA106000091AG10999GF108991011001017501051011KA1240M+02911MA1999999093311MD1999999+0091REMSYN017333   10291 58009
0115831820999991990061712004-11300-041867FM-12+074799999V0201401N00571220001CN0100001N9+02251+01621101891ADDAA106000091AG10999GF108991011011012501001011KA1240N+01601MA1999999093491MD1999999+0111REMSYN017333   20160 58011
0115831820999991990061800004-11300-041867FM-12+074799999V0200901N00311220001CN9999999N9+02021+01641101801ADDAA106000091AG10999GF100991001001999999001001KA1240M+02921MA1999999093401MD1999999+0091REMSYN017333   10292 58009
0115831820999991990061812004-11300-041867FM-12+074799999V0200901N00671007501CN0100001N9+02191+01561101991ADDAA106000091AG10999GF107991071051008001001001KA1240N+01561MA1999999093561MD1999999+0071REMSYN017333   20156 58007
0096831820999991990061818004-11300-041867FM-12+074799999V0200901N00571220001CN0100001N9+02711+01411101541ADDAA106000091AG10999GF101991011021008001001001MA1999999093161MD1999999+0061REMSYN011333   58006
0115831820999991990061900004-11300-041867FM-12+074799999V0200901N00411220001CN9999999N9+02031+01581101831ADDAA106000091AG10999GF100991001001999999001001KA1240M+02761MA1999999093421MD1999999+0021REMSYN017333   10276 58002
0115831820999991990061912004-11300-041867FM-12+074799999V0201401N00511007501CN0100001N9+02201+01511101961ADDAA106000091AG10999GF107991071051008001001001KA1240N+01681MA1999999093541MD1999999-0021REMSYN017333   20168 59002
0115831820999991990062000004-11300-041867FM-12+074799999V0201401N00311220001CN9999999N9+01971+01631101891ADDAA106000091AG10999GF102991001001999999001011KA1240M+02711MA1999999093471MD1999999+0051REMSYN017333   10271 58005
0115831820999991990062012004-11300-041867FM-12+074799999V0200901N00461007501CN0100001N9+02211+01601102031ADDAA106000091AG10999GF106991061051008001001001KA1240N+01741MA1999999093601MD1999999+0061REMSYN017333   20174 58006
0096831820999991990062018004-11300-041867FM-12+074799999V0200901N00361220001CN0100001N9+02741+01611101571ADDAA106000091AG10999GF102991021021008001001001MA1999999093201MD1999999-0021REMSYN011333   59002
0115831820999991990062100004-11300-041867FM-12+074799999V0201401N00461220001CN9999999N9+02061+01701101801ADDAA106000091AG10999GF100991001001999999001001KA1240M+02841MA1999999093401MD1999999-0071REMSYN017333   10284 59007
0096831820999991990062118004-11300-041867FM-12+074799999V0200901N00151220001CN0100001N9+02941+01561101331ADDAA106000091AG10999GF103991031021008001001001MA1999999092991MD1999999-0211REMSYN011333   59021
0115831820999991990062200004-11300-041867FM-12+074799999V0200901N00361220001CN9999999N9+02201+01581101601ADDAA106000091AG10999GF100991001001999999001001KA1240M+03021MA1999999093231MD1999999-0171REMSYN017333   10302 59017
0115831820999991990062212004-11300-041867FM-12+074799999V0201401N00311220001CN0100001N9+02391+01681101661ADDAA106000091AG10999GF108991001001999999001011KA1240N+01661MA1999999093291MD1999999-0161REMSYN017333   20166 59016
0096831820999991990062218004-11300-041867FM-12+074799999V0200901N00151220001CN0100001N9+02991+01471101231ADDAA106000091AG10999GF104991021021008001051011MA1999999092911MD1999999-0081REMSYN011333   59008
0115831820999991990062312004-11300-041867FM-12+074799999V0201401N00311220001CN0100001N9+02281+01701101681ADDAA106000091AG10999GF103991001001999999001041KA1240N+01661MA1999999093301MD1999999+0011REMSYN017333   20166 58001
0096831820999991990062318004-11300-041867FM-12+074799999V0201401N00571220001CN0040001N9+02911+01521101271ADDAA106000091AG10999GF108991031021008001001011MA1999999092951MD1999999+0041REMSYN011333   58004
0115831820999991990062400004-11300-041867FM-12+074799999V0200901N00311220001CN9999999N9+02131+01571101491ADDAA106000091AG10999GF108991001001999999001011KA1240M+02981MA1999999093121MD1999999-0011REMSYN017333   10298 59001
0115831820999991990062412004-11300-041867FM-12+074799999V0200901N00571220001CN0100001N9+02231+01531101721ADDAA106000091AG10999GF108991011021008001001011KA1240N+01701MA1999999093331MD1999999+0031REMSYN017333   20170 58003
0096831820999991990062418004-11300-041867FM-12+074799999V0200901N00461220001CN0100001N9+02791+01411101341ADDAA106000091AG10999GF108991011021008001001041MA1999999093001MD1999999+0051REMSYN011333   58005
0115831820999991990062500004-11300-041867FM-12+074799999V0201401N00311220001CN9999999N9+02031+01621101601ADDAA106000091AG10999GF108991001001999999001011KA1240M+02861MA1999999093211MD1999999+0091REMSYN017333   10286 58009
0115831820999991990062512004-11300-041867FM-12+074799999V0201801N00311007501CN0100001N9+02231+01781101761ADDAA106000091AG10999GF108991071051008001001011KA1240N+01801MA1999999093361MD1999999+0031REMSYN017333   20180 58003
0096831820999991990062518004-11300-041867FM-12+074799999V0200901N00461007501CN0100001N9+02471+01681101441ADDAA106000091AG10999GF108991081051008001999999MA1999999093081MD1999999+0081REMSYN011333   58008
0096831820999991990062618004-11300-041867FM-12+074799999V0201401N00211220001CN0100001N9+02971+01571101291ADDAA106000091AG10999GF108991031021008001001011MA1999999092971MD1999999-0111REMSYN011333   59011
0115831820999991990062712004-11300-041867FM-12+074799999V0201401N00511007501CN0100001N9+02141+01571101781ADDAA106000091AG10999GF108991081051008001999999KA1240N+01661MA1999999093381MD1999999-0011REMSYN017333   20166 59001
0096831820999991990062718004-11300-041867FM-12+074799999V0200901N00411220001CN0100001N9+02801+01391101331ADDAA106000091AG10999GF102991011011012501001011MA1999999092991MD1999999+0021REMSYN011333   58002
0115831820999991990062800004-11300-041867FM-12+074799999V0200901N00311220001CN9999999N9+02081+01451101551ADDAA106000091AG10999GF100991001001999999001001KA1240M+02821MA1999999093151MD1999999-0061REMSYN017333   10282 59006
0115831820999991990062812004-11300-041867FM-12+074799999V0201401N00721007501CN0100001N9+02151+01551101761ADDAA106000091AG10999GF107991071051008001001001KA1240N+01761MA1999999093351MD1999999-0031REMSYN017333   20176 59003
0096831820999991990062818004-11300-041867FM-12+074799999V0201401N00571007501CN0100001N9+02431+01671101391ADDAA106000091AG10999GF108991081051008001999999MA1999999093021MD1999999+0031REMSYN011333   58003
0115831820999991990062900004-11300-041867FM-12+074799999V0201401N00461007501CN9999999N9+02021+01641101681ADDAA106000091AG10999GF108991081051008001999999KA1240M+02561MA1999999093281MD1999999+0131REMSYN017333   10256 58013
0115831820999991990062912004-11300-041867FM-12+074799999V0201401N00571007501CN0100001N9+02111+01641101861ADDAA106000091AG10999GF107991071051008001001001KA1240N+01681MA1999999093441MD1999999+0091REMSYN017333   20168 58009
0115831820999991990062918004-11300-041867FM-12+074799999V0200901N00511045001CN0100001N9+02591+01581999999ADDAA106000091AG10999GF106991031021008001051001MA1999999093161MD1011532+0141REMSYN011333   58014EQDQ01+001532APC3  
0115831820999991990063000004-11300-041867FM-12+074799999V0201401N00361220001CN9999999N9+01921+01591101761ADDAA106000091AG10999GF102991021001017501051001KA1240M+02641MA1999999093341MD1999999+0061REMSYN017333   10264 58006
0115831820999991990063012004-11300-041867FM-12+074799999V0201401N00571007501CN0100001N9+02271+01621101771ADDAA106000091AG10999GF105991051051008001001001KA1240N+01681MA1999999093361MD1999999-0081REMSYN017333   20168 59008
0115831820999991990070100004-11300-041867FM-12+074799999V0201401N00361220001CN9999999N9+02131+01641101671ADDAA106000091AG10999GF105991041001017501051011KA1240M+02771MA1999999093281MD1999999-0061REMSYN017333   10277 59006
0115831820999991990070112004-11300-041867FM-12+074799999V0200901N00361007501CN0100001N9+02191+01741101811ADDAA106000091AG10999GF106991061021008001001001KA1240N+01761MA1999999093411MD1999999+0051REMSYN017333   20176 58005
0096831820999991990070118004-11300-041867FM-12+074799999V0200901N00571007501CN0200001N9+02711+01691101351ADDAA106000091AG10999GF107991051021008001051001MA1999999093011MD1999999+0021REMSYN011333   58002
0115831820999991990070212004-11300-041867FM-12+074799999V0200901N00621007501CN0100001N9+02171+01861101791ADDAA106000091AG10999GF108991081051008001999999KA1240N+01861MA1999999093391MD1999999-0021REMSYN017333   20186 59002
0096831820999991990070218004-11300-041867FM-12+074799999V0200901N005719999999N0200001N9+02621+01761101441ADDAA106000091AG10999GF108991041061008001999999MA1999999093091MD1999999+0081REMSYN011333   58008
0115831820999991990070300004-11300-041867FM-12+074799999V0200901N00311012001CN9999999N9+02201+01691101611ADDAA106000091AG10999GF108991051081008001051999KA1240M+02741MA1999999093231MD1999999+0011REMSYN017333   10274 58001
0115831820999991990070312004-11300-041867FM-12+074799999V0200901N00671220001CN0100001N9+02241+01601101851ADDAA106000091AG10999GF108991041051008001001011KA1240N+01841MA1999999093451MD1999999+0061REMSYN017333   20184 58006
0096831820999991990070318004-11300-041867FM-12+074799999V0201401N00511220001CN0100001N9+02831+01651101431ADDAA106000091AG10999GF102991011011012501001011MA1999999093101MD1999999+0011REMSYN011333   58001
0115831820999991990070400004-11300-041867FM-12+074799999V0200901N00361012001CN9999999N9+02171+01541101701ADDAA106000091AG10999GF107991071081008001001001KA1240M+02841MA1999999093311MD1999999+0081REMSYN017333   10284 58008
0115831820999991990070412004-11300-041867FM-12+074799999V0201401N00571220001CN0100001N9+02401+01731101781ADDAA106000091AG10999GF102991011011012501001011KA1240N+01781MA1999999093401MD1999999-0051REMSYN017333   20178 59005
0115831820999991990070500004-11300-041867FM-12+074799999V0201401N00311220001CN9999999N9+02211+01651101651ADDAA106000091AG10999GF102991001001999999001011KA1240M+02931MA1999999093281MD1999999-0031REMSYN017333   10293 59003
0115831820999991990070512004-11300-041867FM-12+074799999V0200901N00311045001CN0100001N9+02381+01801101701ADDAA106000091AG10999GF106991011011012501041011KA1240N+01801MA1999999093331MD1999999-0071REMSYN017333   20180 59007
0118831820999991990070518004-11300-041867FM-12+074799999V0200901N00311045001CN0100001N9+02801+01631101211ADDAA106000091AG10999AY121061AY221061GF106991031021008001051011MA1999999092901MD1999999-0111MW1151REMSYN011333   59011
0143831820999991990070600004-11300-041867FM-12+074799999V0200901N00311004201CN9999999N9+02121+01841101601ADDAA106012091AG10999AY161061AY221061GF108991081071004501999999KA1240M+02971MA1999999093231MD1999999-0051MW1021REMSYN023333   10297 59005 60121
0106831820999991990070612004-11300-041867FM-12+074799999V0201401N00411004201CN0100001N9+02111+01881101741ADDAG10999AY121061AY221061GF108991081071004501999999KA1240N+01911MA1999999093341MW1611REMSYN011333   20191
0096831820999991990070618004-11300-041867FM-12+074799999V0201801N00361004201CN0020001N9+02261+01751101461ADDAA106000091AG10999GF108991081071004501999999MA1999999093081MD1999999+0181REMSYN011333   58018
0115831820999991990070700004-11300-041867FM-12+074799999V0201401N00461007501CN9999999N9+02031+01541101701ADDAA106000091AG10999GF108991081061008001999999KA1240M+02321MA1999999093291MD1999999+0091REMSYN017333   10232 58009
0115831820999991990070712004-11300-041867FM-12+074799999V0201401N00571007501CN0200001N9+02001+01541101861ADDAA106000091AG10999GF108991081051008001999999KA1240N+01671MA1999999093431MD1999999+0091REMSYN017333   20167 58009
0118831820999991990070718004-11300-041867FM-12+074799999V0200901N00411045001CN0200001N9+02301+01611101541ADDAA106000091AG10999AY121061AY221061GF107991041021008001051001MA1999999093141MD1999999+0061MW1151REMSYN011333   58006
0115831820999991990070800004-11300-041867FM-12+074799999V0201401N00411045001CN9999999N9+01951+01531101731ADDAA106000091AG10999GF108991031021008001051001KA1240M+02341MA1999999093311MD1999999+0021REMSYN017333   10234 58002
0115831820999991990070812004-11300-041867FM-12+074799999V0200901N00461220001CN0100001N9+02251+01671101771ADDAA106000091AG10999GF101991011001017501041001KA1240N+01601MA1999999093361MD1999999+0071REMSYN017333   20160 58007
0096831820999991990070818004-11300-041867FM-12+074799999V0209999999999007501CN0100001N9+02831+01511101301ADDAA106000091AG10999GF107991061021008001061001MA1999999092961MD1999999-0081REMSYN011333   59008
0115831820999991990070900004-11300-041867FM-12+074799999V0209999999999220001CN9999999N9+02051+01561101561ADDAA106000091AG10999GF101991011011012501001001KA1240M+02901MA1999999093171MD1999999-0141REMSYN017333   10290 59014
0115831820999991990070912004-11300-041867FM-12+074799999V0209999999999220001CN0100001N9+02211+01671101761ADDAA106000091AG10999GF102991021021008001001001KA1240N+01561MA1999999093361MD1999999+0001REMSYN017333   20156 58000
0096831820999991990070918004-11300-041867FM-12+074799999V0209999999999220001CN0100001N9+02871+01651101191ADDAA106000091AG10999GF102991021021008001001001MA1999999092861MD1999999-0101REMSYN011333   59010
0115831820999991990071000004-11300-041867FM-12+074799999V0209999999999220001CN9999999N9+02151+01431101461ADDAA106000091AG10999GF100991001001999999001001KA1240M+02961MA1999999093041MD1999999-0081REMSYN017333   10296 59008
0115831820999991990071012004-11300-041867FM-12+074799999V0209999999999220001CN0100001N9+02281+01731101711ADDAA106000091AG10999GF100991001001999999001001KA1240N+01471MA1999999093321MD1999999-0041REMSYN017333   20147 59004
0115831820999991990071100004-11300-041867FM-12+074799999V0209999999999220001CN9999999N9+02131+01231101471ADDAA106000091AG10999GF100991001001999999001001KA1240M+03041MA1999999093101MD1999999+0011REMSYN017333   10304 58001
0115831820999991990071112004-11300-041867FM-12+074799999V0209999999999220001CN0100001N9+02281+01701101751ADDAA106000091AG10999GF100991001001999999001001KA1240N+01521MA1999999093361MD1999999+0041REMSYN017333   20152 58004
0096831820999991990071118004-11300-041867FM-12+074799999V0209999999999220001CN0100001N9+03021+01351101271ADDAA106000091AG10999GF104991041021008001001001MA1999999092941MD1999999+0071REMSYN011333   58007
0115831820999991990071200004-11300-041867FM-12+074799999V0209999999999220001CN9999999N9+02261+01391101591ADDAA106000091AG10999GF101991011001017501031001KA1240M+03101MA1999999093221MD1999999+0121REMSYN017333   10310 58012
0096831820999991990071218004-11300-041867FM-12+074799999V0209999999999220001CN0200001N9+02911+01281101481ADDAA106000091AG10999GF100991001001999999001001MA1999999093131MD1999999+0191REMSYN011333   58019
0115831820999991990071300004-11300-041867FM-12+074799999V0209999999999220001CN9999999N9+02051+01341101821ADDAA106000091AG10999GF100991001001999999001001KA1240M+02961MA1999999093421MD1999999+0201REMSYN017333   10296 58020
0115831820999991990071312004-11300-041867FM-12+074799999V0209999999999220001CN0100001N9+02171+01521101981ADDAA106000091AG10999GF102991021021008001001001KA1240N+01691MA1999999093551MD1999999+0031REMSYN017333   20169 58003
0096831820999991990071318004-11300-041867FM-12+074799999V0209999999999220001CN0100001N9+02631+01531101551ADDAA106000091AG10999GF104991041021008001001001MA1999999093171MD1999999+0041REMSYN011333   58004
0115831820999991990071400004-11300-041867FM-12+074799999V0209999999999220001CN9999999N9+01951+01491101841ADDAA106000091AG10999GF100991001001999999001001KA1240M+02781MA1999999093421MD1999999+0001REMSYN017333   10278 58000
0115831820999991990071412004-11300-041867FM-12+074799999V0209999999999007501CN0100001N9+02101+01551101971ADDAA106000091AG10999GF107991071051008001001001KA1240N+01741MA1999999093541MD1999999-0011REMSYN017333   20174 59001
0096831820999991990071418004-11300-041867FM-12+074799999V0209999999999045001CN0100001N9+02691+01641101441ADDAA106000091AG10999GF105991041021008001041001MA1999999093091MD1999999-0081REMSYN011333   59008
0115831820999991990071500004-11300-041867FM-12+074799999V0209999999999220001CN9999999N9+02031+01561101731ADDAA106000091AG10999GF100991001001999999001001KA1240M+02731MA1999999093321MD1999999-0101REMSYN017333   10273 59010
0115831820999991990071512004-11300-041867FM-12+074799999V0209999999999007501CN0100001N9+02161+01661101811ADDAA106000091AG10999GF108991081051008001999999KA1240N+01731MA1999999093401MD1999999-0141REMSYN017333   20173 59014
0096831820999991990071518004-11300-041867FM-12+074799999V0209999999999007501CN0200001N9+02551+01811101461ADDAA106000091AG10999GF107991071021008001001001MA1999999093101MD1999999+0011REMSYN011333   58001
0115831820999991990071600004-11300-041867FM-12+074799999V0209999999999007501CN9999999N9+02171+01661101681ADDAA106000091AG10999GF107991071021008001001001KA1240M+02631MA1999999093281MD1999999-0041REMSYN017333   10263 59004
0115831820999991990071612004-11300-041867FM-12+074799999V0209999999999007501CN0100001N9+02201+01691101781ADDAA106000091AG10999GF108991081051008001999999KA1240N+01681MA1999999093391MD1999999-0011REMSYN017333   20168 59001
0115831820999991990071618004-11300-041867FM-12+074799999V0209999999999007501CN0100001N9+02631+01561999999ADDAA106000091AG10999GF105991051021008001001001MA1999999092971MD1999999-0111REMSYN011333   59011EQDQ01+091343APOSLP
0115831820999991990071700004-11300-041867FM-12+074799999V0209999999999220001CN9999999N9+01921+01421101561ADDAA106000091AG10999GF100991001001999999001001KA1240M+02701MA1999999093161MD1999999-0121REMSYN017333   10270 59012
0115831820999991990071712004-11300-041867FM-12+074799999V0209999999999220001CN0100001N9+02341+01691101681ADDAA106000091AG10999GF106991001001999999001011KA1240N+01611MA1999999093281MD1999999-0111REMSYN017333   20161 59011
0096831820999991990071718004-11300-041867FM-12+074799999V0209999999999220001CN0100001N9+02871+01551101191ADDAA106000091AG10999GF104991031021008001001011MA1999999092861MD1999999-0131REMSYN011333   59013
0115831820999991990071800004-11300-041867FM-12+074799999V0209999999999220001CN9999999N9+02211+01541101511ADDAA106000091AG10999GF100991001001999999001001KA1240M+02981MA1999999093151MD1999999-0011REMSYN017333   10298 59001
0115831820999991990071812004-11300-041867FM-12+074799999V0209999999999220001CN0100001N9+02411+01751101581ADDAA106000091AG10999GF104991041021008001001001KA1240N+01601MA1999999093221MD1999999-0061REMSYN017333   20160 59006
0096831820999991990071818004-11300-041867FM-12+074799999V0209999999999045001CN0200001N9+03001+01531101091ADDAA106000091AG10999GF106991031021008001061011MA1999999092791MD1999999-0071REMSYN011333   59007
0115831820999991990071900004-11300-041867FM-12+074799999V0209999999999007501CN9999999N9+02401+01551101391ADDAA106000091AG10999GF107991071021008001001001KA1240M+03091MA1999999093011MD1999999-0091REMSYN017333   10309 59009
0115831820999991990071912004-11300-041867FM-12+074799999V0209999999999220001CN0100001N9+02331+01651101531ADDAA106000091AG10999GF100991001001999999001001KA1240N+01601MA1999999093181MD1999999-0041REMSYN017333   20160 59004
0096831820999991990071918004-11300-041867FM-12+074799999V0209999999999220001CN0290001N9+03151+01021101101ADDAA106000091AG10999GF100991001001999999001001MA1999999092811MD1999999+0001REMSYN011333   58000
0115831820999991990072000004-11300-041867FM-12+074799999V0209999999999220001CN9999999N9+02171+01251101391ADDAA106000091AG10999GF100991001001999999001001KA1240M+03171MA1999999093041MD1999999-0021REMSYN017333   10317 59002
0115831820999991990072012004-11300-041867FM-12+074799999V0209999999999220001CN0100001N9+02261+01501101571ADDAA106000091AG10999GF100991001001999999001001KA1240N+01401MA1999999093191MD1999999+0011REMSYN017333   20140 58001
0096831820999991990072018004-11300-041867FM-12+074799999V0209999999999220001CN0100001N9+03051+00931101111ADDAA106000091AG10999GF100991001001999999001001MA1999999092801MD1999999-0011REMSYN011333   59001
0115831820999991990072100004-11300-041867FM-12+074799999V0209999999999220001CN9999999N9+02161+00981101421ADDAA106000091AG10999GF100991001001999999001001KA1240M+03101MA1999999093051MD1999999+0011REMSYN017333   10310 58001
0115831820999991990072112004-11300-041867FM-12+074799999V0209999999999220001CN0100001N9+02181+01721101771ADDAA106000091AG10999GF100991001001999999001001KA1240N+01321MA1999999093371MD1999999+0181REMSYN017333   20132 58018
0096831820999991990072118004-11300-041867FM-12+074799999V0209999999999220001CN0100001N9+02961+01291101301ADDAA106000091AG10999GF101991011021008001001001MA1999999092971MD1999999+0171REMSYN011333   58017
0076831820999991990072200004-11300-041867FM-12+074799999V0209999999999220001CN9999999N9+02151+01361101671ADDAA106000091AG10999GF100991001001999999001001MA1999999093271MD1810221+9999
0115831820999991990072212004-11300-041867FM-12+074799999V0209999999999220001CN0100001N9+02141+01281101801ADDAA106000091AG10999GF100991001001999999001001KA1240N+01341MA1999999093401MD1999999+0031REMSYN017333   20134 58003
0096831820999991990072218004-11300-041867FM-12+074799999V0209999999999220001CN0100001N9+02901+01241101311ADDAA106000091AG10999GF102991011011012501001011MA1999999092971MD1999999+0001REMSYN011333   58000
0115831820999991990072300004-11300-041867FM-12+074799999V0209999999999220001CN9999999N9+02071+01101101641ADDAA106000091AG10999GF100991001001999999001001KA1240M+02961MA1999999093231MD1999999-0031REMSYN017333   10296 59003
0115831820999991990072312004-11300-041867FM-12+074799999V0209999999999220001CN0100001N9+02191+01421101781ADDAA106000091AG10999GF100991001001999999001001KA1240N+01501MA1999999093381MD1999999-0021REMSYN017333   20150 59002
0096831820999991990072318004-11300-041867FM-12+074799999V0209999999999220001CN0100001N9+02671+01501101361ADDAA106000091AG10999GF104991041021008001001001MA1999999093001MD1999999+0031REMSYN011333   58003
0115831820999991990072400004-11300-041867FM-12+074799999V0209999999999220001CN9999999N9+02051+01501101671ADDAA106000091AG10999GF100991001001999999001001KA1240M+02801MA1999999093271MD1999999+0031REMSYN017333   10280 58003
0115831820999991990072412004-11300-041867FM-12+074799999V0209999999999220001CN0100001N9+02201+01461101791ADDAA106000091AG10999GF100991001001999999001001KA1240N+01641MA1999999093391MD1999999+0011REMSYN017333   20164 58001
0096831820999991990072418004-11300-041867FM-12+074799999V0209999999999220001CN0100001N9+02881+01421101281ADDAA106000091AG10999GF102991021021008001001001MA1999999092951MD1999999+0051REMSYN011333   58005
0115831820999991990072500004-11300-041867FM-12+074799999V0209999999999007501CN9999999N9+02161+01611101711ADDAA106000091AG10999GF105991051021008001001001KA1240M+03001MA1999999093321MD1999999+0051REMSYN017333   10300 58005
0115831820999991990072512004-11300-041867FM-12+074799999V0209999999999220001CN0100001N9+02241+01461101921ADDAA106000091AG10999GF100991001001999999001001KA1240N+01721MA1999999093521MD1999999+0131REMSYN017333   20172 58013
0096831820999991990072518004-11300-041867FM-12+074799999V0209999999999220001CN0100001N9+02871+01521101451ADDAA106000091AG10999GF104991041021008001001001MA1999999093111MD1999999+0161REMSYN011333   58016
0115831820999991990072600004-11300-041867FM-12+074799999V0209999999999220001CN9999999N9+02171+01651101781ADDAA106000091AG10999GF100991001001999999001001KA1240M+02941MA1999999093371MD1999999+0071REMSYN017333   10294 58007
0115831820999991990072612004-11300-041867FM-12+074799999V0209999999999220001CN0100001N9+02171+01681101931ADDAA106000091AG10999GF104991041021008001001001KA1240N+01761MA1999999093521MD1999999+0001REMSYN017333   20176 58000
0096831820999991990072618004-11300-041867FM-12+074799999V0209999999999220001CN0200001N9+02541+01711101611ADDAA106000091AG10999GF104991041021008001001001MA1999999093231MD1999999+0121REMSYN011333   58012
0115831820999991990072700004-11300-041867FM-12+074799999V0209999999999015001CN9999999N9+02241+01601101871ADDAA106000091AG10999GF107991071001017501071999KA1240M+02681MA1999999093471MD1999999+0101REMSYN017333   10268 58010
0096831820999991990072718004-11300-041867FM-12+074799999V0209999999999220001CN0100001N9+02711+01231101691ADDAA106000091AG10999GF104991041021008001001001MA1999999093311MD1999999+0081REMSYN011333   58008
0115831820999991990072800004-11300-041867FM-12+074799999V0209999999999220001CN9999999N9+01891+00901101901ADDAA106000091AG10999GF100991001001999999001001KA1240M+02761MA1999999093471MD1999999+0001REMSYN017333   10276 58000
0100831820999991990072812004-11300-041867FM-12+074799999V0209999999999220001CN0100001N9+02161+01431102011ADDAA106000091AG10999GF101991011011012501001001KA1240N+01361MD1999999-0081REMSYN017333   20136 59008
0096831820999991990072818004-11300-041867FM-12+074799999V0209999999999007501CN0100001N9+02901+01241101551ADDAA106000091AG10999GF105991051021008001001001MA1999999093171MD1999999-0141REMSYN011333   59014
0115831820999991990072900004-11300-041867FM-12+074799999V0209999999999220001CN9999999N9+02131+01291101801ADDAA106000091AG10999GF100991001001999999001001KA1240M+02961MA1999999093401MD1999999-0071REMSYN017333   10296 59007
0115831820999991990072912004-11300-041867FM-12+074799999V0209999999999220001CN0100001N9+02161+01541102051ADDAA106000091AG10999GF100991001001999999001001KA1240N+01461MA1999999093631MD1999999+0041REMSYN017333   20146 58004
0096831820999991990072918004-11300-041867FM-12+074799999V0209999999999007501CN0100001N9+02771+01461101651ADDAA106000091AG10999GF106991061021008001051001MA1999999093261MD1999999+0091REMSYN011333   58009
0115831820999991990073000004-11300-041867FM-12+074799999V0209999999999220001CN9999999N9+02131+01441101861ADDAA106000091AG10999GF100991001001999999001001KA1240M+02861MA1999999093451MD1999999+0051REMSYN017333   10286 58005
0096831820999991990073018004-11300-041867FM-12+074799999V0209999999999220001CN0100001N9+02821+01441101541ADDAA106000091AG10999GF102991021021008001001001MA1999999093171MD1999999-0091REMSYN011333   59009
0115831820999991990073100004-11300-041867FM-12+074799999V0209999999999220001CN9999999N9+02111+01161101811ADDAA106000091AG10999GF100991001001999999001001KA1240M+02861MA1999999093411MD1999999-0041REMSYN017333   10286 59004
0115831820999991990073112004-11300-041867FM-12+074799999V0209999999999220001CN0100001N9+02161+01431102021ADDAA106000091AG10999GF101991011011012501001001KA1240N+01401MA1999999093601MD1999999-0031REMSYN017333   20140 59003
0096831820999991990073118004-11300-041867FM-12+074799999V0209999999999220001CN0100001N9+02781+01371101561ADDAA106000091AG10999GF104991021021008001001011MA1999999093181MD1999999+0011REMSYN011333   58001
0115831820999991990080100004-11300-041867FM-12+074799999V0209999999999220001CN9999999N9+02071+01311101961ADDAA106000091AG10999GF101991001001999999001011KA1240M+02861MA1999999093541MD1999999+0131REMSYN017333   10286 58013
0115831820999991990080112004-11300-041867FM-12+074799999V0209999999999220001CN0100001N9+02151+01381102101ADDAA106000091AG10999GF102991021021008001001001KA1240N+01421MA1999999093661MD1999999+0061REMSYN017333   20142 58006
0096831820999991990080118004-11300-041867FM-12+074799999V0209999999999220001CN0100001N9+02771+01241101591ADDAA106000091AG10999GF102991021021008001001001MA1999999093221MD1999999+0041REMSYN011333   58004
0115831820999991990080200004-11300-041867FM-12+074799999V0209999999999220001CN9999999N9+02071+01431101901ADDAA106000091AG10999GF100991001001999999001001KA1240M+02821MA1999999093481MD1999999-0061REMSYN017333   10282 59006
0115831820999991990080212004-11300-041867FM-12+074799999V0209999999999007501CN0100001N9+02201+01581102081ADDAA106000091AG10999GF107991071051008001001001KA1240N+01701MA1999999093651MD1999999-0011REMSYN017333   20170 59001
0128831820999991990080218004-11300-041867FM-12+074799999V0201401N00511012001CN0200001N9+02751+99999999999ADDAA106002091AG10999AY161061AY261061GF106991061081008001001001MD1999999-0081MW1031REMSYN017333   59008 60021EQDQ01+099893APOSP 
0115831820999991990080300004-11300-041867FM-12+074799999V0209999999999007501CN9999999N9+02081+01681101901ADDAA106000091AG10999GF106991061051008001001001KA1240M+02691MA1999999093491MD1999999+0011REMSYN017333   10269 58001
0115831820999991990080312004-11300-041867FM-12+074799999V0209999999999007501CN0100001N9+02161+01591102071ADDAA106000091AG10999GF106991061051008001001001KA1240N+01741MA1999999093641MD1999999-0011REMSYN017333   20174 59001
0096831820999991990080318004-11300-041867FM-12+074799999V0209999999999220001CN0100001N9+02691+01491101551ADDAA106000091AG10999GF104991021021008001001011MA1999999093181MD1999999-0101REMSYN011333   59010
0115831820999991990080400004-11300-041867FM-12+074799999V0209999999999220001CN9999999N9+02061+01641101821ADDAA106000091AG10999GF104991001001999999001011KA1240M+02771MA1999999093411MD1999999-0081REMSYN017333   10277 59008
0115831820999991990080412004-11300-041867FM-12+074799999V0209999999999007501CN0100001N9+02151+01661102031ADDAA106000091AG10999GF107991071051008001001001KA1240N+01781MA1999999093601MD1999999-0041REMSYN017333   20178 59004
0096831820999991990080418004-11300-041867FM-12+074799999V0209999999999007501CN0100001N9+02711+01601101551ADDAA106000091AG10999GF105991051021008001001001MA1999999093191MD1999999+0011REMSYN011333   58001
0115831820999991990080500004-11300-041867FM-12+074799999V0209999999999220001CN9999999N9+01911+01531101891ADDAA106000091AG10999GF100991001001999999001001KA1240M+02761MA1999999093461MD1999999+0051REMSYN017333   10276 58005
0115831820999991990080512004-11300-041867FM-12+074799999V0209999999999007501CN0100001N9+02211+01581102111ADDAA106000091AG10999GF106991061021008001001001KA1240N+01641MA1999999093661MD1999999+0061REMSYN017333   20164 58006
0096831820999991990080518004-11300-041867FM-12+074799999V0209999999999220001CN0100001N9+02171+01471101621ADDAA106000091AG10999GF104991021021008001001011MA1999999093231MD1999999+0041REMSYN011333   58004
0115831820999991990080600004-11300-041867FM-12+074799999V0209999999999220001CN9999999N9+99999+99999101951ADDAA106000091AG10999GF100991001001999999001001KA1240M+02621MA1999999093531MD1999999+0071REMSYN017333   10262 58007
0115831820999991990080612004-11300-041867FM-12+074799999V0209999999999007501CN0100001N9+01951+01381102171ADDAA106000091AG10999GF108991081051008001999999KA1240N+01461MA1999999093701MD1999999+0101REMSYN017333   20146 58010
0096831820999991990080618004-11300-041867FM-12+074799999V0209999999999220001CN0100001N9+02681+01351101631ADDAA106000091AG10999GF104991041021008001001001MA1999999093241MD1999999+0011REMSYN011333   58001
0115831820999991990080700004-11300-041867FM-12+074799999V0209999999999220001CN9999999N9+02061+01121101871ADDAA106000091AG10999GF106991001001999999001011KA1240M+02761MA1999999093441MD1999999-0091REMSYN017333   10276 59009
0151831820999991990080712004-11300-041867FM-12+074799999V0201401N00151220001CN0100001N9+02471+02211101811ADDAA106000091AA224007091AG10999GF104991021041008001011001KA1240N+02101MA1999999999999MD1999999-0101REMSYN023333   20210 59010 60074EQDQ01 101223APOSP 
0115831820999991990080718004-11300-041867FM-12+074799999V0209999999999007501CN0100001N9+02421+01491101651ADDAA106000091AG10999GF107991061021008001001011MA1999999093252MD1999999+0011REMSYN011333   58001EQDQ01+093253APOSP 
0115831820999991990080800004-11300-041867FM-12+074799999V0209999999999220001CN9999999N9+01891+01531101901ADDAA106000091AG10999GF103991021001017501051011KA1240M+02541MA1999999093451MD1999999+0011REMSYN017333   10254 58001
0115831820999991990080812004-11300-041867FM-12+074799999V0209999999999007501CN0100001N9+02151+01381101981ADDAA106000091AG10999GF106991061021008001001001KA1240N+01601MA1999999093541MD1999999-0051REMSYN017333   20160 59005
0096831820999991990080818004-11300-041867FM-12+074799999V0209999999999220001CN0100001N9+02661+01301101601ADDAA106000091AG10999GF104991041021008001001011MA1999999093231MD1999999-0021REMSYN011333   59002
0115831820999991990080900004-11300-041867FM-12+074799999V0209999999999220001CN9999999N9+02011+01461101811ADDAA106000091AG10999GF100991001001999999001001KA1240M+02741MA1999999093401MD1999999-0051REMSYN017333   10274 59005
0115831820999991990080912004-11300-041867FM-12+074799999V0209999999999220001CN0100001N9+02261+01341101931ADDAA106000091AG10999GF101991011021008001001001KA1240N+01461MA1999999093521MD1999999-0031REMSYN017333   20146 59003
0096831820999991990080918004-11300-041867FM-12+074799999V0209999999999220001CN0100001N9+02981+01351101411ADDAA106000091AG10999GF108991031021008001001011MA1999999093061MD1999999-0171REMSYN011333   59017
0115831820999991990081000004-11300-041867FM-12+074799999V0209999999999220001CN9999999N9+02181+01441101711ADDAA106000091AG10999GF106991001001999999001011KA1240M+03021MA1999999093321MD1999999-0081REMSYN017333   10302 59008
0134831820999991990081012004-11300-041867FM-12+074799999V02099999999999999999N0100001N9+02271+01521101891ADDAA106000091AG10999GF108991001001999999001011KA1240N+01681MA1999999093501MD1999999-0021REMSYN017333   20168 59002EQDQ01+000952SCOLCB
0096831820999991990081018004-11300-041867FM-12+074799999V0209999999999045001CN0040001N9+02941+01661101501ADDAA106000091AG10999GF106991031021008001051011MA1999999093151MD1999999+0091REMSYN011333   58009
0115831820999991990081100004-11300-041867FM-12+074799999V0209999999999220001CN9999999N9+02201+01441101721ADDAA106000091AG10999GF100991001001999999001001KA1240M+02991MA1999999093341MD1999999+0021REMSYN017333   10299 58002
0115831820999991990081112004-11300-041867FM-12+074799999V0209999999999220001CN0100001N9+02241+01641101971ADDAA106000091AG10999GF108991031021008001001011KA1240N+01681MA1999999093561MD1999999+0061REMSYN017333   20168 58006
0096831820999991990081118004-11300-041867FM-12+074799999V0209999999999220001CN0100001N9+01751+01541101521ADDAA106000091AG10999GF106991031021008001001011MA1999999093171MD1999999+0021REMSYN011333   58002
0115831820999991990081200004-11300-041867FM-12+074799999V0209999999999220001CN9999999N9+02091+01601101821ADDAA106000091AG10999GF100991001001999999001001KA1240M+02841MA1999999093421MD1999999+0081REMSYN017333   10284 58008
0115831820999991990081212004-11300-041867FM-12+074799999V0209999999999007501CN0100001N9+02321+01501102071ADDAA106000091AG10999GF107991061021008001001011KA1240N+01701MA1999999093651MD1999999+0101REMSYN017333   20170 58010
0096831820999991990081218004-11300-041867FM-12+074799999V0209999999999220001CN0100001N9+02681+01581101621ADDAA106000091AG10999GF105991031021008001001011MA1999999093241MD1999999+0071REMSYN011333   58007
0115831820999991990081300004-11300-041867FM-12+074799999V0209999999999220001CN9999999N9+02131+01571101891ADDAA106000091AG10999GF100991001001999999001001KA1240M+02791MA1999999093501MD1999999+0081REMSYN017333   10279 58008
0115831820999991990081312004-11300-041867FM-12+074799999V0209999999999220001CN0100001N9+02151+01381102111ADDAA106000091AG10999GF108991011021008001001011KA1240N+01701MA1999999093681MD1999999+0031REMSYN017333   20170 58003
0096831820999991990081318004-11300-041867FM-12+074799999V0209999999999007501CN0100001N9+02461+01521101711ADDAA106000091AG10999GF108991061021008001001011MA1999999093311MD1999999+0071REMSYN011333   58007
0115831820999991990081400004-11300-041867FM-12+074799999V0209999999999220001CN9999999N9+02011+01501101881ADDAA106000091AG10999GF104991001001999999001011KA1240M+02541MA1999999093461MD1999999-0041REMSYN017333   10254 59004
0115831820999991990081412004-11300-041867FM-12+074799999V0209999999999045001CN0100001N9+02171+01471102091ADDAA106000091AG10999GF108991011021008001051011KA1240N+01601MA1999999093651MD1999999-0031REMSYN017333   20160 59003
0096831820999991990081418004-11300-041867FM-12+074799999V0209999999999045001CN0100001N9+02561+01501101621ADDAA106000091AG10999GF106991011021008001051011MA1999999093221MD1999999-0091REMSYN011333   59009
0115831820999991990081500004-11300-041867FM-12+074799999V0209999999999220001CN9999999N9+01991+01441101871ADDAA106000091AG10999GF100991001001999999001001KA1240M+02801MA1999999093451MD1999999-0011REMSYN017333   10280 59001
0115831820999991990081512004-11300-041867FM-12+074799999V0209999999999220001CN0100001N9+02221+01531101991ADDAA106000091AG10999GF102991011011012501051001KA1240N+01531MA1999999093561MD1999999-0091REMSYN017333   20153 59009
0096831820999991990081518004-11300-041867FM-12+074799999V0209999999999220001CN0100001N9+02741+01511101441ADDAA106000091AG10999GF105991021021008001001011MA1999999093061MD1999999-0161REMSYN011333   59016
0115831820999991990081612004-11300-041867FM-12+074799999V0209999999999220001CN0100001N9+02161+01271101871ADDAA106000091AG10999GF100991001001999999001001KA1240N+01281MA1999999093451MD1999999+0111REMSYN017333   20128 58011
0096831820999991990081618004-11300-041867FM-12+074799999V0209999999999220001CN0040001N9+02931+01221101301ADDAA106000091AG10999GF100991001001999999001001MA1999999092951MD1999999-0111REMSYN011333   59011
0062831820999991990081700004-11300-041867FM-12+074799999V0209999999999220001CN9999999N9+02211+01281101611ADDAA106000091AG10999GF100991001001999999001001MA1999999093231
0115831820999991990081712004-11300-041867FM-12+074799999V0209999999999220001CN0040001N9+02351+01601101791ADDAA106000091AG10999GF100991001001999999001001KA1240N+01481MA1999999093411MD1999999-0041REMSYN017333   20148 59004
0096831820999991990081718004-11300-041867FM-12+074799999V0209999999999220001CN0100001N9+03221+01341101181ADDAA106000091AG10999GF102991011011012501001011MA1999999092891MD1999999-0061REMSYN011333   59006
0115831820999991990081812004-11300-041867FM-12+074799999V0209999999999220001CN0100001N9+02421+01571101721ADDAA106000091AG10999GF101991011011012501001001KA1240N+01701MA1999999093351MD1999999-0071REMSYN017333   20170 59007
0096831820999991990081818004-11300-041867FM-12+074799999V0209999999999220001CN0040001N9+03221+00971101141ADDAA106000091AG10999GF102991011011012501001011MA1999999092851MD1999999-0041REMSYN011333   59004
0115831820999991990081900004-11300-041867FM-12+074799999V0209999999999220001CN9999999N9+02361+01381101541ADDAA106000091AG10999GF100991001001999999001001KA1240M+03261MA1999999093201MD1999999+0031REMSYN017333   10326 58003
0115831820999991990081912004-11300-041867FM-12+074799999V0209999999999220001CN0100001N9+02431+01461101691ADDAA106000091AG10999GF100991001001999999001001KA1240N+01691MA1999999093341MD1999999-0011REMSYN017333   20169 59001
0096831820999991990081918004-11300-041867FM-12+074799999V0209999999999220001CN0040001N9+02971+01611101161ADDAA106000091AG10999GF102991011021008001001011MA1999999092871MD1999999+0021REMSYN011333   58002
0137831820999991990082012004-11300-041867FM-12+074799999V0209999999999220001CN0020001N9+02271+01391101811ADDAA106000091AG10999AY101061AY201061GF100991001001999999001001KA1240N+01561MA1999999093421MD1999999+0081MW1051REMSYN017333   20156 58008
0096831820999991990082018004-11300-041867FM-12+074799999V0209999999999220001CN0040001N9+03111+00981101281ADDAA106000091AG10999GF100991001001999999001001MA1999999092971MD1999999+0101REMSYN011333   58010
0115831820999991990082100004-11300-041867FM-12+074799999V0209999999999220001CN9999999N9+02291+01331101671ADDAA106000091AG10999GF100991001001999999001001KA1240M+03171MA1999999093281MD1999999+0081REMSYN017333   10317 58008
0115831820999991990082112004-11300-041867FM-12+074799999V0209999999999220001CN0100001N9+02381+01691101781ADDAA106000091AG10999GF104991041021008001001001KA1240N+01641MA1999999093411MD1999999-0011REMSYN017333   20164 59001
0096831820999991990082118004-11300-041867FM-12+074799999V0209999999999220001CN0100001N9+02971+01461101321ADDAA106000091AG10999GF103991031021008001001001MA1999999093011MD1999999+0041REMSYN011333   58004
0115831820999991990082200004-11300-041867FM-12+074799999V0200901N00571220001CN9999999N9+02261+01691101621ADDAA106000091AG10999GF100991001001999999001001KA1240M+03021MA1999999093251MD1999999-0031REMSYN017333   10302 59003
0115831820999991990082212004-11300-041867FM-12+074799999V0209999999999007501CN0100001N9+02361+01511101781ADDAA106000091AG10999GF105991051021008001001001KA1240N+01701MA1999999091401MD1999999-0011REMSYN017333   20170 59001
0115831820999991990082218004-11300-041867FM-12+074799999V0209999999999007501CN0100001N9+02691+01491101411ADDAA106000091AG10999GF107991061021008001051001MA1999999093062MD1999999+0051REMSYN011333   58005EQDQ01+093063APOSP 
0115831820999991990082300004-11300-041867FM-12+074799999V0209999999999220001CN9999999N9+02181+01561101551ADDAA106000091AG10999GF104991001001999999001011KA1240M+02841MA1999999093181MD1999999-0071REMSYN017333   10284 59007
0115831820999991990082312004-11300-041867FM-12+074799999V0209999999999007501CN0100001N9+02231+01481101861ADDAA106000091AG10999GF107991071021008001001001KA1240N+01521MA1999999093461MD1999999+0061REMSYN017333   20152 58006
0096831820999991990082318004-11300-041867FM-12+074799999V0209999999999007501CN0100001N9+02651+01391101491ADDAA106000091AG10999GF108991071021008001001011MA1999999093121MD1999999+0061REMSYN011333   58006
0115831820999991990082400004-11300-041867FM-12+074799999V0209999999999220001CN9999999N9+02141+01461101691ADDAA106000091AG10999GF100991001001999999001001KA1240M+02741MA1999999093301MD1999999+0121REMSYN017333   10274 58012
0115831820999991990082412004-11300-041867FM-12+074799999V0209999999999007501CN0100001N9+02221+01551102011ADDAA106000091AG10999GF107991061051008001001011KA1240N+01761MA1999999093601MD1999999+0141REMSYN017333   20176 58014
0096831820999991990082418004-11300-041867FM-12+074799999V0209999999999007501CN0100001N9+02391+01561101731ADDAA106000091AG10999GF107991071051008001001001MA1999999093331MD1999999+0211REMSYN011333   58021
0115831820999991990082500004-11300-041867FM-12+074799999V0209999999999004201CN9999999N9+01961+01591102041ADDAA106000091AG10999GF108991081071004501999999KA1240M+02561MA1999999093611MD1999999+0311REMSYN017333   10256 58031
0115831820999991990082512004-11300-041867FM-12+074799999V0209999999999007501CN0100001N9+02051+01451102241ADDAA106000091AG10999GF107991071051008001001001KA1240N+01581MA1999999093771MD1999999+0171REMSYN017333   20158 58017
0096831820999991990082518004-11300-041867FM-12+074799999V0209999999999007501CN0100001N9+02551+01481101741ADDAA106000091AG10999GF106991061021008001001001MA1999999093341MD1999999+0011REMSYN011333   58001
0115831820999991990082600004-11300-041867FM-12+074799999V0209999999999004201CN9999999N9+02061+01521101991ADDAA106000091AG10999GF107991071071004501001001KA1240M+02661MA1999999093551MD1999999-0621REMSYN017333   10266 59062
0115831820999991990082612004-11300-041867FM-12+074799999V0209999999999220001CN0100001N9+02261+01501102011ADDAA106000091AG10999GF103991031021008001001001KA1240N+01721MA1999999093591MD1999999-0181REMSYN017333   20172 59018
0096831820999991990082618004-11300-041867FM-12+074799999V0209999999999220001CN0100001N9+02721+01521101431ADDAA106000091AG10999GF102991021021008001001001MA1999999093111MD1999999-0231REMSYN011333   59023
0115831820999991990082700004-11300-041867FM-12+074799999V0209999999999220001CN9999999N9+02171+01591101711ADDAA106000091AG10999GF102991021001017501051001KA1240M+02781MA1999999093321MD1999999-0231REMSYN017333   10278 59023
0115831820999991990082712004-11300-041867FM-12+074799999V0209999999999007501CN0100001N9+02281+01591101721ADDAA106000091AG10999GF107991071021008001001001KA1240N+01881MA1999999093341MD1999999-0251REMSYN017333   20188 59025
0096831820999991990082718004-11300-041867FM-12+074799999V0209999999999220001CN0100001N9+03051+01571101221ADDAA106000091AG10999GF102991021021008001001011MA1999999092941MD1999999-0171REMSYN011333   59017
0115831820999991990082800004-11300-041867FM-12+074799999V0209999999999220001CN9999999N9+02351+01491101521ADDAA106000091AG10999GF100991001001999999001001KA1240M+03141MA1999999093161MD1999999-0161REMSYN017333   10314 59016
0115831820999991990082812004-11300-041867FM-12+074799999V0209999999999220001CN0100001N9+02561+01731101681ADDAA106000091AG10999GF108991001001999999001011KA1240N+01741MA1999999093341MD1999999+0001REMSYN017333   20174 58000
0096831820999991990082818004-11300-041867FM-12+074799999V0209999999999007501CN0040001N9+03061+01731101161ADDAA106000091AG10999GF106991051021008001001011MA1999999092851MD1999999-0091REMSYN011333   59009
0115831820999991990082900004-11300-041867FM-12+074799999V0209999999999220001CN9999999N9+02541+01571101431ADDAA106000091AG10999GF104991021001017501031011KA1240M+03221MA1999999093131MD1999999-0031REMSYN017333   10322 59003
0096831820999991990082918004-11300-041867FM-12+074799999V0209999999999220001CN0040001N9+03011+01811101101ADDAA106000091AG10999GF107991021021008001001011MA1999999092831MD1999999-0021REMSYN011333   59002
0115831820999991990083000004-11300-041867FM-12+074799999V0209999999999015001CN9999999N9+02311+01561101541ADDAA106000091AG10999GF108991051001017501051011KA1240M+03161MA1999999093211MD1999999+0011REMSYN017333   10316 58001
0115831820999991990083012004-11300-041867FM-12+074799999V0209999999999007501CN0100001N9+02441+01641101801ADDAA106000091AG10999GF107991051021008001051001KA1240N+01881MA1999999093441MD1999999+0201REMSYN017333   20188 58020
0096831820999991990083018004-11300-041867FM-12+074799999V0209999999999220001CN0040001N9+02911+01751101301ADDAA106000091AG10999GF106991041021008001001011MA1999999092991MD1999999+0161REMSYN011333   58016
0115831820999991990083100004-11300-041867FM-12+074799999V0209999999999220001CN9999999N9+02341+01521101601ADDAA106000091AG10999GF102991001001999999001011KA1240M+03021MA1999999093251MD1999999+0041REMSYN017333   10302 58004
0115831820999991990083112004-11300-041867FM-12+074799999V0209999999999220001CN0100001N9+02351+01641101811ADDAA106000091AG10999GF103991021021008001001011KA1240N+01791MA1999999093441MD1999999+0001REMSYN017333   20179 58000
0096831820999991990083118004-11300-041867FM-12+074799999V0209999999999220001CN0040001N9+02871+01621101271ADDAA106000091AG10999GF108991041021008001001011MA1999999092961MD1999999-0031REMSYN011333   59003
0115831820999991990090100004-11300-041867FM-12+074799999V0209999999999220001CN9999999N9+02241+01421101531ADDAA106000091AG10999GF100991001001999999001001KA1240M+02921MA1999999093171MD1999999-0081REMSYN017333   10292 59008
0115831820999991990090112004-11300-041867FM-12+074799999V0209999999999220001CN0100001N9+02331+01581101641ADDAA106000091AG10999GF103991031021008001001001KA1240N+01681MA1999999093271MD1999999-0171REMSYN017333   20168 59017
0096831820999991990090118004-11300-041867FM-12+074799999V0209999999999220001CN0100001N9+02891+01601101081ADDAA106000091AG10999GF102991021021008001001001MA1999999092781MD1999999-0181REMSYN011333   59018
0096831820999991990090119004-11300-041867FM-12+074799999V0209999999999220001CN0100001N9+02891+01601101081ADDAA106000091AG10999GF102991021021008001001001MA1999999092781MD1999999-0181REMSYN011333   59018
0115831820999991990090200004-11300-041867FM-12+074799999V0209999999999220001CN9999999N9+02211+01441101461ADDAA106000091AG10999GF100991001001999999001001KA1240M+02941MA1999999093101MD1999999-0071REMSYN017333   10294 59007
0115831820999991990090212004-11300-041867FM-12+074799999V0209999999999220001CN0100001N9+02371+01641101621ADDAA106000091AG10999GF100991001001999999001001KA1240N+01561MA1999999093251MD1999999-0021REMSYN017333   20156 59002
0096831820999991990090218004-11300-041867FM-12+074799999V0209999999999220001CN0100001N9+03231+01241101031ADDAA106000091AG10999GF102991021021008001001011MA1999999092751MD1999999-0031REMSYN011333   59003
0115831820999991990090300004-11300-041867FM-12+074799999V0209999999999220001CN9999999N9+02491+01171101411ADDAA106000091AG10999GF100991001001999999001001KA1240M+03301MA1999999093091MD1999999-0011REMSYN017333   10330 59001
0115831820999991990090312004-11300-041867FM-12+074799999V0209999999999007501CN0100001N9+02431+01571101821ADDAA106000091AG10999GF105991051021008001001001KA1240N+01901MA1999999093461MD1999999+0211REMSYN017333   20190 58021
0096831820999991990090318004-11300-041867FM-12+074799999V0209999999999220001CN0100001N9+03131+01351101291ADDAA106000091AG10999GF101991011021008001001001MA1999999093001MD1999999+0251REMSYN011333   58025
0115831820999991990090400004-11300-041867FM-12+074799999V0209999999999045001CN9999999N9+02311+01701101731ADDAA106000091AG10999GF106991031021008001051001KA1240M+03181MA1999999093361MD1999999+0271REMSYN017333   10318 58027
0115831820999991990090412004-11300-041867FM-12+074799999V0209999999999220001CN0100001N9+02371+01561101891ADDAA106000091AG10999GF103991011021008001031001KA1240N+01921MA1999999093511MD1999999+0051REMSYN017333   20192 58005
0096831820999991990090418004-11300-041867FM-12+074799999V0209999999999220001CN0100001N9+02921+01501101301ADDAA106000091AG10999GF103991031021008001001001MA1999999093001MD1999999+0001REMSYN011333   58000
0115831820999991990090500004-11300-041867FM-12+074799999V0209999999999220001CN9999999N9+02151+01531101671ADDAA106000091AG10999GF100991001001999999001001KA1240M+03261MA1999999093291MD1999999-0071REMSYN017333   10326 59007
0115831820999991990090512004-11300-041867FM-12+074799999V0209999999999007501CN0100001N9+02301+01561101711ADDAA106000091AG10999GF108991081051008001999999KA1240N+01741MA1999999093331MD1999999-0181REMSYN017333   20174 59018
0096831820999991990090518004-11300-041867FM-12+074799999V0209999999999220001CN0100001N9+02771+01461101251ADDAA106000091AG10999GF108991021021008001001011MA1999999092931MD1999999-0071REMSYN011333   59007
0115831820999991990090600004-11300-041867FM-12+074799999V0209999999999220001CN9999999N9+02101+01601101581ADDAA106000091AG10999GF100991001001999999001001KA1240M+02871MA1999999093201MD1999999-0091REMSYN017333   10287 59009
0115831820999991990090612004-11300-041867FM-12+074799999V0209999999999007501CN0100001N9+02231+01581101751ADDAA106000091AG10999GF108991081051008001999999KA1240N+01801MA1999999093351MD1999999+0021REMSYN017333   20180 58002
0096831820999991990090618004-11300-041867FM-12+074799999V0209999999999220001CN0100001N9+02821+01551101221ADDAA106000091AG10999GF104991041021008001001001MA1999999092901MD1999999-0031REMSYN011333   59003
0115831820999991990090700004-11300-041867FM-12+074799999V0209999999999220001CN9999999N9+02091+01421101581ADDAA106000091AG10999GF100991001001999999001001KA1240M+02881MA1999999093191MD1999999-0011REMSYN017333   10288 59001
0134831820999991990090712004-11300-041867FM-12+074799999V0209999999999007501CN0100001N9+02271+01541999999ADDAA106000091AG10999GF108991081051008001999999KA1240N+01751MA1999999093391MD1999999+0041REMSYN017333   20175 58004EQDQ01 107183APOSLP
0115831820999991990090718004-11300-041867FM-12+074799999V0209999999999220001CN0100001N9+02921+01131101302ADDAA106000091AG10999GF101991011021008001001001MA1999999092971MD1999999+0071REMSYN011333   58007EQDQ01+101303APOSLP
0115831820999991990090812004-11300-041867FM-12+074799999V0209999999999220001CN0100001N9+02351+01671101731ADDAA106000091AG10999GF108991001001999999001011KA1240N+01671MA1999999093351MD1999999-0041REMSYN017333   20167 59004
0096831820999991990090818004-11300-041867FM-12+074799999V0209999999999220001CN0100001N9+03101+01281101091ADDAA106000091AG10999GF108991021011008001001011MA1999999092791MD1999999-0181REMSYN011333   59018
0115831820999991990090900004-11300-041867FM-12+074799999V0209999999999220001CN9999999N9+02431+01341101341ADDAA106000091AG10999GF108991001001999999001011KA1240M+03201MA1999999093021MD1999999-0211REMSYN017333   10320 59021
0115831820999991990090912004-11300-041867FM-12+074799999V0209999999999220001CN0040001N9+02501+01621101441ADDAA106000091AG10999GF100991001001999999001001KA1240N+01701MA1999999093121MD1999999-0231REMSYN017333   20170 59023
0096831820999991990090918004-11300-041867FM-12+074799999V0209999999999220001CN0040001N9+03271+01511100881ADDAA106000091AG10999GF108991021021008001001011MA1999999092621MD1999999-0171REMSYN011333   59017
0115831820999991990091000004-11300-041867FM-12+074799999V0209999999999045001CN9999999N9+02501+01621101321ADDAA106000091AG10999GF108991041071008001021999KA1240M+03321MA1999999093021MD1999999+0001REMSYN017333   10332 58000
0115831820999991990091012004-11300-041867FM-12+074799999V0209999999999220001CN0040001N9+02561+01751101361ADDAA106000091AG10999GF100991001001999999001001KA1240N+01821MA1999999093061MD1999999-0061REMSYN017333   20182 59006
0118831820999991990091018004-11300-041867FM-12+074799999V0209999999999045001CN0020001N9+03211+01421100801ADDAA106000091AG10999AY111061AY211061GF106991031031008001051011MA1999999092561MD1999999-0061MW1051REMSYN011333   59006
0137831820999991990091100004-11300-041867FM-12+074799999V0201401N00571220001CN9999999N9+02331+01721101211ADDAA106000091AG10999AY121061AY221061GF108991011021008001001011KA1240M+03371MA1999999092911MD1999999-0111MW1131REMSYN017333   10337 59011
0096831820999991990091118004-11300-041867FM-12+074799999V0209999999999105001CN0100001N9+02861+01751101151ADDAA106000091AG10999GF108991041021008001001081MA1999999092851MD1999999+0291REMSYN011333   58029
0115831820999991990091200004-11300-041867FM-12+074799999V0209999999999220001CN9999999N9+02391+01711999999ADDAA106000091AG10999GF108991001001999999001011KA1240M+03021MA1999999093061MD1999999-0151REMSYN017333   10302 59015
0115831820999991990091212004-11300-041867FM-12+074799999V0209999999999220001CN0100001N9+02401+01751101711ADDAA106000091AG10999GF108991041021008001001011KA1240N+01921MA1999999093351MD1999999+0101REMSYN017333   20192 58010
0096831820999991990091218004-11300-041867FM-12+074799999V0209999999999220001CN0100001N9+02931+01571101321ADDAA106000091AG10999GF106991031021008001001011MA1999999093011MD1999999+0161REMSYN011333   58016
0115831820999991990091300004-11300-041867FM-12+074799999V0209999999999220001CN9999999N9+02311+01321101131ADDAA106000091AG10999GF104991001001999999001011KA1240M+03021MA1999999093191MD1999999+0131REMSYN017333   10302 58013
0115831820999991990091312004-11300-041867FM-12+074799999V0209999999999220001CN0040001N9+02361+01851101751ADDAA106000091AG10999GF103991021021008001001011KA1240N+01721MA1999999093381MD1999999+0031REMSYN017333   20172 58003
0096831820999991990091318004-11300-041867FM-12+074799999V0209999999999220001CN0100001N9+03151+01541101181ADDAA106000091AG10999GF102991011011012501001011MA1999999093901MD1999999-0011REMSYN011333   59001
