0115832290999991990010100004-13017-038517FM-12+005199999V0209991C00001220001CN9999999N9+02561+02271101291ADDAA106000091AG10999GF103991021011008001021001KA1240M+02981MA1999999100711MD1999999+0021REMSYN017333   10298 58002
0154832290999991990010112004-13017-038517FM-12+005199999V0201401N00151220001CN0100001N9+02811+02271101311ADDAA124000291AA299000391AG10999AY151061AY221061GF105991011021008001001011KA1240N+02351MA1999999100711MD1999999-0121MW1021REMSYN023333   20235 59012 69924
0096832290999991990010118004-13017-038517FM-12+005199999V0201401N00151045001CN0100001N9+02911+02301101121ADDAA106000091AG10999GF107991021081008001051001MA1999999100521MD1999999-0091REMSYN011333   59009
0115832290999991990010200004-13017-038517FM-12+005199999V0201401N00151045001CN9999999N9+02651+02251101091ADDAA106000091AG10999GF107991021081008001051001KA1240M+02981MA1999999100491MD1999999-0221REMSYN017333   10298 59022
0115832290999991990010212004-13017-038517FM-12+005199999V0200501N00151220001CN0200001N9+02781+02421101291ADDAA106000091AG10999GF104991041021008001001001KA1240N+02381MA1999999100711MD1999999+0001REMSYN017333   20238 58000
0124832290999991990010218004-13017-038517FM-12+005199999V0200901N00101045001CN0100001N9+02581+02311101111ADDAA106001091AG10999AY161061AY211061GF106991021041008001011001MA1999999100531MD1999999+0011MW1021REMSYN017333   58001 60011
0115832290999991990010300004-13017-038517FM-12+005199999V0200901N00101045001CN9999999N9+02481+02301101121ADDAA106000091AG10999GF106991021031008001021001KA1240M+02981MA1999999100531MD1999999+0071REMSYN017333   10298 58007
0121832290999991990010312004-13017-038517FM-12+005199999V0200501N00101007501CN0040001N9+02651+02311101221ADDAA124001091AG10999GF108991061051008001001011KA1240N+02381MA1999999100621MD1999999-0091REMSYN023333   20238 59009 60014
0096832290999991990010318004-13017-038517FM-12+005199999V0201401N00101045001CN0100001N9+02911+02481100961ADDAA106000091AG10999GF107991041051008001031011MA1999999100361MD1999999-0171REMSYN011333   59017
0115832290999991990010400004-13017-038517FM-12+005199999V0209991C00001007501CN9999999N9+02561+02381101121ADDAA106000091AG10999GF106991061051008001001001KA1240M+03001MA1999999100531MD1999999-0031REMSYN017333   10300 59003
0115832290999991990010412004-13017-038517FM-12+005199999V0209991C00001045001CN0040001N9+02641+02441101251ADDAA106000091AG10999GF108991021071008001021999KA1240N+02401MA1999999100661MD1999999+0041REMSYN017333   20240 58004
0124832290999991990010418004-13017-038517FM-12+005199999V0209991C00001045001CN0040001N9+02641+02461101151ADDAA106003091AG10999AY161061AY211061GF108991021071008001021999MA1999999100561MD1999999+0201MW1021REMSYN017333   58020 60031
0115832290999991990010500004-13017-038517FM-12+005199999V0209991C00001045001CN9999999N9+02461+02281101271ADDAA106000091AG10999GF106991021021008001051001KA1240M+02661MA1999999100671MD1999999+0141REMSYN017333   10266 58014
0143832290999991990010512004-13017-038517FM-12+005199999V0201401N00151045001CN0100001N9+02661+02461101211ADDAA124008091AG10999AY161061AY221061GF107991011011008001031011KA1240N+02321MA1999999100611MD1999999-0051MW1021REMSYN023333   20232 59005 60084
0124832290999991990010518004-13017-038517FM-12+005199999V0200901N00151220001CN0100001N9+02851+02381101021ADDAA106000591AG10999AY161061AY201061GF103991031021008001001001MA1999999100421MD1999999-0141MW1021REMSYN017333   59014 69951
0143832290999991990010612004-13017-038517FM-12+005199999V0200901N00151045001CN0100001N9+02601+02231101251ADDAA124002091AG10999AY161061AY221061GF105991021021008001031001KA1240N+02321MA1999999100651MD1999999+0041MW1021REMSYN023333   20232 58004 60024
0096832290999991990010618004-13017-038517FM-12+005199999V0200901N00151220001CN0200001N9+02801+02291101051ADDAA106000091AG10999GF103991031011008001001001MA1999999100471MD1999999+0051REMSYN011333   58005
0115832290999991990010700004-13017-038517FM-12+005199999V0200901N00101220001CN9999999N9+02481+02191101211ADDAA106000091AG10999GF104991021011008001031001KA1240M+03011MA1999999100621MD1999999-0051REMSYN017333   10301 59005
0143832290999991990010712004-13017-038517FM-12+005199999V0200901N00151220001CN0100001N9+02691+02241101261ADDAA124002091AG10999AY161061AY201061GF103991031021008001001001KA1240N+02291MA1999999100661MD1999999+0011MW1021REMSYN023333   20229 58001 60024
0096832290999991990010718004-13017-038517FM-12+005199999V0201401N00151045001CN0100001N9+02751+02281101011ADDAA106000091AG10999GF107991011021008001031011MA1999999100411MD1999999-0061REMSYN011333   59006
0115832290999991990010800004-13017-038517FM-12+005199999V0200901N00101220001CN9999999N9+02481+02111101101ADDAA106000091AG10999GF100991001001999999001001KA1240M+02881MA1999999100511MD1999999-0111REMSYN017333   10288 59011
0115832290999991990010812004-13017-038517FM-12+005199999V0201401N00101220001CN0200001N9+02821+02361101281ADDAA106000091AG10999GF104991041021008001001001KA1240N+02301MA1999999100701MD1999999+0041REMSYN017333   20230 58004
0115832290999991990010900004-13017-038517FM-12+005199999V0200901N00101220001CN9999999N9+02521+02271101121ADDAA106000091AG10999GF104991041021008001001001KA1240M+02931MA1999999100531MD1999999+0021REMSYN017333   10293 58002
0154832290999991990010912004-13017-038517FM-12+005199999V0200901N00151220001CN0200001N9+02861+02421101321ADDAA124000291AA299000391AG10999AY161061AY211061GF103991031021008001001001KA1240N+02381MA1999999100741MD1999999+0041MW1011REMSYN023333   20238 58004 69924
0102832290999991990010918004-13017-038517FM-12+005199999V0200501N00151220001CN0100001N9+02931+02361101021ADDAA106000191AG10999GF103991031021008001001001MA1999999100421MD1999999+0031REMSYN017333   58003 69911
0134832290999991990011000004-13017-038517FM-12+005199999V0201401N00151220001CN9999999N9+02551+02211101211ADDAA106000091AG10999GF101991011011999999001001KA1240M+03021MA1999999100611MD1999999+0081REMSYN017333   10302 58008EQDQ01+000992SCOLCB
0143832290999991990011012004-13017-038517FM-12+005199999V0200901N00101045001CN0200001N9+02801+02421101271ADDAA124000191AG10999AY111061AY261061GF105991021021008001051001KA1240N+02371MA1999999100691MD1999999-0051MW1031REMSYN023333   20237 59005 69914
0096832290999991990011018004-13017-038517FM-12+005199999V0200901N00151220001CN0040001N9+02831+02261101281ADDAA106000091AG10999GF105991041021004501001011MA1999999100681MD1999999+0261REMSYN011333   58026
0115832290999991990011100004-13017-038517FM-12+005199999V0200901N00101220001CN9999999N9+02521+02251101301ADDAA106000091AG10999GF100991001001999999001001KA1240M+02921MA1999999100711MD1999999-0101REMSYN017333   10292 59010
0115832290999991990011112004-13017-038517FM-12+005199999V0200901N00151220001CN0100001N9+02891+02411101331ADDAA106000091AG10999GF104991041051008001001001KA1240N+02321MA1999999100731MD1999999+0041REMSYN017333   20232 58004
0096832290999991990011118004-13017-038517FM-12+005199999V0201401N00151220001CN0100001N9+02981+02421101081ADDAA106000091AG10999GF101991011011008001001001MA1999999100481MD1999999-0201REMSYN011333   59020
0115832290999991990011212004-13017-038517FM-12+005199999V0200901N00151220001CN0200001N9+02841+02291101371ADDAA106000091AG10999GF104991041021008001001001KA1240N+02401MA1999999100791MD1999999+0061REMSYN017333   20240 58006
0096832290999991990011218004-13017-038517FM-12+005199999V0200501N00101220001CN0100001N9+03001+02371101201ADDAA106000091AG10999GF104991011011008001001021MA1999999100601MD1999999+0121REMSYN011333   58012
0115832290999991990011300004-13017-038517FM-12+005199999V0209991C00001220001CN9999999N9+02501+02231101321ADDAA106000091AG10999GF100991001001999999001001KA1240M+03041MA1999999100731MD1999999+0351REMSYN017333   10304 58035
0143832290999991990011312004-13017-038517FM-12+005199999V0201401N00101220001CN0100001N9+02801+02341101361ADDAA124002091AG10999AY161061AY201061GF103991031021008001001001KA1240N+02321MA1999999100761MD1999999-0031MW1021REMSYN023333   20232 59003 60024
0124832290999991990011318004-13017-038517FM-12+005199999V0201801N00151105001CN0100001N9+02601+02271101211ADDAA106004091AG10999AY161061AY221061GF105991011011008001031021MA1999999100611MD1999999+0011MW1021REMSYN017333   58001 60041
0115832290999991990011400004-13017-038517FM-12+005199999V0200901N00101045001CN9999999N9+02381+02211101311ADDAA106000091AG10999GF105991021021008001031001KA1240M+02931MA1999999100711MD1999999-0021REMSYN017333   10293 59002
0124832290999991990011412004-13017-038517FM-12+005199999V0201401N00101045001CN0100001N9+02521+02421101331ADDAA124013091AG10999AY161061AY211061GF105991041031008001011001MA1999999100741MD1999999-0021MW1011REMSYN017333   59002 60134
0115832290999991990011500004-13017-038517FM-12+005199999V0209991C00001220001CN9999999N9+02501+02151101151ADDAA106000091AG10999GF100991001001999999001001KA1240M+02961MA1999999100561MD1999999-0151REMSYN017333   10296 59015
0154832290999991990011512004-13017-038517FM-12+005199999V0201401N00151045001CN0100001N9+02701+02351101171ADDAA124000691AA299000591AG10999AY151061AY221061GF107991031021008001031011KA1240N+02231MA1999999100571MD1999999-0171MW1021REMSYN023333   20223 59017 69964
0115832290999991990011600004-13017-038517FM-12+005199999V0209991C00001220001CN9999999N9+02481+02251101051ADDAA106000091AG10999GF100991001001999999001001KA1240M+03001MA1999999100451MD1999999-0111REMSYN017333   10300 59011
0134832290999991990011612004-13017-038517FM-12+005199999V0209991C00001045001CN0100001N9+02351+02351101141ADDAA106000091AG10999GF106991041061008001011001KA1240N+99999MA1999999100561MD1999999-0011REMSYN017333   20244 59001EQDQ01 +02442ATMN  
0096832290999991990011618004-13017-038517FM-12+005199999V0200901N00101220001CN0200001N9+02961+02351100981ADDAA106000091AG10999GF100991001001999999001001MA1999999100401MD1999999+0051REMSYN011333   58005
0115832290999991990011700004-13017-038517FM-12+005199999V0209991C00001220001CN9999999N9+02541+02251101061ADDAA106000091AG10999GF100991001001999999001001KA1240M+03031MA1999999100471MD1999999+0021REMSYN017333   10303 58002
0115832290999991990011712004-13017-038517FM-12+005199999V0200501N00101220001CN0100001N9+02931+02361101141ADDAA106000091AG10999GF103991031021008001001001KA1240N+02381MA1999999100541MD1999999-0021REMSYN017333   20238 59002
0096832290999991990011718004-13017-038517FM-12+005199999V0201401N00151220001CN0100001N9+02891+02411100961ADDAA106000091AG10999GF103991011021008001001011MA1999999100361MD1999999-0041REMSYN011333   59004
0115832290999991990011800004-13017-038517FM-12+005199999V0209991C00001220001CN9999999N9+02581+02291101141ADDAA106000091AG10999GF102991021011008001001001KA1240M+02981MA1999999100551MD1999999+0081REMSYN017333   10298 58008
0115832290999991990011812004-13017-038517FM-12+005199999V0200901N00101220001CN0200001N9+02921+02431101221ADDAA106000091AG10999GF104991041021008001001001KA1240N+02401MA1999999100641MD1999999+0101REMSYN017333   20240 58010
0096832290999991990011818004-13017-038517FM-12+005199999V0201401N00151007501CN0200001N9+02921+02341101051ADDAA106000091AG10999GF105991051021008001001001MA1999999100471MD1999999+0111REMSYN011333   58011
0115832290999991990011900004-13017-038517FM-12+005199999V0209991C00001007501CN9999999N9+02561+02291101201ADDAA106000091AG10999GF105991051031008001001001KA1240M+03051MA1999999100611MD1999999+0061REMSYN017333   10305 58006
0143832290999991990011912004-13017-038517FM-12+005199999V0201401N00151220001CN0100001N9+02801+02341101201ADDAA124001091AG10999AY161061AY221061GF102991021021008001001001KA1240N+02401MA1999999100601MD1999999-0041MW1021REMSYN023333   20240 59004 60014
0124832290999991990011918004-13017-038517FM-12+005199999V0200501N00101007501CN0100001N9+02561+02351101051ADDAA106003091AG10999AY161061AY221061GF107991071051008001001001MA1999999100451MD1999999-0021MW1021REMSYN017333   59002 60031
0115832290999991990012000004-13017-038517FM-12+005199999V0209991C00001220001CN9999999N9+02521+02231101141ADDAA106000091AG10999GF100991001001999999001001KA1240M+02981MA1999999100551MD1999999-0061REMSYN017333   10298 59006
0143832290999991990012012004-13017-038517FM-12+005199999V0200901N00151220001CN0200001N9+02841+02311101241ADDAA124005091AG10999AY161061AY211061GF103991031021008001001001KA1240N+02301MA1999999100661MD1999999+0061MW1011REMSYN023333   20230 58006 60054
0096832290999991990012018004-13017-038517FM-12+005199999V0201401N00101220001CN0200001N9+02901+02341101021ADDAA106000091AG10999GF102991021011008001001001MA1999999100441MD1999999-0011REMSYN011333   59001
0115832290999991990012100004-13017-038517FM-12+005199999V0209991C00001220001CN9999999N9+02561+02211101191ADDAA106000091AG10999GF100991001001999999001001KA1240M+02951MA1999999100601MD1999999+0061REMSYN017333   10295 58006
0154832290999991990012112004-13017-038517FM-12+005199999V0201401N00101220001CN0100001N9+02701+02391101171ADDAA124000891AA299001091AG10999AY151061AY201061GF104991041021008001001001KA1240N+02341MA1999999100571MD1999999-0091MW1021REMSYN023333   20234 59009 69984
0096832290999991990012118004-13017-038517FM-12+005199999V0200901N00151220001CN0100001N9+02951+02331100881ADDAA106000091AG10999GF101991011011008001001001MA1999999100981MD1999999-0161REMSYN011333   59016
0115832290999991990012200004-13017-038517FM-12+005199999V0200901N00101220001CN9999999N9+02561+02231101141ADDAA106000091AG10999GF102991021011008001001001KA1240M+03041MA1999999100561MD1999999-0041REMSYN017333   10304 59004
0162832290999991990012212004-13017-038517FM-12+005199999V0202701N00101045001CN0040001N9+02461+02391101251ADDAA124005091AG10999AY161061AY211061GF108991041071004501011999KA1240N+02371MA1999999100651MD1999999+0091MW1021REMSYN023333   20237 58009 60054EQDQ01+999990APOSP 
0096832290999991990012218004-13017-038517FM-12+005199999V0200901N00151220001CN0200001N9+02821+02561100941ADDAA106000091AG10999GF102991021011008001001001MA1999999100361MD1999999+0081REMSYN011333   58008
0115832290999991990012300004-13017-038517FM-12+005199999V0209991C00001220001CN9999999N9+02551+02311101081ADDAA106000091AG10999GF100991001001999999001001KA1240M+02831MA1999999100491MD1999999-0071REMSYN017333   10283 59007
0115832290999991990012312004-13017-038517FM-12+005199999V0200501N00151220001CN0200001N9+02781+02321101201ADDAA106000091AG10999GF104991041021008001001001KA1240N+02381MA1999999100621MD1999999-0041REMSYN017333   20238 59004
0096832290999991990012318004-13017-038517FM-12+005199999V0201401N00151220001CN0100001N9+03011+02391100881ADDAA106000091AG10999GF101991011011008001001001MA1999999100281MD1999999-0081REMSYN011333   59008
0115832290999991990012400004-13017-038517FM-12+005199999V0200901N00151220001CN9999999N9+02651+01251100871ADDAA106000091AG10999GF102991021011008001001001KA1240M+03101MA1999999100271MD1999999-0221REMSYN017333   10310 59022
0115832290999991990012412004-13017-038517FM-12+005199999V0201401N00101220001CN0200001N9+02881+02391101111ADDAA106000091AG10999GF104991041021008001001001KA1240N+02351MA1999999100531MD1999999-0091REMSYN017333   20235 59009
0115832290999991990012500004-13017-038517FM-12+005199999V0209991C00001220001CN9999999N9+02551+02291101031ADDAA106000091AG10999GF102991021011008001001001KA1240M+03161MA1999999100431MD1999999+0161REMSYN017333   10316 58016
0115832290999991990012512004-13017-038517FM-12+005199999V0201401N00151220001CN0100001N9+02871+02331101101ADDAA106000091AG10999GF103991031021008001001001KA1240N+02381MA1999999100501MD1999999-0031REMSYN017333   20238 59003
0096832290999991990012518004-13017-038517FM-12+005199999V0201401N00151105001CN0100001N9+02931+02241100921ADDAA106000091AG10999GF105991031021008001001021MA1999999100321MD1999999+0051REMSYN011333   58005
0115832290999991990012600004-13017-038517FM-12+005199999V0209991C00001220001CN9999999N9+02591+02291101131ADDAA106000091AG10999GF102991021011008001001001KA1240M+03041MA1999999100541MD1999999+0111REMSYN017333   10304 58011
0115832290999991990012612004-13017-038517FM-12+005199999V0200901N00151220001CN0200001N9+02921+02391101221ADDAA106000091AG10999GF104991041021008001001001KA1240N+02421MA1999999100641MD1999999+0141REMSYN017333   20242 58014
0096832290999991990012618004-13017-038517FM-12+005199999V0200901N00151220001CN0200001N9+03021+02501101011ADDAA106000091AG10999GF102991021011008001001001MA1999999100431MD1999999+0111REMSYN011333   58011
0115832290999991990012712004-13017-038517FM-12+005199999V0200901N00151220001CN0100001N9+02911+02201101401ADDAA106000091AG10999GF103991031021008001001001KA1240N+02481MA1999999100801MD1999999+0161REMSYN017333   20248 58016
0096832290999991990012718004-13017-038517FM-12+005199999V0201401N00151220001CN0100001N9+03011+02371101151ADDAA106000091AG10999GF101991011011008001001001MA1999999100551MD1999999+0121REMSYN011333   58012
0115832290999991990012800004-13017-038517FM-12+005199999V0209991C00001220001CN9999999N9+02561+01191101311ADDAA106000091AG10999GF100991001001999999001001KA1240M+03101MA1999999100721MD1999999+0081REMSYN017333   10310 58008
0115832290999991990012812004-13017-038517FM-12+005199999V0200901N00151220001CN0200001N9+02941+02381101201ADDAA106000091AG10999GF102991021011008001001001KA1240N+02461MA1999999100621MD1999999-0181REMSYN017333   20246 59018
0096832290999991990012818004-13017-038517FM-12+005199999V0200901N00151220001CN0200001N9+03041+02431101041ADDAA106000091AG10999GF105991041011008001001061MA1999999100461MD1999999-0091REMSYN011333   59009
0143832290999991990012912004-13017-038517FM-12+005199999V0201401N00151007501CN0040001N9+02461+02301101191ADDAA124000391AG10999AY151061AY221061GF108991081051008001999999KA1240N+02411MA1999999100591MD1999999-0031MW1021REMSYN023333   20241 59003 69934
0124832290999991990012918004-13017-038517FM-12+005199999V0201401N00151007501CN0040001N9+02671+02221100971ADDAA106000191AG10999AY151061AY221061GF108991081051008001999999MA1999999100371MD1999999-0091MW1021REMSYN017333   59009 69911
0121832290999991990013000004-13017-038517FM-12+005199999V0209991C00001045001CN9999999N9+02401+02311101141ADDAA106005091AG10999GF108991041071004501011999KA1240M+02941MA1999999100541MD1999999-0101REMSYN023333   10294 59010 60051
0143832290999991990013012004-13017-038517FM-12+005199999V0200901N00211045001CN0200001N9+02881+02351101221ADDAA124008091AG10999AY161061AY261061GF106991041011008001081001KA1240N+02281MA1999999100641MD1999999+0051MW1021REMSYN023333   20228 58005 60084
0096832290999991990013018004-13017-038517FM-12+005199999V0201401N00151220001CN0200001N9+02881+02521101111ADDAA106000091AG10999GF104991031021008001001031MA1999999100531MD1999999+0161REMSYN011333   58016
0115832290999991990013100004-13017-038517FM-12+005199999V0209991C00001220001CN9999999N9+02521+02251101251ADDAA106000091AG10999GF102991021011008001001001KA1240M+03041MA1999999100661MD1999999+0121REMSYN017333   10304 58012
0143832290999991990013112004-13017-038517FM-12+005199999V0209991C00001220001CN0200001N9+02861+02391101351ADDAA124001091AG10999AY161061AY211061GF103991031011008001001001KA1240N+02251MA1999999100771MD1999999+0131MW1011REMSYN023333   20225 58013 60014
0124832290999991990013118004-13017-038517FM-12+005199999V0201401N00411045001CN0500001N9+02701+02351101231ADDAA106002091AG10999AY191061AY261061GF106991041091008001061001MA1999999100211MD1999999+0111MW1011REMSYN017333   58011 60021
0115832290999991990020100004-13017-038517FM-12+005199999V0201401N00151220001CN9999999N9+02771+02281101371ADDAA106000091AG10999GF102991021011008001001001KA1240M+03001MA1999999100771MD1999999+0071REMSYN017333   10300 58007
0115832290999991990020112004-13017-038517FM-12+005199999V0201401N00151007501CN0200001N9+02721+02341101341ADDAA106000091AG10999GF105991051031008001001001KA1240N+02421MA1999999100761MD1999999-0011REMSYN017333   20242 59001
0137832290999991990020118004-13017-038517FM-12+005199999V0200901N003119999999N0200001N9+03391+01751100821ADDAA106000091AG10999GF105991999999008001999999MA1999999100241MD1999999-0171REMSYN017333   58208 59017EQDQ01+095943APOSP Q02+999990APOSP 
0115832290999991990020200004-13017-038517FM-12+005199999V0201401N00101220001CN9999999N9+02581+02331101381ADDAA106000091AG10999GF104991041021008001001001KA1240M+03001MA1999999100791MD1999999+0021REMSYN017333   10300 58002
0115832290999991990020212004-13017-038517FM-12+005199999V0201401N00101220001CN0100001N9+02861+02391101291ADDAA106000091AG10999GF104991041021008001001001KA1240N+02461MA1999999100691MD1999999-0071REMSYN017333   20246 59007
0096832290999991990020218004-13017-038517FM-12+005199999V0201401N00101220001CN0100001N9+02941+02331101191ADDAA106000091AG10999GF101991011021008001001001MA1999999100591MD1999999-0071REMSYN011333   59007
0115832290999991990020300004-13017-038517FM-12+005199999V0201401N00151220001CN9999999N9+02791+02341101331ADDAA106000091AG10999GF101991011011008001001001KA1240M+03011MA1999999100731MD1999999-0061REMSYN017333   10301 59006
0143832290999991990020312004-13017-038517FM-12+005199999V0209991C00001220001CN0200001N9+02781+02371101301ADDAA124000191AG10999AY161061AY211061GF104991041021008001001001KA1240N+02491MA1999999100721MD1999999+0031MW1011REMSYN023333   20249 58003 69914
0096832290999991990020318004-13017-038517FM-12+005199999V0201401N00151220001CN0200001N9+03061+02471101141ADDAA106000091AG10999GF102991021011008001001001MA1999999100561MD1999999-0031REMSYN011333   59003
0115832290999991990020400004-13017-038517FM-12+005199999V0209991C00001220001CN9999999N9+02501+02381101281ADDAA106000091AG10999GF103991021021022501011001KA1240M+03101MA1999999100691MD1999999-0081REMSYN017333   10310 59008
0115832290999991990020412004-13017-038517FM-12+005199999V0201401N00151220001CN0100001N9+02941+02191101291ADDAA106000091AG10999GF103991031021008001001001KA1240N+02481MA1999999100691MD1999999-0031REMSYN017333   20248 59003
0096832290999991990020418004-13017-038517FM-12+005199999V0201401N00101007501CN0200001N9+02991+02441101171ADDAA106000091AG10999GF105991051021008001001001MA1999999100591MD1999999+0031REMSYN011333   58003
0115832290999991990020500004-13017-038517FM-12+005199999V0209991C00001220001CN9999999N9+02521+02171101241ADDAA106000091AG10999GF100991001001999999001001KA1240M+03061MA1999999100651MD1999999-0041REMSYN017333   10306 59004
0115832290999991990020512004-13017-038517FM-12+005199999V0200501N00101220001CN0100001N9+02801+02251101391ADDAA106000091AG10999GF104991041021008001001001KA1240N+02411MA1999999100791MD1999999+0101REMSYN017333   20241 58010
0096832290999991990020518004-13017-038517FM-12+005199999V0200901N00151220001CN0100001N9+03031+02341101121ADDAA106000091AG10999GF101991011011008001001001MA1999999100521MD1999999-0071REMSYN011333   59007
0115832290999991990020600004-13017-038517FM-12+005199999V0200901N00101220001CN9999999N9+02581+02211101261ADDAA106000091AG10999GF102991021011008001001001KA1240M+03061MA1999999100671MD1999999+0021REMSYN017333   10306 58002
0143832290999991990020612004-13017-038517FM-12+005199999V0200901N00151045001CN0100001N9+02581+02381101291ADDAA124011091AG10999AY161061AY211061GF106991021031008001041001KA1240N+02211MA1999999100701MD1999999-0091MW1011REMSYN023333   20221 59009 60114
0135832290999991990020618004-13017-038517FM-12+005199999V0200901N00101220001CN0200001N9+02841+02441101131ADDAA106000291AA299000391AG10999AY161061AY261061GF104991041031008001001001MA1999999100551MD1999999+0031MW1011REMSYN017333   58003 69921
0115832290999991990020700004-13017-038517FM-12+005199999V0200901N00101220001CN9999999N9+02561+02191101231ADDAA106000091AG10999GF104991041031008001001001KA1240M+02991MA1999999100631MD1999999-0041REMSYN017333   10299 59004
0154832290999991990020712004-13017-038517FM-12+005199999V0201401N00101220001CN0200001N9+02801+02271101311ADDAA124000291AA299000391AG10999AY111061AY261061GF102991021011008001001001KA1240N+02421MA1999999100731MD1999999+0031MW1011REMSYN023333   20242 58003 69924
0096832290999991990020718004-13017-038517FM-12+005199999V0201401N00151220001CN0100001N9+02851+02291101141ADDAA106000091AG10999GF102991021021008001001001MA1999999100541MD1999999-0011REMSYN011333   59001
0115832290999991990020800004-13017-038517FM-12+005199999V0209991C00001220001CN9999999N9+02571+02231101241ADDAA106000091AG10999GF103991021011008001001031KA1240M+02961MA1999999100651MD1999999+0021REMSYN017333   10296 58002
0115832290999991990020812004-13017-038517FM-12+005199999V0200901N00101220001CN0100001N9+02791+02211101221ADDAA106000091AG10999GF105991031021008001001011KA1240N+02441MA1999999100621MD1999999-0111REMSYN017333   20244 59011
0096832290999991990020818004-13017-038517FM-12+005199999V0200901N00151105001CN0100001N9+02851+02221101001ADDAA106000091AG10999GF105991011011008001001021MA1999999100401MD1999999-0141REMSYN011333   59014
0115832290999991990020900004-13017-038517FM-12+005199999V0209999999999220001CN9999999N9+02621+02271101091ADDAA106000091AG10999GF100991001001999999001001KA1240M+03021MA1999999100501MD1999999-0151REMSYN017333   10302 59015
0115832290999991990020912004-13017-038517FM-12+005199999V0209991C00001007501CN0100001N9+02741+02281101161ADDAA106000091AG10999GF105991051031008001001001KA1240N+02401MA1999999100581MD1999999-0041REMSYN017333   20240 59004
0115832290999991990021000004-13017-038517FM-12+005199999V0209991C00001220001CN9999999N9+02581+02171100971ADDAA106000091AG10999GF100991001001999999001001KA1240M+03081MA1999999100381MD1999999-0121REMSYN017333   10308 59012
0115832290999991990021012004-13017-038517FM-12+005199999V0202701N00101220001CN0100001N9+02641+02271101011ADDAA106000091AG10999GF104991041051008001001001KA1240N+02381MA1999999100411MD1999999+0171REMSYN017333   20238 58017
0096832290999991990021018004-13017-038517FM-12+005199999V0201401N00101220001CN0100001N9+02861+02261100741ADDAA106000091AG10999GF101991011011008001001001MA1999999100141MD1999999-0181REMSYN011333   59018
0115832290999991990021100004-13017-038517FM-12+005199999V0209991C00001220001CN9999999N9+02581+02101100851ADDAA106000091AG10999GF100991001001999999001001KA1240M+03001MA1999999100271MD1999999-0111REMSYN017333   10300 59011
0115832290999991990021112004-13017-038517FM-12+005199999V0203201N00101220001CN0100001N9+02771+02401101051ADDAA106000091AG10999GF102991021011008001001001KA1240N+02431MA1999999100451MD1999999+0041REMSYN017333   20243 58004
0096832290999991990021118004-13017-038517FM-12+005199999V0201401N00151220001CN0200001N9+03001+02491100791ADDAA106000091AG10999GF102991001001999999001021MA1999999100211MD1999999+0071REMSYN011333   58007
0115832290999991990021200004-13017-038517FM-12+005199999V0209991C00001220001CN9999999N9+02661+02411100921ADDAA106000091AG10999GF102991021011008001001001KA1240M+03181MA1999999100331MD1999999+0061REMSYN017333   10318 58006
0115832290999991990021212004-13017-038517FM-12+005199999V0200501N00101220001CN0100001N9+02751+02321101041ADDAA106000091AG10999GF104991041021008001001001KA1240N+02461MA1999999100441MD1999999-0011REMSYN017333   20246 59001
0096832290999991990021218004-13017-038517FM-12+005199999V0201401N00151220001CN0100001N9+03111+02651100801ADDAA106000091AG10999GF102991021011008001001001MA1999999100201MD1999999-0011REMSYN011333   59001
0115832290999991990021300004-13017-038517FM-12+005199999V0209991C00001220001CN9999999N9+02661+02431100971ADDAA106000091AG10999GF103991031021008001001001KA1240M+03151MA1999999100381MD1999999+0051REMSYN017333   10315 58005
0115832290999991990021312004-13017-038517FM-12+005199999V0200901N00151007501CN0200001N9+02801+02381101051ADDAA106000091AG10999GF105991051031008001001001KA1240N+02491MA1999999100471MD1999999+0031REMSYN017333   20249 58003
0096832290999991990021318004-13017-038517FM-12+005199999V0201401N00151220001CN0200001N9+03021+02441100761ADDAA106000091AG10999GF104991041031008001001011MA1999999100181MD1999999-0021REMSYN011333   59002
0115832290999991990021400004-13017-038517FM-12+005199999V0200901N00151220001CN9999999N9+02621+02311100921ADDAA106000091AG10999GF100991001001999999001001KA1240M+03071MA1999999100331MD1999999-0051REMSYN017333   10307 59005
0115832290999991990021412004-13017-038517FM-12+005199999V0203601N00151045001CN0100001N9+02701+02451101011ADDAA106000091AG10999GF106991041031008001011001KA1240N+02451MA1999999100431MD1999999-0041REMSYN017333   20245 59004
0096832290999991990021418004-13017-038517FM-12+005199999V0200501N00101105001CN0200001N9+03081+02561100651ADDAA106000091AG10999GF105991041031008001001021MA1999999100071MD1999999-0111REMSYN011333   59011
0115832290999991990021500004-13017-038517FM-12+005199999V0209991C00001220001CN9999999N9+02701+02451100821ADDAA106000091AG10999GF100991001001999999001001KA1240M+03171MA1999999100241MD1999999-0091REMSYN017333   10317 59009
0115832290999991990021512004-13017-038517FM-12+005199999V0203201N00151045001CN0100001N9+02751+02301101071ADDAA106000091AG10999GF107991041081008001031001KA1240N+02521MA1999999100471MD1999999+0011REMSYN017333   20252 58001
0096832290999991990021518004-13017-038517FM-12+005199999V0203601N00101045001CN0100001N9+03091+02321100741ADDAA106000091AG10999GF107991031081008001051001MA1999999100141MD1999999+0041REMSYN011333   58004
0115832290999991990021600004-13017-038517FM-12+005199999V0209991C00001220001CN9999999N9+02701+02411100921ADDAA106000091AG10999GF100991001001999999001001KA1240M+03101MA1999999100341MD1999999+0101REMSYN017333   10310 58010
0115832290999991990021612004-13017-038517FM-12+005199999V0203601N00151012001CN0100001N9+02791+02401101011ADDAA106000091AG10999GF106991061081008001001001KA1240N+02521MA1999999100411MD1999999-0061REMSYN017333   20252 59006
0096832290999991990021618004-13017-038517FM-12+005199999V0200501N00151045001CN0100001N9+02891+02371100691ADDAA106000091AG10999GF107991041081008001051001MA1999999100091MD1999999-0051REMSYN011333   59005
0115832290999991990021700004-13017-038517FM-12+005199999V0209991C00001045001CN9999999N9+02681+02461100981ADDAA106000091AG10999GF105991041041008001011001KA1240M+03181MA1999999100391MD1999999+0051REMSYN017333   10318 58005
0143832290999991990021712004-13017-038517FM-12+005199999V0203201N00101045001CN0100001N9+02561+02171101081ADDAA124017091AG10999AY161061AY221061GF107991021081008001031001KA1240N+02141MA1999999100481MD1999999+0071MW1021REMSYN023333   20214 58007 60174
0115832290999991990021800004-13017-038517FM-12+005199999V0209991C00001007501CN9999999N9+02581+02371101121ADDAA106000091AG10999GF105991051041008001001001KA1240M+03121MA1999999100531MD1999999+0141REMSYN017333   10312 58014
0115832290999991990021812004-13017-038517FM-12+005199999V0203601N00101045001CN0100001N9+02721+02501101311ADDAA106000091AG10999GF105991021021008001031001KA1240N+02491MA1999999100731MD1999999+0251REMSYN017333   20249 58025
0096832290999991990021818004-13017-038517FM-12+005199999V0201801N00101220001CN0200001N9+03141+02531101031ADDAA106000091AG10999GF104991041031008001001001MA1999999100451MD1999999+0201REMSYN011333   58020
0115832290999991990021900004-13017-038517FM-12+005199999V0200901N00151007501CN9999999N9+02681+02461101191ADDAA106000091AG10999GF105991051051008001001001KA1240M+03241MA1999999100611MD1999999+0081REMSYN017333   10324 58008
0115832290999991990021912004-13017-038517FM-12+005199999V0203601N00101045001CN0100001N9+02801+02581101221ADDAA106000091AG10999GF106991021061008001011001KA1240N+02481MA1999999100641MD1999999-0091REMSYN017333   20248 59009
0096832290999991990021918004-13017-038517FM-12+005199999V0200901N00151220001CN0200001N9+03041+02481100961ADDAA106000091AG10999GF100991001001999999001001MA1999999100381MD1999999-0071REMSYN011333   59007
0062832290999991990022000004-13017-038517FM-12+005199999V0200501N00151220001CN9999999N9+02651+02391101111ADDAA106000091AG10999GF104991041001012501031001MA1999999100521
0129832290999991990022012004-13017-038517FM-12+005199999V0209991C00001045001CN0100001N9+02781+02501101341ADDAA124005091AG10999AY161061AY211061GF106991021041008001031001KA1240N+02431MA1999999100761MW1021REMSYN023333   20243 55801 60054
0096832290999991990022018004-13017-038517FM-12+005199999V0201801N00151220001CN0200001N9+02751+02481101151ADDAA106000091AG10999GF104991021011008001051001MA1999999100571MD1999999+0191REMSYN011333   58019
0115832290999991990022100004-13017-038517FM-12+005199999V0209991C00001220001CN9999999N9+02561+02381101271ADDAA106000091AG10999GF102991021011008001001001KA1240M+02961MA1999999100681MD1999999+0161REMSYN017333   10296 58016
0154832290999991990022112004-13017-038517FM-12+005199999V0202301N00101045001CN0100001N9+02581+02531101281ADDAA124000891AA299001091AG10999AY161061AY211061GF106991021041008001021001KA1240N+02431MA1999999100691MD1999999-0071MW1961REMSYN023333   20243 59007 69984
0124832290999991990022118004-13017-038517FM-12+005199999V0201401N00151045001CN0200001N9+02881+02461101061ADDAA106000191AG10999AY161061AY261061GF105991021021008001031001MA1999999100481MD1999999-0091MW1021REMSYN017333   59009 69911
0115832290999991990022200004-13017-038517FM-12+005199999V0209991C00001220001CN9999999N9+02591+02381101221ADDAA106000091AG10999GF100991001001999999001001KA1240M+02951MA1999999100631MD1999999-0051REMSYN017333   10295 59005
0121832290999991990022212004-13017-038517FM-12+005199999V0202701N00101007501CN0100001N9+02751+02501101271ADDAA124000191AG10999GF107991071051008001001001KA1240N+02431MA1999999100671MD1999999-0021REMSYN023333   20243 59002 69914
0096832290999991990022218004-13017-038517FM-12+005199999V0202301N00151220001CN0100001N9+03011+02641101071ADDAA106000091AG10999GF100991001001999999001001MA1999999100471MD1999999-0011REMSYN011333   59001
0115832290999991990022300004-13017-038517FM-12+005199999V0209991C00001220001CN9999999N9+02661+02411101121ADDAA106000091AG10999GF100991001001999999001001KA1240M+03021MA1999999100531MD1999999-0101REMSYN017333   10302 59010
0062832290999991990022312004-13017-038517FM-12+005199999V0203201N001019999999N0100001N9+02691+02541101001ADDAA106000091AG10999GF107991999999008001999999MA1999999100411
0096832290999991990022318004-13017-038517FM-12+005199999V0200501N00151220001CN0100001N9+03081+02651100801ADDAA106000091AG10999GF104991011021008001001021MA1999999100201MD1999999-0271REMSYN011333   59027
0115832290999991990022400004-13017-038517FM-12+005199999V0209991C00001220001CN9999999N9+02671+02431100901ADDAA106000091AG10999GF100991001001999999001001KA1240M+03061MA1999999100321MD1999999-0211REMSYN017333   10306 59021
0115832290999991990022412004-13017-038517FM-12+005199999V0203201N00151105001CN0100001N9+02721+02481101011ADDAA106000091AG10999GF106991041051008001001021KA1240N+02481MA1999999100411MD1999999+0001REMSYN017333   20248 58000
0096832290999991990022418004-13017-038517FM-12+005199999V0201401N00151105001CN0100001N9+02991+02551100681ADDAA106000091AG10999GF107991041051008001001021MA1999999100081MD1999999-0121REMSYN011333   59012
0115832290999991990022500004-13017-038517FM-12+005199999V0209991C00001220001CN9999999N9+02661+02461100841ADDAA106000091AG10999GF100991001001999999001001KA1240M+03021MA1999999100251MD1999999-0071REMSYN017333   10302 59007
0115832290999991990022512004-13017-038517FM-12+005199999V0203601N00101220001CN0200001N9+02761+02501101121ADDAA106000091AG10999GF104991041021008001001001KA1240N+02491MA1999999100541MD1999999+0131REMSYN017333   20249 58013
0096832290999991990022518004-13017-038517FM-12+005199999V0209991C00001220001CN0200001N9+03101+02511100801ADDAA106000091AG10999GF102991001001999999001081MA1999999100201MD1999999+0141REMSYN011333   58014
0115832290999991990022600004-13017-038517FM-12+005199999V0201901N00101220001CN9999999N9+02651+02391100871ADDAA106000091AG10999GF102991021011008001001021KA1240M+03281MA1999999100281MD1999999+0031REMSYN017333   10328 58003
0115832290999991990022612004-13017-038517FM-12+005199999V0201401N00151007501CN0100001N9+02991+02471101091ADDAA106000091AG10999GF105991051021008001001001KA1240N+02481MA1999999100491MD1999999-0051REMSYN017333   20248 59005
0096832290999991990022618004-13017-038517FM-12+005199999V0200501N00151220001CN0100001N9+03091+02631100871ADDAA106000091AG10999GF101991011011008001001001MA1999999100271MD1999999+0051REMSYN011333   58005
0115832290999991990022700004-13017-038517FM-12+005199999V0201401N00151220001CN9999999N9+02731+02281100961ADDAA106000091AG10999GF101991011011008001001001KA1240M+03201MA1999999100361MD1999999+0081REMSYN017333   10320 58008
0115832290999991990022712004-13017-038517FM-12+005199999V0201401N00101220001CN0200001N9+02921+02341101121ADDAA106000091AG10999GF103991031011008001001001KA1240N+02381MA1999999100541MD1999999+0051REMSYN017333   20238 58005
0096832290999991990022718004-13017-038517FM-12+005199999V0201401N00101220001CN0200001N9+03021+02341100911ADDAA106000091AG10999GF100991001001999999001001MA1999999100331MD1999999+0061REMSYN011333   58006
0115832290999991990022800004-13017-038517FM-12+005199999V0209991C00001220001CN9999999N9+02561+02211101061ADDAA106000091AG10999GF102991021011008001001001KA1240M+03081MA1999999100471MD1999999+0111REMSYN017333   10308 58011
0115832290999991990022812004-13017-038517FM-12+005199999V0201401N00101045001CN0200001N9+02921+02471101151ADDAA106000091AG10999GF105991031021008001011001KA1240N+02441MA1999999100571MD1999999+0031REMSYN017333   20244 58003
0096832290999991990022818004-13017-038517FM-12+005199999V0201401N00151045001CN0200001N9+03041+02501100971ADDAA106000091AG10999GF105991021021008001041001MA1999999100391MD1999999+0061REMSYN011333   58006
0115832290999991990030100004-13017-038517FM-12+005199999V0209991C00001220001CN9999999N9+02661+02391101161ADDAA106000091AG10999GF103991031011008001001001KA1240M+03131MA1999999100571MD1999999+0101REMSYN017333   10313 58010
0143832290999991990030112004-13017-038517FM-12+005199999V0203601N00101105001CN0040001N9+02471+02321101331ADDAA124022091AG19005AY161061AY221061GF107991041081008001001021KA1240N+02281MA1999999100731MD1999999+0161MW1021REMSYN023333   20228 58016 60224
0096832290999991990030118004-13017-038517FM-12+005199999V0201401N00151045001CN0100001N9+02801+02641101231ADDAA106000091AG10999GF107991021021008001031011MA1999999100631MD1999999+0241REMSYN011333   58024
0143832290999991990030200004-13017-038517FM-12+005199999V0209991C00001220001CN9999999N9+02541+02351101401ADDAA106001091AG10999AY161061AY221061GF103991031021008001001001KA1240M+02821MA1999999100811MD1999999+0271MW1011REMSYN023333   10282 58027 60011
0143832290999991990030212004-13017-038517FM-12+005199999V0201401N00151045001CN0100001N9+02731+02431101431ADDAA124003091AG10999AY161061AY221061GF105991011021008001031001KA1240N+02421MA1999999100831MD1999999+0101MW1021REMSYN023333   20242 58010 60034
0096832290999991990030218004-13017-038517FM-12+005199999V0200501N00151045001CN0100001N9+02951+02461101261ADDAA106000091AG10999GF106991011021008001031011MA1999999100661MD1999999+0031REMSYN011333   58003
0115832290999991990030300004-13017-038517FM-12+005199999V0209991C00001007501CN9999999N9+02621+02371101361ADDAA106000091AG10999GF105991051041008001001001KA1240M+03021MA1999999100771MD1999999-0041REMSYN017333   10302 59004
0115832290999991990030312004-13017-038517FM-12+005199999V0201801N00101220001CN0100001N9+02841+02481101421ADDAA106000091AG10999GF103991011021008001001011KA1240N+02481MA1999999100821MD1999999-0011REMSYN017333   20248 59001
0096832290999991990030318004-13017-038517FM-12+005199999V0201401N00151220001CN0200001N9+02881+02411101251ADDAA106000091AG10999GF104991041021008001001001MA1999999100671MD1999999+0011REMSYN011333   58001
0115832290999991990030400004-13017-038517FM-12+005199999V0201801N00101220001CN9999999N9+02601+02351101321ADDAA106000091AG10999GF103991031011008001001001KA1240M+03011MA1999999100731MD1999999-0041REMSYN017333   10301 59004
0115832290999991990030412004-13017-038517FM-12+005199999V0201801N00151220001CN0100001N9+02811+02481101311ADDAA106000091AG10999GF105991031021008001001011KA1240N+02471MA1999999100711MD1999999-0111REMSYN017333   20247 59011
0096832290999991990030418004-13017-038517FM-12+005199999V0201801N00151220001CN0100001N9+02691+02451101051ADDAA106000091AG10999GF105991021021008001001011MA1999999100451MD1999999-0221REMSYN011333   59022
0115832290999991990030500004-13017-038517FM-12+005199999V0209991C00001012001CN9999999N9+02521+02421101191ADDAA106000091AG10999GF106991061001012501021001KA1240M+02881MA1999999100601MD1999999-0131REMSYN017333   10288 59013
0143832290999991990030512004-13017-038517FM-12+005199999V0202301N00051220001CN0100001N9+02731+02451101291ADDAA124009091AG10999AY161061AY221061GF107991041081008001001011KA1240N+02321MA1999999100691MD1999999-0021MW1021REMSYN023333   20232 59002 60094
0096832290999991990030518004-13017-038517FM-12+005199999V0201401N00101045001CN0100001N9+02781+02521100961ADDAA106000091AG10999GF106991041011008001021001MA1999999100381MD1999999-0071REMSYN011333   59007
0115832290999991990030600004-13017-038517FM-12+005199999V0209991C00001220001CN9999999N9+02581+02311101221ADDAA106000091AG10999GF100991001001999999001001KA1240M+02881MA1999999100631MD1999999+0031REMSYN017333   10288 58003
0115832290999991990030612004-13017-038517FM-12+005199999V0202301N00151004201CN0100001N9+02791+02421101381ADDAA106000091AG10999GF105991051041004501001001KA1240N+02471MA1999999100781MD1999999+0091REMSYN017333   20247 58009
0115832290999991990030700004-13017-038517FM-12+005199999V0209991C00001220001CN9999999N9+02621+02391101251ADDAA106000091AG10999GF100991001001999999001001KA1240M+02861MA1999999100661MD1999999+0031REMSYN017333   10286 58003
0143832290999991990030712004-13017-038517FM-12+005199999V0209991C00001220001CN0200001N9+02841+02501101371ADDAA124005091AG10999AY161061AY211061GF104991041021008001001001KA1240N+02461MA1999999100791MD1999999+0011MW1011REMSYN023333   20246 58001 60054
0096832290999991990030718004-13017-038517FM-12+005199999V0200901N00151220001CN0200001N9+02921+02411101171ADDAA106000091AG10999GF103991021011008001031001MA1999999100591MD1999999+0101REMSYN011333   58010
0115832290999991990030800004-13017-038517FM-12+005199999V0209991C00001220001CN9999999N9+02581+02351101391ADDAA106000091AG10999GF100991001001999999001001KA1240M+03041MA1999999100801MD1999999+0141REMSYN017333   10304 58014
0115832290999991990030812004-13017-038517FM-12+005199999V0201401N00101007501CN0100001N9+02861+02441101461ADDAA106000091AG10999GF106991061041008001001001KA1240N+02471MA1999999100881MD1999999+0091REMSYN017333   20247 58009
0096832290999991990030818004-13017-038517FM-12+005199999V0201401N00101220001CN0200001N9+02961+02471101221ADDAA106000091AG10999GF103991031011008001001001MA1999999100641MD1999999+0051REMSYN011333   58005
0115832290999991990030912004-13017-038517FM-12+005199999V0201401N00101045001CN0200001N9+02961+02481101561ADDAA106000091AG10999GF105991021021008001031001KA1240N+02471MA1999999100981MD1999999+0101REMSYN017333   20247 58010
0115832290999991990031000004-13017-038517FM-12+005199999V0201801N00101220001CN9999999N9+02601+02371101541ADDAA106000091AG10999GF105991021021008001001041KA1240M+02901MA1999999100951MD1999999+0121REMSYN017333   10290 58012
0115832290999991990031012004-13017-038517FM-12+005199999V0201401N00151105001CN0100001N9+02791+02441101531ADDAA106000091AG10999GF106991041051008001001021KA1240N+02501MA1999999100931MD1999999-0051REMSYN017333   20250 59005
0124832290999991990031018004-13017-038517FM-12+005199999V0201801N00151105001CN0040001N9+02771+02441101221ADDAA106002091AG10999AY161061AY221061GF107991041081008001001021MA1999999100621MD1999999-0131MW1021REMSYN017333   59013 60021
0115832290999991990031100004-13017-038517FM-12+005199999V0209991C00001220001CN9999999N9+02541+02351101381ADDAA106000091AG10999GF100991001001999999001001KA1240M+02921MA1999999100791MD1999999-0161REMSYN017333   10292 59016
0162832290999991990031112004-13017-038517FM-12+005199999V0203201N002619999999N0040001N9+02601+02481101441ADDAA124005091AG10999AY161061AY221061GF107991999071008001999999KA1240N+02501MA1999999100841MD1999999-0091MW1021REMSYN023333   20250 59009 60054EQDQ01+000082SCOTLC
0096832290999991990031118004-13017-038517FM-12+005199999V0201801N00101220001CN0200001N9+02901+02521101131ADDAA106000091AG10999GF102991021011008001001001MA1999999100551MD1999999-0071REMSYN011333   59007
0115832290999991990031200004-13017-038517FM-12+005199999V0209991C00001220001CN9999999N9+02581+02401101301ADDAA106000091AG10999GF103991031021008001001001KA1240M+02961MA1999999100711MD1999999-0081REMSYN017333   10296 59008
0143832290999991990031212004-13017-038517FM-12+005199999V0200501N00151012001CN0100001N9+02781+02541101351ADDAA124004091AG10999AY161061AY221061GF106991061081008001001001KA1240N+02431MA1999999100751MD1999999-0091MW1021REMSYN023333   20243 59009 60044
0124832290999991990031218004-13017-038517FM-12+005199999V0201401N00151220001CN0100001N9+02941+02621101041ADDAA106008091AG10999AY161061AY201061GF103991011021008001001011MA1999999100441MD1999999-0111MW1021REMSYN017333   59011 60081
0115832290999991990031300004-13017-038517FM-12+005199999V0200901N00101220001CN9999999N9+02601+02371101161ADDAA106000091AG10999GF104991041021008001001001KA1240M+02971MA1999999100571MD1999999-0141REMSYN017333   10297 59014
0143832290999991990031312004-13017-038517FM-12+005199999V0203601N00101045001CN0100001N9+02761+02541101121ADDAA124008091AG10999AY111061AY261061GF105991021021008001041001KA1240N+02481MA1999999100541MD1999999-0211MW1021REMSYN023333   20248 59021 60084
0096832290999991990031318004-13017-038517FM-12+005199999V0201401N00151220001CN0200001N9+02901+02521100821ADDAA106000091AG10999GF103991031011008001001001MA1999999100241MD1999999-0201REMSYN011333   59020
0115832290999991990031400004-13017-038517FM-12+005199999V0209991C00001220001CN9999999N9+02661+02481100951ADDAA106000091AG10999GF100991001001999999001001KA1240M+03031MA1999999100361MD1999999-0211REMSYN017333   10303 59021
0115832290999991990031412004-13017-038517FM-12+005199999V0202301N00151045001CN0040001N9+02821+02581101051ADDAA106000091AG10999GF106991041051008001041001KA1240N+02541MA1999999100451MD1999999+0211REMSYN017333   20254 58021
0115832290999991990031418004-13017-038517FM-12+005199999V0200901N00151220001CN0200001N9+02931+02541100881ADDAA106000091AG10999GF103991999001008001041001MA1999999100281MD1999999+0011REMSYN011333   58001EQDQ01+000002SCOTLC
0115832290999991990031512004-13017-038517FM-12+005199999V0209991C00001045001CN0100001N9+02761+02381101101ADDAA106000091AG10999GF106991041031008001011001KA1240N+02481MA1999999100511MD1999999+0061REMSYN017333   20248 58006
0096832290999991990031518004-13017-038517FM-12+005199999V0200901N00101220001CN0200001N9+02981+02581100801ADDAA106000091AG10999GF103991021011008001001031MA1999999100221MD1999999-0011REMSYN011333   59001
0115832290999991990031600004-13017-038517FM-12+005199999V0209991C00001220001CN9999999N9+02701+02481100951ADDAA106000091AG10999GF100991001001999999001001KA1240M+03091MA1999999100361MD1999999-0011REMSYN017333   10309 59001
0115832290999991990031612004-13017-038517FM-12+005199999V0200501N00101007501CN0100001N9+02791+02421101131ADDAA106000091AG10999GF107991071051008001001001KA1240N+02521MA1999999100531MD1999999+0021REMSYN017333   20252 58002
0096832290999991990031618004-13017-038517FM-12+005199999V0200501N00151220001CN0100001N9+03051+02591100841ADDAA106000091AG10999GF101991011011008001001001MA1999999100241MD1999999+0021REMSYN011333   58002
0115832290999991990031700004-13017-038517FM-12+005199999V0209991C00001220001CN9999999N9+02681+02451100941ADDAA106000091AG10999GF100991001001999999001001KA1240M+03121MA1999999100351MD1999999-0011REMSYN017333   10312 59001
0115832290999991990031712004-13017-038517FM-12+005199999V0209991C00001220001CN0200001N9+02861+02371101221ADDAA106000091AG10999GF104991041021008001001001KA1240N+02481MA1999999100641MD1999999+0111REMSYN017333   20248 58011
0096832290999991990031718004-13017-038517FM-12+005199999V0200901N00101220001CN0200001N9+03001+02491100961ADDAA106000091AG10999GF100991001001999999001001MA1999999100381MD1999999+0141REMSYN011333   58014
0115832290999991990031800004-13017-038517FM-12+005199999V0209991C00001220001CN9999999N9+02651+02421101091ADDAA106000091AG10999GF102991021011008001001001KA1240M+03161MA1999999100501MD1999999+0151REMSYN017333   10316 58015
0115832290999991990031812004-13017-038517FM-12+005199999V0200501N00101007501CN0100001N9+02851+02521101291ADDAA106000091AG10999GF106991061051008001001001KA1240N+02521MA1999999100691MD1999999+0051REMSYN017333   20252 58005
0124832290999991990031818004-13017-038517FM-12+005199999V0201401N00151220001CN0100001N9+03051+02721101081ADDAA106002091AG10999AY161061AY201061GF101991011011008001001001MA1999999100481MD1999999+0101MW1021REMSYN017333   58010 60021
0143832290999991990031912004-13017-038517FM-12+005199999V0201401N00101220001CN0200001N9+02981+02491101391ADDAA124002091AG10999AY111061AY261061GF104991041021008001001001KA1240N+02501MA1999999100811MD1999999+0121MW1021REMSYN023333   20250 58012 60024
0096832290999991990031918004-13017-038517FM-12+005199999V0201401N00151220001CN0200001N9+03001+02491101101ADDAA106000091AG10999GF100991001001999999001001MA1999999100521MD1999999+0041REMSYN011333   58004
0115832290999991990032000004-13017-038517FM-12+005199999V0209991C00001220001CN9999999N9+02641+02371101231ADDAA106000091AG10999GF100991001001999999001001KA1240M+03131MA1999999100641MD1999999+0021REMSYN017333   10313 58002
0115832290999991990032012004-13017-038517FM-12+005199999V0201401N00151220001CN0200001N9+02981+02371101391ADDAA106000091AG10999GF103991031031004501001001KA1240N+02381MA1999999100791MD1999999-0021REMSYN017333   20238 59002
0096832290999991990032018004-13017-038517FM-12+005199999V0201401N00151220001CN0200001N9+02961+02451101001ADDAA106000091AG10999GF100991001001999999001001MA1999999100401MD1999999-0121REMSYN011333   59012
0115832290999991990032100004-13017-038517FM-12+005199999V0209991C00001220001CN9999999N9+02601+02331101121ADDAA106000091AG10999GF100991001001999999001001KA1240M+03081MA1999999100531MD1999999-0111REMSYN017333   10308 59011
0115832290999991990032112004-13017-038517FM-12+005199999V0201401N00101220001CN0200001N9+02921+02431101301ADDAA106000091AG10999GF104991041021008001041001KA1240N+02461MA1999999100721MD1999999-0071REMSYN017333   20246 59007
0096832290999991990032118004-13017-038517FM-12+005199999V0200501N00151220001CN0200001N9+02961+02581100961ADDAA106000091AG10999GF101991011011004501001001MA1999999100361MD1999999+0041REMSYN011333   58004
0115832290999991990032200004-13017-038517FM-12+005199999V0209991C00001220001CN9999999N9+02641+02351101071ADDAA106000091AG10999GF100991001001999999001001KA1240M+03081MA1999999100481MD1999999-0051REMSYN017333   10308 59005
0115832290999991990032212004-13017-038517FM-12+005199999V0201401N00151220001CN0100001N9+02891+02411101201ADDAA106000091AG10999GF104991041021008001001001KA1240N+02441MA1999999100601MD1999999-0031REMSYN017333   20244 59003
0096832290999991990032218004-13017-038517FM-12+005199999V0201401N00101220001CN0100001N9+03121+02501100841ADDAA106000091AG10999GF101991011011008001001001MA1999999100241MD1999999-0121REMSYN011333   59012
0115832290999991990032300004-13017-038517FM-12+005199999V0209991C00001220001CN9999999N9+02661+02431101001ADDAA106000091AG10999GF100991001001999999001001KA1240M+03121MA1999999100411MD1999999-0071REMSYN017333   10312 59007
0115832290999991990032312004-13017-038517FM-12+005199999V0201401N00101220001CN0100001N9+02841+02421101101ADDAA106000091AG10999GF106991041051008001001011KA1240N+02431MA1999999100501MD1999999-0101REMSYN017333   20243 59010
0096832290999991990032318004-13017-038517FM-12+005199999V0201401N00101220001CN0200001N9+03021+02461100761ADDAA106000091AG10999GF102991021011008001001011MA1999999100181MD1999999-0061REMSYN011333   59006
0134832290999991990032400004-13017-038517FM-12+005199999V0209991C00001220001CN9999999N9+02641+02371100941ADDAA106000091AG10999GF100991001001999999001001KA1240M+03071MA1999999100351MD1999999-0061REMSYN017333   10307 59006EQDQ01+999990APOSLP
0115832290999991990032412004-13017-038517FM-12+005199999V0200501N00101012001CN0100001N9+02891+02581101051ADDAA106000091AG10999GF106991061081008001001001KA1240N+02461MA1999999100451MD1999999-0051REMSYN017333   20246 59005
0096832290999991990032418004-13017-038517FM-12+005199999V0201401N00101220001CN0200001N9+03041+02571100771ADDAA106000091AG10999GF102991021011008001001011MA1999999100191MD1999999+0011REMSYN011333   58001
0115832290999991990032500004-13017-038517FM-12+005199999V0209991C00001220001CN9999999N9+02701+02521101021ADDAA106000091AG10999GF100991001001999999001001KA1240M+03161MA1999999100431MD1999999+0081REMSYN017333   10316 58008
0115832290999991990032512004-13017-038517FM-12+005199999V0203601N00101007501CN0200001N9+02901+02581101131ADDAA106000091AG10999GF105991051021008001001001KA1240N+02521MA1999999100551MD1999999+0101REMSYN017333   20252 58010
0124832290999991990032518004-13017-038517FM-12+005199999V0200901N00151220001CN0200001N9+03061+02451100901ADDAA106000191AG10999AY161061AY211061GF102991021011008001001031MA1999999100321MD1999999+0131MW1011REMSYN017333   58013 69911
0115832290999991990032600004-13017-038517FM-12+005199999V0201801N00101220001CN9999999N9+02701+02521101081ADDAA106000091AG10999GF102991021011008001001001KA1240M+03161MA1999999100491MD1999999+0061REMSYN017333   10316 58006
0143832290999991990032612004-13017-038517FM-12+005199999V0200901N00101007501CN0100001N9+02881+02541101171ADDAA124000191AG10999AY111061AY261061GF105991051021008001001001KA1240N+02501MA1999999100591MD1999999+0041MW1021REMSYN023333   20250 58004 69914
0096832290999991990032618004-13017-038517FM-12+005199999V0201401N00101105001CN0100001N9+03051+02681100811ADDAA106000091AG10999GF106991011011008001001021MA1999999100211MD1999999-0111REMSYN011333   59011
0115832290999991990032700004-13017-038517FM-12+005199999V0201401N00101220001CN9999999N9+02661+02391101001ADDAA106000091AG10999GF100991001001999999001001KA1240M+03051MA1999999100411MD1999999-0081REMSYN017333   10305 59008
0115832290999991990032712004-13017-038517FM-12+005199999V0201401N00151007501CN0200001N9+02921+02471101081ADDAA106000091AG10999GF105991051021008001001001KA1240N+02481MA1999999100501MD1999999-0091REMSYN017333   20248 59009
0124832290999991990032718004-13017-038517FM-12+005199999V0201401N00101220001CN0200001N9+02901+02501100811ADDAA106002091AG10999AY161061AY211061GF102991021011008001001021MA1999999100231MD1999999+0021MW1011REMSYN017333   58002 60021
0115832290999991990032800004-13017-038517FM-12+005199999V0209991C00001045001CN9999999N9+02661+02411101031ADDAA106000091AG10999GF105991021011008001031001KA1240M+03071MA1999999100441MD1999999+0031REMSYN017333   10307 58003
0143832290999991990032812004-13017-038517FM-12+005199999V0201401N00151220001CN0200001N9+02931+02541101211ADDAA124002091AG10999AY161061AY221061GF104991021021022501001011KA1240N+02481MA1999999100611MD1999999+0111MW1031REMSYN023333   20248 58011 60024
0096832290999991990032818004-13017-038517FM-12+005199999V0201401N00151220001CN0100001N9+02971+02491100851ADDAA106000091AG10999GF103991031021008001001001MA1999999100251MD1999999+0021REMSYN011333   58002
0143832290999991990032912004-13017-038517FM-12+005199999V0209991C00001007501CN0100001N9+02621+02531101251ADDAA124001091AG10999AY161061AY211061GF106991061031008001001001KA1240N+02461MA1999999100661MD1999999+0051MW1021REMSYN023333   20246 58005 60014
0115832290999991990033000004-13017-038517FM-12+005199999V0209991C00001220001CN9999999N9+02721+02501101191ADDAA106000091AG10999GF103991031021008001001001KA1240M+03131MA1999999100601MD1999999+0131REMSYN017333   10313 58013
0143832290999991990033012004-13017-038517FM-12+005199999V0201401N00151220001CN0100001N9+02851+02421101191ADDAA124003091AG10999AY161061AY201061GF103991031051008001001001KA1240N+02461MA1999999100591MD1999999-0071MW1021REMSYN023333   20246 59007 60034
0096832290999991990033018004-13017-038517FM-12+005199999V0201401N00151220001CN0100001N9+02951+02521100901ADDAA106000091AG10999GF103991031021008001001001MA1999999100301MD1999999-0151REMSYN011333   59015
0115832290999991990033100004-13017-038517FM-12+005199999V0201401N00101007501CN9999999N9+02641+02441101101ADDAA106000091AG10999GF105991051041008001001001KA1240M+03051MA1999999100511MD1999999-0091REMSYN017333   10305 59009
0143832290999991990033112004-13017-038517FM-12+005199999V0201401N00101045001CN0100001N9+02861+02501101131ADDAA124006091AG10999AY161061AY211061GF106991021041008001021001KA1240N+02401MA1999999100541MD1999999-0051MW1021REMSYN023333   20240 59005 60064
0096832290999991990033118004-13017-038517FM-12+005199999V0201401N00101220001CN0200001N9+02941+02561100961ADDAA106000091AG10999GF104991041031008001001001MA1999999100381MD1999999+0081REMSYN011333   58008
0115832290999991990040100004-13017-038517FM-12+005199999V0209991C00001045001CN9999999N9+02651+02391101131ADDAA106000091AG10999GF106991041031008001011001KA1240M+03031MA1999999100541MD1999999+0031REMSYN017333   10303 58003
0154832290999991990040112004-13017-038517FM-12+005199999V0201401N00151045001CN0100001N9+02791+02361101261ADDAA124000691AA299000591AG10999AY151061AY201061GF107991021051008001031011KA1240N+02521MA1999999100661MD1999999+0121MW1021REMSYN023333   20252 58012 69964
0096832290999991990040118004-13017-038517FM-12+005199999V0201401N00151220001CN0100001N9+02991+02471101041ADDAA106000091AG10999GF106991041021008001001011MA1999999100441MD1999999-0211REMSYN011333   59021
0115832290999991990040200004-13017-038517FM-12+005199999V0209991C00001220001CN9999999N9+02671+02431101201ADDAA106000091AG10999GF102991021011008001001001KA1240M+03001MA1999999100611MD1999999+0071REMSYN017333   10300 58007
0115832290999991990040212004-13017-038517FM-12+005199999V0201401N00101220001CN0200001N9+02911+02521101351ADDAA106000091AG10999GF104991041021008001001001KA1240N+02541MA1999999100771MD1999999+0111REMSYN017333   20254 58011
0096832290999991990040218004-13017-038517FM-12+005199999V0201401N00151045001CN0200001N9+02891+02411101161ADDAA106000091AG10999GF105991041081008001041011MA1999999100561MD1999999+0121REMSYN011333   58012
0115832290999991990040300004-13017-038517FM-12+005199999V0200901N00101220001CN9999999N9+02641+02391101191ADDAA106000091AG10999GF103991031011008001001001KA1240M+03051MA1999999100601MD1999999-0011REMSYN017333   10305 59001
0115832290999991990040312004-13017-038517FM-12+005199999V0201401N00151007501CN0100001N9+02931+02411101131ADDAA106000091AG10999GF106991051091008001061001KA1240N+02521MA1999999100531MD1999999-0031REMSYN017333   20252 59003
0096832290999991990040318004-13017-038517FM-12+005199999V0200501N00101220001CN0100001N9+03141+02711100771ADDAA106000091AG10999GF106991011021008001001011MA1999999100171MD1999999-0391REMSYN011333   59039
0115832290999991990040400004-13017-038517FM-12+005199999V0209991C00001220001CN9999999N9+02661+02481100941ADDAA106000091AG10999GF100991001001999999001001KA1240M+03161MA1999999100351MD1999999-0251REMSYN017333   10316 59025
0115832290999991990040412004-13017-038517FM-12+005199999V0209991C00001007501CN0100001N9+02801+02661101181ADDAA106000091AG10999GF106991061031008001001001KA1240N+02501MA1999999100601MD1999999+0071REMSYN017333   20250 58007
0096832290999991990040418004-13017-038517FM-12+005199999V0201801N00151220001CN0200001N9+02921+02541100881ADDAA106000091AG10999GF105991041051008001001011MA1999999100301MD1999999+0231REMSYN011333   58023
0115832290999991990040500004-13017-038517FM-12+005199999V0209991C00001220001CN9999999N9+02701+02521101111ADDAA106000091AG10999GF104991041041008001001001KA1240M+03021MA1999999100521MD1999999+0171REMSYN017333   10302 58017
0115832290999991990040512004-13017-038517FM-12+005199999V0202301N00151220001CN0100001N9+02741+02451101351ADDAA106000091AG10999GF107991041051008001001011KA1240N+02521MA1999999100751MD1999999+0151REMSYN017333   20252 58015
0135832290999991990040518004-13017-038517FM-12+005199999V0201401N00151220001CN0100001N9+02861+02461101081ADDAA124000291AA299000391AG10999AY151061AY201061GF107991041051008001001011MA1999999100481MD1999999+0181MW1021REMSYN017333   58018 69924
0154832290999991990040612004-13017-038517FM-12+005199999V0200901N00151007501CN0100001N9+02821+02561101321ADDAA124000291AA299000391AG10999AY111061AY261061GF106991051041008001011001KA1240N+02501MA1999999100741MD1999999-0011MW1031REMSYN023333   20250 59001 69924
0124832290999991990040618004-13017-038517FM-12+005199999V0201401N00151220001CN0200001N9+02961+02661100961ADDAA106002091AG10999AY161061AY211061GF102991021021008001011001MA1999999100381MD1999999-0101MW1021REMSYN017333   59010 60021
0115832290999991990040700004-13017-038517FM-12+005199999V0209991C00001220001CN9999999N9+02601+02461101161ADDAA106000091AG10999GF104991041021008001001001KA1240M+03061MA1999999100571MD1999999-0071REMSYN017333   10306 59007
0143832290999991990040712004-13017-038517FM-12+005199999V0201401N00101007501CN0040001N9+02591+02441101271ADDAA124011091AG10999AY161061AY231061GF108991081071008001999999KA1240N+02371MA1999999100671MD1999999-0071MW1511REMSYN023333   20237 59007 60114
0124832290999991990040718004-13017-038517FM-12+005199999V0209991C00001007501CN0100001N9+02611+02531100971ADDAA106004091AG10999AY161061AY211061GF108991081071008001999999MA1999999100381MD1999999+0001MW1601REMSYN017333   58000 60041
0154832290999991990040800004-13017-038517FM-12+005199999V0209991C00001220001CN9999999N9+02551+02471101161ADDAA106000891AA299001091AG10999AY161061AY261061GF102991021011004501001001KA1240M+02931MA1999999100561MD1999999-0011MW1011REMSYN023333   10293 59001 69981
0143832290999991990040812004-13017-038517FM-12+005199999V0201401N00151220001CN0100001N9+02911+02521101401ADDAA124005091AG10999AY151061AY201061GF103991031021008001001001KA1240N+02371MA1999999100801MD1999999+0131MW1021REMSYN023333   20237 58013 60054
0113832290999991990040818004-13017-038517FM-12+005199999V0201401N00101220001CN0100001N9+03011+02391101071ADDAA106000291AA299000391AG10999GF101991011011008001001001MA1999999100471MD1999999+0091REMSYN017333   58009 69921
0115832290999991990040900004-13017-038517FM-12+005199999V0209991C00001220001CN9999999N9+02611+02331101291ADDAA106000091AG10999GF102991021011008001001001KA1240M+03081MA1999999100701MD1999999+0141REMSYN017333   10308 58014
0115832290999991990040912004-13017-038517FM-12+005199999V0202301N00151007501CN0100001N9+02591+02371101471ADDAA106000091AG10999GF106991061051008001001001KA1240N+02441MA1999999100871MD1999999+0071REMSYN017333   20244 58007
0096832290999991990040918004-13017-038517FM-12+005199999V0201401N00151220001CN0100001N9+02921+02301101051ADDAA106000091AG10999GF101991011011008001001001MA1999999100451MD1999999-0171REMSYN011333   59017
0115832290999991990041000004-13017-038517FM-12+005199999V0200901N00151220001CN9999999N9+99999+99999999999ADDAA106000091AG10999GF102991021011008001001001KA1240M+03021MA1999999100661MD1999999-0041REMSYN017333   10302 59004
0115832290999991990041012004-13017-038517FM-12+005199999V0203601N00101007501CN0100001N9+02821+02541101291ADDAA106000091AG10999GF105991051031008001001001KA1240N+02481MA1999999100711MD1999999-0161REMSYN017333   20248 59016
0124832290999991990041018004-13017-038517FM-12+005199999V0201401N00151220001CN0200001N9+03041+02431100901ADDAA106001091AG10999AY161061AY211061GF103991031021008001001001MA1999999100321MD1999999-0131MW1011REMSYN017333   59013 60011
0115832290999991990041100004-13017-038517FM-12+005199999V0209991C00001220001CN9999999N9+99999+99999999999ADDAA106000091AG10999GF100991001001999999001001KA1240M+03141MA1999999100661MD1999999-0191REMSYN017333   10314 59019
0115832290999991990041112004-13017-038517FM-12+005199999V0202701N00151012001CN0100001N9+02811+02401101171ADDAA106000091AG10999GF106991061081008001001001KA1240N+02501MA1999999100571MD1999999-0141REMSYN017333   20250 59014
0102832290999991990041200004-13017-038517FM-12+005199999V0201401N00151220001CN9999999N9+99999+99999999999ADDAA106000091AG10999GF100991001001999999001001MA1999999100381MD1999999-0091REMSYN017333   10/// 59009
0115832290999991990041212004-13017-038517FM-12+005199999V0200501N00101007501CN0100001N9+02821+02501101231ADDAA106000091AG10999GF106991061001008001021001KA1240N+02461MA1999999100651MD1999999+0081REMSYN017333   20246 58008
0082832290999991990041218004-13017-038517FM-12+005199999V0201401N00151220001CN0200001N9+03081+02631100961ADDAA106000091AG10999GF104991041021008001001001MA1999999100381REMSYN011333   58///
0115832290999991990041300004-13017-038517FM-12+005199999V0209991C00001220001CN9999999N9+99999+99999999999ADDAA106000091AG10999GF102991021011008001001001KA1240M+03181MA1999999100591MD1999999+0211REMSYN017333   10318 58021
0115832290999991990041312004-13017-038517FM-12+005199999V0201401N00101220001CN0100001N9+02931+02061101341ADDAA106000091AG10999GF101991011011008001001001KA1240N+02501MA1999999100741MD1999999+0091REMSYN017333   20250 58009
0096832290999991990041318004-13017-038517FM-12+005199999V0201401N00151045001CN0100001N9+03061+02431101071ADDAA106000091AG10999GF107991021011008001031021MA1999999100471MD1999999+0111REMSYN011333   58011
0143832290999991990041400004-13017-038517FM-12+005199999V0201401N00151007501CN9999999N9+02531+02361101151ADDAA106000591AG10999AY151061AY221061GF108991081071008001999999KA1240M+03121MA1999999100551MD1999999-0041MW1021REMSYN023333   10312 59004 69951
0143832290999991990041412004-13017-038517FM-12+005199999V0201401N00101007501CN0100001N9+02641+02481101341ADDAA124003091AG10999AY161061AY261061GF106991061031008001001001KA1240N+02421MA1999999100751MD1999999+0011MW1021REMSYN023333   20242 58001 60034
0096832290999991990041418004-13017-038517FM-12+005199999V0200901N00101220001CN0200001N9+03021+02481100961ADDAA106000091AG10999GF102991021011008001001011MA1999999100381MD1999999-0091REMSYN011333   59009
0115832290999991990041500004-13017-038517FM-12+005199999V0200901N00151007501CN9999999N9+99999+99999999999ADDAA106000091AG10999GF105991051001008001021001KA1240M+03081MA1999999100521MD1999999-0031REMSYN017333   10308 59003
0154832290999991990041512004-13017-038517FM-12+005199999V0201401N00151045001CN0100001N9+02671+02241101291ADDAA124000291AA299000391AG10999AY151061AY221061GF105991011021008001031001KA1240N+02421MA1999999100691MD1999999-0061MW1021REMSYN023333   20242 59006 69924
0096832290999991990041518004-13017-038517FM-12+005199999V0201401N00101220001CN0100001N9+02951+02401100941ADDAA106000091AG10999GF103991011021008001051001MA1999999100341MD1999999-0041REMSYN011333   59004
0115832290999991990041600004-13017-038517FM-12+005199999V0209991C00001220001CN9999999N9+99999+99999999999ADDAA106000091AG10999GF100991001001999999001001KA1240M+03141MA1999999100521MD1999999+0001REMSYN017333   10314 58000
0115832290999991990041612004-13017-038517FM-12+005199999V0201401N00151220001CN0200001N9+02981+02401101231ADDAA106000091AG10999GF104991041021008001001001KA1240N+02541MA1999999100651MD1999999-0041REMSYN017333   20254 59004
0096832290999991990041618004-13017-038517FM-12+005199999V0201401N00101220001CN0200001N9+02941+02331100911ADDAA106000091AG10999GF102991021011008001001001MA1999999100331MD1999999-0011REMSYN011333   59001
0115832290999991990041700004-13017-038517FM-12+005199999V0201401N00101045001CN9999999N9+02541+02381101031ADDAA106000091AG10999GF106991021021008001041001KA1240M+03131MA1999999100441MD1999999-0081REMSYN017333   10313 59008
0115832290999991990041712004-13017-038517FM-12+005199999V0201401N00151007501CN0100001N9+02911+02301101291ADDAA106000091AG10999GF105991051021008001001001KA1240N+02521MA1999999100691MD1999999+0041REMSYN017333   20252 58004
0115832290999991990041718004-13017-038517FM-12+005199999V0201401N00101220001CN0100001N9+03031+02461101031ADDAA106000091AG10999GF103991999011008001001001MA1999999100431MD1999999+0101REMSYN011333   58010EQDQ01+000012SCOTLC
0115832290999991990041800004-13017-038517FM-12+005199999V0209991C00001220001CN9999999N9+02641+02311101121ADDAA106000091AG10999GF100991001001999999001001KA1240M+03101MA1999999100531MD1999999+0091REMSYN017333   10310 58009
0154832290999991990041812004-13017-038517FM-12+005199999V0200901N00101220001CN0200001N9+02821+02441101221ADDAA106000791AA299001091AG10999AY161061AY211061GF104991041021008001001001KA1240N+02461MA1999999100641MD1999999-0051MW1011REMSYN023333   20246 59005 69971
0096832290999991990041818004-13017-038517FM-12+005199999V0201401N00101220001CN0200001N9+03061+02451100921ADDAA106000091AG10999GF102991021011008001001001MA1999999100341MD1999999-0091REMSYN011333   59009
0115832290999991990041900004-13017-038517FM-12+005199999V0209991C00001220001CN9999999N9+02641+02311101181ADDAA106000091AG10999GF102991021011008001001001KA1240M+03091MA1999999100591MD1999999+0061REMSYN017333   10309 58006
0115832290999991990041912004-13017-038517FM-12+005199999V0201401N00151220001CN0100001N9+02991+02351101361ADDAA106000091AG10999GF104991041021008001001001KA1240N+02491MA1999999100761MD1999999+0121REMSYN017333   20249 58012
0096832290999991990041918004-13017-038517FM-12+005199999V0201401N00151220001CN0100001N9+02981+02371101021ADDAA106000091AG10999GF101991011011008001001001MA1999999100421MD1999999+0081REMSYN011333   58008
0143832290999991990042012004-13017-038517FM-12+005199999V0201401N00101220001CN0200001N9+02901+02391101311ADDAA124000391AG10999AY161061AY211061GF104991041021008001001001KA1240N+02521MA1999999100731MD1999999-0031MW1011REMSYN023333   20252 59003 69934
0096832290999991990042018004-13017-038517FM-12+005199999V0201401N00151220001CN0200001N9+02861+02461101011ADDAA106000091AG10999GF103991031021008001001001MA1999999100431MD1999999+0011REMSYN011333   58001
0115832290999991990042100004-13017-038517FM-12+005199999V0201401N00101220001CN9999999N9+02561+02381101181ADDAA106000091AG10999GF104991041041008001001001KA1240M+03081MA1999999100581MD1999999-0091REMSYN017333   10308 59009
0143832290999991990042112004-13017-038517FM-12+005199999V0201401N00151007501CN0100001N9+02791+02401101141ADDAA124004091AG10999AY161061AY221061GF105991051051008001001001KA1240N+02411MA1999999100541MD1999999-0191MW1021REMSYN023333   20241 59019 60044
0115832290999991990042200004-13017-038517FM-12+005199999V0209991C00001007501CN9999999N9+02601+02311101091ADDAA106000091AG10999GF105991051041008001001001KA1240M+03021MA1999999100501MD1999999-0091REMSYN017333   10302 59009
0143832290999991990042212004-13017-038517FM-12+005199999V0201401N00151220001CN0200001N9+02941+02311101241ADDAA124001091AG10999AY111061AY261061GF102991021011008001001001KA1240N+02511MA1999999100661MD1999999+0121MW1011REMSYN023333   20251 58012 60014
0096832290999991990042218004-13017-038517FM-12+005199999V0201401N00101220001CN0200001N9+02981+02331100991ADDAA106000091AG10999GF104991041021008001001001MA1999999100411MD1999999+0161REMSYN011333   58016
0154832290999991990042300004-13017-038517FM-12+005199999V0209991C00001007501CN9999999N9+02641+02371101231ADDAA106000291AA299000391AG19005AY161061AY211061GF105991051041008001001001KA1240M+03081MA1999999100641MD1999999+0141MW1021REMSYN023333   10308 58014 69921
0124832290999991990042312004-13017-038517FM-12+005199999V0201401N00151220001CN0100001N9+02911+02391101291ADDAA124005091AG10999AY161061AY201061GF104991041051008001001001MA1999999100691MD1999999+0031MW1021REMSYN017333   58003 60054
0135832290999991990042318004-13017-038517FM-12+005199999V0201401N00151012001CN0100001N9+02911+02501100981ADDAA106000691AA299000591AG10999AY151061AY221061GF106991061081008001001001MA1999999100381MD1999999-0031MW1021REMSYN017333   59003 69961
0115832290999991990042400004-13017-038517FM-12+005199999V0209991C00001007501CN9999999N9+02671+02391101291ADDAA106000091AG10999GF105991051041008001001001KA1240M+03121MA1999999100701MD1999999+0061REMSYN017333   10312 58006
0154832290999991990042412004-13017-038517FM-12+005199999V0201401N00151220001CN0200001N9+02941+02331101421ADDAA124000691AA299000591AG10999AY111061AY261061GF103991031011008001001001KA1240N+02561MA1999999100841MD1999999+0151MW1011REMSYN023333   20256 58015 69964
0096832290999991990042418004-13017-038517FM-12+005199999V0201401N00101220001CN0200001N9+02981+02351101011ADDAA106000091AG10999GF103991031021008001001001MA1999999100431MD1999999+0051REMSYN011333   58005
0115832290999991990042500004-13017-038517FM-12+005199999V0209991C00001045001CN9999999N9+02571+02421101191ADDAA106000091AG10999GF105991031021008001041001KA1240M+03081MA1999999100601MD1999999-0101REMSYN017333   10308 59010
0096832290999991990042518004-13017-038517FM-12+005199999V0201401N00151220001CN0100001N9+02841+02291101011ADDAA106000091AG10999GF101991011011008001001001MA1999999100411MD1999999-0021REMSYN011333   59002
0143832290999991990042612004-13017-038517FM-12+005199999V0201401N00101007501CN0200001N9+02721+02451101041ADDAA124004091AG10999AY161061AY211061GF105991051021008001001001KA1240N+02401MA1999999100461MD1999999-0111MW1011REMSYN023333   20240 59011 60044
0096832290999991990042618004-13017-038517FM-12+005199999V0201401N00151045001CN0200001N9+03021+02441100731ADDAA106000091AG10999GF105991021041008001011001MA1999999100151MD1999999-0261REMSYN011333   59026
0115832290999991990042700004-13017-038517FM-12+005199999V0200901N00101220001CN9999999N9+02621+02251100951ADDAA106000091AG10999GF101991011011008001001001KA1240M+03041MA1999999100361MD1999999-0131REMSYN017333   10304 59013
0115832290999991990042712004-13017-038517FM-12+005199999V0201401N00151012001CN0100001N9+02851+02291101101ADDAA106000091AG10999GF105991051081008001001001KA1240N+02541MA1999999100501MD1999999+0041REMSYN017333   20254 58004
0096832290999991990042718004-13017-038517FM-12+005199999V0201401N00151045001CN0100001N9+02771+02251100831ADDAA106000091AG10999GF107991041051008001031021MA1999999100231MD1999999+0081REMSYN011333   58008
0115832290999991990042800004-13017-038517FM-12+005199999V0201401N00151045001CN9999999N9+02691+02021100981ADDAA106000091AG10999GF105991021021008001051001KA1240M+03041MA1999999100381MD1999999+0021REMSYN017333   10304 58002
0143832290999991990042812004-13017-038517FM-12+005199999V0200901N00151045001CN0040001N9+02421+02391101211ADDAA124003091AG10999AY121061AY211061GF108991021071004501011999KA1240N+02401MA1999999100611MD1999999+0111MW1601REMSYN023333   20240 58011 60034
0124832290999991990042818004-13017-038517FM-12+005199999V0200901N00101220001CN0100001N9+02921+02411100871ADDAA106000391AG10999AY161061AY261061GF104991041021008001001001MA1999999100291MD1999999+0061MW1021REMSYN017333   58006 69931
0115832290999991990042900004-13017-038517FM-12+005199999V0209991C00001220001CN9999999N9+02561+02401101061ADDAA106000091AG10999GF104991041021008001001001KA1240M+03041MA1999999100471MD1999999+0091REMSYN017333   10304 58009
0124832290999991990042918004-13017-038517FM-12+005199999V0201401N00101105001CN0100001N9+02831+02381100911ADDAA106000591AG10999AY151061AY221061GF106991011011008001001021MA1999999100311MD1999999+0021MW1201REMSYN017333   58002 69951
0115832290999991990043000004-13017-038517FM-12+005199999V0201401N00151220001CN9999999N9+02691+02541101081ADDAA106000091AG10999GF103991031021008001001001KA1240M+02891MA1999999100481MD1999999+0011REMSYN017333   10289 58001
0124832290999991990043012004-13017-038517FM-12+005199999V0201801N00151220001CN0200001N9+02781+02321101041ADDAA124000591AG10999AY111061AY261061GF104991041021008001001001MA1999999100461MD1999999-0141MW1011REMSYN017333   59014 69954
0096832290999991990043018004-13017-038517FM-12+005199999V0201801N00101220001CN0200001N9+02821+02311100701ADDAA106000091AG10999GF101991011011008001001001MA1999999100121MD1999999-0191REMSYN011333   59019
0115832290999991990050100004-13017-038517FM-12+005199999V0209991C00001045001CN9999999N9+02611+02511100761ADDAA106000091AG10999GF105991041041008001011001KA1240M+02881MA1999999100171MD1999999-0311REMSYN017333   10288 59031
0143832290999991990050112004-13017-038517FM-12+005199999V0203601N00101045001CN0040001N9+02721+02581100921ADDAA124000191AG10999AY161061AY211061GF106991021041008001021001KA1240N+02461MA1999999100341MD1999999-0121MW1031REMSYN023333   20246 59012 69914
0096832290999991990050118004-13017-038517FM-12+005199999V0200901N00151220001CN0200001N9+02941+02521100601ADDAA106000091AG10999GF104991041001008001031001MA1999999100021MD1999999-0101REMSYN011333   59010
0115832290999991990050200004-13017-038517FM-12+005199999V0209991C00001220001CN9999999N9+02621+02441100841ADDAA106000091AG10999GF104991041001012501051001KA1240M+02981MA1999999100251MD1999999+0081REMSYN017333   10298 58008
0143832290999991990050212004-13017-038517FM-12+005199999V0200901N00101220001CN0200001N9+02811+02581101011ADDAA124007091AG10999AY161061AY211061GF104991041021008001001001KA1240N+02381MA1999999100431MD1999999+0091MW1021REMSYN023333   20238 58009 60074
0096832290999991990050218004-13017-038517FM-12+005199999V0201401N00151220001CN0200001N9+02911+02391100731ADDAA106000091AG10999GF100991001001999999001001MA1999999100151MD1999999+0131REMSYN011333   58013
0115832290999991990050300004-13017-038517FM-12+005199999V0209991C00001220001CN9999999N9+02641+02481100871ADDAA106000091AG10999GF104991041021008001001001KA1240M+03021MA1999999100281MD1999999+0031REMSYN017333   10302 58003
0134832290999991990050312004-13017-038517FM-12+005199999V0200501N00101007501CN0100001N9+02811+02441101031ADDAA106000091AG10999GF107991071051008001001001KA1240N+02441MA1999999999999MD1999999+0001REMSYN017333   20244 58000EQDQ01 090433APOSP 
0115832290999991990050318004-13017-038517FM-12+005199999V0201401N00151105001CN0100001N9+02951+02401100671ADDAA106000091AG10999GF106991011011008001001021MA1999999100072MD1999999-0081REMSYN011333   59008EQDQ01+100073APOSP 
0115832290999991990050400004-13017-038517FM-12+005199999V0209991C00001220001CN9999999N9+02541+02291100781ADDAA106000091AG10999GF100991001001999999001001KA1240M+03031MA1999999100201MD1999999-0081REMSYN017333   10303 59008
0115832290999991990050412004-13017-038517FM-12+005199999V0202701N00101220001CN0100001N9+02731+02451101051ADDAA106000091AG10999GF104991041021008001001001KA1240N+02441MA1999999100451MD1999999+0021REMSYN017333   20244 58002
0124832290999991990050418004-13017-038517FM-12+005199999V0201401N00151220001CN0100001N9+02791+02271100881ADDAA106000191AG10999AY151061AY221061GF103991021021008001031001MA1999999100301MD1999999+0231MW1031REMSYN017333   58023 69911
0115832290999991990050500004-13017-038517FM-12+005199999V0209991C00001220001CN9999999N9+02601+02311100921ADDAA106000091AG10999GF100991001001999999001001KA1240M+02931MA1999999100331MD1999999+0131REMSYN017333   10293 58013
0143832290999991990050512004-13017-038517FM-12+005199999V0201801N00211007501CN0040001N9+02511+02291101151ADDAA124005091AG10999AY161061AY221061GF108991081071008001999999KA1240N+02341MA1999999100551MD1999999+0101MW1611REMSYN023333   20234 58010 60054
0124832290999991990050518004-13017-038517FM-12+005199999V0201401N00151007501CN0020001N9+02681+02521100891ADDAA106003091AG10999AY161061AY221061GF108991081071008001999999MA1999999100291MD1999999-0011MW1021REMSYN017333   59001 60031
0143832290999991990050600004-13017-038517FM-12+005199999V0209991C00001007501CN9999999N9+02641+02181101071ADDAA106002091AG10999AY161061AY261061GF106991061051008001001001KA1240M+02761MA1999999100481MD1999999+0151MW1021REMSYN023333   10276 58015 60021
0143832290999991990050612004-13017-038517FM-12+005199999V0201401N00151220001CN0200001N9+02761+02191101201ADDAA124006091AG10999AY161061AY261061GF103991031021008001001001KA1240N+02331MA1999999100621MD1999999+0071MW1011REMSYN023333   20233 58007 60064
0135832290999991990050618004-13017-038517FM-12+005199999V0201801N00101045001CN0100001N9+02501+02231101011ADDAA106000291AA299000391AG10999AY161061AY261061GF105991041051008001011001MA1999999100411MD1999999+0121MW1021REMSYN017333   58012 69921
0143832290999991990050700004-13017-038517FM-12+005199999V0209991C00001220001CN9999999N9+02601+02131101251ADDAA106000191AG10999AY161061AY261061GF104991041021008001001001KA1240M+02901MA1999999100651MD1999999+0171MW1021REMSYN023333   10290 58017 69911
0121832290999991990050712004-13017-038517FM-12+005199999V0201401N00151012001CN0100001N9+02811+02251101311ADDAA124000391AG10999GF106991061081008001001001KA1240N+02481MA1999999100711MD1999999+0091REMSYN023333   20248 58009 69934
0143832290999991990050718004-13017-038517FM-12+005199999V0202301N00151012001CN0100001N9+02581+02191101031ADDAA106000591AG10999AY151061AY221061GF107991071081008001001001MA1999999100431MD1999999+0021MW1021REMSYN017333   58002 69951EQDQ01+999990APOSP 
0115832290999991990050800004-13017-038517FM-12+005199999V0209991C00001220001CN9999999N9+02561+02381101261ADDAA106000091AG10999GF103991031021008001001001KA1240M+02921MA1999999100671MD1999999+0021REMSYN017333   10292 58002
0143832290999991990050812004-13017-038517FM-12+005199999V0201801N00101220001CN0200001N9+02761+02401101341ADDAA124000591AG10999AY111061AY261061GF104991041021008001001001KA1240N+02461MA1999999100761MD1999999+0051MW1021REMSYN023333   20246 58005 69954
0096832290999991990050818004-13017-038517FM-12+005199999V0201801N00151045001CN0100001N9+02541+02381101041ADDAA106000091AG10999GF107991021061008001031001MA1999999100451MD1999999+0021REMSYN011333   58002
0115832290999991990050900004-13017-038517FM-12+005199999V0201801N00101220001CN9999999N9+02581+02371101211ADDAA106000091AG10999GF102991021011008001001001KA1240M+02901MA1999999100621MD1999999-0051REMSYN017333   10290 59005
0115832290999991990050912004-13017-038517FM-12+005199999V0201401N00151045001CN0200001N9+02841+02401101181ADDAA106000091AG10999GF106991041041008001041001KA1240N+02441MA1999999100581MD1999999-0181REMSYN017333   20244 59018
0124832290999991990050918004-13017-038517FM-12+005199999V0200501N00151007501CN0040001N9+02521+02251100881ADDAA106007091AG10999AY161061AY221061GF108991081051008001999999MA1999999100281MD1999999-0171MW1021REMSYN017333   59017 60071
0143832290999991990051000004-13017-038517FM-12+005199999V0203601N00101004201CN9999999N9+02341+02311101231ADDAA106015091AG10999AY161061AY211061GF108991081071004501999999KA1240M+02981MA1999999100631MD1999999+0011MW1611REMSYN023333   10298 58001 60151
0143832290999991990051012004-13017-038517FM-12+005199999V0201401N00101045001CN0100001N9+02581+02511101261ADDAA124042091AG10999AY161061AY261061GF107991021061008001041001KA1240N+02301MA1999999100671MD1999999+0091MW1031REMSYN023333   20230 58009 60424
0096832290999991990051018004-13017-038517FM-12+005199999V0201801N00151045001CN0200001N9+02741+02481100951ADDAA106000091AG10999GF105991021051008001011001MA1999999100361MD1999999+0081REMSYN011333   58008
0115832290999991990051100004-13017-038517FM-12+005199999V0209999999999045001CN9999999N9+02521+02421101181ADDAA106000091AG10999GF105991021041008001011001KA1240M+02791MA1999999100581MD1999999-0051REMSYN017333   10279 59005
0130832290999991990051112004-13017-038517FM-12+005199999V0202701N00101045001CN0100001N9+02571+02421101241ADDAA124005091AG10999AY161061AY221061GF105991011021008001031001MA1999999100641MD1999999-0031MW1021REMSYN023333   2028/ 59003 60054
0124832290999991990051118004-13017-038517FM-12+005199999V0201401N00101220001CN0100001N9+02801+02401100841ADDAA106000191AG10999AY151061AY221061GF103991031011008001001001MA1999999100241MD1999999-0121MW1021REMSYN017333   59012 69911
0134832290999991990051200004-13017-038517FM-12+005199999V0200901N00101220001CN9999999N9+02581+02481100681ADDAA106000091AG10999GF103991031021008001001001KA1240M+02911MA1999999100091MD1999999-0231REMSYN017333   10291 59023EQDQ01+999990APOSLP
0143832290999991990051212004-13017-038517FM-12+005199999V0203601N00101045001CN0100001N9+02741+02501101131ADDAA124000191AG10999AY111061AY261061GF105991021041008001011001KA1240N+02451MA1999999100541MD1999999-0101MW1021REMSYN023333   20245 59010 69914
0115832290999991990051300004-13017-038517FM-12+005199999V0209991C00001220001CN9999999N9+02621+02441101031ADDAA106000091AG10999GF100991001001999999001001KA1240M+02991MA1999999100431MD1999999+0081REMSYN017333   10299 58008
0154832290999991990051312004-13017-038517FM-12+005199999V0201401N00101007501CN0100001N9+02651+02411101171ADDAA124000291AA299000391AG10999AY151061AY221061GF108991081051008001999999KA1240N+02441MA1999999100571MD1999999+0031MW1021REMSYN023333   20244 58003 69924
0135832290999991990051318004-13017-038517FM-12+005199999V0201801N00151220001CN0040001N9+02561+02361101031ADDAA106000691AA299000591AG10999AY151061AY221061GF107991041051008001001011MA1999999100431MD1999999+0221MW1021REMSYN017333   58022 69961
0143832290999991990051400004-13017-038517FM-12+005199999V0209991C00001004201CN9999999N9+02381+02331101271ADDAA106009091AG10999AY161061AY261061GF108991081071004501999999KA1240M+02841MA1999999100671MD1999999+0241MW1611REMSYN023333   10284 58024 60091
0143832290999991990051412004-13017-038517FM-12+005199999V0203201N00151045001CN0040001N9+02501+02451101311ADDAA124084091AG10999AY161061AY261061GF108991021071004501021999KA1240N+02281MA1999999100711MD1999999+0141MW1021REMSYN023333   20228 58014 60844
0124832290999991990051418004-13017-038517FM-12+005199999V0201801N00151004201CN0040001N9+02611+02501101101ADDAA106014091AG19007AY161061AY261061GF108991081071004501999999MA1999999100501MD1999999+0071MW1031REMSYN017333   58007 60141
0143832290999991990051500004-13017-038517FM-12+005199999V0209991C00001220001CN9999999N9+02451+02351101291ADDAA106065091AG10999AY161061AY261061GF104991021011008001041001KA1240M+02641MA1999999100691MD1999999+0021MW1021REMSYN023333   10264 58002 60651
0143832290999991990051512004-13017-038517FM-12+005199999V0202301N00151045001CN0040001N9+02521+02431101441ADDAA124944092AG10999AY161061AY261061GF107991021041004501021001KA1240N+02301MA1999999100841MD1999999+0131MW1021REMSYN023333   20230 58013 69444
0096832290999991990051518004-13017-038517FM-12+005199999V0201801N00151045001CN0100001N9+02501+02321101211ADDAA106000091AG10999GF106991021051008001021001MA1999999100611MD1999999+0111REMSYN011333   58011
0154832290999991990051600004-13017-038517FM-12+005199999V0209991C00001045001CN9999999N9+02531+02421101341ADDAA106000691AA299000591AG19005AY161061AY211061GF106991021041008001031001KA1240M+02681MA1999999100741MD1999999+0051MW1021REMSYN023333   10268 58005 69961
0143832290999991990051612004-13017-038517FM-12+005199999V0201801N00151007501CN0200001N9+02641+02501101461ADDAA124005091AG10999AY161061AY261061GF105991051041008001001001KA1240N+02381MA1999999100871MD1999999+0031MW1021REMSYN023333   20238 58003 60054
0115832290999991990051700004-13017-038517FM-12+005199999V0200901N00101220001CN9999999N9+02541+02361101291ADDAA106000091AG10999GF101991011011008001001001KA1240M+02831MA1999999100691MD1999999-0051REMSYN017333   10283 59005
0115832290999991990051712004-13017-038517FM-12+005199999V0200901N00101220001CN0200001N9+02841+02441101491ADDAA106000091AG10999GF103991031021008001001001KA1240N+02381MA1999999100911MD1999999+0041REMSYN017333   20238 58004
0096832290999991990051718004-13017-038517FM-12+005199999V0200901N00101220001CN0200001N9+02941+02361101131ADDAA106000091AG10999GF101991011011008001001011MA1999999100551MD1999999+0001REMSYN011333   58000
0115832290999991990051800004-13017-038517FM-12+005199999V0200901N00101220001CN9999999N9+02451+02251101251ADDAA106000091AG10999GF100991001001999999001001KA1240M+02971MA1999999100351MD1999999-0041REMSYN017333   10297 59004
0115832290999991990051812004-13017-038517FM-12+005199999V0200901N00101220001CN0200001N9+02711+02431101421ADDAA106000091AG10999GF101991011011008001001001KA1240N+02301MA1999999100831MD1999999-0081REMSYN017333   20230 59008
0096832290999991990051818004-13017-038517FM-12+005199999V0200901N00101220001CN0200001N9+02901+02301100971ADDAA106000091AG10999GF101991011011008001001001MA1999999100391MD1999999-0161REMSYN011333   59016
0132832290999991990051900004-13017-038517FM-12+005199999V0209991C00001220001CN0100001N9+00782+00532101902ADDAG10999GF100991001001999999001001MA1999999099242MD1710061+9999EQDQ01+028103ATOT  Q02+027853ATOD  Q03+099243APOSP Q04+101903APOSLP
0115832290999991990051912004-13017-038517FM-12+005199999V0203601N00151220001CN0200001N9+02621+02311101231ADDAA106000091AG10999GF101991011011008001001001KA1240N+02311MA1999999100641MD1999999-0191REMSYN017333   20231 59019
0096832290999991990051918004-13017-038517FM-12+005199999V0200901N00101220001CN0200001N9+02981+02601100901ADDAA106000091AG10999GF101991011011008001001001MA1999999100321MD1999999-0061REMSYN011333   59006
0115832290999991990052000004-13017-038517FM-12+005199999V0200901N00101220001CN9999999N9+02621+02441101221ADDAA106000091AG10999GF104991041021008001001001KA1240M+03041MA1999999100631MD1999999+0131REMSYN017333   10304 58013
0115832290999991990052012004-13017-038517FM-12+005199999V0200901N00101045001CN0200001N9+02841+02481101531ADDAA106000091AG10999GF105991021021008001031001KA1240N+02481MA1999999100951MD1999999+0311REMSYN017333   20248 58031
0096832290999991990052018004-13017-038517FM-12+005199999V0201801N00151045001CN0100001N9+02621+02351101341ADDAA106000091AG10999GF106991021041008001011001MA1999999100751MD1999999+0431REMSYN011333   58043
0115832290999991990052100004-13017-038517FM-12+005199999V0201401N00151007501CN9999999N9+02541+02331101631ADDAA106000091AG10999GF105991051041008001001001KA1240M+02871MA1999999101031MD1999999+0401REMSYN017333   10287 58040
0143832290999991990052112004-13017-038517FM-12+005199999V0200901N00151004201CN0040001N9+02351+02311101661ADDAA124008091AG10999AY161061AY211061GF108991081071004501999999KA1240N+02321MA1999999101061MD1999999+0111MW1611REMSYN023333   20232 58011 60084
0115832290999991990052200004-13017-038517FM-12+005199999V0209991C00001220001CN9999999N9+02581+02331101441ADDAA106000091AG10999GF104991021011008001031001KA1240M+02701MA1999999100851MD1999999-0181REMSYN017333   10270 59018
0154832290999991990052212004-13017-038517FM-12+005199999V0203601N00101045001CN0100001N9+02621+02391101421ADDAA124000491AA299000591AG10999AY111061AY261061GF105991021041008001021001KA1240N+02281MA1999999100831MD1999999-0231MW1031REMSYN023333   20228 59023 69944
0096832290999991990052218004-13017-038517FM-12+005199999V0200901N00101220001CN0200001N9+02781+02381101021ADDAA106000091AG10999GF102991021011008001001001MA1999999100441MD1999999-0241REMSYN011333   59024
0062832290999991990052300004-13017-038517FM-12+005199999V0200901N00101220001CN9999999N9+02461+02281101321ADDAA106000091AG10999GF101991011011008001001001MA1999999100721
0115832290999991990052312004-13017-038517FM-12+005199999V0201801N00101045001CN0100001N9+02681+02481101611ADDAA106000091AG10999GF106991041041008001011001KA1240N+02321MA1999999101031MD1999999+0201REMSYN017333   20232 58020
0124832290999991990052318004-13017-038517FM-12+005199999V0200901N00101045001CN0100001N9+02681+02391101381ADDAA106003091AG10999AY161061AY211061GF108991021071008001021999MA1999999100801MD1999999+0361MW1021REMSYN017333   58036 60031
0143832290999991990052412004-13017-038517FM-12+005199999V0202301N00151045001CN0100001N9+02561+99999101831ADDAA199034091AG19059AY161061AY261061GF106991021041004501031001KA1240N+02261MA1999999101231MD1999999+0201MW1611REMSYN023333   20226 58020 60340
0124832290999991990052418004-13017-038517FM-12+005199999V0201801N00151045001CN0100001N9+02561+02361101611ADDAA106006091AG10999AY161061AY261061GF106991021041004501021001MA1999999101011MD1999999+0211MW1021REMSYN017333   58021 60061
0143832290999991990052500004-13017-038517FM-12+005199999V0209991C00001004201CN9999999N9+02461+02251101781ADDAA106001091AG10999AY161061AY261061GF108991081071004501999999KA1240M+02731MA1999999101181MD1999999+0061MW1601REMSYN023333   10273 58006 60011
0143832290999991990052512004-13017-038517FM-12+005199999V0201401N00151045001CN0100001N9+02621+02411101831ADDAA124010091AG19007AY161061AY261061GF106991021041004501011001KA1240N+02321MA1999999101241MD1999999+0011MW1031REMSYN023333   20232 58001 60104
0135832290999991990052518004-13017-038517FM-12+005199999V0201401N00151220001CN0200001N9+02781+02401101521ADDAA106000491AA299000591AG10999AY161061AY261061GF103991021021008001011001MA1999999100941MD1999999-0071MW1011REMSYN017333   59007 69941
0143832290999991990052600004-13017-038517FM-12+005199999V0200901N00151004201CN9999999N9+02441+02261101721ADDAA106007091AG10999AY161061AY261061GF108991081071004501999999KA1240M+02871MA1999999101121MD1999999-0061MW1611REMSYN023333   10287 59006 60071
0143832290999991990052612004-13017-038517FM-12+005199999V0209999999999045001CN0100001N9+02481+02381101711ADDAA124014091AG10999AY161061AY261061GF106991041051004501011001KA1240N+02231MA1999999101111MD1999999-0131MW1021REMSYN023333   20223 59013 60144
0096832290999991990052618004-13017-038517FM-12+005199999V0209999999999220001CN0200001N9+02781+02401101381ADDAA106000091AG10999GF104991041021008001001001MA1999999100801MD1999999-0141REMSYN011333   59014
0115832290999991990052700004-13017-038517FM-12+005199999V0209999999999220001CN9999999N9+02501+02251101531ADDAA106000091AG10999GF103991031021008001001001KA1240M+02841MA1999999100721MD1999999-0191REMSYN017333   10284 59019
0143832290999991990052712004-13017-038517FM-12+005199999V0209999999999220001CN0200001N9+02761+02301101601ADDAA124002091AG10999AY161061AY211061GF103991031021008001001001KA1240N+02301MA1999999101021MD1999999-0091MW1011REMSYN023333   20230 59009 60024
0096832290999991990052718004-13017-038517FM-12+005199999V0209999999999220001CN0200001N9+02701+02301101431ADDAA106000091AG10999GF104991021021008001011001MA1999999100841MD1999999+0041REMSYN011333   58004
0143832290999991990052800004-13017-038517FM-12+005199999V0209999999999220001CN9999999N9+02471+02341101611ADDAA106005091AG10999AY161061AY211061GF103991031021008001001001KA1240M+02801MA1999999101011MD1999999+0081MW1011REMSYN023333   10280 58008 60051
0143832290999991990052812004-13017-038517FM-12+005199999V0209999999999045001CN0100001N9+02701+02151101661ADDAA124006091AG10999AY161061AY261061GF106991021021008001031001KA1240N+02301MA1999999101071MD1999999+0051MW1011REMSYN023333   20230 58005 60064
0135832290999991990052818004-13017-038517FM-12+005199999V0209999999999220001CN0200001N9+99999+99999101411ADDAA106000291AA299000391AG10999AY161061AY261061GF104991041021008001001001MA1999999100831MD1999999-0011MW1011REMSYN017333   59001 69921
0115832290999991990052900004-13017-038517FM-12+005199999V0209999999999220001CN9999999N9+02551+02291101621ADDAA106000091AG10999GF102991021011008001001001KA1240M+02901MA1999999101021MD1999999+0011REMSYN017333   10290 58001
0143832290999991990052912004-13017-038517FM-12+005199999V0209999999999045001CN0100001N9+02611+02351101681ADDAA124002091AG10999AY161061AY211061GF106991021041008001021001KA1240N+02261MA1999999101091MD1999999+0021MW1021REMSYN023333   20226 58002 60024
0096832290999991990052918004-13017-038517FM-12+005199999V0209999999999220001CN0100001N9+02761+02391101461ADDAA106000091AG10999GF104991041021008001021001MA1999999100871MD1999999-0041REMSYN011333   59004
0115832290999991990053000004-13017-038517FM-12+005199999V0209999999999220001CN9999999N9+02561+02191101631ADDAA106000091AG10999GF104991021021008001041001KA1240M+02861MA1999999101031MD1999999+0011REMSYN017333   10286 58001
0094832290999991990053018004-13017-038517FM-12+005199999V0200901N00101220001CN0200001N9+02781+02271101431ADDAA106000091AG10999GF103991031021008001001001MA1999999100251UG2990409999REMSYN011222// 58008
0143832290999991990053100004-13017-038517FM-12+005199999V0209991C00001220001CN9999999N9+02501+02231101571ADDAA106000391AG10999AY161061AY211061GF104991041021008001001001KA1240M+02891MA1999999100971MD1999999-0061MW1021REMSYN023333   10289 59006 69931
0143832290999991990053112004-13017-038517FM-12+005199999V0200901N00151007501CN0100001N9+02621+02331101621ADDAA124000391AG10999AY161061AY211061GF106991061051008001001001KA1240N+02381MA1999999101021MD1999999-0131MW1031REMSYN023333   20238 59013 69934
0096832290999991990053118004-13017-038517FM-12+005199999V0200901N00101220001CN0200001N9+02801+02341101411ADDAA106000091AG10999GF102991021011008001001001MA1999999100831MD1999999-0121REMSYN011333   59012
0126832290999991990060100004-13017-038517FM-12+005199999V0209991C00001220001CN9999999N9+02481+02131101591ADDAG10999AY161061AY211061GF103991021021008001011001KA1240M+02551MA1999999100991MD1999999+0021MW1011REMSYN017333   10255 58002
0143832290999991990060112004-13017-038517FM-12+005199999V0200901N00151220001CN0200001N9+02721+02221101601ADDAA124002091AG10999AY161061AY261061GF104991041021008001001001KA1240N+02361MA1999999101021MD1999999+0001MW1021REMSYN023333   20236 58000 60024
0096832290999991990060118004-13017-038517FM-12+005199999V0200901N00101045001CN0100001N9+02731+02241101351ADDAA106000091AG10999GF106991021051008001021001MA1999999100771MD1999999-0061REMSYN011333   59006
0115832290999991990060200004-13017-038517FM-12+005199999V0209991C00001007501CN9999999N9+02561+02171101551ADDAA106000091AG10999GF106991051041008001011001KA1240M+02851MA1999999100951MD1999999-0041REMSYN017333   10285 59004
0115832290999991990060212004-13017-038517FM-12+005199999V0200901N00101220001CN0200001N9+02761+02251101641ADDAA106000091AG10999GF103991031011008001001001KA1240N+02381MA1999999101061MD1999999+0041REMSYN017333   20238 58004
0135832290999991990060218004-13017-038517FM-12+005199999V0201401N00101220001CN0200001N9+02801+02361101371ADDAA106000291AA299000391AG10999AY161061AY211061GF102991021011008001001001MA1999999100791MD1999999+0021MW1011REMSYN017333   58002 69921
0143832290999991990060300004-13017-038517FM-12+005199999V0209991C00001045001CN9999999N9+02321+02271101601ADDAA106002091AG10999AY161061AY261061GF105991021041008001011001KA1240M+02891MA1999999101001MD1999999+0051MW1021REMSYN023333   10289 58005 60021
0143832290999991990060312004-13017-038517FM-12+005199999V0201401N00151220001CN0200001N9+02721+02391101731ADDAA124004091AG10999AY161061AY261061GF104991021021008001011001KA1240N+02301MA1999999101151MD1999999+0091MW1021REMSYN023333   20230 58009 60044
0124832290999991990060318004-13017-038517FM-12+005199999V0200901N00101045001CN0100001N9+02701+02351101531ADDAA106003091AG10999AY161061AY261061GF106991021021008001041001MA1999999100951MD1999999-0161MW1021REMSYN017333   59016 60031
0154832290999991990060400004-13017-038517FM-12+005199999V0209991C00001220001CN9999999N9+02441+02111101731ADDAA106000691AA299000591AG10999AY161061AY261061GF103991031021008001001001KA1240M+02751MA1999999101131MD1999999+0131MW1011REMSYN023333   10275 58013 69961
0143832290999991990060412004-13017-038517FM-12+005199999V0200901N00101220001CN0200001N9+02741+02321101601ADDAA124003091AG10999AY121061AY261061GF102991021011008001001001KA1240N+02371MA1999999101021MD1999999-0131MW1011REMSYN023333   20237 59013 60034
0096832290999991990060418004-13017-038517FM-12+005199999V0200901N00151220001CN0200001N9+02731+02261101371ADDAA106000091AG10999GF103991031021008001001001MA1999999100791MD1999999-0161REMSYN011333   59016
0115832290999991990060500004-13017-038517FM-12+005199999V0209991C00001220001CN9999999N9+99999+99999101551ADDAA106000091AG10999GF104991021021008001011001KA1240M+02881MA1999999100951MD1999999-0181REMSYN017333   10288 59018
0143832290999991990060512004-13017-038517FM-12+005199999V0201801N00101045001CN0100001N9+02401+02281101621ADDAA124002091AG10999AY161061AY211061GF106991021041008001021001KA1240N+02281MA1999999101021MD1999999+0001MW1021REMSYN023333   20228 58000 60024
0124832290999991990060518004-13017-038517FM-12+005199999V0200901N00101045001CN0100001N9+02511+02391101391ADDAA106005091AG10999AY161061AY261061GF108991021071008001021999MA1999999100791MD1999999+0001MW1601REMSYN017333   58000 60051
0143832290999991990060600004-13017-038517FM-12+005199999V0209991C00001045001CN9999999N9+02261+02181101561ADDAA106003091AG10999AY161061AY261061GF106991021051004501021001KA1240M+02641MA1999999100961MD1999999+0011MW1601REMSYN023333   10264 58001 60031
0143832290999991990060612004-13017-038517FM-12+005199999V0202301N00101045001CN0100001N9+02461+02371101641ADDAA124019091AG10999AY161061AY261061GF106991021041008001031001KA1240N+02201MA1999999101041MD1999999+0021MW1021REMSYN023333   20220 58002 60194
0154832290999991990060712004-13017-038517FM-12+005199999V0200901N001019999999N0100001N9+02411+02351101621ADDAA124000891AA299001091AG10999AY161061AY211061GF108991071999008001999999KA1240N+02221MA1999999101021MD1999999-0021MW1601REMSYN023333   20222 59002 69984
0135832290999991990060718004-13017-038517FM-12+005199999V0201801N00151007501CN0200001N9+02681+02331101331ADDAA106000991AA299001091AG10999AY161061AY261061GF105991051041008001001001MA1999999100741MD1999999-0051MW1021REMSYN017333   59005 69991
0143832290999991990060812004-13017-038517FM-12+005199999V0201401N00101220001CN0200001N9+02601+02231101521ADDAA124003091AG10999AY161061AY261061GF104991041021008001001001KA1240N+02261MA1999999100931MD1999999-0091MW1021REMSYN023333   20226 59009 60034
0096832290999991990060818004-13017-038517FM-12+005199999V0200901N00101045001CN0100001N9+02541+02271101361ADDAA106000091AG10999GF106991021061008001021001MA1999999100761MD1999999+0021REMSYN011333   58002
0062832290999991990060900004-13017-038517FM-12+005199999V0209991C00001045001CN9999999N9+02441+02151101521ADDAA106000091AG10999GF105991021021008001031001MA1999999100921
