0115832420999991990010100004-12567-041383FM-12+042799999V0209991C00001220001CN9999999N9+02341+02071101211ADDAA106000091AG10999GF100991001001999999001001KA1240M+02981MA1999999096471MD1999999+0181REMSYN017333   10298 58018
0115832420999991990010112004-12567-041383FM-12+042799999V0201801N00151045001CN0200001N9+02381+02071101531ADDAA106000091AG10999GF108991041051004501051999KA1240N+01621MA1999999096711MD1999999-0011REMSYN017333   20162 59001
0096832420999991990010118004-12567-041383FM-12+042799999V0202301N00211105001CN0200001N9+02901+02101101101ADDAA106000091AG10999GF108991041021004501001071MA1999999096321MD1999999+0071REMSYN011333   58007
0115832420999991990010200004-12567-041383FM-12+042799999V0200501N00051220001CN9999999N9+02321+02131101221ADDAA106000091AG10999GF100991001001999999001001KA1240M+03021MA1999999096411MD1999999-0061REMSYN017333   10302 59006
0096832420999991990010218004-12567-041383FM-12+042799999V0201801N00151105001CN0500001N9+03041+02031100911ADDAA106000091AG10999GF108991041021004501001071MA1999999096161MD1999999-0161REMSYN011333   59016
0115832420999991990010300004-12567-041383FM-12+042799999V0209991C00001004201CN9999999N9+02621+02231101121ADDAA106000091AG10999GF107991071021004501001001KA1240M+03101MA1999999096341MD1999999-0071REMSYN017333   10310 59007
0146832420999991990010312004-12567-041383FM-12+042799999V0201401N00101004201CN0200001N9+02311+02181101491ADDAA124000491AA299000591AG10999AY151061GF108991081051004501999999KA1240N+01661MA1999999096681MD1999999-0031MW1031REMSYN023333   20166 59003 69944
0096832420999991990010318004-12567-041383FM-12+042799999V0201401N00261105001CN0200001N9+02281+02231100891ADDAA106000091AG10999GF108991041031004501001071MA1999999096131MD1999999-0031REMSYN011333   59003
0154832420999991990010400004-12567-041383FM-12+042799999V0209991C00001004201CN9999999N9+02401+02211101031ADDAA106000291AA299000391AG10999AY151061AY221061GF108991081021004501999999KA1240M+02961MA1999999096301MD1999999-0041MW1021REMSYN023333   10296 59004 69921
0132832420999991990010412004-12567-041383FM-12+042799999V0201801N00101004201CN0100001N9+02361+02171101351ADDAA124000291AA299000391AG10999GF108991081051004501999999KA1240N+01721MA1999999096541MD1999999-0141REMSYN023333   20172 59014 69924
0096832420999991990010418004-12567-041383FM-12+042799999V0201801N00151004201CN0200001N9+02741+02121101011ADDAA106000091AG10999GF108991081041004501999999MA1999999096251MD1999999+0121REMSYN011333   58012
0154832420999991990010500004-12567-041383FM-12+042799999V0209991C00001045001CN9999999N9+02241+01881101451ADDAA106000791AA299001091AG10999AY151061AY221061GF108991041051004501071999KA1240M+02841MA1999999096621MD1999999+0321MW1031REMSYN023333   10284 58032 69971
0132832420999991990010512004-12567-041383FM-12+042799999V0201801N00261004201CN0100001N9+02361+01991101351ADDAA124000791AA299001091AG10999GF108991081041004501999999KA1240N+01591MA1999999096521MD1999999-0021REMSYN023333   20159 59002 69974
0096832420999991990010518004-12567-041383FM-12+042799999V0201801N00211220001CN0500001N9+02921+01951100911ADDAA106000091AG10999GF108991041021004501001011MA1999999096151MD1999999-0101REMSYN011333   59010
0135832420999991990010612004-12567-041383FM-12+042799999V0201801N00151004201CN0100001N9+02201+01881101451ADDAA124003091AG10999AY161061GF108991081041004501999999KA1240N+01491MA1999999096621MD1999999+0101MW1021REMSYN023333   20149 58010 60034
0096832420999991990010618004-12567-041383FM-12+042799999V0201801N00151004201CN0200001N9+02741+02121101011ADDAA106000091AG10999GF108991081041004501999999MA1999999096251MD1999999+0121REMSYN011333   58012
0115832420999991990010700004-12567-041383FM-12+042799999V0201801N00151004201CN9999999N9+02301+02181101211ADDAA106000091AG10999GF108991081031004501999999KA1240M+02881MA1999999096381MD1999999-0041REMSYN017333   10288 59004
0096832420999991990010718004-12567-041383FM-12+042799999V0201801N00151220001CN0500001N9+02781+02131100931ADDAA106000091AG10999GF107991041021004501001011MA1999999096151MD1999999-0021REMSYN011333   59002
0096832420999991990010800004-12567-041383FM-12+042799999V0201801N00151220001CN0500001N9+02781+02121100931ADDAA106000091AG10999GF107991041021004501001011MA1999999096151MD1999999-0021REMSYN011333   59002
0115832420999991990010812004-12567-041383FM-12+042799999V0201801N00151004201CN0200001N9+02321+01891101391ADDAA106000091AG10999GF108991081021004501999999KA1240N+01571MA1999999096551MD1999999-0061REMSYN017333   20157 59006
0115832420999991990010900004-12567-041383FM-12+042799999V0201801N00051220001CN9999999N9+02261+01861100561ADDAA106000091AG10999GF100991001001999999001001KA1240M+02941MA1999999095871MD1999999-0731REMSYN017333   10294 59073
0115832420999991990010912004-12567-041383FM-12+042799999V0202701N00151004201CN0100001N9+02361+02011101401ADDAA106000091AG10999GF108991081021004501999999KA1240N+01481MA1999999096581MD1999999+0031REMSYN017333   20148 58003
0096832420999991990010918004-12567-041383FM-12+042799999V0201801N00151220001CN0500001N9+03061+01991100851ADDAA106000091AG10999GF108991041011004501001011MA1999999096111MD1999999-0021REMSYN011333   59002
0115832420999991990011000004-12567-041383FM-12+042799999V0202701N00051220001CN9999999N9+02521+02001101141ADDAA106000091AG10999GF100991001001999999001001KA1240M+03101MA1999999096351MD1999999+0481REMSYN017333   10310 58048
0115832420999991990011012004-12567-041383FM-12+042799999V0200501N00151004201CN0100001N9+02381+02131101311ADDAA106000091AG10999GF108991081041004501999999KA1240N+01611MA1999999096511MD1999999-0071REMSYN017333   20161 59007
0096832420999991990011018004-12567-041383FM-12+042799999V0200501N00261220001CN0500001N9+02971+02041100841ADDAA106000091AG10999GF103991031021004501061001MA1999999096101MD1999999-0011REMSYN011333   59001
0115832420999991990011100004-12567-041383FM-12+042799999V0201801N00051021001CN9999999N9+02501+02001101121ADDAA106000091AG10999GF106991061001022501061001KA1240M+03041MA1999999096331MD1999999-0021REMSYN017333   10304 59002
0115832420999991990011112004-12567-041383FM-12+042799999V0201801N00151004201CN0200001N9+02501+02051101361ADDAA106000091AG10999GF108991081041004501999999KA1240N+01661MA1999999096571MD1999999+0061REMSYN017333   20166 58006
0096832420999991990011118004-12567-041383FM-12+042799999V0201401N00151045001CN0500001N9+03001+02001100871ADDAA106000091AG10999GF108991031021004501061011MA1999999096131MD1999999+0031REMSYN011333   58003
0115832420999991990011212004-12567-041383FM-12+042799999V0201801N00151045001CN0200001N9+02401+01931101401ADDAA106000091AG10999GF108991031021004501061011KA1240N+01511MA1999999096581MD1999999+0011REMSYN017333   20151 58001
0096832420999991990011218004-12567-041383FM-12+042799999V0201801N00151220001CN0200001N9+03081+02141101161ADDAA106000091AG10999GF103991031021008001001001MA1999999096081MD1999999+0131REMSYN011333   58013
0115832420999991990011300004-12567-041383FM-12+042799999V0201801N00311220001CN9999999N9+02351+02031101321ADDAA106000091AG10999GF100991001001999999001001KA1240M+03061MA1999999096511MD1999999+0191REMSYN017333   10306 58019
0115832420999991990011312004-12567-041383FM-12+042799999V0201401N00211004201CN0500001N9+02481+01801101531ADDAA106000091AG10999GF108991051021004501001011KA1240N+01561MA1999999096711MD1999999+0131REMSYN017333   20156 58013
0104832420999991990011318004-12567-041383FM-12+042799999V0201801N00361220001CN0500001N9+02941+01721101141ADDAG10999GF102991021011999999001001MA1999999096381MD1999999+0181REMSYN011333   58018EQDQ01+000992SCOLCB
0115832420999991990011400004-12567-041383FM-12+042799999V0209991C00001220001CN9999999N9+02261+01711101251ADDAA106000091AG10999GF103991031021004501001001KA1240M+03101MA1999999096401MD1999999-0111REMSYN017333   10310 59011
0115832420999991990011412004-12567-041383FM-12+042799999V0201801N00051105001CN0200001N9+02361+01991101471ADDAA106000091AG10999GF108991041021004501001071KA1240N+01421MA1999999096641MD1999999-0071REMSYN017333   20142 59007
0115832420999991990011500004-12567-041383FM-12+042799999V0209991C00001004201CN9999999N9+02261+02071101211ADDAA106000091AG10999GF108991081051004501999999KA1240M+03021MA1999999096391MD1999999-0011REMSYN017333   10302 59001
0135832420999991990011512004-12567-041383FM-12+042799999V0209991C00001004201CN0200001N9+02161+01991101341ADDAA124010091AG10999AY161061GF108991081051004501999999KA1240N+01361MA1999999096491MD1999999-0151MW1031REMSYN023333   20136 59015 60104
0115832420999991990011600004-12567-041383FM-12+042799999V0203601N00101004201CN9999999N9+02301+02161100951ADDAA106000091AG10999GF107991071011004501001001KA1240M+02921MA1999999096131MD1999999-0261REMSYN017333   10292 59026
0115832420999991990011612004-12567-041383FM-12+042799999V0201801N00101004201CN0200001N9+02261+01991101261ADDAA106000091AG10999GF108991081051004501999999KA1240N+01561MA1999999096441MD1999999-0051REMSYN017333   20156 59005
0096832420999991990011618004-12567-041383FM-12+042799999V0201401N00151105001CN0500001N9+02921+02121100811ADDAA106000091AG10999GF108991041011004501001071MA1999999096061MD1999999-0081REMSYN011333   59008
0115832420999991990011700004-12567-041383FM-12+042799999V0200901N00051004201CN9999999N9+02481+02171101001ADDAA106000091AG10999GF108991081051004501999999KA1240M+02961MA1999999096201MD1999999+0071REMSYN017333   10296 58007
0135832420999991990011712004-12567-041383FM-12+042799999V0201401N00051004201CN0200001N9+02241+01981101291ADDAA124000191AG10999AY151061GF108991081051004501999999KA1240N+01481MA1999999096471MD1999999+0031MW1031REMSYN023333   20148 58003 69914
0096832420999991990011718004-12567-041383FM-12+042799999V0201401N00151105001CN0500001N9+02761+02141100931ADDAA106000091AG10999GF108991041021004501001071MA1999999096171MD1999999+0111REMSYN011333   58011
0115832420999991990011800004-12567-041383FM-12+042799999V0209991C00001220001CN9999999N9+02241+02091101041ADDAA106000091AG10999GF100991001001999999001001KA1240M+02801MA1999999096221MD1999999+0021REMSYN017333   10280 58002
0115832420999991990011812004-12567-041383FM-12+042799999V0201801N00151105001CN0200001N9+02501+02111101451ADDAA106000091AG10999GF108991041021004501001071KA1240N+02151MA1999999096611MD1999999+0141REMSYN017333   20215 58014
0096832420999991990011818004-12567-041383FM-12+042799999V0201401N00211004201CN0200001N9+02981+02041100801ADDAA106000091AG10999GF106991061021004501001001MA1999999096061MD1999999-0111REMSYN011333   59011
0115832420999991990011900004-12567-041383FM-12+042799999V0209991C00001004201CN9999999N9+02561+02151101061ADDAA106000091AG10999GF108991081021004501999999KA1240M+03061MA1999999096291MD1999999+0071REMSYN017333   10306 58007
0115832420999991990011912004-12567-041383FM-12+042799999V0201801N00151004201CN0200001N9+02321+02031101431ADDAA106000091AG10999GF108991081051004501999999KA1240N+01641MA1999999096641MD1999999+0031REMSYN017333   20164 58003
0096832420999991990011918004-12567-041383FM-12+042799999V0201801N00411220001CN0500001N9+02981+02041100951ADDAA106000091AG10999GF104991041021004501001001MA1999999096201MD1999999+0141REMSYN011333   58014
0115832420999991990012000004-12567-041383FM-12+042799999V0209991C00001220001CN9999999N9+02541+02041101061ADDAA106000091AG10999GF100991001001999999001001KA1240M+03101MA1999999096271MD1999999-0021REMSYN017333   10310 59002
0115832420999991990012012004-12567-041383FM-12+042799999V0201801N00361004201CN0200001N9+02521+01981101401ADDAA106000091AG10999GF106991061021004501001001KA1240N+01641MA1999999096621MD1999999-0021REMSYN017333   20164 59002
0096832420999991990012018004-12567-041383FM-12+042799999V0201401N00151004201CN0500001N9+03001+01941100931ADDAA106000091AG10999GF105991051021004501001001MA1999999096191MD1999999-0011REMSYN011333   59001
0115832420999991990012100004-12567-041383FM-12+042799999V0209991C00001220001CN9999999N9+02321+02051101101ADDAA106000091AG10999GF100991001001999999001001KA1240M+03061MA1999999096301MD1999999+0031REMSYN017333   10306 58003
0115832420999991990012112004-12567-041383FM-12+042799999V0201401N00311004201CN0200001N9+02561+02021101231ADDAA106000091AG10999GF106991061021004501001001KA1240N+01661MA1999999096441MD1999999-0181REMSYN017333   20166 59018
0096832420999991990012118004-12567-041383FM-12+042799999V0201801N00261004201CN0500001N9+02961+02051100771ADDAA106000091AG10999GF105991051021004501001001MA1999999096041MD1999999-0151REMSYN011333   59015
0115832420999991990012212004-12567-041383FM-12+042799999V0202301N00051004201CN0200001N9+02401+01931101281ADDAA106000091AG10999GF108991081021004501999999KA1240N+01481MA1999999096491MD1999999+0051REMSYN017333   20148 58005
0096832420999991990012218004-12567-041383FM-12+042799999V0202301N00101220001CN0500001N9+03081+02161100811ADDAA106000091AG10999GF102991021021004501001001MA1999999096091MD1999999+0051REMSYN011333   58005
0115832420999991990012300004-12567-041383FM-12+042799999V0209991C00001220001CN9999999N9+02581+02171100901ADDAA106000091AG10999GF100991001001999999001001KA1240M+03181MA1999999096131MD1999999-0061REMSYN017333   10318 59006
0115832420999991990012312004-12567-041383FM-12+042799999V0200901N00261004201CN0200001N9+02621+02141101351ADDAA106000091AG10999GF106991061021004501001001KA1240N+01521MA1999999096581MD1999999+0091REMSYN017333   20152 58009
0096832420999991990012318004-12567-041383FM-12+042799999V0200501N00151220001CN0500001N9+03201+01961100681ADDAA106000091AG10999GF102991021011004501001001MA1999999095971MD1999999-0121REMSYN011333   59012
0150832420999991990012400004-12567-041383FM-12+042799999V0202301N00051220001CN9999999N9+02561+02251999999ADDAA106000091AG10999GF100991001001999999001001KA1240M+03221MA1999999096251MD1999999+0121REMSYN017333   10322 58012EQDQ01+104023APOSLPQ02 104023APOSLP
0115832420999991990012412004-12567-041383FM-12+042799999V0201801N00151045001CN0200001N9+02461+02171101151ADDAA106000091AG10999GF108991041011004501061999KA1240N+01621MA1999999096371MD1999999-0211REMSYN017333   20162 59021
0115832420999991990012500004-12567-041383FM-12+042799999V0203601N00151220001CN9999999N9+02481+02091100951ADDAA106000091AG10999GF100991001001999999001001KA1240M+03201MA1999999096171MD1999999-0081REMSYN017333   10320 59008
0115832420999991990012512004-12567-041383FM-12+042799999V0201801N00101045001CN0200001N9+02361+02011101211ADDAA106000091AG10999GF108991031011004501061071KA1240N+01531MA1999999096411MD1999999+0041REMSYN017333   20153 58004
0096832420999991990012518004-12567-041383FM-12+042799999V0201801N00261105001CN0500001N9+03051+01991100771ADDAA106000091AG10999GF108991011011004501001081MA1999999096031MD1999999-0071REMSYN011333   59007
0115832420999991990012600004-12567-041383FM-12+042799999V0202701N00051220001CN9999999N9+02581+01871101001ADDAA106000091AG10999GF100991001001999999001001KA1240M+03101MA1999999096221MD1999999+0051REMSYN017333   10310 58005
0115832420999991990012612004-12567-041383FM-12+042799999V0201401N00151004201CN0200001N9+02381+01891101341ADDAA106000091AG10999GF106991061021004501001001KA1240N+01561MA1999999096551MD1999999+0141REMSYN017333   20156 58014
0096832420999991990012618004-12567-041383FM-12+042799999V0201801N00151220001CN0500001N9+03061+01901100911ADDAA106000091AG10999GF104991041011004501001001MA1999999096181MD1999999+0151REMSYN011333   58015
0132832420999991990012712004-12567-041383FM-12+042799999V0201801N00101004201CN0200001N9+02461+02031101451ADDAA106000091AA224000591AG10999GF107991071021004501001001KA1240N+01631MA1999999096641MD1999999+0091REMSYN023333   20163 58009 69954
0096832420999991990012718004-12567-041383FM-12+042799999V0201801N00211004201CN0500001N9+03041+01941100951ADDAA106000091AG10999GF106991061021004501001001MA1999999096221MD1999999+0041REMSYN011333   58004
0115832420999991990012800004-12567-041383FM-12+042799999V0201801N00101220001CN9999999N9+02581+01971101161ADDAA106000091AG10999GF100991001001999999001001KA1240M+03121MA1999999096381MD1999999+0071REMSYN017333   10312 58007
0135832420999991990012812004-12567-041383FM-12+042799999V0200901N00151004201CN0100001N9+02151+02061101341ADDAA124004091AG10999AY161061GF108991081051004501999999KA1240N+01541MA1999999096521MD1999999-0121MW1021REMSYN023333   20154 59012 60044
0135832420999991990012818004-12567-041383FM-12+042799999V0201801N00311004201CN0200001N9+02731+01971100981ADDAA106000991AA299001091AG10999AY161061AY221061GF108991081041004501999999MA1999999096211MD1999999-0011MW1021REMSYN017333   59001 69991
0132832420999991990012912004-12567-041383FM-12+042799999V0201801N00151004201CN0200001N9+02351+02031101291ADDAA124000991AA299001091AG10999GF108991081041004501999999KA1240N+01781MA1999999096481MD1999999-0031REMSYN023333   20178 59003 69994
0096832420999991990012918004-12567-041383FM-12+042799999V0201801N00411004201CN0500001N9+02571+02061101021ADDAA106000091AG10999GF108991081041004501999999MA1999999096241MD1999999+0031REMSYN011333   58003
0115832420999991990013000004-12567-041383FM-12+042799999V0209991C00001004201CN9999999N9+02381+02111101071ADDAA106000091AG10999GF108991081041004501999999KA1240M+02581MA1999999096271MD1999999-0121REMSYN017333   10258 59012
0135832420999991990013012004-12567-041383FM-12+042799999V0201401N00261004201CN0040001N9+02091+02081101381ADDAA124007091AG10999AY161061GF108991081051004501999999KA1240N+01461MA1999999096541MD1999999+0051MW1021REMSYN023333   20146 58005 60074
0124832420999991990013018004-12567-041383FM-12+042799999V0201401N00311220001CN0200001N9+02911+01951100931ADDAA106004091AG10999AY161061AY211061GF103991031011004501001001MA1999999096171MD1999999-0071MW1021REMSYN017333   59007 60041
0115832420999991990013100004-12567-041383FM-12+042799999V0201401N00101220001CN9999999N9+02401+01821101291ADDAA106000091AG10999GF100991001001999999001001KA1240M+02941MA1999999096461MD1999999+0191REMSYN017333   10294 58019
0135832420999991990013112004-12567-041383FM-12+042799999V0201801N00311004201CN0200001N9+02311+02111101531ADDAA124004091AG10999AY161061GF106991061021004501001001KA1240N+01431MA1999999096701MD1999999+0161MW1021REMSYN023333   20143 58016 60044
0096832420999991990013118004-12567-041383FM-12+042799999V0201801N00051004201CN0500001N9+02911+01951101101ADDAA106000091AG10999GF108991081021004501001001MA1999999096331MD1999999+0161REMSYN011333   58016
0115832420999991990020112004-12567-041383FM-12+042799999V0201801N00311004201CN0200001N9+02421+02071101451ADDAA106000091AG10999GF108991081021004501999999KA1240N+01601MA1999999096651MD1999999-0051REMSYN017333   20160 59005
0096832420999991990020118004-12567-041383FM-12+042799999V0201801N00261004201CN0500001N9+02861+02061101081ADDAA106000091AG10999GF106991061031004501001001MA1999999096321MD1999999-0011REMSYN011333   59001
0115832420999991990020200004-12567-041383FM-12+042799999V0201801N00261004201CN9999999N9+02491+02051101361ADDAA106000091AG10999GF108991081031004501999999KA1240M+02951MA1999999096561MD1999999-0141REMSYN017333   10295 59014
0146832420999991990020212004-12567-041383FM-12+042799999V0201801N00211004201CN0200001N9+02391+02011101411ADDAA124000291AA299000391AG10999AY151061GF108991081041004501999999KA1240N+01581MA1999999096611MD1999999-0041MW1021REMSYN023333   20158 59004 69924
0096832420999991990020218004-12567-041383FM-12+042799999V0201801N00311220001CN0500001N9+02941+02031101021ADDAA106000091AG10999GF102991021011004501001001MA1999999096271MD1999999-0051REMSYN011333   59005
0121832420999991990020312004-12567-041383FM-12+042799999V0200901N00261004201CN0200001N9+02481+01901101381ADDAA124000191AG10999GF108991081021004501999999KA1240N+01691MA1999999096591MD1999999-0021REMSYN023333   20169 59002 69914
0096832420999991990020318004-12567-041383FM-12+042799999V0201801N00261220001CN0500001N9+03101+01971100901ADDAA106000091AG10999GF104991041011004501001001MA1999999096181MD1999999-0091REMSYN011333   59009
0115832420999991990020400004-12567-041383FM-12+042799999V0201801N00311004201CN9999999N9+02531+02011101211ADDAA106000091AG10999GF108991081031004501999999KA1240M+03181MA1999999096431MD1999999-0051REMSYN017333   10318 59005
0146832420999991990020412004-12567-041383FM-12+042799999V0202301N00151004201CN0100001N9+02261+01991101411ADDAA124000291AA299000391AG10999AY151061GF108991081051004501999999KA1240N+01561MA1999999096601MD1999999+0011MW1021REMSYN023333   20156 58001 69924
0124832420999991990020418004-12567-041383FM-12+042799999V0201801N00461220001CN0200001N9+02641+02161101061ADDAA106000391AG10999AY151061AY221061GF104991041041004501001001MA1999999096291MD1999999+0111MW1021REMSYN017333   58011 69931
0115832420999991990020500004-12567-041383FM-12+042799999V0200901N00151004201CN9999999N9+02421+02011101281ADDAA106000091AG10999GF108991081031004501999999KA1240M+02841MA1999999096491MD1999999+0061REMSYN017333   10284 58006
0121832420999991990020512004-12567-041383FM-12+042799999V0201801N00211004201CN0100001N9+02271+01811101551ADDAA124000391AG10999GF108991081041004501999999KA1240N+01301MA1999999096721MD1999999+0121REMSYN023333   20130 58012 69934
0096832420999991990020518004-12567-041383FM-12+042799999V0201801N00211220001CN0500001N9+02921+02091101011ADDAA106000091AG10999GF108991041011004501001011MA1999999096261MD1999999-0031REMSYN011333   59003
0115832420999991990020600004-12567-041383FM-12+042799999V0200901N00101004201CN9999999N9+02561+02021101151ADDAA106000091AG10999GF108991081031004501999999KA1240M+02981MA1999999096331MD1999999-0161REMSYN017333   10298 59016
0115832420999991990020612004-12567-041383FM-12+042799999V0201801N00211004201CN0200001N9+02401+01931101391ADDAA106000091AG10999GF108991081021004501999999KA1240N+01621MA1999999096601MD1999999-0121REMSYN017333   20162 59012
0096832420999991990020618004-12567-041383FM-12+042799999V0201401N00151220001CN0500001N9+02981+02061101021ADDAA106000091AG10999GF108991041031004501001011MA1999999096281MD1999999+0021REMSYN011333   58002
0115832420999991990020700004-12567-041383FM-12+042799999V0200901N00051004201CN9999999N9+02481+02171101251ADDAA106000091AG10999GF108991081051004501999999KA1240M+03021MA1999999096461MD1999999+0131REMSYN017333   10302 58013
0115832420999991990020712004-12567-041383FM-12+042799999V0201801N00261004201CN0200001N9+02371+01871101461ADDAA106000091AG10999GF108991081021004501999999KA1240N+01601MA1999999096661MD1999999+0061REMSYN017333   20160 58006
0096832420999991990020718004-12567-041383FM-12+042799999V0200901N00211004201CN0500001N9+02941+01971101021ADDAA106000091AG10999GF108991081031004501999999MA1999999096271MD1999999-0011REMSYN011333   59001
0115832420999991990020800004-12567-041383FM-12+042799999V0201801N00151004201CN9999999N9+02381+01951101161ADDAA106000091AG10999GF108991081041004501999999KA1240M+02981MA1999999096341MD1999999-0121REMSYN017333   10298 59012
0115832420999991990020812004-12567-041383FM-12+042799999V0201801N00151045001CN0500001N9+02361+01851101491ADDAA106000091AG10999GF107991041021004501061001KA1240N+01321MA1999999096671MD1999999+0011REMSYN017333   20132 58001
0115832420999991990020818004-12567-041383FM-12+042799999V0201801N00211045001CN0500001N9+03181+01871100871ADDAA106000091AG10999GF106991011011004501061001MA1999999061202MD1999999-0151REMSYN011333   59015EQDQ01+061203APOSP 
0115832420999991990020912004-12567-041383FM-12+042799999V0201401N00101004201CN0100001N9+02281+02001101331ADDAA106000091AG10999GF108991081041004501999999KA1240N+01481MA1999999096501MD1999999-0171REMSYN017333   20148 59017
0115832420999991990021012004-12567-041383FM-12+042799999V0201401N00101045001CN0200001N9+02281+02031101101ADDAA106000091AG10999GF108991041051004501021999KA1240N+01481MA1999999096381MD1999999-0121REMSYN017333   20148 59012
0096832420999991990021018004-12567-041383FM-12+042799999V0201801N00151105001CN0500001N9+03161+02051100731ADDAA106000091AG10999GF108991041011004501001071MA1999999096011MD1999999-0131REMSYN011333   59013
0115832420999991990021100004-12567-041383FM-12+042799999V0202301N00051220001CN9999999N9+02581+02061100891ADDAA106000091AG10999GF100991001001999999001001KA1240M+03201MA1999999096111MD1999999+0391REMSYN017333   10320 58039
0115832420999991990021112004-12567-041383FM-12+042799999V0200501N00051004201CN0100001N9+02311+01941101241ADDAA106000091AG10999GF108991081041004501999999KA1240N+01501MA1999999096451MD1999999+0071REMSYN017333   20150 58007
0096832420999991990021118004-12567-041383FM-12+042799999V0201801N00051105001CN0500001N9+03161+02041100611ADDAA106000091AG10999GF108991021011004501001071MA1999999095891MD1999999-0371REMSYN011333   59037
0115832420999991990021200004-12567-041383FM-12+042799999V0200901N00051220001CN9999999N9+02481+02031100941ADDAA106000091AG10999GF100991001001999999001001KA1240M+03201MA1999999096151MD1999999+0041REMSYN017333   10320 58004
0115832420999991990021212004-12567-041383FM-12+042799999V0203201N00101004201CN0100001N9+02501+02071101121ADDAA106000091AG10999GF108991081041004501999999KA1240N+01711MA1999999096341MD1999999-0111REMSYN017333   20171 59011
0096832420999991990021218004-12567-041383FM-12+042799999V0200901N00101220001CN0500001N9+02481+02041100611ADDAA106000091AG10999GF108991031011004501001011MA1999999095891MD1999999-0371REMSYN011333   59037
0115832420999991990021300004-12567-041383FM-12+042799999V0200501N00101220001CN9999999N9+02581+02041100841ADDAA106000091AG10999GF104991041031004501001001KA1240M+03261MA1999999096091MD1999999-0061REMSYN017333   10326 59006
0115832420999991990021312004-12567-041383FM-12+042799999V0201401N00101004201CN0100001N9+02481+02031101121ADDAA106000091AG10999GF108991081021004501999999KA1240N+01641MA1999999096351MD1999999+0011REMSYN017333   20164 58001
0096832420999991990021318004-12567-041383FM-12+042799999V0200901N00151105001CN0500001N9+03251+02301100641ADDAA106000091AG10999GF108991031011004501001071MA1999999095831MD1999999-0081REMSYN011333   59008
0115832420999991990021400004-12567-041383FM-12+042799999V0200901N00051004201CN9999999N9+02701+02221100811ADDAA106000091AG10999GF108991081031004501999999KA1240M+03301MA1999999096071MD1999999-0021REMSYN017333   10330 59002
0135832420999991990021412004-12567-041383FM-12+042799999V0200901N00051004201CN0040001N9+02341+02221101111ADDAA124001091AG10999AY161061GF108991081051004501999999KA1240N+01701MA1999999096331MD1999999-0021MW1021REMSYN023333   20170 59002 60014
0096832420999991990021418004-12567-041383FM-12+042799999V0202301N00051105001CN0100001N9+03221+02401100431ADDAA106000091AG10999GF108991041031004501001031MA1999999095751MD1999999-0081REMSYN011333   59008
0115832420999991990021500004-12567-041383FM-12+042799999V0202701N00361004201CN9999999N9+02781+02211100781ADDAA106000091AG10999GF108991081031004501999999KA1240M+03261MA1999999096031MD1999999-0041REMSYN017333   10326 59004
0135832420999991990021512004-12567-041383FM-12+042799999V0201801N00051004201CN0040001N9+02181+02101101211ADDAA124004091AG10999AY161061GF108991081051004501999999KA1240N+01621MA1999999096431MD1999999+0101MW1021REMSYN023333   20162 58010 60044
0124832420999991990021518004-12567-041383FM-12+042799999V0201801N00151004201CN0100001N9+02501+02191100771ADDAA106000191AG10999AY121061AY251061GF108991081051004501999999MA1999999096001MD1999999+0151MW1021REMSYN017333   58015 69911
0115832420999991990021600004-12567-041383FM-12+042799999V0202701N00051004201CN9999999N9+02341+02261101081ADDAA106000091AG10999GF108991081051004501999999KA1240M+02821MA1999999096261MD1999999+0231REMSYN017333   10282 58023
0121832420999991990021612004-12567-041383FM-12+042799999V0201401N00151004201CN0200001N9+02281+02071101161ADDAA124000191AG10999GF108991081051004501999999KA1240N+01701MA1999999096341MD1999999-0091REMSYN023333   20170 59009 69914
0096832420999991990021618004-12567-041383FM-12+042799999V0203601N00261045001CN0200001N9+02601+02331100841ADDAA106000091AG10999GF108991041051004501011999MA1999999096061MD1999999+0061REMSYN011333   58006
0115832420999991990021700004-12567-041383FM-12+042799999V0209991C00001220001CN9999999N9+02401+02171100981ADDAA106000091AG10999GF100991001001999999001001KA1240M+02841MA1999999096181MD1999999-0081REMSYN017333   10284 59008
0135832420999991990021712004-12567-041383FM-12+042799999V0203601N001019999999N0200001N9+02101+02051101401ADDAA124007091AG10999AY161061GF108991999999004501999999KA1240N+01341MA1999999096541MD1999999+0201MW1021REMSYN023333   20134 58020 60074
0115832420999991990021800004-12567-041383FM-12+042799999V0203201N00101004201CN9999999N9+02621+02011100991ADDAA106000091AG10999GF108991081031004501999999KA1240M+02781MA1999999096191MD1999999+0011REMSYN017333   10278 58001
0121832420999991990021812004-12567-041383FM-12+042799999V0203201N00101045001CN0200001N9+02441+02091101491ADDAA124000191AG10999GF108991041051004501011999KA1240N+01521MA1999999096701MD1999999+0161REMSYN023333   20152 58016 69914
0096832420999991990021818004-12567-041383FM-12+042799999V0203601N00051045001CN0200001N9+02841+02261101031ADDAA106000091AG10999GF108991041021004501051999MA1999999096271MD1999999-0121REMSYN011333   59012
0143832420999991990021900004-12567-041383FM-12+042799999V0209991C00001220001CN9999999N9+02201+02171101141ADDAA106005091AG10999AY161061AY211061GF100991001001999999001001KA1240M+02941MA1999999096321MD1999999+0131MW1001REMSYN023333   10294 58013 60051
0121832420999991990021912004-12567-041383FM-12+042799999V0202301N00051220001CN0200001N9+02421+02191101451ADDAA124005091AG10999GF103991031021004501001001KA1240N+01341MA1999999096621MD1999999-0081REMSYN023333   20134 59008 60054
0096832420999991990021918004-12567-041383FM-12+042799999V0201801N00151105001CN0500001N9+03241+02361100831ADDAA106000091AG10999GF108991041021004501001071MA1999999096111MD1999999-0161REMSYN011333   59016
0135832420999991990022012004-12567-041383FM-12+042799999V0203601N00361004201CN0020001N9+02411+02111101581ADDAA124011091AG10999AY161061GF108991081051004501999999KA1240N+01421MA1999999096751MD1999999+0131MW1211REMSYN023333   20142 58013 60114
0116832420999991990022018004-12567-041383FM-12+042799999V0200901N00571004201CN0200001N9+02341+02201101201ADDAA106003091AG10999AY161061GF108991051041004501011999MA1999999096361MD1999999+0251MW1021REMSYN017333   58025 60031
0115832420999991990022100004-12567-041383FM-12+042799999V0203601N00151220001CN9999999N9+02121+02071101391ADDAA106000091AG10999GF100991001001999999001001KA1240M+02621MA1999999096531MD1999999+0001REMSYN017333   10262 58000
0121832420999991990022112004-12567-041383FM-12+042799999V0201801N00051004201CN0100001N9+02391+02131101491ADDAA124003091AG10999GF108991081041004501999999KA1240N+01431MA1999999096651MD1999999-0101REMSYN023333   20143 59010 60034
0096832420999991990022118004-12567-041383FM-12+042799999V0200901N00151220001CN0500001N9+03041+02121101001ADDAA106000091AG10999GF104991031011004501001011MA1999999096241MD1999999-0121REMSYN011333   59012
0115832420999991990022200004-12567-041383FM-12+042799999V0203601N00101220001CN9999999N9+02361+02191101171ADDAA106000091AG10999GF100991001001999999001001KA1240M+03061MA1999999096371MD1999999-0161REMSYN017333   10306 59016
0115832420999991990022212004-12567-041383FM-12+042799999V0203601N00211004201CN0100001N9+02431+02171101411ADDAA106000091AG10999GF108991081051004501999999KA1240N+01521MA1999999096601MD1999999-0051REMSYN017333   20152 59005
0096832420999991990022218004-12567-041383FM-12+042799999V0201801N00151004201CN0500001N9+02961+02281100841ADDAA106000091AG10999GF105991051031004501001001MA1999999096101MD1999999-0141REMSYN011333   59014
0115832420999991990022300004-12567-041383FM-12+042799999V0200901N00101220001CN9999999N9+02441+02191100971ADDAA106000091AG10999GF100991001001999999001001KA1240M+03121MA1999999096191MD1999999-0181REMSYN017333   10312 59018
0096832420999991990022318004-12567-041383FM-12+042799999V0201801N00151105001CN0200001N9+03001+02291100551ADDAA106000091AG10999GF108991041031004501001031MA1999999095831MD1999999-0271REMSYN011333   59027
0115832420999991990022400004-12567-041383FM-12+042799999V0209991C00001220001CN9999999N9+02481+02291100931ADDAA106000091AG10999GF104991041031004501001001KA1240M+03081MA1999999096141MD1999999-0051REMSYN017333   10308 59005
0135832420999991990022412004-12567-041383FM-12+042799999V0200501N00151004201CN0040001N9+02351+02191101131ADDAA124003091AG10999AY161061GF108991081051004501999999KA1240N+01661MA1999999096331MD1999999-0061MW1021REMSYN023333   20166 59006 60034
0096832420999991990022418004-12567-041383FM-12+042799999V0200901N00151220001CN0500001N9+02961+02231100611ADDAA106000091AG10999GF107991021011004501001011MA1999999095881MD1999999+0051REMSYN011333   58005
0115832420999991990022500004-12567-041383FM-12+042799999V0201801N00051220001CN9999999N9+02521+02231100881ADDAA106000091AG10999GF104991041031004501001001KA1240M+03061MA1999999096101MD1999999-0041REMSYN017333   10306 59004
0135832420999991990022512004-12567-041383FM-12+042799999V0201801N00151004201CN0100001N9+02361+02131101261ADDAA124000191AG10999AY151061GF108991081051004501999999KA1240N+01581MA1999999096471MD1999999+0141MW1021REMSYN023333   20158 58014 69914
0096832420999991990022518004-12567-041383FM-12+042799999V0201801N00211220001CN0500001N9+03041+02061100681ADDAA106000091AG10999GF108991041021004501001011MA1999999095941MD1999999+0061REMSYN011333   58006
0115832420999991990022600004-12567-041383FM-12+042799999V0203601N00151220001CN9999999N9+02801+02111100891ADDAA106000091AG10999GF100991001001999999001001KA1240M+03091MA1999999096101MD1999999+0001REMSYN017333   10309 58000
0135832420999991990022612004-12567-041383FM-12+042799999V0209991C00001004201CN0200001N9+02301+02221101291ADDAA124001091AG10999AY161061GF108991081051004501999999KA1240N+01681MA1999999096461MD1999999-0011MW1021REMSYN023333   20168 59001 60014
0096832420999991990022618004-12567-041383FM-12+042799999V0202301N00211220001CN0500001N9+03041+99999100801ADDAA106000091AG10999GF103991031021004501001001MA1999999096061MD1999999+0121REMSYN011333   58012
0115832420999991990022700004-12567-041383FM-12+042799999V0209991C00001220001CN9999999N9+02441+02251100971ADDAA106000091AG10999GF100991001001999999001001KA1240M+03101MA1999999096151MD1999999+0051REMSYN017333   10310 58005
0146832420999991990022712004-12567-041383FM-12+042799999V0201801N00101045001CN0200001N9+02181+02101101281ADDAA124000791AA299001091AG10999AY151061GF108991041051004501021999KA1240N+01561MA1999999096451MD1999999-0011MW1021REMSYN023333   20156 59001 69974
0096832420999991990022718004-12567-041383FM-12+042799999V0202301N00151045001CN0200001N9+02781+02131100911ADDAA106000091AG10999GF108991041051004501021999MA1999999096151MD1999999+0091REMSYN011333   58009
0115832420999991990022800004-12567-041383FM-12+042799999V0209991C00001220001CN9999999N9+02781+02111100971ADDAA106000091AG10999GF100991001001999999001001KA1240M+02901MA1999999096191MD1999999+0081REMSYN017333   10290 58008
0115832420999991990022812004-12567-041383FM-12+042799999V0201401N00211004201CN0500001N9+02381+01861101291ADDAA106000091AG10999GF105991051021004501001001KA1240N+01321MA1999999096471MD1999999+0021REMSYN017333   20132 58002
0096832420999991990022818004-12567-041383FM-12+042799999V0201801N00211004201CN0200001N9+02461+02091101141ADDAA106000091AG10999GF108991081051004501999999MA1999999096331MD1999999+0181REMSYN011333   58018
0115832420999991990030100004-12567-041383FM-12+042799999V0203601N00101220001CN9999999N9+02321+01911101001ADDAA106000091AG10999GF100991001001999999001001KA1240M+02781MA1999999096291MD1999999+0101REMSYN017333   10278 58010
0115832420999991990030112004-12567-041383FM-12+042799999V0201801N00261045001CN0200001N9+02481+02111100951ADDAA106000091AG10999GF108991041021004501061999KA1240N+01561MA1999999096161MD1999999-0311REMSYN017333   20156 59031
0143832420999991990030200004-12567-041383FM-12+042799999V0209991C00001004201CN9999999N9+02181+02151101521ADDAA106006091AG10999AY161061AY221061GF108991081051004501999999KA1240M+02941MA1999999096691MD1999999+0401MW1031REMSYN023333   10294 58040 60061
0135832420999991990030212004-12567-041383FM-12+042799999V0209991C00001004201CN0200001N9+02161+01111101621ADDAA124007091AG10999AY161061GF108991081051004501999999KA1240N+01521MA1999999096751MD1999999+0591MW1021REMSYN023333   20152 58059 60074
0096832420999991990030218004-12567-041383FM-12+042799999V0201801N00151220001CN0500001N9+02821+02051101241ADDAA106000091AG10999GF103991031021004501001001MA1999999096451MD1999999+0121REMSYN011333   58012
0115832420999991990030300004-12567-041383FM-12+042799999V0201601N00151004201CN9999999N9+02441+02131101341ADDAA106000091AG10999GF105991051031004501001001KA1240M+03021MA1999999096511MD1999999-0181REMSYN017333   10302 59018
0135832420999991990030312004-12567-041383FM-12+042799999V0201801N00151004201CN0100001N9+02401+02091101541ADDAA124003091AG10999AY161061GF108991081051004501999999KA1240N+01581MA1999999096721MD1999999-0031MW1021REMSYN023333   20158 59003 60034
0096832420999991990030318004-12567-041383FM-12+042799999V0201801N00151004201CN0500001N9+02801+02191101171ADDAA106000091AG10999GF107991071011004501001001MA1999999096391MD1999999-0061REMSYN011333   59006
0115832420999991990030400004-12567-041383FM-12+042799999V0203601N00101220001CN9999999N9+02331+02111101281ADDAA106000091AG10999GF102991021021004501001001KA1240M+02981MA1999999096471MD1999999-0041REMSYN017333   10298 59004
0115832420999991990030412004-12567-041383FM-12+042799999V0201801N00211220001CN0200001N9+02521+02071101441ADDAA106000091AG10999GF106991031021004501001011KA1240N+01501MA1999999096641MD1999999-0081REMSYN017333   20150 59008
0096832420999991990030418004-12567-041383FM-12+042799999V0201801N00151105001CN0500001N9+02941+02081100991ADDAA106000091AG10999GF108991031011004501001071MA1999999096241MD1999999-0151REMSYN011333   59015
0115832420999991990030500004-12567-041383FM-12+042799999V0209991C00001045001CN9999999N9+02521+02091101171ADDAA106000091AG10999GF108991041021004501061999KA1240M+03001MA1999999096391MD1999999-0081REMSYN017333   10300 59008
0135832420999991990030512004-12567-041383FM-12+042799999V0201801N00151004201CN0100001N9+02341+02131101331ADDAA124001091AG10999AY161061GF108991081051004501999999KA1240N+01641MA1999999096531MD1999999-0111MW1021REMSYN023333   20164 59011 60014
0124832420999991990030518004-12567-041383FM-12+042799999V0201801N00101004201CN0200001N9+02301+02231100981ADDAA106007091AG10999AY161061AY221061GF108991081051004501999999MA1999999096171MD1999999-0071MW1021REMSYN017333   59007 60071
0143832420999991990030600004-12567-041383FM-12+042799999V0203601N00151004201CN9999999N9+02291+02281101241ADDAA106000191AG10999AY151061AY221061GF108991081051004501999999KA1240M+02701MA1999999096421MD1999999+0031MW1021REMSYN023333   10270 58003 69911
0121832420999991990030612004-12567-041383FM-12+042799999V0201801N00101045001CN0200001N9+02341+02071101531ADDAA124007091AG10999GF108991041051004501011999KA1240N+01501MA1999999096691MD1999999+0161REMSYN023333   20150 58016 60074
0115832420999991990030700004-12567-041383FM-12+042799999V0203601N00101220001CN9999999N9+02501+02031101191ADDAA106000091AG10999GF102991021021004501001001KA1240M+03121MA1999999096391MD1999999-0031REMSYN017333   10312 59003
0115832420999991990030712004-12567-041383FM-12+042799999V0201801N00211004201CN0100001N9+02401+02031101511ADDAA106000091AG10999GF107991071021004501001001KA1240N+01521MA1999999096701MD1999999+0011REMSYN017333   20152 58001
0096832420999991990030718004-12567-041383FM-12+042799999V0202301N00151105001CN0500001N9+02881+02181101101ADDAA106000091AG10999GF106991031011004501001081MA1999999096341MD1999999+0121REMSYN011333   58012
0115832420999991990030800004-12567-041383FM-12+042799999V0201801N00151004201CN9999999N9+02481+02131101301ADDAA106000091AG10999GF108991081051004501999999KA1240M+02991MA1999999096501MD1999999+0111REMSYN017333   10299 58011
0115832420999991990030812004-12567-041383FM-12+042799999V0201801N00151045001CN0200001N9+02361+02031101581ADDAA106000091AG10999GF108991041051004501011999KA1240N+01581MA1999999096761MD1999999+0061REMSYN017333   20158 58006
0096832420999991990030818004-12567-041383FM-12+042799999V0202301N00311220001CN0500001N9+02981+02041101151ADDAA106000091AG10999GF104991041021004501001001MA1999999096401MD1999999+0061REMSYN011333   58006
0115832420999991990030912004-12567-041383FM-12+042799999V0201801N00151004201CN0200001N9+02421+02111101741ADDAA106000091AG10999GF108991081021004501999999KA1240N+01541MA1999999096921MD1999999+0161REMSYN017333   20154 58016
0115832420999991990031000004-12567-041383FM-12+042799999V0201801N00261004201CN9999999N9+02501+02001101521ADDAA106000091AG10999GF108991081051004501999999KA1240M+03141MA1999999096711MD1999999+0301REMSYN017333   10314 58030
0115832420999991990031012004-12567-041383FM-12+042799999V0201401N00211004201CN0200001N9+02451+02011101721ADDAA106000091AG10999GF107991071021004501001001KA1240N+01641MA1999999096911MD1999999-0011REMSYN017333   20164 59001
0135832420999991990031112004-12567-041383FM-12+042799999V0200501N00101004201CN0200001N9+02321+02271101561ADDAA124010091AG10999AY161061GF108991081021004501999999KA1240N+01641MA1999999096731MD1999999-0181MW1031REMSYN023333   20164 59018 60104
0096832420999991990031118004-12567-041383FM-12+042799999V0202701N00051105001CN0500001N9+02901+02251101031ADDAA106000091AG10999GF108991041021004501001071MA1999999096261MD1999999-0131REMSYN011333   59013
0115832420999991990031200004-12567-041383FM-12+042799999V0209991C00001045001CN9999999N9+02441+02271101301ADDAA106000091AG10999GF106991031021004501061001KA1240M+03001MA1999999096501MD1999999-0071REMSYN017333   10300 59007
0121832420999991990031212004-12567-041383FM-12+042799999V0201801N00151004201CN0200001N9+02381+02071101531ADDAA124000191AG10999GF106991061021004501001001KA1240N+01581MA1999999096711MD1999999-0021REMSYN023333   20158 59002 69914
0096832420999991990031218004-12567-041383FM-12+042799999V0201801N00311220001CN0500001N9+03101+99999100951ADDAA106000091AG10999GF102991021021004501001001MA1999999096221MD1999999-0041REMSYN011333   59004
0115832420999991990031300004-12567-041383FM-12+042799999V0201801N00151021001CN9999999N9+02541+02171101161ADDAA106000091AG10999GF107991071001022501031001KA1240M+03141MA1999999096371MD1999999-0131REMSYN017333   10314 59013
0115832420999991990031312004-12567-041383FM-12+042799999V0209991C00001045001CN0200001N9+02501+02191101221ADDAA106000091AG10999GF108991041041004501021999KA1240N+01721MA1999999096441MD1999999-0271REMSYN017333   20172 59027
0096832420999991990031318004-12567-041383FM-12+042799999V0200501N00151220001CN0500001N9+03141+02241100821ADDAA106000091AG10999GF102991021011004501001001MA1999999096111MD1999999-0111REMSYN011333   59011
0134832420999991990031400004-12567-041383FM-12+042799999V0203601N00101021001CN9999999N9+02761+02071100911ADDAA106000091AG10999GF108991999001022501031001KA1240M+03201MA1999999096111MD1999999-0261REMSYN017333   10320 59026EQDQ01+000062SCOTLC
0115832420999991990031412004-12567-041383FM-12+042799999V0203601N00101004201CN0100001N9+02541+02131101091ADDAA106000091AG10999GF108991081041004501999999KA1240N+01801MA1999999096341MD1999999-0101REMSYN017333   20180 59010
0096832420999991990031418004-12567-041383FM-12+042799999V0201401N00211004201CN0500001N9+03141+02211100721ADDAA106000091AG10999GF105991051021004501001001MA1999999096021MD1999999-0091REMSYN011333   59009
0115832420999991990031500004-12567-041383FM-12+042799999V0203601N00151220001CN9999999N9+02481+02171100901ADDAA106000091AG10999GF100991001001999999001001KA1240M+03161MA1999999096131MD1999999+0021REMSYN017333   10316 58002
0115832420999991990031512004-12567-041383FM-12+042799999V0201801N00101105001CN0200001N9+02501+02211101221ADDAA106000091AG10999GF108991041011004501001071KA1240N+01681MA1999999096441MD1999999+0101REMSYN017333   20168 58010
0096832420999991990031518004-12567-041383FM-12+042799999V0201801N00311220001CN0500001N9+02981+02231100841ADDAA106000091AG10999GF103991031011004501001001MA1999999096111MD1999999+0091REMSYN011333   58009
0135832420999991990031612004-12567-041383FM-12+042799999V0201801N00151105001CN0100001N9+02541+02111101211ADDAA124004091AG10999AY161061GF108991041021004501001071KA1240N+01761MA1999999096441MD1999999+0001MW1021REMSYN023333   20176 58000 60044
0096832420999991990031618004-12567-041383FM-12+042799999V0202301N00101220001CN0500001N9+02981+02251100751ADDAA106000091AG10999GF103991031021004501001001MA1999999096031MD1999999-0081REMSYN011333   59008
0115832420999991990031700004-12567-041383FM-12+042799999V0200901N00051220001CN9999999N9+02461+02151100931ADDAA106000091AG10999GF100991001001999999001001KA1240M+03081MA1999999096161MD1999999+0081REMSYN017333   10308 58008
0115832420999991990031712004-12567-041383FM-12+042799999V0200501N00151105001CN0200001N9+02561+01881101311ADDAA106000091AG10999GF108991031011004501001071KA1240N+01741MA1999999096521MD1999999+0081REMSYN017333   20174 58008
0096832420999991990031718004-12567-041383FM-12+042799999V0201801N00311220001CN0500001N9+02981+02231100841ADDAA106000091AG10999GF103991031011004501001001MA1999999096111MD1999999+0191REMSYN011333   58019
0212832420999991990031800004-12567-041383FM-12+042799999V0200401N00101220001CN0100001N9+99999+99999102162ADDAG10999GF102991001001999999001011MA1999999999999MD1210101+9999REMSYN023333   91105 555   1/138EQDQ01+023713ATOT  Q02+023353ATOD  Q03+101983APOSP Q04+102163APOSLPQ05 -03613ATOT  Q06 -03973ATOD  Q07 101983APOSP 
0115832420999991990031812004-12567-041383FM-12+042799999V0201401N00151004201CN0200001N9+02521+02131101411ADDAA106000091AG10999GF108991081051004501999999KA1240N+01421MA1999999096621MD1999999+0101REMSYN017333   20142 58010
0096832420999991990031818004-12567-041383FM-12+042799999V0201801N00051220001CN0500001N9+03121+02111100941ADDAA106000091AG10999GF104991041021004501001001MA1999999096211MD1999999+0191REMSYN011333   58019
0135832420999991990031912004-12567-041383FM-12+042799999V0201801N00151004201CN0100001N9+02401+02091101551ADDAA124000391AG10999AY151061GF108991081051004501999999KA1240N+01481MA1999999096741MD1999999+0121MW1021REMSYN023333   20148 58012 69934
0096832420999991990031918004-12567-041383FM-12+042799999V0201401N00311220001CN0500001N9+03141+02041101061ADDAA106000091AG10999GF102991021021004501001001MA1999999096291MD1999999+0081REMSYN011333   58008
0115832420999991990032000004-12567-041383FM-12+042799999V0203601N00101220001CN9999999N9+02421+01991101181ADDAA106000091AG10999GF100991001001999999001001KA1240M+03201MA1999999096381MD1999999+0111REMSYN017333   10320 58011
0115832420999991990032012004-12567-041383FM-12+042799999V0201801N00101004201CN0200001N9+02401+02011101501ADDAA106000091AG10999GF108991081051004501999999KA1240N+01621MA1999999096691MD1999999-0051REMSYN017333   20162 59005
0096832420999991990032018004-12567-041383FM-12+042799999V0202301N00151220001CN0500001N9+02981+02151100961ADDAA106000091AG10999GF102991021011004501001001MA1999999096221MD1999999-0071REMSYN011333   59007
0115832420999991990032100004-12567-041383FM-12+042799999V0209991C00001220001CN9999999N9+02301+02231100941ADDAA106000091AG10999GF100991001001999999001001KA1240M+03091MA1999999096141MD1999999-0241REMSYN017333   10309 59024
0135832420999991990032112004-12567-041383FM-12+042799999V0201801N00151004201CN0200001N9+02461+02011101441ADDAA124000191AG10999AY151061GF106991061021004501001001KA1240N+01681MA1999999096631MD1999999-0061MW1021REMSYN023333   20168 59006 69914
0096832420999991990032118004-12567-041383FM-12+042799999V0202301N00151220001CN0500001N9+03121+02171100841ADDAA106000091AG10999GF102991021011004501001001MA1999999096101MD1999999-0121REMSYN011333   59012
0115832420999991990032200004-12567-041383FM-12+042799999V0201801N00051220001CN9999999N9+02581+02061101001ADDAA106000091AG10999GF108991001001999999001011KA1240M+03181MA1999999096231MD1999999+0091REMSYN017333   10318 58009
0146832420999991990032212004-12567-041383FM-12+042799999V0201801N00051045001CN0200001N9+02421+02051101381ADDAA124000691AA299000591AG10999AY151061GF108991041051004501011999KA1240N+01481MA1999999096591MD1999999-0041MW1031REMSYN023333   20148 59004 69964
0096832420999991990032218004-12567-041383FM-12+042799999V0209991C00001105001CN0500001N9+03161+02171100731ADDAA106000091AG10999GF108991041011004501001071MA1999999096011MD1999999-0091REMSYN011333   59009
0115832420999991990032312004-12567-041383FM-12+042799999V0203601N00151004201CN0100001N9+02361+02051101271ADDAA106000091AG10999GF108991081051004501999999KA1240N+01561MA1999999096471MD1999999-0121REMSYN017333   20156 59012
0096832420999991990032318004-12567-041383FM-12+042799999V0201401N00311220001CN0500001N9+02941+02161100911ADDAA106000091AG10999GF102991021011004501001001MA1999999096101MD1999999+0091REMSYN011333   58009
0115832420999991990032400004-12567-041383FM-12+042799999V0203601N00151220001CN9999999N9+02361+02061101121ADDAA106000091AG10999GF100991001001999999001001KA1240M+03021MA1999999096201MD1999999-0011REMSYN017333   10302 59001
0115832420999991990032412004-12567-041383FM-12+042799999V0201401N00101045001CN0200001N9+02421+02131101181ADDAA106000091AG10999GF108991041051004501021999KA1240N+01441MA1999999096381MD1999999-0091REMSYN017333   20144 59009
0096832420999991990032418004-12567-041383FM-12+042799999V02099999999999999999N0500001N9+03101+02151100601ADDAA106000091AG10999GF199999041011004501001071MA1999999095861MD1999999-0241REMSYN011333   59024
0115832420999991990032500004-12567-041383FM-12+042799999V0209991C00001220001CN9999999N9+02461+02151100891ADDAA106000091AG10999GF100991001001999999001001KA1240M+03201MA1999999096111MD1999999-0091REMSYN017333   10320 59009
0115832420999991990032512004-12567-041383FM-12+042799999V0201801N00051004201CN0100001N9+02491+02151101361ADDAA106000091AG10999GF108991081051004501999999KA1240N+01481MA1999999096571MD1999999+0191REMSYN017333   20148 58019
0096832420999991990032518004-12567-041383FM-12+042799999V0201801N00151220001CN0500001N9+03341+02091100771ADDAA106000091AG10999GF107991031021004501001011MA1999999096061MD1999999+0201REMSYN011333   58020
0115832420999991990032600004-12567-041383FM-12+042799999V0209991C00001220001CN9999999N9+02561+02021100981ADDAA106000091AG10999GF100991001001999999001001KA1240M+03361MA1999999096221MD1999999+0111REMSYN017333   10336 58011
0115832420999991990032612004-12567-041383FM-12+042799999V0201801N00151004201CN0200001N9+02501+02111101311ADDAA106000091AG10999GF108991081021004501999999KA1240N+01581MA1999999096531MD1999999-0041REMSYN017333   20158 59004
0096832420999991990032618004-12567-041383FM-12+042799999V0201801N00151220001CN0500001N9+02321+02201100821ADDAA106000091AG10999GF103991031021004501001001MA1999999096111MD1999999+0051REMSYN011333   58005
0115832420999991990032700004-12567-041383FM-12+042799999V0209991C00001220001CN9999999N9+02661+01971100831ADDAA106000091AG10999GF100991001001999999001001KA1240M+03341MA1999999096091MD1999999-0131REMSYN017333   10334 59013
0115832420999991990032712004-12567-041383FM-12+042799999V0201801N00051045001CN0200001N9+02441+02091101321ADDAA106000091AG10999GF108991041021004501061999KA1240N+01521MA1999999096541MD1999999-0011REMSYN017333   20152 59001
0096832420999991990032718004-12567-041383FM-12+042799999V0201801N00151105001CN0500001N9+03181+02101100761ADDAA106000091AG10999GF108991041011004501001071MA1999999096051MD1999999-0061REMSYN011333   59006
0115832420999991990032800004-12567-041383FM-12+042799999V0203601N00151220001CN9999999N9+02441+01861100971ADDAA106000091AG10999GF100991001001999999001001KA1240M+03201MA1999999096191MD1999999+0101REMSYN017333   10320 58010
0115832420999991990032812004-12567-041383FM-12+042799999V0201801N00151021001CN0200001N9+02421+01991101251ADDAA106000091AG10999GF108991081001022501011999KA1240N+01641MA1999999096461MD1999999-0081REMSYN017333   20164 59008
0096832420999991990032818004-12567-041383FM-12+042799999V0201801N00151220001CN0500001N9+03141+02211100771ADDAA106000091AG10999GF102991021021004501001001MA1999999096051MD1999999+0001REMSYN011333   58000
0146832420999991990032912004-12567-041383FM-12+042799999V0201801N00211004201CN0200001N9+02641+02251101421ADDAA124000891AA299001091AG10999AY151061GF107991071021004501001001KA1240N+01741MA1999999096631MD1999999+0171MW1031REMSYN023333   20174 58017 69984
0096832420999991990032918004-12567-041383FM-12+042799999V0201801N00261105001CN0500001N9+03181+02311100901ADDAA106000091AG10999GF108991041021004501001071MA1999999096191MD1999999+0141REMSYN011333   58014
0115832420999991990033000004-12567-041383FM-12+042799999V0201801N00051220001CN9999999N9+02451+02191101151ADDAA106000091AG10999GF102991021031004501001001KA1240M+03231MA1999999096381MD1999999+0201REMSYN017333   10323 58020
0135832420999991990033012004-12567-041383FM-12+042799999V0201801N00151045001CN0200001N9+02561+02111101311ADDAA124000191AG10999AY151061GF107991031021004501061011KA1240N+01701MA1999999096521MD1999999-0111MW1021REMSYN023333   20170 59011 69914
0096832420999991990033018004-12567-041383FM-12+042799999V0201401N00101004201CN0500001N9+03121+02221100781ADDAA106000091AG10999GF105991051021004501001001MA1999999096061MD1999999-0031REMSYN011333   59003
0154832420999991990033100004-12567-041383FM-12+042799999V0201801N00411004201CN9999999N9+02381+02191101121ADDAA106000491AA299000591AG10999AY151061AY221061GF108991081031004501999999KA1240M+03221MA1999999096331MD1999999-0051MW1291REMSYN023333   10322 59005 69941
0135832420999991990033112004-12567-041383FM-12+042799999V0201801N00211004201CN0200001N9+02441+02211101351ADDAA124002091AG10999AY161061GF108991081021004501999999KA1240N+01621MA1999999096541MD1999999+0021MW1031REMSYN023333   20162 58002 60024
0135832420999991990033118004-12567-041383FM-12+042799999V0201801N00311004201CN0100001N9+02591+02351100951ADDAA106000891AA299001091AG10999AY161061AY221061GF107991051031004501061001MA1999999096171MD1999999+0111MW1011REMSYN017333   58011 69981
0115832420999991990040100004-12567-041383FM-12+042799999V0200901N00051220001CN9999999N9+02361+02051101141ADDAA106000091AG10999GF103991021021004501001011KA1240M+03101MA1999999096341MD1999999+0011REMSYN017333   10310 58001
0132832420999991990040112004-12567-041383FM-12+042799999V0201801N00311004201CN0100001N9+02441+02071101391ADDAA124000891AA299001091AG10999GF108991081041004501999999KA1240N+01661MA1999999096581MD1999999+0041REMSYN023333   20166 58004 69984
0096832420999991990040118004-12567-041383FM-12+042799999V0201801N00361045001CN0200001N9+02761+02191101111ADDAA106000091AG10999GF108991041051004501011999MA1999999096251MD1999999+0081REMSYN011333   58008
0115832420999991990040200004-12567-041383FM-12+042799999V0209991C00001220001CN9999999N9+02301+02071101211ADDAA106000091AG10999GF103991031001008001061001KA1240M+02841MA1999999096401MD1999999+0061REMSYN017333   10284 58006
0115832420999991990040212004-12567-041383FM-12+042799999V0201401N00211004201CN0200001N9+02561+02041101471ADDAA106000091AG10999GF108991051021004501001011KA1240N+01671MA1999999096671MD1999999+0091REMSYN017333   20167 58009
0096832420999991990040218004-12567-041383FM-12+042799999V0202301N00101105001CN0500001N9+03121+02081100891ADDAA106000091AG10999GF108991041011004501001071MA1999999096171MD1999999-0081REMSYN011333   59008
0115832420999991990040300004-12567-041383FM-12+042799999V0209991C00001220001CN9999999N9+02421+01991101051ADDAA106000091AG10999GF100991001001999999001001KA1240M+03141MA1999999096281MD1999999-0391REMSYN017333   10314 59039
0115832420999991990040312004-12567-041383FM-12+042799999V0201801N00211045001CN0200001N9+02401+02111101391ADDAA106000091AG10999GF108991041051004501021999KA1240N+01641MA1999999096581MD1999999-0061REMSYN017333   20164 59006
0115832420999991990040400004-12567-041383FM-12+042799999V0203601N00211220001CN9999999N9+02481+02091100911ADDAA106000091AG10999GF100991001001999999001001KA1240M+03101MA1999999096131MD1999999-0151REMSYN017333   10310 59015
0115832420999991990040412004-12567-041383FM-12+042799999V0203601N00051004201CN0100001N9+02481+02151101321ADDAA106000091AG10999GF108991081051004501999999KA1240N+01661MA1999999096531MD1999999-0051REMSYN017333   20166 59005
0096832420999991990040418004-12567-041383FM-12+042799999V0201801N00211105001CN0500001N9+03161+02421100851ADDAA106000091AG10999GF108991041021004501001071MA1999999096121MD1999999+0021REMSYN011333   58002
0115832420999991990040500004-12567-041383FM-12+042799999V0201801N00101004201CN9999999N9+02481+02091101011ADDAA106000091AG10999GF108991081041004501999999KA1240M+03121MA1999999096241MD1999999-0141REMSYN017333   10312 59014
0115832420999991990040512004-12567-041383FM-12+042799999V0201401N00101045001CN0200001N9+02481+02151101431ADDAA106000091AG10999GF108991041051004501021999KA1240N+01721MA1999999096641MD1999999+0111REMSYN017333   20172 58011
0096832420999991990040518004-12567-041383FM-12+042799999V0201801N00101105001CN0500001N9+03001+02341101071ADDAA106000091AG10999GF108991041011004501001071MA1999999096331MD1999999-0201REMSYN011333   59020
0115832420999991990040612004-12567-041383FM-12+042799999V0209991C00001004201CN0100001N9+02311+02161101491ADDAA106000091AG10999GF108991081041004501999999KA1240N+01721MA1999999096671MD1999999+0031REMSYN017333   20172 58003
0115832420999991990040700004-12567-041383FM-12+042799999V0203601N00261021001CN9999999N9+02371+02171101201ADDAA106000091AG10999GF106991061001022501061001KA1240M+03021MA1999999096411MD1999999+0151REMSYN017333   10302 58015
0115832420999991990040712004-12567-041383FM-12+042799999V0201801N00261004201CN0200001N9+02581+02121101321ADDAA106000091AG10999GF105991051021004501001001KA1240N+01721MA1999999096531MD1999999-0141REMSYN017333   20172 59014
0096832420999991990040718004-12567-041383FM-12+042799999V0201801N00261220001CN0500001N9+03221+02141100701ADDAA106000091AG10999GF104991021021004501001011MA1999999096001MD1999999-0221REMSYN011333   59022
0143832420999991990040800004-12567-041383FM-12+042799999V0200901N00261004201CN9999999N9+02491+02111101071ADDAA106001091AG10999AY161061AY221061GF108991081051004501999999KA1240M+03281MA1999999096301MD1999999-0021MW1021REMSYN023333   10328 59002 60011
0135832420999991990040812004-12567-041383FM-12+042799999V0201801N00051045001CN0200001N9+02221+02191101691ADDAA124004091AG10999AY161061GF108991041051004501011999KA1240N+01481MA1999999096851MD1999999+0321MW1021REMSYN023333   20148 58032 60044
0096832420999991990040818004-12567-041383FM-12+042799999V0202301N00101045001CN0200001N9+02921+02191101071ADDAA106000091AG10999GF108991031011004501061071MA1999999096221MD1999999+0221REMSYN011333   58022
0115832420999991990040900004-12567-041383FM-12+042799999V0200501N00051021001CN9999999N9+02421+02191101191ADDAA106000091AG10999GF106991061001022501041001KA1240M+03041MA1999999096371MD1999999+0071REMSYN017333   10304 58007
0115832420999991990040912004-12567-041383FM-12+042799999V0203201N00101004201CN0200001N9+02601+02011101551ADDAA106000091AG10999GF107991071021004501001001KA1240N+01671MA1999999096751MD1999999-0101REMSYN017333   20167 59010
0115832420999991990041000004-12567-041383FM-12+042799999V0203601N00101220001CN9999999N9+02371+01931101251ADDAA106000091AG10999GF100991001001999999001001KA1240M+03201MA1999999096471MD1999999-0151REMSYN017333   10320 59015
0115832420999991990041012004-12567-041383FM-12+042799999V0201401N00261220001CN0500001N9+02621+02071101411ADDAA106000091AG10999GF106991031021004501001011KA1240N+01541MA1999999096621MD1999999-0131REMSYN017333   20154 59013
0096832420999991990041018004-12567-041383FM-12+042799999V0203601N00101220001CN0200001N9+03341+01801101061ADDAA106000091AG10999GF103991031011008001001041MA1999999095981MD1999999-0081REMSYN011333   59008
0115832420999991990041112004-12567-041383FM-12+042799999V0202301N00101220001CN0500001N9+02721+01931101201ADDAA106000091AG10999GF101991011011004501001001KA1240N+01741MA1999999096451MD1999999-0171REMSYN017333   20174 59017
0096832420999991990041118004-12567-041383FM-12+042799999V0201801N00211220001CN0500001N9+03321+02351100621ADDAA106000091AG10999GF102991021031004501001001MA1999999095941MD1999999-0031REMSYN011333   59003
0096832420999991990041218004-12567-041383FM-12+042799999V0201801N00211105001CN0500001N9+02921+02011100961ADDAA106000091AG10999GF106991031011004501001081MA1999999096231MD1999999+0291REMSYN011333   58029
0115832420999991990041300004-12567-041383FM-12+042799999V0203201N00101004201CN9999999N9+02431+02011101131ADDAA106000091AG10999GF108991081031004501999999KA1240M+02981MA1999999096321MD1999999+0111REMSYN017333   10298 58011
0135832420999991990041312004-12567-041383FM-12+042799999V0201801N00461004201CN0100001N9+02461+02091101461ADDAA124000391AG10999AY151061GF108991081051004501999999KA1240N+01681MA1999999096661MD1999999+0121MW1021REMSYN023333   20168 58012 69934
0096832420999991990041318004-12567-041383FM-12+042799999V0201801N00311004201CN0500001N9+02961+01991100931ADDAA106000091AG10999GF105991051021004501001001MA1999999096201MD1999999-0031REMSYN011333   59003
0115832420999991990041412004-12567-041383FM-12+042799999V0200901N00261004201CN0100001N9+02471+02071101421ADDAA106000091AG10999GF108991081051004501999999KA1240N+01511MA1999999096611MD1999999-0051REMSYN017333   20151 59005
0096832420999991990041418004-12567-041383FM-12+042799999V0201801N00151004201CN0500001N9+02971+02231100901ADDAA106000091AG10999GF105991051021004501001001MA1999999096141MD1999999-0061REMSYN011333   59006
0115832420999991990041500004-12567-041383FM-12+042799999V0203601N00151220001CN9999999N9+02361+01931101081ADDAA106000091AG10999GF100991001001999999001001KA1240M+03121MA1999999096291MD1999999-0141REMSYN017333   10312 59014
0115832420999991990041512004-12567-041383FM-12+042799999V0201801N00051004201CN0200001N9+02561+02081101471ADDAA106000091AG10999GF107991071021004501001001KA1240N+01661MA1999999096661MD1999999+0051REMSYN017333   20166 58005
0115832420999991990041518004-12567-041383FM-12+042799999V0201401N00211220001CN0500001N9+03141+02001100622ADDAA106000091AG10999GF104991041011004501001001MA1999999095901MD1999999-0241REMSYN011333   59024EQDQ01+100623APOSLP
0115832420999991990041600004-12567-041383FM-12+042799999V0209991C00001220001CN9999999N9+02541+02091100881ADDAA106000091AG10999GF100991001001999999001001KA1240M+03181MA1999999096131MD1999999-0161REMSYN017333   10318 59016
0115832420999991990041612004-12567-041383FM-12+042799999V0203601N00101004201CN0100001N9+02381+01891101361ADDAA106000091AG10999GF108991081041004501999999KA1240N+01641MA1999999096561MD1999999-0101REMSYN017333   20164 59010
0096832420999991990041618004-12567-041383FM-12+042799999V0202301N00051220001CN0500001N9+03041+02061100841ADDAA106000091AG10999GF102991021011004501001001MA1999999096101MD1999999+0201REMSYN011333   58020
0115832420999991990041712004-12567-041383FM-12+042799999V0201801N00211004201CN0200001N9+02481+02051101381ADDAA106000091AG10999GF108991081021004501999999KA1240N+01621MA1999999096601MD1999999+0041REMSYN017333   20162 58004
0096832420999991990041718004-12567-041383FM-12+042799999V0201801N00311220001CN0500001N9+03121+02191100971ADDAA106000091AG10999GF103991031021004501001001MA1999999096241MD1999999+0141REMSYN011333   58014
0115832420999991990041800004-12567-041383FM-12+042799999V0201801N00051220001CN9999999N9+02561+01901100961ADDAA106000091AG10999GF100991001001999999001001KA1240M+03201MA1999999096191MD1999999-0021REMSYN017333   10320 59002
0115832420999991990041812004-12567-041383FM-12+042799999V0202301N00101004201CN0200001N9+02451+01881101351ADDAA106000091AG10999GF106991061011004501001001KA1240N+01421MA1999999096561MD1999999-0041REMSYN017333   20142 59004
0096832420999991990041818004-12567-041383FM-12+042799999V0201401N00261220001CN0500001N9+03161+01991100831ADDAA106000091AG10999GF102991021011004501001001MA1999999096091MD1999999-0151REMSYN011333   59015
0115832420999991990041900004-12567-041383FM-12+042799999V0202301N00151004201CN9999999N9+02431+01881101131ADDAA106000091AG10999GF106991061031004501001001KA1240M+03201MA1999999096341MD1999999+0151REMSYN017333   10320 58015
0115832420999991990041912004-12567-041383FM-12+042799999V0201801N00211220001CN0500001N9+02541+02001101431ADDAA106000091AG10999GF102991021011000751001001KA1240N+01501MA1999999096641MD1999999+0081REMSYN017333   20150 58008
0096832420999991990041918004-12567-041383FM-12+042799999V0202301N00311220001CN0500001N9+03101+01941100831ADDAA106000091AG10999GF103991031021004501001001MA1999999096091MD1999999+0001REMSYN011333   58000
0115832420999991990042012004-12567-041383FM-12+042799999V0201801N00151021001CN0200001N9+02281+01771101471ADDAA106000091AG10999GF108991081001022501071999KA1240N+01521MA1999999096671MD1999999+0031REMSYN017333   20152 58003
0096832420999991990042018004-12567-041383FM-12+042799999V0202301N00151045001CN0500001N9+02881+02181100961ADDAA106000091AG10999GF108991041021004501061999MA1999999096201MD1999999+0111REMSYN011333   58011
0115832420999991990042100004-12567-041383FM-12+042799999V0203601N00051004201CN9999999N9+02381+01971101111ADDAA106000091AG10999GF108991081031004501999999KA1240M+02961MA1999999096301MD1999999-0161REMSYN017333   10296 59016
0104832420999991990042103004-12567-041383FM-12+042799999V0201501N00311220001CN0200001N9+02711+02281101161ADDAG10999GF104991041021008001001001MA1999999096391MD1999999-0141REMSYN011333   59014EQDQ01+999990APOSP 
0115832420999991990042112004-12567-041383FM-12+042799999V0201801N00211004201CN0100001N9+02361+01991101281ADDAA106000091AG10999GF108991081021004501999999KA1240N+01461MA1999999096471MD1999999-0201REMSYN017333   20146 59020
0096832420999991990042118004-12567-041383FM-12+042799999V0203601N00261004201CN0200001N9+02801+02291100801ADDAA106000091AG10999GF106991061021004501001001MA1999999096021MD1999999-0181REMSYN011333   59018
0154832420999991990042200004-12567-041383FM-12+042799999V0201801N00101220001CN9999999N9+02341+02111101071ADDAA106000691AA299000591AG19005AY161061AY211061GF100991001001999999001001KA1240M+02931MA1999999096271MD1999999-0031MW1021REMSYN023333   10293 59003 69961
0132832420999991990042212004-12567-041383FM-12+042799999V0201801N00211045001CN0200001N9+03001+02031101511ADDAA124000691AA299000591AG10999GF108991041011001501061999KA1240N+01561MA1999999096671MD1999999+0201REMSYN023333   20156 58020 69964
0096832420999991990042218004-12567-041383FM-12+042799999V0209991C00001220001CN0500001N9+02941+01941100881ADDAA106000091AG10999GF102991021011004501001001MA1999999096121MD1999999+0101REMSYN011333   58010
0115832420999991990042300004-12567-041383FM-12+042799999V0201801N00101220001CN9999999N9+02361+01691101261ADDAA106000091AG10999GF100991001001999999001001KA1240M+03041MA1999999096451MD1999999+0181REMSYN017333   10304 58018
0115832420999991990042303004-12567-041383FM-12+042799999V0209991C00001220001CN0200001N9+02141+01931101091ADDAA106000091AG10999GF100991001001999999001001MA1999999096231MD1999999+0091REMSYN011333   58009EQDQ01+999990APOSP 
0115832420999991990042312004-12567-041383FM-12+042799999V0201801N00151045001CN0500001N9+02141+99999101531ADDAA106000091AG10999GF107991041011004501061001KA1240N+01141MA1999999096681MD1999999+0011REMSYN017333   20114 58001
0096832420999991990042318004-12567-041383FM-12+042799999V0201801N00151004201CN0500001N9+03081+01951100861ADDAA106000091AG10999GF105991051021004501001001MA1999999096111MD1999999-0011REMSYN011333   59001
0146832420999991990042412004-12567-041383FM-12+042799999V0201801N00211045001CN0200001N9+02361+01931101641ADDAA124000691AA299000591AG10999AY151061GF108991041051004501011999KA1240N+01481MA1999999096841MD1999999+0161MW1031REMSYN023333   20148 58016 69964
0096832420999991990042418004-12567-041383FM-12+042799999V0201801N00101220001CN0500001N9+02661+02181100951ADDAA106000091AG10999GF103991031021004501001001MA1999999096171MD1999999+0061REMSYN011333   58006
0154832420999991990042500004-12567-041383FM-12+042799999V0201401N00261004201CN9999999N9+02481+02091101241ADDAA106000491AA299000591AG10999AY151061AY221061GF108991081051004501999999KA1240M+02721MA1999999096441MD1999999-0011MW1021REMSYN023333   10272 59001 69941
0135832420999991990042512004-12567-041383FM-12+042799999V0200901N00211004201CN0100001N9+02281+02051101411ADDAA124002091AG10999AY161061GF108991081021004501999999KA1240N+01401MA1999999096601MD1999999-0241MW1021REMSYN023333   20140 59024 60024
0096832420999991990042518004-12567-041383FM-12+042799999V0201801N00261220001CN0500001N9+02841+02071100851ADDAA106000091AG10999GF102991021021004501001001MA1999999096071MD1999999-0101REMSYN011333   59010
0132832420999991990042612004-12567-041383FM-12+042799999V0201801N00311004201CN0200001N9+02381+02071101221ADDAA124000491AA299000591AG10999GF107991071021004501001001KA1240N+01381MA1999999096421MD1999999-0181REMSYN023333   20138 59018 69944
0096832420999991990042618004-12567-041383FM-12+042799999V0201801N00211004201CN0500001N9+02961+02101100591ADDAA106000091AG10999GF106991061021004501001001MA1999999095851MD1999999-0221REMSYN011333   59022
0115832420999991990042700004-12567-041383FM-12+042799999V0201801N00051004201CN9999999N9+02481+02051100951ADDAA106000091AG10999GF108991081041004501999999KA1240M+03041MA1999999096171MD1999999-0171REMSYN017333   10304 59017
0135832420999991990042712004-12567-041383FM-12+042799999V0201801N00261045001CN0200001N9+02321+02031101221ADDAA124002091AG10999AY161061GF107991041011004501061001KA1240N+01501MA1999999096421MD1999999+0001MW1021REMSYN023333   20150 58000 60024
0115832420999991990042718004-12567-041383FM-12+042799999V0201801N00411220001CN0200001N9+02981+02121100691ADDAA106000091AG10999GF103991999021004501001001MA1999999095961MD1999999+0111REMSYN011333   58011EQDQ01+000022SCOTLC
0115832420999991990042800004-12567-041383FM-12+042799999V0201401N00151004201CN9999999N9+03041+01831101051ADDAA106000091AG10999GF108991081051004501999999KA1240M+03041MA1999999096271MD1999999+0101REMSYN017333   10304 58010
0115832420999991990042812004-12567-041383FM-12+042799999V0201801N00211021001CN0200001N9+02241+01881101211ADDAA106000091AG10999GF108991081001022501031999KA1240N+01481MA1999999096411MD1999999-0011REMSYN017333   20148 59001
0096832420999991990042818004-12567-041383FM-12+042799999V0200901N00211021001CN0200001N9+02761+01971100931ADDAA106000091AG10999GF108991081001022501041011MA1999999096161MD1999999+0201REMSYN011333   58020
0115832420999991990042900004-12567-041383FM-12+042799999V0201801N00051004201CN9999999N9+02481+02051100951ADDAA106000091AG10999GF108991081041004501999999KA1240M+03041MA1999999096171MD1999999-0171REMSYN017333   10304 59017
0132832420999991990042918004-12567-041383FM-12+042799999V0201801N00211004201CN0200001N9+02341+02001101281ADDAA124000291AA299000391AG10999GF107991071021004501001001KA1240N+01461MA1999999096741MD1999999+0061REMSYN023333   20146 58006 69924
0115832420999991990043000004-12567-041383FM-12+042799999V0209991C00001220001CN9999999N9+02501+02251100941ADDAA106000091AG10999GF102991021001022501061001KA1240M+03021MA1999999096151MD1999999-0171REMSYN017333   10302 59017
0135832420999991990043012004-12567-041383FM-12+042799999V0201801N00101004201CN0200001N9+02421+02111101151ADDAA124000591AG10999AY151061GF106991061021004501001001KA1240N+01661MA1999999096361MD1999999-0111MW1021REMSYN023333   20166 59011 69954
0096832420999991990043018004-12567-041383FM-12+042799999V0209991C00001220001CN0500001N9+03101+02181100651ADDAA106000091AG10999GF102991021011004501001001MA1999999095921MD1999999-0211REMSYN011333   59021
0115832420999991990050100004-12567-041383FM-12+042799999V0203601N00211220001CN9999999N9+02451+01991100701ADDAA106000091AG10999GF100991001001999999001001KA1240M+03221MA1999999095931MD1999999-0221REMSYN017333   10322 59022
0115832420999991990050112004-12567-041383FM-12+042799999V0201801N00101220001CN0500001N9+02581+02061101061ADDAA106000091AG10999GF102991021011004501001001KA1240N+01481MA1999999096281MD1999999-0081REMSYN017333   20148 59008
0096832420999991990050118004-12567-041383FM-12+042799999V0202301N00101220001CN0500001N9+03281+02341100441ADDAA106000091AG10999GF102991021011004501001001MA1999999095741MD1999999-0181REMSYN011333   59018
0115832420999991990050200004-12567-041383FM-12+042799999V0209991C00001220001CN9999999N9+02601+01991100721ADDAA106000091AG10999GF103991021011004501001011KA1240M+03321MA1999999095891MD1999999+0051REMSYN017333   10332 58005
0115832420999991990050212004-12567-041383FM-12+042799999V0201801N00101004201CN0100001N9+02521+02131101081ADDAA106000091AG10999GF108991081051004501999999KA1240N+01381MA1999999096311MD1999999+0031REMSYN017333   20138 58003
0096832420999991990050218004-12567-041383FM-12+042799999V0203201N00051105001CN0500001N9+03201+02271100611ADDAA106000091AG10999GF105991031011004501001051MA1999999095911MD1999999+0171REMSYN011333   58017
0115832420999991990050300004-12567-041383FM-12+042799999V0202701N00101220001CN9999999N9+02421+02011100711ADDAA106000091AG10999GF106991001001999999001011KA1240M+03301MA1999999095941MD1999999+0041REMSYN017333   10330 58004
0115832420999991990050312004-12567-041383FM-12+042799999V0200901N00101045001CN0200001N9+02441+02191101121ADDAA106000091AG10999GF108991041051004501021999KA1240N+01281MA1999999096331MD1999999+0021REMSYN017333   20128 58002
0096832420999991990050318004-12567-041383FM-12+042799999V0202301N00151105001CN0500001N9+02981+02201100731ADDAA106000091AG10999GF107991031011004501001071MA1999999096011MD1999999+0101REMSYN011333   58010
0115832420999991990050400004-12567-041383FM-12+042799999V0200901N00101220001CN9999999N9+02381+02091100851ADDAA106000091AG10999GF107991001001999999001011KA1240M+03061MA1999999096071MD1999999+0131REMSYN017333   10306 58013
0115832420999991990050412004-12567-041383FM-12+042799999V0201801N00051004201CN0100001N9+02411+02031101121ADDAA106000091AG10999GF108991081041004501999999KA1240N+01621MA1999999096321MD1999999-0011REMSYN017333   20162 59001
0096832420999991990050418004-12567-041383FM-12+042799999V0201801N00261045001CN0500001N9+03021+02241100621ADDAA106000091AG10999GF108991031031004501061011MA1999999095881MD1999999-0131REMSYN011333   59013
0115832420999991990050500004-12567-041383FM-12+042799999V0201801N00151004201CN9999999N9+02421+02011100971ADDAA106000091AG10999GF108991081041004501999999KA1240M+03041MA1999999096181MD1999999+0111REMSYN017333   10304 58011
0115832420999991990050512004-12567-041383FM-12+042799999V0201801N00151004201CN0040001N9+02381+02071101241ADDAA106000091AG10999GF108991081051004501999999KA1240N+01591MA1999999096421MD1999999+0101REMSYN017333   20159 58010
0096832420999991990050518004-12567-041383FM-12+042799999V0201801N00211045001CN0200001N9+02701+02061100891ADDAA106000091AG10999GF108991031031004501061999MA1999999096111MD1999999+0231REMSYN011333   58023
0115832420999991990050600004-12567-041383FM-12+042799999V0203201N00051004201CN9999999N9+02361+02011101131ADDAA106000091AG10999GF108991081041004501999999KA1240M+02801MA1999999096321MD1999999+0141REMSYN017333   10280 58014
0115832420999991990050612004-12567-041383FM-12+042799999V0201801N00211045001CN0200001N9+02241+02071101501ADDAA106000091AG10999GF108991041021004501051999KA1240N+01601MA1999999096661MD1999999+0241REMSYN017333   20160 58024
0096832420999991990050618004-12567-041383FM-12+042799999V0201801N00101045001CN0500001N9+02801+02001101001ADDAA106000091AG10999GF108991041021004501031999MA1999999096231MD1999999+0121REMSYN011333   58012
0115832420999991990050700004-12567-041383FM-12+042799999V0209991C00001045001CN9999999N9+02361+01931101231ADDAA106000091AG10999GF107991041011004501031001KA1240M+02901MA1999999096411MD1999999+0091REMSYN017333   10290 58009
0135832420999991990050712004-12567-041383FM-12+042799999V0201801N00051004201CN0100001N9+02341+01981101441ADDAA124000391AG10999AY151061GF108991081041004501999999KA1240N+01601MA1999999096621MD1999999-0041MW1021REMSYN023333   20160 59004 69934
0096832420999991990050718004-12567-041383FM-12+042799999V0202301N00101105001CN0500001N9+02941+01941100941ADDAA106000091AG10999GF107991031011004501001071MA1999999096191MD1999999-0041REMSYN011333   59004
0115832420999991990050800004-12567-041383FM-12+042799999V0203601N00101004201CN9999999N9+02361+01891101151ADDAA106000091AG10999GF108991081051004501999999KA1240M+03021MA1999999096341MD1999999-0071REMSYN017333   10302 59007
0146832420999991990050812004-12567-041383FM-12+042799999V0209991C00001045001CN0200001N9+02181+01991101571ADDAA124000491AA299000591AG10999AY151061GF108991041051004501011999KA1240N+01141MA1999999096721MD1999999+0101MW1021REMSYN023333   20114 58010 69944
0115832420999991990050818004-12567-041383FM-12+042799999V0200501N00051220001CN0500001N9+02901+02101100971ADDAA106000091AG10999GF104991021011004501061001MA1999999096251MD1999999+0061REMSYN011333   58006EQDQ01+999990APOSLP
0115832420999991990050900004-12567-041383FM-12+042799999V0203601N00101220001CN9999999N9+02381+01911101141ADDAA106000091AG10999GF104991041001022501061001KA1240M+03001MA1999999096321MD1999999-0301REMSYN017333   10300 59030
0115832420999991990050912004-12567-041383FM-12+042799999V0201801N00101004201CN0100001N9+02351+01971101351ADDAA106000091AG10999GF108991081051004501999999KA1240N+01641MA1999999096531MD1999999-0191REMSYN017333   20164 59019
0115832420999991990051000004-12567-041383FM-12+042799999V0202301N00051004201CN9999999N9+02361+01891101171ADDAA106000091AG10999GF108991081041004501999999KA1240M+02961MA1999999096361MD1999999+0041REMSYN017333   10296 58004
0115832420999991990051012004-12567-041383FM-12+042799999V0201401N00101004201CN0200001N9+02321+02031101461ADDAA106000091AG10999GF108991081051004501999999KA1240N+01681MA1999999096641MD1999999+0111REMSYN017333   20168 58011
0115832420999991990051018004-12567-041383FM-12+042799999V0201801N00211045001CN0200001N9+02801+02191100921ADDAA106000091AG10999GF108991041051004501011999MA1999999096191MD1999999+0041REMSYN011333   58004EQDQ01+999990APOSLP
0115832420999991990051100004-12567-041383FM-12+042799999V0201801N00211004201CN9999999N9+02421+02011101201ADDAA106000091AG10999GF108991081051004501999999KA1240M+02961MA1999999096391MD1999999+0031REMSYN017333   10296 58003
0146832420999991990051112004-12567-041383FM-12+042799999V0200501N00101045001CN0200001N9+02341+02211101381ADDAA106000091AA224000791AG10999AY151061GF108991041051004501021999KA1240N+01681MA1999999096571MD1999999-0071MW1021REMSYN023333   20168 59007 69974
0115832420999991990051118004-12567-041383FM-12+042799999V0202301N00101004201CN0500001N9+03041+02181100631ADDAA106000091AG10999GF105991051021004501001001MA1999999095951MD1999999-0241REMSYN011333   59024EQDQ01+999990APOSLP
0115832420999991990051212004-12567-041383FM-12+042799999V0201801N00101105001CN0200001N9+02481+02111101281ADDAA106000091AG10999GF108991041021004501001071KA1240N+01461MA1999999096491MD1999999-0081REMSYN017333   20146 59008
0115832420999991990051300004-12567-041383FM-12+042799999V0201801N00211004201CN9999999N9+02421+02011101201ADDAA106000091AG10999GF108991081051004501999999KA1240M+02961MA1999999096391MD1999999+0031REMSYN017333   10296 58003
0135832420999991990051312004-12567-041383FM-12+042799999V0202301N00311004201CN0200001N9+02401+02261101401ADDAA124000191AG10999AY151061GF108991081051004501999999KA1240N+01541MA1999999096641MD1999999+0151MW1021REMSYN023333   20154 58015 69914
0115832420999991990051318004-12567-041383FM-12+042799999V0209991C00001220001CN0500001N9+02921+02321100851ADDAA106000091AG10999GF104991041021004501001001MA1999999096141MD1999999+0261REMSYN011333   58026EQDQ01+999990APOSLP
0143832420999991990051400004-12567-041383FM-12+042799999V0202301N00261004201CN9999999N9+02261+02211101241ADDAA106015091AG10999AY161061AY221061GF108991081091004501999999KA1240M+03021MA1999999096431MD1999999+0401MW1291REMSYN023333   10302 58040 60151
0135832420999991990051412004-12567-041383FM-12+042799999V0201801N00151004201CN0100001N9+02351+02131101471ADDAA124108091AG10999AY161061GF108991081051004501999999KA1240N+01481MA1999999096641MD1999999+0001MW1021REMSYN023333   20148 58000 61084
0115832420999991990051418004-12567-041383FM-12+042799999V0201801N00101045001CN0200001N9+02741+02541101071ADDAA106000091AG10999GF108991041051004501021999MA1999999096321MD1999999+0181REMSYN011333   58018EQDQ01+999990APOSLP
0135832420999991990051512004-12567-041383FM-12+042799999V0201801N00101004201CN0100001N9+02221+02031101581ADDAA124002091AG10999AY161061GF108991081051004501999999KA1240N+01121MA1999999096741MD1999999+0101MW1021REMSYN023333   20112 58010 60024
0143832420999991990051518004-12567-041383FM-12+042799999V0201801N00211004201CN0200001N9+02651+02111101131ADDAA106000191AG10999AY151061AY221061GF108991081041004501999999MA1999999096361MD1999999+0041MW1021REMSYN017333   58004 69911EQDQ01+999990APOSLP
0134832420999991990051600004-12567-041383FM-12+042799999V0202701N00051004201CN9999999N9+02621+02071100172ADDAA106000091AG10999GF108991081031004501999999KA1240M+02761MA1999999096091MD1999999-0071REMSYN017333   10276 59007EQDQ01+100173APOSLP
0115832420999991990051612004-12567-041383FM-12+042799999V0201801N00101004201CN0200001N9+02301+02131101621ADDAA106000091AG10999GF108991081051004501999999KA1240N+01541MA1999999096791MD1999999+0051REMSYN017333   20154 58005
0115832420999991990051618004-12567-041383FM-12+042799999V0209991C00001004201CN0500001N9+02921+02191101051ADDAA106000091AG10999GF105991051021004501001001MA1999999096331MD1999999-0031REMSYN011333   59003EQDQ01+999990APOSLP
0115832420999991990051700004-12567-041383FM-12+042799999V0203601N00101220001CN9999999N9+02291+02031101281ADDAA106000091AG10999GF100991001001999999001001KA1240M+03001MA1999999096461MD1999999-0101REMSYN017333   10300 59010
0115832420999991990051712004-12567-041383FM-12+042799999V0209991C00001045001CN0200001N9+02361+02111101651ADDAA106000091AG10999GF108991041051004501021999KA1240N+01381MA1999999096811MD1999999+0021REMSYN017333   20138 58002
0115832420999991990051718004-12567-041383FM-12+042799999V0209991C00001220001CN0500001N9+03021+02181100951ADDAA106000091AG10999GF102991021021004501001001MA1999999096251MD1999999-0081REMSYN011333   59008EQDQ01+999990APOSLP
0115832420999991990051800004-12567-041383FM-12+042799999V0203201N00051220001CN9999999N9+02201+01881101221ADDAA106000091AG10999GF100991001001999999001001KA1240M+03081MA1999999096401MD1999999-0061REMSYN017333   10308 59006
0115832420999991990051812004-12567-041383FM-12+042799999V0203201N00101045001CN0200001N9+02321+01911101561ADDAA106000091AG10999GF108991041051004501021999KA1240N+01461MA1999999096711MD1999999-0101REMSYN017333   20146 59010
0115832420999991990051818004-12567-041383FM-12+042799999V0209991C00001220001CN0500001N9+03081+01881100791ADDAA106000091AG10999GF101991011011004501001001MA1999999096101MD1999999-0151REMSYN011333   59015EQDQ01+999990APOSLP
0080832420999991990051900004-12567-041383FM-12+042799999V0202901N00051012001CN0100001N9+01581+01411101792ADDAA106001091AG10999GF108991081001012501021999MD1210151+9999EQDQ01+101793APOSLP
0115832420999991990051912004-12567-041383FM-12+042799999V0201801N00101105001CN0500001N9+02321+01761101301ADDAA106000091AG10999GF108991001001999999001071KA1240N+01281MA1999999096491MD1999999-0221REMSYN017333   20128 59022
0115832420999991990051918004-12567-041383FM-12+042799999V0201801N00151220001CN0500001N9+03341+01911100651ADDAA106000091AG10999GF101991011011004501001001MA1999999096011MD1999999-0091REMSYN011333   59009EQDQ01+999990APOSLP
0115832420999991990052000004-12567-041383FM-12+042799999V0203601N00051220001CN9999999N9+02541+01811101131ADDAA106000091AG10999GF100991001001999999001001KA1240M+03361MA1999999096341MD1999999+0031REMSYN017333   10336 58003
0115832420999991990052012004-12567-041383FM-12+042799999V0201801N00151004201CN0040001N9+02481+02111101721ADDAA106000091AG10999GF108991081041004501999999KA1240N+01701MA1999999096821MD1999999+0331REMSYN017333   20170 58033
0115832420999991990052018004-12567-041383FM-12+042799999V0201801N00151105001CN0500001N9+03001+02081101061ADDAA106000091AG10999GF108991041011004501001071MA1999999096351MD1999999+0341REMSYN011333   58034EQDQ01+999990APOSLP
0115832420999991990052100004-12567-041383FM-12+042799999V0201801N00151004201CN9999999N9+02521+02001101461ADDAA106000091AG10999GF108991081041004501999999KA1240M+03051MA1999999096771MD1999999+0431REMSYN017333   10305 58043
0115832420999991990052112004-12567-041383FM-12+042799999V0201801N00261004201CN0100001N9+02141+01901101811ADDAA106000091AG10999GF108991081041004501999999KA1240N+01591MA1999999096971MD1999999+0151REMSYN017333   20159 58015
0115832420999991990052118004-12567-041383FM-12+042799999V0209991C00001220001CN0500001N9+02741+02121101231ADDAA106000091AG10999GF104991041011004501001001MA1999999096471MD1999999+0121REMSYN011333   58012EQDQ01+999990APOSLP
0115832420999991990052200004-12567-041383FM-12+042799999V0200501N00211004201CN9999999N9+02341+02011101481ADDAA106000091AG10999GF108991081051004501999999KA1240M+02801MA1999999096631MD1999999-0141REMSYN017333   10280 59014
0115832420999991990052212004-12567-041383FM-12+042799999V0201801N00101004201CN0200001N9+02401+01971101541ADDAA106000091AG10999GF108991081021004501999999KA1240N+01481MA1999999096711MD1999999-0261REMSYN017333   20148 59026
0115832420999991990052218004-12567-041383FM-12+042799999V0209991C00001004201CN0200001N9+02981+02151100931ADDAA106000091AG10999GF106991061021004501001001MA1999999096221MD1999999-0251REMSYN011333   59025EQDQ01+999990APOSLP
0062832420999991990052300004-12567-041383FM-12+042799999V0203601N00051220001CN9999999N9+02261+02031101391ADDAA106000091AG10999GF100991001001999999001001MA1999999096571
0115832420999991990052312004-12567-041383FM-12+042799999V0202801N00151045001CN0200001N9+02241+02031101791ADDAA106000091AG10999GF108991041051004501021999KA1240N+01461MA1999999096921MD1999999+0211REMSYN017333   20146 58021
0115832420999991990052318004-12567-041383FM-12+042799999V0202301N00151105001CN0200001N9+02821+02071101261ADDAA106000091AG10999GF108991041011004501001071MA1999999096511MD1999999+0291REMSYN011333   58029EQDQ01+999990APOSLP
0121832420999991990052412004-12567-041383FM-12+042799999V0201801N00311004201CN0100001N9+02241+01881102011ADDAA124013091AG10999GF108991081041004501999999KA1240N+01521MA1999999097131MD1999999+0211REMSYN023333   20152 58021 60134
0143832420999991990052500004-12567-041383FM-12+042799999V0201801N00311004201CN9999999N9+02021+01941101991ADDAA106002091AG10999AY161061AY221061GF108991081051004501999999KA1240M+02561MA1999999097101MD1999999+0201MW1021REMSYN023333   10256 58020 60021
0135832420999991990052512004-12567-041383FM-12+042799999V0201801N00151045001CN0200001N9+02081+01961102091ADDAA124002091AG19005AY151061GF108991041051004501021999KA1240N+01381MA1999999097271MD1999999+0141MW1021REMSYN023333   20138 58014 60024
0115832420999991990052518004-12567-041383FM-12+042799999V0201801N00101004201CN0200001N9+02481+01961101631ADDAA106000091AG10999GF108991081051004501999999MA1999999096811MD1999999+0031REMSYN011333   58003EQDQ01+999990APOSLP
0115832420999991990052600004-12567-041383FM-12+042799999V0200901N00151004201CN9999999N9+02201+01971101871ADDAA106000091AG10999GF108991081051004501999999KA1240M+02561MA1999999096991MD1999999-0111REMSYN017333   10256 59011
0146832420999991990052612004-12567-041383FM-12+042799999V0201801N00151004201CN0100001N9+02081+01741101901ADDAA124000491AA299000591AG10999AY151061GF108991081051004501999999KA1240N+01441MA1999999096961MD1999999-0251MW1021REMSYN023333   20144 59025 69944
0115832420999991990052618004-12567-041383FM-12+042799999V0201801N00361004201CN0200001N9+02501+02001101401ADDAA106000091AG10999GF108991081041004501999999MA1999999096601MD1999999-0211REMSYN011333   59021EQDQ01+999990APOSLP
0154832420999991990052700004-12567-041383FM-12+042799999V0209991C00001004201CN9999999N9+02081+02031101641ADDAA106000891AA299001091AG10999AY151061AY221061GF106991061051004501001001KA1240M+03061MA1999999096761MD1999999-0231MW1021REMSYN023333   10306 59023 69981
0132832420999991990052712004-12567-041383FM-12+042799999V0201401N00151045001CN0200001N9+02181+02011101811ADDAA124000891AA299001091AG10999GF108991041051004501021999KA1240N+01461MA1999999096391MD1999999-0091REMSYN023333   20146 59009 69984
0115832420999991990052718004-12567-041383FM-12+042799999V0209991C00001004201CN0200001N9+02641+02161101421ADDAA106000091AG10999GF108991081021004501999999MA1999999096641MD1999999+0041REMSYN011333   58004EQDQ01+999990APOSLP
0115832420999991990052800004-12567-041383FM-12+042799999V0202301N00051004201CN9999999N9+02121+01911101661ADDAA106000091AG10999GF108991081051004501999999KA1240M+02661MA1999999096791MD1999999+0031REMSYN017333   10266 58003
0146832420999991990052812004-12567-041383FM-12+042799999V0201601N00101004201CN0100001N9+02061+01891101861ADDAA124000291AA299000391AG10999AY151061GF108991081051004501999999KA1240N+01371MA1999999096971MD1999999+0041MW1021REMSYN023333   20137 58004 69924
0154832420999991990052818004-12567-041383FM-12+042799999V0201801N00211045001CN0200001N9+02581+02101101371ADDAA106000291AA299000391AG10999AY151061AY221061GF108991041051004501011999MA1999999096581MD1999999-0061MW1031REMSYN017333   59006 69921EQDQ01+999990APOSLP
0115832420999991990052900004-12567-041383FM-12+042799999V0200901N00151004201CN9999999N9+02201+01971101871ADDAA106000091AG10999GF108991081051004501999999KA1240M+02561MA1999999096991MD1999999-0111REMSYN017333   10256 59011
0132832420999991990052912004-12567-041383FM-12+042799999V0201801N00261045001CN0200001N9+02141+01901101851ADDAA124000291AA299000391AG10999GF108991041051008001051999KA1240N+01401MA1999999096381MD1999999+0011REMSYN023333   20140 58001 69924
0115832420999991990052918004-12567-041383FM-12+042799999V0202301N00211004201CN0200001N9+02601+02141101491ADDAA106000091AG10999GF108991081051004501999999MA1999999096701MD1999999+0121REMSYN011333   58012EQDQ01+999990APOSLP
0143832420999991990053000004-12567-041383FM-12+042799999V0209991C00001004201CN9999999N9+02141+02071101781ADDAA106004091AG10999AY161061AY221061GF108991081051004501999999KA1240M+02701MA1999999096901MD1999999+0011MW1021REMSYN023333   10270 58001 60041
0115832420999991990053018004-12567-041383FM-12+042799999V0201801N00151004201CN0200001N9+02801+02031101411ADDAA106000091AG10999GF106991061021004501001001MA1999999096651MD1999999-0051REMSYN011333   59005EQDQ01+999990APOSLP
0115832420999991990053100004-12567-041383FM-12+042799999V0201401N00101004201CN9999999N9+02301+01841101841ADDAA106000091AG10999GF108991081051004501999999KA1240M+02891MA1999999096981MD1999999+0001REMSYN017333   10289 58000
0115832420999991990053118004-12567-041383FM-12+042799999V0202301N00151004201CN0200001N9+02581+01941101601ADDAA106000091AG10999GF108991081051004501999999MA1999999096801MD1999999-0101REMSYN011333   59010EQDQ01+999990APOSLP
0135832420999991990060112004-12567-041383FM-12+042799999V0201801N00211004201CN0100001N9+02131+01841101791ADDAA124002091AG10999AY151061GF108991081051004501999999KA1240N+01301MA1999999096901MD1999999-0011MW1021REMSYN023333   20130 59001 60024
0096832420999991990060118004-12567-041383FM-12+042799999V0201801N00051004201CN0200001N9+02481+02031999999ADDAA106000091AG10999GF108991081051004501999999MA1999999096561MD1999999+0011REMSYN011333   58001
0115832420999991990060200004-12567-041383FM-12+042799999V0202301N00151004201CN9999999N9+02061+01761101671ADDAA106000091AG10999GF108991081041004501999999KA1240M+02601MA1999999096791MD1999999-0071REMSYN017333   10260 59007
0115832420999991990060212004-12567-041383FM-12+042799999V0201801N003119999999N0200001N9+02301+01791101581ADDAA106000091AG10999GF107991071001008001061001KA1240N+01441MA1999999096931MD1999999+0031REMSYN017333   20144 58003
0096832420999991990060218004-12567-041383FM-12+042799999V0201801N00101004201CN0500001N9+02541+02001999999ADDAA106000091AG10999GF108991081041004501999999MA1999999096571MD1999999+0011REMSYN011333   58001
0143832420999991990060300004-12567-041383FM-12+042799999V0202301N00051004201CN9999999N9+02121+01971101691ADDAA106001091AG10999AY161061AY221061GF108991081051004501999999KA1240M+02611MA1999999096831MD1999999+0041MW1021REMSYN023333   10261 58004 60011
0135832420999991990060312004-12567-041383FM-12+042799999V0201801N00261045001CN0200001N9+02061+02031101821ADDAA124003091AG10999AY161061GF108991041051004501011999KA1240N+01421MA1999999097021MD1999999+0091MW1021REMSYN023333   20142 58009 60034
0096832420999991990060318004-12567-041383FM-12+042799999V0201401N00261220001CN0500001N9+02841+01701999999ADDAA106000091AG10999GF102991021011004501001001MA1999999096641MD1999999+0111REMSYN011333   58011
0115832420999991990060400004-12567-041383FM-12+042799999V0209991C00001004201CN9999999N9+02321+02001101741ADDAA106000091AG10999GF108991081051004501999999KA1240M+02881MA1999999096871MD1999999+0041REMSYN017333   10288 58004
0146832420999991990060412004-12567-041383FM-12+042799999V0201801N00261045001CN0200001N9+02241+01691101801ADDAA124000991AA299001091AG10999AY161061GF108991011011004501031071KA1240N+01341MA1999999096951MD1999999-0071MW1021REMSYN023333   20134 59007 69994
0096832420999991990060418004-12567-041383FM-12+042799999V0202301N00101004201CN0500001N9+02621+02011999999ADDAA106000091AG10999GF107991071021004501001001MA1999999096491MD1999999-0151REMSYN011333   59015
0126832420999991990060500004-12567-041383FM-12+042799999V0202301N00051004201CN9999999N9+02121+01971101601ADDAG10999AY161061AY221061GF108991081051004501999999KA1240M+02611MA1999999096831MD1999999+0041MW1021REMSYN017333   10261 58004
0115832420999991990060512004-12567-041383FM-12+042799999V0201401N00151045001CN0200001N9+01981+01831101841ADDAA106000091AG10999GF108991041051004501021999KA1240N+01041MA1999999096931MD1999999-0021REMSYN017333   20104 59002
0096832420999991990060518004-12567-041383FM-12+042799999V0200901N00151045001CN0200001N9+02541+01981999999ADDAA106000091AG10999GF108991041051004501021999MA1999999096671MD1999999+0101REMSYN011333   58010
0115832420999991990060600004-12567-041383FM-12+042799999V0201801N00151004201CN9999999N9+02261+01881101771ADDAA106000091AG10999GF108991081051004501999999KA1240M+02581MA1999999096891MD1999999+0081REMSYN017333   10258 58008
0135832420999991990060612004-12567-041383FM-12+042799999V0201801N00151004201CN0100001N9+02031+01961101841ADDAA124003091AG10999AY161061GF108991081051004501999999KA1240N+01281MA1999999096961MD1999999+0031MW1021REMSYN023333   20128 58003 60034
0121832420999991990060712004-12567-041383FM-12+042799999V0201801N00051045001CN0200001N9+02001+01931101811ADDAA124003091AG10999GF108991041051004501011999KA1240N+01301MA1999999096911MD1999999-0051REMSYN023333   20130 59005 60034
0096832420999991990060718004-12567-041383FM-12+042799999V0209991C00001220001CN0500001N9+02801+02001999999ADDAA106000091AG10999GF103991031021004501001001MA1999999096561MD1999999-0151REMSYN011333   59015
0135832420999991990060812004-12567-041383FM-12+042799999V0201801N00151004201CN0100001N9+02121+01881101681ADDAA124001091AG10999AY161061GF108991081051004501999999KA1240N+01381MA1999999096821MD1999999-0091MW1021REMSYN023333   20138 59009 60014
0096832420999991990060818004-12567-041383FM-12+042799999V0209991C00001220001CN0500001N9+02501+02111999999ADDAA106000091AG10999GF102991021021004501001001MA1999999096551MD1999999-0011REMSYN011333   59001
0062832420999991990060900004-12567-041383FM-12+042799999V0200901N00051004201CN9999999N9+02121+01911101521ADDAA106000091AG10999GF107991071021004501001001MA1999999096651
0096832420999991990060912004-12567-041383FM-12+042799999V0201801N00151004201CN0200001N9+02181+01821101821ADDAA106000091AG10999GF105991051021004501001001MA1999999096941MD1999999+0121REMSYN011333   58012
0062832420999991990061012004-12567-041383FM-12+042799999V0201401N00101004201CN0200001N9+02241+01981101751ADDAA106000091AG10999GF108991081051004501999999MA1999999096871
0115832420999991990061112004-12567-041383FM-12+042799999V0201401N00101045001CN0200001N9+02261+01881101781ADDAA106000091AG10999GF108991041051004501011999KA1240N+01381MA1999999096921MD1999999+0051REMSYN017333   20138 58005
0096832420999991990061118004-12567-041383FM-12+042799999V0202301N00101220001CN0500001N9+02741+01921999999ADDAA106000091AG10999GF102991021011004501001001MA1999999096511MD1999999-0021REMSYN011333   59002
0115832420999991990061212004-12567-041383FM-12+042799999V0202301N00151004201CN0200001N9+01901+01751102061ADDAA106000091AG10999GF108991081051004501999999KA1240N+01141MA1999999091761MD1999999+0241REMSYN017333   20114 58024
0143832420999991990061218004-12567-041383FM-12+042799999V0202301N00261004201CN0500001N9+02461+02091999999ADDAA106001091AG10999AY161061AY221061GF106991061021004501001001MA1999999096702MD1999999+0191MW1031REMSYN017333   58019 60011EQDQ01+096703APOSP 
0115832420999991990061300004-12567-041383FM-12+042799999V0201801N00151004201CN9999999N9+02111+01781101901ADDAA106000091AG10999GF108991081051004501999999KA1240M+02541MA1999999096991MD1999999+0131REMSYN017333   10254 58013
0121832420999991990061312004-12567-041383FM-12+042799999V0201801N00411004201CN0200001N9+02041+01661101931ADDAA124001091AG10999GF108991081051004501999999KA1240N+01301MA1999999097041MD1999999-0121REMSYN023333   20130 59012 60014
0096832420999991990061318004-12567-041383FM-12+042799999V0201401N00101004201CN0200001N9+02381+01841999999ADDAA106000091AG10999GF108991081051004501999999MA1999999096691MD1999999-0011REMSYN011333   59001
0097832420999991990061400004-12567-041383FM-12+042799999V0201801N00211004201CN9999999N9+02201+01721101681ADDAA106000091AG10999GF108991081051004501999999MA1999999999999EQDQ01+069803APOSP Q02 069803APOSP 
0062832420999991990061412004-12567-041383FM-12+042799999V0202301N00261045001CN0200001N9+02081+01681101821ADDAA106000091AG10999GF108991041051004501021999MA1999999096941
0062832420999991990061418004-12567-041383FM-12+042799999V0201801N002119999999N0200001N9+02361+01831999999ADDAA106000091AG10999GF108991041051004501999999MA1999999096731
0115832420999991990061500004-12567-041383FM-12+042799999V0209991C00001004201CN9999999N9+02161+01721101681ADDAA106000091AG10999GF108991081051004501999999KA1240M+02381MA1999999096801MD1999999+0001REMSYN017333   10238 58000
0115832420999991990061512004-12567-041383FM-12+042799999V0200901N00101220001CN0200001N9+02321+01741101691ADDAA106000091AG10999GF107991001001999999001011KA1240N+01411MA1999999096841MD1999999-0101REMSYN017333   20141 59010
0096832420999991990061518004-12567-041383FM-12+042799999V0201401N00101220001CN0500001N9+02921+01891999999ADDAA106000091AG10999GF102991021011004501001001MA1999999096391MD1999999-0361REMSYN011333   59036
0062832420999991990061600004-12567-041383FM-12+042799999V0202301N00051220001CN9999999N9+02081+01681101431ADDAA106000091AG10999GF100991001001999999001001MA1999999096631
0115832420999991990061612004-12567-041383FM-12+042799999V0201801N00101004201CN0200001N9+02231+01901101741ADDAA106000091AG10999GF108991081021004501999999KA1240N+01001MA1999999096871MD1999999+0031REMSYN017333   20100 58003
0096832420999991990061618004-12567-041383FM-12+042799999V0202301N00151220001CN0500001N9+02801+01921999999ADDAA106000091AG10999GF102991021011004501001001MA1999999096461MD1999999+0121REMSYN011333   58012
0115832420999991990061712004-12567-041383FM-12+042799999V0200901N00051004201CN0040001N9+02141+01801101941ADDAA106000091AG10999GF108991081071004501999999KA1240N+01321MA1999999097051MD1999999+0181REMSYN017333   20132 58018
0096832420999991990061718004-12567-041383FM-12+042799999V0201801N00261220001CN0500001N9+02661+02071999999ADDAA106000091AG10999GF102991021011004501001001MA1999999096661MD1999999+0171REMSYN011333   58017
0115832420999991990061800004-12567-041383FM-12+042799999V0209991C00001004201CN9999999N9+02261+01861101471ADDAA106000091AG10999GF106991061051004501001001KA1240M+02841MA1999999096711MD1999999-0091REMSYN017333   10284 59009
0135832420999991990061812004-12567-041383FM-12+042799999V0201801N00151004201CN0200001N9+02281+01881101971ADDAA124000191AG10999AY151061GF107991071021004501001001KA1240N+01311MA1999999097101MD1999999+0051MW1021REMSYN023333   20131 58005 69914
0081832420999991990061815004-12567-041383FM-12+042799999V0200901N00411220001CN0200001N9+02801+01921101831ADDAA106000091AG10999GF103991001001999999001011MD1999999+0081REMSYN011333   58008
0096832420999991990061818004-12567-041383FM-12+042799999V0201801N00311220001CN0500001N9+02701+01881999999ADDAA106000091AG10999GF108991031011004501001011MA1999999096601MD1999999-0061REMSYN011333   59006
0115832420999991990061912004-12567-041383FM-12+042799999V0201801N00261004201CN0200001N9+02181+01821101951ADDAA106000091AG10999GF108991081051004501999999KA1240N+01381MA1999999097071MD1999999-0031REMSYN017333   20138 59003
0096832420999991990061918004-12567-041383FM-12+042799999V0201801N00101004201CN0200001N9+02541+01911999999ADDAA106000091AG10999GF108991081051004501999999MA1999999096701MD1999999+0101REMSYN011333   58010
0115832420999991990062000004-12567-041383FM-12+042799999V0201801N00151004201CN9999999N9+02261+01751101781ADDAA106000091AG10999GF108991081051004501999999KA1240M+02581MA1999999096921MD1999999+0211REMSYN017333   10258 58021
0135832420999991990062012004-12567-041383FM-12+042799999V0201801N00151004201CN0040001N9+01941+01911102001ADDAA124011091AG10999AY161061GF108991081051004501999999KA1240N+01341MA1999999097101MD1999999-0221MW1021REMSYN023333   20134 59022 60114
