0115833390999991990010100004-14050-042617FM-12+088299999V0201401N00511220001CN9999999N9+02201+01611101331ADDAA106000091AG10999GF100991001001999999001001KA1240M+02691MA1999999091581MD1999999+0001REMSYN017333   10269 58000
0115833390999991990010112004-14050-042617FM-12+088299999V0201401N00571004201CN0200001N9+02001+01801101581ADDAA106000091AG10999GF106991061021004501001001KA1240N+01641MA1999999091801MD1999999+0011REMSYN017333   20164 58001
0096833390999991990010118004-14050-042617FM-12+088299999V0201401N00151220001CN0200001N9+02581+01641101321ADDAA106000091AG10999GF104991031021004501001041MA1999999091601MD1999999+0071REMSYN011333   58007
0115833390999991990010200004-14050-042617FM-12+088299999V0201401N00411220001CN9999999N9+02201+01721101341ADDAA106000091AG10999GF102991021021004501001001KA1240M+02651MA1999999091581MD1999999+0001REMSYN017333   10265 58000
0137833390999991990010212004-14050-042617FM-12+088299999V0200901N00261004201CN0200001N9+02201+01841101541ADDAA106000091AG10999AY101061AY201061GF105991051021004501001001KA1240N+01631MA1999999091781MD1999999-0021MW1101REMSYN017333   20163 59002
0096833390999991990010218004-14050-042617FM-12+088299999V0200901N00211004201CN0200001N9+02741+01671101131ADDAA106000091AG10999GF106991061021004501001001MA1999999091431MD1999999-0071REMSYN011333   59007
0115833390999991990010300004-14050-042617FM-12+088299999V0201401N00211220001CN9999999N9+02241+01821101261ADDAA106000091AG10999GF102991021021004501001001KA1240M+02781MA1999999091531MD1999999-0051REMSYN017333   10278 59005
0137833390999991990010312004-14050-042617FM-12+088299999V0201401N00151004201CN0200001N9+02121+02021101451ADDAA106000091AG10999AY101061AY201061GF106991051021004501021001KA1240N+01721MA1999999091701MD1999999-0081MW1101REMSYN017333   20172 59008
0118833390999991990010318004-14050-042617FM-12+088299999V0200901N00211004201CN0200001N9+02421+01821101151ADDAA106000091AG10999AY191061AY201061GF106991051021004501021001MA1999999091431MD1999999+0001MW1101REMSYN011333   58000
0115833390999991990010400004-14050-042617FM-12+088299999V0209991C00001045001CN9999999N9+02141+01971101271ADDAA106000091AG10999GF108991041021004501021999KA1240M+02501MA1999999091531MD1999999+0001REMSYN017333   10250 58000
0137833390999991990010412004-14050-042617FM-12+088299999V0201401N00211004201CN0040001N9+02101+02021101511ADDAA106000091AG10999AY101061AY201061GF107991061021004501021999KA1240N+01861MA1999999091741MD1999999+0041MW1101REMSYN017333   20186 58004
0124833390999991990010418004-14050-042617FM-12+088299999V0203601N00511004201CN0020001N9+02001+01741101381ADDAA106006091AG10999AY161061AY221061GF108991051021004501021999MA1999999091601MD1999999+0171MW1601REMSYN017333   58017 60061
0143833390999991990010500004-14050-042617FM-12+088299999V0201401N00511004201CN9999999N9+01821+01671101501ADDAA106001091AG10999AY161061AY241061GF108991051021004501021999KA1240M+02441MA1999999091691MD1999999+0161MW1401REMSYN023333   10244 58016 60011
0143833390999991990010512004-14050-042617FM-12+088299999V0201401N00311004201CN0200001N9+02001+01881101471ADDAA124006091AG10999AY161061AY261061GF106991061021004501001001KA1240N+01701MA1999999091651MD1999999-0091MW1101REMSYN023333   20170 59009 60064
0096833390999991990010518004-14050-042617FM-12+088299999V0201401N00621004201CN0200001N9+02491+01681101141ADDAA106000091AG10999GF106991061021004501001001MA1999999091411MD1999999-0191REMSYN011333   59019
0143833390999991990010612004-14050-042617FM-12+088299999V0201401N00511004201CN0020001N9+01861+01791101661ADDAA124002091AG10999AY161061AY241061GF108991051051004501021999KA1240N+01661MA1999999091771MD1999999+0121MW1501REMSYN023333   20166 58012 60024
0135833390999991990010618004-14050-042617FM-12+088299999V0201401N00511004201CN0200001N9+02481+01681101151ADDAA106000291AA299000391AG10999AY151061AY221061GF105991051021004501001001MA1999999091431MD1999999+0021MW1021REMSYN017333   58002 69921
0115833390999991990010700004-14050-042617FM-12+088299999V0201401N00511004201CN9999999N9+02101+01821101341ADDAA106000091AG10999GF106991061021004501001001KA1240M+02531MA1999999091561MD1999999-0041REMSYN017333   10253 59004
0154833390999991990010712004-14050-042617FM-12+088299999V0201401N00671220001CN0200001N9+02021+01541101461ADDAA124000291AA299000391AG10999AY161061AY261061GF104991041021004501001001KA1240N+01581MA1999999091681MD1999999-0091MW1021REMSYN023333   20158 59009 69924
0096833390999991990010718004-14050-042617FM-12+088299999V0201401N00621220001CN0200001N9+02461+01581101181ADDAA106000091AG10999GF103991031021004501001001MA1999999091441MD1999999+0011REMSYN011333   58001
0115833390999991990010800004-14050-042617FM-12+088299999V0201401N00101220001CN9999999N9+02061+01581101211ADDAA106000091AG10999GF100991001001999999001001KA1240M+02491MA1999999091451MD1999999-0111REMSYN017333   10249 59011
0137833390999991990010812004-14050-042617FM-12+088299999V0201401N00311004201CN0040001N9+01981+01791101521ADDAA106000091AG10999AY101061AY201061GF107991061021004501021999KA1240N+01661MA1999999091721MD1999999+0041MW1101REMSYN017333   20166 58004
0115833390999991990010900004-14050-042617FM-12+088299999V0201401N00261220001CN9999999N9+02161+01631101171ADDAA106000091AG10999GF100991001001999999001001KA1240M+02611MA1999999091421MD1999999-0031REMSYN017333   10261 59003
0137833390999991990010912004-14050-042617FM-12+088299999V0201401N00311220001CN0200001N9+02081+01801101501ADDAA106000091AG10999AY101061AY201061GF103991031021004501001001KA1240N+01561MA1999999091731MD1999999+0021MW1101REMSYN017333   20156 58002
0115833390999991990010918004-14050-042617FM-12+088299999V0201401N00311220001CN0200001N9+02741+01411101141ADDAA106000091AG10999GF104991999021004501001001MA1999999091431MD1999999+0061REMSYN011333   58006EQDQ01+000032SCOTLC
0115833390999991990011000004-14050-042617FM-12+088299999V0201401N00101220001CN9999999N9+02241+01691101241ADDAA106000091AG10999GF100991001001999999001001KA1240M+02811MA1999999091501MD1999999+0081REMSYN017333   10281 58008
0137833390999991990011012004-14050-042617FM-12+088299999V0201401N00261004201CN0200001N9+01991+01901101391ADDAA106000091AG10999AY101061AY201061GF106991061021004501001001KA1240N+01561MA1999999091631MD1999999-0101MW1101REMSYN017333   20156 59010
0096833390999991990011018004-14050-042617FM-12+088299999V0200901N00511220001CN0200001N9+02661+01901100991ADDAA106000091AG10999GF104991041021004501001001MA1999999091301MD1999999-0201REMSYN011333   59020
0115833390999991990011100004-14050-042617FM-12+088299999V0201401N00511220001CN9999999N9+02221+01551101121ADDAA106000091AG10999GF100991001001999999001001KA1240M+02751MA1999999091381MD1999999-0121REMSYN017333   10275 59012
0137833390999991990011112004-14050-042617FM-12+088299999V0200901N00461220001CN0200001N9+02141+01821101451ADDAA106000091AG10999AY101061AY201061GF104991041021004501001001KA1240N+01761MA1999999091701MD1999999+0071MW1101REMSYN017333   20176 58007
0096833390999991990011118004-14050-042617FM-12+088299999V0201401N00461220001CN0200001N9+02621+01531101141ADDAA106000091AG10999GF102991021021004501001001MA1999999091431MD1999999+0131REMSYN011333   58013
0115833390999991990011212004-14050-042617FM-12+088299999V0201401N00411220001CN0200001N9+02091+01991101501ADDAA106000091AG10999GF103991031021004501001001KA1240N+01641MA1999999091741MD1999999+0041REMSYN017333   20164 58004
0115833390999991990011300004-14050-042617FM-12+088299999V0200901N00571220001CN9999999N9+02181+01561101331ADDAA106000091AG10999GF102991021021004501001001KA1240M+02691MA1999999091581MD1999999+0101REMSYN017333   10269 58010
0137833390999991990011312004-14050-042617FM-12+088299999V0200901N00671004201CN0200001N9+01981+01781101511ADDAA106000091AG10999AY101061AY201061GF106991061021004501001001KA1240N+01621MA1999999091741MD1999999+0001MW1101REMSYN017333   20162 58000
0096833390999991990011318004-14050-042617FM-12+088299999V0201401N00511105001CN0200001N9+02561+01531101281ADDAA106000091AG10999GF105991041021004501001021MA1999999091531MD1999999+0011REMSYN011333   58001
0115833390999991990011400004-14050-042617FM-12+088299999V0209991C00001220001CN9999999N9+02071+01401101451ADDAA106000091AG10999GF102991021021004501001001KA1240M+02591MA1999999091651MD1999999+0071REMSYN017333   10259 58007
0115833390999991990011412004-14050-042617FM-12+088299999V0201401N00671220001CN0200001N9+02081+01641101541ADDAA106000091AG10999GF104991041021004501001001KA1240N+01661MA1999999091781MD1999999+0041REMSYN017333   20166 58004
0115833390999991990011500004-14050-042617FM-12+088299999V0201401N00671220001CN9999999N9+02151+01701101201ADDAA106000091AG10999GF100991001001999999001001KA1240M+02661MA1999999091451MD1999999-0201REMSYN017333   10266 59020
0115833390999991990011512004-14050-042617FM-12+088299999V0201401N00311004201CN0200001N9+02101+01721101401ADDAA106000091AG10999GF106991061021004501001001KA1240N+01681MA1999999091641MD1999999-0141REMSYN017333   20168 59014
0115833390999991990011600004-14050-042617FM-12+088299999V0209991C00001220001CN9999999N9+02201+01651101091ADDAA106000091AG10999GF102991021021004501001001KA1240M+02731MA1999999091361MD1999999-0091REMSYN017333   10273 59009
0137833390999991990011612004-14050-042617FM-12+088299999V0201401N00411004201CN0200001N9+02051+01961101331ADDAA106000091AG10999AY101061AY201061GF106991061021004501001001KA1240N+01641MA1999999091571MD1999999-0071MW1101REMSYN017333   20164 59007
0115833390999991990011618004-14050-042617FM-12+088299999V0201401N005119999999N0200001N9+02681+01861100951ADDAA106000091AG10999GF105991999021004501001001MA1999999091261MD1999999-0141REMSYN011333   59014EQDQ01+000042SCOTLC
0115833390999991990011700004-14050-042617FM-12+088299999V0201401N00151220001CN9999999N9+02201+01741101121ADDAA106000091AG10999GF100991001001999999001001KA1240M+02751MA1999999091381MD1999999+0021REMSYN017333   10275 58002
0137833390999991990011712004-14050-042617FM-12+088299999V0201401N00311004201CN0200001N9+02071+01961101641ADDAA106000091AG10999AY101061AY201061GF106991061021004501001001KA1240N+01781MA1999999091591MD1999999+0021MW1101REMSYN017333   20178 58002
0096833390999991990011718004-14050-042617FM-12+088299999V0200901N00361220001CN0200001N9+02701+01861101071ADDAA106000091AG10999GF103991021021004501001021MA1999999091371MD1999999+0111REMSYN011333   58011
0137833390999991990011812004-14050-042617FM-12+088299999V0200901N00721004201CN0200001N9+02151+01951101451ADDAA106000091AG10021AY101061AY201061GF106991061021004501001001KA1240N+01881MA1999999091701MD1999999+0111MW1101REMSYN017333   20188 58011
0096833390999991990011818004-14050-042617FM-12+088299999V0201401N00571220001CN0200001N9+02601+01711101121ADDAA106000091AG10999GF103991031021004501001001MA1999999091421MD1999999+0051REMSYN011333   58005
0115833390999991990011900004-14050-042617FM-12+088299999V0201401N00511220001CN9999999N9+02341+01621101171ADDAA106000091AG10999GF100991001001999999001001KA1240M+02671MA1999999091461MD1999999-0031REMSYN017333   10267 59003
0137833390999991990011912004-14050-042617FM-12+088299999V0201401N00771004201CN0200001N9+02041+01781101381ADDAA106000091AG10999AY101061AY201061GF106991061021004501001001KA1240N+01731MA1999999091641MD1999999-0061MW1101REMSYN017333   20173 59006
0096833390999991990011918004-14050-042617FM-12+088299999V0200901N00511220001CN0200001N9+02661+01531101121ADDAA106000091AG10999GF102991021021004501001001MA1999999091431MD1999999+0011REMSYN011333   58001
0115833390999991990012000004-14050-042617FM-12+088299999V0200901N00211220001CN9999999N9+02221+01651101211ADDAA106000091AG10999GF100991001001999999001001KA1240M+02691MA1999999091471MD1999999+0011REMSYN017333   10269 58001
0115833390999991990012012004-14050-042617FM-12+088299999V0201401N00621220001CN0200001N9+02141+01701101491ADDAA106000091AG10999GF104991041021004501001001KA1240N+01761MA1999999091741MD1999999+0101REMSYN017333   20176 58010
0096833390999991990012018004-14050-042617FM-12+088299999V0201401N00101220001CN0200001N9+02641+01631101171ADDAA106000091AG10999GF102991021021004501001001MA1999999091461MD1999999+0031REMSYN011333   58003
0115833390999991990012100004-14050-042617FM-12+088299999V0209991C00001220001CN9999999N9+02221+01671101301ADDAA106000091AG10999GF102991021021004501001001KA1240M+02671MA1999999091561MD1999999+0091REMSYN017333   10267 58009
0137833390999991990012112004-14050-042617FM-12+088299999V0201401N00311004201CN0200001N9+02181+01951101401ADDAA106000091AG10999AY101061AY201061GF106991061021004501001001KA1240N+01661MA1999999091651MD1999999-0091MW1101REMSYN017333   20166 59009
0096833390999991990012118004-14050-042617FM-12+088299999V0201401N00411220001CN0200001N9+02761+01621100991ADDAA106000091AG10999GF102991021021004501001001MA1999999091301MD1999999-0161REMSYN011333   59016
0115833390999991990012200004-14050-042617FM-12+088299999V0201401N00211220001CN9999999N9+02301+01581101081ADDAA106000091AG10999GF100991001001999999001001KA1240M+02811MA1999999091371MD1999999-0191REMSYN017333   10281 59019
0137833390999991990012212004-14050-042617FM-12+088299999V0200501N00261220001CN0200001N9+02221+01971101361ADDAA106000091AG10999AY101061AY201061GF102991021021004501001001KA1240N+01701MA1999999091631MD1999999-0021MW1101REMSYN017333   20170 59002
0096833390999991990012218004-14050-042617FM-12+088299999V0200901N00261220001CN0200001N9+02901+01721100971ADDAA106000091AG10999GF102991021021004501001001MA1999999091311MD1999999+0011REMSYN011333   58001
0115833390999991990012300004-14050-042617FM-12+088299999V0201401N00361220001CN9999999N9+02421+01491101091ADDAA106000091AG10999GF100991001001999999001001KA1240M+02951MA1999999091391MD1999999+0021REMSYN017333   10295 58002
0115833390999991990012312004-14050-042617FM-12+088299999V0200501N00261220001CN0200001N9+02461+01941101281ADDAA106000091AG10999GF102991021021004501001001KA1240N+01701MA1999999091591MD1999999-0041REMSYN017333   20170 59004
0096833390999991990012318004-14050-042617FM-12+088299999V0201401N00261220001CN0200001N9+03051+01091100991ADDAA106000091AG10999GF102991011021004501021001MA1999999091351MD1999999+0041REMSYN011333   58004
0115833390999991990012400004-14050-042617FM-12+088299999V0201401N00261220001CN9999999N9+02431+01421101061ADDAA106000091AG10999GF100991001001999999001001KA1240M+03101MA1999999091341MD1999999-0051REMSYN017333   10310 59005
0115833390999991990012412004-14050-042617FM-12+088299999V0201401N00311220001CN0200001N9+02381+01841101211ADDAA106000091AG10999GF104991031021004501021001KA1240N+01641MA1999999091521MD1999999-0071REMSYN017333   20164 59007
0115833390999991990012500004-14050-042617FM-12+088299999V0201401N00101220001CN9999999N9+02361+01761101071ADDAA106000091AG10999GF100991001001999999001001KA1240M+02931MA1999999091381MD1999999+0041REMSYN017333   10293 58004
0137833390999991990012512004-14050-042617FM-12+088299999V0201401N00461004201CN0200001N9+02201+01951101241ADDAA106000091AG10999AY101061AY201061GF106991051021004501021001KA1240N+01761MA1999999091521MD1999999+0001MW1101REMSYN017333   20176 58000
0096833390999991990012518004-14050-042617FM-12+088299999V0201801N00621220001CN0200001N9+02821+01511100991ADDAA106000091AG10999GF104991031021004501021001MA1999999091321MD1999999+0061REMSYN011333   58006
0115833390999991990012600004-14050-042617FM-12+088299999V0201401N00511220001CN9999999N9+02381+01631101111ADDAA106000091AG10999GF100991001001999999001001KA1240M+02871MA1999999091411MD1999999+0031REMSYN017333   10287 58003
0137833390999991990012612004-14050-042617FM-12+088299999V0201401N00101004201CN0200001N9+02141+01881101361ADDAA106000091AG10999AY101061AY201061GF105991051021004501001001KA1240N+01761MA1999999091631MD1999999+0111MW1101REMSYN017333   20176 58011
0096833390999991990012618004-14050-042617FM-12+088299999V0201401N00571220001CN0200001N9+02721+01521101091ADDAA106000091AG10999GF102991021021004501001001MA1999999091401MD1999999+0081REMSYN011333   58008
0137833390999991990012712004-14050-042617FM-12+088299999V0201401N00621004201CN0200001N9+02091+02031101511ADDAA106000091AG10999AY101061AY201061GF106991061021004501001001KA1240N+01781MA1999999091751MD1999999-0121MW1101REMSYN017333   20178 59012
0096833390999991990012718004-14050-042617FM-12+088299999V0201401N00571004201CN0200001N9+02601+01541101251ADDAA106000091AG10999GF105991051021004501001001MA1999999091531MD1999999+0131REMSYN011333   58013
0115833390999991990012800004-14050-042617FM-12+088299999V0200901N00871220001CN9999999N9+02361+01561101161ADDAA106000091AG10999GF100991001001999999001001KA1240M+02661MA1999999091531MD1999999-0021REMSYN017333   10266 59002
0137833390999991990012812004-14050-042617FM-12+088299999V0201401N00671004201CN0200001N9+01971+01811101371ADDAA106000091AG10999AY101061AY201061GF106991061021004501001001KA1240N+01681MA1999999091641MD1999999-0111MW1101REMSYN017333   20168 59011
0096833390999991990012818004-14050-042617FM-12+088299999V0201401N00571004201CN0200001N9+02491+01731101221ADDAA106000091AG10999GF106991051021004501021001MA1999999091491MD1999999-0041REMSYN011333   59004
0137833390999991990012912004-14050-042617FM-12+088299999V0201401N00671004201CN0040001N9+01951+01911101451ADDAA106000091AG10999AY101061AY201061GF108991081051004501999999KA1240N+01761MA1999999091681MD1999999+0041MW1101REMSYN017333   20176 58004
0096833390999991990012918004-14050-042617FM-12+088299999V0201401N00511105001CN0200001N9+02511+01701101111ADDAA106000091AG10999GF105991041021004501001021MA1999999091391MD1999999-0101REMSYN011333   59010
0115833390999991990013000004-14050-042617FM-12+088299999V0201401N00311220001CN9999999N9+02271+01711101181ADDAA106000091AG10999GF102991021021004501001001KA1240M+02631MA1999999091441MD1999999-0091REMSYN017333   10263 59009
0154833390999991990013012004-14050-042617FM-12+088299999V0200901N00461004201CN0040001N9+01861+01861101471ADDAA124000491AA299000591AG10999AY161061AY261061GF108991081051004501999999KA1240N+01701MA1999999091691MD1999999+0011MW1501REMSYN023333   20170 58001 69944
0124833390999991990013018004-14050-042617FM-12+088299999V0201401N00571004201CN0200001N9+02381+01821101261ADDAA106001091AG10999AY161061AY261061GF105991051021004501001001MA1999999091531MD1999999+0141MW1021REMSYN017333   58014 60011
0115833390999991990013100004-14050-042617FM-12+088299999V0201401N00361220001CN9999999N9+02221+01671101431ADDAA106000091AG10999GF102991021021004501001001KA1240M+02541MA1999999091671MD1999999+0231REMSYN017333   10254 58023
0143833390999991990013112004-14050-042617FM-12+088299999V0201401N00621004201CN0200001N9+02061+01641101541ADDAA124001091AG10999AY161061AY261061GF106991061021004501001001KA1240N+01671MA1999999091771MD1999999+0081MW1021REMSYN023333   20167 58008 60014
0096833390999991990013118004-14050-042617FM-12+088299999V0201401N00671220001CN0200001N9+02521+01431101351ADDAA106000091AG10999GF103991021021004501021001MA1999999091611MD1999999+0081REMSYN011333   58008
0137833390999991990020100004-14050-042617FM-12+088299999V0201401N00411220001CN9999999N9+02161+01801101491ADDAA106000091AG10999AY101061AY201061GF102991021021004501001001KA1240M+02601MA1999999091721MD1999999+0051MW1101REMSYN017333   10260 58005
0137833390999991990020112004-14050-042617FM-12+088299999V0200901N00931004201CN0040001N9+01881+01731101601ADDAA106000091AG10999AY101061AY201061GF108991081051004501999999KA1240N+01701MA1999999091791MD1999999+0021MW1101REMSYN017333   20170 58002
0096833390999991990020118004-14050-042617FM-12+088299999V0201401N00571220001CN0200001N9+02591+01461101351ADDAA106000091AG10999GF104991041021004501001001MA1999999091621MD1999999+0011REMSYN011333   58001
0115833390999991990020200004-14050-042617FM-12+088299999V0200901N00311220001CN9999999N9+02231+01581101461ADDAA106000091AG10999GF102991021021004501001001KA1240M+02641MA1999999091681MD1999999-0041REMSYN017333   10264 59004
0137833390999991990020212004-14050-042617FM-12+088299999V0201401N00671004201CN0200001N9+02461+01701101481ADDAA106000091AG10999AY101061AY201061GF106991061021004501001001KA1240N+01801MA1999999091721MD1999999-0071MW1101REMSYN017333   20180 59007
0096833390999991990020218004-14050-042617FM-12+088299999V0201401N00621220001CN0200001N9+02631+01591101271ADDAA106000091AG10999GF103991031021004501001001MA1999999091551MD1999999-0071REMSYN011333   59007
0115833390999991990020300004-14050-042617FM-12+088299999V0201401N00261220001CN9999999N9+02361+01431101341ADDAA106000091AG10999GF100991001001999999001001KA1240M+02691MA1999999091601MD1999999-0081REMSYN017333   10269 59008
0137833390999991990020312004-14050-042617FM-12+088299999V0201401N00461004201CN0200001N9+02061+01781101521ADDAA106000091AG10999AY101061AY201061GF106991061021004501001001KA1240N+01801MA1999999091761MD1999999+0041MW1101REMSYN017333   20180 58004
0096833390999991990020318004-14050-042617FM-12+088299999V0200901N00571220001CN0200001N9+02691+01491101231ADDAA106000091AG10999GF102991021021004501001001MA1999999091531MD1999999-0021REMSYN011333   59002
0115833390999991990020400004-14050-042617FM-12+088299999V0201401N00931220001CN9999999N9+02181+01781101361ADDAA106000091AG10999GF102991021021004501001001KA1240M+02741MA1999999091601MD1999999+0001REMSYN017333   10274 58000
0137833390999991990020412004-14050-042617FM-12+088299999V0209999999999004201CN0200001N9+02021+01761101581ADDAA106000091AG10999AY101061AY201061GF106991061021004501001001KA1240N+01781MA1999999091801MD1999999+0041MW1101REMSYN017333   20178 58004
0096833390999991990020418004-14050-042617FM-12+088299999V0200901N00461220001CN0200001N9+02601+01481101221ADDAA106000091AG10999GF103991031021004501001001MA1999999091501MD1999999-0031REMSYN011333   59003
0137833390999991990020500004-14050-042617FM-12+088299999V0201401N00511004201CN9999999N9+01931+01891101541ADDAA106000091AG10999AY101061AY201061GF106991061021004501001001KA1240M+02671MA1999999091731MD1999999+0131MW1101REMSYN017333   10267 58013
0137833390999991990020512004-14050-042617FM-12+088299999V0200901N00511004201CN0200001N9+01941+01681101641ADDAA106000091AG10999AY101061AY201061GF106991051021004501021001KA1240N+01601MA1999999091821MD1999999+0021MW1101REMSYN017333   20160 58002
0096833390999991990020518004-14050-042617FM-12+088299999V0200901N00771220001CN0200001N9+02621+01401101271ADDAA106000091AG10999GF102991011021004501001021MA1999999091541MD1999999+0041REMSYN011333   58004
0134833390999991990020600004-14050-042617FM-12+088299999V0200901N00211220001CN9999999N9+02221+01601101291ADDAA106000091AG10999GF102991021021999999001001KA1240M+02661MA1999999091541MD1999999-0191REMSYN017333   10266 59019EQDQ01+000992SCOLCB
0115833390999991990020612004-14050-042617FM-12+088299999V0200501N00931004201CN0040001N9+02001+01661101511ADDAA106000091AG10999GF108991081051004501999999KA1240N+01751MA1999999091741MD1999999-0081REMSYN017333   20175 59008
0096833390999991990020618004-14050-042617FM-12+088299999V0201401N00671004201CN0200001N9+02661+01591101251ADDAA106000091AG10999GF105991051021004501001001MA1999999091531MD1999999-0011REMSYN011333   59001
0115833390999991990020700004-14050-042617FM-12+088299999V0200901N00671004201CN9999999N9+02301+01831101331ADDAA106000091AG10999GF106991061021004501001001KA1240M+02721MA1999999091581MD1999999+0041REMSYN017333   10272 58004
0115833390999991990020712004-14050-042617FM-12+088299999V0200901N00261004201CN0200001N9+02071+01661101561ADDAA106000091AG10999GF106991061021004501001001KA1240N+01731MA1999999091801MD1999999+0061REMSYN017333   20173 58006
0096833390999991990020718004-14050-042617FM-12+088299999V0201401N00411045001CN0200001N9+02671+00951101271ADDAA106000091AG10999GF105991041021004501021001MA1999999091561MD1999999+0031REMSYN011333   58003
0115833390999991990020800004-14050-042617FM-12+088299999V0200901N00101004201CN9999999N9+02251+01431101351ADDAA106000091AG10999GF106991051021004501041001KA1240M+02721MA1999999091601MD1999999+0021REMSYN017333   10272 58002
0115833390999991990020812004-14050-042617FM-12+088299999V0200901N00511220001CN0200001N9+02241+01801101421ADDAA106000091AG10999GF104991031021004501001041KA1240N+01701MA1999999091681MD1999999-0121REMSYN017333   20170 59012
0096833390999991990020818004-14050-042617FM-12+088299999V0201401N00311220001CN0200001N9+02851+01231101151ADDAA106000091AG10999GF102991021021004501001001MA1999999091451MD1999999-0111REMSYN011333   59011
0115833390999991990020912004-14050-042617FM-12+088299999V0201401N00261220001CN0200001N9+02401+01731101321ADDAA106000091AG10999GF102991021011004501001001KA1240N+01001MA1999999091611MD1999999-0071REMSYN017333   20100 59007
0115833390999991990021000004-14050-042617FM-12+088299999V0209991C00001220001CN9999999N9+02441+01481101061ADDAA106000091AG10999GF100991001001999999001001KA1240M+03111MA1999999091381MD1999999-0111REMSYN017333   10311 59011
0115833390999991990021012004-14050-042617FM-12+088299999V0203601N00101220001CN0200001N9+02361+01781101221ADDAA106000091AG10999GF102991021021004501001001KA1240N+01681MA1999999091531MD1999999-0081REMSYN017333   20168 59008
0096833390999991990021018004-14050-042617FM-12+088299999V0201401N00361220001CN0200001N9+03061+01421100811ADDAA106000091AG10999GF102991021021004501001001MA1999999091181MD1999999-0101REMSYN011333   59010
0115833390999991990021100004-14050-042617FM-12+088299999V0202701N00051004201CN9999999N9+02501+01561100931ADDAA106000091AG10999GF107991061021004501021999KA1240M+03081MA1999999091271MD1999999-0111REMSYN017333   10308 59011
0143833390999991990021112004-14050-042617FM-12+088299999V0201801N00101004201CN0040001N9+02061+02061101311ADDAA124003091AG10999AY161061AY261061GF108991081051004501999999KA1240N+01801MA1999999091591MD1999999+0061MW1101REMSYN023333   20180 58006 60034
0096833390999991990021118004-14050-042617FM-12+088299999V0200501N00101220001CN0200001N9+02851+01571100871ADDAA106000091AG10999GF102991011021004501021001MA1999999091241MD1999999-0061REMSYN011333   59006
0115833390999991990021200004-14050-042617FM-12+088299999V0201401N00361004201CN9999999N9+02431+01841101101ADDAA106000091AG10999GF106991051021004501021001KA1240M+02941MA1999999091391MD1999999+0121REMSYN017333   10294 58012
0137833390999991990021212004-14050-042617FM-12+088299999V0200901N00211004201CN0040001N9+02081+01841101261ADDAA106000091AG10999AY101061AY201061GF108991081051004501999999KA1240N+01881MA1999999091541MD1999999-0051MW1101REMSYN017333   20188 59005
0096833390999991990021218004-14050-042617FM-12+088299999V0201401N00151220001CN0200001N9+02821+01511100891ADDAA106000091AG10999GF103991021021004501001021MA1999999091261MD1999999+0021REMSYN011333   58002
0137833390999991990021300004-14050-042617FM-12+088299999V0202301N00051004201CN9999999N9+02381+01681101111ADDAA106000091AG10999AY101061AY201061GF106991061021004501001001KA1240M+02871MA1999999091401MD1999999+0011MW1131REMSYN017333   10287 58001
0115833390999991990021312004-14050-042617FM-12+088299999V0200901N00211220001CN0200001N9+02301+01681101341ADDAA106000091AG10999GF102991011021004501021001KA1240N+01851MA1999999091541MD1999999+0001REMSYN017333   20185 58000
0118833390999991990021318004-14050-042617FM-12+088299999V0202701N00461004201CN0200001N9+02401+01861101011ADDAA106000091AG10999AY101061AY201061GF107991061021004501021999MA1999999091311MD1999999+0051MW1171REMSYN011333   58005
0137833390999991990021400004-14050-042617FM-12+088299999V0202301N00101004201CN9999999N9+02361+01781101061ADDAA106000091AG10999AY191061AY201061GF106991061021004501001001KA1240M+02931MA1999999091371MD1999999-0031MW1021REMSYN017333   10293 59003
0115833390999991990021412004-14050-042617FM-12+088299999V0203201N00151004201CN0200001N9+02401+01841101171ADDAA106000091AG10999GF106991051021004501021001KA1240N+01981MA1999999091481MD1999999-0061REMSYN017333   20198 59006
0124833390999991990021418004-14050-042617FM-12+088299999V0202301N00261004201CN0040001N9+02141+01971101011ADDAA106007091AG10999AY191061AY261061GF108991081051004501999999MA1999999091291MD1999999-0021MW1101REMSYN017333   59002 60071
0137833390999991990021500004-14050-042617FM-12+088299999V0202701N00101004201CN9999999N9+02151+01901101121ADDAA106000091AG10999AY101061AY201061GF108991081051004501999999KA1240M+02731MA1999999091411MD1999999+0041MW1101REMSYN017333   10273 58004
0143833390999991990021512004-14050-042617FM-12+088299999V0203201N00311004201CN0040001N9+02051+01871101371ADDAA124008091AG10999AY161061AY261061GF108991081051004501999999KA1240N+01891MA1999999091611MD1999999+0131MW1101REMSYN023333   20189 58013 60084
0124833390999991990021518004-14050-042617FM-12+088299999V0203601N00151004201CN0200001N9+02181+01951101121ADDAA106008091AG10999AY161061AY261061GF107991061021004501021999MA1999999091381MD1999999+0091MW1101REMSYN017333   58009 60081
0137833390999991990021600004-14050-042617FM-12+088299999V0202301N00051004201CN9999999N9+02171+01931101251ADDAA106000091AG10021AY101061AY201061GF108991081051004501999999KA1240M+02411MA1999999091501MD1999999+0091MW1101REMSYN017333   10241 58009
0143833390999991990021612004-14050-042617FM-12+088299999V0202701N00361004201CN0040001N9+01851+01671101421ADDAA124018091AG10999AY161061AY261061GF108991081051004501999999KA1240N+01641MA1999999091641MD1999999+0031MW1601REMSYN023333   20164 58003 60184
0118833390999991990021618004-14050-042617FM-12+088299999V0203201N00411004201CN0040001N9+02321+01701101151ADDAA106000091AG10999AY161061AY201061GF107991061021004501021999MA1999999091401MD1999999+0021MW1021REMSYN011333   58002
0137833390999991990021700004-14050-042617FM-12+088299999V0202701N00361004201CN9999999N9+02061+01821101301ADDAA106000091AG10999AY101061AY201061GF108991081051004501999999KA1240M+02381MA1999999091501MD1999999+0001MW1101REMSYN017333   10238 58000
0143833390999991990021712004-14050-042617FM-12+088299999V0202301N00461004201CN0040001N9+01941+01791101411ADDAA124002091AG10999AY161061AY261061GF108991081051004501999999KA1240N+01781MA1999999091631MD1999999-0111MW1501REMSYN023333   20178 59011 60024
0143833390999991990021800004-14050-042617FM-12+088299999V0202701N00211004201CN9999999N9+01941+01661101321ADDAA106005091AG10999AY161061AY261061GF108991081051004501999999KA1240M+02261MA1999999091541MD1999999+0041MW1101REMSYN023333   10226 58004 60051
0143833390999991990021812004-14050-042617FM-12+088299999V0203201N00311004201CN0200001N9+02021+01641101541ADDAA124024091AG10999AY161061AY261061GF106991061021004501001001KA1240N+01681MA1999999091741MD1999999+0111MW1021REMSYN023333   20168 58011 60244
0096833390999991990021818004-14050-042617FM-12+088299999V0203201N00411004201CN0200001N9+02401+01701101251ADDAA106000091AG10999GF106991051021004501021001MA1999999091501MD1999999+0111REMSYN011333   58011
0137833390999991990021900004-14050-042617FM-12+088299999V0202701N00151220001CN9999999N9+02151+01781101381ADDAA106000091AG10999AY101061AY201061GF104991041021004501001001KA1240M+02451MA1999999091621MD1999999+0081MW1101REMSYN017333   10245 58008
0115833390999991990021912004-14050-042617FM-12+088299999V0202701N00361045001CN0200001N9+02241+01841101551ADDAA106000091AG10999GF105991041021004501031001KA1240N+01881MA1999999091791MD1999999+0051REMSYN017333   20188 58005
0124833390999991990021918004-14050-042617FM-12+088299999V0202701N00311004201CN0040001N9+02341+02171101271ADDAA106004091AG10999AY161061AY261061GF106991051021004501021999MA1999999091531MD1999999+0031MW1171REMSYN017333   58003 60041
0143833390999991990022012004-14050-042617FM-12+088299999V0200901N00261004201CN0040001N9+01851+01811101751ADDAA124072091AG10999AY191061AY261061GF108991081051004501999999KA1240N+01681MA1999999091941MD1999999+0151MW1101REMSYN023333   20168 58015 60724
0096833390999991990022018004-14050-042617FM-12+088299999V0201401N00101045001CN0200001N9+02541+01421101341ADDAA106000091AG10999GF105991041021004501021001MA1999999091591MD1999999+0061REMSYN011333   58006
0137833390999991990022100004-14050-042617FM-12+088299999V0201401N00101220001CN9999999N9+02181+01971101571ADDAA106000091AG10999AY101061AY201061GF102991021021004501001001KA1240M+02631MA1999999091761MD1999999+0071MW1101REMSYN017333   10263 58007
0137833390999991990022112004-14050-042617FM-12+088299999V0201401N00411004201CN0200001N9+02001+01931101641ADDAA106000091AG10999AY101061AY201061GF106991061021004501021001KA1240N+01761MA1999999091851MD1999999-0091MW1101REMSYN017333   20176 59009
0096833390999991990022118004-14050-042617FM-12+088299999V0201401N00261220001CN0200001N9+02701+01661101321ADDAA106000091AG10999GF104991041021004501001001MA1999999091601MD1999999-0011REMSYN011333   59001
0143833390999991990022200004-14050-042617FM-12+088299999V0203601N00101004201CN9999999N9+01971+01861101521ADDAA106019091AG10999AY191061AY261061GF106991051021004501021001KA1240M+02761MA1999999091721MD1999999-0041MW1101REMSYN023333   10276 59004 60191
0143833390999991990022212004-14050-042617FM-12+088299999V0209991C00001220001CN0200001N9+02151+02091101581ADDAA124019091AG10999AY161061AY261061GF102991021021004501001001KA1240N+01761MA1999999091781MD1999999-0071MW1101REMSYN023333   20176 59007 60194
0124833390999991990022218004-14050-042617FM-12+088299999V0203601N00101220001CN0200001N9+02461+01971101251ADDAA106025091AG10999AY191061AY261061GF103991031021004501001001MA1999999091501MD1999999-0101MW1021REMSYN017333   59010 60251
0137833390999991990022300004-14050-042617FM-12+088299999V0202301N00051220001CN9999999N9+02301+02141101271ADDAA106000091AG10999AY101061AY201061GF102991021021004501001001KA1240M+02691MA1999999091541MD1999999-0811MW1131REMSYN017333   10269 59081
0154833390999991990022312004-14050-042617FM-12+088299999V0200501N00051004201CN0200001N9+02201+02121101321ADDAA106000091AA224027091AG10999AY161061AY261061GF106991061021004501001001KA1240N+01881MA1999999091591MD1999999-0191MW1101REMSYN023333   20188 59019 60274
0096833390999991990022318004-14050-042617FM-12+088299999V0202301N00151004201CN0200001N9+02381+01821101011ADDAA106000091AG10999GF106991051021004501021001MA1999999091301MD1999999-0201REMSYN011333   59020
0137833390999991990022400004-14050-042617FM-12+088299999V0201401N00051220001CN9999999N9+02161+02021101191ADDAA106000091AG10999AY101061AY201061GF102991021021004501001001KA1240M+02541MA1999999091461MD1999999-0081MW1101REMSYN017333   10254 59008
0137833390999991990022412004-14050-042617FM-12+088299999V0209991C00001004201CN0040001N9+02051+01971101291ADDAA106000091AG10999AY101061AY201061GF107991061021004501021999KA1240N+01901MA1999999091541MD1999999-0051MW1101REMSYN017333   20190 59005
0096833390999991990022418004-14050-042617FM-12+088299999V0203201N00101220001CN0200001N9+02831+01581100771ADDAA106000091AG10999GF104991031021004501001021MA1999999091141MD1999999-0161REMSYN011333   59016
0137833390999991990022500004-14050-042617FM-12+088299999V0201801N00051220001CN9999999N9+02231+02011101171ADDAA106000091AG10999AY101061AY201061GF102991021021004501001001KA1240M+02881MA1999999091441MD1999999-0021MW1131REMSYN017333   10288 59002
0143833390999991990022512004-14050-042617FM-12+088299999V0200901N00101004201CN0040001N9+02101+02051101441ADDAA124005091AG10999AY161061AY261061GF108991081051004501999999KA1240N+01831MA1999999091681MD1999999+0141MW1101REMSYN023333   20183 58014 60054
0096833390999991990022518004-14050-042617FM-12+088299999V0201401N00151004201CN0200001N9+02641+01831100971ADDAA106000091AG10999GF106991051021004501021001MA1999999091281MD1999999+0141REMSYN011333   58014
0154833390999991990022612004-14050-042617FM-12+088299999V0200901N00151004201CN0040001N9+02101+02001101431ADDAA124000691AA299000591AG10999AY161061AY261061GF108991081051004501999999KA1240N+01861MA1999999091671MD1999999-0011MW1101REMSYN023333   20186 59001 69964
0156833390999991990022700004-14050-042617FM-12+088299999V0209999999999220001CN9999999N9+02261+01901101231ADDAA106000091AG10999AY101061AY201061GF102991021021004501001001KA1240M+02731MA1999999999999MD1999999+0101MW1101REMSYN017333   10273 58010EQDQ01 101503APOSP 
0143833390999991990022712004-14050-042617FM-12+088299999V0201401N00211004201CN0040001N9+02061+01991101371ADDAA124002091AG10999AY161061AY261061GF108991081051004501999999KA1240N+01781MA1999999091621MD1999999-0051MW1101REMSYN023333   20178 59005 60024
0096833390999991990022718004-14050-042617FM-12+088299999V0201401N00671220001CN0200001N9+02601+01921100981ADDAA106000091AG10999GF106991041021004501001011MA1999999091291MD1999999-0021REMSYN011333   59002
0115833390999991990022800004-14050-042617FM-12+088299999V0209991C00001220001CN9999999N9+02181+01821101201ADDAA106000091AG10999GF100991001001999999001001KA1240M+02671MA1999999091451MD1999999-0051REMSYN017333   10267 59005
0115833390999991990022812004-14050-042617FM-12+088299999V0201401N00261220001CN0200001N9+02061+01621101361ADDAA106000091AG10999GF104991021021004501001041KA1240N+01581MA1999999091601MD1999999-0021REMSYN017333   20158 59002
0096833390999991990022818004-14050-042617FM-12+088299999V0201401N00511220001CN0200001N9+02661+00991101111ADDAA106000091AG10999GF102991011021004501021001MA1999999091411MD1999999+0121REMSYN011333   58012
0115833390999991990030100004-14050-042617FM-12+088299999V0201401N00151220001CN9999999N9+02191+01591101381ADDAA106000091AG10999GF100991001001999999001001KA1240M+02681MA1999999091621MD1999999+0171REMSYN017333   10268 58017
0115833390999991990030112004-14050-042617FM-12+088299999V0201401N00511220001CN0200001N9+02071+01861101601ADDAA106000091AG10999GF104991031021004501001011KA1240N+01741MA1999999091831MD1999999+0231REMSYN017333   20174 58023
0096833390999991990030118004-14050-042617FM-12+088299999V0200901N00511220001CN0200001N9+02481+01781101381ADDAA106000091AG10999GF104991041021004501001001MA1999999091641MD1999999+0231REMSYN011333   58023
0143833390999991990030200004-14050-042617FM-12+088299999V0201401N00511004201CN9999999N9+01981+01791101611ADDAA106004091AG10999AY161061AY221061GF108991081021004501999999KA1240M+02591MA1999999091801MD1999999+0181MW1021REMSYN023333   10259 58018 60041
0143833390999991990030212004-14050-042617FM-12+088299999V0200901N00461004201CN0040001N9+02001+01801101811ADDAA124004091AG10999AY161061AY261061GF108991081051004501999999KA1240N+01761MA1999999091981MD1999999+0151MW1101REMSYN023333   20176 58015 60044
0096833390999991990030218004-14050-042617FM-12+088299999V0201401N00361004201CN0200001N9+02551+01481101551ADDAA106000091AG10999GF105991051021004501001001MA1999999091791MD1999999+0151REMSYN011333   58015
0137833390999991990030300004-14050-042617FM-12+088299999V0201401N00411220001CN9999999N9+02091+01841101621ADDAA106000091AG10999AY101061AY201061GF102991021021004501001001KA1240M+02591MA1999999091821MD1999999+0021MW1101REMSYN017333   10259 58002
0115833390999991990030312004-14050-042617FM-12+088299999V0201401N00571004201CN0200001N9+01981+01761101731ADDAA106000091AG10999GF108991081021004501999999KA1240N+01621MA1999999091921MD1999999-0061REMSYN017333   20162 59006
0096833390999991990030318004-14050-042617FM-12+088299999V0200901N00621220001CN0200001N9+02541+01511101411ADDAA106000091AG10999GF103991031021004501001001MA1999999091661MD1999999-0131REMSYN011333   59013
0115833390999991990030400004-14050-042617FM-12+088299999V0202301N00151220001CN9999999N9+02161+01501101501ADDAA106000091AG10999GF100991001001999999001001KA1240M+02601MA1999999091621MD1999999-0101REMSYN017333   10260 59010
0115833390999991990030412004-14050-042617FM-12+088299999V0200901N00511004201CN0200001N9+02161+01721101671ADDAA106000091AG10999GF105991051021004501001001KA1240N+01781MA1999999091891MD1999999-0031REMSYN017333   20178 59003
0096833390999991990030418004-14050-042617FM-12+088299999V0200901N00511220001CN0200001N9+02621+01621101341ADDAA106000091AG10999GF104991041021004501001001MA1999999091611MD1999999-0051REMSYN011333   59005
0115833390999991990030500004-14050-042617FM-12+088299999V0201401N00101220001CN9999999N9+02201+01801101361ADDAA106000091AG10999GF100991001001999999001001KA1240M+02671MA1999999091621MD1999999-0101REMSYN017333   10267 59010
0143833390999991990030512004-14050-042617FM-12+088299999V0201401N00671004201CN0200001N9+02121+01841101491ADDAA124016091AG10999AY161061AY221061GF105991051021004501001001KA1240N+01821MA1999999091731MD1999999-0161MW1021REMSYN023333   20182 59016 60164
0096833390999991990030518004-14050-042617FM-12+088299999V0201401N00311220001CN0200001N9+02621+01671101121ADDAA106000091AG10999GF104991041021004501001001MA1999999091421MD1999999-0191REMSYN011333   59019
0115833390999991990030600004-14050-042617FM-12+088299999V0201401N00311220001CN9999999N9+02381+01751101331ADDAA106000091AG10999GF103991031021004501001001KA1240M+02651MA1999999091601MD1999999-0021REMSYN017333   10265 59002
0137833390999991990030612004-14050-042617FM-12+088299999V0201401N00261004201CN0200001N9+02081+01871101461ADDAA106000091AG10999AY101061AY201061GF106991061021004501001001KA1240N+01841MA1999999091721MD1999999-0011MW1101REMSYN017333   20184 59001
0115833390999991990030700004-14050-042617FM-12+088299999V0201401N00571220001CN9999999N9+02301+01531101331ADDAA106000091AG10999GF100991001001999999001001KA1240M+02731MA1999999091591MD1999999-0011REMSYN017333   10273 59001
0115833390999991990030712004-14050-042617FM-12+088299999V0201401N00511004201CN0200001N9+02201+01921101551ADDAA106000091AG10999GF106991061021004501001001KA1240N+01661MA1999999091801MD1999999+0081REMSYN017333   20166 58008
0096833390999991990030718004-14050-042617FM-12+088299999V0200901N00511220001CN0200001N9+02701+01801101261ADDAA106000091AG10999GF104991041021004501001001MA1999999091541MD1999999+0081REMSYN011333   58008
0115833390999991990030800004-14050-042617FM-12+088299999V0201401N00511220001CN9999999N9+02261+01821101351ADDAA106000091AG10999GF100991001001999999001001KA1240M+02751MA1999999091621MD1999999+0031REMSYN017333   10275 58003
0115833390999991990030812004-14050-042617FM-12+088299999V0201401N00621004201CN0200001N9+02101+01701101661ADDAA106000091AG10999GF106991061021004501001001KA1240N+01821MA1999999091891MD1999999+0091REMSYN017333   20182 58009
0096833390999991990030818004-14050-042617FM-12+088299999V0201401N00571220001CN0200001N9+02561+01441101391ADDAA106000091AG10999GF103991031021004501001001MA1999999091661MD1999999+0121REMSYN011333   58012
0137833390999991990030912004-14050-042617FM-12+088299999V0200901N00821004201CN0200001N9+02081+01861101731ADDAA106000091AG10999AY101061AY201061GF106991061021004501001001KA1240N+01781MA1999999091951MD1999999+0061MW1101REMSYN017333   20178 58006
0115833390999991990031000004-14050-042617FM-12+088299999V0201401N00151220001CN9999999N9+02181+01591101671ADDAA106000091AG10999GF100991001001999999001001KA1240M+02611MA1999999091891MD1999999+0141REMSYN017333   10261 58014
0115833390999991990031012004-14050-042617FM-12+088299999V0201401N00771004201CN0200001N9+02121+01841101811ADDAA106000091AG10999GF105991051021004501001001KA1240N+01801MA1999999091021MD1999999+0071REMSYN017333   20180 58007
0096833390999991990031018004-14050-042617FM-12+088299999V0201401N00411220001CN0200001N9+02601+01631101371ADDAA106000091AG10999GF103991031021004501001001MA1999999091641MD1999999-0081REMSYN011333   59008
0137833390999991990031100004-14050-042617FM-12+088299999V0201401N00211004201CN9999999N9+02201+01921101561ADDAA106000091AG10999AY101061AY201061GF107991061021004501021999KA1240M+02661MA1999999091791MD1999999-0101MW1101REMSYN017333   10266 59010
0115833390999991990031112004-14050-042617FM-12+088299999V0201401N00621004201CN0200001N9+02141+01901101641ADDAA106000091AG10999GF106991061021004501001001KA1240N+01871MA1999999091861MD1999999-0161REMSYN017333   20187 59016
0096833390999991990031118004-14050-042617FM-12+088299999V0201401N00511004201CN0200001N9+02561+01861101301ADDAA106000091AG10999GF106991061021004501001001MA1999999091581MD1999999-0061REMSYN011333   59006
0115833390999991990031200004-14050-042617FM-12+088299999V0201401N00101220001CN9999999N9+02161+01881101451ADDAA106000091AG10999GF100991001001999999001001KA1240M+02571MA1999999091691MD1999999-0101REMSYN017333   10257 59010
0137833390999991990031212004-14050-042617FM-12+088299999V0200901N00411004201CN0200001N9+02141+01931101571ADDAA106000091AG10999AY101061AY201061GF106991061021004501001001KA1240N+01881MA1999999091801MD1999999-0061MW1101REMSYN017333   20188 59006
0096833390999991990031218004-14050-042617FM-12+088299999V0209999999999220001CN0200001N9+02751+01511101151ADDAA106000091AG10999GF103991021021004501021001MA1999999091471MD1999999-0011REMSYN011333   59001
0115833390999991990031300004-14050-042617FM-12+088299999V0201401N00211220001CN9999999N9+02321+01761101241ADDAA106000091AG10999GF100991001001999999001001KA1240M+02771MA1999999091521MD1999999-0171REMSYN017333   10277 59017
0115833390999991990031312004-14050-042617FM-12+088299999V0201401N00311004201CN0200001N9+02161+01991101351ADDAA106000091AG10999GF106991061021004501001001KA1240N+01741MA1999999091651MD1999999-0151REMSYN017333   20174 59015
0096833390999991990031318004-14050-042617FM-12+088299999V0201401N00311220001CN0200001N9+02761+01911101011ADDAA106000091AG10999GF103991031021004501001001MA1999999091331MD1999999-0141REMSYN011333   59014
0115833390999991990031400004-14050-042617FM-12+088299999V0201801N00151220001CN9999999N9+02301+01871101121ADDAA106000091AG10999GF102991021021004501001001KA1240M+02771MA1999999091411MD1999999-0111REMSYN017333   10277 59011
0137833390999991990031412004-14050-042617FM-12+088299999V0200501N00311220001CN0200001N9+02341+01981101201ADDAA106000091AG10999AY101061AY201061GF102991021021004501001001KA1240N+01741MA1999999091491MD1999999-0161MW1101REMSYN017333   20174 59016
0096833390999991990031418004-14050-042617FM-12+088299999V0201401N00361220001CN0200001N9+02901+01241100841ADDAA106000091AG10999GF102991021021004501001001MA1999999091211MD1999999-0121REMSYN011333   59012
0115833390999991990031512004-14050-042617FM-12+088299999V0201401N00311220001CN0200001N9+02321+02001101241ADDAA106000091AG10999GF104991041021004501001001KA1240N+01721MA1999999091541MD1999999+0051REMSYN017333   20172 58005
0096833390999991990031518004-14050-042617FM-12+088299999V0201401N00311004201CN0200001N9+02861+02011100911ADDAA106000091AG10999GF105991051021004501001001MA1999999091251MD1999999+0041REMSYN011333   58004
0115833390999991990031600004-14050-042617FM-12+088299999V0201401N00411220001CN9999999N9+02301+01811101101ADDAA106000091AG10999GF100991001001999999001001KA1240M+02911MA1999999091401MD1999999+0091REMSYN017333   10291 58009
0137833390999991990031612004-14050-042617FM-12+088299999V0201401N00461004201CN0200001N9+02181+01971101141ADDAA106000091AG10999AY101061AY201061GF106991061021004501001001KA1240N+01721MA1999999091521MD1999999-0021MW1101REMSYN017333   20172 59002
0096833390999991990031618004-14050-042617FM-12+088299999V0201401N00411220001CN0200001N9+02841+01501100861ADDAA106000091AG10999GF103991021021004501021001MA1999999091201MD1999999-0051REMSYN011333   59005
0115833390999991990031700004-14050-042617FM-12+088299999V0201401N00361220001CN9999999N9+02381+01711100971ADDAA106000091AG10999GF100991001001999999001001KA1240M+02881MA1999999091281MD1999999-0121REMSYN017333   10288 59012
0115833390999991990031712004-14050-042617FM-12+088299999V0200901N00151004201CN0200001N9+02201+01991101301ADDAA106000091AG10999GF106991051021004501001011KA1240N+01741MA1999999091581MD1999999+0061REMSYN017333   20174 58006
0096833390999991990031718004-14050-042617FM-12+088299999V0203601N00211004201CN0200001N9+02781+02011101001ADDAA106000091AG10999GF106991061021004501001001MA1999999091331MD1999999+0131REMSYN011333   58013
0115833390999991990031800004-14050-042617FM-12+088299999V0201401N00311220001CN9999999N9+02361+01831101161ADDAA106000091AG10999GF100991001001999999001001KA1240M+02871MA1999999091451MD1999999+0171REMSYN017333   10287 58017
0115833390999991990031812004-14050-042617FM-12+088299999V0200901N00151220001CN0200001N9+02201+01781101421ADDAA106000091AG10999GF104991031021004501021001KA1240N+01661MA1999999091691MD1999999+0111REMSYN017333   20166 58011
0096833390999991990031818004-14050-042617FM-12+088299999V0201401N00461220001CN0200001N9+02831+01551101101ADDAA106000091AG10999GF103991031021004501001001MA1999999091431MD1999999+0101REMSYN011333   58010
0115833390999991990031912004-14050-042617FM-12+088299999V0201401N00311004201CN0200001N9+02201+01861101641ADDAA106000091AG10999GF105991051021004501001001KA1240N+01781MA1999999091881MD1999999+0181REMSYN017333   20178 58018
0096833390999991990031918004-14050-042617FM-12+088299999V0201401N00511220001CN0200001N9+02821+01831101221ADDAA106000091AG10999GF103991031021004501001001MA1999999091531MD1999999+0101REMSYN011333   58010
0115833390999991990032000004-14050-042617FM-12+088299999V0201401N00411220001CN9999999N9+02361+01611101331ADDAA106000091AG10999GF100991001001999999001001KA1240M+02851MA1999999091611MD1999999+0081REMSYN017333   10285 58008
0137833390999991990032012004-14050-042617FM-12+088299999V0201401N00511004201CN0200001N9+01981+01811101561ADDAA106000091AG10999AY101061AY201061GF106991061021004501001001KA1240N+01641MA1999999091791MD1999999-0091MW1101REMSYN017333   20164 59009
0096833390999991990032018004-14050-042617FM-12+088299999V0200901N00311220001CN0200001N9+02811+01431101131ADDAA106000091AG10999GF102991021021004501001001MA1999999091441MD1999999-0081REMSYN011333   59008
0115833390999991990032100004-14050-042617FM-12+088299999V0201401N00461220001CN9999999N9+02361+01321101211ADDAA106000091AG10999GF100991001001999999001001KA1240M+02831MA1999999091471MD1999999-0141REMSYN017333   10283 59014
0115833390999991990032112004-14050-042617FM-12+088299999V0200901N00311220001CN9999999N9+02281+01791101461ADDAA106000091AG10999GF100991001001999999001001KA1240N+01581MA1999999091731MD1999999-0061REMSYN017333   20158 59006
0096833390999991990032118004-14050-042617FM-12+088299999V0200501N00261220001CN0200001N9+02861+01721101041ADDAA106000091AG10999GF104991041021004501001001MA1999999091361MD1999999-0081REMSYN011333   59008
0115833390999991990032200004-14050-042617FM-12+088299999V0201401N00311220001CN9999999N9+02321+01501101181ADDAA106000091AG10999GF100991001001999999001001KA1240M+02941MA1999999091471MD1999999+0001REMSYN017333   10294 58000
0115833390999991990032212004-14050-042617FM-12+088299999V0200901N00211220001CN0200001N9+02371+01871101331ADDAA106000091AG10999GF102991021021004501001001KA1240N+01661MA1999999091621MD1999999-0111REMSYN017333   20166 59011
0096833390999991990032218004-14050-042617FM-12+088299999V0202301N00101004201CN0200001N9+02841+01571100941ADDAA106000091AG10999GF105991051021004501001001MA1999999091281MD1999999-0081REMSYN011333   59008
0115833390999991990032300004-14050-042617FM-12+088299999V0201401N00211220001CN9999999N9+02381+01631101161ADDAA106000091AG10999GF100991001001999999001001KA1240M+02911MA1999999091461MD1999999-0011REMSYN017333   10291 59001
0115833390999991990032312004-14050-042617FM-12+088299999V0200501N00151220001CN0200001N9+02321+01951101221ADDAA106000091AG10999GF102991011021004501021001KA1240N+01721MA1999999091521MD1999999-0101REMSYN017333   20172 59010
0096833390999991990032318004-14050-042617FM-12+088299999V0201401N00211004201CN0200001N9+02821+01741100851ADDAA106000091AG10999GF105991051021004501001001MA1999999091181MD1999999-0101REMSYN011333   59010
0115833390999991990032400004-14050-042617FM-12+088299999V0201401N00261220001CN9999999N9+02401+01651101151ADDAA106000091AG10999GF100991001001999999001001KA1240M+02971MA1999999091451MD1999999-0011REMSYN017333   10297 59001
0115833390999991990032412004-14050-042617FM-12+088299999V0200501N00211220001CN0200001N9+02481+01961101171ADDAA106000091AG10999GF102991021021004501001001KA1240N+01761MA1999999091491MD1999999-0031REMSYN017333   20176 59003
0124833390999991990032418004-14050-042617FM-12+088299999V0202301N00211004201CN0040001N9+02181+01971100921ADDAA106006091AG10999AY191061AY261061GF107991061021004501021999MA1999999091201MD1999999+0021MW1171REMSYN017333   58002 60061
0137833390999991990032500004-14050-042617FM-12+088299999V0201801N00151220001CN9999999N9+02161+01991101181ADDAA106000091AG10999AY191061AY201061GF104991041021004501001001KA1240M+03021MA1999999091471MD1999999+0021MW1131REMSYN017333   10302 58002
0143833390999991990032512004-14050-042617FM-12+088299999V0200901N00311220001CN0200001N9+02301+01981101411ADDAA124006091AG10999AY161061AY201061GF102991021021004501001001KA1240N+01801MA1999999091671MD1999999+0181MW1021REMSYN023333   20180 58018 60064
0096833390999991990032518004-14050-042617FM-12+088299999V0201401N00101220001CN0200001N9+02921+01831100991ADDAA106000091AG10999GF105991041021004501001011MA1999999091331MD1999999+0131REMSYN011333   58013
0150833390999991990032600004-14050-042617FM-12+088299999V0201801N00411220001CN9999999N9+02441+01641101261ADDAA106000091AG10999GF100991001001999999001001KA1240M+02971MA1999999999999MD1999999+0081REMSYN017333   10297 58008EQDQ01+099553APOSP Q02 099553APOSP 
0115833390999991990032612004-14050-042617FM-12+088299999V0200901N00311220001CN0200001N9+02321+01851101391ADDAA106000091AG10999GF102991021021004501001001KA1240N+01761MA1999999091681MD1999999+0011REMSYN017333   20176 58001
0096833390999991990032618004-14050-042617FM-12+088299999V0201401N00311220001CN0200001N9+02981+01551100871ADDAA106000091AG10999GF102991021021004501001001MA1999999091251MD1999999-0081REMSYN011333   59008
0115833390999991990032700004-14050-042617FM-12+088299999V0200901N00051220001CN9999999N9+02431+01541101071ADDAA106000091AG10999GF100991001001999999001001KA1240M+03021MA1999999091381MD1999999-0071REMSYN017333   10302 59007
0115833390999991990032712004-14050-042617FM-12+088299999V0201401N00571004201CN0200001N9+02201+01921101301ADDAA106000091AG10999GF106991061021004501001001KA1240N+01801MA1999999091581MD1999999-0101REMSYN017333   20180 59010
0096833390999991990032718004-14050-042617FM-12+088299999V0200501N00461220001CN0200001N9+02841+01431100861ADDAA106000091AG10999GF105991011021004501001041MA1999999091221MD1999999-0031REMSYN011333   59003
0115833390999991990032800004-14050-042617FM-12+088299999V0201401N00261220001CN9999999N9+02381+01401101191ADDAA106000091AG10999GF100991001001999999001001KA1240M+02851MA1999999091481MD1999999+0101REMSYN017333   10285 58010
0134833390999991990032812004-14050-042617FM-12+088299999V0201401N00361220001CN0200001N9+02321+01811101331ADDAA106000091AG10999GF102991011021004501021001KA1240N+01721MA1999999999999MD1999999+0041REMSYN017333   20172 58004EQDQ01 099623APOSP 
0115833390999991990032818004-14050-042617FM-12+088299999V0201401N00411220001CN0200001N9+02901+01521101001ADDAA106000091AG10999GF103991031021004501001001MA1999999091342MD1999999+0121REMSYN011333   58012EQDQ01+091343APOSP 
0115833390999991990032912004-14050-042617FM-12+088299999V0201401N01231220001CN0200001N9+02221+01881101441ADDAA106000091AG10999GF103991031021004501001001KA1240N+01971MA1999999091961MD1999999+0101REMSYN017333   20197 58010
0096833390999991990032918004-14050-042617FM-12+088299999V0201401N00821220001CN0200001N9+02741+01731101151ADDAA106000091AG10999GF103991021021004501001041MA1999999091471MD1999999+0131REMSYN011333   58013
0115833390999991990033000004-14050-042617FM-12+088299999V0201401N00411220001CN9999999N9+02321+01761101341ADDAA106000091AG10999GF100991001001999999001001KA1240M+02791MA1999999091611MD1999999+0191REMSYN017333   10279 58019
0115833390999991990033012004-14050-042617FM-12+088299999V0201401N00621220001CN0200001N9+02251+01781101421ADDAA106000091AG10999GF103991021021004501021001KA1240N+01861MA1999999091691MD1999999-0031REMSYN017333   20186 59003
0096833390999991990033018004-14050-042617FM-12+088299999V0201401N00571220001CN0200001N9+02711+01781101121ADDAA106000091AG10999GF104991031021004501031001MA1999999091431MD1999999-0041REMSYN011333   59004
0154833390999991990033100004-14050-042617FM-12+088299999V0201401N00461004201CN9999999N9+02141+01881101291ADDAA106000491AA299000591AG10999AY161061AY261061GF105991051021004501001001KA1240M+02751MA1999999091551MD1999999-0061MW1101REMSYN023333   10275 59006 69941
0143833390999991990033112004-14050-042617FM-12+088299999V0201801N00511004201CN0200001N9+02021+01811101491ADDAA124001091AG10999AY161061AY221061GF106991061021004501001001KA1240N+01881MA1999999091721MD1999999+0031MW1101REMSYN023333   20188 58003 60014
0096833390999991990033118004-14050-042617FM-12+088299999V0201401N00511220001CN0200001N9+02701+01781101081ADDAA106000091AG10999GF102991021021004501001001MA1999999091391MD1999999-0041REMSYN011333   59004
0115833390999991990040100004-14050-042617FM-12+088299999V0201401N00361220001CN9999999N9+02281+01791101261ADDAA106000091AG10999GF102991021021004501001001KA1240M+02741MA1999999091521MD1999999-0031REMSYN017333   10274 59003
0137833390999991990040112004-14050-042617FM-12+088299999V0201401N00981004201CN0200001N9+02101+01801101511ADDAA106000091AG10999AY101061AY201061GF106991061021004501001001KA1240N+01781MA1999999091751MD1999999+0031MW1101REMSYN017333   20178 58003
0096833390999991990040118004-14050-042617FM-12+088299999V0201401N00461004201CN0200001N9+02721+01351101161ADDAA106000091AG10999GF106991051021004501031001MA1999999091461MD1999999+0071REMSYN011333   58007
0115833390999991990040200004-14050-042617FM-12+088299999V0201401N00151220001CN9999999N9+02241+01501101341ADDAA106000091AG10999GF104991041021004501001001KA1240M+02771MA1999999091591MD1999999+0071REMSYN017333   10277 58007
0100833390999991990040212004-14050-042617FM-12+088299999V0203301N00211220001CN0200001N9+02941+02331101561ADDAA106000091AG10999GF104991021021008001001011KA1240N+02201MD1999999+0131REMSYN017333   20220 58013
0096833390999991990040218004-14050-042617FM-12+088299999V0201401N00311220001CN0200001N9+02801+01461101151ADDAA106000091AG10999GF103991021021004501001011MA1999999091461MD1999999+0001REMSYN011333   58000
0115833390999991990040300004-14050-042617FM-12+088299999V0202301N00101220001CN9999999N9+02271+99999101241ADDAA106000091AG10999GF102991011021004501001041KA1240M+02861MA1999999091511MD1999999-0081REMSYN017333   10286 59008
0115833390999991990040312004-14050-042617FM-12+088299999V0200901N00261220001CN0200001N9+02301+01831101351ADDAA106000091AG10999GF100991001001999999001001KA1240N+01621MA1999999091631MD1999999-0181REMSYN017333   20162 59018
0096833390999991990040318004-14050-042617FM-12+088299999V0201401N00261220001CN0200001N9+02981+01351100861ADDAA106000091AG10999GF102991021021004501001001MA1999999091221MD1999999-0241REMSYN011333   59024
0115833390999991990040400004-14050-042617FM-12+088299999V0202301N00261220001CN9999999N9+02421+01571101081ADDAA106000091AG10999GF102991021021004501001001KA1240M+03001MA1999999091391MD1999999-0121REMSYN017333   10300 59012
0115833390999991990040412004-14050-042617FM-12+088299999V0201401N00261045001CN0200001N9+02421+01911101361ADDAA106000091AG10999GF106991021021004501031011KA1240N+01801MA1999999091651MD1999999+0021REMSYN017333   20180 58002
0096833390999991990040418004-14050-042617FM-12+088299999V0201401N00311045001CN0200001N9+02781+01791101031ADDAA106000091AG10999GF108991041021004501021999MA1999999091361MD1999999+0141REMSYN011333   58014
0115833390999991990040500004-14050-042617FM-12+088299999V0201401N00311045001CN9999999N9+02441+01661101241ADDAA106000091AG10999GF108991041021004501021999KA1240M+02791MA1999999091551MD1999999+0161REMSYN017333   10279 58016
0137833390999991990040512004-14050-042617FM-12+088299999V0201401N00151004201CN0200001N9+02271+02031101621ADDAA106000091AG10999AY101061AY201061GF106991051021004501021001KA1240N+01921MA1999999091881MD1999999+0231MW1101REMSYN017333   20192 58023
0096833390999991990040518004-14050-042617FM-12+088299999V0201401N00361220001CN0200001N9+02861+01581101161ADDAA106000091AG10999GF103991031021004501001001MA1999999091521MD1999999+0161REMSYN011333   58016
0137833390999991990040612004-14050-042617FM-12+088299999V0201401N00411004201CN0040001N9+02071+02031101581ADDAA106000091AG10999AY101061AY201061GF107991061021004501021999KA1240N+01841MA1999999091821MD1999999-0061MW1101REMSYN017333   20184 59006
0115833390999991990040700004-14050-042617FM-12+088299999V0201401N00211004201CN9999999N9+02401+01581101261ADDAA106000091AG10999GF106991061021004501001001KA1240M+02831MA1999999091541MD1999999-0141REMSYN017333   10283 59014
0137833390999991990040712004-14050-042617FM-12+088299999V0201401N00311220001CN0200001N9+02181+01921101421ADDAA106000091AG10999AY101061AY201061GF102991021021004501001001KA1240N+01681MA1999999091691MD1999999-0131MW1101REMSYN017333   20168 59013
0096833390999991990040718004-14050-042617FM-12+088299999V0201401N00311220001CN0200001N9+02861+01551100941ADDAA106000091AG10999GF103991031021004501001001MA1999999091301MD1999999-0141REMSYN011333   59014
0115833390999991990040800004-14050-042617FM-12+088299999V0201401N00511220001CN9999999N9+02501+01621101071ADDAA106000091AG10999GF100991001001999999001001KA1240M+02911MA1999999091381MD1999999-0161REMSYN017333   10291 59016
0137833390999991990040812004-14050-042617FM-12+088299999V0201401N00511004201CN0040001N9+02221+02051101531ADDAA106000091AG10999AY101061AY201061GF107991061021004501021999KA1240N+01921MA1999999091801MD1999999+0111MW1101REMSYN017333   20192 58011
0096833390999991990040818004-14050-042617FM-12+088299999V0200901N00571045001CN0200001N9+02661+01681101121ADDAA106000091AG10999GF105991041021004501021001MA1999999091441MD1999999+0141REMSYN011333   58014
0115833390999991990040900004-14050-042617FM-12+088299999V0201401N00311220001CN9999999N9+02231+01621101351ADDAA106000091AG10999GF102991021021004501001001KA1240M+02691MA1999999091611MD1999999+0271REMSYN017333   10269 58027
0115833390999991990040912004-14050-042617FM-12+088299999V0200901N00261220001CN0200001N9+02231+01731101581ADDAA106000091AG10999GF100991001001999999001001KA1240N+01621MA1999999091831MD1999999+0031REMSYN017333   20162 58003
0096833390999991990040918004-14050-042617FM-12+088299999V0200501N00311220001CN0200001N9+02931+00881101141ADDAA106000091AG10999GF102991021021004501001001MA1999999091461MD1999999-0021REMSYN011333   59002
0115833390999991990041000004-14050-042617FM-12+088299999V0209991C00001220001CN9999999N9+02261+01311101341ADDAA106000091AG10999GF100991001001999999001001KA1240M+02991MA1999999091611MD1999999+0001REMSYN017333   10299 58000
0115833390999991990041012004-14050-042617FM-12+088299999V0200501N00101220001CN0200001N9+02361+01851101471ADDAA106000091AG10999GF102991011021004501001011KA1240N+01631MA1999999091711MD1999999-0121REMSYN017333   20163 59012
0096833390999991990041018004-14050-042617FM-12+088299999V0202701N00101004201CN0200001N9+03021+01511100901ADDAA106000091AG10999GF105991051021004501001001MA1999999091861MD1999999-0201REMSYN011333   59020
0115833390999991990041100004-14050-042617FM-12+088299999V0201401N00101220001CN9999999N9+02421+01651101201ADDAA106000091AG10999GF100991001001999999001001KA1240M+03091MA1999999091511MD1999999-0101REMSYN017333   10309 59010
0115833390999991990041112004-14050-042617FM-12+088299999V0201201N00101004201CN0200001N9+02401+01701101271ADDAA106000091AG10999GF106991061021004501001001KA1240N+01801MA1999999091571MD1999999-0141REMSYN017333   20180 59014
0096833390999991990041118004-14050-042617FM-12+088299999V0203601N00261004201CN0200001N9+02971+01461100861ADDAA106000091AG10999GF106991061021004501001001MA1999999091241MD1999999-0021REMSYN011333   59002
0115833390999991990041200004-14050-042617FM-12+088299999V0201801N00151004201CN9999999N9+02471+02001101091ADDAA106000091AG10999GF107991061021004501021999KA1240M+03081MA1999999091421MD1999999-0091REMSYN017333   10308 59009
0154833390999991990041212004-14050-042617FM-12+088299999V0201401N00261004201CN0200001N9+02201+02031101321ADDAA124000891AA299001091AG10999AY161061AY261061GF106991051021004501031001KA1240N+01921MA1999999091611MD1999999+0011MW1101REMSYN023333   20192 58001 69984
0135833390999991990041218004-14050-042617FM-12+088299999V0201401N00621004201CN0200001N9+02561+01971101071ADDAA106000291AA299000391AG10999AY191061AY261061GF108991081021004501999999MA1999999091371MD1999999+0131MW1021REMSYN017333   58013 69921
0115833390999991990041300004-14050-042617FM-12+088299999V0201401N00511045001CN9999999N9+02261+01991101251ADDAA106000091AG10999GF106991021021008001031001KA1240M+02741MA1999999091531MD1999999+0111REMSYN017333   10274 58011
0154833390999991990041312004-14050-042617FM-12+088299999V0200901N00571004201CN0200001N9+02221+01921101501ADDAA124000291AA299000391AG10999AY161061AY221061GF106991061021004501001001KA1240N+01861MA1999999091751MD1999999+0141MW1021REMSYN023333   20186 58014 69924
0096833390999991990041318004-14050-042617FM-12+088299999V0200901N00511220001CN0200001N9+02781+01221101091ADDAA106000091AG10999GF102991021021004501001001MA1999999091411MD1999999+0041REMSYN011333   58004
0115833390999991990041400004-14050-042617FM-12+088299999V0200901N00151220001CN9999999N9+02201+01391101261ADDAA106000091AG10999GF100991001001999999001001KA1240M+02801MA1999999091531MD1999999+0001REMSYN017333   10280 58000
0115833390999991990041412004-14050-042617FM-12+088299999V0201401N00411004201CN0200001N9+02001+01801101551ADDAA106000091AG10999GF106991061021004501001001KA1240N+01751MA1999999091771MD1999999+0021REMSYN017333   20175 58002
0096833390999991990041418004-14050-042617FM-12+088299999V0200901N00461220001CN0200001N9+02641+01631101091ADDAA106000091AG10999GF103991031021004501001001MA1999999091391MD1999999-0021REMSYN011333   59002
0115833390999991990041500004-14050-042617FM-12+088299999V0201401N00211220001CN9999999N9+02381+01751101261ADDAA106000091AG10999GF100991001001999999001001KA1240M+02691MA1999999091521MD1999999-0011REMSYN017333   10269 59001
0115833390999991990041512004-14050-042617FM-12+088299999V0201401N00261004201CN0200001N9+02141+01901101431ADDAA106000091AG10999GF105991051021004501001001KA1240N+01721MA1999999091691MD1999999-0081REMSYN017333   20172 59008
0096833390999991990041518004-14050-042617FM-12+088299999V0201401N00261004201CN0200001N9+02861+01681100961ADDAA106000091AG10999GF105991051021004501001001MA1999999091291MD1999999-0101REMSYN011333   59010
0115833390999991990041600004-14050-042617FM-12+088299999V0201401N00411220001CN9999999N9+02371+01661101211ADDAA106000091AG10999GF100991001001999999001001KA1240M+02911MA1999999091491MD1999999-0031REMSYN017333   10291 59003
0115833390999991990041612004-14050-042617FM-12+088299999V0201401N00511220001CN0200001N9+02281+01901101331ADDAA106000091AG10999GF104991041021004501001001KA1240N+01801MA1999999091611MD1999999-0081REMSYN017333   20180 59008
0096833390999991990041618004-14050-042617FM-12+088299999V0200901N00511220001CN0200001N9+02841+01501100881ADDAA106000091AG10999GF103991031021004501001001MA1999999091241MD1999999-0051REMSYN011333   59005
0115833390999991990041700004-14050-042617FM-12+088299999V0201401N00571220001CN9999999N9+02281+01641101051ADDAA106000091AG10999GF100991001001999999001001KA1240M+02891MA1999999091351MD1999999-0141REMSYN017333   10289 59014
0115833390999991990041712004-14050-042617FM-12+088299999V0201401N00411220001CN0200001N9+02161+01721101431ADDAA106000091AG10999GF103991031021004501001001KA1240N+01781MA1999999091681MD1999999+0071REMSYN017333   20178 58007
0096833390999991990041718004-14050-042617FM-12+088299999V0201401N00261004201CN0200001N9+02851+01041101031ADDAA106000091AG10999GF105991051021004501001001MA1999999091351MD1999999+0111REMSYN011333   58011
0115833390999991990041800004-14050-042617FM-12+088299999V0201401N00571220001CN9999999N9+02381+01481101101ADDAA106000091AG10999GF100991001001999999001001KA1240M+02891MA1999999091391MD1999999+0041REMSYN017333   10289 58004
0134833390999991990041812004-14050-042617FM-12+088299999V0201401N00511220001CN0200001N9+02121+01681101361ADDAA106000091AG10999GF102991001001999999001011KA1240N+01721MA1999999091631MD1999999-0051REMSYN017333   20172 59005EQDQ01+000982SCOLCB
0096833390999991990041818004-14050-042617FM-12+088299999V0201401N00511220001CN0200001N9+02801+01531100981ADDAA106000091AG10999GF103991031021004501001001MA1999999091311MD1999999-0041REMSYN011333   59004
0115833390999991990041900004-14050-042617FM-12+088299999V0201401N00101220001CN9999999N9+02241+01531101241ADDAA106000091AG10999GF100991001001999999001001KA1240M+02851MA1999999091511MD1999999+0121REMSYN017333   10285 58012
0115833390999991990041912004-14050-042617FM-12+088299999V0201401N00571220001CN0200001N9+02181+01781101351ADDAA106000091AG10999GF104991041021004501001001KA1240N+01741MA1999999091771MD1999999+0141REMSYN017333   20174 58014
0096833390999991990041918004-14050-042617FM-12+088299999V0201401N00671220001CN0200001N9+02701+01081101031ADDAA106000091AG10999GF102991021021004501001001MA1999999091351MD1999999+0041REMSYN011333   58004
0115833390999991990042012004-14050-042617FM-12+088299999V0201401N00511004201CN0200001N9+02041+01761101551ADDAA106000091AG10999GF106991061021004501001001KA1240N+01721MA1999999091791MD1999999+0261REMSYN017333   20172 58026
0096833390999991990042018004-14050-042617FM-12+088299999V0200901N00411220001CN0200001N9+02661+01331101061ADDAA106000091AG10999GF103991021021004501001021MA1999999091361MD1999999+0011REMSYN011333   58001
0115833390999991990042100004-14050-042617FM-12+088299999V0201401N00571220001CN9999999N9+02281+01591101231ADDAA106000091AG10999GF100991001001999999001001KA1240M+02671MA1999999091501MD1999999-0101REMSYN017333   10267 59010
0137833390999991990042112004-14050-042617FM-12+088299999V0201401N00981004201CN0200001N9+02041+01701101331ADDAA106000091AG10999AY101061AY201061GF106991061021004501001001KA1240N+01741MA1999999091581MD1999999-0211MW1101REMSYN017333   20174 59021
0115833390999991990042200004-14050-042617FM-12+088299999V0201401N00261220001CN9999999N9+02241+01821101161ADDAA106000091AG10999GF102991021021004501001001KA1240M+02691MA1999999091431MD1999999-0071REMSYN017333   10269 59007
0143833390999991990042212004-14050-042617FM-12+088299999V0200901N00671004201CN0200001N9+01961+01681101551ADDAA124001091AG10999AY161061AY221061GF106991061021004501001001KA1240N+01721MA1999999091771MD1999999+0191MW1021REMSYN023333   20172 58019 60014
0096833390999991990042218004-14050-042617FM-12+088299999V0200901N00511220001CN0200001N9+02661+01111101081ADDAA106000091AG10999GF102991021021004501001001MA1999999091381MD1999999+0141REMSYN011333   58014
0115833390999991990042300004-14050-042617FM-12+088299999V0201401N00511220001CN9999999N9+02181+01391101361ADDAA106000091AG10999GF100991001001999999001001KA1240M+02691MA1999999091591MD1999999+0161REMSYN017333   10269 58016
0137833390999991990042312004-14050-042617FM-12+088299999V0201401N00671004201CN0200001N9+01901+01751101551ADDAA106000091AG10999AY101061AY201061GF106991061021004501001001KA1240N+01621MA1999999091751MD1999999-0021MW1101REMSYN017333   20162 59002
0096833390999991990042318004-14050-042617FM-12+088299999V0200901N00621220001CN0200001N9+02721+01321101081ADDAA106000091AG10999GF102991021021004501001001MA1999999091381MD1999999+0001REMSYN011333   58000
0137833390999991990042400004-14050-042617FM-12+088299999V0201401N00511004201CN9999999N9+02101+01951101541ADDAA106000091AG10021AY101061AY201061GF108991081051004501999999KA1240M+02771MA1999999091741MD1999999+0151MW1101REMSYN017333   10277 58015
0137833390999991990042412004-14050-042617FM-12+088299999V0201401N00571004201CN0200001N9+02821+01761101621ADDAA106000091AG10999AY121061AY221061GF108991051021004501021999KA1240N+01721MA1999999091801MD1999999+0051MW1101REMSYN017333   20172 58005
0096833390999991990042418004-14050-042617FM-12+088299999V0200901N00511004201CN0200001N9+02461+01811101331ADDAA106000091AG10999GF106991061021004501001001MA1999999091811MD1999999+0161REMSYN011333   58016
0115833390999991990042500004-14050-042617FM-12+088299999V0201401N00571004201CN9999999N9+02241+01621101401ADDAA106000091AG10999GF108991051021004501021999KA1240M+02511MA1999999091631MD1999999-0111REMSYN017333   10251 59011
0137833390999991990042512004-14050-042617FM-12+088299999V0200901N00771004201CN0040001N9+01941+01771101531ADDAA106000091AG10999AY101061AY201061GF108991081051004501999999KA1240N+01681MA1999999091371MD1999999-0051MW1101REMSYN017333   20168 59005
0135833390999991990042518004-14050-042617FM-12+088299999V0200901N00621004201CN0040001N9+02431+01651101171ADDAA106000291AA299000391AG10999AY161061AY261061GF107991061021004501021999MA1999999091441MD1999999-0101MW1021REMSYN017333   59010 69921
0154833390999991990042612004-14050-042617FM-12+088299999V0200901N00621004201CN0200001N9+01941+01791101321ADDAA124000691AA299000591AG10999AY161061AY221061GF106991061021004501001001KA1240N+01661MA1999999091541MD1999999-0211MW1101REMSYN023333   20166 59021 69964
0096833390999991990042618004-14050-042617FM-12+088299999V0200901N00721220001CN0200001N9+02561+01701100861ADDAA106000091AG10999GF104991041021004501001001MA1999999091171MD1999999-0291REMSYN011333   59029
0115833390999991990042700004-14050-042617FM-12+088299999V0201401N00621220001CN9999999N9+02221+01691101151ADDAA106000091AG10999GF100991001001999999001001KA1240M+02631MA1999999091411MD1999999-0111REMSYN017333   10263 59011
0137833390999991990042712004-14050-042617FM-12+088299999V0201401N00461220001CN0200001N9+02041+01761101351ADDAA106000091AG10999AY101061AY201061GF104991041021004501001001KA1240N+01721MA1999999091601MD1999999+0061MW1101REMSYN017333   20172 58006
0096833390999991990042718004-14050-042617FM-12+088299999V0201401N00261220001CN0200001N9+02741+01441100951ADDAA106000091AG10999GF102991021021004501001001MA1999999091251MD1999999+0101REMSYN011333   58010
0115833390999991990042800004-14050-042617FM-12+088299999V0201401N00461220001CN9999999N9+02241+01401101171ADDAA106000091AG10999GF100991001001999999001001KA1240M+02751MA1999999091441MD1999999+0031REMSYN017333   10275 58003
0115833390999991990042812004-14050-042617FM-12+088299999V0201401N00621220001CN0200001N9+02141+01661101441ADDAA106000091AG10999GF102991021021004501001001KA1240N+01641MA1999999091691MD1999999+0091REMSYN017333   20164 58009
0096833390999991990042818004-14050-042617FM-12+088299999V0200901N00571220001CN0200001N9+02721+01491101011ADDAA106000091AG10999GF102991021021004501001001MA1999999091311MD1999999+0061REMSYN011333   58006
0115833390999991990042900004-14050-042617FM-12+088299999V0201401N00771220001CN9999999N9+02221+01711101181ADDAA106000091AG10999GF100991001001999999001001KA1240M+02731MA1999999091451MD1999999+0011REMSYN017333   10273 58001
0115833390999991990042918004-14050-042617FM-12+088299999V0201401N00461004201CN0200001N9+02001+01701101401ADDAA106000091AG10999GF105991051021004501001001KA1240N+01681MA1999999091641MD1999999-0051REMSYN017333   20168 59005
0115833390999991990043000004-14050-042617FM-12+088299999V0201401N00361220001CN9999999N9+02301+01811101141ADDAA106000091AG10999GF100991001001999999001001KA1240M+02731MA1999999091411MD1999999-0041REMSYN017333   10273 59004
0137833390999991990043012004-14050-042617FM-12+088299999V0201401N00571004201CN0200001N9+02071+01911101301ADDAA106000091AG10999AY121061AY221061GF106991061021004501001001KA1240N+01911MA1999999091561MD1999999-0081MW1101REMSYN017333   20191 59008
0096833390999991990043018004-14050-042617FM-12+088299999V0201401N00211220001CN0200001N9+02751+01911100771ADDAA106000091AG10999GF102991021021004501001001MA1999999091131MD1999999-0261REMSYN011333   59026
0115833390999991990050100004-14050-042617FM-12+088299999V0202301N00101220001CN9999999N9+02301+01851100871ADDAA106000091AG10999GF100991001001999999001001KA1240M+02821MA1999999091171MD1999999-0241REMSYN017333   10282 59024
0115833390999991990050112004-14050-042617FM-12+088299999V0201401N00261220001CN0200001N9+02381+01891101081ADDAA106000091AG10999GF100991001001999999001001KA1240N+01671MA1999999091391MD1999999-0171REMSYN017333   20167 59017
0096833390999991990050118004-14050-042617FM-12+088299999V0201401N00101220001CN0200001N9+03021+01511100651ADDAA106000091AG10999GF104991041021004501001001MA1999999091041MD1999999-0091REMSYN011333   59009
0150833390999991990050200004-14050-042617FM-12+088299999V0201801N00151220001CN9999999N9+02401+01581100851ADDAA106000091AG10999GF100991001001999999001001KA1240M+03051MA1999999999999MD1999999+0061REMSYN017333   10305 58006EQDQ01+095613APOSP Q02 095613APOSP 
0137833390999991990050212004-14050-042617FM-12+088299999V0201401N00511004201CN0200001N9+02121+01891101201ADDAA106000091AG10999AY121061AY221061GF106991061021004501001001KA1240N+01861MA1999999091481MD1999999+0091MW1101REMSYN017333   20186 58009
0096833390999991990050218004-14050-042617FM-12+088299999V0200901N00361220001CN0200001N9+02961+01571100691ADDAA106000091AG10999GF103991031021004501001001MA1999999091091MD1999999+0051REMSYN011333   58005
0115833390999991990050300004-14050-042617FM-12+088299999V0201401N00261220001CN9999999N9+02421+01721100901ADDAA106000091AG10999GF100991001001999999001001KA1240M+03001MA1999999091211MD1999999-0081REMSYN017333   10300 59008
0115833390999991990050312004-14050-042617FM-12+088299999V0201401N00361004201CN0200001N9+02161+01951101231ADDAA106000091AG10999GF106991051021004501021001KA1240N+01741MA1999999091501MD1999999+0021REMSYN017333   20174 58002
0096833390999991990050318004-14050-042617FM-12+088299999V0201401N00311220001CN0200001N9+02691+01811100821ADDAA106000091AG10999GF104991031021004501021001MA1999999091161MD1999999+0071REMSYN011333   58007
0115833390999991990050400004-14050-042617FM-12+088299999V0203601N00051004201CN9999999N9+02301+01921100981ADDAA106000091AG10999GF106991051021004501001021KA1240M+02731MA1999999091281MD1999999-0071REMSYN017333   10273 59007
0115833390999991990050412004-14050-042617FM-12+088299999V0201401N00511004201CN0200001N9+02321+01891101221ADDAA106000091AG10999GF106991061021004501001001KA1240N+01801MA1999999091511MD1999999+0011REMSYN017333   20180 58001
0100833390999991990050418004-14050-042617FM-12+088299999V0201401N00571004201CN0200001N9+02781+01281100691ADDAA106000091AG10999GF105991051021004501001001MD1999999-0101REMSYN011333   59010EQDQ01+090163APOSP 
0137833390999991990050500004-14050-042617FM-12+088299999V0201401N00461004201CN9999999N9+02151+01951101061ADDAA106000091AG10999AY101061AY201061GF107991061021004501021001KA1240M+02861MA1999999091351MD1999999+0071MW1101REMSYN017333   10286 58007
0137833390999991990050512004-14050-042617FM-12+088299999V0201401N00511004201CN0200001N9+01981+01831101371ADDAA106000091AG10999AY121061AY221061GF106991061021004501001001KA1240N+01831MA1999999091601MD1999999+0091MW1101REMSYN017333   20183 58009
0096833390999991990050518004-14050-042617FM-12+088299999V0201401N00571220001CN0200001N9+02571+01741101011ADDAA106000091AG10999GF104991041021004501001001MA1999999091311MD1999999+0251REMSYN011333   58025
0115833390999991990050600004-14050-042617FM-12+088299999V0201401N00621220001CN9999999N9+02221+01551101251ADDAA106000091AG10999GF102991021021004501001001KA1240M+02631MA1999999091501MD1999999+0151REMSYN017333   10263 58015
0115833390999991990050612004-14050-042617FM-12+088299999V0201401N00461004201CN0200001N9+01941+01641101481ADDAA106000091AG10999GF108991051021004501021999KA1240N+01621MA1999999091711MD1999999+0111REMSYN017333   20162 58011
0096833390999991990050618004-14050-042617FM-12+088299999V0201401N00511220001CN0200001N9+02541+01601101101ADDAA106000091AG10999GF104991031021004501001041MA1999999091381MD1999999+0071REMSYN011333   58007
0115833390999991990050700004-14050-042617FM-12+088299999V0201401N00511220001CN9999999N9+02241+01531101371ADDAA106000091AG10999GF102991021021004501001001KA1240M+02641MA1999999091611MD1999999+0111REMSYN017333   10264 58011
0137833390999991990050712004-14050-042617FM-12+088299999V0201401N00311004201CN0200001N9+01961+01641101511ADDAA106000091AG10999AY101061AY201061GF106991051021004501031001KA1240N+01641MA1999999091741MD1999999+0031MW1101REMSYN017333   20164 58003
0096833390999991990050718004-14050-042617FM-12+088299999V0201401N00311220001CN0200001N9+02631+01261101071ADDAA106000091AG10999GF104991041021004501001001MA1999999091371MD1999999-0011REMSYN011333   59001
0115833390999991990050800004-14050-042617FM-12+088299999V0201401N00571220001CN9999999N9+02221+01411101281ADDAA106000091AG10999GF100991001001999999001001KA1240M+02681MA1999999091531MD1999999-0081REMSYN017333   10268 59008
0115833390999991990050812004-14050-042617FM-12+088299999V0201401N00511220001CN0200001N9+02041+01581101551ADDAA106000091AG10999GF103991031021004501001001KA1240N+01541MA1999999091781MD1999999+0041REMSYN017333   20154 58004
0096833390999991990050818004-14050-042617FM-12+088299999V0201401N00461220001CN0200001N9+02681+01241101091ADDAA106000091AG10999GF102991021021004501001001MA1999999091391MD1999999+0021REMSYN011333   58002
0115833390999991990050900004-14050-042617FM-12+088299999V0201401N00311045001CN9999999N9+02341+01441101301ADDAA106000091AG10999GF108991031021004501031999KA1240M+02741MA1999999091561MD1999999+0031REMSYN017333   10274 58003
0115833390999991990050912004-14050-042617FM-12+088299999V0201401N00511004201CN0200001N9+01981+01701101431ADDAA106000091AG10999GF105991051021004501001001KA1240N+01721MA1999999091671MD1999999-0111REMSYN017333   20172 59011
0096833390999991990050918004-14050-042617FM-12+088299999V0201401N00511004201CN0200001N9+02621+01531101081ADDAA106000091AG10999GF106991051021004501001041MA1999999091381MD1999999-0011REMSYN011333   59001
0115833390999991990051000004-14050-042617FM-12+088299999V0201401N00571004201CN9999999N9+02291+01331101281ADDAA106000091AG10999GF107991061021004501031999KA1240M+02671MA1999999091541MD1999999-0021REMSYN017333   10267 59002
0137833390999991990051012004-14050-042617FM-12+088299999V0200901N00671004201CN0040001N9+01951+01841101491ADDAA106000091AG10999AY101061AY201061GF108991081051004501999999KA1240N+01781MA1999999091721MD1999999+0051MW1101REMSYN017333   20178 58005
0096833390999991990051018004-14050-042617FM-12+088299999V0201401N00621004201CN0200001N9+02561+01531101091ADDAA106000091AG10999GF106991051021004501001041MA1999999091391MD1999999+0011REMSYN011333   58001
0115833390999991990051100004-14050-042617FM-12+088299999V0201401N00361220001CN9999999N9+02231+01671101241ADDAA106000091AG10999GF102991021021004501001001KA1240M+02591MA1999999091491MD1999999-0051REMSYN017333   10259 59005
0137833390999991990051112004-14050-042617FM-12+088299999V0200901N00211004201CN0200001N9+02141+01881101361ADDAA106000091AG10999AY101061AY201061GF106991061021004501001001KA1240N+01861MA1999999091621MD1999999-0101MW1101REMSYN017333   20186 59010
0096833390999991990051118004-14050-042617FM-12+088299999V0201401N00151004201CN0200001N9+02871+01481100911ADDAA106000091AG10999GF105991051021004501001001MA1999999091251MD1999999-0141REMSYN011333   59014
0115833390999991990051212004-14050-042617FM-12+088299999V0201401N00101220001CN0200001N9+02441+01791101301ADDAA106000091AG10999GF103991031021004501001001KA1240N+01801MA1999999091601MD1999999-0021REMSYN017333   20180 59002
0115833390999991990051300004-14050-042617FM-12+088299999V0209991C00001004201CN9999999N9+02491+01801101111ADDAA106000091AG10999GF106991061021004501001001KA1240M+03041MA1999999091441MD1999999+0071REMSYN017333   10304 58007
0137833390999991990051312004-14050-042617FM-12+088299999V0201401N00361004201CN0040001N9+02001+01931101441ADDAA106000091AG10999AY101061AY201061GF108991081051004501999999KA1240N+01881MA1999999091701MD1999999+0101MW1101REMSYN017333   20188 58010
0096833390999991990051318004-14050-042617FM-12+088299999V0201401N00571220001CN0200001N9+02601+01761101101ADDAA106000091AG10999GF104991031021004501001021MA1999999091401MD1999999+0171REMSYN011333   58017
0137833390999991990051400004-14050-042617FM-12+088299999V0201401N00771004201CN9999999N9+02121+01911101371ADDAA106000091AG10999AY101061AY201061GF105991051021004501001001KA1240M+02631MA1999999091601MD1999999+0161MW1101REMSYN017333   10263 58016
0137833390999991990051412004-14050-042617FM-12+088299999V0201401N00621004201CN0200001N9+01921+01731101631ADDAA106000091AG10999AY121061AY221061GF108991061021004501021999KA1240N+01741MA1999999091821MD1999999+0121MW1101REMSYN017333   20174 58012
0096833390999991990051418004-14050-042617FM-12+088299999V0200901N00511220001CN0200001N9+02501+01721101261ADDAA106000091AG10999GF102991021021004501001001MA1999999091531MD1999999+0131REMSYN011333   58013
0115833390999991990051500004-14050-042617FM-12+088299999V0201401N00721220001CN9999999N9+02201+01671101491ADDAA106000091AG10999GF103991031021004501001001KA1240M+02541MA1999999091711MD1999999+0111REMSYN017333   10254 58011
0115833390999991990051512004-14050-042617FM-12+088299999V0201401N00511220001CN0200001N9+02131+01681101571ADDAA106000091AG10999GF103991031021004501001001KA1240N+01761MA1999999091801MD1999999-0051REMSYN017333   20176 59005
0096833390999991990051518004-14050-042617FM-12+088299999V0200901N00051220001CN0200001N9+02701+01411101181ADDAA106000091AG10999GF104991031021004501021001MA1999999091481MD1999999-0051REMSYN011333   59005
0115833390999991990051600004-14050-042617FM-12+088299999V0201401N00461220001CN9999999N9+02291+01631101361ADDAA106000091AG10999GF102991021021004501001001KA1240M+02731MA1999999091611MD1999999-0101REMSYN017333   10273 59010
0115833390999991990051612004-14050-042617FM-12+088299999V0201401N00411004201CN0200001N9+02141+01821101711ADDAA106000091AG10999GF106991061021004501001001KA1240N+01801MA1999999091931MD1999999+0131REMSYN017333   20180 58013
0096833390999991990051618004-14050-042617FM-12+088299999V0200501N00151220001CN0200001N9+02881+01601101171ADDAA106000091AG10999GF102991021021004501001001MA1999999091491MD1999999+0011REMSYN011333   58001
0115833390999991990051700004-14050-042617FM-12+088299999V0201401N00311220001CN9999999N9+02401+01651101401ADDAA106000091AG10999GF100991001001999999001001KA1240M+02921MA1999999091661MD1999999+0051REMSYN017333   10292 58005
0115833390999991990051712004-14050-042617FM-12+088299999V0201401N00411220001CN0200001N9+02261+01881101551ADDAA106000091AG10999GF102991021021004501001001KA1240N+01701MA1999999091821MD1999999-0111REMSYN017333   20170 59011
0096833390999991990051718004-14050-042617FM-12+088299999V0201401N00411220001CN0200001N9+02891+01351101111ADDAA106000091AG10999GF102991021021004501001001MA1999999091441MD1999999-0051REMSYN011333   59005
0115833390999991990051812004-14050-042617FM-12+088299999V0203601N00101220001CN0200001N9+02301+01561101451ADDAA106000091AG10999GF100991001001999999001001KA1240N+01681MA1999999091731MD1999999-0091REMSYN017333   20168 59009
0096833390999991990051818004-14050-042617FM-12+088299999V0202701N00151220001CN0200001N9+03161+01031100891ADDAA106000091AG10999GF104991041021004501001001MA1999999091281MD1999999-0161REMSYN011333   59016
0115833390999991990051900004-14050-042617FM-12+088299999V0202701N00311220001CN9999999N9+02601+01491101201ADDAA106000091AG10999GF100991001001999999001001KA1240M+03211MA1999999091521MD1999999-0031REMSYN017333   10321 59003
0115833390999991990051912004-14050-042617FM-12+088299999V0202301N00311004201CN0200001N9+02381+01781101341ADDAA106000091AG10999GF106991051021004501031001KA1240N+01801MA1999999091651MD1999999-0081REMSYN017333   20180 59008
0096833390999991990051918004-14050-042617FM-12+088299999V0202301N00311004201CN0200001N9+02821+01681101041ADDAA106000091AG10999GF106991051021004501021001MA1999999091391MD1999999+0111REMSYN011333   58011
0115833390999991990052000004-14050-042617FM-12+088299999V0202301N00411220001CN9999999N9+02201+01171101391ADDAA106000091AG10999GF102991021021004501001001KA1240M+03211MA1999999091661MD1999999+0141REMSYN017333   10321 58014
0137833390999991990052012004-14050-042617FM-12+088299999V0201401N00511045001CN0100001N9+01981+01811101781ADDAA106000091AG10999AY121061AY221061GF108991041021004501021999KA1240N+01841MA1999999091971MD1999999+0321MW1101REMSYN017333   20184 58032
0096833390999991990052018004-14050-042617FM-12+088299999V0201401N00361220001CN0200001N9+02561+01781101351ADDAA106000091AG10999GF103991021021004501001011MA1999999091641MD1999999+0251REMSYN011333   58025
0115833390999991990052100004-14050-042617FM-12+088299999V0201401N00571220001CN9999999N9+02201+01781101731ADDAA106000091AG10999GF100991001001999999001001KA1240M+02591MA1999999091941MD1999999+0251REMSYN017333   10259 58025
0137833390999991990052112004-14050-042617FM-12+088299999V0200901N00461004201CN0040001N9+01901+01601101841ADDAA106000091AG10999AY101061AY201061GF106991061021004501001001KA1240N+01681MA1999999092021MD1999999+0051MW1101REMSYN017333   20168 58005
0096833390999991990052118004-14050-042617FM-12+088299999V0201401N00461220001CN0200001N9+02641+01391101291ADDAA106000091AG10999GF102991021021004501001001MA1999999091591MD1999999-0051REMSYN011333   59005
0115833390999991990052200004-14050-042617FM-12+088299999V0201401N00101220001CN9999999N9+02141+01461101541ADDAA106000091AG10999GF100991001001999999001001KA1240M+02671MA1999999091741MD1999999-0201REMSYN017333   10267 59020
0096833390999991990052218004-14050-042617FM-12+088299999V0200901N00361004201CN0200001N9+02841+01231101111ADDAA106000091AG10999GF106991061021004501001001MA1999999091411MD1999999-0181REMSYN011333   59018
0137833390999991990052312004-14050-042617FM-12+088299999V0201401N00621004201CN0200001N9+02001+01681101701ADDAA106000091AG10999AY101061AY201061GF107991061021004501021001KA1240N+01701MA1999999092921MD1999999+0151MW1101REMSYN017333   20170 58015
0115833390999991990052318004-14050-042617FM-12+088299999V0201401N00571004201CN0200001N9+02491+01371101451ADDAA106000091AG10999GF106991051021004501021001MA1999999091712MD1999999+0301REMSYN011333   58030EQDQ01+091713APOSP 
0115833390999991990052400004-14050-042617FM-12+088299999V0201401N00931220001CN9999999N9+02101+01581101631ADDAA106000091AG10999GF100991001001999999001001KA1240M+02511MA1999999091831MD1999999-0161REMSYN017333   10251 59016
0115833390999991990052412004-14050-042617FM-12+088299999V0201401N00261004201CN0200001N9+02981+01521102101ADDAA106000091AG10999GF106991061021004501001001KA1240N+01641MA1999999092251MD1999999+0331REMSYN017333   20164 58033
0096833390999991990052418004-14050-042617FM-12+088299999V0201401N00821004201CN0200001N9+02341+01551101711ADDAA106000091AG10999GF105991051021004501001001MA1999999091901MD1999999+0071REMSYN011333   58007
0115833390999991990052500004-14050-042617FM-12+088299999V0201401N00821004201CN9999999N9+01921+01571102051ADDAA106000091AG10999GF108991051021004501021999KA1240M+02371MA1999999092191MD1999999+0361REMSYN017333   10237 58036
0115833390999991990052512004-14050-042617FM-12+088299999V0201401N00671004201CN0200001N9+01781+01351102061ADDAA106000091AG10999GF106991061021004501001001KA1240N+01541MA1999999092181MD1999999-0071REMSYN017333   20154 59007
0096833390999991990052518004-14050-042617FM-12+088299999V0200901N00721004201CN0200001N9+02271+01311101791ADDAA106000091AG10999GF106991061021004501001001MA1999999091961MD1999999+0061REMSYN011333   58006
0115833390999991990052600004-14050-042617FM-12+088299999V0200901N00571004201CN9999999N9+02071+01381101871ADDAA106000091AG10999GF105991051021004501001001KA1240M+02351MA1999999092021MD1999999-0171REMSYN017333   10235 59017
0115833390999991990052612004-14050-042617FM-12+088299999V0201401N01081220001CN0200001N9+01951+01401101971ADDAA106000091AG10999GF104991041021004501001001KA1240N+01561MA1999999092041MD1999999-0141REMSYN017333   20156 59014
0100833390999991990052618004-14050-042617FM-12+088299999V0201801N00151220001CN0200001N9+03121+01681101481ADDAA106000091AG10999GF104991041021008001001001MD1999999-0311REMSYN011333   59031EQDQ01+096373APOSP 
0115833390999991990052700004-14050-042617FM-12+088299999V0201401N00671004201CN9999999N9+02081+01581101741ADDAA106000091AG10999GF106991061021004501001001KA1240M+02471MA1999999091921MD1999999-0111REMSYN017333   10247 59011
0137833390999991990052712004-14050-042617FM-12+088299999V0201401N00671004201CN0200001N9+01891+01601101731ADDAA106000091AG10999AY101061AY201061GF106991061021004501001001KA1240N+01681MA1999999091951MD1999999-0091MW1101REMSYN017333   20168 59009
0096833390999991990052718004-14050-042617FM-12+088299999V0200901N00571004201CN0200001N9+02581+01371101551ADDAA106000091AG10999GF106991061021004501001001MA1999999091791MD1999999+0061REMSYN011333   58006
0115833390999991990052800004-14050-042617FM-12+088299999V0201401N00721220001CN9999999N9+02141+01641101751ADDAA106000091AG10999GF102991021021004501001001KA1240M+03531MA1999999091931MD1999999+0011REMSYN017333   10353 58001
0115833390999991990052812004-14050-042617FM-12+088299999V0201401N00621004201CN0200001N9+02891+01661101951ADDAA106000091AG10999GF106991061021004501001001KA1240N+01601MA1999999092111MD1999999+0061REMSYN017333   20160 58006
0096833390999991990052818004-14050-042617FM-12+088299999V0200901N00311220001CN0200001N9+02341+01691101601ADDAA106000091AG10999GF104991041021004501001001MA1999999091801MD1999999+0011REMSYN011333   58001
0154833390999991990052900004-14050-042617FM-12+088299999V0201401N00621004201CN9999999N9+01901+01821101951ADDAA106000291AA299000391AG10999AY121061AY221061GF108991051021004501021999KA1240M+02431MA1999999092001MD1999999+0071MW1601REMSYN023333   10243 58007 69921
0143833390999991990052912004-14050-042617FM-12+088299999V0201401N00671004201CN0200001N9+01801+01471101961ADDAA124002091AG10999AY161061AY261061GF106991061021004501001001KA1240N+01541MA1999999092091MD1999999-0021MW1101REMSYN023333   20154 59002 60024
0096833390999991990052918004-14050-042617FM-12+088299999V0200901N00821105001CN0200001N9+02361+01401101651ADDAA106000091AG10999GF105991041021004501001021MA1999999091861MD1999999+0061REMSYN011333   58006
0115833390999991990053000004-14050-042617FM-12+088299999V0201401N00361004201CN9999999N9+02031+01481101841ADDAA106000091AG10999GF106991051021004501021001KA1240M+02431MA1999999091991MD1999999-0011REMSYN017333   10243 59001
0096833390999991990053018004-14050-042617FM-12+088299999V0201401N00821004201CN0200001N9+02261+01541101631ADDAA106000091AG10999GF106991061021004501001001MA1999999091821MD1999999-0041REMSYN011333   59004
0134833390999991990053100004-14050-042617FM-12+088299999V0201401N00361220001CN9999999N9+02041+01431101781ADDAA106000091AG10999GF104991041021999999001001KA1240M+02391MA1999999091941MD1999999-0051REMSYN017333   10239 59005EQDQ01+000992SCOLCB
0137833390999991990053112004-14050-042617FM-12+088299999V0200901N00771004201CN0200001N9+01761+01501101831ADDAA106000091AG10999AY101061AY201061GF106991061021004501001001KA1240N+01431MA1999999091991MD1999999-0061MW1101REMSYN017333   20143 59006
0096833390999991990053118004-14050-042617FM-12+088299999V0201401N00821004201CN0200001N9+02321+01311101531ADDAA106000091AG10999GF105991051021004501001001MA1999999091731MD1999999-0091REMSYN011333   59009
0115833390999991990060100004-14050-042617FM-12+088299999V0201401N00621004201CN9999999N9+01901+01451101811ADDAA106000091AG10999GF107991061021004501021999KA1240M+02371MA1999999091951MD1999999+0011REMSYN017333   10237 58001
0115833390999991990060112004-14050-042617FM-12+088299999V0201401N00571004201CN0200001N9+01721+01541101931ADDAA106000091AG10999GF108991081021004501999999KA1240N+01481MA1999999092051MD1999999+0061REMSYN017333   20148 58006
0096833390999991990060118004-14050-042617FM-12+088299999V0201401N00671004201CN0200001N9+02291+01631101571ADDAA106000091AG10999GF106991061021004501001001MA1999999091751MD1999999+0021REMSYN011333   58002
0115833390999991990060200004-14050-042617FM-12+088299999V0201401N00671004201CN9999999N9+01861+01681101761ADDAA106000091AG10999GF108991081021004501999999KA1240M+02311MA1999999091901MD1999999-0051REMSYN017333   10231 59005
0137833390999991990060212004-14050-042617FM-12+088299999V0201401N00821004201CN0040001N9+01741+01541101971ADDAA106000091AG10999AY101061AY201061GF107991061021004501021999KA1240N+01501MA1999999092091MD1999999+0041MW1101REMSYN017333   20150 58004
0062833390999991990060218004-14050-042617FM-12+088299999V0201401N00721220001CN0200001N9+02421+01151101591ADDAA106000091AG10999GF103991031031004501001001MA1999999091791
0115833390999991990060300004-14050-042617FM-12+088299999V0201401N00511220001CN9999999N9+02071+01491101771ADDAA106000091AG10999GF102991021021004501001001KA1240M+02471MA1999999091931MD1999999+0031REMSYN017333   10247 58003
0143833390999991990060312004-14050-042617FM-12+088299999V0201401N00771004201CN0200001N9+01901+01601102001ADDAA124002091AG10999AY161061AY221061GF106991061021004501001001KA1240N+01601MA1999999092141MD1999999+0051MW1021REMSYN023333   20160 58005 60024
0096833390999991990060318004-14050-042617FM-12+088299999V0200901N00511220001CN0200001N9+02381+01241101731ADDAA106000091AG10999GF103991031021004501001001MA1999999091941MD1999999+0151REMSYN011333   58015
0115833390999991990060400004-14050-042617FM-12+088299999V0201401N00671220001CN9999999N9+02041+01361101831ADDAA106000091AG10999GF100991001001999999001001KA1240M+02471MA1999999091991MD1999999+0061REMSYN017333   10247 58006
0154833390999991990060412004-14050-042617FM-12+088299999V0200901N00931004201CN0200001N9+01861+01511101871ADDAA124000691AA299000591AG10999AY161061AY261061GF105991051021004501001001KA1240N+01521MA1999999092031MD1999999-0111MW1101REMSYN023333   20152 59011 69964
0096833390999991990060418004-14050-042617FM-12+088299999V0200901N00721004201CN0200001N9+02421+01311101461ADDAA106000091AG10999GF106991061021004501001001MA1999999091721MD1999999-0221REMSYN011333   59022
0115833390999991990060500004-14050-042617FM-12+088299999V0200901N00511220001CN9999999N9+01901+01381101721ADDAA106000091AG10999GF100991001001999999001001KA1240M+02511MA1999999091881MD1999999-0111REMSYN017333   10251 59011
0115833390999991990060512004-14050-042617FM-12+088299999V0201401N00571220001CN0200001N9+01811+01551101951ADDAA106000091AG10999GF104991041021004501001001KA1240N+01471MA1999999092081MD1999999+0051REMSYN017333   20147 58005
0096833390999991990060518004-14050-042617FM-12+088299999V0201401N00571220001CN0200001N9+02521+00911101471ADDAA106000091AG10999GF100991001001999999001001MA1999999091701MD1999999-0011REMSYN011333   59001
0115833390999991990060600004-14050-042617FM-12+088299999V0201401N00311220001CN9999999N9+02041+01361101701ADDAA106000091AG10999GF100991001001999999001001KA1240M+02521MA1999999091861MD1999999-0021REMSYN017333   10252 59002
0137833390999991990060612004-14050-042617FM-12+088299999V0200901N00461004201CN0040001N9+01861+01681101921ADDAA106000091AG10999AY101061AY201061GF108991081051004501999999KA1240N+01561MA1999999092071MD1999999-0011MW1101REMSYN017333   20156 59001
0115833390999991990060712004-14050-042617FM-12+088299999V0201401N00461220001CN0200001N9+02021+01601101921ADDAA106000091AG10999GF102991021021004501001001KA1240N+01381MA1999999092081MD1999999+0011REMSYN017333   20138 58001
0096833390999991990060718004-14050-042617FM-12+088299999V0200901N00311220001CN0200001N9+02461+01251101381ADDAA106000091AG10999GF102991021021004501001001MA1999999092621MD1999999-0121REMSYN011333   59012
0137833390999991990060812004-14050-042617FM-12+088299999V0201401N00721004201CN0200001N9+01971+01661101731ADDAA106000091AG10999AY101061AY201061GF106991061021004501001001KA1240N+01661MA1999999091941MD1999999-0141MW1101REMSYN017333   20166 59014
0096833390999991990060818004-14050-042617FM-12+088299999V0200901N00461220001CN0200001N9+02441+01481101371ADDAA106000091AG10999GF104991041021004501001001MA1999999091211MD1999999-0011REMSYN011333   59001
0080833390999991990060900004-14050-042617FM-12+088299999V0201401N00361220001CN9999999N9+02101+01531101611ADDAA106000091AG10999GF100991001001999999001001MD1810652+9999EQDQ01+000652APC3  
0137833390999991990060912004-14050-042617FM-12+088299999V0201401N00511220001CN0200001N9+01921+01621101851ADDAA106000091AG10999AY101061AY201061GF102991021021004501001001KA1240N+01601MA1999999092021MD1999999+0081MW1101REMSYN017333   20160 58008
0062833390999991990061012004-14050-042617FM-12+088299999V0201401N00361004201CN0200001N9+01781+01541101891ADDAA106000091AG10999GF106991061021004501001001MA1999999092041
0115833390999991990061112004-14050-042617FM-12+088299999V0201401N00511220001CN0200001N9+01961+01631101831ADDAA106000091AG10999GF102991021021004501001001KA1240N+01601MA1999999092011MD1999999-0031REMSYN017333   20160 59003
0096833390999991990061118004-14050-042617FM-12+088299999V0201401N00771220001CN0200001N9+02601+01171101451ADDAA106000091AG10999GF103991031021004501001001MA1999999091701MD1999999+0051REMSYN011333   58005
0154833390999991990061212004-14050-042617FM-12+088299999V0201401N00821004201CN0040001N9+01651+01591102001ADDAA124000891AA299001091AG10999AY161061AY261061GF108991081051004501999999KA1240N+01521MA1999999091141MD1999999+0131MW1101REMSYN023333   20152 58013 69984
0143833390999991990061312004-14050-042617FM-12+088299999V0201401N01341004201CN0700001N9+01561+01331102111ADDAA124003091AG10999AY161061AY221061GF108991051051004501021999KA1240N+01341MA1999999092141MD1999999+0021MW1021REMSYN023333   20134 58002 60034
0096833390999991990061318004-14050-042617FM-12+088299999V0200901N00821004201CN0200001N9+02031+01431101761ADDAA106000091AG10999GF108991061051004501021999MA1999999091881MD1999999-0101REMSYN011333   59010
0062833390999991990061400004-14050-042617FM-12+088299999V0201401N00771004201CN9999999N9+01791+01411101891ADDAA106000091AG10999GF108991051051004501021999MA1999999091991
0084833390999991990061412004-14050-042617FM-12+088299999V0201401N00571004201CN0200001N9+01631+01371101981ADDAA106000091AG10021AY101061AY201061GF106991051021004501021001MA1999999092081MW1101
