0114823970999991993010112004-03733-038550FM-12+001999999V0200901N00571220001CN0200001N9+02971+02041101151ADDAA106000091AG14000GF101991011011008001001001KA1240N+02481MA1999999100841MD1999999+0041REMSYN016 333 20248 58004
0095823970999991993010118004-03733-038550FM-12+001999999V0200501N00671220001CN0200001N9+03201+01861100811ADDAA106000091AG14000GF101991011011008001001041MA1999999100501MD1999999+0011REMSYN010 333 58001
0114823970999991993010200004-03733-038550FM-12+001999999V0200901N00261007501CN9999999N9+02671+02351101161ADDAA106000091AG14000GF105991051011008001001001KA1240M+03281MA1999999100851MD1999999+0051REMSYN016 333 10328 58005
0095823970999991993010218004-03733-038550FM-12+001999999V0200501N00511220001CN0200001N9+03031+02061100941ADDAA106000091AG14000GF103991011011008001001011MA1999999100631MD1999999+0131REMSYN010 333 58013
0114823970999991993010312004-03733-038550FM-12+001999999V0200901N00361007501CN0200001N9+02901+02121101291ADDAA106000091AG14000GF106991051011008001001011KA1240N+02341MA1999999100981MD1999999-0021REMSYN016 333 20234 59002
0095823970999991993010318004-03733-038550FM-12+001999999V0200901N00311220001CN0200001N9+03071+02161100981ADDAA106000091AG14000GF101991011011008001001001MA1999999100671MD1999999+0041REMSYN010 333 58004
0130823970999991993010400004-03733-038550FM-12+001999999V0200901N00261220001CN9999999N9+02661+02291101201ADDAA106000091AG14000GA1001+999999999GF100991001001999999001001KA1240M+03161MA1999999100891MD1999999-0041REMSYN016 333 10316 59004
0114823970999991993010412004-03733-038550FM-12+001999999V0200901N00311012001CN0200001N9+02791+02341101301ADDAA106000091AG14000GF107991051081008001051001KA1240N+02371MA1999999100991MD1999999+0011REMSYN016 333 20237 58001
0123823970999991993010418004-03733-038550FM-12+001999999V0200901N00511004201CN0010001N9+02351+02311101201ADDAA106012091AG10006AY161061AY221061GF108991081071004501999999MA1999999100891MD1999999+0221MW1611REMSYN016 333 58022 60121
0116823970999991993010500004-03733-038550FM-12+001999999V0201801N00051007501CN9999999N9+02401+02301101351ADDAA106000091AG14006AY161061AY221061GF108991081071008001999999KA1240M+02891MA1999999101041MW1031REMSYN010 333 10289
0120823970999991993010512004-03733-038550FM-12+001999999V0201401N00311220001CN0200001N9+02841+02291101251ADDAA124013091AG10000GF104991021011008001031001KA1240N+02271MA1999999100941MD1999999-0051REMSYN022 333 20227 59005 60134
0095823970999991993010518004-03733-038550FM-12+001999999V0200901N00411045001CN0200001N9+02871+02131101021ADDAA106000091AG14000GF107991011011008001071061MA1999999100711MD1999999-0181REMSYN010 333 59018
0114823970999991993010612004-03733-038550FM-12+001999999V0200901N00311012001CN0200001N9+02861+02311101271ADDAA106000091AG14000GF106991061081008001001001KA1240N+02421MA1999999100961MD1999999+0021REMSYN016 333 20242 58002
0095823970999991993010618004-03733-038550FM-12+001999999V0200501N00411045001CN0200001N9+02971+02281100981ADDAA106000091AG14000GF107991021011008001031061MA1999999100671MD1999999-0041REMSYN010 333 59004
0114823970999991993010700004-03733-038550FM-12+001999999V0200501N00211045001CN9999999N9+02631+02391101071ADDAA106000091AG14000GF108991011011008001071999KA1240M+03071MA1999999100761MD1999999-0121REMSYN016 333 10307 59012
0114823970999991993010712004-03733-038550FM-12+001999999V0200501N00411045001CN9999999N9+02661+02141999999ADDAA106000091AG14000GF106991021061008001041001KA1240M+03531MA1999999099901MD1999999-0121REMSYN016 333 10353 59012
0095823970999991993010718004-03733-038550FM-12+001999999V0200901N00511045001CN0200001N9+03021+02071100911ADDAA106000091AG14000GF107991011011008001071081MA1999999100611MD1999999+0061REMSYN010 333 58006
0114823970999991993010800004-03733-038550FM-12+001999999V0200901N00261021001CN9999999N9+02641+02271101011ADDAA106000091AG14000GF106991061001022501051001KA1240M+03131MA1999999100701MD1999999-0061REMSYN016 333 10313 59006
0130823970999991993010900004-03733-038550FM-12+001999999V0200501N00051220001CN9999999N9+02611+02251101181ADDAA106000091AG14000GA1001+999999999GF100991001001999999001001KA1240M+03121MA1999999100871MD1999999+0171REMSYN016 333 10312 58017
0114823970999991993010912004-03733-038550FM-12+001999999V0200901N00311012001CN0200001N9+02831+02401101251ADDAA106000091AG14000GF107991071081008001001001KA1240N+02281MA1999999100941MD1999999+0011REMSYN016 333 20228 58001
0095823970999991993010918004-03733-038550FM-12+001999999V0200501N00511220001CN0200001N9+02981+02201100951ADDAA106000091AG14000GF103991011011008001001051MA1999999100641MD1999999-0011REMSYN010 333 59001
0133823970999991993011000004-03733-038550FM-12+001999999V0200501N00101045001CN9999999N9+02621+02231102292ADDAA106000091AG14000GF108991041051008001071999KA1240M+03091MA1999999100881MD1999999+0011REMSYN016 333 10309 58001EQDQ01+102293APOSLP
0095823970999991993011018004-03733-038550FM-12+001999999V0200901N00411045001CN0200001N9+02761+02251101061ADDAA106000091AG14000GF107991031051008001071001MA1999999100751MD1999999+0111REMSYN010 333 58011
0142823970999991993011112004-03733-038550FM-12+001999999V0200901N00461045001CN0200001N9+02781+02301101421ADDAA124001091AG10006AY161061AY221061GF107991041081008001071001KA1240N+02251MA1999999101111MD1999999+0021MW1031REMSYN022 333 20225 58002 60014
0114823970999991993011200004-03733-038550FM-12+001999999V0200901N00311045001CN9999999N9+02661+02371101231ADDAA106000091AG14000GF108991031021008001071999KA1240M+03051MA1999999100921MD1999999-0041REMSYN016 333 10305 59004
0114823970999991993011300004-03733-038550FM-12+001999999V0200901N00261220001CN9999999N9+99999+99999101191ADDAA106000091AG14000GF101991011011008001001001KA1240M+03091MA1999999100881MD1999999-0041REMSYN016 333 10309 59004
0114823970999991993011312004-03733-038550FM-12+001999999V0201401N00461220001CN0200001N9+02891+02041101301ADDAA106000091AG14000GF102991021081008001001001KA1240N+02461MA1999999100991MD1999999+0021REMSYN016 333 20246 58002
0095823970999991993011318004-03733-038550FM-12+001999999V0200901N00621220001CN0200001N9+03111+02051100921ADDAA106000091AG14000GF103991011011008001001051MA1999999100611MD1999999-0061REMSYN010 333 59006
0095823970999991993011418004-03733-038550FM-12+001999999V0200901N00571220001CN0200001N9+02991+02141100911ADDAA106000091AG14000GF107991011011008001001041MA1999999100601MD1999999-0011REMSYN010 333 59001
0114823970999991993011500004-03733-038550FM-12+001999999V0200901N00311220001CN9999999N9+02661+02201101281ADDAA106000091AG14000GF101991011011008001001001KA1240M+03211MA1999999100971MD1999999+0121REMSYN016 333 10321 58012
0114823970999991993011512004-03733-038550FM-12+001999999V0200901N00461045001CN0200001N9+02931+02031101311ADDAA106000091AG14000GF105991041011008001031001KA1240N+02541MA1999999101001MD1999999+0011REMSYN016 333 20254 58001
0095823970999991993011518004-03733-038550FM-12+001999999V0200501N00511220001CN0200001N9+03031+02151101031ADDAA106000091AG14000GF102991011011008001031001MA1999999100721MD1999999+0121REMSYN010 333 58012
0114823970999991993011600004-03733-038550FM-12+001999999V0200901N00101012001CN9999999N9+02671+02351101291ADDAA106000091AG14000GF105991051081008001001001KA1240M+03101MA1999999100981MD1999999+0011REMSYN016 333 10310 58001
0123823970999991993011618004-03733-038550FM-12+001999999V0200501N00361045001CN0200001N9+02811+02331101081ADDAA106014091AG10006AY161061AY221061GF107991031081008001071001MA1999999100771MD1999999+0051MW1031REMSYN016 333 58005 60141
0142823970999991993011712004-03733-038550FM-12+001999999V0200501N00211007501CN0200001N9+02721+02321101471ADDAA124015091AG10006AY161061AY221061GF107991051051008001071001KA1240N+02231MA1999999101161MD1999999-0101MW1031REMSYN022 333 20223 59010 60154
0134823970999991993011718004-03733-038550FM-12+001999999V0200501N00311045001CN0200001N9+02791+02341101101ADDAA106000491AA299000591AG10006AY161061AY221061GF107991041051008001071001MA1999999100851MD1999999+0081MW1031REMSYN016 333 58008 69941
0172823970999991993011800004-03733-038550FM-12+001999999V0200901N00101007501CN9999999N9+02561+02471101441ADDAA106000791AA299001091AG10000AY121061AY221061GF105991051021008001001001KA1240M+02931MA1999999102132MD1999999+0061MW1611REMSYN022 333 10293 58006 69971EQDQ01+102133APOSP 
0161823970999991993011812004-03733-038550FM-12+001999999V0203601N00051007501CN0020001N9+02181+99999101501ADDAA124007091AG10006AY161061AY251061GF107991051051008001031001KA1240N+99999MA1999999101191MD1999999+0031MW1611REMSYN022 333 20234 58003 60074EQDQ01 +02342ATMN  
0123823970999991993011818004-03733-038550FM-12+001999999V0200501N00261045001CN0200001N9+02761+02321101141ADDAA106000191AG10001AY151061AY221061GF107991031051008001071001MA1999999100831MD1999999-0021MW1031REMSYN016 333 59002 69911
0131823970999991993011912004-03733-038550FM-12+001999999V0200901N00261220001CN0200001N9+02791+02341101331ADDAA106000091AA224000191AG10000GF104991021081008001001011KA1240N+02371MA1999999101021MD1999999-0171REMSYN022 333 20237 59017 69914
0095823970999991993011918004-03733-038550FM-12+001999999V0200501N00461045001CN0200001N9+02981+02281100991ADDAA106000091AG14000GF106991011011008001031011MA1999999100681MD1999999-0151REMSYN010 333 59015
0114823970999991993012000004-03733-038550FM-12+001999999V0200501N00151220001CN9999999N9+02601+02331101241ADDAA106000091AG14000GF102991021011008001001001KA1240M+03061MA1999999100931MD1999999-0081REMSYN016 333 10306 59008
0133823970999991993012012004-03733-038550FM-12+001999999V0200901N00361220001CN0200001N9+02041+99999101351ADDAA106000091AG14000GF104991041081008001001001KA1240N+99999MA1999999101041MD1999999+0021REMSYN016 333 20234 58002EQDQ01 +02342ATMN  
0095823970999991993012018004-03733-038550FM-12+001999999V0200901N00571220001CN0200001N9+02921+02171100961ADDAA106000091AG14000GF102991011011008001001011MA1999999100651MD1999999-0031REMSYN010 333 59003
0114823970999991993012112004-03733-038550FM-12+001999999V0209999999999045001CN0200001N9+02761+02041999999ADDAA106000091AG14000GF106991041021008001031001KA1240N+02311MA1999999100121MD1999999-0051REMSYN016 333 20231 59005
0114823970999991993012200004-03733-038550FM-12+001999999V0200901N00211220001CN9999999N9+02581+02311101221ADDAA106000091AG14000GF102991021011008001001001KA1240M+03001MA1999999100911MD1999999+0041REMSYN016 333 10300 58004
0114823970999991993012312004-03733-038550FM-12+001999999V0201401N00361012001CN0200001N9+02781+02211101211ADDAA106000091AG14000GF106991061081008001001001KA1240N+02381MA1999999100901MD1999999-0041REMSYN016 333 20238 59004
0130823970999991993012400004-03733-038550FM-12+001999999V0200901N00311220001CN9999999N9+02681+02161101121ADDAA106000091AG14000GA1001+999999999GF100991001001999999001001KA1240M+03091MA1999999100811MD1999999-0031REMSYN016 333 10309 59003
0142823970999991993012412004-03733-038550FM-12+001999999V0201401N00361012001CN0200001N9+02861+99999101161ADDAA124000591AG10001AY151061AY221061GF105991051081008001001001KA1240N+02451MA1999999100851MD1999999-0051MW1021REMSYN022 333 20245 59005 69954
0095823970999991993012418004-03733-038550FM-12+001999999V0200901N00621220001CN0200001N9+02961+02151100801ADDAA106000091AG14000GF101991011011008001001001MA1999999100491MD1999999-0091REMSYN010 333 59009
0114823970999991993012500004-03733-038550FM-12+001999999V0200901N00461220001CN9999999N9+02701+02171101141ADDAA106000091AG14000GF102991021011008001001001KA1240M+03121MA1999999100831MD1999999+0021REMSYN016 333 10312 58002
0114823970999991993012512004-03733-038550FM-12+001999999V0201401N00361012001CN0200001N9+02811+02171101191ADDAA106000091AG14000GF106991061081008001001001KA1240N+02421MA1999999100881MD1999999+0031REMSYN016 333 20242 58003
0095823970999991993012518004-03733-038550FM-12+001999999V0200901N00571220001CN0200001N9+03021+01861100951ADDAA106000091AG14000GF103991011011008001001011MA1999999100641MD1999999+0181REMSYN010 333 58018
0134823970999991993012600004-03733-038550FM-12+001999999V0200901N00311220001CN9999999N9+02261+99999101181ADDAA106000091AG14000GA1001+999999999GF100991001001999999001001KA1240M+03121MD1999999+0041REMSYN016 333 10312 58004EQDQ01+030081APOSP 
0142823970999991993012612004-03733-038550FM-12+001999999V0200901N00311007501CN0200001N9+02731+02341101261ADDAA124003091AG10006AY161061AY221061GF107991071051008001001001KA1240N+02461MA1999999100951MD1999999+0071MW1031REMSYN022 333 20246 58007 60034
0120823970999991993012712004-03733-038550FM-12+001999999V0200901N00411012001CN0200001N9+02881+02131101311ADDAA124000591AG10000GF106991061081008001001001KA1240N+02481MA1999999101001MD1999999+0051REMSYN022 333 20248 58005 69954
0117823970999991993012718004-03733-038550FM-12+001999999V0200901N00511105001CN0200001N9+02981+02151100981ADDAA106000091AG14000GA1021+999999049GF107991041001022501011061MA1999999100671MD1999999-0091REMSYN016 333 59009 8248/
0114823970999991993012812004-03733-038550FM-12+001999999V0200901N00511012001CN0200001N9+02901+02071101381ADDAA106000091AG14000GF105991051081008001001001KA1240N+02471MA1999999101071MD1999999+0071REMSYN016 333 20247 58007
0130823970999991993012900004-03733-038550FM-12+001999999V0200901N00151220001CN9999999N9+02681+02241101351ADDAA106000091AG14000GA1001+999999999GF100991001001999999001001KA1240M+03121MA1999999101041MD1999999+0071REMSYN016 333 10312 58007
0114823970999991993012912004-03733-038550FM-12+001999999V0200901N00461045001CN0200001N9+02791+02221101361ADDAA106000091AG14000GF107991041081008001031011KA1240N+02511MA1999999101051MD1999999-0021REMSYN016 333 20251 59002
0095823970999991993012918004-03733-038550FM-12+001999999V0200901N00511220001CN0200001N9+02951+02231101051ADDAA106000091AG14000GF104991011011008001031051MA1999999100741MD1999999+0001REMSYN010 333 58000
0114823970999991993013000004-03733-038550FM-12+001999999V0200501N00261220001CN9999999N9+02661+02311101251ADDAA106000091AG14000GF104991041021008001001001KA1240M+03121MA1999999100941MD1999999-0101REMSYN016 333 10312 59010
0095823970999991993013018004-03733-038550FM-12+001999999V0200901N00461045001CN0200001N9+02921+02121100991ADDAA106000091AG14000GF107991011011008001071061MA1999999100681MD1999999-0061REMSYN010 333 59006
0095823970999991993013118004-03733-038550FM-12+001999999V0200901N00361220001CN0200001N9+03001+02241100991ADDAA106000091AG14000GF103991021011008001031001MA1999999100681MD1999999+0001REMSYN010 333 58000
0114823970999991993020100004-03733-038550FM-12+001999999V0200901N00151045001CN9999999N9+02651+02351101181ADDAA106000091AG14000GF108991031011008001071999KA1240M+03071MA1999999100871MD1999999+0001REMSYN016 333 10307 58000
0114823970999991993020112004-03733-038550FM-12+001999999V0201401N00311045001CN0200001N9+02831+02261101261ADDAA106000091AG14000GF107991041081008001071001KA1240N+02551MA1999999100951MD1999999-0011REMSYN016 333 20255 59001
0095823970999991993020118004-03733-038550FM-12+001999999V0200901N00311045001CN0200001N9+02831+02221100981ADDAA106000091AG14000GF107991031011008001071001MA1999999100671MD1999999-0011REMSYN010 333 59001
0114823970999991993020212004-03733-038550FM-12+001999999V0200901N00461012001CN0200001N9+02871+02161101361ADDAA106000091AG14000GF105991051081008001001001KA1240N+02561MA1999999101051MD1999999+0101REMSYN016 333 20256 58010
0095823970999991993020218004-03733-038550FM-12+001999999V0200901N00461220001CN0200001N9+02991+02081101031ADDAA106000091AG14000GF101991011011008001001001MA1999999100721MD1999999+0051REMSYN010 333 58005
0114823970999991993020312004-03733-038550FM-12+001999999V0200901N00511045001CN0200001N9+02851+02061101311ADDAA106000091AG14000GF106991041081008001031001KA1240N+02341MA1999999101001MD1999999-0051REMSYN016 333 20234 59005
0095823970999991993020318004-03733-038550FM-12+001999999V0200901N00461220001CN0200001N9+02971+02011100981ADDAA106000091AG14000GF102991021011008001001001MA1999999100671MD1999999-0051REMSYN010 333 59005
0095823970999991993020418004-03733-038550FM-12+001999999V0200901N00361220001CN0200001N9+03001+02031100951ADDAA106000091AG14000GF101991011011008001001001MA1999999100641MD1999999-0031REMSYN010 333 59003
0114823970999991993020512004-03733-038550FM-12+001999999V0200901N00361220001CN0200001N9+02881+02131101341ADDAA106000091AG14000GF102991021011008001001001KA1240N+02451MA1999999101031MD1999999+0031REMSYN016 333 20245 58003
0095823970999991993020518004-03733-038550FM-12+001999999V0200901N00461220001CN0200001N9+02971+02231100971ADDAA106000091AG14000GF102991011011008001001081MA1999999100661MD1999999+0021REMSYN010 333 58002
0080823970999991993020718004-03733-038550FM-12+001999999V0200901N00051220001CN0200001N9+03041+02261101051ADDAA106000091AG14000GF102991011011008001061001MD1999999+0091REMSYN010 333 58009
0142823970999991993020812004-03733-038550FM-12+001999999V0201401N00511045001CN0200001N9+02881+02251101211ADDAA124000391AG10001AY151061AY221061GF106991041081008001051001KA1240N+02601MA1999999100911MD1999999-0061MW1021REMSYN022 333 20260 59006 69934
0095823970999991993020818004-03733-038550FM-12+001999999V0200901N00511045001CN0200001N9+03021+02181100961ADDAA106000091AG14000GF105991011011008001031051MA1999999100651MD1999999-0091REMSYN010 333 59009
0114823970999991993020912004-03733-038550FM-12+001999999V0201401N00361012001CN0200001N9+02871+02181101331ADDAA106000091AG14000GF106991061081008001001001KA1240N+02421MA1999999101021MD1999999+0121REMSYN016 333 20242 58012
0095823970999991993020918004-03733-038550FM-12+001999999V0200901N00571045001CN0200001N9+03081+02071101041ADDAA106000091AG14000GF105991011011008001031001MA1999999100731MD1999999+0031REMSYN010 333 58003
0114823970999991993021012004-03733-038550FM-12+001999999V0201401N00461045001CN0200001N9+02941+02241101331ADDAA106000091AG14000GF105991041011008001051001KA1240N+02571MA1999999101021MD1999999+0001REMSYN016 333 20257 58000
0095823970999991993021018004-03733-038550FM-12+001999999V0200901N00461220001CN0200001N9+03041+02171100991ADDAA106000091AG14000GF102991011011008001001021MA1999999100681MD1999999-0031REMSYN010 333 59003
0114823970999991993021112004-03733-038550FM-12+001999999V0200901N00511220001CN0200001N9+02941+02241101151ADDAA106000091AG14000GF104991041081008001001001KA1240N+02621MA1999999100841MD1999999-0181REMSYN016 333 20262 59018
0111823970999991993021118004-03733-038550FM-12+001999999V0200901N00311220001CN0200001N9+03061+02171100811ADDAA106000091AG14000GA1001+999999999GF100991001001999999001001MA1999999100051MD1999999-0181REMSYN010 333 59018
0114823970999991993021212004-03733-038550FM-12+001999999V0200901N00411012001CN0200001N9+02931+02261101081ADDAA106000091AG14000GF105991051081008001001001KA1240N+02461MA1999999100771MD1999999-0071REMSYN016 333 20246 59007
0114823970999991993021312004-03733-038550FM-12+001999999V0200901N00261012001CN0200001N9+02851+02331101101ADDAA106000091AG14000GF107991051081008001031001KA1240N+02561MA1999999100791MD1999999+0021REMSYN016 333 20256 58002
0095823970999991993021318004-03733-038550FM-12+001999999V0200901N00511105001CN0200001N9+02931+02241100471ADDAA106000091AG14000GF106991021011008001071061MA1999999100431MD1999999-0021REMSYN010 333 59002
0095823970999991993021418004-03733-038550FM-12+001999999V0200901N00461220001CN0200001N9+03051+02301100841ADDAA106000091AG14000GF103991011011008001031001MA1999999100531MD1999999+0101REMSYN010 333 58010
0114823970999991993021512004-03733-038550FM-12+001999999V0200901N00311220001CN0200001N9+02951+02281101071ADDAA106000091AG14000GF103991011081008001031001KA1240N+02481MA1999999100761MD1999999-0011REMSYN016 333 20248 59001
0114823970999991993021612004-03733-038550FM-12+001999999V0200901N00411012001CN0200001N9+02881+02231101031ADDAA106000091AG14000GF107991061081008001061001KA1240N+02621MA1999999100721MD1999999-0041REMSYN016 333 20262 59004
0095823970999991993021618004-03733-038550FM-12+001999999V0200901N00411220001CN0200001N9+03021+02181100751ADDAA106000091AG14000GF103991021011008001031001MA1999999100441MD1999999+0001REMSYN010 333 58000
0142823970999991993021712004-03733-038550FM-12+001999999V0200901N00361220001CN0200001N9+02861+02261101021ADDAA124000191AG10001AY151061AY211061GF106991031081008001001041KA1240N+02441MA1999999100711MD1999999-0011MW1031REMSYN022 333 20244 59001 69914
0095823970999991993021718004-03733-038550FM-12+001999999V0200901N00511045001CN0200001N9+03001+02191100711ADDAA106000091AG14000GF107991011011008001051001MA1999999100401MD1999999-0041REMSYN010 333 59004
0142823970999991993021812004-03733-038550FM-12+001999999V0201801N00311012001CN0200001N9+02791+02381101101ADDAA124002091AG10006AY161061AY221061GF107991051081008001071001KA1240N+02481MA1999999100791MD1999999+0031MW1021REMSYN022 333 20248 58003 60024
0095823970999991993021818004-03733-038550FM-12+001999999V0200901N00411045001CN0200001N9+02961+02221100781ADDAA106000091AG14000GF108991021081008001071999MA1999999100471MD1999999+0071REMSYN010 333 58007
0142823970999991993022112004-03733-038550FM-12+001999999V0200901N00361220001CN0200001N9+02951+02261101421ADDAA124000591AG10000AY111061AY211061GF104991041021008001001001KA1240N+02361MA1999999101111MD1999999+0041MW1211REMSYN022 333 20236 58004 69954
0123823970999991993022118004-03733-038550FM-12+001999999V0200901N00411007501CN0200001N9+02961+02421101181ADDAA106001091AG10006AY161061AY221061GF106991051021008001071001MA1999999100871MD1999999+0091MW1011REMSYN016 333 58009 60011
0095823970999991993022218004-03733-038550FM-12+001999999V0200901N00511220001CN0200001N9+03041+02361101031ADDAA106000091AG14000GF106991011011008001001061MA1999999100721MD1999999-0151REMSYN010 333 59015
0142823970999991993022312004-03733-038550FM-12+001999999V0200901N00311007501CN0100001N9+02701+02461101171ADDAA124003091AG10006AY161061AY251061GF107991051071008001071001KA1240N+02481MA1999999100861MD1999999-0241MW1151REMSYN022 333 20248 59024 60034
0142823970999991993022412004-03733-038550FM-12+001999999V0200901N00311004201CN0020001N9+02741+02481101151ADDAA124030091AG10006AY161061AY221061GF107991061031004501071001KA1240N+02441MA1999999100841MD1999999-0021MW1171REMSYN022 333 20244 59002 60304
0123823970999991993022418004-03733-038550FM-12+001999999V0201801N00151045001CN0200001N9+02541+02351100961ADDAA106041091AG10019AY191061AY261061GF108991041081008001071999MA1999999100651MD1999999+0151MW1021REMSYN016 333 58015 60411
0114823970999991993022612004-03733-038550FM-12+001999999V0200901N00511012001CN0200001N9+02881+02281101241ADDAA106000091AG14000GF106991061081008001001999KA1240N+02571MA1999999100931MD1999999+0161REMSYN016 333 20257 58016
0095823970999991993022618004-03733-038550FM-12+001999999V0200901N00571220001CN0200001N9+03021+02291100901ADDAA106000091AG14000GF103991011011008001051001MA1999999100641MD1999999+0111REMSYN010 333 58011
0095823970999991993022718004-03733-038550FM-12+001999999V0200501N00511045001CN0200001N9+02941+02191100981ADDAA106000091AG14000GF107991011031008001071001MA1999999100671MD1999999+0031REMSYN010 333 58003
0114823970999991993022812004-03733-038550FM-12+001999999V0200901N00361220001CN0200001N9+02961+02151101191ADDAA106000091AG14000GF104991041011008001001001KA1240N+02581MA1999999100881MD1999999-0101REMSYN016 333 20258 59010
0153823970999991993030112004-03733-038550FM-12+001999999V0200901N00151045001CN0200001N9+02561+02361101101ADDAA124000691AA299000591AG10006AY161061AY221061GF106991041081008001071001KA1240N+02431MA1999999100791MD1999999-0091MW1031REMSYN022 333 20243 59009 69964
0095823970999991993030118004-03733-038550FM-12+001999999V0200501N00461220001CN0200001N9+02981+02251100751ADDAA106000091AG14000GF103991021011008001001061MA1999999100441MD1999999-0121REMSYN010 333 59012
0114823970999991993030212004-03733-038550FM-12+001999999V0200501N00211004201CN0200001N9+02711+02271101171ADDAA106000091AG14000GF108991081051004501999999KA1240N+02451MA1999999100861MD1999999+0071REMSYN016 333 20245 58007
0106823970999991993030218004-03733-038550FM-12+001999999V0209991C00001045001CN0200001N9+02521+02361100971ADDAG12006AY161061AY221061GF107991041081008001071001MA1999999100661MD1999999+0221MW1211REMSYN010 333 58022
0153823970999991993030412004-03733-038550FM-12+001999999V0201401N00411009001CN0020001N9+02581+02371101391ADDAA124000991AA299001091AG10006AY161061AY221061GF108991081081004501999999KA1240N+02461MA1999999101081MD1999999+0051MW1611REMSYN022 333 20246 58005 69994
0123823970999991993030418004-03733-038550FM-12+001999999V0200901N00671220001CN0200001N9+02981+02151101011ADDAA106002091AG10006AY161061AY211061GF103991011011008001001051MA1999999100701MD1999999-0041MW1011REMSYN016 333 59004 60021
0142823970999991993030512004-03733-038550FM-12+001999999V0200901N00361012001CN0200001N9+02781+02301101271ADDAA112700092AG10001AY151061AY221061GF106991061081008001001001KA1240N+02401MA1999999100961MD1999999-0121MW1011REMSYN022 333 20240 59012 67002
0111823970999991993030518004-03733-038550FM-12+001999999V0200901N00461220001CN0200001N9+03021+02161100961ADDAA106000091AG14000GA1001+999999999GF100991001001999999001001MA1999999100631MD1999999-0051REMSYN010 333 59005
0114823970999991993030612004-03733-038550FM-12+001999999V0200901N00361007501CN0200001N9+02761+02211101401ADDAA106000091AG14000GF106991061021008001001001KA1240N+02401MA1999999101091MD1999999+0131REMSYN016 333 20240 58013
0114823970999991993030712004-03733-038550FM-12+001999999V0200901N00311220001CN0200001N9+02891+02251101361ADDAA106000091AG14000GF104991041011008001001001KA1240N+02501MA1999999101051MD1999999-0041REMSYN016 333 20250 59004
0095823970999991993030818004-03733-038550FM-12+001999999V0200901N00411220001CN0200001N9+03011+02181101151ADDAA106000091AG14000GF102991021011008001001001MA1999999100841MD1999999+0081REMSYN010 333 58008
0114823970999991993030912004-03733-038550FM-12+001999999V0200501N00151220001CN9999999N9+02661+02271101311ADDAA106000091AG14000GF103991031021008001001001KA1240M+03111MA1999999101001MD1999999-0031REMSYN016 333 10311 59003
0095823970999991993030918004-03733-038550FM-12+001999999V0200901N00361220001CN0200001N9+03001+02141101071ADDAA106000091AG14000GF101991011011008001001001MA1999999100761MD1999999-0081REMSYN010 333 59008
0114823970999991993031012004-03733-038550FM-12+001999999V0200901N00361220001CN0200001N9+02941+02081101321ADDAA106000091AG14000GF104991041011008001001001KA1240N+02381MA1999999101011MD1999999-0051REMSYN016 333 20238 59005
0095823970999991993031018004-03733-038550FM-12+001999999V0200501N00411220001CN0200001N9+02981+02171101061ADDAA106000091AG14000GF102991021011008001001001MA1999999100751MD1999999-0011REMSYN010 333 59001
0095823970999991993031118004-03733-038550FM-12+001999999V0200901N00411220001CN0200001N9+03021+02181101101ADDAA106000091AG14000GF101991011011008001001001MA1999999100791MD1999999+0041REMSYN010 333 58004
0142823970999991993031212004-03733-038550FM-12+001999999V0200901N00211012001CN0200001N9+02781+02381101341ADDAA124002091AG10006AY161061AY221061GF106991061081008001001001KA1240N+02501MA1999999101031MD1999999-0061MW1031REMSYN022 333 20250 59006 60024
0123823970999991993031218004-03733-038550FM-12+001999999V0200901N00511220001CN0200001N9+03001+02291100941ADDAA106006091AG10006AY161061AY221061GF102991011011008001001011MA1999999100631MD1999999-0161MW1011REMSYN016 333 59016 60061
0142823970999991993031312004-03733-038550FM-12+001999999V0200901N00461220001CN0200001N9+02881+02231101341ADDAA124009091AG10006AY161061AY221061GF104991021011008001001011KA1240N+02441MA1999999101031MD1999999+0001MW1011REMSYN022 333 20244 58000 60094
0095823970999991993031318004-03733-038550FM-12+001999999V0200901N00511220001CN0200001N9+03021+02361101071ADDAA106000091AG14000GF105991031021008001001061MA1999999100761MD1999999+0131REMSYN010 333 58013
0142823970999991993031412004-03733-038550FM-12+001999999V0200901N00311220001CN0200001N9+02701+02331101361ADDAA124000591AG10001AY151061AY221061GF106991041081008001001011KA1240N+02551MA1999999101051MD1999999+0021MW1011REMSYN022 333 20255 58002 69954
0114823970999991993031512004-03733-038550FM-12+001999999V0200901N00361045001CN0200001N9+02901+02301101271ADDAA106000091AG14000GF106991041081008001031001KA1240N+02331MA1999999100961MD1999999-0091REMSYN016 333 20233 59009
0095823970999991993031518004-03733-038550FM-12+001999999V0200501N00571105001CN0200001N9+03001+02241100941ADDAA106000091AG14000GF105991021011008001031011MA1999999100631MD1999999-0091REMSYN010 333 59009
0114823970999991993031612004-03733-038550FM-12+001999999V0200901N00151045001CN0200001N9+02891+02221101261ADDAA106000091AG14000GF108991021011008001071999KA1240N+02021MA1999999100951MD1999999-0011REMSYN016 333 20202 59001
0123823970999991993031718004-03733-038550FM-12+001999999V0200501N00461045001CN0200001N9+02921+02141100961ADDAA106002091AG10006AY161061AY221061GF106991011011008001071081MA1999999100651MD1999999+0061MW1021REMSYN016 333 58006 60021
0095823970999991993031818004-03733-038550FM-12+001999999V0200901N00361220001CN0200001N9+03021+02241101011ADDAA106000091AG14000GF101991011011008001001001MA1999999100701MD1999999+0071REMSYN010 333 58007
0142823970999991993031912004-03733-038550FM-12+001999999V0200901N00311012001CN0200001N9+02841+02381101281ADDAA124006091AG10006AY161061AY221061GF106991061081008001001001KA1240N+02441MA1999999100971MD1999999-0041MW1031REMSYN022 333 20244 59004 60064
0078823970999991993031918004-03733-038550FM-12+001999999V0200501N00511220001CN0200001N9+03061+02161100971ADDAA106000091AG14000GA1001+999999999GF100991001001999999001001MA1999999100661
0114823970999991993032012004-03733-038550FM-12+001999999V0201401N00211045001CN0200001N9+02791+02361101471ADDAA106000091AG14000GF107991041081008001071061KA1240N+02501MA1999999101161MD1999999+0191REMSYN016 333 20250 58019
0095823970999991993032018004-03733-038550FM-12+001999999V0200501N004119999999N0200001N9+02921+02321101121ADDAA106000091AG14000GF106991021011008001999061MA1999999100811MD1999999+0151REMSYN010 333 58015
0142823970999991993032112004-03733-038550FM-12+001999999V0200901N00051012001CN0200001N9+02721+02521101371ADDAA124003091AG10006AY161061AY221061GF105991051081008001001001KA1240N+02501MA1999999101061MD1999999-0101MW1211REMSYN022 333 20250 59010 60034
0095823970999991993032118004-03733-038550FM-12+001999999V0200901N00361045001CN0200001N9+03001+02341100961ADDAA106000091AG14000GF106991061001999999031001MA1999999100651MD1999999-0191REMSYN010 333 59019
0142823970999991993032212004-03733-038550FM-12+001999999V0201401N00261012001CN0200001N9+02781+02401101331ADDAA124002091AG10006AY161061AY221061GF107991071081008001001001KA1240N+02391MA1999999101021MD1999999-0041MW1031REMSYN022 333 20239 59004 60024
0134823970999991993032218004-03733-038550FM-12+001999999V0200901N00511220001CN0200001N9+03021+02161100971ADDAA106000791AA299001091AG10006AY161061AY221061GF105991011011008001001041MA1999999100661MD1999999+0011MW1021REMSYN016 333 58001 69971
0142823970999991993032312004-03733-038550FM-12+001999999V0203601N00051012001CN0200001N9+02511+02381101321ADDAA124004091AG10006AY161061AY221061GF107991061081008001071001KA1240N+02361MA1999999101011MD1999999-0011MW1021REMSYN022 333 20236 59001 60044
0134823970999991993032318004-03733-038550FM-12+001999999V0200501N00571220001CN0200001N9+02961+02151100941ADDAA106000991AA299001091AG10006AY161061AY211061GF102991011011008001001051MA1999999100631MD1999999-0031MW1011REMSYN016 333 59003 69991
0095823970999991993032418004-03733-038550FM-12+001999999V0200501N00411220001CN0200001N9+03001+02241100811ADDAA106000091AG14000GF101991011011008001001011MA1999999100501MD1999999-0131REMSYN010 333 59013
0095823970999991993032518004-03733-038550FM-12+001999999V0200501N00361220001CN0200001N9+03021+02181100831ADDAA106000091AG14000GF104991011011008001001091MA1999999100521MD1999999+0021REMSYN010 333 58002
0142823970999991993032612004-03733-038550FM-12+001999999V0203201N00151004201CN0040001N9+02601+02501101311ADDAA124016091AG10019AY191061AY261061GF108991081031004501999999KA1240N+02341MA1999999100101MD1999999+0081MW1021REMSYN022 333 20234 58008 60164
0123823970999991993032718004-03733-038550FM-12+001999999V0200901N00151004201CN0040001N9+02641+02371100911ADDAA106004091AG10006AY161061AY221061GF108991081071004501999999MA1999999100601MD1999999+0051MW1601REMSYN016 333 58005 60041
0142823970999991993032812004-03733-038550FM-12+001999999V0200501N00261045001CN0040001N9+02901+02411101131ADDAA124005091AG10006AY161061AY221061GF107991041091008001071011KA1240N+02311MA1999999100821MD1999999-0011MW1151REMSYN022 333 20231 59001 60054
0123823970999991993032818004-03733-038550FM-12+001999999V0200901N00261004201CN0020001N9+02591+02351100871ADDAA106013091AG10019AY191061AY261061GF108991081071004501999999MA1999999100561MD1999999-0041MW1511REMSYN016 333 59004 60131
0142823970999991993032912004-03733-038550FM-12+001999999V0201401N00311007501CN0005001N9+02411+02351101351ADDAA124061091AG10006AY161061AY221061GF108991081071008001999999KA1240N+02301MA1999999101041MD1999999+0221MW1021REMSYN022 333 20230 58022 60614
0123823970999991993032918004-03733-038550FM-12+001999999V0200501N00361045001CN0200001N9+02661+02371100991ADDAA106030091AG10006AY161061AY221061GF108991031051004501071999MA1999999100681MD1999999+0121MW1021REMSYN016 333 58012 60301
0142823970999991993033012004-03733-038550FM-12+001999999V0200901N00211105001CN0200001N9+02881+02301101201ADDAA124031091AG10006AY161061AY221061GF106991041081008001001051KA1240N+02341MA1999999100891MD1999999+0151MW1011REMSYN022 333 20234 58015 60314
0095823970999991993033018004-03733-038550FM-12+001999999V0200501N00411220001CN0200001N9+02821+02381100881ADDAA106000091AG14000GF105991021081008001001081MA1999999100571MD1999999-0111REMSYN010 333 59011
0129823970999991993033112004-03733-038550FM-12+001999999V0201401N00311220001CN0200001N9+02751+02481101211ADDAA124017091AG10006AY161061AY211061GF104991031081008001031011MA1999999100901MD1999999+0011MW1031REMSYN022 333 2032/ 58001 60174
0095823970999991993033118004-03733-038550FM-12+001999999V0200901N00361220001CN0200001N9+02981+02331100841ADDAA106000091AG14000GF102991011011008001001011MA1999999100531MD1999999-0041REMSYN010 333 59004
0114823970999991993040112004-03733-038550FM-12+001999999V0201401N00261012001CN0200001N9+02861+02391101181ADDAA106000091AG14000GF105991051081008001001001KA1240N+02421MA1999999100871MD1999999-0031REMSYN016 333 20242 59003
0123823970999991993040118004-03733-038550FM-12+001999999V0200901N00361220001CN0200001N9+02941+02361100861ADDAA106000191AG10006AY161061AY221061GF104991031011008001001011MA1999999100551MD1999999+0021MW1011REMSYN016 333 58002 69911
0114823970999991993040218004-03733-038550FM-12+001999999V0200901N00621220001CN0200001N9+02941+02331100901ADDAA106000091AG14000GF106991011021008001001011MA1999999100591MD1999999-0121REMSYN010 333 59012EQDQ01+999990APOSP 
0142823970999991993040312004-03733-038550FM-12+001999999V0200901N00411004201CN0006001N9+02821+02441101061ADDAA124006091AG10006AY161061AY221061GF108991081071004501999999KA1240N+02371MA1999999100451MD1999999-0051MW1141REMSYN022 333 20237 59005 60064
0123823970999991993040318004-03733-038550FM-12+001999999V0200501N00361105001CN0200001N9+02901+02341100681ADDAA106003091AG10017AY191061AY221061GF105991021011008001001051MA1999999100371MD1999999-0091MW1011REMSYN016 333 59009 60031
0142823970999991993040412004-03733-038550FM-12+001999999V0201401N00211220001CN0200001N9+02761+02461100971ADDAA124003091AG10001AY151061AY221061GF106991041081008001001011KA1240N+02371MA1999999100661MD1999999-0091MW1021REMSYN022 333 20237 59009 60034
0095823970999991993040418004-03733-038550FM-12+001999999V0201401N00361220001CN0200001N9+02941+02191100671ADDAA106000091AG14000GF103991031011008001001001MA1999999100361MD1999999-0011REMSYN010 333 59001
0161823970999991993040512004-03733-038550FM-12+001999999V0201401N001519999999N0200001N9+02821+02521101071ADDAA124008091AG10006AY161061AY221061GF106991999081008001001001KA1240N+02421MA1999999100761MD1999999+0101MW1011REMSYN022 333 20242 58010 60084EQDQ01+000072SCOTLC
0123823970999991993040518004-03733-038550FM-12+001999999V0200901N00411007501CN0200001N9+02801+02481100811ADDAA106003091AG10006AY161061AY221061GF107991051041008001071001MA1999999100501MD1999999+0141MW1011REMSYN016 333 58014 60031
0142823970999991993040612004-03733-038550FM-12+001999999V0201401N00311012001CN0100001N9+02771+02461101191ADDAA124003091AG10001AY151061AY221061GF106991061081008001001001KA1240N+02471MA1999999100881MD1999999+0121MW1031REMSYN022 333 20247 58012 60034
0123823970999991993040618004-03733-038550FM-12+001999999V0200901N00311220001CN0200001N9+02941+02361100841ADDAA106002091AG10006AY161061AY211061GF103991021011008001001051MA1999999100531MD1999999+0031MW1011REMSYN016 333 58003 60021
0130823970999991993040712004-03733-038550FM-12+001999999V0200501N00211220001CN9999999N9+02721+02281101011ADDAA106000091AG14000GA1001+999999999GF100991001001999999001001KA1240M+03021MA1999999100701MD1999999-0081REMSYN016 333 10302 59008
0095823970999991993040718004-03733-038550FM-12+001999999V0200901N00311220001CN0200001N9+03011+02411100741ADDAA106000091AG14000GF101991011011008001001001MA1999999100431MD1999999-0101REMSYN010 333 59010
0095823970999991993040818004-03733-038550FM-12+001999999V0200901N00361105001CN0200001N9+02921+02361100791ADDAA106000091AG14000GF107991031031008001001061MA1999999100481MD1999999-0051REMSYN010 333 59005
0103823970999991993040912004-03733-038550FM-12+001999999V0200901N00311045001CN0200001N9+02801+02401101141ADDAG12000GF107991041051008001071001KA1240N+02411MA1999999100831MD1999999+0061REMSYN016 333 20241 58006
0095823970999991993040918004-03733-038550FM-12+001999999V0200901N00361220001CN0200001N9+03021+02461100821ADDAA106000091AG14000GF103991011011008001001051MA1999999100511MD1999999+0031REMSYN010 333 58003
0114823970999991993041000004-03733-038550FM-12+001999999V0200501N00311220001CN9999999N9+02921+02431101111ADDAA106000091AG14000GF102991021011008001001001KA1240M+03071MA1999999100801MD1999999+0151REMSYN016 333 10307 58015
0114823970999991993041012004-03733-038550FM-12+001999999V0200901N00461012001CN0200001N9+02901+02431101261ADDAA106000091AG14000GF106991061081008001001001KA1240N+02441MA1999999100951MD1999999+0121REMSYN016 333 20244 58012
0095823970999991993041018004-03733-038550FM-12+001999999V0200901N00311220001CN0200001N9+02961+02351101031ADDAA106000091AG14000GF103991021021008001001011MA1999999100721MD1999999+0211REMSYN010 333 58021
0114823970999991993041100004-03733-038550FM-12+001999999V0200901N00151220001CN9999999N9+02641+02391101191ADDAA106000091AG14000GF101991011011008001001001KA1240M+03091MA1999999100881MD1999999+0081REMSYN016 333 10309 58008
0114823970999991993041112004-03733-038550FM-12+001999999V0201401N00311045001CN0200001N9+02761+02401101291ADDAA106000091AG14000GF107991031081008001051001KA1240N+02421MA1999999100981MD1999999-0031REMSYN016 333 20242 59003
0095823970999991993041118004-03733-038550FM-12+001999999V0200901N00461105001CN0200001N9+03001+02291100991ADDAA106000091AG14000GF107991011011008001001061MA1999999100681MD1999999-0041REMSYN010 333 59004
0114823970999991993041212004-03733-038550FM-12+001999999V0201401N00411220001CN0200001N9+02901+02021101281ADDAA106000091AG14000GF102991011011008001001051KA1240N+02421MA1999999100971MD1999999-0011REMSYN016 333 20242 59001
0095823970999991993041218004-03733-038550FM-12+001999999V0200901N00461220001CN0200001N9+02931+02261100921ADDAA106000091AG14000GF104991011011008001001061MA1999999100611MD1999999-0071REMSYN010 333 59007
0130823970999991993041300004-03733-038550FM-12+001999999V0200901N00151220001CN9999999N9+02701+02301101161ADDAA106000091AG14000GA1001+999999999GF100991001001999999001001KA1240M+03111MA1999999100851MD1999999-0011REMSYN016 333 10311 59001
0114823970999991993041312004-03733-038550FM-12+001999999V0201401N00361220001CN0200001N9+02911+01831101201ADDAA106000091AG14000GF102991021011008001001001KA1240N+02381MA1999999100891MD1999999-0081REMSYN016 333 20238 59008
0095823970999991993041318004-03733-038550FM-12+001999999V0200901N00621220001CN0200001N9+02951+02211100821ADDAA106000091AG14000GF101991011011008001001001MA1999999100511MD1999999-0101REMSYN010 333 59010
0114823970999991993041400004-03733-038550FM-12+001999999V0200901N00051220001CN9999999N9+02621+02311101061ADDAA106000091AG14000GF101991011011008001001001KA1240M+03051MA1999999100751MD1999999-0101REMSYN016 333 10305 59010
0114823970999991993041412004-03733-038550FM-12+001999999V0201401N00411012001CN0200001N9+02841+02351101121ADDAA106000091AG14000GF105991051081008001001001KA1240N+02381MA1999999100811MD1999999-0081REMSYN016 333 20238 59008
0095823970999991993041418004-03733-038550FM-12+001999999V0200901N00361220001CN0200001N9+02971+02371100831ADDAA106000091AG14000GF104991011011008001001011MA1999999100521MD1999999-0011REMSYN010 333 59001
0114823970999991993041500004-03733-038550FM-12+001999999V0200901N00151220001CN9999999N9+02701+02451101091ADDAA106000091AG14000GF104991041011008001001001KA1240M+03091MA1999999100781MD1999999+0031REMSYN016 333 10309 58003
0161823970999991993041512004-03733-038550FM-12+001999999V0200901N00211004201CN0010001N9+02601+02511101301ADDAA124015091AG10006AY161061AY221061GF108991081071004501999999KA1240N+02461MA1999999100991MD1999999+0181MW1611REMSYN022 333 20246 58018 60154EQDQ01+999990APOSP 
0134823970999991993041518004-03733-038550FM-12+001999999V0200901N00621220001CN0200001N9+02901+02431100941ADDAA106000891AA299001091AG10006AY161061AY221061GF104991021081008001051011MA1999999100631MD1999999+0111MW1011REMSYN016 333 58011 69981
0105823970999991993041600004-03733-038550FM-12+001999999V0200901N00151045001CN9999999N9+02591+02441101281ADDAG12000AY121061AY211061GF107991021011008001071001KA1240M+03011MA1999999100971MW1211REMSYN010 333 10301
0142823970999991993041612004-03733-038550FM-12+001999999V0200901N00211007501CN0010001N9+02491+02381101391ADDAA124032091AG10006AY161061AY231061GF108991081071008001999999KA1240N+02371MA1999999101081MD1999999+0091MW1621REMSYN022 333 20237 58009 60324
0114823970999991993041700004-03733-038550FM-12+001999999V0200501N00051045001CN9999999N9+02621+02421101221ADDAA106000091AG14000GF105991011011008001071001KA1240M+02951MA1999999100911MD1999999-0061REMSYN016 333 10295 59006
0131823970999991993041712004-03733-038550FM-12+001999999V0201401N00261045001CN0200001N9+02821+02301101211ADDAA124000791AA299001091AG10000GF106991041081008001061001KA1240N+02401MA1999999100901MD1999999-0181REMSYN022 333 20240 59018 69974
0095823970999991993041718004-03733-038550FM-12+001999999V0200501N00361105001CN0200001N9+02781+02421100851ADDAA106000091AG14000GF106991011081008001071061MA1999999100541MD1999999-0201REMSYN010 333 59020
0142823970999991993041800004-03733-038550FM-12+001999999V0201801N00151021001CN9999999N9+02521+02381101201ADDAA106000391AG10006AY161061AY221061GF106991061001022501071001KA1240M+03011MA1999999100891MD1999999-0021MW1031REMSYN022 333 10301 59002 69931
0120823970999991993041812004-03733-038550FM-12+001999999V0201801N00211105001CN0200001N9+02751+02541101041ADDAA124000391AG10000GF106991011011008001031061KA1240N+02341MA1999999100731MD1999999-0171REMSYN022 333 20234 59017 69934
0095823970999991993041818004-03733-038550FM-12+001999999V0200901N00411105001CN0200001N9+02861+02261100771ADDAA106000091AG14000GF106991021091008001071061MA1999999100461MD1999999-0081REMSYN010 333 59008
0114823970999991993041900004-03733-038550FM-12+001999999V0200501N00311045001CN9999999N9+02751+02401101101ADDAA106000091AG14000GF107991011011008001071001KA1240M+03001MA1999999100791MD1999999-0101REMSYN016 333 10300 59010
0114823970999991993042100004-03733-038550FM-12+001999999V0200901N00151220001CN9999999N9+02661+02391101321ADDAA106000091AG14000GF103991031021008001001001KA1240M+03031MA1999999101011MD1999999+0151REMSYN016 333 10303 58015
0114823970999991993042112004-03733-038550FM-12+001999999V0200401N00361220001CN0200001N9+02871+02321101291ADDAA106000091AG14000GF104991011011008001001041KA1240N+02381MA1999999100981MD1999999+0051REMSYN016 333 20238 58005
0095823970999991993042118004-03733-038550FM-12+001999999V0200901N00461220001CN0200001N9+02911+02321100981ADDAA106000091AG14000GF102991011011008001001011MA1999999100671MD1999999+0031REMSYN010 333 58003
0114823970999991993042200004-03733-038550FM-12+001999999V0200901N00211012001CN9999999N9+02681+02411101271ADDAA106000091AG14000GF105991051081008001001001KA1240M+03111MA1999999100961MD1999999-0051REMSYN016 333 10311 59005
0142823970999991993042218004-03733-038550FM-12+001999999V0200901N00151007501CN0010001N9+02701+02461101301ADDAA124009091AG10006AY161061AY221061GF108991081071008001999999KA1240N+02391MA1999999100991MD1999999+0011MW1611REMSYN022 333 20239 58001 60094
0114823970999991993042300004-03733-038550FM-12+001999999V0209991C00001220001CN9999999N9+02511+02451101211ADDAA106000091AG14000GF103991031021008001001001KA1240M+02721MA1999999100901MD1999999-0061REMSYN016 333 10272 59006
0142823970999991993042312004-03733-038550FM-12+001999999V0200901N00261045001CN0200001N9+02661+02431101301ADDAA124052091AG10006AY161061AY221061GF106991041051008001071001KA1240N+02231MA1999999100991MD1999999+0001MW1031REMSYN022 333 20223 58000 60524
0095823970999991993042318004-03733-038550FM-12+001999999V0200901N00511220001CN0200001N9+02881+02251100911ADDAA106000091AG14000GF106991011021008001001061MA1999999100601MD1999999-0051REMSYN010 333 59005
0130823970999991993042400004-03733-038550FM-12+001999999V0200901N00051220001CN9999999N9+02541+02351101111ADDAA106000091AG14000GA1001+999999999GF100991001001999999001001KA1240M+02991MA1999999100801MD1999999-0101REMSYN016 333 10299 59010
0114823970999991993042412004-03733-038550FM-12+001999999V0201401N00311012001CN0200001N9+02761+02441101261ADDAA106000091AG14000GF106991061081008001001001KA1240N+02361MA1999999100951MD1999999-0041REMSYN016 333 20236 59004
0095823970999991993042418004-03733-038550FM-12+001999999V0200501N00361220001CN0200001N9+02941+02311100891ADDAA106000091AG14000GF102991021011008001001001MA1999999100581MD1999999-0021REMSYN010 333 59002
0114823970999991993042500004-03733-038550FM-12+001999999V0200501N00051220001CN9999999N9+02641+02481101171ADDAA106000091AG14000GF103991031011008001001001KA1240M+03031MA1999999100861MD1999999+0061REMSYN016 333 10303 58006
0142823970999991993042512004-03733-038550FM-12+001999999V0201401N00411004201CN0010001N9+02501+02451101291ADDAA124023091AG10006AY161061AY221061GF108991081071004501999999KA1240N+02381MA1999999100981MD1999999+0031MW1511REMSYN022 333 20238 58003 60234
0123823970999991993042518004-03733-038550FM-12+001999999V0200501N00311004201CN0040001N9+02641+02501101041ADDAA106009091AG10006AY161061AY221061GF108991081071004501999999MA1999999100731MD1999999+0151MW1151REMSYN016 333 58015 60091
0142823970999991993042600004-03733-038550FM-12+001999999V0201401N00051045001CN9999999N9+02471+02391101141ADDAA106000591AG10006AY161061AY221061GF108991021011004501071999KA1240M+02671MA1999999100831MD1999999-0031MW1031REMSYN022 333 10267 59003 69951
0120823970999991993042612004-03733-038550FM-12+001999999V0200901N00361105001CN0200001N9+02901+02501101121ADDAA124010091AG10000GF106991031081008001001021KA1240N+02391MA1999999100811MD1999999-0171REMSYN022 333 20239 59017 60104
0095823970999991993042618004-03733-038550FM-12+001999999V0200901N00361220001CN0200001N9+02841+02421100791ADDAA106000091AG14000GF106991021081008001001061MA1999999100481MD1999999-0251REMSYN010 333 59025
0114823970999991993042700004-03733-038550FM-12+001999999V0200501N00311220001CN9999999N9+02701+02461101061ADDAA106000091AG14000GF106991041081008001001061KA1240M+03011MA1999999100751MD1999999-0081REMSYN016 333 10301 59008
0142823970999991993042712004-03733-038550FM-12+001999999V0200901N00311220001CN0200001N9+02931+02471101201ADDAA124002091AG10006AY161061AY251061GF105991041081008001001011KA1240N+02421MA1999999100891MD1999999+0081MW1031REMSYN022 333 20242 58008 60024
0095823970999991993042718004-03733-038550FM-12+001999999V0200901N00411105001CN0200001N9+02921+02411100861ADDAA106000091AG14000GF106991021011008001031061MA1999999100551MD1999999+0071REMSYN010 333 58007
0114823970999991993042800004-03733-038550FM-12+001999999V0200901N00151007501CN9999999N9+02661+02431101151ADDAA106000091AG14000GF105991051021008001001001KA1240M+03061MA1999999100841MD1999999+0091REMSYN016 333 10306 58009
0114823970999991993042812004-03733-038550FM-12+001999999V0200901N00311220001CN0200001N9+02911+02321101221ADDAA106000091AG14000GF104991041021008001001001KA1240N+02361MA1999999100911MD1999999+0021REMSYN016 333 20236 58002
0095823970999991993042818004-03733-038550FM-12+001999999V0200901N00411220001CN0200001N9+02951+02351100891ADDAA106000091AG14000GF102991011011008001031001MA1999999100581MD1999999+0031REMSYN010 333 58003
0114823970999991993042900004-03733-038550FM-12+001999999V0200901N00211045001CN9999999N9+02681+02391101121ADDAA106000091AG14000GF105991041021008001031001KA1240M+03051MA1999999100811MD1999999-0031REMSYN016 333 10305 59003
0142823970999991993042912004-03733-038550FM-12+001999999V0201401N00411012001CN0200001N9+02861+02371101131ADDAA124000191AG10001AY151061AY221061GF106991061081008001001001KA1240N+02421MA1999999100821MD1999999-0091MW1021REMSYN022 333 20242 59009 69914
0095823970999991993042918004-03733-038550FM-12+001999999V0200501N00461220001CN0200001N9+02951+02331100801ADDAA106000091AG14000GF101991011011008001001001MA1999999100491MD1999999-0091REMSYN010 333 59009
0130823970999991993043000004-03733-038550FM-12+001999999V0209991C00001220001CN9999999N9+02631+02411101011ADDAA106000091AG14000GA1001+999999999GF100991001001999999001001KA1240M+03041MA1999999100701MD1999999-0111REMSYN016 333 10304 59011
0153823970999991993043012004-03733-038550FM-12+001999999V0200901N00311220001CN0200001N9+02891+02271101061ADDAA124000891AA299001091AG10006AY161061AY221061GF104991041011008001001001KA1240N+02241MA1999999100751MD1999999-0071MW1031REMSYN022 333 20224 59007 69984
0134823970999991993043018004-03733-038550FM-12+001999999V0200901N00511220001CN0200001N9+02921+02291100781ADDAA106000291AA299000191AG10001AY151061AY211061GF102991011011008001001011MA1999999100471MD1999999-0021MW1011REMSYN016 333 59002 69921
0114823970999991993050100004-03733-038550FM-12+001999999V0200901N00261045001CN9999999N9+02751+02401101061ADDAA106000091AG14000GF105991041011008001031001KA1240M+03051MA1999999100751MD1999999+0051REMSYN016 333 10305 58005
0153823970999991993050112004-03733-038550FM-12+001999999V0201401N00361012001CN0200001N9+02731+02471101181ADDAA106000091AA224007091AG10005AY161061AY221061GF106991061081008001001001KA1240N+02421MA1999999100871MD1999999+0121MW1021REMSYN022 333 20242 58012 60074
0095823970999991993050118004-03733-038550FM-12+001999999V0200901N00311105001CN0200001N9+02901+02391100851ADDAA106000091AG14000GF106991011011008001031061MA1999999100541MD1999999+0171REMSYN010 333 58017
0142823970999991993050200004-03733-038550FM-12+001999999V0201401N00151045001CN0200001N9+02601+02421101271ADDAA124006091AG10005AY161061AY221061GF108991031051008001071999KA1240N+02361MA1999999100961MD1999999+0091MW1021REMSYN022 333 20236 58009 60064
0142823970999991993050212004-03733-038550FM-12+001999999V0201401N00151045001CN0200001N9+02601+02421101271ADDAA124006091AG10005AY161061AY221061GF108991031051008001071999KA1240N+02361MA1999999100961MD1999999+0091MW1021REMSYN022 333 20236 58009 60064
0123823970999991993050218004-03733-038550FM-12+001999999V0200501N00361045001CN0200001N9+02901+02411100891ADDAA106004091AG10005AY161061AY221061GF107991021081008001071061MA1999999100581MD1999999+0041MW1021REMSYN016 333 58004 60041
0114823970999991993050300004-03733-038550FM-12+001999999V0209991C00001220001CN9999999N9+02531+02421101221ADDAA106000091AG14000GF102991011011008001001011KA1240M+02951MA1999999100911MD1999999+0081REMSYN016 333 10295 58008
0142823970999991993050312004-03733-038550FM-12+001999999V0200901N00151012001CN0200001N9+02801+02501101251ADDAA124005091AG10005AY161061AY221061GF106991061081008001001001KA1240N+02321MA1999999100941MD1999999-0021MW1011REMSYN022 333 20232 59002 60054
0095823970999991993050318004-03733-038550FM-12+001999999V0200501N00361105001CN0200001N9+02921+02451100901ADDAA106000091AG14000GF106991031011008001001051MA1999999100591MD1999999+0011REMSYN010 333 58001
0114823970999991993050400004-03733-038550FM-12+001999999V0200901N00151220001CN9999999N9+02631+02411101121ADDAA106000091AG14000GF103991021011008001001011KA1240M+03021MA1999999100811MD1999999-0101REMSYN016 333 10302 59010
0142823970999991993050412004-03733-038550FM-12+001999999V0201401N00151045001CN0200001N9+02701+02481101181ADDAA124002091AG10000AY121061AY221061GF106991031081008001061051KA1240N+02361MA1999999100871MD1999999-0071MW1211REMSYN022 333 20236 59007 60024
0095823970999991993050418004-03733-038550FM-12+001999999V0200501N00361045001CN0200001N9+02941+02361100831ADDAA106000091AG14000GF105991021011008001031051MA1999999100521MD1999999-0071REMSYN010 333 59007
0114823970999991993050500004-03733-038550FM-12+001999999V0200901N00101220001CN9999999N9+02621+02441101181ADDAA106000091AG14000GF103991011011008001001011KA1240M+02981MA1999999100871MD1999999+0061REMSYN016 333 10298 58006
0114823970999991993050512004-03733-038550FM-12+001999999V0200901N00261045001CN0200001N9+02811+02521101311ADDAA106000091AG14000GF106991041081008001031001KA1240N+02501MA1999999101001MD1999999+0131REMSYN016 333 20250 58013
0095823970999991993050518004-03733-038550FM-12+001999999V0200901N00361045001CN0200001N9+02971+02331100851ADDAA106000091AG14000GF106991011011008001051001MA1999999100541MD1999999+0021REMSYN010 333 58002
0114823970999991993050600004-03733-038550FM-12+001999999V0200901N00151012001CN9999999N9+02731+02451101141ADDAA106000091AG14000GF106991061081008001001001KA1240M+03111MA1999999100831MD1999999-0041REMSYN016 333 10311 59004
0114823970999991993050612004-03733-038550FM-12+001999999V0201401N00511007501CN0200001N9+02831+02331101261ADDAA106000091AG14000GF106991051021008001001041KA1240N+02541MA1999999100951MD1999999-0051REMSYN016 333 20254 59005
0095823970999991993050618004-03733-038550FM-12+001999999V0200901N00571220001CN0200001N9+03001+02291100811ADDAA106000091AG14000GF102991011011008001001061MA1999999100501MD1999999-0041REMSYN010 333 59004
0130823970999991993050700004-03733-038550FM-12+001999999V0200901N00051220001CN9999999N9+02671+02371101021ADDAA106000091AG14000GA1001+999999999GF100991001001999999001001KA1240M+03111MA1999999100711MD1999999-0121REMSYN016 333 10311 59012
0114823970999991993050712004-03733-038550FM-12+001999999V0201401N00151012001CN0200001N9+02851+02421101131ADDAA106000091AG14000GF105991051081008001001001KA1240N+02341MA1999999100821MD1999999-0131REMSYN016 333 20234 59013
0095823970999991993050718004-03733-038550FM-12+001999999V0200901N00461220001CN0200001N9+02961+02231100781ADDAA106000091AG14000GF101991011011008001001001MA1999999100471MD1999999-0031REMSYN010 333 59003
0130823970999991993050800004-03733-038550FM-12+001999999V0200901N00101220001CN9999999N9+02701+02371101021ADDAA106000091AG14000GA1001+999999999GF100991001001999999001001KA1240M+03071MA1999999100711MD1999999+0001REMSYN016 333 10307 58000
0114823970999991993050812004-03733-038550FM-12+001999999V0201401N00361045001CN0200001N9+02781+02211101081ADDAA106000091AG14000GF107991011011008001051001KA1240N+02421MA1999999100771MD1999999-0051REMSYN016 333 20242 59005
0095823970999991993050818004-03733-038550FM-12+001999999V0200901N00621220001CN0200001N9+03021+02181100791ADDAA106000091AG14000GF102991011011008001041001MA1999999100481MD1999999+0011REMSYN010 333 58001
0130823970999991993050900004-03733-038550FM-12+001999999V0201401N00051220001CN9999999N9+02611+02411100991ADDAA106000091AG14000GA1001+999999999GF100991001001999999001001KA1240M+03121MA1999999100681MD1999999-0031REMSYN016 333 10312 59003
0114823970999991993050912004-03733-038550FM-12+001999999V0201401N00311007501CN0200001N9+02901+02321101011ADDAA106000091AG14000GF105991051011008001001001KA1240N+02401MA1999999100701MD1999999-0071REMSYN016 333 20240 59007
0095823970999991993050918004-03733-038550FM-12+001999999V0200901N00461220001CN0200001N9+03001+02291100651ADDAA106000091AG14000GF102991021021008001001001MA1999999100341MD1999999-0141REMSYN010 333 59014
0130823970999991993051000004-03733-038550FM-12+001999999V0200901N00101220001CN9999999N9+02711+02471100861ADDAA106000091AG14000GA1001+999999999GF100991001001999999001001KA1240M+03161MA1999999100551MD1999999-0131REMSYN016 333 10316 59013
0095823970999991993051018004-03733-038550FM-12+001999999V0200901N00411105001CN0200001N9+02981+02351100601ADDAA106000091AG14000GF105991011011008001041041MA1999999100291MD1999999-0051REMSYN010 333 59005
0114823970999991993051100004-03733-038550FM-12+001999999V0200901N00311045001CN9999999N9+02781+02421100871ADDAA106000091AG14000GF105991031011008001031001KA1240M+03161MA1999999100561MD1999999+0011REMSYN016 333 10316 58001
0114823970999991993051112004-03733-038550FM-12+001999999V0200901N00361105001CN0200001N9+02901+02121100981ADDAA106000091AG14000GF106991011011008001031061KA1240N+02481MA1999999100671MD1999999+0021REMSYN016 333 20248 58002
0095823970999991993051118004-03733-038550FM-12+001999999V0200901N00411045001CN0200001N9+02951+02261100711ADDAA106000091AG14000GF107991041051008001071001MA1999999100401MD1999999+0111REMSYN010 333 58011
0130823970999991993051200004-03733-038550FM-12+001999999V0200901N00101220001CN9999999N9+02721+02451100981ADDAA106000091AG14000GA1001+999999999GF100991001001999999001001KA1240M+03051MA1999999100671MD1999999+0111REMSYN016 333 10305 58011
0114823970999991993051212004-03733-038550FM-12+001999999V0200901N00361045001CN0200001N9+02901+02301101061ADDAA106000091AG14000GF106991021011008001051001KA1240N+02491MA1999999100751MD1999999+0081REMSYN016 333 20249 58008
0095823970999991993051218004-03733-038550FM-12+001999999V0200901N00511220001CN0200001N9+02981+02301100731ADDAA106000091AG14000GF101991011011008001001001MA1999999100421MD1999999+0021REMSYN010 333 58002
0114823970999991993051312004-03733-038550FM-12+001999999V0200901N00361012001CN0200001N9+02801+02361101121ADDAA106000091AG14000GF106991061081008001001001KA1240N+02421MA1999999100811MD1999999+0061REMSYN016 333 20242 58006
0095823970999991993051318004-03733-038550FM-12+001999999V0200901N00411220001CN0200001N9+02971+02201100741ADDAA106000091AG14000GF102991011011008001051001MA1999999100431MD1999999+0011REMSYN010 333 58001
0130823970999991993051400004-03733-038550FM-12+001999999V0201801N00151220001CN9999999N9+02571+02331100971ADDAA106000091AG14000GA1001+999999999GF100991001001999999001001KA1240M+03051MA1999999100661MD1999999-0041REMSYN016 333 10305 59004
0130823970999991993052500004-03733-038550FM-12+001999999V0200901N00051220001CN9999999N9+02681+02391101141ADDAA106000091AG14000GA1001+999999999GF100991001001999999001001KA1240M+03031MA1999999100831MD1999999-0041REMSYN016 333 10303 59004
0114823970999991993052512004-03733-038550FM-12+001999999V0201401N00311220001CN0200001N9+02861+02231101191ADDAA106000091AG14000GF101991011011008001001001KA1240N+02331MA1999999100881MD1999999-0031REMSYN016 333 20233 59003
0114823970999991993060300004-03733-038550FM-12+001999999V0200901N00311012001CN9999999N9+02721+02321101471ADDAA106000091AG14000GF106991061081008001001001KA1240M+03041MA1999999101161MD1999999-0071REMSYN016 333 10304 59007
0130823970999991993060312004-03733-038550FM-12+001999999V0201401N00361220001CN0200001N9+02791+01981101541ADDAA106000091AG14000GA1001+999999999GF100991001001999999001001KA1240N+02381MA1999999101231MD1999999+0091REMSYN016 333 20238 58009
0095823970999991993060318004-03733-038550FM-12+001999999V0200901N00571220001CN0200001N9+02921+02171101131ADDAA106000091AG14000GF101991011011008001001001MA1999999100821MD1999999-0141REMSYN010 333 59014
0114823970999991993060400004-03733-038550FM-12+001999999V0200901N00151220001CN9999999N9+02701+02261101431ADDAA106000091AG14000GF103991031011008001001001KA1240M+03111MA1999999101121MD1999999-0041REMSYN016 333 10311 59004
0095823970999991993060418004-03733-038550FM-12+001999999V0200901N00461220001CN0200001N9+02921+02191101151ADDAA106000091AG14000GF101991011011008001001001MA1999999100841MD1999999+0021REMSYN010 333 58002
0130823970999991993060512004-03733-038550FM-12+001999999V0200901N00361220001CN0200001N9+02831+01881101481ADDAA106000091AG14000GA1001+999999999GF100991001001999999001001KA1240N+02291MA1999999101171MD1999999-0051REMSYN016 333 20229 59005
0095823970999991993060518004-03733-038550FM-12+001999999V0200901N00671220001CN0200001N9+02881+02131101151ADDAA106000091AG14000GF101991011011008001001001MA1999999100841MD1999999+0001REMSYN010 333 58000
0114823970999991993060600004-03733-038550FM-12+001999999V0200901N00101220001CN9999999N9+02491+02231101371ADDAA106000091AG14000GF101991011011008001001001KA1240M+03011MA1999999101061MD1999999-0051REMSYN016 333 10301 59005
0114823970999991993060612004-03733-038550FM-12+001999999V0201401N00461220001CN0200001N9+02821+02051101451ADDAA106000091AG14000GF103991031011008001001001KA1240N+02321MA1999999101141MD1999999-0031REMSYN016 333 20232 59003
0095823970999991993060618004-03733-038550FM-12+001999999V0200901N00511220001CN0200001N9+02971+02011101071ADDAA106000091AG14000GF101991011011008001001001MA1999999100761MD1999999-0081REMSYN010 333 59008
0153823970999991993060712004-03733-038550FM-12+001999999V0200901N00361220001CN0200001N9+02861+02111101351ADDAA124000691AA299000591AG10005AY161061AY221061GF103991031011008001001001KA1240N+02321MA1999999101041MD1999999-0101MW1011REMSYN022 333 20232 59010 69964
0095823970999991993060718004-03733-038550FM-12+001999999V0200501N00511220001CN0200001N9+02981+02201100991ADDAA106000091AG14000GF102991011011008001001011MA1999999100681MD1999999-0081REMSYN010 333 59008
0114823970999991993060800004-03733-038550FM-12+001999999V0200901N00051220001CN9999999N9+02621+02391101241ADDAA106000091AG14000GF103991031011008001001001KA1240M+03111MA1999999100931MD1999999-0161REMSYN016 333 10311 59016
0095823970999991993060812004-03733-038550FM-12+001999999V0201401N002619999999N0200001N9+02751+01911101281ADDAA106000091AG14000GF106991041001008001051061MA1999999100971MD1999999-0071REMSYN010 333 59007
0095823970999991993060818004-03733-038550FM-12+001999999V0200901N00671220001CN0200001N9+02961+01871100991ADDAA106000091AG14000GF106991011011008001001061MA1999999100681MD1999999+0001REMSYN010 333 58000
0114823970999991993060900004-03733-038550FM-12+001999999V0200901N00311220001CN9999999N9+02681+02391101261ADDAA106000091AG14000GF102991021011008001001001KA1240M+03151MA1999999100951MD1999999+0021REMSYN016 333 10315 58002
0114823970999991993060912004-03733-038550FM-12+001999999V0200901N00461007501CN0200001N9+02851+02161101241ADDAA106000091AG14000GF106991051011008001031061KA1240N+02401MA1999999100931MD1999999-0041REMSYN016 333 20240 59004
0095823970999991993060918004-03733-038550FM-12+001999999V0200901N00621045001CN0200001N9+02781+02161100951ADDAA106000091AG14000GF108991041051008001071999MA1999999100641MD1999999-0041REMSYN010 333 59004
0114823970999991993061000004-03733-038550FM-12+001999999V0200901N00311045001CN9999999N9+02711+02371101181ADDAA106000091AG14000GF107991021011008001071001KA1240M+03071MA1999999100871MD1999999-0081REMSYN016 333 10307 59008
0142823970999991993061012004-03733-038550FM-12+001999999V0201801N00311007501CN0005001N9+02421+02371101331ADDAA124012091AG10005AY161061AY221061GF108991081071008001999999KA1240N+02371MA1999999101021MD1999999+0091MW1611REMSYN022 333 20237 58009 60124
0123823970999991993061018004-03733-038550FM-12+001999999V0200901N00411045001CN0200001N9+02741+02451101101ADDAA106013091AG10005AY161061AY221061GF107991041081008001071001MA1999999100791MD1999999+0151MW1021REMSYN016 333 58015 60131
0114823970999991993061100004-03733-038550FM-12+001999999V0200901N00311007501CN9999999N9+02671+02431101341ADDAA106000091AG14000GF107991071051008001001001KA1240M+02781MA1999999101031MD1999999+0161REMSYN016 333 10278 58016
0142823970999991993061112004-03733-038550FM-12+001999999V0201401N00361012001CN0200001N9+02741+02381101481ADDAA124018091AG10005AY161061AY221061GF106991061081008001001041KA1240N+02321MA1999999101171MD1999999+0151MW1011REMSYN022 333 20232 58015 60184
0095823970999991993061118004-03733-038550FM-12+001999999V0200901N00411220001CN0200001N9+02961+02231101141ADDAA106000091AG14000GF101991011011008001001001MA1999999100831MD1999999+0041REMSYN010 333 58004
0114823970999991993061200004-03733-038550FM-12+001999999V0200901N00051007501CN9999999N9+02601+02421101331ADDAA106000091AG14000GF106991061011008001001001KA1240M+03011MA1999999101021MD1999999-0011REMSYN016 333 10301 59001
0114823970999991993061212004-03733-038550FM-12+001999999V0200901N00051007501CN9999999N9+02601+02421101331ADDAA106000091AG14000GF106991061011008001001001KA1240M+03011MA1999999101021MD1999999-0011REMSYN016 333 10301 59001
0095823970999991993061218004-03733-038550FM-12+001999999V0200901N00361220001CN0200001N9+02941+02361100941ADDAA106000091AG14000GF101991011011008001001001MA1999999100631MD1999999-0021REMSYN010 333 59002
0142823970999991993061312004-03733-038550FM-12+001999999V0200901N00361045001CN0200001N9+02781+02111101361ADDAA124000391AG10005AY161061AY211061GF105991011011008001051001KA1240N+02391MA1999999101051MD1999999-0011MW1011REMSYN022 333 20239 59001 69934
0095823970999991993061318004-03733-038550FM-12+001999999V0200501N004119999999N0200001N9+02851+02061101031ADDAA106000091AG14000GF106991061001008001051001MA1999999100721MD1999999+0091REMSYN010 333 58009
0114823970999991993061412004-03733-038550FM-12+001999999V0201401N00511045001CN0200001N9+02801+02151101391ADDAA106000091AG14000GF106991031011008001031001KA1240N+02301MA1999999101081MD1999999+0031REMSYN016 333 20230 58003
0095823970999991993061418004-03733-038550FM-12+001999999V0200901N00621220001CN0200001N9+02891+02171101071ADDAA106000091AG14000GF106991011011008001001061MA1999999100761MD1999999+0041REMSYN010 333 58004
0114823970999991993061500004-03733-038550FM-12+001999999V0200901N00211012001CN9999999N9+02641+02331101361ADDAA106000091AG14000GF106991061081008001001001KA1240M+03011MA1999999101051MD1999999+0041REMSYN016 333 10301 58004
0114823970999991993061512004-03733-038550FM-12+001999999V0201401N00511007501CN0200001N9+02811+02001101511ADDAA106000091AG14000GF106991051011008001031001KA1240N+02451MA1999999101201MD1999999+0121REMSYN016 333 20245 58012
0095823970999991993061518004-03733-038550FM-12+001999999V0200501N00511220001CN0200001N9+02861+02161101171ADDAA106000091AG14000GF101991011011008001001001MA1999999100861MD1999999+0101REMSYN010 333 58010
0095823970999991993061618004-03733-038550FM-12+001999999V0200901N00461220001CN0200001N9+02951+01871101131ADDAA106000091AG14000GF101991011011008001001001MA1999999100821MD1999999-0041REMSYN010 333 59004
0114823970999991993061712004-03733-038550FM-12+001999999V0200901N00361220001CN0200001N9+02761+02041101401ADDAA106000091AG14000GF103991031011008001001001KA1240N+02241MA1999999101091MD1999999-0121REMSYN016 333 20224 59012
0095823970999991993061718004-03733-038550FM-12+001999999V0200501N00571220001CN0200001N9+02941+02191101071ADDAA106000091AG14000GF101991011011008001001001MA1999999100761MD1999999-0061REMSYN010 333 59006
0153823970999991993061812004-03733-038550FM-12+001999999V0201401N00571220001CN0200001N9+99999+99999101521ADDAA124000291AA299000191AG10000AY151061AY221061GF102991021081008001001001KA1240N+02301MA1999999101211MD1999999+0121MW1011REMSYN022 333 20230 58012 69924
0095823970999991993061918004-03733-038550FM-12+001999999V0200501N00461045001CN0200001N9+02861+02231101141ADDAA106000091AG14000GF107991011011008001071001MA1999999100831MD1999999-0011REMSYN010 333 59001
0114823970999991993062012004-03733-038550FM-12+001999999V0201401N00361012001CN0200001N9+02761+02301101531ADDAA106000091AG14000GF106991061081008001001001KA1240N+02381MA1999999101221MD1999999+0001REMSYN016 333 20238 58000
0095823970999991993062018004-03733-038550FM-12+001999999V0200901N00571045001CN0200001N9+02831+02191101151ADDAA106000091AG14000GF106991021021008001051001MA1999999100841MD1999999+0011REMSYN010 333 58001
0095823970999991993062218004-03733-038550FM-12+001999999V0200901N00461105001CN0200001N9+02901+02101101201ADDAA106000091AG14000GF106991011011008001051061MA1999999100891MD1999999+0041REMSYN010 333 58004
0114823970999991993062312004-03733-038550FM-12+001999999V0200901N00261220001CN9999999N9+02651+02331101421ADDAA106000091AG14000GF102991021081022501031001KA1240M+03061MA1999999101111MD1999999-0051REMSYN016 333 10306 59005
0095823970999991993062318004-03733-038550FM-12+001999999V0200901N00461220001CN0200001N9+02971+02091101161ADDAA106000091AG14000GF101991011011008001001001MA1999999100851MD1999999-0041REMSYN010 333 59004
0095823970999991993062418004-03733-038550FM-12+001999999V0200901N00511220001CN0200001N9+02961+02181101101ADDAA106000091AG14000GF101991011011008001001001MA1999999100791MD1999999-0061REMSYN010 333 59006
0130823970999991993062500004-03733-038550FM-12+001999999V0200901N00151220001CN9999999N9+02641+02251101301ADDAA106000091AG14000GA1001+999999999GF100991001001999999001001KA1240M+03141MA1999999100991MD1999999+0001REMSYN016 333 10314 58000
0114823970999991993062512004-03733-038550FM-12+001999999V0201401N00311220001CN0200001N9+02781+01961101441ADDAA106000091AG14000GF101991011011008001001001KA1240N+02251MA1999999101131MD1999999+0001REMSYN016 333 20225 58000
0114823970999991993062612004-03733-038550FM-12+001999999V0201401N00511220001CN0200001N9+02821+01771101421ADDAA106000091AG14000GF101991011011008001001001KA1240N+02291MA1999999101111MD1999999-0021REMSYN016 333 20229 59002
0095823970999991993062618004-03733-038550FM-12+001999999V0200901N00571220001CN0200001N9+02911+02061101061ADDAA106000091AG14000GF101991011011008001051001MA1999999100751MD1999999-0011REMSYN010 333 59001
0142823970999991993062712004-03733-038550FM-12+001999999V0200901N00261012001CN0200001N9+02661+02431101421ADDAA124013091AG10005AY161061AY221061GF107991071081008001001001KA1240N+02251MA1999999101111MD1999999+0001MW1201REMSYN022 333 20225 58000 60134
0114823970999991993062812004-03733-038550FM-12+001999999V0200901N00311007501CN0200001N9+02741+02171101441ADDAA106000091AG14000GF105991051021008001001001KA1240N+02251MA1999999101131MD1999999+0021REMSYN016 333 20225 58002
0095823970999991993062818004-03733-038550FM-12+001999999V0200501N00621220001CN0200001N9+02871+02161101121ADDAA106000091AG14000GF101991011011008001001001MA1999999100811MD1999999+0041REMSYN010 333 58004
0114823970999991993062912004-03733-038550FM-12+001999999V0200901N00261012001CN0200001N9+02771+02251101401ADDAA106000091AG14000GF105991051081008001001001KA1240N+02311MA1999999101091MD1999999-0041REMSYN016 333 20231 59004
0095823970999991993062918004-03733-038550FM-12+001999999V0200901N00571220001CN0200001N9+02861+02161101101ADDAA106000091AG14000GF101991011011008001001001MA1999999100791MD1999999-0021REMSYN010 333 59002
0114823970999991993063012004-03733-038550FM-12+001999999V0200901N00211012001CN0200001N9+02761+02281101441ADDAA106000091AG14000GF106991051081008001051001KA1240N+02381MA1999999101131MD1999999+0041REMSYN016 333 20238 58004
0095823970999991993063018004-03733-038550FM-12+001999999V0200901N00311220001CN0200001N9+02901+02201101121ADDAA106000091AG14000GF102991011011008001051001MA1999999100811MD1999999+0021REMSYN010 333 58002
0095823970999991993070118004-03733-038550FM-12+001999999V0200901N00511220001CN0200001N9+02881+02321101101ADDAA106000091AG14000GF102991021011008001001001MA1999999100791MD1999999-0021REMSYN010 333 59002
0130823970999991993070312004-03733-038550FM-12+001999999V0209999999999220001CN9999999N9+02481+02251101261ADDAA106000091AG14000GA1001+999999999GF100991001001999999001001KA1240M+03011MA1999999100951MD1999999-0051REMSYN016 333 10301 59005
0095823970999991993070418004-03733-038550FM-12+001999999V0200901N00511220001CN0200001N9+02851+02231101141ADDAA106000091AG14000GF101991011011008001001001MA1999999100831MD1999999+0031REMSYN010 333 58003
0095823970999991993070618004-03733-038550FM-12+001999999V0200901N00511220001CN0200001N9+02881+01971100991ADDAA106000091AG14000GF101991011011008001001001MA1999999100681MD1999999-0161REMSYN010 333 59016
0114823970999991993070712004-03733-038550FM-12+001999999V0200901N00461220001CN0200001N9+02811+02001101411ADDAA106000091AG14000GF102991021011008001001001KA1240N+02301MA1999999101101MD1999999+0051REMSYN016 333 20230 58005
0095823970999991993070718004-03733-038550FM-12+001999999V0200901N00571220001CN0200001N9+02861+02111101081ADDAA106000091AG14000GF101991011011008001001001MA1999999100711MD1999999+0031REMSYN010 333 58003
0114823970999991993070800004-03733-038550FM-12+001999999V0200901N00311220001CN9999999N9+02621+02251101251ADDAA106000091AG14000GF104991041081008001001001KA1240M+02981MA1999999100941MD1999999-0021REMSYN016 333 10298 59002
0114823970999991993070812004-03733-038550FM-12+001999999V0200901N00411012001CN0200001N9+02761+02191101411ADDAA106000091AG14000GF106991061081008001001001KA1240N+02361MA1999999101101MD1999999+0001REMSYN016 333 20236 58000
0095823970999991993070818004-03733-038550FM-12+001999999V0200501N00461220001CN0200001N9+02841+02091101081ADDAA106000091AG14000GF101991011011008001001001MA1999999100771MD1999999+0061REMSYN010 333 58006
0095823970999991993070819004-03733-038550FM-12+001999999V0200501N00461220001CN0200001N9+02841+02091101081ADDAA106000091AG14999GF101991011011008001001001MA1999999100771MD1999999+0061REMSYN010 333 58006
0133823970999991993070900004-03733-038550FM-12+001999999V0200901N002119999999N9999999N9+02641+02271101301ADDAA106000091AG14000GF106991999011008001001001KA1240M+02961MA1999999100991MD1999999+0051REMSYN016 333 10296 58005EQDQ01+000012SCOTLC
0114823970999991993070912004-03733-038550FM-12+001999999V0201401N00361012001CN0200001N9+02571+02331101481ADDAA106000091AG14000GF107991071081008001001001KA1240N+02431MA1999999101171MD1999999+0071REMSYN016 333 20243 58007
0123823970999991993070918004-03733-038550FM-12+001999999V0200901N00361220001CN0200001N9+02881+02301101201ADDAA106001091AG10000AY151061AY211061GF101991011011008001001001MA1999999100891MD1999999+0121MW1011REMSYN016 333 58012 60011
0142823970999991993071012004-03733-038550FM-12+001999999V0201401N00311007501CN0010001N9+02321+02271101511ADDAA124086091AG10005AY161061AY221061GF108991081071008001999999KA1240N+02251MA1999999101201MD1999999+0031MW1631REMSYN022 333 20225 58003 60864
0142823970999991993071018004-03733-038550FM-12+001999999V0200501N00411220001CN0010001N9+02401+02301101361ADDAA106010091AG10005AY161061AY221061GF101991999071004501999999MA1999999101051MD1999999+0161MW1511REMSYN016 333 58016 60101EQDQ01+000082SCOTLC
0142823970999991993071112004-03733-038550FM-12+001999999V0201401N00311220001CN0200001N9+02681+01921101381ADDAA124039091AG10005AY161061AY221061GF102991011011008001051001KA1240N+02291MA1999999101071MD1999999-0131MW1011REMSYN022 333 20229 59013 60394
0131823970999991993071212004-03733-038550FM-12+001999999V0201401N00361007501CN0100001N9+02371+02281101531ADDAA106000091AA224002091AG10005GF108991081071008001999999KA1240N+02231MA1999999101221MD1999999+0151REMSYN022 333 20223 58015 60024
0123823970999991993071218004-03733-038550FM-12+001999999V0200901N00511220001CN0200001N9+02741+02261101181ADDAA106003091AG10005AY161061AY211061GF102991011011008001051001MA1999999100871MD1999999+0161MW1011REMSYN016 333 58016 60031
0149823970999991993071312004-03733-038550FM-12+001999999V0200901N00051220001CN9999999N9+02401+02301101381ADDAA106000091AG14000GA1001+999999999GF100991001001999999001001KA1240M+99999MA1999999101071MD1999999+0091REMSYN016 333 10228 58009EQDQ01 +02282ATMX  
0095823970999991993071318004-03733-038550FM-12+001999999V0200901N00411045001CN0200001N9+02821+02291101291ADDAA106000091AG14000GF105991041021008001051001MA1999999100981MD1999999+0111REMSYN010 333 58011
0114823970999991993071400004-03733-038550FM-12+001999999V0201401N00261045001CN9999999N9+02411+02211101561ADDAA106000091AG14000GF108991021081008001071999KA1240M+02951MA1999999101251MD1999999+0181REMSYN016 333 10295 58018
0142823970999991993071412004-03733-038550FM-12+001999999V0201401N00361220001CN0200001N9+02611+02161101741ADDAA124016091AG10005AY161061AY211061GF104991011011008001031001KA1240N+02231MA1999999101431MD1999999+0131MW1011REMSYN022 333 20223 58013 60164
0095823970999991993071518004-03733-038550FM-12+001999999V0200901N00411220001CN0200001N9+02821+02021101191ADDAA106000091AG14000GF101991011011008001001001MA1999999100881MD1999999-0111REMSYN010 333 59011
0114823970999991993071612004-03733-038550FM-12+001999999V0201401N00361220001CN0200001N9+02691+01911101551ADDAA106000091AG14000GF101991011011008001001001KA1240N+02311MA1999999101241MD1999999+0061REMSYN016 333 20231 58006
0114823970999991993071618004-03733-038550FM-12+001999999V0200901N00361220001CN0040001N9+02891+02151101171ADDAA106000091AG14000GF101991999021008001001001MA1999999100861MD1999999-0021REMSYN010 333 59002EQDQ01+000022SCOTLC
0111823970999991993071718004-03733-038550FM-12+001999999V0200901N00511220001CN0200001N9+02181+01831101211ADDAA106000091AG14000GA1001+999999999GF100991001001999999001001MA1999999100901MD1999999+0041REMSYN010 333 58004
0095823970999991993071818004-03733-038550FM-12+001999999V0200901N00461220001CN0500001N9+02921+01951101261ADDAA106000091AG14000GF101991011011008001001001MA1999999100951MD1999999+0051REMSYN010 333 58005
0114823970999991993071912004-03733-038550FM-12+001999999V0201801N00461220001CN0200001N9+02711+01951101671ADDAA106000091AG14000GF101991011011008001001001KA1240N+02151MA1999999101361MD1999999-0021REMSYN016 333 20215 59002
0095823970999991993071918004-03733-038550FM-12+001999999V0200901N00511220001CN0200001N9+02901+02151100921ADDAA106000091AG14000GF101991011011008001001001MA1999999100921MD1999999-0031REMSYN010 333 59003
0130823970999991993072012004-03733-038550FM-12+001999999V0201401N00411220001CN0200001N9+02611+01781101571ADDAA106000091AG14000GA1001+999999999GF100991001001999999001001KA1240N+02181MA1999999101261MD1999999-0101REMSYN016 333 20218 59010
0111823970999991993072018004-03733-038550FM-12+001999999V0200901N00571220001CN0200001N9+02761+02091101321ADDAA106000091AG14000GA1001+999999999GF100991001001999999001001MA1999999101011MD1999999+0091REMSYN010 333 58009
0134823970999991993072118004-03733-038550FM-12+001999999V0200501N00461220001CN0200001N9+02741+02211101271ADDAA106000991AA299001091AG10005AY161061AY221061GF103991031081008001001001MA1999999100961MD1999999-0051MW1011REMSYN016 333 59005 69991
0103823970999991993072212004-03733-038550FM-12+001999999V0201401N00361220001CN0200001N9+02801+01871101531ADDAG12000GF104991011011008001031001KA1240N+02351MA1999999101221MD1999999+0021REMSYN016 333 20235 58002
0095823970999991993072218004-03733-038550FM-12+001999999V0200901N00511220001CN0200001N9+02851+02191101241ADDAA106000091AG14000GF103991011011008001031001MA1999999100931MD1999999-0031REMSYN010 333 59003
0095823970999991993072518004-03733-038550FM-12+001999999V0200901N00461220001CN0200001N9+02921+02911101081ADDAA106000091AG14000GF101991011011008001001001MA1999999100771MD1999999-0161REMSYN010 333 59016
0114823970999991993072612004-03733-038550FM-12+001999999V0201401N00361220001CN0200001N9+02781+02061101411ADDAA106000091AG14000GF101991011011008001001001KA1240N+02201MA1999999101101MD1999999+0001REMSYN016 333 20220 58000
0095823970999991993072718004-03733-038550FM-12+001999999V0200901N00411220001CN0200001N9+02881+02131101191ADDAA106000091AG14000GF101991011011008001001001MA1999999100881MD1999999+0101REMSYN010 333 58010
0114823970999991993072812004-03733-038550FM-12+001999999V0201401N00461220001CN0200001N9+02811+02051101661ADDAA106000091AG14000GF101991011011008001001001KA1240N+02341MA1999999101351MD1999999+0131REMSYN016 333 20234 58013
0111823970999991993072818004-03733-038550FM-12+001999999V0200901N00621220001CN0200001N9+02851+02161101211ADDAA106000091AG14000GA1001+999999999GF100991001001999999001001MA1999999100901MD1999999+0021REMSYN010 333 58002
0142823970999991993072912004-03733-038550FM-12+001999999V0201401N00511220001CN0200001N9+02701+01911101561ADDAA124001091AG10000AY151061AY211061GF101991011011008001001001KA1240N+02241MA1999999101251MD1999999-0101MW1011REMSYN022 333 20224 59010 60014
0111823970999991993073018004-03733-038550FM-12+001999999V0200901N00511220001CN0200001N9+02881+01861101231ADDAA106000091AG14000GA1001+999999999GF100991001001999999001001MA1999999100921MD1999999+0141REMSYN010 333 58014
0134823970999991993073118004-03733-038550FM-12+001999999V0200901N00411045001CN0200001N9+02781+02231101251ADDAA106000891AA299001091AG10005AY161061AY221061GF105991021081008001051001MA1999999100941MD1999999+0021MW1021REMSYN016 333 58002 69981
0120823970999991993080212004-03733-038550FM-12+001999999V0201401N00411220001CN0200001N9+02721+02001101701ADDAA124006091AG10000GF101991011011008001001001KA1240N+02301MA1999999101391MD1999999+0121REMSYN022 333 20230 58012 60064
0111823970999991993080218004-03733-038550FM-12+001999999V0200901N00571220001CN0200001N9+02801+02131101351ADDAA106000091AG14000GA1001+999999999GF100991001001999999001001MA1999999101041MD1999999+0111REMSYN010 333 58011
0114823970999991993080312004-03733-038550FM-12+001999999V0201401N00411220001CN0200001N9+02631+01951101841ADDAA106000091AG14000GF101991011001999999031001KA1240N+02211MA1999999101531MD1999999+0141REMSYN016 333 20221 58014
0095823970999991993080318004-03733-038550FM-12+001999999V0200901N00461220001CN0200001N9+02841+01881101471ADDAA106000091AG14000GF101991011011008001001001MA1999999101161MD1999999+0121REMSYN010 333 58012
0114823970999991993080400004-03733-038550FM-12+001999999V0200901N00051220001CN9999999N9+02451+02211101761ADDAA106000091AG14000GF102991021001022501031001KA1240M+02991MA1999999101451MD1999999+0121REMSYN016 333 10299 58012
0153823970999991993080412004-03733-038550FM-12+001999999V0201401N00461220001CN0200001N9+02671+02241101791ADDAA124000491AA299000591AG10005AY161061AY221061GF104991041011008001001001KA1240N+02251MA1999999101481MD1999999-0051MW1031REMSYN022 333 20225 59005 69944
0095823970999991993080418004-03733-038550FM-12+001999999V0200501N00361220001CN0200001N9+02811+02071101291ADDAA106000091AG14000GF101991011011008001001001MA1999999100981MD1999999-0181REMSYN010 333 59018
0114823970999991993080500004-03733-038550FM-12+001999999V0200901N00051220001CN9999999N9+02441+02231101541ADDAA106000091AG14000GF103991031011008001001001KA1240M+03021MA1999999101231MD1999999-0221REMSYN016 333 10302 59022
0078823970999991993080512004-03733-038550FM-12+001999999V0201401N00311220001CN0200001N9+02721+01901101601ADDAA106000091AG14000GA1001+999999999GF100991001001999999001001MA1999999101291
0111823970999991993080518004-03733-038550FM-12+001999999V0200901N00621220001CN0200001N9+02911+01951101131ADDAA106000091AG14000GA1001+999999999GF100991001001999999001001MA1999999100821MD1999999-0161REMSYN010 333 59016
0130823970999991993080600004-03733-038550FM-12+001999999V0200901N00051220001CN9999999N9+02451+02171101391ADDAA106000091AG14000GA1001+999999999GF100991001001999999001001KA1240M+03111MA1999999101081MD1999999-0151REMSYN016 333 10311 59015
0130823970999991993080612004-03733-038550FM-12+001999999V0201401N00511220001CN0200001N9+02701+01911101541ADDAA106000091AG14000GA1001+999999999GF100991001001999999001001KA1240N+02311MA1999999101231MD1999999-0061REMSYN016 333 20231 59006
0095823970999991993080618004-03733-038550FM-12+001999999V0200501N00311220001CN0200001N9+02941+02001101121ADDAA106000091AG14000GF101991011011008001001001MA1999999100811MD1999999-0011REMSYN010 333 59001
0114823970999991993080712004-03733-038550FM-12+001999999V0201401N00311220001CN0200001N9+02721+01931101451ADDAA106000091AG14000GF101991011011008001001001KA1240N+02191MA1999999101141MD1999999-0091REMSYN016 333 20219 59009
0095823970999991993080718004-03733-038550FM-12+001999999V0200501N00511220001CN0200001N9+02981+02011101041ADDAA106000091AG14000GF101991011011008001001001MA1999999100731MD1999999-0081REMSYN010 333 59008
0130823970999991993080800004-03733-038550FM-12+001999999V0200901N00101220001CN9999999N9+02541+02191101251ADDAA106000091AG14000GA1001+999999999GF100991001001999999001001KA1240M+03101MA1999999100941MD1999999-0111REMSYN016 333 10310 59011
0114823970999991993080812004-03733-038550FM-12+001999999V0200901N00461220001CN0200001N9+02781+01851101281ADDAA106000091AG14000GF101991011011008001001001KA1240N+02171MA1999999100971MD1999999-0171REMSYN016 333 20217 59017
0095823970999991993080818004-03733-038550FM-12+001999999V0200501N00671220001CN0200001N9+02891+02131100941ADDAA106000091AG14000GF103991011011008001031011MA1999999100631MD1999999-0101REMSYN010 333 59010
0114823970999991993080900004-03733-038550FM-12+001999999V0200901N00151021001CN9999999N9+02581+02421100171ADDAA106000091AG14000GF105991051001022501031001KA1240M+02981MA1999999100861MD1999999+0081REMSYN016 333 10298 58008
0114823970999991993080912004-03733-038550FM-12+001999999V0200901N00461220001CN0200001N9+02751+02041101301ADDAA106000091AG14000GF102991011011008001051001KA1240N+02461MA1999999100991MD1999999+0021REMSYN016 333 20246 58002
0095823970999991993080918004-03733-038550FM-12+001999999V0200901N00411045001CN0200001N9+02831+02091100961ADDAA106000091AG14000GF105991051001999999031001MA1999999100651MD1999999+0021REMSYN010 333 58002
0114823970999991993081012004-03733-038550FM-12+001999999V0201401N00361012001CN0200001N9+02681+02161101341ADDAA106000091AG14000GF106991061081008001001001KA1240N+02291MA1999999101031MD1999999+0041REMSYN016 333 20229 58004
0153823970999991993081112004-03733-038550FM-12+001999999V0200901N00311012001CN0200001N9+02761+02211101411ADDAA124000491AA299000591AG10001AY151061AY221061GF105991051081008001001001KA1240N+02371MA1999999101101MD1999999+0071MW1011REMSYN022 333 20237 58007 69944
0111823970999991993081118004-03733-038550FM-12+001999999V0200501N00511220001CN0200001N9+02831+02121101111ADDAA106000091AG14000GA1001+999999999GF100991001001999999001001MA1999999100801MD1999999+0141REMSYN010 333 58014
0070823970999991993081212004-03733-038550FM-12+001999999V0200901N002619999999N0200001N9+02601+02331101611ADDAG12000GF107991999999008001999999MA1999999101301EQDQ01+999990APOSLP
0139823970999991993081218004-03733-038550FM-12+001999999V0200501N00511220001CN0200001N9+02861+02191101221ADDAA106006091AG10005AY161061AY211061GA1001+999999999GF100991001001999999001001MA1999999100911MD1999999+0111MW1011REMSYN016 333 58011 60061
0114823970999991993081300004-03733-038550FM-12+001999999V0200901N00261220001CN9999999N9+02581+02271101501ADDAA106000091AG14000GF103991031011008001001001KA1240M+02931MA1999999101191MD1999999-0081REMSYN016 333 10293 59008
0131823970999991993081312004-03733-038550FM-12+001999999V0200901N00311045001CN0200001N9+02681+02261101631ADDAA124000691AA299000591AG10000GF107991031081008001051001KA1240N+02391MA1999999101321MD1999999+0021REMSYN022 333 20239 58002 69964
0095823970999991993081318004-03733-038550FM-12+001999999V0200901N00671220001CN0200001N9+02831+02221101221ADDAA106000091AG14000GF101991011011008001001001MA1999999100911MD1999999+0001REMSYN010 333 58000
0142823970999991993081412004-03733-038550FM-12+001999999V0200901N00361012001CN0200001N9+02661+02221101611ADDAA124001091AG10005AY161061AY221061GF106991061081008001001001KA1240N+02321MA1999999101301MD1999999-0021MW1031REMSYN022 333 20232 59002 60014
0095823970999991993081418004-03733-038550FM-12+001999999V0200501N00621220001CN0200001N9+02861+02081101201ADDAA106000091AG14000GF102991011021008001031001MA1999999100891MD1999999-0021REMSYN010 333 59002
0153823970999991993081512004-03733-038550FM-12+001999999V0200901N00261012001CN0200001N9+02671+02221101581ADDAA124000691AA299000591AG10005AY161061AY221061GF106991061081008001001001KA1240N+02341MA1999999101281MD1999999-0021MW1031REMSYN022 333 20234 59002 69964
0153823970999991993081612004-03733-038550FM-12+001999999V0200901N00411220001CN0200001N9+02821+02071101571ADDAA124000791AA299001091AG10005AY161061AY211061GF102991011011008001031001KA1240N+02371MA1999999101261MD1999999-0021MW1011REMSYN022 333 20237 59002 69974
0095823970999991993081618004-03733-038550FM-12+001999999V0200501N00461220001CN0200001N9+02921+02091101141ADDAA106000091AG14000GF102991011011008001001051MA1999999100831MD1999999-0121REMSYN010 333 59012
0114823970999991993081712004-03733-038550FM-12+001999999V0200901N00461045001CN0200001N9+02851+02031101581ADDAA106000091AG14000GF105991011011008001051001KA1240N+02431MA1999999101271MD1999999+0011REMSYN016 333 20243 58001
0153823970999991993081812004-03733-038550FM-12+001999999V0200901N00361220001CN0200001N9+02781+02251101601ADDAA124000691AA299000591AG10001AY151061AY211061GF103991021021008001051001KA1240N+02341MA1999999101291MD1999999+0021MW1011REMSYN022 333 20234 58002 69964
0095823970999991993081818004-03733-038550FM-12+001999999V0200501N00461220001CN0200001N9+02851+02191101211ADDAA106000091AG14000GF101991011011008001001001MA1999999100901MD1999999+0061REMSYN010 333 58006
0142823970999991993081912004-03733-038550FM-12+001999999V0201401N00311045001CN0010001N9+02501+02291101621ADDAA124000191AG10000AY131061AY221061GF108991041051008001071999KA1240N+02271MA1999999101311MD1999999+0021MW1541REMSYN022 333 20227 58002 69914
0111823970999991993081918004-03733-038550FM-12+001999999V0200901N00511220001CN0200001N9+02851+02161101271ADDAA106000091AG14000GA1001+999999999GF100991001001999999001001MA1999999100961MD1999999+0061REMSYN010 333 58006
0111823970999991993082018004-03733-038550FM-12+001999999V0200501N00671220001CN0200001N9+02901+02071101271ADDAA106000091AG14000GA1001+999999999GF100991001001999999001001MA1999999099961MD1999999+0001REMSYN010 333 58000
0114823970999991993082112004-03733-038550FM-12+001999999V0200901N00461012001CN0200001N9+02771+02091101691ADDAA106000091AG14000GF106991061081008001001001KA1240N+02321MA1999999101381MD1999999+0061REMSYN016 333 20232 58006
0095823970999991993082118004-03733-038550FM-12+001999999V0200501N00461220001CN0200001N9+02891+02121101371ADDAA106000091AG14000GF101991011011008001001001MA1999999101061MD1999999+0161REMSYN010 333 58016
0111823970999991993082218004-03733-038550FM-12+001999999V0200501N00461220001CN0200001N9+02931+02001101271ADDAA106000091AG14000GA1001+999999999GF100991001001999999001001MA1999999100961MD1999999-0101REMSYN010 333 59010
0114823970999991993082300004-03733-038550FM-12+001999999V0200501N00461220001CN9999999N9+02601+02231101501ADDAA106000091AG14000GF104991041011008001001001KA1240M+03051MA1999999101191MD1999999-0021REMSYN016 333 10305 59002
0114823970999991993082312004-03733-038550FM-12+001999999V0200901N00511012001CN0200001N9+02771+02041101581ADDAA106000091AG14000GF105991051081008001001001KA1240N+02781MA1999999101271MD1999999-0131REMSYN016 333 20278 59013
0095823970999991993082318004-03733-038550FM-12+001999999V0200501N00571220001CN0200001N9+02881+02251101151ADDAA106000091AG14000GF101991011011008001001001MA1999999100841MD1999999-0121REMSYN010 333 59012
0114823970999991993082412004-03733-038550FM-12+001999999V0200901N00411220001CN0200001N9+02841+01931101671ADDAA106000091AG14000GF102991011011008001051001KA1240N+02341MA1999999101361MD1999999+0091REMSYN016 333 20234 58009
0095823970999991993082418004-03733-038550FM-12+001999999V0200901N00411220001CN0200001N9+02991+01971101221ADDAA106000091AG14000GF101991011011008001001001MA1999999100921MD1999999+0071REMSYN010 333 58007
0114823970999991993082512004-03733-038550FM-12+001999999V0200901N00461012001CN0200001N9+02791+02061101701ADDAA106000091AG14000GF106991061081008001001001KA1240N+02251MA1999999101391MD1999999+0061REMSYN016 333 20225 58006
0111823970999991993082518004-03733-038550FM-12+001999999V0200501N00511220001CN0200001N9+02881+02101101241ADDAA106000091AG14000GA1001+999999999GF100991001001999999001001MA1999999100931MD1999999+0021REMSYN010 333 58002
0142823970999991993082612004-03733-038550FM-12+001999999V0200901N00311220001CN0200001N9+02701+02431101661ADDAA124002091AG10005AY161061AY221061GF104991041081008001001001KA1240N+02321MA1999999101351MD1999999-0041MW1031REMSYN022 333 20232 59004 60024
0111823970999991993082618004-03733-038550FM-12+001999999V0200501N00671220001CN0200001N9+02941+01791101221ADDAA106000091AG14000GA1001+999999999GF100991001001999999001001MA1999999100911MD1999999-0021REMSYN010 333 59002
0114823970999991993082700004-03733-038550FM-12+001999999V0200501N00261012001CN9999999N9+02631+02291101541ADDAA106000091AG14000GF106991061081008001001001KA1240M+03011MA1999999101231MD1999999+0051REMSYN016 333 10301 58005
0114823970999991993082712004-03733-038550FM-12+001999999V0200901N00361220001CN0200001N9+02891+02101101641ADDAA106000091AG14000GF103991031021008001001001KA1240N+02361MA1999999101331MD1999999-0021REMSYN016 333 20236 59002
0111823970999991993082718004-03733-038550FM-12+001999999V0200501N00461220001CN0200001N9+02921+02011101201ADDAA106000091AG14000GA1001+999999999GF100991001001999999001001MA1999999100891MD1999999-0021REMSYN010 333 59002
0114823970999991993082812004-03733-038550FM-12+001999999V0200901N00411012001CN0200001N9+02861+02301101571ADDAA106000091AG14000GF106991051081008001051001KA1240N+02351MA1999999101261MD1999999-0071REMSYN016 333 20235 59007
0095823970999991993082818004-03733-038550FM-12+001999999V0200901N00511220001CN0200001N9+02841+02171101121ADDAA106000091AG14000GF102991011011008001031001MA1999999100811MD1999999-0081REMSYN010 333 59008
0114823970999991993082900004-03733-038550FM-12+001999999V0200501N00311220001CN9999999N9+02601+02181101381ADDAA106000091AG14000GF103991031011008001001001KA1240M+03041MA1999999101071MD1999999-0101REMSYN016 333 10304 59010
0114823970999991993082912004-03733-038550FM-12+001999999V0200901N00311220001CN0200001N9+02831+02041101501ADDAA106000091AG14000GF104991041011008001001001KA1240N+02361MA1999999101191MD1999999-0071REMSYN016 333 20236 59007
0114823970999991993083012004-03733-038550FM-12+001999999V0200901N00211220001CN0200001N9+02831+02041101471ADDAA106000091AG14000GF102991021011008001001001KA1240N+02251MA1999999101161MD1999999-0031REMSYN016 333 20225 59003
0111823970999991993083018004-03733-038550FM-12+001999999V0200501N00571220001CN0200001N9+02951+01841101021ADDAA106000091AG14000GA1001+999999999GF100991001001999999001001MA1999999100711MD1999999-0061REMSYN010 333 59006
0114823970999991993083112004-03733-038550FM-12+001999999V0200901N00571220001CN0200001N9+02841+02091101481ADDAA106000091AG14000GF104991041011008001001001KA1240N+02401MA1999999101171MD1999999+0011REMSYN016 333 20240 58001
0095823970999991993083118004-03733-038550FM-12+001999999V0200901N00461220001CN0200001N9+02941+02191101081ADDAA106000091AG14000GF101991011011008001001001MA1999999100771MD1999999+0061REMSYN010 333 58006
0114823970999991993090112004-03733-038550FM-12+001999999V0200901N00311007501CN0200001N9+02861+01971101521ADDAA106000091AG14000GF106991061021008001001001KA1240N+02421MA1999999101211MD1999999+0041REMSYN016 333 20242 58004
0095823970999991993090118004-03733-038550FM-12+001999999V0200501N00671045001CN0200001N9+02801+02131101201ADDAA106000091AG14000GF106991011011008001051001MA1999999100891MD1999999+0121REMSYN010 333 58012
0114823970999991993090200004-03733-038550FM-12+001999999V0200501N00461012001CN9999999N9+02641+02231101451ADDAA106000091AG14000GF107991051081008001061001KA1240M+03011MA1999999101141MD1999999+0071REMSYN016 333 10301 58007
0114823970999991993090212004-03733-038550FM-12+001999999V0200501N00511012001CN0200001N9+02791+02081101581ADDAA106000091AG14000GF106991061081008001001001KA1240N+02351MA1999999101271MD1999999+0061REMSYN016 333 20235 58006
0095823970999991993090218004-03733-038550FM-12+001999999V0200501N00511220001CN0200001N9+02911+01981101281ADDAA106000091AG14000GF101991011011008001001001MA1999999100971MD1999999+0081REMSYN010 333 58008
0114823970999991993090312004-03733-038550FM-12+001999999V0200901N00261007501CN0200001N9+02791+02131101581ADDAA106000091AG14000GF105991051011008001001001KA1240N+02251MA1999999101271MD1999999+0001REMSYN016 333 20225 58000
0114823970999991993090400004-03733-038550FM-12+001999999V0200501N00361220001CN9999999N9+02631+02181101371ADDAA106000091AG14000GF103991031011008001001001KA1240M+03071MA1999999101061MD1999999-0131REMSYN016 333 10307 59013
0114823970999991993090412004-03733-038550FM-12+001999999V0200901N00621012001CN0200001N9+02721+01821101481ADDAA106000091AG14000GF106991061081008001001001KA1240N+02331MA1999999101171MD1999999-0101REMSYN016 333 20233 59010
0095823970999991993090418004-03733-038550FM-12+001999999V0200501N00511220001CN0200001N9+02911+01831101021ADDAA106000091AG14000GF101991011011008001001001MA1999999100711MD1999999-0121REMSYN010 333 59012
0095823970999991993090518004-03733-038550FM-12+001999999V0200501N00571220001CN0200001N9+02951+01811101121ADDAA106000091AG14000GF102991011011008001001011MA1999999100811MD1999999+0101REMSYN010 333 58010
0114823970999991993090612004-03733-038550FM-12+001999999V0200901N00411220001CN0200001N9+02811+02121101481ADDAA106000091AG14000GF103991031011008001001001KA1240N+02421MA1999999101171MD1999999-0051REMSYN016 333 20242 59005
0095823970999991993090618004-03733-038550FM-12+001999999V0200501N00411220001CN0200001N9+02921+02141101211ADDAA106000091AG14000GF102991011011008001031001MA1999999100901MD1999999+0091REMSYN010 333 58009
0114823970999991993090712004-03733-038550FM-12+001999999V0200901N00461012001CN0200001N9+02861+02191101541ADDAA106000091AG14000GF105991051081008001001001KA1240N+02481MA1999999101231MD1999999+0061REMSYN016 333 20248 58006
0095823970999991993090718004-03733-038550FM-12+001999999V0200501N00411220001CN0200001N9+02981+02201101251ADDAA106000091AG14000GF101991011011008001001001MA1999999100941MD1999999+0041REMSYN010 333 58004
0114823970999991993090812004-03733-038550FM-12+001999999V0200901N00511012001CN0200001N9+02821+02021101421ADDAA106000091AG14000GF106991061081008001001001KA1240N+02451MA1999999101111MD1999999-0121REMSYN016 333 20245 59012
0095823970999991993090818004-03733-038550FM-12+001999999V0200501N00621220001CN0200001N9+02861+02091101001ADDAA106000091AG14000GF102991021011008001001001MA1999999100691MD1999999-0251REMSYN010 333 59025
0114823970999991993090912004-03733-038550FM-12+001999999V0200901N00621007501CN0200001N9+02761+01861101401ADDAA106000091AG14000GF105991051011008001001001KA1240N+02331MA1999999101091MD1999999-0021REMSYN016 333 20233 59002
0095823970999991993090918004-03733-038550FM-12+001999999V0200501N00571220001CN0200001N9+02981+01861100991ADDAA106000091AG14000GF101991011011008001001001MA1999999100681MD1999999-0011REMSYN010 333 59001
0142823970999991993091012004-03733-038550FM-12+001999999V0200901N00211007501CN0010001N9+02441+02351101471ADDAA124016091AG10006AY161061AY251061GF108991081071008001999999KA1240N+02341MA1999999101161MD1999999+0071MW1631REMSYN022 333 20234 58007 60164
0139823970999991993091018004-03733-038550FM-12+001999999V0200501N00511220001CN0200001N9+02881+02101101101ADDAA106002091AG10006AY161061AY211061GA1001+999999999GF100991001001999999001001MA1999999100791MD1999999+0111MW1021REMSYN016 333 58011 60021
0120823970999991993091112004-03733-038550FM-12+001999999V0200901N00411220001CN0200001N9+02841+02091101521ADDAA124002091AG10000GF104991041011008001001001KA1240N+02321MA1999999101211MD1999999+0051REMSYN022 333 20232 58005 60024
0111823970999991993091118004-03733-038550FM-12+001999999V0200901N00511220001CN0200001N9+02901+02071101121ADDAA106000091AG14000GA1001+999999999GF100991001001999999001001MA1999999100811MD1999999+0021REMSYN010 333 58002
0114823970999991993091212004-03733-038550FM-12+001999999V0200901N00261012001CN0200001N9+02781+02211101521ADDAA106000091AG14000GF106991061081008001001001KA1240N+02211MA1999999101211MD1999999+0001REMSYN016 333 20221 58000
0111823970999991993091218004-03733-038550FM-12+001999999V0200501N00511220001CN0200001N9+02921+02171101141ADDAA106000091AG14000GA1001+999999999GF100991001001999999001001MA1999999100831MD1999999+0021REMSYN010 333 58002
0142823970999991993091312004-03733-038550FM-12+001999999V0200901N00511012001CN0200001N9+02741+02211101521ADDAA124001091AG10006AY161061AY221061GF106991061081008001001001KA1240N+02341MA1999999101211MD1999999+0001MW1031REMSYN022 333 20234 58000 60014
0095823970999991993091318004-03733-038550FM-12+001999999V0200501N00571220001CN0200001N9+02901+02221101071ADDAA106000091AG14000GF101991011001008001001001MA1999999100761MD1999999-0071REMSYN010 333 59007
0114823970999991993091412004-03733-038550FM-12+001999999V0200901N00101220001CN0200001N9+02871+01941101461ADDAA106000091AG14000GF104991041011008001001001KA1240N+02361MA1999999101151MD1999999-0061REMSYN016 333 20236 59006
0095823970999991993091418004-03733-038550FM-12+001999999V0200501N00621220001CN0200001N9+02891+02101101051ADDAA106000091AG14000GF101991011011008001001001MA1999999100741MD1999999-0021REMSYN010 333 59002
0142823970999991993091512004-03733-038550FM-12+001999999V0200901N00461007501CN0200001N9+02861+02061101541ADDAA124000591AG10001AY151061AY221061GF105991051011008001001001KA1240N+02421MA1999999101231MD1999999+0081MW1011REMSYN022 333 20242 58008 69954
