0072825830999991993021715004-05167-040667FM-12+029999999V0202501N00361045001CN0500001N9+99999+99999098991ADDAG12007AY181031AY281031GF107991021051004501071001MD1310251+9999MW1021
0096825830999991993030303004-05167-040667FM-12+029999999V0201501N00211220001CN0200001N9+02201+01801101211ADDAA106000091AG14000GA1001+999999999GF100991001001999999001001MD1999999+0231REMSYN010 333 58023
0096825830999991993030304004-05167-040667FM-12+029999999V0201501N00211220001CN0200001N9+02201+01801101211ADDAA106000091AG14999GA1001+999999999GF100991001001999999001001MD1999999+0231REMSYN010 333 58023
0051825830999991993041012004-05167-040667FM-12+029999999V0203601N00211045001CN0500001N9+00001-01261101841ADDAG12000GF108991081001999999021999MA1999999101021
0109825830999991993051506004-05167-040667FM-12+029999999V0201101N00151220001CN0500001N9+00991+00081102301ADDAA106000091AG14000GA1001+999999999GF100991001001999999001001KA1240N+00331MD1210081+9999REMSYN010 333 20033
0074825830999991993051518004-05167-040667FM-12+029999999V0201401N00101220001CN0500001N9+99999+99999102391ADDAA106000091AG14000GF106991001001999999001011MD1310071+9999REMSYN004 333
0118825830999991993051600004-05167-040667FM-12+029999999V0209991C00001045001CN0200001N9+02141+01601101392ADDAA106000091AG14000GF108991061001999999031011KA1240M+02501MD1999999+0461REMSYN016 333 10250 58046EQDQ01+101393APOSLP
0080825830999991993051715004-05167-040667FM-12+029999999V0201801N00261007501CN0200001N9+02201+01501102111ADDAA106000091AG14000GF108991061051008001031999MD1999999+0271REMSYN010 333 58027
0080825830999991993060921004-05167-040667FM-12+029999999V0209991C00001220001CN0200001N9+02401+01601101301ADDAA106000091AG14000GF106991011051008001001011MD1999999-0131REMSYN010 333 59013
0036825830999991993082212004-05167-040667FM-12+029999999V0200901N00101007501CN0500001N9+01691+01101999999ADDAG12000GF107991071091008001001001
0035825830999991993090318004-05167-040667FM-12+029999999V02099999999999999999N9999999N9+00881+00671101951ADDAA106000091AG14000MD1310051+9999
