0114827650999991993010112004-07333-047467FM-12+021299999V0201401N00211220001CN0200001N9+02601+02121101471ADDAA106000091AG14000GF102991011021008001031011KA1240N+02111MA1999999099071MD1999999+0081REMSYN016 333 20211 58008
0095827650999991993010118004-07333-047467FM-12+021299999V0201401N00211045001CN0200001N9+03281+02161101061ADDAA106000091AG14000GF105991031021008001041021MA1999999098691MD1999999-0011REMSYN010 333 59001
0114827650999991993010212004-07333-047467FM-12+021299999V0200901N00101045001CN0200001N9+02861+02231101331ADDAA106000091AG14000GF106991011021008001031001KA1240N+02331MA1999999098961MD1999999-0111REMSYN016 333 20233 59011
0095827650999991993010218004-07333-047467FM-12+021299999V0201401N00311220001CN0200001N9+03381+02521101041ADDAA106000091AG14000GF104991021021008001031011MA1999999098681MD1999999+0041REMSYN010 333 58004
0114827650999991993010312004-07333-047467FM-12+021299999V0203601N00151220001CN0200001N9+02801+02251101481ADDAA106000091AG14000GF101991001001999999001011KA1240N+02111MA1999999099101MD1999999+0141REMSYN016 333 20211 58014
0095827650999991993010318004-07333-047467FM-12+021299999V0201401N00211045001CN0200001N9+03261+02301101051ADDAA106000091AG14000GF107991041081008001041021MA1999999098681MD1999999+0001REMSYN010 333 58000
0120827650999991993010412004-07333-047467FM-12+021299999V0203201N00261045001CN0200001N9+02521+02171101551ADDAA124000191AG10000GF105991021011008001041001KA1240N+02101MA1999999099151MD1999999+0051REMSYN022 333 20210 58005 69914
0095827650999991993010418004-07333-047467FM-12+021299999V0201401N00311012001CN0200001N9+03121+02331101221ADDAA106000091AG14000GF107991061081008001021001MA1999999098851MD1999999+0171REMSYN010 333 58017
0142827650999991993010512004-07333-047467FM-12+021299999V0209991C00001012001CN0200001N9+02411+02301101631ADDAA124002091AG10006AY161061AY221061GF106991061081008001001001KA1240N+02231MA1999999099201MD1999999+0051MW1601REMSYN022 333 20223 58005 60024
0123827650999991993010518004-07333-047467FM-12+021299999V0200901N00311004201CN0040001N9+02231+02171101311ADDAA106018091AG10019AY191061AY261061GF108991081051004501999999MA1999999098881MD1999999+0031MW1501REMSYN016 333 58003 60181
0142827650999991993010600004-07333-047467FM-12+021299999V0201801N00211007501CN0200001N9+02241+02191101301ADDAA106005091AG10006AY161061AY261061GF108991081051008001999999KA1240M+03011MA1999999098871MD1999999-0151MW1001REMSYN022 333 10301 59015 60051
0120827650999991993010612004-07333-047467FM-12+021299999V0200901N00151045001CN0200001N9+02611+02191101571ADDAA124022091AG10000GF105991031021008001031001KA1240N+02201MA1999999099151MD1999999-0051REMSYN022 333 20220 59005 60224
0123827650999991993010618004-07333-047467FM-12+021299999V0200901N00151002101CN0100001N9+02211+02151101301ADDAA106021091AG10019AY191061AY261061GF108991051051002501021999MA1999999098871MD1999999-0011MW1611REMSYN016 333 59001 60211
0120827650999991993010712004-07333-047467FM-12+021299999V0200901N00101007501CN0200001N9+02461+02171101561ADDAA124022091AG10000GF107991051021008001031001KA1240N+02161MA1999999099131MD1999999-0021REMSYN022 333 20216 59002 60224
0095827650999991993010718004-07333-047467FM-12+021299999V0200901N00101220001CN0200001N9+03041+02261101101ADDAA106000091AG14000GF104991031021008001031001MA1999999098711MD1999999-0161REMSYN010 333 59016
0153827650999991993010800004-07333-047467FM-12+021299999V0201401N00101220001CN0200001N9+02461+02131101171ADDAA106000291AA299000191AG10001AY151061AY251061GF103991021031008001041001KA1240M+03221MA1999999098761MD1999999-0161MW1131REMSYN022 333 10322 59016 69921
0095827650999991993010818004-07333-047467FM-12+021299999V0202301N00151012001CN0200001N9+02581+02191101231ADDAA106000091AG14000GF107991061081008001021001MA1999999098811MD1999999+0101REMSYN010 333 58010
0114827650999991993010912004-07333-047467FM-12+021299999V0203601N00051045001CN0200001N9+02461+02211101491ADDAA106000091AG14000GF108991031021008001021999KA1240N+02231MA1999999099071MD1999999-0051REMSYN016 333 20223 59005
0123827650999991993010918004-07333-047467FM-12+021299999V0203201N00151045001CN0200001N9+02091+01981101481ADDAA106030091AG10006AY161061AY261061GF108991031051008001021999MA1999999099041MD1999999+0231MW1511REMSYN016 333 58023 60301
0120827650999991993011000004-07333-047467FM-12+021299999V0201401N00101045001CN0200001N9+02041+01971101521ADDAA106001091AG10000GF108991021051008001031999KA1240M+02521MA1999999099081MD1999999+0181REMSYN022 333 10252 58018 60011
0088827650999991993011112004-07333-047467FM-12+021299999V0200901N000519999999N0600001N9+02531+02311101631ADDAA106000091AG14000KA1240N+02161MA1999999099221MD1999999-0111REMSYN016 333 20216 59011
0095827650999991993011118004-07333-047467FM-12+021299999V0200901N00101105001CN0200001N9+03101+02121101181ADDAA106000091AG14000GF106991021081008001031041MA1999999098791MD1999999-0101REMSYN010 333 59010
0123827650999991993011218004-07333-047467FM-12+021299999V0203201N00721045001CN0200001N9+02741+02301101281ADDAA106034091AG10019AY191061AY291061GF108991041031008001021999MA1999999098881MD1999999+0091MW1961REMSYN016 333 58009 60341
0123827650999991993011220004-07333-047467FM-12+021299999V0203201N00721045001CN0200001N9+02741+02301101281ADDAA106034091AG10999AY191021AY291021GF108991041031008001021999MA1999999098881MD1999999+0091MW1961REMSYN016 333 58009 60341
0142827650999991993011300004-07333-047467FM-12+021299999V0203601N00101220001CN0200001N9+02261+02211101381ADDAA106004091AG10006AY161061AY261061GF104991021031008001041001KA1240M+03111MA1999999098961MD1999999+0021MW1131REMSYN022 333 10311 58002 60041
0120827650999991993011312004-07333-047467FM-12+021299999V0202701N00101045001CN0200001N9+02561+02251101621ADDAA124036091AG10000GF106991041081008001041021KA1240N+02001MA1999999099201MD1999999+0141REMSYN022 333 20200 58014 60364
0095827650999991993011318004-07333-047467FM-12+021299999V0203201N00261045001CN0200001N9+02721+02221101351ADDAA106000091AG14000GF106991041081008001041021MA1999999098941MD1999999+0061REMSYN010 333 58006
0114827650999991993011400004-07333-047467FM-12+021299999V0200901N00051220001CN0200001N9+02431+02321101401ADDAA106000091AG14000GF103991031051008001001001KA1240M+02951MA1999999098991MD1999999+0031REMSYN016 333 10295 58003
0114827650999991993011412004-07333-047467FM-12+021299999V0203601N00101007501CN0200001N9+02401+02261101641ADDAA106000091AG14000GF108991081051008001999999KA1240N+02171MA1999999099221MD1999999+0021REMSYN016 333 20217 58002
0095827650999991993011418004-07333-047467FM-12+021299999V0200501N00311045001CN0200001N9+03241+02191101151ADDAA106000091AG14000GF105991041021008001041021MA1999999098771MD1999999-0171REMSYN010 333 59017
0114827650999991993011500004-07333-047467FM-12+021299999V0200501N00051220001CN0200001N9+02621+02311101251ADDAA106000091AG14000GF101991011051008001001001KA1240M+03261MA1999999098851MD1999999-0141REMSYN016 333 10326 59014
0120827650999991993011512004-07333-047467FM-12+021299999V0200501N00101012001CN0200001N9+02461+02171101631ADDAA124001091AG10000GF108991061081008001041999KA1240N+02311MA1999999099171MD1999999-0051REMSYN022 333 20231 59005 60014
0095827650999991993011518004-07333-047467FM-12+021299999V0202301N00101045001CN0200001N9+03021+02341101251ADDAA106000091AG14000GF107991041021008001031001MA1999999098861MD1999999+0091REMSYN010 333 58009
0114827650999991993011612004-07333-047467FM-12+021299999V0201401N00101045001CN0200001N9+02471+02191101701ADDAA106000091AG14000GF108991031011008001021999KA1240N+02221MA1999999099281MD1999999+0111REMSYN016 333 20222 58011
0095827650999991993011618004-07333-047467FM-12+021299999V0201801N00151045001CN0200001N9+03051+02231101261ADDAA106000091AG14000GF105991041021008001041001MA1999999098871MD1999999+0011REMSYN010 333 58001
0114827650999991993011712004-07333-047467FM-12+021299999V0203201N00101045001CN0200001N9+02541+02041101761ADDAA106000091AG14000GF105991021011008001031001KA1240N+02221MA1999999099351MD1999999+0071REMSYN016 333 20222 58007
0139827650999991993011812004-07333-047467FM-12+021299999V0203601N00261045001CN0200001N9+01431+99999101801ADDAA124005091AG10000GF107991041081008001041001KA1240N+99999MA1999999099371MD1999999+0021REMSYN022 333 20222 58002 60054EQDQ01 +02222ATMN  
0095827650999991993011818004-07333-047467FM-12+021299999V0203601N00261220001CN0200001N9+02991+02091101301ADDAA106000091AG14000GF104991021011008001051011MA1999999098901MD1999999-0201REMSYN010 333 59020
0142827650999991993011912004-07333-047467FM-12+021299999V0200501N00151004201CN0200001N9+02271+02211101791ADDAA124008091AG10006AY161061AY261061GF108991061051004501041999KA1240N+02211MA1999999099371MD1999999+0001MW1601REMSYN022 333 20221 58000 60084
0095827650999991993011918004-07333-047467FM-12+021299999V0203201N00151007501CN0200001N9+02921+02291101321ADDAA106000091AG14000GF107991051021008001041001MA1999999098931MD1999999+0031REMSYN010 333 58003
0114827650999991993012012004-07333-047467FM-12+021299999V0202301N00051045001CN0200001N9+02471+02281101571ADDAA106000091AG14000GF106991021021008001031001KA1240N+02261MA1999999099151MD1999999-0221REMSYN016 333 20226 59022
0123827650999991993012018004-07333-047467FM-12+021299999V0203201N00211045001CN0200001N9+02661+02391101111ADDAA106012091AG10006AY161061AY261061GF106991031081008001041081MA1999999098711MD1999999-0221MW1611REMSYN016 333 59022 60121
0114827650999991993012100004-07333-047467FM-12+021299999V0203201N00051220001CN0200001N9+02501+02321101281ADDAA106000091AG14000GF101991011031008001001001KA1240M+03081MA1999999098871MD1999999-0101REMSYN016 333 10308 59010
0120827650999991993012112004-07333-047467FM-12+021299999V0203601N00311045001CN0200001N9+02641+02251101501ADDAA124012091AG10000GF105991041081008001041001KA1240N+02341MA1999999099091MD1999999-0061REMSYN022 333 20234 59006 60124
0120827650999991993012118004-07333-047467FM-12+021299999V0200501N00101012001CN0200001N9+03071+02271101061ADDAA106999999AG14000GF108991061081008001021999MA1999999098681MD1999999-0031MW1951REMSYN010 333 59003EQDQ01  00002PRCP06
0120827650999991993012200004-07333-047467FM-12+021299999V0201801N00101220001CN0200001N9+02221+02101101411ADDAA106027091AG10000GF102991021051008001001001KA1240M+03111MA1999999099001MD1999999+0131REMSYN022 333 10311 58013 60271
0120827650999991993012212004-07333-047467FM-12+021299999V0203601N00101045001CN0200001N9+02471+02271101491ADDAA124027091AG10000GF107991031021008001031001KA1240N+02161MA1999999099061MD1999999-0031REMSYN022 333 20216 59003 60274
0095827650999991993012218004-07333-047467FM-12+021299999V0203201N00151007501CN0200001N9+03151+02471101051ADDAA106000091AG14000GF105991051021008001001001MA1999999098671MD1999999-0011REMSYN010 333 59001
0120827650999991993012300004-07333-047467FM-12+021299999V0202701N00101220001CN0200001N9+02721+02431101151ADDAA106000091AG10000GF102991021031008001001001KA1240M+03231MA1999999098761MD1999999-0241MW1131REMSYN016 333 10323 59024
0114827650999991993012312004-07333-047467FM-12+021299999V0202701N00101220001CN0200001N9+02651+02311101401ADDAA106000091AG14000GF104991021011008001051041KA1240N+02301MA1999999099011MD1999999+0251REMSYN016 333 20230 58025
0095827650999991993012318004-07333-047467FM-12+021299999V0202701N00151045001CN0200001N9+03331+02441101041ADDAA106000091AG14000GF106991031081008001051041MA1999999098671MD1999999+0001REMSYN010 333 58000
0153827650999991993012400004-07333-047467FM-12+021299999V0200901N00101007501CN0200001N9+02621+02181101071ADDAA106000791AA299001091AG10006AY161061AY221061GF105991051021008001001001KA1240M+03381MA1999999098681MD1999999-0081MW1131REMSYN022 333 10338 59008 69971
0131827650999991993012412004-07333-047467FM-12+021299999V0200901N00151045001CN0200001N9+02641+02291101321ADDAA124000791AA299001091AG10000GF105991031081008001041001KA1240N+02151MA1999999098931MD1999999-0081REMSYN022 333 20215 59008 69974
0120827650999991993012512004-07333-047467FM-12+021299999V0200501N00051220001CN0200001N9+02641+02331101311ADDAA124003091AG10000GF102991011021008001041011KA1240N+02241MA1999999098921MD1999999-0011REMSYN022 333 20224 59001 60034
0095827650999991993012518004-07333-047467FM-12+021299999V0200901N00211045001CN0500001N9+03321+02141100991ADDAA106000091AG14000GF105991031021008001041081MA1999999098631MD1999999+0061REMSYN010 333 58006
0114827650999991993012612004-07333-047467FM-12+021299999V0200501N00261105001CN0200001N9+02721+02301101451ADDAA106000091AG14000GF105991011021008001041021KA1240N+02141MA1999999099061MD1999999+0141REMSYN016 333 20214 58014
0114827650999991993012700004-07333-047467FM-12+021299999V0203201N00101220001CN0200001N9+02471+02301101341ADDAA106000091AG14000GF101991011051008001001001KA1240M+03261MA1999999098941MD1999999+0261REMSYN016 333 10326 58026
0131827650999991993012712004-07333-047467FM-12+021299999V0200901N00101220001CN0200001N9+02661+02391101491ADDAA124000291AA299000191AG10000GF102991021011008001001001KA1240N+02201MA1999999099081MD1999999+0021REMSYN022 333 20220 58002 69924
0123827650999991993012718004-07333-047467FM-12+021299999V0203201N00261045001CN0200001N9+02791+02461101281ADDAA106009091AG10006AY161061AY221061GF107991041031008001021001MA1999999098871MD1999999+0111MW1031REMSYN016 333 58011 60091
0136827650999991993012800004-07333-047467FM-12+021299999V0200501N00101012001CN0200001N9+02521+02451101391ADDAA106000091AG10000AY121061AY221061GF107991051081008001021001KA1240M+03141MA1999999098991MD1999999+0051MW1131REMSYN016 333 10314 58005
0120827650999991993012812004-07333-047467FM-12+021299999V0200901N00101220001CN0200001N9+02741+02451101671ADDAA124009091AG10000GF102991011011008001041001KA1240N+02181MA1999999099271MD1999999+0191REMSYN022 333 20218 58019 60094
0095827650999991993012818004-07333-047467FM-12+021299999V0200901N00211045001CN0200001N9+03201+02431101221ADDAA106000091AG14000GF106991041021008001021001MA1999999098841MD1999999-0031REMSYN010 333 59003
0114827650999991993012900004-07333-047467FM-12+021299999V0200501N00261007501CN0200001N9+02801+02361101631ADDAA106000091AG14000GF106991061021008001001001KA1240N+02221MA1999999099241MD1999999-0031REMSYN016 333 20222 59003
0095827650999991993012918004-07333-047467FM-12+021299999V0202701N00151220001CN0200001N9+03181+02561101181ADDAA106000091AG14000GF104991021011008001031091MA1999999098801MD1999999-0041REMSYN010 333 59004
0100827650999991993013000004-07333-047467FM-12+021299999V0203201N00101220001CN0200001N9+02681+02561101201ADDAA106000091AG14000GF103991021011008001041001KA1240M+03251MA1999999098821REMSYN016 333 10325 5/013
0095827650999991993013018004-07333-047467FM-12+021299999V0201801N00151045001CN0200001N9+02691+02241101231ADDAA106000091AG14000GF108991031011008001021999MA1999999098831MD1999999+0031REMSYN010 333 58003
0114827650999991993013112004-07333-047467FM-12+021299999V0200901N00151012001CN0200001N9+02301+02111101731ADDAA106000091AG14000GF107991061081008001041001KA1240N+02071MA1999999099291MD1999999+0061REMSYN016 333 20207 58006
0051827650999991993020112004-07333-047467FM-12+021299999V0200901N00151220001CN0200001N9+02331+02181999999ADDAG12000GF104991999999008001999999MA1999999099171
0075827650999991993020118004-07333-047467FM-12+021299999V0203201N00151045001CN0200001N9+03041+02431101161ADDAA106000091AG14000GF106991041081008001041001MA1999999098771REMSYN004 333
0114827650999991993020212004-07333-047467FM-12+021299999V0201401N00051007501CN0200001N9+02591+02311101611ADDAA106000091AG14000GF106991051021008001041001KA1240N+02221MA1999999099201MD1999999+0031REMSYN016 333 20222 58003
0084827650999991993020218004-07333-047467FM-12+021299999V0200501N00361220001CN0200001N9+03141+02401101091ADDAG12000GF104991031031008001041011MA1999999098711MD1999999-0061REMSYN010 333 59006
0114827650999991993020300004-07333-047467FM-12+021299999V0201401N00051045001CN0200001N9+02581+02531101301ADDAA106000091AG14000GF106991011021008001031001KA1240M+03181MA1999999098901MD1999999+0001REMSYN016 333 10318 59000
0114827650999991993020312004-07333-047467FM-12+021299999V0203201N00151220001CN0200001N9+02681+02351101421ADDAA106000091AG14000GF104991031011008001041001KA1240N+02261MA1999999099031MD1999999-0171REMSYN016 333 20226 59017
0095827650999991993020318004-07333-047467FM-12+021299999V0200501N00311045001CN0200001N9+03151+02481100981ADDAA106000091AG14000GF105991031021008001031041MA1999999098601MD1999999-0111REMSYN010 333 59011
0155827650999991993020400004-07333-047467FM-12+021299999V0201401N00051012001CN0200001N9+02411+02321101291ADDAA106999999AG14019AY191061AY221061GF108991051081008001021999KA1240M+03171MA1999999098891MD1999999-0011MW1501REMSYN016 333 10317 59001EQDQ01  00002PRCP06
0114827650999991993020412004-07333-047467FM-12+021299999V0203601N00211007501CN0200001N9+02731+02411101411ADDAA106000091AG14000GF106991051021008001011001KA1240N+02321MA1999999099011MD1999999-0021REMSYN016 333 20232 59002
0123827650999991993020418004-07333-047467FM-12+021299999V0200501N00101007501CN0040001N9+02841+02481100931ADDAA106002091AG10006AY161061AY221061GF107991071071008001001001MA1999999098541MD1999999-0061MW1601REMSYN016 333 59006 60021
0142827650999991993020500004-07333-047467FM-12+021299999V0201401N00151004201CN0040001N9+02381+02331101331ADDAA106008091AG10019AY191061AY261061GF108991081071004501999999KA1240M+03191MA1999999098931MD1999999+0041MW1611REMSYN022 333 10319 58004 60081
0142827650999991993020512004-07333-047467FM-12+021299999V0203601N00051002101CN0200001N9+02461+02361101551ADDAA124051091AG10006AY161061AY221061GF108991081071002501999999KA1240N+02291MA1999999099131MD1999999+0121MW1031REMSYN022 333 20229 58012 60514
0095827650999991993020518004-07333-047467FM-12+021299999V0203201N00151007501CN0200001N9+03071+02571101071ADDAA106000091AG14000GF107991051031008001041041MA1999999098671MD1999999+0151REMSYN010 333 58015
0120827650999991993020612004-07333-047467FM-12+021299999V0200901N00211006001CN0200001N9+02431+02171101591ADDAA124020091AG10000GF107991061081002501041001KA1240N+02211MA1999999099171MD1999999-0041REMSYN022 333 20221 59004 60204
0095827650999991993020618004-07333-047467FM-12+021299999V0200901N00261045001CN0200001N9+03001+02461101251ADDAA106000091AG14000GF106991041021008001031001MA1999999098861MD1999999+0171REMSYN010 333 58017
0114827650999991993020712004-07333-047467FM-12+021299999V0201401N00101045001CN0200001N9+02601+02401101491ADDAA106000091AG14000GF106991021021008001041001KA1240N+02351MA1999999099091MD1999999-0081REMSYN016 333 20235 59008
0095827650999991993020718004-07333-047467FM-12+021299999V0200501N00311045001CN0200001N9+02901+02521101171ADDAA106000091AG14000GF108991041051008001021999MA1999999098791MD1999999-0071REMSYN010 333 59007
0142827650999991993020800004-07333-047467FM-12+021299999V0200501N00151045001CN0200001N9+02531+02441101301ADDAA106008091AG10006AY161061AY261061GF108991021051008001031999KA1240M+03061MA1999999098901MD1999999+0001MW1131REMSYN022 333 10306 58000 60081
0095827650999991993020818004-07333-047467FM-12+021299999V0201401N00151045001CN0200001N9+02861+02481101131ADDAA106000091AG14000GF107991021081008001021001MA1999999098751MD1999999-0041REMSYN010 333 59004
0120827650999991993021012004-07333-047467FM-12+021299999V0203201N00051045001CN0200001N9+02701+02451101501ADDAA124003091AG10000GF105991031011008001031001KA1240N+02321MA1999999099101MD1999999-0061REMSYN022 333 20232 59006 60034
0123827650999991993021018004-07333-047467FM-12+021299999V0203201N00101004201CN0040001N9+02291+02251101241ADDAA106024091AG10006AY161061AY261061GF108991081071004501999999MA1999999098821MD1999999+0011MW1611REMSYN016 333 58001 60241
0153827650999991993021100004-07333-047467FM-12+021299999V0203201N00051004201CN0200001N9+02321+02271999999ADDAA106000991AA299001091AG13000AY131061AY221061GF108991051061004501021999KA1240M+02881MA1999999098811MD1999999-0151MW1031REMSYN022 333 10288 59015 69991
0120827650999991993021112004-07333-047467FM-12+021299999V0203201N00101004201CN0200001N9+02491+02361101371ADDAA124025091AG10000GF107991071071004501001001KA1240N+02251MA1999999098951MD1999999-0151REMSYN022 333 20225 59015 60254
0120827650999991993021212004-07333-047467FM-12+021299999V0202701N00151045001CN0200001N9+02401+02191101501ADDAA124010091AG10000GF107991031021008001031001KA1240N+02151MA1999999099071MD1999999+0121REMSYN022 333 20215 58012 60104
0095827650999991993021218004-07333-047467FM-12+021299999V0203201N00051012001CN0200001N9+03001+02461101141ADDAA106000091AG14000GF107991061081008001041001MA1999999098751MD1999999-0181REMSYN010 333 59018
0114827650999991993021300004-07333-047467FM-12+021299999V0200501N00051220001CN0200001N9+02441+02391101311ADDAA106000091AG14000GF102991021051008001001001KA1240M+03021MA1999999098891MD1999999-0061REMSYN016 333 10302 59006
0114827650999991993021312004-07333-047467FM-12+021299999V0200501N00051007501CN0200001N9+02461+02271101481ADDAA106000091AG14000GF108991061051008001021999KA1240N+02311MA1999999099061MD1999999-0011REMSYN016 333 20231 59001
0095827650999991993021318004-07333-047467FM-12+021299999V0203201N00151007501CN0200001N9+03041+02431100951ADDAA106000091AG14000GF106991061021008001041001MA1999999098581MD1999999-0171REMSYN010 333 59017
0114827650999991993021400004-07333-047467FM-12+021299999V0200901N00101220001CN0200001N9+02541+02291101151ADDAA106000091AG14000GF102991021051008001001001KA1240M+03081MA1999999098751MD1999999-0141REMSYN016 333 10308 59014
0105827650999991993021412004-07333-047467FM-12+021299999V0203601N00211045001CN0200001N9+02241+02191101511ADDAG12019AY191061AY261061GF108991031051008001021999KA1240N+02201MA1999999099091MW1511REMSYN010 333 20220
0101827650999991993021418004-07333-047467FM-12+021299999V0202301N00211045001CN0200001N9+02781+02231101161ADDAA106000391AG10000GF107991031081008001021001MA1999999098781MD1999999+0201REMSYN016 333 58020 69931
0114827650999991993021500004-07333-047467FM-12+021299999V0200901N00051220001CN0200001N9+02301+02181101411ADDAA106000091AG14000GF104991041051008001001001KA1240M+02781MA1999999098981MD1999999+0231REMSYN016 333 10278 58023
0120827650999991993021512004-07333-047467FM-12+021299999V0203201N00101220001CN0200001N9+02471+02281101361ADDAA124000391AG10000GF104991031081008001031001KA1240N+02221MA1999999098941MD1999999-0151REMSYN022 333 20222 59015 69934
0136827650999991993021600004-07333-047467FM-12+021299999V0200501N00101012001CN0200001N9+02531+02311101131ADDAA106000091AG10000AY121061AY221061GF108991081081008001999999KA1240M+03171MA1999999098731MD1999999-0251MW1131REMSYN016 333 10317 59025
0142827650999991993021612004-07333-047467FM-12+021299999V0203601N00261045001CN0200001N9+02451+02301101281ADDAA124007091AG10006AY161061AY221061GF108991041071008001021999KA1240N+02221MA1999999098871MD1999999-0071MW1021REMSYN022 333 20222 59007 60074
0117827650999991993021618004-07333-047467FM-12+021299999V0203601N00311012001CN0100001N9+02771+02301101011ADDAA106000091AG15000AY121061AY221061GF107991061081008001021001MA1999999098611MD1999999+0151MW1151REMSYN010 333 58015
0142827650999991993021700004-07333-047467FM-12+021299999V0200901N00101012001CN0100001N9+02211+02151101231ADDAA106002091AG10006AY161061AY221061GF108991051081008001021999KA1240M+02791MA1999999098811MD1999999+0081MW1511REMSYN022 333 10279 58008 60021
0142827650999991993021712004-07333-047467FM-12+021299999V0201401N00051009001CN0200001N9+02431+02281101451ADDAA124002091AG10006AY161061AY221061GF108991051081004501021999KA1240N+02221MA1999999099021MD1999999+0151MW1031REMSYN022 333 20222 58015 60024
0123827650999991993021718004-07333-047467FM-12+021299999V0203201N00051045001CN0100001N9+02581+02291101061ADDAA106003091AG10006AY161061AY221061GF107991041081004501021001MA1999999098651MD1999999+0041MW1511REMSYN016 333 58004 60031
0064827650999991993021812004-07333-047467FM-12+021299999V0202701N00051004201CN0200001N9+02341+02201101411ADDAG12000GF108991051051004501021999MA1999999098991REMSYN004 333
0095827650999991993021818004-07333-047467FM-12+021299999V0201401N00211045001CN0200001N9+02701+02411101091ADDAA106000091AG14000GF107991031081008001021001MA1999999098681MD1999999+0031REMSYN010 333 58003
0114827650999991993021900004-07333-047467FM-12+021299999V0201401N00461007501CN0200001N9+02521+02471101381ADDAA106000091AG14000GF108991081051008001999999KA1240M+02801MA1999999098971MD1999999+0121REMSYN016 333 10280 58012
0120827650999991993021912004-07333-047467FM-12+021299999V0203601N00151012001CN0200001N9+02261+02141101551ADDAA124000191AG10000GF108991051081008001021999KA1240N+02151MA1999999099131MD1999999+0141REMSYN022 333 20215 58014 69914
0095827650999991993021918004-07333-047467FM-12+021299999V0200901N00101045001CN0200001N9+02701+02371101211ADDAA106000091AG14000GF108991021021008001021999MA1999999098901MD1999999+0221REMSYN010 333 58022
0114827650999991993022000004-07333-047467FM-12+021299999V0202301N00821007501CN0200001N9+02541+02441101401ADDAA106000091AG14000GF108991081051008001999999KA1240M+02801MA1999999098991MD1999999+0141REMSYN016 333 10280 58014
0117827650999991993022118004-07333-047467FM-12+021299999V0209999999999045001CN0200001N9+03181+02471101351ADDAA106000091AG14000AY121061AY211061GF106991041031008001021001MA1999999098961MD1999999+0151MW1171REMSYN010 333 58015
0120827650999991993022212004-07333-047467FM-12+021299999V0209999999999012001CN0200001N9+02441+02301101691ADDAA124022091AG10000GF107991061081008001001041KA1240N+02211MA1999999099261MD1999999-0051REMSYN022 333 20221 59005 60224
0095827650999991993022218004-07333-047467FM-12+021299999V0200501N00101007501CN0200001N9+03201+02611101131ADDAA106000091AG14000GF106991051021008001001041MA1999999098801MD1999999-0161REMSYN010 333 59016
0136827650999991993022300004-07333-047467FM-12+021299999V0200501N00101220001CN0200001N9+02551+02451101371ADDAA106000091AG10000AY121061AY211061GF104991041021008001001001KA1240M+03231MA1999999098961MD1999999-0151MW1131REMSYN016 333 10323 59015
0153827650999991993022312004-07333-047467FM-12+021299999V0201801N00151012001CN0200001N9+02491+02271101461ADDAA124000891AA299001091AG10006AY161061AY221061GF108991051081008001021999KA1240N+02261MA1999999099051MD1999999-0211MW1031REMSYN022 333 20226 59021 69984
0120827650999991993022412004-07333-047467FM-12+021299999V0201801N00051007501CN0200001N9+02381+02191101561ADDAA124009091AG10000GF106991051021008001041011KA1240N+02151MA1999999099131MD1999999+0081REMSYN022 333 20215 58008 60094
0095827650999991993022418004-07333-047467FM-12+021299999V0203201N00051045001CN0200001N9+02941+02561101121ADDAA106000091AG14000GF106991031021008001041011MA1999999098721MD1999999-0081REMSYN010 333 59008
0120827650999991993022500004-07333-047467FM-12+021299999V0203601N00101220001CN0200001N9+02561+02531101171ADDAA106000091AG10000GF101991011031008001001001KA1240M+03061MA1999999098761MD1999999-0261MW1131REMSYN016 333 10306 59026
0114827650999991993022512004-07333-047467FM-12+021299999V0202701N00151045001CN0200001N9+02671+02351101341ADDAA106000091AG14000GF107991011021008001041001KA1240N+02261MA1999999098941MD1999999-0191REMSYN016 333 20226 59019
0095827650999991993022518004-07333-047467FM-12+021299999V0201801N00151220001CN0200001N9+03261+99999100861ADDAA106000091AG14000GF104991021031008001041011MA1999999098491MD1999999-0231REMSYN010 333 59023
0120827650999991993022600004-07333-047467FM-12+021299999V0200901N00151045001CN0200001N9+02581+02311101231ADDAA106000091AG10000GF106991031031008001021001KA1240M+03321MA1999999098841MD1999999+0081MW1131REMSYN016 333 10332 58008
0064827650999991993022612004-07333-047467FM-12+021299999V0202301N00151007501CN0200001N9+02281+02161101531ADDAG12000GF108991081051008001999999MA1999999099111REMSYN004 333
0120827650999991993022712004-07333-047467FM-12+021299999V0200501N00151009001CN0200001N9+02471+02271101531ADDAA124000391AG10000GF108991061081004501021999KA1240N+02231MA1999999099111MD1999999+0001REMSYN022 333 20223 58000 69934
0095827650999991993022718004-07333-047467FM-12+021299999V0200901N00151007501CN0200001N9+03081+02471101111ADDAA106000091AG14000GF107991051021008001061041MA1999999098731MD1999999-0011REMSYN010 333 59001
0120827650999991993030112004-07333-047467FM-12+021299999V0201801N00211004201CN0200001N9+02441+02301101431ADDAA124005091AG10000GF108991061071004501021999KA1240N+02331MA1999999099011MD1999999-0081REMSYN022 333 20233 59008 60054
0120827650999991993030212004-07333-047467FM-12+021299999V0203201N00151012001CN0200001N9+02461+02251101541ADDAA124014091AG10000GF107991061081008001041001KA1240N+02141MA1999999099111MD1999999+0101REMSYN022 333 20214 58010 60144
0095827650999991993030218004-07333-047467FM-12+021299999V0201401N00151007501CN0200001N9+03001+02461101131ADDAA106000091AG14000GF107991051021008001041081MA1999999098741MD1999999+0041REMSYN010 333 58004
0133827650999991993030300004-07333-047467FM-12+021299999V0201401N00101220001CN0200001N9+02581+02481101311ADDAA106000091AG14000GF103991999001999999041001KA1240M+03081MA1999999098901MD1999999-0141REMSYN016 333 10308 59014EQDQ01+000022SCOTLC
0114827650999991993030312004-07333-047467FM-12+021299999V0200901N00101045001CN0200001N9+02601+02351101631ADDAA106000091AG14000GF106991041021008001041001KA1240N+02221MA1999999099231MD1999999+0121REMSYN016 333 20222 58012
0101827650999991993030318004-07333-047467FM-12+021299999V0201401N00101045001CN0200001N9+02541+02451101241ADDAA106008091AG10000GF107991031081008001071001MA1999999098811MD1999999+0071REMSYN016 333 58007 60081
0120827650999991993030412004-07333-047467FM-12+021299999V0203601N00101007501CN0200001N9+02521+02311101551ADDAA124008091AG10000GF108991081051008001999999KA1240N+02251MA1999999099141MD1999999-0051REMSYN022 333 20225 59005 60084
0107827650999991993030418004-07333-047467FM-12+021299999V0202701N00101045001CN0200001N9+02621+02461101291ADDAA106011091AG10000GF107991031081008001021001MA1999999098881MD1999999+0071MW1651REMSYN016 333 58007 60111
0142827650999991993030512004-07333-047467FM-12+021299999V0201801N00211002101CN0040001N9+02141+02061101621ADDAA124013091AG10018AY191061AY261061GF108991051071002501021999KA1240N+02141MA1999999099191MD1999999+0051MW1611REMSYN022 333 20214 58005 60134
0123827650999991993030518004-07333-047467FM-12+021299999V0202701N00151045001CN0200001N9+02841+02401101181ADDAA106002091AG10006AY161061AY221061GF105991031031008001031001MA1999999098791MD1999999-0091MW1031REMSYN016 333 59009 60021
0114827650999991993030600004-07333-047467FM-12+021299999V0209991C00001007501CN0200001N9+02451+02321101401ADDAA106000091AG14000GF107991051011008001031001KA1240M+02891MA1999999098971MD1999999-0091REMSYN016 333 10289 59009
0120827650999991993030612004-07333-047467FM-12+021299999V0200901N00151007501CN0200001N9+02441+02271101621ADDAA124002091AG10000GF107991051011008001031001KA1240N+02151MA1999999099201MD1999999+0011REMSYN022 333 20215 58001 60024
0095827650999991993030618004-07333-047467FM-12+021299999V0200501N00151045001CN0200001N9+03031+02411101161ADDAA106000091AG14000GF107991041021008001041011MA1999999098781MD1999999-0011REMSYN010 333 59001
0075827650999991993030812004-07333-047467FM-12+021299999V0200901N00101012001CN0200001N9+02441+02211101631ADDAA106000091AG14000GF106991061081008001001001MA1999999099211REMSYN004 333
0120827650999991993030818004-07333-047467FM-12+021299999V0203601N00151007501CN0200001N9+03041+02551101301ADDAA106999999AG14000GF107991061031008001041001MA1999999098911MD1999999+0091MW1951REMSYN010 333 58009EQDQ01  00002PRCP06
0114827650999991993030900004-07333-047467FM-12+021299999V0200901N00051220001CN0200001N9+02461+02361101411ADDAA106000091AG14000GF104991011021008001041021KA1240M+03101MA1999999099001MD1999999-0011REMSYN016 333 10310 59001
0114827650999991993030912004-07333-047467FM-12+021299999V0200501N00101220001CN0200001N9+02601+02291101641ADDAA106000091AG14000GF104991031021008001041001KA1240N+02191MA1999999099231MD1999999+0021REMSYN016 333 20219 58002
0120827650999991993030918004-07333-047467FM-12+021299999V0203601N00101220001CN0200001N9+03221+02581101121ADDAA106999999AG14000GF104991031031008001041001MA1999999098751MD1999999-0161MW1951REMSYN010 333 59016EQDQ01  00002PRCP06
0120827650999991993031012004-07333-047467FM-12+021299999V0200901N00151045001CN0200001N9+02641+02391101601ADDAA124008091AG10000GF106991021021008001041021KA1240N+02151MA1999999099191MD1999999-0041REMSYN022 333 20215 59004 60084
0095827650999991993031018004-07333-047467FM-12+021299999V0201801N00101220001CN0200001N9+03221+02401101141ADDAA106000091AG14000GF103991031021008001001001MA1999999098781MD1999999+0031REMSYN010 333 58003
0114827650999991993031112004-07333-047467FM-12+021299999V0200501N00151220001CN0200001N9+02781+02421101581ADDAA106000091AG14000GF103991031011008001001001KA1240N+02151MA1999999099181MD1999999-0011REMSYN016 333 20215 59001
0095827650999991993031118004-07333-047467FM-12+021299999V0200501N00101045001CN0200001N9+03201+02481101181ADDAA106000091AG14000GF105991041051008001021001MA1999999098811MD1999999+0031REMSYN010 333 58003
0114827650999991993031212004-07333-047467FM-12+021299999V0200501N00151007501CN0200001N9+02761+02401101521ADDAA106000091AG14000GF105991051011008001001001KA1240N+02321MA1999999099131MD1999999-0051REMSYN016 333 20232 59005
0095827650999991993031218004-07333-047467FM-12+021299999V0200501N00151007501CN0200001N9+03241+02571101131ADDAA106000091AG14000GF106991061031008001001001MA1999999098761MD1999999-0051REMSYN010 333 59005
0095827650999991993031318004-07333-047467FM-12+021299999V0203201N00151045001CN0200001N9+03191+02591101181ADDAA106000091AG14000GF105991031021008001021041MA1999999098811MD1999999+0051REMSYN010 333 58005
0114827650999991993031412004-07333-047467FM-12+021299999V0203601N00151045001CN0200001N9+02661+02391101581ADDAA106000091AG14000GF106991041021008001041001KA1240N+02291MA1999999099181MD1999999-0041REMSYN016 333 20229 59004
0095827650999991993031418004-07333-047467FM-12+021299999V0202701N00211045001CN0200001N9+03171+02491101201ADDAA106000091AG14000GF107991031081008001021001MA1999999098831MD1999999+0021REMSYN010 333 58002
0120827650999991993031500004-07333-047467FM-12+021299999V0201401N00311220001CN0200001N9+02621+02161101281ADDAA106000091AG10000GF102991021031008001001001KA1240M+03211MA1999999098891MD1999999+0061MW1131REMSYN016 333 10321 58006
0114827650999991993031512004-07333-047467FM-12+021299999V0203601N00151045001CN0200001N9+02631+02311101501ADDAA106000091AG14000GF106991041021008001041001KA1240N+02211MA1999999099101MD1999999+0081REMSYN016 333 20221 58008
0095827650999991993031518004-07333-047467FM-12+021299999V0202701N00151045001CN0200001N9+03261+02491101041ADDAA106000091AG14000GF106991041031008001021001MA1999999098671MD1999999-0161REMSYN010 333 59016
0131827650999991993031612004-07333-047467FM-12+021299999V0203601N00151007501CN0200001N9+02581+02381101541ADDAA124000291AA299000191AG10000GF108991081051008001999999KA1240N+02291MA1999999099131MD1999999+0031REMSYN022 333 20229 58003 69924
0095827650999991993031618004-07333-047467FM-12+021299999V0202701N00211012001CN0200001N9+03121+02581101081ADDAA106000091AG14000GF108991061081008001021999MA1999999098711MD1999999+0041REMSYN010 333 58004
0142827650999991993031712004-07333-047467FM-12+021299999V0201401N00101009001CN0200001N9+02481+02271101591ADDAA124053091AG10006AY161061AY251061GF107991051081004501021001KA1240N+02191MA1999999099181MD1999999+0051MW1031REMSYN022 333 20219 58005 60534
0142827650999991993031800004-07333-047467FM-12+021299999V0201401N00151012001CN0200001N9+02361+02261101431ADDAA106000191AG10006AY161061AY221061GF108991081081008001999999KA1240M+02851MA1999999099011MD1999999-0011MW1131REMSYN022 333 10285 59001 69911
0120827650999991993031812004-07333-047467FM-12+021299999V0203201N00101009001CN0200001N9+02491+02271101601ADDAA124000191AG10000GF107991051081004501031001KA1240N+02231MA1999999099181MD1999999+0001REMSYN022 333 20223 58000 69914
0117827650999991993031918004-07333-047467FM-12+021299999V0202301N00261007501CN0100001N9+03071+02571101201ADDAA106000091AG14018AY191061AY221061GF107991051091008001021001MA1999999098821MD1999999-0071MW1171REMSYN010 333 59007
0139827650999991993032012004-07333-047467FM-12+021299999V0200501N001019999999N0200001N9+02541+02291101771ADDAA124000191AG10000GF106991999021008001021011KA1240N+02291MA1999999099351MD1999999+0111REMSYN022 333 20229 58011 69914EQDQ01+000002SCOTLC
0101827650999991993032018004-07333-047467FM-12+021299999V0202701N00151220001CN0200001N9+02981+02491101201ADDAA106015091AG10000GF102991021031008001001001MA1999999098821MD1999999+0001REMSYN016 333 58000 60151
0142827650999991993032100004-07333-047467FM-12+021299999V0200501N00101045001CN0200001N9+02221+02171101501ADDAA106006091AG10006AY161061AY291061GF108991031031008001021999KA1240M+03101MA1999999099081MD1999999+0001MW1511REMSYN022 333 10310 58000 60061
0120827650999991993032112004-07333-047467FM-12+021299999V0200501N00101012001CN0200001N9+02481+02271101651ADDAA124021091AG10000GF107991061081008001041001KA1240N+02141MA1999999099261MD1999999-0091REMSYN022 333 20214 59009 60214
0095827650999991993032118004-07333-047467FM-12+021299999V0201801N00151220001CN0200001N9+03101+02541101181ADDAA106000091AG14000GF103991031021008001041001MA1999999098801MD1999999-0021REMSYN010 333 59002
0142827650999991993032200004-07333-047467FM-12+021299999V0203201N00151220001CN0200001N9+02361+02281101381ADDAA106002091AG10006AY161061AY291061GF101991011051008001001001KA1240M+03161MA1999999098961MD1999999-0121MW1131REMSYN022 333 10316 59012 60021
0120827650999991993032212004-07333-047467FM-12+021299999V0200901N00051006001CN0200001N9+02561+02381101661ADDAA124002091AG10000GF107991061081002501041999KA1240N+02231MA1999999099241MD1999999-0021REMSYN022 333 20223 59002 60024
0101827650999991993032218004-07333-047467FM-12+021299999V0200901N00261012001CN0200001N9+02641+02271101241ADDAA106010091AG10000GF108991061081008001021999MA1999999098931MD1999999+0131REMSYN016 333 58013 60101
0120827650999991993032312004-07333-047467FM-12+021299999V0200901N00101004201CN0200001N9+02371+02261101671ADDAA124010091AG10000GF108991071071004501031999KA1240N+02181MA1999999099251MD1999999+0011REMSYN022 333 20218 58001 60104
0095827650999991993032318004-07333-047467FM-12+021299999V0200901N00151045001CN0200001N9+03141+02451101121ADDAA106000091AG14000GF106991041031008001021041MA1999999098741MD1999999-0191REMSYN010 333 59019
0114827650999991993032412004-07333-047467FM-12+021299999V0203201N00101007501CN0200001N9+02701+02411101471ADDAA106000091AG14000GF105991051021008001001001KA1240N+02241MA1999999099071MD1999999-0181REMSYN016 333 20224 59018
0123827650999991993032418004-07333-047467FM-12+021299999V0203601N00101045001CN0040001N9+02601+02291101021ADDAA124007091AG10006AY161061AY221061GF106991041071004501021031MA1999999098631MD1999999-0111MW1921REMSYN016 333 59011 60074
0131827650999991993032512004-07333-047467FM-12+021299999V0203601N00151045001CN0200001N9+02721+02201101501ADDAA106000091AA224009091AG10000GF106991031011008001021031KA1240N+02261MA1999999099101MD1999999+0031REMSYN022 333 20226 58003 60094
0095827650999991993032518004-07333-047467FM-12+021299999V0202701N00151007501CN0200001N9+03021+02481101061ADDAA106000091AG14000GF108991051091008001021999MA1999999098681MD1999999+0031REMSYN010 333 58003
0120827650999991993032618004-07333-047467FM-12+021299999V0203201N00261007501CN0200001N9+02841+02521101061ADDAA106999999AG14000GF108991061031008001021999MA1999999098681MD1999999+0001MW1951REMSYN010 333 58000EQDQ01  00002PRCP06
0120827650999991993032712004-07333-047467FM-12+021299999V0200901N00151220001CN0200001N9+02531+02311101411ADDAA124017091AG10000GF104991031011008001031001KA1240N+02171MA1999999098991MD1999999-0121REMSYN022 333 20217 59012 60174
0123827650999991993032718004-07333-047467FM-12+021299999V0203201N00101007501CN0100001N9+03161+02501100951ADDAA106001091AG10006AY161061AY221061GF106991051021008001031001MA1999999098581MD1999999-0101MW1171REMSYN016 333 59010 60011
0120827650999991993032812004-07333-047467FM-12+021299999V0203601N00151012001CN0200001N9+02641+02331101501ADDAA124001091AG10000GF107991061081008001081021KA1240N+02341MA1999999099091MD1999999+0101REMSYN022 333 20234 58010 60014
0117827650999991993032818004-07333-047467FM-12+021299999V0202301N00211007501CN0200001N9+02991+02371101101ADDAA106000091AG14000AY121061AY221061GF108991051031008001021999MA1999999098711MD1999999+0131MW1171REMSYN010 333 58013
0114827650999991993032900004-07333-047467FM-12+021299999V0200501N00151012001CN0200001N9+02471+02361101231ADDAA106000091AG14000GF107991061081008001021001KA1240M+03011MA1999999098831MD1999999-0051REMSYN016 333 10301 59005
0114827650999991993032912004-07333-047467FM-12+021299999V0203601N00051045001CN0200001N9+02621+02351101501ADDAA106000091AG14000GF105991031011008001061031KA1240N+02281MA1999999099091MD1999999+0001REMSYN016 333 20228 58000
0123827650999991993032918004-07333-047467FM-12+021299999V0202701N00051045001CN0100001N9+02591+02401101081ADDAA106026091AG10006AY161061AY221061GF106991041031008001041001MA1999999098681MD1999999-0031MW1151REMSYN016 333 59003 60261
0142827650999991993033000004-07333-047467FM-12+021299999V0203601N00151007501CN0200001N9+02421+02371101291ADDAA106002091AG10006AY161061AY221061GF107991051021008001021001KA1240M+03081MA1999999098881MD1999999+0051MW1131REMSYN022 333 10308 58005 60021
0120827650999991993033012004-07333-047467FM-12+021299999V0203601N00151045001CN0200001N9+02551+02271101551ADDAA124028091AG10000GF106991041061008001061001KA1240N+02341MA1999999099141MD1999999+0051REMSYN022 333 20234 58005 60284
0117827650999991993033018004-07333-047467FM-12+021299999V0203201N00151007501CN0100001N9+02731+02431101081ADDAA106000091AG14000AY121061AY221061GF107991051031008001021001MA1999999098681MD1999999+0001MW1171REMSYN010 333 58000
0142827650999991993033100004-07333-047467FM-12+021299999V0203201N00101004201CN0200001N9+02511+02471101391ADDAA106001091AG10006AY161061AY221061GF108991051031004501021999KA1240M+03061MA1999999098991MD1999999+0111MW1131REMSYN022 333 10306 58011 60011
0142827650999991993033112004-07333-047467FM-12+021299999V0203201N00151012001CN0200001N9+02611+02421101511ADDAA124004091AG10006AY161061AY221061GF107991051081008001021001KA1240N+02281MA1999999099101MD1999999-0041MW1031REMSYN022 333 20228 59004 60044
0095827650999991993033118004-07333-047467FM-12+021299999V0202301N00151007501CN0200001N9+03181+02561100961ADDAA106000091AG14000GF105991051091008001001001MA1999999098591MD1999999-0091REMSYN010 333 59009
0120827650999991993040112004-07333-047467FM-12+021299999V0202301N00101012001CN0200001N9+02621+02421101491ADDAA124006091AG10000GF106991051081008001041011KA1240N+02281MA1999999099081MD1999999-0021REMSYN022 333 20228 59002 60064
0095827650999991993040118004-07333-047467FM-12+021299999V0203201N00051045001CN0200001N9+02961+02621100981ADDAA106000091AG14000GF105991031031008001041021MA1999999098601MD1999999+0011REMSYN010 333 58001
0120827650999991993040212004-07333-047467FM-12+021299999V0203601N00101004201CN0200001N9+02501+02401101491ADDAA124027091AG10000GF108991081051004501999999KA1240N+02301MA1999999099071MD1999999-0011REMSYN022 333 20230 59001 60274
0095827650999991993040218004-07333-047467FM-12+021299999V0200501N00101012001CN0200001N9+03001+02601101021ADDAA106000091AG14000GF108991051081008001021999MA1999999098641MD1999999+0041REMSYN010 333 58004
0120827650999991993040300004-07333-047467FM-12+021299999V0200901N00211220001CN0200001N9+02361+99999101231ADDAA106000091AG10000GF103991011031008001041001KA1240M+03121MA1999999098821MD1999999+0041MW1131REMSYN016 333 10312 58004
0114827650999991993040312004-07333-047467FM-12+021299999V0202701N00361220001CN0200001N9+02581+02371101341ADDAA106000091AG14000GF103991021021008001041011KA1240N+02161MA1999999098931MD1999999-0141REMSYN016 333 20216 59014
0114827650999991993040318004-07333-047467FM-12+021299999V0201401N00261012001CN0200001N9+02891+99999100781ADDAA106000091AG14000GF107991051081008001041001MA1999999098411MD1999999-0251REMSYN010 333 59025EQDQ01+999990APOSP 
0114827650999991993040412004-07333-047467FM-12+021299999V0202701N00101012001CN0200001N9+02641+02421101251ADDAA106000091AG14000GF107991051081008001021001KA1240N+02321MA1999999098851MD1999999-0081REMSYN016 333 20232 59008
0123827650999991993040418004-07333-047467FM-12+021299999V0201801N00151009001CN0100001N9+03071+02611100781ADDAA106003091AG10005AY161061AY221061GF107991051081004501021001MA1999999098411MD1999999+0021MW1151REMSYN016 333 58002 60031
0120827650999991993040512004-07333-047467FM-12+021299999V0203201N00051004201CN0200001N9+02521+02341101361ADDAA124037091AG10000GF107991071051004501001001KA1240N+02201MA1999999098941MD1999999+0091REMSYN022 333 20220 58009 60374
0120827650999991993040612004-07333-047467FM-12+021299999V0200901N00051045001CN0200001N9+02591+02351101391ADDAA124010091AG10000GF106991041051008001031001KA1240N+02181MA1999999098981MD1999999+0041REMSYN022 333 20218 58004 60104
0123827650999991993040618004-07333-047467FM-12+021299999V0200901N00261007501CN0100001N9+02991+02581100871ADDAA106005091AG10005AY161061AY221061GF107991071071008001001001MA1999999098481MD1999999+0021MW1161REMSYN016 333 58002 60051
0120827650999991993040712004-07333-047467FM-12+021299999V0201801N00101220001CN0200001N9+02621+02371101291ADDAA124006091AG10000GF101991011011008001001001KA1240N+02161MA1999999098891MD1999999-0091REMSYN022 333 20216 59009 60064
0107827650999991993040718004-07333-047467FM-12+021299999V0202301N000519999999N0200001N9+03181+02661101951ADDAA106002091AG10000GF106991999999008001999999MA1999999099571MD1999999+0091MW1961REMSYN016 333 58009 60021
0120827650999991993040812004-07333-047467FM-12+021299999V0203601N00051220001CN0200001N9+02761+02541101261ADDAA124002091AG10000GF102991021001999999041001KA1240N+02221MA1999999098871MD1999999-0021REMSYN022 333 20222 59002 60024
0139827650999991993040900004-07333-047467FM-12+021299999V0200901N00211220001CN0200001N9+02621+02371101051ADDAA106999999AG14000GF103991031031008001001001KA1240M+03431MA1999999098671MD1999999-0011MW1951REMSYN016 333 10343 59001EQDQ01  00002PRCP06
0114827650999991993040912004-07333-047467FM-12+021299999V0200901N00051045001CN0200001N9+02701+02431101371ADDAA106000091AG14000GF106991041081008001041001KA1240N+02341MA1999999098981MD1999999+0111REMSYN016 333 20234 58011
0107827650999991993040918004-07333-047467FM-12+021299999V0203601N00151007501CN0200001N9+03041+02591100981ADDAA106004091AG10000GF108991051031008001021999MA1999999098601MD1999999+0111MW1961REMSYN016 333 58011 60041
0120827650999991993041012004-07333-047467FM-12+021299999V0201401N00051012001CN0200001N9+02541+02381101561ADDAA124005091AG10000GF107991061081008001031001KA1240N+02341MA1999999099151MD1999999+0171REMSYN022 333 20234 58017 60054
0120827650999991993041112004-07333-047467FM-12+021299999V0201401N00051012001CN0200001N9+02511+02311101571ADDAA124002091AG10000GF107991051081008001041001KA1240N+02241MA1999999099151MD1999999+0001REMSYN022 333 20224 58000 60024
0095827650999991993041118004-07333-047467FM-12+021299999V0202701N00051045001CN0200001N9+03151+02551101121ADDAA106000091AG14000GF105991041031008001041001MA1999999098741MD1999999+0061REMSYN010 333 58006
0114827650999991993041200004-07333-047467FM-12+021299999V0201401N00051012001CN0200001N9+02301+02231101461ADDAA106000091AG14000GF107991051081008001021001KA1240M+03191MA1999999099041MD1999999+0061REMSYN016 333 10319 58006
0114827650999991993041212004-07333-047467FM-12+021299999V0201401N00151045001CN0200001N9+02571+02331101511ADDAA106000091AG14000GF106991041081008001031001KA1240N+02241MA1999999099091MD1999999-0061REMSYN016 333 20224 59006
0095827650999991993041218004-07333-047467FM-12+021299999V0201401N00261220001CN0200001N9+03141+02531101111ADDAA106000091AG14000GF104991031031008001031001MA1999999098731MD1999999-0011REMSYN010 333 59001
0114827650999991993041312004-07333-047467FM-12+021299999V0201801N00051220001CN0200001N9+02741+02501101381ADDAA106000091AG14000GF101991011011008001041001KA1240N+02281MA1999999098991MD1999999-0101REMSYN016 333 20228 59010
0095827650999991993041318004-07333-047467FM-12+021299999V0200901N00151220001CN0200001N9+03181+02611101041ADDAA106000091AG14000GF104991041021008001001001MA1999999098671MD1999999-0061REMSYN010 333 59006
0120827650999991993041412004-07333-047467FM-12+021299999V0203601N00101220001CN0200001N9+02561+02351101341ADDAA124002091AG10000GF101991011001999999041001KA1240N+02211MA1999999098941MD1999999-0051REMSYN022 333 20221 59005 60024
0095827650999991993041418004-07333-047467FM-12+021299999V0200901N00261007501CN0200001N9+03301+02421100991ADDAA106000091AG14000GF105991051021008001001001MA1999999098621MD1999999-0051REMSYN010 333 59005
0114827650999991993041512004-07333-047467FM-12+021299999V0201401N00051220001CN0200001N9+02761+99999101431ADDAA106000091AG14000GF101991011021008001001001KA1240N+02251MA1999999099041MD1999999+0101REMSYN016 333 20225 58010
0095827650999991993041518004-07333-047467FM-12+021299999V0200901N00311220001CN0200001N9+03341+02371101171ADDAA106000091AG14000GF102991021021008001001001MA1999999098701MD1999999+0081REMSYN010 333 58008
0130827650999991993041600004-07333-047467FM-12+021299999V0200901N00051220001CN0200001N9+02641+02551101261ADDAA106000091AG14000GA1001+999999999GF100991001001999999001001KA1240M+03481MA1999999098871MD1999999+0121REMSYN016 333 10348 58012
0114827650999991993041612004-07333-047467FM-12+021299999V0200901N00571220001CN0200001N9+02761+02401101581ADDAA106000091AG14000GF101991011021008001001001KA1240N+02261MA1999999099191MD1999999+0151REMSYN016 333 20226 58015
0107827650999991993041618004-07333-047467FM-12+021299999V0202701N00151045001CN0200001N9+02461+02411101321ADDAA106025091AG10000GF106991041031008001021001MA1999999098901MD1999999+0701MW1961REMSYN016 333 58070 60251
0114827650999991993041700004-07333-047467FM-12+021299999V0203201N00101007501CN0200001N9+02441+02411101381ADDAA106000091AG14000GF106991061051008001001001KA1240M+03201MA1999999098971MD1999999+0101REMSYN016 333 10320 58010
0120827650999991993041712004-07333-047467FM-12+021299999V0203601N00261012001CN0200001N9+02651+02421101591ADDAA124025091AG10000GF107991051081008001041021KA1240N+02251MA1999999099181MD1999999-0011REMSYN022 333 20225 59001 60254
0095827650999991993041718004-07333-047467FM-12+021299999V0203601N00151045001CN0200001N9+03081+02401101131ADDAA106000091AG14000GF107991041021008001041081MA1999999098751MD1999999-0151REMSYN010 333 59015
0114827650999991993041812004-07333-047467FM-12+021299999V0203201N00151012001CN0200001N9+02581+02371101471ADDAA106000091AG14000GF107991061081008001041001KA1240N+02261MA1999999099061MD1999999-0121REMSYN016 333 20226 59012
0114827650999991993042112004-07333-047467FM-12+021299999V0203201N00261220001CN0200001N9+02661+02371101611ADDAA106000091AG14000GF104991041021008001001001KA1240N+02211MA1999999099211MD1999999+0081REMSYN016 333 20221 58008
0095827650999991993042118004-07333-047467FM-12+021299999V0200501N00101045001CN0200001N9+03221+02531101211ADDAA106000091AG14000GF105991041021008001041001MA1999999098831MD1999999+0061REMSYN010 333 58006
0130827650999991993042200004-07333-047467FM-12+021299999V0200901N00101220001CN9999999N9+02531+02401101311ADDAA106000091AG14000GA1001+999999999GF100991001001999999001001KA1240M+03281MA1999999098911MD1999999-0131REMSYN016 333 10328 59013
0114827650999991993042212004-07333-047467FM-12+021299999V0200501N00101220001CN0200001N9+02751+02451101481ADDAA106000091AG14000GF103991011011008001041041KA1240N+02171MA1999999099081MD1999999-0131REMSYN016 333 20217 59013
0095827650999991993042218004-07333-047467FM-12+021299999V0202301N00151045001CN0200001N9+03211+02511101041ADDAA106000091AG14000GF106991041021008001041041MA1999999098661MD1999999-0171REMSYN010 333 59017
0114827650999991993042312004-07333-047467FM-12+021299999V0200501N00261220001CN0200001N9+02771+02381101501ADDAA106000091AG14000GF103991021011008001001041KA1240N+02311MA1999999099101MD1999999+0021REMSYN016 333 20231 58002
0097827650999991993042318004-07333-047467FM-12+021299999V0200901N00261012001CN0100001N9+02771+02361101141ADDAA106000091AG15000AY121061AY211061GF106991061081008001001001MA1999999098741MW1161REMSYN004 333
0153827650999991993042400004-07333-047467FM-12+021299999V0200501N00101220001CN0200001N9+02571+02421101211ADDAA106000291AA299000191AG10005AY161061AY211061GF103991031021008001001001KA1240M+03291MA1999999098821MD1999999+0001MW1131REMSYN022 333 10329 58000 69921
0131827650999991993042412004-07333-047467FM-12+021299999V0203201N00151220001CN0200001N9+02811+02481101391ADDAA124000291AA299000191AG10000GF104991041011008001001001KA1240N+02311MA1999999099001MD1999999-0101REMSYN022 333 20231 59010 69924
0095827650999991993042418004-07333-047467FM-12+021299999V0200501N00311012001CN0200001N9+03031+02461100961ADDAA106000091AG14000GF107991061081008001021001MA1999999098581MD1999999-0161REMSYN010 333 59016
0142827650999991993042512004-07333-047467FM-12+021299999V0201801N00101002101CN0200001N9+02401+02301101531ADDAA124014091AG10005AY161061AY221061GF108991051071002501021999KA1240N+02141MA1999999099121MD1999999+0121MW1031REMSYN022 333 20214 58012 60144
0123827650999991993042518004-07333-047467FM-12+021299999V0202701N00151007501CN0200001N9+02951+02601101081ADDAA106000191AG10005AY161061AY221061GF107991051021008001031001MA1999999098681MD1999999+0101MW1011REMSYN016 333 58010 69911
0120827650999991993042612004-07333-047467FM-12+021299999V0203601N00151007501CN0200001N9+02831+02461101391ADDAA124000191AG10000GF107991051011008001031001KA1240N+02381MA1999999099011MD1999999-0111REMSYN022 333 20238 59011 69914
0142827650999991993042712004-07333-047467FM-12+021299999V0201401N00051004201CN0100001N9+02341+02331101581ADDAA124029091AG10005AY161061AY261061GF108991051071004501021999KA1240N+02311MA1999999099161MD1999999+0151MW1611REMSYN022 333 20231 58015 60294
0123827650999991993042718004-07333-047467FM-12+021299999V0203201N00151045001CN0200001N9+03011+02551100981ADDAA106002091AG10005AY161061AY221061GF106991041021008001021001MA1999999098601MD1999999+0011MW1021REMSYN016 333 58001 60021
0114827650999991993043012004-07333-047467FM-12+021299999V0201801N00101007501CN0200001N9+02631+02371101401ADDAA106000091AG14000GF107991061011008001021001KA1240N+02321MA1999999099001MD1999999-0091REMSYN016 333 20232 59009
0142827650999991993050112004-07333-047467FM-12+021299999V0200501N00261002101CN0040001N9+02271+02211101451ADDAA124067091AG10005AY161061AY261061GF108991051051002501021999KA1240N+02261MA1999999099041MD1999999+0041MW1611REMSYN022 333 20226 58004 60674
0123827650999991993050118004-07333-047467FM-12+021299999V0202701N00101002101CN0200001N9+02471+02361101211ADDAA106012091AG10005AY161061AY221061GF107991061051002501061001MA1999999098791MD1999999+0221MW1031REMSYN016 333 58022 60121
0120827650999991993050212004-07333-047467FM-12+021299999V0201401N00151045001CN0200001N9+02441+02301101601ADDAA124012091AG10000GF106991041021008001041011KA1240N+02151MA1999999099171MD1999999+0141REMSYN022 333 20215 58014 60124
0101827650999991993050218004-07333-047467FM-12+021299999V0201401N00211045001CN0200001N9+02341+02301101301ADDAA106006091AG10000GF108991041051008001021999MA1999999098871MD1999999+0081REMSYN016 333 58008 60061
0120827650999991993050318004-07333-047467FM-12+021299999V0200901N00211007501CN0200001N9+02681+02481101111ADDAA106999999AG14000GF107991051031008001041001MA1999999098711MD1999999-0161MW1951REMSYN010 333 59016EQDQ01  00002PRCP06
0114827650999991993050400004-07333-047467FM-12+021299999V0202701N00151007501CN0200001N9+02441+02391101271ADDAA106000091AG14000GF105991051011008001001001KA1240M+03181MA1999999098861MD1999999-0141REMSYN016 333 10318 59014
0114827650999991993050412004-07333-047467FM-12+021299999V0203601N00151012001CN0200001N9+02691+02351101321ADDAA106000091AG14000GF107991071081008001001001KA1240N+02301MA1999999098921MD1999999-0201REMSYN016 333 20230 59020
0123827650999991993050418004-07333-047467FM-12+021299999V0202301N00151012001CN0200001N9+02671+02441101061ADDAA106010091AG10005AY161061AY221061GF108991051081008001021999MA1999999098681MD1999999-0051MW1031REMSYN016 333 59005 60101
0120827650999991993050512004-07333-047467FM-12+021299999V0201801N00051004201CN0200001N9+02401+02241101711ADDAA124010091AG10000GF108991081071004501999999KA1240N+02321MA1999999099291MD1999999+0371REMSYN022 333 20232 58037 60104
0114827650999991993050600004-07333-047467FM-12+021299999V0202301N00051220001CN0200001N9+02591+02461101321ADDAA106000091AG14000GF102991021011008001001001KA1240M+03141MA1999999098911MD1999999-0171REMSYN016 333 10314 59017
0114827650999991993050612004-07333-047467FM-12+021299999V0209991C00001220001CN0200001N9+02781+02481101391ADDAA106000091AG14000GF101991011011008001001001KA1240N+02291MA1999999099001MD1999999-0291REMSYN016 333 20229 59029
0114827650999991993050712004-07333-047467FM-12+021299999V0200501N00151220001CN0200001N9+02831+02461101281ADDAA106000091AG14000GF103991021071008001041011KA1240N+02431MA1999999098901MD1999999-0101REMSYN016 333 20243 59010
0095827650999991993050718004-07333-047467FM-12+021299999V0200901N00311045001CN0200001N9+03221+02831101081ADDAA106000091AG14000GF107991021021008001021001MA1999999098701MD1999999+0241REMSYN010 333 58024
0095827650999991993050818004-07333-047467FM-12+021299999V0201401N00311220001CN0200001N9+03241+02361101021ADDAA106000091AG14000GF102991021021008001001011MA1999999098641MD1999999-0121REMSYN010 333 59012
0130827650999991993050900004-07333-047467FM-12+021299999V0200501N00151220001CN0200001N9+02561+02471101221ADDAA106000091AG14000GA1001+999999999GF100991001001999999001001KA1240M+03271MA1999999098861MD1999999+0101REMSYN016 333 10327 58010
0114827650999991993050912004-07333-047467FM-12+021299999V0200901N00151220001CN0200001N9+02651+02231101311ADDAA106000091AG14000GF101991001001999999001011KA1240N+02161MA1999999098911MD1999999-0121REMSYN016 333 20216 59012
0095827650999991993050918004-07333-047467FM-12+021299999V0200901N00151220001CN0200001N9+03261+02411100961ADDAA106000091AG14000GF101991011021008001001011MA1999999098591MD1999999-0111REMSYN010 333 59011
0114827650999991993051112004-07333-047467FM-12+021299999V0200901N00101220001CN0200001N9+02951+02491101151ADDAA106000091AG14000GF101991011011008001001001KA1240N+02211MA1999999098781MD1999999-0031REMSYN016 333 20221 59003
0095827650999991993051218004-07333-047467FM-12+021299999V0201401N00151220001CN0200001N9+03311+02471100871ADDAA106000091AG14000GF103991031011008001001001MA1999999098501MD1999999+0061REMSYN010 333 58006
0114827650999991993060700004-07333-047467FM-12+021299999V0200901N00051220001CN0200001N9+02501+02191101421ADDAA106000091AG14000GF101991001001999999001011KA1240M+03341MA1999999099021MD1999999-0091REMSYN016 333 10334 59009
0114827650999991993060712004-07333-047467FM-12+021299999V0201401N00101105001CN0200001N9+02471+01991101641ADDAA106000091AG14000GF106991031001999999041021KA1240N+01941MA1999999099231MD1999999-0071REMSYN016 333 20194 59007
0095827650999991993060718004-07333-047467FM-12+021299999V0201401N00211045001CN0200001N9+03261+02151101271ADDAA106000091AG14000GF106991021021008001041021MA1999999098871MD1999999-0071REMSYN010 333 59007
0114827650999991993060812004-07333-047467FM-12+021299999V0201401N00211007501CN0200001N9+02481+02091101621ADDAA106000091AG14000GF106991061021008001001001KA1240N+01941MA1999999099211MD1999999+0021REMSYN016 333 20194 58002
0095827650999991993060818004-07333-047467FM-12+021299999V0200901N00211220001CN0200001N9+03321+02171101191ADDAA106000091AG14000GF103991021021008001041021MA1999999098811MD1999999-0061REMSYN010 333 59006
0130827650999991993060912004-07333-047467FM-12+021299999V0200901N00211220001CN0200001N9+02771+01891101521ADDAA106000091AG14000GA1001+999999999GF100991001001999999001001KA1240N+02071MA1999999099121MD1999999-0091REMSYN016 333 20207 59009
0095827650999991993060918004-07333-047467FM-12+021299999V0200901N00311220001CN0200001N9+03321+02041101111ADDAA106000091AG14000GF102991021011008001001001MA1999999098731MD1999999-0081REMSYN010 333 59008
0114827650999991993061012004-07333-047467FM-12+021299999V0202301N00211007501CN0200001N9+02401+01991101621ADDAA106000091AG14000GF106991051011008001031001KA1240N+01881MA1999999099201MD1999999+0081REMSYN016 333 20188 58008
0095827650999991993061018004-07333-047467FM-12+021299999V0201401N00311220001CN0200001N9+03361+02141101171ADDAA106000091AG14000GF103991021011008001001041MA1999999098801MD1999999+0051REMSYN010 333 58005
0130827650999991993061300004-07333-047467FM-12+021299999V0201401N00051220001CN0200001N9+02681+02391101371ADDAA106000091AG14000GA1001+999999999GF100991001001999999001001KA1240M+03401MA1999999098981MD1999999-0071REMSYN016 333 10340 59007
0114827650999991993061312004-07333-047467FM-12+021299999V0200901N00511220001CN0200001N9+02801+01751101611ADDAA106000091AG14000GF103991031001999999041001KA1240N+02191MA1999999099221MD1999999+0031REMSYN016 333 20219 58003
0095827650999991993061318004-07333-047467FM-12+021299999V0200901N00361220001CN0200001N9+03361+02111101201ADDAA106000091AG14000GF102991011011008001041011MA1999999098891MD1999999+0021REMSYN010 333 58002
0149827650999991993061400004-07333-047467FM-12+021299999V0201401N00101220001CN0200001N9+02581+02121101411ADDAA106000091AG14000GA1001+999999999GF100991001001999999001001KA1240M+03381MA1999999099001MD1999999+0041REMSYN016 333 10338 58004EQDQ01+999990APOSP 
0114827650999991993061412004-07333-047467FM-12+021299999V0201401N00261220001CN0200001N9+02541+01951101741ADDAA106000091AG14000GF101991001001999999001011KA1240N+02001MA1999999099331MD1999999+0111REMSYN016 333 20200 58011
0095827650999991993061418004-07333-047467FM-12+021299999V0200901N00311220001CN0200001N9+03261+02081101321ADDAA106000091AG14000GF102991021021008001001021MA1999999098931MD1999999-0101REMSYN010 333 59010
0130827650999991993061512004-07333-047467FM-12+021299999V0200901N00461220001CN0200001N9+02701+01941101751ADDAA106000091AG14000GA1001+999999999GF100991001001999999001001KA1240N+02021MA1999999099351MD1999999+0021REMSYN016 333 20202 58002
0095827650999991993061518004-07333-047467FM-12+021299999V0200901N00411220001CN0200001N9+03281+02131101331ADDAA106000091AG14000GF103991031011008001001001MA1999999098941MD1999999+0011REMSYN010 333 58001
0095827650999991993061618004-07333-047467FM-12+021299999V0200901N00411220001CN0200001N9+03231+02331101341ADDAA106000091AG14000GF104991041021008001001001MA1999999098951MD1999999+0011REMSYN010 333 58001
0130827650999991993061712004-07333-047467FM-12+021299999V0201401N00361220001CN0200001N9+02781+01961101701ADDAA106000091AG14000GA1001+999999999GF100991001001999999001001KA1240N+02211MA1999999099301MD1999999-0081REMSYN016 333 20221 59008
0095827650999991993061718004-07333-047467FM-12+021299999V0200501N00411220001CN0200001N9+03281+02031101251ADDAA106000091AG14000GF102991021011008001001001MA1999999098861MD1999999-0091REMSYN010 333 59009
0095827650999991993061818004-07333-047467FM-12+021299999V0201801N00151220001CN0200001N9+03381+02351101341ADDAA106000091AG14000GF103991031021008001001001MA1999999098971MD1999999-0161REMSYN010 333 59016
0114827650999991993062112004-07333-047467FM-12+021299999V0201401N00151012001CN0200001N9+02661+01851101711ADDAA106000091AG14000GF107991061081008001021001KA1240N+02121MA1999999099311MD1999999+0031REMSYN016 333 20212 58003
0130827650999991993062312004-07333-047467FM-12+021299999V0200901N00211220001CN0200001N9+02681+02021101691ADDAA106000091AG14000GA1001+999999999GF100991001001999999001001KA1240N+01991MA1999999099281MD1999999-0011REMSYN016 333 20199 59001
0114827650999991993062318004-07333-047467FM-12+021299999V0203101N020619999999N0200001N9+03391+02121101271ADDAA106000091AG14000GF107991999011008001001001MA1999999098881MD1999999-0081REMSYN010 333 59008EQDQ01+000032SCOTLC
0130827650999991993062500004-07333-047467FM-12+021299999V0201801N00101220001CN0200001N9+02681+01731101461ADDAA106000091AG14000GA1001+999999999GF100991001001999999001001KA1240M+03501MA1999999099071MD1999999-0031REMSYN016 333 10350 59003
0133827650999991993062512004-07333-047467FM-12+021299999V0201401N00101220001CN0200001N9+01821+01821101631ADDAA106000091AG14000GF102991021011008001001001KA1240N+99999MA1999999099231MD1999999-0011REMSYN016 333 20188 59001EQDQ01 +01882ATMN  
0095827650999991993062518004-07333-047467FM-12+021299999V0201401N00151220001CN0200001N9+03431+01561101211ADDAA106000091AG14000GF103991031011008001001001MA1999999098821MD1999999-0091REMSYN010 333 59009
0114827650999991993062612004-07333-047467FM-12+021299999V0201401N00101220001CN0200001N9+02881+02861101511ADDAA106000091AG14000GF102991021011008001001001KA1240N+01991MA1999999099121MD1999999-0111REMSYN016 333 20199 59011
0095827650999991993062618004-07333-047467FM-12+021299999V0201401N00261220001CN0200001N9+03411+01591101171ADDAA106000091AG14000GF104991041021008001001001MA1999999098781MD1999999-0041REMSYN010 333 59004
0114827650999991993062712004-07333-047467FM-12+021299999V0200901N00051220001CN0200001N9+02631+02051101611ADDAA106000091AG14000GF103991031011008001001001KA1240N+01871MA1999999099211MD1999999+0091REMSYN016 333 20187 58009
0114827650999991993062812004-07333-047467FM-12+021299999V0202301N00151007501CN0200001N9+02631+02051101591ADDAA106000091AG14000GF106991061011008001001001KA1240N+01901MA1999999099191MD1999999-0021REMSYN016 333 20190 59002
0114827650999991993063012004-07333-047467FM-12+021299999V0203201N00151220001CN0200001N9+02761+02171101591ADDAA106000091AG14000GF103991001001999999001011KA1240N+02171MA1999999099201MD1999999+0061REMSYN016 333 20217 58006
0095827650999991993063018004-07333-047467FM-12+021299999V0202301N00261007501CN0200001N9+03421+02291101141ADDAA106000091AG14000GF105991051021008001001001MA1999999098761MD1999999-0261REMSYN010 333 59026
0114827650999991993070112004-07333-047467FM-12+021299999V0202301N00101220001CN0200001N9+02561+02191101591ADDAA106000091AG14000GF104991041001999999041001KA1240N+02161MA1999999099181MD1999999-0021REMSYN016 333 20216 59002
0095827650999991993070118004-07333-047467FM-12+021299999V0203601N00211012001CN0200001N9+03431+02261101111ADDAA106000091AG14000GF106991061081008001001001MA1999999098731MD1999999-0031REMSYN010 333 59003
0130827650999991993070200004-07333-047467FM-12+021299999V0200901N00151220001CN0200001N9+02501+02341101341ADDAA106000091AG14000GA1001+999999999GF100991001001999999001001KA1240M+03461MA1999999098941MD1999999-0121REMSYN016 333 10346 59012
0130827650999991993070212004-07333-047467FM-12+021299999V0203201N00101220001CN0200001N9+02701+02281101561ADDAA106000091AG14000GA1001+999999999GF100991001001999999001001KA1240N+02071MA1999999099161MD1999999-0021REMSYN016 333 20207 59002
0103827650999991993070312004-07333-047467FM-12+021299999V0203601N00051220001CN0200001N9+02421+02371101401ADDAG12000GF101991011001999999041001KA1240M+03441MA1999999099001MD1999999+0061REMSYN016 333 10344 58006
0095827650999991993070318004-07333-047467FM-12+021299999V0200501N00261220001CN0200001N9+03361+02391101871ADDAA106000091AG14000GF102991021021008001001001MA1999999098881MD1999999+0071REMSYN010 333 58007
0095827650999991993070418004-07333-047467FM-12+021299999V0200501N00411045001CN0200001N9+03021+02241101221ADDAA106000091AG14000GF106991021021008001021001MA1999999098831MD1999999-0051REMSYN010 333 59005
0130827650999991993070612004-07333-047467FM-12+021299999V0202701N00101220001CN0200001N9+02521+02231101561ADDAA106000091AG14000GA1001+999999999GF100991001001999999001001KA1240N+01991MA1999999099151MD1999999+0071REMSYN016 333 20199 58007
0095827650999991993070618004-07333-047467FM-12+021299999V0201401N00101220001CN0200001N9+03501+02371101171ADDAA106000091AG14000GF102991021021008001001001MA1999999098791MD1999999-0101REMSYN010 333 59010
0130827650999991993070712004-07333-047467FM-12+021299999V0202701N00101220001CN0200001N9+02641+02181101631ADDAA106000091AG14000GA1001+999999999GF100991001001999999001001KA1240N+02061MA1999999099231MD1999999+0081REMSYN016 333 20206 58008
0095827650999991993070718004-07333-047467FM-12+021299999V0201801N00311220001CN0200001N9+03461+02021101171ADDAA106000091AG14000GF103991031021008001001001MA1999999098801MD1999999+0011REMSYN010 333 58001
0130827650999991993070800004-07333-047467FM-12+021299999V0209991C00001220001CN0200001N9+02721+02321101271ADDAA106000091AG14000GA1001+999999999GF100991001001999999001001KA1240M+03501MA1999999098881MD1999999-0121REMSYN016 333 10350 59012
0130827650999991993070812004-07333-047467FM-12+021299999V0201401N00151220001CN0200001N9+02621+01961101561ADDAA106000091AG14000GA1001+999999999GF100991001001999999001001KA1240N+01901MA1999999099161MD1999999-0071REMSYN016 333 20190 59007
0095827650999991993070818004-07333-047467FM-12+021299999V0200901N00261220001CN0200001N9+03461+01901101091ADDAA106000091AG14000GF104991041051008001001001MA1999999098711MD1999999-0091REMSYN010 333 59009
0130827650999991993070900004-07333-047467FM-12+021299999V0200901N00211220001CN0200001N9+02801+02151101171ADDAA106000091AG14000GA1001+999999999GF100991001001999999001001KA1240M+03541MA1999999098791MD1999999-0041REMSYN016 333 10354 59004
0130827650999991993070912004-07333-047467FM-12+021299999V0200901N00151220001CN0200001N9+02721+02001101571ADDAA106000091AG14000GA1001+999999999GF100991001001999999001001KA1240N+01851MA1999999099181MD1999999+0021REMSYN016 333 20185 58002
0111827650999991993071218004-07333-047467FM-12+021299999V0201401N00311220001CN0200001N9+03361+01561101261ADDAA106000091AG14000GA1001+999999999GF100991001001999999001001MA1999999098871MD1999999+0041REMSYN010 333 58004
0095827650999991993071318004-07333-047467FM-12+021299999V0200901N00311220001CN0200001N9+03381+01831101401ADDAA106000091AG14000GF104991041021008001001001MA1999999099011MD1999999+0141REMSYN010 333 58014
0114827650999991993071412004-07333-047467FM-12+021299999V0200901N00211007501CN0200001N9+02381+02031101931ADDAA106000091AG14000GF107991061021008001041001KA1240N+02081MA1999999099511MD1999999+0111REMSYN016 333 20208 58011
0095827650999991993071418004-07333-047467FM-12+021299999V0200501N00151007501CN0200001N9+03401+01961101371ADDAA106000091AG14000GF105991051021008001001001MA1999999098991MD1999999-0021REMSYN010 333 59002
0114827650999991993071500004-07333-047467FM-12+021299999V0200901N00051007501CN0200001N9+02661+02311101551ADDAA106000091AG14000GF106991061021008001001001KA1240M+03461MA1999999099141MD1999999-0041REMSYN016 333 10346 59004
0114827650999991993071512004-07333-047467FM-12+021299999V0201401N00151220001CN0200001N9+02781+02111101741ADDAA106000091AG14000GF102991011021008001041011KA1240N+02111MA1999999099341MD1999999-0171REMSYN016 333 20211 59017
0095827650999991993071618004-07333-047467FM-12+021299999V0201401N00211220001CN0200001N9+03461+01601101321ADDAA106000091AG14000GF103991031021008001001001MA1999999098941MD1999999+0061REMSYN010 333 58006
0131827650999991993071912004-07333-047467FM-12+021299999V0200901N00151220001CN0200001N9+02621+01531101911ADDAA106000091AG14000GA1001+999999999GF100991001001999999001001MA1999999099481ME1199999REMSYN016 333 2/180 50//0EQDQ01+999990APOSLP
0095827650999991993071918004-07333-047467FM-12+021299999V0201401N00261220001CN0200001N9+03361+01771101431ADDAA106000091AG14000GF101991011011008001001001MA1999999099031MD1999999-0081REMSYN010 333 59008
0130827650999991993072012004-07333-047467FM-12+021299999V0200901N00151220001CN0200001N9+02821+01581101731ADDAA106000091AG14000GA1001+999999999GF100991001001999999001001KA1240N+02111MA1999999099341MD1999999-0021REMSYN016 333 20211 59002
0095827650999991993072018004-07333-047467FM-12+021299999V0201401N00151220001CN0200001N9+03341+01631101381ADDAA106000091AG14000GF103991031021008001001001MA1999999098991MD1999999-0041REMSYN010 333 59004
0130827650999991993072100004-07333-047467FM-12+021299999V0200901N00101220001CN0200001N9+02601+01871101631ADDAA106000091AG14000GA1001+999999999GF100991001001999999001001KA1240M+03421MA1999999099241MD1999999+0151REMSYN016 333 10342 58015
0130827650999991993072112004-07333-047467FM-12+021299999V0200901N00261220001CN0200001N9+02701+01601101721ADDAA106000091AG14000GA1001+999999999GF100991001001999999001001KA1240N+01871MA1999999099321MD1999999-0021REMSYN016 333 20187 59002
0095827650999991993072118004-07333-047467FM-12+021299999V0200901N00211220001CN0200001N9+03461+01781101411ADDAA106000091AG14000GF102991021011008001001001MA1999999099011MD1999999+0021REMSYN010 333 58002
0130827650999991993072200004-07333-047467FM-12+021299999V0200901N00101220001CN0200001N9+02741+02021101561ADDAA106000091AG14000GA1001+999999999GF100991001001999999001001KA1240M+03481MA1999999099181MD1999999-0061REMSYN016 333 10348 59006
0114827650999991993072212004-07333-047467FM-12+021299999V0200901N00311220001CN0200001N9+02661+01501101731ADDAA106000091AG14000GF104991011001999999041021KA1240N+01871MA1999999099331MD1999999+0011REMSYN016 333 20187 58001
0095827650999991993072218004-07333-047467FM-12+021299999V0200901N00101220001CN0200001N9+03461+01291101291ADDAA106000091AG14000GF102991001001999999041021MA1999999098901MD1999999-0011REMSYN010 333 59001
0114827650999991993072312004-07333-047467FM-12+021299999V0201401N00311220001CN0200001N9+02781+02131101751ADDAA106000091AG14000GF101991011021008001001001KA1240N+02011MA1999999099361MD1999999+0031REMSYN016 333 20201 58003
0114827650999991993072318004-07333-047467FM-12+021299999V0200901N00211220001CN0200001N9+03501+01861101311ADDAA106000091AG14000GF102991999021008001001001MA1999999098931MD1999999+0031REMSYN010 333 58003EQDQ01+000032SCOTLC
0133827650999991993072412004-07333-047467FM-12+021299999V0200901N00311220001CN0200001N9+02921+01531101791ADDAA106000091AG14000GF101991001001999999001011KA1240N+01951MA1999999099381MD1999999+0041REMSYN016 333 20195 58004EQDQ01+999990APOSP 
0114827650999991993072512004-07333-047467FM-12+021299999V0201401N00051045001CN0200001N9+02501+01891101681ADDAA106000091AG14000GF106991021021008001041011KA1240N+01811MA1999999099281MD1999999-0121REMSYN016 333 20181 59012
0095827650999991993072518004-07333-047467FM-12+021299999V0200901N00151105001CN0200001N9+03521+01791101231ADDAA106000091AG14000GF105991021021008001041021MA1999999098851MD1999999-0141REMSYN010 333 59014
0114827650999991993072612004-07333-047467FM-12+021299999V0200501N00101220001CN0200001N9+02621+02051101581ADDAA106000091AG14000GF102991011001999999041021KA1240N+01931MA1999999099181MD1999999-0101REMSYN016 333 20193 59010
0114827650999991993072712004-07333-047467FM-12+021299999V0200501N00151220001CN0200001N9+02681+02111101581ADDAA106000091AG14000GF102991021001999999041001KA1240N+01901MA1999999099181MD1999999+0001REMSYN016 333 20190 58000
0095827650999991993072718004-07333-047467FM-12+021299999V0200501N00151045001CN0200001N9+03461+01921101211ADDAA106000091AG14000GF105991041021008001041001MA1999999098831MD1999999+0121REMSYN010 333 58012
0114827650999991993072800004-07333-047467FM-12+021299999V0200901N00151220001CN0200001N9+02721+02081101421ADDAA106000091AG14000GF103991001001999999001021KA1240M+03581MA1999999099031MD1999999+0041REMSYN016 333 10358 58004
0114827650999991993072812004-07333-047467FM-12+021299999V0200901N00211045001CN0020001N9+02741+02171101831ADDAA106000091AG14000GF105991041021008001041011KA1240N+02001MA1999999099441MD1999999+0261REMSYN016 333 20200 58026
0095827650999991993072818004-07333-047467FM-12+021299999V0200901N00261220001CN0200001N9+03601+01901101321ADDAA106000091AG14000GF102991011021008001041021MA1999999098951MD1999999+0121REMSYN010 333 58012
0114827650999991993072900004-07333-047467FM-12+021299999V0200901N00151220001CN0200001N9+02861+02161101381ADDAA106000091AG14000GF101991001001999999001021KA1240M+03641MA1999999099001MD1999999-0031REMSYN016 333 10364 59003
0130827650999991993072912004-07333-047467FM-12+021299999V0200901N00361220001CN0200001N9+02881+01461101751ADDAA106000091AG14000GA1001+999999999GF100991001001999999001001KA1240N+01971MA1999999099371MD1999999-0071REMSYN016 333 20197 59007
0111827650999991993072918004-07333-047467FM-12+021299999V0201401N00311220001CN0200001N9+03561+01681101221ADDAA106000091AG14000GA1001+999999999GF100991001001999999001001MA1999999098891MD1999999-0061REMSYN010 333 59006
0130827650999991993073000004-07333-047467FM-12+021299999V0201401N00101220001CN0200001N9+02801+02081101511ADDAA106000091AG14000GA1001+999999999GF100991001001999999001001KA1240M+03601MA1999999099131MD1999999+0131REMSYN016 333 10360 58013
0111827650999991993073018004-07333-047467FM-12+021299999V0201401N00261220001CN0200001N9+03461+01731101311ADDAA106000091AG14000GA1001+999999999GF100991001001999999001001MA1999999098921MD1999999+0031REMSYN010 333 58003
0130827650999991993073112004-07333-047467FM-12+021299999V0201401N00151220001CN0200001N9+02641+01481101481ADDAA106000091AG14000GA1001+999999999GF100991001001999999001001KA1240N+01821MA1999999099431MD1999999+0031REMSYN016 333 20182 58003
0095827650999991993073118004-07333-047467FM-12+021299999V0201401N00151220001CN0200001N9+03501+02051101251ADDAA106000091AG14000GF101991011011008001001001MA1999999098861MD1999999-0061REMSYN010 333 59006
0095827650999991993080318004-07333-047467FM-12+021299999V0200901N00311220001CN0200001N9+03541+01801101461ADDAA106000091AG14000GF102991021011008001001001MA1999999099081MD1999999+0141REMSYN010 333 58014
0114827650999991993080412004-07333-047467FM-12+021299999V0201401N00151220001CN0200001N9+02861+01921101981ADDAA106000091AG14000GF101991011011008001001001KA1240N+02061MA1999999099601MD1999999+0061REMSYN016 333 20206 58006
0095827650999991993080418004-07333-047467FM-12+021299999V0201401N00211007501CN0200001N9+03451+01811101451ADDAA106000091AG14000GF106991061011008001001001MA1999999099061MD1999999-0021REMSYN010 333 59002
0114827650999991993080512004-07333-047467FM-12+021299999V0201401N00101220001CN0200001N9+02481+01781101771ADDAA106000091AG14000GF101991011021008001001001KA1240N+01931MA1999999099361MD1999999-0241REMSYN016 333 20193 59024
0095827650999991993080518004-07333-047467FM-12+021299999V0201401N00311007501CN0200001N9+03541+01711101351ADDAA106000091AG14000GF105991051021008001001001MA1999999098961MD1999999-0101REMSYN010 333 59010
0114827650999991993080612004-07333-047467FM-12+021299999V0200901N00461220001CN0200001N9+02821+01861101661ADDAA106000091AG14000GF104991041011008001001001KA1240N+02471MA1999999099281MD1999999-0081REMSYN016 333 20247 59008
0095827650999991993080618004-07333-047467FM-12+021299999V0201401N00151220001CN0200001N9+03441+01761101191ADDAA106000091AG14000GF104991041011008001001001MA1999999098831MD1999999-0131REMSYN010 333 59013
0095827650999991993080718004-07333-047467FM-12+021299999V0200901N00311220001CN0200001N9+03501+01721101141ADDAA106000091AG14000GF104991021011008001051091MA1999999098761MD1999999-0071REMSYN010 333 59007
0114827650999991993080812004-07333-047467FM-12+021299999V0200501N00311220001CN0200001N9+02621+01621101481ADDAA106000091AG14000GF104991031011008001041001KA1240N+01931MA1999999099101MD1999999-0131REMSYN016 333 20193 59013
0095827650999991993080818004-07333-047467FM-12+021299999V0201401N00311105001CN0200001N9+03451+01841101021ADDAA106000091AG14000GF105991021011008001041041MA1999999098651MD1999999-0111REMSYN010 333 59011
0095827650999991993080918004-07333-047467FM-12+021299999V0201301N00151220001CN0200001N9+03501+01811101011ADDAA106000091AG14000GF105991041021008001001011MA1999999098641MD1999999-0011REMSYN010 333 59001
0149827650999991993081000004-07333-047467FM-12+021299999V0200901N00151220001CN0200001N9+02701+02261101101ADDAA106000091AG14000GA1001+999999999GF100991001001999999001001KA1240M+99999MA1999999098761MD1999999+0111REMSYN016 333 10160 58011EQDQ01 +01602ATMX  
0095827650999991993081018004-07333-047467FM-12+021299999V0200501N00151220001CN0200001N9+03481+01961101071ADDAA106000091AG14000GF103991021021008001001011MA1999999098691MD1999999+0051REMSYN010 333 58005
0130827650999991993081100004-07333-047467FM-12+021299999V0203201N00101220001CN0200001N9+02881+01411101251ADDAA106000091AG14000GA1001+999999999GF100991001001999999001001KA1240M+03561MA1999999098871MD1999999+0111REMSYN016 333 10356 58011
0130827650999991993081112004-07333-047467FM-12+021299999V0203201N00261220001CN0200001N9+03001+02171101441ADDAA106000091AG14000GA1001+999999999GF100991001001999999001001KA1240N+02291MA1999999099071MD1999999-0071REMSYN016 333 20229 59007
0095827650999991993081118004-07333-047467FM-12+021299999V0200501N00211007501CN0200001N9+03661+02271101021ADDAA106000091AG14000GF105991051021008001001001MA1999999098661MD1999999-0031REMSYN010 333 59003
0095827650999991993081218004-07333-047467FM-12+021299999V0200501N00261007501CN0200001N9+03601+01721101101ADDAA106000091AG14000GF106991051021008001021001MA1999999098751MD1999999+0071REMSYN010 333 58007
0114827650999991993081300004-07333-047467FM-12+021299999V0209999999999220001CN0200001N9+02801+01901101471ADDAA106000091AG14000GF104991041021008001001001KA1240M+03701MA1999999099091MD1999999+0201REMSYN016 333 10370 58020
0114827650999991993081312004-07333-047467FM-12+021299999V0200501N00311220001CN0200001N9+02871+02011101751ADDAA106000091AG14000GF104991041021008001001001KA1240N+02171MA1999999099381MD1999999+0161REMSYN016 333 20217 58016
0095827650999991993081318004-07333-047467FM-12+021299999V0200501N00211220001CN0200001N9+03561+01591101201ADDAA106000091AG14000GF104991041021008001001001MA1999999098831MD1999999+0101REMSYN010 333 58010
0165827650999991993081400004-07333-047467FM-12+021299999V0200901N00101220001CN0200001N9+03021+01471101361ADDAA106000091AG14000GA1001+999999999GF100991001001999999001001KA1240M+03621MA1999999999999MD1999999-0091REMSYN016 333 10362 59009EQDQ01+090003APOSP Q02 090003APOSP 
0114827650999991993081412004-07333-047467FM-12+021299999V0200501N00511220001CN0200001N9+02891+01911101711ADDAA106000091AG14000GF103991031021008001001001KA1240N+02231MA1999999095341MD1999999-0031REMSYN016 333 20223 59003
0114827650999991993081418004-07333-047467FM-12+021299999V0200501N00211220001CN0200001N9+03571+01531101141ADDAA106000091AG14000GF104991041021008001001001MA1999999098782MD1999999-0051REMSYN010 333 59005EQDQ01+098783APOSP 
0130827650999991993081500004-07333-047467FM-12+021299999V0203601N00051220001CN0200001N9+02881+01801101281ADDAA106000091AG14000GA1001+999999999GF100991001001999999001001KA1240M+03641MA1999999098911MD1999999-0091REMSYN016 333 10364 59009
0114827650999991993081512004-07333-047467FM-12+021299999V0200501N00101045001CN0200001N9+02821+01941101741ADDAA106000091AG14000GF106991041081008001041021KA1240N+02211MA1999999099361MD1999999+0021REMSYN016 333 20221 58002
0095827650999991993081518004-07333-047467FM-12+021299999V0200501N00261045001CN0200001N9+03421+01651101251ADDAA106000091AG14000GF107991031021008001041071MA1999999098871MD1999999+0091REMSYN010 333 58009
0114827650999991993081600004-07333-047467FM-12+021299999V0202301N00101220001CN0200001N9+02801+02151101431ADDAA106000091AG14000GF102991021051008001001001KA1240M+03501MA1999999099051MD1999999+0141REMSYN016 333 10350 58014
0114827650999991993081618004-07333-047467FM-12+021299999V0201401N00261220001CN0200001N9+02701+02111101731ADDAA106000091AG14000GF103991011021008001041001KA1240N+02191MA1999999099341MD1999999-0021REMSYN016 333 20219 59002
0130827650999991993081800004-07333-047467FM-12+021299999V0209991C00001220001CN0200001N9+02861+01841101371ADDAA106000091AG14000GA1001+999999999GF100991001001999999001001KA1240M+03601MA1999999098991MD1999999+0001REMSYN016 333 10360 58000
0114827650999991993082012004-07333-047467FM-12+021299999V0203201N00261220001CN0200001N9+02971+02131101691ADDAA106000091AG14000GF103991021021008001041001KA1240N+02361MA1999999099311MD1999999-0011REMSYN016 333 20236 59001
0095827650999991993082018004-07333-047467FM-12+021299999V0202301N00261007501CN0200001N9+02911+02041101271ADDAA106000091AG14000GF107991051021008001051001MA1999999098881MD1999999+0021REMSYN010 333 58002
0153827650999991993082100004-07333-047467FM-12+021299999V0203201N00151004201CN0040001N9+02331+02021101491ADDAA106000891AA299001091AG10015AY191061AY221061GF108991051051004501021999KA1240M+03481MA1999999099091MD1999999+0021MW1611REMSYN022 333 10348 58002 69981
0120827650999991993082118004-07333-047467FM-12+021299999V0202701N00211045001CN0200001N9+02761+02281101411ADDAA106999999AG14000GF108991041031008001021999MA1999999099001MD1999999+0121MW1951REMSYN010 333 58012EQDQ01  00002PRCP06
0130827650999991993082300004-07333-047467FM-12+021299999V0202301N00101220001CN0200001N9+02801+01751101451ADDAA106000091AG14000GA1001+999999999GF100991001001999999001001KA1240M+03441MA1999999099061MD1999999-0051REMSYN016 333 10344 59005
0095827650999991993082318004-07333-047467FM-12+021299999V0203601N00211045001CN0200001N9+02761+02071101401ADDAA106000091AG14000GF107991041021008001041041MA1999999099011MD1999999+0081REMSYN010 333 58008
0114827650999991993082412004-07333-047467FM-12+021299999V0200501N00151220001CN0200001N9+02851+01881101771ADDAA106000091AG14000GF103991021011008001001041KA1240N+02181MA1999999099371MD1999999-0011REMSYN016 333 20218 59001
0114827650999991993082500004-07333-047467FM-12+021299999V0203601N00051045001CN0200001N9+02841+02011101301ADDAA106000091AG14000GF106991021011008001031001KA1240M+03531MA1999999099001MD1999999+0011REMSYN016 333 10353 58001
0114827650999991993082512004-07333-047467FM-12+021299999V0200501N00361220001CN0200001N9+02991+01591101701ADDAA106000091AG14000GF102991011011008001041001KA1240N+02181MA1999999099321MD1999999-0051REMSYN016 333 20218 59005
0095827650999991993082518004-07333-047467FM-12+021299999V0201401N00151007501CN0200001N9+03541+01411101211ADDAA106000091AG14000GF105991051021008001001001MA1999999098841MD1999999+0011REMSYN010 333 58001
0114827650999991993082600004-07333-047467FM-12+021299999V0200501N00101220001CN0200001N9+02881+01861101341ADDAA106000091AG14000GF104991041021008001001001KA1240M+03621MA1999999098981MD1999999-0021REMSYN016 333 10362 59002
0095827650999991993082618004-07333-047467FM-12+021299999V0203601N00311007501CN0200001N9+03641+01191101111ADDAA106000091AG14000GF106991061011008001001001MA1999999098751MD1999999-0091REMSYN010 333 59009
0114827650999991993082700004-07333-047467FM-12+021299999V0209991C00001220001CN0200001N9+02861+01791101381ADDAA106000091AG14000GF104991041011008001001001KA1240M+03711MA1999999099011MD1999999+0031REMSYN016 333 10371 58003
0114827650999991993082712004-07333-047467FM-12+021299999V0203601N00261220001CN0200001N9+02901+02041101751ADDAA106000091AG14000GF101991011011008001001001KA1240N+02311MA1999999099971MD1999999+0041REMSYN016 333 20231 58004
0114827650999991993082718004-07333-047467FM-12+021299999V0200501N00051220001CN0200001N9+03521+01701101191ADDAA106000091AG14000GF104991041021008001001001MA1999999098832MD1999999-0081REMSYN010 333 59008EQDQ01+098833APOSP 
0114827650999991993082800004-07333-047467FM-12+021299999V0203601N00151007501CN0200001N9+03061+01831101321ADDAA106000091AG14000GF107991051021008001041001KA1240M+03501MA1999999098961MD1999999-0051REMSYN016 333 10350 59005
0114827650999991993082812004-07333-047467FM-12+021299999V0203601N00311045001CN0200001N9+02781+02041101681ADDAA106000091AG14000GF106991031021008001041011KA1240N+02471MA1999999099331MD1999999-0041REMSYN016 333 20247 59004
0095827650999991993082818004-07333-047467FM-12+021299999V0200501N00101007501CN0200001N9+03501+01681101071ADDAA106000091AG14000GF106991061021008001001001MA1999999098711MD1999999-0121REMSYN010 333 59012
0095827650999991993082918004-07333-047467FM-12+021299999V0203601N00151007501CN0200001N9+03481+01921101091ADDAA106000091AG14000GF106991051021008001021001MA1999999098731MD1999999+0021REMSYN010 333 58002
0136827650999991993083000004-07333-047467FM-12+021299999V0203201N00151012001CN0200001N9+02611+01841101441ADDAA106000091AG14015AY191061AY221061GF108991081081008001999999KA1240M+03531MA1999999099051MD1999999+0101MW1171REMSYN016 333 10353 58010
0114827650999991993083012004-07333-047467FM-12+021299999V0201401N00151007501CN0200001N9+02581+01991101601ADDAA106000091AG14000GF107991061021008001021001KA1240N+02251MA1999999099201MD1999999-0041REMSYN016 333 20225 59004
0136827650999991993083112004-07333-047467FM-12+021299999V0209991C00001220001CN0200001N9+02631+02161101551ADDAA124006091AG10000GA1001+999999999GF100991001001999999001001KA1240N+02091MA1999999099141MD1999999-0061REMSYN022 333 20209 59006 60064
0113827650999991993090100004-07333-047467FM-12+021299999V0202301N00101220001CN0200001N9+02541+02231101341ADDAA106000091AG14000GF103991021011008001021001KA1240M+03291MA1999999999999REMSYN010 333 10329EQDQ01 088903APOSP 
0158827650999991993090112004-07333-047467FM-12+021299999V0200501N00151220001CN0200001N9+02801+02151101571ADDAA106000091AG14000GA1001+999999999GF100991001001999999001001KA1240N+02121MA1999999099171MD1999999+0031ME1311579REMSYN016 333 20212 58003EQDQ01+999990APOSLP
0095827650999991993090118004-07333-047467FM-12+021299999V0203601N00261007501CN0200001N9+03391+01871101111ADDAA106000091AG14000GF105991051021008001001001MA1999999098741MD1999999-0141REMSYN010 333 59014
0114827650999991993090200004-07333-047467FM-12+021299999V0202701N00101220001CN0200001N9+02801+02081101251ADDAA106000091AG14000GF104991021021008001021001KA1240M+03441MA1999999098871MD1999999-0021REMSYN016 333 10344 59002
0114827650999991993090212004-07333-047467FM-12+021299999V0200501N00511045001CN0200001N9+02781+02041101611ADDAA106000091AG14000GF105991031011008001021001KA1240N+02161MA1999999099231MD1999999+0061REMSYN016 333 20216 58006
0095827650999991993090218004-07333-047467FM-12+021299999V0203201N00311007501CN0200001N9+03231+01951101211ADDAA106000091AG14000GF107991061021008001001021MA1999999098841MD1999999+0101REMSYN010 333 58010
0114827650999991993090300004-07333-047467FM-12+021299999V0203601N00101220001CN0200001N9+02721+02171101401ADDAA106000091AG14000GF103991031001022501051001KA1240M+03291MA1999999099021MD1999999+0151REMSYN016 333 10329 58015
0095827650999991993090318004-07333-047467FM-12+021299999V0203601N00151045001CN0200001N9+03161+01961101241ADDAA106000091AG14000GF106991041031008001061001MA1999999098861MD1999999+0021REMSYN010 333 58002
0114827650999991993090412004-07333-047467FM-12+021299999V0203201N00211220001CN0200001N9+02811+02181101561ADDAA106000091AG14000GF104991041011008001001001KA1240N+02281MA1999999099181MD1999999-0191REMSYN016 333 20228 59019
0095827650999991993090418004-07333-047467FM-12+021299999V0202301N00261045001CN0200001N9+02971+01991101301ADDAA106000091AG14000GF106991041091008001021001MA1999999098901MD1999999+0041REMSYN010 333 58004
0142827650999991993090500004-07333-047467FM-12+021299999V0203601N00151220001CN0200001N9+02351+02171101341ADDAA106002091AG10016AY191061AY261061GF104991041021008001001001KA1240M+03331MA1999999098941MD1999999-0011MW1021REMSYN022 333 10333 59001 60021
0120827650999991993090512004-07333-047467FM-12+021299999V0200501N00151012001CN0200001N9+02481+02191101671ADDAA124002091AG10000GF108991051081008001021999KA1240N+02121MA1999999099251MD1999999+0071REMSYN022 333 20212 58007 60024
0120827650999991993090612004-07333-047467FM-12+021299999V0200501N00311220001CN0200001N9+02801+02181101481ADDAA124006091AG10000GF104991031021008001041001KA1240N+02141MA1999999099091MD1999999-0161REMSYN022 333 20214 59016 60064
0095827650999991993090618004-07333-047467FM-12+021299999V0200501N00151045001CN0200001N9+03351+01581101091ADDAA106000091AG14000GF105991031011008001041041MA1999999098721MD1999999-0061REMSYN010 333 59006
0130827650999991993090700004-07333-047467FM-12+021299999V0200901N00101220001CN0200001N9+02771+01861101201ADDAA106000091AG14000GA1001+999999999GF100991001001999999001001KA1240M+03441MA1999999098831MD1999999-0051REMSYN016 333 10344 59005
0114827650999991993090712004-07333-047467FM-12+021299999V0200501N00361220001CN0200001N9+02911+01841101661ADDAA106000091AG14000GF103991011011008001051041KA1240N+02341MA1999999099281MD1999999+0191REMSYN016 333 20234 58019
0095827650999991993090718004-07333-047467FM-12+021299999V0200501N00261007501CN0200001N9+03531+01701101131ADDAA106000091AG14000GF106991061031008001001001MA1999999098771MD1999999+0051REMSYN010 333 58005
0130827650999991993090800004-07333-047467FM-12+021299999V0201801N00051220001CN0200001N9+02901+01951101251ADDAA106000091AG14000GA1001+999999999GF100991001001999999001001KA1240M+03581MA1999999098891MD1999999+0061REMSYN016 333 10358 58006
0114827650999991993090812004-07333-047467FM-12+021299999V0203201N00411045001CN0200001N9+02821+01941101551ADDAA106000091AG14000GF106991041021008001041001KA1240N+02301MA1999999099181MD1999999-0101REMSYN016 333 20230 59010
0095827650999991993090818004-07333-047467FM-12+021299999V0203201N00211045001CN0200001N9+03311+01951101091ADDAA106000091AG14000GF106991041031008001021001MA1999999098721MD1999999-0051REMSYN010 333 59005
0114827650999991993090912004-07333-047467FM-12+021299999V0200501N00311007501CN0040001N9+02651+02141101571ADDAA106000091AG10000GF105991051021008001001001KA1240N+02381MA1999999099181MD1999999+0371REMSYN016 333 20238 58037
0095827650999991993090918004-07333-047467FM-12+021299999V0203201N00261220001CN0200001N9+03261+02081101071ADDAA106000091AG14000GF104991041031008001001001MA1999999098701MD1999999-0021REMSYN010 333 59002
0130827650999991993091012004-07333-047467FM-12+021299999V0200501N00101220001CN0040001N9+02761+02191101591ADDAA106000091AG10000GA1001+999999999GF100991001001999999001001KA1240N+02221MA1999999099201MD1999999+0021REMSYN016 333 20222 58002
0130827650999991993091112004-07333-047467FM-12+021299999V0203601N00211220001CN0200001N9+02881+01941101571ADDAA106000091AG14000GA1001+999999999GF100991001001999999001001KA1240N+01891MA1999999099181MD1999999-0021REMSYN016 333 20189 59002
0095827650999991993091118004-07333-047467FM-12+021299999V0202301N00151007501CN0200001N9+03491+01661101071ADDAA106000091AG14000GF105991051021008001001001MA1999999098691MD1999999+0011REMSYN010 333 58001
0133827650999991993091200004-07333-047467FM-12+021299999V0200501N00101220001CN0200001N9+02781+02041101241ADDAA106000091AG14000GF102991021011008001001001KA1240M+03541MA1999999099872MD1999999+0001REMSYN016 333 10354 58000EQDQ01+099873APOSP 
0114827650999991993091212004-07333-047467FM-12+021299999V0200501N00361045001CN0200001N9+02801+02061101681ADDAA106000091AG14000GF106991041021008001021001KA1240N+01831MA1999999099291MD1999999+0111REMSYN016 333 20183 58011
0117827650999991993091218004-07333-047467FM-12+021299999V0201401N00311004201CN0200001N9+02721+01771101391ADDAA106000091AG14000AY121061AY211061GF108991071091004501021001MA1999999098961MD1999999+0271MW1171REMSYN010 333 58027
0120827650999991993091312004-07333-047467FM-12+021299999V0200901N00051220001CN0200001N9+02721+02101101681ADDAA124005091AG10000GF104991031021008001011001KA1240N+02161MA1999999099271MD1999999-0021REMSYN022 333 20216 59002 60054
0095827650999991993091318004-07333-047467FM-12+021299999V0200501N00211045001CN0200001N9+03441+01721101101ADDAA106000091AG14000GF106991041031008001061001MA1999999098731MD1999999-0231REMSYN010 333 59023
0095827650999991993091418004-07333-047467FM-12+021299999V0200501N00151045001CN0200001N9+03411+01401101031ADDAA106000091AG14000GF106991031021008001041021MA1999999098671MD1999999-0061REMSYN010 333 59006
0133827650999991993091512004-07333-047467FM-12+021299999V0200901N00361220001CN0200001N9+03001+01451101641ADDAA106000091AG14000GF103991031001012501041001KA1240N+02121MA1999999099251MD1999999+0081REMSYN016 333 20212 58008EQDQ01+999990APOSP 
0095827650999991993091518004-07333-047467FM-12+021299999V0201401N00151045001CN0200001N9+03451+01431101111ADDAA106000091AG14000GF105991031021008001051021MA1999999098741MD1999999+0071REMSYN010 333 58007
0130827650999991993091600004-07333-047467FM-12+021299999V0209991C00001220001CN0200001N9+02941+01761101211ADDAA106000091AG14000GA1001+999999999GF100991001001999999001001KA1240M+03581MA1999999098851MD1999999+0011REMSYN016 333 10358 58001
0130827650999991993091612004-07333-047467FM-12+021299999V0200501N00051220001CN0200001N9+02861+01751101571ADDAA106000091AG14000GA1001+999999999GF100991001001999999001001KA1240N+02111MA1999999099201MD1999999-0081REMSYN016 333 20211 59008
0095827650999991993091618004-07333-047467FM-12+021299999V0200501N00261220001CN0200001N9+03581+01441101031ADDAA106000091AG14000GF104991041031008001001001MA1999999098671MD1999999-0071REMSYN010 333 59007
0114827650999991993091712004-07333-047467FM-12+021299999V0203601N00261220001CN0200001N9+02941+01881101511ADDAA106000091AG14000GF102991001001999999001041KA1240N+02191MA1999999099141MD1999999-0061REMSYN016 333 20219 59006
0095827650999991993091718004-07333-047467FM-12+021299999V0203601N00151007501CN0200001N9+03621+01531101011ADDAA106000091AG14000GF105991051021008001001001MA1999999098651MD1999999-0021REMSYN010 333 59002
0130827650999991993091800004-07333-047467FM-12+021299999V0200501N00101220001CN0200001N9+03801+01391101041ADDAA106000091AG14000GA1001+999999999GF100991001001999999001001KA1240M+03801MA1999999098721MD1999999-0131REMSYN016 333 10380 59013
0114827650999991993091812004-07333-047467FM-12+021299999V0203201N00211220001CN0200001N9+02981+02121101391ADDAA106000091AG14000GF104991031021008001021001KA1240N+02351MA1999999099071MD1999999-0071REMSYN016 333 20235 59007
0095827650999991993091818004-07333-047467FM-12+021299999V0203201N00311220001CN0200001N9+03331+02001100921ADDAA106000091AG14000GF104991041021008001001001MA1999999098561MD1999999-0091REMSYN010 333 59009
0114827650999991993091912004-07333-047467FM-12+021299999V0203601N00101220001CN0200001N9+02871+02191101301ADDAA106000091AG14000GF103991031021008001001001KA1240N+02441MA1999999098941MD1999999-0141REMSYN016 333 20244 59014
0117827650999991993091918004-07333-047467FM-12+021299999V0201401N00721012001CN0200001N9+02581+01851100971ADDAA106000091AG10000AY121061AY221061GF108991051081008001021999MA1999999098571MD1999999+0011MW1131REMSYN010 333 58001
0142827650999991993092000004-07333-047467FM-12+021299999V0201801N00211012001CN0200001N9+02301+02141101291ADDAA106003091AG10005AY161061AY251061GF108991081081008001999999KA1240M+03431MA1999999098891MD1999999+0211MW1131REMSYN022 333 10343 58021 60031
0095827650999991993092018004-07333-047467FM-12+021299999V0203601N00151045001CN0200001N9+03131+01601101061ADDAA106000091AG14000GF106991031021008001021041MA1999999098671MD1999999+0101REMSYN010 333 58010
0114827650999991993092100004-07333-047467FM-12+021299999V0202301N00211220001CN0200001N9+02421+02151101351ADDAA106000091AG14000GF104991021021008001021001KA1240M+03141MA1999999098951MD1999999+0061REMSYN016 333 10314 58006
0094827650999991993092112004-07333-047467FM-12+021299999V0202301N00101012001CN0200001N9+02401+02131101641ADDAA106000091AG14000GF107991071081008001001001KA1240N+02101MA1999999099221REMSYN010 333 20210
0142827650999991993092200004-07333-047467FM-12+021299999V0203201N00101045001CN0200001N9+02651+02161101321ADDAA106001091AG10005AY161061AY221061GF106991041021008001041001KA1240M+03451MA1999999098911MD1999999-0041MW1021REMSYN022 333 10345 59004 60011
0120827650999991993092212004-07333-047467FM-12+021299999V0203201N00101220001CN0200001N9+02781+02011101451ADDAA124001091AG10000GF102991021011008001001001KA1240N+02211MA1999999099071MD1999999-0151REMSYN022 333 20221 59015 60014
0100827650999991993092300004-07333-047467FM-12+021299999V0201801N00101220001CN0200001N9+02681+02161101261ADDAA106000091AG14000GF103991031011008001001001KA1240M+03541MA1999999098881REMSYN016 333 10354 5/7/1
0114827650999991993092312004-07333-047467FM-12+021299999V0203601N00051220001CN0200001N9+02821+02101101451ADDAA106000091AG14000GF104991041011008001001001KA1240N+02311MA1999999099071MD1999999+0001REMSYN016 333 20231 58000
0114827650999991993092412004-07333-047467FM-12+021299999V0202701N00211007501CN0200001N9+02701+02171101451ADDAA106000091AG14000GF108991051011008001051001KA1240N+02231MA1999999099061MD1999999-0011REMSYN016 333 20223 59001
0114827650999991993092512004-07333-047467FM-12+021299999V0200501N00151012001CN0200001N9+02611+02031101611ADDAA106000091AG14000GF108991051081008001021999KA1240N+02321MA1999999099211MD1999999+0151REMSYN016 333 20232 58015
0114827650999991993092612004-07333-047467FM-12+021299999V0203201N00101045001CN0200001N9+02881+02161101611ADDAA106000091AG14000GF106991041021008001011001KA1240N+02261MA1999999099231MD1999999+0021REMSYN016 333 20226 58002
0095827650999991993092618004-07333-047467FM-12+021299999V0203601N00211007501CN0200001N9+03461+01981101121ADDAA106000091AG14000GF106991061021008001001001MA1999999098761MD1999999-0011REMSYN010 333 59001
0114827650999991993092712004-07333-047467FM-12+021299999V0203601N00311045001CN0200001N9+02841+02191101661ADDAA106000091AG14000GF107991031021008001021001KA1240N+02211MA1999999099301MD1999999-0031REMSYN016 333 20221 59003
0139827650999991993092912004-07333-047467FM-12+021299999V0200901N00101012001CN0200001N9+02541+02331101491ADDAA124021091AG10000GF107991071081008001001001KA1240N+02141MA1999999099071MD1999999-0021REMSYN022 333 20214 59002 60214EQDQ01+999990APOSP 
0114827650999991993093000004-07333-047467FM-12+021299999V0201801N00101220001CN0200001N9+02781+02321101121ADDAA106000091AG14000GF103991031011008001001001KA1240M+03331MA1999999098731MD1999999-0131REMSYN016 333 10333 59013
