0114827840999991993010212004-07317-039300FM-12+040999999V0200901N00261220001CN0200001N9+02821+01711101301ADDAA106000091AG14000GF101991011011008001001001KA1240N+02291MA1999999096671MD1999999-0021REMSYN016 333 20229 59002
0095827840999991993010218004-07317-039300FM-12+040999999V0200901N00211220001CN0200001N9+03461+01291100771ADDAA106000091AG14000GF104991041021008001001001MA1999999096171MD1999999+0001REMSYN010 333 58000
0095827840999991993010918004-07317-039300FM-12+040999999V0203601N00101220001CN0200001N9+03361+01691100811ADDAA106000091AG14000GF104991041021008001001001MA1999999096191MD1999999-0011REMSYN010 333 59001
0101827840999991993011018004-07317-039300FM-12+040999999V0201801N00051012001CN0200001N9+02991+01951100881ADDAA106001091AG10000GF108991051081008001031001MA1999999096251MD1999999+0061REMSYN016 333 58006 60011
0095827840999991993011418004-07317-039300FM-12+040999999V0200901N00511045001CN0200001N9+03241+01671100931ADDAA106000091AG14000GF105991041021012501011001MA1999999096311MD1999999-0071REMSYN010 333 59007
0114827840999991993011512004-07317-039300FM-12+040999999V0201401N00151220001CN0200001N9+02641+01881101341ADDAA106000091AG14000GF101991011011008001001001KA1240N+02201MA1999999096691MD1999999-0051REMSYN016 333 20220 59005
0142827840999991993011912004-07317-039300FM-12+040999999V0201401N00051007501CN0040001N9+02261+02181101431ADDAA124045091AG10019AY191061AY261061GF108991081071008001999999KA1240N+02041MA1999999096751MD1999999-0161MW1021REMSYN022 333 20204 59016 60454
0114827840999991993012112004-07317-039300FM-12+040999999V0200501N00261012001CN0200001N9+02451+01971101381ADDAA106000091AG14000GF108991081081008001999999KA1240N+02331MA1999999096711MD1999999-0041REMSYN016 333 20233 59004
0095827840999991993012118004-07317-039300FM-12+040999999V0200501N00151220001CN0200001N9+03121+01991100871ADDAA106000091AG14000GF104991041021008001001001MA1999999096251MD1999999+0041REMSYN010 333 58004
0095827840999991993012918004-07317-039300FM-12+040999999V0200901N00211045001CN0200001N9+03341+01401100921ADDAA106000091AG14000GF107991011011008001021001MA1999999096301MD1999999-0051REMSYN010 333 59005
0095827840999991993020218004-07317-039300FM-12+040999999V0203601N00151012001CN0200001N9+03201+01961100901ADDAA106000091AG14000GF107991061081008001031001MA1999999096281MD1999999-0111REMSYN010 333 59011
0095827840999991993020318004-07317-039300FM-12+040999999V0203201N00101220001CN0200001N9+03111+01971100871ADDAA106000091AG14000GF103991031021008001001001MA1999999096251MD1999999-0031REMSYN010 333 59003
0114827840999991993020412004-07317-039300FM-12+040999999V0203601N00211007501CN0200001N9+02441+01971101401ADDAA106000091AG14000GF108991081051008001999999KA1240N+02371MA1999999096731MD1999999+0041REMSYN016 333 20237 58004
0075827840999991993020518004-07317-039300FM-12+040999999V0200901N002119999999N0200001N9+03361+01811999999ADDAA106000091AG14000GF106991999999012501999999MA1999999096221REMSYN004 333
0142827840999991993020812004-07317-039300FM-12+040999999V0200901N00261220001CN0200001N9+02631+01931101441ADDAA124023091AG10019AY191061AY261061GF101991011011008001001001KA1240N+02291MA1999999096781MD1999999+0081MW1011REMSYN022 333 20229 58008 60234
0114827840999991993021012004-07317-039300FM-12+040999999V0200501N00311220001CN0200001N9+02691+01861101381ADDAA106000091AG14000GF103991011011008001071001KA1240N+02251MA1999999096741MD1999999-0021REMSYN016 333 20225 59002
0095827840999991993021018004-07317-039300FM-12+040999999V0200501N00261220001CN0200001N9+03421+01611100821ADDAA106000091AG14000GF102991021011008001001001MA1999999096221MD1999999+0001REMSYN010 333 58000
0095827840999991993021118004-07317-039300FM-12+040999999V0203201N00211012001CN0200001N9+03291+01701100691ADDAA106000091AG14000GF106991061021012501001001MA1999999096091MD1999999-0131REMSYN010 333 59013
0161827840999991993021412004-07317-039300FM-12+040999999V0200501N00511007501CN0200001N9+02281+02071101301ADDAA124027091AG10006AY161061AY221061GF108991999071008001071071KA1240N+02091MA1999999096631MD1999999+0141MW1021REMSYN022 333 20209 58014 60274EQDQ01+000082SCOTLC
0095827840999991993021418004-07317-039300FM-12+040999999V0200901N00051012001CN0200001N9+02761+02211100921ADDAA106000091AG14000GF106991061061012501001001MA1999999096061MD1999999+0331REMSYN010 333 58033
0136827840999991993021612004-07317-039300FM-12+040999999V0200501N00101007501CN0010001N9+02491+02151101161ADDAA106000091AG15000AY121061AY221061GF108991081071008001999999KA1240N+02371MA1999999096511MD1999999+0021MW1161REMSYN016 333 20237 58002
0095827840999991993021718004-07317-039300FM-12+040999999V0203601N00151045001CN0200001N9+02931+01961100711ADDAA106000091AG14000GF108991041081008001071999MA1999999096091MD1999999+0111REMSYN010 333 58011
0133827840999991993022112004-07317-039300FM-12+040999999V0203601N001519999999N0200001N9+02661+02021101501ADDAA106000091AG14000GF106991999021999999001001KA1240N+02021MA1999999096841MD1999999+0031REMSYN016 333 20202 58003EQDQ01+000072SCOTLC
0095827840999991993022118004-07317-039300FM-12+040999999V0200901N00211220001CN0200001N9+03401+01851101021ADDAA106000091AG14000GF104991041021012501001001MA1999999096401MD1999999-0051REMSYN010 333 59005
0142827840999991993022312004-07317-039300FM-12+040999999V0202701N00051007501CN0040001N9+02271+02191101321ADDAA124048091AG10019AY191061AY261061GF108991081071008001999999KA1240N+02131MA1999999096641MD1999999-0221MW1201REMSYN022 333 20213 59022 60484
0142827840999991993022612004-07317-039300FM-12+040999999V0202701N00151007501CN0200001N9+02211+02151101451ADDAA124042091AG10019AY191061AY261061GF108991071071008001031999KA1240N+01981MA1999999096751MD1999999+0181MW1021REMSYN022 333 20198 58018 60424
0095827840999991993022618004-07317-039300FM-12+040999999V0203601N00151045001CN0200001N9+02921+02221100981ADDAA106000091AG14000GF105991021021008001031001MA1999999096341MD1999999+0031REMSYN010 333 58003
0142827840999991993022812004-07317-039300FM-12+040999999V0200501N00151012001CN0200001N9+02461+02271101371ADDAA124030091AG10006AY161061AY221061GF108991081081008001999999KA1240N+02121MA1999999096711MD1999999-0041MW1021REMSYN022 333 20212 59004 60304
0114827840999991993030112004-07317-039300FM-12+040999999V0203201N00151012001CN0200001N9+02521+02211101141ADDAA106000091AG14000GF108991081081008001999999KA1240N+02301MA1999999096491MD1999999-0221REMSYN016 333 20230 59022
0114827840999991993030212004-07317-039300FM-12+040999999V0201401N00051012001CN0200001N9+02511+02231101261ADDAA106000091AG14000GF107991071081008001001001KA1240N+02321MA1999999096601MD1999999+0111REMSYN016 333 20232 58011
0111827840999991993030518004-07317-039300FM-12+040999999V0202701N00151220001CN0200001N9+03041+02181100911ADDAA106000091AG14000GA1001+999999999GF100991001001999999001001MA1999999096281MD1999999-0081REMSYN010 333 59008
0153827840999991993030612004-07317-039300FM-12+040999999V0200501N00151220001CN0200001N9+02661+01921101481ADDAA124000491AA299000591AG10001AY151061AY211061GF102991021011008001001001KA1240N+02241MA1999999096811MD1999999+0081MW1011REMSYN022 333 20224 58008 69944
0114827840999991993030712004-07317-039300FM-12+040999999V0201401N00211012001CN0200001N9+02581+02041101561ADDAA106000091AG14000GF108991081081008001999999KA1240N+02361MA1999999096891MD1999999+0081REMSYN016 333 20236 58008
0095827840999991993030718004-07317-039300FM-12+040999999V0200501N00211220001CN0200001N9+03241+02031100961ADDAA106000091AG14000GF102991021021012501001001MA1999999096341MD1999999-0031REMSYN010 333 59003
0142827840999991993030812004-07317-039300FM-12+040999999V0203201N00101220001CN0200001N9+02521+02111101501ADDAA124006091AG10006AY161061AY221061GF104991041021008001001001KA1240N+02141MA1999999096821MD1999999-0071MW1011REMSYN022 333 20214 59007 60064
0114827840999991993030912004-07317-039300FM-12+040999999V0200501N00101220001CN9999999N9+01381+99999101441ADDAA106000091AG14000GF102991021011008001001001KA1240M+03171MA1999999096571MD1999999-0041REMSYN016 333 10317 59004
0114827840999991993031212004-07317-039300FM-12+040999999V0203601N00101007501CN0200001N9+02661+02071101431ADDAA106000091AG14000GF106991061021008001001001KA1240N+02191MA1999999096761MD1999999-0041REMSYN016 333 20219 59004
0142827840999991993031412004-07317-039300FM-12+040999999V0200901N00051007501CN0200001N9+02561+02151101451ADDAA124000191AG13000AY121061AY211061GF108991081021008001999999KA1240N+02251MA1999999096781MD1999999+0001MW1051REMSYN022 333 20225 58000 69914
0114827840999991993031712004-07317-039300FM-12+040999999V0203601N00151045001CN0200001N9+02491+02171101381ADDAA106000091AG14000GF106991041081008001061001KA1240N+02191MA1999999096711MD1999999+0031REMSYN016 333 20219 58003
0095827840999991993031918004-07317-039300FM-12+040999999V0200901N00151220001CN0200001N9+03241+01961100881ADDAA106000091AG14000GF104991041021012501001001MA1999999096261MD1999999-0041REMSYN010 333 59004
0114827840999991993032118004-07317-039300FM-12+040999999V0203601N00151007501CN0200001N9+02561+02111101491ADDAA106000091AG14000GF108991081071008001999999KA1240N+02321MA1999999096821MD1999999-0031REMSYN016 333 20232 59003
0142827840999991993032212004-07317-039300FM-12+040999999V0203601N00151007501CN0200001N9+02581+02061101451ADDAA124001091AG10006AY161061AY211061GF106991061021008001001001KA1240N+02261MA1999999096781MD1999999-0041MW1021REMSYN022 333 20226 59004 60014
0114827840999991993032312004-07317-039300FM-12+040999999V0201401N00211220001CN0200001N9+02761+01801101371ADDAA106000091AG14000GF101991011011008001001001KA1240N+02041MA1999999096711MD1999999-0071REMSYN016 333 20204 59007
0114827840999991993032512004-07317-039300FM-12+040999999V0203601N00211007501CN0200001N9+02701+02131101281ADDAA106000091AG14000GF105991051021008001001001KA1240N+02151MA1999999096621MD1999999-0081REMSYN016 333 20215 59008
0095827840999991993032518004-07317-039300FM-12+040999999V0200901N00151220001CN0200001N9+03321+02071100701ADDAA106000091AG14000GF104991041021012501001001MA1999999096101MD1999999-0051REMSYN010 333 59005
0095827840999991993032818004-07317-039300FM-12+040999999V0203201N00151220001CN0200001N9+03011+02271100721ADDAA106000091AG14000GF102991021021008001001001MA1999999096111MD1999999-0031REMSYN010 333 59003
0095827840999991993033118004-07317-039300FM-12+040999999V0203601N00101220001CN0200001N9+03101+02391100751ADDAA106000091AG14000GF103991021021008001071001MA1999999096141MD1999999-0051REMSYN010 333 59005
0095827840999991993040118004-07317-039300FM-12+040999999V0203201N00211220001CN0200001N9+02901+02321100801ADDAA106000091AG14000GF104991021021008001071001MA1999999096181MD1999999+0041REMSYN010 333 58004
0142827840999991993040212004-07317-039300FM-12+040999999V0203601N00211007501CN0040001N9+02401+02231101261ADDAA124012091AG10005AY161061AY221061GF108991081071008001999999KA1240N+02271MA1999999096591MD1999999+0001MW1201REMSYN022 333 20227 58000 60124
0114827840999991993040312004-07317-039300FM-12+040999999V0203601N00101012001CN0200001N9+02591+02231101141ADDAA106000091AG14000GF107991071081008001001001KA1240N+02211MA1999999096481MD1999999-0111REMSYN016 333 20221 59011
0114827840999991993040412004-07317-039300FM-12+040999999V0203601N00151012001CN0200001N9+02621+02211101101ADDAA106000091AG14000GF108991081081008001999999KA1240N+02241MA1999999096441MD1999999-0041REMSYN016 333 20224 59004
0095827840999991993040418004-07317-039300FM-12+040999999V0203601N00211220001CN0200001N9+02961+02021100661ADDAA106000091AG14000GF103991031021012501001001MA1999999096041MD1999999+0011REMSYN010 333 58001
0114827840999991993040512004-07317-039300FM-12+040999999V0200501N00311012001CN0200001N9+02621+02211101231ADDAA106000091AG14000GF107991061081008001051001KA1240N+02251MA1999999096561MD1999999+0121REMSYN016 333 20225 58012
0114827840999991993041012004-07317-039300FM-12+040999999V0200501N00051045001CN0200001N9+02481+02051101431ADDAA106000091AG14000GF108991021021008001071999KA1240N+02101MA1999999096751MD1999999+0151REMSYN016 333 20210 58015
0095827840999991993041118004-07317-039300FM-12+040999999V0200901N00211220001CN0200001N9+03061+01831101011ADDAA106000091AG14000GF103991031061012501001001MA1999999096371MD1999999-0051REMSYN010 333 59005
0133827840999991993041412004-07317-039300FM-12+040999999V0200501N00101220001CN0200001N9+02701+02261101171ADDAA106000091AG14000GF102991999021008001001001KA1240N+02141MA1999999096521MD1999999-0111REMSYN016 333 20214 59011EQDQ01+000072SCOTLC
0130827840999991993041500004-07317-039300FM-12+040999999V0201401N00511220001CN9999999N9+02361+01491101041ADDAA106000091AG14000GA1001+999999999GF100991001001999999001001KA1240M+02771MA1999999090112MD1999999+0061REMSYN016 333 10277 58006
0114827840999991993041612004-07317-039300FM-12+040999999V0201401N00261220001CN0200001N9+02741+01891101451ADDAA106000091AG14000GF101991011011008001001001KA1240N+02251MA1999999096791MD1999999+0001REMSYN016 333 20225 58000
0095827840999991993041818004-07317-039300FM-12+040999999V0201401N00211012001CN0200001N9+03201+02031100711ADDAA106000091AG14000GF106991061021012501001001MA1999999096111MD1999999-0111REMSYN010 333 59011
0114827840999991993042112004-07317-039300FM-12+040999999V0200901N00261220001CN0200001N9+02641+01771101411ADDAA106000091AG14000GF102991021061008001001001KA1240N+01991MA1999999096751MD1999999+0071REMSYN016 333 20199 58007
0095827840999991993042118004-07317-039300FM-12+040999999V0200901N00211220001CN0200001N9+03171+01711101011ADDAA106000091AG14000GF102991011011012501071001MA1999999096381MD1999999+0121REMSYN010 333 58012
0114827840999991993042212004-07317-039300FM-12+040999999V0200901N00101012001CN0200001N9+02601+02121101441ADDAA106000091AG14000GF108991081081008001999999KA1240N+02171MA1999999096771MD1999999+0021REMSYN016 333 20217 58002
0095827840999991993042218004-07317-039300FM-12+040999999V0200901N00151220001CN0200001N9+03181+02191100841ADDAA106000091AG14000GF102991021021012501001001MA1999999096221MD1999999-0161REMSYN010 333 59016
0114827840999991993042300004-07317-039300FM-12+040999999V0201401N00101220001CN9999999N9+02421+02091101191ADDAA106000091AG14000GF101991011021008001001001KA1240M+03271MA1999999096531MD1999999-0101REMSYN016 333 10327 59010
0142827840999991993042312004-07317-039300FM-12+040999999V0201401N00151012001CN0200001N9+02621+02121101391ADDAA124002091AG10005AY161061AY221061GF108991071081008001071999KA1240N+02251MA1999999096721MD1999999-0051MW1021REMSYN022 333 20225 59005 60024
0095827840999991993042318004-07317-039300FM-12+040999999V0201401N00101220001CN0200001N9+03161+02171100841ADDAA106000091AG14000GF104991041021012501001001MA1999999096221MD1999999+0001REMSYN010 333 58000
0111827840999991993042418004-07317-039300FM-12+040999999V0203601N00261220001CN0200001N9+03161+02081100821ADDAA106000091AG14000GA1001+999999999GF100991001001999999001001MA1999999096201MD1999999-0021REMSYN010 333 59002
0095827840999991993042518004-07317-039300FM-12+040999999V0203601N00101012001CN0200001N9+03131+02361100801ADDAA106000091AG14000GF108991081061012501001001MA1999999096171MD1999999-0031REMSYN010 333 59003
0114827840999991993042612004-07317-039300FM-12+040999999V0203601N00051012001CN0200001N9+02651+02331101251ADDAA106000091AG14000GF107991071081008001001001KA1240N+02291MA1999999096591MD1999999-0061REMSYN016 333 20229 59006
0095827840999991993042618004-07317-039300FM-12+040999999V0203601N00051045001CN0200001N9+03011+02461100711ADDAA106000091AG14000GF107991031081008001021001MA1999999096091MD1999999-0081REMSYN010 333 59008
0114827840999991993042700004-07317-039300FM-12+040999999V0201801N00211012001CN9999999N9+02561+02331101011ADDAA106000091AG14000GF107991071081008001001001KA1240M+03251MA1999999096371MD1999999-0091REMSYN016 333 10325 59009
0153827840999991993042712004-07317-039300FM-12+040999999V0203601N00101012001CN0200001N9+02481+02251101331ADDAA124000691AA299000591AG10001AY151061AY221061GF108991081081008001999999KA1240N+02181MA1999999096661MD1999999+0071MW1021REMSYN022 333 20218 58007 69964
0114827840999991993042912004-07317-039300FM-12+040999999V0201401N00311045001CN0200001N9+02681+02111101281ADDAA106000091AG14000GF107991041081008001071001KA1240N+02301MA1999999096621MD1999999-0121REMSYN016 333 20230 59012
0095827840999991993042918004-07317-039300FM-12+040999999V0201401N00211045001CN0200001N9+03041+02121100851ADDAA106000091AG14000GF105991031021008001031001MA1999999096211MD1999999-0111REMSYN010 333 59011
0130827840999991993050100004-07317-039300FM-12+040999999V0203601N00101220001CN9999999N9+02501+02001101071ADDAA106000091AG14000GA1001+999999999GF100991001001999999001001KA1240M+03211MA1999999096421MD1999999-0041REMSYN016 333 10321 59004
0114827840999991993050112004-07317-039300FM-12+040999999V0200501N00361012001CN0200001N9+02621+02071101331ADDAA106000091AG14000GF107991071081008001001001KA1240N+02351MA1999999096671MD1999999+0061REMSYN016 333 20235 58006
0142827840999991993050212004-07317-039300FM-12+040999999V0200501N00101007501CN0200001N9+02401+02151101401ADDAA124018091AG10005AY161061AY221061GF108991081071008001999999KA1240N+02261MA1999999096721MD1999999+0051MW1021REMSYN022 333 20226 58005 60184
0142827840999991993050412004-07317-039300FM-12+040999999V0202701N00051012001CN0200001N9+02481+02271101251ADDAA124006091AG10005AY161061AY211061GF108991081081008001999999KA1240N+02211MA1999999096581MD1999999-0201MW1021REMSYN022 333 20221 59020 60064
0142827840999991993050512004-07317-039300FM-12+040999999V0201401N00051012001CN0200001N9+02571+02351101451ADDAA124001091AG10005AY161061AY221061GF107991071081008001001001KA1240N+02331MA1999999096781MD1999999+0201MW1021REMSYN022 333 20233 58020 60014
0114827840999991993050600004-07317-039300FM-12+040999999V0209991C00001015001CN9999999N9+02381+02311101141ADDAA106000091AG14000GF106991061001017501071001KA1240M+03131MA1999999096481MD1999999+0051REMSYN016 333 10313 58005
0114827840999991993050612004-07317-039300FM-12+040999999V0200901N00311007501CN0200001N9+02661+02161101401ADDAA106000091AG14000GF106991061021008001001001KA1240N+02201MA1999999096731MD1999999-0051REMSYN016 333 20220 59005
0114827840999991993050712004-07317-039300FM-12+040999999V0200501N00211220001CN0200001N9+02551+01981101361ADDAA106000091AG14000GF104991021021008001011001KA1240N+01861MA1999999096681MD1999999-0051REMSYN016 333 20186 59005
0114827840999991993050812004-07317-039300FM-12+040999999V0201401N00411220001CN0200001N9+02591+01901101241ADDAA106000091AG14000GF101991011011008001001001KA1240N+02231MA1999999096581MD1999999-0101REMSYN016 333 20223 59010
0095827840999991993050818004-07317-039300FM-12+040999999V0201401N00151220001CN0200001N9+03101+02001100821ADDAA106000091AG14000GF102991021021008001001001MA1999999096201MD1999999-0051REMSYN010 333 59005
0114827840999991993050912004-07317-039300FM-12+040999999V0201401N00361220001CN0200001N9+02681+02061101161ADDAA106000091AG14000GF102991021021008001001001KA1240N+02161MA1999999096501MD1999999-0081REMSYN016 333 20216 59008
0114827840999991993051012004-07317-039300FM-12+040999999V0201401N00361007501CN0200001N9+02561+01851101151ADDAA106000091AG14000GF105991051021008001001001KA1240N+02231MA1999999096491MD1999999-0011REMSYN016 333 20223 59001
0095827840999991993051018004-07317-039300FM-12+040999999V0200901N00211220001CN0200001N9+02981+01881100701ADDAA106000091AG14000GF102991021021008001001001MA1999999096081MD1999999-0161REMSYN010 333 59016
0114827840999991993051100004-07317-039300FM-12+040999999V0209991C000019999999N9999999N9+02301+02031100971ADDAA106000091AG14000GF105991999999017501999999KA1240M+03131MA1999999096321MD1999999-0041REMSYN016 333 10313 59004
0114827840999991993051112004-07317-039300FM-12+040999999V0201401N00211045001CN0200001N9+02601+01821101161ADDAA106000091AG14000GF106991011011008001011001KA1240N+02081MA1999999096501MD1999999+0011REMSYN016 333 20208 58001
0095827840999991993051118004-07317-039300FM-12+040999999V0201401N00151045001CN0200001N9+03111+01841100771ADDAA106000091AG14000GF107991021011008001071001MA1999999096151MD1999999+0071REMSYN010 333 58007
0114827840999991993051300004-07317-039300FM-12+040999999V0202301N00151012001CN9999999N9+02481+02171101021ADDAA106000091AG14000GF108991081081008001999999KA1240M+03271MA1999999096381MD1999999-0011REMSYN016 333 10327 59001
0153827840999991993051312004-07317-039300FM-12+040999999V0200501N00261220001CN0200001N9+02641+02121101231ADDAA124000291AA299000191AG10000AY151061AY211061GF104991021021008001071001KA1240N+02341MA1999999096571MD1999999+0031MW1021REMSYN022 333 20234 58003 69924
0095827840999991993060118004-07317-039300FM-12+040999999V0200501N00261012001CN0200001N9+03351+01711101231ADDAA106000091AG14000GF107991071021012501001001MA1999999096601MD1999999+0041REMSYN010 333 58004
0114827840999991993060612004-07317-039300FM-12+040999999V0200901N00261220001CN0200001N9+02661+01741101591ADDAA106000091AG14000GF102991021011008001001001KA1240N+01961MA1999999096921MD1999999+0001REMSYN016 333 20196 58000
0130827840999991993060700004-07317-039300FM-12+040999999V0200501N00101220001CN9999999N9+02481+01851101381ADDAA106000091AG14000GA1001+999999999GF100991001001999999001001KA1240M+03291MA1999999096721MD1999999-0071REMSYN016 333 10329 59007
0114827840999991993060712004-07317-039300FM-12+040999999V0200901N00211105001CN0200001N9+02651+01831101521ADDAA106000091AG14000GF106991031021008001001071KA1240N+02221MA1999999096851MD1999999-0071REMSYN016 333 20222 59007
0095827840999991993060718004-07317-039300FM-12+040999999V0201401N00261045001CN0200001N9+03101+01701101081ADDAA106000091AG14000GF106991041021008001071001MA1999999096441MD1999999-0031REMSYN010 333 59003
0114827840999991993060812004-07317-039300FM-12+040999999V0201401N00361045001CN0200001N9+02481+01801101491ADDAA106000091AG14000GF108991041021008001071999KA1240N+02191MA1999999096811MD1999999-0041REMSYN016 333 20219 59004
0114827840999991993060912004-07317-039300FM-12+040999999V0201401N00261220001CN0200001N9+02661+01901101421ADDAA106000091AG14000GF102991011021008001061001KA1240N+02091MA1999999096751MD1999999-0061REMSYN016 333 20209 59006
0114827840999991993061000004-07317-039300FM-12+040999999V0200901N00151220001CN9999999N9+02661+02021101251ADDAA106000091AG14000GF101991011021008001001001KA1240M+03331MA1999999096601MD1999999-0141REMSYN016 333 10333 59014
0114827840999991993061012004-07317-039300FM-12+040999999V0200901N00261007501CN0200001N9+02741+02141101431ADDAA106000091AG14000GF105991051021008001001001KA1240N+02241MA1999999096781MD1999999+0031REMSYN016 333 20224 58003
0114827840999991993061100004-07317-039300FM-12+040999999V0209991C00001007501CN9999999N9+02481+02251101461ADDAA106000091AG14000GF108991081071008001999999KA1240M+03131MA1999999096801MD1999999+0201REMSYN016 333 10313 58020
0114827840999991993061112004-07317-039300FM-12+040999999V0200901N00261007501CN0200001N9+02661+02021101651ADDAA106000091AG14000GF107991071021008001001001KA1240N+02241MA1999999096771MD1999999+0191REMSYN016 333 20224 58019
0114827840999991993061218004-07317-039300FM-12+040999999V0201401N00311220001CN0200001N9+02611+01821101551ADDAA106000091AG14000GF104991041021008001001001KA1240N+02291MA1999999096851MD1999999-0121REMSYN016 333 20229 59012
0114827840999991993061312004-07317-039300FM-12+040999999V0201401N00211012001CN0200001N9+02621+01731101611ADDAA106000091AG14000GF107991061081008001021001KA1240N+01981MA1999999096941MD1999999+0091REMSYN016 333 20198 58009
0095827840999991993061318004-07317-039300FM-12+040999999V0201401N00311220001CN0200001N9+03101+01621101101ADDAA106000091AG14000GF102991021011012501001001MA1999999096461MD1999999+0061REMSYN010 333 58006
0095827840999991993061518004-07317-039300FM-12+040999999V0200901N00411012001CN0200001N9+02961+01741101291ADDAA106000091AG14000GF108991081081008001999999MA1999999096641MD1999999+0061REMSYN010 333 58006
0114827840999991993061600004-07317-039300FM-12+040999999V0200901N002619999999N9999999N9+02361+01911101601ADDAA106000091AG14000GF108991081999008001999999KA1240M+03081MA1999999096921MD1999999+0021REMSYN016 333 10308 58002
0114827840999991993061612004-07317-039300FM-12+040999999V0200401N00311012001CN0200001N9+02391+01821101771ADDAA106000091AG14000GF108991081081008001999999KA1240N+02101MA1999999097071MD1999999+0081REMSYN016 333 20210 58008
0095827840999991993061618004-07317-039300FM-12+040999999V0201401N00311012001CN0200001N9+02941+01791101261ADDAA106000091AG14000GF107991071081008001001001MA1999999096601MD1999999-0041REMSYN010 333 59004
0095827840999991993061718004-07317-039300FM-12+040999999V0201401N00311012001CN0200001N9+02661+01921101301ADDAA106000091AG14000GF108991081081008001999999MA1999999096631MD1999999+0031REMSYN010 333 58003
0114827840999991993061800004-07317-039300FM-12+040999999V0201401N00211220001CN9999999N9+02331+01811101571ADDAA106000091AG14000GF101991011011008001001001KA1240M+02791MA1999999096881MD1999999+0051REMSYN016 333 10279 58005
0114827840999991993061812004-07317-039300FM-12+040999999V0200901N00311012001CN0200001N9+02541+01831101661ADDAA106000091AG14000GF107991071081008001001001KA1240N+02221MA1999999096971MD1999999+0041REMSYN016 333 20222 58004
0103827840999991993062015004-07317-039300FM-12+040999999V0203101N00211220001CN9999999N9+01621+01051102191ADDAG12000GF104991041031999999001001MA1999999102011MD1110031+9999REMSYN010 333 92428EQDQ01+000992SCOLCB
0146827840999991993062018004-07317-039300FM-12+040999999V0201801N00311012001CN0200001N9+03322+01701101082ADDAA106000091AG14000GF106991061021012501001001MA1999999096452MD1999999+0031REMSYN010 333 58003EQDQ01+030643ATOT  Q02+096453APOSP Q03+101083APOSLP
0130827840999991993062512004-07317-039300FM-12+040999999V0201401N00311220001CN0200001N9+02581+01641101561ADDAA106000091AG14000GA1001+999999999GF100991001001999999001001KA1240N+02081MA1999999096881MD1999999-0101REMSYN016 333 20208 59010
0114827840999991993062700004-07317-039300FM-12+040999999V0201401N00411220001CN9999999N9+02551+01511101271ADDAA106000091AG14000GF101991011051008001001001KA1240M+03221MA1999999096621MD1999999-0101REMSYN016 333 10322 59010
0130827840999991993062712004-07317-039300FM-12+040999999V0201801N00151220001CN0200001N9+02621+01831101581ADDAA106000091AG14000GA1001+999999999GF100991001001999999001001KA1240N+01771MA1999999096911MD1999999+0041REMSYN016 333 20177 58004
0130827840999991993062812004-07317-039300FM-12+040999999V0200901N00101220001CN0200001N9+02581+01941101571ADDAA106000091AG14000GA1001+999999999GF100991001001999999001001KA1240N+01831MA1999999096891MD1999999-0021REMSYN016 333 20183 59002
0095827840999991993070118004-07317-039300FM-12+040999999V0203601N00261220001CN0200001N9+03341+01671101011ADDAA106000091AG14000GF101991011011012501001001MA1999999096361MD1999999+0071REMSYN010 333 58007
0095827840999991993070718004-07317-039300FM-12+040999999V0201401N00511220001CN0200001N9+03241+01311101021ADDAA106000091AG14000GF101991011011012501001001MA1999999096391MD1999999+0021REMSYN010 333 58002
0114827840999991993070912004-07317-039300FM-12+040999999V0200901N00311012001CN0200001N9+02401+01931101651ADDAA106000091AG14000GF108991081081008001999999KA1240N+02161MA1999999096971MD1999999+0181REMSYN016 333 20216 58018
0095827840999991993070918004-07317-039300FM-12+040999999V0202701N00211015001CN0200001N9+03081+01681101181ADDAA106000091AG14000GF106991061081012501001001MA1999999096581MD1999999+0301REMSYN010 333 58030
0130827840999991993071000004-07317-039300FM-12+040999999V0201401N00311220001CN9999999N9+02561+01781101461ADDAA106000091AG14000GA1001+999999999GF100991001001999999001001KA1240M+03171MA1999999096791MD1999999+0201REMSYN016 333 10317 58020
0114827840999991993071012004-07317-039300FM-12+040999999V0200901N003119999999N0200001N9+02461+01921101721ADDAA106000091AG14000GF108991081999008001999999KA1240N+02181MA1999999097041MD1999999+0071REMSYN016 333 20218 58007
0095827840999991993071018004-07317-039300FM-12+040999999V0200901N00311012001CN0200001N9+02751+01731101341ADDAA106000091AG14000GF108991081081008001999999MA1999999096681MD1999999+0101REMSYN010 333 58010
0138827840999991993071118004-07317-039300FM-12+040999999V0200101N041129999999N0009001N9+99999+99999101151ADDAG12000GA1041+015009089GF106991999999000751999999KA1240N+01401MA1999999059821MD1310071+9999REMSYN016 333 20140 84850EQDQ01+004113WOSPD 
0114827840999991993071212004-07317-039300FM-12+040999999V0200501N00261220001CN0200001N9+02641+01931101581ADDAA106000091AG14000GF102991021081008001001001KA1240N+02161MA1999999096911MD1999999+0041REMSYN016 333 20216 58004
0080827840999991993071218004-07317-039300FM-12+040999999V0201401N00311220001CN0200001N9+03141+01771101121ADDAA106000091AG14000GF104991041021012501001001MD1999999+0001REMSYN010 333 58000
0095827840999991993071318004-07317-039300FM-12+040999999V0201401N00211007501CN0200001N9+02811+02181101371ADDAA106000091AG14000GF108991081071008001999999MA1999999096701MD1999999+0231REMSYN010 333 58023
0095827840999991993071518004-07317-039300FM-12+040999999V0200901N00311220001CN0200001N9+02961+01871101241ADDAA106000091AG14000GF102991021021012501001001MA1999999096611MD1999999-0121REMSYN010 333 59012
0095827840999991993071618004-07317-039300FM-12+040999999V0201401N00311220001CN0200001N9+02961+01341101291ADDAA106000091AG14000GF102991021011012501001001MA1999999096641MD1999999+0031REMSYN010 333 58003
0095827840999991993072218004-07317-039300FM-12+040999999V0200901N00311012001CN0200001N9+02821+01681101411ADDAA106000091AG14000GF107991071021012501001001MA1999999096741MD1999999+0011REMSYN010 333 58001
0130827840999991993072312004-07317-039300FM-12+040999999V0201401N00361220001CN0200001N9+02441+01481101881ADDAA106000091AG14000GA1001+999999999GF100991001001999999001001KA1240N+02041MA1999999097081MD1999999+0021REMSYN016 333 20204 58002
0095827840999991993072518004-07317-039300FM-12+040999999V0201401N00151220001CN0080001N9+03161+01631101161ADDAA106000091AG14000GF101991011011012501001001MA1999999096521MD1999999-0131REMSYN010 333 59013
0130827840999991993072718004-07317-039300FM-12+040999999V0200901N00311220001CN0200001N9+02651+01541101621ADDAA106000091AG14000GA1001+999999999GF100991001001999999001001KA1240N+02041MA1999999096941MD1999999+0081REMSYN016 333 20204 58008
0111827840999991993072818004-07317-039300FM-12+040999999V0201401N00721220001CN0200001N9+03211+00831101241ADDAA106000091AG14000GA1001+999999999GF100991001001999999001001MA1999999096601MD1999999+0181REMSYN010 333 58018
0120827840999991993080212004-07317-039300FM-12+040999999V0200901N00361045001CN0200001N9+02501+01671101821ADDAA124000591AG10000GF107991021081008001071001KA1240N+02011MA1999999097131MD1999999+0151REMSYN022 333 20201 58015 69954
0130827840999991993080300004-07317-039300FM-12+040999999V0200901N00101220001CN9999999N9+02331+01701101791ADDAA106000091AG14000GA1001+999999999GF100991001001999999001001KA1240M+02871MA1999999097091MD1999999+0171REMSYN016 333 10287 58017
0131827840999991993080312004-07317-039300FM-12+040999999V0200901N00361220001CN0200001N9+02441+01611101961ADDAA124000291AA299000191AG10000GF101991011021008001001001KA1240N+02031MA1999999097251MD1999999+0121REMSYN022 333 20203 58012 69924
0114827840999991993080412004-07317-039300FM-12+040999999V0201401N00361012001CN0200001N9+02411+01731102041ADDAA106000091AG14000GF107991071081008001001001KA1240N+02071MA1999999097331MD1999999+0081REMSYN016 333 20207 58008
0095827840999991993080418004-07317-039300FM-12+040999999V0200901N00311220001CN0200001N9+02861+01651101501ADDAA106000091AG14000GF104991041021008001001001MA1999999096831MD1999999+0001REMSYN010 333 58000
0114827840999991993080512004-07317-039300FM-12+040999999V0201401N00461220001CN0200001N9+02391+01421101861ADDAA106000091AG14000GF101991011011008001001001KA1240N+01941MA1999999097151MD1999999-0181REMSYN016 333 20194 59018
0111827840999991993080518004-07317-039300FM-12+040999999V0201401N00261220001CN0200001N9+03061+00951101271ADDAA106000091AG14000GA1001+999999999GF100991001001999999001001MA1999999096611MD1999999-0221REMSYN010 333 59022
0114827840999991993080612004-07317-039300FM-12+040999999V0201401N00261220001CN0200001N9+02511+01641101731ADDAA106000091AG14000GF101991011011008001001001KA1240N+02031MA1999999097041MD1999999-0111REMSYN016 333 20203 59011
0095827840999991993080618004-07317-039300FM-12+040999999V0201401N00311220001CN0200001N9+03081+01401101251ADDAA106000091AG14000GF104991041021012501001001MA1999999096591MD1999999-0021REMSYN010 333 59002
0130827840999991993080800004-07317-039300FM-12+040999999V0201801N00261220001CN9999999N9+02501+01621101321ADDAA106000091AG14000GA1001+999999999GF100991001001999999001001KA1240M+03201MA1999999096651MD1999999-0071REMSYN016 333 10320 59007
0114827840999991993080812004-07317-039300FM-12+040999999V0201401N00311220001CN0200001N9+02551+01651101451ADDAA106000091AG14000GF104991041021008001001001KA1240N+02001MA1999999096781MD1999999-0131REMSYN016 333 20200 59013
0114827840999991993080912004-07317-039300FM-12+040999999V0201401N00361045001CN0200001N9+02361+01691101441ADDAA106000091AG14000GF108991041081008001031001KA1240N+02151MA1999999096761MD1999999-0021REMSYN016 333 20215 59002
0130827840999991993081300004-07317-039300FM-12+040999999V0200901N00211220001CN9999999N9+02741+01641101401ADDAA106000091AG14000GA1001+999999999GF100991001001999999001001KA1240M+03491MA1999999096751MD1999999+0091REMSYN016 333 10349 58009
0114827840999991993081312004-07317-039300FM-12+040999999V0201401N00261045001CN0200001N9+02661+01791101731ADDAA106000091AG14000GF106991031081008001061001KA1240N+02341MA1999999097061MD1999999+0101REMSYN016 333 20234 58010
0114827840999991993081412004-07317-039300FM-12+040999999V0200901N00361220001CN0200001N9+02621+01641101731ADDAA106000091AG14000GF102991021021008001001001KA1240N+02081MA1999999097061MD1999999+0001REMSYN016 333 20208 58000
0114827840999991993081512004-07317-039300FM-12+040999999V0200901N00151220001CN0200001N9+02641+01631101691ADDAA106000091AG14000GF101991011011008001001001KA1240N+02141MA1999999097021MD1999999-0041REMSYN016 333 20214 59004
0114827840999991993081612004-07317-039300FM-12+040999999V0200901N00311220001CN0200001N9+02531+01631101771ADDAA106000091AG14000GF103991021081008001011001KA1240N+02041MA1999999097091MD1999999+0071REMSYN016 333 20204 58007
0114827840999991993081712004-07317-039300FM-12+040999999V0201401N00311012001CN0200001N9+02501+01671101791ADDAA106000091AG14000GF106991061081008001001001KA1240N+02031MA1999999097061MD1999999-0031REMSYN016 333 20203 59003
0114827840999991993081812004-07317-039300FM-12+040999999V0200901N00261220001CN0200001N9+02691+01841101501ADDAA106000091AG14000GF102991021011008001001001KA1240N+02241MA1999999096941MD1999999-0121REMSYN016 333 20224 59012
0114827840999991993082012004-07317-039300FM-12+040999999V0200901N00211220001CN0200001N9+02711+01861101681ADDAA106000091AG14000GF101991011011008001001001KA1240N+02001MA1999999097011MD1999999+0021REMSYN016 333 20200 58002
0095827840999991993082118004-07317-039300FM-12+040999999V0200901N00311220001CN0200001N9+03281+01391101201ADDAA106000091AG14000GF101991011011008001001001MA1999999096571MD1999999+0061REMSYN010 333 58006
0130827840999991993082212004-07317-039300FM-12+040999999V0201401N00261220001CN0200001N9+02651+01691101791ADDAA106000091AG14000GA1001+999999999GF100991001001999999001001KA1240N+01921MA1999999097121MD1999999+0041REMSYN016 333 20192 58004
0130827840999991993082300004-07317-039300FM-12+040999999V0201401N00261220001CN9999999N9+02761+01491101431ADDAA106000091AG14000GA1001+999999999GF100991001001999999001001KA1240M+03481MA1999999096781MD1999999-0061REMSYN016 333 10348 59006
0114827840999991993082312004-07317-039300FM-12+040999999V0200901N00361220001CN0200001N9+02581+01661101671ADDAA106000091AG14000GF104991041021008001001001KA1240N+02171MA1999999097011MD1999999-0111REMSYN016 333 20217 59011
0095827840999991993082318004-07317-039300FM-12+040999999V0201401N00311007501CN0200001N9+03121+01521101161ADDAA106000091AG14000GF105991051021008001001001MA1999999096521MD1999999+0001REMSYN010 333 58000
0114827840999991993082412004-07317-039300FM-12+040999999V0201401N00311012001CN0200001N9+02481+01681101841ADDAA106000091AG14000GF108991081081008001999999KA1240N+02121MA1999999097141MD1999999+0131REMSYN016 333 20212 58013
0095827840999991993082518004-07317-039300FM-12+040999999V0200901N00311220001CN0200001N9+03301+01411101171ADDAA106000091AG14000GF102991021011008001001001MA1999999096541MD1999999-0071REMSYN010 333 59007
0114827840999991993082612004-07317-039300FM-12+040999999V0201401N00261220001CN0200001N9+02951+01701101681ADDAA106000091AG14000GF102991021021008001001001KA1240N+02251MA1999999097021MD1999999-0071REMSYN016 333 20225 59007
0114827840999991993082700004-07317-039300FM-12+040999999V0200901N00101220001CN9999999N9+02741+01701101431ADDAA106000091AG14000GF104991041021008001001001KA1240M+03451MA1999999096781MD1999999-0021REMSYN016 333 10345 59002
0130827840999991993082800004-07317-039300FM-12+040999999V0201801N00411220001CN9999999N9+02781+01011101341ADDAA106000091AG14000GA1001+999999999GF100991001001999999001001KA1240M+03411MA1999999096691MD1999999-0091REMSYN016 333 10341 59009
0114827840999991993082812004-07317-039300FM-12+040999999V0200501N00311007501CN0200001N9+02581+01851101611ADDAA106000091AG14000GF106991061021008001001001KA1240N+01951MA1999999096951MD1999999-0071REMSYN016 333 20195 59007
0130827840999991993082900004-07317-039300FM-12+040999999V0201801N00261220001CN9999999N9+02861+01041101271ADDAA106000091AG14000GA1001+999999999GF100991001001999999001001KA1240M+03571MA1999999096641MD1999999+0071REMSYN016 333 10357 58007
0130827840999991993082912004-07317-039300FM-12+040999999V0200901N00311220001CN0200001N9+02661+01621101521ADDAA106000091AG14000GA1001+999999999GF100991001001999999001001KA1240N+02061MA1999999096871MD1999999-0081REMSYN016 333 20206 59008
0130827840999991993083012004-07317-039300FM-12+040999999V0200901N00211220001CN0200001N9+02611+01631101521ADDAA106000091AG14000GA1001+999999999GF100991001001999999001001KA1240N+01831MA1999999096861MD1999999-0011REMSYN016 333 20183 59001
0114827840999991993083112004-07317-039300FM-12+040999999V0201401N00151007501CN0200001N9+02581+01821101591ADDAA106000091AG14000GF106991061021008001001001KA1240N+02031MA1999999096921MD1999999+0061REMSYN016 333 20203 58006
0114827840999991993090112004-07317-039300FM-12+040999999V0203201N00051007501CN0200001N9+02601+01961101571ADDAA106000091AG14000GF106991061021008001001001KA1240N+02221MA1999999096911MD1999999-0011REMSYN016 333 20222 59001
0114827840999991993090212004-07317-039300FM-12+040999999V0200501N00211045001CN0200001N9+02561+01731101661ADDAA106000091AG14000GF105991021021008001061001KA1240N+02361MA1999999097001MD1999999+0091REMSYN016 333 20236 58009
0095827840999991993090218004-07317-039300FM-12+040999999V0201401N00211220001CN0200001N9+03321+01521101111ADDAA106000091AG14000GF103991031021008001001001MA1999999096481MD1999999+0131REMSYN010 333 58013
0130827840999991993090300004-07317-039300FM-12+040999999V0200901N00211220001CN9999999N9+02761+01491101431ADDAA106000091AG14000GA1001+999999999GF100991001001999999001001KA1240M+03391MA1999999096771MD1999999+0091REMSYN016 333 10339 58009
0130827840999991993090312004-07317-039300FM-12+040999999V0200501N00211220001CN0200001N9+02701+01631101641ADDAA106000091AG14000GA1001+999999999GF100991001001999999001001KA1240N+01951MA1999999096981MD1999999-0021REMSYN016 333 20195 59002
0095827840999991993090518004-07317-039300FM-12+040999999V0200901N00311220001CN0200001N9+03301+01311100991ADDAA106000091AG14000GF103991011011012501011001MA1999999096361MD1999999+0021REMSYN010 333 58002
0095827840999991993090618004-07317-039300FM-12+040999999V0200501N00411007501CN0200001N9+03321+01521101041ADDAA106000091AG14000GF105991051021008001001001MA1999999096401MD1999999+0041REMSYN010 333 58004
0095827840999991993090718004-07317-039300FM-12+040999999V0200901N00361220001CN0200001N9+03441+01331101071ADDAA106000091AG14000GF102991021011012501001001MA1999999096451MD1999999+0051REMSYN010 333 58005
0114827840999991993090812004-07317-039300FM-12+040999999V0201401N00311220001CN0200001N9+02661+01621101541ADDAA106000091AG14000GF101991011011008001001001KA1240N+02181MA1999999096881MD1999999-0091REMSYN016 333 20218 59009
0130827840999991993090912004-07317-039300FM-12+040999999V0200901N00311220001CN0200001N9+02561+01241101531ADDAA106000091AG14000GA1001+999999999GF100991001001999999001001KA1240N+01971MA1999999096871MD1999999-0011REMSYN016 333 20197 59001
0114827840999991993091018004-07317-039300FM-12+040999999V0200901N00211220001CN0200001N9+03341+01671100931ADDAA106000091AG14000GF103991999021008001001001MA1999999096311MD1999999+0011REMSYN010 333 58001EQDQ01+000022SCOTLC
0133827840999991993091112004-07317-039300FM-12+040999999V0200901N00261220001CN0200001N9+02831+01851101531ADDAA106000091AG14000GF103991999021008001001001KA1240N+02421MA1999999096871MD1999999+0021REMSYN016 333 20242 58002EQDQ01+000022SCOTLC
0114827840999991993091212004-07317-039300FM-12+040999999V0200901N00261220001CN0200001N9+02831+01651101601ADDAA106000091AG14000GF101991011011008001001001KA1240N+02211MA1999999096951MD1999999+0081REMSYN016 333 20221 58008
0114827840999991993091312004-07317-039300FM-12+040999999V0200901N00311012001CN0200001N9+02491+01701101701ADDAA106000091AG14000GF108991081081008001999999KA1240N+02221MA1999999097031MD1999999+0081REMSYN016 333 20222 58008
0130827840999991993091412004-07317-039300FM-12+040999999V0201401N00261220001CN9999999N9+02721+01561101341ADDAA106000091AG14000GA1001+999999999GF100991001001999999001001KA1240M+03271MA1999999096681MD1999999+0011REMSYN016 333 10327 58001
0095827840999991993091418004-07317-039300FM-12+040999999V0201401N00311220001CN0200001N9+03191+01491101011ADDAA106000091AG14000GF104991031021008001011001MA1999999096371MD1999999-0081REMSYN010 333 59008
0130827840999991993091512004-07317-039300FM-12+040999999V0201401N00211220001CN0200001N9+02621+01531101651ADDAA106000091AG14000GA1001+999999999GF100991001001999999001001KA1240N+01981MA1999999096981MD1999999+0011REMSYN016 333 20198 58001
0095827840999991993091518004-07317-039300FM-12+040999999V0200901N00211220001CN0200001N9+03331+01571101051ADDAA106000091AG14000GF102991021011008001001001MA1999999096421MD1999999+0051REMSYN010 333 58005
0114827840999991993091600004-07317-039300FM-12+040999999V0201401N00311012001CN9999999N9+02901+01621101361ADDAA106000091AG14000GF107991071081008001001001KA1240M+03431MA1999999096721MD1999999+0081REMSYN016 333 10343 58008
0114827840999991993091612004-07317-039300FM-12+040999999V0201401N00311220001CN0200001N9+02711+01801101651ADDAA106000091AG14000GF104991041021008001001001KA1240N+02291MA1999999097001MD1999999+0021REMSYN016 333 20229 58002
0095827840999991993091618004-07317-039300FM-12+040999999V0200901N00261220001CN0200001N9+03441+01431101011ADDAA106000091AG14000GF103991031021008001001001MA1999999096391MD1999999-0031REMSYN010 333 59003
0114827840999991993091812004-07317-039300FM-12+040999999V0203601N00151012001CN0200001N9+02631+02031101351ADDAA106000091AG14000GF106991061081008001001001KA1240N+02011MA1999999096701MD1999999+0031REMSYN016 333 20201 58003
0095827840999991993091918004-07317-039300FM-12+040999999V0200901N00211220001CN0200001N9+03381+01041100641ADDAA106000091AG14000GF102991021021012501001001MA1999999096041MD1999999+0011REMSYN010 333 58001
0114827840999991993092000004-07317-039300FM-12+040999999V0201401N00101007501CN9999999N9+02921+01981101031ADDAA106000091AG14000GF108991081071008001999999KA1240M+03511MA1999999096401MD1999999+0071REMSYN016 333 10351 58007
0114827840999991993092012004-07317-039300FM-12+040999999V0203601N00151012001CN0200001N9+02601+01961101321ADDAA106000091AG14000GF108991081081008001999999KA1240N+02391MA1999999096681MD1999999+0031REMSYN016 333 20239 58003
0114827840999991993092300004-07317-039300FM-12+040999999V0201801N00051007501CN9999999N9+02631+01911100971ADDAA106000091AG14000GF108991081021008001999999KA1240M+03491MA1999999096341MD1999999-0091REMSYN016 333 10349 59009
0142827840999991993092312004-07317-039300FM-12+040999999V0203601N00101007501CN0040001N9+02181+02161101441ADDAA124004091AG10000AY121061AY221061GF108991081071008001999999KA1240N+02161MA1999999096761MD1999999+0051MW1211REMSYN022 333 20216 58005 60044
0114827840999991993092412004-07317-039300FM-12+040999999V0200501N00311012001CN0200001N9+02641+02091101321ADDAA106000091AG14000GF108991081081008001999999KA1240N+02221MA1999999096671MD1999999-0091REMSYN016 333 20222 59009
0130827840999991993092600004-07317-039300FM-12+040999999V0209991C00001220001CN9999999N9+02491+01681101121ADDAA106000091AG14000GA1001+999999999GF100991001001999999001001KA1240M+03421MA1999999096471MD1999999+0051REMSYN016 333 10342 58005
0130827840999991993092612004-07317-039300FM-12+040999999V0200901N00151220001CN0200001N9+02741+01951101541ADDAA106000091AG14000GA1001+999999999GF100991001001999999001001KA1240N+02161MA1999999096871MD1999999+0101REMSYN016 333 20216 58010
0095827840999991993092718004-07317-039300FM-12+040999999V0203201N00311045001CN0200001N9+03021+01961101021ADDAA106000091AG14000GF105991021021008001071001MA1999999096391MD1999999+0101REMSYN010 333 58010
0114827840999991993092900004-07317-039300FM-12+040999999V0200501N001019999999N9999999N9+02761+02041101061ADDAA106000091AG14000GF107991071001022501001091KA1240M+03511MA1999999096431MD1999999-0141REMSYN016 333 10351 59014
0114827840999991993100412004-07317-039300FM-12+040999999V0203601N00411007501CN0200001N9+02881+01971101361ADDAA106000091AG14000GF106991061021008001001001KA1240N+02451MA1999999096271MD1999999+0121REMSYN016 333 20245 58012
0095827840999991993100618004-07317-039300FM-12+040999999V0203601N00211220001CN0200001N9+03381+01531100941ADDAA106000091AG14000GF104991031021008001011001MA1999999096321MD1999999-0091REMSYN010 333 59009
0114827840999991993100712004-07317-039300FM-12+040999999V0203201N00211007501CN0200001N9+02551+01861101431ADDAA106000091AG14000GF108991081051008001999999KA1240N+02211MA1999999096771MD1999999-0101REMSYN016 333 20221 59010
0114827840999991993100818004-07317-039300FM-12+040999999V0200501N00151012001CN0200001N9+02701+01941101471ADDAA106000091AG14000GF108991081081008001999999KA1240N+02351MA1999999096821MD1999999+0051REMSYN016 333 20235 58005
0153827840999991993100912004-07317-039300FM-12+040999999V0201401N00151012001CN0200001N9+02571+01931101681ADDAA124000291AA299000191AG10001AY151061AY211061GF108991081081008001999999KA1240N+02251MA1999999097001MD1999999+0181MW1021REMSYN022 333 20225 58018 69924
0130827840999991993101000004-07317-039300FM-12+040999999V0201401N00461220001CN9999999N9+02361+01761101611ADDAA106000091AG14000GA1001+999999999GF100991001001999999001001KA1240M+03031MA1999999096931MD1999999+0191REMSYN016 333 10303 58019
0114827840999991993101112004-07317-039300FM-12+040999999V0200901N00361220001CN0200001N9+02841+01761101541ADDAA106000091AG14000GF103991031021008001001001KA1240N+02371MA1999999096891MD1999999-0101REMSYN016 333 20237 59010
0114827840999991993101212004-07317-039300FM-12+040999999V0200501N00261220001CN0200001N9+03001+01641101431ADDAA106000091AG14000GF103991011021008001061001KA1240N+02361MA1999999096801MD1999999-0091REMSYN016 333 20236 59009
0095827840999991993101318004-07317-039300FM-12+040999999V0201401N00261220001CN0200001N9+03431+00881100921ADDAA106000091AG14000GF101991011011008001001001MA1999999096311MD1999999+0011REMSYN010 333 58001
0114827840999991993101412004-07317-039300FM-12+040999999V0201401N00511220001CN0200001N9+02801+01501101501ADDAA106000091AG14000GF102991021011008001001001KA1240N+02221MA1999999096851MD1999999+0021REMSYN016 333 20222 58002
0095827840999991993101418004-07317-039300FM-12+040999999V0200901N00311220001CN0200001N9+02411+01181100901ADDAA106000091AG14000GF104991041021008001001001MA1999999096291MD1999999-0021REMSYN010 333 59002
0114827840999991993101512004-07317-039300FM-12+040999999V0201401N00211220001CN0200001N9+02741+01541101451ADDAA106000091AG14000GF101991011011008001001001KA1240N+02121MA1999999096801MD1999999-0051REMSYN016 333 20212 59005
0095827840999991993101518004-07317-039300FM-12+040999999V0200501N00151220001CN0200001N9+03441+01091100851ADDAA106000091AG14000GF101991011011012501001001MA1999999096241MD1999999-0051REMSYN010 333 59005
0114827840999991993101600004-07317-039300FM-12+040999999V0209991C00001007501CN9999999N9+02641+01091101091ADDAA106000091AG14000GF106991061021008001001001KA1240M+03511MA1999999096451MD1999999-0181REMSYN016 333 10351 59018
0130827840999991993101612004-07317-039300FM-12+040999999V0201401N00361220001CN0200001N9+02901+01321101331ADDAA106000091AG14000GA1001+999999999GF100991001001999999001001KA1240N+02351MA1999999096691MD1999999-0111REMSYN016 333 20235 59011
0114827840999991993101712004-07317-039300FM-12+040999999V0200901N00361007501CN0200001N9+02681+01891101411ADDAA106000091AG14000GF108991081021008001999999KA1240N+02241MA1999999096761MD1999999+0071REMSYN016 333 20224 58007
0095827840999991993101718004-07317-039300FM-12+040999999V0200901N00311012001CN0200001N9+03311+01361100791ADDAA106000091AG14000GF108991081081008001999999MA1999999096181MD1999999+0061REMSYN010 333 58006
0130827840999991993101800004-07317-039300FM-12+040999999V0201401N00411220001CN9999999N9+02701+01801101201ADDAA106000091AG14000GA1001+999999999GF100991001001999999001001KA1240M+03391MA1999999096561MD1999999+0071REMSYN016 333 10339 58007
0114827840999991993101812004-07317-039300FM-12+040999999V0200901N00311220001CN0200001N9+02821+01681101421ADDAA106000091AG14000GF101991011011008001001001KA1240N+02251MA1999999096771MD1999999+0011REMSYN016 333 20225 58001
0130827840999991993101900004-07317-039300FM-12+040999999V0201401N00211220001CN9999999N9+02841+01601101121ADDAA106000091AG14000GA1001+999999999GF100991001001999999001001KA1240M+03521MA1999999096491MD1999999-0071REMSYN016 333 10352 59007
0114827840999991993101912004-07317-039300FM-12+040999999V0200901N00261012001CN0200001N9+02851+01731101291ADDAA106000091AG14000GF107991071081008001001001KA1240N+02411MA1999999096661MD1999999-0111REMSYN016 333 20241 59011
0095827840999991993101918004-07317-039300FM-12+040999999V0201801N00261220001CN0200001N9+03321+01431100771ADDAA106000091AG14000GF102991021021012501001001MA1999999096161MD1999999-0091REMSYN010 333 59009
0133827840999991993102012004-07317-039300FM-12+040999999V0201401N00311220001CN0200001N9+02961+01531101411ADDAA106000091AG14000GF101991011011008001001001KA1240N+02251MA1999999096791MD1999999-0171REMSYN016 333 20225 59017EQDQ01+999990APOSLP
0130827840999991993102112004-07317-039300FM-12+040999999V0200501N00311220001CN0200001N9+02951+01551101181ADDAA106000091AG14000GA1001+999999999GF100991001001999999001001KA1240N+02241MA1999999096551MD1999999+0061REMSYN016 333 20224 58006
0095827840999991993102118004-07317-039300FM-12+040999999V0201801N00151220001CN0200001N9+03521+01221100621ADDAA106000091AG14000GF102991021021012501001001MA1999999096291MD1999999+0011REMSYN010 333 58001
0130827840999991993102200004-07317-039300FM-12+040999999V0201801N00211220001CN9999999N9+02741+01371100911ADDAA106000091AG14000GA1001+999999999GF100991001001999999001001KA1240M+03611MA1999999096301MD1999999-0011REMSYN016 333 10361 59001
0114827840999991993102600004-07317-039300FM-12+040999999V0201801N00101007501CN9999999N9+02651+01631101071ADDAA106000091AG14000GF108991081051008001999999KA1240M+03511MA1999999096441MD1999999+0121REMSYN016 333 10351 58012
0114827840999991993102612004-07317-039300FM-12+040999999V0200901N00261045001CN0200001N9+02861+01651101401ADDAA106000091AG14000GF106991011011008001071001KA1240N+02321MA1999999096751MD1999999+0121REMSYN016 333 20232 58012
0114827840999991993102700004-07317-039300FM-12+040999999V0200901N000519999999N9999999N9+02781+01481101071ADDAA106000091AG14000GF108991081999008001999999KA1240M+03511MA1999999096451MD1999999+0011REMSYN016 333 10351 58001
0114827840999991993102812004-07317-039300FM-12+040999999V0201401N00261220001CN0200001N9+02861+01651101431ADDAA106000091AG14000GF101991011011008001001001KA1240N+02501MA1999999096791MD1999999+0081REMSYN016 333 20250 58008
0114827840999991993102900004-07317-039300FM-12+040999999V0201401N00361220001CN9999999N9+02861+01551101181ADDAA106000091AG14000GF102991021081008001001001KA1240M+03571MA1999999096551MD1999999+0091REMSYN016 333 10357 58009
0114827840999991993103112004-07317-039300FM-12+040999999V0200901N00361007501CN0200001N9+02881+01671101451ADDAA106000091AG14000GF106991061021008001001001KA1240N+02261MA1999999096811MD1999999-0011REMSYN016 333 20226 59001
0095827840999991993110118004-07317-039300FM-12+040999999V0201401N00211007501CN0200001N9+03281+01861100961ADDAA106000091AG14000GF106991051021008001061001MA1999999096041MD1999999+0071REMSYN010 333 58007
0142827840999991993110200004-07317-039300FM-12+040999999V0201801N00261007501CN9999999N9+02341+01931101421ADDAA106002091AG10006AY161061AY221061GF108991081071008001999999KA1240M+03401MA1999999096761MD1999999+0081MW1021REMSYN022 333 10340 58008 60021
0095827840999991993110418004-07317-039300FM-12+040999999V0200901N00211220001CN0200001N9+03481+01471100731ADDAA106000091AG14000GF102991021011008001001001MA1999999096131MD1999999-0061REMSYN010 333 59006
0142827840999991993110512004-07317-039300FM-12+040999999V0200901N00261220001CN0200001N9+02801+01871101321ADDAA118002091AG10006AY161061AY211061GF103991021021008001031001KA1240N+02351MA1999999096681MD1999999+0001MW1011REMSYN022 333 20235 58000 60023
0095827840999991993110518004-07317-039300FM-12+040999999V0201801N00261012001CN0200001N9+03421+01361100761ADDAA106000091AG14000GF106991051011012501071001MA1999999096151MD1999999+0021REMSYN010 333 58002
0130827840999991993110712004-07317-039300FM-12+040999999V0200901N00261220001CN9999999N9+02961+01571101331ADDAA106000091AG14000GA1001+999999999GF100991001001999999001001KA1240N+02431MA1999999096691MD1999999+0021REMSYN016 333 20243 58002
0095827840999991993110718004-07317-039300FM-12+040999999V0201801N00261015001CN0200001N9+03541+01351100771ADDAA106000091AG14000GF108991081081012501999999MA1999999096181MD1999999+0051REMSYN010 333 58005
0114827840999991993110812004-07317-039300FM-12+040999999V0200901N00151220001CN0200001N9+02941+01721101231ADDAA106000091AG14000GF101991011001017501071001KA1240N+02231MA1999999096611MD1999999-0081REMSYN016 333 20223 59008
0114827840999991993110912004-07317-039300FM-12+040999999V0200901N00461045001CN0200001N9+02861+01841101241ADDAA106000091AG14000GF106991041021008001031001KA1240N+02401MA1999999096601MD1999999-0011REMSYN016 333 20240 59001
0114827840999991993111000004-07317-039300FM-12+040999999V0201401N00411012001CN9999999N9+02401+01631101231ADDAA106000091AG14000GF108991081081008001999999KA1240M+03451MA1999999096581MD1999999+0101REMSYN016 333 10345 58010
0114827840999991993111012004-07317-039300FM-12+040999999V0201401N00411007501CN0200001N9+02661+01711101241ADDAA106000091AG14000GF106991061021008001001001KA1240N+02221MA1999999096581MD1999999+0021REMSYN016 333 20222 58002
0114827840999991993111112004-07317-039300FM-12+040999999V0200901N00361007501CN0200001N9+02811+01631101221ADDAA106000091AG14000GF106991051021008001031001KA1240N+02321MA1999999096581MD1999999+0001REMSYN016 333 20232 58000
0095827840999991993111118004-07317-039300FM-12+040999999V0201401N00311007501CN0200001N9+03041+01681100821ADDAA106000091AG14000GF106991051021008001001091MA1999999096201MD1999999+0051REMSYN010 333 58005
0114827840999991993111212004-07317-039300FM-12+040999999V0200901N00311220001CN0200001N9+02761+01691101271ADDAA106000091AG14000GF102991021021008001001071KA1240N+02801MA1999999096631MD1999999+0051REMSYN016 333 20280 58005
0095827840999991993111218004-07317-039300FM-12+040999999V0201401N00211045001CN0200001N9+03231+01461100791ADDAA106000091AG14000GF105991031021008001071001MA1999999096171MD1999999-0031REMSYN010 333 59003
0114827840999991993111400004-07317-039300FM-12+040999999V0200901N00261220001CN0200001N9+02881+01641100981ADDAA106000091AG14000GF102991011061008001001011KA1240N+02331MA1999999096371MD1999999-0261REMSYN016 333 20233 59026
0114827840999991993111412004-07317-039300FM-12+040999999V0200901N00261220001CN0200001N9+02881+01641100981ADDAA106000091AG14000GF102991011061008001001011KA1240N+02331MA1999999096371MD1999999-0261REMSYN016 333 20233 59026
0130827840999991993111600004-07317-039300FM-12+040999999V0200901N00101220001CN9999999N9+02801+01561100781ADDAA106000091AG14000GA1001+999999999GF100991001001999999001001KA1240M+03431MA1999999096171MD1999999-0011REMSYN016 333 10343 59001
0114827840999991993111612004-07317-039300FM-12+040999999V0200901N00311045001CN0200001N9+02981+01891100961ADDAA106000091AG14000GF108991031021008001011999KA1240N+02571MA1999999096351MD1999999-0031REMSYN016 333 20257 59003
0095827840999991993111618004-07317-039300FM-12+040999999V0201801N00311015001CN0200001N9+03401+01541100601ADDAA106000091AG14000GF108991071081012501021999MA1999999096021MD1999999+0091REMSYN010 333 58009
0114827840999991993111712004-07317-039300FM-12+040999999V0200501N00261012001CN0200001N9+02861+01981101061ADDAA106000091AG14000GF107991051081008001011001KA1240N+02391MA1999999096441MD1999999+0091REMSYN016 333 20239 58009
0095827840999991993111818004-07317-039300FM-12+040999999V0200901N00151220001CN0200001N9+03501+01681100401ADDAA106000091AG14000GF102991021011012501001001MA1999999095841MD1999999-0111REMSYN010 333 59011
0114827840999991993111900004-07317-039300FM-12+040999999V0202701N00151012001CN9999999N9+03001+01841100711ADDAA106000091AG14000GF105991051081008001001001KA1240M+03631MA1999999096121MD1999999-0161REMSYN016 333 10363 59016
0114827840999991993112012004-07317-039300FM-12+040999999V0202301N000519999999N0200001N9+02661+02071101071ADDAA106000091AG14000GF108991081999008001999999KA1240N+02321MA1999999096421MD1999999+0051REMSYN016 333 20232 58005
0142827840999991993112112004-07317-039300FM-12+040999999V0201801N00151012001CN0200001N9+02431+02191101161ADDAA124002091AG10006AY161061AY211061GF108991081081008001999999KA1240N+02041MA1999999096511MD1999999+0091MW1021REMSYN022 333 20204 58009 60024
0095827840999991993112118004-07317-039300FM-12+040999999V0202301N00311012001CN0200001N9+03061+02081100571ADDAA106000091AG14000GF107991061021012501071001MA1999999095971MD1999999+0091REMSYN010 333 58009
0153827840999991993112312004-07317-039300FM-12+040999999V0200501N00211220001CN0200001N9+02731+01901101341ADDAA124000491AA299000591AG10001AY151061AY201061GF103991031021008001001001KA1240N+02301MA1999999096681MD1999999+0081MW1011REMSYN022 333 20230 58008 69944
0114827840999991993112512004-07317-039300FM-12+040999999V0200901N00261220001CN0200001N9+02771+01691101231ADDAA106000091AG14000GF103991031001017501011001KA1240N+02261MA1999999096601MD1999999+0251REMSYN016 333 20226 58025
0114827840999991993112612004-07317-039300FM-12+040999999V0200501N00211220001CN0200001N9+02851+01791101181ADDAA106000091AG14000GF101991011001017501011001KA1240N+02301MA1999999096561MD1999999-0041REMSYN016 333 20230 59004
0095827840999991993112618004-07317-039300FM-12+040999999V0203601N00311220001CN0200001N9+03561+01531101571ADDAA106000091AG14000GF102991021011012501001001MA1999999095991MD1999999+0021REMSYN010 333 58002
0114827840999991993112700004-07317-039300FM-12+040999999V0200501N00101007501CN9999999N9+02621+01881100841ADDAA106000091AG14000GF106991061021008001001001KA1240M+03591MA1999999096221MD1999999-0121REMSYN016 333 10359 59012
0114827840999991993112712004-07317-039300FM-12+040999999V0203601N00211007501CN0200001N9+02821+01911101241ADDAA106000091AG14000GF106991061021008001001001KA1240N+02521MA1999999096601MD1999999+0041REMSYN016 333 20252 58004
0114827840999991993112812004-07317-039300FM-12+040999999V0200501N00261012001CN0200001N9+02821+01971101211ADDAA106000091AG14000GF108991081081008001999999KA1240N+02421MA1999999096571MD1999999-0031REMSYN016 333 20242 59003
0095827840999991993112918004-07317-039300FM-12+040999999V0200901N00101220001CN0200001N9+03061+01831100691ADDAA106000091AG14000GF104991031021008001011001MA1999999096081MD1999999-0091REMSYN010 333 59009
0114827840999991993113012004-07317-039300FM-12+040999999V0200901N00211007501CN0200001N9+02641+01931101141ADDAA106000091AG14000GF108991071051008001011999KA1240N+02441MA1999999096491MD1999999-0061REMSYN016 333 20244 59006
0114827840999991993113018004-07317-039300FM-12+040999999V0200901N00101220001CN0200001N9+03241+01751100911ADDAA106000091AG14000GF103991031021012501001001MA1999999096341MD1999999-0051REMSYN010 333 59005EQDQ01+999990APOSLP
0114827840999991993120212004-07317-039300FM-12+040999999V0200901N00261220001CN0200001N9+02851+01911101091ADDAA106000091AG14000GF102991021011008001001001KA1240N+02301MA1999999096471MD1999999-0161REMSYN016 333 20230 59016
0095827840999991993120218004-07317-039300FM-12+040999999V0201401N00211220001CN0200001N9+03481+01661100551ADDAA106000091AG14000GF104991041021012501001001MA1999999095971MD1999999-0141REMSYN010 333 59014
0153827840999991993120412004-07317-039300FM-12+040999999V0201401N00151007501CN0040001N9+02331+02021101181ADDAA124000691AA299000591AG10001AY151061AY221061GF108991081071008001999999KA1240N+02171MA1999999096521MD1999999-0011MW1021REMSYN022 333 20217 59001 69964
0111827840999991993120918004-07317-039300FM-12+040999999V0200501N00261220001CN0200001N9+03501+01431100711ADDAA106000091AG14000GA1001+999999999GF100991001001999999001001MA1999999096101MD1999999-0041REMSYN010 333 59004
0130827840999991993121000004-07317-039300FM-12+040999999V0202301N00101220001CN9999999N9+02501+01501100971ADDAA106000091AG14000GA1001+999999999GF100991001001999999001001KA1240M+03531MA1999999096341MD1999999+0031REMSYN016 333 10353 58003
0114827840999991993121012004-07317-039300FM-12+040999999V0200501N00261220001CN0200001N9+02901+01901101211ADDAA106000091AG14000GF102991021011008001001001KA1240N+02311MA1999999096641MD1999999+0051REMSYN016 333 20231 58005
0095827840999991993121018004-07317-039300FM-12+040999999V0200201N00361012001CN0200001N9+03521+01551100771ADDAA106000091AG14000GF106991061021012501001001MA1999999096081MD1999999-0021REMSYN010 333 59002
0114827840999991993121400004-07317-039300FM-12+040999999V0202301N001019999999N9999999N9+02741+01781100741ADDAA106000091AG14000GF108991081999008001999999KA1240M+03491MA1999999096131MD1999999-0041REMSYN016 333 10349 59004
0114827840999991993121412004-07317-039300FM-12+040999999V0200501N00311220001CN0200001N9+02711+01731101111ADDAA106000091AG14000GF104991011011008001031001KA1240N+02311MA1999999096481MD1999999+0101REMSYN016 333 20231 58010
0095827840999991993121418004-07317-039300FM-12+040999999V0203201N00261012001CN0200001N9+03381+01531100571ADDAA106000091AG14000GF108991081021012501999999MA1999999096981MD1999999+0061REMSYN010 333 58006
0094827840999991993121512004-07317-039300FM-12+040999999V0200501N00151012001CN0200001N9+02681+01941101131ADDAA106000091AG14000GF108991081081008001999999KA1240N+02311MA1999999096491REMSYN010 333 20231
0114827840999991993121612004-07317-039300FM-12+040999999V0200501N00101007501CN0200001N9+02771+01891101141ADDAA106000091AG14000GF106991061021008001001001KA1240N+02281MA1999999096571MD1999999+0011REMSYN016 333 20228 58001
0095827840999991993121618004-07317-039300FM-12+040999999V0201401N00261220001CN0200001N9+03461+01501100611ADDAA106000091AG14000GF102991021021012501001001MA1999999096031MD1999999-0031REMSYN010 333 59003
0114827840999991993121712004-07317-039300FM-12+040999999V0200901N00151220001CN0200001N9+02831+01861101191ADDAA106000091AG14000GF102991021001017501011001KA1240N+02271MA1999999096471MD1999999-0031REMSYN016 333 20227 59003
0095827840999991993121718004-07317-039300FM-12+040999999V0200901N00151007501CN0200001N9+03441+01581100551ADDAA106000091AG14000GF106991051021008001011001MA1999999095961MD1999999-0071REMSYN010 333 59007
0114827840999991993121800004-07317-039300FM-12+040999999V0200501N00261220001CN0200001N9+02861+01841101151ADDAA106000091AG14000GF104991041021008001001001KA1240N+02211MA1999999096571MD1999999+0031REMSYN016 333 20221 58003
0114827840999991993121912004-07317-039300FM-12+040999999V0200501N00261007501CN0200001N9+02761+01861101211ADDAA106000091AG14000GF106991061021008001001001KA1240N+02441MA1999999096571MD1999999+0071REMSYN016 333 20244 58007
0114827840999991993122012004-07317-039300FM-12+040999999V0200501N00411007501CN0200001N9+02831+01951101291ADDAA106000091AG14000GF106991061021008001001001KA1240N+02251MA1999999097751MD1999999+0081REMSYN016 333 20225 58008
0114827840999991993122018004-07317-039300FM-12+040999999V0200901N00261220001CN0200001N9+03421+01471100741ADDAA106000091AG14000GF102991011011008001011001MA1999999096142MD1999999+0091REMSYN010 333 58009EQDQ01+096143APOSP 
0114827840999991993122112004-07317-039300FM-12+040999999V0203601N00311012001CN0200001N9+02871+02011101261ADDAA106000091AG14000GF107991071081008001001001KA1240N+02341MA1999999096621MD1999999-0051REMSYN016 333 20234 59005
0114827840999991993122212004-07317-039300FM-12+040999999V0209999999999045001CN0200001N9+02741+01921101321ADDAA106000091AG14000GF106991031021008001071001KA1240N+02151MA1999999096671MD1999999-0051REMSYN016 333 20215 59005
0095827840999991993122218004-07317-039300FM-12+040999999V0200901N00211045001CN0200001N9+03541+01351100701ADDAA106000091AG14000GF106991011011008001071001MA1999999096101MD1999999+0051REMSYN010 333 58005
0114827840999991993122300004-07317-039300FM-12+040999999V0202301N00051220001CN9999999N9+02581+01431100991ADDAA106000091AG14000GF102991021011012501001001KA1240M+03601MA1999999096351MD1999999-0011REMSYN016 333 10360 59001
0114827840999991993122312004-07317-039300FM-12+040999999V0200901N00211220001CN0200001N9+02841+01701101241ADDAA106000091AG14000GF101991011011008001001001KA1240N+02201MA1999999096601MD1999999-0071REMSYN016 333 20220 59007
0158827840999991993122612004-07317-039300FM-12+040999999V0200501N00311220001CN0200001N9+02881+01831101251ADDAA118000091AG14006AY161061AY211061GA1001+999999999GF100991001001999999001001KA1240N+02181MA1999999096611MD1999999+0031MW1011REMSYN022 333 20218 58003 60003
0114827840999991993122712004-07317-039300FM-12+040999999V0200501N00211012001CN0200001N9+02871+01981101261ADDAA106000091AG14000GF108991051081008001031999KA1240N+02481MA1999999096631MD1999999+0021REMSYN016 333 20248 58002
0114827840999991993122912004-07317-039300FM-12+040999999V0200501N00311220001CN0200001N9+02881+01701101171ADDAA106000091AG14000GF102991011011008001021001KA1240N+02301MA1999999096541MD1999999-0151REMSYN016 333 20230 59015
0114827840999991993123012004-07317-039300FM-12+040999999V0200501N00211012001CN0200001N9+02731+01501101161ADDAA106000091AG14000GF107991071081008001001001KA1240N+02321MA1999999096541MD1999999+0001REMSYN016 333 20232 58000
0114827840999991993123112004-07317-039300FM-12+040999999V0200501N00151220001CN0200001N9+02931+01951101261ADDAA106000091AG14000GF102991021021008001001001KA1240N+02361MA1999999096631MD1999999+0091REMSYN016 333 20236 58009
