0060827950999991993010116004-07217-035883FM-15+0560SBKG V0201101N00611006001CN0112651N1+02901+01801999999ADDAG11999GA1061+006009089MA1101391999999EQDQ01+000000PRSWM2
0066827950999991993010117004-07217-035883FM-15+0560SBKG V0209999999999220001CN0011011N1+99999+99999999999ADDAG11999REMMET0282KT 9999 6CU020 30/18 1013 ?EQDQ01+000000PRSWM2
0066827950999991993010118004-07217-035883FM-15+0560SBKG V0209999999999220001CN0012011N1+99999+99999999999ADDAG11000REMMET0282KT 9999 5CU020 29/18 1012 ?EQDQ01+000000PRSWM2
0095827950999991993010218004-07217-035883FM-12+0560SBKG V0201401N00621220001CN0090001N9+02951+01571101011ADDAA106000091AG10000GF103991031011000751001001MA1999999094891MD1999999-0101REMSYN010 333 59010
0136827950999991993010312004-07217-035883FM-12+0560SBKG V0200901N00411007501CN0100001N9+02391+01911101391ADDAA106000091AG10000AY121061AY221061GF107991071071008001001001KA1240N+01931MA1999999095221MD1999999+0001MW1051REMSYN016 333 20193 58000
0117827950999991993010318004-07217-035883FM-12+0560SBKG V0201401N00361220001CN0040001N9+03071+01601101031ADDAA106000091AG10000AY111061AY211061GF103991031011008001001001MA1999999094911MD1999999+0021MW1051REMSYN010 333 58002
0114827950999991993010412004-07217-035883FM-12+0560SBKG V0200901N00361007501CN0040001N9+02341+01911101381ADDAA106000091AG14000GF107991051051008001001081KA1240N+02041MA1999999095211MD1999999-0011REMSYN016 333 20204 59001
0076827950999991993010417004-07217-035883FM-15+0560SBKG V0200301N00301030001CN0112651N1+02901+01901999999ADDAG11999GA1031+006009089GA2061+030009039MA1101291999999EQDQ01+000000PRSWM2
0174827950999991993010418004-07217-035883SY-MT+0560SBKG V0200501N00511030001CN0100001N1+02811+01971101011ADDAA106999929AG11000AY121061AY221061GA1041+006009089GA2061+030009039GF108991041051004501031081MA1101191094881MD1999999-0031MW1501REMSYN016 333 59003 69901EQDQ01+000000PRSWM2
0142827950999991993010512004-07217-035883FM-12+0560SBKG V0200501N00311220001CN0100001N9+02671+01611101301ADDAA124999929AG13000AY111061AY201061GF102991021001999999091001KA1240N+02101MA1999999095161MD1999999-0051MW1051REMSYN022 333 20210 59005 69904
0058827950999991993010513004-07217-035883FM-15+0560SBKG V0200601N00301999991CY0099001N1+03001+01601999999ADDAG11999MA1101491999999REMMET005CAVOKEQDQ01+000000PRSWM2
0076827950999991993010515004-07217-035883FM-15+0560SBKG V0201001N00201220001CN0112651N1+03201+01701999999ADDAG11000GA1011+009009089GA2031+030009039MA1101391999999EQDQ01+000000PRSWM2
0076827950999991993010516004-07217-035883FM-15+0560SBKG V0200901N00411220001CN0112651N1+03201+01701999999ADDAG11999GA1011+006009089GA2041+030009039MA1101291999999EQDQ01+000000PRSWM2
0076827950999991993010517004-07217-035883FM-15+0560SBKG V0200301N00411090001CN0112651N1+03301+01601999999ADDAG11999GA1021+007509089GA2051+090009029MA1101191999999EQDQ01+000000PRSWM2
0095827950999991993010518004-07217-035883FM-12+0560SBKG V0200901N00311045001CN0200001N9+03201+01551100851ADDAA106000091AG14000GF106991031011012501031081MA1999999094761MD1999999-0121REMSYN010 333 59012
0070827950999991993010615004-07217-035883FM-15+0560SBKG V0209999999999220001CN0012001N1+99999+99999999999ADDAG11000REMMET0326KT 9999 3CU025 7CS200 28/16 101EQDQ01+000000PRSWM2
0095827950999991993010618004-07217-035883FM-12+0560SBKG V0201401N00361045001CN0200001N9+02971+01661100951ADDAA106000091AG14000GF108991041081008001051081MA1999999094841MD1999999+0081REMSYN010 333 58008
0076827950999991993010711004-07217-035883FM-15+0560SBKG V0201201N00511004801CN0112651N1+02401+01901999999ADDAG11999GA1051+004809089GA2061+030009039MA1101491999999EQDQ01+000000PRSWM2
0181827950999991993010712004-07217-035883SY-MT+0560SBKG V0200901N00411006001CN0200001N1+02361+01991101311ADDAA106000091AG11000GA1051+006009089GA2051+030009039GF108991051081008001999061KA1240M+03001MA1101491095151MD1999999+0031REMSYN016 333 10300 58003EQDQ01+000002SCOMCGQ02+000000PRSWM2
0070827950999991993010714004-07217-035883FM-15+0560SBKG V0209999999999220001CN0012001N1+99999+99999999999ADDAG11999REMMET0326KT 9999 6CU020 5AC100 29/18 101EQDQ01+000000PRSWM2
0162827950999991993010718004-07217-035883SY-MT+0560SBKG V0200901N00511030001CN0200001N1+02891+01531100941ADDAA106000091AG11000GA1011+007509089GA2051+030009039GA3051+060009009GF108991041021008001081081MA1101191094821MD1999999-0021REMSYN010 333 59002EQDQ01+000000PRSWM2
0058827950999991993010719004-07217-035883FM-15+0560SBKG V0201101N00511999991CY0099001N1+02901+01601999999ADDAG11999MA1101081999999REMMET005CAVOKEQDQ01+000000PRSWM2
0058827950999991993010720004-07217-035883FM-15+0560SBKG V0201001N00511999991CY0099001N1+02701+01701999999ADDAG11999MA1101191999999REMMET005CAVOKEQDQ01+000000PRSWM2
0076827950999991993010812004-07217-035883FM-15+0560SBKG V0200901N00411030001CN0112651N1+02501+01701999999ADDAG11000GA1031+006009089GA2061+030009039MA1101491999999EQDQ01+000000PRSWM2
0076827950999991993010816004-07217-035883FM-15+0560SBKG V0201101N00411007501CN0112651N1+02801+01601999999ADDAG11999GA1051+007509089GA2071+030009039MA1101391999999EQDQ01+000000PRSWM2
0076827950999991993010817004-07217-035883FM-15+0560SBKG V0201301N00301007501CN0112651N1+03001+01601999999ADDAG11999GA1051+007509089GA2061+030009039MA1101291999999EQDQ01+000000PRSWM2
0095827950999991993010818004-07217-035883FM-12+0560SBKG V0201401N00311045001CN0200001N9+02991+01551100971ADDAA106000091AG14000GF106991031021008001031011MA1999999094841MD1999999+0031REMSYN010 333 58003
0114827950999991993010900004-07217-035883FM-12+0560SBKG V0200901N00511105001CN0200001N9+02271+01881101321ADDAA106000091AG14000GF108991031061008001001061KA1240M+03051MA1999999095161MD1999999+0081REMSYN016 333 10305 58008
0114827950999991993010912004-07217-035883FM-12+0560SBKG V0201401N00311007501CN0200001N9+02531+01631101321ADDAA106000091AG14000GF107991051021008001001021KA1240N+02081MA1999999095161MD1999999-0031REMSYN016 333 20208 59003
0060827950999991993010915004-07217-035883FM-15+0560SBKG V0201001N00511006001CN0112651N1+03001+01401999999ADDAG11000GA1051+006009089MA1101391999999EQDQ01+000000PRSWM2
0076827950999991993010917004-07217-035883FM-15+0560SBKG V0200901N00411030001CN0112651N1+02901+01601999999ADDAG11999GA1041+006009089GA2041+030009039MA1101291999999EQDQ01+000000PRSWM2
0095827950999991993010918004-07217-035883FM-12+0560SBKG V0201401N00571007501CN0200001N9+02881+01891101011ADDAA106000091AG14000GF107991051021008001041001MA1999999094891MD1999999+0041REMSYN010 333 58004
0060827950999991993011017004-07217-035883FM-15+0560SBKG V0201101N00611007501CN0112651N1+03201+01601999999ADDAG11999GA1051+007509089MA1101291999999EQDQ01+000000PRSWM2
0130827950999991993011018004-07217-035883SY-MT+0560SBKG V0201401N00311007501CN0040001N1+03101+01501101011ADDAA106000091AG11000GA1051+007509089GF105991041021008001061001MA1101191094001MD1999999+0011REMSYN010 333 58001EQDQ01+000000PRSWM2
0133827950999991993011100004-07217-035883FM-12+0560SBKG V0200901N00511220001CN0200001N9+02261+01921101431ADDAA106000091AG14000GF102991021011008001001001KA1240M+03221MA1999999095262MD1999999+0151REMSYN016 333 10322 58015EQDQ01+095263APOSP 
0149827950999991993011112004-07217-035883SY-MT+0560SBKG V0200901N00311004801CN0200001N1+02531+01911101521ADDAA106000091AG11000GA1051+004809089GF106991041021008001021001KA1240N+02081MA1101691095351MD1999999+0081REMSYN016 333 20208 58008EQDQ01+000000PRSWM2
0066827950999991993011116004-07217-035883FM-15+0560SBKG V0209999999999220001CN0010001N1+99999+99999999999ADDAG11999REMMET0288KT 9999 6CU016 31/19 1015 ?EQDQ01+000000PRSWM2
0114827950999991993011200004-07217-035883FM-12+0560SBKG V0200901N00511220001CN0200001N9+02281+01971101371ADDAA106000091AG14000GF103991031041008001001001KA1240M+03061MA1999999095211MD1999999-0051REMSYN016 333 10306 59005
0092827950999991993011210004-07217-035883FM-15+0560SBKG V0201001N00301003601CN0112651N1+02201+01901999999ADDAG11999GA1051+003609059GA2041+004809089GA3061+030009039MA1101591999999EQDQ01+000000PRSWM2
0136827950999991993011212004-07217-035883FM-12+0560SBKG V0200901N00461007501CN0100001N9+02481+01851101491ADDAA106000091AG10000AY121061AY221061GF107991071061008001001001KA1240N+02021MA1999999095331MD1999999-0021MW1051REMSYN016 333 20202 59002
0076827950999991993011213004-07217-035883FM-15+0560SBKG V0201301N00411030001CN0112651N1+02701+01701999999ADDAG11999GA1041+004809089GA2051+030009039MA1101691999999EQDQ01+000000PRSWM2
0060827950999991993011312004-07217-035883FM-15+0560SBKG V0201301N00511004801CN0112651N1+02501+01801999999ADDAG11000GA1061+004809089MA1101491999999EQDQ01+000000PRSWM2
0060827950999991993011316004-07217-035883FM-15+0560SBKG V0201001N00411006001CN0112651N1+03001+01801999999ADDAG11999GA1051+006009089MA1101391999999EQDQ01+000000PRSWM2
0060827950999991993011317004-07217-035883FM-15+0560SBKG V0201301N00511220001CN0112651N1+03101+01601999999ADDAG11999GA1041+007509089MA1101391999999EQDQ01+000000PRSWM2
0130827950999991993011318004-07217-035883SY-MT+0560SBKG V0201401N00511220001CN0200001N1+03081+01401101081ADDAA106000091AG11000GA1021+007509089GF104991041011008001001001MA1101291094971MD1999999+0011REMSYN010 333 58001EQDQ01+000000PRSWM2
0149827950999991993011412004-07217-035883SY-MT+0560SBKG V0200501N00361004801CN0200001N1+02561+01781101571ADDAA106000091AG11000GA1061+004809089GF106991061021008001001001KA1240N+02001MA1101591095411MD1999999+0101REMSYN016 333 20200 58010EQDQ01+000000PRSWM2
0076827950999991993011416004-07217-035883FM-15+0560SBKG V0201201N00511009001CN0112651N1+02801+01701999999ADDAG11999GA1021+006009089GA2051+009009059MA1101391999999EQDQ01+000000PRSWM2
0076827950999991993011417004-07217-035883FM-15+0560SBKG V0201101N00411009001CN0112651N1+03001+01601999999ADDAG11999GA1021+006009089GA2031+009009059MA1101391999999EQDQ01+000000PRSWM2
0146827950999991993011418004-07217-035883SY-MT+0560SBKG V0201401N00511009001CN0200001N1+02871+01651101051ADDAA106000091AG11000GA1021+006009089GA2061+009009059GF106991031051008001011041MA1101291094931MD1999999-0041REMSYN010 333 59004EQDQ01+000000PRSWM2
0130827950999991993011500004-07217-035883FM-12+0560SBKG V0200901N00511220001CN0200001N9+02231+01751101491ADDAA106000091AG14000GA1001+999999999GF100991001001999999001001KA1240M+02991MA1999999095331MD1999999+0051REMSYN016 333 10299 58005
0076827950999991993011510004-07217-035883FM-15+0560SBKG V0201001N00301006001CN0112651N1+02201+01801999999ADDAG11999GA1021+004809059GA2041+006009089MA1101491999999EQDQ01+000000PRSWM2
0060827950999991993011511004-07217-035883FM-15+0560SBKG V0201201N00411006001CN0112651N1+02301+01701999999ADDAG11999GA1051+006009089MA1101491999999EQDQ01+000000PRSWM2
0060827950999991993011514004-07217-035883FM-15+0560SBKG V0201001N00511220001CN0112651N1+02901+01701999999ADDAG11999GA1021+007809089MA1101491999999EQDQ01+000000PRSWM2
0095827950999991993011518004-07217-035883FM-12+0560SBKG V0200901N00311007501CN0200001N9+03091+01411100981ADDAA106000091AG14000GF105991051021008001001001MA1999999094851MD1999999-0071REMSYN010 333 59007
0076827950999991993011612004-07217-035883FM-15+0560SBKG V0201301N00511024001CN0112651N1+02701+01701999999ADDAG11000GA1011+006009089GA2051+024009039MA1101591999999EQDQ01+000000PRSWM2
0076827950999991993011614004-07217-035883FM-15+0560SBKG V0201001N00511024001CN0112651N1+02901+01701999999ADDAG11999GA1021+007509089GA2071+024009039MA1101591999999EQDQ01+000000PRSWM2
0076827950999991993011616004-07217-035883FM-15+0560SBKG V0201201N00461024001CN0112651N1+02901+01801999999ADDAG11999GA1041+007509089GA2071+024009039MA1101491999999EQDQ01+000000PRSWM2
0076827950999991993011617004-07217-035883FM-15+0560SBKG V0200601N00511006001CN0112651N1+03001+01801999999ADDAG11999GA1051+006009089GA2061+024009039MA1101391999999EQDQ01+000000PRSWM2
0116827950999991993011618004-07217-035883SY-MT+0560SBKG V0200901N00461030001CN0040001N9+02881+01831101091ADDAA106000091AG10000AY121061AY221061GA1031+006009089GA2031+030009039GF107991031031008001081051MA1999999094961MW1051
0076827950999991993011620004-07217-035883FM-15+0560SBKG V0200901N00411030001CN0112651N1+02901+01601999999ADDAG11999GA1021+006009089GA2051+030009039MA1101391999999EQDQ01+000000PRSWM2
0114827950999991993011712004-07217-035883FM-12+0560SBKG V0200901N00211007501CN0200001N9+02471+01921101521ADDAA106000091AG14000GF107991051071008001081001KA1240N+02081MA1999999095351MD1999999+0061REMSYN016 333 20208 58006
0060827950999991993011716004-07217-035883FM-15+0560SBKG V0201301N00461220001CN0112651N1+03101+01801999999ADDAG11999GA1041+006009089MA1101491999999EQDQ01+000000PRSWM2
0123827950999991993011718004-07217-035883FM-12+0560SBKG V0200501N00311004201CN0020001N9+02381+01991101191ADDAA106010091AG10006AY161061AY221061GF108991061031004501071999MA1999999095031MD1999999+0071MW1601REMSYN016 333 58007 60101
0142827950999991993011800004-07217-035883FM-12+0560SBKG V0200501N00411007501CN0040001N9+02221+02031101461ADDAA106000191AG10006AY161061AY261061GF106991061061008001001001KA1240M+03121MA1999999095291MD1999999+0001MW1101REMSYN022 333 10312 58000 69911
0076827950999991993011812004-07217-035883FM-15+0560SBKG V0200901N00201060001CN0112651N1+02501+02001999999ADDAG11000GA1031+004809089GA2051+060009009MA1101801999999EQDQ01+000000PRSWM2
0060827950999991993011815004-07217-035883FM-15+0560SBKG V0200901N00411006001CN0112651N1+03001+01801999999ADDAG11000GA1051+006009089MA1101591999999EQDQ01+000000PRSWM2
0076827950999991993011816004-07217-035883FM-15+0560SBKG V0200901N00411006001CN0112651N1+03101+01701999999ADDAG11999GA1051+006009089GA2031+060009009MA1101491999999EQDQ01+000000PRSWM2
0095827950999991993011818004-07217-035883FM-12+0560SBKG V0200501N00571220001CN0200001N9+03001+01881101041ADDAA106000091AG14000GF106991041021008001001041MA1999999094931MD1999999-0101REMSYN010 333 59010
0114827950999991993011900004-07217-035883FM-12+0560SBKG V0200501N00461007501CN0200001N9+02301+02001101401ADDAA106000091AG14000GF106991061021008001001001KA1240M+03141MA1999999095241MD1999999-0051REMSYN016 333 10314 59005
0076827950999991993011911004-07217-035883FM-15+0560SBKG V0201001N00301004501CN0112651N1+02401+02001999999ADDAG11999GA1051+004509089GA2061+060009009MA1101591999999EQDQ01+000000PRSWM2
0076827950999991993011914004-07217-035883FM-15+0560SBKG V0200901N00301030001CN0112651N1+02901+01701999999ADDAG11999GA1031+007509089GA2041+030009039MA1101491999999EQDQ01+000000PRSWM2
0076827950999991993011915004-07217-035883FM-15+0560SBKG V0200901N00251220001CN0112651N1+03001+01601999999ADDAG11000GA1021+021009089GA2031+030009039MA1101491999999EQDQ01+000000PRSWM2
0095827950999991993011918004-07217-035883FM-12+0560SBKG V0200501N00511045001CN0200001N9+03041+01531100991ADDAA106000091AG14000GF107991041031008001011081MA1999999094881MD1999999-0051REMSYN010 333 59005
0114827950999991993012000004-07217-035883FM-12+0560SBKG V0200501N00571220001CN0200001N9+02251+01941101301ADDAA106000091AG14000GF103991021021008001001011KA1240M+03211MA1999999095141MD1999999-0101REMSYN016 333 10321 59010
0060827950999991993012016004-07217-035883FM-15+0560SBKG V0201201N00411006001CN0112651N1+03101+01601999999ADDAG11999GA1061+006009089MA1101391999999EQDQ01+000000PRSWM2
0095827950999991993012018004-07217-035883FM-12+0560SBKG V0200501N00311007501CN0200001N9+02951+01571100961ADDAA106000091AG14000GF107991051051008001081001MA1999999094841MD1999999-0041REMSYN010 333 59004
0092827950999991993012110004-07217-035883FM-15+0560SBKG V0201001N00301003601CN0112651N1+02201+02001999999ADDAG11999GA1041+003009079GA2051+003609059GA3031+030009039MA1101491999999EQDQ01+000000PRSWM2
0076827950999991993012111004-07217-035883FM-15+0560SBKG V0200401N00301003901CN0112651N1+02301+02001999999ADDAG11999GA1051+003909089GA2031+060009009MA1101591999999EQDQ01+000000PRSWM2
0165827950999991993012112004-07217-035883SY-MT+0560SBKG V0200501N00361220001CN0200001N1+02501+01751101321ADDAA106000091AG11000GA1051+006009089GF199999031021008001001001KA1240N+02031MA1101591095161MD1999999-0071REMSYN016 333 20203 59007EQDQ01+000032SCOTCVQ02+000000PRSWM2
0060827950999991993012116004-07217-035883FM-15+0560SBKG V0200801N00411220001CN0112651N1+03101+01401999999ADDAG11999GA1031+007509089MA1101391999999EQDQ01+000000PRSWM2
0060827950999991993012118004-07217-035883FM-15+0560SBKG V0200901N00411220001CN0112651N1+03201+01301999999ADDAG11000GA1031+007509089MA1101291999999EQDQ01+000000PRSWM2
0066827950999991993012211004-07217-035883FM-15+0560SBKG V0209999999999220001CN0011011N1+99999+99999999999ADDAG11999REMMET0282KT 9999 5CU015 24/19 1016 ?EQDQ01+000000PRSWM2
0060827950999991993012212004-07217-035883FM-15+0560SBKG V0201101N00511006001CN0112651N1+02701+01701999999ADDAG11000GA1051+006009089MA1101591999999EQDQ01+000000PRSWM2
0060827950999991993012215004-07217-035883FM-15+0560SBKG V0201001N00511006001CN0112651N1+03001+01701999999ADDAG11000GA1051+006009089MA1101491999999EQDQ01+000000PRSWM2
0060827950999991993012310004-07217-035883FM-15+0560SBKG V0201001N00301003001CN0112651N1+02201+02001999999ADDAG11999GA1061+003009089MA1101491999999EQDQ01+000000PRSWM2
0114827950999991993012312004-07217-035883FM-12+0560SBKG V0200901N00511220001CN0200001N9+02531+01681101361ADDAA106000091AG14000GF104991041011008001001001KA1240N+02001MA1999999095201MD1999999-0051REMSYN016 333 20200 59005
0060827950999991993012314004-07217-035883FM-15+0560SBKG V0201001N00411006001CN0112651N1+02801+01601999999ADDAG11999GA1051+006009089MA1101491999999EQDQ01+000000PRSWM2
0060827950999991993012315004-07217-035883FM-15+0560SBKG V0201301N00611006001CN0112651N1+03001+01501999999ADDAG11000GA1051+006009089MA1101491999999EQDQ01+000000PRSWM2
0056827950999991993012316004-07217-035883FM-15+0560SBKG V0202001N00511220001CN0112651N1+99999+99999999999ADDAG11999REMMET0184CU)20 31/161014 ?EQDQ01+000000PRSWM2
0060827950999991993012317004-07217-035883FM-15+0560SBKG V0201001N00301220001CN0112651N1+03101+01501999999ADDAG11999GA1041+006009089MA1101291999999EQDQ01+000000PRSWM2
0060827950999991993012318004-07217-035883FM-15+0560SBKG V0200801N00611220001CN0112651N1+03101+01501999999ADDAG11000GA1041+007509089MA1101391999999EQDQ01+000000PRSWM2
0060827950999991993012416004-07217-035883FM-15+0560SBKG V0201001N00511220001CN0112651N1+03001+01401999999ADDAG11999GA1041+007509089MA1101291999999EQDQ01+000000PRSWM2
0060827950999991993012417004-07217-035883FM-15+0560SBKG V0201301N00611220001CN0112651N1+03101+01401999999ADDAG11999GA1031+007509089MA1101191999999EQDQ01+000000PRSWM2
0152827950999991993012418004-07217-035883SY-MT+0560SBKG V0200901N00571220001CN0040001N1+02961+01381101031ADDAA106000091AG11000AY121061AY211061GA1011+007509089GF102991021011008001001001MA1101191094911MD1999999+0031MW1051REMSYN010 333 58003EQDQ01+000000PRSWM2
0060827950999991993012419004-07217-035883FM-15+0560SBKG V0201101N00611220001CN0112651N1+03001+01201999999ADDAG11999GA1011+007509089MA1101191999999EQDQ01+000000PRSWM2
0060827950999991993012420004-07217-035883FM-15+0560SBKG V0201201N00611220001CN0112651N1+02901+01501999999ADDAG11999GA1011+007509089MA1101191999999EQDQ01+000000PRSWM2
0142827950999991993012512004-07217-035883FM-12+0560SBKG V0200901N00411045001CN0040001N9+02141+01971101331ADDAA124000391AG10006AY161061AY251061GF108991041071004501011999KA1240N+02031MA1999999095151MD1999999-0011MW1011REMSYN022 333 20203 59001 69934
0060827950999991993012514004-07217-035883FM-15+0560SBKG V0201101N00411006001CN0112651N1+02701+01901999999ADDAG11999GA1071+006009089MA1101491999999EQDQ01+000000PRSWM2
0076827950999991993012517004-07217-035883FM-15+0560SBKG V0201001N00511030001CN0112651N1+02901+01601999999ADDAG11999GA1031+006009089GA2051+030009039MA1101291999999EQDQ01+000000PRSWM2
0185827950999991993012518004-07217-035883SY-MT+0560SBKG V0200901N00461030001CN0100001N1+02811+01561101031ADDAA106000291AA299000191AG11001AY151061AY251061GA1031+006009089GA2051+030009039GF107991041041008001051001MA1101291094901MD1999999-0011MW1021REMSYN016 333 59001 69921EQDQ01+000000PRSWM2
0076827950999991993012519004-07217-035883FM-15+0560SBKG V0201001N00511030001CN0112651N1+02901+01501999999ADDAG11999GA1031+006009089GA2041+030009039MA1101291999999EQDQ01+000000PRSWM2
0060827950999991993012615004-07217-035883FM-15+0560SBKG V0201101N00721220001CN0112651N1+03001+01601999999ADDAG11000GA1041+006009089MA1101491999999EQDQ01+000000PRSWM2
0060827950999991993012617004-07217-035883FM-15+0560SBKG V0201001N00511006001CN0112651N1+03101+01601999999ADDAG11999GA1051+006009089MA1101391999999EQDQ01+000000PRSWM2
0095827950999991993012618004-07217-035883FM-12+0560SBKG V0200901N00621007501CN0100001N9+02911+01601101111ADDAA106000091AG14000GF106991051071008001011001MA1999999094981MD1999999+0081REMSYN010 333 58008
0076827950999991993012619004-07217-035883FM-15+0560SBKG V0201001N00411007501CN0112651N1+02901+01501999999ADDAG11999GA1041+006009059GA2051+007509089MA1101391999999EQDQ01+000000PRSWM2
0076827950999991993012711004-07217-035883FM-15+0560SBKG V0201101N00511004801CN0112651N1+02401+01701999999ADDAG11999GA1051+004809089GA2031+060009009MA1101691999999EQDQ01+000000PRSWM2
0165827950999991993012712004-07217-035883SY-MT+0560SBKG V0201401N00511220001CN0200001N1+02501+01701101461ADDAA106000091AG11000GA1031+006009089GA2031+060009009GF104991031021008001001011KA1240N+01921MA1101691095301MD1999999+0061REMSYN016 333 20192 58006EQDQ01+000000PRSWM2
0076827950999991993012715004-07217-035883FM-15+0560SBKG V0201101N00411060001CN0112651N1+02901+01401999999ADDAG11000GA1011+006009089GA2061+060009009MA1101591999999EQDQ01+000000PRSWM2
0076827950999991993012716004-07217-035883FM-15+0560SBKG V0201201N00511060001CN0112651N1+03001+01501999999ADDAG11999GA1011+006009089GA2071+060009009MA1101491999999EQDQ01+000000PRSWM2
0076827950999991993012717004-07217-035883FM-15+0560SBKG V0201201N00611060001CN0112651N1+03001+01601999999ADDAG11999GA1021+006009089GA2071+060009009MA1101391999999EQDQ01+000000PRSWM2
0127827950999991993012718004-07217-035883SY-MT+0560SBKG V0201401N00571060001CN0200001N9+02991+01681101111ADDAA106000091AG14000GA1021+006009089GA2071+060009009GF107991041021008001081041MA1999999094971MD1999999-0011REMSYN010 333 59001
0076827950999991993012811004-07217-035883FM-15+0560SBKG V0201201N00301030001CN0112651N1+02401+01901999999ADDAG11999GA1041+004509089GA2031+030009039MA1101691999999EQDQ01+000000PRSWM2
0114827950999991993012812004-07217-035883FM-12+0560SBKG V0200901N00511220001CN0200001N9+02561+01801101501ADDAA106000091AG14000GF106991041021008001001011KA1240N+02011MA1999999095341MD1999999+0041REMSYN016 333 20201 58004
0076827950999991993012814004-07217-035883FM-15+0560SBKG V0201001N00511030001CN0112651N1+02901+01601999999ADDAG11999GA1011+006009089GA2071+030009039MA1101691999999EQDQ01+000000PRSWM2
0076827950999991993012815004-07217-035883FM-15+0560SBKG V0201501N00511024001CN0112651N1+03001+01601999999ADDAG11000GA1011+006009089GA2071+024009039MA1101591999999EQDQ01+000000PRSWM2
0076827950999991993012817004-07217-035883FM-15+0560SBKG V0201301N00301024001CN0112651N1+03001+01601999999ADDAG11999GA1021+006009089GA2051+024009039MA1101391999999EQDQ01+000000PRSWM2
0162827950999991993012818004-07217-035883SY-MT+0560SBKG V0200901N00671024001CN0200001N1+02891+01701101161ADDAA106000091AG11000GA1021+006009089GA2041+024009039GA3061+060009009GF107991041081008001031011MA1101391095031MD1999999+0061REMSYN010 333 58006EQDQ01+000000PRSWM2
0076827950999991993012819004-07217-035883FM-15+0560SBKG V0201001N00511060001CN0112651N1+02901+01601999999ADDAG11999GA1021+007509089GA2061+060009009MA1101391999999EQDQ01+000000PRSWM2
0076827950999991993012820004-07217-035883FM-15+0560SBKG V0201301N00611060001CN0112651N1+02901+01601999999ADDAG11999GA1021+007509089GA2061+060009009MA1101491999999EQDQ01+000000PRSWM2
0114827950999991993012900004-07217-035883FM-12+0560SBKG V0200901N00411220001CN0200001N9+02301+01751101521ADDAA106000091AG14000GF102991011001999999031021KA1240M+03021MA1999999095351MD1999999+0031REMSYN016 333 10302 58003
0060827950999991993012910004-07217-035883FM-15+0560SBKG V0201001N00301220001CN0112651N1+02201+01901999999ADDAG11999GA1031+003009089MA1101591999999EQDQ01+000000PRSWM2
0076827950999991993012911004-07217-035883FM-15+0560SBKG V0201001N00301060001CN0112651N1+02401+01601999999ADDAG11999GA1041+004809089GA2031+060009009MA1101691999999EQDQ01+000000PRSWM2
0076827950999991993012912004-07217-035883FM-15+0560SBKG V0201301N00611060001CN0112651N1+02501+01801999999ADDAG11000GA1041+004809089GA2031+060009009MA1101691999999EQDQ01+000000PRSWM2
0076827950999991993012915004-07217-035883FM-15+0560SBKG V0201001N00301084001CN0112651N1+03001+01501999999ADDAG11000GA1041+007509089GA2061+084009009MA1101491999999EQDQ01+000000PRSWM2
0076827950999991993012916004-07217-035883FM-15+0560SBKG V0201001N00411060001CN0112651N1+03201+01501999999ADDAG11999GA1021+007509089GA2061+060009009MA1101491999999EQDQ01+000000PRSWM2
0115827950999991993012918004-07217-035883SY-MT+0560SBKG V0200901N00571045001CN0200001N9+03031+01471101091ADDAA106000091AG14000GF106991031011008001031041MA1999999094961MD1999999-0071REMSYN010 333 59007MET014CAVOK 2CI200 ?
0114827950999991993013012004-07217-035883FM-12+0560SBKG V0201401N00411012001CN0200001N9+02461+01811101361ADDAA106000091AG14000GF107991071081008001001001KA1240N+02001MA1999999095201MD1999999-0081REMSYN016 333 20200 59008
0076827950999991993013015004-07217-035883FM-15+0560SBKG V0201001N00411060001CN0112651N1+03001+01701999999ADDAG11000GA1031+006009089GA2041+060009009MA1101391999999EQDQ01+000000PRSWM2
0076827950999991993013016004-07217-035883FM-15+0560SBKG V0201101N00411060001CN0112651N1+03001+01501999999ADDAG11999GA1041+006009089GA2051+060009009MA1101291999999EQDQ01+000000PRSWM2
0076827950999991993013017004-07217-035883FM-15+0560SBKG V0201001N00721060001CN0112651N1+03001+01601999999ADDAG11999GA1041+006009089GA2051+060009009MA1101291999999EQDQ01+000000PRSWM2
0095827950999991993013018004-07217-035883FM-12+0560SBKG V0201401N00571045001CN0200001N9+02931+01621100951ADDAA106000091AG14000GF108991041081008001051041MA1999999094831MD1999999-0131REMSYN010 333 59013
0060827950999991993013111004-07217-035883FM-15+0560SBKG V0201001N00511004801CN0112651N1+02401+01901999999ADDAG11999GA1061+004809089MA1101491999999EQDQ01+000000PRSWM2
0076827950999991993013112004-07217-035883FM-15+0560SBKG V0201001N00611004801CN0112651N1+02601+01801999999ADDAG11000GA1051+004809089GA2031+060009009MA1101491999999EQDQ01+000000PRSWM2
0076827950999991993013116004-07217-035883FM-15+0560SBKG V0201101N00411060001CN0112651N1+03001+01501999999ADDAG11999GA1041+007509089GA2051+060009009MA1101291999999EQDQ01+000000PRSWM2
0076827950999991993013117004-07217-035883FM-15+0560SBKG V0201001N00611060001CN0112651N1+03001+01501999999ADDAG11999GA1031+007509089GA2061+060009009MA1101291999999EQDQ01+000000PRSWM2
0117827950999991993013118004-07217-035883FM-12+0560SBKG V0200901N00511007501CN0100001N9+02921+01711101001ADDAA106000091AG15000AY121061AY221061GF107991051071008001031001MA1999999094881MD1999999+0051MW1151REMSYN010 333 58005
0083827950999991993013120004-07217-035883FM-15+0560SBKG V0201101N00411999991CY0099001N1+99999+99999999999ADDAG11999MA1101291999999REMMET030CAVOK 165 1013 4AC120 5CI200 ?EQDQ01+000000PRSWM2
0063827950999991993020110004-07217-035883FM-15+0560SBKG V0209991C00001060001CN0112651N1+02301+02001999999ADDAG11999GA1031+003009059GA2051+060009009MA1101491999999MW1101
0076827950999991993020111004-07217-035883FM-15+0560SBKG V0201001N00251004801CN0112651N1+02401+01901999999ADDAG11999GA1051+004809089GA2061+030009039MA1101491999999EQDQ01+000000PRSWM2
0076827950999991993020112004-07217-035883FM-15+0560SBKG V0201001N00561060001CN0112651N1+02601+01901999999ADDAG11000GA1041+006009089GA2041+060009009MA1101491999999EQDQ01+000000PRSWM2
0076827950999991993020113004-07217-035883FM-15+0560SBKG V0201101N00511060001CN0112651N1+02701+01801999999ADDAG11999GA1041+006009089GA2041+060009009MA1101591999999EQDQ01+000000PRSWM2
0076827950999991993020114004-07217-035883FM-15+0560SBKG V0201201N00511060001CN0112651N1+02901+01501999999ADDAG11999GA1041+006009089GA2051+060009009MA1101491999999EQDQ01+000000PRSWM2
0092827950999991993020115004-07217-035883FM-15+0560SBKG V0201001N00511036001CN0112651N1+03001+01601999999ADDAG11000GA1031+006009089GA2031+036009039GA3061+060009009MA1101391999999EQDQ01+000000PRSWM2
0146827950999991993020118004-07217-035883SY-MT+0560SBKG V0200901N00411030001CN0100001N1+02801+01691101041ADDAA106000091AG11000GA1031+006909089GA2071+030009039GF108991051051008001081999MA1101291094911MD1999999+0031REMSYN010 333 58003EQDQ01+000000PRSWM2
0076827950999991993020119004-07217-035883FM-15+0560SBKG V0201001N00411030001CN0112651N1+02901+01701999999ADDAG11999GA1021+006909089GA2071+030009039MA1101291999999EQDQ01+000000PRSWM2
0076827950999991993020217004-07217-035883FM-15+0560SBKG V0200901N00411030001CN0112651N1+03001+01701999999ADDAG11999GA1041+006009089GA2031+030009039MA1101291999999EQDQ01+000000PRSWM2
0095827950999991993020218004-07217-035883FM-12+0560SBKG V0200901N00721045001CN0200001N9+02831+01741101061ADDAA106000091AG14000GF106991031021008001041001MA1999999094931MD1999999+0021REMSYN010 333 58002
0076827950999991993020219004-07217-035883FM-15+0560SBKG V0201001N00611220001CN0112651N1+02901+01701999999ADDAG11999GA1021+006009089GA2031+030009039MA1101291999999EQDQ01+000000PRSWM2
0076827950999991993020220004-07217-035883FM-15+0560SBKG V0201101N00611220001CN0112651N1+02801+01701999999ADDAG11999GA1011+006009089GA2021+030009039MA1101291999999EQDQ01+000000PRSWM2
0114827950999991993020312004-07217-035883FM-12+0560SBKG V0200901N00511007501CN0200001N9+02481+01701101381ADDAA106000091AG14000GF106991061021008001001001KA1240N+01991MA1999999095221MD1999999-0031REMSYN016 333 20199 59003
0060827950999991993020315004-07217-035883FM-15+0560SBKG V0201001N00411220001CN0112651N1+03001+01401999999ADDAG11000GA1041+006009089MA1101391999999EQDQ01+000000PRSWM2
0060827950999991993020316004-07217-035883FM-15+0560SBKG V0200801N00361220001CN0112651N1+03001+01401999999ADDAG11999GA1041+006009089MA1101291999999EQDQ01+000000PRSWM2
0060827950999991993020317004-07217-035883FM-15+0560SBKG V0201101N00301220001CN0112651N1+03101+01501999999ADDAG11999GA1041+007509089MA1101191999999EQDQ01+000000PRSWM2
0095827950999991993020318004-07217-035883FM-12+0560SBKG V0200901N00311045001CN0200001N9+03021+01391100841ADDAA106000091AG14000GF107991041051008001051001MA1999999094841MD1999999-0091REMSYN010 333 59009
0076827950999991993020319004-07217-035883FM-15+0560SBKG V0201101N00411030001CN0112651N1+03001+01501999999ADDAG11999GA1041+007509089GA2031+030009039MA1101191999999EQDQ01+000000PRSWM2
0100827950999991993020412004-07217-035883FM-12+0560SBKG V0200901N00311007501CN0200001N9+02481+01851101381ADDAA106000091AG14000GF106991061021008001001001KA1240N+02011MA1999999095221REMSYN016 333 20201 5800/
0095827950999991993020418004-07217-035883FM-12+0560SBKG V0200901N00411007501CN0200001N9+03051+01571100971ADDAA106000091AG14000GF106991061021008001001001MA1999999094861MD1999999+0021REMSYN010 333 58002
0060827950999991993020510004-07217-035883FM-15+0560SBKG V0201201N00511004501CN0112651N1+02201+02001999999ADDAG11999GA1061+004509089MA1101591999999EQDQ01+000000PRSWM2
0060827950999991993020512004-07217-035883FM-15+0560SBKG V0200901N00411006001CN0112651N1+02501+01801999999ADDAG11000GA1061+006009089MA1101691999999EQDQ01+000000PRSWM2
0095827950999991993020518004-07217-035883FM-12+0560SBKG V0201401N00101220001CN0200001N9+03071+01251101001ADDAA106000091AG14000GF102991011011012501001011MA1999999094891MD1999999+0031REMSYN010 333 58003
0061827950999991993020520004-07217-035883FM-15+0560SBKG V0200901N00511999991CY0099001N1+02901+01401999999ADDAG11999MA1101291999999REMMET008CAVOK SKEQDQ01+000000PRSWM2
0114827950999991993020612004-07217-035883FM-12+0560SBKG V0201401N00511220001CN0200001N9+02491+01771101491ADDAA106000091AG14000GF104991041021008001001001KA1240N+01991MA1999999095921MD1999999+0041REMSYN016 333 20199 58004
0060827950999991993020616004-07217-035883FM-15+0560SBKG V0201101N00511220001CN0112651N1+03101+01601999999ADDAG11999GA1011+006009089MA1101291999999EQDQ01+000000PRSWM2
0076827950999991993020617004-07217-035883FM-15+0560SBKG V0201301N00301220001CN0112651N1+03201+01601999999ADDAG11999GA1011+007509089GA2031+060009009MA1101291999999EQDQ01+000000PRSWM2
0076827950999991993020620004-07217-035883FM-15+0560SBKG V0201101N00301220001CN0112651N1+02901+01601999999ADDAG11999GA1011+007509089GA2031+060009009MA1101291999999EQDQ01+000000PRSWM2
0114827950999991993020712004-07217-035883FM-12+0560SBKG V0200901N00511007501CN0200001N9+02541+01761101431ADDAA106000091AG14000GF105991051051008001001001KA1240N+02001MA1999999095271MD1999999-0051REMSYN016 333 20200 59005
0060827950999991993020716004-07217-035883FM-15+0560SBKG V0201001N00411220001CN0112651N1+03201+01701999999ADDAG11999GA1041+007509089MA1101391999999EQDQ01+000000PRSWM2
0060827950999991993020717004-07217-035883FM-15+0560SBKG V0201201N00511220001CN0112651N1+03201+01601999999ADDAG11999GA1021+007509089MA1101291999999EQDQ01+000000PRSWM2
0130827950999991993020718004-07217-035883SY-MT+0560SBKG V0200901N00511220001CN0200001N1+03031+01991101061ADDAA106000091AG11000GA1031+007509089GF103991031021008001001001MA1101291094941MD1999999+0001REMSYN010 333 58000EQDQ01+000000PRSWM2
0060827950999991993020812004-07217-035883FM-15+0560SBKG V0201001N00411006001CN0112651N1+02601+01801999999ADDAG11000GA1061+006009089MA1101691999999EQDQ01+000000PRSWM2
0114827950999991993020818004-07217-035883FM-12+0560SBKG V0200901N00721007501CN0200001N9+02561+01831101431ADDAA106000091AG14000GF106991061021008001001001KA1240N+02101MA1999999095271MD1999999+0001REMSYN016 333 20210 58000
0076827950999991993020911004-07217-035883FM-15+0560SBKG V0201101N00511004801CN0112651N1+02401+01901999999ADDAG11999GA1021+003609059GA2041+004809089MA1101591999999EQDQ01+000000PRSWM2
0060827950999991993020914004-07217-035883FM-15+0560SBKG V0201001N00511007501CN0112651N1+02901+01601999999ADDAG11999GA1051+007509089MA1101591999999EQDQ01+000000PRSWM2
0060827950999991993020915004-07217-035883FM-15+0560SBKG V0201101N00721220001CN0112651N1+03001+01501999999ADDAG11000GA1041+007509089MA1101591999999EQDQ01+000000PRSWM2
0095827950999991993020918004-07217-035883FM-12+0560SBKG V0200901N00461007501CN0200001N9+03061+01551101101ADDAA106000091AG14000GF105991051021008001001001MA1999999094981MD1999999+0121REMSYN010 333 58012
0060827950999991993021016004-07217-035883FM-15+0560SBKG V0201201N00511007501CN0112651N1+03101+01501999999ADDAG11999GA1051+007509089MA1101391999999EQDQ01+000000PRSWM2
0076827950999991993021017004-07217-035883FM-15+0560SBKG V0201001N00511060001CN0112651N1+03001+01501999999ADDAG11999GA1041+007509089GA2031+060009009MA1101291999999EQDQ01+000000PRSWM2
0146827950999991993021018004-07217-035883SY-MT+0560SBKG V0201401N00511060001CN0200001N1+03051+01491101011ADDAA106000091AG11000GA1021+007509089GA2041+060009009GF106991031021008001031041MA1101191094901MD1999999-0081REMSYN010 333 59008EQDQ01+000000PRSWM2
0060827950999991993021111004-07217-035883FM-15+0560SBKG V0201201N00301220001CN0112651N1+02401+01801999999ADDAG11999GA1041+006009089MA1101491999999EQDQ01+000000PRSWM2
0114827950999991993021112004-07217-035883FM-12+0560SBKG V0200901N00411007501CN0200001N9+02551+01781101261ADDAA106000091AG14000GF106991061021008001001001KA1240N+01961MA1999999095111MD1999999-0241REMSYN016 333 20196 59024
0060827950999991993021116004-07217-035883FM-15+0560SBKG V0201201N00411006001CN0112651N1+02901+01401999999ADDAG11999GA1051+006009089MA1101191999999EQDQ01+000000PRSWM2
0146827950999991993021118004-07217-035883SY-MT+0560SBKG V0200901N00461007501CN0200001N1+03131+01411100791ADDAA106000091AG11000GA1051+007509089GA2031+060009009GF106991051021008001001041MA1101021094691MD1999999-0211REMSYN010 333 59021EQDQ01+000000PRSWM2
0076827950999991993021212004-07217-035883FM-15+0560SBKG V0201301N00411030001CN0112651N1+02501+01801999999ADDAG11000GA1041+006009089GA2051+030009039MA1101391999999EQDQ01+000000PRSWM2
0060827950999991993021218004-07217-035883FM-15+0560SBKG V0201601N00301220001CN0112651N1+03301+01301999999ADDAG11000GA1041+007509089MA1101021999999EQDQ01+000000PRSWM2
0095827950999991993021318004-07217-035883FM-12+0560SBKG V0200501N00261220001CN0200001N9+03151+01451100701ADDAA106000091AG14000GF104991041021008001001001MA1999999094601MD1999999-0061REMSYN010 333 59006
0114827950999991993021412004-07217-035883FM-12+0560SBKG V0209999999999045001CN0100001N9+02531+01791101211ADDAA106000091AG14000GF106991041041008001031001KA1240N+02101MA1999999095061MD1999999+0081REMSYN016 333 20210 58008
0060827950999991993021416004-07217-035883FM-15+0560SBKG V0201001N00301007501CN0112651N1+03101+01701999999ADDAG11999GA1071+007509089MA1101291999999EQDQ01+000000PRSWM2
0060827950999991993021417004-07217-035883FM-15+0560SBKG V0201001N00411220001CN0112651N1+03201+01701999999ADDAG11999GA1041+006009089MA1101081999999EQDQ01+000000PRSWM2
0130827950999991993021418004-07217-035883SY-MT+0560SBKG V0201401N00361220001CN0200001N1+03081+01641100851ADDAA106000091AG14000GA1031+007509089GF105991021021008001001011MA1101081094751MD1999999+0151REMSYN010 333 58015EQDQ01+000000PRSWM2
0114827950999991993021512004-07217-035883FM-12+0560SBKG V0200901N00261007501CN0200001N9+02541+01831101181ADDAA106000091AG14000GF106991061021008001001001KA1240N+02101MA1999999095041MD1999999+0021REMSYN016 333 20210 58002
0060827950999991993021517004-07217-035883FM-15+0560SBKG V0201001N00411007501CN0112651N1+03201+01301999999ADDAG11999GA1051+007509089MA1101021999999EQDQ01+000000PRSWM2
0060827950999991993021518004-07217-035883FM-15+0560SBKG V0201001N00411007501CN0112651N1+03301+01401999999ADDAG11000GA1051+007509089MA1101021999999EQDQ01+000000PRSWM2
0060827950999991993021612004-07217-035883FM-15+0560SBKG V0201001N00411006001CN0112651N1+02601+01801999999ADDAG11000GA1061+006009089MA1101291999999EQDQ01+000000PRSWM2
0060827950999991993021618004-07217-035883FM-15+0560SBKG V0201001N00611220001CN0112651N1+03201+01401999999ADDAG11000GA1041+007509089MA1100911999999EQDQ01+000000PRSWM2
0076827950999991993021711004-07217-035883FM-15+0560SBKG V0201101N00511030001CN0112651N1+02401+01801999999ADDAG11999GA1041+004509089GA2031+030009039MA1101291999999EQDQ01+000000PRSWM2
0114827950999991993021712004-07217-035883FM-12+0560SBKG V0200901N00311045001CN0200001N9+02551+01731101121ADDAA106000091AG14000GF106991031021008001031011KA1240N+02001MA1999999094981MD1999999+0021REMSYN016 333 20200 58002
0146827950999991993021718004-07217-035883SY-MT+0560SBKG V0200901N00311060001CN0200001N1+03061+01551100691ADDAA106000091AG11000GA1021+007509089GA2061+060009009GF107991041021008001061041MA1100911094591MD1999999-0021REMSYN010 333 59002EQDQ01+000000PRSWM2
0133827950999991993021812004-07217-035883FM-12+0560SBKG V0200501N00511220001CN0010001N9+02291+01941101041ADDAA106000091AG14000GF104991999061008001001001KA1240M+03161MA1999999094901MD1999999-0021REMSYN016 333 10316 59002EQDQ01+000052SCOTLC
0060827950999991993021816004-07217-035883FM-15+0560SBKG V0201001N00411007501CN0112651N1+03101+01301999999ADDAG11999GA1051+007509089MA1101081999999EQDQ01+000000PRSWM2
0076827950999991993021817004-07217-035883FM-15+0560SBKG V0201001N00511009001CN0112651N1+03201+01201999999ADDAG11999GA1051+009009089GA2031+060009009MA1101021999999EQDQ01+000000PRSWM2
0146827950999991993021818004-07217-035883SY-MT+0560SBKG V0201401N00151007501CN0200001N1+03231+01611100701ADDAA106000091AG11000GA1051+007509089GA2031+060009009GF107991031041008001031041MA1100911094611MD1999999+0021REMSYN010 333 58002EQDQ01+000000PRSWM2
0076827950999991993021820004-07217-035883FM-15+0560SBKG V0201101N00511220001CN0112651N1+02801+01901999999ADDAG11999GA1021+007509089GA2031+030009039MA1101021999999EQDQ01+000000PRSWM2
0076827950999991993021916004-07217-035883FM-15+0560SBKG V0201101N00411060001CN0112651N1+03101+01501999999ADDAG11999GA1031+006009089GA2041+060009009MA1101291999999EQDQ01+000000PRSWM2
0076827950999991993021917004-07217-035883FM-15+0560SBKG V0201201N00201060001CN0112651N1+03101+01301999999ADDAG11999GA1031+006009089GA2061+060009009MA1101291999999EQDQ01+000000PRSWM2
0095827950999991993022018004-07217-035883FM-12+0560SBKG V0200901N00151007501CN0200001N9+03031+01171101151ADDAA106000091AG14000GF107991051021008001001081MA1999999095031MD1999999+0181REMSYN010 333 58018
0095827950999991993022118004-07217-035883FM-12+0560SBKG V0201401N00461007501CN0200001N9+03131+01681101101ADDAA106000091AG14000GF105991051021008001001001MA1999999094991MD1999999+0041REMSYN010 333 58004
0060827950999991993022216004-07217-035883FM-15+0560SBKG V0200901N00511007501CN0112651N1+03201+01701999999ADDAG11999GA1051+007509089MA1101391999999EQDQ01+000000PRSWM2
0060827950999991993022217004-07217-035883FM-15+0560SBKG V0201001N00301007501CN0112651N1+03301+01401999999ADDAG11999GA1051+007509089MA1101291999999EQDQ01+000000PRSWM2
0095827950999991993022218004-07217-035883FM-12+0560SBKG V0201401N00461220001CN0200001N9+03221+01691100941ADDAA106000091AG14000GF104991041021008001001001MA1999999094851MD1999999+0141REMSYN010 333 58014
0114827950999991993022312004-07217-035883FM-12+0560SBKG V0200901N00311007501CN0200001N9+02551+01911101261ADDAA106000091AG14000GF105991051051008001001001KA1240N+02041MA1999999095121MD1999999-0251REMSYN016 333 20204 59025
0076827950999991993022317004-07217-035883FM-15+0560SBKG V0201001N00511006001CN0112651N1+03101+01601999999ADDAG11999GA1051+006009089GA2031+030009039MA1101081999999EQDQ01+000000PRSWM2
0092827950999991993022318004-07217-035883FM-15+0560SBKG V0201001N00511030001CN0112651N1+03101+02602999999ADDAG11000GA1041+006009089GA2051+030009039MA1101021999999EQDQ01+029923ATOD  Q02+000000PRSWM2
0060827950999991993022410004-07217-035883FM-15+0560SBKG V0201001N00411220001CN0112651N1+02301+02001999999ADDAG11999GA1041+004809089MA1101391999999EQDQ01+000000PRSWM2
0165827950999991993022412004-07217-035883SY-MT+0560SBKG V0200901N00261024001CN0200001N1+02581+01871101241ADDAA106000091AG11000GA1031+006009089GA2031+024009039GF107991051021008001061001KA1240N+02131MA1101491095101MD1999999-0021REMSYN016 333 20213 59002EQDQ01+000000PRSWM2
0130827950999991993022418004-07217-035883SY-MT+0560SBKG V0200901N00461007501CN0200001N1+03041+01851100791ADDAA106000091AG11000GA1031+006009089GF105991051041008001001001MA1101021094691MD1999999+0021REMSYN010 333 58002EQDQ01+000000PRSWM2
0063827950999991993022510004-07217-035883FM-15+0560SBKG V0201001N00301004501CN0112651N1+02201+02001999999ADDAG11999GA1041+002409059GA2051+004509089MA1101391999999MW1211
0060827950999991993022512004-07217-035883FM-15+0560SBKG V0201001N00411006001CN0112651N1+02501+02001999999ADDAG11000GA1051+006009089MA1101391999999EQDQ01+000000PRSWM2
0114827950999991993022612004-07217-035883FM-12+0560SBKG V0200901N00511007501CN0100001N9+02591+01921101341ADDAA106000091AG14000GF106991061021008001001001KA1240N+02141MA1999999095191MD1999999+0151REMSYN016 333 20214 58015
0060827950999991993022616004-07217-035883FM-15+0560SBKG V0201001N00511006001CN0112651N1+03101+01701999999ADDAG11999GA1061+006009089MA1101291999999EQDQ01+000000PRSWM2
0162827950999991993022618004-07217-035883SY-MT+0560SBKG V0200901N00461220001CN9999999N9+03071+01731100931ADDAA106000091AG11000GA1041+007509089GF104991041021008001011001MA1101191094841MD1999999+0091REMSYN010 333 58009EQDQ01+020002VODIS Q02+000002VOVAR Q03+000000PRSWM2
0114827950999991993022712004-07217-035883FM-12+0560SBKG V0200901N00461045001CN0100001N9+02531+99999101421ADDAA106000091AG14000GF107991031041008001061001KA1240N+02131MA1999999095261MD1999999+0101REMSYN016 333 20213 58010
0060827950999991993022716004-07217-035883FM-15+0560SBKG V0201301N00511006001CN0112651N1+03101+01701999999ADDAG11999GA1051+006009089MA1101391999999EQDQ01+000000PRSWM2
0060827950999991993022718004-07217-035883FM-15+0560SBKG V0200701N00251006001CN0112651N1+03301+01701999999ADDAG11000GA1051+006009089MA1101191999999EQDQ01+000000PRSWM2
0114827950999991993022812004-07217-035883FM-12+0560SBKG V0200901N00311220001CN0200001N9+02511+01721101301ADDAA106000091AG14000GF104991041021008001001001KA1240N+02121MA1999999095151MD1999999-0111REMSYN016 333 20212 59011
0060827950999991993022813004-07217-035883FM-15+0560SBKG V0201001N00301006001CN0112651N1+02801+01901999999ADDAG11999GA1051+006009089MA1101491999999EQDQ01+000000PRSWM2
0060827950999991993022815004-07217-035883FM-15+0560SBKG V0201301N00301220001CN0112651N1+03001+01801999999ADDAG11000GA1031+006009089MA1101391999999EQDQ01+000000PRSWM2
0181827950999991993030112004-07217-035883SY-MT+0560SBKG V0201401N00361006001CN0200001N1+02581+01901101091ADDAA106000091AG11000GA1051+006009089GA2041+060009009GF107991051041008001021999KA1240N+02041MA1101291094951MD1999999-0201REMSYN016 333 20204 59020EQDQ01+000002SCOHCGQ02+000000PRSWM2
0095827950999991993030118004-07217-035883FM-12+0560SBKG V0201401N00361007501CN0200001N9+03041+01681100731ADDAA106000091AG14000GF106991051041008001011001MA1999999094631MD1999999-0121REMSYN010 333 59012
0101827950999991993030212004-07217-035883FM-12+0560SBKG V0201401N00361007501CN0200001N9+02541+01711101251ADDAA106000091AG14000GF106991051021008001011001MA1999999095101MD1999999+0151REMSYN016 333 2020/ 58015
0060827950999991993030217004-07217-035883FM-15+0560SBKG V0201401N00301007501CN0112651N1+03201+01401999999ADDAG11999GA1061+007509089MA1101191999999EQDQ01+000000PRSWM2
0060827950999991993030218004-07217-035883FM-15+0560SBKG V0201401N00411007501CN0112651N1+03101+01601999999ADDAG11000GA1051+007509089MA1101081999999EQDQ01+000000PRSWM2
0076827950999991993030316004-07217-035883FM-15+0560SBKG V0201401N00301060001CN0112651N1+03201+01701999999ADDAG11999GA1041+007509089GA2041+060009059MA1101391999999EQDQ01+000000PRSWM2
0076827950999991993030317004-07217-035883FM-15+0560SBKG V0201001N00411007501CN0112651N1+03201+01601999999ADDAG11999GA1051+007509089GA2041+060009009MA1101291999999EQDQ01+000000PRSWM2
0076827950999991993030410004-07217-035883FM-15+0560SBKG V0201001N00411004801CN0112651N1+02401+02001999999ADDAG11999GA1031+003609059GA2041+004809089MA1101591999999EQDQ01+000000PRSWM2
0076827950999991993030411004-07217-035883FM-15+0560SBKG V0201101N00461004801CN0112651N1+02601+01901999999ADDAG11999GA1031+004509059GA2041+004809089MA1101591999999EQDQ01+000000PRSWM2
0149827950999991993030412004-07217-035883SY-MT+0560SBKG V0201401N00411006001CN0200001N1+02581+01821101421ADDAA106000091AG14000GA1051+006009089GF106991061041008001001001KA1240N+02161MA1101591095271MD1999999+0001REMSYN016 333 20216 58000EQDQ01+000000PRSWM2
0060827950999991993030413004-07217-035883FM-15+0560SBKG V0201001N00411006001CN0112651N1+02801+01701999999ADDAG11999GA1051+006009089MA1101591999999EQDQ01+000000PRSWM2
0060827950999991993030414004-07217-035883FM-15+0560SBKG V0201101N00611007501CN0112651N1+03001+01701999999ADDAG11999GA1051+007509089MA1101591999999EQDQ01+000000PRSWM2
0095827950999991993030418004-07217-035883FM-12+0560SBKG V0200501N00361007501CN0200001N9+03231+01611100971ADDAA106000091AG14000GF106991061051008001001001MA1999999094881MD1999999-0041REMSYN010 333 59004
0076827950999991993030514004-07217-035883FM-15+0560SBKG V0201101N00561220001CN0112651N1+02901+01701999999ADDAG11999GA1011+007509089GA2031+060009009MA1101491999999EQDQ01+000000PRSWM2
0076827950999991993030515004-07217-035883FM-15+0560SBKG V0201101N00511220001CN0112651N1+03001+01601999999ADDAG11000GA1021+007509089GA2031+060009009MA1101391999999EQDQ01+000000PRSWM2
0076827950999991993030516004-07217-035883FM-15+0560SBKG V0201101N00301220001CN0112651N1+03201+01601999999ADDAG11999GA1021+007509089GA2031+060009009MA1101291999999EQDQ01+000000PRSWM2
0076827950999991993030517004-07217-035883FM-15+0560SBKG V0200801N00511060001CN0112651N1+03201+01401999999ADDAG11999GA1031+009009089GA2041+060009009MA1101191999999EQDQ01+000000PRSWM2
0095827950999991993030518004-07217-035883FM-12+0560SBKG V0201401N00411045001CN0200001N9+03201+01321100931ADDAA106000091AG14000GF106991041021008001061081MA1999999094841MD1999999-0041REMSYN010 333 59004
0133827950999991993030612004-07217-035883FM-12+0560SBKG V0201401N004119999999N0200001N9+02551+01731101491ADDAA106000091AG14000GF108991999021008001001001KA1240N+02001MA1999999095331MD1999999+0131REMSYN016 333 20200 58013EQDQ01+000042SCOTLC
0095827950999991993030618004-07217-035883FM-12+0560SBKG V0201401N00461220001CN0200001N9+03111+01731100991ADDAA106000091AG14000GF103991031021008001001001MA1999999094881MD1999999-0041REMSYN010 333 59004
0114827950999991993030712004-07217-035883FM-12+0560SBKG V0201401N00511007501CN0200001N9+02511+01771101561ADDAA106000091AG14000GF106991061031008001001001KA1240N+02021MA1999999095391MD1999999+0061REMSYN016 333 20202 58006
0095827950999991993030818004-07217-035883FM-12+0560SBKG V0201401N00461220001CN0200001N9+03181+01191101061ADDAA106000091AG14000GF104991041021008001001001MA1999999094951MD1999999-0041REMSYN010 333 59004
0114827950999991993030912004-07217-035883FM-12+0560SBKG V0200901N00411007501CN0200001N9+02571+01721101451ADDAA106000091AG14000GF105991051021008001001001KA1240N+02081MA1999999095291MD1999999-0011REMSYN016 333 20208 59001
0095827950999991993030918004-07217-035883FM-12+0560SBKG V0200901N00411007501CN0200001N9+03111+01351101001ADDAA106000091AG14000GF106991061021008001001001MA1999999094901MD1999999-0051REMSYN010 333 59005
0095827950999991993031018004-07217-035883FM-12+0560SBKG V0201401N00461220001CN0200001N9+03121+01481101021ADDAA106000091AG14000GF102991021021008001001001MA1999999094911MD1999999+0011REMSYN010 333 58001
0095827950999991993031118004-07217-035883FM-12+0560SBKG V0201401N00361220001CN0200001N9+03101+01421101041ADDAA106000091AG14000GF103991031011008001001001MA1999999094931MD1999999+0021REMSYN010 333 58002
0114827950999991993031212004-07217-035883FM-12+0560SBKG V0200901N00621220001CN0200001N9+02611+01931101431ADDAA106000091AG14000GF104991041021008001001001KA1240N+02141MA1999999095281MD1999999-0031REMSYN016 333 20214 59003
0095827950999991993031318004-07217-035883FM-12+0560SBKG V0200501N00361220001CN0100001N9+03191+01461102221ADDAA106000091AG14000GF104991031021008001001011MA1999999094861MD1999999-0171REMSYN010 333 59017
0095827950999991993031518004-07217-035883FM-12+0560SBKG V0200501N00311007501CN0200001N9+03131+01521100911ADDAA106000091AG14000GF106991061021008001001001MA1999999094821MD1999999-0061REMSYN010 333 59006
0114827950999991993031612004-07217-035883FM-12+0560SBKG V0200901N00621220001CN0200001N9+02561+01801101361ADDAA106000091AG14000GF103991021021008001001011KA1240N+02041MA1999999095211MD1999999-0031REMSYN016 333 20204 59003
0136827950999991993031712004-07217-035883FM-12+0560SBKG V0200901N00771220001CN0100001N9+02631+01751101381ADDAA106000091AG10000AY121061AY251061GF103991021021008001001011KA1240N+02161MA1999999095241MD1999999+0031MW1051REMSYN016 333 20216 58003
0076827950999991993031717004-07217-035883FM-15+0560SBKG V0201001N00411069001CN0112651N1+03001+01501999999ADDAG11999GA1011+007509089GA2071+069009009MA1101291999999EQDQ01+000000PRSWM2
0076827950999991993031718004-07217-035883FM-15+0560SBKG V0201001N00411069001CN0112651N1+03001+01501999999ADDAG11000GA1011+007509089GA2071+069009009MA1101291999999EQDQ01+000000PRSWM2
0076827950999991993031816004-07217-035883FM-15+0560SBKG V0201101N00461006001CN0112651N1+03101+01701999999ADDAG11999GA1051+006009089GA2071+078009009MA1101391999999EQDQ01+000000PRSWM2
0076827950999991993031817004-07217-035883FM-15+0560SBKG V0201101N00611120001CN0112651N1+03101+01601999999ADDAG11999GA1041+006009089GA2061+120009009MA1101291999999EQDQ01+000000PRSWM2
0095827950999991993031818004-07217-035883FM-12+0560SBKG V0200901N00461220001CN0200001N9+03021+01921101051ADDAA106000091AG14000GF106991041021008001001041MA1999999094941MD1999999+0051REMSYN010 333 58005
0060827950999991993031916004-07217-035883FM-15+0560SBKG V0201201N00511007501CN0112651N1+03101+01701999999ADDAG11999GA1051+007509089MA1101391999999EQDQ01+000000PRSWM2
0130827950999991993031918004-07217-035883SY-MT+0560SBKG V0201401N00621007501CN0200001N1+03031+01601100991ADDAA106000091AG11000GA1041+007509089GF105991051021008001001001MA1101191094881MD1999999-0061REMSYN010 333 59006EQDQ01+000000PRSWM2
0076827950999991993032010004-07217-035883FM-15+0560SBKG V0201001N00301004501CN0112651N1+02201+02101999999ADDAG11999GA1041+000309059GA2071+004509089MA1101591999999EQDQ01+000000PRSWM2
0136827950999991993032012004-07217-035883FM-12+0560SBKG V0200901N00461220001CN0100001N9+02611+01761101471ADDAA106000091AG10000AY111061AY211061GF104991041011008001001001KA1240N+02131MA1999999095321MD1999999+0061MW1051REMSYN016 333 20213 58006
0060827950999991993032013004-07217-035883FM-15+0560SBKG V0201001N00511220001CN0112651N1+02801+01801999999ADDAG11999GA1021+007509089MA1101691999999EQDQ01+000000PRSWM2
0060827950999991993032014004-07217-035883FM-15+0560SBKG V0201201N00251220001CN0112651N1+03001+01701999999ADDAG11999GA1021+007509089MA1101591999999EQDQ01+000000PRSWM2
0117827950999991993032018004-07217-035883FM-12+0560SBKG V0200901N00361220001CN0100001N9+03181+01531101041ADDAA106000091AG10000AY111061AY211061GF105991021011008001001081MA1999999094941MD1999999+0061MW1051REMSYN010 333 58006
0060827950999991993032117004-07217-035883FM-15+0560SBKG V0201501N00511220001CN0112651N1+03301+01401999999ADDAG11999GA1011+009009089MA1101291999999EQDQ01+000000PRSWM2
0102827950999991993032118004-07217-035883FM-12+0560SBKG V0200901N00511220001CN0100001N9+03191+01631100911ADDAA106000091AG10000AY111061AY211061GF102991021011008001001001MD1999999-0121MW1051REMSYN010 333 59012
0060827950999991993032210004-07217-035883FM-15+0560SBKG V0201201N00301220001CN0112651N1+02301+01901999999ADDAG11999GA1031+004809089MA1101491999999EQDQ01+000000PRSWM2
0165827950999991993032212004-07217-035883SY-MT+0560SBKG V0200901N00361220001CN0200001N1+02541+01711101451ADDAA106000091AG11000GA1051+007509089GF199999041021008001001001KA1240N+02011MA1101691095291MD1999999-0011REMSYN016 333 20201 59001EQDQ01+000042SCOTCVQ02+000000PRSWM2
0060827950999991993032213004-07217-035883FM-15+0560SBKG V0201201N00511007501CN0112651N1+02801+01601999999ADDAG11999GA1051+007509089MA1101591999999EQDQ01+000000PRSWM2
0060827950999991993032214004-07217-035883FM-15+0560SBKG V0201201N00301009001CN0112651N1+02901+01601999999ADDAG11999GA1051+009009089MA1101591999999EQDQ01+000000PRSWM2
0060827950999991993032215004-07217-035883FM-15+0560SBKG V0201001N00301220001CN0112651N1+03001+01501999999ADDAG11000GA1041+009009089MA1101491999999EQDQ01+000000PRSWM2
0060827950999991993032216004-07217-035883FM-15+0560SBKG V0201301N00301220001CN0112651N1+03101+01401999999ADDAG11999GA1041+009009089MA1101391999999EQDQ01+000000PRSWM2
0060827950999991993032217004-07217-035883FM-15+0560SBKG V0201101N00461009001CN0112651N1+03201+01201999999ADDAG11999GA1051+009009089MA1101291999999EQDQ01+000000PRSWM2
0095827950999991993032218004-07217-035883FM-12+0560SBKG V0200901N00571007501CN0200001N9+03001+01841101021ADDAA106000091AG14000GF105991051021008001001001MA1999999094911MD1999999+0091REMSYN010 333 58009
0060827950999991993032311004-07217-035883FM-15+0560SBKG V0201101N00411220001CN0112651N1+02501+01701999999ADDAG11999GA1041+006009089MA1101591999999EQDQ01+000000PRSWM2
0060827950999991993032316004-07217-035883FM-15+0560SBKG V0201001N00411007501CN0112651N1+03201+01501999999ADDAG11999GA1051+007509089MA1101391999999EQDQ01+000000PRSWM2
0165827950999991993032412004-07217-035883SY-MT+0560SBKG V0200901N00411220001CN0200001N1+02561+01851101431ADDAA106000091AG11000GA1061+004809089GF199999031021008001001001KA1240N+02041MA1101591095281MD1999999+0011REMSYN016 333 20204 58001EQDQ01+000032SCOTCVQ02+000000PRSWM2
0060827950999991993032413004-07217-035883FM-15+0560SBKG V0200801N00411006001CN0112651N1+02701+01801999999ADDAG11999GA1051+006009089MA1101591999999EQDQ01+000000PRSWM2
0060827950999991993032414004-07217-035883FM-15+0560SBKG V0201301N00301007501CN0112651N1+02901+01701999999ADDAG11999GA1061+007509089MA1101491999999EQDQ01+000000PRSWM2
0060827950999991993032416004-07217-035883FM-15+0560SBKG V0201101N00251007501CN0112651N1+03001+01601999999ADDAG11999GA1051+007509089MA1101191999999EQDQ01+000000PRSWM2
0095827950999991993032418004-07217-035883FM-12+0560SBKG V0201401N00311220001CN0200001N9+03071+01641100891ADDAA106000091AG14000GF103991031041008001061001MA1999999094781MD1999999-0051REMSYN010 333 59005
0060827950999991993032510004-07217-035883FM-15+0560SBKG V0201201N00251003901CN0112651N1+02401+02001999999ADDAG11999GA1061+003909089MA1101391999999EQDQ01+000000PRSWM2
0060827950999991993032511004-07217-035883FM-15+0560SBKG V0201201N00411004501CN0112651N1+02401+02001999999ADDAG11999GA1061+004509089MA1101391999999EQDQ01+000000PRSWM2
0152827950999991993032512004-07217-035883SY-MT+0560SBKG V0200901N00311004801CN0100001N9+02551+01881101301ADDAA106000091AG10000AY121061AY221061GA1051+004809089GF107991071021008001001001KA1240N+02111MA1999999095151MD1999999-0131MW1051REMSYN016 333 20211 59013
0060827950999991993032513004-07217-035883FM-15+0560SBKG V0201201N00411006001CN0112651N1+02801+01801999999ADDAG11999GA1051+006009089MA1101491999999EQDQ01+000000PRSWM2
0060827950999991993032514004-07217-035883FM-15+0560SBKG V0200701N00301220001CN0112651N1+02901+01801999999ADDAG11999GA1041+060009089MA1101391999999EQDQ01+000000PRSWM2
0060827950999991993032516004-07217-035883FM-15+0560SBKG V0201001N00511006001CN0112651N1+03101+01801999999ADDAG11999GA1061+006009089MA1101191999999EQDQ01+000000PRSWM2
0060827950999991993032517004-07217-035883FM-15+0560SBKG V0201001N00411007501CN0112651N1+03101+01901999999ADDAG11999GA1061+007509089MA1101081999999EQDQ01+000000PRSWM2
0130827950999991993032518004-07217-035883SY-MT+0560SBKG V0200901N00311007501CN0200001N1+03101+01771100841ADDAA106000091AG11000GA1061+007509089GF106991031021008001011001MA1101081094971MD1999999-0041REMSYN010 333 59004EQDQ01+000000PRSWM2
0060827950999991993032519004-07217-035883FM-15+0560SBKG V0200801N00411007501CN0112651N1+03001+01801999999ADDAG11999GA1051+007509089MA1101081999999EQDQ01+000000PRSWM2
0076827950999991993032520004-07217-035883FM-15+0560SBKG V0201001N00611007501CN0112651N1+02801+01801999999ADDAG11999GA1031+006009059GA2041+007509089MA1101081999999EQDQ01+000000PRSWM2
0060827950999991993032611004-07217-035883FM-15+0560SBKG V0201001N00411004801CN0112651N1+02501+02001999999ADDAG11999GA1051+004809089MA1101491999999EQDQ01+000000PRSWM2
0060827950999991993032612004-07217-035883FM-15+0560SBKG V0201101N00411220001CN0112651N1+02601+01901999999ADDAG11000GA1041+006009089MA1101491999999EQDQ01+000000PRSWM2
0060827950999991993032615004-07217-035883FM-15+0560SBKG V0201201N00411006001CN0112651N1+03001+01701999999ADDAG11000GA1061+006009089MA1101291999999EQDQ01+000000PRSWM2
0060827950999991993032617004-07217-035883FM-15+0560SBKG V0200801N00301006001CN0112651N1+03001+01901999999ADDAG11999GA1051+006009089MA1101081999999EQDQ01+000000PRSWM2
0060827950999991993032618004-07217-035883FM-15+0560SBKG V0201001N00511220001CN0112651N1+03101+01901999999ADDAG11000GA1041+006009089MA1101081999999EQDQ01+000000PRSWM2
0047827950999991993032710004-07217-035883FM-15+0560SBKG V0201201N00411220001CN0112651N1+02301+02101999999ADDAG11999GA1021+003909089MA1101391999999MW1101
0060827950999991993032711004-07217-035883FM-15+0560SBKG V0201001N00301004801CN0112651N1+02401+02101999999ADDAG11999GA1051+004809089MA1101391999999EQDQ01+000000PRSWM2
0153827950999991993032712004-07217-035883FM-12+0560SBKG V0201401N00361007501CN0200001N9+02541+01911101241ADDAA124000291AA299000191AG10001AY151061AY251061GF105991051021008001001001KA1240N+02101MA1999999095101MD1999999+0051MW1021REMSYN022 333 20210 58005 69924
0060827950999991993032713004-07217-035883FM-15+0560SBKG V0200901N00411006001CN0112651N1+02801+01801999999ADDAG11999GA1051+006009089MA1101391999999EQDQ01+000000PRSWM2
0060827950999991993032715004-07217-035883FM-15+0560SBKG V0201001N00511006001CN0112651N1+03101+01701999999ADDAG11000GA1061+006009089MA1101191999999EQDQ01+000000PRSWM2
0060827950999991993032717004-07217-035883FM-15+0560SBKG V0201001N00511006001CN0112651N1+03001+01901999999ADDAG11999GA1061+006009089MA1101081999999EQDQ01+000000PRSWM2
0168827950999991993032718004-07217-035883SY-MT+0560SBKG V0200901N00511007501CN0200001N1+02891+01861100811ADDAA106000091AG15000AY121061AY221061GA1051+007509089GA2031+030009039GF107991061071008001021001MA1101081094701MD1999999-0031MW1151REMSYN010 333 59003EQDQ01+000000PRSWM2
0076827950999991993032720004-07217-035883FM-15+0560SBKG V0200701N00301060001CN0112651N1+02801+01901999999ADDAG11999GA1041+007509089GA2031+060009009MA1101081999999EQDQ01+000000PRSWM2
0142827950999991993032812004-07217-035883FM-12+0560SBKG V0200501N00151007501CN0040001N9+02181+01991101301ADDAA124003091AG10006AY161061AY251061GF108991051021008001071999KA1240N+02121MA1999999095131MD1999999+0031MW1531REMSYN022 333 20212 58003 60034
0047827950999991993032816004-07217-035883FM-15+0560SBKG V0201101N00301003601CN0112651N1+02401+02201999999ADDAG11999GA1071+003609059MA1101191999999MW1211
0047827950999991993032817004-07217-035883FM-15+0560SBKG V0201001N00411006001CN0060001N1+02201+02101999999ADDAG11999GA1071+006009059MA1101191999999MW1211
0144827950999991993032818004-07217-035883SY-MT+0560SBKG V0200501N00311003001CN0040001N1+02201+01971101011ADDAA106000691AA299000591AG11003GA1061+003009059GA2051+024009039GF108991041051008001021999MA1101191094851MD1999999+0151REMSYN016 333 58015 69961
0076827950999991993032910004-07217-035883FM-15+0560SBKG V0201101N00201220001CN0112651N1+02201+02101999999ADDAG11999GA1021+003009059GA2031+024009039MA1101391999999EQDQ01+000000PRSWM2
0076827950999991993032911004-07217-035883FM-15+0560SBKG V0201201N00201220001CN0112651N1+02401+02101999999ADDAG11999GA1011+003909089GA2031+030009039MA1101491999999EQDQ01+000000PRSWM2
0076827950999991993032913004-07217-035883FM-15+0560SBKG V0201201N00511030001CN0112651N1+02601+01901999999ADDAG11999GA1041+006009089GA2041+030009039MA1101491999999EQDQ01+000000PRSWM2
0076827950999991993032914004-07217-035883FM-15+0560SBKG V0201001N00411030001CN0112651N1+02801+01801999999ADDAG11999GA1041+006009089GA2031+030009039MA1101491999999EQDQ01+000000PRSWM2
0076827950999991993032916004-07217-035883FM-15+0560SBKG V0201001N00301006001CN0112651N1+02901+01801999999ADDAG11999GA1051+006009089GA2031+030009039MA1101291999999EQDQ01+000000PRSWM2
0076827950999991993032917004-07217-035883FM-15+0560SBKG V0201001N00511030001CN0112651N1+02901+01901999999ADDAG11999GA1041+006009089GA2041+030009039MA1101191999999EQDQ01+000000PRSWM2
0060827950999991993033016004-07217-035883FM-15+0560SBKG V0201001N00411007501CN0112651N1+03001+01801999999ADDAG11999GA1051+007509089MA1101191999999EQDQ01+000000PRSWM2
0060827950999991993033017004-07217-035883FM-15+0560SBKG V0200801N00411007501CN0112651N1+03001+01701999999ADDAG11999GA1051+007509089MA1101191999999EQDQ01+000000PRSWM2
0095827950999991993033018004-07217-035883FM-12+0560SBKG V0200501N00511007501CN0200001N9+02931+01891100981ADDAA106000091AG14000GF106991051021008001081001MA1999999094861MD1999999+0031REMSYN010 333 58003
0060827950999991993033111004-07217-035883FM-15+0560SBKG V0201001N00251006001CN0112651N1+02501+02001999999ADDAG11999GA1051+006009089MA1101491999999EQDQ01+000000PRSWM2
0165827950999991993033112004-07217-035883SY-MT+0560SBKG V0200901N00411220001CN0200001N1+02611+01961101301ADDAA106000091AG11000GA1061+006009089GF199999041021008001001001KA1240N+02201MA1101491095161MD1999999-0021REMSYN016 333 20220 59002EQDQ01+000042SCOTCVQ02+000000PRSWM2
0060827950999991993033116004-07217-035883FM-15+0560SBKG V0201001N00301006001CN0112651N1+03101+01801999999ADDAG11999GA1061+006009089MA1101191999999EQDQ01+000000PRSWM2
0060827950999991993033117004-07217-035883FM-15+0560SBKG V0200701N00301220001CN0112651N1+03101+01801999999ADDAG11999GA1041+006009089MA1101081999999EQDQ01+000000PRSWM2
0130827950999991993033118004-07217-035883SY-MT+0560SBKG V0200501N00261220001CN0200001N1+03081+01881100831ADDAA106000091AG11000GA1031+006009089GF104991041021008001001001MA1101081094741MD1999999-0121REMSYN010 333 59012EQDQ01+000000PRSWM2
0114827950999991993040112004-07217-035883FM-12+0560SBKG V0200901N00461105001CN0200001N9+02591+02121101231ADDAA106000091AG14000GF105991031021008001001031KA1240N+02051MA1999999095101MD1999999-0061REMSYN016 333 20205 59006
0076827950999991993040113004-07217-035883FM-15+0560SBKG V0200901N00361006001CN0112651N1+02801+02001999999ADDAG11999GA1051+006009089GA2031+069009009MA1101391999999EQDQ01+000000PRSWM2
0076827950999991993040114004-07217-035883FM-15+0560SBKG V0200901N00511006901CN0112651N1+02901+01901999999ADDAG11999GA1051+006909089GA2041+069009009MA1101391999999EQDQ01+000000PRSWM2
0095827950999991993040118004-07217-035883FM-12+0560SBKG V0200901N00461045001CN0200001N9+03021+01861100781ADDAA106000091AG14000GF106991031041008001081011MA1999999094691MD1999999-0051REMSYN010 333 59005
0047827950999991993040210004-07217-035883FM-15+0560SBKG V0200901N00301220001CN0112651N1+02301+02101999999ADDAG11999GA1041+003009089MA1101291999999MW1101
0076827950999991993040211004-07217-035883FM-15+0560SBKG V0201001N00511060001CN0112651N1+02401+02001999999ADDAG11999GA1041+004509089GA2031+060009009MA1101391999999EQDQ01+000000PRSWM2
0165827950999991993040212004-07217-035883SY-MT+0560SBKG V0200901N00461060001CN0200001N1+02561+01831101201ADDAA106000091AG11000GA1041+006009089GA2051+060009009GF107991031021008001061041KA1240N+02121MA1101391095061MD1999999-0041REMSYN016 333 20212 59004EQDQ01+000000PRSWM2
0076827950999991993040213004-07217-035883FM-15+0560SBKG V0201001N00511060001CN0112651N1+02801+01801999999ADDAG11999GA1041+007509089GA2051+060009009MA1101391999999EQDQ01+000000PRSWM2
0095827950999991993040218004-07217-035883FM-12+0560SBKG V0201401N00361007501CN0200001N9+03021+01881100861ADDAA106000091AG14000GF106991051021008001001061MA1999999094761MD1999999+0071REMSYN010 333 58007
0060827950999991993040317004-07217-035883FM-15+0560SBKG V0201001N00301220001CN0112651N1+02901+01501999999ADDAG11999GA1041+007509089MA1100911999999EQDQ01+000000PRSWM2
0152827950999991993040318004-07217-035883SY-MT+0560SBKG V0200501N00311220001CN0100001N1+03171+01651100631ADDAA106000091AG11000AY111061AY211061GA1041+007509089GF104991021021008001001051MA1100911094551MD1999999-0211MW1051REMSYN010 333 59021EQDQ01+000000PRSWM2
0114827950999991993040412004-07217-035883FM-12+0560SBKG V0200501N00311220001CN0200001N9+02571+01951101131ADDAA106000091AG14000GF107991031021008001001041KA1240N+02111MA1999999094991MD1999999+0011REMSYN016 333 20211 58001
0076827950999991993040416004-07217-035883FM-15+0560SBKG V0200601N00201006001CN0112651N1+03101+02001999999ADDAG11999GA1051+006009089GA2031+060009009MA1101021999999EQDQ01+000000PRSWM2
0095827950999991993040418004-07217-035883FM-12+0560SBKG V0200501N00511045001CN0200001N9+02911+01921100681ADDAA106000091AG14000GF106991021021008001091051MA1999999094581MD1999999+0031REMSYN010 333 58003
0076827950999991993040510004-07217-035883FM-15+0560SBKG V0201001N00361003601CN0112651N1+02301+02101999999ADDAG11999GA1041+003009059GA2051+003609089MA1101291999999EQDQ01+000000PRSWM2
0142827950999991993040512004-07217-035883FM-12+0560SBKG V0200901N00571220001CN0100001N9+02591+01961101221ADDAA124000591AG13000AY121061AY221061GF103991021021008001001011KA1240N+02171MA1999999095091MD1999999+0101MW1051REMSYN022 333 20217 58010 69954
0095827950999991993040518004-07217-035883FM-12+0560SBKG V0200901N00511045001CN0200001N9+02801+01951100881ADDAA106000091AG14000GF106991041041008001011041MA1999999094771MD1999999+0191REMSYN010 333 58019
0060827950999991993040611004-07217-035883FM-15+0560SBKG V0200801N00411220001CN0112651N1+02501+01901999999ADDAG11999GA1041+004509089MA1101491999999EQDQ01+000000PRSWM2
0165827950999991993040612004-07217-035883SY-MT+0560SBKG V0200901N00571220001CN0200001N1+02531+01831101211ADDAA106000091AG11000GA1041+004809089GF199999051021008001001011KA1240N+02131MA1101491095061MD1999999-0031REMSYN016 333 20213 59003EQDQ01+000032SCOTCVQ02+000000PRSWM2
0060827950999991993040613004-07217-035883FM-15+0560SBKG V0201201N00511006001CN0112651N1+02801+01801999999ADDAG11999GA1051+006009089MA1101491999999EQDQ01+000000PRSWM2
0130827950999991993040618004-07217-035883SY-MT+0560SBKG V0201401N00361007501CN0200001N1+02931+01551100951ADDAA106000091AG11000GA1061+007509089GF106991031041008001061001MA1101191094841MD1999999+0011REMSYN010 333 58001EQDQ01+000000PRSWM2
0060827950999991993040710004-07217-035883FM-15+0560SBKG V0201001N00411004801CN0112651N1+02301+02001999999ADDAG11999GA1061+004809089MA1101391999999EQDQ01+000000PRSWM2
0114827950999991993040712004-07217-035883FM-12+0560SBKG V0200901N00461220001CN0200001N9+02301+01901101251ADDAA106000091AG14000GF101991011011008001001001KA1240M+03071MA1999999095101MD1999999-0031REMSYN016 333 10307 59003
0076827950999991993040716004-07217-035883FM-15+0560SBKG V0201001N00511006001CN0112651N1+02901+01901999999ADDAG11999GA1051+006009089GA2031+030009039MA1101191999999EQDQ01+000000PRSWM2
0076827950999991993040718004-07217-035883FM-15+0560SBKG V0201001N00411007501CN0112651N1+02901+01901999999ADDAG11000GA1031+006009059GA2051+007509089MA1101021999999EQDQ01+000000PRSWM2
0063827950999991993040811004-07217-035883FM-15+0560SBKG V0201001N00411060001CN0112651N1+02401+02101999999ADDAG11999GA1041+003909089GA2051+060009009MA1101391999999MW1101
0076827950999991993040812004-07217-035883FM-15+0560SBKG V0201101N00411004801CN0112651N1+02501+02101999999ADDAG11000GA1051+004809089GA2051+060009009MA1101491999999EQDQ01+000000PRSWM2
0076827950999991993040813004-07217-035883FM-15+0560SBKG V0201101N00511006001CN0112651N1+02701+02001999999ADDAG11999GA1051+006009089GA2031+060009009MA1101391999999EQDQ01+000000PRSWM2
0060827950999991993040814004-07217-035883FM-15+0560SBKG V0201001N00511006001CN0112651N1+02801+02001999999ADDAG11999GA1061+006009089MA1101391999999EQDQ01+000000PRSWM2
0060827950999991993040816004-07217-035883FM-15+0560SBKG V0201001N00511006001CN0112651N1+02801+02101999999ADDAG11999GA1061+006009089MA1101191999999EQDQ01+000000PRSWM2
0076827950999991993040817004-07217-035883FM-15+0560SBKG V0201001N00411006001CN0112651N1+02901+02001999999ADDAG11999GA1051+006009089GA2031+060009009MA1101081999999EQDQ01+000000PRSWM2
0146827950999991993040818004-07217-035883SY-MT+0560SBKG V0209991C00001060001CN0200001N1+02711+01991100901ADDAA106000091AG11000GA1041+006009089GA2051+060009009GF106991041021008001001081MA1101081094771MD1999999+0041REMSYN010 333 58004EQDQ01+000000PRSWM2
0076827950999991993040912004-07217-035883FM-15+0560SBKG V0201001N00411004801CN0112651N1+02601+01901999999ADDAG11000GA1051+004809089GA2041+060009009MA1101491999999EQDQ01+000000PRSWM2
0095827950999991993040918004-07217-035883FM-12+0560SBKG V0209999999999105001CN0200001N9+02901+01651100951ADDAA106000091AG14000GF106991031021008001001051MA1999999094831MD1999999+0061REMSYN010 333 58006
0114827950999991993041000004-07217-035883FM-12+0560SBKG V0200901N00311220001CN0200001N9+02241+01881101321ADDAA106000091AG14000GF101991011011008001001001KA1240M+02961MA1999999095161MD1999999+0161REMSYN016 333 10296 58016
0063827950999991993041011004-07217-035883FM-15+0560SBKG V0201001N00301003001CN0112651N1+02301+02101999999ADDAG11999GA1051+003009089GA2031+060009009MA1101391999999MW1101
0114827950999991993041012004-07217-035883FM-12+0560SBKG V0200501N00461105001CN0200001N9+02631+01881101401ADDAA106000091AG14000GF107991021011008001001061KA1240N+02071MA1999999095241MD1999999+0111REMSYN016 333 20207 58011
0076827950999991993041013004-07217-035883FM-15+0560SBKG V0201001N00301060001CN0112651N1+02701+02001999999ADDAG11999GA1031+006009089GA2061+060009009MA1101591999999EQDQ01+000000PRSWM2
0076827950999991993041014004-07217-035883FM-15+0560SBKG V0200901N00411060001CN0112651N1+02801+01901999999ADDAG11999GA1011+006009089GA2061+060009009MA1101491999999EQDQ01+000000PRSWM2
0117827950999991993041018004-07217-035883FM-12+0560SBKG V0200901N00461105001CN0100001N9+02961+01781101061ADDAA106000091AG10000AY121061AY221061GF107991021011008001001061MA1999999094941MD1999999+0111MW1051REMSYN010 333 58011
0130827950999991993041100004-07217-035883FM-12+0560SBKG V0200501N00361220001CN0200001N9+02311+01871101351ADDAA106000091AG14000GA1001+999999999GF100991001001999999001001KA1240M+03081MA1999999095201MD1999999+0041REMSYN016 333 10308 58004
0136827950999991993041112004-07217-035883FM-12+0560SBKG V0200901N00461220001CN0100001N9+02531+01861101441ADDAA106000091AG10000AY121061AY211061GF106991041011008001001011KA1240N+02051MA1999999095281MD1999999+0041MW1051REMSYN016 333 20205 58004
0117827950999991993041118004-07217-035883FM-12+0560SBKG V0200901N00461220001CN0100001N9+02941+01661101091ADDAA106000091AG10000AY121061AY221061GF106991031011008001001061MA1999999094961MD1999999+0021MW1051REMSYN010 333 58002
0114827950999991993041212004-07217-035883FM-12+0560SBKG V0200501N00411105001CN0200001N9+02521+01791101471ADDAA106000091AG14000GF105991031021008001001021KA1240N+02031MA1999999095291MD1999999+0011REMSYN016 333 20203 58001
0095827950999991993041218004-07217-035883FM-12+0560SBKG V0201401N00461007501CN0200001N9+02951+01781101011ADDAA106000091AG14000GF105991051021008001001001MA1999999094891MD1999999-0071REMSYN010 333 59007
0130827950999991993041300004-07217-035883FM-12+0560SBKG V0200901N00261220001CN0200001N9+02291+01871101351ADDAA106000091AG14000GA1001+999999999GF100991001001999999001001KA1240M+03061MA1999999095191MD1999999-0051REMSYN016 333 10306 59005
0172827950999991993041312004-07217-035883FM-12+0560SBKG V0200901N00151007501CN0100001N9+02451+01971101331ADDAA106999999AA224001091AG10005AY161061AY251061GF106991061061008001001001KA1240N+02011MA1999999095171MD1999999-0121MW1501REMSYN022 333 20201 59012 60014EQDQ01  00002PRCP06
0114827950999991993041400004-07217-035883FM-12+0560SBKG V0200901N00361220001CN0200001N9+02281+01921101271ADDAA106000091AG14000GF102991021001999999081001KA1240M+02961MA1999999095111MD1999999-0081REMSYN016 333 10296 59008
0153827950999991993041412004-07217-035883FM-12+0560SBKG V0200901N00261220001CN0100001N9+02471+01921101311ADDAA124000291AA299000191AG13000AY111061AY201061GF103991031021008001001001KA1240N+02021MA1999999095151MD1999999-0021MW1051REMSYN022 333 20202 59002 69924
0095827950999991993041418004-07217-035883FM-12+0560SBKG V0201401N00461220001CN0200001N9+03021+01891100901ADDAA106000091AG14000GF105991021021008001001011MA1999999094851MD1999999+0091REMSYN010 333 58009
0136827950999991993041500004-07217-035883FM-12+0560SBKG V0200901N00411012001CN0100001N9+02301+02011101251ADDAA106000091AG10000AY121061AY221061GF106991061081008001001001KA1240M+03111MA1999999095101MD1999999-0011MW1101REMSYN016 333 10311 59001
0153827950999991993041512004-07217-035883FM-12+0560SBKG V0200901N00311007501CN0040001N9+02321+02131101471ADDAA124000891AA299001091AG10005AY161061AY251061GF107991051071008001021001KA1240N+02101MA1999999095291MD1999999+0141MW1551REMSYN022 333 20210 58014 69984
0134827950999991993041518004-07217-035883FM-12+0560SBKG V0201401N00311045001CN0100001N9+02741+01811101111ADDAA106000291AA299000191AG10001AY151061AY221061GF108991041071008001021999MA1999999094971MD1999999+0021MW1151REMSYN016 333 58002 69921
0114827950999991993041600004-07217-035883FM-12+0560SBKG V0200901N00261220001CN0200001N9+02271+01901101451ADDAA106000091AG14000GF102991011011008001041001KA1240M+02921MA1999999095271MD1999999+0171REMSYN016 333 10292 58017
0095827950999991993041618004-07217-035883FM-12+0560SBKG V0201401N00261220001CN0200001N9+02911+01961101071ADDAA106000091AG14000GF104991041021008001001001MA1999999094941MD1999999-0031REMSYN010 333 59003
0114827950999991993041700004-07217-035883FM-12+0560SBKG V0200901N00461220001CN0200001N9+02311+01941101361ADDAA106000091AG14000GF102991011011008001041001KA1240M+03071MA1999999095201MD1999999-0071REMSYN016 333 10307 59007
0114827950999991993041712004-07217-035883FM-12+0560SBKG V0201401N00311045001CN0200001N9+02571+01791101301ADDAA106000091AG14000GF107991031021008001041001KA1240N+02011MA1999999095151MD1999999-0171REMSYN016 333 20201 59017
0095827950999991993041718004-07217-035883FM-12+0560SBKG V0201401N00311045001CN0100001N9+02651+02001100891ADDAA106000091AG14000GF107991041041008001061011MA1999999094751MD1999999-0191REMSYN010 333 59019
0114827950999991993041800004-07217-035883FM-12+0560SBKG V0201401N00461045001CN0020001N9+02331+01811101261ADDAA106000091AG14000GF105991021011008001031001KA1240M+02941MA1999999095111MD1999999-0091REMSYN016 333 10294 59009
0095827950999991993041818004-07217-035883FM-12+0560SBKG V0201401N00311105001CN0200001N9+02981+01611100891ADDAA106000091AG14000GF105991021021008001031011MA1999999094781MD1999999+0031REMSYN010 333 58003
0095827950999991993042118004-07217-035883FM-12+0560SBKG V0209999999999007501CN0200001N9+02841+01881101061ADDAA106000091AG14000GF106991061041008001001001MA1999999094921MD1999999+0001REMSYN010 333 58000
0136827950999991993042212004-07217-035883FM-12+0560SBKG V0200901N00311007501CN0100001N9+02501+01981101441ADDAA106000091AG10000AY121061AY221061GF106991061061008001001001KA1240N+02111MA1999999095281MD1999999+0041MW1051REMSYN016 333 20211 58004
0095827950999991993042218004-07217-035883FM-12+0560SBKG V0201401N00461007501CN0200001N9+02811+02001100901ADDAA106000091AG14000GF105991051041008001001001MA1999999094871MD1999999-0051REMSYN010 333 59005
0114827950999991993042300004-07217-035883FM-12+0560SBKG V0200901N00511220001CN0200001N9+02251+99999101341ADDAA106000091AG14000GF102991021041008001001001KA1240M+02921MA1999999095181MD1999999-0071REMSYN016 333 10292 59007
0114827950999991993042312004-07217-035883FM-12+0560SBKG V0200901N00461220001CN0200001N9+02531+01831101431ADDAA106000091AG14000GF106991031061008001001011KA1240N+02051MA1999999095271MD1999999-0011REMSYN016 333 20205 59001
0095827950999991993042318004-07217-035883FM-12+0560SBKG V0201401N00511105001CN0200001N9+02851+01881100921ADDAA106000091AG14000GF106991031041008001001051MA1999999094871MD1999999-0071REMSYN010 333 59007
0114827950999991993042400004-07217-035883FM-12+0560SBKG V0200901N00461220001CN0200001N9+02261+01921101261ADDAA106000091AG14000GF102991011011008001001011KA1240M+03031MA1999999095111MD1999999-0071REMSYN016 333 10303 59007
0114827950999991993042412004-07217-035883FM-12+0560SBKG V0200901N00311007501CN0200001N9+02391+01891101381ADDAA106000091AG14000GF106991061021008001001001KA1240N+02001MA1999999095211MD1999999-0061REMSYN016 333 20200 59006
0114827950999991993042500004-07217-035883FM-12+0560SBKG V0200901N00361220001CN0200001N9+02281+01851101251ADDAA106000091AG14000GF101991001001999999001011KA1240M+03061MA1999999095091MD1999999-0021REMSYN016 333 10306 59002
0095827950999991993042518004-07217-035883FM-12+0560SBKG V0200901N02111105001CN0200001N9+03021+01891100901ADDAA106000091AG14000GF105991031061008001001031MA1999999094781MD1999999-0031REMSYN010 333 59003
0153827950999991993042612004-07217-035883FM-12+0560SBKG V0200901N00311007501CN0100001N9+02451+02151101291ADDAA124000291AA299000191AG10005AY161061AY251061GF106991061061008001001001KA1240N+02191MA1999999095141MD1999999+0051MW1051REMSYN022 333 20219 58005 69924
0095827950999991993042618004-07217-035883FM-12+0560SBKG V0200501N00571045001CN0200001N9+02841+02041100831ADDAA106000091AG14000GF106991031031008001041001MA1999999094721MD1999999-0061REMSYN010 333 59006
0136827950999991993042700004-07217-035883FM-12+0560SBKG V0200901N00571007501CN0100001N9+02341+02071101201ADDAA106000091AG10000AY121061AY221061GF106991051021008001061001KA1240M+03091MA1999999095051MD1999999-0021MW1101REMSYN016 333 10309 59002
0153827950999991993042712004-07217-035883FM-12+0560SBKG V0200901N00261007501CN0100001N9+02461+02051101401ADDAA124000691AA299000591AG10005AY161061AY221061GF106991051061008001001011KA1240N+02171MA1999999095241MD1999999+0101MW1051REMSYN022 333 20217 58010 69964
0123827950999991993042718004-07217-035883FM-12+0560SBKG V0200501N003119999999N0100001N9+02481+02111100971ADDAA106005091AG10005AY161061AY251061GF108991999999008001999999MA1999999094831MD1999999+0111MW1161REMSYN016 333 58011 60051
0153827950999991993042800004-07217-035883FM-12+0560SBKG V0200901N00511004201CN0100001N9+02281+02071101301ADDAA106000791AA299001091AG10005AY161061AY261061GF107991071071004501001001KA1240M+03081MA1999999095141MD1999999+0091MW1101REMSYN022 333 10308 58009 69971
0142827950999991993042812004-07217-035883FM-12+0560SBKG V0200901N00461007501CN0040001N9+02231+02101101411ADDAA124007091AG10005AY161061AY251061GF108991081071008001999999KA1240N+02131MA1999999095231MD1999999-0011MW1501REMSYN022 333 20213 59001 60074
0123827950999991993042818004-07217-035883FM-12+0560SBKG V0200901N00361045001CN0100001N9+02521+01981101091ADDAA106007091AG10005AY161061AY261061GF106991041091008001081001MA1999999094941MD1999999+0111MW1021REMSYN016 333 58011 60071
0136827950999991993042900004-07217-035883FM-12+0560SBKG V0200901N00311105001CN0100001N9+02241+01991101311ADDAA106000091AG10000AY121061AY221061GF105991021061008001001051KA1240M+02571MA1999999095141MD1999999+0001MW1101REMSYN016 333 10257 58000
0142827950999991993042912004-07217-035883FM-12+0560SBKG V0200901N00411007501CN0100001N9+02431+02031101271ADDAA124007091AG13000AY121061AY221061GF107991051061008001041001KA1240N+02041MA1999999095111MD1999999-0121MW1051REMSYN022 333 20204 59012 60074
0095827950999991993042918004-07217-035883FM-12+0560SBKG V0201401N00511045001CN0200001N9+02731+01981100911ADDAA106000091AG14000GF106991041021008001041011MA1999999094781MD1999999-0161REMSYN010 333 59016
0142827950999991993043012004-07217-035883FM-12+0560SBKG V0201401N00411007501CN0100001N9+02461+02071101201ADDAA124002091AG10005AY161061AY251061GF106991061061008001001001KA1240N+02041MA1999999095051MD1999999-0061MW1501REMSYN022 333 20204 59006 60024
0095827950999991993043018004-07217-035883FM-12+0560SBKG V0201401N00361045001CN0200001N9+02791+01871100881ADDAA106000091AG14000GF106991021041008001041001MA1999999094751MD1999999-0051REMSYN010 333 59005
0114827950999991993050100004-07217-035883FM-12+0560SBKG V0200901N00411007501CN0200001N9+02301+01981101241ADDAA106000091AG14000GF106991061021008001001001KA1240M+02941MA1999999095091MD1999999+0011REMSYN016 333 10294 58001
0142827950999991993050112004-07217-035883FM-12+0560SBKG V0201401N00151007501CN0100001N9+02351+02091101321ADDAA124002091AG10005AY161061AY251061GF108991051071008001021999KA1240N+02021MA1999999095151MD1999999+0101MW1101REMSYN022 333 20202 58010 60024
0123827950999991993050118004-07217-035883FM-12+0560SBKG V0200901N00211007501CN0020001N9+02221+02081101051ADDAA106002091AG10005AY161061AY251061GF108991051071008001021999MA1999999094881MD1999999+0131MW1611REMSYN016 333 58013 60021
0142827950999991993050200004-07217-035883FM-12+0560SBKG V0200901N00361045001CN0010001N9+02101+02021101301ADDAA106009091AG10005AY161061AY261061GF108991041071004501021999KA1240M+02651MA1999999095131MD1999999+0041MW1601REMSYN022 333 10265 58004 60091
0142827950999991993050212004-07217-035883FM-12+0560SBKG V0201401N00311045001CN0200001N9+02431+02071101331ADDAA124013091AG10005AY161061AY261061GF106991031021008001041021KA1240N+02031MA1999999095151MD1999999+0001MW1031REMSYN022 333 20203 58000 60134
0123827950999991993050218004-07217-035883FM-12+0560SBKG V0201401N00211045001CN0100001N9+02591+02121100981ADDAA106999929AG10000AY151061AY221061GF106991031021008001061021MA1999999094841MD1999999-0041MW1051REMSYN016 333 59004 69901
0136827950999991993050300004-07217-035883FM-12+0560SBKG V0200901N00211045001CN0100001N9+02271+02051101271ADDAA106000091AG10000AY121061AY221061GF106991031061008001031051KA1240M+02731MA1999999095111MD1999999-0021MW1101REMSYN016 333 10273 59002
0153827950999991993050312004-07217-035883FM-12+0560SBKG V0200901N00101220001CN0100001N9+02491+01961101351ADDAA106000091AA224999929AG13000AY121061AY221061GF104991041021008001001001KA1240N+02001MA1999999095151MD1999999+0001MW1051REMSYN022 333 20200 58000 69904
0095827950999991993050318004-07217-035883FM-12+0560SBKG V0200901N00261220001CN0200001N9+02921+02011100951ADDAA106000091AG14000GF104991041021008001001001MA1999999094831MD1999999-0011REMSYN010 333 59001
0114827950999991993050400004-07217-035883FM-12+0560SBKG V0200901N00411220001CN0200001N9+02301+02001101211ADDAA106000091AG14000GF103991031021008001001001KA1240M+02971MA1999999095061MD1999999-0051REMSYN016 333 10297 59005
0095827950999991993050418004-07217-035883FM-12+0560SBKG V0200901N00311045001CN0200001N9+02821+01941100921ADDAA106000091AG14000GF106991041031008001041001MA1999999094801MD1999999-0031REMSYN010 333 59003
0114827950999991993050500004-07217-035883FM-12+0560SBKG V0200901N00361220001CN0200001N9+02301+02011101271ADDAA106000091AG14000GF103991011011008001001021KA1240M+02981MA1999999095121MD1999999+0061REMSYN016 333 10298 58006
0153827950999991993050512004-07217-035883FM-12+0560SBKG V0200901N00621220001CN0100001N9+02491+02091101531ADDAA124000291AA299000191AG10005AY161061AY221061GF104991041021008001001001KA1240N+02181MA1999999095361MD1999999+0261MW1051REMSYN022 333 20218 58026 69924
0114827950999991993050600004-07217-035883FM-12+0560SBKG V0200901N00361220001CN0200001N9+02281+02001101351ADDAA106000091AG14000GF102991011011008001001011KA1240M+03021MA1999999095191MD1999999+0071REMSYN016 333 10302 58007
0114827950999991993050612004-07217-035883FM-12+0560SBKG V0200901N00361220001CN0200001N9+02491+01941101461ADDAA106000091AG14000GF104991031021008001001011KA1240N+02071MA1999999095301MD1999999-0061REMSYN016 333 20207 59006
0095827950999991993050618004-07217-035883FM-12+0560SBKG V0201401N00411220001CN0200001N9+02911+02071100961ADDAA106000091AG14000GF104991041021008001001001MA1999999094841MD1999999-0071REMSYN010 333 59007
0114827950999991993050700004-07217-035883FM-12+0560SBKG V0200901N00311220001CN0200001N9+02281+01981101201ADDAA106000091AG14000GF103991021021008001061001KA1240M+02971MA1999999095051MD1999999-0141REMSYN016 333 10297 59014
0136827950999991993050712004-07217-035883FM-12+0560SBKG V0201401N00261220001CN0100001N9+02401+01991101371ADDAA106000091AG10000AY121061AY221061GF105991031021008001001011KA1240N+02021MA1999999095211MD1999999-0021MW1051REMSYN016 333 20202 59002
0114827950999991993050800004-07217-035883FM-12+0560SBKG V0200901N00411220001CN0200001N9+02291+01981101191ADDAA106000091AG14000GF102991001001999999001021KA1240M+03051MA1999999095041MD1999999-0011REMSYN016 333 10305 59001
0114827950999991993050812004-07217-035883FM-12+0560SBKG V0201401N00411220001CN0200001N9+02481+02131101261ADDAA106000091AG14000GF105991021021008001001011KA1240N+02101MA1999999095111MD1999999-0101REMSYN016 333 20210 59010
0095827950999991993050818004-07217-035883FM-12+0560SBKG V0201401N00361220001CN0200001N9+02941+02241100851ADDAA106000091AG14000GF103991031021008001001001MA1999999094771MD1999999+0081REMSYN010 333 58008
0114827950999991993050912004-07217-035883FM-12+0560SBKG V0201401N00511007501CN0200001N9+02531+02041101181ADDAA106000091AG14000GF106991061021008001001001KA1240N+02091MA1999999095041MD1999999-0071REMSYN016 333 20209 59007
0114827950999991993050918004-07217-035883FM-12+0560SBKG V0201401N00411007501CN0200001N9+02911+02171100851ADDAA106000091AG14000GF105991051031008001001001MA1999999097442MD1999999-0031REMSYN010 333 59003EQDQ01+097443APOSP 
0095827950999991993051018004-07217-035883FM-12+0560SBKG V0200901N00571007501CN0200001N9+02631+02011100901ADDAA106000091AG14000GF107991071051008001001001MA1999999094761MD1999999+0021REMSYN010 333 58002
0155827950999991993051100004-07217-035883FM-12+0560SBKG V0200901N00261220001CN0100001N9+02181+01881101121ADDAA106000091AG10000AY121061AY211061GF101991001001999999001011KA1240M+02901MA1999999094981MD1999999-0041MW1101REMSYN016 333 10290 59004EQDQ01+000952SCOLCB
0114827950999991993051112004-07217-035883FM-12+0560SBKG V0200901N00361105001CN0200001N9+02501+01841101191ADDAA106000091AG14000GF106991041021008001001051KA1240N+01981MA1999999095041MD1999999+0011REMSYN016 333 20198 58001
0095827950999991993051118004-07217-035883FM-12+0560SBKG V0201401N00411007501CN0200001N9+02801+01811100901ADDAA106000091AG14000GF108991081051008001001001MA1999999094771MD1999999+0011REMSYN010 333 58001
0107827950999991993051200004-07217-035883FM-12+0560SBKG V0201001N046329999999N0200001N9+02221+01861101251ADDAA106000091AG14000KA1240M+02961MA1999999095091MD1999999+0111REMSYN016 333 10296 58011EQDQ01+004633WOSPD 
0136827950999991993051212004-07217-035883FM-12+0560SBKG V0201401N004619999999N0100001N9+02501+02051101261ADDAA106000091AG10000AY121061AY221061GF106991061001008001071001KA1240N+02091MA1999999095101MD1999999+0061MW1051REMSYN016 333 20209 58006
0123827950999991993051218004-07217-035883FM-12+0560SBKG V0201401N00311007501CN0100001N9+02321+02151100991ADDAA106003091AG10005AY161061AY261061GF107991051031008001041001MA1999999094831MD1999999+0061MW1021REMSYN016 333 58006 60031
0153827950999991993051312004-07217-035883FM-12+0560SBKG V0201401N00261220001CN0100001N9+02391+02011101261ADDAA106000091AA224003091AG13000AY121061AY221061GF104991041061008001001001KA1240N+02081MA1999999095101MD1999999+0001MW1051REMSYN022 333 20208 58000 60034
0095827950999991993051318004-07217-035883FM-12+0560SBKG V0201401N00571220001CN0200001N9+02821+01651100851ADDAA106000091AG14000GF104991041021008001001001MA1999999094731MD1999999+0101REMSYN010 333 58010
0136827950999991993051400004-07217-035883FM-12+0560SBKG V0200901N00511007501CN0100001N9+02211+02051101231ADDAA106000091AG10000AY121061AY211061GF107991071061008001001001KA1240M+02931MA1999999095071MD1999999-0021MW1101REMSYN016 333 10293 59002
0114827950999991993060712004-07217-035883FM-12+0560SBKG V0201401N00361007501CN0200001N9+02401+01731101561ADDAA106000091AG14000GF106991061021008001001011KA1240N+01931MA1999999095381MD1999999+0101REMSYN016 333 20193 58010
0095827950999991993060718004-07217-035883FM-12+0560SBKG V0201401N00511105001CN0200001N9+02771+01621101181ADDAA106000091AG14000GF105991031021008001001031MA1999999095041MD1999999-0041REMSYN010 333 59004
0114827950999991993060800004-07217-035883FM-12+0560SBKG V0201401N00361220001CN0200001N9+02151+01761101511ADDAA106000091AG14000GF103991011041008001041051KA1240M+02871MA1999999095331MD1999999-0061REMSYN016 333 10287 59006
0153827950999991993060812004-07217-035883FM-12+0560SBKG V0201401N00361007501CN0100001N9+02201+01841101491ADDAA124000691AA299000591AG10004AY161061AY251061GF108991051071008001011999KA1240N+01871MA1999999095701MD1999999-0081MW1101REMSYN022 333 20187 59008 69964
0123827950999991993060818004-07217-035883FM-12+0560SBKG V0201401N00151007501CN0100001N9+02191+02061101201ADDAA106002091AG10004AY161061AY251061GF107991051071008001021999MA1999999095021MD1999999-0021MW1151REMSYN016 333 59002 60021
0142827950999991993060900004-07217-035883FM-12+0560SBKG V0201401N00261045001CN0020001N9+02081+02011101491ADDAA106004091AG10004AY161061AY261061GF108991031071004501021999KA1240M+02461MA1999999095291MD1999999-0041MW1611REMSYN022 333 10246 59004 60041
0142827950999991993060912004-07217-035883FM-12+0560SBKG V0201801N00261007501CN0040001N9+02181+01921101381ADDAA124019091AG10004AY161061AY251061GF108991051071008001011999KA1240N+01941MA1999999095311MD1999999-0141MW1501REMSYN022 333 20194 59014 60194
0117827950999991993060918004-07217-035883FM-12+0560SBKG V0200501N00151012001CN0100001N9+02411+02071101201ADDAA106000091AG15000AY121061AY221061GF106991061081008001001001MA1999999095031MD1999999+0011MW1151REMSYN010 333 58001
0142827950999991993061000004-07217-035883FM-12+0560SBKG V0201401N00511045001CN0020001N9+02151+02111101401ADDAA106003091AG10004AY161061AY221061GF108991021071004501021999KA1240M+02521MA1999999095211MD1999999-0081MW1601REMSYN022 333 10252 59008 60031
0142827950999991993061012004-07217-035883FM-12+0560SBKG V0201401N00211004201CN0020001N9+02091+02051101581ADDAA124057091AG10004AY161061AY251061GF108991051071004501021999KA1240N+02051MA1999999095371MD1999999+0211MW1631REMSYN022 333 20205 58021 60574
0123827950999991993061018004-07217-035883FM-12+0560SBKG V0200501N00211007501CN0040001N9+02141+01931101471ADDAA106015091AG10004AY161061AY261061GF107991071061008001001001MA1999999095271MD1999999+0241MW1021REMSYN016 333 58024 60151
0136827950999991993061100004-07217-035883FM-12+0560SBKG V0200901N00261012001CN0040001N9+02121+02041101591ADDAA106000091AG10000AY121061AY221061GF107991071081008001001001KA1240M+02321MA1999999095381MD1999999+0171MW1101REMSYN016 333 10232 58017
0142827950999991993061112004-07217-035883FM-12+0560SBKG V0201401N00261007501CN0100001N9+02311+02051101681ADDAA124015091AG13000AY121061AY221061GF106991061061008001001001KA1240N+02021MA1999999095481MD1999999+0111MW1101REMSYN022 333 20202 58011 60154
0095827950999991993061118004-07217-035883FM-12+0560SBKG V0201401N00361007501CN0200001N9+02631+02141101361ADDAA106000091AG14000GF105991051041008001001001MA1999999095201MD1999999-0071REMSYN010 333 59007
0136827950999991993061200004-07217-035883FM-12+0560SBKG V0201401N00151012001CN0100001N9+02161+02021101591ADDAA106000091AG10000AY121061AY221061GF107991071081008001001001KA1240M+02771MA1999999095401MD1999999+0021MW1101REMSYN016 333 10277 58002
0136827950999991993061212004-07217-035883FM-12+0560SBKG V0201401N00151012001CN0100001N9+02161+02021101591ADDAA106000091AG10000AY121061AY221061GF107991071081008001001001KA1240M+02771MA1999999095401MD1999999+0021MW1101REMSYN016 333 10277 58002
0092827950999991993061217004-07217-035883FM-15+0560SBKG V0201001N00301003301CN0112651N1+02301+02001999999ADDAG11999GA1051+003309059GA2041+003909089GA3061+024009039MA1101491999999EQDQ01+000000PRSWM2
0159827950999991993061218004-07217-035883SY-MT+0560SBKG V0201401N00361220001CN0040001N9+02271+02051101271ADDAA106002091AG10004AY161061AY251061GF108991081071008001999999MA1999999095091MD1999999-0111MW1101REMSYN016 333 59011 60021MET030ST008 4CU014 5AC080 22/21 1014
0079827950999991993061219004-07217-035883FM-15+0560SBKG V0201301N00301003001CN0050001N1+02201+02001999999ADDAG11999GA1051+003009059GA2041+004209089GA3081+021009039MA1101491999999MW1601
0142827950999991993061312004-07217-035883FM-12+0560SBKG V0201801N00311007501CN0100001N9+02121+01741101691ADDAA124002091AG13000AY121061AY221061GF106991051021008001001011KA1240N+01771MA1999999095471MD1999999+0041MW1101REMSYN022 333 20177 58004 60024
0076827950999991993061411004-07217-035883FM-15+0560SBKG V0201101N00411003001CN0112651N1+02201+01901999999ADDAG11999GA1041+002409059GA2051+003009089MA1101691999999EQDQ01+000000PRSWM2
0142827950999991993061412004-07217-035883FM-12+0560SBKG V0201401N00261007501CN0100001N9+02181+01881101611ADDAA124012091AG10004AY161061AY221061GF107991071071008001001001KA1240N+01911MA1999999095401MD1999999-0071MW1101REMSYN022 333 20191 59007 60124
0077827950999991993061417004-07217-035883FM-15+0560SBKG V0201001N00411220001CN0112651N1+02701+01801999999ADDAG11999GA1041+006009089MA1101491999999REMMET008NEW CODEEQDQ01+000000PRSWM2
0147827950999991993061418004-07217-035883SY-MT+0560SBKG V0201401N00261220001CN0200001N1+02621+01671101271ADDAA106000091AG11000GF106991041021008001021001MA1999999095111MD1999999-0141REMSYN010 333 59014MET0277KT 9999 SCT025 27/18 Q1015EQDQ01+000000PRSWM2
0114827950999991993061500004-07217-035883FM-12+0560SBKG V0201401N00211220001CN0200001N9+02071+01871101601ADDAA106000091AG14000GF101991001001999999001011KA1240M+02671MA1999999095401MD1999999+0051REMSYN016 333 10267 58005
0142827950999991993061512004-07217-035883FM-12+0560SBKG V0201401N00311007501CN0100001N9+02291+01851101681ADDAA124999929AG10000AY151061AY221061GF106991061021008001001001KA1240N+01831MA1999999095481MD1999999+0081MW1051REMSYN022 333 20183 58008 69904
0113827950999991993061517004-07217-035883FM-15+0560SBKG V0201301N00511006001CN0112651N1+02601+01901999999ADDAG11999GA1061+006009089MA1101591999999REMMET044NEW CODE 1700Z 13010KT 9999 BKN020 26/19 Q10EQDQ01+000000PRSWM2
0202827950999991993061518004-07217-035883SY-MT+0560SBKG V0201401N00261220001CN0100001N9+02521+01891101381ADDAA106000091AG10000AY121061AY281061GA1051+006009089GF199999031071008001021001MA1999999095201MD1999999+0091MW1141REMSYN010 333 58009MET044NEW CODE 1800Z 10007KT 9999 BKN020 26/19 Q10EQDQ01+000042SCOTCV
0058827950999991993061522004-07217-035883FM-15+0560SBKG V0201101N00301999991CY0099001N1+02201+01801999999ADDAG11999MA1101801999999REMMET005CAVOKEQDQ01+000000PRSWM2
0095827950999991993061618004-07217-035883FM-12+0560SBKG V0201401N00411045001CN0200001N9+02631+01621101361ADDAA106000091AG14000GF106991031021008001061001MA1999999095191MD1999999-0011REMSYN010 333 59001
0142827950999991993061712004-07217-035883FM-12+0560SBKG V0201401N00361004201CN0040001N9+02031+01971101531ADDAA124003091AG10004AY161061AY251061GF108991051071004501011999KA1240N+01951MA1999999095331MD1999999-0101MW1551REMSYN022 333 20195 59010 60034
0123827950999991993061718004-07217-035883FM-12+0560SBKG V0201401N00311009001CN0040001N9+02031+01951101931ADDAA106003091AG10004AY161061AY251061GF108991081081004501999999MA1999999095221MD1999999+0031MW1501REMSYN016 333 58003 60031
0161827950999991993061800004-07217-035883FM-12+0560SBKG V0201401N00151004201CN0100001N9+01921+01801101681ADDAA106001091AG10004AY161061AY251061GF108991061071004501999999KA1240M+02171MA1999999097452MD1999999+0051MW1101REMSYN022 333 10217 58005 60011EQDQ01+097453APOSP 
0077827950999991993061815004-07217-035883FM-15+0560SBKG V0201201N00411004801CN0112651N1+02501+01701999999ADDAG11000GA1061+004809089MA1101801999999REMMET008NEW CODEEQDQ01+000000PRSWM2
0060827950999991993061817004-07217-035883FM-15+0560SBKG V0201401N00411220001CN0112651N1+02601+01701999999ADDAG11999GA1031+007509089MA1101591999999EQDQ01+000000PRSWM2
0095827950999991993061818004-07217-035883FM-12+0560SBKG V0201401N00361220001CN0200001N9+02531+01741101271ADDAA106000091AG14000GF103991031021008001001001MA1999999095191MD1999999-0031REMSYN010 333 59003
0095827950999991993061918004-07217-035883FM-12+0560SBKG V0201401N00461007501CN0200001N9+02541+02061101361ADDAA106000091AG14000GF108991051041008001071001MA1999999095181MD1999999-0011REMSYN010 333 59001
0153827950999991993062012004-07217-035883FM-12+0560SBKG V0200901N00361007501CN0100001N9+02231+01901101751ADDAA106000091AA224000191AG10000AY151061AY251061GF108991061051008001001021KA1240N+01991MA1999999095541MD1999999+0041MW1031REMSYN022 333 20199 58004 69914
0095827950999991993062018004-07217-035883FM-12+0560SBKG V0201401N00671220001CN0200001N9+02611+01941101371ADDAA106000091AG14000GF104991041041008001001001MA1999999095201MD1999999+0181REMSYN010 333 58018
0095827950999991993062218004-07217-035883FM-12+0560SBKG V0201401N00311220001CN0200001N9+02601+01741101411ADDAA106000091AG14000GF106991041041008001001041MA1999999095231MD1999999-0021REMSYN010 333 59002
0153827950999991993062312004-07217-035883FM-12+0560SBKG V0201401N00311007501CN0040001N9+02221+01861101751ADDAA124000491AA299000591AG10000AY151061AY251061GF108991051071008001011999KA1240N+01951MA1999999095541MD1999999+0081MW1511REMSYN022 333 20195 58008 69944
0095827950999991993062318004-07217-035883FM-12+0560SBKG V0201401N00361045001CN0100001N9+02331+01851101521ADDAA106000091AG14000GF107991031031008001041001MA1999999095321MD1999999+0091REMSYN010 333 58009
0095827950999991993062418004-07217-035883FM-12+0560SBKG V0201401N00361007501CN0005001N9+02211+01921101691ADDAA106000091AG14000GF106991061061008001001001MA1999999095491MD1999999+0061REMSYN010 333 58006
0114827950999991993062500004-07217-035883FM-12+0560SBKG V0200901N00261045001CN0200001N9+02051+01821101651ADDAA106000091AG14000GF106991041021008001061001KA1240M+02641MA1999999095431MD1999999-0051REMSYN016 333 10264 59005
0187827950999991993062512004-07217-035883SY-MT+0560SBKG V0201401N00361220001CN0100001N1+02311+01831101631ADDAA106000091AG11000AY121061AY221061GA1051+004809089GF199999041051008001001001KA1240N+01831MA1101801095431MD1999999-0011MW1051REMSYN016 333 20183 59001EQDQ01+000042SCOTCVQ02+000000PRSWM2
0114827950999991993062612004-07217-035883FM-12+0560SBKG V0200901N00261045001CN0200001N9+02231+01861101621ADDAA106000091AG14000GF106991041021008001061001KA1240N+01801MA1999999095421MD1999999-0011REMSYN016 333 20180 59001
0060827950999991993062616004-07217-035883FM-15+0560SBKG V0201001N00301220001CN0112651N1+02701+01601999999ADDAG11999GA1041+007509089MA1101491999999EQDQ01+000000PRSWM2
0142827950999991993062712004-07217-035883FM-12+0560SBKG V0201401N00311004201CN0100001N9+02171+01971101661ADDAA124003091AG10004AY161061AY221061GF107991051071004501071001KA1240N+01901MA1999999095451MD1999999+0031MW1101REMSYN022 333 20190 58003 60034
0142827950999991993062812004-07217-035883FM-12+0560SBKG V0200901N00411220001CN0100001N9+02261+01881101601ADDAA124000191AG10000AY151061AY221061GF104991041021008001001001KA1240N+01831MA1999999095421MD1999999-0031MW1051REMSYN022 333 20183 59003 69914
0113827950999991993062816004-07217-035883FM-15+0560SBKG V0200701N00301220001CN0112651N1+02801+01801999999ADDAG11999GA1031+007509089MA1101591999999REMMET044NEW CODE 1600Z 07006KT 9999 SCT025 28/18 Q10EQDQ01+000000PRSWM2
0056827950999991993062817004-07217-035883FM-15+0560SBKG V0200801N00301220001CN0112651N1+99999+99999999999ADDAG11999REMMET018SCT025 28/17 Q1015EQDQ01+000000PRSWM2
0095827950999991993062818004-07217-035883FM-12+0560SBKG V0200501N00311220001CN0200001N9+02691+01641101291ADDAA106000091AG14000GF104991041021008001001001MA1999999095131MD1999999-0041REMSYN010 333 59004
