0130829750999991993010200004-09100-044117FM-12+033199999V0209999999999220001CN9999999N9+02781+01911101151ADDAA106000091AG14000GA1001+999999999GF100991001001999999001001KA1240M+03281MA1999999097231MD1999999-0021REMSYN016 333 10328 59002
0130829750999991993010212004-09100-044117FM-12+033199999V0209999999999220001CN0500001N9+02691+01831101361ADDAA106000091AG14000GA1001+999999999GF100991001001999999001001KA1240N+02051MA1999999097431MD1999999-0081REMSYN016 333 20205 59008
0136829750999991993010412004-09100-044117FM-12+033199999V0209999999999007501CN0500001N9+02651+01741101381ADDAA106000091AG14000GA1021+135009099GF105991051031008001041021KA1240N+02081MA1999999097461MD1999999+0091REMSYN022 333 20208 58009 82983
0123829750999991993010518004-09100-044117FM-12+033199999V0209999999999045001CN0500001N9+02841+01741101281ADDAA106005091AG10006AY161061AY231061GF106991041031008001021041MA1999999097181MD1999999+0041MW1091REMSYN016 333 58004 60051
0114829750999991993010712004-09100-044117FM-12+033199999V0209999999999220001CN9999999N9+02521+01911101271ADDAA106000091AG14000GF103991031021008001001031KA1240M+02731MA1999999097321MD1999999+0051REMSYN016 333 10273 58005
0095829750999991993010718004-09100-044117FM-12+033199999V0209999999999045001CN0500001N9+03171+02081100891ADDAA106000091AG14000GF106991041051008001061021MA1999999096981MD1999999-0271REMSYN010 333 59027
0133829750999991993010912004-09100-044117FM-12+033199999V0209999999999220001CN0500001N9+02601+02121101281ADDAA106000091AG14000GF103991999001008001071051KA1240N+02071MA1999999097341MD1999999-0061REMSYN016 333 20207 59006EQDQ01+000052SCOTLC
0095829750999991993010918004-09100-044117FM-12+033199999V0209999999999007501CN0500001N9+03171+01961100971ADDAA106000091AG14000GF106991051041008001071061MA1999999097051MD1999999-0091REMSYN010 333 59009
0130829750999991993011412004-09100-044117FM-12+033199999V0209999999999220001CN0500001N9+02581+01901101521ADDAA106000091AG14000GA1001+999999999GF100991001001999999001001KA1240N+02091MA1999999097591MD1999999+0131REMSYN016 333 20209 58013
0094829750999991993011418004-09100-044117FM-12+033199999V02099999999999999999N0500001N9+03431+01651101031ADDAA106000091AG14000GF105991999051008001071061MA1999999097121REMSYN004 333EQDQ01+000062SCOTLC
0095829750999991993011518004-09100-044117FM-12+033199999V0209999999999007501CN0500001N9+03201+01821101121ADDAA106000091AG14000GF106991051071008001061071MA1999999097201MD1999999+0081REMSYN010 333 58008
0114829750999991993011612004-09100-044117FM-12+033199999V0209999999999007501CN0500001N9+02481+01961101541ADDAA106000091AG14000GF107991051041008001061051KA1240N+02151MA1999999097601MD1999999+0151REMSYN016 333 20215 58015
0095829750999991993011618004-09100-044117FM-12+033199999V0209999999999007501CN0500001N9+03221+02011101121ADDAA106000091AG14000GF106991051061008001071031MA1999999097201MD1999999+0001REMSYN010 333 58000
0095829750999991993011818004-09100-044117FM-12+033199999V0209999999999220001CN0500001N9+03351+01641101111ADDAA106000091AG14000GF103991031021008001031001MA1999999097191MD1999999-0041REMSYN010 333 59004
0114829750999991993011912004-09100-044117FM-12+033199999V0209999999999007501CN0500001N9+02341+02151101571ADDAA106000091AG14000GF106991061051008001061041KA1240N+02121MA1999999097631MD1999999-0021REMSYN016 333 20212 59002
0095829750999991993011918004-09100-044117FM-12+033199999V0209999999999007501CN0500001N9+02881+02161101131ADDAA106000091AG14000GF106991051071008001041061MA1999999097191MD1999999+0001REMSYN010 333 58000
0130829750999991993012000004-09100-044117FM-12+033199999V0209999999999220001CN9999999N9+02491+02171101101ADDAA106000091AG14000GA1001+999999999GF100991001001999999001001KA1240M+03161MA1999999097151MD1999999-0111REMSYN016 333 10316 59011
0095829750999991993012018004-09100-044117FM-12+033199999V0209999999999220001CN0500001N9+02931+01841101031ADDAA106000091AG14000GF104991041021008001041031MA1999999097101MD1999999-0091REMSYN010 333 59009
0110829750999991993012812004-09100-044117FM-12+033199999V0209999999999220001CN0500001N9+02841+01741101241ADDAA106000091AG14000GA1001+999999999GF100991001001999999001001KA1240N+02141MA1999999097451REMSYN010 333 20214
0095829750999991993012818004-09100-044117FM-12+033199999V0209999999999220001CN0500001N9+03421+01691101891ADDAA106000091AG14000GF103991031021008001001041MA1999999097101MD1999999+0021REMSYN010 333 58002
0095829750999991993012918004-09100-044117FM-12+033199999V0209999999999220001CN0500001N9+03401+01641101031ADDAA106000091AG14000GF104991041021008001031001MA1999999097121MD1999999+0021REMSYN010 333 58002
0142829750999991993013012004-09100-044117FM-12+033199999V0209999999999007501CN0500001N9+02391+01991101371ADDAA124042091AG10006AY161061AY231061GF105991051041008001021031KA1240N+01981MA1999999097431MD1999999-0041MW1091REMSYN022 333 20198 59004 60424
0095829750999991993020118004-09100-044117FM-12+033199999V0209999999999045001CN0500001N9+03321+01971101031ADDAA106000091AG14000GF105991031051008001071031MA1999999097111MD1999999+0021REMSYN010 333 58002
0142829750999991993020612004-09100-044117FM-12+033199999V02099999999999999999N0500001N9+02771+02091101521ADDAA124042091AG10006AY161061AY231061GF108991999999008001999999KA1240N+02121MA1999999097551MD1999999+0121MW1091REMSYN022 333 20212 58012 60424
0130829750999991993020712004-09100-044117FM-12+033199999V0209999999999220001CN0500001N9+02581+02151101381ADDAA106000091AG14000GA1001+999999999GF100991001001999999001001KA1240N+02181MA1999999097441MD1999999-0111REMSYN016 333 20218 59011
0114829750999991993020718004-09100-044117FM-12+033199999V0209999999999220001CN0500001N9+03241+02061100961ADDAA106000091AG14000GF104991999041008001071031MA1999999097051MD1999999-0211REMSYN010 333 59021EQDQ01+000052SCOTLC
0114829750999991993020818004-09100-044117FM-12+033199999V02099999999999999999N0500001N9+02721+02081101381ADDAA106000091AG14000GF105991031001008001071041KA1240N+02221MA1999999097451MD1999999+0011REMSYN016 333 20222 58001
0114829750999991993021018004-09100-044117FM-12+033199999V0209999999999220001CN0500001N9+03401+02001100971ADDAA106000091AG14000GF104991999061008001041071MA1999999097061MD1999999-0011REMSYN010 333 59001EQDQ01+000052SCOTLC
0133829750999991993021112004-09100-044117FM-12+033199999V0209999999999220001CN0500001N9+02721+01951101181ADDAA106000091AG14000GF102991999001008001071031KA1240N+02301MA1999999097271MD1999999-0181REMSYN016 333 20230 59018EQDQ01+000042SCOTLC
0114829750999991993021118004-09100-044117FM-12+033199999V0209999999999007501CN0500001N9+03321+01931100851ADDAA106000091AG14000GF105991051041008001071031MA1999999093952MD1999999-0111REMSYN010 333 59011EQDQ01+093953APOSP 
0120829750999991993021612004-09100-044117FM-12+033199999V0209999999999007501CN0500001N9+02321+02131101151ADDAA106004091AG10000GF107991051041008001051031KA1240N+02151MA1999999097201MD1999999-0071REMSYN022 333 20215 59007 60041
0123829750999991993021618004-09100-044117FM-12+033199999V0209999999999007501CN0500001N9+02301+02201100921ADDAA106010091AG10006AY161061AY231061GF108991061031008001061041MA1999999096971MD1999999-0171MW1091REMSYN016 333 59017 60101
0142829750999991993021712004-09100-044117FM-12+033199999V0209999999999007501CN0500001N9+02251+02101101291ADDAA124015091AG10006AY161061AY231061GF108991071051008001031041KA1240N+02141MA1999999097331MD1999999+0131MW1091REMSYN022 333 20214 58013 60154
0095829750999991993021718004-09100-044117FM-12+033199999V0209999999999007501CN0500001N9+02651+02141100971ADDAA106000091AG14000GF106991051041008001061031MA1999999097031MD1999999+0061REMSYN010 333 58006
0114829750999991993021812004-09100-044117FM-12+033199999V0209999999999045001CN9999999N9+02391+02211100951ADDAA106000091AG14000GF105991041051008001041051KA1240M+02681MA1999999097001MD1999999-0121REMSYN016 333 10268 59012
0133829750999991993022112004-09100-044117FM-12+033199999V0209999999999220001CN0500001N9+02501+02171101541ADDAA106000091AG14000GF104991999031008001071061KA1240N+02081MA1999999097601MD1999999+0021REMSYN016 333 20208 58002EQDQ01+000052SCOTLC
0095829750999991993022218004-09100-044117FM-12+033199999V0209999999999007501CN0500001N9+03421+02091101001ADDAA106000091AG14000GF105991051051008001071031MA1999999097091MD1999999-0151REMSYN010 333 59015
0133829750999991993022312004-09100-044117FM-12+033199999V0209999999999220001CN0500001N9+02681+02091101211ADDAA106000091AG14000GF104991999031008001061041KA1240N+02201MA1999999097301MD1999999-0251REMSYN016 333 20220 59025EQDQ01+000052SCOTLC
0133829750999991993022412004-09100-044117FM-12+033199999V02099999999999999999N0500001N9+02441+02071101341ADDAA106000091AG14000GF105991999041008001051061KA1240N+02161MA1999999097401MD1999999+0101REMSYN016 333 20216 58010EQDQ01+000062SCOTLC
0133829750999991993022612004-09100-044117FM-12+033199999V0209999999999220001CN0500001N9+02641+02251101341ADDAA106000091AG14000GF103991999031008001071051KA1240N+02201MA1999999097421MD1999999+0171REMSYN016 333 20220 58017EQDQ01+000042SCOTLC
0114829750999991993022618004-09100-044117FM-12+033199999V0209999999999220001CN0500001N9+03401+01891100931ADDAA106000091AG14000GF103991999041008001071061MA1999999097031MD1999999+0141REMSYN010 333 58014EQDQ01+000052SCOTLC
0114829750999991993022712004-09100-044117FM-12+033199999V0209999999999220001CN0500001N9+02771+02211101381ADDAA106000091AG14000GF103991021061008001071041KA1240N+02261MA1999999097451MD1999999+0031REMSYN016 333 20226 58003
0114829750999991993022812004-09100-044117FM-12+033199999V0209999999999007501CN0500001N9+02621+02211101381ADDAA106000091AG14000GF106991061031008001051041KA1240N+02281MA1999999097451MD1999999+0001REMSYN016 333 20228 58000
0114829750999991993030112004-09100-044117FM-12+033199999V0209999999999007501CN0500001N9+02571+02081101231ADDAA106000091AG14000GF107991061041008001051031KA1240N+02241MA1999999097291MD1999999-0161REMSYN016 333 20224 59016
0095829750999991993030118004-09100-044117FM-12+033199999V0209999999999007501CN0500001N9+03301+02091100901ADDAA106000091AG14000GF106991061031008001071041MA1999999096991MD1999999-0011REMSYN010 333 59001
0142829750999991993030212004-09100-044117FM-12+033199999V0209999999999007501CN0500001N9+02301+02071101341ADDAA124006091AG10006AY161061AY231061GF107991061051008001041021KA1240N+02051MA1999999097381MD1999999+0091MW1091REMSYN022 333 20205 58009 60064
0095829750999991993030218004-09100-044117FM-12+033199999V0209999999999045001CN0500001N9+03071+02111100901ADDAA106000091AG14000GF105991041051008001071031MA1999999096981MD1999999-0011REMSYN010 333 59001
0095829750999991993030318004-09100-044117FM-12+033199999V0201401N00461220001CN0200001N9+03131+01661101021ADDAA106000091AG14000GF106991031031008001001041MA1999999094921MD1999999+0181REMSYN010 333 58018
0130829750999991993030912004-09100-044117FM-12+033199999V0209999999999220001CN9999999N9+03001+01631100881ADDAA106000091AG14000GA1001+999999999GF100991001001999999001001KA1240M+03351MA1999999097041MD1999999-0051REMSYN016 333 10335 59005
0062829750999991993030918004-09100-044117FM-12+033199999V0209999999999220001CN0500001N9+03181+01631100881ADDAA106000091AG14000GF104991999999008001999999MA1999999096961
0117829750999991993031018004-09100-044117FM-12+033199999V0209999999999045001CN0500001N9+03521+01871100931ADDAA106000091AG14000GA1021+135009099GF105991041051008001071031MA1999999097031MD1999999+0071REMSYN016 333 58007 82983
0130829750999991993031112004-09100-044117FM-12+033199999V0209999999999220001CN0500001N9+02731+02151101431ADDAA106000091AG14000GA1001+999999999GF100991001001999999001001KA1240N+02281MA1999999097501MD1999999+0071REMSYN016 333 20228 58007
0095829750999991993031118004-09100-044117FM-12+033199999V0209999999999007501CN0500001N9+03471+01901100971ADDAA106000091AG14000GF105991051041008001071031MA1999999097071MD1999999+0041REMSYN010 333 58004
0130829750999991993031212004-09100-044117FM-12+033199999V0209999999999220001CN0500001N9+02681+02201101461ADDAA106000091AG14000GA1001+999999999GF100991001001999999001001KA1240N+02211MA1999999097531MD1999999+0031REMSYN016 333 20221 58003
0095829750999991993031218004-09100-044117FM-12+033199999V0209999999999045001CN0500001N9+03511+01481100931ADDAA106000091AG14000GF105991041031008001071051MA1999999097031MD1999999-0041REMSYN010 333 59004
0130829750999991993031312004-09100-044117FM-12+033199999V0209999999999220001CN0500001N9+02701+02081101441ADDAA106000091AG14000GA1001+999999999GF100991001001999999001001KA1240N+02021MA1999999097521MD1999999-0011REMSYN016 333 20202 59001
0114829750999991993031612004-09100-044117FM-12+033199999V0209999999999007501CN0500001N9+02651+02091101321ADDAA106000091AG14000GF105991051051008001041061KA1240N+02161MA1999999097401MD1999999-0031REMSYN016 333 20216 59003
0095829750999991993031618004-09100-044117FM-12+033199999V0209999999999007501CN0500001N9+02731+01901100991ADDAA106000091AG14000GF107991051031008001061041MA1999999097051MD1999999+0061REMSYN010 333 58006
0114829750999991993031712004-09100-044117FM-12+033199999V0209999999999220001CN0500001N9+02521+01981101521ADDAA106000091AG14000GF104991041041008001021001KA1240N+02081MA1999999097561MD1999999+0161REMSYN016 333 20208 58016
0095829750999991993031818004-09100-044117FM-12+033199999V0209999999999007501CN0500001N9+02851+01871100911ADDAA106000091AG14000GF105991051031008001041021MA1999999096981MD1999999-0021REMSYN010 333 59002
0095829750999991993033018004-09100-044117FM-12+033199999V0209999999999007501CN0500001N9+02761+02161101101ADDAA106000091AG14000GF106991051041008001071051MA1999999097151MD1999999+0081REMSYN010 333 58008
0114829750999991993033112004-09100-044117FM-12+033199999V0209999999999007501CN0500001N9+02441+02211101401ADDAA106000091AG14000GF106991061031008001051021KA1240N+02231MA1999999097451MD1999999-0071REMSYN016 333 20223 59007
0130829750999991993040112004-09100-044117FM-12+033199999V0209999999999220001CN0500001N9+02551+02231101291ADDAA106000091AG14000GA1001+999999999GF100991001001999999001001KA1240N+02101MA1999999097351MD1999999-0101REMSYN016 333 20210 59010
0142829750999991993040212004-09100-044117FM-12+033199999V0209999999999007501CN0500001N9+02041+01991101381ADDAA124040091AG10005AY161061AY231061GF108991071031008001051031KA1240N+01971MA1999999097421MD1999999+0071MW1091REMSYN022 333 20197 58007 60404
0123829750999991993040218004-09100-044117FM-12+033199999V0209999999999007501CN0500001N9+02821+02151101011ADDAA106003091AG10005AY161061AY221061GF106991061041008001061031MA1999999097071MD1999999+0101MW1091REMSYN016 333 58010 60031
0114829750999991993040312004-09100-044117FM-12+033199999V0209999999999220001CN0500001N9+02501+02271101161ADDAA106000091AG14000GF104991041031008001071051KA1240N+02021MA1999999097221MD1999999-0201REMSYN016 333 20202 59020
0114829750999991993040318004-09100-044117FM-12+033199999V02099999999999999999N0500001N9+03101+02181100861ADDAA106000091AG14000GF105991999051008001071041MA1999999096941MD1999999-0131REMSYN010 333 59013EQDQ01+000062SCOTLC
0114829750999991993041012004-09100-044117FM-12+033199999V0209999999999220001CN0500001N9+02691+01991101301ADDAA106000091AG14000GF104991041021008001041031KA1240N+02181MA1999999097371MD1999999+0111REMSYN016 333 20218 58011
0114829750999991993041112004-09100-044117FM-12+033199999V0209999999999007501CN0500001N9+02491+02091101401ADDAA106000091AG14000GF105991051041008001031021KA1240N+02211MA1999999097461MD1999999+0091REMSYN016 333 20221 58009
0095829750999991993041118004-09100-044117FM-12+033199999V0209999999999220001CN0500001N9+03161+01681100961ADDAA106000091AG14000GF104991041021008001031021MA1999999097081MD1999999+0021REMSYN010 333 58002
0095829750999991993041218004-09100-044117FM-12+033199999V0209999999999220001CN0500001N9+03301+01641101021ADDAA106000091AG14000GF103991021031008001071051MA1999999097101MD1999999+0001REMSYN010 333 58000
0130829750999991993041300004-09100-044117FM-12+033199999V0209999999999220001CN9999999N9+02621+01981101111ADDAA106000091AG14000GA1001+999999999GF100991001001999999001001KA1240M+03321MA1999999097181MD1999999-0031REMSYN016 333 10332 59003
0149829750999991993041312004-09100-044117FM-12+033199999V0209999999999220001CN0500001N9+02591+01771101331ADDAA106000091AG14000GA1001+999999999GF100991001001999999001001KA1240N+01951MA1999999999999MD1999999-0151REMSYN016 333 20195 59015EQDQ01 093393APOSP 
0114829750999991993041318004-09100-044117FM-12+033199999V0209999999999007501CN0500001N9+03321+01651100921ADDAA106000091AG14000GF105991051051008001071031MA1999999097002MD1999999-0101REMSYN010 333 59010EQDQ01+097003APOSP 
0130829750999991993041400004-09100-044117FM-12+033199999V0209999999999220001CN9999999N9+02751+01891101001ADDAA106000091AG14000GA1001+999999999GF100991001001999999001001KA1240M+03321MA1999999097081MD1999999-0101REMSYN016 333 10332 59010
0130829750999991993041412004-09100-044117FM-12+033199999V0209999999999220001CN0500001N9+02581+01901101231ADDAA106000091AG14000GA1001+999999999GF100991001001999999001001KA1240N+01921MA1999999097301MD1999999-0091REMSYN016 333 20192 59009
0130829750999991993041512004-09100-044117FM-12+033199999V0209999999999220001CN0500001N9+02621+01821101391ADDAA106000091AG14000GA1001+999999999GF100991001001999999001001KA1240N+02081MA1999999097471MD1999999+0171REMSYN016 333 20208 58017
0149829750999991993041612004-09100-044117FM-12+033199999V0209999999999220001CN0500001N9+01261+99999101491ADDAA106000091AG14000GA1001+999999999GF100991001001999999001001KA1240N+99999MA1999999097561MD1999999+0091REMSYN016 333 20196 58009EQDQ01 +01962ATMN  
0095829750999991993041618004-09100-044117FM-12+033199999V0209999999999007501CN0500001N9+03422+01741101031ADDAA106000091AG14000GF105991051051008001071041MA1999999097121MD1999999+0031REMSYN010 333 58003
0130829750999991993041700004-09100-044117FM-12+033199999V0209999999999220001CN9999999N9+02851+01881101071ADDAA106000091AG14000GA1001+999999999GF100991001001999999001001KA1240M+03501MA1999999097181MD1999999-0101REMSYN016 333 10350 59010
0130829750999991993041712004-09100-044117FM-12+033199999V0209999999999220001CN0500001N9+02561+01821101561ADDAA106000091AG14000GA1001+999999999GF100991001001999999001001KA1240N+01931MA1999999097621MD1999999+0061REMSYN016 333 20193 58006
0095829750999991993041718004-09100-044117FM-12+033199999V0209999999999220001CN0500001N9+03451+01591101071ADDAA106000091AG14000GF103991031021008001031021MA1999999097161MD1999999+0041REMSYN010 333 58004
0114829750999991993041800004-09100-044117FM-12+033199999V0209999999999220001CN9999999N9+02941+01781101151ADDAA106000091AG14000GF104991041031008001041021KA1240M+03531MA1999999097231MD1999999-0051REMSYN016 333 10353 59005
0114829750999991993041812004-09100-044117FM-12+033199999V0209999999999007501CN0500001N9+02491+02071101451ADDAA106000091AG14000GF105991051021008001041031KA1240N+02081MA1999999097521MD1999999-0101REMSYN016 333 20208 59010
0095829750999991993041818004-09100-044117FM-12+033199999V0209999999999220001CN0500001N9+03471+01681100981ADDAA106000091AG14000GF104991041031008001041021MA1999999097071MD1999999-0091REMSYN010 333 59009
0130829750999991993042100004-09100-044117FM-12+033199999V0209999999999220001CN9999999N9+02981+01881101211ADDAA106000091AG14000GA1001+999999999GF100991001001999999001001KA1240M+03501MA1999999097301MD1999999+0111REMSYN016 333 10350 58011
0130829750999991993042112004-09100-044117FM-12+033199999V0209999999999220001CN0500001N9+02681+01971101511ADDAA106000091AG14000GA1001+999999999GF100991001001999999001001KA1240N+02161MA1999999097591MD1999999+0081REMSYN016 333 20216 58008
0114829750999991993042118004-09100-044117FM-12+033199999V02099999999999999999N0500001N9+03451+01801101111ADDAA106000091AG14000GF105991999051008001071031MA1999999097201MD1999999+0141REMSYN010 333 58014EQDQ01+000062SCOTLC
0130829750999991993042300004-09100-044117FM-12+033199999V0209999999999220001CN9999999N9+03041+01611101011ADDAA106000091AG14000GA1001+999999999GF100991001001999999001001KA1240M+03531MA1999999097111MD1999999-0111REMSYN016 333 10353 59011
0130829750999991993042312004-09100-044117FM-12+033199999V0209999999999220001CN0500001N9+02661+01951101411ADDAA106000091AG14000GA1001+999999999GF100991001001999999001001KA1240N+02121MA1999999097491MD1999999-0091REMSYN016 333 20212 59009
0095829750999991993042318004-09100-044117FM-12+033199999V0209999999999220001CN0500001N9+03201+01761100981ADDAA106000091AG14000GF104991041031008001021041MA1999999096961MD1999999-0051REMSYN010 333 59005
0130829750999991993042500004-09100-044117FM-12+033199999V0209999999999220001CN9999999N9+02981+01811100931ADDAA106000091AG14000GA1001+999999999GF100991001001999999001001KA1240M+03521MA1999999097031MD1999999-0051REMSYN016 333 10352 59005
0114829750999991993042518004-09100-044117FM-12+033199999V02099999999999999999N0500001N9+03251+01591100731ADDAA106000091AG14000GF105991999031008001051021MA1999999096981MD1999999+0071REMSYN010 333 58007EQDQ01+000062SCOTLC
0120829750999991993042612004-09100-044117FM-12+033199999V0209999999999007501CN0500001N9+02671+02241101221ADDAA124002091AG10000GF106991051031008001051021KA1240N+02261MA1999999097351MD1999999+0021REMSYN022 333 20226 58002 60024
0123829750999991993042618004-09100-044117FM-12+033199999V0209999999999007501CN0500001N9+02461+02281101001ADDAA106003091AG10005AY161061AY231061GF107991051031008001051041MA1999999097051MD1999999+0071MW1091REMSYN016 333 58007 60031
0062829750999991993042712004-09100-044117FM-12+033199999V02099999999999999999N0500001N9+02551+02171999999ADDAA106000091AG14000GF106991999999008001999999MA1999999097401
0142829750999991993042800004-09100-044117FM-12+033199999V0209999999999007501CN9999999N9+02481+02251101161ADDAA106025091AG10005AY161061AY231061GF107991061051008001031051KA1240M+03341MA1999999097221MD1999999+0021MW1091REMSYN022 333 10334 58002 60251
0136829750999991993042812004-09100-044117FM-12+033199999V0209999999999220001CN0500001N9+02671+02111101421ADDAA124026091AG10000GA1001+999999999GF100991001001999999001001KA1240N+02001MA1999999097481MD1999999+0081REMSYN022 333 20200 58008 60264
0095829750999991993042818004-09100-044117FM-12+033199999V0209999999999007501CN0500001N9+02801+02341100951ADDAA106000091AG14000GF106991051041008001031061MA1999999097011MD1999999+0051REMSYN010 333 58005
0114829750999991993042900004-09100-044117FM-12+033199999V0209999999999007501CN9999999N9+02501+02231101171ADDAA106000091AG14000GF106991061041008001061031KA1240M+03201MA1999999097241MD1999999+0021REMSYN016 333 10320 58002
0114829750999991993042912004-09100-044117FM-12+033199999V0209999999999007501CN0500001N9+02421+02211101451ADDAA106000091AG14000GF106991051031008001071041KA1240N+02241MA1999999097501MD1999999+0021REMSYN016 333 20224 58002
0095829750999991993042918004-09100-044117FM-12+033199999V0209999999999007501CN0500001N9+02951+02031101041ADDAA106000091AG14000GF105991051051008001071031MA1999999097121MD1999999+0111REMSYN010 333 58011
0114829750999991993043000004-09100-044117FM-12+033199999V0209999999999007501CN9999999N9+02721+02031101201ADDAA106000091AG14000GF105991051031008001041021KA1240M+03021MA1999999097271MD1999999+0031REMSYN016 333 10302 58003
0114829750999991993043012004-09100-044117FM-12+033199999V0209999999999220001CN0500001N9+02681+02041101291ADDAA106000091AG14000GF103991031001008001071061KA1240N+02201MA1999999097361MD1999999-0141REMSYN016 333 20220 59014
0095829750999991993043018004-09100-044117FM-12+033199999V0209999999999007501CN0500001N9+03221+02141100861ADDAA106000091AG14000GF106991061041008001071031MA1999999096951MD1999999-0171REMSYN010 333 59017
0114829750999991993050100004-09100-044117FM-12+033199999V0209999999999007501CN9999999N9+02801+02081101011ADDAA106000091AG14000GF106991061041008001031061KA1240M+03321MA1999999097101MD1999999-0171REMSYN016 333 10332 59017
0130829750999991993050112004-09100-044117FM-12+033199999V0209999999999220001CN0500001N9+02691+02041101381ADDAA106000091AG14000GA1001+999999999GF100991001001999999001001KA1240N+02211MA1999999097451MD1999999+0091REMSYN016 333 20221 58009
0133829750999991993050300004-09100-044117FM-12+033199999V0209999999999220001CN9999999N9+02781+02011101031ADDAA106000091AG14000GF104991999001008001071031KA1240M+03281MA1999999097121MD1999999-0011REMSYN016 333 10328 59001EQDQ01+000052SCOTLC
0114829750999991993050312004-09100-044117FM-12+033199999V0209999999999007501CN0500001N9+02581+02011101491ADDAA106000091AG14000GF106991061051008001031021KA1240N+02231MA1999999097551MD1999999+0061REMSYN016 333 20223 58006
0095829750999991993050318004-09100-044117FM-12+033199999V0209999999999007501CN0500001N9+03301+01911100951ADDAA106000091AG14000GF105991051021008001041031MA1999999097071MD1999999+0071REMSYN010 333 58007
0073829750999991993050412004-09100-044117FM-12+033199999V0209999999999007501CN0500001N9+02611+01961101531ADDAG12005AY161061AY231061GF106991061051008001031041MA1999999097591MW1091
0114829750999991993050500004-09100-044117FM-12+033199999V0209999999999220001CN9999999N9+02921+01871101131ADDAA106000091AG14000GF104991041031008001051021KA1240M+03361MA1999999097221MD1999999+0051REMSYN016 333 10336 58005
0142829750999991993050512004-09100-044117FM-12+033199999V0209999999999045001CN0500001N9+02341+01981101611ADDAA124008091AG10005AY161061AY231061GF107991041051008001031041KA1240N+02161MA1999999097661MD1999999+0071MW1071REMSYN022 333 20216 58007 60084
0114829750999991993050600004-09100-044117FM-12+033199999V0209999999999220001CN9999999N9+02821+01871101091ADDAA106000091AG14000GF103991031021008001001031KA1240M+03341MA1999999097161MD1999999-0061REMSYN016 333 10334 59006
0130829750999991993050612004-09100-044117FM-12+033199999V0209999999999220001CN0500001N9+02731+02111101501ADDAA106000091AG14000GA1001+999999999GF100991001001999999001001KA1240N+02191MA1999999097561MD1999999-0101REMSYN016 333 20219 59010
0095829750999991993050618004-09100-044117FM-12+033199999V0209999999999220001CN0500001N9+03281+01641100981ADDAA106000091AG14000GF104991041031008001021031MA1999999097071MD1999999-0181REMSYN010 333 59018
0111829750999991993050718004-09100-044117FM-12+033199999V0209999999999220001CN0500001N9+03381+01681100841ADDAA106000091AG14000GA1001+999999999GF100991001001999999001001MA1999999096941MD1999999-0131REMSYN010 333 59013
0130829750999991993050800004-09100-044117FM-12+033199999V0209999999999220001CN9999999N9+03421+01861100961ADDAA106000091AG14000GA1001+999999999GF100991001001999999001001KA1240M+03431MA1999999097001MD1999999-0071REMSYN016 333 10343 59007
0130829750999991993050812004-09100-044117FM-12+033199999V0209999999999220001CN0500001N9+02831+01641101301ADDAA106000091AG14000GA1001+999999999GF100991001001999999001001KA1240N+02101MA1999999097301MD1999999-0151REMSYN016 333 20210 59015
0114829750999991993050900004-09100-044117FM-12+033199999V0209999999999220001CN9999999N9+03011+01751102041ADDAA106000091AG14000GF103991031021008001031001KA1240M+03501MA1999999097141MD1999999+0111REMSYN016 333 10350 58011
0130829750999991993050912004-09100-044117FM-12+033199999V0209999999999220001CN0500001N9+02741+01781101321ADDAA106000091AG14000GA1001+999999999GF100991001001999999001001KA1240N+01981MA1999999097401MD1999999+0031REMSYN016 333 20198 58003
0114829750999991993051100004-09100-044117FM-12+033199999V0209999999999007501CN9999999N9+02841+01841100841ADDAA106000091AG14000GF105991051031008001061041KA1240M+03401MA1999999096941MD1999999+0161REMSYN016 333 10340 58016
0130829750999991993051112004-09100-044117FM-12+033199999V0209999999999220001CN0500001N9+02581+01971101191ADDAA106000091AG14000GA1001+999999999GF100991001001999999001001KA1240N+02191MA1999999097271MD1999999+0021REMSYN016 333 20219 58002
0095829750999991993051118004-09100-044117FM-12+033199999V0209999999999007501CN0500001N9+03351+01751100801ADDAA106000091AG14000GF105991051041008001071031MA1999999096901MD1999999+0101REMSYN010 333 58010
0130829750999991993051212004-09100-044117FM-12+033199999V0209999999999220001CN0500001N9+02641+01771101251ADDAA106000091AG14000GA1001+999999999GF100991001001999999001001KA1240N+02141MA1999999097331MD1999999+0061REMSYN016 333 20214 58006
0095829750999991993051218004-09100-044117FM-12+033199999V0209999999999045001CN0500001N9+03481+01471100751ADDAA106000091AG14000GF105991041041008001071061MA1999999096851MD1999999-0051REMSYN010 333 59005
0130829750999991993051300004-09100-044117FM-12+033199999V0209999999999220001CN9999999N9+02801+01781100891ADDAA106000091AG14000GA1001+999999999GF100991001001999999001001KA1240M+03521MA1999999096981MD1999999-0021REMSYN016 333 10352 59002
0130829750999991993051312004-09100-044117FM-12+033199999V0209999999999220001CN0500001N9+02701+01631101241ADDAA106000091AG14000GA1001+999999999GF100991001001999999001001KA1240N+02121MA1999999097321MD1999999-0011REMSYN016 333 20212 59001
0114829750999991993051318004-09100-044117FM-12+033199999V0209999999999220001CN0500001N9+03541+01381100661ADDAA106000091AG14000GF104991999071008001061041MA1999999096771MD1999999-0081REMSYN010 333 59008EQDQ01+000052SCOTLC
0130829750999991993060200004-09100-044117FM-12+033199999V0209999999999220001CN9999999N9+03141+01721101361ADDAA106000091AG14000GA1001+999999999GF100991001001999999001001KA1240M+03541MA1999999097431MD1999999+0031REMSYN016 333 10354 58003
0130829750999991993060212004-09100-044117FM-12+033199999V0209999999999220001CN0500001N9+02741+01641101761ADDAA106000091AG14000GA1001+999999999GF100991001001999999001001KA1240N+02061MA1999999097861MD1999999+0041REMSYN016 333 20206 58004
0095829750999991993060218004-09100-044117FM-12+033199999V0209999999999220001CN0500001N9+03341+01781101031ADDAA106000091AG14000GF102991021001008001031001MA1999999097251MD1999999+0031REMSYN010 333 58003
0130829750999991993060400004-09100-044117FM-12+033199999V0209999999999220001CN9999999N9+03011+01451101531ADDAA106000091AG14000GA1001+999999999GF100991001001999999001001KA1240M+03531MA1999999097881MD1999999-0151REMSYN016 333 10353 59015
0095829750999991993060418004-09100-044117FM-12+033199999V0209999999999220001CN0500001N9+03431+01451101011ADDAA106000091AG14000GF103991031021008001031001MA1999999097101MD1999999-0071REMSYN010 333 59007
0130829750999991993060512004-09100-044117FM-12+033199999V0209999999999220001CN0500001N9+02641+01621101611ADDAA106000091AG14000GA1001+999999999GF100991001001999999001001KA1240N+02051MA1999999097691MD1999999-0081REMSYN016 333 20205 59008
0095829750999991993060518004-09100-044117FM-12+033199999V0209999999999220001CN0500001N9+03351+01501100941ADDAA106000091AG14000GF102991021021008001001041MA1999999097031MD1999999-0071REMSYN010 333 59007
0130829750999991993060600004-09100-044117FM-12+033199999V0209999999999220001CN9999999N9+02981+01711101051ADDAA106000091AG14000GA1001+999999999GF100991001001999999001001KA1240M+03451MA1999999097141MD1999999+0041REMSYN016 333 10345 58004
0130829750999991993060612004-09100-044117FM-12+033199999V0209999999999220001CN0500001N9+02671+01841101631ADDAA106000091AG14000GA1001+999999999GF100991001001999999001001KA1240N+01951MA1999999097701MD1999999+0011REMSYN016 333 20195 58001
0095829750999991993060618004-09100-044117FM-12+033199999V0209999999999220001CN0500001N9+03381+01541100981ADDAA106000091AG14000GF103991031031008001001041MA1999999097061MD1999999+0031REMSYN010 333 58003
0130829750999991993060812004-09100-044117FM-12+033199999V0209999999999220001CN0500001N9+02551+01511101541ADDAA106000091AG14000GA1001+999999999GF100991001001999999001001KA1240N+02141MA1999999097601MD1999999-0031REMSYN016 333 20214 59003
0114829750999991993060818004-09100-044117FM-12+033199999V0209999999999220001CN0500001N9+03401+01351101041ADDAA106000091AG14000GF103991999001008001071051MA1999999097131MD1999999-0021REMSYN010 333 59002EQDQ01+000062SCOTLC
0130829750999991993060900004-09100-044117FM-12+033199999V0209999999999220001CN9999999N9+02721+01321101251ADDAA106000091AG14000GA1001+999999999GF100991001001999999001001KA1240M+03441MA1999999097321MD1999999+0051REMSYN016 333 10344 58005
0113829750999991993060912004-09100-044117FM-12+033199999V0209999999999220001CN0500001N9+02501+01481999999ADDAA106000091AG14000GA1001+999999999GF100991001001999999001001REMSYN022 333 20/// 58/// 60///EQDQ01-069591APOSP 
0111829750999991993060918004-09100-044117FM-12+033199999V0209999999999220001CN0500001N9+03381+01131100991ADDAA106000091AG14000GA1001+999999999GF100991001001999999001001MA1999999097081MD1999999-0051REMSYN010 333 59005
0130829750999991993061000004-09100-044117FM-12+033199999V0209999999999220001CN9999999N9+02801+01241101121ADDAA106000091AG14000GA1001+999999999GF100991001001999999001001KA1240M+03351MA1999999097201MD1999999-0121REMSYN016 333 10335 59012
0130829750999991993061012004-09100-044117FM-12+033199999V0209999999999220001CN0500001N9+02561+01561101481ADDAA106000091AG14000GA1001+999999999GF100991001001999999001001KA1240N+01921MA1999999097551MD1999999-0051REMSYN016 333 20192 59005
0114829750999991993061018004-09100-044117FM-12+033199999V0209999999999220001CN0500001N9+03421+01121100931ADDAA106000091AG14000GF102991999031008001001021MA1999999097021MD1999999-0061REMSYN010 333 59006EQDQ01+000032SCOTLC
0130829750999991993061100004-09100-044117FM-12+033199999V0209999999999220001CN9999999N9+02861+01151101151ADDAA106000091AG14000GA1001+999999999GF100991001001999999001001KA1240M+03371MA1999999097141MD1999999-0061REMSYN016 333 10337 59006
0114829750999991993061112004-09100-044117FM-12+033199999V0209999999999220001CN0500001N9+02651+01971101571ADDAA106000091AG14000GF104991041031008001041021KA1240N+02201MA1999999097641MD1999999+0091REMSYN016 333 20220 58009
0095829750999991993061118004-09100-044117FM-12+033199999V0209999999999220001CN0500001N9+99999+99999101001ADDAA106000091AG14000GF103991031001008001031021MA1999999097091MD1999999+0071REMSYN010 333 58007
0130829750999991993061200004-09100-044117FM-12+033199999V0209999999999220001CN9999999N9+02961+01241101141ADDAA106000091AG14000GA1001+999999999GF100991001001999999001001KA1240M+03501MA1999999097231MD1999999+0091REMSYN016 333 10350 58009
0130829750999991993061212004-09100-044117FM-12+033199999V0209999999999220001CN9999999N9+02961+01241101141ADDAA106000091AG14000GA1001+999999999GF100991001001999999001001KA1240M+03501MA1999999097231MD1999999+0091REMSYN016 333 10350 58009
0114829750999991993061218004-09100-044117FM-12+033199999V02099999999999999999N0500001N9+03331+01781101051ADDAA106000091AG14000GF105991999001008001041071MA1999999097151MD1999999+0061REMSYN010 333 58006EQDQ01+000062SCOTLC
0114829750999991993061500004-09100-044117FM-12+033199999V0209999999999220001CN9999999N9+02861+01661101381ADDAA106000091AG14000GF103991031031008001021001KA1240M+03251MA1999999097461MD1999999+0021REMSYN016 333 10325 58002
0114829750999991993061512004-09100-044117FM-12+033199999V0209999999999220001CN0500001N9+02481+01761101861ADDAA106000091AG14000GF103991031001008001031041KA1240N+01931MA1999999097911MD1999999+0151REMSYN016 333 20193 58015
0114829750999991993061712004-09100-044117FM-12+033199999V0209999999999220001CN0500001N9+02321+01471101561ADDAA106000091AG14000GF103991031031008001021001KA1240N+01851MA1999999097901MD1999999-0061REMSYN016 333 20185 59006
0095829750999991993061718004-09100-044117FM-12+033199999V0209999999999007501CN0500001N9+03001+01691101261ADDAA106000091AG14000GF106991061051008001021031MA1999999097211MD1999999-0151REMSYN010 333 59015
0130829750999991993061812004-09100-044117FM-12+033199999V0209999999999220001CN0500001N9+02591+01651101591ADDAA106000091AG14000GA1001+999999999GF100991001001999999001001KA1240N+02161MA1999999097661MD1999999-0241REMSYN016 333 20216 59024
0114829750999991993062218004-09100-044117FM-12+033199999V0209999999999220001CN0500001N9+03261+01511101331ADDAA106000091AG14000GF103991999001008001071031MA1999999097401MD1999999+0011REMSYN010 333 58001EQDQ01+000052SCOTLC
0153829750999991993062312004-09100-044117FM-12+033199999V0200901N00211220001CN0100001N9+02061+01821101681ADDAA106000491AA299000591AG10004AY161061AY221061GF102991021001999999081001KA1240M+02741MA1999999095471MD1999999+0011MW1101REMSYN022 333 10274 58001 69941
0095829750999991993062418004-09100-044117FM-12+033199999V0209999999999007501CN0500001N9+03391+01571101261ADDAA106000091AG14000GF105991051061008001071041MA1999999097341MD1999999+0001REMSYN010 333 58000
0130829750999991993062500004-09100-044117FM-12+033199999V0209999999999220001CN9999999N9+02751+01341101491ADDAA106000091AG14000GA1001+999999999GF100991001001999999001001KA1240M+03381MA1999999097551MD1999999+0071REMSYN016 333 10338 58007
0130829750999991993062512004-09100-044117FM-12+033199999V0209999999999220001CN0500001N9+02421+01571101661ADDAA106000091AG14000GA1001+999999999GF100991001001999999001001KA1240N+01781MA1999999097111MD1999999-0031REMSYN016 333 20178 59003
0130829750999991993062612004-09100-044117FM-12+033199999V0209999999999220001CN0500001N9+02551+01711101541ADDAA106000091AG14000GA1001+999999999GF100991001001999999001001KA1240N+01871MA1999999097601MD1999999-0111REMSYN016 333 20187 59011
0130829750999991993062912004-09100-044117FM-12+033199999V0209999999999220001CN0500001N9+02561+01321101551ADDAA106000091AG14000GA1001+999999999GF100991001001999999001001KA1240N+02041MA1999999097611MD1999999-0051REMSYN016 333 20204 59005
0111829750999991993062918004-09100-044117FM-12+033199999V0209999999999220001CN0500001N9+03491+01431101061ADDAA106000091AG14000GA1001+999999999GF100991001001999999001001MA1999999097141MD1999999-0071REMSYN010 333 59007
0114829750999991993063012004-09100-044117FM-12+033199999V0209999999999220001CN0500001N9+02581+01451101501ADDAA106000091AG14000GF103991031031008001021001KA1240N+02071MA1999999097571MD1999999-0041REMSYN016 333 20207 59004
0095829750999991993070818004-09100-044117FM-12+033199999V0209999999999220001CN0500001N9+03521+01541100961ADDAA106000091AG14000GF104991041031008001021051MA1999999097001MD1999999-0021REMSYN010 333 59002
0095829750999991993071018004-09100-044117FM-12+033199999V0209999999999220001CN0500001N9+03541+01641100861ADDAA106000091AG14000GF104991999999008001999999MA1999999096941MD1999999-0021REMSYN010 333 59002
0095829750999991993071218004-09100-044117FM-12+033199999V0209999999999220001CN0500001N9+03421+01541100941ADDAA106000091AG14000GF103991031021008001001041MA1999999097021MD1999999-0041REMSYN010 333 59004
0095829750999991993071318004-09100-044117FM-12+033199999V0209999999999220001CN0500001N9+03461+01481100981ADDAA106000091AG14000GF103991031001008001041021MA1999999097101MD1999999+0061REMSYN010 333 58006
0130829750999991993071400004-09100-044117FM-12+033199999V0209999999999220001CN9999999N9+02891+01441101221ADDAA106000091AG14000GA1001+999999999GF100991001001999999001001KA1240M+03501MA1999999097301MD1999999+0181REMSYN016 333 10350 58018
0114829750999991993071412004-09100-044117FM-12+033199999V0209999999999220001CN0500001N9+02651+01511101731ADDAA106000091AG14000GF102991021001008001041021KA1240N+01901MA1999999097791MD1999999+0191REMSYN016 333 20190 58019
0095829750999991993071518004-09100-044117FM-12+033199999V0209999999999220001CN0500001N9+03191+01371101291ADDAA106000091AG14000GF104991041031008001041021MA1999999097361MD1999999+0131REMSYN010 333 58013
0130829750999991993071612004-09100-044117FM-12+033199999V0209999999999220001CN0500001N9+02451+01411101901ADDAA106000091AG14000GA1001+999999999GF100991001001999999001001KA1240N+01871MA1999999097941MD1999999+0091REMSYN016 333 20187 58009
0111829750999991993071618004-09100-044117FM-12+033199999V0209999999999220001CN0500001N9+03351+01151101331ADDAA106000091AG14000GA1001+999999999GF100991001001999999001001MA1999999097401MD1999999+0041REMSYN010 333 58004
0130829750999991993071912004-09100-044117FM-12+033199999V0209999999999220001CN0500001N9+02501+01481102091ADDAA106000091AG14000GA1001+999999999GF100991001001999999001001KA1240N+01801MA1999999098161MD1999999-0041REMSYN016 333 20180 59004
0130829750999991993072012004-09100-044117FM-12+033199999V0201801N00411220001CN0500001N9+02641+01351101811ADDAA106000091AG14000GA1001+999999999GF100991001001999999001001KA1240N+01841MA1999999097851MD1999999-0311REMSYN016 333 20184 59031
0111829750999991993072518004-09100-044117FM-12+033199999V0209999999999220001CN0500001N9+03481+01641101021ADDAA106000091AG14000GA1001+999999999GF100991001001999999001001MA1999999097181MD1999999-0041REMSYN010 333 59004
0095829750999991993072718004-09100-044117FM-12+033199999V0209999999999220001CN0500001N9+03491+01581101031ADDAA106000091AG14000GF103991031021008001051031MA1999999097031MD1999999-0051REMSYN010 333 59005
0111829750999991993072812004-09100-044117FM-12+033199999V0209999999999220001CN0500001N9+03501+01641100981ADDAA106000091AG14000GA1001+999999999GF100991001001999999001001MA1999999097001MD1999999-0031REMSYN010 333 59003
0130829750999991993072912004-09100-044117FM-12+033199999V0201801N00511220001CN0500001N9+02561+01501101801ADDAA106000091AG14000GA1001+999999999GF100991001001999999001001KA1240N+01901MA1999999097961MD1999999+0131REMSYN016 333 20190 58013
0114829750999991993080212004-09100-044117FM-12+033199999V0201801N00211007501CN0500001N9+02491+01621101631ADDAA106000091AG14000GF107991071051008001031021KA1240N+02201MA1999999097731MD1999999-0071REMSYN016 333 20220 59007
0095829750999991993080218004-09100-044117FM-12+033199999V0201801N00211220001CN0500001N9+03341+01631101281ADDAA106000091AG14000GF102991021001008001031021MA1999999097161MD1999999-0061REMSYN010 333 59006
0130829750999991993080300004-09100-044117FM-12+033199999V0201801N00211220001CN9999999N9+02011+01531101511ADDAA106000091AG14000GA1001+999999999GF100991001001999999001001KA1240M+03511MA1999999097581MD1999999+0161REMSYN016 333 10351 58016
0130829750999991993080312004-09100-044117FM-12+033199999V0201801N00511220001CN0500001N9+02501+01531101991ADDAA106000091AG14000GA1001+999999999GF100991001001999999001001KA1240N+02181MA1999999098051MD1999999+0321REMSYN016 333 20218 58032
0095829750999991993080318004-09100-044117FM-12+033199999V0201801N00211220001CN0500001N9+03421+01651101381ADDAA106000091AG14000GF102991999999008001999999MA1999999097381MD1999999+0021REMSYN010 333 58002
0111829750999991993080518004-09100-044117FM-12+033199999V0201801N00211220001CN0500001N9+03481+01641101061ADDAA106000091AG14000GA1001+999999999GF100991001001999999001001MA1999999097381MD1999999-0041REMSYN010 333 59004
0130829750999991993080600004-09100-044117FM-12+033199999V0201801N00311220001CN9999999N9+03121+01641101281ADDAA106000091AG14000GA1001+999999999GF100991001001999999001001KA1240M+03541MA1999999097581MD1999999-0041REMSYN016 333 10354 59004
0130829750999991993080612004-09100-044117FM-12+033199999V0201401N00211220001CN0500001N9+02651+01431999999ADDAA106000091AG14000GA1001+999999999GF100991001001999999001001KA1240N+01191MA1999999097821MD1999999-0031REMSYN016 333 20119 59003
0095829750999991993080618004-09100-044117FM-12+033199999V0201401N00211220001CN0500001N9+03521+01641101031ADDAA106000091AG14000GF102991021001008001031021MA1999999097231MD1999999-0051REMSYN010 333 59005
0130829750999991993080800004-09100-044117FM-12+033199999V0201801N00311220001CN9999999N9+02781+01751101341ADDAA106000091AG14000GA1001+999999999GF100991001001999999001001KA1240M+03561MA1999999097411MD1999999-0011REMSYN016 333 10356 59001
0114829750999991993080812004-09100-044117FM-12+033199999V0201801N00211220001CN0500001N9+02311+01481101691ADDAA106000091AG14000GF103991031031008001001021KA1240N+02031MA1999999097731MD1999999+0011REMSYN016 333 20203 58001
0095829750999991993080918004-09100-044117FM-12+033199999V0201401N00311220001CN0500001N9+03451+01541101061ADDAA106000091AG14000GF102991021001008001031001MA1999999097021MD1999999-0031REMSYN010 333 59003
0114829750999991993081312004-09100-044117FM-12+033199999V0201801N00311220001CN0500001N9+02471+02001101531ADDAA106000091AG14000GF103991031031008001021001KA1240N+02191MA1999999097601MD1999999-0101REMSYN016 333 20219 59010
0130829750999991993081500004-09100-044117FM-12+033199999V0201401N00311220001CN9999999N9+03071+01351101061ADDAA106000091AG14000GA1001+999999999GF100991001001999999001001KA1240M+03491MA1999999097181MD1999999+0021REMSYN016 333 10349 58002
0130829750999991993081512004-09100-044117FM-12+033199999V0201801N00311220001CN0500001N9+02531+01431101481ADDAA106000091AG14000GA1001+999999999GF100991001001999999001001KA1240N+01961MA1999999097641MD1999999+0041REMSYN016 333 20196 58004
0130829750999991993081612004-09100-044117FM-12+033199999V0201801N01031220001CN0500001N9+02411+01471101741ADDAA106000091AG14000GA1001+999999999GF100991001001999999001001KA1240N+02031MA1999999097801MD1999999+0161REMSYN016 333 20203 58016
0095829750999991993081818004-09100-044117FM-12+033199999V0201401N00311220001CN0500001N9+03461+01431101091ADDAA106000091AG14000GF104991031021008001041021MA1999999097081MD1999999-0061REMSYN010 333 59006
0133829750999991993082400004-09100-044117FM-12+033199999V02099999999999999999N9999999N9+03141+01331101261ADDAA106000091AG14000GF105991051051999999021031KA1240M+03591MA1999999097351MD1999999+0141REMSYN016 333 10359 58014EQDQ01+000992SCOLCB
0114829750999991993082412004-09100-044117FM-12+033199999V0209999999999007501CN0500001N9+02531+01481101731ADDAA106000091AG14000GF106991061031008001051021KA1240N+02141MA1999999097801MD1999999+0231REMSYN016 333 20214 58023
0095829750999991993082418004-09100-044117FM-12+033199999V0209999999999220001CN0500001N9+03501+01531101041ADDAA106000091AG14000GF103991021031008001001021MA1999999097281MD1999999+0021REMSYN010 333 58002
0101829750999991993082612004-09100-044117FM-12+033199999V0209999999999220001CN0500001N9+02691+01431101541ADDAA106000091AG14000GF102991021031008001001021MA1999999097741MD1999999-0061REMSYN016 333 2097/ 59006
0095829750999991993082618004-09100-044117FM-12+033199999V0209999999999220001CN0500001N9+03521+01431100901ADDAA106000091AG14000GF102991021031008001001021MA1999999097071MD1999999-0161REMSYN010 333 59016
0133829750999991993082900004-09100-044117FM-12+033199999V0209999999999220001CN9999999N9+03261+01431101041ADDAA106000091AG14000GF103991031021999999001041KA1240M+03641MA1999999097091MD1999999-0031REMSYN016 333 10364 59003EQDQ01+000992SCOLCB
0130829750999991993082912004-09100-044117FM-12+033199999V0209999999999220001CN0500001N9+02751+01381101381ADDAA106000091AG14000GA1001+999999999GF100991001001999999001001KA1240N+02131MA1999999097521MD1999999-0041REMSYN016 333 20213 59004
0095829750999991993083018004-09100-044117FM-12+033199999V0209999999999220001CN0500001N9+03461+01541100941ADDAA106000091AG14000GF102991021001008001031021MA1999999097101MD1999999+0051REMSYN010 333 58005
0095829750999991993083118004-09100-044117FM-12+033199999V0209999999999220001CN0500001N9+03501+01541100921ADDAA106000091AG14000GF102991021001008001031021MA1999999097041MD1999999+0041REMSYN010 333 58004
0130829750999991993090112004-09100-044117FM-12+033199999V0209999999999220001CN0500001N9+02681+01461101361ADDAA106000091AG14000GA1001+999999999GF100991001001999999001001KA1240N+01961MA1999999097581MD1999999+0081REMSYN016 333 20196 58008
0111829750999991993090118004-09100-044117FM-12+033199999V0209999999999220001CN0500001N9+03581+01641100891ADDAA106000091AG14000GA1001+999999999GF100991001001999999001001MA1999999097121MD1999999+0021REMSYN010 333 58002
0130829750999991993090600004-09100-044117FM-12+033199999V0201401N00411220001CN9999999N9+03071+01241100891ADDAA106000091AG14000GA1001+999999999GF100991001001999999001001KA1240M+03641MA1999999097001MD1999999-0011REMSYN016 333 10364 59001
0130829750999991993090611004-09100-044117FM-12+033199999V0200501N00511220001CN0500001N9+02701+01411101401ADDAA106000091AG14999GA1001+999999999GF100991001001999999001001KA1240N+02051MA1999999097491MD1999999-0061REMSYN016 333 20205 59006
0095829750999991993090718004-09100-044117FM-12+033199999V0209999999999220001CN0500001N9+03541+01431100861ADDAA106000091AG14000GF104991999999008001999999MA1999999097081MD1999999-0041REMSYN010 333 59004
0130829750999991993090812004-09100-044117FM-12+033199999V0201801N00511220001CN0500001N9+02831+01351101411ADDAA106000091AG14000GA1001+999999999GF100991001001999999001001KA1240N+02201MA1999999097511MD1999999-0091REMSYN016 333 20220 59009
0095829750999991993090818004-09100-044117FM-12+033199999V0201401N00411220001CN0500001N9+03541+01431100891ADDAA106000091AG14000GF103991031021008001001041MA1999999096951MD1999999-0051REMSYN010 333 59005
0095829750999991993090918004-09100-044117FM-12+033199999V0209999999999220001CN0500001N9+03681+01461100881ADDAA106000091AG14000GF102991021001008001031021MA1999999096941MD1999999-0051REMSYN010 333 59005
0130829750999991993091012004-09100-044117FM-12+033199999V0209999999999220001CN0500001N9+02651+01321101511ADDAA106000091AG14000GA1001+999999999GF100991001001999999001001KA1240N+02211MA1999999097591MD1999999+0091REMSYN016 333 20221 58009
0111829750999991993091018004-09100-044117FM-12+033199999V0209999999999220001CN0500001N9+03561+01531100891ADDAA106000091AG14000GA1001+999999999GF100991001001999999001001MA1999999097051MD1999999+0081REMSYN010 333 58008
0111829750999991993091118004-09100-044117FM-12+033199999V0209999999999220001CN0500001N9+03581+01431100891ADDAA106000091AG14000GA1001+999999999GF100991001001999999001001MA1999999097011MD1999999+0021REMSYN010 333 58002
0095829750999991993091218004-09100-044117FM-12+033199999V0209999999999220001CN0500001N9+03521+01461100881ADDAA106000091AG14000GF104991041031008001001021MA1999999099651MD1999999-0051REMSYN010 333 59005
0130829750999991993091500004-09100-044117FM-12+033199999V0209999999999220001CN9999999N9+03191+01421101001ADDAA106000091AG14000GA1001+999999999GF100991001001999999001001KA1240M+03721MA1999999097181MD1999999+0021REMSYN016 333 10372 58002
0130829750999991993091600004-09100-044117FM-12+033199999V0209999999999220001CN9999999N9+03201+01361100981ADDAA106000091AG14000GA1001+999999999GF100991001001999999001001KA1240M+03681MA1999999097181MD1999999+0031REMSYN016 333 10368 58003
0095829750999991993091618004-09100-044117FM-12+033199999V0209999999999220001CN0500001N9+03521+01431100901ADDAA106000091AG14000GF103991031021008001001041MA1999999097021MD1999999-0061REMSYN010 333 59006
0130829750999991993091712004-09100-044117FM-12+033199999V0209999999999220001CN0500001N9+02791+01391101311ADDAA106000091AG14000GA1001+999999999GF100991001001999999001001KA1240N+02201MA1999999097411MD1999999-0151REMSYN016 333 20220 59015
0130829750999991993091900004-09100-044117FM-12+033199999V0209999999999220001CN9999999N9+03201+01461101081ADDAA106000091AG14000GA1001+999999999GF100991001001999999001001KA1240M+03541MA1999999097101MD1999999-0051REMSYN016 333 10354 59005
0114829750999991993091912004-09100-044117FM-12+033199999V0209999999999007501CN0500001N9+02641+01341101581ADDAA106000091AG14000GF106991061031008001041021KA1240N+02141MA1999999097481MD1999999-0081REMSYN016 333 20214 59008
0095829750999991993091918004-09100-044117FM-12+033199999V0209999999999007501CN0500001N9+03141+01341101221ADDAA106000091AG14000GF107991071041008001051031MA1999999096941MD1999999-0031REMSYN010 333 59003
0095829750999991993092018004-09100-044117FM-12+033199999V0209999999999007501CN0500001N9+03241+01411101041ADDAA106000091AG14000GF106991061041008001031021MA1999999097041MD1999999+0051REMSYN010 333 58005
0095829750999991993092218004-09100-044117FM-12+033199999V0209999999999220001CN0500001N9+03281+01461101041ADDAA106000091AG14000GF104991041021008001001041MA1999999097021MD1999999+0021REMSYN010 333 58002
0114829750999991993092312004-09100-044117FM-12+033199999V0209999999999220001CN0500001N9+02641+01761101671ADDAA106000091AG14000GF103991031001008001031021KA1240N+02181MA1999999097751MD1999999+0161REMSYN016 333 20218 58016
0139829750999991993092400004-09100-044117FM-12+033199999V02099999999999999999N9999999N9+02861+01521101221ADDAA106009091AG10005GF106991061041999999021031KA1240M+03121MA1999999097361MD1999999-0041REMSYN022 333 10312 59004 60091EQDQ01+000992SCOLCB
0136829750999991993092412004-09100-044117FM-12+033199999V0209999999999220001CN0500001N9+02761+01431101461ADDAA124010091AG10000GA1001+999999999GF100991001001999999001001KA1240N+02141MA1999999097681MD1999999-0071REMSYN022 333 20214 59007 60104
0114829750999991993092600004-09100-044117FM-12+033199999V0209999999999220001CN0500001N9+02941+01301101481ADDAA106000091AG14000GF104991041001999999031021KA1240M+03211MA1999999097181MD1999999-0031REMSYN016 333 10321 59003
0095829750999991993092612004-09100-044117FM-12+033199999V0209999999999007501CN0500001N9+02641+01321999999ADDAA106000091AG14000GF106991061041008001031021MA1999999097481MD1999999-0041REMSYN010 333 59004
0095829750999991993092918004-09100-044117FM-12+033199999V0209999999999220001CN0500001N9+03301+01531101041ADDAA106000091AG14000GF104991041031008001021031MA1999999097021MD1999999-0031REMSYN010 333 59003
0095829750999991993093018004-09100-044117FM-12+033199999V0209999999999220001CN0500001N9+03361+01541100981ADDAA106000091AG14000GF103991999999008001999999MA1999999097001MD1999999-0031REMSYN010 333 59003
0133829750999991993100100004-09100-044117FM-12+033199999V0209999999999220001CN9999999N9+03081+01621101301ADDAA106000091AG14000GF104991999031999999021041KA1240M+03461MA1999999097401MD1999999-0191REMSYN016 333 10346 59019EQDQ01+000052SCOTLC
0130829750999991993100112004-09100-044117FM-12+033199999V0209999999999220001CN0500001N9+02881+01691101821ADDAA106000091AG14000GA1001+999999999GF100991001001999999001001KA1240N+02171MA1999999097901MD1999999+0211REMSYN016 333 20217 58021
0081829750999991993100718004-09100-044117FM-12+033199999V0209999999999007501CN0500001N9+03321+01431999999ADDAA106000091AG14000GF105991051031008001081041MA1999999097251REMSYN010 333 59///
0161829750999991993100812004-09100-044117FM-12+033199999V0209999999999007501CN0500001N9+02341+01381101861ADDAA124023091AG10006AY161061AY231061GF108991999051008001041031KA1240N+02041MA1999999097581MD1999999-0041MW1091REMSYN022 333 20204 59004 60234EQDQ01+000082SCOTLC
0133829750999991993101100004-09100-044117FM-12+033199999V0209999999999220001CN9999999N9+03061+01381101061ADDAA106000091AG14000GF103991031021999999001021KA1240M+03161MA1999999097261MD1999999+0091REMSYN016 333 10316 58009EQDQ01+000992SCOLCB
0130829750999991993101112004-09100-044117FM-12+033199999V0209999999999220001CN0500001N9+02741+01431101481ADDAA106000091AG14000GA1001+999999999GF100991001001999999001001KA1240N+02131MA1999999097801MD1999999+0061REMSYN016 333 20213 58006
0095829750999991993101118004-09100-044117FM-12+033199999V0209999999999220001CN0500001N9+03281+01481101121ADDAA106000091AG14000GF104991041031008001021041MA1999999097351MD1999999+0091REMSYN010 333 58009
0130829750999991993101700004-09100-044117FM-12+033199999V0209999999999220001CN9999999N9+03201+01381101431ADDAA106000091AG14000GA1001+999999999GF100991001001999999001001KA1240M+03491MA1999999097601MD1999999-0021REMSYN016 333 10349 59002
0130829750999991993101712004-09100-044117FM-12+033199999V0209999999999220001CN0500001N9+02931+01461101781ADDAA106000091AG14000GA1001+999999999GF100991001001999999001001KA1240N+01031MA1999999097981MD1999999-0031REMSYN016 333 20103 59003
0133829750999991993101800004-09100-044117FM-12+033199999V0209999999999220001CN9999999N9+03141+01581101081ADDAA106000091AG14000GF104991041021999999031021KA1240M+03451MA1999999097641MD1999999+0021REMSYN016 333 10345 58002EQDQ01+000992SCOLCB
0130829750999991993101812004-09100-044117FM-12+033199999V0209999999999220001CN0500001N9+02981+01431101861ADDAA106000091AG14000GA1001+999999999GF100991001001999999001001KA1240N+01981MA1999999098041MD1999999+0041REMSYN016 333 20198 58004
0130829750999991993102000004-09100-044117FM-12+033199999V0209999999999220001CN9999999N9+03361+01531101461ADDAA106000091AG14000GA1001+999999999GF100991001001999999001001KA1240M+03481MA1999999097781MD1999999+0061REMSYN016 333 10348 58006
0130829750999991993102012004-09100-044117FM-12+033199999V0209999999999220001CN0500001N9+02861+01461101861ADDAA106000091AG14000GA1001+999999999GF100991001001999999001001KA1240N+02031MA1999999098001MD1999999+0031REMSYN016 333 20203 58003
0114829750999991993102018004-09100-044117FM-12+033199999V0209999999999220001CN0500001N9+03421+01261101062ADDAA106000091AG14000GF103991031001008001031021MA1999999097401MD1999999-0041REMSYN010 333 59004EQDQ01+101063APOSLP
0095829750999991993102118004-09100-044117FM-12+033199999V0209999999999007501CN0500001N9+03541+01581100041ADDAA106000091AG14000GF105991051021008001041031MA1999999097381MD1999999-0061REMSYN010 333 59006
0095829750999991993102218004-09100-044117FM-12+033199999V0209999999999220001CN0500001N9+03481+01461101061ADDAA106000091AG14000GF104991041031008001021001MA1999999097401MD1999999+0021REMSYN010 333 58002
0095829750999991993102318004-09100-044117FM-12+033199999V0209999999999220001CN0500001N9+03481+01461101061ADDAA106000091AG14000GF104991041031008001021001MA1999999097401MD1999999+0021REMSYN010 333 58002
0142829750999991993102500004-09100-044117FM-12+033199999V0209999999999007501CN9999999N9+02931+01621100801ADDAA106007091AG10006AY161061AY231061GF106991061041008001031041KA1240M+03391MA1999999096901MD1999999-0201MW1091REMSYN022 333 10339 59020 60071
0120829750999991993102512004-09100-044117FM-12+033199999V0209999999999007501CN0500001N9+02581+01961101261ADDAA124007091AG10000GF106991061051008001021031KA1240N+02171MA1999999097351MD1999999-0041REMSYN022 333 20217 59004 60074
0133829750999991993102900004-09100-044117FM-12+033199999V0209999999999220001CN9999999N9+03191+01461101031ADDAA106000091AG14000GF103991031021999999031001KA1240M+03521MA1999999097151MD1999999+0041REMSYN016 333 10352 58004EQDQ01+000992SCOLCB
0130829750999991993102912004-09100-044117FM-12+033199999V0209999999999220001CN0500001N9+02711+01511101741ADDAA106000091AG14000GA1001+999999999GF100991001001999999001001KA1240N+01921MA1999999097801MD1999999+0341REMSYN016 333 20192 58034
0095829750999991993102918004-09100-044117FM-12+033199999V0209999999999220001CN0500001N9+03431+01581100981ADDAA106000091AG14000GF103991031001008001021041MA1999999097051MD1999999+0101REMSYN010 333 58010
0130829750999991993103012004-09100-044117FM-12+033199999V0209999999999220001CN0500001N9+02741+01441101631ADDAA106000091AG14000GA1001+999999999GF100991001001999999001001KA1240N+02251MA1999999097711MD1999999-0091REMSYN016 333 20225 59009
0130829750999991993110112004-09100-044117FM-12+033199999V0209999999999220001CN0500001N9+02881+01521101451ADDAA106000091AG14000GA1001+999999999GF100991001001999999001001KA1240N+02201MA1999999097551MD1999999+0041REMSYN016 333 20220 58004
0114829750999991993110512004-09100-044117FM-12+033199999V0209999999999007501CN0500001N9+02681+01451101481ADDAA106000091AG14000GF105991051021008001031001KA1240N+02181MA1999999097351MD1999999-0021REMSYN016 333 20218 59002
0095829750999991993110718004-09100-044117FM-12+033199999V0209999999999007501CN0500001N9+02961+01521101281ADDAA106000091AG14000GF106991061041008001021031MA1999999097041MD1999999-0041REMSYN010 333 59004
0095829750999991993110918004-09100-044117FM-12+033199999V0209999999999007501CN0500001N9+03241+01541101061ADDAA106000091AG14000GF105991051031008001041021MA1999999097161MD1999999+0061REMSYN010 333 58006
0114829750999991993111218004-09100-044117FM-12+033199999V0209999999999220001CN0500001N9+03321+01461101021ADDAA106000091AG14000GF104991999021008001021031MA1999999097201MD1999999+0041REMSYN010 333 58004EQDQ01+000052SCOTLC
0095829750999991993111318004-09100-044117FM-12+033199999V0209999999999007501CN0500001N9+03181+01521101081ADDAA106000091AG14000GF106991061021008001031041MA1999999097541MD1999999-0061REMSYN010 333 59006
0114829750999991993111500004-09100-044117FM-12+033199999V0209999999999220001CN9999999N9+03141+01461101001ADDAA106000091AG14000GF104991041031008001021021KA1240M+03561MA1999999096941MD1999999-0041REMSYN016 333 10356 59004
0114829750999991993111512004-09100-044117FM-12+033199999V0209999999999220001CN0500001N9+02761+01541101241ADDAA106000091AG14000GF103991031021008001031001KA1240N+02061MA1999999097151MD1999999-0091REMSYN016 333 20206 59009
0095829750999991993111518004-09100-044117FM-12+033199999V0209999999999220001CN0500001N9+03321+01381100891ADDAA106000091AG14000GF104991041031008001021041MA1999999096851MD1999999-0051REMSYN010 333 59005
0114829750999991993111600004-09100-044117FM-12+033199999V0209999999999220001CN9999999N9+03281+01461101061ADDAA106000091AG14000GF101991999999008001999999KA1240M+03461MA1999999097161MD1999999+0021REMSYN016 333 10346 58002
0062829750999991993111612004-09100-044117FM-12+033199999V0209999999999220001CN0500001N9+02931+01441999999ADDAA106000091AG14000GF104991999999008001999999MA1999999097301
0047829750999991993112018004-09100-044117FM-12+033199999V02099999999999999999N0500001N9+03341+01531999999ADDAA106000091AG14000GF105991999999008001999999
0095829750999991993112318004-09100-044117FM-12+033199999V0209999999999220001CN0500001N9+03421+01531100981ADDAA106000091AG14000GF103991031021008001001041MA1999999096931MD1999999+0021REMSYN010 333 58002
0130829750999991993112500004-09100-044117FM-12+033199999V0209999999999220001CN9999999N9+03161+01461101081ADDAA106000091AG14000GA1001+999999999GF100991001001999999001001KA1240M+03521MA1999999097041MD1999999-0061REMSYN016 333 10352 59006
0114829750999991993112512004-09100-044117FM-12+033199999V0209999999999220001CN0500001N9+02961+01541101381ADDAA106000091AG14000GF103991031021008001001031KA1240N+02161MA1999999097251MD1999999-0011REMSYN016 333 20216 59001
0095829750999991993112518004-09100-044117FM-12+033199999V0209999999999220001CN0500001N9+03421+01481100881ADDAA106000091AG14000GF103991031021008001001021MA1999999096901MD1999999-0021REMSYN010 333 59002
0114829750999991993112812004-09100-044117FM-12+033199999V0209999999999220001CN0500001N9+02711+01801101421ADDAA106000091AG14000GF104991041031008001021021KA1240N+02161MA1999999097511MD1999999+0021REMSYN016 333 20216 58002
0142829750999991993112912004-09100-044117FM-12+033199999V0209999999999007501CN0500001N9+02501+02111101231ADDAA124022091AG10006AY161061AY231061GF106991061031008001021041KA1240N+02131MA1999999097311MD1999999-0201MW1091REMSYN022 333 20213 59020 60224
0095829750999991993113018004-09100-044117FM-12+033199999V0209999999999220001CN0500001N9+03321+01641100891ADDAA106000091AG14000GF104991041021008001031041MA1999999096901MD1999999-0011REMSYN010 333 59001
0114829750999991993120100004-09100-044117FM-12+033199999V0209999999999007501CN9999999N9+02711+02061101241ADDAA106000091AG14000GF107991071061008001021041KA1240M+03341MA1999999097311MD1999999+0301REMSYN016 333 10334 58030
0161829750999991993120112004-09100-044117FM-12+033199999V0203001N05712007501CN0500001N9+02521+02071101301ADDAA124035091AG10006AY161061AY231061GF105991051031008001021041KA1240N+02131MA1999999097361MD1999999+0161MW1071REMSYN022 333 20213 58016 60354EQDQ01+005713WOSPD 
0095829750999991993120118004-09100-044117FM-12+033199999V0209999999999220001CN0500001N9+03341+01461100961ADDAA106000091AG14000GF104991041031008001021041MA1999999097041MD1999999+0091REMSYN010 333 58009
0130829750999991993120212004-09100-044117FM-12+033199999V0209999999999220001CN0500001N9+02741+01991101151ADDAA106000091AG14000GA1001+999999999GF100991001001999999001001KA1240N+02151MA1999999097251MD1999999-0111REMSYN016 333 20215 59011
0114829750999991993120312004-09100-044117FM-12+033199999V0209999999999220001CN0500001N9+02651+01631101221ADDAA106000091AG14000GF102991021001008001021031KA1240N+02141MA1999999097301MD1999999+0051REMSYN016 333 20214 58005
0130829750999991993120412004-09100-044117FM-12+033199999V0209999999999220001CN0500001N9+02731+01881101131ADDAA106000091AG14000GA1001+999999999GF100991001001999999001001KA1240N+02191MA1999999097211MD1999999-0091REMSYN016 333 20219 59009
0095829750999991993120518004-09100-044117FM-12+033199999V0209999999999007501CN0500001N9+03361+01461100801ADDAA106000091AG14000GF105991051041008001031021MA1999999096971MD1999999-0101REMSYN010 333 59010
0130829750999991993120612004-09100-044117FM-12+033199999V0209999999999220001CN0500001N9+02811+01841101121ADDAA106000091AG14000GA1001+999999999GF100991001001999999001001KA1240N+02261MA1999999097211MD1999999-0041REMSYN016 333 20226 59004
0095829750999991993120618004-09100-044117FM-12+033199999V0209999999999220001CN0500001N9+03421+01531100781ADDAA106000091AG14000GF102991021001008001031001MA1999999096701MD1999999-0051REMSYN010 333 59005
0130829750999991993120700004-09100-044117FM-12+033199999V0209999999999220001CN9999999N9+03041+01531100791ADDAA106000091AG14000GA1001+999999999GF100991001001999999001001KA1240M+03571MA1999999096901MD1999999+0151REMSYN016 333 10357 58015
0114829750999991993120712004-09100-044117FM-12+033199999V0209999999999007501CN0500001N9+02411+01771101291ADDAA106000091AG14000GF106991061041008001031021KA1240N+02181MA1999999097361MD1999999+0151REMSYN016 333 20218 58015
0111829750999991993120718004-09100-044117FM-12+033199999V0209999999999220001CN0500001N9+03481+01531100781ADDAA106000091AG14000GA1001+999999999GF100991001001999999001001MA1999999096951MD1999999+0011REMSYN010 333 58001
0095829750999991993120818004-09100-044117FM-12+033199999V0209999999999220001CN0500001N9+03481+01541100761ADDAA106000091AG14000GF103991031021008001041001MA1999999096951MD1999999-0051REMSYN010 333 59005
0114829750999991993120900004-09100-044117FM-12+033199999V0209999999999220001CN9999999N9+03061+01641100881ADDAA106000091AG14000GF104991041031008001021041KA1240M+03601MA1999999097001MD1999999+0101REMSYN016 333 10360 58010
0130829750999991993120912004-09100-044117FM-12+033199999V0209999999999220001CN0500001N9+03041+01681101201ADDAA106000091AG14000GA1001+999999999GF100991001001999999001001KA1240N+02351MA1999999097311MD1999999+0011REMSYN016 333 20235 58001
0047829750999991993120918004-09100-044117FM-12+033199999V0209999999999220001CN0500001N9+03561+01561999999ADDAA106000091AG14000GF102991999999008001999999
0114829750999991993121012004-09100-044117FM-12+033199999V0209999999999007501CN0500001N9+02741+01941101261ADDAA106000091AG14000GF105991051041008001031021KA1240N+02381MA1999999097361MD1999999+0051REMSYN016 333 20238 58005
0114829750999991993121112004-09100-044117FM-12+033199999V0209999999999220001CN0500001N9+02931+01021101211ADDAA106000091AG14000GF104991041031008001021031KA1240N+02361MA1999999097311MD1999999-0051REMSYN016 333 20236 59005
0095829750999991993121118004-09100-044117FM-12+033199999V0209999999999220001CN0500001N9+03621+01581100831ADDAA106000091AG14000GF102991021001008001031021MA1999999096951MD1999999-0051REMSYN010 333 59005
0123829750999991993121318004-09100-044117FM-12+033199999V0209999999999007501CN0500001N9+03121+01541101081ADDAA106006091AG10006AY161061AY231061GF107991071051008001031021MA1999999096901MD1999999+0051MW1091REMSYN016 333 58005 60061
0142829750999991993121418004-09100-044117FM-12+033199999V0200501N05092007501CN0500001N9+02761+01431101261ADDAA106038091AG10006AY161061AY231061GF107991071061008001051041MA1999999096951MD1999999+0051MW1071REMSYN016 333 58005 60381EQDQ01+005093WOSPD 
0114829750999991993121700004-09100-044117FM-12+033199999V0209999999999007501CN9999999N9+02921+01781100851ADDAA106000091AG14000GF105991051021008001051031KA1240M+03401MA1999999096951MD1999999-0161REMSYN016 333 10340 59016
0114829750999991993121712004-09100-044117FM-12+033199999V0209999999999220001CN0500001N9+02571+02031101121ADDAA106000091AG14000GF103991031001008001031021KA1240N+02031MA1999999097201MD1999999-0161REMSYN016 333 20203 59016
0095829750999991993121718004-09100-044117FM-12+033199999V0209999999999007501CN0500001N9+03181+01531100841ADDAA106000091AG14000GF106991061051008001031021MA1999999096901MD1999999-0051REMSYN010 333 59005
0114829750999991993121800004-09100-044117FM-12+033199999V0209999999999220001CN0500001N9+02911+02271101071ADDAA106000091AG14000GF102991021001008001031021KA1240N+02401MA1999999097101MD1999999-0101REMSYN016 333 20240 59010
0114829750999991993122012004-09100-044117FM-12+033199999V0209999999999007501CN0500001N9+02471+02091101241ADDAA106000091AG14000GF105991051031008001041021KA1240N+02241MA1999999097301MD1999999+0141REMSYN016 333 20224 58014
0095829750999991993122218004-09100-044117FM-12+033199999V0209999999999007501CN0500001N9+02841+02041101261ADDAA106000091AG14000GF107991071051008001061031MA1999999097151MD1999999+0051REMSYN010 333 58005
0114829750999991993122412004-09100-044117FM-12+033199999V0209999999999220001CN0500001N9+02581+02191101321ADDAA106000091AG14000GF104991041031008001021041KA1240N+02151MA1999999097391MD1999999+0041REMSYN016 333 20215 58004
0130829750999991993122512004-09100-044117FM-12+033199999V0209999999999220001CN0500001N9+02491+01961101221ADDAA106000091AG14000GA1001+999999999GF100991001001999999001001KA1240N+02131MA1999999097301MD1999999-0091REMSYN016 333 20213 59009
0114829750999991993122712004-09100-044117FM-12+033199999V0209999999999007501CN0500001N9+02451+02001101391ADDAA106000091AG14000GF105991051031008001041021KA1240N+02181MA1999999097461MD1999999+0111REMSYN016 333 20218 58011
0142829750999991993122812004-09100-044117FM-12+033199999V0209999999999007501CN0500001N9+02401+02111101491ADDAA124021091AG10006AY161061AY231061GF107991071041008001051031KA1240N+02201MA1999999097561MD1999999+0101MW1071REMSYN022 333 20220 58010 60214
0130829750999991993123012004-09100-044117FM-12+033199999V0209999999999220001CN0500001N9+02751+01781101161ADDAA106000091AG14000GA1001+999999999GF100991001001999999001001KA1240N+02231MA1999999097251MD1999999-0111REMSYN016 333 20223 59011
