0142832290999991993010112004-13017-038517FM-12+005199999V0201401N00151007501CN0020001N9+02581+02251101331ADDAA124004091AG10003AY161061AY221061GF108991081051008001001001KA1240N+02281MA1999999100731MD1999999+0161MW1021REMSYN022 333 20228 58016 60044
0095832290999991993010118004-13017-038517FM-12+005199999V0209999999999220001CN0200001N9+02821+02361101011ADDAA106000091AG14000GF101991011021008001001001MA1999999100411MD1999999+0031REMSYN010 333 58003
0114832290999991993010200004-13017-038517FM-12+005199999V0209999999999220001CN9999999N9+02481+02191101161ADDAA106000091AG14000GF102991021021008001001001KA1240M+02941MA1999999100561MD1999999+0041REMSYN016 333 10294 58004
0114832290999991993010212004-13017-038517FM-12+005199999V0201401N00211220001CN0200001N9+02821+02201101191ADDAA106000091AG14000GF102991021031008001001001KA1240N+02401MA1999999100591MD1999999-0141REMSYN016 333 20240 59014
0111832290999991993010218004-13017-038517FM-12+005199999V0201801N00211220001CN0200001N9+02901+02391100901ADDAA106000091AG14000GA1001+999999999GF100991001001999999001001MA1999999100301MD1999999-0111REMSYN010 333 59011
0130832290999991993010300004-13017-038517FM-12+005199999V0201401N00151220001CN9999999N9+02511+02171101001ADDAA106000091AG14000GA1001+999999999GF100991001001999999001001KA1240M+02921MA1999999100401MD1999999-0161REMSYN016 333 10292 59016
0114832290999991993010312004-13017-038517FM-12+005199999V0203201N00051007501CN0040001N9+02661+02271101111ADDAA106000091AG14000GF106991061051008001001001KA1240N+02371MA1999999100511MD1999999-0081REMSYN016 333 20237 59008
0095832290999991993010318004-13017-038517FM-12+005199999V0201401N00261220001CN0200001N9+02931+02241100801ADDAA106000091AG14000GF102991001001999999001061MA1999999100201MD1999999-0101REMSYN010 333 59010
0114832290999991993010400004-13017-038517FM-12+005199999V0200501N00151220001CN9999999N9+02481+02151100771ADDAA106000091AG14000GF102991021011008001001001KA1240M+03071MA1999999100171MD1999999-0231REMSYN016 333 10307 59023
0114832290999991993010412004-13017-038517FM-12+005199999V0200501N00211220001CN0200001N9+02601+02231100981ADDAA106000091AG14000GF103991031041008001001001KA1240N+02361MA1999999100381MD1999999-0131REMSYN016 333 20236 59013
0095832290999991993010418004-13017-038517FM-12+005199999V0201401N00211220001CN0200001N9+03081+02441100581ADDAA106000091AG14000GF103991011001999999041061MA1999999099981MD1999999-0221REMSYN010 333 59022
0114832290999991993010512004-13017-038517FM-12+005199999V0200501N00151105001CN0100001N9+02741+02211100971ADDAA106000091AG14000GF107991041081008001001021KA1240N+02481MA1999999100371MD1999999+0011REMSYN016 333 20248 58001
0095832290999991993010518004-13017-038517FM-12+005199999V0200901N00151220001CN0200001N9+02961+02491100591ADDAA106000091AG14000GF104991041001008001051001MA1999999100011MD1999999+0031REMSYN010 333 58003
0114832290999991993010612004-13017-038517FM-12+005199999V0201801N00051007501CN0040001N9+02671+02431101001ADDAA106000091AG14000GF106991051051008001021001KA1240N+02421MA1999999100401MD1999999+0031REMSYN016 333 20242 58003
0095832290999991993010618004-13017-038517FM-12+005199999V0201401N00151220001CN0200001N9+03011+02511100691ADDAA106000091AG14000GF102991021021004501001001MA1999999100101MD1999999+0091REMSYN010 333 58009
0114832290999991993010700004-13017-038517FM-12+005199999V0200901N00151220001CN9999999N9+02581+99999100831ADDAA106000091AG14000GF101991011011004501001001KA1240M+03041MA1999999100251MD1999999+0111REMSYN016 333 10304 58011
0114832290999991993010712004-13017-038517FM-12+005199999V0200501N00101007501CN0100001N9+02681+02281101041ADDAA106000091AG14000GF107991071051008001001001KA1240N+02381MA1999999100441MD1999999+0041REMSYN016 333 20238 58004
0130832290999991993010800004-13017-038517FM-12+005199999V0201401N00151220001CN9999999N9+02561+02311100081ADDAA106000091AG14000GA1001+999999999GF100991001001999999001001KA1240M+03061MA1999999100221MD1999999-0031REMSYN016 333 10306 59003
0114832290999991993010812004-13017-038517FM-12+005199999V0201401N00151220001CN0100001N9+02821+02271101071ADDAA106000091AG14000GF103991021031008001031001KA1240N+02361MA1999999100471MD1999999+0031REMSYN016 333 20236 58003
0095832290999991993010818004-13017-038517FM-12+005199999V0201401N00151105001CN0100001N9+02981+02421100831ADDAA106000091AG14000GF105991011011008001001021MA1999999100231MD1999999+0041REMSYN010 333 58004
0114832290999991993010900004-13017-038517FM-12+005199999V0201401N00051220001CN9999999N9+02521+02211100951ADDAA106000091AG14000GF103991031011008001001001KA1240M+03061MA1999999100351MD1999999+0131REMSYN016 333 10306 58013
0114832290999991993010912004-13017-038517FM-12+005199999V0201401N00151220001CN0100001N9+02801+02081101061ADDAA106000091AG14000GF103991031021008001001001KA1240N+02381MA1999999100461MD1999999-0011REMSYN016 333 20238 59001
0095832290999991993010918004-13017-038517FM-12+005199999V0201401N00151220001CN0100001N9+02921+02341100841ADDAA106000091AG14000GF101991011011008001001001MA1999999100241MD1999999+0011REMSYN010 333 58001
0114832290999991993011000004-13017-038517FM-12+005199999V0201401N00261220001CN9999999N9+02571+02131100951ADDAA106000091AG14000GF101991011001017501031001KA1240M+03041MA1999999100351MD1999999+0001REMSYN016 333 10304 58000
0114832290999991993011012004-13017-038517FM-12+005199999V0201401N00311220001CN0200001N9+02881+02301101241ADDAA106000091AG14000GF104991041041008001001001KA1240N+02461MA1999999100641MD1999999+0181REMSYN016 333 20246 58018
0114832290999991993011112004-13017-038517FM-12+005199999V0201401N00151045001CN0200001N9+02891+02281101041ADDAA106000091AG14000GF106991021041008001031001KA1240N+02421MA1999999100641MD1999999+0001REMSYN016 333 20242 58000
0095832290999991993011118004-13017-038517FM-12+005199999V0201401N00211220001CN0200001N9+02921+02241100991ADDAA106000091AG14000GF102991011021008001041001MA1999999100391MD1999999+0021REMSYN010 333 58002
0114832290999991993011200004-13017-038517FM-12+005199999V0201401N00261220001CN9999999N9+02561+02231101081ADDAA106000091AG14000GF101991011021008001001001KA1240M+03101MA1999999100481MD1999999-0041REMSYN016 333 10310 59004
0114832290999991993011212004-13017-038517FM-12+005199999V0201401N00211220001CN0200001N9+02861+02281101331ADDAA106000091AG14000GF103991021021008001041011KA1240N+02431MA1999999100731MD1999999+0091REMSYN016 333 20243 58009
0095832290999991993011218004-13017-038517FM-12+005199999V0201401N00151220001CN0100001N9+03041+02411101101ADDAA106000091AG14000GF104991011011008001001021MA1999999100501MD1999999+0111REMSYN010 333 58011
0114832290999991993011300004-13017-038517FM-12+005199999V0201401N00151220001CN9999999N9+02541+02231101201ADDAA106000091AG14000GF103991031021008001001001KA1240M+03121MA1999999100601MD1999999+0121REMSYN016 333 10312 58012
0114832290999991993011312004-13017-038517FM-12+005199999V0209991C00151220001CN0100001N9+02901+02321101331ADDAA106000091AG14000GF101991011021008001001001KA1240N+02461MA1999999100731MD1999999+0001REMSYN016 333 20246 58000
0114832290999991993011400004-13017-038517FM-12+005199999V0201401N00151220001CN9999999N9+02561+00291101291ADDAA106000091AG14000GF101991011021008001001001KA1240M+03061MA1999999100691MD1999999+0091REMSYN016 333 10306 58009
0114832290999991993011412004-13017-038517FM-12+005199999V0201401N00151220001CN0200001N9+02881+02391101311ADDAA106000091AG14000GF103991021021008001041051KA1240N+02501MA1999999100711MD1999999-0021REMSYN016 333 20250 59002
0095832290999991993011418004-13017-038517FM-12+005199999V0201401N00211220001CN0200001N9+03001+02341101101ADDAA106000091AG14000GF103991021021008001061061MA1999999100501MD1999999-0081REMSYN010 333 59008
0047832290999991993011500004-13017-038517FM-12+005199999V0201401N00261220001CN9999999N9+02241+99999999999ADDAA106000091AG14000GF104991031021008001031061
0142832290999991993011512004-13017-038517FM-12+005199999V0201401N00151004201CN0040001N9+02401+02331101151ADDAA124004091AG10000AY151061AY251061GF107991061071004501021001KA1240N+02301MA1999999100551MD1999999-0161MW1201REMSYN022 333 20230 59016 60044
0095832290999991993011518004-13017-038517FM-12+005199999V0201401N00311021001CN0200001N9+02881+02281101001ADDAA106000091AG14000GF107991071001022501051001MA1999999100401MD1999999-0101REMSYN010 333 59010
0114832290999991993011600004-13017-038517FM-12+005199999V0209991C00001220001CN9999999N9+02481+02131101081ADDAA106000091AG14000GF101991011011004501001001KA1240M+05001MA1999999100601MD1999999-0061REMSYN016 333 10500 59006
0142832290999991993011612004-13017-038517FM-12+005199999V0201401N00151004201CN0040001N9+02601+02371101171ADDAA124002091AG10000AY101061AY221061GF106991061071004501001001KA1240N+02421MA1999999100591MD1999999+0041MW1581REMSYN022 333 20242 58004 60024
0095832290999991993011618004-13017-038517FM-12+005199999V0200501N00151045001CN0040001N9+02801+02271100951ADDAA106000091AG14000GF108991031081008001051021MA1999999100351MD1999999-0051REMSYN010 333 59005
0114832290999991993011700004-13017-038517FM-12+005199999V0200901N00151220001CN9999999N9+02521+02091101051ADDAA106000091AG14000GF101991011011008001001001KA1240M+03021MA1999999100451MD1999999-0121REMSYN016 333 10302 59012
0114832290999991993011712004-13017-038517FM-12+005199999V0203201N00101220001CN0100001N9+02681+02311101171ADDAA106000091AG14000GF103991031021008001001001KA1240N+02341MA1999999100571MD1999999-0021REMSYN016 333 20234 59002
0095832290999991993011718004-13017-038517FM-12+005199999V0201401N00151220001CN0200001N9+02971+02471100921ADDAA106000091AG14000GF101991011001022501001011MA1999999100341MD1999999-0011REMSYN010 333 59001
0114832290999991993011800004-13017-038517FM-12+005199999V0200901N00101220001CN9999999N9+02581+02311101011ADDAA106000091AG14000GF101991011001017501031001KA1240M+03041MA1999999100411MD1999999-0061REMSYN016 333 10304 59006
0114832290999991993011812004-13017-038517FM-12+005199999V0200501N00261045001CN0100001N9+02721+02281101161ADDAA106000091AG14000GF107991021041008001031001KA1240N+02501MA1999999100561MD1999999-0011REMSYN016 333 20250 59001
0095832290999991993011818004-13017-038517FM-12+005199999V0200501N00151012001CN0040001N9+02881+02411100841ADDAA106000091AG14000GF108991061081008001051001MA1999999100241MD1999999-0101REMSYN010 333 59010
0114832290999991993011900004-13017-038517FM-12+005199999V0200501N00151045001CN9999999N9+02561+02351100951ADDAA106000091AG14000GF105991011011008001051001KA1240M+03041MA1999999100351MD1999999-0061REMSYN016 333 10304 59006
0114832290999991993011912004-13017-038517FM-12+005199999V0200501N00151220001CN0100001N9+02781+02361100981ADDAA106000091AG14000GF104991041021008001051001KA1240N+02481MA1999999100381MD1999999-0181REMSYN016 333 20248 59018
0095832290999991993011918004-13017-038517FM-12+005199999V0200901N001519999999N0040001N9+02811+02401100681ADDAA106000091AG14000GF106991061001008001051001MA1999999100181MD1999999-0061REMSYN010 333 59006
0114832290999991993012000004-13017-038517FM-12+005199999V0200901N00211220001CN9999999N9+02811+02401100881ADDAA106000091AG14000GF103991021011008001021001KA1240M+03031MA1999999100301MD1999999-0051REMSYN016 333 10303 59005
0114832290999991993012012004-13017-038517FM-12+005199999V0200501N00151007501CN0040001N9+02591+02311101051ADDAA106000091AG14000GF108991081051008001999999KA1240N+02511MA1999999100451MD1999999+0071REMSYN016 333 20251 58007
0114832290999991993012013004-13017-038517FM-12+005199999V0200501N00461007501CN0040001N9+02591+02311101051ADDAA106000091AG14999GF108991081051008001999999KA1240N+02511MA1999999100451MD1999999+0071REMSYN016 333 20251 58007
0123832290999991993012018004-13017-038517FM-12+005199999V0201401N00211015001CN0100001N9+02681+02391100691ADDAA106002091AG10003AY161061AY201061GF107991071001017501021001MA1999999100091MD1999999-0091MW1021REMSYN016 333 59009 60021
0114832290999991993012100004-13017-038517FM-12+005199999V0201401N00101220001CN9999999N9+02521+02211100871ADDAA106000091AG14000GF102991021011008001001001KA1240M+02711MA1999999100271MD1999999-0031REMSYN016 333 10271 59003
0120832290999991993012112004-13017-038517FM-12+005199999V0200901N00211007501CN0040001N9+02781+02231101051ADDAA124002091AG10000GF105991051041008001001001KA1240N+02361MA1999999100451MD1999999+0061REMSYN022 333 20236 58006 60024
0095832290999991993012118004-13017-038517FM-12+005199999V0200501N00151105001CN0100001N9+02921+02221100721ADDAA106000091AG14000GF105991011011008001001021MA1999999100121MD1999999+0031REMSYN010 333 58003
0142832290999991993012200004-13017-038517FM-12+005199999V0200501N00151220001CN9999999N9+02561+02231100901ADDAA106000191AG10000AY151061AY201061GF101991011011008001001001KA1240M+03061MA1999999100301MD1999999-0031MW1021REMSYN022 333 10306 59003 69911
0114832290999991993012212004-13017-038517FM-12+005199999V0200901N00261004201CN0040001N9+02681+02241101051ADDAA106000091AG14000GF108991061051004501071999KA1240N+02401MA1999999100451MD1999999+0001REMSYN016 333 20240 58000
0095832290999991993012218004-13017-038517FM-12+005199999V0201401N00411220001CN0200001N9+02921+02341100821ADDAA106000091AG14000GF101991011001017501021001MA1999999100221MD1999999+0101REMSYN010 333 58010
0114832290999991993012300004-13017-038517FM-12+005199999V0201401N00151220001CN9999999N9+02561+02271100951ADDAA106000091AG14000GF103991031011008001001001KA1240M+03101MA1999999100351MD1999999+0051REMSYN016 333 10310 58005
0120832290999991993012312004-13017-038517FM-12+005199999V0201401N00151220001CN0100001N9+02831+02221101171ADDAA124000191AG10000GF104991041021008001001001KA1240N+02401MA1999999100571MD1999999+0121REMSYN022 333 20240 58012 69914
0095832290999991993012318004-13017-038517FM-12+005199999V0200501N00151220001CN0100001N9+02901+02301100921ADDAA106000091AG14000GF101991011011008001001001MA1999999100321MD1999999+0101REMSYN010 333 58010
0114832290999991993012400004-13017-038517FM-12+005199999V0200501N00151220001CN9999999N9+02521+02191100991ADDAA106000091AG14000GF101991011011008001001001KA1240M+03101MA1999999100391MD1999999+0041REMSYN016 333 10310 58004
0114832290999991993012412004-13017-038517FM-12+005199999V0201401N00151220001CN0100001N9+02841+02261101131ADDAA106000091AG14000GF103991031021008001001001KA1240N+02381MA1999999100531MD1999999+0001REMSYN016 333 20238 58000
0095832290999991993012418004-13017-038517FM-12+005199999V0201401N00151220001CN0100001N9+02981+02231100931ADDAA106000091AG14000GF101991011011008001001001MA1999999100331MD1999999+0011REMSYN010 333 58001
0114832290999991993012500004-13017-038517FM-12+005199999V0200901N00151220001CN9999999N9+02501+02071101051ADDAA106000091AG14000GF101991011011008001001001KA1240M+03101MA1999999100451MD1999999+0061REMSYN016 333 10310 58006
0114832290999991993012512004-13017-038517FM-12+005199999V0202301N00151004201CN0100001N9+02621+02211101151ADDAA106000091AG14000GF105991051041004501001001KA1240N+02331MA1999999100571MD1999999+0021REMSYN016 333 20233 58002
0095832290999991993012518004-13017-038517FM-12+005199999V0201401N00151220001CN0500001N9+02811+02401100931ADDAA106000091AG14000GF101991011001022501001011MA1999999100351MD1999999+0021REMSYN010 333 58002
0114832290999991993012600004-13017-038517FM-12+005199999V0201401N00211220001CN9999999N9+02541+02251101101ADDAA106000091AG14000GF101991011011004501001001KA1240M+02901MA1999999100491MD1999999+0041REMSYN016 333 10290 58004
0114832290999991993012612004-13017-038517FM-12+005199999V0201401N00261045001CN0200001N9+02861+02261101261ADDAA106000091AG14000GF106991041031008001041001KA1240N+02461MA1999999100661MD1999999+0091REMSYN016 333 20246 58009
0095832290999991993012618004-13017-038517FM-12+005199999V0201401N00361220001CN0200001N9+03021+02341101071ADDAA106000091AG14000GF102991011031008001031001MA1999999100471MD1999999+0121REMSYN010 333 58012
0130832290999991993012700004-13017-038517FM-12+005199999V0200901N00151220001CN9999999N9+02531+02191101221ADDAA106000091AG14000GA1001+999999999GF100991001001999999001001KA1240M+03101MA1999999100621MD1999999+0171REMSYN016 333 10310 58017
0114832290999991993012712004-13017-038517FM-12+005199999V0201801N00151007501CN0200001N9+02751+02261101291ADDAA106000091AG14000GF107991051051008001001021KA1240N+02371MA1999999100691MD1999999+0031REMSYN016 333 20237 58003
0095832290999991993012718004-13017-038517FM-12+005199999V0201401N00101012001CN0100001N9+02741+02261101151ADDAA106000091AG14000GF108991061081008001051001MA1999999100551MD1999999+0081REMSYN010 333 58008
0114832290999991993012800004-13017-038517FM-12+005199999V0201401N00101220001CN9999999N9+02481+02191101201ADDAA106000091AG14000GF104991041081008001001001KA1240M+02921MA1999999100601MD1999999-0021REMSYN016 333 10292 59002
0114832290999991993012812004-13017-038517FM-12+005199999V0201801N00151105001CN0100001N9+02661+02331101271ADDAA106000091AG14000GF107991041051008001001021KA1240N+02381MA1999999100671MD1999999-0021REMSYN016 333 20238 59002
0095832290999991993012818004-13017-038517FM-12+005199999V0201801N00261220001CN0200001N9+02871+02281101111ADDAA106000091AG14000GF104991021021004501001061MA1999999100531MD1999999-0021REMSYN010 333 59002
0133832290999991993012900004-13017-038517FM-12+005199999V0201401N00151220001CN9999999N9+02571+02171101121ADDAA106000091AG14000GF102991021011004501001001KA1240M+99999MA1999999100571MD1999999-0031REMSYN016 333 10229 59003EQDQ01 +02292ATMX  
0114832290999991993012912004-13017-038517FM-12+005199999V0201401N00051004201CN0040001N9+02741+02281101291ADDAA106000091AG14000GF108991061051004501001051KA1240N+02401MA1999999100691MD1999999+0021REMSYN016 333 20240 58002
0095832290999991993012918004-13017-038517FM-12+005199999V0201401N00261105001CN0100001N9+02781+02361101001ADDAA106000091AG14000GF107991031001017501071051MA1999999100401MD1999999-0131REMSYN010 333 59013
0114832290999991993013000004-13017-038517FM-12+005199999V0201401N00151220001CN9999999N9+02531+02211101021ADDAA106000091AG14000GF101991011011004501001001KA1240M+02951MA1999999100441MD1999999-0131REMSYN016 333 10295 59013
0114832290999991993013012004-13017-038517FM-12+005199999V0201401N00151045001CN0100001N9+02821+02151101191ADDAA106000091AG14000GF106991041051008001031001KA1240N+02401MA1999999100591MD1999999-0101REMSYN016 333 20240 59010
0095832290999991993013018004-13017-038517FM-12+005199999V0201401N00101220001CN0100001N9+02981+02301100841ADDAA106000091AG14000GF101991011011008001001001MA1999999100241MD1999999-0161REMSYN010 333 59016
0114832290999991993013100004-13017-038517FM-12+005199999V0201401N00151220001CN9999999N9+02581+02121100951ADDAA106000091AG14000GF101991011011008001001001KA1240M+03121MA1999999100351MD1999999-0091REMSYN016 333 10312 59009
0114832290999991993013112004-13017-038517FM-12+005199999V0200901N00101007501CN0100001N9+02731+02191101061ADDAA106000091AG14000GF107991071051008001001001KA1240N+02421MA1999999100461MD1999999-0131REMSYN016 333 20242 59013
0095832290999991993013118004-13017-038517FM-12+005199999V0201401N00101220001CN0100001N9+03021+02411100821ADDAA106000091AG14000GF101991011011008001001001MA1999999100221MD1999999-0021REMSYN010 333 59002
0114832290999991993020100004-13017-038517FM-12+005199999V0200901N00151220001CN9999999N9+02561+02171101011ADDAA106000091AG14000GF101991011011008001001001KA1240M+03141MA1999999100411MD1999999+0061REMSYN016 333 10314 58006
0114832290999991993020112004-13017-038517FM-12+005199999V0201401N00151045001CN0200001N9+02801+02291101161ADDAA106000091AG14000GF105991041051004501021001KA1240N+02391MA1999999100561MD1999999+0101REMSYN016 333 20239 58010
0095832290999991993020118004-13017-038517FM-12+005199999V0201801N00261220001CN0500001N9+02971+02401100841ADDAA106000091AG14000GF103991011031008001021011MA1999999100241MD1999999+0021REMSYN010 333 58002
0153832290999991993020212004-13017-038517FM-12+005199999V0200501N00211220001CN0100001N9+02831+02201101241ADDAA124000291AA299000191AG10000AY151061AY221061GF104991021021008001041001KA1240N+02361MA1999999100661MD1999999+0101MW1031REMSYN022 333 20236 58010 69924
0095832290999991993020218004-13017-038517FM-12+005199999V0201801N00311220001CN0500001N9+03021+02411100931ADDAA106000091AG14000GF102991011021008001001011MA1999999100331MD1999999+0091REMSYN010 333 58009
0114832290999991993020300004-13017-038517FM-12+005199999V0201401N00151220001CN9999999N9+02591+02121101111ADDAA106000091AG14000GF101991011021008001001001KA1240M+03141MA1999999100511MD1999999+0011REMSYN016 333 10314 58001
0133832290999991993020312004-13017-038517FM-12+005199999V0201401N00051220001CN0200001N9+02871+02301101111ADDAA106000091AG14000GF104991021021022501001011KA1240N+99999MA1999999100531MD1999999-0131REMSYN016 333 20293 59013EQDQ01 +02932ATMN  
0114832290999991993020400004-13017-038517FM-12+005199999V0201401N00151220001CN9999999N9+02581+02121101051ADDAA106000091AG14000GF101991011011004501001001KA1240M+03151MA1999999100471MD1999999-0041REMSYN016 333 10315 59004
0133832290999991993020412004-13017-038517FM-12+005199999V0201401N00151220001CN0200001N9+02861+02351100991ADDAA106000091AG14000GF104991041041004501001001KA1240N+99999MA1999999100411MD1999999-0121REMSYN016 333 20296 59012EQDQ01 +02962ATMN  
0095832290999991993020418004-13017-038517FM-12+005199999V0200901N00261220001CN0500001N9+03061+02431100831ADDAA106000091AG14000GF102991011031008001001011MA1999999100231MD1999999-0011REMSYN010 333 59001
0114832290999991993020500004-13017-038517FM-12+005199999V0200501N00151220001CN9999999N9+02601+02191101081ADDAA106000091AG14000GF101991011011008001001001KA1240M+03161MA1999999100481MD1999999+0011REMSYN016 333 10316 58001
0114832290999991993020512004-13017-038517FM-12+005199999V0201401N00211004201CN0100001N9+02801+02251101171ADDAA106000091AG14000GF107991071051004501001001KA1240N+02531MA1999999100571MD1999999+0161REMSYN016 333 20253 58016
0114832290999991993020600004-13017-038517FM-12+005199999V0200501N00151220001CN9999999N9+02621+02251101141ADDAA106000091AG14000GF101991011011008001001001KA1240M+03201MA1999999100541MD1999999+0061REMSYN016 333 10320 58006
0114832290999991993020612004-13017-038517FM-12+005199999V0200501N00151220001CN0100001N9+02921+02241101111ADDAA106000091AG14000GF103991031021008001001001KA1240N+02481MA1999999100511MD1999999-0061REMSYN016 333 20248 59006
0095832290999991993020618004-13017-038517FM-12+005199999V0201801N00311220001CN0500001N9+03111+02391100961ADDAA106000091AG14000GF102991011031008001001021MA1999999100361MD1999999+0111REMSYN010 333 58011
0114832290999991993020700004-13017-038517FM-12+005199999V0201401N00151220001CN9999999N9+02621+02251101091ADDAA106000091AG14000GF103991031021008001001001KA1240M+03171MA1999999100491MD1999999-0051REMSYN016 333 10317 59005
0114832290999991993020712004-13017-038517FM-12+005199999V0200901N00151220001CN0200001N9+02941+02211101121ADDAA106000091AG14000GF105991041051008001001011KA1240N+02521MA1999999100521MD1999999+0011REMSYN016 333 20252 58001
0095832290999991993020718004-13017-038517FM-12+005199999V0201401N00411220001CN0500001N9+03081+02351100871ADDAA106000091AG14000GF101991001001999999001011MA1999999100271MD1999999-0091REMSYN010 333 59009
0114832290999991993020800004-13017-038517FM-12+005199999V0200901N00261220001CN9999999N9+02641+02251101021ADDAA106000091AG14000GF101991011021008001001001KA1240M+03241MA1999999100421MD1999999-0071REMSYN016 333 10324 59007
0114832290999991993020812004-13017-038517FM-12+005199999V0200901N00411045001CN0040001N9+02851+02171101181ADDAA106000091AG14000GF105991041051008001031001KA1240N+02491MA1999999100581MD1999999+0061REMSYN016 333 20249 58006
0095832290999991993020818004-13017-038517FM-12+005199999V0201401N00151220001CN0100001N9+02981+02301100981ADDAA106000091AG14000GF104991021081008001001011MA1999999100381MD1999999+0111REMSYN010 333 58011
0114832290999991993020900004-13017-038517FM-12+005199999V0200901N00151220001CN9999999N9+02621+02211101091ADDAA106000091AG14000GF102991021011008001001001KA1240M+03281MA1999999100491MD1999999+0071REMSYN016 333 10328 58007
0114832290999991993020912004-13017-038517FM-12+005199999V0200501N00151007501CN0100001N9+02841+02221101321ADDAA106000091AG14000GF106991061051008001001001KA1240N+02421MA1999999100721MD1999999+0141REMSYN016 333 20242 58014
0095832290999991993020918004-13017-038517FM-12+005199999V0200901N00211220001CN0200001N9+03091+02241100991ADDAA106000091AG14000GF102991011011012501061051MA1999999100391MD1999999+0011REMSYN010 333 58001
0114832290999991993021000004-13017-038517FM-12+005199999V0201401N00151220001CN9999999N9+02621+02301101191ADDAA106000091AG14000GF102991011011012501061061KA1240M+03191MA1999999100591MD1999999+0101REMSYN016 333 10319 58010
0114832290999991993021012004-13017-038517FM-12+005199999V0201401N00211220001CN0200001N9+02961+02231101231ADDAA106000091AG14000GF102991021021008001001001KA1240N+02511MA1999999100631MD1999999-0091REMSYN016 333 20251 59009
0095832290999991993021018004-13017-038517FM-12+005199999V0201401N00361220001CN0500001N9+03101+02341100961ADDAA106000091AG14000GF102991999999008001999999MA1999999100361MD1999999-0031REMSYN010 333 59003
0130832290999991993021100004-13017-038517FM-12+005199999V0201401N00101220001CN9999999N9+02601+02291101041ADDAA106000091AG14000GA1001+999999999GF100991001001999999001001KA1240M+03151MA1999999100441MD1999999-0151REMSYN016 333 10315 59015
0142832290999991993021112004-13017-038517FM-12+005199999V0201401N00101004201CN0040001N9+02681+02411101011ADDAA124002091AG10003AY161061AY201061GF106991051041004501031001KA1240N+02301MA1999999100411MD1999999-0221MW1201REMSYN022 333 20230 59022 60024
0095832290999991993021118004-13017-038517FM-12+005199999V0200501N00151220001CN0040001N9+03011+02341100731ADDAA106000091AG14000GF108991031081008001001011MA1999999100131MD1999999-0231REMSYN010 333 59023
0114832290999991993021200004-13017-038517FM-12+005199999V0200501N00101105001CN9999999N9+02581+02211100841ADDAA106000091AG14000GF105991011011008001001021KA1240M+03141MA1999999100241MD1999999-0201REMSYN016 333 10314 59020
0095832290999991993021212004-13017-038517FM-12+005199999V0201401N00151220001CN0200001N9+02871+02281100931ADDAA124000191AG10000AY151061GF103991021021008001041001MA1999999100331MW1031REMSYN010 333 69914
0095832290999991993021218004-13017-038517FM-12+005199999V0201801N00211220001CN0200001N9+02831+02221100721ADDAA106000091AG14000GF103991021021008001041001MA1999999100121MD1999999-0011REMSYN010 333 59001
0114832290999991993021300004-13017-038517FM-12+005199999V0201401N00151220001CN9999999N9+02641+02231100841ADDAA106000091AG14000GF103991021021008001031001KA1240M+03111MA1999999100241MD1999999+0001REMSYN016 333 10311 58000
0114832290999991993021312004-13017-038517FM-12+005199999V0201401N00211220001CN0200001N9+02951+02241100861ADDAA106000091AG14000GF102991021021008001041001KA1240N+02561MA1999999100261MD1999999-0071REMSYN016 333 20256 59007
0095832290999991993021318004-13017-038517FM-12+005199999V0201401N00151220001CN0100001N9+03041+02431100591ADDAA106000091AG14000GF101991011011008001001001MA1999999099991MD1999999-0131REMSYN010 333 59013
0114832290999991993021400004-13017-038517FM-12+005199999V0200501N00151220001CN9999999N9+02641+02231100801ADDAA106000091AG14000GF103991031021008001001001KA1240M+03161MA1999999100201MD1999999-0091REMSYN016 333 10316 59009
0114832290999991993021412004-13017-038517FM-12+005199999V0200501N00151045001CN0040001N9+02581+02211100951ADDAA106000091AG14000GF108991041081008001051001KA1240N+02481MA1999999100351MD1999999+0091REMSYN016 333 20248 58009
0095832290999991993021418004-13017-038517FM-12+005199999V0200901N00151105001CN0100001N9+02901+02321100821ADDAA106000091AG14000GF106991041011008001001021MA1999999100221MD1999999+0231REMSYN010 333 58023
0114832290999991993021500004-13017-038517FM-12+005199999V0200501N00101220001CN9999999N9+02621+02251100831ADDAA106000091AG14000GF101991011011008001001001KA1240M+03121MA1999999100231MD1999999+0031REMSYN016 333 10312 58003
0114832290999991993021512004-13017-038517FM-12+005199999V0201401N00151220001CN0100001N9+02921+02241100911ADDAA106000091AG14000GF103991031021008001001001KA1240N+02501MA1999999100311MD1999999-0041REMSYN016 333 20250 59004
0095832290999991993021518004-13017-038517FM-12+005199999V0201401N00151220001CN0200001N9+03071+02171100701ADDAA106000091AG14000GF102991011011008001001051MA1999999100101MD1999999-0121REMSYN010 333 59012
0114832290999991993021600004-13017-038517FM-12+005199999V0201401N00151220001CN9999999N9+02581+02121100791ADDAA106000091AG14000GF101991011011008001001001KA1240M+03131MA1999999100191MD1999999-0041REMSYN016 333 10313 59004
0114832290999991993021612004-13017-038517FM-12+005199999V0201801N00151220001CN0200001N9+02921+02221100891ADDAA106000091AG14000GF102991021021008001001001KA1240N+02511MA1999999100291MD1999999-0021REMSYN016 333 20251 59002
0095832290999991993021618004-13017-038517FM-12+005199999V0201401N00151220001CN0200001N9+02961+02311100641ADDAA106000091AG14000GF102991011021008001041061MA1999999100041MD1999999-0061REMSYN010 333 59006
0114832290999991993021700004-13017-038517FM-12+005199999V0201401N00101220001CN9999999N9+02581+02251100791ADDAA106000091AG14000GF102991021021008001001001KA1240M+03151MA1999999100191MD1999999+0001REMSYN016 333 10315 58000
0128832290999991993021712004-13017-038517FM-12+005199999V0201401N00151220001CN0200001N9+02981+02301100841ADDAA106000091AG14009AY191061GF103991021031008001041011KA1240N+02471MA1999999100241MD1999999-0051MW1031REMSYN016 333 20247 59005
0095832290999991993021718004-13017-038517FM-12+005199999V0201401N00151045001CN0100001N9+03041+02431100701ADDAA106000091AG14000GF106991031021008001051001MA1999999100101MD1999999+0061REMSYN010 333 58006
0131832290999991993021800004-13017-038517FM-12+005199999V0201401N00151045001CN9999999N9+02521+02191100851ADDAA106000291AA299000191AG10000GF105991031021008001051001KA1240M+03221MA1999999100251MD1999999+0061REMSYN022 333 10322 58006 69921
0131832290999991993021812004-13017-038517FM-12+005199999V0201401N00151007501CN0040001N9+02841+02291100901ADDAA124000291AA299000191AG10000GF108991081051008001001001KA1240N+02461MA1999999100301MD1999999+0061REMSYN022 333 20246 58006 69924
0095832290999991993021818004-13017-038517FM-12+005199999V0201401N00151045001CN0100001N9+03081+02401100681ADDAA106000091AG14000GF106991021011008001031011MA1999999100081MD1999999-0021REMSYN010 333 59002
0114832290999991993021900004-13017-038517FM-12+005199999V0201401N00151220001CN9999999N9+02601+02231100921ADDAA106000091AG14000GF104991041021008001001001KA1240M+03161MA1999999100321MD1999999+0071REMSYN016 333 10316 58007
0142832290999991993021912004-13017-038517FM-12+005199999V0201401N00151007501CN0020001N9+02661+02391101061ADDAA124000191AG10000AY151061AY221061GF108991081071008001001001KA1240N+02481MA1999999100461MD1999999+0091MW1021REMSYN022 333 20248 58009 69914
0134832290999991993021918004-13017-038517FM-12+005199999V0200501N00101045001CN0200001N9+02481+02191999999ADDAA106000291AA299000191AG10009AY191061AY251061GF107991011021008001021001MA1999999100271MD1999999+0191MW1031REMSYN016 333 58019 69921
0114832290999991993022000004-13017-038517FM-12+005199999V0209991C00001220001CN9999999N9+02461+02171101091ADDAA106000091AG14000GF102991021021008001001001KA1240M+02771MA1999999100491MD1999999+0171REMSYN016 333 10277 58017
0103832290999991993022012004-13017-038517FM-12+005199999V0202301N00151045001CN0100001N9+02701+02261101321ADDAG12000GF105991041031004501041061KA1240N+02461MA1999999100721MD1999999+0261REMSYN016 333 20246 58026
0095832290999991993022018004-13017-038517FM-12+005199999V0201801N00261220001CN0200001N9+02781+02401101051ADDAA106000091AG14000GF104991021021008001041061MA1999999100451MD1999999+0181REMSYN010 333 58018
0130832290999991993022100004-13017-038517FM-12+005199999V0201401N00151220001CN9999999N9+02541+02211101201ADDAA106000091AG14000GA1001+999999999GF100991001001999999001001KA1240M+02961MA1999999100601MD1999999+0111REMSYN016 333 10296 58011
0114832290999991993022112004-13017-038517FM-12+005199999V0201401N00151220001CN0200001N9+02941+02261101281ADDAA106000091AG14000GF102991021021008001001001KA1240N+02501MA1999999100681MD1999999-0041REMSYN016 333 20250 59004
0095832290999991993022118004-13017-038517FM-12+005199999V0201401N00211220001CN0200001N9+03101+02231101111ADDAA106000091AG14000GF102991011021008001041001MA1999999100511MD1999999+0061REMSYN010 333 58006
0155832290999991993022200004-13017-038517FM-12+005199999V0201401N00261220001CN9999999N9+02621+02211101221ADDAA106000091AG14000GA1031+010809029GF199999011001008001041001KA1240M+03171MA1999999100611MD1999999+0011REMSYN022 333 10317 58001 83236EQDQ01+000012SCOTCV
0114832290999991993022212004-13017-038517FM-12+005199999V0201401N00151220001CN0200001N9+02961+02261101321ADDAA106000091AG14000GF102991021021008001001001KA1240N+02491MA1999999100721MD1999999+0041REMSYN016 333 20249 58004
0095832290999991993022218004-13017-038517FM-12+005199999V0201401N00151220001CN0100001N9+03001+02321100921ADDAA106000091AG14000GF101991011011008001001001MA1999999100321MD1999999-0191REMSYN010 333 59019
0114832290999991993022300004-13017-038517FM-12+005199999V0200501N00151220001CN9999999N9+02601+02211101041ADDAA106000091AG14000GF102991021011008001001001KA1240M+03181MA1999999100441MD1999999-0171REMSYN016 333 10318 59017
0147832290999991993022312004-13017-038517FM-12+005199999V0201401N00151220001CN0100001N9+02241+02131101191ADDAA106000091AA224002091AG10003GF103991999051008001071041MA1999999999999MD1999999-0171REMSYN016 333 59017 60024EQDQ01+000042SCOTLCQ02 096263APOSP 
0130832290999991993022318004-13017-038517FM-12+005199999V0201401N001519999999N0100001N9+03001+02321100861ADDAA106000091AG14000GF107991999021008001001001MA1999999100262MD1999999-0061REMSYN010 333 59006EQDQ01+000042SCOTLCQ02+100263APOSP 
0114832290999991993022400004-13017-038517FM-12+005199999V0200901N00151220001CN9999999N9+02601+02191100841ADDAA106000091AG14000GF101991011011008001001001KA1240M+03181MA1999999100241MD1999999-0201REMSYN016 333 10318 59020
0114832290999991993022412004-13017-038517FM-12+005199999V0200501N00101007501CN9999999N9+02801+02251100981ADDAA106000091AG14000GF106991061021008001001001KA1240N+02481MA1999999100381MD1999999-0021REMSYN016 333 20248 59002
0114832290999991993022600004-13017-038517FM-12+005199999V0201401N00151220001CN9999999N9+02601+02141100881ADDAA106000091AG14000GF101991011001999999041001KA1240M+03131MA1999999100281MD1999999+0051REMSYN016 333 10313 58005
0114832290999991993022612004-13017-038517FM-12+005199999V0201401N00151220001CN0200001N9+02941+02191101051ADDAA106000091AG14000GF102991021021008001001001KA1240N+02511MA1999999100451MD1999999+0141REMSYN016 333 20251 58014
0123832290999991993022618004-13017-038517FM-12+005199999V0201401N00211045001CN0200001N9+02751+02121100831ADDAA106002091AG10003AY161061AY251061GF106991021021008001021001MA1999999100231MD1999999+0061MW1031REMSYN016 333 58006 60021
0114832290999991993022700004-13017-038517FM-12+005199999V0201401N00151220001CN9999999N9+02581+02251100901ADDAA106000091AG14000GF102991011021008001041001KA1240M+03121MA1999999100301MD1999999+0021REMSYN016 333 10312 58002
0134832290999991993022712004-13017-038517FM-12+005199999V0200901N00151007501CN0040001N9+02791+02341101161ADDAA124003091AG10000AY151061GF106991051031008001061001KA1240N+02521MA1999999100561MD1999999+0111MW1031REMSYN022 333 20252 58011 60034
0134832290999991993022718004-13017-038517FM-12+005199999V0200501N00151220001CN0100001N9+03081+02371100881ADDAA106000491AA299000591AG10000AY151061AY201061GF101991011011008001001001MA1999999100281MD1999999+0051MW1021REMSYN016 333 58005 69941
0114832290999991993022800004-13017-038517FM-12+005199999V0201401N00151220001CN9999999N9+02621+02231100931ADDAA106000091AG14000GF102991021011008001001001KA1240M+03151MA1999999100331MD1999999+0031REMSYN016 333 10315 58003
0131832290999991993022812004-13017-038517FM-12+005199999V0201401N00151220001CN0100001N9+02921+02341101131ADDAA124000491AA299000591AG10000GF103991031021008001001001KA1240N+02501MA1999999100531MD1999999-0031REMSYN022 333 20250 59003 69944
0095832290999991993022818004-13017-038517FM-12+005199999V0201401N00151220001CN0100001N9+03021+02391100811ADDAA106000091AG14000GF101991011011008001001001MA1999999100211MD1999999-0071REMSYN010 333 59007
0114832290999991993030100004-13017-038517FM-12+005199999V0200501N00151220001CN9999999N9+02621+02251100811ADDAA106000091AG14000GF101991011011008001001001KA1240M+03161MA1999999100211MD1999999-0121REMSYN016 333 10316 59012
0114832290999991993030112004-13017-038517FM-12+005199999V0201401N00151220001CN0200001N9+02941+02211100871ADDAA106000091AG14000GF103991021021008001041001KA1240N+02531MA1999999100271MD1999999-0261REMSYN016 333 20253 59026
0123832290999991993030118004-13017-038517FM-12+005199999V0201401N00211220001CN0200001N9+03061+02221100661ADDAA106000191AG10000AY151061AY201061GF102991011021008001041001MA1999999100061MD1999999-0151MW1011REMSYN016 333 59015 69911
0114832290999991993030200004-13017-038517FM-12+005199999V0201401N00151220001CN9999999N9+02641+02231100761ADDAA106000091AG14000GF103991031011008001001001KA1240M+03161MA1999999100161MD1999999-0051REMSYN016 333 10316 59005
0120832290999991993030212004-13017-038517FM-12+005199999V0201401N00151220001CN0100001N9+02881+02251100981ADDAA124000191AG10000GF104991041051008001001001KA1240N+02501MA1999999100381MD1999999+0111REMSYN022 333 20250 58011 69914
0095832290999991993030218004-13017-038517FM-12+005199999V0201401N00361220001CN0500001N9+03131+02251100821ADDAA106000091AG14000GF101991011031008001001001MA1999999100221MD1999999+0161REMSYN010 333 58016
0134832290999991993030312004-13017-038517FM-12+005199999V0201401N00211220001CN0200001N9+02971+02181101301ADDAA124000391AG10000AY151061GF103991021021008001041001KA1240N+02471MA1999999100701MD1999999+0321MW1031REMSYN022 333 20247 58032 69934
0095832290999991993030318004-13017-038517FM-12+005199999V0201401N00311220001CN0200001N9+03081+02211101081ADDAA106000091AG14000GF102991021021008001041001MA1999999100481MD1999999+0261REMSYN010 333 58026
0114832290999991993030400004-13017-038517FM-12+005199999V0201801N00311220001CN9999999N9+02621+02391101131ADDAA106000091AG14000GF103991031051004501001001KA1240M+03181MA1999999100531MD1999999+0091REMSYN016 333 10318 58009
0114832290999991993030412004-13017-038517FM-12+005199999V0201801N00151004201CN0040001N9+02641+02181101241ADDAA106000091AG14000GF107991061051004501001021KA1240N+02501MA1999999100641MD1999999-0061REMSYN016 333 20250 59006
0095832290999991993030418004-13017-038517FM-12+005199999V0201801N00261045001CN0100001N9+02791+02341101011ADDAA106000091AG14000GF106991011031008001041001MA1999999100411MD1999999-0071REMSYN010 333 59007
0114832290999991993030500004-13017-038517FM-12+005199999V0201401N00151009001CN9999999N9+02641+02231101131ADDAA106000091AG14000GF107991071081004501001001KA1240M+03001MA1999999100551MD1999999-0021REMSYN016 333 10300 59002
0114832290999991993030512004-13017-038517FM-12+005199999V0201401N00311220001CN0200001N9+02981+02151101161ADDAA106000091AG14000GF104991041031004501001001KA1240N+02501MA1999999100561MD1999999-0081REMSYN016 333 20250 59008
0095832290999991993030518004-13017-038517FM-12+005199999V0201401N00211220001CN0200001N9+03041+02121100971ADDAA106000091AG14000GF102991011021008001041001MA1999999100371MD1999999-0041REMSYN010 333 59004
0114832290999991993030600004-13017-038517FM-12+005199999V0201401N00261220001CN9999999N9+02661+02161101221ADDAA106000091AG14000GF102991021021008001041001KA1240M+03171MA1999999100621MD1999999+0071REMSYN016 333 10317 58007
0134832290999991993030612004-13017-038517FM-12+005199999V0201401N00101004201CN0100001N9+02491+02321101271ADDAA124006091AG10000AY151061GF106991061031004501001001KA1240N+02411MA1999999100671MD1999999+0111MW1211REMSYN022 333 20241 58011 60064
0142832290999991993030618004-13017-038517FM-12+005199999V0201401N00411220001CN0200001N9+03011+02341100961ADDAA106000191AG10000AY151061AY211061GF101991001001999999001011MA1999999100381MD1999999+0011MW1031REMSYN016 333 58001 69911EQDQ01+000982SCOLCB
0114832290999991993030700004-13017-038517FM-12+005199999V0201401N00211220001CN9999999N9+02601+02231101221ADDAA106000091AG14000GF103991021021008001031001KA1240M+03071MA1999999100621MD1999999+0001REMSYN016 333 10307 58000
0120832290999991993030712004-13017-038517FM-12+005199999V0201401N00151220001CN0200001N9+02991+02321101301ADDAA124000191AG10000GF102991021021004501001001KA1240N+02431MA1999999100711MD1999999+0041REMSYN022 333 20243 58004 69914
0095832290999991993030718004-13017-038517FM-12+005199999V0201801N00261220001CN0200001N9+03041+02521101031ADDAA106000091AG14000GF102991021021004501001001MA1999999100451MD1999999+0111REMSYN010 333 58011
0114832290999991993030800004-13017-038517FM-12+005199999V0201401N00261220001CN9999999N9+02641+02231101141ADDAA106000091AG14000GF102991021031004501001001KA1240M+03151MA1999999100561MD1999999-0061REMSYN016 333 10315 59006
0114832290999991993030812004-13017-038517FM-12+005199999V0201801N00051220001CN0200001N9+02871+02211101261ADDAA106000091AG14000GF102991021021004501001001KA1240N+02471MA1999999100681MD1999999+0031REMSYN016 333 20247 58003
0095832290999991993030818004-13017-038517FM-12+005199999V0201401N00211220001CN0200001N9+03051+02201100971ADDAA106000091AG14000GF102991021021008001001001MA1999999100371MD1999999-0081REMSYN010 333 59008
0130832290999991993030900004-13017-038517FM-12+005199999V0201401N00261220001CN9999999N9+02601+02121101081ADDAA106000091AG14000GA1001+999999999GF100991001001999999001001KA1240M+03161MA1999999100481MD1999999-0081REMSYN016 333 10316 59008
0114832290999991993030912004-13017-038517FM-12+005199999V0200501N00051220001CN0200001N9+02811+02151101161ADDAA106000091AG14000GF103991031021008001001001KA1240N+02481MA1999999100561MD1999999-0121REMSYN016 333 20248 59012
0111832290999991993030918004-13017-038517FM-12+005199999V0201401N00151220001CN0200001N9+03071+02341100851ADDAA106000091AG14000GA1001+999999999GF100991001001999999001001MA1999999100271MD1999999-0101REMSYN010 333 59010
0114832290999991993031000004-13017-038517FM-12+005199999V0201401N00261220001CN9999999N9+02661+02311100931ADDAA106000091AG14000GF101991011021008001001001KA1240M+03121MA1999999100331MD1999999-0151REMSYN016 333 10312 59015
0114832290999991993031012004-13017-038517FM-12+005199999V0200501N00101220001CN0100001N9+02821+02101101101ADDAA106000091AG14000GF104991041051004501001001KA1240N+02441MA1999999100501MD1999999-0061REMSYN016 333 20244 59006
0095832290999991993031018004-13017-038517FM-12+005199999V0201401N00311220001CN0500001N9+03021+02241100861ADDAA106000091AG14000GF101991011021008001001001MA1999999100261MD1999999-0011REMSYN010 333 59001
0130832290999991993031100004-13017-038517FM-12+005199999V0201401N00151220001CN9999999N9+02621+02161100991ADDAA106000091AG14000GA1001+999999999GF100991001001999999001001KA1240M+03151MA1999999100411MD1999999-0091REMSYN016 333 10315 59009
0114832290999991993031112004-13017-038517FM-12+005199999V0200901N00151220001CN0100001N9+02861+02161101131ADDAA106000091AG14000GF103991031021004501001001KA1240N+02431MA1999999100551MD1999999+0051REMSYN016 333 20243 58005
0095832290999991993031118004-13017-038517FM-12+005199999V0201401N00261220001CN0200001N9+03041+02091100961ADDAA106000091AG14000GF101991011021008001001001MA1999999100361MD1999999+0101REMSYN010 333 58010
0114832290999991993031200004-13017-038517FM-12+005199999V0201401N00151220001CN9999999N9+02611+02061101201ADDAA106000091AG14000GF101991011001999999041001KA1240M+03201MA1999999100601MD1999999+0191REMSYN016 333 10320 58019
0114832290999991993031212004-13017-038517FM-12+005199999V0200501N00151220001CN0200001N9+02851+01701101261ADDAA106000091AG14000GF102991011021008001041001KA1240N+02491MA1999999100661MD1999999+0111REMSYN016 333 20249 58011
0111832290999991993031218004-13017-038517FM-12+005199999V0201401N00311220001CN0500001N9+03041+02181100881ADDAA106000091AG14000GA1001+999999999GF100991001001999999001001MA1999999100281MD1999999-0081REMSYN010 333 59008
0114832290999991993031300004-13017-038517FM-12+005199999V0201401N00151220001CN9999999N9+02581+02311101011ADDAA106000091AG14000GF102991021021004501001001KA1240M+03161MA1999999100431MD1999999-0171REMSYN016 333 10316 59017
0114832290999991993031312004-13017-038517FM-12+005199999V0201801N00151220001CN0200001N9+02801+02221101231ADDAA106000091AG14000GF104991041051004501001001KA1240N+02541MA1999999100631MD1999999-0031REMSYN016 333 20254 59003
0123832290999991993031318004-13017-038517FM-12+005199999V0201401N00261220001CN0200001N9+02961+02211100921ADDAA106002091AG10003AY161061AY201061GF102991021021008001001001MA1999999100321MD1999999+0041MW1021REMSYN016 333 58004 60021
0114832290999991993031400004-13017-038517FM-12+005199999V0201401N00211220001CN9999999N9+02581+02151101011ADDAA106000091AG14000GF101991011001999999041001KA1240M+03101MA1999999100411MD1999999-0021REMSYN016 333 10310 59002
0120832290999991993031412004-13017-038517FM-12+005199999V0201401N00151220001CN0200001N9+02721+02061101121ADDAA124002091AG10000GF102991021021008001001001KA1240N+02561MA1999999100521MD1999999-0111REMSYN022 333 20256 59011 60024
0095832290999991993031418004-13017-038517FM-12+005199999V0201401N00211220001CN0200001N9+02981+02231100841ADDAA106000091AG14000GF101991011021008001001001MA1999999100241MD1999999-0081REMSYN010 333 59008
0114832290999991993031500004-13017-038517FM-12+005199999V0201401N00211220001CN9999999N9+02581+02251100951ADDAA106000091AG14000GF101991011001999999041001KA1240M+03091MA1999999100351MD1999999-0061REMSYN016 333 10309 59006
0114832290999991993031512004-13017-038517FM-12+005199999V0200901N00151220001CN0200001N9+02881+02161101021ADDAA106000091AG14000GF103991021021008001001041KA1240N+02401MA1999999100421MD1999999-0101REMSYN016 333 20240 59010
0114832290999991993031518004-13017-038517FM-12+005199999V0201401N003619999999N0200001N9+03001+02441100761ADDAA106000091AG14000GF107991999001022501011999MA1999999100181MD1999999-0061REMSYN010 333 59006EQDQ01+000002SCOTLC
0130832290999991993031600004-13017-038517FM-12+005199999V0201401N00261220001CN9999999N9+02651+02561100811ADDAA106000091AG14000GA1001+999999999GF100991001001999999001001KA1240M+03151MA1999999100231MD1999999-0121REMSYN016 333 10315 59012
0114832290999991993031612004-13017-038517FM-12+005199999V0201801N00311004201CN0100001N9+02961+02251100981ADDAA106000091AG14000GF105991051031004501001001KA1240N+02511MA1999999100401MD1999999-0021REMSYN016 333 20251 59002
0111832290999991993031618004-13017-038517FM-12+005199999V0201401N00461220001CN0500001N9+03021+02311100731ADDAA106000091AG14000GA1001+999999999GF100991001001999999001001MA1999999100131MD1999999-0051REMSYN010 333 59005
0149832290999991993031700004-13017-038517FM-12+005199999V0201401N00051220001CN9999999N9+02621+02271100971ADDAA106000091AG14000GA1001+999999999GF100991001001999999001001KA1240M+99999MA1999999100391MD1999999-0011REMSYN016 333 10244 59001EQDQ01 +02442ATMX  
0101832290999991993031712004-13017-038517FM-12+005199999V0201401N00151220001CN0200001N9+02981+02301101071ADDAA106000091AG14000GF104991041051004501001001MA1999999100471MD1999999+0071REMSYN016 333 20/// 58007
0095832290999991993031718004-13017-038517FM-12+005199999V0201401N00311220001CN0500001N9+03171+02421100821ADDAA106000091AG14000GF101991011031008001001001MA1999999100221MD1999999+0091REMSYN010 333 58009
0114832290999991993031800004-13017-038517FM-12+005199999V0201401N00261220001CN9999999N9+02681+02211100871ADDAA106000091AG14000GF101991011011002501001001KA1240M+02691MA1999999100291MD1999999-0101REMSYN016 333 10269 59010
0114832290999991993031812004-13017-038517FM-12+005199999V0201801N00151220001CN0500001N9+03021+02571101211ADDAA106000091AG14000GF103991031031002501001001KA1240N+02501MA1999999100931MD1999999+0461REMSYN016 333 20250 58046
0095832290999991993031818004-13017-038517FM-12+005199999V0201801N00361220001CN0500001N9+03161+02471100931ADDAA106000091AG14000GF101991011021008001001001MA1999999100331MD1999999+0111REMSYN010 333 58011
0133832290999991993031900004-13017-038517FM-12+005199999V0201401N00151220001CN9999999N9+02651+02241101131ADDAA106000091AG14000GF103991999011004501001001KA1240M+03221MA1999999100501MD1999999+0211REMSYN016 333 10322 58021EQDQ01+000022SCOTLC
0114832290999991993031912004-13017-038517FM-12+005199999V0201401N00101220001CN0500001N9+02841+02261101211ADDAA106000091AG14000GF104991041051004501001001KA1240N+02521MA1999999100611MD1999999-0021REMSYN016 333 20252 59002
0111832290999991993031918004-13017-038517FM-12+005199999V0201801N00211220001CN0500001N9+03051+02231100841ADDAA106000091AG14000GA1001+999999999GF100991001001999999001001MA1999999100241MD1999999-0091REMSYN010 333 59009
0130832290999991993032000004-13017-038517FM-12+005199999V0201401N00151220001CN9999999N9+02631+02201101011ADDAA106000091AG14000GA1001+999999999GF100991001001999999001001KA1240M+03131MA1999999100431MD1999999-0071REMSYN016 333 10313 59007
0114832290999991993032012004-13017-038517FM-12+005199999V0201401N00151220001CN0100001N9+02721+02391101121ADDAA106000091AG14000GF104991041041002501001001KA1240N+02431MA1999999100541MD1999999-0071REMSYN016 333 20243 59007
0111832290999991993032018004-13017-038517FM-12+005199999V0201401N00261220001CN0500001N9+03061+02191100811ADDAA106000091AG14000GA1001+999999999GF100991001001999999001001MA1999999100211MD1999999-0031REMSYN010 333 59003
0130832290999991993032100004-13017-038517FM-12+005199999V0201401N00311220001CN9999999N9+02651+02331101011ADDAA106000091AG14000GA1001+999999999GF100991001001999999001001KA1240M+03191MA1999999100411MD1999999-0021REMSYN016 333 10319 59002
0114832290999991993032112004-13017-038517FM-12+005199999V0202301N00101004201CN0040001N9+02791+02271101221ADDAA106000091AG14000GF106991061051004501001001KA1240N+02441MA1999999100621MD1999999+0081REMSYN016 333 20244 58008
0095832290999991993032118004-13017-038517FM-12+005199999V0201401N00261220001CN0500001N9+03061+02081100941ADDAA106000091AG14000GF102991011031008001001021MA1999999100341MD1999999+0131REMSYN010 333 58013
0114832290999991993032200004-13017-038517FM-12+005199999V0201401N00151220001CN9999999N9+02651+02161101181ADDAA106000091AG14000GF104991041051004501001001KA1240M+03191MA1999999100581MD1999999+0171REMSYN016 333 10319 58017
0114832290999991993032212004-13017-038517FM-12+005199999V0201401N00211220001CN0500001N9+02971+02131101261ADDAA106000091AG14000GF102991021031004501001001KA1240N+02471MA1999999100661MD1999999+0041REMSYN016 333 20247 58004
0095832290999991993032218004-13017-038517FM-12+005199999V0201401N00151220001CN0200001N9+03071+02271101011ADDAA106000091AG14000GF103991021021008001041001MA1999999100431MD1999999-0191REMSYN010 333 59019
0114832290999991993032300004-13017-038517FM-12+005199999V0201801N00311220001CN9999999N9+02581+02081101191ADDAA106000091AG14000GF101991001001999999001011KA1240M+03141MA1999999100651MD1999999+0031REMSYN016 333 10314 58003
0095832290999991993032318004-13017-038517FM-12+005199999V0201401N00151220001CN0200001N9+02871+02191101011ADDAA106000091AG14000GF101991011021008001001001MA1999999100411MD1999999-0021REMSYN010 333 59002
0145832290999991993032412004-13017-038517FM-12+005199999V0202301N00211220001CN0200001N9+02681+02331101181ADDAA124000491AA299000591AG10000AY151061GF102991021021008001041001KA1240N+02401MA1999999100581MD1999999-0061MW1031REMSYN022 333 20240 59006 69944
0117832290999991993032418004-13017-038517FM-12+005199999V0201801N00311007501CN0040001N9+02771+02211100821ADDAA106000091AG10000AY111061AY221061GF107991071021008001001001MA1999999100241MD1999999-0171MW1051REMSYN010 333 59017
0114832290999991993032500004-13017-038517FM-12+005199999V0209999999999220001CN9999999N9+02631+02311100931ADDAA106000091AG14000GF101991011021004501001001KA1240M+03001MA1999999100351MD1999999-0121REMSYN016 333 10300 59012
0095832290999991993032518004-13017-038517FM-12+005199999V0201801N00101220001CN0100001N9+03061+02381100791ADDAA106000091AG14000GF101991011011008001001001MA1999999100191MD1999999-0051REMSYN010 333 59005
0114832290999991993032600004-13017-038517FM-12+005199999V0201401N00151220001CN9999999N9+02641+02071100881ADDAA106000091AG14000GF101991011011008001001001KA1240M+03141MA1999999100281MD1999999-0071REMSYN016 333 10314 59007
0114832290999991993032612004-13017-038517FM-12+005199999V0201401N00151220001CN0100001N9+02821+02241101051ADDAA106000091AG14000GF104991041021008001001001KA1240N+02481MA1999999100451MD1999999+0051REMSYN016 333 20248 58005
0114832290999991993032712004-13017-038517FM-12+005199999V0201801N00101220001CN0200001N9+02831+02051100951ADDAA106000091AG14000GF102991021041002501001001KA1240N+02421MA1999999100371MD1999999-0081REMSYN016 333 20242 59008
0095832290999991993032718004-13017-038517FM-12+005199999V0201401N00211220001CN0200001N9+03011+02051100711ADDAA106000091AG14000GF102991011021008001001011MA1999999100111MD1999999+0081REMSYN010 333 58008
0114832290999991993032800004-13017-038517FM-12+005199999V0201401N00211220001CN9999999N9+02621+02161100861ADDAA106000091AG14000GF101991011021008001001001KA1240M+03161MA1999999100261MD1999999+0001REMSYN016 333 10316 58000
0114832290999991993032812004-13017-038517FM-12+005199999V0201801N00101220001CN0200001N9+02661+02331100971ADDAA106000091AG14000GF102991021031008001001001KA1240N+02501MA1999999100371MD1999999+0001REMSYN016 333 20250 58000
0095832290999991993032818004-13017-038517FM-12+005199999V0200901N00101220001CN0100001N9+03001+02341100721ADDAA106000091AG14000GF101991011011008001001001MA1999999100121MD1999999+0011REMSYN010 333 58001
0142832290999991993032912004-13017-038517FM-12+005199999V0200501N00101007501CN0020001N9+02661+02611101041ADDAA124004091AG10000AY121061AY201061GF107991071051008001001001KA1240N+02501MA1999999100441MD1999999+0071MW1611REMSYN022 333 20250 58007 60044
0114832290999991993032918004-13017-038517FM-12+005199999V0201401N00311220001CN0200001N9+03071+02581100751ADDAA106000091AG14000GF102991001001999999001021MA1999999100171MD1999999+0051REMSYN010 333 58005EQDQ01+000982SCOLCB
0114832290999991993033000004-13017-038517FM-12+005199999V0200901N00151220001CN9999999N9+02681+02281100831ADDAA106000091AG14000GF102991021011002501001001KA1240M+03191MA1999999100251MD1999999-0081REMSYN016 333 10319 59008
0114832290999991993033012004-13017-038517FM-12+005199999V0209991C00001004201CN0040001N9+02851+02241101041ADDAA106000091AG14000GF105991051051004501001001KA1240N+02471MA1999999100461MD1999999+0021REMSYN016 333 20247 58002
0114832290999991993033018004-13017-038517FM-12+005199999V0201401N00151220001CN0200001N9+03051+02361100731ADDAA106000091AG14000GF103991001001999999001011MA1999999100151MD1999999-0021REMSYN010 333 59002EQDQ01+000982SCOLCB
0130832290999991993033100004-13017-038517FM-12+005199999V0201401N00151220001CN9999999N9+02651+02201100771ADDAA106000091AG14000GA1001+999999999GF100991001001999999001001KA1240M+03211MA1999999100271MD1999999+0021REMSYN016 333 10321 58002
0114832290999991993033112004-13017-038517FM-12+005199999V0201401N00211004201CN0040001N9+02801+02251101011ADDAA106000091AG14000GF107991061051004501001021KA1240N+02501MA1999999100411MD1999999-0051REMSYN016 333 20250 59005
0130832290999991993040100004-13017-038517FM-12+005199999V0201401N00101220001CN9999999N9+02671+02481100681ADDAA106000091AG14000GA1001+999999999GF100991001001999999001001KA1240M+03141MA1999999100101MD1999999-0171REMSYN016 333 10314 59017
0114832290999991993040112004-13017-038517FM-12+005199999V0203201N00151002101CN0040001N9+02801+02441100901ADDAA106000091AG14000GF106991061051002501001001KA1240N+02501MA1999999100321MD1999999+0281REMSYN016 333 20250 58028
0095832290999991993040118004-13017-038517FM-12+005199999V0201401N00211220001CN0200001N9+03001+02391100591ADDAA106000091AG14000GF102991011021008001001011MA1999999099991MD1999999-0051REMSYN010 333 59005
0114832290999991993040200004-13017-038517FM-12+005199999V0200901N00211220001CN9999999N9+02671+02331100781ADDAA106000091AG14000GF101991011011012501001001KA1240M+03141MA1999999100181MD1999999+0081REMSYN016 333 10314 58008
0114832290999991993040212004-13017-038517FM-12+005199999V0200501N00151220001CN0100001N9+02881+02231100861ADDAA106000091AG14000GF103991021021008001061001KA1240N+02521MA1999999100261MD1999999-0061REMSYN016 333 20252 59006
0095832290999991993040218004-13017-038517FM-12+005199999V0201401N00151220001CN0100001N9+03041+02381100511ADDAA106000091AG14000GF101991011011008001001001MA1999999099911MD1999999-0081REMSYN010 333 59008
0114832290999991993040300004-13017-038517FM-12+005199999V0200501N00151220001CN9999999N9+02681+02331100761ADDAA106000091AG14000GF101991011011008001001001KA1240M+03281MA1999999100661MD1999999-0021REMSYN016 333 10328 59002
0114832290999991993040312004-13017-038517FM-12+005199999V0203201N00151220001CN0100001N9+02801+02381100761ADDAA106000091AG14000GF104991041021008001001001KA1240N+02501MA1999999100161MD1999999-0101REMSYN016 333 20250 59010
0114832290999991993040318004-13017-038517FM-12+005199999V0201801N00151220001CN0200001N9+03091+02461100211ADDAA106000091AG14000GF101991001001999999001011MA1999999099631MD1999999-0281REMSYN010 333 59028EQDQ01+000982SCOLCB
0130832290999991993040400004-13017-038517FM-12+005199999V0201401N00211220001CN9999999N9+02671+02241100591ADDAA106000091AG14000GA1001+999999999GF100991001001999999001001KA1240M+03141MA1999999099991MD1999999-0171REMSYN016 333 10314 59017
0114832290999991993040412004-13017-038517FM-12+005199999V0200501N00361105001CN0200001N9+02761+02341100861ADDAA106000091AG14000GF105991041051004501001021KA1240N+02461MA1999999100261MD1999999+0101REMSYN016 333 20246 58010
0095832290999991993040418004-13017-038517FM-12+005199999V0201401N00311220001CN0200001N9+03061+02351100421ADDAA106000091AG14000GF103991011011017501021011MA1999999099841MD1999999+0211REMSYN010 333 58021
0114832290999991993040500004-13017-038517FM-12+005199999V0201401N00981105001CN9999999N9+02681+02281100651ADDAA106000091AG14000GF107991001001999999001081KA1240M+03101MA1999999100051MD1999999+0061REMSYN016 333 10310 58006
0114832290999991993040512004-13017-038517FM-12+005199999V0201401N00151004201CN0040001N9+02841+02561100881ADDAA106000091AG14000GF107991071071004501001001KA1240N+02551MA1999999100301MD1999999+0041REMSYN016 333 20255 58004
0123832290999991993040518004-13017-038517FM-12+005199999V0201401N00211220001CN0200001N9+02981+02351100581ADDAA106004091AG10002AY161061AY251061GF106991001001999999001061MA1999999099981MD1999999+0141MW1031REMSYN016 333 58014 60041
0114832290999991993040600004-13017-038517FM-12+005199999V0200901N00151220001CN9999999N9+02661+02371100831ADDAA106000091AG14000GF101991001001999999001011KA1240M+03121MA1999999100231MD1999999+0181REMSYN016 333 10312 58018
0142832290999991993040612004-13017-038517FM-12+005199999V0201401N00101021001CN0500001N9+02601+02211101331ADDAA124001091AG10007AY191061AY261061GF106991061001022501061001KA1240N+02191MA1999999098521MD1999999+0181MW1031REMSYN022 333 20219 58018 60014
0114832290999991993040618004-13017-038517FM-12+005199999V0201401N00311220001CN0200001N9+03001+02141100741ADDAA106000091AG14000GF102991011001999999041011MA1999999100142MD1999999+0161REMSYN010 333 58016EQDQ01+100143APOSP 
0114832290999991993040700004-13017-038517FM-12+005199999V0200901N00151220001CN9999999N9+02601+02191100931ADDAA106000091AG14000GF101991001001999999001011KA1240M+03251MA1999999100331MD1999999+0101REMSYN016 333 10325 58010
0114832290999991993040712004-13017-038517FM-12+005199999V0203201N00151220001CN0100001N9+02691+02201101031ADDAA106000091AG14000GF103991021021008001041001KA1240N+02401MA1999999100431MD1999999-0071REMSYN016 333 20240 59007
0095832290999991993040718004-13017-038517FM-12+005199999V0201801N00261220001CN0500001N9+03061+02141100681ADDAA106000091AG14000GF101991011021008001001001MA1999999100081MD1999999-0061REMSYN010 333 59006
0114832290999991993040800004-13017-038517FM-12+005199999V0203201N00051004201CN0040001N9+02731+02371100961ADDAA106000091AG14000GF106991061051004501001001KA1240N+02541MA1999999100361MD1999999-0071REMSYN016 333 20254 59007
0114832290999991993040812004-13017-038517FM-12+005199999V0203201N00051004201CN0040001N9+02731+02371100961ADDAA106000091AG14000GF106991061051004501001001KA1240N+02541MA1999999100361MD1999999-0071REMSYN016 333 20254 59007
0095832290999991993040818004-13017-038517FM-12+005199999V0201401N00311220001CN0200001N9+02981+02441100441ADDAA106000091AG14000GF102991021011004501001001MA1999999099861MD1999999-0221REMSYN010 333 59022
0130832290999991993040900004-13017-038517FM-12+005199999V0201401N00411220001CN9999999N9+02661+02371100691ADDAA106000091AG14000GA1001+999999999GF100991001001999999001001KA1240M+03151MA1999999100091MD1999999-0161REMSYN016 333 10315 59016
0136832290999991993040912004-13017-038517FM-12+005199999V0200501N00151220001CN0040001N9+02781+02381100881ADDAA106000091AG10000AY101061AY201061GF103991031041004501001001KA1240N+02501MA1999999100281MD1999999-0081MW1051REMSYN016 333 20250 59008
0114832290999991993041000004-13017-038517FM-12+005199999V0200501N00151220001CN9999999N9+02621+02311100761ADDAA106000091AG14000GF101991011011008001001001KA1240M+03161MA1999999100161MD1999999+0071REMSYN016 333 10316 58007
0114832290999991993041012004-13017-038517FM-12+005199999V0203601N00151007501CN0100001N9+02821+02241101061ADDAA106000091AG14000GF106991061021008001001001KA1240N+02401MA1999999100461MD1999999+0181REMSYN016 333 20240 58018
0095832290999991993041018004-13017-038517FM-12+005199999V0200901N00151220001CN0100001N9+03121+02451100871ADDAA106000091AG14000GF102991021011008001001001MA1999999100271MD1999999+0031REMSYN010 333 58003
0101832290999991993041100004-13017-038517FM-12+005199999V0201401N00151220001CN9999999N9+02621+02421101031ADDAA106000091AG14000GF103991031011008001001001MA1999999100431MD1999999+0271REMSYN016 333 10/// 58027
0114832290999991993041112004-13017-038517FM-12+005199999V0201401N00151220001CN0100001N9+02961+02211101251ADDAA106000091AG14000GF101991011011008001001001KA1240N+02501MA1999999100651MD1999999+0191REMSYN016 333 20250 58019
0095832290999991993041118004-13017-038517FM-12+005199999V0201401N00151220001CN0500001N9+03041+02231101031ADDAA106000091AG14000GF103991031021008001001001MA1999999100431MD1999999+0161REMSYN010 333 58016
0101832290999991993041200004-13017-038517FM-12+005199999V0201401N00151220001CN9999999N9+02611+02101101221ADDAA106000091AG14000GF101991011021008001001001MA1999999100621MD1999999+0191REMSYN016 333 10/// 58019
0114832290999991993041212004-13017-038517FM-12+005199999V0201401N00151220001CN0200001N9+02921+02241101271ADDAA106000091AG14000GF101991011031004501001001KA1240N+02561MA1999999100691MD1999999+0261REMSYN016 333 20256 58026
0095832290999991993041218004-13017-038517FM-12+005199999V0201401N00151220001CN0200001N9+02851+02261101311ADDAA106000091AG14000GF101991011031004501001001MA1999999100731MD1999999+0301REMSYN010 333 58030
0142832290999991993041300004-13017-038517FM-12+005199999V0201401N00311220001CN9999999N9+02751+02481101481ADDAA106000591AG10000AY151061AY221061GF102991011031008001041001KA1240M+03051MA1999999100901MD1999999+0281MW1031REMSYN022 333 10305 58028 69951
0120832290999991993041312004-13017-038517FM-12+005199999V0209999999999045001CN0100001N9+02711+02371101481ADDAA124006091AG10000GF106991011031004501031001KA1240N+02241MA1999999100881MD1999999-0181REMSYN022 333 20224 59018 60064
0123832290999991993041318004-13017-038517FM-12+005199999V0201401N00151220001CN0100001N9+02741+02361101201ADDAA106006091AG10002AY161061AY221061GF103991021031008001041051MA1999999100601MD1999999-0131MW1031REMSYN016 333 59013 60061
0142832290999991993041400004-13017-038517FM-12+005199999V0201401N00101220001CN9999999N9+02461+02281101421ADDAA106000191AG10000AY151061AY201061GF102991011021008001041001KA1240M+02831MA1999999100821MD1999999-0081MW1021REMSYN022 333 10283 59008 69911
0095832290999991993041418004-13017-038517FM-12+005199999V0201401N00211220001CN0200001N9+02851+02401101011ADDAA106000091AG14000GF104991021031004501031001MA1999999100611MD1999999+0011REMSYN010 333 58001
0114832290999991993041500004-13017-038517FM-12+005199999V0200501N00151220001CN9999999N9+02421+02281101361ADDAA106000091AG14000GF103991031011008001001001KA1240M+02891MA1999999100761MD1999999-0061REMSYN016 333 10289 59006
0153832290999991993041512004-13017-038517FM-12+005199999V0201401N00151045001CN0100001N9+02701+02411101581ADDAA124000491AA299000591AG10000AY151061AY221061GF107991041021008001051001KA1240N+02461MA1999999100981MD1999999+0111MW1021REMSYN022 333 20246 58011 69944
0095832290999991993041518004-13017-038517FM-12+005199999V0200901N00151220001CN0200001N9+02991+02441101321ADDAA106000091AG14000GF101991011021004501001001MA1999999100741MD1999999+0131REMSYN010 333 58013
0130832290999991993041600004-13017-038517FM-12+005199999V0201401N00101220001CN9999999N9+02601+02231101521ADDAA106000091AG14000GA1001+999999999GF100991001001999999001001KA1240M+03051MA1999999100921MD1999999+0161REMSYN016 333 10305 58016
0142832290999991993041612004-13017-038517FM-12+005199999V0200501N00311220001CN0040001N9+02771+02321101711ADDAA124009091AG10002AY161061AY201061GF103991011031004501051001KA1240N+02331MA1999999101111MD1999999+0131MW1011REMSYN022 333 20233 58013 60094
0095832290999991993041618004-13017-038517FM-12+005199999V0201401N00151220001CN0500001N9+02941+02331101441ADDAA106000091AG14000GF101991011021008001001001MA1999999100841MD1999999+0101REMSYN010 333 58010
0114832290999991993041700004-13017-038517FM-12+005199999V0201401N00151220001CN9999999N9+02581+02191101531ADDAA106000091AG14000GF101991011011008001001001KA1240M+03061MA1999999100931MD1999999+0011REMSYN016 333 10306 58001
0133832290999991993041712004-13017-038517FM-12+005199999V0201401N00151012001CN0100001N9+02781+02251101531ADDAA106000091AG14000GF108991999081008001001001KA1240N+02501MA1999999100931MD1999999-0181REMSYN016 333 20250 59018EQDQ01+000072SCOTLC
0095832290999991993041718004-13017-038517FM-12+005199999V0201401N00151012001CN0200001N9+02821+02331101251ADDAA106000091AG14000GF107991061081008001011061MA1999999100651MD1999999-0191REMSYN010 333 59019
0142832290999991993041812004-13017-038517FM-12+005199999V0202301N00051220001CN0100001N9+02681+02371101461ADDAA124012091AG10002AY161061AY251061GF103991031021008001001061KA1240N+02311MA1999999100861MD1999999-0071MW1031REMSYN022 333 20231 59007 60124
0123832290999991993041818004-13017-038517FM-12+005199999V0201801N00101007501CN0040001N9+02641+02331101421ADDAA106000191AG10000AY151061AY221061GF108991081071008001999999MA1999999100821MD1999999+0171MW1021REMSYN016 333 58017 69911
0114832290999991993041900004-13017-038517FM-12+005199999V0201401N00151220001CN9999999N9+02621+02311101331ADDAA106000091AG14000GF101991011011008001001001KA1240M+02881MA1999999100731MD1999999-0101REMSYN016 333 10288 59010
0142832290999991993042100004-13017-038517FM-12+005199999V0200501N00101004201CN9999999N9+02471+02391101651ADDAA106010091AG10000AY141061AY241061GF108991081071004501999999KA1240M+03091MA1999999101051MD1999999+0151MW1581REMSYN022 333 10309 58015 60101
0142832290999991993042112004-13017-038517FM-12+005199999V0202301N00151004201CN0040001N9+02641+02441101561ADDAA124026091AG10002AY161061AY261061GF106991061051004501001001KA1240N+02221MA1999999100971MD1999999-0061MW1011REMSYN022 333 20222 59006 60264
0095832290999991993042118004-13017-038517FM-12+005199999V0201401N00211220001CN0200001N9+02871+02311101401ADDAA106000091AG14000GF103991021021008001041001MA1999999100801MD1999999-0041REMSYN010 333 59004
0114832290999991993042200004-13017-038517FM-12+005199999V0200501N00151220001CN9999999N9+02601+02291101621ADDAA106000091AG14000GF102991021021008001001001KA1240M+02971MA1999999101021MD1999999-0031REMSYN016 333 10297 59003
0126832290999991993042212004-13017-038517FM-12+005199999V0200901N00151007501CN0100001N9+02441+02251101611ADDAA124002091AG10000GF106991061031008001001001KA1240N+02421MA1999999101011MD1999999+0041MW1611REMSYN022 333 20242 58004 60024
0123832290999991993042218004-13017-038517FM-12+005199999V0201401N00151220001CN0100001N9+02901+02411101301ADDAA106000191AG10000AY151061AY201061GF103991031021008001001001MA1999999100701MD1999999-0101MW1021REMSYN016 333 59010 69911
0114832290999991993042300004-13017-038517FM-12+005199999V0201401N00151220001CN9999999N9+02601+02271101501ADDAA106000091AG14000GF102991021011008001001001KA1240M+03001MA1999999100901MD1999999-0121REMSYN016 333 10300 59012
0120832290999991993042312004-13017-038517FM-12+005199999V0202301N00151007501CN0100001N9+02721+02431101551ADDAA106000191AG10000GF106991061051008001001001KA1240N+02401MA1999999100951MD1999999-0051REMSYN022 333 20240 59005 69911
0134832290999991993042318004-13017-038517FM-12+005199999V0200901N00151220001CN0200001N9+02761+02341101311ADDAA106000691AA299000591AG10000AY151061AY221061GF103991011021017501041011MA1999999100711MD1999999+0011MW1031REMSYN016 333 58001 69961
0130832290999991993042400004-13017-038517FM-12+005199999V0200501N00151220001CN9999999N9+02561+02211101411ADDAA106000091AG14000GA1001+999999999GF100991001001999999001001KA1240M+02791MA1999999100811MD1999999-0091REMSYN016 333 10279 59009
0131832290999991993042412004-13017-038517FM-12+005199999V0203201N00101220001CN0100001N9+02761+02401101491ADDAA124000691AA299000591AG10000GF104991041051004501001001KA1240N+02451MA1999999100891MD1999999+0181REMSYN022 333 20245 58018 69964
0112832290999991993042418004-13017-038517FM-12+005199999V0200901N00211220001CN0200001N9+02931+02271101151ADDAA106000291AA299000191AG10000GF101991011031008001001001MA1999999100551MD1999999-0161REMSYN016 333 59016 69921
0114832290999991993042500004-13017-038517FM-12+005199999V0201001N02211220001CN9999999N9+02601+02271101351ADDAA106000091AG14000GF101991011011008001001001KA1240M+03371MA1999999100751MD1999999-0061REMSYN016 333 10337 59006
0131832290999991993042512004-13017-038517FM-12+005199999V0200901N00151007501CN0100001N9+02721+02391101431ADDAA124000291AA299000191AG10000GF107991071021008001001001KA1240N+02381MA1999999100831MD1999999-0061REMSYN022 333 20238 59006 69924
0095832290999991993042518004-13017-038517FM-12+005199999V0200901N00311220001CN0200001N9+02941+02381101091ADDAA106000091AG14000GF103991011021008001001061MA1999999100491MD1999999-0061REMSYN010 333 59006
0099832290999991993042600004-13017-038517FM-12+005199999V0200501N00211220001CN9999999N9+02621+02351101291ADDAA106000091AG14000GF101991011021008001001001KA1240M+03021MD1999999-0061REMSYN016 333 10302 59006
0114832290999991993042612004-13017-038517FM-12+005199999V0203201N00051007501CN0040001N9+02741+02431101381ADDAA106000091AG14000GF107991051031008001061061KA1240N+02501MA1999999100781MD1999999-0051REMSYN016 333 20250 59005
0095832290999991993042618004-13017-038517FM-12+005199999V0200901N002119999999N0200001N9+02851+02311101081ADDAA106000091AG14000GF107991071001012501051001MA1999999100481MD1999999-0011REMSYN010 333 59001
0114832290999991993042700004-13017-038517FM-12+005199999V0200901N00151045001CN9999999N9+02621+02251101281ADDAA106000091AG14000GF107991031051008001051001KA1240M+03061MA1999999100691MD1999999+0001REMSYN016 333 10306 58000
0114832290999991993042712004-13017-038517FM-12+005199999V0200901N00151220001CN0100001N9+02841+02311101441ADDAA106000091AG14000GF106991031021008001001011KA1240N+02501MA1999999100841MD1999999+0061REMSYN016 333 20250 58006
0095832290999991993042718004-13017-038517FM-12+005199999V0201401N00261220001CN0200001N9+02871+02351101241ADDAA106000091AG14000GF104991011031008001001021MA1999999100641MD1999999+0161REMSYN010 333 58016
0172832290999991993042800004-13017-038517FM-12+005199999V0200901N00151220001CN9999999N9+02611+02291101481ADDAA106000291AA299000191AG10000AY121061AY221061GF103991999051004501001001KA1240M+03031MA1999999100881MD1999999+0191MW1581REMSYN022 333 10303 58019 69921EQDQ01+000042SCOTLC
0142832290999991993042812004-13017-038517FM-12+005199999V0201401N00101105001CN0100001N9+02681+02371101551ADDAA124016091AG10002AY161061AY201061GF107991041051004501001021KA1240N+02331MA1999999100951MD1999999+0111MW1201REMSYN022 333 20233 58011 60164
0095832290999991993042818004-13017-038517FM-12+005199999V0201401N00211220001CN0040001N9+02791+02251101351ADDAA106000091AG14000GF104991041001017501051001MA1999999100751MD1999999+0111REMSYN010 333 58011
0118832290999991993042900004-13017-038517FM-12+005199999V0209999999999004201CN9999999N9+02471+01941101271ADDAG12000GF107991071071004501001001KA1240M+03181MA1999999999999REMSYN010 333 10318EQDQ01+095733APOSP Q02 095733APOSP 
0142832290999991993042912004-13017-038517FM-12+005199999V0200501N00151004201CN0020001N9+02581+02421101531ADDAA124010091AG10002AY161061AY261061GF107991061051004501001021KA1240N+02341MA1999999100941MD1999999-0011MW1021REMSYN022 333 20234 59001 60104
0095832290999991993042918004-13017-038517FM-12+005199999V0201401N00211045001CN0200001N9+02651+02351101261ADDAA106000091AG14000GF105991041031008001041001MA1999999100661MD1999999-0091REMSYN010 333 59009
0142832290999991993043000004-13017-038517FM-12+005199999V0200501N00101045001CN9999999N9+02461+02431101471ADDAA106006091AG10002AY161061AY251061GF106991031021008001041061KA1240M+02911MA1999999100871MD1999999-0041MW1031REMSYN022 333 10291 59004 60061
0142832290999991993043012004-13017-038517FM-12+005199999V0200501N00101045001CN0100001N9+02591+02271101551ADDAA124011091AG10002AY161061AY251061GF107991041031008001021001KA1240N+02361MA1999999100951MD1999999+0011MW1031REMSYN022 333 20236 58001 60114
0123832290999991993043018004-13017-038517FM-12+005199999V0200901N00311045001CN0020001N9+02741+02321101281ADDAA106002091AG10002AY161061AY261061GF107991021051004501071001MA1999999100691MD1999999+0031MW1031REMSYN016 333 58003 60021
0114832290999991993050100004-13017-038517FM-12+005199999V0201401N00261045001CN9999999N9+02581+02271101471ADDAA106000091AG14000GF107991011011008001051001KA1240M+02841MA1999999100871MD1999999+0001REMSYN016 333 10284 58000
0142832290999991993050112004-13017-038517FM-12+005199999V0201401N00151220001CN0100001N9+02741+02051101541ADDAA124012091AG10002AY161061AY201061GF103991031081008001051001KA1240N+02281MA1999999100941MD1999999-0011MW1021REMSYN022 333 20228 59001 60124
0123832290999991993050118004-13017-038517FM-12+005199999V0200901N00101004201CN0040001N9+02751+02321101251ADDAA106000191AG10002AY161061AY201061GF106991061071004501001001MA1999999100661MD1999999-0031MW1201REMSYN016 333 59003 69911
0142832290999991993050200004-13017-038517FM-12+005199999V0200501N00051220001CN9999999N9+02441+02341101491ADDAA106004091AG10002AY161061AY251061GF103991031021008001001001KA1240M+02921MA1999999100891MD1999999+0021MW1211REMSYN022 333 10292 58002 60041
0142832290999991993050212004-13017-038517FM-12+005199999V0200901N00101220001CN0040001N9+02791+02361101461ADDAA124005091AG10002AY161061AY261061GF105991041031004501001011KA1240N+02381MA1999999100871MD1999999-0071MW1031REMSYN022 333 20238 59007 60054
0134832290999991993050218004-13017-038517FM-12+005199999V0201401N00151220001CN0040001N9+02781+02401101181ADDAA106000891AA299001091AG10000AY151061AY221061GF108991041081008001001011MA1999999100581MD1999999-0081MW1021REMSYN016 333 59008 69981
0114832290999991993050300004-13017-038517FM-12+005199999V0201401N00151045001CN9999999N9+02561+02351101451ADDAA106000091AG14000GF105991021011008001051001KA1240M+02911MA1999999100851MD1999999-0101REMSYN016 333 10291 59010
0131832290999991993050312004-13017-038517FM-12+005199999V0202301N00151220001CN0200001N9+02651+02441101461ADDAA124000891AA299001091AG10000GF104991031051004501031001KA1240N+02441MA1999999100871MD1999999+0001REMSYN022 333 20244 58000 69984
0095832290999991993050318004-13017-038517FM-12+005199999V0200501N00211220001CN0200001N9+02831+02331101161ADDAA106000091AG14000GF102991021021008001001001MA1999999100561MD1999999-0021REMSYN010 333 59002
0114832290999991993050400004-13017-038517FM-12+005199999V0200501N00051220001CN9999999N9+02551+02291101291ADDAA106000091AG14000GF101991011021008001001001KA1240M+02861MA1999999100691MD1999999-0161REMSYN016 333 10286 59016
0114832290999991993050412004-13017-038517FM-12+005199999V0200501N00101045001CN0100001N9+02801+02441101361ADDAA106000091AG14000GF106991041031008001061061KA1240N+02511MA1999999100761MD1999999-0111REMSYN016 333 20251 59011
0095832290999991993050418004-13017-038517FM-12+005199999V0200501N00101012001CN0040001N9+02861+02481101031ADDAA106000091AG14000GF107991051081008001001011MA1999999100431MD1999999-0131REMSYN010 333 59013
0114832290999991993050500004-13017-038517FM-12+005199999V0200901N00101045001CN9999999N9+02581+02531101341ADDAA106000091AG14000GF108991041081008001051001KA1240M+03001MA1999999100741MD1999999+0051REMSYN016 333 10300 58005
0142832290999991993050512004-13017-038517FM-12+005199999V0200501N00101007501CN0020001N9+02701+02331101641ADDAA124007091AG10002AY161061AY221061GF108991081051008001001001KA1240N+02481MA1999999101041MD1999999+0281MW1021REMSYN022 333 20248 58028 60074
0123832290999991993050518004-13017-038517FM-12+005199999V0200901N00151045001CN0040001N9+02821+02501101271ADDAA106001091AG10002AY161061AY241061GF106991021021012501061021MA1999999100671MD1999999+0241MW1031REMSYN016 333 58024 60011
0114832290999991993050600004-13017-038517FM-12+005199999V0200901N00151220001CN9999999N9+02631+02411101441ADDAA106000091AG14000GF101991011021004501001001KA1240M+03051MA1999999100841MD1999999+0101REMSYN016 333 10305 58010
0120832290999991993050612004-13017-038517FM-12+005199999V0200501N00151220001CN0100001N9+02831+02461101531ADDAA124002091AG10000GF104991041051004501001001KA1240N+02451MA1999999100941MD1999999-0101REMSYN022 333 20245 59010 60024
0111832290999991993050618004-13017-038517FM-12+005199999V0200501N00311220001CN0500001N9+02901+02341101191ADDAA106000091AG14000GA1001+999999999GF100991001001999999001001MA1999999100591MD1999999-0081REMSYN010 333 59008
0130832290999991993050700004-13017-038517FM-12+005199999V0200901N00151220001CN9999999N9+02601+02291101371ADDAA106000091AG14000GA1001+999999999GF100991001001999999001001KA1240M+03001MA1999999100771MD1999999-0071REMSYN016 333 10300 59007
0114832290999991993050712004-13017-038517FM-12+005199999V0201401N00101045001CN0100001N9+02831+02401101551ADDAA106000091AG14000GF107991021051004501071001KA1240N+02461MA1999999100951MD1999999+0011REMSYN016 333 20246 58001
0134832290999991993050718004-13017-038517FM-12+005199999V0201401N00211220001CN0200001N9+02751+02321101291ADDAA106000891AA299001091AG10000AY151061AY201061GF102991011021008001041011MA1999999100691MD1999999+0101MW1011REMSYN016 333 58010 69981
0134832290999991993050800004-13017-038517FM-12+005199999V0201801N00311220001CN9999999N9+02621+02311101421ADDAA106001091AG10000AY151061GF103991021021008001031001KA1240M+02921MA1999999100821MD1999999+0021MW1031REMSYN022 333 10292 58002 60011
0142832290999991993050812004-13017-038517FM-12+005199999V0200901N00151004201CN0100001N9+02781+02361101511ADDAA124004091AG10002AY161061AY251061GF106991051031004501031001KA1240N+02451MA1999999100911MD1999999-0041MW1031REMSYN022 333 20245 59004 60044
0134832290999991993050818004-13017-038517FM-12+005199999V0201401N00261007501CN0020001N9+02571+02401101291ADDAA106000291AA299000191AG10000AY151061AY221061GF108991081071008001999999MA1999999100691MD1999999+0001MW1021REMSYN016 333 58000 69921
0142832290999991993050900004-13017-038517FM-12+005199999V0201801N00151007501CN9999999N9+02561+02361101381ADDAA106009091AG10002AY161061AY221061GF105991051051008001001001KA1240M+02861MA1999999100781MD1999999-0041MW1021REMSYN022 333 10286 59004 60091
0142832290999991993050912004-13017-038517FM-12+005199999V0201401N00151007501CN0020001N9+02681+02241101461ADDAA124009091AG10000AY151061AY221061GF107991071051008001001001KA1240N+02301MA1999999100861MD1999999-0051MW1021REMSYN022 333 20230 59005 60094
0123832290999991993050918004-13017-038517FM-12+005199999V0201401N00411045001CN0200001N9+02851+02401101181ADDAA106005091AG10002AY161061AY251061GF105991031031008001031001MA1999999100591MD1999999-0101MW1031REMSYN016 333 59010 60051
0142832290999991993051000004-13017-038517FM-12+005199999V0201401N00311220001CN9999999N9+02521+02211101351ADDAA106004091AG10002AY161061AY261061GF103991031021008001001001KA1240M+02881MA1999999100761MD1999999-0021MW1021REMSYN022 333 10288 59002 60041
0142832290999991993051012004-13017-038517FM-12+005199999V0200901N00671004201CN0020001N9+99999+99999101421ADDAA124011091AG10002AY161061AY261061GF108991081051004501999999KA1240N+02221MA1999999100831MD1999999-0031MW1021REMSYN022 333 20222 59003 60114
0123832290999991993051018004-13017-038517FM-12+005199999V0201401N00101007501CN0040001N9+02731+02241101151ADDAA106000191AG10002AY161061AY251061GF107991051051008001071001MA1999999100561MD1999999-0031MW1031REMSYN016 333 59003 69911
0114832290999991993051100004-13017-038517FM-12+005199999V0200901N00261220001CN9999999N9+02601+02011101221ADDAA106000091AG14000GF103991011021008001051001KA1240M+02801MA1999999100891MD1999999+0131REMSYN016 333 10280 58013
0142832290999991993051112004-13017-038517FM-12+005199999V0201401N00461004201CN0100001N9+02571+02171101421ADDAA124000191AG10000AY151061AY201061GF107991071051004501001001KA1240N+02381MA1999999100831MD1999999+0001MW1031REMSYN022 333 20238 58000 69914
0095832290999991993051118004-13017-038517FM-12+005199999V0201401N00211220001CN0200001N9+02681+02201101201ADDAA106000091AG14000GF102991021021008001041001MA1999999100601MD1999999+0041REMSYN010 333 58004
0153832290999991993051200004-13017-038517FM-12+005199999V0201401N00261007501CN9999999N9+02481+02321101411ADDAA106000491AA299000591AG10000AY151061AY201061GF106991051051008001041001KA1240M+02711MA1999999100811MD1999999-0191MW1031REMSYN022 333 10271 59019 69941
0142832290999991993051212004-13017-038517FM-12+005199999V0202301N00151220001CN0200001N9+02521+02341101531ADDAA124008091AG10002AY161061AY251061GF102991021031008001041001KA1240N+02301MA1999999100931MD1999999+0101MW1031REMSYN022 333 20230 58010 60084
0123832290999991993051218004-13017-038517FM-12+005199999V0201401N00151220001CN0100001N9+02701+02301101101ADDAA106003091AG10002AY161061AY221061GF102991021001008001041001MA1999999100551MD1999999-0051MW1031REMSYN016 333 59005 60031
0123832290999991993051318004-13017-038517FM-12+005199999V0201401N001519999999N0040001N9+02521+02331101161ADDAA106008091AG10002AY161061AY261061GF107991071001012501071001MA1999999100571MD1999999+0021MW1021REMSYN016 333 58002 60081
0114832290999991993051400004-13017-038517FM-12+005199999V0200501N00101220001CN9999999N9+02401+02111101291ADDAA106000091AG14000GF102991021001008001031001KA1240M+02641MA1999999100691MD1999999-0061REMSYN016 333 10264 59006
0120832290999991993051412004-13017-038517FM-12+005199999V0202301N00151220001CN0040001N9+02471+02301101491ADDAA124008091AG10000GF104991041051008001001001KA1240N+02291MA1999999100901MD1999999+0031REMSYN022 333 20229 58003 60084
0095832290999991993051418004-13017-038517FM-12+005199999V0201401N00151220001CN0100001N9+02681+02411101101ADDAA106000091AG14000GF104991041021008001001001MA1999999100501MD1999999-0071REMSYN010 333 59007
0114832290999991993051512004-13017-038517FM-12+005199999V0203601N00151012001CN0040001N9+02681+02411101471ADDAA106000091AG14000GF106991061081008001001001KA1240N+02381MA1999999100871MD1999999-0031REMSYN016 333 20238 59003
0130832290999991993051600004-13017-038517FM-12+005199999V0200501N00311220001CN9999999N9+02561+02351101341ADDAA106000091AG14000GA1001+999999999GF100991001001999999001001KA1240M+03001MA1999999100741MD1999999+0051REMSYN016 333 10300 58005
0114832290999991993051612004-13017-038517FM-12+005199999V0200501N00151220001CN0200001N9+02821+02241101671ADDAA106000091AG14000GF102991021021008001001001KA1240N+02441MA1999999101071MD1999999+0201REMSYN016 333 20244 58020
0095832290999991993051618004-13017-038517FM-12+005199999V0200901N00101220001CN0100001N9+02881+02371101461ADDAA106000091AG14000GF102991021011008001001001MA1999999100861MD1999999+0311REMSYN010 333 58031
0114832290999991993051700004-13017-038517FM-12+005199999V0201401N00151220001CN9999999N9+02541+02251101711ADDAA106000091AG14000GF103991031011008001001001KA1240M+02941MA1999999101111MD1999999+0371REMSYN016 333 10294 58037
0114832290999991993051712004-13017-038517FM-12+005199999V0201401N00151220001CN0100001N9+02721+02301101861ADDAA106000091AG14000GF104991041021008001001001KA1240N+02501MA1999999101361MD1999999+0191REMSYN016 333 20250 58019
0101832290999991993051718004-13017-038517FM-12+005199999V0201401N00211007501CN0200001N9+02861+02311101561ADDAA106000591AG10000GF105991051051008001001001MA1999999100961MD1999999+0101REMSYN016 333 58010 69951
0114832290999991993051800004-13017-038517FM-12+005199999V0201401N00151220001CN9999999N9+02431+02111101781ADDAA106000091AG14000GF101991011011004501001001KA1240M+02921MA1999999101181MD1999999+0071REMSYN016 333 10292 58007
0153832290999991993051812004-13017-038517FM-12+005199999V0201801N00151004201CN0040001N9+02501+02251101781ADDAA124000891AA299001091AG10000AY151061AY251061GF107991061051004501071001KA1240N+02351MA1999999101191MD1999999-0071MW1031REMSYN022 333 20235 59007 69984
0142832290999991993051900004-13017-038517FM-12+005199999V0202301N00101220001CN9999999N9+02311+02181101581ADDAA106009091AG10002AY161061AY201061GF103991031041008001001001KA1240M+02741MA1999999100991MD1999999-0191MW1011REMSYN022 333 10274 59019 60091
0142832290999991993051912004-13017-038517FM-12+005199999V0202301N00101004201CN0100001N9+02371+02151101691ADDAA124069091AG10002AY161061AY261061GF107991061051004501031001KA1240N+02121MA1999999101101MD1999999-0091MW1031REMSYN022 333 20212 59009 60694
0095832290999991993051918004-13017-038517FM-12+005199999V0201401N00101220001CN0200001N9+02461+02231101371ADDAA106000091AG14000GF103991021031008001041001MA1999999100771MD1999999-0091REMSYN010 333 59009
0123832290999991993052018004-13017-038517FM-12+005199999V0201801N00821004201CN0020001N9+02471+02231101381ADDAA106018091AG10002AY161061AY261061GF107991061051004501071001MA1999999100791MD1999999+0021MW1031REMSYN016 333 58002 60181
0142832290999991993052100004-13017-038517FM-12+005199999V0201801N00211007501CN9999999N9+02301+02251101471ADDAA106009091AG10002AY161061AY221061GF108991081071008001999999KA1240M+02541MA1999999100871MD1999999-0051MW1021REMSYN022 333 10254 59005 60091
0142832290999991993052112004-13017-038517FM-12+005199999V0202301N00411007501CN0010001N9+02301+02181101661ADDAA124046091AG10002AY161061AY221061GF108991081071008001999999KA1240N+02141MA1999999101061MD1999999+0011MW1021REMSYN022 333 20214 58001 60464
0123832290999991993052118004-13017-038517FM-12+005199999V0201801N00211007501CN0020001N9+02421+02231101411ADDAA106002091AG10002AY161061AY221061GF108991081071008001999999MA1999999100811MD1999999+0021MW1021REMSYN016 333 58002 60021
0142832290999991993052200004-13017-038517FM-12+005199999V0201401N00151007501CN9999999N9+02181+02131101681ADDAA106022091AG10002AY161061AY221061GF108991081071008001999999KA1240M+02561MA1999999101081MD1999999+0211MW1021REMSYN022 333 10256 58021 60221
0142832290999991993052212004-13017-038517FM-12+005199999V0202301N00211012001CN0040001N9+02421+02251101701ADDAA124027091AG10002AY161061AY221061GF107991071081008001001001KA1240N+02081MA1999999101101MD1999999+0041MW1021REMSYN022 333 20208 58004 60274
0123832290999991993052218004-13017-038517FM-12+005199999V0201401N00151007501CN0020001N9+02301+02161101481ADDAA106031091AG10002AY161061AY221061GF108991081071008001999999MA1999999100881MD1999999+0071MW1021REMSYN016 333 58007 60311
0142832290999991993052300004-13017-038517FM-12+005199999V0201401N00261220001CN9999999N9+02421+02151101711ADDAA106000191AG10002AY161061AY251061GF104991041051004501001001KA1240M+02521MA1999999101121MD1999999+0041MW1011REMSYN022 333 10252 58004 69911
0142832290999991993052312004-13017-038517FM-12+005199999V0202301N00211007501CN0040001N9+02321+02091101781ADDAA124037091AG10002AY161061AY221061GF107991071051008001001001KA1240N+02081MA1999999101181MD1999999+0081MW1021REMSYN022 333 20208 58008 60374
0095832290999991993052318004-13017-038517FM-12+005199999V0201801N00411220001CN0200001N9+02481+02031101541ADDAA106000091AG14000GF102991021021008001061001MA1999999100941MD1999999+0061REMSYN010 333 58006
0133832290999991993052400004-13017-038517FM-12+005199999V0201801N003119999999N9999999N9+02461+01991101651ADDAA106000091AG14000GF105991999021008001001001KA1240M+02581MA1999999101051MD1999999-0071REMSYN016 333 10258 59007EQDQ01+000042SCOTLC
0142832290999991993052412004-13017-038517FM-12+005199999V0202301N00211004201CN0200001N9+99999+99999101681ADDAA124034091AG10002AY161061AY251061GF106991051071004501061001KA1240N+02121MA1999999101081MD1999999-0101MW1031REMSYN022 333 20212 59010 60344
0095832290999991993052418004-13017-038517FM-12+005199999V0201801N00211012001CN0100001N9+02471+02211101391ADDAA106000091AG14000GF105991051081008001001001MA1999999100791MD1999999-0151REMSYN010 333 59015
0114832290999991993052512004-13017-038517FM-12+005199999V0201401N00151220001CN0100001N9+02531+02041101621ADDAA106000091AG14000GF103991031021008001001001KA1240N+02251MA1999999101021MD1999999-0061REMSYN016 333 20225 59006
0095832290999991993052518004-13017-038517FM-12+005199999V0201401N001519999999N0100001N9+02541+02021101341ADDAA106000091AG14000GF106991061001012501031001MA1999999100741MD1999999-0051REMSYN010 333 59005
0114832290999991993052600004-13017-038517FM-12+005199999V0200901N002119999999N9999999N9+02461+02091101491ADDAA106000091AG14000GF106991061001012501031001KA1240M+02721MA1999999100901MD1999999-0021REMSYN016 333 10272 59002
0114832290999991993052612004-13017-038517FM-12+005199999V0200501N00151220001CN0200001N9+02681+02201101511ADDAA106000091AG14000GF102991011031008001031001KA1240N+02341MA1999999100921MD1999999-0101REMSYN016 333 20234 59010
0095832290999991993052618004-13017-038517FM-12+005199999V0201401N00151045001CN0100001N9+02601+02311101271ADDAA106000091AG14000GF105991011041008001031001MA1999999100681MD1999999-0061REMSYN010 333 59006
0147832290999991993052700004-13017-038517FM-12+005199999V0200901N00511220001CN9999999N9+02411+02281101521ADDAA106000491AA299000591AG10000GA1001+999999999GF100991001001999999001001KA1240M+02771MA1999999100931MD1999999+0031REMSYN022 333 10277 58003 69941
0131832290999991993052712004-13017-038517FM-12+005199999V0201401N00101220001CN0200001N9+02651+02331101681ADDAA124000491AA299000591AG10000GF102991021051008001001001KA1240N+02391MA1999999101091MD1999999+0171REMSYN022 333 20239 58017 69944
0095832290999991993052718004-13017-038517FM-12+005199999V0201401N00151220001CN0200001N9+02781+02381101481ADDAA106000091AG14000GF102991021021008001041001MA1999999100881MD1999999+0201REMSYN010 333 58020
0114832290999991993052800004-13017-038517FM-12+005199999V0200901N00101220001CN9999999N9+02501+02311101661ADDAA106000091AG14000GF102991021021008001001001KA1240M+02841MA1999999101061MD1999999+0131REMSYN016 333 10284 58013
0114832290999991993052812004-13017-038517FM-12+005199999V0202301N00101220001CN0200001N9+02551+02381101841ADDAA106000091AG14000GF102991021021008001001001KA1240N+02371MA1999999101241MD1999999+0151REMSYN016 333 20237 58015
0095832290999991993052818004-13017-038517FM-12+005199999V0201401N00101007501CN0100001N9+02741+02741101571ADDAA106000091AG14000GF105991051021008001001001MA1999999100971MD1999999+0091REMSYN010 333 58009
0114832290999991993052900004-13017-038517FM-12+005199999V0200901N00101220001CN9999999N9+02421+02171101821ADDAA106000091AG14000GF103991031011008001001001KA1240M+02761MA1999999101221MD1999999+0121REMSYN016 333 10276 58012
0142832290999991993052912004-13017-038517FM-12+005199999V0201801N00211045001CN0100001N9+02501+02291101961ADDAA124000391AG10000AY151061AY221061GF106991041051008001031001KA1240N+02401MA1999999101361MD1999999+0121MW1021REMSYN022 333 20240 58012 69934
0095832290999991993052918004-13017-038517FM-12+005199999V0201801N00411007501CN0040001N9+02581+02331101701ADDAA106000091AG14000GF105991051051008001001001MA1999999101111MD1999999+0141REMSYN010 333 58014
0114832290999991993053000004-13017-038517FM-12+005199999V0201801N00361220001CN9999999N9+02571+02211101901ADDAA106000091AG14000GF104991011021008001031011KA1240M+02701MA1999999101311MD1999999+0091REMSYN016 333 10270 58009
0123832290999991993053018004-13017-038517FM-12+005199999V0201401N00311004201CN0020001N9+02411+02241101561ADDAA106041091AG10002AY161061AY261061GF108991081071004501999999MA1999999100971MD1999999-0141MW1021REMSYN016 333 59014 60411
0142832290999991993053100004-13017-038517FM-12+005199999V0200901N00151007501CN9999999N9+02391+02211101711ADDAA106001091AG10002AY161061AY261061GF106991061051008001001001KA1240M+02611MA1999999101121MD1999999-0191MW1021REMSYN022 333 10261 59019 60011
0142832290999991993053112004-13017-038517FM-12+005199999V0202301N00261007501CN0040001N9+02441+02321101911ADDAA124052091AG10002AY161061AY261061GF108991081051008001999999KA1240N+02231MA1999999101321MD1999999-0051MW1021REMSYN022 333 20223 59005 60524
0095832290999991993053118004-13017-038517FM-12+005199999V0201801N00261045001CN0200001N9+02601+02351101611ADDAA106000091AG14000GF105991021021008001031001MA1999999101011MD1999999+0041REMSYN010 333 58004
0114832290999991993060100004-13017-038517FM-12+005199999V0200901N00151007501CN9999999N9+02461+02271101741ADDAA106000091AG14000GF106991061051008001001001KA1240M+02681MA1999999101141MD1999999+0021REMSYN016 333 10268 58002
0114832290999991993060112004-13017-038517FM-12+005199999V0202301N00051004201CN0100001N9+02561+02401101931ADDAA106000091AG14000GF106991051031004501061001KA1240N+02401MA1999999101331MD1999999+0011REMSYN016 333 20240 58001
0095832290999991993060118004-13017-038517FM-12+005199999V0201401N00101007501CN0020001N9+02521+02361101731ADDAA106000091AG14000GF108991081051008001001001MA1999999101131MD1999999+0121REMSYN010 333 58012
0133832290999991993060200004-13017-038517FM-12+005199999V0200901N00151007501CN9999999N9+02481+02271101851ADDAA106000091AG14000GF108991081071008001001001KA1240M+99999MA1999999101251MD1999999+0111REMSYN016 333 10211 58011EQDQ01 +02112ATMX  
0142832290999991993060212004-13017-038517FM-12+005199999V0200501N00101007501CN0040001N9+02601+02231102001ADDAA124007091AG10002AY161061AY221061GF108991081051008001001001KA1240N+02301MA1999999101401MD1999999+0071MW1021REMSYN022 333 20230 58007 60074
0095832290999991993060218004-13017-038517FM-12+005199999V0200501N00151012001CN0100001N9+02611+02231101741ADDAA106000091AG14000GF107991051081008001001021MA1999999101141MD1999999+0011REMSYN010 333 58001
0142832290999991993060312004-13017-038517FM-12+005199999V0202301N00211004201CN0020001N9+02411+02281102001ADDAA124034091AG10002AY161061AY221061GF108991081071004501999999KA1240N+02141MA1999999101411MD1999999+0011MW1601REMSYN022 333 20214 58001 60344
0123832290999991993060318004-13017-038517FM-12+005199999V0201401N00211004201CN0020001N9+02421+02251101661ADDAA106008091AG10002AY161061AY261061GF106991061051004501001001MA1999999101071MD1999999-0071MW1201REMSYN016 333 59007 60081
0142832290999991993060400004-13017-038517FM-12+005199999V0209991C000019999999N9999999N9+02271+02181101881ADDAA106000191AG10002AY161061AY251061GF106991061001012501051001KA1240M+02651MA1999999101291MD1999999-0071MW1021REMSYN022 333 10265 59007 69911
0142832290999991993060412004-13017-038517FM-12+005199999V0200901N00151045001CN0040001N9+02621+02311101891ADDAA124015091AG10002AY161061AY261061GF105991041051008001041001KA1240N+02161MA1999999102001MD1999999+0591MW1031REMSYN022 333 20216 58059 60154
0114832290999991993060500004-13017-038517FM-12+005199999V0200501N00051220001CN9999999N9+02381+02151101851ADDAA106000091AG14000GF102991021021008001001001KA1240M+02751MA1999999101251MD1999999-0041REMSYN016 333 10275 59004
0134832290999991993060512004-13017-038517FM-12+005199999V0200901N00151220001CN0100001N9+02621+02231101871ADDAA124002091AG10002AY161061GF102991021031008001001001KA1240N+02241MA1999999101271MD1999999-0041MW1031REMSYN022 333 20224 59004 60024
0123832290999991993060518004-13017-038517FM-12+005199999V0201401N00151007501CN0040001N9+02621+02351101631ADDAA106001091AG10002AY161061AY221061GF105991051051008001001001MA1999999101031MD1999999-0021MW1021REMSYN016 333 59002 60011
0114832290999991993060600004-13017-038517FM-12+005199999V0200901N00151220001CN9999999N9+02401+02151101801ADDAA106000091AG14000GF103991011011008001001021KA1240M+02761MA1999999101201MD1999999-0051REMSYN016 333 10276 59005
0142832290999991993060612004-13017-038517FM-12+005199999V0202301N00101007501CN0100001N9+02521+02341101901ADDAA124002091AG10000AY151061AY221061GF105991051051008001001001KA1240N+02201MA1999999101301MD1999999+0031MW1021REMSYN022 333 20220 58003 60024
0095832290999991993060618004-13017-038517FM-12+005199999V0200901N00151220001CN0200001N9+02611+02191101601ADDAA106000091AG14000GF104991031051008001031001MA1999999101011MD1999999-0021REMSYN010 333 59002
0114832290999991993060712004-13017-038517FM-12+005199999V0200901N00151220001CN0200001N9+02641+02001101831ADDAA106000091AG14000GF101991011021008001001001KA1240N+02321MA1999999101231MD1999999-0071REMSYN016 333 20232 59007
0095832290999991993060718004-13017-038517FM-12+005199999V0201401N00261220001CN0200001N9+02661+02141101571ADDAA106000091AG14000GF101991011021008001001001MA1999999100971MD1999999-0041REMSYN010 333 59004
0142832290999991993060800004-13017-038517FM-12+005199999V0200901N00101007501CN0100001N9+02581+02271101741ADDAA124007091AG10002AY161061AY261061GF106991051051008001001021KA1240N+02251MA1999999101151MD1999999-0081MW1021REMSYN022 333 20225 59008 60074
0142832290999991993060812004-13017-038517FM-12+005199999V0200901N00101007501CN0100001N9+02581+02271101741ADDAA124007091AG10002AY161061AY261061GF106991051051008001001021KA1240N+02251MA1999999101151MD1999999-0081MW1021REMSYN022 333 20225 59008 60074
0115832290999991993060818004-13017-038517FM-12+005199999V0201401N00051220001CN0200001N9+02521+02231101551ADDAA106000191AG10000AY101061GF103991021031008001061011MA1999999100951MD1999999-0021MW1201REMSYN016 333 59002 69911
0134832290999991993060912004-13017-038517FM-12+005199999V0200501N00211220001CN0100001N9+02701+02201101671ADDAA124001091AG10000AY151061GF102991021031008001001001KA1240N+02291MA1999999101071MD1999999-0081MW1031REMSYN022 333 20229 59008 60014
0095832290999991993060918004-13017-038517FM-12+005199999V0200501N00151105001CN0100001N9+02621+02161101331ADDAA106000091AG14000GF105991031051008001001021MA1999999100731MD1999999-0221REMSYN010 333 59022
0114832290999991993061000004-13017-038517FM-12+005199999V0200501N00101012001CN9999999N9+02501+02151101571ADDAA106000091AG14000GF107991071081008001001001KA1240M+02841MA1999999100971MD1999999-0101REMSYN016 333 10284 59010
0142832290999991993061012004-13017-038517FM-12+005199999V0200501N00101007501CN0100001N9+02681+02181101801ADDAA102003091AG10002AY161061AY221061GF105991051021008001001001KA1240N+02381MA1999999101201MD1999999+0131MW1021REMSYN022 333 20238 58013 60036
0095832290999991993061018004-13017-038517FM-12+005199999V0201401N00151220001CN0200001N9+02701+02201101571ADDAA106000091AG14000GF102991011021008001001021MA1999999100981MD1999999+0251REMSYN010 333 58025
0114832290999991993061100004-13017-038517FM-12+005199999V0201401N00211220001CN9999999N9+02451+02151101731ADDAA106000091AG14000GF101991011021008001001001KA1240M+02801MA1999999101131MD1999999+0161REMSYN016 333 10280 58016
0114832290999991993061112004-13017-038517FM-12+005199999V0201401N00311004201CN0100001N9+02571+02151101861ADDAA106000091AG14000GF106991061051004501001001KA1240N+02411MA1999999101261MD1999999+0061REMSYN016 333 20241 58006
0095832290999991993061118004-13017-038517FM-12+005199999V0201401N00361045001CN0100001N9+02641+02141101681ADDAA106000091AG14000GF107991011031008001051001MA1999999101081MD1999999+0101REMSYN010 333 58010
0114832290999991993061200004-13017-038517FM-12+005199999V0201401N00361007501CN9999999N9+02521+02071101791ADDAA106000091AG14000GF106991061041008001001001KA1240M+02691MA1999999101191MD1999999+0061REMSYN016 333 10269 58006
0142832290999991993061212004-13017-038517FM-12+005199999V0201401N00151220001CN0200001N9+02441+02151101901ADDAA124000391AG10000AY151061AY201061GF104991031051008001001011KA1240N+02361MA1999999101301MD1999999+0041MW1021REMSYN022 333 20236 58004 69934
0095832290999991993061218004-13017-038517FM-12+005199999V0201401N00211220001CN0200001N9+02571+01991101641ADDAA106000091AG14000GF103991021021008001001061MA1999999101031MD1999999-0051REMSYN010 333 59005
0142832290999991993061300004-13017-038517FM-12+005199999V0201801N00311045001CN9999999N9+02271+02141101791ADDAA106001091AG10000AY111061AY211061GF108991021021008001021999KA1240M+02691MA1999999101191MD1999999+0001MW1201REMSYN022 333 10269 58000 60011
0142832290999991993061312004-13017-038517FM-12+005199999V0201401N00311004201CN0100001N9+02201+02121101921ADDAA124022091AG10002AY161061AY251061GF108991061071004501021999KA1240N+02151MA1999999101321MD1999999+0021MW1501REMSYN022 333 20215 58002 60224
0142832290999991993061318004-13017-038517FM-12+005199999V0201401N00211007501CN0040001N9+02561+02081101651ADDAA106005091AG10002AY161061AY221061GF107991061051008001001011MA1999999101051MD1999999+0021MW1021REMSYN016 333 58002 60051EQDQ01+999990APOSP 
