0114832420999991993010112004-12567-041383FM-12+042799999V0201801N00261004201CN0500001N9+02381+01911999999ADDAA106000091AG14000GF106991061021004501001001KA1240N+01911MA1999999096721MD1999999+0071REMSYN016 333 20191 58007
0095832420999991993010118004-12567-041383FM-12+042799999V0201801N00261220001CN0500001N9+02881+01971999999ADDAA106000091AG14000GF102991021001004501001001MA1999999096451MD1999999+0151REMSYN010 333 58015
0080832420999991993010415004-12567-041383FM-12+042799999V0200901N00311045001CN0200001N9+02781+01821101281ADDAA106000091AG14000GF105991011051008001031001MD1999999+0061REMSYN010 333 58006
0081832420999991993012212004-12567-041383FM-12+042799999V0200501N00051045001CN0200001N9+02221+02171999999ADDAA106000091AG14000GF108991041051004501021999MA1999999096451REMSYN010 333 58///
0081832420999991993012218004-12567-041383FM-12+042799999V0201801N00151045001CN0500001N9+02841+02311999999ADDAA106000091AG14000GF108991041021004501061999MA1999999096171REMSYN010 333 58///
0095832420999991993012312004-12567-041383FM-12+042799999V0201801N00101045001CN0200001N9+02281+02051999999ADDAA106000091AG14000GF108991041051004501021999MA1999999096651MD1999999+0201REMSYN010 333 58020
0095832420999991993012318004-12567-041383FM-12+042799999V0202301N00211004201CN0500001N9+02741+02171999999ADDAA106000091AG14000GF106991061021004501001001MA1999999096271MD1999999+0101REMSYN010 333 58010
0095832420999991993012412004-12567-041383FM-12+042799999V0203601N00101004201CN0200001N9+02281+02011999999ADDAA106000091AG14000GF107991071021004501001001MA1999999096531MD1999999-0121REMSYN010 333 59012
0095832420999991993012418004-12567-041383FM-12+042799999V0201401N00211105001CN0500001N9+02881+02031999999ADDAA106000091AG14000GF106991031021004501001081MA1999999096241MD1999999-0031REMSYN010 333 59003
0095832420999991993012512004-12567-041383FM-12+042799999V0201801N00211045001CN0200001N9+02281+01881999999ADDAA106000091AG14000GF108991041021004501061999MA1999999096751MD1999999+0221REMSYN010 333 58022
0095832420999991993012518004-12567-041383FM-12+042799999V0209991C00001220001CN0500001N9+02921+02061999999ADDAA106000091AG14000GF104991041021004501001001MA1999999096281MD1999999+0041REMSYN010 333 58004
0095832420999991993012612004-12567-041383FM-12+042799999V0201401N00211045001CN0200001N9+02361+01991999999ADDAA106000091AG14000GF108991041021004501061999MA1999999096731MD1999999-0021REMSYN010 333 59002
0095832420999991993012618004-12567-041383FM-12+042799999V0201801N00151105001CN0200001N9+03021+01891999999ADDAA106000091AG14000GF108991041021004501001071MA1999999096231MD1999999-0051REMSYN010 333 59005
0101832420999991993012712004-12567-041383FM-12+042799999V0201401N00211105001CN0200001N9+02321+01941999999ADDAA106000091AG14000GF108991041021004501001071MA1999999096811MD1999999+0081REMSYN016 333 20/// 58008
0095832420999991993012718004-12567-041383FM-12+042799999V0209991C00001045001CN0200001N9+02601+01891999999ADDAA106000091AG14000GF108991041051004501011999MA1999999096571MD1999999+0341REMSYN010 333 58034
0095832420999991993012812004-12567-041383FM-12+042799999V0201801N00101004201CN0500001N9+02321+01911999999ADDAA106000091AG14000GF106991061021004501001001MA1999999096761MD1999999-0051REMSYN010 333 59005
0095832420999991993012818004-12567-041383FM-12+042799999V0201801N00311045001CN0500001N9+02801+02031999999ADDAA106000091AG14000GF106991021011004501061081MA1999999096531MD1999999-0041REMSYN010 333 59004
0095832420999991993012912004-12567-041383FM-12+042799999V0201801N00151045001CN0200001N9+02301+02051999999ADDAA106000091AG14000GF108991031021004501061071MA1999999096711MD1999999-0051REMSYN010 333 59005
0095832420999991993012918004-12567-041383FM-12+042799999V0209991C00001045001CN0500001N9+02921+99999999999ADDAA106000091AG14000GF108991031031004501061071MA1999999096281MD1999999-0251REMSYN010 333 59025
0095832420999991993013012004-12567-041383FM-12+042799999V0201801N00151045001CN0200001N9+02341+02001999999ADDAA106000091AG14000GF108991041021004501071999MA1999999096621MD1999999-0091REMSYN010 333 59009
0095832420999991993013018004-12567-041383FM-12+042799999V0201801N00261220001CN0500001N9+02941+02031999999ADDAA106000091AG14000GF103991021031004501001081MA1999999096141MD1999999-0141REMSYN010 333 59014
0095832420999991993013112004-12567-041383FM-12+042799999V0201801N00361045001CN0200001N9+02401+01931999999ADDAA106000091AG14000GF108991041011004501061999MA1999999096631MD1999999+0011REMSYN010 333 58001
0095832420999991993013118004-12567-041383FM-12+042799999V0200501N00151105001CN0500001N9+02921+02121999999ADDAA106000091AG14000GF106991031031004501001081MA1999999096151MD1999999+0011REMSYN010 333 58001
0095832420999991993020112004-12567-041383FM-12+042799999V0201801N00051105001CN0500001N9+02461+01971999999ADDAA106000091AG14000GF108991041031004501001071MA1999999096621MD1999999-0011REMSYN010 333 59001
0095832420999991993020118004-12567-041383FM-12+042799999V0209991C00001220001CN0500001N9+02921+02041999999ADDAA106000091AG14000GF102991021011004501001001MA1999999096221MD1999999+0071REMSYN010 333 58007
0115832420999991993020212004-12567-041383FM-12+042799999V0202301N00101045001CN0200001N9+02341+02071999999ADDAA124002091AG10003AY161061GF108991041021004501061999MA1999999096691MD1999999+0071MW1031REMSYN016 333 58007 60024
0095832420999991993020218004-12567-041383FM-12+042799999V0200501N00101105001CN0500001N9+03001+02081999999ADDAA106000091AG14000GF106991031031004501001081MA1999999096221MD1999999+0001REMSYN010 333 58000
0115832420999991993020312004-12567-041383FM-12+042799999V0201801N00211004201CN0200001N9+02301+02051999999ADDAA124000391AG10000AY151061GF108991081021004501999999MA1999999096631MD1999999-0061MW1031REMSYN016 333 59006 69934
0115832420999991993020412004-12567-041383FM-12+042799999V0209991C00001045001CN0100001N9+02081+02031999999ADDAA124002091AG10003AY161061GF108991041051004501011999MA1999999096571MD1999999-0061MW1031REMSYN016 333 59006 60024
0095832420999991993020418004-12567-041383FM-12+042799999V0201401N00261105001CN0500001N9+03001+02241999999ADDAA106000091AG14000GF106991031011004501001081MA1999999096101MD1999999-0031REMSYN010 333 59003
0126832420999991993020512004-12567-041383FM-12+042799999V0209991C00001045001CN0100001N9+02101+02071999999ADDAA124000891AA299001091AG10000AY151061GF108991041051004501011999MA1999999098671MD1999999+0301MW1021REMSYN016 333 58030 69984
0126832420999991993020612004-12567-041383FM-12+042799999V0201801N00051004201CN0200001N9+02281+02161999999ADDAA124000291AA299000191AG10000AY151061GF108991081051004501999999MA1999999096651MD1999999-0221MW1021REMSYN016 333 59022 69924
0095832420999991993020618004-12567-041383FM-12+042799999V0202301N00101045001CN0500001N9+02701+02131999999ADDAA106000091AG14000GF108991031051004501061071MA1999999096391MD1999999+0241REMSYN010 333 58024
0140832420999991993020712004-12567-041383FM-12+042799999V0209999999999009001CN0040001N9+02701+02101101351ADDAA124000291AA299000191AG10000AY151061AY251061GF108991081081004501999999MA1999999098441MD1999999-0021MW1031REMSYN022 333 20/// 59002 69924
0114832420999991993020718004-12567-041383FM-12+042799999V0209991C00001004201CN0500001N9+02941+02161999999ADDAA106000091AG14000GF105991051031004501001001MA1999999096292MD1999999-0101REMSYN010 333 59010EQDQ01+096293APOSP 
0095832420999991993020812004-12567-041383FM-12+042799999V0209991C00001004201CN0200001N9+02321+02051999999ADDAA106000091AG14000GF108991081051004501999999MA1999999096731MD1999999+0101REMSYN010 333 58010
0095832420999991993020818004-12567-041383FM-12+042799999V0201801N00101045001CN0200001N9+02601+02121999999ADDAA106000091AG14000GF108991041051004501011999MA1999999096351MD1999999+0061REMSYN010 333 58006
0095832420999991993021012004-12567-041383FM-12+042799999V0202301N00151045001CN0200001N9+02401+02011999999ADDAA106000091AG14000GF108991041051004501011999MA1999999096681MD1999999-0081REMSYN010 333 59008
0095832420999991993021018004-12567-041383FM-12+042799999V0201801N00151220001CN0500001N9+02881+02051999999ADDAA106000091AG14000GF102991021011004501001001MA1999999096261MD1999999-0161REMSYN010 333 59016
0095832420999991993021112004-12567-041383FM-12+042799999V0200501N00051045001CN0200001N9+02301+01921999999ADDAA106000091AG14000GF108991041051004501021999MA1999999096631MD1999999-0051REMSYN010 333 59005
0095832420999991993021118004-12567-041383FM-12+042799999V0202301N00261105001CN0500001N9+02921+02041999999ADDAA106000091AG14000GF108991041011004501001071MA1999999096141MD1999999-0121REMSYN010 333 59012
0095832420999991993021212004-12567-041383FM-12+042799999V0201801N00151045001CN0200001N9+02161+02111999999ADDAA106000091AG14000GF108991041051004501021999MA1999999096571MD1999999-0061REMSYN010 333 59006
0095832420999991993021218004-12567-041383FM-12+042799999V0201401N00101220001CN0500001N9+03121+02081999999ADDAA106000091AG14000GF102991021031004501001001MA1999999096011MD1999999-0131REMSYN010 333 59013
0121832420999991993021312004-12567-041383FM-12+042799999V0201801N00151045001CN0200001N9+02401+02111999999ADDAA124000591AG10000AY151061GF108991041051004501021999MA1999999096321MD1999999-0251MW1031REMSYN022 333 20/// 59025 69954
0095832420999991993021318004-12567-041383FM-12+042799999V0209991C00001045001CN0500001N9+02861+02191999999ADDAA106000091AG14000GF108991031031004501011071MA1999999095841MD1999999-0171REMSYN010 333 59017
0115832420999991993021412004-12567-041383FM-12+042799999V0202301N00101045001CN0200001N9+02281+02161999999ADDAA124044091AG10003AY161061GF108991041011004501021999MA1999999096401MD1999999+0081MW1031REMSYN016 333 58008 60444
0095832420999991993021418004-12567-041383FM-12+042799999V0201801N00151045001CN0500001N9+03001+02191999999ADDAA106000091AG14000GF108991031031004501041071MA1999999096021MD1999999+0181REMSYN010 333 58018
0095832420999991993021512004-12567-041383FM-12+042799999V0209991C00001045001CN0200001N9+02301+02071999999ADDAA106000091AG14000GF108991041051004501021999MA1999999096401MD1999999+0001REMSYN010 333 58000
0095832420999991993021518004-12567-041383FM-12+042799999V0201801N00151045001CN0200001N9+02841+02121999999ADDAA106000091AG14000GF108991031011004501031071MA1999999096121MD1999999+0101REMSYN010 333 58010
0095832420999991993021612004-12567-041383FM-12+042799999V0209991C00001004201CN0200001N9+02221+02011999999ADDAA106000091AG14000GF108991081051004501999999MA1999999096411MD1999999+0011REMSYN010 333 58001
0095832420999991993021618004-12567-041383FM-12+042799999V0202301N00101220001CN0500001N9+03021+02101999999ADDAA106000091AG14000GF104991041031004501001001MA1999999095941MD1999999-0181REMSYN010 333 59018
0101832420999991993021712004-12567-041383FM-12+042799999V0201401N00211045001CN0200001N9+02421+02071999999ADDAA106000091AG14000GF108991041051004501011999MA1999999096321MD1999999-0091REMSYN016 333 20/// 59009
0095832420999991993021718004-12567-041383FM-12+042799999V0200501N00151105001CN0500001N9+02941+02111999999ADDAA106000091AG14000GF108991041031004501001071MA1999999096041MD1999999+0101REMSYN010 333 58010
0115832420999991993021812004-12567-041383FM-12+042799999V0201801N00211045001CN0200001N9+02281+02111999999ADDAA124000191AG10000AY151061GF108991041051004501021999MA1999999096371MD1999999+0051MW1021REMSYN016 333 58005 69914
0095832420999991993021818004-12567-041383FM-12+042799999V0201801N00051045001CN0500001N9+02601+02121999999ADDAA106000091AG14000GF108991031031004501061031MA1999999096111MD1999999+0071REMSYN010 333 58007
0101832420999991993021912004-12567-041383FM-12+042799999V0201801N00261004201CN0200001N9+02421+01991999999ADDAA106000091AG14000GF108991081031004501999999MA1999999096631MD1999999+0261REMSYN016 333 20/// 58026
0095832420999991993021918004-12567-041383FM-12+042799999V0201801N00151004201CN0500001N9+03041+01971999999ADDAA106000091AG14000GF106991061021004501001001MA1999999096121MD1999999+0011REMSYN010 333 58001
0095832420999991993022012004-12567-041383FM-12+042799999V0209991C00001045001CN0001001N9+02401+01971999999ADDAA106000091AG14000GF108991041051004501021999MA1999999096471MD1999999+0111REMSYN010 333 58011
0095832420999991993022018004-12567-041383FM-12+042799999V0202301N00051220001CN0500001N9+03001+01911999999ADDAA106000091AG14000GF102991021011004501001001MA1999999096341MD1999999+0221REMSYN010 333 58022
0095832420999991993022112004-12567-041383FM-12+042799999V0201801N00211045001CN0500001N9+02481+01981999999ADDAA106000091AG14000GF108991041021004501061999MA1999999096741MD1999999+0001REMSYN010 333 58000
0108832420999991993022118004-12567-041383FM-12+042799999V0209991C00001004201CN0150001N9+02201+02201101321ADDAA106001091AG10009AY191061AY221061GF107991071031004501001001MD1999999+0201MW1951REMSYN016 333 58020 60011
0101832420999991993022212004-12567-041383FM-12+042799999V0202301N00101045001CN0200001N9+02401+02031999999ADDAA106000091AG14000GF108991041051004501011999MA1999999096721MD1999999-0021REMSYN016 333 20/// 59002
0095832420999991993022218004-12567-041383FM-12+042799999V0202301N00101220001CN0500001N9+03101+02181999999ADDAA106000091AG14000GF102991021011004501001001MA1999999096221MD1999999-0281REMSYN010 333 59028
0095832420999991993022312004-12567-041383FM-12+042799999V0201401N00101045001CN0200001N9+02361+02011999999ADDAA106000091AG14000GF108991041051004501021999MA1999999096821MD1999999+0101REMSYN010 333 58010
0095832420999991993022318004-12567-041383FM-12+042799999V0201801N00311220001CN0500001N9+03081+02041999999ADDAA106000091AG14000GF102991021011004501001001MA1999999096031MD1999999-0191REMSYN010 333 59019
0095832420999991993022412004-12567-041383FM-12+042799999V0202301N00151220001CN0500001N9+02521+02091999999ADDAA106000091AG14000GF103991031021004501001001MA1999999096641MD1999999-0181REMSYN010 333 59018
0095832420999991993022418004-12567-041383FM-12+042799999V0209991C00001105001CN0500001N9+03081+02101999999ADDAA106000091AG14000GF108991041031004501001071MA1999999096111MD1999999+0081REMSYN010 333 58008
0101832420999991993022512004-12567-041383FM-12+042799999V0209991C00001045001CN0200001N9+02421+02051999999ADDAA106000091AG14000GF108991041051004501021999MA1999999096521MD1999999-0121REMSYN016 333 20/// 59012
0095832420999991993022612004-12567-041383FM-12+042799999V0209991C00001045001CN0200001N9+02481+02091999999ADDAA106000091AG14000GF108991041031004501051999MA1999999096601MD1999999+0081REMSYN010 333 58008
0111832420999991993022618004-12567-041383FM-12+042799999V0209991C00001220001CN0500001N9+03101+02001999999ADDAA106000091AG14000GA1001+999999999GF100991001001999999001001MA1999999096091MD1999999-0031REMSYN010 333 59003
0095832420999991993022712004-12567-041383FM-12+042799999V0202301N00101045001CN0200001N9+02441+02011999999ADDAA106000091AG14000GF108991041051004501011999MA1999999096401MD1999999-0201REMSYN010 333 59020
0095832420999991993022718004-12567-041383FM-12+042799999V0209991C00001220001CN0500001N9+03211+02061999999ADDAA106000091AG14000GF102991021031004501001001MA1999999096171MD1999999+0081REMSYN010 333 58008
0095832420999991993022812004-12567-041383FM-12+042799999V0201801N00101045001CN0200001N9+02301+02111999999ADDAA106000091AG14000GF108991041051004501021999MA1999999096621MD1999999+0221REMSYN010 333 58022
0095832420999991993022818004-12567-041383FM-12+042799999V0201401N00151220001CN0500001N9+03061+02051999999ADDAA106000091AG14000GF102991021031004501001001MA1999999096111MD1999999-0061REMSYN010 333 59006
0165832420999991993030103004-12567-041383FM-12+042799999V0202701N00361007201CN0100001N9+99999+99999102381ADDAA106000091AG14000GA1081+007209059GF108991081051008001999999MD1710011+9999REMSYN044 333 44056 55000 88624 91110 555 21139 7000/EQDQ01 -01113ATOT  Q02 -01313ATOD  
0095832420999991993030112004-12567-041383FM-12+042799999V0209991C00001045001CN0200001N9+02541+02091999999ADDAA106000091AG14000GF108991041051004501011999MA1999999096321MD1999999-0301REMSYN010 333 59030
0095832420999991993030118004-12567-041383FM-12+042799999V0209991C00001220001CN0500001N9+03141+02001999999ADDAA106000091AG14000GF102991021031004501001001MA1999999095891MD1999999-0221REMSYN010 333 59022
0101832420999991993030212004-12567-041383FM-12+042799999V0200501N00101045001CN0200001N9+02441+02011999999ADDAA106000091AG14000GF108991041051004501011999MA1999999096501MD1999999+0181REMSYN016 333 20/// 58018
0095832420999991993030218004-12567-041383FM-12+042799999V0201401N00101220001CN0500001N9+03161+02051999999ADDAA106000091AG14000GF102991021031004501001001MA1999999096071MD1999999+0181REMSYN010 333 58018
0101832420999991993030312004-12567-041383FM-12+042799999V0209991C00001220001CN0500001N9+02541+01951999999ADDAA106000091AG14000GF103991031031004501001001MA1999999096591MD1999999+0091REMSYN016 333 20/// 58009
0095832420999991993030318004-12567-041383FM-12+042799999V0201401N00151220001CN0500001N9+03101+01771999999ADDAA106000091AG14000GF102991021031004501001001MA1999999096301MD1999999+0231REMSYN010 333 58023
0101832420999991993030412004-12567-041383FM-12+042799999V0209991C00001045001CN0200001N9+02401+02151999999ADDAA106000091AG14000GF108991041051004501021999MA1999999096721MD1999999+0131REMSYN016 333 20/// 58013
0095832420999991993030418004-12567-041383FM-12+042799999V0202301N00311220001CN0500001N9+03241+01821999999ADDAA106000091AG14000GF104991041011004501001001MA1999999096211MD1999999-0091REMSYN010 333 59009
0095832420999991993030512004-12567-041383FM-12+042799999V0209991C00001045001CN0200001N9+02421+02111999999ADDAA106000091AG14000GF108991041051004501021999MA1999999096701MD1999999-0021REMSYN010 333 59002
0123832420999991993030518004-12567-041383FM-12+042799999V0201401N00311004201CN0200001N9+02601+02331999999ADDAA106002091AG10003AY161061AY221061GF108991081021004501999999MA1999999096471MD1999999+0261MW1031REMSYN016 333 58026 60021
0107832420999991993030612004-12567-041383FM-12+042799999V0201801N00311004201CN0200001N9+02301+01921999999ADDAA124002091AG10000GF108991081021004501999999MA1999999096741MD1999999+0041REMSYN022 333 20/// 58004 60024
0095832420999991993030618004-12567-041383FM-12+042799999V0209991C00001004201CN0500001N9+03101+02031999999ADDAA106000091AG14000GF105991051021004501001001MA1999999096341MD1999999-0131REMSYN010 333 59013
0101832420999991993030712004-12567-041383FM-12+042799999V0201401N00211045001CN0200001N9+02421+02171999999ADDAA106000091AG14000GF108991041051004501021999MA1999999096881MD1999999+0141REMSYN016 333 20/// 58014
0095832420999991993030718004-12567-041383FM-12+042799999V0201401N00101004201CN0500001N9+03181+01941999999ADDAA106000091AG14000GF106991061021004501001001MA1999999096381MD1999999+0041REMSYN010 333 58004
0101832420999991993030812004-12567-041383FM-12+042799999V0200501N00101004201CN0200001N9+02541+02091999999ADDAA124003091AG10000GF108991081021004501999999MA1999999096701MD1999999-0181REMSYN016 333 59018 60034
0095832420999991993030818004-12567-041383FM-12+042799999V0209991C00001220001CN0500001N9+03141+01971999999ADDAA106000091AG14000GF102991021021004501001001MA1999999096311MD1999999-0071REMSYN010 333 59007
0095832420999991993030918004-12567-041383FM-12+042799999V0209999999999220001CN0200001N9+03401+02201999999ADDAA106000091AG14000GF104991041021017501001001MA1999999098001MD1999999-0141REMSYN010 333 59014
0095832420999991993031012004-12567-041383FM-12+042799999V0201401N00101045001CN0200001N9+02381+01971999999ADDAA106000091AG14000GF108991041051004501021999MA1999999096641MD1999999-0071REMSYN010 333 59007
0080832420999991993031018004-12567-041383FM-12+042799999V0209991C00001220001CN0200001N9+03301+01461100921ADDAA106000091AG14000GF104991041011008001001001MD1999999+0031REMSYN010 333 58003
0132832420999991993031021004-12567-041383FM-12+042799999V0209991C00001220001CN0100001N9-00122-00292102842ADDAG12000GA1001+999999999GF100991001001999999001001MA1999999100852MD1810031+9999EQDQ01+027203ATOT  Q02+027033ATOD  Q03+102843APOSLP
0101832420999991993031112004-12567-041383FM-12+042799999V0201401N00101045001CN0200001N9+02341+01871999999ADDAA106000091AG14000GF108991041051004501011999MA1999999096601MD1999999-0041REMSYN016 333 20/// 59004
0095832420999991993031118004-12567-041383FM-12+042799999V0209991C00001220001CN0500001N9+03201+01821999999ADDAA106000091AG14000GF102991021021004501001001MA1999999096131MD1999999+0001REMSYN010 333 58000
0101832420999991993031212004-12567-041383FM-12+042799999V0209991C00001045001CN0200001N9+02381+01801999999ADDAA106000091AG14000GF108991041051004501021999MA1999999096721MD1999999+0121REMSYN016 333 20/// 58012
0095832420999991993031218004-12567-041383FM-12+042799999V0202301N00261004201CN0500001N9+03081+01951999999ADDAA106000091AG14000GF107991071031004501001001MA1999999096121MD1999999-0011REMSYN010 333 59001
0231832420999991993031300004-12567-041383FM-12+042799999V0203501N00361220001CN0100001N9+99999+99999099341ADDAG12003AY181061AY231061GA1001+999999999GF100991001001999999001001MA1999999999999MD1210381+9999MW1361REMSYN020 333 91111 555 1/125EQDQ01+024893ATOT  Q02+024643ATOD  Q03+099173APOSP Q04 -02433ATOT  Q05 -02683ATOD  Q06 099173APOSP 
0101832420999991993031312004-12567-041383FM-12+042799999V0201801N00151105001CN0500001N9+02441+01971999999ADDAA106000091AG14000GF108991041011004501001071MA1999999096721MD1999999+0001REMSYN016 333 20/// 58000
0095832420999991993031318004-12567-041383FM-12+042799999V0201401N00151220001CN0500001N9+03221+01841999999ADDAA106000091AG14000GF104991041011004501001001MA1999999096241MD1999999+0121REMSYN010 333 58012
0095832420999991993031412004-12567-041383FM-12+042799999V0201801N00101045001CN0200001N9+02401+01971999999ADDAA106000091AG14000GF108991041051004501011999MA1999999096721MD1999999+0001REMSYN010 333 58000
0095832420999991993031418004-12567-041383FM-12+042799999V0200501N00101220001CN0500001N9+03201+01961999999ADDAA106000091AG14000GF102991021011004501001001MA1999999096011MD1999999-0231REMSYN010 333 59023
0095832420999991993031512004-12567-041383FM-12+042799999V0209991C00001004201CN0200001N9+02461+01971999999ADDAA106000091AG14000GF108991081051004501999999MA1999999096871MD1999999+0151REMSYN010 333 58015
0101832420999991993031612004-12567-041383FM-12+042799999V0201801N00051045001CN0200001N9+02321+02021999999ADDAA106000091AG14000GF108991041051004501011999MA1999999096431MD1999999-0441REMSYN016 333 20/// 59044
0095832420999991993031618004-12567-041383FM-12+042799999V0201801N00051220001CN0500001N9+03061+02021999999ADDAA106000091AG14000GF102991011011004501001081MA1999999095991MD1999999-0011REMSYN010 333 59001
0101832420999991993031712004-12567-041383FM-12+042799999V0209991C00001045001CN0200001N9+02261+02071999999ADDAA106000091AG14000GF108991041051004501021999MA1999999096651MD1999999+0221REMSYN016 333 20/// 58022
0095832420999991993031718004-12567-041383FM-12+042799999V0209991C00001105001CN0500001N9+03041+02201999999ADDAA106000091AG14000GF108991041011004501001071MA1999999096041MD1999999+0051REMSYN010 333 58005
0095832420999991993031812004-12567-041383FM-12+042799999V0201801N00151004201CN0200001N9+02421+02071999999ADDAA106000091AG14000GF108991081021004501999999MA1999999096721MD1999999+0071REMSYN010 333 58007
0095832420999991993031818004-12567-041383FM-12+042799999V0209991C00001004201CN0500001N9+03241+02001999999ADDAA106000091AG14000GF106991061021004501001001MA1999999096211MD1999999+0171REMSYN010 333 58017
0095832420999991993031912004-12567-041383FM-12+042799999V0201801N00151004201CN0200001N9+02381+02011999999ADDAA106000091AG14000GF108991081021004501999999MA1999999096721MD1999999+0001REMSYN010 333 58000
0095832420999991993031918004-12567-041383FM-12+042799999V0202301N00101220001CN0500001N9+03181+02071999999ADDAA106000091AG14000GF102991021011004501001001MA1999999096191MD1999999-0021REMSYN010 333 59002
0101832420999991993032012004-12567-041383FM-12+042799999V0209991C00001045001CN0200001N9+02401+02031999999ADDAA106000091AG14000GF108991041051004501021999MA1999999096721MD1999999+0001REMSYN016 333 20/// 58000
0114832420999991993032018004-12567-041383FM-12+042799999V0202301N00151220001CN0500001N9+03281+02071999999ADDAA106000091AG14000GF102991021031004501001001MA1999999095912MD1999999-0281REMSYN010 333 59028EQDQ01+095913APOSP 
0099832420999991993032112004-12567-041383FM-12+042799999V0201401N00151220001CN0500001N9+02581+02121999999ADDAA106000091AG14000GF103991031021004501001001MD1999999+0021REMSYN010 333 58002EQDQ01+029741APOSP 
0095832420999991993032118004-12567-041383FM-12+042799999V0202301N00211004201CN0500001N9+03321+02001999999ADDAA106000091AG14000GF105991051031004501001001MA1999999096191MD1999999+0281REMSYN010 333 58028
0095832420999991993032212004-12567-041383FM-12+042799999V0201801N00211004201CN0200001N9+02501+01941999999ADDAA106000091AG14000GF108991081021004501999999MA1999999096691MD1999999-0051REMSYN010 333 59005
0095832420999991993032218004-12567-041383FM-12+042799999V0201801N00211220001CN0500001N9+03121+01821999999ADDAA106000091AG14000GF103991031031004501001001MA1999999096281MD1999999+0091REMSYN010 333 58009
0101832420999991993032412004-12567-041383FM-12+042799999V0209991C00001220001CN0500001N9+02521+02021999999ADDAA106000091AG14000GF102991021011004501001001MA1999999096681MD1999999+0011REMSYN016 333 20/// 58001
0095832420999991993032418004-12567-041383FM-12+042799999V0201801N00151220001CN0500001N9+03241+01931999999ADDAA106000091AG14000GF103991031031004501001001MA1999999095971MD1999999-0361REMSYN010 333 59036
0095832420999991993032512004-12567-041383FM-12+042799999V0201401N00151045001CN0200001N9+02501+02131999999ADDAA106000091AG14000GF108991041051004501011999MA1999999096511MD1999999-0171REMSYN010 333 59017
0095832420999991993032518004-12567-041383FM-12+042799999V0209991C00001220001CN0500001N9+03281+02401999999ADDAA106000091AG14000GF102991021021004501001001MA1999999096001MD1999999+0031REMSYN010 333 58003
0095832420999991993032612004-12567-041383FM-12+042799999V0200901N00101004201CN0500001N9+02521+02091999999ADDAA106000091AG14000GF105991051031004501001001MA1999999096591MD1999999+0031REMSYN010 333 58003
0095832420999991993032712004-12567-041383FM-12+042799999V0200501N00261045001CN0200001N9+02461+02071999999ADDAA106000091AG14000GF108991031031004501051081MA1999999096371MD1999999-0221REMSYN010 333 59022
0095832420999991993032718004-12567-041383FM-12+042799999V0201801N00151220001CN0500001N9+03201+02061999999ADDAA106000091AG14000GF102991021011004501001001MA1999999095871MD1999999-0241REMSYN010 333 59024
0101832420999991993032812004-12567-041383FM-12+042799999V0201401N00151045001CN0200001N9+02441+01971999999ADDAA106000091AG14000GF108991041051004501011999MA1999999096501MD1999999+0131REMSYN016 333 20/// 58013
0095832420999991993032818004-12567-041383FM-12+042799999V0202301N00101220001CN0500001N9+03161+02051999999ADDAA106000091AG14000GF102991021031004501001001MA1999999095911MD1999999+0041REMSYN010 333 58004
0095832420999991993032912004-12567-041383FM-12+042799999V0209991C00001045001CN0200001N9+02481+02111999999ADDAA106000091AG14000GF108991041051004501021999MA1999999096591MD1999999+0091REMSYN010 333 58009
0095832420999991993032918004-12567-041383FM-12+042799999V0209991C00001105001CN0500001N9+03241+02161999999ADDAA106000091AG14000GF108991041031004501001071MA1999999095991MD1999999+0081REMSYN010 333 58008
0095832420999991993033012004-12567-041383FM-12+042799999V0200901N00101045001CN0200001N9+02541+02091999999ADDAA106000091AG14000GF108991041051004501011999MA1999999096451MD1999999-0141REMSYN010 333 59014
0095832420999991993033018004-12567-041383FM-12+042799999V0201401N00211220001CN0500001N9+03161+02141999999ADDAA106000091AG14000GF102991021011004501001001MA1999999096091MD1999999+0101REMSYN010 333 58010
0095832420999991993033112004-12567-041383FM-12+042799999V0201401N00051045001CN0200001N9+02381+02071999999ADDAA106000091AG14000GF108991041051004501021999MA1999999096621MD1999999+0171REMSYN010 333 58017
0101832420999991993040112004-12567-041383FM-12+042799999V0203201N00101045001CN0200001N9+02461+02131999999ADDAA106000091AG14000GF108991041051004501021999MA1999999096461MD1999999-0161REMSYN016 333 20/// 59016
0095832420999991993040118004-12567-041383FM-12+042799999V0201401N00151220001CN0500001N9+03141+02161999999ADDAA106000091AG14000GF102991021011004501001001MA1999999096001MD1999999-0011REMSYN010 333 59001
0095832420999991993040212004-12567-041383FM-12+042799999V0201401N00051045001CN0200001N9+02441+02131999999ADDAA106000091AG14000GF108991041051004501021999MA1999999096391MD1999999-0071REMSYN010 333 59007
0095832420999991993040218004-12567-041383FM-12+042799999V0201401N00051220001CN0500001N9+03061+02111999999ADDAA106000091AG14000GF102991011011004501001081MA1999999095921MD1999999-0081REMSYN010 333 59008
0095832420999991993040312004-12567-041383FM-12+042799999V0200501N00051045001CN0200001N9+02461+02191999999ADDAA106000091AG14000GF108991041051004501021999MA1999999096201MD1999999-0191REMSYN010 333 59019
0095832420999991993040318004-12567-041383FM-12+042799999V0201801N00151220001CN0500001N9+03181+02071999999ADDAA106000091AG14000GF101991011011004501001001MA1999999095671MD1999999-0251REMSYN010 333 59025
0095832420999991993040412004-12567-041383FM-12+042799999V0209991C00001045001CN0200001N9+02421+02071999999ADDAA106000091AG14000GF108991041051004501021999MA1999999096241MD1999999+0041REMSYN010 333 58004
0080832420999991993040418004-12567-041383FM-12+042799999V0201001N00671220001CN0200001N9+03101+02281100801ADDAA106000091AG14000GF102991021011008001001001MD1999999+0061REMSYN010 333 58006
0101832420999991993040512004-12567-041383FM-12+042799999V0209991C00001045001CN0200001N9+02321+02181999999ADDAA106000091AG14000GF108991041051004501021999MA1999999096421MD1999999+0181REMSYN016 333 20/// 58018
0095832420999991993040518004-12567-041383FM-12+042799999V0202301N00051220001CN0500001N9+03101+02291999999ADDAA106000091AG14000GF104991041031004501001001MA1999999095691MD1999999-0111REMSYN010 333 59011
0095832420999991993040612004-12567-041383FM-12+042799999V0209991C00001045001CN0200001N9+02361+02131999999ADDAA106000091AG14000GF108991041021004501061999MA1999999096601MD1999999+0181REMSYN010 333 58018
0095832420999991993040618004-12567-041383FM-12+042799999V0209991C00001045001CN0500001N9+03041+02121999999ADDAA106000091AG14000GF108991031021004501031071MA1999999096071MD1999999+0381REMSYN010 333 58038
0095832420999991993040712004-12567-041383FM-12+042799999V0201401N00101045001CN0500001N9+02301+01901999999ADDAA106000091AG14000GF108991041011004501061999MA1999999096411MD1999999-0191REMSYN010 333 59019
0111832420999991993040718004-12567-041383FM-12+042799999V0209991C00001220001CN0500001N9+03221+01911999999ADDAA106000091AG14000GA1001+999999999GF100991001001999999001001MA1999999096031MD1999999-0041REMSYN010 333 59004
0095832420999991993040800004-12567-041383FM-12+042799999V0202301N00051045001CN0200001N9+02441+02091999999ADDAA106000091AG14000GF108991041051004501021999MA1999999096521MD1999999+0111REMSYN010 333 58011
0095832420999991993040812004-12567-041383FM-12+042799999V0202301N00051045001CN0200001N9+02441+02091999999ADDAA106000091AG14000GF108991041051004501021999MA1999999096521MD1999999+0111REMSYN010 333 58011
0111832420999991993040818004-12567-041383FM-12+042799999V0201401N00151220001CN0500001N9+03321+02101999999ADDAA106000091AG14000GA1001+999999999GF100991001001999999001001MA1999999095751MD1999999-0281REMSYN010 333 59028
0095832420999991993040912004-12567-041383FM-12+042799999V0200901N00101105001CN0500001N9+02641+02331999999ADDAA106000091AG14000GF108991041011004501001071MA1999999096271MD1999999-0251REMSYN010 333 59025
0095832420999991993041012004-12567-041383FM-12+042799999V0201401N00151105001CN0500001N9+02721+02321999999ADDAA106000091AG14000GF106991031011004501001071MA1999999096641MD1999999+0291REMSYN010 333 58029
0101832420999991993041112004-12567-041383FM-12+042799999V0201401N00151045001CN0200001N9+02441+01971999999ADDAA106000091AG14000GF108991041051004501021999MA1999999096761MD1999999+0201REMSYN016 333 20/// 58020
0095832420999991993041118004-12567-041383FM-12+042799999V0201401N00101105001CN0500001N9+03161+01821999999ADDAA106000091AG14000GF108991041031004501001071MA1999999096211MD1999999+0151REMSYN010 333 58015
0101832420999991993041212004-12567-041383FM-12+042799999V0202301N00261045001CN0200001N9+02481+01981999999ADDAA106000091AG14000GF108991041051004501021999MA1999999096701MD1999999-0061REMSYN016 333 20/// 59006
0095832420999991993041218004-12567-041383FM-12+042799999V0201801N00261004201CN0500001N9+03101+02001999999ADDAA106000091AG14000GF106991061031004501001001MA1999999096281MD1999999+0071REMSYN010 333 58007
0101832420999991993041312004-12567-041383FM-12+042799999V0209991C00001045001CN0200001N9+02101+01741999999ADDAA106000091AG14000GF108991041051004501021999MA1999999096651MD1999999-0051REMSYN016 333 20/// 59005
0095832420999991993041318004-12567-041383FM-12+042799999V0209991C00001220001CN0500001N9+02941+02161999999ADDAA106000091AG14000GF102991021031004501001001MA1999999096131MD1999999-0151REMSYN010 333 59015
0095832420999991993041418004-12567-041383FM-12+042799999V0202301N00101220001CN0500001N9+03161+02081999999ADDAA106000091AG14000GF104991041031004501001001MA1999999096091MD1999999-0041REMSYN010 333 59004
0101832420999991993041512004-12567-041383FM-12+042799999V0201801N00051045001CN0200001N9+02381+02071999999ADDAA106000091AG14000GF108991041051004501011999MA1999999096611MD1999999+0051REMSYN016 333 20/// 58005
0095832420999991993041518004-12567-041383FM-12+042799999V0202301N00311220001CN0500001N9+03121+02171999999ADDAA106000091AG14000GF104991041031004501001001MA1999999096211MD1999999+0121REMSYN010 333 58012
0101832420999991993041612004-12567-041383FM-12+042799999V0201401N00151045001CN0200001N9+02361+01991999999ADDAA106000091AG14000GF108991041051004501021999MA1999999096681MD1999999+0071REMSYN016 333 20/// 58007
0095832420999991993041618004-12567-041383FM-12+042799999V0202301N00151004201CN0500001N9+03101+02001999999ADDAA106000091AG14000GF105991051031004501001001MA1999999096401MD1999999+0191REMSYN010 333 58019
0101832420999991993041712004-12567-041383FM-12+042799999V0201401N00311220001CN0500001N9+02461+01971999999ADDAA106000091AG14000GF104991041031004501001001MA1999999096701MD1999999+0021REMSYN016 333 20/// 58002
0111832420999991993041718004-12567-041383FM-12+042799999V0203201N001019999999N0500001N9+03081+02041999999ADDAA106000091AG14000GA1091+999999999GF109991091999999999999999MA1999999096111MD1999999-0291REMSYN010 333 59029
0101832420999991993041812004-12567-041383FM-12+042799999V0201401N00051045001CN0200001N9+02381+02071999999ADDAA106000091AG14000GF108991031011004501061071MA1999999096621MD1999999-0081REMSYN016 333 20/// 59008
0095832420999991993041818004-12567-041383FM-12+042799999V0202301N00261105001CN0500001N9+03141+02001999999ADDAA106000091AG14000GF108991041031004501001071MA1999999096011MD1999999-0101REMSYN010 333 59010
0101832420999991993042112004-12567-041383FM-12+042799999V0209991C00001045001CN0200001N9+02221+02081999999ADDAA106000091AG14000GF108991041051004501011999MA1999999096711MD1999999+0041REMSYN016 333 20/// 58004
0095832420999991993042118004-12567-041383FM-12+042799999V0201801N00151004201CN0500001N9+03041+02061999999ADDAA106000091AG14000GF106991061031004501001001MA1999999096251MD1999999-0121REMSYN010 333 59012
0095832420999991993042212004-12567-041383FM-12+042799999V0201401N00311004201CN0200001N9+02441+02091999999ADDAA106000091AG14000GF107991071021004501001001MA1999999096701MD1999999-0011REMSYN010 333 59001
0095832420999991993042218004-12567-041383FM-12+042799999V0201801N00051004201CN0500001N9+03201+02121999999ADDAA106000091AG14000GF106991061031004501001001MA1999999096081MD1999999-0171REMSYN010 333 59017
0121832420999991993042312004-12567-041383FM-12+042799999V0202301N00101004201CN0200001N9+02241+02161999999ADDAA124000391AG10000AY151061GF108991081021004501999999MA1999999096721MD1999999+0021MW1031REMSYN022 333 20/// 58002 69934
0095832420999991993042318004-12567-041383FM-12+042799999V0201401N00411220001CN0500001N9+03041+02031999999ADDAA106000091AG14000GF102991021031004501001001MA1999999096021MD1999999-0061REMSYN010 333 59006
0095832420999991993042412004-12567-041383FM-12+042799999V0201401N00101004201CN0500001N9+02481+02051999999ADDAA106000091AG14000GF105991051011004501001001MA1999999096621MD1999999-0101REMSYN010 333 59010
0095832420999991993042418004-12567-041383FM-12+042799999V0209991C00001220001CN0500001N9+03201+02181999999ADDAA106000091AG14000GF103991031031004501001001MA1999999096091MD1999999+0071REMSYN010 333 58007
0101832420999991993042512004-12567-041383FM-12+042799999V0200501N00101045001CN0200001N9+02461+02091999999ADDAA106000091AG14000GF108991041051004501021999MA1999999096611MD1999999-0011REMSYN016 333 20/// 59001
0095832420999991993042518004-12567-041383FM-12+042799999V0209991C00001105001CN0500001N9+03081+02241999999ADDAA106000091AG14000GF108991041031004501001071MA1999999096111MD1999999+0021REMSYN010 333 58002
0095832420999991993042618004-12567-041383FM-12+042799999V0209991C00001105001CN0500001N9+02861+02311999999ADDAA106000091AG14000GF108991041031004501001071MA1999999096051MD1999999-0061REMSYN010 333 59006
0101832420999991993042812004-12567-041383FM-12+042799999V0201801N00261045001CN0100001N9+01381+99999999999ADDAA106000091AG14000GF108991041051004501021999MA1999999096741MD1999999+0371REMSYN016 333 20/// 58037
0095832420999991993042818004-12567-041383FM-12+042799999V0201801N00361105001CN0500001N9+02941+02141999999ADDAA106000091AG14000GF106991031031004501001071MA1999999096231MD1999999+0031REMSYN010 333 58003
0126832420999991993042912004-12567-041383FM-12+042799999V0201801N00101004201CN0100001N9+02281+02011999999ADDAA124000591AG10000GF108991999051004501021999MA1999999096751MD1999999+0011REMSYN022 333 20/// 58001 69954EQDQ01+000082SCOTLC
0095832420999991993042918004-12567-041383FM-12+042799999V0201401N00311220001CN0500001N9+02881+02081999999ADDAA106000091AG14000GF102991021031004501001001MA1999999096131MD1999999-0101REMSYN010 333 59010
0107832420999991993043012004-12567-041383FM-12+042799999V0201801N00101045001CN0100001N9+02241+02101999999ADDAA124002091AG10000GF108991041051004501021999MA1999999096651MD1999999-0101REMSYN022 333 20/// 59010 60024
0095832420999991993043018004-12567-041383FM-12+042799999V0201801N00311045001CN0200001N9+02781+02041999999ADDAA106000091AG14000GF108991041051004501021999MA1999999096171MD1999999+0041REMSYN010 333 58004
0121832420999991993050112004-12567-041383FM-12+042799999V0201801N00051045001CN0200001N9+02161+02131999999ADDAA124000191AG10000AY151061GF108991041051004501021999MA1999999096711MD1999999+0061MW1031REMSYN022 333 20/// 58006 69914
0123832420999991993050118004-12567-041383FM-12+042799999V0201401N00261220001CN0500001N9+03021+01861999999ADDAA106002091AG10000AY151061AY221061GF102991021031004501001001MA1999999096141MD1999999-0031MW1031REMSYN016 333 59003 60021
0101832420999991993050212004-12567-041383FM-12+042799999V0201401N00101004201CN0200001N9+02361+02011999999ADDAA124002091AG10000GF108991081051004501999999MA1999999096631MD1999999-0081REMSYN016 333 59008 60024
0095832420999991993050218004-12567-041383FM-12+042799999V0209991C00001045001CN0200001N9+02761+02141999999ADDAA106000091AG14000GF108991031021004501031071MA1999999096171MD1999999+0031REMSYN010 333 58003
0095832420999991993050318004-12567-041383FM-12+042799999V0201401N00151220001CN0500001N9+03061+02171999999ADDAA106000091AG14000GF102991021011004501001001MA1999999096121MD1999999-0051REMSYN010 333 59005
0101832420999991993050412004-12567-041383FM-12+042799999V0202301N00101045001CN0200001N9+02341+02071999999ADDAA106000091AG14000GF108991041051004501021999MA1999999096531MD1999999-0111REMSYN016 333 20/// 59011
0095832420999991993050418004-12567-041383FM-12+042799999V0209991C00001105001CN0500001N9+03001+02221999999ADDAA106000091AG14000GF108991041031004501001071MA1999999096131MD1999999+0011REMSYN010 333 58001
0121832420999991993050512004-12567-041383FM-12+042799999V0201801N00101045001CN0100001N9+02321+02271999999ADDAA124003091AG10002AY161061GF108991041051004501021999MA1999999096721MD1999999+0191MW1031REMSYN022 333 20/// 58019 60034
0095832420999991993050518004-12567-041383FM-12+042799999V0202301N00051105001CN0200001N9+03061+02451999999ADDAA106000091AG14000GF108991041031004501001071MA1999999096071MD1999999-0061REMSYN010 333 59006
0095832420999991993050612004-12567-041383FM-12+042799999V0200501N00051045001CN0200001N9+02401+02261999999ADDAA106000091AG14000GF108991041051004501021999MA1999999096621MD1999999-0101REMSYN010 333 59010
0095832420999991993050618004-12567-041383FM-12+042799999V0201801N00151004201CN0500001N9+03001+02221999999ADDAA106000091AG14000GF106991061031004501001001MA1999999096031MD1999999-0041REMSYN010 333 59004
0132832420999991993050712004-12567-041383FM-12+042799999V0209991C00001004201CN0100001N9+02301+02251999999ADDAA124000291AA299000191AG10000AY151061GF108991081051004501999999MA1999999096631MD1999999+0011MW1251REMSYN022 333 20/// 58001 69924
0095832420999991993050718004-12567-041383FM-12+042799999V0209991C00001045001CN0200001N9+02901+02251999999ADDAA106000091AG14000GF108991041031004501061999MA1999999096141MD1999999+0111REMSYN010 333 58011
0101832420999991993050812004-12567-041383FM-12+042799999V0201801N00151045001CN0100001N9+02321+02051999999ADDAA106000091AG14000GF108991041051004501021999MA1999999096611MD1999999-0021REMSYN016 333 20/// 59002
0095832420999991993050818004-12567-041383FM-12+042799999V0201401N00151045001CN0200001N9+02541+02041999999ADDAA106000091AG14000GF108991041051004501021999MA1999999096141MD1999999+0041REMSYN010 333 58004
0095832420999991993050912004-12567-041383FM-12+042799999V0201801N00151004201CN0200001N9+02251+01981999999ADDAA106000091AG14000GF108991081051004501999999MA1999999096651MD1999999+0041REMSYN010 333 58004
0095832420999991993050918004-12567-041383FM-12+042799999V0209991C00001045001CN0200001N9+02741+01971999999ADDAA106000091AG14000GF108991041051004501021999MA1999999096181MD1999999+0001REMSYN010 333 58000
0132832420999991993051012004-12567-041383FM-12+042799999V0201801N00151004201CN0100001N9+02101+01931999999ADDAA124000491AA299000591AG10000AY151061GF108991081051004501999999MA1999999096561MD1999999-0091MW1021REMSYN022 333 20/// 59009 69944
0095832420999991993051018004-12567-041383FM-12+042799999V0209991C00001045001CN0200001N9+02621+01931999999ADDAA106000091AG14000GF108991041051004501021999MA1999999096081MD1999999-0101REMSYN010 333 59010
0095832420999991993051112004-12567-041383FM-12+042799999V0201401N00361004201CN0200001N9+02301+01961999999ADDAA106000091AG14000GF106991061021004501001001MA1999999096581MD1999999+0021REMSYN010 333 58002
0095832420999991993051118004-12567-041383FM-12+042799999V0209991C00001004201CN0500001N9+02981+01951999999ADDAA106000091AG14000GF105991051021004501001001MA1999999096121MD1999999+0041REMSYN010 333 58004
0095832420999991993051212004-12567-041383FM-12+042799999V0203201N00151045001CN0200001N9+02181+02101999999ADDAA106000091AG14000GF108991041051004501021999MA1999999096551MD1999999-0031REMSYN010 333 59003
0095832420999991993051218004-12567-041383FM-12+042799999V0200501N00101004201CN0500001N9+02841+02191999999ADDAA106000091AG14000GF106991061031004501001001MA1999999096131MD1999999+0011REMSYN010 333 58001
0095832420999991993051318004-12567-041383FM-12+042799999V0201801N00411220001CN0500001N9+02901+02041999999ADDAA106000091AG14000GF102991021021004501001001MA1999999096041MD1999999-0091REMSYN010 333 59009
0181832420999991993051403004-12567-041383FM-12+042799999V0200601N00101002401CN0040001N9+99999+99999101511ADDAA106000091AG10000AY121031AY221031GA1081+002409079GF108991081061002501999999MD1210071+9999MW1101REMSYN038 333 44077 55151 88708 555 21199 7000/EQDQ01 -01493ATOT  Q02 -01693ATOD  
0095832420999991993051412004-12567-041383FM-12+042799999V0209991C00001045001CN0200001N9+02321+02131999999ADDAA106000091AG14000GF108991041021004501061999MA1999999096521MD1999999-0121REMSYN010 333 59012
0095832420999991993051418004-12567-041383FM-12+042799999V0201801N00151220001CN0500001N9+02941+02031999999ADDAA106000091AG14000GF102991021021004501001001MA1999999096011MD1999999-0031REMSYN010 333 59003
0095832420999991993051512004-12567-041383FM-12+042799999V0209991C00001045001CN0200001N9+02381+02151999999ADDAA106000091AG14000GF108991031011004501031071MA1999999096601MD1999999+0081REMSYN010 333 58008
0101832420999991993051612004-12567-041383FM-12+042799999V0209991C00001004201CN0200001N9+02421+02131999999ADDAA106000091AG14000GF108991081021004501999999MA1999999096721MD1999999+0121REMSYN016 333 20/// 58012
0095832420999991993051712004-12567-041383FM-12+042799999V0201801N00211045001CN0200001N9+02241+01981999999ADDAA106000091AG14000GF108991041051004501021999MA1999999097151MD1999999+0431REMSYN010 333 58043
0095832420999991993051718004-12567-041383FM-12+042799999V0201801N00151045001CN0500001N9+02741+02121999999ADDAA106000091AG14000GF107991031021004501061001MA1999999096571MD1999999+0181REMSYN010 333 58018
0086832420999991993051812004-12567-041383FM-12+042799999V0201801N00261045001CN0200001N9+02161+01901999999ADDAA106000091AG14000GF108991041051004501021999MD1999999-0401REMSYN016 333 20/// 59040
0095832420999991993051912004-12567-041383FM-12+042799999V0201801N00101045001CN0200001N9+02181+01611999999ADDAA106000091AG14000GF108991041051004501021999MA1999999096711MD1999999-0041REMSYN010 333 59004
0095832420999991993052112004-12567-041383FM-12+042799999V0201801N00311004201CN0200001N9+02141+01681999999ADDAA106000091AG14000GF106991061021004501001001MA1999999096731MD1999999+0041REMSYN010 333 58004
0095832420999991993052118004-12567-041383FM-12+042799999V0201401N00151220001CN0500001N9+02921+01741999999ADDAA106000091AG14000GF104991031031004501001061MA1999999096221MD1999999+0111REMSYN010 333 58011
0101832420999991993052212004-12567-041383FM-12+042799999V0201801N00051045001CN0200001N9+02041+01741999999ADDAA106000091AG14000GF108991041051004501021999MA1999999096811MD1999999+0081REMSYN016 333 20/// 58008
0095832420999991993052218004-12567-041383FM-12+042799999V0201401N00211220001CN0500001N9+02721+01821999999ADDAA106000091AG14000GF102991021011004501001001MA1999999096311MD1999999-0091REMSYN010 333 59009
0101832420999991993052312004-12567-041383FM-12+042799999V0201801N00151004201CN0500001N9+02101+01491999999ADDAA106000091AG14000GF106991061021004501001001MA1999999096771MD1999999-0041REMSYN016 333 20/// 59004
0095832420999991993052318004-12567-041383FM-12+042799999V0201801N00151220001CN0500001N9+02881+01781999999ADDAA106000091AG14000GF102991021011004501001001MA1999999096371MD1999999+0061REMSYN010 333 58006
0095832420999991993052412004-12567-041383FM-12+042799999V0209991C00001220001CN0500001N9+02061+01661999999ADDAA106000091AG14000GF102991021011004501001001MA1999999096631MD1999999-0141REMSYN010 333 59014
0095832420999991993052418004-12567-041383FM-12+042799999V0201801N00151220001CN0500001N9+02741+01511999999ADDAA106000091AG14000GF102991021011004501001001MA1999999096251MD1999999-0121REMSYN010 333 59012
0101832420999991993052512004-12567-041383FM-12+042799999V0203601N00101004201CN0200001N9+02041+01661999999ADDAA106000091AG14000GF108991081021004501999999MA1999999096751MD1999999+0121REMSYN016 333 20/// 58012
0095832420999991993052518004-12567-041383FM-12+042799999V0202301N00151220001CN0500001N9+02761+01831999999ADDAA106000091AG14000GF102991021011004501001001MA1999999096111MD1999999-0141REMSYN010 333 59014
0101832420999991993052612004-12567-041383FM-12+042799999V0201801N00151045001CN0200001N9+02081+01871999999ADDAA106000091AG14000GF108991041051004501021999MA1999999096551MD1999999-0201REMSYN016 333 20/// 59020
0095832420999991993052618004-12567-041383FM-12+042799999V0201801N00101045001CN0200001N9+02661+02001999999ADDAA106000091AG14000GF108991041051004501011999MA1999999096161MD1999999+0051REMSYN010 333 58005
0095832420999991993052712004-12567-041383FM-12+042799999V0209991C00001045001CN0200001N9+02141+02091999999ADDAA106000091AG14000GF108991041051004501021999MA1999999096611MD1999999+0061REMSYN010 333 58006
0095832420999991993052718004-12567-041383FM-12+042799999V0202301N00151220001CN0500001N9+02841+01821999999ADDAA106000091AG14000GF102991021021004501001001MA1999999096351MD1999999-0201REMSYN010 333 59020
0101832420999991993052812004-12567-041383FM-12+042799999V0201801N00101045001CN0200001N9+02341+02011999999ADDAA106000091AG14000GF108991041051004501021999MA1999999096881MD1999999+0271REMSYN016 333 20/// 58027
0095832420999991993052818004-12567-041383FM-12+042799999V0202301N00101220001CN0500001N9+03081+02041999999ADDAA106000091AG14000GF102991021021004501001001MA1999999096521MD1999999+0171REMSYN010 333 58017
0115832420999991993060612004-12567-041383FM-12+042799999V0202301N00101045001CN0200001N9+02041+01961999999ADDAA124005091AG10002AY161061GF108991041051004501021999MA1999999096891MD1999999+0001MW1021REMSYN016 333 58000 60054
0123832420999991993060618004-12567-041383FM-12+042799999V0201801N00101045001CN0200001N9+02541+01981999999ADDAA106000591AG10000AY151061AY221061GF108991041051004501021999MA1999999096681MD1999999+0001MW1031REMSYN016 333 58000 69951
0101832420999991993060712004-12567-041383FM-12+042799999V0209991C00001045001CN0200001N9+02241+01981999999ADDAA106000091AG14000GF108991041051004501021999MA1999999096721MD1999999-0151REMSYN016 333 20/// 59015
0080832420999991993060715004-12567-041383FM-12+042799999V0203601N00211045001CN0200001N9+02651+01891101581ADDAA106000091AG14000GF107991031011008001031001MD1999999+0221REMSYN010 333 58022
0095832420999991993060718004-12567-041383FM-12+042799999V0209991C00001004201CN0200001N9+02521+02001999999ADDAA106000091AG14000GF108991081051004501999999MA1999999096561MD1999999-0121REMSYN010 333 59012
0095832420999991993060800004-12567-041383FM-12+042799999V0202301N00151045001CN0200001N9+01901+01751999999ADDAA106000091AG14000GF108991041051004501021999MA1999999096801MD1999999+0061REMSYN010 333 58006
0095832420999991993060812004-12567-041383FM-12+042799999V0202301N00151045001CN0200001N9+01901+01751999999ADDAA106000091AG14000GF108991041051004501021999MA1999999096801MD1999999+0061REMSYN010 333 58006
0095832420999991993060818004-12567-041383FM-12+042799999V0201401N00261004201CN0500001N9+02781+01701999999ADDAA106000091AG14000GF106991061021004501001001MA1999999096561MD1999999+0001REMSYN010 333 58000
0101832420999991993060912004-12567-041383FM-12+042799999V0209991C00001045001CN0200001N9+02001+01921999999ADDAA106000091AG14000GF108991041051004501021999MA1999999096711MD1999999-0091REMSYN016 333 20/// 59009
0095832420999991993060918004-12567-041383FM-12+042799999V0201801N00151105001CN0500001N9+02521+02021999999ADDAA106000091AG14000GF106991031021004501001081MA1999999096351MD1999999-0211REMSYN010 333 59021
0095832420999991993061012004-12567-041383FM-12+042799999V0201401N00101045001CN0200001N9+02161+02021999999ADDAA106000091AG14000GF108991041021004501061999MA1999999096751MD1999999+0061REMSYN010 333 58006
0095832420999991993061018004-12567-041383FM-12+042799999V0209991C00001004201CN0200001N9+02661+01951999999ADDAA106000091AG14000GF108991081021004501999999MA1999999096571MD1999999+0221REMSYN010 333 58022
0095832420999991993061112004-12567-041383FM-12+042799999V0201801N00151004201CN0200001N9+02121+01861999999ADDAA106000091AG14000GF108991081021004501999999MA1999999096961MD1999999+0211REMSYN010 333 58021
0095832420999991993061118004-12567-041383FM-12+042799999V0209991C00001004201CN0200001N9+02641+01901999999ADDAA106000091AG14000GF108991081021004501999999MA1999999096651MD1999999+0081REMSYN010 333 58008
0095832420999991993061312004-12567-041383FM-12+042799999V0201801N00151045001CN0200001N9+02001+01701999999ADDAA106000091AG14000GF108991041051004501021999MA1999999097051MD1999999+0181REMSYN010 333 58018
0095832420999991993061318004-12567-041383FM-12+042799999V0201801N00311045001CN0200001N9+02301+01721999999ADDAA106000091AG14000GF108991041051004501021999MA1999999096731MD1999999+0041REMSYN010 333 58004
0101832420999991993061412004-12567-041383FM-12+042799999V0201801N00211045001CN0200001N9+01981+01591999999ADDAA106000091AG14000GF108991041051004501021999MA1999999096981MD1999999-0071REMSYN016 333 20/// 59007
0095832420999991993061418004-12567-041383FM-12+042799999V0201801N00101045001CN0200001N9+02261+01711999999ADDAA106000091AG14000GF108991041051004501021999MA1999999096671MD1999999-0061REMSYN010 333 59006
0095832420999991993061512004-12567-041383FM-12+042799999V0201801N00211045001CN0200001N9+01961+01571999999ADDAA106000091AG14000GF108991041051004501021999MA1999999097181MD1999999+0201REMSYN010 333 58020
0095832420999991993061518004-12567-041383FM-12+042799999V0201801N00151045001CN0200001N9+02401+01651999999ADDAA106000091AG14000GF108991041051004501021999MA1999999096841MD1999999+0171REMSYN010 333 58017
0101832420999991993061612004-12567-041383FM-12+042799999V0201401N00151045001CN0700001N9+02001+01601999999ADDAA106000091AG14000GF108991041051004501011999MA1999999097181MD1999999+0001REMSYN016 333 20/// 58000
0095832420999991993061618004-12567-041383FM-12+042799999V0201401N002619999999N0200001N9+02421+01721999999ADDAA106000091AG14000GF108991041051004501999999MA1999999096721MD1999999-0121REMSYN010 333 59012
0101832420999991993061712004-12567-041383FM-12+042799999V0201801N00101045001CN0200001N9+01781+01681999999ADDAA106000091AG14000GF108991041051004501021999MA1999999097121MD1999999-0061REMSYN016 333 20/// 59006
0095832420999991993061718004-12567-041383FM-12+042799999V0201801N00261004201CN0200001N9+02601+01571999999ADDAA106000091AG14000GF108991081021004501999999MA1999999096601MD1999999-0121REMSYN010 333 59012
0101832420999991993061812004-12567-041383FM-12+042799999V0209991C00001220001CN0500001N9+01901+01711999999ADDAA106000091AG14000GF102991021011004501001001MA1999999097021MD1999999-0101REMSYN016 333 20/// 59010
0080832420999991993061818004-12567-041383FM-12+042799999V0202701N00511220001CN0200001N9+02801+01201101381ADDAA106000091AG14000GF107991021011008001001041MD1999999-0061REMSYN010 333 59006
0095832420999991993061918004-12567-041383FM-12+042799999V0209991C00001105001CN0500001N9+02781+01931999999ADDAA106000091AG14000GF108991041011004501001071MA1999999096271MD1999999-0201REMSYN010 333 59020
0101832420999991993062112004-12567-041383FM-12+042799999V0209991C00001045001CN0200001N9+02081+01871999999ADDAA106000091AG14000GF108991041051004501021999MA1999999097171MD1999999+0091REMSYN016 333 20/// 58009
0095832420999991993062412004-12567-041383FM-12+042799999V0209991C00001004201CN0200001N9+02021+01741999999ADDAA106000091AG14000GF108991081051004501999999MA1999999096961MD1999999-0201REMSYN010 333 59020
0095832420999991993062418004-12567-041383FM-12+042799999V0209991C00001220001CN0500001N9+02721+01901999999ADDAA106000091AG14000GF102991021011004501001001MA1999999096541MD1999999+0111REMSYN010 333 58011
0095832420999991993062512004-12567-041383FM-12+042799999V0200501N00151045001CN0200001N9+01981+01791999999ADDAA106000091AG14000GF108991041051004501021999MA1999999097001MD1999999+0041REMSYN010 333 58004
0095832420999991993062518004-12567-041383FM-12+042799999V0202301N00151220001CN0500001N9+02661+01771999999ADDAA106000091AG14000GF102991021011004501001001MA1999999096671MD1999999+0131REMSYN010 333 58013
0101832420999991993062612004-12567-041383FM-12+042799999V0200501N00051045001CN0200001N9+01941+01791999999ADDAA106000091AG14000GF108991041051004501021999MA1999999096871MD1999999-0131REMSYN016 333 20/// 59013
0095832420999991993062618004-12567-041383FM-12+042799999V0201801N00311220001CN0500001N9+02661+01871999999ADDAA106000091AG14000GF103991031021004501001001MA1999999096371MD1999999-0301REMSYN010 333 59030
0101832420999991993062712004-12567-041383FM-12+042799999V0201801N00101045001CN0200001N9+02121+01821999999ADDAA106000091AG14000GF108991041051004501021999MA1999999096951MD1999999+0081REMSYN016 333 20/// 58008
0101832420999991993062812004-12567-041383FM-12+042799999V0209991C00001004201CN0200001N9+01981+01831999999ADDAA106000091AG14000GF108991081051004501999999MA1999999096771MD1999999-0181REMSYN016 333 20/// 59018
0095832420999991993062818004-12567-041383FM-12+042799999V0203201N00101105001CN0500001N9+02601+01961999999ADDAA106000091AG14000GF107991041011004501001071MA1999999096461MD1999999-0091REMSYN010 333 59009
0095832420999991993062912004-12567-041383FM-12+042799999V0201801N00101045001CN0200001N9+02171+01661999999ADDAA106000091AG14000GF108991041051004501021999MA1999999096621MD1999999-0151REMSYN010 333 59015
0095832420999991993062918004-12567-041383FM-12+042799999V0200501N00051220001CN0500001N9+02761+02041999999ADDAA106000091AG14000GF102991021011004501001001MA1999999096271MD1999999-0191REMSYN010 333 59019
0095832420999991993063012004-12567-041383FM-12+042799999V0201801N00101220001CN0500001N9+02001+01761999999ADDAA106000091AG14000GF102991021011004501001001MA1999999096661MD1999999+0041REMSYN010 333 58004
0111832420999991993063018004-12567-041383FM-12+042799999V0203201N00151220001CN0200001N9+03041+02181999999ADDAA106000091AG14000GA1001+999999999GF100991001001999999001001MA1999999096131MD1999999-0141REMSYN010 333 59014
0095832420999991993070312004-12567-041383FM-12+042799999V0201401N00151220001CN0500001N9+02261+01991999999ADDAA106000091AG14000GF103991031011004501001001MA1999999096521MD1999999+0081REMSYN010 333 58008
0095832420999991993070418004-12567-041383FM-12+042799999V0200501N00051220001CN0500001N9+02841+02191999999ADDAA106000091AG14000GF104991041021004501001001MA1999999096341MD1999999+0021REMSYN010 333 58002
0101832420999991993070512004-12567-041383FM-12+042799999V0201801N00101004201CN0500001N9+02041+01701999999ADDAA106000091AG14000GF105991051021004501001001MA1999999096781MD1999999+0011REMSYN016 333 20/// 58001
0101832420999991993070612004-12567-041383FM-12+042799999V0209991C00001220001CN0500001N9+02241+01881999999ADDAA106000091AG14000GF103991031021004501001001MA1999999096731MD1999999-0051REMSYN016 333 20/// 59005
0101832420999991993070812004-12567-041383FM-12+042799999V0201801N00101045001CN0200001N9+01921+01681999999ADDAA106000091AG14000GF108991041051004501021999MA1999999096781MD1999999+0071REMSYN016 333 20/// 58007
0095832420999991993070818004-12567-041383FM-12+042799999V0202301N00101220001CN0500001N9+02821+02241999999ADDAA106000091AG14000GF104991041021004501001001MA1999999096261MD1999999+0011REMSYN010 333 58001
0101832420999991993070912004-12567-041383FM-12+042799999V0201801N00101045001CN0200001N9+01841+01581999999ADDAA106000091AG14000GF108991041051004501011999MA1999999097041MD1999999+0261REMSYN016 333 20/// 58026
0095832420999991993070918004-12567-041383FM-12+042799999V0202301N00361004201CN0500001N9+02621+02051999999ADDAA106000091AG14000GF106991061021004501001001MA1999999096671MD1999999+0211REMSYN010 333 58021
0101832420999991993071012004-12567-041383FM-12+042799999V0201801N00101045001CN0200001N9+01841+01581999999ADDAA106000091AG14000GF108991041051004501021999MA1999999097181MD1999999+0141REMSYN016 333 20/// 58014
0101832420999991993071112004-12567-041383FM-12+042799999V0209991C00001045001CN0200001N9+01781+99999999999ADDAA106000091AG14000GF108991041051004501021999MA1999999096771MD1999999-0411REMSYN016 333 20/// 59041
0095832420999991993071118004-12567-041383FM-12+042799999V0209991C00001045001CN0200001N9+02421+01991999999ADDAA106000091AG14000GF108991041051004501021999MA1999999096521MD1999999-0061REMSYN010 333 59006
0095832420999991993071218004-12567-041383FM-12+042799999V0209991C00001004201CN0200001N9+02821+02101999999ADDAA106000091AG14000GF108991081021004501999999MA1999999096371MD1999999-0151REMSYN010 333 59015
0101832420999991993071312004-12567-041383FM-12+042799999V0200501N00151045001CN0200001N9+02181+01561999999ADDAA106000091AG14000GF106991031011004501031001MA1999999097161MD1999999+0191REMSYN016 333 20/// 58019
0101832420999991993071412004-12567-041383FM-12+042799999V0209991C00001004201CN0200001N9+02001+01971999999ADDAA106000091AG14000GF108991081051004501999999MA1999999097171MD1999999+0011REMSYN016 333 20/// 58001
0095832420999991993071418004-12567-041383FM-12+042799999V0201801N00101045001CN0500001N9+02481+02231999999ADDAA106000091AG14000GF106991021011004501031081MA1999999096721MD1999999+0071REMSYN010 333 58007
0101832420999991993071612004-12567-041383FM-12+042799999V0209991C00001105001CN0500001N9+01821+01761999999ADDAA106000091AG14000GF108991041011004501001071MA1999999097061MD1999999-0021REMSYN016 333 20/// 59002
0114832420999991993071618004-12567-041383FM-12+042799999V0201801N00151004201CN0200001N9+02181+01971999999ADDAA106000091AG14000GF108991081051004501999999MA1999999099752MD1999999+0021REMSYN010 333 58002EQDQ01+099753APOSP 
0101832420999991993071812004-12567-041383FM-12+042799999V0200501N00051045001CN0200001N9+01821+01691999999ADDAA106000091AG14000GF108991041051004501021999MA1999999097181MD1999999+0091REMSYN016 333 20/// 58009
0101832420999991993071912004-12567-041383FM-12+042799999V0201801N00151045001CN0200001N9+01861+01741999999ADDAA106000091AG14000GF108991041051004501021999MA1999999097191MD1999999-0011REMSYN016 333 20/// 59001
0095832420999991993072012004-12567-041383FM-12+042799999V0201801N00151045001CN0200001N9+01961+01881999999ADDAA106000091AG14000GF108991041051004501021999MA1999999097111MD1999999-0081REMSYN010 333 59008
0095832420999991993072018004-12567-041383FM-12+042799999V0209991C00001004201CN0200001N9+02621+01781999999ADDAA106000091AG14000GF108991081021004501999999MA1999999096671MD1999999-0181REMSYN010 333 59018
0050832420999991993072100004-12567-041383FM-12+042799999V0203601N00361009001CN0200001N9+01961+99999999999ADDAG12000GF105991051081004501001001MD1210351+9999
0114832420999991993072118004-12567-041383FM-12+042799999V0201801N001519999999N0500001N9+02721+02031999999ADDAA106000091AG14000GF108991999021004501001001MA1999999096591MD1999999-0081REMSYN010 333 59008EQDQ01+000042SCOTLC
0101832420999991993072212004-12567-041383FM-12+042799999V0201401N00051045001CN0100001N9+01861+01781999999ADDAA106000091AG14000GF108991041051004501021999MA1999999097211MD1999999-0121REMSYN016 333 20/// 59012
0095832420999991993072218004-12567-041383FM-12+042799999V0209991C00001220001CN0500001N9+02521+02021999999ADDAA106000091AG14000GF104991041021004501001001MA1999999096601MD1999999+0011REMSYN010 333 58001
0101832420999991993072312004-12567-041383FM-12+042799999V0202301N00101220001CN0500001N9+01981+01681999999ADDAA106000091AG14000GF104991041021004501001001MA1999999091711MD1999999-0031REMSYN016 333 20/// 59003
0099832420999991993080106004-12567-041383FM-12+042799999V0203001N00411045001CN0100001N9+02061+01191101881ADDAA199000391AG10000GF106991041051008001031001KA1240N+01251MD1710021+9999REMSYN016 333 20125 91111
0120832420999991993080212004-12567-041383FM-12+042799999V0209991C00001220001CN0200001N9+02001+01701999999ADDAA106000091AG14000GF102991999051004501999999MA1999999097201MD1999999+0131REMSYN016 333 20/// 58013EQDQ01+000082SCOTLC
0116832420999991993080300004-12567-041383FM-12+042799999V0203401N00411004201CN0100001N9+00611+00371101831ADDAG12000GA1081+004209059GF108991081051999999999999MA1999999101682MD1410001+9999REMSYN026 333 88614 91111 555 11007
0101832420999991993080412004-12567-041383FM-12+042799999V0209991C00001105001CN0200001N9+01981+01741999999ADDAA106000091AG14000GF108991041021004501001071MA1999999097251MD1999999+0051REMSYN016 333 20/// 58005
0085832420999991993080415004-12567-041383FM-12+042799999V0200301N00511220001CN0200001N9+02901+01521101921ADDAG12000GA1001+999999999GF100991001001999999001001MD1999999-0061REMSYN010 333 59006
0095832420999991993080418004-12567-041383FM-12+042799999V0201801N00261220001CN0500001N9+02741+01641999999ADDAA106000091AG14000GF102991021011004501001001MA1999999096741MD1999999-0041REMSYN010 333 59004
0095832420999991993080512004-12567-041383FM-12+042799999V0201801N00261045001CN0200001N9+02041+01601999999ADDAA106000091AG14000GF108991041051004501021999MA1999999097101MD1999999-0151REMSYN010 333 59015
0095832420999991993080518004-12567-041383FM-12+042799999V0201801N00151004201CN0200001N9+02621+01911999999ADDAA106000091AG14000GF108991081051004501999999MA1999999096601MD1999999-0141REMSYN010 333 59014
0101832420999991993080612004-12567-041383FM-12+042799999V0201801N00311045001CN0200001N9+02001+01811999999ADDAA106000091AG14000GF108991041051004501021999MA1999999096981MD1999999-0121REMSYN016 333 20/// 59012
0095832420999991993080618004-12567-041383FM-12+042799999V0201801N00261045001CN0200001N9+02481+01901999999ADDAA106000091AG14000GF108991041051004501021999MA1999999096701MD1999999+0101REMSYN010 333 58010
0101832420999991993080712004-12567-041383FM-12+042799999V0209991C00001105001CN0500001N9+01881+01661999999ADDAA106000091AG14000GF108991041051004501001071MA1999999096981MD1999999+0001REMSYN016 333 20/// 58000
0095832420999991993080718004-12567-041383FM-12+042799999V0202301N00151105001CN0500001N9+02661+01771999999ADDAA106000091AG14000GF108991041051004501001071MA1999999096581MD1999999-0121REMSYN010 333 59012
0101832420999991993080812004-12567-041383FM-12+042799999V0201401N00151105001CN0200001N9+01901+01751999999ADDAA106000091AG14000GF108991041051004501001071MA1999999096811MD1999999-0171REMSYN016 333 20/// 59017
0095832420999991993080818004-12567-041383FM-12+042799999V0209991C00001045001CN0200001N9+02541+02041999999ADDAA106000091AG14000GF108991041051004501011999MA1999999096661MD1999999-0071REMSYN010 333 59007
0095832420999991993080912004-12567-041383FM-12+042799999V0200101N00101004201CN0200001N9+02101+99999999999ADDAA106000091AG14000GF108991081051004501999999MA1999999096761MD1999999-0051REMSYN010 333 59005
0095832420999991993080918004-12567-041383FM-12+042799999V0202301N00101220001CN0500001N9+02781+01881999999ADDAA106000091AG14000GF104991041021004501001001MA1999999096151MD1999999-0261REMSYN010 333 59026
0101832420999991993081012004-12567-041383FM-12+042799999V0203201N00101045001CN0200001N9+01901+01771999999ADDAA106000091AG14000GF108991041051004501021999MA1999999096901MD1999999+0141REMSYN016 333 20/// 58014
0095832420999991993081018004-12567-041383FM-12+042799999V0201401N00101220001CN0500001N9+02801+02001999999ADDAA106000091AG14000GF102991021011004501001001MA1999999096171MD1999999+0021REMSYN010 333 58002
0095832420999991993081112004-12567-041383FM-12+042799999V0201801N00151105001CN0200001N9+01901+01591999999ADDAA106000091AG14000GF108991041051004501001071MA1999999096681MD1999999-0221REMSYN010 333 59022
0114832420999991993081118004-12567-041383FM-12+042799999V0201801N002119999999N0500001N9+02941+01881999999ADDAA106000091AG14000GF108991001001999999001071MA1999999096141MD1999999-0031REMSYN010 333 59003EQDQ01+000082SCOTLC
0101832420999991993081212004-12567-041383FM-12+042799999V0201401N00051105001CN0500001N9+02081+01781999999ADDAA106000091AG14000GF108991041011004501001071MA1999999096481MD1999999+0261REMSYN016 333 20/// 58026
0095832420999991993081218004-12567-041383FM-12+042799999V0202301N00261105001CN0500001N9+02921+01831999999ADDAA106000091AG14000GF108991041011004501001071MA1999999096331MD1999999+0191REMSYN010 333 58019
0095832420999991993081312004-12567-041383FM-12+042799999V0202301N00151045001CN0200001N9+02021+01831999999ADDAA106000091AG14000GF108991041051004501021999MA1999999097171MD1999999+0231REMSYN010 333 58023
0095832420999991993081318004-12567-041383FM-12+042799999V0202301N00211045001CN0500001N9+02721+01901999999ADDAA106000091AG14000GF108991041051004501011999MA1999999096751MD1999999+0281REMSYN010 333 58028
0132832420999991993081412004-12567-041383FM-12+042799999V0209991C00001045001CN0200001N9+01941+01911999999ADDAA124000891AA299001091AG10000AY151061GF108991041021004501021999MA1999999097081MD1999999-0091MW1021REMSYN022 333 20/// 59009 69984
0095832420999991993081418004-12567-041383FM-12+042799999V0200501N00051045001CN0200001N9+02401+01971999999ADDAA106000091AG14000GF108991041051004501021999MA1999999096621MD1999999-0131REMSYN010 333 59013
0101832420999991993081512004-12567-041383FM-12+042799999V0201801N00151045001CN0200001N9+01981+01791999999ADDAA106000091AG14000GF108991041051004501021999MA1999999096991MD1999999-0091REMSYN016 333 20/// 59009
0095832420999991993081518004-12567-041383FM-12+042799999V0202301N00151045001CN0200001N9+02341+01831999999ADDAA106000091AG14000GF108991041051004501021999MA1999999096731MD1999999+0111REMSYN010 333 58011
0095832420999991993081618004-12567-041383FM-12+042799999V0201801N00261220001CN0500001N9+02501+01561999999ADDAA106000091AG14000GF104991041021004501001001MA1999999096971MD1999999-0011REMSYN010 333 59001
0101832420999991993081712004-12567-041383FM-12+042799999V0209991C00001105001CN0500001N9+01981+01661999999ADDAA106000091AG14000GF108991041011004501001071MA1999999096901MD1999999-0021REMSYN016 333 20/// 59002
0095832420999991993081718004-12567-041383FM-12+042799999V0201801N00151045001CN0500001N9+02581+01901999999ADDAA106000091AG14000GF108991041051004501011999MA1999999096381MD1999999-0251REMSYN010 333 59025
0101832420999991993081812004-12567-041383FM-12+042799999V0201801N00101045001CN0200001N9+02021+01721999999ADDAA106000091AG14000GF108991041051004501021999MA1999999096971MD1999999+0011REMSYN016 333 20/// 58001
0095832420999991993081818004-12567-041383FM-12+042799999V0209991C00001105001CN0500001N9+02721+01951999999ADDAA106000091AG14000GF108991041021004501001071MA1999999096671MD1999999+0291REMSYN010 333 58029
0101832420999991993081912004-12567-041383FM-12+042799999V0203201N00051045001CN0200001N9+02161+01931999999ADDAA106000091AG14000GF108991041051004501021999MA1999999098931MD1999999-0041REMSYN016 333 20/// 59004
0114832420999991993081918004-12567-041383FM-12+042799999V0209991C00001220001CN0500001N9+02941+02211999999ADDAA106000091AG14000GF103991021011004501061001MA1999999094432MD1999999-0241REMSYN010 333 59024EQDQ01+094433APOSP 
0095832420999991993082018004-12567-041383FM-12+042799999V0202301N00151105001CN0500001N9+02981+01981999999ADDAA106000091AG14000GF108991041011004501001071MA1999999096481MD1999999+0051REMSYN010 333 58005
0095832420999991993082112004-12567-041383FM-12+042799999V0209991C00001045001CN0200001N9+02441+01981999999ADDAA106000091AG14000GF108991041051004501021999MA1999999097051MD1999999-0081REMSYN010 333 59008
0095832420999991993082118004-12567-041383FM-12+042799999V0202301N00311045001CN0500001N9+02781+02061999999ADDAA106000091AG14000GF108991031011004501051071MA1999999096561MD1999999+0081REMSYN010 333 58008
0126832420999991993082218004-12567-041383FM-12+042799999V0201401N00151004201CN0100001N9+02261+02181999999ADDAA106000991AA299001091AG10000AY151061GF108991081051004501999999MA1999999096851MD1999999+0311MW1021REMSYN016 333 58031 69991
0118832420999991993082312004-12567-041383FM-12+042799999V0201801N00101045001CN0200001N9+01981+01681999999ADDAA124000991AA299001091AG10000GF108991041051004501021999MA1999999096981MD1999999-0171REMSYN022 333 20/// 59017 69994
0095832420999991993082318004-12567-041383FM-12+042799999V0201401N00101045001CN0200001N9+02401+02051999999ADDAA106000091AG14000GF108991041051004501021999MA1999999096621MD1999999-0231REMSYN010 333 59023
0095832420999991993082512004-12567-041383FM-12+042799999V0200501N00101045001CN0200001N9+01981+01741999999ADDAA106000091AG14000GF108991041051004501021999MA1999999097001MD1999999+0001REMSYN010 333 58000
0111832420999991993082518004-12567-041383FM-12+042799999V0202301N00101220001CN0500001N9+02701+02061999999ADDAA106000091AG14000GA1001+999999999GF100991001001999999001001MA1999999096751MD1999999+0101REMSYN010 333 58010
0095832420999991993082612004-12567-041383FM-12+042799999V0201801N00101045001CN0200001N9+02041+01811999999ADDAA106000091AG14000GF108991041051004501021999MA1999999097071MD1999999+0001REMSYN010 333 58000
0095832420999991993082618004-12567-041383FM-12+042799999V0202301N00151105001CN0500001N9+02861+02011999999ADDAA106000091AG14000GF108991041011004501001071MA1999999096471MD1999999-0281REMSYN010 333 59028
0095832420999991993082712004-12567-041383FM-12+042799999V0200501N00151045001CN0200001N9+02201+01881999999ADDAA106000091AG14000GF108991041051004501021999MA1999999097051MD1999999-0021REMSYN010 333 59002
0095832420999991993082718004-12567-041383FM-12+042799999V0209991C00001220001CN0500001N9+03001+02081999999ADDAA106000091AG14000GF103991031011004501001001MA1999999096511MD1999999+0041REMSYN010 333 58004
0101832420999991993082912004-12567-041383FM-12+042799999V0200501N00311045001CN0200001N9+02381+02001999999ADDAA106000091AG14000GF108991031011004501031071MA1999999096841MD1999999-0131REMSYN016 333 20/// 59013
0095832420999991993082918004-12567-041383FM-12+042799999V0202301N00411105001CN0500001N9+03001+02371999999ADDAA106000091AG14000GF108991041021004501001071MA1999999096331MD1999999-0261REMSYN010 333 59026
0101832420999991993083012004-12567-041383FM-12+042799999V0201801N00101045001CN0200001N9+02161+01681999999ADDAA106000091AG14000GF108991041051004501021999MA1999999096751MD1999999-0091REMSYN016 333 20/// 59009
0095832420999991993083018004-12567-041383FM-12+042799999V0202301N00151220001CN0500001N9+03001+02141999999ADDAA106000091AG14000GF102991021011004501001001MA1999999096131MD1999999-0201REMSYN010 333 59020
0101832420999991993083112004-12567-041383FM-12+042799999V0201801N00151045001CN0200001N9+02081+01581999999ADDAA106000091AG14000GF108991041051004501021999MA1999999096761MD1999999+0011REMSYN016 333 20/// 58001
0111832420999991993083118004-12567-041383FM-12+042799999V0202301N00261220001CN0500001N9+03041+02061999999ADDAA106000091AG14000GA1001+999999999GF100991001001999999001001MA1999999096251MD1999999+0121REMSYN010 333 58012
0101832420999991993090112004-12567-041383FM-12+042799999V0201801N00051045001CN0200001N9+02241+01941999999ADDAA106000091AG14000GF108991041051004501011999MA1999999096731MD1999999-0031REMSYN016 333 20/// 59003
0111832420999991993090118004-12567-041383FM-12+042799999V0202301N00261220001CN0500001N9+03221+02051999999ADDAA106000091AG14000GA1001+999999999GF100991001001999999001001MA1999999096121MD1999999-0131REMSYN010 333 59013
0095832420999991993090212004-12567-041383FM-12+042799999V0201801N00101004201CN0200001N9+02081+01821999999ADDAA106000091AG14000GF108991081051004501999999MA1999999096871MD1999999+0141REMSYN010 333 58014
0117832420999991993090312004-12567-041383FM-12+042799999V0201401N00101220001CN0500001N9+02141+01611999999ADDAA106000091AG14000GA1001+999999999GF100991001001999999001001MA1999999097061MD1999999+0191REMSYN016 333 20/// 58019
0095832420999991993090318004-12567-041383FM-12+042799999V0202301N001019999999N0500001N9+03041+01531999999ADDAA106000091AG14000GF108991999999999999999999MA1999999096531MD1999999+0011REMSYN010 333 58001
0095832420999991993090412004-12567-041383FM-12+042799999V0209991C00001045001CN0200001N9+02121+02041999999ADDAA106000091AG14000GF108991041051004501021999MA1999999096751MD1999999-0311REMSYN010 333 59031
0095832420999991993090418004-12567-041383FM-12+042799999V0201401N00151004201CN0200001N9+02781+02151999999ADDAA106000091AG14000GF108991081021004501999999MA1999999096531MD1999999+0001REMSYN010 333 58000
0101832420999991993090512004-12567-041383FM-12+042799999V0200901N00261045001CN0200001N9+02141+01801999999ADDAA106000091AG14000GF108991041051004501021999MA1999999096661MD1999999-0091REMSYN016 333 20/// 59009
0081832420999991993091412004-12567-041383FM-12+042799999V0201801N00261004201CN0200001N9+02101+01721999999ADDAA106000091AG14000GF108991081051004501999999MA1999999096981REMSYN010 333 58///
0095832420999991993091418004-12567-041383FM-12+042799999V0201801N00101045001CN0500001N9+02701+01661999999ADDAA106000091AG14000GF108991041021004501061999MA1999999096591MD1999999+0001REMSYN010 333 58000
0101832420999991993091512004-12567-041383FM-12+042799999V0201801N002119999999N0200001N9+01921+01641101521ADDAA106000091AG14000GF108991999999004501999999MA1999999096891MD1999999-0091REMSYN016 333 20/// 59009
0095832420999991993091518004-12567-041383FM-12+042799999V0201801N00051045001CN0500001N9+02621+01911999999ADDAA106000091AG14000GF108991041051004501011999MA1999999096581MD1999999-0011REMSYN010 333 59001
0101832420999991993091612004-12567-041383FM-12+042799999V0201801N00051004201CN0200001N9+02101+01801999999ADDAA106000091AG14000GF108991081051004501999999MA1999999096971MD1999999+0081REMSYN016 333 20/// 58008
0126832420999991993091906004-12567-041383FM-12+042799999V0200701N00101012001CN0040001N9+01321+01251999999ADDAA199001091AG10000GF108991081051012501999999IA1099KA1240N+01251MA1999999098551MD1210101+9999REMSYN022 333 20125 3117/ 5990/
0121832420999991993092918004-12567-041383FM-12+042799999V0200601N00411220001CN0200001N9+02941+00471100971ADDAA106000091AG14003AY161061AY221061GF107991021001022501031011MD1010962+0131MW1011REMSYN010 333 58013EQDQ01+000962APC3  
0095832420999991993100818004-12567-041383FM-12+042799999V0209999999999009001CN0100001N9+02301+01801999999ADDAA106000091AG14000GF108991081081004501999999MA1999999098571MD1999999+0571REMSYN010 333 58057
0081832420999991993101612004-12567-041383FM-12+042799999V0201401N00051045001CN0200001N9+02301+02011999999ADDAA106000091AG14000GF108991041051004501021999MA1999999096711REMSYN010 333 58///
0081832420999991993101618004-12567-041383FM-12+042799999V0201801N00151045001CN0500001N9+03081+01851999999ADDAA106000091AG14000GF108991031011004501061071MA1999999096231REMSYN010 333 58///
0101832420999991993101712004-12567-041383FM-12+042799999V0201801N00261045001CN0200001N9+02241+01941999999ADDAA106000091AG14000GF108991041051004501021999MA1999999096771MD1999999+0061REMSYN016 333 20/// 58006
0095832420999991993101718004-12567-041383FM-12+042799999V0201801N00151004201CN0500001N9+03081+02131999999ADDAA106000091AG14000GF105991051021004501001001MA1999999096241MD1999999+0011REMSYN010 333 58001
0062832420999991993101818004-12567-041383FM-12+042799999V0209991C00001045001CN0500001N9+03021+02391999999ADDAA106000091AG14000GF107991021011004501061081MA1999999096281
0101832420999991993101912004-12567-041383FM-12+042799999V0201801N00051045001CN0200001N9+02281+01831999999ADDAA106000091AG14000GF108991041021004501061999MA1999999096751MD1999999-0081REMSYN016 333 20/// 59008
0095832420999991993101918004-12567-041383FM-12+042799999V0201801N00101105001CN0500001N9+03101+01621999999ADDAA106000091AG14000GF108991041011004501001081MA1999999096121MD1999999-0161REMSYN010 333 59016
0095832420999991993102012004-12567-041383FM-12+042799999V0209991C00001004201CN0200001N9+02341+01931999999ADDAA106000091AG14000GF108991081051004501999999MA1999999096641MD1999999-0111REMSYN010 333 59011
0095832420999991993102018004-12567-041383FM-12+042799999V0202301N00311105001CN0500001N9+02981+01591999999ADDAA106000091AG14000GF108991041011004501001071MA1999999096031MD1999999-0091REMSYN010 333 59009
0101832420999991993102112004-12567-041383FM-12+042799999V0201401N00151045001CN0200001N9+02221+01801999999ADDAA106000091AG14000GF108991041051004501021999MA1999999096651MD1999999+0011REMSYN016 333 20/// 58001
0101832420999991993102212004-12567-041383FM-12+042799999V0209991C00001045001CN0200001N9+02321+01811999999ADDAA106000091AG14000GF108991041051004501021999MA1999999096421MD1999999-0231REMSYN016 333 20/// 59023
0095832420999991993102218004-12567-041383FM-12+042799999V0200501N00151004201CN0500001N9+03121+02021999999ADDAA106000091AG14000GF106991061021004501001001MA1999999096021MD1999999-0031REMSYN010 333 59003
0095832420999991993102412004-12567-041383FM-12+042799999V0203201N00151045001CN0200001N9+02541+02211999999ADDAA106000091AG14000GF108991041051004501021999MA1999999096371MD1999999-0141REMSYN010 333 59014
0111832420999991993102418004-12567-041383FM-12+042799999V0201401N00151220001CN0500001N9+03201+02381999999ADDAA106000091AG14000GA1001+999999999GF100991001001999999001001MA1999999095971MD1999999-0051REMSYN010 333 59005
0101832420999991993102512004-12567-041383FM-12+042799999V0201801N00151045001CN0200001N9+02381+02011999999ADDAA106000091AG14000GF108991041051004501021999MA1999999096721MD1999999+0351REMSYN016 333 20/// 58035
0095832420999991993102518004-12567-041383FM-12+042799999V0201801N00151220001CN0500001N9+03181+01801999999ADDAA106000091AG14000GF102991021011004501001001MA1999999096021MD1999999+0051REMSYN010 333 58005
0101832420999991993102612004-12567-041383FM-12+042799999V0201801N00101045001CN0200001N9+02361+01971999999ADDAA106000091AG14000GF108991041051004501021999MA1999999096821MD1999999+0101REMSYN016 333 20/// 58010
0095832420999991993102618004-12567-041383FM-12+042799999V0209991C00001220001CN0500001N9+03081+02041999999ADDAA106000091AG14000GF102991021011004501001001MA1999999096161MD1999999+0141REMSYN010 333 58014
0101832420999991993102712004-12567-041383FM-12+042799999V0209991C00001045001CN0200001N9+02501+02031999999ADDAA106000091AG14000GF108991041051004501011999MA1999999096681MD1999999-0141REMSYN016 333 20/// 59014
0095832420999991993102718004-12567-041383FM-12+042799999V0203201N00261220001CN0200001N9+03341+02091999999ADDAA106000091AG14000GF103991031031004501001001MA1999999096461MD1999999+0051REMSYN010 333 58005
0101832420999991993102812004-12567-041383FM-12+042799999V0209991C00001045001CN0200001N9+02561+01931999999ADDAA106000091AG14000GF108991041051004501021999MA1999999096881MD1999999+0201REMSYN016 333 20/// 58020
0101832420999991993102912004-12567-041383FM-12+042799999V0201401N00311045001CN0200001N9+02581+01851999999ADDAA106000091AG14000GF108991041051004501011999MA1999999097001MD1999999+0121REMSYN016 333 20/// 58012
0095832420999991993103012004-12567-041383FM-12+042799999V0201801N00311045001CN0200001N9+02401+01821999999ADDAA106000091AG14000GF108991041051004501021999MA1999999096871MD1999999-0131REMSYN010 333 59013
0095832420999991993103018004-12567-041383FM-12+042799999V0201801N00411045001CN0200001N9+02941+01821999999ADDAA106000091AG14000GF108991041051004501021999MA1999999096501MD1999999+0001REMSYN010 333 58000
0095832420999991993103118004-12567-041383FM-12+042799999V0201801N00151004201CN0500001N9+02941+01971999999ADDAA106000091AG14000GF106991061031004501001001MA1999999096301MD1999999-0201REMSYN010 333 59020
0101832420999991993110112004-12567-041383FM-12+042799999V0201801N00151004201CN0200001N9+02341+01761999999ADDAA106000091AG14000GF108991081051004501999999MA1999999096911MD1999999+0081REMSYN016 333 20/// 58008
0095832420999991993110118004-12567-041383FM-12+042799999V0202301N00311220001CN0500001N9+03401+02241999999ADDAA106000091AG14000GF102991021021004501001001MA1999999096291MD1999999-0011REMSYN010 333 59001
0118832420999991993110200004-12567-041383FM-12+042799999V0201501N00101000301CN0002001N9+99999+99999999999ADDAG12000GA1091+999999999GF109991091999999999999999MA1999999100772EQDQ01+027273ATOT  Q02+100773APOSP Q03 -00053ATOT  
0111832420999991993110218004-12567-041383FM-12+042799999V0209991C00001220001CN0500001N9+03221+01881999999ADDAA106000091AG14000GA1001+999999999GF100991001001999999001001MA1999999096261MD1999999-0031REMSYN010 333 59003
0101832420999991993110312004-12567-041383FM-12+042799999V0202301N00101045001CN0200001N9+02421+01881999999ADDAA106000091AG14000GF108991041051004501021999MA1999999096721MD1999999-0091REMSYN016 333 20/// 59009
0111832420999991993110318004-12567-041383FM-12+042799999V0201401N00051220001CN0500001N9+03401+01851999999ADDAA106000091AG14000GA1001+999999999GF100991001001999999001001MA1999999096081MD1999999-0181REMSYN010 333 59018
0095832420999991993110418004-12567-041383FM-12+042799999V0202301N00261045001CN0200001N9+03081+01681999999ADDAA106000091AG14000GF108991041021004501061999MA1999999096221MD1999999+0141REMSYN010 333 58014
0095832420999991993110512004-12567-041383FM-12+042799999V0201801N00151045001CN0200001N9+02421+01911999999ADDAA106000091AG14000GF108991041051004501021999MA1999999096621MD1999999-0061REMSYN010 333 59006
0095832420999991993110518004-12567-041383FM-12+042799999V0200501N00151004201CN0500001N9+03141+02041999999ADDAA106000091AG14000GF106991061021004501001001MA1999999096031MD1999999-0211REMSYN010 333 59021
0101832420999991993110612004-12567-041383FM-12+042799999V0201401N00101004201CN0200001N9+02521+01931999999ADDAA106000091AG14000GF108991081021004501999999MA1999999096701MD1999999+0081REMSYN016 333 20/// 58008
0095832420999991993110618004-12567-041383FM-12+042799999V0202301N00101004201CN0500001N9+03321+02071999999ADDAA106000091AG14000GF105991051031004501001001MA1999999096091MD1999999+0081REMSYN010 333 58008
0116832420999991993110712004-12567-041383FM-12+042799999V0200201N00211002401CN0100001N9-02322-02572102331ADDAG12000GA1081+002409079GF108991081061002501999999MA1999999102161MD1210101+9999REMSYN026 333 88708 91108 555 1/123
0081832420999991993111518004-12567-041383FM-12+042799999V0202301N00261105001CN0500001N9+03101+02491999999ADDAA106000091AG14000GF108991041011004501001071MA1999999096821REMSYN010 333 580//
0101832420999991993111612004-12567-041383FM-12+042799999V0201801N00101045001CN0200001N9+02281+02091999999ADDAA106000091AG14000GF108991041021004501061999MA1999999096371MD1999999+0001REMSYN016 333 20/// 58000
0095832420999991993111618004-12567-041383FM-12+042799999V0202301N00261045001CN0500001N9+03001+02141999999ADDAA106000091AG14000GF108991031011004501061071MA1999999096131MD1999999-0181REMSYN010 333 59018
0095832420999991993111712004-12567-041383FM-12+042799999V0209991C00001045001CN0200001N9+02401+01911999999ADDAA106000091AG14000GF108991041051004501021999MA1999999096431MD1999999+0061REMSYN010 333 58006
0101832420999991993111812004-12567-041383FM-12+042799999V0201801N00151045001CN0200001N9+02321+01911999999ADDAA106000091AG14000GF108991041051004501011999MA1999999096441MD1999999+0011REMSYN016 333 20/// 58001
0095832420999991993111818004-12567-041383FM-12+042799999V0202301N00511105001CN0500001N9+03241+01811999999ADDAA106000091AG14000GF108991041031004501001071MA1999999095831MD1999999-0321REMSYN010 333 59032
0101832420999991993111912004-12567-041383FM-12+042799999V0201801N00151045001CN0200001N9+02601+01991999999ADDAA106000091AG14000GF108991041051004501021999MA1999999096191MD1999999-0251REMSYN016 333 20/// 59025
0095832420999991993111918004-12567-041383FM-12+042799999V0201401N00151220001CN0500001N9+03401+02001999999ADDAA106000091AG14000GF104991041021004501001001MA1999999095681MD1999999-0051REMSYN010 333 59005
0095832420999991993112018004-12567-041383FM-12+042799999V0201801N00151220001CN0500001N9+03201+02061999999ADDAA106000091AG14000GF102991021011004501001001MA1999999095951MD1999999+0021REMSYN010 333 58002
0101832420999991993112112004-12567-041383FM-12+042799999V0209991C00001045001CN0200001N9+02301+02111999999ADDAA106000091AG14000GF108991041051004501021999MA1999999096421MD1999999+0171REMSYN016 333 20/// 58017
0095832420999991993112118004-12567-041383FM-12+042799999V0201801N00101004201CN0200001N9+03101+02061999999ADDAA106000091AG14000GF108991081031004501999999MA1999999096011MD1999999+0311REMSYN010 333 58031
0132832420999991993112312004-12567-041383FM-12+042799999V0209991C00001004201CN0200001N9+02141+02061999999ADDAA124000691AA299000591AG10000AY151061GF108991081051004501999999MA1999999096671MD1999999+0311MW1021REMSYN022 333 20/// 58031 69964
0095832420999991993112318004-12567-041383FM-12+042799999V0201401N00261105001CN0500001N9+03181+02221999999ADDAA106000091AG14000GF108991041031004501001071MA1999999096191MD1999999+0171REMSYN010 333 58017
0101832420999991993112512004-12567-041383FM-12+042799999V0209991C00001004201CN0200001N9+02501+01941999999ADDAA106000091AG14000GF108991081051004501999999MA1999999096601MD1999999+0131REMSYN016 333 20/// 58013
0114832420999991993112518004-12567-041383FM-12+042799999V0201401N00151220001CN0500001N9+03381+01751999999ADDAA106000091AG14000GF102991021011004501001001MA1999999095772MD1999999-0321REMSYN010 333 59032EQDQ01+095773APOSP 
0101832420999991993112612004-12567-041383FM-12+042799999V0200501N00101004201CN0500001N9+02501+01871999999ADDAA106000091AG14000GF108991081031004501999999MA1999999096591MD1999999-0011REMSYN016 333 20/// 59001
0111832420999991993112618004-12567-041383FM-12+042799999V0203601N00261220001CN0500001N9+03501+02331999999ADDAA106000091AG14000GA1001+999999999GF100991001001999999001001MA1999999095971MD1999999+0201REMSYN010 333 58020
0101832420999991993112712004-12567-041383FM-12+042799999V0201801N00101045001CN0200001N9+02501+02071999999ADDAA106000091AG14000GF108991041051004501021999MA1999999096401MD1999999-0191REMSYN016 333 20/// 59019
0095832420999991993112718004-12567-041383FM-12+042799999V0201401N00151220001CN0500001N9+03361+02371999999ADDAA106000091AG14000GF102991021021004501001001MA1999999095891MD1999999-0061REMSYN010 333 59006
0087832420999991993120412004-12567-041383FM-12+042799999V0209991C00001004201CN0200001N9+02401+02351999999ADDAA106000091AG14000GF108991081051004501999999MA1999999096341REMSYN016 333 20/// 50000
0081832420999991993120418004-12567-041383FM-12+042799999V0202301N00151004201CN0500001N9+03201+01961999999ADDAA106000091AG14000GF106991061021004501001001MA1999999095911REMSYN010 333 58///
0095832420999991993120518004-12567-041383FM-12+042799999V0209991C00001004201CN0500001N9+03221+01481999999ADDAA106000091AG14000GF106991061021004501001001MA1999999095971MD1999999-0011REMSYN010 333 59001
0123832420999991993120612004-12567-041383FM-12+042799999V0201801N00101004201CN0200001N9+02181+01921999999ADDAA124001091AG10003AY161061AY211061GF108991081051004501999999MA1999999096611MD1999999+0261MW1031REMSYN016 333 58026 60014
0095832420999991993120618004-12567-041383FM-12+042799999V0201401N00311004201CN0500001N9+03221+01951999999ADDAA106000091AG14000GF105991051021004501001001MA1999999096011MD1999999+0141REMSYN010 333 58014
0101832420999991993120712004-12567-041383FM-12+042799999V0200501N00101045001CN0200001N9+02401+02111999999ADDAA106000091AG14000GF108991041051004501021999MA1999999096621MD1999999+0011REMSYN016 333 20/// 58001
0095832420999991993120718004-12567-041383FM-12+042799999V0200501N00101045001CN0500001N9+03141+02161999999ADDAA106000091AG14000GF108991031021004501061081MA1999999096241MD1999999-0021REMSYN010 333 59002
0121832420999991993120812004-12567-041383FM-12+042799999V0201801N00101045001CN0200001N9+02261+02071999999ADDAA124027091AG10003AY161061GF108991041051004501021999MA1999999096031MD1999999+0011MW1021REMSYN022 333 20/// 58001 60274
0095832420999991993120818004-12567-041383FM-12+042799999V0209991C00001045001CN0500001N9+03021+02041999999ADDAA106000091AG14000GF108991041021004501061999MA1999999096121MD1999999+0131REMSYN010 333 58013
0095832420999991993120918004-12567-041383FM-12+042799999V0209991C00001004201CN0500001N9+03341+01981999999ADDAA106000091AG14000GF106991061031004501001001MA1999999095991MD1999999-0131REMSYN010 333 59013
0101832420999991993121012004-12567-041383FM-12+042799999V0200501N00101045001CN0200001N9+02521+02001999999ADDAA106000091AG14000GF108991041021004501021999MA1999999096601MD1999999+0181REMSYN016 333 20/// 58018
0095832420999991993121018004-12567-041383FM-12+042799999V0202301N00101105001CN0500001N9+03361+01731999999ADDAA106000091AG14000GF105991031031004501001071MA1999999095981MD1999999-0011REMSYN010 333 59001
0101832420999991993121112004-12567-041383FM-12+042799999V0209991C00001105001CN0500001N9+02621+02211999999ADDAA106000091AG14000GF108991041031004501001071MA1999999096311MD1999999-0291REMSYN016 333 20/// 59029
0095832420999991993121118004-12567-041383FM-12+042799999V0202301N00151220001CN0500001N9+02361+01941999999ADDAA106000091AG14000GF104991031011004501001071MA1999999095761MD1999999-0221REMSYN010 333 59022
0095832420999991993121218004-12567-041383FM-12+042799999V0202301N00151004201CN0200001N9+03141+01911999999ADDAA106000091AG14000GF108991081051004501999999MA1999999095811MD1999999+0051REMSYN010 333 58005
0107832420999991993121312004-12567-041383FM-12+042799999V0209991C00001004201CN0200001N9+02421+02171999999ADDAA124000591AG10000GF108991081051004501999999MA1999999096241MD1999999-0081REMSYN022 333 20/// 59008 69954
0095832420999991993121318004-12567-041383FM-12+042799999V0201801N00051045001CN0500001N9+03201+02241999999ADDAA106000091AG14000GF108991041031004501061999MA1999999095721MD1999999-0091REMSYN010 333 59009
0129832420999991993121412004-12567-041383FM-12+042799999V0202301N00051045001CN0200001N9+02341+02111999999ADDAA124026091AG10010AY191061AY261061GF108991041051004501021999MA1999999096341MD1999999+0101MW1031REMSYN022 333 20/// 58010 60264
0095832420999991993121418004-12567-041383FM-12+042799999V0201401N00211045001CN0500001N9+02541+02111999999ADDAA106000091AG14000GF108991041051004501021999MA1999999096111MD1999999+0391REMSYN010 333 58039
0101832420999991993121612004-12567-041383FM-12+042799999V0201801N00101045001CN0200001N9+02241+01941999999ADDAA106000091AG14000GF108991041051004501021999MA1999999096451MD1999999-0011REMSYN016 333 20/// 59001
0095832420999991993121618004-12567-041383FM-12+042799999V0201801N00261220001CN0500001N9+03081+01821999999ADDAA106000091AG14000GF102991021011004501001001MA1999999096111MD1999999-0031REMSYN010 333 59003
0095832420999991993121818004-12567-041383FM-12+042799999V0209991C00001105001CN0500001N9+03241+02331999999ADDAA106000091AG14000GF108991041011004501001071MA1999999095811MD1999999-0311REMSYN010 333 59031
0101832420999991993121912004-12567-041383FM-12+042799999V0202301N00151045001CN0200001N9+02361+02131999999ADDAA106000091AG14000GF108991041051004501021999MA1999999096351MD1999999-0151REMSYN016 333 20/// 59015
0095832420999991993121918004-12567-041383FM-12+042799999V0201801N00311105001CN0500001N9+03101+02061999999ADDAA106000091AG14000GF108991041021004501001071MA1999999095911MD1999999+0101REMSYN010 333 58010
0101832420999991993122012004-12567-041383FM-12+042799999V0201801N00101045001CN0200001N9+02401+02111999999ADDAA106000091AG14000GF108991041051000751021999MA1999999096421MD1999999+0071REMSYN016 333 20/// 58007
0095832420999991993122018004-12567-041383FM-12+042799999V0202301N00151004201CN0500001N9+03001+02141999999ADDAA106000091AG14000GF105991051031004501001001MA1999999096121MD1999999+0211REMSYN010 333 58021
0101832420999991993122112004-12567-041383FM-12+042799999V0202301N00101045001CN0200001N9+02661+02221999999ADDAA106000091AG14000GF108991041051004501011999MA1999999096291MD1999999-0131REMSYN016 333 20/// 59013
0095832420999991993122118004-12567-041383FM-12+042799999V0201401N00311045001CN0500001N9+03141+02161999999ADDAA106000091AG14000GF108991031031004501081071MA1999999095871MD1999999-0251REMSYN010 333 59025
0129832420999991993122212004-12567-041383FM-12+042799999V0201801N00211045001CN0200001N9+02361+02261999999ADDAA124003091AG10010AY191061AY261061GF108991041051004501021999MA1999999096621MD1999999+0331MW1021REMSYN022 333 20/// 58033 60034
0095832420999991993122218004-12567-041383FM-12+042799999V0201401N00261045001CN0200001N9+02881+02161999999ADDAA106000091AG14000GF108991041051004501021999MA1999999096161MD1999999+0291REMSYN010 333 58029
0101832420999991993122412004-12567-041383FM-12+042799999V0201401N00151045001CN0200001N9+02401+01991999999ADDAA106000091AG14000GF108991041051004501011999MA1999999096401MD1999999-0141REMSYN016 333 20/// 59014
0095832420999991993122418004-12567-041383FM-12+042799999V0201401N00151004201CN0500001N9+03161+01961999999ADDAA106000091AG14000GF106991061031004501001001MA1999999096111MD1999999-0071REMSYN010 333 59007
0101832420999991993122512004-12567-041383FM-12+042799999V0201801N00101045001CN0200001N9+02421+01951999999ADDAA106000091AG14000GF108991041051004501021999MA1999999096621MD1999999+0221REMSYN016 333 20/// 58022
0095832420999991993122518004-12567-041383FM-12+042799999V0200501N00151105001CN0500001N9+03181+01911999999ADDAA106000091AG14000GF108991041031004501001071MA1999999096111MD1999999+0001REMSYN010 333 58000
0101832420999991993122612004-12567-041383FM-12+042799999V0200401N00261105001CN0500001N9+02481+02071999999ADDAA106000091AG14000GF108991041031004501001071MA1999999096621MD1999999+0001REMSYN016 333 20/// 58000
0095832420999991993122618004-12567-041383FM-12+042799999V0201401N00311105001CN0500001N9+03221+01801999999ADDAA106000091AG14000GF108991041031004501001071MA1999999096081MD1999999-0031REMSYN010 333 59003
0095832420999991993122718004-12567-041383FM-12+042799999V0202301N00151105001CN0500001N9+03201+01931999999ADDAA106000091AG14000GF106991031031004501001071MA1999999096131MD1999999+0051REMSYN010 333 58005
0101832420999991993122812004-12567-041383FM-12+042799999V0201801N00101105001CN0500001N9+02481+02031999999ADDAA106000091AG14000GF108991041031004501001071MA1999999096901MD1999999-0101REMSYN016 333 20/// 59010
0095832420999991993122818004-12567-041383FM-12+042799999V0201801N00101105001CN0500001N9+03221+02291999999ADDAA106000091AG14000GF108991041031004501001071MA1999999096111MD1999999-0021REMSYN010 333 59002
0101832420999991993122912004-12567-041383FM-12+042799999V0201801N00151045001CN0200001N9+02601+02121999999ADDAA106000091AG14000GF108991041051004501021999MA1999999096391MD1999999-0511REMSYN016 333 20/// 59051
0095832420999991993122918004-12567-041383FM-12+042799999V0203201N00261220001CN0200001N9+03421+01961999999ADDAA106000091AG14000GF102991021031004501001001MA1999999095981MD1999999-0131REMSYN010 333 59013
0101832420999991993123012004-12567-041383FM-12+042799999V0201801N00101045001CN0200001N9+02521+02021999999ADDAA106000091AG14000GF108991041051004501021999MA1999999096371MD1999999-0021REMSYN016 333 20/// 59002
0095832420999991993123018004-12567-041383FM-12+042799999V0201401N00051220001CN0500001N9+03501+02131999999ADDAA106000091AG14000GF102991021011004501001001MA1999999095861MD1999999-0121REMSYN010 333 59012
0101832420999991993123112004-12567-041383FM-12+042799999V0201401N00101045001CN0200001N9+02481+02051999999ADDAA106000091AG14000GF108991031011004501061071MA1999999096581MD1999999+0211REMSYN016 333 20/// 58021
0095832420999991993123118004-12567-041383FM-12+042799999V0201801N00311105001CN0500001N9+03601+02181999999ADDAA106000091AG14000GF108991041031004501001071MA1999999095941MD1999999+0081REMSYN010 333 58008
