0136833390999991993040512004-14050-042617FM-12+088299999V0209999999999004201CN0010001N9+02061+01941101321ADDAA106000091AG10000AY141061AY221061GF108991051051004501021999KA1240N+01821MA1999999091561MD1999999+0091MW1401REMSYN016 333 20182 58009
0095833390999991993040518004-14050-042617FM-12+088299999V0209999999999045001CN0200001N9+02541+01781100921ADDAA106000091AG14000GF106991041021004501031001MA1999999091231MD1999999+0121REMSYN010 333 58012
0114833390999991993040600004-14050-042617FM-12+088299999V0209999999999220001CN9999999N9+02261+01861101131ADDAA106000091AG14000GF105991021021004501001041KA1240M+02571MA1999999091401MD1999999+0101REMSYN016 333 10257 58010
0114833390999991993040612004-14050-042617FM-12+088299999V0209999999999004201CN0200001N9+02201+01951101411ADDAA106000091AG14000GF106991061021004501001001KA1240N+01741MA1999999091671MD1999999+0111REMSYN016 333 20174 58011
0095833390999991993040618004-14050-042617FM-12+088299999V0209999999999004201CN0200001N9+02881+01671100851ADDAA106000091AG14000GF105991051021004501001001MA1999999091211MD1999999-0021REMSYN010 333 59002
0130833390999991993040700004-14050-042617FM-12+088299999V0209999999999220001CN9999999N9+02361+01541101001ADDAA106000091AG14000GA1001+999999999GF100991001001999999001001KA1240M+02951MA1999999091311MD1999999-0091REMSYN016 333 10295 59009
0130833390999991993040712004-14050-042617FM-12+088299999V0209999999999220001CN0200001N9+02301+01721101261ADDAA106000091AG14000GA1001+999999999GF100991001001999999001001KA1240N+01681MA1999999091551MD1999999-0121REMSYN016 333 20168 59012
0111833390999991993040718004-14050-042617FM-12+088299999V0209999999999220001CN0200001N9+03041+01041100971ADDAA106000091AG14000GA1001+999999999GF100991001001999999001001MA1999999091241MD1999999+0031REMSYN010 333 58003
0130833390999991993040800004-14050-042617FM-12+088299999V0209999999999220001CN0200001N9+02341+01491101281ADDAA106000091AG14000GA1001+999999999GF100991001001999999001001KA1240N+01561MA1999999091581MD1999999+0031REMSYN016 333 20156 58003
0130833390999991993040812004-14050-042617FM-12+088299999V0209999999999220001CN0200001N9+02341+01491101281ADDAA106000091AG14000GA1001+999999999GF100991001001999999001001KA1240N+01561MA1999999091581MD1999999+0031REMSYN016 333 20156 58003
0111833390999991993040818004-14050-042617FM-12+088299999V0209999999999220001CN0200001N9+03201+01071100711ADDAA106000091AG14000GA1001+999999999GF100991001001999999001001MA1999999091111MD1999999-0131REMSYN010 333 59013
0130833390999991993040900004-14050-042617FM-12+088299999V0209999999999220001CN9999999N9+02581+00371100861ADDAA106000091AG14000GA1001+999999999GF100991001001999999001001KA1240M+03271MA1999999091221MD1999999-0141REMSYN016 333 10327 59014
0130833390999991993041000004-14050-042617FM-12+088299999V0209999999999220001CN9999999N9+02521+01141100971ADDAA106000091AG14000GA1001+999999999GF100991001001999999001001KA1240M+03421MA1999999091311MD1999999+0091REMSYN016 333 10342 58009
0130833390999991993041012004-14050-042617FM-12+088299999V0209999999999220001CN0200001N9+02601+01761101281ADDAA106000091AG14000GA1001+999999999GF100991001001999999001001KA1240N+01801MA1999999091631MD1999999+0151REMSYN016 333 20180 58015
0095833390999991993041018004-14050-042617FM-12+088299999V0209999999999220001CN0200001N9+03261+01471100831ADDAA106000091AG14000GF102991021021004501001001MA1999999091241MD1999999+0091REMSYN010 333 58009
0114833390999991993041100004-14050-042617FM-12+088299999V0209999999999004201CN9999999N9+02721+01351101161ADDAA106000091AG14000GF105991051021004501001001KA1240M+03321MA1999999091531MD1999999+0221REMSYN016 333 10332 58022
0114833390999991993041112004-14050-042617FM-12+088299999V0209999999999004201CN0200001N9+02101+01721101631ADDAA106000091AG14000GF108991051021004501021999KA1240N+01841MA1999999091901MD1999999+0271REMSYN016 333 20184 58027
0081833390999991993041118004-14050-042617FM-12+088299999V0209999999999220001CN0200001N9+02801+02181101211ADDAA106000091AG14000GF104991041021004501001001MA1999999091541REMSYN010 333 28030
0114833390999991993041200004-14050-042617FM-12+088299999V0209999999999220001CN9999999N9+02501+01561101501ADDAA106000091AG14000GF103991031021004501001001KA1240M+02851MA1999999091711MD1999999+0181REMSYN016 333 10285 58018
0142833390999991993041212004-14050-042617FM-12+088299999V0209999999999004201CN0040001N9+01931+01771101581ADDAA124006091AG10002AY161061AY261061GF108991081051004501999999KA1240N+01781MA1999999091821MD1999999-0081MW1501REMSYN022 333 20178 59008 60064
0117833390999991993041218004-14050-042617FM-12+088299999V0209999999999004201CN0200001N9+02601+01411101181ADDAA106000091AG14000AY151061AY201061GF105991051021004501001001MA1999999091491MD1999999-0051MW1021REMSYN010 333 59005
0130833390999991993041300004-14050-042617FM-12+088299999V0209999999999220001CN9999999N9+02181+01721101401ADDAA106000091AG14000GA1001+999999999GF100991001001999999001001KA1240M+02691MA1999999091631MD1999999-0081REMSYN016 333 10269 59008
0114833390999991993041312004-14050-042617FM-12+088299999V0209999999999004201CN0200001N9+02041+01541101431ADDAA106000091AG14000GF106991061021004501001001KA1240N+01731MA1999999091661MD1999999-0161REMSYN016 333 20173 59016
0095833390999991993041318004-14050-042617FM-12+088299999V0209999999999220001CN0200001N9+02671+01151101081ADDAA106000091AG14000GF104991041021004501001001MA1999999091381MD1999999-0111REMSYN010 333 59011
0130833390999991993041400004-14050-042617FM-12+088299999V0209999999999220001CN9999999N9+02201+01251101271ADDAA106000091AG14000GA1001+999999999GF100991001001999999001001KA1240M+02731MA1999999091521MD1999999-0111REMSYN016 333 10273 59011
0095833390999991993041418004-14050-042617FM-12+088299999V0209999999999220001CN0200001N9+02781+01221101061ADDAA106000091AG14000GF103991031021004501001001MA1999999091381MD1999999+0001REMSYN010 333 58000
0130833390999991993041500004-14050-042617FM-12+088299999V0209999999999220001CN9999999N9+02251+01291101341ADDAA106000091AG14000GA1001+999999999GF100991001001999999001001KA1240M+02831MA1999999091901MD1999999+0081REMSYN016 333 10283 58008
0114833390999991993041512004-14050-042617FM-12+088299999V0209999999999220001CN0200001N9+02241+01731101571ADDAA106000091AG14000GF104991041021004501001001KA1240N+01861MA1999999091821MD1999999+0181REMSYN016 333 20186 58018
0095833390999991993041518004-14050-042617FM-12+088299999V0209999999999220001CN0200001N9+02861+00931101141ADDAA106000091AG14000GF103991031021004501001001MA1999999091471MD1999999+0091REMSYN010 333 58009
0149833390999991993041600004-14050-042617FM-12+088299999V0209999999999220001CN9999999N9+02401+01131101401ADDAA106000091AG14000GA1001+999999999GF100991001001999999001001KA1240M+99999MA1999999091671MD1999999+0071REMSYN016 333 10229 58007EQDQ01 +02292ATMX  
0114833390999991993041612004-14050-042617FM-12+088299999V0209999999999004201CN0040001N9+02081+01701101701ADDAA106000091AG14000GF107991061021004501021999KA1240N+01821MA1999999091941MD1999999+0121REMSYN016 333 20182 58012
0095833390999991993041618004-14050-042617FM-12+088299999V0209999999999220001CN0200001N9+02801+01311101241ADDAA106000091AG14000GF103991031021004501001001MA1999999091551MD1999999+0081REMSYN010 333 58008
0130833390999991993041700004-14050-042617FM-12+088299999V0209999999999220001CN9999999N9+02631+01561101451ADDAA106000091AG14000GA1001+999999999GF100991001001999999001001KA1240M+02841MA1999999091701MD1999999+0031REMSYN016 333 10284 58003
0114833390999991993041712004-14050-042617FM-12+088299999V0209999999999220001CN0200001N9+02221+01511101531ADDAA106000091AG14000GF102991021021004501001001KA1240N+01741MA1999999091791MD1999999-0151REMSYN016 333 20174 59015
0062833390999991993041718004-14050-042617FM-12+088299999V0209999999999220001CN0200001N9+02891+00621101031ADDAA106000091AG14000GF104991999999004501999999MA1999999091361
0133833390999991993041812004-14050-042617FM-12+088299999V02099999999999999999N0200001N9+02241+01551101431ADDAA106000091AG14000GF105991999021004501001001KA1240N+01861MA1999999091691MD1999999-0101REMSYN016 333 20186 59010EQDQ01+000062SCOTLC
0095833390999991993041818004-14050-042617FM-12+088299999V0209999999999220001CN0200001N9+02921+00721100981ADDAA106000091AG14000GF103991031021004501001001MA1999999091321MD1999999-0041REMSYN010 333 59004
0130833390999991993041900004-14050-042617FM-12+088299999V0209999999999220001CN9999999N9+02421+00981101181ADDAA106000091AG14000GA1001+999999999GF100991001001999999001001KA1240M+03011MA1999999091481MD1999999-0021REMSYN016 333 10301 59002
0114833390999991993042100004-14050-042617FM-12+088299999V0209999999999220001CN9999999N9+02181+01721101601ADDAA106000091AG14000GF102991021021004501001001KA1240M+02691MA1999999091831MD1999999+0171REMSYN016 333 10269 58017
0136833390999991993042112004-14050-042617FM-12+088299999V0209999999999004201CN0200001N9+02041+01681101701ADDAA106000091AG10000AY101061AY201061GF106991061021004501001001KA1240N+01721MA1999999091911MD1999999+0101MW1101REMSYN016 333 20172 58010
0095833390999991993042118004-14050-042617FM-12+088299999V0209999999999220001CN0200001N9+02841+01061101231ADDAA106000091AG14000GF104991041021004501001001MA1999999091541MD1999999-0031REMSYN010 333 59003
0114833390999991993042200004-14050-042617FM-12+088299999V0209999999999220001CN9999999N9+02341+01471101531ADDAA106000091AG14000GF102991021021004501001001KA1240M+02891MA1999999091771MD1999999-0061REMSYN016 333 10289 59006
0114833390999991993042212004-14050-042617FM-12+088299999V0209999999999220001CN0200001N9+02261+01691101541ADDAA106000091AG14000GF103991031021004501001001KA1240N+01741MA1999999091801MD1999999-0111REMSYN016 333 20174 59011
0095833390999991993042218004-14050-042617FM-12+088299999V0209999999999220001CN0200001N9+02921+01221101051ADDAA106000091AG14000GF104991041021004501001001MA1999999091381MD1999999-0161REMSYN010 333 59016
0130833390999991993042300004-14050-042617FM-12+088299999V0209999999999220001CN9999999N9+02461+01321101261ADDAA106000091AG14000GA1001+999999999GF100991001001999999001001KA1240M+02991MA1999999091571MD1999999-0201REMSYN016 333 10299 59020
0114833390999991993042312004-14050-042617FM-12+088299999V0209999999999004201CN0200001N9+02141+01641101541ADDAA106000091AG14000GF106991061021004501001001KA1240N+01681MA1999999091791MD1999999-0011REMSYN016 333 20168 59001
0095833390999991993042318004-14050-042617FM-12+088299999V0209999999999220001CN0200001N9+02901+01361100991ADDAA106000091AG14000GF103991031021004501001001MA1999999091331MD1999999-0051REMSYN010 333 59005
0130833390999991993042400004-14050-042617FM-12+088299999V0209999999999220001CN9999999N9+02441+01201101271ADDAA106000091AG14000GA1001+999999999GF100991001001999999001001KA1240M+02941MA1999999091551MD1999999-0021REMSYN016 333 10294 59002
0114833390999991993042412004-14050-042617FM-12+088299999V0209999999999004201CN0200001N9+02141+01801101431ADDAA106000091AG14000GF106991061021004501001001KA1240N+01801MA1999999091701MD1999999-0091REMSYN016 333 20180 59009
0095833390999991993042418004-14050-042617FM-12+088299999V0209999999999004201CN0200001N9+02981+01401100921ADDAA106000091AG14000GF106991061021004501001001MA1999999091281MD1999999-0051REMSYN010 333 59005
0130833390999991993042500004-14050-042617FM-12+088299999V0209999999999220001CN9999999N9+02401+01411101171ADDAA106000091AG14000GA1001+999999999GF100991001001999999001001KA1240M+03031MA1999999091451MD1999999-0101REMSYN016 333 10303 59010
0114833390999991993042512004-14050-042617FM-12+088299999V0209999999999220001CN0200001N9+02261+01901101311ADDAA106000091AG14000GF105991031021004501001041KA1240N+01661MA1999999091601MD1999999-0101REMSYN016 333 20166 59010
0095833390999991993042518004-14050-042617FM-12+088299999V0209999999999004201CN0200001N9+02921+01601100951ADDAA106000091AG14000GF106991061021004501001001MA1999999091391MD1999999+0011REMSYN010 333 58001
0114833390999991993042600004-14050-042617FM-12+088299999V0209999999999004201CN9999999N9+02431+01561101161ADDAA106000091AG14000GF106991061021004501001001KA1240M+03011MA1999999091461MD1999999+0011REMSYN016 333 10301 58001
0114833390999991993042612004-14050-042617FM-12+088299999V0209999999999220001CN0200001N9+02401+01751101271ADDAA106000091AG14000GF102991021021004501001001KA1240N+01721MA1999999091571MD1999999-0031REMSYN016 333 20172 59003
0095833390999991993042618004-14050-042617FM-12+088299999V0209999999999004201CN0200001N9+02861+01251100801ADDAA106000091AG14000GF106991061021004501001001MA1999999091961MD1999999-0131REMSYN010 333 59013
0114833390999991993042700004-14050-042617FM-12+088299999V0209999999999220001CN9999999N9+02381+01631101071ADDAA106000091AG14000GF102991021021004501001001KA1240M+02981MA1999999091391MD1999999+0031REMSYN016 333 10298 58003
0114833390999991993042712004-14050-042617FM-12+088299999V0209999999999004201CN0200001N9+02221+01841101331ADDAA106000091AG14000GF106991061021004501001001KA1240N+01831MA1999999091611MD1999999+0041REMSYN016 333 20183 58004
0095833390999991993042718004-14050-042617FM-12+088299999V0209999999999220001CN0200001N9+02881+01271100921ADDAA106000091AG14000GF103991031021004501001001MA1999999091281MD1999999+0121REMSYN010 333 58012
0114833390999991993042800004-14050-042617FM-12+088299999V0209999999999220001CN9999999N9+02481+01271101211ADDAA106000091AG14000GF102991021021004501001001KA1240M+02931MA1999999091511MD1999999+0121REMSYN016 333 10293 58012
0136833390999991993042812004-14050-042617FM-12+088299999V0209999999999004201CN0040001N9+02081+01861101461ADDAA106000091AG10000AY101061AY201061GF106991051021004501021001KA1240N+01831MA1999999091731MD1999999+0121MW1101REMSYN016 333 20183 58012
0095833390999991993042818004-14050-042617FM-12+088299999V0209999999999004201CN0200001N9+02571+01311101111ADDAA106000091AG14000GF106991051021004501001021MA1999999091411MD1999999+0131REMSYN010 333 58013
0114833390999991993042900004-14050-042617FM-12+088299999V0209999999999004201CN9999999N9+02261+01691101361ADDAA106000091AG14000GF106991061021004501001001KA1240M+02751MA1999999091611MD1999999+0101REMSYN016 333 10275 58010
0136833390999991993042912004-14050-042617FM-12+088299999V0209999999999004201CN0200001N9+02041+01681101491ADDAA106000091AG10000AY101061AY201061GF106991061021004501001001KA1240N+01721MA1999999091721MD1999999-0011MW1001REMSYN016 333 20172 59001
0095833390999991993042918004-14050-042617FM-12+088299999V0209999999999004201CN0200001N9+02621+01431101091ADDAA106000091AG14000GF105991051021004501001001MA1999999091391MD1999999-0021REMSYN010 333 59002
0114833390999991993043000004-14050-042617FM-12+088299999V0209999999999004201CN9999999N9+02321+01581101351ADDAA106000091AG14000GF106991061021004501001001KA1240M+02671MA1999999091611MD1999999+0001REMSYN016 333 10267 58000
0114833390999991993043012004-14050-042617FM-12+088299999V0209999999999004201CN0200001N9+02121+01641101551ADDAA106000091AG14000GF108991061021004501021999KA1240N+01701MA1999999091791MD1999999+0071REMSYN016 333 20170 58007
0095833390999991993043018004-14050-042617FM-12+088299999V0209999999999004201CN0200001N9+02681+01301101111ADDAA106000091AG14000GF106991061021004501001001MA1999999091411MD1999999+0021REMSYN010 333 58002
0114833390999991993050112004-14050-042617FM-12+088299999V0209999999999004201CN0200001N9+01961+01741101631ADDAA106000091AG14000GF108991051051004501021999KA1240N+01641MA1999999091831MD1999999+0041REMSYN016 333 20164 58004
0095833390999991993050118004-14050-042617FM-12+088299999V0209999999999004201CN0200001N9+02661+01371101191ADDAA106000091AG14000GF106991061021004501001001MA1999999091471MD1999999+0061REMSYN010 333 58006
0114833390999991993050200004-14050-042617FM-12+088299999V0209999999999220001CN9999999N9+02241+01531101401ADDAA106000091AG14000GF102991021021004501001001KA1240M+02731MA1999999091641MD1999999-0061REMSYN016 333 10273 59006
0114833390999991993050212004-14050-042617FM-12+088299999V0209999999999004201CN0200001N9+02001+01721101511ADDAA106000091AG14000GF106991061021004501001001KA1240N+01671MA1999999091741MD1999999-0091REMSYN016 333 20167 59009
0095833390999991993050218004-14050-042617FM-12+088299999V0209999999999220001CN0200001N9+02621+01501101081ADDAA106000091AG14000GF103991031021004501001001MA1999999091371MD1999999-0101REMSYN010 333 59010
0114833390999991993050300004-14050-042617FM-12+088299999V0209999999999220001CN9999999N9+02181+01631101361ADDAA106000091AG14000GF102991021021004501001001KA1240M+02671MA1999999091601MD1999999-0041REMSYN016 333 10267 59004
0114833390999991993050312004-14050-042617FM-12+088299999V0209999999999004201CN0200001N9+02101+01781101481ADDAA106000091AG14000GF106991061021004501001001KA1240N+01561MA1999999091721MD1999999-0021REMSYN016 333 20156 59002
0095833390999991993050318004-14050-042617FM-12+088299999V0209999999999004201CN0200001N9+02961+01381100831ADDAA106000091AG14000GF105991051021004501001001MA1999999091731MD1999999-0141REMSYN010 333 59014
0114833390999991993050400004-14050-042617FM-12+088299999V0209999999999220001CN9999999N9+02401+01471101071ADDAA106000091AG14000GF102991021021004501001001KA1240M+03051MA1999999091361MD1999999-0241REMSYN016 333 10305 59024
0114833390999991993050412004-14050-042617FM-12+088299999V0209999999999220001CN0200001N9+02181+01941101231ADDAA106000091AG14000GF104991041021004501001001KA1240N+01661MA1999999091521MD1999999-0181REMSYN016 333 20166 59018
0134833390999991993050418004-14050-042617FM-12+088299999V0209999999999004201CN0200001N9+02661+01681101091ADDAA106000291AA299000191AG10000AY121061AY221061GF106991061021004501001001MA1999999091301MD1999999+0071MW1971REMSYN016 333 58007 69921
0125833390999991993050500004-14050-042617FM-12+088299999V0209999999999220001CN9999999N9+02161+01881101411ADDAG12007AY191061AY261061GF102991021021004501001001KA1240M+02691MA1999999091651MD1999999+0291MW1021REMSYN016 333 10269 58029
0142833390999991993050512004-14050-042617FM-12+088299999V0209999999999004201CN0200001N9+02021+01941101791ADDAA124008091AG10007AY191061AY261061GF108991051021004501021999KA1240N+01701MA1999999091961MD1999999+0441MW1101REMSYN022 333 20170 58044 60084
0095833390999991993050518004-14050-042617FM-12+088299999V0209999999999220001CN0200001N9+02761+01621101211ADDAA106000091AG14000GF104991041021004501001001MA1999999091521MD1999999+0221REMSYN010 333 58022
0114833390999991993050600004-14050-042617FM-12+088299999V0209999999999105001CN9999999N9+02281+01611101381ADDAA106000091AG14000GF105991021021004501031011KA1240M+02811MA1999999091631MD1999999-0021REMSYN016 333 10281 59002
0114833390999991993050612004-14050-042617FM-12+088299999V0209999999999220001CN0200001N9+02261+01941101431ADDAA106000091AG14000GF103991031021004501001001KA1240N+01801MA1999999091691MD1999999+0001REMSYN016 333 20180 58000
0095833390999991993050618004-14050-042617FM-12+088299999V0209999999999220001CN0200001N9+03001+01411100911ADDAA106000091AG14000GF104991041021004501001001MA1999999091271MD1999999-0251REMSYN010 333 59025
0088833390999991993050700004-14050-042617FM-12+088299999V02099999999999999999N9999999N9+02251+01551101151ADDAA106000091AG14000KA1240M+03021MA1999999091461MD1999999-0171REMSYN016 333 10302 59017
0114833390999991993050712004-14050-042617FM-12+088299999V0209999999999004201CN0200001N9+02321+01851101321ADDAA106000091AG14000GF106991061021004501001001KA1240N+01981MA1999999091631MD1999999-0061REMSYN016 333 20198 59006
0095833390999991993050718004-14050-042617FM-12+088299999V0209999999999004201CN0200001N9+02451+01761101191ADDAA106000091AG14000GF106991061021004501001001MA1999999091441MD1999999+0221REMSYN010 333 58022
0117833390999991993050818004-14050-042617FM-12+088299999V0209999999999220001CN0200001N9+02621+01301101161ADDAA106000091AG10000AY141061AY201061GF103991031021004501001001MA1999999091451MD1999999-0041MW1021REMSYN010 333 59004
0095833390999991993050918004-14050-042617FM-12+088299999V0209999999999220001CN0200001N9+02721+00911101031ADDAA106000091AG14000GF102991021021004501001001MA1999999091341MD1999999-0111REMSYN010 333 59011
0130833390999991993051000004-14050-042617FM-12+088299999V0209999999999220001CN9999999N9+02201+01051101241ADDAA106000091AG14000GA1001+999999999GF100991001001999999001001KA1240M+02781MA1999999091501MD1999999-0201REMSYN016 333 10278 59020
0095833390999991993051018004-14050-042617FM-12+088299999V0209999999999004201CN0200001N9+03531+01171101911ADDAA106000091AG14000GF105991051021004501001001MA1999999091221MD1999999-0121REMSYN010 333 59012
0114833390999991993051100004-14050-042617FM-12+088299999V0209999999999220001CN9999999N9+02201+01081101181ADDAA106000091AG14000GF103991031021004501001001KA1240M+02591MA1999999091431MD1999999-0071REMSYN016 333 10259 59007
0101833390999991993051112004-14050-042617FM-12+088299999V0209999999999220001CN0200001N9+01981+01541101381ADDAA106000091AG14000GF104991041021004501001001MA1999999091621MD1999999+0101REMSYN016 333 20/// 58010
0095833390999991993051118004-14050-042617FM-12+088299999V0209999999999220001CN0200001N9+02761+00851100941ADDAA106000091AG14000GF102991021021004501001001MA1999999091251MD1999999+0031REMSYN010 333 58003
0130833390999991993051200004-14050-042617FM-12+088299999V0209999999999220001CN9999999N9+02421+01081101151ADDAA106000091AG14000GA1001+999999999GF100991001001999999001001KA1240M+02791MA1999999091931MD1999999+0001REMSYN016 333 10279 58000
0136833390999991993051212004-14050-042617FM-12+088299999V0209999999999004201CN0200001N9+02081+01801101361ADDAA106000091AG10000AY101061AY201061GF106991061021004501001001KA1240N+01641MA1999999091631MD1999999+0011MW1111REMSYN016 333 20164 58001
0095833390999991993051218004-14050-042617FM-12+088299999V0209999999999220001CN0200001N9+02541+01541100951ADDAA106000091AG14000GF103991031021004501001001MA1999999091251MD1999999+0001REMSYN010 333 58000
0095833390999991993051318004-14050-042617FM-12+088299999V0209999999999220001CN0200001N9+02761+01431100841ADDAA106000091AG14000GF103991031021004501001001MA1999999091181MD1999999-0071REMSYN010 333 59007
0130833390999991993051400004-14050-042617FM-12+088299999V0209999999999220001CN9999999N9+02221+01841101041ADDAA106000091AG14000GA1001+999999999GF100991001001999999001001KA1240M+02831MA1999999091321MD1999999-0011REMSYN016 333 10283 59001
0114833390999991993051412004-14050-042617FM-12+088299999V0209999999999004201CN0200001N9+02121+01841101321ADDAA106000091AG14000GF108991051051004501021999KA1240N+01681MA1999999091571MD1999999-0051REMSYN016 333 20168 59005
0095833390999991993051418004-14050-042617FM-12+088299999V0209999999999220001CN0200001N9+03001+01451100761ADDAA106000091AG14000GF102991021021004501001001MA1999999091141MD1999999-0041REMSYN010 333 59004
0130833390999991993051512004-14050-042617FM-12+088299999V0209999999999220001CN0200001N9+02361+01761101211ADDAA106000091AG14000GA1001+999999999GF100991001001999999001001KA1240N+01721MA1999999091521MD1999999-0051REMSYN016 333 20172 59005
0123833390999991993051718004-14050-042617FM-12+088299999V0209999999999004201CN0200001N9+02391+01681101461ADDAA124001091AG10002AY161061AY261061GF106991061021004501001001MA1999999091711MD1999999+0181MW1021REMSYN016 333 58018 60014
0136833390999991993051800004-14050-042617FM-12+088299999V0209999999999004201CN9999999N9+01991+01791101731ADDAA106000091AG10000AY101061AY201061GF108991081051004501999999KA1240M+02451MA1999999091901MD1999999+0031MW1101REMSYN016 333 10245 58003
0142833390999991993051812004-14050-042617FM-12+088299999V0209999999999004201CN0040001N9+01741+01691101831ADDAA124013091AG10002AY161061AY261061GF108991081051004501999999KA1240N+01581MA1999999091971MD1999999-0071MW1501REMSYN022 333 20158 59007 60134
0153833390999991993051900004-14050-042617FM-12+088299999V0209999999999004201CN9999999N9+01751+01681101771ADDAA106000491AA299000591AG10002AY161061AY261061GF108991081051004501999999KA1240M+02141MA1999999091901MD1999999+0001MW1101REMSYN022 333 10214 58000 69941
0114833390999991993052000004-14050-042617FM-12+088299999V0209999999999220001CN9999999N9+01961+01531101521ADDAA106000091AG14000GF102991021021004501001001KA1240M+02261MA1999999091691MD1999999-0211REMSYN016 333 10226 59021
0095833390999991993052018004-14050-042617FM-12+088299999V0209999999999220001CN0200001N9+02291+01241101281ADDAA106000091AG14000GF102991021021004501001001MA1999999091521MD1999999+0011REMSYN010 333 58001
0130833390999991993052100004-14050-042617FM-12+088299999V0209999999999220001CN9999999N9+02041+01431101541ADDAA106000091AG14000GA1001+999999999GF100991001001999999001001KA1240M+02351MA1999999091731MD1999999+0041REMSYN016 333 10235 58004
0114833390999991993052112004-14050-042617FM-12+088299999V0209999999999220001CN0200001N9+01861+01301101711ADDAA106000091AG14000GF102991021021004501001001KA1240N+01431MA1999999091881MD1999999+0031REMSYN016 333 20143 58003
0111833390999991993052118004-14050-042617FM-12+088299999V0209999999999220001CN0200001N9+02501+00971101271ADDAA106000091AG14000GA1001+999999999GF100991001001999999001001MA1999999091521MD1999999+0001REMSYN010 333 58000
0136833390999991993052212004-14050-042617FM-12+088299999V0209999999999004201CN0200001N9+01701+01411101791ADDAA106000091AG10000AY101061AY201061GF106991061021004501001001KA1240N+01441MA1999999091951MD1999999+0071MW1101REMSYN016 333 20144 58007
0095833390999991993052218004-14050-042617FM-12+088299999V0209999999999220001CN0200001N9+02381+99999101341ADDAA106000091AG14000GF102991021021004501001001MA1999999091581MD1999999+0061REMSYN010 333 58006
0114833390999991993052300004-14050-042617FM-12+088299999V0209999999999220001CN9999999N9+02021+01001101591ADDAA106000091AG14000GF102991021021004501001001KA1240M+02431MA1999999091751MD1999999+0061REMSYN016 333 10243 58006
0114833390999991993052312004-14050-042617FM-12+088299999V0209999999999220001CN0200001N9+01801+01271101781ADDAA106000091AG14000GF102991021021004501001001KA1240N+01371MA1999999091941MD1999999-0011REMSYN016 333 20137 59001
0095833390999991993052318004-14050-042617FM-12+088299999V0209999999999220001CN0200001N9+02491+00611101361ADDAA106000091AG14000GF102991021021004501001001MA1999999091601MD1999999+0021REMSYN010 333 58002
0130833390999991993052400004-14050-042617FM-12+088299999V0209999999999220001CN9999999N9+01961+00831101571ADDAA106000091AG14000GA1001+999999999GF100991001001999999001001KA1240M+02551MA1999999091741MD1999999-0011REMSYN016 333 10255 59001
0114833390999991993052412004-14050-042617FM-12+088299999V0209999999999004201CN0200001N9+01681+01211101761ADDAA106000091AG14000GF106991061021004501001001KA1240N+01361MA1999999091901MD1999999-0041REMSYN016 333 20136 59004
0111833390999991993052418004-14050-042617FM-12+088299999V0209999999999220001CN0200001N9+02421+00861101261ADDAA106000091AG14000GA1001+999999999GF100991001001999999001001MA1999999091491MD1999999-0111REMSYN010 333 59011
0114833390999991993052512004-14050-042617FM-12+088299999V0209999999999220001CN0200001N9+01881+01361101611ADDAA106000091AG14000GF103991031021004501001001KA1240N+01341MA1999999091781MD1999999-0121REMSYN016 333 20134 59012
0095833390999991993052518004-14050-042617FM-12+088299999V0209999999999220001CN0200001N9+02581+01361101091ADDAA106000091AG14000GF104991041021004501001001MA1999999091361MD1999999-0131REMSYN010 333 59013
0130833390999991993052600004-14050-042617FM-12+088299999V0209999999999220001CN9999999N9+02041+01051101331ADDAA106000091AG14000GA1001+999999999GF100991001001999999001001KA1240M+02691MA1999999091551MD1999999-0061REMSYN016 333 10269 59006
0130833390999991993052612004-14050-042617FM-12+088299999V0209999999999220001CN0200001N9+02021+01501101441ADDAA106000091AG14000GA1001+999999999GF100991001001999999001001KA1240N+01301MA1999999091661MD1999999-0121REMSYN016 333 20130 59012
0095833390999991993052618004-14050-042617FM-12+088299999V0209999999999220001CN0200001N9+02781+01331101041ADDAA106000091AG14000GF103991031021004501001001MA1999999091361MD1999999+0001REMSYN010 333 58000
0130833390999991993052700004-14050-042617FM-12+088299999V0209999999999220001CN9999999N9+02301+01381101331ADDAA106000091AG14000GA1001+999999999GF100991001001999999001001KA1240M+02831MA1999999091581MD1999999+0031REMSYN016 333 10283 58003
0114833390999991993052712004-14050-042617FM-12+088299999V0209999999999045001CN0200001N9+01941+01721101701ADDAA106000091AG14000GF108991031021004501021999KA1240N+01481MA1999999091911MD1999999+0051REMSYN016 333 20148 58005
0095833390999991993052718004-14050-042617FM-12+088299999V0209999999999220001CN0200001N9+02721+01391101271ADDAA106000091AG14000GF102991021021004501001001MA1999999091541MD1999999+0181REMSYN010 333 58018
0130833390999991993052800004-14050-042617FM-12+088299999V0209999999999220001CN9999999N9+02281+01411101531ADDAA106000091AG14000GA1001+999999999GF100991001001999999001001KA1240M+02791MA1999999091751MD1999999+0171REMSYN016 333 10279 58017
0130833390999991993052812004-14050-042617FM-12+088299999V0209999999999220001CN0200001N9+02221+01761101771ADDAA106000091AG14000GA1001+999999999GF100991001001999999001001KA1240N+01521MA1999999092001MD1999999+0091REMSYN016 333 20152 58009
0095833390999991993052818004-14050-042617FM-12+088299999V0209999999999220001CN0200001N9+02881+01181101351ADDAA106000091AG14000GF103991031021004501001001MA1999999091641MD1999999+0101REMSYN010 333 58010
0130833390999991993052900004-14050-042617FM-12+088299999V0209999999999220001CN9999999N9+02381+01121101631ADDAA106000091AG14000GA1001+999999999GF100991001001999999001001KA1240M+02911MA1999999091881MD1999999+0131REMSYN016 333 10291 58013
0114833390999991993052912004-14050-042617FM-12+088299999V0209999999999004201CN0200001N9+02141+01591101881ADDAA106000091AG14000GF106991061021004501001001KA1240N+01721MA1999999092101MD1999999+0101REMSYN016 333 20172 58010
0095833390999991993052918004-14050-042617FM-12+088299999V0209999999999220001CN0200001N9+02521+01431101491ADDAA106000091AG14000GF102991021021004501001001MA1999999091751MD1999999+0111REMSYN010 333 58011
0130833390999991993053000004-14050-042617FM-12+088299999V0209999999999220001CN9999999N9+02061+01471101791ADDAA106000091AG14000GA1001+999999999GF100991001001999999001001KA1240M+02581MA1999999091981MD1999999+0101REMSYN016 333 10258 58010
0111833390999991993053018004-14050-042617FM-12+088299999V0209999999999220001CN0200001N9+03261+02151101121ADDAA106000091AG14000GA1001+999999999GF100991001001999999001001MA1999999096091MD1999999-0141REMSYN010 333 59014
0149833390999991993053100004-14050-042617FM-12+088299999V0209999999999220001CN9999999N9+02091+01371101581ADDAA106000091AG14000GA1001+999999999GF100991001001999999001001KA1240M+02591MA1999999091762MD1999999-0221REMSYN016 333 10259 59022EQDQ01+091763APOSP 
0136833390999991993053112004-14050-042617FM-12+088299999V0209999999999004201CN0200001N9+01781+01581101951ADDAA106000091AG10000AY101061AY201061GF106991061021004501001001KA1240N+01531MA1999999092101MD1999999-0011MW1101REMSYN016 333 20153 59001
0095833390999991993053118004-14050-042617FM-12+088299999V0209999999999220001CN0200001N9+02861+00781101441ADDAA106000091AG14000GF102991021021004501001001MA1999999091721MD1999999+0151REMSYN010 333 58015
0187833390999991993060100004-14050-042617FM-12+088299999V0209999999999220001CN9999999N9+02301+00871101721ADDAA106000091AG14000GA1031+013209039GF199999999001999999001001KA1240M+02931MA1999999091911MD1999999+0151REMSYN022 333 10293 58015 83344EQDQ01+000002SCOTCVQ02+000002SCOTLCQ03+000992SCOLCB
0130833390999991993060112004-14050-042617FM-12+088299999V0209999999999220001CN0200001N9+02161+01631101881ADDAA106000091AG14000GA1001+999999999GF100991001001999999001001KA1240N+01561MA1999999092101MD1999999+0001REMSYN016 333 20156 58000
0095833390999991993060118004-14050-042617FM-12+088299999V0209999999999220001CN0200001N9+02821+00951101511ADDAA106000091AG14000GF102991021021004501001001MA1999999091791MD1999999+0071REMSYN010 333 58007
0130833390999991993060200004-14050-042617FM-12+088299999V0209999999999220001CN9999999N9+02321+01031101761ADDAA106000091AG14000GA1001+999999999GF100991001001999999001001KA1240M+02891MA1999999091991MD1999999+0081REMSYN016 333 10289 58008
0136833390999991993060212004-14050-042617FM-12+088299999V0209999999999004201CN0200001N9+01891+01621101961ADDAA106000091AG10000AY101061AY201061GF106991061021004501001001KA1240N+01681MA1999999092141MD1999999+0041MW1101REMSYN016 333 20168 58004
0095833390999991993060218004-14050-042617FM-12+088299999V0209999999999220001CN0200001N9+02501+01221101641ADDAA106000091AG14000GF102991021021004501001001MA1999999091881MD1999999+0091REMSYN010 333 58009
0136833390999991993060312004-14050-042617FM-12+088299999V0209999999999004201CN0200001N9+01861+01731102051ADDAA106000091AG10000AY101061AY201061GF106991061021004501001001KA1240N+01661MA1999999092201MD1999999+0061MW1101REMSYN016 333 20166 58006
0095833390999991993060318004-14050-042617FM-12+088299999V0209999999999004201CN0200001N9+02431+01461101591ADDAA106000091AG14000GF105991051021004501001001MA1999999091831MD1999999-0051REMSYN010 333 59005
0136833390999991993060400004-14050-042617FM-12+088299999V0209999999999220001CN9999999N9+01951+01611101881ADDAA106000091AG10000AY101061AY201061GF102991021021004501001001KA1240M+02461MA1999999092031MD1999999-0061MW1101REMSYN016 333 10246 59006
0125833390999991993060412004-14050-042617FM-12+088299999V0209999999999004201CN0040001N9+01761+01691101951ADDAG11000AY101061AY201061GF108991081051004501999999KA1240N+01541MA1999999092081MD1999999-0121MW1101REMSYN016 333 20154 59012
0114833390999991993060500004-14050-042617FM-12+088299999V0209999999999220001CN9999999N9+02071+01471101831ADDAA106000091AG14000GF104991041021004501001001KA1240M+02391MA1999999091981MD1999999-0051REMSYN016 333 10239 59005
0114833390999991993060512004-14050-042617FM-12+088299999V0209999999999004201CN0200001N9+01861+01641101831ADDAA106000091AG14000GF106991061021004501001001KA1240N+01541MA1999999092031MD1999999-0051REMSYN016 333 20154 59005
0095833390999991993060518004-14050-042617FM-12+088299999V0209999999999220001CN0200001N9+02481+01141101431ADDAA106000091AG14000GF102991021021004501001001MA1999999091661MD1999999-0181REMSYN010 333 59018
0095833390999991993060718004-14050-042617FM-12+088299999V0209999999999220001CN0200001N9+02481+01171101381ADDAA106000091AG14000GF102991021021004501001001MA1999999091631MD1999999-0041REMSYN010 333 59004
0114833390999991993060800004-14050-042617FM-12+088299999V0209999999999220001CN0200001N9+01861+01471101751ADDAA106000091AG14000GF104991041021004501001001KA1240N+01421MA1999999091931MD1999999-0061REMSYN016 333 20142 59006
0114833390999991993060812004-14050-042617FM-12+088299999V0209999999999220001CN0200001N9+01861+01471101751ADDAA106000091AG14000GF104991041021004501001001KA1240N+01421MA1999999091931MD1999999-0061REMSYN016 333 20142 59006
0111833390999991993060818004-14050-042617FM-12+088299999V0209999999999220001CN0200001N9+02481+00741101381ADDAA106000091AG14000GA1001+999999999GF100991001001999999001001MA1999999091621MD1999999-0011REMSYN010 333 59001
0130833390999991993060900004-14050-042617FM-12+088299999V0209999999999220001CN9999999N9+02101+00961101581ADDAA106000091AG14000GA1001+999999999GF100991001001999999001001KA1240M+02501MA1999999091771MD1999999-0051REMSYN016 333 10250 59005
0130833390999991993061000004-14050-042617FM-12+088299999V0209999999999220001CN9999999N9+02041+01681101551ADDAA106000091AG14000GA1001+999999999GF100991001001999999001001KA1240M+02451MA1999999091731MD1999999-0041REMSYN016 333 10245 59004
0114833390999991993061012004-14050-042617FM-12+088299999V0209999999999004201CN0200001N9+01911+01681101811ADDAA106000091AG14000GF106991061021004501001001KA1240N+01611MA1999999091971MD1999999+0161REMSYN016 333 20161 58016
0095833390999991993061018004-14050-042617FM-12+088299999V0209999999999220001CN0200001N9+02641+00741101391ADDAA106000091AG14000GF102991021021004501001001MA1999999091651MD1999999+0061REMSYN010 333 58006
0130833390999991993061100004-14050-042617FM-12+088299999V0209999999999220001CN9999999N9+02281+01091101591ADDAA106000091AG14000GA1001+999999999GF100991001001999999001001KA1240M+02671MA1999999091811MD1999999+0121REMSYN016 333 10267 58012
0114833390999991993061112004-14050-042617FM-12+088299999V0209999999999220001CN0200001N9+01901+01381101831ADDAA106000091AG14000GF102991021021004501001001KA1240N+01531MA1999999092021MD1999999+0051REMSYN016 333 20153 58005
0095833390999991993061118004-14050-042617FM-12+088299999V0209999999999220001CN0200001N9+02581+00881101451ADDAA106000091AG14000GF104991021021004501001011MA1999999091701MD1999999+0051REMSYN010 333 58005
0130833390999991993061200004-14050-042617FM-12+088299999V0209999999999220001CN9999999N9+02131+01311101751ADDAA106000091AG14000GA1001+999999999GF100991001001999999001001KA1240M+02521MA1999999091931MD1999999+0121REMSYN016 333 10252 58012
0095833390999991993061318004-14050-042617FM-12+088299999V0209999999999220001CN0200001N9+02241+01091101581ADDAA106000091AG14000GF104991031021004501001011MA1999999091741MD1999999-0041REMSYN010 333 59004
0130833390999991993061400004-14050-042617FM-12+088299999V0209999999999220001CN9999999N9+01951+01281101791ADDAA106000091AG14000GA1001+999999999GF100991001001999999001001KA1240M+02271MA1999999091941MD1999999+0131REMSYN016 333 10227 58013
0114833390999991993061412004-14050-042617FM-12+088299999V0209999999999004201CN0200001N9+01581+01081101951ADDAA106000091AG14000GF106991061021004501001001KA1240N+01241MA1999999092061MD1999999+0011REMSYN016 333 20124 58001
0095833390999991993061418004-14050-042617FM-12+088299999V0209999999999220001CN0200001N9+02121+00981101691ADDAA106000091AG14000GF102991021021004501021001MA1999999091841MD1999999+0101REMSYN010 333 58010
0130833390999991993061500004-14050-042617FM-12+088299999V0209999999999220001CN9999999N9+01881+01111101921ADDAA106000091AG14000GA1001+999999999GF100991001001999999001001KA1240M+02151MA1999999092041MD1999999+0101REMSYN016 333 10215 58010
0114833390999991993061512004-14050-042617FM-12+088299999V0209999999999004201CN0200001N9+01621+01091102101ADDAA106000091AG14000GF106991061021004501001001KA1240N+01281MA1999999092211MD1999999+0151REMSYN016 333 20128 58015
0095833390999991993061518004-14050-042617FM-12+088299999V0209999999999220001CN0200001N9+02041+01021101821ADDAA106000091AG14000GF103991031021004501001001MA1999999091951MD1999999+0111REMSYN010 333 58011
0130833390999991993061600004-14050-042617FM-12+088299999V0209999999999220001CN9999999N9+01861+00911101961ADDAA106000091AG14000GA1001+999999999GF100991001001999999001001KA1240M+02091MA1999999092081MD1999999+0041REMSYN016 333 10209 58004
0142833390999991993061612004-14050-042617FM-12+088299999V0209999999999004201CN0010001N9+01441+01381102211ADDAA124000391AG10002AY161061AY241061GF108991051051004501021999KA1240N+01221MA1999999092271MD1999999+0061MW1401REMSYN022 333 20122 58006 69934
0117833390999991993061618004-14050-042617FM-12+088299999V0209999999999220001CN0200001N9+02301+01111101661ADDAA106000091AG10000AY141061AY221061GF102991021021004501001001MA1999999091831MD1999999-0121MW1021REMSYN010 333 59012
0130833390999991993061700004-14050-042617FM-12+088299999V0209999999999220001CN9999999N9+01851+01171101901ADDAA106000091AG14000GA1001+999999999GF100991001001999999001001KA1240M+02341MA1999999092001MD1999999-0081REMSYN016 333 10234 59008
0095833390999991993061718004-14050-042617FM-12+088299999V0209999999999220001CN0200001N9+02181+01211101601ADDAA106000091AG14000GF102991021021004501001001MA1999999091761MD1999999-0071REMSYN010 333 59007
0130833390999991993061800004-14050-042617FM-12+088299999V0209999999999220001CN9999999N9+01841+01071101761ADDAA106000091AG14000GA1001+999999999GF100991001001999999001001KA1240M+02251MA1999999091881MD1999999-0121REMSYN016 333 10225 59012
0114833390999991993061812004-14050-042617FM-12+088299999V0209999999999220001CN0200001N9+01881+01341101901ADDAA106000091AG14000GF102991021021004501001001KA1240N+01101MA1999999092041MD1999999-0071REMSYN016 333 20110 59007
0095833390999991993061818004-14050-042617FM-12+088299999V0209999999999004201CN0200001N9+02561+00861101381ADDAA106000091AG14000GF105991051021004501001001MA1999999091611MD1999999-0151REMSYN010 333 59015
0130833390999991993061900004-14050-042617FM-12+088299999V0209999999999220001CN9999999N9+02221+00801101621ADDAA106000091AG14000GA1001+999999999GF100991001001999999001001KA1240M+02691MA1999999091821MD1999999-0061REMSYN016 333 10269 59006
0095833390999991993061918004-14050-042617FM-12+088299999V0209999999999220001CN0200001N9+02881+00851101251ADDAA106000091AG14000GF104991021021004501001011MA1999999091531MD1999999-0081REMSYN010 333 59008
0114833390999991993062012004-14050-042617FM-12+088299999V0209999999999220001CN0200001N9+02001+01441101841ADDAA106000091AG14000GF106991021021004501001041KA1240N+01361MA1999999092031MD1999999+0151REMSYN016 333 20136 58015
0095833390999991993062018004-14050-042617FM-12+088299999V0209999999999220001CN0200001N9+02641+01171101461ADDAA106000091AG14000GF106991031021004501001041MA1999999091701MD1999999+0171REMSYN010 333 58017
0114833390999991993062100004-14050-042617FM-12+088299999V0209999999999220001CN9999999N9+02181+01521101701ADDAA106000091AG14000GF106991041021004501001041KA1240M+02671MA1999999091911MD1999999+0181REMSYN016 333 10267 58018
0114833390999991993062112004-14050-042617FM-12+088299999V0209999999999004201CN0200001N9+01751+01541102031ADDAA106000091AG14000GF108991051051004501021999KA1240N+01541MA1999999092171MD1999999+0141REMSYN016 333 20154 58014
0130833390999991993062200004-14050-042617FM-12+088299999V0209999999999220001CN9999999N9+01861+01351101851ADDAA106000091AG14000GA1001+999999999GF100991001001999999001001KA1240M+02351MA1999999091981MD1999999+0071REMSYN016 333 10235 58007
0130833390999991993062300004-14050-042617FM-12+088299999V0209999999999220001CN9999999N9+01941+01271101841ADDAA106000091AG14000GA1001+999999999GF100991001001999999001001KA1240M+02431MA1999999091971MD1999999-0011REMSYN016 333 10243 59001
0114833390999991993062412004-14050-042617FM-12+088299999V0209999999999045001CN0200001N9+01561+01431101981ADDAA106000091AG14000GF108991041051004501021999KA1240N+01141MA1999999092091MD1999999-0041REMSYN016 333 20114 59004
0111833390999991993062418004-14050-042617FM-12+088299999V0209999999999220001CN0200001N9+02501+00891101531ADDAA106000091AG14000GA1001+999999999GF100991001001999999001001MA1999999091721MD1999999-0061REMSYN010 333 59006
0130833390999991993062500004-14050-042617FM-12+088299999V0209999999999220001CN9999999N9+01941+00651101761ADDAA106000091AG14000GA1001+999999999GF100991001001999999001001KA1240M+02511MA1999999091891MD1999999-0011REMSYN016 333 10251 59001
0114833390999991993062512004-14050-042617FM-12+088299999V0209999999999220001CN0200001N9+01741+01411101861ADDAA106000091AG14000GF102991021021004501001001KA1240N+01161MA1999999092001MD1999999-0091REMSYN016 333 20116 59009
0095833390999991993062518004-14050-042617FM-12+088299999V0209999999999220001CN0200001N9+02601+00851101451ADDAA106000091AG14000GF103991031021004501001001MA1999999091691MD1999999-0031REMSYN010 333 59003
0130833390999991993062600004-14050-042617FM-12+088299999V0209999999999220001CN9999999N9+02061+00651101691ADDAA106000091AG14000GA1001+999999999GF100991001001999999001001KA1240M+02641MA1999999091851MD1999999-0041REMSYN016 333 10264 59004
0114833390999991993062612004-14050-042617FM-12+088299999V0209999999999220001CN0200001N9+01841+01471101761ADDAA106000091AG14000GF104991041021004501001001KA1240N+01261MA1999999091931MD1999999-0071REMSYN016 333 20126 59007
0095833390999991993062618004-14050-042617FM-12+088299999V0209999999999220001CN0200001N9+02321+01191101401ADDAA106000091AG14000GF104991031021004501001011MA1999999091631MD1999999-0061REMSYN010 333 59006
0114833390999991993062700004-14050-042617FM-12+088299999V0209999999999220001CN9999999N9+02061+00951101541ADDAA106000091AG14000GF102991021021004501001001KA1240M+02371MA1999999091731MD1999999-0121REMSYN016 333 10237 59012
0114833390999991993062712004-14050-042617FM-12+088299999V0209999999999004201CN0200001N9+01741+01431101861ADDAA106000091AG14000GF106991061021004501001001KA1240N+01201MA1999999092011MD1999999+0081REMSYN016 333 20120 58008
0095833390999991993062718004-14050-042617FM-12+088299999V0209999999999220001CN0200001N9+02601+00981101371ADDAA106000091AG14000GF104991021021004501001011MA1999999091601MD1999999-0031REMSYN010 333 59003
0130833390999991993062800004-14050-042617FM-12+088299999V0209999999999220001CN9999999N9+01981+01231101671ADDAA106000091AG14000GA1001+999999999GF100991001001999999001001KA1240M+02611MA1999999091811MD1999999+0081REMSYN016 333 10261 58008
0114833390999991993062812004-14050-042617FM-12+088299999V0209999999999220001CN0200001N9+01901+01531101741ADDAA106000091AG14000GF102991021021004501001001KA1240N+01241MA1999999091911MD1999999-0101REMSYN016 333 20124 59010
0095833390999991993062818004-14050-042617FM-12+088299999V0209999999999220001CN0200001N9+02701+01021101301ADDAA106000091AG14000GF102991021021004501001001MA1999999091551MD1999999-0051REMSYN010 333 59005
0130833390999991993062900004-14050-042617FM-12+088299999V0209999999999220001CN9999999N9+02141+01031101481ADDAA106000091AG14000GA1001+999999999GF100991001001999999001001KA1240M+02731MA1999999091681MD1999999-0231REMSYN016 333 10273 59023
0130833390999991993062912004-14050-042617FM-12+088299999V0209999999999220001CN0200001N9+02121+01441101571ADDAA106000091AG14000GA1001+999999999GF100991001001999999001001KA1240N+01361MA1999999091801MD1999999-0111REMSYN016 333 20136 59011
0095833390999991993062918004-14050-042617FM-12+088299999V0209999999999220001CN0200001N9+02921+00831101081ADDAA106000091AG14000GF102991021021004501001001MA1999999091381MD1999999-0171REMSYN010 333 59017
0130833390999991993063000004-14050-042617FM-12+088299999V0209999999999220001CN9999999N9+02381+00611101341ADDAA106000091AG14000GA1001+999999999GF100991001001999999001001KA1240M+02971MA1999999091611MD1999999-0071REMSYN016 333 10297 59007
0114833390999991993063012004-14050-042617FM-12+088299999V0209999999999220001CN0200001N9+02001+01121101521ADDAA106000091AG14000GF102991021021004501001001KA1240N+01501MA1999999091761MD1999999-0041REMSYN016 333 20150 59004
0095833390999991993063018004-14050-042617FM-12+088299999V0209999999999220001CN0200001N9+03021+00611101001ADDAA106000091AG14000GF102991021021004501001001MA1999999091341MD1999999-0041REMSYN010 333 59004
0130833390999991993070312004-14050-042617FM-12+088299999V0209999999999220001CN0200001N9+02201+01611101531ADDAA106000091AG14000GA1001+999999999GF100991001001999999001001KA1240N+01521MA1999999091791MD1999999+0001REMSYN016 333 20152 58000
0130833390999991993070400004-14050-042617FM-12+088299999V0209999999999220001CN9999999N9+02361+00921101341ADDAA106000091AG14000GA1001+999999999GF100991001001999999001001KA1240M+02991MA1999999091621MD1999999-0021REMSYN016 333 10299 59002
0111833390999991993070418004-14050-042617FM-12+088299999V0209999999999220001CN0200001N9+02761+00691101261ADDAA106000091AG14000GA1001+999999999GF100991001001999999001001MA1999999091561MD1999999+0081REMSYN010 333 58008
0114833390999991993070500004-14050-042617FM-12+088299999V0209999999999220001CN9999999N9+02221+01071101511ADDAA106000091AG14000GF102991021021004501001001KA1240M+02791MA1999999091761MD1999999+0161REMSYN016 333 10279 58016
0069833390999991993070515004-14050-042617FM-12+088299999V0200901N00311220001CN0200001N9+02851+02151101821ADDAG12000GF102991021021008001001001MD1999999+0051REMSYN010 333 58005
0114833390999991993070612004-14050-042617FM-12+088299999V0209999999999220001CN0200001N9+01921+01491101631ADDAA106000091AG14000GF102991021021004501001001KA1240N+01261MA1999999091831MD1999999+0041REMSYN016 333 20126 58004
0130833390999991993070700004-14050-042617FM-12+088299999V0209999999999220001CN9999999N9+02121+00781101371ADDAA106000091AG14000GA1001+999999999GF100991001001999999001001KA1240M+02791MA1999999091591MD1999999-0041REMSYN016 333 10279 59004
0114833390999991993070712004-14050-042617FM-12+088299999V0209999999999220001CN0200001N9+01941+01311101621ADDAA106000091AG14000GF102991021021004501001001KA1240N+01261MA1999999091821MD1999999-0011REMSYN016 333 20126 59001
0095833390999991993070718004-14050-042617FM-12+088299999V0209999999999220001CN0200001N9+02721+00641101191ADDAA106000091AG14000GF104991041001004501001001MA1999999091741MD1999999+0031REMSYN010 333 58003
0130833390999991993070800004-14050-042617FM-12+088299999V0209999999999220001CN9999999N9+02221+00601101291ADDAA106000091AG14000GA1001+999999999GF100991001001999999001001KA1240M+02751MA1999999091541MD1999999-0051REMSYN016 333 10275 59005
0116833390999991993070812004-14050-042617FM-12+088299999V0209999999999220001CN0200001N9+02071+01311101491ADDAA106000091AG14000GA1001+999999999GF100991001001999999001001KA1240N+01301MA1999999091731REMSYN016 333 20130 59909
0111833390999991993070818004-14050-042617FM-12+088299999V0209999999999220001CN0200001N9+02641+00591101161ADDAA106000091AG14000GA1001+999999999GF100991001001999999001001MA1999999091441MD1999999-0031REMSYN010 333 59003
0130833390999991993070900004-14050-042617FM-12+088299999V0209999999999220001CN9999999N9+02081+00711101421ADDAA106000091AG14000GA1001+999999999GF100991001001999999001001KA1240M+02691MA1999999091651MD1999999+0111REMSYN016 333 10269 58011
0114833390999991993070912004-14050-042617FM-12+088299999V0209999999999220001CN0200001N9+01781+01431101881ADDAA106000091AG14000GF102991021021004501001001KA1240N+01361MA1999999092041MD1999999+0011REMSYN016 333 20136 58001
0095833390999991993070918004-14050-042617FM-12+088299999V0209999999999220001CN0200001N9+02361+01061101591ADDAA106000091AG14000GF103991031021004501001001MA1999999091791MD1999999+0351REMSYN010 333 58035
0136833390999991993071012004-14050-042617FM-12+088299999V0209999999999004201CN0200001N9+01681+01351101981ADDAA106000091AG10000AY101061AY201061GF106991061021004501001001KA1240N+01301MA1999999092091MD1999999+0051MW1101REMSYN016 333 20130 58005
0111833390999991993071018004-14050-042617FM-12+088299999V0209999999999220001CN0200001N9+02391+00861101521ADDAA106000091AG14000GA1001+999999999GF100991001001999999001001MA1999999091721MD1999999-0071REMSYN010 333 59007
0130833390999991993071100004-14050-042617FM-12+088299999V0209999999999220001CN9999999N9+02061+01121101651ADDAA106000091AG14000GA1001+999999999GF100991001001999999001001KA1240M+02441MA1999999091811MD1999999-0141REMSYN016 333 10244 59014
0136833390999991993071112004-14050-042617FM-12+088299999V0209999999999004201CN0040001N9+01701+01521101721ADDAA106000091AG10000AY101061AY201061GF106991051021004501021001KA1240N+01461MA1999999091881MD1999999-0211MW1101REMSYN016 333 20146 59021
0095833390999991993071118004-14050-042617FM-12+088299999V0209999999999220001CN0200001N9+02481+01121101331ADDAA106000091AG14000GF104991041021004501001001MA1999999091581MD1999999-0141REMSYN010 333 59014
0114833390999991993071200004-14050-042617FM-12+088299999V0209999999999220001CN9999999N9+02071+01521101501ADDAA106000091AG14000GF102991021021004501001001KA1240M+02531MA1999999091681MD1999999-0131REMSYN016 333 10253 59013
0095833390999991993071218004-14050-042617FM-12+088299999V0209999999999220001CN0200001N9+02521+00871101421ADDAA106000091AG14000GF102991021021004501001001MA1999999091671MD1999999+0091REMSYN010 333 58009
0130833390999991993071300004-14050-042617FM-12+088299999V0209999999999220001CN9999999N9+02041+00961101661ADDAA106000091AG14000GA1001+999999999GF100991001001999999001001KA1240M+02561MA1999999091841MD1999999+0161REMSYN016 333 10256 58016
0114833390999991993071312004-14050-042617FM-12+088299999V0209999999999004201CN0200001N9+01921+01531102011ADDAA106000091AG14000GF106991061021004501001001KA1240N+01471MA1999999092161MD1999999+0151REMSYN016 333 20147 58015
0114833390999991993071412004-14050-042617FM-12+088299999V0209999999999004201CN0200001N9+01821+01551102091ADDAA106000091AG14000GF106991061021004501001001KA1240N+01541MA1999999092241MD1999999+0081REMSYN016 333 20154 58008
0095833390999991993071418004-14050-042617FM-12+088299999V0209999999999220001CN0200001N9+02481+01301101631ADDAA106000091AG14000GF104991041021004501001001MA1999999091851MD1999999+0031REMSYN010 333 58003
0130833390999991993071500004-14050-042617FM-12+088299999V0209999999999220001CN9999999N9+02161+01351101831ADDAA106000091AG14000GA1001+999999999GF100991001001999999001001KA1240M+02581MA1999999092001MD1999999+0041REMSYN016 333 10258 58004
0114833390999991993071512004-14050-042617FM-12+088299999V0209999999999004201CN0200001N9+01821+01531101961ADDAA106000091AG14000GF108991051021004501021999KA1240N+01571MA1999999092131MD1999999-0111REMSYN016 333 20157 59011
0130833390999991993071600004-14050-042617FM-12+088299999V0209999999999220001CN9999999N9+02101+00861101831ADDAA106000091AG14000GA1001+999999999GF100991001001999999001001KA1240M+02531MA1999999091991MD1999999-0011REMSYN016 333 10253 59001
0114833390999991993071612004-14050-042617FM-12+088299999V0209999999999220001CN0200001N9+01701+01291102061ADDAA106000091AG14000GF102991021021004501001001KA1240N+01151MA1999999092191MD1999999+0061REMSYN016 333 20115 58006
0095833390999991993071618004-14050-042617FM-12+088299999V0209999999999220001CN0200001N9+02401+01131101751ADDAA106000091AG14000GF104991041021004501001001MA1999999091921MD1999999+0161REMSYN010 333 58016
0130833390999991993071700004-14050-042617FM-12+088299999V0209999999999220001CN9999999N9+01941+01221101951ADDAA106000091AG14000GA1001+999999999GF100991001001999999001001KA1240M+02451MA1999999092071MD1999999+0081REMSYN016 333 10245 58008
0153833390999991993071712004-14050-042617FM-12+088299999V0209999999999004201CN0010001N9+01721+01551102261ADDAA124000891AA299001091AG10002AY161061AY221061GF106991061021004501001001KA1240N+01401MA1999999092361MD1999999+0171MW1401REMSYN022 333 20140 58017 69984
0117833390999991993071718004-14050-042617FM-12+088299999V0209999999999220001CN0200001N9+02421+00981101771ADDAA106000091AG10000AY141061AY221061GF102991021021004501001001MA1999999091951MD1999999+0031MW1021REMSYN010 333 58003
0130833390999991993071800004-14050-042617FM-12+088299999V0209999999999220001CN9999999N9+02001+01321102101ADDAA106000091AG14000GA1001+999999999GF100991001001999999001001KA1240M+02401MA1999999092221MD1999999+0151REMSYN016 333 10240 58015
0142833390999991993071812004-14050-042617FM-12+088299999V0209999999999004201CN0010001N9+01601+01541102261ADDAA124001091AG10002AY161061AY241061GF108991051051004501021999KA1240N+01441MA1999999092351MD1999999-0011MW1501REMSYN022 333 20144 59001 60014
0114833390999991993071900004-14050-042617FM-12+088299999V0209999999999004201CN9999999N9+01851+01531102161ADDAA106000091AG14000GF106991061021004501001001KA1240M+02391MA1999999092241MD1999999+0021REMSYN016 333 10239 58002
0136833390999991993071912004-14050-042617FM-12+088299999V0209999999999004201CN0200001N9+01621+01291102151ADDAA106000091AG10000AY101061AY201061GF106991061021004501001001KA1240N+01361MA1999999092231MD1999999-0121MW1001REMSYN016 333 20136 59012
0095833390999991993071918004-14050-042617FM-12+088299999V0209999999999220001CN0200001N9+02361+00851101671ADDAA106000091AG14000GF102991021021004501001001MA1999999091851MD1999999-0171REMSYN010 333 59017
0130833390999991993072000004-14050-042617FM-12+088299999V0209999999999220001CN9999999N9+01921+01051101881ADDAA106000091AG14000GA1001+999999999GF100991001001999999001001KA1240M+02411MA1999999091991MD1999999-0251REMSYN016 333 10241 59025
0142833390999991993072012004-14050-042617FM-12+088299999V0209999999999004201CN0040001N9+01681+01651101931ADDAA124009091AG10002AY161061AY261061GF108991081051004501999999KA1240N+01471MA1999999092051MD1999999-0181MW1101REMSYN022 333 20147 59018 60094
0114833390999991993072100004-14050-042617FM-12+088299999V0209999999999220001CN9999999N9+01931+01201101871ADDAA106000091AG14000GF102991021021004501001001KA1240M+02391MA1999999092001MD1999999+0011REMSYN016 333 10239 58001
0095833390999991993072118004-14050-042617FM-12+088299999V0209999999999220001CN0200001N9+02381+00941101641ADDAA106000091AG14000GF103991031021004501001001MA1999999091821MD1999999-0021REMSYN010 333 59002
0130833390999991993072200004-14050-042617FM-12+088299999V0209999999999220001CN9999999N9+02041+00961101791ADDAA106000091AG14000GA1001+999999999GF100991001001999999001001KA1240M+02451MA1999999091941MD1999999-0061REMSYN016 333 10245 59006
0136833390999991993072212004-14050-042617FM-12+088299999V0209999999999004201CN0040001N9+01741+01541102001ADDAA106000091AG10000AY101061AY201061GF107991061021004501021999KA1240N+01421MA1999999092141MD1999999+0071MW1101REMSYN016 333 20142 58007
0095833390999991993072218004-14050-042617FM-12+088299999V0209999999999045001CN0200001N9+02381+01151101601ADDAA106000091AG14000GF105991041021004501021001MA1999999091801MD1999999-0021REMSYN010 333 59002
0133833390999991993072300004-14050-042617FM-12+088299999V0209999999999220001CN9999999N9+02021+01331107752ADDAA106000091AG14000GF102991021021004501001001KA1240M+02451MA1999999091911MD1999999-0031REMSYN016 333 10245 59003EQDQ01+107753APOSLP
0111833390999991993072318004-14050-042617FM-12+088299999V0209999999999220001CN0200001N9+02401+00721101661ADDAA106000091AG14000GA1001+999999999GF100991001001999999001001MA1999999091851MD1999999+0051REMSYN010 333 58005
0130833390999991993072400004-14050-042617FM-12+088299999V0209999999999220001CN9999999N9+01941+01581101831ADDAA106000091AG14000GA1001+999999999GF100991001001999999001001KA1240M+02431MA1999999091871MD1999999+0061REMSYN016 333 10243 58006
0136833390999991993072412004-14050-042617FM-12+088299999V0209999999999004201CN0200001N9+01801+01471101941ADDAA106000091AG10000AY101061AY201061GF105991051021004501001001KA1240N+01421MA1999999092071MD1999999-0101MW1101REMSYN016 333 20142 59010
0136833390999991993072512004-14050-042617FM-12+088299999V0209999999999004201CN0200001N9+01641+01561101721ADDAA106000091AG10000AY101061AY201061GF106991061021004501001001KA1240N+01401MA1999999091871MD1999999-0201MW1101REMSYN016 333 20140 59020
0095833390999991993072518004-14050-042617FM-12+088299999V0209999999999220001CN0200001N9+02721+00551101261ADDAA106000091AG14000GF102991021021004501001001MA1999999091491MD1999999-0231REMSYN010 333 59023
0114833390999991993072600004-14050-042617FM-12+088299999V0209999999999220001CN9999999N9+02161+00671101521ADDAA106000091AG14000GF102991021021004501001081KA1240M+02831MA1999999091701MD1999999-0081REMSYN016 333 10283 59008
0114833390999991993072612004-14050-042617FM-12+088299999V0209999999999004201CN0200001N9+01741+01561101691ADDAA106000091AG14000GF108991051051004501021999KA1240N+01461MA1999999091861MD1999999-0011REMSYN016 333 20146 59001
0095833390999991993072618004-14050-042617FM-12+088299999V0209999999999045001CN0200001N9+02551+01101101251ADDAA106000091AG14000GF106991031021004501031001MA1999999091511MD1999999+0021REMSYN010 333 58002
0130833390999991993072700004-14050-042617FM-12+088299999V0201401N00151220001CN9999999N9+02171+02111101411ADDAA106000091AG14000GF103991031041004501001001MA1999999999999MD1999999+0031REMSYN010 333 58003EQDQ01+100723APOSP Q02 100723APOSP 
0114833390999991993072712004-14050-042617FM-12+088299999V0209999999999004201CN0200001N9+01921+01361101691ADDAA106000091AG14000GF106991051021004501021001KA1240N+01421MA1999999091901MD1999999+0041REMSYN016 333 20142 58004
0095833390999991993072718004-14050-042617FM-12+088299999V0209999999999220001CN0200001N9+02681+00781101331ADDAA106000091AG14000GF104991031021004501001021MA1999999091601MD1999999+0001REMSYN010 333 58000
0114833390999991993072800004-14050-042617FM-12+088299999V0209999999999220001CN9999999N9+02241+00851101651ADDAA106000091AG14000GF103991011021004501031001KA1240M+02721MA1999999091861MD1999999+0151REMSYN016 333 10272 58015
0114833390999991993072812004-14050-042617FM-12+088299999V0209999999999004201CN0200001N9+01781+01411102041ADDAA106000091AG14000GF106991061021004501001001KA1240N-00481MA1999999092191MD1999999+0291REMSYN016 333 21048 58029
0095833390999991993072818004-14050-042617FM-12+088299999V0209999999999220001CN0200001N9+02501+01161101661ADDAA106000091AG14000GF103991011021004501001011MA1999999091871MD1999999+0271REMSYN010 333 58027
0114833390999991993072900004-14050-042617FM-12+088299999V0209999999999220001CN9999999N9+02131+01031101931ADDAA106000091AG14000GF104991021021004501031001KA1240M+02531MA1999999092081MD1999999+0221REMSYN016 333 10253 58022
0114833390999991993072912004-14050-042617FM-12+088299999V0209999999999004201CN0200001N9+01701+01461102041ADDAA106000091AG14000GF108991051021004501021999KA1240N+01401MA1999999092171MD1999999-0021REMSYN016 333 20140 59002
0095833390999991993072918004-14050-042617FM-12+088299999V0209999999999220001CN0200001N9+02381+01131101601ADDAA106000091AG14000GF104991041021004501001001MA1999999091791MD1999999-0081REMSYN010 333 59008
0130833390999991993073000004-14050-042617FM-12+088299999V0209999999999220001CN9999999N9+01921+01531101871ADDAA106000091AG14000GA1001+999999999GF100991001001999999001001KA1240M+02471MA1999999092001MD1999999-0081REMSYN016 333 10247 59008
0114833390999991993073012004-14050-042617FM-12+088299999V0209999999999220001CN0200001N9+01941+01361101961ADDAA106000091AG14000GF102991021021004501001001KA1240N+01481MA1999999092111MD1999999-0061REMSYN016 333 20148 59006
0095833390999991993073018004-14050-042617FM-12+088299999V0209999999999220001CN0200001N9+02241+01121101551ADDAA106000091AG14000GF103991011021004501001041MA1999999091771MD1999999-0021REMSYN010 333 59002
0095833390999991993073118004-14050-042617FM-12+088299999V0209999999999004201CN0200001N9+02381+01421101511ADDAA106000091AG14000GF105991051021004501001001MA1999999091701MD1999999-0071REMSYN010 333 59007
0136833390999991993080212004-14050-042617FM-12+088299999V0209999999999004201CN0200001N9+01841+01511101901ADDAA106000091AG10000AY101061AY201061GF106991061021004501001001KA1240N+01541MA1999999092071MD1999999+0071MW1101REMSYN016 333 20154 58007
0095833390999991993080218004-14050-042617FM-12+088299999V0209999999999220001CN0200001N9+02461+01291101521ADDAA106000091AG14000GF104991041021004501001001MA1999999091751MD1999999+0141REMSYN010 333 58014
0130833390999991993080300004-14050-042617FM-12+088299999V0209999999999220001CN9999999N9+02101+01241101961ADDAA106000091AG14000GA1001+999999999GF100991001001999999001001KA1240M+02551MA1999999092101MD1999999+0221REMSYN016 333 10255 58022
0114833390999991993080312004-14050-042617FM-12+088299999V0209999999999220001CN0200001N9+01891+01231102071ADDAA106000091AG14000GF102991021021004501001001KA1240N+01401MA1999999092221MD1999999+0151REMSYN016 333 20140 58015
0095833390999991993080318004-14050-042617FM-12+088299999V0209999999999004201CN0200001N9+02531+01241101801ADDAA106000091AG14000GF105991051021004501001001MA1999999091991MD1999999+0241REMSYN010 333 58024
0114833390999991993080400004-14050-042617FM-12+088299999V0209999999999004201CN9999999N9+02101+01551102031ADDAA106000091AG14000GF105991051021004501001001KA1240M+02591MA1999999092101MD1999999+0081REMSYN016 333 10259 58008
0114833390999991993080412004-14050-042617FM-12+088299999V0209999999999220001CN0200001N9+01781+01201102151ADDAA106000091AG14000GF103991031021004501001001KA1240N+01331MA1999999092281MD1999999+0061REMSYN016 333 20133 58006
0095833390999991993080418004-14050-042617FM-12+088299999V0209999999999220001CN0200001N9+02481+00401101651ADDAA106000091AG14000GF102991011021004501021001MA1999999091861MD1999999-0131REMSYN010 333 59013
0114833390999991993080500004-14050-042617FM-12+088299999V0209999999999220001CN9999999N9+02041+00711101851ADDAA106000091AG14000GF102991021021004501001001KA1240M+02531MA1999999092001MD1999999-0181REMSYN016 333 10253 59018
0114833390999991993080512004-14050-042617FM-12+088299999V0209999999999004201CN0200001N9+01781+01231102001ADDAA106000091AG14000GF106991051021004501021001KA1240N+01341MA1999999092141MD1999999-0141REMSYN016 333 20134 59014
0095833390999991993080518004-14050-042617FM-12+088299999V0209999999999220001CN0200001N9+02481+00911101551ADDAA106000091AG14000GF102991021021004501001001MA1999999091751MD1999999-0111REMSYN010 333 59011
0114833390999991993080600004-14050-042617FM-12+088299999V0209999999999220001CN9999999N9+01981+01261101751ADDAA106000091AG14000GF102991021021004501001001KA1240M+02531MA1999999091911MD1999999-0091REMSYN016 333 10253 59009
0142833390999991993080612004-14050-042617FM-12+088299999V0209999999999004201CN0040001N9+01601+01581101871ADDAA124001091AG10002AY161061AY261061GF108991081051004501999999KA1240N+01401MA1999999091991MD1999999-0151MW1101REMSYN022 333 20140 59015 60014
0095833390999991993080618004-14050-042617FM-12+088299999V0209999999999004201CN0040001N9+02261+01281101561ADDAA106000091AG14000GF107991061021004501021999MA1999999091751MD1999999+0001REMSYN010 333 58000
0114833390999991993080700004-14050-042617FM-12+088299999V0209999999999220001CN9999999N9+02021+01291101691ADDAA106000091AG14000GF102991021021004501001001KA1240M+02311MA1999999091841MD1999999-0071REMSYN016 333 10231 59007
0114833390999991993080712004-14050-042617FM-12+088299999V0209999999999004201CN0200001N9+01891+01251101821ADDAA106000091AG14000GF106991061021004501001001KA1240N+01431MA1999999091981MD1999999-0011REMSYN016 333 20143 59001
0095833390999991993080718004-14050-042617FM-12+088299999V0209999999999004201CN0200001N9+02471+00211101381ADDAA106000091AG14000GF106991051021004501021001MA1999999091631MD1999999-0121REMSYN010 333 59012
0114833390999991993080812004-14050-042617FM-12+088299999V0209999999999045001CN0200001N9+01821+01291101691ADDAA106000091AG14000GF105991041021004501031001KA1240N+01391MA1999999091851MD1999999-0131REMSYN016 333 20139 59013
0095833390999991993080818004-14050-042617FM-12+088299999V0209999999999220001CN0200001N9+02631+00281101211ADDAA106000091AG14000GF103991021021004501001021MA1999999091481MD1999999-0151REMSYN010 333 59015
0130833390999991993080900004-14050-042617FM-12+088299999V0209999999999220001CN9999999N9+02161+00511101381ADDAA106000091AG14000GA1001+999999999GF100991001001999999001001KA1240M+02651MA1999999091601MD1999999-0071REMSYN016 333 10265 59007
0114833390999991993080912004-14050-042617FM-12+088299999V0209999999999220001CN0200001N9+01901+01471101641ADDAA106000091AG14000GF102991021021004501001001KA1240N+01141MA1999999091841MD1999999-0011REMSYN016 333 20114 59001
0111833390999991993080918004-14050-042617FM-12+088299999V0209999999999220001CN0200001N9+02721+00861101101ADDAA106000091AG14000GA1001+999999999GF100991001001999999001001MA1999999091361MD1999999-0121REMSYN010 333 59012
0130833390999991993081000004-14050-042617FM-12+088299999V0209991C00001220001CN9999999N9+02161+00921101551ADDAA106000091AG14000GA1001+999999999GF100991001001999999001001KA1240M+02751MA1999999091551MD1999999-0081REMSYN016 333 10275 59008
0114833390999991993081012004-14050-042617FM-12+088299999V0209999999999004201CN0200001N9+01771+01561101611ADDAA106000091AG14000GF106991061021004501001001KA1240N+01421MA1999999091791MD1999999-0051REMSYN016 333 20142 59005
0111833390999991993081018004-14050-042617FM-12+088299999V0209999999999220001CN0200001N9+02901+00921101021ADDAA106000091AG14000GA1001+999999999GF100991001001999999001001MA1999999091331MD1999999-0031REMSYN010 333 59003
0130833390999991993081100004-14050-042617FM-12+088299999V0209999999999220001CN9999999N9+02321+01031101351ADDAA106000091AG14000GA1001+999999999GF100991001001999999001001KA1240M+02931MA1999999091581MD1999999+0031REMSYN016 333 10293 58003
0130833390999991993081112004-14050-042617FM-12+088299999V0209999999999220001CN0200001N9+02061+01381101491ADDAA106000091AG14000GA1001+999999999GF100991001001999999001001KA1240N+01581MA1999999091791MD1999999-0051REMSYN016 333 20158 59005
0095833390999991993081118004-14050-042617FM-12+088299999V0209999999999220001CN0200001N9+02941+01051101121ADDAA106000091AG14000GF102991021021004501001001MA1999999091431MD1999999+0101REMSYN010 333 58010
0130833390999991993081212004-14050-042617FM-12+088299999V0209999999999220001CN0200001N9+01941+01311101781ADDAA106000091AG14000GA1001+999999999GF100991001001999999001001KA1240N+01541MA1999999092001MD1999999+0261REMSYN016 333 20154 58026
0130833390999991993081300004-14050-042617FM-12+088299999V0209999999999220001CN9999999N9+02171+01241101711ADDAA106000091AG14000GA1001+999999999GF100991001001999999001001KA1240M+02651MA1999999091901MD1999999+0191REMSYN016 333 10265 58019
0114833390999991993081312004-14050-042617FM-12+088299999V0209999999999220001CN0200001N9+01941+01401101911ADDAA106000091AG14000GF103991031021004501001001KA1240N+01591MA1999999092081MD1999999+0081REMSYN016 333 20159 58008
0095833390999991993081318004-14050-042617FM-12+088299999V0209999999999220001CN0200001N9+02561+01411101401ADDAA106000091AG14000GF102991021021004501001001MA1999999091901MD1999999+0021REMSYN010 333 58002
0130833390999991993081400004-14050-042617FM-12+088299999V0209999999999220001CN9999999N9+02001+01391101891ADDAA106000091AG14000GA1001+999999999GF100991001001999999001001KA1240M+02591MA1999999091951MD1999999+0051REMSYN016 333 10259 58005
0114833390999991993081412004-14050-042617FM-12+088299999V0209999999999004201CN0200001N9+01821+01491101891ADDAA106000091AG14000GF108991051021004501021999KA1240N+01501MA1999999092041MD1999999-0041REMSYN016 333 20150 59004
0095833390999991993081418004-14050-042617FM-12+088299999V0209999999999220001CN0200001N9+02541+01421101351ADDAA106000091AG14000GF102991021021004501001001MA1999999091601MD1999999-0061REMSYN010 333 59006
0130833390999991993081500004-14050-042617FM-12+088299999V0209999999999220001CN9999999N9+02061+01381101661ADDAA106000091AG14000GA1001+999999999GF100991001001999999001001KA1240M+02551MA1999999091841MD1999999-0111REMSYN016 333 10255 59011
0114833390999991993081512004-14050-042617FM-12+088299999V0209999999999045001CN0200001N9+01721+01481101931ADDAA106000091AG14000GF108991041021004501021999KA1240N+01441MA1999999092071MD1999999+0031REMSYN016 333 20144 58003
0095833390999991993081518004-14050-042617FM-12+088299999V0209999999999220001CN0200001N9+02401+01231101551ADDAA106000091AG14000GF103991031021004501001001MA1999999091751MD1999999+0051REMSYN010 333 58005
0114833390999991993081612004-14050-042617FM-12+088299999V0209999999999004201CN0200001N9+01491+01121102091ADDAA106000091AG14000GF106991061021004501001001KA1240N+01221MA1999999092191MD1999999+0121REMSYN016 333 20122 58012
0095833390999991993081618004-14050-042617FM-12+088299999V0209999999999220001CN0200001N9+02381+00701101551ADDAA106000091AG14000GF102991021021004501001001MA1999999091741MD1999999-0011REMSYN010 333 59001
0114833390999991993081712004-14050-042617FM-12+088299999V0209999999999004201CN0200001N9+01601+01221101971ADDAA106000091AG14000GF106991061021004501001001KA1240N+01201MA1999999092081MD1999999-0111REMSYN016 333 20120 59011
0095833390999991993081718004-14050-042617FM-12+088299999V0209999999999220001CN0200001N9+02481+00791101511ADDAA106000091AG14000GF102991021021004501001001MA1999999091711MD1999999-0031REMSYN010 333 59003
0130833390999991993081800004-14050-042617FM-12+088299999V0209999999999220001CN9999999N9+02091+01121101721ADDAA106000091AG14000GA1001+999999999GF100991001001999999001001KA1240M+02521MA1999999091871MD1999999-0101REMSYN016 333 10252 59010
0114833390999991993081812004-14050-042617FM-12+088299999V0209999999999004201CN0200001N9+01721+01311101931ADDAA106000091AG14000GF107991061021004501021999KA1240N+01361MA1999999092081MD1999999+0001REMSYN016 333 20136 58000
0095833390999991993081818004-14050-042617FM-12+088299999V0209999999999004201CN0200001N9+02661+00901101371ADDAA106000091AG14000GF105991051021004501001001MA1999999091621MD1999999-0091REMSYN010 333 59009
0114833390999991993081912004-14050-042617FM-12+088299999V0209999999999220001CN0200001N9+02091+01471101801ADDAA106000091AG14000GF102991021021004501001001KA1240N+01301MA1999999091991MD1999999-0091REMSYN016 333 20130 59009
0130833390999991993082100004-14050-042617FM-12+088299999V0209999999999220001CN9999999N9+02301+01261101601ADDAA106000091AG14000GA1001+999999999GF100991001001999999001001KA1240M+02941MA1999999091841MD1999999+0061REMSYN016 333 10294 58006
0136833390999991993082112004-14050-042617FM-12+088299999V0209999999999004201CN0040001N9+01981+01741101811ADDAA106000091AG10000AY101061AY201061GF108991081051004501999999KA1240N+01681MA1999999092021MD1999999+0001MW1101REMSYN016 333 20168 58000
0095833390999991993082118004-14050-042617FM-12+088299999V0209999999999220001CN0200001N9+02751+01141101421ADDAA106000091AG14000GF102991021021004501001001MA1999999091701MD1999999+0061REMSYN010 333 58006
0095833390999991993082218004-14050-042617FM-12+088299999V0209999999999004201CN0040001N9+02241+01351101691ADDAA106000091AG14000GF106991051021004501031001MA1999999091901MD1999999+0201REMSYN010 333 58020
0114833390999991993082300004-14050-042617FM-12+088299999V0209999999999004201CN9999999N9+01781+01391101931ADDAA106000091AG14000GF107991061021004501021001KA1240M+02291MA1999999092071MD1999999+0151REMSYN016 333 10229 58015
0114833390999991993082312004-14050-042617FM-12+088299999V0209999999999004201CN0200001N9+01661+01241102101ADDAA106000091AG14000GF108991051021004501021999KA1240N+01341MA1999999092181MD1999999+0031REMSYN016 333 20134 58003
0095833390999991993082318004-14050-042617FM-12+088299999V0209999999999220001CN0200001N9+02341+01151101601ADDAA106000091AG14000GF102991021021004501001001MA1999999091771MD1999999-0131REMSYN010 333 59013
0114833390999991993082412004-14050-042617FM-12+088299999V0209999999999045001CN0200001N9+01681+01371102001ADDAA106000091AG14000GF108991041021004501021999KA1240N+01411MA1999999092121MD1999999-0061REMSYN016 333 20141 59006
0114833390999991993082512004-14050-042617FM-12+088299999V0209999999999220001CN0200001N9+02021+01411101841ADDAA106000091AG14000GF103991011021004501001041KA1240M+02301MA1999999092021MD1999999-0101REMSYN016 333 10230 59010
0099833390999991993082518004-14050-042617FM-12+088299999V0209999999999220001CN0200001N9+02821+01131101331ADDAA106000091AG14000GF102991021021004501001001MD1999999-0041REMSYN010 333 59004EQDQ01+096103APOSP 
0130833390999991993082600004-14050-042617FM-12+088299999V0209999999999220001CN9999999N9+02301+01011101581ADDAA106000091AG14000GA1001+999999999GF100991001001999999001001KA1240M+02831MA1999999091801MD1999999-0061REMSYN016 333 10283 59006
0114833390999991993082612004-14050-042617FM-12+088299999V0209999999999220001CN0200001N9+02041+01581101771ADDAA106000091AG14000GF102991021011004501001001KA1240N+01481MA1999999091981MD1999999-0021REMSYN016 333 20148 59002
0095833390999991993082618004-14050-042617FM-12+088299999V0209999999999220001CN0200001N9+02901+01161101261ADDAA106000091AG14000GF103991031021004501001001MA1999999091551MD1999999-0051REMSYN010 333 59005
0130833390999991993082700004-14050-042617FM-12+088299999V0209999999999220001CN9999999N9+02401+01131101551ADDAA106000091AG14000GA1001+999999999GF100991001001999999001001KA1240M+02911MA1999999091791MD1999999-0011REMSYN016 333 10291 59001
0114833390999991993082712004-14050-042617FM-12+088299999V0209999999999220001CN0200001N9+02161+01611101711ADDAA106000091AG14000GF102991021021004501001001KA1240N+01681MA1999999091951MD1999999-0031REMSYN016 333 20168 59003
0095833390999991993082718004-14050-042617FM-12+088299999V0209999999999004201CN0200001N9+02901+01321101221ADDAA106000091AG14000GF106991061021004501001001MA1999999091541MD1999999-0011REMSYN010 333 59001
0114833390999991993082800004-14050-042617FM-12+088299999V0209999999999220001CN9999999N9+02441+00991101421ADDAA106000091AG14000GF102991021021004501001001KA1240M+02951MA1999999091691MD1999999-0101REMSYN016 333 10295 59010
0094833390999991993082806004-14050-042617FM-12+088299999V0203201N001519999999N0500001N9+99999+99999999999ADDAA106000091AG14002AY171061AY201061KA1240N+00261MW1281REMSYN010 333 20026EQDQ01+027733ATOT  
0114833390999991993082812004-14050-042617FM-12+088299999V0209999999999220001CN0200001N9+02461+01501101531ADDAA106000091AG14000GF102991021021004501001001KA1240N+01621MA1999999091821MD1999999-0131REMSYN016 333 20162 59013
0095833390999991993082818004-14050-042617FM-12+088299999V0209999999999004201CN0200001N9+03061+00831101131ADDAA106000091AG14000GF106991061021004501001001MA1999999091481MD1999999-0061REMSYN010 333 59006
0114833390999991993082900004-14050-042617FM-12+088299999V0209999999999004201CN9999999N9+02621+01001101251ADDAA106000091AG14000GF106991061021004501001001KA1240M+03131MA1999999091591MD1999999-0101REMSYN016 333 10313 59010
0114833390999991993082912004-14050-042617FM-12+088299999V0209999999999220001CN0200001N9+02181+01591101551ADDAA106000091AG14000GF102991021021004501001001KA1240N+01681MA1999999091831MD1999999+0011REMSYN016 333 20168 58001
0095833390999991993082918004-14050-042617FM-12+088299999V0209999999999220001CN0200001N9+02801+01281101171ADDAA106000091AG14000GF103991031021004501001001MA1999999091491MD1999999+0011REMSYN010 333 58001
0130833390999991993083000004-14050-042617FM-12+088299999V0209999999999220001CN9999999N9+02381+01151101361ADDAA106000091AG14000GA1001+999999999GF100991001001999999001001KA1240M+02851MA1999999091641MD1999999+0051REMSYN016 333 10285 58005
0114833390999991993083012004-14050-042617FM-12+088299999V0209999999999220001CN0200001N9+01981+01441101621ADDAA106000091AG14000GF102991021021004501001001KA1240N+01481MA1999999091851MD1999999+0021REMSYN016 333 20148 58002
0111833390999991993083018004-14050-042617FM-12+088299999V0209999999999220001CN0200001N9+02821+00451101131ADDAA106000091AG14000GA1001+999999999GF100991001001999999001001MA1999999091441MD1999999-0051REMSYN010 333 59005
0130833390999991993083100004-14050-042617FM-12+088299999V0209999999999220001CN9999999N9+02221+00231101401ADDAA106000091AG14000GA1001+999999999GF100991001001999999001001KA1240M+02851MA1999999091641MD1999999+0001REMSYN016 333 10285 58000
0130833390999991993083112004-14050-042617FM-12+088299999V0209999999999220001CN0200001N9+02121+01341101701ADDAA106000091AG14000GA1001+999999999GF100991001001999999001001KA1240N+01271MA1999999091921MD1999999+0071REMSYN016 333 20127 58007
0111833390999991993083118004-14050-042617FM-12+088299999V0209999999999220001CN0200001N9+02921+00011101171ADDAA106000091AG14000GA1001+999999999GF100991001001999999001001MA1999999091481MD1999999+0041REMSYN010 333 58004
0130833390999991993090100004-14050-042617FM-12+088299999V0209999999999220001CN9999999N9+02401+00281101311ADDAA106000091AG14000GA1001+999999999GF100991001001999999001001KA1240M+03011MA1999999091581MD1999999-0061REMSYN016 333 10301 59006
0130833390999991993090112004-14050-042617FM-12+088299999V0209999999999220001CN0200001N9+02181+01561101461ADDAA106000091AG14000GA1001+999999999GF100991001001999999001001KA1240N+01501MA1999999091731MD1999999-0191REMSYN016 333 20150 59019
0111833390999991993090118004-14050-042617FM-12+088299999V0209999999999220001CN0200001N9+02981+00211101141ADDAA106000091AG14000GA1001+999999999GF100991001001999999001001MA1999999091461MD1999999-0021REMSYN010 333 59002
0130833390999991993090200004-14050-042617FM-12+088299999V0209999999999220001CN9999999N9+02401+00631101421ADDAA106000091AG14000GA1001+999999999GF100991001001999999001001KA1240M+03031MA1999999091691MD1999999+0111REMSYN016 333 10303 58011
0114833390999991993090212004-14050-042617FM-12+088299999V0209999999999220001CN0200001N9+02021+01541101701ADDAA106000091AG14000GF102991021021004501001001KA1240N+01581MA1999999091931MD1999999+0201REMSYN016 333 20158 58020
0111833390999991993090218004-14050-042617FM-12+088299999V0209999999999220001CN0200001N9+02901+00761101291ADDAA106000091AG14000GA1001+999999999GF100991001001999999001001MA1999999091601MD1999999+0141REMSYN010 333 58014
0130833390999991993090312004-14050-042617FM-12+088299999V0209999999999220001CN0200001N9+02021+01431101781ADDAA106000091AG14000GA1001+999999999GF100991001001999999001001KA1240N+01501MA1999999092001MD1999999+0071REMSYN016 333 20150 58007
0111833390999991993090318004-14050-042617FM-12+088299999V0209999999999220001CN0200001N9+02901+00641101291ADDAA106000091AG14000GA1001+999999999GF100991001001999999001001MA1999999091581MD1999999-0021REMSYN010 333 59002
0130833390999991993090400004-14050-042617FM-12+088299999V0209999999999220001CN9999999N9+02401+00161101441ADDAA106000091AG14000GA1001+999999999GF100991001001999999001001KA1240M+02931MA1999999091691MD1999999-0121REMSYN016 333 10293 59012
0114833390999991993090412004-14050-042617FM-12+088299999V0209999999999004201CN0200001N9+02061+01581101671ADDAA106000091AG14000GF105991051021004501001001KA1240N+01581MA1999999091911MD1999999-0091REMSYN016 333 20158 59009
0095833390999991993090418004-14050-042617FM-12+088299999V0209999999999220001CN0200001N9+02821+01291101181ADDAA106000091AG14000GF103991031021004501001001MA1999999091481MD1999999-0091REMSYN010 333 59009
0114833390999991993090500004-14050-042617FM-12+088299999V0209999999999220001CN9999999N9+02221+01671101451ADDAA106000091AG14000GF102991021021004501001001KA1240M+02841MA1999999091691MD1999999+0001REMSYN016 333 10284 58000
0114833390999991993090512004-14050-042617FM-12+088299999V0209999999999220001CN0200001N9+02121+01531101611ADDAA106000091AG14000GF103991031021004501001001KA1240N+01621MA1999999091791MD1999999-0121REMSYN016 333 20162 59012
0095833390999991993090518004-14050-042617FM-12+088299999V0209999999999045001CN0200001N9+02751+01141101211ADDAA106000091AG14000GF105991041021004501021001MA1999999091501MD1999999+0011REMSYN010 333 58001
0114833390999991993090600004-14050-042617FM-12+088299999V0209999999999220001CN9999999N9+02261+01231101381ADDAA106000091AG14000GF102991021021004501001001KA1240M+02791MA1999999091641MD1999999-0051REMSYN016 333 10279 59005
0114833390999991993090612004-14050-042617FM-12+088299999V0209999999999220001CN0200001N9+02161+01441101451ADDAA106000091AG14000GF103991011021004501001011KA1240N+01361MA1999999091701MD1999999-0091REMSYN016 333 20136 59009
0095833390999991993090618004-14050-042617FM-12+088299999V0209999999999220001CN0200001N9+03101+00751100991ADDAA106000091AG14000GF103991011021004501001041MA1999999091331MD1999999-0171REMSYN010 333 59017
0130833390999991993090700004-14050-042617FM-12+088299999V0209999999999220001CN9999999N9+02481+00561101291ADDAA106000091AG14000GA1001+999999999GF100991001001999999001001KA1240M+03111MA1999999091571MD1999999-0071REMSYN016 333 10311 59007
0130833390999991993090712004-14050-042617FM-12+088299999V0209999999999220001CN0200001N9+02421+01461101601ADDAA106000091AG14000GA1001+999999999GF100991001001999999001001KA1240N+01601MA1999999091881MD1999999+0181REMSYN016 333 20160 58018
0095833390999991993090718004-14050-042617FM-12+088299999V0209999999999220001CN0200001N9+03161+00981101151ADDAA106000091AG14000GF104991041021004501001001MA1999999091481MD1999999+0151REMSYN010 333 58015
0130833390999991993090800004-14050-042617FM-12+088299999V0209999999999220001CN9999999N9+02481+01341101331ADDAA106000091AG14000GA1001+999999999GF100991001001999999001001KA1240M+03211MA1999999091641MD1999999+0071REMSYN016 333 10321 58007
0114833390999991993090812004-14050-042617FM-12+088299999V0209999999999004201CN0200001N9+02201+01611101561ADDAA106000091AG14000GF105991051021004501001001KA1240N+01631MA1999999091831MD1999999-0051REMSYN016 333 20163 59005
0095833390999991993090818004-14050-042617FM-12+088299999V0209999999999220001CN0200001N9+02901+00921101141ADDAA106000091AG14000GF102991011021004501001041MA1999999091461MD1999999-0021REMSYN010 333 59002
0130833390999991993090900004-14050-042617FM-12+088299999V0209999999999220001CN9999999N9+02481+01141101321ADDAA106000091AG14000GA1001+999999999GF100991001001999999001001KA1240M+02931MA1999999091611MD1999999-0031REMSYN016 333 10293 59003
0111833390999991993090918004-14050-042617FM-12+088299999V0209999999999220001CN0200001N9+02701+00801101191ADDAA106000091AG14000GA1001+999999999GF100991001001999999001001MA1999999091481MD1999999+0021REMSYN010 333 58002
0130833390999991993091000004-14050-042617FM-12+088299999V0209999999999220001CN9999999N9+02281+01061101411ADDAA106000091AG14000GA1001+999999999GF100991001001999999001001KA1240M+02731MA1999999091651MD1999999+0041REMSYN016 333 10273 58004
0114833390999991993091012004-14050-042617FM-12+088299999V0209999999999220001CN0200001N9+01981+01421101611ADDAA106000091AG14000GF104991041021004501001001KA1240N+01281MA1999999091841MD1999999+0061REMSYN016 333 20128 58006
0114833390999991993091112004-14050-042617FM-12+088299999V0209999999999220001CN0200001N9+02081+01511101661ADDAA106000091AG14000GF102991021021004501001001KA1240N+01421MA1999999091891MD1999999+0051REMSYN016 333 20142 58005
0095833390999991993091118004-14050-042617FM-12+088299999V0209999999999220001CN0200001N9+03021+00911101081ADDAA106000091AG14000GF102991021021004501001001MA1999999091401MD1999999-0051REMSYN010 333 59005
0114833390999991993091200004-14050-042617FM-12+088299999V0209999999999004201CN0200001N9+02141+01411101751ADDAA106000091AG14000GF106991061021004501001001KA1240N+01741MA1999999091941MD1999999+0101REMSYN016 333 20174 58010
0114833390999991993091212004-14050-042617FM-12+088299999V0209999999999004201CN0200001N9+02141+01421101751ADDAA106000091AG14000GF106991061021004501001001KA1240N+01741MA1999999091941MD1999999+0101REMSYN016 333 20174 58010
0080833390999991993091218004-14050-042617FM-12+088299999V0201301N00411220001CN0200001N9+02681+02061101751ADDAA106000091AG14000GF102991021021008001001001MD1999999+0321REMSYN010 333 58032
0130833390999991993091300004-14050-042617FM-12+088299999V0209999999999220001CN9999999N9+02141+01381101711ADDAA106000091AG14000GA1001+999999999GF100991001001999999001001KA1240M+02771MA1999999091931MD1999999+0181REMSYN016 333 10277 58018
0114833390999991993091312004-14050-042617FM-12+088299999V0209999999999004201CN0200001N9+01871+01491101921ADDAA106000091AG14000GF106991061021004501001001KA1240N+01601MA1999999092081MD1999999+0091REMSYN016 333 20160 58009
0095833390999991993091318004-14050-042617FM-12+088299999V0209999999999004201CN0200001N9+02231+01271101441ADDAA106000091AG14000GF107991061021004501021999MA1999999091661MD1999999+0031REMSYN010 333 58003
0114833390999991993091400004-14050-042617FM-12+088299999V0209999999999004201CN9999999N9+02041+01241101731ADDAA106000091AG14000GF106991061021004501001001KA1240M+02271MA1999999091901MD1999999-0031REMSYN016 333 10227 59003
0114833390999991993091412004-14050-042617FM-12+088299999V0209999999999004201CN0200001N9+01871+01171101841ADDAA106000091AG14000GF105991051021004501001001KA1240N+01301MA1999999091991MD1999999-0091REMSYN016 333 20130 59009
0095833390999991993091418004-14050-042617FM-12+088299999V0209999999999220001CN0200001N9+02441+00801101371ADDAA106000091AG14000GF102991021021004501001001MA1999999091601MD1999999-0061REMSYN010 333 59006
0130833390999991993091500004-14050-042617FM-12+088299999V0209999999999220001CN9999999N9+01981+00821101561ADDAA106000091AG14000GA1001+999999999GF100991001001999999001001KA1240M+02461MA1999999091741MD1999999-0161REMSYN016 333 10246 59016
0114833390999991993091512004-14050-042617FM-12+088299999V0209999999999004201CN0200001N9+01861+01281101831ADDAA106000091AG14000GF106991051021004501001021KA1240N-00131MA1999999091981MD1999999-0011REMSYN016 333 21013 59001
0095833390999991993091518004-14050-042617FM-12+088299999V0209999999999004201CN0200001N9+02601+00851101361ADDAA106000091AG14000GF106991051021004501021001MA1999999091601MD1999999+0001REMSYN010 333 58000
0114833390999991993091600004-14050-042617FM-12+088299999V0209999999999220001CN9999999N9+02051+01501101611ADDAA106000091AG14000GF103991031021004501001001KA1240M+02671MA1999999091781MD1999999+0041REMSYN016 333 10267 58004
0136833390999991993091612004-14050-042617FM-12+088299999V0209999999999220001CN0200001N9+01901+01551101711ADDAA106000091AG10000AY101061AY201061GF104991041021004501001001KA1240N+01421MA1999999091881MD1999999-0101MW1101REMSYN016 333 20142 59010
0095833390999991993091618004-14050-042617FM-12+088299999V0209999999999045001CN0200001N9+02941+00671101121ADDAA106000091AG14000GF105991041021004501031001MA1999999091411MD1999999-0191REMSYN010 333 59019
0114833390999991993091700004-14050-042617FM-12+088299999V0209999999999220001CN9999999N9+02321+01131101831ADDAA106000091AG14000GF102991021021004501001001KA1240M+02991MA1999999091621MD1999999-0161REMSYN016 333 10299 59016
0130833390999991993091712004-14050-042617FM-12+088299999V0209999999999220001CN0200001N9+02261+01691101401ADDAA106000091AG14000GA1001+999999999GF100991001001999999001001KA1240N+01431MA1999999091671MD1999999-0211REMSYN016 333 20143 59021
0095833390999991993091718004-14050-042617FM-12+088299999V0209999999999004201CN0200001N9+03091+00731100861ADDAA106000091AG14000GF106991051021004501021001MA1999999091231MD1999999-0181REMSYN010 333 59018
0130833390999991993091800004-14050-042617FM-12+088299999V0209999999999220001CN9999999N9+02601+00891101061ADDAA106000091AG14000GA1001+999999999GF100991001001999999001001KA1240M+03231MA1999999091391MD1999999-0231REMSYN016 333 10323 59023
0114833390999991993091812004-14050-042617FM-12+088299999V0209999999999004201CN0200001N9+02321+01761101211ADDAA106000091AG14000GF106991051021004501021001KA1240N+01881MA1999999091531MD1999999-0141REMSYN016 333 20188 59014
0095833390999991993091818004-14050-042617FM-12+088299999V0209999999999220001CN0200001N9+03281+01131100611ADDAA106000091AG14000GF104991041021004501001001MA1999999091041MD1999999-0191REMSYN010 333 59019
0114833390999991993091912004-14050-042617FM-12+088299999V0209999999999220001CN0200001N9+02271+01881101221ADDAA106000091AG14000GF102991021021004501001001KA1240N+01821MA1999999091531MD1999999+0001REMSYN016 333 20182 58000
0095833390999991993091918004-14050-042617FM-12+088299999V0209999999999220001CN0200001N9+03161+01291100611ADDAA106000091AG14000GF102991021021004501001001MA1999999091061MD1999999-0021REMSYN010 333 59002
0130833390999991993092000004-14050-042617FM-12+088299999V0209999999999220001CN9999999N9+02551+01451100951ADDAA106000091AG14000GA1001+999999999GF100991001001999999001001KA1240M+03211MA1999999091281MD1999999+0071REMSYN016 333 10321 58007
0114833390999991993092012004-14050-042617FM-12+088299999V0209999999999220001CN0200001N9+02541+01731101131ADDAA106000091AG14000GF102991021021004501001001KA1240N+01661MA1999999091481MD1999999-0051REMSYN016 333 20166 59005
0095833390999991993092018004-14050-042617FM-12+088299999V0209999999999220001CN0200001N9+03341+00811100651ADDAA106000091AG14000GF103991031021004501001001MA1999999091071MD1999999+0011REMSYN010 333 58001
0114833390999991993092100004-14050-042617FM-12+088299999V0209999999999004201CN9999999N9+02761+00991101011ADDAA106000091AG14000GF106991061021004501001001KA1240M+03401MA1999999091391MD1999999+0111REMSYN016 333 10340 58011
0114833390999991993092112004-14050-042617FM-12+088299999V0209999999999220001CN0200001N9+02741+01641101181ADDAA106000091AG14000GF102991021021004501001001KA1240N+01941MA1999999091561MD1999999+0081REMSYN016 333 20194 58008
0114833390999991993092200004-14050-042617FM-12+088299999V0209999999999004201CN9999999N9+02671+01391101001ADDAA106000091AG14000GF106991061021004501001001KA1240M+03371MA1999999091391MD1999999+0001REMSYN016 333 10337 58000
0114833390999991993092212004-14050-042617FM-12+088299999V0209999999999220001CN0200001N9+02461+01551101261ADDAA106000091AG14000GF103991031021004501001001KA1240N+01841MA1999999091601MD1999999+0041REMSYN016 333 20184 58004
0099833390999991993092218004-14050-042617FM-12+088299999V0200501N00511220001CN0200001N9+02721+02451101261ADDAA106000091AG14000GF104991041051008001001001MD1999999+0271REMSYN010 333 58027EQDQ01+101213APOSP 
0130833390999991993092300004-14050-042617FM-12+088299999V0209999999999220001CN9999999N9+02541+01421101091ADDAA106000091AG14000GA1001+999999999GF100991001001999999001001KA1240M+03011MA1999999091441MD1999999+0051REMSYN016 333 10301 58005
0114833390999991993092312004-14050-042617FM-12+088299999V0209999999999220001CN0200001N9+02301+01721101381ADDAA106000091AG14000GF102991021021004501001001KA1240N+01741MA1999999091671MD1999999+0071REMSYN016 333 20174 58007
0095833390999991993092318004-14050-042617FM-12+088299999V0209999999999220001CN0200001N9+03061+01471100801ADDAA106000091AG14000GF103991031021004501001001MA1999999091181MD1999999-0071REMSYN010 333 59007
0114833390999991993092400004-14050-042617FM-12+088299999V0209999999999220001CN9999999N9+02601+01141101021ADDAA106000091AG14000GF104991011021004501031001KA1240M+03111MA1999999091351MD1999999-0091REMSYN016 333 10311 59009
0114833390999991993092412004-14050-042617FM-12+088299999V0209999999999045001CN0200001N9+02391+01581101261ADDAA106000091AG14000GF106991021021004501031001KA1240N+01761MA1999999091581MD1999999-0091REMSYN016 333 20176 59009
0130833390999991993092500004-14050-042617FM-12+088299999V0209999999999220001CN9999999N9+02501+01451101071ADDAA106000091AG14000GA1001+999999999GF100991001001999999001001KA1240M+03071MA1999999091421MD1999999+0071REMSYN016 333 10307 58007
0130833390999991993092512004-14050-042617FM-12+088299999V0209999999999220001CN0200001N9+02541+01601101301ADDAA106000091AG14000GA1001+999999999GF100991001001999999001001KA1240N+01731MA1999999091621MD1999999+0041REMSYN016 333 20173 58004
0095833390999991993092518004-14050-042617FM-12+088299999V0209999999999004201CN0200001N9+03161+01601100781ADDAA106000091AG14000GF106991061021004501001001MA1999999091171MD1999999-0071REMSYN010 333 59007
0114833390999991993092600004-14050-042617FM-12+088299999V0209999999999220001CN9999999N9+02581+01611101131ADDAA106000091AG14000GF104991041021004501001001KA1240M+03231MA1999999091481MD1999999+0061REMSYN016 333 10323 58006
0114833390999991993092612004-14050-042617FM-12+088299999V0209999999999004201CN0200001N9+02161+01881101671ADDAA106000091AG14000GF108991051021004501021999KA1240N+01971MA1999999091931MD1999999+0311REMSYN016 333 20197 58031
0095833390999991993092618004-14050-042617FM-12+088299999V0209999999999004201CN0200001N9+02541+01731101271ADDAA106000091AG14000GF106991061021004501001001MA1999999091571MD1999999+0401REMSYN010 333 58040
0114833390999991993092700004-14050-042617FM-12+088299999V0209999999999004201CN9999999N9+02121+01881101571ADDAA106000091AG14000GF106991061021004501001001KA1240M+02571MA1999999091801MD1999999+0321REMSYN016 333 10257 58032
0125833390999991993092712004-14050-042617FM-12+088299999V0209999999999004201CN0040001N9+01881+01691101671ADDAG11000AY101061AY201061GF107991061021004501021999KA1240N+01641MA1999999091851MD1999999-0081MW1101REMSYN016 333 20164 59008
0114833390999991993092800004-14050-042617FM-12+088299999V0209999999999004201CN9999999N9+02491+01511101231ADDAA106000091AG14000GF106991061021004501001001KA1240M+03011MA1999999091501MD1999999-0301REMSYN016 333 10301 59030
0130833390999991993092812004-14050-042617FM-12+088299999V0209999999999220001CN0200001N9+02501+01801101201ADDAA106000091AG14000GA1001+999999999GF100991001001999999001001KA1240N+01731MA1999999091531MD1999999-0321REMSYN016 333 20173 59032
0123833390999991993092818004-14050-042617FM-12+088299999V0209999999999004201CN0200001N9+02561+01851100941ADDAA106002091AG10002AY161061AY261061GF106991061021004501001001MA1999999091261MD1999999-0071MW1021REMSYN016 333 59007 60021
0114833390999991993092900004-14050-042617FM-12+088299999V0209999999999004201CN9999999N9+02361+01911101101ADDAA106000091AG14000GF106991051021004501031001KA1240M+03111MA1999999091431MD1999999-0071REMSYN016 333 10311 59007
0142833390999991993092912004-14050-042617FM-12+088299999V0209999999999004201CN0200001N9+02191+02011101421ADDAA124002091AG10002AY161061AY261061GF106991051021004501021001KA1240N+01881MA1999999091681MD1999999+0151MW1101REMSYN022 333 20188 58015 60024
0095833390999991993092918004-14050-042617FM-12+088299999V0209999999999220001CN0200001N9+02721+01711101001ADDAA106000091AG14000GF104991041021004501001001MA1999999091351MD1999999+0091REMSYN010 333 58009
0114833390999991993093000004-14050-042617FM-12+088299999V0209999999999220001CN9999999N9+02281+01731101291ADDAA106000091AG14000GF102991021021004501001001KA1240M+02811MA1999999091561MD1999999+0131REMSYN016 333 10281 58013
0114833390999991993093012004-14050-042617FM-12+088299999V0209999999999004201CN0200001N9+02181+01761101451ADDAA106000091AG14000GF106991051021004501001021KA1240N+01751MA1999999091651MD1999999-0031REMSYN016 333 20175 59003
0095833390999991993093018004-14050-042617FM-12+088299999V0209999999999220001CN0200001N9+02991+01041100971ADDAA106000091AG14000GF102991021021004501001001MA1999999091311MD1999999-0041REMSYN010 333 59004
0130833390999991993100100004-14050-042617FM-12+088299999V0209999999999220001CN9999999N9+02521+01341101181ADDAA106000091AG14000GA1001+999999999GF100991001001999999001001KA1240M+03031MA1999999091481MD1999999-0081REMSYN016 333 10303 59008
0114833390999991993100112004-14050-042617FM-12+088299999V0209999999999004201CN0200001N9+02221+01841101441ADDAA106000091AG14000GF105991051021004501001001KA1240N+01721MA1999999091721MD1999999+0071REMSYN016 333 20172 58007
0095833390999991993100118004-14050-042617FM-12+088299999V0209999999999220001CN0200001N9+03101+01091101191ADDAA106000091AG14000GF103991031021004501001001MA1999999091341MD1999999+0031REMSYN010 333 58003
0130833390999991993100200004-14050-042617FM-12+088299999V0209999999999220001CN9999999N9+02521+01241101181ADDAA106000091AG14000GA1001+999999999GF100991001001999999001001KA1240M+03171MA1999999091481MD1999999+0001REMSYN016 333 10317 58000
0095833390999991993100218004-14050-042617FM-12+088299999V0209999999999220001CN0200001N9+99999+99999100871ADDAA106000091AG14000GF102991021021004501001001MA1999999091241MD1999999-0101REMSYN010 333 59010
0130833390999991993100300004-14050-042617FM-12+088299999V0209999999999220001CN9999999N9+02621+01081101081ADDAA106000091AG14000GA1001+999999999GF100991001001999999001001KA1240M+02931MA1999999091391MD1999999-0091REMSYN016 333 10293 59009
0114833390999991993100312004-14050-042617FM-12+088299999V0209999999999105001CN0200001N9+02301+01831101251ADDAA106000091AG14000GF105991041021004501001021KA1240N+01771MA1999999091561MD1999999-0161REMSYN016 333 20177 59016
0095833390999991993100318004-14050-042617FM-12+088299999V0209999999999220001CN0200001N9+03091+01401100681ADDAA106000091AG14000GF102991021021004501001001MA1999999091091MD1999999-0151REMSYN010 333 59015
0130833390999991993100400004-14050-042617FM-12+088299999V0209999999999220001CN9999999N9+02631+01371100951ADDAA106000091AG14000GA1001+999999999GF100991001001999999001001KA1240M+03171MA1999999091291MD1999999-0101REMSYN016 333 10317 59010
0094833390999991993100412004-14050-042617FM-12+088299999V0209999999999004201CN0200001N9+02301+01871101291ADDAA106000091AG14000GF108991061021004501021999KA1240N+01911MA1999999091601REMSYN010 333 20191
0095833390999991993100418004-14050-042617FM-12+088299999V0209999999999004201CN0200001N9+03011+01801100831ADDAA106000091AG14000GF106991061021004501001001MA1999999091221MD1999999+0131REMSYN010 333 58013
0153833390999991993100500004-14050-042617FM-12+088299999V0209999999999220001CN9999999N9+02421+01841101201ADDAA106000291AA299000191AG10008AY191061AY261061GF102991021021004501001001KA1240M+03031MA1999999091501MD1999999+0211MW1021REMSYN022 333 10303 58021 69921
0153833390999991993100512004-14050-042617FM-12+088299999V0209999999999220001CN0200001N9+02741+01811101311ADDAA124000291AA299000191AG10003AY161061AY221061GF102991021021004501001001KA1240N+01891MA1999999091651MD1999999+0051MW1021REMSYN022 333 20189 58005 69924
0123833390999991993100518004-14050-042617FM-12+088299999V0209999999999004201CN0010001N9+02301+02031101051ADDAA106012091AG10008AY191061AY261061GF108991051021004501021999MA1999999091341MD1999999+0121MW1601REMSYN016 333 58012 60121
0142833390999991993100600004-14050-042617FM-12+088299999V0209999999999004201CN9999999N9+02381+01841101211ADDAA106001091AG10008AY191061AY261061GF108991061021004501021999KA1240M+03331MA1999999091551MD1999999+0051MW1131REMSYN022 333 10333 58005 60011
0142833390999991993100612004-14050-042617FM-12+088299999V0209999999999004201CN0200001N9+02321+01891101351ADDAA124013091AG10003AY161061AY221061GF108991051021004501031999KA1240N+01821MA1999999091881MD1999999-0011MW1021REMSYN022 333 20182 59001 60134
0114833390999991993100700004-14050-042617FM-12+088299999V0209999999999004201CN9999999N9+02591+01871101101ADDAA106000091AG10000GF106991061021004501001001KA1240M+03051MA1999999091431MD1999999-0121REMSYN016 333 10305 59012
0142833390999991993100712004-14050-042617FM-12+088299999V0209999999999004201CN0200001N9+02301+02001101261ADDAA124001091AG10008AY191061AY261061GF108991061021004501021999KA1240N+01861MA1999999091571MD1999999-0071MW1021REMSYN022 333 20186 59007 60014
0117833390999991993100718004-14050-042617FM-12+088299999V0209999999999004201CN0200001N9+02221+01801101041ADDAA106000091AG14000AY121061AY221061GF108991051021004501021999MA1999999091321MD1999999+0111MW1171REMSYN010 333 58011
0136833390999991993100800004-14050-042617FM-12+088299999V0209999999999004201CN9999999N9+01881+01451101451ADDAA106000091AG14008AY191061AY221061GF106991061021004501001001KA1240M+02731MA1999999091681MD1999999+0251MW1021REMSYN016 333 10273 58025
0114833390999991993100812004-14050-042617FM-12+088299999V0209999999999004201CN0200001N9+01861+01321101771ADDAA106000091AG14000GF106991061021004501001001KA1240N+01521MA1999999091921MD1999999+0351REMSYN016 333 20152 58035
