0115821980999991988052600004-01717-045400FM-12+004499999V0203601N001019999999N0100001N9+02501+02361101061ADDAA106000091AG10999GF108991041061999999061021KA1240M+02881MA1999999100881MD1999999-0051REMSYN017333   10288 59005
0115821980999991988090512004-01717-045400FM-12+004499999V0200501N00361045001CN0100001N9+02911+02371101181ADDAA106000091AG10999GF106991041021012501031001KA1240N+02521MA1999999100671MD1999999+0031REMSYN017333   20252 58003
0096821980999991988090518004-01717-045400FM-12+004499999V0200501N00511220001CN0100001N9+03001+02221100851ADDAA106000091AG10999GF104991041021012501001001MA1999999100341MD1999999-0061REMSYN011333   59006
0115821980999991988090600004-01717-045400FM-12+004499999V0200501N00311220001CN0040001N9+02501+02411101171ADDAA106000091AG10999GF100991001001999999001001KA1240M+03031MA1999999100961MD1999999+0311REMSYN017333   10303 58031
0115821980999991988090612004-01717-045400FM-12+004499999V0200901N00361012001CN0100001N9+02721+02371101261ADDAA106000091AG10999GF108991051021012501031001KA1240N+02491MA1999999100751MD1999999+0081REMSYN017333   20249 58008
0121821980999991988090712004-01717-045400FM-12+004499999V0200901N00361012001CN0100001N9+02741+02301101181ADDAA124005091AG10999GF105991051021012501001001KA1240N+02441MA1999999100671MD1999999-0081REMSYN023333   20244 59008 60054
0115821980999991988091100004-01717-045400FM-12+004499999V0200501N00311220001CN0040001N9+02521+02401100851ADDAA106000091AG10999GF100991001001999999001001KA1240M+03051MA1999999100341MD1999999-0051REMSYN017333   10305 59005
0115821980999991988091112004-01717-045400FM-12+004499999V0200501N00511012001CN0100001N9+02781+02251101021ADDAA106000091AG10999GF106991061021012501001001KA1240N+02481MA1999999100511MD1999999-0011REMSYN017333   20248 59001
0096821980999991988091218004-01717-045400FM-12+004499999V0200501N00621045001CN0100001N9+03001+02221100841ADDAA106000091AG10999GF106991031021012501061011MA1999999100331MD1999999+0071REMSYN011333   58007
0124821980999991988091418004-01717-045400FM-12+004499999V0200501N00511012001CN0100001N9+02901+02281100721ADDAA106000391AG10999AY151061AY221061GF105991051021012501001001MA1999999100211MD1999999+0081MW1021REMSYN017333   58008 69931
0132821980999991988091512004-01717-045400FM-12+004499999V0200501N00361012001CN0100001N9+02911+02391101151ADDAA106000091AA224000391AG10999GF105991051021012501001001KA1240N+02371MA1999999100641MD1999999+0171REMSYN023333   20237 58017 69934
0096821980999991988091518004-01717-045400FM-12+004499999V0200501N00311012001CN0100001N9+02981+02301100951ADDAA106000091AG10999GF105991051021012501001001MA1999999100441MD1999999+0231REMSYN011333   58023
0115821980999991988091600004-01717-045400FM-12+004499999V0209999999999220001CN0040001N9+02541+02361100991ADDAA106000091AG10999GF100991001001999999001001KA1240M+03141MA1999999100481MD1999999+0141REMSYN017333   10314 58014
0115821980999991988091612004-01717-045400FM-12+004499999V0200501N00411012001CN0100001N9+02901+02341101311ADDAA106000091AG10999GF106991061021012501001001KA1240N+02371MA1999999100801MD1999999+0161REMSYN017333   20237 58016
0121821980999991988091812004-01717-045400FM-12+004499999V0200501N00571012001CN0100001N9+02871+02251100941ADDAA106051091AG10999GF106991061021012501001001KA1240N+02441MA1999999100481MD1999999-0111REMSYN023333   20244 59011 60511
0115821980999991988091900004-01717-045400FM-12+004499999V0200501N00311220001CN0040001N9+02531+02401100881ADDAA106000091AG10999GF100991001001999999001001KA1240M+03131MA1999999100371MD1999999+0001REMSYN017333   10313 58000
0115821980999991988091912004-01717-045400FM-12+004499999V0200501N00361012001CN0100001N9+02741+02261101161ADDAA106000091AG10999GF106991061021012501001001KA1240N+02451MA1999999100651MD1999999+0171REMSYN017333   20245 58017
0115821980999991988092112004-01717-045400FM-12+004499999V0200501N00511012001CN0100001N9+02901+02341101211ADDAA106000091AG10999GF106991061021012501001001KA1240N+02351MA1999999100701MD1999999-0071REMSYN017333   20235 59007
0115821980999991988092212004-01717-045400FM-12+004499999V0200501N00461220001CN0100001N9+02861+02311101231ADDAA106000091AG10999GF104991041021012501001001KA1240N+02371MA1999999100721MD1999999+0021REMSYN017333   20237 58002
0096821980999991988092218004-01717-045400FM-12+004499999V0200501N00621220001CN0100001N9+03021+01891100881ADDAA106000091AG10999GF103991031001012501001011MA1999999100371MD1999999-0011REMSYN011333   59001
0095821980999991988092300004-01717-045400FM-12+004499999V0200501N00261220001CN0040001N9+02561+02401101021ADDAA106000091AG10999GF100991001001999999001001KA1240M+03161MA1999999100511REMSYN011333   10316
0115821980999991988092312004-01717-045400FM-12+004499999V0200501N00411012001CN0100001N9+02851+02351101201ADDAA106000091AG10999GF105991051021012501001001KA1240N+02311MA1999999100691MD1999999-0031REMSYN017333   20231 59003
0115821980999991988092412004-01717-045400FM-12+004499999V0200501N00361220001CN0040001N9+02951+02261101191ADDAA106000091AG10999GF100991001001999999001001KA1240N+02371MA1999999100681MD1999999-0011REMSYN017333   20237 59001
0096821980999991988092518004-01717-045400FM-12+004499999V0200501N00361220001CN0100001N9+03151+02181100911ADDAA106000091AG10999GF102991021021012501001001MA1999999100401MD1999999-0021REMSYN011333   59002
0115821980999991988092600004-01717-045400FM-12+004499999V0203601N00311220001CN0040001N9+02611+02391101061ADDAA106000091AG10999GF100991001001999999001001KA1240M+03221MA1999999100251MD1999999-0111REMSYN017333   10322 59011
0115821980999991988092612004-01717-045400FM-12+004499999V0200501N00511012001CN0100001N9+02841+02221101201ADDAA106000091AG10999GF106991061021012501001001KA1240N+02381MA1999999100691MD1999999-0041REMSYN017333   20238 59004
0096821980999991988092618004-01717-045400FM-12+004499999V0200501N00511012001CN0100001N9+03041+02181100961ADDAA106000091AG10999GF105991051021012501001001MA1999999100451MD1999999+0051REMSYN011333   58005
0096821980999991988092718004-01717-045400FM-12+004499999V0209999999999220001CN0100001N9+03141+02211100911ADDAA106000091AG10999GF102991021021012501001001MA1999999100401MD1999999-0041REMSYN011333   59004
0115821980999991988092812004-01717-045400FM-12+004499999V0203601N00511220001CN0100001N9+02901+02321101131ADDAA106000091AG10999GF104991041021012501001001KA1240N+02381MA1999999100621MD1999999-0031REMSYN017333   20238 59003
0115821980999991988100112004-01717-045400FM-12+004499999V0200501N00571012001CN0100001N9+02791+02321101081ADDAA106000091AG10999GF106991061021012501001001KA1240N+02371MA1999999100571MD1999999-0011REMSYN017333   20237 59001
0096821980999991988100318004-01717-045400FM-12+004499999V0200501N00621012001CN0100001N9+03041+02181100821ADDAA106000091AG10999GF105991051021012501001001MA1999999100311MD1999999-0091REMSYN011333   59009
0115821980999991988100400004-01717-045400FM-12+004499999V0200501N00311220001CN0040001N9+02551+02321100821ADDAA106000091AG10999GF100991001001999999001001KA1240M+03141MA1999999100311MD1999999-0091REMSYN017333   10314 59009
0115821980999991988100412004-01717-045400FM-12+004499999V0200501N00411012001CN0100001N9+02821+02331100991ADDAA106000091AG10999GF106991061021012501001001KA1240N+02391MA1999999100481MD1999999-0071REMSYN017333   20239 59007
0115821980999991988100712004-01717-045400FM-12+004499999V0200501N00361012001CN0100001N9+02981+02351101221ADDAA106000091AG10999GF105991051021012501001001KA1240N+02351MA1999999100711MD1999999-0051REMSYN017333   20235 59005
0096821980999991988100718004-01717-045400FM-12+004499999V0200501N00511012001CN0100001N9+03041+02201100931ADDAA106000091AG10999GF105991051021012501001001MA1999999100421MD1999999-0061REMSYN011333   59006
0115821980999991988100800004-01717-045400FM-12+004499999V0200501N00361220001CN0040001N9+02581+02371101031ADDAA106000091AG10999GF100991001001999999001001KA1240M+03151MA1999999100521MD1999999+0021REMSYN017333   10315 58002
0115821980999991988100812004-01717-045400FM-12+004499999V0200501N00461220001CN0100001N9+02841+02311101121ADDAA106000091AG10999GF106991041021012501001011KA1240N+02371MA1999999100611MD1999999-0101REMSYN017333   20237 59010
0104821980999991988101000004-01717-045400FM-12+004499999V0200501N00311220001CN0040001N9+02571+02401100991ADDAG10999GF100991001001999999001001KA1240M+03181MA1999999100481MD1999999+0101REMSYN017333   10318 58010
0115821980999991988101012004-01717-045400FM-12+004499999V0200501N00311220001CN0100001N9+02931+02341101141ADDAA106000091AG10999GF104991041021012501001001KA1240N+02361MA1999999100531MD1999999-0011REMSYN017333   20236 59001
0154821980999991988121900004-01717-045400FM-12+004499999V0202301N00151220001CN0040001N9+02271+02251100951ADDAA106000691AA299000591AG10999AY161061AY201061GF103991031001012501001031KA1240M+02761MA1999999100431MD1999999+0041MW1011REMSYN023333   10276 58004 69961
0121821980999991988121912004-01717-045400FM-12+004499999V0201401N00101045001CN0100001N9+02621+02371101131ADDAA124013091AG10999GF105991021021012501031001KA1240N+02101MA1999999100611MD1999999+0041REMSYN023333   20210 58004 60134
0124821980999991988121918004-01717-045400FM-12+004499999V0200901N00361012001CN0100001N9+02681+02351100841ADDAA106012091AG10999AY161061AY221061GF107991051071012501061001MA1999999100321MD1999999+0121MW1031REMSYN017333   58012 60121
0115821980999991988122000004-01717-045400FM-12+004499999V0200501N003119999999N0040001N9+02471+02301101111ADDAA106000091AG10999GF106991061001012501041001KA1240M+02891MA1999999100591MD1999999+0161REMSYN017333   10289 58016
0121821980999991988122012004-01717-045400FM-12+004499999V0200501N00311220001CN0100001N9+02811+02401100981ADDAA124012091AG10999GF104991021021012501001021KA1240N+02371MA1999999100461MD1999999-0201REMSYN023333   20237 59020 60124
0124821980999991988122018004-01717-045400FM-12+004499999V0203201N00571012001CN0100001N9+02611+02441100661ADDAA106004091AG10999AY161061AY251061GF107991051071012501021001MA1999999100241MD1999999-0181MW1581REMSYN017333   59018 60041
0143821980999991988122100004-01717-045400FM-12+004499999V0200501N00311045001CN0040001N9+02461+02411101011ADDAA106002091AG10999AY161061AY221061GF106991041071012501061001KA1240M+02981MA1999999100491MD1999999-0101MW1021REMSYN023333   10298 59010 60021
0121821980999991988122112004-01717-045400FM-12+004499999V0200501N00211045001CN0100001N9+02621+02291100971ADDAA124006091AG10999GF105991021021012501061001KA1240N+02181MA1999999100451MD1999999-0011REMSYN023333   20218 59001 60064
0159821980999991988122118004-01717-045400FM-12+004499999V0203601N00151012001CN0100001N9+02621+02461100062ADDAA106018091AG10999AY161061AY221061GF107991999021012501001001MA1999999100121MD1999999-0021MW1031REMSYN017333   59002 60181EQDQ01+000052SCOTLCQ02+100063APOSLP
0115821980999991988122200004-01717-045400FM-12+004499999V0200501N00311045001CN0040001N9+02521+02341100791ADDAA106000091AG10999GF105991021021012501041001KA1240M+03001MA1999999100261MD1999999-0221REMSYN017333   10300 59022
0143821980999991988122212004-01717-045400FM-12+004499999V0203601N00671012001CN0100001N9+02261+02211101141ADDAA124053091AG10999AY161061AY251061GF108991061071012501021001KA1240N+02201MA1999999100621MD1999999+0171MW1611REMSYN023333   20220 58017 60534
0121821980999991988122312004-01717-045400FM-12+004499999V0200901N00101012001CN0100001N9+02651+02461100951ADDAA124003091AG10999GF107991051021012501061001KA1240N+02221MA1999999100431MD1999999-0191REMSYN023333   20222 59019 60034
0115821980999991988122412004-01717-045400FM-12+004499999V0200901N00101045001CN0100001N9+02551+02441100891ADDAA106000091AG10999GF106991041021012501031001KA1240N+02171MA1999999100371MD1999999-0071REMSYN017333   20217 59007
0124821980999991988122418004-01717-045400FM-12+004499999V0203601N00461045001CN0100001N9+02781+02421100611ADDAA106004091AG10999AY161061AY221061GF106991041021012501011001MA1999999100101MD1999999-0011MW1021REMSYN017333   59001 60041
0134821980999991988122500004-01717-045400FM-12+004499999V0200501N002119999999N0040001N9+02581+02331100711ADDAA106000091AG10999GF105991031021999999011001KA1240M+02921MA1999999100201MD1999999-0061REMSYN017333   10292 59006EQDQ01+000992SCOLCB
0121821980999991988122512004-01717-045400FM-12+004499999V0200501N00361012001CN0100001N9+02861+02391100911ADDAA124004091AG10999GF105991051021012501001001KA1240N+02481MA1999999100401MD1999999+0031REMSYN023333   20248 58003 60044
0096821980999991988122518004-01717-045400FM-12+004499999V0200501N00411045001CN0100001N9+03041+02291100701ADDAA106000091AG10999GF106991021021012501041011MA1999999100191MD1999999+0091REMSYN011333   58009
0115821980999991988122612004-01717-045400FM-12+004499999V0200501N00211045001CN0100001N9+02681+02431100941ADDAA106000091AG10999GF105991041021012501011001KA1240N+02451MA1999999100421MD1999999+0021REMSYN017333   20245 58002
0096821980999991988122618004-01717-045400FM-12+004499999V0200501N00311007501CN0100001N9+02831+02601100681ADDAA106000091AG10999GF107991051021008001011001MA1999999100171MD1999999-0021REMSYN011333   59002
0115821980999991988122712004-01717-045400FM-12+004499999V0200501N00361012001CN0100001N9+02781+02381100911ADDAA106000091AG10999GF106991061021012501001001KA1240N+02511MA1999999100391MD1999999-0031REMSYN017333   20251 59003
0096821980999991988122718004-01717-045400FM-12+004499999V0200501N00411220001CN0100001N9+03041+02281100621ADDAA106000091AG10999GF105991031021012501001011MA1999999100111MD1999999-0061REMSYN011333   59006
0096821980999991988122818004-01717-045400FM-12+004499999V0200501N00211220001CN0100001N9+03061+02381101721ADDAA106000091AG10999GF104991041021012501001001MA1999999100211MD1999999+0101REMSYN011333   58010
0115821980999991988122912004-01717-045400FM-12+004499999V0200501N00211012001CN0100001N9+02731+02471101021ADDAA106000091AG10999GF106991061021012501061001KA1240N+02511MA1999999100501MD1999999+0061REMSYN017333   20251 58006
0134821980999991988123012004-01717-045400FM-12+004499999V0200501N00151220001CN0100001N9+02821+02441101031ADDAA106000091AG10999GF104991999021012501001001KA1240N+02371MA1999999100521MD1999999+0021REMSYN017333   20237 58002EQDQ01+000022SCOTLC
0115821980999991988123112004-01717-045400FM-12+004499999V0203601N00361045001CN0100001N9+02791+02341101001ADDAA106000091AG10999GF105991021021012501061001KA1240N+02481MA1999999100481MD1999999-0041REMSYN017333   20248 59004
