0137829940999991988010100004-09667-035700FM-12+008999999V0200901N00211220001CN9999999N9+02501+02311101191ADDAA106000091AG10999AY101061AY201061GF103991031011012501001001KA1240M+03201MA1999999100161MD1999999-0191MW1011REMSYN017333   10320 59019
0137829940999991988010112004-09667-035700FM-12+008999999V0201401N00461220001CN0200001N9+03051+02061101131ADDAA106000091AG10999AY101061AY201061GF103991031001017501041001KA1240N+02221MA1999999100131MD1999999-0261MW1011REMSYN017333   20222 59026
0118829940999991988010118004-09667-035700FM-12+008999999V0201401N00511220001CN0500001N9+03061+02051101081ADDAA106000091AG10999AY101061AY201061GF103991031011012501001001MA1999999100081MD1999999+0001MW1011REMSYN011333   58000
0137829940999991988010200004-09667-035700FM-12+008999999V0200901N00311045001CN9999999N9+02531+02381101061ADDAA106000091AG10999AY111061AY211061GF106991021021017501041001KA1240M+03241MA1999999100041MD1999999-0121MW1031REMSYN017333   10324 59012
0137829940999991988010212004-09667-035700FM-12+008999999V0200901N00511220001CN0500001N9+03041+01971101031ADDAA106000091AG10999AY111061AY211061GF106991021011012501001011KA1240N+02241MA1999999100031MD1999999-0051MW1011REMSYN017333   20224 59005
0118829940999991988010218004-09667-035700FM-12+008999999V0200901N00621220001CN0500001N9+03081+02351101171ADDAA106000091AG10999AY101061AY201061GF106991021011012501001011MA1999999100171MD1999999+0091MW1011REMSYN011333   58009
0137829940999991988010300004-09667-035700FM-12+008999999V0200901N00361220001CN9999999N9+02471+02281101071ADDAA106000091AG10999AY101061AY201061GF104991041021008001001001KA1240M+03271MA1999999100051MD1999999+0011MW1011REMSYN017333   10327 58001
0137829940999991988010312004-09667-035700FM-12+008999999V0201401N004119999999N0500001N9+03021+02101101121ADDAA106000091AG10999AY111061AY211061GF105991051001008001041001KA1240N+02231MA1999999100121MD1999999+0091MW1021REMSYN017333   20223 58009
0118829940999991988010318004-09667-035700FM-12+008999999V0201301N00721220001CN0500001N9+03061+01931101121ADDAA106000091AG10999AY101061AY201061GF103991031001012501041001MA1999999100121MD1999999-0051MW1011REMSYN011333   59005
0137829940999991988010400004-09667-035700FM-12+008999999V0200901N00311045001CN9999999N9+02461+02231101061ADDAA106000091AG10999AY111061AY211061GF105991021021017501041001KA1240M+03281MA1999999100041MD1999999-0011MW1011REMSYN017333   10328 59001
0137829940999991988010412004-09667-035700FM-12+008999999V0201401N00511220001CN0500001N9+03021+01761101411ADDAA106000091AG10999AY101061AY201061GF103991031001022501041001KA1240N+02251MA1999999100411MD1999999+0061MW1011REMSYN017333   20225 58006
0118829940999991988010418004-09667-035700FM-12+008999999V0200901N00461045001CN0500001N9+03001+01841101311ADDAA106000091AG10999AY111061AY211061GF105991021011012501061001MA1999999100311MD1999999+0191MW1031REMSYN011333   58019
0154829940999991988010512004-09667-035700FM-12+008999999V0200901N00511045001CN0200001N9+02821+02051101421ADDAA124000691AA299000591AG10999AY191061AY261061GF107991021031017501041001KA1240N+02201MA1999999100411MD1999999+0001MW1031REMSYN023333   20220 58000 69964
0118829940999991988010518004-09667-035700FM-12+008999999V0200901N00461045001CN0500001N9+03001+01641101331ADDAA106000091AG10999AY111061AY211061GF106991021021017501041001MA1999999100331MD1999999+0021MW1031REMSYN011333   58002
0137829940999991988010600004-09667-035700FM-12+008999999V0201401N00151045001CN9999999N9+02541+02191101431ADDAA106000091AG10999AY111061AY211061GF105991021031012501061001KA1240M+03271MA1999999100421MD1999999+0121MW1031REMSYN017333   10327 58012
0143829940999991988010612004-09667-035700FM-12+008999999V0201801N00051045001CN0200001N9+02951+01911101421ADDAA124999929AG10999AY191061AY261061GF107991041031012501061001KA1240N+02201MA1999999100411MD1999999+0001MW1031REMSYN023333   20220 58000 69904
0118829940999991988010618004-09667-035700FM-12+008999999V0200501N00511220001CN0500001N9+03021+01991101371ADDAA106000091AG10999AY101061AY201061GF104991041021017501001001MA1999999100371MD1999999+0041MW1011REMSYN011333   58004
0137829940999991988010700004-09667-035700FM-12+008999999V0200901N00261220001CN9999999N9+02481+02321101411ADDAA106000091AG10999AY101061AY201061GF103991031011017501001001KA1240M+03251MA1999999100381MD1999999-0031MW1011REMSYN017333   10325 59003
0137829940999991988010712004-09667-035700FM-12+008999999V0201401N00571012001CN0500001N9+02921+02141101351ADDAA106000091AG10999AY121061AY221061GF106991061021012501061001KA1240N+02241MA1999999100341MD1999999-0071MW1031REMSYN017333   20224 59007
0118829940999991988010718004-09667-035700FM-12+008999999V0201401N00571220001CN0500001N9+03061+01961101301ADDAA106000091AG10999AY111061AY211061GF106991021011017501001011MA1999999100301MD1999999-0071MW1021REMSYN011333   59007
0137829940999991988010800004-09667-035700FM-12+008999999V0200901N00311220001CN9999999N9+02501+02291101291ADDAA106000091AG10999AY101061AY201061GF103991031011012501001001KA1240M+03281MA1999999100261MD1999999-0121MW1011REMSYN017333   10328 59012
0137829940999991988010812004-09667-035700FM-12+008999999V0201401N00311045001CN0500001N9+02961+01991101421ADDAA106000091AG10999AY111061AY211061GF105991021011012501061001KA1240N+02231MA1999999100421MD1999999+0081MW1021REMSYN017333   20223 58008
0118829940999991988010818004-09667-035700FM-12+008999999V0200901N00361220001CN0500001N9+03021+02041101431ADDAA106000091AG10999AY101061AY201061GF103991031001017501041001MA1999999100431MD1999999+0131MW1011REMSYN011333   58013
0137829940999991988010900004-09667-035700FM-12+008999999V0200901N00151220001CN9999999N9+02461+02271101361ADDAA106000091AG10999AY101061AY201061GF103991031011012501001001KA1240M+03231MA1999999100331MD1999999+0071MW1011REMSYN017333   10323 58007
0137829940999991988010912004-09667-035700FM-12+008999999V0200501N00461045001CN0500001N9+02951+02031101311ADDAA106000091AG10999AY111061AY211061GF106991021021012501061001KA1240N+02201MA1999999100301MD1999999-0121MW1021REMSYN017333   20220 59012
0124829940999991988010918004-09667-035700FM-12+008999999V0200901N00511045001CN0500001N9+03001+01841101231ADDAA124000191AG10001AY191061AY261061GF106991021031017501041001MA1999999100231MD1999999-0201MW1031REMSYN017333   59020 69914
0137829940999991988011000004-09667-035700FM-12+008999999V0200901N00151045001CN9999999N9+02451+02251101171ADDAA106000091AG10999AY111061AY211061GF106991021031012501041001KA1240M+03251MA1999999100141MD1999999-0191MW1031REMSYN017333   10325 59019
0143829940999991988011012004-09667-035700FM-12+008999999V0200901N00151045001CN0200001N9+02981+02151101331ADDAA124000191AG10999AY111061AY221061GF107991041031012501041001KA1240N+02251MA1999999100321MD1999999+0021MW1031REMSYN023333   20225 58002 69914
0135829940999991988011018004-09667-035700FM-12+008999999V0200901N00621045001CN0200001N9+02981+02121101061ADDAA106000691AA299000591AG10999AY191061AY261061GF107991021071012501041001MA1999999100061MD1999999-0171MW1031REMSYN017333   59017 69961
0137829940999991988011100004-09667-035700FM-12+008999999V0200901N00311045001CN9999999N9+02441+02231101191ADDAA106000091AG10999AY111061AY211061GF106991021031012501061001KA1240M+03101MA1999999100161MD1999999+0021MW1031REMSYN017333   10310 58002
0143829940999991988011112004-09667-035700FM-12+008999999V0200901N00361045001CN0500001N9+02821+02121101221ADDAA124002091AG10999AY191061AY261061GF106991021031012501041001KA1240N+01181MA1999999100211MD1999999-0111MW1031REMSYN023333   20118 59011 60024
0135829940999991988011118004-09667-035700FM-12+008999999V0200501N00621045001CN0500001N9+02961+02101101111ADDAA124000691AA299000591AG10999AY191061AY261061GF106991021021012501041001MA1999999100111MD1999999+0051MW1031REMSYN017333   58005 69964
0143829940999991988011212004-09667-035700FM-12+008999999V0201401N00511045001CN0200001N9+02771+02121101351ADDAA124012091AG10999AY191061AY261061GF107991041071012501041001KA1240N+02171MA1999999100341MD1999999+0131MW1031REMSYN023333   20217 58013 60124
0118829940999991988011218004-09667-035700FM-12+008999999V0200901N00461045001CN0500001N9+02881+02101101401ADDAA106000091AG10999AY111061AY211061GF106991021031017501061001MA1999999100391MD1999999+0281MW1021REMSYN011333   58028
0137829940999991988011300004-09667-035700FM-12+008999999V0200901N00261045001CN9999999N9+02501+02311101401ADDAA106000091AG10999AY111061AY221061GF106991021011012501041001KA1240M+03161MA1999999100371MD1999999+0111MW1031REMSYN017333   10316 58011
0154829940999991988011312004-09667-035700FM-12+008999999V0200901N00511045001CN0500001N9+02801+01871101541ADDAA124000891AA299001091AG10999AY191061AY261061GF106991021031012501061001KA1240N+02261MA1999999100531MD1999999+0191MW1031REMSYN023333   20226 58019 69984
0118829940999991988011318004-09667-035700FM-12+008999999V0200901N00511220001CN0500001N9+02951+02451101321ADDAA106000091AG10999AY101061AY201061GF103991031021004501001001MA1999999100311MD1999999-0081MW1011REMSYN011333   59008
0137829940999991988011400004-09667-035700FM-12+008999999V0200901N00151012001CN9999999N9+02481+02291101381ADDAA106000091AG10999AY111061AY211061GF105991051021012501001001KA1240M+03241MA1999999100351MD1999999-0021MW1021REMSYN017333   10324 59002
0162829940999991988011412004-09667-035700FM-12+008999999V0201401N00311045001CN0500001N9+02641+02291101401ADDAA124005091AG10999AY191061AY261061GF106991041031012501061001KA1240N+02161MA1999999100381MD1999999-0151MW1031REMSYN023333   20216 59015 60054EQDQ01+999990APOSP 
0118829940999991988011418004-09667-035700FM-12+008999999V0200901N00461045001CN0500001N9+02901+02151101161ADDAA106000091AG10999AY111061AY211061GF106991021031012501041001MA1999999100151MD1999999-0161MW1021REMSYN011333   59016
0137829940999991988011500004-09667-035700FM-12+008999999V0200901N00211045001CN9999999N9+02521+02231101411ADDAA106000091AG10999AY111061AY221061GF106991021021012501041001KA1240M+03081MA1999999100321MD1999999+0031MW1031REMSYN017333   10308 58003
0121829940999991988011512004-09667-035700FM-12+008999999V0201801N00151045001CN0500001N9+02841+02091101461ADDAA124999929AG10001GF106991021021012501061001KA1240N+02141MA1999999100441MD1999999+0061REMSYN023333   20214 58006 69904
0118829940999991988011518004-09667-035700FM-12+008999999V0200901N00461220001CN0500001N9+03001+01941101381ADDAA106000091AG10999AY101061AY201061GF103991031011017501001001MA1999999100371MD1999999+0221MW1011REMSYN011333   58022
0137829940999991988011600004-09667-035700FM-12+008999999V0200901N00151220001CN9999999N9+02531+01901101301ADDAA106000091AG10999AY101061AY201061GF103991031021017501001001KA1240M+03181MA1999999100271MD1999999+0111MW1011REMSYN017333   10318 58011
0143829940999991988011612004-09667-035700FM-12+008999999V0201401N00511045001CN0200001N9+02701+02301101411ADDAA124002091AG10999AY191061AY261061GF107991021031012501041001KA1240N+02121MA1999999100391MD1999999-0051MW1031REMSYN023333   20212 59005 60024
0118829940999991988011618004-09667-035700FM-12+008999999V0201401N00311045001CN0200001N9+02861+02301101401ADDAA106000091AG10999AY121061AY221061GF107991041031012501061001MA1999999100391MD1999999+0021MW1031REMSYN011333   58002
0137829940999991988011700004-09667-035700FM-12+008999999V0200901N00211045001CN9999999N9+02551+02171101291ADDAA106000091AG10999AY121061AY221061GF106991021031012501041001KA1240M+03001MA1999999100271MD1999999+0001MW1031REMSYN017333   10300 58000
0154829940999991988011712004-09667-035700FM-12+008999999V0201401N00461045001CN0500001N9+02941+01791101451ADDAA124000291AA299000391AG10999AY191061AY261061GF106991021021012501061001KA1240N+02201MA1999999100441MD1999999+0051MW1031REMSYN023333   20220 58005 69924
0118829940999991988011718004-09667-035700FM-12+008999999V0201401N00511220001CN0500001N9+02961+01841101281ADDAA106000091AG10999AY101061AY201061GF103991031011012501001001MA1999999100271MD1999999-0121MW1011REMSYN011333   59012
0137829940999991988011800004-09667-035700FM-12+008999999V0200901N00151220001CN9999999N9+02481+02051101291ADDAA106000091AG10999AY111061AY211061GF105991021011012501001011KA1240M+03221MA1999999100261MD1999999-0011MW1031REMSYN017333   10322 59001
0143829940999991988011812004-09667-035700FM-12+008999999V0200901N00151045001CN0100001N9+02631+02441101491ADDAA124013091AG10999AY191061AY261061GF107991031071008001021001KA1240N+02341MA1999999100481MD1999999+0041MW1611REMSYN023333   20234 58004 60134
0135829940999991988011818004-09667-035700FM-12+008999999V0200901N00311007501CN0500001N9+02901+02271101081ADDAA106000291AA299000391AG10999AY191061AY261061GF105991051021008001001001MA1999999100081MD1999999-0191MW1031REMSYN017333   59019 69921
0137829940999991988011900004-09667-035700FM-12+008999999V0200901N00151045001CN9999999N9+02551+02251101341ADDAA106000091AG10999AY101061AY221061GF106991031031008001041001KA1240M+03001MA1999999100311MD1999999+0051MW1031REMSYN017333   10300 58005
0154829940999991988011912004-09667-035700FM-12+008999999V0200901N00311045001CN0500001N9+02821+02241101461ADDAA124000291AA299000391AG10999AY111061AY221061GF106991031021008001041001KA1240N+02301MA1999999100441MD1999999-0041MW1031REMSYN023333   20230 59004 69924
0118829940999991988011918004-09667-035700FM-12+008999999V0200901N00511007501CN0500001N9+02871+02091101191ADDAA106000091AG10999AY101061AY221061GF105991051021008001001001MA1999999100181MD1999999+0101MW1011REMSYN011333   58010
0137829940999991988012000004-09667-035700FM-12+008999999V0200901N00151220001CN9999999N9+02601+02251101321ADDAA106000091AG10999AY101061AY201061GF102991021011008001001001KA1240M+03101MA1999999100301MD1999999-0011MW1011REMSYN017333   10310 59001
0137829940999991988012012004-09667-035700FM-12+008999999V0200901N00511045001CN0200001N9+02771+02251101311ADDAA106000091AG10001AY101061AY221061GF106991031051008001041001KA1240N+02301MA1999999100301MD1999999-0141MW1031REMSYN017333   20230 59014
0118829940999991988012018004-09667-035700FM-12+008999999V0200901N00461220001CN0500001N9+03071+01801101031ADDAA106000091AG10999AY101061AY201061GF102991021011008001001001MA1999999100021MD1999999-0161MW1011REMSYN011333   59016
0137829940999991988012112004-09667-035700FM-12+008999999V0200901N00311045001CN0200001N9+02721+02261101251ADDAA106000091AG10999AY101061AY221061GF108991041061008001041999KA1240N+01501MA1999999100221MD1999999-0081MW1031REMSYN017333   20150 59008
0118829940999991988012118004-09667-035700FM-12+008999999V0200901N00511045001CN0500001N9+03161+02021101211ADDAA106000091AG10999AY111061AY221061GF106991021031012501041001MA1999999100211MD1999999+0191MW1031REMSYN011333   58019
0137829940999991988012200004-09667-035700FM-12+008999999V0200901N00151045001CN9999999N9+02591+02311101241ADDAA106000091AG10999AY111061AY221061GF106991021011012501061001KA1240M+03301MA1999999100221MD1999999+0041MW1031REMSYN017333   10330 58004
0137829940999991988012212004-09667-035700FM-12+008999999V0200901N00411045001CN0500001N9+02901+02021101431ADDAA106000091AG10999AY111061AY221061GF106991021021012501061001KA1240N+02251MA1999999100921MD1999999+0201MW1031REMSYN017333   20225 58020
0118829940999991988012218004-09667-035700FM-12+008999999V0200901N00311045001CN0500001N9+03001+01941101271ADDAA106000091AG10999AY121061AY221061GF106991021041017501041001MA1999999100271MD1999999+0061MW1031REMSYN011333   58006
0137829940999991988012300004-09667-035700FM-12+008999999V0200901N00151045001CN9999999N9+02601+02311101261ADDAA106000091AG10999AY111061AY211061GF105991021021012501061001KA1240M+03281MA1999999100241MD1999999+0021MW1031REMSYN017333   10328 58002
0137829940999991988012312004-09667-035700FM-12+008999999V0200901N00051045001CN0500001N9+02941+01851101321ADDAA106000091AG10999AY111061AY211061GF106991041021017501061001KA1240N+02261MA1999999100311MD1999999-0111MW1031REMSYN017333   20226 59011
0118829940999991988012318004-09667-035700FM-12+008999999V0200901N00511220001CN0500001N9+03021+01961101171ADDAA106000091AG10999AY101061AY201061GF103991031011017501001001MA1999999100171MD1999999-0101MW1011REMSYN011333   59010
0137829940999991988012400004-09667-035700FM-12+008999999V0200901N00211220001CN9999999N9+02571+02151101211ADDAA106000091AG10999AY101061AY201061GF103991031001012501041001KA1240M+03321MA1999999100191MD1999999-0051MW1011REMSYN017333   10332 59005
0143829940999991988012412004-09667-035700FM-12+008999999V0201401N00311045001CN0200001N9+02901+02221101451ADDAA124999929AG10999AY191061AY261061GF106991021031017501041001KA1240N+02241MA1999999100441MD1999999+0131MW1031REMSYN023333   20224 58013 69904
0118829940999991988012418004-09667-035700FM-12+008999999V0200901N00511220001CN0500001N9+02951+01911101141ADDAA106000091AG10999AY101061AY201061GF103991031011012501001001MA1999999100141MD1999999-0031MW1011REMSYN011333   59003
0137829940999991988012512004-09667-035700FM-12+008999999V0201401N00411045001CN0500001N9+02901+01991101431ADDAA106000091AG10999AY111061AY221061GF106991021011012501061001KA1240N+02251MA1999999100421MD1999999-0021MW1031REMSYN017333   20225 59002
0118829940999991988012518004-09667-035700FM-12+008999999V0201401N00571045001CN0500001N9+03021+02021101101ADDAA106000091AG10999AY111061AY211061GF106991021061012501041001MA1999999100101MD1999999-0041MW1021REMSYN011333   59004
0137829940999991988012600004-09667-035700FM-12+008999999V0201401N00101220001CN9999999N9+02551+02251101251ADDAA106000091AG10999AY101061AY201061GF104991041011012501001001KA1240M+03261MA1999999100231MD1999999+0101MW1011REMSYN017333   10326 58010
0154829940999991988012612004-09667-035700FM-12+008999999V0200901N00311105001CN0500001N9+02851+02011101251ADDAA124000291AA299000391AG10999AY191061AY261061GF106991021021012501061031KA1240N+02241MA1999999100241MD1999999-0181MW1031REMSYN023333   20224 59018 69924
0118829940999991988012618004-09667-035700FM-12+008999999V0200901N00461045001CN0500001N9+02941+01821101131ADDAA106000091AG10999AY111061AY211061GF106991021011012501041001MA1999999100131MD1999999+0031MW1021REMSYN011333   58003
0137829940999991988012700004-09667-035700FM-12+008999999V0201401N00211220001CN9999999N9+02571+02211101271ADDAA106000091AG10999AY101061AY201061GF103991031031012501001001KA1240M+03301MA1999999100251MD1999999+0021MW1011REMSYN017333   10330 58002
0143829940999991988012712004-09667-035700FM-12+008999999V0201401N00261045001CN0500001N9+02741+01921101311ADDAA124001091AG10999AY191061AY261061GF106991021021012501041001KA1240N+02201MA1999999100301MD1999999+0061MW1031REMSYN023333   20220 58006 60014
0118829940999991988012718004-09667-035700FM-12+008999999V0201401N00571220001CN0500001N9+03041+01881101891ADDAA106000091AG10999AY101061AY201061GF103991031011012501001001MA1999999100291MD1999999+0161MW1011REMSYN011333   58016
0137829940999991988012800004-09667-035700FM-12+008999999V0200901N00311220001CN9999999N9+02581+02171101291ADDAA106000091AG10999AY101061AY201061GF103991031001012501041001KA1240M+03321MA1999999100271MD1999999+0021MW1011REMSYN017333   10332 58002
0118829940999991988012818004-09667-035700FM-12+008999999V0200901N00461220001CN0500001N9+02481+01921101271ADDAA106000091AG10999AY101061AY201061GF103991031001017501041001MA1999999100271MD1999999-0021MW1011REMSYN011333   59002
0137829940999991988012900004-09667-035700FM-12+008999999V0200901N00361220001CN9999999N9+02601+02311101731ADDAA106000091AG10999AY101061AY201061GF104991041011012501001001KA1240M+03201MA1999999100351MD1999999+0081MW1011REMSYN017333   10320 58008
0137829940999991988012912004-09667-035700FM-12+008999999V0200901N00311045001CN0500001N9+02881+02061101441ADDAA106000091AG10999AY111061AY211061GF106991021021017501061001KA1240N+02201MA1999999100431MD1999999+0081MW1031REMSYN017333   20220 58008
0118829940999991988012918004-09667-035700FM-12+008999999V0201401N00411220001CN0500001N9+03001+01971101301ADDAA106000091AG10999AY111061AY211061GF105991021001017501041011MA1999999100301MD1999999-0051MW1021REMSYN011333   59005
0137829940999991988013000004-09667-035700FM-12+008999999V0200901N00151220001CN9999999N9+02561+02021101311ADDAA106000091AG10999AY101061AY201061GF103991031011012501001001KA1240M+03261MA1999999100291MD1999999-0061MW1011REMSYN017333   10326 59006
0118829940999991988013018004-09667-035700FM-12+008999999V0201401N00511220001CN0500001N9+03021+01801101311ADDAA106000091AG10999AY101061AY201061GF104991041011012501001001MA1999999100311MD1999999+0011MW1011REMSYN011333   58001
0137829940999991988013100004-09667-035700FM-12+008999999V0200901N00151220001CN9999999N9+02541+02191101291ADDAA106000091AG10999AY101061AY201061GF104991041001017501041001KA1240M+03321MA1999999100271MD1999999-0021MW1011REMSYN017333   10332 59002
0118829940999991988013118004-09667-035700FM-12+008999999V0200901N00511220001CN0500001N9+03121+01821101191ADDAA106000091AG10999AY101061AY201061GF103991031011017501001001MA1999999100191MD1999999-0101MW1011REMSYN011333   59010
0137829940999991988020100004-09667-035700FM-12+008999999V0200901N00151220001CN9999999N9+02521+02291101241ADDAA106000091AG10999AY101061AY201061GF103991031001017501041001KA1240M+03381MA1999999100221MD1999999-0051MW1011REMSYN017333   10338 59005
0137829940999991988020112004-09667-035700FM-12+008999999V0200901N00211045001CN0500001N9+02821+01971101401ADDAA106000091AG10999AY111061AY211061GF106991021011012501061001KA1240N+02181MA1999999100391MD1999999-0051MW1031REMSYN017333   20218 59005
0118829940999991988020118004-09667-035700FM-12+008999999V0200901N00511012001CN0500001N9+02981+02121101121ADDAA106000091AG10999AY111061AY211061GF105991051021012501001001MA1999999100121MD1999999-0071MW1031REMSYN011333   59007
0137829940999991988020200004-09667-035700FM-12+008999999V0200901N00261220001CN9999999N9+02501+02251101281ADDAA106000091AG10999AY101061AY201061GF103991031021012501001001KA1240M+03261MA1999999100251MD1999999+0031MW1011REMSYN017333   10326 58003
0137829940999991988020212004-09667-035700FM-12+008999999V0201401N00511015001CN0500001N9+02901+02071101341ADDAA106000091AG10999AY111061AY211061GF105991051011017501001001KA1240N+02231MA1999999100331MD1999999-0061MW1021REMSYN017333   20223 59006
0118829940999991988020218004-09667-035700FM-12+008999999V0200901N00511012001CN0500001N9+02931+01891101101ADDAA106000091AG10999AY101061AY211061GF105991051021012501001001MA1999999100101MD1999999-0021MW1011REMSYN011333   59002
0137829940999991988020300004-09667-035700FM-12+008999999V0200901N00311220001CN9999999N9+02561+02291101201ADDAA106000091AG10999AY101061AY201061GF104991041021017501001001KA1240M+03281MA1999999100181MD1999999-0071MW1011REMSYN017333   10328 59007
0137829940999991988020312004-09667-035700FM-12+008999999V0200901N00671045001CN0500001N9+02921+02051101411ADDAA106000091AG10999AY111061AY221061GF106991021021012501061001KA1240N+02221MA1999999100401MD1999999+0071MW1031REMSYN017333   20222 58007
0137829940999991988020400004-09667-035700FM-12+008999999V0200901N00311045001CN9999999N9+02501+02271101201ADDAA106000091AG10999AY111061AY211061GF106991021021017501061001KA1240M+03271MA1999999100181MD1999999+0001MW1021REMSYN017333   10327 58000
0137829940999991988020412004-09667-035700FM-12+008999999V0200901N00511045001CN0500001N9+02921+02171101441ADDAA106000091AG10001AY111061AY211061GF106991021021017501061001KA1240N+02261MA1999999100431MD1999999+0031MW1011REMSYN017333   20226 58003
0118829940999991988020418004-09667-035700FM-12+008999999V0200901N00621045001CN0500001N9+03001+02111101171ADDAA106000091AG10999AY111061AY211061GF106991021011017501061001MA1999999100171MD1999999-0061MW1031REMSYN011333   59006
0137829940999991988020500004-09667-035700FM-12+008999999V0200901N00311045001CN9999999N9+02481+02211101281ADDAA106000091AG10999AY111061AY221061GF106991021031012501041001KA1240M+03261MA1999999100251MD1999999+0071MW1031REMSYN017333   10326 58007
0156829940999991988020512004-09667-035700FM-12+008999999V0200901N04112045001CN0500001N9+02901+02371101461ADDAA106000091AG10999AY111061AY211061GF106991021051017501061001KA1240N+02271MA1999999100951MD1999999+0021MW1021REMSYN017333   20227 58002EQDQ01+004113WOSPD 
0118829940999991988020518004-09667-035700FM-12+008999999V0200501N00461045001CN0500001N9+03081+02161101361ADDAA106000091AG10999AY111061AY211061GF106991041021017501041001MA1999999100361MD1999999+0191MW1031REMSYN011333   58019
0137829940999991988020600004-09667-035700FM-12+008999999V0200901N00361045001CN9999999N9+02531+02151101401ADDAA106000091AG10999AY111061AY221061GF106991021011012501061001KA1240M+03301MA1999999100371MD1999999+0121MW1031REMSYN017333   10330 58012
0137829940999991988020612004-09667-035700FM-12+008999999V0200901N00461045001CN0200001N9+02951+02241101361ADDAA106000091AG10999AY101061AY221061GF106991021031008001041001KA1240N+02021MA1999999100351MD1999999-0101MW1031REMSYN017333   20202 59010
0118829940999991988020618004-09667-035700FM-12+008999999V0200901N00621045001CN0500001N9+03001+02171101291ADDAA106000091AG10999AY111061AY221061GF106991041061017501061001MA1999999100291MD1999999-0071MW1031REMSYN011333   59007
0137829940999991988020700004-09667-035700FM-12+008999999V0200901N00311220001CN9999999N9+02701+02261101391ADDAA106000091AG10999AY101061AY221061GF103991031021008001001001KA1240M+03271MA1999999100371MD1999999+0001MW1031REMSYN017333   10327 58000
0137829940999991988020712004-09667-035700FM-12+008999999V0200901N00511220001CN0500001N9+02951+01951101491ADDAA106000091AG10999AY111061AY211061GF106991031021017501001011KA1240N+02171MA1999999100481MD1999999+0131MW1031REMSYN017333   20217 58013
0137829940999991988020800004-09667-035700FM-12+008999999V0200901N00101045001CN9999999N9+02651+02251101241ADDAA106000091AG10999AY101061AY221061GF106991021031008001041001KA1240M+03261MA1999999100221MD1999999-0151MW1031REMSYN017333   10326 59015
0143829940999991988020812004-09667-035700FM-12+008999999V0201401N00211045001CN0200001N9+02721+02321101481ADDAA124007091AG10001AY191061AY261061GF107991041071012501041001KA1240N+02171MA1999999100471MD1999999-0011MW1031REMSYN023333   20217 59001 60074
0118829940999991988020818004-09667-035700FM-12+008999999V0200901N00571220001CN0500001N9+02971+02101101021ADDAA106000091AG10999AY101061AY201061GF102991021011008001001001MA1999999100021MD1999999-0141MW1011REMSYN011333   59014
0137829940999991988020900004-09667-035700FM-12+008999999V0200901N00151007501CN9999999N9+02651+02271101121ADDAA106000091AG10999AY101061AY221061GF105991051021008001001001KA1240M+03101MA1999999100101MD1999999-0121MW1031REMSYN017333   10310 59012
0143829940999991988020912004-09667-035700FM-12+008999999V0202301N00051045001CN0100001N9+02321+02131101421ADDAA124003091AG10999AY191061AY261061GF108991041071012501021999KA1240N+02151MA1999999100391MD1999999-0081MW1211REMSYN023333   20215 59008 60034
0118829940999991988020918004-09667-035700FM-12+008999999V0200901N00621045001CN0500001N9+02921+02041101221ADDAA106000091AG10999AY111061AY211061GF106991021021017501061001MA1999999100211MD1999999+0211MW1031REMSYN011333   58021
0137829940999991988021000004-09667-035700FM-12+008999999V0200901N00211012001CN9999999N9+02541+02351101201ADDAA106000091AG10999AY111061AY211061GF105991051011012501001001KA1240M+03161MA1999999100181MD1999999+0081MW1011REMSYN017333   10316 58008
0137829940999991988021012004-09667-035700FM-12+008999999V0200901N00311045001CN0500001N9+02951+01851101301ADDAA106000091AG10999AY111061AY221061GF106991041021017501061001KA1240N+02141MA1999999100281MD1999999-0111MW1031REMSYN017333   20214 59011
0118829940999991988021018004-09667-035700FM-12+008999999V0200901N00511015001CN0500001N9+02961+01781101071ADDAA106000091AG10999AY111061AY211061GF105991051011017501001001MA1999999100071MD1999999-0141MW1021REMSYN011333   59014
0137829940999991988021100004-09667-035700FM-12+008999999V0200901N00101012001CN9999999N9+02461+02071101201ADDAA106000091AG10999AY111061AY211061GF105991051021012501001001KA1240M+03181MA1999999100181MD1999999+0001MW1001REMSYN017333   10318 58000
0137829940999991988021112004-09667-035700FM-12+008999999V0200901N00361045001CN0500001N9+02921+01801101351ADDAA106000091AG10999AY111061AY221061GF106991021041017501041001KA1240N+02151MA1999999100341MD1999999+0061MW1031REMSYN017333   20215 58006
0118829940999991988021118004-09667-035700FM-12+008999999V0200901N00621045001CN0500001N9+03001+01841101061ADDAA106000091AG10999AY101061AY211061GF105991021021017501061001MA1999999100061MD1999999-0011MW1011REMSYN011333   59001
0137829940999991988021200004-09667-035700FM-12+008999999V0200901N00261220001CN9999999N9+02481+02211101161ADDAA106000091AG10999AY101061AY201061GF103991031011012501001001KA1240M+03221MA1999999100131MD1999999-0051MW1011REMSYN017333   10322 59005
0096829940999991988021212004-09667-035700FM-12+008999999V0200901N00211220001CN0500001N9+02901+01841101411ADDAA106000091AG10999AY111061AY211061GF105991021011017501001011MA1999999100401MW1011REMSYN003333
0118829940999991988021218004-09667-035700FM-12+008999999V0200901N00361220001CN0500001N9+03101+01801101331ADDAA106000091AG10999AY101061AY201061GF103991031001012501041001MA1999999100331MD1999999+0271MW1011REMSYN011333   58027
0137829940999991988021300004-09667-035700FM-12+008999999V0201401N00101220001CN9999999N9+02541+02021101401ADDAA106000091AG10999AY101061AY201061GF103991031011022501001001KA1240M+03301MA1999999100371MD1999999+0241MW1011REMSYN017333   10330 58024
0137829940999991988021312004-09667-035700FM-12+008999999V0201401N00211045001CN0500001N9+02851+02011101301ADDAA106000091AG10999AY111061AY211061GF105991021011012501061001KA1240N+02201MA1999999100291MD1999999-0111MW1021REMSYN017333   20220 59011
0118829940999991988021318004-09667-035700FM-12+008999999V0201401N00511220001CN0500001N9+03061+01801101221ADDAA106000091AG10001AY101061AY201061GF103991031001017501061001MA1999999100221MD1999999-0111MW1011REMSYN011333   59011
0137829940999991988021400004-09667-035700FM-12+008999999V0201401N00211220001CN9999999N9+02581+02061101281ADDAA106000091AG10999AY101061AY201061GF103991031011012501001001KA1240M+03271MA1999999100261MD1999999-0111MW1011REMSYN017333   10327 59011
0137829940999991988021412004-09667-035700FM-12+008999999V0201401N00361012001CN0500001N9+02951+02001101351ADDAA106000091AG10999AY111061AY211061GF105991051021012501001001KA1240N+02241MA1999999100341MD1999999+0051MW1021REMSYN017333   20224 58005
0118829940999991988021418004-09667-035700FM-12+008999999V0200901N00511012001CN0500001N9+02931+01891101101ADDAA106000091AG10999AY101061AY211061GF105991051021012501001001MA1999999100101MD1999999-0221MW1011REMSYN011333   59022
0137829940999991988021500004-09667-035700FM-12+008999999V0201401N00211220001CN9999999N9+02501+02151101241ADDAA106000091AG10999AY101061AY201061GF103991031011017501001001KA1240M+03251MA1999999100221MD1999999-0041MW1011REMSYN017333   10325 59004
0137829940999991988021512004-09667-035700FM-12+008999999V0200901N00151045001CN0500001N9+02881+02001101321ADDAA106000091AG10999AY111061AY221061GF106991021021012501041001KA1240N+02261MA1999999100311MD1999999-0031MW1031REMSYN017333   20226 59003
0118829940999991988021518004-09667-035700FM-12+008999999V0200901N00511220001CN0500001N9+03001+01811101231ADDAA106000091AG10999AY101061AY201061GF102991021011017501001001MA1999999100221MD1999999+0121MW1011REMSYN011333   58012
0137829940999991988021600004-09667-035700FM-12+008999999V0200901N00151045001CN9999999N9+02451+02171101181ADDAA106000091AG10999AY111061AY211061GF105991021021017501061001KA1240M+03241MA1999999100151MD1999999-0071MW1031REMSYN017333   10324 59007
0137829940999991988021612004-09667-035700FM-12+008999999V0201401N00311012001CN0500001N9+02921+01831101211ADDAA106000091AG10999AY111061AY211061GF105991051011012501001001KA1240N+02221MA1999999100281MD1999999-0111MW1021REMSYN017333   20222 59011
0118829940999991988021618004-09667-035700FM-12+008999999V0201401N00461015001CN0500001N9+03061+01771101081ADDAA106000091AG10999AY101061AY211061GF105991051021017501001001MA1999999100081MD1999999-0141MW1011REMSYN011333   59014
0137829940999991988021700004-09667-035700FM-12+008999999V0201401N002619999999N9999999N9+02441+02191101201ADDAA106000091AG10999AY111061AY211061GF105991021001012501041041KA1240M+03261MA1999999100171MD1999999+0021MW1021REMSYN017333   10326 58002
0137829940999991988021712004-09667-035700FM-12+008999999V0201401N00311045001CN0500001N9+02901+01961101291ADDAA106000091AG10999AY111061AY211061GF106991021021017501041001KA1240N+02221MA1999999100281MD1999999+0081MW1031REMSYN017333   20222 58008
0118829940999991988021718004-09667-035700FM-12+008999999V0201401N00511045001CN0500001N9+03001+01841101031ADDAA106000091AG10999AY111061AY211061GF106991021011012501041001MA1999999100031MD1999999-0051MW1021REMSYN011333   59005
0137829940999991988021800004-09667-035700FM-12+008999999V0201401N00151220001CN9999999N9+02451+02091101161ADDAA106000091AG10999AY101061AY201061GF103991031011012501001001KA1240M+03221MA1999999100131MD1999999-0041MW1011REMSYN017333   10322 59004
0143829940999991988021812004-09667-035700FM-12+008999999V0201401N00261045001CN0500001N9+02901+02151101201ADDAA124999929AG10999AY191061AY261061GF106991021031017501041001KA1240N+02271MA1999999100191MD1999999-0091MW1031REMSYN023333   20227 59009 69904
0118829940999991988021818004-09667-035700FM-12+008999999V0201401N00671045001CN0500001N9+03021+02071101051ADDAA106000091AG10999AY111061AY211061GF106991021021017501061001MA1999999100051MD1999999+0021MW1021REMSYN011333   58002
0137829940999991988021900004-09667-035700FM-12+008999999V0200901N003119999999N9999999N9+02401+02091101211ADDAA106000091AG10999AY111061AY211061GF105991021001012501041041KA1240M+03251MA1999999100181MD1999999+0051MW1021REMSYN017333   10325 58005
0154829940999991988021912004-09667-035700FM-12+008999999V0201401N00621045001CN0500001N9+02971+02071101391ADDAA124000691AA299000591AG10999AY191061AY261061GF106991021031012501061001KA1240N+02251MA1999999100381MD1999999+0191MW1031REMSYN023333   20225 58019 69964
0118829940999991988021918004-09667-035700FM-12+008999999V0201401N005119999999N0500001N9+03121+02111101211ADDAA106000091AG10999AY111061AY211061GF106991021001012501041011MA1999999100211MD1999999+0161MW1021REMSYN011333   58016
0137829940999991988022000004-09667-035700FM-12+008999999V0200901N00311045001CN9999999N9+02441+02111101241ADDAA106000091AG10999AY111061AY211061GF105991021031012501041001KA1240M+03281MA1999999100211MD1999999+0031MW1031REMSYN017333   10328 58003
0143829940999991988022012004-09667-035700FM-12+008999999V0201401N00311045001CN0500001N9+02801+02271101361ADDAA124003091AG10999AY191061AY261061GF106991041031012501061001KA1240N+02201MA1999999100351MD1999999-0051MW1031REMSYN023333   20220 59005 60034
0124829940999991988022018004-09667-035700FM-12+008999999V0200901N00511045001CN0500001N9+02941+01911101331ADDAA124999929AG10999AY191061AY261061GF106991021031017501041001MA1999999100331MD1999999+0121MW1031REMSYN017333   58012 69904
0137829940999991988022100004-09667-035700FM-12+008999999V0200901N00211045001CN9999999N9+02421+02231101231ADDAA106000091AG10999AY111061AY211061GF106991021031012501041001KA1240M+03121MA1999999100201MD1999999-0011MW1031REMSYN017333   10312 59001
0143829940999991988022112004-09667-035700FM-12+008999999V0201401N00311045001CN0500001N9+02791+01911101451ADDAA124999929AG10999AY121061AY221061GF106991021021017501061001KA1240N+02241MA1999999100441MD1999999+0091MW1031REMSYN023333   20224 58009 69904
0118829940999991988022118004-09667-035700FM-12+008999999V0200901N00461220001CN0500001N9+03041+01851101431ADDAA106000091AG10999AY101061AY201061GF103991031011012501001001MA1999999100431MD1999999+0101MW1011REMSYN011333   58010
0137829940999991988022200004-09667-035700FM-12+008999999V0201401N00151220001CN9999999N9+02381+02111101371ADDAA106000091AG10999AY101061AY201061GF103991031021017501001001KA1240M+03241MA1999999100341MD1999999+0141MW1011REMSYN017333   10324 58014
0126829940999991988022212004-09667-035700FM-12+008999999V0202301N00151045001CN0200001N9+02901+02201101341ADDAG10999AY111061AY221061GF107991041031012501061001KA1240N+02231MA1999999100331MD1999999-0111MW1031REMSYN017333   20223 59011
0118829940999991988022218004-09667-035700FM-12+008999999V0200901N00571045001CN0500001N9+02971+02011101131ADDAA106000091AG10999AY111061AY211061GF107991021021012501061001MA1999999100131MD1999999-0301MW1031REMSYN011333   59030
0137829940999991988022300004-09667-035700FM-12+008999999V0201401N00311220001CN9999999N9+02401+02091101191ADDAA106000091AG10999AY111061AY221061GF100991001001999999001001KA1240M+03251MA1999999100761MD1999999-0181MW1021REMSYN017333   10325 59018
0137829940999991988022312004-09667-035700FM-12+008999999V0209999999999045001CN0500001N9+02881+02001101201ADDAA106000091AG10999AY111061AY211061GF105991021021017501041001KA1240N+02261MA1999999100191MD1999999-0141MW1031REMSYN017333   20226 59014
0118829940999991988022318004-09667-035700FM-12+008999999V0201401N00621220001CN0500001N9+03051+01911100931ADDAA106000091AG10999AY101061AY201061GF104991041021017501001001MA1999999099931MD1999999-0201MW1011REMSYN011333   59020
0137829940999991988022400004-09667-035700FM-12+008999999V0201401N00211045001CN9999999N9+02371+02091101051ADDAA106000091AG10999AY111061AY221061GF105991021011012501041001KA1240M+03241MA1999999100021MD1999999-0141MW1021REMSYN017333   10324 59014
0143829940999991988022412004-09667-035700FM-12+008999999V0200901N00361045001CN0200001N9+02901+02171101121ADDAA124004091AG10999AY191061AY261061GF107991041091012501041001KA1240N+02201MA1999999100111MD1999999-0081MW1031REMSYN023333   20220 59008 60044
0135829940999991988022418004-09667-035700FM-12+008999999V0200501N00311045001CN0100001N9+02821+02201100961ADDAA106000491AA299000591AG10999AY191061AY261061GF108991041071012501041999MA1999999099961MD1999999+0031MW1031REMSYN017333   58003 69941
0143829940999991988022500004-09667-035700FM-12+008999999V0200901N00151045001CN9999999N9+02341+02271101021ADDAA106004091AG10999AY191061AY261061GF108991041071012501021999KA1240M+03071MA1999999099991MD1999999-0031MW1031REMSYN023333   10307 59003 60041
0143829940999991988022512004-09667-035700FM-12+008999999V0201401N00051045001CN0100001N9+02551+02331101831ADDAA124005091AG10999AY191061AY261061GF108991041071012501021999KA1240N+02221MA1999999100021MD1999999-0091MW1031REMSYN023333   20222 59009 60054
0124829940999991988022518004-09667-035700FM-12+008999999V0201401N00211045001CN0100001N9+02561+02091101201ADDAA106035091AG10999AY191061AY261061GF108991041071012501041999MA1999999100181MD1999999+0221MW1031REMSYN017333   58022 60351
0143829940999991988022600004-09667-035700FM-12+008999999V0200901N00101045001CN9999999N9+02461+02371100961ADDAA106999929AG10999AY191061AY261061GF106991041031012501041001KA1240M+02771MA1999999099941MD1999999-0051MW1031REMSYN023333   10277 59005 69901
0143829940999991988022612004-09667-035700FM-12+008999999V0200901N00361045001CN0200001N9+02841+02351101051ADDAA124035091AG10999AY191061AY261061GF106991031041012501041001KA1240N+02241MA1999999100041MD1999999+0021MW1031REMSYN023333   20224 58002 60354
0137829940999991988022700004-09667-035700FM-12+008999999V0200901N00151045001CN9999999N9+02671+02351101081ADDAA106000091AG10999AY101061AY221061GF106991031031008001041001KA1240M+03101MA1999999100061MD1999999+0121MW1031REMSYN017333   10310 58012
0143829940999991988022712004-09667-035700FM-12+008999999V0200901N00361045001CN0500001N9+02851+02221101101ADDAA124002091AG10999AY191061AY261061GF106991021031012501041001KA1240N+02301MA1999999100091MD1999999+0051MW1031REMSYN023333   20230 58005 60024
0118829940999991988022718004-09667-035700FM-12+008999999V0200901N00151045001CN0500001N9+03021+02101100821ADDAA106000091AG10999AY101061AY221061GF106991031041008001041001MA1999999099821MD1999999-0281MW1031REMSYN011333   59028
0137829940999991988022800004-09667-035700FM-12+008999999V0200901N00101045001CN9999999N9+02631+02291101141ADDAA106000091AG10999AY101061AY221061GF105991021021008001041001KA1240M+03101MA1999999100121MD1999999+0061MW1031REMSYN017333   10310 58006
0143829940999991988022812004-09667-035700FM-12+008999999V0201401N00311045001CN0100001N9+02761+02361101031ADDAA124999929AG10001AY191061AY261061GF108991041071012501021999KA1240N+02201MA1999999100021MD1999999-0071MW1031REMSYN023333   20220 59007 69904
0135829940999991988022818004-09667-035700FM-12+008999999V0200901N00151045001CN0500001N9+02901+02251101011ADDAA106000791AA299001091AG10999AY101061AY221061GF106991031031012501041001MA1999999100051MD1999999+0231MW1031REMSYN017333   58023 69971
0137829940999991988022900004-09667-035700FM-12+008999999V0200901N00151012001CN9999999N9+02551+02331101151ADDAA106000091AG10999AY101061AY221061GF105991051021012501001001KA1240M+03101MA1999999100131MD1999999+0011MW1031REMSYN017333   10310 58001
0154829940999991988022912004-09667-035700FM-12+008999999V0200901N00261045001CN0500001N9+02951+02211101111ADDAA124000891AA299001091AG10999AY191061AY261061GF106991031031012501041001KA1240N+02301MA1999999100101MD1999999+0081MW1031REMSYN023333   20230 58008 69984
0118829940999991988022918004-09667-035700FM-12+008999999V0200901N00411220001CN0500001N9+03051+02151101031ADDAA106000091AG10999AY101061AY201061GF103991031021008001001001MA1999999100031MD1999999-0021MW1011REMSYN011333   59002
0137829940999991988030100004-09667-035700FM-12+008999999V0200901N00151045001CN9999999N9+02671+02271101221ADDAA106000091AG10999AY101061AY221061GF106991031021008001041001KA1240M+03141MA1999999100201MD1999999+0071MW1031REMSYN017333   10314 58007
0137829940999991988030112004-09667-035700FM-12+008999999V0200901N00151045001CN0200001N9+02871+02331101281ADDAA106000091AG10999AY101061AY221061GF106991031041008001041001KA1240N+02301MA1999999100271MD1999999+0171MW1031REMSYN017333   20230 58017
0118829940999991988030118004-09667-035700FM-12+008999999V0200901N00511045001CN0500001N9+02941+02141101091ADDAA106000091AG10999AY111061AY221061GF106991041031012501041001MA1999999100091MD1999999+0061MW1031REMSYN011333   58006
0137829940999991988030200004-09667-035700FM-12+008999999V0200901N001519999999N9999999N9+02521+02271101141ADDAA106000091AG10999AY111061AY281061GF106991021001012501041041KA1240M+03181MA1999999100221MD1999999+0021MW1031REMSYN017333   10318 58002
0137829940999991988030212004-09667-035700FM-12+008999999V0200901N00211045001CN0500001N9+02881+02301101341ADDAA106000091AG10999AY111061AY211061GF106991021021017501061001KA1240N+02241MA1999999100331MD1999999+0061MW1031REMSYN017333   20224 58006
0118829940999991988030218004-09667-035700FM-12+008999999V0200901N00461220001CN0500001N9+02921+01861101241ADDAA106000091AG10999AY101061AY201061GF104991041021017501001001MA1999999100231MD1999999+0141MW1011REMSYN011333   58014
0137829940999991988030300004-09667-035700FM-12+008999999V0200901N00151220001CN9999999N9+02561+02291101221ADDAA106000091AG10999AY101061AY201061GF103991031011012501001001KA1240M+03271MA1999999100201MD1999999-0021MW1011REMSYN017333   10327 59002
0137829940999991988030312004-09667-035700FM-12+008999999V0200501N00311045001CN0500001N9+02781+02131101341ADDAA106000091AG10999AY111061AY211061GF106991021011012501061001KA1240N+02271MA1999999100331MD1999999+0001MW1031REMSYN017333   20227 58000
0118829940999991988030318004-09667-035700FM-12+008999999V0200901N00511220001CN0500001N9+03051+02151101131ADDAA106000091AG10999AY101061AY201061GF103991031011017501001001MA1999999100131MD1999999-0101MW1011REMSYN011333   59010
0137829940999991988030400004-09667-035700FM-12+008999999V0200901N00311220001CN9999999N9+02601+02311101341ADDAA106000091AG10001AY101061AY201061GF104991041011012501001001KA1240M+03241MA1999999100321MD1999999+0121MW1011REMSYN017333   10324 58012
0137829940999991988030412004-09667-035700FM-12+008999999V0200901N00461045001CN0200001N9+02841+02241101251ADDAA106000091AG10999AY121061AY221061GF107991021041017501061001KA1240N+02251MA1999999100241MD1999999-0091MW1031REMSYN017333   20225 59009
0118829940999991988030418004-09667-035700FM-12+008999999V0200901N00621220001CN0500001N9+03121+02221101021ADDAA106000091AG10999AY101061AY201061GF103991031001012501041001MA1999999100021MD1999999-0141MW1011REMSYN011333   59014
0137829940999991988030500004-09667-035700FM-12+008999999V0200901N00311220001CN9999999N9+02521+02191101061ADDAA106000091AG10999AY101061AY201061GF103991031001012501041001KA1240M+03301MA1999999100041MD1999999-0281MW1011REMSYN017333   10330 59028
0137829940999991988030512004-09667-035700FM-12+008999999V0201401N00411045001CN0500001N9+02961+02021101291ADDAA106000091AG10999AY111061AY221061GF106991021011012501041001KA1240N+02231MA1999999100281MD1999999+0041MW1031REMSYN017333   20223 58004
0118829940999991988030518004-09667-035700FM-12+008999999V0200501N00671220001CN0500001N9+03141+02071100921ADDAA106000091AG10999AY101061AY201061GF103991031001022501041001MA1999999099931MD1999999-0091MW1011REMSYN011333   59009
0137829940999991988030600004-09667-035700FM-12+008999999V0200501N00311220001CN9999999N9+02481+02171101101ADDAA106000091AG10999AY101061AY201061GF103991031021012501001001KA1240M+03341MA1999999100081MD1999999+0041MW1011REMSYN017333   10334 58004
0137829940999991988030612004-09667-035700FM-12+008999999V0200501N00311045001CN0500001N9+02921+02141101391ADDAA106000091AG10999AY101061AY201061GF105991021011017501061001KA1240N+02271MA1999999100381MD1999999+0101MW1011REMSYN017333   20227 58010
0118829940999991988030618004-09667-035700FM-12+008999999V0200901N00511220001CN0500001N9+03071+02111101291ADDAA106000091AG10999AY101061AY201061GF104991021041012501041001MA1999999100291MD1999999+0361MW1011REMSYN011333   58036
0137829940999991988030700004-09667-035700FM-12+008999999V0200501N00211220001CN9999999N9+02681+02351101241ADDAA106000091AG10999AY101061AY201061GF102991021021004501001001KA1240M+03301MA1999999100221MD1999999+0141MW1011REMSYN017333   10330 58014
0137829940999991988030712004-09667-035700FM-12+008999999V0200901N00311220001CN0500001N9+03021+02261101251ADDAA106000091AG10999AY101061AY221061GF104991041021008001001001KA1240N+02301MA1999999100241MD1999999-0141MW1031REMSYN017333   20230 59014
0118829940999991988030718004-09667-035700FM-12+008999999V0200901N00411220001CN0500001N9+03101+02231100971ADDAA106000091AG10999AY101061AY201061GF102991021011008001001001MA1999999099971MD1999999-0321MW1011REMSYN011333   59032
0137829940999991988030800004-09667-035700FM-12+008999999V0200901N00311007501CN9999999N9+02701+02261101231ADDAA106000091AG10999AY101061AY221061GF105991051021008001001001KA1240M+03241MA1999999100221MD1999999+0001MW1031REMSYN017333   10324 58000
0137829940999991988030812004-09667-035700FM-12+008999999V0200901N00411220001CN0500001N9+03001+02271101121ADDAA106000091AG10999AY101061AY201061GF103991031011008001001001KA1240N+02381MA1999999100121MD1999999-0121MW1011REMSYN017333   20238 59012
0118829940999991988030818004-09667-035700FM-12+008999999V0200901N00511220001CN0500001N9+03101+02341100731ADDAA106000091AG10999AY101061AY201061GF104991041011008001001001MA1999999099741MD1999999-0231MW1011REMSYN011333   59023
0137829940999991988030900004-09667-035700FM-12+008999999V0200901N00311045001CN9999999N9+02721+02411101031ADDAA106000091AG10999AY121061AY221061GF106991021011004501011001KA1240M+03441MA1999999100031MD1999999-0201MW1031REMSYN017333   10344 59020
0137829940999991988030912004-09667-035700FM-12+008999999V0201401N00151045001CN0500001N9+03051+02311100951ADDAA106000091AG10999AY121061AY221061GF106991021031012501061001KA1240N+02541MA1999999099951MD1999999+0211MW1011REMSYN017333   20254 58021
0124829940999991988030918004-09667-035700FM-12+008999999V0200901N00311045001CN0200001N9+02761+02541100911ADDAA106002091AG10999AY191061AY261061GF107991041071012501021001MA1999999099911MD1999999+0171MW1211REMSYN017333   58017 60021
0143829940999991988031000004-09667-035700FM-12+008999999V0202701N00101045001CN9999999N9+02501+02341101131ADDAA106000191AG10999AY191061AY261061GF108991021071004501021999KA1240M+02501MA1999999100111MD1999999+0091MW1291REMSYN023333   10250 58009 69911
0143829940999991988031012004-09667-035700FM-12+008999999V0202301N00101045001CN0500001N9+02881+02101101191ADDAA124003091AG10999AY191061AY261061GF106991021021012501061001KA1240N+02221MA1999999100181MD1999999+0231MW1031REMSYN023333   20222 58023 60034
0118829940999991988031018004-09667-035700FM-12+008999999V0200901N00461220001CN0500001N9+03151+02181100991ADDAA106000091AG10999AY101061AY201061GF103991031011012501001001MA1999999099991MD1999999+0081MW1011REMSYN011333   58008
0123829940999991988031100004-09667-035700FM-12+008999999V0200901N00151220001CN9999999N9+02731+02431101211ADDAA106000091AG10999AY101061AY201061GF103991031021008001001001KA1240M+03321MA1999999100191MW1011REMSYN017333   10332 5/008
0137829940999991988031112004-09667-035700FM-12+008999999V0200901N00311045001CN0500001N9+03061+02251101221ADDAA106000091AG10999AY121061AY221061GF107991021011004501061041KA1240N+02361MA1999999100211MD1999999+0031MW1031REMSYN017333   20236 58003
0118829940999991988031118004-09667-035700FM-12+008999999V0201401N00311045001CN0100001N9+03051+02231101051ADDAA106000091AG10999AY121061AY221061GF108991041071017501041999MA1999999100051MD1999999+0061MW1151REMSYN011333   58006
0154829940999991988031200004-09667-035700FM-12+008999999V0202301N00151045001CN9999999N9+02501+02411101371ADDAA106000491AA299000591AG10999AY191061AY261061GF107991041071012501041001KA1240M+03281MA1999999100351MD1999999+0161MW1031REMSYN023333   10328 58016 69941
0154829940999991988031212004-09667-035700FM-12+008999999V0202301N00151045001CN0500001N9+02781+02011101351ADDAA124000491AA299000591AG10999AY121061AY221061GF106991021031012501061001KA1240N+02261MA1999999100341MD1999999+0131MW1031REMSYN023333   20226 58013 69944
0118829940999991988031218004-09667-035700FM-12+008999999V0201401N00461045001CN0500001N9+03021+02241101201ADDAA106000091AG10999AY111061AY211061GF106991021021012501061001MA1999999100201MD1999999+0151MW1031REMSYN011333   58015
0137829940999991988031300004-09667-035700FM-12+008999999V0201401N00211045001CN9999999N9+02571+02331101191ADDAA106000091AG10999AY111061AY211061GF106991021021017501061001KA1240M+03271MA1999999100171MD1999999-0181MW1031REMSYN017333   10327 59018
0137829940999991988031312004-09667-035700FM-12+008999999V0201801N00211220001CN0500001N9+02901+02251101181ADDAA106000091AG10999AY101061AY201061GF104991041011012501001001KA1240N+02281MA1999999100171MD1999999+0171MW1011REMSYN017333   20228 58017
0118829940999991988031318004-09667-035700FM-12+008999999V0201401N00511220001CN0500001N9+03051+01971100931ADDAA106000091AG10999AY101061AY201061GF104991041021017501001001MA1999999099931MD1999999-0271MW1011REMSYN011333   59027
0137829940999991988031400004-09667-035700FM-12+008999999V0201401N00311045001CN9999999N9+02581+02371101051ADDAA106000091AG10999AY111061AY211061GF105991021011012501061001KA1240M+03261MA1999999100031MD1999999+0141MW1031REMSYN017333   10326 58014
0137829940999991988031412004-09667-035700FM-12+008999999V0200901N00151045001CN0200001N9+02881+02321101121ADDAA106000091AG10999AY101061AY221061GF106991021041008001041001KA1240N+02361MA1999999100111MD1999999-0061MW1031REMSYN017333   20236 59006
0124829940999991988031418004-09667-035700FM-12+008999999V0200901N00261045001CN0200001N9+02841+02351100801ADDAA106002091AG10999AY191061AY261061GF106991021021008001041001MA1999999099801MD1999999-0131MW1031REMSYN017333   59013 60021
0137829940999991988031500004-09667-035700FM-12+008999999V0202701N00101220001CN9999999N9+02551+02331101121ADDAA106000091AG10999AY101061AY201061GF103991031021008001001001KA1240M+03001MA1999999100101MD1999999+0071MW1011REMSYN017333   10300 58007
0143829940999991988031512004-09667-035700FM-12+008999999V0200901N00151045001CN0100001N9+02901+02321101191ADDAA124002091AG10999AY191061AY261061GF106991031041008001041001KA1240N+02361MA1999999100181MD1999999+0071MW1031REMSYN023333   20236 58007 60024
0124829940999991988031518004-09667-035700FM-12+008999999V0200901N00261045001CN0200001N9+03071+02221100931ADDAA106001091AG10999AY191061AY261061GF106991031031008001041001MA1999999099931MD1999999+0131MW1031REMSYN017333   58013 60011
0143829940999991988031600004-09667-035700FM-12+008999999V0200901N00051220001CN9999999N9+02581+02401101421ADDAA106001091AG10999AY121061AY221061GF103991021071004501021001KA1240M+03201MA1999999100221MD1999999+0121MW1211REMSYN023333   10320 58012 60011
0143829940999991988031612004-09667-035700FM-12+008999999V0201401N00411045001CN0500001N9+02881+02301101351ADDAA124022091AG10999AY191061AY261061GF106991041021008001061041KA1240N+02321MA1999999100341MD1999999+0161MW1031REMSYN023333   20232 58016 60224
0118829940999991988031618004-09667-035700FM-12+008999999V0200901N00461045001CN0500001N9+03021+02071101201ADDAA106000091AG10999AY111061AY211061GF105991021011012501061001MA1999999100201MD1999999+0271MW1011REMSYN011333   58027
0137829940999991988031700004-09667-035700FM-12+008999999V0200901N00051220001CN9999999N9+02651+02391101341ADDAA106000091AG10999AY101061AY201061GF102991021021004501001001KA1240M+03261MA1999999100321MD1999999+0101MW1031REMSYN017333   10326 58010
0137829940999991988031712004-09667-035700FM-12+008999999V0200901N00411007501CN0500001N9+02651+02391101371ADDAA106000091AG10999AY121061AY221061GF106991061091008001021001KA1240N+02321MA1999999100361MD1999999+0021MW1161REMSYN017333   20232 58002
0118829940999991988031718004-09667-035700FM-12+008999999V0200901N00361045001CN0200001N9+02801+02201101121ADDAA106000091AG10999AY121061AY221061GF107991041071017501061001MA1999999100111MD1999999-0091MW1031REMSYN011333   59009
0137829940999991988031800004-09667-035700FM-12+008999999V0200901N00101007501CN9999999N9+02601+02141101401ADDAA106000091AG10999AY101061AY221061GF105991051021008001001001KA1240M+03061MA1999999100381MD1999999+0061MW1031REMSYN017333   10306 58006
0143829940999991988031812004-09667-035700FM-12+008999999V0201401N00151045001CN0200001N9+02651+02391101571ADDAA124005091AG10999AY191061AY261061GF107991041071012501041001KA1240N+02241MA1999999100551MD1999999+0191MW1031REMSYN023333   20224 58019 60054
0137829940999991988031818004-09667-035700FM-12+008999999V0200901N00411220001CN0500001N9+02961+01841101331ADDAA106000091AG10999AY101061AY201061GF104991999011012501001001MA1999999100321MD1999999+0211MW1011REMSYN011333   58021EQDQ01+000032SCOTLC
0137829940999991988031900004-09667-035700FM-12+008999999V0200901N001519999999N9999999N9+02561+02441101281ADDAA106000091AG10999AY111061AY211061GF105991021001012501061011KA1240M+03101MA1999999100261MD1999999-0121MW1031REMSYN017333   10310 59012
0137829940999991988031912004-09667-035700FM-12+008999999V0200901N00151220001CN0500001N9+02901+02371101411ADDAA106000091AG10999AY101061AY201061GF103991031021008001001001KA1240N+02361MA1999999100391MD1999999-0161MW1011REMSYN017333   20236 59016
0118829940999991988031918004-09667-035700FM-12+008999999V0200901N00461220001CN0500001N9+03101+02231101071ADDAA106000091AG10999AY101061AY201061GF103991031021008001001001MA1999999100071MD1999999-0251MW1011REMSYN011333   59025
0115829940999991988032000004-09667-035700FM-12+008999999V0200901N00151220001CN9999999N9+02601+02311101381ADDAA106000091AG10999GF102991021011008001001001KA1240M+03241MA1999999100361MD1999999+0101REMSYN017333   10324 58010
0137829940999991988032012004-09667-035700FM-12+008999999V0202701N00151220001CN0500001N9+02981+02251101291ADDAA106000091AG10999AY101061AY201061GF102991021011008001001001KA1240N+02401MA1999999100281MD1999999-0101MW1011REMSYN017333   20240 59010
0096829940999991988032018004-09667-035700FM-12+008999999V0200901N00211220001CN0500001N9+03201+02331100981ADDAA106000091AG10999GF103991031021012501001001MA1999999099981MD1999999-0091REMSYN011333   59009
0137829940999991988032100004-09667-035700FM-12+008999999V0200901N00151220001CN9999999N9+02801+02291101141ADDAA106000091AG10999AY101061AY211061GF103991031021008001001001KA1240M+03501MA1999999100131MD1999999-0231MW1031REMSYN017333   10350 59023
0137829940999991988032112004-09667-035700FM-12+008999999V0202701N00151045001CN0200001N9+02871+02331101351ADDAA106000091AG10999AY101061AY221061GF106991031051008001041001KA1240N+02341MA1999999100341MD1999999+0061MW1031REMSYN017333   20234 58006
0137829940999991988032200004-09667-035700FM-12+008999999V0200901N00151220001CN9999999N9+02701+02261101301ADDAA106000091AG10999AY101061AY201061GF103991031011008001001001KA1240M+03101MA1999999100291MD1999999+0131MW1011REMSYN017333   10310 58013
0137829940999991988032212004-09667-035700FM-12+008999999V0202301N00101007501CN0500001N9+02801+02271101261ADDAA106000091AG10999AY101061AY221061GF105991051021008001001001KA1240N+02331MA1999999100251MD1999999-0091MW1031REMSYN017333   20233 59009
0118829940999991988032218004-09667-035700FM-12+008999999V0201401N00261220001CN0500001N9+03051+02231101011ADDAA106000091AG10999AY101061AY201061GF103991031011008001001001MA1999999100011MD1999999+0001MW1011REMSYN011333   58000
0137829940999991988032300004-09667-035700FM-12+008999999V0202301N00051045001CN9999999N9+02711+02371101161ADDAA106000091AG10999AY121061AY221061GF106991021071004501021001KA1240M+03181MA1999999100151MD1999999-0141MW1031REMSYN017333   10318 59014
0154829940999991988032312004-09667-035700FM-12+008999999V0203201N00101007501CN0500001N9+02921+02471101201ADDAA124000291AA299000391AG10999AY191061AY261061GF105991051021008001001001KA1240N+02421MA1999999100191MD1999999-0061MW1031REMSYN023333   20242 59006 69924
0118829940999991988032318004-09667-035700FM-12+008999999V0201401N00571220001CN0500001N9+03101+02201101031ADDAA106000091AG10999AY101061AY201061GF103991031011012501001001MA1999999100031MD1999999+0021MW1011REMSYN011333   58002
0137829940999991988032400004-09667-035700FM-12+008999999V0201401N00151220001CN9999999N9+02731+02341101251ADDAA106000091AG10999AY101061AY201061GF102991021021008001011001KA1240M+03171MA1999999100231MD1999999+0081MW1011REMSYN017333   10317 58008
0143829940999991988032412004-09667-035700FM-12+008999999V0201401N00361012001CN0500001N9+02831+02381101261ADDAA124004091AG10999AY191061AY261061GF106991061021012501061001KA1240N+02401MA1999999100251MD1999999+0061MW1031REMSYN023333   20240 58006 60044
0118829940999991988032418004-09667-035700FM-12+008999999V0201401N00461220001CN0500001N9+03001+02271101001ADDAA106000091AG10999AY101061AY201061GF103991031011012501001001MA1999999100001MD1999999-0031MW1011REMSYN011333   59003
0137829940999991988032500004-09667-035700FM-12+008999999V0200901N00051220001CN9999999N9+02701+02351101321ADDAA106000091AG10999AY101061AY221061GF103991031011008001001001KA1240M+03101MA1999999100301MD1999999+0071MW1031REMSYN017333   10310 58007
0137829940999991988032512004-09667-035700FM-12+008999999V0201801N00311045001CN0500001N9+02901+01061101251ADDAA106000091AG10999AY101061AY201061GF105991021011012501041001KA1240N+02301MA1999999100241MD1999999-0011MW1011REMSYN017333   20230 59001
0118829940999991988032518004-09667-035700FM-12+008999999V0201401N00411015001CN0500001N9+02051+02031100961ADDAA106000091AG10999AY111061AY211061GF105991051021017501001001MA1999999099961MD1999999-0041MW1021REMSYN011333   59004
0137829940999991988032600004-09667-035700FM-12+008999999V0201401N00211220001CN9999999N9+02661+02291101271ADDAA106000091AG10999AY101061AY201061GF103991031001017501041001KA1240M+03271MA1999999100251MD1999999-0051MW1011REMSYN017333   10327 59005
0143829940999991988032612004-09667-035700FM-12+008999999V0202301N00151007501CN0100001N9+02821+02481101231ADDAA124005091AG10999AY191061AY261061GF107991051091008001021001KA1240N+02321MA1999999100221MD1999999-0021MW1031REMSYN023333   20232 59002 60054
0124829940999991988032618004-09667-035700FM-12+008999999V0200901N00211045001CN0020001N9+02641+02441101071ADDAA106005091AG10999AY191061AY261061GF108991031071004501021999MA1999999100061MD1999999+0101MW1611REMSYN017333   58010 60051
0137829940999991988032700004-09667-035700FM-12+008999999V0201401N00151045001CN9999999N9+02671+02311101261ADDAA106000091AG10999AY121061AY221061GF106991021021004501011001KA1240M+02871MA1999999100241MD1999999-0011MW1011REMSYN017333   10287 59001
0143829940999991988032712004-09667-035700FM-12+008999999V0201401N00461045001CN0200001N9+02911+02301101251ADDAA124007091AG10999AY191061AY261061GF106991031031017501071001KA1240N+02441MA1999999100241MD1999999+0021MW1011REMSYN023333   20244 58002 60074
0118829940999991988032718004-09667-035700FM-12+008999999V0200901N00511105001CN0500001N9+02961+02151101011ADDAA106000091AG10999AY121061AY221061GF105991021021012501061041MA1999999100001MD1999999-0061MW1011REMSYN011333   59006
0143829940999991988032800004-09667-035700FM-12+008999999V0201401N00211045001CN9999999N9+02591+02271101251ADDAA106003091AG10999AY191061AY261061GF106991021091008001011001KA1240M+03051MA1999999100231MD1999999-0011MW1031REMSYN023333   10305 59001 60031
0143829940999991988032812004-09667-035700FM-12+008999999V0200901N00151045001CN0500001N9+02801+02401101191ADDAA124016091AG10999AY191061AY261061GF106991031021008001041001KA1240N+02301MA1999999100181MD1999999-0061MW1031REMSYN023333   20230 59006 60164
0118829940999991988032818004-09667-035700FM-12+008999999V0200901N00411045001CN0500001N9+02851+02141100941ADDAA106000091AG10999AY101061AY221061GF106991031031008001041001MA1999999099931MD1999999-0071MW1031REMSYN011333   59007
0143829940999991988032912004-09667-035700FM-12+008999999V0200901N00151045001CN0200001N9+02821+02311101171ADDAA124016091AG10999AY191061AY261061GF106991021021008001041001KA1240N+02361MA1999999100161MD1999999-0021MW1031REMSYN023333   20236 59002 60164
0153829940999991988032918004-09667-035700FM-12+008999999V0200901N00411220001CN0500001N9+02901+02151100951ADDAA106000091AG10999AY101061AY221061GF103991031011008001001001MA1999999099941MD1999999+0011MW1031REMSYN011333   58001EQDQ01+099043APOSP Q02+999990APOSP 
0137829940999991988033000004-09667-035700FM-12+008999999V0209991C00001105001CN9999999N9+02611+02441101131ADDAA106000091AG10999AY121061AY221061GF107991021091004501001071KA1240M+03021MA1999999100111MD1999999+0011MW1031REMSYN017333   10302 58001
0154829940999991988033012004-09667-035700FM-12+008999999V0201401N00311007501CN0040001N9+02801+02291101191ADDAA124000891AA299001091AG10999AY191061AY261061GF107991061091008001021041KA1240N+02321MA1999999100181MD1999999+0021MW1031REMSYN023333   20232 58002 69984
0118829940999991988033018004-09667-035700FM-12+008999999V0201401N00361220001CN0500001N9+02941+02001100991ADDAA106000091AG10999AY111061AY211061GF105991021011012501001011MA1999999099941MD1999999-0051MW1031REMSYN011333   59005
0137829940999991988033100004-09667-035700FM-12+008999999V0200501N00051220001CN9999999N9+02551+02441101091ADDAA106000091AG10999AY101061AY201061GF104991031091008001061001KA1240M+02961MA1999999100071MD1999999-0041MW1031REMSYN017333   10296 59004
0154829940999991988033112004-09667-035700FM-12+008999999V0200501N00261045001CN0500001N9+02871+02371101201ADDAA106000491AA299000591AG10001AY191061AY261061GF106991031021008001061041KA1240N+02301MA1999999100191MD1999999+0011MW1011REMSYN023333   20230 58001 69941
0124829940999991988033118004-09667-035700FM-12+008999999V0201401N00311045001CN0500001N9+03001+01841100931ADDAA106003091AG10999AY191061AY261061GF106991021021012501061001MA1999999099931MD1999999-0051MW1031REMSYN017333   59005 60031
0137829940999991988040100004-09667-035700FM-12+008999999V0200901N00101045001CN9999999N9+02561+02331101051ADDAA106000091AG10999AY111061AY211061GF105991021011012501041001KA1240M+03221MA1999999100031MD1999999-0041MW1011REMSYN017333   10322 59004
0143829940999991988040112004-09667-035700FM-12+008999999V0201401N00101045001CN0100001N9+02571+02041101381ADDAA124018091AG10999AY191061AY261061GF107991041071012501041999KA1240N+02281MA1999999100361MD1999999+0171MW1031REMSYN023333   20228 58017 60184
0118829940999991988040118004-09667-035700FM-12+008999999V0201401N00411045001CN0200001N9+02721+01931101301ADDAA106000091AG10999AY111061AY221061GF107991021031012501061001MA1999999100291MD1999999+0361MW1031REMSYN011333   58036
0115829940999991988040200004-09667-035700FM-12+008999999V0200901N00051045001CN9999999N9+02601+02351101281ADDAA106000091AG10999GF107991041031012501041001KA1240M+02831MA1999999100261MD1999999+0231REMSYN017333   10283 58023
0154829940999991988040212004-09667-035700FM-12+008999999V0201401N00211045001CN0500001N9+02841+02241101371ADDAA124000291AA299000391AG10999AY191061AY261061GF106991021061017501061001KA1240N+02291MA1999999100351MD1999999-0011MW1031REMSYN023333   20229 59001 69924
0118829940999991988040218004-09667-035700FM-12+008999999V0209999999999045001CN0500001N9+03001+01941101001ADDAA106000091AG10999AY111061AY211061GF105991021021012501061001MA1999999099991MD1999999-0301MW1021REMSYN011333   59030
0137829940999991988040300004-09667-035700FM-12+008999999V0200501N00051045001CN9999999N9+02591+02381101001ADDAA106000091AG10999AY111061AY221061GF106991021011012501041001KA1240M+03241MA1999999099981MD1999999-0281MW1031REMSYN017333   10324 59028
0137829940999991988040312004-09667-035700FM-12+008999999V0200501N00261045001CN0500001N9+02871+01901101291ADDAA106000091AG10999AY111061AY211061GF105991021011012501061001KA1240N+02261MA1999999100281MD1999999-0071MW1031REMSYN017333   20226 59007
0118829940999991988040318004-09667-035700FM-12+008999999V0201401N00311220001CN0500001N9+03061+01801100931ADDAA106000091AG10999AY101061AY201061GF103991031011017501001001MA1999999099931MD1999999-0061MW1011REMSYN011333   59006
0156829940999991988040400004-09667-035700FM-12+008999999V0200901N00311012001CN9999999N9+02581+02381101231ADDAA106000091AG10999AY111061AY211061GF105991051011012501001001KA1240M+03261MA1999999100812MD1999999+0231MW1021REMSYN017333   10326 58023EQDQ01+100813APOSP 
0143829940999991988040412004-09667-035700FM-12+008999999V0200901N00151045001CN0100001N9+02401+02241101311ADDAA124013091AG10999AY191061AY261061GF107991031071008001021001KA1240N+02341MA1999999100291MD1999999+0011MW1611REMSYN023333   20234 58001 60134
0115829940999991988040418004-09667-035700FM-12+008999999V0201801N00311045001CN0500001N9+02861+02211100961ADDAA106000691AA299000591AG10999AY191061AY261061GF106991021041008001041001MA1999999099961MW1031REMSYN011333   69961
0137829940999991988040500004-09667-035700FM-12+008999999V0200901N00101045001CN9999999N9+02551+02291101301ADDAA106000091AG10999AY101061AY221061GF105991021031008001041001KA1240M+02891MA1999999100281MD1999999+0071MW1031REMSYN017333   10289 58007
0143829940999991988040512004-09667-035700FM-12+008999999V0201401N00151220001CN0500001N9+02801+02361101251ADDAA124002091AG10999AY191061AY261061GF103991031021008001001001KA1240N+02301MA1999999100231MD1999999-0061MW1031REMSYN023333   20230 59006 60024
0118829940999991988040518004-09667-035700FM-12+008999999V0200901N00311220001CN0500001N9+02951+02211100981ADDAA106000091AG10999AY101061AY221061GF104991041021008001001001MA1999999099971MD1999999+0011MW1031REMSYN011333   58001
0137829940999991988040600004-09667-035700FM-12+008999999V0200501N00101045001CN9999999N9+02501+02401101241ADDAA106000091AG10999AY111061AY221061GF106991021021008001061001KA1240M+03061MA1999999100221MD1999999-0061MW1031REMSYN017333   10306 59006
0137829940999991988040612004-09667-035700FM-12+008999999V0200901N00261045001CN0200001N9+02631+02371101311ADDAA106000091AG10999AY121061AY221061GF106991041091012501021001KA1240N+02361MA1999999100291MD1999999+0061MW1031REMSYN017333   20236 58006
0143829940999991988040700004-09667-035700FM-12+008999999V0201401N00151045001CN9999999N9+02631+02371101251ADDAA106003091AG10999AY191061AY261061GF106991041071004501021001KA1240M+03001MA1999999100231MD1999999+0011MW1031REMSYN023333   10300 58001 60031
0143829940999991988040712004-09667-035700FM-12+008999999V0201401N00411220001CN0500001N9+02911+02301101211ADDAA124006091AG10999AY191061AY261061GF102991021021008001061001KA1240N+02261MA1999999100201MD1999999-0091MW1011REMSYN023333   20226 59009 60064
0118829940999991988040718004-09667-035700FM-12+008999999V0200901N00151220001CN0500001N9+02981+02251101031ADDAA106000091AG10999AY101061AY221061GF104991041021008001001001MA1999999100021MD1999999-0061MW1031REMSYN011333   59006
0115829940999991988040800004-09667-035700FM-12+008999999V0209991C00001220001CN9999999N9+02601+02391101221ADDAA106000091AG10999GF103991031021008001001001KA1240M+03061MA1999999100201MD1999999-0031REMSYN017333   10306 59003
0135829940999991988040818004-09667-035700FM-12+008999999V0200901N00211045001CN0100001N9+02801+02111101251ADDAA106000691AA299000591AG10999AY191061AY261061GF108991041071012501041999MA1999999100241MD1999999+0221MW1031REMSYN017333   58022 69961
0137829940999991988040900004-09667-035700FM-12+008999999V0209991C00001045001CN9999999N9+02561+02331101241ADDAA106000091AG10999AY121061AY221061GF108991041081012501041999KA1240M+02971MA1999999100221MD1999999+0021MW1031REMSYN017333   10297 58002
0154829940999991988040912004-09667-035700FM-12+008999999V0200801N00151045001CN0200001N9+02841+02501101271ADDAA124000891AA299001091AG10999AY191061AY261061GF107991021061012501061001KA1240N+02501MA1999999100251MD1999999-0081MW1031REMSYN023333   20250 59008 69984
0124829940999991988040918004-09667-035700FM-12+008999999V0201401N00411045001CN0500001N9+02921+02141101181ADDAA106001091AG10999AY191061AY261061GF106991041031017501041001MA1999999100171MD1999999-0071MW1031REMSYN017333   59007 60011
0137829940999991988041000004-09667-035700FM-12+008999999V0201401N00051045001CN9999999N9+02501+02311101161ADDAA106000091AG10999AY111061AY211061GF106991021011012501061001KA1240M+03181MA1999999100141MD1999999-0081MW1031REMSYN017333   10318 59008
0143829940999991988041012004-09667-035700FM-12+008999999V0200901N00511045001CN0200001N9+02601+02311101121ADDAA124005091AG10999AY191061AY261061GF107991041071012501061001KA1240N+02281MA1999999100111MD1999999-0141MW1031REMSYN023333   20228 59014 60054
0143829940999991988041100004-09667-035700FM-12+008999999V0200501N00051045001CN9999999N9+02551+02231101191ADDAA106004091AG10999AY191061AY261061GF106991021031012501061001KA1240M+03221MA1999999100171MD1999999+0031MW1031REMSYN023333   10322 58003 60041
0143829940999991988041112004-09667-035700FM-12+008999999V0209991C00001045001CN0100001N9+99999+99999101071ADDAA124010091AG10999AY191061AY261061GF108991041071012501041999KA1240N+02261MA1999999100051MD1999999-0061MW1211REMSYN023333   20226 59006 60104
0143829940999991988041118004-09667-035700FM-12+008999999V0200901N04422045001CN0500001N9+02801+02061100951ADDAA106006091AG10999AY191061AY261061GF106991041061012501041001MA1999999099941MD1999999-0111MW1031REMSYN017333   59011 60061EQDQ01+004423WOSPD 
0143829940999991988041212004-09667-035700FM-12+008999999V0200901N00151007501CN0500001N9+02751+02361101241ADDAA124007091AG10999AY191061AY261061GF105991051021008001001001KA1240N+02301MA1999999100221MD1999999+0171MW1031REMSYN023333   20230 58017 60074
0118829940999991988041218004-09667-035700FM-12+008999999V0201401N00311045001CN0500001N9+02901+02321100951ADDAA106000091AG10999AY101061AY221061GF106991021031008001041001MA1999999099941MD1999999+0001MW1031REMSYN011333   58000
0156829940999991988041300004-09667-035700FM-12+008999999V0200901N001519999999N9999999N9+02601+02421101281ADDAA106000091AG10999AY101061AY221061GF105991999021008001001001KA1240M+03001MA1999999100261MD1999999+0261MW1031REMSYN017333   10300 58026EQDQ01+000022SCOTLC
0143829940999991988041312004-09667-035700FM-12+008999999V0202701N00051045001CN0200001N9+02551+02331101191ADDAA124010091AG10999AY191061AY261061GF107991041071012501041001KA1240N+02261MA1999999100171MD1999999-0051MW1211REMSYN023333   20226 59005 60104
0124829940999991988041318004-09667-035700FM-12+008999999V0200501N00311045001CN0200001N9+02621+02311101041ADDAA106004091AG10999AY191061AY261061GF107991041091012501061001MA1999999100031MD1999999+0051MW1031REMSYN017333   58005 60041
0143829940999991988041400004-09667-035700FM-12+008999999V0209991C00001045001CN9999999N9+02441+02331101151ADDAA106002091AG10999AY191061AY261061GF106991021031012501061001KA1240M+02791MA1999999100131MD1999999-0131MW1031REMSYN023333   10279 59013 60021
0118829940999991988041418004-09667-035700FM-12+008999999V0200901N00461045001CN0500001N9+03021+02211101191ADDAA106000091AG10999AY111061AY221061GF106991031031017501061001MA1999999100181MD1999999+0151MW1031REMSYN011333   58015
0137829940999991988041500004-09667-035700FM-12+008999999V0200901N00211045001CN9999999N9+02571+02311101201ADDAA106000091AG10999AY111061AY211061GF106991021011017501041001KA1240M+03201MA1999999100181MD1999999+0051MW1031REMSYN017333   10320 58005
0118829940999991988041518004-09667-035700FM-12+008999999V0209999999999045001CN0500001N9+03041+02311101061ADDAA106000091AG10999AY111061AY211061GF106991021061012501041001MA1999999100061MD1999999-0121MW1021REMSYN011333   59012
0143829940999991988041600004-09667-035700FM-12+008999999V0201401N00311045001CN9999999N9+02581+02331101201ADDAA106001091AG10999AY191061AY261061GF106991021031017501041001KA1240M+03221MA1999999100181MD1999999+0001MW1211REMSYN023333   10322 58000 60011
0124829940999991988041612004-09667-035700FM-12+008999999V0202701N00151045001CN0200001N9+02821+02361101101ADDAA124003091AG10999AY191061AY261061GF107991021041012501041001MA1999999100091MD1999999-0061MW1031REMSYN017333   59006 60034
0118829940999991988041618004-09667-035700FM-12+008999999V0201401N00311045001CN0500001N9+02941+02121101141ADDAA106000091AG10999AY111061AY221061GF106991041021012501041001MA1999999100141MD1999999+0081MW1031REMSYN011333   58008
0137829940999991988041700004-09667-035700FM-12+008999999V0209991C00001045001CN9999999N9+02601+02311101081ADDAA106000091AG10999AY111061AY221061GF106991021021017501041001KA1240M+03241MA1999999100061MD1999999-0121MW1031REMSYN017333   10324 59012
0137829940999991988041712004-09667-035700FM-12+008999999V0200901N001519999999N0500001N9+02961+02101101011ADDAA106000091AG10999AY111061AY211061GF106991021001012501041041KA1240N+02281MA1999999100001MD1999999-0091MW1021REMSYN017333   20228 59009
0118829940999991988041718004-09667-035700FM-12+008999999V0201401N00311220001CN0500001N9+02981+02061100951ADDAA106000091AG10999AY111061AY211061GF106991021011017501001011MA1999999099951MD1999999-0191MW1021REMSYN011333   59019
0137829940999991988041800004-09667-035700FM-12+008999999V0200901N00101045001CN9999999N9+02551+02111101051ADDAA106000091AG10999AY111061AY211061GF106991021031017501061001KA1240M+03271MA1999999100031MD1999999-0031MW1031REMSYN017333   10327 59003
0137829940999991988041812004-09667-035700FM-12+008999999V0200901N00311045001CN0500001N9+02841+02191101291ADDAA106000091AG10999AY111061AY221061GF106991041031017501061001KA1240N+02271MA1999999100281MD1999999+0281MW1031REMSYN017333   20227 58028
0118829940999991988041818004-09667-035700FM-12+008999999V0201401N00511220001CN0500001N9+03021+01891100921ADDAA106000091AG10999AY101061AY201061GF103991031011017501001001MA1999999099921MD1999999-0031MW1031REMSYN011333   59003
0137829940999991988041900004-09667-035700FM-12+008999999V0200901N00151220001CN9999999N9+02601+02371101011ADDAA106000091AG10999AY101061AY211061GF104991021021012501001011KA1240M+03241MA1999999099991MD1999999-0041MW1011REMSYN017333   10324 59004
0143829940999991988041912004-09667-035700FM-12+008999999V0202701N00101045001CN0200001N9+02551+02401101411ADDAA124018091AG10999AY191061AY261061GF106991021041008001041001KA1240N+02301MA1999999100391MD1999999+0111MW1031REMSYN023333   20230 58011 60184
0135829940999991988042000004-09667-035700FM-12+008999999V0209991C00001045001CN9999999N9+02381+02171101041ADDAA106999929AG10999AY191061GF106991021021017501091001KA1240M+02701MA1999999100021MD1999999+0031MW1031REMSYN023333   10270 58003 69901
0143829940999991988042012004-09667-035700FM-12+008999999V0202701N00101045001CN0200001N9+02451+02371101321ADDAA124029091AG10999AY191061AY261061GF106991031041008001041001KA1240N+02301MA1999999100291MD1999999-0101MW1031REMSYN023333   20230 59010 60294
0124829940999991988042018004-09667-035700FM-12+008999999V0201801N00361045001CN0200001N9+02781+02211100971ADDAA106003091AG10999AY191061AY261061GF107991021061012501041001MA1999999099951MD1999999-0071MW1031REMSYN017333   59007 60031
0137829940999991988042100004-09667-035700FM-12+008999999V0200501N00051045001CN9999999N9+02451+02251101051ADDAA106000091AG10999AY121061AY221061GF106991021031012501061001KA1240M+02811MA1999999100021MD1999999+0001MW1031REMSYN017333   10281 58000
0143829940999991988042112004-09667-035700FM-12+008999999V0200901N00151012001CN0500001N9+02751+02301101171ADDAA124007091AG10999AY191061AY261061GF105991051021012501001001KA1240N+02301MA1999999100151MD1999999-0141MW1031REMSYN023333   20230 59014 60074
0118829940999991988042118004-09667-035700FM-12+008999999V0201401N00311220001CN0500001N9+02951+02241100941ADDAA106000091AG10999AY101061AY221061GF103991031021008001001001MA1999999099931MD1999999-0021MW1031REMSYN011333   59002
0137829940999991988042200004-09667-035700FM-12+008999999V0209991C00001045001CN9999999N9+02571+02421101161ADDAA106000091AG10999AY101061AY221061GF106991021021008001041001KA1240M+03001MA1999999100141MD1999999+0121MW1031REMSYN017333   10300 58012
0143829940999991988042212004-09667-035700FM-12+008999999V0200901N00151045001CN0200001N9+02701+02151101331ADDAA124005091AG10999AY191061AY261061GF106991021041008001041001KA1240N+02301MA1999999100311MD1999999+0161MW1031REMSYN023333   20230 58016 60054
0124829940999991988042218004-09667-035700FM-12+008999999V0201401N00511220001CN0500001N9+02901+02391100981ADDAA106002091AG10999AY191061AY261061GF104991041021008001001001MA1999999099981MD1999999+0051MW1031REMSYN017333   58005 60021
0137829940999991988042300004-09667-035700FM-12+008999999V0200901N00151220001CN9999999N9+02571+02461101281ADDAA106000091AG10999AY101061AY221061GF103991031021008001001001KA1240M+03001MA1999999100261MD1999999+0121MW1031REMSYN017333   10300 58012
0143829940999991988042312004-09667-035700FM-12+008999999V0200901N00151045001CN0500001N9+02731+02371101401ADDAA124002091AG10999AY191061AY261061GF106991021021008001041001KA1240N+02361MA1999999100381MD1999999+0071MW1031REMSYN023333   20236 58007 60024
0118829940999991988042318004-09667-035700FM-12+008999999V0201401N00261045001CN0200001N9+02751+02361101131ADDAA106000091AG10999AY101061AY221061GF106991021041008001041001MA1999999100121MD1999999+0141MW1031REMSYN011333   58014
0143829940999991988042412004-09667-035700FM-12+008999999V0203601N00151045001CN0500001N9+02641+02441101381ADDAA148002091AG10999AY191061AY261061GF106991021041008001041001KA1240N+02361MA1999999100361MD1999999-0021MW1031REMSYN023333   20236 59002 60028
0137829940999991988042418004-09667-035700FM-12+008999999V0200501N001019999999N0200001N9+02451+02371101141ADDAA106000191AG10999GF107991999999008001999999MA1999999100121MD1999999+0021REMSYN017333   58002 69911EQDQ01+100183APOSLPQ02+999990APOSLP
0143829940999991988042500004-09667-035700FM-12+008999999V0202301N00261045001CN9999999N9+02401+02351101331ADDAA106001091AG10999AY191061AY261061GF107991031071008001021001KA1240M+02941MA1999999100301MD1999999-0021MW1611REMSYN023333   10294 59002 60011
0143829940999991988042512004-09667-035700FM-12+008999999V0202701N00101045001CN0100001N9+02501+02471101261ADDAA124022091AG10999AY191061AY261061GF107991031041008001041001KA1240N+02281MA1999999100241MD1999999-0121MW1031REMSYN023333   20228 59012 60224
0135829940999991988042518004-09667-035700FM-12+008999999V0201401N00151045001CN0200001N9+02701+02411100991ADDAA106000291AA299000391AG10999AY191061AY261061GF106991031041008001041001MA1999999099971MD1999999-0151MW1031REMSYN017333   59015 69921
0137829940999991988042600004-09667-035700FM-12+008999999V0209991C00001045001CN9999999N9+02501+02431101201ADDAA106000091AG10999AY101061AY221061GF106991031051008001021001KA1240M+02791MA1999999100171MD1999999-0131MW1031REMSYN017333   10279 59013
0143829940999991988042612004-09667-035700FM-12+008999999V0201401N00151045001CN0500001N9+02841+02381101271ADDAA124003091AG10999AY191061AY261061GF106991021031008001041001KA1240N+02281MA1999999100251MD1999999+0011MW1031REMSYN023333   20228 58001 60034
0118829940999991988042618004-09667-035700FM-12+008999999V0201401N00311007501CN0500001N9+02871+02261101071ADDAA106000091AG10999AY101061AY221061GF106991061021008001001001MA1999999100061MD1999999+0091MW1031REMSYN011333   58009
0143829940999991988042712004-09667-035700FM-12+008999999V0201801N00051045001CN0200001N9+02401+02211101481ADDAA124012091AG10999AY191061AY261061GF107991041071012501021001KA1240N+02261MA1999999100461MD1999999+0211MW1211REMSYN023333   20226 58021 60124
0135829940999991988042718004-09667-035700FM-12+008999999V0200901N00511045001CN0200001N9+02621+02181101321ADDAA106000491AA299000591AG10999AY191061AY261061GF107991041071012501021001MA1999999100311MD1999999+0261MW1031REMSYN017333   58026 69941
0154829940999991988042800004-09667-035700FM-12+008999999V0209991C00001045001CN9999999N9+02451+02371101271ADDAA106000891AA299001091AG10999AY191061AY261061GF106991031041008001041001KA1240M+02711MA1999999100251MD1999999-0011MW1031REMSYN023333   10271 59001 69981
0143829940999991988042812004-09667-035700FM-12+008999999V0202701N00051045001CN0200001N9+02621+02231101401ADDAA124001091AG10999AY191061AY261061GF107991021061012501061001KA1240N+02201MA1999999100371MD1999999-0091MW1031REMSYN023333   20220 59009 60014
0118829940999991988042818004-09667-035700FM-12+008999999V0200901N00461045001CN0500001N9+02981+01981101241ADDAA106000091AG10999AY111061AY221061GF105991021021012501061001MA1999999100231MD1999999-0081MW1031REMSYN011333   59008
0137829940999991988042900004-09667-035700FM-12+008999999V0209991C00001220001CN9999999N9+02521+02311101411ADDAA106000091AG10999AY111061AY211061GF105991041021017501001011KA1240M+03261MA1999999100381MD1999999+0131MW1031REMSYN017333   10326 58013
0143829940999991988042912004-09667-035700FM-12+008999999V0202301N00211045001CN0100001N9+02321+02221101481ADDAA124028091AG10999AY191061AY261061GF108991041071012501021999KA1240N+02211MA1999999100451MD1999999+0081MW1611REMSYN023333   20221 58008 60284
0124829940999991988042918004-09667-035700FM-12+008999999V0200501N00311045001CN0100001N9+02301+02231101451ADDAA106019091AG10999AY191061AY261061GF108991041091012501021999MA1999999100431MD1999999+0201MW1611REMSYN017333   58020 60191
0143829940999991988043000004-09667-035700FM-12+008999999V0209991C00001045001CN9999999N9+02261+02181101441ADDAA106001091AG10999AY191061AY261061GF108991041061012501021999KA1240M+02531MA1999999100411MD1999999+0031MW1031REMSYN023333   10253 58003 60011
0143829940999991988043012004-09667-035700FM-12+008999999V0209991C00001045001CN0100001N9+02321+02251101531ADDAA124027091AG10999AY191061AY261061GF108991041091012501021999KA1240N+02181MA1999999100491MD1999999+0041MW1611REMSYN023333   20218 58004 60274
0124829940999991988043018004-09667-035700FM-12+008999999V0201401N00051045001CN0100001N9+02341+02241101481ADDAA106028091AG10999AY191061AY261061GF108991041071012501041011MA1999999100451MD1999999+0021MW1031REMSYN017333   58002 60281
0143829940999991988050100004-09667-035700FM-12+008999999V0202701N00051045001CN9999999N9+02281+02201101461ADDAA106001091AG10999AY191061AY261061GF108991041071012501021011KA1240M+02451MA1999999100431MD1999999+0021MW1021REMSYN023333   10245 58002 60011
0143829940999991988050200004-09667-035700FM-12+008999999V0202701N00311045001CN9999999N9+02401+02331101051ADDAA106007091AG10999AY191061AY261061GF108991041071008001021999KA1240M+02491MA1999999100021MD1999999-0411MW1611REMSYN023333   10249 59041 60071
0143829940999991988050212004-09667-035700FM-12+008999999V0202701N00151220001CN0500001N9+02621+02371101391ADDAA124047091AG10999AY191061AY261061GF103991031021008001001001KA1240N+02201MA1999999100351MD1999999-0171MW1031REMSYN023333   20220 59017 60474
0118829940999991988050218004-09667-035700FM-12+008999999V0200901N00261220001CN0500001N9+02801+02201101181ADDAA106000091AG10999AY101061AY221061GF103991031021008001001001MA1999999100161MD1999999-0011MW1031REMSYN011333   59001
0156829940999991988050300004-09667-035700FM-12+008999999V0200901N000519999999N9999999N9+02401+02281101371ADDAA106000091AG10999AY101061AY221061GF105991999021008001001001KA1240M+02941MA1999999100341MD1999999+0321MW1031REMSYN017333   10294 58032EQDQ01+000002SCOTLC
0143829940999991988050312004-09667-035700FM-12+008999999V0201801N00151045001CN0100001N9+02351+02111101641ADDAA124016091AG10999AY191061AY261061GF107991041071008001021999KA1240N+02241MA1999999100611MD1999999+0261MW1611REMSYN023333   20224 58026 60164
0135829940999991988050318004-09667-035700FM-12+008999999V0200901N00311045001CN0500001N9+02801+02361101251ADDAA106000491AA299000591AG10999AY191061AY261061GF106991021021008001041001MA1999999100241MD1999999+0081MW1031REMSYN017333   58008 69941
0137829940999991988050400004-09667-035700FM-12+008999999V0200501N00101220001CN9999999N9+02501+02361101511ADDAA106000091AG10999AY101061AY201061GF103991031021008001001001KA1240M+02961MA1999999100481MD1999999+0141MW1011REMSYN017333   10296 58014
0143829940999991988050412004-09667-035700FM-12+008999999V0200901N00261045001CN0500001N9+02751+02471101431ADDAA124007091AG10999AY191061AY261061GF106991021031012501061001KA1240N+02201MA1999999100411MD1999999-0201MW1211REMSYN023333   20220 59020 60074
0118829940999991988050418004-09667-035700FM-12+008999999V0200901N00311220001CN0500001N9+02901+02201101251ADDAA106000091AG10999AY101061AY221061GF103991031021008001001001MA1999999100241MD1999999+0001MW1011REMSYN011333   58000
0137829940999991988050500004-09667-035700FM-12+008999999V0200501N00151045001CN9999999N9+02551+02291101481ADDAA106000091AG10999AY101061AY221061GF106991031021008001041001KA1240M+03001MA1999999100451MD1999999-0031MW1031REMSYN017333   10300 59003
0154829940999991988050512004-09667-035700FM-12+008999999V0201401N00211045001CN0500001N9+02791+02211101431ADDAA124000691AA299000591AG10999AY191061AY261061GF106991021021012501041001KA1240N+02241MA1999999100411MD1999999+0001MW1031REMSYN023333   20224 58000 69964
0118829940999991988050518004-09667-035700FM-12+008999999V0201401N00211220001CN0500001N9+02801+02291101351ADDAA106000091AG10999AY111061AY211061GF106991021011012501001011MA1999999100341MD1999999+0101MW1031REMSYN011333   58010
0137829940999991988050600004-09667-035700FM-12+008999999V0201401N002119999999N9999999N9+02501+02311101351ADDAA106000091AG10999AY111061AY211061GF105991051001012501041001KA1240M+03081MA1999999100331MD1999999-0121MW1021REMSYN017333   10308 59012
0143829940999991988050612004-09667-035700FM-12+008999999V0200901N00211045001CN0500001N9+02771+02161101391ADDAA106004091AG10999AY191061AY261061GF106991041031012501061001KA1240N+02181MA1999999100381MD1999999-0031MW1211REMSYN023333   20218 59003 60041
0118829940999991988050618004-09667-035700FM-12+008999999V0200901N00461045001CN0500001N9+02801+01871101361ADDAA106000091AG10999AY111061AY211061GF106991021011012501061001MA1999999100351MD1999999+0011MW1021REMSYN011333   58001
0137829940999991988050700004-09667-035700FM-12+008999999V0209991C00001012001CN9999999N9+02521+02271101391ADDAA106000091AG10999AY111061AY211061GF105991051011012501001001KA1240M+02981MA1999999100361MD1999999+0031MW1021REMSYN017333   10298 58003
0137829940999991988050712004-09667-035700FM-12+008999999V0201801N00101045001CN0200001N9+02701+02351101491ADDAA106000091AG10999AY101061AY221061GF106991021041008001041001KA1240N+02201MA1999999100471MD1999999-0091MW1031REMSYN017333   20220 59009
0118829940999991988050718004-09667-035700FM-12+008999999V0201801N00151045001CN0500001N9+02801+02151101521ADDAA106000091AG10999AY101061AY221061GF106991031041008001041001MA1999999100211MD1999999-0141MW1031REMSYN011333   59014
0143829940999991988050812004-09667-035700FM-12+008999999V0202701N00151045001CN0500001N9+02401+02331101421ADDAA124002091AG10001AY191061AY261061GF107991031071008001021001KA1240N+02181MA1999999100401MD1999999-0071MW1611REMSYN023333   20218 59007 60024
0118829940999991988050818004-09667-035700FM-12+008999999V0201401N00311045001CN0200001N9+02771+02161101101ADDAA106000091AG10999AY101061AY221061GF106991031041008001041001MA1999999100091MD1999999-0121MW1031REMSYN011333   59012
0143829940999991988050912004-09667-035700FM-12+008999999V0202301N00101045001CN0200001N9+02601+02311101321ADDAA124000391AG10999AY191061AY261061GF106991021041008001041001KA1240N+02201MA1999999100291MD1999999-0111MW1031REMSYN023333   20220 59011 69934
0118829940999991988050918004-09667-035700FM-12+008999999V0200901N00311045001CN0200001N9+02801+02251100991ADDAA106000091AG10999AY101061AY221061GF106991031041008001041001MA1999999099981MD1999999-0111MW1031REMSYN011333   59011
0137829940999991988051000004-09667-035700FM-12+008999999V0200901N00101045001CN9999999N9+02551+02171101271ADDAA106000091AG10999AY101061AY221061GF106991021021008001041001KA1240M+02891MA1999999100241MD1999999-0121MW1031REMSYN017333   10289 59012
0137829940999991988051012004-09667-035700FM-12+008999999V0202701N00151220001CN0500001N9+02701+02301101341ADDAA106000091AG10999AY101061AY201061GF103991031021008001001001KA1240N+02181MA1999999100321MD1999999+0031MW1011REMSYN017333   20218 58003
0118829940999991988051018004-09667-035700FM-12+008999999V0200901N00311220001CN0500001N9+02801+02061101031ADDAA106000091AG10999AY101061AY201061GF103991031021008001001001MA1999999100021MD1999999+0041MW1011REMSYN011333   58004
0137829940999991988051112004-09667-035700FM-12+008999999V0202301N00151045001CN0500001N9+02741+01951101351ADDAA106000091AG10999AY111061AY221061GF106991021031012501061001KA1240N+02241MA1999999100331MD1999999+0011MW1031REMSYN017333   20224 58001
0118829940999991988051118004-09667-035700FM-12+008999999V0201801N00261045001CN0500001N9+02801+02201101261ADDAA106000091AG10999AY101061AY221061GF106991021031008001041001MA1999999100251MD1999999+0231MW1031REMSYN011333   58023
0137829940999991988051200004-09667-035700FM-12+008999999V0209991C00001220001CN9999999N9+02651+02271101401ADDAA106000091AG10999AY101061AY221061GF104991021021008001041001KA1240M+02961MA1999999100381MD1999999+0121MW1031REMSYN017333   10296 58012
0137829940999991988051212004-09667-035700FM-12+008999999V0202701N00151220001CN0500001N9+02721+02151101451ADDAA106000091AG10999AY101061AY201061GF103991031011017501001001KA1240N+02301MA1999999100431MD1999999+0101MW1011REMSYN017333   20230 58010
0118829940999991988051218004-09667-035700FM-12+008999999V0201401N00151045001CN0200001N9+03021+02211101251ADDAA106000091AG10999AY121061AY221061GF106991021021012501041001MA1999999100241MD1999999-0011MW1031REMSYN011333   59001
0137829940999991988051300004-09667-035700FM-12+008999999V0203601N00101045001CN9999999N9+02431+02231101411ADDAA106000091AG10999AY111061AY211061GF106991021021012501061001KA1240M+03121MA1999999100391MD1999999+0011MW1031REMSYN017333   10312 58001
0137829940999991988051312004-09667-035700FM-12+008999999V0200901N00311220001CN0500001N9+02881+01831101541ADDAA106000091AG10999AY101061AY201061GF103991031021017501001001KA1240N+02271MA1999999100531MD1999999+0101MW1011REMSYN017333   20227 58010
0118829940999991988051318004-09667-035700FM-12+008999999V0200901N00361220001CN0500001N9+02901+01961101381ADDAA106000091AG10999AY101061AY201061GF103991031011017501001001MA1999999100371MD1999999+0131MW1021REMSYN011333   58013
0154829940999991988051400004-09667-035700FM-12+008999999V0200501N00051045001CN9999999N9+02551+02211101391ADDAA106000291AA299000391AG10999AY191061AY261061GF106991021061012501061001KA1240M+03181MA1999999100361MD1999999-0031MW1031REMSYN023333   10318 59003 69921
0173829940999991988051412004-09667-035700FM-12+008999999V0200501N00211220001CN0500001N9+02781+02011101421ADDAA124000291AA299000391AG10999AY191061AY261061GF103991031021017501001001KA1240N+02271MA1999999100411MD1999999-0121MW1011REMSYN023333   20227 59012 69924EQDQ01+999990APOSLP
0118829940999991988051418004-09667-035700FM-12+008999999V0200901N00461220001CN0500001N9+02971+01871101281ADDAA106000091AG10999AY101061AY201061GF103991031011012501001001MA1999999100271MD1999999-0101MW1011REMSYN011333   59010
0156829940999991988051500004-09667-035700FM-12+008999999V0200901N001019999999N9999999N9+02501+02211101361ADDAA106000091AG10999AY101061AY211061GF105991999001012501041001KA1240M+03161MA1999999100341MD1999999-0021MW1031REMSYN017333   10316 59002EQDQ01+000022SCOTLC
0137829940999991988051512004-09667-035700FM-12+008999999V0200901N00211045001CN0500001N9+02761+01891101491ADDAA106000091AG10999AY111061AY211061GF106991021021017501041001KA1240N+02261MA1999999100471MD1999999+0061MW1031REMSYN017333   20226 58006
0118829940999991988051518004-09667-035700FM-12+008999999V0200901N00411045001CN0500001N9+02921+01831101431ADDAA106000091AG10999AY111061AY211061GF106991021011017501061001MA1999999100421MD1999999+0151MW1011REMSYN011333   58015
0137829940999991988051600004-09667-035700FM-12+008999999V0200901N001519999999N9999999N9+02481+02171101411ADDAA106000091AG10999AY101061AY211061GF105991021001012501041011KA1240M+03181MA1999999100381MD1999999+0041MW1031REMSYN017333   10318 58004
0143829940999991988051612004-09667-035700FM-12+008999999V0202301N00211045001CN0200001N9+02681+02041101471ADDAA124007091AG10999AY191061AY261061GF107991041071012501041001KA1240N+02231MA1999999100451MD1999999-0021MW1031REMSYN023333   20223 59002 60074
0124829940999991988051618004-09667-035700FM-12+008999999V0200901N00311045001CN0200001N9+02781+02481101351ADDAA106007091AG10999AY191061AY261061GF107991021091012501061001MA1999999100341MD1999999-0081MW1211REMSYN017333   59008 60071
0137829940999991988051700004-09667-035700FM-12+008999999V0209991C00001007501CN9999999N9+02401+02331101681ADDAA106000091AG10999AY101061AY221061GF105991051021008001001001KA1240M+03101MA1999999100651MD1999999+0271MW1031REMSYN017333   10310 58027
0143829940999991988051712004-09667-035700FM-12+008999999V0202701N00101045001CN0200001N9+02601+02311101641ADDAA124007091AG10999AY191061AY261061GF106991031031008001041001KA1240N+02181MA1999999100621MD1999999+0171MW1031REMSYN023333   20218 58017 60074
0118829940999991988051718004-09667-035700FM-12+008999999V0201401N00511007501CN0500001N9+02801+02071101221ADDAA106000091AG10999AY101061AY221061GF105991051021008001001001MA1999999100211MD1999999-0131MW1031REMSYN011333   59013
0137829940999991988051800004-09667-035700FM-12+008999999V0209991C00001220001CN9999999N9+02501+02311101501ADDAA106000091AG10999AY101061AY221061GF103991031021008001001001KA1240M+02891MA1999999100471MD1999999-0181MW1031REMSYN017333   10289 59018
0137829940999991988051812004-09667-035700FM-12+008999999V0202301N00151220001CN0500001N9+02741+01951101371ADDAA106000091AG10999AY101061AY201061GF103991031021012501001001KA1240N+02251MA1999999100351MD1999999-0271MW1011REMSYN017333   20225 59027
0118829940999991988051818004-09667-035700FM-12+008999999V0201401N00151220001CN0500001N9+02901+02151101141ADDAA106000091AG10999AY101061AY201061GF103991031021008001001001MA1999999100131MD1999999-0081MW1011REMSYN011333   59008
0137829940999991988051900004-09667-035700FM-12+008999999V0209991C00001220001CN9999999N9+02471+02321101371ADDAA106000091AG10999AY101061AY201061GF103991031011008001001001KA1240M+02941MA1999999100341MD1999999-0131MW1011REMSYN017333   10294 59013
0137829940999991988051912004-09667-035700FM-12+008999999V0201401N00211045001CN0500001N9+02721+01971101331ADDAA106000091AG10999AY111061AY221061GF106991021061012501041001KA1240N+02261MA1999999100321MD1999999-0031MW1031REMSYN017333   20226 59003
0118829940999991988051918004-09667-035700FM-12+008999999V0201401N00461045001CN0500001N9+02801+02001101111ADDAA106000091AG10999AY111061AY211061GF106991021021012501041001MA1999999100101MD1999999-0031MW1031REMSYN011333   59003
0137829940999991988052000004-09667-035700FM-12+008999999V0209991C00001220001CN9999999N9+02501+02131101441ADDAA106000091AG10999AY101061AY201061GF103991031011008001001001KA1240M+02871MA1999999100411MD1999999+0071MW1011REMSYN017333   10287 58007
0137829940999991988052012004-09667-035700FM-12+008999999V0202301N00151045001CN0200001N9+02721+02001101431ADDAA106000091AG10999AY121061AY221061GF107991041031012501061001KA1240N+02231MA1999999100411MD1999999+0091MW1031REMSYN017333   20223 58009
0124829940999991988052018004-09667-035700FM-12+008999999V0200901N00311045001CN0500001N9+02861+02161101431ADDAA106999929AG10999AY191061AY261061GF106991021021012501061001MA1999999100421MD1999999+0321MW1031REMSYN017333   58032 69901
0143829940999991988052112004-09667-035700FM-12+008999999V0202701N00101045001CN0100001N9+02441+02281101461ADDAA124003091AG10999AY191061AY261061GF107991031071008001021001KA1240N+02101MA1999999100441MD1999999+0031MW1611REMSYN023333   20210 58003 60034
0124829940999991988052118004-09667-035700FM-12+008999999V0201401N00151045001CN0100001N9+02551+02421101161ADDAA106004091AG10999AY191061AY261061GF107991031071008001021001MA1999999100151MD1999999-0271MW1611REMSYN017333   59027 60041
0143829940999991988052200004-09667-035700FM-12+008999999V0200901N00101045001CN9999999N9+02451+02301101211ADDAA106007091AG10999AY191061AY261061GF106991031041008001041001KA1240M+02701MA1999999100191MD1999999-0281MW1031REMSYN023333   10270 59028 60071
0143829940999991988052212004-09667-035700FM-12+008999999V0200901N00051045001CN0100001N9+02581+02401101551ADDAA124022091AG10999AY191061AY261061GF106991031031008001041001KA1240N+02201MA1999999100531MD1999999+0091MW1031REMSYN023333   20220 58009 60224
0118829940999991988052218004-09667-035700FM-12+008999999V0201401N00261045001CN0200001N9+02801+02201101261ADDAA106000091AG10999AY101061AY221061GF106991021031008001041001MA1999999100241MD1999999+0091MW1031REMSYN011333   58009
0137829940999991988052300004-09667-035700FM-12+008999999V0200901N00101220001CN9999999N9+02561+02251101421ADDAA106000091AG10999AY101061AY211061GF103991031021008001001001KA1240M+02891MA1999999100401MD1999999+0211MW1031REMSYN017333   10289 58021
0143829940999991988052312004-09667-035700FM-12+008999999V0200901N00311045001CN0500001N9+02701+02351101401ADDAA124000591AG10999AY191061AY261061GF106991031051008001041001KA1240N+02161MA1999999100381MD1999999-0151MW1031REMSYN023333   20216 59015 69954
0118829940999991988052318004-09667-035700FM-12+008999999V0200901N00511220001CN0500001N9+02871+02281101141ADDAA106000091AG10999AY101061AY201061GF104991041021008001001001MA1999999100131MD1999999-0111MW1011REMSYN011333   59011
0137829940999991988052400004-09667-035700FM-12+008999999V0200501N00151220001CN9999999N9+02451+02211101361ADDAA106000091AG10999AY101061AY201061GF104991041021008001001001KA1240M+02941MA1999999100331MD1999999-0071MW1011REMSYN017333   10294 59007
0143829940999991988052412004-09667-035700FM-12+008999999V0200501N00261045001CN0200001N9+02731+02241101321ADDAA124001091AG10999AY191061AY261061GF106991031051008001041001KA1240N+02201MA1999999100301MD1999999-0081MW1031REMSYN023333   20220 59008 60014
0118829940999991988052418004-09667-035700FM-12+008999999V0200901N00151220001CN0500001N9+02831+02101101021ADDAA106000091AG10999AY101061AY201061GF102991021011008001001001MA1999999100011MD1999999-0121MW1011REMSYN011333   59012
0154829940999991988052512004-09667-035700FM-12+008999999V0202701N00051045001CN0500001N9+02701+02031101461ADDAA124999929AG10999AY191061GF106991021021017501061001KA1240N+02241MA1999999100441MD1999999+0141MW1031REMSYN023333   20224 58014 69904EQDQ01+000072PSTWM2
0118829940999991988052518004-09667-035700FM-12+008999999V0201401N00151220001CN0500001N9+02841+02141101011ADDAA106000091AG10001AY101061AY201061GF102991021011008001001001MA1999999100001MD1999999-0011MW1011REMSYN011333   59001
0137829940999991988052600004-09667-035700FM-12+008999999V0209991C00001220001CN9999999N9+02301+02141101331ADDAA106000091AG10999AY101061AY201061GF103991031011008001001001KA1240M+02941MA1999999100301MD1999999+0021MW1011REMSYN017333   10294 58002
0137829940999991988052612004-09667-035700FM-12+008999999V0201401N00151045001CN0500001N9+02741+02001101521ADDAA106000091AG10999AY111061AY211061GF106991021011017501061001KA1240N+02231MA1999999100501MD1999999+0061MW1031REMSYN017333   20223 58006
0118829940999991988052618004-09667-035700FM-12+008999999V0201401N00311045001CN0500001N9+02801+01871101161ADDAA106000091AG10999AY101061AY211061GF106991021011017501061001MA1999999100951MD1999999+0151MW1011REMSYN011333   58015
0156829940999991988052700004-09667-035700FM-12+008999999V0201401N00051220001CN9999999N9+02401+02131101271ADDAA106000091AG10999AY101061AY201061GF103991999011012501001001KA1240M+02951MA1999999100241MD1999999-0061MW1011REMSYN017333   10295 59006EQDQ01+000022SCOTLC
0137829940999991988052712004-09667-035700FM-12+008999999V0202701N00151045001CN0500001N9+02681+01971101491ADDAA106000091AG10999AY111061AY211061GF106991021021017501041001KA1240N+02181MA1999999100471MD1999999-0031MW1031REMSYN017333   20218 59003
0118829940999991988052718004-09667-035700FM-12+008999999V0201401N00311220001CN0500001N9+02951+01761101371ADDAA106000091AG10999AY101061AY201061GF103991031011017501001001MA1999999100361MD1999999+0111MW1101REMSYN011333   58011
0137829940999991988052800004-09667-035700FM-12+008999999V0209991C00001220001CN9999999N9+02451+02111101361ADDAA106000091AG10999AY101061AY201061GF104991041021017501001001KA1240M+03051MA1999999100331MD1999999+0091MW1011REMSYN017333   10305 58009
0137829940999991988052812004-09667-035700FM-12+008999999V0203601N00051220001CN0500001N9+02681+01971101461ADDAA106000091AG10999AY101061AY201061GF103991031011017501001001KA1240N+02171MA1999999100441MD1999999-0031MW1011REMSYN017333   20217 59003
