0115832290999991988010100004-13017-038517FM-12+005199999V0201401N00151220001CN9999999N9+02661+02351101211ADDAA106000091AG10999GF100991001001999999001001KA1240M+03061MA1999999100621MD1999999+0111REMSYN017333   10306 58011
0115832290999991988010112004-13017-038517FM-12+005199999V0200501N00261007501CN0020001N9+02841+02221100951ADDAA106000091AG10999GF107991071051008001001001KA1240N+02601MA1999999100351MD1999999-0351REMSYN017333   20260 59035
0096832290999991988010118004-13017-038517FM-12+005199999V0200901N00261220001CN0100001N9+03051+02281100541ADDAA106000091AG10999GF106991001001999999001011MA1999999099941MD1999999-0511REMSYN011333   59051
0115832290999991988010200004-13017-038517FM-12+005199999V0200901N00411220001CN9999999N9+02711+02411100641ADDAA106000091AG10999GF104991001001999999001011KA1240M+03161MA1999999100041MD1999999-0581REMSYN017333   10316 59058
0115832290999991988010212004-13017-038517FM-12+005199999V0200901N00101220001CN0020001N9+02921+02291100881ADDAA106000091AG10999GF103991001001999999001041KA1240N+02671MA1999999100281MD1999999-0071REMSYN017333   20267 59007
0096832290999991988010218004-13017-038517FM-12+005199999V0201401N00151045001CN0100001N9+03011+02401100651ADDAA106000091AG10999GF107991021081008001031021MA1999999100061MD1999999+0121REMSYN011333   58012
0115832290999991988010300004-13017-038517FM-12+005199999V0200501N00151105001CN9999999N9+02791+02501100771ADDAA106000091AG10999GF105991011011008001031021KA1240M+03241MA1999999100171MD1999999+0161REMSYN017333   10324 58016
0115832290999991988010312004-13017-038517FM-12+005199999V0200901N00151045001CN0100001N9+02821+02441100941ADDAA106000091AG10999GF106991041021008001011021KA1240N+02611MA1999999100351MD1999999+0871REMSYN017333   20261 58087
0096832290999991988010318004-13017-038517FM-12+005199999V0201401N00151220001CN0100001N9+03091+02671100861ADDAA106000091AG10999GF101991011011008001001001MA1999999100161MD1999999+0101REMSYN011333   58010
0115832290999991988010400004-13017-038517FM-12+005199999V0200501N00211220001CN9999999N9+02751+02431100871ADDAA106000091AG10999GF101991011011008001001001KA1240M+03181MA1999999100271MD1999999+0101REMSYN017333   10318 58010
0132832290999991988010412004-13017-038517FM-12+005199999V0200901N00411220001CN0100001N9+02971+02351101311ADDAA124000291AA299000391AG10999GF103991021031008001001011KA1240N+02541MA1999999100711MD1999999+0361REMSYN023333   20254 58036 69924
0096832290999991988010418004-13017-038517FM-12+005199999V0200901N00361220001CN0200001N9+03091+02521101081ADDAA106000091AG10999GF101991001001999999001011MA1999999100481MD1999999+0321REMSYN011333   58032
0115832290999991988010512004-13017-038517FM-12+005199999V0200901N00151220001CN0200001N9+02961+02281101351ADDAA106000091AG10999GF102991011011008001041001KA1240N+02501MA1999999100751MD1999999+0041REMSYN017333   20250 58004
0096832290999991988010518004-13017-038517FM-12+005199999V0200901N00261220001CN0200001N9+03021+02181101141ADDAA106000091AG10999GF102991011011008001001011MA1999999100551MD1999999+0071REMSYN011333   58007
0115832290999991988010600004-13017-038517FM-12+005199999V0200901N00151220001CN9999999N9+02781+02231101011ADDAA106000091AG10999GF100991001001999999001001KA1240M+03161MA1999999100621MD1999999+0491REMSYN017333   10316 58049
0115832290999991988010612004-13017-038517FM-12+005199999V0201401N00151220001CN0200001N9+02901+02301101301ADDAA106000091AG10999GF104991031051008001001021KA1240N+02721MA1999999100701MD1999999-0051REMSYN017333   20272 59005
0096832290999991988010618004-13017-038517FM-12+005199999V0201401N00211021001CN0200001N9+02961+02311101061ADDAA106000091AG10999GF106991061001022501021001MA1999999100461MD1999999-0091REMSYN011333   59009
0115832290999991988010700004-13017-038517FM-12+005199999V0200901N00211220001CN9999999N9+02621+02071101061ADDAA106000091AG10999GF100991001001999999001001KA1240M+03091MA1999999100461MD1999999-0161REMSYN017333   10309 59016
0047832290999991988010712004-13017-038517FM-12+005199999V0201401N00051220001CN0500001N9+02901+02301999999ADDAA106000091AG10999GF104991999999008001999999
0096832290999991988010718004-13017-038517FM-12+005199999V0209999999999220001CN0100001N9+03011+02001100951ADDAA106000091AG10999GF100991001001999999001001MA1999999100361MD1999999-0101REMSYN011333   59010
0115832290999991988010800004-13017-038517FM-12+005199999V0201401N00151220001CN9999999N9+02691+02391100881ADDAA106000091AG10999GF102991021011008001001001KA1240M+03181MA1999999100281MD1999999-0181REMSYN017333   10318 59018
0115832290999991988010812004-13017-038517FM-12+005199999V0200901N00101220001CN0200001N9+03021+02021101191ADDAA106000091AG10999GF104991041021008001001001KA1240N+02501MA1999999100611MD1999999-0091REMSYN017333   20250 59009
0096832290999991988010818004-13017-038517FM-12+005199999V0200901N00151220001CN0100001N9+03111+02561100951ADDAA106000091AG10999GF103991031021008001001001MA1999999100351MD1999999-0011REMSYN011333   59001
0115832290999991988010900004-13017-038517FM-12+005199999V0200901N00101220001CN9999999N9+02701+02371101081ADDAA106000091AG10999GF101991011011008001001001KA1240M+03191MA1999999100491MD1999999+0211REMSYN017333   10319 58021
0115832290999991988010912004-13017-038517FM-12+005199999V0201801N00261045001CN0040001N9+02891+02391101201ADDAA106000091AG10999GF105991041051008001031001KA1240N+02341MA1999999100601MD1999999-0011REMSYN017333   20234 59001
0096832290999991988010918004-13017-038517FM-12+005199999V0200901N00411220001CN0200001N9+03041+02411100901ADDAA106000091AG10001GF102991011031008001001081MA1999999100301MD1999999-0051REMSYN011333   59005
0115832290999991988011000004-13017-038517FM-12+005199999V0200901N00151220001CN9999999N9+02701+02391100871ADDAA106000091AG10999GF100991001001999999001001KA1240M+03141MA1999999100271MD1999999-0011REMSYN017333   10314 59001
0121832290999991988011012004-13017-038517FM-12+005199999V0200501N00151007501CN0040001N9+02761+02301101061ADDAA124002091AG10999GF106991061041008001001001KA1240N+02521MA1999999100471MD1999999-0131REMSYN023333   20252 59013 60024
0159832290999991988011018004-13017-038517FM-12+005199999V0200901N00151220001CN0100001N9+02901+02321100951ADDAA106000591AG10999AY151061AY211061GF104991999021008001001001MA1999999100361MD1999999+0061MW1011REMSYN017333   58006 69951EQDQ01+000032SCOTLCQ02+999990APOSP 
0115832290999991988011100004-13017-038517FM-12+005199999V0201401N00211220001CN9999999N9+02761+02361100991ADDAA106000091AG10999GF102991021021008001001001KA1240M+03121MA1999999100501MD1999999+0231REMSYN017333   10312 58023
0132832290999991988011112004-13017-038517FM-12+005199999V0200501N00261004201CN0040001N9+02871+02311100971ADDAA124000691AA299000591AG10999GF108991071051004501001081KA1240N+02441MA1999999100371MD1999999-0101REMSYN023333   20244 59010 69964
0124832290999991988011118004-13017-038517FM-12+005199999V0200901N00361045001CN0020001N9+02731+02431100821ADDAA106000191AG10999AY111061AY221061GF108991011051004501021999MA1999999100221MD1999999-0141MW1961REMSYN017333   59014 69911
0143832290999991988011200004-13017-038517FM-12+005199999V0200901N00211004201CN9999999N9+02711+02461101021ADDAA106000191AG10999AY121061AY221061GF108991081071004501999999KA1240M+03141MA1999999100421MD1999999-0081MW1961REMSYN023333   10314 59008 69911
0143832290999991988011212004-13017-038517FM-12+005199999V0200901N00101007501CN0040001N9+02471+02361101331ADDAA124131091AG10999AY161061AY221061GF108991081071008001999999KA1240N+02391MA1999999100731MD1999999+0361MW1021REMSYN023333   20239 58036 61314
0096832290999991988011218004-13017-038517FM-12+005199999V0200901N00151220001CN0100001N9+02941+02431101041ADDAA106000091AG10999GF104991011021008001031011MA1999999100451MD1999999+0231REMSYN011333   58023
0115832290999991988011300004-13017-038517FM-12+005199999V0200501N00211105001CN9999999N9+02741+02361101131ADDAA106000091AG10999GF105991021021008001031011KA1240M+02991MA1999999100531MD1999999+0111REMSYN017333   10299 58011
0143832290999991988011312004-13017-038517FM-12+005199999V0200901N00151045001CN0100001N9+02801+02441101461ADDAA124002091AG10999AY131061AY261061GF107991041041008001011001KA1240N+02401MA1999999100881MD1999999+0151MW1601REMSYN023333   20240 58015 60024
0143832290999991988011318004-13017-038517FM-12+005199999V0201401N001519999999N0200001N9+02821+02401101241ADDAA106002091AG10999AY161061AY261061GF105991999021008001001001MA1999999100661MD1999999+0211MW1021REMSYN017333   58021 60021EQDQ01+000042SCOTLC
0115832290999991988011400004-13017-038517FM-12+005199999V0200901N00151220001CN9999999N9+02601+02391101351ADDAA106000091AG10999GF103991021021008001011001KA1240M+02961MA1999999100761MD1999999+0231REMSYN017333   10296 58023
0143832290999991988011412004-13017-038517FM-12+005199999V0201401N00151220001CN0100001N9+02811+02361100961ADDAA124004091AG10999AY121061AY211061GF103991021031004501031001KA1240N+02541MA1999999100361MD1999999+0121MW1021REMSYN023333   20254 58012 60044
0096832290999991988011418004-13017-038517FM-12+005199999V0201401N00311220001CN0200001N9+02491+99999101211ADDAA106000091AG10999GF104991021031008001031001MA1999999100611MD1999999-0051REMSYN011333   59005
0115832290999991988011500004-13017-038517FM-12+005199999V0201401N00361220001CN9999999N9+02611+02351101191ADDAA106000091AG10999GF104991021021008001031001KA1240M+02941MA1999999100591MD1999999-0711REMSYN017333   10294 59071
0143832290999991988011512004-13017-038517FM-12+005199999V0201401N00151220001CN0100001N9+02701+02391101321ADDAA124005091AG10999AY161061AY261061GF104991021041008001041001KA1240N+02401MA1999999100721MD1999999+0361MW1011REMSYN023333   20240 58036 60054
0096832290999991988011518004-13017-038517FM-12+005199999V0201401N00261220001CN0100001N9+02881+02461101111ADDAA106000091AG10999GF103991031051008001001001MA1999999100521MD1999999-0091REMSYN011333   59009
0115832290999991988011600004-13017-038517FM-12+005199999V0201401N00211007501CN9999999N9+02581+02371101251ADDAA106000091AG10999GF106991061041008001001001KA1240M+02951MA1999999100661MD1999999+0071REMSYN017333   10295 58007
0143832290999991988011612004-13017-038517FM-12+005199999V0203601N00101007501CN0200001N9+99999+99999101371ADDAA124010091AG10999AY161061AY261061GF107991061051008001031001KA1240N+02331MA1999999100771MD1999999+0051MW1531REMSYN023333   20233 58005 60104
0096832290999991988011618004-13017-038517FM-12+005199999V0201401N00311220001CN0200001N9+02911+02501101111ADDAA106000091AG10999GF101991011021008001001001MA1999999100511MD1999999-0011REMSYN011333   59001
0115832290999991988011700004-13017-038517FM-12+005199999V0201401N00211220001CN9999999N9+02621+02271101271ADDAA106000091AG10999GF100991001001999999001001KA1240M+02931MA1999999100671MD1999999+0011REMSYN017333   10293 58001
0143832290999991988011712004-13017-038517FM-12+005199999V0200901N00151220001CN0040001N9+02701+02301101301ADDAA124001091AG10999AY161061AY221061GF106991031021008001001011KA1240N+02501MA1999999100711MD1999999-0061MW1021REMSYN023333   20250 59006 60014
0096832290999991988011718004-13017-038517FM-12+005199999V0201401N00151220001CN0100001N9+02921+02411100991ADDAA106000091AG10999GF101991011011008001001001MA1999999100401MD1999999-0111REMSYN011333   59011
0115832290999991988011800004-13017-038517FM-12+005199999V0201401N00151220001CN9999999N9+02681+02281101121ADDAA106000091AG10999GF103991031021008001001001KA1240M+03021MA1999999100521MD1999999-0151REMSYN017333   10302 59015
0123832290999991988011812004-13017-038517FM-12+005199999V0201401N00151007501CN0100001N9+02661+99999101281ADDAA124003091AG10999AY131061AY211061GF105991051041008001001001KA1240N+02521MA1999999100691MW1601REMSYN017333   20252 60034
0096832290999991988011818004-13017-038517FM-12+005199999V0201401N00101220001CN0200001N9+02901+02431101061ADDAA106000091AG10999GF102991021011008001001001MA1999999100481MD1999999+0081REMSYN011333   58008
0115832290999991988011900004-13017-038517FM-12+005199999V0200901N00151012001CN9999999N9+02641+02411101241ADDAA106000091AG10999GF107991051081008001051001KA1240M+02971MA1999999100651MD1999999+0131REMSYN017333   10297 58013
0143832290999991988011912004-13017-038517FM-12+005199999V0201401N00151004201CN0100001N9+02611+02351101361ADDAA124003091AG10999AY111061AY221061GF107991071051004501001001KA1240N+02491MA1999999100761MD1999999+0071MW1601REMSYN023333   20249 58007 60034
0096832290999991988011918004-13017-038517FM-12+005199999V0201401N00101220001CN0200001N9+02931+02411101161ADDAA106000091AG10999GF101991011011008001001001MA1999999100571MD1999999+0091REMSYN011333   58009
0115832290999991988012000004-13017-038517FM-12+005199999V0200901N00151220001CN9999999N9+02611+02231101151ADDAA106000091AG10999GF100991001001999999001001KA1240M+02981MA1999999100551MD1999999-0101REMSYN017333   10298 59010
0115832290999991988012012004-13017-038517FM-12+005199999V0201401N00101220001CN0200001N9+02871+02261101211ADDAA106000091AG10999GF103991031021008001001001KA1240N+02511MA1999999100621MD1999999-0141REMSYN017333   20251 59014
0096832290999991988012018004-13017-038517FM-12+005199999V0201401N00211220001CN0200001N9+02941+02291100941ADDAA106000091AG10999GF102991011011008001001011MA1999999100351MD1999999-0221REMSYN011333   59022
0115832290999991988012100004-13017-038517FM-12+005199999V0201401N00151220001CN9999999N9+02731+02301101091ADDAA106000091AG10999GF100991001001999999001001KA1240M+03011MA1999999100501MD1999999-0051REMSYN017333   10301 59005
0115832290999991988012112004-13017-038517FM-12+005199999V0200901N00211220001CN0200001N9+02951+02261101241ADDAA106000091AG10999GF104991041031008001001001KA1240N+02591MA1999999100641MD1999999+0021REMSYN017333   20259 58002
0096832290999991988012118004-13017-038517FM-12+005199999V0200901N00211015001CN0200001N9+02901+02321100931ADDAA106000091AG10999GF106991061001017501021001MA1999999100331MD1999999-0021REMSYN011333   59002
0115832290999991988012200004-13017-038517FM-12+005199999V0200901N00151105001CN9999999N9+02861+02351101041ADDAA106000091AG10999GF106991011011008001001021KA1240M+03061MA1999999100451MD1999999-0051REMSYN017333   10306 59005
0115832290999991988012212004-13017-038517FM-12+005199999V0200901N00261220001CN0200001N9+02911+02271101191ADDAA106000091AG10999GF103991031031008001001001KA1240N+02511MA1999999100591MD1999999-0051REMSYN017333   20251 59005
0096832290999991988012218004-13017-038517FM-12+005199999V0200901N00101220001CN0100001N9+03001+02391100841ADDAA106000091AG10999GF101991011011008001001001MA1999999100251MD1999999-0081REMSYN011333   59008
0115832290999991988012300004-13017-038517FM-12+005199999V0200901N00151220001CN9999999N9+02831+02361101011ADDAA106000091AG10999GF102991021061008001001001KA1240M+03071MA1999999100421MD1999999-0031REMSYN017333   10307 59003
0115832290999991988012312004-13017-038517FM-12+005199999V0200501N00101220001CN0200001N9+02941+02191101221ADDAA106000091AG10999GF103991031021008001001001KA1240N+02501MA1999999100641MD1999999+0051REMSYN017333   20250 58005
0096832290999991988012318004-13017-038517FM-12+005199999V0201401N00151220001CN0200001N9+02921+02361101061ADDAA106000091AG10999GF102991021011008001001011MA1999999100481MD1999999+0231REMSYN011333   58023
0115832290999991988012400004-13017-038517FM-12+005199999V0201401N00101220001CN9999999N9+02501+02341101161ADDAA106000091AG10999GF101991011011008001001001KA1240M+03061MA1999999100561MD1999999+0141REMSYN017333   10306 58014
0121832290999991988012412004-13017-038517FM-12+005199999V0200901N00151045001CN0100001N9+02731+02151101181ADDAA124001091AG10999GF107991031041008001031001KA1240N+02461MA1999999100581MD1999999-0061REMSYN023333   20246 59006 60014
0096832290999991988012418004-13017-038517FM-12+005199999V0200901N00261220001CN0200001N9+03071+02331101021ADDAA106000091AG10999GF104991011031008001031001MA1999999100421MD1999999-0061REMSYN011333   59006
0115832290999991988012500004-13017-038517FM-12+005199999V0201801N00261220001CN9999999N9+02631+02211101151ADDAA106000091AG10999GF101991011021008001001001KA1240M+03081MA1999999100551MD1999999-0011REMSYN017333   10308 59001
0115832290999991988012512004-13017-038517FM-12+005199999V0201401N00151007501CN0100001N9+02861+02311101101ADDAA106000091AG10999GF105991051021008001001001KA1240N+02601MA1999999100611MD1999999+0031REMSYN017333   20260 58003
0124832290999991988012518004-13017-038517FM-12+005199999V0201401N00261105001CN0100001N9+02901+02201100951ADDAA106002091AG10999AY161061AY211061GF106991031041008001001021MA1999999100361MD1999999-0061MW1011REMSYN017333   59006 60021
0143832290999991988012600004-13017-038517FM-12+005199999V0201401N00151012001CN9999999N9+02661+02241101191ADDAA106999929AG10999AY111061AY211061GF106991061041012501001001KA1240M+03031MA1999999100661MD1999999-0051MW1501REMSYN023333   10303 59005 69901
0143832290999991988012612004-13017-038517FM-12+005199999V0201801N00211045001CN0100001N9+02611+02391101181ADDAA124004091AG10999AY161061AY221061GF106991021051008001021001KA1240N+02441MA1999999100581MD1999999-0061MW1601REMSYN023333   20244 59006 60044
0124832290999991988012618004-13017-038517FM-12+005199999V0201801N00311015001CN0100001N9+02651+02311101021ADDAA106001091AG10999AY161061AY261061GF106991061001017501061001MA1999999100421MD1999999+0061MW1531REMSYN017333   58006 60011
0115832290999991988012700004-13017-038517FM-12+005199999V0201401N00101220001CN9999999N9+02481+02301101171ADDAA106000091AG10999GF101991011021008001001001KA1240M+02901MA1999999100571MD1999999-0031REMSYN017333   10290 59003
0121832290999991988012712004-13017-038517FM-12+005199999V0200901N00101220001CN0200001N9+02921+02321101211ADDAA124004091AG10999GF103991031051008001001001KA1240N+02381MA1999999100611MD1999999+0031REMSYN023333   20238 58003 60044
0096832290999991988012718004-13017-038517FM-12+005199999V0201401N00151220001CN0200001N9+02951+02311100911ADDAA106000091AG10999GF101991011011008001001001MA1999999100321MD1999999-0101REMSYN011333   59010
0115832290999991988012800004-13017-038517FM-12+005199999V0201401N00151220001CN9999999N9+02591+02271101051ADDAA106000091AG10999GF101991011011008001001001KA1240M+02991MA1999999100461MD1999999-0111REMSYN017333   10299 59011
0115832290999991988012812004-13017-038517FM-12+005199999V0200901N00101007501CN0200001N9+02841+02121101201ADDAA106000091AG10999GF105991051031008001001001KA1240N+02461MA1999999100621MD1999999+0011REMSYN017333   20246 58001
0096832290999991988012818004-13017-038517FM-12+005199999V0201401N00151220001CN0200001N9+03001+02141100921ADDAA106000091AG10999GF103991031021008001001001MA1999999100341MD1999999+0021REMSYN011333   58002
0115832290999991988012900004-13017-038517FM-12+005199999V0200501N00101220001CN9999999N9+02701+02411101051ADDAA106000091AG10999GF103991031031008001001001KA1240M+03081MA1999999100471MD1999999+0011REMSYN017333   10308 58001
0115832290999991988012912004-13017-038517FM-12+005199999V0200901N00151007501CN0100001N9+02861+02541101221ADDAA106000091AG10999GF105991051041008001001001KA1240N+02541MA1999999100641MD1999999+0021REMSYN017333   20254 58002
0115832290999991988012918004-13017-038517FM-12+005199999V0200901N00261220001CN0200001N9+02971+02351100881ADDAA106000091AG10999GF102991001001999999001011MA1999999100281MD1999999-0061REMSYN011333   59006EQDQ01+000952SCOLCB
0115832290999991988013000004-13017-038517FM-12+005199999V0201801N00361220001CN9999999N9+02681+02371100761ADDAA106000091AG10999GF101991001001999999001041KA1240M+03121MA1999999100361MD1999999-0111REMSYN017333   10312 59011
0115832290999991988013012004-13017-038517FM-12+005199999V0200501N00211220001CN0200001N9+02961+99999101151ADDAA106000091AG10999GF104991041021008001001001KA1240N+02551MA1999999100561MD1999999-0081REMSYN017333   20255 59008
0096832290999991988013018004-13017-038517FM-12+005199999V0201401N00151220001CN0200001N9+03001+02191100941ADDAA106000091AG10999GF102991021021008001001001MA1999999100351MD1999999+0071REMSYN011333   58007
0115832290999991988013100004-13017-038517FM-12+005199999V0201401N00211220001CN9999999N9+02661+02271101111ADDAA106000091AG10999GF101991011011008001001001KA1240M+03161MA1999999100521MD1999999+0161REMSYN017333   10316 58016
0096832290999991988013118004-13017-038517FM-12+005199999V0201401N00311045001CN0200001N9+02891+02501100921ADDAA106000091AG10999GF106991031041008001031001MA1999999100321MD1999999-0031REMSYN011333   59003
0115832290999991988020100004-13017-038517FM-12+005199999V0200901N00311220001CN9999999N9+02691+02241100981ADDAA106000091AG10999GF102991021001017501031001KA1240M+03101MA1999999100381MD1999999-0141REMSYN017333   10310 59014
0143832290999991988020112004-13017-038517FM-12+005199999V0200901N00101007501CN0100001N9+02871+02351101071ADDAA124006091AG10999AY161061AY221061GF105991051021008001001001KA1240N+02521MA1999999100481MD1999999-0071MW1021REMSYN023333   20252 59007 60064
0096832290999991988020118004-13017-038517FM-12+005199999V0200901N00151220001CN0200001N9+03011+02441100821ADDAA106000091AG10999GF101991011011008001001001MA1999999100131MD1999999-0191REMSYN011333   59019
0115832290999991988020212004-13017-038517FM-12+005199999V0200501N00151007501CN0100001N9+02801+02271100941ADDAA106000091AG10999GF105991051041008001001001KA1240N+02481MA1999999100361MD1999999-0121REMSYN017333   20248 59012
0096832290999991988020218004-13017-038517FM-12+005199999V0201401N00151220001CN0200001N9+03041+02281100781ADDAA106000091AG10999GF101991011011008001001001MA1999999100201MD1999999+0071REMSYN011333   58007
0101832290999991988020300004-13017-038517FM-12+005199999V0201401N00151220001CN9999999N9+02661+02221100961ADDAA106000091AG10999GF103991021011017501001031KA1240M+03101MA1999999100371REMSYN017333   10310 580//
0137832290999991988020312004-13017-038517FM-12+005199999V0200501N00311007501CN0040001N9+02861+02261101001ADDAA106000091AG10999AY111061AY211061GF108991081071008001999999KA1240N+02481MA1999999100411MD1999999+0051MW1051REMSYN017333   20248 58005
0115832290999991988020400004-13017-038517FM-12+005199999V0200901N00261007501CN9999999N9+02621+02371101011ADDAA106000091AG10999GF105991051051008001001001KA1240M+03021MA1999999100421MD1999999+0051REMSYN017333   10302 58005
0121832290999991988020412004-13017-038517FM-12+005199999V0200901N00151220001CN0040001N9+02861+02331101051ADDAA124002091AG10001GF104991041051008001001001KA1240N+02641MA1999999100451MD1999999+0041REMSYN023333   20264 58004 60024
0096832290999991988020418004-13017-038517FM-12+005199999V0201401N00411220001CN0040001N9+02871+02281100861ADDAA106000091AG10999GF104991031041008001031001MA1999999100261MD1999999+0061REMSYN011333   58006
0115832290999991988020500004-13017-038517FM-12+005199999V0200901N00311220001CN9999999N9+02661+02241101021ADDAA106000091AG10999GF100991001001999999001001KA1240M+03151MA1999999100421MD1999999+0001REMSYN017333   10315 58000
0107832290999991988020512004-13017-038517FM-12+005199999V0203601N00101007501CN0100001N9+02791+02401101141ADDAA106000091AG10999GF107991071051008001001001KA1240N+02511MA1999999100551REMSYN023333   20251 5800/ 58008
0135832290999991988020518004-13017-038517FM-12+005199999V0200901N00151220001CN0200001N9+03041+02431100901ADDAA106000491AA299000591AG10999AY161061AY201061GF101991011011008001001001MA1999999100311MD1999999+0051MW1021REMSYN017333   58005 69941
0115832290999991988020600004-13017-038517FM-12+005199999V0200901N00151220001CN9999999N9+02641+02251101061ADDAA106000091AG10999GF102991021011008001001001KA1240M+03091MA1999999100471MD1999999+0051REMSYN017333   10309 58005
0132832290999991988020612004-13017-038517FM-12+005199999V0200901N00151007501CN0200001N9+03001+02391101181ADDAA106000091AA224000491AG10999GF105991051041008001001001KA1240N+02541MA1999999100601MD1999999+0051REMSYN023333   20254 58005 69944
0096832290999991988020618004-13017-038517FM-12+005199999V0200901N00151220001CN0200001N9+03061+02301101001ADDAA106000091AG10999GF103991021011008001031001MA1999999100421MD1999999+0111REMSYN011333   58011
0115832290999991988020700004-13017-038517FM-12+005199999V0200901N00101220001CN9999999N9+02681+02311101201ADDAA106000091AG10999GF101991001001999999001011KA1240M+03101MA1999999100601MD1999999+0131REMSYN017333   10310 58013
0115832290999991988020712004-13017-038517FM-12+005199999V0200901N00151220001CN0200001N9+03051+02361101241ADDAA106000091AG10999GF102991021021008001001001KA1240N+02691MA1999999100641MD1999999+0041REMSYN017333   20269 58004
0096832290999991988020718004-13017-038517FM-12+005199999V0201401N00211220001CN0200001N9+03031+02271101021ADDAA106000091AG10999GF100991001001999999001001MA1999999100431MD1999999+0011REMSYN011333   58001
0115832290999991988020800004-13017-038517FM-12+005199999V0201401N00151220001CN9999999N9+02661+02251101171ADDAA106000091AG10999GF100991001001999999001001KA1240M+03151MA1999999100581MD1999999-0021REMSYN017333   10315 59002
0115832290999991988020812004-13017-038517FM-12+005199999V0200901N00151220001CN0100001N9+02911+02251101191ADDAA106000091AG10001GF102991021041008001001001KA1240N+02681MA1999999100591MD1999999-0051REMSYN017333   20268 59005
0096832290999991988020818004-13017-038517FM-12+005199999V0201401N00361220001CN0200001N9+03021+02311100921ADDAA106000091AG10999GF101991011001017501031001MA1999999100321MD1999999-0111REMSYN011333   59011
0115832290999991988020912004-13017-038517FM-12+005199999V0200501N00151220001CN0100001N9+02901+02391101041ADDAA106000091AG10999GF104991041021008001001001KA1240N+02601MA1999999100451MD1999999-0141REMSYN017333   20260 59014
0096832290999991988020918004-13017-038517FM-12+005199999V0201401N00151220001CN0200001N9+03061+02451100741ADDAA106000091AG10999GF101991011011008001001001MA1999999100151MD1999999-0171REMSYN011333   59017
0115832290999991988021000004-13017-038517FM-12+005199999V0200501N00151220001CN9999999N9+02671+02331100821ADDAA106000091AG10999GF101991011011008001001001KA1240M+03031MA1999999100231MD1999999-0071REMSYN017333   10303 59007
0156832290999991988021012004-13017-038517FM-12+005199999V0200501N00311007501CN0040001N9+02811+02311101021ADDAA106999999AG10999AY111061AY211061GF107991071051008001001001KA1240N+02571MA1999999100421MD1999999-0031MW1961REMSYN017333   20257 59003EQDQ01  00002PRCP06
0096832290999991988021018004-13017-038517FM-12+005199999V0200901N00101220001CN0200001N9+03021+02461100721ADDAA106000091AG10999GF102991021011008001001001MA1999999100141MD1999999-0011REMSYN011333   59001
0115832290999991988021100004-13017-038517FM-12+005199999V0200901N00211220001CN9999999N9+02661+02311100811ADDAA106000091AG10999GF101991011011008001001001KA1240M+03141MA1999999100221MD1999999-0011REMSYN017333   10314 59001
0115832290999991988021112004-13017-038517FM-12+005199999V0203601N00151045001CN0100001N9+02821+02541100931ADDAA106000091AG10999GF106991041061008001011001KA1240N+02521MA1999999100351MD1999999-0071REMSYN017333   20252 59007
0096832290999991988021118004-13017-038517FM-12+005199999V0200901N00261220001CN0200001N9+03061+02191100681ADDAA106000091AG10999GF101991011001017501041001MA1999999100101MD1999999-0031REMSYN011333   59003
0115832290999991988021200004-13017-038517FM-12+005199999V0200901N00211220001CN9999999N9+02731+02261100801ADDAA106000091AG10999GF100991001001999999001001KA1240M+03141MA1999999100221MD1999999+0001REMSYN017333   10314 58000
0115832290999991988021212004-13017-038517FM-12+005199999V0200501N00051007501CN0020001N9+02811+02401101121ADDAA106000091AG10999GF106991051051008001001011KA1240N+02411MA1999999100521MD1999999+0171REMSYN017333   20241 58017
0096832290999991988021218004-13017-038517FM-12+005199999V0201401N00261220001CN0200001N9+02991+02371100791ADDAA106000091AG10999GF102991021001017501031001MA1999999100191MD1999999+0021REMSYN011333   58002
0115832290999991988021300004-13017-038517FM-12+005199999V0201401N00101220001CN9999999N9+02661+02291101021ADDAA106000091AG10999GF100991001001999999001001KA1240M+03141MA1999999100421MD1999999+0221REMSYN017333   10314 58022
0115832290999991988021312004-13017-038517FM-12+005199999V0201401N00151220001CN0200001N9+02931+02241101091ADDAA106000091AG10999GF102991011031008001001011KA1240N+02661MA1999999100491MD1999999-0121REMSYN017333   20266 59012
0096832290999991988021318004-13017-038517FM-12+005199999V0201401N00261220001CN0200001N9+02991+02301100801ADDAA106000091AG10001GF101991011021008001001001MA1999999100201MD1999999+0011REMSYN011333   58001
0115832290999991988021400004-13017-038517FM-12+005199999V0201401N00211220001CN9999999N9+02681+02221100991ADDAA106000091AG10999GF101991011021008001001001KA1240M+03161MA1999999100391MD1999999-0031REMSYN017333   10316 59003
0115832290999991988021412004-13017-038517FM-12+005199999V0200901N00261007501CN0100001N9+02931+02291101241ADDAA106000091AG10999GF107991071051008001001001KA1240N+02541MA1999999100641MD1999999+0151REMSYN017333   20254 58015
0096832290999991988021418004-13017-038517FM-12+005199999V0201401N00261220001CN0200001N9+02951+02431100921ADDAA106000091AG10999GF101991011001017501031001MA1999999100321MD1999999+0121REMSYN011333   58012
0134832290999991988021500004-13017-038517FM-12+005199999V0200901N03242220001CN9999999N9+02661+02201101021ADDAA106000091AG10999GF100991001001999999001001KA1240M+03141MA1999999100421MD1999999+0031REMSYN017333   10314 58003EQDQ01+003243WOSPD 
0115832290999991988021512004-13017-038517FM-12+005199999V0203601N00151220001CN0100001N9+02861+02421101101ADDAA106000091AG10999GF103991031021008001001001KA1240N+02521MA1999999100511MD1999999-0131REMSYN017333   20252 59013
0096832290999991988021518004-13017-038517FM-12+005199999V0201401N00151220001CN0100001N9+03001+02391100781ADDAA106000091AG10999GF103991031011008001001001MA1999999100201MD1999999-0481REMSYN011333   59048
0115832290999991988021600004-13017-038517FM-12+005199999V0201401N00101220001CN9999999N9+02731+02371100871ADDAA106000091AG10999GF100991001001999999001001KA1240M+03121MA1999999100291MD1999999-0061REMSYN017333   10312 59006
0115832290999991988021612004-13017-038517FM-12+005199999V0200901N00151220001CN0100001N9+03021+02391101061ADDAA106000091AG10999GF104991041021008001001001KA1240N+02501MA1999999100471MD1999999-0041REMSYN017333   20250 59004
0096832290999991988021618004-13017-038517FM-12+005199999V0200901N00151220001CN0100001N9+03031+02361100781ADDAA106000091AG10999GF103991031021008001001001MA1999999100191MD1999999-0011REMSYN011333   59001
0115832290999991988021700004-13017-038517FM-12+005199999V0201401N00151220001CN9999999N9+02771+02321100881ADDAA106000091AG10999GF103991031011008001001001KA1240M+03141MA1999999100291MD1999999+0001REMSYN017333   10314 58000
0115832290999991988021712004-13017-038517FM-12+005199999V0201801N00101007501CN0040001N9+02831+02381100911ADDAA106000091AG10999GF107991071051008001001001KA1240N+02561MA1999999100321MD1999999-0151REMSYN017333   20256 59015
0096832290999991988021718004-13017-038517FM-12+005199999V0201401N00151220001CN0100001N9+03131+02361100651ADDAA106000091AG10999GF104991011021008001001011MA1999999100061MD1999999-0131REMSYN011333   59013
0115832290999991988021800004-13017-038517FM-12+005199999V0200501N00211220001CN9999999N9+02711+02281100821ADDAA106000091AG10999GF101991011011008001001001KA1240M+03201MA1999999100231MD1999999-0061REMSYN017333   10320 59006
0115832290999991988021812004-13017-038517FM-12+005199999V0200901N00151220001CN0100001N9+02991+02351100891ADDAA106000091AG10999GF103991031021008001001001KA1240N+02531MA1999999100301MD1999999-0021REMSYN017333   20253 59002
0096832290999991988021818004-13017-038517FM-12+005199999V0200901N00151220001CN0100001N9+03121+02191100671ADDAA106000091AG10999GF103991011011008001001021MA1999999100081MD1999999+0021REMSYN011333   58002
0115832290999991988021900004-13017-038517FM-12+005199999V0200901N00151220001CN9999999N9+02751+02301100931ADDAA106000091AG10999GF103991031021008001001001KA1240M+03221MA1999999100341MD1999999+0111REMSYN017333   10322 58011
0115832290999991988021912004-13017-038517FM-12+005199999V0200901N00051007501CN0100001N9+02901+02411101181ADDAA106000091AG10999GF106991061041008001001001KA1240N+02501MA1999999100591MD1999999+0291REMSYN017333   20250 58029
0096832290999991988021918004-13017-038517FM-12+005199999V0201401N00151220001CN0200001N9+02981+02351100881ADDAA106000091AG10999GF101991011011008001001001MA1999999100301MD1999999+0221REMSYN011333   58022
0115832290999991988022000004-13017-038517FM-12+005199999V0201301N00151220001CN9999999N9+02741+02301101091ADDAA106000091AG10999GF101991011011008001001001KA1240M+03201MA1999999100501MD1999999+0161REMSYN017333   10320 58016
0132832290999991988022012004-13017-038517FM-12+005199999V0200901N00211220001CN0100001N9+02791+02421101211ADDAA124000991AA299001091AG10999GF102991021041008001001001KA1240N+02591MA1999999100611MD1999999+0021REMSYN023333   20259 58002 69994
0096832290999991988022018004-13017-038517FM-12+005199999V0201401N00361220001CN0100001N9+03131+02411101021ADDAA106000091AG10999GF102991011021008001001011MA1999999100421MD1999999+0121REMSYN011333   58012
0115832290999991988022100004-13017-038517FM-12+005199999V0200901N00151220001CN9999999N9+02811+02251101061ADDAA106000091AG10999GF104991021021008001001011KA1240M+03231MA1999999100461MD1999999-0041REMSYN017333   10323 59004
0143832290999991988022112004-13017-038517FM-12+005199999V0203601N00101007501CN0020001N9+02651+02361101211ADDAA124007091AG10999AY161061AY221061GF108991081071008001999999KA1240N+02621MA1999999100621MD1999999+0011MW1021REMSYN023333   20262 58001 60074
0096832290999991988022118004-13017-038517FM-12+005199999V0201401N00151220001CN0100001N9+03041+02411100971ADDAA106000091AG10999GF103991011021008001001011MA1999999100381MD1999999-0041REMSYN011333   59004
0115832290999991988022200004-13017-038517FM-12+005199999V0201401N00151220001CN9999999N9+02721+02371101151ADDAA106000091AG10999GF101991011011008001001001KA1240M+03131MA1999999100561MD1999999+0101REMSYN017333   10313 58010
0096832290999991988022218004-13017-038517FM-12+005199999V0201801N00151012001CN0040001N9+02711+02481100891ADDAA106000091AG10999GF107991071081008001001001MA1999999100301MD1999999-0081REMSYN011333   59008
0134832290999991988022300004-13017-038517FM-12+005199999V0201801N00151220001CN9999999N9+02621+02351101081ADDAA106000091AG10999GF103991031021008001001001KA1240M+99999MA1999999100491MD1999999-0071REMSYN017333   10239 59007EQDQ01 +02392ATMX  
0143832290999991988022312004-13017-038517FM-12+005199999V0202301N00101004201CN0020001N9+02601+02461100981ADDAA124003091AG10999AY161061AY211061GF108991081071004501999999KA1240N+01951MA1999999100391MD1999999-0181MW1031REMSYN023333   20195 59018 60034
0096832290999991988022318004-13017-038517FM-12+005199999V0201801N00311045001CN0040001N9+02741+02321100681ADDAA106000091AG10999GF107991041051008001021021MA1999999100091MD1999999-0211REMSYN011333   59021
0115832290999991988022400004-13017-038517FM-12+005199999V0201801N00211007501CN9999999N9+02641+02371100891ADDAA106000091AG10999GF106991061051008001001001KA1240M+02821MA1999999100301MD1999999-0191REMSYN017333   10282 59019
0143832290999991988022412004-13017-038517FM-12+005199999V0200901N00101004201CN0500001N9+02351+02241100941ADDAA124009091AG10999AY191061AY221061GF108991081071004501999999KA1240N+02331MA1999999100341MD1999999-0051MW1071REMSYN023333   20233 59005 60094
0124832290999991988022418004-13017-038517FM-12+005199999V0201401N002619999999N0100001N9+02761+02341100621ADDAA106002091AG10999AY121061AY261061GF106991061001008001031001MA1999999100021MD1999999-0071MW1021REMSYN017333   59007 60021
0115832290999991988022500004-13017-038517FM-12+005199999V0201401N00261007501CN9999999N9+02611+02331100651ADDAA106000091AG10999GF106991061041008001001001KA1240M+02851MA1999999100051MD1999999-0151REMSYN017333   10285 59015
0143832290999991988022512004-13017-038517FM-12+005199999V0200901N00101045001CN0040001N9+02561+02351100791ADDAA124003091AG10999AY151061AY221061GF108991041081008001051001KA1240N+02481MA1999999100201MD1999999-0141MW1021REMSYN023333   20248 59014 60034
0096832290999991988022518004-13017-038517FM-12+005199999V0201801N00151220001CN0100001N9+02831+02381100451ADDAA106000091AG10999GF104991011081008001001011MA1999999099861MD1999999-0161REMSYN011333   59016
0115832290999991988022600004-13017-038517FM-12+005199999V0201401N00151220001CN9999999N9+02641+02291100611ADDAA106000091AG10999GF103991031021008001001001KA1240M+02941MA1999999100021MD1999999-0031REMSYN017333   10294 59003
0154832290999991988022612004-13017-038517FM-12+005199999V0200501N00361004201CN0020001N9+02521+02311100991ADDAA124000691AA299000591AG10999AY151061AY221061GF108991081071004501999999KA1240N+02331MA1999999100401MD1999999-0201MW1171REMSYN023333   20233 59020 69964
0124832290999991988022618004-13017-038517FM-12+005199999V0200901N00151045001CN0100001N9+02881+02481100731ADDAA106003091AG10999AY161061AY221061GF106991011011008001031021MA1999999100141MD1999999+0281MW1011REMSYN017333   58028 60031
0143832290999991988022700004-13017-038517FM-12+005199999V0200901N00211007501CN9999999N9+02581+02311100951ADDAA106000591AG10999AY151061AY221061GF108991081071008001999999KA1240M+02911MA1999999100361MD1999999+0341MW1601REMSYN023333   10291 58034 69951
0143832290999991988022712004-13017-038517FM-12+005199999V0201801N00051007501CN0020001N9+02361+02281101021ADDAA124021091AG10999AY191061AY261061GF108991081071008001999999KA1240N+02291MA1999999100431MD1999999+0031MW1021REMSYN023333   20229 58003 60214
0124832290999991988022718004-13017-038517FM-12+005199999V0201401N00151045001CN0020001N9+02681+02451100721ADDAA106004091AG10999AY161061AY221061GF107991011021008001051011MA1999999100151MD1999999+0011MW1021REMSYN017333   58001 60041
0143832290999991988022800004-13017-038517FM-12+005199999V0201401N00151007501CN9999999N9+02381+02301101051ADDAA106009091AG10999AY191061AY261061GF108991081071008001999999KA1240M+02761MA1999999100461MD1999999+0101MW1611REMSYN023333   10276 58010 60091
0143832290999991988022812004-13017-038517FM-12+005199999V0201401N00151045001CN0100001N9+02891+02411101371ADDAA124014091AG10001AY161061AY221061GF106991041031008001031011KA1240N+02521MA1999999100771MD1999999-0251MW1031REMSYN023333   20252 59025 60144
0096832290999991988022818004-13017-038517FM-12+005199999V0201401N00361220001CN0100001N9+02901+02431100841ADDAA106000091AG10999GF104991021041008001031011MA1999999100241MD1999999+0091REMSYN011333   58009
0143832290999991988022900004-13017-038517FM-12+005199999V0201401N00211220001CN9999999N9+02631+02351100961ADDAA106000591AG10999AY161061AY261061GF104991041051004501001001KA1240M+03041MA1999999100361MD1999999-0101MW1531REMSYN023333   10304 59010 69951
0121832290999991988022912004-13017-038517FM-12+005199999V0202301N00101220001CN0100001N9+02831+02521100971ADDAA124000591AG10999GF104991041051008001001001KA1240N+02501MA1999999100381MD1999999-0391REMSYN023333   20250 59039 69954
0096832290999991988022918004-13017-038517FM-12+005199999V0201401N00151220001CN0100001N9+02991+02531100871ADDAA106000091AG10999GF104991011011008001001021MA1999999100281MD1999999+0041REMSYN011333   58004
0115832290999991988030100004-13017-038517FM-12+005199999V0200501N00151220001CN9999999N9+02741+02341100971ADDAA106000091AG10999GF104991011011008001051001KA1240M+03041MA1999999100381MD1999999+0021REMSYN017333   10304 58002
0115832290999991988030112004-13017-038517FM-12+005199999V0200901N00151220001CN0100001N9+02881+02481101151ADDAA106000091AG10999GF105991041041008001001011KA1240N+02481MA1999999100551MD1999999+0171REMSYN017333   20248 58017
0115832290999991988030118004-13017-038517FM-12+005199999V0201401N00261220001CN0100001N9+02961+02401100821ADDAA106000091AG10999GF102991001001999999001011MA1999999100221MD1999999-0061REMSYN011333   59006EQDQ01+000982SCOLCB
0115832290999991988030200004-13017-038517FM-12+005199999V0201401N00361220001CN9999999N9+02701+02261100991ADDAA106000091AG10999GF100991001001999999001001KA1240M+03061MA1999999100391MD1999999+0011REMSYN017333   10306 58001
0143832290999991988030212004-13017-038517FM-12+005199999V0200501N00261004201CN0040001N9+02731+02391101301ADDAA124001091AG10999AY121061AY261061GF106991061071004501001001KA1240N+02501MA1999999100701MD1999999+0151MW1631REMSYN023333   20250 58015 60014
0143832290999991988030218004-13017-038517FM-12+005199999V0201401N00151220001CN0100001N9+03011+02511100931ADDAA106004091AG10999AY161061AY211061GF103991001001999999001011MA1999999100331MD1999999-0051MW1031REMSYN017333   59005 60041EQDQ01+000982SCOLCB
0115832290999991988030300004-13017-038517FM-12+005199999V0201401N00361220001CN9999999N9+02731+02341100931ADDAA106000091AG10999GF100991001001999999001001KA1240M+03041MA1999999100331MD1999999-0041REMSYN017333   10304 59004
0121832290999991988030312004-13017-038517FM-12+005199999V0200501N00101220001CN0040001N9+02881+02411101151ADDAA124003091AG10999GF104991031041008001001011KA1240N+02521MA1999999100551MD1999999-0151REMSYN023333   20252 59015 60034
0096832290999991988030318004-13017-038517FM-12+005199999V0201401N00311220001CN0200001N9+03031+02391100761ADDAA106000091AG10999GF101991001001999999001011MA1999999100161MD1999999-0171REMSYN011333   59017
0115832290999991988030400004-13017-038517FM-12+005199999V0200901N00311220001CN9999999N9+02571+02321100781ADDAA106000091AG10001GF103991001001999999001011KA1240M+03081MA1999999100181MD1999999-0151REMSYN017333   10308 59015
0115832290999991988030412004-13017-038517FM-12+005199999V0202701N00151220001CN0100001N9+02821+02501101111ADDAA106000091AG10999GF105991021021008001001011KA1240N+02511MA1999999100521MD1999999-0031REMSYN017333   20251 59003
0096832290999991988030418004-13017-038517FM-12+005199999V0201401N00211220001CN0100001N9+03021+02411100701ADDAA106000091AG10999GF101991011011008001001001MA1999999100111MD1999999-0061REMSYN011333   59006
0115832290999991988030500004-13017-038517FM-12+005199999V0201401N00151220001CN9999999N9+02681+02351100811ADDAA106000091AG10999GF100991001001999999001001KA1240M+03201MA1999999100221MD1999999+0041REMSYN017333   10320 58004
0115832290999991988030512004-13017-038517FM-12+005199999V0200501N00101220001CN0100001N9+02911+02521101051ADDAA106000091AG10999GF101991011011008001001001KA1240N+02621MA1999999100461MD1999999+0001REMSYN017333   20262 58000
0096832290999991988030518004-13017-038517FM-12+005199999V0200901N00211220001CN0100001N9+03091+02651100731ADDAA106000091AG10999GF102991021011008001001001MA1999999100141MD1999999+0031REMSYN011333   58003
0115832290999991988030600004-13017-038517FM-12+005199999V0200501N00151220001CN9999999N9+02771+02481100811ADDAA106000091AG10999GF101991011011008001001001KA1240M+03241MA1999999100221MD1999999+0001REMSYN017333   10324 58000
0115832290999991988030612004-13017-038517FM-12+005199999V0200501N00151220001CN0100001N9+02861+02521101151ADDAA106000091AG10999GF104991041081008001001001KA1240N+02591MA1999999100561MD1999999+0901REMSYN017333   20259 58090
0096832290999991988030618004-13017-038517FM-12+005199999V0200901N00151220001CN0100001N9+03051+02641100791ADDAA106000091AG10999GF101991011011008001001001MA1999999100201MD1999999+0061REMSYN011333   58006
0115832290999991988030700004-13017-038517FM-12+005199999V0200501N00151220001CN9999999N9+02751+02341100861ADDAA106000091AG10999GF101991011011008001001001KA1240M+03191MA1999999100271MD1999999+0051REMSYN017333   10319 58005
0115832290999991988030712004-13017-038517FM-12+005199999V0200501N00151220001CN0040001N9+02811+02381101211ADDAA106000091AG10999GF103991031041008001001001KA1240N+02401MA1999999100611MD1999999+0051REMSYN017333   20240 58005
0096832290999991988030718004-13017-038517FM-12+005199999V0201401N00261220001CN0200001N9+03101+02491100851ADDAA106000091AG10999GF100991001001999999001001MA1999999100251MD1999999+0051REMSYN011333   58005
0115832290999991988030800004-13017-038517FM-12+005199999V0201401N00211220001CN9999999N9+02791+02321100991ADDAA106000091AG10999GF100991001001999999001001KA1240M+03101MA1999999100391MD1999999+0121REMSYN017333   10310 58012
0115832290999991988030812004-13017-038517FM-12+005199999V0203201N00151105001CN0100001N9+02761+02381100991ADDAA106000091AG10999GF105991021021008001001021KA1240N+02511MA1999999100401MD1999999-0211REMSYN017333   20251 59021
0096832290999991988030818004-13017-038517FM-12+005199999V0201401N00151220001CN0200001N9+03021+02461100701ADDAA106000091AG10999GF103991001001999999001031MA1999999100121MD1999999-0131REMSYN011333   59013
0115832290999991988030900004-13017-038517FM-12+005199999V0201401N00101220001CN9999999N9+02741+02321100841ADDAA106000091AG10999GF100991001001999999001001KA1240M+03121MA1999999100341MD1999999-0151REMSYN017333   10312 59015
0143832290999991988030912004-13017-038517FM-12+005199999V0201801N00151045001CN0020001N9+02441+02421101001ADDAA124005091AG10999AY131061AY221061GF108991021071004501041999KA1240N+02441MA1999999100401MD1999999+0001MW1971REMSYN023333   20244 58000 60054
0124832290999991988030918004-13017-038517FM-12+005199999V0201801N00211007501CN0020001N9+02441+02281100751ADDAA106009091AG10999AY161061AY221061GF108991081071008001999999MA1999999100161MD1999999+0041MW1291REMSYN017333   58004 60091
0115832290999991988031000004-13017-038517FM-12+005199999V0201801N00151220001CN9999999N9+02561+02211100821ADDAA106000091AG10999GF104991021021008001011001KA1240M+02741MA1999999100221MD1999999-0021REMSYN017333   10274 59002
0121832290999991988031012004-13017-038517FM-12+005199999V0202301N00211220001CN0040001N9+02711+02301101011ADDAA124009091AG10999GF104991011021008001031011KA1240N+02481MA1999999100411MD1999999+0011REMSYN023333   20248 58001 60094
0096832290999991988031018004-13017-038517FM-12+005199999V0201801N00151220001CN0200001N9+02881+02411100861ADDAA106000091AG10999GF103991021011008001001031MA1999999100281MD1999999+0121REMSYN011333   58012
0115832290999991988031100004-13017-038517FM-12+005199999V0201801N00151220001CN9999999N9+02781+02401101041ADDAA106000091AG10999GF102991021021008001001001KA1240M+02941MA1999999100451MD1999999+0231REMSYN017333   10294 58023
0143832290999991988031112004-13017-038517FM-12+005199999V0202701N00151007501CN0040001N9+02641+02441101231ADDAA124003091AG10999AY161061AY221061GF108991071071008001999999KA1240N+02481MA1999999100631MD1999999+0221MW1031REMSYN023333   20248 58022 60034
0124832290999991988031118004-13017-038517FM-12+005199999V0202301N00101007501CN0040001N9+02561+02361101071ADDAA106009091AG10999AY161061AY231061GF108991061071008001011999MA1999999100471MD1999999+0191MW1611REMSYN017333   58019 60091
0143832290999991988031212004-13017-038517FM-12+005199999V0202301N00151007501CN0040001N9+02551+02291101241ADDAA124014091AG10999AY161061AY221061GF108991081051008001999999KA1240N+02391MA1999999100651MD1999999+0021MW1021REMSYN023333   20239 58002 60144
0096832290999991988031218004-13017-038517FM-12+005199999V0201801N00151012001CN0100001N9+02781+02401101021ADDAA106000091AG10001GF106991061081008001001001MA1999999100431MD1999999-0041REMSYN011333   59004
0115832290999991988031300004-13017-038517FM-12+005199999V0201801N00101220001CN9999999N9+02681+02351101151ADDAA106000091AG10999GF103991021011008001031001KA1240M+02841MA1999999100561MD1999999-0111REMSYN017333   10284 59011
0143832290999991988031312004-13017-038517FM-12+005199999V0201801N00151007501CN0020001N9+02501+02481101081ADDAA124004091AG10999AY131061AY221061GF108991081071008001999999KA1240N+02461MA1999999100481MD1999999-0171MW1621REMSYN023333   20246 59017 60044
0124832290999991988031318004-13017-038517FM-12+005199999V0201801N00151045001CN0040001N9+02721+02451100691ADDAA106016091AG10999AY161061AY221061GF107991021021008001031001MA1999999100101MD1999999-0331MW1021REMSYN017333   59033 60161
0115832290999991988031400004-13017-038517FM-12+005199999V0201401N00151220001CN9999999N9+02641+02371100841ADDAA106000091AG10999GF104991011011008001051001KA1240M+02921MA1999999100251MD1999999-0311REMSYN017333   10292 59031
0121832290999991988031412004-13017-038517FM-12+005199999V0201801N00151045001CN0100001N9+02861+02421100971ADDAA124016091AG10999GF105991041041008001061001KA1240N+02541MA1999999100381MD1999999-0101REMSYN023333   20254 59010 60164
0096832290999991988031418004-13017-038517FM-12+005199999V0201401N00151220001CN0200001N9+02801+02361100621ADDAA106000091AG10999GF104991031021008001001011MA1999999100041MD1999999-0061REMSYN011333   59006
0115832290999991988031500004-13017-038517FM-12+005199999V0201401N00151220001CN9999999N9+02621+02311100981ADDAA106000091AG10999GF104991041021008001001011KA1240M+02961MA1999999100381MD1999999+0131REMSYN017333   10296 58013
0096832290999991988031518004-13017-038517FM-12+005199999V0201401N00101105001CN0100001N9+02971+02471100801ADDAA106000091AG10999GF105991011011008001051021MA1999999100211MD1999999+0171REMSYN011333   58017
0115832290999991988031600004-13017-038517FM-12+005199999V0201401N00101220001CN9999999N9+02701+02281101131ADDAA106000091AG10999GF101991011011012501001001KA1240M+03041MA1999999100541MD1999999+0161REMSYN017333   10304 58016
0143832290999991988031612004-13017-038517FM-12+005199999V0200901N00101004201CN0100001N9+02541+99999101381ADDAA124004091AG10999AY131061AY221061GF108991081071004501999999KA1240N+02481MA1999999100781MD1999999+0271MW1951REMSYN023333   20248 58027 60044
0124832290999991988031618004-13017-038517FM-12+005199999V0201401N00151012001CN0040001N9+02731+02451100971ADDAA106001091AG10999AY161061AY221061GF107991051081008001001021MA1999999100381MD1999999+0171MW1291REMSYN017333   58017 60011
0115832290999991988031700004-13017-038517FM-12+005199999V0200501N00151220001CN9999999N9+02631+02411101151ADDAA106000091AG10999GF101991011011008001001001KA1240M+02881MA1999999100561MD1999999+0011REMSYN017333   10288 58001
0121832290999991988031712004-13017-038517FM-12+005199999V0201401N00151007501CN0200001N9+02881+02411101281ADDAA124001091AG10999GF105991051041008001001001KA1240N+02401MA1999999100701MD1999999-0081REMSYN023333   20240 59008 60014
0096832290999991988031718004-13017-038517FM-12+005199999V0201801N00151220001CN0200001N9+02901+02221100991ADDAA106000091AG10999GF100991001001999999001001MA1999999100411MD1999999+0031REMSYN011333   58003
0115832290999991988031800004-13017-038517FM-12+005199999V0200901N00151220001CN9999999N9+02681+02281101131ADDAA106000091AG10999GF101991011011008001001001KA1240M+03061MA1999999100541MD1999999-0021REMSYN017333   10306 59002
0104832290999991988031812004-13017-038517FM-12+005199999V0200901N001519999999N9999999N9+02941+02361101251ADDAG10999GF105991051031999999001001KA1240N+02521MA1999999100671MD1999999-0031REMSYN017333   20252 59003
0096832290999991988031818004-13017-038517FM-12+005199999V0200901N00261220001CN0200001N9+03041+02181100911ADDAA106000091AG10999GF101991001001999999001011MA1999999100321MD1999999+0091REMSYN011333   58009
0115832290999991988031900004-13017-038517FM-12+005199999V0200901N00101220001CN9999999N9+02681+02351101011ADDAA106000091AG10999GF100991001001999999001001KA1240M+03101MA1999999100421MD1999999-0121REMSYN017333   10310 59012
0120832290999991988031912004-13017-038517FM-12+005199999V0203201N00151220001CN0100001N9+02861+02421101251ADDAA106000091AG10001AY111061AY211061GA1041+000159029GF104991999999008001999999MA1999999100661MW1051REMSYN011333   84200
0096832290999991988031918004-13017-038517FM-12+005199999V0200901N00151220001CN0200001N9+03061+02301100941ADDAA106000091AG10999GF100991001001999999001001MA1999999100361MD1999999+0041REMSYN011333   58004
0115832290999991988032000004-13017-038517FM-12+005199999V0202701N00101220001CN9999999N9+02661+02331101071ADDAA106000091AG10999GF100991001001999999001001KA1240M+03101MA1999999100481MD1999999+0061REMSYN017333   10310 58006
0115832290999991988032012004-13017-038517FM-12+005199999V0202301N00101220001CN0200001N9+02801+02381101121ADDAA106000091AG10999GF101991011001017501011001KA1240N+02491MA1999999100541MD1999999-0121REMSYN017333   20249 59012
0131832290999991988032018004-13017-038517FM-12+005199999V0201401N00151105001CN0100001N9+03091+02721100791ADDAA106000091AG10999GF107991041081008001001021MA1999999100211MD1999999-0161REMSYN011333   59016EQDQ01+099203APOSP Q02+999990APOSP 
0115832290999991988032100004-13017-038517FM-12+005199999V0201801N00211045001CN9999999N9+02761+02381101201ADDAA106000091AG10999GF106991021041004501031001KA1240M+03201MA1999999100611MD1999999+0131REMSYN017333   10320 58013
0143832290999991988032112004-13017-038517FM-12+005199999V0201801N00211004201CN0040001N9+02541+02271101371ADDAA124085091AG10999AY161061AY261061GF108991081071004501999999KA1240N+02321MA1999999100771MD1999999+0231MW1471REMSYN023333   20232 58023 60854
0143832290999991988032200004-13017-038517FM-12+005199999V0201401N00211045001CN9999999N9+02721+02001101181ADDAA106000391AG10999AY161061AY261061GF106991021041008001051001KA1240M+02771MA1999999100591MD1999999-0021MW1021REMSYN023333   10277 59002 69931
0143832290999991988032212004-13017-038517FM-12+005199999V0201801N00151004201CN0040001N9+02441+02431101251ADDAA124044091AG10999AY161061AY261061GF108991081071004501999999KA1240N+02321MA1999999100651MD1999999-0121MW1621REMSYN023333   20232 59012 60444
0124832290999991988032218004-13017-038517FM-12+005199999V0201801N00151007501CN0100001N9+02701+02351101031ADDAA106006091AG10999AY161061AY261061GF105991051051008001001001MA1999999100441MD1999999-0021MW1021REMSYN017333   59002 60061
0143832290999991988032300004-13017-038517FM-12+005199999V0201801N00311007501CN9999999N9+02681+02311101201ADDAA106011091AG10999AY161061AY261061GF105991051031008001001001KA1240M+02781MA1999999100611MD1999999+0021MW1021REMSYN023333   10278 58002 60111
0143832290999991988032312004-13017-038517FM-12+005199999V0201801N00211045001CN0100001N9+02521+99999101191ADDAA124969092AG10999AY161061AY261061GF108991021061004501041001KA1240N+02321MA1999999100591MD1999999-0061MW1021REMSYN023333   20232 59006 69694
0124832290999991988032318004-13017-038517FM-12+005199999V0201801N00151007501CN0100001N9+02661+99999100961ADDAA106005091AG10999AY161061AY261061GF108991081071008001999999MA1999999100371MD1999999-0071MW1021REMSYN017333   59007 60051
0115832290999991988032400004-13017-038517FM-12+005199999V0201801N00151045001CN9999999N9+02641+99999101031ADDAA106000091AG10999GF105991041031008001011001KA1240M+02681MA1999999100541MD1999999-0071REMSYN017333   10268 59007
0143832290999991988032412004-13017-038517FM-12+005199999V0202301N00151007501CN0020001N9+02501+02431101371ADDAA124020091AG10999AY161061AY211061GF108991081071008001999999KA1240N+02421MA1999999100781MD1999999+0191MW1291REMSYN023333   20242 58019 60204
0124832290999991988032418004-13017-038517FM-12+005199999V0201801N00151105001CN0100001N9+02721+02471101091ADDAA106000191AG10999AY151061AY221061GF105991011011008001001021MA1999999100501MD1999999+0131MW1021REMSYN017333   58013 69911
0115832290999991988032500004-13017-038517FM-12+005199999V0201401N00151220001CN9999999N9+02641+99999101201ADDAA106000091AG10999GF104991041031008001001001KA1240M+02811MA1999999100611MD1999999+0071REMSYN017333   10281 58007
0143832290999991988032512004-13017-038517FM-12+005199999V0202701N006719999999N0100001N9+02681+02451101261ADDAA124007091AG10999AY161061AY231061GF105991041999008001011001KA1240N+02441MA1999999100671MD1999999-0111MW1021REMSYN023333   20244 59011 60074
0107832290999991988032518004-13017-038517FM-12+005199999V0201801N00101045001CN0100001N9+02601+99999101061ADDAG10999AY131061AY221061GF105991021041008001021001MA1999999100471MD1999999-0031MW1621REMSYN011333   59003
0115832290999991988032600004-13017-038517FM-12+005199999V0200901N00151220001CN9999999N9+02561+99999101201ADDAA106000091AG10999GF102991021011008001001001KA1240M+02841MA1999999100611MD1999999+0001REMSYN017333   10284 58000
0143832290999991988032612004-13017-038517FM-12+005199999V0200901N00101004201CN0040001N9+02751+02261101231ADDAA124007091AG10999AY111061AY211061GF108991081071004501999999KA1240N+02471MA1999999100641MD1999999-0031MW1601REMSYN023333   20247 59003 60074
0113832290999991988032618004-13017-038517FM-12+005199999V0201401N00101220001CN0200001N9+02941+02241101091ADDAA106000291AA299000391AG10999GF103991031021008001001001MA1999999100511MD1999999+0041REMSYN017333   58004 69921
0134832290999991988032700004-13017-038517FM-12+005199999V0201401N00211220001CN9999999N9+02601+02291101241ADDAA106000091AG10999GF104991999021008001001001KA1240M+02981MA1999999100041MD1999999+0031REMSYN017333   10298 58003EQDQ01+000032SCOTLC
0143832290999991988032712004-13017-038517FM-12+005199999V0200901N00151045001CN0100001N9+02901+02371101241ADDAA124003091AG10999AY111061AY261061GF105991021021008001041001KA1240N+02501MA1999999100661MD1999999+0021MW1021REMSYN023333   20250 58002 60034
0096832290999991988032718004-13017-038517FM-12+005199999V0200901N00151220001CN0200001N9+03041+02181100981ADDAA106000091AG10999GF103991031021008001001001MA1999999100401MD1999999-0111REMSYN011333   59011
0115832290999991988032800004-13017-038517FM-12+005199999V0201401N00151007501CN9999999N9+02661+02271101221ADDAA106000091AG10999GF105991051051008001001001KA1240M+03141MA1999999100631MD1999999-0011REMSYN017333   10314 59001
0143832290999991988032812004-13017-038517FM-12+005199999V0201401N00151045001CN0040001N9+02631+99999101121ADDAA124010091AG10999AY161061AY221061GF106991041051008001031001KA1240N+02471MA1999999100531MD1999999-0131MW1021REMSYN023333   20247 59013 60104
0124832290999991988032818004-13017-038517FM-12+005199999V0201401N00151220001CN0200001N9+02861+02421100881ADDAA106004091AG10999AY161061AY261061GF103991021011008001021011MA1999999100301MD1999999-0101MW1021REMSYN017333   59010 60041
0143832290999991988032900004-13017-038517FM-12+005199999V0209999999999045001CN9999999N9+02481+02411101101ADDAA199005091AG10001AY131061AY261061GF105991021021004501031001KA1240M+03041MA1999999100301MD1999999-0131MW1621REMSYN023333   10304 59013 60050
0143832290999991988032912004-13017-038517FM-12+005199999V0202701N00101045001CN0100001N9+02761+99999101141ADDAA124012091AG10999AY131061AY251061GF106991041031004501021001KA1240N+02421MA1999999100551MD1999999+0021MW1611REMSYN023333   20242 58002 60124
0124832290999991988032918004-13017-038517FM-12+005199999V0201801N00151045001CN0100001N9+02861+99999100971ADDAA106007091AG10999AY161061AY231061GF105991021011008001031001MA1999999100321MD1999999+0021MW1611REMSYN017333   58002 60071
0143832290999991988033000004-13017-038517FM-12+005199999V0200501N00101045001CN9999999N9+02561+02211101161ADDAA106004091AG10999AY161061AY261061GF106991021061004501011001KA1240M+02901MA1999999100561MD1999999+0051MW1611REMSYN023333   10290 58005 60041
0162832290999991988033012004-13017-038517FM-12+005199999V0201401N00151220001CN0100001N9+02861+02371101121ADDAA124014091AG10999AY161061AY211061GF104991999021008001001001KA1240N+02391MA1999999100531MD1999999-0021MW1011REMSYN023333   20239 59002 60144EQDQ01+000032SCOTLC
0096832290999991988033018004-13017-038517FM-12+005199999V0201401N00151220001CN0200001N9+02941+02361100911ADDAA106000091AG10999GF103991031021008001001001MA1999999100331MD1999999+0011REMSYN011333   58001
0115832290999991988033100004-13017-038517FM-12+005199999V0200901N00101220001CN9999999N9+02641+02201101011ADDAA106000091AG10999GF102991021011008001001011KA1240M+03041MA1999999100411MD1999999-0141REMSYN017333   10304 59014
0115832290999991988033112004-13017-038517FM-12+005199999V0201401N00151220001CN0200001N9+02941+02361101131ADDAA106000091AG10001GF104991041021008001001001KA1240N+02621MA1999999100551MD1999999+0021REMSYN017333   20262 58002
0096832290999991988033118004-13017-038517FM-12+005199999V0201401N00101220001CN0200001N9+03041+02331100841ADDAA106000091AG10999GF101991011011008001001001MA1999999100261MD1999999-0071REMSYN011333   59007
0115832290999991988040100004-13017-038517FM-12+005199999V0200901N00101220001CN9999999N9+02661+02331101001ADDAA106000091AG10999GF102991021021008001001001KA1240M+03101MA1999999100411MD1999999-0011REMSYN017333   10310 59001
0143832290999991988040112004-13017-038517FM-12+005199999V0201401N00151045001CN0100001N9+02861+02371101131ADDAA124001091AG10999AY161061AY231061GF105991041021008001011001KA1240N+02441MA1999999100551MD1999999+0001MW1021REMSYN023333   20244 58000 60014
0096832290999991988040118004-13017-038517FM-12+005199999V0201401N00101220001CN0200001N9+03001+02321100861ADDAA106000091AG10999GF103991021011008001021001MA1999999100281MD1999999+0021REMSYN011333   58002
0115832290999991988040200004-13017-038517FM-12+005199999V0200501N00101220001CN9999999N9+02661+02331101001ADDAA106000091AG10999GF103991021011008001001031KA1240M+03061MA1999999100411MD1999999+0001REMSYN017333   10306 58000
0104832290999991988040212004-13017-038517FM-12+005199999V0200901N00151007501CN0200001N9+02901+02151101101ADDAG10999GF105991051021008001001001KA1240N+02501MA1999999100521MD1999999-0031REMSYN017333   20250 59003
0096832290999991988040218004-13017-038517FM-12+005199999V0200901N00151220001CN0200001N9+03041+02261100781ADDAA106000091AG10999GF101991011011008001001001MA1999999100261MD1999999-0081REMSYN011333   59008
0115832290999991988040300004-13017-038517FM-12+005199999V0200901N00101220001CN9999999N9+02701+02301100921ADDAA106000091AG10999GF100991001001999999001001KA1240M+03091MA1999999100331MD1999999-0081REMSYN017333   10309 59008
0154832290999991988040312004-13017-038517FM-12+005199999V0200501N00101045001CN0100001N9+02901+02411101111ADDAA124000791AA299001091AG10999AY151061AY231061GF105991041021008001011001KA1240N+02511MA1999999100531MD1999999+0011MW1021REMSYN023333   20251 58001 69974
0096832290999991988040318004-13017-038517FM-12+005199999V0200901N00101220001CN0200001N9+03001+02271100811ADDAA106000091AG10999GF101991011011008001001001MA1999999100231MD1999999+0031REMSYN011333   58003
0115832290999991988040400004-13017-038517FM-12+005199999V0200401N00361220001CN9999999N9+02711+02301101051ADDAA106000091AG10999GF102991021021008001001001KA1240M+03141MA1999999100451MD1999999+0121REMSYN017333   10314 58012
0132832290999991988040412004-13017-038517FM-12+005199999V0200901N00361220001CN0100001N9+02901+02461101181ADDAA124000291AA299000391AG10999GF103991021041008001021001KA1240N+02551MA1999999100581MD1999999+0051REMSYN023333   20255 58005 69924
0096832290999991988040418004-13017-038517FM-12+005199999V0201401N00261220001CN0200001N9+02951+02311100961ADDAA106000091AG10999GF103991021021008001001021MA1999999100361MD1999999+0131REMSYN011333   58013
0115832290999991988040500004-13017-038517FM-12+005199999V0200901N00211220001CN9999999N9+02681+02241101021ADDAA106000091AG10999GF101991011021008001001001KA1240M+03081MA1999999100421MD1999999-0031REMSYN017333   10308 59003
0115832290999991988040512004-13017-038517FM-12+005199999V0201401N00151220001CN0200001N9+02991+02581101111ADDAA106000091AG10999GF102991021021004501001001KA1240N+02571MA1999999100511MD1999999-0071REMSYN017333   20257 59007
0096832290999991988040518004-13017-038517FM-12+005199999V0201401N00151220001CN0200001N9+02961+02471100831ADDAA106000091AG10999GF104991031041008001031001MA1999999100241MD1999999-0121REMSYN011333   59012
0115832290999991988040600004-13017-038517FM-12+005199999V0200901N00151220001CN9999999N9+02701+02451101081ADDAA106000091AG10999GF102991021011008001001001KA1240M+03081MA1999999100491MD1999999+0071REMSYN017333   10308 58007
0143832290999991988040612004-13017-038517FM-12+005199999V0200901N00101220001CN0200001N9+03001+02321101311ADDAA124004091AG10999AY161061AY231061GF103991031021008001001001KA1240N+02401MA1999999100731MD1999999+0221MW1011REMSYN023333   20240 58022 60044
0115832290999991988040700004-13017-038517FM-12+005199999V0201401N00101220001CN9999999N9+02721+02391101201ADDAA106000091AG10999GF102991021011008001001001KA1240M+03101MA1999999100611MD1999999+0121REMSYN017333   10310 58012
0143832290999991988040712004-13017-038517FM-12+005199999V0200501N00151007501CN0040001N9+02511+02341101221ADDAA124002091AG10999AY161061AY221061GF107991061051008001031001KA1240N+02461MA1999999100631MD1999999-0101MW1021REMSYN023333   20246 59010 60024
0096832290999991988040718004-13017-038517FM-12+005199999V0200901N00151220001CN0100001N9+02951+02601100881ADDAA106000091AG10999GF102991021021008001001001MA1999999100291MD1999999-0181REMSYN011333   59018
0134832290999991988040800004-13017-038517FM-12+005199999V0201401N00101220001CN9999999N9+02701+02331101131ADDAA106000091AG10999GF103991999011008001001001KA1240M+03081MA1999999100541MD1999999-0071REMSYN017333   10308 59007EQDQ01+000022SCOTLC
0143832290999991988040812004-13017-038517FM-12+005199999V0200501N00151004201CN0020001N9+02621+02391101201ADDAA124005091AG10999AY121061AY261061GF108991081071004501999999KA1240N+02371MA1999999100601MD1999999-0031MW1631REMSYN023333   20237 59003 60054
0102832290999991988040818004-13017-038517FM-12+005199999V0200901N00151220001CN0200001N9+02931+02341100871ADDAA106006091AG10999GF102991011021008001031001MA1999999100271MD1999999-0091REMSYN017333   59009 60061
0115832290999991988040900004-13017-038517FM-12+005199999V0200901N00151220001CN9999999N9+02711+02411101101ADDAA106000091AG10999GF101991011021008001001001KA1240M+03001MA1999999100501MD1999999-0041REMSYN017333   10300 59004
0121832290999991988040912004-13017-038517FM-12+005199999V0201401N00211220001CN0100001N9+02861+02371101221ADDAA124006091AG10999GF103991031041008001001001KA1240N+02531MA1999999100621MD1999999+0021REMSYN023333   20253 58002 60064
0096832290999991988040918004-13017-038517FM-12+005199999V0201401N00211007501CN0200001N9+02901+02431101041ADDAA106000091AG10999GF105991051051008001001001MA1999999100441MD1999999+0171REMSYN011333   58017
0115832290999991988041000004-13017-038517FM-12+005199999V0201401N00151220001CN9999999N9+02741+02401101241ADDAA106000091AG10999GF104991021011008001021001KA1240M+03041MA1999999100651MD1999999+0151REMSYN017333   10304 58015
0115832290999991988041012004-13017-038517FM-12+005199999V0200901N00151220001CN0200001N9+02881+02441101151ADDAA106000091AG10999GF104991021021008001011001KA1240N+02641MA1999999100571MD1999999-0051REMSYN017333   20264 59005
0143832290999991988041100004-13017-038517FM-12+005199999V0200501N00151007501CN9999999N9+02541+99999101041ADDAA106003091AG10999AY131061AY251061GF105991051041008001001001KA1240M+03041MA1999999100541MD1999999-0111MW1611REMSYN023333   10304 59011 60031
0143832290999991988041112004-13017-038517FM-12+005199999V0201401N00311220001CN0100001N9+02841+02481101001ADDAA124010091AG10999AY161061AY211061GF103991031021008001001001KA1240N+02401MA1999999100411MD1999999-0161MW1011REMSYN023333   20240 59016 60104
0124832290999991988041118004-13017-038517FM-12+005199999V0201401N00361105001CN0100001N9+02861+02391100701ADDAA106006091AG10999AY161061AY211061GF106991031041008001001021MA1999999100111MD1999999-0191MW1031REMSYN017333   59019 60061
0143832290999991988041200004-13017-038517FM-12+005199999V0200901N00151220001CN9999999N9+02501+02211101061ADDAA106004091AG10999AY161061AY261061GF103991021011008001031001KA1240M+02911MA1999999100461MD1999999-0081MW1021REMSYN023333   10291 59008 60041
0143832290999991988041212004-13017-038517FM-12+005199999V0202701N00151045001CN0100001N9+02581+02371101171ADDAA124014091AG10999AY161061AY221061GF105991031051008001031011KA1240N+02321MA1999999100581MD1999999+0171MW1021REMSYN023333   20232 58017 60144
0135832290999991988041218004-13017-038517FM-12+005199999V0201401N00151220001CN0200001N9+02801+02271100921ADDAA106000291AA299000391AG10999AY161061AY231061GF102991021011008001001001MA1999999100341MD1999999+0231MW1011REMSYN017333   58023 69921
0115832290999991988041300004-13017-038517FM-12+005199999V0201401N00101220001CN9999999N9+02621+02311101151ADDAA106000091AG10999GF103991021011008001011001KA1240M+02881MA1999999100561MD1999999+0101REMSYN017333   10288 58010
0143832290999991988041312004-13017-038517FM-12+005199999V0202301N00151007501CN0100001N9+02771+02501101231ADDAA124002091AG10999AY161061AY261061GF105991051051008001001001KA1240N+02421MA1999999100631MD1999999+0051MW1021REMSYN023333   20242 58005 60024
0096832290999991988041318004-13017-038517FM-12+005199999V0201401N00211220001CN0200001N9+02971+02421100881ADDAA106000091AG10999GF101991011041008001001001MA1999999100281MD1999999+0061REMSYN011333   58006
0115832290999991988041400004-13017-038517FM-12+005199999V0201401N00151220001CN9999999N9+02661+02371100971ADDAA106000091AG10999GF100991001001999999001001KA1240M+03001MA1999999100371MD1999999-0191REMSYN017333   10300 59019
0115832290999991988041412004-13017-038517FM-12+005199999V0203201N00051220001CN0200001N9+02831+02421101071ADDAA106000091AG10999GF102991011011008001001011KA1240N+02481MA1999999100471MD1999999-0161REMSYN017333   20248 59016
0096832290999991988041418004-13017-038517FM-12+005199999V0201401N00211220001CN0200001N9+03051+02591100691ADDAA106000091AG10999GF103991021041008001021001MA1999999100091MD1999999-0191REMSYN011333   59019
0115832290999991988041500004-13017-038517FM-12+005199999V0201401N00211220001CN9999999N9+02611+02351100861ADDAA106000091AG10999GF100991001001999999001001KA1240M+03081MA1999999100261MD1999999-0111REMSYN017333   10308 59011
0124832290999991988041518004-13017-038517FM-12+005199999V0201801N00151007501CN0040001N9+02571+02311100971ADDAA106025091AG10999AY161061AY261061GF108991081071008001999999MA1999999100381MD1999999-0291MW1021REMSYN017333   59029 60251
0143832290999991988041612004-13017-038517FM-12+005199999V0202701N00151007501CN0040001N9+02581+99999101201ADDAA124027091AG10999AY161061AY261061GF108991081071008001999999KA1240N+02401MA1999999100601MD1999999-0041MW1021REMSYN023333   20240 59004 60274
0096832290999991988041618004-13017-038517FM-12+005199999V0201801N00101007501CN0040001N9+02621+99999100851ADDAA106000091AG10999GF108991081071008001999999MA1999999100251MD1999999-0131REMSYN011333   59013
0143832290999991988041700004-13017-038517FM-12+005199999V0201401N00101045001CN9999999N9+02441+02421101121ADDAA106034091AG10999AY161061AY231061GF108991041071004501021999KA1240M+02731MA1999999100521MD1999999-0021MW1611REMSYN023333   10273 59002 60341
0162832290999991988041712004-13017-038517FM-12+005199999V0200501N00101007501CN0020001N9+02501+02431101141ADDAA124076091AG10999AY161061AY221061GF108991081071008001999999KA1240N+99999MA1999999100541MD1999999-0061MW1021REMSYN023333   20299 59006 60764EQDQ01 +02992ATMN  
0124832290999991988041718004-13017-038517FM-12+005199999V0209999999999045001CN0750001N9+02801+02461100931ADDAA106001091AG10999AY161061AY261061GF105991041011008001031001MA1999999100351MD1999999+0101MW1021REMSYN017333   58010 60011
0115832290999991988041800004-13017-038517FM-12+005199999V0209999999999045001CN9999999N9+02601+99999101171ADDAA106000091AG10999GF105991021021008001021001KA1240M+02871MA1999999100571MD1999999+0051REMSYN017333   10287 58005
0143832290999991988041812004-13017-038517FM-12+005199999V0200501N00101045001CN0040001N9+02591+99999101281ADDAA124016091AG10999AY161061AY221061GF107991041081008001051001KA1240N+02401MA1999999100691MD1999999+0151MW1021REMSYN023333   20240 58015 60164
0101832290999991988042000004-13017-038517FM-12+005199999V0201401N00101007501CN9999999N9+02661+02241101121ADDAA106000091AG10999GF105991051021008001001001KA1240M+03021MA1999999100531REMSYN017333   10302 580//
0143832290999991988042012004-13017-038517FM-12+005199999V0201801N00311004201CN0040001N9+02681+02431101181ADDAA124002091AG10999AY161061AY221061GF108991081071004501999999KA1240N+02501MA1999999100591MD1999999-0211MW1161REMSYN023333   20250 59021 60024
0124832290999991988042018004-13017-038517FM-12+005199999V0200901N00151045001CN0040001N9+02661+02441100941ADDAA106000391AG10999AY131061AY211061GF108991041061004501021999MA1999999100351MD1999999-0201MW1611REMSYN017333   59020 69931
0143832290999991988042100004-13017-038517FM-12+005199999V0209999999999007501CN9999999N9+02481+02451101091ADDAA106003091AG10999AY161061AY231061GF108991081071008001999999KA1240M+02841MA1999999100491MD1999999-0041MW1601REMSYN023333   10284 59004 60031
0143832290999991988042112004-13017-038517FM-12+005199999V0202701N00101001201CN0090001N9+02431+02351101131ADDAA124012091AG10999AY161061AY221061GF108991081071001501999999KA1240N+02291MA1999999100531MD1999999-0061MW1021REMSYN023333   20229 59006 60124
0096832290999991988042118004-13017-038517FM-12+005199999V0201401N00101220001CN0100001N9+02771+02441100781ADDAA106000091AG10999GF105991031021008001001011MA1999999100191MD1999999-0161REMSYN011333   59016
0115832290999991988042200004-13017-038517FM-12+005199999V0201401N00151220001CN9999999N9+02571+02351100991ADDAA106000091AG10999GF103991031011008001001001KA1240M+02811MA1999999100391MD1999999-0101REMSYN017333   10281 59010
0143832290999991988042212004-13017-038517FM-12+005199999V0202701N00151045001CN0200001N9+02721+02321101231ADDAA124001091AG10999AY161061AY231061GF105991041041008001011001KA1240N+02421MA1999999100651MD1999999+0121MW1011REMSYN023333   20242 58012 60014
0096832290999991988042218004-13017-038517FM-12+005199999V0201801N00151220001CN0200001N9+02861+02461100871ADDAA106000091AG10999GF102991021011008001021001MA1999999100291MD1999999+0101REMSYN011333   58010
0115832290999991988042300004-13017-038517FM-12+005199999V0201401N00101220001CN9999999N9+02661+02311101031ADDAA106000091AG10999GF103991031021008001001001KA1240M+02981MA1999999100441MD1999999+0051REMSYN017333   10298 58005
0154832290999991988042312004-13017-038517FM-12+005199999V0202301N00151220001CN0100001N9+02861+02541101261ADDAA106000091AA224001091AG10999AY161061AY221061GF104991021041008001041001KA1240N+02501MA1999999100661MD1999999+0011MW1021REMSYN023333   20250 58001 60014
0096832290999991988042318004-13017-038517FM-12+005199999V0201801N00151220001CN0100001N9+02931+02521101021ADDAA106000091AG10999GF103991031021004501001001MA1999999100421MD1999999-0451REMSYN011333   59045
0162832290999991988042412004-13017-038517FM-12+005199999V0201401N002119999999N0100001N9+02821+02561101321ADDAA124004091AG10999AY161061AY221061GF105991999041004501001001KA1240N+02601MA1999999100721MD1999999+0061MW1031REMSYN023333   20260 58006 60044EQDQ01+000032SCOTLC
0147832290999991988042418004-13017-038517FM-12+005199999V0201401N00261004201CN0200001N9+02851+02311101031ADDAA106000091AG10999GA1091+999999999GF109991051041004501001999MA1999999100441MD1999999+0021REMSYN011333   58002EQDQ01+100103APOSLPQ02+999990APOSLP
0143832290999991988042500004-13017-038517FM-12+005199999V0201401N00101045001CN9999999N9+02441+02391101211ADDAA106009091AG10999AY131061AY221061GF106991041041008001021001KA1240M+02941MA1999999100611MD1999999+0001MW1611REMSYN023333   10294 58000 60091
0143832290999991988042512004-13017-038517FM-12+005199999V0202701N00151004201CN0040001N9+02641+02371101101ADDAA124028091AG10999AY161061AY261061GF108991081071004501999999KA1240N+02431MA1999999100511MD1999999+0211MW1631REMSYN023333   20243 58021 60284
0124832290999991988042518004-13017-038517FM-12+005199999V0201801N00311220001CN0200001N9+02801+02181100791ADDAA106010091AG10999AY161061AY211061GF102991021021008001001001MA1999999100201MD1999999+0241MW1011REMSYN017333   58024 60101
0143832290999991988042600004-13017-038517FM-12+005199999V0200901N00101045001CN9999999N9+02501+02451101141ADDAA106002091AG10999AY131061AY261061GF106991041021008001041001KA1240M+02821MA1999999100541MD1999999+0071MW1611REMSYN023333   10282 58007 60021
0143832290999991988042612004-13017-038517FM-12+005199999V0200901N00151045001CN0100001N9+02861+02441101151ADDAA124037091AG10999AY161061AY261061GF105991041041008001011001KA1240N+02401MA1999999100571MD1999999+0061MW1031REMSYN023333   20240 58006 60374
0096832290999991988042618004-13017-038517FM-12+005199999V0201401N00101220001CN0200001N9+02921+02361100901ADDAA106000091AG10999GF103991021011008001011001MA1999999100321MD1999999+0121REMSYN011333   58012
0115832290999991988042700004-13017-038517FM-12+005199999V0200901N00101220001CN9999999N9+02621+02211101151ADDAA106000091AG10999GF102991021011008001001001KA1240M+03001MA1999999100561MD1999999+0021REMSYN017333   10300 58002
0143832290999991988042712004-13017-038517FM-12+005199999V0201401N00101220001CN0100001N9+02801+02251101291ADDAA124003091AG10999AY161061AY231061GF104991041021008001011001KA1240N+02341MA1999999100711MD1999999+0141MW1021REMSYN023333   20234 58014 60034
0135832290999991988042718004-13017-038517FM-12+005199999V0201401N00151220001CN0100001N9+02831+02501100941ADDAA106000991AA299001091AG10999AY151061AY201061GF102991011011008001001021MA1999999100351MD1999999+0031MW1021REMSYN017333   58003 69991
0154832290999991988042800004-13017-038517FM-12+005199999V0201401N00151220001CN9999999N9+02641+02421101161ADDAA106000291AA299000391AG10999AY151061AY201061GF102991021011008001001001KA1240M+02951MA1999999100571MD1999999+0011MW1021REMSYN023333   10295 58001 69921
0121832290999991988042812004-13017-038517FM-12+005199999V0201401N00311220001CN0200001N9+02871+02331101471ADDAA124000391AG10999GF103991021021008001031001KA1240N+02571MA1999999100871MD1999999+0161REMSYN023333   20257 58016 69934
0096832290999991988042818004-13017-038517FM-12+005199999V0201401N00261220001CN0200001N9+02821+02341101221ADDAA106000091AG10999GF104991041041004501001001MA1999999100621MD1999999+0271REMSYN011333   58027
0115832290999991988042900004-13017-038517FM-12+005199999V0201401N00311220001CN9999999N9+02721+02261101391ADDAA106000091AG10999GF103991031021008001001001KA1240M+02941MA1999999100791MD1999999+0221REMSYN017333   10294 58022
0143832290999991988042912004-13017-038517FM-12+005199999V0201801N00151220001CN0200001N9+02811+02181101371ADDAA124001091AG10999AY151061AY201061GF101991011021004501001001KA1240N+02451MA1999999100771MD1999999+0101MW1031REMSYN023333   20245 58010 60014
0124832290999991988042918004-13017-038517FM-12+005199999V0201401N00361007501CN0020001N9+02691+02391101301ADDAA106001091AG10999AY111061AY261061GF107991071071008001001001MA1999999100701MD1999999+0081MW1531REMSYN017333   58008 60011
0124832290999991988042919004-13017-038517FM-12+005199999V0201401N00361007501CN0020001N9+02691+02391101301ADDAA106001091AG10999AY111011AY261011GF107991071071008001001001MA1999999100701MD1999999+0081MW1531REMSYN017333   58008 60011
0115832290999991988043000004-13017-038517FM-12+005199999V0201401N00261007501CN9999999N9+02691+02281101481ADDAA106000091AG10999GF105991051041008001001001KA1240M+02921MA1999999100881MD1999999+0091REMSYN017333   10292 58009
0143832290999991988043012004-13017-038517FM-12+005199999V0201801N00361045001CN0100001N9+02701+02301101511ADDAA124005091AG10999AY161061AY211061GF106991041041008001061001KA1240N+02431MA1999999100911MD1999999+0141MW1011REMSYN023333   20243 58014 60054
0135832290999991988043018004-13017-038517FM-12+005199999V0201801N00311045001CN0100001N9+02741+02261101271ADDAA106000791AA299001091AG10999AY151061AY221061GF106991021021008001041021MA1999999100671MD1999999-0031MW1021REMSYN017333   59003 69971
0115832290999991988050100004-13017-038517FM-12+005199999V0200901N00101045001CN9999999N9+02661+02331101481ADDAA106000091AG10999GF105991021041008001021001KA1240M+02891MA1999999100891MD1999999+0011REMSYN017333   10289 58001
0143832290999991988050112004-13017-038517FM-12+005199999V0201801N00411045001CN0100001N9+02721+02001101571ADDAA124004091AG10999AY121061AY261061GF105991021021008001031001KA1240N+02461MA1999999100991MD1999999+0081MW1021REMSYN023333   20246 58008 60044
0096832290999991988050118004-13017-038517FM-12+005199999V0201401N00211045001CN0100001N9+02681+02111101261ADDAA106000091AG10999GF106991021041008001041001MA1999999100671MD1999999+0001REMSYN011333   58000
0115832290999991988050200004-13017-038517FM-12+005199999V0201401N00151220001CN9999999N9+02621+02011101431ADDAA106000091AG10999GF103991021021008001011001KA1240M+02821MA1999999100841MD1999999-0051REMSYN017333   10282 59005
0143832290999991988050212004-13017-038517FM-12+005199999V0202301N00511004201CN0020001N9+02531+02271101401ADDAA124000191AG10999AY121061AY261061GF107991071071004501001001KA1240N+02501MA1999999100801MD1999999-0191MW1531REMSYN023333   20250 59019 69914
0124832290999991988050218004-13017-038517FM-12+005199999V0201801N00261007501CN0040001N9+02621+02371101041ADDAA106000191AG10999AY161061AY221061GF108991081051008001999999MA1999999100451MD1999999-0221MW1021REMSYN017333   59022 69911
0143832290999991988050300004-13017-038517FM-12+005199999V0201801N00211045001CN9999999N9+02471+02411101251ADDAA106009091AG10999AY161061AY221061GF107991011011008001031011KA1240M+02711MA1999999100661MD1999999-0181MW1021REMSYN023333   10271 59018 60091
0143832290999991988050312004-13017-038517FM-12+005199999V0202301N00151004201CN0040001N9+02581+99999101661ADDAA124060091AG10999AY161061AY231061GF108991081071004501999999KA1240N+02321MA1999999101061MD1999999+0261MW1631REMSYN023333   20232 58026 60604
0124832290999991988050318004-13017-038517FM-12+005199999V0201401N00151220001CN0200001N9+02881+02251101231ADDAA106001091AG10999AY161061AY261061GF103991021011008001031001MA1999999100651MD1999999+0201MW1011REMSYN017333   58020 60011
0143832290999991988050400004-13017-038517FM-12+005199999V0200901N00101045001CN9999999N9+02521+99999101371ADDAA106002091AG10999AY161061AY231061GF106991021041008001021001KA1240M+02901MA1999999100771MD1999999+0111MW1021REMSYN023333   10290 58011 60021
0143832290999991988050412004-13017-038517FM-12+005199999V0203601N00051220001CN0040001N9+02791+02361101481ADDAA106004091AG10999AY161061AY241061GF104991041051004501001001KA1240N+02421MA1999999100881MD1999999+0181MW1051REMSYN023333   20242 58018 60041
0096832290999991988050418004-13017-038517FM-12+005199999V0201401N00151220001CN0100001N9+02851+02421101241ADDAA106000091AG10999GF100991001001999999001001MA1999999100641MD1999999-0011REMSYN011333   59001
0143832290999991988050500004-13017-038517FM-12+005199999V0201801N00151007501CN9999999N9+02521+99999101451ADDAA106001091AG10999AY161061AY231061GF106991061061008001001001KA1240M+02961MA1999999100851MD1999999+0081MW1021REMSYN023333   10296 58008 60011
0143832290999991988050512004-13017-038517FM-12+005199999V0202301N00151004201CN0100001N9+02641+02411101531ADDAA124006091AG10999AY161061AY261061GF106991061071004501001001KA1240N+02391MA1999999100931MD1999999+0051MW1501REMSYN023333   20239 58005 60064
0096832290999991988050518004-13017-038517FM-12+005199999V0201401N00151220001CN0200001N9+02821+02101101291ADDAA106000091AG10999GF103991031021008001001001MA1999999100711MD1999999+0071REMSYN011333   58007
0115832290999991988050600004-13017-038517FM-12+005199999V0201401N00151220001CN9999999N9+02601+02371101401ADDAA106000091AG10999GF104991041021008001001001KA1240M+02961MA1999999100801MD1999999-0051REMSYN017333   10296 59005
0115832290999991988050612004-13017-038517FM-12+005199999V0201801N00211007501CN0040001N9+02711+02411101411ADDAA106000091AG10999GF107991071051008001001001KA1240N+02521MA1999999100811MD1999999-0121REMSYN017333   20252 59012
0096832290999991988050618004-13017-038517FM-12+005199999V0201801N00151220001CN0100001N9+02771+02341101141ADDAA106000091AG10999GF107991031021008001001011MA1999999100541MD1999999-0171REMSYN011333   59017
0143832290999991988050700004-13017-038517FM-12+005199999V0201401N00151045001CN9999999N9+02571+02361101331ADDAA106000391AG10999AY151061AY221061GF105991011051008001031001KA1240M+03021MA1999999100731MD1999999-0071MW1021REMSYN023333   10302 59007 69931
0143832290999991988050712004-13017-038517FM-12+005199999V0201401N00261007501CN0040001N9+02571+02271101461ADDAA124010091AG10999AY161061AY261061GF107991061051008001031001KA1240N+02371MA1999999100861MD1999999+0051MW1021REMSYN023333   20237 58005 60104
0124832290999991988050718004-13017-038517FM-12+005199999V0201401N00311220001CN0200001N9+02851+02261101161ADDAA106000591AG10999AY161061AY221061GF103991011031008001021011MA1999999100561MD1999999+0021MW1531REMSYN017333   58002 69951
0115832290999991988050800004-13017-038517FM-12+005199999V0201401N00151220001CN9999999N9+02561+02061101261ADDAA106000091AG10999GF103991031021008001001001KA1240M+02891MA1999999100671MD1999999-0061REMSYN017333   10289 59006
0143832290999991988050812004-13017-038517FM-12+005199999V0202301N00151220001CN0200001N9+02721+02391101301ADDAA124000591AG10999AY111061AY211061GF103991031021008001011001KA1240N+02461MA1999999100721MD1999999-0141MW1021REMSYN023333   20246 59014 69954
0096832290999991988050818004-13017-038517FM-12+005199999V0201801N00151220001CN0200001N9+02781+02061100931ADDAA106000091AG10999GF101991011011008001001001MA1999999100351MD1999999-0211REMSYN011333   59021
0115832290999991988050900004-13017-038517FM-12+005199999V0201401N00101220001CN9999999N9+02521+02131101261ADDAA106000091AG10999GF100991001001999999001001KA1240M+02961MA1999999100661MD1999999-0011REMSYN017333   10296 59001
0115832290999991988050912004-13017-038517FM-12+005199999V0203601N00051220001CN0040001N9+02701+02371101171ADDAA106000091AG10999GF104991041041004501001001KA1240N+02421MA1999999100471MD1999999-0151REMSYN017333   20242 59015
0096832290999991988050918004-13017-038517FM-12+005199999V0201401N00151220001CN0040001N9+02761+02341100771ADDAA106000091AG10999GF103991011041008001001011MA1999999100171MD1999999-0181REMSYN011333   59018
0115832290999991988051000004-13017-038517FM-12+005199999V0200501N00151220001CN9999999N9+02491+02171101051ADDAA106000091AG10999GF100991001001999999001001KA1240M+02831MA1999999100451MD1999999-0211REMSYN017333   10283 59021
0115832290999991988051012004-13017-038517FM-12+005199999V0201801N001019999999N0100001N9+02701+02261101221ADDAA106000091AG10999GF106991061001004501081001KA1240N+02361MA1999999100641MD1999999+0071REMSYN017333   20236 58007
0096832290999991988051018004-13017-038517FM-12+005199999V0201801N001519999999N0100001N9+02721+02391100951ADDAA106000091AG10999GF107991071001008001081001MA1999999100371MD1999999+0201REMSYN011333   58020
0143832290999991988051112004-13017-038517FM-12+005199999V0202701N00151045001CN0100001N9+02601+99999101251ADDAA124001091AG10999AY161061AY221061GF108991021041008001021999KA1240N+02501MA1999999100651MD1999999+0011MW1031REMSYN023333   20250 58001 60014
0135832290999991988051118004-13017-038517FM-12+005199999V0202301N00151045001CN0100001N9+02721+99999101031ADDAA106000691AA299000591AG10999AY161061AY261061GF107991041061008001021001MA1999999100441MD1999999+0071MW1021REMSYN017333   58007 69961
0143832290999991988051200004-13017-038517FM-12+005199999V0201401N00151007501CN9999999N9+99999+99999101261ADDAA106002091AG10999AY161061AY261061GF105991051041008001001001KA1240M+02721MA1999999100661MD1999999+0121MW1011REMSYN023333   10272 58012 60021
0143832290999991988051212004-13017-038517FM-12+005199999V0201401N00151045001CN0100001N9+02721+02451101371ADDAA124003091AG10999AY161061AY221061GF105991041021008001031001KA1240N+02591MA1999999100771MD1999999+0121MW1021REMSYN023333   20259 58012 60034
0096832290999991988051218004-13017-038517FM-12+005199999V0201401N00151220001CN0200001N9+02801+02421101171ADDAA106000091AG10999GF104991041021008001011001MA1999999100591MD1999999+0151REMSYN011333   58015
0143832290999991988051300004-13017-038517FM-12+005199999V0201401N00261007501CN9999999N9+02531+02331101441ADDAA106002091AG10999AY161061AY221061GF108991081071008001999999KA1240M+02941MA1999999100841MD1999999+0181MW1611REMSYN023333   10294 58018 60021
0162832290999991988051312004-13017-038517FM-12+005199999V0200501N00101007501CN0040001N9+02621+99999101441ADDAA124023091AG10999AY161061AY221061GF108991999051008001071999KA1240N+02281MA1999999100841MD1999999+0071MW1021REMSYN023333   20228 58007 60234EQDQ01+000082SCOTLC
0124832290999991988051318004-13017-038517FM-12+005199999V0201401N00211045001CN0100001N9+02741+02341101151ADDAA106008091AG10999AY161061AY261061GF106991021031008001041001MA1999999100561MD1999999-0031MW1021REMSYN017333   59003 60081
0115832290999991988051400004-13017-038517FM-12+005199999V0201401N00151045001CN9999999N9+02641+02271101361ADDAA106000091AG10999GF108991021031004501021999KA1240M+02801MA1999999100771MD1999999-0071REMSYN017333   10280 59007
0143832290999991988051412004-13017-038517FM-12+005199999V0203201N00051004201CN0040001N9+02711+02501101441ADDAA124030091AG10999AY161061AY221061GF107991071071004501999999KA1240N+02381MA1999999100841MD1999999+0001MW1151REMSYN023333   20238 58000 60304
0124832290999991988051418004-13017-038517FM-12+005199999V0201801N00311045001CN0200001N9+02721+02491101181ADDAA106002091AG10999AY161061AY221061GF106991021021008001041011MA1999999100581MD1999999+0021MW1031REMSYN017333   58002 60021
0143832290999991988051500004-13017-038517FM-12+005199999V0200501N00101045001CN9999999N9+02541+99999101411ADDAA106001091AG10999AY161061AY261061GF106991021041008001031001KA1240M+02771MA1999999100811MD1999999+0041MW1611REMSYN023333   10277 58004 60011
0143832290999991988051512004-13017-038517FM-12+005199999V0203201N00101045001CN0100001N9+02461+02411101551ADDAA124004091AG10999AY161061AY261061GF106991021041008001021001KA1240N+02221MA1999999100951MD1999999+0111MW1021REMSYN023333   20222 58011 60044
0096832290999991988051518004-13017-038517FM-12+005199999V0201401N00151220001CN0200001N9+02801+02441101271ADDAA106000091AG10999GF103991021021008001001011MA1999999100691MD1999999+0111REMSYN011333   58011
0143832290999991988051600004-13017-038517FM-12+005199999V0201401N00151045001CN9999999N9+02561+99999101541ADDAA106000191AG10999AY131061AY211061GF107991041041008001011001KA1240M+02861MA1999999100941MD1999999+0131MW1211REMSYN023333   10286 58013 69911
0154832290999991988051612004-13017-038517FM-12+005199999V0200901N00261220001CN0100001N9+02781+02181101561ADDAA124000791AA299001091AG10999AY151061AY211061GF102991011011008001001011KA1240N+02391MA1999999100961MD1999999+0011MW1011REMSYN023333   20239 58001 69974
0096832290999991988051618004-13017-038517FM-12+005199999V0201401N00151045001CN0200001N9+02901+02201101341ADDAA106000091AG10999GF105991041011008001051001MA1999999100761MD1999999+0071REMSYN011333   58007
0115832290999991988051700004-13017-038517FM-12+005199999V0200901N00101220001CN9999999N9+02581+99999101571ADDAA106000091AG10999GF103991021011008001021001KA1240M+02961MA1999999100971MD1999999+0031REMSYN017333   10296 58003
0143832290999991988051712004-13017-038517FM-12+005199999V0200901N00211220001CN0100001N9+02841+02381101561ADDAA124004091AG10999AY111061AY261061GF103991021021008001041001KA1240N+02611MA1999999100961MD1999999+0001MW1011REMSYN023333   20261 58000 60044
0096832290999991988051718004-13017-038517FM-12+005199999V0200901N00151220001CN0100001N9+02891+02371101181ADDAA106000091AG10999GF102991021001012501031001MA1999999100581MD1999999-0181REMSYN011333   59018
0115832290999991988051800004-13017-038517FM-12+005199999V0200901N00151220001CN9999999N9+02561+02211101921ADDAA106000091AG10999GF103991031021008001001001KA1240M+02961MA1999999100691MD1999999+0111REMSYN017333   10296 58011
0115832290999991988051812004-13017-038517FM-12+005199999V0202301N00151045001CN0100001N9+02641+02311101371ADDAA106000091AG10999GF106991041021008001031001KA1240N+02411MA1999999100771MD1999999-0191REMSYN017333   20241 59019
0124832290999991988051818004-13017-038517FM-12+005199999V0201801N00211220001CN0100001N9+02641+02141101161ADDAA106006091AG10999AY161061AY221061GF103991031021008001041011MA1999999100561MD1999999-0021MW1031REMSYN017333   59002 60061
0115832290999991988051900004-13017-038517FM-12+005199999V0200901N00101220001CN9999999N9+02421+02191101161ADDAA106000091AG10999GF100991001001999999001001KA1240M+02761MA1999999100561MD1999999-0131REMSYN017333   10276 59013
0143832290999991988051912004-13017-038517FM-12+005199999V0201801N00151045001CN0200001N9+02661+02391101371ADDAA124006091AG10999AY121061AY261061GF105991041021008001011001KA1240N+02401MA1999999100781MD1999999+0011MW1021REMSYN023333   20240 58001 60064
0096832290999991988051918004-13017-038517FM-12+005199999V0201401N00101045001CN0200001N9+02791+02301101091ADDAA106000091AG10999GF105991021021008001031001MA1999999100511MD1999999-0051REMSYN011333   59005
0154832290999991988052000004-13017-038517FM-12+005199999V0200901N00151220001CN9999999N9+02541+99999101351ADDAA106000291AA299000391AG10999AY131061AY221061GF103991021011008001031001KA1240M+02861MA1999999100751MD1999999+0191MW1611REMSYN023333   10286 58019 69921
0124832290999991988052018004-13017-038517FM-12+005199999V0201801N00101045001CN0100001N9+02641+02311101121ADDAA106001091AG10999AY161061AY231061GF106991041041008001011001MA1999999100531MD1999999+0021MW1021REMSYN017333   58002 60011
0115832290999991988052100004-13017-038517FM-12+005199999V0201801N00101220001CN9999999N9+02501+02231101271ADDAA106000091AG10999GF100991001001999999001001KA1240M+02931MA1999999100671MD1999999-0081REMSYN017333   10293 59008
0143832290999991988052112004-13017-038517FM-12+005199999V0202301N00051220001CN0100001N9+02591+99999101431ADDAA106002091AG10999AY161061AY221061GF104991041041004501001001KA1240N+02281MA1999999100831MD1999999+0051MW1031REMSYN023333   20228 58005 60021
0096832290999991988052118004-13017-038517FM-12+005199999V0200901N00311220001CN0200001N9+02801+02271101151ADDAA106000091AG10999GF102991021011004501001001MA1999999100551MD1999999+0021REMSYN011333   58002
0115832290999991988052200004-13017-038517FM-12+005199999V0200901N00151220001CN9999999N9+02571+02111101351ADDAA106000091AG10999GF103991031021008001001001KA1240M+02951MA1999999100751MD1999999+0081REMSYN017333   10295 58008
0115832290999991988052212004-13017-038517FM-12+005199999V0201401N00151220001CN0100001N9+02841+02261101481ADDAA106000091AG10999GF103991031021008001001001KA1240N+02491MA1999999100881MD1999999+0031REMSYN017333   20249 58003
0096832290999991988052218004-13017-038517FM-12+005199999V0201401N00151220001CN0100001N9+02821+02171101221ADDAA106000091AG10999GF101991011021008001001001MA1999999100621MD1999999+0071REMSYN011333   58007
0115832290999991988052300004-13017-038517FM-12+005199999V0201401N00151220001CN9999999N9+02591+02211101331ADDAA106000091AG10999GF102991021011008001001001KA1240M+02971MA1999999100731MD1999999-0021REMSYN017333   10297 59002
0115832290999991988052312004-13017-038517FM-12+005199999V0201401N00151220001CN0200001N9+02841+02311101301ADDAA106000091AG10999GF103991021021008001041001KA1240N+02321MA1999999100761MD1999999-0121REMSYN017333   20232 59012
0096832290999991988052318004-13017-038517FM-12+005199999V0201401N00151220001CN0200001N9+02871+02331101121ADDAA106000091AG10999GF102991021041008001001001MA1999999100521MD1999999-0101REMSYN011333   59010
0115832290999991988052400004-13017-038517FM-12+005199999V0200901N00101220001CN9999999N9+02581+02191101261ADDAA106000091AG10999GF100991001001999999001001KA1240M+02961MA1999999100671MD1999999-0061REMSYN017333   10296 59006
0115832290999991988052412004-13017-038517FM-12+005199999V0202301N00101220001CN0100001N9+02631+02351101221ADDAA106000091AG10999GF104991041051008001001001KA1240N+02421MA1999999100621MD1999999-0141REMSYN017333   20242 59014
0096832290999991988052418004-13017-038517FM-12+005199999V0200901N00151220001CN0200001N9+02871+02281100871ADDAA106000091AG10999GF102991011021008001001011MA1999999100271MD1999999-0251REMSYN011333   59025
0115832290999991988052500004-13017-038517FM-12+005199999V0200501N00261220001CN9999999N9+02541+02091101041ADDAA106000091AG10999GF100991001001999999001001KA1240M+02881MA1999999100441MD1999999-0231REMSYN017333   10288 59023
0115832290999991988052512004-13017-038517FM-12+005199999V0203201N00151220001CN0200001N9+02661+02201101161ADDAA106000091AG10999GF101991001001999999001011KA1240N+02321MA1999999100571MD1999999-0051REMSYN017333   20232 59005
0100832290999991988052518004-13017-038517FM-12+005199999V0201401N00101220001CN0200001N9+02801+02181100841ADDAA106000091AG10001GF101991001001999999001011MD1999999-0021REMSYN011333   59002EQDQ01+090253APOSP 
0115832290999991988052600004-13017-038517FM-12+005199999V0200901N00101220001CN9999999N9+02581+02191101121ADDAA106000091AG10999GF101991001001999999001011KA1240M+02921MA1999999100521MD1999999+0081REMSYN017333   10292 58008
0143832290999991988052612004-13017-038517FM-12+005199999V0209999999999045001CN0040001N9+02641+02311101361ADDAA124001091AG10999AY161061AY231061GF107991021021004501011041KA1240N+02361MA1999999100771MD1999999+0201MW1021REMSYN023333   20236 58020 60014
0096832290999991988052618004-13017-038517FM-12+005199999V0201401N00101045001CN0100001N9+02741+02341101101ADDAA106000091AG10999GF106991021041008001021001MA1999999100511MD1999999+0261REMSYN011333   58026
0115832290999991988052700004-13017-038517FM-12+005199999V0201401N00151220001CN9999999N9+02581+02171101311ADDAA106000091AG10999GF103991021011008001001021KA1240M+02801MA1999999100711MD1999999+0191REMSYN017333   10280 58019
0115832290999991988052712004-13017-038517FM-12+005199999V0201401N00151007501CN0040001N9+02671+02221101331ADDAA106000091AG10999GF108991061051008001001021KA1240N+02491MA1999999100731MD1999999-0041REMSYN017333   20249 59004
0096832290999991988052718004-13017-038517FM-12+005199999V0201401N00101007501CN0100001N9+02801+02361101031ADDAA106000091AG10999GF107991071051008001001001MA1999999100431MD1999999-0081REMSYN011333   59008
0115832290999991988052800004-13017-038517FM-12+005199999V0201401N00151045001CN9999999N9+02681+02281101181ADDAA106000091AG10999GF107991041081008001051001KA1240M+02911MA1999999100581MD1999999-0131REMSYN017333   10291 59013
0143832290999991988052812004-13017-038517FM-12+005199999V0201401N00151004201CN0040001N9+02791+02341101171ADDAA124001091AG10999AY161061AY221061GF105991051091004501001001KA1240N+02461MA1999999100571MD1999999-0161MW1031REMSYN023333   20246 59016 60014
0124832290999991988052818004-13017-038517FM-12+005199999V0201801N00261004201CN0040001N9+02621+02351100931ADDAA106000591AG10999AY161061AY221061GF106991051071004501031001MA1999999100331MD1999999-0131MW1031REMSYN017333   59013 69951
0143832290999991988052900004-13017-038517FM-12+005199999V0201401N00101045001CN9999999N9+02441+02411101161ADDAA106002091AG10999AY161061AY231061GF106991041031004501011001KA1240M+02851MA1999999100561MD1999999-0021MW1611REMSYN023333   10285 59002 60021
0143832290999991988052912004-13017-038517FM-12+005199999V0200401N00151045001CN0040001N9+02621+02391101211ADDAA124009091AG10999AY161061AY221061GF107991041051008001051001KA1240N+02391MA1999999100611MD1999999+0041MW1021REMSYN023333   20239 58004 60094
0135832290999991988052918004-13017-038517FM-12+005199999V0202701N00101045001CN0040001N9+02631+02441100931ADDAA106000891AA299001091AG10999AY151061AY221061GF107991041081008001051001MA1999999100341MD1999999+0011MW1021REMSYN017333   58001 69981
0143832290999991988053000004-13017-038517FM-12+005199999V0209991C00001045001CN9999999N9+02401+02371101151ADDAA106007091AG10999AY161061AY261061GF106991041031004501021001KA1240M+02681MA1999999100551MD1999999-0011MW1021REMSYN023333   10268 59001 60071
0121832290999991988053012004-13017-038517FM-12+005199999V0203601N00151045001CN0100001N9+02681+02371101291ADDAA124007091AG10999GF106991041041008001021001KA1240N+02371MA1999999100691MD1999999+0081REMSYN023333   20237 58008 60074
0096832290999991988053018004-13017-038517FM-12+005199999V0201401N00101220001CN0200001N9+02801+02221101061ADDAA106000091AG10999GF100991001001999999001001MA1999999100481MD1999999+0141REMSYN011333   58014
0115832290999991988053100004-13017-038517FM-12+005199999V0200501N00151220001CN9999999N9+02541+99999101171ADDAA106000091AG10999GF100991001001999999001001KA1240M+02901MA1999999100571MD1999999+0021REMSYN017333   10290 58002
0115832290999991988053112004-13017-038517FM-12+005199999V0203601N00101220001CN0200001N9+02701+02351101451ADDAA106000091AG10999GF103991031021008001001001KA1240N+02381MA1999999100861MD1999999+0171REMSYN017333   20238 58017
0096832290999991988053118004-13017-038517FM-12+005199999V0201401N00101220001CN0200001N9+02881+02441101101ADDAA106000091AG10999GF102991021001012501011001MA1999999100521MD1999999+0041REMSYN011333   58004
0115832290999991988060100004-13017-038517FM-12+005199999V0200501N00151220001CN9999999N9+02561+99999101261ADDAA106000091AG10999GF100991001001999999001001KA1240M+02941MA1999999100671MD1999999+0101REMSYN017333   10294 58010
0115832290999991988060112004-13017-038517FM-12+005199999V0203601N00151220001CN0040001N9+02701+02451101471ADDAA106000091AG10999GF103991021011008001041001KA1240N+02411MA1999999100871MD1999999+0011REMSYN017333   20241 58001
0115832290999991988060200004-13017-038517FM-12+005199999V0201101N00151045001CN9999999N9+02661+02391101471ADDAA106000091AG10999GF106991021041004501021001KA1240M+02881MA1999999100981MD1999999+0311REMSYN017333   10288 58031
0143832290999991988060212004-13017-038517FM-12+005199999V0201401N00311004201CN0040001N9+02481+02341101671ADDAA124014091AG10999AY161061AY231061GF108991081071004501999999KA1240N+02381MA1999999101071MD1999999+0201MW1621REMSYN023333   20238 58020 60144
0124832290999991988060218004-13017-038517FM-12+005199999V0201801N00671004201CN0010001N9+02611+02211101491ADDAA106010091AG10999AY161061AY261061GF108991081071004501999999MA1999999100891MD1999999+0611MW1531REMSYN017333   58061 60101
0137832290999991988060300004-13017-038517FM-12+005199999V0201801N00571105001CN9999999N9+02491+02211101661ADDAA106000091AG10999AY161061AY221061GF107991021041008001001081KA1240M+02691MA1999999101061MD1999999+0081MW1021REMSYN017333   10269 58008
0121832290999991988060312004-13017-038517FM-12+005199999V0201801N00311045001CN0040001N9+02691+02111101651ADDAA124010091AG10999GF106991031051008001041001KA1240N+02021MA1999999101051MD1999999-0021REMSYN023333   20202 59002 60104
