0115832880999991988010100004-13267-043417FM-12+0440SBLP V0200901N00051220001CN9999999N9+02741+02301100941ADDAA106000091AG10999GF100991001001999999001001KA1240M+03381MA1999999095881MD1999999-0081REMSYN017333   10338 59008
0115832880999991988010112004-13267-043417FM-12+0440SBLP V0203601N00101045001CN0200001N9+02811+02151101071ADDAA106000091AG10999GF105991031011008001031021KA1240N+02121MA1999999096001MD1999999+0191REMSYN017333   20212 58019
0096832880999991988010118004-13267-043417FM-12+0440SBLP V0202301N00151045001CN0200001N9+02771+02191100871ADDAA106000091AG10999GF107991041031008001021001MA1999999095781MD1999999-0051REMSYN011333   59005
0115832880999991988010200004-13267-043417FM-12+0440SBLP V0202301N00151015001CN9999999N9+02441+02131101161ADDAA106000091AG10999GF108991081001017501021999KA1240M+03121MA1999999096021MD1999999+0041REMSYN017333   10312 58004
0143832880999991988010212004-13267-043417FM-12+0440SBLP V0203201N00151220001CN0200001N9+02401+02211101161ADDAA124005091AG10999AY161061AY221061GF103991011011008001001041KA1240N+02001MA1999999096051MD1999999+0051MW1031REMSYN023333   20200 58005 60054
0096832880999991988010218004-13267-043417FM-12+0440SBLP V0203201N00051220001CN0200001N9+03111+02301100761ADDAA106000091AG10999GF104991021011008001031001MA1999999095691MD1999999-0091REMSYN011333   59009
0115832880999991988010300004-13267-043417FM-12+0440SBLP V0201801N00101045001CN9999999N9+02601+02331100961ADDAA106000091AG10999GF108991041011008001031999KA1240M+03201MA1999999095901MD1999999-0121REMSYN017333   10320 59012
0115832880999991988010312004-13267-043417FM-12+0440SBLP V0201801N00151045001CN0200001N9+02601+02291101211ADDAA106000091AG10999GF106991031011008001061001KA1240N+02001MA1999999096131MD1999999+0081REMSYN017333   20200 58008
0096832880999991988010318004-13267-043417FM-12+0440SBLP V0202301N00311045001CN0200001N9+02801+02341100991ADDAA106000091AG10999GF108991041031008001061001MA1999999095931MD1999999+0241REMSYN011333   58024
0143832880999991988010400004-13267-043417FM-12+0440SBLP V0203601N00211045001CN9999999N9+02201+02131101321ADDAA106028091AG10999AY191061AY261061GF108991041041004501021001KA1240M+03081MA1999999096201MD1999999+0301MW1021REMSYN023333   10308 58030 60281
0121832880999991988010412004-13267-043417FM-12+0440SBLP V0201801N00151105001CN0200001N9+02501+02131101581ADDAA124028091AG10999GF108991031051008001001071KA1240N+01931MA1999999096441MD1999999+0311REMSYN023333   20193 58031 60284
0115832880999991988010418004-13267-043417FM-12+0440SBLP V0202301N00211105001CN0200001N9+03081+02351102542ADDAA106000091AG10999GF106991021081008001001081MA1999999096061MD1999999+0131REMSYN011333   58013EQDQ01+102543APOSLP
0121832880999991988010512004-13267-043417FM-12+0440SBLP V0200901N00151220001CN0200001N9+02641+02271101521ADDAA124001091AG10999GF104991021011008001001051KA1240N+02001MA1999999096421MD1999999+0021REMSYN023333   20200 58002 60014
0096832880999991988010518004-13267-043417FM-12+0440SBLP V0201801N00211105001CN0200001N9+03201+02511101201ADDAA106000091AG10999GF105991041021008001001051MA1999999096111MD1999999-0051REMSYN011333   59005
0198832880999991988010600004-13267-043417FM-12+0440SBLP V0200901N00051220001CN9999999N9+02731+02301999999ADDAA106000091AG10999GF103991001001999999001041KA1240M+99999MA1999999999999MD1999999-0031REMSYN017333   10232 59003EQDQ01+101243APOSP Q02+096193APOSLPQ03 101243APOSP Q04 096193APOSLPQ05 +02322ATMX  
0115832880999991988010612004-13267-043417FM-12+0440SBLP V0201401N00101105001CN0200001N9+02761+02141101401ADDAA106000091AG10999GF105991001001999999001021KA1240N+02151MA1999999096311MD1999999+0121REMSYN017333   20215 58012
0096832880999991988010618004-13267-043417FM-12+0440SBLP V0202301N00151007501CN0200001N9+03261+01801101241ADDAA106000091AG10999GF107991051011008001001021MA1999999095971MD1999999-0141REMSYN011333   59014
0115832880999991988010712004-13267-043417FM-12+0440SBLP V0203201N00051220001CN0200001N9+02701+02221101321ADDAA106000091AG10999GF103991001001999999001021KA1240N+01921MA1999999096231MD1999999-0081REMSYN017333   20192 59008
0096832880999991988010718004-13267-043417FM-12+0440SBLP V0202301N00151105001CN0200001N9+03331+01871100981ADDAA106000091AG10999GF105991021011008001001021MA1999999095911MD1999999-0061REMSYN011333   59006
0115832880999991988010800004-13267-043417FM-12+0440SBLP V0201801N00101220001CN9999999N9+02601+02231101151ADDAA106000091AG10999GF100991001001999999001001KA1240M+03401MA1999999096091MD1999999+0091REMSYN017333   10340 58009
0115832880999991988010812004-13267-043417FM-12+0440SBLP V0201801N00151220001CN0200001N9+02701+02281101211ADDAA106000091AG10999GF100991001001999999001001KA1240N+01981MA1999999096231MD1999999+0001REMSYN017333   20198 58000
0096832880999991988010818004-13267-043417FM-12+0440SBLP V0201401N00151220001CN0200001N9+03421+02321101081ADDAA106000091AG10999GF100991001001999999001001MA1999999095941MD1999999+0031REMSYN011333   58003
0115832880999991988010900004-13267-043417FM-12+0440SBLP V0201801N00101220001CN9999999N9+02451+01691101101ADDAA106000091AG10999GF100991001001999999001001KA1240M+03481MA1999999096011MD1999999-0081REMSYN017333   10348 59008
0115832880999991988010912004-13267-043417FM-12+0440SBLP V0200901N00211220001CN0200001N9+02761+02141101271ADDAA106000091AG10999GF100991001001999999001001KA1240N+01901MA1999999096171MD1999999-0061REMSYN017333   20190 59006
0096832880999991988010918004-13267-043417FM-12+0440SBLP V0202301N00101220001CN0200001N9+03171+02421100841ADDAA106000091AG10001GF105991031021008001001011MA1999999095771MD1999999-0171REMSYN011333   59017
0137832880999991988011000004-13267-043417FM-12+0440SBLP V0201801N00101045001CN9999999N9+02781+02401101041ADDAA106000091AG10999AY191061AY211061GF105991031051008001011001KA1240M+03281MA1999999095971MD1999999-0041MW1131REMSYN017333   10328 59004
0115832880999991988011012004-13267-043417FM-12+0440SBLP V0201801N00151045001CN0200001N9+02501+02291101281ADDAA106000091AG10999GF106991041081008001031001KA1240N+02041MA1999999096171MD1999999+0001REMSYN017333   20204 58000
0100832880999991988011018004-13267-043417FM-12+0440SBLP V0209999999999045001CN0200001N9+02941+02331100901ADDAA106000091AG10001GF108991041021008001031061MD1999999+0041REMSYN011333   58004EQDQ01+095183APOSP 
0143832880999991988011100004-13267-043417FM-12+0440SBLP V0201801N00151007501CN9999999N9+99999+99999101251ADDAA106002091AG10999AY161061AY261061GF108991061051008001021999KA1240M+02941MA1999999096141MD1999999+0171MW1031REMSYN023333   10294 58017 60021
0143832880999991988011112004-13267-043417FM-12+0440SBLP V0201801N00051007501CN0200001N9+02131+01931101521ADDAA124013091AG10999AY161061AY261061GF108991061051008001021999KA1240N+02001MA1999999096361MD1999999+0191MW1611REMSYN023333   20200 58019 60134
0128832880999991988011118004-13267-043417FM-12+0440SBLP V0203201N00051004201CN0040001N9+02141+01951101171ADDAA106002091AG10999AY161061AY261061GF108991081051004501999999MD1999999+0191MW1621REMSYN017333   58019 60021EQDQ01+091423APOSP 
0143832880999991988011200004-13267-043417FM-12+0440SBLP V0201801N00101045001CN9999999N9+02261+02181101311ADDAA106001091AG10999AY161061AY261061GF108991031061008001021999KA1240M+02521MA1999999096161MD1999999+0021MW1201REMSYN023333   10252 58002 60011
0143832880999991988011212004-13267-043417FM-12+0440SBLP V0200501N00211045001CN0200001N9+02381+02241101501ADDAA124002091AG10001AY161061AY251061GF108991031051008001011011KA1240N+02181MA1999999096361MD1999999+0001MW1021REMSYN023333   20218 58000 60024
0124832880999991988011218004-13267-043417FM-12+0440SBLP V0200501N00361045001CN0200001N9+02641+02181101201ADDAA106000391AG10999AY121061AY221061GF108991041051008001021999MA1999999096081MD1999999+0061MW1601REMSYN017333   58006 69931
0143832880999991988011300004-13267-043417FM-12+0440SBLP V0201801N00101045001CN9999999N9+02401+02301101491ADDAA106001091AG10999AY161061AY261061GF106991031051004501071999KA1240M+02861MA1999999096361MD1999999+0201MW1011REMSYN023333   10286 58020 60011
0121832880999991988011312004-13267-043417FM-12+0440SBLP V0201801N00211045001CN0200001N9+02501+02211101661ADDAA124002091AG10999GF107991041081008001071001KA1240N+02021MA1999999096531MD1999999+0171REMSYN023333   20202 58017 60024
0096832880999991988011318004-13267-043417FM-12+0440SBLP V0200901N00261220001CN0200001N9+03001+02141101291ADDAA106000091AG10999GF102991021011008001001001MA1999999096191MD1999999+0111REMSYN011333   58011
0115832880999991988011400004-13267-043417FM-12+0440SBLP V0201801N00101220001CN9999999N9+02581+02271101401ADDAA106000091AG10999GF100991001001999999001001KA1240M+03061MA1999999096291MD1999999-0071REMSYN017333   10306 59007
0115832880999991988011412004-13267-043417FM-12+0440SBLP V0201801N00151105001CN0200001N9+02441+01991101731ADDAA106000091AG10999GF105991011011008001041081KA1240N+01901MA1999999096601MD1999999+0071REMSYN017333   20190 58007
0096832880999991988011418004-13267-043417FM-12+0440SBLP V0200901N00671220001CN0200001N9+02941+02161101441ADDAA106000091AG10999GF105991031041008001001081MA1999999096321MD1999999+0131REMSYN011333   58013
0115832880999991988011500004-13267-043417FM-12+0440SBLP V0201801N00151220001CN9999999N9+02541+01831101311ADDAA106000091AG10999GF100991001001999999001001KA1240M+02881MA1999999096221MD1999999-0071REMSYN017333   10288 59007
0115832880999991988011512004-13267-043417FM-12+0440SBLP V0201801N00101220001CN0200001N9+02641+02071101641ADDAA106000091AG10001GF101991011001017501041001KA1240N+01111MA1999999096521MD1999999-0081REMSYN017333   20111 59008
0096832880999991988011518004-13267-043417FM-12+0440SBLP V0201801N00151007501CN0200001N9+03181+02071101261ADDAA106000091AG10999GF105991051021008001001001MA1999999096141MD1999999-0151REMSYN011333   59015
0115832880999991988011600004-13267-043417FM-12+0440SBLP V0201801N00151220001CN9999999N9+02641+02181101221ADDAA106000091AG10999GF100991001001999999001001KA1240M+03221MA1999999096131MD1999999-0091REMSYN017333   10322 59009
0115832880999991988011612004-13267-043417FM-12+0440SBLP V0201401N00101220001CN0200001N9+02701+02221101541ADDAA106000091AG10999GF101991011011008001001001KA1240N+02101MA1999999096441MD1999999-0081REMSYN017333   20210 59008
0081832880999991988011618004-13267-043417FM-12+0440SBLP V0202301N00311220001CN0200001N9+03211+02041101171ADDAA106000091AG10999GF103991031011008001001001MD1999999-0051REMSYN011333   59005
0115832880999991988011700004-13267-043417FM-12+0440SBLP V0201801N00211220001CN9999999N9+02621+02121101281ADDAA106000091AG10999GF100991001001999999001001KA1240M+03281MA1999999096191MD1999999+0061REMSYN017333   10328 58006
0115832880999991988011712004-13267-043417FM-12+0440SBLP V0200501N00151220001CN0200001N9+02821+02241102721ADDAA106000091AG10999GF100991001001999999001001KA1240N+02101MA1999999096381MD1999999+0191REMSYN017333   20210 58019
0115832880999991988011718004-13267-043417FM-12+0440SBLP V0203201N00151220001CN0200001N9+03211+02411101022ADDAA106000091AG10999GF104991041021008001001001MA1999999095941MD1999999+0151REMSYN011333   58015EQDQ01+101023APOSLP
0115832880999991988011800004-13267-043417FM-12+0440SBLP V0202701N00101220001CN9999999N9+02621+02251101131ADDAA106000091AG10999GF102991021011008001001001KA1240M+03281MA1999999096051MD1999999-0141REMSYN017333   10328 59014
0115832880999991988011812004-13267-043417FM-12+0440SBLP V0201801N00101220001CN0200001N9+02771+02291101421ADDAA106000091AG10999GF103991031021008001001001KA1240N+02261MA1999999096331MD1999999-0051REMSYN017333   20226 59005
0096832880999991988011818004-13267-043417FM-12+0440SBLP V0200901N00101007501CN0200001N9+03141+02271101091ADDAA106000091AG10999GF105991051021008001001001MA1999999096011MD1999999+0071REMSYN011333   58007
0115832880999991988011900004-13267-043417FM-12+0440SBLP V0201801N00151220001CN9999999N9+02681+02021101161ADDAA106000091AG10999GF100991001001999999001001KA1240M+03191MA1999999096081MD1999999+0031REMSYN017333   10319 58003
0115832880999991988011912004-13267-043417FM-12+0440SBLP V0201801N00051220001CN0200001N9+02561+02061101551ADDAA106000091AG10999GF100991001001999999001001KA1240N+01921MA1999999096441MD1999999+0091REMSYN017333   20192 58009
0096832880999991988011918004-13267-043417FM-12+0440SBLP V0202301N00101220001CN0200001N9+03221+02081101171ADDAA106000091AG10999GF102991021011008001001001MA1999999096081MD1999999+0071REMSYN011333   58007
0143832880999991988012000004-13267-043417FM-12+0440SBLP V0201801N00101220001CN9999999N9+02491+02251101131ADDAA106004091AG10999AY161061AY221061GF101991011011008001001001KA1240M+03261MA1999999096031MD1999999-0051MW1021REMSYN023333   10326 59005 60041
0121832880999991988012012004-13267-043417FM-12+0440SBLP V0201801N00151220001CN0200001N9+02721+02191101301ADDAA124004091AG10999GF101991001001999999001021KA1240N+01901MA1999999096201MD1999999-0241REMSYN023333   20190 59024 60044
0096832880999991988012018004-13267-043417FM-12+0440SBLP V0202301N00211007501CN0200001N9+03001+02191100991ADDAA106000091AG10999GF106991061011008001001001MA1999999095901MD1999999-0181REMSYN011333   59018
0115832880999991988012100004-13267-043417FM-12+0440SBLP V0201801N00151220001CN9999999N9+02561+02191101902ADDAA106000091AG10999GF100991001001999999001001MA1999999095921MD1999999-0121REMSYN011333   59012EQDQ01+101903APOSLP
0115832880999991988012112004-13267-043417FM-12+0440SBLP V0203601N00151220001CN0200001N9+02661+02241101221ADDAA106000091AG10999GF100991001001999999001001KA1240N+01901MA1999999096131MD1999999-0071REMSYN017333   20190 59007
0096832880999991988012118004-13267-043417FM-12+0440SBLP V0202301N00101220001CN0200001N9+03231+02081100931ADDAA106000091AG10001GF102991021011008001001001MA1999999095851MD1999999-0071REMSYN011333   59007
0115832880999991988012200004-13267-043417FM-12+0440SBLP V0200901N00101220001CN9999999N9+02601+02211101081ADDAA106000091AG10999GF100991001001999999001001KA1240M+03321MA1999999095991MD1999999+0071REMSYN017333   10332 58007
0115832880999991988012212004-13267-043417FM-12+0440SBLP V0203601N00101220001CN0200001N9+02801+02151101271ADDAA106000091AG10999GF100991001001999999001001KA1240N+02001MA1999999096181MD1999999+0051REMSYN017333   20200 58005
0096832880999991988012218004-13267-043417FM-12+0440SBLP V0202301N00101220001CN0200001N9+03291+02331100891ADDAA106000091AG10999GF104991041021008001001001MA1999999095821MD1999999-0031REMSYN011333   59003
0115832880999991988012300004-13267-043417FM-12+0440SBLP V0200901N00051220001CN9999999N9+02681+02201101351ADDAA106000091AG10999GF100991001001999999001001KA1240M+03341MA1999999096271MD1999999+0091REMSYN017333   10334 58009
0115832880999991988012312004-13267-043417FM-12+0440SBLP V0201401N00051045001CN0200001N9+02741+02051101191ADDAA106000091AG10999GF105991031011008001031001KA1240N+02101MA1999999096101MD1999999-0081REMSYN017333   20210 59008
0096832880999991988012318004-13267-043417FM-12+0440SBLP V0202301N00151220001CN0200001N9+03231+01981100821ADDAA106000091AG10999GF104991041021008001001001MA1999999095761MD1999999-0251REMSYN011333   59025
0134832880999991988012400004-13267-043417FM-12+0440SBLP V0201001N04272220001CN9999999N9+02701+02131100891ADDAA106000091AG10999GF101991011011008001001001KA1240M+03361MA1999999095821MD1999999-0451REMSYN017333   10336 59045EQDQ01+004273WOSPD 
0115832880999991988012412004-13267-043417FM-12+0440SBLP V0201401N00101220001CN0200001N9+02701+02081101211ADDAA106000091AG10999GF103991001001999999001011KA1240N+01871MA1999999096131MD1999999-0031REMSYN017333   20187 59003
0096832880999991988012418004-13267-043417FM-12+0440SBLP V0200501N00101220001CN0200001N9+03221+02111101011ADDAA106000091AG10999GF106991031021008001001041MA1999999095921MD1999999+0171REMSYN011333   58017
0115832880999991988012500004-13267-043417FM-12+0440SBLP V0200501N00101220001CN9999999N9+02631+02161101151ADDAA106000091AG10999GF102991021001022501041001KA1240M+03291MA1999999096061MD1999999+0241REMSYN017333   10329 58024
0115832880999991988012512004-13267-043417FM-12+0440SBLP V0200901N00151220001CN0200001N9+02761+02071101371ADDAA106000091AG10999GF100991001001999999001001KA1240N+02001MA1999999096281MD1999999+0151REMSYN017333   20200 58015
0096832880999991988012518004-13267-043417FM-12+0440SBLP V0200501N00151220001CN0200001N9+03221+01981100981ADDAA106000091AG10999GF103991031021008001001001MA1999999095901MD1999999-0021REMSYN011333   59002
0115832880999991988012600004-13267-043417FM-12+0440SBLP V0201801N00101220001CN9999999N9+02631+01941100981ADDAA106000091AG10999GF100991001001999999001001KA1240M+03321MA1999999095911MD1999999-0151REMSYN017333   10332 59015
0115832880999991988012612004-13267-043417FM-12+0440SBLP V0201401N00101220001CN0200001N9+02721+02031101281ADDAA106000091AG10999GF103991001001999999001011KA1240N+01981MA1999999096191MD1999999-0091REMSYN017333   20198 59009
0096832880999991988012618004-13267-043417FM-12+0440SBLP V0201801N00151220001CN0200001N9+03241+02261101061ADDAA106000091AG10999GF104991041021008001001001MA1999999095971MD1999999+0071REMSYN011333   58007
0134832880999991988012712004-13267-043417FM-12+0440SBLP V0201801N00101012001CN0200001N9+02561+01991101421ADDAA106000091AG10999GF107991999081008001001001KA1240N+02251MA1999999096311MD1999999+0121REMSYN017333   20225 58012EQDQ01+000052SCOTLC
0115832880999991988012818004-13267-043417FM-12+0440SBLP V0201801N00211220001CN0200001N9+99999+99999100901ADDAA106000091AG10999GF103991999021008001001001MA1999999095841MD1999999-0021REMSYN011333   59002EQDQ01+000022SCOTLC
0115832880999991988012912004-13267-043417FM-12+0440SBLP V0200501N00211220001CN0200001N9+02761+02211101341ADDAA106000091AG10999GF101991011001022501031001KA1240N+02091MA1999999096261MD1999999+0061REMSYN017333   20209 58006
0096832880999991988012918004-13267-043417FM-12+0440SBLP V0203201N00311220001CN0200001N9+03461+02301100841ADDAA106000091AG10999GF103991031011008001001001MA1999999095801MD1999999-0041REMSYN011333   59004
0134832880999991988013012004-13267-043417FM-12+0440SBLP V0203201N00101220001CN0200001N9+02821+02271101261ADDAA106000091AG10999GF106991001001999999001081KA1240M+99999MA1999999096191MD1999999+0251REMSYN017333   10210 58025EQDQ01 +02102ATMX  
0096832880999991988013018004-13267-043417FM-12+0440SBLP V0202301N00211105001CN0200001N9+03321+02301100861ADDAA106000091AG10999GF106991021021008001001081MA1999999095881MD1999999-0131REMSYN011333   59013
0115832880999991988013100004-13267-043417FM-12+0440SBLP V0200901N00151220001CN9999999N9+02821+02291101051ADDAA106000091AG10999GF103991021011008001031001KA1240M+03401MA1999999095981MD1999999+0041REMSYN017333   10340 58004
0096832880999991988013118004-13267-043417FM-12+0440SBLP V0202701N00151220001CN0200001N9+03501+02371100861ADDAA106000091AG10999GF104991041021008001001001MA1999999095821MD1999999+0011REMSYN011333   58001
0115832880999991988020112004-13267-043417FM-12+0440SBLP V0201801N00151220001CN0200001N9+02901+02041101391ADDAA106000091AG10999GF102991001001999999001041KA1240N+02121MA1999999096261MD1999999+0081REMSYN017333   20212 58008
0096832880999991988020118004-13267-043417FM-12+0440SBLP V0202301N00151220001CN0200001N9+03541+01021100781ADDAA106000091AG10999GF103991031021008001001001MA1999999095721MD1999999-0101REMSYN011333   59010
0115832880999991988020200004-13267-043417FM-12+0440SBLP V0202701N00101220001CN9999999N9+02961+02211100801ADDAA106000091AG10999GF100991001001999999001001KA1240M+03581MA1999999095741MD1999999-0021REMSYN017333   10358 59002
0115832880999991988020218004-13267-043417FM-12+0440SBLP V0202701N00211220001CN0200001N9+03581+02411100501ADDAA106000091AG10999GF104991999021008001001001MA1999999095701MD1999999-0021REMSYN011333   59002EQDQ01+000032SCOTLC
0104832880999991988020300004-13267-043417FM-12+0440SBLP V0203101N00151220001CN9999999N9+02821+02501100821ADDAG10999GF103991011011008001031001KA1240M+03621MA1999999095751MD1999999+0021REMSYN017333   10362 58002
0115832880999991988020312004-13267-043417FM-12+0440SBLP V0203201N00211220001CN0200001N9+02801+02181101191ADDAA106000091AG10999GF102991011011008001031001KA1240N+02131MA1999999096121MD1999999+0111REMSYN017333   20213 58011
0143832880999991988020400004-13267-043417FM-12+0440SBLP V0201401N00211004201CN9999999N9+02321+02221101061ADDAA106038091AG10999AY191061AY281061GF108991051051004501021999KA1240M+03481MA1999999095971MD1999999+0211MW1961REMSYN023333   10348 58021 60381
0121832880999991988020412004-13267-043417FM-12+0440SBLP V0200901N00151220001CN0200001N9+02661+02271101211ADDAA124040091AG10001GF102991021061004501001001KA1240N+01921MA1999999096101MD1999999-0021REMSYN023333   20192 59002 60404
0096832880999991988020418004-13267-043417FM-12+0440SBLP V0203201N00261220001CN0200001N9+03181+02191100791ADDAA106000091AG10999GF102991021021008001001001MA1999999095731MD1999999+0091REMSYN011333   58009
0115832880999991988020500004-13267-043417FM-12+0440SBLP V0201801N00051220001CN9999999N9+02901+02341100871ADDAA106000091AG10999GF102991021011008001001001KA1240M+03301MA1999999095811MD1999999-0161REMSYN017333   10330 59016
0115832880999991988020512004-13267-043417FM-12+0440SBLP V0203601N00151220001CN0200001N9+02641+02181101301ADDAA106000091AG10999GF104991001001999999001051KA1240N+02101MA1999999096221MD1999999+0121REMSYN017333   20210 58012
0096832880999991988020518004-13267-043417FM-12+0440SBLP V0202701N00211220001CN0200001N9+03221+02321100991ADDAA106000091AG10999GF104991031021008001001051MA1999999095931MD1999999+0201REMSYN011333   58020
0115832880999991988020600004-13267-043417FM-12+0440SBLP V0202701N00101220001CN9999999N9+02821+02201101181ADDAA106000091AG10999GF102991001001999999001021KA1240M+03321MA1999999096101MD1999999+0181REMSYN017333   10332 58018
0115832880999991988020612004-13267-043417FM-12+0440SBLP V0201801N00101220001CN0200001N9+02641+02271101611ADDAA106000091AG10999GF103991031011008001001001KA1240N+02121MA1999999096421MD1999999+0201REMSYN017333   20212 58020
0096832880999991988020618004-13267-043417FM-12+0440SBLP V0201401N00151220001CN0200001N9+03271+01951101001ADDAA106000091AG10999GF103991021021008001001041MA1999999095941MD1999999+0011REMSYN011333   58001
0115832880999991988020700004-13267-043417FM-12+0440SBLP V0201801N00151220001CN9999999N9+02601+02121101151ADDAA106000091AG10999GF100991001001999999001001KA1240M+03401MA1999999096091MD1999999-0011REMSYN017333   10340 59001
0115832880999991988020712004-13267-043417FM-12+0440SBLP V0203601N00101220001CN0200001N9+02681+02281101301ADDAA106000091AG10999GF100991001001999999001001KA1240N+02031MA1999999096291MD1999999-0131REMSYN017333   20203 59013
0096832880999991988020718004-13267-043417FM-12+0440SBLP V0201801N001019999999N0200001N9+03381+02371100921ADDAA106000091AG10999GF106991999999999999999999MA1999999095841MD1999999-0101REMSYN011333   59010
0115832880999991988020812004-13267-043417FM-12+0440SBLP V0201801N00101045001CN0200001N9+02761+02231101241ADDAA106000091AG10001GF105991011011008001031001KA1240N+02301MA1999999096171MD1999999-0121REMSYN017333   20230 59012
0124832880999991988020818004-13267-043417FM-12+0440SBLP V0203201N00151045001CN0200001N9+03181+02311100851ADDAA106007091AG10999AY161061AY221061GF106991031021008001061001MA1999999095791MD1999999-0051MW1021REMSYN017333   59005 60071
0115832880999991988020900004-13267-043417FM-12+0440SBLP V0209991C00001012001CN9999999N9+02641+02371100981ADDAA106000091AG10999GF105991051081008001001001KA1240M+03221MA1999999095911MD1999999+0061REMSYN017333   10322 58006
0121832880999991988020912004-13267-043417FM-12+0440SBLP V0201801N00151045001CN0200001N9+02601+02291101161ADDAA124007091AG10999GF106991031041008001051001KA1240N+02281MA1999999096071MD1999999-0101REMSYN023333   20228 59010 60074
0096832880999991988020918004-13267-043417FM-12+0440SBLP V0203201N00151220001CN0200001N9+03301+02051100711ADDAA106000091AG10999GF104991041011008001001001MA1999999095661MD1999999-0131REMSYN011333   59013
0115832880999991988021000004-13267-043417FM-12+0440SBLP V0201801N00151012001CN9999999N9+02541+02291100991ADDAA106000091AG10999GF106991061081008001001001KA1240M+03381MA1999999095911MD1999999+0001REMSYN017333   10338 58000
0115832880999991988021012004-13267-043417FM-12+0440SBLP V0201801N00151007501CN0200001N9+02601+02231101181ADDAA106000091AG10999GF106991051021008001001091KA1240N+02021MA1999999096091MD1999999+0021REMSYN017333   20202 58002
0096832880999991988021018004-13267-043417FM-12+0440SBLP V0202701N00151007501CN0200001N9+03281+02291100751ADDAA106000091AG10999GF105991051021008001001001MA1999999095691MD1999999+0031REMSYN011333   58003
0115832880999991988021112004-13267-043417FM-12+0440SBLP V0201801N00151007501CN0200001N9+02541+02151101011ADDAA106000091AG10999GF105991051011008001031001KA1240N+02311MA1999999095921MD1999999-0171REMSYN017333   20231 59017
0096832880999991988021118004-13267-043417FM-12+0440SBLP V0202301N00151045001CN0200001N9+02731+02191100851ADDAA106000091AG10999GF107991041051008001021001MA1999999095761MD1999999+0071REMSYN011333   58007
0121832880999991988021212004-13267-043417FM-12+0440SBLP V0203601N00151105001CN0200001N9+02401+01971101191ADDAA106012091AG10999GF106991011011008001001081KA1240N+02001MA1999999096131MD1999999+0211REMSYN023333   20200 58021 60121
0115832880999991988021300004-13267-043417FM-12+0440SBLP V0201401N00051045001CN9999999N9+02401+02261101141ADDAA106000091AG10999GF106991031081008001021001KA1240M+03021MA1999999096031MD1999999-0091REMSYN017333   10302 59009
0143832880999991988021312004-13267-043417FM-12+0440SBLP V0201801N00051045001CN0200001N9+02361+02261101341ADDAA124009091AG10999AY161061AY261061GF108991041061008001021999KA1240N+02091MA1999999096221MD1999999+0091MW1211REMSYN023333   20209 58009 60094
0115832880999991988021318004-13267-043417FM-12+0440SBLP V0201801N002619999999N0200001N9+02911+02271100971ADDAA106000091AG10001GF105991999021008001001001MA1999999095881MD1999999-0041REMSYN011333   59004EQDQ01+000032SCOTLC
0115832880999991988021400004-13267-043417FM-12+0440SBLP V0203201N00151007501CN9999999N9+02621+02311101031ADDAA106000091AG10999GF108991051051008001001071KA1240M+03061MA1999999095931MD1999999-0101REMSYN017333   10306 59010
0115832880999991988021412004-13267-043417FM-12+0440SBLP V0209991C00001105001CN0200001N9+02701+02351101351ADDAA106000091AG10999GF105991031051008001001071KA1240N+02001MA1999999096221MD1999999+0221REMSYN017333   20200 58022
0096832880999991988021418004-13267-043417FM-12+0440SBLP V0203601N00151220001CN0200001N9+03181+02281100921ADDAA106000091AG10999GF103991031021008001001001MA1999999095851MD1999999+0371REMSYN011333   58037
0134832880999991988021500004-13267-043417FM-12+0440SBLP V0201801N00151220001CN9999999N9+02701+02201101021ADDAA106000091AG10999GF100991001001999999001001KA1240M+03261MA1999999095052MD1999999+0021REMSYN017333   10326 58002EQDQ01+095053APOSP 
0115832880999991988021512004-13267-043417FM-12+0440SBLP V0203601N00151220001CN0200001N9+02621+02121101271ADDAA106000091AG10999GF104991011011008001001061KA1240N+01941MA1999999096181MD1999999-0041REMSYN017333   20194 59004
0096832880999991988021518004-13267-043417FM-12+0440SBLP V0201701N00101220001CN0200001N9+03301+02361100891ADDAA106000091AG10999GF104991021021008001001021MA1999999095821MD1999999-0031REMSYN011333   59003
0134832880999991988021612004-13267-043417FM-12+0440SBLP V0201801N00101220001CN0200001N9+02641+02141101201ADDAA106000091AG10999GF102991001001999999001041KA1240N+01951MA1999999096121MD1999999-0051REMSYN017333   20195 59005EQDQ01+000952SCOLCB
0096832880999991988021618004-13267-043417FM-12+0440SBLP V0202701N00051007501CN0200001N9+03401+02371100601ADDAA106000091AG10999GF105991051021008001001001MA1999999095561MD1999999-0261REMSYN011333   59026
0115832880999991988021700004-13267-043417FM-12+0440SBLP V0201801N00101220001CN9999999N9+02801+02251100831ADDAA106000091AG10999GF100991001001999999001001KA1240M+03501MA1999999095771MD1999999-0581REMSYN017333   10350 59058
0115832880999991988021712004-13267-043417FM-12+0440SBLP V0201801N00151220001CN0200001N9+02761+02281101081ADDAA106000091AG10999GF100991001001999999001001KA1240N+02001MA1999999096021MD1999999-0101REMSYN017333   20200 59010
0096832880999991988021718004-13267-043417FM-12+0440SBLP V0203601N00211220001CN0200001N9+03361+02361100531ADDAA106000091AG10999GF103991031011008001001001MA1999999095531MD1999999-0031REMSYN011333   59003
0115832880999991988021800004-13267-043417FM-12+0440SBLP V0202301N00151220001CN9999999N9+02921+02241100641ADDAA106000091AG10999GF102991021011008001001001KA1240M+03411MA1999999095601MD1999999-0171REMSYN017333   10341 59017
0115832880999991988021812004-13267-043417FM-12+0440SBLP V0203601N00151045001CN0200001N9+02701+02221101081ADDAA106000091AG10999GF108991031081008001011999KA1240N+02281MA1999999096011MD1999999-0011REMSYN017333   20228 59001
0096832880999991988021818004-13267-043417FM-12+0440SBLP V0203201N00311105001CN0200001N9+03161+02141100661ADDAA106000091AG10999GF107991021011008001001061MA1999999095661MD1999999+0131REMSYN011333   58013
0115832880999991988021900004-13267-043417FM-12+0440SBLP V0202301N00151220001CN9999999N9+02681+02331100941ADDAA106000091AG10999GF100991001001999999001001KA1240M+03201MA1999999095871MD1999999+0271REMSYN017333   10320 58027
0115832880999991988021912004-13267-043417FM-12+0440SBLP V0200901N00101220001CN0200001N9+02801+02361999999ADDAA106000091AG10999GF100991001001999999001001KA1240N+02191MA1999999096141MD1999999+0111REMSYN017333   20219 58011
0096832880999991988021918004-13267-043417FM-12+0440SBLP V0202701N00211105001CN0200001N9+03381+01981100821ADDAA106000091AG10999GF106991031021008001001081MA1999999095771MD1999999+0111REMSYN011333   58011
0115832880999991988022000004-13267-043417FM-12+0440SBLP V0201401N00151220001CN9999999N9+02841+02041101001ADDAA106000091AG10999GF103991031011008001001001KA1240M+03501MA1999999095941MD1999999+0071REMSYN017333   10350 58007
0115832880999991988022012004-13267-043417FM-12+0440SBLP V0202301N00151220001CN0200001N9+02721+02031101321ADDAA106000091AG10999GF101991001001999999001081KA1240N+02141MA1999999096241MD1999999+0121REMSYN017333   20214 58012
0096832880999991988022018004-13267-043417FM-12+0440SBLP V0202701N00211220001CN0200001N9+03541+02131100891ADDAA106000091AG10999GF104991041021008001001001MA1999999095851MD1999999+0081REMSYN011333   58008
0115832880999991988022112004-13267-043417FM-12+0440SBLP V0201801N00101220001CN0200001N9+02681+01921101401ADDAA106000091AG10999GF102991021011008001001001KA1240N+02221MA1999999096311MD1999999+0071REMSYN017333   20222 58007
0096832880999991988022118004-13267-043417FM-12+0440SBLP V0201401N00151220001CN0200001N9+03431+01871100881ADDAA106000091AG10999GF102991021011008001001001MA1999999095831MD1999999-0131REMSYN011333   59013
0115832880999991988022312004-13267-043417FM-12+0440SBLP V0209999999999220001CN0200001N9+02841+01961101101ADDAA106000091AG10999GF102991011001022501031021KA1240N+01961MA1999999096041MD1999999-0271REMSYN017333   20196 59027
0096832880999991988022318004-13267-043417FM-12+0440SBLP V0209999999999220001CN0200001N9+03501+01811100621ADDAA106000091AG10999GF105991021021008001001041MA1999999095581MD1999999-0121REMSYN011333   59012
0115832880999991988022400004-13267-043417FM-12+0440SBLP V0209999999999012001CN9999999N9+02861+02061100781ADDAA106000091AG10999GF106991061081008001001001KA1240M+03561MA1999999095741MD1999999-0041REMSYN017333   10356 59004
0115832880999991988022412004-13267-043417FM-12+0440SBLP V0209999999999220001CN0200001N9+02741+02171101051ADDAA106000091AG10999GF101991011011008001001001KA1240N+02101MA1999999095981MD1999999-0061REMSYN017333   20210 59006
0096832880999991988022418004-13267-043417FM-12+0440SBLP V0209999999999220001CN0200001N9+03221+01871100521ADDAA106000091AG10999GF103991031021008001001001MA1999999095481MD1999999-0101REMSYN011333   59010
0115832880999991988022500004-13267-043417FM-12+0440SBLP V0209999999999007501CN9999999N9+02641+02031100661ADDAA106000091AG10999GF106991061021008001001001KA1240M+03461MA1999999095601MD1999999-0141REMSYN017333   10346 59014
0115832880999991988022512004-13267-043417FM-12+0440SBLP V0209999999999220001CN0200001N9+02711+02181100961ADDAA106000091AG10999GF105991001001999999001081KA1240N+01901MA1999999095881MD1999999-0101REMSYN017333   20190 59010
0096832880999991988022518004-13267-043417FM-12+0440SBLP V0209999999999007501CN0200001N9+03401+02111100481ADDAA106000091AG10999GF106991061021008001001001MA1999999095441MD1999999-0041REMSYN011333   59004
0115832880999991988022612004-13267-043417FM-12+0440SBLP V0209999999999220001CN0200001N9+02741+01871101151ADDAA106000091AG10999GF105991021011008001001041KA1240N+02021MA1999999096021MD1999999+0041REMSYN017333   20202 58004
0118832880999991988022618004-13267-043417FM-12+0440SBLP V02099999999999999999N0200001N9+03301+01801100691ADDAA106000091AG10999AY101061AY291061GF107991031001008001001021MA1999999095631MD1999999+0191MW1151REMSYN011333   58019
0121832880999991988022700004-13267-043417FM-12+0440SBLP V0209999999999012001CN9999999N9+02641+02271100841ADDAA106000391AG10999GF108991081081008001999999KA1240M+03581MA1999999095771MD1999999+0221REMSYN023333   10358 58022 69931
0121832880999991988022712004-13267-043417FM-12+0440SBLP V0209999999999220001CN0200001N9+02691+02131101181ADDAA124000391AG10999GF105991001001999999001041KA1240N+01901MA1999999096091MD1999999+0071REMSYN023333   20190 58007 69934
0116832880999991988022718004-13267-043417FM-12+0440SBLP V0209999999999012001CN0200001N9+02601+02331100881ADDAA106003091AG10999AY131061GF108991061081008001001091MA1999999095781MD1999999+0151MW1961REMSYN017333   58015 60031
0143832880999991988022800004-13267-043417FM-12+0440SBLP V0209999999999045001CN9999999N9+02631+02391100961ADDAA106004091AG10999AY161061AY261061GF107991021011008001071001KA1240M+03341MA1999999095881MD1999999+0111MW1021REMSYN023333   10334 58011 60041
0121832880999991988022812004-13267-043417FM-12+0440SBLP V0209999999999220001CN0200001N9+02641+02051101271ADDAA124007091AG10999GF103991001001999999001021KA1240N+01881MA1999999096181MD1999999+0091REMSYN023333   20188 58009 60074
0096832880999991988022818004-13267-043417FM-12+0440SBLP V0209999999999220001CN0200001N9+03441+02141100781ADDAA106000091AG10999GF104991041021008001001001MA1999999095721MD1999999-0061REMSYN011333   59006
0115832880999991988022900004-13267-043417FM-12+0440SBLP V0209999999999012001CN9999999N9+02761+02141100941ADDAA106000091AG10999GF107991071081008001001001KA1240M+03501MA1999999095871MD1999999-0011REMSYN017333   10350 59001
0115832880999991988022912004-13267-043417FM-12+0440SBLP V0209999999999105001CN0200001N9+02731+02031101201ADDAA106000091AG10999GF106991001001999999001051KA1240N+02001MA1999999096121MD1999999-0061REMSYN017333   20200 59006
0096832880999991988022918004-13267-043417FM-12+0440SBLP V0209999999999220001CN0200001N9+03551+02201100761ADDAA106000091AG10999GF103991031021008001001001MA1999999095711MD1999999-0011REMSYN011333   59001
0115832880999991988030100004-13267-043417FM-12+0440SBLP V0209999999999220001CN9999999N9+02581+02211100991ADDAA106000091AG10999GF104991021021008001031001KA1240M+03541MA1999999095911MD1999999+0041REMSYN017333   10354 58004
0135832880999991988030112004-13267-043417FM-12+0440SBLP V0209999999999045001CN0200001N9+02751+02201101341ADDAA124002091AG10999AY161061GF106991021011008001031081KA1240N+02181MA1999999096251MD1999999+0131MW1021REMSYN023333   20218 58013 60024
0096832880999991988030118004-13267-043417FM-12+0440SBLP V0209999999999105001CN0200001N9+03401+02341100881ADDAA106000091AG10999GF106991041021008001001081MA1999999095821MD1999999+0111REMSYN011333   58011
0115832880999991988030200004-13267-043417FM-12+0440SBLP V0209999999999007501CN9999999N9+02471+02201101091ADDAA106000091AG10999GF105991051011008001001001KA1240M+03441MA1999999096001MD1999999+0091REMSYN017333   10344 58009
0143832880999991988030212004-13267-043417FM-12+0440SBLP V0209999999999045001CN0200001N9+02541+02291101651ADDAA124016091AG10999AY101061AY261061GF107991041051008001021001KA1240N+02021MA1999999096561MD1999999+0281MW1031REMSYN023333   20202 58028 60164
0096832880999991988030218004-13267-043417FM-12+0440SBLP V0209999999999007501CN0200001N9+03201+02241101021ADDAA106000091AG10999GF105991051021008001001001MA1999999095961MD1999999+0291REMSYN011333   58029
0115832880999991988030300004-13267-043417FM-12+0440SBLP V0209999999999220001CN9999999N9+02741+02341101011ADDAA106000091AG10999GF101991001001999999001081KA1240M+03341MA1999999095931MD1999999-0071REMSYN017333   10334 59007
0115832880999991988030312004-13267-043417FM-12+0440SBLP V0209999999999045001CN0200001N9+02701+02551101421ADDAA106000091AG10999GF106991021021008001061001KA1240N+02201MA1999999096331MD1999999-0201REMSYN017333   20220 59020
0096832880999991988030318004-13267-043417FM-12+0440SBLP V0209999999999105001CN0200001N9+03081+02441100881ADDAA106000091AG10999GF107991041021008001001091MA1999999095811MD1999999-0151REMSYN011333   59015
0115832880999991988030400004-13267-043417FM-12+0440SBLP V0209999999999105001CN9999999N9+02561+02271101071ADDAA106000091AG10001GF105991001001999999001051KA1240M+03251MA1999999095991MD1999999+0061REMSYN017333   10325 58006
0143832880999991988030412004-13267-043417FM-12+0440SBLP V0209999999999045001CN0200001N9+02241+02171101511ADDAA124014091AG10999AY191061AY261061GF108991041071008001021999KA1240N+02031MA1999999096381MD1999999+0051MW1621REMSYN023333   20203 58005 60144
0124832880999991988030418004-13267-043417FM-12+0440SBLP V0209999999999045001CN0200001N9+02601+02271101081ADDAA106006091AG10999AY161061AY261061GF107991031011008001071001MA1999999095971MD1999999+0161MW1021REMSYN017333   58016 60061
0115832880999991988030500004-13267-043417FM-12+0440SBLP V0209999999999220001CN9999999N9+02331+02161101261ADDAA106000091AG10999GF101991011001022501021001KA1240M+02621MA1999999096131MD1999999+0141REMSYN017333   10262 58014
0121832880999991988030512004-13267-043417FM-12+0440SBLP V0209999999999004201CN0200001N9+02471+02251101421ADDAA124006091AG10999GF108991061051004501001071KA1240N+02101MA1999999096291MD1999999-0091REMSYN023333   20210 59009 60064
0096832880999991988030518004-13267-043417FM-12+0440SBLP V0209999999999220001CN0200001N9+03021+02341101021ADDAA106000091AG10999GF104991021021008001001091MA1999999095931MD1999999-0041REMSYN011333   59004
0115832880999991988030600004-13267-043417FM-12+0440SBLP V0209999999999220001CN9999999N9+02601+02391101271ADDAA106000091AG10999GF103991011011008001031001KA1240M+03181MA1999999096161MD1999999+0031REMSYN017333   10318 58003
0115832880999991988030612004-13267-043417FM-12+0440SBLP V0209999999999012001CN0200001N9+02441+02251101581ADDAA106000091AG10999GF108991081081008001999999KA1240N+02091MA1999999096461MD1999999+0171REMSYN017333   20209 58017
0096832880999991988030618004-13267-043417FM-12+0440SBLP V0209999999999220001CN0200001N9+03201+02351101051ADDAA106000091AG10999GF104991021011008001001081MA1999999095981MD1999999+0051REMSYN011333   58005
0115832880999991988030700004-13267-043417FM-12+0440SBLP V0209999999999220001CN9999999N9+02651+02371101371ADDAA106000091AG10999GF100991001001999999001001KA1240M+03191MA1999999096161MD1999999+0031REMSYN017333   10319 58003
0115832880999991988030712004-13267-043417FM-12+0440SBLP V0209999999999007501CN0200001N9+02651+02231101441ADDAA106000091AG10999GF107991071051008001021001KA1240N+02221MA1999999096331MD1999999-0131REMSYN017333   20222 59013
0096832880999991988030718004-13267-043417FM-12+0440SBLP V0209999999999007501CN0200001N9+03261+02271101041ADDAA106000091AG10999GF107991071021008001001001MA1999999095961MD1999999-0021REMSYN011333   59002
0115832880999991988030812004-13267-043417FM-12+0440SBLP V0209991C00001220001CN0200001N9+02541+02361101301ADDAA106000091AG10999GF100991001001999999001001KA1240N+02001MA1999999096241MD1999999-0091REMSYN017333   20200 59009
0096832880999991988030818004-13267-043417FM-12+0440SBLP V0209991C00001045001CN0200001N9+03001+02571100931ADDAA106000091AG10999GF107991041021008001061001MA1999999095871MD1999999-0091REMSYN011333   59009
0134832880999991988030900004-13267-043417FM-12+0440SBLP V0209999999999220001CN9999999N9+02561+02381101071ADDAA106000091AG10999GF102991021081999999001001KA1240M+03101MA1999999095981MD1999999+0081REMSYN017333   10310 58008EQDQ01+000992SCOLCB
0143832880999991988030912004-13267-043417FM-12+0440SBLP V0209999999999045001CN0200001N9+02141+02091101341ADDAA124037091AG10999AY161061AY261061GF108991041071008001021999KA1240N+01841MA1999999096211MD1999999-0031MW1621REMSYN023333   20184 59003 60374
0124832880999991988030918004-13267-043417FM-12+0440SBLP V0209999999999045001CN0200001N9+02501+02311100981ADDAA106001091AG10999AY161061AY261061GF108991041061008001021999MA1999999095881MD1999999+0011MW1501REMSYN017333   58001 60011
0115832880999991988031000004-13267-043417FM-12+0440SBLP V0209999999999220001CN9999999N9+02341+02161101161ADDAA106000091AG10999GF104991001001999999001081KA1240M+02541MA1999999096031MD1999999+0051REMSYN017333   10254 58005
0121832880999991988031012004-13267-043417FM-12+0440SBLP V0209999999999105001CN0200001N9+02521+02311101291ADDAA124001091AG10999GF105991021051004501001091KA1240N+02101MA1999999096171MD1999999-0041REMSYN023333   20210 59004 60014
0096832880999991988031018004-13267-043417FM-12+0440SBLP V0209999999999220001CN0200001N9+03051+02231100891ADDAA106000091AG10999GF103991011011008001001051MA1999999095811MD1999999-0071REMSYN011333   59007
0137832880999991988031100004-13267-043417FM-12+0440SBLP V0209999999999007501CN9999999N9+02621+02371101301ADDAA106000091AG10999AY121061AY211061GF108991081061008001999999KA1240M+03101MA1999999096201MD1999999+0171MW1131REMSYN017333   10310 58017
0143832880999991988031112004-13267-043417FM-12+0440SBLP V0209999999999045001CN0100001N9+02201+02171101521ADDAA124008091AG10999AY161061AY261061GF108991031021008001021999KA1240N+02001MA1999999096391MD1999999+0221MW1601REMSYN023333   20200 58022 60084
0124832880999991988031118004-13267-043417FM-12+0440SBLP V0209999999999045001CN0200001N9+02441+02271101441ADDAA106013091AG10999AY161061AY261061GF108991041051008001021999MA1999999096301MD1999999+0491MW1031REMSYN017333   58049 60131
0115832880999991988031200004-13267-043417FM-12+0440SBLP V0209999999999007501CN9999999N9+02141+02141101521ADDAA106000091AG10999GF108991061051008001021999KA1240M+02571MA1999999096361MD1999999+0161REMSYN017333   10257 58016
0143832880999991988031212004-13267-043417FM-12+0440SBLP V0209999999999007501CN0200001N9+02431+02151101601ADDAA124014091AG10999AY101061AY261061GF105991051051008001999999KA1240N+02021MA1999999096451MD1999999+0061MW1151REMSYN023333   20202 58006 60144
0096832880999991988031218004-13267-043417FM-12+0440SBLP V0209999999999220001CN0200001N9+03071+02111101271ADDAA106000091AG10001GF104991041021008001001001MA1999999096161MD1999999-0141REMSYN011333   59014
0134832880999991988031300004-13267-043417FM-12+0440SBLP V0209991C000019999999N9999999N9+02881+02721101311ADDAA106000091AG10999GF108991041031999999021999KA1240M+03161MA1999999096241MD1999999-0111REMSYN017333   10316 59011EQDQ01+000992SCOLCB
0121832880999991988031312004-13267-043417FM-12+0440SBLP V0209991C00001045001CN0200001N9+02401+02261101341ADDAA124044091AG10999GF107991031021008001071001KA1240N+02021MA1999999096281MD1999999+0171REMSYN023333   20202 58017 60444
0143832880999991988031400004-13267-043417FM-12+0440SBLP V0209999999999045001CN9999999N9+02201+01301101121ADDAA106006091AG10999AY161061AY261061GF106991031071008001021001KA1240M+02761MA1999999096001MD1999999-0251MW1201REMSYN023333   10276 59025 60061
0143832880999991988031412004-13267-043417FM-12+0440SBLP V0209999999999045001CN0200001N9+02301+02221101361ADDAA124025091AG10999AY161061AY261061GF108991041071008001021999KA1240N+02001MA1999999096221MD1999999-0061MW1211REMSYN023333   20200 59006 60254
0096832880999991988031418004-13267-043417FM-12+0440SBLP V02099999999999999999N0200001N9+02721+02301100821ADDAA106000091AG10999GF106991031001008001041999MA1999999095721MD1999999-0121REMSYN011333   59012
0115832880999991988031500004-13267-043417FM-12+0440SBLP V0209999999999220001CN9999999N9+02401+02261101041ADDAA106000091AG10999GF101991011041008001999999KA1240M+02921MA1999999095931MD1999999-0071REMSYN017333   10292 59007
0132832880999991988031512004-13267-043417FM-12+0440SBLP V0209999999999105001CN0200001N9+02501+02111999999ADDAA124000691AA299000591AG10999GF105991011051004501001091KA1240N+02201MA1999999096151MD1999999-0061REMSYN023333   20220 59006 69964
0096832880999991988031518004-13267-043417FM-12+0440SBLP V0209999999999007501CN0200001N9+03061+02331100961ADDAA106000091AG10999GF105991051021008001001001MA1999999095881MD1999999+0161REMSYN011333   58016
0115832880999991988031600004-13267-043417FM-12+0440SBLP V0209991C00001007501CN9999999N9+02421+02321101271ADDAA106000091AG10999GF108991081001008001021999KA1240M+03101MA1999999096161MD1999999+0231REMSYN017333   10310 58023
0146832880999991988031612004-13267-043417FM-12+0440SBLP V0209999999999045001CN0200001N9+02421+02371101541ADDAA124000291AA299000391AG10999AY151061GF105991031081008001031001KA1240N+02321MA1999999096411MD1999999+0261MW1021REMSYN023333   20232 58026 69924
0096832880999991988031618004-13267-043417FM-12+0440SBLP V0209999999999045001CN0200001N9+02911+02461101111ADDAA106000091AG10999GF106991021021008001011081MA1999999096021MD1999999+0141REMSYN011333   58014
0129832880999991988031700004-13267-043417FM-12+0440SBLP V0209999999999007501CN9999999N9+02341+02071101421ADDAA106000091AG10999AY131061GF107991071051008001001001KA1240M+03021MA1999999096291MD1999999+0031MW1131REMSYN017333   10302 58003
0115832880999991988031712004-13267-043417FM-12+0440SBLP V0209999999999007501CN0200001N9+02521+02151101571ADDAA106000091AG10999GF107991071051008001001001KA1240N+02121MA1999999096441MD1999999+0031REMSYN017333   20212 58003
0096832880999991988031718004-13267-043417FM-12+0440SBLP V0209999999999220001CN0200001N9+03041+02361101081ADDAA106000091AG10999GF104991041011008001001001MA1999999095991MD1999999-0031REMSYN011333   59003
0115832880999991988031812004-13267-043417FM-12+0440SBLP V0209991C00001045001CN0200001N9+02421+02171101461ADDAA106000091AG10999GF106991031011008001071001KA1240N+02001MA1999999096441MD1999999+0001REMSYN017333   20200 58000
0115832880999991988031818004-13267-043417FM-12+0440SBLP V0209991C00001220001CN0200001N9+03181+02231101181ADDAA106000091AG10999GF104991999021008001001001MA1999999096081MD1999999+0091REMSYN011333   58009EQDQ01+000032SCOTLC
0115832880999991988031900004-13267-043417FM-12+0440SBLP V0209999999999220001CN9999999N9+02581+02271101081ADDAA106000091AG10999GF100991001001999999001001KA1240M+03221MA1999999095981MD1999999-0251REMSYN017333   10322 59025
0115832880999991988031912004-13267-043417FM-12+0440SBLP V0209999999999220001CN0200001N9+02601+02231101571ADDAA106000091AG10001GF102991021011008001001001KA1240N+02241MA1999999096451MD1999999+0011REMSYN017333   20224 58001
0096832880999991988031918004-13267-043417FM-12+0440SBLP V0209999999999220001CN0200001N9+03261+02181101101ADDAA106000091AG10999GF103991021011008001001021MA1999999096041MD1999999-0041REMSYN011333   59004
0115832880999991988032012004-13267-043417FM-12+0440SBLP V0209999999999045001CN0200001N9+02651+02291101521ADDAA106000091AG10999GF105991021021008001071001KA1240N+02201MA1999999096421MD1999999-0031REMSYN017333   20220 59003
0129832880999991988032018004-13267-043417FM-12+0440SBLP V0209999999999045001CN0200001N9+02481+02271101211ADDAA106999999AG10999AY131061GF107991021021008001071081MA1999999096101MD1999999+0061MW1961REMSYN011333   58006EQDQ01  00002PRCP06
0137832880999991988032100004-13267-043417FM-12+0440SBLP V0209999999999045001CN9999999N9+02321+02201101501ADDAA106000091AG10999AY121061AY221061GF107991031081008001021001KA1240M+03121MA1999999096381MD1999999+0181MW1131REMSYN017333   10312 58018
0115832880999991988032112004-13267-043417FM-12+0440SBLP V0209999999999045001CN0200001N9+02311+02151101631ADDAA106000091AG10999GF108991041081008001011999KA1240N+02121MA1999999096481MD1999999+0061REMSYN017333   20212 58006
0115832880999991988032200004-13267-043417FM-12+0440SBLP V0209999999999007501CN9999999N9+02421+02251101381ADDAA106000091AG10999GF107991071051008001001001KA1240M+02621MA1999999096251MD1999999-0131REMSYN017333   10262 59013
0121832880999991988032212004-13267-043417FM-12+0440SBLP V0209999999999007501CN0200001N9+02281+01921101601ADDAA124031091AG10999GF107991071051008001001001KA1240N+02021MA1999999096461MD1999999-0021REMSYN023333   20202 59002 60314
0096832880999991988032218004-13267-043417FM-12+0440SBLP V0209999999999045001CN0200001N9+02831+02051101221ADDAA106000091AG10999GF107991041051008001031001MA1999999096111MD1999999-0031REMSYN011333   59003
0115832880999991988032300004-13267-043417FM-12+0440SBLP V0209999999999220001CN9999999N9+02401+02111101241ADDAA106000091AG10999GF103991031011008001021999KA1240M+02901MA1999999096161MD1999999-0091REMSYN017333   10290 59009
0115832880999991988032312004-13267-043417FM-12+0440SBLP V0209991C00001220001CN0200001N9+02421+02011101391ADDAA106000091AG10999GF100991001001999999001001KA1240N+01981MA1999999096361MD1999999-0101REMSYN017333   20198 59010
0115832880999991988032318004-13267-043417FM-12+0440SBLP V0209991C00001220001CN0200001N9+03001+02341101071ADDAA106000091AG10999GF104991999021008001001001MA1999999095991MD1999999-0121REMSYN011333   59012EQDQ01+000032SCOTLC
0115832880999991988032400004-13267-043417FM-12+0440SBLP V0209999999999220001CN9999999N9+02441+02071101311ADDAA106000091AG10999GF104991011011008001031001KA1240M+03031MA1999999096191MD1999999+0031REMSYN017333   10303 58003
0115832880999991988032412004-13267-043417FM-12+0440SBLP V0209999999999220001CN0200001N9+02601+02211101461ADDAA106000091AG10999GF101991011011008001001001KA1240N+02001MA1999999096341MD1999999-0021REMSYN017333   20200 59002
0096832880999991988032418004-13267-043417FM-12+0440SBLP V0209999999999045001CN0200001N9+02881+02171101101ADDAA106000091AG10999GF105991031021008001061001MA1999999096001MD1999999+0011REMSYN011333   58001
0143832880999991988032500004-13267-043417FM-12+0440SBLP V0209999999999021001CN9999999N9+02291+02181101321ADDAA106003091AG10999AY191061AY261061GF108991081001022501071999KA1240M+03051MA1999999096201MD1999999-0011MW1021REMSYN023333   10305 59001 60031
0121832880999991988032512004-13267-043417FM-12+0440SBLP V0209999999999220001CN0200001N9+02481+02151101521ADDAA136000091AG10999GF100991001001999999001001KA1240N+02001MA1999999096391MD1999999+0051REMSYN023333   20200 58005 60006
0113832880999991988032518004-13267-043417FM-12+0440SBLP V0209999999999012001CN0200001N9+03011+02321101661ADDAA106000291AA299000391AG10999GF105991051081008001001001MA1999999096071MD1999999+0071REMSYN017333   58007 69921
0115832880999991988032600004-13267-043417FM-12+0440SBLP V0209999999999220001CN9999999N9+02461+02091101281ADDAA106000091AG10999GF103991021041008001031001KA1240M+03061MA1999999096171MD1999999-0031REMSYN017333   10306 59003
0151832880999991988032612004-13267-043417FM-12+0440SBLP V0209999999999220001CN0200001N9+02491+02201101491ADDAA124000291AA299000391AG10999GF103991001001999999001011KA1240N+02101MA1999999096371MD1999999-0021REMSYN023333   20210 59002 69924EQDQ01+000952SCOLCB
0096832880999991988032618004-13267-043417FM-12+0440SBLP V0209999999999045001CN0200001N9+02981+02651101211ADDAA106000091AG10999GF106991031021008001031021MA1999999096111MD1999999+0041REMSYN011333   58004
0115832880999991988032700004-13267-043417FM-12+0440SBLP V0209999999999220001CN9999999N9+02341+02001101321ADDAA106000091AG10999GF102991021011008001001001KA1240M+02931MA1999999096231MD1999999+0061REMSYN017333   10293 58006
0115832880999991988032712004-13267-043417FM-12+0440SBLP V0209999999999220001CN0200001N9+02471+01681101491ADDAA106000091AG10999GF102991021011008001001021KA1240N+01821MA1999999096341MD1999999-0011REMSYN017333   20182 59001
0096832880999991988032718004-13267-043417FM-12+0440SBLP V0209999999999007501CN0200001N9+02841+01881101301ADDAA106000091AG10999GF107991071051008001001001MA1999999096201MD1999999+0091REMSYN011333   58009
0150832880999991988032800004-13267-043417FM-12+0440SBLP V0209991C00001220001CN9999999N9+02481+99999101201ADDAA106000091AG10999GF100991001001999999001001KA1240M+03001MA1999999096141MD1999999-0091REMSYN017333   10300 59009EQDQ01+026363ATOD  Q02 -00963ATOD  
0115832880999991988032812004-13267-043417FM-12+0440SBLP V0209991C00001220001CN0200001N9+02501+02071101311ADDAA106000091AG10999GF100991001001999999001001KA1240N+02001MA1999999096251MD1999999-0111REMSYN017333   20200 59011
0096832880999991988032818004-13267-043417FM-12+0440SBLP V0209991C00001045001CN0200001N9+03101+02341101071ADDAA106000091AG10999GF106991041021008001061001MA1999999095991MD1999999-0211REMSYN011333   59021
0134832880999991988032900004-13267-043417FM-12+0440SBLP V0209991C00001220001CN9999999N9+02431+01911100911ADDAA106000091AG10001GF100991001001999999001001KA1240M+03131MA1999999096812MD1999999+0331REMSYN017333   10313 58033EQDQ01+096813APOSP 
0115832880999991988032912004-13267-043417FM-12+0440SBLP V0209999999999220001CN0200001N9+02681+02201101321ADDAA106000091AG10999GF101991011011008001001001KA1240N+02001MA1999999096211MD1999999-0041REMSYN017333   20200 59004
0096832880999991988032918004-13267-043417FM-12+0440SBLP V0209999999999220001CN0200001N9+03181+02101100631ADDAA106000091AG10999GF104991041011008001001001MA1999999095761MD1999999-0231REMSYN011333   59023
0162832880999991988033000004-13267-043417FM-12+0440SBLP V0209999999999220001CN9999999N9+02421+02321101071ADDAA106003091AG10999GF103991031001022501071001KA1240M+03241MA1999999095981MD1999999+0171MW1011REMSYN023333   10324 58017 60031EQDQ01+000072PSTWM1Q02+000072PSTWM2
0104832880999991988033012004-13267-043417FM-12+0440SBLP V0209999999999220001CN0200001N9+02601+02211101291ADDAG10999GF100991001001999999001001KA1240N+02001MA1999999096181MD1999999-0031REMSYN017333   20200 59003
0096832880999991988033018004-13267-043417FM-12+0440SBLP V0209999999999220001CN0200001N9+03101+02361100841ADDAA106000091AG10999GF102991021021008001001001MA1999999095771MD1999999+0011REMSYN011333   58001
0115832880999991988033100004-13267-043417FM-12+0440SBLP V0209999999999220001CN9999999N9+02501+02211101001ADDAA106000091AG10999GF104991041081008001001001KA1240M+03241MA1999999095911MD1999999-0041REMSYN017333   10324 59004
0115832880999991988033112004-13267-043417FM-12+0440SBLP V0209999999999220001CN0200001N9+02621+02251101311ADDAA106000091AG10001GF101991011011008001001001KA1240N+01951MA1999999096201MD1999999+0021REMSYN017333   20195 58002
0096832880999991988033118004-13267-043417FM-12+0440SBLP V0209999999999220001CN0200001N9+03211+02191100911ADDAA106000091AG10999GF104991041081008001001001MA1999999095841MD1999999+0071REMSYN011333   58007
0115832880999991988040100004-13267-043417FM-12+0440SBLP V0209999999999220001CN9999999N9+02421+02351101121ADDAA106000091AG10999GF102991021011008001001041KA1240M+03281MA1999999095931MD1999999-0021REMSYN017333   10328 59002
0121832880999991988040112004-13267-043417FM-12+0440SBLP V0209999999999220001CN0100001N9+02581+01821101301ADDAA124012091AG10999GF102991001001999999001031KA1240N+02011MA1999999096191MD1999999-0011REMSYN023333   20201 59001 60124
0115832880999991988040200004-13267-043417FM-12+0440SBLP V0209991C00001220001CN9999999N9+02401+02261101001ADDAA106000091AG10999GF100991001001999999001001KA1240M+03301MA1999999095921MD1999999-0011REMSYN017333   10330 59001
0115832880999991988040212004-13267-043417FM-12+0440SBLP V0209991C00001220001CN0200001N9+02581+02191101291ADDAA106000091AG10999GF100991001001999999001001KA1240N+01901MA1999999096231MD1999999+0041REMSYN017333   20190 58004
0096832880999991988040218004-13267-043417FM-12+0440SBLP V0209991C00001220001CN0200001N9+03301+01941100981ADDAA106000091AG10999GF100991001001999999001001MA1999999095901MD1999999-0031REMSYN011333   59003
0115832880999991988040300004-13267-043417FM-12+0440SBLP V0209999999999220001CN9999999N9+02581+02361100951ADDAA106000091AG10999GF100991001001999999001001KA1240M+03301MA1999999095871MD1999999-0051REMSYN017333   10330 59005
0115832880999991988040312004-13267-043417FM-12+0440SBLP V0209999999999220001CN0200001N9+02641+02161101231ADDAA106000091AG10999GF100991001001999999001001KA1240N+01801MA1999999096141MD1999999-0091REMSYN017333   20180 59009
0096832880999991988040318004-13267-043417FM-12+0440SBLP V0209999999999220001CN0200001N9+03241+01961100831ADDAA106000091AG10999GF102991021011008001001001MA1999999095751MD1999999-0151REMSYN011333   59015
0115832880999991988040400004-13267-043417FM-12+0440SBLP V0209999999999220001CN9999999N9+02461+02131101001ADDAA106000091AG10999GF100991001001999999001001KA1240M+03321MA1999999095911MD1999999+0041REMSYN017333   10332 58004
0115832880999991988040412004-13267-043417FM-12+0440SBLP V0209999999999220001CN0200001N9+02611+02141101401ADDAA106000091AG10999GF100991001001999999001001KA1240N+01721MA1999999096291MD1999999+0151REMSYN017333   20172 58015
0096832880999991988040418004-13267-043417FM-12+0440SBLP V0209999999999220001CN0200001N9+03101+02291101001ADDAA106000091AG10999GF101991011021008001001001MA1999999095891MD1999999+0141REMSYN011333   58014
0115832880999991988040500004-13267-043417FM-12+0440SBLP V0209999999999220001CN9999999N9+02521+02271101161ADDAA106000091AG10999GF100991001001999999001001KA1240M+03171MA1999999096061MD1999999+0151REMSYN017333   10317 58015
0115832880999991988040512004-13267-043417FM-12+0440SBLP V0209999999999220001CN0200001N9+02641+02121101361ADDAA106000091AG10999GF101991001001999999001011KA1240N+01691MA1999999096261MD1999999-0031REMSYN017333   20169 59003
0096832880999991988040518004-13267-043417FM-12+0440SBLP V0209999999999220001CN0200001N9+03231+02181100961ADDAA106000091AG10999GF103991031021008001001001MA1999999095881MD1999999-0011REMSYN011333   59001
0115832880999991988040600004-13267-043417FM-12+0440SBLP V0209999999999220001CN9999999N9+02531+02091101201ADDAA106000091AG10999GF100991001001999999001001KA1240M+03321MA1999999096101MD1999999+0191REMSYN017333   10332 58019
0115832880999991988040612004-13267-043417FM-12+0440SBLP V0209999999999220001CN0200001N9+02641+01901101431ADDAA106000091AG10999GF102991021001017501041001KA1240N+01761MA1999999096321MD1999999+0061REMSYN017333   20176 58006
0115832880999991988040700004-13267-043417FM-12+0440SBLP V0209991C00001220001CN9999999N9+02601+02061101181ADDAA106000091AG10999GF100991001001999999001001KA1240M+03301MA1999999096101MD1999999+0001REMSYN017333   10330 58000
0115832880999991988040712004-13267-043417FM-12+0440SBLP V0209999999999220001CN0200001N9+02581+02041101461ADDAA106000091AG10999GF100991001001999999001001KA1240N+01841MA1999999096401MD1999999-0091REMSYN017333   20184 59009
0096832880999991988040718004-13267-043417FM-12+0440SBLP V0209999999999220001CN0200001N9+03281+02231101011ADDAA106000091AG10999GF102991021011008001001001MA1999999095931MD1999999-0041REMSYN011333   59004
0150832880999991988040800004-13267-043417FM-12+0440SBLP V0209999999999220001CN9999999N9+02541+02041101021ADDAA106000091AG10999GF100991001001999999001001KA1240M+03261MA1999999999999MD1999999-0161REMSYN017333   10326 59016EQDQ01+100943APOSP Q02 100943APOSP 
0115832880999991988040812004-13267-043417FM-12+0440SBLP V0209999999999220001CN0200001N9+02731+02101101381ADDAA106000091AG10999GF100991001001999999001001KA1240N+01881MA1999999096281MD1999999-0121REMSYN017333   20188 59012
0096832880999991988040818004-13267-043417FM-12+0440SBLP V0209999999999220001CN0200001N9+03261+02021100881ADDAA106000091AG10999GF104991041011008001001001MA1999999095861MD1999999-0071REMSYN011333   59007
0115832880999991988040900004-13267-043417FM-12+0440SBLP V0209999999999220001CN9999999N9+02601+02191101181ADDAA106000091AG10999GF100991001001999999001001KA1240M+03341MA1999999096091MD1999999+0151REMSYN017333   10334 58015
0115832880999991988040912004-13267-043417FM-12+0440SBLP V0209999999999220001CN0200001N9+02641+02071101351ADDAA106000091AG10999GF100991001001999999001001KA1240N+01961MA1999999096251MD1999999-0031REMSYN017333   20196 59003
0096832880999991988040918004-13267-043417FM-12+0440SBLP V0209999999999220001CN0200001N9+03361+01971100911ADDAA106000091AG10999GF102991021021008001001001MA1999999095841MD1999999-0021REMSYN011333   59002
0115832880999991988041000004-13267-043417FM-12+0440SBLP V0209999999999220001CN9999999N9+02541+02041101151ADDAA106000091AG10999GF100991001001999999001001KA1240M+03421MA1999999096061MD1999999-0031REMSYN017333   10342 59003
0115832880999991988041012004-13267-043417FM-12+0440SBLP V0209999999999220001CN0200001N9+02681+02091101411ADDAA106000091AG10999GF103991031011008001001001KA1240N+01921MA1999999096301MD1999999+0051REMSYN017333   20192 58005
0115832880999991988041100004-13267-043417FM-12+0440SBLP V0209999999999220001CN9999999N9+02541+01981101201ADDAA106000091AG10999GF100991001001999999001001KA1240M+03381MA1999999096111MD1999999+0191REMSYN017333   10338 58019
0115832880999991988041112004-13267-043417FM-12+0440SBLP V0209999999999220001CN0200001N9+02531+01911101451ADDAA106000091AG10999GF102991011011008001001021KA1240N+01801MA1999999096341MD1999999+0041REMSYN017333   20180 58004
0115832880999991988041200004-13267-043417FM-12+0440SBLP V0209999999999220001CN9999999N9+99999+99999999999ADDAA106000091AG10999GF100991001001999999001001KA1240M+03001MA1999999096121MD1999999-0221REMSYN017333   10300 59022
0062832880999991988041212004-13267-043417FM-12+0440SBLP V0209999999999220001CN0200001N9+02601+02061101341ADDAA106000091AG10999GF102991999999008001999999MA1999999096261
0096832880999991988041218004-13267-043417FM-12+0440SBLP V0209999999999045001CN0200001N9+02881+02301101051ADDAA106000091AG10999GF106991031021008001061001MA1999999095991MD1999999+0091REMSYN011333   58009
0115832880999991988041300004-13267-043417FM-12+0440SBLP V0209999999999220001CN9999999N9+02421+02191101181ADDAA106000091AG10999GF100991001001999999001001KA1240M+03181MA1999999096071MD1999999-0051REMSYN017333   10318 59005
0115832880999991988041312004-13267-043417FM-12+0440SBLP V0209999999999220001CN0200001N9+02741+02121101351ADDAA106000091AG10999GF101991011011008001001001KA1240N+01901MA1999999096241MD1999999-0021REMSYN017333   20190 59002
0115832880999991988041400004-13267-043417FM-12+0440SBLP V0209999999999220001CN9999999N9+02661+02241101011ADDAA106000091AG10999GF100991001001999999001001KA1240M+03301MA1999999095941MD1999999-0131REMSYN017333   10330 59013
0115832880999991988041412004-13267-043417FM-12+0440SBLP V0209999999999220001CN0200001N9+02811+02291101361ADDAA106000091AG10999GF106991001001999999001081KA1240N+02131MA1999999096271MD1999999+0031REMSYN017333   20213 58003
0096832880999991988041418004-13267-043417FM-12+0440SBLP V0209999999999105001CN0200001N9+03311+02361100811ADDAA106000091AG10999GF106991021011008001001051MA1999999095751MD1999999-0101REMSYN011333   59010
0137832880999991988041500004-13267-043417FM-12+0440SBLP V0209999999999045001CN9999999N9+02581+02251101241ADDAA106000091AG10999AY111061AY221061GF108991021021008001021999KA1240M+03321MA1999999096151MD1999999+0211MW1131REMSYN017333   10332 58021
0085832880999991988041518004-13267-043417FM-12+0440SBLP V0209999999999105001CN0200001N9+03001+02271101061ADDAG10999GF105991031021008001001051MA1999999095971MD1999999+0221REMSYN011333   58022
0115832880999991988041600004-13267-043417FM-12+0440SBLP V0209999999999045001CN9999999N9+02461+02191101321ADDAA106000091AG10999GF106991031041008001021001KA1240M+03061MA1999999096211MD1999999+0601REMSYN017333   10306 58060
0115832880999991988041612004-13267-043417FM-12+0440SBLP V0209999999999045001CN0200001N9+02531+01791101461ADDAA106000091AG10999GF107991041051008001071001KA1240N+02001MA1999999096341MD1999999+0001REMSYN017333   20200 58000
0115832880999991988041700004-13267-043417FM-12+0440SBLP V0209999999999220001CN9999999N9+02541+02171101171ADDAA106000091AG10999GF100991001001999999001001KA1240M+03181MA1999999096111MD1999999-0101REMSYN017333   10318 59010
0115832880999991988041712004-13267-043417FM-12+0440SBLP V0209999999999045001CN0200001N9+02981+02671101461ADDAA106000091AG10999GF108991041041008001021001KA1240N+02201MA1999999096401MD1999999+0061REMSYN017333   20220 58006
0096832880999991988041718004-13267-043417FM-12+0440SBLP V0209999999999045001CN0200001N9+02541+02171101111ADDAA106000091AG10999GF106991031021008001061001MA1999999096051MD1999999-0171REMSYN011333   59017
0115832880999991988041800004-13267-043417FM-12+0440SBLP V0209999999999045001CN9999999N9+02341+02221101371ADDAA106000091AG10999GF107991031051008001011001KA1240M+02961MA1999999096251MD1999999+0141REMSYN017333   10296 58014
0115832880999991988041812004-13267-043417FM-12+0440SBLP V0209999999999045001CN0200001N9+02521+02211101481ADDAA106000091AG10999GF106991031081008001031001KA1240N+02021MA1999999096351MD1999999-0051REMSYN017333   20202 59005
0132832880999991988041900004-13267-043417FM-12+0440SBLP V0209999999999220001CN9999999N9+02421+02331101351ADDAA106000491AA299000591AG10999GF105991001001999999001081KA1240M+03001MA1999999096231MD1999999-0021REMSYN023333   10300 59002 69941
0121832880999991988041912004-13267-043417FM-12+0440SBLP V0209999999999220001CN0200001N9+02671+02201101611ADDAA124009091AG10999GF101991001001999999001081KA1240N+01971MA1999999096491MD1999999+0141REMSYN023333   20197 58014 60094
0115832880999991988042000004-13267-043417FM-12+0440SBLP V0209999999999220001CN9999999N9+02441+02271101301ADDAA106000091AG10999GF100991001001999999001001KA1240M+03161MA1999999096191MD1999999+0041REMSYN017333   10316 58004
0121832880999991988042012004-13267-043417FM-12+0440SBLP V0209999999999220001CN0200001N9+02581+02101101461ADDAA124003091AG10999GF102991001001999999001021KA1240N+01951MA1999999096341MD1999999-0151REMSYN023333   20195 59015 60034
0096832880999991988042018004-13267-043417FM-12+0440SBLP V0209999999999220001CN0200001N9+03141+02301101011ADDAA106000091AG10999GF103991031021008001001001MA1999999095931MD1999999-0071REMSYN011333   59007
0115832880999991988042100004-13267-043417FM-12+0440SBLP V0209999999999220001CN9999999N9+02551+02061101081ADDAA106000091AG10999GF100991001001999999001001KA1240M+03201MA1999999095991MD1999999-0201REMSYN017333   10320 59020
0115832880999991988042112004-13267-043417FM-12+0440SBLP V0209999999999220001CN0200001N9+02701+02011101321ADDAA106000091AG10999GF100991001001999999001001KA1240N+01701MA1999999096221MD1999999-0121REMSYN017333   20170 59012
0096832880999991988042118004-13267-043417FM-12+0440SBLP V0209999999999220001CN0200001N9+03301+02051100871ADDAA106000091AG10999GF101991011011008001001001MA1999999095801MD1999999-0131REMSYN011333   59013
0115832880999991988042200004-13267-043417FM-12+0440SBLP V0209999999999220001CN9999999N9+02621+02251101051ADDAA106000091AG10999GF100991001001999999001001KA1240M+03301MA1999999095991MD1999999+0001REMSYN017333   10330 58000
0115832880999991988042212004-13267-043417FM-12+0440SBLP V0209999999999220001CN0200001N9+02581+02191101411ADDAA106000091AG10999GF100991001001999999001001KA1240N+01881MA1999999096351MD1999999+0131REMSYN017333   20188 58013
0115832880999991988042300004-13267-043417FM-12+0440SBLP V0209999999999220001CN9999999N9+02521+02151101271ADDAA106000091AG10999GF102991021011008001001001KA1240M+03321MA1999999096161MD1999999+0171REMSYN017333   10332 58017
0115832880999991988042312004-13267-043417FM-12+0440SBLP V0209999999999220001CN0200001N9+02401+02231101511ADDAA106000091AG10999GF104991041011022501001001KA1240N+02041MA1999999096381MD1999999+0031REMSYN017333   20204 58003
0096832880999991988042318004-13267-043417FM-12+0440SBLP V0209999999999045001CN0200001N9+02981+02261101061ADDAA106000091AG10999GF106991031021008001061001MA1999999095971MD1999999+0011REMSYN011333   58001
0115832880999991988042400004-13267-043417FM-12+0440SBLP V0209999999999220001CN9999999N9+02401+02111101331ADDAA106000091AG10999GF102991021011008001001001KA1240M+03281MA1999999096201MD1999999+0041REMSYN017333   10328 58004
0115832880999991988042412004-13267-043417FM-12+0440SBLP V0209999999999220001CN0200001N9+02741+02121101541ADDAA106000091AG10999GF100991001001999999001001KA1240N+02071MA1999999096421MD1999999+0041REMSYN017333   20207 58004
0096832880999991988042418004-13267-043417FM-12+0440SBLP V0209999999999220001CN0200001N9+02221+02081101011ADDAA106000091AG10999GF103991031021008001001001MA1999999095941MD1999999-0031REMSYN011333   59003
0115832880999991988042500004-13267-043417FM-12+0440SBLP V0209999999999220001CN9999999N9+02501+02001101291ADDAA106000091AG10999GF104991021081008001051001KA1240M+03281MA1999999096191MD1999999-0011REMSYN017333   10328 59001
0115832880999991988042512004-13267-043417FM-12+0440SBLP V0209999999999220001CN0200001N9+02601+02101101461ADDAA106000091AG10999GF100991001001999999001001KA1240N+01981MA1999999096351MD1999999-0071REMSYN017333   20198 59007
0096832880999991988042518004-13267-043417FM-12+0440SBLP V0209999999999220001CN0200001N9+03281+02261100911ADDAA106000091AG10999GF104991041021008001001001MA1999999095841MD1999999-0101REMSYN011333   59010
0115832880999991988042600004-13267-043417FM-12+0440SBLP V0209999999999220001CN9999999N9+02481+02271101121ADDAA106000091AG10999GF100991001001999999001001KA1240M+03321MA1999999096011MD1999999-0181REMSYN017333   10332 59018
0115832880999991988042612004-13267-043417FM-12+0440SBLP V0209999999999220001CN0200001N9+02711+01881101331ADDAA106000091AG10999GF100991001001999999001001KA1240N+01781MA1999999096231MD1999999-0121REMSYN017333   20178 59012
0096832880999991988042618004-13267-043417FM-12+0440SBLP V0209999999999220001CN0200001N9+03341+01881101011ADDAA106000091AG10999GF103991031011008001001001MA1999999095951MD1999999+0101REMSYN011333   58010
0115832880999991988042712004-13267-043417FM-12+0440SBLP V0209999999999220001CN0200001N9+02641+02161101421ADDAA106000091AG10999GF100991001001999999001001KA1240N+02001MA1999999096341MD1999999+0111REMSYN017333   20200 58011
0096832880999991988042718004-13267-043417FM-12+0440SBLP V0209999999999045001CN0200001N9+03661+02381101021ADDAA106000091AG10999GF106991031021008001011001MA1999999095861MD1999999+0021REMSYN011333   58002
0115832880999991988042800004-13267-043417FM-12+0440SBLP V0209999999999220001CN9999999N9+02561+01931101301ADDAA106000091AG10999GF102991021011008001001001KA1240M+03421MA1999999096201MD1999999+0081REMSYN017333   10342 58008
0115832880999991988042812004-13267-043417FM-12+0440SBLP V0209999999999220001CN0200001N9+02621+02011101641ADDAA106000091AG10999GF100991001001999999001001KA1240N+01801MA1999999096521MD1999999+0181REMSYN017333   20180 58018
0096832880999991988042818004-13267-043417FM-12+0440SBLP V0209999999999220001CN0200001N9+03381+01751101181ADDAA106000091AG10999GF101991011011008001001001MA1999999096101MD1999999+0141REMSYN011333   58014
0150832880999991988042900004-13267-043417FM-12+0440SBLP V0209999999999220001CN9999999N9+02621+01611101421ADDAA106000091AG10999GF100991001001999999001001KA1240M+03301MA1999999999999MD1999999+0101REMSYN017333   10330 58010EQDQ01+086303APOSP Q02 086303APOSP 
0102832880999991988042912004-13267-043417FM-12+0440SBLP V0209999999999220001CN0200001N9+02621+01881101731ADDAA106000091AG10999GF100991001001999999001001MA1999999096611MD1999999+0091REMSYN017333   0177/ 58009
0096832880999991988042918004-13267-043417FM-12+0440SBLP V0209999999999220001CN0200001N9+03201+01931101291ADDAA106000091AG10999GF103991031021008001001001MA1999999096181MD1999999+0081REMSYN011333   58008
0096832880999991988042919004-13267-043417FM-12+0440SBLP V0209999999999220001CN0200001N9+03201+01931101291ADDAA106000091AG10999GF103991031021008001001001MA1999999096181MD1999999+0081REMSYN011333   58008
0115832880999991988043000004-13267-043417FM-12+0440SBLP V0209999999999220001CN9999999N9+02441+01951101611ADDAA106000091AG10999GF101991011011008001001001KA1240M+03261MA1999999096481MD1999999+0181REMSYN017333   10326 58018
0134832880999991988043012004-13267-043417FM-12+0440SBLP V02099999999999999999N0200001N9+02501+02071101781ADDAA106000091AG10999GF108991999011008001001001KA1240N+01831MA1999999096681MD1999999+0071REMSYN017333   20183 58007EQDQ01+000022SCOTLC
0115832880999991988050100004-13267-043417FM-12+0440SBLP V0209999999999220001CN9999999N9+02521+02351101771ADDAA106000091AG10999GF100991001001999999001001KA1240M+03241MA1999999096641MD1999999+0041REMSYN017333   10324 58004
0115832880999991988050112004-13267-043417FM-12+0440SBLP V0209999999999220001CN0200001N9+02651+01821101891ADDAA106000091AG10999GF100991001001999999001001KA1240N+01851MA1999999096761MD1999999+0061REMSYN017333   20185 58006
0115832880999991988050212004-13267-043417FM-12+0440SBLP V0209999999999220001CN0200001N9+02381+01841101781ADDAA106000091AG10999GF100991001001999999001001KA1240N+01801MA1999999096701MD1999999-0061REMSYN017333   20180 59006
0115832880999991988050218004-13267-043417FM-12+0440SBLP V0209999999999220001CN0200001N9+03241+02251101151ADDAA106000091AG10999GF104991999021008001001001MA1999999096091MD1999999+0011REMSYN011333   58001EQDQ01+000032SCOTLC
0115832880999991988050300004-13267-043417FM-12+0458SBLP V0209999999999220001CN9999999N9+02441+01831101321ADDAA106000091AG10999GF100991001001999999001001KA1240M+03241MA1999999096261MD1999999-0171REMSYN017333   10324 59017
0115832880999991988050312004-13267-043417FM-12+0458SBLP V0209999999999220001CN0200001N9+02461+01971101751ADDAA106000091AG10999GF100991001001999999001001KA1240N+01501MA1999999096611MD1999999-0091REMSYN017333   20150 59009
0096832880999991988050318004-13267-043417FM-12+0458SBLP V0209999999999220001CN0200001N9+03361+02211101241ADDAA106000091AG10999GF102991021011008001001001MA1999999096141MD1999999+0051REMSYN011333   58005
0115832880999991988050400004-13267-043417FM-12+0458SBLP V0209999999999220001CN9999999N9+02661+02041101401ADDAA106000091AG10999GF100991001001999999001001KA1240M+03441MA1999999096291MD1999999+0031REMSYN017333   10344 58003
0115832880999991988050412004-13267-043417FM-12+0458SBLP V0209999999999220001CN0200001N9+02801+02061101731ADDAA106000091AG10999GF100991001001999999001001KA1240N+01771MA1999999096631MD1999999+0021REMSYN017333   20177 58002
0096832880999991988050418004-13267-043417FM-12+0458SBLP V0209999999999220001CN0200001N9+03341+01981101251ADDAA106000091AG10999GF103991031021008001001001MA1999999096161MD1999999+0021REMSYN011333   58002
0115832880999991988050500004-13267-043417FM-12+0458SBLP V0209999999999220001CN9999999N9+02741+02141101431ADDAA106000091AG10999GF102991021041008001001001KA1240M+03361MA1999999096351MD1999999+0061REMSYN017333   10336 58006
0115832880999991988050512004-13267-043417FM-12+0458SBLP V0209999999999220001CN0200001N9+02701+02131101751ADDAA106000091AG10999GF100991001001999999001001KA1240N+01601MA1999999096641MD1999999+0011REMSYN017333   20160 58001
0096832880999991988050518004-13267-043417FM-12+0458SBLP V0209999999999007501CN0200001N9+03341+01911101291ADDAA106000091AG10999GF105991051021008001001001MA1999999096201MD1999999+0041REMSYN011333   58004
0115832880999991988050600004-13267-043417FM-12+0458SBLP V0209999999999220001CN9999999N9+02471+01671101411ADDAA106000091AG10999GF100991001001999999001001KA1240M+03421MA1999999096301MD1999999-0051REMSYN017333   10342 59005
0134832880999991988050612004-13267-043417FM-12+0458SBLP V0201401N00511004201CN0200001N9+02141+01821101641ADDAA106000091AG10999GF106991061021004501001001KA1240N+01781MA1999999999999MD1999999-0071REMSYN017333   20178 59007EQDQ01 091883APOSP 
0115832880999991988050618004-13267-043417FM-12+0458SBLP V0209999999999007501CN0200001N9+03291+02071101251ADDAA106000091AG10999GF107991061011008001001021MA1999999096162MD1999999-0041REMSYN011333   59004EQDQ01+096163APOSP 
0115832880999991988050712004-13267-043417FM-12+0458SBLP V0209999999999220001CN0200001N9+02461+02211101611ADDAA106000091AG10999GF100991001001999999001001KA1240N+01701MA1999999096551MD1999999+0121REMSYN017333   20170 58012
0115832880999991988050718004-13267-043417FM-12+0458SBLP V0209999999999220001CN0200001N9+03341+02361101121ADDAA106000091AG10999GF104991999021008001001001MA1999999096061MD1999999-0101REMSYN011333   59010EQDQ01+000032SCOTLC
0115832880999991988050800004-13267-043417FM-12+0458SBLP V0209999999999220001CN9999999N9+02501+01821101301ADDAA106000091AG10999GF100991001001999999001001KA1240M+03351MA1999999096191MD1999999-0041REMSYN017333   10335 59004
0115832880999991988050812004-13267-043417FM-12+0458SBLP V0209999999999220001CN0200001N9+02501+01941101481ADDAA106000091AG10999GF100991001001999999001001KA1240N+01721MA1999999096361MD1999999-0191REMSYN017333   20172 59019
0115832880999991988050818004-13267-043417FM-12+0458SBLP V0209999999999220001CN0200001N9+03261+01881101011ADDAA106000091AG10999GF103991001001999999001061MA1999999095921MD1999999-0141REMSYN011333   59014EQDQ01+000952SCOLCB
0115832880999991988050900004-13267-043417FM-12+0458SBLP V0209999999999220001CN9999999N9+02521+01961101211ADDAA106000091AG10999GF100991001001999999001001KA1240M+03341MA1999999096101MD1999999-0091REMSYN017333   10334 59009
0115832880999991988050912004-13267-043417FM-12+0458SBLP V0209999999999220001CN0200001N9+02391+01951101371ADDAA106000091AG10999GF103991001001999999001011KA1240N+01361MA1999999096251MD1999999-0111REMSYN017333   20136 59011
0096832880999991988050918004-13267-043417FM-12+0458SBLP V0209999999999220001CN0200001N9+03401+02001100881ADDAA106000091AG10999GF103991011011008001001011MA1999999095781MD1999999-0141REMSYN011333   59014
0115832880999991988051000004-13267-043417FM-12+0458SBLP V0209999999999220001CN9999999N9+02691+02041101101ADDAA106000091AG10999GF100991001001999999001001KA1240M+03451MA1999999096011MD1999999-0091REMSYN017333   10345 59009
0115832880999991988051012004-13267-043417FM-12+0458SBLP V0209999999999105001CN0200001N9+02521+02091101301ADDAA106000091AG10999GF108991001001999999001021KA1240N+01871MA1999999096201MD1999999-0051REMSYN017333   20187 59005
0115832880999991988051018004-13267-043417FM-12+0458SBLP V02099999999999999999N0200001N9+03231+02061100941ADDAA106000091AG10999GF107991021011999999001011MA1999999095861MD1999999+0081REMSYN011333   58008EQDQ01+000992SCOLCB
0115832880999991988051112004-13267-043417FM-12+0458SBLP V0209999999999007501CN0200001N9+02621+01981101431ADDAA106000091AG10999GF107991071051008001001001KA1240N+02091MA1999999096331MD1999999+0131REMSYN017333   20209 58013
0096832880999991988051118004-13267-043417FM-12+0458SBLP V0209999999999007501CN0200001N9+03261+01981101021ADDAA106000091AG10999GF105991051021008001001001MA1999999095961MD1999999+0101REMSYN011333   58010
0115832880999991988051200004-13267-043417FM-12+0458SBLP V0209999999999220001CN9999999N9+02721+02371101181ADDAA106000091AG10999GF100991001001999999001001KA1240M+02901MA1999999096101MD1999999+0111REMSYN017333   10290 58011
0115832880999991988051212004-13267-043417FM-12+0458SBLP V0209999999999045001CN0200001N9+02601+02271101611ADDAA106000091AG10999GF106991031011008001071001KA1240N+02201MA1999999096531MD1999999+0301REMSYN017333   20220 58030
0096832880999991988051218004-13267-043417FM-12+0458SBLP V0209999999999220001CN0200001N9+03101+02511101361ADDAA106000091AG10999GF104991021021008001061001MA1999999096301MD1999999+0341REMSYN011333   58034
0115832880999991988051300004-13267-043417FM-12+0458SBLP V0209999999999220001CN9999999N9+02601+02061101491ADDAA106000091AG10999GF100991001001999999001001KA1240M+03161MA1999999096381MD1999999+0281REMSYN017333   10316 58028
0115832880999991988051312004-13267-043417FM-12+0458SBLP V0209999999999220001CN0200001N9+02661+02071101711ADDAA106000091AG10999GF101991001001999999001021KA1240N+01801MA1999999096601MD1999999+0071REMSYN017333   20180 58007
0096832880999991988051318004-13267-043417FM-12+0458SBLP V0209999999999045001CN0200001N9+03301+01911101191ADDAA106000091AG10999GF105991031011008001031001MA1999999096101MD1999999-0201REMSYN011333   59020
0115832880999991988051400004-13267-043417FM-12+0458SBLP V0209999999999220001CN9999999N9+02761+02281101361ADDAA106000091AG10999GF102991021001022501071001KA1240M+03391MA1999999096721MD1999999-0111REMSYN017333   10339 59011
0115832880999991988051412004-13267-043417FM-12+0458SBLP V0209999999999220001CN0200001N9+02761+02141101631ADDAA106000091AG10999GF101991011001022501031001KA1240N+02091MA1999999096531MD1999999-0071REMSYN017333   20209 59007
0096832880999991988051418004-13267-043417FM-12+0458SBLP V0209999999999220001CN0200001N9+03261+02081101111ADDAA106000091AG10999GF104991041001022501061001MA1999999096041MD1999999-0561REMSYN011333   59056
0115832880999991988051500004-13267-043417FM-12+0458SBLP V0209999999999220001CN9999999N9+02641+02181101381ADDAA106000091AG10999GF103991031011008001001001KA1240M+02831MA1999999096291MD1999999-0051REMSYN017333   10283 59005
0115832880999991988051512004-13267-043417FM-12+0458SBLP V0209999999999220001CN0200001N9+02821+02241101711ADDAA106000091AG10999GF104991011001012501031051KA1240N+01811MA1999999096601MD1999999+0071REMSYN017333   20181 58007
0096832880999991988051518004-13267-043417FM-12+0458SBLP V0209999999999007501CN0200001N9+03401+02001101221ADDAA106000091AG10999GF105991051021008001001001MA1999999096121MD1999999-0081REMSYN011333   59008
0115832880999991988051612004-13267-043417FM-12+0458SBLP V0209999999999105001CN0200001N9+02721+01721101731ADDAA106000091AG10999GF107991041001017501031021KA1240N+01851MA1999999096611MD1999999+0011REMSYN017333   20185 58001
0115832880999991988051618004-13267-043417FM-12+0458SBLP V02099999999999999999N0200001N9+03341+01911101221ADDAA106000091AG10999GF105991999011008001001001MA1999999096131MD1999999+0011REMSYN011333   58001EQDQ01+000042SCOTLC
0115832880999991988051712004-13267-043417FM-12+0458SBLP V0209999999999220001CN0200001N9+99999+99999101701ADDAA106000091AG10999GF100991001001999999001001KA1240N+01601MA1999999096641MD1999999+0031REMSYN017333   20160 58003
0115832880999991988051718004-13267-043417FM-12+0458SBLP V02099999999999999999N0200001N9+03241+02061101271ADDAA106000091AG10999GF105991999021008001001001MA1999999096191MD1999999+0061REMSYN011333   58006EQDQ01+000032SCOTLC
0115832880999991988051800004-13267-043417FM-12+0458SBLP V0209999999999220001CN9999999N9+02541+01981101361ADDAA106000091AG10999GF100991001001999999001001KA1240M+03361MA1999999096241MD1999999-0261REMSYN017333   10336 59026
0115832880999991988051812004-13267-043417FM-12+0458SBLP V0209991C00001220001CN0200001N9+02641+01931101601ADDAA106000091AG10999GF102991001001999999001021KA1240N+01501MA1999999096481MD1999999-0161REMSYN017333   20150 59016
0096832880999991988051818004-13267-043417FM-12+0458SBLP V0202701N00261220001CN0200001N9+03321+01971101011ADDAA106000091AG10999GF105991001001999999001081MA1999999095921MD1999999-0271REMSYN011333   59027
0115832880999991988051900004-13267-043417FM-12+0458SBLP V0200901N00211220001CN9999999N9+02611+01631101171ADDAA106000091AG10999GF100991001001999999001001KA1240M+03401MA1999999096081MD1999999-0161REMSYN017333   10340 59016
0115832880999991988051912004-13267-043417FM-12+0458SBLP V0201401N00211220001CN0200001N9+02721+01821101521ADDAA106000091AG10999GF102991001001999999001041KA1240N+01521MA1999999096421MD1999999-0061REMSYN017333   20152 59006
0096832880999991988051918004-13267-043417FM-12+0458SBLP V0200501N00211220001CN0200001N9+03491+01611100991ADDAA106000091AG10999GF101991011011008001001001MA1999999095921MD1999999+0001REMSYN011333   58000
0115832880999991988052000004-13267-043417FM-12+0458SBLP V0201801N00151220001CN9999999N9+02581+01941101331ADDAA106000091AG10999GF100991001001999999001001KA1240M+03521MA1999999096241MD1999999+0161REMSYN017333   10352 58016
0115832880999991988052012004-13267-043417FM-12+0458SBLP V0201801N00151220001CN0200001N9+02531+01971101581ADDAA106000091AG10999GF102991001001999999001051KA1240N+01501MA1999999096461MD1999999+0041REMSYN017333   20150 58004
0096832880999991988052018004-13267-043417FM-12+0458SBLP V0200901N00211220001CN0200001N9+03381+02021101051ADDAA106000091AG10999GF104991041021008001001001MA1999999095971MD1999999+0051REMSYN011333   58005
0143832880999991988052100004-13267-043417FM-12+0458SBLP V0201801N00051220001CN9999999N9+02541+01811101311ADDAA106000391AG10999AY101061AY261061GF103991031051008001001001KA1240M+03431MA1999999096201MD1999999-0041MW1031REMSYN023333   10343 59004 69931
0121832880999991988052112004-13267-043417FM-12+0458SBLP V0200901N00101220001CN0200001N9+02681+01811101541ADDAA124000391AG10999GF100991001001999999001001KA1240N+01511MA1999999096431MD1999999-0031REMSYN023333   20151 59003 69934
0096832880999991988052118004-13267-043417FM-12+0458SBLP V0200901N00261220001CN0200001N9+03441+01091100991ADDAA106000091AG10999GF102991021011008001001001MA1999999095921MD1999999-0051REMSYN011333   59005
0096832880999991988052218004-13267-043417FM-12+0458SBLP V0201801N00101220001CN0200001N9+03361+02071101091ADDAA106000091AG10999GF100991001001999999001001MA1999999096051MD1999999+0131REMSYN011333   58013
0115832880999991988052300004-13267-043417FM-12+0458SBLP V0201801N00101220001CN9999999N9+02541+01601101241ADDAA106000091AG10999GF100991001001999999001001KA1240M+03461MA1999999096141MD1999999-0071REMSYN017333   10346 59007
0115832880999991988052312004-13267-043417FM-12+0458SBLP V0201401N00151220001CN0200001N9+02641+01771101521ADDAA106000091AG10999GF102991001001999999001011KA1240N+01501MA1999999096411MD1999999-0191REMSYN017333   20150 59019
0096832880999991988052318004-13267-043417FM-12+0458SBLP V0202301N00101220001CN0200001N9+03421+01611101011ADDAA106000091AG10999GF102991001001999999001021MA1999999095931MD1999999-0121REMSYN011333   59012
0115832880999991988052400004-13267-043417FM-12+0458SBLP V0201801N00261220001CN9999999N9+02481+01801101221ADDAA106000091AG10999GF100991001001999999001001KA1240M+03481MA1999999096121MD1999999-0021REMSYN017333   10348 59002
0115832880999991988052412004-13267-043417FM-12+0458SBLP V0203201N00261220001CN0200001N9+02461+01901101391ADDAA106000091AG10999GF106991001001999999001041KA1240N+01531MA1999999096271MD1999999-0141REMSYN017333   20153 59014
0096832880999991988052418004-13267-043417FM-12+0458SBLP V0202701N00101220001CN0200001N9+03341+01671100831ADDAA106000091AG10999GF106991001001999999001041MA1999999095751MD1999999-0181REMSYN011333   59018
0115832880999991988052500004-13267-043417FM-12+0458SBLP V0202701N00151220001CN9999999N9+02681+01811101081ADDAA106000091AG10999GF104991001001999999001051KA1240M+03401MA1999999095991MD1999999-0131REMSYN017333   10340 59013
0115832880999991988052512004-13267-043417FM-12+0458SBLP V0202701N00151220001CN0200001N9+02421+02031101421ADDAA106000091AG10999GF105991001001999999001041KA1240N+01651MA1999999096311MD1999999+0041REMSYN017333   20165 58004
0096832880999991988052518004-13267-043417FM-12+0458SBLP V0201801N00151105001CN0200001N9+03341+01911100921ADDAA106000091AG10001GF108991021011008001001051MA1999999095841MD1999999+0091REMSYN011333   58009
0115832880999991988052600004-13267-043417FM-12+0458SBLP V0201801N00051105001CN9999999N9+02631+01851101101ADDAA106000091AG10999GF107991001001999999001021KA1240M+03381MA1999999096001MD1999999-0121REMSYN017333   10338 59012
0115832880999991988052612004-13267-043417FM-12+0458SBLP V0201801N00151105001CN0200001N9+02661+01561101441ADDAA106000091AG10999GF105991001001999999001021KA1240N+01861MA1999999096331MD1999999-0021REMSYN017333   20186 59002
0096832880999991988052618004-13267-043417FM-12+0458SBLP V0201801N00151105001CN0200001N9+03431+01611101011ADDAA106000091AG10999GF107991041011008001001021MA1999999095941MD1999999+0151REMSYN011333   58015
0115832880999991988052712004-13267-043417FM-12+0458SBLP V0201801N00101220001CN0200001N9+02601+02031101621ADDAA106000091AG10999GF100991001001999999001001KA1240N+02001MA1999999096561MD1999999+0231REMSYN017333   20200 58023
0115832880999991988052718004-13267-043417FM-12+0458SBLP V0201801N001519999999N0200001N9+02361+02111101151ADDAA106000091AG10999GF106991999021008001001001MA1999999096041MD1999999+0141REMSYN011333   58014EQDQ01+000042SCOTLC
0115832880999991988052800004-13267-043417FM-12+0458SBLP V0201401N00151220001CN9999999N9+02541+01731101201ADDAA106000091AG10999GF100991001001999999001001KA1240M+03301MA1999999096101MD1999999-0011REMSYN017333   10330 59001
0115832880999991988052812004-13267-043417FM-12+0458SBLP V0201801N00261220001CN0200001N9+02601+01891101521ADDAA106000091AG10999GF100991001001999999001001KA1240N+01781MA1999999096401MD1999999-0161REMSYN017333   20178 59016
0096832880999991988052818004-13267-043417FM-12+0458SBLP V0201401N00311220001CN0200001N9+03311+01741101001ADDAA106000091AG10999GF102991021011008001001001MA1999999095921MD1999999-0171REMSYN011333   59017
0115832880999991988052900004-13267-043417FM-12+0458SBLP V0201401N00211220001CN9999999N9+02461+01881101241ADDAA106000091AG10999GF100991001001999999001001KA1240M+03301MA1999999096141MD1999999+0041REMSYN017333   10330 58004
0115832880999991988052912004-13267-043417FM-12+0458SBLP V0202701N00211220001CN0200001N9+02501+01941101451ADDAA106000091AG10999GF100991001001999999001001KA1240N+01731MA1999999096331MD1999999-0071REMSYN017333   20173 59007
0096832880999991988052918004-13267-043417FM-12+0458SBLP V0202301N00261220001CN0200001N9+03321+01971100911ADDAA106000091AG10999GF100991001001999999001001MA1999999095831MD1999999-0091REMSYN011333   59009
0115832880999991988053000004-13267-043417FM-12+0458SBLP V0201801N00151220001CN9999999N9+02641+01871101111ADDAA106000091AG10999GF100991001001999999001001KA1240M+03401MA1999999096021MD1999999-0121REMSYN017333   10340 59012
0115832880999991988053012004-13267-043417FM-12+0458SBLP V0202701N00151105001CN0200001N9+02501+01941101541ADDAA106000091AG10999GF105991001001999999001051KA1240N+01401MA1999999096431MD1999999+0101REMSYN017333   20140 58010
0096832880999991988053018004-13267-043417FM-12+0458SBLP V0203601N00151105001CN0200001N9+03281+02101101141ADDAA106000091AG10999GF108991031011008001001071MA1999999096051MD1999999+0221REMSYN011333   58022
0115832880999991988053100004-13267-043417FM-12+0458SBLP V0201801N00051015001CN9999999N9+02471+01661101221ADDAA106000091AG10999GF107991071001017501021001KA1240M+03281MA1999999096111MD1999999+0091REMSYN017333   10328 58009
0115832880999991988053112004-13267-043417FM-12+0458SBLP V0209991C00001220001CN0200001N9+02601+01961101651ADDAA106000091AG10999GF100991001001999999001001KA1240N+01851MA1999999096531MD1999999+0101REMSYN017333   20185 58010
0115832880999991988060100004-13267-043417FM-12+0458SBLP V0201801N00101220001CN9999999N9+02701+02011101431ADDAA106000091AG10999GF100991001001999999001001KA1240M+03401MA1999999096371MD1999999+0261REMSYN017333   10340 58026
0115832880999991988060112004-13267-043417FM-12+0458SBLP V0201801N00151220001CN0200001N9+02481+02091101781ADDAA106000091AG10999GF100991001001999999001001KA1240N+02101MA1999999096721MD1999999+0191REMSYN017333   20210 58019
0115832880999991988060212004-13267-043417FM-12+0458SBLP V0201401N00101220001CN0200001N9+02621+01911101821ADDAA106000091AG10999GF101991011001022501031001KA1240N+02101MA1999999096691MD1999999-0031REMSYN017333   20210 59003
0096832880999991988060218004-13267-043417FM-12+0458SBLP V0201401N00211220001CN0200001N9+03241+01931101381ADDAA106000091AG10999GF104991041011008001001001MA1999999096301MD1999999+0121REMSYN011333   58012
0115832880999991988060300004-13267-043417FM-12+0458SBLP V0201401N00151220001CN9999999N9+02501+01911101721ADDAA106000091AG10999GF100991001001999999001001KA1240M+03301MA1999999096591MD1999999+0251REMSYN017333   10330 58025
0115832880999991988060312004-13267-043417FM-12+0458SBLP V0202301N00151220001CN0200001N9+02501+01771101911ADDAA106000091AG10999GF100991001001999999001001KA1240N+01691MA1999999096771MD1999999+0081REMSYN017333   20169 58008
0096832880999991988060318004-13267-043417FM-12+0458SBLP V0201401N00211045001CN0200001N9+03041+02031101551ADDAA106000091AG10999GF107991031021008001071001MA1999999096421MD1999999+0121REMSYN011333   58012
0115832880999991988060400004-13267-043417FM-12+0458SBLP V0201801N00151220001CN9999999N9+02321+01701101911ADDAA106000091AG10999GF100991001001999999001001KA1240M+03221MA1999999096761MD1999999+0171REMSYN017333   10322 58017
0096832880999991988060418004-13267-043417FM-12+0458SBLP V0202701N00151220001CN0200001N9+03291+01711101411ADDAA106000091AG10999GF102991021011008001001001MA1999999096301MD1999999-0121REMSYN011333   59012
0115832880999991988060512004-13267-043417FM-12+0458SBLP V0201401N00211220001CN0200001N9+02441+01531101961ADDAA106000091AG10999GF100991001001999999001001KA1240N+01881MA1999999096821MD1999999-0011REMSYN017333   20188 59001
0115832880999991988060518004-13267-043417FM-12+0458SBLP V0201401N00151220001CN0200001N9+03231+01691101351ADDAA106000091AG10999GF104991999011008001001001MA1999999096241MD1999999-0061REMSYN011333   59006EQDQ01+000032SCOTLC
0121832880999991988060612004-13267-043417FM-12+0458SBLP V0201801N00311220001CN0200001N9+02401+01911101911ADDAA124001091AG10999GF100991001001999999001001KA1240N+01901MA1999999096851MD1999999+0031REMSYN023333   20190 58003 60014
0096832880999991988060618004-13267-043417FM-12+0458SBLP V0201401N00151220001CN0200001N9+03301+02051101601ADDAA106000091AG10999GF104991031011008001071001MA1999999096521MD1999999+0251REMSYN011333   58025
0115832880999991988060700004-13267-043417FM-12+0458SBLP V0201401N00211220001CN9999999N9+02441+01741101851ADDAA106000091AG10999GF100991001001999999001001KA1240M+03361MA1999999096701MD1999999+0271REMSYN017333   10336 58027
0102832880999991988060712004-13267-043417FM-12+0458SBLP V0201401N00261220001CN0200001N9+02501+01841101931ADDAA106000091AG10999GF102991021001022501031001MA1999999096781MD1999999-0071REMSYN017333   201// 59007
0096832880999991988060718004-13267-043417FM-12+0458SBLP V0201401N00261007501CN0200001N9+03001+01811101551ADDAA106000091AG10999GF106991061011008001001001MA1999999096401MD1999999-0121REMSYN011333   59012
0115832880999991988060800004-13267-043417FM-12+0458SBLP V0201401N00211220001CN9999999N9+02501+01821101761ADDAA106000091AG10999GF100991001001999999001001KA1240M+03101MA1999999096631MD1999999-0071REMSYN017333   10310 59007
0115832880999991988060812004-13267-043417FM-12+0458SBLP V0201801N00311021001CN0200001N9+02401+01971102051ADDAA106000091AG10999GF106991061001022501071001KA1240N+01901MA1999999096901MD1999999+0121REMSYN017333   20190 58012
0096832880999991988060818004-13267-043417FM-12+0458SBLP V0201801N00411012001CN0200001N9+02841+01851101661ADDAA106000091AG10999GF107991071081008001001001MA1999999096521MD1999999+0121REMSYN011333   58012
0115832880999991988060900004-13267-043417FM-12+0458SBLP V0201801N00051220001CN9999999N9+02301+01791101881ADDAA106000091AG10999GF100991001001999999001001KA1240M+02961MA1999999096721MD1999999+0091REMSYN017333   10296 58009
0115832880999991988060912004-13267-043417FM-12+0458SBLP V0201801N00151220001CN0200001N9+02341+01831102101ADDAA106000091AG10999GF101991011011008001001001KA1240N+01481MA1999999096931MD1999999+0031REMSYN017333   20148 58003
0096832880999991988060918004-13267-043417FM-12+0458SBLP V0201401N00311220001CN0200001N9+03081+01951101701ADDAA106000091AG10999GF104991041021008001001001MA1999999096561MD1999999+0041REMSYN011333   58004
0115832880999991988061000004-13267-043417FM-12+0458SBLP V0201801N00101220001CN9999999N9+02361+01401101891ADDAA106000091AG10999GF100991001001999999001001KA1240M+03171MA1999999096731MD1999999+0011REMSYN017333   10317 58001
0115832880999991988061012004-13267-043417FM-12+0458SBLP V0201801N00101220001CN0200001N9+02261+01441102061ADDAA106000091AG10999GF100991001001999999001001KA1240N+01681MA1999999096891MD1999999-0041REMSYN017333   20168 59004
0096832880999991988061018004-13267-043417FM-12+0458SBLP V0201401N00261220001CN0200001N9+03121+01391101471ADDAA106000091AG10999GF103991031011008001001001MA1999999096351MD1999999-0211REMSYN011333   59021
0115832880999991988061112004-13267-043417FM-12+0458SBLP V0201801N00311220001CN0200001N9+02321+01831101841ADDAA106000091AG10999GF100991001001999999001001KA1240N+01401MA1999999096781MD1999999-0111REMSYN017333   20140 59011
0096832880999991988061118004-13267-043417FM-12+0458SBLP V0201401N00261220001CN0200001N9+03141+02071101231ADDAA106000091AG10999GF100991001001999999001001MA1999999096191MD1999999-0161REMSYN011333   59016
0115832880999991988061200004-13267-043417FM-12+0458SBLP V0201401N00151220001CN9999999N9+02481+01621101541ADDAA106000091AG10999GF100991001001999999001001KA1240M+03281MA1999999096411MD1999999-0211REMSYN017333   10328 59021
0115832880999991988061212004-13267-043417FM-12+0458SBLP V0201401N00511220001CN0200001N9+02361+01831101761ADDAA106000091AG10999GF102991021011008001001001KA1240N+01941MA1999999096621MD1999999-0161REMSYN017333   20194 59016
0096832880999991988061218004-13267-043417FM-12+0458SBLP V0201401N00361220001CN0200001N9+03021+01731101321ADDAA106000091AG10999GF103991031011008001001001MA1999999096211MD1999999-0021REMSYN011333   59002
0115832880999991988061300004-13267-043417FM-12+0458SBLP V0201401N00211220001CN9999999N9+02301+01631101581ADDAA106000091AG10999GF100991001001999999001001KA1240M+03061MA1999999096441MD1999999+0011REMSYN017333   10306 58001
0115832880999991988061312004-13267-043417FM-12+0458SBLP V0201401N00101220001CN0200001N9+02341+01691101731ADDAA106000091AG10999GF102991001001999999001011KA1240N+01611MA1999999096571MD1999999-0051REMSYN017333   20161 59005
0096832880999991988061318004-13267-043417FM-12+0458SBLP V0202301N00101012001CN0200001N9+02961+01901101851ADDAA106000091AG10999GF107991071081008001001001MA1999999096261MD1999999+0051REMSYN011333   58005
0115832880999991988061400004-13267-043417FM-12+0458SBLP V0201801N00151220001CN9999999N9+02321+01871101661ADDAA106000091AG10999GF100991001001999999001001KA1240M+03061MA1999999096511MD1999999+0071REMSYN017333   10306 58007
0115832880999991988061412004-13267-043417FM-12+0458SBLP V0201801N00151045001CN0200001N9+02281+02011101811ADDAA106000091AG10999GF108991041051008001021999KA1240N+01881MA1999999096651MD1999999+0081REMSYN017333   20188 58008
0096832880999991988061418004-13267-043417FM-12+0458SBLP V0201801N00211105001CN0200001N9+02901+02071101451ADDAA106000091AG10999GF106991031021008001001081MA1999999096331MD1999999+0071REMSYN011333   58007
0115832880999991988061500004-13267-043417FM-12+0458SBLP V0201401N00101220001CN9999999N9+02531+01421101531ADDAA106000091AG10999GF100991001001999999001001KA1240M+02951MA1999999096351MD1999999-0141REMSYN017333   10295 59014
0115832880999991988061512004-13267-043417FM-12+0458SBLP V0201401N00051015001CN0200001N9+02141+01991101631ADDAA106000091AG10999GF107991071001017501041001KA1240N+01871MA1999999096491MD1999999-0161REMSYN017333   20187 59016
0096832880999991988061518004-13267-043417FM-12+0458SBLP V0202301N00101105001CN0200001N9+03021+01241101131ADDAA106000091AG10999GF107991041011008001001021MA1999999096021MD1999999-0311REMSYN011333   59031
0115832880999991988061600004-13267-043417FM-12+0458SBLP V0201801N00101220001CN9999999N9+02401+01821101301ADDAA106000091AG10999GF100991001001999999001001KA1240M+03301MA1999999096241MD1999999-0111REMSYN017333   10330 59011
0115832880999991988061612004-13267-043417FM-12+0458SBLP V0201801N00151220001CN0200001N9+02461+01671101651ADDAA106000091AG10999GF100991001001999999001001KA1240N+01601MA1999999096591MD1999999+0101REMSYN017333   20160 58010
0115832880999991988061618004-13267-043417FM-12+0458SBLP V0203601N00101220001CN0200001N9+03301+02181101131ADDAA106000091AG10999GF103991999021008001001001MA1999999096071MD1999999+0051REMSYN011333   58005EQDQ01+000022SCOTLC
0115832880999991988061700004-13267-043417FM-12+0458SBLP V0201401N00211220001CN9999999N9+02541+01631101331ADDAA106000091AG10999GF100991001001999999001001KA1240M+03321MA1999999096221MD1999999-0021REMSYN017333   10332 59002
0134832880999991988061712004-13267-043417FM-12+0458SBLP V0201401N00101220001CN0200001N9+02341+01811101721ADDAA106000091AG10999GF102991001001999999001011KA1240N+01681MA1999999999999MD1999999-0011REMSYN017333   20168 59001EQDQ01 090583APOSP 
0115832880999991988061718004-13267-043417FM-12+0458SBLP V0201401N00211220001CN0200001N9+03081+01641101291ADDAA106000091AG10999GF103991031011008001001001MA1999999096172MD1999999+0101REMSYN011333   58010EQDQ01+096173APOSP 
0115832880999991988061800004-13267-043417FM-12+0458SBLP V0201401N00261220001CN9999999N9+02261+01571101511ADDAA106000091AG10999GF100991001001999999001001KA1240M+03101MA1999999096361MD1999999+0141REMSYN017333   10310 58014
0115832880999991988061812004-13267-043417FM-12+0458SBLP V0201401N00361220001CN0200001N9+02101+01321101861ADDAA106000091AG10999GF104991001001999999001081KA1240N+01431MA1999999096691MD1999999+0111REMSYN017333   20143 58011
0096832880999991988061818004-13267-043417FM-12+0458SBLP V0201401N00311220001CN0200001N9+02761+01161101441ADDAA106000091AG10999GF100991001001999999001001MA1999999096301MD1999999-0131REMSYN011333   59013
0115832880999991988061900004-13267-043417FM-12+0458SBLP V0201801N00151220001CN9999999N9+01921+01201101671ADDAA106000091AG10999GF100991001001999999001001KA1240M+02841MA1999999096481MD1999999+0121REMSYN017333   10284 58012
0115832880999991988061912004-13267-043417FM-12+0458SBLP V0201801N00151220001CN0200001N9+01981+01351101861ADDAA106000091AG10999GF102991001001999999001051KA1240N+01001MA1999999096661MD1999999-0031REMSYN017333   20100 59003
