0143833390999991988010100004-14050-042617FM-12+088299999V0209991C00001045001CN9999999N9+02421+01841100851ADDAA106000191AG10999AY161061AY221061GF106991021021004501031001KA1240M+02991MA1999999091291MD1999999-0241MW1021REMSYN023333   10299 59024 69911
0143833390999991988010112004-14050-042617FM-12+088299999V0203201N00361220001CN0200001N9+02641+01931101021ADDAA124001091AG10999AY161061AY221061GF105991021021004501001041KA1240N+02041MA1999999091881MD1999999-0221MW1021REMSYN023333   20204 59022 60014
0137833390999991988010200004-14050-042617FM-12+088299999V0203201N00151220001CN9999999N9+02241+02091101091ADDAA106000091AG10999AY121061AY221061GF103991031021004501001001KA1240M+02961MA1999999091381MD1999999+0091MW1131REMSYN017333   10296 58009
0115833390999991988010212004-14050-042617FM-12+088299999V0203201N00151045001CN0200001N9+02381+01911101091ADDAA106000091AG10999GF106991021021004501031001KA1240N+01941MA1999999091391MD1999999+0011REMSYN017333   20194 58001
0096833390999991988010218004-14050-042617FM-12+088299999V0203201N00311220001CN0200001N9+02921+02861100691ADDAA106000091AG10999GF105991031021004501001041MA1999999091061MD1999999-0321REMSYN011333   59032
0115833390999991988010300004-14050-042617FM-12+088299999V0203201N00101004201CN9999999N9+02831+01861101071ADDAA106000091AG10999GF108991081021004501999999KA1240M+02971MA1999999091371MD1999999-0011REMSYN017333   10297 59001
0115833390999991988010312004-14050-042617FM-12+088299999V0200501N00151004201CN0200001N9+02321+02021101281ADDAA106000091AG10999GF108991061021004501021999KA1240N+02061MA1999999091561MD1999999+0171REMSYN017333   20206 58017
0118833390999991988010318004-14050-042617FM-12+088299999V0200901N00671004201CN0200001N9+02281+02111100971ADDAA106000091AG10999AY121061AY221061GF108991081021004501999999MA1999999091251MD1999999+0211MW1171REMSYN011333   58021
0143833390999991988010400004-14050-042617FM-12+088299999V0203201N00151004201CN9999999N9+02101+01951101251ADDAA106001091AG10999AY191061AY261061GF108991081021004501999999KA1240M+02811MA1999999091521MD1999999+0151MW1131REMSYN023333   10281 58015 60011
0143833390999991988010412004-14050-042617FM-12+088299999V0200901N00311004201CN0040001N9+02201+01991101551ADDAA124002091AG10999AY161061AY261061GF106991051021004501021001KA1240N+01981MA1999999091781MD1999999+0221MW1101REMSYN023333   20198 58022 60024
0096833390999991988010418004-14050-042617FM-12+088299999V0200901N00411004201CN0200001N9+02661+01051101241ADDAA106000091AG10999GF105991051021004501001001MA1999999091531MD1999999+0261REMSYN011333   58026
0137833390999991988010512004-14050-042617FM-12+088299999V0200901N00511004201CN0200001N9+02161+01901101611ADDAA106000091AG10999AY101061AY201061GF106991061021004501001001KA1240N+01931MA1999999091851MD1999999+0071MW1101REMSYN017333   20193 58007
0096833390999991988010518004-14050-042617FM-12+088299999V0200901N00311220001CN0200001N9+02771+01591101291ADDAA106000091AG10999GF103991021021004501001021MA1999999091601MD1999999+0071REMSYN011333   58007
0100833390999991988010600004-14050-042617FM-12+088299999V0201401N00511220001CN9999999N9+02401+01701101331ADDAA106000091AG10999GF100991001001999999001001KA1240M+02771MD1999999+0001REMSYN017333   10277 58000
0115833390999991988010612004-14050-042617FM-12+088299999V0200901N00311220001CN0200001N9+02361+01931101481ADDAA106000091AG10999GF105991041021004501001041KA1240N+01901MA1999999091761MD1999999-0091REMSYN017333   20190 59009
0096833390999991988010618004-14050-042617FM-12+088299999V0201401N00461004201CN0200001N9+02761+01281101191ADDAA106000091AG10999GF106991051021004501001021MA1999999091501MD1999999-0101REMSYN011333   59010
0115833390999991988010712004-14050-042617FM-12+088299999V0200901N00461220001CN0200001N9+02501+01941101411ADDAA106000091AG10999GF104991031021004501021001KA1240N+01861MA1999999091691MD1999999-0091REMSYN017333   20186 59009
0096833390999991988010718004-14050-042617FM-12+088299999V0201401N00151220001CN0200001N9+02981+01091100931ADDAA106000091AG10999GF103991021021004501001021MA1999999091421MD1999999-0081REMSYN011333   59008
0115833390999991988010800004-14050-042617FM-12+088299999V0203201N00151220001CN9999999N9+02501+01191101161ADDAA106000091AG10999GF100991001001999999001001KA1240M+03161MA1999999091491MD1999999+0021REMSYN017333   10316 58002
0115833390999991988010812004-14050-042617FM-12+088299999V0200901N00721220001CN0200001N9+02241+01841101351ADDAA106000091AG10999GF103991021021004501001041KA1240N+01901MA1999999091641MD1999999-0051REMSYN017333   20190 59005
0096833390999991988010818004-14050-042617FM-12+088299999V0201401N00571220001CN0200001N9+02851+00661101061ADDAA106000091AG10001GF102991011021004501001021MA1999999091391MD1999999-0031REMSYN011333   59003
0115833390999991988010900004-14050-042617FM-12+088299999V0201401N00671220001CN9999999N9+02421+01621101241ADDAA106000091AG10999GF100991001001999999001001KA1240M+02871MA1999999091541MD1999999+0051REMSYN017333   10287 58005
0137833390999991988010912004-14050-042617FM-12+088299999V0201401N00311004201CN0200001N9+02061+01841101331ADDAA106000091AG10999AY121061AY221061GF108991051051004501021999KA1240N+01821MA1999999091601MD1999999-0041MW1101REMSYN017333   20182 59004
0096833390999991988010918004-14050-042617FM-12+088299999V0200901N00511220001CN0200001N9+02721+01651100831ADDAA106000091AG10001GF103991031021004501001001MA1999999091171MD1999999-0121REMSYN011333   59012
0115833390999991988011000004-14050-042617FM-12+088299999V0201401N00411220001CN9999999N9+02461+01681101091ADDAA106000091AG10999GF103991031021004501001001KA1240M+02791MA1999999091381MD1999999-0161REMSYN017333   10279 59016
0081833390999991988011018004-14050-042617FM-12+088299999V0201801N00311004201CN0200001N9+02541+01911100911ADDAA106000091AG10999GF107991061021004501021001MD1999999+0061REMSYN011333   58006
0143833390999991988011100004-14050-042617FM-12+088299999V0203601N00051004201CN9999999N9+01921+01851101251ADDAA106005091AG10999AY191061AY261061GF108991081051004501999999KA1240M+02691MA1999999091481MD1999999+0101MW1101REMSYN023333   10269 58010 60051
0162833390999991988011112004-14050-042617FM-12+088299999V0209991C000019999999N0040001N9+02021+01951101461ADDAA124040091AG10999AY161061AY261061GF107991999051004501071999KA1240N+01901MA1999999091651MD1999999+0121MW1601REMSYN023333   20190 58012 60404EQDQ01+000082SCOTLC
0143833390999991988011200004-14050-042617FM-12+088299999V0200901N00211004201CN9999999N9+01961+01891101371ADDAA106002091AG10999AY161061AY261061GF107991061021004501021999KA1240M+02271MA1999999091591MD1999999+0111MW1101REMSYN023333   10227 58011 60021
0143833390999991988011212004-14050-042617FM-12+088299999V0200901N00361004201CN0040001N9+02001+01951101571ADDAA112005091AG10999AY161061AY261061GF108991081051004501999999KA1240N+01861MA1999999091761MD1999999+0111MW1421REMSYN023333   20186 58011 60052
0124833390999991988011218004-14050-042617FM-12+088299999V0200901N00311004201CN0040001N9+02101+02021101351ADDAA106001091AG10999AY161061AY261061GF107991061021004501021999MA1999999091571MD1999999+0151MW1501REMSYN017333   58015 60011
0143833390999991988011300004-14050-042617FM-12+088299999V0209999999999004201CN9999999N9+02051+01941101631ADDAA106000391AG10999AY161061AY261061GF106991051021004501021001KA1240M+02381MA1999999091821MD1999999+0231MW1101REMSYN023333   10238 58023 69931
0143833390999991988011312004-14050-042617FM-12+088299999V0200901N00571004201CN0040001N9+02081+01841101631ADDAA124002091AG10999AY161061AY261061GF106991051021004501031001KA1240N+01901MA1999999091831MD1999999+0071MW1101REMSYN023333   20190 58007 60024
0096833390999991988011318004-14050-042617FM-12+088299999V0200901N00671220001CN0200001N9+02531+01691101471ADDAA106000091AG10999GF103991031021004501001001MA1999999091731MD1999999+0161REMSYN011333   58016
0115833390999991988011400004-14050-042617FM-12+088299999V0200901N00511220001CN9999999N9+02161+01611101511ADDAA106000091AG10999GF100991001001999999001001KA1240M+02561MA1999999091741MD1999999-0081REMSYN017333   10256 59008
0115833390999991988011412004-14050-042617FM-12+088299999V0200901N00621220001CN0200001N9+02151+01761101751ADDAA106000091AG10999GF104991041021004501001001KA1240N+01821MA1999999091951MD1999999+0121REMSYN017333   20182 58012
0096833390999991988011418004-14050-042617FM-12+088299999V0201401N00511004201CN0200001N9+02501+01771101491ADDAA106000091AG10999GF105991051021004501001001MA1999999091741MD1999999+0011REMSYN011333   58001
0115833390999991988011500004-14050-042617FM-12+088299999V0201401N00721220001CN9999999N9+02301+01871101491ADDAA106000091AG10999GF103991031021004501001001KA1240M+02611MA1999999091741MD1999999+0001REMSYN017333   10261 58000
0139833390999991988011512004-14050-042617FM-12+088299999V0200901N00361004201CN0200001N9+03031+02181101811ADDAA124000291AA299000391AG10001AY161061AY261061GF106991061021004501001001KA1240N+01921MD1999999+0071MW1101REMSYN023333   20192 58007 69924
0096833390999991988011518004-14050-042617FM-12+088299999V0201401N00411220001CN0200001N9+02691+01811101441ADDAA106000091AG10999GF102991021021004501001001MA1999999091721MD1999999-0021REMSYN011333   59002
0137833390999991988011600004-14050-042617FM-12+088299999V0201801N00151220001CN9999999N9+02241+01901101391ADDAA106000091AG10999AY101061AY201061GF102991021021004501001001KA1240M+02691MA1999999091641MD1999999-0101MW1101REMSYN017333   10269 59010
0115833390999991988011612004-14050-042617FM-12+088299999V0201801N00621004201CN0200001N9+02261+01841101731ADDAA106000091AG10999GF106991061021004501001001KA1240N+01961MA1999999091921MD1999999-0101REMSYN017333   20196 59010
0096833390999991988011618004-14050-042617FM-12+088299999V0201401N00461220001CN0200001N9+02701+01441101401ADDAA106000091AG10999GF103991031021004501001001MA1999999091691MD1999999-0031REMSYN011333   59003
0115833390999991988011700004-14050-042617FM-12+088299999V0202301N00151220001CN9999999N9+02261+01571101461ADDAA106000091AG10999GF100991001001999999001001KA1240M+02651MA1999999091721MD1999999+0081REMSYN017333   10265 58008
0137833390999991988011712004-14050-042617FM-12+088299999V0200901N00621220001CN0200001N9+02221+01861101611ADDAA106000091AG10999AY101061AY201061GF103991031021004501001001KA1240N+01841MA1999999091851MD1999999-0071MW1101REMSYN017333   20184 59007
0096833390999991988011718004-14050-042617FM-12+088299999V0200901N00511220001CN0200001N9+02751+01671101211ADDAA106000091AG10999GF104991041021004501001001MA1999999091521MD1999999-0171REMSYN011333   59017
0115833390999991988011800004-14050-042617FM-12+088299999V0200901N00311220001CN9999999N9+02361+01871101331ADDAA106000091AG10999GF100991001001999999001001KA1240M+02781MA1999999091611MD1999999-0011REMSYN017333   10278 59001
0156833390999991988011812004-14050-042617FM-12+088299999V0201401N00571004201CN0040001N9+02001+01811101621ADDAA106999999AG10999AY101061AY201061GF108991081051004501999999KA1240N+01961MA1999999091851MD1999999+0001MW1501REMSYN017333   20196 58000EQDQ01  00002PRCP06
0118833390999991988011818004-14050-042617FM-12+088299999V0200901N00721220001CN0200001N9+02661+01531101271ADDAA106000091AG10999AY191061AY261061GF103991031021004501001001MA1999999091571MD1999999+0051MW1021REMSYN011333   58005
0115833390999991988011900004-14050-042617FM-12+088299999V0200901N00411220001CN9999999N9+02381+01631101361ADDAA106000091AG10999GF100991001001999999001001KA1240M+02701MA1999999091621MD1999999+0011REMSYN017333   10270 58001
0137833390999991988011912004-14050-042617FM-12+088299999V0201401N00571004201CN0200001N9+02161+01841101621ADDAA106000091AG10999AY101061AY201061GF106991061021004501001001KA1240N+01921MA1999999091861MD1999999+0011MW1101REMSYN017333   20192 58001
0096833390999991988011918004-14050-042617FM-12+088299999V0201401N00361220001CN0200001N9+02721+01591101401ADDAA106000091AG10999GF103991031021004501001001MA1999999091681MD1999999+0111REMSYN011333   58011
0115833390999991988012000004-14050-042617FM-12+088299999V0201801N00101220001CN9999999N9+02301+01611101351ADDAA106000091AG10999GF100991001001999999001001KA1240M+02771MA1999999091621MD1999999+0001REMSYN017333   10277 58000
0137833390999991988012012004-14050-042617FM-12+088299999V0200901N00511004201CN0200001N9+02191+01881101541ADDAA106000091AG10999AY101061AY201061GF106991061021004501001001KA1240N+01841MA1999999091791MD1999999-0071MW1101REMSYN017333   20184 59007
0096833390999991988012018004-14050-042617FM-12+088299999V0201401N00411220001CN0200001N9+02801+01531101171ADDAA106000091AG10999GF102991021021004501001001MA1999999091481MD1999999-0201REMSYN011333   59020
0115833390999991988012100004-14050-042617FM-12+088299999V0203201N00051220001CN9999999N9+02331+01551101151ADDAA106000091AG10999GF100991001001999999001001KA1240M+02811MA1999999091441MD1999999-0181REMSYN017333   10281 59018
0137833390999991988012112004-14050-042617FM-12+088299999V0200901N00311004201CN0200001N9+02101+01881101431ADDAA106000091AG10999AY101061AY201061GF106991061021004501001001KA1240N+01721MA1999999091681MD1999999-0111MW1101REMSYN017333   20172 59011
0096833390999991988012118004-14050-042617FM-12+088299999V0201701N00411220001CN0200001N9+02801+01501101131ADDAA106000091AG10001GF102991021021004501001001MA1999999091441MD1999999-0041REMSYN011333   59004
0115833390999991988012200004-14050-042617FM-12+088299999V0200901N00051220001CN9999999N9+02321+01501101271ADDAA106000091AG10999GF100991001001999999001001KA1240M+02801MA1999999091541MD1999999+0101REMSYN017333   10280 58010
0115833390999991988012212004-14050-042617FM-12+088299999V0201401N00261004201CN0200001N9+02351+01931101351ADDAA106000091AG10999GF105991051021004501001001KA1240N+01701MA1999999091731MD1999999+0051REMSYN017333   20170 58005
0096833390999991988012218004-14050-042617FM-12+088299999V0201801N00411220001CN0200001N9+02921+01571101021ADDAA106000091AG10999GF102991021021004501001001MA1999999091371MD1999999-0071REMSYN011333   59007
0115833390999991988012300004-14050-042617FM-12+088299999V0201401N00411220001CN9999999N9+02431+01461101081ADDAA106000091AG10999GF100991001001999999001001KA1240M+02911MA1999999091401MD1999999-0141REMSYN017333   10291 59014
0115833390999991988012312004-14050-042617FM-12+088299999V0202301N00511004201CN0200001N9+02301+01831101481ADDAA106000091AG10999GF106991061021004501001001KA1240N+01861MA1999999091751MD1999999+0021REMSYN017333   20186 58002
0096833390999991988012318004-14050-042617FM-12+088299999V0201401N00411220001CN0200001N9+02781+01301101111ADDAA106000091AG10999GF103991031021004501001001MA1999999091441MD1999999+0071REMSYN011333   58007
0115833390999991988012400004-14050-042617FM-12+088299999V0200901N00361220001CN9999999N9+02981+01941101071ADDAA106000091AG10999GF100991001001999999001001KA1240M+02951MA1999999091441MD1999999+0041REMSYN017333   10295 58004
0115833390999991988012412004-14050-042617FM-12+088299999V0201401N00621105001CN0200001N9+02241+01751101391ADDAA106000091AG10999GF105991041021004501001021KA1240N+01751MA1999999091711MD1999999-0041REMSYN017333   20175 59004
0115833390999991988012418004-14050-042617FM-12+088299999V0201401N00511220001CN0200001N9+02801+01501101221ADDAA106000091AG10999GF103991031021999999001001MA1999999091521MD1999999+0081REMSYN011333   58008EQDQ01+000992SCOLCB
0115833390999991988012500004-14050-042617FM-12+088299999V0201401N00411220001CN9999999N9+02471+01411101391ADDAA106000091AG10999GF100991001001999999001001KA1240M+02841MA1999999091661MD1999999-0221REMSYN017333   10284 59022
0115833390999991988012512004-14050-042617FM-12+088299999V0201401N00871220001CN0200001N9+02181+01631101541ADDAA106000091AG10999GF102991021021004501001001KA1240N+01851MA1999999091801MD1999999+0091REMSYN017333   20185 58009
0096833390999991988012518004-14050-042617FM-12+088299999V0201401N00511220001CN0200001N9+02741+01261101231ADDAA106000091AG10999GF103991031021004501001001MA1999999091541MD1999999+0021REMSYN011333   58002
0115833390999991988012600004-14050-042617FM-12+088299999V0201401N00411220001CN9999999N9+02381+01531101221ADDAA106000091AG10999GF100991001001999999001001KA1240M+02811MA1999999091511MD1999999-0151REMSYN017333   10281 59015
0115833390999991988012612004-14050-042617FM-12+088299999V0201401N00821220001CN0200001N9+02251+01751101511ADDAA106000091AG10999GF102991021021004501001001KA1240N+01981MA1999999091771MD1999999-0031REMSYN017333   20198 59003
0096833390999991988012618004-14050-042617FM-12+088299999V0201401N00511220001CN0200001N9+02781+01261101201ADDAA106000091AG10999GF102991011021004501031001MA1999999091521MD1999999-0021REMSYN011333   59002
0115833390999991988012700004-14050-042617FM-12+088299999V0201401N00361220001CN9999999N9+02261+01621101421ADDAA106000091AG10999GF100991001001999999001001KA1240M+02871MA1999999091681MD1999999+0171REMSYN017333   10287 58017
0154833390999991988012712004-14050-042617FM-12+088299999V0201401N00511220001CN0200001N9+02231+01831101571ADDAA124000891AA299001091AG10999AY161061AY261061GF104991041021004501001001KA1240N+01831MA1999999091821MD1999999+0051MW1021REMSYN023333   20183 58005 69984
0096833390999991988012718004-14050-042617FM-12+088299999V0200901N00051220001CN0200001N9+02641+01001101241ADDAA106000091AG10999GF103991031021004501001001MA1999999091521MD1999999+0001REMSYN011333   58000
0115833390999991988012800004-14050-042617FM-12+088299999V0201401N00311220001CN9999999N9+02361+01611101351ADDAA106000091AG10999GF100991001001999999001001KA1240M+02801MA1999999091631MD1999999-0051REMSYN017333   10280 59005
0115833390999991988012812004-14050-042617FM-12+088299999V0200901N00361220001CN0200001N9+02301+01811101521ADDAA106000091AG10999GF104991041021004501001001KA1240N+01861MA1999999091791MD1999999-0021REMSYN017333   20186 59002
0096833390999991988012818004-14050-042617FM-12+088299999V0201401N00211004201CN0200001N9+03121+01351101061ADDAA106000091AG10999GF105991051021004501001001MA1999999091421MD1999999-0101REMSYN011333   59010
0115833390999991988012900004-14050-042617FM-12+088299999V0201801N00151220001CN9999999N9+02471+01441101201ADDAA106000091AG10999GF100991001001999999001001KA1240M+03131MA1999999091511MD1999999-0121REMSYN017333   10313 59012
0115833390999991988012912004-14050-042617FM-12+088299999V0201401N00361220001CN0200001N9+02531+01791101511ADDAA106000091AG10999GF102991011021004501021001KA1240N+01861MA1999999091811MD1999999+0021REMSYN017333   20186 58002
0096833390999991988012918004-14050-042617FM-12+088299999V0201401N00261004201CN0200001N9+02181+01261101101ADDAA106000091AG10999GF105991051021004501001001MA1999999091471MD1999999+0051REMSYN011333   58005
0100833390999991988013000004-14050-042617FM-12+088299999V0200901N00261220001CN9999999N9+02801+01511101211ADDAA106000091AG10999GF102991021011004501001001KA1240M+03231MD1999999+0051REMSYN017333   10323 58005
0115833390999991988013012004-14050-042617FM-12+088299999V0200901N00311220001CN0200001N9+02661+01951101381ADDAA106000091AG10999GF102991011021004501001041KA1240N+02101MA1999999091741MD1999999-0071REMSYN017333   20210 59007
0096833390999991988013018004-14050-042617FM-12+088299999V0201801N00461220001CN0200001N9+03161+01511101031ADDAA106000091AG10999GF103991021021004501001021MA1999999091431MD1999999-0041REMSYN011333   59004
0115833390999991988013100004-14050-042617FM-12+088299999V0201401N00511220001CN9999999N9+02681+01551101241ADDAA106000091AG10999GF102991021021004501001001KA1240M+03191MA1999999091601MD1999999+0041REMSYN017333   10319 58004
0096833390999991988013118004-14050-042617FM-12+088299999V0200901N00361220001CN0200001N9+03071+01251101081ADDAA106000091AG10999GF102991021021004501001001MA1999999091451MD1999999+0021REMSYN011333   58002
0115833390999991988020100004-14050-042617FM-12+088299999V0201401N00311220001CN9999999N9+02581+01041101141ADDAA106000091AG10999GF102991011021004501001041KA1240M+03131MA1999999091471MD1999999-0131REMSYN017333   10313 59013
0115833390999991988020112004-14050-042617FM-12+088299999V0201401N00571220001CN0200001N9+02401+01931101421ADDAA106000091AG10999GF103991031021004501001001KA1240N+01841MA1999999091731MD1999999-0021REMSYN017333   20184 59002
0096833390999991988020118004-14050-042617FM-12+088299999V0201401N00261220001CN0200001N9+03101+01191100961ADDAA106000091AG10999GF103991031021004501001001MA1999999091351MD1999999-0101REMSYN011333   59010
0156833390999991988020200004-14050-042617FM-12+088299999V0201801N00311220001CN9999999N9+02591+01191101021ADDAA106000091AG10999AY101061AY201061GF103991999021004501001001KA1240M+03221MA1999999091371MD1999999-0101MW1031REMSYN017333   10322 59010EQDQ01+000022SCOTLC
0115833390999991988020212004-14050-042617FM-12+088299999V0201401N00361220001CN0200001N9+02401+01861101341ADDAA106000091AG10999GF103991031021004501001001KA1240N+01841MA1999999091651MD1999999-0081REMSYN017333   20184 59008
0096833390999991988020218004-14050-042617FM-12+088299999V0201401N00311220001CN0200001N9+03181+01051100981ADDAA106000091AG10999GF102991011021004501021001MA1999999091351MD1999999+0001REMSYN011333   58000
0115833390999991988020300004-14050-042617FM-12+088299999V0201801N00151004201CN9999999N9+02691+01241101111ADDAA106000091AG10999GF106991051021004501031001KA1240M+03251MA1999999091461MD1999999+0091REMSYN017333   10325 58009
0115833390999991988020312004-14050-042617FM-12+088299999V0200901N00311220001CN0200001N9+02371+01851101371ADDAA106000091AG10999GF104991041021004501001001KA1240N+01951MA1999999091691MD1999999+0041REMSYN017333   20195 58004
0137833390999991988020400004-14050-042617FM-12+088299999V0201801N00151045001CN9999999N9+02621+01151101141ADDAA106000091AG10999AY101061AY201061GF105991041021004501031001KA1240M+03131MA1999999091471MD1999999+0011MW1131REMSYN017333   10313 58001
0115833390999991988020412004-14050-042617FM-12+088299999V0201401N00361220001CN0200001N9+02371+01731101381ADDAA106000091AG10001GF102991021021004501001001KA1240N+01841MA1999999091691MD1999999+0001REMSYN017333   20184 58000
0096833390999991988020418004-14050-042617FM-12+088299999V0201401N00361220001CN0200001N9+03001+01291101051ADDAA106000091AG10999GF104991041021004501001001MA1999999091411MD1999999+0101REMSYN011333   58010
0115833390999991988020500004-14050-042617FM-12+088299999V0200901N00211220001CN9999999N9+02501+01981101181ADDAA106000091AG10999GF100991001001999999001001KA1240M+03121MA1999999091501MD1999999+0031REMSYN017333   10312 58003
0115833390999991988020512004-14050-042617FM-12+088299999V0200501N00361220001CN0200001N9+02381+01681101511ADDAA106000091AG10999GF102991011021004501021001KA1240N+01901MA1999999091801MD1999999-0111REMSYN017333   20190 59011
0124833390999991988020518004-14050-042617FM-12+088299999V0202701N00151004201CN0200001N9+02821+01741101181ADDAA106001091AG10999AY161061AY261061GF105991051021004501001001MA1999999091501MD1999999+0091MW1021REMSYN017333   58009 60011
0154833390999991988020600004-14050-042617FM-12+088299999V0202301N00311004201CN9999999N9+02461+01831101331ADDAA106000491AA299000591AG10999AY161061AY261061GF106991061021004501001001KA1240M+03151MA1999999091631MD1999999+0131MW1131REMSYN023333   10315 58013 69941
0154833390999991988020612004-14050-042617FM-12+088299999V0201401N00211004201CN0200001N9+02301+01981101601ADDAA106000091AA224002091AG10999AY161061AY261061GF106991061021004501001001KA1240N+01981MA1999999091871MD1999999-0071MW1101REMSYN023333   20198 59007 60024
0096833390999991988020618004-14050-042617FM-12+088299999V0201401N00411004201CN0200001N9+03131+01351101171ADDAA106000091AG10999GF106991061021004501001001MA1999999091531MD1999999+0031REMSYN011333   58003
0121833390999991988020700004-14050-042617FM-12+088299999V0201401N00101220001CN9999999N9+02681+01281101391ADDAA106000091AG10999GF102991021021004501001001KA1240M+03191MA1999999091701MD1999999+0071MW1131REMSYN017333   10319 58007
0137833390999991988020712004-14050-042617FM-12+088299999V0201401N00571004201CN0200001N9+02201+01901101511ADDAA106000091AG10999AY101061AY201061GF105991051021004501001001KA1240N+01981MA1999999091861MD1999999-0011MW1101REMSYN017333   20198 59001
0096833390999991988020718004-14050-042617FM-12+088299999V0201401N00511220001CN0200001N9+03041+01091101161ADDAA106000091AG10999GF102991021011004501001001MA1999999091531MD1999999+0001REMSYN011333   58000
0115833390999991988020800004-14050-042617FM-12+088299999V0201401N00311220001CN9999999N9+02621+01191101321ADDAA106000091AG10999GF100991001001999999001001KA1240M+03111MA1999999091621MD1999999-0081REMSYN017333   10311 59008
0115833390999991988020812004-14050-042617FM-12+088299999V0200901N00461004201CN0200001N9+02361+01781101471ADDAA106000091AG10001GF106991051021004501021001KA1240N+01961MA1999999091771MD1999999-0091REMSYN017333   20196 59009
0096833390999991988020818004-14050-042617FM-12+088299999V0201401N00151004201CN0200001N9+02981+01181101081ADDAA106000091AG10999GF106991061021004501001001MA1999999091431MD1999999-0101REMSYN011333   59010
0115833390999991988020900004-14050-042617FM-12+088299999V0201401N00151220001CN9999999N9+02691+01171101191ADDAA106000091AG10999GF100991001001999999001001KA1240M+03091MA1999999091521MD1999999-0101REMSYN017333   10309 59010
0115833390999991988020912004-14050-042617FM-12+088299999V0201401N00511004201CN0200001N9+02231+01651101401ADDAA106000091AG10999GF106991061021004501001001KA1240N+01901MA1999999091701MD1999999-0071REMSYN017333   20190 59007
0096833390999991988020918004-14050-042617FM-12+088299999V0202301N00311004201CN0200001N9+02961+01341100981ADDAA106000091AG10999GF106991061021004501001001MA1999999091351MD1999999-0081REMSYN011333   59008
0115833390999991988021000004-14050-042617FM-12+088299999V0209991C00001220001CN9999999N9+02601+01381100921ADDAA106000091AG10999GF103991031021004501001001KA1240M+03131MA1999999091251MD1999999-0021REMSYN017333   10313 59002
0115833390999991988021012004-14050-042617FM-12+088299999V0201401N00051004201CN0200001N9+02271+01841101071ADDAA106000091AG10999GF106991051021004501031001KA1240N+01981MA1999999091401MD1999999-0301REMSYN017333   20198 59030
0118833390999991988021018004-14050-042617FM-12+088299999V0202701N00151004201CN0200001N9+02601+01941100751ADDAA106000091AG10999AY191061AY201061GF106991051021004501021001MA1999999091091MD1999999-0261MW1021REMSYN011333   59026
0115833390999991988021100004-14050-042617FM-12+088299999V0202301N00101220001CN9999999N9+02441+01831100871ADDAA106000091AG10999GF103991031021004501001001KA1240M+03051MA1999999091191MD1999999-0061REMSYN017333   10305 59006
0115833390999991988021112004-14050-042617FM-12+088299999V0201401N00821004201CN0200001N9+02471+01971101111ADDAA106000091AG10999GF106991061021004501001001KA1240N+02061MA1999999091441MD1999999+0041REMSYN017333   20206 58004
0084833390999991988021118004-14050-042617FM-12+088299999V0202701N00361004201CN0200001N9+02561+01781100781ADDAA106000091AG10999AY101061AY201061GF106991051021004501021001MA1999999091141MW1171
0143833390999991988021200004-14050-042617FM-12+088299999V0202701N00211004201CN9999999N9+02041+01831101031ADDAA106029091AG10999AY191061AY261061GF106991061021004501001001KA1240M+03131MA1999999091331MD1999999+0141MW1021REMSYN023333   10313 58014 60291
0143833390999991988021212004-14050-042617FM-12+088299999V0200901N00151004201CN0200001N9+02291+01811101301ADDAA124029091AG10999AY161061AY261061GF106991061021004501001001KA1240N+01941MA1999999091551MD1999999+0111MW1021REMSYN023333   20194 58011 60294
0096833390999991988021218004-14050-042617FM-12+088299999V0201801N00211105001CN0200001N9+02891+01971100921ADDAA106000091AG10999GF105991041021004501001021MA1999999091261MD1999999+0121REMSYN011333   58012
0115833390999991988021300004-14050-042617FM-12+088299999V0202301N00151004201CN9999999N9+02241+01991101171ADDAA106000091AG10999GF106991061021004501001001KA1240M+02931MA1999999091451MD1999999+0121REMSYN017333   10293 58012
0154833390999991988021312004-14050-042617FM-12+088299999V0201401N00461004201CN0040001N9+02021+01871101361ADDAA124000291AA299000391AG10999AY161061AY241061GF108991051051004501021999KA1240N+01961MA1999999091611MD1999999+0061MW1101REMSYN023333   20196 58006 69924
0096833390999991988021318004-14050-042617FM-12+088299999V0200901N00411220001CN0200001N9+02861+01581100791ADDAA106000091AG10001GF103991031021004501001001MA1999999091161MD1999999-0101REMSYN011333   59010
0115833390999991988021400004-14050-042617FM-12+088299999V0202301N00151004201CN9999999N9+02461+01471101011ADDAA106000091AG10999GF106991061021004501001001KA1240M+02901MA1999999091311MD1999999-0141REMSYN017333   10290 59014
0115833390999991988021412004-14050-042617FM-12+088299999V0201401N00571220001CN0200001N9+02301+01631101261ADDAA106000091AG10999GF106991021021004501001011KA1240N+01781MA1999999091561MD1999999-0051REMSYN017333   20178 59005
0096833390999991988021418004-14050-042617FM-12+088299999V0202301N00261220001CN0200001N9+02921+01381100891ADDAA106000091AG10999GF104991041021004501001001MA1999999091261MD1999999+0101REMSYN011333   58010
0115833390999991988021500004-14050-042617FM-12+088299999V0202301N00151220001CN9999999N9+02541+01331101051ADDAA106000091AG10999GF102991021021004501001001KA1240M+03051MA1999999091371MD1999999+0061REMSYN017333   10305 58006
0115833390999991988021512004-14050-042617FM-12+088299999V0200901N00461220001CN0200001N9+02261+01771101501ADDAA106000091AG10999GF102991021021004501001001KA1240N+01861MA1999999091781MD1999999+0221REMSYN017333   20186 58022
0096833390999991988021518004-14050-042617FM-12+088299999V0201401N00151220001CN0200001N9+03941+01281100811ADDAA106000091AG10999GF103991031021004501001001MA1999999091191MD1999999-0071REMSYN011333   59007
0115833390999991988021600004-14050-042617FM-12+088299999V0201801N00101220001CN9999999N9+02401+01601100951ADDAA106000091AG10999GF100991001001999999001001KA1240M+03031MA1999999091271MD1999999-0101REMSYN017333   10303 59010
0115833390999991988021612004-14050-042617FM-12+088299999V0200901N00411220001CN0200001N9+02361+01871101181ADDAA106000091AG10999GF104991041021004501001001KA1240N+01981MA1999999091491MD1999999-0291REMSYN017333   20198 59029
0096833390999991988021618004-14050-042617FM-12+088299999V0201801N00311004201CN0200001N9+03031+01301100701ADDAA106000091AG10999GF105991051021004501001001MA1999999091101MD1999999-0091REMSYN011333   59009
0115833390999991988021700004-14050-042617FM-12+088299999V0201401N00511220001CN9999999N9+02641+01691100881ADDAA106000091AG10999GF100991001001999999001001KA1240M+03061MA1999999091221MD1999999-0051REMSYN017333   10306 59005
0115833390999991988021712004-14050-042617FM-12+088299999V0201401N00571220001CN0200001N9+02341+01831101011ADDAA106000091AG10999GF103991021021004501001041KA1240N+02001MA1999999091461MD1999999-0131REMSYN017333   20200 59013
0096833390999991988021718004-14050-042617FM-12+088299999V0201401N00151004201CN0100001N9+03121+01001100591ADDAA106000091AG10999GF105991051021004501001001MA1999999091011MD1999999-0091REMSYN011333   59009
0115833390999991988021800004-14050-042617FM-12+088299999V0201801N00101220001CN9999999N9+02581+01331100761ADDAA106000091AG10999GF100991001001999999001001KA1240M+03231MA1999999091131MD1999999-0061REMSYN017333   10323 59006
0115833390999991988021812004-14050-042617FM-12+088299999V0200501N00151004201CN0200001N9+02461+01781101001ADDAA106000091AG10999GF106991051021004501021001KA1240N+01961MA1999999091361MD1999999+0001REMSYN017333   20196 58000
0096833390999991988021818004-14050-042617FM-12+088299999V0202701N00211004201CN0200001N9+03001+01641100641ADDAA106000091AG10999GF106991051021004501001021MA1999999091041MD1999999+0031REMSYN011333   58003
0115833390999991988021900004-14050-042617FM-12+088299999V0202701N00511220001CN9999999N9+02501+01821100901ADDAA106000091AG10999GF100991001001999999001001KA1240M+03111MA1999999091261MD1999999+0131REMSYN017333   10311 58013
0115833390999991988021912004-14050-042617FM-12+088299999V0201401N00461004201CN0200001N9+02381+01801101191ADDAA106000091AG10999GF107991061021004501001041KA1240N+01881MA1999999091511MD1999999+0151REMSYN017333   20188 58015
0096833390999991988021918004-14050-042617FM-12+088299999V0201401N00311004201CN0200001N9+03011+01291100871ADDAA106000091AG10999GF106991051021004501021001MA1999999091241MD1999999+0201REMSYN011333   58020
0115833390999991988022000004-14050-042617FM-12+088299999V0200901N00101220001CN9999999N9+02521+01611101111ADDAA106000091AG10999GF100991001001999999001001KA1240M+03071MA1999999091441MD1999999+0181REMSYN017333   10307 58018
0115833390999991988022012004-14050-042617FM-12+088299999V0201401N00571220001CN0200001N9+02321+01761101381ADDAA106000091AG10999GF104991041021004501001001KA1240N+01921MA1999999091671MD1999999+0161REMSYN017333   20192 58016
0096833390999991988022018004-14050-042617FM-12+088299999V0201401N00361220001CN0200001N9+03141+01071100901ADDAA106000091AG10999GF105991041021004501001011MA1999999091301MD1999999+0061REMSYN011333   58006
0143833390999991988022100004-14050-042617FM-12+088299999V0201401N00821004201CN9999999N9+02181+02041101331ADDAA106999929AG10999AY121061AY221061GF108991051021004501021999KA1240M+03191MA1999999091601MD1999999+0161MW1501REMSYN023333   10319 58016 69901
0143833390999991988022112004-14050-042617FM-12+088299999V0201401N00721004201CN0200001N9+02261+01821101441ADDAA124999929AG10999AY151061AY221061GF106991061021004501001001KA1240N+01901MA1999999091691MD1999999+0021MW1021REMSYN023333   20190 58002 69904
0096833390999991988022118004-14050-042617FM-12+088299999V0201401N00361220001CN0200001N9+03141+01071100901ADDAA106000091AG10999GF105991031021004501001011MA1999999091301MD1999999+0061REMSYN011333   58006
0115833390999991988022200004-14050-042617FM-12+088299999V0201401N00771220001CN9999999N9+02351+01801101141ADDAA106000091AG10999GF100991001001999999001001KA1240M+03091MA1999999091451MD1999999-0141REMSYN017333   10309 59014
0096833390999991988022218004-14050-042617FM-12+088299999V0201401N00361004201CN0200001N9+03061+01381100791ADDAA106000091AG10999GF105991051021004501001001MA1999999091191MD1999999-0191REMSYN011333   59019
0115833390999991988022300004-14050-042617FM-12+088299999V0201401N00511220001CN9999999N9+02381+01741101021ADDAA106000091AG10999GF102991021021004501001001KA1240M+03151MA1999999091331MD1999999-0121REMSYN017333   10315 59012
0115833390999991988022312004-14050-042617FM-12+088299999V0200901N00461045001CN0200001N9+02321+01791101171ADDAA106000091AG10999GF105991041021004501031001KA1240N+01831MA1999999091461MD1999999-0121REMSYN017333   20183 59012
0143833390999991988022400004-14050-042617FM-12+088299999V0201801N00361004201CN9999999N9+02201+01671101251ADDAA106000591AG10999AY161061AY221061GF108991081021004501999999KA1240M+03131MA1999999091251MD1999999-0081MW1131REMSYN023333   10313 59008 69951
0143833390999991988022412004-14050-042617FM-12+088299999V0200901N00211004201CN0200001N9+02331+01941101071ADDAA124002091AG10999AY161061AY261061GF106991061021004501001001KA1240N+01821MA1999999091361MD1999999-0101MW1021REMSYN023333   20182 59010 60024
0096833390999991988022418004-14050-042617FM-12+088299999V0203201N00211220001CN0200001N9+02961+01641100531ADDAA106000091AG10999GF103991031021004501001001MA1999999090901MD1999999-0131REMSYN011333   59013
0154833390999991988022500004-14050-042617FM-12+088299999V0201401N00311220001CN9999999N9+02341+01761100741ADDAA106000691AA299000591AG10999AY161061AY221061GF103991031021004501001001KA1240M+02991MA1999999091081MD1999999-0171MW1021REMSYN023333   10299 59017 69961
0154833390999991988022512004-14050-042617FM-12+088299999V0200901N00411004201CN0200001N9+02101+01801100941ADDAA124000691AA299000591AG10999AY161061AY261061GF106991061021004501001001KA1240N+01761MA1999999091241MD1999999-0121MW1101REMSYN023333   20176 59012 69964
0096833390999991988022518004-14050-042617FM-12+088299999V0201401N00311220001CN0200001N9+02821+01171100551ADDAA106000091AG10999GF104991041011004501001001MA1999999090931MD1999999+0001REMSYN011333   58000
0115833390999991988022600004-14050-042617FM-12+088299999V0201401N00621220001CN9999999N9+02401+01621100771ADDAA106000091AG10999GF100991001001999999001001KA1240M+02951MA1999999091091MD1999999+0011REMSYN017333   10295 58001
0137833390999991988022612004-14050-042617FM-12+088299999V0200901N00361004201CN0040001N9+02171+01881101061ADDAA106000091AG10999AY101061AY201061GF107991061021004501021001KA1240N+01921MA1999999091361MD1999999+0121MW1101REMSYN017333   20192 58012
0096833390999991988022618004-14050-042617FM-12+088299999V0201401N00571105001CN0200001N9+02921+01421100691ADDAA106000091AG10999GF105991041021004501001021MA1999999091071MD1999999+0141REMSYN011333   58014
0137833390999991988022700004-14050-042617FM-12+088299999V0201401N00721220001CN9999999N9+02361+01891100981ADDAA106000091AG10999AY121061AY221061GF102991021021004501001001KA1240M+03071MA1999999091271MD1999999-0181MW1131REMSYN017333   10307 59018
0115833390999991988022712004-14050-042617FM-12+088299999V0201401N00461004201CN0200001N9+02261+01821101201ADDAA106000091AG10999GF105991051021004501001001KA1240N+01881MA1999999091491MD1999999+0121REMSYN017333   20188 58012
0096833390999991988022718004-14050-042617FM-12+088299999V0201401N00671220001CN0200001N9+02961+01571100731ADDAA106000091AG10999GF104991041021004501001001MA1999999091121MD1999999-0151REMSYN011333   59015
0154833390999991988022800004-14050-042617FM-12+088299999V0201401N00671220001CN9999999N9+02201+01841101141ADDAA106000491AA299000591AG10999AY191061AY261061GF102991021021004501001001KA1240M+03011MA1999999091431MD1999999+0161MW1021REMSYN023333   10301 58016 69941
0154833390999991988022812004-14050-042617FM-12+088299999V0200901N00821004201CN0200001N9+02201+01801101291ADDAA124000491AA299000591AG10999AY101061AY221061GF106991061021004501001001KA1240N+01901MA1999999091551MD1999999+0061MW1021REMSYN023333   20190 58006 69944
0096833390999991988022818004-14050-042617FM-12+088299999V0200901N00051220001CN0200001N9+02911+01621100861ADDAA106000091AG10999GF104991041021004501001001MA1999999091241MD1999999+0121REMSYN011333   58012
0115833390999991988022900004-14050-042617FM-12+088299999V0201401N00461220001CN9999999N9+02461+01711101061ADDAA106000091AG10999GF102991021021004501001001KA1240M+03011MA1999999091371MD1999999-0061REMSYN017333   10301 59006
0115833390999991988022912004-14050-042617FM-12+088299999V0201401N00361004201CN0200001N9+02321+01741101191ADDAA106000091AG10999GF106991051021004501021001KA1240N+02101MA1999999091501MD1999999-0051REMSYN017333   20210 59005
0096833390999991988022918004-14050-042617FM-12+088299999V0201401N00461220001CN0200001N9+02951+01191100821ADDAA106000091AG10999GF104991041021004501001001MA1999999091211MD1999999-0031REMSYN011333   59003
0115833390999991988030100004-14050-042617FM-12+088299999V0201401N00101220001CN9999999N9+02521+01521101011ADDAA106000091AG10999GF100991001001999999001001KA1240M+03071MA1999999091341MD1999999-0031REMSYN017333   10307 59003
0115833390999991988030112004-14050-042617FM-12+088299999V0201401N00211220001CN0200001N9+02401+01931101291ADDAA106000091AG10999GF103991021021004501001021KA1240N+01921MA1999999091601MD1999999+0101REMSYN017333   20192 58010
0096833390999991988030118004-14050-042617FM-12+088299999V0201401N00101004201CN0200001N9+03121+01251100821ADDAA106000091AG10999GF106991061021004501001001MA1999999091201MD1999999+0001REMSYN011333   58000
0162833390999991988030200004-14050-042617FM-12+088299999V0200501N00151220001CN9999999N9+02381+01801101091ADDAA106000591AG10999AY161061AY221061GF104991999021004501001001KA1240M+03211MA1999999091411MD1999999+0071MW1131REMSYN023333   10321 58007 69951EQDQ01+000032SCOTLC
0130833390999991988030212004-14050-042617FM-12+088299999V0200901N00151004201CN0200001N9+02531+01891101421ADDAA124000591AG10999AY161061AY261061GF106991061021004501001001MA1999999091721MD1999999+0121MW1021REMSYN023333   20/// 58012 69954
0096833390999991988030218004-14050-042617FM-12+088299999V0201401N00211105001CN0200001N9+03001+01881100981ADDAA106000091AG10999GF105991041021004501001021MA1999999091351MD1999999+0141REMSYN011333   58014
0143833390999991988030300004-14050-042617FM-12+088299999V0202701N00151004201CN9999999N9+02361+01891101081ADDAA106002091AG10999AY191061AY261061GF106991061021004501001001KA1240M+03091MA1999999091411MD1999999+0001MW1131REMSYN023333   10309 58000 60021
0143833390999991988030312004-14050-042617FM-12+088299999V0203601N00151004201CN0200001N9+02541+02021101351ADDAA124005091AG10999AY161061AY261061GF106991051021004501021001KA1240N+02131MA1999999091651MD1999999-0071MW1021REMSYN023333   20213 59007 60054
0096833390999991988030318004-14050-042617FM-12+088299999V0203201N00311004201CN0200001N9+03071+01831100831ADDAA106000091AG10999GF106991051021004501001021MA1999999091231MD1999999-0121REMSYN011333   59012
0115833390999991988030400004-14050-042617FM-12+088299999V0209991C00001004201CN9999999N9+02361+02031101041ADDAA106000091AG10001GF106991061021004501001001KA1240M+03081MA1999999091391MD1999999-0021REMSYN017333   10308 59002
0143833390999991988030412004-14050-042617FM-12+088299999V0203201N00151004201CN0040001N9+02101+02071101451ADDAA124040091AG10999AY191061AY261061GF108991081051004501999999KA1240N+02001MA1999999091721MD1999999+0071MW1641REMSYN023333   20200 58007 60404
0124833390999991988030418004-14050-042617FM-12+088299999V0202701N00261004201CN0040001N9+02581+02171100961ADDAA106009091AG10999AY161061AY261061GF107991061021004501021001MA1999999091281MD1999999+0051MW1021REMSYN017333   58005 60091
0156833390999991988030500004-14050-042617FM-12+088299999V0202701N00361004201CN9999999N9+02201+01991101231ADDAA106000091AG10999AY101061AY201061GF105991051021004501001001KA1240M+02591MA1999999092442MD1999999+0101MW1131REMSYN017333   10259 58010EQDQ01+092443APOSP 
0143833390999991988030512004-14050-042617FM-12+088299999V0203601N00051004201CN0200001N9+02361+02091101311ADDAA124015091AG10999AY161061AY241061GF108991081021004501999999KA1240N+01941MA1999999091591MD1999999-0131MW1101REMSYN023333   20194 59013 60154
0096833390999991988030518004-14050-042617FM-12+088299999V0202701N00511004201CN0200001N9+02641+02051100981ADDAA106000091AG10999GF106991061021004501001001MA1999999091291MD1999999+0011REMSYN011333   58001
0115833390999991988030600004-14050-042617FM-12+088299999V0200501N00101004201CN9999999N9+02231+02011101251ADDAA106000091AG10999GF105991051021004501001001KA1240M+02791MA1999999091541MD1999999+0051REMSYN017333   10279 58005
0115833390999991988030612004-14050-042617FM-12+088299999V0209991C00001004201CN0200001N9+02281+02031101521ADDAA106000091AG10999GF108991051021004501021999KA1240N+02121MA1999999091781MD1999999+0191REMSYN017333   20212 58019
0118833390999991988030618004-14050-042617FM-12+088299999V0203201N00311004201CN0200001N9+99999+99999101031ADDAA106000091AG10999AY121061AY221061GF106991061021004501001001MA1999999091351MD1999999+0061MW1171REMSYN011333   58006
0126833390999991988030700004-14050-042617FM-12+088299999V0209991C00001220001CN9999999N9+02421+02071101171ADDAG10999AY191061AY221061GF102991021021004501001001KA1240M+02891MA1999999091471MD1999999-0071MW1021REMSYN017333   10289 59007
0137833390999991988030712004-14050-042617FM-12+088299999V0200901N00211105001CN0200001N9+02501+02231101381ADDAA106000091AG10999AY101061AY201061GF105991041021004501001021KA1240N+02091MA1999999091671MD1999999-0111MW1101REMSYN017333   20209 59011
0096833390999991988030718004-14050-042617FM-12+088299999V0200901N00311004201CN0200001N9+02861+02091101001ADDAA106000091AG10999GF106991051021004501021001MA1999999091351MD1999999+0001REMSYN011333   58000
0137833390999991988030800004-14050-042617FM-12+088299999V0209991C00001220001CN9999999N9+02481+02071101151ADDAA106000091AG10999AY121061AY221061GF102991021021004501001001KA1240M+02991MA1999999091481MD1999999+0011MW1131REMSYN017333   10299 58001
0118833390999991988030818004-14050-042617FM-12+088299999V0201401N00311004201CN0200001N9+02351+02151100991ADDAA106000091AG10999AY101061AY201061GF107991061021004501021001MA1999999091301MD1999999-0051MW1171REMSYN011333   59005
0143833390999991988030900004-14050-042617FM-12+088299999V0209991C00001004201CN9999999N9+02321+02111101111ADDAA106000391AG10999AY191061AY261061GF108991081021004501999999KA1240M+02971MA1999999091431MD1999999-0051MW1101REMSYN023333   10297 59005 69931
0143833390999991988030912004-14050-042617FM-12+088299999V0203601N00151004201CN0040001N9+01901+01881101291ADDAA124106091AG10999AY191061AY261061GF108991081051004501999999KA1240N+01841MA1999999091541MD1999999+0021MW1601REMSYN023333   20184 58002 61064
0124833390999991988030918004-14050-042617FM-12+088299999V0202701N00151004201CN0040001N9+02181+02101101031ADDAA106000391AG10999AY161061AY261061GF108991081051004501999999MA1999999091301MD1999999+0001MW1601REMSYN017333   58000 69931
0154833390999991988031000004-14050-042617FM-12+088299999V0201401N00361004201CN9999999N9+02041+02021101171ADDAA106000291AA299000391AG10999AY161061AY261061GF108991061051004501021999KA1240M+02811MA1999999091401MD1999999-0031MW1401REMSYN023333   10281 59003 69921
0143833390999991988031012004-14050-042617FM-12+088299999V0200901N00261004201CN0040001N9+02181+01991101251ADDAA124008091AG10999AY161061AY261061GF106991051021004501021001KA1240N+01901MA1999999091501MD1999999-0041MW1101REMSYN023333   20190 59004 60084
0096833390999991988031018004-14050-042617FM-12+088299999V0201401N00411004201CN0040001N9+02451+02011101011ADDAA106000091AG10999GF108991081051004501999999MA1999999091291MD1999999+0011REMSYN011333   58001
0154833390999991988031100004-14050-042617FM-12+088299999V0201401N00511004201CN9999999N9+02101+02051101311ADDAA106000691AA299000591AG10999AY161061AY261061GF108991081021004501999999KA1240M+02571MA1999999091511MD1999999+0111MW1601REMSYN023333   10257 58011 69961
0143833390999991988031112004-14050-042617FM-12+088299999V0201401N00311004201CN0010001N9+01961+01891999999ADDAA124002091AG10999AY161061AY261061GF108991051051004501021999KA1240N+01861MA1999999091261MD1999999+0261MW1401REMSYN023333   20186 58026 60024
0124833390999991988031118004-14050-042617FM-12+088299999V0201401N00311004201CN0020001N9+02041+01961101391ADDAA106006091AG10999AY161061AY241061GF108991061051004501021999MA1999999091591MD1999999+0301MW1401REMSYN017333   58030 60061
0143833390999991988031200004-14050-042617FM-12+088299999V0201401N00411004201CN9999999N9+01901+01831101351ADDAA106000191AG10999AY161061AY241061GF108991061051004501021999KA1240M+02111MA1999999091741MD1999999+0231MW1401REMSYN023333   10211 58023 69911
0143833390999991988031212004-14050-042617FM-12+088299999V0201401N00311004201CN0040001N9+02061+01911101551ADDAA124006091AG10999AY161061AY241061GF106991061021004501001001KA1240N+01821MA1999999091751MD1999999-0011MW1041REMSYN023333   20182 59001 60064
0118833390999991988031218004-14050-042617FM-12+088299999V0201401N00511004201CN0200001N9+02461+01901101161ADDAA106000091AG10001AY141061AY221061GF106991061021004501001001MA1999999091441MD1999999-0151MW1021REMSYN011333   59015
0154833390999991988031300004-14050-042617FM-12+088299999V0209991C00001004201CN9999999N9+02121+01971101361ADDAA106000791AA299001091AG10999AY161061AY221061GF105991051021004501001001KA1240M+02531MA1999999091601MD1999999-0141MW1021REMSYN023333   10253 59014 69971
0143833390999991988031312004-14050-042617FM-12+088299999V0200901N00311004201CN0040001N9+02071+01991101291ADDAA124001091AG10999AY161061AY261061GF106991061021004501001001KA1240N+01891MA1999999091541MD1999999-0211MW1101REMSYN023333   20189 59021 60014
0124833390999991988031318004-14050-042617FM-12+088299999V0201401N00211004201CN0200001N9+02321+02131100891ADDAA106018091AG10999AY191061AY261061GF105991051021004501001001MA1999999091181MD1999999-0261MW1101REMSYN017333   59026 60181
0143833390999991988031400004-14050-042617FM-12+088299999V0209991C00001004201CN9999999N9+02061+02011101121ADDAA106002091AG10999AY161061AY261061GF108991081021004501999999KA1240M+02511MA1999999091381MD1999999-0221MW1131REMSYN023333   10251 59022 60021
0143833390999991988031412004-14050-042617FM-12+088299999V0200901N00461004201CN0040001N9+01981+01931101291ADDAA124022091AG10999AY161061AY261061GF108991081051004501999999KA1240N+01931MA1999999091521MD1999999-0021MW1401REMSYN023333   20193 59002 60224
0135833390999991988031418004-14050-042617FM-12+088299999V0200901N00051004201CN0200001N9+02461+01901100851ADDAA106000991AA299001091AG10999AY161061AY261061GF105991051021004501001001MA1999999091151MD1999999-0031MW1021REMSYN017333   59003 69991
0115833390999991988031500004-14050-042617FM-12+088299999V0209991C00001045001CN9999999N9+02261+02121101361ADDAA106000091AG10999GF108991041021004501021999KA1240M+02551MA1999999091331MD1999999-0051REMSYN017333   10255 59005
0154833390999991988031512004-14050-042617FM-12+088299999V0203201N00151004201CN0040001N9+02201+01991101341ADDAA124000991AA299001091AG10999AY161061AY261061GF106991051021004501031001KA1240N+01991MA1999999091611MD1999999+0091MW1101REMSYN023333   20199 58009 69994
0135833390999991988031518004-14050-042617FM-12+088299999V0201401N00361004201CN0040001N9+02421+02301101101ADDAA106000291AA299000391AG10999AY161061AY261061GF107991061021004501021001MA1999999091391MD1999999+0241MW1141REMSYN017333   58024 69921
0143833390999991988031600004-14050-042617FM-12+088299999V0203201N00261004201CN9999999N9+02061+02031101351ADDAA106010091AG10999AY191061AY261061GF108991061021004501021999KA1240M+02671MA1999999091601MD1999999+0271MW1131REMSYN023333   10267 58027 60101
0143833390999991988031612004-14050-042617FM-12+088299999V0200901N00461004201CN0040001N9+02061+02031101661ADDAA124013091AG10999AY161061AY261061GF108991081051004501999999KA1240N+01921MA1999999091851MD1999999+0241MW1501REMSYN023333   20192 58024 60134
0118833390999991988031618004-14050-042617FM-12+088299999V0201401N00261004201CN0200001N9+02601+01961101191ADDAA106000091AG10999AY151061AY251061GF105991051021004501001001MA1999999091481MD1999999+0291MW1021REMSYN011333   58029
0115833390999991988031700004-14050-042617FM-12+088299999V0209991C00001220001CN9999999N9+02301+01901101331ADDAA106000091AG10999GF102991021021004501001001KA1240M+02731MA1999999091591MD1999999-0011REMSYN017333   10273 59001
0115833390999991988031712004-14050-042617FM-12+088299999V0200901N00211004201CN0200001N9+02421+02011101561ADDAA106000091AG10999GF106991061021004501001001KA1240N+01891MA1999999091831MD1999999-0021REMSYN017333   20189 59002
0096833390999991988031718004-14050-042617FM-12+088299999V0200901N00461220001CN0200001N9+02761+01801101161ADDAA106000091AG10999GF104991041021008001001001MA1999999091481MD1999999+0001REMSYN011333   58000
0150833390999991988031800004-14050-042617FM-12+088299999V0209991C00001220001CN9999999N9+02261+01771101291ADDAA106000091AG10999GF102991021021004501001001KA1240M+02811MA1999999999999MD1999999-0011REMSYN017333   10281 59001EQDQ01+101583APOSP Q02 101583APOSP 
0115833390999991988031812004-14050-042617FM-12+088299999V0201401N00211220001CN0200001N9+02441+01921101521ADDAA106000091AG10999GF102991021021004501001001KA1240N+01801MA1999999091791MD1999999-0041REMSYN017333   20180 59004
0118833390999991988031818004-14050-042617FM-12+088299999V0203601N00261004201CN0200001N9+02641+01981101231ADDAA106000091AG10999AY191061AY201061GF106991061021004501001001MA1999999091531MD1999999+0051MW1021REMSYN011333   58005
0115833390999991988031900004-14050-042617FM-12+088299999V0203201N00101220001CN9999999N9+02341+01981101301ADDAA106000091AG10999GF102991021021004501001001KA1240M+02831MA1999999091601MD1999999+0021REMSYN017333   10283 58002
0115833390999991988031912004-14050-042617FM-12+088299999V0200901N00261220001CN0200001N9+02581+02151101471ADDAA106000091AG10001GF103991031021004501001001KA1240N+02041MA1999999091761MD1999999-0031REMSYN017333   20204 59003
0096833390999991988031918004-14050-042617FM-12+088299999V0203201N00261004201CN0200001N9+02821+02051101131ADDAA106000091AG10999GF105991051021004501001001MA1999999091461MD1999999-0071REMSYN011333   59007
0134833390999991988032000004-14050-042617FM-12+088299999V0201401N00101220001CN9999999N9+02341+02011101261ADDAA106000091AG10999GF102991999021004501001001KA1240M+03001MA1999999091561MD1999999-0041REMSYN017333   10300 59004EQDQ01+000012SCOTLC
0115833390999991988032012004-14050-042617FM-12+088299999V0203201N00311220001CN0200001N9+02421+02161101421ADDAA106000091AG10999GF105991041021004501001011KA1240N+02121MA1999999091711MD1999999-0051REMSYN017333   20212 59005
0096833390999991988032018004-14050-042617FM-12+088299999V0203201N00261004201CN0200001N9+02431+02151101211ADDAA106000091AG10999GF108991061021004501021999MA1999999091511MD1999999+0051REMSYN011333   58005
0143833390999991988032100004-14050-042617FM-12+088299999V0209991C00001004201CN9999999N9+01941+01911101561ADDAA106006091AG10999AY161061AY241061GF108991061021004501021999KA1240M+02751MA1999999091801MD1999999+0241MW1401REMSYN023333   10275 58024 60061
0143833390999991988032112004-14050-042617FM-12+088299999V0201401N00771004201CN0040001N9+01801+01741101761ADDAA124001091AG10999AY161061AY261061GF108991081051004501999999KA1240N+01751MA1999999091911MD1999999+0201MW1521REMSYN023333   20175 58020 60014
0115833390999991988032200004-14050-042617FM-12+088299999V0201401N00411004201CN9999999N9+02141+01861101431ADDAA106000091AG10999GF108991051051004501021999KA1240M+02331MA1999999091631MD1999999-0171REMSYN017333   10233 59017
0115833390999991988032212004-14050-042617FM-12+088299999V0201401N00621004201CN0200001N9+02001+01601101641ADDAA106000091AG10999GF105991051021004501001001KA1240N+01941MA1999999091841MD1999999-0071REMSYN017333   20194 59007
0096833390999991988032218004-14050-042617FM-12+088299999V0201401N00571220001CN0200001N9+02431+01401101351ADDAA106000091AG10999GF103991031021008001001001MA1999999091591MD1999999+0011REMSYN011333   58001
0100833390999991988032300004-14050-042617FM-12+088299999V0201401N00211220001CN9999999N9+02061+01661101341ADDAA106000091AG10999GF100991001001999999001001KA1240M+02471MD1999999-0061REMSYN017333   10247 59006
0137833390999991988032312004-14050-042617FM-12+088299999V0201401N00511004201CN0200001N9+02041+01681101631ADDAA106000091AG10999AY101061AY201061GF106991061021004501001001KA1240N+01731MA1999999091831MD1999999-0011MW1101REMSYN017333   20173 59001
0096833390999991988032318004-14050-042617FM-12+088299999V0200901N00461220001CN0200001N9+02541+01601101271ADDAA106000091AG10999GF102991021021004501001001MA1999999091541MD1999999-0051REMSYN011333   59005
0115833390999991988032400004-14050-042617FM-12+088299999V0201001N00721004201CN9999999N9+02041+01921101331ADDAA106000091AG10999GF106991061021004501001001KA1240M+02571MA1999999091561MD1999999-0011REMSYN017333   10257 59001
0143833390999991988032412004-14050-042617FM-12+088299999V0201401N00821004201CN0040001N9+01931+01841101631ADDAA124002091AG10999AY161061AY261061GF108991081051004501999999KA1240N+01821MA1999999091821MD1999999-0011MW1101REMSYN023333   20182 59001 60024
0135833390999991988032418004-14050-042617FM-12+088299999V0200901N00311220001CN0200001N9+02401+01991101271ADDAA106000691AA299000591AG10999AY161061AY261061GF103991031021004501001001MA1999999091541MD1999999+0001MW1021REMSYN017333   58000 69961
0115833390999991988032500004-14050-042617FM-12+088299999V0201401N00571220001CN9999999N9+02121+01881101421ADDAA106000091AG10999GF102991021021004501001001KA1240M+02531MA1999999091641MD1999999+0081REMSYN017333   10253 58008
0154833390999991988032512004-14050-042617FM-12+088299999V0201401N00721004201CN0200001N9+01981+01781101621ADDAA124000891AA299001091AG10999AY161061AY261061GF106991061021004501001001KA1240N+01841MA1999999091821MD1999999+0001MW1101REMSYN023333   20184 58000 69984
0096833390999991988032518004-14050-042617FM-12+088299999V0200901N00361220001CN0200001N9+02471+01831101301ADDAA106000091AG10999GF104991041021004501001001MA1999999091651MD1999999+0111REMSYN011333   58011
0137833390999991988032600004-14050-042617FM-12+088299999V0201401N00101220001CN9999999N9+02161+01921101451ADDAA106000091AG10999AY101061AY201061GF102991021021004501001001KA1240M+02531MA1999999091671MD1999999+0031MW1101REMSYN017333   10253 58003
0156833390999991988032612004-14050-042617FM-12+088299999V0200901N00821004201CN0040001N9+01991+01901101601ADDAA106999999AG10999AY101061AY201061GF107991061021004501021001KA1240N+01901MA1999999091791MD1999999-0031MW1501REMSYN017333   20190 59003EQDQ01  00002PRCP06
0118833390999991988032618004-14050-042617FM-12+088299999V0200901N00511004201CN0200001N9+99999+99999101331ADDAA106000091AG10999AY151061AY251061GF105991051021004501001001MA1999999091611MD1999999-0041MW1021REMSYN011333   59004
0143833390999991988032700004-14050-042617FM-12+088299999V0201401N00211220001CN9999999N9+02051+01871101481ADDAA106002091AG10999AY161061AY261061GF102991021021004501001001KA1240M+02611MA1999999091681MD1999999+0011MW1101REMSYN023333   10261 58001 60021
0143833390999991988032712004-14050-042617FM-12+088299999V0200901N00671220001CN0200001N9+02121+01641101541ADDAA124002091AG10999AY161061AY261061GF102991021021004501001001KA1240N+01781MA1999999091761MD1999999-0031MW1021REMSYN023333   20178 59003 60024
0096833390999991988032718004-14050-042617FM-12+088299999V0200901N00571004201CN0200001N9+02551+01601101311ADDAA106000091AG10999GF106991061021004501001001MA1999999091591MD1999999-0021REMSYN011333   59002
0137833390999991988032800004-14050-042617FM-12+088299999V0201401N00211220001CN9999999N9+02181+01941101481ADDAA106000091AG10999AY101061AY201061GF103991031021004501001001KA1240M+02651MA1999999091721MD1999999+0041MW1101REMSYN017333   10265 58004
0137833390999991988032812004-14050-042617FM-12+088299999V0200901N00511004201CN0200001N9+02091+01721101571ADDAA106000091AG10999AY101061AY201061GF106991061021004501001001KA1240N+01841MA1999999091801MD1999999+0041MW1101REMSYN017333   20184 58004
0096833390999991988032818004-14050-042617FM-12+088299999V0201401N00671220001CN0200001N9+02561+01621101171ADDAA106000091AG10999GF104991041021004501001001MA1999999091461MD1999999-0131REMSYN011333   59013
0143833390999991988032900004-14050-042617FM-12+088299999V0201401N00311004201CN9999999N9+02041+01971101451ADDAA106002091AG10001AY161061AY221061GF108991061021004501021999KA1240M+02591MA1999999091671MD1999999-0051MW1601REMSYN023333   10259 59005 60021
0143833390999991988032912004-14050-042617FM-12+088299999V0201401N00361004201CN0200001N9+02061+01851101501ADDAA124005091AG10999AY161061AY261061GF106991061021004501001001KA1240N+01881MA1999999091721MD1999999-0081MW1101REMSYN023333   20188 59008 60054
0081833390999991988032918004-14050-042617FM-12+088299999V0200901N00571220001CN0200001N9+02601+01651101091ADDAA106000091AG10999GF102991021021004501001001MD1999999-0081REMSYN011333   59008
0100833390999991988033000004-14050-042617FM-12+088299999V0202301N00151220001CN9999999N9+02201+01411101141ADDAA106000091AG10999GF100991001001999999001001KA1240M+02631MD1999999-0261REMSYN017333   10263 59026
0137833390999991988033012004-14050-042617FM-12+088299999V0200901N00621004201CN0040001N9+02001+01901101401ADDAA106000091AG10999AY101061AY201061GF108991081051004501999999KA1240N+01841MA1999999091641MD1999999-0081MW1401REMSYN017333   20184 59008
0118833390999991988033018004-14050-042617FM-12+088299999V0201401N00461220001CN0200001N9+02691+01581100981ADDAA106000091AG10999AY141061AY201061GF102991021021004501001001MA1999999091301MD1999999-0081MW1021REMSYN011333   59008
0115833390999991988033100004-14050-042617FM-12+088299999V0209991C00001220001CN9999999N9+02201+01671101111ADDAA106000091AG10999GF102991021021004501001001KA1240M+02731MA1999999091371MD1999999-0041REMSYN017333   10273 59004
0096833390999991988033118004-14050-042617FM-12+088299999V0200901N00361220001CN0200001N9+02761+01861100921ADDAA106000091AG10999GF104991041021004501001001MA1999999091251MD1999999-0051REMSYN011333   59005
0115833390999991988040100004-14050-042617FM-12+088299999V0201401N00311220001CN9999999N9+02251+01841101111ADDAA106000091AG10999GF100991001001999999001001KA1240M+02791MA1999999091391MD1999999+0021REMSYN017333   10279 58002
0115833390999991988040112004-14050-042617FM-12+088299999V0200901N00411220001CN0200001N9+02221+01421101321ADDAA106000091AG10001GF103991031021004501001001KA1240N+01831MA1999999091591MD1999999-0021REMSYN017333   20183 59002
0096833390999991988040118004-14050-042617FM-12+088299999V0201401N00151220001CN0200001N9+02741+01731101041ADDAA106000091AG10999GF102991021021004501001001MA1999999091351MD1999999+0101REMSYN011333   58010
0115833390999991988040200004-14050-042617FM-12+088299999V0209991C00001220001CN9999999N9+02201+01721101071ADDAA106000091AG10999GF102991021021004501001001KA1240M+02771MA1999999091531MD1999999-0041REMSYN017333   10277 59004
0115833390999991988040212004-14050-042617FM-12+088299999V0200901N00311220001CN0200001N9+02321+01851101291ADDAA106000091AG10999GF100991001001999999001001KA1240N+01741MA1999999091561MD1999999-0031REMSYN017333   20174 59003
0096833390999991988040218004-14050-042617FM-12+088299999V0200901N00151220001CN0200001N9+02801+01721100861ADDAA106000091AG10999GF103991031021004501001001MA1999999091201MD1999999-0151REMSYN011333   59015
0115833390999991988040300004-14050-042617FM-12+088299999V0202301N00151220001CN9999999N9+02361+01491100981ADDAA106000091AG10999GF100991001001999999001001KA1240M+02871MA1999999091301MD1999999-0051REMSYN017333   10287 59005
0115833390999991988040312004-14050-042617FM-12+088299999V0201401N00261004201CN0200001N9+02141+01901101301ADDAA106000091AG10999GF106991061021004501001001KA1240N+01681MA1999999091571MD1999999+0011REMSYN017333   20168 58001
0096833390999991988040318004-14050-042617FM-12+088299999V0201401N00311220001CN0200001N9+02801+01751100891ADDAA106000091AG10999GF103991031021004501001001MA1999999091221MD1999999+0021REMSYN011333   58002
0115833390999991988040400004-14050-042617FM-12+088299999V0209991C00001220001CN9999999N9+02221+01531101231ADDAA106000091AG10999GF100991001001999999001001KA1240M+02891MA1999999091501MD1999999+0201REMSYN017333   10289 58020
0137833390999991988040412004-14050-042617FM-12+088299999V0200901N00511220001CN0200001N9+02201+01841101411ADDAA106000091AG10999AY101061AY201061GF103991031021004501001001KA1240N+01841MA1999999091661MD1999999+0091MW1101REMSYN017333   20184 58009
0096833390999991988040418004-14050-042617FM-12+088299999V0200901N00461220001CN0200001N9+02681+01451101071ADDAA106000091AG10999GF102991021021004501001001MA1999999091381MD1999999-0161REMSYN011333   59016
0115833390999991988040500004-14050-042617FM-12+088299999V0209991C00001220001CN9999999N9+02161+01541101211ADDAA106000091AG10999GF100991001001999999001001KA1240M+02741MA1999999091481MD1999999-0021REMSYN017333   10274 59002
0115833390999991988040512004-14050-042617FM-12+088299999V0200901N00311220001CN0200001N9+02301+01871101351ADDAA106000091AG10999GF102991021021004501001001KA1240N+01641MA1999999091621MD1999999-0041REMSYN017333   20164 59004
0096833390999991988040518004-14050-042617FM-12+088299999V0201401N00211220001CN0200001N9+02841+02141100971ADDAA106000091AG10999GF103991031021004501001001MA1999999091301MD1999999-0081REMSYN011333   59008
0115833390999991988040600004-14050-042617FM-12+088299999V0201801N00101220001CN9999999N9+02361+01431101121ADDAA106000091AG10999GF100991001001999999001001KA1240M+02861MA1999999091431MD1999999-0051REMSYN017333   10286 59005
0137833390999991988040612004-14050-042617FM-12+088299999V0200901N00211004201CN0200001N9+02121+01951101511ADDAA106000091AG10999AY101061AY201061GF105991051021004501001001KA1240N+01741MA1999999091761MD1999999+0141MW1101REMSYN017333   20174 58014
0115833390999991988040700004-14050-042617FM-12+088299999V0201801N00151220001CN9999999N9+02261+01591101211ADDAA106000091AG10999GF102991021021004501001001KA1240M+02731MA1999999091481MD1999999+0051REMSYN017333   10273 58005
0115833390999991988040712004-14050-042617FM-12+088299999V0201401N00671220001CN0200001N9+02131+01621101421ADDAA106000091AG10999GF104991041021004501001001KA1240N+01841MA1999999091671MD1999999-0091REMSYN017333   20184 59009
0096833390999991988040718004-14050-042617FM-12+088299999V0200901N00511220001CN0200001N9+02601+01741101111ADDAA106000091AG10999GF102991021021004501001001MA1999999091421MD1999999-0021REMSYN011333   59002
0115833390999991988040800004-14050-042617FM-12+088299999V0201401N00571220001CN9999999N9+02281+01791101201ADDAA106000091AG10999GF102991021021004501001001KA1240M+02611MA1999999091471MD1999999-0011REMSYN017333   10261 59001
0115833390999991988040812004-14050-042617FM-12+088299999V0201401N00511220001CN0200001N9+02251+01821101461ADDAA106000091AG10999GF102991021021004501001001KA1240N+01841MA1999999091721MD1999999+0051REMSYN017333   20184 58005
0096833390999991988040818004-14050-042617FM-12+088299999V0200901N00361220001CN0200001N9+02761+01391101041ADDAA106000091AG10999GF102991021021004501001001MA1999999091361MD1999999-0061REMSYN011333   59006
0115833390999991988040900004-14050-042617FM-12+088299999V0209991C00001220001CN9999999N9+02221+01671101221ADDAA106000091AG10999GF100991001001999999001001KA1240M+02751MA1999999091501MD1999999+0031REMSYN017333   10275 58003
0115833390999991988040912004-14050-042617FM-12+088299999V0201401N00311220001CN0200001N9+02341+01951101381ADDAA106000091AG10999GF102991021051004501001001KA1240N+01731MA1999999091651MD1999999-0071REMSYN017333   20173 59007
0115833390999991988040918004-14050-042617FM-12+088299999V0200901N00571220001CN0200001N9+02881+01731100961ADDAA106000091AG10999GF104991031021004501001011MA1999999091451MD1999999-0041REMSYN011333   59004EQDQ01+999990APOSP 
0115833390999991988041000004-14050-042617FM-12+088299999V0201401N00411220001CN9999999N9+02481+01731101261ADDAA106000091AG10999GF100991001001999999001001KA1240M+02931MA1999999091561MD1999999+0061REMSYN017333   10293 58006
0173833390999991988041012004-14050-042617FM-12+088299999V0201401N00571004201CN0200001N9+02041+01781101421ADDAA124000291AA299000391AG10999AY161061AY221061GF108991051051004501021999KA1240N+01881MA1999999091611MD1999999+0031MW1021REMSYN023333   20188 58003 69924EQDQ01+999990APOSP 
0115833390999991988041100004-14050-042617FM-12+088299999V0201401N00571004201CN9999999N9+02071+01861101291ADDAA106000091AG10999GF108991051021004501021999KA1240M+02491MA1999999091531MD1999999-0031REMSYN017333   10249 59003
0143833390999991988041112004-14050-042617FM-12+088299999V0201401N00721004201CN0040001N9+01901+01821101391ADDAA124003091AG10999AY161061AY261061GF108991081051004501999999KA1240N+01821MA1999999091611MD1999999-0071MW1421REMSYN023333   20182 59007 60034
0118833390999991988041118004-14050-042617FM-12+088299999V0201401N00211004201CN0040001N9+02321+01851101081ADDAA106000091AG10999AY141061AY201061GF106991051021004501021001MA1999999091351MD1999999-0051MW1021REMSYN011333   59005
0137833390999991988041200004-14050-042617FM-12+088299999V0201801N00511004201CN9999999N9+02141+01951101311ADDAA106000091AG10999AY101061AY201061GF107991061021004501021999KA1240M+02451MA1999999091541MD1999999+0011MW1101REMSYN017333   10245 58001
0115833390999991988041212004-14050-042617FM-12+088299999V0201401N00821004201CN0200001N9+02041+01851101391ADDAA106000091AG10999GF106991061021004501001001KA1240N+01831MA1999999091631MD1999999+0021REMSYN017333   20183 58002
0096833390999991988041218004-14050-042617FM-12+088299999V0200501N00411220001CN0200001N9+02681+01781101031ADDAA106000091AG10999GF104991041021004501001001MA1999999091341MD1999999-0011REMSYN011333   59001
0115833390999991988041300004-14050-042617FM-12+088299999V0209991C00001220001CN9999999N9+02221+01821101241ADDAA106000091AG10999GF100991001001999999001001KA1240M+02691MA1999999091501MD1999999-0041REMSYN017333   10269 59004
0137833390999991988041312004-14050-042617FM-12+088299999V0200901N00361004201CN0200001N9+02201+01921101431ADDAA106000091AG10999AY101061AY201061GF106991061021004501001001KA1240N+01861MA1999999091681MD1999999+0051MW1101REMSYN017333   20186 58005
0096833390999991988041318004-14050-042617FM-12+088299999V0200501N00151220001CN0200001N9+02821+01581101081ADDAA106000091AG10999GF102991021021004501001001MA1999999091401MD1999999+0061REMSYN011333   58006
0115833390999991988041400004-14050-042617FM-12+088299999V0201801N00511220001CN9999999N9+02281+01791101131ADDAA106000091AG10999GF100991001001999999001001KA1240M+02871MA1999999091411MD1999999-0081REMSYN017333   10287 59008
0115833390999991988041412004-14050-042617FM-12+088299999V0203201N00311045001CN0200001N9+02411+01791101301ADDAA106000091AG10999GF106991041021004501031001KA1240N+02081MA1999999091591MD1999999-0091REMSYN017333   20208 59009
0096833390999991988041418004-14050-042617FM-12+088299999V0203201N00311004201CN0200001N9+03061+01871100791ADDAA106000091AG10999GF106991061021004501001001MA1999999091191MD1999999-0211REMSYN011333   59021
0115833390999991988041500004-14050-042617FM-12+088299999V0202301N00051004201CN9999999N9+02401+01951101181ADDAA106000091AG10999GF106991061021004501001001KA1240M+03071MA1999999091491MD1999999+0071REMSYN017333   10307 58007
0124833390999991988041518004-14050-042617FM-12+088299999V0200501N00051220001CN0200001N9+02361+01951101131ADDAA106003091AG10999AY191061AY261061GF104991031021004501001021MA1999999091411MD1999999+0221MW1021REMSYN017333   58022 60031
0137833390999991988041600004-14050-042617FM-12+088299999V0201401N00511004201CN9999999N9+02041+01971101511ADDAA106000091AG10999AY101061AY201061GF106991061021004501001001KA1240M+02491MA1999999091761MD1999999+0251MW1101REMSYN017333   10249 58025
0143833390999991988041612004-14050-042617FM-12+088299999V0200901N00511045001CN0010001N9+02061+01981101411ADDAA124005091AG10999AY161061AY261061GF108991041051004501021999KA1240N+01961MA1999999091641MD1999999-0111MW1401REMSYN023333   20196 59011 60054
0118833390999991988041618004-14050-042617FM-12+088299999V0201401N00411004201CN0200001N9+02381+01991100981ADDAA106000091AG10999AY141061AY221061GF105991051021004501001001MA1999999091271MD1999999-0141MW1021REMSYN011333   59014
0137833390999991988041700004-14050-042617FM-12+088299999V0201401N00311004201CN9999999N9+02161+01951101261ADDAA106000091AG10999AY121061AY221061GF106991061021004501001001KA1240M+02411MA1999999091511MD1999999-0231MW1401REMSYN017333   10241 59023
0137833390999991988041712004-14050-042617FM-12+088299999V0201401N00361004201CN0200001N9+02161+01841101361ADDAA106000091AG10999AY141061AY201061GF106991051021004501021001KA1240N+01921MA1999999091621MD1999999+0021MW1101REMSYN017333   20192 58002
0096833390999991988041718004-14050-042617FM-12+088299999V0201401N00311004201CN0200001N9+02521+01841101061ADDAA106000091AG10999GF106991061021004501001001MA1999999091351MD1999999+0081REMSYN011333   58008
0137833390999991988041800004-14050-042617FM-12+088299999V0209991C00001004201CN9999999N9+02241+02141101311ADDAA106000091AG10999AY101061AY201061GF106991061021004501001001KA1240M+02631MA1999999091571MD1999999+0061MW1101REMSYN017333   10263 58006
0137833390999991988041812004-14050-042617FM-12+088299999V0200901N00311045001CN0500001N9+02071+01951101431ADDAA106000091AG10999AY141061AY221061GF108991041051004501021999KA1240N+01931MA1999999091761MD1999999+0141MW1401REMSYN017333   20193 58014
0115833390999991988041900004-14050-042617FM-12+088299999V0201401N00461220001CN9999999N9+02141+01931101441ADDAA106000091AG10999GF102991021021004501001001KA1240M+02691MA1999999091671MD1999999+0101REMSYN017333   10269 58010
0137833390999991988041912004-14050-042617FM-12+088299999V0200901N00621004201CN0200001N9+02101+01821101591ADDAA106000091AG10999AY101061AY201061GF106991061021004501001001KA1240N+01861MA1999999091811MD1999999+0051MW1101REMSYN017333   20186 58005
0115833390999991988042000004-14050-042617FM-12+088299999V0201401N00311220001CN9999999N9+02161+01901101341ADDAA106000091AG10999GF102991021021004501001001KA1240M+02651MA1999999091581MD1999999-0091REMSYN017333   10265 59009
0137833390999991988042012004-14050-042617FM-12+088299999V0200901N00461004201CN0010001N9+01981+01831101481ADDAA106000091AG10999AY141061AY221061GF106991061021004501001001KA1240N+01881MA1999999091701MD1999999-0111MW1401REMSYN017333   20188 59011
0118833390999991988042018004-14050-042617FM-12+088299999V0200901N00411220001CN0200001N9+02581+01551100981ADDAA106000091AG10999AY141061AY221061GF103991031021004501001001MA1999999091291MD1999999-0181MW1021REMSYN011333   59018
0115833390999991988042100004-14050-042617FM-12+088299999V0209991C00001220001CN9999999N9+02081+01601101231ADDAA106000091AG10999GF100991001001999999001001KA1240M+02591MA1999999091471MD1999999-0111REMSYN017333   10259 59011
0137833390999991988042112004-14050-042617FM-12+088299999V0200901N00671004201CN0040001N9+02021+01831101351ADDAA106000091AG10999AY101061AY201061GF108991081051004501999999KA1240N+01881MA1999999091581MD1999999-0121MW1101REMSYN017333   20188 59012
0096833390999991988042118004-14050-042617FM-12+088299999V0200901N00211220001CN0200001N9+02661+01711100971ADDAA106000091AG10999GF102991021021004501001001MA1999999091291MD1999999+0001REMSYN011333   58000
0137833390999991988042200004-14050-042617FM-12+088299999V0202301N00151220001CN9999999N9+02181+01881101161ADDAA106000091AG10999AY101061AY201061GF102991021021004501001001KA1240M+02661MA1999999091421MD1999999-0051MW1101REMSYN017333   10266 59005
0115833390999991988042300004-14050-042617FM-12+088299999V0201401N00151220001CN9999999N9+02151+01931101341ADDAA106000091AG10999GF104991021021004501031001KA1240M+02751MA1999999091591MD1999999+0171REMSYN017333   10275 58017
0156833390999991988042312004-14050-042617FM-12+088299999V0201401N00461004201CN0200001N9+02131+02001101531ADDAA106000091AG10999AY101061AY201061GF106991061021004501001001KA1240N+99999MA1999999091761MD1999999+0101MW1101REMSYN017333   20280 58010EQDQ01 +02802ATMN  
0074833390999991988042318004-14050-042617FM-12+088299999V0201401N00361220001CN0200001N9+02801+01561101131ADDAA106000091AG10999GF102991021021004501001001MA1999999091441REMSYN003333
0166833390999991988042400004-14050-042617FM-12+088299999V0209999999999220001CN9999999N9+02301+01011101371ADDAA106000091AG10999GF100991001001999999001001KA1240M+99999MA1999999091641MD1999999+0041REMSYN017333   10223 58004EQDQ01+011031APOSP Q02+999990APOSP Q03 +02232ATMX  
0115833390999991988042412004-14050-042617FM-12+088299999V0201401N00511004201CN0200001N9+02241+01941101591ADDAA106000091AG10999GF106991061021004501001001KA1240N+01871MA1999999091811MD1999999+0051REMSYN017333   20187 58005
0096833390999991988042418004-14050-042617FM-12+088299999V0201401N01031004201CN0200001N9+02771+01791101111ADDAA106000091AG10999GF105991051021004501001001MA1999999091431MD1999999-0011REMSYN011333   59001
0115833390999991988042500004-14050-042617FM-12+088299999V0201401N00211220001CN9999999N9+02361+01731101291ADDAA106000091AG10999GF102991011021004501031001KA1240M+02811MA1999999091571MD1999999-0061REMSYN017333   10281 59006
0137833390999991988042512004-14050-042617FM-12+088299999V0200901N00931004201CN0200001N9+02181+01951101421ADDAA106000091AG10999AY101061AY201061GF106991061021004501001001KA1240N+01981MA1999999091681MD1999999-0131MW1101REMSYN017333   20198 59013
0096833390999991988042518004-14050-042617FM-12+088299999V0209999999999220001CN0200001N9+02681+01671101011ADDAA106000091AG10999GF102991021021004501001001MA1999999091341MD1999999-0091REMSYN011333   59009
0115833390999991988042600004-14050-042617FM-12+088299999V0200901N00051220001CN9999999N9+02271+01771101261ADDAA106000091AG10999GF100991001001999999001001KA1240M+02711MA1999999091531MD1999999-0041REMSYN017333   10271 59004
0115833390999991988042612004-14050-042617FM-12+088299999V0200901N00621004201CN0200001N9+02161+01881101351ADDAA106000091AG10999GF108991081021004501999999KA1240N+01951MA1999999091611MD1999999-0071REMSYN017333   20195 59007
0096833390999991988042618004-14050-042617FM-12+088299999V0200901N00511220001CN0200001N9+02641+01751101021ADDAA106000091AG10999GF102991021021004501001001MA1999999091341MD1999999+0001REMSYN011333   58000
0115833390999991988042700004-14050-042617FM-12+088299999V0209991C00001220001CN9999999N9+02221+01761101221ADDAA106000091AG10999GF102991021021004501001001KA1240M+02691MA1999999091491MD1999999-0041REMSYN017333   10269 59004
0137833390999991988042712004-14050-042617FM-12+088299999V0200901N00871220001CN0200001N9+02201+01881101411ADDAA106000091AG10999AY101061AY201061GF102991021021004501001001KA1240N+01901MA1999999091661MD1999999+0051MW1101REMSYN017333   20190 58005
0096833390999991988042718004-14050-042617FM-12+088299999V0200901N00311220001CN0200001N9+02741+01441101041ADDAA106000091AG10999GF102991021021004501001001MA1999999091361MD1999999+0021REMSYN011333   58002
0115833390999991988042800004-14050-042617FM-12+088299999V0201801N00101220001CN9999999N9+02241+01321101321ADDAA106000091AG10999GF100991001001999999001001KA1240M+02801MA1999999091581MD1999999+0091REMSYN017333   10280 58009
0102833390999991988042812004-14050-042617FM-12+088299999V0201401N00261220001CN0200001N9+02221+01671101731ADDAA106000091AG10999GF102991021021004501001001MA1999999091961MD1999999+0301REMSYN017333   20/// 58030
0096833390999991988042818004-14050-042617FM-12+088299999V0200901N00511220001CN9999999N9+02741+01411101301ADDAA106000091AG10999GF100991001001999999001001MA1999999091581MD1999999+0221REMSYN011333   58022
0115833390999991988042900004-14050-042617FM-12+088299999V0201401N00411220001CN9999999N9+02301+01511101471ADDAA106000091AG10999GF102991021021004501001001KA1240M+02751MA1999999091731MD1999999+0151REMSYN017333   10275 58015
0137833390999991988042912004-14050-042617FM-12+088299999V0200901N00671220001CN0200001N9+02041+01741101691ADDAA106000091AG10999AY101061AY201061GF104991041021004501001001KA1240N+01761MA1999999091911MD1999999-0051MW1101REMSYN017333   20176 59005
0096833390999991988042918004-14050-042617FM-12+088299999V0201401N00361220001CN0200001N9+02681+01351101451ADDAA106000091AG10999GF103991031021004501001001MA1999999091631MD1999999+0051REMSYN011333   58005
0096833390999991988042919004-14050-042617FM-12+088299999V0201401N00361220001CN0200001N9+02681+01351101451ADDAA106000091AG10999GF103991031021004501001001MA1999999091631MD1999999+0051REMSYN011333   58005
0115833390999991988043000004-14050-042617FM-12+088299999V0201401N00461220001CN9999999N9+02181+01571101701ADDAA106000091AG10999GF100991001001999999001001KA1240M+02711MA1999999091791MD1999999+0061REMSYN017333   10271 58006
0143833390999991988043012004-14050-042617FM-12+088299999V0200901N00771045001CN0200001N9+01901+01831101791ADDAA124000591AG10999AY161061AY221061GF108991041051004501021999KA1240N+01781MA1999999091971MD1999999+0061MW1101REMSYN023333   20178 58006 69954
0096833390999991988043018004-14050-042617FM-12+088299999V0201401N00981004201CN0200001N9+02361+01781101521ADDAA106000091AG10999GF106991061021004501001001MA1999999091751MD1999999+0121REMSYN011333   58012
0143833390999991988050112004-14050-042617FM-12+088299999V0200901N00311004201CN0040001N9+01781+01751101731ADDAA124013091AG10999AY161061AY261061GF108991081051004501999999KA1240N+01661MA1999999091881MD1999999-0091MW1101REMSYN023333   20166 59009 60134
0096833390999991988050118004-14050-042617FM-12+088299999V0201401N00671004201CN0040001N9+02201+01651101461ADDAA106000091AG10999GF108991081051004501999999MA1999999091651MD1999999-0101REMSYN011333   59010
0137833390999991988050200004-14050-042617FM-12+088299999V0201401N00511004201CN9999999N9+01901+01641101641ADDAA106000091AG10999AY101061AY201061GF106991051021004501021001KA1240M+02291MA1999999091801MD1999999-0151MW1101REMSYN017333   10229 59015
0134833390999991988050212004-14050-042617FM-12+088299999V0201401N007219999999N0200001N9+01821+01561101651ADDAA106000091AG10999GF108991999021004501001001KA1240N+01651MA1999999091861MD1999999-0021REMSYN017333   20165 59002EQDQ01+000032SCOTLC
0096833390999991988050218004-14050-042617FM-12+088299999V0201401N00511220001CN0200001N9+02501+01451101271ADDAA106000091AG10999GF102991021021004501001001MA1999999091521MD1999999-0131REMSYN011333   59013
0115833390999991988050300004-14050-042617FM-12+088299999V0201401N00101220001CN9999999N9+02101+01461101531ADDAA106000091AG10999GF100991001001999999001001KA1240M+02531MA1999999091701MD1999999-0081REMSYN017333   10253 59008
0137833390999991988050312004-14050-042617FM-12+088299999V0201401N00411004201CN0200001N9+02021+01661101771ADDAA106000091AG10999AY101061AY201061GF105991051011004501001001KA1240N+01461MA1999999091951MD1999999+0091MW1101REMSYN017333   20146 58009
0096833390999991988050318004-14050-042617FM-12+088299999V0200501N00361220001CN0200001N9+02641+01751101361ADDAA106000091AG10999GF102991021021004501001001MA1999999091601MD1999999+0081REMSYN011333   58008
0156833390999991988050400004-14050-042617FM-12+088299999V0201401N00311220001CN9999999N9+02181+01901101501ADDAA106000091AG10999AY101061AY201061GF102991021021004501001001KA1240M+99999MA1999999091731MD1999999+0011MW1101REMSYN017333   10209 58001EQDQ01 +02092ATMX  
0115833390999991988050500004-14050-042617FM-12+088299999V0201401N00151220001CN9999999N9+02161+01611101531ADDAA106000091AG10999GF100991001001999999001001KA1240M+02691MA1999999091771MD1999999+0041REMSYN017333   10269 58004
0137833390999991988050512004-14050-042617FM-12+088299999V0201401N00511220001CN0200001N9+02221+01861101671ADDAA106000091AG10999AY101061AY201061GF102991021021004501001001KA1240N+01671MA1999999091901MD1999999-0081MW1101REMSYN017333   20167 59008
0096833390999991988050518004-14050-042617FM-12+088299999V0200901N00511220001CN0200001N9+02681+01611101371ADDAA106000091AG10999GF102991011021004501001021MA1999999091641MD1999999-0041REMSYN011333   59004
0115833390999991988050600004-14050-042617FM-12+088299999V0201801N00151220001CN9999999N9+02321+01741101521ADDAA106000091AG10999GF100991001001999999001001KA1240M+02771MA1999999091771MD1999999+0001REMSYN017333   10277 58000
0096833390999991988050618004-14050-042617FM-12+088299999V0200901N00621220001CN0200001N9+02741+01411101221ADDAA106000091AG10999GF106991031021004501001041MA1999999091521MD1999999-0121REMSYN011333   59012
0115833390999991988050700004-14050-042617FM-12+088299999V0201401N00261220001CN9999999N9+02201+01411101531ADDAA106000091AG10999GF100991001001999999001001KA1240M+02761MA1999999091761MD1999999-0011REMSYN017333   10276 59001
0115833390999991988050712004-14050-042617FM-12+088299999V0201401N00671045001CN0200001N9+01941+01721101721ADDAA106000091AG10999GF108991041051004501021999KA1240N+01701MA1999999091911MD1999999+0031REMSYN017333   20170 58003
0096833390999991988050718004-14050-042617FM-12+088299999V0201401N00511220001CN0200001N9+02681+01351101201ADDAA106000091AG10999GF104991021021004501001041MA1999999091491MD1999999-0051REMSYN011333   59005
0115833390999991988050800004-14050-042617FM-12+088299999V0201401N00101220001CN9999999N9+02151+01471101411ADDAA106000091AG10999GF102991021021004501001001KA1240M+02671MA1999999091641MD1999999-0121REMSYN017333   10267 59012
0115833390999991988050812004-14050-042617FM-12+088299999V0200901N00311220001CN0200001N9+02231+01671101491ADDAA106000091AG10999GF100991001001999999001001KA1240N+01721MA1999999091741MD1999999-0171REMSYN017333   20172 59017
0096833390999991988050818004-14050-042617FM-12+088299999V0201801N00211004201CN0200001N9+02781+00961101061ADDAA106000091AG10999GF106991051021004501001041MA1999999091371MD1999999-0121REMSYN011333   59012
0115833390999991988050900004-14050-042617FM-12+088299999V0201801N00101220001CN9999999N9+02201+01171101241ADDAA106000091AG10999GF100991001001999999001001KA1240M+02891MA1999999091511MD1999999-0131REMSYN017333   10289 59013
0115833390999991988050912004-14050-042617FM-12+088299999V0203601N00151045001CN0200001N9+02161+01611101341ADDAA106000091AG10999GF105991041021004501031001KA1240N+01661MA1999999091601MD1999999-0141REMSYN017333   20166 59014
0096833390999991988050918004-14050-042617FM-12+088299999V0201401N00311220001CN0200001N9+02871+01081100951ADDAA106000091AG10999GF103991031021008001001001MA1999999091281MD1999999-0091REMSYN011333   59009
0115833390999991988051000004-14050-042617FM-12+088299999V0202701N00051220001CN9999999N9+02361+01261101221ADDAA106000091AG10999GF100991001001999999001001KA1240M+02921MA1999999091491MD1999999-0021REMSYN017333   10292 59002
0115833390999991988051012004-14050-042617FM-12+088299999V0201401N00311220001CN0200001N9+02281+01731101281ADDAA106000091AG10999GF106991021021004501001041KA1240N+01781MA1999999091561MD1999999-0041REMSYN017333   20178 59004
0096833390999991988051018004-14050-042617FM-12+088299999V0200901N00261220001CN0200001N9+02841+01501100961ADDAA106000091AG10999GF106991041021004501001041MA1999999091291MD1999999+0011REMSYN011333   58001
0115833390999991988051100004-14050-042617FM-12+088299999V0202301N00101004201CN9999999N9+02421+01621101211ADDAA106000091AG10999GF106991061021004501001001KA1240M+02931MA1999999091511MD1999999+0021REMSYN017333   10293 58002
0137833390999991988051112004-14050-042617FM-12+088299999V0201401N00211004201CN0200001N9+02131+01951101531ADDAA106000091AG10999AY101061AY201061GF106991051021004501021001KA1240N+01941MA1999999091781MD1999999+0221MW1101REMSYN017333   20194 58022
0096833390999991988051118004-14050-042617FM-12+088299999V0201401N00261004201CN0200001N9+02691+01671101151ADDAA106000091AG10999GF105991051021004501001001MA1999999091451MD1999999-0161REMSYN011333   59016
0115833390999991988051200004-14050-042617FM-12+088299999V0202301N00151220001CN9999999N9+02221+01731101381ADDAA106000091AG10999GF100991001001999999001001KA1240M+02721MA1999999091631MD1999999+0121REMSYN017333   10272 58012
0115833390999991988051212004-14050-042617FM-12+088299999V0201401N00311004201CN0200001N9+02161+01861101691ADDAA106000091AG10999GF106991061021004501001001KA1240N+01921MA1999999091921MD1999999+0141REMSYN017333   20192 58014
0096833390999991988051218004-14050-042617FM-12+088299999V0201401N00261220001CN0200001N9+02661+01651101301ADDAA106000091AG10999GF104991041021004501001001MA1999999091601MD1999999+0151REMSYN011333   58015
0115833390999991988051300004-14050-042617FM-12+088299999V0201401N00461220001CN9999999N9+02361+01611101541ADDAA106000091AG10999GF100991001001999999001001KA1240M+02691MA1999999091791MD1999999+0161REMSYN017333   10269 58016
0137833390999991988051312004-14050-042617FM-12+088299999V0200901N00511004201CN0200001N9+02081+01781101751ADDAA106000091AG10999AY101061AY201061GF106991051021004501021001KA1240N+01801MA1999999091971MD1999999+0051MW1101REMSYN017333   20180 58005
0096833390999991988051318004-14050-042617FM-12+088299999V0200501N00361220001CN0200001N9+02641+01601101321ADDAA106000091AG10999GF104991031021004501001021MA1999999091601MD1999999+0001REMSYN011333   58000
0115833390999991988051400004-14050-042617FM-12+088299999V0200901N00621220001CN9999999N9+02291+01841101541ADDAA106000091AG10999GF102991011021004501031001KA1240M+02691MA1999999091781MD1999999-0011REMSYN017333   10269 59001
0115833390999991988051412004-14050-042617FM-12+088299999V0201401N00621220001CN0200001N9+02141+01741101641ADDAA106000091AG10999GF103991031021004501001001KA1240N+01841MA1999999091871MD1999999-0101REMSYN017333   20184 59010
0096833390999991988051418004-14050-042617FM-12+088299999V0200501N00261004201CN0200001N9+02801+01601101181ADDAA106000091AG10999GF106991061021004501001001MA1999999091491MD1999999-0151REMSYN011333   59015
0115833390999991988051500004-14050-042617FM-12+088299999V0201401N00101220001CN9999999N9+02331+01741101471ADDAA106000091AG10999GF102991021021004501001001KA1240M+02831MA1999999091731MD1999999-0051REMSYN017333   10283 59005
0137833390999991988051512004-14050-042617FM-12+088299999V0201401N00411004201CN0040001N9+02001+01901101781ADDAA106000091AG10999AY101061AY201061GF108991081051004501999999KA1240N+01791MA1999999091991MD1999999+0121MW1101REMSYN017333   20179 58012
0096833390999991988051518004-14050-042617FM-12+088299999V0209999999999220001CN0200001N9+02801+01241101401ADDAA106000091AG10999GF102991011021004501021001MA1999999091681MD1999999+0191REMSYN011333   58019
0115833390999991988051600004-14050-042617FM-12+088299999V0200901N00461220001CN9999999N9+02241+01691101621ADDAA106000091AG10999GF100991001001999999001001KA1240M+02831MA1999999091841MD1999999+0111REMSYN017333   10283 58011
0115833390999991988051612004-14050-042617FM-12+088299999V0200901N00571004201CN0200001N9+02121+01801101711ADDAA106000091AG10999GF105991051021004501001001KA1240N+01871MA1999999091941MD1999999-0051REMSYN017333   20187 59005
0096833390999991988051618004-14050-042617FM-12+088299999V0200901N00821045001CN0200001N9+02621+01991101401ADDAA106000091AG10999GF106991041021004501031001MA1999999091671MD1999999-0011REMSYN011333   59001
0115833390999991988051700004-14050-042617FM-12+088299999V0201401N00151220001CN9999999N9+02201+01651101721ADDAA106000091AG10999GF100991001001999999001001KA1240M+02691MA1999999091921MD1999999+0081REMSYN017333   10269 58008
0115833390999991988051712004-14050-042617FM-12+088299999V0201401N00361004201CN0200001N9+02201+01671101711ADDAA106000091AG10999GF106991051021004501001021KA1240N+01821MA1999999091941MD1999999+0001REMSYN017333   20182 58000
0096833390999991988051718004-14050-042617FM-12+088299999V0200901N00311220001CN0200001N9+02801+01531101311ADDAA106000091AG10999GF103991031021004501001001MA1999999091601MD1999999-0071REMSYN011333   59007
0115833390999991988051800004-14050-042617FM-12+088299999V0200901N00101220001CN9999999N9+02261+01471101481ADDAA106000091AG10999GF100991001001999999001001KA1240M+02841MA1999999091741MD1999999-0181REMSYN017333   10284 59018
0134833390999991988051812004-14050-042617FM-12+088299999V0200901N00261220001CN0200001N9+02261+01751101581ADDAA106000091AG10999GF102991999001008001031001KA1240N+01661MA1999999091831MD1999999-0111REMSYN017333   20166 59011EQDQ01+000002SCOTLC
0096833390999991988051818004-14050-042617FM-12+088299999V0201401N00461045001CN0200001N9+02741+01611101111ADDAA106000091AG10999GF106991021021004501031011MA1999999091401MD1999999-0201REMSYN011333   59020
0115833390999991988051900004-14050-042617FM-12+088299999V0202301N00101220001CN9999999N9+02281+01411101261ADDAA106000091AG10999GF100991001001999999001001KA1240M+02781MA1999999091541MD1999999-0201REMSYN017333   10278 59020
0115833390999991988051912004-14050-042617FM-12+088299999V0200901N00461220001CN0200001N9+02181+01561101551ADDAA106000091AG10999GF103991021021004501001021KA1240N+01561MA1999999091801MD1999999-0021REMSYN017333   20156 59002
0115833390999991988051918004-14050-042617FM-12+088299999V0200901N00671220001CN0200001N9+02751+01301101141ADDAA106000091AG10999GF103991999021004501001001MA1999999091421MD1999999+0021REMSYN011333   58002EQDQ01+000022SCOTLC
0115833390999991988052000004-14050-042617FM-12+088299999V0201401N00261220001CN9999999N9+02301+01351101371ADDAA106000091AG10999GF100991001001999999001001KA1240M+02771MA1999999091641MD1999999+0101REMSYN017333   10277 58010
0115833390999991988052012004-14050-042617FM-12+088299999V0201401N00621004201CN0200001N9+02021+01781101571ADDAA106000091AG10999GF106991061021004501001001KA1240N+01851MA1999999091801MD1999999+0001REMSYN017333   20185 58000
0096833390999991988052018004-14050-042617FM-12+088299999V0201401N00621004201CN0200001N9+02641+01601101121ADDAA106000091AG10999GF105991051021004501001001MA1999999091441MD1999999+0021REMSYN011333   58002
0115833390999991988052100004-14050-042617FM-12+088299999V0201401N00571220001CN9999999N9+02121+01781101451ADDAA106000091AG10999GF102991021021004501001001KA1240M+02671MA1999999091671MD1999999+0031REMSYN017333   10267 58003
0115833390999991988052112004-14050-042617FM-12+088299999V0200901N00671220001CN0200001N9+02161+01701101571ADDAA106000091AG10999GF102991021021004501001001KA1240N+01761MA1999999091801MD1999999+0001REMSYN017333   20176 58000
0096833390999991988052118004-14050-042617FM-12+088299999V0201401N00571220001CN0200001N9+02751+00971101121ADDAA106000091AG10999GF102991011021004501021001MA1999999091441MD1999999+0001REMSYN011333   58000
0115833390999991988052200004-14050-042617FM-12+088299999V0201401N00261220001CN9999999N9+02291+01301101381ADDAA106000091AG10999GF100991001001999999001001KA1240M+02801MA1999999091641MD1999999-0031REMSYN017333   10280 59003
0096833390999991988052218004-14050-042617FM-12+088299999V0201401N00621220001CN0200001N9+02841+01151101281ADDAA106000091AG10999GF100991001001999999001001MA1999999091571MD1999999+0121REMSYN011333   58012
0115833390999991988052300004-14050-042617FM-12+088299999V0201401N00411220001CN9999999N9+02301+01111101351ADDAA106000091AG10999GF100991001001999999001001KA1240M+02851MA1999999091611MD1999999-0031REMSYN017333   10285 59003
0115833390999991988052312004-14050-042617FM-12+088299999V0201401N00411220001CN0200001N9+02041+01541101561ADDAA106000091AG10999GF102991011021004501001041KA1240N+01631MA1999999091791MD1999999-0101REMSYN017333   20163 59010
0096833390999991988052318004-14050-042617FM-12+088299999V0201401N00361220001CN0200001N9+02771+00851101081ADDAA106000091AG10999GF102991011011004501001021MA1999999091381MD1999999-0191REMSYN011333   59019
0115833390999991988052400004-14050-042617FM-12+088299999V0201401N00101220001CN9999999N9+02221+01221101321ADDAA106000091AG10999GF100991001001999999001001KA1240M+02791MA1999999091571MD1999999-0041REMSYN017333   10279 59004
0115833390999991988052412004-14050-042617FM-12+088299999V0200501N00151220001CN0200001N9+02121+01481101381ADDAA106000091AG10999GF105991021021004501001041KA1240N+01541MA1999999091681MD1999999-0191REMSYN017333   20154 59019
0096833390999991988052418004-14050-042617FM-12+088299999V0201401N00151220001CN0200001N9+02941+01231100831ADDAA106000091AG10999GF104991021021004501001011MA1999999091171MD1999999-0211REMSYN011333   59021
0115833390999991988052500004-14050-042617FM-12+088299999V0202301N00151220001CN9999999N9+02281+01381101141ADDAA106000091AG10999GF100991001001999999001001KA1240M+03001MA1999999091421MD1999999-0151REMSYN017333   10300 59015
0115833390999991988052512004-14050-042617FM-12+088299999V0203601N00051220001CN0200001N9+02331+01631101321ADDAA106000091AG10999GF102991011011004501001021KA1240N+01731MA1999999091601MD1999999-0031REMSYN017333   20173 59003
0096833390999991988052518004-14050-042617FM-12+088299999V0201801N00151004201CN0200001N9+03081+01071100871ADDAA106000091AG10001GF106991051021004501021001MA1999999091241MD1999999+0071REMSYN011333   58007
0115833390999991988052600004-14050-042617FM-12+088299999V0202701N00151045001CN9999999N9+02391+01241101131ADDAA106000091AG10999GF105991041021004501021001KA1240M+03091MA1999999091441MD1999999+0021REMSYN017333   10309 58002
0115833390999991988052612004-14050-042617FM-12+088299999V0201401N00511220001CN0200001N9+02261+01881101461ADDAA106000091AG10999GF103991031021004501001001KA1240N+01831MA1999999091731MD1999999+0131REMSYN017333   20183 58013
0096833390999991988052618004-14050-042617FM-12+088299999V0200901N00571004201CN0200001N9+02741+01511101091ADDAA106000091AG10999GF105991051021004501001001MA1999999091441MD1999999+0161REMSYN011333   58016
0115833390999991988052700004-14050-042617FM-12+088299999V0201401N00671045001CN9999999N9+02401+01601101241ADDAA106000091AG10999GF106991041051004501021001KA1240M+02791MA1999999091541MD1999999+0101REMSYN017333   10279 58010
0137833390999991988052712004-14050-042617FM-12+088299999V0201401N00621004201CN0200001N9+02021+01721101601ADDAA106000091AG10999AY101061AY201061GF106991061021004501001001KA1240N+01831MA1999999091841MD1999999+0111MW1101REMSYN017333   20183 58011
0096833390999991988052718004-14050-042617FM-12+088299999V0200901N00571220001CN0200001N9+02561+01381101151ADDAA106000091AG10999GF102991021021004501001001MA1999999091441MD1999999+0041REMSYN011333   58004
0115833390999991988052800004-14050-042617FM-12+088299999V0201801N00151220001CN9999999N9+02171+01471101331ADDAA106000091AG10999GF100991001001999999001001KA1240M+02601MA1999999091571MD1999999+0031REMSYN017333   10260 58003
0115833390999991988052812004-14050-042617FM-12+088299999V0201401N00671004201CN0200001N9+01921+01841101521ADDAA106000091AG10999GF108991051051004501021999KA1240N+01821MA1999999091741MD1999999-0101REMSYN017333   20182 59010
0096833390999991988052818004-14050-042617FM-12+088299999V0201401N00721220001CN0200001N9+02421+01541101141ADDAA106000091AG10999GF102991021021004501001001MA1999999091421MD1999999-0021REMSYN011333   59002
0115833390999991988052900004-14050-042617FM-12+088299999V0209991C00001220001CN9999999N9+01981+01501101401ADDAA106000091AG10999GF102991021021004501001001KA1240M+02451MA1999999091601MD1999999+0061REMSYN017333   10245 58006
0137833390999991988052912004-14050-042617FM-12+088299999V0201401N00461220001CN0200001N9+02001+01701101481ADDAA106000091AG10999AY101061AY201061GF104991041021004501001001KA1240N+01681MA1999999091681MD1999999-0061MW1101REMSYN017333   20168 59006
0096833390999991988052918004-14050-042617FM-12+088299999V0201401N00151220001CN0200001N9+02801+01071100961ADDAA106000091AG10999GF102991011021004501001021MA1999999091281MD1999999-0141REMSYN011333   59014
0115833390999991988053000004-14050-042617FM-12+088299999V0201801N00261220001CN9999999N9+02361+01381101141ADDAA106000091AG10999GF100991001001999999001001KA1240M+02851MA1999999091421MD1999999-0181REMSYN017333   10285 59018
0134833390999991988053012004-14050-042617FM-12+088299999V0200501N00101220001CN0200001N9+02201+01651101491ADDAA106000091AG10999GF102991001001999999001011KA1240N+01621MA1999999091751MD1999999+0071REMSYN017333   20162 58007EQDQ01+000982SCOLCB
0096833390999991988053018004-14050-042617FM-12+088299999V0203201N00151045001CN0200001N9+02921+01131101051ADDAA106000091AG10999GF106991041021004501021001MA1999999091361MD1999999+0081REMSYN011333   58008
0115833390999991988053100004-14050-042617FM-12+088299999V0209991C00001105001CN9999999N9+02341+01331101251ADDAA106000091AG10999GF106991021021004501031041KA1240M+02991MA1999999091531MD1999999+0111REMSYN017333   10299 58011
0115833390999991988053112004-14050-042617FM-12+088299999V0202701N00361220001CN0200001N9+02561+01621101531ADDAA106000091AG10999GF102991011021004501001021KA1240N+01841MA1999999091821MD1999999+0071REMSYN017333   20184 58007
0096833390999991988053118004-14050-042617FM-12+088299999V0200701N00511220001CN0200001N9+99999+99999101131ADDAA106000091AG10999GF102991021021004501001001MA1999999091451MD1999999+0091REMSYN011333   58009
0115833390999991988060100004-14050-042617FM-12+088299999V0202701N00311220001CN9999999N9+02581+01301101331ADDAA106000091AG10999GF102991021021004501001001KA1240M+03121MA1999999091651MD1999999+0121REMSYN017333   10312 58012
0115833390999991988060112004-14050-042617FM-12+088299999V0201401N00411220001CN0200001N9+02421+01741101641ADDAA106000091AG10999GF100991001001999999001001KA1240N+01901MA1999999091931MD1999999+0111REMSYN017333   20190 58011
0115833390999991988060200004-14050-042617FM-12+088299999V0201401N00571004201CN9999999N9+99999+99999999999ADDAA106000091AG10999GF108991081021004501999999KA1240M+02911MA1999999091841MD1999999+0151REMSYN017333   10291 58015
0137833390999991988060212004-14050-042617FM-12+088299999V0201401N00511004201CN0040001N9+01831+01641101931ADDAA106000091AG10999AY101061AY201061GF108991081051004501999999KA1240N+01761MA1999999092111MD1999999+0181MW1101REMSYN017333   20176 58018
0096833390999991988060218004-14050-042617FM-12+088299999V0201401N00571004201CN0200001N9+02181+01521101641ADDAA106000091AG10999GF105991051021004501001001MA1999999091841MD1999999+0231REMSYN011333   58023
0115833390999991988060300004-14050-042617FM-12+088299999V0209999999999004201CN9999999N9+01931+01471101801ADDAA106000091AG10999GF106991061021004501001001KA1240M+02341MA1999999091951MD1999999+0111REMSYN017333   10234 58011
0115833390999991988060312004-14050-042617FM-12+088299999V0201401N00821004201CN0200001N9+01761+01491102001ADDAA106000091AG10999GF108991051051004501021999KA1240N+01631MA1999999092131MD1999999+0021REMSYN017333   20163 58002
0096833390999991988060318004-14050-042617FM-12+088299999V0201401N00771004201CN0200001N9+02161+01451101731ADDAA106000091AG10999GF106991061021004501001001MA1999999091911MD1999999+0071REMSYN011333   58007
0115833390999991988060400004-14050-042617FM-12+088299999V0201401N00671220001CN9999999N9+01981+01461101961ADDAA106000091AG10999GF102991021021004501001001KA1240M+02181MA1999999092091MD1999999+0141REMSYN017333   10218 58014
0115833390999991988060412004-14050-042617FM-12+088299999V0200901N00671220001CN0200001N9+02891+01511101901ADDAA106000091AG10999GF104991041021004501001001KA1240N+01591MA1999999092051MD1999999-0081REMSYN017333   20159 59008
0096833390999991988060418004-14050-042617FM-12+088299999V0200901N00511220001CN0200001N9+02681+00831101471ADDAA106000091AG10999GF100991001001999999001001MA1999999091731MD1999999-0181REMSYN011333   59018
0115833390999991988060500004-14050-042617FM-12+088299999V0200901N00051220001CN9999999N9+02161+01041101761ADDAA106000091AG10999GF100991001001999999001001KA1240M+02691MA1999999091941MD1999999-0151REMSYN017333   10269 59015
0115833390999991988060512004-14050-042617FM-12+088299999V0200501N00311220001CN0200001N9+02341+01571101861ADDAA106000091AG10999GF102991021021004501001001KA1240N+01641MA1999999092101MD1999999+0051REMSYN017333   20164 58005
0096833390999991988060518004-14050-042617FM-12+088299999V0201401N00511220001CN0200001N9+02801+01531101431ADDAA106000091AG10999GF103991031021004501001001MA1999999091701MD1999999-0031REMSYN011333   59003
0115833390999991988060600004-14050-042617FM-12+088299999V0201401N00411220001CN9999999N9+02361+01661101701ADDAA106000091AG10999GF100991001001999999001001KA1240M+02831MA1999999091951MD1999999+0011REMSYN017333   10283 58001
