0129821980999991994010112004-01717-045400FM-12+004499999V0200501N00261015001CN0100001N9+02711+02711101141ADDAA124009091AG10006AY161061AY211061GF108991061071017501061001MA1999999100631MD1999999+0001MW1031REMSYN022 333 20/// 58000 60094
0129821980999991994010312004-01717-045400FM-12+004499999V0200501N003119999999N0100001N9+02751+02481100881ADDAA124020091AG10006AY161061AY221061GF105991021999017501999999MA1999999100371MD1999999-0101MW1011REMSYN022 333 20/// 59010 60204
0107821980999991994010412004-01717-045400FM-12+004499999V0202701N00051015001CN0100001N9+02451+02281101101ADDAA124038091AG10000GF108991051051017501011001MA1999999100591MD1999999+0221REMSYN022 333 20/// 58022 60384
0117821980999991994010600004-01717-045400FM-12+004499999V0200501N00151220001CN0100001N9+02551+02471101001ADDAA106000091AG14000GA1001+999999999GF100991001001999999001001MA1999999100511MD1999999+0011REMSYN016 333 10/// 58001
0101821980999991994010612004-01717-045400FM-12+004499999V0200901N00261045001CN0100001N9+02881+02481101051ADDAA106000091AG14000GF106991021021017501041011MA1999999100541MD1999999+0001REMSYN016 333 20/// 58000
0129821980999991994010712004-01717-045400FM-12+004499999V0201401N00151045001CN0100001N9+02641+02331100941ADDAA124019091AG10006AY161061AY221061GF106991041021017501011001MA1999999100431MD1999999-0111MW1021REMSYN022 333 20/// 59011 60194
0129821980999991994011212004-01717-045400FM-12+004499999V0209991C00001045001CN0100001N9+02671+02501100931ADDAA124006091AG10006AY161061AY201061GF106991041021017501011001MA1999999100421MD1999999+0071MW1031REMSYN022 333 20/// 58007 60064
0093821980999991994011712004-01717-045400FM-12+004499999V0202701N00101045001CN0100001N9+02491+02381100971ADDAA124005091AG10000GF108991041021017501041011MA1999999100461REMSYN022 333 20/// 5900/ 60054
0145821980999991994011800004-01717-045400FM-12+004499999V0202701N00101220001CN0100001N9+02411+02351100701ADDAA106003091AG10006AY161061AY211061GA1001+999999999GF100991001001999999001001MA1999999100191MD1999999-0171MW1011REMSYN022 333 10/// 59017 60031
0107821980999991994011812004-01717-045400FM-12+004499999V0202301N00151105001CN0100001N9+02471+02361100891ADDAA124004091AG10000GF105991021021017501041011MA1999999100381MD1999999-0081REMSYN022 333 20/// 59008 60044
0107821980999991994011912004-01717-045400FM-12+004499999V0202701N00101220001CN0100001N9+02541+02361100941ADDAA124001091AG10000GF104991021021017501041001MA1999999100431MD1999999+0051REMSYN022 333 20/// 58005 60014
0101821980999991994012400004-01717-045400FM-12+004499999V0200501N00311015001CN0100001N9+02591+02441100921ADDAA106000091AG14000GF105991051021017501001001MA1999999100451MD1999999+0051REMSYN016 333 10/// 58005
0101821980999991994012412004-01717-045400FM-12+004499999V0200501N00311015001CN0100001N9+02871+02501101061ADDAA106000091AG14000GF105991051021017501001001MA1999999100551MD1999999-0011REMSYN016 333 20/// 59001
0107821980999991994012512004-01717-045400FM-12+004499999V0200501N00411015001CN0100001N9+02791+02481101041ADDAA124001091AG10000GF105991051021017501001001MA1999999100531MD1999999-0021REMSYN022 333 20/// 59002 60014
0101821980999991994012612004-01717-045400FM-12+004499999V0200901N00211045001CN0100001N9+02761+02481100951ADDAA106000091AG14000GF107991041021017501061001MA1999999100421MD1999999-0111REMSYN016 333 20/// 59011
0107821980999991994012812004-01717-045400FM-12+004499999V0200501N00361045001CN0100001N9+02781+02421100971ADDAA124004091AG10000GF106991031011017501011001MA1999999100461MD1999999+0091REMSYN022 333 20/// 58009 60044
0129821980999991994012912004-01717-045400FM-12+004499999V0203201N00101015001CN0100001N9+02321+02241101001ADDAA124017091AG10006AY161061AY221061GF108991061071017501061001MA1999999100491MD1999999+0031MW1031REMSYN022 333 20/// 58003 60174
0118821980999991994020212004-01717-045400FM-12+004499999V0200501N02211045001CN0100001N9+02841+02501101111ADDAA124000791AA299001091AG10000GF105991021021017501041001MA1999999100611MD1999999-0021REMSYN022 333 20/// 59002 69974
0101821980999991994020312004-01717-045400FM-12+004499999V0200501N00311220001CN0100001N9+02751+02421101091ADDAA106000091AG14000GF104991021011017501041001MA1999999100581MD1999999-0031REMSYN016 333 20/// 59003
0101821980999991994020400004-01717-045400FM-12+004499999V0209991C00151220001CN0100001N9+02541+02421101051ADDAA106000091AG14000GF104991041001017501061001MA1999999100541MD1999999+0021REMSYN016 333 10/// 58002
0107821980999991994020412004-01717-045400FM-12+004499999V0203601N00101015001CN0100001N9+02771+02461999999ADDAA124004091AG10000GF106991061021017501021001MA1999999100481MD1999999-0101REMSYN022 333 20/// 59010 60044
0101821980999991994020500004-01717-045400FM-12+004499999V0200501N00311220001CN0100001N9+02071+99999100781ADDAA106000091AG14000GF103991031021017501001001MA1999999100271MD1999999-0271REMSYN016 333 10/// 59027
0129821980999991994020512004-01717-045400FM-12+004499999V0203601N00311045001CN0100001N9+02711+02391100941ADDAA106000091AA224000491AA399000591AG10000GF106991031021017501031001MA1999999100431MD1999999-0051REMSYN022 333 20/// 59005 69944
0140821980999991994020712004-01717-045400FM-12+004499999V0201801N00101045001CN0100001N9+02431+02341101121ADDAA124000691AA299000591AG10001AY151061AY221061GF108991041071017501021001MA1999999100611MD1999999+0151MW1411REMSYN022 333 20/// 58015 69964
0129821980999991994020912004-01717-045400FM-12+004499999V0201801N00211045001CN0100001N9+02411+02311101121ADDAA124005091AG10006AY161061AY221061GF106991031021017501041011MA1999999100611MD1999999+0011MW1031REMSYN022 333 20/// 58001 60054
0107821980999991994021112004-01717-045400FM-12+004499999V0200501N00411045001CN0100001N9+02651+02371101151ADDAA124012091AG13000GF105991021021017501041001MA1999999100631MD1999999-0031REMSYN022 333 20/// 59003 60124
0107821980999991994021412004-01717-045400FM-12+004499999V0201801N00051045001CN0100001N9+01521+99999101011ADDAA199024091AG10000GF108991041021017501041011MA1999999100501MD1999999-0081REMSYN022 333 20/// 59008 60240
0148821980999991994021812004-01717-045400FM-12+004499999V0200901N002619999999N0100001N9+02501+02401101061ADDAA124014091AG10006AY161061AY221061GF107991999011017501011001MA1999999100551MD1999999-0081MW1031REMSYN022 333 20/// 59008 60144EQDQ01+000002SCOTLC
0114821980999991994021912004-01717-045400FM-12+004499999V0200501N00411045001CN0100001N9+02711+02411101001ADDAA124010091AG10006AY161061AY221061GF106991031011017501041011MD1999999-0051MW1031REMSYN022 333 20/// 59005 60104
0101821980999991994022000004-01717-045400FM-12+004499999V0200901N00211105001CN0100001N9+02551+02421100941ADDAA106000091AG14000GF105991021011017501031011MA1999999100431MD1999999-0041REMSYN016 333 10/// 59004
0101821980999991994022300004-01717-045400FM-12+004499999V0200501N00211220001CN0040001N9+02591+02401100861ADDAA106000091AG14000GF106991031001017501011011MA1999999100351MD1999999-0061REMSYN016 333 10/// 59006
0107821980999991994022312004-01717-045400FM-12+004499999V0200501N00101015001CN0100001N9+02891+02521100881ADDAA124003091AG10000GF106991061021017501001001MA1999999100371MD1999999-0081REMSYN022 333 20/// 59008 60034
0101821980999991994022412004-01717-045400FM-12+004499999V0200901N00261105001CN0100001N9+02881+02481100901ADDAA106000091AG14000GF105991021021017501041011MA1999999100391MD1999999+0021REMSYN016 333 20/// 58002
0101821980999991994022500004-01717-045400FM-12+004499999V0200901N00411105001CN0100001N9+02641+02411100871ADDAA106000091AG14000GF105991021021017501031011MA1999999100361MD1999999-0061REMSYN016 333 10/// 59006
0095821980999991994022512004-01717-045400FM-12+004499999V0200501N00361015001CN0100001N9+02921+02451100961ADDAA106000091AG14000GF106991061021017501001001MA1999999100451MD1999999+0061REMSYN010 333 58006
0129821980999991994022612004-01717-045400FM-12+004499999V0200501N00261045001CN0100001N9+02751+02441101051ADDAA124013091AG10006AY161061AY221061GF106991031021017501041001MA1999999100531MD1999999+0081MW1031REMSYN022 333 20/// 58008 60134
0129821980999991994022712004-01717-045400FM-12+004499999V0201401N00311045001CN0100001N9+02531+02421101141ADDAA124014091AG10006AY161061AY221061GF108991041051017501031001MA1999999100631MD1999999+0101MW1031REMSYN022 333 20/// 58010 60144
0129821980999991994030100004-01717-045400FM-12+004499999V0200901N00311015001CN0100001N9+02431+02411100961ADDAA106000191AG10006AY161061AY251061GF108991051051017501061001MA1999999100441MD1999999-0091MW1021REMSYN022 333 10/// 59009 69911
0129821980999991994030112004-01717-045400FM-12+004499999V0201401N00151045001CN0100001N9+02741+02471101081ADDAA124004091AG10001AY151061AY221061GF106991031021017501041011MA1999999100561MD1999999-0181MW1011REMSYN022 333 20/// 59018 60044
0101821980999991994030212004-01717-045400FM-12+004499999V0200901N00261045001CN0100001N9+02821+02521101081ADDAA106000091AG14000GF106991031021017501061001MA1999999100571MD1999999+0011REMSYN016 333 20/// 58001
0123821980999991994030218004-01717-045400FM-12+004499999V0200501N00511045001CN0100001N9+02841+02611100821ADDAA106003091AG10006AY161061AY221061GF106991041021017501061001MA1999999100311MD1999999-0011MW1021REMSYN016 333 59001 60031
0101821980999991994030300004-01717-045400FM-12+004499999V0200501N00311015001CN0100001N9+02621+02481100971ADDAA106000091AG14000GF105991051011017501001001MA1999999100461MD1999999-0011REMSYN016 333 10/// 59001
0095821980999991994030318004-01717-045400FM-12+004499999V0200501N00571045001CN0100001N9+02921+02521100771ADDAA106000091AG14000GF106991031021017501061001MA1999999100261MD1999999-0051REMSYN010 333 59005
0101821980999991994030400004-01717-045400FM-12+004499999V0200501N00461015001CN0100001N9+02681+02431100991ADDAA106000091AG14000GF105991051001017501061001MA1999999100481MD1999999+0021REMSYN016 333 10/// 58002
0129821980999991994030412004-01717-045400FM-12+004499999V0209991C00001045001CN0100001N9+02591+02441101121ADDAA124001091AG10006AY161061AY251061GF108991041021017501011011MA1999999100601MD1999999-0011MW1031REMSYN022 333 20/// 59001 60014
0123821980999991994030418004-01717-045400FM-12+004499999V0200501N00311015001CN0100001N9+02411+02311100821ADDAA106005091AG10006AY161061AY251061GF108991051051017501041001MA1999999100311MD1999999+0051MW1021REMSYN016 333 58005 60051
0129821980999991994030512004-01717-045400FM-12+004499999V0201401N00151015001CN0100001N9+02321+02271101141ADDAA124040091AG10006AY161061AY261061GF108991081001017501021011MA1999999100621MD1999999+0021MW1031REMSYN022 333 20/// 58002 60404
0129821980999991994030600004-01717-045400FM-12+004499999V0202701N00101045001CN0100001N9+02401+02261101101ADDAA106006091AG10006AY161061AY221061GF106991031021017501061001MA1999999100581MD1999999+0101MW1011REMSYN022 333 10/// 58010 60061
0107821980999991994030712004-01717-045400FM-12+004499999V0202701N00051045001CN0100001N9+02411+02311101061ADDAA124004091AG10000GF107991041021017501011011MA1999999100541MD1999999-0131REMSYN022 333 20/// 59013 60044
0095821980999991994030718004-01717-045400FM-12+004499999V0200501N00461045001CN0100001N9+02731+02431100751ADDAA106000091AG14000GF106991031021017501061001MA1999999100241MD1999999-0041REMSYN010 333 59004
0101821980999991994030800004-01717-045400FM-12+004499999V0200501N00311045001CN0100001N9+02541+02381100931ADDAA106000091AG14000GF108991041021017501061001MA1999999100421MD1999999-0201REMSYN016 333 10/// 59020
0101821980999991994030812004-01717-045400FM-12+004499999V0201401N00361015001CN0100001N9+02521+02381101141ADDAA106000091AG14000GF108991061021017501011001MA1999999100621MD1999999+0001REMSYN016 333 20/// 58000
0123821980999991994030818004-01717-045400FM-12+004499999V0200501N00211015001CN0100001N9+02801+02521100781ADDAA106007091AG10006AY161061AY221061GF108991051021017501061001MA1999999100271MD1999999+0031MW1021REMSYN016 333 58003 60071
0129821980999991994030912004-01717-045400FM-12+004499999V0200501N00311220001CN0100001N9+02741+02471101101ADDAA124017091AG10006AY161061AY221061GF106991041001017501031011MA1999999100581MD1999999-0041MW1021REMSYN022 333 29/// 59004 60174
0095821980999991994030918004-01717-045400FM-12+004499999V0200501N00671045001CN0100001N9+02781+02441100741ADDAA106000091AG14000GF108991041021017501061001MA1999999100231MD1999999-0041REMSYN010 333 59004
0101821980999991994031000004-01717-045400FM-12+004499999V0200501N002619999999N0100001N9+02511+02341101041ADDAA106000091AG14000GF105991051001002501061001MA1999999100531MD1999999+0081REMSYN016 333 10/// 58008
0101821980999991994031012004-01717-045400FM-12+004499999V0200901N00261015001CN0100001N9+02551+02461101181ADDAA106000091AG14000GF108991051021017501061001MA1999999100661MD1999999+0081REMSYN016 333 20/// 58008
0134821980999991994031018004-01717-045400FM-12+004499999V0200501N00211045001CN0100001N9+02561+02461100921ADDAA106006091AG10006AY101061GF108991031021017501041001MA1999999100411MD1999999+0181MW1021REMSYN016 333 58018 60061EQDQ01+000072PSTWM1
0129821980999991994031100004-01717-045400FM-12+004499999V0203201N00151220001CN0100001N9+02511+02411101051ADDAA106020091AG10006AY161061AY221061GF102991021011017501001001MA1999999100531MD1999999+0001MW1011REMSYN022 333 10/// 58000 60201
0107821980999991994031112004-01717-045400FM-12+004499999V0200501N00411220001CN0100001N9+02821+02461101201ADDAA124026091AG10000GF102991021021017501001001MA1999999100681MD1999999+0021REMSYN022 333 20/// 58002 60264
0123821980999991994031118004-01717-045400FM-12+004499999V0203601N00411015001CN0100001N9+02461+02421100781ADDAA106055091AG10006AY161061AY221061GF108991051021017501041001MA1999999100261MD1999999-0151MW1021REMSYN016 333 59015 60551
0107821980999991994031212004-01717-045400FM-12+004499999V0200501N00151105001CN0100001N9+02671+02461101091ADDAA124056091AG10000GF105991021021017501041011MA1999999100571MD1999999-0111REMSYN022 333 20/// 59011 60564
0129821980999991994031412004-01717-045400FM-12+004499999V0202301N00151105001CN0100001N9+02601+02331101081ADDAA124021091AG10006AY161061AY221061GF105991021021017501041011MA1999999100561MD1999999-0031MW1011REMSYN022 333 20/// 59003 60214
0142821980999991994031418004-01717-045400FM-12+004499999V0200501N00311015001CN0100001N9+02371+02331100821ADDAA106028091AG10006AY161061AY251061GF108991999021017501001001MA1999999100311MD1999999-0101MW1021REMSYN016 333 59010 60281EQDQ01+000052SCOTLC
0138821980999991994031500004-01717-045400FM-12+004499999V0203001N002119999999N0100001N9+02411+02331100951ADDAA106000591AG10006AY161061AY221061MA1999999100431MD1999999+0211MW1011REMSYN022 333 10/// 58021 69951EQDQ01-069591APOSP Q02+999990APOSP 
0129821980999991994031512004-01717-045400FM-12+004499999V0202301N00101045001CN0100001N9+02571+02421101061ADDAA124029091AG10001AY151061AY211061GF107991031021017501041041MA1999999100541MD1999999-0021MW1031REMSYN022 333 20/// 59002 60294
0123821980999991994031518004-01717-045400FM-12+004499999V0200501N00311015001CN0100001N9+02601+02531100721ADDAA106006091AG10006AY161061AY291061GF108991061051017501041001MA1999999100201MD1999999-0111MW1521REMSYN016 333 59011 60061
0129821980999991994031612004-01717-045400FM-12+004499999V0201401N00261045001CN0100001N9+02471+02291101051ADDAA124055091AG10006AY161061AY221061GF107991041021017501041011MA1999999100531MD1999999-0011MW1021REMSYN022 333 20/// 59001 60554
0123821980999991994031618004-01717-045400FM-12+004499999V0200501N00101045001CN0100001N9+02581+02491100691ADDAA106007091AG10006AY161061AY291061GF108991031051017501041001MA1999999100171MD1999999-0031MW1021REMSYN016 333 59003 60071
0129821980999991994031712004-01717-045400FM-12+004499999V0201401N00361015001CN0100001N9+02471+02341101081ADDAA112010091AG10006AY161061AY221061GF108991051071017501011001MA1999999100561MD1999999+0031MW1021REMSYN022 333 20/// 58003 60102
0123821980999991994031718004-01717-045400FM-12+004499999V0200501N00211015001CN0100001N9+02661+02521100781ADDAA106006091AG10006AY161061AY221061GF108991051041017501061001MA1999999100271MD1999999+0101MW1021REMSYN016 333 58010 60061
0108821980999991994031812004-01717-045400FM-12+004499999V0200501N00361045001CN0100001N9+02701+02371101101ADDAA124010091AG10000GF106991031021017501041011MA1999999100581MD1999999+0021REMSYN023 333 20/// 58002 60104;
0095821980999991994031918004-01717-045400FM-12+004499999V0200501N00571045001CN0100001N9+02901+02521100671ADDAA106000091AG14000GF105991041021017501061001MA1999999100161MD1999999-0121REMSYN010 333 59012
0129821980999991994032012004-01717-045400FM-12+004499999V0200901N00211015001CN0005001N9+02311+02251101221ADDAA124088091AG10006AY161061AY261061GF108991081001017501021011MA1999999100701MD1999999+0241MW1911REMSYN022 333 20/// 58024 60884
0129821980999991994032112004-01717-045400FM-12+004499999V0202301N00051045001CN0100001N9+02601+02331101091ADDAA124018091AG10006AY161061AY221061GF106991031021017501041011MA1999999100571MD1999999-0131MW1021REMSYN022 333 20/// 59013 60184
0123821980999991994032118004-01717-045400FM-12+004499999V0200501N00621045001CN0100001N9+02571+02461100761ADDAA106002091AG10006AY161061AY221061GF108991041051017501041001MA1999999100251MD1999999-0131MW1021REMSYN016 333 59013 60021
0129821980999991994032212004-01717-045400FM-12+004499999V0200501N00211045001CN0100001N9+02601+02461101051ADDAA124016091AG10006AY161061AY221061GF107991031051017501061001MA1999999100531MD1999999+0041MW1011REMSYN022 333 20/// 58004 60164
0095821980999991994032218004-01717-045400FM-12+004499999V0202301N00101045001CN0100001N9+03001+02601100581ADDAA106000091AG14000GF105991031021017501061001MA1999999100071MD1999999-0181REMSYN010 333 59018
0149821980999991994032220004-01717-045400FM-12+004499999V0202301N00101045001CN0100001N9+03001+02601100581ADDAA106000091AG14999GF105991031021017501061001MA1999999100071MD1999999-0181REMSYN064 22204 82198 32797 52302 10300 20260 30007 40058 83260 333 59018
0101821980999991994032312004-01717-045400FM-12+004499999V0203201N00101045001CN0100001N9+02681+02371100991ADDAA106000091AG14000GF106991031021017501041011MA1999999100471MD1999999-0061REMSYN016 333 20/// 59006
0121821980999991994032512004-01717-045400FM-12+004499999V0209991C00001045001CN0100001N9+02531+02401101191ADDAA124010091AG13000AY121061GF108991041071017501061001MA1999999100671MD1999999+0071MW1031REMSYN022 333 20/// 58007 60104
0129821980999991994032612004-01717-045400FM-12+004499999V0201401N00151015001CN0100001N9+02351+02261101301ADDAA124077091AG10006AY161061AY261061GF108991081001017501021011MA1999999100781MD1999999+0001MW1021REMSYN022 333 20/// 58000 60774
0123821980999991994032918004-01717-045400FM-12+004499999V0200501N00311045001CN0100001N9+02801+02541100781ADDAA106003091AG10006AY161061AY221061GF108991041021017501061001MA1999999100271MD1999999+0061MW1021REMSYN016 333 58006 60031
0107821980999991994033012004-01717-045400FM-12+004499999V0200501N00151015001CN0100001N9+02631+02421101151ADDAA124004091AG10000GF106991061021017501001001MA1999999100631MD1999999+0061REMSYN022 333 20/// 58006 60044
0130821980999991994040218004-01717-045400FM-12+004499999V0200501N00511045001CN0100001N9+02931+02391100911ADDAA106000091AG14000GF106991031021017501061001MA1999999100401MD1999999-0011REMSYN010 333 59001EQDQ01-069591APOSP Q02+999990APOSP 
0095821980999991994040418004-01717-045400FM-12+004499999V0200501N00571045001CN0100001N9+03001+02491100531ADDAA106000091AG14000GF106991041021017501061001MA1999999100021MD1999999-0321REMSYN010 333 59032
0147821980999991994040515004-01717-045400FM-12+004499999V0203301N00721007501CN0070001N9+03041+02381101021ADDAG11000AY121031AY221031GA1031+005409089GF106991051021008001031001MA1999999100511MD1999999-0071MW1151REMSYN016 333 59007 83818EQDQ01+999990APOSP 
0101821980999991994040518004-01717-045400FM-12+004499999V0200501N00211220001CN0100001N9+02791+02461100951ADDAA106000091AG14000GF104991021021017501041001MA1999999100431MD1999999-0071REMSYN016 333 20/// 59007
0118821980999991994040812004-01717-045400FM-12+004499999V0200901N00261105001CN0100001N9+02741+02321101001ADDAA124000991AA299001091AG10000GF105991021021017501081011MA1999999100491MD1999999-0031REMSYN022 333 20/// 59003 69994
0095821980999991994040818004-01717-045400FM-12+004499999V0200501N00511220001CN0100001N9+03081+02561100541ADDAA106000091AG14000GF102991021021017501001001MA1999999100031MD1999999-0181REMSYN010 333 59018
0095821980999991994040912004-01717-045400FM-12+004499999V0201401N00051015001CN0100001N9+02681+02501100991ADDAA106000091AG14000GF105991051021017501001001MA1999999100471MD1999999-0021REMSYN010 333 59002
0123821980999991994041118004-01717-045400FM-12+004499999V0203601N00211015001CN0100001N9+02741+02501100721ADDAA124018091AG10006AY161061AY291061GF108991051021017501041001MA1999999100211MD1999999-0121MW1021REMSYN016 333 59012 60184
0129821980999991994041200004-01717-045400FM-12+004499999V0203201N00151045001CN0100001N9+02331+02221101011ADDAA106030091AG10006AY161061AY221061GF108991031021017501061001MA1999999100491MD1999999-0111MW1131REMSYN022 333 10/// 59011 60301
0129821980999991994041212004-01717-045400FM-12+004499999V0200501N00101105001CN0100001N9+02631+02421101151ADDAA124048091AG13000AY121061AY251061GF106991021021017501041061MA1999999100631MD1999999+0081MW1021REMSYN022 333 20/// 58008 60484
0123821980999991994041218004-01717-045400FM-12+004499999V0200501N00461015001CN0100001N9+03021+02531100751ADDAA106001091AG10006AY161061AY221061GF105991051021017501001001MA1999999100241MD1999999-0031MW1021REMSYN016 333 59003 60011
0124821980999991994041418004-01717-045400FM-12+004499999V0200901N00101045001CN0100001N9+02601+02511100841ADDAA106031091AG10006AY161061AY221061GF108991041051017501041001MA1999999100331MD1999999+0101MW1021REMSYN017 333 58010 60311;
0096821980999991994041518004-01717-045400FM-12+004499999V0200501N00211045001CN0100001N9+03081+02561100871ADDAA106000091AG10000GF106991041021017501061001MA1999999100361MD1999999+0031REMSYN011 333 58003;
0102821980999991994041800004-01717-045400FM-12+004499999V0200201N00361220001CN0100001N9+02481+02431100981ADDAA106000091AG10000GF104991041011017501001001MA1999999100461MD1999999-0061REMSYN017 333 10/// 59006;
0070821980999991994041812004-01717-045400FM-12+004499999V0203601N002619999999N0100001N9+02411+02301101191ADDAG10000GF108991999021017501021021MA1999999100671EQDQ01+000092SCOTLC
0108821980999991994042000004-01717-045400FM-12+004499999V0200901N00151015001CN0100001N9+02711+02411100981ADDAA124003091AG10000GF105991051021017501001001MA1999999100461MD1999999-0181REMSYN023 333 10/// 59018 60034;
0130821980999991994042112004-01717-045400FM-12+004499999V0201401N00311015001CN0100001N9+02541+02401101071ADDAA124017091AG10001AY151061AY221061GF106991061021017501001001MA1999999100551MD1999999+0091MW1031REMSYN023 333 20/// 58009 60174;
0124821980999991994042118004-01717-045400FM-12+004499999V0200501N00101015001CN0100001N9+02481+02431100751ADDAA106025091AG10006AY161061AY291061GF108991051051017501041001MA1999999100231MD1999999+0151MW1021REMSYN017 333 58015 60251;
0124821980999991994042218004-01717-045400FM-12+004499999V0201401N00261045001CN0100001N9+02621+02461100761ADDAA106011091AG10006AY161061AY291061GF108991031051017501041001MA1999999100251MD1999999+0021MW1021REMSYN017 333 58002 60111;
0130821980999991994042412004-01717-045400FM-12+004499999V0200501N00101015001CN0100001N9+02461+02341101181ADDAA124006091AG10006AY161061AY221061GF108991051071017501021001MA1999999100661MD1999999+0001MW1031REMSYN023 333 20/// 58000 60064;
0108821980999991994042512004-01717-045400FM-12+004499999V0200501N00261045001CN0100001N9+99999+99999101121ADDAA124013091AG10000GF106991021021017501011001MA1999999100601MD1999999-0061REMSYN023 333 20/// 59006 60134;
0096821980999991994042518004-01717-045400FM-12+004499999V0200501N00361015001CN0100001N9+03141+02571100801ADDAA106000091AG10000GF105991051021017501001001MA1999999100291MD1999999-0061REMSYN011 333 59006;
0102821980999991994042612004-01717-045400FM-12+004499999V0200901N00311045001CN0100001N9+02751+02421101001ADDAA106000091AG10000GF106991031061017501081021MA1999999100481MD1999999-0121REMSYN017 333 20/// 59012;
0124821980999991994042618004-01717-045400FM-12+004499999V0200501N00411045001CN0100001N9+02721+02521100651ADDAA106001091AG10001AY151061AY221061GF106991031051017501041001MA1999999100141MD1999999-0291MW1021REMSYN017 333 59029 69981;
0096821980999991994042718004-01717-045400FM-12+004499999V0200501N00101015001CN0100001N9+02541+02421100871ADDAA106000091AG10000GF108991051051017501081001MA1999999100361MD1999999+0221REMSYN011 333 58022;
0102821980999991994042800004-01717-045400FM-12+004499999V0203201N00211220001CN0100001N9+02471+02361101191ADDAA106000091AG10000GF104991021011017501031001MA1999999100671MD1999999+0021REMSYN017 333 10/// 58002;
0102821980999991994042812004-01717-045400FM-12+004499999V0202401N00101220001CN0100001N9+02651+02441101101ADDAA106000091AG10000GF103991031021017501001001MA1999999100591MD1999999+0041REMSYN017 333 20/// 58004;
0124821980999991994042818004-01717-045400FM-12+004499999V0203201N00261045001CN0100001N9+02381+02281100821ADDAA106048091AG10006AY161061AY291061GF106991031021017501041001MA1999999100311MD1999999-0051MW1021REMSYN017 333 59005 60481;
0091821980999991994042912004-01717-045400FM-12+004499999V0200901N00151045001CN0100001N9+02841+02521101191ADDAG10000GF105991031021017501041011MA1999999100681MD1999999+0091REMSYN017 333 20/// 58009;
0130821980999991994043012004-01717-045400FM-12+004499999V0209991C00001045001CN0100001N9+02511+02361101081ADDAA124040091AG10006AY161061AY221061GF106991031021017501061001MA1999999100661MD1999999-0061MW1031REMSYN023 333 20/// 59006 60404;
0130821980999991994050100004-01717-045400FM-12+004499999V0203601N00051045001CN0100001N9+02491+02411101141ADDAA106030091AG10005AY161061AY221061GF107991031051017501061001MA1999999100621MD1999999-0011MW1021REMSYN023 333 10/// 59001 60301;
0124821980999991994050118004-01717-045400FM-12+004499999V0200501N00101015001CN0100001N9+02431+02321101041ADDAA106006091AG10005AY161061AY221061GF108991051021017501061001MA1999999100521MD1999999+0141MW1021REMSYN017 333 58014 60061;
0130821980999991994050212004-01717-045400FM-12+004499999V0201401N00261015001CN0100001N9+02581+02271101341ADDAA124007091AG10005AY161061AY221061GF107991051071017501061001MA1999999100821MD1999999+0091MW1021REMSYN023 333 20/// 58009 60074;
0108821980999991994050312004-01717-045400FM-12+004499999V0209991C00001045001CN0100001N9+02441+02321101221ADDAA124008091AG10000GF107991031051017501011011MA1999999100701MD1999999-0121REMSYN023 333 20/// 59012 60084;
0096821980999991994050418004-01717-045400FM-12+004499999V0200501N00261045001CN0100001N1+02941+02601100761ADDAA106000091AG10000GF106991041021017501061001MA1999999100251MD1999999-0061REMSYN011 333 59006;
0124821980999991994050518004-01717-045400FM-12+004499999V0200901N00461045001CN0100001N1+02821+02501100831ADDAA106000591AG10001AY151061AY221061GF108991041051017501041001MA1999999100321MD1999999+0071MW1021REMSYN017 333 58007 69951;
0108821980999991994050612004-01717-045400FM-12+004499999V0200901N00101105001CN0100001N1+02801+02361101081ADDAA124005091AG10000GF105991021021017501041011MA1999999100561MD1999999-0161REMSYN023 333 20/// 59016 60054;
0130821980999991994050912004-01717-045400FM-12+004499999V0209991C00001015001CN0100001N1+02401+02301101131ADDAA124019091AG10005AY161061AY221061GF108991051051017501041011MA1999999100811MD1999999-0151MW1031REMSYN023 333 20/// 59015 60194;
0130821980999991994051112004-01717-045400FM-12+004499999V0209991C00001220001CN0100001N1+02681+02431101271ADDAA124037091AG10005AY161061AY221061GF104991041021017501001001MA1999999100751MD1999999-0071MW1021REMSYN023 333 20/// 59007 60374;
0096821980999991994051118004-01717-045400FM-12+004499999V0200901N00361045001CN0100001N1+03161+02591100891ADDAA106000091AG10000GF105991031021017501061001MA1999999100381MD1999999+0071REMSYN011 333 58007;
0102821980999991994051200004-01717-045400FM-12+004499999V0203201N00151220001CN0100001N1+02591+02351101121ADDAA106000091AG10000GF103991031011017501001001MA1999999100601MD1999999-0021REMSYN017 333 10/// 59002;
0130821980999991994051212004-01717-045400FM-12+004499999V0203201N00051045001CN0100001N1+02491+02291101201ADDAA124001091AG10005AY161061AY221061GF106991041021017501061001MA1999999100681MD1999999-0071MW1031REMSYN023 333 20/// 59007 60014;
0130821980999991994051312004-01717-045400FM-12+004499999V0203201N00101220001CN0100001N1+02541+02361101181ADDAA124014091AG10005AY161061AY221061GF104991041021017501001001MA1999999100661MD1999999-0021MW1011REMSYN023 333 20/// 59002 60144;
0110821980999991994051412004-01717-045400FM-12+004499999V0200901N00151045001CN0100001N1+02381+02241101141ADDAA124020091AG10005AY161061AY221061GF108991041051017501011011MA1999999100621MW1581REMSYN017 333 20/// 60204;
0124821980999991994051418004-01717-045400FM-12+004499999V0200501N00511045001CN0100001N1+02631+02481100771ADDAA106019091AG10005AY161061AY221061GF108991041021017501061001MA1999999100261MD1999999-0071MW1021REMSYN017 333 59007 60191;
0130821980999991994051612004-01717-045400FM-12+004499999V0209991C00001015001CN0100001N1+02321+02181101171ADDAA124010091AG10005AY161061AY221061GF108991051051017501021001MA1999999100651MD1999999+0071MW1031REMSYN023 333 20/// 58007 60104;
0130821980999991994051712004-01717-045400FM-12+004499999V0202701N00051220001CN0100001N1+02601+02461101211ADDAA124024091AG10005AY161061AY221061GF104991041021017501001001MA1999999100691MD1999999+0041MW1031REMSYN023 333 20/// 58004 60244;
0124821980999991994051718004-01717-045400FM-12+004499999V0203601N00261045001CN0100001N1+02681+02541100821ADDAA106015091AG10005AY161061AY291061GF108991041021017501041001MA1999999100311MD1999999-0051MW1021REMSYN017 333 59005 60151;
0108821980999991994051812004-01717-045400FM-12+004499999V0201401N00151105001CN0100001N1+02631+02501101151ADDAA124015091AG10000GF106991021051017501041061MA1999999100631MD1999999-0061REMSYN023 333 20/// 59006 60154;
0096821980999991994051818004-01717-045400FM-12+004499999V0203601N00151045001CN0100001N1+02741+02561100821ADDAA106000091AG10000GF108991031021017501061001MA1999999100311MD1999999+0001REMSYN011 333 58000;
0102821980999991994051912004-01717-045400FM-12+004499999V0200501N00411045001CN0100001N1+02941+02431101171ADDAA106000091AG10000GF108991031021017501061001MA1999999100651MD1999999+0021REMSYN017 333 20/// 58002;
0124821980999991994051918004-01717-045400FM-12+004499999V0201801N00101045001CN0100001N1+02571+02491100871ADDAA106024091AG10005AY161061AY291061GF108991041021017501041001MA1999999100361MD1999999+0051MW1021REMSYN017 333 58005 60241;
0130821980999991994052112004-01717-045400FM-12+004499999V0200901N00261220001CN0200001N1+02591+02441101121ADDAA124011091AG10005AY161061AY221061GF104991021021017501041011MA1999999100641MD1999999-0011MW1021REMSYN023 333 20/// 59001 60114;
0130821980999991994052312004-01717-045400FM-12+004499999V0200901N00311045001CN0100001N1+02621+02421101241ADDAA124001091AG10005AY161061AY221061GF106991031021017501041041MA1999999100721MD1999999+0011MW1031REMSYN023 333 20/// 58001 60014;
0096821980999991994052318004-01717-045400FM-12+004499999V0200901N00461045001CN0100001N1+03171+02561100871ADDAA106000091AG10000GF106991041021017501061001MA1999999100361MD1999999+0011REMSYN011 333 58001;
0096821980999991994052400004-01717-045400FM-12+004499999V0200901N00211220001CN0100001N1+02581+02491101121ADDAA106000091AG10000GF103991021011017501031999MA1999999100601MD1999999-0021REMSYN011 333 59002;
0102821980999991994052412004-01717-045400FM-12+004499999V0200901N00461015001CN0100001N1+02831+02521101201ADDAA106000091AG10000GF105991051021017501001001MA1999999100681MD1999999-0041REMSYN017 333 20/// 59004;
0108821980999991994052512004-01717-045400FM-12+004499999V0200901N00361015001CN0100001N1+02831+02521101071ADDAA124006091AG10000GF105991051021017501001001MA1999999100551MD1999999-0131REMSYN023 333 20/// 59013 60064;
0096821980999991994052518004-01717-045400FM-12+004499999V0200901N00511220001CN0100001N1+03121+02531100791ADDAA106000091AG10000GF104991041021017501001001MA1999999100281MD1999999-0021REMSYN011 333 59002;
0096821980999991994052618004-01717-045400FM-12+004499999V0200901N00511015001CN0100001N1+03191+02541100831ADDAA106000091AG10000GF105991051021017501001001MA1999999100321MD1999999-0041REMSYN011 333 59004;
0124821980999991994052718004-01717-045400FM-12+004499999V0203601N00101015001CN0100001N1+02681+02481100861ADDAA106016091AG10005AY161061AY221061GF108991051051017501041001MA1999999100351MD1999999+0031MW1021REMSYN017 333 58003 60161;
0096821980999991994053018004-01717-045400FM-12+004499999V0201401N00101045001CN0100001N1+02861+02561100941ADDAA106000091AG10000GF108991041021017501041001MA1999999100431MD1999999+0021REMSYN011 333 58002;
0130821980999991994053112004-01717-045400FM-12+004499999V0200501N00211045001CN0100001N1+02571+02301101231ADDAA124002091AG10005AY161061AY221061GF106991041021017501061001MA1999999100711MD1999999+0031MW1031REMSYN023 333 20/// 58003 60024;
0124821980999991994053118004-01717-045400FM-12+004499999V0200501N00261045001CN0100001N1+02621+02421100971ADDAA106001091AG10005AY161061AY221061GF108991041021017501041001MA1999999100461MD1999999+0031MW1021REMSYN017 333 58003 60011;
0108821980999991994060112004-01717-045400FM-12+004499999V0200901N00411045001CN0100001N1+02831+02401101251ADDAA124001091AG10000GF106991031021017501041041MA1999999100731MD1999999+0021REMSYN023 333 20/// 58002 60014;
0124821980999991994060118004-01717-045400FM-12+004499999V0209991C00001045001CN0100001N1+02441+02391101131ADDAA106053091AG10005AY161061AY221061GF108991031051017501041001MA1999999100611MD1999999+0151MW1021REMSYN017 333 58015 60531;
0118821980999991994060300004-01717-045400FM-12+004499999V0200501N00211220001CN0100001N1+02461+02361101131ADDAA106000091AG10000GA1001+999999999GF100991001001999999001001MA1999999100611MD1999999+0281REMSYN017 333 10/// 58028;
0108821980999991994060312004-01717-045400FM-12+004499999V0200501N00311045001CN0100001N1+02821+02461101171ADDAA199003091AG10000GF105991031021017501041011MA1999999100651MD1999999+0001REMSYN023 333 20/// 58000 60030;
0130821980999991994060412004-01717-045400FM-12+004499999V0200501N00311045001CN0100001N1+02851+02421101291ADDAA124008091AG10005AY161061AY211061GF107991031021017501041041MA1999999100771MD1999999+0121MW1031REMSYN023 333 20/// 58012 60084;
0124821980999991994060718004-01717-045400FM-12+004499999V0202701N00101045001CN0100001N1+02581+02491101121ADDAA106005091AG10005AY161061AY221061GF108991041051017501041001MA1999999100601MD1999999+0151MW1021REMSYN017 333 58015 60051;
0108821980999991994060812004-01717-045400FM-12+004499999V0200901N00261015001CN0100001N1+02831+02401101371ADDAA124008091AG10000GF105991051021017501001001MA1999999100851MD1999999+0041REMSYN023 333 20/// 58004 60084;
0118821980999991994060900004-01717-045400FM-12+004499999V0200901N00411220001CN0100001N1+02601+02441101401ADDAA106000091AG10000GA1001+999999999GF100991001001999999001001MA1999999100881MD1999999+0071REMSYN017 333 10/// 58007;
0108821980999991994061012004-01717-045400FM-12+004499999V0200901N00311015001CN0100001N1+02831+02401101351ADDAA124034091AG10000GF106991061021017501001001MA1999999100831MD1999999-0041REMSYN023 333 20/// 59004 60344;
0096821980999991994061118004-01717-045400FM-12+004499999V0200901N00461045001CN0100001N1+02911+02541100921ADDAA106000091AG10000GF105991031021017501061001MA1999999100411MD1999999+0011REMSYN011 333 58001;
0102821980999991994061300004-01717-045400FM-12+004499999V0200501N00211220001CN0100001N1+02561+02471101021ADDAA106000091AG10000GF104991041021017501001001MA1999999100501MD1999999+0101REMSYN017 333 10/// 58010;
0108821980999991994061312004-01717-045400FM-12+004499999V0200501N00211045001CN0100001N1+02751+02521101121ADDAA124006091AG10000GF106991031021017501041011MA1999999100631MD1999999-0041REMSYN023 333 20/// 59004 60064;
0096821980999991994061518004-01717-045400FM-12+004499999V0200901N00411220001CN0100001N1+03121+02411101031ADDAA106000091AG10000GF103991031021017501001001MA1999999100521MD1999999+0051REMSYN011 333 58005;
0124821980999991994061618004-01717-045400FM-12+004499999V0200901N00151045001CN0100001N1+02691+02541101041ADDAA106018091AG10005AY161061AY291061GF108991041021017501041001MA1999999100531MD1999999+0011MW1021REMSYN017 333 58001 60181;
0108821980999991994062312004-01717-045400FM-12+004499999V0201401N00101105001CN0100001N1+02571+02421101181ADDAA124019091AG10000GF105991021021017501041011MA1999999100661MD1999999+0031REMSYN023 333 20/// 58003 60194;
0096821980999991994062418004-01717-045400FM-12+004499999V0200501N00411220001CN0100001N1+03041+02381100841ADDAA106000091AG10000GF103991031021017501001001MA1999999100321MD1999999-0031REMSYN011 333 59003;
0102821980999991994062712004-01717-045400FM-12+004499999V0200501N00151220001CN0100001N1+02611+02401101181ADDAA106000091AG10000GF103991021021017501041011MA1999999100661MD1999999-0031REMSYN017 333 20/// 59003;
0096821980999991994062718004-01717-045400FM-12+004499999V0200501N00411220001CN0100001N1+02931+02521100991ADDAA106000091AG10000GF103991031011017501001001MA1999999100481MD1999999+0071REMSYN011 333 58007;
0101821980999991994062812004-01717-045400FM-12+004499999V0200501N00311220001CN0100001N9+02811+02401101211ADDAA106000091AG14000GF103991011011017501041011MA1999999100691MD1999999+0031REMSYN016 333 20/// 58003
0096821980999991994062818004-01717-045400FM-12+004499999V0200501N00511220001CN0100001N1+03001+02421101021ADDAA106000091AG10000GF103991031011017501001001MA1999999100511MD1999999+0031REMSYN011 333 58003;
0124821980999991994062918004-01717-045400FM-12+004499999V0200501N00361015001CN0100001N1+02911+02481100941ADDAA106003091AG10005AY161061AY221061GF105991051021017501001001MA1999999100431MD1999999-0081MW1031REMSYN017 333 59008 60031;
0082821980999991994070100004-01717-045400FM-12+004499999V0209999999999045001CN0100001N1+02401+99999101191ADDAA106000091AG10000GF106991031021017501061001MA1999999100661REMSYN011 333 15///;
0096821980999991994070118004-01717-045400FM-12+004499999V0201401N00461220001CN0100001N1+03101+02361100791ADDAA106000091AG10000GF103991031011017501001001MA1999999100281MD1999999-0191REMSYN011 333 59019;
0124821980999991994070218004-01717-045400FM-12+004499999V0201401N00311045001CN0100001N1+02811+02401100951ADDAA106006091AG10005AY161061AY221061GF105991021021017501061001MA1999999100431MD1999999+0151MW1021REMSYN017 333 58015 60061;
0096821980999991994070418004-01717-045400FM-12+004499999V0200901N00311015001CN0100001N1+02931+02521100891ADDAA106000091AG10000GF105991051021017501001001MA1999999100371MD1999999-0081REMSYN011 333 59008;
0124821980999991994070518004-01717-045400FM-12+004499999V0203201N00101045001CN0100001N1+02821+02271100821ADDAA106000591AG10005AY161061AY211061GF106991031021017501061001MA1999999100301MD1999999-0071MW1031REMSYN017 333 59007 69941;
0124821980999991994070618004-01717-045400FM-12+004499999V0203201N00151045001CN0100001N1+02531+99999100801ADDAA106007091AG10005AY161061AY211061GF106991021031017501061001MA1999999100281MD1999999-0021MW1031REMSYN017 333 59002 60071;
0124821980999991994070718004-01717-045400FM-12+004499999V0201401N00261015001CN0100001N1+02431+02301100971ADDAA106001091AG10005AY161061AY221061GF106991061021017501001001MA1999999100451MD1999999+0171MW1021REMSYN017 333 58017 60011;
0130821980999991994070812004-01717-045400FM-12+004499999V0200501N00261045001CN0100001N1+02321+02171101401ADDAA124066091AG10005AY161061AY261061GF108991041071017501021011MA1999999100881MD1999999+0281MW1911REMSYN023 333 20/// 58028 60664;
0096821980999991994070818004-01717-045400FM-12+004499999V0200501N00261045001CN0100001N1+02891+02521101121ADDAA106000091AG10000GF106991031021017501061001MA1999999100601MD1999999+0151REMSYN011 333 58015;
0096821980999991994070918004-01717-045400FM-12+004499999V0200501N00411220001CN0100001N1+02821+02441101171ADDAA106000091AG10000GF104991041021017501001001MA1999999100651MD1999999+0051REMSYN011 333 58005;
0115821980999991994071018004-01717-045400FM-12+004499999V0200501N00211220001CN0100001N1+03001+02491101241ADDAA106000091AG10000GF103991999021017501001001MA1999999100721MD1999999+0071REMSYN011 333 58007;EQDQ01+000052SCOTLC
0124821980999991994071118004-01717-045400FM-12+004499999V0200901N00261045001CN0100001N1+02861+02481101251ADDAA106001091AG10001AY151061AY221061GF108991041021017501041001MA1999999100741MD1999999+0021MW1021REMSYN017 333 58002 69981;
0108821980999991994071212004-01717-045400FM-12+004499999V0200901N00151015001CN0100001N1+01721+99999101461ADDAA124001091AG10000GF106991061021017501001001MA1999999100941MD1999999-0061REMSYN023 333 20/// 59006 69984;
0096821980999991994071218004-01717-045400FM-12+004499999V0200901N00361220001CN0100001N1+02941+02191101171ADDAA106000091AG10000GF104991021021017501061001MA1999999100661MD1999999-0081REMSYN011 333 59008;
0102821980999991994071312004-01717-045400FM-12+004499999V0200901N00211045001CN0100001N1+02501+02291101341ADDAA106000091AG10000GF106991031021017501031001MA1999999100821MD1999999-0041REMSYN017 333 10/// 59004;
0102821980999991994071512004-01717-045400FM-12+004499999V0200501N00311220001CN0100001N1+02691+02411101361ADDAA106000091AG10000GF104991021021017501041001MA1999999100841MD1999999-0051REMSYN017 333 20/// 59005;
0096821980999991994071518004-01717-045400FM-12+004499999V0200901N00051220001CN0100001N1+02891+02501101041ADDAA106000091AG10000GF103991031021017501001001MA1999999100531MD1999999-0021REMSYN011 333 59002;
0130821980999991994071812004-01717-045400FM-12+004499999V0200501N00311045001CN0100001N1+02311+02231101321ADDAA124002091AG10005AY161061AY221061GF107991041051017501061001MA1999999100801MD1999999+0011MW1021REMSYN023 333 20/// 58001 60024;
0124821980999991994071818004-01717-045400FM-12+004499999V0200901N00361045001CN0100001N1+02671+02521101041ADDAA106004091AG10005AY161061AY221061GF106991031021017501061001MA1999999100531MD1999999+0001MW1021REMSYN017 333 58000 60041;
0102821980999991994071900004-01717-045400FM-12+004499999V0200501N00211015001CN0100001N1+02481+02381101271ADDAA106000091AG10000GF105991051021017501001001MA1999999100751MD1999999+0091REMSYN017 333 10/// 58009;
0108821980999991994071912004-01717-045400FM-12+004499999V0200501N00311220001CN0100001N1+02721+02371101271ADDAA124004091AG10000GF103991021011017501001041MA1999999100751MD1999999-0051REMSYN023 333 20/// 59005 60044;
0102821980999991994072012004-01717-045400FM-12+004499999V0200501N00511220001CN0100001N1+02781+02361101271ADDAA106000091AG10000GF103991021021017501001011MA1999999100751MD1999999+0001REMSYN017 333 20/// 58000;
0102821980999991994072112004-01717-045400FM-12+004499999V0200901N00461015001CN0100001N1+02721+02391101201ADDAA106000091AG10000GF105991051021017501001001MA1999999100681MD1999999-0071REMSYN017 333 20/// 59007;
0124821980999991994072118004-01717-045400FM-12+004499999V0200901N00361045001CN0100001N1+02661+02481100841ADDAA106004091AG10005AY161061AY221061GF106991041021017501061001MA1999999100331MD1999999-0091MW1021REMSYN017 333 59009 60041;
0096821980999991994072218004-01717-045400FM-12+004499999V0200901N00511045001CN0100001N1+03021+02441100101ADDAA106000091AG10000GF106991041021017501061001MA1999999100521MD1999999+0191REMSYN011 333 58019;
0096821980999991994072418004-01717-045400FM-12+004499999V0200901N00461220001CN0100001N1+03101+02491100961ADDAA106000091AG10000GF104991041021017501001001MA1999999100451MD1999999-0131REMSYN011 333 59013;
0102821980999991994072512004-01717-045400FM-12+004499999V0209999999999015001CN0100001N1+02761+02421101211ADDAA106000091AG10000GF105991051021017501001001MA1999999100691MD1999999-0061REMSYN017 333 20/// 59006;
0096821980999991994072518004-01717-045400FM-12+004499999V0200901N00621015001CN0100001N1+03031+02531100871ADDAA106000091AG10000GF106991061021017501001001MA1999999100361MD1999999-0091REMSYN011 333 59009;
0102821980999991994072612004-01717-045400FM-12+004499999V0200501N00511015001CN0100001N1+02711+02421101211ADDAA106000091AG10000GF106991061021017501001001MA1999999100691MD1999999+0001REMSYN017 333 20/// 58000;
0096821980999991994072618004-01717-045400FM-12+004499999V0200901N00461220001CN0100001N1+03121+02461100921ADDAA106000091AG10000GF104991041021017501001001MA1999999100411MD1999999+0051REMSYN011 333 58005;
0115821980999991994072712004-01717-045400FM-12+004499999V0200901N00571220001CN0200001N1+02701+02371101341ADDAA106000091AG10000GF104991021041004501001011KA1240N+02321MA1999999101281MD1999999+0101REMSYN017 333 20232 58010;
0102821980999991994072912004-01717-045400FM-12+004499999V0200901N00361015001CN0100001N1+02721+02451101251ADDAA106000091AG10000GF105991051021017501001001MA1999999100731MD1999999+0001REMSYN017 333 20/// 58000;
0096821980999991994072918004-01717-045400FM-12+004499999V0200901N00511220001CN0100001N1+03081+02491100951ADDAA106000091AG10000GF104991041021017501001001MA1999999100441MD1999999-0111REMSYN011 333 59011;
0102821980999991994073012004-01717-045400FM-12+004499999V0200501N00461220001CN0100001N1+02781+02501101281ADDAA106000091AG10000GF104991041021017501001001MA1999999100761MD1999999+0031REMSYN017 333 20/// 58003;
0130821980999991994080412004-01717-045400FM-12+004499999V0200501N00361015001CN0100001N1+02771+02441101351ADDAA124000191AG10005AY161061AY201061GF105991051021017501001001MA1999999100831MD1999999+0021MW1031REMSYN023 333 20/// 58002 69924;
0102821980999991994080612004-01717-045400FM-12+004499999V0200501N00311045001CN0100001N1+02791+02441101311ADDAA106000091AG10000GF106991031021017501061001MA1999999100791MD1999999-0041REMSYN017 333 20/// 59004;
0118821980999991994080700004-01717-045400FM-12+004499999V0200501N00211220001CN0100001N1+02551+02441101191ADDAA106000091AG10000GA1001+999999999GF100991001001999999001001MA1999999100671MD1999999-0011REMSYN017 333 10/// 59001;
0082821980999991994080818004-01717-045400FM-12+004499999V0200901N00461015001CN0100001N1+03041+02501100961ADDAA106000091AG10000GF105991051021017501001001MA1999999100451REMSYN011 333 58/14;
0102821980999991994080912004-01717-045400FM-12+004499999V0200501N00461015001CN0100001N1+02721+02431101211ADDAA106000091AG10000GF105991051021017501001001MA1999999100691MD1999999+0041REMSYN017 333 20/// 58004;
0096821980999991994080918004-01717-045400FM-12+004499999V0200901N00671015001CN0100001N1+03101+02491101001ADDAA106000091AG10000GF106991061021017501001001MA1999999100491MD1999999+0041REMSYN011 333 58004;
0096821980999991994081018004-01717-045400FM-12+004499999V0200501N00511015001CN0100001N1+03021+02411101021ADDAA106000091AG10000GF105991051021017501001001MA1999999100511MD1999999+0021REMSYN011 333 58002;
0096821980999991994081118004-01717-045400FM-12+004499999V0200501N00511220001CN0100001N1+03061+02521100971ADDAA106000091AG10000GF104991041021017501001001MA1999999100461MD1999999-0051REMSYN011 333 59005;
0096821980999991994081218004-01717-045400FM-12+004499999V0200501N00411015001CN0100001N1+03071+02581100931ADDAA106000091AG10000GF105991051021017501001001MA1999999100421MD1999999-0041REMSYN011 333 59004;
0102821980999991994081312004-01717-045400FM-12+004499999V0200501N00311045001CN0100001N1+02681+02411101251ADDAA106000091AG10000GF107991031021017501061001MA1999999100731MD1999999+0031REMSYN017 333 20/// 58003;
0102821980999991994081512004-01717-045400FM-12+004499999V0200501N00311015001CN0100001N1+02741+02401101241ADDAA106000091AG10000GF105991051021017501001001MA1999999100721MD1999999+0021REMSYN017 333 20/// 58002;
0096821980999991994081618004-01717-045400FM-12+004499999V0200501N00261015001CN0100001N1+02981+02611100811ADDAA106000091AG10000GF106991061021017501001001MA1999999100301MD1999999-0101REMSYN011 333 59010;
0096821980999991994081718004-01717-045400FM-12+004499999V0200901N00311015001CN0100001N1+03021+02551100881ADDAA106000091AG10000GF105991051021017501001001MA1999999100371MD1999999+0071REMSYN011 333 58007;
0102821980999991994081812004-01717-045400FM-12+004499999V0200501N00461045001CN0100001N1+02771+02441101291ADDAA106000091AG10000GF106991031021017501031001MA1999999100771MD1999999+0021REMSYN017 333 20/// 58002;
0096821980999991994081818004-01717-045400FM-12+004499999V0200501N005710150019N0100001N1+03061+02631100991ADDAA106000091AG10000GF105991051031017501001001MA1999999100461MD1999999+0091REMSYN011 333 58009;
0102821980999991994081912004-01717-045400FM-12+004499999V0200501N00671220001CN0100001N1+02721+02451101291ADDAA106000091AG10000GF104991041021017501001001MA1999999100771MD1999999+0001REMSYN017 333 20/// 58000;
0096821980999991994081918004-01717-045400FM-12+004499999V0200901N00821220001CN0100001N1+03021+02411100961ADDAA106000091AG10000GF103991031021017501001001MA1999999100451MD1999999-0011REMSYN011 333 59001;
0124821980999991994082218004-01717-045400FM-12+004499999V0200901N00311015001CN0100001N1+02801+02501100861ADDAA106006091AG10005AY161061AY221061GF105991051021017501001001MA1999999100351MD1999999+0031MW1021REMSYN017 333 58003 60061;
0108821980999991994082312004-01717-045400FM-12+004499999V0200501N00101045001CN0100001N1+02761+02361101251ADDAA124006091AG10000GF107991041021017501061001MA1999999100731MD1999999+0181REMSYN023 333 20/// 58018 60064;
0096821980999991994082318004-01717-045400FM-12+004499999V0200501N00511220001CN0100001N1+03101+02441100971ADDAA106000091AG10000GF102991021021017501001001MA1999999100461MD1999999+0111REMSYN011 333 58011;
0102821980999991994082412004-01717-045400FM-12+004499999V0200501N00311015001CN0100001N1+02721+02431101261ADDAA106000091AG10000GF106991061021017501001001MA1999999100741MD1999999+0011REMSYN017 333 20/// 58001;
0102821980999991994082512004-01717-045400FM-12+004499999V0200501N00461015001CN0100001N1+02691+02411101231ADDAA106000091AG10000GF106991061021017501001001MA1999999100711MD1999999-0031REMSYN017 333 20/// 59003;
0102821980999991994082612004-01717-045400FM-12+004499999V0200501N00511220001CN0100001N1+02821+02521101251ADDAA106000091AG10000GF104991041021017501001001MA1999999100731MD1999999+0021REMSYN017 333 20/// 58002;
0047821980999991994082618004-01717-045400FM-12+004499999V0200501N00411220001CN0100001N1+02991+02471999999ADDAA106000091AG10000GF103991999999017501999999
0102821980999991994082712004-01717-045400FM-12+004499999V0200501N00411220001CN0100001N1+02731+02451101221ADDAA106000091AG10000GF104991041021017501001001MA1999999100701MD1999999-0031REMSYN017 333 20/// 59003;
0118821980999991994083000004-01717-045400FM-12+004499999V0200501N00411220001CN0100001N1+02551+02391101141ADDAA106000091AG10000GA1001+999999999GF100991001001999999001001MA1999999100621MD1999999-0081REMSYN017 333 10/// 59008;
0096821980999991994083018004-01717-045400FM-12+004499999V0201401N00671220001CN0100001N1+03041+02541100951ADDAA106000091AG10000GF103991031021017501001001MA1999999100431MD1999999+0051REMSYN011 333 58005;
0102821980999991994083100004-01717-045400FM-12+004499999V0200501N00411015001CN0100001N1+02771+02421101081ADDAA106000091AG10000GF105991051021017501001001MA1999999100561MD1999999-0141REMSYN017 333 20/// 59014;
0130821980999991994083112004-01717-045400FM-12+004499999V0200501N00411015001CN0100001N1+02771+02421101081ADDAA106000091AG10000GA1021+013809029GF105991051021017501001001MA1999999100561MD1999999-0141REMSYN029 333 20/// 59014 82246 84730;
0096821980999991994083118004-01717-045400FM-12+004499999V0200501N00411015001CN0100001N1+02991+02461100921ADDAA106000091AG10000GF105991051021017501001001MA1999999100441MD1999999-0031REMSYN011 333 59003;
0118821980999991994090100004-01717-045400FM-12+004499999V0200501N00361220001CN0100001N1+02541+02401101171ADDAA106000091AG10000GA1001+999999999GF100991001001999999001001MA1999999100651MD1999999+0151REMSYN017 333 10/// 58015;
0102821980999991994090112004-01717-045400FM-12+004499999V0200501N00511015001CN0100001N1+02751+02481101251ADDAA106000091AG10000GF105991051021017501001001MA1999999100731MD1999999+0171REMSYN017 333 20/// 58017;
0096821980999991994090118004-01717-045400FM-12+004499999V0200901N00671220001CN0100001N1+03121+02581100941ADDAA106000091AG10000GF102991021021017501001001MA1999999100431MD1999999+0031REMSYN011 333 58003;
0121821980999991994090212004-01717-045400FM-12+004499999V0200901N00461220001CN0100001N1+02831+02381101271ADDAA106000091AG10000GF104991999021017501001001MA1999999100751MD1999999+0021REMSYN017 333 20/// 58002;EQDQ01+000052SCOTLC
0096821980999991994090218004-01717-045400FM-12+004499999V0200901N00511220001CN0100001N1+03091+02561101021ADDAA106000091AG10000GF104991041021017501001001MA1999999100511MD1999999+0081REMSYN011 333 58008;
0102821980999991994090512004-01717-045400FM-12+004499999V0200501N00511015001CN0100001N1+02801+02381101341ADDAA106000091AG10000GF105991051021017501001001MA1999999100821MD1999999-0041REMSYN017 333 20/// 59004;
0102821980999991994090612004-01717-045400FM-12+004499999V0200501N00411015001CN0200001N1+02801+02441101311ADDAA106000091AG10000GF105991051021017501001001MA1999999100791MD1999999-0031REMSYN017 333 20/// 59003;
0096821980999991994090618004-01717-045400FM-12+004499999V0200501N00511015001CN0100001N1+03041+02521100921ADDAA106000091AG10000GF106991061021017501001001MA1999999100411MD1999999-0141REMSYN011 333 59014;
0102821980999991994090812004-01717-045400FM-12+004499999V0200501N00461015001CN0100001N1+02821+02421101181ADDAA106000091AG10000GF106991061011017501001001MA1999999100661MD1999999-0011REMSYN017 333 20/// 59001;
0096821980999991994090818004-01717-045400FM-12+004499999V0200501N00671220001CN0100001N1+03041+02551100881ADDAA106000091AG10000GF103991031021017501001001MA1999999100371MD1999999-0061REMSYN011 333 59006;
0096821980999991994090918004-01717-045400FM-12+004499999V0200501N00461220001CN0100001N1+03141+02501100961ADDAA106000091AG10000GF103991031021017501001001MA1999999100451MD1999999+0081REMSYN011 333 58008;
0102821980999991994091012004-01717-045400FM-12+004499999V0200501N00311015001CN0100001N1+02871+02411101281ADDAA106000091AG10000GF105991051021017501001001MA1999999100761MD1999999-0011REMSYN017 333 20/// 59001;
0102821980999991994091112004-01717-045400FM-12+004499999V0200901N00411045001CN0100001N1+02761+02461101211ADDAA106000091AG10000GF106991031021017501061001MA1999999100691MD1999999-0071REMSYN017 333 20/// 59007;
0102821980999991994091312004-01717-045400FM-12+004499999V0200501N00721045001CN0100001N1+02791+02381101291ADDAA106000091AG10000GF105991021021017501061001MA1999999100771MD1999999+0071REMSYN017 333 20/// 58007;
0096821980999991994091318004-01717-045400FM-12+004499999V0200901N00721015001CN0100001N1+03021+02411100941ADDAA106000091AG10000GF105991051021017501001001MA1999999100431MD1999999+0131REMSYN011 333 58013;
0102821980999991994091412004-01717-045400FM-12+004499999V0200501N00571045001CN0100001N1+02801+02441101221ADDAA106000091AG10000GF106991031021017501031001MA1999999100701MD1999999-0071REMSYN017 333 20/// 59007;
0096821980999991994091418004-01717-045400FM-12+004499999V0200901N00571220001CN0100001N1+03091+02441100951ADDAA106000091AG10000GF103991031021017501001001MA1999999100441MD1999999+0011REMSYN011 333 58001;
0102821980999991994091500004-01717-045400FM-12+004499999V0200501N00261045001CN0100001N1+02591+02391101051ADDAA106000091AG10000GF105991031011017501031001MA1999999100531MD1999999-0101REMSYN017 333 10/// 59010;
0102821980999991994091512004-01717-045400FM-12+004499999V0200501N00311015001CN0100001N1+02781+02361101211ADDAA106000091AG10000GF105991051021017501001001MA1999999100691MD1999999-0011REMSYN017 333 20/// 59001;
0096821980999991994091518004-01717-045400FM-12+004499999V0200901N00101015001CN0100001N1+03151+02321100861ADDAA106000091AG10000GF105991051021017501001001MA1999999100351MD1999999-0091REMSYN011 333 59009;
0115821980999991994091618004-01717-045400FM-12+004499999V0200901N003110075019N0200001N1+03201+02351101061ADDAA106000091AG10000GF105991051021008001001001MA1999999100551MD1999999+0061REMSYN011 333 58006;EQDQ01+999990APOSP 
0102821980999991994091700004-01717-045400FM-12+004499999V0200901N00101220001CN0100001N1+02561+02401101051ADDAA106000091AG10000GF104991021011017501031001MA1999999100531MD1999999+0001REMSYN017 333 10/// 58000;
0102821980999991994091712004-01717-045400FM-12+004499999V0200501N00511220001CN0100001N1+02771+02361101281ADDAA106000091AG10000GF104991041021017501001001MA1999999100761MD1999999+0061REMSYN017 333 20/// 58006;
0096821980999991994091918004-01717-045400FM-12+004499999V0200901N00511015001CN0100001N1+03061+02501100871ADDAA106000091AG10000GF105991051021017501001001MA1999999100361MD1999999-0091REMSYN011 333 59009;
0102821980999991994092012004-01717-045400FM-12+004499999V0200501N00361015001CN0100001N1+02791+02381101201ADDAA106000091AG10000GF105991051021017501001001MA1999999100681MD1999999+0021REMSYN017 333 20/// 58002;
0096821980999991994092018004-01717-045400FM-12+004499999V0200901N00511220001CN0100001N1+03241+02521100891ADDAA106000091AG10000GF104991041021017501001001MA1999999100381MD1999999+0021REMSYN011 333 58002;
0118821980999991994092100004-01717-045400FM-12+004499999V0200501N00261220001CN0100001N1+02571+02381100981ADDAA106000091AG10000GA1001+999999999GF100991001001999999001001MA1999999100461MD1999999-0061REMSYN017 333 10/// 59006;
0102821980999991994092112004-01717-045400FM-12+004499999V0200501N003110150019N0100001N1+02781+02441101101ADDAA106000091AG10000GF105991051021017501001001MA1999999100581MD1999999-0101REMSYN017 333 20/// 59010;
0096821980999991994092118004-01717-045400FM-12+004499999V0200901N00511220001CN0100001N1+03201+02461100721ADDAA106000091AG10000GF103991031021017501001001MA1999999100211MD1999999-0171REMSYN011 333 59017;
0096821980999991994092218004-01717-045400FM-12+004499999V0200501N00571220001CN0100001N1+03161+02501100701ADDAA106000091AG10000GF102991021021017501001001MA1999999100191MD1999999-0021REMSYN011 333 59002;
0102821980999991994092412004-01717-045400FM-12+004499999V0200901N00571045001CN0100001N1+02811+02381101101ADDAA106000091AG10000GF106991031021017501041011MA1999999100581MD1999999+0111REMSYN017 333 29/// 58011;
0096821980999991994092418004-01717-045400FM-12+004499999V0209991C00001220001CN0100001N1+02941+02431100811ADDAA106000091AG10000GF106991041021017501001011MA1999999100301MD1999999+0041REMSYN011 333 58004;
0102821980999991994092512004-01717-045400FM-12+004499999V0209991C00001015001CN0100001N1+02711+02371101081ADDAA106000091AG10000GF107991051021017501061001MA1999999100561MD1999999-0021REMSYN017 333 20/// 59002;
0096821980999991994092518004-01717-045400FM-12+004499999V0209991C00001015001CN0100001N1+03061+02451100721ADDAA106000091AG10000GF105991051021017501001001MA1999999100211MD1999999-0091REMSYN011 333 59009;
0096821980999991994092618004-01717-045400FM-12+004499999V0209991C00001220001CN0100001N1+03161+02451100951ADDAA106000091AG10000GF103991031021017501001001MA1999999100441MD1999999+0231REMSYN011 333 58023;
0102821980999991994092712004-01717-045400FM-12+004499999V0209999999999045001CN0100001N1+02721+02461101211ADDAA106000091AG10000GF105991041021017501011001MA1999999100691MD1999999+0061REMSYN017 333 20/// 58006;
0121821980999991994092812004-01717-045400FM-12+004499999V0209999999999015001CN0100001N1+02831+02351101101ADDAA106000091AG10000GF105991051021017501001001MA1999999100591MD1999999-0111REMSYN017 333 20/// 59011;EQDQ01+999990APOSP 
0096821980999991994092918004-01717-045400FM-12+004499999V0209991C00001015001CN0100001N1+02901+02341100771ADDAA106000091AG10000GF108991061021017501061001MA1999999100361MD1999999-0151REMSYN011 333 59015;
0118821980999991994100100004-01717-045400FM-12+004499999V0209999999999220001CN0100001N1+02571+02371100961ADDAA106000091AG10000GA1001+999999999GF100991001001999999001001MA1999999100441MD1999999-0051REMSYN017 333 10/// 59005;
0102821980999991994100112004-01717-045400FM-12+004499999V0209999999999015001CN0100001N1+02711+02431101131ADDAA106000091AG10000GF106991061021017501001001MA1999999100611MD1999999+0031REMSYN017 333 20/// 58003;
0096821980999991994100518004-01717-045400FM-12+004499999V0209991C00001015001CN0100001N1+02881+02541100721ADDAA106000091AG10000GF106991061021017501001001MA1999999100211MD1999999+0031REMSYN011 333 58003;
0096821980999991994100618004-01717-045400FM-12+004499999V0209991C00001015001CN0100001N1+03101+02461100731ADDAA106000091AG10000GF105991051021017501001001MA1999999100221MD1999999+0011REMSYN011 333 58001;
0096821980999991994100718004-01717-045400FM-12+004499999V0209991C00001015001CN0100001N1+03081+02471100661ADDAA106000091AG10000GF106991061021017501001001MA1999999100141MD1999999-0081REMSYN011 333 59008;
0102821980999991994100812004-01717-045400FM-12+004499999V0209999999999007501CN0500001N1+02931+02581100951ADDAA106000091AG10000GF105991051021008001001001MA1999999100431MD1999999+0031REMSYN017 333 20/// 58003;
0096821980999991994101318004-01717-045400FM-12+004499999V0209991C00001220001CN0100001N1+03221+02371100841ADDAA106000091AG10000GF104991031021017501061001MA1999999100351MD1999999-0031REMSYN011 333 59003;
0102821980999991994101412004-01717-045400FM-12+004499999V0209999999999220001CN0100001N1+02921+02481101141ADDAA106000091AG10000GF103991031011017501001001MA1999999100621MD1999999+0051REMSYN017 333 202// 58005;
0124821980999991994101418004-01717-045400FM-12+004499999V0209991C00001045001CN0100001N1+02921+02541100871ADDAA106001091AG10006AY161061AY221061GF108991041021017501061001MA1999999100361MD1999999+0031MW1021REMSYN017 333 58003 60011;
0102821980999991994101712004-01717-045400FM-12+004499999V0200501N00511220001CN0100001N1+02871+02391101121ADDAA106000091AG10000GF106991041021017501001011MA1999999100601MD1999999-0011REMSYN017 333 20/// 59001;
0124821980999991994101718004-01717-045400FM-12+004499999V0200501N00211045001CN0100001N1+02661+02521100841ADDAA106005091AG10006AY161061AY221061GF108991041021017501061001MA1999999100331MD1999999+0011MW1021REMSYN017 333 58001 60051;
0096821980999991994101818004-01717-045400FM-12+004499999V0200901N00461015001CN0100001N1+03321+02441100781ADDAA106000091AG10000GF106991061021017501001001MA1999999100271MD1999999-0061REMSYN011 333 59006;
0096821980999991994101918004-01717-045400FM-12+004499999V0200901N00511015001CN0100001N1+03041+02501100731ADDAA106000091AG10000GF105991051021017501001001MA1999999100221MD1999999-0051REMSYN011 333 59005;
0118821980999991994102000004-01717-045400FM-12+004499999V0200501N00361220001CN0100001N1+02471+02391100961ADDAA106000091AG10000GA1001+999999999GF100991001001999999001001MA1999999100441MD1999999-0011REMSYN017 333 10/// 59001;
0130821980999991994102012004-01717-045400FM-12+004499999V0200901N00511045001CN0100001N1+02761+02421101111ADDAA124000191AG10001AY151061AY211061GF107991041021017501061001MA1999999099591MD1999999+0201MW1501REMSYN023 333 20/// 58020 69914;
0096821980999991994102018004-01717-045400FM-12+004499999V0200901N00511220001CN0100001N1+03161+02371100581ADDAA106000091AG10000GF104991041021017501001001MA1999999100271MD1999999+0051REMSYN011 333 58005;
0115821980999991994102100004-01717-045400FM-12+004499999V0200501N00151220001CN0100001N1+02601+02351100991ADDAA106000091AG10000GF102991011071008001031001KA1240M+03161MA1999999100931MD1999999+0071REMSYN017 333 10316 58007;
0102821980999991994102212004-01717-045400FM-12+004499999V0200501N00571015001CN0100001N1+02861+02261101021ADDAA106000091AG10000GF105991051021017501001001MA1999999100491MD1999999-0041REMSYN017 333 20/// 59004;
0102821980999991994102312004-01717-045400FM-12+004499999V0200901N00571220001CN0100001N1+02841+02521101051ADDAA106000091AG10000GF103991031021017501001001MA1999999100541MD1999999+0051REMSYN017 333 20/// 58005;
0096821980999991994102418004-01717-045400FM-12+004499999V0200901N00621220001CN0200001N1+03191+02661100821ADDAA106000091AG10000GF104991041021017501001001MA1999999100311MD1999999+0011REMSYN011 333 58001;
0118821980999991994102500004-01717-045400FM-12+004499999V0200901N00211220001CN0100001N1+02551+02351101041ADDAA106000091AG10000GA1001+999999999GF100991001001999999001001MA1999999100531MD1999999+0061REMSYN017 333 10/// 58006;
0102821980999991994102512004-01717-045400FM-12+004499999V0200501N00571015001CN0100001N1+02981+02371101151ADDAA106000091AG10000GF105991051021017501001001MA1999999100641MD1999999+0121REMSYN017 333 20/// 58012;
0102821980999991994102612004-01717-045400FM-12+004499999V0200501N00571220001CN0100001N1+02781+02361101131ADDAA106000091AG10000GF105991021001017501041011MA1999999100621MD1999999-0021REMSYN017 333 20/// 59002;
0096821980999991994102618004-01717-045400FM-12+004499999V0200501N00411045001CN0100001N1+02961+02421100891ADDAA106000091AG10000GF106991021021017501061001MA1999999100381MD1999999+0001REMSYN011 333 58000;
0118821980999991994102700004-01717-045400FM-12+004499999V0200501N00261220001CN0100001N1+02591+02461101061ADDAA106000091AG10000GA1001+999999999GF100991001001999999001001MA1999999100551MD1999999+0081REMSYN017 333 10/// 58008;
0102821980999991994102712004-01717-045400FM-12+004499999V0200501N00261220001CN0100001N1+02871+02411101181ADDAA106000091AG10000GF104991041021017501001001MA1999999100671MD1999999+0051REMSYN017 333 20/// 58005;
0102821980999991994102812004-01717-045400FM-12+004499999V0200501N00261045001CN0100001N1+02911+02461101161ADDAA106000091AG10000GF105991031021017501061001MA1999999100651MD1999999-0021REMSYN017 333 20/// 59002;
0096821980999991994102818004-01717-045400FM-12+004499999V0200501N00571220001CN0100001N1+03051+02471100911ADDAA106000091AG10000GF103991031021017501001001MA1999999100401MD1999999-0021REMSYN011 333 59002;
0121821980999991994102912004-01717-045400FM-12+004499999V0200501N005119999999N0100001N1+02911+02341101091ADDAA106000091AG10000GF106991999021017501001001MA1999999100581MD1999999-0071REMSYN017 333 20/// 59007;EQDQ01+000042SCOTLC
0102821980999991994103012004-01717-045400FM-12+004499999V0200901N00671045001CN0100001N1+03031+02311101251ADDAA106000091AG10000GF106991031021017501061001MA1999999100741MD1999999+0161REMSYN017 333 20/// 58016;
0096821980999991994110118004-01717-045400FM-12+004499999V0200901N00671015001CN0100001N1+03171+02521100881ADDAA106000091AG10000GF106991061021017501001001MA1999999100371MD1999999+0021REMSYN011 333 58002;
0118821980999991994110200004-01717-045400FM-12+004499999V0200501N00361220001CN0100001N1+02501+02251101041ADDAA106000091AG10000GA1001+999999999GF100991001001999999001001MA1999999100531MD1999999-0131REMSYN017 333 10/// 59013;
0096821980999991994110218004-01717-045400FM-12+004499999V0200501N00511045001CN0100001N1+03221+02451100791ADDAA106000091AG10000GF105991031021017501061001MA1999999100281MD1999999-0091REMSYN011 333 59009;
0096821980999991994110318004-01717-045400FM-12+004499999V0200501N00461045001CN0100001N1+03061+02471100771ADDAA106000091AG10000GF106991041021017501061001MA1999999100261MD1999999-0021REMSYN011 333 59002;
0118821980999991994110400004-01717-045400FM-12+004499999V0200501N00261220001CN0100001N1+02561+02421100961ADDAA106000091AG10000GA1001+999999999GF100991001001999999001001MA1999999100451MD1999999-0131REMSYN017 333 10/// 59013;
0102821980999991994110412004-01717-045400FM-12+004499999V0200501N00361015001CN0100001N1+02701+02331101011ADDAA106000091AG10000GF106991061021017501001001MA1999999100491MD1999999-0041REMSYN017 333 20/// 59004;
0096821980999991994110418004-01717-045400FM-12+004499999V0200501N00671045001CN0100001N1+02951+02451100811ADDAA106000091AG10000GF108991031021017501061001MA1999999100301MD1999999+0041REMSYN011 333 58004;
0102821980999991994110712004-01717-045400FM-12+004499999V0200901N00411045001CN0100001N1+02861+02501101011ADDAA106000091AG10000GF106991041021017501031001MA1999999100501MD1999999+0191REMSYN017 333 20/// 58019;
0118821980999991994111000004-01717-045400FM-12+004499999V0200501N00211220001CN0100001N1+02491+02291101031ADDAA106000091AG10000GA1001+999999999GF100991001001999999001001MA1999999100521MD1999999+0091REMSYN017 333 10/// 58009;
0102821980999991994111012004-01717-045400FM-12+004499999V0200501N004110450019N0100001N1+02891+02391101181ADDAA106000091AG10000GF106991041021017501011001MA1999999100671MD1999999+0141REMSYN017 333 20/// 58014;
0118821980999991994111200004-01717-045400FM-12+004499999V0200501N00261220001CN0100001N1+02631+02421101121ADDAA106000091AG10000GA1001+999999999GF100991001001999999001001MA1999999100601MD1999999+0031REMSYN017 333 10/// 58003;
0102821980999991994111312004-01717-045400FM-12+004499999V0200501N00411045001CN0100001N1+02921+02451101041ADDAA106000091AG10000GF106991021021017501061001MA1999999100531MD1999999-0121REMSYN017 333 20/// 59012;
0102821980999991994111412004-01717-045400FM-12+004499999V0200501N00311015001CN0100001N1+02831+02401101021ADDAA106000091AG10000GF105991051021017501001001MA1999999100501MD1999999-0031REMSYN017 333 20/// 59003;
0102821980999991994111512004-01717-045400FM-12+004499999V0200901N00461015001CN0100001N1+03081+02461101011ADDAA106000091AG10000GF105991051021017501001001MA1999999100501MD1999999+0001REMSYN017 333 20/// 58000;
0102821980999991994111612004-01717-045400FM-12+004499999V0200501N00461045001CN0100001N1+02821+02461100971ADDAA106000091AG10000GF107991041021017501031001MA1999999100451MD1999999-0051REMSYN017 333 20/// 59005;
0102821980999991994111712004-01717-045400FM-12+004499999V0200901N00511045001CN0100001N1+02871+02371100981ADDAA106000091AG10000GF106991031021017501041011MA1999999100461MD1999999+0011REMSYN017 333 20/// 58001;
0102821980999991994111812004-01717-045400FM-12+004499999V0200901N00511220001CN0100001N1+02891+02461100991ADDAA106000091AG10000GF104991041021017501001001MA1999999100471MD1999999+0011REMSYN017 333 20/// 58001;
0096821980999991994111918004-01717-045400FM-12+004499999V0200501N00461220001CN0100001N1+03201+02431100511ADDAA106000091AG10000GF103991021021017501001011MA1999999100001MD1999999-0141REMSYN011 333 59014;
0130821980999991994112012004-01717-045400FM-12+004499999V0200901N00211015001CN0100001N1+02811+02381100881ADDAA124001091AG10006AY161061AY211061GF106991061021017501001001MA1999999100361MD1999999+0021MW1031REMSYN023 333 20/// 58002 60014;
0102821980999991994112112004-01717-045400FM-12+004499999V0200901N00461015001CN0100001N1+02901+02431100981ADDAA106000091AG10000GF105991051021017501001001MA1999999100471MD1999999+0111REMSYN017 333 20/// 58011;
0096821980999991994112118004-01717-045400FM-12+004499999V0200501N00671220001CN0100001N1+03221+02401100681ADDAA106000091AG10000GF104991041021017501001001MA1999999100171MD1999999+0111REMSYN011 333 58011;
0102821980999991994112212004-01717-045400FM-12+004499999V0200901N00511045001CN0100001N1+02811+02361100981ADDAA106000091AG10000GF106991031021017501061001MA1999999100461MD1999999+0021REMSYN017 333 20/// 58002;
0096821980999991994112218004-01717-045400FM-12+004499999V0200901N00571045001CN0100001N1+03181+02361100761ADDAA106000091AG10000GF105991041021017501061001MA1999999100251MD1999999+0081REMSYN011 333 58008;
0102821980999991994112312004-01717-045400FM-12+004499999V0200901N00361220001CN0100001N1+02831+02481101041ADDAA106000091AG10000GF106991041021017501001011MA1999999100521MD1999999+0031REMSYN017 333 20/// 58003;
0096821980999991994112318004-01717-045400FM-12+004499999V0200901N00571220001CN0100001N1+03261+02331100711ADDAA106000091AG10000GF104991041021004501001001MA1999999100201MD1999999-0051REMSYN011 333 59005;
0102821980999991994112412004-01717-045400FM-12+004499999V0200901N00411045001CN0100001N1+02791+02501101061ADDAA106000091AG10000GF105991031021017501011001MA1999999100541MD1999999+0031REMSYN017 333 20/// 58003;
0102821980999991994112512004-01717-045400FM-12+004499999V0200901N00461220001CN0100001N1+02981+02331101161ADDAA106000091AG10000GF104991041021017501001001MA1999999100651MD1999999+0011REMSYN017 333 20/// 58001;
0096821980999991994112518004-01717-045400FM-12+004499999V0200901N00571015001CN0100001N1+03101+02341100871ADDAA106000091AG10000GF106991061021017501001001MA1999999100361MD1999999+0031REMSYN011 333 58003;
0137821980999991994112600004-01717-045400FM-12+004499999V0200501N00411220001CN0100001N1+02571+02331101111ADDAA106000091AG10000GA1001+999999999GF100991001001999999001001MA1999999100591MD1999999+0161REMSYN017 333 10/// 58016;EQDQ01+999990APOSLP
0102821980999991994112612004-01717-045400FM-12+004499999V0200501N00461220001CN0100001N1+02851+02371101161ADDAA106000091AG10000GF104991041021017501001001MA1999999100661MD1999999+0011REMSYN017 333 20/// 58001;
0102821980999991994112812004-01717-045400FM-12+004499999V0200501N00361045001CN0100001N1+02871+02351100991ADDAA106000091AG10000GF106991031021017501061011MA1999999100471MD1999999-0031REMSYN017 333 20/// 59003;
0096821980999991994112818004-01717-045400FM-12+004499999V0200501N00671015001CN0100001N1+03031+02291100601ADDAA106000091AG10000GF106991061021017501001001MA1999999100091MD1999999-0031REMSYN011 333 59003;
0118821980999991994113000004-01717-045400FM-12+004499999V0200501N00511220001CN0100001N1+02581+02381100891ADDAA106000091AG10000GA1001+999999999GF100991001001999999001001MA1999999100371MD1999999+0011REMSYN017 333 10/// 58001;
0102821980999991994113012004-01717-045400FM-12+004499999V0200901N00411045001CN0100001N1+02791+02381101061ADDAA106000091AG10000GF106991031021017501061001MA1999999100541MD1999999+0101REMSYN017 333 20/// 58010;
0134821980999991994120200004-01717-045400FM-12+004499999V0200401N00511220001CN0200001N1+02641+02371100901ADDAA106000091AG10000GF104991021011008001031001KA1240M+03281MA1999999100391MD1999999-0031REMSYN017 333 10328 59003;EQDQ01+999990APOSP 
0102821980999991994120212004-01717-045400FM-12+004499999V0200901N00721045001CN0100001N1+02831+02381100981ADDAA106000091AG10000GF106991041021017501041011MA1999999100461MD1999999+0061REMSYN017 333 20/// 58006;
0102821980999991994120312004-01717-045400FM-12+004499999V0200901N00671045001CN0100001N1+02831+02261100961ADDAA106000091AG10000GF106991021021017501041011MA1999999100441MD1999999-0021REMSYN017 333 20/// 59002;
0102821980999991994120412004-01717-045400FM-12+004499999V0200501N00311015001CN0100001N1+02921+02471100991ADDAA106000091AG10000GF105991051021017501001001MA1999999100471MD1999999+0031REMSYN017 333 20/// 58003;
0096821980999991994120718004-01717-045400FM-12+004499999V0200901N00721220001CN0100001N1+03161+02291100741ADDAA106000091AG10000GF103991031021017501001001MA1999999100231MD1999999+0021REMSYN011 333 58002;
0102821980999991994120812004-01717-045400FM-12+004499999V0200901N00411015001CN0100001N1+02781+02401100931ADDAA106000091AG10000GF106991061021017501001001MA1999999100411MD1999999-0061REMSYN017 333 20/// 59006;
0124821980999991994120918004-01717-045400FM-12+004499999V0202701N00151009001CN0100001N1+02921+02561100881ADDAA106001091AG10000AY101061AY221061GF108991081081004501001001MA1999999100821MD1999999+0111MW1911REMSYN017 333 58011 60011;
0118821980999991994121000004-01717-045400FM-12+004499999V0200501N00211220001CN0500001N1+02541+02351100971ADDAA106000091AG10000GA1001+999999999GF100991001001999999001001MA1999999100451MD1999999+0151REMSYN017 333 10/// 58015;
0102821980999991994121012004-01717-045400FM-12+004499999V0200901N00571045001CN0100001N1+02831+02351101071ADDAA106000091AG10000GF106991031021017501061001MA1999999100551MD1999999+0011REMSYN017 333 20/// 58001;
0102821980999991994121212004-01717-045400FM-12+004499999V0200501N00511220001CN0100001N1+02731+02361100981ADDAA106000091AG10000GF103991031021017501001001MA1999999100461MD1999999-0111REMSYN017 333 20/// 59011;
0096821980999991994121318004-01717-045400FM-12+004499999V0200501N00571015001CN0100001N1+02891+02501100571ADDAA106000091AG10000GF105991051021017501001001MA1999999100061MD1999999-0211REMSYN011 333 59021;
0115821980999991994121412004-01717-045400FM-12+004499999V0200501N00411045001CN0100001N1+02681+02451101001ADDAA106000091AG10000GF107991041021017501041011KA1240N+02481MA1999999100481MD1999999+0001REMSYN017 333 20248 58000;
0096821980999991994121418004-01717-045400FM-12+004499999V0200501N00511045001CN0100001N1+03121+02331100651ADDAA106000091AG10000GF106991041021017501061001MA1999999100141MD1999999+0081REMSYN011 333 58008;
0143821980999991994121512004-01717-045400FM-12+004499999V0200901N00361015001CN0100001N1+02611+02441101011ADDAA124003091AG10006AY161061AY221061GF107991051051017501061001KA1240N+02401MA1999999100491MD1999999+0011MW1021REMSYN023 333 20240 58001 60034;
0096821980999991994121518004-01717-045400FM-12+004499999V0200501N00671045001CN0100001N1+03031+02411100731ADDAA106000091AG10000GF108991041021017501061001MA1999999100221MD1999999+0031REMSYN011 333 58003;
0115821980999991994121600004-01717-045400FM-12+004499999V0200501N003119999999N0100001N1+02591+02441100881ADDAA106000091AG10000GF105991051021999999001001KA1240M+03211MA1999999100361MD1999999-0071REMSYN017 333 10321 59007;
0115821980999991994121612004-01717-045400FM-12+004499999V0200901N00621045001CN0100001N1+02781+02361101001ADDAA106000091AG10000GF105991031021017501041011KA1240N+02471MA1999999100481MD1999999-0011REMSYN017 333 20247 59001;
0096821980999991994121618004-01717-045400FM-12+004499999V0200901N00771015001CN0100001N1+03131+02301100771ADDAA106000091AG10000GF105991051021017501001001MA1999999100261MD1999999+0041REMSYN011 333 58004;
0115821980999991994121712004-01717-045400FM-12+004499999V0200901N00311045001CN0200001N1+02791+02421101111ADDAA106000091AG10000GF105991041041004501031001KA1240N+02351MA1999999101051MD1999999-0031REMSYN017 333 20235 59003;
0096821980999991994121918004-01717-045400FM-12+004499999V0200501N00511220001CN0100001N1+03131+02381100711ADDAA106000091AG10000GF103991031021017501001001MA1999999100201MD1999999-0081REMSYN011 333 59008;
0126821980999991994121921004-01717-045400FM-12+004499999V0202401N00621220001CN0080001N1+02901+02411100721ADDAG10000AY121031AY221031GF105991031021008001001041MA1999999100211MD1999999-0021MW1051REMSYN011 333 59002;EQDQ01+999990APOSP 
0115821980999991994122012004-01717-045400FM-12+004499999V0200901N00511015001CN0100001N1+02891+02441101031ADDAA106000091AG10000GF106991061021017501001001KA1240N+02431MA1999999100521MD1999999+0071REMSYN017 333 20243 58007;
0096821980999991994122018004-01717-045400FM-12+004499999V0200501N00671220001CN0100001N1+03101+02461100731ADDAA106000091AG10000GF103991031021017501001001MA1999999100221MD1999999+0021REMSYN011 333 58002;
0143821980999991994122112004-01717-045400FM-12+004499999V0200901N00211045001CN0100001N1+02741+02501101191ADDAA124053091AG10001AY151061AY221061GF105991021041004501031001KA1240N+02281MA1999999101131MD1999999+0061MW1031REMSYN023 333 20228 58006 60534;
0115821980999991994122212004-01717-045400FM-12+004499999V0200901N00461045001CN0100001N1+02841+02461100981ADDAA106000091AG10000GF108991041021017501031001KA1240N+02491MA1999999100471MD1999999-0171REMSYN017 333 20249 59017;
0096821980999991994122218004-01717-045400FM-12+004499999V0200901N00511045001CN0100001N1+03161+02371100751ADDAA106000091AG10000GF106991031021017501031001MA1999999100241MD1999999-0021REMSYN011 333 59002;
0115821980999991994122312004-01717-045400FM-12+004499999V0200501N00461220001CN0100001N1+02861+02441100941ADDAA106000091AG10000GF106991041021017501001011KA1240N+02511MA1999999100431MD1999999-0041REMSYN017 333 20251 59004;
0115821980999991994122412004-01717-045400FM-12+004499999V0200501N00571045001CN0100001N1+02721+02471100991ADDAA106000091AG10000GF106991031021017501031001KA1240N+02501MA1999999100481MD1999999+0051REMSYN017 333 20250 58005;
0121821980999991994122612004-01717-045400FM-12+004499999V0201801N00101015001CN0100001N1+02621+02541101101ADDAA124003091AG10000GF108991051051017501061001KA1240N+02331MA1999999100581MD1999999+0061REMSYN023 333 20233 58006 60034;
0115821980999991994122812004-01717-045400FM-12+004499999V0201401N00211045001CN0100001N1+02541+02481101181ADDAA106000091AG10000GF106991031021017501061001KA1240N+02331MA1999999100661MD1999999+0091REMSYN017 333 20233 58009;
0096821980999991994122818004-01717-045400FM-12+004499999V0200501N00361045001CN0100001N1+02771+02461100841ADDAA106000091AG10000GF108991041021017501061001MA1999999100331MD1999999-0051REMSYN011 333 59005;
0096821980999991994122918004-01717-045400FM-12+004499999V0200901N00101045001CN0100001N1+03141+02551100811ADDAA106000091AG10000GF106991041031017501041001MA1999999100391MD1999999-0021REMSYN011 333 59002;
0115821980999991994123012004-01717-045400FM-12+004499999V0200901N00361015001CN0100001N1+02781+02461101171ADDAA106000091AG10000GF106991061021017501001001KA1240N+02421MA1999999100661MD1999999+0041REMSYN017 333 20242 58004;
0096821980999991994123018004-01717-045400FM-12+004499999V0200901N00771015001CN0100001N1+03121+02361100871ADDAA106000091AG10000GF105991051021017501001001MA1999999100361MD1999999-0091REMSYN011 333 59009;
0115821980999991994123112004-01717-045400FM-12+004499999V0200901N00511045001CN0100001N1+02841+02481100981ADDAA106000091AG10000GF106991041021017501061001KA1240N+02431MA1999999100471MD1999999-0181REMSYN017 333 20243 59018;
