0120823920999991994010112004-03700-040350FM-12+008399999V0209999999999045001CN0200001N9+02821+02291999999ADDAA124001091AG10000GF108991041041004501021999KA1240N+02331MA1999999100061MD1999999+0061REMSYN022 333 20233 58006 60014
0123823920999991994010118004-03700-040350FM-12+008399999V0209999999999045001CN0200001N9+02661+02351999999ADDAA106007091AG10001AY151061AY261061GF108991031061004501021999MA1999999099681MD1999999+0031MW1021REMSYN016 333 58003 60071
0142823920999991994010212004-03700-040350FM-12+008399999V0209999999999004201CN0200001N9+02441+02251999999ADDAA124016091AG10006AY161061AY261061GF108991061071004501011999KA1240N+02211MA1999999100031MD1999999-0031MW1021REMSYN022 333 20221 59003 60164
0095823920999991994010218004-03700-040350FM-12+008399999V0209999999999045001CN0200001N9+02911+02341999999ADDAA106000091AG14000GF106991041021004501031001MA1999999099611MD1999999-0071REMSYN010 333 59007
0114823920999991994010312004-03700-040350FM-12+008399999V02099999999999999999N0200001N9+02741+02261999999ADDAA106000091AG14000GF107991999999004501999999KA1240N+02361MA1999999099911MD1999999-0121REMSYN016 333 20236 59012
0123823920999991994010318004-03700-040350FM-12+008399999V0209999999999004201CN0200001N9+02831+02401999999ADDAA106001091AG10006AY161061AY221061GF107991051061004501041001MA1999999099531MD1999999-0081MW1211REMSYN016 333 59008 60011
0120823920999991994010412004-03700-040350FM-12+008399999V0209999999999009001CN0200001N9+02711+02391999999ADDAA124009091AG10000GF108991081081004501999999KA1240N+02291MA1999999100011MD1999999+0101REMSYN022 333 20229 58010 60094
0114823920999991994010600004-03700-040350FM-12+008399999V0209999999999045001CN9999999N9+02421+02231999999ADDAA106000091AG14000GF108991031041004501021999KA1240M+03141MA1999999100011MD1999999-0011REMSYN016 333 10314 59001
0114823920999991994010612004-03700-040350FM-12+008399999V0209999999999045001CN0200001N9+02841+02121999999ADDAA106000091AG14000GF106991021021004501011011KA1240N+02171MA1999999100041MD1999999-0061REMSYN016 333 20217 59006
0095823920999991994010618004-03700-040350FM-12+008399999V0209999999999045001CN0200001N9+03201+02091999999ADDAA106000091AG14000GF106991041041008001031001MA1999999099541MD1999999-0241REMSYN010 333 59024
0114823920999991994010712004-03700-040350FM-12+008399999V0209999999999045001CN0200001N9+02821+02151999999ADDAA106000091AG14000GF105991031021004501031001KA1240N+02231MA1999999099941MD1999999-0101REMSYN016 333 20223 59010
0095823920999991994010718004-03700-040350FM-12+008399999V0209999999999045001CN0200001N9+03261+01801999999ADDAA106000091AG14000GF106991041041008001011001MA1999999099461MD1999999-0081REMSYN010 333 59008
0120823920999991994010912004-03700-040350FM-12+008399999V0209999999999045001CN0200001N9+02781+02061999999ADDAA124008091AG10000GF105991031021008001031001KA1240N+02271MA1999999099901MD1999999-0041REMSYN022 333 20227 59004 60084
0134823920999991994010918004-03700-040350FM-12+008399999V0209999999999220001CN0200001N9+03041+02201999999ADDAA106000291AA299000191AG10001AY151061AY221061GF104991031021004501001011MA1999999099551MD1999999+0031MW1021REMSYN016 333 58003 69921
0131823920999991994011012004-03700-040350FM-12+008399999V0209999999999220001CN0200001N9+02771+02091999999ADDAA124000291AA299000191AG10000GF104991031011004501001011KA1240N+02241MA1999999099931MD1999999+0031REMSYN022 333 20224 58003 69924
0095823920999991994011018004-03700-040350FM-12+008399999V0209999999999220001CN0200001N9+03301+01911999999ADDAA106000091AG14000GF103991031021004501001001MA1999999099501MD1999999-0051REMSYN010 333 59005
0114823920999991994011100004-03700-040350FM-12+008399999V0209999999999220001CN9999999N9+02701+02221999999ADDAA106000091AG14000GF102991021001017501031001KA1240M+03391MA1999999099761MD1999999-0031REMSYN016 333 10339 59003
0114823920999991994011112004-03700-040350FM-12+008399999V0209999999999220001CN0200001N9+02821+02291999999ADDAA106000091AG14000GF104991041041004501001001KA1240N+02361MA1999999099861MD1999999-0071REMSYN016 333 20236 59007
0095823920999991994011118004-03700-040350FM-12+008399999V0209999999999220001CN0200001N9+03451+02041999999ADDAA106000091AG14000GF105991021021008001001011MA1999999099411MD1999999-0091REMSYN010 333 59009
0095823920999991994011218004-03700-040350FM-12+008399999V0209999999999045001CN0200001N9+03201+02061999999ADDAA106000091AG14000GF108991031041004501011999MA1999999099521MD1999999+0111REMSYN010 333 58011
0114823920999991994011312004-03700-040350FM-12+008399999V0209999999999045001CN0200001N9+02821+02171999999ADDAA106000091AG14000GF106991031021008001031001KA1240N+02361MA1999999100011MD1999999+0091REMSYN016 333 20236 58009
0095823920999991994011318004-03700-040350FM-12+008399999V0209999999999045001CN0200001N9+03421+01941999999ADDAA106000091AG14000GF105991021021008001031001MA1999999099551MD1999999+0031REMSYN010 333 58003
0142823920999991994011400004-03700-040350FM-12+008399999V0209999999999004201CN9999999N9+02571+02311999999ADDAA106029091AG10006AY161061AY261061GF105991051041004501001001KA1240M+03431MA1999999099941MD1999999+0061MW1021REMSYN022 333 10343 58006 60291
0120823920999991994011412004-03700-040350FM-12+008399999V0209999999999220001CN0200001N9+02881+02321999999ADDAA124029091AG10000GF103991021021004501001011KA1240N+02281MA1999999099981MD1999999-0031REMSYN022 333 20228 59003 60294
0123823920999991994011418004-03700-040350FM-12+008399999V0209999999999045001CN0200001N9+02621+02311999999ADDAA106002091AG10006AY161061AY261061GF108991041041004501021999MA1999999099761MD1999999-0211MW1001REMSYN016 333 59021 60021
0120823920999991994011512004-03700-040350FM-12+008399999V0209999999999045001CN0200001N9+02661+02271999999ADDAA124013091AG10000GF106991031041004501031001KA1240N+02241MA1999999100031MD1999999+0031REMSYN022 333 20224 58003 60134
0123823920999991994011518004-03700-040350FM-12+008399999V0209999999999045001CN0200001N9+02501+02291999999ADDAA106004091AG10006AY161061AY261061GF107991041071004501011011MA1999999099691MD1999999-0071MW1021REMSYN016 333 59007 60041
0142823920999991994011700004-03700-040350FM-12+008399999V0209999999999045001CN9999999N9+02431+02301999999ADDAA106004091AG10006AY161061AY261061GF108991041071004501011999KA1240M+03181MA1999999099821MD1999999-0041MW1021REMSYN022 333 10318 59004 60041
0120823920999991994011712004-03700-040350FM-12+008399999V0209999999999045001CN0200001N9+02701+02431999999ADDAA124004091AG10000GF106991041051004501031001KA1240N+02221MA1999999099411MD1999999+0031REMSYN022 333 20222 58003 60044
0095823920999991994011718004-03700-040350FM-12+008399999V0209999999999045001CN0200001N9+03001+02241999999ADDAA106000091AG14000GF105991031021004501021031MA1999999099461MD1999999-0051REMSYN010 333 59005
0142823920999991994011812004-03700-040350FM-12+008399999V0209999999999045001CN0200001N9+02641+02351999999ADDAA124000191AG10001AY151061AY221061GF105991021021004501031001KA1240N+02301MA1999999099821MD1999999-0091MW1021REMSYN022 333 20230 59009 69914
0095823920999991994011818004-03700-040350FM-12+008399999V0209999999999045001CN0200001N9+03141+02131999999ADDAA106000091AG14000GF106991041061008001031001MA1999999099461MD1999999+0001REMSYN010 333 58000
0136823920999991994011912004-03700-040350FM-12+008399999V0209999999999105001CN0200001N9+02761+02521999999ADDAA106000091AG14000GA1021+001509039GF105991021021004501031011KA1240N+02331MA1999999099951MD1999999+0131REMSYN022 333 20233 58013 82392
0095823920999991994012018004-03700-040350FM-12+008399999V0209999999999045001CN0200001N9+03221+02051999999ADDAA106000091AG14000GF105991031021004501021001MA1999999099581MD1999999-0051REMSYN010 333 59005
0114823920999991994012112004-03700-040350FM-12+008399999V0209999999999045001CN0200001N9+02681+02451999999ADDAA106000091AG14000GF107991031041004501041001KA1240N+02381MA1999999100031MD1999999+0031REMSYN016 333 20238 58003
0114823920999991994012412004-03700-040350FM-12+008399999V0209999999999045001CN0200001N9+02771+02281999999ADDAA106000091AG14000GF105991031041004501031001KA1240N+02321MA1999999100121MD1999999+0061REMSYN016 333 20232 58006
0095823920999991994012418004-03700-040350FM-12+008399999V0209999999999220001CN0200001N9+03191+01981999999ADDAA106000091AG14000GF103991021011004501001011MA1999999099741MD1999999+0041REMSYN010 333 58004
0095823920999991994012518004-03700-040350FM-12+008399999V0209999999999105001CN0200001N9+03221+02101999999ADDAA106000091AG14000GF105991021011008001011011MA1999999099701MD1999999-0041REMSYN010 333 59004
0114823920999991994012600004-03700-040350FM-12+008399999V0209999999999045001CN9999999N9+02581+01971999999ADDAA106000091AG14000GF106991041041008001011001KA1240M+03261MA1999999099841MD1999999-0111REMSYN016 333 10326 59011
0114823920999991994012612004-03700-040350FM-12+008399999V0209999999999045001CN0200001N9+02701+02221999999ADDAA106000091AG14000GF107991041041004501041001KA1240N+02131MA1999999099991MD1999999-0161REMSYN016 333 20213 59016
0095823920999991994012618004-03700-040350FM-12+008399999V0209999999999045001CN0200001N9+03061+01961999999ADDAA106000091AG14000GF106991021021004501031001MA1999999099631MD1999999-0071REMSYN010 333 59007
0114823920999991994012712004-03700-040350FM-12+008399999V0209999999999045001CN0200001N9+02841+02331999999ADDAA106000091AG14000GF106991041021008001011011KA1240N+02621MA1999999099911MD1999999-0081REMSYN016 333 20262 59008
0095823920999991994012718004-03700-040350FM-12+008399999V0209999999999045001CN0200001N9+03201+01991999999ADDAA106000091AG14000GF106991031021008001011001MA1999999099541MD1999999-0091REMSYN010 333 59009
0120823920999991994012812004-03700-040350FM-12+008399999V0209999999999220001CN0200001N9+02761+02341999999ADDAA124002091AG10000GF106991041021004501001011KA1240N+02331MA1999999099951MD1999999+0041REMSYN022 333 20233 58004 60024
0131823920999991994012912004-03700-040350FM-12+008399999V0209999999999045001CN0200001N9+02721+02321999999ADDAA124000691AA299000591AG10000GF106991031021004501031011KA1240N+02311MA1999999099991MD1999999+0041REMSYN022 333 20231 58004 69964
0095823920999991994012918004-03700-040350FM-12+008399999V0209999999999045001CN0200001N9+02871+02441999999ADDAA106000091AG14000GF106991031061004501031001MA1999999099661MD1999999-0091REMSYN010 333 59009
0120823920999991994013012004-03700-040350FM-12+008399999V0209999999999045001CN0200001N9+02741+02261999999ADDAA124013091AG10000GF105991031021004501031001KA1240N+02091MA1999999100011MD1999999+0001REMSYN022 333 20209 58000 60134
0114823920999991994013100004-03700-040350FM-12+008399999V0209999999999220001CN9999999N9+02641+02091999999ADDAA106000091AG14000GF102991011001012501031011KA1240M+03271MA1999999099831MD1999999-0081REMSYN016 333 10327 59008
0114823920999991994013112004-03700-040350FM-12+008399999V0209999999999045001CN0200001N9+02781+02341999999ADDAA106000091AG14000GF107991041071004501041001KA1240N+02241MA1999999099951MD1999999-0061REMSYN016 333 20224 59006
0123823920999991994013118004-03700-040350FM-12+008399999V0209999999999045001CN0200001N9+02841+02481999999ADDAA106002091AG10006AY161061AY251061GF108991031071004501021999MA1999999099561MD1999999-0101MW1021REMSYN016 333 59010 60021
0142823920999991994020100004-03700-040350FM-12+008399999V0209999999999045001CN9999999N9+02421+02381999999ADDAA106004091AG10006AY161061AY261061GF108991041071004501021999KA1240M+03141MA1999999099901MD1999999+0071MW1021REMSYN022 333 10314 58007 60041
0120823920999991994020112004-03700-040350FM-12+008399999V0209999999999004201CN0200001N9+02701+02371999999ADDAA124006091AG10000GF107991051041004501031001KA1240N+02241MA1999999100051MD1999999+0101REMSYN022 333 20224 58010 60064
0095823920999991994020118004-03700-040350FM-12+008399999V0209999999999045001CN0200001N9+03231+02081999999ADDAA106000091AG14000GF107991031041004501011001MA1999999099661MD1999999+0101REMSYN010 333 58010
0114823920999991994020312004-03700-040350FM-12+008399999V0209999999999045001CN0200001N9+99999+99999999999ADDAA106000091AG14000GF107991041041004501031001KA1240N+02311MA1999999100131MD1999999-0011REMSYN016 333 20231 59001
0114823920999991994020318004-03700-040350FM-12+008399999V02099999999999999999N0200001N9+99999+99999999999ADDAA106000091AG14000GF106991999999004501999999MA1999999086302MD1999999-0041REMSYN010 333 59004EQDQ01+086303APOSP 
0095823920999991994020418004-03700-040350FM-12+008399999V0209999999999045001CN0200001N9+03271+02051999999ADDAA106000091AG14000GF105991031021008001031001MA1999999099551MD1999999-0171REMSYN010 333 59017
0114823920999991994020500004-03700-040350FM-12+008399999V0209999999999220001CN9999999N9+02631+02211999999ADDAA106000091AG14000GF101991011001017501031001KA1240M+03361MA1999999099761MD1999999-0171REMSYN016 333 10336 59017
0153823920999991994020512004-03700-040350FM-12+008399999V0209999999999045001CN0100001N9+02671+02311999999ADDAA124000291AA299000191AG10000AY101061AY221061GF107991041071004501021001KA1240N+02331MA1999999099911MD1999999-0141MW1511REMSYN022 333 20233 59014 69924
0123823920999991994020518004-03700-040350FM-12+008399999V0209999999999045001CN0200001N9+02641+02421999999ADDAA106003091AG10000AY101061AY221061GF107991041061004501011001MA1999999099541MD1999999-0011MW1621REMSYN016 333 59001 60031
0114823920999991994021012004-03700-040350FM-12+008399999V0209999999999045001CN0200001N9+02681+02351999999ADDAA106000091AG14000GF106991041041004501031001KA1240N+02231MA1999999100031MD1999999-0041REMSYN016 333 20223 59004
0095823920999991994021018004-03700-040350FM-12+008399999V0209999999999045001CN0200001N9+03151+02211999999ADDAA106000091AG14000GF106991031021008001031011MA1999999099711MD1999999-0071REMSYN010 333 59007
0142823920999991994021112004-03700-040350FM-12+008399999V0209999999999045001CN0200001N9+02621+02401999999ADDAA124000391AG10001AY151061AY251061GF108991041071004501021999KA1240N+02261MA1999999100201MD1999999+0171MW1031REMSYN022 333 20226 58017 69934
0142823920999991994021118004-03700-040350FM-12+008399999V0209999999999220001CN0000001N9+02561+02401999999ADDAA106003091AG10001AY151061AY211061GF102991999061004501031001MA1999999099911MD1999999+0201MW1621REMSYN016 333 58020 60031EQDQ01+000042SCOTLC
0114823920999991994021200004-03700-040350FM-12+008399999V0209999999999220001CN9999999N9+02291+99999999999ADDAA106000091AG14000GF102991021071004501001001KA1240M+02791MA1999999100031MD1999999-0041REMSYN016 333 10279 59004
0120823920999991994021212004-03700-040350FM-12+008399999V0209999999999045001CN0200001N9+02621+02371999999ADDAA124003091AG10000GF106991041041004501031001KA1240N+02161MA1999999100091MD1999999-0111REMSYN022 333 20216 59011 60034
0095823920999991994021218004-03700-040350FM-12+008399999V0209999999999045001CN0200001N9+02961+02311999999ADDAA106000091AG14000GF106991031061004501031001MA1999999099681MD1999999-0231REMSYN010 333 59023
0142823920999991994021300004-03700-040350FM-12+008399999V0209999999999045001CN9999999N9+02321+02291999999ADDAA106059091AG10006AY161061AY261061GF108991041061004501021999KA1240M+03101MA1999999100021MD1999999-0011MW1021REMSYN022 333 10310 59001 60591
0142823920999991994021312004-03700-040350FM-12+008399999V0209999999999045001CN0100001N9+02441+02251999999ADDAA124064091AG10001AY151061AY251061GF107991041041004501031001KA1240N+02091MA1999999100101MD1999999+0011MW1621REMSYN022 333 20209 58001 60644
0123823920999991994021418004-03700-040350FM-12+008399999V0209999999999045001CN0200001N9+02421+02361999999ADDAA106014091AG10006AY161061AY261061GF108991031081004501081999MA1999999099791MD1999999+0081MW1651REMSYN016 333 58008 60141
0120823920999991994021512004-03700-040350FM-12+008399999V0209999999999045001CN0200001N9+02581+02381999999ADDAA124040091AG10000GF107991041051004501021001KA1240N+02201MA1999999100221MD1999999+0171REMSYN022 333 20220 58017 60404
0123823920999991994021618004-03700-040350FM-12+008399999V0209999999999004201CN0200001N9+02541+02291999999ADDAA106008091AG10000AY121061AY221061GF108991081061004501999999MA1999999099901MD1999999-0071MW1631REMSYN016 333 59007 60081
0120823920999991994021712004-03700-040350FM-12+008399999V0209999999999220001CN0200001N9+02661+02291999999ADDAA124013091AG10000GF102991011021008001031001KA1240N+02271MA1999999100111MD1999999-0071REMSYN022 333 20227 59007 60134
0123823920999991994021718004-03700-040350FM-12+008399999V0209999999999004201CN0200001N9+02511+99999999999ADDAA106002091AG10006AY161061AY261061GF107991051061004501031001MA1999999099761MD1999999-0141MW1021REMSYN016 333 59014 60021
0131823920999991994021912004-03700-040350FM-12+008399999V0209999999999045001CN0100001N9+99999+99999999999ADDAA124000691AA299000591AG10000GF106991041021004501031001KA1240N+02211MA1999999099991MD1999999-0041REMSYN022 333 20221 59004 69964
0095823920999991994021918004-03700-040350FM-12+008399999V0209999999999045001CN0200001N9+02741+02341999999ADDAA106000091AG14000GF107991041061008001031001MA1999999099751MD1999999+0021REMSYN010 333 58002
0114823920999991994022012004-03700-040350FM-12+008399999V0209999999999045001CN0100001N9+02701+02411999999ADDAA106000091AG14000GF106991041041004501031001KA1240N+02271MA1999999100021MD1999999+0031REMSYN016 333 20227 58003
0095823920999991994022218004-03700-040350FM-12+008399999V0209999999999045001CN0200001N9+03061+02271999999ADDAA106000091AG14000GF106991031041004501031001MA1999999099611MD1999999-0101REMSYN010 333 59010
0114823920999991994022312004-03700-040350FM-12+008399999V0209999999999220001CN0200001N9+02711+02221999999ADDAA106000091AG14000GF103991031021004501001001KA1240N+02031MA1999999099961MD1999999+0011REMSYN016 333 20203 58001
0114823920999991994022412004-03700-040350FM-12+008399999V0209999999999220001CN0200001N9+02701+02281999999ADDAA106000091AG14000GF104991021021004501031001KA1240N+02091MA1999999099971MD1999999+0011REMSYN016 333 20209 58001
0095823920999991994022418004-03700-040350FM-12+008399999V0209999999999105001CN0200001N9+03061+02281999999ADDAA106000091AG14000GF105991011011008001001031MA1999999099641MD1999999+0041REMSYN010 333 58004
0114823920999991994022512004-03700-040350FM-12+008399999V0209999999999220001CN0200001N9+02701+02411999999ADDAA106000091AG14000GF105991031021004501001011KA1240N+02261MA1999999100001MD1999999+0031REMSYN016 333 20226 58003
0123823920999991994022518004-03700-040350FM-12+008399999V0209999999999004201CN0040001N9+02301+99999999999ADDAA106030091AG10006AY161061AY261061GF108991061061004501021999MA1999999099781MD1999999+0141MW1631REMSYN016 333 58014 60301
0120823920999991994022612004-03700-040350FM-12+008399999V0209999999999045001CN0200001N9+02671+02351999999ADDAA124013091AG10000GF106991041041004501031001KA1240N+02211MA1999999100001MD1999999+0001REMSYN022 333 20221 58000 60134
0123823920999991994022618004-03700-040350FM-12+008399999V02099999999999999999N0200001N9+02631+02371999999ADDAA106000391AG10006AY161061AY261061GF108991041021004501999999MA1999999099741MD1999999-0041MW1021REMSYN016 333 59004 69931
0120823920999991994022712004-03700-040350FM-12+008399999V0209999999999045001CN0100001N9+02621+02391999999ADDAA124013091AG10000GF107991031041004501011001KA1240N+02271MA1999999100061MD1999999+0061REMSYN022 333 20227 58006 60134
0142823920999991994022800004-03700-040350FM-12+008399999V0209999999999004201CN9999999N9+02311+02221999999ADDAA106003091AG10001AY151061AY261061GF108991081071004501999999KA1240M+03131MA1999999099921MD1999999-0051MW1021REMSYN022 333 10313 59005 60031
0142823920999991994022812004-03700-040350FM-12+008399999V0209999999999045001CN0200001N9+02401+02321999999ADDAA124017091AG10006AY161061AY251061GF108991041071004501021999KA1240N+02201MA1999999100231MD1999999+0171MW1511REMSYN022 333 20220 58017 60174
0095823920999991994022818004-03700-040350FM-12+008399999V0209999999999045001CN0200001N9+02581+02311999999ADDAA106000091AG14000GF108991011011004501021999MA1999999099881MD1999999+0081REMSYN010 333 58008
0114823920999991994030112004-03700-040350FM-12+008399999V0209999999999045001CN0200001N9+02701+02371999999ADDAA106000091AG14000GF106991031021004501031051KA1240N+02221MA1999999100051MD1999999-0181REMSYN016 333 20222 59018
0095823920999991994030118004-03700-040350FM-12+008399999V0209999999999045001CN0200001N9+03041+02361999999ADDAA106000091AG14000GF106991031021004501031001MA1999999099711MD1999999-0171REMSYN010 333 59017
0114823920999991994030200004-03700-040350FM-12+008399999V0209999999999045001CN9999999N9+02561+02401999999ADDAA106000091AG14000GF106991021021008001021001KA1240M+03161MA1999999099991MD1999999-0141REMSYN016 333 10316 59014
0114823920999991994030212004-03700-040350FM-12+008399999V0209999999999045001CN0200001N9+02761+02401999999ADDAA106000091AG14000GF107991041041004501031001KA1240N+02221MA1999999100071MD1999999+0021REMSYN016 333 20222 58002
0134823920999991994030218004-03700-040350FM-12+008399999V0209999999999004201CN0200001N9+02841+02401999999ADDAA106000491AA299000591AG10001AY151061AY221061GF107991051041004501031001MA1999999099821MD1999999+0091MW1031REMSYN016 333 58009 69941
0114823920999991994030300004-03700-040350FM-12+008399999V0209999999999045001CN9999999N9+02541+02451999999ADDAA106000091AG14000GF108991041041004501011999KA1240M+03021MA1999999099981MD1999999-0011REMSYN016 333 10302 59001
0131823920999991994030312004-03700-040350FM-12+008399999V0209999999999045001CN0100001N9+02741+02451999999ADDAA124000491AA299000591AG10000GF107991021041004501031001KA1240N+02371MA1999999100101MD1999999-0031REMSYN022 333 20237 59003 69944
0095823920999991994030318004-03700-040350FM-12+008399999V0209999999999045001CN0200001N9+03041+02361999999ADDAA106000091AG14000GF105991021041008001031001MA1999999099711MD1999999-0111REMSYN010 333 59011
0123823920999991994030418004-03700-040350FM-12+008399999V0209999999999004201CN0040001N9+02201+99999999999ADDAA106029091AG10006AY161061AY261061GF108991081041004501999999MA1999999099881MD1999999+0171MW1621REMSYN016 333 58017 60291
0120823920999991994030512004-03700-040350FM-12+008399999V0209999999999220001CN0650001N9+02631+02411999999ADDAA124032091AG10000GF104991021021004501031001KA1240N+02091MA1999999100011MD1999999-0071REMSYN022 333 20209 59007 60324
0095823920999991994030518004-03700-040350FM-12+008399999V0209999999999045001CN0200001N9+02941+02381999999ADDAA106000091AG14000GF105991021021004501031001MA1999999099621MD1999999-0261REMSYN010 333 59026
0114823920999991994030600004-03700-040350FM-12+008399999V0209999999999220001CN9999999N9+02511+02231999999ADDAA106000091AG14000GF102991021001012501031001KA1240M+03141MA1999999099961MD1999999-0101REMSYN016 333 10314 59010
0114823920999991994030612004-03700-040350FM-12+008399999V0209999999999045001CN0200001N9+02671+02351999999ADDAA106000091AG14000GF107991041041004501031001KA1240N+02321MA1999999100081MD1999999+0071REMSYN016 333 20232 58007
0120823920999991994030712004-03700-040350FM-12+008399999V0209999999999045001CN0200001N9+02511+02231999999ADDAA124013091AG10000GF105991031021004501031001KA1240N+02141MA1999999100151MD1999999+0071REMSYN022 333 20214 58007 60134
0095823920999991994030718004-03700-040350FM-12+008399999V0209999999999220001CN0200001N9+03121+02191999999ADDAA106000091AG14000GF104991031011004501001011MA1999999099711MD1999999-0241REMSYN010 333 59024
0095823920999991994030818004-03700-040350FM-12+008399999V0209999999999045001CN0200001N9+03111+02311999999ADDAA106000091AG14000GF106991031041008001031001MA1999999099701MD1999999-0011REMSYN010 333 59001
0114823920999991994030900004-03700-040350FM-12+008399999V0209999999999220001CN9999999N9+02541+02211999999ADDAA106000091AG14000GF102991021021008001001001KA1240M+03221MA1999999099951MD1999999-0021REMSYN016 333 10322 59002
0153823920999991994030912004-03700-040350FM-12+008399999V0209999999999045001CN0200001N9+02731+02341999999ADDAA124000291AA299000191AG10001AY151061AY221061GF106991041041008001031001KA1240N+02301MA1999999100151MD1999999+0021MW1021REMSYN022 333 20230 58002 69924
0153823920999991994031000004-03700-040350FM-12+008399999V0209999999999220001CN9999999N9+02251+99999999999ADDAA106000491AA299000591AG10001AY151061AY251061GF101991011041004501001001KA1240M+02891MA1999999100051MD1999999+0101MW1021REMSYN022 333 10289 58010 69941
0120823920999991994031012004-03700-040350FM-12+008399999V0209999999999045001CN0100001N9+02361+99999999999ADDAA124006091AG10000GF106991041041004501011001KA1240N+02091MA1999999100201MD1999999+0051REMSYN022 333 20209 58005 60064
0114823920999991994031112004-03700-040350FM-12+008399999V0209999999999004201CN0200001N9+02741+02401999999ADDAA106000091AG14000GF106991051021004501031001KA1240N+02141MA1999999100131MD1999999-0071REMSYN016 333 20214 59007
0095823920999991994031118004-03700-040350FM-12+008399999V0209999999999045001CN0200001N9+02961+02351999999ADDAA106000091AG14000GF106991041041004501031001MA1999999099661MD1999999-0081REMSYN010 333 59008
0153823920999991994031212004-03700-040350FM-12+008399999V0209999999999045001CN0200001N9+02591+02311999999ADDAA124000491AA299000591AG10006AY161061AY261061GF106991041041004501031001KA1240N+02191MA1999999100081MD1999999-0051MW1021REMSYN022 333 20219 59005 69944
0123823920999991994031218004-03700-040350FM-12+008399999V0209999999999004201CN0040001N9+02481+99999999999ADDAA106026091AG10006AY161061AY261061GF108991081041004501999999MA1999999099801MD1999999+0141MW1631REMSYN016 333 58014 60261
0120823920999991994031312004-03700-040350FM-12+008399999V0209999999999004201CN0100001N9+02531+02361999999ADDAA124027091AG10000GF107991051041004501031001KA1240N+02191MA1999999100011MD1999999+0021REMSYN022 333 20219 58002 60274
0123823920999991994031318004-03700-040350FM-12+008399999V0209999999999045001CN0200001N9+02891+02391999999ADDAA106001091AG10001AY151061AY251061GF106991021011004501031001MA1999999099751MD1999999-0051MW1031REMSYN016 333 59005 60011
0142823920999991994031412004-03700-040350FM-12+008399999V0209999999999045001CN0200001N9+02671+02411999999ADDAA124010091AG10001AY151061AY251061GF106991041041004501031001KA1240N+02201MA1999999100101MD1999999+0001MW1021REMSYN022 333 20220 58000 60104
0123823920999991994031518004-03700-040350FM-12+008399999V0209999999999004201CN0100001N9+02331+99999999999ADDAA106002091AG10006AY161061AY261061GF108991071061004501011999MA1999999099761MD1999999+0061MW1021REMSYN016 333 58006 60021
0114823920999991994031612004-03700-040350FM-12+008399999V0209999999999220001CN0200001N9+02611+02371999999ADDAA106000091AG14000GF105991041021004501001011KA1240N+02131MA1999999100021MD1999999-0031REMSYN016 333 20213 59003
0123823920999991994031618004-03700-040350FM-12+008399999V0209999999999045001CN0100001N9+02541+02401999999ADDAA106006091AG10000AY121061AY261061GF108991041091004501021999MA1999999099721MD1999999-0041MW1951REMSYN016 333 59004 60061
0120823920999991994031712004-03700-040350FM-12+008399999V0209999999999045001CN0100001N9+02471+99999999999ADDAA124006091AG10000GF106991021041004501011001KA1240N+02171MA1999999100051MD1999999+0031REMSYN022 333 20217 58003 60064
0095823920999991994031718004-03700-040350FM-12+008399999V0209999999999045001CN0200001N9+03151+02181999999ADDAA106000091AG14000GF106991041061004501031001MA1999999099711MD1999999+0031REMSYN010 333 58003
0114823920999991994031912004-03700-040350FM-12+008399999V0209999999999045001CN0200001N9+02701+02351999999ADDAA106000091AG14000GF106991031041004501031001KA1240N+02221MA1999999100031MD1999999-0051REMSYN016 333 20222 59005
0123823920999991994031918004-03700-040350FM-12+008399999V0209999999999045001CN0200001N9+02681+02481999999ADDAA106002091AG10006AY161061AY261061GF107991041041004501031001MA1999999099741MD1999999+0071MW1021REMSYN016 333 58007 60021
0120823920999991994032012004-03700-040350FM-12+008399999V0209999999999045001CN0200001N9+02531+02361999999ADDAA124002091AG10000GF106991031041004501031001KA1240N+02121MA1999999100051MD1999999+0021REMSYN022 333 20212 58002 60024
0139823920999991994032112004-03700-040350FM-12+008399999V0209999999999045001CN0200001N9+02601+02461999999ADDAA106005091AG10000GF106991041041004501031001KA1240M+99999MA1999999100641MD1999999+0011REMSYN022 333 10220 58001 60051EQDQ01 +02202ATMX  
0153823920999991994032118004-03700-040350FM-12+008399999V0209999999999045001CN0200001N9+02461+02331999999ADDAA106000791AA299001091AG10001AY151061AY251061GF108991031041004501021999MA1999999099752MD1999999-0051MW1021REMSYN016 333 59005 69971EQDQ01+099753APOSP 
0123823920999991994032218004-03700-040350FM-12+008399999V0209999999999045001CN0200001N9+02641+02481999999ADDAA106003091AG10006AY161061AY261061GF107991041071004501031001MA1999999099711MD1999999-0041MW1021REMSYN016 333 59004 60031
0120823920999991994032412004-03700-040350FM-12+008399999V0209999999999045001CN0200001N9+02701+99999999999ADDAA124012091AG10000GF106991041021004501031001KA1240N+02231MA1999999100141MD1999999+0161REMSYN022 333 20223 58016 60124
0120823920999991994032512004-03700-040350FM-12+008399999V0209999999999004201CN0200001N9+02681+02331999999ADDAA124002091AG10000GF106991061041004501001001KA1240N+02211MA1999999100201MD1999999+0061REMSYN022 333 20221 58006 60024
0120823920999991994032612004-03700-040350FM-12+008399999V0209999999999045001CN0200001N9+02561+02381999999ADDAA124001091AG10000GF106991031021004501031001KA1240N+02171MA1999999100161MD1999999-0041REMSYN022 333 20217 59004 60014
0123823920999991994032618004-03700-040350FM-12+008399999V0209999999999045001CN0200001N9+02591+02401999999ADDAA106007091AG10006AY161061AY261061GF107991041061004501011001MA1999999099861MD1999999+0031MW1021REMSYN016 333 58003 60071
0120823920999991994032712004-03700-040350FM-12+008399999V0209999999999045001CN0200001N9+02511+02361999999ADDAA124007091AG10000GF107991031041004501011001KA1240N+02211MA1999999100051MD1999999-0111REMSYN022 333 20221 59011 60074
0095823920999991994032718004-03700-040350FM-12+008399999V0209999999999045001CN0200001N9+02931+02341999999ADDAA106000091AG14000GF106991021011004501031001MA1999999099631MD1999999-0231REMSYN010 333 59023
0123823920999991994032918004-03700-040350FM-12+008399999V0209999999999004201CN0100001N9+02441+99999999999ADDAA124018091AG10006AY161061AY261061GF108991051071004501011999MA1999999099801MD1999999+0241MW1511REMSYN016 333 58024 60184
0139823920999991994033118004-03700-040350FM-12+008399999V0209999999999045001CN0200001N9+03141+02301999999ADDAA106000091AG14000GA1031+001809039GA2021+017509039GF105991031061004501031001MA1999999099781MD1999999-0071REMSYN022 333 59007 83306 82397
0120823920999991994040212004-03700-040350FM-12+008399999V0209999999999045001CN0200001N9+02711+02391999999ADDAA124000591AG10000GF106991041041004501031001KA1240N+02191MA1999999100241MD1999999+0061REMSYN022 333 20219 58006 69954
0123823920999991994040218004-03700-040350FM-12+008399999V0209999999999004201CN0200001N9+02441+99999999999ADDAA106011091AG10006AY161061AY261061GF107991051061004501011001MA1999999099911MD1999999-0031MW1021REMSYN016 333 59003 60111
0095823920999991994040418004-03700-040350FM-12+008399999V0209999999999220001CN0200001N9+03011+02191999999ADDAA106000091AG14000GF105991041021004501001011MA1999999099551MD1999999-0141REMSYN010 333 59014
0123823920999991994040718004-03700-040350FM-12+008399999V0209999999999045001CN0040001N9+02341+99999999999ADDAA106005091AG10006AY161061AY261061GF108991041071004501021999MA1999999099841MD1999999+0071MW1511REMSYN016 333 58007 60051
0120823920999991994040812004-03700-040350FM-12+008399999V0209999999999045001CN0200001N9+02541+02251999999ADDAA124007091AG10000GF106991041041004501031001KA1240N+02161MA1999999099801MD1999999-0291REMSYN022 333 20216 59029 60074
0095823920999991994040818004-03700-040350FM-12+008399999V0209999999999045001CN0040001N9+02961+02281999999ADDAA106000091AG14000GF106991031021004501031001MA1999999099511MD1999999-0331REMSYN010 333 59033
0120823920999991994040912004-03700-040350FM-12+008399999V0209999999999045001CN0200001N9+02681+02351999999ADDAA124000391AG10000GF106991041041004501031001KA1240N+02321MA1999999099911MD1999999+0111REMSYN022 333 20232 58011 69934
0142823920999991994040918004-03700-040350FM-12+008399999V0209999999999045001CN0200001N9+02571+02361999999ADDAA106999999AG10006AY161061AY261061GF106991031061004501031001MA1999999099611MD1999999+0101MW1021REMSYN016 333 58010 69021EQDQ01  90202PRCP06
0142823920999991994041012004-03700-040350FM-12+008399999V0209999999999045001CN0200001N9+02641+02481999999ADDAA124001091AG10006AY161061AY261061GF106991041041004501031001KA1240N+02201MA1999999100051MD1999999+0141MW1021REMSYN022 333 20220 58014 60014
0114823920999991994041112004-03700-040350FM-12+008399999V0209999999999045001CN0200001N9+02681+02351999999ADDAA106000091AG14000GF106991041041004501031001KA1240N+02221MA1999999100031MD1999999-0021REMSYN016 333 20222 59002
0095823920999991994041218004-03700-040350FM-12+008399999V0209999999999045001CN0200001N9+03091+02401999999ADDAA106000091AG14000GF106991041021004501031001MA1999999099671MD1999999-0031REMSYN010 333 59003
0114823920999991994041312004-03700-040350FM-12+008399999V0209999999999220001CN0200001N9+02481+02341999999ADDAA106000091AG14000GF104991011011004501001011KA1240N+02141MA1999999100171MD1999999+0041REMSYN016 333 20214 58004
0115823920999991994041400004-03700-040350FM-12+008399999V0209999999999220001CN9999999N9+02381+99999999999ADDAA106000091AG10000GF103991021021004501011001KA1240M+03001MA1999999100021MD1999999+0031REMSYN017 333 10300 58003;
0115823920999991994041412004-03700-040350FM-12+008399999V0209999999999045001CN0200001N9+02661+02331999999ADDAA106000091AG10000GF106991021021004501031011KA1240N+02111MA1999999100141MD1999999-0011REMSYN017 333 20211 59001;
0096823920999991994041418004-03700-040350FM-12+008399999V0209999999999045001CN0200001N9+02981+02251999999ADDAA106000091AG10000GF106991031021008001031001MA1999999099741MD1999999-0091REMSYN011 333 59009;
0129823920999991994041518004-03700-040350FM-12+008399999V0209999999999045001CN0100001N9+02481+02411999999ADDAA124012091AG10001AY151061AY251061GF107991031041004501031001KA1240N+02221MA1999999100251MW1021REMSYN023 333 20222 50011 60124;
0121823920999991994041612004-03700-040350FM-12+008399999V0209999999999045001CN0200001N9+02721+02481999999ADDAA124005091AG10000GF106991041041004501031001KA1240N+02271MA1999999100111MD1999999-0141REMSYN023 333 20227 59014 60054;
0096823920999991994041618004-03700-040350FM-12+008399999V0209999999999045001CN0200001N9+02971+02421999999ADDAA106000091AG10000GF105991031091004501031011MA1999999099751MD1999999-0031REMSYN011 333 59003;
0143823920999991994041800004-03700-040350FM-12+008399999V0209999999999045001CN9999999N9+02401+99999999999ADDAA106000191AG10001AY151061AY221061GF108991031071004501021999KA1240M+03141MA1999999100041MD1999999-0111MW1521REMSYN023 333 10314 59011 69921;
0143823920999991994041812004-03700-040350FM-12+008399999V0209999999999045001CN0200001N9+02571+02441999999ADDAA124005091AG10006AY161061AY221061GF106991041041004501031001KA1240N+02261MA1999999100101MD1999999-0041MW1031REMSYN023 333 20226 59004 60054;
0073823920999991994041818004-03700-040350FM-12+008399999V0209999999999045001CN0200001N9+02541+02381999999ADDAG10006AY161061AY261061GF108991031061004501021999MA1999999099701MW1021
0143823920999991994041900004-03700-040350FM-12+008399999V0209999999999004201CN9999999N9+02361+99999999999ADDAA106008091AG10006AY161061AY261061GF108991051071004501011999KA1240M+02961MA1999999100041MD1999999+0001MW1021REMSYN023 333 10296 58000 60081;
0121823920999991994041912004-03700-040350FM-12+008399999V0209999999999045001CN0200001N9+02581+02421999999ADDAA124026091AG10000GF108991031071004501021999KA1240N+02211MA1999999100101MD1999999+0001REMSYN023 333 20221 58000 60264;
0121823920999991994042000004-03700-040350FM-12+008399999V0209999999999045001CN0200001N9+02541+02421999999ADDAA124027091AG10000GF108991031061004501021999KA1240N+02161MA1999999100051MD1999999-0051REMSYN023 333 20216 59005 60274;
0124823920999991994042018004-03700-040350FM-12+008399999V0209999999999045001CN0200001N9+02741+02401999999ADDAA106000591AG10001AY151061AY221061GF107991031051004501031011MA1999999099701MD1999999-0021MW1021REMSYN017 333 59002 69951;
0121823920999991994042112004-03700-040350FM-12+008399999V0209999999999045001CN0200001N9+02691+02331999999ADDAA124000591AG10000GF106991021021004501031011KA1240N+02131MA1999999100041MD1999999-0011REMSYN023 333 20213 59001 69954;
0096823920999991994042118004-03700-040350FM-12+008399999V0209999999999045001CN0200001N9+02901+02271999999ADDAA106000091AG10000GF106991021021008001011011MA1999999099691MD1999999-0011REMSYN011 333 59001;
0096823920999991994042218004-03700-040350FM-12+008399999V0209999999999045001CN0200001N9+03101+02291999999ADDAA106000091AG10000GF105991031021008001031001MA1999999099721MD1999999+0031REMSYN011 333 58003;
0115823920999991994042300004-03700-040350FM-12+008399999V0209999999999045001CN9999999N9+02531+02291999999ADDAA106000091AG10000GF106991021021004501031001KA1240M+03101MA1999999100071MD1999999+0081REMSYN017 333 10310 58008;
0115823920999991994042312004-03700-040350FM-12+008399999V0209999999999045001CN0200001N9+02761+02321999999ADDAA106000091AG10000GF105991021021008001031001KA1240N+02391MA1999999100191MD1999999+0141REMSYN017 333 20239 58014;
0096823920999991994042318004-03700-040350FM-12+008399999V0209999999999045001CN0200001N9+03131+02461999999ADDAA106000091AG10000GF106991021021008001031011MA1999999099741MD1999999+0021REMSYN011 333 58002;
0121823920999991994042412004-03700-040350FM-12+008399999V0209999999999045001CN0100001N9+02641+02391999999ADDAA124003091AG10000GF107991041041004501031001KA1240N+02171MA1999999100191MD1999999+0001REMSYN023 333 20217 58000 60034;
0096823920999991994042418004-03700-040350FM-12+008399999V0209999999999105001CN0200001N9+03041+02231999999ADDAA106000091AG10000GF105991021021008001031011MA1999999099821MD1999999+0081REMSYN011 333 58008;
0115823920999991994042612004-03700-040350FM-12+008399999V0209999999999220001CN0200001N9+02701+02411999999ADDAA106000091AG10000GF103991021021004501031001KA1240N+02191MA1999999100001MD1999999-0151REMSYN017 333 20219 59015;
0124823920999991994042618004-03700-040350FM-12+008399999V0209999999999004201CN0200001N9+02561+02361999999ADDAA106002091AG10000AY101061AY221061GF107991061071004501031001MA1999999099711MD1999999-0051MW1611REMSYN017 333 59005 60021;
0121823920999991994042712004-03700-040350FM-12+008399999V0209999999999045001CN0200001N9+02511+02381999999ADDAA124028091AG10000GF108991031061004501021999KA1240N+02241MA1999999100001MD1999999+0001REMSYN023 333 20224 58000 60284;
0100823920999991994042718004-03700-040350FM-12+008399999V0209999999999045001CN0200001N9+02901+02521999999ADDAA106000091AG10000GF108991031071004501021999MD1999999-0081REMSYN011 333 59008;EQDQ01+095633APOSP 
0143823920999991994042800004-03700-040350FM-12+008399999V0209999999999004201CN9999999N9+02301+99999999999ADDAA106103091AG10006AY161061AY261061GF108991081061004501999999KA1240M+02961MA1999999100031MD1999999+0061MW1971REMSYN023 333 10296 58006 61031;
0143823920999991994042812004-03700-040350FM-12+008399999V0209999999999002101CN0040001N9+02261+99999999999ADDAA124148091AG10006AY161061AY261061GF108991081071002501999999KA1240N+02001MA1999999100281MD1999999+0281MW1021REMSYN023 333 20200 58028 61484;
0096823920999991994042818004-03700-040350FM-12+008399999V0209999999999045001CN0200001N9+02761+02441999999ADDAA106000091AG10000GF107991041041004501031011MA1999999099841MD1999999+0211REMSYN011 333 58021;
0143823920999991994043000004-03700-040350FM-12+008399999V0209999999999045001CN9999999N9+02301+99999999999ADDAA106024091AG10006AY161061AY261061GF106991031041004501021001KA1240M+02961MA1999999100101MD1999999+0001MW1021REMSYN023 333 10296 58000 60241;
0121823920999991994043012004-03700-040350FM-12+008399999V0209999999999045001CN0200001N9+02591+02271999999ADDAA124008091AG10000GF106991031021004501031001KA1240N+02081MA1999999100161MD1999999-0041REMSYN023 333 20208 59004 60084;
0115823920999991994050100004-03700-040350FM-12+008399999V0209999999999045001CN9999999N9+02451+02301999999ADDAA106000091AG10000GF106991041021004501031001KA1240M+03041MA1999999100141MD1999999+0041REMSYN017 333 10304 58004;
0115823920999991994050112004-03700-040350FM-12+008399999V0209999999999045001CN0200001N9+02661+02371999999ADDAA106000091AG10000GF106991041041004501031001KA1240N+02131MA1999999100231MD1999999+0071REMSYN017 333 20213 58007;
0115823920999991994050200004-03700-040350FM-12+008399999V0209999999999220001CN9999999N9+02501+02361999999ADDAA106000091AG10000GF102991021001008001031001KA1240M+03041MA1999999100211MD1999999+0071REMSYN017 333 10304 58007;
0143823920999991994050212004-03700-040350FM-12+008399999V0209999999999220001CN0200001N9+02601+02401999999ADDAA124000591AG10005AY161061AY201061GF103991021021004501001011KA1240N+02281MA1999999100351MD1999999+0121MW1031REMSYN023 333 20228 58012 69964;
0096823920999991994050218004-03700-040350FM-12+008399999V0209999999999045001CN0200001N9+02801+02221999999ADDAA106000091AG10000GF106991041041004501031001MA1999999099981MD1999999+0141REMSYN011 333 58014;
0115823920999991994050312004-03700-040350FM-12+008399999V0209999999999220001CN0200001N9+02761+02341999999ADDAA106000091AG10000GF104991031021004501001011KA1240N+02181MA1999999100201MD1999999-0151REMSYN017 333 20218 59015;
0096823920999991994050318004-03700-040350FM-12+008399999V0209999999999045001CN0200001N9+03091+02321999999ADDAA106000091AG10000GF106991041021004501031001MA1999999099751MD1999999-0231REMSYN011 333 59023;
0121823920999991994050512004-03700-040350FM-12+008399999V0209999999999045001CN0200001N1+02741+02341999999ADDAA124036091AG10000GF106991041021004501031011KA1240N+02151MA1999999100181MD1999999+0021REMSYN023 333 20215 58002 60364;
0096823920999991994050518004-03700-040350FM-12+008399999V0209999999999045001CN0200001N1+03121+02191999999ADDAA106000091AG10000GF106991021021008001031011MA1999999099831MD1999999-0051REMSYN011 333 59005;
0121823920999991994050612004-03700-040350FM-12+008399999V0209999999999220001CN0200001N1+02491+02341999999ADDAA124005091AG10000GF102991021011004501001001KA1240N+02071MA1999999100221MD1999999+0041REMSYN023 333 20207 58004 60054;
0096823920999991994050618004-03700-040350FM-12+008399999V0209999999999220001CN0200001N1+03091+02191999999ADDAA106000091AG10000GF103991031011008001031001MA1999999099781MD1999999-0051REMSYN011 333 59005;
0115823920999991994050712004-03700-040350FM-12+008399999V0209999999999045001CN0200001N1+02761+02321999999ADDAA106000091AG10000GF105991031021004501011001KA1240N+02211MA1999999100041MD1999999-0181REMSYN017 333 20221 59018;
0096823920999991994050718004-03700-040350FM-12+008399999V0209999999999045001CN0200001N1+03061+02301999999ADDAA106000091AG10000GF106991021031008001031001MA1999999099701MD1999999-0081REMSYN011 333 59008;
0096823920999991994051018004-03700-040350FM-12+008399999V0209999999999045001CN0200001N1+02701+02361999999ADDAA106000091AG10000GF107991041061008001011001MA1999999099861MD1999999+0021REMSYN011 333 58002;
0134823920999991994051100004-03700-040350FM-12+008399999V0209999999999004201CN9999999N9+02441+99999999999ADDAA106000091AG10000GF107991051011004501061001KA1240M+03061MA1999999100101MD1999999-0071REMSYN017 333 10306 59007;EQDQ01+000002VOVAR 
0115823920999991994051112004-03700-040350FM-12+008399999V0209999999999220001CN0200001N1+02661+02371999999ADDAA106000091AG10000GF103991021011004501001011KA1240N+02231MA1999999100191MD1999999+0001REMSYN017 333 20223 58000;
0162823920999991994051200004-03700-040350FM-12+008399999V0209999999999045001CN9999999N9+02411+99999999999ADDAA106000191AG10000AY101061AY221061GF108991041051004501061999KA1240M+03081MA1999999100131MD1999999+0031MW1511REMSYN023 333 10308 58003 69911;EQDQ01+000002VOVAR 
0143823920999991994051212004-03700-040350FM-12+008399999V0209999999999045001CN0200001N1+02611+02311999999ADDAA124022091AG10005AY161061AY261061GF107991041041004501031001KA1240N+02111MA1999999100251MD1999999+0061MW1021REMSYN023 333 20211 58006 60224;
0124823920999991994051218004-03700-040350FM-12+008399999V0209999999999045001CN0200001N1+02781+02361999999ADDAA106000191AG10000AY101061AY221061GF107991041061004501031001MA1999999099971MD1999999+0171MW1511REMSYN017 333 58017 69921;
0124823920999991994051318004-03700-040350FM-12+008399999V0209999999999004201CN0040001N1+02521+99999999999ADDAA106000391AG10000AY101061AY221061GF107991051061004501031001MA1999999099791MD1999999-0181MW1511REMSYN017 333 59018 69931;
0143823920999991994051412004-03700-040350FM-12+008399999V0209999999999045001CN0200001N1+02491+02291999999ADDAA124015091AG10001AY151061AY251061GF106991031041004501031001KA1240N+02211MA1999999100101MD1999999-0011MW1021REMSYN023 333 20221 59001 60154;
0096823920999991994051418004-03700-040350FM-12+008399999V0209999999999220001CN0200001N1+02931+02221999999ADDAA106000091AG10000GF104991021021008001031001MA1999999099771MD1999999-0021REMSYN011 333 59002;
0150823920999991994051500004-03700-040350FM-12+008399999V0209999999999220001CN9999999N9+02411+02261999999ADDAA106000091AG10000GA1001+999999999GF100991001001999999001001KA1240M+03041MA1999999100021MD1999999-0201REMSYN017 333 10304 59020;EQDQ01+000002VOVAR 
0124823920999991994051718004-03700-040350FM-12+008399999V0209999999999045001CN0100001N1+02561+02291999999ADDAA106000591AG10000AY101061AY221061GF106991041061004501031001MA1999999099741MD1999999-0101MW1611REMSYN017 333 59010 69951;
0134823920999991994051900004-03700-040350FM-12+008399999V0209999999999045001CN9999999N9+02431+99999999999ADDAA106000091AG10000GF107991011071008001031001KA1240M+03101MA1999999100071MD1999999-0021REMSYN017 333 10310 59002;EQDQ01+000002VOVAR 
0115823920999991994051912004-03700-040350FM-12+008399999V0209999999999045001CN0200001N1+02581+02221999999ADDAA106000091AG10000GF106991031041004501031001KA1240N+02181MA1999999100211MD1999999-0071REMSYN017 333 20218 59007;
0096823920999991994051918004-03700-040350FM-12+008399999V0209999999999045001CN0200001N1+02881+02301999999ADDAA106000091AG10000GF106991021021008001031001MA1999999099801MD1999999+0051REMSYN011 333 58005;
0096823920999991994052018004-03700-040350FM-12+008399999V0209999999999220001CN0200001N1+02931+02361999999ADDAA106000091AG10000GF104991021021008001031001MA1999999099731MD1999999-0071REMSYN011 333 59007;
0162823920999991994052100004-03700-040350FM-12+008399999V0209999999999045001CN9999999N9+02421+99999999999ADDAA106002091AG10005AY161061AY261061GF107991041061004501031001KA1240M+03021MA1999999100131MD1999999+0061MW1021REMSYN023 333 10302 58006 60021;EQDQ01+000002VOVAR 
0121823920999991994052112004-03700-040350FM-12+008399999V0209999999999045001CN0200001N1+02491+02211999999ADDAA124002091AG10000GF107991041041004501031001KA1240N+02201MA1999999100241MD1999999+0111REMSYN023 333 20220 58011 60024;
0096823920999991994052118004-03700-040350FM-12+008399999V0209999999999045001CN0200001N1+02861+02421999999ADDAA106000091AG10000GF106991031041004501031001MA1999999099801MD1999999+0071REMSYN011 333 58007;
0162823920999991994052200004-03700-040350FM-12+008399999V0209999999999045001CN9999999N9+02441+02301999999ADDAA106001091AG10005AY161061AY261061GF108991041061004501021999KA1240M+02881MA1999999100101MD1999999-0031MW1021REMSYN023 333 10288 59003 60011;EQDQ01+000002VOVAR 
0121823920999991994052212004-03700-040350FM-12+008399999V0209999999999220001CN0200001N1+02761+02321999999ADDAA124001091AG10000GF102991011011008001031001KA1240N+02091MA1999999100221MD1999999-0021REMSYN023 333 20209 59002 60014;
0143823920999991994052312004-03700-040350FM-12+008399999V0209999999999220001CN0200001N1+02611+02251999999ADDAA124000191AG10001AY151061AY221061GF103991021011004501001011KA1240N+02641MA1999999100201MD1999999-0021MW1021REMSYN023 333 20264 59002 69924;
0096823920999991994052318004-03700-040350FM-12+008399999V0209999999999220001CN0200001N1+03021+02241999999ADDAA106000091AG10000GF103991031011004501001001MA1999999099891MD1999999+0031REMSYN011 333 58003;
0124823920999991994052418004-03700-040350FM-12+008399999V0209999999999105001CN0200001N1+02941+02261999999ADDAA106000191AG10001AY151061AY251061GF105991011021008001031011MA1999999099841MD1999999-0051MW1021REMSYN017 333 59005 69921;
0121823920999991994052512004-03700-040350FM-12+008399999V0209999999999220001CN0200001N1+02641+02251999999ADDAA124000191AG10000GF102991021011004501001001KA1240N+02081MA1999999100171MD1999999-0041REMSYN023 333 20208 59004 69924;
0115823920999991994052612004-03700-040350FM-12+008399999V0209999999999045001CN0200001N1+02681+02311999999ADDAA106000091AG10000GF106991041041004501031001KA1240N+02091MA1999999100041MD1999999-0131REMSYN017 333 20209 59013;
0115823920999991994052618004-03700-040350FM-12+008399999V0209999999999220001CN0200001N1+99999+99999999999ADDAA106000091AG10000GF101991999051008001031001MA1999999099671MD1999999-0071REMSYN011 333 59007;EQDQ01+000022SCOTLC
0134823920999991994052700004-03700-040350FM-12+008399999V0209999999999220001CN9999999N9+02431+99999999999ADDAA106000091AG10000GF105991041021004501001011KA1240M+03131MA1999999099921MD1999999-0081REMSYN017 333 10313 59008;EQDQ01+000002VOVAR 
0115823920999991994052712004-03700-040350FM-12+008399999V0209999999999220001CN0200001N1+02661+02311999999ADDAA106000091AG10000GF104991031021004501031001KA1240N+02141MA1999999100011MD1999999-0031REMSYN017 333 20214 59003;
0115823920999991994052812004-03700-040350FM-12+008399999V0209999999999045001CN0200001N1+02571+02311999999ADDAA106000091AG10000GF106991031021004501031001KA1240N+02041MA1999999100121MD1999999+0111REMSYN017 333 20204 58011;
0096823920999991994052818004-03700-040350FM-12+008399999V0209999999999220001CN0200001N1+03091+02321999999ADDAA106000091AG10000GF105991021021008001001011MA1999999099721MD1999999+0071REMSYN011 333 58007;
0115823920999991994052912004-03700-040350FM-12+008399999V0209999999999007501CN0200001N1+02671+02291999999ADDAA106000091AG10000GF106991061021008001001001KA1240N+02151MA1999999100091MD1999999-0031REMSYN017 333 20215 59003;
0115823920999991994053012004-03700-040350FM-12+008399999V0209999999999045001CN0200001N1+02781+02381999999ADDAA106000091AG10000GF106991041041004501031001KA1240N+02161MA1999999100081MD1999999-0011REMSYN017 333 20216 59001;
0096823920999991994053018004-03700-040350FM-12+008399999V0209999999999045001CN0200001N1+02761+02341999999ADDAA106000091AG10000GF106991041041004501031001MA1999999099761MD1999999+0041REMSYN011 333 58004;
0096823920999991994053118004-03700-040350FM-12+008399999V0209999999999045001CN0200001N1+02991+02171999999ADDAA106000091AG10000GF105991021021008001031001MA1999999099861MD1999999+0101REMSYN011 333 58010;
0134823920999991994060100004-03700-040350FM-12+008399999V0209999999999220001CN9999999N9+02341+99999999999ADDAA106000091AG10000GF101991011021008001001001KA1240M+03081MA1999999100151MD1999999+0101REMSYN017 333 10308 58010;EQDQ01+000002VOVAR 
0117823920999991994060112004-03700-040350FM-12+008399999V02099999999999999999N0200001N1+02541+02381999999ADDAA124000191AG10000AY151061AY221061KA1240N+02141MA1999999100201MD1999999+0041MW1031REMSYN023 333 20214 58004 69924;
0096823920999991994060118004-03700-040350FM-12+008399999V0209999999999045001CN0200001N1+02841+02241999999ADDAA106000091AG10000GF107991041051004501031001MA1999999099981MD1999999+0121REMSYN011 333 58012;
0134823920999991994060200004-03700-040350FM-12+008399999V0209999999999045001CN9999999N9+02381+99999999999ADDAA106000091AG10000GF108991041061004501021999KA1240M+03041MA1999999100251MD1999999+0101REMSYN017 333 10304 58010;EQDQ01+000002VOVAR 
0143823920999991994060212004-03700-040350FM-12+008399999V0209999999999045001CN0200001N1+02661+02271999999ADDAA124000191AG10000AY151061AY251061GF105991031021004501031001KA1240N+02221MA1999999100231MD1999999+0031MW1021REMSYN023 333 20222 58003 69924;
0096823920999991994060218004-03700-040350FM-12+008399999V0209999999999220001CN0200001N1+03041+02241999999ADDAA106000091AG10000GF103991031021008001001001MA1999999099791MD1999999-0191REMSYN011 333 59019;
0143823920999991994060312004-03700-040350FM-12+008399999V0209999999999220001CN0200001N1+02561+02441999999ADDAA124010091AG10000AY151061AY251061GF104991031021004501031001KA1240N+02161MA1999999100211MD1999999-0021MW1031REMSYN023 333 20216 59002 60104;
0124823920999991994060318004-03700-040350FM-12+008399999V0209999999999045001CN0200001N1+02601+02351999999ADDAA106002091AG10005AY161061AY261061GF107991041061004501011001MA1999999099931MD1999999+0041MW1021REMSYN017 333 58004 60021;
0121823920999991994060412004-03700-040350FM-12+008399999V0209999999999045001CN0200001N1+02561+02361999999ADDAA124002091AG10000GF106991031041004501031011KA1240N+02211MA1999999100371MD1999999+0061REMSYN023 333 20221 58006 60024;
0134823920999991994060500004-03700-040350FM-12+008399999V0209999999999045001CN0200001N1+02541+02331999999ADDAA106000091AG10000GF105991031041004501031001KA1240M+99999MA1999999100361MD1999999-0011REMSYN017 333 10213 59001;EQDQ01 +02132ATMX  
0150823920999991994060512004-03700-040350FM-12+008399999V0209999999999220001CN9999999N9+02371+99999999999ADDAA106000091AG10000GA1001+999999999GF100991001001999999001001KA1240M+03141MA1999999100311MD1999999+0061REMSYN017 333 10314 58006;EQDQ01+000002VOVAR 
0096823920999991994060718004-03700-040350FM-12+008399999V0209999999999220001CN0200001N1+02941+02111999999ADDAA106000091AG10000GF102991011021008001031001MA1999999100131MD1999999+0131REMSYN011 333 58013;
0115823920999991994060912004-03700-040350FM-12+008399999V0209999999999220001CN0200001N1+02581+02271999999ADDAA106000091AG10000GF104991031011008001031001KA1240N+02041MA1999999100451MD1999999+0001REMSYN017 333 20204 58000;
0096823920999991994060918004-03700-040350FM-12+008399999V0209999999999007501CN0200001N1+03131+02281999999ADDAA106000091AG10000GF105991051021008001001001MA1999999100071MD1999999-0051REMSYN011 333 59005;
0124823920999991994061018004-03700-040350FM-12+008399999V0209999999999004201CN0200001N1+02791+02211999999ADDAA106004091AG10000AY101061AY221061GF105991051061004501001001MA1999999100111MD1999999+0071MW1921REMSYN017 333 58007 60041;
0143823920999991994061112004-03700-040350FM-12+008399999V0209999999999004201CN0100001N1+02461+99999999999ADDAA124007091AG10000AY101061AY221061GF107991051061004501011001KA1240N+02041MA1999999100311MD1999999-0151MW1921REMSYN023 333 20204 59015 60074;
0096823920999991994061118004-03700-040350FM-12+008399999V0209999999999045001CN0200001N1+02901+02221999999ADDAA106000091AG10000GF106991041061004501031001MA1999999099941MD1999999-0171REMSYN011 333 59017;
0115823920999991994061212004-03700-040350FM-12+008399999V0209999999999220001CN0200001N1+02481+02171999999ADDAA106000091AG10000GF102991011011008001031001KA1240N+01881MA1999999100201MD1999999-0111REMSYN017 333 20188 59011;
0134823920999991994061300004-03700-040350FM-12+008399999V0209999999999220001CN9999999N9+02441+99999999999ADDAA106000091AG10000GF102991021001008001031001KA1240M+03141MA1999999100101MD1999999-0021REMSYN017 333 10314 59002;EQDQ01+000002VOVAR 
0115823920999991994061312004-03700-040350FM-12+008399999V0209999999999045001CN0200001N1+02401+99999999999ADDAA106000091AG10000GF107991041051004501031001KA1240N+02011MA1999999100221MD1999999+0021REMSYN017 333 20201 58002;
0124823920999991994061318004-03700-040350FM-12+008399999V0209999999999045001CN0040001N1+02441+99999999999ADDAA106003091AG10000AY151061AY261061GF108991031081004501021999MA1999999100001MD1999999+0101MW1631REMSYN017 333 58010 60031;
0143823920999991994061412004-03700-040350FM-12+008399999V0209999999999045001CN0200001N1+02341+99999999999ADDAA124018091AG10005AY161061AY261061GF108991031071004501021999KA1240N+02171MA1999999100401MD1999999+0181MW1021REMSYN023 333 20217 58018 60184;
0096823920999991994061418004-03700-040350FM-12+008399999V0209999999999045001CN0200001N1+02771+02231999999ADDAA106000091AG10000GF106991031041004501031001MA1999999100071MD1999999+0071REMSYN011 333 58007;
0115823920999991994061512004-03700-040350FM-12+008399999V0209999999999220001CN0200001N1+02681+02311999999ADDAA106000091AG10000GF103991021011004501001011KA1240N+02061MA1999999100351MD1999999-0051REMSYN017 333 20206 59005;
0096823920999991994061518004-03700-040350FM-12+008399999V0209999999999220001CN0200001N1+03031+02181999999ADDAA106000091AG10000GF104991031021004501001011MA1999999100001MD1999999-0071REMSYN011 333 59007;
0115823920999991994061612004-03700-040350FM-12+008399999V0209999999999220001CN0200001N1+02641+02311999999ADDAA106000091AG10000GF104991021021008001031001KA1240N+02151MA1999999100411MD1999999+0061REMSYN017 333 20215 58006;
0096823920999991994061618004-03700-040350FM-12+008399999V0209999999999220001CN0200001N1+03091+02241999999ADDAA106000091AG10000GF103991021021008001031001MA1999999099931MD1999999-0071REMSYN011 333 59007;
0115823920999991994061712004-03700-040350FM-12+008399999V0209999999999045001CN0200001N1+02591+02291999999ADDAA106000091AG10000GF106991041041004501031001KA1240N+02201MA1999999100241MD1999999-0171REMSYN017 333 20220 59017;
0124823920999991994061718004-03700-040350FM-12+008399999V0209999999999004201CN0006001N1+02311+99999999999ADDAA106016091AG10005AY161061AY261061GF107991051061004501011001MA1999999099991MD1999999+0061MW1931REMSYN017 333 58006 60161;
0121823920999991994061812004-03700-040350FM-12+008399999V0209999999999045001CN0200001N1+02561+02251999999ADDAA124016091AG10000GF105991031021004501031001KA1240N+02141MA1999999100131MD1999999-0111REMSYN023 333 20214 59011 60164;
0096823920999991994061818004-03700-040350FM-12+008399999V0209999999999045001CN0200001N1+03031+02161999999ADDAA106000091AG10000GF105991031021008001031001MA1999999099801MD1999999-0191REMSYN011 333 59019;
0115823920999991994061912004-03700-040350FM-12+008399999V0209999999999220001CN0200001N1+02641+02411999999ADDAA106000091AG10000GF105991031021004501001011KA1240N+02221MA1999999100151MD1999999+0021REMSYN017 333 20222 58002;
0096823920999991994061918004-03700-040350FM-12+008399999V0209999999999045001CN0200001N1+02921+02241999999ADDAA106000091AG10000GF107991041041004501031001MA1999999099841MD1999999+0041REMSYN011 333 58004;
0115823920999991994062012004-03700-040350FM-12+008399999V0209999999999220001CN0200001N1+02721+02241999999ADDAA106000091AG10000GF103991031011004501001001KA1240N+02171MA1999999100151MD1999999+0001REMSYN017 333 20217 58000;
0131823920999991994062112004-03700-040350FM-12+008399999V0209999999999045001CN0200001N9+02571+02381999999ADDAA124000691AA299000591AG10000GF106991041011004501031001KA1240N+02151MA1999999100141MD1999999-0011REMSYN022 333 20215 59001 69964
0124823920999991994062118004-03700-040350FM-12+008399999V0209999999999045001CN0200001N1+02891+02351999999ADDAA106002091AG10005AY161061AY261061GF105991031021004501031001MA1999999099761MD1999999-0011MW1021REMSYN017 333 59001 60021;
0143823920999991994062212004-03700-040350FM-12+008399999V0209999999999045001CN0200001N1+02501+02341999999ADDAA124015091AG10005AY161061AY261061GF107991041061004501011001KA1240N+02141MA1999999100191MD1999999+0051MW1021REMSYN023 333 20214 58005 60154;
0096823920999991994062218004-03700-040350FM-12+008399999V0209999999999045001CN0200001N1+02971+02101999999ADDAA106000091AG10000GF105991041011004501031001MA1999999099801MD1999999+0041REMSYN011 333 58004;
0134823920999991994062300004-03700-040350FM-12+008399999V0209999999999045001CN9999999N9+02461+99999999999ADDAA106000091AG10000GF106991011011008001031001KA1240M+03021MA1999999100091MD1999999+0051REMSYN017 333 10302 58005;EQDQ01+000002VOVAR 
0115823920999991994062312004-03700-040350FM-12+008399999V0209999999999045001CN0200001N1+02551+02291999999ADDAA106000091AG10000GF106991031041004501031001KA1240N+02091MA1999999100251MD1999999+0061REMSYN017 333 20209 58006;
0124823920999991994062318004-03700-040350FM-12+008399999V0209999999999045001CN0200001N1+02451+02231999999ADDAA106014091AG10005AY161061AY261061GF106991031061004501011001MA1999999099981MD1999999+0181MW1021REMSYN017 333 58018 60141;
0134823920999991994062400004-03700-040350FM-12+008399999V0209999999999004201CN9999999N9+02281+99999999999ADDAA106000091AG10000GF106991051051004501031001KA1240M+02711MA1999999100031MD1999999-0061REMSYN017 333 10271 59006;EQDQ01+000002VOVAR 
0143823920999991994062412004-03700-040350FM-12+008399999V0209999999999045001CN0200001N1+02321+99999999999ADDAA124014091AG10000AY151061AY251061GF105991041011004501031001KA1240N+01931MA1999999100131MD1999999-0121MW1021REMSYN023 333 20193 59012 60144;
0096823920999991994062418004-03700-040350FM-12+008399999V0209999999999045001CN0200001N1+02941+02191999999ADDAA106000091AG10000GF106991031021008001031001MA1999999099791MD1999999-0191REMSYN011 333 59019;
0115823920999991994062512004-03700-040350FM-12+008399999V0209999999999105001CN0200001N1+02511+02211999999ADDAA106000091AG10000GF106991041021004501001031KA1240N+02041MA1999999100151MD1999999+0021REMSYN017 333 20204 58002;
0121823920999991994062612004-03700-040350FM-12+008399999V0209999999999004201CN0200001N1+02491+99999999999ADDAA124035091AG10000GF107991051041004501031001KA1240N+02081MA1999999100291MD1999999+0141REMSYN023 333 20208 58014 60354;
0121823920999991994062712004-03700-040350FM-12+008399999V0209999999999045001CN0200001N1+02301+99999999999ADDAA124012091AG10000GF108991031061004501021999KA1240N+02041MA1999999100291MD1999999+0001REMSYN023 333 20204 58000 60124;
0096823920999991994062718004-03700-040350FM-12+008399999V0209999999999045001CN0200001N1+02801+02291999999ADDAA106000091AG10000GF105991031021004501031011MA1999999099951MD1999999+0001REMSYN011 333 58000;
0134823920999991994062812004-03700-040350FM-12+008399999V0209999999999045001CN0200001N9+02501+02441999999ADDAA124000291AA299000191AG10000AY151061AY221061GF108991041071004501021999MA1999999100261MD1999999-0031MW1031REMSYN016 333 59003 69924
0124823920999991994062818004-03700-040350FM-12+008399999V0209999999999045001CN0200001N1+02701+02351999999ADDAA106000191AG10000AY151061AY251061GF106991031041004501031001MA1999999099991MD1999999+0041MW1021REMSYN017 333 58004 69911;
0150823920999991994062900004-03700-040350FM-12+008399999V0209999999999220001CN9999999N9+02371+99999999999ADDAA106000091AG10000GA1001+999999999GF100991001001999999001001KA1240M+02941MA1999999100241MD1999999+0011REMSYN017 333 10294 58001;EQDQ01+000002VOVAR 
0143823920999991994062912004-03700-040350FM-12+008399999V0209999999999045001CN0200001N1+02491+02271999999ADDAA124002091AG10000AY151061AY261061GF105991031021004501031001KA1240N+02221MA1999999100351MD1999999+0091MW1021REMSYN023 333 20222 58009 60024;
0124823920999991994062918004-03700-040350FM-12+008399999V0209999999999004201CN0200001N1+02681+02241999999ADDAA106002091AG10000AY151061AY221061GF107991051041004501031001MA1999999100111MD1999999+0111MW1031REMSYN017 333 58011 60021;
0143823920999991994063012004-03700-040350FM-12+008399999V0209999999999220001CN0200001N1+02531+02171999999ADDAA124006091AG10005AY161061AY261061GF103991031021004501001001KA1240N+02001MA1999999100031MD1999999-0021MW1021REMSYN023 333 20200 59002 60064;
0096823920999991994063018004-03700-040350FM-12+008399999V0209999999999220001CN0200001N1+02961+01901999999ADDAA106000091AG10000GF102991021021008001001001MA1999999099971MD1999999-0141REMSYN011 333 59014;
0115823920999991994070112004-03700-040350FM-12+008399999V0209999999999220001CN0200001N1+02671+02041999999ADDAA106000091AG10000GF103991031021004501001001KA1240N+02131MA1999999100241MD1999999-0091REMSYN017 333 20213 59009;
0134823920999991994070200004-03700-040350FM-12+008399999V0209999999999220001CN9999999N9+02261+99999999999ADDAA106000091AG10000GF102991021001012501031001KA1240M+03021MA1999999100131MD1999999-0031REMSYN017 333 10302 59003;EQDQ01+000002VOVAR 
0115823920999991994070212004-03700-040350FM-12+008399999V0209999999999220001CN0200001N1+02491+02151999999ADDAA106000091AG10000GF102991021011008001001001KA1240N+01891MA1999999100251MD1999999+0011REMSYN017 333 20189 58001;
0096823920999991994070218004-03700-040350FM-12+008399999V0209999999999045001CN0200001N1+02941+01791999999ADDAA106000091AG10000GF105991041041008001031001MA1999999099921MD1999999+0041REMSYN011 333 58004;
0150823920999991994070300004-03700-040350FM-12+008399999V0209999999999220001CN9999999N9+02441+01861999999ADDAA106000091AG10000GA1001+999999999GF100991001001999999001001KA1240M+03011MA1999999100171MD1999999+0041REMSYN017 333 10301 58004;EQDQ01+000002VOVAR 
0115823920999991994070312004-03700-040350FM-12+008399999V0209999999999220001CN0200001N1+02471+02031999999ADDAA106000091AG10000GF102991011011008001031001KA1240N+01801MA1999999100231MD1999999-0021REMSYN017 333 20180 59002;
0096823920999991994070318004-03700-040350FM-12+008399999V0209999999999105001CN0200001N1+02981+02151999999ADDAA106000091AG10000GF105991021021004501031011MA1999999099931MD1999999+0011REMSYN011 333 58001;
0096823920999991994070412004-03700-040350FM-12+008399999V0209999999999220001CN0200001N1+02701+02081999999ADDAA106000091AG10000GF101991011011004501001001MA1999999100181MD1999999+0051REMSYN011 333 58005;
0115823920999991994070512004-03700-040350FM-12+008399999V0209999999999045001CN0200001N1+02571+02131999999ADDAA106000091AG10000GF106991041021008001031001KA1240N+02071MA1999999100231MD1999999-0051REMSYN017 333 20207 59005;
0096823920999991994070518004-03700-040350FM-12+008399999V0209999999999220001CN0200001N1+03031+01811999999ADDAA106000091AG10000GF102991011011008001031001MA1999999099811MD1999999-0121REMSYN011 333 59012;
0150823920999991994070600004-03700-040350FM-12+008399999V0209999999999220001CN9999999N9+02431+01791999999ADDAA106000091AG10000GA1001+999999999GF100991001001999999001001KA1240M+03041MA1999999100081MD1999999-0091REMSYN017 333 10304 59009;EQDQ01+000002VOVAR 
0115823920999991994070612004-03700-040350FM-12+008399999V0209999999999220001CN0200001N1+02431+01931999999ADDAA106000091AG10000GF101991011011008001001001KA1240N+01781MA1999999100101MD1999999-0131REMSYN017 333 20178 59013;
0096823920999991994070618004-03700-040350FM-12+008399999V0209999999999220001CN0200001N1+02991+02001999999ADDAA106000091AG10000GF102991021021008001001001MA1999999099761MD1999999-0051REMSYN011 333 59005;
0115823920999991994070712004-03700-040350FM-12+008399999V0209999999999045001CN0200001N1+02621+02291999999ADDAA106000091AG10000GF106991031021004501031001KA1240N+02171MA1999999100221MD1999999+0121REMSYN017 333 20217 58012;
0096823920999991994070718004-03700-040350FM-12+008399999V0209999999999045001CN0200001N1+02921+02221999999ADDAA106000091AG10000GF107991031041008001031001MA1999999099941MD1999999+0181REMSYN011 333 58018;
0124823920999991994070818004-03700-040350FM-12+008399999V0209999999999045001CN0200001N1+03041+02231999999ADDAA106000191AG10000AY101061AY221061GF106991041041008001031001MA1999999099991MD1999999+0051MW1511REMSYN017 333 58005 69911;
0121823920999991994070912004-03700-040350FM-12+008399999V0209999999999045001CN0200001N1+02541+02211999999ADDAA124000191AG10000GF106991021021004501031001KA1240N+02041MA1999999100421MD1999999+0071REMSYN023 333 20204 58007 69914;
0096823920999991994071018004-03700-040350FM-12+008399999V0209999999999045001CN0200001N1+02861+02231999999ADDAA106000091AG10000GF106991021021008001031001MA1999999100221MD1999999+0071REMSYN011 333 58007;
0121823920999991994071112004-03700-040350FM-12+008399999V0209999999999045001CN0200001N1+02511+02151999999ADDAA124000591AG10000GF107991031041004501031001KA1240N+02291MA1999999100671MD1999999-0031REMSYN023 333 20229 59003 69964;
0096823920999991994071118004-03700-040350FM-12+008399999V0209999999999045001CN0200001N1+02901+02021999999ADDAA106000091AG10000GF105991021011008001031001MA1999999100291MD1999999+0071REMSYN011 333 58007;
0134823920999991994071200004-03700-040350FM-12+008399999V0209999999999220001CN9999999N9+02411+01861999999ADDAA106000091AG10000GF104991031021004501031001KA1240M+02981MA1999999100531MD1999999+0041REMSYN017 333 10298 58004;EQDQ01+000002VOVAR 
0115823920999991994071212004-03700-040350FM-12+008399999V0209999999999220001CN0018001N1+02481+01961999999ADDAA106000091AG10000GF101991011001012501031001KA1240N+01751MA1999999100621MD1999999-0051REMSYN017 333 20175 59005;
0096823920999991994071218004-03700-040350FM-12+008399999V0209999999999045001CN0200001N1+03091+01711999999ADDAA106000091AG10000GF105991011011008001031001MA1999999100131MD1999999-0161REMSYN011 333 59016;
0134823920999991994071300004-03700-040350FM-12+008399999V0209999999999220001CN9999999N9+02441+01921999999ADDAA106000091AG10000GF102991021001012501031001KA1240M+03171MA1999999100381MD1999999-0151REMSYN017 333 10317 59015;EQDQ01+000002VOVAR 
0115823920999991994071312004-03700-040350FM-12+008399999V0209999999999220001CN0200001N1+02561+02151999999ADDAA106000091AG10000GF102991011011008001031001KA1240N+02151MA1999999100471MD1999999-0151REMSYN017 333 20215 59015;
0096823920999991994071318004-03700-040350FM-12+008399999V0209999999999045001CN0200001N1+02981+01831999999ADDAA106000091AG10000GF106991021041008001031001MA1999999100121MD1999999-0011REMSYN011 333 59001;
0115823920999991994071412004-03700-040350FM-12+008399999V0209999999999220001CN0200001N1+02531+02051999999ADDAA106000091AG10000GF102991011011008001031001KA1240N+01811MA1999999100441MD1999999-0031REMSYN017 333 20181 59003;
0134823920999991994071500004-03700-040350FM-12+008399999V0209999999999220001CN9999999N9+02431+01971999999ADDAA106000091AG10000GF102991021001008001031001KA1240M+03211MA1999999100381MD1999999+0031REMSYN017 333 10321 58003;EQDQ01+000002VOVAR 
0115823920999991994071512004-03700-040350FM-12+008399999V0209999999999007501CN0200001N1+02381+02191999999ADDAA106000091AG10000GF108991051061008001011999KA1240N+02061MA1999999100451MD1999999+0011REMSYN017 333 20206 58001;
0113823920999991994071518004-03700-040350FM-12+008399999V0209999999999045001CN0100001N1+02541+02331999999ADDAG10000AY101061AY221061GF107991041061004501031001MA1999999100211MD1999999+0121MW1611REMSYN017 333 58012 69771;
0121823920999991994071612004-03700-040350FM-12+008399999V0209999999999045001CN0200001N1+02541+02251999999ADDAA124001091AG10000GF107991041061008001011001KA1240N+02111MA1999999100481MD1999999+0031REMSYN023 333 20211 58003 69974;
0124823920999991994071618004-03700-040350FM-12+008399999V0209999999999045001CN0200001N1+02771+02321999999ADDAA106001091AG10005AY161061AY261061GF106991031061008001031001MA1999999100111MD1999999-0101MW1021REMSYN017 333 59010 60011;
0140823920999991994071712004-03700-040350FM-12+008399999V0209999999999220001CN0350001N1+02561+02191999999ADDAA124007091AG10000GF104991021011999999031001KA1240N+02031MA1999999100411MD1999999-0071REMSYN023 333 20203 59007 60074;EQDQ01+000992SCOLCB
0096823920999991994071718004-03700-040350FM-12+008399999V0209999999999045001CN0200001N1+03091+01851999999ADDAA106000091AG10000GF105991031011008001031001MA1999999100021MD1999999-0091REMSYN011 333 59009;
0115823920999991994071812004-03700-040350FM-12+008399999V0209999999999045001CN0200001N1+02621+01981999999ADDAA106000091AG10000GF105991031021008001031001KA1240N+02101MA1999999100411MD1999999+0001REMSYN017 333 20210 58000;
0096823920999991994071818004-03700-040350FM-12+008399999V0209999999999045001CN0200001N1+03021+01991999999ADDAA106000091AG10000GF105991021021008001031001MA1999999100031MD1999999+0011REMSYN011 333 58001;
0115823920999991994071912004-03700-040350FM-12+008399999V0209999999999045001CN0200001N1+02571+02151999999ADDAA106000091AG10000GF106991031021008001031001KA1240N+01881MA1999999100371MD1999999-0041REMSYN017 333 20188 59004;
0096823920999991994071918004-03700-040350FM-12+008399999V0209999999999007501CN0200001N1+03071+01991999999ADDAA106000091AG10000GF105991051021008001001001MA1999999099991MD1999999-0041REMSYN011 333 59004;
0143823920999991994072012004-03700-040350FM-12+008399999V0209999999999045001CN0200001N1+02541+02331999999ADDAA124002091AG10005AY161061AY261061GF106991041041004501031001KA1240N+02131MA1999999100401MD1999999+0031MW1021REMSYN023 333 20213 58003 60024;
0096823920999991994072018004-03700-040350FM-12+008399999V0209999999999220001CN0200001N1+03091+02031999999ADDAA106000091AG10000GF104991021021008001031001MA1999999099921MD1999999-0071REMSYN011 333 59007;
0150823920999991994072100004-03700-040350FM-12+008399999V0209999999999220001CN9999999N9+02321+02031999999ADDAA106000091AG10000GA1001+999999999GF100991001001999999001001KA1240M+03111MA1999999100221MD1999999-0121REMSYN017 333 10311 59012;EQDQ01+000002VOVAR 
0115823920999991994072112004-03700-040350FM-12+008399999V0209999999999045001CN0100001N1+02131+02131999999ADDAA106000091AG10000GF106991041021008001011001KA1240N+01971MA1999999100351MD1999999-0051REMSYN017 333 20197 59005;
0150823920999991994072200004-03700-040350FM-12+008399999V0209999999999220001CN9999999N9+02161+01901999999ADDAA106000091AG10000GA1001+999999999GF100991001001999999001001KA1240M+03141MA1999999100181MD1999999-0041REMSYN017 333 10314 59004;EQDQ01+000002VOVAR 
0115823920999991994072212004-03700-040350FM-12+008399999V0209999999999045001CN0200001N1+02561+02111999999ADDAA106000091AG10000GF105991031021008001031001KA1240N+01961MA1999999100341MD1999999-0011REMSYN017 333 20196 59001;
0134823920999991994072300004-03700-040350FM-12+008399999V0209999999999220001CN9999999N9+02341+01931999999ADDAA106000091AG10000GF101991011001008001031001KA1240M+03161MA1999999100281MD1999999+0101REMSYN017 333 10316 58010;EQDQ01+000002VOVAR 
0115823920999991994072312004-03700-040350FM-12+008399999V0209999999999220001CN0200001N1+02521+02191999999ADDAA106000091AG10000GF104991041021008001001001KA1240N+01881MA1999999100361MD1999999+0031REMSYN017 333 20188 58003;
0096823920999991994072318004-03700-040350FM-12+008399999V0209999999999045001CN0200001N1+03051+02061999999ADDAA106000091AG10000GF105991031021008001031001MA1999999100081MD1999999+0091REMSYN011 333 58009;
0134823920999991994072400004-03700-040350FM-12+008399999V0209999999999220001CN9999999N9+02411+99999999999ADDAA106000091AG10000GF101991011001012501031001KA1240M+03121MA1999999100291MD1999999+0011REMSYN017 333 10312 58001;EQDQ01+000002VOVAR 
0156823920999991994072500004-03700-040350FM-12+008399999V0209999999999220001CN9999999N9+02331+02001999999ADDAA106000091AG10000GA1021+999999049GF102991021001017501011001KA1240M+03241MA1999999100111MD1999999-0181REMSYN023 333 10324 59018 8248/;EQDQ01+000002VOVAR 
0115823920999991994072612004-03700-040350FM-12+008399999V0209999999999045001CN0200001N1+02521+02131999999ADDAA106000091AG10000GF107991041061004501031001KA1240N+02181MA1999999100351MD1999999+0051REMSYN017 333 20218 58005;
0124823920999991994072618004-03700-040350FM-12+008399999V0209999999999007501CN0200001N1+02901+02071999999ADDAA106000191AG10000AY151061AY251061GF107991051061008001031001MA1999999099971MD1999999+0161MW1021REMSYN017 333 58016 69911;
0121823920999991994072712004-03700-040350FM-12+008399999V0209999999999220001CN0200001N1+02601+01911999999ADDAA124000191AG10000GF102991021011008001001001KA1240N+01811MA1999999100411MD1999999+0061REMSYN023 333 20181 58006 69914;
0081823920999991994072718004-03700-040350FM-12+008399999V0209999999999220001CN0200001N1+03111+99999999999ADDAA106000091AG10000GF104991999999008001999999MD1999999+0031REMSYN011 333 58003;
0119823920999991994072800004-03700-040350FM-12+008399999V0209999999999045001CN9999999N9+02561+01991999999ADDAA106000091AG10000GF105991031021008001031001KA1240M+03221MD1999999-0061REMSYN017 333 10322 59006;EQDQ01+000002VOVAR 
0115823920999991994072812004-03700-040350FM-12+008399999V0209999999999045001CN0200001N1+02591+02081999999ADDAA106000091AG10000GF105991021021008001031001KA1240N+01891MA1999999100361MD1999999-0051REMSYN017 333 20189 59005;
0096823920999991994072818004-03700-040350FM-12+008399999V0209999999999220001CN0200001N1+03141+01771999999ADDAA106000091AG10000GF104991041021008001001001MA1999999100001MD1999999+0001REMSYN011 333 58000;
0115823920999991994072912004-03700-040350FM-12+008399999V0209999999999045001CN0200001N1+02521+01921999999ADDAA106000091AG10000GF106991041041008001031001KA1240N+02031MA1999999100391MD1999999+0031REMSYN017 333 20203 58003;
0096823920999991994072918004-03700-040350FM-12+008399999V0209999999999220001CN0200001N1+03311+02121999999ADDAA106000091AG10000GF104991031021008001031001MA1999999099941MD1999999-0061REMSYN011 333 59006;
0115823920999991994073012004-03700-040350FM-12+008399999V0209999999999220001CN0200001N1+02541+02021999999ADDAA106000091AG10000GF102991011021008001031001KA1240N+01871MA1999999100391MD1999999+0001REMSYN017 333 20187 58000;
0096823920999991994073018004-03700-040350FM-12+008399999V0209999999999045001CN0200001N1+03331+01611999999ADDAA106000091AG10000GF106991021021008001031001MA1999999099931MD1999999-0011REMSYN011 333 59001;
0115823920999991994073112004-03700-040350FM-12+008399999V0209999999999220001CN0200001N1+02641+02001999999ADDAA106000091AG10000GF102991011011008001031001KA1240N+01961MA1999999100391MD1999999+0001REMSYN017 333 20196 58000;
0096823920999991994073118004-03700-040350FM-12+008399999V0209999999999045001CN0200001N1+03181+01691999999ADDAA106000091AG10000GF106991031021008001031001MA1999999099971MD1999999+0041REMSYN011 333 58004;
0134823920999991994080100004-03700-040350FM-12+008399999V0209999999999220001CN9999999N9+02561+02021999999ADDAA106000091AG10000GF103991021021008001031001KA1240M+03241MA1999999100281MD1999999+0041REMSYN017 333 10324 58004;EQDQ01+000002VOVAR 
0134823920999991994080112004-03700-040350FM-12+008399999V0209999999999220001CN0200001N1+02631+01961999999ADDAA106000091AG10000GF104991031011004501031001KA1240M+99999MA1999999100391MD1999999+0001REMSYN017 333 10201 58000;EQDQ01 +02012ATMX  
0115823920999991994080212004-03700-040350FM-12+008399999V0209999999999220001CN0200001N1+02641+01981999999ADDAA106000091AG10000GF104991041021008001001001KA1240N+01861MA1999999100441MD1999999-0051REMSYN017 333 20186 59005;
0096823920999991994080218004-03700-040350FM-12+008399999V0209999999999220001CN0200001N1+03341+01631999999ADDAA106000091AG10000GF104991041021008001001001MA1999999099971MD1999999+0031REMSYN011 333 58003;
0115823920999991994080312004-03700-040350FM-12+008399999V0209999999999220001CN0200001N1+02661+02001999999ADDAA106000091AG10000GF103991031021008001999999KA1240N+01861MA1999999100461MD1999999+0021REMSYN017 333 20186 58002;
0096823920999991994080318004-03700-040350FM-12+008399999V0209999999999220001CN0200001N1+03411+01641999999ADDAA106000091AG10000GF103991031021008001001001MA1999999099951MD1999999-0021REMSYN011 333 59002;
0150823920999991994080400004-03700-040350FM-12+008399999V0209999999999220001CN9999999N9+02501+01981999999ADDAA106000091AG10000GA1001+999999999GF100991001001999999001001KA1240M+03381MA1999999100201MD1999999-0031REMSYN017 333 10338 59003;EQDQ01+000002VOVAR 
0115823920999991994080412004-03700-040350FM-12+008399999V0209999999999045001CN0200001N1+02511+02171999999ADDAA106000091AG10000GF106991021041004501031001KA1240N+01961MA1999999100491MD1999999+0031REMSYN017 333 20196 58003;
0096823920999991994080418004-03700-040350FM-12+008399999V0209999999999220001CN0200001N1+03281+01781999999ADDAA106000091AG10000GF103991031021008001001001MA1999999100021MD1999999+0071REMSYN011 333 58007;
0100823920999991994080512004-03700-040350FM-12+008399999V0209999999999045001CN0200001N1+02501+02071999999ADDAA106000091AG10000GF105991021011004501031001KA1240N+01961MD1999999-0011REMSYN017 333 20196 59001;
0096823920999991994080518004-03700-040350FM-12+008399999V0209999999999220001CN0200001N1+03341+01671999999ADDAA106000091AG10000GF104991041021008001001001MA1999999099991MD1999999+0001REMSYN011 333 59000;
0150823920999991994080600004-03700-040350FM-12+008399999V0209999999999220001CN9999999N9+02511+02151999999ADDAA106000091AG10000GA1001+999999999GF100991001001999999001001KA1240M+03361MA1999999100271MD1999999-0011REMSYN017 333 10336 59001;EQDQ01+000002VOVAR 
0115823920999991994080612004-03700-040350FM-12+008399999V0209999999999045001CN0200001N1+02671+02181999999ADDAA106000091AG10000GF106991041021008001031001KA1240N+02081MA1999999100371MD1999999-0111REMSYN017 333 20208 59011;
0096823920999991994080618004-03700-040350FM-12+008399999V0209999999999220001CN0200001N1+03431+01701999999ADDAA106000091AG10000GF104991041021008001001001MA1999999099841MD1999999-0151REMSYN011 333 59015;
0115823920999991994080712004-03700-040350FM-12+008399999V0209999999999220001CN0200001N1+02661+01971999999ADDAA106000091AG10000GF102991021011008001001001KA1240N+01931MA1999999100241MD1999999-0131REMSYN017 333 20193 59013;
0082823920999991994080812004-03700-040350FM-12+008399999V0209999999999220001CN0200001N1+02661+02041999999ADDAA106000091AG10000GF101991011011004501001001MA1999999100151REMSYN011 333 0107/;
0096823920999991994080818004-03700-040350FM-12+008399999V0209999999999220001CN0200001N1+03331+01761999999ADDAA106000091AG10000GF103991031021004501001001MA1999999099841MD1999999+0051REMSYN011 333 58005;
0096823920999991994081018004-03700-040350FM-12+008399999V0209999999999220001CN0200001N1+03361+01651999999ADDAA106000091AG10000GF104991041021008001001001MA1999999099971MD1999999+0071REMSYN011 333 58007;
0137823920999991994081100004-03700-040350FM-12+008399999V0209999999999220001CN9999999N9+02541+02061999999ADDAA106000091AG10000GA1001+999999999GF100991001001999999001001MA1999999100221MD1999999-0021REMSYN017 333 1/942 59002;EQDQ01+000002VOVAR 
0096823920999991994081118004-03700-040350FM-12+008399999V0209999999999220001CN0200001N1+03461+01601999999ADDAA106000091AG10000GF101991011011008001001001MA1999999099831MD1999999-0141REMSYN011 333 59014;
0096823920999991994081212004-03700-040350FM-12+008399999V0209999999999045001CN0200001N1+02641+02031999999ADDAA106000091AG10000GF107991041051004501031001MA1999999100271MD1999999-0071REMSYN011 333 59007;
0096823920999991994081218004-03700-040350FM-12+008399999V0209999999999045001CN0200001N1+03301+01681999999ADDAA106000091AG10000GF105991031021008001031001MA1999999099961MD1999999+0131REMSYN011 333 58013;
0134823920999991994081300004-03700-040350FM-12+008399999V0209999999999220001CN9999999N9+02521+01861999999ADDAA106000091AG10000GF101991011001012501031001KA1240M+03381MA1999999100271MD1999999+0151REMSYN017 333 10338 58015;EQDQ01+000002VOVAR 
0081823920999991994081318004-03700-040350FM-12+008399999V0209999999999007501CN0200001N1+03341+01631999999ADDAA106000091AG10000GF105991051021008001001001MD1999999-0061REMSYN011 333 59006;
0062823920999991994081512004-03700-040350FM-12+008399999V0209999999999220001CN0200001N1+02681+01841999999ADDAA106000091AG10000GF103991021011004501001011MA1999999100361
0134823920999991994081600004-03700-040350FM-12+008399999V0209999999999220001CN9999999N9+02601+01991999999ADDAA106000091AG10000GF101991011001012501031001KA1240M+03491MA1999999100131MD1999999-0011REMSYN017 333 10349 59001;EQDQ01+000002VOVAR 
0134823920999991994081612004-03700-040350FM-12+008399999V0209999999999220001CN9999999N9+02681+01991999999ADDAA106000091AG10000GF102991021011012501001001KA1240N+01901MA1999999100321MD1999999-0041REMSYN017 333 20190 59004;EQDQ01+000002VOVAR 
0134823920999991994081700004-03700-040350FM-12+008399999V0209999999999220001CN9999999N9+02731+02051999999ADDAA106000091AG10000GF101991011001012501011001KA1240M+03531MA1999999100061MD1999999-0071REMSYN017 333 10353 59007;EQDQ01+000002VOVAR 
0115823920999991994081712004-03700-040350FM-12+008399999V0209999999999220001CN0200001N1+02781+01791999999ADDAA106000091AG10000GF101991011011008001001001KA1240N+02001MA1999999100321MD1999999+0001REMSYN017 333 20200 58000;
0096823920999991994081718004-03700-040350FM-12+008399999V0209999999999220001CN0200001N1+03561+01251999999ADDAA106000091AG10000GF103991021021004501001011MA1999999099771MD1999999+0091REMSYN011 333 58009;
0134823920999991994081800004-03700-040350FM-12+008399999V0209999999999045001CN9999999N9+02761+01991999999ADDAA106000091AG10000GF106991011021012501031001KA1240M+03631MA1999999100091MD1999999+0031REMSYN017 333 10363 58003;EQDQ01+000002VOVAR 
0124823920999991994081818004-03700-040350FM-12+008399999V0209999999999045001CN0200001N1+03081+02041999999ADDAA106004091AG10005AY161061AY261061GF106991021021004501031001MA1999999100031MD1999999+0261MW1021REMSYN017 333 58026 60041;
0096823920999991994081918004-03700-040350FM-12+008399999V0209999999999220001CN0200001N1+03421+01511999999ADDAA106000091AG10000GF102991021021008001001001MA1999999099891MD1999999-0141REMSYN011 333 59014;
0134823920999991994082000004-03700-040350FM-12+008399999V0209999999999220001CN9999999N9+02541+02001999999ADDAA106000091AG10000GF101991011001012501031001KA1240M+03441MA1999999100171MD1999999-0101REMSYN017 333 10344 59010;EQDQ01+000002VOVAR 
0115823920999991994082012004-03700-040350FM-12+008399999V0209999999999220001CN0200001N1+02841+01881999999ADDAA106000091AG10000GF102991011011008001031001KA1240N+01981MA1999999100321MD1999999-0091REMSYN017 333 20198 59009;
0134823920999991994082100004-03700-040350FM-12+008399999V0209999999999220001CN9999999N9+02681+02111999999ADDAA106000091AG10000GF104991041001008001031011KA1240M+03651MA1999999100031MD1999999-0141REMSYN017 333 10365 59014;EQDQ01+000002VOVAR 
0115823920999991994082112004-03700-040350FM-12+008399999V0209999999999045001CN0200001N1+02941+01761999999ADDAA106000091AG10000GF105991031021008001031001KA1240N+02201MA1999999100191MD1999999-0131REMSYN017 333 20220 59013;
0115823920999991994082212004-03700-040350FM-12+008399999V0209999999999220001CN0200001N1+02821+01611999999ADDAA106000091AG10000GF101991011011004501001001KA1240N+01921MA1999999100201MD1999999+0011REMSYN017 333 20192 58001;
0096823920999991994082318004-03700-040350FM-12+008399999V0209999999999045001CN0200001N1+03361+01691999999ADDAA106000091AG10000GF106991041051008001031001MA1999999099831MD1999999+0051REMSYN011 333 58005;
0115823920999991994082412004-03700-040350FM-12+008399999V0209999999999220001CN0200001N1+02711+02061999999ADDAA106000091AG10000GF104991031021004501031001KA1240N+02031MA1999999100351MD1999999+0081REMSYN017 333 20203 58008;
0115823920999991994082612004-03700-040350FM-12+008399999V0200901N00571220001CN0200001N1+02721+02051101401ADDAA106000091AG10000GF103991031021004501001001KA1240N+02371MA1999999100381MD1999999+0071REMSYN017 333 20237 58007;
0070823920999991994082618004-03700-040350FM-12+008399999V0200901N00411220001CN0200001N1+03431+01601100891ADDAG10000GF103991021011008001011001MD1999999+0151REMSYN011 333 58015;
0115823920999991994082712004-03700-040350FM-12+008399999V0201401N00261220001CN0200001N1+02781+01981101391ADDAA106000091AG10000GF102991021011008001001001KA1240N+01951MA1999999100371MD1999999-0011REMSYN017 333 20195 59001;
0150823920999991994082900004-03700-040350FM-12+008399999V0200501N00361220001CN9999999N9+02621+02071101201ADDAA106000091AG10000GA1001+999999999GF100991001001999999001001KA1240M+03571MA1999999100181MD1999999-0021REMSYN017 333 10357 59002;EQDQ01+000002VOVAR 
0137823920999991994082912004-03700-040350FM-12+008399999V0200501N00361000151CN0200001N1+02721+01951101381ADDAA106000091AG10000GA1061+000159089GF106991041041004501031001KA1240N+02131MA1999999100361MD1999999+0001REMSYN023 333 20213 58000 86400;
0115823920999991994083012004-03700-040350FM-12+008399999V0200901N00571220001CN0200001N1+02811+01951101301ADDAA106000091AG10000GF103991021021004501001011KA1240N+02081MA1999999100281MD1999999-0081REMSYN017 333 20208 59008;
0096823920999991994083018004-03700-040350FM-12+008399999V0200901N00511220001CN0200001N1+03441+01531100791ADDAA106000091AG10000GF104991041011008001001001MA1999999099771MD1999999+0021REMSYN011 333 58002;
0096823920999991994083118004-03700-040350FM-12+008399999V0200501N00411220001CN0200001N1+03471+01401100761ADDAA106000091AG10000GF103991031021004501001001MA1999999099741MD1999999-0031REMSYN011 333 59003;
0150823920999991994090100004-03700-040350FM-12+008399999V0200501N00211220001CN9999999N9+03521+01941101141ADDAA106000091AG10000GA1001+999999999GF100991001001999999001001KA1240M+03521MA1999999100121MD1999999+0041REMSYN017 333 10352 58004;EQDQ01+000002VOVAR 
0115823920999991994090112004-03700-040350FM-12+008399999V0200901N00211220001CN0200001N1+02801+01841101401ADDAA106000091AG10000GF102991011011008001001011KA1240N+02111MA1999999100381MD1999999+0101REMSYN017 333 20211 58010;
0096823920999991994090118004-03700-040350FM-12+008399999V0200901N00261220001CN0200001N1+03561+01371100841ADDAA106000091AG10000GF103991021011008001001011MA1999999099821MD1999999+0081REMSYN011 333 58008;
0115823920999991994090212004-03700-040350FM-12+008399999V0201401N00411220001CN0200001N1+02841+01881101431ADDAA106000091AG10000GF102991021021004501001001KA1240N+02031MA1999999100411MD1999999+0031REMSYN017 333 20203 58003;
0096823920999991994090218004-03700-040350FM-12+008399999V0200901N00461220001CN0200001N1+03391+01481100881ADDAA106000091AG10000GF105991041011008001001011MA1999999099861MD1999999+0041REMSYN011 333 58004;
0115823920999991994090312004-03700-040350FM-12+008399999V0200901N00571220001CN0200001N1+02841+01881101391ADDAA106000091AG10000GF104991041021008001001001KA1240N+02191MA1999999100371MD1999999-0041REMSYN017 333 20219 59004;
0096823920999991994090318004-03700-040350FM-12+008399999V0200501N00621220001CN0200001N1+03541+01351100811ADDAA106000091AG10000GF103991031011008001001001MA1999999099801MD1999999-0081REMSYN011 333 59008;
0115823920999991994090412004-03700-040350FM-12+008399999V0201401N00211007501CN0200001N1+02761+02071101481ADDAA106000091AG10000GF105991051021008001001001KA1240N+02211MA1999999100461MD1999999+0091REMSYN017 333 20221 58009;
0115823920999991994090512004-03700-040350FM-12+008399999V0201401N00411220001CN0200001N1+02861+99999101481ADDAA106000091AG10000GF104991031021004501001011KA1240N+02341MA1999999100451MD1999999-0011REMSYN017 333 20234 59001;
0115823920999991994090612004-03700-040350FM-12+008399999V0201401N00361220001CN0200001N1+02921+01801101431ADDAA106000091AG10000GF102991021011004501001001KA1240N+02261MA1999999100411MD1999999-0041REMSYN017 333 20226 59004;
0096823920999991994090618004-03700-040350FM-12+008399999V0200901N00211007501CN0200001N1+03521+01551100791ADDAA106000091AG10000GF105991051021008001001001MA1999999099781MD1999999-0111REMSYN011 333 59011;
0115823920999991994090712004-03700-040350FM-12+008399999V0200501N00311220001CN0200001N1+02801+01901101281ADDAA106000091AG10000GF101991011011004501001001KA1240N+02381MA1999999100261MD1999999-0151REMSYN017 333 20238 59015;
0096823920999991994090718004-03700-040350FM-12+008399999V0200501N00261220001CN0200001N1+02551+01571100761ADDAA106000091AG10000GF101991011011004501001001MA1999999099751MD1999999-0031REMSYN011 333 59003;
0115823920999991994090812004-03700-040350FM-12+008399999V0201401N00261045001CN0100001N1+02621+02261101371ADDAA106000091AG10000GF107991041061004501031001KA1240N+02281MA1999999100351MD1999999+0091REMSYN017 333 20228 58009;
0096823920999991994090818004-03700-040350FM-12+008399999V0201401N00361045001CN0200001N1+03491+01571100781ADDAA106000091AG10000GF105991031021008001011001MA1999999099771MD1999999+0021REMSYN011 333 58002;
0115823920999991994090912004-03700-040350FM-12+008399999V0201401N00511045001CN0200001N1+02791+01911101421ADDAA106000091AG10000GF106991041041004501031001KA1240N+01991MA1999999100401MD1999999+0051REMSYN017 333 20199 58005;
0096823920999991994090918004-03700-040350FM-12+008399999V0201401N00361220001CN0200001N1+03451+01481100871ADDAA106000091AG10000GF104991041021008001001001MA1999999099851MD1999999+0081REMSYN011 333 58008;
0115823920999991994091012004-03700-040350FM-12+008399999V0201401N00261007501CN0200001N1+02781+02061101401ADDAA106000091AG10000GF105991051021008001001001KA1240N+02291MA1999999100381MD1999999-0021REMSYN017 333 20229 59002;
0096823920999991994091018004-03700-040350FM-12+008399999V0200901N00311220001CN0200001N1+03611+01621100781ADDAA106000091AG10000GF104991041011008001001001MA1999999099771MD1999999-0081REMSYN011 333 59008;
0115823920999991994091112004-03700-040350FM-12+008399999V0201401N00311045001CN0200001N1+02791+01961101241ADDAA106000091AG10000GF106991041021004501031001KA1240N+02311MA1999999100221MD1999999-0161REMSYN017 333 20231 59016;
0096823920999991994091118004-03700-040350FM-12+008399999V0200901N00621220001CN0200001N1+03421+01561100821ADDAA106000091AG10000GF104991031021004501001011MA1999999099811MD1999999-0041REMSYN011 333 59004;
0115823920999991994091212004-03700-040350FM-12+008399999V0200901N00461220001CN0200001N1+03021+01761101321ADDAA106000091AG10000GF103991031021004501001001KA1240N+02121MA1999999100301MD1999999+0081REMSYN017 333 20212 58008;
0096823920999991994091218004-03700-040350FM-12+008399999V0200901N00931220001CN0200001N1+03491+01411100841ADDAA106000091AG10000GF102991021021004501001001MA1999999099831MD1999999+0021REMSYN011 333 58002;
0162823920999991994091312004-03700-040350FM-12+008399999V0200501N00511220001CN0200001N1+02941+01661101421ADDAA106000091AG10000GA1021+008009079GF199999011011004501001001KA1240N+02411MA1999999100401MD1999999+0101REMSYN029 333 20241 58010 82795 814//;EQDQ01+000012SCOTCV
0096823920999991994091318004-03700-040350FM-12+008399999V0200501N00411220001CN0200001N1+03611+01221100831ADDAA106000091AG10000GF103991031011008001001001MA1999999099821MD1999999-0011REMSYN011 333 59001;
0150823920999991994091400004-03700-040350FM-12+008399999V0200501N00411220001CN9999999N9+02581+01801101251ADDAA106000091AG10000GA1001+999999999GF100991001001999999001001KA1240M+03611MA1999999100231MD1999999+0051REMSYN017 333 10361 58005;EQDQ01+000002VOVAR 
0115823920999991994091412004-03700-040350FM-12+008399999V0200901N00411220001CN0200001N1+02831+01741101351ADDAA106000091AG10000GF104991031021004501001011KA1240N+02031MA1999999100331MD1999999-0071REMSYN017 333 20203 59007;
0096823920999991994091418004-03700-040350FM-12+008399999V0200501N00361220001CN0200001N1+03571+01311100831ADDAA106000091AG10000GF103991021021004501001011MA1999999099821MD1999999+0001REMSYN011 333 58000;
0134823920999991994091500004-03700-040350FM-12+008399999V0200601N00311220001CN9999999N9+02581+02011101141ADDAA106000091AG10000GF101991011001012501031001KA1240M+03571MA1999999100121MD1999999-0111REMSYN017 333 10357 59011;EQDQ01+000002VOVAR 
0115823920999991994091512004-03700-040350FM-12+008399999V0200501N00411045001CN0200001N1+02811+01981101271ADDAA106000091AG10000GF106991041021008001031001KA1240N+02321MA1999999100251MD1999999-0081REMSYN017 333 20232 59008;
0096823920999991994091518004-03700-040350FM-12+008399999V0200501N00311045001CN0200001N1+03181+01801100851ADDAA106000091AG10000GF107991041021008001031001MA1999999099831MD1999999+0011REMSYN011 333 58001;
0115823920999991994091712004-03700-040350FM-12+008399999V0201401N00361045001CN0200001N1+02861+01811101441ADDAA106000091AG10000GF106991041021004501031001KA1240N+02151MA1999999100421MD1999999+0031REMSYN017 333 20215 58003;
0096823920999991994091718004-03700-040350FM-12+008399999V0200501N00311007501CN0200001N1+03561+01481100861ADDAA106000091AG10000GF105991051021008001001001MA1999999099851MD1999999+0081REMSYN011 333 58008;
0115823920999991994091812004-03700-040350FM-12+008399999V0201401N00361220001CN0200001N1+02941+01721101341ADDAA106000091AG10000GF102991021011008001001001KA1240N+02151MA1999999100301MD1999999-0101REMSYN017 333 20215 59010;
0115823920999991994091912004-03700-040350FM-12+008399999V0201401N00311220001CN0200001N1+02921+01891101251ADDAA106000091AG10000GF102991021021004501001001KA1240N+02351MA1999999100231MD1999999-0091REMSYN017 333 20235 59009;
0150823920999991994092000004-03700-040350FM-12+008399999V0203601N00461220001CN9999999N9+02571+02111101091ADDAA106000091AG10000GA1001+999999999GF100991001001999999001001KA1240M+03741MA1999999100071MD1999999-0031REMSYN017 333 10374 59003;EQDQ01+000002VOVAR 
0115823920999991994092012004-03700-040350FM-12+008399999V0200901N00261220001CN0200001N1+02941+01941101281ADDAA106000091AG10000GF102991021021004501001001KA1240N+02401MA1999999100261MD1999999+0031REMSYN017 333 20240 58003;
0131823920999991994092018004-03700-040350FM-12+008399999V0201401N00411007501CN0200001N1+03491+01521100791ADDAA106000091AG10000GF105991051021008001001001MA1999999099791MD1999999+0151REMSYN011 333 58015;EQDQ01+097783APOSP Q02+999990APOSP 
0150823920999991994092100004-03700-040350FM-12+008399999V0200501N00411220001CN9999999N9+02561+01951101051ADDAA106000091AG10000GA1001+999999999GF100991001001999999001001KA1240M+03601MA1999999100031MD1999999-0041REMSYN017 333 10360 59004;EQDQ01+000002VOVAR 
0115823920999991994092112004-03700-040350FM-12+008399999V0201401N00361220001CN0200001N1+02861+01651101261ADDAA106000091AG10000GF101991011011004501001001KA1240N+02261MA1999999100241MD1999999-0021REMSYN017 333 20226 59002;
0096823920999991994092118004-03700-040350FM-12+008399999V0200901N00101220001CN0200001N1+03601+01291100721ADDAA106000091AG10000GF101991011011008001001001MA1999999099711MD1999999-0071REMSYN011 333 59007;
0134823920999991994092212004-03700-040350FM-12+008399999V0201401N00721220001CN0200001N1+02981+01661101161ADDAA106000091AG10000GF103991999011008001001001KA1240N+02211MA1999999100141MD1999999-0101REMSYN017 333 20221 59010;EQDQ01+000012SCOTLC
0096823920999991994092218004-03700-040350FM-12+008399999V0200501N00461220001CN0200001N1+03681+01411100571ADDAA106000091AG10000GF102991021011008001001001MA1999999099571MD1999999-0141REMSYN011 333 59014;
0150823920999991994092400004-03700-040350FM-12+008399999V0203601N00461220001CN9999999N9+02591+01921101031ADDAA106000091AG10000GA1001+999999999GF100991001001999999001001KA1240M+03671MA1999999100011MD1999999+0031REMSYN017 333 10367 58003;EQDQ01+000002VOVAR 
0096823920999991994092418004-03700-040350FM-12+008399999V0200901N00571220001CN0200001N1+03641+01381100631ADDAA106000091AG10000GF103991031011008001001001MA1999999099631MD1999999+0021REMSYN011 333 58002;
0115823920999991994092512004-03700-040350FM-12+008399999V0201401N00571220001CN0200001N1+02901+01751101121ADDAA106000091AG10000GF103991031011008001001001KA1240N+02321MA1999999100101MD1999999-0101REMSYN017 333 20232 59010;
0150823920999991994092600004-03700-040350FM-12+008399999V0200501N00311220001CN9999999N9+02641+02231101021ADDAA106000091AG10000GA1001+999999999GF100991001001999999001001KA1240M+03671MA1999999100001MD1999999+0041REMSYN017 333 10367 58004;EQDQ01+000002VOVAR 
0115823920999991994092612004-03700-040350FM-12+008399999V0200901N00151004201CN0200001N1+02921+01891101251ADDAA106000091AG10000GF105991051021004501001001KA1240N+02221MA1999999100231MD1999999+0131REMSYN017 333 20222 58013;
0096823920999991994092618004-03700-040350FM-12+008399999V0200501N00511220001CN0200001N1+03581+01441100761ADDAA106000091AG10000GF103991031021004501001001MA1999999099751MD1999999+0111REMSYN011 333 58011;
0096823920999991994092718004-03700-040350FM-12+008399999V0203601N00871220001CN0200001N1+03611+01661100661ADDAA106000091AG10000GF104991031011008001001011MA1999999099651MD1999999-0101REMSYN011 333 59010;
0096823920999991994092818004-03700-040350FM-12+008399999V0200501N00511220001CN0200001N1+03421+01561100641ADDAA106000091AG10000GF102991021011004501001001MA1999999099641MD1999999-0011REMSYN011 333 59001;
0150823920999991994092900004-03700-040350FM-12+008399999V0200501N00361220001CN9999999N9+02621+01831101071ADDAA106000091AG10000GA1001+999999999GF100991001001999999001001KA1240M+03571MA1999999100051MD1999999-0031REMSYN017 333 10357 59003;EQDQ01+000002VOVAR 
0097823920999991994092912004-03700-040350FM-12+008399999V02099999999999999999N9999999N9+99999+99999101231ADDAG10000KA1240N+02181MA1999999100211MD1999999+0001REMSYN017 333 20218 58000;EQDQ01+000002VOVAR 
0115823920999991994093012004-03700-040350FM-12+008399999V0201401N00571045001CN0200001N1+02861+01921101191ADDAA106000091AG10000GF106991041021004501031001KA1240N+02101MA1999999100171MD1999999-0041REMSYN017 333 20210 59004;
0115823920999991994093018004-03700-040350FM-12+008399999V0200501N00771007501CN0200001N1+03491+01481100591ADDAA106000091AG10000GF106991051011008001001011MA1999999099601MD1999999-0081REMSYN011 333 59008;EQDQ01+999990APOSP 
0115823920999991994100112004-03700-040350FM-12+008399999V0200901N00211220001CN0200001N1+02911+01931101111ADDAA106000091AG10000GF104991041021008001001001KA1240N+02221MA1999999100191MD1999999+0021REMSYN017 333 20222 58002;
0134823920999991994100212004-03700-040350FM-12+008399999V0201401N00461045001CN0200001N1+02811+01981101121ADDAA106000091AG10000GF106991041021008001031001KA1240N+02251MA1999999100101MD1999999-0091REMSYN017 333 20225 59009;EQDQ01+999990APOSP 
0115823920999991994100412004-03700-040350FM-12+008399999V0200501N00411220001CN0200001N1+02841+01961101071ADDAA106000091AG10000GF103991031021004501001001KA1240N+02201MA1999999100051MD1999999-0051REMSYN017 333 20220 59005;
0096823920999991994100418004-03700-040350FM-12+008399999V0200501N00261220001CN0200001N1+02631+01591100501ADDAA106000091AG10000GF104991041021008001001001MA1999999099491MD1999999-0031REMSYN011 333 59003;
0150823920999991994100600004-03700-040350FM-12+008399999V0203601N00621220001CN9999999N9+02561+02111100901ADDAA106000091AG10000GA1001+999999999GF100991001001999999001001KA1240M+03511MA1999999099881MD1999999-0041REMSYN017 333 10351 59004;EQDQ01+000002VOVAR 
0115823920999991994100612004-03700-040350FM-12+008399999V0209991C003619999999N0200001N1+02861+02031101131ADDAA106000091AG10000GF106991999999004501999999KA1240N+02271MA1999999100111MD1999999+0061REMSYN017 333 20227 58006;
