0114826780999991994010112004-06767-043017FM-12+013899999V0203201N00151007501CN0200001N9+02711+02301101441ADDAA106000091AG14000GF108991061051008001021999KA1240N+02431MA1999999099861MD1999999-0021REMSYN016 333 20243 59002
0095826780999991994010118004-06767-043017FM-12+013899999V0203201N00311007501CN0200001N9+03321+02171100961ADDAA106000091AG14000GF107991051031008001041001MA1999999099401MD1999999-0061REMSYN010 333 59006
0114826780999991994010212004-06767-043017FM-12+013899999V0200501N00151007501CN0200001N9+02621+02161101271ADDAA106000091AG14000GF108991061021008001001011KA1240N+02281MA1999999099751MD1999999-0111REMSYN016 333 20228 59011
0095826780999991994010218004-06767-043017FM-12+013899999V0203601N00151220001CN0200001N9+03301+02021100841ADDAA106000091AG14000GF104991031011008001001021MA1999999099271MD1999999-0131REMSYN010 333 59013
0130826780999991994010300004-06767-043017FM-12+013899999V0200501N00051220001CN9999999N9+02761+02121100821ADDAA106000091AG14000GA1001+999999999GF100991001001999999001001KA1240M+03461MA1999999099251MD1999999-0251REMSYN016 333 10346 59025
0114826780999991994010312004-06767-043017FM-12+013899999V0203201N00151007501CN0200001N9+02841+02221101171ADDAA106000091AG14000GF107991071041008001001001KA1240N+02461MA1999999099601MD1999999-0151REMSYN016 333 20246 59015
0095826780999991994010318004-06767-043017FM-12+013899999V0201401N00101007501CN0200001N9+02641+02271100891ADDAA106000091AG14000GF108991061041008001021011MA1999999099311MD1999999+0041REMSYN010 333 58004
0114826780999991994010400004-06767-043017FM-12+013899999V0203201N00051220001CN9999999N9+02441+02321100941ADDAA106000091AG14000GF102991011041008001001011KA1240M+03071MA1999999099371MD1999999+0121REMSYN016 333 10307 58012
0114826780999991994010412004-06767-043017FM-12+013899999V0202701N00151007501CN0200001N9+02721+02241101351ADDAA106000091AG14000GF107991051041008001061001KA1240N+02281MA1999999099761MD1999999+0161REMSYN016 333 20228 58016
0095826780999991994010418004-06767-043017FM-12+013899999V0202301N00211045001CN0200001N9+03181+02191100941ADDAA106000091AG14000GF107991041041008001071001MA1999999099381MD1999999+0071REMSYN010 333 58007
0114826780999991994010500004-06767-043017FM-12+013899999V0203201N00101220001CN9999999N9+02601+02291101231ADDAA106000091AG14000GF103991021041008001001011KA1240M+03231MA1999999099651MD1999999+0281REMSYN016 333 10323 58028
0114826780999991994010512004-06767-043017FM-12+013899999V0201401N00151007501CN0200001N9+02481+02191101501ADDAA106000091AG14000GF108991061041008001021999KA1240N+02191MA1999999099911MD1999999-0151REMSYN016 333 20219 59015
0095826780999991994010518004-06767-043017FM-12+013899999V0203601N00051007501CN0200001N9+02941+02141101031ADDAA106000091AG14000GF108991061041008001011999MA1999999099451MD1999999+0071REMSYN010 333 58007
0114826780999991994010612004-06767-043017FM-12+013899999V0203201N00051045001CN0200001N9+02661+02181101411ADDAA106000091AG14000GF107991041041008001031001KA1240N+02221MA1999999099821MD1999999-0091REMSYN016 333 20222 59009
0123826780999991994010618004-06767-043017FM-12+013899999V0200501N00051007501CN0200001N9+02451+02301101021ADDAA106038091AG13000AY121061AY261061GF108991061071008001021999MA1999999099431MD1999999-0021MW1031REMSYN016 333 59002 60381
0114826780999991994010700004-06767-043017FM-12+013899999V0202301N00151220001CN9999999N9+02401+02311101111ADDAA106000091AG14000GF101991011031008001001001KA1240M+03281MA1999999099531MD1999999-0091REMSYN016 333 10328 59009
0120826780999991994010712004-06767-043017FM-12+013899999V0200501N00051007501CN0200001N9+02511+02291101251ADDAA124038091AG10000GF108991081041008001999999KA1240N+02201MA1999999099661MD1999999-0161REMSYN022 333 20220 59016 60384
0134826780999991994010718004-06767-043017FM-12+013899999V0201801N00101012001CN0200001N9+03021+02261100721ADDAA106000791AA299001091AG10000AY121061AY221061GF107991051081008001001021MA1999999099151MD1999999-0281MW1601REMSYN016 333 59028 69971
0134826780999991994010818004-06767-043017FM-12+013899999V0200501N00101220001CN0200001N9+03141+02241100791ADDAA106000491AA299000591AG10006AY161061AY221061GF106991041041008001001011MA1999999099231MD1999999+0081MW1021REMSYN016 333 58008 69941
0131826780999991994010912004-06767-043017FM-12+013899999V0203201N00101007501CN0200001N9+02641+02241101211ADDAA124000491AA299000591AG10000GF108991071041008001021999KA1240N+02281MA1999999099631MD1999999+0061REMSYN022 333 20228 58006 69944
0095826780999991994010918004-06767-043017FM-12+013899999V0202301N00151045001CN0200001N9+02961+02281100831ADDAA106000091AG14000GF107991021081008001041041MA1999999099261MD1999999+0031REMSYN010 333 58003
0142826780999991994011012004-06767-043017FM-12+013899999V0200501N00151220001CN0200001N9+02561+02311101101ADDAA124000391AG10006AY161061AY211061GF108991041021008001001011KA1240N+02341MA1999999099581MD1999999-0051MW1021REMSYN022 333 20234 59005 69934
0095826780999991994011018004-06767-043017FM-12+013899999V0203201N00151007501CN0200001N9+03221+02291101551ADDAA106000091AG14000GF106991051021008001001021MA1999999100031MD1999999+0741REMSYN010 333 58074
0130826780999991994011100004-06767-043017FM-12+013899999V0209991C00001220001CN9999999N9+02601+02401100951ADDAA106000091AG14000GA1001+999999999GF100991001001999999001001KA1240M+03241MA1999999099431MD1999999+0091REMSYN016 333 10324 58009
0114826780999991994011112004-06767-043017FM-12+013899999V0209991C00001007501CN0200001N9+02671+02351101171ADDAA106000091AG14000GF108991061041008001061999KA1240N+02281MA1999999099591MD1999999+0011REMSYN016 333 20228 58001
0095826780999991994011118004-06767-043017FM-12+013899999V0200901N00151007501CN0200001N9+03041+02411100861ADDAA106000091AG14000GF108991051041008001071999MA1999999099291MD1999999+0101REMSYN010 333 58010
0114826780999991994011212004-06767-043017FM-12+013899999V0201401N00101007501CN0200001N9+02601+02331101161ADDAA106000091AG14000GF108991061051008001021999KA1240N+02361MA1999999099581MD1999999-0011REMSYN016 333 20236 59001
0123826780999991994011218004-06767-043017FM-12+013899999V0202701N002619999999N0200001N9+02821+02291100951ADDAA106000191AG13000AY121061AY251061GF108991999999008001999999MA1999999099371MD1999999+0081MW1021REMSYN016 333 58008 69911
0120826780999991994011312004-06767-043017FM-12+013899999V0203201N00211007501CN0200001N9+02581+02211101301ADDAA124000191AG10000GF108991051021008001001021KA1240N+02251MA1999999099781MD1999999+0201REMSYN022 333 20225 58020 69914
0158826780999991994011400004-06767-043017FM-12+013899999V0209991C00001220001CN9999999N9+02441+02391101051ADDAA124010091AG10006AY161061AY211061GA1001+999999999GF100991001001999999001001KA1240M+03121MA1999999099531MD1999999+0091MW1011REMSYN022 333 10312 58009 60104
0120826780999991994011412004-06767-043017FM-12+013899999V0203201N00101007501CN0200001N9+02671+02331101271ADDAA124021091AG10000GF107991071041008001001001KA1240N+02251MA1999999099691MD1999999-0091REMSYN022 333 20225 59009 60214
0095826780999991994011418004-06767-043017FM-12+013899999V0203601N00101045001CN0200001N9+03191+02251100871ADDAA106000091AG14000GF108991041031008001011021MA1999999099301MD1999999+0001REMSYN010 333 58000
0136826780999991994011512004-06767-043017FM-12+013899999V0202301N00051007501CN0200001N9+02421+02251101391ADDAA106000091AG10000AY121061AY251061GF108991071071008001021999KA1240N+02231MA1999999099801MD1999999+0111MW1021REMSYN016 333 20223 58011
0114826780999991994011700004-06767-043017FM-12+013899999V0209991C00001007501CN9999999N9+02601+02211101171ADDAA106000091AG14000GF108991081041008001999999KA1240M+02941MA1999999099591MD1999999+0111REMSYN016 333 10294 58011
0114826780999991994011712004-06767-043017FM-12+013899999V0202701N00051007501CN0200001N9+02531+02331101241ADDAA106000091AG14000GF108991071051008001061999KA1240N+02261MA1999999099661MD1999999+0021REMSYN016 333 20226 58002
0123826780999991994011718004-06767-043017FM-12+013899999V0201401N00151007501CN0200001N9+02661+02481100911ADDAA106013091AG10006AY161061AY221061GF108991051041008001021999MA1999999099331MD1999999-0061MW1911REMSYN016 333 59006 60131
0142826780999991994011800004-06767-043017FM-12+013899999V0203601N00051220001CN9999999N9+02461+02321100941ADDAA106001091AG10006AY161061AY211061GF104991041001017501031001KA1240M+02981MA1999999099361MD1999999-0231MW1031REMSYN022 333 10298 59023 60011
0120826780999991994011812004-06767-043017FM-12+013899999V0203201N00101220001CN0200001N9+02591+02211101161ADDAA124014091AG10000GF104991021011008001031011KA1240N+02241MA1999999099581MD1999999-0081REMSYN022 333 20224 59008 60144
0123826780999991994011818004-06767-043017FM-12+013899999V0203201N00101045001CN0200001N9+02921+02291100831ADDAA106004091AG10006AY161061AY221061GF108991031041008001021999MA1999999099261MD1999999-0071MW1021REMSYN016 333 59007 60041
0120826780999991994011912004-06767-043017FM-12+013899999V0202301N00051007501CN0200001N9+02721+02391101191ADDAA124004091AG10000GF108991051041008001031001KA1240N+02351MA1999999099671MD1999999+0091REMSYN022 333 20235 58009 60044
0095826780999991994012018004-06767-043017FM-12+013899999V0201801N00151045001CN0200001N9+03111+02181100971ADDAA106000091AG14000GF105991031041008001031001MA1999999099401MD1999999-0011REMSYN010 333 59001
0062826780999991994012112004-06767-043017FM-12+013899999V0202301N001019999999N0200001N9+02641+99999999999ADDAA106000091AG14000GF106991999999008001999999MA1999999099731
0114826780999991994012400004-06767-043017FM-12+013899999V0209991C00001045001CN9999999N9+02601+02421100951ADDAA106000091AG14000GF107991041041008001031001KA1240M+03361MA1999999099701MD1999999+0341REMSYN016 333 10336 58034
0120826780999991994012412004-06767-043017FM-12+013899999V0200501N00101220001CN0200001N9+02701+02371101331ADDAA124007091AG10000GF103991011011008001001011KA1240N+02201MA1999999099751MD1999999-0051REMSYN022 333 20220 59005 60074
0095826780999991994012418004-06767-043017FM-12+013899999V0203201N00051007501CN0200001N9+03321+02201100961ADDAA106000091AG14000GF106991051031008001001011MA1999999099401MD1999999-0101REMSYN010 333 59010
0120826780999991994012512004-06767-043017FM-12+013899999V0209991C00001007501CN0200001N9+02501+02361101461ADDAA124009091AG10000GF108991051031008001001011KA1240N+02281MA1999999099941MD1999999-0191REMSYN022 333 20228 59019 60094
0095826780999991994012518004-06767-043017FM-12+013899999V0209991C00001045001CN0200001N9+03121+02331100961ADDAA106000091AG14000GF108991041031008001081011MA1999999099441MD1999999+0041REMSYN010 333 58004
0114826780999991994012612004-06767-043017FM-12+013899999V0203201N00051007501CN0200001N9+02621+02391101301ADDAA106000091AG14000GF106991061041008001001001KA1240N+02291MA1999999099721MD1999999-0221REMSYN016 333 20229 59022
0095826780999991994012618004-06767-043017FM-12+013899999V0202701N00101007501CN0200001N9+03371+02211100831ADDAA106000091AG14000GF106991061041008001001001MA1999999099271MD1999999-0171REMSYN010 333 59017
0120826780999991994012712004-06767-043017FM-12+013899999V0209991C00001045001CN0200001N9+02521+02311101301ADDAA124001091AG10000GF108991021041008001031021KA1240N+02201MA1999999099711MD1999999-0011REMSYN022 333 20220 59001 60014
0095826780999991994012718004-06767-043017FM-12+013899999V0201801N00101105001CN0200001N9+03301+02181100821ADDAA106000091AG14000GF106991041021008001001021MA1999999099261MD1999999-0011REMSYN010 333 59001
0114826780999991994012800004-06767-043017FM-12+013899999V0209991C00001220001CN9999999N9+02801+02311101021ADDAA106000091AG14000GF102991011001017501031011KA1240M+03371MA1999999099451MD1999999+0011REMSYN016 333 10337 58001
0114826780999991994012812004-06767-043017FM-12+013899999V0203601N00211045001CN0200001N9+02521+02331101231ADDAA106000091AG14000GF108991031011008001081999KA1240N+02241MA1999999099711MD1999999+0001REMSYN016 333 20224 58000
0120826780999991994012912004-06767-043017FM-12+013899999V0200901N00101007501CN0200001N9+02521+02311101341ADDAA124003091AG10000GF108991061041008001061999KA1240N+01981MA1999999099741MD1999999+0031REMSYN022 333 20198 58003 60034
0123826780999991994012918004-06767-043017FM-12+013899999V0200901N00151007501CN0200001N9+02521+02331101081ADDAA106011091AG10006AY161061AY221061GF108991051051008001021999MA1999999099481MD1999999+0001MW1611REMSYN016 333 58000 60111
0120826780999991994013012004-06767-043017FM-12+013899999V0201401N00151007501CN0200001N9+02511+02401101391ADDAA124012091AG10000GF108991061041008001021999KA1240N+02191MA1999999099801MD1999999+0061REMSYN022 333 20219 58006 60124
0095826780999991994013018004-06767-043017FM-12+013899999V0201401N00101007501CN0200001N9+03081+02241101041ADDAA106000091AG14000GF107991051041008001011001MA1999999099461MD1999999-0021REMSYN010 333 59002
0114826780999991994013112004-06767-043017FM-12+013899999V0209991C00001007501CN0200001N9+02541+02331101261ADDAA106000091AG14000GF108991051041008001031999KA1240N+02241MA1999999099741MD1999999-0061REMSYN016 333 20224 59006
0101826780999991994013118004-06767-043017FM-12+013899999V0203201N00051007501CN0200001N9+02721+02391101041ADDAA106004091AG10000GF108991061031008001081011MA1999999099521MD1999999+0061REMSYN016 333 58006 60041
0130826780999991994020100004-06767-043017FM-12+013899999V0209991C00001220001CN9999999N9+02461+02321101051ADDAA106000091AG14000GA1001+999999999GF100991001001999999001001KA1240M+02741MA1999999099521MD1999999+0061REMSYN016 333 10274 58006
0120826780999991994020112004-06767-043017FM-12+013899999V0202701N00101007501CN0200001N9+02491+02321101411ADDAA124004091AG10000GF107991061041008001061001KA1240N+02171MA1999999099821MD1999999+0081REMSYN022 333 20217 58008 60044
0123826780999991994020118004-06767-043017FM-12+013899999V0202701N00051007501CN0200001N9+02561+02351101121ADDAA106020091AG10006AY161061AY221061GF108991051041008001021999MA1999999099531MD1999999+0011MW1021REMSYN016 333 58001 60201
0120826780999991994020212004-06767-043017FM-12+013899999V0209991C00001007501CN0200001N9+02541+02331101461ADDAA124020091AG10000GF108991061051008001021999KA1240N+02121MA1999999099861MD1999999+0061REMSYN022 333 20212 58006 60204
0095826780999991994020218004-06767-043017FM-12+013899999V0202301N00051105001CN0200001N9+03081+02181101101ADDAA106000091AG14000GF106991041031008001001081MA1999999099541MD1999999+0111REMSYN010 333 58011
0120826780999991994020312004-06767-043017FM-12+013899999V0201401N00101045001CN0200001N9+02541+02341101411ADDAA124000391AG10000GF108991041031008001041011KA1240N+02081MA1999999099891MD1999999-0051REMSYN022 333 20208 59005 69934
0095826780999991994020318004-06767-043017FM-12+013899999V0201401N00101007501CN0200001N9+03121+02231101021ADDAA106000091AG14000GF108991051041008001021011MA1999999099501MD1999999-0041REMSYN010 333 59004
0130826780999991994020400004-06767-043017FM-12+013899999V0209991C00001220001CN9999999N9+02481+02361101161ADDAA106000091AG14000GA1001+999999999GF100991001001999999001001KA1240M+03281MA1999999099581MD1999999+0011REMSYN016 333 10328 58001
0114826780999991994020412004-06767-043017FM-12+013899999V0200501N00101007501CN0200001N9+02561+02291101341ADDAA106000091AG14000GF108991061041008001061999KA1240N+02141MA1999999099751MD1999999-0141REMSYN016 333 20214 59014
0120826780999991994020512004-06767-043017FM-12+013899999V0209991C00001007501CN0200001N9+02441+02251101291ADDAA124000391AG10000GF108991061041008001061999KA1240N+02121MA1999999099701MD1999999-0051REMSYN022 333 20212 59005 69934
0095826780999991994020518004-06767-043017FM-12+013899999V0203201N00051045001CN0200001N9+03081+02191100841ADDAA106000091AG14000GF106991031041008001071001MA1999999099271MD1999999-0131REMSYN010 333 59013
0112826780999991994020618004-06767-043017FM-12+013899999V0202701N00051007501CN0200001N9+02581+02251101101ADDAA106000491AA299000591AG10000GF108991051041008001011999MA1999999099581MD1999999+0241REMSYN016 333 58024 69941
0142826780999991994020712004-06767-043017FM-12+013899999V0209991C00001007501CN0200001N9+02341+02201101451ADDAA124001091AG10006AY161061AY241061GF108991081061008001999999KA1240N+02041MA1999999099851MD1999999+0021MW1021REMSYN022 333 20204 58002 60014
0095826780999991994020718004-06767-043017FM-12+013899999V0203601N00051105001CN0200001N9+03101+02121100981ADDAA106000091AG14000GF106991041031008001001021MA1999999099401MD1999999-0111REMSYN010 333 59011
0133826780999991994020812004-06767-043017FM-12+013899999V0200901N00151007501CN0200001N9+02051+99999101391ADDAA106000091AG14000GF108991051041008001031999KA1240N+99999MA1999999099811MD1999999-0021REMSYN016 333 20218 59002EQDQ01 +02182ATMN  
0134826780999991994020818004-06767-043017FM-12+013899999V0202301N00101105001CN0200001N9+03081+02371100981ADDAA106000291AA299000191AG10001AY151061AY221061GF106991041021008001001021MA1999999099411MD1999999+0011MW1031REMSYN016 333 58001 69921
0142826780999991994020912004-06767-043017FM-12+013899999V0200901N00151007501CN0200001N9+02461+02361101411ADDAA124003091AG10006AY161061AY211061GF108991051041008001021999KA1240N+02201MA1999999099881MD1999999+0051MW1021REMSYN022 333 20220 58005 60034
0123826780999991994020918004-06767-043017FM-12+013899999V0202301N00151007501CN0200001N9+02541+02331100951ADDAA106014091AG10006AY161061AY211061GF108991061021008001071011MA1999999099431MD1999999+0021MW1021REMSYN016 333 58002 60141
0120826780999991994021012004-06767-043017FM-12+013899999V0209991C00001007501CN0200001N9+02521+02361101451ADDAA124014091AG10000GF108991051041008001011999KA1240N+02201MA1999999099861MD1999999-0021REMSYN022 333 20220 59002 60144
0123826780999991994021018004-06767-043017FM-12+013899999V0202301N00101045001CN0200001N9+02621+02371101251ADDAA106000391AG10006AY161061AY221061GF108991031041008001071999MA1999999099661MD1999999+0231MW1021REMSYN016 333 58023 69931
0120826780999991994021112004-06767-043017FM-12+013899999V0202701N00051007501CN0200001N9+02501+02191101541ADDAA124000391AG10000GF108991061041008001001011KA1240N+02161MA1999999099951MD1999999+0091REMSYN022 333 20216 58009 69934
0095826780999991994021118004-06767-043017FM-12+013899999V0200501N00311105001CN0200001N9+02921+02221101111ADDAA106000091AG14000GF106991041081008001001021MA1999999099531MD1999999-0131REMSYN010 333 59013
0114826780999991994021200004-06767-043017FM-12+013899999V0209991C00001015001CN9999999N9+02481+02171101231ADDAA106000091AG14000GF108991081001017501011999KA1240M+03121MA1999999099641MD1999999-0111REMSYN016 333 10312 59011
0114826780999991994021212004-06767-043017FM-12+013899999V0202701N00151007501CN0200001N9+02501+01841101231ADDAA106000091AG14000GF108991061041008001021999KA1240N+02101MA1999999099821MD1999999-0071REMSYN016 333 20210 59007
0095826780999991994021218004-06767-043017FM-12+013899999V0202301N00311007501CN0200001N9+03101+02441101061ADDAA106000091AG14000GF106991061031008001001021MA1999999099331MD1999999-0371REMSYN010 333 59037
0094826780999991994021312004-06767-043017FM-12+013899999V0201401N00051045001CN0200001N9+02341+02111101681ADDAA106000091AG14000GF108991041011008001061011KA1240N+02131MA1999999100161REMSYN010 333 20213
0130826780999991994021318004-06767-043017FM-12+013899999V0201401N001519999999N0200001N9+03081+02161100772ADDAA106000091AG14000GF106991031001008001001011MA1999999099252MD1999999-0081REMSYN010 333 59008EQDQ01+099253APOSP Q02+100773APOSLP
0100826780999991994021400004-06767-043017FM-12+013899999V0200501N00051015001CN9999999N9+02461+02151101261ADDAA106000091AG14000GF105991051001017501011001KA1240M+03161MA1999999099661REMSYN016 333 10316 58///
0114826780999991994021412004-06767-043017FM-12+013899999V0200501N00101220001CN0200001N9+02741+02241101321ADDAA106000091AG14000GF105991031011008001001011KA1240N+02241MA1999999099741MD1999999-0331REMSYN016 333 20224 59033
0131826780999991994021512004-06767-043017FM-12+013899999V0201401N00051045001CN0200001N9+02591+02231101591ADDAA124000491AA299000591AG10000GF108991031041008001031011KA1240N+02081MA1999999099941MD1999999+0201REMSYN022 333 20208 58020 69944
0095826780999991994021618004-06767-043017FM-12+013899999V0201401N00101007501CN0200001N9+03181+02221101121ADDAA106000091AG14000GF108991051021008001001021MA1999999099551MD1999999+0071REMSYN010 333 58007
0114826780999991994021812004-06767-043017FM-12+013899999V0200901N00051045001CN0200001N9+02741+02301101381ADDAA106000091AG14000GF106991011011008001031011KA1240N+02301MA1999999099811MD1999999+0001REMSYN016 333 20230 58000
0095826780999991994021818004-06767-043017FM-12+013899999V0203601N00151007501CN0200001N9+02981+02371101081ADDAA106000091AG14000GF108991051041008001071999MA1999999099511MD1999999-0011REMSYN010 333 59001
0114826780999991994021912004-06767-043017FM-12+013899999V0200501N00051007501CN0200001N9+02581+02331101311ADDAA106000091AG14000GF108991081071008001999999KA1240N+02191MA1999999099721MD1999999-0091REMSYN016 333 20219 59009
0123826780999991994021918004-06767-043017FM-12+013899999V0202701N00101045001CN0200001N9+02841+02421100941ADDAA106002091AG10006AY161061AY221061GF106991021031008001021021MA1999999099361MD1999999-0151MW1021REMSYN016 333 59015 60021
0120826780999991994022012004-06767-043017FM-12+013899999V0203201N00051007501CN0200001N9+02591+02341101381ADDAA124002091AG10000GF108991071051008001021999KA1240N+02221MA1999999099791MD1999999+0071REMSYN022 333 20222 58007 60024
0123826780999991994022018004-06767-043017FM-12+013899999V0203201N00101007501CN0100001N9+02601+02331100981ADDAA106008091AG10000AY121061AY221061GF107991061051008001001021MA1999999099391MD1999999+0031MW1211REMSYN016 333 58003 60081
0095826780999991994022118004-06767-043017FM-12+013899999V0201401N00101007501CN0200001N9+03181+02251100781ADDAA106000091AG14000GF108991051021008001081011MA1999999099861MD1999999-0131REMSYN010 333 59013
0142826780999991994022212004-06767-043017FM-12+013899999V0209991C00001045001CN0200001N9+02491+02341101321ADDAA124007091AG10006AY161061AY221061GF108991041041008001071999KA1240N+02241MA1999999099741MD1999999-0091MW1021REMSYN022 333 20224 59009 60074
0095826780999991994022218004-06767-043017FM-12+013899999V0200501N00051045001CN0200001N9+02941+02161100961ADDAA106000091AG14000GF108991031041008001071999MA1999999099391MD1999999+0131REMSYN010 333 58013
0114826780999991994022312004-06767-043017FM-12+013899999V0200501N00051007501CN0200001N9+02621+02351101261ADDAA106000091AG14000GF107991051041008001001011KA1240N+02181MA1999999099681MD1999999-0061REMSYN016 333 20218 59006
0123826780999991994022318004-06767-043017FM-12+013899999V0200501N00101045001CN0200001N9+03191+02251100781ADDAA106001091AG13000AY121061AY261061GF108991031031008001011021MA1999999099221MD1999999-0171MW1021REMSYN016 333 59017 60011
0142826780999991994022412004-06767-043017FM-12+013899999V0202301N00151045001CN0200001N9+02601+02231101311ADDAA124015091AG13000AY121061AY261061GF108991031021008001021011KA1240N+02211MA1999999099721MD1999999-0041MW1021REMSYN022 333 20221 59004 60154
0095826780999991994022418004-06767-043017FM-12+013899999V0201801N00151045001CN0200001N9+03031+02241100991ADDAA106000091AG14000GF108991041081008001021011MA1999999099421MD1999999+0201REMSYN010 333 58020
0123826780999991994022518004-06767-043017FM-12+013899999V0202301N00151105001CN0200001N9+03181+02331100721ADDAA106001091AG10006AY161061AY211061GF106991041021008001001021MA1999999099201MD1999999-0221MW1021REMSYN016 333 59022 60011
0142826780999991994022612004-06767-043017FM-12+013899999V0201401N00051045001CN0200001N9+02441+02321101381ADDAA124022091AG10006AY161061AY221061GF108991031041008001021999KA1240N+02091MA1999999099791MD1999999+0081MW1021REMSYN022 333 20209 58008 60224
0095826780999991994022618004-06767-043017FM-12+013899999V0201801N00151007501CN0200001N9+02971+02421100961ADDAA106000091AG14000GF107991051041008001021001MA1999999099391MD1999999+0191REMSYN010 333 58019
0142826780999991994022712004-06767-043017FM-12+013899999V0200901N00311007501CN0100001N9+02261+02111101681ADDAA124044091AG10006AY161061AY261061GF108991081071008001999999KA1240N+02251MA1999999100081MD1999999+0031MW1611REMSYN022 333 20225 58003 60444
0095826780999991994022718004-06767-043017FM-12+013899999V0202301N00311045001CN0200001N9+02871+02111101111ADDAA106000091AG14000GF107991041031008001021001MA1999999099531MD1999999+0141REMSYN010 333 58014
0114826780999991994022800004-06767-043017FM-12+013899999V0209991C00001015001CN9999999N9+02571+02221101251ADDAA106000091AG14000GF108991081001017501031999KA1240M+03041MA1999999099661MD1999999+0021REMSYN016 333 10304 58002
0114826780999991994022812004-06767-043017FM-12+013899999V0202701N00051007501CN0200001N9+02561+02231101441ADDAA106000091AG14000GF108991061041008001021999KA1240N+02161MA1999999099851MD1999999-0231REMSYN016 333 20216 59023
0114826780999991994022818004-06767-043017FM-12+013899999V0201401N00051220001CN0200001N9+02851+02291101131ADDAA106000091AG14000GF104991999031008001001021MA1999999099551MD1999999+0021REMSYN010 333 58002EQDQ01+000052SCOTLC
0123826780999991994030118004-06767-043017FM-12+013899999V0209991C00001007501CN0200001N9+02861+02501101021ADDAA106002091AG10006AY161061AY211061GF108991051021008001001021MA1999999099501MD1999999-0051MW1021REMSYN016 333 59005 60021
0130826780999991994030200004-06767-043017FM-12+013899999V0209991C00001220001CN9999999N9+02361+02241101211ADDAA106000091AG14000GA1001+999999999GF100991001001999999001001KA1240M+03041MA1999999099691MD1999999-0051REMSYN016 333 10304 59005
0120826780999991994030212004-06767-043017FM-12+013899999V0200501N00151045001CN0200001N9+02561+02251101421ADDAA124002091AG10000GF107991011011008001031001KA1240N+02001MA1999999099831MD1999999-0011REMSYN022 333 20200 59001 60024
0123826780999991994030218004-06767-043017FM-12+013899999V0209991C00001007501CN0200001N9+02901+02391101041ADDAA106005091AG10006AY161061AY221061GF108991051041008001061011MA1999999099461MD1999999-0041MW1021REMSYN016 333 59004 60051
0114826780999991994030300004-06767-043017FM-12+013899999V0209991C00001007501CN9999999N9+02461+02371101171ADDAA106000091AG14000GF107991051041008001021001KA1240M+03131MA1999999099591MD1999999-0101REMSYN016 333 10313 59010
0095826780999991994030318004-06767-043017FM-12+013899999V0201401N00151007501CN0200001N9+03081+02211100911ADDAA106000091AG14000GF108991051021008001031021MA1999999099391MD1999999-0071REMSYN010 333 59007
0114826780999991994030412004-06767-043017FM-12+013899999V0203201N00101007501CN0200001N9+02601+02291101441ADDAA106000091AG14000GF108991061041008001011999KA1240N+02261MA1999999099851MD1999999+0041REMSYN016 333 20226 58004
0095826780999991994030418004-06767-043017FM-12+013899999V0203601N00311007501CN0200001N9+03241+02381100971ADDAA106000091AG14000GF106991051031008001041011MA1999999099411MD1999999+0021REMSYN010 333 58002
0114826780999991994030512004-06767-043017FM-12+013899999V0203201N00051007501CN0200001N9+02521+02231101241ADDAA106000091AG14000GF108991051041008001021999KA1240N+02281MA1999999099721MD1999999-0131REMSYN016 333 20228 59013
0133826780999991994030600004-06767-043017FM-12+013899999V0203601N00101007501CN9999999N9+02621+02461101201ADDAA106000091AG14000GF108991061041008001021999KA1240M+03241MA1999999999999MD1999999+0151REMSYN016 333 10324 58015EQDQ01 092623APOSP 
0142826780999991994030612004-06767-043017FM-12+013899999V0202301N00051045001CN0200001N9+02221+02171101581ADDAA124038091AG10006AY161061AY221061GF108991041051008001021999KA1240N+02101MA1999999099981MD1999999+0261MW1611REMSYN022 333 20210 58026 60384
0123826780999991994030618004-06767-043017FM-12+013899999V0202701N00051007501CN0200001N9+02381+02211101301ADDAA106005091AG10006AY161061AY221061GF108991061051008001021999MA1999999099701MD1999999+0361MW1611REMSYN016 333 58036 60051
0114826780999991994030700004-06767-043017FM-12+013899999V0209991C00001007501CN9999999N9+02341+02271101411ADDAA106000091AG14000GF108991051051008001021999KA1240M+02651MA1999999099811MD1999999+0191REMSYN016 333 10265 58019
0120826780999991994030712004-06767-043017FM-12+013899999V0200501N00151045001CN0200001N9+02561+02171101401ADDAA124005091AG10000GF106991041021008001031011KA1240N+01991MA1999999099811MD1999999-0171REMSYN022 333 20199 59017 60054
0095826780999991994030718004-06767-043017FM-12+013899999V0200501N00151220001CN0200001N9+03101+02201100921ADDAA106000091AG14000GF105991041021008001001011MA1999999099351MD1999999-0351REMSYN010 333 59035
0142826780999991994030812004-06767-043017FM-12+013899999V0200901N00101007501CN0100001N9+02301+02251101341ADDAA124012091AG10006AY161061AY261061GF108991081071008001999999KA1240N+01871MA1999999099941MD1999999+0131MW1611REMSYN022 333 20187 58013 60124
0142826780999991994030912004-06767-043017FM-12+013899999V0203601N00101220001CN0200001N9+02641+02311101421ADDAA124002091AG10006AY161061AY221061GF106991031021008001001011KA1240N+02101MA1999999099901MD1999999-0041MW1021REMSYN022 333 20210 59004 60024
0123826780999991994030918004-06767-043017FM-12+013899999V0202301N00151105001CN0200001N9+02481+02321101101ADDAA106009091AG10006AY161061AY211061GF108991041021008001001021MA1999999099581MD1999999+0131MW1021REMSYN016 333 58013 60091
0161826780999991994031000004-06767-043017FM-12+013899999V0209991C000019999999N9999999N9+02261+02231101201ADDAA106001091AG10006AY161061AY221061GF105991999011008001001001KA1240M+03021MA1999999099681MD1999999-0031MW1021REMSYN022 333 10302 59003 60011EQDQ01+000022SCOTLC
0120826780999991994031012004-06767-043017FM-12+013899999V0202301N00051045001CN0200001N9+02381+02211101551ADDAA124010091AG10000GF108991041041008001061999KA1240N+02101MA1999999099951MD1999999+0051REMSYN022 333 20210 58005 60104
0123826780999991994031018004-06767-043017FM-12+013899999V0203601N00101045001CN0200001N9+02511+02291101311ADDAA106003091AG10006AY161061AY221061GF107991041041008001031011MA1999999099711MD1999999+0131MW1021REMSYN016 333 58013 60031
0120826780999991994031112004-06767-043017FM-12+013899999V0200501N00151012001CN0200001N9+02681+02281101521ADDAA124003091AG10000GF107991061081008001001011KA1240N+02061MA1999999099931MD1999999-0021REMSYN022 333 20206 59002 60034
0095826780999991994031118004-06767-043017FM-12+013899999V0202701N00101045001CN0200001N9+03201+02151101011ADDAA106000091AG14000GF105991031021008001031011MA1999999099441MD1999999-0271REMSYN010 333 59027
0114826780999991994031212004-06767-043017FM-12+013899999V0203201N00261007501CN0200001N9+02541+02251101341ADDAA106000091AG14000GF108991071041008001021999KA1240N+02271MA1999999099761MD1999999-0171REMSYN016 333 20227 59017
0095826780999991994031218004-06767-043017FM-12+013899999V0202701N00051045001CN0200001N9+03181+02221101071ADDAA106000091AG14000GF106991041021008001031021MA1999999099421MD1999999-0021REMSYN010 333 59002
0114826780999991994031312004-06767-043017FM-12+013899999V0200501N00101105001CN0200001N9+02681+02331101341ADDAA106000091AG14000GF108991031021008001001021KA1240N+02311MA1999999099821MD1999999+0061REMSYN016 333 20231 58006
0161826780999991994031412004-06767-043017FM-12+013899999V0201401N002619999999N0200001N9+02591+02231101311ADDAA124018091AG10006AY161061AY261061GF107991001001999999001061KA1240N+02221MA1999999099731MD1999999-0091MW1021REMSYN022 333 20222 59009 60184EQDQ01+000072SCOTLC
0142826780999991994031512004-06767-043017FM-12+013899999V0201401N00101045001CN0200001N9+02661+02331101371ADDAA124013091AG10006AY161061AY221061GF106991021011008001031011KA1240N+02221MA1999999099791MD1999999+0061MW1021REMSYN022 333 20222 58006 60134
0134826780999991994031518004-06767-043017FM-12+013899999V0200901N00051220001CN0200001N9+03101+02341100871ADDAA106000691AA299000591AG10006AY161061AY221061GF106991041041008001001011MA1999999099301MD1999999+0001MW1021REMSYN016 333 58000 69961
0142826780999991994031612004-06767-043017FM-12+013899999V0200501N00101007501CN0200001N9+02471+02251101391ADDAA124011091AG10006AY161061AY221061GF108991061041008001021999KA1240N+02221MA1999999099741MD1999999+0001MW1021REMSYN022 333 20222 58000 60114
0095826780999991994031618004-06767-043017FM-12+013899999V0203601N00101045001CN0200001N9+03121+02281101011ADDAA106000091AG14000GF108991031021008001041041MA1999999099441MD1999999+0141REMSYN010 333 58014
0131826780999991994031712004-06767-043017FM-12+013899999V0200501N00151105001CN0200001N9+02661+02331101371ADDAA124000291AA299000191AG10000GF107991031021008001001021KA1240N+02661MA1999999099851MD1999999+0061REMSYN022 333 20266 58006 69924
0114826780999991994031718004-06767-043017FM-12+013899999V0202501N05292105001CN0200001N9+02181+99999100871ADDAA106000091AG14000GF108991041011008001001021MA1999999099351MD1999999-0091REMSYN010 333 59009EQDQ01+005293WOSPD 
0115826780999991994031812004-06767-043017FM-12+013899999V0203201N00101007501CN0200001N9+02581+02331101421ADDAA106000091AG10000GF108991061051008001061999KA1240N+02141MA1999999099841MD1999999-0011REMSYN017 333 20214 59001;
0120826780999991994031912004-06767-043017FM-12+013899999V0200501N00261220001CN0200001N9+02721+02371101311ADDAA124000191AG10000GF105991031021008001001011KA1240N+02201MA1999999099731MD1999999-0111REMSYN022 333 20220 59011 69914
0123826780999991994031918004-06767-043017FM-12+013899999V0201401N00571007501CN0100001N9+03161+02341100971ADDAA106025091AG10018AY191061AY221061GF108991081071008001999999MA1999999099401MD1999999+0001MW1641REMSYN016 333 58000 60251
0108826780999991994032012004-06767-043017FM-12+013899999V0209991C999990450019N0200001N9+02461+02461101021ADDAG12006AY161061AY221061GA1081+999999049GF109991091999999999999999MA1999999099461MW1021REMSYN010 333 8842/
0123826780999991994032118004-06767-043017FM-12+013899999V0200901N00151045001CN0200001N9+02861+02561100801ADDAA106003091AG10006AY161061AY221061GF108991031021008001041999MA1999999099281MD1999999-0191MW1021REMSYN016 333 59019 60031
0142826780999991994032212004-06767-043017FM-12+013899999V0203601N00101045001CN0200001N9+02501+02211101291ADDAA124004091AG10006AY161061AY221061GF107991031011008001071011KA1240N+02201MA1999999099701MD1999999-0121MW1021REMSYN022 333 20220 59012 60044
0095826780999991994032218004-06767-043017FM-12+013899999V0201801N00151007501CN0200001N9+03021+02311100921ADDAA106000091AG14000GF107991051041008001001021MA1999999099351MD1999999+0071REMSYN010 333 58007
0114826780999991994032312004-06767-043017FM-12+013899999V0201401N00151105001CN0200001N9+02761+02361101231ADDAA106000091AG14000GF106991031021008001001021KA1240N+02241MA1999999099651MD1999999-0051REMSYN016 333 20224 59005
0095826780999991994032318004-06767-043017FM-12+013899999V0201401N00151105001CN0200001N9+03281+02231100721ADDAA106000091AG14000GF105991031021008001001021MA1999999099161MD1999999-0191REMSYN010 333 59019
0131826780999991994032412004-06767-043017FM-12+013899999V0201401N00151045001CN0200001N9+02721+02321101451ADDAA124000291AA299000191AG10000GF106991021021008001031011KA1240N+02221MA1999999099871MD1999999+0221REMSYN022 333 20222 58022 69924
0142826780999991994032512004-06767-043017FM-12+013899999V0201401N00101045001CN0200001N9+02521+02361101521ADDAA124006091AG10006AY161061AY211061GF106991031041008001021011KA1240N+02141MA1999999100001MD1999999+0131MW1021REMSYN022 333 20214 58013 60064
0123826780999991994032518004-06767-043017FM-12+013899999V0201801N00101007501CN0200001N9+02681+02111101181ADDAA106003091AG10006AY161061AY211061GF108991051021008001001021MA1999999099661MD1999999+0151MW1021REMSYN016 333 58015 60031
0120826780999991994032612004-06767-043017FM-12+013899999V0209991C00001045001CN0200001N9+02581+02271101561ADDAA124003091AG10000GF108991031041008001071999KA1240N+02241MA1999999099971MD1999999-0031REMSYN022 333 20224 59003 60034
0095826780999991994032618004-06767-043017FM-12+013899999V0200501N00101045001CN0200001N9+03141+02381101191ADDAA106000091AG14000GF107991041011008001031021MA1999999099641MD1999999-0021REMSYN010 333 59002
0114826780999991994032712004-06767-043017FM-12+013899999V0200901N00211220001CN0200001N9+02781+02301101341ADDAA106000091AG14000GF103991011001008001031011KA1240N+02221MA1999999099761MD1999999-0211REMSYN016 333 20222 59021
0120826780999991994032812004-06767-043017FM-12+013899999V0200901N00101045001CN0200001N9+02751+02401101351ADDAA124013091AG10000GF106991041031008001031001KA1240N+02201MA1999999099761MD1999999+0001REMSYN022 333 20220 58000 60134
0095826780999991994033018004-06767-043017FM-12+013899999V0201401N00151045001CN0200001N9+03131+02211101171ADDAA106000091AG14000GF107991031011008001021011MA1999999099601MD1999999+0201REMSYN010 333 58020
0095826780999991994033118004-06767-043017FM-12+013899999V0201801N00261045001CN0200001N9+03181+02221101061ADDAA106000091AG14000GF107991041021008001031021MA1999999099491MD1999999-0111REMSYN010 333 59011
0120826780999991994040212004-06767-043017FM-12+013899999V0209991C00001105001CN0200001N9+02741+02391101381ADDAA124003091AG10000GF108991041031008001001021KA1240N+02261MA1999999099801MD1999999+0111REMSYN022 333 20226 58011 60034
0095826780999991994040418004-06767-043017FM-12+013899999V0201801N00211012001CN0200001N9+02721+02431100901ADDAA106000091AG14000GF108991051081008001021999MA1999999099311MD1999999-0121REMSYN010 333 59012
0120826780999991994040612004-06767-043017FM-12+013899999V0202701N00151045001CN0200001N9+02581+02371101321ADDAA124004091AG10000GF108991041041008001031999KA1240N+02241MA1999999099801MD1999999-0051REMSYN022 333 20224 59005 60044
0095826780999991994040618004-06767-043017FM-12+013899999V0203601N00151105001CN0200001N9+03241+02311100711ADDAA106000091AG14000GF106991031021008001001021MA1999999099191MD1999999-0071REMSYN010 333 59007
0142826780999991994040712004-06767-043017FM-12+013899999V0200901N00101007501CN0200001N9+02461+02251101301ADDAA124019091AG10005AY161061AY221061GF108991061051008001061999KA1240N+02181MA1999999099711MD1999999-0091MW1021REMSYN022 333 20218 59009 60194
0095826780999991994040718004-06767-043017FM-12+013899999V0200901N00101045001CN0200001N9+03021+02261100911ADDAA106000091AG14000GF107991041041008001031001MA1999999099341MD1999999+0151REMSYN010 333 58015
0120826780999991994040812004-06767-043017FM-12+013899999V0200501N00101045001CN0200001N9+02691+02311101131ADDAA124008091AG10000GF107991021021008001031011KA1240N+02161MA1999999099541MD1999999-0171REMSYN022 333 20216 59017 60084
0095826780999991994040818004-06767-043017FM-12+013899999V0201801N00151045001CN0200001N9+03121+02361100801ADDAA106000091AG14000GF107991041041008001031021MA1999999099241MD1999999-0101REMSYN010 333 59010
0142826780999991994040912004-06767-043017FM-12+013899999V0200901N00051007501CN0200001N9+02501+02251101281ADDAA106000091AA224000491AA399000591AG10000GF108991071041008001021999KA1240N+02201MA1999999099691MD1999999+0151REMSYN022 333 20220 58015 69944
0142826780999991994041012004-06767-043017FM-12+013899999V0203201N00151007501CN0200001N9+02381+02211101431ADDAA124007091AG10005AY161061AY261061GF108991071051008001021999KA1240N+02251MA1999999099831MD1999999+0141MW1021REMSYN022 333 20225 58014 60074
0123826780999991994041018004-06767-043017FM-12+013899999V0200901N00151007501CN0200001N9+02801+02401101201ADDAA106005091AG10005AY161061AY261061GF108991061041008001031011MA1999999099811MD1999999-0321MW1021REMSYN016 333 59032 60051
0142826780999991994041112004-06767-043017FM-12+013899999V0200901N00051007501CN0200001N9+02411+02241101471ADDAA124028091AG13000AY121061AY261061GF108991061041008001021999KA1240N+01961MA1999999099871MD1999999+0041MW1021REMSYN022 333 20196 58004 60284
0123826780999991994041118004-06767-043017FM-12+013899999V0203201N00051105001CN0200001N9+02741+02401101081ADDAA106006091AG10005AY161061AY221061GF106991021031017501001021MA1999999099491MD1999999-0121MW1021REMSYN016 333 59012 60061
0120826780999991994041212004-06767-043017FM-12+013899999V0200501N00051220001CN0200001N9+02621+02371101521ADDAA124006091AG10000GF102991021011008001001001KA1240N+02161MA1999999099931MD1999999+0061REMSYN022 333 20216 58006 60064
0095826780999991994041218004-06767-043017FM-12+013899999V0201401N00261220001CN0200001N9+03221+02111100991ADDAA106000091AG14000GF105991041021008001001011MA1999999099421MD1999999-0071REMSYN010 333 59007
0114826780999991994041312004-06767-043017FM-12+013899999V0200901N00311045001CN0200001N9+02791+02301101471ADDAA106000091AG14000GF106991021021008001031021KA1240N+02271MA1999999099891MD1999999-0041REMSYN016 333 20227 59004
0096826780999991994041318004-06767-043017FM-12+013899999V0201401N00151105001CN0200001N9+03221+02231101041ADDAA106000091AG10000GF106991041031008001001021MA1999999099471MD1999999+0051REMSYN011 333 58005;
0131826780999991994041400004-06767-043017FM-12+013899999V0209991C00001220001CN9999999N9+02381+02281101181ADDAA106000091AG10000GA1001+999999999GF100991001001999999001001KA1240M+03381MA1999999099601MD1999999+0001REMSYN017 333 10338 58000;
0115826780999991994041412004-06767-043017FM-12+013899999V0200901N00151007501CN0200001N9+02781+02131101391ADDAA106000091AG10000GF108991051011008001001021KA1240N+02121MA1999999099871MD1999999-0021REMSYN017 333 20212 59002;
0096826780999991994041418004-06767-043017FM-12+013899999V0201401N00311220001CN0200001N9+03201+02031100981ADDAA106000091AG10000GF108991041021008001001011MA1999999099461MD1999999-0011REMSYN011 333 59001;
0115826780999991994041512004-06767-043017FM-12+013899999V0200901N00151007501CN0200001N9+02421+02251101621ADDAA106000091AG10000GF108991061051008001061999KA1240N+02101MA1999999100021MD1999999+0151REMSYN017 333 20210 58015;
0096826780999991994041518004-06767-043017FM-12+013899999V0203201N00151045001CN0200001N9+03101+02341101181ADDAA106000091AG10000GF107991041021008001031011MA1999999099601MD1999999+0141REMSYN011 333 58014;
0115826780999991994041612004-06767-043017FM-12+013899999V0201801N00051007501CN0200001N9+02701+02331101411ADDAA106000091AG10000GF106991061021008001001001KA1240N+02301MA1999999099831MD1999999-0191REMSYN017 333 20230 59019;
0096826780999991994041618004-06767-043017FM-12+013899999V0201801N00151220001CN0200001N9+03161+02371101081ADDAA106000091AG10000GF105991031021008001001011MA1999999099511MD1999999-0091REMSYN011 333 59009;
0115826780999991994041800004-06767-043017FM-12+013899999V0209999999999015001CN9999999N9+02501+02381101361ADDAA106000091AG10000GF105991051001017501031001KA1240M+03261MA1999999099781MD1999999-0021REMSYN017 333 10326 59002;
0143826780999991994041812004-06767-043017FM-12+013899999V0201401N00051007501CN0200001N9+02491+02401101381ADDAA124001091AG10005AY161061AY261061GF108991081071008001999999KA1240N+02211MA1999999099861MD1999999-0051MW1601REMSYN023 333 20221 59005 60014;
0124826780999991994041818004-06767-043017FM-12+013899999V0203201N00051045001CN0200001N9+02641+02371100971ADDAA106003091AG10005AY161061AY221061GF107991021031008001021021MA1999999099381MD1999999-0231MW1021REMSYN017 333 59023 60031;
0143826780999991994041900004-06767-043017FM-12+013899999V0209991C00001007501CN9999999N9+02321+02241101201ADDAA106001091AG10005AY161061AY261061GF108991081071008001999999KA1240M+02911MA1999999099681MD1999999-0101MW1601REMSYN023 333 10291 59010 60011;
0121826780999991994041912004-06767-043017FM-12+013899999V0200901N00151007501CN0200001N9+02561+02361101361ADDAA124008091AG10000GF108991051071008001011999KA1240N+02201MA1999999099841MD1999999-0021REMSYN023 333 20220 59002 60084;
0124826780999991994041918004-06767-043017FM-12+013899999V0201801N00211007501CN0200001N9+02981+02471100971ADDAA106001091AG10005AY161061AY221061GF106991061041008001001001MA1999999099401MD1999999+0021MW1021REMSYN017 333 58002 60011;
0143826780999991994042012004-06767-043017FM-12+013899999V0200901N00211007501CN0200001N9+02701+02411101301ADDAA124016091AG10005AY161061AY261061GF107991051021008001001011KA1240N+02281MA1999999099721MD1999999-0121MW1021REMSYN023 333 20228 59012 60164;
0124826780999991994042018004-06767-043017FM-12+013899999V0200501N00411007501CN0100001N9+02951+02451100821ADDAA106002091AG10005AY161061AY221061GF108991061071008001021999MA1999999099251MD1999999-0151MW1621REMSYN017 333 59015 60021;
0121826780999991994042112004-06767-043017FM-12+013899999V0201401N00211012001CN0200001N9+02741+02341101431ADDAA124006091AG10000GF107991061081008001031001KA1240N+02321MA1999999099851MD1999999+0131REMSYN023 333 20232 58013 60064;
0096826780999991994042118004-06767-043017FM-12+013899999V0201401N00311045001CN0200001N9+03141+02211101041ADDAA106000091AG10000GF105991041021008001031001MA1999999099471MD1999999+0221REMSYN011 333 58022;
0115826780999991994042200004-06767-043017FM-12+013899999V0209991C00001015001CN9999999N9+02561+02401101201ADDAA106000091AG10000GF105991051001017501031001KA1240M+03181MA1999999099621MD1999999+0051REMSYN017 333 10318 58005;
0115826780999991994042212004-06767-043017FM-12+013899999V0201401N00311220001CN0200001N9+02761+02191101361ADDAA106000091AG10000GF105991031011008001001011KA1240N+02141MA1999999099841MD1999999-0011REMSYN017 333 20214 59001;
0096826780999991994042218004-06767-043017FM-12+013899999V0201401N00311220001CN0200001N9+03241+02281101011ADDAA106000091AG10000GF103991031031008001001001MA1999999099451MD1999999-0021REMSYN011 333 59002;
0131826780999991994042300004-06767-043017FM-12+013899999V0209991C00001220001CN9999999N9+02601+02391101261ADDAA106000091AG10000GA1001+999999999GF100991001001999999001001KA1240M+03271MA1999999099741MD1999999+0121REMSYN017 333 10327 58012;
0115826780999991994042312004-06767-043017FM-12+013899999V0201401N00311007501CN0200001N9+02971+02251101481ADDAA106000091AG10000GF105991051011008001001001KA1240N+02171MA1999999099941MD1999999+0101REMSYN017 333 20217 58010;
0115826780999991994042318004-06767-043017FM-12+013899999V0201401N00151220001CN0200001N9+03261+02211101211ADDAA106000091AG10000GF102991999031008001001001MA1999999099631MD1999999+0181REMSYN011 333 58018;EQDQ01+000032SCOTLC
0115826780999991994042412004-06767-043017FM-12+013899999V0201401N00411220001CN0200001N9+02801+02191101481ADDAA106000091AG10000GF103991021011008001001011KA1240N+02191MA1999999099901MD1999999-0041REMSYN017 333 20219 59004;
0096826780999991994042418004-06767-043017FM-12+013899999V0201401N00211220001CN0200001N9+03131+02221101051ADDAA106000091AG10000GF103991031021008001001001MA1999999099481MD1999999-0151REMSYN011 333 59015;
0115826780999991994042512004-06767-043017FM-12+013899999V0201401N00151220001CN0200001N9+02801+02381101481ADDAA106000091AG10000GF103991011011008001031011KA1240N+02201MA1999999099901MD1999999+0001REMSYN017 333 20220 58000;
0115826780999991994042600004-06767-043017FM-12+013899999V0201401N00361220001CN0200001N9+02861+01951101271ADDAA106000091AG10000GF103991021011008001001011KA1240N+02181MA1999999099751MD1999999-0151REMSYN017 333 20218 59015;
0115826780999991994042612004-06767-043017FM-12+013899999V0201401N00361220001CN0200001N9+02861+01951101271ADDAA106000091AG10000GF103991021011008001001011KA1240N+02181MA1999999099751MD1999999-0151REMSYN017 333 20218 59015;
0096826780999991994042618004-06767-043017FM-12+013899999V0201401N00261220001CN0200001N9+03221+02231100911ADDAA106000091AG10000GF104991031021008001001011MA1999999099391MD1999999-0141REMSYN011 333 59014;
0115826780999991994042712004-06767-043017FM-12+013899999V0200901N00211105001CN0200001N9+02761+02211101361ADDAA106000091AG10000GF105991011011008001031011KA1240N+02181MA1999999099781MD1999999-0031REMSYN017 333 20218 59003;
0096826780999991994042718004-06767-043017FM-12+013899999V0201401N00361045001CN0200001N9+03181+02071100991ADDAA106000091AG10000GF105991031011008001031011MA1999999099421MD1999999+0091REMSYN011 333 58009;
0115826780999991994042800004-06767-043017FM-12+013899999V0209991C00001220001CN9999999N9+02641+02331101131ADDAA106000091AG10000GF107991041001017501031011KA1240M+03241MA1999999099561MD1999999+0061REMSYN017 333 10324 58006;
0115826780999991994042812004-06767-043017FM-12+013899999V0200901N00261045001CN0200001N9+02751+02321101511ADDAA106000091AG10000GF108991041051008001031021KA1240N+02231MA1999999099931MD1999999+0151REMSYN017 333 20223 58015;
0096826780999991994042818004-06767-043017FM-12+013899999V0200901N00151045001CN0200001N9+03131+02331101141ADDAA106000091AG10000GF107991021021008001031021MA1999999099571MD1999999+0151REMSYN011 333 58015;
0115826780999991994042912004-06767-043017FM-12+013899999V0202701N00051220001CN0200001N9+02721+02261101551ADDAA106000091AG10000GF104991011011008001031011KA1240N+02141MA1999999099961MD1999999+0031REMSYN017 333 20214 58003;
0131826780999991994043000004-06767-043017FM-12+013899999V0200901N00151220001CN9999999N9+02601+02231101221ADDAA106000091AG10000GA1001+999999999GF100991001001999999001001KA1240M+03281MA1999999099641MD1999999-0031REMSYN017 333 10328 59003;
0115826780999991994043012004-06767-043017FM-12+013899999V0201401N00361220001CN0200001N9+02781+02231101431ADDAA106000091AG10000GF106991041021008001001011KA1240N+02211MA1999999099911MD1999999-0051REMSYN017 333 20221 59005;
0131826780999991994050100004-06767-043017FM-12+013899999V0201801N00151220001CN9999999N9+02581+02271101331ADDAA106000091AG10000GA1001+999999999GF100991001001999999001001KA1240M+03261MA1999999099751MD1999999+0111REMSYN017 333 10326 58011;
0115826780999991994050112004-06767-043017FM-12+013899999V0209991C00001045001CN0200001N9+02461+02131101611ADDAA106000091AG10000GF106991011011008001071021KA1240N+02121MA1999999100021MD1999999+0011REMSYN017 333 20212 58001;
0096826780999991994050118004-06767-043017FM-12+013899999V0201801N00311220001CN0200001N9+03161+02231101201ADDAA106000091AG10000GF104991041011008001001001MA1999999099631MD1999999+0081REMSYN011 333 58008;
0115826780999991994050212004-06767-043017FM-12+013899999V0201401N00051007501CN0200001N9+02401+02171101731ADDAA106000091AG10000GF108991061041008001011999KA1240N+02251MA1999999100131MD1999999+0111REMSYN017 333 20225 58011;
0096826780999991994050218004-06767-043017FM-12+013899999V0201401N00151105001CN0200001N9+03201+02061101211ADDAA106000091AG10000GF107991021021008001001021MA1999999099641MD1999999+0011REMSYN011 333 58001;
0115826780999991994050312004-06767-043017FM-12+013899999V0201401N00311105001CN0200001N9+02841+01931101521ADDAA106000091AG10000GF106991021001017501031021KA1240N+02341MA1999999099951MD1999999-0081REMSYN017 333 20234 59008;
0096826780999991994050318004-06767-043017FM-12+013899999V0201401N00101220001CN0200001N9+03241+02311101121ADDAA106000091AG10000GF102991011011008001041001MA1999999099561MD1999999-0081REMSYN011 333 59008;
0115826780999991994050412004-06767-043017FM-12+013899999V0201401N00261220001CN0200001N1+02901+02041101401ADDAA106000091AG10000GF104991021011017501031021KA1240N+02121MA1999999099881MD1999999-0071REMSYN017 333 20212 59007;
0096826780999991994050418004-06767-043017FM-12+013899999V0201801N00151105001CN0200001N1+03301+02091100961ADDAA106000091AG10000GF105991031021008001001021MA1999999099441MD1999999-0101REMSYN011 333 59010;
0115826780999991994050512004-06767-043017FM-12+013899999V0203601N00051045001CN0200001N1+02681+02351101501ADDAA106000091AG10000GF107991011011008001031001KA1240N+02281MA1999999099921MD1999999+0041REMSYN017 333 20228 58004;
0124826780999991994050518004-06767-043017FM-12+013899999V0202301N00051045001CN0200001N1+02921+02121101121ADDAA106004091AG10005AY161061AY221061GF107991031041008001071001MA1999999099551MD1999999+0111MW1021REMSYN017 333 58011 60041;
0121826780999991994050612004-06767-043017FM-12+013899999V0201401N00261045001CN0200001N1+02711+02241101631ADDAA124004091AG10000GF108991041041008001011061KA1240N+02231MA1999999100041MD1999999+0121REMSYN023 333 20223 58012 60044;
0096826780999991994050618004-06767-043017FM-12+013899999V0200901N00261220001CN0200001N1+03241+02101101111ADDAA106000091AG10000GF105991031011008001001011MA1999999099541MD1999999-0011REMSYN011 333 59001;
0115826780999991994050712004-06767-043017FM-12+013899999V0201401N00571220001CN0200001N1+02791+02161101461ADDAA106000091AG10000GF105991041011008001001011KA1240N+02201MA1999999099881MD1999999-0161REMSYN017 333 20220 59016;
0096826780999991994050718004-06767-043017FM-12+013899999V0201401N00211105001CN0200001N1+03161+02321101061ADDAA106000091AG10000GF105991021021008001031011MA1999999099491MD1999999-0051REMSYN011 333 59005;
0115826780999991994050912004-06767-043017FM-12+013899999V0201401N00311007501CN0200001N1+02681+02131101521ADDAA106000091AG10000GF108991051041008001071999KA1240N+02381MA1999999099941MD1999999+0151REMSYN017 333 20238 58015;
0096826780999991994050918004-06767-043017FM-12+013899999V0201401N00311007501CN0200001N1+03171+02361101161ADDAA106000091AG10000GF107991051031008001031001MA1999999099491MD1999999+0181REMSYN011 333 58018;
0115826780999991994051012004-06767-043017FM-12+013899999V0201401N00411105001CN0200001N1+02861+02061101591ADDAA106000091AG10000GF108991031011008001001021KA1240N+02201MA1999999100011MD1999999+0071REMSYN017 333 20220 58007;
0096826780999991994051018004-06767-043017FM-12+013899999V0201401N00151007501CN0200001N1+03281+02031101131ADDAA106000091AG10000GF107991051041008001061011MA1999999099561MD1999999-0031REMSYN011 333 59003;
0150826780999991994051100004-06767-043017FM-12+013899999V0200901N00051220001CN9999999N9+02521+02291101321ADDAA106000091AG10000GA1001+999999999GF100991001001999999001001KA1240M+03381MA1999999099741MD1999999-0071REMSYN017 333 10338 59007;EQDQ01+000002VOVAR 
0115826780999991994051112004-06767-043017FM-12+013899999V0201401N00511220001CN0200001N1+02821+02231101581ADDAA106000091AG10000GF104991031021008001041011KA1240N+02251MA1999999100001MD1999999-0011REMSYN017 333 20225 59001;
0124826780999991994051118004-06767-043017FM-12+013899999V0201401N00101045001CN0200001N1+03241+02101101081ADDAA106000091AG10000GA1041+009009049GF105991031021008001031011MA1999999099511MD1999999-0051REMSYN023 333 59005 84430 82777;
0134826780999991994051200004-06767-043017FM-12+013899999V0209991C00001220001CN9999999N9+02741+02451101241ADDAA106000091AG10000GF104991041041008001001001KA1240M+03341MA1999999099671MD1999999-0071REMSYN017 333 10334 59007;EQDQ01+000002VOVAR 
0115826780999991994051212004-06767-043017FM-12+013899999V0201401N00361220001CN0200001N1+02761+02191101471ADDAA106000091AG10000GF105991031011008001001011KA1240N+02381MA1999999099951MD1999999-0051REMSYN017 333 20238 59005;
0096826780999991994051218004-06767-043017FM-12+013899999V0201401N00311220001CN0200001N1+03061+02191101131ADDAA106000091AG10000GF108991031021008001001011MA1999999099611MD1999999+0101REMSYN011 333 58010;
0115826780999991994051312004-06767-043017FM-12+013899999V0201401N00361220001CN0200001N1+02801+02001101481ADDAA106000091AG10000GF103991011011008001001011KA1240N+02201MA1999999099881MD1999999-0071REMSYN017 333 20220 59007;
0096826780999991994051318004-06767-043017FM-12+013899999V0201401N00261007501CN0200001N1+03321+02041101041ADDAA106000091AG10000GF105991051021008001001001MA1999999099471MD1999999-0141REMSYN011 333 59014;
0115826780999991994051412004-06767-043017FM-12+013899999V0201401N00101105001CN0200001N1+02861+02281101361ADDAA106000091AG10000GF106991021011008001031041KA1240N+02241MA1999999099791MD1999999-0041REMSYN017 333 20224 59004;
0096826780999991994051418004-06767-043017FM-12+013899999V0201401N00151220001CN0200001N1+03381+02051100951ADDAA106000091AG10000GF104991021011008001001091MA1999999099371MD1999999-0101REMSYN011 333 59010;
0150826780999991994051500004-06767-043017FM-12+013899999V0200901N00051220001CN9999999N9+02701+02261101131ADDAA106000091AG10000GA1001+999999999GF100991001001999999001001KA1240M+03451MA1999999099561MD1999999-0161REMSYN017 333 10345 59016;EQDQ01+000002VOVAR 
0115826780999991994051612004-06767-043017FM-12+013899999V0201401N00361045001CN0200001N1+02861+02111101451ADDAA106000091AG10000GF106991031011008001021031KA1240N+02341MA1999999099931MD1999999+0031REMSYN017 333 20234 58003;
0096826780999991994051618004-06767-043017FM-12+013899999V0201401N00411220001CN0200001N1+02261+99999100931ADDAA106000091AG10000GF104991021011008001001011MA1999999099411MD1999999-0211REMSYN011 333 59021;
0143826780999991994051712004-06767-043017FM-12+013899999V0201401N00411220001CN0200001N1+02841+02091101531ADDAA124000191AG10000AY121061AY261061GF103991011011008001031001KA1240N+02221MA1999999099951MD1999999+0021MW1021REMSYN023 333 20222 58002 69924;
0096826780999991994051718004-06767-043017FM-12+013899999V0201401N00261007501CN0200001N1+03381+02021101041ADDAA106000091AG10000GF105991051011008001001001MA1999999099481MD1999999+0071REMSYN011 333 58007;
0115826780999991994051812004-06767-043017FM-12+013899999V0200901N00461220001CN0200001N1+02901+02041101471ADDAA106000091AG10000GF105991011011008001031091KA1240N+02141MA1999999099891MD1999999-0061REMSYN017 333 20214 59006;
0096826780999991994051818004-06767-043017FM-12+013899999V0200501N00151220001CN0200001N1+03351+01951100971ADDAA106000091AG10000GF105991041021008001001011MA1999999099411MD1999999-0071REMSYN011 333 59007;
0096826780999991994051918004-06767-043017FM-12+013899999V0200901N00261045001CN0200001N1+03381+02411101041ADDAA106000091AG10000GF107991021011008001031011MA1999999099481MD1999999+0071REMSYN011 333 58007;
0115826780999991994052012004-06767-043017FM-12+013899999V0201401N00051220001CN0200001N1+02961+02021101421ADDAA106000091AG10000GF102991011011008001001011KA1240N+02361MA1999999099901MD1999999-0011REMSYN017 333 20236 59001;
0096826780999991994052018004-06767-043017FM-12+013899999V0200901N00261220001CN0200001N1+03401+02111100921ADDAA106000091AG10000GF104991031021008001001011MA1999999099401MD1999999-0081REMSYN011 333 59008;
0150826780999991994052100004-06767-043017FM-12+013899999V0209991C00001220001CN9999999N9+02561+02231101151ADDAA106000091AG10000GA1001+999999999GF100991001001999999001001KA1240M+03481MA1999999099631MD1999999-0021REMSYN017 333 10348 59002;EQDQ01+000002VOVAR 
0115826780999991994052112004-06767-043017FM-12+013899999V0201401N00361220001CN0200001N1+02961+02151101491ADDAA106000091AG10000GF103991021011008001001011KA1240N+02221MA1999999099921MD1999999+0021REMSYN017 333 20222 58002;
0096826780999991994052118004-06767-043017FM-12+013899999V0201401N00311007501CN0200001N1+03461+02021101051ADDAA106000091AG10000GF105991051021008001001001MA1999999099491MD1999999+0091REMSYN011 333 58009;
0134826780999991994052200004-06767-043017FM-12+013899999V0200901N00051220001CN9999999N9+02621+02211101261ADDAA106000091AG10000GF101991001001999999001011KA1240M+03481MA1999999099691MD1999999+0061REMSYN017 333 10348 58006;EQDQ01+000002VOVAR 
0115826780999991994052212004-06767-043017FM-12+013899999V0202701N00151045001CN0200001N1+02791+02111101521ADDAA106000091AG10000GF106991031051008001031001KA1240N+02221MA1999999099941MD1999999+0021REMSYN017 333 20222 58002;
0096826780999991994052218004-06767-043017FM-12+013899999V0200901N00101220001CN0200001N1+03451+01921101001ADDAA106000091AG10000GF104991021011008001001011MA1999999099441MD1999999-0051REMSYN011 333 59005;
0143826780999991994052312004-06767-043017FM-12+013899999V0200501N00261007501CN0200001N1+02671+02411101521ADDAA124002091AG10005AY161061AY221061GF107991061041008001031001KA1240N+02431MA1999999099941MD1999999+0001MW1021REMSYN023 333 20243 58000 60024;
0096826780999991994052318004-06767-043017FM-12+013899999V0202301N00051045001CN0200001N1+03301+02121101021ADDAA106000091AG10000GF107991031031008001031091MA1999999099461MD1999999+0021REMSYN011 333 58002;
0115826780999991994052400004-06767-043017FM-12+013899999V0209991C00001220001CN0200001N1+02601+02231101281ADDAA106000091AG10000GF104991011031008001031999KA1240M+03361MA1999999099701MD1999999-0031REMSYN017 333 10336 59003;
0115826780999991994052412004-06767-043017FM-12+013899999V0201401N00361220001CN0200001N1+02941+02031101391ADDAA106000091AG10000GF102991011011008001001011KA1240N+02301MA1999999099871MD1999999-0071REMSYN017 333 20230 59007;
0096826780999991994052418004-06767-043017FM-12+013899999V0201401N00211220001CN0200001N1+03421+01931100961ADDAA106000091AG10000GF104991031021008001001011MA1999999099441MD1999999-0061REMSYN011 333 59006;
0115826780999991994052512004-06767-043017FM-12+013899999V0201401N00211220001CN0200001N1+02941+02141101481ADDAA106000091AG10000GF104991021001017501031011KA1240N+02171MA1999999099911MD1999999+0041REMSYN017 333 20217 58004;
0096826780999991994052518004-06767-043017FM-12+013899999V0201401N00261220001CN0200001N1+03401+02071101051ADDAA106000091AG10000GF106991041021008001001011MA1999999099491MD1999999+0011REMSYN011 333 58001;
0115826780999991994052612004-06767-043017FM-12+013899999V0200901N00151220001CN0200001N1+02941+02081101361ADDAA106000091AG10000GF105991021001017501031041KA1240N+02121MA1999999099791MD1999999-0121REMSYN017 333 20212 59012;
0096826780999991994052618004-06767-043017FM-12+013899999V0203201N00261220001CN0200001N1+03361+02111100971ADDAA106000091AG10000GF106991041021008001001011MA1999999099411MD1999999-0081REMSYN011 333 59008;
0134826780999991994052700004-06767-043017FM-12+013899999V0209991C00001220001CN9999999N9+02581+02151101081ADDAA106000091AG10000GF103991011001017501031011KA1240M+03401MA1999999099511MD1999999-0041REMSYN017 333 10340 59004;EQDQ01+000002VOVAR 
0115826780999991994052712004-06767-043017FM-12+013899999V0209991C00001007501CN0200001N1+02581+02421101401ADDAA106000091AG10000GF107991051041008001031001KA1240N+02111MA1999999099821MD1999999+0031REMSYN017 333 20211 58003;
0115826780999991994052812004-06767-043017FM-12+013899999V0200501N00101012001CN0200001N1+02781+02231101401ADDAA106000091AG10000GF106991051081008001031001KA1240N+02281MA1999999099831MD1999999+0011REMSYN017 333 20228 58001;
0096826780999991994052818004-06767-043017FM-12+013899999V0201401N00151045001CN0200001N1+03301+02121100941ADDAA106000091AG10000GF105991041021008001031051MA1999999099381MD1999999+0061REMSYN011 333 58006;
0115826780999991994052912004-06767-043017FM-12+013899999V0200501N00101220001CN0200001N1+02921+02171101351ADDAA106000091AG10000GF102991011011008001031001KA1240N+02321MA1999999099781MD1999999-0051REMSYN017 333 20232 59005;
0096826780999991994052918004-06767-043017FM-12+013899999V0201401N00151105001CN0200001N1+03431+02061100881ADDAA106000091AG10000GF106991031031008001001021MA1999999099321MD1999999-0061REMSYN011 333 59006;
0115826780999991994053012004-06767-043017FM-12+013899999V0201801N00151220001CN0200001N1+02861+02281101381ADDAA106000091AG10000GF103991011011008001031011KA1240N+02231MA1999999099811MD1999999+0031REMSYN017 333 20223 58003;
0096826780999991994053018004-06767-043017FM-12+013899999V0201401N00211045001CN0200001N1+03321+02001100951ADDAA106000091AG10000GF106991041021008001021011MA1999999099391MD1999999+0071REMSYN011 333 58007;
0115826780999991994053112004-06767-043017FM-12+013899999V0201401N00511105001CN0200001N1+02801+02031101511ADDAA106000091AG10000GF106991011011008001031041KA1240N+01981MA1999999099931MD1999999+0121REMSYN017 333 20198 58012;
0131826780999991994060112004-06767-043017FM-12+013899999V0201401N00621220001CN0200001N1+02881+01971101461ADDAA106000091AG10000GA1001+999999999GF100991001001999999001001KA1240N+01881MA1999999099941MD1999999+0011REMSYN017 333 20188 58001;
0088826780999991994060118004-06767-043017FM-12+013899999V0200901N00211220001CN0200001N1+03401+02041101141ADDAA106000091AG10000GF104991021011008001001011IA1169MA1999999099621REMSYN011 333 35801;
0150826780999991994060200004-06767-043017FM-12+013899999V0209991C00001220001CN9999999N9+02481+02051101331ADDAA106000091AG10000GA1001+999999999GF100991001001999999001001KA1240M+03441MA1999999099811MD1999999+0301REMSYN017 333 10344 58030;EQDQ01+000002VOVAR 
0143826780999991994060212004-06767-043017FM-12+013899999V0201401N00311220001CN0200001N1+02701+02351101611ADDAA124001091AG10000AY121061AY261061GF103991011011008001031001KA1240N+02221MA1999999100021MD1999999+0081MW1011REMSYN023 333 20222 58008 60014;
0096826780999991994060218004-06767-043017FM-12+013899999V0201401N00261220001CN0200001N1+03381+02141101171ADDAA106000091AG10000GF104991041021008001001001MA1999999099601MD1999999-0021REMSYN011 333 59002;
0115826780999991994060312004-06767-043017FM-12+013899999V0201401N00311220001CN0200001N1+02781+02011101551ADDAA106000091AG10000GF104991011011008001031011KA1240N+02301MA1999999099971MD1999999-0051REMSYN017 333 20230 59005;
0096826780999991994060318004-06767-043017FM-12+013899999V0200901N00151220001CN0200001N1+03391+01911101061ADDAA106000091AG10000GF106991041021008001001011MA1999999099511MD1999999-0091REMSYN011 333 59009;
0082826780999991994060412004-06767-043017FM-12+013899999V0200501N000519999999N0200001N1+02611+02271101201ADDAA106000091AG10000GF108991999999008001999999MA1999999100111REMSYN011 333 885//;
0096826780999991994060418004-06767-043017FM-12+013899999V0201401N00151045001CN0200001N1+03081+02211101211ADDAA106000091AG10000GF106991041031008001031021MA1999999099741MD1999999+0221REMSYN011 333 58022;
0150826780999991994060500004-06767-043017FM-12+013899999V0209991C00001220001CN9999999N9+02601+02431101561ADDAA106000091AG10000GA1001+999999999GF100991001001999999001001KA1240M+03271MA1999999099971MD1999999+0121REMSYN017 333 10327 58012;EQDQ01+000002VOVAR 
0143826780999991994060512004-06767-043017FM-12+013899999V0200501N00151220001CN0200001N1+02721+02171101701ADDAA124000591AG10005AY161061AY211061GF104991021011008001031081KA1240N+02181MA1999999100121MD1999999+0011MW1021REMSYN023 333 20218 58001 69944;
0143826780999991994060612004-06767-043017FM-12+013899999V0200901N00151045001CN0200001N1+02621+02331101701ADDAA124004091AG10000AY121061AY261061GF106991021011008001031021KA1240N+02301MA1999999100111MD1999999-0011MW1021REMSYN023 333 20230 59001 60044;
0096826780999991994060618004-06767-043017FM-12+013899999V0200901N00261105001CN0200001N1+03361+02041101151ADDAA106000091AG10000GF106991021011008001001021MA1999999099591MD1999999-0111REMSYN011 333 59011;
0115826780999991994060712004-06767-043017FM-12+013899999V0201401N00361220001CN0200001N1+02781+02561101711ADDAA106000091AG10000GF106991031021008001001011KA1240N+02251MA1999999100191MD1999999+0081REMSYN017 333 20225 58008;
0096826780999991994060718004-06767-043017FM-12+013899999V0200901N00311220001CN0200001N1+03301+02181101351ADDAA106000091AG10000GF102991011011008001001011MA1999999099781MD1999999+0191REMSYN011 333 58019;
0115826780999991994060812004-06767-043017FM-12+013899999V0200901N00511220001CN0200001N1+02801+02001101811ADDAA106000091AG10000GF101991011001017501031001KA1240N+01981MA1999999100221MD1999999+0031REMSYN017 333 20198 58003;
0096826780999991994060818004-06767-043017FM-12+013899999V0201401N00411007501CN0200001N1+03421+02321101321ADDAA106000091AG10000GF105991051021008001001001MA1999999099741MD1999999-0041REMSYN011 333 59004;
0115826780999991994060912004-06767-043017FM-12+013899999V0201401N00511220001CN0200001N1+02781+02041101711ADDAA106000091AG10000GF102991021011008001001011KA1240N+01881MA1999999100191MD1999999-0031REMSYN017 333 20188 59003;
0115826780999991994061012004-06767-043017FM-12+013899999V0200901N00511220001CN0200001N1+02841+02171101751ADDAA106000091AG10000GF102991011011008001031001KA1240N+01931MA1999999100171MD1999999-0021REMSYN017 333 20193 59002;
0096826780999991994061018004-06767-043017FM-12+013899999V0201401N00261105001CN0200001N1+02431+99999101181ADDAA106000091AG10000GF105991031021008001001021MA1999999099661MD1999999-0061REMSYN011 333 59006;
0115826780999991994061112004-06767-043017FM-12+013899999V0201401N00511045001CN0200001N1+02741+02051101661ADDAA106000091AG10000GF106991011011008001031001KA1240N+02421MA1999999100081MD1999999-0091REMSYN017 333 20242 59009;
0096826780999991994061118004-06767-043017FM-12+013899999V0201401N00411045001CN0200001N1+03321+02261101161ADDAA106000091AG10000GF106991041021008001031001MA1999999099601MD1999999-0061REMSYN011 333 59006;
0115826780999991994061212004-06767-043017FM-12+013899999V0201401N00151220001CN0200001N1+02851+02121101531ADDAA106000091AG10000GF102991021011008001001001KA1240N+02161MA1999999099951MD1999999-0131REMSYN017 333 20216 59013;
0096826780999991994061218004-06767-043017FM-12+013899999V0201401N00151007501CN0200001N1+03291+02291101191ADDAA106000091AG10000GF107991071021008001001001MA1999999099621MD1999999+0021REMSYN011 333 58002;
0134826780999991994061300004-06767-043017FM-12+013899999V0201401N00101220001CN9999999N9+02641+02071101331ADDAA106000091AG10000GF102991021001017501031001KA1240M+03381MA1999999099761MD1999999-0041REMSYN017 333 10338 59004;EQDQ01+000002VOVAR 
0115826780999991994061312004-06767-043017FM-12+013899999V0201401N00211220001CN0200001N1+02761+02071101531ADDAA106000091AG10000GF102991011011008001001011KA1240N+01911MA1999999100011MD1999999+0061REMSYN017 333 20191 58006;
0096826780999991994061318004-06767-043017FM-12+013899999V0201401N00151007501CN0200001N1+03301+02211101211ADDAA106000091AG10000GF108991051021008001001021MA1999999099691MD1999999+0071REMSYN011 333 58007;
0115826780999991994061412004-06767-043017FM-12+013899999V0201401N00671045001CN0200001N1+02791+02131101621ADDAA106000091AG10000GF106991021051008001031011KA1240N+02121MA1999999100051MD1999999+0041REMSYN017 333 20212 58004;
0096826780999991994061418004-06767-043017FM-12+013899999V0201401N00511007501CN0200001N1+03321+02201101241ADDAA106000091AG10000GF107991051051008001031001MA1999999099681MD1999999-0011REMSYN011 333 59001;
0115826780999991994061512004-06767-043017FM-12+013899999V0201401N00411220001CN0200001N1+02881+01971101661ADDAA106000091AG10000GF102991011011008001001011KA1240N+02161MA1999999100081MD1999999+0031REMSYN017 333 20216 58003;
0096826780999991994061518004-06767-043017FM-12+013899999V0201401N00151220001CN0200001N1+03481+01961101221ADDAA106000091AG10000GF106991041021008001001011MA1999999099661MD1999999-0021REMSYN011 333 59002;
0131826780999991994061612004-06767-043017FM-12+013899999V0201401N00511220001CN0200001N1+02781+01911101601ADDAA106000091AG10000GA1001+999999999GF100991001001999999001001KA1240N+01811MA1999999100081MD1999999+0001REMSYN017 333 20181 58000;
0096826780999991994061618004-06767-043017FM-12+013899999V0201401N00151220001CN0200001N1+03501+01811101131ADDAA106000091AG10000GF105991041021008001001011MA1999999099611MD1999999-0051REMSYN011 333 59005;
0115826780999991994061712004-06767-043017FM-12+013899999V0200901N00511007501CN0200001N1+02791+02041101581ADDAA106000091AG10000GF106991051051008001031001KA1240N+02371MA1999999100001MD1999999-0081REMSYN017 333 20237 59008;
0096826780999991994061718004-06767-043017FM-12+013899999V0201401N00511045001CN0200001N1+03441+01961100991ADDAA106000091AG10000GF105991031021008001031011MA1999999099441MD1999999-0171REMSYN011 333 59017;
0115826780999991994061812004-06767-043017FM-12+013899999V0200901N00511220001CN0200001N1+02831+02001101481ADDAA106000091AG10000GF107991041021008001001011KA1240N+02221MA1999999099901MD1999999-0101REMSYN017 333 20222 59010;
0096826780999991994061818004-06767-043017FM-12+013899999V0201401N00311007501CN0200001N1+03361+02041101001ADDAA106000091AG10000GF106991051021008001001021MA1999999099441MD1999999+0001REMSYN011 333 58000;
0115826780999991994061912004-06767-043017FM-12+013899999V0201401N00511220001CN0200001N1+02801+01981101491ADDAA106000091AG10000GF103991011011008001031021KA1240N+02081MA1999999099911MD1999999+0011REMSYN017 333 20208 58001;
0096826780999991994061918004-06767-043017FM-12+013899999V0201401N00151007501CN0200001N1+03341+01911101081ADDAA106000091AG10000GF106991051021008001031001MA1999999099521MD1999999+0121REMSYN011 333 58012;
0115826780999991994062012004-06767-043017FM-12+013899999V0201401N00261007501CN0200001N1+02641+02091101521ADDAA106000091AG10000GF107991061051008001031001KA1240N+02321MA1999999099941MD1999999+0031REMSYN017 333 20232 58003;
0096826780999991994062018004-06767-043017FM-12+013899999V0200501N00151220001CN0200001N1+03171+02051101021ADDAA106000091AG10000GF104991031021008001001011MA1999999099461MD1999999-0061REMSYN011 333 59006;
0114826780999991994062112004-06767-043017FM-12+013899999V0201401N00311220001CN0200001N9+02841+01981101491ADDAA106000091AG14000GF104991041011008001001001KA1240N+02381MA1999999099911MD1999999-0031REMSYN016 333 20238 59003
0096826780999991994062118004-06767-043017FM-12+013899999V0201401N00311007501CN0200001N1+03301+02051101051ADDAA106000091AG10000GF107991051021008001041001MA1999999099481MD1999999+0021REMSYN011 333 58002;
0134826780999991994062200004-06767-043017FM-12+013899999V0209991C00001220001CN9999999N9+02601+02191101141ADDAA106000091AG10000GF104991041001017501031001KA1240M+03361MA1999999099571MD1999999+0131REMSYN017 333 10336 58013;EQDQ01+000002VOVAR 
0101826780999991994062212004-06767-043017FM-12+013899999V0201401N00211220001CN0200001N1+02881+01831101371ADDAA106000091AG10000GF104991021051008001021011KA1240N+02041MA1999999099851REMSYN017 333 20204 50006;
0096826780999991994062218004-06767-043017FM-12+013899999V0201401N00151220001CN0200001N1+03461+01691100931ADDAA106000091AG10000GF106991041011008001001011MA1999999099411MD1999999-0071REMSYN011 333 59007;
0150826780999991994062300004-06767-043017FM-12+013899999V0209991C000019999999N9999999N9+02621+02201101171ADDAA106000091AG10000GF105991031021999999001021KA1240M+03481MA1999999099651MD1999999-0081REMSYN017 333 10348 59008;EQDQ01+000992SCOLCBQ02+000002VOVAR 
0115826780999991994062312004-06767-043017FM-12+013899999V0200501N00151045001CN0200001N1+02761+01971101531ADDAA106000091AG10000GF105991031021008001031001KA1240N+02021MA1999999099951MD1999999+0101REMSYN017 333 20202 58010;
0096826780999991994062318004-06767-043017FM-12+013899999V0200901N00101007501CN0200001N1+03461+01811101041ADDAA106000091AG10000GF106991061031008001001001MA1999999099461MD1999999+0051REMSYN011 333 58005;
0115826780999991994062412004-06767-043017FM-12+013899999V0203601N00101220001CN0200001N1+02721+02051101511ADDAA106000091AG10000GF104991041031008001031001KA1240N+02021MA1999999099921MD1999999-0031REMSYN017 333 20202 59003;
0096826780999991994062418004-06767-043017FM-12+013899999V0201401N00151220001CN0200001N1+03421+02161100951ADDAA106000091AG10000GF104991041031008001001001MA1999999099371MD1999999-0091REMSYN011 333 59009;
0115826780999991994062512004-06767-043017FM-12+013899999V0202701N00151220001CN0200001N1+02721+02151101421ADDAA106000091AG10000GF103991011011008001001011KA1240N+02721MA1999999099901MD1999999-0021REMSYN017 333 20272 59002;
0115826780999991994062612004-06767-043017FM-12+013899999V0203601N00151220001CN0200001N1+02791+02161101521ADDAA106000091AG10000GF104991031021008001031001KA1240N+02001MA1999999099941MD1999999+0041REMSYN017 333 20200 58004;
0096826780999991994062618004-06767-043017FM-12+013899999V0201801N00051220001CN0200001N1+03431+01831101031ADDAA106000091AG10000GF104991031011008001001011MA1999999099461MD1999999-0111REMSYN011 333 59011;
0115826780999991994062712004-06767-043017FM-12+013899999V0200901N00151007501CN0200001N1+02851+02091101511ADDAA106000091AG10000GF106991051021008001031001KA1240N+02401MA1999999099941MD1999999+0001REMSYN017 333 20240 58000;
0096826780999991994062718004-06767-043017FM-12+013899999V0201401N00511045001CN0200001N1+03401+01961100971ADDAA106000091AG10000GF106991041031008001041011MA1999999099411MD1999999-0051REMSYN011 333 59005;
0114826780999991994062812004-06767-043017FM-12+013899999V0201401N00261220001CN0200001N9+02851+01951101471ADDAA106000091AG14000GF104991021011008001001021KA1240N+02041MA1999999099951MD1999999+0011REMSYN016 333 20204 58001
0150826780999991994062900004-06767-043017FM-12+013899999V0209991C00001220001CN9999999N9+02681+01941101171ADDAA106000091AG10000GA1001+999999999GF100991001001999999001001KA1240M+03461MA1999999099651MD1999999+0051REMSYN017 333 10346 58005;EQDQ01+000002VOVAR 
0115826780999991994062912004-06767-043017FM-12+013899999V0201401N00671220001CN0200001N1+02811+01781101661ADDAA106000091AG10000GF103991011011008001031001KA1240N+02341MA1999999100081MD1999999+0131REMSYN017 333 20234 58013;
0096826780999991994062918004-06767-043017FM-12+013899999V0201401N00151045001CN0200001N1+03401+01541101171ADDAA106000091AG10000GF106991021011008001031001MA1999999099611MD1999999-0011REMSYN011 333 59001;
0115826780999991994063012004-06767-043017FM-12+013899999V0200901N00151220001CN0200001N1+02851+01931101621ADDAA106000091AG10000GF105991041011008001001011KA1240N+02041MA1999999100041MD1999999-0041REMSYN017 333 20204 59004;
0096826780999991994063018004-06767-043017FM-12+013899999V0201401N00411007501CN0200001N1+03401+01891101171ADDAA106000091AG10000GF105991051021008001001001MA1999999099601MD1999999-0011REMSYN011 333 59001;
0096826780999991994070118004-06767-043017FM-12+013899999V0201401N00211105001CN0200001N1+03281+01961101091ADDAA106000091AG10000GF108991041021008001001021MA1999999099571MD1999999-0031REMSYN011 333 59003;
0150826780999991994070200004-06767-043017FM-12+013899999V0200901N00051220001CN9999999N9+02561+01801101301ADDAA106000091AG10000GA1001+999999999GF100991001001999999001001KA1240M+03401MA1999999099701MD1999999-0061REMSYN017 333 10340 59006;EQDQ01+000002VOVAR 
0134826780999991994070212004-06767-043017FM-12+013899999V0201401N00411220001CN0200001N1+02851+01821101651ADDAA106000091AG10000GF102991999001008001031001KA1240N+02101MA1999999100071MD1999999-0091REMSYN017 333 20210 59009;EQDQ01+000012SCOTLC
0096826780999991994070218004-06767-043017FM-12+013899999V0201401N00261007501CN0200001N1+03051+01751101311ADDAA106000091AG10000GF107991071051008001001001MA1999999099731MD1999999+0161REMSYN011 333 58016;
0121826780999991994070312004-06767-043017FM-12+013899999V0201401N00411220001CN0200001N1+02661+01921101561ADDAA124001091AG10000GF104991021021008001001011KA1240N+02041MA1999999100041MD1999999-0031REMSYN023 333 20204 59003 60014;
0115826780999991994070512004-06767-043017FM-12+013899999V0201401N00511220001CN0200001N1+02701+01691101661ADDAA106000091AG10000GF103991031011008001001001KA1240N+02031MA1999999100081MD1999999+0021REMSYN017 333 20203 58002;
0096826780999991994070518004-06767-043017FM-12+013899999V0201401N00101220001CN0200001N1+02391+01331101051ADDAA106000091AG10000GF101991011011008001001001MA1999999099481MD1999999-0151REMSYN011 333 59015;
0150826780999991994070600004-06767-043017FM-12+013899999V0209991C00001220001CN9999999N9+02401+01521101281ADDAA106000091AG10000GA1001+999999999GF100991001001999999001001KA1240M+03461MA1999999099691MD1999999-0121REMSYN017 333 10346 59012;EQDQ01+000002VOVAR 
0115826780999991994070612004-06767-043017FM-12+013899999V0201401N00511220001CN0200001N1+02701+01861101521ADDAA106000091AG10000GF101991011011008001001001KA1240N+02081MA1999999099931MD1999999-0151REMSYN017 333 20208 59015;
0096826780999991994070618004-06767-043017FM-12+013899999V0201401N00311007501CN0200001N1+03351+01711101011ADDAA106000091AG10000GF105991051021008001001001MA1999999099451MD1999999-0031REMSYN011 333 59003;
0150826780999991994070712004-06767-043017FM-12+013899999V0201401N04012220001CN0200001N1+02741+01811101541ADDAA106000091AG10000GA1001+999999999GF100991001001999999001001KA1240N+02021MA1999999100021MD1999999+0071REMSYN017 333 20202 58007;EQDQ01+004013WOSPD 
0096826780999991994070718004-06767-043017FM-12+013899999V0203601N00311105001CN0200001N1+03401+01721101081ADDAA106000091AG10000GF106991041021008001001021MA1999999099561MD1999999+0111REMSYN011 333 58011;
0115826780999991994070912004-06767-043017FM-12+013899999V0201401N00151220001CN0200001N1+02911+02021101691ADDAA106000091AG10000GF102991011011008001031001KA1240N+02401MA1999999100121MD1999999+0021REMSYN017 333 20240 58002;
0096826780999991994070918004-06767-043017FM-12+013899999V0201401N00211045001CN0200001N1+03531+01651101281ADDAA106000091AG10000GF106991041031008001041001MA1999999099711MD1999999+0131REMSYN011 333 58013;
0096826780999991994071018004-06767-043017FM-12+013899999V0201401N00151045001CN0200001N1+03501+02431101381ADDAA106000091AG10000GF106991041011008001041001MA1999999099921MD1999999-0091REMSYN011 333 59009;
0115826780999991994071112004-06767-043017FM-12+013899999V0201401N00571220001CN0200001N1+02791+01581101951ADDAA106000091AG10000GF108991001001999999001011KA1240N+02351MA1999999100371MD1999999+0231REMSYN017 333 20235 58023;
0096826780999991994071118004-06767-043017FM-12+013899999V0201401N00151220001CN0200001N1+03441+01521101521ADDAA106000091AG10000GF102991011011008001001011MA1999999099951MD1999999+0131REMSYN011 333 58013;
0115826780999991994071212004-06767-043017FM-12+013899999V0201401N00511105001CN0200001N1+02501+01701101821ADDAA106000091AG10000GF108991041021008001001021KA1240N+01981MA1999999100301MD1999999-0071REMSYN017 333 20198 59007;
0096826780999991994071218004-06767-043017FM-12+013899999V0201401N00361220001CN0200001N1+03101+01941101461ADDAA106000091AG10000GF105991031011008001001011MA1999999099941MD1999999-0011REMSYN011 333 59001;
0150826780999991994071300004-06767-043017FM-12+013899999V0209991C00001220001CN9999999N9+02441+01881101661ADDAA106000091AG10000GA1001+999999999GF100991001001999999001001KA1240M+03201MA1999999100141MD1999999-0051REMSYN017 333 10320 59005;EQDQ01+000002VOVAR 
0115826780999991994071312004-06767-043017FM-12+013899999V0201401N00671007501CN0200001N1+02581+01721101941ADDAA106000091AG10000GF105991051021008001001001KA1240N+02061MA1999999100341MD1999999+0041REMSYN017 333 20206 58004;
0096826780999991994071318004-06767-043017FM-12+013899999V0201401N00411007501CN0200001N1+03241+01861101461ADDAA106000091AG10000GF105991051011008001001001MA1999999099891MD1999999-0051REMSYN011 333 59005;
0150826780999991994071400004-06767-043017FM-12+013899999V0209991C00001220001CN9999999N9+02481+01871101601ADDAA106000091AG10000GA1001+999999999GF100991001001999999001001KA1240M+03301MA1999999100011MD1999999-0031REMSYN017 333 10330 59003;EQDQ01+000002VOVAR 
0115826780999991994071412004-06767-043017FM-12+013899999V0201401N00511220001CN0200001N1+02701+01861101811ADDAA106000091AG10000GF101991011011008001001001KA1240N+02041MA1999999100221MD1999999-0121REMSYN017 333 20204 59012;
0134826780999991994071500004-06767-043017FM-12+013899999V0209991C00001220001CN9999999N9+02581+01801101561ADDAA106000091AG10000GF103991031001017501031001KA1240M+03381MA1999999099981MD1999999-0031REMSYN017 333 10338 59003;EQDQ01+000002VOVAR 
0115826780999991994071512004-06767-043017FM-12+013899999V0201401N00411220001CN0200001N1+02761+01861101761ADDAA106000091AG10000GF101991011011008001001001KA1240N+02021MA1999999100171MD1999999-0051REMSYN017 333 20202 59005;
0096826780999991994071518004-06767-043017FM-12+013899999V0200901N00101007501CN0200001N1+03321+01851101391ADDAA106000091AG10000GF106991061021008001001001MA1999999099811MD1999999-0061REMSYN011 333 59006;
0115826780999991994071612004-06767-043017FM-12+013899999V0201401N00511045001CN0200001N1+02661+01741101821ADDAA106000091AG10000GF107991041051008001031001KA1240N+02281MA1999999100231MD1999999+0061REMSYN017 333 20228 58006;
0096826780999991994071618004-06767-043017FM-12+013899999V0201401N00101012001CN0200001N1+03321+01851101321ADDAA106000091AG10000GF107991051081008001041001MA1999999099751MD1999999-0061REMSYN011 333 59006;
0115826780999991994071712004-06767-043017FM-12+013899999V0201401N00511220001CN0200001N1+02761+01721101791ADDAA106000091AG10000GF101991011001017501031001KA1240N+02381MA1999999100221MD1999999-0011REMSYN017 333 20238 59001;
0112826780999991994071718004-06767-043017FM-12+013899999V0201401N00311220001CN0200001N1+03421+01741101311ADDAA106000091AG10000GA1001+999999999GF100991001001999999001001MA1999999099751MD1999999+0001REMSYN011 333 58000;
0131826780999991994071800004-06767-043017FM-12+013899999V0201401N00151220001CN0100001N1+02801+01661101451ADDAA106000091AG10000GA1001+999999999GF100991001001999999001001KA1240M+03461MA1999999099881MD1999999-0051REMSYN017 333 10346 59005;
0115826780999991994071812004-06767-043017FM-12+013899999V0201401N00511220001CN0200001N1+02681+01971101741ADDAA106000091AG10000GF101991011011008001001001KA1240N+02281MA1999999100171MD1999999-0051REMSYN017 333 20228 59005;
0096826780999991994071818004-06767-043017FM-12+013899999V0201401N00311220001CN0200001N1+03301+01721101261ADDAA106000091AG10000GF104991041011008001001001MA1999999099691MD1999999-0061REMSYN011 333 59006;
0115826780999991994071912004-06767-043017FM-12+013899999V0201401N00411220001CN0200001N1+02721+01931101731ADDAA106000091AG10000GF101991011011008001001001KA1240N+02301MA1999999100151MD1999999-0021REMSYN017 333 20230 59002;
0096826780999991994071918004-06767-043017FM-12+013899999V0201401N00261007501CN0200001N1+03441+02341101281ADDAA106000091AG10000GF105991051021008001001001MA1999999099711MD1999999+0021REMSYN011 333 58002;
0115826780999991994072012004-06767-043017FM-12+013899999V0201401N00411220001CN0200001N1+02781+02161101711ADDAA106000091AG10000GF103991011011008001031011KA1240N+02221MA1999999100141MD1999999-0011REMSYN017 333 20222 59001;
0096826780999991994072018004-06767-043017FM-12+013899999V0201401N00261007501CN0200001N1+03401+02371101241ADDAA106000091AG10000GF105991051021008001001001MA1999999099671MD1999999-0041REMSYN011 333 59004;
0134826780999991994072100004-06767-043017FM-12+013899999V0200901N00051045001CN9999999N9+02701+01991101351ADDAA106000091AG10000GF106991011011008001031001KA1240M+03501MA1999999099781MD1999999-0131REMSYN017 333 10350 59013;EQDQ01+000002VOVAR 
0115826780999991994072112004-06767-043017FM-12+013899999V0200901N00211220001CN0200001N1+02731+01851101661ADDAA106000091AG10000GF106991001001999999001011KA1240N+02181MA1999999100081MD1999999-0061REMSYN017 333 20218 59006;
0150826780999991994072200004-06767-043017FM-12+013899999V0201401N00051220001CN9999999N9+02571+01801101281ADDAA106000091AG10000GA1001+999999999GF100991001001999999001001KA1240M+03481MA1999999099701MD1999999-0081REMSYN017 333 10348 59008;EQDQ01+000002VOVAR 
0115826780999991994072212004-06767-043017FM-12+013899999V0201401N00511220001CN0200001N1+02741+01781101651ADDAA106000091AG10000GF102991001001999999001011KA1240N+02001MA1999999100061MD1999999-0021REMSYN017 333 20200 59002;
0134826780999991994072300004-06767-043017FM-12+013899999V0209991C00001220001CN9999999N9+02541+01811101421ADDAA106000091AG10000GF101991001001999999001011KA1240M+03421MA1999999099841MD1999999+0141REMSYN017 333 10342 58014;EQDQ01+000002VOVAR 
0131826780999991994072312004-06767-043017FM-12+013899999V0201401N00261220001CN0200001N1+02701+01911101681ADDAA106000091AG10000GA1001+999999999GF100991001001999999001001KA1240N+02061MA1999999100091MD1999999+0031REMSYN017 333 20206 58003;
0115826780999991994072318004-06767-043017FM-12+013899999V0209999999999220001CN0002001N1+03501+02051101271ADDAA106000091AG10000GF104991999011008001001001MA1999999099711MD1999999+0021REMSYN011 333 58002;EQDQ01+000012SCOTLC
0134826780999991994072400004-06767-043017FM-12+013899999V0209991C00001220001CN9999999N9+02661+02161101411ADDAA106000091AG10000GF103991011011008001031001KA1240M+03581MA1999999099831MD1999999-0011REMSYN017 333 10358 59001;EQDQ01+000002VOVAR 
0115826780999991994072512004-06767-043017FM-12+013899999V0201401N00411220001CN0200001N1+02801+01751101641ADDAA106000091AG10000GF105991041011008001001011KA1240N+01911MA1999999100071MD1999999+0011REMSYN017 333 20191 58001;
0150826780999991994072600004-06767-043017FM-12+013899999V0201401N00151220001CN9999999N9+02831+01331101221ADDAA106000091AG10000GA1001+999999999GF100991001001999999001001KA1240M+03531MA1999999099711MD1999999-0011REMSYN017 333 10353 59001;EQDQ01+000002VOVAR 
0096826780999991994072618004-06767-043017FM-12+013899999V0201401N00311007501CN0200001N1+03301+02241101271ADDAA106000091AG10000GF107991061051008001031001MA1999999099701MD1999999+0181REMSYN011 333 58018;
0150826780999991994072700004-06767-043017FM-12+013899999V0201401N00101220001CN9999999N9+02741+02001101391ADDAA106000091AG10000GA1001+999999999GF100991001001999999001001KA1240M+03401MA1999999099821MD1999999+0111REMSYN017 333 10340 58011;EQDQ01+000002VOVAR 
0178826780999991994072712004-06767-043017FM-12+013899999V0201401N00511220001CN0200001N1+02801+01841101741ADDAA106000091AG10000GA1021+000159019GF199999001001999999001001KA1240N+02011MA1999999100161MD1999999+0071REMSYN029 333 20201 58007 82100 82686;EQDQ01+000002SCOTCVQ02+000992SCOLCB
0081826780999991994072718004-06767-043017FM-12+013899999V0200901N00211007501CN0200001N1+03401+01641101261ADDAA106000091AG10000GF105991051021008001001001MD1999999-0021REMSYN011 333 59002;
0115826780999991994072812004-06767-043017FM-12+013899999V0201401N00511220001CN0200001N1+02821+01971101661ADDAA106000091AG10000GF104991041011008001001001KA1240N+02291MA1999999100081MD1999999-0081REMSYN017 333 20229 59008;
0096826780999991994072818004-06767-043017FM-12+013899999V0201401N00461220001CN0200001N1+03381+01871101291ADDAA106000091AG10000GF104991031021008001061001MA1999999099721MD1999999+0041REMSYN011 333 58004;
0115826780999991994072912004-06767-043017FM-12+013899999V0201401N00461220001CN0200001N1+02701+01911101801ADDAA106000091AG10000GF101991011011008001001001KA1240N+02301MA1999999100221MD1999999+0141REMSYN017 333 20230 58014;
0096826780999991994072918004-06767-043017FM-12+013899999V0201401N00211220001CN0200001N1+03481+02251101301ADDAA106000091AG10000GF103991031011008001001001MA1999999099741MD1999999+0021REMSYN011 333 58002;
0131826780999991994073012004-06767-043017FM-12+013899999V0201401N00511220001CN0200001N1+02651+01581101791ADDAA106000091AG10000GA1001+999999999GF100991001001999999001001KA1240N+02281MA1999999100211MD1999999-0011REMSYN017 333 20228 59001;
0082826780999991994073018004-06767-043017FM-12+013899999V0201801N00211220001CN0200001N1+03401+01811101281ADDAA106000091AG10000GF101991011011008001001001MA1999999099721REMSYN011 333 5852/;
0131826780999991994073112004-06767-043017FM-12+013899999V0201401N00411220001CN0200001N1+02621+01911101771ADDAA106000091AG10000GA1001+999999999GF100991001001999999001001KA1240N+01921MA1999999100181MD1999999-0021REMSYN017 333 20192 59002;
0096826780999991994073118004-06767-043017FM-12+013899999V0201801N00151220001CN0200001N1+03441+01671101251ADDAA106000091AG10000GF101991011011008001001001MA1999999099681MD1999999-0041REMSYN011 333 59004;
0150826780999991994080100004-06767-043017FM-12+013899999V0201401N00051220001CN9999999N9+02661+01501101461ADDAA106000091AG10000GA1001+999999999GF100991001001999999001001KA1240M+03461MA1999999099881MD1999999-0021REMSYN017 333 10346 59002;EQDQ01+000002VOVAR 
0131826780999991994080112004-06767-043017FM-12+013899999V0201401N00411220001CN0200001N1+02741+01951101751ADDAA106000091AG10000GA1001+999999999GF100991001001999999001001KA1240N+02181MA1999999100171MD1999999-0011REMSYN017 333 20218 59001;
0131826780999991994080212004-06767-043017FM-12+013899999V0201401N00411220001CN0200001N1+02811+01631101721ADDAA106000091AG10000GA1001+999999999GF100991001001999999001001KA1240N+02221MA1999999100141MD1999999-0031REMSYN017 333 20222 59003;
0096826780999991994080218004-06767-043017FM-12+013899999V0201401N00101220001CN0200001N1+03541+01671101221ADDAA106000091AG10000GF101991011011008001001001MA1999999099641MD1999999-0031REMSYN011 333 59003;
0115826780999991994080312004-06767-043017FM-12+013899999V0200501N00311220001CN0200001N1+02831+01741101711ADDAA106000091AG10000GF101991001001999999001011KA1240N+02011MA1999999100131MD1999999-0011REMSYN017 333 20201 59001;
0096826780999991994080318004-06767-043017FM-12+013899999V0203201N00051220001CN0200001N1+03541+01711101141ADDAA106000091AG10000GF102991021011008001001001MA1999999099571MD1999999-0101REMSYN011 333 59010;
0150826780999991994080400004-06767-043017FM-12+013899999V0209991C00001220001CN9999999N9+02781+01791101321ADDAA106000091AG10000GA1001+999999999GF100991001001999999001001KA1240M+03631MA1999999099751MD1999999-0061REMSYN017 333 10363 59006;EQDQ01+000002VOVAR 
0131826780999991994080412004-06767-043017FM-12+013899999V0200901N00361220001CN0200001N1+02941+02081101691ADDAA106000091AG10000GA1001+999999999GF100991001001999999001001KA1240N+02051MA1999999100121MD1999999-0011REMSYN017 333 20205 59001;
0096826780999991994080418004-06767-043017FM-12+013899999V0201401N00151220001CN0200001N1+03581+01931101181ADDAA106000091AG10000GF103991031011008001001001MA1999999099621MD1999999+0051REMSYN011 333 58005;
0115826780999991994080512004-06767-043017FM-12+013899999V0200501N00051220001CN0200001N1+02861+02061101711ADDAA106000091AG10000GF101991011011008001001001KA1240N+02161MA1999999100141MD1999999+0021REMSYN017 333 20216 58002;
0096826780999991994080518004-06767-043017FM-12+013899999V0201401N00261007501CN0200001N1+03641+01551101231ADDAA106000091AG10000GF105991051021008001001001MA1999999099641MD1999999+0051REMSYN011 333 58005;
0150826780999991994080600004-06767-043017FM-12+013899999V0209991C00001220001CN9999999N9+02741+01921101391ADDAA106000091AG10000GA1001+999999999GF100991001001999999001001KA1240M+03681MA1999999099821MD1999999+0071REMSYN017 333 10368 58007;EQDQ01+000002VOVAR 
0131826780999991994080612004-06767-043017FM-12+013899999V0201401N00211220001CN0200001N1+02861+02161101701ADDAA106000091AG10000GA1001+999999999GF100991001001999999001001KA1240N+02021MA1999999100121MD1999999-0021REMSYN017 333 20202 59002;
0096826780999991994080618004-06767-043017FM-12+013899999V0201401N00211220001CN0200001N1+03501+01941101121ADDAA106000091AG10000GF104991031011008001001011MA1999999099551MD1999999-0121REMSYN011 333 59012;
0131826780999991994080712004-06767-043017FM-12+013899999V0201401N00211220001CN0200001N1+02701+02131101631ADDAA106000091AG10000GA1001+999999999GF100991001001999999001001KA1240N+02241MA1999999100061MD1999999-0061REMSYN017 333 20224 59006;
0096826780999991994080718004-06767-043017FM-12+013899999V0200501N00261007501CN0200001N1+03481+02001101061ADDAA106000091AG10000GF105991051021008001001001MA1999999099511MD1999999-0041REMSYN011 333 59004;
0115826780999991994080812004-06767-043017FM-12+013899999V0200501N00261220001CN0200001N1+02791+02251101531ADDAA106000091AG10000GF101991011001017501031001KA1240N+02121MA1999999099961MD1999999-0101REMSYN017 333 20212 59010;
0096826780999991994080818004-06767-043017FM-12+013899999V0201401N00311007501CN0200001N1+03531+02291101091ADDAA106000091AG10000GF105991051011008001001001MA1999999099531MD1999999+0021REMSYN011 333 58002;
0131826780999991994080912004-06767-043017FM-12+013899999V0200901N00311220001CN0200001N1+02751+02021101641ADDAA106000091AG10000GA1001+999999999GF100991001001999999001001KA1240N+02201MA1999999100071MD1999999+0111REMSYN017 333 20220 58011;
0131826780999991994081000004-06767-043017FM-12+013899999V0201401N00411220001CN0200001N1+02801+99999101781ADDAA106000091AG10000GA1001+999999999GF100991001001999999001001KA1240N+02361MA1999999100201MD1999999+0131REMSYN017 333 20236 58013;
0096826780999991994081018004-06767-043017FM-12+013899999V0201801N00151007501CN0200001N1+03541+99999101281ADDAA106000091AG10000GF105991051011008001001001MA1999999099731MD1999999+0161REMSYN011 333 58016;
0150826780999991994081100004-06767-043017FM-12+013899999V0209991C00001220001CN9999999N9+02801+99999101431ADDAA106000091AG10000GA1001+999999999GF100991001001999999001001KA1240M+03581MA1999999099861MD1999999+0031REMSYN017 333 10358 58003;EQDQ01+000002VOVAR 
0096826780999991994081118004-06767-043017FM-12+013899999V0201401N00101007501CN0200001N1+03501+99999101171ADDAA106000091AG10000GF106991061031008001001001MA1999999099601MD1999999-0131REMSYN011 333 59013;
0131826780999991994081212004-06767-043017FM-12+013899999V0201401N00411220001CN0200001N1+02861+99999101641ADDAA106000091AG10000GA1001+999999999GF100991001001999999001001KA1240N+02281MA1999999100071MD1999999+0051REMSYN017 333 20228 58005;
0096826780999991994081218004-06767-043017FM-12+013899999V0200901N00211007501CN0200001N1+03501+99999101241ADDAA106000091AG10000GF106991061021008001001001MA1999999099681MD1999999+0081REMSYN011 333 58008;
0150826780999991994081300004-06767-043017FM-12+013899999V0209991C00001220001CN9999999N9+02851+99999101391ADDAA106000091AG10000GA1001+999999999GF100991001001999999001001KA1240M+03501MA1999999099821MD1999999-0031REMSYN017 333 10350 59003;EQDQ01+000002VOVAR 
0096826780999991994081318004-06767-043017FM-12+013899999V0201401N00151220001CN0200001N1+03561+99999101221ADDAA106000091AG10000GF101991011011008001001001MA1999999099671MD1999999-0011REMSYN011 333 59001;
0134826780999991994081400004-06767-043017FM-12+013899999V0201401N00151220001CN9999999N9+02941+99999101401ADDAA106000091AG10000GF102991011011008001031001KA1240M+03621MA1999999099841MD1999999+0021REMSYN017 333 10362 58002;EQDQ01+000002VOVAR 
0096826780999991994081418004-06767-043017FM-12+013899999V0201401N00311220001CN0200001N1+03501+99999101161ADDAA106000091AG10000GF101991011011012501001001MA1999999099611MD1999999-0061REMSYN011 333 59006;
0131826780999991994081512004-06767-043017FM-12+013899999V0201401N00511220001CN0200001N1+02801+99999101671ADDAA106000091AG10000GA1001+999999999GF100991001001999999001001KA1240N+02271MA1999999100151MD1999999-0031REMSYN017 333 20227 59003;
0112826780999991994081518004-06767-043017FM-12+013899999V0203601N00101220001CN0200001N1+03461+99999101121ADDAA106000091AG10000GA1001+999999999GF100991001001999999001001MA1999999099601MD1999999-0011REMSYN011 333 59001;
0137826780999991994081600004-06767-043017FM-12+013899999V0209991C00001220001CN9999999N9+02801+99999101361ADDAA106000091AG10000GA1001+999999999GF100991001001999999001001MA1999999099841MD1999999+0071REMSYN017 333 10/// 58007;EQDQ01+000002VOVAR 
0131826780999991994081612004-06767-043017FM-12+013899999V0201401N00511220001CN0200001N1+02791+99999101711ADDAA106000091AG10000GA1001+999999999GF100991001001999999001001KA1240N+02071MA1999999100131MD1999999-0021REMSYN017 333 20207 59002;
0137826780999991994081700004-06767-043017FM-12+013899999V0201401N00051220001CN9999999N9+02751+01261101331ADDAA106000091AG10000GA1001+999999999GF100991001001999999001001MA1999999099761MD1999999-0081REMSYN017 333 10/// 59008;EQDQ01+000002VOVAR 
0131826780999991994081712004-06767-043017FM-12+013899999V0201401N00461220001CN0200001N1+02741+01571101771ADDAA106000091AG10000GA1001+999999999GF100991001001999999001001KA1240N+02181MA1999999100191MD1999999+0061REMSYN017 333 20218 58006;
0112826780999991994081718004-06767-043017FM-12+013899999V0201401N00151220001CN0200001N1+03401+01191101191ADDAA106000091AG10000GA1001+999999999GF100991001001999999001001MA1999999099641MD1999999+0121REMSYN011 333 58012;
0150826780999991994081800004-06767-043017FM-12+013899999V0201801N00051220001CN9999999N9+02621+01041101371ADDAA106000091AG10000GA1001+999999999GF100991001001999999001001KA1240M+03531MA1999999099791MD1999999+0031REMSYN017 333 10353 58003;EQDQ01+000002VOVAR 
0096826780999991994081818004-06767-043017FM-12+013899999V0201401N00261045001CN0040001N1+03481+01711101251ADDAA106000091AG10000GF105991031021008001031011MA1999999099771MD1999999+0061REMSYN011 333 58006;
0134826780999991994081900004-06767-043017FM-12+013899999V0200501N00051015001CN9999999N9+02741+01541101421ADDAA106000091AG10000GF107991061001017501031021KA1240M+03541MA1999999099851MD1999999+0061REMSYN017 333 10354 58006;EQDQ01+000002VOVAR 
0115826780999991994081912004-06767-043017FM-12+013899999V0201401N00311105001CN0200001N1+02941+01821101621ADDAA106000091AG10000GF106991041021008001001021KA1240N+02481MA1999999100151MD1999999-0041REMSYN017 333 20248 59004;
0096826780999991994081918004-06767-043017FM-12+013899999V0201401N00211007501CN0200001N1+03461+01641101211ADDAA106000091AG10000GF106991051021008001001011MA1999999099691MD1999999-0011REMSYN011 333 59001;
0134826780999991994082000004-06767-043017FM-12+013899999V0201401N00151220001CN9999999N9+02901+01441101481ADDAA106000091AG10000GF103991021011008001031001KA1240M+03551MA1999999099911MD1999999+0061REMSYN017 333 10355 58006;EQDQ01+000002VOVAR 
0131826780999991994082012004-06767-043017FM-12+013899999V0200901N00461220001CN0200001N1+02801+01561101701ADDAA106000091AG10000GA1001+999999999GF100991001001999999001001KA1240N+02401MA1999999100181MD1999999+0031REMSYN017 333 20240 58003;
0096826780999991994082018004-06767-043017FM-12+013899999V0200901N00411220001CN0200001N1+03451+01531101181ADDAA106000091AG10000GF103991031011008001001001MA1999999099621MD1999999-0071REMSYN011 333 59007;
0115826780999991994082112004-06767-043017FM-12+013899999V0201401N00571220001CN0200001N1+02831+01711101571ADDAA106000091AG10000GF101991011011008001001001KA1240N+02441MA1999999100001MD1999999-0181REMSYN017 333 20244 59018;
0131826780999991994082212004-06767-043017FM-12+013899999V0201401N00411220001CN0200001N1+02871+01521101551ADDAA106000091AG10000GA1001+999999999GF100991001001999999001001KA1240N+02231MA1999999099981MD1999999-0021REMSYN017 333 20223 59002;
0112826780999991994082218004-06767-043017FM-12+013899999V0201401N00211220001CN0200001N1+03541+01171101071ADDAA106000091AG10000GA1001+999999999GF100991001001999999001001MA1999999099511MD1999999-0101REMSYN011 333 59010;
0150826780999991994082300004-06767-043017FM-12+013899999V0201401N00101220001CN9999999N9+02721+01621101241ADDAA106000091AG10000GA1001+999999999GF100991001001999999001001KA1240M+03601MA1999999099671MD1999999-0061REMSYN017 333 10360 59006;EQDQ01+000002VOVAR 
0115826780999991994082312004-06767-043017FM-12+013899999V0201401N00211220001CN0200001N1+02881+01861101551ADDAA106000091AG10000GF102991011011017501001011KA1240N+02221MA1999999100031MD1999999+0051REMSYN017 333 20222 58005;
0096826780999991994082318004-06767-043017FM-12+013899999V0202701N00101220001CN0200001N1+03501+01631101081ADDAA106000091AG10000GF104991031021008001001011MA1999999099561MD1999999+0041REMSYN011 333 58004;
0150826780999991994082400004-06767-043017FM-12+013899999V0209991C00001220001CN9999999N9+02721+01711101251ADDAA106000091AG10000GA1001+999999999GF100991001001999999001001KA1240M+03641MA1999999099731MD1999999+0061REMSYN017 333 10364 58006;EQDQ01+000002VOVAR 
