0114827840999991994010212004-07317-039300FM-12+040999999V0200501N00211045001CN0200001N9+02941+01591101131ADDAA106000091AG14000GF108991041021008001011001KA1240N+02301MA1999999096511MD1999999-0101REMSYN016 333 20230 59010
0095827840999991994010218004-07317-039300FM-12+040999999V0202701N00151045001CN0200001N9+03441+01331100601ADDAA106000091AG14000GF107991041021012501011001MA1999999096001MD1999999-0111REMSYN010 333 59011
0114827840999991994010312004-07317-039300FM-12+040999999V0200501N00151012001CN0200001N9+02741+02001101141ADDAA106000091AG14000GF106991061081008001001001KA1240N+02471MA1999999096511MD1999999+0001REMSYN016 333 20247 58000
0130827840999991994010400004-07317-039300FM-12+040999999V0202301N00101220001CN9999999N9+02681+01451100831ADDAA106000091AG14000GA1001+999999999GF100991001001999999001001KA1240M+03561MA1999999096811MD1999999+0031REMSYN016 333 10356 58003
0142827840999991994010412004-07317-039300FM-12+040999999V0202301N00101045001CN0200001N9+02501+02091101281ADDAA124000591AG10019AY191061AY251061GF106991041081008001031001KA1240N+02251MA1999999096631MD1999999+0121MW1021REMSYN022 333 20225 58012 69954
0095827840999991994010418004-07317-039300FM-12+040999999V0203601N00211220001CN0200001N9+03311+01871100621ADDAA106000091AG14000GF104991021021008001071001MA1999999096031MD1999999+0051REMSYN010 333 58005
0114827840999991994010700004-07317-039300FM-12+040999999V0209991C00001012001CN9999999N9+02521+02311101001ADDAA106000091AG14000GF106991061081008001001001KA1240M+02971MA1999999096351MD1999999-0211REMSYN016 333 10297 59021
0120827840999991994010712004-07317-039300FM-12+040999999V0203601N00151012001CN0200001N9+02571+02081101151ADDAA124011091AG10000GF108991081081008001999999KA1240N+02331MA1999999096501MD1999999-0111REMSYN022 333 20233 59011 60114
0095827840999991994010718004-07317-039300FM-12+040999999V0200501N00261220001CN0200001N9+03161+01961100591ADDAA106000091AG14000GF103991031021012501001001MA1999999096981MD1999999-0211REMSYN010 333 59021
0095827840999991994010818004-07317-039300FM-12+040999999V0200501N00311012001CN0200001N9+03201+01931100691ADDAA106000091AG14000GF107991071061012501001001MA1999999090081MD1999999+0101REMSYN010 333 58010
0171827840999991994010900004-07317-039300FM-12+040999999V0203201N00051220001CN9999999N9+02661+02241100911ADDAA106000091AG10000AY101061AY201061GA1001+999999999GF100991001001999999001001KA1240M+03311MA1999999096282MD1999999+0011MW1131REMSYN016 333 10331 58001EQDQ01+096283APOSP 
0142827840999991994010912004-07317-039300FM-12+040999999V0200501N00211012001CN0200001N9+02661+02221101041ADDAA124001091AG10006AY161061AY211061GF108991081081008001999999KA1240N+02431MA1999999096901MD1999999-0021MW1021REMSYN022 333 20243 59002 60014
0130827840999991994011000004-07317-039300FM-12+040999999V0201801N00101220001CN9999999N9+02501+02211100941ADDAA106000091AG14000GA1001+999999999GF100991001001999999001001KA1240M+03201MA1999999096301MD1999999+0021REMSYN016 333 10320 58002
0114827840999991994011012004-07317-039300FM-12+040999999V0200901N00151012001CN0200001N9+02581+02101101141ADDAA106000091AG14000GF108991081081008001999999KA1240N+02441MA1999999096491MD1999999+0091REMSYN016 333 20244 58009
0114827840999991994011112004-07317-039300FM-12+040999999V0203201N00151007501CN0200001N9+02661+02071101111ADDAA106000091AG14000GF105991051021008001001001KA1240N+02341MA1999999096461MD1999999-0031REMSYN016 333 20234 59003
0114827840999991994011312004-07317-039300FM-12+040999999V0200501N00261007501CN0200001N9+02601+02121101211ADDAA106000091AG14000GF105991051021008001001001KA1240N+02301MA1999999096551MD1999999+0051REMSYN016 333 20230 58005
0095827840999991994011318004-07317-039300FM-12+040999999V0200501N00211220001CN0200001N9+03261+01841100681ADDAA106000091AG14000GF104991031021012501011001MA1999999096081MD1999999+0061REMSYN010 333 58006
0130827840999991994011400004-07317-039300FM-12+040999999V0203201N00101220001CN9999999N9+02641+02091100941ADDAA106000091AG14000GA1001+999999999GF100991001001999999001001KA1240M+03321MA1999999096311MD1999999+0031REMSYN016 333 10332 58003
0114827840999991994011412004-07317-039300FM-12+040999999V0203601N00261012001CN0200001N9+02741+01871101271ADDAA106000091AG14000GF106991061081008001001001KA1240N+02381MA1999999096631MD1999999+0081REMSYN016 333 20238 58008
0095827840999991994011418004-07317-039300FM-12+040999999V0203601N00211045001CN0200001N9+03121+01821100871ADDAA106000091AG14000GF106991041021008001071001MA1999999096251MD1999999+0171REMSYN010 333 58017
0136827840999991994011700004-07317-039300FM-12+040999999V0201401N001519999999N9999999N9+02561+02081101001ADDAA106000091AG10000AY121061AY221061GF108991081001008001999999KA1240M+02991MA1999999096351MD1999999-0021MW1131REMSYN016 333 10299 59002
0142827840999991994011712004-07317-039300FM-12+040999999V0200501N00051007501CN0200001N9+02491+02071101141ADDAA124004091AG10006AY161061AY221061GF108991081071008001999999KA1240N+02261MA1999999096481MD1999999+0041MW1021REMSYN022 333 20226 58004 60044
0142827840999991994011812004-07317-039300FM-12+040999999V0202701N00101007501CN0010001N9+02351+02171101151ADDAA124004091AG10006AY161061AY211061GF108991081071008001999999KA1240N+02301MA1999999096491MD1999999+0011MW1161REMSYN022 333 20230 58001 60044
0086827840999991994011818004-07317-039300FM-12+040999999V0203201N00151045001CN0200001N9+02611+02121100811ADDAG12006AY161061AY221061GF107991041081008001031001MA1999999096161MW1021REMSYN004 333
0142827840999991994012112004-07317-039300FM-12+040999999V0200901N00051007501CN0020001N9+02241+02191101341ADDAA124006091AG10006AY161061AY211061GF108991081071008001999999KA1240N+02141MA1999999096651MD1999999+0001MW1951REMSYN022 333 20214 58000 60064
0120827840999991994012412004-07317-039300FM-12+040999999V0200501N00151012001CN0040001N9+02561+02251101331ADDAA124002091AG10000GF108991081081008001999999KA1240N+02211MA1999999096661MD1999999-0091REMSYN022 333 20221 59009 60024
0095827840999991994012418004-07317-039300FM-12+040999999V0200501N00211220001CN0200001N9+03071+02021100951ADDAA106000091AG14000GF104991041021008001001001MA1999999096321MD1999999-0051REMSYN010 333 59005
0114827840999991994012512004-07317-039300FM-12+040999999V0200501N00411006001CN0200001N9+02601+02121101451ADDAA106000091AG14000GF108991081081002501999999KA1240N+02351MA1999999096781MD1999999+0121REMSYN016 333 20235 58012
0095827840999991994012518004-07317-039300FM-12+040999999V0203601N00261012001CN0200001N9+02981+01951101011ADDAA106000091AG14000GF106991061021012501001001MA1999999096381MD1999999+0061REMSYN010 333 58006
0095827840999991994012618004-07317-039300FM-12+040999999V0203601N00211045001CN0200001N9+03021+02041100801ADDAA106000091AG14000GF108991021021008001011999MA1999999096161MD1999999-0201REMSYN010 333 59020
0095827840999991994012718004-07317-039300FM-12+040999999V0200501N00361220001CN0200001N9+03081+02101100791ADDAA106000091AG14000GF103991031021012501001001MA1999999096171MD1999999+0011REMSYN010 333 58001
0130827840999991994012800004-07317-039300FM-12+040999999V0209991C00001220001CN9999999N9+02501+02171100901ADDAA106000091AG14000GA1001+999999999GF100991001001999999001001KA1240M+03191MA1999999096331MD1999999+0021REMSYN016 333 10319 58002
0114827840999991994012812004-07317-039300FM-12+040999999V0203601N00211012001CN0200001N9+02661+02181101231ADDAA106000091AG14000GF108991081081008001999999KA1240N+02201MA1999999096581MD1999999+0061REMSYN016 333 20220 58006
0142827840999991994012912004-07317-039300FM-12+040999999V0200501N00311012001CN0200001N9+02471+02011101291ADDAA124007091AG10006AY161061AY221061GF108991051081008001031999KA1240N+02241MA1999999096621MD1999999+0041MW1011REMSYN022 333 20224 58004 60074
0114827840999991994013012004-07317-039300FM-12+040999999V0200501N00151007501CN0200001N9+02681+02041101251ADDAA106000091AG14000GF106991061021008001001001KA1240N+02201MA1999999096591MD1999999-0031REMSYN016 333 20220 59003
0114827840999991994013112004-07317-039300FM-12+040999999V0200501N00261015001CN0200001N9+02641+01881101181ADDAA106000091AG14000GF108991081001017501021999KA1240N+02281MA1999999096531MD1999999-0061REMSYN016 333 20228 59006
0114827840999991994020112004-07317-039300FM-12+040999999V0200501N00101012001CN0200001N9+02681+02111101281ADDAA106000091AG14000GF108991081081008001999999KA1240N+02221MA1999999096621MD1999999+0091REMSYN016 333 20222 58009
0095827840999991994020118004-07317-039300FM-12+040999999V0200501N00261012001CN0200001N9+03001+01841100901ADDAA106000091AG14000GF108991051081008001021999MA1999999096261MD1999999+0021REMSYN010 333 58002
0114827840999991994020218004-07317-039300FM-12+040999999V0200901N00151220001CN0200001N9+03131+01951101001ADDAA106000091AG14000GF104991999021008001001001MA1999999096361MD1999999+0101REMSYN010 333 58010EQDQ01+000022SCOTLC
0095827840999991994020318004-07317-039300FM-12+040999999V0200501N00211220001CN0200001N9+03101+01971100921ADDAA106000091AG14000GF102991021011012501001001MA1999999096291MD1999999-0071REMSYN010 333 59007
0130827840999991994020400004-07317-039300FM-12+040999999V0201801N00051220001CN9999999N9+02481+02151101111ADDAA106000091AG14000GA1001+999999999GF100991001001999999001001KA1240M+03191MA1999999096451MD1999999-0081REMSYN016 333 10319 59008
0142827840999991994020412004-07317-039300FM-12+040999999V0202301N00101007501CN0020001N9+02291+02141101351ADDAA124011091AG10019AY191061AY261061GF108991081071008001999999KA1240N+02231MA1999999096671MD1999999-0061MW1201REMSYN022 333 20223 59006 60114
0095827840999991994020418004-07317-039300FM-12+040999999V0203601N00151045001CN0200001N9+02901+02201100841ADDAA106000091AG14000GF105991041021008001011001MA1999999096201MD1999999-0091REMSYN010 333 59009
0123827840999991994020618004-07317-039300FM-12+040999999V0200501N00151012001CN0200001N9+02701+02171100891ADDAA106001091AG10006AY161061AY221061GF108991061021012501011051MA1999999096241MD1999999+0081MW1021REMSYN016 333 58008 60011
0142827840999991994020712004-07317-039300FM-12+040999999V0202701N00101012001CN0200001N9+02521+02191101241ADDAA124001091AG10001AY151061AY211061GF108991081081008001999999KA1240N+02161MA1999999096571MD1999999-0031MW1021REMSYN022 333 20216 59003 60014
0142827840999991994020912004-07317-039300FM-12+040999999V0203201N00101012001CN0200001N9+02481+02191101341ADDAA124001091AG10006AY161061AY211061GF108991081081008001999999KA1240N+02251MA1999999096661MD1999999-0051MW1021REMSYN022 333 20225 59005 60014
0142827840999991994021012004-07317-039300FM-12+040999999V0200501N00151012001CN0040001N9+02541+02171101321ADDAA124002091AG10001AY151061AY211061GF108991081081008001999999KA1240N+02231MA1999999096651MD1999999-0011MW1021REMSYN022 333 20223 59001 60024
0114827840999991994021112004-07317-039300FM-12+040999999V0203601N00151007501CN0200001N9+02641+02091101431ADDAA106000091AG14000GF106991061021008001001001KA1240N+02141MA1999999096751MD1999999+0101REMSYN016 333 20214 58010
0142827840999991994021212004-07317-039300FM-12+040999999V0203201N00051012001CN0100001N9+02461+02091101371ADDAA124009091AG10001AY151061AY211061GF108991081081008001999999KA1240N+02131MA1999999096691MD1999999-0061MW1021REMSYN022 333 20213 59006 60094
0142827840999991994021312004-07317-039300FM-12+040999999V0200901N00051012001CN0200001N9+02521+02131101301ADDAA124001091AG10001AY151061AY221061GF108991081081008001999999KA1240N+02201MA1999999096631MD1999999-0061MW1021REMSYN022 333 20220 59006 60014
0095827840999991994021318004-07317-039300FM-12+040999999V0202701N00151045001CN0200001N9+02501+02171100901ADDAA106000091AG14000GF108991031071008001021999MA1999999096241MD1999999+0061REMSYN010 333 58006
0114827840999991994021400004-07317-039300FM-12+040999999V0209991C00001220001CN9999999N9+02241+02191101221ADDAA106000091AG14000GF102991021081008001001001KA1240M+02611MA1999999096551MD1999999+0141REMSYN016 333 10261 58014
0095827840999991994021418004-07317-039300FM-12+040999999V0200501N00261007501CN0200001N9+02941+02161100861ADDAA106000091AG14000GF106991051021008001061001MA1999999096231MD1999999-0011REMSYN010 333 59001
0142827840999991994021512004-07317-039300FM-12+040999999V0200501N00151007501CN0040001N9+02431+02191101511ADDAA124042091AG10019AY191061AY261061GF108991081071008001999999KA1240N+02201MA1999999096831MD1999999+0061MW1021REMSYN022 333 20220 58006 60424
0142827840999991994021712004-07317-039300FM-12+040999999V0203601N00151045001CN0200001N9+02661+02161101331ADDAA124003091AG10006AY161061AY221061GF106991041021008001011001KA1240N+02301MA1999999096671MD1999999-0101MW1021REMSYN022 333 20230 59010 60034
0095827840999991994021818004-07317-039300FM-12+040999999V0203601N00211012001CN0200001N9+02761+02321101021ADDAA106000091AG14000GF108991081081008001999999MA1999999096371MD1999999+0121REMSYN010 333 58012
0142827840999991994021912004-07317-039300FM-12+040999999V0203601N00261007501CN0020001N9+02191+02131101371ADDAA124004091AG10006AY161061AY211061GF108991081071008001999999KA1240N+02201MA1999999096681MD1999999+0061MW1531REMSYN022 333 20220 58006 60044
0095827840999991994022118004-07317-039300FM-12+040999999V0203601N00211045001CN0200001N9+02921+02121100841ADDAA106000091AG14000GF106991041081008001021001MA1999999062101MD1999999-0041REMSYN010 333 59004
0114827840999991994022412004-07317-039300FM-12+040999999V0202701N00101012001CN0200001N9+02541+02171101241ADDAA106000091AG14000GF107991071081008001001001KA1240N+02171MA1999999096571MD1999999+0051REMSYN016 333 20217 58005
0142827840999991994022512004-07317-039300FM-12+040999999V0203201N00151012001CN0200001N9+02531+02171101261ADDAA124000391AG10001AY151061AY211061GF107991061081008001031001KA1240N+02321MA1999999096591MD1999999+0021MW1201REMSYN022 333 20232 58002 69934
0095827840999991994022518004-07317-039300FM-12+040999999V0200501N00211045001CN0200001N9+03051+02091100761ADDAA106000091AG14000GF105991031021008001071001MA1999999096141MD1999999-0041REMSYN010 333 59004
0114827840999991994022612004-07317-039300FM-12+040999999V0200901N00151012001CN0200001N9+02561+02151101081ADDAA106000091AG14000GF107991061081008001031001KA1240N+02341MA1999999096621MD1999999+0031REMSYN016 333 20234 58003
0117827840999991994022618004-07317-039300FM-12+040999999V0201401N00101007501CN0040001N9+02621+02251100931ADDAA106000091AG14000AY121061AY221061GF108991081071008001999999MA1999999096281MD1999999+0141MW1291REMSYN010 333 58014
0186827840999991994022712004-07317-039300FM-12+040999999V0201401N00051045001CN0200001N9+02341+02171101401ADDAA124003091AG10006AY161061AY221061GA1041+003609049GA2021+008009079GF108991011081008001021999KA1240N+02111MA1999999096721MD1999999+0101MW1021REMSYN034 333 20211 58010 60034 84512 82795
0095827840999991994022718004-07317-039300FM-12+040999999V0200901N00261045001CN0200001N9+02921+02191100931ADDAA106000091AG14000GF106991021021012501021001MA1999999096281MD1999999+0001REMSYN010 333 58000
0158827840999991994022800004-07317-039300FM-12+040999999V0209991C00001220001CN9999999N9+02321+02201101131ADDAA106000191AG10001AY151061AY211061GA1001+999999999GF100991001001999999001001KA1240M+02991MA1999999096461MD1999999-0041MW1001REMSYN022 333 10299 59004 69911
0142827840999991994022812004-07317-039300FM-12+040999999V0209991C00001007501CN0100001N9+02321+02111101441ADDAA124003091AG10006AY161061AY211061GF108991081051008001999999KA1240N+02121MA1999999096751MD1999999+0031MW1021REMSYN022 333 20212 58003 60034
0095827840999991994022818004-07317-039300FM-12+040999999V0203601N00101012001CN0200001N9+02901+02171101001ADDAA106000091AG14000GF108991081081008001999999MA1999999096351MD1999999+0071REMSYN010 333 58007
0142827840999991994030112004-07317-039300FM-12+040999999V0203601N00101007501CN0100001N9+02481+02151101341ADDAA124011091AG10006AY161061AY221061GF108991081071008001999999KA1240N+02141MA1999999096661MD1999999-0091MW1021REMSYN022 333 20214 59009 60114
0114827840999991994030200004-07317-039300FM-12+040999999V0201801N00101012001CN9999999N9+02411+02211101191ADDAA106000091AG14000GF108991081081008001999999KA1240M+02891MA1999999096531MD1999999-0071REMSYN016 333 10289 59007
0100827840999991994030212004-07317-039300FM-12+040999999V0203601N00311012001CN0200001N9+02631+02141101291ADDAA106000091AG14000GF108991081081008001999999KA1240N+02341MA1999999096631REMSYN016 333 20234 58///
0095827840999991994030218004-07317-039300FM-12+040999999V0203601N00151220001CN0200001N9+02941+02031100871ADDAA106000091AG14000GF104991041081008001001001MA1999999096241MD1999999-0131REMSYN010 333 59013
0142827840999991994030312004-07317-039300FM-12+040999999V0201401N00051007501CN0040001N9+02341+02171101471ADDAA124000591AG10001AY151061AY221061GF108991081071008001999999KA1240N+02331MA1999999096781MD1999999+0151MW1021REMSYN022 333 20233 58015 69954
0130827840999991994030400004-07317-039300FM-12+040999999V0200901N00051220001CN9999999N9+02291+02131101191ADDAA106000091AG14000GA1001+999999999GF100991001001999999001001KA1240M+02871MA1999999096511MD1999999+0001REMSYN016 333 10287 58000
0114827840999991994030412004-07317-039300FM-12+040999999V0201401N00051012001CN0200001N9+02601+02241101311ADDAA106000091AG14000GF108991081081008001999999KA1240N+02121MA1999999096641MD1999999-0141REMSYN016 333 20212 59014
0063827840999991994030600004-07317-039300FM-12+040999999V0202301N00051220001CN9999999N9+02271+01991999999ADDAA106000091AG14000GA1001+999999999GF100991001001999999001001
0142827840999991994030612004-07317-039300FM-12+040999999V0203601N00101045001CN0200001N9+02451+02111101351ADDAA124003091AG10006AY161061AY211061GF108991031081008001031999KA1240N+02171MA1999999096671MD1999999+0061MW1021REMSYN022 333 20217 58006 60034
0142827840999991994030700004-07317-039300FM-12+040999999V0201801N00051012001CN9999999N9+02281+02141101231ADDAA106000191AG10001AY151061AY221061GF106991061081008001001001KA1240M+02831MA1999999096551MD1999999+0051MW1021REMSYN022 333 10283 58005 69911
0114827840999991994030812004-07317-039300FM-12+040999999V0203201N00151007501CN0200001N9+02471+02091101361ADDAA106000091AG14000GF108991081071008001999999KA1240N+02191MA1999999096681MD1999999-0011REMSYN016 333 20219 59001
0095827840999991994030818004-07317-039300FM-12+040999999V0200901N00211012001CN0200001N9+02801+02111100911ADDAA106000091AG14000GF106991051021012501071001MA1999999096271MD1999999+0031REMSYN010 333 58003
0142827840999991994030912004-07317-039300FM-12+040999999V0202701N00151007501CN0040001N9+02391+02171101391ADDAA124002091AG10006AY161061AY211061GF108991081071008001999999KA1240N+02181MA1999999096711MD1999999+0031MW1021REMSYN022 333 20218 58003 60024
0142827840999991994031012004-07317-039300FM-12+040999999V0203201N00051007501CN0040001N9+02361+02171101481ADDAA124045091AG10006AY161061AY211061GF108991081051008001999999KA1240N+02071MA1999999096791MD1999999+0081MW1021REMSYN022 333 20207 58008 60454
0142827840999991994031112004-07317-039300FM-12+040999999V0201401N00051012001CN0020001N9+02401+02281101371ADDAA124005091AG10006AY161061AY211061GF108991081081008001999999KA1240N+02131MA1999999096691MD1999999-0101MW1601REMSYN022 333 20213 59010 60054
0123827840999991994031118004-07317-039300FM-12+040999999V0203201N00151012001CN0200001N9+02891+02231100881ADDAA106000391AG10001AY151061AY221061GF106991061081008001001001MA1999999096281MD1999999-0191MW1021REMSYN016 333 59019 69931
0131827840999991994031212004-07317-039300FM-12+040999999V0203601N00261007501CN0040001N9+02481+02191101301ADDAA124000491AA299000591AG10000GF108991081071008001999999KA1240N+02301MA1999999096631MD1999999-0061REMSYN022 333 20230 59006 69944
0114827840999991994031312004-07317-039300FM-12+040999999V0203601N00101012001CN0200001N9+02481+02151101311ADDAA106000091AG14000GF108991081081008001999999KA1240N+02301MA1999999096641MD1999999+0011REMSYN016 333 20230 58001
0153827840999991994031412004-07317-039300FM-12+040999999V0203201N00051012001CN0200001N9+02471+02131101371ADDAA124000691AA299000591AG10000AY111061AY281061GF108991081081008001999999KA1240N+02211MA1999999096691MD1999999+0051MW1251REMSYN022 333 20221 58005 69964
0120827840999991994031512004-07317-039300FM-12+040999999V0203201N00101012001CN0200001N9+02481+02191101281ADDAA124011091AG10018GF108991081081008001999999KA1240N+02131MA1999999096601MD1999999-0091REMSYN022 333 20213 59009 60114
0095827840999991994031618004-07317-039300FM-12+040999999V0203601N00101045001CN0200001N9+02931+01551100891ADDAA106000091AG14000GF106991041021008001011001MA1999999096251MD1999999-0061REMSYN010 333 59006
0142827840999991994031712004-07317-039300FM-12+040999999V0200901N00051007501CN0020001N9+02321+02181101391ADDAA124006091AG10006AY161061AY211061GF108991081071008001999999KA1240N+02161MA1999999096701MD1999999+0121MW1601REMSYN022 333 20216 58012 60064
0114827840999991994031912004-07317-039300FM-12+040999999V0200501N00311007501CN0200001N9+02641+02141101281ADDAA106000091AG14000GF106991061021008001001001KA1240N+02301MA1999999096621MD1999999-0071REMSYN016 333 20230 59007
0123827840999991994031918004-07317-039300FM-12+040999999V0201401N00211220001CN0200001N9+02801+02341100881ADDAA106001091AG10000AY121061AY221061GF104991041021008001001001MA1999999096241MD1999999+0001MW1211REMSYN016 333 58000 60011
0142827840999991994032112004-07317-039300FM-12+040999999V0200901N00151220001CN0200001N9+02721+02221101281ADDAA124009091AG10018AY191061AY261061GF103991031021008001001001KA1240N+02151MA1999999096621MD1999999-0101MW1011REMSYN022 333 20215 59010 60094
0120827840999991994032212004-07317-039300FM-12+040999999V0200501N00101007501CN0200001N9+02661+02181101231ADDAA124001091AG10000GF105991051021008001001001KA1240N+02151MA1999999096561MD1999999-0061REMSYN022 333 20215 59006 60014
0142827840999991994032412004-07317-039300FM-12+040999999V0200901N00151045001CN0200001N9+02661+02111101461ADDAA124018091AG10018AY191061AY261061GF105991041021008001071001KA1240N+02101MA1999999096781MD1999999+0211MW1011REMSYN022 333 20210 58021 60184
0142827840999991994032712004-07317-039300FM-12+040999999V0203601N00051045001CN0200001N9+02621+02251101331ADDAA124003091AG10006AY161061AY221061GF108991041081008001071999KA1240N+02251MA1999999096661MD1999999-0121MW1021REMSYN022 333 20225 59012 60034
0095827840999991994032718004-07317-039300FM-12+040999999V0200501N00151007501CN0200001N9+02971+02021100921ADDAA106000091AG14000GF107991071061008001001001MA1999999096281MD1999999-0061REMSYN010 333 59006
0142827840999991994040612004-07317-039300FM-12+040999999V0200501N00211007501CN0200001N9+02701+02171101181ADDAA124028091AG10005AY161061AY211061GF106991061021008001001001KA1240N+02251MA1999999096521MD1999999-0021MW1021REMSYN022 333 20225 59002 60284
0095827840999991994040718004-07317-039300FM-12+040999999V0200401N00211007501CN0190001N9+02951+01971100761ADDAA106000091AG14000GF108991081061008001999999MA1999999096141MD1999999+0051REMSYN010 333 58005
0142827840999991994040912004-07317-039300FM-12+040999999V0203601N00101012001CN0100001N9+02471+02151101181ADDAA124007091AG10005AY161061AY211061GF108991081081008001999999KA1240N+02141MA1999999096521MD1999999+0111MW1021REMSYN022 333 20214 58011 60074
0142827840999991994041012004-07317-039300FM-12+040999999V0200501N00311220001CN0200001N9+02681+01971101241ADDAA124035091AG10005AY161061AY201061GF102991011011008001001021KA1240N+02141MA1999999096581MD1999999+0061MW1021REMSYN022 333 20214 58006 60354
0117827840999991994041018004-07317-039300FM-12+040999999V0200501N00311012001CN0200001N9+02941+01941100871ADDAA106000091AG15000AY121061AY221061GF108991081081008001999999MA1999999096211MD1999999+0141MW1151REMSYN010 333 58014
0161827840999991994041112004-07317-039300FM-12+040999999V0200501N00211007501CN0200001N9+02521+02071101331ADDAA124063091AG10005AY161061AY221061GF106991061021008001001001KA1240M+99999MA1999999096651MD1999999+0071MW1021REMSYN022 333 10217 58007 60634EQDQ01 +02172ATMX  
0114827840999991994041212004-07317-039300FM-12+040999999V0203601N00151220001CN0200001N9+02691+02161101401ADDAA106000091AG14000GF103991021021008001011001KA1240N+02151MA1999999096731MD1999999+0081REMSYN016 333 20215 58008
0114827840999991994041312004-07317-039300FM-12+040999999V0200901N00151220001CN0200001N9+02641+02031101461ADDAA106000091AG14000GF102991021021008001001001KA1240N+02021MA1999999096781MD1999999+0051REMSYN016 333 20202 58005
0096827840999991994041318004-07317-039300FM-12+040999999V0200901N00311045001CN0200001N9+02961+01781101021ADDAA106000091AG10000GF106991021021008001051001MA1999999096371MD1999999+0011REMSYN011 333 58001;
0131827840999991994041400004-07317-039300FM-12+040999999V0202301N00051220001CN9999999N9+02181+01941101251ADDAA106000091AG10000GA1001+999999999GF100991001001999999001001KA1240M+03071MA1999999096581MD1999999+0081REMSYN017 333 10307 58008;
0115827840999991994041412004-07317-039300FM-12+040999999V0200501N00151045001CN0200001N9+02521+02131101381ADDAA106000091AG10000GF106991041021008001031001KA1240N+01991MA1999999096701MD1999999-0081REMSYN017 333 20199 59008;
0143827840999991994041800004-07317-039300FM-12+040999999V0201801N00151220001CN9999999N9+02361+02191101241ADDAA106000191AG10001AY151061AY211061GF101991011081008001001001KA1240M+03051MA1999999096571MD1999999-0051MW1011REMSYN023 333 10305 59005 69911;
0143827840999991994041812004-07317-039300FM-12+040999999V0203601N00101012001CN0200001N9+02441+02131101381ADDAA124080091AG10005AY161061AY211061GF108991081081008001999999KA1240N+02141MA1999999096701MD1999999-0011MW1021REMSYN023 333 20214 59001 60804;
0143827840999991994041912004-07317-039300FM-12+040999999V0200501N00151007501CN0200001N9+02621+02161101361ADDAA124004091AG10001AY151061AY221061GF106991051021008001031001KA1240N+02221MA1999999096691MD1999999-0011MW1021REMSYN023 333 20222 59001 60044;
0143827840999991994042012004-07317-039300FM-12+040999999V0200901N00311012001CN0200001N9+02601+02121101271ADDAA124001091AG10001AY151061AY221061GF106991061081008001001001KA1240N+02301MA1999999096611MD1999999-0081MW1021REMSYN023 333 20230 59008 69984;
0096827840999991994042118004-07317-039300FM-12+040999999V0200501N00311220001CN0200001N9+02961+02021100911ADDAA106000091AG10000GF102991021011012501001001MA1999999096281MD1999999+0031REMSYN011 333 58003;
0115827840999991994042212004-07317-039300FM-12+040999999V0200501N00361007501CN0200001N9+02681+02131101381ADDAA106000091AG10000GF106991061021008001001001KA1240N+02281MA1999999096711MD1999999+0001REMSYN017 333 20228 58000;
0115827840999991994042312004-07317-039300FM-12+040999999V0200501N00151220001CN0200001N9+02741+02051101421ADDAA106000091AG10000GF101991011011008001001001KA1240N+02221MA1999999096751MD1999999+0041REMSYN017 333 20222 58004;
0115827840999991994042512004-07317-039300FM-12+040999999V0200901N00261220001CN0200001N9+02741+02051101451ADDAA106000091AG10000GF104991021021008001071001KA1240N+02101MA1999999096781MD1999999-0021REMSYN017 333 20210 59002;
0115827840999991994042612004-07317-039300FM-12+040999999V0201401N00311220001CN0200001N9+02631+02071101281ADDAA106000091AG10000GF102991021021008001001001KA1240N+02081MA1999999096611MD1999999-0171REMSYN017 333 20208 59017;
0096827840999991994042618004-07317-039300FM-12+040999999V0200901N00211220001CN0200001N9+02961+02151100891ADDAA106000091AG10000GF104991021021008001031011MA1999999096251MD1999999-0061REMSYN011 333 59006;
0115827840999991994042712004-07317-039300FM-12+040999999V0200901N00211045001CN0200001N9+02591+01971101291ADDAA106000091AG10000GF106991011011008001071001KA1240N+02141MA1999999096621MD1999999+0011REMSYN017 333 20214 58001;
0115827840999991994042800004-07317-039300FM-12+040999999V0202301N00051007501CN9999999N9+02091+01961101201ADDAA106000091AG10000GF108991081061008001999999KA1240M+03011MA1999999096531MD1999999+0071REMSYN017 333 10301 58007;
0115827840999991994042812004-07317-039300FM-12+040999999V0201401N00311220001CN0200001N9+02701+02111101401ADDAA106000091AG10000GF104991011011008001031001KA1240N+02091MA1999999096721MD1999999+0101REMSYN017 333 20209 58010;
0115827840999991994050100004-07317-039300FM-12+040999999V0200901N00311012001CN9999999N9+02601+01841101351ADDAA106000091AG10000GF107991071081008001001001KA1240M+03191MA1999999096701MD1999999+0021REMSYN017 333 10319 58002;
0115827840999991994050112004-07317-039300FM-12+040999999V0200901N00151220001CN0200001N9+02681+02061101491ADDAA106000091AG10000GF103991031021008001001001KA1240N+02101MA1999999096831MD1999999+0061REMSYN017 333 20210 58006;
0096827840999991994050118004-07317-039300FM-12+040999999V0200501N00211012001CN0200001N9+02901+02151101131ADDAA106000091AG10000GF107991061021012501031001MA1999999096471MD1999999+0121REMSYN011 333 58012;
0115827840999991994050212004-07317-039300FM-12+040999999V0201401N00261220001CN0200001N9+02541+01981101621ADDAA106000091AG10000GF102991021021008001001001KA1240N+02241MA1999999096941MD1999999+0111REMSYN017 333 20224 58011;
0143827840999991994050312004-07317-039300FM-12+040999999V0200901N00461220001CN0200001N9+02661+01491101441ADDAA106000091AG10000GF102991021051017501071001KA1240N+02091MA1999999096771MD1999999-0171ME1104409REMSYN017 333 20209 59017;EQDQ01+999990APOSLP
0062827840999991994050412004-07317-039300FM-12+040999999V0201401N001519999999N0200001N1+02581+02101101491ADDAA106000091AG10000GF108991999999008001999999MA1999999096781
0124827840999991994050418004-07317-039300FM-12+040999999V0200501N00261012001CN0040001N1+02721+02081101091ADDAA106001091AG10005AY161061AY221061GF108991081081008001999999MA1999999096441MD1999999+0101MW1021REMSYN017 333 58010 60011;
0171827840999991994050512004-07317-039300FM-12+040999999V0200501N00151012001CN0200001N1+02571+02081101491ADDAA124006091AG10005AY161061AY221061GA1041+000159019GF107991071081008001001001KA1240N+02171MA1999999096811MD1999999+0031MW1021REMSYN035 333 20217 58003 60064 84100 83579;
0096827840999991994050618004-07317-039300FM-12+040999999V0200901N00311220001CN0200001N1+03031+01861101061ADDAA106000091AG10000GF103991031021008001001001MA1999999096421MD1999999-0061REMSYN011 333 59006;
0115827840999991994051012004-07317-039300FM-12+040999999V0200901N00211012001CN0200001N1+02651+02001101561ADDAA106000091AG10000GF108991081081008001999999KA1240N+02171MA1999999096851MD1999999+0061REMSYN017 333 20217 58006;
0137827840999991994051112004-07317-039300FM-12+040999999V0200901N00211007501CN0200001N1+02481+02091101511ADDAA106000091AG10000GA1021+000759029GF108991081071008001999999KA1240N+02251MA1999999096841MD1999999-0011REMSYN023 333 20225 59001 82791;
0150827840999991994051200004-07317-039300FM-12+040999999V0201401N00051220001CN9999999N9+02241+01781101301ADDAA106000091AG10000GA1001+999999999GF100991001001999999001001KA1240M+02811MA1999999096621MD1999999-0041REMSYN017 333 10281 59004;EQDQ01+000002VOVAR 
0121827840999991994051212004-07317-039300FM-12+040999999V0201401N00151007501CN0200001N1+02401+01991101521ADDAA124000591AG10000GF108991081051008001999999KA1240N+01841MA1999999096831MD1999999-0011REMSYN023 333 20184 59001 69944;
0096827840999991994051218004-07317-039300FM-12+040999999V0200901N00101012001CN0200001N1+02821+02071101171ADDAA106000091AG10000GF108991081081008001999999MA1999999096571MD1999999+0071REMSYN011 333 58007;
0115827840999991994051312004-07317-039300FM-12+040999999V0201401N00261220001CN0200001N1+02621+01931101411ADDAA106000091AG10000GF104991021021008001071001KA1240N+02121MA1999999096731MD1999999-0101REMSYN017 333 20212 59010;
0115827840999991994051412004-07317-039300FM-12+040999999V0200901N00261220001CN0200001N1+02681+01861101331ADDAA106000091AG10000GF101991011011008001001001KA1240N+01941MA1999999096661MD1999999-0071REMSYN017 333 20194 59007;
0143827840999991994051512004-07317-039300FM-12+040999999V0200501N00151007501CN0020001N1+02241+02101101541ADDAA124009091AG10005AY161061AY221061GF108991081071008001999999KA1240N+02191MA1999999096851MD1999999+0191MW1601REMSYN023 333 20219 58019 60094;
0115827840999991994051812004-07317-039300FM-12+040999999V0200901N00261045001CN0200001N1+02641+01901101481ADDAA106000091AG10000GF106991021021008001031001KA1240N+02071MA1999999096801MD1999999+0031REMSYN017 333 20207 58003;
0115827840999991994051912004-07317-039300FM-12+040999999V0200501N00261220001CN0200001N1+02701+01661101471ADDAA106000091AG10000GF102991011011008001071001KA1240N+01841MA1999999096791MD1999999-0011REMSYN017 333 20184 59001;
0096827840999991994051918004-07317-039300FM-12+040999999V0200501N00211220001CN0200001N1+02981+01661101051ADDAA106000091AG10000GF102991011011008001031001MA1999999096391MD1999999-0071REMSYN011 333 59007;
0115827840999991994052012004-07317-039300FM-12+040999999V0201401N00211012001CN0200001N1+02551+02041101441ADDAA106000091AG10000GF108991051081008001061999KA1240N+02021MA1999999096761MD1999999-0031REMSYN017 333 20202 59003;
0115827840999991994052112004-07317-039300FM-12+040999999V0201401N00101012001CN0200001N1+02521+02071101581ADDAA106000091AG10000GF108991081081008001999999KA1240N+02221MA1999999096891MD1999999+0131REMSYN017 333 20222 58013;
0121827840999991994052212004-07317-039300FM-12+040999999V0200501N00211007501CN0200001N1+02701+02131101471ADDAA124001091AG10000GF105991051021008001001001KA1240N+02161MA1999999096801MD1999999-0091REMSYN023 333 20216 59009 60014;
0143827840999991994052312004-07317-039300FM-12+040999999V0200501N00211220001CN0200001N1+02561+01991101491ADDAA124002091AG10005AY161061AY211061GF103991011011008001031001KA1240N+02001MA1999999096821MD1999999+0021MW1021REMSYN023 333 20200 58002 60024;
0115827840999991994052512004-07317-039300FM-12+040999999V0200901N00261220001CN0200001N1+02631+01981101451ADDAA106000091AG10000GF101991011011008001001001KA1240N+01701MA1999999099671MD1999999-0021REMSYN017 333 20170 59002;
0115827840999991994052612004-07317-039300FM-12+040999999V0201401N00101045001CN0200001N1+02531+02051101361ADDAA106000091AG10000GF106991041081008001061001KA1240N+01901MA1999999096671MD1999999-0091REMSYN017 333 20190 59009;
0134827840999991994052900004-07317-039300FM-12+040999999V0209991C00001220001CN9999999N9+02311+02141101231ADDAA106000091AG10000GF102991021051008001001001KA1240M+03031MA1999999096561MD1999999+0051REMSYN017 333 10303 58005;EQDQ01+000002VOVAR 
0143827840999991994052912004-07317-039300FM-12+040999999V0203601N00151045001CN0200001N1+02561+02151101361ADDAA124008091AG10005AY161061AY211061GF105991041021008001031001KA1240N+02101MA1999999096691MD1999999-0011MW1021REMSYN023 333 20210 59001 60084;
0115827840999991994053012004-07317-039300FM-12+040999999V0200501N00311045001CN0200001N1+02641+02001101391ADDAA106000091AG10000GF105991041021008001031001KA1240N+02001MA1999999096721MD1999999+0031REMSYN017 333 20200 58003;
0096827840999991994053018004-07317-039300FM-12+040999999V0200901N00211220001CN0200001N1+03001+01881100981ADDAA106000091AG10000GF102991021021008001001001MA1999999096331MD1999999-0031REMSYN011 333 59003;
0115827840999991994053112004-07317-039300FM-12+040999999V0200901N00311045001CN0200001N1+02561+01801101501ADDAA106000091AG10000GF106991021021008001011001KA1240N+02161MA1999999096821MD1999999+0101REMSYN017 333 20216 58010;
0150827840999991994060100004-07317-039300FM-12+040999999V0201801N00051220001CN9999999N9+02021+01871101381ADDAA106000091AG10000GA1001+999999999GF100991001001999999001001KA1240M+02951MA1999999096691MD1999999+0051REMSYN017 333 10295 58005;EQDQ01+000002VOVAR 
0115827840999991994060112004-07317-039300FM-12+040999999V0200501N00211220001CN0200001N1+02691+01991101481ADDAA106000091AG10000GF103991031021008001001001KA1240N+01961MA1999999096791MD1999999+0101REMSYN017 333 20196 58010;
0143827840999991994060212004-07317-039300FM-12+040999999V0200501N00261012001CN0200001N1+02541+02111101541ADDAA124028091AG10004AY161061AY221061GF107991051081008001031001KA1240N+02101MA1999999096851MD1999999+0061MW1021REMSYN023 333 20210 58006 60284;
0096827840999991994060218004-07317-039300FM-12+040999999V0201401N00151015001CN0200001N1+02801+02151101131ADDAA106000091AG10000GF106991061081012501001001MA1999999096471MD1999999-0041REMSYN011 333 59004;
0143827840999991994060312004-07317-039300FM-12+040999999V0200901N00101007501CN0020001N1+02421+02131101511ADDAA124002091AG10000AY111061AY211061GF107991071061008001001001KA1240N+02221MA1999999096821MD1999999-0031MW1801REMSYN023 333 20222 59003 60024;
0143827840999991994060412004-07317-039300FM-12+040999999V0203601N00101007501CN0200001N1+02311+02071101691ADDAA124006091AG10004AY161061AY221061GF108991081061008001999999KA1240N+02061MA1999999096991MD1999999+0171MW1021REMSYN023 333 20206 58017 60064;
0143827840999991994060512004-07317-039300FM-12+040999999V0200901N00211007501CN0200001N1+02421+02011101691ADDAA124002091AG10000AY151061AY221061GF108991081071008001999999KA1240N+02171MA1999999096991MD1999999+0001MW1021REMSYN023 333 20217 58000 60024;
0118827840999991994060618004-07317-039300FM-12+040999999V0201401N00211999999CN0020001N1+02521+02071101311ADDAA106000091AG10000AY121061AY221061GF108991999999008001999999MA1999999096141MD1999999+0121MW1161REMSYN011 333 58012;
0096827840999991994060718004-07317-039300FM-12+040999999V0200901N00211220001CN0200001N1+02811+01901101411ADDAA106000091AG10000GF103991031021008001001001MA1999999096741MD1999999+0101REMSYN011 333 58010;
0150827840999991994060800004-07317-039300FM-12+040999999V0209991C00001220001CN9999999N9+02041+01891101681ADDAA106000091AG10000GA1001+999999999GF100991001001999999001001KA1240M+03021MA1999999096981MD1999999+0091REMSYN017 333 10302 58009;EQDQ01+000002VOVAR 
0115827840999991994060812004-07317-039300FM-12+040999999V0200901N00261220001CN0200001N1+02591+01941101781ADDAA106000091AG10000GF102991021021008001001001KA1240N+01931MA1999999097071MD1999999-0041REMSYN017 333 20193 59004;
0134827840999991994061000004-07317-039300FM-12+040999999V0201801N00051007501CN9999999N9+02141+01971101591ADDAA106000091AG10000GF107991071021008001001001KA1240M+03051MA1999999096901MD1999999-0071REMSYN017 333 10305 59007;EQDQ01+000002VOVAR 
0115827840999991994061012004-07317-039300FM-12+040999999V0201401N00311012001CN0200001N1+02521+02021101761ADDAA106000091AG10000GF106991061081008001001001KA1240N+02141MA1999999097061MD1999999+0001REMSYN017 333 20214 58000;
0124827840999991994061018004-07317-039300FM-12+040999999V0209991C00001999999CN0200001N1+02661+02221101341ADDAA106001091AG10004AY161061AY221061GF108991081999008001999999MA1999999096671MD1999999+0021MW1021REMSYN017 333 58002 60011;
0121827840999991994061112004-07317-039300FM-12+040999999V0201401N00361012001CN0200001N1+02471+01921101601ADDAA124001091AG10000GF108991081081008001999999KA1240N+02181MA1999999096921MD1999999-0141REMSYN023 333 20218 59014 60014;
0162827840999991994061200004-07317-039300FM-12+040999999V0209991C00001012001CN9999999N9+02221+02081101481ADDAA106001091AG10004AY161061AY221061GF107991071081008001001001KA1240M+02871MA1999999096791MD1999999-0161MW1021REMSYN023 333 10287 59016 69991;EQDQ01+000002VOVAR 
0121827840999991994061212004-07317-039300FM-12+040999999V0200901N00211220001CN0200001N1+02541+99999101491ADDAA124001091AG10000GF101991011021008001001001KA1240N+02141MA1999999096811MD1999999-0111REMSYN023 333 20214 59011 69994;
0115827840999991994061412004-07317-039300FM-12+040999999V0201401N00211220001CN0200001N1+02541+01861101571ADDAA106000091AG10000GF102991021021008001001001KA1240N+02121MA1999999096891MD1999999+0091REMSYN017 333 20212 58009;
0150827840999991994061600004-07317-039300FM-12+040999999V0209991C00001220001CN9999999N9+02011+01701101591ADDAA106000091AG10000GA1001+999999999GF100991001001999999001001KA1240M+03071MA1999999096891MD1999999-0021REMSYN017 333 10307 59002;EQDQ01+000002VOVAR 
0121827840999991994061812004-07317-039300FM-12+040999999V0201401N00261007501CN0200001N1+02511+01841101471ADDAA124000591AG10000GF105991051021008001001001KA1240N+02001MA1999999096791MD1999999-0061REMSYN023 333 20200 59006 69944;
0134827840999991994061900004-07317-039300FM-12+040999999V0201801N00051007501CN9999999N9+02341+02071101341ADDAA106000091AG10000GF108991081071008001999999KA1240M+02941MA1999999096671MD1999999-0131REMSYN017 333 10294 59013;EQDQ01+000002VOVAR 
0115827840999991994061912004-07317-039300FM-12+040999999V0200901N00211012001CN0200001N1+02681+02041101481ADDAA106000091AG10000GF108991081081008001999999KA1240N+02161MA1999999096811MD1999999+0021REMSYN017 333 20216 58002;
0096827840999991994061918004-07317-039300FM-12+040999999V0200901N00311220001CN0200001N1+02921+01921101031ADDAA106000091AG10000GF103991031021012501001001MA1999999096391MD1999999-0091REMSYN011 333 59009;
0153827840999991994062112004-07317-039300FM-12+040999999V0201401N00261220001CN0200001N9+02541+01931101461ADDAA124000691AA299000591AG10000AY151061AY211061GF102991011021008001031001KA1240N+02201MA1999999096781MD1999999+0011MW1011REMSYN022 333 20220 58001 69964
0115827840999991994062212004-07317-039300FM-12+040999999V0200501N00211220001CN0200001N1+02641+02001101431ADDAA106000091AG10000GF103991021021008001031001KA1240N+01801MA1999999096741MD1999999-0041REMSYN017 333 20180 59004;
0134827840999991994062300004-07317-039300FM-12+040999999V0200901N00151007501CN9999999N9+02281+02011101431ADDAA106000091AG10000GF108991081071008001999999KA1240M+02931MA1999999096751MD1999999+0091REMSYN017 333 10293 58009;EQDQ01+000002VOVAR 
0115827840999991994062312004-07317-039300FM-12+040999999V0200901N00211012001CN0200001N1+02601+01921101511ADDAA106000091AG10000GF107991051081008001061001KA1240N+02121MA1999999096831MD1999999+0091REMSYN017 333 20212 58009;
0115827840999991994062412004-07317-039300FM-12+040999999V0203601N00211012001CN0200001N1+02421+02031101431ADDAA106000091AG10000GF107991071081008001001001KA1240N+01961MA1999999096741MD1999999-0091REMSYN017 333 20196 59009;
0143827840999991994062612004-07317-039300FM-12+040999999V0202701N00051007501CN0200001N1+02341+02001101511ADDAA124024091AG10004AY161061AY211061GF108991081071008001999999KA1240N+01941MA1999999096811MD1999999+0061MW1021REMSYN023 333 20194 58006 60244;
0124827840999991994062618004-07317-039300FM-12+040999999V0201401N00101007501CN0200001N1+02321+02241101271ADDAA106027091AG10004AY161061AY221061GF108991081071008001999999MA1999999096541MD1999999+0201MW1021REMSYN017 333 58020 60271;
0121827840999991994062712004-07317-039300FM-12+040999999V0200901N00051012001CN0200001N1+02431+02151101571ADDAA124027091AG10000GF108991061081008001031999KA1240N+02131MA1999999096871MD1999999+0061REMSYN023 333 20213 58006 60274;
0121827840999991994062912004-07317-039300FM-12+040999999V0200901N00311220001CN0200001N1+02521+01741101621ADDAA124011091AG10000GF102991011021008001031001KA1240N+02161MA1999999096931MD1999999+0081REMSYN023 333 20216 58008 60114;
0096827840999991994062918004-07317-039300FM-12+040999999V0200901N00311012001CN0200001N1+02741+01671101291ADDAA106000091AG10000GF106991061081008001001001MA1999999096631MD1999999+0071REMSYN011 333 58007;
0096827840999991994063018004-07317-039300FM-12+040999999V0200901N00361012001CN0200001N1+02921+01711101221ADDAA106000091AG10000GF106991061021012501001001MA1999999096561MD1999999-0071REMSYN011 333 59007;
0096827840999991994070118004-07317-039300FM-12+040999999V0201401N00211007501CN0200001N1+02421+02011101501ADDAA106000091AG10000GF108991081071008001999999MA1999999096511MD1999999-0051REMSYN011 333 59005;
0131827840999991994070312004-07317-039300FM-12+040999999V0200901N00261220001CN0200001N1+02461+01711101561ADDAA106000091AG10000GA1001+999999999GF100991001001999999001001KA1240N+02001MA1999999096871MD1999999-0011REMSYN017 333 20200 59001;
0096827840999991994070318004-07317-039300FM-12+040999999V0200901N00211015001CN0200001N1+02841+01671101251ADDAA106000091AG10000GF108991081081012501999999MA1999999096581MD1999999+0041REMSYN011 333 58004;
0150827840999991994070400004-07317-039300FM-12+040999999V0209991C00001220001CN9999999N9+02101+01801101441ADDAA106000091AG10000GA1001+999999999GF100991001001999999001001KA1240M+02931MA1999999096751MD1999999+0001REMSYN017 333 10293 58000;EQDQ01+000002VOVAR 
0131827840999991994070412004-07317-039300FM-12+040999999V0200901N00211220001CN0200001N1+02571+01801101561ADDAA106000091AG10000GA1001+999999999GF100991001001999999001001KA1240N+02021MA1999999096871MD1999999+0001REMSYN017 333 20202 58000;
0096827840999991994070418004-07317-039300FM-12+040999999V0200901N00261012001CN0200001N1+02931+01771101201ADDAA106000091AG10000GF107991071021012501001001MA1999999096541MD1999999-0041REMSYN011 333 59004;
0115827840999991994070512004-07317-039300FM-12+040999999V0200901N00311220001CN0200001N1+02461+01521101621ADDAA106000091AG10000GF102991021021008001001001KA1240N+02031MA1999999096941MD1999999-0071REMSYN017 333 20203 59007;
0096827840999991994070518004-07317-039300FM-12+040999999V0201401N00151220001CN0200001N1+02841+01441101141ADDAA106000091AG10000GF101991011011012501001001MA1999999096481MD1999999-0061REMSYN011 333 59006;
0131827840999991994070600004-07317-039300FM-12+040999999V0201401N00051220001CN9999999N9+01861+01411101431ADDAA106000091AG10000GA1001+999999999GF100991001001999999001001MA1999999096721MD1999999-0091REMSYN011 333 59009;EQDQ01+000002VOVAR 
0115827840999991994070612004-07317-039300FM-12+040999999V0200901N00311220001CN0200001N1+02481+01801101501ADDAA106000091AG10000GF103991031021008001001001KA1240N+01721MA1999999096791MD1999999-0151REMSYN017 333 20172 59015;
0096827840999991994070618004-07317-039300FM-12+040999999V0200901N00261220001CN0200001N1+02811+01561101101ADDAA106000091AG10000GF103991031021012501001001MA1999999096441MD1999999-0041REMSYN011 333 59004;
0148827840999991994070712004-07317-039300FM-12+040999999V0200901N00361220001CN0200001N1+02521+01771101561ADDAA106000091AA224004091AG10000GA1001+999999999GF100991001001999999001001KA1240N+01851MA1999999096881MD1999999+0091REMSYN023 333 20185 58009 60044;
0096827840999991994070718004-07317-039300FM-12+040999999V0200901N00211220001CN0200001N1+02981+01761101171ADDAA106000091AG10000GF102991021021012501001001MA1999999096511MD1999999-0071REMSYN011 333 59007;
0143827840999991994070912004-07317-039300FM-12+040999999V0200901N00261220001CN0200001N1+02621+01641101691ADDAA199000591AG10000AY151061AY211061GF102991021081008001001001KA1240N+02151MA1999999096991MD1999999-0021MW1011REMSYN023 333 20215 59002 69940;
0131827840999991994071012004-07317-039300FM-12+040999999V0203601N00151220001CN0200001N1+02541+01761101711ADDAA106000091AG10000GA1001+999999999GF100991001001999999001001KA1240N+01731MA1999999097011MD1999999+0021REMSYN017 333 20173 58002;
0131827840999991994071018004-07317-039300FM-12+040999999V0201401N00261220001CN0200001N1+03211+01421101341ADDAA106000091AG10000GA1001+999999999GF100991001001999999001001MA1999999099692MD1999999+0051REMSYN011 333 58005;EQDQ01+099693APOSP 
0115827840999991994071112004-07317-039300FM-12+040999999V0200901N00261012001CN0200001N1+02341+01641102031ADDAA106000091AG10000GF108991081081008001999999KA1240N+01801MA1999999097321MD1999999+0311REMSYN017 333 20180 58031;
0096827840999991994071118004-07317-039300FM-12+040999999V0200901N00261012001CN0200001N1+02581+01741101711ADDAA106000091AG10000GF108991081081008001999999MA1999999097011MD1999999+0321REMSYN011 333 58032;
0115827840999991994071212004-07317-039300FM-12+040999999V0200501N00211012001CN0200001N1+02401+01821101871ADDAA106000091AG10000GF108991081081008001999999KA1240N+02021MA1999999097161MD1999999-0161REMSYN017 333 20202 59016;
0096827840999991994071218004-07317-039300FM-12+040999999V0200901N00261015001CN0200001N1+02721+01791101521ADDAA106000091AG10000GF108991081081012501999999MA1999999096841MD1999999-0171REMSYN011 333 59017;
0096827840999991994071318004-07317-039300FM-12+040999999V0200901N00261012001CN0200001N1+02901+01551101291ADDAA106000091AG10000GF106991061021012501001001MA1999999096631MD1999999-0211REMSYN011 333 59021;
0150827840999991994071400004-07317-039300FM-12+040999999V0201401N00101220001CN9999999N9+02101+01461101831ADDAA106000091AG10000GA1001+999999999GF100991001001999999001001KA1240M+02991MA1999999097121MD1999999+0071REMSYN017 333 10299 58007;EQDQ01+000002VOVAR 
0115827840999991994071412004-07317-039300FM-12+040999999V0200901N00211007501CN0200001N1+02421+01621101811ADDAA106000091AG10000GF108991081021008001999999KA1240N+02251MA1999999097101MD1999999-0031REMSYN017 333 20225 59003;
0150827840999991994071500004-07317-039300FM-12+040999999V0200901N00101007501CN9999999N9+02271+01841101721ADDAA106000091AG10000GF107991071021008001001001KA1240M+02851MA1999999999999MD1999999-0101REMSYN017 333 10285 59010;EQDQ01+000002VOVAR Q02 090023APOSP 
0115827840999991994071512004-07317-039300FM-12+040999999V0200901N00311007501CN0200001N1+02281+01771101831ADDAA106000091AG10000GF107991071021008001001001KA1240N+01941MA1999999097121MD1999999-0021REMSYN017 333 20194 59002;
0115827840999991994071612004-07317-039300FM-12+040999999V0200901N00311007501CN0200001N1+02491+01781091771ADDAA106000091AG10000GF107991071021008001001001KA1240N+02161MA1999999097081MD1999999-0041REMSYN017 333 20216 59004;
0115827840999991994071618004-07317-039300FM-12+040999999V0200901N00261015001CN0200001N1+02581+01851101512ADDAA106000091AG10000GF108991081081012501999999MA1999999096831MD1999999+0071REMSYN011 333 58007;EQDQ01+101513APOSLP
0115827840999991994071712004-07317-039300FM-12+040999999V0201401N00311007501CN0200001N1+02461+01711101791ADDAA106000091AG10000GF108991081021008001999999KA1240N+02071MA1999999097051MD1999999+0011REMSYN017 333 20207 58001;
0115827840999991994071812004-07317-039300FM-12+040999999V0200901N00311012001CN0200001N1+02401+01751101821ADDAA106000091AG10000GF108991081081008001999999KA1240N+02081MA1999999097051MD1999999-0041REMSYN017 333 20208 59004;
0115827840999991994071912004-07317-039300FM-12+040999999V0200901N00211012001CN0200001N1+02411+01891101771ADDAA106000091AG10000GF108991081081008001999999KA1240N+02001MA1999999097051MD1999999+0001REMSYN017 333 20200 58000;
0096827840999991994071918004-07317-039300FM-12+040999999V0200501N00211012001CN0200001N1+02881+01701101301ADDAA106000091AG10000GF108991081081008001999999MA1999999096641MD1999999-0051REMSYN011 333 59005;
0115827840999991994072012004-07317-039300FM-12+040999999V0200901N00311007501CN0200001N1+02501+01841101741ADDAA106000091AG10000GF106991061021008001001001KA1240N+01911MA1999999097051MD1999999+0001REMSYN017 333 20191 58000;
0096827840999991994072018004-07317-039300FM-12+040999999V0200901N00311012001CN0200001N1+02941+01551101181ADDAA106000091AG10000GF106991061021012501001001MA1999999096531MD1999999-0111REMSYN011 333 59011;
0096827840999991994072118004-07317-039300FM-12+040999999V0200901N00261220001CN0200001N1+03061+01251101151ADDAA106000091AG10000GF104991041021012501001001MA1999999096501MD1999999-0031REMSYN011 333 59003;
0150827840999991994072200004-07317-039300FM-12+040999999V0209991C00101220001CN9999999N9+01941+01511101501ADDAA106000091AG10000GA1001+999999999GF100991001001999999001001KA1240M+03111MA1999999096801MD1999999-0101REMSYN017 333 10311 59010;EQDQ01+000002VOVAR 
0115827840999991994072212004-07317-039300FM-12+040999999V0200901N00261007501CN0200001N1+02561+01731101711ADDAA106000091AG10000GF108991081021008001999999KA1240N+01901MA1999999097001MD1999999+0021REMSYN017 333 20190 58002;
0150827840999991994072300004-07317-039300FM-12+040999999V0200901N00051220001CN9999999N9+01931+01621101601ADDAA106000091AG10000GA1001+999999999GF100991001001999999001001KA1240M+02881MA1999999096901MD1999999+0101REMSYN017 333 10288 58010;EQDQ01+000002VOVAR 
0115827840999991994072312004-07317-039300FM-12+040999999V0200901N00261012001CN0200001N1+02631+01761101661ADDAA106000091AG10000GF108991081081008001999999KA1240N+01751MA1999999096961MD1999999-0041REMSYN017 333 20175 59004;
0115827840999991994072318004-07317-039300FM-12+040999999V0200901N00151012001CN0200001N1+02891+01861101371ADDAA106000091AG10000GF108991081021012501999999MA1999999099682MD1999999-0051REMSYN011 333 59005;EQDQ01+099683APOSP 
0127827840999991994072412004-07317-039300FM-12+040999999V0200901N00311220001CN0200001N1+02621+01881101591ADDAA124000591AG10000GF101991011011008001001001KA1240N+02221MA1999999096911MD1999999-0051REMSYN029 333 20222 59005 69954 00903;
0096827840999991994072518004-07317-039300FM-12+040999999V0200901N00211220001CN0200001N1+03141+01361101121ADDAA106000091AG10000GF101991011011012501001001MA1999999096471MD1999999-0031REMSYN011 333 59003;
0081827840999991994072612004-07317-039300FM-12+040999999V0201401N00311220001CN0200001N1+02421+01571101711ADDAA106000091AG10000GF103991031021999999001001MA1999999097021EQDQ01+000992SCOLCB
0134827840999991994072700004-07317-039300FM-12+040999999V0200901N00051220001CN9999999N9+02251+01641101541ADDAA106000091AG10000GF102991021081008001001001KA1240M+03161MA1999999096851MD1999999+0081REMSYN017 333 10316 58008;EQDQ01+000002VOVAR 
0131827840999991994072712004-07317-039300FM-12+040999999V0200901N00211220001CN0200001N1+02641+01581101681ADDAA106000091AG10000GA1001+999999999GF100991001001999999001001KA1240N+02241MA1999999096991MD1999999-0031REMSYN017 333 20224 59003;
0134827840999991994072812004-07317-039300FM-12+040999999V0200901N00311012001CN0200001N1+02641+01901101671ADDAA106000091AG10000GF108991999081008001001001KA1240N+02021MA1999999096921MD1999999-0071REMSYN017 333 20202 59007;EQDQ01+000072SCOTLC
0096827840999991994072818004-07317-039300FM-12+040999999V0201401N00261012001CN0200001N1+03001+01811101321ADDAA106000091AG10000GF106991061021012501001001MA1999999096661MD1999999+0071REMSYN011 333 58007;
0115827840999991994072912004-07317-039300FM-12+040999999V0200901N00311007501CN0200001N1+02381+01731101811ADDAA106000091AG10000GF108991081021008001999999KA1240N+01981MA1999999097111MD1999999+0191REMSYN017 333 20198 58019;
0131827840999991994072918004-07317-039300FM-12+040999999V0200901N99999220001CN0200001N1+03061+01341101301ADDAA106000091AG10000GF102991021021012501001001MA1999999096641MD1999999-0021REMSYN011 333 59002;EQDQ01+005043WOSPD Q020005043WOSPD 
0150827840999991994073000004-07317-039300FM-12+040999999V0200901N00211220001CN9999999N9+02291+01661101671ADDAA106000091AG10000GA1001+999999999GF100991001001999999001001KA1240M+03111MA1999999096971MD1999999-0011REMSYN017 333 10311 59001;EQDQ01+000002VOVAR 
0115827840999991994073012004-07317-039300FM-12+040999999V0200901N00311007501CN0200001N1+02521+01661101781ADDAA106000091AG10000GF106991061021008001001001KA1240N+01981MA1999999097081MD1999999-0031REMSYN017 333 20198 59003;
0115827840999991994073018004-07317-039300FM-12+040999999V0201401N001519999999N0200001N1+03031+01391101331ADDAA106000091AG10000GF106991999001012501001001MA1999999096661MD1999999+0021REMSYN011 333 58002;EQDQ01+000022SCOTLC
0115827840999991994073112004-07317-039300FM-12+040999999V0200901N00311007501CN0200001N1+02461+01781101781ADDAA106000091AG10000GF108991081021008001999999KA1240N+01921MA1999999097081MD1999999+0001REMSYN017 333 20192 58000;
0150827840999991994080100004-07317-039300FM-12+040999999V0200901N00211220001CN9999999N9+02151+01701101721ADDAA106000091AG10000GA1001+999999999GF100991001001999999001001KA1240M+03051MA1999999097021MD1999999+0051REMSYN017 333 10305 58005;EQDQ01+000002VOVAR 
0115827840999991994080112004-07317-039300FM-12+040999999V0200501N00101220001CN0200001N1+02531+01401101771ADDAA106000091AG10000GF101991011001017501031001KA1240N+02001MA1999999097071MD1999999-0011REMSYN017 333 20200 59001;
0131827840999991994080212004-07317-039300FM-12+040999999V0201401N00211220001CN0200001N1+02601+01411101771ADDAA106000091AG10000GA1001+999999999GF100991001001999999001001KA1240N+01681MA1999999097081MD1999999+0011REMSYN017 333 20168 58001;
0096827840999991994080218004-07317-039300FM-12+040999999V0201401N00261220001CN0200001N1+03171+01291101231ADDAA106000091AG10000GF101991011011008001001001MA1999999096581MD1999999-0041REMSYN011 333 59004;
0131827840999991994080312004-07317-039300FM-12+040999999V0200501N00101220001CN0200001N1+02521+01611101721ADDAA106000091AG10000GA1001+999999999GF100991001001999999001001KA1240N+01681MA1999999097031MD1999999-0051REMSYN017 333 20168 59005;
0150827840999991994080400004-07317-039300FM-12+040999999V0201401N00461220001CN9999999N9+02501+01481101471ADDAA106000091AG10000GA1001+999999999GF100991001001999999001001KA1240M+03311MA1999999096801MD1999999-0021REMSYN017 333 10331 59002;EQDQ01+000002VOVAR 
0115827840999991994080412004-07317-039300FM-12+040999999V0200501N00151220001CN0200001N1+02571+01781101711ADDAA106000091AG10000GF102991021061008001001001KA1240N+01661MA1999999097031MD1999999+0001REMSYN017 333 20166 58000;
0115827840999991994080812004-07317-039300FM-12+040999999V0201401N00311220001CN0200001N1+02481+01601101591ADDAA106000091AG10000GF101991011011008001001001KA1240N+01881MA1999999096911MD1999999-0011REMSYN017 333 20188 59001;
0150827840999991994081100004-07317-039300FM-12+040999999V0201401N00261220001CN9999999N9+02451+01611101581ADDAA106000091AG10000GA1001+999999999GF100991001001999999001001KA1240M+03191MA1999999096901MD1999999+0001REMSYN017 333 10319 58000;EQDQ01+000002VOVAR 
0131827840999991994081112004-07317-039300FM-12+040999999V0200501N00151220001CN0200001N1+02561+01751101601ADDAA106000091AG10000GA1001+999999999GF100991001001999999001001KA1240N+01961MA1999999096921MD1999999-0151REMSYN017 333 20196 59015;
0096827840999991994081118004-07317-039300FM-12+040999999V0200901N00151220001CN0200001N1+03171+01241101121ADDAA106000091AG10000GF102991021021012501001001MA1999999096471MD1999999-0161REMSYN011 333 59016;
0115827840999991994081212004-07317-039300FM-12+040999999V0201401N00261007501CN0200001N1+02381+01661101711ADDAA106000091AG10000GF108991081051008001999999KA1240N+01971MA1999999097021MD1999999+0101REMSYN017 333 20197 58010;
0115827840999991994081312004-07317-039300FM-12+040999999V0200901N00511220001CN0200001N1+02551+01541101831ADDAA106000091AG10000GF103991031021008001001001KA1240N+02061MA1999999097141MD1999999+0121REMSYN017 333 20206 58012;
0134827840999991994081412004-07317-039300FM-12+040999999V0200901N05042007501CN0200001N1+02431+01621101841ADDAA106000091AG10000GF106991061021008001001001KA1240N+02001MA1999999097141MD1999999+0001REMSYN017 333 20200 58000;EQDQ01+005043WOSPD 
0115827840999991994081512004-07317-039300FM-12+040999999V0200901N00461220001CN0200001N1+02431+01461101771ADDAA106000091AG10000GF102991021021008001001001KA1240N+01981MA1999999097071MD1999999-0071REMSYN017 333 20198 59007;
0115827840999991994081912004-07317-039300FM-12+040999999V0200901N00311012001CN0200001N1+02401+01701101831ADDAA106000091AG10000GF108991081081008001999999KA1240N+02151MA1999999097131MD1999999-0011REMSYN017 333 20215 59001;
0096827840999991994082118004-07317-039300FM-12+040999999V0201401N00511012001CN0001001N1+03121+01301101131ADDAA106000091AG10000GF106991061021012501001001MA1999999096491MD1999999-0201REMSYN011 333 59020;
0104827840999991994082200004-07317-039300FM-12+040999999V0209999999999220001CN0500001N1+02451+01561101451ADDAG10000GF103991999999017501999999KA1240M+03171MA1999999096771MD1999999-0101REMSYN017 333 10317 59010;
0101827840999991994082212004-07317-039300FM-12+040999999V0200901N00361220001CN0200001N1+02601+01631101561ADDAA106000091AG10000GF101991011011008001001001KA1240N+01781MA1999999096891REMSYN017 333 20178 69010;
0150827840999991994082300004-07317-039300FM-12+040999999V0201401N00311220001CN9999999N9+02581+01461101361ADDAA106000091AG10000GA1001+999999999GF100991001001999999001001KA1240M+03391MA1999999096701MD1999999-0071REMSYN017 333 10339 59007;EQDQ01+000002VOVAR 
0131827840999991994082312004-07317-039300FM-12+040999999V0200901N00461220001CN0200001N1+02741+01371101521ADDAA106000091AG10000GA1001+999999999GF100991001001999999001001KA1240N+01851MA1999999096861MD1999999-0031REMSYN017 333 20185 59003;
0096827840999991994082718004-07317-039300FM-12+040999999V0201401N00211220001CN0200001N1+03271+01331101161ADDAA106000091AG10000GF102991021011008001001001MA1999999096521MD1999999+0021REMSYN011 333 58002;
0150827840999991994082800004-07317-039300FM-12+040999999V0201401N00101220001CN9999999N9+02561+01621101441ADDAA106000091AG10000GA1001+999999999GF100991001001999999001001KA1240M+03411MA1999999096781MD1999999+0021REMSYN017 333 10341 58002;EQDQ01+000002VOVAR 
0115827840999991994082812004-07317-039300FM-12+040999999V0200901N00151007501CN0200001N1+02651+01831101671ADDAA106000091AG10000GF107991071021008001001001KA1240N+02141MA1999999097001MD1999999+0041REMSYN017 333 20214 58004;
0115827840999991994082912004-07317-039300FM-12+040999999V0200901N00461012001CN0200001N1+02521+01691101681ADDAA106000091AG10000GF106991061081008001001001KA1240N+02241MA1999999097011MD1999999+0011REMSYN017 333 20224 58001;
0115827840999991994083012004-07317-039300FM-12+040999999V0200901N00151012001CN0200001N1+02461+01681101631ADDAA106000091AG10000GF106991061081008001001001KA1240N+01961MA1999999096951MD1999999-0061REMSYN017 333 20196 59006;
0131827840999991994083112004-07317-039300FM-12+040999999V0201401N00361220001CN0200001N1+02661+01471101631ADDAA106000091AG10000GA1001+999999999GF100991001001999999001001KA1240N+01831MA1999999096961MD1999999+0011REMSYN017 333 20183 58001;
0096827840999991994083118004-07317-039300FM-12+040999999V0201401N00261220001CN0200001N1+99999+99999101021ADDAA106000091AG10000GF101991011011008001001001MA1999999096381MD1999999-0041REMSYN011 333 59004;
0150827840999991994090100004-07317-039300FM-12+040999999V0201401N00311220001CN9999999N9+02671+01301101351ADDAA106000091AG10000GA1001+999999999GF100991001001999999001001KA1240M+03351MA1999999096701MD1999999+0031REMSYN017 333 10335 58003;EQDQ01+000002VOVAR 
0115827840999991994090112004-07317-039300FM-12+040999999V0200901N00411220001CN0200001N1+02671+01681101681ADDAA106000091AG10000GF104991041021008001001001KA1240N+02021MA1999999097011MD1999999+0051REMSYN017 333 20202 58005;
0096827840999991994090118004-07317-039300FM-12+040999999V0200901N00311220001CN0200001N1+03201+00371101091ADDAA106000091AG10000GF103991031021012501001001MA1999999096451MD1999999+0071REMSYN011 333 58007;
0131827840999991994090212004-07317-039300FM-12+040999999V0201401N00211220001CN0200001N1+02611+01541101681ADDAA106000091AG10000GA1001+999999999GF100991001001999999001001KA1240N+01971MA1999999097011MD1999999+0001REMSYN017 333 20197 58000;
0112827840999991994090218004-07317-039300FM-12+040999999V0209999999999220001CN0200001N1+03361+01201101051ADDAA106000091AG10000GA1001+999999999GF100991001001999999001001MA1999999096421MD1999999-0031REMSYN011 333 59003;
0112827840999991994090318004-07317-039300FM-12+040999999V0201401N00361220001CN0200001N1+03321+01111101061ADDAA106000091AG10000GA1001+999999999GF100991001001999999001001MA1999999096441MD1999999+0021REMSYN011 333 58002;
0112827840999991994090418004-07317-039300FM-12+040999999V0201801N00361220001CN0200001N1+03341+01191101141ADDAA106000091AG10000GA1001+999999999GF100991001001999999001001MA1999999096511MD1999999+0071REMSYN011 333 58007;
0115827840999991994090512004-07317-039300FM-12+040999999V0201401N00311220001CN0200001N1+02581+01611101731ADDAA106000091AG10000GF101991011011008001001001KA1240N+01851MA1999999097061MD1999999-0031REMSYN017 333 20185 59003;
0115827840999991994090612004-07317-039300FM-12+040999999V0200901N00311220001CN0200001N1+02611+01571101711ADDAA106000091AG10000GF101991011011008001001001KA1240N+01861MA1999999097041MD1999999-0021REMSYN017 333 20186 59002;
0131827840999991994090712004-07317-039300FM-12+040999999V0201401N00311220001CN0200001N1+02551+01451101591ADDAA106000091AG10000GA1001+999999999GF100991001001999999001001KA1240N+01871MA1999999096921MD1999999-0121REMSYN017 333 20187 59012;
0115827840999991994090812004-07317-039300FM-12+040999999V0200501N00211012001CN0200001N1+02621+01811101571ADDAA106000091AG10000GF108991081081008001999999KA1240N+02301MA1999999096911MD1999999-0011REMSYN017 333 20230 59001;
0096827840999991994090818004-07317-039300FM-12+040999999V0203201N00311220001CN0200001N1+03201+01551101051ADDAA106000091AG10000GF102991021081012501001001MA1999999096421MD1999999+0031REMSYN011 333 58003;
0134827840999991994090900004-07317-039300FM-12+040999999V0202301N00101007501CN9999999N9+02381+01581101371ADDAA106000091AG10000GF106991061021008001001001KA1240M+03251MA1999999096701MD1999999+0061REMSYN017 333 10325 58006;EQDQ01+000002VOVAR 
0115827840999991994090912004-07317-039300FM-12+040999999V0200501N00211007501CN0200001N1+02671+01871101671ADDAA106000091AG10000GF106991061021008001001001KA1240N+02351MA1999999096991MD1999999+0081REMSYN017 333 20235 58008;
0115827840999991994091012004-07317-039300FM-12+040999999V0200901N00261007501CN0200001N1+02661+01771101671ADDAA106000091AG10000GF105991051021008001001001KA1240N+02121MA1999999097001MD1999999+0011REMSYN017 333 20212 58001;
0150827840999991994091100004-07317-039300FM-12+040999999V0200901N00311220001CN9999999N9+02601+01651101441ADDAA106000091AG10000GA1001+999999999GF100991001001999999001001KA1240M+03251MA1999999096781MD1999999-0051REMSYN017 333 10325 59005;EQDQ01+000002VOVAR 
0115827840999991994091112004-07317-039300FM-12+040999999V0201401N00461007501CN0200001N1+02641+01511101931ADDAA106000091AG10000GF108991081021008001999999KA1240N+02161MA1999999097001MD1999999+0001REMSYN017 333 20216 58000;
0115827840999991994091212004-07317-039300FM-12+040999999V0200901N00461220001CN0200001N1+02681+01641101681ADDAA106000091AG10000GF101991011021008001001001KA1240N+02001MA1999999097011MD1999999+0011REMSYN017 333 20200 58001;
0096827840999991994091218004-07317-039300FM-12+040999999V0201401N00511220001CN0200001N1+03081+01751101161ADDAA106000091AG10000GF102991021021008001001001MA1999999096511MD1999999+0001REMSYN011 333 58000;
0150827840999991994091300004-07317-039300FM-12+040999999V0200901N00211220001CN9999999N9+02321+01741101541ADDAA106000091AG10000GA1001+999999999GF100991001001999999001001KA1240M+03251MA1999999096871MD1999999+0041REMSYN017 333 10325 58004;EQDQ01+000002VOVAR 
0096827840999991994091418004-07317-039300FM-12+040999999V0201401N00311012001CN0200001N1+03031+01511101141ADDAA106000091AG10000GF106991061021012501001001MA1999999096501MD1999999-0141REMSYN011 333 59014;
0150827840999991994091500004-07317-039300FM-12+040999999V0200901N00151220001CN9999999N9+02441+01741101391ADDAA106000091AG10000GA1001+999999999GF100991001001999999001001KA1240M+03221MA1999999096721MD1999999-0121REMSYN017 333 10322 59012;EQDQ01+000002VOVAR 
0115827840999991994091512004-07317-039300FM-12+040999999V0200901N00311012001CN0200001N1+02621+01781101571ADDAA106000091AG10000GF108991081081008001999999KA1240N+02281MA1999999096901MD1999999-0071REMSYN017 333 20228 59007;
0096827840999991994091518004-07317-039300FM-12+040999999V0200501N00261007501CN0200001N1+03131+01791101071ADDAA106000091AG10000GF106991061021008001001001MA1999999096441MD1999999-0061REMSYN011 333 59006;
0096827840999991994091618004-07317-039300FM-12+040999999V0200901N00261220001CN0200001N1+03331+01171101041ADDAA106000091AG10000GF102991021011008001001001MA1999999096411MD1999999-0031REMSYN011 333 59003;
0115827840999991994091712004-07317-039300FM-12+040999999V0200901N00261220001CN0200001N1+02791+01851101751ADDAA106000091AG10000GF104991041021008001001001KA1240N+02221MA1999999097071MD1999999+0041REMSYN017 333 20222 58004;
0096827840999991994091718004-07317-039300FM-12+040999999V0200901N00211220001CN0200001N1+03341+01291101161ADDAA106000091AG10000GF103991031021008001001001MA1999999096531MD1999999+0121REMSYN011 333 58012;
0131827840999991994091812004-07317-039300FM-12+040999999V0201401N00311220001CN0200001N1+02761+01531101651ADDAA106000091AG10000GA1001+999999999GF100991001001999999001001KA1240N+02141MA1999999096991MD1999999-0081REMSYN017 333 20214 59008;
0115827840999991994091912004-07317-039300FM-12+040999999V0200901N00361220001CN0200001N1+02581+01661101661ADDAA106000091AG10000GF104991041021008001001001KA1240N+02101MA1999999096991MD1999999+0001REMSYN017 333 20210 58000;
0115827840999991994092012004-07317-039300FM-12+040999999V0201401N00461220001CN0200001N1+02611+01481101631ADDAA106000091AG10000GF101991011011008001001001KA1240N+01901MA1999999096961MD1999999-0031REMSYN017 333 20190 59003;
0112827840999991994092018004-07317-039300FM-12+040999999V0201401N00411220001CN0200001N1+03261+00941101101ADDAA106000091AG10000GA1001+999999999GF100991001001999999001001MA1999999096461MD1999999+0061REMSYN011 333 58006;
0096827840999991994092118004-07317-039300FM-12+040999999V0201401N00361045001CN0200001N1+03101+01371101081ADDAA106000091AG10000GF106991041021008001011001MA1999999096441MD1999999-0021REMSYN011 333 59002;
0112827840999991994092218004-07317-039300FM-12+040999999V0201401N00311220001CN0200001N1+03321+01171100971ADDAA106000091AG10000GA1001+999999999GF100991001001999999001001MA1999999096341MD1999999-0101REMSYN011 333 59010;
0115827840999991994092512004-07317-039300FM-12+040999999V0201401N00261007501CN0200001N1+02761+01721101441ADDAA106000091AG10000GF108991081021008001999999KA1240N+02231MA1999999096791MD1999999-0061REMSYN017 333 20223 59006;
0096827840999991994092518004-07317-039300FM-12+040999999V0200501N00311012001CN0200001N1+03321+01481100831ADDAA106000091AG10000GF106991061021012501001001MA1999999096221MD1999999-0081REMSYN011 333 59008;
0150827840999991994092600004-07317-039300FM-12+040999999V0200901N00211220001CN9999999N9+02701+01751101081ADDAA106000091AG10000GA1001+999999999GF100991001001999999001001KA1240M+03451MA1999999096451MD1999999-0171REMSYN017 333 10345 59017;EQDQ01+000002VOVAR 
0115827840999991994092612004-07317-039300FM-12+040999999V0200501N00311220001CN0200001N1+02791+01821101471ADDAA106000091AG10000GF101991011011008001001001KA1240N+02121MA1999999096821MD1999999+0031REMSYN017 333 20212 58003;
0115827840999991994092712004-07317-039300FM-12+040999999V0200501N00101220001CN0200001N1+02761+01801101421ADDAA106000091AG10000GF102991021001017501011001KA1240N+01801MA1999999096771MD1999999-0051REMSYN017 333 20180 59005;
0096827840999991994092818004-07317-039300FM-12+040999999V0201401N00461045001CN0200001N1+03201+01631100941ADDAA106000091AG10000GF107991021011008001011001MA1999999096321MD1999999+0121REMSYN011 333 58012;
0150827840999991994092900004-07317-039300FM-12+040999999V0200501N00211220001CN9999999N9+02691+01491101201ADDAA106000091AG10000GA1001+999999999GF100991001001999999001001KA1240M+03261MA1999999096551MD1999999-0061REMSYN017 333 10326 59006;EQDQ01+000002VOVAR 
0115827840999991994092912004-07317-039300FM-12+040999999V0200901N00211007501CN0200001N1+02641+01631101511ADDAA106000091AG10000GF106991061021008001001001KA1240N+02201MA1999999096851MD1999999+0031REMSYN017 333 20220 58003;
0150827840999991994100100004-07317-039300FM-12+040999999V0201401N00151220001CN9999999N9+02601+01761101181ADDAA106000091AG10000GA1001+999999999GF100991001001999999001001KA1240M+03291MA1999999096521MD1999999+0001REMSYN017 333 10329 58000;EQDQ01+000002VOVAR 
0115827840999991994100212004-07317-039300FM-12+040999999V0200901N00151012001CN0200001N1+02601+01821101441ADDAA106000091AG10000GF108991081081008001999999KA1240N+02041MA1999999096781MD1999999-0131REMSYN017 333 20204 59013;
0096827840999991994100518004-07317-039300FM-12+040999999V0201801N00211220001CN0200001N1+03361+01411100741ADDAA106000091AG10000GF102991021021012501001001MA1999999096131MD1999999+0121REMSYN011 333 58012;
0095827840999991994100712004-07317-039300FM-12+040999999V0200501N00211012001CN0200001N1+02741+01781101241ADDAA106000091AG10000GF108991081081008001999999KA1999N+02391MA1999999096601REMSYN011 333 20239;
0096827840999991994100718004-07317-039300FM-12+040999999V0200901N00261012001CN0200001N1+03421+01511100711ADDAA106000091AG10000GF108991051021012501011999MA1999999096111MD1999999-0061REMSYN011 333 59006;
0143827840999991994100812004-07317-039300FM-12+040999999V0200501N00211220001CN0200001N1+02641+01831101401ADDAA199001091AG10001AY151061AY211061GF104991041021008001001001KA1240N+02081MA1999999096731MD1999999+0131MW1021REMSYN023 333 20208 58013 69996;
0096827840999991994100818004-07317-039300FM-12+040999999V0201401N00151220001CN0200001N1+03421+01361100721ADDAA106000091AG10000GF102991021021012501001001MA1999999096111MD1999999+0001REMSYN011 333 58000;
0112827840999991994100918004-07317-039300FM-12+040999999V0200901N00261220001CN0200001N1+03501+00791100871ADDAA106000091AG10000GA1001+999999999GF100991001001999999001001MA1999999096221MD1999999+0151REMSYN011 333 58015;
0150827840999991994101000004-07317-039300FM-12+040999999V0201401N00051220001CN9999999N9+02421+01221101211ADDAA106000091AG10000GA1001+999999999GF100991001001999999001001KA1240M+03531MA1999999096561MD1999999+0201REMSYN017 333 10353 58020;EQDQ01+000002VOVAR 
0115827840999991994101012004-07317-039300FM-12+040999999V0200901N00261220001CN0200001N1+02761+01461101541ADDAA106000091AG10000GF103991031021008001001001KA1240N+02001MA1999999096871MD1999999+0121REMSYN017 333 20200 58012;
0096827840999991994101018004-07317-039300FM-12+040999999V0201401N00311045001CN0200001N1+03361+01201100911ADDAA106000091AG10000GF106991021011012501011001MA1999999096291MD1999999+0031REMSYN011 333 58003;
0115827840999991994101212004-07317-039300FM-12+040999999V0200501N00151220001CN0200001N1+02801+01871101451ADDAA106000091AG10000GF103991031021008001001001KA1240N+01891MA1999999096781MD1999999-0041REMSYN017 333 20189 59004;
0150827840999991994101400004-07317-039300FM-12+040999999V0201401N00311220001CN9999999N9+02891+01461101201ADDAA106000091AG10000GA1001+999999999GF100991001001999999001001KA1240M+03571MA1999999096481MD1999999+0031REMSYN017 333 10357 58003;EQDQ01+000002VOVAR 
0131827840999991994101512004-07317-039300FM-12+040999999V0200501N00211220001CN0200001N1+02981+01621101301ADDAA106000091AG10000GA1001+999999999GF100991001001999999001001KA1240N+02051MA1999999096671MD1999999-0111REMSYN017 333 20205 59011;
0143827840999991994101812004-07317-039300FM-12+040999999V0200901N00051045001CN0200001N1+02601+01841101421ADDAA199017091AG10006AY161061AY221061GF106991031021008001071001KA1240N+02151MA1999999096761MD1999999+0111MW1021REMSYN023 333 20215 58011 60177;
0131827840999991994101818004-07317-039300FM-12+040999999V0202601N99999045001CN0200001N1+03201+01651100891ADDAA106000091AG10000GF108991021011008001021011MA1999999096171MD1999999+0001REMSYN011 333 58000;EQDQ01+005193WOSPD Q020005193WOSPD 
0134827840999991994101900004-07317-039300FM-12+040999999V0200501N00311007501CN9999999N9+02831+01581101041ADDAA106000091AG10000GF108991081071008001999999KA1240M+03331MA1999999096411MD1999999-0031REMSYN017 333 10333 59003;EQDQ01+000002VOVAR 
0115827840999991994101912004-07317-039300FM-12+040999999V0200501N00411220001CN0200001N1+02741+01761101251ADDAA106000091AG10000GF103991021021008001071001KA1240N+02301MA1999999096621MD1999999-0141REMSYN017 333 20230 59014;
0115827840999991994102012004-07317-039300FM-12+040999999V0200501N00361012001CN0200001N1+02621+01671101381ADDAA106000091AG10000GF108991081081008001999999KA1240N+02301MA1999999096731MD1999999+0111REMSYN017 333 20230 58011;
0115827840999991994102112004-07317-039300FM-12+040999999V0200501N00261220001CN0200001N1+02761+01691101431ADDAA106000091AG10000GF103991021021008001011001KA1240N+02141MA1999999096771MD1999999+0041REMSYN017 333 20214 58004;
0115827840999991994102212004-07317-039300FM-12+040999999V0200901N00411220001CN0200001N1+02811+01461101381ADDAA106000091AG10000GF102991001001999999001011KA1240N+02001MA1999999096721MD1999999-0051REMSYN017 333 20200 59005;
0115827840999991994102412004-07317-039300FM-12+040999999V0200501N00311220001CN0200001N1+02861+01551101331ADDAA106000091AG10000GF102991021001017501011001KA1240N+02141MA1999999096701MD1999999-0021REMSYN017 333 20214 59002;
0150827840999991994102600004-07317-039300FM-12+040999999V0201401N00051220001CN9999999N9+02861+01371101041ADDAA106000091AG10000GA1001+999999999GF100991001001999999001001KA1240M+03531MA1999999096411MD1999999+0021REMSYN017 333 10353 58002;EQDQ01+000002VOVAR 
0115827840999991994102612004-07317-039300FM-12+040999999V0200901N00211220001CN0200001N1+02781+01791101301ADDAA106000091AG10000GF101991011021008001001001KA1240N+02241MA1999999096661MD1999999-0091REMSYN017 333 20224 59009;
0115827840999991994102712004-07317-039300FM-12+040999999V0200501N00151007501CN0200001N1+02521+01891101281ADDAA106000091AG10000GF108991081051008001999999KA1240N+02371MA1999999096641MD1999999-0021REMSYN017 333 20237 59002;
0150827840999991994102800004-07317-039300FM-12+040999999V0209991C00001220001CN9999999N9+02541+01761101061ADDAA106000091AG10000GA1001+999999999GF100991001001999999001001KA1240M+03271MA1999999096411MD1999999+0071REMSYN017 333 10327 58007;EQDQ01+000002VOVAR 
0115827840999991994102812004-07317-039300FM-12+040999999V0200501N00151220001CN0200001N1+02741+01811101291ADDAA106000091AG10000GF104991041021008001001001KA1240N+02331MA1999999096641MD1999999+0001REMSYN017 333 20233 58000;
0115827840999991994102912004-07317-039300FM-12+040999999V0203601N00311012001CN0200001N1+02721+02001101291ADDAA106000091AG10000GF107991071081008001001001KA1240N+02381MA1999999096651MD1999999+0011REMSYN017 333 20238 58001;
0115827840999991994103112004-07317-039300FM-12+040999999V0200101N00311220001CN0200001N1+02841+01631101431ADDAA106000091AG10000GF104991041021008001001001KA1240N+02201MA1999999096791MD1999999+0021REMSYN017 333 20220 58002;
0096827840999991994110218004-07317-039300FM-12+040999999V0200901N00261220001CN0200001N1+03521+01161100661ADDAA106000091AG10000GF101991011011008001001001MA1999999096061MD1999999-0151REMSYN011 333 59015;
0150827840999991994110300004-07317-039300FM-12+040999999V0200901N00151220001CN9999999N9+02881+01091101021ADDAA106000091AG10000GA1001+999999999GF100991001001999999001001KA1240M+03611MA1999999096401MD1999999-0171REMSYN017 333 10361 59017;EQDQ01+000002VOVAR 
0115827840999991994110612004-07317-039300FM-12+040999999V0201401N00261220001CN0200001N1+02961+01421101481ADDAA106000091AG10000GF103991031061012501001001KA1240N+02351MA1999999096851MD1999999+0041REMSYN017 333 20235 58004;
0115827840999991994110712004-07317-039300FM-12+040999999V0200901N00411220001CN0200001N1+02781+01551101401ADDAA106000091AG10000GF101991011011008001001001KA1240N+02221MA1999999096751MD1999999-0101REMSYN017 333 20222 59010;
0096827840999991994110718004-07317-039300FM-12+040999999V0200501N00261220001CN0200001N1+03501+01141100801ADDAA106000091AG10000GF101991011011008001001001MA1999999096201MD1999999-0181REMSYN011 333 59018;
0115827840999991994110812004-07317-039300FM-12+040999999V0201801N00151220001CN0200001N1+02741+01701101261ADDAA106000091AG10000GF104991041021008001001001KA1240N+02221MA1999999096621MD1999999-0131REMSYN017 333 20222 59013;
0131827840999991994111012004-07317-039300FM-12+040999999V0200901N00211220001CN0200001N1+02821+01771101391ADDAA106000091AG10000GA1001+999999999GF100991001001999999001001KA1240N+02341MA1999999096741MD1999999+0081REMSYN017 333 20234 58008;
0115827840999991994111112004-07317-039300FM-12+040999999V0200501N00311220001CN0200001N1+02781+01851101421ADDAA106000091AG10000GF104991041021008001001001KA1240N+02351MA1999999096771MD1999999+0031REMSYN017 333 20235 58003;
0096827840999991994111318004-07317-039300FM-12+040999999V0203201N00211012001CN0200001N1+03431+01251100691ADDAA106000091AG10000GF108991081061012501999999MA1999999096091MD1999999-0151REMSYN011 333 59015;
0143827840999991994111412004-07317-039300FM-12+040999999V0200501N00411220001CN0200001N1+02731+01791101291ADDAA124001091AG10001AY151061AY201061GF102991021021008001001001KA1240N+02221MA1999999096631MD1999999+0001MW1021REMSYN023 333 20222 58000 69974;
0096827840999991994111418004-07317-039300FM-12+040999999V0201401N00051220001CN0200001N1+03511+01481100641ADDAA106000091AG10000GF102991021021008001001001MA1999999096051MD1999999-0041REMSYN011 333 59004;
0134827840999991994111500004-07317-039300FM-12+040999999V0203201N00051012001CN9999999N9+02721+01621100941ADDAA106000091AG10000GF108991081081008001999999KA1240M+03531MA1999999096321MD1999999+0081REMSYN017 333 10353 58008;EQDQ01+000002VOVAR 
0143827840999991994111512004-07317-039300FM-12+040999999V0203601N00151007501CN0200001N1+02691+01891101221ADDAA124001091AG10001AY151061AY221061GF105991051021008001001001KA1240N+02341MA1999999096581MD1999999-0051MW1021REMSYN023 333 20234 59005 69974;
0096827840999991994111518004-07317-039300FM-12+040999999V0200901N00261012001CN0200001N1+03471+01451100621ADDAA106000091AG10000GF106991061081008001001001MA1999999096031MD1999999-0021REMSYN011 333 59002;
0115827840999991994111612004-07317-039300FM-12+040999999V0200501N00211220001CN0200001N1+02821+01741101151ADDAA106000091AG10000GF102991011011008001071001KA1240N+02321MA1999999096531MD1999999-0051REMSYN017 333 20232 59005;
0143827840999991994111712004-07317-039300FM-12+040999999V0200501N00311012001CN0200001N1+02521+01841101241ADDAA124014091AG10006AY161061AY221061GF108991061081008001031999KA1240N+02171MA1999999096601MD1999999+0071MW1021REMSYN023 333 20217 58007 60144;
0096827840999991994111718004-07317-039300FM-12+040999999V0200901N00211045001CN0200001N1+03281+01621100741ADDAA106000091AG10000GF108991021011012501071091MA1999999096121MD1999999+0071REMSYN011 333 58007;
0096827840999991994111818004-07317-039300FM-12+040999999V0203201N00311007501CN0200001N1+03441+01531101611ADDAA106000091AG10000GF106991051021008001041001MA1999999096021MD1999999-0101REMSYN011 333 59010;
0134827840999991994111900004-07317-039300FM-12+040999999V0201401N00051012001CN9999999N9+02721+02021100871ADDAA106000091AG10000GF108991081081008001999999KA1240M+03531MA1999999096251MD1999999-0191REMSYN017 333 10353 59019;EQDQ01+000002VOVAR 
0115827840999991994112012004-07317-039300FM-12+040999999V0200501N00261007501CN0200001N1+02811+01841101011ADDAA106000091AG10000GF105991051061008001001001KA1240N+02401MA1999999096371MD1999999-0231REMSYN017 333 20240 59023;
0096827840999991994112018004-07317-039300FM-12+040999999V0200501N00261012001CN0200001N1+03441+01481100511ADDAA106000091AG10000GF108991081061012501999999MA1999999095921MD1999999-0041REMSYN011 333 59004;
0115827840999991994112212004-07317-039300FM-12+040999999V0200501N00261007501CN0200001N1+02741+01811101231ADDAA106000091AG10000GF105991051021008001001001KA1240N+02321MA1999999096581MD1999999+0011REMSYN017 333 20232 58001;
0096827840999991994112218004-07317-039300FM-12+040999999V0200501N00211007501CN0200001N1+03301+01681100821ADDAA106000091AG10000GF105991051021008001001001MA1999999096211MD1999999+0101REMSYN011 333 58010;
0115827840999991994112312004-07317-039300FM-12+040999999V0200501N00151220001CN0200001N1+02861+01951101261ADDAA106000091AG10000GF103991021021008001011001KA1240N+02451MA1999999096621MD1999999+0041REMSYN017 333 20245 58004;
0115827840999991994112412004-07317-039300FM-12+040999999V0200901N00311220001CN0200001N1+02861+01721101361ADDAA106000091AG10000GF102991021011008001001001KA1240N+02431MA1999999096731MD1999999+0111REMSYN017 333 20243 58011;
0115827840999991994112512004-07317-039300FM-12+040999999V0200901N00311220001CN0200001N1+02831+01511101401ADDAA106000091AG10000GF101991011011008001001001KA1240N+02411MA1999999096771MD1999999+0041REMSYN017 333 20241 58004;
0112827840999991994112518004-07317-039300FM-12+040999999V0200901N00361220001CN0200001N1+03481+00781100831ADDAA106000091AG10000GA1001+999999999GF100991001001999999001001MA1999999096231MD1999999+0011REMSYN011 333 58001;
0106827840999991994112812004-07317-039300FM-12+040999999V0200501N00211007501CN0200001N1+02761+02021101111ADDAG10006AY161061AY291061GF106991051021008001011001KA1999N+02141MA1999999096491MW1021REMSYN011 333 20214;
0134827840999991994112900004-07317-039300FM-12+040999999V0203601N00151220001CN9999999N9+02841+01631100831ADDAA106000091AG10000GF103991031021008001001001KA1240M+02991MA1999999096221MD1999999+0021REMSYN017 333 10299 58002;EQDQ01+000002VOVAR 
0115827840999991994112912004-07317-039300FM-12+040999999V0200501N00151220001CN0200001N1+02691+01671101201ADDAA106000091AG10000GF102991011011008001061001KA1240N+02321MA1999999096561MD1999999+0071REMSYN017 333 20232 58007;
0096827840999991994112918004-07317-039300FM-12+040999999V0203601N00101012001CN0200001N1+03321+01521100651ADDAA106000091AG10000GF107991071021012501001001MA1999999096051MD1999999+0091REMSYN011 333 58009;
0096827840999991994113018004-07317-039300FM-12+040999999V0200501N00211220001CN0200001N1+03421+01201100741ADDAA106000091AG10000GF101991011011008001001001MA1999999096141MD1999999+0091REMSYN011 333 58009;
0096827840999991994120118004-07317-039300FM-12+040999999V0201401N00211220001CN0200001N1+03501+01321100671ADDAA106000091AG10000GF104991041021012501001001MA1999999096081MD1999999-0061REMSYN011 333 59006;
0134827840999991994120200004-07317-039300FM-12+040999999V0201401N00361007501CN9999999N9+02901+01811101051ADDAA106000091AG10000GF107991071021008001001001KA1240M+03541MA1999999096431MD1999999+0091REMSYN017 333 10354 58009;EQDQ01+000002VOVAR 
0131827840999991994120212004-07317-039300FM-12+040999999V0200901N00311220001CN0200001N1+02791+01581101261ADDAA106000091AG10000GA1001+999999999GF100991001001999999001001KA1240N+02201MA1999999096631MD1999999+0011REMSYN017 333 20220 58001;
0115827840999991994120412004-07317-039300FM-12+040999999V0200901N00261220001CN0200001N1+02841+01571101321ADDAA106000091AG10000GF104991041061008001001001KA1240N+02341MA1999999096681MD1999999+0041REMSYN017 333 20234 58004;
0096827840999991994120518004-07317-039300FM-12+040999999V0200501N00211012001CN0200001N1+03431+01201100701ADDAA106000091AG10000GF108991081061012501999999MA1999999096091MD1999999-0281REMSYN011 333 59028;
0115827840999991994120612004-07317-039300FM-12+040999999V0200901N00211220001CN0200001N1+02751+01811101311ADDAA106000091AG10000GF101991011011008001001001KA1240N+02431MA1999999096661MD1999999+0031REMSYN017 333 20243 58003;
0096827840999991994120618004-07317-039300FM-12+040999999V0200901N00311012001CN0200001N1+03461+01231100831ADDAA106000091AG10000GF105991051021012501001001MA1999999096241MD1999999+0151REMSYN011 333 58015;
0150827840999991994120700004-07317-039300FM-12+040999999V0203601N00051220001CN9999999N9+02501+01531101071ADDAA106000091AG10000GA1001+999999999GF100991001001999999001001KA1240M+03501MA1999999096691MD1999999+0121REMSYN017 333 10350 58012;EQDQ01+000002VOVAR 
0115827840999991994120712004-07317-039300FM-12+040999999V0203601N00261220001CN0200001N1+02721+01771101281ADDAA106000091AG10000GF101991011011008001001001KA1240N+02281MA1999999096631MD1999999-0031REMSYN017 333 20228 59003;
0115827840999991994120812004-07317-039300FM-12+040999999V0200501N00051012001CN0200001N1+02591+01901101231ADDAA106000091AG10000GF108991081081008001999999KA1240N+02311MA1999999096581MD1999999-0051REMSYN017 333 20231 59005;
0115827840999991994120912004-07317-039300FM-12+040999999V0200501N00211220001CN0200001N1+02811+01811101121ADDAA106000091AG10000GF101991011011008001001001KA1240N+02471MA1999999096501MD1999999-0081REMSYN017 333 20247 59008;
0150827840999991994121100004-07317-039300FM-12+040999999V0201401N00151220001CN9999999N9+02931+01421101081ADDAA106000091AG10000GA1001+999999999GF100991001001999999001001KA1240M+03491MA1999999096461MD1999999+0111REMSYN017 333 10349 58011;EQDQ01+000002VOVAR 
0102827840999991994121112004-07317-039300FM-12+040999999V0200901N00261007501CN0200001N1+02821+01831101311ADDAA106000091AG10000GF107991071021008001001081MA1999999096681MD1999999+0031REMSYN017 333 2020/ 58003;
0096827840999991994121118004-07317-039300FM-12+040999999V0200501N00311012001CN0200001N1+03441+01331100771ADDAA106000091AG10000GF107991071021012501001001MA1999999096181MD1999999+0001REMSYN011 333 58000;
0134827840999991994121200004-07317-039300FM-12+040999999V0201401N00361007501CN9999999N9+02891+01831101111ADDAA106000091AG10000GF108991081051008001999999KA1240M+03511MA1999999096491MD1999999+0031REMSYN017 333 10351 58003;EQDQ01+000002VOVAR 
0134827840999991994121212004-07317-039300FM-12+040999999V0200901N00261220001CN0200001N1+02901+01651100831ADDAA106000091AG10000GF102991011011008001071001KA1240N+02361MA1999999096231MD1999999-0071REMSYN017 333 20236 59007;EQDQ01+999990APOSP 
0150827840999991994121300004-07317-039300FM-12+040999999V0201401N00311220001CN9999999N9+02881+01391100931ADDAA106000091AG10000GA1001+999999999GF100991001001999999001001KA1240M+03581MA1999999096321MD1999999+0171REMSYN017 333 10358 58017;EQDQ01+000002VOVAR 
0115827840999991994121312004-07317-039300FM-12+040999999V0200901N00261220001CN0200001N1+02861+01621101161ADDAA106000091AG10000GF102991011011008001071001KA1240N+02321MA1999999096541MD1999999-0071REMSYN017 333 20232 59007;
0134827840999991994121400004-07317-039300FM-12+040999999V0201401N00361220001CN9999999N9+02901+01321100781ADDAA106000091AG10000GF102991021061008001001001KA1240M+03601MA1999999096181MD1999999-0141REMSYN017 333 10360 59014;EQDQ01+000002VOVAR 
0143827840999991994121412004-07317-039300FM-12+040999999V0200501N00261220001CN0200001N1+02841+01631101251ADDAA124002091AG10006AY161061AY201061GF103991011011008001031001KA1240N+02371MA1999999096621MD1999999+0081MW1021REMSYN023 333 20237 58008 60024;
0115827840999991994121512004-07317-039300FM-12+040999999V0200501N00261000301CN0200001N1+02791+01911101291ADDAA106000091AG10000GF106991051021000251041001KA1240N+02421MA1999999096651MD1999999+0031REMSYN017 333 20242 58003;
0115827840999991994121612004-07317-039300FM-12+040999999V0200501N00261220001CN0200001N1+02781+01881101261ADDAA106000091AG10000GF102991021011008001001001KA1240N+02261MA1999999096631MD1999999-0021REMSYN017 333 20226 59002;
0115827840999991994121812004-07317-039300FM-12+040999999V0200901N00261220001CN0200001N1+02821+01891101201ADDAA106000091AG10000GF103991031021008001001001KA1240N+02421MA1999999096571MD1999999-0061REMSYN017 333 20242 59006;
0115827840999991994121912004-07317-039300FM-12+040999999V0203601N00261007501CN0200001N1+02701+01941101231ADDAA106000091AG10000GF108991081051008001999999KA1240N+02321MA1999999096591MD1999999+0021REMSYN017 333 20232 58002;
0134827840999991994122100004-07317-039300FM-12+040999999V0200901N00051012001CN9999999N9+02961+01781100971ADDAA106000091AG10000GF108991081081008001999999KA1240M+03431MA1999999096351MD1999999+0081REMSYN017 333 10343 58008;EQDQ01+000002VOVAR 
0143827840999991994122112004-07317-039300FM-12+040999999V0202701N00211007501CN0200001N1+02291+02051101431ADDAA124018091AG10006AY161061AY291061GF108991081071008001999999KA1240N+02041MA1999999096771MD1999999+0161MW1021REMSYN023 333 20204 58016 60184;
0150827840999991994122200004-07317-039300FM-12+040999999V0201401N00101220001CN9999999N9+02521+01521101121ADDAA106000091AG10000GA1001+999999999GF100991001001999999001001KA1240M+03011MA1999999096451MD1999999+0101REMSYN017 333 10301 58010;EQDQ01+000002VOVAR 
0115827840999991994122212004-07317-039300FM-12+040999999V0200501N00151012001CN0200001N1+02581+02101101261ADDAA106000091AG10000GF106991061081008001001001KA1240N+02281MA1999999096601MD1999999-0171REMSYN017 333 20228 59017;
0115827840999991994122712004-07317-039300FM-12+040999999V0200501N00151220001CN0200001N1+02841+01881101261ADDAA106000091AG10000GF102991011011008001031001KA1240N+02401MA1999999096631MD1999999-0021REMSYN017 333 20240 59002;
0162827840999991994122800004-07317-039300FM-12+040999999V0202701N00151012001CN9999999N9+02341+02171101251ADDAA124003091AG10006AY161061AY291061GF108991081081008001999999KA1240M+03391MA1999999096601MD1999999+0111MW1021REMSYN023 333 10339 58011 60034;EQDQ01+000002VOVAR 
0143827840999991994122812004-07317-039300FM-12+040999999V0200901N00051012001CN0200001N1+02631+02181101481ADDAA124004091AG10001AY151061AY221061GF108991061081008001031999KA1240N+02281MA1999999096811MD1999999-0181MW1021REMSYN023 333 20228 59018 60044;
0096827840999991994123018004-07317-039300FM-12+040999999V0200901N00151045001CN0200001N1+03011+01941101191ADDAA106000091AG10000GF108991041021008001071999MA1999999096541MD1999999+0111REMSYN011 333 58011;
