0076827980999991994010116004-07100-034867FM-15+0007SBJP V02099999999999999999N0010001N1+99999+99999999999ADDAG11999REMMET038NEW 2KT 9999 SCT020 BKN200 31/21 Q1010EQDQ01+000000PRSWM2
0088827980999991994010117004-07100-034867FM-15+0007SBJP V0201201N00511220001CN0112651N1+03001+02101999999ADDAG11999GA1021+006009999GA2021+060009999MA1101021999999REMMET003NEWEQDQ01+000000PRSWM2
0187827980999991994010118004-07100-034867SY-MT+0007SBJP V0201401N00411220001CN9999999N9+02941+02141103041ADDAA106000091AG14000GA1021+006009999GA2021+060009999GF104991041011008001001001MA1100911100951MD1999999-0051REMSYN010 333 59005MET003NEWEQDQ01+040002VODIS Q02+000002VOVAR Q03+000000PRSWM2
0114827980999991994010212004-07100-034867FM-12+0007SBJP V0201401N00311007501CN0040001N9+02901+02121101311ADDAA106000091AG14000GF105991051021008001001001KA1240N+02461MA1999999101221MD1999999-0031REMSYN016 333 20246 59003
0072827980999991994010215004-07100-034867FM-15+0007SBJP V0200901N00511006001CN0112651N1+03001+02001999999ADDAG11000GA1071+006009999MA1101021999999REMMET003NEWEQDQ01+000000PRSWM2
0072827980999991994010216004-07100-034867FM-15+0007SBJP V0200901N00511220001CN0112651N1+03101+02001999999ADDAG11999GA1021+006009999MA1101021999999REMMET003NEWEQDQ01+000000PRSWM2
0072827980999991994010217004-07100-034867FM-15+0007SBJP V0201201N00621220001CN0112651N1+03101+02001999999ADDAG11999GA1021+006009999MA1100911999999REMMET003NEWEQDQ01+000000PRSWM2
0171827980999991994010218004-07100-034867SY-MT+0007SBJP V0201401N00411007501CN9999999N9+02941+02241101091ADDAA106000091AG14000GA1021+006009999GF105991051021008001001001MA1100911101001MD1999999+0051REMSYN010 333 58005MET003NEWEQDQ01+040002VODIS Q02+000002VOVAR Q03+000000PRSWM2
0114827980999991994010300004-07100-034867FM-12+0007SBJP V0201401N00461007501CN0040001N9+02801+02431101261ADDAA106000091AG14000GF106991061091008001001001KA1240M+03101MA1999999101171MD1999999-0031REMSYN016 333 10310 59003
0072827980999991994010310004-07100-034867FM-15+0007SBJP V0201701N00261220001CN0112651N1+02501+02201999999ADDAG11999GA1021+006009999MA1101081999999REMMET003NEWEQDQ01+000000PRSWM2
0167827980999991994010312004-07100-034867SY-MT+0007SBJP V0209991C00001006001CN0040001N9+02761+02301101291ADDAA124001091AG10006AY161061AY221061GA1071+006009999GF107991071091008001001001KA1240N+02501MA1999999101201MD1999999-0021MW1611REMSYN022 333 20250 59002 60014MET003NEW
0088827980999991994010315004-07100-034867FM-15+0007SBJP V0200701N00461090001CN0112651N1+03101+02101999999ADDAG11000GA1021+006009999GA2071+090009999MA1101021999999REMMET003NEWEQDQ01+000000PRSWM2
0088827980999991994010316004-07100-034867FM-15+0007SBJP V0200501N00261090001CN0112651N1+03101+02201999999ADDAG11999GA1021+006009999GA2071+090009999MA1100911999999REMMET003NEWEQDQ01+000000PRSWM2
0088827980999991994010317004-07100-034867FM-15+0007SBJP V0200601N00511220001CN0112651N1+03101+02101999999ADDAG11999GA1021+006009999GA2021+090009999MA1100811999999REMMET003NEWEQDQ01+000000PRSWM2
0114827980999991994010400004-07100-034867FM-12+0007SBJP V0200901N00411007501CN0040001N9+02701+02431101241ADDAA106000091AG14000GF107991071041008001001001KA1240M+03081MA1999999101151MD1999999-0021REMSYN016 333 10308 59002
0195827980999991994010412004-07100-034867SY-MT+0007SBJP V0200901N00311007501CN0040001N1+02621+02411102291ADDAA124020091AG11009AY161061AY221061GA1021+004809099GA2021+006009999GF107991071041008001001001KA1240N+02461MA1101191101241MD1999999+0001MW1161MW2171MW3611REMSYN022 333 20246 58000 60204MET003NEW
0072827980999991994010416004-07100-034867FM-15+0007SBJP V0200801N00461006001CN0112651N1+03001+02201999999ADDAG11999GA1071+006009999MA1101491999999REMMET003NEWEQDQ01+000000PRSWM2
0114827980999991994010500004-07100-034867FM-12+0007SBJP V0201401N00311007501CN0040001N9+02701+02371101191ADDAA106000091AG14000GF107991071041008001001001KA1240M+02901MA1999999101101MD1999999-0051REMSYN016 333 10290 59005
0072827980999991994010511004-07100-034867FM-15+0007SBJP V0200801N00511006001CN0112651N1+02801+02301999999ADDAG11999GA1071+006009999MA1101191999999REMMET003NEWEQDQ01+000000PRSWM2
0142827980999991994010512004-07100-034867FM-12+0007SBJP V0200501N00261007501CN0040001N9+02881+02391101251ADDAA124008091AG10006AY161061AY221061GF106991061091008001001001KA1240N+02521MA1999999101161MD1999999-0041MW1001REMSYN022 333 20252 59004 60084
0072827980999991994010516004-07100-034867FM-15+0007SBJP V0200701N00311220001CN0112651N1+03001+02401999999ADDAG11999GA1021+006009999MA1101021999999REMMET003NEWEQDQ01+000000PRSWM2
0095827980999991994010518004-07100-034867FM-12+0007SBJP V0200901N00311007501CN0040001N9+02841+02171101131ADDAA106000091AG14000GF106991061091008001001001MA1999999101041MD1999999+0041REMSYN010 333 58004
0088827980999991994010610004-07100-034867FM-15+0007SBJP V0200601N00411220001CN0112651N1+02701+02301999999ADDAG11999GA1021+006009999GA2021+030009999MA1101081999999REMMET003NEWEQDQ01+000000PRSWM2
0072827980999991994010611004-07100-034867FM-15+0007SBJP V0200601N00511220001CN0112651N1+02801+02201999999ADDAG11999GA1021+006009999MA1101191999999REMMET003NEWEQDQ01+000000PRSWM2
0114827980999991994010612004-07100-034867FM-12+0007SBJP V0200501N00261007501CN0040001N9+02921+02241101291ADDAA106000091AG14000GF105991051021008001001001KA1240N+02621MA1999999101201MD1999999+0041REMSYN016 333 20262 58004
0072827980999991994010613004-07100-034867FM-15+0007SBJP V0200401N00511220001CN0112651N1+03001+02201999999ADDAG11999GA1021+006009999MA1101191999999REMMET003NEWEQDQ01+000000PRSWM2
0072827980999991994010615004-07100-034867FM-15+0007SBJP V0200401N00361220001CN0112651N1+03001+02201999999ADDAG11000GA1021+006009999MA1101081999999REMMET003NEWEQDQ01+000000PRSWM2
0062827980999991994010616004-07100-034867FM-15+0007SBJP V0201001N00311220001CN0112651N1+03001+02201999999ADDAG11999GA1021+006009999REMMET008NEW Q 10EQDQ01+000000PRSWM2
0095827980999991994010618004-07100-034867FM-12+0007SBJP V0200901N00311220001CN0020001N9+02921+02171101111ADDAA106000091AG14000GF103991031021008001001001MA1999999101021MD1999999-0021REMSYN010 333 59002
0114827980999991994010700004-07100-034867FM-12+0007SBJP V0200901N00261220001CN0020001N9+02781+02161101091ADDAA106000091AG14000GF104991041021008001001001KA1240M+03041MA1999999101001MD1999999-0121REMSYN016 333 10304 59012
0190827980999991994010712004-07100-034867SY-MT+0007SBJP V0200901N00311220001CN9999999N9+02921+02271101241ADDAA106000091AG11000GA1021+006009999GF103991031021008001001001KA1240N+02661MA1101081101151MD1999999-0051REMSYN016 333 20266 59005MET003NEWEQDQ01+040002VODIS Q02+000002VOVAR Q03+000000PRSWM2
0095827980999991994010718004-07100-034867FM-12+0007SBJP V0200901N00311220001CN0040001N9+02901+02221101041ADDAA106000091AG14000GF104991041021008001001001MA1999999100951MD1999999-0071REMSYN010 333 59007
0072827980999991994010812004-07100-034867FM-15+0007SBJP V0201201N00511006001CN0112651N1+02901+02201999999ADDAG11000GA1071+006009999MA1101021999999REMMET003NEWEQDQ01+000000PRSWM2
0088827980999991994010816004-07100-034867FM-15+0007SBJP V0200801N00411006001CN0112651N1+03001+02201999999ADDAG11999GA1071+006009999GA2021+030009999MA1100911999999REMMET003NEWEQDQ01+000000PRSWM2
0072827980999991994010912004-07100-034867FM-15+0007SBJP V0200701N00411220001CN0112651N1+02901+02101999999ADDAG11000GA1021+006009999MA1101081999999REMMET003NEWEQDQ01+000000PRSWM2
0072827980999991994010917004-07100-034867FM-15+0007SBJP V0200801N00311006001CN0112651N1+03001+02101999999ADDAG11999GA1071+006009999MA1100811999999REMMET003NEWEQDQ01+000000PRSWM2
0095827980999991994010918004-07100-034867FM-12+0007SBJP V0201401N00311220001CN0040001N9+02881+02171101041ADDAA106000091AG14000GF104991041081008001001001MA1999999100951MD1999999+0001REMSYN010 333 58000
0072827980999991994011009004-07100-034867FM-15+0007SBJP V0209991C00001220001CN0112651N1+02501+02201999999ADDAG11000GA1021+006009999MA1101021999999REMMET003NEWEQDQ01+000000PRSWM2
0190827980999991994011012004-07100-034867SY-MT+0007SBJP V0200901N00311220001CN0112651N1+02921+02271101191ADDAA106000091AG11000GA1071+006009999GF199999041081008001001031KA1240N+02401MA1101081101101MD1999999-0051REMSYN016 333 20240 59005MET003NEWEQDQ01+000042SCOTCVQ02+040002VODIS Q03+000000PRSWM2
0072827980999991994011013004-07100-034867FM-15+0007SBJP V0200901N00361006001CN0112651N1+03001+02001999999ADDAG11999GA1071+006009999MA1101081999999REMMET003NEWEQDQ01+000000PRSWM2
0072827980999991994011015004-07100-034867FM-15+0007SBJP V0201001N00411006001CN0112651N1+03001+02201999999ADDAG11000GA1071+006009999MA1101021999999REMMET003NEWEQDQ01+000000PRSWM2
0072827980999991994011016004-07100-034867FM-15+0007SBJP V0201001N00411006001CN0112651N1+03001+02201999999ADDAG11999GA1071+006009999MA1100911999999REMMET003NEWEQDQ01+000000PRSWM2
0072827980999991994011017004-07100-034867FM-15+0007SBJP V0200701N00511220001CN0112651N1+03001+02101999999ADDAG11999GA1021+006009999MA1100811999999REMMET003NEWEQDQ01+000000PRSWM2
0187827980999991994011018004-07100-034867SY-MT+0007SBJP V0201401N00311220001CN9999999N9+02941+02291101021ADDAA106000091AG11000GA1021+006009999GA2021+090009999GF103991031021008001001001MA1100811100931MD1999999-0021REMSYN010 333 59002MET003NEWEQDQ01+020002VODIS Q02+000002VOVAR Q03+000000PRSWM2
0130827980999991994011100004-07100-034867FM-12+0007SBJP V0209999999999220001CN0040001N9+02921+02281101121ADDAA106000091AG14000GA1001+999999999GF100991001001999999001001KA1240M+03041MA1999999101021MD1999999-0021REMSYN016 333 10304 59002
0088827980999991994011109004-07100-034867FM-15+0007SBJP V0201901N00261220001CN0112651N1+02301+02101999999ADDAG11000GA1021+006009999GA2021+090009999MA1101021999999REMMET003NEWEQDQ01+000000PRSWM2
0088827980999991994011110004-07100-034867FM-15+0007SBJP V0201601N00211220001CN0112651N1+02601+02201999999ADDAG11999GA1021+006009999GA2021+090009999MA1101021999999REMMET003NEWEQDQ01+000000PRSWM2
0206827980999991994011112004-07100-034867SY-MT+0007SBJP V0201001N00461220001CN0112651N1+02941+02211101231ADDAA106000091AG11000GA1071+006009999GA2021+090009999GF199999041081008001001001KA1240N+02601MA1101081101141MD1999999+0041REMSYN016 333 20260 58004MET003NEWEQDQ01+000042SCOTCVQ02+040002VODIS Q03+000000PRSWM2
0088827980999991994011113004-07100-034867FM-15+0007SBJP V0200901N00411006001CN0112651N1+03001+02001999999ADDAG11999GA1071+006009999GA2021+090009999MA1101081999999REMMET003NEWEQDQ01+000000PRSWM2
0088827980999991994011117004-07100-034867FM-15+0007SBJP V0201001N00511006001CN0112651N1+02901+02001999999ADDAG11999GA1071+006009999GA2021+090009999MA1100811999999REMMET003NEWEQDQ01+000000PRSWM2
0095827980999991994011118004-07100-034867FM-12+0007SBJP V0209999999999007501CN0020001N9+02901+02251100971ADDAA106000091AG14000GF105991051071008001001001MA1999999100881MD1999999-0051REMSYN010 333 59005
0088827980999991994011119004-07100-034867FM-15+0007SBJP V0201301N00411006001CN0112651N1+02901+02001999999ADDAG11999GA1071+006009999GA2071+090009999MA1100811999999REMMET003NEWEQDQ01+000000PRSWM2
0114827980999991994011200004-07100-034867FM-12+0007SBJP V0209999999999220001CN0040001N9+02681+02311101041ADDAA106000091AG14000GF104991041071008001001001KA1240M+03061MA1999999100951MD1999999-0071REMSYN016 333 10306 59007
0142827980999991994011212004-07100-034867FM-12+0007SBJP V0209999999999012001CN0020001N9+02801+02341101211ADDAA124003091AG10006AY161061AY221061GF105991051081008001001001KA1240N+02321MA1999999101121MD1999999-0071MW1001REMSYN022 333 20232 59007 60034
0095827980999991994011218004-07100-034867FM-12+0007SBJP V0209999999999220001CN0040001N9+02801+02211100991ADDAA106000091AG14000GF104991041081008001001001MA1999999100901MD1999999+0001REMSYN010 333 58000
0174827980999991994011312004-07100-034867SY-MT+0007SBJP V0200801N00411220001CN0020001N1+02901+02391101291ADDAA106000091AG11000GA1071+006009999GF199999041021008001001001KA1240N+02501MA1101081101201MD1999999+0081REMSYN016 333 20250 58008MET003NEWEQDQ01+000042SCOTCVQ02+000000PRSWM2
0088827980999991994011317004-07100-034867FM-15+0007SBJP V0200701N00511220001CN0112651N1+03101+02101999999ADDAG11999GA1021+006009999GA2021+090009999MA1100911999999REMMET003NEWEQDQ01+000000PRSWM2
0095827980999991994011318004-07100-034867FM-12+0007SBJP V0209999999999220001CN0020001N9+02881+02211101111ADDAA106000091AG14000GF103991031021008001001001MA1999999101021MD1999999-0031REMSYN010 333 59003
0114827980999991994011400004-07100-034867FM-12+0007SBJP V0209999999999220001CN0040001N9+02681+02221101161ADDAA106000091AG14000GF104991041081008001001001KA1240M+03021MA1999999101071MD1999999+0121REMSYN016 333 10302 58012
0153827980999991994011412004-07100-034867FM-12+0007SBJP V0209999999999007501CN0020001N9+02901+02481101361ADDAA124000291AA299000191AG10006AY161061AY221061GF105991051071008001001001KA1240N+02401MA1999999101271MD1999999+0071MW1001REMSYN022 333 20240 58007 69924
0088827980999991994011415004-07100-034867FM-15+0007SBJP V0200801N00411006001CN0112651N1+03001+02301999999ADDAG11000GA1071+006009999GA2021+030009999MA1101081999999REMMET003NEWEQDQ01+000000PRSWM2
0072827980999991994011417004-07100-034867FM-15+0007SBJP V0200501N00511006001CN0112651N1+02901+02301999999ADDAG11999GA1071+006009999MA1101081999999REMMET003NEWEQDQ01+000000PRSWM2
0210827980999991994011418004-07100-034867SY-MT+0007SBJP V0200501N00461006001CN0112651N1+02861+02241101331ADDAA106000491AA299000591AG11006AY161061AY221061GA1071+006009999GA2021+030009999GF107991071071008001001001MA1101021101041MD1999999+0021MW1001REMSYN016 333 58002 69941MET003NEWEQDQ01+020002VODIS Q02+000000PRSWM2
0088827980999991994011419004-07100-034867FM-15+0007SBJP V0200601N00361030001CN0112651N1+02801+02301999999ADDAG11999GA1021+006009999GA2071+030009999MA1101021999999REMMET003NEWEQDQ01+000000PRSWM2
0104827980999991994011420004-07100-034867FM-15+0007SBJP V0200601N00311030001CN0112651N1+02801+02301999999ADDAG11999GA1021+004809999GA2021+006009999GA3071+030009999MA1101021999999REMMET003NEWEQDQ01+000000PRSWM2
0088827980999991994011509004-07100-034867FM-15+0007SBJP V0202301N00211030001CN0080001N1+02401+02301999999ADDAG11000GA1021+004809999GA2071+030009999MA1101081999999REMMET003NEWEQDQ01+000000PRSWM2
0088827980999991994011511004-07100-034867FM-15+0007SBJP V0200701N00361220001CN0112651N1+02901+02301999999ADDAG11999GA1021+006009999GA2021+030009999MA1101191999999REMMET003NEWEQDQ01+000000PRSWM2
0072827980999991994011513004-07100-034867FM-15+0007SBJP V0200501N00411006001CN0112651N1+03001+02301999999ADDAG11999GA1071+006009999MA1101081999999REMMET003NEWEQDQ01+000000PRSWM2
0114827980999991994011700004-07100-034867FM-12+0007SBJP V0209999999999220001CN0020001N9+02701+02371101041ADDAA106000091AG14000GF104991041081008001001001KA1240M+03101MA1999999100951MD1999999-0051REMSYN016 333 10310 59005
0174827980999991994011712004-07100-034867SY-MT+0007SBJP V0200301N00311007501CN0040001N1+02921+02361101141ADDAA106000091AG11000GA1021+004809999GA2021+006009999GF105991051041008001001001KA1240N+02481MA1101021101051MD1999999-0041REMSYN016 333 20248 59004MET003NEWEQDQ01+000000PRSWM2
0088827980999991994011809004-07100-034867FM-15+0007SBJP V0201701N00151030001CN0112651N1+02501+02401999999ADDAG11000GA1021+007509999GA2071+030009999MA1100911999999REMMET003NEWEQDQ01+000000PRSWM2
0114827980999991994011812004-07100-034867FM-12+0007SBJP V0209999999999220001CN0040001N9+03001+02371101071ADDAA106000091AG14000GF104991041021008001001001KA1240N+02641MA1999999100981MD1999999-0071REMSYN016 333 20264 59007
0072827980999991994011813004-07100-034867FM-15+0007SBJP V0201001N00311006001CN0112651N1+02901+02201999999ADDAG11999GA1071+006009999MA1101021999999REMMET003NEWEQDQ01+000000PRSWM2
0072827980999991994011815004-07100-034867FM-15+0007SBJP V0200401N00511006001CN0112651N1+03101+02101999999ADDAG11000GA1071+006009999MA1100811999999REMMET003NEWEQDQ01+000000PRSWM2
0072827980999991994011817004-07100-034867FM-15+0007SBJP V0200401N00411220001CN0112651N1+03101+02101999999ADDAG11999GA1021+006009999MA1100711999999REMMET003NEWEQDQ01+000000PRSWM2
0141827980999991994011818004-07100-034867SY-MT+0007SBJP V0200601N00571220001CN9999999N9+02961+02331100831ADDAA106000091AG14000GA1021+006009999GF103991999999008001999999MA1100711100741REMMET003NEWEQDQ01+020002VODIS Q02+000002VOVAR Q03+000000PRSWM2
0072827980999991994011911004-07100-034867FM-15+0007SBJP V0200701N00311006001CN0112651N1+02901+02101999999ADDAG11999GA1071+006009999MA1101081999999REMMET003NEWEQDQ01+000000PRSWM2
0142827980999991994011912004-07100-034867FM-12+0007SBJP V0209999999999007501CN0020001N9+02961+02401101241ADDAA124005091AG10006AY161061AY221061GF105991051071008001001001KA1240N+02561MA1999999101151MD1999999+0171MW1001REMSYN022 333 20256 58017 60054
0201827980999991994012112004-07100-034867SY-MT+0007SBJP V0201001N00151007501CN0040001N1+02601+02481101401ADDAA124011091AG11008AY161061AY221061GA1021+004509999GF108991081091008001999999KA1240N+02411MA1999999101311MD1999999-0061MW1161MW2611REMSYN022 333 20241 59006 60114MET031NEW S/21 8 BKN090 25/24 Q1012 ?
0133827980999991994012412004-07100-034867FM-12+0007SBJP V0209999999999220001CN0040001N9+02981+02331101431ADDAA106000091AG14000GF104991999091008001001001KA1240N+02501MA1999999101341MD1999999+0041REMSYN016 333 20250 58004EQDQ01+000052SCOTLC
0088827980999991994012413004-07100-034867FM-15+0007SBJP V0200801N00361024001CN0112651N1+03001+02201999999ADDAG11999GA1021+006009999GA2071+024009999MA1101291999999REMMET003NEWEQDQ01+000000PRSWM2
0095827980999991994012418004-07100-034867FM-12+0007SBJP V0209999999999012001CN0020001N9+02941+02341101091ADDAA106000091AG14000GF105991051081008001001001MA1999999101001MD1999999+0051REMSYN010 333 58005
0114827980999991994012500004-07100-034867FM-12+0007SBJP V0209999999999220001CN0020001N9+02801+02271101371ADDAA106000091AG14000GF103991031021008001001001KA1240M+03061MA1999999101281MD1999999+0081REMSYN016 333 10306 58008
0114827980999991994012512004-07100-034867FM-12+0007SBJP V0209999999999220001CN0040001N9+02921+02321101441ADDAA106000091AG14000GF104991041081008001001001KA1240N+02401MA1999999101351MD1999999+0011REMSYN016 333 20240 58001
0095827980999991994012518004-07100-034867FM-12+0007SBJP V0209999999999220001CN0040001N9+02941+02341101191ADDAA106000091AG14000GF103991031021008001001001MA1999999101101MD1999999+0101REMSYN010 333 58010
0114827980999991994012612004-07100-034867FM-12+0007SBJP V0209999999999012001CN0040001N9+02961+02351101331ADDAA106000091AG14000GF105991051081008001001001KA1240N+02681MA1999999101241MD1999999-0111REMSYN016 333 20268 59011
0114827980999991994012618004-07100-034867FM-12+0007SBJP V0209999999999220001CN0020001N9+02921+02351101171ADDAA106000091AG14000GF104991999081008001001001MA1999999101081MD1999999-0021REMSYN010 333 59002EQDQ01+000032SCOTLC
0114827980999991994012712004-07100-034867FM-12+0007SBJP V0209999999999007501CN0040001N9+02961+02401101241ADDAA106000091AG14000GF106991061071008001001001KA1240N+02701MA1999999101151MD1999999-0091REMSYN016 333 20270 59009
0095827980999991994012718004-07100-034867FM-12+0007SBJP V0209999999999012001CN0040001N9+02941+02311101111ADDAA106000091AG14000GF105991051081008001001001MA1999999101021MD1999999-0061REMSYN010 333 59006
0088827980999991994012810004-07100-034867FM-15+0007SBJP V0200901N00211220001CN0112651N1+02601+02201999999ADDAG11999GA1021+006009999GA2021+090009999MA1101081999999REMMET003NEWEQDQ01+000000PRSWM2
0072827980999991994012811004-07100-034867FM-15+0007SBJP V0201201N00361006001CN0112651N1+02801+02201999999ADDAG11999GA1071+006009999MA1101081999999REMMET003NEWEQDQ01+000000PRSWM2
0172827980999991994012812004-07100-034867FM-12+0007SBJP V0209999999999012001CN9999999N9+02941+02311101271ADDAA124000691AA299000591AG10006AY161061AY221061GF105991051081008001001001KA1240N+02641MA1999999101181MD1999999+0031MW1001REMSYN022 333 20264 58003 69964EQDQ01+040002VODIS 
0174827980999991994012912004-07100-034867SY-MT+0007SBJP V0200701N00361007501CN0040001N1+02961+02401101291ADDAA106000091AG11000GA1021+006009999GA2021+090009999GF105991051021008001001001KA1240N+02681MA1101191101201MD1999999+0021REMSYN016 333 20268 58002MET003NEWEQDQ01+000000PRSWM2
0095827980999991994012918004-07100-034867FM-12+0007SBJP V0209999999999220001CN0040001N9+02941+02311101091ADDAA106000091AG14000GF104991041021008001001001MA1999999101001MD1999999-0021REMSYN010 333 59002
0072827980999991994013011004-07100-034867FM-15+0007SBJP V0201101N00311006001CN0112651N1+02601+02301999999ADDAG11999GA1071+006009999MA1101191999999REMMET003NEWEQDQ01+000000PRSWM2
0190827980999991994013012004-07100-034867SY-MT+0007SBJP V0201001N00311220001CN0112651N1+02981+02371101311ADDAA106000091AG11000GA1071+006009999GF199999041081008001001001KA1240N+02691MA1101191101221MD1999999+0021REMSYN016 333 20269 58002MET003NEWEQDQ01+000042SCOTCVQ02+040002VODIS Q03+000000PRSWM2
0072827980999991994013013004-07100-034867FM-15+0007SBJP V0201201N00511006001CN0112651N1+02901+02201999999ADDAG11999GA1071+006009999MA1101191999999REMMET003NEWEQDQ01+000000PRSWM2
0072827980999991994013014004-07100-034867FM-15+0007SBJP V0200801N00361006001CN0112651N1+03001+02201999999ADDAG11999GA1071+006009999MA1101081999999REMMET003NEWEQDQ01+000000PRSWM2
0114827980999991994013100004-07100-034867FM-12+0007SBJP V0209999999999220001CN0020001N9+02781+02351101271ADDAA106000091AG14000GF104991041071008001001001KA1240M+03051MA1999999101181MD1999999+0031REMSYN016 333 10305 58003
0088827980999991994013110004-07100-034867FM-15+0007SBJP V0201601N00211090001CN0112651N1+02601+02301999999ADDAG11999GA1021+006009999GA2071+090009999MA1101021999999REMMET003NEWEQDQ01+000000PRSWM2
0218827980999991994013112004-07100-034867SY-MT+0007SBJP V0201101N00411090001CN0020001N1+02981+02441101231ADDAA124001091AG11006AY161061AY221061GA1021+006009999GA2071+090009999GF199999051081008001001001KA1240N+02701MA1101081101141MD1999999-0081MW1001REMSYN022 333 20270 59008 60014MET003NEWEQDQ01+000052SCOTCVQ02+000000PRSWM2
0088827980999991994013113004-07100-034867FM-15+0007SBJP V0201101N00511090001CN0112651N1+03001+02201999999ADDAG11999GA1021+006009999GA2071+090009999MA1101081999999REMMET003NEWEQDQ01+000000PRSWM2
0095827980999991994013118004-07100-034867FM-12+0007SBJP V0209999999999007501CN0040001N9+02941+02471101091ADDAA106000091AG14000GF106991061091008001001001MA1999999101001MD1999999+0021REMSYN010 333 58002
0114827980999991994020100004-07100-034867FM-12+0007SBJP V0209999999999220001CN0040001N9+02761+02341101251ADDAA106000091AG14000GF103991031071008001001001KA1240M+03081MA1999999101161MD1999999-0021REMSYN016 333 10308 59002
0161827980999991994020112004-07100-034867FM-12+0007SBJP V0209999999999220001CN9999999N9+02941+02291101271ADDAA124000391AG10006AY161061AY221061GF104991041081008001001001KA1240N+02441MA1999999101181MD1999999+0041MW1001REMSYN022 333 20244 58004 69934EQDQ01+040002VODIS 
0088827980999991994020115004-07100-034867FM-15+0007SBJP V0201201N00511006001CN0112651N1+03001+02201999999ADDAG11000GA1071+006009999GA2071+090009999MA1101081999999REMMET003NEWEQDQ01+000000PRSWM2
0095827980999991994020118004-07100-034867FM-12+0007SBJP V0209999999999220001CN0040001N9+02941+02261101091ADDAA106000091AG14000GF103991031081008001001001MA1999999101001MD1999999+0001REMSYN010 333 58000
0114827980999991994020212004-07100-034867FM-12+0007SBJP V0209999999999220001CN0040001N9+02981+02331101191ADDAA106000091AG14000GF104991041021008001001001KA1240N+02361MA1999999101101MD1999999+0101REMSYN016 333 20236 58010
0072827980999991994020213004-07100-034867FM-15+0007SBJP V0200901N00621006001CN0112651N1+02901+02201999999ADDAG11999GA1071+006009999MA1101291999999REMMET003NEWEQDQ01+000000PRSWM2
0088827980999991994020217004-07100-034867FM-15+0007SBJP V0200801N00361220001CN0112651N1+03101+02101999999ADDAG11999GA1021+006009999GA2021+090009999MA1101021999999REMMET003NEWEQDQ01+000000PRSWM2
0095827980999991994020218004-07100-034867FM-12+0007SBJP V0209999999999220001CN0040001N9+02941+02261101051ADDAA106000091AG14000GF104991041021008001001001MA1999999100961MD1999999-0041REMSYN010 333 59004
0072827980999991994020309004-07100-034867FM-15+0007SBJP V0209991C00001220001CN0112651N1+02401+02201999999ADDAG11000GA1021+006009999MA1101191999999REMMET003NEWEQDQ01+000000PRSWM2
0088827980999991994020310004-07100-034867FM-15+0007SBJP V0209991C00001220001CN0112651N1+02601+02301999999ADDAG11999GA1021+006009999GA2021+030009999MA1101291999999REMMET003NEWEQDQ01+000000PRSWM2
0158827980999991994020312004-07100-034867SY-MT+0007SBJP V0200501N00211007501CN0040001N1+02941+02381101371ADDAA106000091AG11000GA1021+006009999GF105991051021008001001001KA1240N+02541MA1101291101281MD1999999+0181REMSYN016 333 20254 58018MET003NEWEQDQ01+000000PRSWM2
0072827980999991994020313004-07100-034867FM-15+0007SBJP V0200501N00311006001CN0112651N1+03001+02201999999ADDAG11999GA1071+006009999MA1101291999999REMMET003NEWEQDQ01+000000PRSWM2
0072827980999991994020317004-07100-034867FM-15+0007SBJP V0200801N00411220001CN0112651N1+03101+02001999999ADDAG11999GA1021+006009999MA1101021999999REMMET003NEWEQDQ01+000000PRSWM2
0120827980999991994020318004-07100-034867SY-MT+0007SBJP V0209999999999220001CN0020001N9+02941+02261101141ADDAA106000091AG14000GA1021+006009999GF103991031021008001001001MA1999999101051MD1999999+0091REMSYN010 333 58009MET003NEW
0058827980999991994020319004-07100-034867FM-15+0007SBJP V0200601N00361999991CY0099001N1+03001+02101999999ADDAG11999MA1100911999999REMMET005NEW KEQDQ01+000000PRSWM2
0058827980999991994020320004-07100-034867FM-15+0007SBJP V0200701N00311999991CY0099001N1+02901+02101999999ADDAG11999MA1101021999999REMMET005NEW KEQDQ01+000000PRSWM2
0114827980999991994020400004-07100-034867FM-12+0007SBJP V0209999999999220001CN0040001N9+02801+02201101211ADDAA106000091AG14000GF103991031021008001001001KA1240M+03061MA1999999101121MD1999999-0061REMSYN016 333 10306 59006
0116827980999991994020409004-07100-034867FM-12+0007SBJP V0201701N00101220001CN0210001N9+99999+99999101721ADDAG12000GF103991031001999999031001MA1999999101611MD1710051+9999EQDQ01+999990APOSP Q02 -02543ATOT  Q03 -02783ATOD  
0104827980999991994020410004-07100-034867FM-15+0007SBJP V0202001N00151220001CN0112651N1+99999+02302999999ADDAG11999GA1021+006009999MA1101081999999REMMET003NEWEQDQ01+030023ATOT  Q02+029623ATOD  Q03+000000PRSWM2
0087827980999991994020411004-07100-034867FM-15+0007SBJP V0200801N00211220001CN0112651N1+00002+99999999999ADDAG11999GA1021+000609999REMMET017NEW 29/21 Q1012 ?EQDQ01+027323ATOT  Q02+000000PRSWM2
0133827980999991994020412004-07100-034867FM-12+0007SBJP V0209999999999007501CN0040001N9+02982+02331101271ADDAA106000091AG14000GF105991051021008001001001KA1240N+02401MA1999999101181MD1999999-0101REMSYN016 333 20240 59010EQDQ01+030303ATOT  
0072827980999991994020416004-07100-034867FM-15+0007SBJP V0201001N00361220001CN0112651N1+03101+02101999999ADDAG11999GA1021+006009999MA1100911999999REMMET003NEWEQDQ01+000000PRSWM2
0072827980999991994020417004-07100-034867FM-15+0007SBJP V0200901N00461220001CN0112651N1+03001+02201999999ADDAG11999GA1021+006009999MA1100911999999REMMET003NEWEQDQ01+000000PRSWM2
0095827980999991994020418004-07100-034867FM-12+0007SBJP V0209999999999220001CN0020001N9+02961+02281101111ADDAA106000091AG14000GF104991041021008001001001MA1999999101021MD1999999-0031REMSYN010 333 59003
0183827980999991994020512004-07100-034867SY-MT+0007SBJP V0201401N00311006001CN0040001N9+02681+02411101161ADDAA124006091AG10006AY161061AY221061GA1021+004509999GA2071+006009999GF107991071091008001001001KA1240N+02501MA1999999101071MD1999999-0111MW1001REMSYN022 333 20250 59011 60064MET003NEW
0088827980999991994020611004-07100-034867FM-15+0007SBJP V0201901N00261030001CN0112651N1+02701+02401999999ADDAG11999GA1021+006009999GA2071+030009999MA1101081999999REMMET003NEWEQDQ01+000000PRSWM2
0072827980999991994020617004-07100-034867FM-15+0007SBJP V0201301N00411220001CN0112651N1+02901+02001999999ADDAG11999GA1021+006009999MA1101021999999REMMET003NEWEQDQ01+000000PRSWM2
0095827980999991994020618004-07100-034867FM-12+0007SBJP V0201401N00261012001CN0040001N9+02861+02241101031ADDAA106000091AG14000GF105991051081008001001001MA1999999100941MD1999999+0041REMSYN010 333 58004
0161827980999991994020712004-07100-034867FM-12+0007SBJP V0201401N00311007501CN9999999N9+02821+02221101361ADDAA124000591AG10006AY161061AY221061GF106991061091008001001001KA1240N+02391MA1999999101271MD1999999+0071MW1001REMSYN022 333 20239 58007 69954EQDQ01+040002VODIS 
0142827980999991994020812004-07100-034867FM-12+0007SBJP V0201401N00311007501CN0040001N9+02891+02341101361ADDAA124000391AG10006AY161061AY221061GF105991051091008001001001KA1240N+02641MA1999999101271MD1999999+0001MW1001REMSYN022 333 20264 58000 69934
0213827980999991994020912004-07100-034867SY-MT+0007SBJP V0201401N00311006001CN0040001N9+02841+02501101341ADDAA124000791AA299001091AG10006AY161061AY221061GA1071+006009999GA2021+090009999GF199999051071008001001001KA1240N+02721MA1999999101251MD1999999-0021MW1001REMSYN022 333 20272 59002 69974MET003NEWEQDQ01+000052SCOTCV
0072827980999991994020917004-07100-034867FM-15+0007SBJP V0201101N00511220001CN0112651N1+02901+02201999999ADDAG11999GA1021+006009999MA1101021999999REMMET003NEWEQDQ01+000000PRSWM2
0095827980999991994020918004-07100-034867FM-12+0007SBJP V0201401N00311220001CN0040001N9+02861+02261101141ADDAA106000091AG14000GF104991041021008001001001MA1999999101051MD1999999+0051REMSYN010 333 58005
0190827980999991994021012004-07100-034867SY-MT+0007SBJP V0201401N00411007501CN9999999N9+02921+02101101331ADDAA106000091AG14000GA1021+006009999GF105991051021008001001001KA1240N+02701MA1101191101241MD1999999-0011REMSYN016 333 20270 59001MET003NEWEQDQ01+040002VODIS Q02+000002VOVAR Q03+000000PRSWM2
0072827980999991994021013004-07100-034867FM-15+0007SBJP V0200901N00411220001CN0112651N1+03001+02101999999ADDAG11999GA1021+006009999MA1101191999999REMMET003NEWEQDQ01+000000PRSWM2
0095827980999991994021018004-07100-034867FM-12+0007SBJP V0201401N00411007501CN0040001N9+02901+02341101091ADDAA106000091AG14000GF105991051021008001001001MA1999999101001MD1999999-0051REMSYN010 333 59005
0072827980999991994021109004-07100-034867FM-15+0007SBJP V0209991C00001220001CN0112651N1+02501+02201999999ADDAG11000GA1021+006009999MA1101191999999REMMET003NEWEQDQ01+000000PRSWM2
0088827980999991994021110004-07100-034867FM-15+0007SBJP V0202401N00261220001CN0112651N1+02501+02201999999ADDAG11999GA1021+006009999GA2021+030009999MA1101291999999REMMET003NEWEQDQ01+000000PRSWM2
0088827980999991994021111004-07100-034867FM-15+0007SBJP V0201301N00261220001CN0112651N1+02801+02101999999ADDAG11999GA1021+006009999GA2021+090009999MA1101291999999REMMET003NEWEQDQ01+000000PRSWM2
0190827980999991994021112004-07100-034867SY-MT+0007SBJP V0201401N00411220001CN0040001N1+02941+02361101351ADDAA106000091AG11000GA1071+006009999GA2021+090009999GF199999041021008001001001KA1240N+02661MA1101291101261MD1999999+0021REMSYN016 333 20266 58002MET003NEWEQDQ01+000042SCOTCVQ02+000000PRSWM2
0088827980999991994021113004-07100-034867FM-15+0007SBJP V0201301N00261006001CN0112651N1+03101+02001999999ADDAG11999GA1071+006009999GA2021+030009999MA1101291999999REMMET003NEWEQDQ01+000000PRSWM2
0075827980999991994021114004-07100-034867FM-15+0007SBJP V0200701N00511006001CN0030001N1+02901+02401999999ADDAG11999GA1071+006009999GA2021+030009999MA1101291999999MW1611REMMET003NEW
0091827980999991994021115004-07100-034867FM-15+0007SBJP V0200601N00311090001CN0060001N1+03001+02001999999ADDAG11002GA1021+006009999GA2021+030009999GA3071+090009999MA1101191999999MW1161REMMET003NEW
0104827980999991994021117004-07100-034867FM-15+0007SBJP V0200701N00411090001CN0112651N1+02901+02201999999ADDAG11999GA1021+006009999GA2021+030009999GA3071+090009999MA1101081999999REMMET003NEWEQDQ01+000000PRSWM2
0095827980999991994021118004-07100-034867FM-12+0007SBJP V0201401N00411220001CN0040001N9+02921+02321101111ADDAA106000091AG14000GF104991041021008001001001MA1999999101021MD1999999+0021REMSYN010 333 58002
0114827980999991994021200004-07100-034867FM-12+0007SBJP V0201401N00261007501CN0040001N9+02801+02521101291ADDAA106000091AG14000GF106991061091008001001001KA1240M+03121MA1999999101201MD1999999+0021REMSYN016 333 10312 58002
0091827980999991994021209004-07100-034867FM-15+0007SBJP V0202101N00261006001CN0070001N1+02401+02301999999ADDAG11008GA1021+003009999GA2021+004509999GA3071+006009999MA1101191999999MW1611REMMET003NEW
0091827980999991994021210004-07100-034867FM-15+0007SBJP V0201601N002110030019N0080001N1+02401+02301999999ADDAG11999GA1071+003009999GA2021+004509999GA3021+006009999MA1101191999999MW1611REMMET003NEW
0088827980999991994021211004-07100-034867FM-15+0007SBJP V0201501N00311220001CN0112651N1+02601+02301999999ADDAG11999GA1021+006009999GA2021+030009999MA1101191999999REMMET003NEWEQDQ01+000000PRSWM2
0186827980999991994021212004-07100-034867SY-MT+0007SBJP V0201401N00311007501CN0040001N1+02781+02361101341ADDAA124004091AG10006AY161061AY221061GA1021+006009999GF106991061091008001001001KA1240N+02421MA1101191101251MD1999999-0011MW1001REMSYN022 333 20242 59001 60044MET003NEWEQDQ01+000000PRSWM2
0072827980999991994021213004-07100-034867FM-15+0007SBJP V0201101N00461006001CN0112651N1+03001+02301999999ADDAG11999GA1071+006009999MA1101191999999REMMET003NEWEQDQ01+000000PRSWM2
0072827980999991994021214004-07100-034867FM-15+0007SBJP V0200901N00261006001CN0112651N1+03001+02301999999ADDAG11999GA1071+006009999MA1101191999999REMMET003NEWEQDQ01+000000PRSWM2
0088827980999991994021218004-07100-034867FM-15+0007SBJP V0201001N00511006001CN0112651N1+02901+02401999999ADDAG11000GA1071+006009999GA2071+030009999MA1100911999999REMMET003NEWEQDQ01+000000PRSWM2
0218827980999991994021312004-07100-034867SY-MT+0007SBJP V0209991C00001030001CN0040001N1+02721+02431101291ADDAA124010091AG10006AY161061AY221061GA1021+004809999GA2021+006009999GA3021+030009999GF108991081091008001999999KA1240N+02481MA1101081101201MD1999999-0051MW1611REMSYN022 333 20248 59005 60104MET003NEWEQDQ01+000000PRSWM2
0095827980999991994021318004-07100-034867FM-12+0007SBJP V0201401N00311007501CN0040001N9+02801+02381101051ADDAA106000091AG14000GF106991061041008001001001MA1999999100961MD1999999-0041REMSYN010 333 59004
0114827980999991994021400004-07100-034867FM-12+0007SBJP V0200501N00151007501CN0040001N9+02721+02521101251ADDAA106000091AG14000GF107991071091008001001001KA1240M+02991MA1999999101161MD1999999+0011REMSYN016 333 10299 58001
0190827980999991994021412004-07100-034867SY-MT+0007SBJP V0201401N00411006001CN0040001N1+02921+02341101381ADDAA106000091AG11000GA1021+004509999GA2071+006009999GF199999061021008001001001KA1240N+02501MA1101191101291MD1999999+0091REMSYN016 333 20250 58009MET003NEWEQDQ01+000062SCOTCVQ02+000000PRSWM2
0114827980999991994021512004-07100-034867FM-12+0007SBJP V0201401N00411007501CN0040001N9+02961+02351101611ADDAA106000091AG14000GF105991051021008001001001KA1240N+02681MA1999999101521MD1999999+0231REMSYN016 333 20268 58023
0142827980999991994021712004-07100-034867FM-12+0007SBJP V0200901N00411007501CN0040001N9+02821+02271101461ADDAA124019091AG10006AY161061AY221061GF106991061041008001001001KA1240N+02481MA1999999101371MD1999999-0141MW1001REMSYN022 333 20248 59014 60194
0095827980999991994021718004-07100-034867FM-12+0007SBJP V0201401N00411007501CN0040001N9+02981+02281101241ADDAA106000091AG14000GF105991051041008001001001MA1999999101151MD1999999-0121REMSYN010 333 59012
0114827980999991994021812004-07100-034867FM-12+0007SBJP V0201401N00411007501CN0040001N9+02941+02291101331ADDAA106000091AG14000GF105991051021008001001001KA1240N+02341MA1999999100121MD1999999-0131REMSYN016 333 20234 59013
0114827980999991994021818004-07100-034867FM-12+0007SBJP V0201401N00411007501CN0040001N9+02941+02311101121ADDAA106000091AG14000GF105991051021008001001001MA1999999101032MD1999999-0121REMSYN010 333 59012EQDQ01+101033APOSP 
0114827980999991994021912004-07100-034867FM-12+0007SBJP V0200901N00361007501CN0040001N9+02901+02321104451ADDAA106000091AG14000GF105991051021008001001001KA1240N+02421MA1999999101361MD1999999+0001REMSYN016 333 20242 58000
0114827980999991994021918004-07100-034867FM-12+0007SBJP V0201401N00411220001CN0040001N9+02941+02291101112ADDAA106000091AG14000GF104991041021008001001001MA1999999101021MD1999999-0011REMSYN010 333 59001EQDQ01+101113APOSLP
0114827980999991994022012004-07100-034867FM-12+0007SBJP V0200901N00311007501CN0040001N9+02941+02251101281ADDAA106000091AG14000GF105991051021008001001001KA1240N+02701MA1999999101191MD1999999-0051REMSYN016 333 20270 59005
0222827980999991994022112004-07100-034867SY-MT+0007SBJP V0200901N00311006001CN9999999N9+03001+02391101321ADDAA106000091AG11000GA1071+006009999GA2021+090009999GF199999051021008001001001KA1240N+02701MA1101191101231MD1999999+0041REMSYN016 333 20270 58004MET003NEWEQDQ01+000052SCOTCVQ02+040002VODIS Q03+000002VOVAR Q04+000000PRSWM2
0095827980999991994022118004-07100-034867FM-12+0007SBJP V0200901N00311007501CN0040001N9+02961+02331101091ADDAA106000091AG14000GF105991051021008001001001MA1999999101001MD1999999-0021REMSYN010 333 59002
0072827980999991994022212004-07100-034867FM-15+0007SBJP V0201001N00261006001CN0112651N1+02901+02301999999ADDAG11000GA1071+006009999MA1101191999999REMMET003NEWEQDQ01+000000PRSWM2
0120827980999991994022218004-07100-034867SY-MT+0007SBJP V0201401N00411220001CN0040001N9+03001+02391101131ADDAA106000091AG14000GA1021+006009999GF103991031021008001001001MA1999999101041MD1999999+0041REMSYN010 333 58004MET003NEW
0114827980999991994022312004-07100-034867FM-12+0007SBJP V0201401N00461007501CN0040001N9+02961+02101101321ADDAA106000091AG14000GF105991051021008001001001KA1240N+02721MA1999999101231MD1999999+0011REMSYN016 333 20272 58001
0095827980999991994022318004-07100-034867FM-12+0007SBJP V0201401N00411220001CN0040001N9+02961+02181101051ADDAA106000091AG14000GF104991041011008001001001MA1999999100961MD1999999-0041REMSYN010 333 59004
0133827980999991994022412004-07100-034867FM-12+0007SBJP V0200901N003119999999N0040001N9+03001+02171101321ADDAA106000091AG14000GF105991999021008001001001KA1240N+02681MA1999999101931MD1999999+0011REMSYN016 333 20268 58001EQDQ01+000062SCOTLC
0072827980999991994022413004-07100-034867FM-15+0007SBJP V0201201N00261006001CN0112651N1+03001+02101999999ADDAG11999GA1071+006009999MA1101081999999REMMET003NEWEQDQ01+000000PRSWM2
0114827980999991994022418004-07100-034867FM-12+0007SBJP V0201401N00411220001CN0040001N9+02441+02321101011ADDAA106000091AG14000GF104991041011008001001001MA1999999100922MD1999999-0021REMSYN010 333 59002EQDQ01+100923APOSP 
0114827980999991994022512004-07100-034867FM-12+0007SBJP V0201401N00311007501CN0040001N9+02921+02271101341ADDAA106000091AG14000GF105991051021008001001001KA1240N+02761MA1999999101251MD1999999+0081REMSYN016 333 20276 58008
0095827980999991994022518004-07100-034867FM-12+0007SBJP V0201401N00311220001CN0040001N9+02961+02341101051ADDAA106000091AG14000GF104991041011008001001001MA1999999100961MD1999999+0011REMSYN010 333 58001
0114827980999991994022612004-07100-034867FM-12+0007SBJP V0201401N00411007501CN0040001N9+03001+02391101341ADDAA106000091AG14000GF107991071041008001001001KA1240N+02721MA1999999101251MD1999999+0001REMSYN016 333 20272 58000
0095827980999991994022618004-07100-034867FM-12+0007SBJP V0201401N00411007501CN0040001N9+02971+02371101091ADDAA106000091AG14000GF106991061041008001001001MA1999999101001MD1999999+0041REMSYN010 333 58004
0133827980999991994022712004-07100-034867FM-12+0007SBJP V0200901N00311007501CN0040001N9+02961+02351101331ADDAA106000091AG14000GF107991071041008001001001KA1240N+02701MA1999999101241MD1999999-0011REMSYN016 333 20270 59001EQDQ01+999990APOSP 
0095827980999991994022718004-07100-034867FM-12+0007SBJP V0201401N00411007501CN0040001N9+03001+02391101171ADDAA106000091AG14000GF106991061041008001001001MA1999999101081MD1999999+0081REMSYN010 333 58008
0114827980999991994022800004-07100-034867FM-12+0007SBJP V0201401N00311007501CN0040001N9+02801+02381101311ADDAA106000091AG14000GF108991081041008001999999KA1240M+03041MA1999999101221MD1999999+0021REMSYN016 333 10304 58002
0142827980999991994022812004-07100-034867FM-12+0007SBJP V0201401N00311007501CN0040001N9+02981+02421101381ADDAA124002091AG10006AY161061AY221061GF106991061021008001001001KA1240N+02721MA1999999101291MD1999999+0051MW1001REMSYN022 333 20272 58005 60024
0088827980999991994022814004-07100-034867FM-15+0007SBJP V0200701N00311090001CN0112651N1+03001+02301999999ADDAG11999GA1021+006009999GA2071+090009999MA1101191999999REMMET003NEWEQDQ01+000000PRSWM2
0088827980999991994022815004-07100-034867FM-15+0007SBJP V0200901N00461006001CN0112651N1+03101+02201999999ADDAG11000GA1071+006009999GA2071+090009999MA1101191999999REMMET003NEWEQDQ01+000000PRSWM2
0095827980999991994022818004-07100-034867FM-12+0007SBJP V0201401N00411007501CN0040001N9+02961+02401101091ADDAA106000091AG14000GF106991061041008001001001MA1999999101001MD1999999-0081REMSYN010 333 59008
0206827980999991994030112004-07100-034867SY-MT+0007SBJP V0201401N00311090001CN0040001N1+02961+02401101321ADDAA106000091AG11000GA1021+006009999GA2021+030009999GA3071+090009999GF199999061021008001001001KA1240N+02541MA1101191101231MD1999999-0061REMSYN016 333 20254 59006MET003NEWEQDQ01+000062SCOTCVQ02+000000PRSWM2
0095827980999991994030118004-07100-034867FM-12+0007SBJP V0201401N00411007501CN0040001N9+02961+02471101131ADDAA106000091AG14000GF107991071041008001001001MA1999999101041MD1999999+0061REMSYN010 333 58006
0114827980999991994030200004-07100-034867FM-12+0007SBJP V0200901N00411007501CN0040001N9+02801+02381101291ADDAA106000091AG14000GF107991071041008001001001KA1240M+03121MA1999999101201MD1999999-0011REMSYN016 333 10312 59001
0174827980999991994030212004-07100-034867SY-MT+0007SBJP V0200501N00311007501CN0040001N1+02941+02431101331ADDAA106000091AG11000GA1021+006009999GA2021+030009999GF107991071041008001001001KA1240N+02741MA1101191102041MD1999999+0011REMSYN016 333 20274 58001MET003NEWEQDQ01+000000PRSWM2
0088827980999991994030217004-07100-034867FM-15+0007SBJP V0200601N00511220001CN0112651N1+03001+02301999999ADDAG11999GA1021+006009999GA2021+030009999MA1101021999999REMMET003NEWEQDQ01+000000PRSWM2
0114827980999991994030218004-07100-034867FM-12+0007SBJP V0200901N00411007501CN0040001N9+02961+02281101091ADDAA106000091AG14000GF107991071041008001001001MA1999999101002MD1999999-0041REMSYN010 333 59004EQDQ01+101003APOSP 
0114827980999991994030312004-07100-034867FM-12+0007SBJP V0200501N00411007501CN0040001N9+02981+02351101501ADDAA106000091AG14000GF107991071071008001001001KA1240N+02481MA1999999101411MD1999999+0171REMSYN016 333 20248 58017
0088827980999991994030316004-07100-034867FM-15+0007SBJP V0200701N00311030001CN0112651N1+03101+02301999999ADDAG11999GA1021+006009999GA2071+030009999MA1101081999999REMMET003NEWEQDQ01+000000PRSWM2
0088827980999991994030317004-07100-034867FM-15+0007SBJP V0200501N00411030001CN0112651N1+03101+02201999999ADDAG11999GA1021+006009999GA2071+030009999MA1101021999999REMMET003NEWEQDQ01+000000PRSWM2
0187827980999991994030318004-07100-034867SY-MT+0007SBJP V0200901N00261007501CN9999999N9+03021+02391101201ADDAA106000091AG11000GA1021+006009999GA2021+030009999GF106991061071008001001001MA1101021101111MD1999999+0111REMSYN010 333 58011MET003NEWEQDQ01+040002VODIS Q02+000002VOVAR Q03+000000PRSWM2
0072827980999991994030410004-07100-034867FM-15+0007SBJP V0201501N00211220001CN0112651N1+02701+02301999999ADDAG11999GA1021+006009999MA1101191999999REMMET003NEWEQDQ01+000000PRSWM2
0072827980999991994030411004-07100-034867FM-15+0007SBJP V0201301N00211006001CN0112651N1+02801+02301999999ADDAG11999GA1071+006009999MA1101191999999REMMET003NEWEQDQ01+000000PRSWM2
0202827980999991994030412004-07100-034867SY-MT+0007SBJP V0200901N00311007501CN0112651N1+02821+02331101481ADDAA124002091AG11000AY101061AY201061GA1021+004509999GA2021+006009999GF108991081091008001999999KA1240N+02521MA1101291101391MD1999999-0021MW1211REMSYN022 333 20252 59002 60024MET003NEWEQDQ01+000000PRSWM2
0072827980999991994030414004-07100-034867FM-15+0007SBJP V0200801N00411006001CN0112651N1+03101+02101999999ADDAG11999GA1071+006009999MA1101191999999REMMET003NEWEQDQ01+000000PRSWM2
0072827980999991994030416004-07100-034867FM-15+0007SBJP V0200701N00511220001CN0112651N1+03101+02201999999ADDAG11999GA1021+006009999MA1101081999999REMMET003NEWEQDQ01+000000PRSWM2
0072827980999991994030417004-07100-034867FM-15+0007SBJP V0200901N00511006001CN0112651N1+03001+02201999999ADDAG11999GA1071+006009999MA1101021999999REMMET003NEWEQDQ01+000000PRSWM2
0155827980999991994030418004-07100-034867SY-MT+0007SBJP V0200901N00261220001CN0112651N1+02941+02281101241ADDAA106000091AG14000GA1021+006009999GF104991041081008001001001MA1101021101151MD1999999+0041REMSYN010 333 58004MET003NEWEQDQ01+040002VODIS Q02+000000PRSWM2
0072827980999991994030419004-07100-034867FM-15+0007SBJP V0200701N00511220001CN0112651N1+03001+02201999999ADDAG11999GA1021+006009999MA1101021999999REMMET003NEWEQDQ01+000000PRSWM2
0114827980999991994030500004-07100-034867FM-12+0007SBJP V0200901N00311007501CN0040001N9+02821+02401101241ADDAA106000091AG14000GF107991071091008001001001KA1240M+03041MA1999999101151MD1999999-0151REMSYN016 333 10304 59015
0114827980999991994030512004-07100-034867FM-12+0007SBJP V0200901N00411007501CN0040001N9+03001+02321101241ADDAA106000091AG14000GF105991051021008001001001KA1240N+02681MA1999999101151MD1999999-0241REMSYN016 333 20268 59024
0133827980999991994030600004-07100-034867FM-12+0007SBJP V0200901N00311007501CN0040001N9+02801+02381101251ADDAA106000091AG14000GF106991061021008001001001KA1240M+03121MA1999999101161MD1999999+0011REMSYN016 333 10312 58001EQDQ01+999990APOSP 
0088827980999991994030611004-07100-034867FM-15+0007SBJP V0200701N00411006001CN0112651N1+02801+02401999999ADDAG11999GA1071+006009999GA2071+090009999MA1101081999999REMMET003NEWEQDQ01+000000PRSWM2
0114827980999991994030612004-07100-034867FM-12+0007SBJP V0200901N00311007501CN0040001N9+02981+02401101241ADDAA106000091AG14000GF105991051021008001001001KA1240N+02721MA1999999101151MD1999999+0011REMSYN016 333 20272 58001
0139827980999991994030618004-07100-034867SY-MT+0007SBJP V0200901N00411220001CN0040001N1+03001+02461101031ADDAA106000091AG14000GA1021+006009999GF104991041011008001001001MA1100911100941MD1999999-0061REMSYN010 333 59006MET003NEWEQDQ01+000000PRSWM2
0114827980999991994030700004-07100-034867FM-12+0007SBJP V0200901N00261220001CN0040001N9+02801+02421101311ADDAA106000091AG14000GF104991041071008001001001KA1240M+03141MA1999999101221MD1999999+0061REMSYN016 333 10314 58006
0142827980999991994030712004-07100-034867FM-12+0007SBJP V0200901N00261012001CN0040001N9+02841+02351101511ADDAA124007091AG10006AY161061AY221061GF105991051081008001001001KA1240N+02421MA1999999101421MD1999999+0261MW1001REMSYN022 333 20242 58026 60074
0072827980999991994030716004-07100-034867FM-15+0007SBJP V0200701N00411006001CN0112651N1+03201+02201999999ADDAG11999GA1071+006009999MA1101021999999REMMET003NEWEQDQ01+000000PRSWM2
0072827980999991994030717004-07100-034867FM-15+0007SBJP V0200501N00511220001CN0112651N1+03101+02301999999ADDAG11999GA1021+006009999MA1100911999999REMMET003NEWEQDQ01+000000PRSWM2
0088827980999991994030718004-07100-034867FM-15+0007SBJP V0200601N00411220001CN0112651N1+03101+02301999999ADDAG11000GA1021+006009999GA2021+090009999MA1100811999999REMMET003NEWEQDQ01+000000PRSWM2
0072827980999991994030719004-07100-034867FM-15+0007SBJP V0200301N00361220001CN0112651N1+03001+02301999999ADDAG11999GA1021+006009999MA1100811999999REMMET003NEWEQDQ01+000000PRSWM2
0142827980999991994030812004-07100-034867FM-12+0007SBJP V0209991C00001007501CN0040001N9+02841+02331101311ADDAA124001091AG10006AY161061AY221061GF105991051071008001001001KA1240N+02401MA1999999101221MD1999999-0201MW1001REMSYN022 333 20240 59020 60014
0088827980999991994030817004-07100-034867FM-15+0007SBJP V0200301N00361075001CN0112651N1+03101+02301999999ADDAG11999GA1021+006009999GA2071+075009999MA1100911999999REMMET003NEWEQDQ01+000000PRSWM2
0136827980999991994030818004-07100-034867SY-MT+0007SBJP V0200901N00311220001CN0040001N9+02941+02361101261ADDAA106000091AG14000GA1021+006009999GA2021+075009999GF104991041081008001001001MA1999999101171MD1999999+0021REMSYN010 333 58002MET003NEW
0072827980999991994030819004-07100-034867FM-15+0007SBJP V0200501N00411220001CN0112651N1+03001+02301999999ADDAG11999GA1021+075009999MA1100811999999REMMET003NEWEQDQ01+000000PRSWM2
0072827980999991994030820004-07100-034867FM-15+0007SBJP V0200601N00361220001CN0112651N1+02901+02301999999ADDAG11999GA1021+075009999MA1100811999999REMMET003NEWEQDQ01+000000PRSWM2
0206827980999991994030912004-07100-034867SY-MT+0007SBJP V0200501N00151007501CN9999999N9+02921+02321101291ADDAA106000091AG11000GA1021+006009999GA2021+006009999GF105991051021008001001001KA1240N+02701MA1101191101201MD1999999-0021REMSYN016 333 20270 59002MET003NEWEQDQ01+040002VODIS Q02+000002VOVAR Q03+000000PRSWM2
0095827980999991994030918004-07100-034867FM-12+0007SBJP V0200501N00311220001CN0040001N9+02961+02311101241ADDAA106000091AG14000GF103991031021008001001001MA1999999101151MD1999999-0021REMSYN010 333 59002
0114827980999991994031000004-07100-034867FM-12+0007SBJP V0200901N00311007501CN0040001N9+02801+02461101271ADDAA106000091AG14000GF106991061021008001001001KA1240M+03121MA1999999101181MD1999999-0021REMSYN016 333 10312 59002
0158827980999991994031012004-07100-034867SY-MT+0007SBJP V0200901N00261220001CN0040001N9+03001+02371101271ADDAA106000091AG14000GA1071+006009999GF199999031011008001001001KA1240N+02491MA1999999101181MD1999999-0021REMSYN016 333 20249 59002MET003NEWEQDQ01+000032SCOTCV
0095827980999991994031018004-07100-034867FM-12+0007SBJP V0200901N00311220001CN0040001N9+03021+02391101141ADDAA106000091AG14000GF102991021011008001001001MA1999999101051MD1999999-0101REMSYN010 333 59010
0072827980999991994031110004-07100-034867FM-15+0007SBJP V0202501N00211220001CN0112651N1+02701+02301999999ADDAG11999GA1021+006009999MA1101191999999REMMET003NEWEQDQ01+000000PRSWM2
0072827980999991994031111004-07100-034867FM-15+0007SBJP V0202901N00261220001CN0112651N1+02801+02301999999ADDAG11999GA1021+006009999MA1101191999999REMMET003NEWEQDQ01+000000PRSWM2
0174827980999991994031112004-07100-034867SY-MT+0007SBJP V0200901N00311006001CN0040001N1+02911+02361101351ADDAA106000091AG11000GA1071+006009999GF199999051081008001001001KA1240N+02511MA1101191101261MD1999999+0081REMSYN016 333 20251 58008MET003NEWEQDQ01+000052SCOTCVQ02+000000PRSWM2
0072827980999991994031113004-07100-034867FM-15+0007SBJP V0200201N00311006001CN0112651N1+03101+02301999999ADDAG11999GA1071+006009999MA1101191999999REMMET003NEWEQDQ01+000000PRSWM2
0072827980999991994031114004-07100-034867FM-15+0007SBJP V0200701N00411006001CN0112651N1+03101+02301999999ADDAG11999GA1071+006009999MA1101191999999REMMET003NEWEQDQ01+000000PRSWM2
0072827980999991994031115004-07100-034867FM-15+0007SBJP V0200401N00311220001CN0112651N1+03101+02201999999ADDAG11000GA1021+006009999MA1101081999999REMMET003NEWEQDQ01+000000PRSWM2
0095827980999991994031118004-07100-034867FM-12+0007SBJP V0200901N00261220001CN0040001N9+03001+02391101111ADDAA106000091AG14000GF104991041021008001001001MA1999999101021MD1999999-0031REMSYN010 333 59003
0072827980999991994031120004-07100-034867FM-15+0007SBJP V0200401N00511220001CN0112651N1+02901+02401999999ADDAG11999GA1021+006009999MA1100911999999REMMET003NEWEQDQ01+000000PRSWM2
0103827980999991994031121004-07100-034867FM-12+0007SBJP V0200901N00461220001CN0200001N9+02881+02031100931ADDAG12000GF101991011011008001001001MA1999999100841MD1999999-0041REMSYN010 333 59004EQDQ01+999990APOSP 
0114827980999991994031212004-07100-034867FM-12+0007SBJP V0200901N00311012001CN0040001N9+03001+02321101351ADDAA106000091AG14000GF105991051081008001001001KA1240N+02561MA1999999101261MD1999999+0001REMSYN016 333 20256 58000
0095827980999991994031218004-07100-034867FM-12+0007SBJP V0200901N00411220001CN0040001N9+03041+02311101071ADDAA106000091AG14000GF103991031021008001001001MA1999999100981MD1999999-0041REMSYN010 333 59004
0133827980999991994031312004-07100-034867FM-12+0007SBJP V0200901N00261220001CN0040001N9+02981+02421101291ADDAA106000091AG14000GF103991031011008001001001KA1240N+99999MA1999999101201MD1999999-0061REMSYN016 333 20316 59006EQDQ01 +03162ATMN  
0097827980999991994031317004-07100-034867FM-15+0007SBJP V0202701N00411030001CN0060001N1+02201+02201999999ADDAG11999GA1021+006009999GA2021+012009099GA3071+030009999MA1101291999999MW1811MW2951REMMET003NEW
0130827980999991994031318004-07100-034867FM-12+0007SBJP V0200501N00411220001CN0040001N9+03022+02311101091ADDAA106000091AG14000GA1001+999999999GF100991001001999999001001MA1999999101001MD1999999+0021REMSYN010 333 58002EQDQ01+030343ATOT  
0234827980999991994031412004-07100-034867SY-MT+0007SBJP V0200501N00311030001CN0040001N1+03001+02421101411ADDAA124004091AG11006AY161061AY221061GA1021+005409999GA2021+006009999GA3071+030009999GF199999051071008001001001KA1240N+02501MA1101191101321MD1999999+0121MW1001REMSYN022 333 20250 58012 60044MET003NEWEQDQ01+000052SCOTCVQ02+000000PRSWM2
0104827980999991994031413004-07100-034867FM-15+0007SBJP V0200701N00411030001CN0112651N1+03001+02401999999ADDAG11999GA1021+005409999GA2021+006009999GA3071+030009999MA1101191999999REMMET003NEWEQDQ01+000000PRSWM2
0088827980999991994031414004-07100-034867FM-15+0007SBJP V0200901N00511030001CN0112651N1+03001+02401999999ADDAG11999GA1021+006009999GA2071+030009999MA1101191999999REMMET003NEWEQDQ01+000000PRSWM2
0088827980999991994031415004-07100-034867FM-15+0007SBJP V0200701N00411220001CN0112651N1+03101+02301999999ADDAG11000GA1021+006009999GA2021+030009999MA1101191999999REMMET003NEWEQDQ01+000000PRSWM2
0072827980999991994031417004-07100-034867FM-15+0007SBJP V0201001N00511006001CN0112651N1+03101+02401999999ADDAG11999GA1071+006009999MA1101021999999REMMET003NEWEQDQ01+000000PRSWM2
0072827980999991994031510004-07100-034867FM-15+0007SBJP V0201001N00261220001CN0112651N1+02701+02401999999ADDAG11999GA1021+006009999MA1101021999999REMMET003NEWEQDQ01+000000PRSWM2
0202827980999991994031512004-07100-034867SY-MT+0007SBJP V0200501N00311006001CN0040001N1+02961+02401101331ADDAA124015091AG10006AY161061AY221061GA1071+006009999GF199999051081008001001001KA1240N+02501MA1101081101241MD1999999-0081MW1001REMSYN022 333 20250 59008 60154MET003NEWEQDQ01+000052SCOTCVQ02+000000PRSWM2
0088827980999991994031516004-07100-034867FM-15+0007SBJP V0200701N00511220001CN0112651N1+03101+02201999999ADDAG11999GA1021+006009999GA2021+030009999MA1101021999999REMMET003NEWEQDQ01+000000PRSWM2
0088827980999991994031517004-07100-034867FM-15+0007SBJP V0200501N00411220001CN0112651N1+03101+02201999999ADDAG11999GA1021+006009999GA2021+030009999MA1101021999999REMMET003NEWEQDQ01+000000PRSWM2
0088827980999991994031518004-07100-034867FM-15+0007SBJP V0200701N00311030001CN0112651N1+03101+02301999999ADDAG11000GA1021+006009999GA2071+030009999MA1100911999999REMMET003NEWEQDQ01+000000PRSWM2
0142827980999991994031612004-07100-034867FM-12+0007SBJP V0200901N00311007501CN0040001N9+02881+02541101271ADDAA124011091AG10006AY161061AY221061GF105991051071008001001001KA1240N+02481MA1999999101181MD1999999-0061MW1001REMSYN022 333 20248 59006 60114
0167827980999991994031618004-07100-034867SY-MT+0007SBJP V0200901N00261012001CN9999999N9+03001+02391101061ADDAA106000091AG11000GA1021+006009999GA2021+090009999GF105991051081008001001001MA1100911100971REMSYN004 333MET003NEWEQDQ01+040002VODIS Q02+000002VOVAR Q03+000000PRSWM2
0221827980999991994031712004-07100-034867SY-MT+0007SBJP V0200901N00311006001CN9999999N9+02961+02331101291ADDAA124001091AG11006AY161061AY221061GA1071+006009999GF199999061091008001001001MA1101291101201MD1999999+0021MW1001REMSYN022 333 20/// 58002 60014MET003NEWEQDQ01+000062SCOTCVQ02+040002VODIS Q03+000002VOVAR Q04+000000PRSWM2
0072827980999991994031716004-07100-034867FM-15+0007SBJP V0200801N00311220001CN0112651N1+03101+02101999999ADDAG11999GA1021+006009999MA1101021999999REMMET003NEWEQDQ01+000000PRSWM2
0072827980999991994031717004-07100-034867FM-15+0007SBJP V0200501N00411220001CN0112651N1+03101+02101999999ADDAG11999GA1021+006009999MA1100911999999REMMET003NEWEQDQ01+000000PRSWM2
0171827980999991994031718004-07100-034867SY-MT+0007SBJP V0201401N00411220001CN0040001N9+03001+02391101051ADDAA106000091AG14000GA1021+006009999GA2021+090009999GF199999001001999999001001MA1999999100961MD1999999-0011REMSYN010 333 59001MET003NEWEQDQ01+000002SCOTCVQ02+000992SCOLCB
0096827980999991994031812004-07100-034867FM-12+0007SBJP V0201401N00311007501CN0040001N9+02961+02401101331ADDAA106000091AG10000GF106991061091008001001001MA1999999101241MD1999999+0041REMSYN011 333 58004;
0088827980999991994031816004-07100-034867FM-15+0007SBJP V0200901N00511030001CN0112651N1+02901+02401999999ADDAG11999GA1021+006009999GA2071+030009999MA1101021999999REMMET003NEWEQDQ01+000000PRSWM2
0142827980999991994031912004-07100-034867FM-12+0007SBJP V0201401N00211007501CN0100001N9+02561+02481101201ADDAA124019091AG10006AY161061AY221061GF108991081071008001999999KA1240N+02361MA1999999100891MD1999999-0031MW1031REMSYN022 333 20236 59003 60194
0072827980999991994031917004-07100-034867FM-15+0007SBJP V0201101N00361006001CN0112651N1+03101+02301999999ADDAG11999GA1071+006009999MA1100911999999REMMET003NEWEQDQ01+000000PRSWM2
0134827980999991994031918004-07100-034867FM-12+0007SBJP V0201401N00311220001CN0040001N9+03001+02511101061ADDAA106000291AA299000191AG10006AY161061AY221061GF103991031021008001001001MA1999999100971MD1999999-0091MW1001REMSYN016 333 59009 69921
0088827980999991994032011004-07100-034867FM-15+0007SBJP V0201701N00211220001CN0112651N1+02701+02401999999ADDAG11999GA1021+006009999GA2021+090009999MA1101191999999REMMET003NEWEQDQ01+000000PRSWM2
0088827980999991994032012004-07100-034867FM-15+0007SBJP V0201301N00311006001CN0112651N1+02801+02501999999ADDAG11000GA1021+004809999GA2071+006009999MA1101191999999REMMET003NEWEQDQ01+000000PRSWM2
0072827980999991994032016004-07100-034867FM-15+0007SBJP V0201001N00411006001CN0112651N1+03101+02801999999ADDAG11999GA1071+006009999MA1101081999999REMMET003NEWEQDQ01+000000PRSWM2
0072827980999991994032017004-07100-034867FM-15+0007SBJP V0201201N00361006001CN0112651N1+03101+02301999999ADDAG11999GA1071+006009999MA1101021999999REMMET003NEWEQDQ01+000000PRSWM2
0072827980999991994032018004-07100-034867FM-15+0007SBJP V0201101N00511006001CN0112651N1+03001+02401999999ADDAG11000GA1071+006009999MA1100911999999REMMET003NEWEQDQ01+000000PRSWM2
0123827980999991994032112004-07100-034867FM-12+0007SBJP V0201401N00151007501CN0040001N9+02891+02521101361ADDAA124020091AG10006AY161061AY221061GF107991071041008001001001MA1999999101271MD1999999+0011MW1001REMSYN016 333 58001 60204
0101827980999991994032118004-07100-034867FM-12+0007SBJP V0201401N00411007501CN0040001N9+03001+02441101041ADDAA106000591AG10000GF106991061041008001001001MA1999999100951MD1999999-0011REMSYN016 333 59001 69951
0072827980999991994032210004-07100-034867FM-15+0007SBJP V0202101N00211006001CN0112651N1+02601+02501999999ADDAG11999GA1071+006009999MA1101021999999REMMET003NEWEQDQ01+000000PRSWM2
0088827980999991994032211004-07100-034867FM-15+0007SBJP V0200101N00261005401CN0112651N1+02701+02401999999ADDAG11999GA1071+005409999GA2071+030009999MA1101081999999REMMET003NEWEQDQ01+000000PRSWM2
0107827980999991994032212004-07100-034867FM-12+0007SBJP V0200901N00311007501CN0040001N9+02801+02381101131ADDAA124002091AG10000GF106991061041008001001001MA1999999101041MD1999999-0031REMSYN022 333 20/// 59003 60024
0095827980999991994032218004-07100-034867FM-12+0007SBJP V0201401N00411007501CN0040001N9+02941+02381101041ADDAA106000091AG14000GF107991071041008001001001MA1999999100951MD1999999+0001REMSYN010 333 58000
0088827980999991994032302004-07100-034867FM-15+0007SBJP V0202201N00261027001CN0112651N1+02401+02301999999ADDAG11999GA1021+006009999GA2071+027009999MA1101081999999REMMET003NEWEQDQ01+000000PRSWM2
0129827980999991994032312004-07100-034867FM-12+0007SBJP V0201401N00261007501CN0040001N9+02801+02461101271ADDAA124016091AG10006AY161061AY221061GF105991051091008001001001MA1999999101181MD1999999-0141MW1001REMSYN022 333 20/// 59014 60164
0114827980999991994032318004-07100-034867FM-12+0007SBJP V0201401N00311007501CN0040001N9+02441+02381100162ADDAA106000091AG14000GF105991051071008001001001MA1999999100961MD1999999-0011REMSYN010 333 59001EQDQ01+100163APOSLP
0088827980999991994032319004-07100-034867FM-15+0007SBJP V0201001N00411220001CN0112651N1+02901+02201999999ADDAG11999GA1021+006009999GA2021+030009999MA1100911999999REMMET003NEWEQDQ01+000000PRSWM2
0088827980999991994032320004-07100-034867FM-15+0007SBJP V0201001N00311220001CN0112651N1+02901+02401999999ADDAG11999GA1021+006009999GA2021+030009999MA1101021999999REMMET003NEWEQDQ01+000000PRSWM2
0088827980999991994032416004-07100-034867FM-15+0007SBJP V0201201N00511090001CN0112651N1+03101+02301999999ADDAG11999GA1021+006009999GA2071+090009999MA1101081999999REMMET003NEWEQDQ01+000000PRSWM2
0088827980999991994032417004-07100-034867FM-15+0007SBJP V0201001N00361220001CN0112651N1+03001+02201999999ADDAG11999GA1021+006009999GA2021+030009999MA1101081999999REMMET003NEWEQDQ01+000000PRSWM2
0191827980999991994032512004-07100-034867SY-MT+0007SBJP V0209991C00001030001CN0040001N9+02861+02751101581ADDAA124021091AG10006AY161061AY221061GA1021+004509999GA2021+006009999GA3071+030009999GF108991081041008001999999MA1999999101491MD1999999+0101MW1211REMSYN022 333 20/// 58010 60214MET008NEW RERA
0123827980999991994032518004-07100-034867FM-12+0007SBJP V0201401N00411007501CN0040001N9+02761+02481101341ADDAA106013091AG10006AY161061AY221061GF108991081041008001999999MA1999999101251MD1999999+0231MW1211REMSYN016 333 58023 60131
0221827980999991994032612004-07100-034867SY-MT+0007SBJP V0201401N00311030001CN9999999N9+02971+02351101371ADDAA124013091AG13000GA1021+006009999GA2071+030009999GF199999051041008001001001MA1101291101281MD1999999-0211MW1001REMSYN022 333 20/// 59021 60134MET003NEWEQDQ01+000052SCOTCVQ02+040002VODIS Q03+000002VOVAR Q04+000000PRSWM2
0123827980999991994032618004-07100-034867FM-12+0007SBJP V0209991C00001007501CN0040001N9+02731+02471101201ADDAA106010091AG10006AY161061AY221061GF108991081041008001999999MA1999999101111MD1999999-0101MW1001REMSYN016 333 59010 60101
0173827980999991994032712004-07100-034867SY-MT+0007SBJP V0209991C00001006001CN0040001N9+02821+02421101391ADDAA124011091AG10006AY161061AY221061GA1071+006009999GF199999051081008001001001MA1999999101301MD1999999+0021MW1601REMSYN022 333 20/// 58002 60114MET003NEWEQDQ01+000052SCOTCV
0075827980999991994032718004-07100-034867FM-12+0007SBJP V0201401N00311220001CN0040001N9+02941+02431101071ADDAA106000091AG14000GF103991031021008001001001MA1999999100981REMSYN004 333
0104827980999991994032810004-07100-034867FM-15+0007SBJP V0201801N00261030001CN0112651N1+02501+02401999999ADDAG11999GA1021+003009999GA2021+005409999GA3071+030009999MA1101021999999REMMET003NEWEQDQ01+000000PRSWM2
0073827980999991994032810204-07100-034867FM-16+0007SBJP V0201201N00261220001CN0030001N1+99999+99999999999ADDAG11999GA1021+003009999MW1631REMMET032NEW S CT018 BKN100 24/24 Q1011 ?
0095827980999991994032918004-07100-034867FM-12+0007SBJP V0201401N00311007501CN0040001N9+02981+02401101051ADDAA106000091AG14000GF105991051091008001001001MA1999999100961MD1999999+0061REMSYN010 333 58006
0123827980999991994033018004-07100-034867FM-12+0007SBJP V0201401N00311007501CN0040001N9+02781+02301101261ADDAA106011091AG10006AY161061AY221061GF108991081041008001999999MA1999999101171MD1999999+0161MW1001REMSYN016 333 58016 60111
0095827980999991994033118004-07100-034867FM-12+0007SBJP V0201401N00311007501CN0040001N9+02831+02461101241ADDAA106000091AG14000GF106991061091008001001001MA1999999101151MD1999999-0021REMSYN010 333 59002
0107827980999991994040212004-07100-034867FM-12+0007SBJP V0201401N00311007501CN0040001N9+02841+02281101421ADDAA124006091AG10000GF108991081091008001999999MA1999999101331MD1999999-0031REMSYN022 333 20/// 59003 60064
0095827980999991994040418004-07100-034867FM-12+0007SBJP V0201401N00261220001CN0040001N9+02941+02491100961ADDAA106000091AG14000GF104991041021008001001001MA1999999100871MD1999999-0241REMSYN010 333 59024
0129827980999991994040612004-07100-034867FM-12+0007SBJP V0209991C00001007501CN0040001N9+02541+02421101301ADDAA124006091AG10005AY161061AY221061GF108991081041008001999999MA1999999101211MD1999999+0091MW1211REMSYN022 333 20/// 58009 60064
0129827980999991994040712004-07100-034867FM-12+0007SBJP V0201401N00311007501CN0040001N9+02891+02431101201ADDAA124017091AG10005AY161061AY221061GF106991061091008001001001MA1999999101111MD1999999-0101MW1001REMSYN022 333 20/// 59010 60174
0101827980999991994040812004-07100-034867FM-12+0007SBJP V0200901N00261220001CN0040001N9+02901+02321101171ADDAA106000091AG14000GF104991041021008001001001MA1999999101081MD1999999-0031REMSYN016 333 20/// 59003
0095827980999991994040818004-07100-034867FM-12+0007SBJP V0201401N00261012001CN0040001N9+02941+02311101011ADDAA106000091AG14000GF105991051081008001001001MA1999999100921MD1999999-0021REMSYN010 333 59002
0159827980999991994040912004-07100-034867FM-12+0007SBJP V0201401N00311012001CN9999999N9+03001+02371101241ADDAA124000691AA299000591AG10005AY161061AY221061GF105991051081008001001001MA1999999101151MD1999999+0071MW1001REMSYN022 333 20/// 58007 69964EQDQ01+040002VODIS 
0095827980999991994040918004-07100-034867FM-12+0007SBJP V0201401N00411220001CN0040001N9+02961+02281100971ADDAA106000091AG14000GF104991041021008001001001MA1999999100881MD1999999-0041REMSYN010 333 59004
0159827980999991994041012004-07100-034867FM-12+0007SBJP V0201401N00311007501CN9999999N9+02961+02281101251ADDAA124000691AA299000591AG10005AY161061AY221061GF106991061091008001001001MA1999999101161MD1999999+0011MW1001REMSYN022 333 20/// 58001 69964EQDQ01+040002VODIS 
0129827980999991994041112004-07100-034867FM-12+0007SBJP V0201401N00311007501CN0040001N9+02981+02421101351ADDAA124000191AG10005AY161061AY221061GF105991051021008001001001MA1999999101261MD1999999+0101MW1001REMSYN022 333 20/// 58010 69914
0129827980999991994041212004-07100-034867FM-12+0007SBJP V0209999999999007501CN0020001N9+02621+02391101571ADDAA124011091AG10005AY161061AY221061GF108991081091008001999999MA1999999101481MD1999999+0221MW1001REMSYN022 333 20/// 58022 60114
0091827980999991994041216004-07100-034867FM-16+0007SBJP V0201001N00261006001CN0060001N1+99999+99999999999ADDAG11999GA1021+003009999GA2021+005409999GA3021+006009099MA1101291999999MW1611REMMET003NEW
0075827980999991994041217004-07100-034867FM-15+0007SBJP V0203401N00151220001CN0060001N1+02501+02401999999ADDAG11999GA1021+004509999GA2021+006009999MA1101081999999MW1611REMMET003NEW
0123827980999991994041218004-07100-034867FM-12+0007SBJP V0209991C00001007501CN0040001N9+02421+02351101221ADDAA106008091AG10005AY161061AY221061GF108991081091008001999999MA1999999101131MD1999999+0231MW1211REMSYN016 333 58023 60081
0088827980999991994041222004-07100-034867FM-15+0007SBJP V0201601N00211030001CN0112651N1+02401+02401999999ADDAG11999GA1021+006009999GA2071+030009999MA1101081999999REMMET003NEWEQDQ01+000000PRSWM2
0173827980999991994041312004-07100-034867SY-MT+0007SBJP V0201401N00311006001CN0020001N9+02961+02381101351ADDAA124009091AG10005AY161061AY221061GA1071+006009999GF199999051081008001001001MA1999999101261MD1999999-0221MW1001REMSYN022 333 20/// 59022 60094MET003NEWEQDQ01+000052SCOTCV
0090827980999991994041316004-07100-034867FM-15+0007SBJP V0201301N00511220001CN0112651N1+03001+02101999999ADDAG10999GA1021+006009999GA2021+030009999MA1101081999999REMMET005NEW ;EQDQ01+000000PRSWM2
0074827980999991994041317004-07100-034867FM-15+0007SBJP V0200801N00511006001CN0112651N1+03001+02201999999ADDAG10999GA1071+006009999MA1101021999999REMMET005NEW ;EQDQ01+000000PRSWM2
0190827980999991994041318004-07100-034867SY-MT+0007SBJP V0201401N00311220001CN9999999N9+02981+02371101171ADDAA106000091AG10000GA1021+006009999GA2021+030009999GF104991041081008001001001MA1101021101081MD1999999-0051REMSYN011 333 59005;MET005NEW ;EQDQ01+040002VODIS Q02+000002VOVAR Q03+000000PRSWM2
0115827980999991994041400004-07100-034867FM-12+0007SBJP V0201401N00311007501CN0040001N9+02721+02451101331ADDAA106000091AG10000GF106991061041008001001001KA1240M+03041MA1999999101241MD1999999+0021REMSYN017 333 10304 58002;
0149827980999991994041412004-07100-034867FM-12+0007SBJP V0201401N00411007501CN9999999N9+02921+02241101411ADDAA124007091AG10005AY161061AY221061GF106991061091008001001001MA1999999101321MD1999999+0061MW1001REMSYN023 333 20/// 58006 60074;EQDQ01+040002VODIS 
0090827980999991994041417004-07100-034867FM-15+0007SBJP V0201201N00511220001CN0112651N1+03001+02201999999ADDAG10999GA1021+006009999GA2021+090009999MA1101021999999REMMET005NEW ;EQDQ01+000000PRSWM2
0096827980999991994041418004-07100-034867FM-12+0007SBJP V0201401N00411007501CN0040001N9+02921+02361101051ADDAA106000091AG10000GF105991051091008001001001MA1999999100961MD1999999-0061REMSYN011 333 59006;
0102827980999991994041512004-07100-034867FM-12+0007SBJP V0201401N00311007501CN0040001N9+02931+02191101481ADDAA106000091AG10000GF105991051021008001001001MA1999999101391MD1999999+0041REMSYN017 333 20/// 58004;
0096827980999991994041518004-07100-034867FM-12+0007SBJP V0201401N00311007501CN0040001N9+02921+02271101141ADDAA106000091AG10000GF107991071041008001001001MA1999999101051MD1999999+0091REMSYN011 333 58009;
0096827980999991994041612004-07100-034867FM-12+0007SBJP V0209999999999007501CN0040001N9+02901+02391101381ADDAA106000091AG10000GF105991051041008001001001MA1999999101291MD1999999-0101REMSYN011 333 59010;
0095827980999991994041617004-07100-034867FM-15+0007SBJP V0201201N00411006001CN0112651N1+99999+99999999999ADDAG10999GA1071+006009999GA2021+030009999REMMET025NEW BK N300 28/23 Q1010 ;EQDQ01+000000PRSWM2
0174827980999991994041618004-07100-034867SY-MT+0007SBJP V0201401N00311006001CN0040001N1+02901+02341101181ADDAA106000091AG10006GA1071+006009999GA2021+030009999GF199999051081008001001001MA1101021101091MD1999999+0041REMSYN011 333 58004;MET005NEW ;EQDQ01+000052SCOTCVQ02+000003PRSWM1
0106827980999991994041619004-07100-034867FM-15+0007SBJP V0201001N00411090001CN0112651N1+02701+02301999999ADDAG10999GA1021+006009999GA2021+030009999GA3071+090009999MA1101081999999REMMET005NEW ;EQDQ01+000000PRSWM2
0090827980999991994041620004-07100-034867FM-15+0007SBJP V0201401N00311030001CN0112651N1+02701+02301999999ADDAG10999GA1021+006009999GA2071+030009999MA1101081999999REMMET005NEW ;EQDQ01+000000PRSWM2
0143827980999991994041800004-07100-034867FM-12+0007SBJP V0201401N00261007501CN0040001N9+02501+02361101391ADDAA124003091AG10005AY161061AY221061GF108991081041008001999999KA1240M+03091MA1999999101301MD1999999-0021MW1001REMSYN023 333 10309 59002 60034;
0100827980999991994041809004-07100-034867FM-12+0007SBJP V0209999999999004201CN0500001N9+00401+99999101351ADDAG10000GF108991061051004501071999MA1999999101251MD1811202+9999EQDQ01+999990APOSP Q02+001202APC3  
0171827980999991994041812004-07100-034867FM-12+0007SBJP V0201801N001519999999N0040001N9+99999+99999101471ADDAA124080091AG10005AY161061AY221061GA1999+000159999GF108991081041008001999999MA1999999101381MD1999999+0091MW1611REMSYN029 333 20/// 58009 60804 80//4;EQDQ01    003SCCGA1
0106827980999991994041817004-07100-034867FM-15+0007SBJP V0201801N00311006001CN0112651N1+02501+02401999999ADDAG10999GA1021+003009999GA2071+006009999GA3081+027009999MA1101081999999REMMET005NEW ;EQDQ01+000000PRSWM2
0124827980999991994041818004-07100-034867FM-12+0007SBJP V0209991C00001007501CN0040001N9+02581+02421101191ADDAA106006091AG10005AY161061AY221061GF108991081041008001999999MA1999999101101MD1999999-0011MW1611REMSYN017 333 59001 60061;
0095827980999991994041912004-07100-034867FM-12+0007SBJP V0201401N00311007501CN0040001N9+02761+02481999999ADDAA124020091AG10005AY161061AY221061GF106991061041008001001001MW1001REMSYN017 333 20/// 60204;
0124827980999991994041918004-07100-034867FM-12+0007SBJP V0201401N00411007501CN0040001N9+02901+02391101251ADDAA106005091AG10005AY161061AY221061GF106991061041008001001001MA1999999101161MD1999999+0061MW1001REMSYN017 333 58006 60051;
0110827980999991994042000004-07100-034867FM-12+0007SBJP V0201401N00411012001CN0040001N9+02981+02401101291ADDAA124005091AG10005AY161061AY221061GF105991051081008001001001MA1999999101201MW1001REMSYN017 333 20/// 60054;
0074827980999991994042011004-07100-034867FM-15+0007SBJP V0201601N00311220001CN0112651N1+02701+02401999999ADDAG10999GA1021+006009999MA1101191999999REMMET005NEW ;EQDQ01+000000PRSWM2
0074827980999991994042012004-07100-034867FM-15+0007SBJP V0201201N00261220001CN0112651N1+02901+02301999999ADDAG10000GA1021+006009999MA1101191999999REMMET005NEW ;EQDQ01+000000PRSWM2
0090827980999991994042016004-07100-034867FM-15+0007SBJP V0201001N00621005401CN0112651N1+03001+02301999999ADDAG10999GA1071+005409999GA2021+030009999MA1101021999999REMMET005NEW ;EQDQ01+000000PRSWM2
0090827980999991994042017004-07100-034867FM-15+0007SBJP V0201201N00511005401CN0112651N1+02901+02401999999ADDAG10999GA1071+005409999GA2071+030009999MA1101021999999REMMET005NEW ;EQDQ01+000000PRSWM2
0174827980999991994042018004-07100-034867SY-MT+0007SBJP V0201401N00311005401CN0040001N9+02941+02431101201ADDAA106000091AG10000GA1071+005409999GA2071+030009999GF199999061071008001001001MA1101021101111MD1999999+0001REMSYN011 333 58000;MET005NEW ;EQDQ01+000062SCOTCVQ02+000000PRSWM2
0090827980999991994042108004-07100-034867FM-15+0007SBJP V0202001N00261220001CN0112651N1+02301+02201999999ADDAG10999GA1021+006009999GA2021+090009999MA1101081999999REMMET005NEW ;EQDQ01+000000PRSWM2
0074827980999991994042111004-07100-034867FM-15+0007SBJP V0201801N00261220001CN0112651N1+02701+02401999999ADDAG10999GA1021+006009999MA1101191999999REMMET005NEW ;EQDQ01+000000PRSWM2
0176827980999991994042112004-07100-034867SY-MT+0007SBJP V0201401N00311012001CN0040001N1+02961+02401101381ADDAA124003091AG10005AY161061AY221061GA1021+006009999GF105991051081008001001001MA1101291101291MD1999999+0091MW1001REMSYN023 333 20/// 58009 60034;MET005NEW ;EQDQ01+000000PRSWM2
0074827980999991994042113004-07100-034867FM-15+0007SBJP V0201201N00311006001CN0112651N1+03001+02201999999ADDAG10999GA1071+006009999MA1101191999999REMMET005NEW ;EQDQ01+000000PRSWM2
0074827980999991994042116004-07100-034867FM-15+0007SBJP V0201001N00261006001CN0112651N1+03101+02201999999ADDAG10999GA1071+006009999MA1101021999999REMMET005NEW ;EQDQ01+000000PRSWM2
0142827980999991994042118004-07100-034867SY-MT+0007SBJP V0201401N00311007501CN0040001N1+02941+02381101131ADDAA106000091AG10000GA1021+006009999GF105991051071008001001001MA1100911101041MD1999999-0121REMSYN011 333 59012;MET005NEW ;EQDQ01+000000PRSWM2
0196827980999991994042212004-07100-034867SY-MT+0007SBJP V0201401N00411006001CN9999999N9+02921+02321101391ADDAA106000091AG10000GA1071+006009999GA2071+030009999GF199999061041008001001001MA1101291101301MD1999999+0011REMSYN017 333 20/// 58001;MET005NEW ;EQDQ01+000062SCOTCVQ02+040002VODIS Q03+000000PRSWM2
0096827980999991994042218004-07100-034867FM-12+0007SBJP V0201401N00411007501CN0040001N9+02921+02321101291ADDAA106000091AG10000GF106991061041008001001001MA1999999101201MD1999999+0041REMSYN011 333 58004;
0143827980999991994042300004-07100-034867FM-12+0007SBJP V0201401N00461007501CN0040001N9+02701+02431101391ADDAA106000591AG10005AY161061AY221061GF107991071041008001001001KA1240M+03041MA1999999101301MD1999999+0061MW1001REMSYN023 333 10304 58006 69941;
0149827980999991994042312004-07100-034867FM-12+0007SBJP V0201401N00361007501CN9999999N9+02891+02221101381ADDAA124000591AG10005AY161061AY221061GF106991061091008001001001MA1999999101291MD1999999-0011MW1001REMSYN023 333 20/// 59001 69954;EQDQ01+040002VODIS 
0074827980999991994042316004-07100-034867FM-15+0007SBJP V0201301N00311220001CN0112651N1+03101+02101999999ADDAG10999GA1021+006009999MA1101081999999REMMET005NEW ;EQDQ01+000000PRSWM2
0074827980999991994042317004-07100-034867FM-15+0007SBJP V0201201N00411220001CN0112651N1+03001+02101999999ADDAG10999GA1021+006009999MA1101081999999REMMET005NEW ;EQDQ01+000000PRSWM2
0096827980999991994042318004-07100-034867FM-12+0007SBJP V0201401N00311220001CN0040001N9+02941+02381101191ADDAA106000091AG10000GF104991041021008001001001MA1999999101101MD1999999-0101REMSYN011 333 59010;
0130827980999991994042412004-07100-034867FM-12+0007SBJP V0201401N00311007501CN0040001N9+02881+02321101451ADDAA124001091AG10005AY161061AY221061GF105991051071008001001001MA1999999101361MD1999999+0071MW1001REMSYN023 333 20/// 58007 60014;
0090827980999991994042416004-07100-034867FM-15+0007SBJP V0201401N00261030001CN0112651N1+02901+02201999999ADDAG10999GA1021+006009999GA2071+030009999MA1101081999999REMMET005NEW ;EQDQ01+000000PRSWM2
0096827980999991994042418004-07100-034867FM-12+0007SBJP V0201401N00311007501CN0040001N9+02871+02211101281ADDAA106000091AG10000GF105991051071008001001001MA1999999101191MD1999999+0091REMSYN011 333 58009;
0090827980999991994042510004-07100-034867FM-15+0007SBJP V0201801N00311220001CN0112651N1+02401+02301999999ADDAG10999GA1021+006009999GA2021+090009999MA1101291999999REMMET005NEW ;EQDQ01+000000PRSWM2
0074827980999991994042511004-07100-034867FM-15+0007SBJP V0201901N00411220001CN0112651N1+02601+02201999999ADDAG10999GA1021+006009999MA1101291999999REMMET005NEW ;EQDQ01+000000PRSWM2
0192827980999991994042512004-07100-034867SY-MT+0007SBJP V0201801N00261006001CN0040001N1+02741+02361101381ADDAA124006091AG10005AY161061AY221061GA1071+006009999GF199999051041008001001001MA1101391101291MD1999999-0071MW1001REMSYN023 333 20/// 59007 60064;MET005NEW ;EQDQ01+000052SCOTCVQ02+000000PRSWM2
0074827980999991994042513004-07100-034867FM-15+0007SBJP V0201501N00361006001CN0112651N1+02801+02301999999ADDAG10999GA1071+006009999MA1101391999999REMMET005NEW ;EQDQ01+000000PRSWM2
0074827980999991994042515004-07100-034867FM-15+0007SBJP V0201301N00311220001CN0112651N1+02901+02201999999ADDAG10000GA1021+006009999MA1101191999999REMMET005NEW ;EQDQ01+000000PRSWM2
0074827980999991994042517004-07100-034867FM-15+0007SBJP V0201201N00411006001CN0112651N1+03001+02301999999ADDAG10999GA1071+006009999MA1101021999999REMMET005NEW ;EQDQ01+000000PRSWM2
0090827980999991994042518004-07100-034867FM-15+0007SBJP V0201301N00511006001CN0112651N1+02301+02201999999ADDAG10000GA1071+006009999GA2021+030009999MA1101021999999REMMET005NEW ;EQDQ01+000000PRSWM2
0192827980999991994042612004-07100-034867SY-MT+0007SBJP V0201401N00311007501CN0040001N1+02831+02351101311ADDAA124013091AG10005AY161061AY221061GA1021+006009999GA2021+090009999GF105991051041008001001001MA1101191101221MD1999999-0071MW1001REMSYN023 333 20/// 59007 60134;MET005NEW ;EQDQ01+000000PRSWM2
0096827980999991994042618004-07100-034867FM-12+0007SBJP V0201401N00411007501CN0040001N9+02921+02341101111ADDAA106000091AG10000GF105991051041008001001001MA1999999101021MD1999999-0121REMSYN011 333 59012;
0130827980999991994042712004-07100-034867FM-12+0007SBJP V0201401N00361007501CN0040001N9+02681+02261101261ADDAA124004091AG10005AY161061AY221061GF106991061041008001001001MA1999999101171MD1999999-0051MW1001REMSYN023 333 20/// 59005 60044;
0096827980999991994042718004-07100-034867FM-12+0007SBJP V0201401N00411007501CN0040001N9+02921+02291101081ADDAA106000091AG10000GF106991061091008001001001MA1999999100991MD1999999-0031REMSYN011 333 59003;
0115827980999991994042800004-07100-034867FM-12+0007SBJP V0201801N00261007501CN0020001N9+02561+02211101331ADDAA106000091AG10000GF105991051091008001001001KA1240M+03021MA1999999101241MD1999999+0041REMSYN017 333 10302 58004;
0090827980999991994042802004-07100-034867FM-15+0007SBJP V0201901N00311006001CN0112651N1+02401+02301999999ADDAG10999GA1071+006009999GA2071+030009999MA1101191999999REMMET005NEW ;EQDQ01+000000PRSWM2
0090827980999991994042811004-07100-034867FM-15+0007SBJP V0201501N00261220001CN0112651N1+02701+02301999999ADDAG10999GA1021+006009999GA2021+090009999MA1101191999999REMMET005NEW ;EQDQ01+000000PRSWM2
0165827980999991994042812004-07100-034867FM-12+0007SBJP V0201401N00311007501CN9999999N9+02841+02011101361ADDAA124000191AG10005AY161061AY221061GF107991999071008001001001MA1999999101271MD1999999+0101MW1001REMSYN023 333 20/// 58010 69924;EQDQ01+000062SCOTLCQ02+040002VODIS 
0093827980999991994042814004-07100-034867FM-15+0007SBJP V0201201N00311030001CN0080001N1+02601+02301999999ADDAG10999GA1021+005409999GA2021+006009999GA3071+030009999MA1101191999999MW1161REMMET005NEW ;
0093827980999991994042816004-07100-034867FM-15+0007SBJP V0201301N00311030001CN0080001N1+02601+02101999999ADDAG10999GA1021+004509999GA2021+006009999GA3071+030009999MA1101081999999MW1161REMMET005NEW ;
0093827980999991994042817004-07100-034867FM-15+0007SBJP V0201301N00261030001CN0080001N1+02601+02201999999ADDAG10999GA1021+004509999GA2021+006009999GA3071+030009999MA1101081999999MW1161REMMET005NEW ;
0202827980999991994042818004-07100-034867SY-MT+0007SBJP V0200901N00261030001CN0020001N1+02501+02401101341ADDAA106002091AG10005AY161061AY221061GA1021+004509999GA2021+006009999GA3071+030009999GF108991081091008001999999MA1101081101251MD1999999+0261MW1601REMSYN017 333 58026 60021;MET005NEW ;EQDQ01+000000PRSWM2
0090827980999991994042911004-07100-034867FM-15+0007SBJP V0202401N00211220001CN0112651N1+02401+02301999999ADDAG10999GA1021+005409999GA2021+006009999MA1101391999999REMMET005NEW ;EQDQ01+000000PRSWM2
0130827980999991994042912004-07100-034867FM-12+0007SBJP V0209991C00001007501CN0020001N9+02701+02211101531ADDAA124037091AG10005AY161061AY221061GF108991081091008001999999MA1999999101441MD1999999+0171MW1601REMSYN023 333 20/// 58017 60374;
0090827980999991994042917004-07100-034867FM-15+0007SBJP V0201101N00411220001CN0112651N1+03001+02001999999ADDAG10999GA1021+006009999GA2021+090009999MA1101191999999REMMET005NEW ;EQDQ01+000000PRSWM2
0090827980999991994042920004-07100-034867FM-15+0007SBJP V0201201N00311090001CN0112651N1+02701+02301999999ADDAG10999GA1021+006009999GA2071+090009999MA1101191999999REMMET005NEW ;EQDQ01+000000PRSWM2
0115827980999991994043000004-07100-034867FM-12+0007SBJP V0209999999999007501CN0040001N9+02641+02371101491ADDAA106000091AG10000GF107991071041008001001001KA1240M+03001MA1999999101401MD1999999-0021REMSYN017 333 10300 59002;
0130827980999991994043012004-07100-034867FM-12+0007SBJP V0201401N00411007501CN0040001N9+02881+02351101461ADDAA124001091AG10005AY161061AY221061GF106991061091008001001001MA1999999101371MD1999999-0071MW1001REMSYN023 333 20/// 59007 60014;
0096827980999991994043018004-07100-034867FM-12+0007SBJP V0201401N00411007501CN0040001N9+02901+02221101381ADDAA106000091AG10000GF105991051091008001001001MA1999999101291MD1999999+0011REMSYN011 333 58001;
0115827980999991994050100004-07100-034867FM-12+0007SBJP V0201401N00311007501CN0040001N9+02761+02341101461ADDAA106000091AG10000GF107991071091008001001001KA1240M+03021MA1999999101371MD1999999-0031REMSYN017 333 10302 59003;
0090827980999991994050111004-07100-034867FM-15+0007SBJP V0201501N00261030001CN0112651N1+02301+02201999999ADDAG11999GA1021+005409999GA2071+030009999MA1101391999999REMMET005NEW ;EQDQ01+000000PRSWM2
0130827980999991994050112004-07100-034867FM-12+0007SBJP V0201401N00311007501CN0040001N9+02681+02201101531ADDAA124024091AG10005AY161061AY221061GF108991081091008001999999MA1999999101441MD1999999+0071MW1211REMSYN023 333 20/// 58007 60244;
0124827980999991994050118004-07100-034867FM-12+0007SBJP V0201401N00411007501CN0040001N9+02821+02381101351ADDAA106007091AG10005AY161061AY221061GF107991071041008001001001MA1999999101261MD1999999-0031MW1001REMSYN017 333 59003 60071;
0106827980999991994050209004-07100-034867FM-15+0007SBJP V0202001N00211030001CN0112651N1+02201+02201999999ADDAG10000GA1021+004509999GA2021+005409999GA3071+030009999MA1101391999999REMMET005NEW ;EQDQ01+000000PRSWM2
0208827980999991994050212004-07100-034867SY-MT+0007SBJP V0200501N00261030001CN0040001N1+02681+02351101631ADDAA124042091AG10007AY161061AY221061GA1021+005409999GA2071+030009999GF199999061071008001001001MA1101591101541MD1999999+0101MW1161REMSYN023 333 20/// 58010 60424;MET005NEW ;EQDQ01+000062SCOTCVQ02+000003PRSWM1
0106827980999991994050214004-07100-034867FM-15+0007SBJP V0201601N00411030001CN0112651N1+02701+02301999999ADDAG10999GA1021+005409999GA2071+030009999GA3071+090009999MA1101391999999REMMET005NEW ;EQDQ01+000000PRSWM2
0090827980999991994050215004-07100-034867FM-15+0007SBJP V0201501N00361005401CN0112651N1+02801+02401999999ADDAG10000GA1071+005409999GA2071+030009999MA1101391999999REMMET005NEW ;EQDQ01+000000PRSWM2
0096827980999991994050218004-07100-034867FM-12+0007SBJP V0201401N00411007501CN0020001N9+02721+02341101371ADDAA106000091AG10000GF108991081091008001999999MA1999999101281MD1999999+0021REMSYN011 333 58002;
0102827980999991994050312004-07100-034867FM-12+0007SBJP V0201401N00261007501CN0040001N9+02741+02301101491ADDAA106000091AG10000GF106991061071008001001001MA1999999101401MD1999999-0141REMSYN017 333 20/// 59014;
0096827980999991994050318004-07100-034867FM-12+0007SBJP V0201401N00261007501CN0040001N9+02841+02381101201ADDAA106000091AG10000GF105991051041008001001001MA1999999101111MD1999999-0171REMSYN011 333 59017;
0130827980999991994050412004-07100-034867FM-12+0007SBJP V0201401N00311007501CN0040001N1+02781+02401101521ADDAA124009091AG10005AY161061AY221061GF108991081041008001999999MA1999999101431MD1999999+0031MW1211REMSYN023 333 20/// 58003 60094;
0124827980999991994050418004-07100-034867FM-12+0007SBJP V0201401N00411007501CN0040001N1+02921+02411101261ADDAA106003091AG10005AY161061AY221061GF106991061041008001001001MA1999999101171MD1999999+0061MW1001REMSYN017 333 58006 60031;
0130827980999991994050512004-07100-034867FM-12+0007SBJP V0200501N00311007501CN0040001N1+02901+02371101501ADDAA124015091AG10005AY161061AY221061GF106991061041008001001001MA1999999101411MD1999999-0021MW1001REMSYN023 333 20/// 59002 60154;
0096827980999991994050518004-07100-034867FM-12+0007SBJP V0201401N00311007501CN0040001N1+02881+02321101381ADDAA106000091AG10000GF106991061041008001001001MA1999999101291MD1999999+0121REMSYN011 333 58012;
0130827980999991994050612004-07100-034867FM-12+0007SBJP V0201401N00311012001CN0040001N1+02841+02401101571ADDAA124000591AG10005AY161061AY221061GF105991051081008001001001MA1999999101481MD1999999+0071MW1001REMSYN023 333 20/// 58007 69964;
0074827980999991994050616004-07100-034867FM-15+0007SBJP V0201401N00311220001CN0112651N1+03001+02201999999ADDAG10999GA1021+006009999MA1101191999999REMMET005NEW ;EQDQ01+000000PRSWM2
0074827980999991994050617004-07100-034867FM-15+0007SBJP V0201201N00361006001CN0112651N1+03001+02301999999ADDAG10999GA1071+006009999MA1101081999999REMMET005NEW ;EQDQ01+000000PRSWM2
0158827980999991994050618004-07100-034867SY-MT+0007SBJP V0201401N00311005401CN0040001N1+02811+02441101381ADDAA106000091AG10000GA1071+005409999GF199999051071008001001001MA1101081101291MD1999999+0001REMSYN011 333 58000;MET005NEW ;EQDQ01+000052SCOTCVQ02+000000PRSWM2
0090827980999991994050620004-07100-034867FM-15+0007SBJP V0201301N00311220001CN0112651N1+02801+02301999999ADDAG10999GA1021+006009999GA2021+030009999MA1101191999999REMMET005NEW ;EQDQ01+000000PRSWM2
0090827980999991994050621004-07100-034867FM-15+0007SBJP V0201701N00411220001CN0112651N1+02701+02301999999ADDAG10000GA1021+006009999GA2021+030009999MA1101191999999REMMET005NEW ;EQDQ01+000000PRSWM2
0192827980999991994050712004-07100-034867SY-MT+0007SBJP V0201401N00411007501CN0040001N1+02811+02401101531ADDAA124011091AG10007AY161061AY221061GA1021+004509999GA2021+006009999GF105991051071008001001001MA1101291101441MD1999999-0041MW1161REMSYN023 333 20/// 59004 60114;MET005NEW ;EQDQ01+000003PRSWM1
0074827980999991994050713004-07100-034867FM-15+0007SBJP V0201301N00511006001CN0112651N1+02801+02401999999ADDAG10999GA1071+006009999MA1101291999999REMMET005NEW ;EQDQ01+000000PRSWM2
0074827980999991994050715004-07100-034867FM-15+0007SBJP V0201301N00511006001CN0112651N1+02801+02401999999ADDAG10000GA1071+006009999MA1101081999999REMMET005NEW ;EQDQ01+000000PRSWM2
0074827980999991994050818004-07100-034867FM-15+0007SBJP V0201101N00411006001CN0112651N1+02901+02301999999ADDAG10000GA1071+006009999MA1101021999999REMMET005NEW ;EQDQ01+000000PRSWM2
0130827980999991994050912004-07100-034867FM-12+0007SBJP V0209991C00001007501CN0040001N1+02791+02381101431ADDAA124007091AG10005AY161061AY221061GF107991071041008001001001MA1999999101341MD1999999+0101MW1001REMSYN023 333 20/// 58010 60074;
0096827980999991994050918004-07100-034867FM-12+0007SBJP V0201401N00411007501CN0040001N1+02871+02321101161ADDAA106000091AG10000GF106991061041008001001001MA1999999101071MD1999999+0051REMSYN011 333 58005;
0180827980999991994051012004-07100-034867SY-MT+0007SBJP V0209991C00001090001CN0040001N1+02801+02401101591ADDAA106000091AG10000GA1021+005409999GA2071+090009999GF199999061071008001001001MA1101391101501MD1999999+0161REMSYN017 333 20/// 58016;MET005NEW ;EQDQ01+000062SCOTCVQ02+000000PRSWM2
0096827980999991994051018004-07100-034867FM-12+0007SBJP V0201401N00311220001CN0040001N1+02901+02341101251ADDAA106000091AG10000GF104991041081008001001001MA1999999101161MD1999999+0091REMSYN011 333 58009;
0106827980999991994051021004-07100-034867FM-15+0007SBJP V0201301N00261090001CN0112651N1+02701+02401999999ADDAG10000GA1021+006009999GA2021+030009999GA3071+090009999MA1101191999999REMMET005NEW ;EQDQ01+000000PRSWM2
0090827980999991994051022004-07100-034867FM-15+0007SBJP V0201601N00311220001CN0112651N1+02601+02301999999ADDAG10999GA1021+006009999GA2021+030009999MA1101191999999REMMET005NEW ;EQDQ01+000000PRSWM2
0115827980999991994051100004-07100-034867FM-12+0007SBJP V0201801N00261007501CN0020001N1+02521+02311101431ADDAA106000091AG10000GF108991081091008001999999KA1240M+03021MA1999999101341MD1999999-0081REMSYN017 333 10302 59008;
0093827980999991994051111004-07100-034867FM-15+0007SBJP V0201301N00311006001CN0060001N1+02401+02401999999ADDAG10999GA1021+003009999GA2071+006009999GA3071+030009999MA1101391999999MW1611REMMET005NEW ;
0130827980999991994051112004-07100-034867FM-12+0007SBJP V0201801N00261007501CN0020001N1+02461+02341101591ADDAA124044091AG10005AY161061AY221061GF108991081091008001999999MA1999999101501MD1999999+0001MW1601REMSYN023 333 20/// 58000 60444;
0093827980999991994051116004-07100-034867FM-15+0007SBJP V0201401N00261030001CN0060001N1+02701+02401999999ADDAG10999GA1021+003009999GA2021+006009999GA3071+030009999MA1101191999999MW1161REMMET005NEW ;
0106827980999991994051117004-07100-034867FM-15+0007SBJP V0201301N00361030001CN0112651N1+02701+02301999999ADDAG10999GA1021+003009999GA2021+006009999GA3071+030009999MA1101081999999REMMET005NEW ;EQDQ01+000000PRSWM2
0186827980999991994051118004-07100-034867SY-MT+0007SBJP V0200901N00261030001CN0020001N1+02641+02331101241ADDAA106002091AG10005AY161061AY221061GA1021+003009999GA2071+030009999GF108991081091008001999999MA1101081101151MD1999999-0011MW1001REMSYN017 333 59001 60021;MET005NEW ;EQDQ01+000000PRSWM2
0130827980999991994051212004-07100-034867FM-12+0007SBJP V0209999999999007501CN0040001N1+02571+02351101431ADDAA124003091AG10005AY161061AY221061GF107991071041008001001001MA1999999101341MD1999999-0161MW1211REMSYN023 333 20/// 59016 60034;
0090827980999991994051217004-07100-034867FM-15+0007SBJP V0200701N00411030001CN0112651N1+02701+02401999999ADDAG10999GA1021+003009999GA2071+030009999MA1101081999999REMMET005NEW ;EQDQ01+000000PRSWM2
0124827980999991994051218004-07100-034867FM-12+0007SBJP V0201401N00311007501CN0200001N1+02591+02331101311ADDAA106003091AG10005AY161061AY221061GF108991081041008001999999MA1999999101221MD1999999+0071MW1001REMSYN017 333 58007 60031;
0115827980999991994051300004-07100-034867FM-12+0007SBJP V0209991C00001007501CN0040001N1+02541+02381101371ADDAA106000091AG10000GF108991081041008001999999KA1240M+02841MA1999999101281MD1999999-0011REMSYN017 333 10284 59001;
0130827980999991994051312004-07100-034867FM-12+0007SBJP V0201401N00311007501CN0040001N1+02481+02341101441ADDAA124035091AG10005AY161061AY221061GF108991081041008001999999MA1999999101451MD1999999+0111MW1001REMSYN023 333 20/// 58011 60354;
0124827980999991994051318004-07100-034867FM-12+0007SBJP V0209991C000019999999N0040001N1+02561+02401101211ADDAA106026091AG10005AY161061AY221061GF108991041041008001999999MA1999999101121MD1999999-0101MW1001REMSYN017 333 59010 60261;
0130827980999991994051412004-07100-034867FM-12+0007SBJP V0200501N00261220001CN0040001N1+02861+02441101401ADDAA124031091AG10005AY161061AY221061GF104991041081008001001001MA1999999101311MD1999999-0141MW1001REMSYN023 333 20/// 59014 60314;
0074827980999991994051415004-07100-034867FM-15+0007SBJP V0201001N00411006001CN0112651N1+02701+02401999999ADDAG10000GA1071+006009999MA1101191999999REMMET005NEW ;EQDQ01+000000PRSWM2
0090827980999991994051416004-07100-034867FM-15+0007SBJP V0201001N00411006001CN0112651N1+02801+02401999999ADDAG10999GA1021+004509999GA2071+006009999MA1101081999999REMMET005NEW ;EQDQ01+000000PRSWM2
0074827980999991994051417004-07100-034867FM-15+0007SBJP V0200901N00361006001CN0112651N1+02901+02401999999ADDAG10999GA1071+006009999MA1101021999999REMMET005NEW ;EQDQ01+000000PRSWM2
0090827980999991994051418004-07100-034867FM-15+0007SBJP V0200701N00261030001CN0112651N1+02801+02401999999ADDAG10000GA1021+004509999GA2071+030009999MA1101021999999REMMET005NEW ;EQDQ01+000000PRSWM2
0074827980999991994051509004-07100-034867FM-15+0007SBJP V0202101N00311006001CN0112651N1+02301+02201999999ADDAG10000GA1071+006009999MA1101191999999REMMET005NEW ;EQDQ01+000000PRSWM2
0130827980999991994051512004-07100-034867FM-12+0007SBJP V0200501N00311012001CN0040001N1+02931+02391101471ADDAA124009091AG10005AY161061AY221061GF105991051081008001001001MA1999999101381MD1999999+0071MW1001REMSYN023 333 20/// 58007 60094;
0074827980999991994051513004-07100-034867FM-15+0007SBJP V0201001N00361006001CN0112651N1+02901+02401999999ADDAG10999GA1071+006009999MA1101291999999REMMET005NEW ;EQDQ01+000000PRSWM2
0074827980999991994051515004-07100-034867FM-15+0007SBJP V0201101N00411006001CN0112651N1+03001+02201999999ADDAG10000GA1071+006009999MA1101191999999REMMET005NEW ;EQDQ01+000000PRSWM2
0074827980999991994051516004-07100-034867FM-15+0007SBJP V0201201N00311006001CN0112651N1+03001+02201999999ADDAG10999GA1071+006009999MA1101191999999REMMET005NEW ;EQDQ01+000000PRSWM2
0074827980999991994051517004-07100-034867FM-15+0007SBJP V0201001N00411006001CN0112651N1+03001+02201999999ADDAG10999GA1071+006009999MA1101081999999REMMET005NEW ;EQDQ01+000000PRSWM2
0158827980999991994051518004-07100-034867SY-MT+0007SBJP V0200501N00311006001CN0040001N1+02901+02441101241ADDAA106000091AG10000GA1071+006009999GF199999051081008001001001MA1101081101151MD1999999-0011REMSYN011 333 59001;MET005NEW ;EQDQ01+000052SCOTCVQ02+000000PRSWM2
0074827980999991994051519004-07100-034867FM-15+0007SBJP V0201101N00261006001CN0112651N1+02901+02201999999ADDAG10999GA1071+006009999MA1101081999999REMMET005NEW ;EQDQ01+000000PRSWM2
0074827980999991994051520004-07100-034867FM-15+0007SBJP V0201201N00311006001CN0112651N1+02801+02301999999ADDAG10999GA1071+006009999MA1101081999999REMMET005NEW ;EQDQ01+000000PRSWM2
0090827980999991994051521004-07100-034867FM-15+0007SBJP V0201401N00261030001CN0112651N1+02501+02401999999ADDAG10000GA1021+005409999GA2071+030009999MA1101191999999REMMET005NEW ;EQDQ01+000000PRSWM2
0224827980999991994051612004-07100-034867SY-MT+0007SBJP V0201801N00261030001CN0040001N1+02721+02431101491ADDAA124016091AG10005AY161061AY221061GA1021+004509999GA2021+006009999GA3071+030009999GF199999061041008001001001MA1101291101401MD1999999+0021MW1001REMSYN023 333 20/// 58002 60164;MET005NEW ;EQDQ01+000062SCOTCVQ02+000000PRSWM2
0124827980999991994051618004-07100-034867FM-12+0007SBJP V0201401N00311007501CN0040001N1+02681+02391101421ADDAA199021091AG10005AY161061AY221061GF108991081041008001999999MA1999999101231MD1999999+0081MW1001REMSYN017 333 58008 60215;
0192827980999991994051712004-07100-034867SY-MT+0007SBJP V0201401N00311007501CN0040001N1+02901+02321101411ADDAA124035091AG10005AY161061AY221061GA1021+004509999GA2021+006009999GF107991071041008001001001MA1101291101321MD1999999+0081MW1001REMSYN023 333 20/// 58008 60354;MET005NEW ;EQDQ01+000000PRSWM2
0090827980999991994051717004-07100-034867FM-15+0007SBJP V0201001N00311220001CN0112651N1+02701+02401999999ADDAG10999GA1021+006009999GA2021+030009999MA1101021999999REMMET005NEW ;EQDQ01+000000PRSWM2
0124827980999991994051718004-07100-034867FM-12+0007SBJP V0201401N00411007501CN0040001N1+02881+02301101191ADDAA106002091AG10005AY161061AY221061GF107991071041008001001001MA1999999101101MD1999999+0131MW1001REMSYN017 333 58013 60021;
0090827980999991994051811004-07100-034867FM-15+0007SBJP V0201201N00311220001CN0112651N1+02601+02301999999ADDAG10999GA1021+006009999GA2021+075009999MA1101391999999REMMET005NEW ;EQDQ01+000000PRSWM2
0165827980999991994051812004-07100-034867FM-12+0007SBJP V0201401N00311012001CN9999999N9+02901+02221101481ADDAA124034091AG10005AY161061AY221061GF105991051081008001001001MA1999999101391MD1999999+0071MW1001REMSYN023 333 20/// 58007 60344;EQDQ01+040002VODIS Q02+000002VOVAR 
0074827980999991994051815004-07100-034867FM-15+0007SBJP V0201501N00361006001CN0112651N1+03001+02101999999ADDAG10000GA1071+006009999MA1101191999999REMMET005NEW ;EQDQ01+000000PRSWM2
0074827980999991994051816004-07100-034867FM-15+0007SBJP V0201201N00511006001CN0112651N1+02901+02201999999ADDAG10999GA1071+006009999MA1101191999999REMMET005NEW ;EQDQ01+000000PRSWM2
0074827980999991994051817004-07100-034867FM-15+0007SBJP V0201501N00511006001CN0112651N1+02901+02001999999ADDAG10999GA1071+006009999MA1101081999999REMMET005NEW ;EQDQ01+000000PRSWM2
0096827980999991994051818004-07100-034867FM-12+0007SBJP V0201401N00311220001CN0040001N1+02901+02241101201ADDAA106000091AG10000GF104991041081008001001001MA1999999101121MD1999999+0011REMSYN011 333 58001;
0090827980999991994051910004-07100-034867FM-15+0007SBJP V0201901N00311220001CN0112651N1+02301+02201999999ADDAG10999GA1021+004509999GA2021+030009999MA1101391999999REMMET005NEW ;EQDQ01+000000PRSWM2
0106827980999991994051911004-07100-034867FM-15+0007SBJP V0201301N00211060001CN0112651N1+02501+02301999999ADDAG10999GA1021+004509999GA2021+006009999GA3071+060009999MA1101391999999REMMET005NEW ;EQDQ01+000000PRSWM2
0130827980999991994051912004-07100-034867FM-12+0007SBJP V0209991C00001007501CN0040001N1+02601+02391101531ADDAA124006091AG10005AY161061AY221061GF108991081091008001999999MA1999999101441MD1999999+0051MW1001REMSYN023 333 20/// 58005 60064;
0090827980999991994051913004-07100-034867FM-15+0007SBJP V0201901N00211030001CN0112651N1+02601+02301999999ADDAG10999GA1021+006009999GA2071+030009999MA1101391999999REMMET005NEW ;EQDQ01+000000PRSWM2
0090827980999991994051915004-07100-034867FM-15+0007SBJP V0201301N00411030001CN0112651N1+02901+02201999999ADDAG10000GA1021+006009999GA2071+030009999MA1101291999999REMMET005NEW ;EQDQ01+000000PRSWM2
0090827980999991994051916004-07100-034867FM-15+0007SBJP V0201301N00311006001CN0112651N1+02901+02201999999ADDAG10999GA1071+006009999GA2071+030009999MA1101191999999REMMET005NEW ;EQDQ01+000000PRSWM2
0090827980999991994051917004-07100-034867FM-15+0007SBJP V0201401N00261030001CN0112651N1+02901+02301999999ADDAG10999GA1021+006009999GA2071+030009999MA1101081999999REMMET005NEW ;EQDQ01+000000PRSWM2
0093827980999991994051918004-07100-034867FM-15+0007SBJP V0201601N00361030001CN0080001N1+02501+02401999999ADDAG10002GA1021+004509999GA2021+006009999GA3071+030009999MA1101081999999MW1161REMMET005NEW ;
0090827980999991994051919004-07100-034867FM-15+0007SBJP V0201401N00411220001CN0112651N1+02601+02301999999ADDAG10999GA1021+006009999GA2021+030009999MA1101191999999REMMET005NEW ;EQDQ01+000000PRSWM2
0090827980999991994051920004-07100-034867FM-15+0007SBJP V0201601N00311030001CN0112651N1+02501+02301999999ADDAG10999GA1021+006009999GA2071+030009999MA1101191999999REMMET005NEW ;EQDQ01+000000PRSWM2
0090827980999991994051921004-07100-034867FM-15+0007SBJP V0201401N00261220001CN0112651N1+02501+02401999999ADDAG10000GA1021+006009999GA2021+030009999MA1101191999999REMMET005NEW ;EQDQ01+000000PRSWM2
0130827980999991994052012004-07100-034867FM-12+0007SBJP V0201801N00311007501CN0040001N1+02681+02411101551ADDAA124050091AG10005AY161061AY221061GF108991081041008001999999MA1999999101461MD1999999-0021MW1211REMSYN023 333 20/// 59002 60504;
0124827980999991994052018004-07100-034867FM-12+0007SBJP V0209991C00001007501CN0040001N1+02361+02221101421ADDAA106032091AG10005AY161061AY221061GF108991081041008001999999MA1999999101331MD1999999-0081MW1211REMSYN017 333 59008 60321;
0143827980999991994052100004-07100-034867FM-12+0007SBJP V0209991C00001007501CN0040001N1+02351+02291101491ADDAA106017091AG10005AY161061AY221061GF108991081041008001999999KA1240M+02741MA1999999101401MD1999999-0031MW1211REMSYN023 333 10274 59003 60171;
0130827980999991994052112004-07100-034867FM-12+0007SBJP V0209991C00001007501CN0040001N1+02521+02361101641ADDAA124049091AG10005AY161061AY221061GF108991081091008001999999MA1999999101551MD1999999-0091MW1211REMSYN023 333 20/// 59009 60494;
0124827980999991994052118004-07100-034867FM-12+0007SBJP V0209991C00001007501CN0040001N1+02521+02311101301ADDAA106023091AG10005AY161061AY221061GF108991081041008001999999MA1999999101211MD1999999+0121MW1601REMSYN017 333 58012 60231;
0130827980999991994052212004-07100-034867FM-12+0007SBJP V0201401N00311220001CN0040001N1+02901+02391101491ADDAA124027091AG10005AY161061AY221061GF104991041011008001001001MA1999999101401MD1999999-0151MW1001REMSYN023 333 20/// 59015 60274;
