0095829000999991994010118004-08050-034917FM-12+000799999V0201801N00511220001CN0100001N9+02991+02081101161ADDAA106000091AG14000GF102991021021008001001001MA1999999101071MD1999999+0051REMSYN010 333 58005
0142829000999991994010212004-08050-034917FM-12+000799999V0201801N00311007501CN0100001N9+02741+02321101251ADDAA124004091AG10006AY161061AY221061GF105991051041008001001001KA1240N+02181MA1999999101161MD1999999+0031MW1031REMSYN022 333 20218 58003 60044
0095829000999991994010218004-08050-034917FM-12+000799999V0201401N00461045001CN0100001N9+02941+02111100991ADDAA106000091AG14000GF105991041031008001081001MA1999999100901MD1999999-0071REMSYN010 333 59007
0114829000999991994010300004-08050-034917FM-12+000799999V0200901N00151220001CN0020001N9+02651+02221101171ADDAA106000091AG14000GF103991031021008001001001KA1240M+03041MA1999999101081MD1999999-0041REMSYN016 333 10304 59004
0047829000999991994010318004-08050-034917FM-12+000799999V0201401N004619999999N0100001N9+02951+02471999999ADDAA106000091AG14000GF106991999999008001999999
0114829000999991994010400004-08050-034917FM-12+000799999V0200901N00151220001CN0020001N9+02641+02411101171ADDAA106000091AG14000GF103991021021008001031001KA1240M+03131MA1999999101081MD1999999+0091REMSYN016 333 10313 58009
0142829000999991994010412004-08050-034917FM-12+000799999V0201401N00151007501CN0100001N9+02491+02431101351ADDAA124034091AG10019AY191061AY261061GF108991081051008001999999KA1240N+02231MA1999999101261MD1999999+0161MW1031REMSYN022 333 20223 58016 60344
0123829000999991994010418004-08050-034917FM-12+000799999V0201401N00261012001CN0100001N9+02771+02501101121ADDAA106008091AG10006AY161061AY261061GF106991061081008001001001MA1999999101031MD1999999+0191MW1031REMSYN016 333 58019 60081
0114829000999991994010500004-08050-034917FM-12+000799999V0209991C00001220001CN0020001N9+02651+02431101331ADDAA106000091AG14000GF103991021041008001021001KA1240M+02971MA1999999101241MD1999999+1061REMSYN016 333 10297 58106
0142829000999991994010512004-08050-034917FM-12+000799999V0200501N00151012001CN0100001N9+02781+02401101351ADDAA124013091AG10006AY161061AY261061GF108991081081008001999999KA1240N+02381MA1999999101261MD1999999+0001MW1031REMSYN022 333 20238 58000 60134
0123829000999991994010518004-08050-034917FM-12+000799999V0200901N00211220001CN0100001N9+02991+02321101101ADDAA106000391AG10001AY151061AY221061GF104991031021008001021001MA1999999101031MD1999999+0021MW1021REMSYN016 333 58002 69931
0142829000999991994010612004-08050-034917FM-12+000799999V0200501N00311007501CN0100001N9+02961+02281101261ADDAA124002091AG10006AY161061AY221061GF106991061021008001001001KA1240N+02411MA1999999101171MD1999999-0091MW1031REMSYN022 333 20241 59009 60024
0095829000999991994010618004-08050-034917FM-12+000799999V0200901N00361220001CN0100001N9+02961+02181100951ADDAA106000091AG14000GF102991021021008001001001MA1999999100861MD1999999-0151REMSYN010 333 59015
0114829000999991994010700004-08050-034917FM-12+000799999V0200901N00151220001CN0020001N9+02651+02241101211ADDAA106000091AG14000GF102991021021008001001001KA1240M+03071MA1999999101121MD1999999+0001REMSYN016 333 10307 58000
0114829000999991994010712004-08050-034917FM-12+000799999V0201401N00461007501CN0100001N9+02911+02201101181ADDAA106000091AG14000GF106991061021008001001001KA1240N+02201MA1999999101091MD1999999-0081REMSYN016 333 20220 59008
0095829000999991994010718004-08050-034917FM-12+000799999V0201401N00361220001CN0100001N9+02941+02111100911ADDAA106000091AG14000GF102991021021008001001001MA1999999100821MD1999999-0041REMSYN010 333 59004
0095829000999991994010818004-08050-034917FM-12+000799999V0201401N00311045001CN0100001N9+02881+02211100921ADDAA106000091AG14000GF105991041021008001011001MA1999999100831MD1999999+0011REMSYN010 333 58001
0133829000999991994010912004-08050-034917FM-12+000799999V0201401N00211220001CN0100001N9+02941+02081101231ADDAA106000091AG14000GF104991999021008001001001KA1240N+02291MA1999999101141MD1999999-0011REMSYN016 333 20229 59001EQDQ01+000032SCOTLC
0095829000999991994010918004-08050-034917FM-12+000799999V0201401N00361220001CN0100001N9+02971+02091100981ADDAA106000091AG14000GF104991041021008001001001MA1999999100891MD1999999+0061REMSYN010 333 58006
0117829000999991994011018004-08050-034917FM-12+000799999V0200901N00311220001CN0100001N9+02851+02231100901ADDAA106000091AG14000GA1021+135009099GF103991021021008001021001MA1999999100811MD1999999-0081REMSYN016 333 59008 82983
0114829000999991994011100004-08050-034917FM-12+000799999V0201401N00311220001CN0020001N9+02671+02181101181ADDAA106000091AG14000GF102991021021008001001001KA1240M+03031MA1999999101091MD1999999-0071REMSYN016 333 10303 59007
0114829000999991994011112004-08050-034917FM-12+000799999V0201401N00311045001CN0100001N9+02901+02101101191ADDAA106000091AG14000GF105991041021008001011001KA1240N+02131MA1999999101101MD1999999+0001REMSYN016 333 20213 58000
0095829000999991994011118004-08050-034917FM-12+000799999V0201401N00411007501CN0100001N9+02191+02191100921ADDAA106000091AG14000GF106991051041008001021001MA1999999100831MD1999999+0021REMSYN010 333 58002
0142829000999991994011212004-08050-034917FM-12+000799999V0202301N00211007501CN0040001N9+02431+02241101161ADDAA124016091AG10006AY161061AY261061GF107991061041008001021001KA1240N+02331MA1999999101071MD1999999-0031MW1011REMSYN022 333 20233 59003 60164
0095829000999991994011218004-08050-034917FM-12+000799999V0200901N00311045001CN0100001N9+02821+02241100901ADDAA106000091AG14000GF105991041031008001031001MA1999999100811MD1999999-0021REMSYN010 333 59002
0114829000999991994011300004-08050-034917FM-12+000799999V0201401N00151220001CN0020001N9+02641+02161101121ADDAA106000091AG14000GF103991031011008001001001KA1240M+02981MA1999999101031MD1999999+0151REMSYN016 333 10298 58015
0095829000999991994011318004-08050-034917FM-12+000799999V0201401N00311220001CN0100001N9+02921+02241101011ADDAA106000091AG14000GF103991021021008001031001MA1999999100921MD1999999+0111REMSYN010 333 58011
0114829000999991994011400004-08050-034917FM-12+000799999V0200901N00151220001CN0020001N9+02671+02261101231ADDAA106000091AG14000GF103991031021008001001001KA1240M+03071MA1999999101141MD1999999+0111REMSYN016 333 10307 58011
0114829000999991994011412004-08050-034917FM-12+000799999V0200901N00261045001CN0100001N9+02851+02171101311ADDAA106000091AG14000GF105991041071008001031001KA1240N+02231MA1999999101221MD1999999-0041REMSYN016 333 20223 59004
0142829000999991994011512004-08050-034917FM-12+000799999V0200901N00211012001CN0100001N9+02781+02501101301ADDAA124010091AG10006AY161061AY261061GF107991071081008001001001KA1240N+02411MA1999999101211MD1999999+0011MW1031REMSYN022 333 20241 58001 60104
0114829000999991994011700004-08050-034917FM-12+000799999V0201401N00151220001CN0020001N9+02671+02221101041ADDAA106000091AG14000GF102991021011008001001001KA1240M+03031MA1999999100951MD1999999-0051REMSYN016 333 10303 59005
0114829000999991994011712004-08050-034917FM-12+000799999V0200501N00211007501CN0100001N9+02821+02221101091ADDAA106000091AG14000GF107991061071008001041001KA1240N+02291MA1999999101001MD1999999-0021REMSYN016 333 20229 59002
0101829000999991994011718004-08050-034917FM-12+000799999V0200901N00261045001CN0100001N9+02981+02231100761ADDAA106000391AG10001GF105991041021008001011001MA1999999100671MD1999999-0101REMSYN016 333 59010 69931
0114829000999991994011800004-08050-034917FM-12+000799999V0200901N00151045001CN0020001N9+02671+02271100891ADDAA106000091AG14000GF105991041041008001021001KA1240M+03021MA1999999100801MD1999999-0061REMSYN016 333 10302 59006
0142829000999991994011812004-08050-034917FM-12+000799999V0200901N00211007501CN0100001N9+02811+02271101041ADDAA124010091AG10006AY161061AY221061GF106991061031008001001001KA1240N+02341MA1999999100951MD1999999-0051MW1031REMSYN022 333 20234 59005 60104
0095829000999991994011818004-08050-034917FM-12+000799999V0201401N00461007501CN0100001N9+02921+02241100831ADDAA106000091AG14000GF105991051021008001001001MA1999999100741MD1999999+0071REMSYN010 333 58007
0142829000999991994011912004-08050-034917FM-12+000799999V0200501N00101007501CN0100001N9+02541+02441101211ADDAA124003091AG10006AY161061AY221061GF108991081071008001999999KA1240N+02251MA1999999101121MD1999999+0171MW1601REMSYN022 333 20225 58017 60034
0117829000999991994012018004-08050-034917FM-12+000799999V0200901N00311007501CN0100001N9+02861+02331101021ADDAA106000091AG14000GA1021+075009099GF107991061071008001021001MA1999999100931MD1999999-0051REMSYN016 333 59005 82975
0142829000999991994012112004-08050-034917FM-12+000799999V0209991C00001012001CN0100001N9+02441+02371101301ADDAA124043091AG10006AY161061AY221061GF108991081081008001999999KA1240N+02321MA1999999101211MD1999999-0051MW1621REMSYN022 333 20232 59005 60434
0114829000999991994012400004-08050-034917FM-12+000799999V0200901N00101220001CN0020001N9+02671+02331101331ADDAA106000091AG14000GF102991021011008001001001KA1240M+03101MA1999999101241MD1999999+0021REMSYN016 333 10310 58002
0114829000999991994012412004-08050-034917FM-12+000799999V0200501N00311007501CN0100001N9+02841+02381101411ADDAA106000091AG14000GF108991081051008001001001KA1240N+02241MA1999999101321MD1999999+0061REMSYN016 333 20224 58006
0095829000999991994012418004-08050-034917FM-12+000799999V0201401N00511007501CN0100001N9+02961+02451101241ADDAA106000091AG14000GF106991061021008001001001MA1999999101151MD1999999+0031REMSYN010 333 58003
0114829000999991994012512004-08050-034917FM-12+000799999V0200901N00211007501CN0100001N9+02891+02271101411ADDAA106000091AG14000GF106991061021008001001001KA1240N+02231MA1999999101321MD1999999+0001REMSYN016 333 20223 58000
0047829000999991994012518004-08050-034917FM-12+000799999V0201401N00311220001CN0100001N9+02871+02301999999ADDAA106000091AG14000GF102991999999008001999999
0133829000999991994012612004-08050-034917FM-12+000799999V0200901N003119999999N0100001N9+02841+02141101301ADDAA106000091AG14000GF105991999021008001001001KA1240N+02151MA1999999101211MD1999999-0091REMSYN016 333 20215 59009EQDQ01+000042SCOTLC
0095829000999991994012618004-08050-034917FM-12+000799999V0201401N00411220001CN0100001N9+02981+02301101041ADDAA106000091AG14000GF104991031021008001011001MA1999999100951MD1999999-0131REMSYN010 333 59013
0142829000999991994012712004-08050-034917FM-12+000799999V0201401N00361007501CN0100001N9+02981+02351101181ADDAA124000191AG10006AY161061AY221061GF106991061021008001001001KA1240N+02211MA1999999101091MD1999999-0121MW1021REMSYN022 333 20221 59012 69914
0095829000999991994012718004-08050-034917FM-12+000799999V0201401N00511045001CN0100001N9+02971+02181100981ADDAA106000091AG14000GF106991041041008001031001MA1999999100891MD1999999-0061REMSYN010 333 59006
0142829000999991994012812004-08050-034917FM-12+000799999V0201401N00411045001CN0100001N9+02791+02251101251ADDAA124002091AG10006AY161061AY261061GF106991041051008001031001KA1240N+02371MA1999999101161MD1999999+0071MW1031REMSYN022 333 20237 58007 60024
0062829000999991994012912004-08050-034917FM-12+000799999V0200901N002119999999N0100001N9+02881+02211101341ADDAA106000091AG14000GF105991999999008001999999MA1999999101251
0095829000999991994012918004-08050-034917FM-12+000799999V0201401N00311220001CN0100001N9+02941+02211101171ADDAA106000091AG14000GF103991021011008001041001MA1999999101081MD1999999+0041REMSYN010 333 58004
0099829000999991994013012004-08050-034917FM-12+000799999V0201401N00311007501CN0100001N9+02941+02361101271ADDAA106000091AG14000GF106991061021008001001001KA1240N+02491MD1999999-0071REMSYN016 333 20249 59007
0095829000999991994013018004-08050-034917FM-12+000799999V0201801N00361220001CN0100001N9+02911+02291101071ADDAA106000091AG14000GF102991011021008001021001MA1999999100981MD1999999-0101REMSYN010 333 59010
0114829000999991994013100004-08050-034917FM-12+000799999V0201401N00461220001CN0020001N9+02731+02261101381ADDAA106000091AG14000GF103991031021008001001001KA1240M+03071MA1999999101291MD1999999+0101REMSYN016 333 10307 58010
0114829000999991994013112004-08050-034917FM-12+000799999V0201401N00511007501CN0100001N9+02981+02331101211ADDAA106000091AG14000GF107991061041008001021001KA1240N+02641MA1999999101121MD1999999-0081REMSYN016 333 20264 59008
0095829000999991994013118004-08050-034917FM-12+000799999V0201801N00511007501CN0100001N9+02891+02161101021ADDAA106000091AG14000GF108991071061008001021001MA1999999100931MD1999999-0051REMSYN010 333 59005
0114829000999991994020112004-08050-034917FM-12+000799999V0201401N00411045001CN0100001N9+02891+02131101311ADDAA106000091AG14000GF105991041021008001031001KA1240N+02141MA1999999101221MD1999999+0101REMSYN016 333 20214 58010
0095829000999991994020118004-08050-034917FM-12+000799999V0201401N00211007501CN0100001N9+02941+02191101021ADDAA106000091AG14000GF106991051021008001031001MA1999999100931MD1999999+0001REMSYN010 333 58000
0114829000999991994020212004-08050-034917FM-12+000799999V0200501N00261045001CN0100001N9+02241+99999101391ADDAA106000091AG14000GF106991041021008001031001KA1240N+02231MA1999999101301MD1999999+0081REMSYN016 333 20223 58008
0095829000999991994020218004-08050-034917FM-12+000799999V0201401N00211220001CN0100001N9+02991+02221101161ADDAA106000091AG14000GF103991031001012501001041MA1999999101071MD1999999+0131REMSYN010 333 58013
0142829000999991994020312004-08050-034917FM-12+000799999V0200501N00261220001CN0100001N9+02941+02161101351ADDAA124006091AG10006AY161061AY221061GF103991031021008001001001KA1240N+02331MA1999999101261MD1999999-0041MW1021REMSYN022 333 20233 59004 60064
0095829000999991994020318004-08050-034917FM-12+000799999V0201401N00511220001CN0100001N9+03061+02191101041ADDAA106000091AG14000GF101991011021008001001001MA1999999100951MD1999999-0121REMSYN010 333 59012
0114829000999991994020400004-08050-034917FM-12+000799999V0201401N00261220001CN0020001N9+02701+02201101291ADDAA106000091AG14000GF101991011011008001001001KA1240M+03201MA1999999101201MD1999999-0091REMSYN016 333 10320 59009
0114829000999991994020412004-08050-034917FM-12+000799999V0200501N00101007501CN0100001N9+02811+02181101231ADDAA106000091AG14000GF107991061041008001021001KA1240N+02311MA1999999101141MD1999999-0121REMSYN016 333 20231 59012
0142829000999991994020512004-08050-034917FM-12+000799999V0201401N00311007501CN0100001N9+02911+02431101131ADDAA124002091AG10006AY161061AY251061GF106991051021008001031001KA1240N+02491MA1999999101041MD1999999-0101MW1161REMSYN022 333 20249 59010 60024
0123829000999991994020518004-08050-034917FM-12+000799999V0201401N00511012001CN0100001N9+02741+02401100891ADDAA106006091AG10006AY161061AY261061GF107991071081008001001001MA1999999100801MD1999999-0021MW1031REMSYN016 333 59002 60061
0094829000999991994020618004-08050-034917FM-12+000799999V0201801N003119999999N0100001N9+02851+02191101181ADDAA106000091AG14000GF107991999999008001999999MA1999999101091REMSYN004 333EQDQ01+999990APOSLP
0114829000999991994020712004-08050-034917FM-12+000799999V0201401N00461007501CN0100001N9+02881+02231101271ADDAA106000091AG14000GF106991061021008001001001KA1240N+02171MA1999999101181MD1999999+0061REMSYN016 333 20217 58006
0095829000999991994020718004-08050-034917FM-12+000799999V0201401N00211220001CN0100001N9+02961+02281101071ADDAA106000091AG14000GF104991021021008001031001MA1999999100781MD1999999-0041REMSYN010 333 59004
0142829000999991994020812004-08050-034917FM-12+000799999V0201401N00461045001CN0100001N9+02851+02221101391ADDAA124000591AG10001AY151061AY251061GF106991041021008001031001KA1240N+02361MA1999999101301MD1999999+0121MW1161REMSYN022 333 20236 58012 69954
0123829000999991994020818004-08050-034917FM-12+000799999V0201401N00571045001CN0100001N9+02941+02331101071ADDAA106003091AG10006AY161061AY261061GF106991041021008001031001MA1999999100981MD1999999+0001MW1031REMSYN016 333 58000 60031
0142829000999991994020912004-08050-034917FM-12+000799999V0201401N00261045001CN0100001N9+02891+02411101301ADDAA124005091AG10006AY161061AY261061GF106991041021008001041001KA1240N+02261MA1999999101211MD1999999-0091MW1021REMSYN022 333 20226 59009 60054
0095829000999991994020918004-08050-034917FM-12+000799999V0201401N00311045001CN0100001N9+02891+02101101061ADDAA106000091AG14000GF105991031021008001021001MA1999999100971MD1999999-0011REMSYN010 333 59001
0114829000999991994021012004-08050-034917FM-12+000799999V0201401N00411007501CN0100001N9+02981+02121101321ADDAA106000091AG14000GF106991061021008001001001KA1240N+02541MA1999999101231MD1999999+0021REMSYN016 333 20254 58002
0095829000999991994021018004-08050-034917FM-12+000799999V0201401N00511220001CN0100001N9+03171+02021101081ADDAA106000091AG14000GF103991031021008001001001MA1999999100991MD1999999+0021REMSYN010 333 58002
0114829000999991994021112004-08050-034917FM-12+000799999V0201401N00311045001CN0100001N9+03021+02211101371ADDAA106000091AG14000GF105991041041008001021001KA1240N+02291MA1999999101281MD1999999+0051REMSYN016 333 20229 58005
0095829000999991994021118004-08050-034917FM-12+000799999V0201401N00411045001CN0100001N9+02971+02131101201ADDAA106000091AG14000GF105991041021008001011001MA1999999101111MD1999999+0121REMSYN010 333 58012
0114829000999991994021200004-08050-034917FM-12+000799999V0200901N00261220001CN0020001N9+02731+02171101341ADDAA106000091AG14000GF104991041021008001001001KA1240M+03181MA1999999101251MD1999999-0021REMSYN016 333 10318 59002
0095829000999991994021218004-08050-034917FM-12+000799999V0201401N00411045001CN0100001N9+02891+02251101021ADDAA106000091AG14000GF105991041031008001051001MA1999999100931MD1999999-0181REMSYN010 333 59018
0114829000999991994021312004-08050-034917FM-12+000799999V0201401N00361007501CN0100001N9+02981+02301101231ADDAA106000091AG14000GF106991061021008001001001KA1240N+02331MA1999999101141MD1999999-0091REMSYN016 333 20233 59009
0095829000999991994021318004-08050-034917FM-12+000799999V0200901N00461007501CN0100001N9+02891+02301100971ADDAA106000091AG14000GF107991051021008001031001MA1999999100881MD1999999-0051REMSYN010 333 59005
0114829000999991994021400004-08050-034917FM-12+000799999V0200901N00151007501CN0020001N9+02731+02281101181ADDAA106000091AG14000GF106991061021008001001001KA1240M+03071MA1999999101091MD1999999+0031REMSYN016 333 10307 58003
0142829000999991994021412004-08050-034917FM-12+000799999V0203601N00101007501CN0100001N9+02831+02401101281ADDAA124005091AG10006AY161061AY221061GF107991061041008001021001KA1240N+02331MA1999999101191MD1999999+0051MW1011REMSYN022 333 20233 58005 60054
0153829000999991994021512004-08050-034917FM-12+000799999V0201401N00311045001CN0100001N9+02911+02411101521ADDAA124000291AA299000191AG10001AY151061AY221061GF105991041021008001031001KA1240N+02131MA1999999101421MD1999999+0221MW1011REMSYN022 333 20213 58022 69924
0142829000999991994021712004-08050-034917FM-12+000799999V0202701N00151007501CN0100001N9+02601+02461101411ADDAA124051091AG10006AY161061AY261061GF108991081071008001999999KA1240N+02371MA1999999101321MD1999999-0071MW1031REMSYN022 333 20237 59007 60514
0123829000999991994021718004-08050-034917FM-12+000799999V0201401N00461007501CN0100001N9+02901+02391101151ADDAA106000391AG10006AY161061AY221061GF108991071041008001031001MA1999999101061MD1999999-0111MW1031REMSYN016 333 59011 69931
0120829000999991994021812004-08050-034917FM-12+000799999V0200501N00101045001CN0100001N9+02821+02381101341ADDAA124000391AG10001GF106991041021008001021001KA1240N+02351MA1999999101251MD1999999-0071REMSYN022 333 20235 59007 69934
0095829000999991994021818004-08050-034917FM-12+000799999V0201401N00211007501CN0100001N9+02991+02391101071ADDAA106000091AG14000GF105991051021008001001001MA1999999100981MD1999999-0081REMSYN010 333 59008
0142829000999991994021912004-08050-034917FM-12+000799999V0203601N00101220001CN0100001N9+02781+02321101351ADDAA124017091AG10006AY161061AY261061GF103991021021008001021001KA1240N+02311MA1999999101261MD1999999-0011MW1021REMSYN022 333 20231 59001 60174
0114829000999991994021918004-08050-034917FM-12+000799999V0200401N00211220001CN0100001N9+02941+02381100951ADDAA106000091AG14000GF106991041021008001001041MA1999999099862MD1999999-0121REMSYN010 333 59012EQDQ01+099863APOSP 
0142829000999991994022012004-08050-034917FM-12+000799999V0201401N00311007501CN0100001N9+02931+02241101341ADDAA124001091AG10001AY151061AY221061GF106991061021008001001001KA1240N+02361MA1999999101251MD1999999-0111MW1021REMSYN022 333 20236 59011 60014
0075829000999991994022018004-08050-034917FM-12+000799999V0200901N00361220001CN0100001N9+02941+02191101051ADDAA106000091AG14000GF104991041021008001001001MA1999999100961REMSYN004 333
0114829000999991994022112004-08050-034917FM-12+000799999V0200501N00211007501CN0100001N9+02941+02211101281ADDAA106000091AG14000GF106991061021008001001001KA1240N+02381MA1999999101191MD1999999-0061REMSYN016 333 20238 59006
0114829000999991994022118004-08050-034917FM-12+000799999V0200901N003119999999N0100001N9+02991+02191101171ADDAA106000091AG14000GF106991999021008001001001MA1999999101081MD1999999+0121REMSYN010 333 58012EQDQ01+000042SCOTLC
0114829000999991994022212004-08050-034917FM-12+000799999V0200901N00411007501CN0100001N9+02941+02241101271ADDAA106000091AG14000GF106991061021008001001001KA1240N+02641MA1999999101181MD1999999-0011REMSYN016 333 20264 59001
0095829000999991994022218004-08050-034917FM-12+000799999V0201401N00461220001CN0100001N9+02981+02231101061ADDAA106000091AG14000GF104991031021008001041001MA1999999100971MD1999999-0091REMSYN010 333 59009
0172829000999991994022312004-08050-034917FM-12+000799999V0201401N00571220001CN0100001N9+02031+99999101231ADDAA124000291AA299000191AG10001AY151061AY221061GF103991031011008001001001KA1240N+99999MA1999999101141MD1999999-0041MW1011REMSYN022 333 20239 59004 69924EQDQ01 +02392ATMN  
0095829000999991994022318004-08050-034917FM-12+000799999V0201401N00411220001CN0100001N9+02971+02131100971ADDAA106000091AG14000GF104991031021008001031001MA1999999100881MD1999999-0091REMSYN010 333 59009
0114829000999991994022412004-08050-034917FM-12+000799999V0200901N00261045001CN0100001N9+02921+02171101211ADDAA106000091AG14000GF105991041021008001021001KA1240N+02171MA1999999101121MD1999999-0021REMSYN016 333 20217 59002
0095829000999991994022418004-08050-034917FM-12+000799999V0201401N00361045001CN0100001N9+02951+02311100961ADDAA106000091AG14000GF106991041021008001041001MA1999999100871MD1999999-0011REMSYN010 333 59001
0153829000999991994022512004-08050-034917FM-12+000799999V0200901N00411007501CN0100001N9+02941+02191101271ADDAA124000791AA299001091AG10006AY161061AY221061GF107991061031008001031001KA1240N+02521MA1999999101181MD1999999+0061MW1031REMSYN022 333 20252 58006 69974
0134829000999991994022518004-08050-034917FM-12+000799999V0201401N00311007501CN0100001N9+02851+02261101041ADDAA106000791AA299001091AG10006AY161061AY221061GF107991061041008001031001MA1999999100951MD1999999+0081MW1031REMSYN016 333 58008 69971
0142829000999991994022612004-08050-034917FM-12+000799999V0201401N00461007501CN0100001N9+02931+02361101291ADDAA124001091AG10006AY161061AY221061GF107991061041008001021001KA1240N+02471MA1999999101201MD1999999+0021MW1031REMSYN022 333 20247 58002 60014
0095829000999991994022618004-08050-034917FM-12+000799999V0201401N00461007501CN0100001N9+02911+02371101071ADDAA106000091AG14000GF108991071041008001021001MA1999999100981MD1999999+0031REMSYN010 333 58003
0142829000999991994022712004-08050-034917FM-12+000799999V0201401N00211007501CN0100001N9+02881+02411101401ADDAA124001091AG10006AY161061AY221061GF108991051051008001021999KA1240N+02451MA1999999101311MD1999999+0091MW1031REMSYN022 333 20245 58009 60014
0095829000999991994022718004-08050-034917FM-12+000799999V0201401N00511007501CN0020001N9+02791+02441101081ADDAA106000091AG14000GF107991071071008001001001MA1999999100991MD1999999-0011REMSYN010 333 59001
0114829000999991994022800004-08050-034917FM-12+000799999V0201401N00361007501CN0020001N9+02771+02381101171ADDAA106000091AG14000GF106991061021008001001001KA1240M+03041MA1999999101081MD1999999-0111REMSYN016 333 10304 59011
0114829000999991994022812004-08050-034917FM-12+000799999V0201401N00411007501CN0100001N9+02861+02311101371ADDAA106000091AG14000GF108991061041008001031001KA1240N+02631MA1999999101281MD1999999-0031REMSYN016 333 20263 59003
0095829000999991994022818004-08050-034917FM-12+000799999V0201401N00461007501CN0100001N9+02891+02251101141ADDAA106000091AG14000GF107991061041008001031001MA1999999101051MD1999999+0061REMSYN010 333 58006
0114829000999991994030112004-08050-034917FM-12+000799999V0201401N00211007501CN0100001N9+02811+02221101331ADDAA106000091AG14000GF107991061041008001021001KA1240N+02251MA1999999101241MD1999999-0041REMSYN016 333 20225 59004
0095829000999991994030118004-08050-034917FM-12+000799999V0209999999999007501CN0100001N9+02951+02361101091ADDAA106000091AG14000GF108991071051008001021001MA1999999101001MD1999999-0051REMSYN010 333 59005
0114829000999991994030200004-08050-034917FM-12+000799999V0209999999999220001CN0020001N9+02731+02281101261ADDAA106000091AG14000GF102991021021008001001001KA1240M+03101MA1999999101171MD1999999-0121REMSYN016 333 10310 59012
0142829000999991994030212004-08050-034917FM-12+000799999V0209999999999007501CN0100001N9+02891+02411101291ADDAA124002091AG10006AY161061AY221061GF108991061071008001031001KA1240N+02401MA1999999101201MD1999999-0041MW1031REMSYN022 333 20240 59004 60024
0095829000999991994030218004-08050-034917FM-12+000799999V0200901N00311007501CN0100001N9+02871+02321101071ADDAA106000091AG14000GF108991061071008001021999MA1999999100981MD1999999-0021REMSYN010 333 59002
0114829000999991994030312004-08050-034917FM-12+000799999V0200501N00151007501CN0100001N9+02921+02411101391ADDAA106000091AG14000GF107991061021008001031001KA1240N+02271MA1999999101301MD1999999+0101REMSYN016 333 20227 58010
0095829000999991994030318004-08050-034917FM-12+000799999V0200901N00361007501CN0100001N9+02971+02281101071ADDAA106000091AG14000GF107991051021008001031001MA1999999100981MD1999999+0001REMSYN010 333 58000
0114829000999991994030400004-08050-034917FM-12+000799999V0200901N00311007501CN0020001N9+02791+02401101191ADDAA106000091AG14000GF105991051021008001001001KA1240M+03161MA1999999101101MD1999999+0001REMSYN016 333 10316 58000
0125829000999991994030412004-08050-034917FM-12+000799999V0200901N00461007501CN0100001N9+02981+02351101311ADDAG12001AW1011AZ151061AZ221061GF106991051041008001021001KA1240N+02291MA1999999101221MD1999999-0081REMSYN016 333 20229 59008
0081829000999991994030418004-08050-034917FM-12+000799999V0200901N004619999999N0100001N9+02991+02121101031ADDAA106000091AG14000GF105991999999008001999999MA1999999100941EQDQ01+999990APOSLP
0114829000999991994030512004-08050-034917FM-12+000799999V0200901N00211007501CN0100001N9+03031+99999101301ADDAA106000091AG14000GF106991061021008001001001KA1240N+02171MA1999999101211MD1999999-0011REMSYN016 333 20217 59001
0095829000999991994030518004-08050-034917FM-12+000799999V0200901N00311045001CN0100001N9+03021+02261100941ADDAA106000091AG14000GF106991041021008001021001MA1999999100851MD1999999-0091REMSYN010 333 59009
0114829000999991994030600004-08050-034917FM-12+000799999V0200901N00211220001CN0020001N9+02751+02281101211ADDAA106000091AG14000GF103991031021008001001001KA1240M+03181MA1999999101121MD1999999-0081REMSYN016 333 10318 59008
0114829000999991994030612004-08050-034917FM-12+000799999V0201401N00261007501CN0100001N9+02991+02371101331ADDAA106000091AG14000GF106991061021008001001001KA1240N+02191MA1999999101241MD1999999+0021REMSYN016 333 20219 58002
0095829000999991994030618004-08050-034917FM-12+000799999V0200901N00261007501CN0100001N9+03031+02261101081ADDAA106000091AG14000GF106991061021008001001001MA1999999100991MD1999999+0141REMSYN010 333 58014
0114829000999991994030700004-08050-034917FM-12+000799999V0200901N00211220001CN0020001N9+02731+02321101191ADDAA106000091AG14000GF102991021021008001001001KA1240M+03171MA1999999101101MD1999999-0021REMSYN016 333 10317 59002
0114829000999991994030712004-08050-034917FM-12+000799999V0200501N00211045001CN0100001N9+03061+02271101291ADDAA106000091AG14000GF105991041021008001011001KA1240N+02291MA1999999101201MD1999999-0041REMSYN016 333 20229 59004
0095829000999991994030718004-08050-034917FM-12+000799999V0200901N00361220001CN0100001N9+03131+02301100931ADDAA106000091AG14000GF101991011011008001051001MA1999999100841MD1999999-0131REMSYN010 333 59013
0142829000999991994030812004-08050-034917FM-12+000799999V0203201N00151007501CN0100001N9+02901+02341101211ADDAA124004091AG10006AY161061AY221061GF108991071041008001021001KA1240N+02331MA1999999101121MD1999999-0081MW1031REMSYN022 333 20233 59008 60044
0095829000999991994030818004-08050-034917FM-12+000799999V0200901N00311105001CN0100001N9+03111+02331100951ADDAA106000091AG14000GF105991041011008001001051MA1999999100861MD1999999+0021REMSYN010 333 58002
0114829000999991994030912004-08050-034917FM-12+000799999V0203601N00151007501CN0100001N9+02991+02301101301ADDAA106000091AG14000GF106991061021008001001001KA1240N+02261MA1999999101211MD1999999+0091REMSYN016 333 20226 58009
0095829000999991994030918004-08050-034917FM-12+000799999V0201401N00361220001CN0100001N9+03141+02211100931ADDAA106000091AG14000GF102991021031008001001001MA1999999100841MD1999999-0021REMSYN010 333 59002
0133829000999991994031000004-08050-034917FM-12+000799999V0200901N00151220001CN0020001N9+02771+02361101311ADDAA106000091AG14000GF104991999021008001001001KA1240M+03251MA1999999101221MD1999999+0121REMSYN016 333 10325 58012EQDQ01+000052SCOTLC
0081829000999991994031018004-08050-034917FM-12+000799999V0201401N00461220001CN0100001N9+03111+02031100971ADDAA106000091AG14000GF102991999999008001999999MA1999999100881EQDQ01+999990APOSLP
0114829000999991994031112004-08050-034917FM-12+000799999V0203601N00311007501CN0100001N9+02961+02351101291ADDAA106000091AG14000GF106991051021008001011001KA1240N+02251MA1999999101201MD1999999-0061REMSYN016 333 20225 59006
0095829000999991994031118004-08050-034917FM-12+000799999V0200901N00361220001CN0100001N9+03151+02341100921ADDAA106000091AG14000GF101991011011008001001001MA1999999100831MD1999999-0051REMSYN010 333 59005
0114829000999991994031212004-08050-034917FM-12+000799999V0200501N00361007501CN0100001N9+03061+02251101241ADDAA106000091AG14000GF106991061021008001001001KA1240N+02301MA1999999101151MD1999999-0051REMSYN016 333 20230 59005
0095829000999991994031218004-08050-034917FM-12+000799999V0200501N00511220001CN0100001N9+03181+02251100901ADDAA106000091AG14000GF103991031041008001001001MA1999999100811MD1999999-0021REMSYN010 333 59002
0114829000999991994031312004-08050-034917FM-12+000799999V0200901N00261045001CN0100001N9+03081+02351101211ADDAA106000091AG14000GF105991041021008001011001KA1240N+02251MA1999999101121MD1999999-0031REMSYN016 333 20225 59003
0095829000999991994031318004-08050-034917FM-12+000799999V0201401N00411220001CN0100001N9+03081+02321100971ADDAA106000091AG14000GF103991021011008001031001MA1999999100881MD1999999+0071REMSYN010 333 58007
0142829000999991994031412004-08050-034917FM-12+000799999V0200901N00311045001CN0100001N9+02921+02361101261ADDAA106008091AG13000AY101061AY221061GF106991041021008001031001KA1240N+02391MA1999999101171MD1999999+0051MW1021REMSYN022 333 20239 58005 60081
0123829000999991994031418004-08050-034917FM-12+000799999V0200901N00151045001CN0100001N9+02661+02331100971ADDAA124005091AG10006AY161061AY221061GF106991041021008001061001MA1999999100881MD1999999+0001MW1031REMSYN016 333 58000 60054
0142829000999991994031512004-08050-034917FM-12+000799999V0200901N00461007501CN0100001N9+02971+02421101301ADDAA124009091AG10006AY161061AY261061GF106991061021008001001001KA1240N+02541MA1999999101211MD1999999+0041MW1031REMSYN022 333 20254 58004 60094
0062829000999991994031518004-08050-034917FM-12+000799999V0201401N00671007501CN0100001N9+03121+02361101091ADDAA106000091AG14000GF107991071031008001001001MA1999999101001
0142829000999991994031612004-08050-034917FM-12+000799999V0201401N00411045001CN0100001N9+02931+02411101241ADDAA124007091AG10006AY161061AY261061GF105991041041008001021001KA1240N+02371MA1999999101151MD1999999-0061MW1011REMSYN022 333 20237 59006 60074
0117829000999991994031618004-08050-034917FM-12+000799999V0201401N00361220001CN0100001N9+03031+02311100951ADDAA106000091AG14000GA1021+075009099GF103991021011008001031001MA1999999100861MD1999999-0141REMSYN016 333 59014 82975
0142829000999991994031712004-08050-034917FM-12+000799999V0200901N00151045001CN0100001N9+02991+02241101281ADDAA124000391AG10001AY151061AY221061GF106991041021008001021001KA1240N+02261MA1999999101191MD1999999+0041MW1021REMSYN022 333 20226 58004 69934
0095829000999991994031718004-08050-034917FM-12+000799999V0201401N00211220001CN0100001N9+03061+02301101071ADDAA106000091AG14000GF101991011011008001001041MA1999999100981MD1999999+0121REMSYN010 333 58012
0115829000999991994031812004-08050-034917FM-12+000799999V0201801N00311007501CN0100001N9+02941+02311101321ADDAA106000091AG10000GF106991061021008001001001KA1240N+02181MA1999999101231MD1999999+0041REMSYN017 333 20218 58004;
0142829000999991994031912004-08050-034917FM-12+000799999V0201401N00461007501CN0100001N9+02931+02501101271ADDAA124005091AG10006AY161061AY221061GF106991051041008001021001KA1240N+02541MA1999999101181MD1999999-0051MW1011REMSYN022 333 20254 59005 60054
0095829000999991994031918004-08050-034917FM-12+000799999V0201401N00461007501CN0100001N9+02961+02451101001ADDAA106000091AG14000GF106991051041008001061001MA1999999100911MD1999999-0041REMSYN010 333 59004
0142829000999991994032012004-08050-034917FM-12+000799999V0201401N00361007501CN0100001N9+02921+02521101291ADDAA124019091AG10006AY161061AY221061GF106991051031008001021001KA1240N+02481MA1999999101201MD1999999+0021MW1511REMSYN022 333 20248 58002 60194
0142829000999991994032112004-08050-034917FM-12+000799999V0201801N00311007501CN0100001N9+02891+02501101271ADDAA124022091AG10006AY161061AY261061GF106991061021008001001001KA1240N+02371MA1999999101181MD1999999-0021MW1021REMSYN022 333 20237 59002 60224
0095829000999991994032118004-08050-034917FM-12+000799999V0201401N00361007501CN0100001N9+03041+02521100991ADDAA106000091AG14000GF106991061021008001001001MA1999999100901MD1999999-0061REMSYN010 333 59006
0142829000999991994032212004-08050-034917FM-12+000799999V0201401N00261007501CN0100001N9+02871+02561101151ADDAA124008091AG10006AY161061AY261061GF107991061061008001041001KA1240N+02491MA1999999101061MD1999999-0121MW1031REMSYN022 333 20249 59012 60084
0123829000999991994032218004-08050-034917FM-12+000799999V0201401N00411007501CN0100001N9+02981+02471100871ADDAA106000191AG10001AY151061AY221061GF107991061071008001021001MA1999999100781MD1999999-0121MW1031REMSYN016 333 59012 69911
0142829000999991994032312004-08050-034917FM-12+000799999V0202301N00151045001CN0100001N9+02771+02461101221ADDAA124004091AG10006AY161061AY221061GF106991041021008001031001KA1240N+02291MA1999999101131MD1999999+0071MW1021REMSYN022 333 20229 58007 60044
0130829000999991994032318004-08050-034917FM-12+000799999V0201101N07202220001CN0100001N9+03071+02401100951ADDAA106000091AG14000GA1001+999999999GF100991001001999999001001MA1999999100861MD1999999+0081REMSYN010 333 58008EQDQ01+007203WOSPD 
0114829000999991994032412004-08050-034917FM-12+000799999V0201801N00461007501CN0100001N9+02941+02361101441ADDAA106000091AG14000GF106991061021008001001001KA1240N+02021MA1999999101351MD1999999+0121REMSYN016 333 20202 58012
0158829000999991994032512004-08050-034917FM-12+000799999V0201801N00311002401CN0100001N9+02781+02381101521ADDAA124005091AG10006AY161061AY261061GA1091+999999999GF109991091999999999999999KA1240N+02621MA1999999101431MD1999999+0081MW1031REMSYN022 333 20262 58008 60054
0123829000999991994032518004-08050-034917FM-12+000799999V0201801N00101012001CN0100001N9+02771+02461101341ADDAA106001091AG10001AY151061AY221061GF108991081081008001999999MA1999999101251MD1999999+0161MW1031REMSYN016 333 58016 60011
0142829000999991994032612004-08050-034917FM-12+000799999V0201801N00361045001CN0100001N9+02891+02201101281ADDAA124003091AG10006AY161061AY221061GF106991041021008001021001KA1240N+02371MA1999999101191MD1999999-0241MW1021REMSYN022 333 20237 59024 60034
0123829000999991994032618004-08050-034917FM-12+000799999V0201801N00311045001CN0100001N9+02961+02231101181ADDAA106001091AG10006AY161061AY221061GF105991031021008001021001MA1999999101091MD1999999-0161MW1021REMSYN016 333 59016 60011
0114829000999991994032712004-08050-034917FM-12+000799999V0201801N00311007501CN0100001N9+02911+02341101291ADDAA106000091AG14000GF106991061021008001001001KA1240N+02301MA1999999101201MD1999999-0011REMSYN016 333 20230 59001
0095829000999991994032918004-08050-034917FM-12+000799999V0201401N00261045001CN0100001N9+02911+02341100981ADDAA106000091AG14000GF105991031021008001021001MA1999999100891MD1999999+0011REMSYN010 333 58001
0134829000999991994033018004-08050-034917FM-12+000799999V0201801N00151007501CN0100001N9+02561+02231101201ADDAA106000691AA299000591AG10006AY161061AY201061GF108991061051008001031001MA1999999101111MD1999999+0121MW1621REMSYN016 333 58012 69961
0095829000999991994033118004-08050-034917FM-12+000799999V0201801N00461007501CN0100001N9+02911+02461101211ADDAA106000091AG14000GF106991051021008001031001MA1999999101121MD1999999+0011REMSYN010 333 58001
0142829000999991994040212004-08050-034917FM-12+000799999V0203601N00101007501CN0100001N9+02771+02481101361ADDAA124007091AG10005AY161061AY221061GF108991081071008001999999KA1240N+02411MA1999999101271MD1999999-0101MW1031REMSYN022 333 20241 59010 60074
0123829000999991994040218004-08050-034917FM-12+000799999V0201401N00311007501CN0100001N9+02861+02441101171ADDAA106006091AG10005AY161061AY221061GF108991081071008001999999MA1999999101081MD1999999-0071MW1031REMSYN016 333 59007 60061
0095829000999991994040418004-08050-034917FM-12+000799999V0201401N00411220001CN0100001N9+02951+02311100991ADDAA106000091AG14000GF102991021021008001001001MA1999999100901MD1999999+0061REMSYN010 333 58006
0161829000999991994040612004-08050-034917FM-12+000799999V0201801N00261007501CN0100001N9+02721+02431101231ADDAA124008091AG10005AY161061AY221061GF107991071041008001001001KA1240N+02311MA1999999101141MD1999999+0011MW1031REMSYN022 333 20231 58001 60084EQDQ01+999990APOSP 
0123829000999991994040618004-08050-034917FM-12+000799999V0201801N00461007501CN0100001N9+02851+02261100951ADDAA106002091AG10005AY161061AY221061GF106991051021008001031001MA1999999100861MD1999999+0071MW1021REMSYN016 333 58007 60021
0120829000999991994040712004-08050-034917FM-12+000799999V0201801N00211045001CN0100001N9+02801+02361101211ADDAA124002091AG10005GF106991041021008001031001KA1240N+02211MA1999999101121MD1999999-0021REMSYN022 333 20221 59002 60024
0095829000999991994040718004-08050-034917FM-12+000799999V0201401N00211220001CN0100001N9+02801+02261100981ADDAA106000091AG14000GF103991021011008001001051MA1999999100851MD1999999-0011REMSYN010 333 59001
0114829000999991994040812004-08050-034917FM-12+000799999V0200901N00101007501CN0100001N9+02851+02351101121ADDAA106000091AG14000GF106991061021008001001001KA1240N+02311MA1999999101031MD1999999-0091REMSYN016 333 20231 59009
0095829000999991994040818004-08050-034917FM-12+000799999V0201401N00411007501CN0100001N9+02961+02331100791ADDAA106000091AG14000GF107991051041008001031001MA1999999100701MD1999999-0181REMSYN010 333 59018
0142829000999991994040912004-08050-034917FM-12+000799999V0201401N00361045001CN0100001N9+02951+02281101091ADDAA124011091AG10005AY161061AY261061GF106991041021008001031001KA1240N+02411MA1999999101001MD1999999-0031MW1021REMSYN022 333 20241 59003 60114
0095829000999991994040918004-08050-034917FM-12+000799999V0201401N00311007501CN0100001N9+02961+02351100911ADDAA106000091AG14000GF106991051041008001021001MA1999999100821MD1999999+0121REMSYN010 333 58012
0142829000999991994041012004-08050-034917FM-12+000799999V0201801N00211007501CN0100001N9+02821+02441101241ADDAA124002091AG10005AY161061AY221061GF106991061021008001001001KA1240N+02351MA1999999101151MD1999999+0151MW1021REMSYN022 333 20235 58015 60024
0095829000999991994041018004-08050-034917FM-12+000799999V0201401N00311045001CN0100001N9+02921+02361101071ADDAA106000091AG14000GF106991041021008001031001MA1999999100981MD1999999+0161REMSYN010 333 58016
0142829000999991994041112004-08050-034917FM-12+000799999V0201401N00361007501CN0100001N9+02941+02211101291ADDAA124000391AG10005AY161061AY221061GF105991051021008001001001KA1240N+02221MA1999999101201MD1999999-0051MW1021REMSYN022 333 20222 59005 69934
0095829000999991994041118004-08050-034917FM-12+000799999V0201801N00461220001CN0100001N9+02951+02211101031ADDAA106000091AG14000GF104991041021008001001001MA1999999100941MD1999999-0041REMSYN010 333 59004
0142829000999991994041212004-08050-034917FM-12+000799999V0209999999999007501CN0100001N9+02571+02491101511ADDAA124021091AG10005AY161061AY221061GF106991061021008001001001KA1240N+02411MA1999999101421MD1999999+0221MW1021REMSYN022 333 20241 58022 60214
0114829000999991994041312004-08050-034917FM-12+000799999V0201801N00311007501CN0100001N9+02801+02221101411ADDAA106000091AG14000GF106991061021008001001001KA1240N+02521MA1999999101321MD1999999-0101REMSYN016 333 20252 59010
0088829000999991994041400004-08050-034917FM-12+000799999V0203201N00101045001CN0020001N9+02471+02361101301ADDAA106000091AG10000GF106991041021008001031001MA1999999101211REMSYN017 333 10/// 58///;
0143829000999991994041412004-08050-034917FM-12+000799999V0201401N00411220001CN0100001N9+02941+02241101301ADDAA124000191AG10001AY151061AY221061GF103991031021008001001001KA1240N+02271MA1999999101211MD1999999-0111MW1021REMSYN023 333 20227 59011 69914;
0096829000999991994041418004-08050-034917FM-12+000799999V0201401N00361220001CN0100001N9+02961+02261101111ADDAA106000091AG10000GF103991031021008001001001MA1999999101021MD1999999-0021REMSYN011 333 59002;
0115829000999991994041500004-08050-034917FM-12+000799999V0201801N00311220001CN0020001N9+02681+02181101301ADDAA106000091AG10000GF102991021021008001001001KA1240M+03021MA1999999101211MD1999999+0001REMSYN017 333 10302 58000;
0096829000999991994041518004-08050-034917FM-12+000799999V0201801N00361220001CN0100001N9+02831+02261101071ADDAA106000091AG10000GF103991021021008001031001MA1999999100981MD1999999-0041REMSYN011 333 59004;
0115829000999991994041612004-08050-034917FM-12+000799999V0201801N00211045001CN0100001N9+02721+02301101281ADDAA106000091AG10000GF106991041021008001021001KA1240N+02261MA1999999101191MD1999999-0081REMSYN017 333 20226 59008;
0115829000999991994041618004-08050-034917FM-12+000799999V0201401N00511045001CN0100001N9+02561+01931101001ADDAA106000091AG10000GF105991031041008001051001MA1999999092062MD1999999-0021REMSYN011 333 59002;EQDQ01+092063APOSP 
0143829000999991994041800004-08050-034917FM-12+000799999V0209991C00001007501CN0020001N9+02321+02241101241ADDAA106009091AG10005AY161061AY261061GF108991081051008001999999KA1240M+02841MA1999999101151MD1999999-0181MW1031REMSYN023 333 10284 59018 60091;
0143829000999991994041812004-08050-034917FM-12+000799999V0202301N00311007501CN0040001N9+02331+02201101451ADDAA124061091AG10005AY161061AY261061GF108991081071008001001001KA1240N+02281MA1999999101361MD1999999+0181MW1211REMSYN023 333 20228 58018 60614;
0124829000999991994041818004-08050-034917FM-12+000799999V0202301N00151007501CN0040001N9+02391+02371101141ADDAA106007091AG10005AY161061AY261061GF108991081071008001999999MA1999999101051MD1999999+0031MW1031REMSYN017 333 58003 60071;
0143829000999991994041912004-08050-034917FM-12+000799999V0201801N00151007501CN0100001N9+02751+02501101341ADDAA124010091AG10005AY161061AY261061GF106991051041008001021001KA1240N+02271MA1999999101251MD1999999-0111MW1031REMSYN023 333 20227 59011 60104;
0096829000999991994041918004-08050-034917FM-12+000799999V0201801N00211045001CN0100001N9+02901+02391101091ADDAA106000091AG10000GF105991031021008001021001MA1999999101001MD1999999-0051REMSYN011 333 59005;
0143829000999991994042012004-08050-034917FM-12+000799999V0201401N00411007501CN0100001N9+02871+02331101281ADDAA124003091AG10005AY161061AY231061GF106991061021008001001001KA1240N+02221MA1999999101191MD1999999-0061MW1021REMSYN023 333 20222 59006 60034;
0096829000999991994042018004-08050-034917FM-12+000799999V0201801N00461007501CN0100001N9+02721+02411100951ADDAA106000091AG10000GF107991071041008001001001MA1999999100861MD1999999-0141REMSYN011 333 59014;
0143829000999991994042112004-08050-034917FM-12+000799999V0201801N00311007501CN0100001N9+02891+02371101361ADDAA124003091AG10005AY161061AY221061GF106991051041008001021001KA1240N+02231MA1999999101271MD1999999+0081MW1011REMSYN023 333 20223 58008 60034;
0124829000999991994042118004-08050-034917FM-12+000799999V0201401N00261007501CN0100001N9+02921+02391101041ADDAA106000591AG10001AY151061AY221061GF106991051031008001041001MA1999999100951MD1999999+0111MW1011REMSYN017 333 58011 69961;
0121829000999991994042212004-08050-034917FM-12+000799999V0201801N00361007501CN0100001N9+02881+02461101411ADDAA124000591AG10001GF106991061021008001001001KA1240N+02271MA1999999101321MD1999999+0051REMSYN023 333 20227 58005 69964;
0115829000999991994042300004-08050-034917FM-12+000799999V0202301N00101220001CN0020001N9+02481+02321101321ADDAA106000091AG10000GF102991021021008001001001KA1240M+03011MA1999999101231MD1999999+0101REMSYN017 333 10301 58010;
0115829000999991994042312004-08050-034917FM-12+000799999V0201401N00261007501CN0100001N9+02921+02321101401ADDAA106000091AG10000GF106991061021008001001001KA1240N+02141MA1999999101311MD1999999-0011REMSYN017 333 20214 59001;
0076829000999991994042318004-08050-034917FM-12+000799999V0201801N00461045001CN0100001N9+02921+02291101151ADDAA106000091AG10000GF106991041041008001031001MA1999999101061REMSYN005 333;
0143829000999991994042412004-08050-034917FM-12+000799999V0201801N00211220001CN0100001N9+02781+02401101431ADDAA124006091AG10005AY161061AY221061GF104991031021008001041001KA1240N+02191MA1999999101341MD1999999+0031MW1011REMSYN023 333 20219 58003 60064;
0096829000999991994042418004-08050-034917FM-12+000799999V0201801N00411007501CN0100001N9+02921+02271101241ADDAA106000091AG10000GF107991061051008001031001MA1999999101151MD1999999+0091REMSYN011 333 58009;
0143829000999991994042512004-08050-034917FM-12+000799999V0202301N00101007501CN0100001N9+02651+02461101491ADDAA124035091AG10005AY161061AY261061GF108991081031008001001001KA1240N+02281MA1999999101401MD1999999+0061MW1031REMSYN023 333 20228 58006 60354;
0143829000999991994042612004-08050-034917FM-12+000799999V0201401N00411007501CN0100001N9+02881+02371101271ADDAA124009091AG10005AY161061AY221061GF106991051031008001031001KA1240N+02301MA1999999101181MD1999999+0221MW1021REMSYN023 333 20230 58022 60094;
0051829000999991994042618004-08050-034917FM-12+000799999V0201801N005119999999N0100001N9+02781+02111100971ADDAG10000GF106991999999008001999999MA1999999100881
0143829000999991994042712004-08050-034917FM-12+000799999V0201801N00211007501CN0100001N9+02651+02441101241ADDAA124024091AG10005AY161061AY261061GF105991051021008001001001KA1240N+02251MA1999999101151MD1999999-0031MW1031REMSYN023 333 20225 59003 60244;
0096829000999991994042718004-08050-034917FM-12+000799999V0201801N00411045001CN0100001N9+02871+02321100991ADDAA106000091AG10000GF106991041021008001021001MA1999999100901MD1999999+0021REMSYN011 333 58002;
0143829000999991994042800004-08050-034917FM-12+000799999V0209991C00001007501CN0020001N9+02491+02301101281ADDAA106000591AG10001AY151061AY221061GF105991051041008001001001KA1240M+02931MA1999999101191MD1999999+0061MW1031REMSYN023 333 10293 58006 69951;
0143829000999991994042812004-08050-034917FM-12+000799999V0201801N00311007501CN0100001N9+02861+02521101331ADDAA124001091AG10001AY151061AY221061GF106991051041008001021001KA1240N+02331MA1999999101241MD1999999+0091MW1011REMSYN023 333 20233 58009 60014;
0096829000999991994042818004-08050-034917FM-12+000799999V0201801N00461045001CN0100001N9+02821+02331101191ADDAA106000091AG10000GF105991031021008001031001MA1999999101101MD1999999+0201REMSYN011 333 58020;
0115829000999991994042912004-08050-034917FM-12+000799999V0201401N00361007501CN0100001N9+02861+02281101461ADDAA106000091AG10000GF105991051021008001001001KA1240N+02121MA1999999101371MD1999999+0131REMSYN017 333 20212 58013;
0096829000999991994042918004-08050-034917FM-12+000799999V0201801N00411220001CN0100001N9+02921+02091101251ADDAA106000091AG10000GF102991021021008001001001MA1999999101161MD1999999+0061REMSYN011 333 58006;
0115829000999991994043000004-08050-034917FM-12+000799999V0209991C00001220001CN0020001N9+02231+02191101411ADDAA106000091AG10000GF101991011011008001001001KA1240M+02991MA1999999101321MD1999999-0091REMSYN017 333 10299 59009;
0143829000999991994043012004-08050-034917FM-12+000799999V0201401N00411220001CN0100001N9+02881+02321101421ADDAA124000591AG10001AY151061AY221061GF104991041021008001001001KA1240N+02171MA1999999101331MD1999999-0041MW1031REMSYN023 333 20217 59004 69944;
0096829000999991994043018004-08050-034917FM-12+000799999V0201401N00461045001CN0100001N9+02921+02361101211ADDAA106000091AG10000GF105991041021008001011001MA1999999101121MD1999999-0041REMSYN011 333 59004;
0143829000999991994050100004-08050-034917FM-12+000799999V0202301N00311007501CN0020001N9+02591+02371101421ADDAA106002091AG10005AY161061AY221061GF106991051041008001021001KA1240M+03001MA1999999101331MD1999999+0011MW1011REMSYN023 333 10300 58001 60021;
0085829000999991994050118004-08050-034917FM-12+000799999V0201801N00211220001CN0100001N9+02911+02411101291ADDAG10000GF103991021021008001031001MA1999999101201MD1999999+0081REMSYN011 333 58008;
0162829000999991994050212004-08050-034917FM-12+000799999V0202301N00261220001CN0100001N9+02721+02341101591ADDAA124012091AG10005AY161061AY221061GF104991999031008001001001KA1240N+02251MA1999999101501MD1999999+0111MW1021REMSYN023 333 20225 58011 60124;EQDQ01+000032SCOTLC
0096829000999991994050218004-08050-034917FM-12+000799999V0201801N00211007501CN0100001N9+02761+02231101311ADDAA106000091AG10000GF108991081041008001999999MA1999999101221MD1999999+0021REMSYN011 333 58002;
0143829000999991994050312004-08050-034917FM-12+000799999V0202301N00151007501CN0100001N9+02371+02281101471ADDAA124024091AG10005AY161061AY261061GF108991071041008001021001KA1240N+02191MA1999999101381MD1999999-0141MW1011REMSYN023 333 20219 59014 60244;
0124829000999991994050318004-08050-034917FM-12+000799999V0201801N00261007501CN0100001N9+02701+02301101181ADDAA106000391AG10005AY161061AY221061GF107991061041008001031001MA1999999101091MD1999999-0131MW1021REMSYN017 333 59013 69931;
0143829000999991994050412004-08050-034917FM-12+000799999V0201801N00211007501CN0100001N1+02771+02441101501ADDAA124041091AG10005AY161061AY261061GF106991061021008001001001KA1240N+02281MA1999999101411MD1999999+0031MW1031REMSYN023 333 20228 58003 60414;
0070829000999991994050418004-08050-034917FM-12+000799999V0202301N001019999999N0100001N1+02621+02591101241ADDAG10000GF106991999999008001999999MA1999999101151EQDQ01+999990APOSLP
0143829000999991994050512004-08050-034917FM-12+000799999V0200901N00361012001CN0100001N1+02541+02421101741ADDAA124041091AG10005AY161061AY261061GF108991081081008001999999KA1240N+02211MA1999999101651MD1999999-0021MW1621REMSYN023 333 20221 59002 60414;
0124829000999991994050518004-08050-034917FM-12+000799999V0201801N00101007501CN0100001N1+02501+02381101271ADDAA106026091AG10005AY161061AY261061GF108991081051008001001001MA1999999101181MD1999999+0031MW1031REMSYN017 333 58003 60261;
0121829000999991994050612004-08050-034917FM-12+000799999V0201801N00311220001CN0100001N1+02771+02441101571ADDAA124026091AG10000GF104991031021008001011001KA1240N+02131MA1999999101481MD1999999+0091REMSYN023 333 20213 58009 60264;
0124829000999991994050618004-08050-034917FM-12+000799999V0201801N00311007501CN0100001N1+02811+02421101351ADDAA106007091AG10005AY161061AY261061GF106991061021008001001001MA1999999101261MD1999999+0081MW1031REMSYN017 333 58008 60071;
0143829000999991994050712004-08050-034917FM-12+000799999V0201801N00361007501CN0100001N1+02681+02351101321ADDAA124016091AG10005AY161061AY261061GF107991071041008001001001KA1240N+02351MA1999999101231MD1999999-0251MW1621REMSYN023 333 20235 59025 60164;
0096829000999991994050718004-08050-034917FM-12+000799999V0201801N00461007501CN0100001N1+02871+02351101071ADDAA106000091AG10000GF106991051041008001021001MA1999999100981MD1999999-0281REMSYN011 333 59028;
0162829000999991994050900004-08050-034917FM-12+000799999V0202301N00151007501CN0020001N1+02431+02391101331ADDAA106007091AG10005AY161061AY221061GF108991999021008001001001KA1240M+03001MA1999999101241MD1999999-0021MW1621REMSYN023 333 10300 59002 60071;EQDQ01+000062SCOTLC
0143829000999991994050912004-08050-034917FM-12+000799999V0201801N00311007501CN0100001N1+02801+02541101421ADDAA124012091AG10005AY161061AY221061GF107991061041008001021001KA1240N+02361MA1999999101331MD1999999+0111MW1031REMSYN023 333 20236 58011 60124;
0143829000999991994051112004-08050-034917FM-12+000799999V0201401N00511007501CN0100001N1+02841+02461101491ADDAA124018091AG10005AY161061AY231061GF106991051021008001031001KA1240N+02371MA1999999101401MD1999999+0001MW1021REMSYN023 333 20237 58000 60184;
0143829000999991994051200004-08050-034917FM-12+000799999V0201801N00261007501CN0020001N1+02471+02341101301ADDAA106001091AG10000AY151061AY221061GF106991061041008001001001KA1240M+02931MA1999999101211MD1999999-1011MW1021REMSYN023 333 10293 59101 60011;
0121829000999991994051212004-08050-034917FM-12+000799999V0201801N00311220001CN0100001N1+02771+02481101411ADDAA124001091AG10000GF103991021041008001011001KA1240N+02191MA1999999101321MD1999999-0081REMSYN023 333 20219 59008 60014;
0096829000999991994051218004-08050-034917FM-12+000799999V0201801N00361045001CN0020001N1+02871+02501101191ADDAA106000091AG10000GF106991041021008001031001MA1999999101101MD1999999+0021REMSYN011 333 58002;
0115829000999991994051300004-08050-034917FM-12+000799999V0202301N00151045001CN0020001N1+02581+02491101391ADDAA106000091AG10000GF105991041041008001031001KA1240M+02981MA1999999101301MD1999999+0091REMSYN017 333 10298 58009;
0096829000999991994051318004-08050-034917FM-12+000799999V0201801N00261045001CN0100001N1+02851+02281101191ADDAA106000091AG10000GF106991041021008001031001MA1999999101101MD1999999+0001REMSYN011 333 58000;
0143829000999991994051412004-08050-034917FM-12+000799999V0200501N00101007501CN0100001N1+02731+02451101321ADDAA124009091AG10005AY161061AY261061GF106991061021008001001001KA1240N+02371MA1999999101231MD1999999-0111MW1031REMSYN023 333 20237 59011 60094;
0124829000999991994051418004-08050-034917FM-12+000799999V0201401N00311007501CN0100001N1+02751+02501101101ADDAA106002091AG10005AY161061AY221061GF106991061021008001001001MA1999999101011MD1999999-0091MW1031REMSYN017 333 59009 60021;
0143829000999991994051612004-08050-034917FM-12+000799999V0201801N00361007501CN0040001N1+02671+02541101431ADDAA124002091AG10005AY161061AY221061GF106991061041008001001001KA1240N+02311MA1999999101341MD1999999+0021MW1021REMSYN023 333 20231 58002 60024;
0124829000999991994051618004-08050-034917FM-12+000799999V0201401N00361220001CN0100001N1+02771+02441101211ADDAA106007091AG10005AY161061AY221061GF104991021021008001031001MA1999999101121MD1999999+0011MW1021REMSYN017 333 58001 60071;
0143829000999991994051712004-08050-034917FM-12+000799999V0201401N00511007501CN0100001N1+02881+02391101391ADDAA124012091AG10005AY161061AY221061GF106991061021008001001001KA1240N+02281MA1999999101301MD1999999-0041MW1031REMSYN023 333 20228 59004 60124;
0107829000999991994051718004-08050-034917FM-12+000799999V0201801N00361007501CN0100001N1+02641+02351101161ADDAG10005AY161061AY221061GF107991071051008001001001MA1999999101071MD1999999-0051MW1031REMSYN011 333 59005;
0143829000999991994051812004-08050-034917FM-12+000799999V0201401N00511220001CN0100001N1+02861+02501101481ADDAA124029091AG10005AY161061AY261061GF103991031021008001001001KA1240N+02331MA1999999101391MD1999999+0091MW1011REMSYN023 333 20233 58009 60294;
0096829000999991994051818004-08050-034917FM-12+000799999V0201801N00261220001CN0100001N1+02861+02161101191ADDAA106000091AG10000GF104991021021008001021001MA1999999101101MD1999999+0031REMSYN011 333 58003;
0143829000999991994051912004-08050-034917FM-12+000799999V0202301N00151007501CN0100001N1+02671+02501101471ADDAA124000391AG10000AY151061AY221061GF107991071071008001001001KA1240N+02191MA1999999101381MD1999999-0011MW1031REMSYN023 333 20219 59001 69934;
0124829000999991994051918004-08050-034917FM-12+000799999V0201801N00311007501CN0100001N1+02671+02561101231ADDAA106002091AG10005AY161061AY221061GF107991071051008001001001MA1999999101141MD1999999+0041MW1031REMSYN017 333 58004 60021;
0143829000999991994052012004-08050-034917FM-12+000799999V0201801N00261007501CN0100001N1+02541+02441101471ADDAA124003091AG10005AY161061AY261061GF108991081061008001001001KA1240N+02251MA1999999101381MD1999999+0001MW1051REMSYN023 333 20225 58000 60034;
0124829000999991994052018004-08050-034917FM-12+000799999V0202301N00261007501CN0100001N1+02521+02421101221ADDAA106016091AG10005AY161061AY261061GF108991081051008001001001MA1999999101131MD1999999-0011MW1031REMSYN017 333 59001 60161;
0143829000999991994052112004-08050-034917FM-12+000799999V0201801N00101007501CN0040001N1+02481+02381101571ADDAA124094091AG10005AY161061AY261061GF108991081071008001001001KA1240N+02231MA1999999101481MD1999999+0101MW1051REMSYN023 333 20223 58010 60944;
0124829000999991994052118004-08050-034917FM-12+000799999V0203201N00151007501CN0100001N1+02571+02471101251ADDAA106007091AG10005AY161061AY261061GF108991081071008001001001MA1999999101161MD1999999+0031MW1031REMSYN017 333 58003 60071;
0115829000999991994052200004-08050-034917FM-12+000799999V0202301N00211220001CN0020001N1+02391+02351101461ADDAA106000091AG10000GF103991031021008001001001KA1240M+02591MA1999999101371MD1999999+0011REMSYN017 333 10259 58001;
0087829000999991994052212004-08050-034917FM-12+000799999V0200901N00211007501CN0100001N1+02781+02421101501ADDAG10005AY161061AY221061GF106991061021008001001001MA1999999101411MW1021REMSYN005 333;
0096829000999991994052218004-08050-034917FM-12+000799999V0201401N00311007501CN0100001N1+02831+02481101211ADDAA106000091AG10000GF105991051021008001001001MA1999999101121MD1999999-0041REMSYN011 333 59004;
0115829000999991994052312004-08050-034917FM-12+000799999V0201801N00261220001CN0100001N1+02801+02361101491ADDAA106000091AG10000GF103991031021008001001001KA1240N+02021MA1999999101401MD1999999-0011REMSYN017 333 20202 59001;
0096829000999991994052318004-08050-034917FM-12+000799999V0201401N00211220001CN0100001N1+02841+02401101271ADDAA106000091AG10000GF102991011021008001001041MA1999999101181MD1999999+0081REMSYN011 333 58008;
0115829000999991994052412004-08050-034917FM-12+000799999V0209999999999007501CN0100001N1+02691+02451101501ADDAA106000091AG10000GF106991051041008001021001KA1240N+02131MA1999999101411MD1999999+0011REMSYN017 333 20213 58001;
0096829000999991994052418004-08050-034917FM-12+000799999V0201401N002119999999N0100001N1+02851+02441101181ADDAA106000091AG10000GF106991061001012501031001MA1999999101091MD1999999-0111REMSYN011 333 59011;
0126829000999991994052512004-08050-034917FM-12+000799999V0202301N00211045001CN0100001N1+02501+02451101541ADDAG10005AY161061AY261061GF106991041021008001031001KA1240N+02311MA1999999101451MD1999999+0041MW1021REMSYN017 333 20231 58004;
0073829000999991994052518004-08050-034917FM-12+000799999V0201801N00261007501CN0100001N1+02721+02561101211ADDAG10005AY161061AY261061GF106991061021008001001001MA1999999101121MW1031
0143829000999991994052612004-08050-034917FM-12+000799999V0203201N00101007501CN0100001N1+02621+02481101391ADDAA124023091AG10005AY161061AY261061GF105991051021008001001001KA1240N+02231MA1999999101301MD1999999-0151MW1021REMSYN023 333 20223 59015 60234;
0096829000999991994052618004-08050-034917FM-12+000799999V0201401N00461007501CN0100001N1+02821+02441101041ADDAA106000091AG10000GF105991051021008001001001MA1999999100951MD1999999-0171REMSYN011 333 59017;
0115829000999991994052700004-08050-034917FM-12+000799999V0209991C00001220001CN0020001N1+02421+02351101291ADDAA106000091AG10000GF103991031021008001001001KA1240M+02911MA1999999101201MD1999999+0001REMSYN017 333 10291 58000;
0143829000999991994052712004-08050-034917FM-12+000799999V0201801N00151007501CN0100001N1+02621+02411101341ADDAA106000391AG10000AY151061AY221061GF108991071061008001021001KA1240N+02191MA1999999101251MD1999999-0051MW1011REMSYN023 333 20219 59005 69931;
0143829000999991994052812004-08050-034917FM-12+000799999V0201801N00311007501CN0100001N1+02521+02421101411ADDAA124008091AG10005AY161061AY261061GF108991081061008001999999KA1240N+02251MA1999999101321MD1999999+0071MW1031REMSYN023 333 20225 58007 60084;
0096829000999991994052818004-08050-034917FM-12+000799999V0201801N00311007501CN0100001N1+02691+02391101191ADDAA106000091AG10000GF106991061071008001001001MA1999999101101MD1999999+0001REMSYN011 333 58000;
0115829000999991994052912004-08050-034917FM-12+000799999V0201801N00101007501CN0100001N1+02571+02551101431ADDAA106000091AG10000GF107991071041008001001001KA1240N+02261MA1999999101341MD1999999+0021REMSYN017 333 20226 58002;
0096829000999991994052918004-08050-034917FM-12+000799999V0201401N00311007501CN0100001N1+02831+02601101111ADDAA106000091AG10000GF106991061021008001001001MA1999999101021MD1999999-0081REMSYN011 333 59008;
0143829000999991994053012004-08050-034917FM-12+000799999V0201801N00311007501CN0100001N1+02831+02501101421ADDAA124004091AG10005AY161061AY221061GF107991061041008001021001KA1240N+02351MA1999999101331MD1999999-0011MW1011REMSYN023 333 20235 59001 60044;
0096829000999991994053018004-08050-034917FM-12+000799999V0201801N00261007501CN0100001N1+02841+02401101191ADDAA106000091AG10000GF106991061021008001001001MA1999999101101MD1999999+0081REMSYN011 333 58008;
0143829000999991994053112004-08050-034917FM-12+000799999V0201801N00411007501CN0100001N1+02791+02381101421ADDAA124000591AG10000AY151061AY221061GF105991051021008001001001KA1240N+02211MA1999999101331MD1999999+0001MW1011REMSYN023 333 20221 58000 69944;
0070829000999991994053118004-08050-034917FM-12+000799999V0202301N00101220001CN0100001N1+02501+02381101421ADDAG10000GF104991999021008001061021MA1999999101331EQDQ01+000002SCOTLC
0115829000999991994060100004-08050-034917FM-12+000799999V0201801N00261007501CN0100001N1+02361+02331101391ADDAA106000091AG10000GF105991051021008001001001KA1240M+02881MA1999999101301MD1999999-0031REMSYN017 333 10288 59003;
0143829000999991994060112004-08050-034917FM-12+000799999V0201401N00211007501CN0100001N1+02791+02381101471ADDAA124002091AG10004AY161061AY221061GF106991061021008001001001KA1240N+02111MA1999999101381MD1999999+0051MW1031REMSYN023 333 20211 58005 60024;
0143829000999991994060200004-08050-034917FM-12+000799999V0209991C00001007501CN0020001N1+02371+02341101501ADDAA106010091AG10004AY161061AY261061GF107991071071008001001001KA1240M+02901MA1999999101411MD1999999+0111MW1621REMSYN023 333 10290 58011 60101;
0143829000999991994060212004-08050-034917FM-12+000799999V0201801N00051007501CN0100001N1+02781+02621101471ADDAA124031091AG10004AY161061AY261061GF107991061041008001021001KA1240N+02191MA1999999101381MD1999999+0001MW1031REMSYN023 333 20219 58000 60314;
0096829000999991994060218004-08050-034917FM-12+000799999V0201401N00261007501CN0100001N1+02801+02561101201ADDAA106000091AG10000GF105991051021008001001001MA1999999101111MD1999999-0121REMSYN011 333 59012;
0143829000999991994060312004-08050-034917FM-12+000799999V0202301N00051012001CN0100001N1+02361+02361101601ADDAA124040091AG10004AY161061AY261061GF108991081081008001999999KA1240N+02291MA1999999101511MD1999999+0131MW1211REMSYN023 333 20229 58013 60404;
0124829000999991994060318004-08050-034917FM-12+000799999V0203601N00101012001CN0100001N1+02591+02481101321ADDAA106028091AG10004AY161061AY261061GF108991081081008001999999MA1999999101231MD1999999+0121MW1031REMSYN017 333 58012 60281;
0143829000999991994060412004-08050-034917FM-12+000799999V0200501N00261012001CN0100001N1+02521+02421101571ADDAA124137091AG10004AY161061AY261061GF108991081081008001999999KA1240N+02311MA1999999101481MD1999999-0031MW1631REMSYN023 333 20231 59003 61374;
0134829000999991994060500004-08050-034917FM-12+000799999V0209991C000019999999N0020001N1+02411+02371101601ADDAA106000091AG10000GF106991999021008001001001KA1240M+02641MA1999999101511MD1999999+0071REMSYN017 333 10264 58007;EQDQ01+000042SCOTLC
0147829000999991994060512004-08050-034917FM-12+000799999V0209991C00001999999CN0040001N1+02341+02321101691ADDAA124024091AG10000AY121061AY261061GF108991081999008001999999KA1240N+02231MA1999999101601MD1999999+0121MW1631REMSYN027 333 20223 58012 60244 999;
0163829000999991994060612004-08050-034917FM-12+000799999V0209991C00001002401CN0100001N1+02391+02361101451ADDAA124043091AG10004AY161061AY261061GA1091+999999999GF109991091999999999999999KA1240N+02271MA1999999101361MD1999999+0031MW1211REMSYN027 333 20227 58003 60434 999;
0124829000999991994060618004-08050-034917FM-12+000799999V0201401N00361045001CN0100001N1+02741+02471101341ADDAA106004091AG10004AY161061AY261061GF105991031021008001031001MA1999999101251MD1999999-0031MW1021REMSYN017 333 59003 60041;
0121829000999991994060712004-08050-034917FM-12+000799999V0201801N00311007501CN0100001N1+02721+02521101731ADDAA124004091AG10000GF105991051021008001001001KA1240N+02091MA1999999101641MD1999999+0011REMSYN023 333 20209 58001 60044;
0096829000999991994060718004-08050-034917FM-12+000799999V0201801N00461045001CN0100001N1+02851+02521101491ADDAA106000091AG10000GF106991041021008001031001MA1999999101401MD1999999+0151REMSYN011 333 58015;
0143829000999991994060812004-08050-034917FM-12+000799999V0201801N00361007501CN0100001N1+02631+02371101701ADDAA124013091AG10004AY161061AY221061GF107991071051008001001001KA1240N+02251MA1999999101611MD1999999-0031MW1031REMSYN023 333 20225 59003 60134;
0096829000999991994060818004-08050-034917FM-12+000799999V0201801N00411045001CN0100001N1+02781+02361101491ADDAA106000091AG10000GF105991041031008001031001MA1999999101401MD1999999+0001REMSYN011 333 58000;
0115829000999991994061000004-08050-034917FM-12+000799999V0201801N00151007501CN0020001N1+02511+02411101681ADDAA106000091AG10000GF106991061021008001001001KA1240M+02861MA1999999101591MD1999999-0011REMSYN017 333 10286 59001;
0143829000999991994061012004-08050-034917FM-12+000799999V0201801N00101007501CN0100001N1+02701+02461101761ADDAA124009091AG10004AY161061AY221061GF106991051041008001021001KA1240N+02251MA1999999101671MD1999999+0041MW1011REMSYN023 333 20225 58004 60094;
0062829000999991994061018004-08050-034917FM-12+000799999V0201801N004619999999N0100001N1+02721+02301101441ADDAA106000091AG10000GF106991031999008001999999MA1999999101351
0115829000999991994061100004-08050-034917FM-12+000799999V0202301N00151220001CN0020001N1+02411+02241101641ADDAA106000091AG10000GF104991031021008001011001KA1240M+02861MA1999999101551MD1999999-0041REMSYN017 333 10286 59004;
0124829000999991994061118004-08050-034917FM-12+000799999V0201401N00461220001CN0100001N1+02791+02381101321ADDAA106000191AG10000AY151061AY251061GF103991031021008001001001MA1999999101231MD1999999-0211MW1031REMSYN017 333 59021 69921;
0143829000999991994061212004-08050-034917FM-12+000799999V0201401N00361007501CN0100001N1+02531+02421101471ADDAA124009091AG10004AY161061AY261061GF107991071071008001001001KA1240N+02261MA1999999101381MD1999999-0121MW1031REMSYN023 333 20226 59012 60094;
0115829000999991994061300004-08050-034917FM-12+000799999V0201401N00461007501CN0020001N1+02661+02351101441ADDAA106000091AG10000GF106991061021008001001001KA1240M+02741MA1999999101351MD1999999-0051REMSYN017 333 10274 59005;
0121829000999991994061312004-08050-034917FM-12+000799999V0201801N00511045001CN0100001N1+02801+02401101481ADDAA124004091AG10000GF105991041021008001031001KA1240N+02431MA1999999101391MD1999999+0011REMSYN023 333 20243 58001 60044;
0096829000999991994061318004-08050-034917FM-12+000799999V0201401N00311045001CN0100001N1+02811+02361101321ADDAA106000091AG10000GF106991041021008001031001MA1999999101231MD1999999+0051REMSYN011 333 58005;
0143829000999991994061412004-08050-034917FM-12+000799999V0201801N00151045001CN0100001N1+02641+02501101591ADDAA124004091AG10000AY151061AY221061GF105991041021008001011001KA1240N+02281MA1999999101501MD1999999+0111MW1011REMSYN023 333 20228 58011 60044;
0096829000999991994061418004-08050-034917FM-12+000799999V0201401N00261220001CN0100001N1+02801+02481101421ADDAA106000091AG10000GF104991041021008001001001MA1999999101331MD1999999+0101REMSYN011 333 58010;
0143829000999991994061512004-08050-034917FM-12+000799999V0201801N00311220001CN0100001N1+02691+02311101611ADDAA124000591AG10004AY161061AY221061GF104991021021008001031001KA1240N+02151MA1999999101521MD1999999+0021MW1021REMSYN023 333 20215 58002 69954;
0096829000999991994061518004-08050-034917FM-12+000799999V0201801N00461045001CN0100001N1+02821+02361101401ADDAA106000091AG10000GF105991031021008001031001MA1999999101311MD1999999-0021REMSYN011 333 59002;
0096829000999991994061618004-08050-034917FM-12+000799999V0201401N00261045001CN0100001N1+02841+02601101371ADDAA106000091AG10000GF106991041021008001031001MA1999999101281MD1999999-0031REMSYN011 333 59003;
0143829000999991994061712004-08050-034917FM-12+000799999V0200901N00211007501CN0100001N1+02521+02421101561ADDAA124013091AG10004AY161061AY261061GF107991071071008001001001KA1240N+02271MA1999999101471MD1999999-0111MW1211REMSYN023 333 20227 59011 60134;
0087829000999991994061718004-08050-034917FM-12+000799999V0200901N001510120019N0100001N1+02611+02511101311ADDAG10004AY161061AY261061GF107991071081008001001001MA1999999101221MW1031REMSYN005 333;
0143829000999991994061812004-08050-034917FM-12+000799999V0201801N00361007501CN0100001N1+02691+02451101481ADDAA124013091AG10000AY121061AY261061GF107991071051008001001001KA1240N+02191MA1999999101371MD1999999+0081MW1031REMSYN023 333 20219 58008 60134;
0096829000999991994061818004-08050-034917FM-12+000799999V0201401N00361220001CN0100001N1+02791+02361101191ADDAA106000091AG10000GF103991031021008001001001MA1999999101101MD1999999-0121REMSYN011 333 59012;
0115829000999991994061900004-08050-034917FM-12+000799999V0209991C00001007501CN0020001N1+02371+02331101361ADDAA106000091AG10000GF106991061021008001001001KA1240M+02851MA1999999101271MD1999999-0101REMSYN017 333 10285 59010;
0143829000999991994061912004-08050-034917FM-12+000799999V0201401N00051007501CN0100001N1+02621+02461101421ADDAA124005091AG10004AY161061AY261061GF107991071071008001001001KA1240N+02251MA1999999101331MD1999999-0061MW1031REMSYN023 333 20225 59006 60054;
0096829000999991994061918004-08050-034917FM-12+000799999V0201401N00311007501CN0100001N1+02721+02481101151ADDAA106000091AG10000GF106991051021008001031001MA1999999101061MD1999999-0041REMSYN011 333 59004;
0159829000999991994062012004-08050-034917FM-12+000799999V0209991C00001002401CN0040001N1+02271+02231101551ADDAA124146091AG10004AY161061AY261061GA1091+999999999GF109991091999999999999999KA1240N+02231MA1999999101361MD1999999+0131MW1211REMSYN023 333 20223 58013 61464;
0124829000999991994062018004-08050-034917FM-12+000799999V0209991C00001007501CN0100001N1+02421+02391101251ADDAA106011091AG10004AY161061AY261061GF108991081071008001999999MA1999999101161MD1999999+0101MW1211REMSYN017 333 58010 60111;
0142829000999991994062112004-08050-034917FM-12+000799999V0201801N00411007501CN0100001N9+02771+02341101461ADDAA124016091AG10004AY161061AY261061GF106991051021008001031001KA1240N+02271MA1999999101371MD1999999-0091MW1031REMSYN022 333 20227 59009 60164
0096829000999991994062118004-08050-034917FM-12+000799999V0201801N00361045001CN0100001N1+02771+02321101161ADDAA106000091AG10000GF106991041021008001031001MA1999999101071MD1999999-0091REMSYN011 333 59009;
0143829000999991994062212004-08050-034917FM-12+000799999V0200901N00621012001CN0100001N1+02541+02401101481ADDAA124043091AG10004AY161061AY261061GF108991081081008001999999KA1240N+02271MA1999999101391MD1999999+0021MW1621REMSYN023 333 20227 58002 60434;
0124829000999991994062218004-08050-034917FM-12+000799999V0201401N00411045001CN0100001N1+02741+02401101201ADDAA106000591AG10000AY151061AY221061GF106991041051008001031001MA1999999101111MD1999999+0041MW1161REMSYN017 333 58004 69941;
0115829000999991994062300004-08050-034917FM-12+000799999V0209991C00001220001CN0020001N1+02321+02301101391ADDAA106000091AG10000GF104991041011008001001001KA1240M+02781MA1999999101301MD1999999+0071REMSYN017 333 10278 58007;
0121829000999991994062312004-08050-034917FM-12+000799999V0201801N002110450019N0100001N1+02721+02501101451ADDAA124000591AG10000GF105991041021008001011001KA1240N+02101MA1999999101361MD1999999-0031REMSYN023 333 20210 59003 69944;
0096829000999991994062318004-08050-034917FM-12+000799999V0201401N00311220001CN0100001N1+02811+02441101151ADDAA106000091AG10000GF103991031021008001001001MA1999999101061MD1999999-0051REMSYN011 333 59005;
0143829000999991994062412004-08050-034917FM-12+000799999V0201401N00151007501CN0100001N1+02681+02451101371ADDAA124004091AG10004AY161061AY261061GF105991051021008001001001KA1240N+02291MA1999999101281MD1999999-0081MW1011REMSYN023 333 20229 59008 60044;
0096829000999991994062418004-08050-034917FM-12+000799999V0201401N00361007501CN0100001N1+02831+02461101121ADDAA106000091AG10000GF106991061021008001001001MA1999999101031MD1999999-0031REMSYN011 333 59003;
0143829000999991994062512004-08050-034917FM-12+000799999V0202301N00211007501CN0100001N1+02631+02441101401ADDAA124008091AG10004AY161061AY261061GF105991051021008001001001KA1240N+02191MA1999999101311MD1999999+0031MW1031REMSYN023 333 20219 58003 60084;
0143829000999991994062612004-08050-034917FM-12+000799999V0209991C00001007501CN0100001N1+02531+02491101411ADDAA124031091AG10004AY161061AY261061GF107991071021008001001001KA1240N+02191MA1999999101321MD1999999+0011MW1031REMSYN023 333 20219 58001 60314;
0096829000999991994062618004-08050-034917FM-12+000799999V0201401N00311007501CN0100001N1+02811+02521101281ADDAA106000091AG10000GF106991061021008001001001MA1999999101191MD1999999-0101REMSYN011 333 59010;
0143829000999991994062712004-08050-034917FM-12+000799999V0201801N00311220001CN0100001N1+02621+02461101561ADDAA124000191AG10000AY151061AY211061GF102991021021008001001001KA1240N+02121MA1999999101471MD1999999+0151MW1031REMSYN023 333 20212 58015 69924;
0096829000999991994062718004-08050-034917FM-12+000799999V0201401N00261007501CN0100001N1+02801+02481101351ADDAA106000091AG10000GF106991061021008001001001MA1999999101261MD1999999+0071REMSYN011 333 58007;
0142829000999991994062812004-08050-034917FM-12+000799999V0201401N00361045001CN0100001N9+02771+02481101521ADDAA124030091AG10004AY161061AY261061GF106991041021008001031001KA1240N+02281MA1999999101431MD1999999-0041MW1031REMSYN022 333 20228 59004 60304
0124829000999991994062818004-08050-034917FM-12+000799999V0201401N00411007501CN0100001N1+02681+02481101291ADDAA106002091AG10004AY161061AY251061GF108991081051008001999999MA1999999101201MD1999999-0061MW1031REMSYN017 333 59006 60021;
0143829000999991994062900004-08050-034917FM-12+000799999V0201401N00211007501CN0020001N1+02451+02281101521ADDAA106020091AG10004AY161061AY261061GF106991061021008001001001KA1240M+02861MA1999999101431MD1999999-0051MW1011REMSYN023 333 10286 59005 60201;
0143829000999991994062912004-08050-034917FM-12+000799999V0201801N00411007501CN0100001N1+02621+02351101631ADDAA124022091AG10004AY161061AY221061GF106991051041008001021001KA1240N+02231MA1999999101541MD1999999+0111MW1011REMSYN023 333 20223 58011 60224;
0096829000999991994062918004-08050-034917FM-12+000799999V0201801N00361045001CN0100001N1+02781+02131101401ADDAA106000091AG10000GF105991031021008001021001MA1999999101311MD1999999+0111REMSYN011 333 58011;
0143829000999991994063012004-08050-034917FM-12+000799999V0201401N00511007501CN0100001N1+02711+02391101621ADDAA124007091AG10004AY161061AY231061GF105991051021008001001001KA1240N+02231MA1999999101531MD1999999-0011MW1031REMSYN023 333 20223 59001 60074;
0143829000999991994070112004-08050-034917FM-12+000799999V0200501N00101012001CN0100001N1+02361+02331101581ADDAA124026091AG10004AY161061AY261061GF108991081081008001999999KA1240N+02191MA1999999101491MD1999999-0041MW1211REMSYN023 333 20219 59004 60264;
0124829000999991994070118004-08050-034917FM-12+000799999V0201801N00311045001CN0100001N1+02721+02151101331ADDAA106000391AG10000AY151061AY251061GF106991041021008001031001MA1999999101241MD1999999-0051MW1031REMSYN017 333 59005 69931;
0143829000999991994070200004-08050-034917FM-12+000799999V0209991C00001007501CN0020001N1+02201+02121101491ADDAA106003091AG10000AY151061AY221061GF106991051041008001021001KA1240M+02871MA1999999101401MD1999999-0031MW1031REMSYN023 333 10287 59003 60031;
0106829000999991994070212004-08050-034917FM-12+000799999V0201401N00211007501CN0100001N1+02671+02281101521ADDAG10004AY161061AY221061GF105991051021008001001001KA1999N+02031MA1999999101431MW1021REMSYN011 333 20203;
0096829000999991994070218004-08050-034917FM-12+000799999V0201401N00511007501CN0100001N1+02741+02301101401ADDAA106000091AG10000GF105991051021008001001001MA1999999101311MD1999999+0071REMSYN011 333 58007;
0115829000999991994070312004-08050-034917FM-12+000799999V0201401N00211007501CN0100001N1+02731+02471101591ADDAA106000091AG10000GF106991051041008001021001KA1240N+02151MA1999999101501MD1999999-0071REMSYN017 333 20215 59007;
0124829000999991994070318004-08050-034917FM-12+000799999V0201801N00211045001CN0100001N1+02681+02461101431ADDAA124003091AG10004AY161061AY221061GF105991041021008001031001MA1999999101341MD1999999+0031MW1021REMSYN017 333 58003 60034;
0143829000999991994070412004-08050-034917FM-12+000799999V0201401N00211007501CN0100001N1+02731+02321101601ADDAA124017091AG10004AY161061AY221061GF105991051021008001001001KA1240N+02291MA1999999101511MD1999999+0011MW1021REMSYN023 333 20229 58001 60174;
0096829000999991994070418004-08050-034917FM-12+000799999V0201401N00361007501CN0100001N1+02721+02321101421ADDAA106000091AG10000GF105991051021008001001001MA1999999101331MD1999999-0011REMSYN011 333 59001;
0143829000999991994070512004-08050-034917FM-12+000799999V0201801N00261007501CN0100001N1+02541+02251101621ADDAA124001091AG10004AY161061AY221061GF105991051021008001001001KA1240N+02101MA1999999101531MD1999999+0021MW1021REMSYN023 333 20210 58002 60014;
0096829000999991994070518004-08050-034917FM-12+000799999V0201401N00361220001CN0100001N1+02721+02151101291ADDAA106000091AG10000GF104991041021008001001001MA1999999101201MD1999999-0131REMSYN011 333 59013;
0143829000999991994070600004-08050-034917FM-12+000799999V0202301N00051220001CN0020001N1+02271+02251101501ADDAA106000391AG10000AY151061AY221061GF102991011011008001031001KA1240M+02821MA1999999101411MD1999999-0101MW1021REMSYN023 333 10282 59010 69931;
0128829000999991994070612004-08050-034917FM-12+000799999V0201401N00511045001CN0100001N1+02641+02231101451ADDAA124003091AG10004AY161061AY221061GF106991041081008001031001KA1240N+02121MD1999999-0171MW1161REMSYN023 333 20212 59017 60034;
0096829000999991994070618004-08050-034917FM-12+000799999V0201401N00211007501CN0100001N1+02781+02361101231ADDAA106000091AG10000GF105991051021008001001001MA1999999101141MD1999999-0061REMSYN011 333 59006;
0143829000999991994070712004-08050-034917FM-12+000799999V0201401N00261220001CN0100001N1+02731+02451101501ADDAA124003091AG10004AY161061AY221061GF103991031021008001001001KA1240N+02111MA1999999101411MD1999999+0051MW1021REMSYN023 333 20211 58005 60034;
0124829000999991994070718004-08050-034917FM-12+000799999V0201401N00361007501CN0100001N1+02681+02451101301ADDAA106001091AG10000AY151061AY221061GF106991061021008001001001MA1999999101211MD1999999+0071MW1021REMSYN017 333 58007 60011;
0096829000999991994070818004-08050-034917FM-12+000799999V0201401N00511007501CN0100001N1+02661+02331101481ADDAA106000091AG10000GF108991081051008001001001MA1999999101391MD1999999-0181REMSYN011 333 59018;
0143829000999991994070912004-08050-034917FM-12+000799999V0201801N00261012001CN0100001N1+02481+02341101701ADDAA124000591AG10000AY121061AY221061GF106991061081008001001001KA1240N+02131MA1999999101611MD1999999+0041MW1521REMSYN023 333 20213 58004 69964;
0124829000999991994070918004-08050-034917FM-12+000799999V0201801N00361220001CN0100001N1+02731+02261101481ADDAA106999929AG10000AY151061AY211061GF102991021021008001001001MA1999999101391MD1999999+0001MW1011REMSYN017 333 58000 69901;
0143829000999991994071012004-08050-034917FM-12+000799999V0201801N00211220001CN0100001N1+02571+02331101741ADDAA124000591AG10000AY151061AY221061GF103991031021008001001001KA1240N+01901MA1999999101651MD1999999+0041MW1021REMSYN023 333 20190 58004 69944;
0096829000999991994071018004-08050-034917FM-12+000799999V0201401N00361220001CN0100001N1+02751+02381101641ADDAA106000091AG10000GF104991031021008001031001MA1999999101551MD1999999+0161REMSYN011 333 58016;
0143829000999991994071112004-08050-034917FM-12+000799999V0201801N00671220001CN0100001N1+02681+02281101991ADDAA124001091AG10000AY151061AY221061GF104991041021008001001001KA1240N+02211MA1999999101901MD1999999+0201MW1011REMSYN023 333 20221 58020 69994;
0096829000999991994071118004-08050-034917FM-12+000799999V0201801N00511045001CN0100001N1+02731+02191101741ADDAA106000091AG10000GF106991041021008001031001MA1999999101651MD1999999+0101REMSYN011 333 58010;
0143829000999991994071212004-08050-034917FM-12+000799999V0201801N00511220001CN0100001N1+02701+02261101901ADDAA124002091AG10000AY151061AY251061GF103991031021008001001001KA1240N+02121MA1999999101811MD1999999-0091MW1021REMSYN023 333 20212 59009 60024;
0096829000999991994071218004-08050-034917FM-12+000799999V0201401N00511220001CN0100001N1+02691+02411101741ADDAA106000091AG10000GF104991041021008001001001MA1999999101651MD1999999+0001REMSYN011 333 58000;
0143829000999991994071300004-08050-034917FM-12+000799999V0201801N00261220001CN0020001N1+02381+02241101831ADDAA106001091AG10000AY121061AY221061GF104991041021008001001001KA1240M+02841MA1999999101741MD1999999+0001MW1521REMSYN023 333 10284 58000 69991;
0121829000999991994071312004-08050-034917FM-12+000799999V0201801N00571007501CN0100001N1+02701+02301101831ADDAA124001091AG10000GF105991051021008001001001KA1240N+02311MA1999999101741MD1999999-0071REMSYN023 333 20231 59007 69994;
0096829000999991994071318004-08050-034917FM-12+000799999V0201801N00511007501CN0100001N1+02681+02431101581ADDAA106000091AG10000GF106991051041008001021001MA1999999101491MD1999999-0161REMSYN011 333 59016;
0115829000999991994071400004-08050-034917FM-12+000799999V0201801N00261220001CN0020001N1+02421+02051101701ADDAA106000091AG10000GF102991021021008001001001KA1240M+02781MA1999999101611MD1999999-0131REMSYN017 333 10278 59013;
0143829000999991994071412004-08050-034917FM-12+000799999V0201401N00261007501CN0100001N1+02531+02311101771ADDAA124001091AG10004AY161061AY221061GF107991061041008001021001KA1240N+02061MA1999999101681MD1999999-0061MW1011REMSYN023 333 20206 59006 60014;
0143829000999991994071512004-08050-034917FM-12+000799999V0201401N00101012001CN0100001N1+02321+02291101821ADDAA124019091AG10004AY161061AY261061GF108991081081008001999999KA1240N+02251MA1999999101731MD1999999+0051MW1211REMSYN023 333 20225 58005 60194;
0124829000999991994071518004-08050-034917FM-12+000799999V0202301N00311012001CN0100001N1+02371+02341101541ADDAA106013091AG10004AY161061AY261061GF108991081081008001999999MA1999999101451MD1999999-0051MW1211REMSYN017 333 59005 60131;
0143829000999991994071612004-08050-034917FM-12+000799999V0201801N00261007501CN0040001N1+02411+02351101781ADDAA124030091AG10004AY161061AY221061GF108991081071008001999999KA1240N+02291MA1999999101691MD1999999-0041MW1211REMSYN023 333 20229 59004 60304;
0124829000999991994071618004-08050-034917FM-12+000799999V0201801N00461007501CN0100001N1+02611+02091101491ADDAA106000191AG10004AY161061AY221061GF107991061031008001021001MA1999999101401MD1999999-0051MW1011REMSYN017 333 59005 69911;
0143829000999991994071712004-08050-034917FM-12+000799999V0201801N00261007501CN0100001N1+02531+02381101721ADDAA124007091AG10004AY161061AY261061GF106991051041008001021001KA1240N+02191MA1999999101631MD1999999-0061MW1011REMSYN023 333 20219 59006 60074;
0124829000999991994071718004-08050-034917FM-12+000799999V0201801N00361007501CN0100001N1+02541+02291101521ADDAA106002091AG10004AY161061AY261061GF107991071071008001001001MA1999999101431MD1999999+0031MW1031REMSYN017 333 58003 60021;
0143829000999991994071812004-08050-034917FM-12+000799999V0201401N00151012001CN0100001N1+02531+02361101691ADDAA124030091AG10004AY161061AY261061GF106991061081008001001001KA1240N+02151MA1999999101601MD1999999-0031MW1161REMSYN023 333 20215 59003 60304;
0143829000999991994071912004-08050-034917FM-12+000799999V0201401N00361007501CN0100001N1+02741+02481101741ADDAA124007091AG10004AY161061AY221061GF106991051041008001021001KA1240N+02191MA1999999101651MD1999999+0051MW1011REMSYN023 333 20219 58005 60074;
0096829000999991994071918004-08050-034917FM-12+000799999V0201401N00311007501CN0100001N1+02771+02381101491ADDAA106000091AG10000GF106991061021008001001001MA1999999101401MD1999999+0001REMSYN011 333 58000;
0143829000999991994072012004-08050-034917FM-12+000799999V0201401N00461007501CN0100001N1+02691+02411101741ADDAA124013091AG10004AY161061AY221061GF106991051021008001011001KA1240N+02271MA1999999101651MD1999999+0001MW1011REMSYN023 333 20227 58000 60134;
0096829000999991994072018004-08050-034917FM-12+000799999V0201801N00511007501CN0100001N1+02721+02281101471ADDAA106000091AG10000GF106991061021008001001001MA1999999101381MD1999999-0021REMSYN011 333 59002;
0115829000999991994072100004-08050-034917FM-12+000799999V0203201N00151007501CN0020001N1+02341+02291101661ADDAA106000091AG10000GF107991071021008001001001KA1240M+02801MA1999999101571MD1999999+0041REMSYN017 333 10280 58004;
0143829000999991994072112004-08050-034917FM-12+000799999V0202301N00151012001CN0100001N1+02321+02241101691ADDAA124008091AG10004AY161061AY261061GF108991081081008001999999KA1240N+02111MA1999999101601MD1999999-0061MW1161REMSYN023 333 20211 59006 60084;
0124829000999991994072118004-08050-034917FM-12+000799999V0201401N00511012001CN0100001N1+02591+02371101411ADDAA106020091AG10004AY161061AY261061GF108991081081008001999999MA1999999101321MD1999999-0061MW1031REMSYN017 333 59006 60201;
0143829000999991994072200004-08050-034917FM-12+000799999V0201401N00151007501CN0020001N1+02291+02231101641ADDAA106003091AG10004AY161061AY261061GF107991071061008001001001KA1240M+02721MA1999999101551MD1999999-0021MW1031REMSYN023 333 10272 59002 60031;
0121829000999991994072212004-08050-034917FM-12+000799999V0201401N00361007501CN0100001N1+02721+02391101641ADDAA124023091AG10004GF106991061021008001001001KA1240N+02071MA1999999101551MD1999999-0051REMSYN023 333 20207 59005 60234;
0143829000999991994072300004-08050-034917FM-12+000799999V0202301N00151007501CN0020001N1+02271+02261101761ADDAA106007091AG10004AY161061AY261061GF107991071051008001001001KA1240M+02841MA1999999101671MD1999999+0121MW1031REMSYN023 333 10284 58012 60071;
0143829000999991994072312004-08050-034917FM-12+000799999V0200901N00311007501CN0100001N1+02511+02471101691ADDAA124022091AG10004AY161061AY261061GF108991081071008001001001KA1240N+02291MA1999999101601MD1999999+0051MW1211REMSYN023 333 20229 58005 60224;
0124829000999991994072318004-08050-034917FM-12+000799999V0201401N00311007501CN0100001N1+02701+02391101531ADDAA106001091AG10000AY151061AY221061GF106991061021008001001001MA1999999101441MD1999999+0031MW1031REMSYN017 333 58003 60011;
0115829000999991994072400004-08050-034917FM-12+000799999V0209991C00001220001CN0020001N1+02231+02081101721ADDAA106000091AG10000GF102991021021008001001001KA1240M+02741MA1999999101631MD1999999-0041REMSYN017 333 10274 59004;
0143829000999991994072500004-08050-034917FM-12+000799999V0202301N00101220001CN0020001N1+02281+02231101611ADDAA106001091AG10000AY151061AY221061GF103991031021008001001001KA1240M+02691MA1999999101521MD1999999-0111MW1011REMSYN023 333 10269 59011 60011;
0159829000999991994072612004-08050-034917FM-12+000799999V0201801N00211002401CN0100001N1+02491+02361101671ADDAA124008091AG10004AY161061AY221061GA1091+999999999GF109991091999999999999999KA1240N+02151MA1999999101581MD1999999+0001MW1211REMSYN023 333 20215 58000 60084;
0146829000999991994072618004-08050-034917FM-12+000799999V0201801N00361012001CN0100001N1+02711+02391101421ADDAA106003091AG10004AY161061AY261061GA1021+135009019GF108991081081008001999999MA1999999101331MD1999999-0031MW1161REMSYN023 333 59003 60031 82983;
0115829000999991994072700004-08050-034917FM-12+000799999V0202301N00051220001CN0020001N1+02271+02191101681ADDAA106000091AG10000GF102991021021008001001001KA1240M+02761MA1999999101591MD1999999+0101REMSYN017 333 10276 58010;
0084829000999991994072712004-08050-034917FM-12+000799999V0202301N00211012001CN0100001N1+02381+02281101781ADDAG10000GF106991061081008001001001KA1999N+02061MA1999999101691REMSYN011 333 20206;
0062829000999991994072718004-08050-034917FM-12+000799999V0201801N00511012001CN0100001N1+02681+02411101521ADDAA106000091AG10000GF108991081081008001999999MA1999999101431
0128829000999991994072812004-08050-034917FM-12+000799999V0201401N00511012001CN0100001N1+02731+99999101741ADDAA124010091AG10004AY161061AY261061GF106991061081008001001001KA1240N+02271MD1999999-0041MW1031REMSYN023 333 20227 59004 60104;
0096829000999991994072818004-08050-034917FM-12+000799999V0201801N00621220001CN0100001N1+02721+02121101621ADDAA106000091AG10000GF104991041021008001001001MA1999999101531MD1999999+0101REMSYN011 333 58010;
0143829000999991994072912004-08050-034917FM-12+000799999V0201401N00571007501CN0100001N1+02651+02421101821ADDAA124004091AG10004AY161061AY261061GF106991051041008001021001KA1240N+02131MA1999999101731MD1999999+0081MW1011REMSYN023 333 20213 58008 60044;
0096829000999991994072918004-08050-034917FM-12+000799999V0201801N00511007501CN0100001N1+02651+02181101601ADDAA106000091AG10000GF105991051021008001001001MA1999999101511MD1999999-0021REMSYN011 333 59002;
0143829000999991994073012004-08050-034917FM-12+000799999V0201401N00511045001CN0100001N1+02661+02221101661ADDAA124010091AG10004AY161061AY261061GF105991041021008001031001KA1240N+02191MA1999999101571MD1999999-0161MW1011REMSYN023 333 20219 59016 60104;
0096829000999991994073018004-08050-034917FM-12+000799999V0201401N00511220001CN0100001N1+02701+02261101511ADDAA106000091AG10000GF103991031021008001001001MA1999999101421MD1999999-0591REMSYN011 333 59059;
0143829000999991994073112004-08050-034917FM-12+000799999V0201401N00311007501CN0100001N1+02321+02251101761ADDAA124005091AG10000AY101061AY201061GF107991071051008001001001KA1240N+02001MA1999999101671MD1999999+0101MW1621REMSYN023 333 20200 58010 60054;
0124829000999991994073118004-08050-034917FM-12+000799999V0201401N00361007501CN0100001N1+02651+02201101641ADDAA106000391AG10000AY151061AY221061GF106991061021008001001001MA1999999101551MD1999999+0131MW1021REMSYN017 333 58013 69931;
0115829000999991994080100004-08050-034917FM-12+000799999V0202301N00151007501CN0020001N1+02261+02141101741ADDAA106000091AG10000GF105991051021008001001001KA1240M+02741MA1999999101651MD1999999+0001REMSYN017 333 10274 58000;
0143829000999991994080112004-08050-034917FM-12+000799999V0201801N00361007501CN0100001N1+02421+02281101851ADDAA124004091AG10005AY161061AY221061GF106991061041008001001001KA1240N+02041MA1999999101761MD1999999+0131MW1031REMSYN023 333 20204 58013 60044;
0121829000999991994080212004-08050-034917FM-12+000799999V0201801N00261045001CN0100001N1+02551+02171101861ADDAA124001091AG10000GF105991041041008001011001KA1240N+01861MA1999999101071MD1999999+0011REMSYN023 333 20186 58001 60014;
0096829000999991994080218004-08050-034917FM-12+000799999V0201801N00311220001CN0100001N1+02681+02221101601ADDAA106000091AG10000GF102991021021008001001001MA1999999101511MD1999999-0011REMSYN011 333 59001;
0143829000999991994080312004-08050-034917FM-12+000799999V0201401N00311007501CN0100001N1+02561+02251101791ADDAA124000191AG10000AY151061AY221061GF105991051021008001001001KA1240N+01881MA1999999101701MD1999999-0071MW1021REMSYN023 333 20188 59007 69914;
0096829000999991994080318004-08050-034917FM-12+000799999V0201401N00261220001CN0100001N1+02741+02241101491ADDAA106000091AG10000GF104991041021008001001001MA1999999101401MD1999999-0111REMSYN011 333 59011;
0134829000999991994080400004-08050-034917FM-12+000799999V0209991C00001220001CN0020001N1+02151+99999101661ADDAA106000091AG10000GF103991999021008001001001KA1240M+02781MA1999999101571MD1999999-0091REMSYN017 333 10278 59009;EQDQ01+000022SCOTLC
0115829000999991994080412004-08050-034917FM-12+000799999V0201401N00311007501CN0100001N1+02611+02391101801ADDAA106000091AG10000GF107991061041008001021001KA1240N+01941MA1999999101711MD1999999+0011REMSYN017 333 20194 58001;
0096829000999991994080418004-08050-034917FM-12+000799999V0201401N00211007501CN0100001N1+02711+02261101491ADDAA106000091AG10000GF105991051021008001001001MA1999999101401MD1999999+0001REMSYN011 333 58000;
0115829000999991994080512004-08050-034917FM-12+000799999V0201801N00311007501CN0100001N1+02621+02251101861ADDAA106000091AG10000GF106991061021008001001001KA1240N+02011MA1999999101771MD1999999+0061REMSYN017 333 20201 58006;
0096829000999991994080518004-08050-034917FM-12+000799999V0201801N00461220001CN0100001N1+02741+02261101451ADDAA106000091AG10000GF104991041021008001001001MA1999999101361MD1999999-0041REMSYN011 333 59004;
0115829000999991994080600004-08050-034917FM-12+000799999V0201801N00151220001CN0020001N1+02191+02061101721ADDAA106000091AG10000GF101991011011008001001001KA1240M+02861MA1999999101631MD1999999-0021REMSYN017 333 10286 59002;
0115829000999991994080612004-08050-034917FM-12+000799999V0201801N00411007501CN0100001N1+02531+02111101731ADDAA106000091AG10000GF107991061041008001021001KA1240N+01891MA1999999101641MD1999999-0131REMSYN017 333 20189 59013;
0096829000999991994080618004-08050-034917FM-12+000799999V0201801N00311007501CN0100001N1+02701+02111101431ADDAA106000091AG10000GF107991071031008001001001MA1999999101341MD1999999-0021REMSYN011 333 59002;
0115829000999991994080712004-08050-034917FM-12+000799999V0201801N00461007501CN0100001N1+02571+02251101611ADDAA106000091AG10000GF106991061021008001001001KA1240N+02051MA1999999101521MD1999999-0101REMSYN017 333 20205 59010;
0096829000999991994080718004-08050-034917FM-12+000799999V0201801N00511007501CN0100001N1+02581+02271101311ADDAA106000091AG10000GF106991051021008001031001MA1999999101221MD1999999-0121REMSYN011 333 59012;
0143829000999991994080812004-08050-034917FM-12+000799999V0201801N00461007501CN0100001N1+02451+02271101731ADDAA124002091AG10005AY161061AY221061GF107991061041008001021001KA1240N+02101MA1999999101641MD1999999+0121MW1031REMSYN023 333 20210 58012 60024;
0096829000999991994080818004-08050-034917FM-12+000799999V0201801N00461220001CN0100001N1+02741+02211101471ADDAA106000091AG10000GF102991011011008001001011MA1999999101381MD1999999+0161REMSYN011 333 58016;
0115829000999991994080912004-08050-034917FM-12+000799999V0201401N00411007501CN0100001N1+02671+02351101741ADDAA106000091AG10000GF106991061021008001001001KA1240N+01971MA1999999101651MD1999999+0011REMSYN017 333 20197 58001;
0096829000999991994080918004-08050-034917FM-12+000799999V0201801N00621007501CN0100001N1+02721+02191101501ADDAA106000091AG10000GF106991061031008001001001MA1999999101411MD1999999+0031REMSYN011 333 58003;
0143829000999991994081000004-08050-034917FM-12+000799999V0209991C00001007501CN0020001N1+02261+02211101741ADDAA106003091AG10005AY161061AY221061GF106991061041008001001001KA1240M+02841MA1999999101651MD1999999+0041MW1621REMSYN023 333 10284 58004 60031;
0143829000999991994081012004-08050-034917FM-12+000799999V0201801N00261007501CN0100001N1+02331+02251101841ADDAA124013091AG10005AY161061AY261061GF107991061041008001021001KA1240N+02101MA1999999101751MD1999999+0051MW1011REMSYN023 333 20210 58005 60134;
0096829000999991994081018004-08050-034917FM-12+000799999V0201801N00151045001CN0100001N1+02711+02281101601ADDAA106000091AG10000GF105991031021008001031001MA1999999101511MD1999999+0101REMSYN011 333 58010;
0143829000999991994081112004-08050-034917FM-12+000799999V0202301N00511007501CN0100001N1+02441+02191101751ADDAA124001091AG10005AY161061AY221061GF107991051051008001031001KA1240N+02041MA1999999101661MD1999999-0091MW1021REMSYN023 333 20204 59009 60014;
0118829000999991994081118004-08050-034917FM-12+000799999V0201401N00511012001CN0100001N1+02601+02291101491ADDAA106000091AG10000AY121061AY221061GF107991061081008001031001MA1999999101401MD1999999-0111MW1161REMSYN011 333 59011;
0143829000999991994081200004-08050-034917FM-12+000799999V0209991C00001007501CN0020001N1+02271+02201101661ADDAA106001091AG10000AY151061AY221061GF107991071041008001001001KA1240M+02761MA1999999101571MD1999999-0051MW1021REMSYN023 333 10276 59005 60011;
0096829000999991994081218004-08050-034917FM-12+000799999V0201801N00671045001CN0100001N1+02641+02071101561ADDAA106000091AG10000GF105991041021008001031001MA1999999101471MD1999999+0071REMSYN011 333 58007;
0143829000999991994081300004-08050-034917FM-12+000799999V0201801N00311007501CN0020001N1+02271+02211101841ADDAA106001091AG10005AY161061AY221061GF106991061031008001001001KA1240M+02801MA1999999101751MD1999999+0181MW1021REMSYN023 333 10280 58018 60011;
0096829000999991994081318004-08050-034917FM-12+000799999V0201801N00981007501CN0100001N1+02711+02171101561ADDAA106000091AG10000GF106991051021008001041001MA1999999101471MD1999999+0001REMSYN011 333 58000;
0115829000999991994081400004-08050-034917FM-12+000799999V0201801N00151220001CN0020001N1+02271+02071101681ADDAA106000091AG10000GF103991031001008001001999KA1240M+02801MA1999999101591MD1999999-0161REMSYN017 333 10280 59016;
0096829000999991994081418004-08050-034917FM-12+000799999V0201801N00871007501CN0100001N1+02701+02151101471ADDAA106000091AG10000GF105991051021008001001001MA1999999101381MD1999999-0091REMSYN011 333 59009;
0077829000999991994081512004-08050-034917FM-12+000799999V0201801N004619999999N0100001N1+02491+02251101721ADDAG10000GF106991999999008001999999MA1999999101631REMSYN017 333 20/// 59///;
0143829000999991994081612004-08050-034917FM-12+000799999V0201801N00211220001CN0100001N1+02591+02271101821ADDAA124008091AG10005AY161061AY261061GF102991021021008001001001KA1240N+02101MA1999999101731MD1999999+0101MW1021REMSYN023 333 20210 58010 60084;
0115829000999991994081700004-08050-034917FM-12+000799999V0202301N00311007501CN0020001N1+02311+01941101661ADDAA106000091AG10000GF106991061031008001001001KA1240M+02761MA1999999101571MD1999999+0001REMSYN017 333 10276 58000;
0143829000999991994081712004-08050-034917FM-12+000799999V0201801N00461007501CN0100001N1+02421+02231101751ADDAA124000191AG10005AY161061AY221061GF107991051041008001021001KA1240N+02051MA1999999101661MD1999999-0071MW1031REMSYN023 333 20205 59007 69914;
0124829000999991994081718004-08050-034917FM-12+000799999V0201801N00311007501CN0100001N1+02331+02251101491ADDAA106003091AG10005AY161061AY261061GF108991081071008001999999MA1999999101401MD1999999-0071MW1601REMSYN017 333 59007 60031;
0143829000999991994081800004-08050-034917FM-12+000799999V0201401N00151012001CN0020001N1+02231+02171101811ADDAA106010091AG10005AY161061AY261061GF108991081081008001999999KA1240M+02651MA1999999101721MD1999999+0151MW1211REMSYN023 333 10265 58015 60101;
0124829000999991994081818004-08050-034917FM-12+000799999V0201401N00311045001CN0100001N1+02671+02281101561ADDAA106001091AG10000AY151061AY221061GF106991041021008001021001MA1999999101471MD1999999+0071MW1021REMSYN017 333 58007 60011;
0115829000999991994081900004-08050-034917FM-12+000799999V0201801N00211220001CN0020001N1+02371+02171101781ADDAA106000091AG10000GF102991021021008001001001KA1240M+02781MA1999999101691MD1999999-0031REMSYN017 333 10278 59003;
0121829000999991994081912004-08050-034917FM-12+000799999V0201801N00671045001CN0100001N1+02641+02231101801ADDAA124000591AG10000GF106991041021008001031001KA1240N+02151MA1999999101711MD1999999+0011REMSYN023 333 20215 58001 69954;
0124829000999991994081918004-08050-034917FM-12+000799999V0201801N00571012001CN0100001N1+02541+02351101551ADDAA106000391AG10000AY151061AY221061GF106991051081008001031001MA1999999101461MD1999999-0011MW1031REMSYN017 333 59001 69931;
0143829000999991994082000004-08050-034917FM-12+000799999V0201801N00211045001CN0020001N1+02311+02271101641ADDAA106000191AG10000AY151061AY211061GF106991041021008001031001KA1240M+02781MA1999999101551MD1999999-0141MW1021REMSYN023 333 10278 59014 69911;
0143829000999991994082012004-08050-034917FM-12+000799999V0201801N00621007501CN0100001N1+02611+02401101781ADDAA124011091AG10005AY161061AY261061GF106991051041008001021001KA1240N+02211MA1999999101691MD1999999-0021MW1031REMSYN023 333 20221 59002 60114;
0143829000999991994082018004-08050-034917FM-12+000799999V0201401N00511012001CN0100001N1+02571+01331101521ADDAA106003091AG10000AY151061AY251061GF108991081081008001999999MA1999999101431MD1999999-0031MW1211REMSYN017 333 59003 60031;EQDQ01+999990APOSP 
0143829000999991994082100004-08050-034917FM-12+000799999V0201801N00461007501CN0020001N1+02451+02231101721ADDAA106004091AG10005AY161061AY261061GF106991061021008001001001KA1240M+02701MA1999999101631MD1999999+0081MW1031REMSYN023 333 10270 58008 60041;
0143829000999991994082112004-08050-034917FM-12+000799999V0201801N00511220001CN0100001N1+02701+02261101691ADDAA124007091AG10000AY151061AY211061GF103991011021008001031001KA1240N+02351MA1999999101601MD1999999-0091MW1011REMSYN023 333 20235 59009 60074;
0112829000999991994082118004-08050-034917FM-12+000799999V0201801N00261220001CN0100001N1+02701+01991101431ADDAA106000091AG10000GA1001+999999999GF100991001001999999001001MA1999999101341MD1999999-0091REMSYN011 333 59009;
