0130829860999991994010100004-09400-038217FM-12+0252SBUF V0200901N00511220001CN9999999N9+03001+02031101061ADDAA106000091AG14000GA1001+999999999GF100991001001999999001001KA1240M+03641MA1999999098241MD1999999+0111REMSYN016 333 10364 58011
0114829860999991994010112004-09400-038217FM-12+0252SBUF V0201401N00311045001CN0200001N9+02701+02111101321ADDAA106000091AG14000GF106991031071008001081001KA1240N+02301MA1999999098491MD1999999+0081REMSYN016 333 20230 58008
0130829860999991994010200004-09400-038217FM-12+0252SBUF V0201401N00511220001CN9999999N9+02801+01981101101ADDAA106000091AG14000GA1001+999999999GF100991001001999999001001KA1240M+03481MA1999999098271MD1999999+0031REMSYN016 333 10348 58003
0114829860999991994010212004-09400-038217FM-12+0252SBUF V0201401N00211045001CN0200001N9+02701+01961101141ADDAA106000091AG14000GF106991031071008001081091KA1240N+02261MA1999999098311MD1999999-0181REMSYN016 333 20226 59018
0095829860999991994010218004-09400-038217FM-12+0252SBUF V0200501N00211045001CN0500001N9+03361+01731100821ADDAA106000091AG14000GF106991031071012501081091MA1999999098011MD1999999-0071REMSYN010 333 59007
0130829860999991994010300004-09400-038217FM-12+0252SBUF V0200901N00311220001CN9999999N9+02921+01841100771ADDAA106000091AG14000GA1001+999999999GF100991001001999999001001KA1240M+03441MA1999999097961MD1999999-0311REMSYN016 333 10344 59031
0114829860999991994010312004-09400-038217FM-12+0252SBUF V0200901N00151220001CN0200001N9+02711+01961101101ADDAA106000091AG14000GF102991021001012501041001KA1240N+02301MA1999999098281MD1999999-0031REMSYN016 333 20230 59003
0095829860999991994010318004-09400-038217FM-12+0252SBUF V0200901N00211045001CN0500001N9+03481+01901100691ADDAA106000091AG14000GF105991021071008001061001MA1999999097881MD1999999-0131REMSYN010 333 59013
0136829860999991994010412004-09400-038217FM-12+0252SBUF V0202701N00101220001CN0200001N9+02811+01901101121ADDAA106000091AG10000AY101061AY221061GF101991011001012501041001KA1240N+02401MA1999999098321MD1999999+0041MW1051REMSYN016 333 20240 58004
0095829860999991994010418004-09400-038217FM-12+0252SBUF V0201401N00211045001CN0500001N9+03601+01621100541ADDAA106000091AG14000GF106991031071012501081001MA1999999097761MD1999999-0121REMSYN010 333 59012
0130829860999991994010500004-09400-038217FM-12+0252SBUF V0200901N00311220001CN9999999N9+02921+02121100891ADDAA106000091AG14000GA1001+999999999GF100991001001999999001001KA1240M+03741MA1999999098081MD1999999+0041REMSYN016 333 10374 58004
0114829860999991994010512004-09400-038217FM-12+0252SBUF V0200901N00211045001CN0100001N9+02661+01901101201ADDAA106000091AG14000GF106991041011008001081001KA1240N+02501MA1999999098381MD1999999+0061REMSYN016 333 20250 58006
0117829860999991994010518004-09400-038217FM-12+0252SBUF V0200901N00151012001CN0500001N9+03441+01581100781ADDAA106000091AG15000AY121061AY221061GF107991051071012501081091MA1999999097981MD1999999+0221MW1151REMSYN010 333 58022
0142829860999991994010612004-09400-038217FM-12+0252SBUF V0201401N00151220001CN0200001N9+02621+01811101161ADDAA124075091AG10006AY161061AY261061GF105991021071008001061091KA1240N+02181MA1999999098311MD1999999-0071MW1031REMSYN022 333 20218 59007 60754
0095829860999991994010618004-09400-038217FM-12+0252SBUF V0202301N00151220001CN0500001N9+03301+01361100741ADDAA106000091AG14000GF103991011011008001061021MA1999999097921MD1999999-0061REMSYN010 333 59006
0114829860999991994010712004-09400-038217FM-12+0252SBUF V0200901N00151220001CN0200001N9+02661+02041101141ADDAA106000091AG14000GF103991021011008001081001KA1240N+02341MA1999999098321MD1999999+0011REMSYN016 333 20234 58001
0095829860999991994010718004-09400-038217FM-12+0252SBUF V0200901N00151045001CN0500001N9+03281+01741100671ADDAA106000091AG14000GF106991031071012501081001MA1999999097861MD1999999-0061REMSYN010 333 59006
0130829860999991994010800004-09400-038217FM-12+0252SBUF V0200901N00361220001CN9999999N9+02881+01941100771ADDAA106000091AG14000GA1001+999999999GF100991001001999999001001KA1240M+03441MA1999999097961MD1999999-0101REMSYN016 333 10344 59010
0114829860999991994010812004-09400-038217FM-12+0252SBUF V0200901N00361045001CN0200001N9+02681+02041101081ADDAA106000091AG14000GF106991031071008001081001KA1240N+02261MA1999999098201MD1999999-0121REMSYN016 333 20226 59012
0095829860999991994010818004-09400-038217FM-12+0252SBUF V0200901N00211105001CN0500001N9+03251+01541100721ADDAA106000091AG14000GF105991021011008001081021MA1999999097901MD1999999+0041REMSYN010 333 58004
0114829860999991994010912004-09400-038217FM-12+0252SBUF V0201401N00051220001CN0200001N9+02661+02001101071ADDAA106000091AG14000GF104991011011012501061021KA1240N+02241MA1999999098251MD1999999+0051REMSYN016 333 20224 58005
0130829860999991994011000004-09400-038217FM-12+0252SBUF V0200901N00311220001CN9999999N9+02801+01981100831ADDAA106000091AG14000GA1001+999999999GF100991001001999999001001KA1240M+03561MA1999999098011MD1999999-0071REMSYN016 333 10356 59007
0130829860999991994011012004-09400-038217FM-12+0252SBUF V0200901N00151220001CN0200001N9+02751+01891101021ADDAA106000091AG14000GA1001+999999999GF100991001001999999001001KA1240N+02321MA1999999098201MD1999999-0051REMSYN016 333 20232 59005
0095829860999991994011018004-09400-038217FM-12+0252SBUF V0201801N00151045001CN0500001N9+03481+01661100681ADDAA106000091AG14000GF105991021071008001061001MA1999999097881MD1999999+0051REMSYN010 333 58005
0114829860999991994011112004-09400-038217FM-12+0252SBUF V0201401N00151220001CN0200001N9+02641+01951101111ADDAA106000091AG14000GF102991011001012501041021KA1240N+02341MA1999999098281MD1999999+0081REMSYN016 333 20234 58008
0095829860999991994011118004-09400-038217FM-12+0252SBUF V0201401N00311220001CN0500001N9+03461+01721100681ADDAA106000091AG14000GF104991021011004501061091MA1999999097871MD1999999-0011REMSYN010 333 59001
0062829860999991994011212004-09400-038217FM-12+0252SBUF V0200901N003119999999N0200001N9+02691+01921101111ADDAA106000091AG14000GF105991999999008001999999MA1999999098281
0117829860999991994011218004-09400-038217FM-12+0252SBUF V0201401N00211045001CN0500001N9+03321+01821100701ADDAA106000091AG15000AY121061AY221061GF106991031071012501081001MA1999999097871MD1999999+0001MW1151REMSYN010 333 58000
0114829860999991994011312004-09400-038217FM-12+0252SBUF V0200501N00151220001CN0100001N9+02701+02031101191ADDAA106000091AG14000GF103991031001012501061001KA1240N+02281MA1999999098361MD1999999+0081REMSYN016 333 20228 58008
0095829860999991994011318004-09400-038217FM-12+0252SBUF V0202301N00151045001CN0500001N9+03361+01771100761ADDAA106000091AG14000GF105991021071008001061001MA1999999097951MD1999999+0081REMSYN010 333 58008
0130829860999991994011400004-09400-038217FM-12+0252SBUF V0200901N00771220001CN9999999N9+02871+01871100891ADDAA106000091AG14000GA1001+999999999GF100991001001999999001001KA1240M+03541MA1999999098081MD1999999-0051REMSYN016 333 10354 59005
0114829860999991994011412004-09400-038217FM-12+0252SBUF V0200901N00151004201CN0100001N9+02511+02071101261ADDAA106000091AG14000GF108991051071004501081999KA1240N+02461MA1999999098421MD1999999+0061REMSYN016 333 20246 58006
0117829860999991994011418004-09400-038217FM-12+0252SBUF V0201401N00211220001CN0500001N9+02961+01841100881ADDAA106000091AG15000AY121061AY221061GF105991021071008001061091MA1999999098051MD1999999+0101MW1151REMSYN010 333 58010
0114829860999991994011512004-09400-038217FM-12+0252SBUF V0201401N00051045001CN0200001N9+02721+02031101111ADDAA106000091AG14000GF106991031011008001051001KA1240N+02481MA1999999098291MD1999999-0131REMSYN016 333 20248 59013
0095829860999991994011518004-09400-038217FM-12+0252SBUF V0201401N00311105001CN0500001N9+03471+01501100621ADDAA106000091AG14000GF105991021011008001061011MA1999999097821MD1999999-0231REMSYN010 333 59023
0142829860999991994011612004-09400-038217FM-12+0252SBUF V0201401N00051007501CN0200001N9+02521+02021101061ADDAA124011091AG13000AY121061AY221061GF107991051071008001081001KA1240N+02421MA1999999098211MD1999999-0081MW1151REMSYN022 333 20242 59008 60114
0117829860999991994011618004-09400-038217FM-12+0252SBUF V0201401N00151045001CN0500001N9+03181+01771100671ADDAA106000091AG15000AY121061AY221061GF106991031071008001061091MA1999999097851MD1999999+0031MW1151REMSYN010 333 58003
0130829860999991994011700004-09400-038217FM-12+0252SBUF V0201401N00361220001CN9999999N9+02961+01871100861ADDAA106000091AG14000GA1001+999999999GF100991001001999999001001KA1240M+03381MA1999999098001MD1999999-0121REMSYN016 333 10338 59012
0114829860999991994011712004-09400-038217FM-12+0252SBUF V0201401N00151045001CN0200001N9+02691+02021100991ADDAA106000091AG14000GF106991021011008001081011KA1240N+02401MA1999999098181MD1999999-0031REMSYN016 333 20240 59003
0095829860999991994011718004-09400-038217FM-12+0252SBUF V0201401N00151045001CN0500001N9+03381+01711100581ADDAA106000091AG14000GF105991021071008001061001MA1999999097781MD1999999-0071REMSYN010 333 59007
0130829860999991994011800004-09400-038217FM-12+0252SBUF V0201401N00511220001CN9999999N9+02961+01991100681ADDAA106000091AG14000GA1001+999999999GF100991001001999999001001KA1240M+03561MA1999999097871MD1999999-0131REMSYN016 333 10356 59013
0114829860999991994011812004-09400-038217FM-12+0252SBUF V0202701N00101220001CN0200001N9+02631+02011100991ADDAA106000091AG14000GF103991021011012501061001KA1240N+02341MA1999999098181MD1999999+0001REMSYN016 333 20234 58000
0095829860999991994011818004-09400-038217FM-12+0252SBUF V0202301N00151045001CN0500001N9+03341+01631100611ADDAA106000091AG14000GF105991021071008001061001MA1999999097801MD1999999+0021REMSYN010 333 58002
0095829860999991994012018004-09400-038217FM-12+0252SBUF V0201801N00211045001CN0500001N9+03321+01851100821ADDAA106000091AG14000GF105991021071008001061001MA1999999098011MD1999999+0021REMSYN010 333 58002
0114829860999991994012400004-09400-038217FM-12+0252SBUF V0200901N00151045001CN9999999N9+02801+01981101151ADDAA106000091AG14000GF107991041021004501081001KA1240M+03401MA1999999098311MD1999999+0271REMSYN016 333 10340 58027
0153829860999991994012412004-09400-038217FM-12+0252SBUF V0200901N00151045001CN0100001N9+02611+02031101231ADDAA124000991AA299001091AG10006AY161061AY251061GF106991031011008001081011KA1240N+02401MA1999999098401MD1999999-0061MW1031REMSYN022 333 20240 59006 69994
0117829860999991994012418004-09400-038217FM-12+0252SBUF V0200901N00311045001CN0500001N9+03521+01791100891ADDAA106000091AG15000AY121061AY221061GF106991031071008001081001MA1999999098081MD1999999-0011MW1151REMSYN010 333 59001
0114829860999991994012512004-09400-038217FM-12+0252SBUF V0200901N00151045001CN0200001N9+02711+01961101351ADDAA106000091AG14000GF106991031011008001081011KA1240N+02421MA1999999098521MD1999999+0121REMSYN016 333 20242 58012
0095829860999991994012518004-09400-038217FM-12+0252SBUF V0201401N00311220001CN0500001N9+03381+01911100901ADDAA106000091AG14000GF105991021071008001061091MA1999999098091MD1999999+0011REMSYN010 333 58001
0130829860999991994012600004-09400-038217FM-12+0252SBUF V0200901N00411220001CN9999999N9+02901+01811100901ADDAA106000091AG14000GA1001+999999999GF100991001001999999001001KA1240M+03501MA1999999098091MD1999999-0161REMSYN016 333 10350 59016
0130829860999991994012612004-09400-038217FM-12+0252SBUF V0200501N00051220001CN0500001N9+02701+01801101161ADDAA106000091AG14000GA1001+999999999GF100991001001999999001001KA1240N+02391MA1999999098341MD1999999-0181REMSYN016 333 20239 59018
0095829860999991994012618004-09400-038217FM-12+0252SBUF V0201401N00211045001CN0500001N9+03481+01881100781ADDAA106000091AG14000GF105991021071008001081001MA1999999097981MD1999999-0111REMSYN010 333 59011
0114829860999991994012712004-09400-038217FM-12+0252SBUF V0202501N00151220001CN0200001N9+02811+01981101091ADDAA106000091AG14000GF103991021001012501061021KA1240N+02381MA1999999098271MD1999999-0071REMSYN016 333 20238 59007
0095829860999991994012718004-09400-038217FM-12+0252SBUF V0201401N00311045001CN0500001N9+03401+01771100781ADDAA106000091AG14000GF106991031071008001081091MA1999999097971MD1999999+0001REMSYN010 333 58000
0114829860999991994012812004-09400-038217FM-12+0252SBUF V0201401N00211105001CN0200001N9+02731+01901101131ADDAA106000091AG14000GF105991021011008001061011KA1240N+02361MA1999999098301MD1999999+0031REMSYN016 333 20236 58003
0117829860999991994012818004-09400-038217FM-12+0252SBUF V0201401N00211045001CN0500001N9+03461+01901100781ADDAA106000091AG15000AY121061AY221061GF106991031071008001081091MA1999999097981MD1999999+0011MW1151REMSYN010 333 58001
0130829860999991994012900004-09400-038217FM-12+0252SBUF V0201401N00361220001CN9999999N9+02861+01811100971ADDAA106000091AG14000GA1001+999999999GF100991001001999999001001KA1240M+03561MA1999999098161MD1999999+0031REMSYN016 333 10356 58003
0114829860999991994012912004-09400-038217FM-12+0252SBUF V0201401N00311045001CN0200001N9+02681+02021101211ADDAA106000091AG14000GF106991031071008001081001KA1240N+02321MA1999999098391MD1999999+0091REMSYN016 333 20232 58009
0095829860999991994012918004-09400-038217FM-12+0252SBUF V0200901N00361045001CN0200001N9+03311+01411100851ADDAA106000091AG14000GF106991031011008001081021MA1999999098041MD1999999+0061REMSYN010 333 58006
0136829860999991994013012004-09400-038217FM-12+0252SBUF V0200901N00211045001CN0200001N9+02661+02091101141ADDAA106000091AG15000AY121061AY221061GF106991031071008001081001KA1240N+02361MA1999999098311MD1999999-0081MW1151REMSYN016 333 20236 59008
0095829860999991994013018004-09400-038217FM-12+0252SBUF V0201401N00151045001CN0500001N9+03401+01811100891ADDAA106000091AG14000GF105991021071012501081001MA1999999098081MD1999999+0041REMSYN010 333 58004
0136829860999991994013100004-09400-038217FM-12+0252SBUF V0201401N00511045001CN9999999N9+02861+02061101091ADDAA106000091AG10000AY121061AY221061GF106991031071004501081999KA1240M+03601MA1999999098271MD1999999+0081MW1131REMSYN016 333 10360 58008
0114829860999991994013112004-09400-038217FM-12+0252SBUF V0201401N00151045001CN0200001N9+02741+01841101171ADDAA106000091AG14000GF106991021011008001081011KA1240N+02351MA1999999098251MD1999999+0041REMSYN016 333 20235 58004
0095829860999991994013118004-09400-038217FM-12+0252SBUF V0201401N00311045001CN0500001N9+03461+01821100791ADDAA106000091AG14000GF105991021071008001061001MA1999999097991MD1999999-0091REMSYN010 333 59009
0152829860999991994020100004-09400-038217FM-12+0252SBUF V0201401N00511220001CN9999999N9+03101+01871100971ADDAA106000091AG10000AY101061AY221061GA1001+999999999GF100991001001999999001001KA1240M+03581MA1999999098161MD1999999+0111MW1131REMSYN016 333 10358 58011
0114829860999991994020118004-09400-038217FM-12+0252SBUF V0201401N00151105001CN0500001N9+02661+02021101221ADDAA106000091AG14000GF105991021011012501061071KA1240N+02261MA1999999098401MD1999999+0051REMSYN016 333 20226 58005
0133829860999991994020212004-09400-038217FM-12+0252SBUF V0201501N00151220001CN0200001N9+02681+01991101281ADDAA106000091AG14006GF103991999999012501999999KA1240N+02421MA1999999098461MD1999999+0061REMSYN016 333 20242 58006EQDQ01+000072PSTWM2
0117829860999991994020218004-09400-038217FM-12+0252SBUF V0201401N00151007501CN0500001N9+03281+02001100961ADDAA106000091AG15000AY121061AY221061GF107991051071008001081091MA1999999098151MD1999999+0171MW1151REMSYN010 333 58017
0114829860999991994020312004-09400-038217FM-12+0252SBUF V0201401N00151045001CN0200001N9+02771+01941101291ADDAA106000091AG14000GF105991021011008001081001KA1240N+02401MA1999999098471MD1999999+0011REMSYN016 333 20240 58001
0095829860999991994020318004-09400-038217FM-12+0252SBUF V0201401N00151045001CN0500001N9+03401+01641100901ADDAA106000091AG14000GF105991021071008001081001MA1999999098091MD1999999-0061REMSYN010 333 59006
0152829860999991994020400004-09400-038217FM-12+0252SBUF V0200901N00511220001CN9999999N9+03221+01821100911ADDAA106000091AG10000AY101061AY221061GA1001+999999999GF100991001001999999001001KA1240M+03641MA1999999098141MD1999999-0121MW1131REMSYN016 333 10364 59012
0114829860999991994020412004-09400-038217FM-12+0252SBUF V0200901N00211045001CN0100001N9+02781+01981101161ADDAA106000091AG14000GF106991031011008001081001KA1240N+02411MA1999999098361MD1999999-0111REMSYN016 333 20241 59011
0095829860999991994020418004-09400-038217FM-12+0252SBUF V0201401N00311220001CN0500001N9+03481+01751100661ADDAA106000091AG14000GF105991021071008001061091MA1999999097861MD1999999-0231REMSYN010 333 59023
0136829860999991994020500004-09400-038217FM-12+0252SBUF V0201401N00511004201CN9999999N9+02981+02011100841ADDAA106000091AG10000AY121061AY221061GF107991051071004501081999KA1240M+03681MA1999999098031MD1999999-0111MW1131REMSYN016 333 10368 59011
0062829860999991994020512004-09400-038217FM-12+0252SBUF V0201401N00151045001CN0200001N9+02781+02061100991ADDAA106000091AG14000GF106991031071008001081001MA1999999098181
0095829860999991994020518004-09400-038217FM-12+0252SBUF V0201401N00361105001CN0500001N9+03301+01501100671ADDAA106000091AG14000GF105991021021004501081011MA1999999097861MD1999999+0001REMSYN010 333 58000
0130829860999991994020600004-09400-038217FM-12+0252SBUF V0201401N00461220001CN9999999N9+02941+01911100761ADDAA106000091AG14000GA1001+999999999GF100991001001999999001001KA1240M+03401MA1999999097961MD1999999-0071REMSYN016 333 10340 59007
0114829860999991994020612004-09400-038217FM-12+0252SBUF V0201401N00211045001CN0100001N9+02651+01901101181ADDAA106000091AG14000GF106991021011008001061011KA1240N+02291MA1999999098361MD1999999+0181REMSYN016 333 20229 58018
0095829860999991994020618004-09400-038217FM-12+0252SBUF V0200901N00151045001CN0200001N9+03351+01451100801ADDAA106000091AG14000GF106991031011008001081011MA1999999097991MD1999999+0131REMSYN010 333 58013
0130829860999991994020700004-09400-038217FM-12+0252SBUF V0200901N00461220001CN9999999N9+02881+01801101031ADDAA106000091AG14000GA1001+999999999GF100991001001999999001001KA1240M+03501MA1999999098201MD1999999+0241REMSYN016 333 10350 58024
0114829860999991994020712004-09400-038217FM-12+0252SBUF V0200901N00261105001CN0100001N9+02741+01951101181ADDAA106000091AG14000GF105991021011008001061021KA1240N+02361MA1999999098361MD1999999+0001REMSYN016 333 20236 58000
0095829860999991994020718004-09400-038217FM-12+0252SBUF V0201401N00151012001CN0500001N9+03341+01631100811ADDAA106000091AG14000GF106991051071012501081091MA1999999098001MD1999999+0011REMSYN010 333 58001
0114829860999991994020812004-09400-038217FM-12+0252SBUF V0200901N00211045001CN0200001N9+02711+01991101331ADDAA106000091AG14000GF106991021011008001061011KA1240N+02341MA1999999098491MD1999999+0131REMSYN016 333 20234 58013
0117829860999991994020818004-09400-038217FM-12+0252SBUF V0201401N00311007501CN0500001N9+03301+01801100901ADDAA106000091AG15000AY121061AY221061GF107991051071008001081001MA1999999098091MD1999999+0091MW1151REMSYN010 333 58009
0114829860999991994020912004-09400-038217FM-12+0252SBUF V0201401N00151220001CN0200001N9+02731+01881101251ADDAA106000091AG14000GF104991011011008001061011KA1240N+02321MA1999999098421MD1999999-0071REMSYN016 333 20232 59007
0095829860999991994020918004-09400-038217FM-12+0252SBUF V0201401N00151045001CN0200001N9+03461+01731100871ADDAA106000091AG14000GF106991031071012501081091MA1999999098061MD1999999-0031REMSYN010 333 59003
0130829860999991994021000004-09400-038217FM-12+0252SBUF V0201401N00721220001CN9999999N9+02781+01931101051ADDAA106000091AG14000GA1001+999999999GF100991001001999999001001KA1240M+03561MA1999999098221MD1999999-0051REMSYN016 333 10356 59005
0114829860999991994021012004-09400-038217FM-12+0252SBUF V0200901N00311045001CN0200001N9+02761+01861101291ADDAA106000091AG14000GF106991021011008001081011KA1240N+02341MA1999999098451MD1999999+0031REMSYN016 333 20234 58003
0095829860999991994021018004-09400-038217FM-12+0252SBUF V0201401N00311220001CN0500001N9+03381+01661100821ADDAA106000091AG14000GF105991021071008001061091MA1999999098011MD1999999-0051REMSYN010 333 59005
0114829860999991994021112004-09400-038217FM-12+0252SBUF V0200901N00261105001CN0200001N9+02721+01881101351ADDAA106000091AG14000GF105991021011008001081021KA1240N+02281MA1999999098511MD1999999+0061REMSYN016 333 20228 58006
0095829860999991994021118004-09400-038217FM-12+0252SBUF V0201401N00311045001CN0500001N9+03381+01711100891ADDAA106000091AG14000GF105991021071012501081001MA1999999098171MD1999999+0161REMSYN010 333 58016
0136829860999991994021312004-09400-038217FM-12+0252SBUF V0201401N00151012001CN0200001N9+02521+01911101151ADDAA106000091AG15000AY101061AY221061GF108991081081008001999999KA1240N+02421MA1999999098321MD1999999-0171MW1151REMSYN016 333 20242 59017
0117829860999991994021318004-09400-038217FM-12+0252SBUF V0201401N00051045001CN0500001N9+03261+01911100821ADDAA106000091AG15000AY121061AY221061GF106991031071012501081091MA1999999098011MD1999999+0071MW1151REMSYN010 333 58007
0171829860999991994021400004-09400-038217FM-12+0252SBUF V0201401N00621220001CN9999999N9+03921+01761100851ADDAA106000091AG10000AY101061AY221061GA1001+999999999GF100991001001999999001001KA1240M+99999MA1999999098041MD1999999-0131MW1061REMSYN016 333 10334 59013EQDQ01 +03342ATMX  
0114829860999991994021412004-09400-038217FM-12+0252SBUF V0201401N00151045001CN0200001N9+02661+02041101211ADDAA106000091AG14000GF105991041011008001061091KA1240N+02361MA1999999098391MD1999999+0071REMSYN016 333 20236 58007
0095829860999991994021418004-09400-038217FM-12+0252SBUF V0209999999999045001CN0500001N9+03381+01871100721ADDAA106000091AG14000GF106991031071012501081001MA1999999097911MD1999999-0101REMSYN010 333 59010
0152829860999991994021500004-09400-038217FM-12+0252SBUF V0201401N00871220001CN9999999N9+03041+01911100901ADDAA106000091AG10000AY101061AY221061GA1001+999999999GF100991001001999999001001KA1240M+03641MA1999999098091MD1999999+0051MW1061REMSYN016 333 10364 58005
0114829860999991994021512004-09400-038217FM-12+0252SBUF V0200901N00311220001CN0200001N9+02681+02111101411ADDAA106000091AG14000GF104991021011008001061001KA1240N+02341MA1999999098591MD1999999+0201REMSYN016 333 20234 58020
0152829860999991994021700004-09400-038217FM-12+0252SBUF V0201401N00671220001CN9999999N9+03101+01541101141ADDAA106000091AG10000AY101061AY221061GA1001+999999999GF100991001001999999001001KA1240M+03351MA1999999098321MD1999999+0141MW1061REMSYN016 333 10335 58014
0114829860999991994021712004-09400-038217FM-12+0252SBUF V0200901N00311220001CN0200001N9+02801+01981101261ADDAA106000091AG14000GF102991011001017501021021KA1240N+02391MA1999999098441MD1999999-0071REMSYN016 333 20239 59007
0117829860999991994021718004-09400-038217FM-12+0252SBUF V0201401N00151045001CN0500001N9+03501+01861100811ADDAA106000091AG15000AY121061AY221061GF105991021071008001081001MA1999999098001MD1999999-0191MW1151REMSYN010 333 59019
0114829860999991994021812004-09400-038217FM-12+0252SBUF V0201401N00261004201CN0100001N9+02541+02151101191ADDAA106000091AG14000GF107991051071004501081001KA1240N+02481MA1999999098361MD1999999-0081REMSYN016 333 20248 59008
0117829860999991994021818004-09400-038217FM-12+0252SBUF V0201401N00151045001CN0500001N9+03361+01931100901ADDAA106000091AG15000AY121061AY221061GF106991031071008001081091MA1999999098091MD1999999+0091MW1151REMSYN010 333 58009
0136829860999991994021900004-09400-038217FM-12+0252SBUF V0201401N00511004201CN9999999N9+03141+01941100851ADDAA106000091AG10000AY101061AY221061GF107991051071004501081999KA1240M+03481MA1999999098041MD1999999-0251MW1131REMSYN016 333 10348 59025
0114829860999991994021912004-09400-038217FM-12+0252SBUF V0200901N00211105001CN0200001N9+02721+02091101201ADDAA106000091AG14000GF105991021011004501061011KA1240N+02301MA1999999098391MD1999999+0031REMSYN016 333 20230 58003
0095829860999991994021918004-09400-038217FM-12+0252SBUF V0201401N00211105001CN0500001N9+03431+01311100781ADDAA106000091AG14000GF105991021011008001061011MA1999999097971MD1999999-0121REMSYN010 333 59012
0114829860999991994022012004-09400-038217FM-12+0252SBUF V0200901N00311045001CN0100001N9+02841+01761101101ADDAA106000091AG14000GF106991031011008001081001KA1240N+02401MA1999999098301MD1999999-0091REMSYN016 333 20240 59009
0136829860999991994022100004-09400-038217FM-12+0252SBUF V0201401N00671220001CN9999999N9+02881+01831100931ADDAA106000091AG14001AY151061AY221061GF104991021021008001061001KA1240M+03561MA1999999098121MD1999999+0181MW1131REMSYN016 333 10356 58018
0095829860999991994022118004-09400-038217FM-12+0252SBUF V0203201N00261045001CN0200001N9+02931+01831100721ADDAA106000091AG14000GF106991041021004501081001MA1999999097891MD1999999+0001REMSYN010 333 58000
0114829860999991994022200004-09400-038217FM-12+0252SBUF V0200901N00311045001CN9999999N9+02691+02111101031ADDAA106000091AG14000GF106991031011008001081001KA1240M+03531MA1999999098201MD1999999+0081REMSYN016 333 10353 58008
0142829860999991994022212004-09400-038217FM-12+0252SBUF V0200901N00101105001CN0200001N9+02521+02021101171ADDAA124011091AG10006AY161061AY251061GF105991021011008001061081KA1240N+02271MA1999999098331MD1999999+0041MW1031REMSYN022 333 20227 58004 60114
0117829860999991994022218004-09400-038217FM-12+0252SBUF V0200501N00051045001CN0500001N9+03401+01891100781ADDAA106000091AG15000AY121061AY221061GF106991031071012501081091MA1999999097971MD1999999+0081MW1151REMSYN010 333 58008
0153829860999991994022300004-09400-038217FM-12+0252SBUF V0200901N00621045001CN9999999N9+02821+01911100911ADDAA106000891AA299001091AG10006AY161061AY251061GF106991021011008001081071KA1240M+03521MA1999999098081MD1999999-0121MW1031REMSYN022 333 10352 59012 69981
0117829860999991994022312004-09400-038217FM-12+0252SBUF V0200901N00261220001CN0200001N9+02681+01971101111ADDAA124000891AA299001091AG10000GF103991021011012501061001KA1240N+02301MA1999999098281REMSYN022 333 20230 59905 69984
0117829860999991994022318004-09400-038217FM-12+0252SBUF V0201401N00211045001CN0500001N9+03401+01811100621ADDAA106000091AG15000AY121061AY221061GF106991031071012501081091MA1999999097811MD1999999-0161MW1151REMSYN010 333 59016
0114829860999991994022412004-09400-038217FM-12+0252SBUF V0201401N00151045001CN0100001N9+02701+01911101141ADDAA106000091AG14000GF106991031011008001081001KA1240N+02311MA1999999098321MD1999999+0041REMSYN016 333 20231 58004
0095829860999991994022418004-09400-038217FM-12+0252SBUF V0201401N00311045001CN0500001N9+03421+01741100801ADDAA106000091AG14000GF106991031071012501081091MA1999999097991MD1999999+0181REMSYN010 333 58018
0114829860999991994022512004-09400-038217FM-12+0252SBUF V0201401N00261045001CN0200001N9+02741+01891101191ADDAA106000091AG14000GF106991031011008001081021KA1240N+02321MA1999999098371MD1999999+0051REMSYN016 333 20232 58005
0095829860999991994022518004-09400-038217FM-12+0252SBUF V0201401N00211045001CN0500001N9+03341+01751100881ADDAA106000091AG14000GF106991031071008001081091MA1999999098071MD1999999+0081REMSYN010 333 58008
0130829860999991994022600004-09400-038217FM-12+0252SBUF V0200901N00511220001CN9999999N9+02771+01801101011ADDAA106000091AG14000GA1001+999999999GF100991001001999999001001KA1240M+03441MA1999999098191MD1999999+0001REMSYN016 333 10344 58000
0114829860999991994022612004-09400-038217FM-12+0252SBUF V0201401N00151045001CN0200001N9+02661+01951101221ADDAA106000091AG14000GF106991031071008001081001KA1240N+02361MA1999999098391MD1999999+0021REMSYN016 333 20236 58002
0095829860999991994022618004-09400-038217FM-12+0252SBUF V0201401N00211045001CN0500001N9+03351+01351100821ADDAA106000091AG14000GF106991041021004501081011MA1999999098011MD1999999-0061REMSYN010 333 59006
0114829860999991994022700004-09400-038217FM-12+0252SBUF V0201401N00461045001CN9999999N9+02711+01991101081ADDAA106000091AG14000GF105991031021004501081001KA1240M+03481MA1999999098251MD1999999+0061REMSYN016 333 10348 58006
0114829860999991994022712004-09400-038217FM-12+0252SBUF V0201401N00051007501CN0200001N9+02621+01881101231ADDAA106000091AG14000GF107991051071008001061091KA1240N+02441MA1999999098401MD1999999+0011REMSYN016 333 20244 58001
0117829860999991994022718004-09400-038217FM-12+0252SBUF V0201401N00051007501CN0500001N9+03261+01841100821ADDAA106000091AG15000AY121061AY221061GF107991051071008001081001MA1999999098011MD1999999+0001MW1151REMSYN010 333 58000
0114829860999991994022800004-09400-038217FM-12+0252SBUF V0201401N00511009001CN9999999N9+02741+01951101101ADDAA106000091AG14000GF108991081081004501999999KA1240M+03461MA1999999098271MD1999999+0021REMSYN016 333 10346 58002
0114829860999991994022812004-09400-038217FM-12+0252SBUF V0200901N00151045001CN0100001N9+02751+01951101271ADDAA106000091AG14000GF106991041021004501081001KA1240N+02461MA1999999098431MD1999999+0031REMSYN016 333 20246 58003
0117829860999991994022818004-09400-038217FM-12+0252SBUF V0201401N00211007501CN0500001N9+03341+01831100901ADDAA106000091AG15000AY121061AY221061GF107991051071008001081001MA1999999098091MD1999999+0081MW1151REMSYN010 333 58008
0114829860999991994030112004-09400-038217FM-12+0252SBUF V0200501N00151045001CN0200001N9+02601+02101101241ADDAA106000091AG14000GF106991031011008001081071KA1240N+02361MA1999999098411MD1999999-0021REMSYN016 333 20236 59002
0117829860999991994030118004-09400-038217FM-12+0252SBUF V0202701N00051007501CN0500001N9+03101+02001100891ADDAA106000091AG15000AY121061AY221061GF107991051071008001081091MA1999999098071MD1999999-0021MW1151REMSYN010 333 59002
0142829860999991994030200004-09400-038217FM-12+0252SBUF V0200901N00311009001CN9999999N9+02741+02051101141ADDAA106005091AG10006AY161061AY221061GF108991081081004501999999KA1240M+03221MA1999999098291MD1999999+0031MW1021REMSYN022 333 10322 58003 60051
0120829860999991994030212004-09400-038217FM-12+0252SBUF V0203201N00101220001CN0500001N9+02731+01981101151ADDAA124005091AG10000GF104991021011008001081011KA1240N+02481MA1999999098321MD1999999-0091REMSYN022 333 20248 59009 60054
0136829860999991994030218004-09400-038217FM-12+0252SBUF V0202701N00051012001CN0200001N9+03321+01651100641ADDAA106999999AG14000AY121061AY221061GF108991081081008001999999MA1999999097831MD1999999-0241MW1951REMSYN010 333 59024EQDQ01  00002PRCP06
0142829860999991994030300004-09400-038217FM-12+0252SBUF V0201401N00461006001CN9999999N9+02621+02011101001ADDAA106010091AG10006AY161061AY251061GF108991081081002501999999KA1240M+03361MA1999999098181MD1999999-0111MW1921REMSYN022 333 10336 59011 60101
0142829860999991994030312004-09400-038217FM-12+0252SBUF V0202701N00051012001CN0200001N9+02261+02121101331ADDAA124031091AG10006AY161061AY261061GF108991081081008001999999KA1240N+02121MA1999999098461MD1999999+0141MW1151REMSYN022 333 20212 58014 60314
0134829860999991994030318004-09400-038217FM-12+0252SBUF V0202701N00151045001CN0200001N9+02871+01981100931ADDAA106000791AA299001091AG10006AY161061AY251061GF106991031011008001081001MA1999999098091MD1999999+0261MW1031REMSYN016 333 58026 69971
0131829860999991994030412004-09400-038217FM-12+0252SBUF V0202701N00151105001CN0200001N9+02681+02111101211ADDAA124000791AA299001091AG10000GF105991021011008001081011KA1240N+02301MA1999999098381MD1999999-0081REMSYN022 333 20230 59008 69974
0095829860999991994030418004-09400-038217FM-12+0252SBUF V0201401N00051220001CN0500001N9+03241+01961100751ADDAA106000091AG14000GF105991021071008001061091MA1999999097931MD1999999-0161REMSYN010 333 59016
0136829860999991994030512004-09400-038217FM-12+0252SBUF V0200901N00511045001CN0500001N9+02761+02101101391ADDAA106000091AG10000AY101061AY221061GF106991031031012501021001KA1240N+02161MA1999999100371MD1999999+0041MW1031REMSYN016 333 20216 58004
0136829860999991994030600004-09400-038217FM-12+0252SBUF V0201401N00311004201CN9999999N9+02841+01731100901ADDAA106000091AG10000AY121061AY221061GF107991051071004501081999KA1240M+03261MA1999999098082MD1999999-0041MW1131REMSYN016 333 10326 59004
0142829860999991994030612004-09400-038217FM-12+0252SBUF V0201801N00051045001CN0100001N9+02591+02101101181ADDAA124000391AG10006AY161061AY251061GF106991041021004501081011KA1240N+02451MA1999999098351MD1999999+0041MW1031REMSYN022 333 20245 58004 69934
0095829860999991994030618004-09400-038217FM-12+0252SBUF V0203201N00151045001CN0200001N9+03031+01801100851ADDAA106000091AG14000GF106991031011008001081071MA1999999098031MD1999999+0051REMSYN010 333 58005
0114829860999991994030712004-09400-038217FM-12+0252SBUF V0203201N00101045001CN0040001N9+02501+02171101291ADDAA106000091AG14000GF107991041021004501081001KA1240N+02421MA1999999098451MD1999999+0101REMSYN016 333 20242 58010
0117829860999991994030718004-09400-038217FM-12+0252SBUF V0203201N00211220001CN0500001N9+02961+02131100891ADDAA106000091AG15000AY121061AY221061GF105991021071008001061091MA1999999098061MD1999999+0061MW1151REMSYN010 333 58006
0114829860999991994030812004-09400-038217FM-12+0252SBUF V0203601N00051220001CN0200001N9+02721+02051101121ADDAA106000091AG14000GF105991021011004501061091KA1240N+02401MA1999999098291MD1999999-0161REMSYN016 333 20240 59016
0095829860999991994030818004-09400-038217FM-12+0252SBUF V0201401N00101045001CN0200001N9+03021+01831100711ADDAA106000091AG14000GF106991041021004501081011MA1999999097891MD1999999-0171REMSYN010 333 59017
0142829860999991994030900004-09400-038217FM-12+0252SBUF V0202701N00101045001CN9999999N9+02391+02261101161ADDAA106000391AG10006AY161061AY251061GF107991041021004501081001KA1240M+03331MA1999999098311MD1999999+0141MW1291REMSYN022 333 10333 58014 69931
0120829860999991994030912004-09400-038217FM-12+0252SBUF V0202701N00101045001CN0100001N9+02581+02191101241ADDAA124000391AG10000GF106991041021004501081011KA1240N+02381MA1999999098391MD1999999+0101REMSYN022 333 20238 58010 69934
0117829860999991994030918004-09400-038217FM-12+0252SBUF V0200501N00151220001CN0500001N9+03141+02001100751ADDAA106000091AG15000AY121061AY221061GF105991021071008001081091MA1999999097931MD1999999+0041MW1151REMSYN010 333 58004
0114829860999991994031000004-09400-038217FM-12+0252SBUF V0200901N00151045001CN9999999N9+02691+02021101001ADDAA106000091AG14000GF105991041071004501081001KA1240M+03301MA1999999098171MD1999999-0141REMSYN016 333 10330 59014
0114829860999991994031012004-09400-038217FM-12+0252SBUF V0203201N00101220001CN0200001N9+02581+02061101291ADDAA106000091AG14000GF103991021011008001091001KA1240N+02301MA1999999098451MD1999999+0061REMSYN016 333 20230 58006
0095829860999991994031018004-09400-038217FM-12+0252SBUF V0203201N00211220001CN0500001N9+03261+01911100911ADDAA106000091AG14000GF102991011071004501061011MA1999999098091MD1999999+0161REMSYN010 333 58016
0114829860999991994031112004-09400-038217FM-12+0252SBUF V0200901N00101220001CN0200001N9+02711+02011101211ADDAA106000091AG14000GF102991011001012501041021KA1240N+02381MA1999999098381MD1999999-0071REMSYN016 333 20238 59007
0095829860999991994031118004-09400-038217FM-12+0252SBUF V0200501N00151220001CN0500001N9+03291+01531100751ADDAA106000091AG14000GF102991021011008001001001MA1999999097941MD1999999-0151REMSYN010 333 59015
0114829860999991994031212004-09400-038217FM-12+0252SBUF V0203201N00101220001CN0200001N9+02521+02131101121ADDAA106000091AG14000GF101991011001012501061001KA1240N+02501MA1999999098281MD1999999-0101REMSYN016 333 20250 59010
0117829860999991994031218004-09400-038217FM-12+0252SBUF V0203201N00211220001CN0500001N9+02881+01801100731ADDAA106000091AG15000AY121061AY221061GF104991021021004501081001MA1999999097801MD1999999-0041MW1151REMSYN010 333 59004
0142829860999991994031312004-09400-038217FM-12+0252SBUF V0203601N00151045001CN0100001N9+02581+02101101201ADDAA124002091AG10006AY161061AY251061GF106991031011008001081081KA1240N+02381MA1999999098361MD1999999+0081MW1031REMSYN022 333 20238 58008 60024
0095829860999991994031318004-09400-038217FM-12+0252SBUF V0203201N00261105001CN0500001N9+02901+01811100841ADDAA106000091AG14000GF105991021021004501081021MA1999999098011MD1999999+0111REMSYN010 333 58011
0114829860999991994031412004-09400-038217FM-12+0252SBUF V0203201N00151105001CN0200001N9+02701+01991101241ADDAA106000091AG14000GF105991021011008001081021KA1240N+02421MA1999999098401MD1999999+0041REMSYN016 333 20242 58004
0095829860999991994031418004-09400-038217FM-12+0252SBUF V0201401N00151045001CN0500001N9+03401+01851100791ADDAA106000091AG14000GF105991021071012501081001MA1999999097991MD1999999-0021REMSYN010 333 59002
0131829860999991994031512004-09400-038217FM-12+0252SBUF V0201401N00051045001CN0100001N9+02691+02221101171ADDAA124000291AA299000191AG10000GF106991031011008001081001KA1240N+02361MA1999999098321MD1999999+0081REMSYN022 333 20236 58008 69924
0095829860999991994031518004-09400-038217FM-12+0252SBUF V0201401N00211045001CN0500001N9+03281+02161100721ADDAA106000091AG14000GF105991021071008001061001MA1999999097911MD1999999-0081REMSYN010 333 59008
0095829860999991994031618004-09400-038217FM-12+0252SBUF V0203201N00151220001CN0500001N9+03221+02001100711ADDAA106000091AG14000GF105991021071012501061091MA1999999097911MD1999999+0001REMSYN010 333 58000
0114829860999991994031712004-09400-038217FM-12+0252SBUF V0201401N00101045001CN0100001N9+02561+02081101221ADDAA106000091AG14000GF106991021011008001061011KA1240N+02341MA1999999098391MD1999999+0081REMSYN016 333 20234 58008
0095829860999991994031718004-09400-038217FM-12+0252SBUF V0201401N00211105001CN0500001N9+03321+01931100811ADDAA106000091AG14000GF105991021071008001061011MA1999999098001MD1999999+0091REMSYN010 333 58009
0114829860999991994031912004-09400-038217FM-12+0252SBUF V0201401N00151045001CN0200001N9+02581+02041101201ADDAA106000091AG14000GF106991031071008001081001KA1240N+02341MA1999999098381MD1999999-0081REMSYN016 333 20234 59008
0095829860999991994031918004-09400-038217FM-12+0252SBUF V0201401N00311220001CN0500001N9+03271+01471100791ADDAA106000091AG14000GF104991021011008001061001MA1999999097991MD1999999+0001REMSYN010 333 58000
0114829860999991994032012004-09400-038217FM-12+0252SBUF V0200901N00151004201CN0100001N9+02601+02171101321ADDAA106000091AG14000GF107991051071004501081001KA1240N+02401MA1999999098481MD1999999+0101REMSYN016 333 20240 58010
0095829860999991994032018004-09400-038217FM-12+0252SBUF V0200901N00411004201CN0100001N9+02611+01961101021ADDAA106000091AG14000GF107991051071004501081001MA1999999098171MD1999999+0181REMSYN010 333 58018
0114829860999991994032112004-09400-038217FM-12+0252SBUF V0201401N00151045001CN0100001N9+02551+02061101301ADDAA106000091AG14000GF106991031011008001081001KA1240N+02401MA1999999098451MD1999999-0031REMSYN016 333 20240 59003
0095829860999991994032118004-09400-038217FM-12+0252SBUF V0201401N00311045001CN0500001N9+03321+01851100721ADDAA106000091AG14000GF106991031071012501081001MA1999999097911MD1999999-0261REMSYN010 333 59026
0114829860999991994032212004-09400-038217FM-12+0252SBUF V0200901N00261045001CN0200001N9+02701+02011101141ADDAA106000091AG14000GF106991031011008001081001KA1240N+02331MA1999999098311MD1999999-0141REMSYN016 333 20233 59014
0117829860999991994032218004-09400-038217FM-12+0252SBUF V0201401N00151045001CN0500001N9+03021+01661100771ADDAA106000091AG15000AY121061AY221061GF106991031071008001081001MA1999999097941MD1999999+0031MW1151REMSYN010 333 58003
0114829860999991994032312004-09400-038217FM-12+0252SBUF V0201401N00051045001CN0200001N9+02741+01951101221ADDAA106000091AG14000GF106991031071008001081001KA1240N+02401MA1999999098381MD1999999+0071REMSYN016 333 20240 58007
0095829860999991994032318004-09400-038217FM-12+0252SBUF V0200901N00211045001CN0500001N9+03331+01381100721ADDAA106000091AG14000GF106991031011008001081021MA1999999097911MD1999999-0031REMSYN010 333 59003
0120829860999991994032412004-09400-038217FM-12+0252SBUF V0200901N00311045001CN0100001N9+02641+02141101461ADDAA124003091AG10000GF106991041021004501081001KA1240N+02361MA1999999098601MD1999999+0221REMSYN022 333 20236 58022 60034
0130829860999991994032500004-09400-038217FM-12+0252SBUF V0200901N00461220001CN9999999N9+02801+01781101251ADDAA106000091AG14000GA1001+999999999GF100991001001999999001001KA1240M+03361MA1999999098421MD1999999+0151REMSYN016 333 10336 58015
0136829860999991994032512004-09400-038217FM-12+0252SBUF V0201401N00211004201CN0040001N9+02501+02211101551ADDAA106000091AG15000AY121061AY221061GF107991051071004501081001KA1240N+02251MA1999999098701MD1999999+0101MW1151REMSYN016 333 20225 58010
0123829860999991994032518004-09400-038217FM-12+0252SBUF V0200901N00461045001CN0200001N9+03311+01411101061ADDAA106000191AG10006AY161061AY251061GF106991031021004501081011MA1999999098231MD1999999+0031MW1031REMSYN016 333 58003 69911
0142829860999991994032612004-09400-038217FM-12+0252SBUF V0201401N00361009001CN0010001N9+02461+01941101381ADDAA124009091AG10006AY161061AY261061GF108991081081004501999999KA1240N+02321MA1999999098541MD1999999-0161MW1151REMSYN022 333 20232 59016 60094
0134829860999991994032618004-09400-038217FM-12+0252SBUF V0200901N00151045001CN0200001N9+02791+01791101111ADDAA106000491AA299000591AG10006AY161061AY251061GF107991041071004501081021MA1999999098261MD1999999+0031MW1031REMSYN016 333 58003 69941
0131829860999991994032712004-09400-038217FM-12+0252SBUF V0200901N00311045001CN0200001N9+02541+01931101261ADDAA124000491AA299000591AG13000GF106991031071012501081001KA1240N+02341MA1999999098421MD1999999-0121REMSYN022 333 20234 59012 69944
0095829860999991994032718004-09400-038217FM-12+0252SBUF V0201401N00311220001CN0500001N9+03141+01731100861ADDAA106000091AG14000GF105991021011008001061091MA1999999098041MD1999999-0221REMSYN010 333 59022
0123829860999991994032918004-09400-038217FM-12+0252SBUF V0201401N00051007501CN0500001N9+02521+02091101161ADDAA106001091AG10006AY161061AY221061GF107991051071008001081001MA1999999098291MD1999999+0381MW1151REMSYN016 333 58038 60011
0142829860999991994033012004-09400-038217FM-12+0252SBUF V0200901N00151004201CN9999999N9+02381+02151101301ADDAA106000391AG10006AY161061AY251061GF107991051071004501081001KA1240M+03131MA1999999098451MD1999999+0161MW1031REMSYN022 333 10313 58016 69931
0114829860999991994033112004-09400-038217FM-12+0252SBUF V0201401N00211220001CN0100001N9+02631+01981101461ADDAA106000091AG14000GF106991031011008001001011KA1240N+02391MA1999999098611MD1999999+0041REMSYN016 333 20239 58004
0114829860999991994040412004-09400-038217FM-12+0252SBUF V0201401N00211045001CN0200001N9+02731+01851101141ADDAA106000091AG14000GF106991031011008001081001KA1240N+02441MA1999999098311MD1999999-0111REMSYN016 333 20244 59011
0142829860999991994040512004-09400-038217FM-12+0252SBUF V0201401N00151045001CN0100001N9+02471+02191101191ADDAA124033091AG10005AY161061AY251061GF106991041071004501081001KA1240N+02211MA1999999098321MD1999999+0011MW1031REMSYN022 333 20221 58001 60334
0117829860999991994040618004-09400-038217FM-12+0252SBUF V0201401N00051045001CN0500001N9+03121+01891100751ADDAA106000091AG15000AY121061AY221061GF106991031071008001081091MA1999999097931MD1999999-0131MW1151REMSYN010 333 59013
0142829860999991994040621004-09400-038217FM-12+0252SBUF V0201401N00151006001CN9999999N9+02281+02251101101ADDAA106026091AG10005AY161031AY261031GF108991081081002501999999KA1240M+03321MA1999999098251MD1999999+0051MW1921REMSYN022 333 10332 58005 60261
0114829860999991994040712004-09400-038217FM-12+0252SBUF V0200901N00211045001CN0100001N9+02531+01981101231ADDAA106000091AG14000GF106991031011008001081011KA1240N+02321MA1999999098381MD1999999-0021REMSYN016 333 20232 59002
0095829860999991994040718004-09400-038217FM-12+0252SBUF V0200501N00151220001CN0500001N9+03141+01941100751ADDAA106000091AG14000GF105991021071004501061091MA1999999097931MD1999999+0001REMSYN010 333 58000
0114829860999991994040812004-09400-038217FM-12+0252SBUF V0203201N00051045001CN0100001N9+02611+01991101021ADDAA106000091AG14000GF106991021011008001081071KA1240N+02301MA1999999098191MD1999999-0191REMSYN016 333 20230 59019
0095829860999991994040818004-09400-038217FM-12+0252SBUF V0202301N00211220001CN0500001N9+03241+01781100561ADDAA106000091AG14000GF105991021071004501061091MA1999999097751MD1999999-0181REMSYN010 333 59018
0114829860999991994040912004-09400-038217FM-12+0252SBUF V0200901N00311045001CN9999999N9+02771+01941100831ADDAA106000091AG14001GF106991041021004501081001KA1240M+03391MA1999999098011MD1999999-0141REMSYN016 333 10339 59014
0117829860999991994040918004-09400-038217FM-12+0252SBUF V0201401N00461045001CN0500001N9+03191+01571100741ADDAA106000091AG14001AY151061AY221061GF106991041021008001081001MA1999999097931MD1999999+0181MW1151REMSYN010 333 58018
0155829860999991994041012004-09400-038217FM-12+0252SBUF V0201401N00311007501CN0200001N9+02641+01881101211ADDAA106000091AG15000AY121061AY221061GF107991051071008001081001KA1240M+99999MA1999999098371MD1999999+0101MW1151REMSYN016 333 10236 58010EQDQ01 +02362ATMX  
0167829860999991994041018004-09400-038217FM-12+0252SBUF V0201401N00361000151CN0010001N9+03041+01821100861ADDAA106007091AG10001AY151061AY221061GA1051+000159029GA2021+004509099GF108991081081004501999999MA1999999098041MD1999999+0111MW1921REMSYN028 333 58011 60071 85200 82994
0120829860999991994041112004-09400-038217FM-12+0252SBUF V0201401N00151045001CN0100001N9+02571+02151101301ADDAA124008091AG10000GF106991041021004501081001KA1240N+02291MA1999999098451MD1999999+0081REMSYN022 333 20229 58008 60084
0114829860999991994041212004-09400-038217FM-12+0252SBUF V0201401N00361220001CN0200001N9+02661+01921101431ADDAA106000091AG14000GF104991021011008001081001KA1240N+02341MA1999999098591MD1999999+0141REMSYN016 333 20234 58014
0117829860999991994041218004-09400-038217FM-12+0252SBUF V0201401N00361045001CN0500001N9+03261+01801100911ADDAA106000091AG15000AY121061AY221061GF105991021071012501081001MA1999999098101MD1999999+0071MW1151REMSYN010 333 58007
0136829860999991994041312004-09400-038217FM-12+0252SBUF V0200901N00151045001CN0100001N9+02551+02131101411ADDAA106000091AG14000GA1031+012509009GF106991041021004501081011KA1240N+02361MA1999999098561MD1999999-0041REMSYN022 333 20236 59004 83096
0096829860999991994041318004-09400-038217FM-12+0252SBUF V0201401N00311220001CN0500001N9+03221+01951100921ADDAA106000091AG10000GF105991021071008001081091MA1999999098111MD1999999+0001REMSYN011 333 58000;
0115829860999991994041400004-09400-038217FM-12+0252SBUF V0201401N00211045001CN0200001N9+02481+02091101401ADDAA106000091AG10000GF105991021011008001081001KA1240N+02071MA1999999098561MD1999999+0001REMSYN017 333 20207 58000;
0115829860999991994041412004-09400-038217FM-12+0252SBUF V0201401N00211045001CN0200001N9+02481+02091101401ADDAA106000091AG10000GF105991021011008001081001KA1240N+02071MA1999999098561MD1999999+0001REMSYN017 333 20207 58000;
0096829860999991994041418004-09400-038217FM-12+0252SBUF V0201401N00311105001CN0500001N9+03221+01731100951ADDAA106000091AG10000GF105991021071008001081011MA1999999098121MD1999999+0011REMSYN011 333 58001;
0115829860999991994041512004-09400-038217FM-12+0252SBUF V0201401N00151045001CN0100001N9+02511+02071101351ADDAA106000091AG10000GF106991031011008001081011KA1240N+02241MA1999999098511MD1999999-0051REMSYN017 333 20224 59005;
0096829860999991994041518004-09400-038217FM-12+0252SBUF V0201401N00211045001CN0200001N9+03261+01911100931ADDAA106000091AG10000GF105991021071012501081001MA1999999098111MD1999999-0011REMSYN011 333 59001;
0137829860999991994041612004-09400-038217FM-12+0252SBUF V0200901N00511045001CN0200001N9+02541+02001101241ADDAA106000091AG10000AY101061AY221061GF106991031071008001081091KA1240N+02381MA1999999098411MD1999999-0101MW1151REMSYN017 333 20238 59010;
0118829860999991994041618004-09400-038217FM-12+0252SBUF V0201401N00311045001CN0200001N9+02901+01691101021ADDAA106000091AG10000AY121061AY221061GF107991041021004501081071MA1999999098191MD1999999+0081MW1151REMSYN011 333 58008;
0115829860999991994041800004-09400-038217FM-12+0252SBUF V0200901N00361045001CN9999999N9+02711+01961101181ADDAA106000091AG10000GF106991021011008001081001KA1240M+03281MA1999999098341MD1999999+0031REMSYN017 333 10328 58003;
0115829860999991994041812004-09400-038217FM-12+0252SBUF V0200901N00361220001CN0200001N9+02681+01891101361ADDAA106000091AG10000GF104991011011012501061021KA1240N+02211MA1999999098521MD1999999-0021REMSYN017 333 20221 59002;
0115829860999991994041818004-09400-038217FM-12+0252SBUF V0201401N003119999999N0500001N9+03281+01781100831ADDAA106000091AG10000GF105991999011004501061011MA1999999098011MD1999999-0061REMSYN011 333 59006;EQDQ01+000072SCOTLC
0115829860999991994041900004-09400-038217FM-12+0252SBUF V0200901N00361045001CN9999999N9+02731+01951101001ADDAA106000091AG10000GF106991031011008001081001KA1240M+03231MA1999999098181MD1999999-0161REMSYN017 333 10323 59016;
0115829860999991994041912004-09400-038217FM-12+0252SBUF V0201401N00311220001CN0200001N9+02721+01931101341ADDAA106000091AG10000GF103991021001012501061021KA1240N+02251MA1999999098501MD1999999-0021REMSYN017 333 20225 59002;
0143829860999991994042012004-09400-038217FM-12+0252SBUF V0201401N00261004201CN0020001N9+02401+02301101321ADDAA124019091AG10005AY161061AY261061GF107991051071004501081001KA1240N+02231MA1999999098451MD1999999-0051MW1911REMSYN023 333 20223 59005 60194;
0124829860999991994042018004-09400-038217FM-12+0252SBUF V0200501N00311045001CN0500001N9+02921+02061100911ADDAA106003091AG10005AY161061AY221061GF106991031071008001081001MA1999999098081MD1999999+0051MW1151REMSYN017 333 58005 60031;
0121829860999991994042112004-09400-038217FM-12+0252SBUF V0201401N00051045001CN0200001N9+02581+02011101371ADDAA124003091AG10000GF106991031071008001081001KA1240N+02221MA1999999098521MD1999999+0071REMSYN023 333 20222 58007 60034;
0143829860999991994042212004-09400-038217FM-12+0252SBUF V0200901N00311007501CN0100001N9+02481+02111101391ADDAA124000191AG10005AY161061AY221061GF107991051071008001081001KA1240N+02261MA1999999098541MD1999999+0021MW1151REMSYN023 333 20226 58002 69914;
0096829860999991994042218004-09400-038217FM-12+0252SBUF V0200901N00261220001CN0500001N9+03101+01661101011ADDAA106000091AG10000GF103991021011008001061001MA1999999098181MD1999999+0051REMSYN011 333 58005;
0137829860999991994042312004-09400-038217FM-12+0252SBUF V0201401N00151045001CN0200001N9+02561+01991101431ADDAA106000091AG10000AY121061AY221061GF106991031071008001081001KA1240N+02361MA1999999098591MD1999999+0051MW1151REMSYN017 333 20236 58005;
0096829860999991994042318004-09400-038217FM-12+0252SBUF V0201401N00361105001CN0500001N9+03191+01571101041ADDAA106000091AG10000GF105991021011008001061011MA1999999098211MD1999999+0031REMSYN011 333 58003;
0115829860999991994042400004-09400-038217FM-12+0252SBUF V0201401N00511045001CN9999999N9+02511+02091101381ADDAA106000091AG10000GF106991031011008001081021KA1240M+03241MA1999999098531MD1999999+0071REMSYN017 333 10324 58007;
0143829860999991994042412004-09400-038217FM-12+0252SBUF V0201401N00311045001CN0200001N9+02541+02111101361ADDAA124003091AG10005AY161061AY221061GF105991021071008001081001KA1240N+02261MA1999999098511MD1999999-0081MW1151REMSYN023 333 20226 59008 60034;
0118829860999991994042418004-09400-038217FM-12+0252SBUF V0201401N00361045001CN0500001N9+03081+01921100971ADDAA106000091AG10000AY121061AY221061GF106991031071012501081001MA1999999098141MD1999999-0071MW1151REMSYN011 333 59007;
0115829860999991994042512004-09400-038217FM-12+0252SBUF V0201401N00261045001CN0200001N9+02481+02071101501ADDAA106000091AG10000GF106991031011008001081001KA1240N+02271MA1999999098641MD1999999+0131REMSYN017 333 20227 58013;
0096829860999991994042518004-09400-038217FM-12+0252SBUF V0201401N00151045001CN0500001N9+03181+02041100941ADDAA106000091AG10000GF105991021071012501081001MA1999999098121MD1999999-0021REMSYN011 333 59002;
0115829860999991994042600004-09400-038217FM-12+0252SBUF V0201401N00311220001CN9999999N9+02661+02091101151ADDAA106000091AG10000GF104991021071004501061999KA1240M+03221MA1999999098311MD1999999-0101REMSYN017 333 10322 59010;
0115829860999991994042612004-09400-038217FM-12+0252SBUF V0201401N00211045001CN0100001N9+02511+02111101301ADDAA106000091AG10000GF106991041021004501081001KA1240N+02251MA1999999098461MD1999999-0181REMSYN017 333 20225 59018;
0096829860999991994042618004-09400-038217FM-12+0252SBUF V0201401N00311045001CN0500001N9+03141+01971100851ADDAA106000091AG10000GF105991021071008001061001MA1999999098031MD1999999-0091REMSYN011 333 59009;
0115829860999991994042712004-09400-038217FM-12+0252SBUF V0201401N00311220001CN0200001N9+02571+02151101291ADDAA106000091AG10000GF104991021011008001081001KA1240N+02171MA1999999098451MD1999999-0011REMSYN017 333 20217 59001;
0118829860999991994042718004-09400-038217FM-12+0252SBUF V0201401N00361045001CN0500001N9+03121+01921100871ADDAA106000091AG10000AY121061AY221061GF106991031071008001081001MA1999999098041MD1999999+0011MW1151REMSYN011 333 58001;
0115829860999991994042812004-09400-038217FM-12+0252SBUF V0201401N00151045001CN0200001N9+02591+02151101391ADDAA106000091AG10000GF107991041021004501081011KA1240N+02181MA1999999098551MD1999999+0101REMSYN017 333 20218 58010;
0118829860999991994042818004-09400-038217FM-12+0252SBUF V0201401N00311045001CN0500001N9+03161+01861101041ADDAA106000091AG10000AY121061AY221061GF106991031071008001081001MA1999999098201MD1999999+0161MW1151REMSYN011 333 58016;
0131829860999991994042900004-09400-038217FM-12+0252SBUF V0201401N00151220001CN9999999N9+02701+01881101241ADDAA106000091AG10000GA1001+999999999GF100991001001999999001001KA1240M+03361MA1999999098401MD1999999+0091REMSYN017 333 10336 58009;
0115829860999991994042912004-09400-038217FM-12+0252SBUF V0200901N00261045001CN0200001N9+02531+01961101491ADDAA106000091AG10000GF106991031011008001081021KA1240N+02241MA1999999098641MD1999999+0091REMSYN017 333 20224 58009;
0137829860999991994042918004-09400-038217FM-12+0252SBUF V0201401N00151007501CN0500001N9+03041+01821101181ADDAA106999999AG10000AY121061AY221061GF107991051071008001081001MA1999999098341MD1999999+0141MW1501REMSYN011 333 58014;EQDQ01  00002PRCP06
0131829860999991994043000004-09400-038217FM-12+0252SBUF V0201401N00361220001CN9999999N9+02681+02091101271ADDAA106000091AG10000GA1001+999999999GF100991001001999999001001KA1240M+03221MA1999999098431MD1999999+0031REMSYN017 333 10322 58003;
0156829860999991994043012004-09400-038217FM-12+0252SBUF V0201401N00051007501CN0200001N9+02621+01961101351ADDAA106999999AG10000AY101061AY221061GF107991051071008001081001KA1240N+02321MA1999999098511MD1999999-0131MW1501REMSYN017 333 20232 59013;EQDQ01  00002PRCP06
0096829860999991994043018004-09400-038217FM-12+0252SBUF V0200901N00311045001CN0200001N9+02901+01751101211ADDAA106000091AG10000GF107991041071004501081001MA1999999098371MD1999999+0031REMSYN011 333 58003;
0115829860999991994050112004-09400-038217FM-12+0252SBUF V0201401N00311045001CN0100001N9+02581+02171101511ADDAA106000091AG10000GF106991041021004501081001KA1240N+02171MA1999999098651MD1999999+0141REMSYN017 333 20217 58014;
0096829860999991994050118004-09400-038217FM-12+0252SBUF V0201401N00361045001CN0200001N9+03171+01601101131ADDAA106000091AG10000GF106991031011008001081011MA1999999098291MD1999999-0081REMSYN011 333 59008;
0131829860999991994050200004-09400-038217FM-12+0252SBUF V0201401N00311220001CN9999999N9+02501+02001101501ADDAA106000091AG10000GA1001+999999999GF100991001001999999001001KA1240M+03241MA1999999098641MD1999999+0111REMSYN017 333 10324 58011;
0115829860999991994050212004-09400-038217FM-12+0252SBUF V0201401N00311220001CN0200001N9+02701+01861101621ADDAA106000091AG10000GF102991011001012501041011KA1240N+02191MA1999999098771MD1999999+0121REMSYN017 333 20219 58012;
0096829860999991994050218004-09400-038217FM-12+0252SBUF V0201401N00151045001CN0500001N9+03101+01871101181ADDAA106000091AG10000GF106991031071012501081001MA1999999098341MD1999999+0051REMSYN011 333 58005;
0131829860999991994050300004-09400-038217FM-12+0252SBUF V0201401N00311220001CN9999999N9+02501+01801101501ADDAA106000091AG10000GA1001+999999999GF100991001001999999001001KA1240M+03181MA1999999098651MD1999999+0011REMSYN017 333 10318 58001;
0118829860999991994050318004-09400-038217FM-12+0252SBUF V0201401N00211007501CN0500001N9+03001+01881101111ADDAA106000091AG10000AY121061AY221061GF107991051071008001081091MA1999999098261MD1999999-0081MW1151REMSYN011 333 59008;
0134829860999991994050400004-09400-038217FM-12+0252SBUF V0201401N00311045001CN9999999N9+02601+01941101381ADDAA106000091AG10000GF106991031011008001081011KA1240M+03081MA1999999098531MD1999999-0121REMSYN017 333 10308 59012;EQDQ01+000002VOVAR 
0115829860999991994050412004-09400-038217FM-12+0252SBUF V0201801N00151004201CN0040001N1+02501+02131101521ADDAA106000091AG10000GF107991051071004501081001KA1240N+02251MA1999999098661MD1999999+0001REMSYN017 333 20225 58000;
0096829860999991994050418004-09400-038217FM-12+0252SBUF V0201401N00051045001CN0500001N1+03081+01921101081ADDAA106000091AG10000GF106991031071012501081091MA1999999098241MD1999999-0021REMSYN011 333 59002;
0115829860999991994050512004-09400-038217FM-12+0252SBUF V0201401N002619999999N0100001N1+02581+02081101501ADDAA106000091AG10000GF107991999999004501999999KA1240N+02371MA1999999098651MD1999999-0011REMSYN017 333 20237 59001;
0137829860999991994050518004-09400-038217FM-12+0252SBUF V0201401N00311045001CN0500001N1+03021+01961101071ADDAA106000091AG10000AY121061AY221061GF106991031071008001081091MA1999999098261MD1999999+0021MW1151REMSYN011 333 58002;EQDQ01+999990APOSLP
0143829860999991994050612004-09400-038217FM-12+0252SBUF V0201401N00261004201CN0100001N1+02471+02271101641ADDAA124022091AG10005AY161061AY251061GF107991051071004501081001KA1240N+02221MA1999999098751MD1999999+0101MW1031REMSYN023 333 20222 58010 60224;
0124829860999991994050618004-09400-038217FM-12+0252SBUF V0200901N00311006001CN0010001N1+02301+02161101351ADDAA106006091AG10005AY161061AY251061GF108991081081002501999999MA1999999098461MD1999999+0201MW1921REMSYN017 333 58020 60061;
0162829860999991994050700004-09400-038217FM-12+0252SBUF V0200901N00151045001CN9999999N9+02301+02231101501ADDAA106001091AG10005AY161061AY251061GF106991041071004501081001KA1240M+02981MA1999999098621MD1999999-0121MW1031REMSYN023 333 10298 59012 60011;EQDQ01+000002VOVAR 
0130829860999991994050712004-09400-038217FM-12+0252SBUF V0201401N00311045001CN0200001N1+02541+02171101401ADDAA124008091AG10005AY161061AY221061GF106991031071008001081001MA1999999098531MD1999999-0221MW1151REMSYN023 333 20/// 59022 60084;
0096829860999991994050718004-09400-038217FM-12+0252SBUF V0201401N00621045001CN0200001N1+03041+01821101071ADDAA106000091AG10000GF106991041021004501081011MA1999999098231MD1999999-0231REMSYN011 333 59023;
0150829860999991994050800004-09400-038217FM-12+0252SBUF V0201401N00311220001CN9999999N9+02461+02151101351ADDAA106000091AG10000GA1001+999999999GF100991001001999999001001KA1240M+03081MA1999999098501MD1999999-0121REMSYN017 333 10308 59012;EQDQ01+000002VOVAR 
0143829860999991994050812004-09400-038217FM-12+0252SBUF V0201401N00461009001CN0020001N1+02481+02171101301ADDAA124000391AG10000AY151061AY221061GF108991081081004501999999KA1240N+02221MA1999999098451MD1999999-0081MW1911REMSYN023 333 20222 59008 69934;
0124829860999991994050818004-09400-038217FM-12+0252SBUF V0201401N00461009001CN0010001N1+02841+02121101051ADDAA106000591AG10005AY161061AY251061GF108991081081004501999999MA1999999098191MD1999999-0041MW1911REMSYN017 333 59004 69961;
0162829860999991994050900004-09400-038217FM-12+0252SBUF V0201401N00211009001CN9999999N9+02261+02071101431ADDAA106000191AG10005AY161061AY251061GF108991081081004501999999KA1240M+02901MA1999999098561MD1999999+0061MW1501REMSYN023 333 10290 58006 69911;EQDQ01+000002VOVAR 
0143829860999991994050912004-09400-038217FM-12+0252SBUF V0201401N00151004201CN0100001N1+02251+02191101561ADDAA124003091AG10005AY161061AY251061GF107991051071004501081001KA1240N+02101MA1999999098661MD1999999+0211MW1031REMSYN023 333 20210 58021 60034;
0124829860999991994050918004-09400-038217FM-12+0252SBUF V0201401N00211045001CN0500001N1+02781+02211101151ADDAA106000191AG10005AY161061AY221061GF106991031071008001081001MA1999999098281MD1999999+0091MW1151REMSYN017 333 58009 69911;
0150829860999991994051000004-09400-038217FM-12+0252SBUF V0201401N00151220001CN9999999N9+02561+02081101401ADDAA106000091AG10000GA1001+999999999GF100991001001999999001001KA1240M+02921MA1999999098531MD1999999-0031REMSYN017 333 10292 59003;EQDQ01+000002VOVAR 
0143829860999991994051012004-09400-038217FM-12+0252SBUF V0201801N00151006001CN0010001N1+02201+02151101591ADDAA124002091AG10005AY161061AY261061GF108991081081002501999999KA1240N+02171MA1999999098711MD1999999+0051MW1911REMSYN023 333 20217 58005 60024;
0124829860999991994051018004-09400-038217FM-12+0252SBUF V0201401N00151006001CN0100001N1+02441+02131101201ADDAA106008091AG10005AY161061AY261061GF108991081081002501999999MA1999999098321MD1999999+0041MW1501REMSYN017 333 58004 60081;
0162829860999991994051112004-09400-038217FM-12+0252SBUF V0201401N00311045001CN9999999N9+02431+02251101551ADDAA124010091AG10005AY161061AY251061GF106991041021004501081011KA1240N+02181MA1999999098671MD1999999-0041MW1031REMSYN023 333 20218 59004 60104;EQDQ01+000002VOVAR 
0096829860999991994051118004-09400-038217FM-12+0252SBUF V0201401N00211045001CN0500001N1+02981+02041101231ADDAA106000091AG10000GF105991021071008001061001MA1999999098381MD1999999+0061REMSYN011 333 58006;
0162829860999991994051200004-09400-038217FM-12+0252SBUF V0201401N00311004201CN9999999N9+02561+02151101261ADDAA106000191AG10005AY161061AY221061GF107991051071004501081999KA1240M+03021MA1999999098411MD1999999-0151MW1031REMSYN023 333 10302 59015 69911;EQDQ01+000002VOVAR 
0162829860999991994051212004-09400-038217FM-12+0252SBUF V0201401N00311004201CN9999999N9+02561+02151101261ADDAA106000191AG10005AY161061AY221061GF107991051071004501081999KA1240M+03021MA1999999098411MD1999999-0151MW1031REMSYN023 333 10302 59015 69911;EQDQ01+000002VOVAR 
0124829860999991994051218004-09400-038217FM-12+0252SBUF V0200501N00211007501CN0500001N1+02681+02201101281ADDAA106000591AG10005AY161061AY221061GF107991051071008001081001MA1999999098411MD1999999+0031MW1151REMSYN017 333 58003 69961;
0150829860999991994051300004-09400-038217FM-12+0252SBUF V0200901N00151220001CN9999999N9+02421+02131101401ADDAA106000091AG10000GA1001+999999999GF100991001001999999001001KA1240M+02821MA1999999098521MD1999999+0111REMSYN017 333 10282 58011;EQDQ01+000002VOVAR 
0121829860999991994051312004-09400-038217FM-12+0252SBUF V0200901N00261045001CN0040001N1+02381+02151101491ADDAA124000591AG10000GF106991041021004501081001KA1240N+02141MA1999999098611MD1999999-0031REMSYN023 333 20214 59003 69964;
0096829860999991994051318004-09400-038217FM-12+0252SBUF V0201401N00211045001CN0500001N1+02921+02091101081ADDAA106000091AG10000GF106991031071012501081001MA1999999098231MD1999999-0181REMSYN011 333 59018;
0150829860999991994051400004-09400-038217FM-12+0252SBUF V0201401N00151220001CN9999999N9+02521+02091101281ADDAA106000091AG10000GA1001+999999999GF100991001001999999001001KA1240M+02921MA1999999098421MD1999999-0101REMSYN017 333 10292 59010;EQDQ01+000002VOVAR 
0143829860999991994051412004-09400-038217FM-12+0252SBUF V0200901N00151006001CN0100001N1+02361+02261101451ADDAA124000191AG10000AY151061AY221061GF108991081081002501999999KA1240N+02221MA1999999098581MD1999999-0031MW1911REMSYN023 333 20222 59003 69914;
0096829860999991994051418004-09400-038217FM-12+0252SBUF V0201401N00311045001CN0100001N1+02711+02031101081ADDAA106000091AG10000GF106991041021004501081001MA1999999098211MD1999999-0021REMSYN011 333 59002;
0143829860999991994051512004-09400-038217FM-12+0252SBUF V0201401N00211045001CN0100001N1+02421+02171101521ADDAA124014091AG10005AY161061AY251061GF106991041021004501081001KA1240N+02181MA1999999098631MD1999999+0061MW1031REMSYN023 333 20218 58006 60144;
0115829860999991994051612004-09400-038217FM-12+0252SBUF V0201401N00261045001CN0040001N1+02501+02231101501ADDAA106000091AG10000GF106991041021004501081001KA1240N+02201MA1999999098641MD1999999+0011REMSYN017 333 20220 58001;
0124829860999991994051618004-09400-038217FM-12+0252SBUF V0201401N00211007501CN0500001N1+02481+02271101201ADDAA106006091AG10005AY161061AY221061GF107991051071008001081001MA1999999098321MD1999999+0021MW1151REMSYN017 333 58002 60061;
0150829860999991994051700004-09400-038217FM-12+0252SBUF V0201401N00211220001CN9999999N9+02351+01951101421ADDAA106000091AG10000GA1001+999999999GF100991001001999999001001KA1240M+02721MA1999999098551MD1999999+0061REMSYN017 333 10272 58006;EQDQ01+000002VOVAR 
0121829860999991994051712004-09400-038217FM-12+0252SBUF V0201401N00211045001CN0040001N1+02481+02191101501ADDAA124006091AG10000GF106991041021004501081001KA1240N+02041MA1999999098621MD1999999-0021REMSYN023 333 20204 59002 60064;
0096829860999991994051718004-09400-038217FM-12+0252SBUF V0201401N00261045001CN0500001N1+02891+02071101161ADDAA106000091AG10000GF106991031071008001081001MA1999999098291MD1999999-0031REMSYN011 333 59003;
0115829860999991994052412004-09400-038217FM-12+0252SBUF V0201401N00151045001CN0100001N1+02451+02151101511ADDAA106000091AG10000GF106991031011008001081011KA1240N+02211MA1999999098641MD1999999-0041REMSYN017 333 20221 59004;
0134829860999991994052500004-09400-038217FM-12+0252SBUF V0201401N00151220001CN9999999N9+02561+02111101271ADDAA106000091AG10000GF104991021011004501061999KA1240M+03081MA1999999098421MD1999999-0031REMSYN017 333 10308 59003;EQDQ01+000002VOVAR 
0115829860999991994052512004-09400-038217FM-12+0252SBUF V0201401N00151045001CN0200001N1+02401+02111101431ADDAA106000091AG10000GF105991021011008001081001KA1240N+02171MA1999999098581MD1999999-0061REMSYN017 333 20217 59006;
0096829860999991994052518004-09400-038217FM-12+0252SBUF V0201401N00211045001CN0500001N1+03061+01871100991ADDAA106000091AG10000GF105991021071012501081001MA1999999098161MD1999999-0081REMSYN011 333 59008;
0150829860999991994052600004-09400-038217FM-12+0252SBUF V0200901N00311220001CN9999999N9+02541+02001101171ADDAA106000091AG10000GA1001+999999999GF100991001001999999001001KA1240M+03121MA1999999098321MD1999999-0101REMSYN017 333 10312 59010;EQDQ01+000002VOVAR 
0115829860999991994052612004-09400-038217FM-12+0252SBUF V0201401N00151045001CN0100001N1+02381+02211101401ADDAA106000091AG10000GF106991041021004501081001KA1240N+02111MA1999999098531MD1999999-0051REMSYN017 333 20211 59005;
0118829860999991994052618004-09400-038217FM-12+0252SBUF V0201401N00151007501CN0500001N1+03001+01971100991ADDAA106000091AG10000AY121061AY221061GF107991051071008001081001MA1999999098151MD1999999-0011MW1151REMSYN011 333 59001;
0134829860999991994052700004-09400-038217FM-12+0252SBUF V0201401N00311004201CN9999999N9+02661+02001101071ADDAA106000091AG10000GF107991051071004501081999KA1240M+03081MA1999999098221MD1999999-0101REMSYN017 333 10308 59010;EQDQ01+000002VOVAR 
0115829860999991994052712004-09400-038217FM-12+0252SBUF V0200901N00261045001CN0200001N1+02461+01991101341ADDAA106000091AG10000GF105991021011008001061001KA1240N+02121MA1999999098491MD1999999-0041REMSYN017 333 20212 59004;
0096829860999991994052718004-09400-038217FM-12+0252SBUF V0201401N00151045001CN0500001N1+03101+01871100891ADDAA106000091AG10000GF106991031071012501081001MA1999999098061MD1999999-0091REMSYN011 333 59009;
0150829860999991994052800004-09400-038217FM-12+0252SBUF V0200901N00151220001CN9999999N9+02621+01861101101ADDAA106000091AG10000GA1001+999999999GF100991001001999999001001KA1240M+03141MA1999999098251MD1999999+0031REMSYN017 333 10314 58003;EQDQ01+000002VOVAR 
0115829860999991994052812004-09400-038217FM-12+0252SBUF V0200901N00211045001CN0200001N1+02461+01991101271ADDAA106000091AG10000GF106991031071008001081001KA1240N+02141MA1999999098421MD1999999-0071REMSYN017 333 20214 59007;
0096829860999991994052818004-09400-038217FM-12+0252SBUF V0200901N00151220001CN0500001N1+03221+01521100961ADDAA106000091AG10000GF103991011011012501041001MA1999999098131MD1999999+0071REMSYN011 333 58007;
0150829860999991994052900004-09400-038217FM-12+0252SBUF V0200901N00311220001CN9999999N9+02721+01981101151ADDAA106000091AG10000GA1001+999999999GF100991001001999999001001KA1240M+03261MA1999999098311MD1999999+0071REMSYN017 333 10326 58007;EQDQ01+000002VOVAR 
0115829860999991994052912004-09400-038217FM-12+0252SBUF V0201401N00151220001CN0200001N1+02501+01961101341ADDAA106000091AG10000GF103991011011012501061001KA1240N+02131MA1999999098501MD1999999+0081REMSYN017 333 20213 58008;
0096829860999991994052918004-09400-038217FM-12+0252SBUF V0200901N00261220001CN0500001N1+03191+01491100991ADDAA106000091AG10000GF104991021011012501061001MA1999999098161MD1999999+0041REMSYN011 333 58004;
0115829860999991994053012004-09400-038217FM-12+0252SBUF V0201401N00361045001CN0100001N1+02551+02041101401ADDAA106000091AG10000GF106991031011008001081001KA1240N+02221MA1999999098551MD1999999+0051REMSYN017 333 20222 58005;
0096829860999991994053018004-09400-038217FM-12+0252SBUF V0201401N00211045001CN0500001N1+03121+01641101081ADDAA106000091AG10000GF106991031071008001081001MA1999999098241MD1999999+0081REMSYN011 333 58008;
0118829860999991994053118004-09400-038217FM-12+0252SBUF V0201401N00211045001CN0500001N1+03021+01891101211ADDAA106000091AG10000AY121061AY221061GF106991031071008001081001MA1999999098361MD1999999+0121MW1151REMSYN011 333 58012;
0150829860999991994060100004-09400-038217FM-12+0252SBUF V0201401N00211220001CN9999999N9+02501+01771101441ADDAA106000091AG10000GA1001+999999999GF100991001001999999001001KA1240M+03121MA1999999098591MD1999999+0071REMSYN017 333 10312 58007;EQDQ01+000002VOVAR 
0143829860999991994060112004-09400-038217FM-12+0252SBUF V0201401N00151004201CN0040001N1+02331+02111101521ADDAA124000191AG10004AY161061AY251061GF107991051071004501081001KA1240N+02131MA1999999098641MD1999999+0031MW1031REMSYN023 333 20213 58003 69914;
0134829860999991994060200004-09400-038217FM-12+0252SBUF V0201401N00311009001CN9999999N9+02271+02181101551ADDAA106000091AG10000GF108991081081004501999999KA1240M+02911MA1999999098661MD1999999+0071REMSYN017 333 10291 58007;EQDQ01+000002VOVAR 
0143829860999991994060212004-09400-038217FM-12+0252SBUF V0201401N00151009001CN0040001N1+02371+02211101591ADDAA124000191AG10004AY161061AY251061GF108991081081004501999999KA1240N+02141MA1999999098701MD1999999+0061MW1911REMSYN023 333 20214 58006 69924;
0143829860999991994060312004-09400-038217FM-12+0252SBUF V0200901N00261045001CN0100001N1+02411+02171101541ADDAA124009091AG10004AY161061AY251061GF106991041021004501081001KA1240N+02161MA1999999098651MD1999999-0051MW1031REMSYN023 333 20216 59005 60094;
0118829860999991994060318004-09400-038217FM-12+0252SBUF V0201401N00211007501CN0500001N1+02761+01991101281ADDAA106000091AG10000AY121061AY221061GF107991051071008001081001MA1999999098411MD1999999+0111MW1151REMSYN011 333 58011;
0150829860999991994060400004-09400-038217FM-12+0252SBUF V0200901N00311220001CN9999999N9+02361+02151101531ADDAA106000091AG10000GA1001+999999999GF100991001001999999001001KA1240M+02901MA1999999098651MD1999999+0051REMSYN017 333 10290 58005;EQDQ01+000002VOVAR 
0143829860999991994060412004-09400-038217FM-12+0252SBUF V0201401N00211012001CN0200001N1+02361+02171101651ADDAA124000191AG10004AY161061AY221061GF108991081081008001999999KA1240N+02161MA1999999098771MD1999999+0121MW1151REMSYN023 333 20216 58012 69914;
0124829860999991994060418004-09400-038217FM-12+0252SBUF V0201401N00361009001CN0100001N1+02341+02151101541ADDAA106001091AG10004AY161061AY251061GF108991081081004501999999MA1999999098641MD1999999+0231MW1031REMSYN017 333 58023 60011;
0121829860999991994060512004-09400-038217FM-12+0252SBUF V0201401N00211045001CN0200001N1+02381+02091101661ADDAA124001091AG10000GF106991031071008001081001KA1240N+02121MA1999999098761MD1999999-0011REMSYN023 333 20212 59001 60014;
0118829860999991994061318004-09400-038217FM-12+0252SBUF V0201401N00151045001CN0500001N1+02701+02031101321ADDAA106000091AG10000AY121061AY221061GF106991031071008001081001MA1999999098421MD1999999-0071MW1151REMSYN011 333 59007;
0178829860999991994061400004-09400-038217FM-12+0252SBUF V0200901N00151220001CN9999999N9+02281+02031101561ADDAA106000191AG10004AY161061AY221061GA1001+999999999GF100991001001999999001001KA1240M+02761MA1999999098661MD1999999-0021MW1001REMSYN023 333 10276 59002 69911;EQDQ01+000002VOVAR 
0143829860999991994061412004-09400-038217FM-12+0252SBUF V0200901N00211045001CN0200001N1+02241+02101101601ADDAA124000191AG10000AY121061AY221061GF107991021071008001081001KA1240N+02201MA1999999098711MD1999999+0021MW1151REMSYN023 333 20220 58002 69914;
0156829860999991994061512004-09400-038217FM-12+0252SBUF V0201401N00311009001CN0040001N1+02281+02111101641ADDAA106999999AG10000AY151061AY221061GF108991081081004501999999KA1240N+02161MA1999999098751MD1999999+0041MW1501REMSYN017 333 20216 58004;EQDQ01  00002PRCP06
0118829860999991994061518004-09400-038217FM-12+0252SBUF V0200901N00211045001CN0500001N1+02841+02071101421ADDAA106000091AG10000AY121061AY221061GF106991031071008001081001MA1999999098551MD1999999-0041MW1151REMSYN011 333 59004;
0134829860999991994061600004-09400-038217FM-12+0252SBUF V0200901N00151045001CN9999999N9+02361+02111101551ADDAA106000091AG10000GF106991031071004501081999KA1240M+02881MA1999999098661MD1999999+0041REMSYN017 333 10288 58004;EQDQ01+000002VOVAR 
0115829860999991994061612004-09400-038217FM-12+0252SBUF V0201401N00101012001CN0200001N1+02341+02171101651ADDAA106000091AG10000GF107991051071012501081001KA1240N+02161MA1999999098761MD1999999+0011REMSYN017 333 20216 58001;
0124829860999991994061618004-09400-038217FM-12+0252SBUF V0201401N00151006001CN0010001N1+02341+02261101451ADDAA106005091AG10004AY161061AY251061GF108991081081002501999999MA1999999098561MD1999999+0011MW1921REMSYN017 333 58001 60051;
0162829860999991994061700004-09400-038217FM-12+0252SBUF V0201401N00361006001CN9999999N9+02261+02191101531ADDAA106002091AG10004AY161061AY221061GF108991081081002501999999KA1240M+02761MA1999999098641MD1999999-0021MW1031REMSYN023 333 10276 59002 60021;EQDQ01+000002VOVAR 
0102829860999991994061718004-09400-038217FM-12+0252SBUF V0201401N003610090019N0200001N1+02621+02211101291ADDAA106000191AG10000GF108991081081004501999999MA1999999098411MD1999999-0151REMSYN017 333 59015 69911;
0143829860999991994061812004-09400-038217FM-12+0252SBUF V0201401N003110450019N0200001N1+99999+99999101531ADDAA124008091AG10004AY161061AY261061GF106991031071008001081001KA1240N+02101MA1999999098641MD1999999-0131MW1151REMSYN023 333 20210 59013 60084;
0124829860999991994061818004-09400-038217FM-12+0252SBUF V0201401N00151045001CN0500001N1+02661+02091101201ADDAA106000591AG10004AY161061AY221061GF105991021071004501061001MA1999999098321MD1999999-0091MW1151REMSYN017 333 59009 69951;
0143829860999991994061912004-09400-038217FM-12+0252SBUF V0201401N00151007501CN0200001N1+02281+02201101531ADDAA124025091AG10004AY161061AY261061GF107991051071008001081001KA1240N+02121MA1999999098641MD1999999+0001MW1151REMSYN023 333 20212 58000 60254;
0143829860999991994062012004-09400-038217FM-12+0252SBUF V0201401N00511006001CN0005001N1+02201+02171101591ADDAA124017091AG10004AY161061AY261061GF108991081081002501999999KA1240N+02141MA1999999098681MD1999999+0051MW1911REMSYN023 333 20214 58005 60174;
0124829860999991994062018004-09400-038217FM-12+0252SBUF V0200901N00261006001CN0010001N1+02281+02161101371ADDAA106004091AG10004AY161061AY251061GF108991081081002501999999MA1999999098841MD1999999+0151MW1911REMSYN017 333 58015 60041;
0143829860999991994062112004-09400-038217FM-12+0252SBUF V0201401N00261045001CN0040001N1+02321+02091101551ADDAA124007091AG10004AY161061AY221061GF106991031071008001081001KA1240N+02021MA1999999098651MD1999999-0041MW1151REMSYN023 333 20202 59004 60074;
0118829860999991994062118004-09400-038217FM-12+0252SBUF V0201401N00211045001CN0500001N1+02761+01941101081ADDAA106000091AG10000AY121061AY221061GF106991031071012501081001MA1999999098211MD1999999-0261MW1151REMSYN011 333 59026;
0143829860999991994062200004-09400-038217FM-12+0252SBUF V0201401N00151009001CN0100001N1+02261+02181101451ADDAA124000191AG10004AY161061AY221061GF108991081081004501999999KA1240N+02161MA1999999098571MD1999999+0081MW1911REMSYN023 333 20216 58008 69914;
0143829860999991994062212004-09400-038217FM-12+0252SBUF V0201401N00151009001CN0100001N1+02261+02181101451ADDAA124000191AG10004AY161061AY221061GF108991081081004501999999KA1240N+02161MA1999999098571MD1999999+0081MW1911REMSYN023 333 20216 58008 69914;
0124829860999991994062218004-09400-038217FM-12+0252SBUF V0201401N00211007501CN0200001N1+02621+02251101111ADDAA106000191AG10004AY161061AY221061GF107991051071008001081001MA1999999098231MD1999999+0021MW1151REMSYN017 333 58002 69911;
0140829860999991994062300004-09400-038217FM-12+0252SBUF V0201401N00051004201CN9999999N9+02341+02201101341ADDAA106000391AG10000GF107991071051004501081999KA1240M+02701MA1999999098461MD1999999+0001REMSYN023 333 10270 58000 69931;EQDQ01+000002VOVAR 
0143829860999991994062312004-09400-038217FM-12+0252SBUF V0200901N00151045001CN0200001N1+02321+02131101551ADDAA124000591AG10004AY161061AY221061GF106991031071008001081001KA1240N+02081MA1999999098661MD1999999+0091MW1151REMSYN023 333 20208 58009 69954;
0096829860999991994062318004-09400-038217FM-12+0252SBUF V0200901N00311045001CN0500001N1+02801+02181101161ADDAA106000091AG10000GF105991021071004501061001MA1999999098291MD1999999+0061REMSYN011 333 58006;
0118829860999991994062418004-09400-038217FM-12+0252SBUF V0201401N00151007501CN0500001N1+02641+02091101131ADDAA106000091AG10000AY121061AY221061GF107991051071008001061001MA1999999098251MD1999999-0041MW1151REMSYN011 333 59004;
0137829860999991994062512004-09400-038217FM-12+0252SBUF V0201401N00051045001CN0200001N1+02381+02131101411ADDAA106000091AG10000AY121061AY221061GF106991031071008001081001KA1240N+02161MA1999999098541MD1999999-0031MW1151REMSYN017 333 20216 59003;
0150829860999991994062700004-09400-038217FM-12+0252SBUF V0200901N00151220001CN9999999N9+02441+02191101281ADDAA106000091AG10000GA1001+999999999GF100991001001999999001001KA1240M+02921MA1999999098411MD1999999-0031REMSYN017 333 10292 59003;EQDQ01+000002VOVAR 
0137829860999991994062712004-09400-038217FM-12+0252SBUF V0201401N00311045001CN0200001N1+02461+02171101591ADDAA106000091AG10000AY101061AY221061GF105991021071004501061001KA1240N+02201MA1999999098721MD1999999+0081MW1151REMSYN017 333 20220 58008;
0096829860999991994062718004-09400-038217FM-12+0252SBUF V0200901N00311045001CN0200001N1+02811+01871101371ADDAA106000091AG10000GF105991021011008001081001MA1999999098521MD1999999+0151REMSYN011 333 58015;
0143829860999991994062818004-09400-038217FM-12+0252SBUF V0201401N003619999999N0010001N1+02501+02191101401ADDAA106009091AG10004AY161061AY251061GF107991999999002501999999MA1999999098521MD1999999+0001MW1911REMSYN017 333 58000 60091;EQDQ01+000082SCOTLC
0162829860999991994063000004-09400-038217FM-12+0252SBUF V0200901N00211004201CN9999999N9+02261+02121101551ADDAA106001091AG10004AY161061AY221061GF107991051071004501081999KA1240M+02841MA1999999098661MD1999999-0011MW1031REMSYN023 333 10284 59001 69991;EQDQ01+000002VOVAR 
0143829860999991994063012004-09400-038217FM-12+0252SBUF V0200901N00151004201CN0040001N1+02211+02131101671ADDAA124001091AG10004AY161061AY251061GF107991051071004501081001KA1240N+02161MA1999999098771MD1999999-0011MW1031REMSYN023 333 20216 59001 60014;
0121829860999991994070100004-09400-038217FM-12+0252SBUF V0200901N00151045001CN0100001N1+02331+02051101641ADDAA124002091AG10000GF106991041021004501081001KA1240N+01911MA1999999098741MD1999999-0031REMSYN023 333 20191 59003 60024;
0096829860999991994070118004-09400-038217FM-12+0252SBUF V0200901N00311045001CN0500001N1+02761+01891101351ADDAA106000091AG10000GF105991021071004501061001MA1999999098471MD1999999-0041REMSYN011 333 59004;
0162829860999991994070500004-09400-038217FM-12+0252SBUF V0201801N00211004201CN9999999N9+02001+01971101771ADDAA106002091AG10004AY161061AY251061GF107991051071004501081001KA1240M+02791MA1999999098851MD1999999+0141MW1031REMSYN023 333 10279 58014 60021;EQDQ01+000002VOVAR 
0143829860999991994070512004-09400-038217FM-12+0252SBUF V0201401N00261220001CN0100001N1+02231+01961101741ADDAA124002091AG10004AY161061AY251061GF102991021011008001001001KA1240N+01891MA1999999098821MD1999999+0071MW1031REMSYN023 333 20189 58007 60024;
0115829860999991994070612004-09400-038217FM-12+0252SBUF V0200901N00261045001CN0040001N1+02281+02011101611ADDAA106000091AG10000GF107991041021004501081001KA1240N+01971MA1999999098711MD1999999-0111REMSYN017 333 20197 59011;
0134829860999991994070800004-09400-038217FM-12+0252SBUF V0201401N00311004201CN9999999N9+02301+02161101641ADDAA106000091AG10000GF107991051071004501081001KA1240M+02741MA1999999098741MD1999999+0171REMSYN017 333 10274 58017;EQDQ01+000002VOVAR 
0143829860999991994070812004-09400-038217FM-12+0252SBUF V0200901N00261004201CN0020001N1+02321+02161101761ADDAA124000591AG10004AY161061AY251061GF107991051071004501081001KA1240N+02131MA1999999098851MD1999999+0111MW1151REMSYN023 333 20213 58011 69954;
0162829860999991994070900004-09400-038217FM-12+0252SBUF V0200901N00261220001CN9999999N9+02181+02101101791ADDAA106001091AG10004AY161061AY251061GF103991011011008001081001KA1240M+02521MA1999999098881MD1999999+0141MW1031REMSYN023 333 10252 58014 60011;EQDQ01+000002VOVAR 
0121829860999991994070912004-09400-038217FM-12+0252SBUF V0200401N00151045001CN0200001N1+02221+01921101781ADDAA124003091AG10000GF105991021011004501061001KA1240N+01821MA1999999098861MD1999999+0011REMSYN023 333 20182 58001 60034;
0137829860999991994071012004-09400-038217FM-12+0252SBUF V0200901N00311004201CN0100001N1+01981+01951101721ADDAA106000091AG10000AY121061AY221061GF107991051071004501081001KA1240N+01861MA1999999098801MD1999999-0061MW1101REMSYN017 333 20186 59006;
0096829860999991994071018004-09400-038217FM-12+0252SBUF V0200901N00511045001CN0500001N1+02741+02001101651ADDAA106000091AG10000GF106991031071012501081001MA1999999098761MD1999999+0151REMSYN011 333 58015;
0143829860999991994071212004-09400-038217FM-12+0252SBUF V0201401N00361004201CN0020001N1+02181+02081102021ADDAA124002091AG10004AY161061AY251061GF107991051071004501081001KA1240N+02001MA1999999099111MD1999999-0071MW1031REMSYN023 333 20200 59007 60024;
0124829860999991994071218004-09400-038217FM-12+0252SBUF V0200901N00311006001CN0010001N1+02341+02151101761ADDAA106002091AG10004AY161061AY251061GF108991081081002501999999MA1999999098841MD1999999-0091MW1921REMSYN017 333 59009 60021;
0162829860999991994071300004-09400-038217FM-12+0252SBUF V0201401N00151006001CN9999999N9+02081+02051102011ADDAA106005091AG10004AY161061AY261061GF108991081081002501999999KA1240M+02501MA1999999099091MD1999999+0041MW1911REMSYN023 333 10250 58004 60051;EQDQ01+000002VOVAR 
0143829860999991994071312004-09400-038217FM-12+0252SBUF V0201401N00261004201CN0020001N1+02131+01971101991ADDAA124008091AG10004AY161061AY251061GF107991051071004501081001KA1240N+01941MA1999999099071MD1999999-0041MW1031REMSYN023 333 20194 59004 60084;
0096829860999991994071318004-09400-038217FM-12+0252SBUF V0200501N00311045001CN0500001N1+02661+01791101641ADDAA106000091AG10000GF105991021071008001061001MA1999999098751MD1999999-0091REMSYN011 333 59009;
0150829860999991994071400004-09400-038217FM-12+0252SBUF V0200901N00311220001CN9999999N9+02161+01921101781ADDAA106000091AG10000GA1001+999999999GF100991001001999999001001KA1240M+02701MA1999999098871MD1999999+0031REMSYN017 333 10270 58003;EQDQ01+000002VOVAR 
0115829860999991994071412004-09400-038217FM-12+0252SBUF V0200901N00211045001CN0100001N1+02191+01971101861ADDAA106000091AG10000GF106991031011008001081001KA1240N+01911MA1999999098951MD1999999-0121REMSYN017 333 20191 59012;
0124829860999991994071418004-09400-038217FM-12+0252SBUF V0201401N00511006001CN0020001N1+02421+02171101651ADDAA106002091AG10004AY161061AY251061GF108991081081002501999999MA1999999098751MD1999999+0001MW1911REMSYN017 333 58000 60021;
0118829860999991994071518004-09400-038217FM-12+0252SBUF V0201601N00311007501CN0200001N1+02461+02071101641ADDAA106000091AG10000AY121061AY221061GF107991051071008001081001MA1999999098741MD1999999-0011MW1151REMSYN011 333 59001;
0069829860999991994071606004-09400-038217FM-12+0252SBUF V0209991C000519999999N0010001N1+99999+99999999999ADDAG10000GF108991999999000251999999KA1999N+01741REMSYN011 333 20174;
0121829860999991994071612004-09400-038217FM-12+0252SBUF V0201401N00211007501CN0200001N1+02261+01931101881ADDAA124000591AG10000GF107991051071008001081001KA1240N+02001MA1999999098971MD1999999-0021REMSYN023 333 20200 59002 69944;
0096829860999991994071618004-09400-038217FM-12+0252SBUF V0200901N00461220001CN0200001N1+02681+01921101631ADDAA106000091AG10000GF103991021011008001061001MA1999999098741MD1999999+0001REMSYN011 333 58000;
0150829860999991994071700004-09400-038217FM-12+0252SBUF V0201401N00311220001CN9999999N9+02161+01821101901ADDAA106000091AG10000GA1001+999999999GF100991001001999999001001KA1240M+02761MA1999999098991MD1999999+0021REMSYN017 333 10276 58002;EQDQ01+000002VOVAR 
0115829860999991994071712004-09400-038217FM-12+0252SBUF V0200901N00311004201CN0040001N1+02241+02051101871ADDAA106000091AG10000GF107991051071004501081001KA1240N+01851MA1999999098961MD1999999-0011REMSYN017 333 20185 59001;
0134829860999991994071800004-09400-038217FM-12+0252SBUF V0200901N00151045001CN9999999N9+02161+01971101801ADDAA106000091AG10000GF106991041021004501081001KA1240M+02741MA1999999098881MD1999999-0111REMSYN017 333 10274 59011;EQDQ01+000002VOVAR 
0121829860999991994071812004-09400-038217FM-12+0252SBUF V0201401N00311006001CN0020001N1+02161+01971101791ADDAA124000191AG10000GF108991081081002501999999KA1240N+01941MA1999999098871MD1999999-0091REMSYN023 333 20194 59009 69914;
0096829860999991994071818004-09400-038217FM-12+0252SBUF V0200901N00311045001CN0200001N1+02721+01931101481ADDAA106000091AG10000GF106991031011008001081001MA1999999098591MD1999999-0031REMSYN011 333 59003;
0162829860999991994071900004-09400-038217FM-12+0252SBUF V0200901N00311006001CN9999999N9+02141+02061101801ADDAA106000191AG10004AY161061AY251061GF108991081081002501999999KA1240M+02771MA1999999098881MD1999999+0001MW1031REMSYN023 333 10277 58000 69911;EQDQ01+000002VOVAR 
0143829860999991994071912004-09400-038217FM-12+0252SBUF V0200901N00211045001CN0040001N1+02151+01991101841ADDAA124000591AG10004AY161061AY251061GF107991041071004501081011KA1240N+01951MA1999999098921MD1999999+0051MW1031REMSYN023 333 20195 58005 69964;
0118829860999991994071918004-09400-038217FM-12+0252SBUF V0201401N00311007501CN0200001N1+02601+01961101591ADDAA106000091AG10000AY121061AY221061GF107991051071008001081001MA1999999098691MD1999999+0101MW1151REMSYN011 333 58010;
0134829860999991994072000004-09400-038217FM-12+0252SBUF V0200901N00261004201CN9999999N9+02241+02121101761ADDAA106000091AG10000GF107991051071004501081011KA1240M+02681MA1999999098841MD1999999-0041REMSYN017 333 10268 59004;EQDQ01+000002VOVAR 
0115829860999991994072012004-09400-038217FM-12+0252SBUF V0200901N00311045001CN0040001N1+02361+02051101831ADDAA106000091AG10000GF106991041021004501081011KA1240N+02041MA1999999098931MD1999999+0011REMSYN017 333 20204 58001;
0115829860999991994072018004-09400-038217FM-12+0252SBUF V0200901N003119999999N0500001N1+02721+01901101381ADDAA106000091AG10000GF105991999071008001061001MA1999999098511MD1999999-0181REMSYN011 333 59018;EQDQ01+000072SCOTLC
0134829860999991994072100004-09400-038217FM-12+0252SBUF V0201401N00311004201CN9999999N9+02201+02061101681ADDAA106000091AG10000GF107991051071004501081001KA1240M+02781MA1999999098791MD1999999-0051REMSYN017 333 10278 59005;EQDQ01+000002VOVAR 
0115829860999991994072112004-09400-038217FM-12+0252SBUF V0200901N00151045001CN0040001N1+02081+01931101781ADDAA106000091AG10000GF106991031011008001081011KA1240N+01861MA1999999098861MD1999999-0071REMSYN017 333 20186 59007;
0096829860999991994072118004-09400-038217FM-12+0252SBUF V0200901N00311105001CN0500001N1+02721+01881101391ADDAA106000091AG10000GF105991021071004501061011MA1999999098511MD1999999+0001REMSYN011 333 58000;
0150829860999991994072200004-09400-038217FM-12+0252SBUF V0200901N00261220001CN9999999N9+02221+01971101691ADDAA106000091AG10000GA1001+999999999GF100991001001999999001001KA1240M+02781MA1999999098781MD1999999-0011REMSYN017 333 10278 59001;EQDQ01+000002VOVAR 
0115829860999991994072212004-09400-038217FM-12+0252SBUF V0200901N00311045001CN0040001N1+02261+02051101751ADDAA106000091AG10000GF106991031011008001081011KA1240N+02031MA1999999098841MD1999999-0021REMSYN017 333 20203 59002;
0096829860999991994072218004-09400-038217FM-12+0252SBUF V0200901N00311045001CN0500001N1+02601+01821101511ADDAA106000091AG10000GF106991031071012501081001MA1999999098621MD1999999+0111REMSYN011 333 58011;
0137829860999991994072312004-09400-038217FM-12+0252SBUF V0200901N00211045001CN0200001N1+02261+01991101791ADDAA106000091AG10000AY101061AY221061GF106991031071008001081001KA1240N+01941MA1999999098871MD1999999+0031MW1151REMSYN017 333 20194 58003;
0124829860999991994072318004-09400-038217FM-12+0252SBUF V0200901N00411004201CN0100001N1+02621+02071101671ADDAA106000191AG10004AY161061AY251061GF107991051071004501081001MA1999999098671MD1999999+0051MW1151REMSYN017 333 58005 69911;
0121829860999991994072412004-09400-038217FM-12+0252SBUF V0200901N00261045001CN0040001N1+02291+02071101751ADDAA124006091AG10000GF106991041021004501081001KA1240N+02041MA1999999098841MD1999999-0031REMSYN023 333 20204 59003 60064;
0118829860999991994072418004-09400-038217FM-12+0252SBUF V0200901N00511045001CN0500001N1+02701+01991101391ADDAA106000091AG10000AY121061AY221061GF106991031071008001081001MA1999999098511MD1999999-0161MW1151REMSYN011 333 59016;
0115829860999991994072512004-09400-038217FM-12+0252SBUF V0200901N00311045001CN0100001N1+02291+02031101791ADDAA106000091AG10000GF106991041021004501081001KA1240N+02001MA1999999098881MD1999999+0041REMSYN017 333 20200 58004;
0124829860999991994072518004-09400-038217FM-12+0252SBUF V0201401N00311004201CN0040001N1+02361+02171101541ADDAA106001091AG10004AY161061AY251061GF107991051071004501081001MA1999999098641MD1999999+0131MW1031REMSYN017 333 58013 69971;
0162829860999991994072600004-09400-038217FM-12+0252SBUF V0200901N00211006001CN9999999N9+02181+02081101661ADDAA106000191AG10004AY161061AY261061GF108991081081002501999999KA1240M+02641MA1999999098761MD1999999-0041MW1911REMSYN023 333 10264 59004 69911;EQDQ01+000002VOVAR 
0128829860999991994072612004-09400-038217FM-12+0252SBUF V0200901N00361045001CN0100001N1+02231+01941101801ADDAA124001091AG10004AY161061AY251061GF106991041021004501081001KA1240N+01841MD1999999+0001MW1031REMSYN023 333 20184 58000 60014;
0118829860999991994072618004-09400-038217FM-12+0252SBUF V0200901N00311009001CN0500001N1+02541+01881101531ADDAA106000091AG10000AY121061AY221061GF108991081081004501999999MA1999999098631MD1999999-0011MW1151REMSYN011 333 59001;
0162829860999991994072700004-09400-038217FM-12+0252SBUF V0200901N00151004201CN9999999N9+02121+02021101641ADDAA106999929AG10004AY161061AY221061GF107991051071004501081999KA1240M+02701MA1999999098741MD1999999-0021MW1031REMSYN023 333 10270 59002 69901;EQDQ01+000002VOVAR 
0143829860999991994072712004-09400-038217FM-12+0252SBUF V0200901N00211004201CN0040001N1+02121+02091101821ADDAA124000191AG10004AY161061AY251061GF107991051071004501081011KA1240N+01921MA1999999098901MD1999999+0021MW1031REMSYN023 333 20192 58002 69914;
0124829860999991994072718004-09400-038217FM-12+0252SBUF V0200901N00311009001CN0200001N1+02481+02151999999ADDAA106000391AG10004AY161061AY221061GF108991081081004501999999MA1999999098641MD1999999+0011MW1501REMSYN017 333 58001 69931;
0162829860999991994072800004-09400-038217FM-12+0252SBUF V0201401N00361009001CN9999999N9+02101+02051101811ADDAA106004091AG10004AY161061AY251061GF108991081081004501999999KA1240M+02701MA1999999098891MD1999999+0151MW1911REMSYN023 333 10270 58015 60041;EQDQ01+000002VOVAR 
0143829860999991994072812004-09400-038217FM-12+0252SBUF V0200901N00311006001CN0010001N1+02121+02051101751ADDAA124004091AG10004AY161061AY251061GF108991081081002501999999KA1240N+02001MA1999999098831MD1999999-0071MW1631REMSYN023 333 20200 59007 60044;
0128829860999991994072818004-09400-038217FM-12+0252SBUF V0201401N00311007501CN0500001N1+02401+01991101651ADDAA106002091AG10004AY161061AY251061GF107991051071008001081001MD1999999+0111MW1151REMSYN017 333 58011 60021;EQDQ01+099753APOSP 
0162829860999991994072900004-09400-038217FM-12+0252SBUF V0200901N00151045001CN9999999N9+02141+02001101811ADDAA106002091AG10004AY161061AY221061GF106991031071004501081999KA1240M+02461MA1999999098891MD1999999+0001MW1031REMSYN023 333 10246 58000 60021;EQDQ01+000002VOVAR 
0143829860999991994072912004-09400-038217FM-12+0252SBUF V0200901N00311009001CN0010001N1+02101+02051101901ADDAA124007091AG10004AY161061AY261061GF108991081081004501999999KA1240N+01941MA1999999098981MD1999999+0151MW1911REMSYN023 333 20194 58015 60074;
0124829860999991994072918004-09400-038217FM-12+0252SBUF V0201401N00211045001CN0500001N1+02621+01781101611ADDAA106000191AG10004AY161061AY221061GF106991031071008001081001MA1999999098721MD1999999-0031MW1151REMSYN017 333 59003 69911;
0150829860999991994073000004-09400-038217FM-12+0252SBUF V0201401N00461220001CN9999999N9+02121+01741101791ADDAA106000091AG10000GA1001+999999999GF100991001001999999001001KA1240M+02701MA1999999098871MD1999999-0021REMSYN017 333 10270 59002;EQDQ01+000002VOVAR 
0121829860999991994073012004-09400-038217FM-12+0252SBUF V0201401N00211045001CN0200001N1+02281+01921101871ADDAA124000191AG10000GF106991031071008001081001KA1240N+01861MA1999999098961MD1999999-0021REMSYN023 333 20186 59002 69914;
0096829860999991994073018004-09400-038217FM-12+0252SBUF V0200901N00311220001CN0200001N1+02731+01791101611ADDAA106000091AG10000GF103991021011008001061001MA1999999098711MD1999999-0011REMSYN011 333 59001;
0134829860999991994073100004-09400-038217FM-12+0252SBUF V0200901N00311045001CN9999999N9+02221+01821101781ADDAA106000091AG10000GF106991031071004501081001KA1240M+02781MA1999999098871MD1999999+0001REMSYN017 333 10278 58000;EQDQ01+000002VOVAR 
0132829860999991994073112004-09400-038217FM-12+0252SBUF V0201401N00211006001CN0002001N1+02011+01981101861ADDAG10004AY161061AY261061GF108991081081001501999999KA1240N+01981MA1999999098941MD1999999-0021MW1911REMSYN023 333 20198 59002 50034;
0124829860999991994073118004-09400-038217FM-12+0252SBUF V0201401N00361004201CN0040001N1+02341+01911101701ADDAA106001091AG10004AY161061AY251061GF107991051071004501081001MA1999999098791MD1999999+0081MW1031REMSYN017 333 58008 69981;
0162829860999991994080100004-09400-038217FM-12+0252SBUF V0201401N00151004201CN9999999N9+02001+01921101851ADDAA106000591AG10005AY161061AY251061GF107991051071004501081001KA1240M+02371MA1999999098931MD1999999+0061MW1031REMSYN023 333 10237 58006 69941;EQDQ01+000002VOVAR 
0143829860999991994080112004-09400-038217FM-12+0252SBUF V0200901N00261045001CN0040001N1+02041+01891101951ADDAA124001091AG10005AY161061AY251061GF106991031021004501081011KA1240N+01711MA1999999099021MD1999999+0081MW1031REMSYN023 333 20171 58008 60014;
0150829860999991994080200004-09400-038217FM-12+0252SBUF V0200901N00151220001CN9999999N9+02071+02011101741ADDAA106000091AG10000GA1001+999999999GF100991001001999999001001KA1240M+02671MA1999999098821MD1999999-0111REMSYN017 333 10267 59011;EQDQ01+000002VOVAR 
0143829860999991994080212004-09400-038217FM-12+0252SBUF V0200901N00211045001CN0040001N1+02081+02031101951ADDAA124000191AG10005AY161061AY251061GF106991041021004501081011KA1240N+01781MA1999999099031MD1999999+0011MW1031REMSYN023 333 20178 58001 69924;
0118829860999991994080218004-09400-038217FM-12+0252SBUF V0200901N00311045001CN0500001N1+02701+01781101511ADDAA106000091AG10000AY121061AY221061GF105991021071008001061001MA1999999098611MD1999999-0111MW1151REMSYN011 333 59011;
0150829860999991994080300004-09400-038217FM-12+0252SBUF V0200901N00151220001CN9999999N9+02061+01801101751ADDAA106000091AG10000GA1001+999999999GF100991001001999999001001KA1240M+02741MA1999999098831MD1999999+0011REMSYN017 333 10274 58001;EQDQ01+000002VOVAR 
0115829860999991994080312004-09400-038217FM-12+0252SBUF V0200901N00151004201CN0040001N1+02061+01941101871ADDAA106000091AG10000GF107991051071004501081001KA1240N+01811MA1999999098951MD1999999-0081REMSYN017 333 20181 59008;
0096829860999991994080318004-09400-038217FM-12+0252SBUF V0201401N00361220001CN0500001N1+02741+01671101471ADDAA106000091AG10000GF105991021071008001061091MA1999999098591MD1999999-0021REMSYN011 333 59002;
0150829860999991994080400004-09400-038217FM-12+0252SBUF V0200901N00151220001CN9999999N9+02161+02021101671ADDAA106000091AG10000GA1001+999999999GF100991001001999999001001KA1240M+02781MA1999999098761MD1999999-0071REMSYN017 333 10278 59007;EQDQ01+000002VOVAR 
0115829860999991994080412004-09400-038217FM-12+0252SBUF V0200901N00151009001CN0020001N1+02041+01921101851ADDAA106000091AG10000GF108991081081004501999999KA1240N+01791MA1999999098921MD1999999-0021REMSYN017 333 20179 59002;
0096829860999991994080418004-09400-038217FM-12+0252SBUF V0200901N00311045001CN0500001N1+02761+01721101481ADDAA106000091AG10000GF105991021071008001061001MA1999999098591MD1999999+0001REMSYN011 333 58000;
0115829860999991994080512004-09400-038217FM-12+0252SBUF V0200901N00311045001CN0040001N1+02241+01941101871ADDAA106000091AG10000GF106991041021004501081001KA1240N+02051MA1999999098961MD1999999+0031REMSYN017 333 20205 58003;
0096829860999991994080518004-09400-038217FM-12+0252SBUF V0200901N00151045001CN0009001N1+02841+01791101531ADDAA106000091AG10000GF105991021071008001061001MA1999999098651MD1999999+0061REMSYN011 333 58006;
0150829860999991994080600004-09400-038217FM-12+0252SBUF V0200901N00361220001CN9999999N9+02211+01841101771ADDAA106000091AG10000GA1001+999999999GF100991001001999999001001KA1240M+02881MA1999999098861MD1999999+0101REMSYN017 333 10288 58010;EQDQ01+000002VOVAR 
0143829860999991994080612004-09400-038217FM-12+0252SBUF V0200901N00311006001CN0040001N1+02261+01901101871ADDAA124000191AG10000AY101061AY221061GF108991081081002501999999KA1240N+01901MA1999999098891MD1999999-0071MW1911REMSYN023 333 20190 59007 69914;
0134829860999991994080700004-09400-038217FM-12+0252SBUF V0200901N00211045001CN9999999N9+02061+01841101741ADDAA106000091AG10000GF106991031011008001081001KA1240M+02611MA1999999098821MD1999999-0041REMSYN017 333 10261 59004;EQDQ01+000002VOVAR 
0143829860999991994080712004-09400-038217FM-12+0252SBUF V0200901N00311009001CN0100001N1+02041+01971101751ADDAA124000191AG10005AY161061AY251061GF108991081081004501999999KA1240N+01881MA1999999098831MD1999999-0051MW1101REMSYN023 333 20188 59005 69914;
0118829860999991994080718004-09400-038217FM-12+0252SBUF V0200901N00311004201CN0500001N1+02601+01941101401ADDAA106000091AG10000AY121061AY221061GF107991051071004501081001MA1999999098511MD1999999-0121MW1151REMSYN011 333 59012;
0143829860999991994080812004-09400-038217FM-12+0252SBUF V0201401N00261045001CN0100001N1+02221+01971101771ADDAA124000591AG10005AY161061AY251061GF106991041021004501081011KA1240N+01931MA1999999098851MD1999999+0021MW1031REMSYN023 333 20193 58002 69944;
0118829860999991994080818004-09400-038217FM-12+0252SBUF V0200901N00151045001CN0500001N1+02201+01801101451ADDAA106000091AG10000AY121061AY221061GF106991031071012501081001MA1999999098571MD1999999+0061MW1151REMSYN011 333 58006;
0150829860999991994080900004-09400-038217FM-12+0252SBUF V0201401N00311045001CN9999999N9+02121+01981101761ADDAA106000091AG10000GF106991031071004501081999KA1240M+02781MA1999999098831MD1999999+0071REMSYN017 333 10278 58007;EQDQ01+999990APOSP Q02+000002VOVAR 
0115829860999991994080912004-09400-038217FM-12+0252SBUF V0200901N00311045001CN0040001N1+02201+01921101851ADDAA106000091AG10000GF106991031021004501081011KA1240N+01921MA1999999098931MD1999999+0081REMSYN017 333 20192 58008;
0118829860999991994080918004-09400-038217FM-12+0252SBUF V0200901N00311045001CN0500001N1+02801+01751101461ADDAA106000091AG10000AY121061AY221061GF106991031071008001081001MA1999999098581MD1999999+0011MW1151REMSYN011 333 58001;
0134829860999991994081000004-09400-038217FM-12+0252SBUF V0201401N00311004201CN9999999N9+02181+01941101791ADDAA106000091AG10000GF107991051071004501061999KA1240M+02861MA1999999098871MD1999999+0031REMSYN017 333 10286 58003;EQDQ01+000002VOVAR 
0115829860999991994081012004-09400-038217FM-12+0252SBUF V0200901N002610450019N0040001N1+02221+99999101881ADDAA106000091AG10000GF107991041021004501081001KA1240N+01841MA1999999098971MD1999999+0041REMSYN017 333 20184 58004;
0118829860999991994081018004-09400-038217FM-12+0252SBUF V0200901N00211045001CN0500001N1+02701+01881101591ADDAA106000091AG10000AY121061AY221061GF106991031071008001081001MA1999999098691MD1999999+0111MW1151REMSYN011 333 58011;
0115829860999991994081112004-09400-038217FM-12+0252SBUF V0201401N00261004201CN0040001N1+02061+01931101791ADDAA106000091AG10000GF107991051071004501081001KA1240N+01831MA1999999098871MD1999999-0101REMSYN017 333 20183 59010;
0118829860999991994081118004-09400-038217FM-12+0252SBUF V0200901N00211045001CN0500001N1+02761+01891101391ADDAA106000091AG10000AY121061AY221061GF106991031071008001081001MA1999999098511MD1999999-0181MW1151REMSYN011 333 59018;
0115829860999991994081212004-09400-038217FM-12+0252SBUF V0201401N00261045001CN0040001N1+02251+01961101801ADDAA106000091AG10000GF106991041021004501081001KA1240N+01901MA1999999098891MD1999999+0021REMSYN017 333 20190 58002;
0118829860999991994081218004-09400-038217FM-12+0252SBUF V0201401N00311007501CN0500001N1+02761+01891101571ADDAA106000091AG10000AY121061AY221061GF107991051071008001081001MA1999999098681MD1999999+0171MW1151REMSYN011 333 58017;
0124829860999991994081318004-09400-038217FM-12+0252SBUF V0201401N00361045001CN0200001N1+02691+01781101601ADDAA106000591AG10005AY161061AY251061GF106991041021004501081001MA1999999098711MD1999999+0031MW1031REMSYN017 333 58003 69941;
