0136829940999991994010100004-09667-035700FM-12+008999999V0200901N00151045001CN9999999N9+02431+02001101101ADDAA106000091AG10000AY101061AY201061GF105991021011012501061001KA1240M+03201MA1999999100471MD1999999+0081MW1021REMSYN016 333 10320 58008
0136829940999991994010112004-09667-035700FM-12+008999999V0201801N00311045001CN0500001N9+02751+02101101521ADDAA106000091AG10000AY111061AY211061GF106991021021017501061001KA1240N+02101MA1999999100511MD1999999+0041MW1021REMSYN016 333 20210 58004
0117829940999991994010118004-09667-035700FM-12+008999999V0201801N00361045001CN0500001N9+02881+01901101271ADDAA106000091AG10000AY101061AY201061GF105991021021017501041001MA1999999100261MD1999999+0001MW1011REMSYN010 333 58000
0136829940999991994010200004-09667-035700FM-12+008999999V0200901N00101045001CN9999999N9+02341+02101101361ADDAA106000091AG10000AY111061AY221061GF106991021031017501041001KA1240M+03101MA1999999100331MD1999999-0141MW1021REMSYN016 333 10310 59014
0142829940999991994010212004-09667-035700FM-12+008999999V0201401N00211045001CN0500001N9+02721+02101101341ADDAA124002091AG10019AY191061AY211061GF106991021021017501061001KA1240N+02071MA1999999100331MD1999999-0181MW1031REMSYN022 333 20207 59018 60024
0117829940999991994010218004-09667-035700FM-12+008999999V0200901N00571220001CN0500001N9+02851+01901101101ADDAA106000091AG10000AY101061AY201061GF104991021001017501041041MA1999999100091MD1999999-0151MW1021REMSYN010 333 59015
0136829940999991994010300004-09667-035700FM-12+008999999V0200501N00151045001CN9999999N9+02381+02001101181ADDAA106000091AG10000AY101061AY211061GF106991021021017501061001KA1240M+03081MA1999999100151MD1999999-0181MW1021REMSYN016 333 10308 59018
0136829940999991994010312004-09667-035700FM-12+008999999V0200901N00571045001CN0500001N9+02781+02101101341ADDAA106000091AG10000AY101061AY211061GF106991041011017501061011KA1240N+02201MA1999999100331MD1999999+0001MW1021REMSYN016 333 20220 58000
0117829940999991994010318004-09667-035700FM-12+008999999V0201401N00461045001CN0500001N9+02871+02001100991ADDAA106000091AG10000AY111061AY211061GF106991021021017501041001MA1999999099981MD1999999-0111MW1021REMSYN010 333 59011
0136829940999991994010400004-09667-035700FM-12+008999999V0200901N00211220001CN9999999N9+02411+02101101231ADDAA106000091AG10000AY101061AY211061GF105991021001017501041041KA1240M+03141MA1999999100201MD1999999+0051MW1021REMSYN016 333 10314 58005
0142829940999991994010412004-09667-035700FM-12+008999999V0203601N00511045001CN0200001N9+02811+02201101431ADDAA124001091AG10019AY191061AY211061GF107991041021012501061001KA1240N+02241MA1999999100421MD1999999+0091MW1031REMSYN022 333 20224 58009 60014
0117829940999991994010418004-09667-035700FM-12+008999999V0200901N00571045001CN0500001N9+02901+02201101111ADDAA106000091AG10000AY111061AY211061GF106991041011012501041001MA1999999100101MD1999999+0021MW1021REMSYN010 333 58002
0142829940999991994010512004-09667-035700FM-12+008999999V0200901N00211045001CN0200001N9+02661+02001101381ADDAA124005091AG10019AY191061AY211061GF107991031031008001061001KA1240N+02001MA1999999100361MD1999999-0061MW1031REMSYN022 333 20200 59006 60054
0117829940999991994010518004-09667-035700FM-12+008999999V0200901N00461045001CN0500001N9+02901+02101101121ADDAA106000091AG10000AY101061AY221061GF106991021031012501061001MA1999999100121MD1999999+0021MW1031REMSYN010 333 58002
0142829940999991994010612004-09667-035700FM-12+008999999V0201801N00361045001CN0100001N9+02401+01901101461ADDAA124011091AG10019AY191061AY261061GF107991041071012501021001KA1240N+02071MA1999999100431MD1999999+0071MW1211REMSYN022 333 20207 58007 60114
0136829940999991994010700004-09667-035700FM-12+008999999V0200901N00101012001CN9999999N9+02301+02101101321ADDAA106000091AG10000AY101061AY221061GF105991051021012501001001KA1240M+02751MA1999999100301MD1999999+0011MW1031REMSYN016 333 10275 58001
0142829940999991994010712004-09667-035700FM-12+008999999V0200901N00211045001CN0500001N9+02681+02101101341ADDAA124019091AG13000AY121061AY221061GF106991021031008001061001KA1240N+02101MA1999999100321MD1999999-0111MW1031REMSYN022 333 20210 59011 60194
0136829940999991994010800004-09667-035700FM-12+008999999V0200901N00101045001CN9999999N9+02321+02001101311ADDAA106000091AG10000AY101061AY221061GF106991031031012501061001KA1240M+02931MA1999999100291MD1999999-0011MW1031REMSYN016 333 10293 59001
0136829940999991994010812004-09667-035700FM-12+008999999V0201401N00211007501CN0500001N9+02681+01901101341ADDAA106000091AG10000AY101061AY221061GF105991051021008001001001KA1240N+02191MA1999999100321MD1999999+0001MW1031REMSYN016 333 20219 58000
0117829940999991994010818004-09667-035700FM-12+008999999V0200901N00511220001CN0500001N9+02891+02001101161ADDAA106000091AG10000AY101061AY221061GF104991041021012501001001MA1999999100151MD1999999-0021MW1031REMSYN010 333 59002
0142829940999991994010912004-09667-035700FM-12+008999999V0200901N00211045001CN0500001N9+02661+02101101401ADDAA124001091AG10019AY191061AY211061GF106991031031008001061001KA1240N+02101MA1999999100381MD1999999+0061MW1031REMSYN022 333 20210 58006 60014
0136829940999991994011004004-09667-035700FM-12+008999999V0201401N00151012001CN9999999N9+02501+02101101381ADDAA106000091AG10999AY101021AY221021GF105991051021012501001001KA1240M+02941MA1999999100361MD1999999+0081MW1031REMSYN016 333 10294 58008
0136829940999991994011012004-09667-035700FM-12+008999999V0200901N00211012001CN0500001N9+02701+01901101341ADDAA106000091AG10000AY101061AY221061GF105991051021012501001001KA1240N+02131MA1999999100321MD1999999-0061MW1031REMSYN016 333 20213 59006
0117829940999991994011018004-09667-035700FM-12+008999999V0200901N00511220001CN0500001N9+02941+02001101171ADDAA106000091AG10000AY101061AY201061GF103991031011008001001001MA1999999100161MD1999999-0101MW1111REMSYN010 333 59010
0136829940999991994011100004-09667-035700FM-12+008999999V0200501N00101045001CN9999999N9+02521+02101101301ADDAA106000091AG10000AY101061AY221061GF106991021021008001041001KA1240M+03101MA1999999100281MD1999999-0081MW1031REMSYN016 333 10310 59008
0136829940999991994011112004-09667-035700FM-12+008999999V0201801N00211045001CN0500001N9+02731+02001101381ADDAA106000091AG10000AY101061AY221061GF106991021021008001041001KA1240N+02191MA1999999100361MD1999999+0041MW1031REMSYN016 333 20219 58004
0136829940999991994011212004-09667-035700FM-12+008999999V0201401N00311220001CN0500001N9+02731+02001101301ADDAA106000091AG10000AY101061AY221061GF104991041021008001001001KA1240N+02161MA1999999100281MD1999999-0081MW1031REMSYN016 333 20216 59008
0117829940999991994011218004-09667-035700FM-12+008999999V0200901N00571220001CN0500001N9+02951+02001101141ADDAA106000091AG10000AY101061AY201061GF103991031011008001001001MA1999999100131MD1999999-0071MW1011REMSYN010 333 59007
0136829940999991994011300004-09667-035700FM-12+008999999V0200901N00211012001CN9999999N9+02561+02201101291ADDAA106000091AG10000AY101061AY221061GF105991051021012501001001KA1240M+03201MA1999999100271MD1999999-0041MW1031REMSYN016 333 10320 59004
0136829940999991994011312004-09667-035700FM-12+008999999V0201401N00101045001CN0500001N9+02701+02001101391ADDAA106000091AG10000AY101061AY221061GF106991021031012501061001KA1240N+02161MA1999999100371MD1999999+0091MW1031REMSYN016 333 20216 58009
0117829940999991994011318004-09667-035700FM-12+008999999V0200901N00461220001CN0500001N9+02961+02101101081ADDAA106000091AG10000AY101061AY211061GF104991041021012501001001MA1999999100081MD1999999-0041MW1031REMSYN010 333 59004
0155829940999991994011400004-09667-035700FM-12+008999999V0200901N000519999999N9999999N9+02591+02001101251ADDAA106000091AG10000AY101061AY221061GF105991999021008001001001KA1240M+03281MA1999999100231MD1999999-0041MW1031REMSYN016 333 10328 59004EQDQ01+000022SCOTLC
0136829940999991994011412004-09667-035700FM-12+008999999V0200501N00411045001CN0500001N9+02701+01901101311ADDAA106000091AG10000AY101061AY221061GF106991021021012501061001KA1240N+02191MA1999999100291MD1999999-0081MW1031REMSYN016 333 20219 59008
0117829940999991994011418004-09667-035700FM-12+008999999V0201401N00571220001CN0200001N9+02901+99999101141ADDAA106000091AG10000AY101061AY201061GF102991021011012501001001MA1999999100131MD1999999+0051MW1011REMSYN010 333 58005
0117829940999991994011512004-09667-035700FM-12+008999999V0200901N00361045001CN0500001N9+02731+02001101341ADDAA106000091AG10000AY101061AY221061GF106991021031008001061001MA1999999100321MD1999999+0031MW1031REMSYN010 333 58003
0117829940999991994011518004-09667-035700FM-12+008999999V0201801N00571220001CN0500001N9+02891+02001101261ADDAA106000091AG10000AY101061AY201061GF103991031011012501001001MA1999999100251MD1999999+0121MW1011REMSYN010 333 58012
0136829940999991994011612004-09667-035700FM-12+008999999V0201801N00211012001CN0500001N9+02751+02001101381ADDAA106000091AG10000AY101061AY221061GF105991051031012501001001KA1240N+02151MA1999999100361MD1999999+0041MW1031REMSYN016 333 20215 58004
0117829940999991994011618004-09667-035700FM-12+008999999V0200901N00461220001CN0500001N9+02921+02001101211ADDAA106000091AG10000AY101061AY201061GF103991031011008001001001MA1999999100501MD1999999-0051MW1011REMSYN010 333 59005
0117829940999991994011718004-09667-035700FM-12+008999999V0200901N00461220001CN0500001N9+02901+02201101151ADDAA106000091AG10000AY101061AY201061GF103991031011012501001001MA1999999100411MD1999999-0061MW1011REMSYN010 333 59006
0136829940999991994011800004-09667-035700FM-12+008999999V0200901N00151220001CN9999999N9+02571+02001101291ADDAA106000091AG10000AY101061AY221061GF104991041021012501001001KA1240M+03231MA1999999100271MD1999999+0001MW1031REMSYN016 333 10323 58000
0136829940999991994011812004-09667-035700FM-12+008999999V0201401N00261220001CN0500001N9+02721+02001101291ADDAA106000091AG10000AY101061AY211061GF104991041011012501001001KA1240N+02181MA1999999100271MD1999999-0051MW1031REMSYN016 333 20218 59005
0117829940999991994011818004-09667-035700FM-12+008999999V0200901N00461220001CN0500001N9+02931+02201101051ADDAA106000091AG10000AY101061AY201061GF103991031021008001001001MA1999999100051MD1999999-0091MW1011REMSYN010 333 59009
0136829940999991994011900004-09667-035700FM-12+008999999V0200901N00211045001CN9999999N9+02421+02101101301ADDAA106000091AG10000AY101061AY221061GF106991031021008001041001KA1240M+03291MA1999999100281MD1999999-0081MW1031REMSYN016 333 10329 59008
0136829940999991994011912004-09667-035700FM-12+008999999V0200901N00571045001CN0200001N9+02671+02001101371ADDAA106000091AG10000AY101061AY221061GF106991031031008001061001KA1240N+02101MA1999999100351MD1999999+0081MW1031REMSYN016 333 20210 58008
0117829940999991994012018004-09667-035700FM-12+008999999V0200901N00511220001CN0500001N9+02891+02001101171ADDAA106000091AG10000AY101061AY201061GF103991031011008001001001MA1999999100161MD1999999-0021MW1011REMSYN010 333 59002
0136829940999991994012412004-09667-035700FM-12+008999999V0200901N00211045001CN0500001N9+02801+02001101431ADDAA106000091AG10000AY101061AY221061GF106991021031012501061001KA1240N+02181MA1999999100421MD1999999+0011MW1031REMSYN016 333 20218 58001
0117829940999991994012418004-09667-035700FM-12+008999999V0201401N00511220001CN0500001N9+02921+02001101261ADDAA106000091AG10000AY101061AY211061GF104991041021008001001001MA1999999100251MD1999999-0021MW1031REMSYN010 333 59002
0136829940999991994012500004-09667-035700FM-12+008999999V0200501N00101220001CN9999999N9+02551+02001101411ADDAA106000091AG10000AY101061AY201061GF103991031011012501001001KA1240M+03291MA1999999100401MD1999999+0031MW1011REMSYN016 333 10329 58003
0136829940999991994012512004-09667-035700FM-12+008999999V0200901N00461045001CN0200001N9+02751+02001101551ADDAA106000091AG10000AY101061AY221061GF106991021031012501061001KA1240N+02161MA1999999100541MD1999999+0121MW1031REMSYN016 333 20216 58012
0136829940999991994012600004-09667-035700FM-12+008999999V0201401N00151012001CN9999999N9+02601+02001101391ADDAA106000091AG10000AY101061AY221061GF105991051021012501001001KA1240M+03261MA1999999100381MD1999999-0021MW1031REMSYN016 333 10326 59002
0136829940999991994012612004-09667-035700FM-12+008999999V0201401N00311007501CN0500001N9+02731+02001101381ADDAA106000091AG10000AY101061AY221061GF105991051021008001001001KA1240N+02141MA1999999100361MD1999999-0181MW1031REMSYN016 333 20214 59018
0117829940999991994012618004-09667-035700FM-12+008999999V0201801N00511220001CN0500001N9+02891+02001101261ADDAA106000091AG10000AY101061AY201061GF103991031011012501001001MA1999999100251MD1999999-0101MW1011REMSYN010 333 59010
0136829940999991994012712004-09667-035700FM-12+008999999V0201401N00461045001CN0500001N9+02751+02201101321ADDAA106000091AG10000AY111061AY211061GF106991021021012501041001KA1240N+02121MA1999999100311MD1999999-0051MW1021REMSYN016 333 20212 59005
0136829940999991994012812004-09667-035700FM-12+008999999V0200501N00151012001CN0500001N9+02741+02101101371ADDAA106000091AG10000AY101061AY221061GF105991051021012501001001KA1240N+02151MA1999999100351MD1999999+0041MW1031REMSYN016 333 20215 58004
0117829940999991994012818004-09667-035700FM-12+008999999V0200901N00571220001CN0500001N9+02901+02201101171ADDAA106000091AG10000AY101061AY201061GF103991031011008001001001MA1999999100161MD1999999-0041MW1011REMSYN010 333 59004
0123829940999991994012900004-09667-035700FM-12+008999999V0201401N00211045001CN9999999N9+02521+02101101401ADDAA106000091AG10000AY101061AY221061GF106991021021012501061001MA1999999100381MD1999999+0051MW1031REMSYN016 333 10/// 58005
0117829940999991994012918004-09667-035700FM-12+008999999V0200901N00511220001CN0500001N9+02901+02201101261ADDAA106000091AG10000AY101061AY201061GF103991031011008001001001MA1999999100251MD1999999+0091MW1011REMSYN010 333 58009
0117829940999991994013018004-09667-035700FM-12+008999999V0201401N00621220001CN0500001N9+02891+02001101191ADDAA106000091AG10000AY101061AY201061GF103991031011008001001001MA1999999100181MD1999999-0071MW1011REMSYN010 333 59007
0136829940999991994013100004-09667-035700FM-12+008999999V0201801N00101220001CN9999999N9+02521+02001101321ADDAA106000091AG10000AY101061AY201061GF102991021011012501001001KA1240M+03201MA1999999100301MD1999999-0051MW1011REMSYN016 333 10320 59005
0136829940999991994013112004-09667-035700FM-12+008999999V0200901N00511045001CN0500001N9+02801+02101101371ADDAA106000091AG10000AY111061AY211061GF106991021021017501061001KA1240N+02151MA1999999100361MD1999999+0041MW1021REMSYN016 333 20215 58004
0117829940999991994013118004-09667-035700FM-12+008999999V0200901N00571220001CN0500001N9+02821+01801101211ADDAA106000091AG10000AY101061AY201061GF104991021011022501001011MA1999999100201MD1999999+0021MW1021REMSYN010 333 58002
0136829940999991994020100004-09667-035700FM-12+008999999V0200901N00261045001CN9999999N9+02441+02101101341ADDAA106000091AG10000AY111061AY211061GF106991021021017501061001KA1240M+03221MA1999999100311MD1999999+0011MW1011REMSYN016 333 10322 58001
0117829940999991994020118004-09667-035700FM-12+008999999V0200901N00511220001CN0500001N9+02941+01801101151ADDAA106000091AG10000AY101061AY201061GF105991021001017501041011MA1999999100141MD1999999-0061MW1011REMSYN010 333 59006
0136829940999991994020212004-09667-035700FM-12+008999999V0200901N00151007501CN9999999N9+02581+02001101361ADDAA106000091AG10000AY101061AY221061GF105991051021008001001001KA1240M+03181MA1999999100341MD1999999+0031MW1031REMSYN016 333 10318 58003
0117829940999991994020218004-09667-035700FM-12+008999999V0201401N00361220001CN0500001N9+02981+02101101331ADDAA106000091AG10000AY101061AY201061GF102991021011012501001001MA1999999100331MD1999999+0191MW1011REMSYN010 333 58019
0142829940999991994020312004-09667-035700FM-12+008999999V0200901N00211220001CN0500001N9+02731+01901101351ADDAA106000091AG10000AY101061AY201061GF104991999011008001001001MA1999999100331MD1999999-0101MW1011REMSYN016 333 20/// 59010EQDQ01+000022SCOTLC
0117829940999991994020318004-09667-035700FM-12+008999999V0201401N00461220001CN0500001N9+02991+02101101241ADDAA106000091AG10000AY101061AY201061GF102991021011012501001001MA1999999100231MD1999999-0101MW1011REMSYN010 333 59010
0136829940999991994020400004-09667-035700FM-12+008999999V0200501N00101045001CN9999999N9+02401+02101101421ADDAA106000091AG10000AY111061AY211061GF106991021011017501061001KA1240M+03201MA1999999100391MD1999999-0011MW1021REMSYN016 333 10320 59001
0142829940999991994020412004-09667-035700FM-12+008999999V0201401N00411045001CN0200001N9+02661+02101101391ADDAA106999929AG10018AY191061AY211061GF107991021031012501061001KA1240N+02101MA1999999100371MD1999999+0041MW1031REMSYN022 333 20210 58004 69901
0136829940999991994020500004-09667-035700FM-12+008999999V0200501N00101220001CN9999999N9+02541+02101101191ADDAA106000091AG10000AY101061AY201061GF104991021001022501041041KA1240M+03241MA1999999100171MD1999999-0221MW1021REMSYN016 333 10324 59022
0186829940999991994020512004-09667-035700FM-12+008999999V0201401N00261045001CN0500001N9+02751+02201101221ADDAA124007091AG10018AY191061AY211061GA1041+009009049GA2031+012509009GF106991021021012501041001KA1240N+02081MA1999999100201MD1999999-0171MW1031REMSYN034 333 20208 59017 60074 84530 83096
0117829940999991994020518004-09667-035700FM-12+008999999V0200901N00511220001CN0500001N9+02941+02001101001ADDAA106000091AG10000AY101061AY201061GF103991021001017501041011MA1999999100001MD1999999+0001MW1011REMSYN010 333 58000
0136829940999991994020600004-09667-035700FM-12+008999999V0200501N00151220001CN9999999N9+02551+02101101221ADDAA106000091AG10000AY101061AY201061GF105991021021017501001011KA1240M+03321MA1999999100201MD1999999+0031MW1011REMSYN016 333 10332 58003
0136829940999991994020612004-09667-035700FM-12+008999999V0200901N00311045001CN0100001N9+02801+02301101371ADDAA106000091AG10000AY121061AY221061GF108991041031017501061001KA1240N+02241MA1999999100361MD1999999+0161MW1031REMSYN016 333 20224 58016
0134829940999991994020618004-09667-035700FM-12+008999999V0200901N00461045001CN0500001N9+02931+01901101011ADDAA106000291AA299000191AG10018AY191061AY211061GF106991021021012501041001MA1999999100101MD1999999+0101MW1021REMSYN016 333 58010 69921
0136829940999991994020700004-09667-035700FM-12+008999999V0200501N00051045001CN9999999N9+02501+01901101261ADDAA106000091AG10000AY101061AY201061GF105991021021012501041001KA1240M+03001MA1999999100241MD1999999+0041MW1021REMSYN016 333 10300 58004
0153829940999991994020712004-09667-035700FM-12+008999999V0200901N00361220001CN0500001N9+02841+02001101361ADDAA124000291AA299000191AG13000AY111061AY211061GF106991021011017501001041KA1240N+02201MA1999999100351MD1999999-0011MW1021REMSYN022 333 20220 59001 69924
0117829940999991994020718004-09667-035700FM-12+008999999V0200901N00461220001CN0500001N9+02961+02101101151ADDAA106000091AG10000AY101061AY201061GF103991031011008001001001MA1999999100151MD1999999+0051MW1011REMSYN010 333 58005
0136829940999991994020812004-09667-035700FM-12+008999999V0200901N00461220001CN0500001N9+02851+02201101461ADDAA106000091AG10000AY111061AY211061GF106991041011017501001041KA1240N+02221MA1999999100451MD1999999+1011MW1021REMSYN016 333 20222 58101
0117829940999991994020818004-09667-035700FM-12+008999999V0201401N00461045001CN0200001N9+02901+02001101251ADDAA106000091AG10000AY121061AY221061GF107991041031017501041001MA1999999100241MD1999999+0091MW1031REMSYN010 333 58009
0136829940999991994020912004-09667-035700FM-12+008999999V0200901N00621045001CN0500001N9+02781+02101101461ADDAA106000091AG10000AY111061AY211061GF106991021011017501041001KA1240N+02211MA1999999100451MD1999999+0001MW1021REMSYN016 333 20221 58000
0117829940999991994020918004-09667-035700FM-12+008999999V0200901N00511045001CN0500001N9+02901+01901101191ADDAA106000091AG10000AY111061AY211061GF106991021021017501061001MA1999999100181MD1999999-0061MW1021REMSYN010 333 59006
0136829940999991994021000004-09667-035700FM-12+008999999V0200501N00101220001CN9999999N9+02521+02001101421ADDAA106000091AG10000AY111061AY211061GF105991021021017501001011KA1240M+03281MA1999999100391MD1999999+0071MW1021REMSYN016 333 10328 58007
0136829940999991994021012004-09667-035700FM-12+008999999V0201401N00511045001CN0100001N9+02781+02401101491ADDAA106000091AG10000AY121061AY221061GF108991041071017501041999KA1240N+02171MA1999999100481MD1999999+0031MW1031REMSYN016 333 20217 58003
0123829940999991994021018004-09667-035700FM-12+008999999V0201401N006219999999N0500001N9+02911+02001101291ADDAA106999929AG10018AY191061AY211061GF106991021001012501041041MA1999999100281MD1999999+0101MW1031REMSYN016 333 58010 69901
0142829940999991994021112004-09667-035700FM-12+008999999V0201401N00261045001CN0500001N9+02841+01801101521ADDAA124999929AG13000AY111061AY211061GF105991021021017501041001KA1240N+02201MA1999999100511MD1999999+0031MW1021REMSYN022 333 20220 58003 69904
0117829940999991994021118004-09667-035700FM-12+008999999V0200901N00361045001CN0500001N9+02921+02001101191ADDAA106000091AG10000AY111061AY211061GF106991041021017501061001MA1999999100181MD1999999-0101MW1021REMSYN010 333 59010
0136829940999991994021212004-09667-035700FM-12+008999999V0203601N00211220001CN0500001N9+02821+02101101461ADDAA106000091AG10000AY111061AY211061GF106991021011017501001041KA1240N+02171MA1999999100451MD1999999-0061MW1021REMSYN016 333 20217 59006
0123829940999991994021218004-09667-035700FM-12+008999999V0201401N00721045001CN0500001N9+02891+02001101151ADDAA106000391AG10018AY191061AY211061GF106991041021012501041001MA1999999100141MD1999999-0041MW1031REMSYN016 333 59004 69931
0142829940999991994021312004-09667-035700FM-12+008999999V0200501N00311045001CN0100001N9+02501+02301101411ADDAA124000391AG13000AY121061AY221061GF108991041071012501041999KA1240N+02181MA1999999100391MD1999999-0061MW1151REMSYN022 333 20218 59006 69934
0134829940999991994021318004-09667-035700FM-12+008999999V0200801N00411045001CN0200001N9+02651+02101101101ADDAA106000491AA299000591AG10018AY191061AY211061GF107991041031012501061001MA1999999100101MD1999999-0041MW1031REMSYN016 333 59004 69941
0125829940999991994021400004-09667-035700FM-12+008999999V0209991C00001220001CN9999999N9+02381+02201101231ADDAG11000AY111061AY211061GF105991021011012501001061KA1240M+02781MA1999999100201MD1999999-0141MW1031REMSYN016 333 10278 59014
0153829940999991994021412004-09667-035700FM-12+008999999V0200901N00261045001CN0500001N9+02751+02101101381ADDAA124000791AA299001091AG10018AY191061AY211061GF106991021021012501041011KA1240N+02151MA1999999100361MD1999999-0031MW1031REMSYN022 333 20215 59003 69974
0117829940999991994021418004-09667-035700FM-12+008999999V0201401N00361220001CN0500001N9+02941+01001101181ADDAA106000091AG10000AY101061AY211061GF105991021001017501041041MA1999999100171MD1999999+0071MW1021REMSYN010 333 58007
0136829940999991994021500004-09667-035700FM-12+008999999V0200501N00151045001CN9999999N9+02351+02201101371ADDAA106000091AG10000AY111061AY211061GF106991021021017501061001KA1240M+03241MA1999999100341MD1999999+0141MW1021REMSYN016 333 10324 58014
0136829940999991994021512004-09667-035700FM-12+008999999V0200501N00361045001CN0500001N9+02901+02001101621ADDAA106000091AG10000AY111061AY211061GF105991021011017501041001KA1240N+02211MA1999999100611MD1999999+0251MW1021REMSYN016 333 20221 58025
0117829940999991994021618004-09667-035700FM-12+008999999V0200901N00411045001CN0500001N9+02951+02101101491ADDAA106000091AG10000AY111061AY211061GF106991021021017501061001MA1999999100481MD1999999+0121MW1031REMSYN010 333 58012
0136829940999991994021700004-09667-035700FM-12+008999999V0209991C00001220001CN9999999N9+02521+01901101621ADDAA106000091AG10000AY101061AY201061GF104991021001017501041011KA1240M+03311MA1999999100591MD1999999+0071MW1021REMSYN016 333 10331 58007
0140829940999991994021712004-09667-035700FM-12+008999999V0200901N00411045001CN0500001N9+02761+02001101531ADDAA124000291AA299000191AG10018AY191061AY211061GF106991021021017501061011MA1999999100521MD1999999-0171MW1021REMSYN022 333 20/// 59017 69924
0123829940999991994021718004-09667-035700FM-12+008999999V0200901N00261045001CN0100001N9+02601+02171101381ADDAA106007091AG10018AY191061AY211061GF108991021031012501061999MA1999999100361MD1999999-0121MW1031REMSYN016 333 59012 60071
0142829940999991994021812004-09667-035700FM-12+008999999V0200901N00461220001CN0500001N9+02681+02001101401ADDAA124024091AG10018AY191061AY211061GF106991041021017501001041KA1240N+02081MA1999999100381MD1999999-0141MW1011REMSYN022 333 20208 59014 60244
0117829940999991994021818004-09667-035700FM-12+008999999V0200901N00511220001CN0500001N9+02921+01901101151ADDAA106000091AG10000AY111061AY211061GF104991021011017501001041MA1999999100141MD1999999-0221MW1021REMSYN010 333 59022
0114829940999991994021900004-09667-035700FM-12+008999999V0200501N00151045001CN9999999N9+02451+02101101261ADDAA106000091AG14000GF105991021021017501061001KA1240M+03121MA1999999100261MD1999999-0211REMSYN016 333 10312 59021
0136829940999991994021912004-09667-035700FM-12+008999999V0201801N00311220001CN0500001N9+02851+02101101431ADDAA106000091AG10000AY111061AY221061GF106991041011017501001041KA1240N+02261MA1999999100411MD1999999+0031MW1021REMSYN016 333 20226 58003
0117829940999991994021918004-09667-035700FM-12+008999999V0200901N00411220001CN0500001N9+02941+02001101131ADDAA106000091AG10000AY101061AY201061GF104991021001017501041041MA1999999100121MD1999999-0021MW1021REMSYN010 333 59002
0136829940999991994022112004-09667-035700FM-12+008999999V0200901N00311045001CN0500001N9+02851+02201101331ADDAA106000091AG10000AY111061AY211061GF106991021011017501061001KA1240N+02241MA1999999100321MD1999999+0001MW1021REMSYN016 333 20224 58000
0117829940999991994022118004-09667-035700FM-12+008999999V0200901N00461045001CN0200001N9+02881+02001101101ADDAA106000091AG10000AY111061AY221061GF107991021021017501061041MA1999999100091MD1999999+0011MW1021REMSYN010 333 58001
0136829940999991994022200004-09667-035700FM-12+008999999V0201801N00151045001CN9999999N9+02401+02101101391ADDAA106000091AG10000AY111061AY211061GF106991041011012501041001KA1240M+03201MA1999999100361MD1999999+0061MW1021REMSYN016 333 10320 58006
0136829940999991994022212004-09667-035700FM-12+008999999V0201901N00621045001CN0500001N9+99999+99999101351ADDAA106000091AG10000AY111061AY211061GF106991021021017501061011KA1240N+02271MA1999999100341MD1999999+0021MW1031REMSYN016 333 20227 58002
0117829940999991994022218004-09667-035700FM-12+008999999V0200901N00621045001CN0500001N9+02901+02001101211ADDAA106000091AG10000AY111061AY221061GF106991041011017501061001MA1999999100201MD1999999+0111MW1021REMSYN010 333 58011
0136829940999991994022300004-09667-035700FM-12+008999999V0200501N001019999999N9999999N9+02481+02101101331ADDAA106000091AG10000AY111061AY211061GF106991041001012501041041KA1240M+03241MA1999999100301MD1999999-0061MW1021REMSYN016 333 10324 59006
0136829940999991994022312004-09667-035700FM-12+008999999V0200901N00461045001CN0500001N9+02851+02001101341ADDAA106000091AG10000AY111061AY211061GF105991021021017501061001KA1240N+02291MA1999999100331MD1999999+0011MW1021REMSYN016 333 20229 58001
0117829940999991994022318004-09667-035700FM-12+008999999V0200901N00571220001CN0500001N9+02931+02001101081ADDAA106000091AG10000AY101061AY201061GF104991021011017501001011MA1999999100071MD1999999-0131MW1011REMSYN010 333 59013
0142829940999991994022412004-09667-035700FM-12+008999999V0201801N00361220001CN0500001N9+02841+02101101351ADDAA124002091AG10018AY191061AY211061GF105991021011012501001011KA1240N+02241MA1999999100341MD1999999+0011MW1031REMSYN022 333 20224 58001 60024
0136829940999991994022500004-09667-035700FM-12+008999999V0200901N00101220001CN9999999N9+02541+02001101361ADDAA106000091AG10000AY101061AY201061GF103991031011012501001001KA1240M+03301MA1999999100331MD1999999+0011MW1011REMSYN016 333 10330 58001
0136829940999991994022512004-09667-035700FM-12+008999999V0200901N00511045001CN0500001N9+02891+02001101391ADDAA106000091AG10000AY101061AY211061GF105991041021017501061001KA1240N+02261MA1999999100381MD1999999+0041MW1021REMSYN016 333 20226 58004
0117829940999991994022518004-09667-035700FM-12+008999999V0200901N00571220001CN0500001N9+02941+01901101231ADDAA106000091AG10000AY101061AY201061GF104991021021017501061001MA1999999100221MD1999999+0081MW1011REMSYN010 333 58008
0136829940999991994022600004-09667-035700FM-12+008999999V0200901N00151045001CN9999999N9+02551+02101101391ADDAA106000091AG10000AY101061AY201061GF105991021021012501061001KA1240M+03271MA1999999100361MD1999999+0031MW1021REMSYN016 333 10327 58003
0136829940999991994022612004-09667-035700FM-12+008999999V0200901N00361045001CN0100001N9+02601+02401101441ADDAA106000091AG15000AY121061AY221061GF108991041071012501021999KA1240N+02161MA1999999100421MD1999999+0041MW1151REMSYN016 333 20216 58004
0117829940999991994022718004-09667-035700FM-12+008999999V0200901N00571045001CN0200001N9+02881+02401101291ADDAA106000091AG10000AY121061AY221061GF107991041021017501061001MA1999999100281MD1999999+0021MW1031REMSYN010 333 58002
0136829940999991994022800004-09667-035700FM-12+008999999V0200901N00101045001CN9999999N9+02361+02101101351ADDAA106000091AG10000AY111061AY221061GF106991021011012501061001KA1240M+03041MA1999999100321MD1999999-0121MW1031REMSYN016 333 10304 59012
0142829940999991994022812004-09667-035700FM-12+008999999V0200901N00151045001CN0100001N9+02401+02301101481ADDAA124038091AG10018AY191061AY211061GF108991041071012501021999KA1240N+02021MA1999999100461MD1999999+0001MW1031REMSYN022 333 20202 58000 60384
0123829940999991994022818004-09667-035700FM-12+008999999V0200901N00151045001CN0100001N9+02421+02201101351ADDAA106017091AG10018AY191061AY211061GF108991041071012501041999MA1999999100331MD1999999+0051MW1031REMSYN016 333 58005 60171
0142829940999991994030112004-09667-035700FM-12+008999999V0200901N00261045001CN0100001N9+02661+02301101481ADDAA124017091AG13000AY121061AY221061GF108991041071012501041999KA1240N+02051MA1999999100451MD1999999-0011MW1031REMSYN022 333 20205 59001 60174
0117829940999991994030118004-09667-035700FM-12+008999999V0200901N00511045001CN0200001N9+02701+02101101221ADDAA106000091AG10000AY121061AY221061GF107991021031012501061001MA1999999100201MD1999999-0131MW1031REMSYN010 333 59013
0136829940999991994030200004-09667-035700FM-12+008999999V0209991C00001045001CN9999999N9+02301+02201101391ADDAA106000091AG10000AY111061AY221061GF107991041021017501061001KA1240M+02921MA1999999100361MD1999999-0041MW1031REMSYN016 333 10292 59004
0136829940999991994030212004-09667-035700FM-12+008999999V0203601N00461045001CN0500001N9+02701+02101101391ADDAA106000091AG10000AY101061AY221061GF106991031021008001041001KA1240N+02051MA1999999100371MD1999999-0081MW1031REMSYN016 333 20205 59008
0117829940999991994030218004-09667-035700FM-12+008999999V0200901N00621007501CN0500001N9+03041+02001101081ADDAA106000091AG10000AY101061AY221061GF105991051021008001001001MA1999999100081MD1999999-0121MW1031REMSYN010 333 59012
0142829940999991994030312004-09667-035700FM-12+008999999V0200901N00101045001CN0020001N9+02701+99999101151ADDAA124000191AG10001AY151061AY221061GF107991031081008001021001KA1240N+02421MA1999999100951MD1999999+0021MW1031REMSYN022 333 20242 58002 69914
0117829940999991994030418004-09667-035700FM-12+008999999V0200901N00771220001CN0500001N9+03001+02101101161ADDAA106000091AG10000AY101061AY221061GF104991041021012501001001MA1999999100151MD1999999-0091MW1031REMSYN010 333 59009
0136829940999991994030500004-09667-035700FM-12+008999999V0200901N00101007501CN9999999N9+02521+02101101291ADDAA106000091AG10000AY101061AY221061GF105991051021008001001001KA1240M+03201MA1999999100281MD1999999-0081MW1031REMSYN016 333 10320 59008
0114829940999991994030512004-09667-035700FM-12+008999999V0209999999999220001CN0200001N9+02921+02391101151ADDAA106000091AG14000GF104991021051012501031001KA1240N+02371MA1999999101081MD1999999-0131REMSYN016 333 20237 59013
0136829940999991994030600004-09667-035700FM-12+008999999V0200901N00151007501CN9999999N9+02571+02101101481ADDAA106000091AG10000AY101061AY221061GF105991051021008001001001KA1240M+03271MA1999999100171MD1999999+0191MW1031REMSYN016 333 10327 58019
0136829940999991994030612004-09667-035700FM-12+008999999V0201401N00461045001CN0500001N9+02701+02001101501ADDAA106000091AG10000AY101061AY221061GF106991021031008001041001KA1240N+02081MA1999999100481MD1999999-0011MW1031REMSYN016 333 20208 59001
0136829940999991994030712004-09667-035700FM-12+008999999V0200901N00461045001CN0500001N9+02781+02001101401ADDAA106000091AG10000AY111061AY211061GF106991021021012501041011KA1240N+02221MA1999999100391MD1999999+0031MW1031REMSYN016 333 20222 58003
0117829940999991994030718004-09667-035700FM-12+008999999V0200901N00461220001CN0500001N9+03021+02001101011ADDAA106000091AG10000AY101061AY201061GF103991021011017501061001MA1999999100001MD1999999-0201MW1021REMSYN010 333 59020
0136829940999991994030800004-09667-035700FM-12+008999999V0200501N00051220001CN9999999N9+02501+02101101321ADDAA106000091AG10000AY101061AY211061GF105991021011012501001041KA1240M+03261MA1999999100291MD1999999-0031MW1021REMSYN016 333 10326 59003
0136829940999991994030812004-09667-035700FM-12+008999999V0200901N00361045001CN0500001N9+02781+02101101291ADDAA106000091AG10000AY111061AY211061GF106991041011017501041001KA1240N+02241MA1999999100281MD1999999-0111MW1021REMSYN016 333 20224 59011
0117829940999991994030818004-09667-035700FM-12+008999999V0200901N00511220001CN0500001N9+02981+02001101011ADDAA106000091AG10000AY101061AY201061GF103991021011017501001011MA1999999100001MD1999999+0001MW1011REMSYN010 333 58000
0136829940999991994030900004-09667-035700FM-12+008999999V0200901N00261007501CN9999999N9+02551+02001101261ADDAA106000091AG10000AY101061AY221061GF105991051021008001001001KA1240M+03291MA1999999100241MD1999999-0051MW1031REMSYN016 333 10329 59005
0136829940999991994030912004-09667-035700FM-12+008999999V0201401N00411220001CN0500001N9+02721+02101101331ADDAA106000091AG10000AY101061AY221061GF104991041021008001001001KA1240N+02101MA1999999100311MD1999999+0031MW1031REMSYN016 333 20210 58003
0117829940999991994030918004-09667-035700FM-12+008999999V0200901N00361007501CN0500001N9+03001+02001101091ADDAA106000091AG10000AY101061AY221061GF105991051021008001001001MA1999999100091MD1999999+0091MW1031REMSYN010 333 58009
0069829940999991994030921004-09667-035700FM-12+008999999V0201201N00311220001CN0200001N9+02821+02441100871ADDAG12000GF105991031021008001001011MD1999999+0071REMSYN010 333 58007
0155829940999991994031000004-09667-035700FM-12+008999999V0200501N00051045001CN9999999N9+02521+02201103082ADDAA106000091AG10000AY101061AY211061GF105991021011012501041001KA1240M+03281MA1999999100311MD1999999+0111MW1021REMSYN016 333 10328 58011EQDQ01+103083APOSLP
0136829940999991994031012004-09667-035700FM-12+008999999V0200901N00211007501CN0500001N9+02741+02101101361ADDAA106000091AG10000AY101061AY221061GF105991051021008001001001KA1240N+02181MA1999999100301MD1999999+0041MW1031REMSYN016 333 20218 58004
0069829940999991994031015004-09667-035700FM-12+008999999V0201001N00511220001CN0200001N9+03121+02351101381ADDAG12000GF104991041021008001001001MD1999999+0041REMSYN010 333 58004
0117829940999991994031018004-09667-035700FM-12+008999999V0200901N00671220001CN0500001N9+03001+02101101151ADDAA106000091AG10000AY101061AY201061GF103991031011017501001001MA1999999100151MD1999999+0061MW1011REMSYN010 333 58006
0155829940999991994031112004-09667-035700FM-12+008999999V0200501N00361220001CN0500001N9+02841+02001101241ADDAA106000091AG10000AY101061AY201061GF103991031011012501001001KA1240M+99999MA1999999100331MD1999999-0021MW1011REMSYN016 333 10226 59002EQDQ01 +02262ATMX  
0117829940999991994031118004-09667-035700FM-12+008999999V0200901N00461220001CN0500001N9+03041+02001101101ADDAA106000091AG10000AY101061AY201061GF104991021021017501061001MA1999999100091MD1999999-0061MW1021REMSYN010 333 59006
0136829940999991994031200004-09667-035700FM-12+008999999V0200501N00461220001CN9999999N9+02521+02101101381ADDAA106000091AG10000AY111061AY211061GF104991041011012501001001KA1240M+03271MA1999999100351MD1999999+0071MW1021REMSYN016 333 10327 58007
0114829940999991994031212004-09667-035700FM-12+008999999V0203601N00411220001CN0500001N9+02881+02001101311ADDAA106000091AG10000GF104991021011017501001011KA1240N+02271MA1999999100301MD1999999-0031REMSYN016 333 20227 59003
0117829940999991994031218004-09667-035700FM-12+008999999V0200901N00721220001CN0500001N9+99999+99999100951ADDAA106000091AG10000AY101061AY201061GF104991041001017501041001MA1999999099941MD1999999-0141MW1011REMSYN010 333 59014
0136829940999991994031300004-09667-035700FM-12+008999999V0200901N00261220001CN9999999N9+02581+02001101401ADDAA106000091AG10000AY101061AY201061GF104991021011012501041001KA1240M+03311MA1999999100381MD1999999-0141MW1011REMSYN016 333 10331 59014
0136829940999991994031312004-09667-035700FM-12+008999999V0200501N00411220001CN0500001N9+02871+02001101341ADDAA106000091AG10000AY101061AY201061GF105991021021017501001011KA1240N+02251MA1999999100331MD1999999+0031MW1021REMSYN016 333 20225 58003
0117829940999991994031318004-09667-035700FM-12+008999999V0200901N00821220001CN0500001N9+03041+01801101021ADDAA106000091AG10000AY101061AY201061GF105991021021017501001041MA1999999100021MD1999999+0071MW1011REMSYN010 333 58007
0136829940999991994031400004-09667-035700FM-12+008999999V0200501N00511045001CN9999999N9+02591+02101101261ADDAA106000091AG10000AY101061AY211061GF106991021021017501061001KA1240M+03361MA1999999100241MD1999999-0081MW1021REMSYN016 333 10336 59008
0136829940999991994031412004-09667-035700FM-12+008999999V0200901N00621045001CN0500001N9+02901+02001101431ADDAA106000091AG10000AY111061AY211061GF105991021011017501061001KA1240N+02291MA1999999100421MD1999999+0091MW1011REMSYN016 333 20229 58009
0117829940999991994031418004-09667-035700FM-12+008999999V0200901N00511220001CN0500001N9+02961+02101101131ADDAA106000091AG10000AY101061AY211061GF104991021021017501001041MA1999999100131MD1999999+0111MW1021REMSYN010 333 58011
0117829940999991994031518004-09667-035700FM-12+008999999V0200901N00821045001CN0500001N9+02921+02201101961ADDAA106000091AG10000AY111061AY211061GF106991021021012501061001MA1999999100061MD1999999-0071MW1021REMSYN010 333 59007
0117829940999991994031618004-09667-035700FM-12+008999999V0200901N00511220001CN0500001N9+03101+02101101041ADDAA106000091AG10000AY101061AY201061GF103991031011012501001001MA1999999100041MD1999999-0021MW1011REMSYN010 333 59002
0136829940999991994031712004-09667-035700FM-12+008999999V0201401N00311220001CN0500001N9+02851+02001101301ADDAA106000091AG10000AY101061AY221061GF104991041021012501001001KA1240N+02221MA1999999100291MD1999999-0031MW1031REMSYN016 333 20222 59003
0117829940999991994031718004-09667-035700FM-12+008999999V0200901N00671220001CN0500001N9+03181+01901101221ADDAA106000091AG10000AY101061AY201061GF102991021011012501001001MA1999999100221MD1999999+0181MW1011REMSYN010 333 58018
0137829940999991994031812004-09667-035700FM-12+008999999V0200901N00411007501CN0100001N9+02921+02001101491ADDAA106000091AG10000AY101061AY221061GF105991051021008001001001KA1240N+02281MA1999999100481MD1999999+0191MW1031REMSYN017 333 20228 58019;
0136829940999991994031912004-09667-035700FM-12+008999999V0200901N00311045001CN0500001N9+02741+02001101441ADDAA106000091AG10000AY101061AY221061GF106991021021008001041001KA1240N+02191MA1999999100431MD1999999-0051MW1031REMSYN016 333 20219 59005
0117829940999991994031918004-09667-035700FM-12+008999999V0201401N00571012001CN0500001N9+03001+02101101281ADDAA106000091AG10000AY101061AY221061GF105991051071012501001001MA1999999100281MD1999999-0011MW1031REMSYN010 333 59001
0142829940999991994032012004-09667-035700FM-12+008999999V0201801N00151045001CN0100001N9+02701+02101101461ADDAA124019091AG10017AY191061AY211061GF107991031061008001021001KA1240N+02201MA1999999100451MD1999999+0021MW1031REMSYN022 333 20220 58002 60194
0142829940999991994032112004-09667-035700FM-12+008999999V0201401N00311045001CN0500001N9+02801+02201101471ADDAA124010091AG10017AY191061AY211061GF106991021031012501061001KA1240N+02221MA1999999100451MD1999999+0001MW1021REMSYN022 333 20222 58000 60104
0117829940999991994032118004-09667-035700FM-12+008999999V0200901N00411220001CN0500001N9+02981+02101101141ADDAA106000091AG10000AY101061AY211061GF106991021011017501001041MA1999999100141MD1999999-0191MW1021REMSYN010 333 59019
0142829940999991994032212004-09667-035700FM-12+008999999V0200501N00261045001CN0100001N9+02451+02401101331ADDAA124004091AG10017AY191061AY261061GF108991041071012501021999KA1240N+02161MA1999999100311MD1999999-0141MW1151REMSYN022 333 20216 59014 60044
0123829940999991994032218004-09667-035700FM-12+008999999V0202301N00211045001CN0100001N9+02701+02401101101ADDAA106009091AG10017AY191061AY211061GF108991041071012501041999MA1999999100091MD1999999-0051MW1031REMSYN016 333 59005 60091
0142829940999991994032312004-09667-035700FM-12+008999999V0200901N00101007501CN0500001N9+02701+02101101351ADDAA124017091AG10017AY191061AY211061GF105991051021008001001001KA1240N+02101MA1999999100331MD1999999+0021MW1031REMSYN022 333 20210 58002 60174
0117829940999991994032318004-09667-035700FM-12+008999999V0201401N00511007501CN0500001N9+02861+02001101261ADDAA106000091AG10000AY101061AY221061GF105991051021008001001001MA1999999100251MD1999999+0161MW1031REMSYN010 333 58016
0153829940999991994032412004-09667-035700FM-12+008999999V0200901N00461007501CN0500001N9+02721+02001101551ADDAA124000191AG10017AY191061AY211061GA1021+000159049GA2031+012509009GF105991051021008001001001MA1999999100541MW1031REMSYN028 333 2/220 69914 82500 83096
0136829940999991994032500004-09667-035700FM-12+008999999V0200901N00151007501CN9999999N9+02521+02101101601ADDAA106000091AG10000AY101061AY221061GF105991051021008001001001KA1240M+03101MA1999999100591MD1999999+0041MW1031REMSYN016 333 10310 58004
0136829940999991994032512004-09667-035700FM-12+008999999V0201401N00211045001CN0500001N9+02741+02001101601ADDAA106000091AG10000AY101061AY221061GF105991021021012501041001KA1240N+02181MA1999999100581MD1999999+0041MW1031REMSYN016 333 20218 58004
0117829940999991994032618004-09667-035700FM-12+008999999V0201401N00461007501CN0500001N9+02901+02201101281ADDAA106000091AG10000AY101061AY221061GF105991051021008001001001MA1999999100271MD1999999-0091MW1031REMSYN010 333 59009
0136829940999991994032712004-09667-035700FM-12+008999999V0200901N00151012001CN0500001N9+02701+02001101481ADDAA106000091AG10000AY101061AY221061GF105991051021012501001001KA1240N+02101MA1999999100471MD1999999+0011MW1031REMSYN016 333 20210 58001
0091829940999991994032715004-09667-035700FM-12+008999999V0201801N00511009001CN0150001N9+03001+02321101251ADDAG12006AY161031AY221031GF107991061081004501031011MD1999999-0111MW1151REMSYN010 333 59011
0117829940999991994032918004-09667-035700FM-12+008999999V0201401N00511220001CN0500001N9+02921+02201101211ADDAA106000091AG10000AY111061AY211061GF105991021011017501001041MA1999999100201MD1999999+0011MW1021REMSYN010 333 58001
0125829940999991994033012004-09667-035700FM-12+008999999V0203601N00151045001CN0200001N9+02581+02301101541ADDAG11000AY121061AY221061GF107991041031017501041001KA1240N+02041MA1999999100521MD1999999-0091MW1031REMSYN016 333 20204 59009
0142829940999991994033112004-09667-035700FM-12+008999999V0201801N00101045001CN0200001N9+02781+02201101681ADDAA124005091AG10017AY191061AY211061GF107991041021012501061001KA1240N+02201MA1999999100661MD1999999+0141MW1031REMSYN022 333 20220 58014 60054
0136829940999991994040412004-09667-035700FM-12+008999999V0200901N00101045001CN0500001N9+02811+02001101331ADDAA106000091AG10000AY121061AY221061GF106991041021017501041001KA1240N+02071MA1999999100321MD1999999-0131MW1031REMSYN016 333 20207 59013
0136829940999991994040512004-09667-035700FM-12+008999999V0202301N00101220001CN0500001N9+02801+02001101291ADDAA106000091AG10000AY111061AY211061GF106991021021008001001041KA1240N+02161MA1999999100281MD1999999-0041MW1021REMSYN016 333 20216 59004
0136829940999991994040518004-09667-035700FM-12+008999999V0202301N001019999999N0500001N9+02801+02001101291ADDAA106000091AG10000AY111061AY211061GF106991999999008001999999KA1240N+02161MA1999999100281MD1999999-0041MW1021REMSYN016 333 20216 59004
0123829940999991994040618004-09667-035700FM-12+008999999V0200901N00311220001CN0500001N9+02901+02001101211ADDAA106999929AG10016AY191061AY211061GF106991041001017501041041MA1999999100301MD1999999+0101MW1031REMSYN016 333 58010 69901
0136829940999991994040621004-09667-035700FM-12+008999999V0200901N00051220001CN9999999N9+02551+02101101221ADDAA106000091AG10000AY101031AY221031GF104991041021008001001001KA1240M+03171MA1999999100211MD1999999-0091MW1031REMSYN016 333 10317 59009
0142829940999991994040712004-09667-035700FM-12+008999999V0200901N00511220001CN0500001N9+02861+02201101361ADDAA106999929AG13000AY111061AY211061GF106991021021012501001011KA1240N+02191MA1999999100351MD1999999-0091MW1021REMSYN022 333 20219 59009 69901
0117829940999991994040718004-09667-035700FM-12+008999999V0200901N00261220001CN0500001N9+02931+01901101051ADDAA106000091AG10000AY101061AY201061GF104991021011017501001011MA1999999100431MD1999999-0161MW1021REMSYN010 333 59016
0136829940999991994040812004-09667-035700FM-12+008999999V0200901N00311012001CN0500001N9+02831+02101101281ADDAA106000091AG10000AY101061AY221061GF105991051021012501001001KA1240N+02151MA1999999100271MD1999999-0081MW1031REMSYN016 333 20215 59008
0142829940999991994040912004-09667-035700FM-12+008999999V0200901N00311007501CN0500001N9+02741+02101101311ADDAA124000191AG10016AY191061AY211061GF105991051031008001001001KA1240N+02131MA1999999100301MD1999999+0031MW1031REMSYN022 333 20213 58003 69914
0123829940999991994041018004-09667-035700FM-12+008999999V0200901N00511012001CN0500001N9+02901+02001101221ADDAA106007091AG10016AY191061AY211061GF105991051021012501001001MA1999999100221MD1999999+0071MW1031REMSYN016 333 58007 60071
0120829940999991994041112004-09667-035700FM-12+008999999V0200901N00101045001CN0200001N9+02801+02301101441ADDAA124010091AG10000GF107991041031012501061001KA1240N+02101MA1999999100431MD1999999+0071REMSYN022 333 20210 58007 60104
0142829940999991994041212004-09667-035700FM-12+008999999V0200901N00311045001CN0200001N9+02831+02301101571ADDAA124011091AG10016AY191061AY211061GF107991041031012501061011KA1240N+02171MA1999999100551MD1999999+0121MW1031REMSYN022 333 20217 58012 60114
0123829940999991994041218004-09667-035700FM-12+008999999V0200901N00461007501CN0500001N9+02881+02001101561ADDAA106018091AG10016AY191061AY211061GF105991051021008001001001MA1999999100551MD1999999+0111MW1031REMSYN016 333 58011 60181
0118829940999991994041318004-09667-035700FM-12+008999999V0200501N00361220001CN0500001N9+02951+02101101281ADDAA106000091AG10000AY101061AY211061GF104991021011017501001011MA1999999100271MD1999999-0051MW1011REMSYN011 333 59005;
0188829940999991994041400004-09667-035700FM-12+008999999V0201801N00101220001CN9999999N9+02561+99999101481ADDAA106000091AG10000AY101061AY221061GF104991041021008001001001KA1240M+03261MA1999999100461MD1999999+0011MW1031REMSYN017 333 10326 58001;EQDQ01+025283ATOD  Q02+999990APOSP Q03 -02043ATOD  
0137829940999991994041412004-09667-035700FM-12+008999999V0200901N00151045001CN0200001N9+02701+02201101571ADDAA106000091AG10000AY111061AY221061GF107991041021012501061011KA1240N+02131MA1999999100561MD1999999+0021MW1031REMSYN017 333 20213 58002;
0118829940999991994041418004-09667-035700FM-12+008999999V0200901N00511045001CN0500001N9+02961+02001101281ADDAA106000091AG10000AY101061AY211061GF105991021021017501041001MA1999999100271MD1999999+0001MW1021REMSYN011 333 58000;
0143829940999991994041512004-09667-035700FM-12+008999999V0200901N00211045001CN0500001N9+02771+02001101551ADDAA124001091AG10016AY191061AY211061GF106991021021008001041001KA1240N+02101MA1999999100531MD1999999-0031MW1031REMSYN023 333 20210 59003 69994;
0118829940999991994041518004-09667-035700FM-12+008999999V0200901N00461012001CN0500001N9+02891+02001101271ADDAA106000091AG10000AY101061AY221061GF105991051021012501001001MA1999999100261MD1999999-0011MW1031REMSYN011 333 59001;
0137829940999991994041612004-09667-035700FM-12+008999999V0200901N00211007501CN0500001N9+02721+02001101451ADDAA106000091AG10000AY101061AY221061GF105991051021008001001001KA1240N+02141MA1999999100431MD1999999-0101MW1031REMSYN017 333 20214 59010;
0118829940999991994041618004-09667-035700FM-12+008999999V0200901N00511220001CN0500001N9+02971+02101101261ADDAA106000091AG10000AY101061AY201061GF104991041021012501001001MA1999999100251MD1999999-0011MW1011REMSYN011 333 59001;
0129829940999991994041800004-09667-035700FM-12+008999999V0200901N00101007501CN9999999N9+02571+99999101451ADDAA106000091AG10000AY101061GF105991051021008001001001KA1240M+03251MA1999999100441MD1999999-0031MW1031REMSYN017 333 10325 59003;
0137829940999991994041812004-09667-035700FM-12+008999999V0200901N00211045001CN0200001N9+02751+02101101521ADDAA106000091AG10000AY111061AY221061GF107991041021017501061011KA1240N+02201MA1999999100511MD1999999+0001MW1031REMSYN017 333 20220 58000;
0124829940999991994041818004-09667-035700FM-12+008999999V0200901N00311045001CN0200001N9+02551+02301101331ADDAA106000391AG10016AY191061AY211061GF108991041071012501041999MA1999999100321MD1999999+0001MW1031REMSYN017 333 58000 69931;
0137829940999991994041900004-09667-035700FM-12+008999999V0200901N00051045001CN9999999N9+02601+02101101381ADDAA106000091AG10000AY101061AY221061GF106991031031008001061001KA1240M+02891MA1999999100361MD1999999-0081MW1031REMSYN017 333 10289 59008;
0143829940999991994041912004-09667-035700FM-12+008999999V0200901N00101045001CN0100001N9+02531+02201101531ADDAA124005091AG10016AY191061AY211061GF108991041071012501041999KA1240N+02081MA1999999100511MD1999999+0021MW1031REMSYN023 333 20208 58002 60054;
0143829940999991994042000004-09667-035700FM-12+008999999V0201801N00211045001CN9999999N9+02201+02001101331ADDAA106024091AG10016AY191061AY211061GF107991031071008001021001KA1240M+02711MA1999999100311MD1999999-0051MW1611REMSYN023 333 10271 59005 60241;
0143829940999991994042012004-09667-035700FM-12+008999999V0200901N00101045001CN0200001N9+02661+02201101421ADDAA124034091AG10016AY191061AY211061GF107991041031012501041001KA1240N+02091MA1999999100401MD1999999-0131MW1031REMSYN023 333 20209 59013 60344;
0124829940999991994042018004-09667-035700FM-12+008999999V0200901N00311045001CN0500001N9+02731+01901101241ADDAA106002091AG10016AY191061AY211061GF105991041011012501061001MA1999999100221MD1999999-0071MW1021REMSYN017 333 59007 60021;
0143829940999991994042100004-09667-035700FM-12+008999999V0200901N00101045001CN9999999N9+02381+02001101411ADDAA106000191AG10016AY191061AY211061GF106991031021008001041001KA1240M+02881MA1999999100391MD1999999+0081MW1031REMSYN023 333 10288 58008 69921;
0143829940999991994042112004-09667-035700FM-12+008999999V0201401N00151045001CN0200001N9+02641+02201101531ADDAA124003091AG10016AY191061AY211061GF107991041021012501061001KA1240N+02031MA1999999100511MD1999999+0111MW1021REMSYN023 333 20203 58011 60034;
0143829940999991994042212004-09667-035700FM-12+008999999V0200901N00461007501CN0500001N9+02731+02001101521ADDAA124037091AG10016AY191061AY211061GF105991051021008001001001KA1240N+02181MA1999999100511MD1999999+0001MW1031REMSYN023 333 20218 58000 60374;
0118829940999991994042218004-09667-035700FM-12+008999999V0200901N00461007501CN0500001N9+02801+02001101311ADDAA106000091AG10000AY101061AY221061GF105991051021008001001001MA1999999100301MD1999999-0011MW1031REMSYN011 333 59001;
0143829940999991994042312004-09667-035700FM-12+008999999V0200901N00211105001CN0500001N9+02861+02001101611ADDAA124000591AG10000AY121061AY221061GF106991021011012501061041KA1240N+02001MA1999999100591MD1999999+0081MW1031REMSYN023 333 20200 58008 69954;
0124829940999991994042318004-09667-035700FM-12+008999999V0200901N00101045001CN0100001N9+02651+02301101411ADDAA106000191AG10016AY191061AY211061GF108991041071012501041999MA1999999100391MD1999999+0091MW1031REMSYN017 333 58009 69911;
0143829940999991994042400004-09667-035700FM-12+008999999V0209991C00001045001CN9999999N9+02201+02001101701ADDAA106001091AG10016AY191061AY211061GF108991041031012501061999KA1240M+02821MA1999999100661MD1999999+0171MW1031REMSYN023 333 10282 58017 69981;
0143829940999991994042412004-09667-035700FM-12+008999999V0209991C00001045001CN0200001N9+02781+02201101631ADDAA124010091AG10016AY191061AY211061GF107991041031012501061001KA1240N+02011MA1999999100611MD1999999+0021MW1031REMSYN023 333 20201 58002 60104;
0118829940999991994042418004-09667-035700FM-12+008999999V0201401N00311045001CN0500001N9+02881+02301101311ADDAA106000091AG10000AY111061AY221061GF106991041021017501041011MA1999999100301MD1999999-0091MW1021REMSYN011 333 59009;
0137829940999991994042500004-09667-035700FM-12+008999999V0209991C00001045001CN9999999N9+02401+02201101551ADDAA106000091AG10000AY111061AY211061GF106991021021012501061001KA1240M+02961MA1999999100511MD1999999-0151MW1021REMSYN017 333 10296 59015;
0143829940999991994042512004-09667-035700FM-12+008999999V0200901N00211045001CN0200001N9+02581+02301101631ADDAA124014091AG10016AY191061AY211061GF107991041031012501061001KA1240N+02031MA1999999100611MD1999999+0001MW1031REMSYN023 333 20203 58000 60144;
0137829940999991994042600004-09667-035700FM-12+008999999V0209991C00001045001CN9999999N9+02481+02101101511ADDAA106000091AG10000AY101061AY221061GF106991031031008001061001KA1240M+03021MA1999999100491MD1999999-0021MW1031REMSYN017 333 10302 59002;
0143829940999991994042612004-09667-035700FM-12+008999999V0201401N00101045001CN0500001N9+02681+02101101421ADDAA124006091AG10016AY191061AY211061GF106991021021012501041001KA1240N+02031MA1999999100401MD1999999-0211MW1021REMSYN023 333 20203 59021 60064;
0118829940999991994042618004-09667-035700FM-12+008999999V0201401N00261045001CN0500001N9+02691+02201101191ADDAA106000091AG10000AY101061AY221061GF106991021021017501061001MA1999999100181MD1999999+0161MW1031REMSYN011 333 58016;
0143829940999991994042712004-09667-035700FM-12+008999999V0201801N00101045001CN0100001N9+02601+02301101451ADDAA124999929AG10016AY191061AY211061GF108991041031012501061999KA1240N+02001MA1999999100431MD1999999+0031MW1031REMSYN023 333 20200 58003 69904;
0118829940999991994042718004-09667-035700FM-12+008999999V0201401N00051045001CN0200001N9+02661+02201101241ADDAA106000091AG10000AY121061AY221061GF107991041021017501041001MA1999999100221MD1999999+0041MW1031REMSYN011 333 58004;
0137829940999991994042812004-09667-035700FM-12+008999999V0200901N00051045001CN0500001N9+02761+02201101531ADDAA106000091AG10000AY121061AY221061GF106991021021017501061001KA1240N+02051MA1999999100511MD1999999+0081MW1031REMSYN017 333 20205 58008;
0118829940999991994042818004-09667-035700FM-12+008999999V0201401N00511220001CN0500001N9+02851+02301101331ADDAA106000091AG10000AY111061AY221061GF106991041011017501001041MA1999999100311MD1999999+0091MW1021REMSYN011 333 58009;
0143829940999991994042900004-09667-035700FM-12+008999999V0200901N00101045001CN9999999N9+02401+02001101621ADDAA106002091AG10016AY191061AY211061GF106991021031008001061001KA1240M+02911MA1999999100601MD1999999+0261MW1031REMSYN023 333 10291 58026 60021;
0143829940999991994042912004-09667-035700FM-12+008999999V0201801N00101012001CN0500001N9+02681+02101101641ADDAA124005091AG10016AY191061AY211061GF105991051021012501001001KA1240N+02161MA1999999100621MD1999999+0111MW1031REMSYN023 333 20216 58011 60054;
0137829940999991994043000004-09667-035700FM-12+008999999V0209991C00001007501CN9999999N9+02551+02001101601ADDAA106000091AG10000AY101061AY221061GF105991051021008001001001KA1240M+02941MA1999999100581MD1999999-0021MW1031REMSYN017 333 10294 59002;
0137829940999991994043012004-09667-035700FM-12+008999999V0200901N00261012001CN0500001N9+02701+02001101581ADDAA106000091AG10000AY101061AY221061GF105991051021012501001001KA1240N+02161MA1999999100561MD1999999-0061MW1031REMSYN017 333 20216 59006;
0124829940999991994043018004-09667-035700FM-12+008999999V0200901N00411045001CN0500001N9+02761+02201101501ADDAA106006091AG10016AY191061AY211061GF106991031031012501061001MA1999999100481MD1999999+0031MW1031REMSYN017 333 58003 60061;
0143829940999991994050100004-09667-035700FM-12+008999999V0200901N00101012001CN9999999N9+02381+02001101651ADDAA106007091AG10014AY191061AY211061GF105991051021012501001001KA1240M+02801MA1999999100621MD1999999+0041MW1031REMSYN023 333 10280 58004 60071;
0143829940999991994050112004-09667-035700FM-12+008999999V0201801N00411007501CN0500001N9+02601+02001101831ADDAA124018091AG10014AY191061AY211061GF105991051021008001001001KA1240N+02151MA1999999100791MD1999999+0231MW1031REMSYN023 333 20215 58023 60184;
0143829940999991994050212004-09667-035700FM-12+008999999V0200901N00101045001CN0200001N9+02701+02201101821ADDAA124000191AG10014AY191061AY211061GF107991041031012501061001KA1240N+02081MA1999999100801MD1999999+0011MW1031REMSYN023 333 20208 58001 69924;
0118829940999991994050218004-09667-035700FM-12+008999999V0200901N00151045001CN0500001N9+02861+02001101601ADDAA106000091AG10000AY111061AY211061GF106991021021012501061001MA1999999100581MD1999999+0021MW1021REMSYN011 333 58002;
0137829940999991994050300004-09667-035700FM-12+008999999V0201401N00051045001CN9999999N9+02541+02001101691ADDAA106000091AG10000AY101061AY221061GF106991021021008001041001KA1240M+02941MA1999999100671MD1999999-0021MW1031REMSYN017 333 10294 59002;
0124829940999991994050318004-09667-035700FM-12+008999999V0200901N00101045001CN0100001N9+02401+02301101431ADDAA106003091AG10014AY191061AY211061GF108991041071012501021999MA1999999100411MD1999999-0121MW1031REMSYN017 333 59012 60031;
0162829940999991994050400004-09667-035700FM-12+008999999V0200901N00051045001CN9999999N9+02281+02001101561ADDAA106000591AG10014AY191061AY211061GF106991031031008001061001KA1240M+02511MA1999999100531MD1999999-0141MW1031REMSYN023 333 10251 59014 69941;EQDQ01+000002VOVAR 
0143829940999991994050412004-09667-035700FM-12+008999999V0200901N00101045001CN0100001N1+02421+02301101761ADDAA124015091AG10014AY191061AY211061GF108991041071012501041999KA1240N+02001MA1999999100721MD1999999+0041MW1611REMSYN023 333 20200 58004 60154;
0124829940999991994050418004-09667-035700FM-12+008999999V0200901N00151045001CN0100001N1+02501+02101101431ADDAA106001091AG10014AY191061AY211061GF108991041031012501061001MA1999999100401MD1999999-0011MW1031REMSYN017 333 59001 60011;
0143829940999991994050512004-09667-035700FM-12+008999999V0200901N00101045001CN0100001N1+02501+02301101731ADDAA124010091AG10014AY191061AY211061GF108991041071012501021999KA1240N+02021MA1999999100701MD1999999-0021MW1031REMSYN023 333 20202 59002 60104;
0124829940999991994050518004-09667-035700FM-12+008999999V0209991C00001045001CN0100001N1+02561+02401101461ADDAA106999929AG10014AY191061AY211061GF108991041071012501021999MA1999999100431MD1999999+0031MW1211REMSYN017 333 58003 69901;
0143829940999991994050612004-09667-035700FM-12+008999999V0201401N00101045001CN0100001N1+02371+02001101801ADDAA124010091AG10014AY191061AY211061GF108991031071008001021999KA1240N+02071MA1999999100771MD1999999+0071MW1031REMSYN023 333 20207 58007 60104;
0162829940999991994050700004-09667-035700FM-12+008999999V0200901N00101045001CN9999999N9+02401+02001101691ADDAA106001091AG10014AY191061AY211061GF106991021031012501061001KA1240M+02701MA1999999100661MD1999999-0111MW1031REMSYN023 333 10270 59011 60011;EQDQ01+000002VOVAR 
0143829940999991994050712004-09667-035700FM-12+008999999V0201401N00101045001CN0200001N1+02741+02001101691ADDAA124011091AG10014AY191061AY211061GF106991041021012501061001KA1240N+02021MA1999999100671MD1999999-0101MW1031REMSYN023 333 20202 59010 60114;
0118829940999991994050718004-09667-035700FM-12+008999999V0200901N00261045001CN0500001N1+02781+02201101341ADDAA106000091AG10000AY121061AY221061GF106991041021012501061041MA1999999100321MD1999999-0281MW1031REMSYN011 333 59028;
0162829940999991994050800004-09667-035700FM-12+008999999V0200901N00461045001CN9999999N9+02301+02101101511ADDAA106001091AG10014AY191061AY211061GF106991041031012501041001KA1240M+02841MA1999999100481MD1999999+0181MW1031REMSYN023 333 10284 58018 60011;EQDQ01+000002VOVAR 
0143829940999991994050812004-09667-035700FM-12+008999999V0200901N00101045001CN0100001N1+02241+02101101501ADDAA124034091AG10014AY191061AY211061GF108991041071012501021999KA1240N+01981MA1999999100471MD1999999-0201MW1031REMSYN023 333 20198 59020 60344;
0124829940999991994050818004-09667-035700FM-12+008999999V0201401N00151045001CN0100001N1+02481+02201101351ADDAA106022091AG10014AY191061AY211061GF108991041071012501041999MA1999999100491MD1999999-0031MW1031REMSYN017 333 59003 60221;
0162829940999991994050900004-09667-035700FM-12+008999999V0200901N00311045001CN9999999N9+02281+02201101481ADDAA124012091AG10014AY191061AY211061GF108991041071012501041999KA1240M+02641MA1999999100441MD1999999-0041MW1031REMSYN023 333 10264 59004 60124;EQDQ01+000002VOVAR 
0143829940999991994050912004-09667-035700FM-12+008999999V0200901N00261045001CN0500001N1+02551+02101101641ADDAA124038091AG10014AY191061AY211061GF106991041021012501061001KA1240N+02051MA1999999100611MD1999999-0141MW1031REMSYN023 333 20205 59014 60384;
0124829940999991994050918004-09667-035700FM-12+008999999V0200901N00051045001CN0100001N1+02421+02101101431ADDAA106003091AG10014AY191061AY211061GF108991041071012501041999MA1999999100401MD1999999+0111MW1031REMSYN017 333 58011 60031;
0162829940999991994051000004-09667-035700FM-12+008999999V0201801N00051045001CN9999999N9+02201+02001101581ADDAA106006091AG10014AY191061AY211061GF107991031031008001061001KA1240M+02781MA1999999100551MD1999999+0111MW1031REMSYN023 333 10278 58011 60061;EQDQ01+000002VOVAR 
0143829940999991994051012004-09667-035700FM-12+008999999V0209991C00001045001CN0100001N1+02441+02301101681ADDAA124010091AG10014AY191061AY211061GF108991041071012501041999KA1240N+01981MA1999999100651MD1999999+0041MW1031REMSYN023 333 20198 58004 60104;
0124829940999991994051018004-09667-035700FM-12+008999999V0200101N00051045001CN0100001N1+02441+02201101471ADDAA106007091AG10014AY191061AY211061GF108991041071012501041999MA1999999100441MD1999999+0041MW1211REMSYN017 333 58004 60071;
0171829940999991994051112004-09667-035700FM-12+008999999V0200901N00211045001CN0500001N1+02741+02201101661ADDAA124010091AG10000AY121061AY221061GF106991041021012501041001KA1240N+02011MA1999999100641MD1999999-0011ME1311669MW1031REMSYN023 333 20201 59001 60104;EQDQ01+999990APOSLP
0124829940999991994051118004-09667-035700FM-12+008999999V0200501N00101045001CN0500001N1+02861+02201101411ADDAA106000191AG10014AY191061AY211061GF106991041031012501041001MA1999999100411MD1999999-0031MW1031REMSYN017 333 59003 69921;
0162829940999991994051200004-09667-035700FM-12+008999999V0200501N00151045001CN9999999N9+02401+02101101541ADDAA106000191AG10014AY191061AY211061GF106991031031008001041001KA1240M+02901MA1999999100511MD1999999-0101MW1031REMSYN023 333 10290 59010 69911;EQDQ01+000002VOVAR 
0143829940999991994051212004-09667-035700FM-12+008999999V0200901N00051045001CN0200001N1+02451+02301101541ADDAA124007091AG10014AY191061AY211061GF107991041031012501061001KA1240N+01991MA1999999100571MD1999999-0071MW1031REMSYN023 333 20199 59007 60074;
0118829940999991994051218004-09667-035700FM-12+008999999V0201401N00261220001CN0500001N1+02791+02001101371ADDAA106000091AG10000AY111061AY211061GF106991021011012501001041MA1999999100361MD1999999-0051MW1021REMSYN011 333 59005;
0156829940999991994051300004-09667-035700FM-12+008999999V0200901N00101045001CN9999999N9+02461+02001101541ADDAA106000091AG10000AY101061AY221061GF106991031031008001061001KA1240M+02891MA1999999100511MD1999999+0001MW1031REMSYN017 333 10289 58000;EQDQ01+000002VOVAR 
0143829940999991994051312004-09667-035700FM-12+008999999V0201801N00211012001CN0500001N1+02661+02101101601ADDAA124002091AG10014AY191061AY211061GF105991051021012501001001KA1240N+02161MA1999999100571MD1999999+0001MW1031REMSYN023 333 20216 58000 60024;
0156829940999991994051400004-09667-035700FM-12+008999999V0200901N00151045001CN9999999N9+02601+02001101481ADDAA106000091AG10000AY101061AY221061GF105991021031008001021001KA1240M+02901MA1999999100461MD1999999-0051MW1031REMSYN017 333 10290 59005;EQDQ01+000002VOVAR 
0137829940999991994051412004-09667-035700FM-12+008999999V0200901N00211012001CN0500001N1+02681+02001101491ADDAA106000091AG10000AY101061AY221061GF105991051021012501001001KA1240N+02141MA1999999100471MD1999999-0101MW1031REMSYN017 333 20214 59010;
0118829940999991994051418004-09667-035700FM-12+008999999V0201401N00461220001CN0500001N1+02901+01901101321ADDAA106000091AG10000AY101061AY221061GF104991041021008001001001MA1999999100291MD1999999+0031MW1031REMSYN011 333 58003;
0143829940999991994051512004-09667-035700FM-12+008999999V0201801N00261045001CN0200001N1+02281+02101101701ADDAA124002091AG10014AY191061AY211061GF106991031031012501061001KA1240N+02101MA1999999100671MD1999999+0201MW1031REMSYN023 333 20210 58020 60024;
0143829940999991994051612004-09667-035700FM-12+008999999V0200901N00211045001CN0500001N1+02601+02101101741ADDAA124010091AG10014AY191061AY211061GF106991041021012501061001KA1240N+02071MA1999999100741MD1999999+0041MW1031REMSYN023 333 20207 58004 60104;
0124829940999991994051618004-09667-035700FM-12+008999999V0200901N00261045001CN0500001N1+02761+02301101241ADDAA106999929AG10014AY191061AY211061GF106991041011012501061001MA1999999100331MD1999999-0131MW1031REMSYN017 333 59013 69901;
0143829940999991994051712004-09667-035700FM-12+008999999V0201401N00101045001CN0500001N1+02741+02001101621ADDAA124001091AG10014AY191061AY211061GF106991041021012501061001KA1240N+02041MA1999999100601MD1999999-0111MW1021REMSYN023 333 20204 59011 60014;
0143829940999991994051912004-09667-035700FM-12+008999999V0209991C00001045001CN0200001N1+02741+02001101641ADDAA124000591AG10014AY191061AY211061GF107991041011012501061001KA1240N+02021MA1999999100621MD1999999-0031MW1011REMSYN023 333 20202 59003 69964;
0156829940999991994052000004-09667-035700FM-12+008999999V0200901N00051007501CN9999999N9+02451+01901101621ADDAA106000091AG10000AY101061AY221061GF105991051031008001001001KA1240M+02961MA1999999100601MD1999999+0111MW1031REMSYN017 333 10296 58011;EQDQ01+000002VOVAR 
0137829940999991994052012004-09667-035700FM-12+008999999V0200901N00051045001CN0200001N1+02761+02201101661ADDAA106000091AG10000AY121061AY221061GF107991041031017501041001KA1240N+02081MA1999999100641MD1999999+0021MW1031REMSYN017 333 20208 58002;
0143829940999991994052112004-09667-035700FM-12+008999999V0201401N00211045001CN0100001N1+02401+02101101771ADDAA124031091AG10014AY191061AY211061GF108991041071012501021999KA1240N+01981MA1999999100741MD1999999+0101MW1211REMSYN023 333 20198 58010 60314;
0118829940999991994052118004-09667-035700FM-12+008999999V0200901N00211007501CN0500001N1+02621+02001101421ADDAA106000091AG10000AY101061AY221061GF105991051021008001001001MA1999999100401MD1999999+0041MW1031REMSYN011 333 58004;
0156829940999991994052200004-09667-035700FM-12+008999999V0200901N00101007501CN9999999N9+02381+02001101601ADDAA106000091AG10000AY101061AY221061GF105991051031008001001001KA1240M+02721MA1999999100571MD1999999+0021MW1031REMSYN017 333 10272 58002;EQDQ01+000002VOVAR 
0143829940999991994052212004-09667-035700FM-12+008999999V0200901N00051045001CN0100001N1+02301+02201101701ADDAA124009091AG10014AY191061AY211061GF107991031071008001021001KA1240N+01971MA1999999100671MD1999999-0071MW1031REMSYN023 333 20197 59007 60094;
0172829940999991994052300004-09667-035700FM-12+008999999V0200901N00051045001CN9999999N9+03101+02101101591ADDAA106000091AG10000AY101061AY221061GF106991031031008001041001KA1240M+99999MA1999999100571MD1999999+0001MW1031REMSYN017 333 10275 58000;EQDQ01+000002VOVAR Q02 +02752ATMX  
0143829940999991994052312004-09667-035700FM-12+008999999V0202301N00051045001CN0500001N1+02701+02201101671ADDAA124013091AG10000AY121061AY221061GF106991021021012501061001KA1240N+02001MA1999999100641MD1999999-0031MW1031REMSYN023 333 20200 59003 60134;
0124829940999991994052318004-09667-035700FM-12+008999999V0200901N00101045001CN0500001N1+02631+02001101391ADDAA106006091AG10014AY191061AY211061GF106991021031008001061001MA1999999100371MD1999999-0051MW1031REMSYN017 333 59005 60061;
0143829940999991994052412004-09667-035700FM-12+008999999V0200901N00051045001CN0500001N1+02601+02301101671ADDAA124010091AG10014AY191061AY211061GF106991041031012501041001KA1240N+02021MA1999999100651MD1999999+0011MW1031REMSYN023 333 20202 58001 60104;
0137829940999991994052512004-09667-035700FM-12+008999999V0200901N00101045001CN0500001N1+02601+02001101641ADDAA106000091AG10000AY111061AY211061GF106991021021012501061001KA1240N+02071MA1999999100621MD1999999-0031MW1021REMSYN017 333 20207 59003;
0118829940999991994052518004-09667-035700FM-12+008999999V0201401N00211220001CN0500001N1+02881+02001101311ADDAA106000091AG10000AY101061AY211061GF106991021011017501001041MA1999999100301MD1999999+0021MW1021REMSYN011 333 58002;
0162829940999991994052600004-09667-035700FM-12+008999999V0200901N00151045001CN9999999N9+02221+02201101541ADDAA106034091AG10014AY191061AY211061GF106991041071012501021999KA1240M+02991MA1999999100511MD1999999-0021MW1611REMSYN023 333 10299 59002 60341;EQDQ01+000002VOVAR 
0143829940999991994052612004-09667-035700FM-12+008999999V0209991C00001045001CN0200001N1+02681+02101101541ADDAA124035091AG10014AY191061AY211061GF107991041071012501041001KA1240N+02001MA1999999100521MD1999999-0101MW1631REMSYN023 333 20200 59010 60354;
0156829940999991994052700004-09667-035700FM-12+008999999V0200901N00051045001CN9999999N9+02301+02101101451ADDAA106000091AG10000AY101061AY221061GF106991021031008001021001KA1240M+02971MA1999999100431MD1999999-0081MW1031REMSYN017 333 10297 59008;EQDQ01+000002VOVAR 
0137829940999991994052712004-09667-035700FM-12+008999999V0200901N00051045001CN0500001N1+02721+02201101511ADDAA106000091AG10000AY111061AY221061GF106991041021012501061001KA1240N+02021MA1999999100491MD1999999-0031MW1021REMSYN017 333 20202 59003;
0118829940999991994052718004-09667-035700FM-12+008999999V0200901N00461220001CN0500001N1+02901+02001101221ADDAA106000091AG10000AY101061AY201061GF103991031011008001001001MA1999999100191MD1999999-0121MW1011REMSYN011 333 59012;
0143829940999991994052812004-09667-035700FM-12+008999999V0200901N00051045001CN0500001N1+02681+02201101531ADDAA124002091AG10014AY191061AY211061GF106991041031012501041001KA1240N+02041MA1999999100511MD1999999+0021MW1031REMSYN023 333 20204 58002 60024;
0118829940999991994052818004-09667-035700FM-12+008999999V0201401N00261220001CN0500001N1+02821+02201101311ADDAA106000091AG10000AY111061AY211061GF106991021011017501001041MA1999999100301MD1999999+0111MW1021REMSYN011 333 58011;
0156829940999991994052900004-09667-035700FM-12+008999999V0209991C00001220001CN9999999N9+02301+02101101451ADDAA106000091AG10000AY111061AY211061GF106991021011017501001041KA1240M+02951MA1999999100421MD1999999+0011MW1021REMSYN017 333 10295 58001;EQDQ01+000002VOVAR 
0137829940999991994052912004-09667-035700FM-12+008999999V0200901N00151045001CN0500001N1+02781+02001101511ADDAA106000091AG10000AY111061AY211061GF106991021021017501041001KA1240N+02001MA1999999100491MD1999999-0021MW1031REMSYN017 333 20200 59002;
0118829940999991994052918004-09667-035700FM-12+008999999V0200901N00151220001CN0500001N1+02871+02001101301ADDAA106000091AG10000AY101061AY211061GF106991021011017501001041MA1999999100291MD1999999-0011MW1021REMSYN011 333 59001;
0156829940999991994053000004-09667-035700FM-12+008999999V0209991C00001045001CN9999999N9+02341+02101101411ADDAA106000091AG10000AY111061AY211061GF106991021021012501061011KA1240M+03001MA1999999100381MD1999999-0041MW1021REMSYN017 333 10300 59004;EQDQ01+000002VOVAR 
0137829940999991994053012004-09667-035700FM-12+008999999V0201401N00361045001CN0500001N1+02741+02001101551ADDAA106000091AG10000AY111061AY221061GF106991041021017501041001KA1240N+02061MA1999999100231MD1999999+0041MW1031REMSYN017 333 20206 58004;
0124829940999991994053018004-09667-035700FM-12+008999999V0200901N00411220001CN0500001N1+02861+02001101341ADDAA106000591AG10014AY191061AY211061GF106991041011012501001061MA1999999100331MD1999999+0041MW1031REMSYN017 333 58004 69961;
0162829940999991994053100004-09667-035700FM-12+008999999V0200901N00101220001CN9999999N9+02331+02001101611ADDAA106002091AG10014AY191061AY211061GF102991021011008001001001KA1240M+03041MA1999999100591MD1999999+0211MW1031REMSYN023 333 10304 58021 60021;EQDQ01+000002VOVAR 
0162829940999991994053112004-09667-035700FM-12+008999999V0200901N00101220001CN9999999N9+02331+02001101611ADDAA106002091AG10014AY191061AY211061GF102991021011008001001001KA1240M+03041MA1999999100591MD1999999+0211MW1031REMSYN023 333 10304 58021 60021;EQDQ01+000002VOVAR 
0118829940999991994053118004-09667-035700FM-12+008999999V0200901N00511045001CN0500001N1+02891+02001101411ADDAA106000091AG10000AY111061AY211061GF106991021011017501061001MA1999999100411MD1999999+0071MW1021REMSYN011 333 58007;
0162829940999991994060100004-09667-035700FM-12+008999999V0200901N00151045001CN9999999N9+02251+02101101701ADDAA106002091AG10013AY191061AY211061GF107991031071008001021001KA1240M+02981MA1999999100681MD1999999+0091MW1211REMSYN023 333 10298 58009 60021;EQDQ01+000002VOVAR 
0143829940999991994060112004-09667-035700FM-12+008999999V0200901N00211045001CN0500001N1+02661+02201101641ADDAA124009091AG10013AY191061AY211061GF106991041031012501061001KA1240N+02011MA1999999100621MD1999999-0021MW1031REMSYN023 333 20201 59002 60094;
0118829940999991994060118004-09667-035700FM-12+008999999V0200901N00261045001CN0500001N1+02831+02001101501ADDAA106000091AG10000AY121061AY221061GF106991021011017501061001MA1999999100491MD1999999+0091MW1031REMSYN011 333 58009;
0156829940999991994060200004-09667-035700FM-12+008999999V0200901N00151045001CN9999999N9+02301+02101101661ADDAA106000091AG10000AY111061AY211061GF106991021031017501041001KA1240M+03021MA1999999100631MD1999999-0051MW1031REMSYN017 333 10302 59005;EQDQ01+000002VOVAR 
0143829940999991994060212004-09667-035700FM-12+008999999V0201401N00261045001CN0200001N1+02581+02301101661ADDAA124005091AG10013AY191061AY211061GF107991041031012501061001KA1240N+02001MA1999999100641MD1999999+0021MW1031REMSYN023 333 20200 58002 60054;
0118829940999991994060318004-09667-035700FM-12+008999999V0201401N00101045001CN0100001N1+02401+02101101471ADDAA106000091AG10000AY101061AY221061GF106991021031012501061001MA1999999100441MD1999999+0081MW1031REMSYN011 333 58008;
0162829940999991994060400004-09667-035700FM-12+008999999V0200901N00051045001CN9999999N9+02281+02001101741ADDAA106038091AG10013AY191061AY211061GF107991041071008001021999KA1240M+02681MA1999999100721MD1999999+0141MW1601REMSYN023 333 10268 58014 60381;EQDQ01+000002VOVAR 
0143829940999991994060412004-09667-035700FM-12+008999999V0200901N00051045001CN0100001N1+02201+02001101851ADDAA124090091AG10013AY191061AY211061GF107991041071012501021999KA1240N+02001MA1999999100821MD1999999+0231MW1611REMSYN023 333 20200 58023 60904;
0178829940999991994060500004-09667-035700FM-12+008999999V0201401N001519999999N9999999N9+02301+02001101791ADDAA106001091AG10013AY191061AY211061GF106991999031012501001001KA1240M+02691MA1999999100771MD1999999+0051MW1031REMSYN023 333 10269 58005 60011;EQDQ01+000022SCOTLCQ02+000002VOVAR 
0143829940999991994060512004-09667-035700FM-12+008999999V0200901N00211045001CN0200001N1+02401+02001101831ADDAA124014091AG10013AY191061AY211061GF106991021031012501061001KA1240N+02001MA1999999100801MD1999999-0021MW1031REMSYN023 333 20200 59002 60144;
0143829940999991994060612004-09667-035700FM-12+008999999V0209991C00001045001CN0100001N1+02661+02301101901ADDAA124032091AG10013AY191061AY211061GF108991041071012501041999KA1240N+02011MA1999999100871MD1999999+0071MW1031REMSYN023 333 20201 58007 60324;
0118829940999991994060618004-09667-035700FM-12+008999999V0201401N00311045001CN0500001N1+02861+02301101661ADDAA106000091AG10000AY111061AY211061GF105991021011012501061001MA1999999100641MD1999999+0121MW1031REMSYN011 333 58012;
0143829940999991994060712004-09667-035700FM-12+008999999V0201401N00261045001CN0500001N1+02551+02201101951ADDAA124000191AG10013AY191061AY211061GF106991021011012501041001KA1240N+02041MA1999999100921MD1999999+0041MW1031REMSYN023 333 20204 58004 69924;
0143829940999991994060713004-09667-035700FM-12+008999999V0201401N00261045001CN0500001N1+02551+02201101951ADDAA124000191AG10999AY191011AY211011GF106991021011012501041001KA1240N+02041MA1999999100921MD1999999+0041MW1031REMSYN023 333 20204 58004 69924;
0096829940999991994060718004-09667-035700FM-12+008999999V0200901N001510450019N0500001N1+02781+02201101771ADDAA106000091AG10000GF106991021021012501061001MA1999999100751MD1999999+0111REMSYN011 333 58011;
0156829940999991994060800004-09667-035700FM-12+008999999V0200901N00051045001CN9999999N9+02501+02101101891ADDAA106000091AG10000AY101061AY221061GF106991021031008001061001KA1240M+02941MA1999999100861MD1999999+0061MW1031REMSYN017 333 10294 58006;EQDQ01+000002VOVAR 
0143829940999991994060812004-09667-035700FM-12+008999999V0201401N00101220001CN0500001N1+02581+02201101971ADDAA124000591AG10013AY191061AY211061GF106991041011012501001041KA1240N+02071MA1999999100941MD1999999+0021MW1031REMSYN023 333 20207 58002 69954;
0118829940999991994060818004-09667-035700FM-12+008999999V0200901N00211045001CN0200001N1+02641+01901101721ADDAA106000091AG10000AY101061AY221061GF106991021031008001061001MA1999999100691MD1999999-0061MW1031REMSYN011 333 59006;
0162829940999991994060900004-09667-035700FM-12+008999999V0200901N00101045001CN9999999N9+02281+02001101911ADDAA106000191AG10013AY191061AY211061GF106991031031012501061001KA1240M+02701MA1999999100891MD1999999+0031MW1031REMSYN023 333 10270 58003 69921;EQDQ01+000002VOVAR 
0143829940999991994060912004-09667-035700FM-12+008999999V0201801N00051045001CN0500001N1+02601+02201101941ADDAA124009091AG10013AY191061AY211061GF106991041021012501061001KA1240N+02021MA1999999100911MD1999999-0031MW1031REMSYN023 333 20202 59003 60094;
0153829940999991994060918004-09667-035700FM-12+008999999V0201401N00311220001CN0500001N1+02801+02101101651ADDAA106000091AG10000AY101061AY211061GF103991021011012501001011MA1999999100631MD1999999-0061MW1031REMSYN011 333 59006;EQDQ01+106503APOSLPQ02+999990APOSLP
0104829940999991994060921004-09667-035700FM-12+008999999V0201401N00211220001CN0200001N1+02901+01621101331ADDAG10000GF102991021021008001001001MA1999999100321MD1999999-0031REMSYN011 333 59003;EQDQ01+999990APOSP 
0172829940999991994061000004-09667-035700FM-12+008999999V0200901N00151045001CN9999999N9+02251+02201101942ADDAA106000091AG10000AY101061AY221061GF106991031031008001061001KA1240M+03001MA1999999100911MD1999999+0021MW1031REMSYN017 333 10300 58002;EQDQ01+101943APOSLPQ02+000002VOVAR 
0143829940999991994061012004-09667-035700FM-12+008999999V0201401N00051045001CN0200001N1+02541+02201101941ADDAA124002091AG10013AY191061AY211061GF106991031031008001061001KA1240N+02071MA1999999100911MD1999999+0001MW1031REMSYN023 333 20207 58000 60024;
0143829940999991994061112004-09667-035700FM-12+008999999V0200901N00101045001CN0500001N1+02741+02201101791ADDAA124000591AG10013AY191061AY211061GF106991021021012501061001KA1240N+02091MA1999999100771MD1999999-0141MW1031REMSYN023 333 20209 59014 69954;
0107829940999991994061118004-09667-035700FM-12+008999999V0200901N001510450019N0500001N1+02761+02101101521ADDAG10000AY111061AY211061GF105991021021012501061001MA1999999100501MD1999999-0171MW1031REMSYN011 333 59017;
0156829940999991994061200004-09667-035700FM-12+008999999V0201801N00051045001CN9999999N9+02301+02201101671ADDAA106000091AG10000AY101061AY211061GF105991021011012501061001KA1240M+03021MA1999999100641MD1999999-0141MW1011REMSYN017 333 10302 59014;EQDQ01+000002VOVAR 
0143829940999991994061212004-09667-035700FM-12+008999999V0200901N00311045001CN0200001N1+02421+02101101691ADDAA124004091AG10013AY191061AY211061GF107991041021012501041001KA1240N+02031MA1999999100661MD1999999-0111MW1031REMSYN023 333 20203 59011 60044;
0118829940999991994061218004-09667-035700FM-12+008999999V0200901N00151220001CN0500001N1+02841+02101101471ADDAA106000091AG10000AY101061AY211061GF105991021011017501001041MA1999999100461MD1999999-0041MW1021REMSYN011 333 59004;
0130829940999991994061312004-09667-035700FM-12+008999999V0201401N00211045001CN0500001N1+02701+02101101701ADDAA124001091AG10013AY191061AY211061GF105991021021012501061001MA1999999100671MD1999999+0011MW1021REMSYN023 333 22020 58001 69994;
0118829940999991994061318004-09667-035700FM-12+008999999V0201801N00151045001CN0500001N1+02801+02101101501ADDAA106000091AG10000AY101061AY211061GF105991021011017501041001MA1999999100491MD1999999+0031MW1021REMSYN011 333 58003;
0156829940999991994061400004-09667-035700FM-12+008999999V0200901N00101007501CN9999999N9+02501+02101101701ADDAA106000091AG10000AY101061AY221061GF105991051021008001001001KA1240M+03061MA1999999100681MD1999999+0031MW1031REMSYN017 333 10306 58003;EQDQ01+000002VOVAR 
0143829940999991994061412004-09667-035700FM-12+008999999V0202301N00051045001CN0200001N1+02551+02101101731ADDAA124002091AG10013AY191061AY211061GF107991021021012501041001KA1240N+02071MA1999999100721MD1999999+0051MW1031REMSYN023 333 20207 58005 60024;
0156829940999991994061500004-09667-035700FM-12+008999999V0200501N00051007501CN9999999N9+02401+02101101791ADDAA106000091AG10000AY101061AY221061GF105991051021008001001001KA1240M+03011MA1999999100771MD1999999+0091MW1031REMSYN017 333 10301 58009;EQDQ01+000002VOVAR 
0143829940999991994061512004-09667-035700FM-12+008999999V0201401N00211045001CN0500001N1+02691+02101101811ADDAA124000391AG10013AY191061AY211061GF106991041021012501061001KA1240N+02101MA1999999100781MD1999999+0061MW1031REMSYN023 333 20210 58006 69934;
0118829940999991994061518004-09667-035700FM-12+008999999V0200901N00511220001CN0500001N1+02901+02001101601ADDAA106000091AG10000AY101061AY201061GF103991031011012501001001MA1999999100591MD1999999+0031MW1021REMSYN011 333 58003;
0156829940999991994061600004-09667-035700FM-12+008999999V0200901N00211045001CN9999999N9+02281+02101101811ADDAA106000091AG10000AY101061AY221061GF106991031031008001061001KA1240M+03101MA1999999100781MD1999999+0011MW1031REMSYN017 333 10310 58001;EQDQ01+000002VOVAR 
0143829940999991994061612004-09667-035700FM-12+008999999V0201401N00311045001CN0200001N1+02301+02101101841ADDAA124000391AG10013AY191061AY211061GF106991031031012501061001KA1240N+02001MA1999999100811MD1999999+0031MW1031REMSYN023 333 20200 58003 69934;
0124829940999991994061618004-09667-035700FM-12+008999999V0200901N00211045001CN0100001N1+02601+02401101561ADDAA106007091AG10013AY191061AY211061GF108991021071012501021999MA1999999100541MD1999999-0051MW1611REMSYN017 333 59005 60071;
0162829940999991994061700004-09667-035700FM-12+008999999V0200901N00211045001CN9999999N9+02401+02101101711ADDAA106001091AG10000AY101061AY221061GF106991031031008001061001KA1240M+02721MA1999999100681MD1999999-0101MW1031REMSYN023 333 10272 59010 60011;EQDQ01+000002VOVAR 
0137829940999991994061812004-09667-035700FM-12+008999999V0200901N00051045001CN0500001N1+02501+02001101731ADDAA106000091AG10000AY101061AY221061GF106991021031012501061001KA1240N+02141MA1999999100711MD1999999+0001MW1031REMSYN017 333 20214 58000;
0124829940999991994061818004-09667-035700FM-12+008999999V0200901N00211045001CN0100001N1+02591+02001101471ADDAA106012091AG10013AY191061AY211061GF106991021071008001021001MA1999999100381MD1999999-0201MW1031REMSYN017 333 59020 60121;
0162829940999991994061900004-09667-035700FM-12+008999999V0200901N00051045001CN9999999N9+02301+02101101561ADDAA106005091AG10013AY191061AY211061GF107991031071008001021001KA1240M+02671MA1999999100531MD1999999-0121MW1611REMSYN023 333 10267 59012 60051;EQDQ01+000002VOVAR 
0143829940999991994061912004-09667-035700FM-12+008999999V0201401N00311045001CN0100001N1+02251+02001101751ADDAA124037091AG10013AY191061AY211061GF107991031071008001021999KA1240N+02001MA1999999100721MD1999999+0011MW1611REMSYN023 333 20200 58001 60374;
0143829940999991994062012004-09667-035700FM-12+008999999V0201801N00101045001CN0100001N1+02241+02101101671ADDAA124049091AG10013AY191061AY211061GF108991041071012501021999KA1240N+01981MA1999999100631MD1999999-0091MW1611REMSYN023 333 20198 59009 60494;
0124829940999991994062018004-09667-035700FM-12+008999999V0200901N00101045001CN0100001N1+02261+02201101461ADDAA106055091AG10013AY191061AY211061GF108991041071012501021999MA1999999100431MD1999999+0061MW1211REMSYN017 333 58006 60551;
0143829940999991994062112004-09667-035700FM-12+008999999V0200901N00211220001CN0500001N1+02561+02101101661ADDAA124063091AG10013AY191061AY211061GF104991021011012501061001KA1240N+01971MA1999999100631MD1999999+0001MW1031REMSYN023 333 20197 58000 60634;
0118829940999991994062118004-09667-035700FM-12+008999999V0200901N00151105001CN0500001N1+02741+02101101341ADDAA106000091AG10000AY111061AY211061GF106991021021012501061041MA1999999100311MD1999999-0121MW1021REMSYN011 333 59012;
0162829940999991994062200004-09667-035700FM-12+008999999V0200901N00151045001CN9999999N9+02381+02001101461ADDAA106000591AG10013AY191061AY211061GF106991031031008001061001KA1240M+02801MA1999999100431MD1999999-0281MW1031REMSYN023 333 10280 59028 69951;EQDQ01+000002VOVAR 
0143829940999991994062212004-09667-035700FM-12+008999999V0201401N00211045001CN0200001N1+02401+02001101681ADDAA124017091AG10013AY191061AY211061GF107991041021012501061001KA1240N+02001MA1999999100651MD1999999+0021MW1031REMSYN023 333 20200 58002 60174;
0124829940999991994062218004-09667-035700FM-12+008999999V0200901N00511220001CN0500001N1+02801+02201101321ADDAA106002091AG10013AY191061AY211061GF103991021011012501001011MA1999999100311MD1999999+0001MW1021REMSYN017 333 58000 60021;
0156829940999991994062300004-09667-035700FM-12+008999999V0200901N00101220001CN9999999N9+02401+02101101601ADDAA106000091AG10000AY101061AY221061GF104991041021008001001001KA1240M+02971MA1999999100571MD1999999+0141MW1031REMSYN017 333 10297 58014;EQDQ01+000002VOVAR 
0124829940999991994062312004-09667-035700FM-12+008999999V0201401N00211045001CN0500001N1+02641+02101101621ADDAA124002091AG10000AY111061AY211061GF105991021011012501061001MA1999999100591MD1999999-0061MW1031REMSYN017 333 59006 60024;
0118829940999991994062318004-09667-035700FM-12+008999999V0200901N00311045001CN0500001N1+02771+02001101281ADDAA106000091AG10000AY111061AY221061GF105991021021017501041001MA1999999100271MD1999999-0041MW1021REMSYN011 333 59004;
0156829940999991994062400004-09667-035700FM-12+008999999V0200901N00101007501CN9999999N9+02441+01901101401ADDAA106000091AG10000AY101061AY221061GF105991051021008001001001KA1240M+02991MA1999999100381MD1999999-0191MW1031REMSYN017 333 10299 59019;EQDQ01+000002VOVAR 
0156829940999991994062500004-09667-035700FM-12+008999999V0200501N00211007501CN9999999N9+02481+02101101501ADDAA106000091AG10000AY101061AY221061GF105991051021008001001001KA1240M+02881MA1999999100471MD1999999+0091MW1031REMSYN017 333 10288 58009;EQDQ01+000002VOVAR 
0137829940999991994062512004-09667-035700FM-12+008999999V0200901N00151007501CN0500001N1+02581+02001101471ADDAA106000091AG10000AY101061AY221061GF105991051021008001001001KA1240N+02191MA1999999100451MD1999999-0041MW1031REMSYN017 333 20219 59004;
0126829940999991994062521004-09667-035700FM-12+008999999V0200901N00511045001CN0100001N1+02411+02331101291ADDAG10000AY121031AY201031GF108991041021004501031001MA1999999100261MD1999999+0011MW1601REMSYN011 333 58001;EQDQ01+999990APOSP 
0137829940999991994062612004-09667-035700FM-12+008999999V0209999999999045001CN0500001N1+02701+02101101671ADDAA106000091AG10000AY101061AY211061GF105991021021017501061001KA1240N+02081MA1999999100651MD1999999+0201MW1021REMSYN017 333 20208 58020;
0118829940999991994062618004-09667-035700FM-12+008999999V0200901N00101220001CN0500001N1+02821+02201101381ADDAA106000091AG10000AY101061AY201061GF104991021021017501061001MA1999999100371MD1999999+0071MW1021REMSYN011 333 58007;
0156829940999991994062700004-09667-035700FM-12+008999999V0200901N00101220001CN9999999N9+02301+02101101601ADDAA106000091AG10000AY101061AY201061GF104991021011012501041001KA1240M+03041MA1999999100571MD1999999+0051MW1021REMSYN017 333 10304 58005;EQDQ01+000002VOVAR 
0143829940999991994062712004-09667-035700FM-12+008999999V0200501N00051045001CN0100001N1+02521+02001101761ADDAA124000191AG10013AY191061AY211061GF108991041071012501041999KA1240N+02001MA1999999100741MD1999999+0091MW1031REMSYN023 333 20200 58009 69914;
0124829940999991994062718004-09667-035700FM-12+008999999V0200901N00101045001CN0100001N1+02681+02301101541ADDAA106002091AG10013AY191061AY211061GF108991021031012501061001MA1999999100521MD1999999+0151MW1031REMSYN017 333 58015 60021;
0162829940999991994062800004-09667-035700FM-12+008999999V0200901N00211045001CN9999999N9+02401+02101101761ADDAA106009091AG10013AY191061AY211061GF106991021071008001021001KA1240M+02781MA1999999100731MD1999999+0161MW1611REMSYN023 333 10278 58016 60091;EQDQ01+000002VOVAR 
0123829940999991994063012004-09667-035700FM-12+008999999V0201401N00311045001CN0500001N1+02601+02201101781ADDAA124009091AG10013AY191061AY211061GF105991041021012501041001KA1240N+02031MA1999999100751MW1031REMSYN017 333 20203 60094;
0104829940999991994063018004-09667-035700FM-12+008999999V0200901N00311045001CN0500001N1+02641+02101101571ADDAA106001091AG10013AY191061AY211061GF106991021021012501041001MA1999999100551MW1031REMSYN011 333 60011;
0162829940999991994070100004-09667-035700FM-12+008999999V0200901N00051045001CN9999999N9+02381+02101101781ADDAA106018091AG10013AY191061AY211061GF107991031071008001021001KA1240M+02901MA1999999100751MD1999999+0001MW1611REMSYN023 333 10290 58000 60181;EQDQ01+000002VOVAR 
0124829940999991994070118004-09667-035700FM-12+008999999V0201401N00261045001CN0200001N1+02721+02001101511ADDAA106003091AG10013AY191061AY211061GF108991031071008001021001MA1999999100481MD1999999-0071MW1631REMSYN017 333 59007 60031;
0123829940999991994070212004-09667-035700FM-12+008999999V0209991C00001045001CN0500001N1+02561+02401101741ADDAA124019091AG10013AY191061AY211061GF106991041021012501061001KA1240N+01971MA1999999100711MW1611REMSYN017 333 20197 60194;
0098829940999991994070218004-09667-035700FM-12+008999999V0200901N00311220001CN0500001N1+02741+02201101551ADDAA106000091AG10000AY111061AY211061GF104991021011012501001041MA1999999100531MW1021REMSYN005 333;
0156829940999991994070500004-09667-035700FM-12+008999999V0200501N00051045001CN9999999N9+02401+02001101781ADDAA106000091AG10000AY101061AY221061GF106991021031008001061001KA1240M+02861MA1999999100751MD1999999+0031MW1031REMSYN017 333 10286 58003;EQDQ01+000002VOVAR 
0143829940999991994070512004-09667-035700FM-12+008999999V0200901N00311045001CN0500001N1+02601+02201101791ADDAA124007091AG10000AY111061AY211061GF105991021021012501061001KA1240N+02021MA1999999100771MD1999999+0051MW1031REMSYN023 333 20202 58005 60074;
0143829940999991994070612004-09667-035700FM-12+008999999V0201401N00151045001CN0200001N1+02621+02301101641ADDAA124014091AG10013AY191061AY211061GF107991021031012501061001KA1240N+02001MA1999999100621MD1999999-0151MW1031REMSYN023 333 20200 59015 60144;
0118829940999991994070618004-09667-035700FM-12+008999999V0200901N00311045001CN0500001N1+02781+02101101501ADDAA106000091AG10000AY111061AY211061GF106991021021012501061001MA1999999100481MD1999999-0041MW1031REMSYN011 333 59004;
0145829940999991994070700004-09667-035700FM-12+008999999V0200901N00051007501CN9999999N9+02471+02101101581ADDAG10000AY101061AY221061GF105991051021008001001001KA1240M+02881MA1999999100561MD1999999-0161MW1031REMSYN017 333 10288 59016;EQDQ01+000002VOVAR 
0124829940999991994070718004-09667-035700FM-12+008999999V0200901N00311045001CN0200001N1+02681+02301101541ADDAA106002091AG10013AY191061AY211061GF107991021021012501061001MA1999999100521MD1999999+0041MW1031REMSYN017 333 58004 60021;
0156829940999991994070900004-09667-035700FM-12+008999999V0200901N00051045001CN9999999N9+02401+02101101861ADDAA106000091AG10000AY101061AY221061GF106991021031008001061001KA1240M+02861MA1999999100831MD1999999+0021MW1031REMSYN017 333 10286 58002;EQDQ01+000002VOVAR 
0130829940999991994070912004-09667-035700FM-12+008999999V0209991C00001045001CN0200001N1+02361+02101101901ADDAA124999929AG10013AY191061AY211061GF107991041021012501061001MA1999999100871MD1999999+0101MW1021REMSYN023 333 20/// 58010 69904;
0124829940999991994070918004-09667-035700FM-12+008999999V0201801N00051045001CN0500001N1+02751+02301101671ADDAA106000191AG10000AY101061AY211061GF106991021011012501061001MA1999999100651MD1999999+0131MW1011REMSYN017 333 58013 69911;
0156829940999991994071000004-09667-035700FM-12+008999999V0209991C000019999999N9999999N9+02281+02201101891ADDAA106000091AG10000AY111061AY211061GF106991021001012501041041KA1240M+02941MA1999999100861MD1999999+0031MW1031REMSYN017 333 10294 58003;EQDQ01+000002VOVAR 
0143829940999991994071012004-09667-035700FM-12+008999999V0200901N00151045001CN0500001N1+02501+02001101941ADDAA124000191AG10000AY111061AY211061GF106991021011012501061001KA1240N+01921MA1999999100911MD1999999+0041MW1031REMSYN023 333 20192 58004 69914;
0118829940999991994071018004-09667-035700FM-12+008999999V0200901N00311045001CN0200001N1+02601+02101101701ADDAA106000091AG10000AY121061AY221061GF107991021031017501041001MA1999999100681MD1999999+0031MW1031REMSYN011 333 58003;
0162829940999991994071100004-09667-035700FM-12+008999999V0201801N00101045001CN9999999N9+02301+02201101851ADDAA106000191AG10013AY191061AY211061GF106991021031012501061001KA1240M+02881MA1999999100821MD1999999-0041MW1031REMSYN023 333 10288 59004 69921;EQDQ01+000002VOVAR 
0143829940999991994071112004-09667-035700FM-12+008999999V0200901N00211045001CN0500001N1+02661+02201101221ADDAA124004091AG10013AY191061AY211061GF106991041021012501061001KA1240N+01951MA1999999101191MD1999999-0281MW1031REMSYN023 333 20195 59028 60044;
0124829940999991994071118004-09667-035700FM-12+008999999V0200901N00151045001CN0100001N1+02641+02401101981ADDAA106999929AG10013AY191061AY211061GF108991041031012501061001MA1999999100961MD1999999+0281MW1031REMSYN017 333 58028 69901;
0162829940999991994071212004-09667-035700FM-12+008999999V0200501N00151045001CN0100001N1+02401+02201101111ADDAA124005091AG10013AY191061AY211061GF108991041031012501041999KA1240M+99999MA1999999101081MD1999999-0111MW1031REMSYN023 333 10192 59011 60054;EQDQ01 +01922ATMX  
0124829940999991994071218004-09667-035700FM-12+008999999V0203601N00101045001CN0200001N1+02581+02301101881ADDAA106008091AG10013AY191061AY211061GF107991021071012501041001MA1999999100851MD1999999-0111MW1211REMSYN017 333 59011 60081;
0143829940999991994071312004-09667-035700FM-12+008999999V0200901N00311045001CN0500001N1+02501+02201101981ADDAA124008091AG10013AY191061AY211061GF105991021021012501041001KA1240N+01891MA1999999100951MD1999999-0131MW1031REMSYN023 333 20189 59013 60084;
0124829940999991994071318004-09667-035700FM-12+008999999V0201401N00151045001CN0500001N1+02631+02101101821ADDAA106000391AG10013AY191061AY211061GF106991021031012501061001MA1999999100721MD1999999-0061MW1021REMSYN017 333 59006 69931;
0143829940999991994071412004-09667-035700FM-12+008999999V0200501N00051045001CN0100001N1+02241+02101101101ADDAA124015091AG10013AY191061AY211061GF108991041071012501021999KA1240N+01861MA1999999100961MD1999999+0011MW1031REMSYN023 333 20186 58001 60154;
0156829940999991994071500004-09667-035700FM-12+008999999V0201401N00151045001CN9999999N9+02301+02101101921ADDAA106000091AG10000AY101061AY221061GF106991031031008001061001KA1240M+02821MA1999999100891MD1999999-0161MW1031REMSYN017 333 10282 59016;EQDQ01+000002VOVAR 
0124829940999991994071518004-09667-035700FM-12+008999999V0201901N00311045001CN0200001N1+02601+02001101761ADDAA106001091AG10013AY191061AY211061GF106991021021008001041001MA1999999100741MD1999999+0151MW1031REMSYN017 333 58015 69991;
0162829940999991994071600004-09667-035700FM-12+008999999V0200901N00211045001CN9999999N9+02381+02001101711ADDAA106002091AG10013AY191061AY211061GF106991021021008001061001KA1240M+02601MA1999999100681MD1999999-0211MW1031REMSYN023 333 10260 59021 60021;EQDQ01+000002VOVAR 
0143829940999991994071612004-09667-035700FM-12+008999999V0201401N00261045001CN0200001N1+02501+02101101991ADDAA124011091AG10013AY191061AY211061GF106991031021008001061001KA1240N+01881MA1999999100971MD1999999+0071MW1031REMSYN023 333 20188 58007 60114;
0156829940999991994071700004-09667-035700FM-12+008999999V0200901N00151045001CN9999999N9+02441+02001101931ADDAA106000091AG10000AY101061AY221061GF106991021031008001061001KA1240M+02841MA1999999100911MD1999999+0231MW1031REMSYN017 333 10284 58023;EQDQ01+000002VOVAR 
0137829940999991994071712004-09667-035700FM-12+008999999V0201401N00211045001CN0500001N1+02581+02001101911ADDAA106000091AG10000AY101061AY221061GF106991021021012501041001KA1240N+01991MA1999999100881MD1999999-0091MW1031REMSYN017 333 20199 59009;
0118829940999991994071718004-09667-035700FM-12+008999999V0200501N00411012001CN0500001N1+02791+02001101481ADDAA106000091AG10000AY101061AY221061GF105991051021012501001001MA1999999100461MD1999999-0121MW1031REMSYN011 333 59012;
0162829940999991994071800004-09667-035700FM-12+008999999V0200901N00151045001CN9999999N9+02381+02101101881ADDAA106000391AG10013AY191061AY211061GF106991021021008001061001KA1240M+02881MA1999999100851MD1999999+0171MW1031REMSYN023 333 10288 58017 69931;EQDQ01+000002VOVAR 
0143829940999991994071812004-09667-035700FM-12+008999999V0200901N00051045001CN0200001N1+02401+02001101911ADDAA124001091AG10013AY191061AY211061GF106991021031008001061001KA1240N+01801MA1999999100841MD1999999-0041MW1031REMSYN023 333 20180 59004 69994;
0100829940999991994071912004-09667-035700FM-12+008999999V0201401N00511007501CN0200001N1+02381+01731101681ADDAA106000091AG10000GF106991061021008001001001KA1240N+02101MD1999999-0011REMSYN017 333 20210 59001;
0124829940999991994071918004-09667-035700FM-12+008999999V0201401N00311045001CN0200001N1+02661+02101101691ADDAA106000191AG10013AY191061AY211061GF106991021031008001061001MA1999999100661MD1999999-0021MW1031REMSYN017 333 59002 69921;
0156829940999991994072000004-09667-035700FM-12+008999999V0200901N00101007501CN9999999N9+02441+02001101891ADDAA106000091AG10000AY101061AY221061GF106991061031008001001001KA1240M+02701MA1999999100871MD1999999+0051MW1031REMSYN017 333 10270 58005;EQDQ01+000002VOVAR 
0118829940999991994072018004-09667-035700FM-12+008999999V0200901N00411220001CN0500001N1+02681+02101101721ADDAA106000091AG10000AY101061AY201061GF103991031021008001001001MA1999999100771MD1999999+0041MW1011REMSYN011 333 58004;
0156829940999991994072100004-09667-035700FM-12+008999999V0200501N00101045001CN9999999N9+02381+02101101941ADDAA106000091AG10000AY101061AY221061GF107991021031008001061001KA1240M+02771MA1999999100911MD1999999+0041MW1031REMSYN017 333 10277 58004;EQDQ01+000002VOVAR 
0137829940999991994072112004-09667-035700FM-12+008999999V0201401N00151045001CN0200001N1+02301+02101101881ADDAA106000091AG10000AY101061AY221061GF106991031031012501061001KA1240N+02101MA1999999100821MD1999999+0031MW1031REMSYN017 333 20210 58003;
0118829940999991994072118004-09667-035700FM-12+008999999V0200901N00361007501CN0500001N1+02801+02001101671ADDAA106000091AG10000AY101061AY221061GF105991051021008001001001MA1999999100651MD1999999-0051MW1031REMSYN011 333 59005;
0156829940999991994072200004-09667-035700FM-12+008999999V0200901N00101220001CN9999999N9+02451+02171101831ADDAA106000091AG10000AY101061AY221061GF104991041021008001001001KA1240M+02881MA1999999100811MD1999999-0061MW1031REMSYN017 333 10288 59006;EQDQ01+000002VOVAR 
0143829940999991994072312004-09667-035700FM-12+008999999V0201801N00051045001CN0100001N1+02241+02101101871ADDAA124018091AG10013AY191061AY211061GF108991041071012501021999KA1240N+01871MA1999999100841MD1999999+0141MW1211REMSYN023 333 20187 58014 60184;
0124829940999991994072318004-09667-035700FM-12+008999999V0200901N00101045001CN0500001N1+02561+02401101661ADDAA106002091AG10013AY191061AY211061GF106991041031012501041001MA1999999100641MD1999999+0101MW1031REMSYN017 333 58010 60021;
0156829940999991994072400004-09667-035700FM-12+008999999V0209991C00001045001CN9999999N9+02201+02101101921ADDAA106000091AG10000AY111061AY211061GF107991021031012501041001KA1240M+02661MA1999999100881MD1999999+0151MW1031REMSYN017 333 10266 58015;EQDQ01+000002VOVAR 
0118829940999991994072418004-09667-035700FM-12+008999999V0201401N00361045001CN0500001N1+02701+02001101651ADDAA106000091AG10000AY111061AY211061GF106991021011017501041001MA1999999100641MD1999999+0001MW1021REMSYN011 333 58000;
0143829940999991994072512004-09667-035700FM-12+008999999V0201401N00051045001CN0100001N1+02301+02101101891ADDAA124999929AG10013AY191061AY211061GF108991041071012501021999KA1240N+02001MA1999999100861MD1999999+0041MW1031REMSYN023 333 20200 58004 69904;
0124829940999991994072518004-09667-035700FM-12+008999999V0200501N00051045001CN0100001N1+02401+02301101611ADDAA106005091AG10013AY191061AY211061GF108991041071012501021999MA1999999100581MD1999999-0061MW1031REMSYN017 333 59006 60051;
0156829940999991994072600004-09667-035700FM-12+008999999V0209991C00001045001CN9999999N9+02161+02101101801ADDAA106000091AG10000AY121061AY221061GF108991041031012501041001KA1240M+02501MA1999999100761MD1999999-0041MW1031REMSYN017 333 10250 59004;EQDQ01+000002VOVAR 
0143829940999991994072612004-09667-035700FM-12+008999999V0201401N00151045001CN0100001N1+02221+02001101891ADDAA124005091AG10013AY191061AY211061GF108991041031012501041999KA1240N+01881MA1999999100851MD1999999-0011MW1031REMSYN023 333 20188 59001 60054;
0124829940999991994072618004-09667-035700FM-12+008999999V0200901N00311045001CN0500001N1+02681+02101101621ADDAA106000191AG10013AY191061AY211061GF106991021021012501041001MA1999999100591MD1999999+0011MW1031REMSYN017 333 58001 69911;
