0101832360999991994010112004-12150-045000FM-12+044099999V0202701N00101220001CN0500001N9+02801+02201101191ADDAA106000091AG14000GF104991011011008001001041MA1999999096281MD1999999+0041REMSYN016 333 20/// 58004
0129832360999991994010212004-12150-045000FM-12+044099999V0201401N00101105001CN0200001N9+02441+02051101261ADDAA124003091AG10003AY161061AY261061GF105991011011008001061061MA1999999096311MD1999999+0031MW1021REMSYN022 333 20/// 58003 60034
0095832360999991994010218004-12150-045000FM-12+044099999V0200501N00151220001CN0500001N9+03081+01951100601ADDAA106000091AG14000GF103991021011008001001021MA1999999095721MD1999999-0181REMSYN010 333 59018
0101832360999991994010312004-12150-045000FM-12+044099999V0202301N00101105001CN0200001N9+02741+02181100901ADDAA106000091AG14000GF106991021021008001051041MA1999999095991MD1999999-0181REMSYN016 333 20/// 59018
0095832360999991994010318004-12150-045000FM-12+044099999V0203201N00151045001CN0100001N9+02841+02261100691ADDAA106000091AG14000GF108991041051008001021999MA1999999095781MD1999999+0061REMSYN010 333 58006
0101832360999991994010412004-12150-045000FM-12+044099999V0202301N00101220001CN0500001N9+02641+02141101041ADDAA106000091AG14000GF103991031021008001001001MA1999999096121MD1999999+0131REMSYN016 333 20/// 58013
0118832360999991994010512004-12150-045000FM-12+044099999V0202701N00101007501CN0100001N9+02521+02191101181ADDAA106000091AA224001091AG10000GF107991051051008001021001MA1999999096241MD1999999+0121REMSYN022 333 20/// 58012 60014
0117832360999991994010518004-12150-045000FM-12+044099999V0201801N00261007501CN0100001N9+02761+02211100831ADDAA106000091AG15000AY101061AY221061GF108991051071008001021999MA1999999095911MD1999999+0091MW1151REMSYN010 333 58009
0129832360999991994010612004-12150-045000FM-12+044099999V0200901N00101007501CN0100001N9+02401+02111101031ADDAA124047091AG10003AY161061AY261061GF108991051051008001021999MA1999999096271MD1999999+0031MW1021REMSYN022 333 20/// 58003 60474
0095832360999991994010618004-12150-045000FM-12+044099999V0200501N00101045001CN0200001N9+02631+02141100861ADDAA106000091AG14000GF107991031021008001031061MA1999999095931MD1999999+0021REMSYN010 333 58002
0101832360999991994010712004-12150-045000FM-12+044099999V0200501N00151045001CN0200001N9+02501+02171101061ADDAA106000091AG14000GF106991041041008001061051MA1999999096131MD1999999-0141REMSYN016 333 20/// 59014
0123832360999991994010718004-12150-045000FM-12+044099999V0201801N00101007501CN0200001N9+02601+02351100651ADDAA106009091AG10003AY161061AY261061GF106991051051008001071061MA1999999095731MD1999999-0201MW1151REMSYN016 333 59020 60091
0129832360999991994010812004-12150-045000FM-12+044099999V0201801N00101007501CN0200001N9+02421+02051101101ADDAA124011091AG10003AY161061AY261061GF106991051021008001071021MA1999999096161MD1999999+0031MW1021REMSYN022 333 20/// 58003 60114
0117832360999991994010818004-12150-045000FM-12+044099999V0201801N00101007501CN0200001N9+02881+02321100581ADDAA106000091AG15000AY121061AY221061GF108991051051008001061041MA1999999095681MD1999999-0051MW1151REMSYN010 333 59005
0129832360999991994010912004-12150-045000FM-12+044099999V0202301N00101007501CN0200001N9+02451+02191101061ADDAA124004091AG13000AY121061AY221061GF108991061061008001041051MA1999999096121MD1999999-0041MW1151REMSYN022 333 20/// 59004 60044
0123832360999991994010918004-12150-045000FM-12+044099999V0201801N00151045001CN0200001N9+02761+02211100611ADDAA106006091AG10003AY161061AY261061GF106991041031008001061051MA1999999095711MD1999999+0031MW1021REMSYN016 333 58003 60061
0129832360999991994011012004-12150-045000FM-12+044099999V0202301N00101007501CN0100001N9+02391+02131101051ADDAA106017091AG10003AY161061AY261061GF108991061071008001051999MA1999999096111MD1999999-0011MW1021REMSYN022 333 20/// 59001 60171
0095832360999991994011018004-12150-045000FM-12+044099999V0200901N00151007501CN0200001N9+03031+02161100481ADDAA106000091AG14000GF105991051021008001051001MA1999999095601MD1999999-0111REMSYN010 333 59011
0101832360999991994011112004-12150-045000FM-12+044099999V0202701N00101007501CN0200001N9+02501+02211101101ADDAA106000091AG14000GF108991071071008001051999MA1999999096161MD1999999+0051REMSYN016 333 20/// 58005
0117832360999991994011118004-12150-045000FM-12+044099999V0200901N00151045001CN0200001N9+02921+02191100691ADDAA106000091AG15000AY121061AY221061GF106991041051008001071061MA1999999095791MD1999999+0191MW1151REMSYN010 333 58019
0148832360999991994011212004-12150-045000FM-12+044099999V0201801N00101007501CN0200001N9+02461+02111101141ADDAA124000591AG10000AY151061AY251061GF108991999021008001081999MA1999999096201MD1999999+0041MW1021REMSYN022 333 20/// 58004 69954EQDQ01+000082SCOTLC
0095832360999991994011218004-12150-045000FM-12+044099999V0202701N00101007501CN0200001N9+02901+02461100781ADDAA106000091AG14000GF108991071051008001061999MA1999999095871MD1999999+0081REMSYN010 333 58008
0101832360999991994011312004-12150-045000FM-12+044099999V0202701N00151045001CN0200001N9+02641+02311101081ADDAA106000091AG14000GF106991041021008001051061MA1999999096151MD1999999-0051REMSYN016 333 20/// 59005
0095832360999991994011318004-12150-045000FM-12+044099999V0203601N00151007501CN0200001N9+02941+02381100591ADDAA106000091AG14000GF108991061041008001071999MA1999999095691MD1999999-0171REMSYN010 333 59017
0129832360999991994011412004-12150-045000FM-12+044099999V0201801N00101012001CN0100001N9+02271+02121101151ADDAA124031091AG10003AY161061AY261061GF108991071081008001061999MA1999999096201MD1999999+0051MW1101REMSYN022 333 20/// 58005 60314
0136832360999991994011418004-12150-045000FM-12+044099999V0201801N00101007501CN0200001N9+02831+02361100711ADDAA106000091AG15000AY121061AY221061GF108991999061008001051999MA1999999095801MD1999999+0111MW1151REMSYN010 333 58011EQDQ01+000082SCOTLC
0118832360999991994011512004-12150-045000FM-12+044099999V0201801N00101045001CN0200001N9+02421+02191101221ADDAA106000091AA224008091AG10000GF106991041021008001071041MA1999999096261MD1999999+0061REMSYN022 333 20/// 58006 60084
0095832360999991994011518004-12150-045000FM-12+044099999V0200501N00151007501CN0200001N9+02891+02371100691ADDAA106000091AG14000GF106991051031008001061051MA1999999095771MD1999999-0031REMSYN010 333 59003
0101832360999991994011612004-12150-045000FM-12+044099999V0202301N00151007501CN0200001N9+02501+02231101151ADDAA106000091AG14000GF107991051021008001051021MA1999999096211MD1999999-0051REMSYN016 333 20/// 59005
0095832360999991994011618004-12150-045000FM-12+044099999V0203601N00101045001CN0200001N9+03051+02451100621ADDAA106000091AG14000GF105991041031008001071021MA1999999095731MD1999999-0041REMSYN010 333 59004
0101832360999991994011712004-12150-045000FM-12+044099999V0200501N00101007501CN0200001N9+02671+02201100941ADDAA106000091AG14000GF106991051021008001061041MA1999999096021MD1999999-0191REMSYN016 333 20/// 59019
0117832360999991994011718004-12150-045000FM-12+044099999V0200501N00151007501CN0200001N9+03001+02081100491ADDAA106000091AG15000AY121061AY221061GF107991061051008001071051MA1999999095601MD1999999-0131MW1151REMSYN010 333 59013
0129832360999991994011812004-12150-045000FM-12+044099999V0202301N00101012001CN0200001N9+02581+02211100961ADDAA124005091AG13000AY121061AY221061GF108991071081008001061999MA1999999096041MD1999999+0021MW1101REMSYN022 333 20/// 58002 60054
0114832360999991994011818004-12150-045000FM-12+044099999V0203601N00101007501CN0200001N9+02761+02251100611ADDAA106000091AG14000GF108991999031008001071999MA1999999095701MD1999999+0101REMSYN010 333 58010EQDQ01+000082SCOTLC
0107832360999991994011912004-12150-045000FM-12+044099999V0200901N00101045001CN0001001N9+02581+02231101091ADDAA124011091AG10000GF106991041021008001071051MA1999999096161MD1999999+0121REMSYN022 333 20/// 58012 60114
0123832360999991994012018004-12150-045000FM-12+044099999V0200501N00151007501CN0200001N9+03041+02361100751ADDAA106000391AG10000AY151061AY251061GF105991051021008001001001MA1999999095851MD1999999-0041MW1021REMSYN016 333 59004 69931
0095832360999991994012412004-12150-045000FM-12+044099999V0203601N00101045001CN0200001N9+02641+02181101241ADDAA106000091AG14000GF105991021041008001061001MA1999999096301MD1999999+0171REMSYN010 333 58017
0142832360999991994012418004-12150-045000FM-12+044099999V0203601N00411002101CN0005001N9+02561+02351101291ADDAA106018091AG10003AY161061AY211061GF108991081051002501999999MA1999999100752MD1999999-0081MW1621REMSYN016 333 59008 60181EQDQ01+100753APOSP 
0123832360999991994012512004-12150-045000FM-12+044099999V0202701N00151045001CN0200001N9+02631+02351101231ADDAA124007091AG13000AY101061AY261061GF106991031041008001061001MA1999999096301MD1999999+0001MW1021REMSYN016 333 58000 60074
0095832360999991994012518004-12150-045000FM-12+044099999V0200501N00211045001CN0200001N9+02861+02261100821ADDAA106000091AG14000GF106991031061008001011041MA1999999095921MD1999999-0061REMSYN010 333 59006
0129832360999991994012612004-12150-045000FM-12+044099999V0203601N00261007501CN0100001N9+02481+02151101171ADDAA124020091AG10003AY161061AY261061GF108991081051008001999999MA1999999096241MD1999999-0061MW1021REMSYN022 333 20/// 59006 60204
0123832360999991994012618004-12150-045000FM-12+044099999V0201801N00101021001CN0200001N9+02381+02071100981ADDAA106003091AG10003AY161061AY261061GF106991061001022501021001MA1999999096031MD1999999+0111MW1021REMSYN016 333 58011 60031
0123832360999991994012712004-12150-045000FM-12+044099999V0202701N00101007501CN0200001N9+02261+02111101161ADDAA124005091AG10003AY161061AY261061GF107991071051008001001001MA1999999096201MD1999999-0041MW1021REMSYN016 333 59004 60054
0095832360999991994012718004-12150-045000FM-12+044099999V0202701N00211105001CN0200001N9+02981+02091100841ADDAA106000091AG14000GF106991021021008001041061MA1999999095921MD1999999-0111REMSYN010 333 59011
0129832360999991994012812004-12150-045000FM-12+044099999V0202301N00211045001CN0200001N9+02441+02271101111ADDAA124000591AG10000AY151061AY251061GF106991041051008001011001MA1999999096171MD1999999-0031MW1021REMSYN022 333 20/// 59003 69954
0095832360999991994012818004-12150-045000FM-12+044099999V0200501N00361220001CN0200001N9+03121+02251100691ADDAA106000091AG14000GF105991041021008001001041MA1999999095801MD1999999-0121REMSYN010 333 59012
0101832360999991994012912004-12150-045000FM-12+044099999V0202701N00101220001CN0200001N9+02641+02251101091ADDAA106000091AG14000GF106991031081008001001061MA1999999096161MD1999999-0011REMSYN016 333 20/// 59001
0095832360999991994012918004-12150-045000FM-12+044099999V0203601N00151045001CN0200001N9+03001+02241100751ADDAA106000091AG14000GF107991031021008001021001MA1999999095851MD1999999+0051REMSYN010 333 58005
0095832360999991994013012004-12150-045000FM-12+044099999V0202701N00101220001CN0500001N9+02581+01991101211ADDAA106000091AG14000GF105991011011008001001061MA1999999096271MD1999999+0111REMSYN010 333 58011
0095832360999991994013018004-12150-045000FM-12+044099999V0200501N00311220001CN0500001N9+03041+01881100901ADDAA106000091AG14000GF104991021021008001001061MA1999999095981MD1999999+0131REMSYN010 333 58013
0095832360999991994013112004-12150-045000FM-12+044099999V0202701N00101220001CN0500001N9+02411+01971101121ADDAA106000091AG14000GF104991041001022501061001MA1999999096181MD1999999-0091REMSYN010 333 59009
0095832360999991994013118004-12150-045000FM-12+044099999V0200501N00151220001CN0500001N9+03201+01961100721ADDAA106000091AG14000GF104991041031008001001001MA1999999095821MD1999999-0161REMSYN010 333 59016
0095832360999991994020118004-12150-045000FM-12+044099999V0200501N00261220001CN0200001N9+02821+02171100821ADDAA106000091AG14000GF105991031021008001001061MA1999999095901MD1999999+0081REMSYN010 333 58008
0123832360999991994020212004-12150-045000FM-12+044099999V0203201N00101007501CN0005001N9+02411+02091101331ADDAA124003091AG10003AY161061AY261061GF107991071051008001001001MA1999999096371MD1999999+0151MW1021REMSYN016 333 58015 60034
0095832360999991994020312004-12150-045000FM-12+044099999V0202701N00101220001CN0500001N9+02451+02091101341ADDAA106000091AG14000GF104991011011008001061021MA1999999096391MD1999999+0021REMSYN010 333 58002
0095832360999991994020318004-12150-045000FM-12+044099999V0203601N00101220001CN0200001N9+03141+02041100891ADDAA106000091AG14000GF105991041021008001001041MA1999999095981MD1999999-0041REMSYN010 333 59004
0129832360999991994020412004-12150-045000FM-12+044099999V0203201N00101007501CN0100001N9+02261+02031101141ADDAA124004091AG10003AY161061AY291061GF108991051071008001021999MA1999999096211MD1999999-0181MW1951REMSYN022 333 20/// 59018 60044
0123832360999991994020418004-12150-045000FM-12+044099999V0203201N00101007501CN0100001N9+02461+02071100841ADDAA106003091AG10003AY161061AY261061GF108991081051008001999999MA1999999095901MD1999999-0081MW1021REMSYN016 333 59008 60031
0101832360999991994020512004-12150-045000FM-12+044099999V0201801N00101105001CN0200001N9+02481+02171101051ADDAA124003091AG10000GF105991011011008001061041MA1999999096111MD1999999-0101REMSYN016 333 59010 60034
0095832360999991994020518004-12150-045000FM-12+044099999V0203601N00151220001CN0200001N9+03101+02121100581ADDAA106000091AG14000GF106991031021008001001061MA1999999095691MD1999999-0211REMSYN010 333 59021
0140832360999991994020612004-12150-045000FM-12+044099999V0202701N00101007501CN0200001N9+02441+02131101131ADDAA124000891AA299001091AG10003AY161061AY251061GF106991051041008001071021MA1999999096191MD1999999+0081MW1031REMSYN022 333 20/// 58008 69984
0142832360999991994020618004-12150-045000FM-12+044099999V0200501N00151007501CN0200001N9+02521+02191100931ADDAA106026091AG10003AY161061AY261061GF108991999071008001061999MA1999999095981MD1999999+0291MW1031REMSYN016 333 58029 60261EQDQ01+000082SCOTLC
0118832360999991994020712004-12150-045000FM-12+044099999V0201801N00101105001CN0200001N9+02581+02171101211ADDAA106000091AA224026091AG10000GF105991031021008001001051MA1999999096271MD1999999+0081REMSYN022 333 20/// 58008 60264
0095832360999991994020718004-12150-045000FM-12+044099999V0201801N00151007501CN0200001N9+02761+02211100891ADDAA106000091AG14000GF106991051041008001071021MA1999999095961MD1999999-0021REMSYN010 333 59002
0095832360999991994020812004-12150-045000FM-12+044099999V0202701N00151045001CN0200001N9+02491+02191101241ADDAA106000091AG14000GF106991041041008001071051MA1999999096291MD1999999+0021REMSYN010 333 58002
0139832360999991994020818004-12150-045000FM-12+044099999V0200901N00211013201CN0200001N9+02481+02191100961ADDAA106000091AG14000GA1031+001209029GA2031+013209029GF108991061021008001061999MA1999999096011MD1999999+0051REMSYN022 333 58005 83204 83244
0101832360999991994020912004-12150-045000FM-12+044099999V0203601N00151007501CN0200001N9+02391+02151101281ADDAA106000091AG14000GF106991051021008001061041MA1999999096321MD1999999+0031REMSYN016 333 20/// 58003
0095832360999991994020918004-12150-045000FM-12+044099999V0200501N00211220001CN0500001N9+02861+02161100791ADDAA106000091AG14000GF104991031021008001001051MA1999999095871MD1999999+0141REMSYN010 333 58014
0107832360999991994021012004-12150-045000FM-12+044099999V0202701N00101045001CN0200001N9+02451+02131101261ADDAA124000591AG10000GF106991041021008001061051MA1999999096311MD1999999-0011REMSYN022 333 20/// 59001 69954
0117832360999991994021018004-12150-045000FM-12+044099999V0201801N00361007501CN0100001N9+03041+02181100871ADDAA106000091AG15000AY121061AY221061GF108991071051008001041999MA1999999095961MD1999999+0091MW1151REMSYN010 333 58009
0140832360999991994021112004-12150-045000FM-12+044099999V0200901N00101007501CN0200001N9+02471+02171101321ADDAA124000891AA299001091AG10003AY161061AY251061GF107991051041008001071021MA1999999096371MD1999999+0061MW1021REMSYN022 333 20/// 58006 69984
0095832360999991994021118004-12150-045000FM-12+044099999V0200901N00211007501CN0200001N9+03051+02061100821ADDAA106000091AG14000GF106991051021008001001051MA1999999095911MD1999999-0051REMSYN010 333 59005
0101832360999991994021312004-12150-045000FM-12+044099999V0202701N00101007501CN0200001N9+02501+02171101191ADDAA106000091AG14000GF106991051041008001071051MA1999999096251MD1999999-0141REMSYN016 333 20/// 59014
0117832360999991994021318004-12150-045000FM-12+044099999V0201801N00461007501CN0200001N9+02471+02051100911ADDAA106000091AG15000AY121061AY221061GF108991071051008001041999MA1999999095981MD1999999+0061MW1151REMSYN010 333 58006
0118832360999991994021412004-12150-045000FM-12+044099999V0202701N00101045001CN0200001N9+02451+02171101131ADDAA124000791AA299001091AG10000GF105991031021008001071021MA1999999096181MD1999999-0071REMSYN022 333 20/// 59007 69974
0114832360999991994021418004-12150-045000FM-12+044099999V0200901N00211220001CN0200001N9+03101+02031100711ADDAA106000091AG14000GF104991999021008001061001MA1999999095821MD1999999-0161REMSYN010 333 59016EQDQ01+000052SCOTLC
0129832360999991994021512004-12150-045000FM-12+044099999V0202701N00151007501CN0040001N9+02291+02141101501ADDAA124011091AG10003AY161061AY261061GF108991061061008001041999MA1999999096541MD1999999+0361MW1171REMSYN022 333 20/// 58036 60114
0095832360999991994021618004-12150-045000FM-12+044099999V0203201N00101045001CN0200001N9+03151+02181100931ADDAA106000091AG14000GF105991041021008001051001MA1999999096031MD1999999+0011REMSYN010 333 58001
0101832360999991994021712004-12150-045000FM-12+044099999V0200501N00151220001CN0500001N9+02661+02181101261ADDAA106000091AG14000GF103991031021008001041001MA1999999096331MD1999999+0141REMSYN016 333 20/// 58014
0095832360999991994021718004-12150-045000FM-12+044099999V0200501N00151220001CN0500001N9+03141+02041100881ADDAA106000091AG14000GF102991021021008001001001MA1999999095981MD1999999-0051REMSYN010 333 59005
0095832360999991994021812004-12150-045000FM-12+044099999V0200501N00151220001CN0500001N9+02721+02121101091ADDAA106000091AG14000GF102991001001999999001041MA1999999096171MD1999999-0161REMSYN010 333 59016
0095832360999991994021818004-12150-045000FM-12+044099999V0200501N00211045001CN0200001N9+03101+02001100811ADDAA106000091AG14000GF106991041021012501071051MA1999999095911MD1999999-0071REMSYN010 333 59007
0120832360999991994021912004-12150-045000FM-12+044099999V0201401N00151220001CN0500001N9+02721+02081101081ADDAA106000091AG14000GF104991001001999999001051MA1999999096151MD1999999-0021REMSYN016 333 20/// 59002EQDQ01+000952SCOLCB
0095832360999991994021918004-12150-045000FM-12+044099999V0200501N00211045001CN0200001N9+03251+02001100661ADDAA106000091AG14000GF106991041031008001051021MA1999999095771MD1999999-0141REMSYN010 333 59014
0101832360999991994022012004-12150-045000FM-12+044099999V0200901N00151220001CN0500001N9+02701+02111101071ADDAA106000091AG14000GF103991031021008001001001MA1999999096151MD1999999+0001REMSYN016 333 20/// 58000
0134832360999991994022118004-12150-045000FM-12+044099999V0200501N00461012001CN0200001N9+02601+02101100891ADDAA106000491AA299000591AG10000AY151061AY251061GF106991051081008001041001MA1999999095961MD1999999+0161MW1021REMSYN016 333 58016 69941
0112832360999991994022212004-12150-045000FM-12+044099999V0200501N00511007501CN0200001N9+02411+02111101191ADDAA124000491AA299000591AG10000GF107991071051008001001001MA1999999096251MD1999999+0051REMSYN016 333 58005 69944
0095832360999991994022218004-12150-045000FM-12+044099999V0200501N00361105001CN0200001N9+02881+02001100701ADDAA106000091AG14000GF105991031031008001001051MA1999999095831MD1999999-0131REMSYN010 333 59013
0140832360999991994022312004-12150-045000FM-12+044099999V0200501N00211045001CN0040001N9+02321+02161101141ADDAA124000791AA299001091AG10000AY151061AY251061GF108991031051008001021999MA1999999096231MD1999999-0021MW1401REMSYN022 333 20/// 59002 69974
0134832360999991994022318004-12150-045000FM-12+044099999V0200501N00261045001CN0200001N9+02701+02011100771ADDAA106000891AA299001091AG10000AY151061AY251061GF106991031081008001031021MA1999999095891MD1999999+0061MW1021REMSYN016 333 58006 69981
0118832360999991994022412004-12150-045000FM-12+044099999V0203201N00101045001CN0200001N9+02421+02131101181ADDAA124000891AA299001091AG10000GF107991041051008001051001MA1999999096271MD1999999+0041REMSYN022 333 20/// 58004 69984
0101832360999991994022418004-12150-045000FM-12+044099999V0200501N00311045001CN0200001N9+02501+02091100901ADDAA106002091AG10000GF107991041051008001021001MA1999999095991MD1999999+0101REMSYN016 333 58010 60021
0095832360999991994022518004-12150-045000FM-12+044099999V0200501N00361045001CN0200001N9+02901+02101100711ADDAA106000091AG14000GF107991041031008001041031MA1999999095841MD1999999-0151REMSYN010 333 59015
0095832360999991994022612004-12150-045000FM-12+044099999V0202701N00101045001CN0200001N9+02601+02191101131ADDAA106000091AG14000GF107991021011008001011001MA1999999096231MD1999999+0011REMSYN010 333 58001
0095832360999991994022618004-12150-045000FM-12+044099999V0203201N00311045001CN0200001N9+02891+02181100871ADDAA106000091AG14000GF108991021021008001021001MA1999999095991MD1999999+0151REMSYN010 333 58015
0101832360999991994022712004-12150-045000FM-12+044099999V0202301N00101045001CN0200001N9+02531+02131101251ADDAA106000091AG14000GF106991031021008001031001MA1999999096341MD1999999+0111REMSYN016 333 20/// 58011
0134832360999991994022718004-12150-045000FM-12+044099999V0200901N00101045001CN0100001N9+02561+02211101031ADDAA106000491AA299000591AG10000AY151061AY251061GF108991031021008001021999MA1999999096121MD1999999+0131MW1151REMSYN016 333 58013 69941
0112832360999991994022812004-12150-045000FM-12+044099999V0200501N00101045001CN0100001N9+02381+02211101311ADDAA124000491AA299000591AG10000GF107991041051008001021001MA1999999096371MD1999999+0031REMSYN016 333 58003 69944
0095832360999991994022818004-12150-045000FM-12+044099999V0201801N00151007501CN0100001N9+02581+02041101031ADDAA106000091AG14000GF108991051071008001021999MA1999999096121MD1999999+0001REMSYN010 333 58000
0123832360999991994030112004-12150-045000FM-12+044099999V0200901N00101007501CN0100001N9+02341+02131101251ADDAA106000091AG10000AY101061AY221061GF107991071051008001001001MA1999999096321MD1999999-0051MW1421REMSYN016 333 20/// 59005
0101832360999991994030212004-12150-045000FM-12+044099999V0202701N00101105001CN0500001N9+02641+02141101061ADDAA106000091AG14000GF105991011011008001081041MA1999999096181MD1999999-0141REMSYN016 333 20/// 59014
0095832360999991994030218004-12150-045000FM-12+044099999V0200501N00261220001CN0200001N9+03051+02181100671ADDAA106000091AG14000GF106991041021008001001041MA1999999095811MD1999999-0071REMSYN010 333 59007
0095832360999991994030312004-12150-045000FM-12+044099999V0203601N00101105001CN0200001N9+02661+02141101071ADDAA106000091AG14000GF105991021021008001031041MA1999999096201MD1999999+0021REMSYN010 333 58002
0095832360999991994030318004-12150-045000FM-12+044099999V0200901N00311220001CN0200001N9+03041+02091100551ADDAA106000091AG14000GF106991041021008001001061MA1999999095711MD1999999-0101REMSYN010 333 59010
0129832360999991994030412004-12150-045000FM-12+044099999V0201801N00101007501CN0040001N9+02401+02231101201ADDAA124072091AG10003AY161061AY261061GF108991051051008001021999MA1999999096281MD1999999+0081MW1421REMSYN022 333 20/// 58008 60724
0123832360999991994030418004-12150-045000FM-12+044099999V0200501N00211007501CN0040001N9+02251+02031100931ADDAA106008091AG13000AY101061AY261061GF108991051051008001021999MA1999999096001MD1999999+0291MW1151REMSYN016 333 58029 60081
0129832360999991994030512004-12150-045000FM-12+044099999V0201801N00151007501CN0040001N9+02301+02131101211ADDAA124038091AG10003AY161061AY261061GF108991051051008001021999MA1999999096261MD1999999-0021MW1421REMSYN022 333 20/// 59002 60384
0123832360999991994030518004-12150-045000FM-12+044099999V0200501N00211045001CN0040001N9+02381+02151100931ADDAA106000391AG10000AY151061AY251061GF108991021021008001021001MA1999999096001MD1999999+0001MW1511REMSYN016 333 58000 69931
0134832360999991994030618004-12150-045000FM-12+044099999V0203601N00261105001CN0200001N9+02681+02161100711ADDAA106000291AA299000191AG10000AY151061AY251061GF106991041021008001001021MA1999999095801MD1999999-0201MW1021REMSYN016 333 59020 69921
0051832360999991994030712004-12150-045000FM-12+044099999V0200501N002119999999N0040001N9+02721+02081102101ADDAG12000GF108991041001008001061061MA1999999096251
0142832360999991994030718004-12150-045000FM-12+044099999V0203601N00151007501CN0200001N9+02591+02231100742ADDAA106001091AG10003AY161061AY261061GF107991071071008001001001MA1999999095831MD1999999+0031MW1151REMSYN016 333 58003 60011EQDQ01+100743APOSLP
0129832360999991994030812004-12150-045000FM-12+044099999V0200901N00211007501CN0020001N9+02281+02131101281ADDAA124058091AG10003AY161061AY261061GF108991061051008001031999MA1999999096331MD1999999+0081MW1101REMSYN022 333 20/// 58008 60584
0142832360999991994030818004-12150-045000FM-12+044099999V0203601N00151007501CN0040001N9+02461+02171100961ADDAA106003091AG10003AY161061AY261061GF108991999071008001051999MA1999999096031MD1999999+0201MW1021REMSYN016 333 58020 60031EQDQ01+000082SCOTLC
0107832360999991994030912004-12150-045000FM-12+044099999V0202701N00101007501CN0200001N9+02411+02191101281ADDAA124003091AG10000GF106991051021008001071021MA1999999096351MD1999999+0021REMSYN022 333 20/// 58002 60034
0095832360999991994030918004-12150-045000FM-12+044099999V0200501N00151045001CN0200001N9+02901+02171100721ADDAA106000091AG14000GF106991041021008001061041MA1999999095841MD1999999-0191REMSYN010 333 59019
0123832360999991994031012004-12150-045000FM-12+044099999V0202701N00101045001CN0200001N9+02521+02091101231ADDAA124004091AG10003AY161061AY261061GF106991031021008001051041MA1999999096321MD1999999-0031MW1021REMSYN016 333 59003 60044
0095832360999991994031018004-12150-045000FM-12+044099999V0200501N00151105001CN0200001N9+02981+02171100801ADDAA106000091AG14000GF105991031031008001001021MA1999999095931MD1999999+0091REMSYN010 333 58009
0129832360999991994031112004-12150-045000FM-12+044099999V0203201N00101007501CN0100001N9+02461+02171101271ADDAA124022091AG10003AY161061AY261061GF108991061071008001041999MA1999999096361MD1999999+0041MW1021REMSYN022 333 20/// 58004 60224
0134832360999991994031118004-12150-045000FM-12+044099999V0203601N00151012001CN0100001N9+02531+02211100841ADDAA106000491AA299000591AG10000AY151061AY251061GF108991071081008001061999MA1999999095931MD1999999+0001MW1031REMSYN016 333 58000 69941
0123832360999991994031212004-12150-045000FM-12+044099999V0202701N00101045001CN0200001N9+02571+02251101081ADDAA124008091AG10003AY161061AY261061GF105991041021008001071041MA1999999096171MD1999999-0191MW1021REMSYN016 333 59019 60084
0095832360999991994031218004-12150-045000FM-12+044099999V0200501N00101007501CN0100001N9+02651+02231100781ADDAA106000091AG14000GF107991051031008001071021MA1999999095881MD1999999-0051REMSYN010 333 59005
0117832360999991994031312004-12150-045000FM-12+044099999V0202701N00101007501CN0040001N9+02521+02291101001ADDAA106000091AG15000AY121061AY221061GF108991071061008001041999MA1999999096191MD1999999+0021MW1151REMSYN010 333 58002
0129832360999991994031412004-12150-045000FM-12+044099999V0202701N00101012001CN0040001N9+02301+02111101261ADDAA124061091AG13000AY121061AY221061GF107991061081008001061051MA1999999096301MD1999999+0111MW1101REMSYN022 333 20/// 58011 60614
0123832360999991994031418004-12150-045000FM-12+044099999V0200501N00151007501CN0200001N9+02691+02181100771ADDAA106001091AG10003AY161061AY251061GF106991051021008001051041MA1999999095961MD1999999-0291MW1021REMSYN016 333 59029 60011
0101832360999991994031512004-12150-045000FM-12+044099999V0202701N00151007501CN0100001N9+02511+02271101101ADDAA124001091AG10000GF106991051021008001061041MA1999999096201MD1999999-0101REMSYN016 333 59010 60014
0095832360999991994031518004-12150-045000FM-12+044099999V0202301N00151007501CN0200001N9+02791+02231100561ADDAA106000091AG14000GF106991051041008001071041MA1999999095691MD1999999-0171REMSYN010 333 59017
0153832360999991994031618004-12150-045000FM-12+044099999V0203201N00151007501CN0040001N9+02591+99999100801ADDAA106000291AA299000191AG10000AY151061AY251061GF108991061041008001071999MA1999999095911MD1999999+0221MW1151REMSYN016 333 58022 69921EQDQ01+999990APOSLP
0129832360999991994031712004-12150-045000FM-12+044099999V0202301N00101007501CN0040001N9+02441+99999101271ADDAA124003091AG10003AY161061AY251061GF108991061071008001021999MA1999999096341MD1999999+0201MW1101REMSYN022 333 20/// 58020 60034
0123832360999991994031718004-12150-045000FM-12+044099999V0202301N00151007501CN0100001N9+02581+99999100861ADDAA106013091AG10003AY161061AY261061GF108991071041008001051999MA1999999095951MD1999999+0041MW1151REMSYN016 333 58004 60131
0102832360999991994031812004-12150-045000FM-12+044099999V0200501N00311007501CN0200001N9+02401+99999101251ADDAA124013091AG10000GF106991051021008001061051MA1999999096321MD1999999-0021REMSYN017 333 59002 60134;
0095832360999991994031912004-12150-045000FM-12+044099999V0202701N00101220001CN0200001N9+02651+99999101021ADDAA106000091AG14000GF104991021021008001001041MA1999999096141MD1999999-0181REMSYN010 333 59018
0095832360999991994031918004-12150-045000FM-12+044099999V0200501N00361220001CN0200001N9+03061+99999100581ADDAA106000091AG14000GF105991031021008001001041MA1999999095741MD1999999-0081REMSYN010 333 59008
0101832360999991994032012004-12150-045000FM-12+044099999V0202701N00101045001CN0200001N9+02681+99999101101ADDAA106000091AG14000GF106991041021008001071041MA1999999096311MD1999999+0171REMSYN016 333 20/// 58017
0142832360999991994032018004-12150-045000FM-12+044099999V0201801N00211007501CN0100001N9+02901+99999100811ADDAA106000591AG10000AY151061AY251061GF107991061041008001061051MA1999999095492MD1999999+0201MW1021REMSYN016 333 58020 69951EQDQ01+095493APOSP 
0123832360999991994032112004-12150-045000FM-12+044099999V0200501N00101045001CN0200001N9+02431+99999101211ADDAA124001091AG10000AY151061AY251061GF106991041021008001071041MA1999999096311MD1999999+0001MW1021REMSYN016 333 58000 60014
0095832360999991994032118004-12150-045000FM-12+044099999V0200501N00211220001CN0500001N9+03101+99999100601ADDAA106000091AG14000GF103991031021008001001001MA1999999095751MD1999999-0191REMSYN010 333 59019
0117832360999991994032212004-12150-045000FM-12+044099999V0202301N00101007501CN0200001N9+02431+99999101121ADDAA106000091AG15000AY121061AY221061GF106991051051008001081041MA1999999096221MD1999999-0091MW1151REMSYN010 333 59009
0123832360999991994032218004-12150-045000FM-12+044099999V0200501N00361105001CN0200001N9+03041+99999100571ADDAA106004091AG10003AY161061AY261061GF105991031021008001001051MA1999999095731MD1999999-0021MW1021REMSYN016 333 59002 60041
0107832360999991994032312004-12150-045000FM-12+044099999V0201801N00151007501CN0200001N9+02501+02231101161ADDAA124004091AG13000GF107991051071008001021001MA1999999096271MD1999999+0051REMSYN022 333 20/// 58005 60044
0095832360999991994032318004-12150-045000FM-12+044099999V0200901N00101105001CN0200001N9+03011+02051100651ADDAA106000091AG14000GF105991031021008001001021MA1999999095791MD1999999+0061REMSYN010 333 58006
0123832360999991994032412004-12150-045000FM-12+044099999V0201801N00101220001CN0500001N9+02531+02151101291ADDAA124007091AG10003AY161061AY261061GF103991021001022501041011MA1999999096381MD1999999+0111MW1021REMSYN016 333 58011 60074
0095832360999991994032512004-12150-045000FM-12+044099999V0202301N00101220001CN0200001N9+02521+02091101441ADDAA106000091AG14000GF106991021001022501041041MA1999999096531MD1999999+0151REMSYN010 333 58015
0095832360999991994032518004-12150-045000FM-12+044099999V0200501N00211220001CN0200001N9+03041+01821101061ADDAA106000091AG14000GF104991031021008001001041MA1999999096181MD1999999+0211REMSYN010 333 58021
0101832360999991994032612004-12150-045000FM-12+044099999V0203201N00101220001CN0500001N9+02451+01951101351ADDAA106000091AG14000GF102991001001999999001041MA1999999096421MD1999999-0111REMSYN016 333 20/// 59011
0095832360999991994032618004-12150-045000FM-12+044099999V0200501N00261220001CN0500001N9+03071+01661100981ADDAA106000091AG14000GF103991011011008001001041MA1999999096101MD1999999-0081REMSYN010 333 59008
0101832360999991994032712004-12150-045000FM-12+044099999V0202301N00101220001CN0500001N9+02511+02071101211ADDAA106000091AG14000GF102991021011008001001001MA1999999096301MD1999999-0121REMSYN016 333 20/// 59012
0095832360999991994032918004-12150-045000FM-12+044099999V0200501N00261220001CN0500001N9+03091+01881100811ADDAA106000091AG14000GF103991031021008001001001MA1999999095951MD1999999+0171REMSYN010 333 58017
0101832360999991994033012004-12150-045000FM-12+044099999V0200501N00101220001CN0200001N9+02661+02141101291ADDAA106000091AG14000GF106991021011008001001061MA1999999096391MD1999999+0041REMSYN016 333 20/// 58004
0095832360999991994033112004-12150-045000FM-12+044099999V0202301N00101045001CN0200001N9+02631+02141101371ADDAA106000091AG14000GF106991021021008001081051MA1999999096461MD1999999+0071REMSYN010 333 58007
0101832360999991994040412004-12150-045000FM-12+044099999V0202301N00211045001CN0200001N9+02551+02151101131ADDAA106000091AG14000GF106991031021008001041061MA1999999096231MD1999999-0111REMSYN016 333 20/// 59011
0123832360999991994040512004-12150-045000FM-12+044099999V0201801N00101045001CN0200001N9+02381+02211101111ADDAA124018091AG10003AY161061AY261061GF107991031051008001021001MA1999999096221MD1999999-0011MW1021REMSYN016 333 59001 60184
0129832360999991994040612004-12150-045000FM-12+044099999V0202301N00101045001CN0100001N9+02221+02141101271ADDAA124008091AG10003AY161061AY261061GF108991041051008001021999MA1999999096341MD1999999+0121MW1421REMSYN022 333 20/// 58012 60084
0095832360999991994040712004-12150-045000FM-12+044099999V0200501N00151007501CN0200001N9+02491+02151101081ADDAA106000091AG14000GF107991061021008001061041MA1999999096171MD1999999-0171REMSYN010 333 59017
0095832360999991994040718004-12150-045000FM-12+044099999V0200901N00101007501CN0200001N9+02821+02021100611ADDAA106000091AG14000GF107991051031008001071021MA1999999095741MD1999999-0191REMSYN010 333 59019
0129832360999991994040812004-12150-045000FM-12+044099999V0201801N00101007501CN0200001N9+02401+02231101001ADDAA124003091AG10003AY161061AY261061GF106991051021008001071041MA1999999096091MD1999999-0081MW1031REMSYN022 333 20/// 59008 60034
0095832360999991994040818004-12150-045000FM-12+044099999V0200501N00211045001CN0200001N9+02731+02001100511ADDAA106000091AG14000GF105991041041008001061051MA1999999095651MD1999999-0091REMSYN010 333 59009
0095832360999991994040912004-12150-045000FM-12+044099999V0202701N00151007501CN0100001N9+02391+02221101141ADDAA106000091AG14000GF108991061071008001041999MA1999999096221MD1999999+0131REMSYN010 333 58013
0095832360999991994040918004-12150-045000FM-12+044099999V0200501N00211007501CN0200001N9+02701+01941100831ADDAA106000091AG14000GF106991051021008001071041MA1999999095931MD1999999+0281REMSYN010 333 58028
0101832360999991994041012004-12150-045000FM-12+044099999V0201801N00151007501CN0200001N9+02391+02191101281ADDAA106000091AG14000GF108991061021008001071999MA1999999096351MD1999999+0131REMSYN016 333 20/// 58013
0123832360999991994041018004-12150-045000FM-12+044099999V0202701N00101007501CN0200001N9+02521+02291100881ADDAA106008091AG10003AY161061AY261061GF107991051051008001041051MA1999999095961MD1999999+0031MW1151REMSYN016 333 58003 60081
0129832360999991994041112004-12150-045000FM-12+044099999V0201801N00101220001CN0200001N9+02481+02171101321ADDAA124028091AG10003AY161061AY251061GF104991041021008001001041MA1999999096391MD1999999+0041MW1021REMSYN022 333 20/// 58004 60284
0107832360999991994041212004-12150-045000FM-12+044099999V0202701N00101220001CN0500001N9+02571+02061101321ADDAA124000391AG10000GF102991021021008001001001MA1999999096421MD1999999+0031REMSYN022 333 20/// 58003 69934
0117832360999991994041218004-12150-045000FM-12+044099999V0200501N00361007501CN0200001N9+03021+01991100951ADDAA106000091AG15000AY121061AY221061GF106991061051008001041001MA1999999096091MD1999999+0061MW1151REMSYN010 333 58006
0101832360999991994041312004-12150-045000FM-12+044099999V0202701N00101220001CN0500001N9+02631+02141101291ADDAA106000091AG14000GF103991021001012501001021MA1999999096391MD1999999-0031REMSYN016 333 20/// 59003
0118832360999991994041318004-12150-045000FM-12+044099999V0202701N00151007501CN0200001N9+02931+02091100911ADDAA106000091AG10000AY121061AY221061GF107991061051008001071041MA1999999096031MD1999999-0061MW1151REMSYN011 333 59006;
0096832360999991994041412004-12150-045000FM-12+044099999V0201801N00101007501CN0200001N9+02601+02061101301ADDAA106000091AG10000GF106991051021008001081051MA1999999096401MD1999999+0011REMSYN011 333 58001;
0102832360999991994041512004-12150-045000FM-12+044099999V0202701N00101007501CN0200001N9+02601+02011101331ADDAA106000091AG10000GF106991051021008001071041MA1999999096431MD1999999+0031REMSYN017 333 20/// 58003;
0124832360999991994041518004-12150-045000FM-12+044099999V0200501N00211007501CN0200001N9+02801+02271100911ADDAA106000191AG10000AY151061AY251061GF107991061051008001061051MA1999999096031MD1999999+0001MW1151REMSYN017 333 58000 69921;
0130832360999991994041612004-12150-045000FM-12+044099999V0202701N00101007501CN0200001N9+02501+02171101301ADDAA124000591AG10000AY151061AY251061GF106991051021008001061051MA1999999096391MD1999999-0041MW1021REMSYN023 333 20/// 59004 69954;
0096832360999991994041618004-12150-045000FM-12+044099999V0200901N00361105001CN0200001N9+03001+02001100851ADDAA106000091AG10000GF105991041031008001001021MA1999999095981MD1999999-0051REMSYN011 333 59005;
0096832360999991994041812004-12150-045000FM-12+044099999V0201801N00101220001CN0500001N9+02531+02091101201ADDAA106000091AG10000GF103991021021012501051021MA1999999096301MD1999999-0031REMSYN011 333 59003;
0096832360999991994041818004-12150-045000FM-12+044099999V0200501N00151220001CN0500001N9+03091+01881100731ADDAA106000091AG10000GF103991031021008001001001MA1999999095871MD1999999-0091REMSYN011 333 59009;
0102832360999991994041912004-12150-045000FM-12+044099999V0202701N00101021001CN0200001N9+02631+02231101191ADDAA106000091AG10000GF106991051001022501071041MA1999999096301MD1999999+0001REMSYN017 333 20/// 58000;
0102832360999991994042012004-12150-045000FM-12+044099999V0200501N00151105001CN0500001N9+02631+01931101131ADDAA106000091AG10000GF105991021081022501001021MA1999999096241MD1999999-0061REMSYN017 333 20/// 59006;
0096832360999991994042018004-12150-045000FM-12+044099999V0202701N00211220001CN0500001N9+03121+01921100721ADDAA106000091AG10000GF104991031021008001001041MA1999999095861MD1999999-0041REMSYN011 333 59004;
0096832360999991994042112004-12150-045000FM-12+044099999V0202701N00101220001CN0500001N9+02571+01931101331ADDAA106000091AG10000GF102991001001999999001041MA1999999096431MD1999999+0191REMSYN011 333 58019;
0124832360999991994042212004-12150-045000FM-12+044099999V0202301N00101007501CN0100001N9+02421+02131101461ADDAA124000191AG10000AY151061AY251061GF107991051051008001041001MA1999999096531MD1999999+0101MW1021REMSYN017 333 58010 69924;
0096832360999991994042218004-12150-045000FM-12+044099999V0200501N00261045001CN0200001N9+02921+01801101011ADDAA106000091AG10000GF106991041021008001041001MA1999999096131MD1999999+0141REMSYN011 333 58014;
0102832360999991994042312004-12150-045000FM-12+044099999V0202301N00211220001CN0500001N9+02531+01911101501ADDAA106000091AG10000GF102991001001999999001041MA1999999096571MD1999999+0041REMSYN017 333 20/// 58004;
0096832360999991994042318004-12150-045000FM-12+044099999V0201801N00151220001CN0500001N9+03091+01601100971ADDAA106000091AG10000GF104991021011008001001041MA1999999096111MD1999999-0021REMSYN011 333 59002;
0118832360999991994042412004-12150-045000FM-12+044099999V0201801N00211220001CN0500001N9+02501+01891101421ADDAA106000091AG10000GA1001+999999999GF100991001001999999001001MA1999999096501MD1999999-0071REMSYN017 333 20/// 59007;
0096832360999991994042512004-12150-045000FM-12+044099999V0202301N00101045001CN0200001N9+02591+02041101381ADDAA106000091AG10000GF105991031021008001031001MA1999999096471MD1999999-0031REMSYN011 333 59003;
0096832360999991994042518004-12150-045000FM-12+044099999V0201401N00211007501CN0200001N9+02901+01931100911ADDAA106000091AG10000GF105991051021008001001001MA1999999096031MD1999999-0041REMSYN011 333 59004;
0096832360999991994042718004-12150-045000FM-12+044099999V0200901N00151220001CN0200001N9+03001+01781100861ADDAA106000091AG10000GF105991031021008001001041MA1999999095991MD1999999-0011REMSYN011 333 59001;
0121832360999991994042812004-12150-045000FM-12+044099999V0202701N001019999999N0500001N9+02451+01991101411ADDAA106000091AG10000GF105991001001999999001051MA1999999096491MD1999999+0151REMSYN017 333 20/// 58015;EQDQ01+000952SCOLCB
0096832360999991994042818004-12150-045000FM-12+044099999V0201401N00261220001CN0200001N9+03061+01701100991ADDAA106000091AG10000GF105991031021008001001041MA1999999096111MD1999999+0121REMSYN011 333 58012;
0096832360999991994042912004-12150-045000FM-12+044099999V0202701N00101220001CN0200001N9+02431+02011101461ADDAA106000091AG10000GF106991011011008001001061MA1999999096531MD1999999+0041REMSYN011 333 58004;
0102832360999991994043012004-12150-045000FM-12+044099999V0201801N001519999999N0200001N9+02591+02041101431ADDAA124001091AG10000GF105991031001008001061041MA1999999096511MD1999999-0021REMSYN017 333 59002 69984;
0096832360999991994043018004-12150-045000FM-12+044099999V0201801N00211220001CN0200001N9+02981+01921101081ADDAA106000091AG10000GF106991031021008001001061MA1999999096191MD1999999-0051REMSYN011 333 59005;
0096832360999991994050118004-12150-045000FM-12+044099999V0201801N00211105001CN0200001N9+02991+01661101101ADDAA106000091AG10000GF106991021021008001041041MA1999999096221MD1999999+0031REMSYN011 333 58003;
0130832360999991994050212004-12150-045000FM-12+044099999V0201801N00101045001CN0200001N9+02491+02011101681ADDAA124000391AG10000AY151061AY251061GF106991031021008001031001MA1999999096751MD1999999+0141MW1021REMSYN023 333 20/// 58014 69934;
0096832360999991994050318004-12150-045000FM-12+044099999V0201401N00101220001CN0200001N9+02911+01701101091ADDAA106000091AG10000GF106991041021008001001061MA1999999096201MD1999999-0141REMSYN011 333 59014;
0096832360999991994050418004-12150-045000FM-12+044099999V0200501N00211220001CN0200001N1+03001+01881100891ADDAA106000091AG10000GF105991031021008001001041MA1999999096101MD1999999-0101REMSYN011 333 59010;
0131832360999991994050912004-12150-045000FM-12+044099999V0200901N00151220001CN0500001N1+02491+01851101441ADDAA106000091AG10000GA1001+999999999GF100991001001999999001001KA1240N+02001MA1999999096511MD1999999+0081REMSYN017 333 20200 58008;
0096832360999991994050918004-12150-045000FM-12+044099999V0200901N00151220001CN0200001N1+03161+01711100961ADDAA106000091AG10000GF104991041021008001001001MA1999999096081MD1999999+0031REMSYN011 333 58003;
0134832360999991994051000004-12150-045000FM-12+044099999V0201801N00101220001CN9999999N9+02231+01991101261ADDAA106000091AG10000GF103991031021008001001001KA1240M+03221MA1999999096331MD1999999-0041REMSYN017 333 10322 59004;EQDQ01+000002VOVAR 
0115832360999991994051012004-12150-045000FM-12+044099999V0201801N00151220001CN0500001N1+02451+01831101551ADDAA106000091AG10000GF102991021021012501001001KA1240N+02101MA1999999096611MD1999999+0101REMSYN017 333 20210 58010;
0096832360999991994051018004-12150-045000FM-12+044099999V0201401N00311220001CN0500001N1+03231+01771101001ADDAA106000091AG10000GF103991031021008001001001MA1999999096141MD1999999+0061REMSYN011 333 58006;
0131832360999991994051112004-12150-045000FM-12+044099999V0201401N00211220001CN0500001N1+02521+01821101551ADDAA106000091AG10000GA1001+999999999GF100991001001999999001001KA1240N+01891MA1999999096621MD1999999+0011REMSYN017 333 20189 58001;
0096832360999991994051118004-12150-045000FM-12+044099999V0200901N00211007501CN0200001N1+03121+01711100971ADDAA106000091AG10000GF105991051021008001001001MA1999999096131MD1999999-0011REMSYN011 333 59001;
0150832360999991994051200004-12150-045000FM-12+044099999V0202301N00151220001CN9999999N9+02331+01831101161ADDAA106000091AG10000GA1001+999999999GF100991001001999999001001KA1240M+03231MA1999999096241MD1999999-0081REMSYN017 333 10323 59008;EQDQ01+000002VOVAR 
0150832360999991994051212004-12150-045000FM-12+044099999V0202301N00151220001CN9999999N9+02331+01831101161ADDAA106000091AG10000GA1001+999999999GF100991001001999999001001KA1240M+03231MA1999999096241MD1999999-0081REMSYN017 333 10323 59008;EQDQ01+000002VOVAR 
0096832360999991994051218004-12150-045000FM-12+044099999V0200901N00151105001CN0200001N1+03151+01771101081ADDAA106000091AG10000GF105991031021008001001021MA1999999096191MD1999999+0061REMSYN011 333 58006;
0150832360999991994051300004-12150-045000FM-12+044099999V0209991C00001220001CN9999999N9+02271+01831101231ADDAA106000091AG10000GA1001+999999999GF100991001001999999001001KA1240M+03201MA1999999096301MD1999999+0061REMSYN017 333 10320 58006;EQDQ01+000002VOVAR 
0134832360999991994051312004-12150-045000FM-12+044099999V0201801N00151220001CN0500001N1+02361+01691101421ADDAA106000091AG10000GF102991001001999999001051KA1240N+01651MA1999999096461MD1999999-0091REMSYN017 333 20165 59009;EQDQ01+999990APOSP 
0096832360999991994051318004-12150-045000FM-12+044099999V0203601N00261220001CN0500001N1+03141+01581100881ADDAA106000091AG10000GF104991021021012501001041MA1999999095981MD1999999-0211REMSYN011 333 59021;
0134832360999991994051400004-12150-045000FM-12+044099999V0201801N00101220001CN9999999N9+02181+01981101111ADDAA106000091AG10000GF102991021021012501001001KA1240M+03201MA1999999096171MD1999999-0131REMSYN017 333 10320 59013;EQDQ01+000002VOVAR 
0131832360999991994051412004-12150-045000FM-12+044099999V0202301N00151220001CN0500001N1+02381+01801101331ADDAA106000091AG10000GA1001+999999999GF100991001001999999001001KA1240N+01711MA1999999096381MD1999999-0101REMSYN017 333 20171 59010;
0096832360999991994051418004-12150-045000FM-12+044099999V0203601N00261220001CN0500001N1+03161+01471100881ADDAA106000091AG10000GF102991021021008001001001MA1999999095881MD1999999+0001REMSYN011 333 58000;
0115832360999991994051512004-12150-045000FM-12+044099999V0203201N00101220001CN0500001N1+02451+01761101351ADDAA106000091AG10000GF102991021021012501001001KA1240N+01761MA1999999096401MD1999999+0021REMSYN017 333 20176 58002;
0096832360999991994051518004-12150-045000FM-12+044099999V0203601N00361007501CN0200001N1+03141+01731100931ADDAA106000091AG10000GF107991071041008001061001MA1999999096031MD1999999+0051REMSYN011 333 58005;
0115832360999991994051612004-12150-045000FM-12+044099999V0201401N00151007501CN0200001N1+02461+02011101361ADDAA106000091AG10000GF106991051021008001071061KA1240N+02031MA1999999096451MD1999999+0051REMSYN017 333 20203 58005;
0096832360999991994051618004-12150-045000FM-12+044099999V0203601N00261007501CN0200001N1+03061+01831100941ADDAA106000091AG10000GF106991051021008001081041MA1999999096061MD1999999+0031REMSYN011 333 58003;
0134832360999991994051700004-12150-045000FM-12+044099999V0201801N00151220001CN9999999N9+02141+01901101161ADDAA106000091AG10000GF102991021001022501051001KA1240M+03131MA1999999096221MD1999999+0011REMSYN017 333 10313 58001;EQDQ01+000002VOVAR 
0115832360999991994051712004-12150-045000FM-12+044099999V0202301N00101220001CN0500001N1+02361+01801101401ADDAA106000091AG10000GF104991021001022501071051KA1240N+01801MA1999999096441MD1999999-0011REMSYN017 333 20180 59001;
0096832360999991994051718004-12150-045000FM-12+044099999V0202301N00151045001CN0200001N1+03231+01801100901ADDAA106000091AG10000GF106991041021008001071041MA1999999096011MD1999999-0051REMSYN011 333 59005;
0115832360999991994051812004-12150-045000FM-12+044099999V0202301N00101220001CN0500001N1+02461+01781101381ADDAA106000091AG10000GF104991031001022501081051KA1240N+01801MA1999999096441MD1999999+0001REMSYN017 333 20180 58000;
0096832360999991994051818004-12150-045000FM-12+044099999V0203601N00411007501CN0200001N1+02781+01851100961ADDAA106000091AG10000GF107991061021008001081041MA1999999096031MD1999999+0021REMSYN011 333 58002;
0134832360999991994051900004-12150-045000FM-12+044099999V0201801N001519999999N9999999N9+02161+01931101131ADDAA106000091AG10000GF108991081001008001071999KA1240M+03111MA1999999096191MD1999999-0021REMSYN017 333 10311 59002;EQDQ01+000002VOVAR 
0115832360999991994051912004-12150-045000FM-12+044099999V0201401N00101007501CN0200001N1+02361+01851101421ADDAA106000091AG10000GF106991051021008001071041KA1240N+01851MA1999999096461MD1999999+0021REMSYN017 333 20185 58002;
0096832360999991994051918004-12150-045000FM-12+044099999V0203601N00101007501CN0200001N1+03061+01701100971ADDAA106000091AG10000GF107991061021008001081051MA1999999096071MD1999999+0041REMSYN011 333 58004;
0134832360999991994052000004-12150-045000FM-12+044099999V0201401N00101220001CN9999999N9+02111+01841101161ADDAA106000091AG10000GF104991001001999999001061KA1240M+03111MA1999999096221MD1999999+0031REMSYN017 333 10311 58003;EQDQ01+000002VOVAR 
0115832360999991994052012004-12150-045000FM-12+044099999V0201801N00101220001CN0500001N1+02311+01751101391ADDAA106000091AG10000GF103991001001999999001051KA1240N+01701MA1999999096421MD1999999-0041REMSYN017 333 20170 59004;
0096832360999991994052018004-12150-045000FM-12+044099999V0203601N00101220001CN0500001N1+03311+01551100811ADDAA106000091AG10000GF102991001001999999001051MA1999999095911MD1999999-0161REMSYN011 333 59016;
0115832360999991994052112004-12150-045000FM-12+044099999V0209991C00001220001CN0500001N1+02361+01541101421ADDAA106000091AG10000GF102991001001999999001051KA1240N+01641MA1999999096461MD1999999+0041REMSYN017 333 20164 58004;
0096832360999991994052118004-12150-045000FM-12+044099999V0203601N00211220001CN0500001N1+03271+01421100921ADDAA106000091AG10000GF102991021021008001001001MA1999999096031MD1999999+0121REMSYN011 333 58012;
0150832360999991994052200004-12150-045000FM-12+044099999V0201801N00101220001CN9999999N9+02201+01861101221ADDAA106000091AG10000GA1001+999999999GF100991001001999999001001KA1240M+03271MA1999999096281MD1999999+0141REMSYN017 333 10327 58014;EQDQ01+000002VOVAR 
0115832360999991994052212004-12150-045000FM-12+044099999V0201801N00101220001CN0500001N1+02341+01671101431ADDAA106000091AG10000GF103991001001999999001061KA1240N+01701MA1999999096471MD1999999+0011REMSYN017 333 20170 58001;
0096832360999991994052218004-12150-045000FM-12+044099999V0203201N00211105001CN0500001N1+03281+01531100901ADDAA106000091AG10000GF105991031021008001001051MA1999999096011MD1999999-0021REMSYN011 333 59002;
0134832360999991994052300004-12150-045000FM-12+044099999V0209991C00001220001CN9999999N9+02181+01901101161ADDAA106000091AG10000GF103991001001999999001061KA1240M+03291MA1999999096221MD1999999-0061REMSYN017 333 10329 59006;EQDQ01+000002VOVAR 
0115832360999991994052312004-12150-045000FM-12+044099999V0202301N00101220001CN0500001N1+02481+01781101411ADDAA106000091AG10000GF102991021021012501001001KA1240N+01801MA1999999096471MD1999999+0001REMSYN017 333 20180 58000;
0096832360999991994052318004-12150-045000FM-12+044099999V0203601N00261220001CN0500001N1+03251+01631100881ADDAA106000091AG10000GF103991031021008001001001MA1999999095991MD1999999-0021REMSYN011 333 59002;
0134832360999991994052400004-12150-045000FM-12+044099999V0209991C00001220001CN9999999N9+02261+01901101131ADDAA106000091AG10000GF102991021021012501001001KA1240M+03271MA1999999096201MD1999999-0021REMSYN017 333 10327 59002;EQDQ01+000002VOVAR 
0115832360999991994052412004-12150-045000FM-12+044099999V0201801N00051220001CN0500001N1+02481+01851101371ADDAA106000091AG10000GF103991021001022501081011KA1240N+01941MA1999999096431MD1999999-0041REMSYN017 333 20194 59004;
0096832360999991994052418004-12150-045000FM-12+044099999V0203201N00311220001CN0200001N1+03291+01701100851ADDAA106000091AG10000GF104991041021008001001001MA1999999095971MD1999999-0021REMSYN011 333 59002;
0115832360999991994052512004-12150-045000FM-12+044099999V0201801N00101220001CN0500001N1+02381+01801101321ADDAA106000091AG10000GF102991021001022501081001KA1240N+01801MA1999999096381MD1999999-0051REMSYN017 333 20180 59005;
0096832360999991994052518004-12150-045000FM-12+044099999V0201401N00311220001CN0200001N1+03351+01581100791ADDAA106000091AG10000GF104991041021008001001001MA1999999095921MD1999999-0051REMSYN011 333 59005;
0150832360999991994052600004-12150-045000FM-12+044099999V0202301N00101220001CN9999999N9+02211+01921101021ADDAA106000091AG10000GA1001+999999999GF100991001001999999001001KA1240M+03361MA1999999096091MD1999999-0121REMSYN017 333 10336 59012;EQDQ01+000002VOVAR 
0131832360999991994052612004-12150-045000FM-12+044099999V0202301N00151220001CN0500001N1+99999+99999101271ADDAA106000091AG10000GA1001+999999999GF100991001001999999001001KA1240N+01681MA1999999096321MD1999999-0061REMSYN017 333 20168 59006;
0150832360999991994052700004-12150-045000FM-12+044099999V0201801N00151220001CN9999999N9+02231+01781100931ADDAA106000091AG10000GA1001+999999999GF100991001001999999001001KA1240M+03351MA1999999096001MD1999999-0091REMSYN017 333 10335 59009;EQDQ01+000002VOVAR 
0115832360999991994052712004-12150-045000FM-12+044099999V0201801N00101220001CN0500001N1+02231+01621101211ADDAA106000091AG10000GF102991021001022501081001KA1240N+01651MA1999999096251MD1999999-0071REMSYN017 333 20165 59007;
0096832360999991994052718004-12150-045000FM-12+044099999V0200501N00261220001CN0500001N1+03261+01561100651ADDAA106000091AG10000GF104991031021008001001011MA1999999095771MD1999999-0091REMSYN011 333 59009;
0134832360999991994052800004-12150-045000FM-12+044099999V0201801N00151220001CN9999999N9+02211+01821100921ADDAA106000091AG10000GF102991021001022501041001KA1240M+03281MA1999999095981MD1999999-0021REMSYN017 333 10328 59002;EQDQ01+000002VOVAR 
0115832360999991994052812004-12150-045000FM-12+044099999V0202701N00101045001CN0200001N1+02331+01791101281ADDAA106000091AG10000GF106991021021008001051001KA1240N+01851MA1999999096331MD1999999+0081REMSYN017 333 20185 58008;
0096832360999991994052818004-12150-045000FM-12+044099999V0203601N00261220001CN0500001N1+03291+01661100801ADDAA106000091AG10000GF104991031021008001041001MA1999999095931MD1999999+0161REMSYN011 333 58016;
0134832360999991994052900004-12150-045000FM-12+044099999V0201401N00151220001CN9999999N9+02191+01861101031ADDAA106000091AG10000GF102991021001022501041001KA1240M+03301MA1999999096101MD1999999+0121REMSYN017 333 10330 58012;EQDQ01+000002VOVAR 
0102832360999991994052912004-12150-045000FM-12+044099999V0202701N00101012001CN0200001N1+02211+01881101331ADDAA106000091AG10000GF106991061081008001001001MA1999999096361MD1999999+0031REMSYN017 333 20887 58003;
0124832360999991994052918004-12150-045000FM-12+044099999V0200501N00571220001CN0200001N1+03131+01751100831ADDAA106000191AG10000AY151061AY251061GF104991031081008001041001MA1999999095931MD1999999+0001MW1021REMSYN017 333 58000 69921;
0150832360999991994053000004-12150-045000FM-12+044099999V0202701N00151220001CN9999999N9+02211+01951101101ADDAA106000091AG10000GA1001+999999999GF100991001001999999001001KA1240M+03241MA1999999096151MD1999999+0051REMSYN017 333 10324 58005;EQDQ01+000002VOVAR 
0121832360999991994053012004-12150-045000FM-12+044099999V0202701N00101220001CN0500001N1+02371+01891101381ADDAA124000191AG10000GF104991011011008001001041KA1240N+01821MA1999999096421MD1999999+0061REMSYN023 333 20182 58006 69924;
0096832360999991994053018004-12150-045000FM-12+044099999V0201801N00261012001CN0200001N1+03171+01711100901ADDAA106000091AG10000GF106991061081008001001001MA1999999096011MD1999999+0081REMSYN011 333 58008;
0150832360999991994053100004-12150-045000FM-12+044099999V0201401N00361220001CN9999999N9+02271+01731101131ADDAA106000091AG10000GA1001+999999999GF100991001001999999001001KA1240M+03251MA1999999096191MD1999999+0041REMSYN017 333 10325 58004;EQDQ01+000002VOVAR 
0150832360999991994053112004-12150-045000FM-12+044099999V0201401N00361220001CN9999999N9+02271+01731101131ADDAA106000091AG10000GA1001+999999999GF100991001001999999001001KA1240M+03251MA1999999096191MD1999999+0041REMSYN017 333 10325 58004;EQDQ01+000002VOVAR 
0096832360999991994053118004-12150-045000FM-12+044099999V0200901N003619999999N0200001N1+02971+01381101101ADDAA106000091AG10000GF105991051001008001001001MA1999999096191MD1999999+0181REMSYN011 333 58018;
0134832360999991994060100004-12150-045000FM-12+044099999V0201401N00511021001CN9999999N9+02401+01801101241ADDAA106000091AG10000GF107991071001022501051001KA1240M+03021MA1999999096321MD1999999+0131REMSYN017 333 10302 58013;EQDQ01+000002VOVAR 
0115832360999991994060112004-12150-045000FM-12+044099999V0201401N00411045001CN0200001N1+02451+01761101621ADDAA106000091AG10000GF106991031021008001051001KA1240N+02131MA1999999096681MD1999999+0061REMSYN017 333 20213 58006;
0096832360999991994060118004-12150-045000FM-12+044099999V0200901N00411045001CN0200001N1+02871+01751101221ADDAA106000091AG10000GF106991041021008001041001MA1999999096331MD1999999+0141REMSYN011 333 58014;
0150832360999991994060200004-12150-045000FM-12+044099999V0202701N00211220001CN9999999N9+02151+01781101411ADDAA106000091AG10000GA1001+999999999GF100991001001999999001001KA1240M+02961MA1999999096451MD1999999+0151REMSYN017 333 10296 58015;EQDQ01+000002VOVAR 
0115832360999991994060212004-12150-045000FM-12+044099999V0201401N00151220001CN0500001N1+02451+01761101561ADDAA106000091AG10000GF102991021001022501081001KA1240N+01821MA1999999096601MD1999999-0081REMSYN017 333 20182 59008;
0096832360999991994060218004-12150-045000FM-12+044099999V0200901N00211220001CN0500001N1+03171+01551101051ADDAA106000091AG10000GF104991041021008001001001MA1999999096161MD1999999-0171REMSYN011 333 59017;
0115832360999991994060312004-12150-045000FM-12+044099999V0202301N00311220001CN0500001N1+02311+01651101521ADDAA106000091AG10000GF102991021011008001001001KA1240N+01831MA1999999096561MD1999999-0041REMSYN017 333 20183 59004;
0096832360999991994060318004-12150-045000FM-12+044099999V0201401N00211220001CN0500001N1+03241+01451101061ADDAA106000091AG10000GF103991031011008001001001MA1999999096171MD1999999+0011REMSYN011 333 58001;
0150832360999991994060400004-12150-045000FM-12+044099999V0202301N00101220001CN9999999N9+02071+01801101361ADDAA106000091AG10000GA1001+999999999GF100991001001999999001001KA1240M+03261MA1999999096361MD1999999-0041REMSYN017 333 10326 59004;EQDQ01+000002VOVAR 
0115832360999991994060412004-12150-045000FM-12+044099999V0202301N00151220001CN0500001N1+02281+01591101571ADDAA106000091AG10000GF103991011011008001001081KA1240N+01621MA1999999096671MD1999999+0111REMSYN017 333 20162 58011;
0096832360999991994060418004-12150-045000FM-12+044099999V0201401N00151007501CN0200001N1+03261+01641101151ADDAA106000091AG10000GF105991051021008001001001MA1999999096241MD1999999+0071REMSYN011 333 58007;
0131832360999991994060512004-12150-045000FM-12+044099999V0202701N00051220001CN0500001N1+02251+01621101621ADDAA106000091AG10000GA1001+999999999GF100991001001999999001001KA1240N+01611MA1999999096651MD1999999-0021REMSYN017 333 20161 59002;
0134832360999991994060600004-12150-045000FM-12+044099999V0202701N00051012001CN9999999N9+02491+01981101381ADDAA106000091AG10000GF107991071081008001001001KA1240M+03241MA1999999096441MD1999999+0021REMSYN017 333 10324 58002;EQDQ01+000002VOVAR 
0131832360999991994060612004-12150-045000FM-12+044099999V0201801N00101220001CN0500001N1+02411+01731101561ADDAA106000091AG10000GA1001+999999999GF100991001001999999001001KA1240N+01841MA1999999096631MD1999999-0021REMSYN017 333 20184 59002;
0096832360999991994060618004-12150-045000FM-12+044099999V0201401N00211220001CN0500001N1+03271+01471101041ADDAA106000091AG10000GF103991031011008001001001MA1999999096161MD1999999-0021REMSYN011 333 59002;
0131832360999991994060712004-12150-045000FM-12+044099999V0202701N00101220001CN0500001N1+02381+01581101691ADDAA106000091AG10000GA1001+999999999GF100991001001999999001001KA1240N+01771MA1999999096731MD1999999+0101REMSYN017 333 20177 58010;
0096832360999991994060718004-12150-045000FM-12+044099999V0201801N00211007501CN0200001N1+03121+01391101211ADDAA106000091AG10000GF105991051021008001001001MA1999999096311MD1999999+0151REMSYN011 333 58015;
0150832360999991994060800004-12150-045000FM-12+044099999V0202701N00101220001CN9999999N9+02081+01741101481ADDAA106000091AG10000GA1001+999999999GF100991001001999999001001KA1240M+03211MA1999999096521MD1999999+0101REMSYN017 333 10321 58010;EQDQ01+000002VOVAR 
0115832360999991994060812004-12150-045000FM-12+044099999V0202301N00151220001CN0500001N1+02251+01431101781ADDAA106000091AG10000GF102991001001999999001011KA1240N+01561MA1999999096791MD1999999+0061REMSYN017 333 20156 58006;
0096832360999991994060818004-12150-045000FM-12+044099999V0200501N00211045001CN0200001N1+03161+01381101311ADDAA106000091AG10000GF105991041021008001041001MA1999999096371MD1999999+0061REMSYN011 333 58006;
0150832360999991994060900004-12150-045000FM-12+044099999V0202301N00051220001CN9999999N9+02171+01781101531ADDAA106000091AG10000GA1001+999999999GF100991001001999999001001KA1240M+03201MA1999999096561MD1999999+0041REMSYN017 333 10320 58004;EQDQ01+000002VOVAR 
0115832360999991994060912004-12150-045000FM-12+044099999V0202301N00151220001CN0500001N1+02421+01401101701ADDAA106000091AG10000GF104991011001022501041041KA1240N+01811MA1999999096741MD1999999-0051REMSYN017 333 20181 59005;
0096832360999991994060918004-12150-045000FM-12+044099999V0201401N00151220001CN0500001N1+03201+01421101241ADDAA106000091AG10000GF104991041021008001001001MA1999999096341MD1999999-0031REMSYN011 333 59003;
0134832360999991994061000004-12150-045000FM-12+044099999V0201801N00101220001CN9999999N9+02311+01851101461ADDAA106000091AG10000GF104991041001022501061001KA1240M+03241MA1999999096521MD1999999-0041REMSYN017 333 10324 59004;EQDQ01+000002VOVAR 
0131832360999991994061012004-12150-045000FM-12+044099999V0201401N00361220001CN0500001N1+02471+01521101671ADDAA106000091AG10000GA1001+999999999GF100991001001999999001001KA1240N+02041MA1999999096731MD1999999-0011REMSYN017 333 20204 59001;
0096832360999991994061018004-12150-045000FM-12+044099999V0200901N00311220001CN0200001N1+03011+01481101241ADDAA106000091AG10000GF104991041021008001001001MA1999999096341MD1999999+0001REMSYN011 333 58000;
0131832360999991994061112004-12150-045000FM-12+044099999V0202301N00151220001CN0500001N1+02141+01411101711ADDAA106000091AG10000GA1001+999999999GF100991001001999999001001KA1240N+01861MA1999999096751MD1999999+0021REMSYN017 333 20186 58002;
0096832360999991994061118004-12150-045000FM-12+044099999V0200901N00261220001CN0500001N1+03041+01321101191ADDAA106000091AG10000GF103991031021008001001001MA1999999096301MD1999999-0041REMSYN011 333 59004;
0150832360999991994061200004-12150-045000FM-12+044099999V0202701N00261220001CN9999999N9+02051+01431101401ADDAA106000091AG10000GA1001+999999999GF100991001001999999001001KA1240M+03051MA1999999096421MD1999999-0121REMSYN017 333 10305 59012;EQDQ01+000002VOVAR 
0115832360999991994061212004-12150-045000FM-12+044099999V0202301N00151220001CN0500001N1+02301+01401101651ADDAA106000091AG10000GF102991001001999999001021KA1240N+01571MA1999999096671MD1999999-0081REMSYN017 333 20157 59008;
0096832360999991994061218004-12150-045000FM-12+044099999V0200501N00261220001CN0200001N1+03051+01411101141ADDAA106000091AG10000GF104991041021008001001001MA1999999096211MD1999999-0091REMSYN011 333 59009;
0115832360999991994061312004-12150-045000FM-12+044099999V0201401N00151220001CN0500001N1+02411+01411101541ADDAA106000091AG10000GF102991021021012501001001KA1240N+01701MA1999999096601MD1999999-0071REMSYN017 333 20170 59007;
0096832360999991994061318004-12150-045000FM-12+044099999V0200901N00411105001CN0200001N1+03211+01371101041ADDAA106000091AG10000GF105991041021008001001051MA1999999096151MD1999999-0061REMSYN011 333 59006;
0134832360999991994061400004-12150-045000FM-12+044099999V0202301N00101220001CN9999999N9+02061+01681101251ADDAA106000091AG10000GF102991021001022501051001KA1240M+03241MA1999999096301MD1999999-0111REMSYN017 333 10324 59011;EQDQ01+000002VOVAR 
0115832360999991994061412004-12150-045000FM-12+044099999V0202301N00151007501CN0200001N1+02301+01561101561ADDAA106000091AG10000GF106991051021008001071051KA1240N+01611MA1999999096591MD1999999-0011REMSYN017 333 20161 59001;
0134832360999991994061500004-12150-045000FM-12+044099999V0209991C00001220001CN9999999N9+02201+01971101361ADDAA106000091AG10000GF103991021001022501051041KA1240M+03181MA1999999096401MD1999999+0101REMSYN017 333 10318 58010;EQDQ01+000002VOVAR 
0115832360999991994061512004-12150-045000FM-12+044099999V0202701N00151220001CN0500001N1+02351+01691101571ADDAA106000091AG10000GF105991021001022501071061KA1240N+01731MA1999999096611MD1999999+0021REMSYN017 333 20173 58002;
0096832360999991994061518004-12150-045000FM-12+044099999V0200901N00101007501CN0200001N1+03271+01471101121ADDAA106000091AG10000GF106991051021008001081051MA1999999096221MD1999999+0041REMSYN011 333 58004;
0134832360999991994061600004-12150-045000FM-12+044099999V0202701N00101220001CN9999999N9+02161+01801101361ADDAA106000091AG10000GF102991001001999999001051KA1240M+03281MA1999999096401MD1999999+0001REMSYN017 333 10328 58000;EQDQ01+000002VOVAR 
0115832360999991994061612004-12150-045000FM-12+044099999V0201801N00101220001CN0500001N1+02421+01621101641ADDAA106000091AG10000GF103991001001999999001051KA1240N+01731MA1999999096681MD1999999+0071REMSYN017 333 20173 58007;
0096832360999991994061618004-12150-045000FM-12+044099999V0200901N00151007501CN0200001N1+03261+01511101111ADDAA106000091AG10000GF106991051021008001061041MA1999999096221MD1999999+0001REMSYN011 333 58000;
0134832360999991994061700004-12150-045000FM-12+044099999V0202701N00211220001CN9999999N9+02111+01761101291ADDAA106000091AG10000GF104991041021008001071001KA1240M+03281MA1999999096341MD1999999-0061REMSYN017 333 10328 59006;EQDQ01+000002VOVAR 
0096832360999991994061718004-12150-045000FM-12+044099999V0200501N00151105001CN0500001N1+03231+01291100991ADDAA106000091AG10000GF105991041021008001001051MA1999999096111MD1999999-0111REMSYN011 333 59011;
0131832360999991994061812004-12150-045000FM-12+044099999V0202301N00151220001CN0500001N1+02331+01471101461ADDAA106000091AG10000GA1001+999999999GF100991001001999999001001KA1240N+01621MA1999999096491MD1999999-0101REMSYN017 333 20162 59010;
0096832360999991994061818004-12150-045000FM-12+044099999V0200501N00261007501CN0200001N1+03071+01381100961ADDAA106000091AG10000GF105991051021008001001001MA1999999096051MD1999999-0071REMSYN011 333 59007;
0134832360999991994061900004-12150-045000FM-12+044099999V0202301N00151007501CN9999999N9+02111+01681101181ADDAA106000091AG10000GF105991051021008001071001KA1240M+03181MA1999999096231MD1999999-0031REMSYN017 333 10318 59003;EQDQ01+000002VOVAR 
0131832360999991994061912004-12150-045000FM-12+044099999V0202301N00101220001CN0500001N1+02321+01371101481ADDAA106000091AG10000GA1001+999999999GF100991001001999999001001KA1240N+01631MA1999999096511MD1999999-0021REMSYN017 333 20163 59002;
0096832360999991994061918004-12150-045000FM-12+044099999V0203601N00211007501CN0200001N1+03111+01421100991ADDAA106000091AG10000GF105991051021008001081001MA1999999096081MD1999999+0031REMSYN011 333 58003;
0131832360999991994062012004-12150-045000FM-12+044099999V0201401N00101220001CN0500001N1+02341+01571101441ADDAA106000091AG10000GA1001+999999999GF100991001001999999001001KA1240N+01721MA1999999096471MD1999999-0041REMSYN017 333 20172 59004;
0096832360999991994062018004-12150-045000FM-12+044099999V0200901N00211007501CN0500001N1+03201+01371100911ADDAA106000091AG10000GF105991051021008001001001MA1999999096701MD1999999-0061REMSYN011 333 59006;
0131832360999991994062112004-12150-045000FM-12+044099999V0202701N00101220001CN0500001N1+02231+01531101431ADDAA106000091AG10000GA1001+999999999GF100991001001999999001001KA1240N+01611MA1999999096461MD1999999-0011REMSYN017 333 20161 59001;
0096832360999991994062118004-12150-045000FM-12+044099999V0202301N00151220001CN0500001N1+03271+01331100821ADDAA106000091AG10000GF103991031011008001001001MA1999999095941MD1999999-0081REMSYN011 333 59008;
0150832360999991994062200004-12150-045000FM-12+044099999V0202701N00151220001CN9999999N9+02151+01821101031ADDAA106000091AG10000GA1001+999999999GF100991001001999999001001KA1240M+03331MA1999999096091MD1999999-0151REMSYN017 333 10333 59015;EQDQ01+000002VOVAR 
0115832360999991994062212004-12150-045000FM-12+044099999V0203601N00151220001CN0500001N1+02341+01641101381ADDAA106000091AG10000GF103991001001999999001041KA1240N+01671MA1999999096421MD1999999-0041REMSYN017 333 20167 59004;
0096832360999991994062218004-12150-045000FM-12+044099999V0203201N00101220001CN0500001N1+03301+01411100811ADDAA106000091AG10000GF103991021011008001001091MA1999999095931MD1999999-0011REMSYN011 333 59001;
0134832360999991994062300004-12150-045000FM-12+044099999V0201801N00151045001CN9999999N9+02251+01711101171ADDAA106000091AG10000GF106991011011008001071091KA1240M+03331MA1999999096231MD1999999+0141REMSYN017 333 10333 58014;EQDQ01+000002VOVAR 
0100832360999991994062312004-12150-045000FM-12+044099999V0201401N00151012001CN0100001N1+02361+01761101491ADDAA106000091AG10000GF108991071081008001051999KA1240N+02151MD1999999+0121REMSYN017 333 20215 58012;
0096832360999991994062318004-12150-045000FM-12+044099999V0200501N00101220001CN0200001N1+03161+01551100761ADDAA106000091AG10000GF105991041021008001001041MA1999999095931MD1999999+0001REMSYN011 333 58000;
0150832360999991994062400004-12150-045000FM-12+044099999V0202301N00151220001CN9999999N9+02171+01841101041ADDAA106000091AG10000GA1001+999999999GF100991001001999999001001KA1240M+03171MA1999999096111MD1999999-0211REMSYN017 333 10317 59021;EQDQ01+000002VOVAR 
0096832360999991994062418004-12150-045000FM-12+044099999V0200501N00101220001CN0200001N1+03151+99999100821ADDAA106000091AG10000GF106991041021008001001041MA1999999095921MD1999999-0011REMSYN011 333 59001;
0134832360999991994062500004-12150-045000FM-12+044099999V0201401N00101007501CN9999999N9+02351+01951101051ADDAA106000091AG10000GF105991051021008001071001KA1240M+03221MA1999999096131MD1999999+0021REMSYN017 333 10322 58002;EQDQ01+000002VOVAR 
0115832360999991994062512004-12150-045000FM-12+044099999V0201801N00101220001CN0500001N1+02551+01711101321ADDAA106000091AG10000GF102991021021012501001001KA1240N+01911MA1999999096401MD1999999+0141REMSYN017 333 20191 58014;
0134832360999991994062600004-12150-045000FM-12+044099999V0201801N00151012001CN9999999N9+02481+01941101231ADDAA106000091AG10000GF108991071081008001051999KA1240M+03271MA1999999096331MD1999999+0201REMSYN017 333 10327 58020;EQDQ01+000002VOVAR 
0134832360999991994062612004-12150-045000FM-12+044099999V0201401N00311007501CN0200001N1+02311+01721101521ADDAA106000091AG10000GF108991999071008001081999KA1240N+02071MA1999999096581MD1999999+0181REMSYN017 333 20207 58018;EQDQ01+000082SCOTLC
0096832360999991994062618004-12150-045000FM-12+044099999V0201401N00151007501CN0200001N1+02811+01691101051ADDAA106000091AG10000GF107991061051008001071041MA1999999096141MD1999999+0131REMSYN011 333 58013;
0134832360999991994062700004-12150-045000FM-12+044099999V0202301N00101220001CN9999999N9+02181+01821101291ADDAA106000091AG10000GF103991031021012501001001KA1240M+02871MA1999999096341MD1999999+0011REMSYN017 333 10287 58001;EQDQ01+000002VOVAR 
0143832360999991994062712004-12150-045000FM-12+044099999V0202701N00211021001CN0200001N1+02091+01641101621ADDAA124005091AG10002AY161061AY261061GF106991061001022501071001KA1240N+01871MA1999999096641MD1999999+0061MW1021REMSYN023 333 20187 58006 60054;
0096832360999991994062718004-12150-045000FM-12+044099999V0202301N00211105001CN0200001N1+03041+01751101151ADDAA106000091AG10000GF106991041021008001001021MA1999999096231MD1999999+0091REMSYN011 333 58009;
0114832360999991994062812004-12150-045000FM-12+044099999V0201401N00211220001CN0500001N9+02391+01711101591ADDAA106000091AG14000GF102991021001022501041001KA1240N+01661MA1999999096651MD1999999+0051REMSYN016 333 20166 58005
0096832360999991994062818004-12150-045000FM-12+044099999V0201401N00411220001CN0500001N1+03141+01501101071ADDAA106000091AG10000GF103991031011008001001001MA1999999096191MD1999999-0041REMSYN011 333 59004;
0134832360999991994062900004-12150-045000FM-12+044099999V0201801N00211220001CN9999999N9+02371+01761101361ADDAA106000091AG10000GF103991031001022501061001KA1240M+03201MA1999999096431MD1999999+0011REMSYN017 333 10320 58001;EQDQ01+000002VOVAR 
0115832360999991994062912004-12150-045000FM-12+044099999V0201401N00511220001CN0500001N1+02311+01651101661ADDAA106000091AG10000GF102991021011008001001001KA1240N+01511MA1999999096711MD1999999+0061REMSYN017 333 20151 58006;
0096832360999991994062918004-12150-045000FM-12+044099999V0201401N00571007501CN0100001N1+02751+01671101321ADDAA106000091AG10000GF108991081051008001999999MA1999999096411MD1999999+0221REMSYN011 333 58022;
0134832360999991994063000004-12150-045000FM-12+044099999V0202301N00151012001CN9999999N9+02151+01721101501ADDAA106000091AG10000GF106991061081008001001001KA1240M+02881MA1999999096541MD1999999+0111REMSYN017 333 10288 58011;EQDQ01+000002VOVAR 
0115832360999991994063012004-12150-045000FM-12+044099999V0201401N00571045001CN0200001N1+02311+01561101751ADDAA106000091AG10000GF106991031021008001061001KA1240N+01581MA1999999096771MD1999999+0061REMSYN017 333 20158 58006;
0096832360999991994063018004-12150-045000FM-12+044099999V0201401N00511220001CN0200001N1+02871+01331101281ADDAA106000091AG10000GF104991041021008001001001MA1999999096371MD1999999-0041REMSYN011 333 59004;
0134832360999991994070100004-12150-045000FM-12+044099999V0201801N00211220001CN9999999N9+02361+01611101471ADDAA106000091AG10000GF102991021011008001001001KA1240M+02991MA1999999096531MD1999999-0011REMSYN017 333 10299 59001;EQDQ01+000002VOVAR 
0096832360999991994070118004-12150-045000FM-12+044099999V0201401N00311007501CN0100001N1+02811+01561101231ADDAA106000091AG10000GF108991081051008001999999MA1999999096331MD1999999-0041REMSYN011 333 59004;
0134832360999991994070200004-12150-045000FM-12+044099999V0202301N00151007501CN9999999N9+02351+01721101341ADDAA106000091AG10000GF108991081051008001001001KA1240M+02831MA1999999096441MD1999999-0091REMSYN017 333 10283 59009;EQDQ01+000002VOVAR 
0131832360999991994070212004-12150-045000FM-12+044099999V0201401N00261220001CN0500001N1+02201+01361101761ADDAA106000091AG10000GA1001+999999999GF100991001001999999001001KA1240N+01371MA1999999096781MD1999999+0011REMSYN017 333 20137 58001;
0150832360999991994070300004-12150-045000FM-12+044099999V0202301N00101220001CN9999999N9+01941+01271101571ADDAA106000091AG10000GA1001+999999999GF100991001001999999001001KA1240M+03031MA1999999096561MD1999999+0121REMSYN017 333 10303 58012;EQDQ01+000002VOVAR 
0150832360999991994070312004-12150-045000FM-12+044099999V0202301N00151220001CN0500001N1+02081+01251101761ADDAA106000091AG10000GA1001+999999999GF100991001001999999001001KA1240N+99999MA1999999096731MD1999999-0051REMSYN017 333 20227 59005;EQDQ01 +02272ATMN  
0096832360999991994070318004-12150-045000FM-12+044099999V0201401N00151220001CN0500001N1+03001+01291101241ADDAA106000091AG10000GF101991011011008001001001MA1999999096321MD1999999-0051REMSYN011 333 59005;
0134832360999991994070400004-12150-045000FM-12+044099999V0201801N00211021001CN9999999N9+02501+01391101451ADDAA106000091AG10000GF108991081001022501021999KA1240M+03031MA1999999096481MD1999999-0081REMSYN017 333 10303 59008;EQDQ01+000002VOVAR 
0115832360999991994070412004-12150-045000FM-12+044099999V0201401N00311220001CN0500001N1+02401+01581101611ADDAA106000091AG10000GF104991011011008001001041KA1240N+01551MA1999999096681MD1999999-0051REMSYN017 333 20155 59005;
0096832360999991994070418004-12150-045000FM-12+044099999V0201401N00571007501CN0200001N1+02931+01421101411ADDAA106000091AG10000GF105991051021008001001001MA1999999096321MD1999999+0001REMSYN011 333 58000;
0131832360999991994070512004-12150-045000FM-12+044099999V0201401N00151220001CN0500001N1+02351+01411101651ADDAA106000091AG10000GA1001+999999999GF100991001001999999001001KA1240N+01631MA1999999096711MD1999999+0031REMSYN017 333 20163 58003;
0112832360999991994070518004-12150-045000FM-12+044099999V0201401N00261220001CN0500001N1+03071+00581101081ADDAA106000091AG10000GA1001+999999999GF100991001001999999001001MA1999999096191MD1999999-0131REMSYN011 333 59013;
0131832360999991994070612004-12150-045000FM-12+044099999V0201801N00211220001CN0500001N1+02071+01361101401ADDAA106000091AG10000GA1001+999999999GF100991001001999999001001KA1240N+01951MA1999999096531MD1999999-0181REMSYN017 333 20195 59018;
0096832360999991994070618004-12150-045000FM-12+044099999V0200501N00411220001CN0200001N1+03151+01451100901ADDAA106000091AG10000GF104991041021008001001001MA1999999095991MD1999999-0201REMSYN011 333 59020;
0150832360999991994070700004-12150-045000FM-12+044099999V0202301N00211220001CN9999999N9+02311+01581101231ADDAA106000091AG10000GA1001+999999999GF100991001001999999001001KA1240M+03171MA1999999096271MD1999999-0111REMSYN017 333 10317 59011;EQDQ01+000002VOVAR 
0096832360999991994070718004-12150-045000FM-12+044099999V0201401N00151220001CN0500001N1+03171+01291101051ADDAA106000091AG10000GF103991031021008001001001MA1999999096161MD1999999+0171REMSYN011 333 58017;
0134832360999991994070800004-12150-045000FM-12+044099999V0202301N00151220001CN9999999N9+02091+01471101411ADDAA106000091AG10000GF102991021011008001001001KA1240M+03241MA1999999096441MD1999999+0171REMSYN017 333 10324 58017;EQDQ01+000002VOVAR 
0115832360999991994070812004-12150-045000FM-12+044099999V0202301N00101220001CN0500001N1+02151+01531101751ADDAA106000091AG10000GF102991021001022501041001KA1240N+01161MA1999999096751MD1999999+0151REMSYN017 333 20116 58015;
0096832360999991994070818004-12150-045000FM-12+044099999V0203201N00151220001CN0500001N1+03191+01491101171ADDAA106000091AG10000GF104991031021008001001011MA1999999096251MD1999999+0091REMSYN011 333 58009;
0134832360999991994070900004-12150-045000FM-12+044099999V0202301N00051220001CN9999999N9+02321+01721101411ADDAA106000091AG10000GF103991031021008001001001KA1240M+03201MA1999999096451MD1999999+0011REMSYN017 333 10320 58001;EQDQ01+000002VOVAR 
0115832360999991994070912004-12150-045000FM-12+044099999V0201801N00101220001CN0500001N1+02271+01641101601ADDAA106000091AG10000GF103991001001999999001041KA1240N+01331MA1999999096641MD1999999-0111REMSYN017 333 20133 59011;
0096832360999991994070918004-12150-045000FM-12+044099999V0201801N00311220001CN0200001N1+03281+99999999999ADDAA106000091AG10000GF105991031021008001001041MA1999999096231MD1999999-0021REMSYN011 333 59002;
0150832360999991994071000004-12150-045000FM-12+044099999V0202301N00151220001CN9999999N9+02121+01721101401ADDAA106000091AG10000GA1001+999999999GF100991001001999999001001KA1240M+03321MA1999999096431MD1999999+0021REMSYN017 333 10332 58002;EQDQ01+000002VOVAR 
0115832360999991994071012004-12150-045000FM-12+044099999V0201801N00411220001CN0500001N1+02221+01411101811ADDAA106000091AG10000GF102991021001022501061001KA1240N+01371MA1999999096821MD1999999+0181REMSYN017 333 20137 58018;
0096832360999991994071018004-12150-045000FM-12+044099999V0201401N00311220001CN0500001N1+02151+01431101391ADDAA106000091AG10000GF104991041021008001001001MA1999999096471MD1999999+0231REMSYN011 333 58023;
0150832360999991994071100004-12150-045000FM-12+044099999V0202301N00261220001CN9999999N9+02191+01591101621ADDAA106000091AG10000GA1001+999999999GF100991001001999999001001KA1240M+03211MA1999999096651MD1999999+0221REMSYN017 333 10321 58022;EQDQ01+000002VOVAR 
0134832360999991994071112004-12150-045000FM-12+044099999V0201401N003119999999N0500001N1+02251+01501102051ADDAA106000091AG10000GF105991001001999999001041KA1240N+01351MA1999999097051MD1999999+0231REMSYN017 333 20135 58023;EQDQ01+000082SCOTLC
0096832360999991994071118004-12150-045000FM-12+044099999V0201401N00411220001CN0500001N1+02991+01311101591ADDAA106000091AG10000GF104991021011008001001041MA1999999096661MD1999999+0191REMSYN011 333 58019;
0115832360999991994071212004-12150-045000FM-12+044099999V0201401N00411007501CN0200001N1+02301+01541102131ADDAA106000091AG10000GF106991051071008001051021KA1240N+01651MA1999999097131MD1999999+0081REMSYN017 333 20165 58008;
0096832360999991994071218004-12150-045000FM-12+044099999V0200901N00411012001CN0200001N1+02771+01281101611ADDAA106000091AG10000GF106991061081008001051001MA1999999096631MD1999999-0031REMSYN011 333 59003;
0134832360999991994071300004-12150-045000FM-12+044099999V0202301N00151007501CN9999999N9+01941+01461101811ADDAA106000091AG10000GF105991051021008001061001KA1240M+02821MA1999999096771MD1999999-0031REMSYN017 333 10282 59003;EQDQ01+000002VOVAR 
0131832360999991994071312004-12150-045000FM-12+044099999V0201401N00411220001CN0500001N1+02141+01281102031ADDAA106000091AG10000GA1001+999999999GF100991001001999999001001KA1240N+01591MA1999999097001MD1999999-0131REMSYN017 333 20159 59013;
0096832360999991994071318004-12150-045000FM-12+044099999V0200901N00261220001CN0500001N1+02911+01201101411ADDAA106000091AG10000GF104991041021008001001001MA1999999096471MD1999999-0161REMSYN011 333 59016;
0150832360999991994071400004-12150-045000FM-12+044099999V0202701N00151220001CN9999999N9+02051+01471101631ADDAA106000091AG10000GA1001+999999999GF100991001001999999001001KA1240M+02981MA1999999096641MD1999999-0131REMSYN017 333 10298 59013;EQDQ01+000002VOVAR 
0131832360999991994071412004-12150-045000FM-12+044099999V0201401N00361220001CN0500001N1+02331+01421101861ADDAA106000091AG10000GA1001+999999999GF100991001001999999001001KA1240N+01721MA1999999096871MD1999999-0131REMSYN017 333 20172 59013;
0096832360999991994071418004-12150-045000FM-12+044099999V0201401N00261220001CN0500001N1+02941+01231101371ADDAA106000091AG10000GF104991041011008001001001MA1999999096451MD1999999-0021REMSYN011 333 59002;
0134832360999991994071500004-12150-045000FM-12+044099999V0202301N00311220001CN9999999N9+02211+01331101581ADDAA106000091AG10000GF102991021021008001001001KA1240M+03081MA1999999096621MD1999999-0021REMSYN017 333 10308 59002;EQDQ01+000002VOVAR 
0115832360999991994071512004-12150-045000FM-12+044099999V0201801N00151007501CN0200001N1+02311+01561101791ADDAA106000091AG10000GF105991051021008001071001KA1240N+01921MA1999999096811MD1999999-0061REMSYN017 333 20192 59006;
0096832360999991994071518004-12150-045000FM-12+044099999V0200901N00311007501CN0200001N1+02991+01311101311ADDAA106000091AG10000GF106991061021008001061001MA1999999096401MD1999999-0051REMSYN011 333 59005;
0134832360999991994071600004-12150-045000FM-12+044099999V0202301N00211007501CN9999999N9+02501+01421101531ADDAA106000091AG10000GF108991071021008001071999KA1240M+03131MA1999999096591MD1999999-0031REMSYN017 333 10313 59003;EQDQ01+000002VOVAR 
0131832360999991994071612004-12150-045000FM-12+044099999V0201801N00311220001CN0500001N1+02491+01461101711ADDAA106000091AG10000GA1001+999999999GF100991001001999999001001KA1240N+02011MA1999999096781MD1999999-0031REMSYN017 333 20201 59003;
0096832360999991994071618004-12150-045000FM-12+044099999V0200901N00261007501CN0200001N1+03061+02251101261ADDAA106000091AG10000GF106991061021008001071001MA1999999096361MD1999999-0061REMSYN011 333 59006;
0134832360999991994071700004-12150-045000FM-12+044099999V0202301N00151007501CN9999999N9+02301+01511101501ADDAA106000091AG10000GF105991051021008001061001KA1240M+03141MA1999999096561MD1999999-0031REMSYN017 333 10314 59003;EQDQ01+000002VOVAR 
0115832360999991994071712004-12150-045000FM-12+044099999V0202301N00151007501CN0200001N1+02501+01481101741ADDAA106000091AG10000GF105991051021008001061001KA1240N+01991MA1999999096791MD1999999+0011REMSYN017 333 20199 58001;
0096832360999991994071718004-12150-045000FM-12+044099999V0201401N00261220001CN0500001N1+03131+01111101191ADDAA106000091AG10000GF104991041021008001001001MA1999999096301MD1999999-0061REMSYN011 333 59006;
0134832360999991994071800004-12150-045000FM-12+044099999V0202301N00211007501CN9999999N9+02231+01381101421ADDAA106000091AG10000GF105991051021008001001001KA1240M+03191MA1999999096481MD1999999-0081REMSYN017 333 10319 59008;EQDQ01+000002VOVAR 
0115832360999991994071812004-12150-045000FM-12+044099999V0201801N00211220001CN0500001N1+02231+01461101671ADDAA106000091AG10000GF102991021021012501001001KA1240N+01551MA1999999096701MD1999999-0091REMSYN017 333 20155 59009;
0096832360999991994071818004-12150-045000FM-12+044099999V0201401N00361007501CN0200001N1+03171+01091101151ADDAA106000091AG10000GF105991051021008001001001MA1999999096261MD1999999-0041REMSYN011 333 59004;
0134832360999991994071900004-12150-045000FM-12+044099999V0202301N00151220001CN9999999N9+02261+01571101441ADDAA106000091AG10000GF104991041021008001001001KA1240M+03181MA1999999096481MD1999999+0001REMSYN017 333 10318 58000;EQDQ01+000002VOVAR 
0115832360999991994071912004-12150-045000FM-12+044099999V0203601N00101220001CN0500001N1+02381+01311101641ADDAA106000091AG10000GF102991001001999999001051KA1240N+01541MA1999999096681MD1999999-0021REMSYN017 333 20154 59002;
0096832360999991994071918004-12150-045000FM-12+044099999V0201401N00101220001CN0500001N1+03201+01071101141ADDAA106000091AG10000GF104991031021008001001061MA1999999096221MD1999999-0041REMSYN011 333 59004;
0134832360999991994072000004-12150-045000FM-12+044099999V0202301N00211105001CN9999999N9+02211+01441101401ADDAA106000091AG10000GF105991031021008001001051KA1240M+03251MA1999999096451MD1999999-0031REMSYN017 333 10325 59003;EQDQ01+000002VOVAR 
0115832360999991994072012004-12150-045000FM-12+044099999V0201401N00101220001CN0500001N1+02191+01241101641ADDAA106000091AG10000GF104991001001999999001051KA1240N+01481MA1999999096661MD1999999-0021REMSYN017 333 20148 59002;
0096832360999991994072018004-12150-045000FM-12+044099999V0200501N00151220001CN0500001N1+03281+01081101001ADDAA106000091AG10000GF105991031021008001001061MA1999999096101MD1999999-0121REMSYN011 333 59012;
0134832360999991994072100004-12150-045000FM-12+044099999V0202301N00211220001CN9999999N9+02341+01411101261ADDAA106000091AG10000GF104991031021008001001051KA1240M+03311MA1999999096311MD1999999-0131REMSYN017 333 10331 59013;EQDQ01+000002VOVAR 
0131832360999991994072112004-12150-045000FM-12+044099999V0200501N00261220001CN0500001N1+02471+01471101511ADDAA106000091AG10000GA1001+999999999GF100991001001999999001001KA1240N+01651MA1999999096571MD1999999-0091REMSYN017 333 20165 59009;
0096832360999991994072118004-12150-045000FM-12+044099999V0200901N00211220001CN0500001N1+03261+01331100961ADDAA106000091AG10000GF103991031021008001001001MA1999999096071MD1999999-0031REMSYN011 333 59003;
0134832360999991994072200004-12150-045000FM-12+044099999V0202301N00211007501CN9999999N9+02431+01511101221ADDAA106000091AG10000GF107991061021008001061001KA1240M+03301MA1999999096311MD1999999+0001REMSYN017 333 10330 58000;EQDQ01+000002VOVAR 
0115832360999991994072212004-12150-045000FM-12+044099999V0200501N00261105001CN0500001N1+02431+01401101571ADDAA106000091AG10000GF105991021021012501001051KA1240N+01671MA1999999096641MD1999999+0071REMSYN017 333 20167 58007;
0096832360999991994072218004-12150-045000FM-12+044099999V0200901N00361220001CN0500001N1+03261+01231101091ADDAA106000091AG10000GF105991031021008001001061MA1999999096221MD1999999+0151REMSYN011 333 58015;
0150832360999991994072300004-12150-045000FM-12+044099999V0209991C00001220001CN9999999N9+02131+01481101301ADDAA106000091AG10000GA1001+999999999GF100991001001999999001001KA1240M+03271MA1999999096351MD1999999+0041REMSYN017 333 10327 58004;EQDQ01+000002VOVAR 
0115832360999991994072312004-12150-045000FM-12+044099999V0200501N00311220001CN0500001N1+02451+01391101621ADDAA106000091AG10000GF102991021001022501051001KA1240N+01551MA1999999096661MD1999999+0021REMSYN017 333 20155 58002;
0143832360999991994072318004-12150-045000FM-12+044099999V0200901N00151220001CN0200001N1+02661+02271101721ADDAA106000591AG10000AY151061AY211061GF102991011021008001041051MA1999999101122MD1999999+0001MW1031REMSYN017 333 58000 69951;EQDQ01+101123APOSP 
0115832360999991994072412004-12150-045000FM-12+044099999V0202301N00211220001CN0500001N1+02441+01531101521ADDAA106000091AG10000GF103991001001999999001051KA1240N+01721MA1999999096571MD1999999-0091REMSYN017 333 20172 59009;
0096832360999991994072418004-12150-045000FM-12+044099999V0202301N00311007501CN0200001N1+03231+01031101061ADDAA106000091AG10000GF107991061021008001071041MA1999999096151MD1999999-0111REMSYN011 333 59011;
0131832360999991994072512004-12150-045000FM-12+044099999V0201801N00101220001CN0500001N1+02301+01321101631ADDAA106000091AG10000GA1001+999999999GF100991001001999999001001KA1240N+01631MA1999999096661MD1999999+0091REMSYN017 333 20163 58009;
0096832360999991994072518004-12150-045000FM-12+044099999V0200901N00261220001CN0500001N1+03251+00991101041ADDAA106000091AG10000GF103991031021008001001001MA1999999096151MD1999999+0001REMSYN011 333 58000;
0134832360999991994072600004-12150-045000FM-12+044099999V0202301N00311220001CN9999999N9+02451+01241101311ADDAA106000091AG10000GF102991021021008001001001KA1240M+03281MA1999999096371MD1999999+0011REMSYN017 333 10328 58001;EQDQ01+000002VOVAR 
0100832360999991994072612004-12150-045000FM-12+044099999V0200501N00211007501CN0200001N1+02461+01661101611ADDAA106000091AG10000GF107991071021008001071001KA1240N+01751MD1999999+0021REMSYN017 333 20175 58002;
0096832360999991994072618004-12150-045000FM-12+044099999V0200901N00311220001CN0500001N1+03161+01291101101ADDAA106000091AG10000GF103991031021004501001001MA1999999096201MD1999999+0051REMSYN011 333 58005;
0150832360999991994072700004-12150-045000FM-12+044099999V0202301N00211220001CN9999999N9+02181+01421101321ADDAA106000091AG10000GA1001+999999999GF100991001001999999001001KA1240M+03201MA1999999096371MD1999999+0001REMSYN017 333 10320 58000;EQDQ01+000002VOVAR 
0131832360999991994072712004-12150-045000FM-12+044099999V0202301N00101220001CN0500001N1+02391+01241101731ADDAA106000091AG10000GA1001+999999999GF100991001001999999001001KA1240N+01421MA1999999096761MD1999999+0081REMSYN017 333 20142 58008;
0096832360999991994072718004-12150-045000FM-12+044099999V0200501N00411220001CN0500001N1+03211+00761101251ADDAA106000091AG10000GF103991021021012501001041MA1999999096321MD1999999+0121REMSYN011 333 58012;
0134832360999991994072800004-12150-045000FM-12+044099999V0202301N00151220001CN9999999N9+02431+01151101391ADDAA106000091AG10000GF102991021021012501001001KA1240M+03221MA1999999096461MD1999999+0091REMSYN017 333 10322 58009;EQDQ01+000002VOVAR 
0115832360999991994072812004-12150-045000FM-12+044099999V0203201N00151220001CN0500001N1+02541+01631101621ADDAA106000091AG10000GF103991031021012501001001KA1240N+01611MA1999999096691MD1999999-0071REMSYN017 333 20161 59007;
0096832360999991994072818004-12150-045000FM-12+044099999V0200901N00311007501CN0200001N1+03231+01241101231ADDAA106000091AG10000GF106991061021008001001001MA1999999096311MD1999999-0011REMSYN011 333 59001;
0150832360999991994072900004-12150-045000FM-12+044099999V0202301N00211007501CN9999999N9+02441+01421101501ADDAA106000091AG10000GF106991061021008001071001KA1240N+99999MA1999999096571MD1999999+0111REMSYN017 333 20323 58011;EQDQ01+000002VOVAR Q02 +03232ATMN  
0131832360999991994072912004-12150-045000FM-12+044099999V0201801N00151220001CN0500001N1+02211+01251101831ADDAA106000091AG10000GA1001+999999999GF100991001001999999001001KA1240N+01201MA1999999096861MD1999999+0171REMSYN017 333 20120 58017;
0096832360999991994072918004-12150-045000FM-12+044099999V0201401N00261220001CN0500001N1+03201+01011101291ADDAA106000091AG10000GF102991021011008001001001MA1999999096391MD1999999+0081REMSYN011 333 58008;
0150832360999991994073000004-12150-045000FM-12+044099999V0202301N00101220001CN9999999N9+02171+01321101481ADDAA106000091AG10000GA1001+999999999GF100991001001999999001001KA1240M+03211MA1999999096511MD1999999-0061REMSYN017 333 10321 59006;EQDQ01+000002VOVAR 
0115832360999991994073012004-12150-045000FM-12+044099999V0200501N00261220001CN0200001N1+02391+01481101791ADDAA106000091AG10000GF103991031011008001001001KA1240N+01381MA1999999096821MD1999999-0041REMSYN017 333 20138 59004;
0112832360999991994073018004-12150-045000FM-12+044099999V0200901N00411220001CN0500001N1+03071+00951101251ADDAA106000091AG10000GA1001+999999999GF100991001001999999001001MA1999999096361MD1999999-0031REMSYN011 333 59003;
0150832360999991994073100004-12150-045000FM-12+044099999V0202301N00151220001CN9999999N9+02041+01161101521ADDAA106000091AG10000GA1001+999999999GF100991001001999999001001KA1240M+03111MA1999999096551MD1999999-0041REMSYN017 333 10311 59004;EQDQ01+000002VOVAR 
0115832360999991994073112004-12150-045000FM-12+044099999V0202701N00051220001CN0500001N1+02271+01441101791ADDAA106000091AG10000GF102991021011008001001001KA1240N+01051MA1999999096801MD1999999-0021REMSYN017 333 20105 59002;
0096832360999991994073118004-12150-045000FM-12+044099999V0201401N00311220001CN0500001N1+03081+00791101251ADDAA106000091AG10000GF102991021011008001001001MA1999999096311MD1999999-0051REMSYN011 333 59005;
0150832360999991994080100004-12150-045000FM-12+044099999V0202701N00211220001CN9999999N9+02111+01051101501ADDAA106000091AG10000GA1001+999999999GF100991001001999999001001KA1240M+03111MA1999999096531MD1999999-0021REMSYN017 333 10311 59002;EQDQ01+000002VOVAR 
0131832360999991994080112004-12150-045000FM-12+044099999V0202701N00051220001CN0500001N1+02131+01011101751ADDAA106000091AG10000GA1001+999999999GF100991001001999999001001KA1240N+00841MA1999999096751MD1999999-0051REMSYN017 333 20084 59005;
0150832360999991994080200004-12150-045000FM-12+044099999V0201801N00101220001CN9999999N9+01991+01261101741ADDAA106000091AG10000GA1001+999999999GF100991001001999999001001KA1240M+03161MA1999999096471MD1999999-0061REMSYN017 333 10316 59006;EQDQ01+000002VOVAR 
0131832360999991994080212004-12150-045000FM-12+044099999V0202301N00101220001CN0500001N1+02021+01001101761ADDAA106000091AG10000GA1001+999999999GF100991001001999999001001KA1240N+00831MA1999999096731MD1999999-0021REMSYN017 333 20083 59002;
0150832360999991994080300004-12150-045000FM-12+044099999V0201801N00101220001CN9999999N9+02111+01271101451ADDAA106000091AG10000GA1001+999999999GF100991001001999999001001KA1240M+03281MA1999999096451MD1999999-0021REMSYN017 333 10328 59002;EQDQ01+000002VOVAR 
0115832360999991994080312004-12150-045000FM-12+044099999V0201801N00101220001CN0500001N1+02091+01221101621ADDAA106000091AG10000GF103991001001999999001071KA1240N+00911MA1999999096631MD1999999-0101REMSYN017 333 20091 59010;
0131832360999991994080318004-12150-045000FM-12+044099999V0202301N00151220001CN0200001N1+03311+00711101061ADDAA106000091AG10000AY101061AY241061GF103991001001999999001071MA1999999096141MD1999999-0071REMSYN011 333 59007;EQDQ01+000552PRSWM1
0150832360999991994080400004-12150-045000FM-12+044099999V0201801N00051220001CN9999999N9+01991+01281101261ADDAA106000091AG10000GA1001+999999999GF100991001001999999001001KA1240M+03331MA1999999096331MD1999999-0121REMSYN017 333 10333 59012;EQDQ01+000002VOVAR 
0131832360999991994080412004-12150-045000FM-12+044099999V0201801N00051220001CN0500001N1+02071+01151101661ADDAA106000091AG10000GA1001+999999999GF100991001001999999001001KA1240N+01091MA1999999096631MD1999999+0001REMSYN017 333 20109 58000;
0112832360999991994080418004-12150-045000FM-12+044099999V0202301N00151220001CN0500001N1+03371+01021101041ADDAA106000091AG10000GA1001+999999999GF100991001001999999001001MA1999999096131MD1999999-0011REMSYN011 333 59001;
0137832360999991994080512004-12150-045000FM-12+044099999V0201801N00101220001CN0200001N1+02251+01051101661ADDAA106000091AG10000AY101061AY221061GF102991021001022501041001KA1240N+00971MA1999999096691MD1999999+0061MW1051REMSYN017 333 20097 58006;
0118832360999991994080518004-12150-045000FM-12+044099999V0201801N00211220001CN0200001N1+03331+01051101111ADDAA106000091AG10000AY101061AY241061GF103991031011008001001001MA1999999096181MD1999999+0051MW1051REMSYN011 333 58005;
0134832360999991994080600004-12150-045000FM-12+044099999V0201801N00211220001CN9999999N9+02251+01351101341ADDAA106000091AG10000GF103991031021008001001001KA1240M+03361MA1999999096381MD1999999+0071REMSYN017 333 10336 58007;EQDQ01+000002VOVAR 
0153832360999991994080612004-12150-045000FM-12+044099999V0201401N00261220001CN0200001N1+02421+01431101631ADDAA106000091AG10000AY101061AY221061GA1001+999999999GF100991001001999999001001KA1240N+01591MA1999999096681MD1999999-0011MW1051REMSYN017 333 20159 59001;
0118832360999991994080618004-12150-045000FM-12+044099999V0200901N00151220001CN0200001N1+03151+01221101111ADDAA106000091AG10000AY101061AY241061GF104991041021008001001001MA1999999096181MD1999999+0001MW1051REMSYN011 333 58000;
0150832360999991994080700004-12150-045000FM-12+044099999V0201801N00151220001CN9999999N9+02131+01291101251ADDAA106000091AG10000GA1001+999999999GF100991001001999999001001KA1240M+03261MA1999999096311MD1999999-0071REMSYN017 333 10326 59007;EQDQ01+000002VOVAR 
0153832360999991994080712004-12150-045000FM-12+044099999V0201801N00151220001CN0200001N1+02211+01081101491ADDAA106000091AG10000AY101061AY241061GA1001+999999999GF100991001001999999001001KA1240N+01471MA1999999096521MD1999999-0161MW1051REMSYN017 333 20147 59016;
0140832360999991994080812004-12150-045000FM-12+044099999V0202301N00101220001CN0200001N1+02091+00841101501ADDAA106000091AG10000AY101061AY241061GA1001+999999999GF100991001001999999001001MA1999999096501MD1999999-0021MW1051REMSYN017 333 20/// 59002;
0118832360999991994080818004-12150-045000FM-12+044099999V0202701N00101220001CN0200001N1+03271+00671100971ADDAA106000091AG10000AY101061AY241061GF102991021011008001001001MA1999999096051MD1999999-0101MW1051REMSYN011 333 59010;
0134832360999991994080900004-12150-045000FM-12+044099999V0202701N00051220001CN9999999N9+02091+01201101281ADDAA106000091AG10000GF103991031011008001001001KA1240M+03301MA1999999096311MD1999999+0111REMSYN017 333 10330 58011;EQDQ01+000002VOVAR 
0153832360999991994080912004-12150-045000FM-12+044099999V0201801N00101220001CN0200001N1+02151+00961101561ADDAA106000091AG10000AY101061AY241061GA1001+999999999GF100991001001999999001001KA1240N+00951MA1999999096571MD1999999+0071MW1051REMSYN017 333 20095 58007;
0118832360999991994080918004-12150-045000FM-12+044099999V0200901N00101220001CN0200001N1+03211+00471101101ADDAA106000091AG10000AY101061AY241061GF103991031011008001001001MA1999999096161MD1999999+0111MW1051REMSYN011 333 58011;
0150832360999991994081000004-12150-045000FM-12+044099999V0202701N00151220001CN9999999N9+01971+00801101421ADDAA106000091AG10000GA1001+999999999GF100991001001999999001001KA1240M+03271MA1999999096421MD1999999+0111REMSYN017 333 10327 58011;EQDQ01+000002VOVAR 
0137832360999991994081012004-12150-045000FM-12+044099999V0201801N00151220001CN0200001N1+02091+00781101721ADDAA106000091AG10000AY101061AY241061GF103991001001999999001081KA1240N+00731MA1999999096711MD1999999+0141MW1051REMSYN017 333 20073 58014;
0134832360999991994081018004-12150-045000FM-12+044099999V0201401N00261220001CN0100001N1+03291+00541101131ADDAA106000091AG10000AY101061AY241061GA1001+999999999GF100991001001999999001001MA1999999096191MD1999999+0031MW1051REMSYN011 333 58003;
0172832360999991994081112004-12150-045000FM-12+044099999V0202301N00051220001CN0100001N1+01931+00761101611ADDAA106000091AG10000AY101061AY241061GA1001+999999999GF100991001001999999001001KA1240N+99999MA1999999096571MD1999999-0141MW1051REMSYN017 333 20268 59014;EQDQ01 +02682ATMN  
0140832360999991994081212004-12150-045000FM-12+044099999V0201801N00311220001CN0200001N1+02211+01021101671ADDAA106000091AG10000AY101061AY241061GA1001+999999999GF100991001001999999001001MA1999999096681MD1999999+0111MW1051REMSYN017 333 20/// 58011;
0134832360999991994081218004-12150-045000FM-12+044099999V0201801N00361220001CN0100001N1+03181+00861101151ADDAA106000091AG10000AY101061AY241061GA1001+999999999GF100991001001999999001001MA1999999096201MD1999999+0121MW1051REMSYN011 333 58012;
0150832360999991994081400004-12150-045000FM-12+044099999V0201801N00361220001CN9999999N9+02491+00911101441ADDAA106000091AG10000GA1001+999999999GF100991001001999999001001KA1240M+03231MA1999999096491MD1999999+0061REMSYN017 333 10323 58006;EQDQ01+000002VOVAR 
0115832360999991994081412004-12150-045000FM-12+044099999V0200901N00211220001CN0200001N1+02331+01341101751ADDAA106000091AG10000GF104991031021008001041001KA1240N+01581MA1999999096801MD1999999+0001REMSYN017 333 20158 58000;
0096832360999991994081418004-12150-045000FM-12+044099999V0201401N00411220001CN0200001N1+02991+01091101221ADDAA106000091AG10000GF104991031021008001001011MA1999999096271MD1999999-0081REMSYN011 333 59008;
0131832360999991994081512004-12150-045000FM-12+044099999V0203201N00101220001CN0100001N1+02181+01091101791ADDAA106000091AG10000GA1001+999999999GF100991001001999999001001KA1240N+01381MA1999999096801MD1999999+0121REMSYN017 333 20138 58012;
0112832360999991994081518004-12150-045000FM-12+044099999V0209991C00001220001CN0500001N1+03051+00631101201ADDAA106000091AG10000GA1001+999999999GF100991001001999999001001MA1999999096251MD1999999-0021REMSYN011 333 59002;
0115832360999991994081612004-12150-045000FM-12+044099999V0201801N00151220001CN0500001N1+02291+01441101751ADDAA106000091AG10000GF102991021021012501001001KA1240N+01241MA1999999096731MD1999999-0021REMSYN017 333 20124 59002;
0096832360999991994081618004-12150-045000FM-12+044099999V0201401N00211220001CN0500001N1+03311+00781101071ADDAA106000091AG10000GF102991021021008001001001MA1999999096141MD1999999-0111REMSYN011 333 59011;
