0115823970999991991010100004-03733-038550FM-12+001999999V0200901N00101220001CN9999999N9+02621+02311101061ADDAA106000091AG10999GF100991001001999999001001KA1240M+03211MA1999999100751MD1999999+0071REMSYN017333   10321 58007
0143823970999991991010112004-03733-038550FM-12+001999999V0200901N00411004201CN0010001N9+02511+02381101071ADDAA124003091AG10999AY121061AY221061GF107991071071004501001001KA1240N+02341MA1999999100761MD1999999-0051MW1611REMSYN023333   20234 59005 60034
0124823970999991991010118004-03733-038550FM-12+001999999V0200901N00361045001CN0200001N9+03021+02101100771ADDAA106001091AG10999AY161061AY221061GF107991011011008001041061MA1999999100461MD1999999+0001MW1021REMSYN017333   58000 60011
0121823970999991991010212004-03733-038550FM-12+001999999V0201401N00361220001CN0200001N9+03001+02241101041ADDAA124001091AG10999GF104991011011008001001011KA1240N+02401MA1999999100731MD1999999-0031REMSYN023333   20240 59003 60014
0096823970999991991010218004-03733-038550FM-12+001999999V0200901N00461045001CN0200001N9+02951+02261100751ADDAA106000091AG10999GF107991011011008001051011MA1999999100441MD1999999-0021REMSYN011333   59002
0115823970999991991010300004-03733-038550FM-12+001999999V0200901N00211045001CN9999999N9+02701+02371100971ADDAA106000091AG10999GF106991031021008001011001KA1240M+03171MA1999999100661MD1999999+0031REMSYN017333   10317 58003
0143823970999991991010312004-03733-038550FM-12+001999999V0201801N00211045001CN0200001N9+02641+02481101161ADDAA124004091AG10999AY121061AY221061GF107991041021008001071011KA1240N+02581MA1999999100851MD1999999+0121MW1211REMSYN023333   20258 58012 60044
0096823970999991991010318004-03733-038550FM-12+001999999V0200901N00511045001CN0200001N9+02921+02291100921ADDAA106000091AG10999GF107991011011008001071061MA1999999100611MD1999999+0171REMSYN011333   58017
0115823970999991991010400004-03733-038550FM-12+001999999V0200901N00151045001CN9999999N9+02701+02411101101ADDAA106000091AG10999GF108991041041008001071999KA1240M+03101MA1999999100791MD1999999+0131REMSYN017333   10310 58013
0143823970999991991010412004-03733-038550FM-12+001999999V0200901N00261012001CN0200001N9+02881+02371101161ADDAA124001091AG10999AY161061AY221061GF107991061081008001001011KA1240N+02501MA1999999100851MD1999999+0001MW1031REMSYN023333   20250 58000 60014
0135823970999991991010418004-03733-038550FM-12+001999999V0200901N00571220001CN0200001N9+03001+02241100871ADDAA106000691AA299000591AG10999AY161061AY221061GF103991031011008001001001MA1999999100561MD1999999-0051MW1011REMSYN017333   59005 69961
0096823970999991991010518004-03733-038550FM-12+001999999V0200501N00511220001CN0200001N9+03001+02171100931ADDAA106000091AG10999GF101991011011008001001001MA1999999100621MD1999999+0061REMSYN011333   58006
0115823970999991991010600004-03733-038550FM-12+001999999V0200901N00101220001CN9999999N9+02581+02271101141ADDAA106000091AG10999GF100991001001999999001001KA1240M+03141MA1999999100831MD1999999+0061REMSYN017333   10314 58006
0115823970999991991010612004-03733-038550FM-12+001999999V0200901N00211012001CN0200001N9+02961+02151101181ADDAA106000091AG10999GF106991061081008001001001KA1240N+02321MA1999999100871MD1999999-0061REMSYN017333   20232 59006
0096823970999991991010618004-03733-038550FM-12+001999999V0200901N00461220001CN0200001N9+03001+02221100931ADDAA106000091AG10999GF106991011011008001001041MA1999999100621MD1999999+0001REMSYN011333   58000
0115823970999991991010700004-03733-038550FM-12+001999999V0200901N00101220001CN9999999N9+02641+02371101061ADDAA106000091AG10999GF101991011011008001001001KA1240M+03161MA1999999100751MD1999999-0081REMSYN017333   10316 59008
0104823970999991991010712004-03733-038550FM-12+001999999V0200901N00461012001CN0200001N9+02861+02311101131ADDAG10999GF106991061081008001001001KA1240N+02451MA1999999100821MD1999999-0051REMSYN017333   20245 59005
0115823970999991991010718004-03733-038550FM-12+001999999V0200901N00511105001CN0200001N9+03001+02341100921ADDAA106000091AG10999GF107991041081008001001061MA1999999100611MD1999999-0011REMSYN011333   59001EQDQ01+999990APOSLP
0115823970999991991010812004-03733-038550FM-12+001999999V0200901N00361007501CN0200001N9+02801+02271101281ADDAA106000091AG10999GF107991051051008001071001KA1240N+02631MA1999999100971MD1999999+0151REMSYN017333   20263 58015
0096823970999991991010818004-03733-038550FM-12+001999999V0200901N00411007501CN0200001N9+02901+02271101051ADDAA106000091AG10999GF108991051051008001071999MA1999999100741MD1999999+0131REMSYN011333   58013
0115823970999991991010912004-03733-038550FM-12+001999999V0200901N00361012001CN0200001N9+02841+02191101321ADDAA106000091AG10999GF107991071081008001001001KA1240N+02461MA1999999101011MD1999999+0041REMSYN017333   20246 58004
0096823970999991991010918004-03733-038550FM-12+001999999V0200901N00571045001CN0200001N9+02961+02151101041ADDAA106000091AG10999GF106991011011008001071091MA1999999100731MD1999999-0011REMSYN011333   59001
0115823970999991991011000004-03733-038550FM-12+001999999V0200901N00211220001CN9999999N9+02661+02271101201ADDAA106000091AG10999GF104991041001022501071001KA1240M+03181MA1999999100891MD1999999-0081REMSYN017333   10318 59008
0115823970999991991011012004-03733-038550FM-12+001999999V0200901N00361012001CN0200001N9+02921+02221101291ADDAA106000091AG10999GF107991051081008001031051KA1240N+02601MA1999999100981MD1999999+0031REMSYN017333   20260 58003
0096823970999991991011018004-03733-038550FM-12+001999999V0200901N00461045001CN0200001N9+03021+02261100961ADDAA106000091AG10999GF106991041081008001031091MA1999999100651MD1999999-0081REMSYN011333   59008
0115823970999991991011112004-03733-038550FM-12+001999999V0200901N00461012001CN0200001N9+02881+02321101171ADDAA106000091AG10999GF106991061081008001001001KA1240N+02571MA1999999100861MD1999999-0121REMSYN017333   20257 59012
0096823970999991991011118004-03733-038550FM-12+001999999V0200901N00511045001CN0200001N9+03001+02231100871ADDAA106000091AG10999GF105991021081008001031051MA1999999100561MD1999999-0091REMSYN011333   59009
0115823970999991991011200004-03733-038550FM-12+001999999V0200901N00361220001CN9999999N9+02701+02281101001ADDAA106000091AG10999GF103991031011008001001001KA1240M+03161MA1999999100691MD1999999-0111REMSYN017333   10316 59011
0115823970999991991011212004-03733-038550FM-12+001999999V0200901N00571012001CN0200001N9+02921+02191101051ADDAA106000091AG10999GF106991061081008001001001KA1240N+02561MA1999999100741MD1999999-0121REMSYN017333   20256 59012
0096823970999991991011218004-03733-038550FM-12+001999999V0201401N00361220001CN0200001N9+03041+02181100731ADDAA106000091AG10999GF104991041021008001001001MA1999999100421MD1999999-0141REMSYN011333   59014
0154823970999991991011312004-03733-038550FM-12+001999999V0201401N00261045001CN0200001N9+02881+02371101061ADDAA124000891AA299001091AG10999AY151061AY221061GF106991041081008001051001KA1240N+02501MA1999999100751MD1999999+0011MW1011REMSYN023333   20250 58001 69984
0096823970999991991011318004-03733-038550FM-12+001999999V0200901N00411220001CN0200001N9+03101+02361100801ADDAA106000091AG10999GF104991999999008001999999MA1999999100491MD1999999+0071REMSYN011333   58007
0115823970999991991011400004-03733-038550FM-12+001999999V0200901N00261220001CN9999999N9+02721+02391101501ADDAA106000091AG10999GF100991001001999999001001KA1240M+03251MA1999999100741MD1999999+0061REMSYN017333   10325 58006
0115823970999991991011412004-03733-038550FM-12+001999999V0200901N00411220001CN0200001N9+02981+02301101161ADDAA106000091AG10999GF104991041081008001031001KA1240N+02581MA1999999100851MD1999999+0101REMSYN017333   20258 58010
0115823970999991991011500004-03733-038550FM-12+001999999V0200501N00361220001CN9999999N9+02681+02411101051ADDAA106000091AG10999GF103991031011008001001001KA1240M+03211MA1999999100741MD1999999+0001REMSYN017333   10321 58000
0154823970999991991011512004-03733-038550FM-12+001999999V0200901N00311012001CN0200001N9+02861+02351101101ADDAA124000791AA299001091AG10999AY151061AY221061GF107991051081008001021061KA1240N+02421MA1999999100791MD1999999-0061MW1021REMSYN023333   20242 59006 69974
0096823970999991991011518004-03733-038550FM-12+001999999V0200901N00411105001CN0200001N9+03041+02331100761ADDAA106000091AG10999GF106991021011008001031061MA1999999100451MD1999999-0121REMSYN011333   59012
0115823970999991991011600004-03733-038550FM-12+001999999V0200901N00211045001CN9999999N9+02681+02411101061ADDAA106000091AG10999GF106991021011008001011001KA1240M+03171MA1999999100751MD1999999+0011REMSYN017333   10317 58001
0143823970999991991011612004-03733-038550FM-12+001999999V0200901N00311012001CN0200001N9+02861+02441101211ADDAA124000191AG19003AY161061AY221061GF107991061081008001051001KA1240N+02461MA1999999100901MD1999999+0111MW1011REMSYN023333   20246 58011 69914
0096823970999991991011618004-03733-038550FM-12+001999999V0200901N00361045001CN0200001N9+03021+02341100941ADDAA106000091AG10999GF107991021011008001051071MA1999999100631MD1999999+0181REMSYN011333   58018
0115823970999991991011700004-03733-038550FM-12+001999999V0200501N00211220001CN9999999N9+02681+02391101131ADDAA106000091AG10999GF102991011011008001031001KA1240M+03151MA1999999100821MD1999999+0071REMSYN017333   10315 58007
0115823970999991991011712004-03733-038550FM-12+001999999V0200901N00361012001CN0200001N9+02781+02361101281ADDAA106000091AG10999GF107991051081008001031001KA1240N+02561MA1999999100971MD1999999+0071REMSYN017333   20256 58007
0135823970999991991011718004-03733-038550FM-12+001999999V0200501N00361045001CN0200001N9+02961+02381100991ADDAA106001091AG10999AY161061GF107991041081008001061071MA1999999100681MD1999999+0051MW1021REMSYN017333   58005 60011EQDQ01+000072PSTWM2
0115823970999991991011800004-03733-038550FM-12+001999999V0200501N00261105001CN9999999N9+02701+02371101271ADDAA106000091AG10999GF107991041041008001001051KA1240M+03081MA1999999100961MD1999999+0141REMSYN017333   10308 58014
0143823970999991991011812004-03733-038550FM-12+001999999V0200901N00411045001CN0200001N9+02861+02311101341ADDAA124002091AG10999AY151061AY221061GF108991041081008001071999KA1240N+02521MA1999999101031MD1999999+0061MW1021REMSYN023333   20252 58006 60024
0124823970999991991011818004-03733-038550FM-12+001999999V0201401N00311004201CN0010001N9+02361+02221101151ADDAA106004091AG10999AY161061AY221061GF108991051091004501021999MA1999999100841MD1999999+0161MW1951REMSYN017333   58016 60041
0143823970999991991011900004-03733-038550FM-12+001999999V0201801N00051004201CN9999999N9+02421+02301101411ADDAA106027091AG10999AY191061AY261061GF108991051071004501021999KA1240M+02981MA1999999101101MD1999999+0141MW1211REMSYN023333   10298 58014 60271
0143823970999991991011912004-03733-038550FM-12+001999999V0201801N01951045001CN0040001N9+02581+02481101391ADDAA124034091AG10999AY161061AY221061GF105991031051008001071051KA1240N+02281MA1999999101081MD1999999+0051MW1101REMSYN023333   20228 58005 60344
0096823970999991991011918004-03733-038550FM-12+001999999V0201401N00411045001CN0200001N9+03041+02191100971ADDAA106000091AG10999GF107991011011008001031061MA1999999100661MD1999999-0181REMSYN011333   59018
0115823970999991991012012004-03733-038550FM-12+001999999V0201401N00311007501CN0200001N9+02551+02241101191ADDAA106000091AG10999GF107991051051008001071061KA1240N+02421MA1999999100881MD1999999-0201REMSYN017333   20242 59020
0096823970999991991012018004-03733-038550FM-12+001999999V0200901N00461220001CN0200001N9+02961+02331100841ADDAA106000091AG10999GF106991041021008001001041MA1999999100531MD1999999-0131REMSYN011333   59013
0115823970999991991012100004-03733-038550FM-12+001999999V0200501N00211012001CN9999999N9+02681+02391101121ADDAA106000091AG10999GF105991051081008001001001KA1240M+03071MA1999999100811MD1999999-0061REMSYN017333   10307 59006
0143823970999991991012112004-03733-038550FM-12+001999999V0201401N00361105001CN0200001N9+02881+02251101281ADDAA124001091AG10999AY161061AY221061GF105991031081008001001051KA1240N+02431MA1999999100971MD1999999+0091MW1011REMSYN023333   20243 58009 60014
0143823970999991991012114004-03733-038550FM-12+001999999V0201401N00361105001CN0200001N9+02881+02251101281ADDAA124001091AG10999AY161021AY221021GF105991031081008001001051KA1240N+02431MA1999999100971MD1999999+0091MW1011REMSYN023333   20243 58009 60014
0096823970999991991012118004-03733-038550FM-12+001999999V0200901N00411220001CN0200001N9+02961+02211100951ADDAA106000091AG10999GF106991021011008001001061MA1999999100641MD1999999+0111REMSYN011333   58011
0115823970999991991012200004-03733-038550FM-12+001999999V0209991C00001220001CN9999999N9+02601+02351101211ADDAA106000091AG10999GF104991021021008001001051KA1240M+03101MA1999999100901MD1999999+0091REMSYN017333   10310 58009
0115823970999991991012212004-03733-038550FM-12+001999999V0200901N00311220001CN0200001N9+02901+02271101321ADDAA106000091AG10999GF104991041021008001001001KA1240N+02371MA1999999101011MD1999999+0041REMSYN017333   20237 58004
0096823970999991991012218004-03733-038550FM-12+001999999V0200901N00361220001CN0200001N9+03061+02171101001ADDAA106000091AG10999GF102991011021008001031061MA1999999100691MD1999999+0051REMSYN011333   58005
0114823970999991991012312004-03733-038550FM-12+001999999V0200901N00151045001CN9999999N9+02661+02371101241ADDAA106000091AG10999GF106991031021008001031061KA1240N+99999MA1999999100931REMSYN011333   20313EQDQ01 +03132ATMN  
0096823970999991991012318004-03733-038550FM-12+001999999V0200501N00311105001CN0200001N9+02981+02231101111ADDAA106000091AG10999GF106991011011008001051061MA1999999100801MD1999999+0111REMSYN011333   58011
0115823970999991991012400004-03733-038550FM-12+001999999V0200501N00051105001CN9999999N9+02661+02351101351ADDAA106000091AG10999GF105991031041008001001051KA1240M+03081MA1999999101041MD1999999+0111REMSYN017333   10308 58011
0115823970999991991012412004-03733-038550FM-12+001999999V0201401N00151012001CN0200001N9+02841+02381101411ADDAA106000091AG10999GF106991061081008001001001KA1240N+02411MA1999999101101MD1999999+0061REMSYN017333   20241 58006
0135823970999991991012418004-03733-038550FM-12+001999999V0200901N00411220001CN0200001N9+03041+02331100971ADDAA106000691AA299000591AG10999AY151061AY221061GF105991021011008001001061MA1999999100661MD1999999-0141MW1011REMSYN017333   59014 69961
0137823970999991991012500004-03733-038550FM-12+001999999V0200501N00151220001CN9999999N9+02661+02431101181ADDAA106000091AG10999AY111061AY211061GF104991021031008001001051KA1240M+03091MA1999999100871MD1999999-0171MW1131REMSYN017333   10309 59017
0143823970999991991012512004-03733-038550FM-12+001999999V0200901N00361220001CN0200001N9+02941+02291101301ADDAA124005091AG10999AY161061AY221061GF104991041021008001001001KA1240N+02421MA1999999100991MD1999999+0111MW1011REMSYN023333   20242 58011 60054
0096823970999991991012518004-03733-038550FM-12+001999999V0200901N00411045001CN0200001N9+03021+02391100961ADDAA106000091AG10999GF107991021011008001031061MA1999999100651MD1999999-0011REMSYN011333   59001
0137823970999991991012600004-03733-038550FM-12+001999999V0200901N00051105001CN9999999N9+02641+02391101211ADDAA106000091AG10999AY121061AY221061GF107991011031008001001071KA1240M+03121MA1999999100901MD1999999+0031MW1131REMSYN017333   10312 58003
0115823970999991991012612004-03733-038550FM-12+001999999V0201401N00261220001CN0200001N9+02891+02371101301ADDAA106000091AG10999GF106991041081008001001061KA1240N+02521MA1999999100991MD1999999+0001REMSYN017333   20252 58000
0096823970999991991012618004-03733-038550FM-12+001999999V0200901N00361220001CN0200001N9+03021+02261100971ADDAA106000091AG10999GF103991011011008001001061MA1999999100661MD1999999+0011REMSYN011333   58001
0115823970999991991012700004-03733-038550FM-12+001999999V0200901N00311220001CN9999999N9+02721+02301101141ADDAA106000091AG10999GF106991001001999999001061KA1240M+03131MA1999999100831MD1999999-0071REMSYN017333   10313 59007
0115823970999991991012712004-03733-038550FM-12+001999999V0201401N00461012001CN0200001N9+02941+02311101231ADDAA106000091AG10999GF106991061081008001001001KA1240N+02481MA1999999100921MD1999999-0071REMSYN017333   20248 59007
0096823970999991991012718004-03733-038550FM-12+001999999V0200901N00511220001CN0200001N9+03081+02241100971ADDAA106000091AG10999GF101991011011008001001001MA1999999100661MD1999999+0001REMSYN011333   58000
0115823970999991991012812004-03733-038550FM-12+001999999V0201401N00411012001CN0200001N9+02931+02341101291ADDAA106000091AG10999GF105991051081008001001001KA1240N+02501MA1999999100981MD1999999+0061REMSYN017333   20250 58006
0096823970999991991012818004-03733-038550FM-12+001999999V0200901N00721220001CN0200001N9+03101+02181100971ADDAA106000091AG10999GF101991011011008001001001MA1999999100661MD1999999+0001REMSYN011333   58000
0115823970999991991012900004-03733-038550FM-12+001999999V0200901N00311220001CN9999999N9+02761+02361101131ADDAA106000091AG10999GF101991011011008001001001KA1240M+03181MA1999999100821MD1999999-0041REMSYN017333   10318 59004
0115823970999991991012912004-03733-038550FM-12+001999999V0200901N00361012001CN0200001N9+02741+02401101251ADDAA106000091AG10999GF107991071081008001001001KA1240N+02551MA1999999100941MD1999999-0041REMSYN017333   20255 59004
0124823970999991991012918004-03733-038550FM-12+001999999V0200901N00361045001CN0200001N9+03001+02391100921ADDAA106005091AG10999AY161061AY221061GF106991031081008001051001MA1999999100611MD1999999-0051MW1011REMSYN017333   59005 60051
0115823970999991991013000004-03733-038550FM-12+001999999V0200901N00151220001CN9999999N9+02681+02411101141ADDAA106000091AG10999GF103991011011008001031001KA1240M+03111MA1999999100831MD1999999+0011REMSYN017333   10311 58001
0115823970999991991013012004-03733-038550FM-12+001999999V0201401N00261105001CN0200001N9+02881+02501101081ADDAA106000091AG10999GF105991041081008001001051KA1240N+02451MA1999999100771MD1999999-0171REMSYN017333   20245 59017
0096823970999991991013018004-03733-038550FM-12+001999999V0200901N00361045001CN0200001N9+02971+02401100831ADDAA106000091AG10999GF106991011011008001061001MA1999999100521MD1999999-0091REMSYN011333   59009
0115823970999991991013100004-03733-038550FM-12+001999999V0200501N00151045001CN9999999N9+02741+02451101051ADDAA106000091AG10999GF108991031021008001071999KA1240M+03161MA1999999100741MD1999999-0091REMSYN017333   10316 59009
0143823970999991991013112004-03733-038550FM-12+001999999V0201401N00311012001CN0200001N9+02741+02521101101ADDAA124003091AG10999AY161061AY251061GF107991051081008001051061KA1240N+02481MA1999999100791MD1999999+0021MW1201REMSYN023333   20248 58002 60034
0135823970999991991013118004-03733-038550FM-12+001999999V0200501N00311045001CN0200001N9+99999+99999100851ADDAA106000691AA299000591AG10999AY191061AY251061GF107991021021008001071061MA1999999100541MD1999999+0021MW1021REMSYN017333   58002 69961
0162823970999991991020100004-03733-038550FM-12+001999999V0200501N00211045001CN9999999N9+02581+02481102082ADDAA106003091AG10999AY121061AY221061GF108991041091004501021011KA1240M+02881MA1999999100771MD1999999+0031MW1951REMSYN023333   10288 58003 60031EQDQ01+102083APOSLP
0143823970999991991020112004-03733-038550FM-12+001999999V0200901N00151045001CN0200001N9+02701+02501101081ADDAA124005091AG10999AY151061AY221061GF108991031081008001071011KA1240N+02431MA1999999100771MD1999999-0021MW1021REMSYN023333   20243 59002 60054
0096823970999991991020118004-03733-038550FM-12+001999999V0200901N00311045001CN0200001N9+02881+02481100831ADDAA106000091AG10999GF108991041051008001071999MA1999999100521MD1999999-0021REMSYN011333   59002
0143823970999991991020212004-03733-038550FM-12+001999999V0200901N00311045001CN0200001N9+02561+02471101221ADDAA124008091AG10999AY161061AY221061GF108991031071008001021999KA1240N+02231MA1999999100911MD1999999+0141MW1201REMSYN023333   20223 58014 60084
0115823970999991991020300004-03733-038550FM-12+001999999V0201401N00051045001CN9999999N9+02561+02351101211ADDAA106000091AG10999GF108991021011008001021999KA1240M+02831MA1999999100901MD1999999+0061REMSYN017333   10283 58006
0143823970999991991020312004-03733-038550FM-12+001999999V0201801N00151045001CN0200001N9+02661+02441101161ADDAA124008091AG10999AY161061AY221061GF108991041081008001071999KA1240N+02301MA1999999100851MD1999999-0061MW1031REMSYN023333   20230 59006 60084
0096823970999991991020318004-03733-038550FM-12+001999999V0200901N00411105001CN0200001N9+03001+02441100781ADDAA106000091AG10999GF106991021041008001071061MA1999999100471MD1999999-0171REMSYN011333   59017
0143823970999991991020412004-03733-038550FM-12+001999999V0202701N00151045001CN0200001N9+02441+02191101371ADDAA124051091AG10999AY161061AY221061GF108991031021008001071999KA1240N+02301MA1999999101061MD1999999+0211MW1021REMSYN023333   20230 58021 60514
0096823970999991991020418004-03733-038550FM-12+001999999V0200501N00311045001CN0200001N9+02721+02121101111ADDAA106000091AG10999GF108991041051004501071999MA1999999100801MD1999999+0331REMSYN011333   58033
0115823970999991991020500004-03733-038550FM-12+001999999V0200901N00101045001CN9999999N9+02441+02251101281ADDAA106000091AG10999GF108991041051004501071999KA1240M+02791MA1999999100971MD1999999-0151REMSYN017333   10279 59015
0115823970999991991020512004-03733-038550FM-12+001999999V0200901N00211012001CN0200001N9+02831+02311101241ADDAA106000091AG10999GF106991061081008001001001KA1240N+02311MA1999999100931MD1999999-0131REMSYN017333   20231 59013
0096823970999991991020518004-03733-038550FM-12+001999999V0200901N00311220001CN0200001N9+03041+02181100901ADDAA106000091AG10999GF101991011021008001001001MA1999999100591MD1999999-0211REMSYN011333   59021
0115823970999991991020600004-03733-038550FM-12+001999999V0203601N00101220001CN9999999N9+02641+02311101171ADDAA106000091AG10999GF103991011011008001001051KA1240M+03141MA1999999100861MD1999999-0111REMSYN017333   10314 59011
0143823970999991991020612004-03733-038550FM-12+001999999V0201401N00101045001CN0010001N9+02381+02331101331ADDAA124005091AG10999AY191061AY261061GF107991031031008001071999KA1240N+02321MA1999999101021MD1999999+0091MW1951REMSYN023333   20232 58009 60054
0110823970999991991020618004-03733-038550FM-12+001999999V0200901N00101045001CN0200001N9+02701+99999101061ADDAA106003091AG10999AY161061AY221061GF107991031051004501071061MA1999999100751MW1021REMSYN017333   58816 60031
0115823970999991991020700004-03733-038550FM-12+001999999V0203601N00101220001CN9999999N9+02641+02311101171ADDAA106000091AG10999GF103991011011008001001051KA1240M+03141MA1999999100861MD1999999-0111REMSYN017333   10314 59011
0124823970999991991020712004-03733-038550FM-12+001999999V0200901N00101045001CN0200001N9+02701+02221101061ADDAA106003091AG10999AY161061AY221061GF107991031051004501071061MA1999999100751MD1999999+0161MW1021REMSYN017333   58016 60031
0096823970999991991020718004-03733-038550FM-12+001999999V0200501N00461220001CN0200001N9+02981+02301101021ADDAA106000091AG10999GF103991021011008001001051MA1999999100711MD1999999-0041REMSYN011333   59004
0115823970999991991020800004-03733-038550FM-12+001999999V0200901N00211220001CN9999999N9+02641+02411101161ADDAA106000091AG10999GF104991011011008001051001KA1240M+03081MA1999999100851MD1999999-0121REMSYN017333   10308 59012
0143823970999991991020812004-03733-038550FM-12+001999999V0201401N00311004201CN0005001N9+02631+02461101221ADDAA124003091AG10999AY161061AY221061GF108991081071004501999999KA1240N+02481MA1999999100911MD1999999-0151MW1161REMSYN023333   20248 59015 60034
0096823970999991991020818004-03733-038550FM-12+001999999V0200901N00461045001CN0200001N9+02901+02271100971ADDAA106000091AG10999GF108991031051008001071999MA1999999100661MD1999999-0051REMSYN011333   59005
0115823970999991991020900004-03733-038550FM-12+001999999V0200901N00151045001CN9999999N9+02661+02391101191ADDAA106000091AG10999GF108991011011008001071999KA1240M+03051MA1999999100881MD1999999+0031REMSYN017333   10305 58003
0143823970999991991020912004-03733-038550FM-12+001999999V0201401N00211105001CN0200001N9+02741+02431101251ADDAA124001091AG10999AY161061AY221061GF107991031081008001001061KA1240N+02421MA1999999100941MD1999999+0031MW1031REMSYN023333   20242 58003 60014
0123823970999991991021012004-03733-038550FM-12+001999999V0201401N00211045001CN0020001N9+02641+02411101191ADDAA124001091AG10999AY121061AY221061GF107991041051008001071091KA1240N+02521MA1999999100881MW1611REMSYN017333   20252 60014
0124823970999991991021018004-03733-038550FM-12+001999999V0200901N00411220001CN0200001N9+03041+02311100911ADDAA106001091AG10999AY161061AY221061GF101991011011008001001001MA1999999100601MD1999999+0011MW1011REMSYN017333   58001 60011
0101823970999991991021100004-03733-038550FM-12+001999999V0200901N00151220001CN9999999N9+02661+02371101191ADDAA106000091AG10999GF100991001001999999001001KA1240M+03081MA1999999100881REMSYN017333   10308 58875
0121823970999991991021112004-03733-038550FM-12+001999999V0201401N00261007501CN0200001N9+02821+02381101311ADDAA124001091AG10999GF107991071051008001001001KA1240N+02401MA1999999101001MD1999999+0121REMSYN023333   20240 58012 60014
0096823970999991991021118004-03733-038550FM-12+001999999V0200901N00511105001CN0200001N9+02921+02361100921ADDAA106000091AG10999GF107991031041008001001061MA1999999100611MD1999999+0011REMSYN011333   58001
0115823970999991991021200004-03733-038550FM-12+001999999V0200901N00311220001CN9999999N9+02701+02431101191ADDAA106000091AG10999GF102991021021008001001001KA1240M+03111MA1999999100881MD1999999+0001REMSYN017333   10311 58000
0115823970999991991021212004-03733-038550FM-12+001999999V0200901N00311105001CN0200001N9+02821+02241101231ADDAA106000091AG10999GF107991041081008001001061KA1240N+02391MA1999999100521MD1999999-0081REMSYN017333   20239 59008
0096823970999991991021218004-03733-038550FM-12+001999999V0200501N00361045001CN0200001N9+02961+02351100891ADDAA106000091AG10999GF106991041081008001081061MA1999999100581MD1999999-0031REMSYN011333   59003
0115823970999991991021300004-03733-038550FM-12+001999999V0200501N00051220001CN9999999N9+99999+99999101061ADDAA106000091AG10999GF100991001001999999001001KA1240M+03121MA1999999100751MD1999999-0131REMSYN017333   10312 59013
0115823970999991991021312004-03733-038550FM-12+001999999V0200901N00261220001CN0200001N9+02901+02371101161ADDAA106000091AG10999GF105991031021008001001041KA1240N+02371MA1999999100851MD1999999+0071REMSYN017333   20237 58007
0096823970999991991021318004-03733-038550FM-12+001999999V0200501N00311220001CN0200001N9+03041+02181100871ADDAA106000091AG10999GF103991031011008001001001MA1999999100561MD1999999-0021REMSYN011333   59002
0115823970999991991021400004-03733-038550FM-12+001999999V0200501N00051220001CN9999999N9+02621+02351101091ADDAA106000091AG10999GF102991021011008001001001KA1240M+03101MA1999999100781MD1999999+0031REMSYN017333   10310 58003
0115823970999991991021412004-03733-038550FM-12+001999999V0200501N00261220001CN0200001N9+02941+02311101201ADDAA106000091AG10999GF104991041081008001001001KA1240N+02351MA1999999100891MD1999999+0041REMSYN017333   20235 58004
0096823970999991991021418004-03733-038550FM-12+001999999V0201401N00361220001CN0200001N9+03061+02351100981ADDAA106000091AG10999GF104991041021008001001001MA1999999100671MD1999999+0111REMSYN011333   58011
0115823970999991991021500004-03733-038550FM-12+001999999V0203601N00151220001CN9999999N9+02721+02431101191ADDAA106000091AG10999GF104991041021008001001001KA1240M+03151MA1999999100881MD1999999+0101REMSYN017333   10315 58010
0115823970999991991021512004-03733-038550FM-12+001999999V0200501N00211012001CN0200001N9+02921+02411101331ADDAA106000091AG10999GF107991061081008001001061KA1240N+02471MA1999999101021MD1999999+0131REMSYN017333   20247 58013
0124823970999991991021518004-03733-038550FM-12+001999999V0203601N00151045001CN0200001N9+02501+02401101111ADDAA106011091AG10999AY191061AY261061GF107991031051004501071051MA1999999100801MD1999999+0131MW1021REMSYN017333   58013 60111
0137823970999991991021600004-03733-038550FM-12+001999999V0209991C00001045001CN9999999N9+02541+02451101281ADDAA106000091AG10999AY121061AY221061GF108991021031008001071999KA1240M+03031MA1999999100971MD1999999+0091MW1131REMSYN017333   10303 58009
0143823970999991991021612004-03733-038550FM-12+001999999V0200501N00101045001CN0005001N9+02381+02291101421ADDAA124021091AG10999AY191061AY261061GF108991031071004501021999KA1240N+02341MA1999999101121MD1999999+0101MW1611REMSYN023333   20234 58010 60214
0135823970999991991021618004-03733-038550FM-12+001999999V0201401N00261045001CN0200001N9+02641+02391101091ADDAA106000491AA299000591AG10999AY151061AY221061GF108991031051008001071999MA1999999100781MD1999999-0021MW1031REMSYN017333   59002 69941
0115823970999991991021700004-03733-038550FM-12+001999999V0201401N00151220001CN9999999N9+02501+02311101221ADDAA106000091AG10999GF103991031001022501031001KA1240M+02651MA1999999100911MD1999999-0061REMSYN017333   10265 59006
0143823970999991991021712004-03733-038550FM-12+001999999V0200501N00411045001CN0200001N9+02801+02441101191ADDAA124007091AG10999AY161061AY221061GF107991031081008001071001KA1240N+02321MA1999999100881MD1999999-0241MW1031REMSYN023333   20232 59024 60074
0135823970999991991021718004-03733-038550FM-12+001999999V0200501N00511220001CN0200001N9+02921+02361100831ADDAA106000291AA299000391AG10999AY151061AY221061GF103991021091008001001011MA1999999100521MD1999999-0261MW1011REMSYN017333   59026 69921
0115823970999991991021800004-03733-038550FM-12+001999999V0200501N00311045001CN9999999N9+02661+02411101001ADDAA106000091AG10999GF106991041071008001011001KA1240M+03081MA1999999100691MD1999999-0221REMSYN017333   10308 59022
0132823970999991991021812004-03733-038550FM-12+001999999V0200901N00311220001CN0200001N9+02921+02221101091ADDAA124000291AA299000391AG10999GF103991031081008001001001KA1240N+02421MA1999999100781MD1999999-0011REMSYN023333   20242 59001 69924
0096823970999991991021818004-03733-038550FM-12+001999999V0200901N00361045001CN0200001N9+03011+02311100801ADDAA106000091AG10999GF106991011011008001051051MA1999999100491MD1999999-0031REMSYN011333   59003
0143823970999991991021912004-03733-038550FM-12+001999999V0200901N00211012001CN0200001N9+02761+02421101131ADDAA124005091AG10999AY161061AY221061GF107991071081008001001001KA1240N+02401MA1999999100821MD1999999+0041MW1211REMSYN023333   20240 58004 60054
0096823970999991991021918004-03733-038550FM-12+001999999V0200901N00211045001CN0200001N9+02821+02461100981ADDAA106000091AG10999GF107991031071008001021061MA1999999100671MD1999999+0181REMSYN011333   58018
0115823970999991991022000004-03733-038550FM-12+001999999V0200901N00261007501CN9999999N9+02621+02411101181ADDAA106000091AG10999GF105991051051008001001001KA1240M+03011MA1999999100871MD1999999+0111REMSYN017333   10301 58011
0143823970999991991022012004-03733-038550FM-12+001999999V0200901N00151004201CN0200001N9+02601+02461101221ADDAA124006091AG10999AY161061AY251061GF107991051071004501071061KA1240N+02421MA1999999100911MD1999999+0091MW1211REMSYN023333   20242 58009 60064
0096823970999991991022018004-03733-038550FM-12+001999999V0200901N00461012001CN0200001N9+02881+02371101011ADDAA106000091AG10999GF108991081081008001999999MA1999999100701MD1999999+0031REMSYN011333   58003
0143823970999991991022100004-03733-038550FM-12+001999999V0200901N00101220001CN9999999N9+02601+02331101141ADDAA106002091AG10999AY161061AY221061GF101991011011008001001001KA1240M+03061MA1999999100831MD1999999-0041MW1011REMSYN023333   10306 59004 60021
0143823970999991991022112004-03733-038550FM-12+001999999V0201401N00261220001CN0200001N9+02801+02421101191ADDAA124004091AG10999AY161061AY221061GF102991011011008001001051KA1240N+02371MA1999999100881MD1999999-0031MW1011REMSYN023333   20237 59003 60044
0097823970999991991022200004-03733-038550FM-12+001999999V0200901N00051220001CN9999999N9+02561+02401101141ADDAA106000091AG10999GF100991001001999999001001MA1999999100831EQDQ01+000082APCTENQ02+000002APC3  
0115823970999991991022212004-03733-038550FM-12+001999999V0201401N00151012001CN0200001N9+02761+02421101331ADDAA106000091AG10999GF106991061081008001001001KA1240N+02381MA1999999101021MD1999999+0141REMSYN017333   20238 58014
0096823970999991991022218004-03733-038550FM-12+001999999V0200901N00411105001CN0200001N9+03081+02401101001ADDAA106000091AG10999GF107991021011008001001061MA1999999100691MD1999999+0091REMSYN011333   58009
0115823970999991991022300004-03733-038550FM-12+001999999V0200901N00151045001CN9999999N9+02661+02441101211ADDAA106000091AG10999GF107991021011008001011061KA1240M+03101MA1999999100901MD1999999+0071REMSYN017333   10310 58007
0115823970999991991022312004-03733-038550FM-12+001999999V0200901N00411012001CN0200001N9+02951+02351101431ADDAA106000091AG10999GF106991061081008001001001KA1240N+02621MA1999999101121MD1999999+0101REMSYN017333   20262 58010
0096823970999991991022318004-03733-038550FM-12+001999999V0200901N00511220001CN0200001N9+02971+02371101161ADDAA106000091AG10999GF106991021011008001001061MA1999999100851MD1999999+0161REMSYN011333   58016
0115823970999991991022400004-03733-038550FM-12+001999999V0200901N00151045001CN9999999N9+02681+02371101461ADDAA106000091AG10999GF106991021021008001031001KA1240M+03091MA1999999101151MD1999999+0251REMSYN017333   10309 58025
0115823970999991991022412004-03733-038550FM-12+001999999V0200901N00311012001CN0200001N9+02941+02261101481ADDAA106000091AG10999GF105991051081008001001001KA1240N+02421MA1999999101171MD1999999+0051REMSYN017333   20242 58005
0115823970999991991022418004-03733-038550FM-12+001999999V0200901N00511220001CN0200001N9+02971+02301101141ADDAA106000091AG10999GF106991041081008001001061MA1999999100831MD1999999-0021REMSYN011333   59002EQDQ01+999990APOSP 
0115823970999991991022500004-03733-038550FM-12+001999999V0200901N00101220001CN9999999N9+02641+02331101441ADDAA106000091AG10999GF101991011011008001001001KA1240M+03101MA1999999101131MD1999999-0021REMSYN017333   10310 59002
0102823970999991991022512004-03733-038550FM-12+001999999V0200901N00571012001CN0200001N9+02901+02391101331ADDAA106000091AG10999GF106991061081008001001001MA1999999101021MD1999999-0151REMSYN017333   02043 59015
0096823970999991991022518004-03733-038550FM-12+001999999V0200901N00361012001CN0200001N9+02861+02441101061ADDAA106000091AG10999GF107991051081008001001061MA1999999100751MD1999999-0031REMSYN011333   59003
0143823970999991991022612004-03733-038550FM-12+001999999V0201401N00311012001CN0200001N9+02761+02441101151ADDAA124002091AG10999AY161061AY221061GF107991071081008001001001KA1240N+02461MA1999999100841MD1999999-0181MW1021REMSYN023333   20246 59018 60024
0096823970999991991022618004-03733-038550FM-12+001999999V0200901N00511220001CN0200001N9+03061+02271100921ADDAA106000091AG10999GF101991011011008001001001MA1999999100611MD1999999-0141REMSYN011333   59014
0115823970999991991022700004-03733-038550FM-12+001999999V0200901N00151220001CN9999999N9+02721+02431101131ADDAA106000091AG10999GF106991011011008001001041KA1240M+03111MA1999999100821MD1999999-0161REMSYN017333   10311 59016
0115823970999991991022712004-03733-038550FM-12+001999999V0201401N00411012001CN0200001N9+02971+02371101171ADDAA106000091AG10999GF105991051081008001001001KA1240N+02421MA1999999100861MD1999999+0021REMSYN017333   20242 58002
0115823970999991991022800004-03733-038550FM-12+001999999V0200901N00311220001CN9999999N9+02781+02481101151ADDAA106000091AG10999GF104991031081008001001011KA1240M+03271MA1999999100841MD1999999+0021REMSYN017333   10327 58002
0115823970999991991022812004-03733-038550FM-12+001999999V0201401N00361012001CN0200001N9+02861+02461101231ADDAA106000091AG10999GF107991051081008001071091KA1240N+02561MA1999999100921MD1999999+0061REMSYN017333   20256 58006
0096823970999991991022818004-03733-038550FM-12+001999999V0200901N00461220001CN0200001N9+03121+02111100911ADDAA106000091AG10999GF102991001001999999001051MA1999999100601MD1999999+0051REMSYN011333   58005
0115823970999991991030100004-03733-038550FM-12+001999999V0200901N00261105001CN9999999N9+02741+02401101111ADDAA106000091AG10999GF105991021011008001001051KA1240M+03161MA1999999100801MD1999999-0041REMSYN017333   10316 59004
0143823970999991991030112004-03733-038550FM-12+001999999V0201401N00411012001CN0200001N9+02801+02381101261ADDAA124002091AG10999AY161061AY221061GF108991061081008001091999KA1240N+02421MA1999999100951MD1999999+0031MW1021REMSYN023333   20242 58003 60024
0096823970999991991030118004-03733-038550FM-12+001999999V0200501N00511105001CN0200001N9+03001+02241100861ADDAA106000091AG10999GF107991011011008001001091MA1999999100551MD1999999-0051REMSYN011333   59005
0137823970999991991030200004-03733-038550FM-12+001999999V0200901N00051045001CN9999999N9+02661+02371101141ADDAA106000091AG10999AY121061AY221061GF107991021031008001031061KA1240M+03091MA1999999100831MD1999999+0031MW1131REMSYN017333   10309 58003
0143823970999991991030212004-03733-038550FM-12+001999999V0201801N00311045001CN0005001N9+02481+02411101201ADDAA124011091AG10999AY161061AY221061GF108991041071008001021999KA1240N+02381MA1999999100891MD1999999-0061MW1611REMSYN023333   20238 59006 60114
0073823970999991991030218004-03733-038550FM-12+001999999V0200901N003619999999N0200001N9+02801+02421100871ADDAG10999AY161061AY221061GF108991051001008001001011MA1999999100561MW1031
0115823970999991991030300004-03733-038550FM-12+001999999V0200501N00151007501CN9999999N9+02601+02391101091ADDAA106000091AG10999GF108991051051008001071999KA1240M+02911MA1999999100781MD1999999-0051REMSYN017333   10291 59005
0143823970999991991030312004-03733-038550FM-12+001999999V0201401N00311045001CN0200001N9+02721+02401101121ADDAA124010091AG10999AY151061AY221061GF107991031081008001051001KA1240N+02401MA1999999100811MD1999999-0081MW1011REMSYN023333   20240 59008 60104
0096823970999991991030318004-03733-038550FM-12+001999999V0200901N00511045001CN0200001N9+02921+02391100841ADDAA106000091AG10999GF107991031081008001071011MA1999999100531MD1999999-0031REMSYN011333   59003
0115823970999991991030400004-03733-038550FM-12+001999999V0200901N00311045001CN9999999N9+02701+02331101091ADDAA106000091AG10999GF106991021011008001051001KA1240M+03051MA1999999100781MD1999999+0001REMSYN017333   10305 58000
0154823970999991991030412004-03733-038550FM-12+001999999V0201401N00211012001CN0200001N9+02801+02421101251ADDAA124000291AA299000391AG10999AY151061AY221061GF107991071081008001001001KA1240N+02401MA1999999100941MD1999999-0071MW1021REMSYN023333   20240 59007 69924
0096823970999991991030418004-03733-038550FM-12+001999999V0200901N00461220001CN0200001N9+03001+02341101061ADDAA106000091AG10999GF106991041081008001001061MA1999999100751MD1999999+0221REMSYN011333   58022
0115823970999991991030500004-03733-038550FM-12+001999999V0200901N00051105001CN9999999N9+02681+02411101291ADDAA106000091AG10999GF106991041081008001001051KA1240M+03071MA1999999100981MD1999999+0201REMSYN017333   10307 58020
0143823970999991991030512004-03733-038550FM-12+001999999V0200901N00151045001CN0200001N9+02591+02461101271ADDAA124012091AG10999AY161061AY221061GF107991041031008001071061KA1240N+02431MA1999999100961MD1999999+0021MW1951REMSYN023333   20243 58002 60124
0135823970999991991030518004-03733-038550FM-12+001999999V0200901N00311004201CN0200001N9+02461+02251101021ADDAA106000891AA299001091AG10999AY121061AY261061GF108991051071004501071999MA1999999100711MD1999999-0041MW1201REMSYN017333   59004 69981
0115823970999991991030600004-03733-038550FM-12+001999999V0209991C00001007501CN9999999N9+02541+02441101201ADDAA106000091AG10999GF107991051051008001071001KA1240M+02731MA1999999100891MD1999999-0091REMSYN017333   10273 59009
0143823970999991991030612004-03733-038550FM-12+001999999V0201401N00311012001CN0200001N9+02721+02431101201ADDAA124005091AG10999AY161061AY221061GF106991061081008001001001KA1240N+02341MA1999999100891MD1999999-0071MW1011REMSYN023333   20234 59007 60054
0096823970999991991030618004-03733-038550FM-12+001999999V0200901N00461220001CN0200001N9+02961+02281100841ADDAA106000091AG10999GF102991011011008001001041MA1999999100531MD1999999-0181REMSYN011333   59018
0115823970999991991030700004-03733-038550FM-12+001999999V0200901N00151220001CN9999999N9+02601+02231101001ADDAA106000091AG10999GF100991001001999999001001KA1240M+03021MA1999999100641MD1999999-0201REMSYN017333   10302 59020
0115823970999991991030712004-03733-038550FM-12+001999999V0201401N00261007501CN0200001N9+02881+02371101081ADDAA106000091AG10999GF106991061021008001001001KA1240N+02401MA1999999100771MD1999999-0121REMSYN017333   20240 59012
0115823970999991991030800004-03733-038550FM-12+001999999V0200901N00151220001CN9999999N9+02661+02291100891ADDAA106000091AG10999GF102991021011008001001001KA1240M+03111MA1999999100581MD1999999-0111REMSYN017333   10311 59011
0115823970999991991030812004-03733-038550FM-12+001999999V0201401N00311012001CN0200001N9+02881+02281101041ADDAA106000091AG10999GF107991051081008001091051KA1240N+02421MA1999999100731MD1999999-0041REMSYN017333   20242 59004
0096823970999991991030818004-03733-038550FM-12+001999999V0200901N00411045001CN0200001N9+03001+02391100701ADDAA106000091AG10999GF107991031031008001071061MA1999999100391MD1999999-0021REMSYN011333   59002
0143823970999991991030912004-03733-038550FM-12+001999999V0200901N00051004201CN0005001N9+02451+02391101281ADDAA124095091AG10999AY191061AY221061GF108991081071004501999999KA1240N+02381MA1999999100971MD1999999+0241MW1611REMSYN023333   20238 58024 60954
0124823970999991991030918004-03733-038550FM-12+001999999V0201401N00051004201CN0200001N9+02561+02401100981ADDAA106016091AG19005AY191061AY221061GF108991081071004501999999MA1999999100671MD1999999+0281MW1021REMSYN017333   58028 60161
0143823970999991991031000004-03733-038550FM-12+001999999V0201401N00211220001CN9999999N9+02421+02351101211ADDAA106003091AG10999AY161061AY221061GF106991041031008001001061KA1240M+02581MA1999999100901MD1999999+0221MW1131REMSYN023333   10258 58022 60031
0143823970999991991031012004-03733-038550FM-12+001999999V0201401N00151004201CN0200001N9+02461+02361101331ADDAA124002091AG10999AY161061AY221061GF108991081071004501999999KA1240N+02311MA1999999101021MD1999999+0051MW1611REMSYN023333   20231 58005 60024
0124823970999991991031018004-03733-038550FM-12+001999999V0201801N00151045001CN0200001N9+02491+02381100991ADDAA106005091AG10999AY161061AY221061GF108991041051008001071999MA1999999100681MD1999999+0011MW1211REMSYN017333   58001 60051
0115823970999991991031100004-03733-038550FM-12+001999999V0201801N00101220001CN9999999N9+02421+02351101141ADDAA106000091AG10999GF103991011011008001001041KA1240M+02501MA1999999100831MD1999999-0071REMSYN017333   10250 59007
0143823970999991991031112004-03733-038550FM-12+001999999V0201401N00311012001CN0200001N9+02801+02421101141ADDAA124014091AG10999AY161061AY221061GF106991061081008001001001KA1240N+02301MA1999999100831MD1999999-0191MW1031REMSYN023333   20230 59019 60144
0115823970999991991031200004-03733-038550FM-12+001999999V0200901N00151220001CN9999999N9+02681+02391101031ADDAA106000091AG10999GF104991011011008001031001KA1240M+03041MA1999999100721MD1999999-0111REMSYN017333   10304 59011
0143823970999991991031212004-03733-038550FM-12+001999999V0201401N00311220001CN0200001N9+02691+02521101081ADDAA124001091AG10999AY161061AY221061GF106991041081008001001061KA1240N+02481MA1999999100771MD1999999-0061MW1211REMSYN023333   20248 59006 60014
0124823970999991991031218004-03733-038550FM-12+001999999V0200901N00311004201CN0200001N9+02811+02501100821ADDAA106001091AG10999AY161061AY221061GF107991051071004501071061MA1999999100511MD1999999+0011MW1211REMSYN017333   58001 60011
0115823970999991991031300004-03733-038550FM-12+001999999V0200501N00051220001CN9999999N9+02621+02461101041ADDAA106000091AG10999GF105991041021008001001011KA1240M+02971MA1999999100731MD1999999+0011REMSYN017333   10297 58001
0143823970999991991031312004-03733-038550FM-12+001999999V0201801N00151045001CN0200001N9+02681+02451101071ADDAA124005091AG10999AY161061AY221061GF107991021051008001071061KA1240N+02381MA1999999100761MD1999999-0011MW1021REMSYN023333   20238 59001 60054
0124823970999991991031318004-03733-038550FM-12+001999999V0200901N00361045001CN0200001N9+02781+02481100771ADDAA106003091AG10999AY161061AY221061GF107991031081008001071061MA1999999100461MD1999999-0051MW1021REMSYN017333   59005 60031
0143823970999991991031400004-03733-038550FM-12+001999999V0209991C00001045001CN9999999N9+02501+02451101011ADDAA106003091AG10999AY161061AY221061GF108991031071004501021999KA1240M+02881MA1999999100701MD1999999-0031MW1031REMSYN023333   10288 59003 60031
0143823970999991991031412004-03733-038550FM-12+001999999V0200501N00051012001CN0200001N9+02841+02521101081ADDAA124008091AG10999AY161061AY221061GF107991071081008001001001KA1240N+02461MA1999999100771MD1999999+0011MW1021REMSYN023333   20246 58001 60084
0124823970999991991031418004-03733-038550FM-12+001999999V0200501N00051004201CN0040001N9+02581+02461100851ADDAA106005091AG10999AY161061AY221061GF108991081071004501999999MA1999999100541MD1999999+0081MW1211REMSYN017333   58008 60051
0124823970999991991031419004-03733-038550FM-12+001999999V0200501N00051004201CN0040001N9+02581+02461100851ADDAA106005091AG10999AY161011AY221011GF108991081071004501999999MA1999999100541MD1999999+0081MW1211REMSYN017333   58008 60051
0143823970999991991031500004-03733-038550FM-12+001999999V0209991C00001045001CN9999999N9+02501+02431101111ADDAA106002091AG10999AY161061AY221061GF108991041071004501021999KA1240M+02951MA1999999100801MD1999999+0101MW1031REMSYN023333   10295 58010 60021
0143823970999991991031512004-03733-038550FM-12+001999999V0202701N00151007501CN0200001N9+02681+02541101191ADDAA124019091AG10999AY161061AY221061GF108991061071008001071999KA1240N+02421MA1999999100881MD1999999+0111MW1021REMSYN023333   20242 58011 60194
0124823970999991991031518004-03733-038550FM-12+001999999V0203601N00151012001CN0200001N9+02741+02401100881ADDAA106015091AG10999AY191061AY221061GF108991051081008001071999MA1999999100531MD1999999+0031MW1021REMSYN017333   58003 60151
0143823970999991991031612004-03733-038550FM-12+001999999V0203601N00101045001CN0200001N9+02621+02251101231ADDAA124012091AG10999AY161061AY221061GF108991031011008001071999KA1240N+02251MA1999999100921MD1999999+0041MW1031REMSYN023333   20225 58004 60124
0096823970999991991031618004-03733-038550FM-12+001999999V0203201N00211045001CN0200001N9+02701+02261100931ADDAA106000091AG10999GF107991031071008001011001MA1999999100621MD1999999+0051REMSYN011333   58005
0115823970999991991031700004-03733-038550FM-12+001999999V0209991C00001045001CN9999999N9+02481+02391101031ADDAA106000091AG10999GF108991031071008001021999KA1240M+02761MA1999999100721MD1999999-0161REMSYN017333   10276 59016
0143823970999991991031712004-03733-038550FM-12+001999999V0202301N00101004201CN0010001N9+02381+02351101131ADDAA124033091AG10999AY191061AY261061GF108991081071004501999999KA1240N+02351MA1999999100821MD1999999-0101MW1631REMSYN023333   20235 59010 60334
0124823970999991991031718004-03733-038550FM-12+001999999V0201801N00151004201CN0200001N9+02741+02541100801ADDAA106002091AG10999AY161061AY221061GF108991051071004501021999MA1999999100491MD1999999-0131MW1031REMSYN017333   59013 60021
0143823970999991991031800004-03733-038550FM-12+001999999V0201401N00051045001CN9999999N9+02481+02391101041ADDAA106001091AG10999AY161061AY221061GF107991031031008001011001KA1240M+02771MA1999999100731MD1999999+0011MW1131REMSYN023333   10277 58001 60011
0143823970999991991031812004-03733-038550FM-12+001999999V0201801N00261045001CN0200001N9+02721+02481101181ADDAA124015091AG10999AY161061AY221061GF108991031081008001051999KA1240N+02341MA1999999100871MD1999999+0051MW1021REMSYN023333   20234 58005 60154
0096823970999991991031818004-03733-038550FM-12+001999999V0200901N00311105001CN0200001N9+02921+02391100861ADDAA106000091AG10999GF105991011011008001031061MA1999999100551MD1999999+0061REMSYN011333   58006
0115823970999991991031900004-03733-038550FM-12+001999999V0209991C00001045001CN9999999N9+02581+02481101151ADDAA106000091AG10999GF107991011011008001031061KA1240M+03081MA1999999100841MD1999999+0111REMSYN017333   10308 58011
0143823970999991991031912004-03733-038550FM-12+001999999V0201401N00151004201CN0010001N9+02641+02521101291ADDAA124003091AG10999AY161061AY221061GF107991071051004501001001KA1240N+02411MA1999999100981MD1999999+0111MW1611REMSYN023333   20241 58011 60034
0124823970999991991031918004-03733-038550FM-12+001999999V0200901N00511220001CN0200001N9+02921+02361100981ADDAA106002091AG10999AY161061AY221061GF104991021011008001001011MA1999999100671MD1999999+0121MW1011REMSYN017333   58012 60021
0115823970999991991032000004-03733-038550FM-12+001999999V0200901N00101220001CN9999999N9+02561+02361101201ADDAA106000091AG10999GF100991001001999999001001KA1240M+03061MA1999999100891MD1999999+0051REMSYN017333   10306 58005
0143823970999991991032012004-03733-038550FM-12+001999999V0201801N00361012001CN0200001N9+02841+02421101301ADDAA124002091AG10999AY151061AY221061GF105991051081008001001001KA1240N+02401MA1999999100991MD1999999+0011MW1011REMSYN023333   20240 58001 60024
0096823970999991991032018004-03733-038550FM-12+001999999V0200901N00411220001CN0200001N9+02981+02331100991ADDAA106000091AG10999GF101991011011008001001001MA1999999100681MD1999999+0101REMSYN011333   58010
0115823970999991991032100004-03733-038550FM-12+001999999V0200901N00051220001CN9999999N9+02541+02361101111ADDAA106000091AG10999GF100991001001999999001001KA1240M+03121MA1999999100801MD1999999-0091REMSYN017333   10312 59009
0115823970999991991032112004-03733-038550FM-12+001999999V0201401N00211012001CN0200001N9+02921+02451101161ADDAA106000091AG10999GF105991051081008001001001KA1240N+02371MA1999999100851MD1999999-0141REMSYN017333   20237 59014
0096823970999991991032118004-03733-038550FM-12+001999999V0200901N00411220001CN0200001N9+03021+02411100891ADDAA106000091AG10999GF101991011011008001001001MA1999999100581MD1999999-0101REMSYN011333   59010
0137823970999991991032200004-03733-038550FM-12+001999999V0200501N00051220001CN9999999N9+02601+02421101031ADDAA106000091AG10999AY111061AY211061GF101991011031008001001001KA1240M+03131MA1999999100721MD1999999-0081MW1131REMSYN017333   10313 59008
0143823970999991991032212004-03733-038550FM-12+001999999V0201401N00151004201CN0005001N9+02541+02401101041ADDAA124005091AG10999AY161061AY221061GF108991081071004501999999KA1240N+02441MA1999999100731MD1999999-0121MW1611REMSYN023333   20244 59012 60054
0124823970999991991032218004-03733-038550FM-12+001999999V0200901N00211045001CN0200001N9+02741+02461100711ADDAA106003091AG10999AY161061AY221061GF106991041031008001071001MA1999999100401MD1999999-0181MW1211REMSYN017333   59018 60031
0137823970999991991032300004-03733-038550FM-12+001999999V0203601N00151045001CN9999999N9+02561+02461100961ADDAA106000091AG10999AY121061AY221061GF107991041031008001071061KA1240M+03281MA1999999100641MD1999999-0071MW1131REMSYN017333   10328 59007
0121823970999991991032312004-03733-038550FM-12+001999999V0201401N00151007501CN0200001N9+02541+02441101001ADDAA124003091AG10999GF108991081071008001999999KA1240N+02401MA1999999100691MD1999999-0041REMSYN023333   20240 59004 60034
0124823970999991991032318004-03733-038550FM-12+001999999V0200901N00261045001CN0200001N9+02781+02381100731ADDAA106002091AG10999AY191061AY221061GF108991021081008001071061MA1999999100421MD1999999+0021MW1021REMSYN017333   58002 60021
0115823970999991991032400004-03733-038550FM-12+001999999V0200901N00101045001CN9999999N9+02601+02391101001ADDAA106000091AG10999GF108991041071008001071999KA1240M+02851MA1999999100691MD1999999-0041REMSYN017333   10285 59004
0121823970999991991032412004-03733-038550FM-12+001999999V0200901N00211045001CN0200001N9+02861+02371101061ADDAA124002091AG10999GF106991041081008001061061KA1240N+02401MA1999999100751MD1999999+0061REMSYN023333   20240 58006 60024
0096823970999991991032418004-03733-038550FM-12+001999999V0200901N00361045001CN0200001N9+02961+02421100781ADDAA106000091AG10999GF106991031031008001071061MA1999999100471MD1999999+0051REMSYN011333   58005
0143823970999991991032512004-03733-038550FM-12+001999999V0200901N00211004201CN0005001N9+02341+02311101351ADDAA124034091AG10999AY161061AY221061GF108991081071004501999999KA1240N+02281MA1999999101041MD1999999+0291MW1631REMSYN023333   20228 58029 60344
0124823970999991991032518004-03733-038550FM-12+001999999V0200901N00311045001CN0200001N9+02761+02441100891ADDAA106007091AG10999AY161061AY221061GF107991041081008001071999MA1999999100581MD1999999+0111MW1021REMSYN017333   58011 60071
0115823970999991991032600004-03733-038550FM-12+001999999V0201401N00151045001CN9999999N9+02481+02411101131ADDAA106000091AG10999GF108991031021008001071999KA1240M+02821MA1999999100821MD1999999+0081REMSYN017333   10282 58008
0121823970999991991032612004-03733-038550FM-12+001999999V0201801N00361045001CN0200001N9+02801+02381101181ADDAA124007091AG10999GF106991041081008001071001KA1240N+02331MA1999999100871MD1999999-0171REMSYN023333   20233 59017 60074
0124823970999991991032618004-03733-038550FM-12+001999999V0200901N00211045001CN0200001N9+02741+02431100871ADDAA106000591AG10999AY151061AY221061GF108991041021008001071999MA1999999100561MD1999999-0021MW1021REMSYN017333   59002 69951
0115823970999991991032700004-03733-038550FM-12+001999999V0209991C00001045001CN9999999N9+02581+02441101041ADDAA106000091AG10999GF108991041051008001071999KA1240M+02891MA1999999100731MD1999999-0091REMSYN017333   10289 59009
0143823970999991991032712004-03733-038550FM-12+001999999V0201401N00051007501CN0010001N9+99999+99999101181ADDAA124017091AG10999AY161061AY221061GF108991081071008001999999KA1240N+02341MA1999999100871MD1999999+0001MW1611REMSYN023333   20234 58000 60174
0135823970999991991032718004-03733-038550FM-12+001999999V0200901N00311007501CN0040001N9+02671+02431100751ADDAA106000691AA299000591AG10999AY161061AY221061GF108991081071008001999999MA1999999100441MD1999999-0121MW1151REMSYN017333   59012 69961
0115823970999991991032800004-03733-038550FM-12+001999999V0201401N00151045001CN9999999N9+02501+02411101021ADDAA106000091AG10999GF107991031041008001031071KA1240M+02771MA1999999100711MD1999999-0021REMSYN017333   10277 59002
0151823970999991991032812004-03733-038550FM-12+001999999V0200501N00211012001CN0200001N9+02861+02281101071ADDAA124000691AA299000591AG10999GF107991999081008001001001KA1240N+02341MA1999999100761MD1999999-0111REMSYN023333   20234 59011 69964EQDQ01+000052SCOTLC
0096823970999991991032818004-03733-038550FM-12+001999999V0203601N00261045001CN0200001N9+02821+02401100681ADDAA106000091AG10999GF107991041071008001071061MA1999999100371MD1999999-0071REMSYN011333   59007
0154823970999991991032900004-03733-038550FM-12+001999999V0203201N00151007501CN9999999N9+02481+02341101001ADDAA106000691AA299000591AG10999AY121061AY221061GF108991051071008001021999KA1240M+03001MA1999999100691MD1999999-0021MW1201REMSYN023333   10300 59002 69961
0143823970999991991032912004-03733-038550FM-12+001999999V0202301N00101004201CN0040001N9+02481+02381101211ADDAA124018091AG10999AY161061AY221061GF108991051071004501021999KA1240N+02281MA1999999100901MD1999999+0141MW1511REMSYN023333   20228 58014 60184
0141823970999991991032918004-03733-038550FM-12+001999999V0202301N00311004201CN0002001N9+02281+02251100971ADDAA106110091AA224960092AG10999AY151061AY291061GF108991051091004501021999MA1999999100661MD1999999+0291MW1091REMSYN023333   58029 61101 79596
0143823970999991991033000004-03733-038550FM-12+001999999V0202701N00151045001CN9999999N9+02281+02231101161ADDAA106021091AG10999AY191061AY261061GF108991031071004501021999KA1240M+02881MA1999999100851MD1999999+0161MW1021REMSYN023333   10288 58016 60211
0143823970999991991033012004-03733-038550FM-12+001999999V0201801N00311004201CN0200001N9+02561+02361101281ADDAA124132091AG10999AY151061AY221061GF108991051051004501071999KA1240N+02201MA1999999100971MD1999999+0071MW1031REMSYN023333   20220 58007 61324
0096823970999991991033018004-03733-038550FM-12+001999999V0200501N00311007501CN0200001N9+02841+02441100981ADDAA106000091AG10999GF107991051051008001071001MA1999999100671MD1999999+0011REMSYN011333   58001
0154823970999991991033100004-03733-038550FM-12+001999999V0200901N00151045001CN9999999N9+02561+02401101171ADDAA106000491AA299000591AG10999AY151061AY221061GF106991021041008001031001KA1240M+03011MA1999999100861MD1999999+0011MW1011REMSYN023333   10301 58001 69941
0143823970999991991033112004-03733-038550FM-12+001999999V0200901N00461012001CN0200001N9+02881+02441101251ADDAA124003091AG10999AY161061AY221061GF106991051081008001061001KA1240N+02401MA1999999100941MD1999999-0031MW1031REMSYN023333   20240 59003 60034
0135823970999991991033118004-03733-038550FM-12+001999999V0200901N00411105001CN0200001N9+02981+02471100941ADDAA106000491AA299000591AG10999AY151061AY221061GF106991041081008001001051MA1999999100631MD1999999-0041MW1031REMSYN017333   59004 69941
0154823970999991991040100004-03733-038550FM-12+001999999V0200901N00051012001CN9999999N9+02521+02401101201ADDAA106000891AA299001091AG10999AY161061AY221061GF105991051081008001001001KA1240M+03021MA1999999100891MD1999999+0031MW1011REMSYN023333   10302 58003 69981
0154823970999991991040112004-03733-038550FM-12+001999999V0201401N00211012001CN0200001N9+02821+02421101241ADDAA106000091AA224002091AG10999AY151061AY221061GF106991051081008001001061KA1240N+02371MA1999999100931MD1999999-0011MW1011REMSYN023333   20237 59001 60024
0118823970999991991040118004-03733-038550FM-12+001999999V0200901N00411045001CN0200001N9+02981+02421100871ADDAA106000091AG10999AY191061AY221061GF106991041031008001031061MA1999999100561MD1999999-0071MW1021REMSYN011333   59007
0115823970999991991040200004-03733-038550FM-12+001999999V0209991C00001220001CN9999999N9+02681+02411101081ADDAA106000091AG10999GF103991011011008001031011KA1240M+03061MA1999999100771MD1999999-0121REMSYN017333   10306 59012
0143823970999991991040212004-03733-038550FM-12+001999999V0201801N00051012001CN0200001N9+02741+02541101291ADDAA124008091AG10999AY161061AY221061GF107991051081008001071061KA1240N+02431MA1999999100981MD1999999+0051MW1021REMSYN023333   20243 58005 60084
0124823970999991991040218004-03733-038550FM-12+001999999V0201401N00051045001CN0200001N9+02741+02481100971ADDAA106020091AG10999AY191061AY221061GF107991041031008001071061MA1999999100661MD1999999+0101MW1021REMSYN017333   58010 60201
0115823970999991991040300004-03733-038550FM-12+001999999V0209991C00001220001CN9999999N9+02521+02421101291ADDAA106000091AG10999GF103991011041008001031001KA1240M+03011MA1999999100981MD1999999+0211REMSYN017333   10301 58021
0143823970999991991040312004-03733-038550FM-12+001999999V0202301N00151012001CN0200001N9+02701+02431101511ADDAA124027091AG10999AY161061AY221061GF107991051081008001071061KA1240N+02371MA1999999101201MD1999999+0221MW1021REMSYN023333   20237 58022 60274
0096823970999991991040318004-03733-038550FM-12+001999999V0203601N00461220001CN0200001N9+02881+02411101261ADDAA106000091AG10999GF104991031031008001001051MA1999999100951MD1999999-0291REMSYN011333   59029
0137823970999991991040400004-03733-038550FM-12+001999999V0203201N00051220001CN9999999N9+02461+02371101381ADDAA106000091AG10999AY121061AY211061GF101991011031008001001001KA1240M+02931MA1999999101081MD1999999+0101MW1131REMSYN017333   10293 58010
0143823970999991991040412004-03733-038550FM-12+001999999V0201801N00211012001CN0200001N9+02761+02461101441ADDAA124003091AG10999AY161061AY221061GF106991061081008001001001KA1240N+02271MA1999999101131MD1999999-0071MW1021REMSYN023333   20227 59007 60034
0096823970999991991040418004-03733-038550FM-12+001999999V0200901N00411045001CN0200001N9+02941+02381101101ADDAA106000091AG10999GF105991031031008001041011MA1999999100791MD1999999-0161REMSYN011333   59016
0137823970999991991040500004-03733-038550FM-12+001999999V0209991C00001220001CN9999999N9+02581+02441101391ADDAA106000091AG10999AY121061AY211061GF103991031031008001001001KA1240M+03021MA1999999101081MD1999999+0001MW1131REMSYN017333   10302 58000
0143823970999991991040512004-03733-038550FM-12+001999999V0201401N00211220001CN0200001N9+02841+02421101481ADDAA124028091AG10999AY161061AY221061GF106991031081008001001061KA1240N+02371MA1999999101171MD1999999+0041MW1211REMSYN023333   20237 58004 60284
0118823970999991991040518004-03733-038550FM-12+001999999V0200901N00311105001CN0040001N9+02981+02101101071ADDAA106000091AG19031AY121061AY221061GF106991041091008001001051MA1999999100761MD1999999-0031MW1151REMSYN011333   59003
0115823970999991991040600004-03733-038550FM-12+001999999V0200901N00051220001CN9999999N9+02601+02461101241ADDAA106000091AG10999GF103991031011008001001001KA1240M+03061MA1999999100931MD1999999-0151REMSYN017333   10306 59015
0115823970999991991040612004-03733-038550FM-12+001999999V0201401N00411012001CN0200001N9+02821+02441101301ADDAA106000091AG10999GF106991061081008001001001KA1240N+02411MA1999999100991MD1999999-0181REMSYN017333   20241 59018
0096823970999991991040618004-03733-038550FM-12+001999999V0200901N00311220001CN0200001N9+02991+02321100971ADDAA106000091AG10999GF103991011011008001001061MA1999999100661MD1999999-0101REMSYN011333   59010
0115823970999991991040700004-03733-038550FM-12+001999999V0200901N00051220001CN9999999N9+02581+02441101141ADDAA106000091AG10999GF100991001001999999001001KA1240M+03091MA1999999100831MD1999999-0101REMSYN017333   10309 59010
0154823970999991991040712004-03733-038550FM-12+001999999V0201401N00361045001CN0200001N9+02781+02301101231ADDAA124000291AA299000391AG10999AY151061AY221061GF105991031081008001071001KA1240N+02481MA1999999100921MD1999999-0071MW1011REMSYN023333   20248 59007 69924
0115823970999991991040800004-03733-038550FM-12+001999999V0201401N00051012001CN9999999N9+02661+02481101231ADDAA106000091AG10999GF106991061081008001001001KA1240M+03111MA1999999100921MD1999999+0091REMSYN017333   10311 58009
0124823970999991991040818004-03733-038550FM-12+001999999V0200501N00261045001CN0200001N9+02721+02471101001ADDAA106007091AG10999AY161061AY221061GF108991041031008001071999MA1999999100691MD1999999+0101MW1021REMSYN017333   58010 60071
0137823970999991991040900004-03733-038550FM-12+001999999V0201401N00051220001CN9999999N9+02481+02411101211ADDAA106000091AG10999AY121061AY211061GF103991031031008001001999KA1240M+02751MA1999999100901MD1999999-0021MW1131REMSYN017333   10275 59002
0129823970999991991040912004-03733-038550FM-12+001999999V0201401N00311045001CN0200001N9+02741+02451101281ADDAA124008091AG10999AY151061AY221061GF106991031081008001091061KA1240N+02401MA1999999100971MW1011REMSYN023333   20240 5/003 60084
0096823970999991991040918004-03733-038550FM-12+001999999V0200901N00361105001CN0200001N9+02981+02421100871ADDAA106000091AG10999GF106991041081008001001021MA1999999100561MD1999999-0131REMSYN011333   59013
0137823970999991991041000004-03733-038550FM-12+001999999V0209991C00001007501CN9999999N9+02601+02401101121ADDAA106000091AG10999AY121061AY211061GF106991061031008001001001KA1240M+03051MA1999999100811MD1999999-0091MW1131REMSYN017333   10305 59009
0115823970999991991041012004-03733-038550FM-12+001999999V0201401N00261012001CN0200001N9+02781+02441101191ADDAA106000091AG10999GF106991061081008001001001KA1240N+02381MA1999999100881MD1999999-0091REMSYN017333   20238 59009
0096823970999991991041018004-03733-038550FM-12+001999999V0200901N00311220001CN0200001N9+02991+02391100851ADDAA106000091AG10999GF106991021011008001001011MA1999999100541MD1999999-0021REMSYN011333   59002
0115823970999991991041100004-03733-038550FM-12+001999999V0200901N00051220001CN9999999N9+02601+02391101081ADDAA106000091AG10999GF103991031011008001001001KA1240M+03071MA1999999100771MD1999999-0041REMSYN017333   10307 59004
0115823970999991991041112004-03733-038550FM-12+001999999V0201401N00211220001CN0200001N9+02861+02331101141ADDAA106000091AG10999GF105991041081008001001011KA1240N+02371MA1999999100831MD1999999-0051REMSYN017333   20237 59005
0096823970999991991041118004-03733-038550FM-12+001999999V0200501N00411105001CN0200001N9+03001+02371100871ADDAA106000091AG10999GF105991031011008001001051MA1999999100561MD1999999+0021REMSYN011333   58002
0115823970999991991041200004-03733-038550FM-12+001999999V0200501N00051220001CN9999999N9+02621+02351101161ADDAA106000091AG10999GF102991021011008001001001KA1240M+03071MA1999999100851MD1999999+0081REMSYN017333   10307 58008
0124823970999991991041218004-03733-038550FM-12+001999999V0200501N00311045001CN0200001N9+02961+02261100861ADDAA106002091AG10999AY161061AY221061GF107991041031008001071051MA1999999100551MD1999999-0011MW1031REMSYN017333   59001 60021
0115823970999991991041300004-03733-038550FM-12+001999999V0209991C00001220001CN9999999N9+02561+02401101021ADDAA106000091AG10999GF102991021011008001001001KA1240M+03081MA1999999100711MD1999999-0141REMSYN017333   10308 59014
0143823970999991991041312004-03733-038550FM-12+001999999V0201401N00151045001CN0200001N9+02511+02401101171ADDAA124023091AG10999AY161061AY221061GF107991041031008001071001KA1240N+02281MA1999999100861MD1999999-0041MW1031REMSYN023333   20228 59004 60234
0118823970999991991041318004-03733-038550FM-12+001999999V0200901N00261045001CN0040001N9+02821+02331100811ADDAA106000091AG10999AY121061AY221061GF107991031071008001071001MA1999999100501MD1999999-0051MW1151REMSYN011333   59005
0137823970999991991041400004-03733-038550FM-12+001999999V0209991C00001220001CN9999999N9+02521+02401100921ADDAA106000091AG10999AY121061AY211061GF101991011011008001001001KA1240M+03021MA1999999100611MD1999999-0101MW1131REMSYN017333   10302 59010
0143823970999991991041412004-03733-038550FM-12+001999999V0203201N00051004201CN0040001N9+02401+02371101161ADDAA124038091AG10999AY191061AY261061GF108991051091004501071999KA1240N+02291MA1999999100851MD1999999-0011MW1291REMSYN023333   20229 59001 60384
0096823970999991991041418004-03733-038550FM-12+001999999V0200901N00311220001CN0200001N9+02921+02411100741ADDAA106000091AG10999GF106991041081008001001061MA1999999100431MD1999999-0071REMSYN011333   59007
0115823970999991991041500004-03733-038550FM-12+001999999V0209991C00001220001CN9999999N9+02521+02431100991ADDAA106000091AG10999GF102991021011008001001001KA1240M+02971MA1999999100681MD1999999+0071REMSYN017333   10297 58007
0115823970999991991041512004-03733-038550FM-12+001999999V0201901N00261012001CN0200001N9+02821+02151101161ADDAA106000091AG10999GF107991071081008001001001KA1240N+02361MA1999999100851MD1999999+0001REMSYN017333   20236 58000
0124823970999991991041518004-03733-038550FM-12+001999999V0200901N00311045001CN0200001N9+03001+02441100851ADDAA106004091AG10999AY161061AY221061GF107991031031008001071061MA1999999100541MD1999999+0011MW1031REMSYN017333   58001 60041
0115823970999991991041600004-03733-038550FM-12+001999999V0209991C00001045001CN9999999N9+02601+02481101091ADDAA106000091AG10999GF107991021011008001051001KA1240M+03061MA1999999100781MD1999999+0101REMSYN017333   10306 58010
0143823970999991991041612004-03733-038550FM-12+001999999V0201401N00211045001CN0010001N9+02341+02311101281ADDAA124027091AG10999AY191061AY261061GF108991041091008001021999KA1240N+02301MA1999999100971MD1999999+0121MW1291REMSYN023333   20230 58012 60274
0124823970999991991041618004-03733-038550FM-12+001999999V0201401N00151045001CN0200001N9+02561+02361100881ADDAA106004091AG10999AY161061AY221061GF108991041071004501021999MA1999999100571MD1999999+0031MW1021REMSYN017333   58003 60041
0115823970999991991041700004-03733-038550FM-12+001999999V0200501N00051045001CN9999999N9+02461+02391101131ADDAA106000091AG10999GF106991021011008001051001KA1240M+02651MA1999999100821MD1999999+0041REMSYN017333   10265 58004
0143823970999991991041712004-03733-038550FM-12+001999999V0201801N00311012001CN0200001N9+02741+02471101071ADDAA124005091AG10999AY151061AY221061GF107991051081008001031061KA1240N+02341MA1999999100761MD1999999-0211MW1021REMSYN023333   20234 59021 60054
0159823970999991991041718004-03733-038550FM-12+001999999V0200901N00211045001CN0200001N9+02861+02441100661ADDAA106002091AG10999AY161061AY221061GF106991031081008001071061MA1999999100351MD1999999-0221MW1011REMSYN017333   59022 60021EQDQ01+106603APOSLPQ02+999990APOSLP
0115823970999991991041800004-03733-038550FM-12+001999999V0201401N00101220001CN9999999N9+02541+02421100961ADDAA106000091AG10999GF102991021011008001001001KA1240M+02911MA1999999100651MD1999999-0171REMSYN017333   10291 59017
0143823970999991991041812004-03733-038550FM-12+001999999V0201401N00051045001CN0200001N9+02521+02401101101ADDAA124003091AG10999AY161061AY221061GF107991041081008001071081KA1240N+02381MA1999999100791MD1999999+0031MW1291REMSYN023333   20238 58003 60034
0124823970999991991041818004-03733-038550FM-12+001999999V0201401N00361045001CN0200001N9+02801+02441100731ADDAA106013091AG10999AY191061AY261061GF107991031081008001061081MA1999999100421MD1999999+0071MW1011REMSYN017333   58007 60131
0154823970999991991041900004-03733-038550FM-12+001999999V0209991C00001220001CN9999999N9+02601+02391101061ADDAA106000491AA299000591AG10999AY151061AY221061GF103991031031008001001001KA1240M+02841MA1999999100751MD1999999+0101MW1131REMSYN023333   10284 58010 69941
0143823970999991991041912004-03733-038550FM-12+001999999V0201401N00361220001CN0200001N9+02781+02481101201ADDAA124028091AG10999AY161061AY221061GF106991041081008001001061KA1240N+02241MA1999999100891MD1999999+0101MW1011REMSYN023333   20224 58010 60284
0096823970999991991041918004-03733-038550FM-12+001999999V0200901N00361105001CN0200001N9+02961+02451100921ADDAA106000091AG10999GF105991031021008001001051MA1999999100611MD1999999+0191REMSYN011333   58019
0154823970999991991042000004-03733-038550FM-12+001999999V0200901N00151012001CN9999999N9+02661+02461101251ADDAA106000291AA299000391AG10999AY121061AY211061GF106991061081008001001001KA1240M+03061MA1999999100941MD1999999+0191MW1511REMSYN023333   10306 58019 69921
0143823970999991991042012004-03733-038550FM-12+001999999V0201401N00311007501CN0200001N9+02701+02481101351ADDAA124009091AG10999AY161061AY221061GF108991081051008001999999KA1240N+02421MA1999999101041MD1999999+0151MW1021REMSYN023333   20242 58015 60094
0096823970999991991042018004-03733-038550FM-12+001999999V0200901N00411105001CN0200001N9+02961+02451101031ADDAA106000091AG10999GF106991041091008001001051MA1999999100721MD1999999+0111REMSYN011333   58011
0154823970999991991042100004-03733-038550FM-12+001999999V0200901N00361220001CN9999999N9+02701+02541101281ADDAA106000491AA299000591AG10999AY121061AY211061GF103991021021008001031001KA1240M+03061MA1999999100971MD1999999-0031MW1201REMSYN023333   10306 59003 69941
0143823970999991991042112004-03733-038550FM-12+001999999V0201801N00461220001CN0200001N9+02801+02311101321ADDAA124009091AG10999AY161061AY221061GF103991021091008001041001KA1240N+02391MA1999999101011MD1999999-0031MW1011REMSYN023333   20239 59003 60094
0096823970999991991042118004-03733-038550FM-12+001999999V0200901N00411220001CN0200001N9+03081+02441100891ADDAA106000091AG10999GF106991031031008001001061MA1999999100581MD1999999-0141REMSYN011333   59014
0154823970999991991042200004-03733-038550FM-12+001999999V0201801N00101007501CN9999999N9+02581+02421101231ADDAA106000491AA299000591AG10999AY121061AY211061GF108991051051008001071999KA1240M+03161MA1999999100921MD1999999-0051MW1511REMSYN023333   10316 59005 69941
0143823970999991991042212004-03733-038550FM-12+001999999V0201801N00411220001CN0200001N9+02801+02361101301ADDAA199003091AG10999AY161061AY211061GF102991021021008001001001KA1240N+02421MA1999999100991MD1999999-0021MW1011REMSYN023333   20242 59002 60030
0096823970999991991042218004-03733-038550FM-12+001999999V0200901N00211220001CN0200001N9+03041+02361100871ADDAA106000091AG10999GF102991011021008001031001MA1999999100461MD1999999-0101REMSYN011333   59010
0115823970999991991042300004-03733-038550FM-12+001999999V0201801N00051007501CN9999999N9+02641+02441101181ADDAA106000091AG10999GF106991061041008001001001KA1240M+03131MA1999999100871MD1999999-0051REMSYN017333   10313 59005
0115823970999991991042312004-03733-038550FM-12+001999999V0201401N00411007501CN0200001N9+02871+02371101241ADDAA106000091AG10999GF105991051021008001001001KA1240N+02401MA1999999100931MD1999999-0061REMSYN017333   20240 59006
0115823970999991991042400004-03733-038550FM-12+001999999V0200901N00151220001CN9999999N9+02681+02451101271ADDAA106000091AG10999GF106991011011008001001061KA1240M+03101MA1999999100961MD1999999+0091REMSYN017333   10310 58009
0115823970999991991042412004-03733-038550FM-12+001999999V0201401N00311045001CN0200001N9+02821+02461101281ADDAA106000091AG10999GF105991031081008001031001KA1240N+02461MA1999999100971MD1999999+0041REMSYN017333   20246 58004
0096823970999991991042418004-03733-038550FM-12+001999999V0200901N00411220001CN0200001N9+99999+99999100931ADDAA106000091AG10999GF104991021021008001001061MA1999999100621MD1999999-0301REMSYN011333   59030
0137823970999991991042500004-03733-038550FM-12+001999999V0200901N00051045001CN9999999N9+02681+02451101221ADDAA106000091AG10999AY121061AY211061GF107991021031008001071061KA1240M+03081MA1999999100911MD1999999-0051MW1131REMSYN017333   10308 59005
0143823970999991991042512004-03733-038550FM-12+001999999V0201401N00101004201CN0010001N9+02501+02411101321ADDAA124021091AG10999AY161061AY221061GF108991081071004501999999KA1240N+02311MA1999999101011MD1999999+0041MW1611REMSYN023333   20231 58004 60214
0124823970999991991042518004-03733-038550FM-12+001999999V0200901N00151045001CN0200001N9+02711+02521100961ADDAA106010091AG10999AY161061AY221061GF108991021081008001071999MA1999999100651MD1999999+0031MW1021REMSYN017333   58003 60101
0115823970999991991042600004-03733-038550FM-12+001999999V0209991C00001045001CN9999999N9+02681+02511101161ADDAA106000091AG10999GF108991041051008001071999KA1240M+02721MA1999999100851MD1999999-0061REMSYN017333   10272 59006
0143823970999991991042612004-03733-038550FM-12+001999999V0201801N00211009001CN0200001N9+02801+02561101201ADDAA124016091AG10999AY161061AY221061GF107991071081004501051999KA1240N+02421MA1999999100891MD1999999-0121MW1021REMSYN023333   20242 59012 60164
0124823970999991991042618004-03733-038550FM-12+001999999V0200901N00361220001CN0200001N9+03001+02181100811ADDAA106001091AG10999AY161061AY221061GF104991021081008001001051MA1999999100501MD1999999-0151MW1011REMSYN017333   59015 60011
0115823970999991991042700004-03733-038550FM-12+001999999V0209991C00001012001CN9999999N9+02601+02461101131ADDAA106000091AG10999GF106991061081008001001001KA1240M+03111MA1999999100821MD1999999-0031REMSYN017333   10311 59003
0143823970999991991042712004-03733-038550FM-12+001999999V0201401N00211007501CN0200001N9+02681+02431101241ADDAA124012091AG10999AY191061AY261061GF107991061051008001031001KA1240N+02391MA1999999100931MD1999999+0041MW1031REMSYN023333   20239 58004 60124
0096823970999991991042718004-03733-038550FM-12+001999999V0200901N00361045001CN0200001N9+02961+02421100761ADDAA106000091AG10999GF107991021021008001031021MA1999999100451MD1999999-0051REMSYN011333   59005
0115823970999991991042800004-03733-038550FM-12+001999999V0200901N00101012001CN9999999N9+02641+02441101011ADDAA106000091AG10999GF107991051081008001051001KA1240M+03081MA1999999100701MD1999999-0121REMSYN017333   10308 59012
0143823970999991991042812004-03733-038550FM-12+001999999V0201801N00151045001CN0200001N9+02541+02441101141ADDAA124025091AG10999AY161061AY221061GF108991041071008001071999KA1240N+02321MA1999999100831MD1999999-0101MW1211REMSYN023333   20232 59010 60254
0124823970999991991042818004-03733-038550FM-12+001999999V0201401N00051004201CN0040001N9+02581+02401100901ADDAA106004091AG10999AY191061AY261061GF108991051071004501021999MA1999999100591MD1999999+0141MW1151REMSYN017333   58014 60041
0115823970999991991042900004-03733-038550FM-12+001999999V0201401N00151105001CN9999999N9+02521+02431101021ADDAA106000091AG10999GF107991011041008001001071KA1240M+02951MA1999999100711MD1999999+0011REMSYN017333   10295 58001
0143823970999991991042912004-03733-038550FM-12+001999999V0201401N00211045001CN0020001N9+02401+02371101221ADDAA124028091AG10999AY161061AY221061GF108991041071004501021999KA1240N+02321MA1999999100911MD1999999+0081MW1511REMSYN023333   20232 58008 60284
0124823970999991991042918004-03733-038550FM-12+001999999V0200901N00051004201CN0040001N9+02561+02471100891ADDAA106002091AG10999AY161061AY221061GF108991051071004501021999MA1999999100581MD1999999-0011MW1211REMSYN017333   59001 60021
0115823970999991991043000004-03733-038550FM-12+001999999V0209991C00001045001CN9999999N9+02441+02391101121ADDAA106000091AG10999GF107991031051008001071061KA1240M+02721MA1999999100811MD1999999+0101REMSYN017333   10272 58010
0096823970999991991043018004-03733-038550FM-12+001999999V0200501N00261220001CN0200001N9+02941+02451100801ADDAA106000091AG10999GF106991031021008001001061MA1999999100491MD1999999-0091REMSYN011333   59009
0115823970999991991050100004-03733-038550FM-12+001999999V0200501N00051012001CN9999999N9+02601+02461101101ADDAA106000091AG10999GF108991051081008001011999KA1240M+03031MA1999999100791MD1999999-0021REMSYN017333   10303 59002
0115823970999991991050112004-03733-038550FM-12+001999999V0201801N00311045001CN0200001N9+02701+02411101151ADDAA106000091AG10999GF105991031081008001061021KA1240N+02441MA1999999100841MD1999999-0021REMSYN017333   20244 59002
0096823970999991991050118004-03733-038550FM-12+001999999V0200901N00361220001CN0200001N9+02861+02461100811ADDAA106000091AG10999GF105991031091008001001041MA1999999100501MD1999999+0011REMSYN011333   58001
0115823970999991991050200004-03733-038550FM-12+001999999V0201801N00051045001CN9999999N9+02581+02491101161ADDAA106000091AG10999GF108991041051008001071999KA1240M+03051MA1999999100851MD1999999-0061REMSYN017333   10305 59006
0143823970999991991050212004-03733-038550FM-12+001999999V0201401N00261004201CN0200001N9+02481+02391101211ADDAA124012091AG10999AY161061AY221061GF108991081071004501999999KA1240N+02321MA1999999100901MD1999999+0061MW1211REMSYN023333   20232 58006 60124
0124823970999991991050218004-03733-038550FM-12+001999999V0200901N00361007501CN0200001N9+02521+02381100851ADDAA106011091AG10999AY161061AY221061GF108991051031008001021999MA1999999100541MD1999999+0041MW1211REMSYN017333   58004 60111
0115823970999991991050300004-03733-038550FM-12+001999999V0209991C00001045001CN9999999N9+02501+02471101121ADDAA106000091AG10999GF108991041071004501021999KA1240M+02571MA1999999100811MD1999999-0041REMSYN017333   10257 59004
0132823970999991991050312004-03733-038550FM-12+001999999V0201401N00261045001CN0200001N9+02651+02481101111ADDAA106000091AA224014091AG10999GF106991021021008001071001KA1240N+02381MA1999999100801MD1999999-0101REMSYN023333   20238 59010 60144
0135823970999991991050318004-03733-038550FM-12+001999999V0200901N00211045001CN0200001N9+02941+02451100801ADDAA106000491AA299000591AG10999AY151061AY221061GF107991041031008001071061MA1999999100491MD1999999-0051MW1031REMSYN017333   59005 69941
0137823970999991991050400004-03733-038550FM-12+001999999V0201801N00051007501CN9999999N9+02601+02481101081ADDAA106000091AG10999AY121061AY221061GF107991051031008001071001KA1240M+02991MA1999999100771MD1999999-0041MW1131REMSYN017333   10299 59004
0123823970999991991050412004-03733-038550FM-12+001999999V0201401N00411220001CN0200001N9+02821+02331101081ADDAA124022091AG10999AY161061AY211061GF103991021021008001051001KA1240N+02371MA1999999100771MW1011REMSYN017333   20237 60224
0137823970999991991050500004-03733-038550FM-12+001999999V0201801N00051007501CN9999999N9+02621+02461101011ADDAA106000091AG10999AY121061AY211061GF106991061031008001001001KA1240M+03031MA1999999100701MD1999999-0071MW1131REMSYN017333   10303 59007
0143823970999991991050512004-03733-038550FM-12+001999999V0201401N00361007501CN0200001N9+02731+02401101131ADDAA124005091AG10999AY161061AY221061GF108991061071008001001081KA1240N+02421MA1999999100821MD1999999+0051MW1021REMSYN023333   20242 58005 60054
0135823970999991991050518004-03733-038550FM-12+001999999V0201401N00311007501CN0200001N9+02801+02441100831ADDAA106000891AA299001091AG10999AY161061AY221061GF107991051071008001001061MA1999999100521MD1999999+0071MW1021REMSYN017333   58007 69981
0115823970999991991050600004-03733-038550FM-12+001999999V0201801N00051105001CN9999999N9+02541+02451101101ADDAA106000091AG10999GF107991041031008001001061KA1240M+02971MA1999999100791MD1999999+0091REMSYN017333   10297 58009
0143823970999991991050612004-03733-038550FM-12+001999999V0201801N00311012001CN0200001N9+02821+02461101181ADDAA124001091AG10999AY151061AY221061GF107991051081008001001061KA1240N+02401MA1999999100871MD1999999+0051MW1031REMSYN023333   20240 58005 60014
0135823970999991991050618004-03733-038550FM-12+001999999V0200901N00411220001CN0200001N9+03021+02341100891ADDAA106000491AA299000591AG10999AY151061AY211061GF102991011011008001001051MA1999999100581MD1999999+0061MW1011REMSYN017333   58006 69941
0115823970999991991050700004-03733-038550FM-12+001999999V0201801N00051220001CN9999999N9+02561+02441101141ADDAA106000091AG10999GF100991001001999999001001KA1240M+03061MA1999999100831MD1999999+0041REMSYN017333   10306 58004
0143823970999991991050712004-03733-038550FM-12+001999999V0201401N00461220001CN0200001N9+02881+02351101211ADDAA124000391AG10999AY151061AY211061GF102991011011008001001011KA1240N+02421MA1999999100901MD1999999+0031MW1011REMSYN023333   20242 58003 69934
0096823970999991991050718004-03733-038550FM-12+001999999V0200901N00411220001CN0200001N9+03031+02311100811ADDAA106000091AG10999GF102991021011008001001001MA1999999100501MD1999999-0081REMSYN011333   59008
0115823970999991991050800004-03733-038550FM-12+001999999V0209991C00001220001CN9999999N9+02641+02481101101ADDAA106000091AG10999GF101991011011008001001001KA1240M+03131MA1999999100791MD1999999-0041REMSYN017333   10313 59004
0154823970999991991050812004-03733-038550FM-12+001999999V0201401N00311045001CN0200001N9+02791+02381101311ADDAA124000291AA299000391AG10999AY151061AY221061GF106991041081008001071001KA1240N+02461MA1999999101001MD1999999+0101MW1021REMSYN023333   20246 58010 69924
0096823970999991991050818004-03733-038550FM-12+001999999V0200901N00571045001CN0200001N9+02921+02241100901ADDAA106000091AG10999GF106991011081008001051051MA1999999100591MD1999999+0091REMSYN011333   58009
0115823970999991991050900004-03733-038550FM-12+001999999V0200901N00211220001CN9999999N9+02721+02321101101ADDAA106000091AG10999GF103991011011008001031001KA1240M+03131MA1999999100791MD1999999+0001REMSYN017333   10313 58000
0143823970999991991050912004-03733-038550FM-12+001999999V0200901N00361007501CN0200001N9+02901+02481101301ADDAA124002091AG10999AY161061AY221061GF106991051031008001001999KA1240N+02441MA1999999100991MD1999999-0011MW1021REMSYN023333   20244 59001 60024
0096823970999991991050918004-03733-038550FM-12+001999999V0200901N00361220001CN0200001N9+02961+02381101031ADDAA106000091AG10999GF102991011021008001001061MA1999999100721MD1999999+0131REMSYN011333   58013
0115823970999991991051000004-03733-038550FM-12+001999999V0201401N00101220001CN9999999N9+02481+02361101251ADDAA106000091AG10999GF100991001001999999001001KA1240M+03051MA1999999100941MD1999999+0151REMSYN017333   10305 58015
0115823970999991991051012004-03733-038550FM-12+001999999V0201401N00211012001CN0200001N9+02881+02461101371ADDAA106000091AG10999GF105991051081008001001001KA1240N+02341MA1999999101061MD1999999+0071REMSYN017333   20234 58007
0096823970999991991051018004-03733-038550FM-12+001999999V0200901N00311220001CN0200001N9+03021+02341101041ADDAA106000091AG10999GF102991021021008001001001MA1999999100731MD1999999+0011REMSYN011333   58001
0115823970999991991051100004-03733-038550FM-12+001999999V0201401N00101220001CN9999999N9+02541+02381101271ADDAA106000091AG10999GF101991011011008001001001KA1240M+03141MA1999999100961MD1999999+0021REMSYN017333   10314 58002
0115823970999991991051112004-03733-038550FM-12+001999999V0201401N00211012001CN0200001N9+02881+02371101301ADDAA106000091AG10999GF106991061081008001001001KA1240N+02341MA1999999100991MD1999999-0071REMSYN017333   20234 59007
0096823970999991991051118004-03733-038550FM-12+001999999V0200901N00311045001CN0200001N9+03021+02501100881ADDAA106000091AG10999GF106991031081008001061001MA1999999100571MD1999999-0161REMSYN011333   59016
0137823970999991991051200004-03733-038550FM-12+001999999V0200901N00051220001CN9999999N9+02721+02521101161ADDAA106000091AG10999AY111061AY211061GF103991011031008001031001KA1240M+03231MA1999999100851MD1999999-0111MW1131REMSYN017333   10323 59011
0096823970999991991051218004-03733-038550FM-12+001999999V0201401N00461220001CN0200001N9+03021+02361100941ADDAA106000091AG10999GF102991021021008001001001MA1999999100631MD1999999+0061REMSYN011333   58006
0115823970999991991051300004-03733-038550FM-12+001999999V0209991C00001220001CN9999999N9+02561+02401101201ADDAA106000091AG10999GF103991011011008001031001KA1240M+03081MA1999999100891MD1999999+0041REMSYN017333   10308 58004
0151823970999991991051312004-03733-038550FM-12+001999999V0201401N00411220001CN0200001N9+02841+02171101291ADDAA124000691AA299000591AG10999GF102991001001999999001021KA1240N+02341MA1999999100981MD1999999-0111REMSYN023333   20234 59011 69964EQDQ01+000952SCOLCB
0115823970999991991051400004-03733-038550FM-12+001999999V0201801N00151045001CN9999999N9+02581+02421101131ADDAA106000091AG10999GF106991031041008001031001KA1240M+03141MA1999999100821MD1999999-0071REMSYN017333   10314 59007
0115823970999991991051412004-03733-038550FM-12+001999999V0201401N00311045001CN0200001N9+02691+02391101261ADDAA106000091AG10999GF108991011011008001071999KA1240N+02421MA1999999100951MD1999999-0031REMSYN017333   20242 59003
0096823970999991991051418004-03733-038550FM-12+001999999V0200901N00211045001CN0200001N9+02821+02401100911ADDAA106000091AG10999GF108991031081008001071999MA1999999100601MD1999999+0031REMSYN011333   58003
0137823970999991991051500004-03733-038550FM-12+001999999V0209991C00001045001CN9999999N9+02601+02501101171ADDAA106000091AG10999AY121061AY221061GF106991031031008001071001KA1240M+02911MA1999999100861MD1999999+0041MW1131REMSYN017333   10291 58004
0143823970999991991051512004-03733-038550FM-12+001999999V0201401N00311045001CN0200001N9+02781+02401101281ADDAA124012091AG10999AY161061AY221061GF106991011011008001031001KA1240N+02321MA1999999100971MD1999999+0021MW1011REMSYN023333   20232 58002 60124
0096823970999991991051518004-03733-038550FM-12+001999999V0200901N00311105001CN0200001N9+02881+02321100971ADDAA106000091AG10999GF106991021021008001031061MA1999999100661MD1999999+0061REMSYN011333   58006
0115823970999991991051600004-03733-038550FM-12+001999999V0201401N00101105001CN9999999N9+02521+02341101121ADDAA106000091AG10999GF107991011011008001001061KA1240M+03021MA1999999100811MD1999999-0051REMSYN017333   10302 59005
0135823970999991991051612004-03733-038550FM-12+001999999V0201401N00051045001CN0040001N9+02561+02441101241ADDAA124002091AG10999AY121061GF107991031051008001071001KA1240N+02401MA1999999100931MD1999999-0041MW1511REMSYN023333   20240 59004 60024
0124823970999991991051618004-03733-038550FM-12+001999999V0200901N00311045001CN0200001N9+02941+02361100891ADDAA106001091AG10999AY161061AY221061GF106991021021008001051001MA1999999100581MD1999999+0081MW1021REMSYN017333   58008 60011
0115823970999991991051700004-03733-038550FM-12+001999999V0200901N00051007501CN9999999N9+02501+02441101121ADDAA106000091AG10999GF106991061051008001001001KA1240M+03051MA1999999100811MD1999999+0091REMSYN017333   10305 58009
0096823970999991991051718004-03733-038550FM-12+001999999V0200901N00461220001CN0200001N9+02921+02361101021ADDAA106000091AG10999GF103991021011008001001061MA1999999100711MD1999999+0131REMSYN011333   58013
0115823970999991991051800004-03733-038550FM-12+001999999V0201401N00101220001CN9999999N9+02521+02421101191ADDAA106000091AG10999GF103991031021008001001001KA1240M+03011MA1999999100881MD1999999-0021REMSYN017333   10301 59002
0115823970999991991051812004-03733-038550FM-12+001999999V0201401N00261012001CN0200001N9+02821+02501101271ADDAA106000091AG10999GF106991061081008001001001KA1240N+02371MA1999999100961MD1999999-0041REMSYN017333   20237 59004
0115823970999991991051900004-03733-038550FM-12+001999999V0201401N00051220001CN9999999N9+02501+02361101211ADDAA106000091AG10999GF100991001001999999001001KA1240M+03071MA1999999100901MD1999999+0021REMSYN017333   10307 58002
0096823970999991991051918004-03733-038550FM-12+001999999V0200901N00311220001CN0200001N9+02961+02421100891ADDAA106000091AG10999GF103991031021008001001061MA1999999100581MD1999999+0111REMSYN011333   58011
0143823970999991991052000004-03733-038550FM-12+001999999V0202301N00511004201CN9999999N9+02321+02241101171ADDAA106008091AG10999AY121061AY221061GF108991051091004501021999KA1240M+03031MA1999999100861MD1999999-0041MW1951REMSYN023333   10303 59004 60081
0143823970999991991052012004-03733-038550FM-12+001999999V0201401N00361220001CN0200001N9+02711+02281101211ADDAA124012091AG10999AY191061AY261061GF102991011011008001001051KA1240N+02251MA1999999100901MD1999999-0051MW1011REMSYN023333   20225 59005 60124
0096823970999991991052018004-03733-038550FM-12+001999999V0200901N00311045001CN0200001N9+02921+02291100951ADDAA106000091AG10999GF105991031081008001031051MA1999999100641MD1999999+0061REMSYN011333   58006
0137823970999991991052100004-03733-038550FM-12+001999999V0200901N00101220001CN9999999N9+02601+02391101171ADDAA106000091AG10999AY121061AY211061GF103991021031008001041001KA1240M+03051MA1999999100861MD1999999+0001MW1131REMSYN017333   10305 58000
0143823970999991991052112004-03733-038550FM-12+001999999V0201401N00211045001CN0200001N9+02741+02451101241ADDAA199001091AG10999AY161061AY201061GF106991041081008001071001KA1240N+02311MA1999999100931MD1999999+0031MW1021REMSYN023333   20231 58003 60010
0096823970999991991052118004-03733-038550FM-12+001999999V0200901N00311220001CN0200001N9+02941+02291100961ADDAA106000091AG10999GF103991011011008001001061MA1999999100651MD1999999+0011REMSYN011333   58001
0115823970999991991052200004-03733-038550FM-12+001999999V0200901N00051220001CN9999999N9+99999+99999101281ADDAA106000091AG10999GF104991041011008001001001KA1240M+03071MA1999999100971MD1999999+0111REMSYN017333   10307 58011
0115823970999991991052212004-03733-038550FM-12+001999999V0201401N00211220001CN0200001N9+02781+02461101371ADDAA106000091AG10999GF104991041021008001001001KA1240N+02331MA1999999101061MD1999999+0131REMSYN017333   20233 58013
0096823970999991991052218004-03733-038550FM-12+001999999V0200901N00311012001CN0200001N9+02851+02421101151ADDAA106000091AG10999GF107991051081008001071001MA1999999100841MD1999999+0191REMSYN011333   58019
0115823970999991991052300004-03733-038550FM-12+001999999V0202701N00051220001CN9999999N9+02441+02341101321ADDAA106000091AG10999GF103991031001022501031001KA1240M+03061MA1999999101011MD1999999+0041REMSYN017333   10306 58004
0115823970999991991052312004-03733-038550FM-12+001999999V0201401N00261012001CN0200001N9+02821+02421101351ADDAA106000091AG10999GF106991061081008001001001KA1240N+02271MA1999999101041MD1999999-0021REMSYN017333   20227 59002
0096823970999991991052318004-03733-038550FM-12+001999999V0200901N00361045001CN0200001N9+02911+02411101011ADDAA106000091AG10999GF105991041081008001031061MA1999999100701MD1999999-0141REMSYN011333   59014
0137823970999991991052400004-03733-038550FM-12+001999999V0201401N00051220001CN9999999N9+02561+02471101281ADDAA106000091AG10999AY121061AY211061GF104991041011008001001001KA1240M+03051MA1999999100971MD1999999-0041MW1131REMSYN017333   10305 59004
0143823970999991991052412004-03733-038550FM-12+001999999V0201401N00311045001CN0200001N9+02751+02351101201ADDAA124000391AG10999AY151061AY221061GF106991031021008001031061KA1240N+02421MA1999999100891MD1999999-0151MW1021REMSYN023333   20242 59015 69934
0124823970999991991052418004-03733-038550FM-12+001999999V0200501N00151045001CN0200001N9+02911+02431100831ADDAA106012091AG10999AY161061AY221061GF106991031081008001061061MA1999999100521MD1999999-0181MW1021REMSYN017333   59018 60121
0143823970999991991052500004-03733-038550FM-12+001999999V0209991C00001004201CN9999999N9+02381+02311101141ADDAA106008091AG10999AY191061AY261061GF108991051091004501071999KA1240M+03011MA1999999100831MD1999999-0141MW1291REMSYN023333   10301 59014 60081
0143823970999991991052512004-03733-038550FM-12+001999999V0201401N00361045001CN0200001N9+02721+02391101211ADDAA124027091AG10999AY161061AY221061GF106991031081008001031061KA1240N+02321MA1999999100901MD1999999+0011MW1021REMSYN023333   20232 58001 60274
0143823970999991991052600004-03733-038550FM-12+001999999V0200901N00051045001CN9999999N9+02421+02331101141ADDAA106002091AG10999AY161061AY221061GF107991041071008001071001KA1240M+02981MA1999999100831MD1999999+0001MW1291REMSYN023333   10298 58000 60021
0143823970999991991052612004-03733-038550FM-12+001999999V0201801N00361045001CN0200001N9+02661+02331101301ADDAA124015091AG10999AY161061AY221061GF107991031021008001031061KA1240N+02341MA1999999100991MD1999999+0091MW1021REMSYN023333   20234 58009 60154
0096823970999991991052618004-03733-038550FM-12+001999999V0201801N00311045001CN0200001N9+02981+02281100961ADDAA106000091AG10999GF106991041081008001061001MA1999999100651MD1999999+0131REMSYN011333   58013
0115823970999991991052700004-03733-038550FM-12+001999999V0209991C00001045001CN9999999N9+02601+02441101251ADDAA106000091AG10999GF107991011011008001071001KA1240M+03051MA1999999100941MD1999999+0111REMSYN017333   10305 58011
0143823970999991991052712004-03733-038550FM-12+001999999V0201401N00311045001CN0200001N9+02401+02151101491ADDAA124006091AG10999AY161061AY221061GF108991041051004501071999KA1240N+02351MA1999999101181MD1999999+0191MW1211REMSYN023333   20235 58019 60064
0096823970999991991052718004-03733-038550FM-12+001999999V0201801N00101045001CN0200001N9+02541+02211101111ADDAA106000091AG10999GF108991031051008001071999MA1999999100801MD1999999+0151REMSYN011333   58015
0115823970999991991052800004-03733-038550FM-12+001999999V0201401N00151045001CN9999999N9+02381+02221101241ADDAA106000091AG10999GF108991041071004501021999KA1240M+02561MA1999999100921MD1999999-0011REMSYN017333   10256 59001
0154823970999991991052812004-03733-038550FM-12+001999999V0201401N00361105001CN0200001N9+02641+02231101321ADDAA124000491AA299000591AG10999AY151061AY221061GF106991011011008001031061KA1240N+02251MA1999999101011MD1999999+0171MW1011REMSYN023333   20225 58017 69944
0096823970999991991052818004-03733-038550FM-12+001999999V0201801N00151045001CN0200001N9+02771+02251101051ADDAA106000091AG10999GF107991011081008001011061MA1999999100741MD1999999-0061REMSYN011333   59006
0115823970999991991052900004-03733-038550FM-12+001999999V0209991C00001021001CN9999999N9+02521+02361101141ADDAA106000091AG10999GF107991071001022501051001KA1240M+02971MA1999999100831MD1999999-0101REMSYN017333   10297 59010
0115823970999991991052912004-03733-038550FM-12+001999999V0201401N00361220001CN0200001N9+02741+02121101181ADDAA106000091AG10999GF104991021001008001041061KA1240N+02301MA1999999100871MD1999999-0141REMSYN017333   20230 59014
0096823970999991991052918004-03733-038550FM-12+001999999V0200901N00311045001CN0200001N9+02941+02261100851ADDAA106000091AG10999GF107991031081008001051061MA1999999100541MD1999999-0201REMSYN011333   59020
0143823970999991991053000004-03733-038550FM-12+001999999V0201801N00151045001CN9999999N9+02421+02371101141ADDAA106006091AG10999AY161061AY221061GF107991031051008001071001KA1240M+03131MA1999999100831MD1999999+0001MW1021REMSYN023333   10313 58000 60061
0143823970999991991053012004-03733-038550FM-12+001999999V0201401N00361105001CN0200001N9+02721+02321101111ADDAA124007091AG10999AY151061AY221061GF105991021081008001051021KA1240N+02321MA1999999100801MD1999999+0071MW1021REMSYN023333   20232 58007 60074
0096823970999991991053018004-03733-038550FM-12+001999999V0200901N00461045001CN0200001N9+02941+02491100871ADDAA106000091AG10999GF105991031021008001031001MA1999999100561MD1999999+0021REMSYN011333   58002
0115823970999991991053100004-03733-038550FM-12+001999999V0201401N00101021001CN9999999N9+02601+02441101071ADDAA106000091AG10999GF107991071001022501051001KA1240M+03131MA1999999100071MD1999999-0071REMSYN017333   10313 59007
0115823970999991991053112004-03733-038550FM-12+001999999V0201401N00311045001CN0200001N9+02681+02281101231ADDAA106000091AG10999GF107991011011008001071001KA1240N+02351MA1999999100921MD1999999+0121REMSYN017333   20235 58012
0096823970999991991053118004-03733-038550FM-12+001999999V0200901N00361045001CN0200001N9+02761+02321101011ADDAA106000091AG10999GF107991031081008001071001MA1999999100701MD1999999+0141REMSYN011333   58014
0115823970999991991060100004-03733-038550FM-12+001999999V0201801N00151045001CN9999999N9+02441+02301101211ADDAA106000091AG10999GF107991021041008001051001KA1240M+02971MA1999999100901MD1999999+0141REMSYN017333   10297 58014
0115823970999991991060112004-03733-038550FM-12+001999999V0201801N00411007501CN0200001N9+02761+02321101171ADDAA106000091AG10999GF105991051021008001001001KA1240N+02321MA1999999100861MD1999999-0061REMSYN017333   20232 59006
0096823970999991991060118004-03733-038550FM-12+001999999V0200901N00511045001CN0200001N9+02921+02121100921ADDAA106000091AG10999GF106991021051008001071091MA1999999100611MD1999999-0091REMSYN011333   59009
0115823970999991991060200004-03733-038550FM-12+001999999V0200901N00101220001CN9999999N9+02601+02401101151ADDAA106000091AG10999GF103991031011008001001001KA1240M+03031MA1999999100841MD1999999-0061REMSYN017333   10303 59006
0130823970999991991060212004-03733-038550FM-12+001999999V0201401N00511220001CN0200001N9+02691+02261101201ADDAA124002091AG10999AY161061AY221061GF104991031021008001031001MA1999999100891MD1999999+0031MW1011REMSYN023333   2023/ 58003 60024
0096823970999991991060218004-03733-038550FM-12+001999999V0200901N00311220001CN0200001N9+02961+02421100911ADDAA106000091AG10999GF103991031021008001001001MA1999999100601MD1999999-0011REMSYN011333   59001
0115823970999991991060300004-03733-038550FM-12+001999999V0201801N00051045001CN9999999N9+02541+02351101191ADDAA106000091AG10999GF106991021011008001031001KA1240M+03081MA1999999100881MD1999999+0041REMSYN017333   10308 58004
0115823970999991991060312004-03733-038550FM-12+001999999V0201801N00461007501CN0200001N9+02801+02271101251ADDAA106000091AG10999GF105991051021008001001001KA1240N+02401MA1999999100941MD1999999+0051REMSYN017333   20240 58005
0096823970999991991060318004-03733-038550FM-12+001999999V0200901N00311045001CN0200001N9+02941+02381100981ADDAA106000091AG10999GF106991021081008001051001MA1999999100671MD1999999+0071REMSYN011333   58007
0115823970999991991060400004-03733-038550FM-12+001999999V0201401N00151220001CN9999999N9+02581+02331101241ADDAA106000091AG10999GF102991021001999999051001KA1240M+03041MA1999999100931MD1999999+0051REMSYN017333   10304 58005
0115823970999991991060412004-03733-038550FM-12+001999999V0201801N00411045001CN0200001N9+02721+02151101301ADDAA106000091AG10999GF106991011011008001051001KA1240N+02401MA1999999100991MD1999999+0051REMSYN017333   20240 58005
0096823970999991991060418004-03733-038550FM-12+001999999V0201801N00311007501CN0200001N9+02921+02221101031ADDAA106000091AG10999GF107991051051008001071001MA1999999100721MD1999999+0051REMSYN011333   58005
0115823970999991991060500004-03733-038550FM-12+001999999V0200901N00261045001CN9999999N9+02561+02361101261ADDAA106000091AG10999GF108991011011008001071999KA1240M+03031MA1999999100951MD1999999+0021REMSYN017333   10303 58002
0096823970999991991060518004-03733-038550FM-12+001999999V0200901N00411220001CN0200001N9+02921+02291100951ADDAA106000091AG10999GF102991011021008001031001MA1999999100641MD1999999-0081REMSYN011333   59008
0115823970999991991060600004-03733-038550FM-12+001999999V0200901N00151220001CN9999999N9+02621+02411101231ADDAA106000091AG10999GF101991011021008001001001KA1240M+03041MA1999999100921MD1999999+0031REMSYN017333   10304 58003
0143823970999991991060612004-03733-038550FM-12+001999999V0201401N00311012001CN0200001N9+02741+02381101321ADDAA124002091AG10999AY161061AY221061GF106991061081008001001001KA1240N+02381MA1999999101011MD1999999+0081MW1021REMSYN023333   20238 58008 60024
0096823970999991991060618004-03733-038550FM-12+001999999V0200901N00461220001CN0200001N9+02941+02361101021ADDAA106000091AG10999GF103991021021008001051001MA1999999100711MD1999999+0071REMSYN011333   58007
0154823970999991991060700004-03733-038550FM-12+001999999V0201401N00151045001CN9999999N9+02521+02451101301ADDAA106000891AA299001091AG10999AY121061AY211061GF107991031051008001071001KA1240M+03031MA1999999100991MD1999999-0071MW1211REMSYN023333   10303 59007 69981
0143823970999991991060712004-03733-038550FM-12+001999999V0201401N00411012001CN0200001N9+02741+02471101411ADDAA124041091AG10999AY161061AY221061GF107991071081008001001001KA1240N+02341MA1999999101101MD1999999+0091MW1021REMSYN023333   20234 58009 60414
0096823970999991991060718004-03733-038550FM-12+001999999V0200901N00511220001CN0200001N9+02881+02411101161ADDAA106000091AG10999GF102991021021008001001001MA1999999100851MD1999999+0141REMSYN011333   58014
0115823970999991991060800004-03733-038550FM-12+001999999V0201801N00051007501CN9999999N9+02481+02381101361ADDAA106000091AG10999GF105991051021008001001001KA1240M+02981MA1999999101051MD1999999+0061REMSYN017333   10298 58006
0115823970999991991060812004-03733-038550FM-12+001999999V0201401N00411220001CN0200001N9+02651+02221101351ADDAA106000091AG10999GF103991031081008001001001KA1240N+02291MA1999999101041MD1999999-0061REMSYN017333   20229 59006
0096823970999991991060818004-03733-038550FM-12+001999999V0200901N00511045001CN0200001N9+02841+02221101161ADDAA106000091AG10999GF107991021041008001051061MA1999999100851MD1999999+0001REMSYN011333   58000
