0115825860999991991010100004-05200-039300FM-12+021199999V0200501N00671220001CN9999999N9+02971+01871100881ADDAA106000091AG10999GF102991001001999999001011KA1240M+03561MA1999999098541MD1999999+0081REMSYN017333   10356 58008
0115825860999991991010112004-05200-039300FM-12+021199999V0200901N00511007501CN0200001N9+02881+02211101021ADDAA106000091AG10999GF106991061041008001001001KA1240N+02411MA1999999098681MD1999999-0131REMSYN017333   20241 59013
0134825860999991991010212004-05200-039300FM-12+021199999V0201401N00311220001CN0200001N9+02961+01961100971ADDAA106000091AG10999GF102991001001999999001011KA1240N+02391MA1999999098631MD1999999-0051REMSYN017333   20239 59005EQDQ01+000952SCOLCB
0096825860999991991010218004-05200-039300FM-12+021199999V0200901N00311007501CN0200001N9+03521+01971100601ADDAA106000091AG10999GF108991051021008001071999MA1999999098271MD1999999+0031REMSYN011333   58003
0115825860999991991010300004-05200-039300FM-12+021199999V0200501N00511021001CN9999999N9+02951+02051101061ADDAA106000091AG10999GF107991071001022501031001KA1240M+03601MA1999999098471MD1999999+0021REMSYN017333   10360 58002
0115825860999991991010312004-05200-039300FM-12+021199999V0200901N00511045001CN0200001N9+02991+02011101131ADDAA106000091AG10999GF107991031021008001061021KA1240N+02511MA1999999098781MD1999999+0151REMSYN017333   20251 58015
0096825860999991991010318004-05200-039300FM-12+021199999V0201401N00361105001CN0200001N9+03531+01961100651ADDAA106000091AG10999GF106991041021008001001021MA1999999098321MD1999999+0051REMSYN011333   58005
0115825860999991991010400004-05200-039300FM-12+021199999V0200501N00571220001CN9999999N9+02831+02201101001ADDAA106000091AG10999GF102991001001999999001011KA1240M+03601MA1999999098651MD1999999+0181REMSYN017333   10360 58018
0143825860999991991010412004-05200-039300FM-12+021199999V0200901N00511045001CN0200001N9+02741+02211101221ADDAA124001091AG10999AY161061AY211061GF107991041041008001061021KA1240N+02341MA1999999098861MD1999999+0081MW1031REMSYN023333   20234 58008 60014
0096825860999991991010418004-05200-039300FM-12+021199999V0200501N00361220001CN0200001N9+03471+01821100691ADDAA106000091AG10999GF104991041021008001001001MA1999999098351MD1999999+0031REMSYN011333   58003
0115825860999991991010512004-05200-039300FM-12+021199999V0200901N00511007501CN0200001N9+02821+02151101221ADDAA106000091AG10999GF105991051041008001001001KA1240N+02411MA1999999098861MD1999999+0001REMSYN017333   20241 58000
0096825860999991991010518004-05200-039300FM-12+021199999V0200501N00461220001CN0200001N9+03441+01921100781ADDAA106000091AG10999GF105991031011008001001011MA1999999098441MD1999999+0091REMSYN011333   58009
0115825860999991991010700004-05200-039300FM-12+021199999V0200501N00511220001CN9999999N9+02791+02271100981ADDAA106000091AG10999GF100991001001999999001001KA1240M+03521MA1999999098631MD1999999+0011REMSYN017333   10352 58001
0096825860999991991010718004-05200-039300FM-12+021199999V0201401N00361045001CN0200001N9+03481+02001100571ADDAA106000091AG10999GF107991041021008001031021MA1999999098241MD1999999-0121REMSYN011333   59012
0115825860999991991010812004-05200-039300FM-12+021199999V0200901N00511007501CN0200001N9+02661+02091101421ADDAA106000091AG10999GF108991061051008001021999KA1240N+02431MA1999999099051MD1999999+0291REMSYN017333   20243 58029
0096825860999991991010818004-05200-039300FM-12+021199999V0200901N00051045001CN0200001N9+03161+01961100941ADDAA106000091AG10999GF108991041021008001021999MA1999999098581MD1999999+0341REMSYN011333   58034
0115825860999991991010900004-05200-039300FM-12+021199999V0200501N00311105001CN9999999N9+02781+02161101161ADDAA106000091AG10999GF106991031021008001001021KA1240M+03211MA1999999098791MD1999999+0141REMSYN017333   10321 58014
0115825860999991991010912004-05200-039300FM-12+021199999V0200901N00311007501CN0200001N9+02631+02141101301ADDAA106000091AG10999GF108991081051008001999999KA1240N+02451MA1999999098981MD1999999-0071REMSYN017333   20245 59007
0100825860999991991010918004-05200-039300FM-12+021199999V0200901N00261045001CN0200001N9+03411+01931100871ADDAA106000091AG10999GF107991041031008001051021MD1999999-0051REMSYN011333   59005EQDQ01+085303APOSP 
0115825860999991991011000004-05200-039300FM-12+021199999V0200501N00621220001CN9999999N9+02831+02001101031ADDAA106000091AG10999GF103991001001999999001021KA1240M+03451MA1999999098671MD1999999-0121REMSYN017333   10345 59012
0115825860999991991011012004-05200-039300FM-12+021199999V0200501N00571220001CN0200001N9+02991+01981101211ADDAA106000091AG10999GF103991021011008001041001KA1240N+02521MA1999999098861MD1999999-0121REMSYN017333   20252 59012
0096825860999991991011018004-05200-039300FM-12+021199999V0200901N00411220001CN0200001N9+03551+01801100731ADDAA106000091AG10999GF103991031011008001001001MA1999999098391MD1999999-0141REMSYN011333   59014
0115825860999991991011112004-05200-039300FM-12+021199999V0201401N00671007501CN0200001N9+02771+02231101171ADDAA106000091AG10999GF107991071041008001001001KA1240N+02371MA1999999098811MD1999999-0051REMSYN017333   20237 59005
0096825860999991991011118004-05200-039300FM-12+021199999V0200501N00671007501CN0200001N9+03201+02091100671ADDAA106000091AG10999GF107991051031008001001021MA1999999098331MD1999999-0061REMSYN011333   59006
0115825860999991991011312004-05200-039300FM-12+021199999V0201401N00211105001CN0200001N9+02841+02091101121ADDAA106000091AG10999GF108991041081008001001061KA1240N+02391MA1999999098761MD1999999+0051REMSYN017333   20239 58005
0115825860999991991011500004-05200-039300FM-12+021199999V0200501N00461220001CN9999999N9+02761+02231100921ADDAA106000091AG10999GF100991001001999999001001KA1240M+03551MA1999999098531MD1999999+0081REMSYN017333   10355 58008
0115825860999991991011512004-05200-039300FM-12+021199999V0200901N00461007501CN0200001N9+02781+02181101111ADDAA106000091AG10999GF108991051041008001001061KA1240N+02471MA1999999098751MD1999999-0081REMSYN017333   20247 59008
0115825860999991991011600004-05200-039300FM-12+021199999V0200501N00511105001CN9999999N9+02931+02171101061ADDAA106000091AG10999GF106991021011008001001051KA1240M+03511MA1999999098701MD1999999+0141REMSYN017333   10351 58014
0115825860999991991011612004-05200-039300FM-12+021199999V0209999999999007501CN0200001N9+02851+02221101231ADDAA106000091AG10999GF108991061041008001001051KA1240N+02471MA1999999098881MD1999999+0131REMSYN017333   20247 58013
0096825860999991991011618004-05200-039300FM-12+021199999V0209999999999045001CN0200001N9+03441+01801100751ADDAA106000091AG10999GF108991041021008001051001MA1999999098411MD1999999+0171REMSYN011333   58017
0135825860999991991012318004-05200-039300FM-12+021199999V0209999999999045001CN0200001N9+03221+02081101031ADDAA106000291AA299000391AG10999AY151061AY211061GF107991041021008001051021MA1999999098671MD1999999+0071MW1031REMSYN017333   58007 69921
0143825860999991991012400004-05200-039300FM-12+021199999V0209999999999007501CN9999999N9+02561+02471101361ADDAA106002091AG10999AY191061AY261061GF108991081091008001999999KA1240M+03271MA1999999098981MD1999999+0071MW1131REMSYN023333   10327 58007 60021
0143825860999991991012412004-05200-039300FM-12+021199999V0209999999999007501CN0200001N9+02551+02471101481ADDAA124003091AG10999AY161061AY221061GF108991061051008001051999KA1240N+02311MA1999999099091MD1999999+0021MW1021REMSYN023333   20231 58002 60034
0096825860999991991012418004-05200-039300FM-12+021199999V0209999999999045001CN0200001N9+02981+02251101021ADDAA106000091AG10999GF107991041021008001051021MA1999999098651MD1999999-0021REMSYN011333   59002
0137825860999991991012500004-05200-039300FM-12+021199999V0209999999999045001CN9999999N9+02761+02441101101ADDAA106000091AG10999AY121061AY211061GF106991041031008001031021KA1240M+03131MA1999999098731MD1999999-0051MW1131REMSYN017333   10313 59005
0154825860999991991012512004-05200-039300FM-12+021199999V0209999999999007501CN0200001N9+02621+02271101321ADDAA124000891AA299001091AG10999AY161061AY221061GF108991081071008001999999KA1240N+02281MA1999999098951MD1999999-0141MW1021REMSYN023333   20228 59014 69984
0096825860999991991012518004-05200-039300FM-12+021199999V0209999999999105001CN0200001N9+03261+02151100831ADDAA106000091AG10999GF108991041021008001001061MA1999999098481MD1999999-0171REMSYN011333   59017
0129825860999991991012600004-05200-039300FM-12+021199999V0209999999999045001CN9999999N9+02801+02111101171ADDAA106000091AG10999AY121061GF108991041031008001031061KA1240M+03321MA1999999098811MD1999999+0081MW1131REMSYN017333   10332 58008
0115825860999991991012612004-05200-039300FM-12+021199999V0209999999999007501CN0200001N9+02701+02221101281ADDAA106000091AG10999GF107991071041008001001001KA1240N+02401MA1999999098911MD1999999-0041REMSYN017333   20240 59004
0096825860999991991012618004-05200-039300FM-12+021199999V0209999999999105001CN0200001N9+03361+02041100831ADDAA106000091AG10999GF106991041021008001001021MA1999999098491MD1999999+0011REMSYN011333   58001
0115825860999991991012700004-05200-039300FM-12+021199999V0209999999999220001CN9999999N9+02861+02141101061ADDAA106000091AG10999GF102991001001999999001011KA1240M+03401MA1999999098701MD1999999-0111REMSYN017333   10340 59011
0115825860999991991012712004-05200-039300FM-12+021199999V0209999999999220001CN0200001N9+02801+02201101301ADDAA106000091AG10999GF104991041041008001001001KA1240N+02391MA1999999098941MD1999999+0031REMSYN017333   20239 58003
0115825860999991991012800004-05200-039300FM-12+021199999V0209999999999220001CN9999999N9+02841+02001101161ADDAA106000091AG10999GF100991001001999999001001KA1240M+03441MA1999999098801MD1999999+0101REMSYN017333   10344 58010
0115825860999991991012812004-05200-039300FM-12+021199999V0209999999999007501CN0200001N9+02791+02041101221ADDAA106000091AG10999GF106991061041008001001001KA1240N+02481MA1999999098921MD1999999-0021REMSYN017333   20248 59002
0096825860999991991012818004-05200-039300FM-12+021199999V0209999999999007501CN0200001N9+03421+02061100841ADDAA106000091AG10999GF106991061021008001001001MA1999999098501MD1999999-0111REMSYN011333   59011
0115825860999991991012900004-05200-039300FM-12+021199999V0209999999999220001CN9999999N9+02821+02291101081ADDAA106000091AG10999GF100991001001999999001001KA1240M+03441MA1999999098721MD1999999-0081REMSYN017333   10344 59008
0115825860999991991012912004-05200-039300FM-12+021199999V0209999999999045001CN0200001N9+02851+02091101221ADDAA106000091AG10999GF108991031011008001021999KA1240N+02331MA1999999098861MD1999999-0061REMSYN017333   20233 59006
0096825860999991991013018004-05200-039300FM-12+021199999V0209999999999045001CN0200001N9+03301+02091100761ADDAA106000091AG10999GF108991041021008001021999MA1999999098421MD1999999+0011REMSYN011333   58001
0115825860999991991013112004-05200-039300FM-12+021199999V0209999999999007501CN0200001N9+02711+01991101281ADDAA106000091AG10999GF108991051041008001051021KA1240N+02471MA1999999098911MD1999999-0051REMSYN017333   20247 59005
0096825860999991991013118004-05200-039300FM-12+021199999V0209999999999045001CN0200001N9+03221+02011100741ADDAA106000091AG10999GF108991041031008001051021MA1999999098401MD1999999-0021REMSYN011333   59002
0115825860999991991020112004-05200-039300FM-12+021199999V0209999999999007501CN0200001N9+02521+02361101181ADDAA106000091AG10999GF108991051071008001071999KA1240N+02301MA1999999098801MD1999999-0111REMSYN017333   20230 59011
0096825860999991991020118004-05200-039300FM-12+021199999V0209999999999045001CN0200001N9+03101+02181100731ADDAA106000091AG10999GF108991041051008001071999MA1999999098371MD1999999-0031REMSYN011333   59003
0143825860999991991020200004-05200-039300FM-12+021199999V0209999999999007501CN9999999N9+02511+02211101021ADDAA106000391AG10999AY161061AY221061GF108991081031008001999999KA1240M+03141MA1999999098631MD1999999-0041MW1131REMSYN023333   10314 59004 69931
0154825860999991991020212004-05200-039300FM-12+021199999V0209999999999045001CN0200001N9+02641+02181101361ADDAA124000991AA299001091AG10999AY161061AY221061GF108991011011008001071999KA1240N+02411MA1999999098971MD1999999+0171MW1021REMSYN023333   20241 58017 69994
0096825860999991991020218004-05200-039300FM-12+021199999V0209999999999045001CN0200001N9+02801+02131101051ADDAA106000091AG10999GF108991021011008001071999MA1999999098681MD1999999+0311REMSYN011333   58031
0115825860999991991020300004-05200-039300FM-12+021199999V0209999999999045001CN9999999N9+02651+02181101171ADDAA106000091AG10999GF108991041021008001071999KA1240M+02921MA1999999098751MD1999999+0161REMSYN017333   10292 58016
0115825860999991991020312004-05200-039300FM-12+021199999V0209999999999045001CN0200001N9+02531+02341101261ADDAA106000091AG10999GF108991041071008001071999KA1240N+02331MA1999999098881MD1999999-0091REMSYN017333   20233 59009
0115825860999991991020412004-05200-039300FM-12+021199999V0209999999999045001CN0200001N9+02491+02191101321ADDAA106000091AG10999GF108991041051008001071999KA1240N+02281MA1999999098941MD1999999+0061REMSYN017333   20228 58006
0096825860999991991020418004-05200-039300FM-12+021199999V0209999999999045001CN0200001N9+03071+02141100941ADDAA106000091AG10999GF107991041021008001051021MA1999999098581MD1999999+0071REMSYN011333   58007
0115825860999991991020512004-05200-039300FM-12+021199999V0201401N00311045001CN0200001N9+02601+02191101301ADDAA106000091AG10999GF108991041021008001051001KA1240N+02171MA1999999098911MD1999999-0031REMSYN017333   20217 59003
0131825860999991991020518004-05200-039300FM-12+021199999V0200901N00621105001CN0040001N9+03111+02231100851ADDAA106000091AG10999GF107991001001999999001061MA1999999098501MD1999999-0131REMSYN011333   59013EQDQ01+100133APOSP Q02+999990APOSP 
0137825860999991991020600004-05200-039300FM-12+021199999V0200901N00361007501CN9999999N9+02861+02231101081ADDAA106000091AG10999AY121061AY221061GF108991081031008001999999KA1240M+03351MA1999999098721MD1999999-0171MW1131REMSYN017333   10335 59017
0143825860999991991020612004-05200-039300FM-12+021199999V0200901N00411045001CN0200001N9+02701+02131101391ADDAA124006091AG10999AY161061AY221061GF106991041041008001051001KA1240N+02311MA1999999099001MD1999999+0091MW1031REMSYN023333   20231 58009 60064
0118825860999991991020618004-05200-039300FM-12+021199999V0201801N00411007501CN0040001N9+03051+02261100951ADDAA106000091AG10999AY121061AY211061GF106991051091008001051001MA1999999098591MD1999999+0121MW1171REMSYN011333   58012
0154825860999991991020700004-05200-039300FM-12+021199999V0203601N00151007501CN9999999N9+02511+02211101241ADDAA106000991AA299001091AG10999AY191061AY261061GF108991051031008001051021KA1240M+03141MA1999999098861MD1999999+0141MW1071REMSYN023333   10314 58014 69991
0132825860999991991020712004-05200-039300FM-12+021199999V0201401N00311007501CN0200001N9+02731+02241101451ADDAA124000991AA299001091AG10999GF107991061041008001051021KA1240N+02271MA1999999099071MD1999999+0011REMSYN023333   20227 58001 69994
0096825860999991991020718004-05200-039300FM-12+021199999V0200501N00261220001CN0200001N9+03151+02181100931ADDAA106000091AG10999GF104991041021008001051021MA1999999098571MD1999999-0021REMSYN011333   59002
0115825860999991991020800004-05200-039300FM-12+021199999V0200501N00511220001CN9999999N9+02781+99999101051ADDAA106000091AG10999GF100991001001999999001001KA1240M+03301MA1999999098691MD1999999-0171REMSYN017333   10330 59017
0115825860999991991020812004-05200-039300FM-12+021199999V0200901N00361007501CN0200001N9+02801+02251101321ADDAA106000091AG10999GF105991051021008001001001KA1240N+02331MA1999999098951MD1999999-0121REMSYN017333   20233 59012
0115825860999991991020900004-05200-039300FM-12+021199999V0200501N00671220001CN9999999N9+02831+02021101151ADDAA106000091AG10999GF104991041041008001001001KA1240M+03341MA1999999098791MD1999999+0101REMSYN017333   10334 58010
0115825860999991991020912004-05200-039300FM-12+021199999V0201401N00411105001CN0200001N9+02821+02101101231ADDAA106000091AG10999GF108991031011008001001051KA1240N+02311MA1999999098871MD1999999-0081REMSYN017333   20231 59008
0115825860999991991021012004-05200-039300FM-12+021199999V0200901N00511007501CN0200001N9+02791+02161101171ADDAA106000091AG10999GF106991061021008001001001KA1240N+02331MA1999999098811MD1999999-0061REMSYN017333   20233 59006
0115825860999991991021212004-05200-039300FM-12+021199999V0200501N00361007501CN0200001N9+02801+02251101331ADDAA106000091AG10999GF108991081051008001999999KA1240N+02391MA1999999098861MD1999999+0071REMSYN017333   20239 58007
0096825860999991991021218004-05200-039300FM-12+021199999V0200901N00101105001CN0200001N9+03351+02091100771ADDAA106000091AG10999GF108991041021008001001061MA1999999098431MD1999999+0021REMSYN011333   58002
0115825860999991991021300004-05200-039300FM-12+021199999V0200501N00511220001CN9999999N9+02751+02281100931ADDAA106000091AG10999GF100991001001999999001001KA1240M+03501MA1999999098571MD1999999-0171REMSYN017333   10350 59017
0115825860999991991021312004-05200-039300FM-12+021199999V0201401N00461012001CN0200001N9+02731+02261101161ADDAA106000091AG10999GF108991081051012501999999KA1240N+02431MA1999999098801MD1999999-0161REMSYN017333   20243 59016
0096825860999991991021318004-05200-039300FM-12+021199999V0200501N00311220001CN0200001N9+03431+01981100671ADDAA106000091AG10999GF106991041021008001001061MA1999999098331MD1999999-0101REMSYN011333   59010
0143825860999991991021500004-05200-039300FM-12+021199999V0203601N00051007501CN9999999N9+02901+02301101111ADDAA106000391AG10999AY151061AY211061GF106991061041008001001001KA1240M+03581MA1999999098751MD1999999+0131MW1031REMSYN023333   10358 58013 69931
0143825860999991991021512004-05200-039300FM-12+021199999V0202701N00101007501CN0200001N9+02721+02391101351ADDAA124003091AG10999AY161061AY221061GF108991061031008001001061KA1240N+02431MA1999999098981MD1999999+0171MW1031REMSYN023333   20243 58017 60034
0096825860999991991021518004-05200-039300FM-12+021199999V0200501N00151007501CN0200001N9+03201+02271100881ADDAA106000091AG10999GF108991061031008001001061MA1999999098531MD1999999+0101REMSYN011333   58010
0137825860999991991021600004-05200-039300FM-12+021199999V0203601N00411220001CN0200001N9+02751+02381101171ADDAA106000091AG10999AY121061AY221061GF106991041031008001001061KA1240M+03241MA1999999098811MD1999999+0061MW1131REMSYN017333   10324 58006
0137825860999991991021612004-05200-039300FM-12+021199999V0200901N00571007501CN0200001N9+02551+02381101381ADDAA106000091AG10999AY121061AY221061GF108991081071008001999999KA1240N+02411MA1999999099001MD1999999+0021MW1161REMSYN017333   20241 58002
0124825860999991991021618004-05200-039300FM-12+021199999V0201401N00261045001CN0200001N9+02541+02251101091ADDAA106003091AG10999AY161061AY261061GF108991021011008001071999MA1999999098701MD1999999+0171MW1021REMSYN017333   58017 60031
0115825860999991991021700004-05200-039300FM-12+021199999V0203601N00261045001CN9999999N9+02501+02381101161ADDAA106000091AG10999GF106991031031008001071001KA1240M+02761MA1999999098781MD1999999-0031REMSYN017333   10276 59003
0121825860999991991021712004-05200-039300FM-12+021199999V0201401N00461007501CN0200001N9+02761+02231101171ADDAA124003091AG10999GF107991071021008001001001KA1240N+02291MA1999999098791MD1999999-0211REMSYN023333   20229 59021 60034
0137825860999991991021800004-05200-039300FM-12+021199999V0200501N00361220001CN9999999N9+02661+02331100911ADDAA106000091AG10999AY121061AY221061GF104991041031008001001001KA1240M+03371MA1999999098551MD1999999-0231MW1131REMSYN017333   10337 59023
0154825860999991991021812004-05200-039300FM-12+021199999V0200901N00461007501CN0200001N9+02771+02341101131ADDAA124000991AA299001091AG10999AY161061AY221061GF107991071041008001001001KA1240N+02391MA1999999098761MD1999999-0031MW1031REMSYN023333   20239 59003 69994
0118825860999991991021818004-05200-039300FM-12+021199999V0200901N00311007501CN0040001N9+03141+02181100731ADDAA106000091AG10999AY121061AY221061GF107991051091008001061001MA1999999098381MD1999999+0031MW1161REMSYN011333   58003
0132825860999991991021912004-05200-039300FM-12+021199999V0200901N00511045001CN0200001N9+02771+02341101161ADDAA124000291AA299000391AG10999GF108991041051008001051051KA1240N+02391MA1999999098801MD1999999+0041REMSYN023333   20239 58004 69924
0096825860999991991021918004-05200-039300FM-12+021199999V0201401N00151007501CN0200001N9+03221+02081100821ADDAA106000091AG10999GF107991051031008001061001MA1999999098471MD1999999+0091REMSYN011333   58009
0121825860999991991022012004-05200-039300FM-12+021199999V0201401N00461007501CN0200001N9+02751+02261101281ADDAA124002091AG10999GF107991071041008001001001KA1240N+02371MA1999999098901MD1999999+0101REMSYN023333   20237 58010 60024
0096825860999991991022018004-05200-039300FM-12+021199999V0200901N00411220001CN0200001N9+03331+01971100861ADDAA106000091AG10999GF104991041021008001001001MA1999999098511MD1999999+0041REMSYN011333   58004
0115825860999991991022100004-05200-039300FM-12+021199999V0200501N00671220001CN9999999N9+02751+02281101071ADDAA106000091AG10999GF100991001001999999001001KA1240M+03411MA1999999098711MD1999999-0061REMSYN017333   10341 59006
0102825860999991991022112004-05200-039300FM-12+021199999V0200901N00461220001CN0200001N9+02771+02021101161ADDAA106000091AG10999GF103991021011008001001041MA1999999098801MD1999999-0101REMSYN017333   023// 59010
0115825860999991991022118004-05200-039300FM-12+021199999V0200901N00411220001CN0200001N9+03391+01911100791ADDAA106000091AG10999GF104991999999008001999999MA1999999098451MD1999999-0061REMSYN011333   59006EQDQ01+000222PRSWM1
0096825860999991991022218004-05200-039300FM-12+021199999V0200901N00361105001CN0200001N9+03471+01861100861ADDAA106000091AG10999GF105991031021008001001021MA1999999098521MD1999999+0071REMSYN011333   58007
0115825860999991991022300004-05200-039300FM-12+021199999V0200501N00511220001CN9999999N9+03001+02241101071ADDAA106000091AG10999GF101991001001999999001011KA1240M+03521MA1999999098731MD1999999+0021REMSYN017333   10352 58002
0115825860999991991022312004-05200-039300FM-12+021199999V0200901N00311007501CN0200001N9+02831+02331101441ADDAA106000091AG10999GF108991061051008001051999KA1240N+02491MA1999999099081MD1999999+0091REMSYN017333   20249 58009
0096825860999991991022318004-05200-039300FM-12+021199999V0200901N00411045001CN0200001N9+03461+02161100971ADDAA106000091AG10999GF106991041021008001061001MA1999999098631MD1999999+0111REMSYN011333   58011
0115825860999991991022400004-05200-039300FM-12+021199999V0200501N00311105001CN9999999N9+02871+02311101341ADDAA106000091AG10999GF105991001001999999001021KA1240M+03501MA1999999098981MD1999999+0231REMSYN017333   10350 58023
0121825860999991991022412004-05200-039300FM-12+021199999V0200901N00671220001CN0200001N9+02841+02221101451ADDAA106091091AG10999GF104991041051008001001001KA1240N+02391MA1999999099091MD1999999+0091REMSYN023333   20239 58009 60911
0096825860999991991022518004-05200-039300FM-12+021199999V0200501N00871045001CN0200001N9+02991+02301100941ADDAA106000091AG10999GF107991041021008001051021MA1999999098581MD1999999-0101REMSYN011333   59010
0096825860999991991022618004-05200-039300FM-12+021199999V0201401N00461007501CN0200001N9+03281+02071100891ADDAA106000091AG10999GF106991061021008001001001MA1999999098511MD1999999-0071REMSYN011333   59007
0154825860999991991022700004-05200-039300FM-12+021199999V0200901N00151220001CN9999999N9+02671+02331101111ADDAA106000291AA299000391AG10999AY151061AY221061GF102991011041008001051001KA1240M+03351MA1999999098741MD1999999-0161MW1011REMSYN023333   10335 59016 69921
0132825860999991991022712004-05200-039300FM-12+021199999V0201401N00311007501CN0200001N9+02901+02151101261ADDAA124000291AA299000391AG10999GF108991051021008001001061KA1240N+02331MA1999999098901MD1999999+0101REMSYN023333   20233 58010 69924
0115825860999991991022800004-05200-039300FM-12+021199999V0200501N00571220001CN9999999N9+02881+02321101041ADDAA106000091AG10999GF103991001001999999001061KA1240M+03471MA1999999098691MD1999999-0051REMSYN017333   10347 59005
0115825860999991991022812004-05200-039300FM-12+021199999V0201401N00461007501CN0200001N9+02811+02151101221ADDAA106000091AG10999GF107991071021008001001001KA1240N+02471MA1999999098861MD1999999-0041REMSYN017333   20247 59004
0096825860999991991022818004-05200-039300FM-12+021199999V0201401N00511105001CN0200001N9+03401+01961100801ADDAA106000091AG10999GF107991041021008001001021MA1999999098461MD1999999+0001REMSYN011333   58000
0115825860999991991030100004-05200-039300FM-12+021199999V0200501N00211220001CN9999999N9+02911+01931101031ADDAA106000091AG10999GF102991001001999999001021KA1240M+03481MA1999999098671MD1999999-0021REMSYN017333   10348 59002
0115825860999991991030112004-05200-039300FM-12+021199999V0201401N00411105001CN0200001N9+02881+02131101401ADDAA106000091AG10999GF107991041041008001001061KA1240N+02431MA1999999099041MD1999999+0181REMSYN017333   20243 58018
0096825860999991991030118004-05200-039300FM-12+021199999V0200901N00151007501CN0200001N9+03381+01951100741ADDAA106000091AG10999GF108991051021008001061021MA1999999098401MD1999999-0061REMSYN011333   59006
0115825860999991991030200004-05200-039300FM-12+021199999V0200501N00461105001CN9999999N9+02761+02301100981ADDAA106000091AG10999GF108991001001999999001061KA1240M+03441MA1999999098621MD1999999-0051REMSYN017333   10344 59005
0115825860999991991030212004-05200-039300FM-12+021199999V0200901N00411045001CN0200001N9+02911+02041101161ADDAA106000091AG10999GF107991031011008001051051KA1240N+02491MA1999999098801MD1999999-0241REMSYN017333   20249 59024
0096825860999991991030218004-05200-039300FM-12+021199999V0201401N00311045001CN0200001N9+03391+01951100721ADDAA106000091AG10999GF108991041021008001051021MA1999999098381MD1999999-0021REMSYN011333   59002
0115825860999991991030300004-05200-039300FM-12+021199999V0200501N007219999999N9999999N9+02701+02331101161ADDAA106000091AG10999GF105991031001012501051061KA1240M+03421MA1999999098801MD1999999+0181REMSYN017333   10342 58018
0143825860999991991030312004-05200-039300FM-12+021199999V0200901N00361012001CN0200001N9+02791+02211101151ADDAA124000391AG10999AY151061AY221061GF107991051081008001001061KA1240N+02371MA1999999098791MD1999999-0011MW1031REMSYN023333   20237 59001 69934
0137825860999991991030400004-05200-039300FM-12+021199999V0200501N00621105001CN9999999N9+02661+02271101041ADDAA106000091AG10999AY121061AY221061GF107991041091008001001071KA1240M+03441MA1999999098681MD1999999-0121MW1131REMSYN017333   10344 59012
0115825860999991991030412004-05200-039300FM-12+021199999V0201401N00511105001CN0200001N9+02831+02071101281ADDAA106000091AG10999GF108991041011008001001061KA1240N+02501MA1999999098911MD1999999+0121REMSYN017333   20250 58012
0096825860999991991030418004-05200-039300FM-12+021199999V0201401N00361045001CN0200001N9+03161+02021100951ADDAA106000091AG10999GF108991031021008001051051MA1999999098591MD1999999+0231REMSYN011333   58023
0137825860999991991030500004-05200-039300FM-12+021199999V0200501N00671105001CN9999999N9+02791+02091101241ADDAA106000091AG10999AY121061AY221061GF108991041031008001001061KA1240M+03261MA1999999098881MD1999999+0201MW1131REMSYN017333   10326 58020
0143825860999991991030512004-05200-039300FM-12+021199999V0201401N00261105001CN0200001N9+02641+02371101311ADDAA124002091AG10999AY161061AY221061GF108991041041008001001061KA1240N+02331MA1999999098941MD1999999+0031MW1031REMSYN023333   20233 58003 60024
0096825860999991991030518004-05200-039300FM-12+021199999V0200501N00511045001CN0200001N9+03191+02251100851ADDAA106000091AG10999GF108991041031008001071021MA1999999098501MD1999999-0091REMSYN011333   59009
0115825860999991991030700004-05200-039300FM-12+021199999V0200501N00771220001CN9999999N9+02821+02291100951ADDAA106000091AG10999GF100991001001999999001001KA1240M+03471MA1999999098591MD1999999-0191REMSYN017333   10347 59019
0115825860999991991030712004-05200-039300FM-12+021199999V0201401N00311220001CN0200001N9+02861+02061101061ADDAA106000091AG10999GF104991021021008001001051KA1240N+02431MA1999999098701MD1999999-0111REMSYN017333   20243 59011
0115825860999991991030800004-05200-039300FM-12+021199999V0200501N00621220001CN9999999N9+02791+02251100801ADDAA106000091AG10999GF100991001001999999001001KA1240M+03481MA1999999098451MD1999999-0141REMSYN017333   10348 59014
0115825860999991991030812004-05200-039300FM-12+021199999V0201401N00571220001CN0200001N9+02961+01991101091ADDAA106000091AG10999GF106991021011008001001041KA1240N+02451MA1999999098731MD1999999+0031REMSYN017333   20245 58003
0162825860999991991030900004-05200-039300FM-12+021199999V0201401N00311007501CN9999999N9+02461+02321101211ADDAA106004091AG10999AY121061AY221061GF108991081091008001999999KA1240M+99999MA1999999098841MD1999999+0391MW1971REMSYN023333   10239 58039 60041EQDQ01 +02392ATMX  
0143825860999991991030912004-05200-039300FM-12+021199999V0201401N00211007501CN0200001N9+02561+02461101241ADDAA124014091AG10999AY191061AY261061GF108991081071008001999999KA1240N+02181MA1999999098851MD1999999+0121MW1031REMSYN023333   20218 58012 60144
0124825860999991991030918004-05200-039300FM-12+021199999V0209991C00001007501CN0200001N9+02451+02341101011ADDAA106022091AG19005AY191061AY261061GF108991051091008001071999MA1999999098611MD1999999+0401MW1021REMSYN017333   58040 60221
0143825860999991991031000004-05200-039300FM-12+021199999V0201401N00051007501CN9999999N9+02311+02251101281ADDAA106007091AG10999AY191061AY261061GF108991081091008001999999KA1240M+02851MA1999999098881MD1999999+0041MW1021REMSYN023333   10285 58004 60071
0121825860999991991031012004-05200-039300FM-12+021199999V0201401N00311045001CN0200001N9+02591+02231101031ADDAA124029091AG10999GF108991041041008001051021KA1240N+02211MA1999999098901MD1999999+0051REMSYN023333   20221 58005 60294
0096825860999991991031018004-05200-039300FM-12+021199999V0200501N00311045001CN0200001N9+02881+02131101041ADDAA106000091AG10999GF108991021011008001051051MA1999999098661MD1999999+0051REMSYN011333   58005
0115825860999991991031100004-05200-039300FM-12+021199999V0200501N00101105001CN9999999N9+02601+02291101081ADDAA106000091AG10999GF108991021011008001001051KA1240M+02911MA1999999098711MD1999999-0171REMSYN017333   10291 59017
0115825860999991991031112004-05200-039300FM-12+021199999V0201401N00361220001CN0200001N9+02811+02221101171ADDAA106000091AG10999GF104991041011008001001001KA1240N+02351MA1999999098801MD1999999-0101REMSYN017333   20235 59010
0134825860999991991031200004-05200-039300FM-12+021199999V0200501N00511105001CN9999999N9+02761+02281100921ADDAA106000091AG10999GF105991021041008001001021KA1240M+03341MA1999999098561MD1999999-0151REMSYN017333   10334 59015EQDQ01+999990APOSP 
0115825860999991991031212004-05200-039300FM-12+021199999V0201401N00211007501CN0200001N9+02761+02211101101ADDAA106000091AG10999GF107991071041008001001001KA1240N+02441MA1999999098741MD1999999-0061REMSYN017333   20244 59006
0096825860999991991031218004-05200-039300FM-12+021199999V0200901N00411105001CN0200001N9+03331+02141100691ADDAA106000091AG10999GF106991041031008001001021MA1999999098351MD1999999-0031REMSYN011333   59003
0137825860999991991031400004-05200-039300FM-12+021199999V0200501N00151045001CN9999999N9+02711+02411100911ADDAA106000091AG10999AY121061AY221061GF108991041031008001051061KA1240M+03221MA1999999098551MD1999999-0071MW1131REMSYN017333   10322 59007
0143825860999991991031412004-05200-039300FM-12+021199999V0201401N00151007501CN0200001N9+02451+02421101071ADDAA124006091AG10999AY161061AY251061GF108991061061008001051999KA1240N+02291MA1999999098701MD1999999-0041MW1021REMSYN023333   20229 59004 60064
0118825860999991991031418004-05200-039300FM-12+021199999V0200901N00361007501CN0020001N9+02931+02471100801ADDAA106000091AG10999AY121061AY221061GF108991061091008001091999MA1999999098441MD1999999+0181MW1171REMSYN011333   58018
0137825860999991991031500004-05200-039300FM-12+021199999V0209991C00001007501CN0200001N9+02521+02421101091ADDAA106000091AG10999AY191061AY221061GF108991051061008001001061KA1240M+03131MA1999999098701MD1999999+0151MW1021REMSYN017333   10313 58015
0115825860999991991031512004-05200-039300FM-12+021199999V0201801N00151007501CN0200001N9+02621+02351101291ADDAA106000091AG10999GF108991061061008001051061KA1240N+02371MA1999999098911MD1999999+0211REMSYN017333   20237 58021
0096825860999991991031518004-05200-039300FM-12+021199999V0201401N00151045001CN0200001N9+02711+02351100841ADDAA106000091AG10999GF108991041031008001071999MA1999999098461MD1999999+0021REMSYN011333   58002
0115825860999991991031612004-05200-039300FM-12+021199999V0201801N00151007501CN0200001N9+02581+02351101121ADDAA106000091AG10999GF107991051041008001051001KA1240N+02331MA1999999098741MD1999999-0171REMSYN017333   20233 59017
0096825860999991991031618004-05200-039300FM-12+021199999V0200501N00211045001CN0200001N9+02971+02351100771ADDAA106000091AG10999GF108991041031008001051061MA1999999098411MD1999999-0051REMSYN011333   59005
0115825860999991991031700004-05200-039300FM-12+021199999V0200501N00261105001CN9999999N9+02551+02331100981ADDAA106000091AG10999GF108991041041008001001061KA1240M+03031MA1999999098601MD1999999-0171REMSYN017333   10303 59017
0115825860999991991031712004-05200-039300FM-12+021199999V0200901N00101007501CN0200001N9+02701+02261101141ADDAA106000091AG10999GF108991061041008001001021KA1240N+02351MA1999999098761MD1999999+0021REMSYN017333   20235 58002
0124825860999991991031718004-05200-039300FM-12+021199999V0201801N00151045001CN0200001N9+02491+02361100881ADDAA106000591AG10999AY151061AY221061GF108991041041008001051061MA1999999098491MD1999999+0081MW1031REMSYN017333   58008 69951
0143825860999991991031800004-05200-039300FM-12+021199999V0202301N00151007501CN9999999N9+02431+02401101101ADDAA106001091AG10999AY161061AY221061GF108991081061008001999999KA1240M+02841MA1999999098721MD1999999+0121MW1031REMSYN023333   10284 58012 60011
0143825860999991991031812004-05200-039300FM-12+021199999V0201801N00261007501CN0200001N9+02501+02411101361ADDAA124015091AG10999AY161061AY221061GF108991061061008001051021KA1240N+02231MA1999999098961MD1999999+0201MW1031REMSYN023333   20223 58020 60154
0124825860999991991031818004-05200-039300FM-12+021199999V0200901N00411045001CN0200001N9+03031+02211100841ADDAA106004091AG10999AY161061AY221061GF108991041031008001051021MA1999999098481MD1999999-0011MW1031REMSYN017333   59001 60041
0115825860999991991031900004-05200-039300FM-12+021199999V0203201N00151105001CN9999999N9+02631+02371101091ADDAA106000091AG10999GF105991031041008001001021KA1240M+03081MA1999999098711MD1999999-0011REMSYN017333   10308 59001
0121825860999991991031912004-05200-039300FM-12+021199999V0200501N00311045001CN0200001N9+02771+02141101321ADDAA199004091AG10999GF105991031011008001051021KA1240N+02351MA1999999098951MD1999999-0011REMSYN023333   20235 59001 6004/
0096825860999991991031918004-05200-039300FM-12+021199999V0200901N00311105001CN0200001N9+03201+01991100881ADDAA106000091AG10999GF105991031031008001001021MA1999999098531MD1999999+0051REMSYN011333   58005
0096825860999991991032018004-05200-039300FM-12+021199999V0200901N00311220001CN0200001N9+03181+02131100931ADDAA106000091AG10999GF103991031021008001001001MA1999999098571MD1999999+0041REMSYN011333   58004
0115825860999991991032100004-05200-039300FM-12+021199999V0202301N00151045001CN9999999N9+02691+02261101021ADDAA106000091AG10999GF105991021041008001051001KA1240M+03221MA1999999098661MD1999999-0221REMSYN017333   10322 59022
0115825860999991991032112004-05200-039300FM-12+021199999V0200901N00411007501CN0200001N9+02701+02261101171ADDAA106000091AG10999GF106991061021008001001001KA1240N+02271MA1999999098801MD1999999-0271REMSYN017333   20227 59027
0096825860999991991032118004-05200-039300FM-12+021199999V0200901N00311220001CN0200001N9+03261+02081100791ADDAA106000091AG10999GF105991031021008001001011MA1999999098451MD1999999-0121REMSYN011333   59012
0115825860999991991032200004-05200-039300FM-12+021199999V0200501N00411220001CN9999999N9+02731+02281100941ADDAA106000091AG10999GF103991031001022501051001KA1240M+03301MA1999999098581MD1999999-0081REMSYN017333   10330 59008
0115825860999991991032212004-05200-039300FM-12+021199999V0203201N00101004201CN0200001N9+02691+02351101141ADDAA106000091AG10999GF106991061021004501001001KA1240N+02331MA1999999098771MD1999999-0031REMSYN017333   20233 59003
0124825860999991991032218004-05200-039300FM-12+021199999V0200501N00151012001CN0040001N9+02971+02131100661ADDAA106000591AG10999AY151061AY221061GF108991051031012501061999MA1999999098301MD1999999-0151MW1151REMSYN017333   59015 69951
0115825860999991991032300004-05200-039300FM-12+021199999V0203601N00261220001CN9999999N9+02631+02371100851ADDAA106000091AG10999GF103991031001022501051001KA1240M+03101MA1999999098401MD1999999-0091REMSYN017333   10310 59009
0121825860999991991032312004-05200-039300FM-12+021199999V0201401N00051007501CN0200001N9+02791+02321100961ADDAA124000591AG10999GF106991061021008001001001KA1240N+02341MA1999999098601MD1999999-0171REMSYN023333   20234 59017 69954
0096825860999991991032318004-05200-039300FM-12+021199999V0200901N00571007501CN0200001N9+03281+02031100461ADDAA106000091AG10999GF105991051031008001001001MA1999999098131MD1999999-0171REMSYN011333   59017
0115825860999991991032400004-05200-039300FM-12+021199999V0200501N00511007501CN9999999N9+02571+02441100691ADDAA106000091AG10999GF108991081071008001999999KA1240M+03291MA1999999098331MD1999999-0161REMSYN017333   10329 59016
0115825860999991991032412004-05200-039300FM-12+021199999V0201401N00211220001CN0200001N9+02761+02191101101ADDAA106000091AG10999GF106991041021008001001011KA1240N+02351MA1999999098731MD1999999+0131REMSYN017333   20235 58013
0143825860999991991032512004-05200-039300FM-12+021199999V0201401N00311007501CN0200001N9+02541+02451101281ADDAA124005091AG10999AY191061AY261061GF108991081071008001999999KA1240N+02231MA1999999098901MD1999999+0171MW1021REMSYN023333   20223 58017 60054
0096825860999991991032518004-05200-039300FM-12+021199999V0200901N00151105001CN0200001N9+02931+02221100871ADDAA106000091AG10999GF108991031021008001001061MA1999999098511MD1999999+0211REMSYN011333   58021
0115825860999991991032600004-05200-039300FM-12+021199999V0200501N00311007501CN9999999N9+02651+02331101161ADDAA106000091AG10999GF108991061071008001001061KA1240M+03011MA1999999098781MD1999999+0111REMSYN017333   10301 58011
0115825860999991991032612004-05200-039300FM-12+021199999V0201801N00311045001CN0200001N9+02721+02281101231ADDAA106000091AG10999GF106991031011008001051051KA1240N+02291MA1999999098861MD1999999-0041REMSYN017333   20229 59004
0118825860999991991032618004-05200-039300FM-12+021199999V0201801N00361045001CN0040001N9+03041+02281100771ADDAA106000091AG10999AY121061AY221061GF108991041031008001051021MA1999999098411MD1999999-0101MW1151REMSYN011333   59010
0115825860999991991032700004-05200-039300FM-12+021199999V0200501N00151045001CN9999999N9+02591+02311101021ADDAA106000091AG10999GF106991041041008001061001KA1240M+03121MA1999999098651MD1999999-0131REMSYN017333   10312 59013
0101825860999991991032712004-05200-039300FM-12+021199999V0200901N00261007501CN0200001N9+02501+02291101171ADDAA106000091AG10999GF108991061071008001051999KA1240N+02291MA1999999098791REMSYN017333   20229 49007
0118825860999991991032718004-05200-039300FM-12+021199999V0200501N00101007501CN0040001N9+02911+02201100611ADDAA106000091AG10999AY121061AY221061GF108991051031008001051021MA1999999098251MD1999999-0161MW1151REMSYN011333   59016
0115825860999991991032800004-05200-039300FM-12+021199999V0200901N00101021001CN9999999N9+02501+02321101011ADDAA106000091AG10999GF108991081001022501071999KA1240M+03041MA1999999098621MD1999999-0031REMSYN017333   10304 59003
0115825860999991991032812004-05200-039300FM-12+021199999V0200901N00051007501CN0200001N9+02571+02191101091ADDAA106000091AG10999GF108991051041008001051999KA1240N+02291MA1999999098711MD1999999-0081REMSYN017333   20229 59008
0118825860999991991032818004-05200-039300FM-12+021199999V0201401N00511045001CN0040001N9+02911+02321100531ADDAA106000091AG10999AY121061AY221061GF106991041031008001051001MA1999999098171MD1999999-0081MW1151REMSYN011333   59008
0143825860999991991032900004-05200-039300FM-12+021199999V0203601N00101007501CN9999999N9+02451+02351101041ADDAA106006091AG10999AY161061AY221061GF108991081071008001999999KA1240M+03221MA1999999098651MD1999999+0031MW1511REMSYN023333   10322 58003 60061
0143825860999991991032912004-05200-039300FM-12+021199999V0203201N00051004201CN0020001N9+02221+02171101331ADDAA124064091AG10999AY161061AY261061GF108991061071004501021999KA1240N+02081MA1999999098931MD1999999+0221MW1631REMSYN023333   20208 58022 60644
0124825860999991991032918004-05200-039300FM-12+021199999V0202301N00051007501CN0200001N9+02701+02221100991ADDAA106016091AG10999AY161061AY261061GF108991061071008001021999MA1999999098591MD1999999+0421MW1021REMSYN017333   58042 60161
0096825860999991991033018004-05200-039300FM-12+021199999V0201401N00151045001CN0200001N9+02801+02251100981ADDAA106000091AG10999GF108991041031008001021999MA1999999098591MD1999999+0001REMSYN011333   58000
0137825860999991991033100004-05200-039300FM-12+021199999V0203601N00151007501CN9999999N9+02591+02411101201ADDAA106000091AG10999AY121061AY221061GF108991061031008001051999KA1240M+02831MA1999999098801MD1999999-0061MW1131REMSYN017333   10283 59006
0143825860999991991033112004-05200-039300FM-12+021199999V0201401N00051045001CN0200001N9+02361+02311101431ADDAA124098091AG10999AY161061AY221061GF108991041041008001011999KA1240N+02231MA1999999098941MD1999999-0071MW1021REMSYN023333   20223 59007 60984
0118825860999991991033118004-05200-039300FM-12+021199999V0200501N00051105001CN0040001N9+02841+02461100831ADDAA106000091AG10999AY121061AY221061GF108991041031008001001021MA1999999098461MD1999999-0131MW1151REMSYN011333   59013
0137825860999991991040100004-05200-039300FM-12+021199999V0200901N00151007501CN9999999N9+02501+02481101261ADDAA106000091AG10999AY121061AY221061GF108991061031008001051999KA1240M+03021MA1999999098861MD1999999+0061MW1131REMSYN017333   10302 58006
0115825860999991991040112004-05200-039300FM-12+021199999V0200901N00361007501CN0200001N9+02711+02301101281ADDAA106000091AG10999GF107991071041008001001001KA1240N+02311MA1999999098901MD1999999-0041REMSYN017333   20231 59004
0096825860999991991040118004-05200-039300FM-12+021199999V0201401N00311105001CN0200001N9+03121+02191100821ADDAA106000091AG10999GF105991041031008001001021MA1999999098461MD1999999+0001REMSYN011333   58000
0115825860999991991040200004-05200-039300FM-12+021199999V0209991C00001045001CN9999999N9+02631+02391101031ADDAA106000091AG10999GF106991021011008001051021KA1240M+03151MA1999999098661MD1999999-0201REMSYN017333   10315 59020
0115825860999991991040212004-05200-039300FM-12+021199999V0201801N00151007501CN0200001N9+02721+02391101271ADDAA106000091AG10999GF108991081071008001999999KA1240N+02331MA1999999098891MD1999999-0011REMSYN017333   20233 59001
0096825860999991991040218004-05200-039300FM-12+021199999V0200901N00361105001CN0200001N9+03171+02201100881ADDAA106000091AG10999GF106991041031008001001021MA1999999098531MD1999999+0071REMSYN011333   58007
0137825860999991991040300004-05200-039300FM-12+021199999V0200501N00211045001CN9999999N9+02501+02341101231ADDAA106000091AG10999AY121061AY221061GF107991031031008001041031KA1240M+03241MA1999999098851MD1999999+0191MW1131REMSYN017333   10324 58019
0115825860999991991040312004-05200-039300FM-12+021199999V0202701N00151007501CN0200001N9+02721+02391101461ADDAA106000091AG10999GF108991081041008001999999KA1240N+02321MA1999999099081MD1999999+0191REMSYN017333   20232 58019
0096825860999991991040318004-05200-039300FM-12+021199999V0200901N00151105001CN0200001N9+03111+02201101071ADDAA106000091AG10999GF106991041021008001001021MA1999999098711MD1999999+0181REMSYN011333   58018
0115825860999991991040400004-05200-039300FM-12+021199999V0200901N00051220001CN9999999N9+02571+02351101371ADDAA106000091AG10999GF100991001001999999001001KA1240M+03181MA1999999098991MD1999999+0141REMSYN017333   10318 58014
0115825860999991991040412004-05200-039300FM-12+021199999V0201401N00411007501CN0200001N9+02601+02391101331ADDAA106000091AG10999GF108991061051008001061999KA1240N+02231MA1999999098951MD1999999-0131REMSYN017333   20223 59013
0143825860999991991040512004-05200-039300FM-12+021199999V0200901N00311007501CN0200001N9+02651+02311101521ADDAA124002091AG10999AY151061AY221061GF107991051041008001051001KA1240N+02171MA1999999099141MD1999999+0191MW1031REMSYN023333   20217 58019 60024
0096825860999991991040518004-05200-039300FM-12+021199999V0200901N00361105001CN0200001N9+03091+02131101061ADDAA106000091AG10999GF107991041021008001001021MA1999999098691MD1999999+0001REMSYN011333   58000
0115825860999991991040600004-05200-039300FM-12+021199999V0200501N00261220001CN9999999N9+02651+02271101191ADDAA106000091AG10999GF100991001001999999001001KA1240M+03131MA1999999098831MD1999999-0091REMSYN017333   10313 59009
0154825860999991991040612004-05200-039300FM-12+021199999V0200901N00361220001CN0200001N9+02781+02181101371ADDAA124000491AA299000591AG10999AY161061AY211061GF103991021011008001001021KA1240N+02261MA1999999099001MD1999999-0141MW1011REMSYN023333   20226 59014 69944
0096825860999991991040618004-05200-039300FM-12+021199999V0200901N00151220001CN0200001N9+03171+02121100941ADDAA106000091AG10999GF102991021011008001001001MA1999999098581MD1999999-0111REMSYN011333   59011
0115825860999991991040712004-05200-039300FM-12+021199999V0200901N00261007501CN0200001N9+02751+02301101171ADDAA106000091AG10999GF106991061041008001001001KA1240N+02311MA1999999098901MD1999999-0101REMSYN017333   20231 59010
0115825860999991991040812004-05200-039300FM-12+021199999V0200901N00571007501CN0200001N9+02771+02341101241ADDAA106000091AG10999GF107991061041008001051001KA1240N+02331MA1999999098871MD1999999-0031REMSYN017333   20233 59003
0096825860999991991040818004-05200-039300FM-12+021199999V0201401N00461105001CN0200001N9+03171+02171100841ADDAA106000091AG10999GF106991041031008001001021MA1999999098491MD1999999+0001REMSYN011333   58000
0137825860999991991040900004-05200-039300FM-12+021199999V0200501N00311220001CN9999999N9+02711+02301101131ADDAA106000091AG10999AY121061AY221061GF104991041031008001001001KA1240M+03251MA1999999098771MD1999999+0001MW1131REMSYN017333   10325 58000
0115825860999991991040912004-05200-039300FM-12+021199999V0200901N00511007501CN0018001N9+02821+02361101251ADDAA106000091AG10999GF107991071051008001001001KA1240N+02371MA1999999098881MD1999999+0011REMSYN017333   20237 58001
0096825860999991991040918004-05200-039300FM-12+021199999V0200901N00361105001CN0200001N9+03211+02121100781ADDAA106000091AG10999GF106991031021008001001021MA1999999098431MD1999999-0061REMSYN011333   59006
0096825860999991991041018004-05200-039300FM-12+021199999V0200901N00311220001CN0200001N9+03181+02041100801ADDAA106000091AG10999GF104991021011008001001011MA1999999098141MD1999999+0021REMSYN011333   58002
0115825860999991991041100004-05200-039300FM-12+021199999V0200901N00051220001CN9999999N9+02651+02291100991ADDAA106000091AG10999GF100991001001999999001001KA1240M+03221MA1999999098631MD1999999-0181REMSYN017333   10322 59018
0115825860999991991041112004-05200-039300FM-12+021199999V0201401N00311007501CN0200001N9+02761+02231101171ADDAA106000091AG10999GF107991071041008001001001KA1240N+02271MA1999999098801MD1999999-0011REMSYN017333   20227 59001
0115825860999991991041200004-05200-039300FM-12+021199999V0203601N00261220001CN9999999N9+02591+02081101101ADDAA106000091AG10999GF100991001001999999001001KA1240M+03221MA1999999098741MD1999999+0111REMSYN017333   10322 58011
0096825860999991991041218004-05200-039300FM-12+021199999V0200901N00311007501CN0200001N9+03231+02051100771ADDAA106000091AG10999GF107991051021008001001021MA1999999098411MD1999999+0021REMSYN011333   58002
0115825860999991991041300004-05200-039300FM-12+021199999V0203601N00151220001CN9999999N9+02671+02221101081ADDAA106000091AG10999GF100991001001999999001001KA1240M+03261MA1999999098721MD1999999-0021REMSYN017333   10326 59002
0115825860999991991041312004-05200-039300FM-12+021199999V0200901N00361007501CN0200001N9+02611+02291101241ADDAA106000091AG10999GF107991061041008001051001KA1240N+02231MA1999999098861MD1999999+0021REMSYN017333   20223 58002
0096825860999991991041318004-05200-039300FM-12+021199999V0201401N00261105001CN0200001N9+03221+02081100661ADDAA106000091AG10999GF105991041031008001001021MA1999999098301MD1999999-0111REMSYN011333   59011
0143825860999991991041412004-05200-039300FM-12+021199999V0200501N00311045001CN0200001N9+02631+02121101191ADDAA124004091AG10999AY161061AY221061GF106991041041008001061011KA1240N+02261MA1999999098811MD1999999-0051MW1031REMSYN023333   20226 59005 60044
0096825860999991991041418004-05200-039300FM-12+021199999V0200901N00211105001CN0200001N9+03071+01901100711ADDAA106000091AG10999GF108991031011008001001051MA1999999098351MD1999999+0051REMSYN011333   58005
0115825860999991991041500004-05200-039300FM-12+021199999V0203201N00151220001CN9999999N9+02611+02171101001ADDAA106000091AG10999GF100991001001999999001001KA1240M+03191MA1999999098631MD1999999+0091REMSYN017333   10319 58009
0115825860999991991041600004-05200-039300FM-12+021199999V0200301N00211220001CN9999999N9+02771+02141101071ADDAA106000091AG10999GF100991001001999999001001KA1240M+03321MA1999999098711MD1999999+0081REMSYN017333   10332 58008
0115825860999991991041612004-05200-039300FM-12+021199999V0200901N00361007501CN0200001N9+02681+02201101421ADDAA106000091AG10999GF108991051071008001061021KA1240N+02371MA1999999099051MD1999999+0241REMSYN017333   20237 58024
0107825860999991991041618004-05200-039300FM-12+021199999V0200901N00361007501CN0040001N9+03041+02181100821ADDAG10999AY121061AY221061GF108991051031008001061061MA1999999098461MD1999999+0051MW1151REMSYN011333   58005
0115825860999991991041700004-05200-039300FM-12+021199999V0200901N00361220001CN9999999N9+02671+02201101071ADDAA106000091AG10999GF103991001001999999001061KA1240M+03111MA1999999098701MD1999999-0011REMSYN017333   10311 59001
0115825860999991991041712004-05200-039300FM-12+021199999V0201401N00261007501CN0200001N9+02791+02111101051ADDAA106000091AG10999GF107991061021008001051001KA1240N+02231MA1999999098691MD1999999-0361REMSYN017333   20223 59036
0096825860999991991041718004-05200-039300FM-12+021199999V0201401N00261045001CN0200001N9+03131+02021100611ADDAA106000091AG10999GF107991041031008001061021MA1999999098251MD1999999-0211REMSYN011333   59021
0115825860999991991041800004-05200-039300FM-12+021199999V0200501N00311220001CN9999999N9+02671+02181100861ADDAA106000091AG10999GF104991031041008001061001KA1240M+03271MA1999999098501MD1999999-0201REMSYN017333   10327 59020
0115825860999991991041812004-05200-039300FM-12+021199999V0201401N00261007501CN0200001N9+02811+02201100951ADDAA106000091AG10999GF107991071041008001001001KA1240N+02281MA1999999098501MD1999999-0101REMSYN017333   20228 59010
0118825860999991991041818004-05200-039300FM-12+021199999V0201401N00511007501CN0040001N9+03041+02201100631ADDAA106000091AG10999AY121061AY221061GF108991051031008001061021MA1999999098271MD1999999+0021MW1151REMSYN011333   58002
0143825860999991991041900004-05200-039300FM-12+021199999V0201801N00051105001CN9999999N9+02511+02411101301ADDAA106001091AG10999AY191061AY261061GF108991041041008001001061KA1240M+03241MA1999999098661MD1999999+0161MW1021REMSYN023333   10324 58016 60011
0131825860999991991041912004-05200-039300FM-12+021199999V0200901N00461007501CN0200001N9+02641+02441101341ADDAG10999AY191061AY261061GF107991071041008001001001KA1240N+02441MA1999999098961MD1999999+0371MW1031REMSYN022333   20244 58037 6024
0118825860999991991041918004-05200-039300FM-12+021199999V0200901N00361045001CN0040001N9+03131+02251100841ADDAA106000091AG10999AY121061AY221061GF107991041031008001061021MA1999999098481MD1999999+0211MW1151REMSYN011333   58021
0143825860999991991042000004-05200-039300FM-12+021199999V0200501N00411007501CN9999999N9+02621+02421101201ADDAA106001091AG10999AY161061AY221061GF106991061041008001001001KA1240M+03171MA1999999098811MD1999999+0151MW1131REMSYN023333   10317 58015 60011
0121825860999991991042012004-05200-039300FM-12+021199999V0201401N00311007501CN0200001N9+02661+02291101401ADDAA124001091AG10999GF108991061041008001001061KA1240N+02331MA1999999099021MD1999999+0061REMSYN023333   20233 58006 60014
0096825860999991991042018004-05200-039300FM-12+021199999V0200901N00361105001CN0200001N9+03131+02221100931ADDAA106000091AG10999GF106991041031008001001021MA1999999098571MD1999999+0091REMSYN011333   58009
0143825860999991991042100004-05200-039300FM-12+021199999V0200501N00311007501CN9999999N9+02421+02371101411ADDAA106009091AG10999AY161061AY261061GF108991081031008001999999KA1240M+03201MA1999999099021MD1999999+0211MW1131REMSYN023333   10320 58021 60091
0121825860999991991042112004-05200-039300FM-12+021199999V0201401N00361007501CN0200001N9+02691+02331101431ADDAA124009091AG10999GF106991061041008001001001KA1240N+02311MA1999999099031MD1999999+0001REMSYN023333   20231 58000 60094
0118825860999991991042118004-05200-039300FM-12+021199999V0201401N00461007501CN0200001N9+03061+02051100991ADDAA106000091AG10999AY121061AY221061GF106991061031008001001001MA1999999098631MD1999999+0061MW1151REMSYN011333   58006
0115825860999991991042200004-05200-039300FM-12+021199999V0200501N00151007501CN9999999N9+02641+02481101211ADDAA106000091AG10999GF108991051041008001001061KA1240M+03161MA1999999098831MD1999999-0191REMSYN017333   10316 59019
0143825860999991991042212004-05200-039300FM-12+021199999V0209991C00001045001CN0200001N9+02431+02321101471ADDAA124028091AG10999AY191061AY261061GF107991041021008001051001KA1240N+02151MA1999999099071MD1999999+0051MW1031REMSYN023333   20215 58005 60284
0134825860999991991042300004-05200-039300FM-12+021199999V0203601N00101220001CN9999999N9+02621+02391101121ADDAA106000091AG10999GF102991021001022501051001KA1240M+03031MA1999999999999MD1999999-0091REMSYN017333   10303 59009EQDQ01 088743APOSP 
0115825860999991991042312004-05200-039300FM-12+021199999V0201401N00311045001CN0200001N9+02741+02261999999ADDAA106000091AG10999GF106991031011008001051001KA1240N+02351MA1999999098901MD1999999-0171REMSYN017333   20235 59017
0115825860999991991042400004-05200-039300FM-12+021199999V0209991C00001105001CN9999999N9+02661+02441101271ADDAA106000091AG10999GF105991031041008001001021KA1240M+03071MA1999999098891MD1999999+0151REMSYN017333   10307 58015
0115825860999991991042412004-05200-039300FM-12+021199999V0201401N00461007501CN0200001N9+02701+02391100921ADDAA106000091AG10999GF108991061071008001051999KA1240N+02351MA1999999098561MD1999999-0341REMSYN017333   20235 59034
0137825860999991991042500004-05200-039300FM-12+021199999V0203601N00261105001CN9999999N9+02681+02451101161ADDAA106000091AG10999AY121061AY221061GF105991031031008001001021KA1240M+03131MA1999999098791MD1999999-0101MW1131REMSYN017333   10313 59010
0154825860999991991042512004-05200-039300FM-12+021199999V0201401N00151007501CN0200001N9+02601+02391100901ADDAA124000891AA299001091AG10999AY161061AY221061GF108991081051008001999999KA1240N+02321MA1999999098541MD1999999-0021MW1021REMSYN023333   20232 59002 69984
0096825860999991991042518004-05200-039300FM-12+021199999V0200901N00461105001CN0200001N9+03141+02211100811ADDAA106000091AG10999GF108991041031008001001021MA1999999098451MD1999999-0091REMSYN011333   59009
0137825860999991991042600004-05200-039300FM-12+021199999V0200501N00101045001CN9999999N9+02651+02441101081ADDAA106000091AG10999AY121061AY221061GF108991041031008001061999KA1240M+03161MA1999999098711MD1999999-0081MW1131REMSYN017333   10316 59008
0115825860999991991042612004-05200-039300FM-12+021199999V0201401N00311220001CN0200001N9+02621+02161101351ADDAA106000091AG10999GF106991041021008001001041KA1240N+02391MA1999999098971MD1999999-0071REMSYN017333   20239 59007
0115825860999991991042700004-05200-039300FM-12+021199999V0202301N00101220001CN9999999N9+02731+02371101031ADDAA106000091AG10999GF102991021021008001001001KA1240M+03221MA1999999098661MD1999999-0051REMSYN017333   10322 59005
0115825860999991991042712004-05200-039300FM-12+021199999V0200501N00311105001CN0200001N9+02811+02381101251ADDAA106000091AG10999GF107991041041008001001021KA1240N+02331MA1999999098881MD1999999-0091REMSYN017333   20233 59009
0096825860999991991042718004-05200-039300FM-12+021199999V0201801N00211105001CN0200001N9+03111+02311100721ADDAA106000091AG10999GF106991041021008001001021MA1999999098371MD1999999+0001REMSYN011333   58000
0115825860999991991042800004-05200-039300FM-12+021199999V0200501N00101105001CN9999999N9+02661+02501100911ADDAA106000091AG10999GF107991021021008001001061KA1240M+03201MA1999999098551MD1999999-0111REMSYN017333   10320 59011
0115825860999991991042812004-05200-039300FM-12+021199999V0200901N00261007501CN0200001N9+02811+02361101051ADDAA106000091AG10999GF108991081051008001999999KA1240N+02421MA1999999098791MD1999999-0091REMSYN017333   20242 59009
0154825860999991991042900004-05200-039300FM-12+021199999V0209991C00001045001CN9999999N9+02491+02361101101ADDAA106000291AA299000391AG10999AY151061AY221061GF108991041031008001011061KA1240M+03251MA1999999098431MD1999999+0181MW1131REMSYN023333   10325 58018 69921
0143825860999991991043000004-05200-039300FM-12+021199999V0203601N00101015001CN9999999N9+02341+02291101151ADDAA106027091AG10999AY191061AY261061GF108991081001017501021999KA1240M+03021MA1999999098761MD1999999+0031MW1201REMSYN023333   10302 58003 60271
0118825860999991991043018004-05200-039300FM-12+021199999V0203601N00151007501CN0200001N9+02731+02521100781ADDAA106000091AG10999AY121061AY221061GF108991081061008001999999MA1999999098401MD1999999-0071MW1151REMSYN011333   59007
0134825860999991991050100004-05200-039300FM-12+021199999V0209999999999007501CN9999999N9+02511+02411101111ADDAA106000091AG10999GF108991051041008001071999KA1240M+02981MA1999999098721MD1999999-0041REMSYN017333   10298 59004EQDQ01+999990APOSLP
0124825860999991991050112004-05200-039300FM-12+021199999V0200901N00151007501CN0200001N9+02641+02371101241ADDAA124005091AG10999AY161061AY221061GF107991071021008001001001MA1999999098861MD1999999-0021MW1011REMSYN017333   59002 60054
0118825860999991991050118004-05200-039300FM-12+021199999V0201801N00261045001CN0040001N9+03031+02311100741ADDAA106000091AG10999AY121061AY221061GF106991041031008001061001MA1999999098371MD1999999-0031MW1151REMSYN011333   59003
0143825860999991991050200004-05200-039300FM-12+021199999V0203601N00151007501CN9999999N9+02401+02311101081ADDAA106004091AG10999AY161061AY221061GF108991081091008001999999KA1240M+03051MA1999999098691MD1999999-0031MW1611REMSYN023333   10305 59003 60041
0143825860999991991050212004-05200-039300FM-12+021199999V0202301N00261007501CN9999999N9+02431+02351101231ADDAA124022091AG10999AY161061AY261061GF108991081071008001999999KA1240N+02191MA1999999098831MD1999999-0031MW1021REMSYN023333   20219 59003 60224
0124825860999991991050218004-05200-039300FM-12+021199999V0201401N00261045001CN0040001N9+02791+02341100851ADDAA106003091AG10999AY161061AY221061GF108991041031008001071021MA1999999098461MD1999999+0091MW1151REMSYN017333   58009 60031
0115825860999991991050300004-05200-039300FM-12+021199999V0203201N00151007501CN9999999N9+02561+02471101071ADDAA106000091AG10999GF108991061051008001071999KA1240M+02841MA1999999098681MD1999999-0011REMSYN017333   10284 59001
0143825860999991991050312004-05200-039300FM-12+021199999V0201401N00051007501CN0040001N9+02201+02181101241ADDAA124030091AG10999AY161061AY261061GF108991081071008001999999KA1240N+02091MA1999999098841MD1999999+0011MW1611REMSYN023333   20209 58001 60304
0143825860999991991050412004-05200-039300FM-12+021199999V0201401N00151007501CN0200001N9+02491+02461101151ADDAA124001091AG10999AY151061AY221061GF108991061041008001001011KA1240N+02131MA1999999098761MD1999999-0081MW1611REMSYN023333   20213 59008 60014
0137825860999991991050500004-05200-039300FM-12+021199999V0209991C00001045001CN9999999N9+02631+02351101041ADDAA106000091AG10999AY121061AY221061GF108991041091008001061999KA1240M+03051MA1999999098651MD1999999-0061MW1171REMSYN017333   10305 59006
0143825860999991991050512004-05200-039300FM-12+021199999V0201401N00211007501CN0200001N9+02621+02371101181ADDAA124001091AG10999AY161061AY251061GF107991051041008001061001KA1240N+02321MA1999999098801MD1999999+0041MW1031REMSYN023333   20232 58004 60014
0124825860999991991050518004-05200-039300FM-12+021199999V0201401N00461007501CN0200001N9+02981+02301100701ADDAA106001091AG10999AY161061AY221061GF108991081031008001999999MA1999999098401MD1999999+0031MW1151REMSYN017333   58003 60011
0143825860999991991050600004-05200-039300FM-12+021199999V0209991C00001007501CN9999999N9+02441+02421101241ADDAA106015091AG10999AY161061AY261061GF108991081071008001999999KA1240M+03051MA1999999098861MD1999999+0211MW1021REMSYN023333   10305 58021 60151
0121825860999991991050612004-05200-039300FM-12+021199999V0200901N00151007501CN0200001N9+02531+02421101241ADDAA124016091AG10999GF108991081051008001999999KA1240N+02331MA1999999098851MD1999999+0051REMSYN023333   20233 58005 60164
0096825860999991991050618004-05200-039300FM-12+021199999V0201401N00151105001CN0200001N9+03021+02291100891ADDAA106000091AG10999GF108991041021008001001021MA1999999098531MD1999999+0131REMSYN011333   58013
0137825860999991991050700004-05200-039300FM-12+021199999V0209991C00001007501CN9999999N9+02641+02521101081ADDAA106000091AG10999AY121061AY221061GF105991051031008001001001KA1240M+03111MA1999999098711MD1999999-0151MW1131REMSYN017333   10311 59015
0143825860999991991050712004-05200-039300FM-12+021199999V0201401N00211007501CN0200001N9+02611+02461101191ADDAA124008091AG10999AY161061AY221061GF108991081051008001999999KA1240N+02251MA1999999098811MD1999999-0041MW1021REMSYN023333   20225 59004 60084
0124825860999991991050718004-05200-039300FM-12+021199999V0201401N00361045001CN0200001N9+03061+02271100811ADDAA106002091AG10999AY161061AY221061GF106991041021008001061021MA1999999098451MD1999999-0081MW1031REMSYN017333   59008 60021
0115825860999991991050800004-05200-039300FM-12+021199999V0203601N00101220001CN9999999N9+02631+02521101091ADDAA106000091AG10999GF100991001001999999001001KA1240M+03121MA1999999098721MD1999999+0011REMSYN017333   10312 58001
0121825860999991991050812004-05200-039300FM-12+021199999V0200901N00361007501CN0200001N9+02711+02391101311ADDAA124002091AG10999GF107991051041008001001051KA1240N+02331MA1999999098931MD1999999+0121REMSYN023333   20233 58012 60024
0096825860999991991050818004-05200-039300FM-12+021199999V0201401N00101105001CN0200001N9+03051+02281100871ADDAA106000091AG10999GF106991041021008001001021MA1999999098511MD1999999+0061REMSYN011333   58006
0115825860999991991050912004-05200-039300FM-12+021199999V0201401N00511007501CN0200001N9+02721+02301101361ADDAA106000091AG10999GF107991071041008001001001KA1240N+02351MA1999999098981MD1999999+0051REMSYN017333   20235 58005
0096825860999991991050918004-05200-039300FM-12+021199999V0201401N00311105001CN0200001N9+03121+02251100951ADDAA106000091AG10999GF105991041021008001001021MA1999999098591MD1999999+0081REMSYN011333   58008
0115825860999991991051000004-05200-039300FM-12+021199999V0200501N00261220001CN9999999N9+02571+02311101181ADDAA106000091AG10999GF100991001001999999001001KA1240M+03141MA1999999098801MD1999999+0071REMSYN017333   10314 58007
0115825860999991991051012004-05200-039300FM-12+021199999V0201401N00511007501CN0200001N9+02671+02231101421ADDAA106000091AG10999GF106991061021008001001001KA1240N+02251MA1999999099041MD1999999+0061REMSYN017333   20225 58006
0096825860999991991051018004-05200-039300FM-12+021199999V0201801N00211007501CN0200001N9+03101+02231101041ADDAA106000091AG10999GF105991051021008001001001MA1999999098681MD1999999+0091REMSYN011333   58009
0115825860999991991051100004-05200-039300FM-12+021199999V0209991C00001220001CN9999999N9+02621+02391101241ADDAA106000091AG10999GF100991001001999999001001KA1240M+03141MA1999999098861MD1999999+0061REMSYN017333   10314 58006
0096825860999991991051118004-05200-039300FM-12+021199999V0201801N00361220001CN0200001N9+02971+02261100941ADDAA106000091AG10999GF104991031021008001001021MA1999999098571MD1999999-0111REMSYN011333   59011
0096825860999991991051218004-05200-039300FM-12+021199999V0201801N00461045001CN0200001N9+02971+02021101011ADDAA106000091AG10999GF107991041021008001051001MA1999999098651MD1999999+0081REMSYN011333   58008
0115825860999991991051300004-05200-039300FM-12+021199999V0201801N00151220001CN9999999N9+02581+02271101261ADDAA106000091AG10999GF100991001001999999001001KA1240M+02991MA1999999098881MD1999999+0151REMSYN017333   10299 58015
0134825860999991991051312004-05200-039300FM-12+021199999V0201801N003619999999N0200001N9+02661+01921101361ADDAA106000091AG10999GF106991001001999999001021KA1240N+02311MA1999999098981MD1999999-0011REMSYN017333   20231 59001EQDQ01+000982SCOLCB
0115825860999991991051400004-05200-039300FM-12+021199999V0202301N00051105001CN9999999N9+02511+02401101111ADDAA106000091AG10999GF108991041041008001001021KA1240M+02971MA1999999098741MD1999999-0141REMSYN017333   10297 59014
0115825860999991991051412004-05200-039300FM-12+021199999V0201801N00411007501CN0200001N9+02701+02221101331ADDAA106000091AG10999GF106991061021008001001001KA1240N+02311MA1999999098951MD1999999-0031REMSYN017333   20231 59003
0118825860999991991051418004-05200-039300FM-12+021199999V0201801N00311007501CN0200001N9+02911+02321100861ADDAA106000091AG10999AY121061AY221061GF108991081031008001999999MA1999999098501MD1999999-0081MW1151REMSYN011333   59008
0143825860999991991051500004-05200-039300FM-12+021199999V0201401N00101007501CN9999999N9+02591+02551101171ADDAA106003091AG10999AY161061AY221061GF108991081031008001999999KA1240M+03001MA1999999098791MD1999999+0051MW1131REMSYN023333   10300 58005 60031
0143825860999991991051512004-05200-039300FM-12+021199999V0201801N00361007501CN0200001N9+02411+02401101351ADDAA124039091AG10999AY161061AY261061GF108991081071008001999999KA1240N+02181MA1999999098951MD1999999+0001MW1211REMSYN023333   20218 58000 60394
0124825860999991991051518004-05200-039300FM-12+021199999V0200901N00151045001CN0200001N9+02631+02371101041ADDAA106002091AG10999AY161061AY261061GF108991041031008001061021MA1999999098641MD1999999+0141MW1201REMSYN017333   58014 60021
0115825860999991991051600004-05200-039300FM-12+021199999V0201401N00051105001CN9999999N9+02441+02351101201ADDAA106000091AG10999GF106991031041008001001021KA1240M+02731MA1999999098801MD1999999+0011REMSYN017333   10273 58001
0121825860999991991051612004-05200-039300FM-12+021199999V0201401N00151220001CN0200001N9+02661+02371101201ADDAA124002091AG10999GF104991021011008001051001KA1240N+02181MA1999999098821MD1999999-0131REMSYN023333   20218 59013 60024
0096825860999991991051618004-05200-039300FM-12+021199999V0202301N00051220001CN0200001N9+03011+02221100861ADDAA106000091AG10999GF105991031021008001001011MA1999999098501MD1999999-0141REMSYN011333   59014
0096825860999991991051718004-05200-039300FM-12+021199999V0200901N00211007501CN0200001N9+03081+02271100961ADDAA106000091AG10999GF105991051021008001001001MA1999999098601MD1999999+0101REMSYN011333   58010
0115825860999991991051800004-05200-039300FM-12+021199999V0200901N00211220001CN9999999N9+02561+02441101181ADDAA106000091AG10999GF103991031041008001001001KA1240M+03121MA1999999098801MD1999999+0081REMSYN017333   10312 58008
0115825860999991991051812004-05200-039300FM-12+021199999V0201401N00361007501CN0200001N9+02711+02281101281ADDAA106000091AG10999GF107991071021008001001001KA1240N+02221MA1999999098901MD1999999-0051REMSYN017333   20222 59005
0143825860999991991051912004-05200-039300FM-12+021199999V0209991C00001007501CN0040001N9+02321+02271101391ADDAA124002091AG10999AY121061AY221061GF108991061071008001021999KA1240N+02221MA1999999098991MD1999999+0091MW1611REMSYN023333   20222 58009 60024
0124825860999991991051918004-05200-039300FM-12+021199999V0201801N00151007501CN0200001N9+02951+02211100891ADDAA106002091AG10999AY161061AY221061GF107991051041008001001051MA1999999098531MD1999999-0061MW1031REMSYN017333   59006 60021
0115825860999991991052000004-05200-039300FM-12+021199999V0201401N00461007501CN9999999N9+02551+02451101311ADDAA106000091AG10999GF108991081071008001999999KA1240M+03001MA1999999098911MD1999999+0181REMSYN017333   10300 58018
0143825860999991991052012004-05200-039300FM-12+021199999V0201801N00261045001CN0200001N9+02471+02231101351ADDAA124002091AG10999AY161061AY221061GF107991041041008001051061KA1240N+02231MA1999999098951MD1999999-0041MW1031REMSYN023333   20223 59004 60024
0096825860999991991052018004-05200-039300FM-12+021199999V0201401N00361045001CN0200001N9+02931+02141100941ADDAA106000091AG10999GF107991041031008001061021MA1999999098581MD1999999+0051REMSYN011333   58005
0143825860999991991052100004-05200-039300FM-12+021199999V0201401N00151007501CN9999999N9+02431+02351101231ADDAA106008091AG10999AY121061AY221061GF105991051041008001001001KA1240M+02951MA1999999098831MD1999999-0081MW1291REMSYN023333   10295 59008 60081
0143825860999991991052112004-05200-039300FM-12+021199999V0201401N00101007501CN0200001N9+02621+02271101291ADDAA124008091AG10999AY151061AY221061GF106991061021008001001001KA1240N+02231MA1999999098901MD1999999-0051MW1021REMSYN023333   20223 59005 60084
0096825860999991991052118004-05200-039300FM-12+021199999V0201401N00261007501CN0200001N9+02891+02211100991ADDAA106000091AG10999GF107991051031008001061001MA1999999098621MD1999999+0041REMSYN011333   58004
0115825860999991991052200004-05200-039300FM-12+021199999V0200501N00051007501CN9999999N9+02461+02361101261ADDAA106000091AG10999GF108991081061008001999999KA1240M+02901MA1999999098881MD1999999+0051REMSYN017333   10290 58005
0115825860999991991052212004-05200-039300FM-12+021199999V0200901N00151007501CN0200001N9+02631+02351101411ADDAA106000091AG10999GF107991071041008001001001KA1240N+02181MA1999999099031MD1999999+0131REMSYN017333   20218 58013
0096825860999991991052218004-05200-039300FM-12+021199999V0201801N00361220001CN0200001N9+03011+02171101071ADDAA106000091AG10999GF103991021031008001001021MA1999999098701MD1999999+0081REMSYN011333   58008
0115825860999991991052300004-05200-039300FM-12+021199999V0202301N00051021001CN9999999N9+02591+02351101291ADDAA106000091AG10999GF106991061001022501061001KA1240M+03051MA1999999098911MD1999999+0031REMSYN017333   10305 58003
0115825860999991991052312004-05200-039300FM-12+021199999V0200501N00151007501CN0200001N9+02611+02311101391ADDAA106000091AG10999GF106991061021008001001001KA1240N+02191MA1999999099011MD1999999-0021REMSYN017333   20219 59002
0096825860999991991052318004-05200-039300FM-12+021199999V0201801N00151220001CN0200001N9+03061+02111100961ADDAA106000091AG10999GF104991041021008001001001MA1999999098601MD1999999-0101REMSYN011333   59010
0115825860999991991052400004-05200-039300FM-12+021199999V0203601N00051220001CN9999999N9+02631+02391101241ADDAA106000091AG10999GF103991001001999999001021KA1240M+03031MA1999999098861MD1999999-0051REMSYN017333   10303 59005
0115825860999991991052412004-05200-039300FM-12+021199999V0202301N00051007501CN0200001N9+02571+02351101221ADDAA106000091AG10999GF107991071051008001001001KA1240N+02231MA1999999098841MD1999999-0171REMSYN017333   20223 59017
0135825860999991991052418004-05200-039300FM-12+021199999V0201801N00101045001CN0200001N9+02661+02431100831ADDAA106000691AA299000591AG10999AY191061AY221061GF108991041031008001021999MA1999999098451MD1999999-0151MW1031REMSYN017333   59015 69961
0137825860999991991052500004-05200-039300FM-12+021199999V0200501N00051045001CN9999999N9+02461+02361101101ADDAA106000091AG10999AY121061AY221061GF108991041031008001021999KA1240M+03021MA1999999098711MD1999999-0151MW1131REMSYN017333   10302 59015
0143825860999991991052512004-05200-039300FM-12+021199999V0201401N00211007501CN0200001N9+02551+02331101221ADDAA124003091AG10999AY161061AY221061GF108991081071008001999999KA1240N+02231MA1999999098831MD1999999-0011MW1031REMSYN023333   20223 59001 60034
0096825860999991991052518004-05200-039300FM-12+021199999V0201801N00361045001CN0200001N9+02871+02311100881ADDAA106000091AG10999GF108991041041008001061021MA1999999098501MD1999999+0051REMSYN011333   58005
0154825860999991991052612004-05200-039300FM-12+021199999V0201801N00311007501CN0200001N9+02491+02251101361ADDAA124000891AA299001091AG10999AY161061AY221061GF108991061051008001061999KA1240N+02271MA1999999098981MD1999999+0151MW1021REMSYN023333   20227 58015 69984
0096825860999991991052618004-05200-039300FM-12+021199999V0201801N00261045001CN0200001N9+02881+02231100921ADDAA106000091AG10999GF106991041021008001061001MA1999999098551MD1999999+0051REMSYN011333   58005
0115825860999991991052700004-05200-039300FM-12+021199999V0209991C00001220001CN9999999N9+02411+02131101291ADDAA106000091AG10999GF100991001001999999001001KA1240M+02951MA1999999098891MD1999999+0151REMSYN017333   10295 58015
0115825860999991991052712004-05200-039300FM-12+021199999V0201801N002619999999N0200001N9+02361+01991101531ADDAA106000091AG10999GF108991081001012501071999KA1240N+02111MA1999999099121MD1999999+0141REMSYN017333   20211 58014
0096825860999991991052718004-05200-039300FM-12+021199999V0202301N00261045001CN0200001N9+02711+02031101221ADDAA106000091AG10999GF108991031011008001071999MA1999999098821MD1999999+0271REMSYN011333   58027
0115825860999991991052800004-05200-039300FM-12+021199999V0201401N00051105001CN9999999N9+02391+02261101291ADDAA106000091AG10999GF108991041001017501051061KA1240M+02771MA1999999098891MD1999999+0001REMSYN017333   10277 58000
0115825860999991991052812004-05200-039300FM-12+021199999V0201801N00151045001CN0200001N9+02461+02071101411ADDAA106000091AG10999GF107991021011008001051051KA1240N+02051MA1999999099001MD1999999-0121REMSYN017333   20205 59012
0096825860999991991052818004-05200-039300FM-12+021199999V0202301N00261045001CN0200001N9+02871+02031101061ADDAA106000091AG10999GF108991031011008001051021MA1999999098671MD1999999-0151REMSYN011333   59015
0115825860999991991052900004-05200-039300FM-12+021199999V0209991C00001045001CN9999999N9+02461+02251101231ADDAA106000091AG10999GF108991021011008001061021KA1240M+02921MA1999999098831MD1999999-0061REMSYN017333   10292 59006
0115825860999991991052912004-05200-039300FM-12+021199999V0201801N003119999999N0200001N9+02401+01971101291ADDAA106000091AG10999GF107991071001012501061001KA1240N+02191MA1999999098891MD1999999-0111REMSYN017333   20219 59011
0096825860999991991052918004-05200-039300FM-12+021199999V0201801N00311105001CN0200001N9+02961+02021100871ADDAA106000091AG10999GF105991021021008001001021MA1999999098501MD1999999-0171REMSYN011333   59017
0115825860999991991053000004-05200-039300FM-12+021199999V0209991C00001045001CN9999999N9+02701+02151101051ADDAA106000091AG10999GF106991041011008001061001KA1240M+02981MA1999999098661MD1999999-0171REMSYN017333   10298 59017
0118825860999991991053018004-05200-039300FM-12+021199999V0201801N00261007501CN0040001N9+02951+02311100911ADDAA106000091AG10999AY121061AY221061GF107991051031008001061021MA1999999098551MD1999999+0051MW1151REMSYN011333   58005
0115825860999991991053100004-05200-039300FM-12+021199999V0209991C00001045001CN9999999N9+02471+02321101101ADDAA106000091AG10999GF106991041041008001051001KA1240M+02991MA1999999098711MD1999999+0051REMSYN017333   10299 58005
0115825860999991991053112004-05200-039300FM-12+021199999V0201801N00411105001CN0200001N9+02601+02141101191ADDAA106000091AG10999GF106991021011008001001081KA1240N+02231MA1999999098811MD1999999+0011REMSYN017333   20223 58001
0131825860999991991053118004-05200-039300FM-12+021199999V0201401N00511045001CN0200001N9+02971+02021100941ADDAA106000091AG10999GF106991031031008001061021MA1999999098591MD1999999+0041REMSYN011333   58004EQDQ01+100053APOSLPQ02+999990APOSLP
0115825860999991991060100004-05200-039300FM-12+021199999V0200901N00101007501CN9999999N9+02461+02271101171ADDAA106000091AG10999GF108991081051008001999999KA1240M+03001MA1999999098791MD1999999+0081REMSYN017333   10300 58008
0115825860999991991060112004-05200-039300FM-12+021199999V0201801N00311007501CN0200001N9+02611+02271101181ADDAA106000091AG10999GF107991071021008001001001KA1240N+02191MA1999999098801MD1999999-0011REMSYN017333   20219 59001
0124825860999991991060118004-05200-039300FM-12+021199999V0201801N00211007501CN0200001N9+03001+02141100891ADDAA106001091AG10999AY161061AY221061GF106991061031008001001001MA1999999098521MD1999999-0071MW1151REMSYN017333   59007 60011
0143825860999991991060200004-05200-039300FM-12+021199999V0200501N00151007501CN9999999N9+02521+02261101091ADDAA106000591AG10999AY161061AY221061GF106991061041008001001001KA1240M+03041MA1999999098711MD1999999-0081MW1031REMSYN023333   10304 59008 69951
0143825860999991991060212004-05200-039300FM-12+021199999V0201401N00151007501CN0200001N9+02471+02231101301ADDAA124014091AG10999AY161061AY261061GF107991051041008001001011KA1240N+02111MA1999999098911MD1999999+0111MW1031REMSYN023333   20211 58011 60144
0096825860999991991060218004-05200-039300FM-12+021199999V0201801N00311105001CN0200001N9+02911+01991100951ADDAA106000091AG10999GF106991031011008001001021MA1999999098581MD1999999+0061REMSYN011333   58006
0115825860999991991060300004-05200-039300FM-12+021199999V0209991C00001007501CN9999999N9+02451+02151101221ADDAA106000091AG10999GF106991061041008001001001KA1240M+02921MA1999999098821MD1999999+0111REMSYN017333   10292 58011
0115825860999991991060312004-05200-039300FM-12+021199999V0201801N00151007501CN0200001N9+02641+02231101281ADDAA106000091AG10999GF106991061021008001001001KA1240N+02161MA1999999098901MD1999999-0011REMSYN017333   20216 59001
0096825860999991991060318004-05200-039300FM-12+021199999V0201401N00211007501CN0200001N9+02861+02191101041ADDAA106000091AG10999GF107991051041008001061001MA1999999098661MD1999999+0081REMSYN011333   58008
0115825860999991991060400004-05200-039300FM-12+021199999V0202301N00211007501CN9999999N9+02571+02271101231ADDAA106000091AG10999GF105991051041008001001001KA1240M+02901MA1999999098851MD1999999+0031REMSYN017333   10290 58003
0115825860999991991060412004-05200-039300FM-12+021199999V0201801N005119999999N0200001N9+02491+01921101431ADDAA106000091AG10999GF105991031001012501051041KA1240N+02091MA1999999099041MD1999999+0141REMSYN017333   20209 58014
0096825860999991991060418004-05200-039300FM-12+021199999V0201801N00411220001CN0200001N9+02871+02011101071ADDAA106000091AG10999GF104991021041008001061001MA1999999098691MD1999999+0031REMSYN011333   58003
0143825860999991991060512004-05200-039300FM-12+021199999V0200901N00151105001CN0200001N9+02531+02131101281ADDAA124000391AG10999AY151061AY221061GF106991021011008001051041KA1240N+02211MA1999999098901MD1999999-0141MW1031REMSYN023333   20221 59014 69934
0096825860999991991060518004-05200-039300FM-12+021199999V0200501N00361007501CN0200001N9+03011+02081100931ADDAA106000091AG10999GF108991051041008001061001MA1999999098571MD1999999-0121REMSYN011333   59012
0115825860999991991060600004-05200-039300FM-12+021199999V0200501N00151012001CN9999999N9+02681+02331101111ADDAA106000091AG10999GF108991081081008001999999KA1240M+03051MA1999999098741MD1999999-0071REMSYN017333   10305 59007
0096825860999991991060618004-05200-039300FM-12+021199999V0200901N00151045001CN0200001N9+02941+02191101011ADDAA106000091AG10999GF107991041041008001061001MA1999999098641MD1999999+0071REMSYN011333   58007
0134825860999991991060700004-05200-039300FM-12+021199999V0200501N00151007501CN9999999N9+02481+02361101321ADDAA106000091AG10999GF108991081051008001999999KA1240M+02951MA1999999098921MD1999999+0181REMSYN017333   10295 58018EQDQ01+999990APOSP 
0143825860999991991060712004-05200-039300FM-12+021199999V0200901N00361007501CN0200001N9+02651+02351101481ADDAA124009091AG10999AY161061AY221061GF107991071051008001001001KA1240N+02251MA1999999099091MD1999999+0091MW1021REMSYN023333   20225 58009 60094
0096825860999991991060718004-05200-039300FM-12+021199999V0200901N00211007501CN0200001N9+02991+02201101131ADDAA106000091AG10999GF105991051021008001001001MA1999999098751MD1999999+0111REMSYN011333   58011
0143825860999991991060812004-05200-039300FM-12+021199999V0201401N00361007501CN0200001N9+02531+02231101511ADDAA124014091AG10999AY161061AY261061GF106991061041008001001001KA1240N+02271MA1999999099121MD1999999+0031MW1031REMSYN023333   20227 58003 60144
0096825860999991991060818004-05200-039300FM-12+021199999V0200901N00361007501CN0200001N9+02951+02081101111ADDAA106000091AG10999GF105991051021008001001001MA1999999098741MD1999999-0011REMSYN011333   59001
0115825860999991991060912004-05200-039300FM-12+021199999V0201401N00311007501CN0200001N9+02471+02301101471ADDAA106000091AG10999GF105991051041008001001001KA1240N+02101MA1999999099071MD1999999-0051REMSYN017333   20210 59005
0096825860999991991060918004-05200-039300FM-12+021199999V0201401N00151220001CN0200001N9+03021+01691101061ADDAA106000091AG10999GF102991021011008001001001MA1999999098691MD1999999-0051REMSYN011333   59005
0115825860999991991061000004-05200-039300FM-12+021199999V0209991C00001220001CN9999999N9+02321+02111101411ADDAA106000091AG10999GF100991001001999999001001KA1240M+03031MA1999999099001MD1999999+0041REMSYN017333   10303 58004
0115825860999991991061012004-05200-039300FM-12+021199999V0201801N00151220001CN0200001N9+02491+02191101541ADDAA106000091AG10999GF104991041011008001001001KA1240N+01971MA1999999099141MD1999999+0071REMSYN017333   20197 58007
0115825860999991991061112004-05200-039300FM-12+021199999V0201801N00511220001CN0200001N9+02531+02191101541ADDAA106000091AG10999GF104991041011008001001001KA1240N+02131MA1999999099191MD1999999+0051REMSYN017333   20213 58005
0115825860999991991061300004-05200-039300FM-12+021199999V0209991C00001220001CN9999999N9+02521+02311101291ADDAA106000091AG10999GF100991001001999999001001KA1240M+03031MA1999999098911MD1999999-0091REMSYN017333   10303 59009
0115825860999991991061312004-05200-039300FM-12+021199999V0201401N00151220001CN0200001N9+02531+02171101441ADDAA106000091AG10999GF104991041011008001001001KA1240N+02091MA1999999099041MD1999999-0101REMSYN017333   20209 59010
0096825860999991991061318004-05200-039300FM-12+021199999V0201801N00211105001CN0200001N9+03091+01921101051ADDAA106000091AG10999GF107991021011008001001051MA1999999098681MD1999999-0091REMSYN011333   59009
0115825860999991991061400004-05200-039300FM-12+021199999V0209991C00001220001CN9999999N9+02531+02231101281ADDAA106000091AG10999GF100991001001999999001001KA1240M+03141MA1999999098911MD1999999+0001REMSYN017333   10314 58000
0115825860999991991061412004-05200-039300FM-12+021199999V0201801N00211105001CN0200001N9+02531+02191101431ADDAA106000091AG10999GF106991041011008001001021KA1240N+02131MA1999999099401MD1999999+0001REMSYN017333   20213 58000
0096825860999991991061418004-05200-039300FM-12+021199999V0201801N00211105001CN0200001N9+03081+01921100991ADDAA106000091AG10999GF107991021011008001001021MA1999999098631MD1999999-0051REMSYN011333   59005
0115825860999991991061500004-05200-039300FM-12+021199999V0209991C00001220001CN9999999N9+02541+02211101021ADDAA106000091AG10999GF100991001001999999001001KA1240M+03141MA1999999098641MD1999999-0271REMSYN017333   10314 59027
0115825860999991991061512004-05200-039300FM-12+021199999V0201801N00211007501CN0200001N9+02461+02071101481ADDAA106000091AG10999GF108991081051008001999999KA1240N+02151MA1999999099081MD1999999+0041REMSYN017333   20215 58004
0096825860999991991061518004-05200-039300FM-12+021199999V0201801N00051105001CN0200001N9+03001+01881101061ADDAA106000091AG10999GF107991031021008001001021MA1999999098691MD1999999+0061REMSYN011333   58006
0115825860999991991061600004-05200-039300FM-12+021199999V0209991C00001220001CN9999999N9+02461+02091101241ADDAA106000091AG10999GF100991001001999999001001KA1240M+03051MA1999999098841MD1999999+0201REMSYN017333   10305 58020
0115825860999991991061612004-05200-039300FM-12+021199999V0200901N00311045001CN0200001N9+02561+02191101441ADDAA106000091AG10999GF106991041041008001051001KA1240N+02131MA1999999099041MD1999999-0041REMSYN017333   20213 59004
0096825860999991991061618004-05200-039300FM-12+021199999V0201801N00151105001CN0200001N9+03061+02081101031ADDAA106000091AG10999GF108991031021008001001061MA1999999098671MD1999999-0021REMSYN011333   59002
0115825860999991991061700004-05200-039300FM-12+021199999V0209991C00001220001CN9999999N9+02531+02251101181ADDAA106000091AG10999GF100991001001999999001001KA1240M+03111MA1999999098801MD1999999-0041REMSYN017333   10311 59004
0115825860999991991061712004-05200-039300FM-12+021199999V0200901N00151007501CN0200001N9+02631+02161101351ADDAA106000091AG10999GF108991081051008001999999KA1240N+02271MA1999999098971MD1999999-0071REMSYN017333   20227 59007
0115825860999991991061900004-05200-039300FM-12+021199999V0203601N00101220001CN9999999N9+02531+01961101221ADDAA106000091AG10999GF100991001001999999001001KA1240M+03161MA1999999098841MD1999999+0101REMSYN017333   10316 58010
0115825860999991991061912004-05200-039300FM-12+021199999V0201401N00211220001CN0200001N9+02571+01951101431ADDAA106000091AG10999GF102991021011008001001001KA1240N+02031MA1999999099041MD1999999+0071REMSYN017333   20203 58007
0115825860999991991061918004-05200-039300FM-12+021199999V0200501N00411220001CN0200001N9+03161+01711101011ADDAA106000091AG10999GF102991999011008001001001MA1999999098651MD1999999+0081REMSYN011333   58008EQDQ01+000012SCOTLC
0115825860999991991062000004-05200-039300FM-12+021199999V0200501N00261220001CN9999999N9+02651+02201101321ADDAA106000091AG10999GF102991021001022501051001KA1240M+03181MA1999999098941MD1999999+0101REMSYN017333   10318 58010
0115825860999991991062012004-05200-039300FM-12+021199999V0201401N00211007501CN0200001N9+02611+02271101441ADDAA106000091AG10999GF107991051041008001051001KA1240N+02331MA1999999099061MD1999999+0021REMSYN017333   20233 58002
0096825860999991991062018004-05200-039300FM-12+021199999V0201801N00261220001CN0200001N9+03111+02091100991ADDAA106000091AG10999GF104991041021008001001001MA1999999098631MD1999999-0021REMSYN011333   59002
0115825860999991991062100004-05200-039300FM-12+021199999V0200901N00151220001CN9999999N9+02571+02251101201ADDAA106000091AG10999GF100991001001999999001001KA1240M+03161MA1999999098821MD1999999-0121REMSYN017333   10316 59012
0115825860999991991062112004-05200-039300FM-12+021199999V0201401N00211220001CN0200001N9+02671+02161101401ADDAA106000091AG10999GF102991021011008001001001KA1240N+02161MA1999999099021MD1999999-0041REMSYN017333   20216 59004
0096825860999991991062118004-05200-039300FM-12+021199999V0200901N002119999999N0200001N9+03141+99999101011ADDAA106000091AG10999GF108991051999008001061001MA1999999098651MD1999999+0021REMSYN011333   58002
0115825860999991991062200004-05200-039300FM-12+021199999V0200501N00461007501CN9999999N9+02651+02311101251ADDAA106000091AG10999GF107991071041008001001001KA1240M+03191MA1999999098871MD1999999+0051REMSYN017333   10319 58005
0115825860999991991062212004-05200-039300FM-12+021199999V0201401N00461220001CN0200001N9+99999+99999101561ADDAA106000091AG10999GF103991031011008001001001KA1240N+02181MA1999999099181MD1999999+0161REMSYN017333   20218 58016
0096825860999991991062218004-05200-039300FM-12+021199999V0200901N00571220001CN0200001N9+03181+01351101261ADDAA106000091AG10999GF104991041011008001001001MA1999999098891MD1999999+0241REMSYN011333   58024
0134825860999991991062312004-05200-039300FM-12+021199999V0201801N00311220001CN0009001N9+02511+01751101601ADDAA106000091AG10999GF102991021001022501061001KA1240N+02001MA1999999099201MD1999999+0021REMSYN017333   20200 58002EQDQ01+999990APOSP 
0096825860999991991062318004-05200-039300FM-12+021199999V0200501N00411007501CN0200001N9+03061+01901101121ADDAA106000091AG10999GF108991081051008001999999MA1999999098751MD1999999-0141REMSYN011333   59014
0115825860999991991062400004-05200-039300FM-12+021199999V0200501N00151045001CN9999999N9+02681+01991101381ADDAA106000091AG10999GF107991021011008001051001KA1240M+03101MA1999999099001MD1999999+0061REMSYN017333   10310 58006
0115825860999991991062412004-05200-039300FM-12+021199999V0200901N00461007501CN0200001N9+02651+02161101601ADDAA106000091AG10999GF108991051041008001061001KA1240N+02291MA1999999099221MD1999999+0021REMSYN017333   20229 58002
0096825860999991991062418004-05200-039300FM-12+021199999V0201801N00311220001CN0200001N9+03121+01851101121ADDAA106000091AG10999GF106991041021008001001011MA1999999098751MD1999999+0001REMSYN011333   58000
0115825860999991991062512004-05200-039300FM-12+021199999V0201401N00211220001CN0200001N9+02611+01941101501ADDAA106000091AG10999GF103991021011008001001011KA1240N+02051MA1999999099121MD1999999-0101REMSYN017333   20205 59010
0096825860999991991062518004-05200-039300FM-12+021199999V0209991C00001007501CN0200001N9+03161+01601101041ADDAA106000091AG10999GF107991051041008001001011MA1999999098681MD1999999-0071REMSYN011333   59007
0096825860999991991062618004-05200-039300FM-12+021199999V0200901N00511007501CN0200001N9+03001+01841101241ADDAA106000091AG10999GF108991051041008001061001MA1999999098861MD1999999+0181REMSYN011333   58018
0115825860999991991062700004-05200-039300FM-12+021199999V0200501N00051021001CN9999999N9+02671+02091101401ADDAA106000091AG10999GF106991061001022501061001KA1240M+03111MA1999999099021MD1999999+0101REMSYN017333   10311 58010
0143825860999991991062712004-05200-039300FM-12+021199999V0201801N00151007501CN0200001N9+02351+02181101671ADDAA124001091AG10999AY161061AY221061GF108991081061008001999999KA1240N+02131MA1999999099271MD1999999+0071MW1021REMSYN023333   20213 58007 60014
0135825860999991991062718004-05200-039300FM-12+021199999V0201401N00101045001CN0200001N9+02931+01891101331ADDAA106000291AA299000391AG10999AY121061AY211061GF106991041041008001061001MA1999999098941MD1999999+0081MW1031REMSYN017333   58008 69921
0143825860999991991062812004-05200-039300FM-12+021199999V0201801N00151007501CN0200001N9+02331+02241101641ADDAA124005091AG10999AY161061AY221061GF108991081061008001999999KA1240N+02131MA1999999099241MD1999999-0031MW1021REMSYN023333   20213 59003 60054
0096825860999991991062818004-05200-039300FM-12+021199999V0201401N00361045001CN0200001N9+03001+02001101181ADDAA106000091AG10999GF106991041041008001061001MA1999999098811MD1999999-0131REMSYN011333   59013
0115825860999991991062900004-05200-039300FM-12+021199999V0209991C00001045001CN9999999N9+02721+01981101301ADDAA106000091AG10999GF106991031011008001051061KA1240M+03061MA1999999098931MD1999999-0211REMSYN017333   10306 59021
0115825860999991991062912004-05200-039300FM-12+021199999V0201801N00311045001CN0200001N9+02481+01781101601ADDAA106000091AG10999GF106991021011008001051051KA1240N+02151MA1999999099211MD1999999-0031REMSYN017333   20215 59003
0115825860999991991063000004-05200-039300FM-12+021199999V0200901N00211220001CN9999999N9+02511+02191101431ADDAA106000091AG10999GF102991001001999999001041KA1240M+03081MA1999999099031MD1999999+0101REMSYN017333   10308 58010
0115825860999991991063012004-05200-039300FM-12+021199999V0201401N00151105001CN0200001N9+02491+02071101671ADDAA106000091AG10999GF108991041041008001001051KA1240N+02031MA1999999099271MD1999999+0061REMSYN017333   20203 58006
0115825860999991991070100004-05200-039300FM-12+021199999V0200501N00511220001CN9999999N9+02631+02171101571ADDAA106000091AG10999GF103991999999999999999999KA1240M+03061MA1999999098981MD1999999-0101REMSYN017333   10306 59010
0115825860999991991070112004-05200-039300FM-12+021199999V0200501N00511220001CN9999999N9+02631+02171101571ADDAA106000091AG10999GF103991999999999999999999KA1240M+03061MA1999999098981MD1999999-0101REMSYN017333   10306 59010
0093825860999991991073118004-05200-039300FM-12+021199999V0200901N00721007501CN0200001N9+03181+01871101111ADDAA106000091AG10999GF107991071021008001001001MA1999999098771REMSYN003333EQDQ01+999990APOSLP
0095825860999991991080100004-05200-039300FM-12+021199999V0200501N00361220001CN9999999N9+02671+02271101431ADDAA106000091AG10999GF103991031041008001001001KA1240M+03361MA1999999099051REMSYN011333   10336
0115825860999991991080112004-05200-039300FM-12+021199999V0201401N00411007501CN0200001N9+02561+01851101521ADDAA106000091AG10999GF108991081051008001999999KA1240N+02131MA1999999099141MD1999999+0031REMSYN017333   20213 58003
0096825860999991991080118004-05200-039300FM-12+021199999V0201401N00461007501CN0200001N9+02931+01981101181ADDAA106000091AG10999GF108991051041008001031999MA1999999098801MD1999999+0031REMSYN011333   58003
0115825860999991991080200004-05200-039300FM-12+021199999V0209991C00001220001CN9999999N9+02651+02001101401ADDAA106000091AG10999GF103991031041008001001001KA1240M+02961MA1999999099021MD1999999-0031REMSYN017333   10296 59003
0115825860999991991080212004-05200-039300FM-12+021199999V0201401N00361220001CN0200001N9+02561+01561101621ADDAA106000091AG10999GF100991001001999999001001KA1240N+02061MA1999999099231MD1999999+0091REMSYN017333   20206 58009
0096825860999991991080218004-05200-039300FM-12+021199999V0201401N00461220001CN0200001N9+03281+01391101071ADDAA106000091AG10999GF102991021011008001001001MA1999999098711MD1999999-0091REMSYN011333   59009
0115825860999991991080300004-05200-039300FM-12+021199999V0200501N00511220001CN9999999N9+02631+01811101361ADDAA106000091AG10999GF100991001001999999001001KA1240M+03301MA1999999098981MD1999999-0041REMSYN017333   10330 59004
0115825860999991991080312004-05200-039300FM-12+021199999V0201401N00311220001CN0200001N9+02611+01711101681ADDAA106000091AG10999GF102991021011008001001001KA1240N+02151MA1999999099291MD1999999+0061REMSYN017333   20215 58006
0096825860999991991080318004-05200-039300FM-12+021199999V0201401N00311220001CN0200001N9+03241+01311101191ADDAA106000091AG10999GF100991001001999999001001MA1999999098811MD1999999+0101REMSYN011333   58010
0115825860999991991080400004-05200-039300FM-12+021199999V0209991C00001220001CN9999999N9+02721+01351101401ADDAA106000091AG10999GF100991001001999999001001KA1240M+03321MA1999999099021MD1999999+0041REMSYN017333   10332 58004
0115825860999991991080412004-05200-039300FM-12+021199999V0201801N00361220001CN0200001N9+02561+01851101601ADDAA106000091AG10999GF101991011011008001001001KA1240N+02051MA1999999099221MD1999999-0071REMSYN017333   20205 59007
0096825860999991991080418004-05200-039300FM-12+021199999V0201401N00461220001CN0200001N9+03281+01291101161ADDAA106000091AG10999GF104991041011008001001001MA1999999098791MD1999999-0221REMSYN011333   59022
0115825860999991991080512004-05200-039300FM-12+021199999V0201801N00361007501CN0200001N9+02481+01781101671ADDAA106000091AG10999GF107991071051008001001001KA1240N+02271MA1999999099281MD1999999+0061REMSYN017333   20227 58006
0096825860999991991080518004-05200-039300FM-12+021199999V0201401N00151007501CN0200001N9+03081+01601101221ADDAA106000091AG10999GF108991051041008001031999MA1999999098851MD1999999+0061REMSYN011333   58006
0115825860999991991080610004-05200-039300FM-12+021199999V0200501N00151220001CN9999999N9+02711+01801101451ADDAA106000091AG10999GF100991001001999999001001KA1240M+03161MA1999999099071MD1999999+0051REMSYN017333   10316 58005
0115825860999991991080612004-05200-039300FM-12+021199999V0201801N00571220001CN0200001N9+02571+01591101631ADDAA106000091AG10999GF100991001001999999001001KA1240N+02091MA1999999099251MD1999999-0031REMSYN017333   20209 59003
0096825860999991991080618004-05200-039300FM-12+021199999V0201401N00361220001CN0200001N9+03301+01261101101ADDAA106000091AG10999GF100991001001999999001001MA1999999098731MD1999999-0121REMSYN011333   59012
0115825860999991991080712004-05200-039300FM-12+021199999V0200901N00311220001CN0200001N9+02601+01761101531ADDAA106000091AG10999GF100991001001999999001001KA1240N+02091MA1999999099151MD1999999-0101REMSYN017333   20209 59010
0115825860999991991080718004-05200-039300FM-12+021199999V0201401N004119999999N0200001N9+03311+01551100871ADDAA106000091AG10999GF105991999011008001001001MA1999999098511MD1999999-0221REMSYN011333   59022EQDQ01+000022SCOTLC
0115825860999991991080800004-05200-039300FM-12+021199999V0200501N00721220001CN9999999N9+02651+01931101091ADDAA106000091AG10999GF100991001001999999001001KA1240M+03361MA1999999098721MD1999999-0211REMSYN017333   10336 59021
0115825860999991991080812004-05200-039300FM-12+021199999V0200901N00361220001CN0200001N9+02571+01801101361ADDAA106000091AG10999GF102991021011008001001001KA1240N+02041MA1999999098981MD1999999-0171REMSYN017333   20204 59017
0096825860999991991080818004-05200-039300FM-12+021199999V0201401N00311220001CN0200001N9+03371+01411100771ADDAA106000091AG10999GF100991001001999999001001MA1999999098421MD1999999-0091REMSYN011333   59009
0115825860999991991080900004-05200-039300FM-12+021199999V0200501N00511220001CN9999999N9+02621+02031100991ADDAA106000091AG10999GF100991001001999999001001KA1240M+03421MA1999999098621MD1999999-0101REMSYN017333   10342 59010
0115825860999991991080912004-05200-039300FM-12+021199999V0201401N00461220001CN0200001N9+02571+01781101411ADDAA106000091AG10999GF102991021011008001001001KA1240N+02141MA1999999099041MD1999999+0061REMSYN017333   20214 58006
0096825860999991991080918004-05200-039300FM-12+021199999V0200901N00461220001CN0200001N9+03241+01501100831ADDAA106000091AG10999GF100991001001999999001001MA1999999098471MD1999999+0051REMSYN011333   58005
0115825860999991991081000004-05200-039300FM-12+021199999V0200501N00051220001CN9999999N9+02691+02061101151ADDAA106000091AG10999GF100991001001999999001001KA1240M+03291MA1999999098771MD1999999+0151REMSYN017333   10329 58015
0115825860999991991081012004-05200-039300FM-12+021199999V0200901N00511220001CN0200001N9+02651+01901101461ADDAA106000091AG10999GF100991001001999999001001KA1240N+02171MA1999999099081MD1999999+0041REMSYN017333   20217 58004
0115825860999991991081112004-05200-039300FM-12+021199999V0200901N00411220001CN0200001N9+02601+01821101581ADDAA106000091AG10999GF102991021011008001001001KA1240N+02111MA1999999099201MD1999999+0121REMSYN017333   20211 58012
0096825860999991991081218004-05200-039300FM-12+021199999V0201401N00411220001CN0200001N9+03141+01451101251ADDAA106000091AG10999GF100991001001999999001001MA1999999098871MD1999999+0081REMSYN011333   58008
0115825860999991991081312004-05200-039300FM-12+021199999V0201401N00571007501CN0200001N9+02591+02041101771ADDAA106000091AG10999GF105991051041008001001001KA1240N+02131MA1999999099391MD1999999+0001REMSYN017333   20213 58000
0096825860999991991081318004-05200-039300FM-12+021199999V0201401N00571220001CN0200001N9+03151+01581101261ADDAA106000091AG10999GF100991001001999999001001MA1999999098891MD1999999+0021REMSYN011333   58002
0115825860999991991081400004-05200-039300FM-12+021199999V0209991C00001220001CN9999999N9+02771+01431101551ADDAA106000091AG10999GF100991001001999999001001KA1240M+03211MA1999999099171MD1999999+0211REMSYN017333   10321 58021
0115825860999991991081412004-05200-039300FM-12+021199999V0201801N00721220001CN0200001N9+02581+01921101821ADDAA106000091AG10999GF102991021011008001001001KA1240N+02141MA1999999099441MD1999999+0051REMSYN017333   20214 58005
0096825860999991991081418004-05200-039300FM-12+021199999V0201801N00511220001CN0200001N9+03191+01571101341ADDAA106000091AG10999GF101991011011008001001001MA1999999098971MD1999999+0081REMSYN011333   58008
0115825860999991991081500004-05200-039300FM-12+021199999V0201801N00211220001CN9999999N9+02761+01481101591ADDAA106000091AG10999GF104991041011008001001001KA1240M+03191MA1999999099211MD1999999+0041REMSYN017333   10319 58004
0115825860999991991081512004-05200-039300FM-12+021199999V0201401N00511007501CN0200001N9+02571+01471101921ADDAA106000091AG10999GF107991071041008001001001KA1240N+02041MA1999999099531MD1999999+0091REMSYN017333   20204 58009
0096825860999991991081518004-05200-039300FM-12+021199999V0201401N00621007501CN0200001N9+03131+01561101461ADDAA106000091AG10999GF105991051021008001001001MA1999999099081MD1999999+0111REMSYN011333   58011
0115825860999991991081600004-05200-039300FM-12+021199999V0201801N00511220001CN9999999N9+02571+01781101771ADDAA106000091AG10999GF100991001001999999001001KA1240M+03141MA1999999099371MD1999999+0161REMSYN017333   10314 58016
0115825860999991991081612004-05200-039300FM-12+021199999V0201801N00671007501CN0200001N9+02521+01861101791ADDAA106000091AG10999GF106991061041008001001001KA1240N+02081MA1999999099391MD1999999-0141REMSYN017333   20208 59014
0096825860999991991081618004-05200-039300FM-12+021199999V0201401N00361007501CN0200001N9+02871+01781101521ADDAA106000091AG10999GF106991061041008001001001MA1999999099131MD1999999+0051REMSYN011333   58005
0115825860999991991081700004-05200-039300FM-12+021199999V0201801N00411007501CN9999999N9+02841+01791101721ADDAA106000091AG10999GF106991061041008001001001KA1240M+02841MA1999999099341MD1999999-0031REMSYN017333   10284 59003
0143825860999991991081712004-05200-039300FM-12+021199999V0201801N00411007501CN0200001N9+02591+01991101911ADDAA124001091AG10999AY161061AY251061GF108991081051008001999999KA1240N+02411MA1999999099531MD1999999+0141MW1021REMSYN023333   20241 58014 60014
0096825860999991991081718004-05200-039300FM-12+021199999V0201801N00621007501CN0200001N9+02971+01781101431ADDAA106000091AG10999GF108991061021008001011011MA1999999099101MD1999999-0031REMSYN011333   59003
0115825860999991991081800004-05200-039300FM-12+021199999V0201801N00771007501CN9999999N9+02541+01821101781ADDAA106000091AG10999GF106991061041008001001001KA1240M+03101MA1999999099391MD1999999+0051REMSYN017333   10310 58005
0115825860999991991081812004-05200-039300FM-12+021199999V0201801N00511007501CN0200001N9+02551+01781101901ADDAA106000091AG10999GF106991061041008001001001KA1240N+02001MA1999999099501MD1999999-0031REMSYN017333   20200 59003
