0096827950999991991010118004-07217-035883FM-12+0560SBKG V0209999999999220001CN0100001N9+03031+01971100091ADDAA106000091AG10999GF104991041021008001001001MA1999999094791MD1999999-0021REMSYN011333   59002
0096827950999991991010218004-07217-035883FM-12+0560SBKG V0209999999999220001CN0100001N9+03031+01971100901ADDAA106000091AG10999GF104991041021008001001001MA1999999094791MD1999999-0021REMSYN011333   59002
0096827950999991991010318004-07217-035883FM-12+0560SBKG V0209999999999220001CN0200001N9+03131+01941100891ADDAA106000091AG10999GF104991041041008001001001MA1999999094791MD1999999+0101REMSYN011333   58010
0096827950999991991010418004-07217-035883FM-12+0560SBKG V0209999999999007501CN0200001N9+03071+01661100841ADDAA106000091AG10999GF105991051021008001001001MA1999999094741MD1999999-0051REMSYN011333   59005
0115827950999991991010512004-07217-035883FM-12+0560SBKG V0209999999999220001CN0100001N9+02531+01861101081ADDAA106000091AG10999GF103991031021008001001001KA1240N+02101MA1999999095131MD1999999+0011REMSYN017333   20210 58001
0096827950999991991010518004-07217-035883FM-12+0560SBKG V0209999999999220001CN0200001N9+03101+01901100881ADDAA106000091AG10999GF104991041021008001001001MA1999999094781MD1999999+0041REMSYN011333   58004
0115827950999991991010612004-07217-035883FM-12+0560SBKG V0209999999999220001CN0200001N9+02521+01861101211ADDAA106000091AG10999GF102991021011008001001001KA1240N+02021MA1999999095061MD1999999-0071REMSYN017333   20202 59007
0096827950999991991010618004-07217-035883FM-12+0560SBKG V0209999999999220001CN0200001N9+03111+01921100841ADDAA106000091AG10999GF104991041011008001001001MA1999999094741MD1999999-0041REMSYN011333   59004
0096827950999991991010718004-07217-035883FM-12+0560SBKG V0201401N00311045001CN0100001N9+02901+02021100991ADDAA106000091AG10999GF106991031041008001021001MA1999999094881MD1999999+0141REMSYN011333   58014
0115827950999991991010812004-07217-035883FM-12+0560SBKG V0200901N00361220001CN0200001N9+02521+01891101391ADDAA106000091AG10999GF106991041051008001001011KA1240N+02121MA1999999095231MD1999999+0201REMSYN017333   20212 58020
0096827950999991991010818004-07217-035883FM-12+0560SBKG V0201401N00311220001CN0100001N9+03021+01471101041ADDAA106000091AG10999GF105991021021008001001011MA1999999094921MD1999999+0141REMSYN011333   58014
0124827950999991991010918004-07217-035883FM-12+0560SBKG V0200501N00511105001CN0100001N9+02611+01981101131ADDAA106111091AG10999AY151061AY251061GF106991041041008001001021MA1999999094981MD1999999+0061MW1021REMSYN017333   58006 61111
0137827950999991991011012004-07217-035883FM-12+0560SBKG V0200901N00571045001CN0040001N9+02551+01971101331ADDAA106000091AG10999AY121061AY221061GF107991041021008001061001KA1240N+02121MA1999999095171MD1999999-0041MW1051REMSYN017333   20212 59004
0115827950999991991011018004-07217-035883FM-12+0560SBKG V0200901N00671045001CN0040001N9+02911+01801100182ADDAA106000091AG10999GF106991021021008001061011MA1999999094861MD1999999-0131REMSYN011333   59013EQDQ01+100183APOSLP
0096827950999991991011118004-07217-035883FM-12+0560SBKG V0200901N00671220001CN0100001N9+02991+01661100831ADDAA106000091AG10999GF104991041021008001001001MA1999999094731MD1999999-0131REMSYN011333   59013
0137827950999991991011212004-07217-035883FM-12+0560SBKG V0200901N00461007501CN0100001N9+02561+01881101161ADDAA106000091AG10999AY121061AY221061GF107991061051008001001011KA1240N+02121MA1999999095021MD1999999-0081MW1051REMSYN017333   20212 59008
0118827950999991991011218004-07217-035883FM-12+0560SBKG V0200901N00361007501CN0100001N9+02951+01531101601ADDAA106000091AG10999AY121061AY221061GF107991061021008001061001MA1999999094501MD1999999-0231MW1051REMSYN011333   59023
0154827950999991991011312004-07217-035883FM-12+0560SBKG V0200901N00461007501CN0040001N9+02531+01951101211ADDAA106000091AA224000391AG10999AY121061AY221061GF108991051051008001001061KA1240N+02111MA1999999095061MD1999999+0041MW1051REMSYN023333   20211 58004 69934
0096827950999991991011418004-07217-035883FM-12+0560SBKG V0200501N00411220001CN0100001N9+99999+99999100811ADDAA106000091AG10999GF106991031021008001001011MA1999999094711MD1999999-0021REMSYN011333   59002
0137827950999991991011512004-07217-035883FM-12+0560SBKG V0200901N00051045001CN0100001N9+02581+01821101171ADDAA106000091AG10999AY121061AY221061GF105991031021008001061011KA1240N+02121MA1999999095031MD1999999+0001MW1051REMSYN017333   20212 58000
0096827950999991991011518004-07217-035883FM-12+0560SBKG V0200901N00151105001CN0040001N9+03091+01941100771ADDAA106000091AG10999GF107991041021008001001061MA1999999094671MD1999999-0041REMSYN011333   59004
0115827950999991991011612004-07217-035883FM-12+0560SBKG V0200501N00311007501CN0200001N9+02621+01861101271ADDAA106000091AG10999GF107991071021008001001001KA1240N+02121MA1999999095131MD1999999+0101REMSYN017333   20212 58010
0096827950999991991011618004-07217-035883FM-12+0560SBKG V0201401N00211105001CN0100001N9+03111+01641100901ADDAA106000091AG10999GF106991031021008001001081MA1999999094801MD1999999+0131REMSYN011333   58013
0096827950999991991011718004-07217-035883FM-12+0560SBKG V0200501N00261045001CN0040001N9+03141+01691100891ADDAA106000091AG10999GF108991021021008001031081MA1999999098401MD1999999+0011REMSYN011333   58001
0096827950999991991011818004-07217-035883FM-12+0560SBKG V0200501N00461045001CN0100001N9+02731+02021101151ADDAA106000091AG10999GF106991041061008001011001MA1999999094981MD1999999+0181REMSYN011333   58018
0137827950999991991011912004-07217-035883FM-12+0560SBKG V0200501N00311045001CN0100001N9+02541+01951101521ADDAA106000091AG10999AY121061AY221061GF108991031071008001051071KA1240N+02201MA1999999095351MD1999999+0091MW1051REMSYN017333   20220 58009
0118827950999991991011918004-07217-035883FM-12+0560SBKG V0200901N00411045001CN0040001N9+03051+01801101061ADDAA106000091AG10999AY121061AY221061GF108991041021008001051071MA1999999094951MD1999999-0031MW1051REMSYN011333   59003
0143827950999991991012012004-07217-035883FM-12+0560SBKG V0200901N00261007501CN0200001N9+02491+01961101241ADDAA124999929AG10999AY151061AY221061GF107991051021008001001091KA1240N+02161MA1999999095091MD1999999-0261MW1201REMSYN023333   20216 59026 69904
0118827950999991991012018004-07217-035883FM-12+0560SBKG V0200901N00411007501CN0100001N9+02991+01841100911ADDAA106000091AG10999AY121061AY221061GF107991051031008001001031MA1999999094801MD1999999-0151MW1051REMSYN011333   59015
0123827950999991991012112004-07217-035883FM-12+0560SBKG V0200901N00411007501CN0100001N9+02531+01931101231ADDAA106000091AG10999AY121061AY221061GF107991051051008001021001KA1240N+02131MA1999999095091MW1051REMSYN017333   20213 58///
0096827950999991991012118004-07217-035883FM-12+0560SBKG V0200901N00311105001CN0200001N9+02981+01761100931ADDAA106000091AG10999GF106991031021008001001021MA1999999094821MD1999999+0021REMSYN011333   58002
0096827950999991991012218004-07217-035883FM-12+0560SBKG V0200901N00311007501CN0100001N9+02851+01971100961ADDAA106000091AG10999GF106991051021008001001081MA1999999094841MD1999999+0021REMSYN011333   58002
0096827950999991991012318004-07217-035883FM-12+0560SBKG V0200501N00361045001CN0200001N9+02911+01921101131ADDAA106000091AG10999GF106991021051008001041011MA1999999095001MD1999999+0161REMSYN011333   58016
0096827950999991991012418004-07217-035883FM-12+0560SBKG V0201401N00261045001CN0200001N9+03121+01811100901ADDAA106000091AG10999GF105991031021008001091011MA1999999094871MD1999999-0131REMSYN011333   59013
0096827950999991991012518004-07217-035883FM-12+0560SBKG V0209999999999220001CN0200001N9+03111+01851100941ADDAA106000091AG10999GF100991001001999999001001MA1999999094851MD1999999-0021REMSYN011333   59002
0096827950999991991012618004-07217-035883FM-12+0560SBKG V0201401N00411220001CN0200001N9+03131+01771100961ADDAA106000091AG10999GF104991041021008001001001MA1999999094861MD1999999+0011REMSYN011333   58001
0115827950999991991012712004-07217-035883FM-12+0560SBKG V0200901N00411220001CN0100001N9+02601+01891101371ADDAA106000091AG10999GF100991001001999999001001KA1240N+02151MA1999999095231MD1999999-0071REMSYN017333   20215 59007
0096827950999991991012718004-07217-035883FM-12+0560SBKG V0201401N00211220001CN0100001N9+03061+01731101031ADDAA106000091AG10999GF104991041021008001001001MA1999999094921MD1999999+0061REMSYN011333   58006
0096827950999991991012818004-07217-035883FM-12+0560SBKG V0200901N00411220001CN0100001N9+03001+02031101031ADDAA106000091AG10999GF103991031021008001001001MA1999999094921MD1999999+0001REMSYN011333   58000
0102827950999991991012912004-07217-035883FM-12+0560SBKG V0201401N00211220001CN0200001N9+02501+01911101361ADDAA106000091AG10999GF107991041021008001001011MA1999999095201MD1999999-0101REMSYN017333   2024/ 59010
0115827950999991991012918004-07217-035883FM-12+0560SBKG V0200901N00211220001CN0100001N9+03211+01511100841ADDAA106000091AG10999GF104991041021008001001001MA1999999047402MD1999999-0181REMSYN011333   59018EQDQ01+047403APOSP 
0115827950999991991013012004-07217-035883FM-12+0560SBKG V0200501N00211220001CN0200001N9+02661+01971101561ADDAA106000091AG10999GF106991041021008001001011KA1240N+02141MA1999999095131MD1999999-0071REMSYN017333   20214 59007
0137827950999991991013112004-07217-035883FM-12+0560SBKG V0200101N00361007501CN0100001N9+02561+01851101231ADDAA106000091AG10999AY121061AY221061GF107991061021008001001031KA1240N+02561MA1999999095101MD1999999-0031MW1051REMSYN017333   20256 59003
0096827950999991991013118004-07217-035883FM-12+0560SBKG V0200901N00361220001CN0200001N9+03101+01501100851ADDAA106000091AG10999GF106991041021008001001011MA1999999094761MD1999999+0081REMSYN011333   58008
0096827950999991991020118004-07217-035883FM-12+0560SBKG V0200501N00361105001CN0100001N9+02931+01761100851ADDAA106000091AG10999GF107991031021008001001061MA1999999094741MD1999999-0021REMSYN011333   59002
0124827950999991991020218004-07217-035883FM-12+0560SBKG V0200901N00571007501CN0040001N9+02611+02051101051ADDAA106999929AG10999AY161061AY251061GF108991051031008001021999MA1999999094911MD1999999+0171MW1601REMSYN017333   58017 69901
0118827950999991991020318004-07217-035883FM-12+0560SBKG V0200901N00411045001CN0040001N9+02811+01941100901ADDAA106000091AG10999AY121061AY221061GF108991041031008001061071MA1999999094781MD1999999-0131MW1051REMSYN011333   59013
0096827950999991991020418004-07217-035883FM-12+0560SBKG V0200901N00511045001CN0020001N9+02311+02031101101ADDAA106000091AG10999GF107991031071008001021001MA1999999099441MD1999999+0161REMSYN011333   58016
0115827950999991991020512004-07217-035883FM-12+0560SBKG V0200901N00311105001CN0100001N9+02511+01961101281ADDAA106000091AG10999GF106991021041008001031041KA1240N+02141MA1999999095141MD1999999-0071REMSYN017333   20214 59007
0096827950999991991020518004-07217-035883FM-12+0560SBKG V0201401N00311220001CN0040001N9+03001+01881100911ADDAA106000091AG10999GF106991031041008001001061MA1999999094801MD1999999-0141REMSYN011333   59014
0096827950999991991020519004-07217-035883FM-12+0560SBKG V0201401N00311220001CN0040001N9+03001+01881100911ADDAA106000091AG10999GF106991031041008001001061MA1999999094801MD1999999-0141REMSYN011333   59014
0115827950999991991020612004-07217-035883FM-12+0560SBKG V0200901N00261007501CN0040001N9+02401+01991101321ADDAA106000091AG10999GF108991051041008001051999KA1240N+02201MA1999999095221MD1999999+0081REMSYN017333   20220 58008
0096827950999991991020818004-07217-035883FM-12+0560SBKG V0209999999999220001CN0500001N9+03021+01841101041ADDAA106000091AG10999GF105991031021008001001011MA1999999094931MD1999999-0101REMSYN011333   59010
0137827950999991991020912004-07217-035883FM-12+0560SBKG V0200901N00311007501CN0100001N9+02531+01981101401ADDAA106000091AG10999AY121061AY221061GF106991061021008001001001KA1240N+02081MA1999999095251MD1999999+0041MW1051REMSYN017333   20208 58004
0096827950999991991020918004-07217-035883FM-12+0560SBKG V0200901N00671220001CN0200001N9+99999+99999100971ADDAA106000091AG10999GF102991011011008001001011MA1999999094861MD1999999-0051REMSYN011333   59005
0096827950999991991021118004-07217-035883FM-12+0560SBKG V0209991C00001220001CN0500001N9+03531+01701100861ADDAA106000091AG10999GF103991031011008001001001MA1999999097861MD1999999-0011REMSYN011333   59001
0137827950999991991021212004-07217-035883FM-12+0560SBKG V0200901N00311220001CN0100001N9+02501+01871101231ADDAA106000091AG10999AY121061AY221061GF106991031021008001001011KA1240N+01331MA1999999095151MD1999999-0091MW1051REMSYN017333   20133 59009
0096827950999991991021318004-07217-035883FM-12+0560SBKG V0200501N00311220001CN0200001N9+03221+01471100851ADDAA106000091AG10999GF104991041051008001001001MA1999999094731MD1999999+0051REMSYN011333   58005
0096827950999991991021418004-07217-035883FM-12+0560SBKG V0200501N00261220001CN0100001N9+03281+01581100941ADDAA106000091AG10999GF105991021021008001001011MA1999999094581MD1999999+0121REMSYN011333   58012
0115827950999991991021512004-07217-035883FM-12+0560SBKG V0200901N00411007501CN0200001N9+02581+02141101451ADDAA106000091AG10999GF106991061021008001001001KA1240N+02261MA1999999095301MD1999999+0081REMSYN017333   20226 58008
0096827950999991991021618004-07217-035883FM-12+0560SBKG V0201401N00461045001CN0040001N9+02631+02051101151ADDAA106000091AG10999GF106991041041008001051001MA1999999095001MD1999999+0051REMSYN011333   58005
0115827950999991991021712004-07217-035883FM-12+0560SBKG V0201401N00261045001CN0100001N9+02601+01911101331ADDAA106000091AG10999GF106991041041008001031001KA1240N+02061MA1999999095171MD1999999-0251REMSYN017333   20206 59025
0124827950999991991021718004-07217-035883FM-12+0560SBKG V0201401N00511012001CN0040001N9+02411+02111101031ADDAA106004091AG10999AY161061AY261061GF108991061081008001021999MA1999999094871MD1999999-0131MW1611REMSYN017333   59013 60041
0096827950999991991021818004-07217-035883FM-12+0560SBKG V0200501N00311045001CN0100001N9+02931+01881100821ADDAA106000091AG10999GF106991031041008001031001MA1999999094711MD1999999-0161REMSYN011333   59016
0137827950999991991021912004-07217-035883FM-12+0560SBKG V0200901N00151007501CN0100001N9+02541+01981101241ADDAA106000091AG10999AY121061AY221061GF106991061021008001001001KA1240N+02121MA1999999095091MD1999999+0031MW1051REMSYN017333   20212 58003
0096827950999991991021918004-07217-035883FM-12+0560SBKG V0200501N00511045001CN0100001N9+02941+01721100971ADDAA106000091AG10999GF107991041081008001051001MA1999999094861MD1999999+0151REMSYN011333   58015
0143827950999991991022012004-07217-035883FM-12+0560SBKG V0200501N00461007501CN0100001N9+02251+02011101321ADDAA124000391AG10999AY121061AY221061GF106991061021008001001001KA1240N+02041MA1999999095191MD1999999+0101MW1051REMSYN023333   20204 58010 69934
0096827950999991991022018004-07217-035883FM-12+0560SBKG V0200501N00361220001CN0200001N9+03001+01611101011ADDAA106000091AG10999GF104991041021008001001001MA1999999094901MD1999999+0041REMSYN011333   58004
0115827950999991991022112004-07217-035883FM-12+0560SBKG V0200501N00461220001CN0200001N9+02591+01091101271ADDAA106000091AG10999GF107991041021008001001011KA1240N+02061MA1999999095141MD1999999-0051REMSYN017333   20206 59005
0143827950999991991022212004-07217-035883FM-12+0560SBKG V0209999999999220001CN0500001N9+02621+02291101381ADDAA124017091AG10999AY161061AY231061GF103991021051008001021071KA1240N+02131MA1999999097541MD1999999+0141MW1091REMSYN023333   20213 58014 60174
0115827950999991991022218004-07217-035883FM-12+0560SBKG V0201401N00311105001CN0200001N9+03111+01621100901ADDAA106000091AG10999GF106991021011008001001021MA1999999094872MD1999999+0011REMSYN011333   58001EQDQ01+094873APOSP 
0154827950999991991022312004-07217-035883FM-12+0560SBKG V0201801N00461007501CN0200001N9+02421+01931101571ADDAA124000991AA299001091AG10999AY161061AY221061GF108991081051008001999999KA1240N+02021MA1999999095401MD1999999+0161MW1021REMSYN023333   20202 58016 69994
0115827950999991991022412004-07217-035883FM-12+0560SBKG V0201401N00411220001CN0200001N9+02591+02011101551ADDAA106000091AG10999GF106991041021008001001011KA1240N+02101MA1999999095391MD1999999-0011REMSYN017333   20210 59001
0096827950999991991022418004-07217-035883FM-12+0560SBKG V0200901N00461220001CN0100001N9+03131+01871101181ADDAA106000091AG10999GF104991031011008001001011MA1999999095061MD1999999-0011REMSYN011333   59001
0096827950999991991022618004-07217-035883FM-12+0560SBKG V0201401N00411220001CN0100001N9+03021+01761100981ADDAA106000091AG10999GF106991031021008001001041MA1999999094871MD1999999-0041REMSYN011333   59004
0137827950999991991022712004-07217-035883FM-12+0560SBKG V0201401N00361007501CN0100001N9+02621+01931101401ADDAA106000091AG10999AY121061AY221061GF106991061021008001001001KA1240N+02021MA1999999095251MD1999999+0131MW1051REMSYN017333   20202 58013
0115827950999991991030112004-07217-035883FM-12+0560SBKG V0201401N00511007501CN0200001N9+02621+01881101351ADDAA106000091AG10999GF106991061021008001001001KA1240N+01971MA1999999095211MD1999999-0071REMSYN017333   20197 59007
0096827950999991991030118004-07217-035883FM-12+0560SBKG V0201401N00621220001CN0100001N9+03031+01881100931ADDAA106000091AG10999GF106991031021008001001041MA1999999094821MD1999999-0091REMSYN011333   59009
0115827950999991991030212004-07217-035883FM-12+0560SBKG V0201401N00621007501CN0200001N9+02661+02021101311ADDAA106000091AG10999GF106991061021008001001001KA1240N+01881MA1999999095171MD1999999-0041REMSYN017333   20188 59004
0096827950999991991030518004-07217-035883FM-12+0560SBKG V0209999999999220001CN0500001N9+03121+02171100981ADDAA106000091AG10999GF103991031001008001021041MA1999999097301MD1999999-0051REMSYN011333   59005
0115827950999991991030612004-07217-035883FM-12+0560SBKG V0200901N00621007501CN0200001N9+02611+02011101841ADDAA106000091AG10999GF105991051021008001001001KA1240N+01961MA1999999095391MD1999999-0061REMSYN017333   20196 59006
0115827950999991991030712004-07217-035883FM-12+0560SBKG V0209999999999220001CN0100001N9+02541+02001101141ADDAA106000091AG10999GF100991001001999999001001KA1240N+01951MA1999999095001MD1999999-0191REMSYN017333   20195 59019
0102827950999991991030918004-07217-035883FM-12+0560SBKG V0201401N00211007501CN0040001N9+02171+02031101181ADDAA106019091AG10999GF108991081071008001999999MA1999999095011MD1999999+0211REMSYN017333   58021 60191
0096827950999991991031018004-07217-035883FM-12+0560SBKG V0201401N00151007501CN0040001N9+02751+01941101031ADDAA106000091AG10999GF108991051061008001011001MA1999999094891MD1999999-0121REMSYN011333   59012
0143827950999991991031512004-07217-035883FM-12+0560SBKG V0209999999999045001CN0500001N9+02501+02291101271ADDAA124004091AG10999AY161061AY231061GF106991041051008001031041KA1240N+02091MA1999999097401MD1999999+0851MW1091REMSYN023333   20209 58085 60044
0115827950999991991031612004-07217-035883FM-12+0560SBKG V0203601N00211045001CN0200001N9+02671+01991101161ADDAA106000091AG10999GF107991031051008001081021KA1240N+02231MA1999999095041MD1999999-0071REMSYN017333   20223 59007
0124827950999991991031618004-07217-035883FM-12+0560SBKG V0200901N00261007501CN0040001N9+02731+02121100761ADDAA106001091AG10999AY191061AY261061GF108991051031008001001071MA1999999094651MD1999999+0031MW1211REMSYN017333   58003 60011
0143827950999991991031712004-07217-035883FM-12+0560SBKG V0203601N00311045001CN0100001N9+02541+02041101171ADDAA124007091AG10999AY121061AY221061GF107991031031008001071031KA1240N+02201MA1999999095031MD1999999-0011MW1051REMSYN023333   20220 59001 60074
0096827950999991991031818004-07217-035883FM-12+0560SBKG V0200501N00461105001CN0100001N9+02811+02021100961ADDAA106000091AG10999GF107991041041008001001061MA1999999094841MD1999999+0081REMSYN011333   58008
0096827950999991991031918004-07217-035883FM-12+0560SBKG V0200901N00361045001CN0100001N9+02931+02821101051ADDAA106000091AG10999GF106991031021008001051041MA1999999094931MD1999999-0091REMSYN011333   59009
0143827950999991991032012004-07217-035883FM-12+0560SBKG V0200901N00211004201CN0100001N9+02371+01971101451ADDAA124999929AG10999AY121061AY211061GF107991061051004501011001KA1240N+02031MA1999999095281MD1999999-0041MW1511REMSYN023333   20203 59004 69904
0096827950999991991032018004-07217-035883FM-12+0560SBKG V0200501N00311220001CN0100001N9+03031+01641101011ADDAA106000091AG10999GF105991031021008001001011MA1999999094891MD1999999-0041REMSYN011333   59004
0096827950999991991032118004-07217-035883FM-12+0560SBKG V0200501N00311220001CN0100001N9+03081+01781100911ADDAA106000091AG10999GF103991031021008001001001MA1999999094811MD1999999-0081REMSYN011333   59008
0115827950999991991032212004-07217-035883FM-12+0560SBKG V0200901N00261045001CN0200001N9+02551+01881101101ADDAA106000091AG10999GF106991041021008001061011KA1240N+02161MA1999999094961MD1999999-0171REMSYN017333   20216 59017
0115827950999991991032312004-07217-035883FM-12+0560SBKG V0200901N00151007501CN0200001N9+02561+02141101241ADDAA106000091AG10999GF106991061051008001001001KA1240N+02161MA1999999095101MD1999999+0141REMSYN017333   20216 58014
0096827950999991991032318004-07217-035883FM-12+0560SBKG V0200901N00571007501CN0200001N9+03021+01891100691ADDAA106000091AG10999GF105991051021008001001001MA1999999094601MD1999999-0011REMSYN011333   59001
0096827950999991991032418004-07217-035883FM-12+0560SBKG V0200901N00671045001CN0200001N9+03031+02341100841ADDAA106000091AG10999GF106991041021008001081001MA1999999094741MD1999999-0081REMSYN011333   59008
0143827950999991991032512004-07217-035883FM-12+0560SBKG V0200901N00571007501CN0040001N9+02501+02051101341ADDAA124999929AG10999AY121061AY221061GF108991051071008001021999KA1240N+02201MA1999999095191MD1999999+0171MW1501REMSYN023333   20220 58017 69904
0124827950999991991032518004-07217-035883FM-12+0560SBKG V0201401N00411007501CN0020001N9+02331+02171101081ADDAA106003091AG10999AY121061AY261061GF108991061071008001021001MA1999999094921MD1999999-0181MW1651REMSYN017333   59018 60031
0118827950999991991032612004-07217-035883FM-12+0560SBKG V0201401N00211007501CN0100001N9+02371+02051101271ADDAG10999AY121061AY221061GF107991051021008001061021KA1240N+02081MA1999999095111MW1101REMSYN023333   20208 59000860194
0131827950999991991032618004-07217-035883FM-12+0560SBKG V0200501N00261045001CN0100001N9+02911+01771100042ADDAA106000091AG10999GF106991041021008001041011MA1999999104722MD1999999-0191REMSYN011333   59019EQDQ01+104723APOSP Q02+100043APOSLP
0143827950999991991032812004-07217-035883FM-12+0560SBKG V0200901N00361009001CN0100001N9+02381+01911101111ADDAA124098091AG10999AY161061AY251061GF108991061081004501051999KA1240N+02101MA1999999094951MD1999999-0091MW1151REMSYN023333   20210 59009 60984
0096827950999991991032818004-07217-035883FM-12+0560SBKG V0201401N00511045001CN0100001N9+02711+02101100631ADDAA106000091AG10999GF106991041061008001081001MA1999999094521MD1999999-0031REMSYN011333   59003
0096827950999991991033018004-07217-035883FM-12+0560SBKG V0200501N00461105001CN0040001N9+02701+02111101121ADDAA106000091AG10999GF108991021061008001001081MA1999999094981MD1999999+0171REMSYN011333   58017
0115827950999991991033112004-07217-035883FM-12+0560SBKG V0201401N00311220001CN0100001N9+02481+02111101341ADDAA106000091AG10999GF106991031021008001001011KA1240N+02001MA1999999095181MD1999999-0161REMSYN017333   20200 59016
0096827950999991991033118004-07217-035883FM-12+0560SBKG V0201401N00211220001CN0100001N9+02801+02081101071ADDAA106000091AG10999GF104991041021008001081051MA1999999094951MD1999999-0031REMSYN011333   59003
0107827950999991991040109004-07217-035883FM-12+0560SBKG V0209991C00001002101CN0090001N9+02201+02171999999ADDAG10999AY111031AY211031GF107991071051002501001001MA1999999095641MD1999999+0081MW1101REMSYN011333   58008
0096827950999991991040112004-07217-035883FM-12+0560SBKG V0200801N00411007501CN0200001N9+02601+02101999999ADDAA106000091AG10999GF106991061021008001001001MA1999999095801MD1999999+0101REMSYN011333   58010
0085827950999991991040115004-07217-035883FM-12+0560SBKG V0201001N00311007501CN0200001N9+02851+02101999999ADDAG10999GF105991051011008001001001MA1999999095591MD1999999+0001REMSYN011333   58000
0115827950999991991040118004-07217-035883FM-12+0560SBKG V0200501N00361105001CN0100001N9+02881+02131100981ADDAA106000091AG10999GF105991031021008001001021MA1999999094862MD1999999-0091REMSYN011333   59009EQDQ01+094863APOSP 
0091827950999991991040209004-07217-035883FM-12+0560SBKG V0209991C00001220001CN0090001N9+02121+02091999999ADDAG10999GF101991011051001501001001MA1999999095641MD1999999+0001MW1101REMSYN011333   58000
0115827950999991991040212004-07217-035883FM-12+0560SBKG V0201201N00411004201CN0200001N9+02601+02121999999ADDAA106000091AG10999GF106991061021004501001001KA1240N+02041MA1999999095811MD1999999+0011REMSYN017333   20204 58001
0085827950999991991040215004-07217-035883FM-12+0560SBKG V0201401N00411007501CN0200001N9+02861+02011999999ADDAG10999GF105991051021008001001001MA1999999095741MD1999999+0151REMSYN011333   58015
0137827950999991991040218004-07217-035883FM-12+0560SBKG V0200501N00571220001CN0100001N9+02931+02031100991ADDAA106000091AG10999AY121061AY221061GF105991031071008001001011MA1999999094922MD1999999+0061MW1161REMSYN011333   58006EQDQ01+094923APOSP 
0091827950999991991040309004-07217-035883FM-12+0560SBKG V0201101N00211220001CN0080001N9+02251+02221999999ADDAG10999GF104991041081001501001001MA1999999095781MD1999999+0141MW1101REMSYN011333   58014
0132827950999991991040312004-07217-035883FM-12+0560SBKG V0201001N00411004201CN0200001N9+02641+02161999999ADDAA124000791AA299001091AG10999GF106991061021004501001001KA1240N+02221MA1999999095831MD1999999+0121REMSYN023333   20222 58012 69974
0085827950999991991040315004-07217-035883FM-12+0560SBKG V0201501N00211007501CN0200001N9+02981+02091999999ADDAG10999GF105991051011008001001001MA1999999095861MD1999999+0121REMSYN011333   58012
0122827950999991991040318004-07217-035883FM-12+0560SBKG V0201401N00311007501CN0010001N9+02811+02121101231ADDAA106000091AG10999AY151061AY291061GF108991081071008001999999MD1999999+0181MW1161REMSYN011333   58018EQDQ01+095103APOSP 
0107827950999991991040321004-07217-035883FM-12+0560SBKG V0200901N00311220001CN0200001N9+02501+02211999999ADDAG10999AY161031AY211031GF103991011021008001031001MA1999999095751MD1999999+0301MW1011REMSYN011333   58030
0085827950999991991040409004-07217-035883FM-12+0560SBKG V0201201N00311004201CN0200001N9+02201+02031999999ADDAG10999GF105991051051004501001001MA1999999095561MD1999999-0061REMSYN011333   59006
0143827950999991991040412004-07217-035883FM-12+0560SBKG V0200901N00461007501CN0200001N9+02501+02001101531ADDAA124003091AG10999AY121061AY221061GF106991061021008001001001KA1240N+02051MA1999999095361MD1999999-0031MW1021REMSYN023333   20205 59003 60034
0096827950999991991040415004-07217-035883FM-12+0560SBKG V0201301N00511007501CN0200001N9+02881+02051999999ADDAA106000091AG10999GF105991051021008001001001MA1999999095761MD1999999+0101REMSYN011333   58010
0100827950999991991040418004-07217-035883FM-12+0560SBKG V0201401N00211007501CN0100001N9+02921+02021101081ADDAA106000091AG10999GF105991051021008001001001MD1999999-0141REMSYN011333   59014EQDQ01+094063APOSP 
0115827950999991991040500004-07217-035883FM-12+0560SBKG V0200501N00361220001CN0020001N9+02331+02071101531ADDAA106000091AG10999GF104991011021008001051001KA1240M+02991MA1999999095361MD1999999+0001REMSYN017333   10299 58000
0085827950999991991040509004-07217-035883FM-12+0560SBKG V0201201N00311220001CN0200001N9+02101+02051101001ADDAG10999GF104991999999004501999999MA1999999095581MD1999999+0081REMSYN011333   58008
0115827950999991991040512004-07217-035883FM-12+0560SBKG V0201701N00411220001CN0200001N9+02581+01871999999ADDAA106000091AG10999GF102991021011004501001001KA1240N+02101MA1999999095901MD1999999+0011REMSYN017333   20210 58001
0096827950999991991040515004-07217-035883FM-12+0560SBKG V0201401N00511007501CN0200001N9+02901+01871999999ADDAA106000091AG10999GF105991051021008001001001MA1999999095781MD1999999-0021REMSYN011333   59002
0096827950999991991040519004-07217-035883FM-12+0560SBKG V0200901N00261220001CN0200001N9+02981+01761101131ADDAA106000091AG10999GF104991041031008001001001MA1999999095001MD1999999+0041REMSYN011333   58004
0104827950999991991040521004-07217-035883FM-12+0560SBKG V0200901N00411220001CN0200001N9+02611+02151999999ADDAG10999GF102991021021008001001001MA1999999095702MD1999999+0051REMSYN011333   58005EQDQ01+095703APOSP 
0115827950999991991040600004-07217-035883FM-12+0560SBKG V0200901N00411007501CN0020001N9+02351+02091101371ADDAA106000091AG10999GF107991071061008001001001KA1240M+03051MA1999999095221MD1999999-0141REMSYN017333   10305 59014
0115827950999991991040612004-07217-035883FM-12+0560SBKG V0201801N00311007501CN0200001N9+02521+01891999999ADDAA106000091AG10999GF105991051011008001001001KA1240N+02111MA1999999095921MD1999999+0021REMSYN017333   20211 58002
0100827950999991991040618004-07217-035883FM-12+0560SBKG V0201401N00151220001CN0100001N9+02961+01991100991ADDAA106000091AG10999GF104991041021008001001001MD1999999-0121REMSYN011333   59012EQDQ01+094883APOSP 
0085827950999991991040621004-07217-035883FM-12+0560SBKG V0209991C00001220001CN0200001N9+02681+01971999999ADDAG10999GF101991011011008001001001MA1999999095601MD1999999-0101REMSYN011333   59010
0115827950999991991040700004-07217-035883FM-12+0560SBKG V0201401N00101220001CN9999999N9+02291+01851101331ADDAA106000091AG10999GF100991001001999999001001KA1240M+03001MA1999999095171MD1999999-0051REMSYN017333   10300 59005
0085827950999991991040709004-07217-035883FM-12+0560SBKG V0209991C00001220001CN0200001N9+01981+01931999999ADDAG10999GF100991001001999999001001MA1999999095661MD1999999-0201REMSYN011333   59020
0115827950999991991040712004-07217-035883FM-12+0560SBKG V0201401N00311220001CN0200001N9+02531+01921999999ADDAA106000091AG10999GF103991031011008001001001KA1240N+01981MA1999999095831MD1999999-0091REMSYN017333   20198 59009
0081827950999991991040715004-07217-035883FM-12+0560SBKG V0201001N00311220001CN0200001N9+02901+01901999999ADDAA106000091AG10999GF103991031011008001001001MD1999999-0081REMSYN011333   59008
0085827950999991991040809004-07217-035883FM-12+0560SBKG V0209991C00001004201CN0150001N9+02251+02181999999ADDAG10999GF106991061051004501001001MA1999999095731MD1999999+0201REMSYN011333   58020
0143827950999991991040812004-07217-035883FM-12+0560SBKG V0201201N00361007501CN0200001N9+02461+02211999999ADDAA124002091AG10999AY161061AY221061GF106991061021008001001001KA1240N+02181MA1999999095881MD1999999+0051MW1021REMSYN023333   20218 58005 60024
0085827950999991991040815004-07217-035883FM-12+0560SBKG V0201301N00511007501CN0200001N9+02861+02111999999ADDAG10999GF105991051021008001001001MA1999999095661MD1999999+0011REMSYN011333   58001
0100827950999991991040818004-07217-035883FM-12+0560SBKG V0200701N00101007501CN0200001N9+02971+01951100971ADDAA106000091AG10999GF106991051021008001001041MD1999999+0021REMSYN011333   58002EQDQ01+094863APOSP 
0085827950999991991040821004-07217-035883FM-12+0560SBKG V0201001N00411220001CN0200001N9+02621+02011101101ADDAG10999GF101991999999008001999999MA1999999095571MD1999999-0081REMSYN011333   59008
0085827950999991991040909004-07217-035883FM-12+0560SBKG V0200201N00261220001CN0200001N9+02201+02141999999ADDAG10999GF102991021051008001001001MA1999999095641MD1999999+0081REMSYN011333   58008
0115827950999991991040912004-07217-035883FM-12+0560SBKG V0201401N00361007501CN0200001N9+02481+01981101311ADDAA106000091AG10999GF107991051041008001001041KA1240N+02011MA1999999095151MD1999999-0051REMSYN017333   20201 59005
0096827950999991991040918004-07217-035883FM-12+0560SBKG V0201401N00211045001CN0100001N9+02841+02241101001ADDAA106000091AG10999GF106991041031008001021001MA1999999094841MD1999999+0011REMSYN011333   58001
0104827950999991991040921004-07217-035883FM-12+0560SBKG V0201201N00411220001CN0200001N9+02571+01961999999ADDAG10999GF101991011011008001001001MA1999999095442MD1999999-0131REMSYN011333   59013EQDQ01+095443APOSP 
0085827950999991991041009004-07217-035883FM-12+0560SBKG V0209991C00001220001CN0200001N9+01981+01931999999ADDAG10999GF104991041051004501001001MA1999999095581MD1999999-0021REMSYN011333   59002
0115827950999991991041012004-07217-035883FM-12+0560SBKG V0200901N00511007501CN0200001N9+02471+01881102251ADDAA106000091AG10999GF105991051021008001001001KA1240N+02001MA1999999095091MD1999999-0061REMSYN017333   20200 59006
0115827950999991991041018004-07217-035883FM-12+0560SBKG V0200901N00211220001CN0200001N9+02881+01701100902ADDAA106000091AG10999GF105991031021008001001041MA1999999094781MD1999999-0091REMSYN011333   59009EQDQ01+100903APOSLP
0115827950999991991041100004-07217-035883FM-12+0560SBKG V0200901N00261220001CN0040001N9+02231+01921101171ADDAA106000091AG10999GF100991001001999999001001KA1240M+02931MA1999999095021MD1999999-0191REMSYN017333   10293 59019
0091827950999991991041109004-07217-035883FM-12+0560SBKG V0209991C00001220001CN0140001N9+01961+01911999999ADDAG10999GF101991011011004501001001MA1999999095471MD1999999-0111MW1101REMSYN011333   59011
0115827950999991991041112004-07217-035883FM-12+0560SBKG V0200901N00311220001CN0200001N9+02531+01911101251ADDAA106000091AG10999GF104991041021008001001001KA1240N+01991MA1999999095101MD1999999+0011REMSYN017333   20199 58001
0096827950999991991041118004-07217-035883FM-12+0560SBKG V0200501N00261007501CN0200001N9+02911+01741100841ADDAA106000091AG10999GF105991051021008001001001MA1999999094721MD1999999-0061REMSYN011333   59006
0085827950999991991041121004-07217-035883FM-12+0560SBKG V0201201N00511220001CN0200001N9+02841+01881999999ADDAG10999GF102991021011008001001001MA1999999095301MD1999999-0181REMSYN011333   59018
0115827950999991991041200004-07217-035883FM-12+0560SBKG V0200501N00211220001CN0020001N9+02271+02031101141ADDAA106000091AG10999GF100991001001999999001001KA1240M+02991MA1999999095001MD1999999-0021REMSYN017333   10299 59002
0089827950999991991041209004-07217-035883FM-12+0560SBKG V0209991C00001220001CN0200001N9+02051+01981999999ADDAG10999GF105991011051004501001041MD1999999+0151REMSYN011333   58015EQDQ01 095623APOSLP
0115827950999991991041212004-07217-035883FM-12+0560SBKG V0201001N00411220001CN0200001N9+02621+02031999999ADDAA106000091AG10999GF104991041011008001001001KA1240N+01981MA1999999095701MD1999999+0041REMSYN017333   20198 58004
0085827950999991991041215004-07217-035883FM-12+0560SBKG V0201401N00361007501CN0200001N9+02901+01991999999ADDAG10999GF105991051011008001001001MA1999999095501MD1999999-0041REMSYN011333   59004
0100827950999991991041218004-07217-035883FM-12+0560SBKG V0200901N00311220001CN0200001N9+03041+01601100771ADDAA106000091AG10999GF107991041051008001001041MD1999999-0051REMSYN011333   59005EQDQ01+094673APOSP 
0085827950999991991041221004-07217-035883FM-12+0560SBKG V0201001N00311220001CN0200001N9+02601+02031999999ADDAG10999GF103991011011008001001011MA1999999095441MD1999999+0141REMSYN011333   58014
0115827950999991991041300004-07217-035883FM-12+0560SBKG V0200901N00261045001CN0040001N9+02291+02031101121ADDAA106000091AG10999GF105991031031008001061001KA1240M+03121MA1999999094981MD1999999-0021REMSYN017333   10312 59002
0085827950999991991041309004-07217-035883FM-12+0560SBKG V0209991C00001220001CN0200001N9+02161+01961999999ADDAG10999GF101991011011004501001001MA1999999095421MD1999999-0131REMSYN011333   59013
0085827950999991991041315004-07217-035883FM-12+0560SBKG V0201001N00511220001CN0200001N9+02901+01811999999ADDAG10999GF104991041011008001001001MA1999999095451MD1999999-0051REMSYN011333   59005
0085827950999991991041321004-07217-035883FM-12+0560SBKG V0200901N00411220001CN0200001N9+02581+01801999999ADDAG10999GF101991011011008001001001MA1999999095381MD1999999-0061REMSYN011333   59006
0115827950999991991041400004-07217-035883FM-12+0560SBKG V0201401N00311220001CN0020001N9+02231+01901101101ADDAA106000091AG10999GF100991001001999999001001KA1240M+02921MA1999999094961MD1999999-0021REMSYN017333   10292 59002
0085827950999991991041409004-07217-035883FM-12+0560SBKG V0201001N00311220001CN0200001N9+02021+01951999999ADDAG10999GF102991021011004501001001MA1999999095301MD1999999-0121REMSYN011333   59012
0115827950999991991041412004-07217-035883FM-12+0560SBKG V0201401N00211007501CN0200001N9+02541+02061101181ADDAA106000091AG10999GF106991061041008001001001KA1240N+02041MA1999999095041MD1999999+0001REMSYN017333   20204 58000
0085827950999991991041415004-07217-035883FM-12+0560SBKG V0201101N00511220001CN0200001N9+02921+01831999999ADDAG10999GF104991041011008001001001MA1999999095441MD1999999-0011REMSYN011333   59001
0096827950999991991041418004-07217-035883FM-12+0560SBKG V0201001N00511220001CN0200001N9+03101+01801999999ADDAA106000091AG10999GF104991041011008001001001MA1999999095351MD1999999+0071REMSYN011333   58007
0085827950999991991041421004-07217-035883FM-12+0560SBKG V0200901N00411220001CN0200001N9+02581+01801999999ADDAG10999GF101991011011008001001001MA1999999095381MD1999999-0061REMSYN011333   59006
0085827950999991991041509004-07217-035883FM-12+0560SBKG V0201801N00261220001CN0200001N9+02001+01951999999ADDAG10999GF101991011011004501001001MA1999999095611MD1999999+0311REMSYN011333   58031
0115827950999991991041512004-07217-035883FM-12+0560SBKG V0201001N00511220001CN9999999N9+02541+01881999999ADDAA106000091AG10999GF104991041011004501001001KA1240N+02001MA1999999095781MD1999999+0471REMSYN017333   20200 58047
0085827950999991991041515004-07217-035883FM-12+0560SBKG V0201701N00511220001CN0200001N9+02901+01871999999ADDAG10999GF106991031011008001001041MA1999999095711MD1999999+0271REMSYN011333   58027
0096827950999991991041518004-07217-035883FM-12+0560SBKG V0201001N00461045001CN0200001N9+02611+02021999999ADDAA106000091AG10999GF106991031011008001031001MA1999999095571MD1999999+0221REMSYN011333   58022
0085827950999991991041521004-07217-035883FM-12+0560SBKG V0201001N00411045001CN0200001N9+02301+01981999999ADDAG10999GF106991031041008001031001MA1999999095601MD1999999+0241REMSYN011333   58024
0115827950999991991041600004-07217-035883FM-12+0560SBKG V0201401N00311007501CN0040001N9+02131+01911101241ADDAA106000091AG10999GF106991061061008001001001KA1240M+03251MA1999999095081MD1999999+0141REMSYN017333   10325 58014
0085827950999991991041609004-07217-035883FM-12+0560SBKG V0209991C00001004201CN0200001N9+02101+01951999999ADDAG10999GF107991051051004501031001MA1999999095641MD1999999+0031REMSYN011333   58003
0107827950999991991041612004-07217-035883FM-12+0560SBKG V0201301N00511004201CN0200001N9+02301+01921999999ADDAG10999AY121061AY201061GF107991061051004501031001MA1999999095831MD1999999+0051MW1211REMSYN011333   58005
0128827950999991991041618004-07217-035883FM-12+0560SBKG V0201401N00311012001CN0040001N9+02211+01941101131ADDAA106006091AG10999AY161061AY251061GF108991081081008001999999MD1999999+0091MW1021REMSYN017333   58009 60061EQDQ01+094953APOSP 
0107827950999991991041621004-07217-035883FM-12+0560SBKG V0201201N00311004201CN0060001N9+02141+01931999999ADDAG10999AY161031AY221031GF107991071051004501001001MA1999999095701MD1999999+0101MW1601REMSYN011333   58010
0143827950999991991041700004-07217-035883FM-12+0560SBKG V0200901N00151012001CN0020001N9+02111+01951101291ADDAA106004091AG10999AY151061AY221061GF108991081081008001999999KA1240M+02341MA1999999095401MD1999999+0061MW1511REMSYN023333   10234 58006 60041
0091827950999991991041709004-07217-035883FM-12+0560SBKG V0209991C00001220001CN0120001N9+01961+01941999999ADDAG10999GF101991011051001501001001MA1999999095501MD1999999-0111MW1101REMSYN011333   59011
0143827950999991991041712004-07217-035883FM-12+0560SBKG V0200901N00311007501CN0200001N9+02381+02051101141ADDAA124010091AG10999AY151061AY251061GF107991051021008001031001KA1240N+01981MA1999999094981MD1999999-0121MW1021REMSYN023333   20198 59012 60104
0085827950999991991041715004-07217-035883FM-12+0560SBKG V0209991C00001007501CN0200001N9+02801+02031999999ADDAG10999GF105991051021008001001001MA1999999095541MD1999999-0281REMSYN011333   59028
0085827950999991991041721004-07217-035883FM-12+0560SBKG V0201101N00511004201CN0200001N9+02241+02121999999ADDAG10999GF107991051021004501031001MA1999999095361MD1999999-0341REMSYN011333   59034
0115827950999991991041800004-07217-035883FM-12+0560SBKG V0200501N00151220001CN0020001N9+02181+01951101151ADDAA106000091AG10999GF103991031011008001001001KA1240M+02811MA1999999094991MD1999999-0151REMSYN017333   10281 59015
0121827950999991991041812004-07217-035883FM-12+0560SBKG V0200901N00361012001CN0100001N9+02401+02031101161ADDAA124999929AG10999GF108991061081008001051999KA1240N+02161MA1999999095001MD1999999+0021REMSYN023333   20216 58002 69904
0085827950999991991041815004-07217-035883FM-12+0560SBKG V0201001N00511004201CN0200001N9+02701+01991999999ADDAG10999GF107991061021004501031001MA1999999095581MD1999999+0041REMSYN011333   58004
0107827950999991991041818004-07217-035883FM-12+0560SBKG V0200901N00311045001CN0200001N9+02361+02221999999ADDAG10999AY191061AY261061GF107991041021004501061001MA1999999095411MD1999999+0051MW1291REMSYN011333   58005
0115827950999991991041900004-07217-035883FM-12+0560SBKG V0200501N00311007501CN0020001N9+02171+01991101201ADDAA106000091AG10999GF105991051051008001001001KA1240M+02701MA1999999095041MD1999999+0051REMSYN017333   10270 58005
0091827950999991991041909004-07217-035883FM-12+0560SBKG V0209991C000019999999N0080001N9+02141+02091999999ADDAG10999GF105991051001001501001001MA1999999095621MD1999999+0101MW1101REMSYN011333   58010
0143827950999991991041912004-07217-035883FM-12+0560SBKG V0201401N00361045001CN0040001N9+02411+02111101381ADDAA124026091AG10999AY161061AY221061GF106991031051008001041001KA1240N+02131MA1999999095211MD1999999+0211MW1021REMSYN023333   20213 58021 60264
0085827950999991991041915004-07217-035883FM-12+0560SBKG V0201101N00311004201CN0200001N9+02681+02201999999ADDAG10999GF106991061021004501001001MA1999999095771MD1999999+0191REMSYN011333   58019
0124827950999991991041918004-07217-035883FM-12+0560SBKG V0201201N00361004201CN0000001N9+02741+02141999999ADDAA106091091AG19005AY161061AY221061GF105991051021004501001001MA1999999095601MD1999999+0191MW1021REMSYN017333   58019 60911
0107827950999991991041921004-07217-035883FM-12+0560SBKG V0201201N00361220001CN0200001N9+02381+02191999999ADDAG10999AY161031AY221031GF104991021021004501031001MA1999999095621MD1999999+0211MW1061REMSYN011333   58021
0121827950999991991042000004-07217-035883FM-12+0560SBKG V0201401N00311220001CN0020001N9+02221+01991101381ADDAA124002091AG10999GF104991021011008001001011KA1240M+02671MA1999999095211MD1999999+0001REMSYN023333   10267 58000 60024
0091827950999991991042009004-07217-035883FM-12+0560SBKG V0209991C00001001201CN0100001N9+02121+02071999999ADDAG10999GF106991061051001501001001MA1999999095801MD1999999+0181MW1101REMSYN011333   58018
0143827950999991991042012004-07217-035883FM-12+0560SBKG V0200901N00461007501CN0020001N9+02431+02091101531ADDAA124006091AG10999AY161061AY221061GF106991051021008001001011KA1240N+02101MA1999999095351MD1999999+0141MW1021REMSYN023333   20210 58014 60064
0096827950999991991042018004-07217-035883FM-12+0560SBKG V0201101N02361220001CN0200001N9+02751+02281101281ADDAA106000091AG10999GF104991021021008001001011MA1999999095131MD1999999+0131REMSYN011333   58013
0104827950999991991042021004-07217-035883FM-12+0560SBKG V0201001N00411220001CN0200001N9+02501+02111999999ADDAG10999GF101991011021008001001001MA1999999095752MD1999999+0131REMSYN011333   58013EQDQ01+095753APOSP 
0115827950999991991042100004-07217-035883FM-12+0560SBKG V0201401N00151220001CN0040001N9+02261+02031101461ADDAA106000091AG10999GF103991031011008001001001KA1240M+02821MA1999999095291MD1999999+0081REMSYN017333   10282 58008
0085827950999991991042109004-07217-035883FM-12+0560SBKG V0201601N00261004201CN0200001N9+02181+02061999999ADDAG10999GF106991061051004501001001MA1999999095851MD1999999+0051REMSYN011333   58005
0115827950999991991042112004-07217-035883FM-12+0560SBKG V0201401N00361105001CN0020001N9+02521+02071101441ADDAA106000091AG10999GF106991041021008001001021KA1240N+02121MA1999999095371MD1999999+0021REMSYN017333   20212 58002
0081827950999991991042115004-07217-035883FM-12+0560SBKG V0201301N00411220001CN0200001N9+02851+01941999999ADDAA106000091AG10999GF104991041021008001001001MD1999999-0051REMSYN011333   59005
0118827950999991991042118004-07217-035883FM-12+0560SBKG V0200901N00511007501CN0100001N9+02801+01981101041ADDAA106000091AG10999AY121061AY221061GF107991051071008001031001MA1999999094911MD1999999-0221MW1151REMSYN011333   59022
0126827950999991991042121004-07217-035883FM-12+0560SBKG V0200901N00311220001CN0200001N9+02401+02211999999ADDAG10999AY161031AY211031GF104991041021004501001001MA1999999095602MD1999999-0151MW1011REMSYN011333   59015EQDQ01+095603APOSP 
0143827950999991991042200004-07217-035883FM-12+0560SBKG V0200501N00151045001CN0040001N9+02231+01981101421ADDAA106010091AG10999AY161061AY261061GF106991021041008001051001KA1240M+02941MA1999999095251MD1999999-0041MW1021REMSYN023333   10294 59004 60101
0085827950999991991042203004-07217-035883FM-12+0560SBKG V0201201N00311220001CN0200001N9+02101+02071999999ADDAG10999GF103991031051004501001001MA1999999095811MD1999999-0081REMSYN011333   59008
0162827950999991991042212004-07217-035883FM-12+0560SBKG V0201401N004119999999N0140001N9+02161+02021999999ADDAA124018091AG10999AY101061AY261061GF108991999061002501051021KA1240N+02001MA1999999095961MD1999999-0011MW1001REMSYN023333   20200 59001 60184EQDQ01+000002SCOTLC
0107827950999991991042215004-07217-035883FM-12+0560SBKG V0201501N004119999999N0200001N9+02541+02021999999ADDAG10999AY101031AY201031GF106991999999004501999999MA1999999095861MD1999999+0061MW1021REMSYN011333   58006
0124827950999991991042218004-07217-035883FM-12+0560SBKG V0201201N00571009001CN0050001N9+02401+02171999999ADDAA106999929AG10999AY161061AY221061GF107991071081004501001001MA1999999095601MD1999999+0001MW1161REMSYN017333   58000 69901
0107827950999991991042221004-07217-035883FM-12+0560SBKG V0201001N00311220001CN0200001N9+02241+02121999999ADDAG19007AY161031AY221031GF102991021041004501001001MA1999999095671MD1999999+0041MW1031REMSYN011333   58004
0154827950999991991042300004-07217-035883FM-12+0560SBKG V0200901N00261045001CN0020001N9+02191+01971101391ADDAA106000291AA299000391AG10999AY151061AY211061GF105991031011008001031001KA1240M+02691MA1999999095201MD1999999-0051MW1021REMSYN023333   10269 59005 69921
0085827950999991991042309004-07217-035883FM-12+0560SBKG V0201501N00211220001CN0200001N9+02001+01971999999ADDAG10999GF104991001001999999001011MA1999999095701MD1999999-0051REMSYN011333   59005
0096827950999991991042312004-07217-035883FM-12+0560SBKG V0201601N00511220001CN0200001N9+02501+01961999999ADDAA106000091AG10999GF104991021011008001001011MA1999999095801MD1999999-0161REMSYN011333   59016
0085827950999991991042315004-07217-035883FM-12+0560SBKG V0201201N00511220001CN0200001N9+02761+01891999999ADDAG10999GF106991041011008001001041MA1999999095721MD1999999-0141REMSYN011333   59014
0100827950999991991042318004-07217-035883FM-12+0560SBKG V0200901N00261045001CN0200001N9+02801+01811101141ADDAA106000091AG10999GF107991031021008001031041MD1999999+0051REMSYN011333   58005EQDQ01+095003APOSP 
0085827950999991991042321004-07217-035883FM-12+0560SBKG V0201101N00411220001CN0200001N9+02521+02071101201ADDAG10999GF101991999999008001999999MA1999999095641MD1999999+0001REMSYN011333   58000
0115827950999991991042400004-07217-035883FM-12+0560SBKG V0201401N00261045001CN0040001N9+02241+01981101431ADDAA106000091AG10999GF106991041071008001051001KA1240M+02871MA1999999095261MD1999999+0061REMSYN017333   10287 58006
0091827950999991991042509004-07217-035883FM-12+0560SBKG V0209991C00001004201CN0080001N9+02141+01931999999ADDAG10999GF106991061051004501001001MA1999999095101MD1999999-0041MW1101REMSYN011333   59004
0134827950999991991042512004-07217-035883FM-12+0560SBKG V0201301N00411004201CN0200001N9+02561+01951999999ADDAA106000091AG10999GF106991051021004501001011KA1240N+02141MA1999999095802MD1999999-0041REMSYN017333   20214 59004EQDQ01+095803APOSP 
0085827950999991991042515004-07217-035883FM-12+0560SBKG V0201301N00511007501CN0200001N9+02841+01931999999ADDAG10999GF107991051021008001001041MA1999999095751MD1999999+0031REMSYN011333   58003
0115827950999991991042518004-07217-035883FM-12+0560SBKG V0201401N00411105001CN0040001N9+02861+01721100981ADDAA106000091AG10999GF106991031041008001001051MA1999999094862MD1999999-0051REMSYN011333   59005EQDQ01+094863APOSP 
0085827950999991991042609004-07217-035883FM-12+0560SBKG V0201101N02061220001CN0200001N9+02121+02021999999ADDAG10999GF104991041051001501001001MA1999999095671MD1999999-0031REMSYN011333   59003
0115827950999991991042612004-07217-035883FM-12+0560SBKG V0201401N00311105001CN0200001N9+02461+01971101341ADDAA106000091AG10999GF107991041041008001001081KA1240N+02081MA1999999095181MD1999999-0071REMSYN017333   20208 59007
0104827950999991991042615004-07217-035883FM-12+0560SBKG V0201001N004119999999N0200001N9+02861+02031999999ADDAG10999GF105991999011008001001001MA1999999095651MD1999999-0101REMSYN011333   59010EQDQ01+000042SCOTLC
0128827950999991991042618004-07217-035883FM-12+0560SBKG V0200901N00621007501CN0200001N9+02671+02221100911ADDAA106001091AG10999AY121061AY221061GF107991051071008001021041MD1999999-0091MW1211REMSYN017333   59009 60011EQDQ01+094783APOSP 
0085827950999991991042621004-07217-035883FM-12+0560SBKG V0201301N00311220001CN0200001N9+02431+02181999999ADDAG10999GF104991031021004501001011MA1999999095501MD1999999-0071REMSYN011333   59007
0143827950999991991042700004-07217-035883FM-12+0560SBKG V0200501N00211007501CN0040001N9+02241+02011101281ADDAA106002091AG10999AY161061AY221061GF106991061071008001001001KA1240M+02941MA1999999095121MD1999999-0051MW1021REMSYN023333   10294 59005 60021
0085827950999991991042711004-07217-035883FM-12+0560SBKG V0201601N00211220001CN0200001N9+02141+02041999999ADDAG10999GF101991011011004501001001MA1999999095631MD1999999-0051REMSYN011333   59005
0115827950999991991042712004-07217-035883FM-12+0560SBKG V0201301N00361220001CN0200001N9+02561+01991999999ADDAA106000091AG10999GF104991041011004501001001KA1240N+02101MA1999999095731MD1999999-6101REMSYN017333   20210 59610
0085827950999991991042715004-07217-035883FM-12+0560SBKG V0201501N00311007501CN0200001N9+02881+01991999999ADDAG10999GF105991051011008001001001MA1999999095701MD1999999+0051REMSYN011333   58005
0115827950999991991042718004-07217-035883FM-12+0560SBKG V0201401N00211220001CN0100001N9+02891+01991100901ADDAA106000091AG10999GF104991021021008001001011MA1999999094792MD1999999+0011REMSYN011333   58001EQDQ01+094793APOSP 
0102827950999991991042812004-07217-035883FM-12+0560SBKG V0201401N00311220001CN0100001N9+02441+01951101231ADDAA106000091AG10999GF106991041041008001001011MA1999999095011MD1999999-0071REMSYN017333   2000/ 59007
0085827950999991991042815004-07217-035883FM-12+0560SBKG V0201201N00511007501CN0200001N9+02821+02001999999ADDAG10999GF107991051021008001001041MA1999999095511MD1999999-0191REMSYN011333   59019
0128827950999991991042818004-07217-035883FM-12+0560SBKG V0201401N00211007501CN0040001N9+02601+02291100921ADDAA106000191AG10999AY151061AY251061GF107991051071008001051001MD1999999-0011MW1021REMSYN017333   59001 69911EQDQ01+094783APOSP 
0085827950999991991042821004-07217-035883FM-12+0560SBKG V0200901N002119999999N0040001N9+02311+02171101201ADDAG10999GF106991999999004501999999MA1999999095441MD1999999+0001REMSYN011333   58000
0096827950999991991042909004-07217-035883FM-12+0560SBKG V0209999999999001201CN0060001N9+02101+01951999999ADDAA199000091AG10999GF107991071051001501001001MA1999999095521MD1999999-0061REMSYN011333   59006
0154827950999991991042912004-07217-035883FM-12+0560SBKG V0201301N00511004201CN0200001N9+02441+01991999999ADDAA124000991AA299001091AG10999AY161061AY221061GF107991071021004501001001KA1240N+02101MA1999999095631MD1999999-0011MW1031REMSYN023333   20210 59001 69994
0085827950999991991042915004-07217-035883FM-12+0560SBKG V0200801N00411007501CN0200001N9+02821+01971999999ADDAG10999GF107991051021008001001041MA1999999095601MD1999999+0091REMSYN011333   58009
0122827950999991991042918004-07217-035883FM-12+0560SBKG V0200901N00411045001CN0200001N9+02741+02371100921ADDAA106000091AG10999AY121061AY221061GF108991031081008001031091MD1999999+0021MW1151REMSYN011333   58002EQDQ01+094803APOSP 
0085827950999991991042921004-07217-035883FM-12+0560SBKG V0201001N00311004201CN0200001N9+02281+02111999999ADDAG10999GF108991051051004501021011MA1999999095481MD1999999+0041REMSYN011333   58004
0115827950999991991043000004-07217-035883FM-12+0560SBKG V0200901N00511045001CN0100001N9+02221+01991101201ADDAA106000091AG10999GF108991031051008001031001KA1240M+02901MA1999999095041MD1999999+0011REMSYN017333   10290 58001
0085827950999991991043009004-07217-035883FM-12+0560SBKG V0200601N00411220001CN0200001N9+02121+01951999999ADDAG10999GF107991011011004501001041MA1999999095551MD1999999-0031REMSYN011333   59003
0085827950999991991043015004-07217-035883FM-12+0560SBKG V0201001N00511007501CN0200001N9+02901+99999999999ADDAG10999GF106991061021008001001001MA1999999095651MD1999999+0051REMSYN011333   58005
0096827950999991991043018004-07217-035883FM-12+0560SBKG V0201201N00411220001CN0200001N9+02881+02081999999ADDAA106000091AG10999GF105991041021008001001041MA1999999095351MD1999999+0041REMSYN011333   58004
0126827950999991991043021004-07217-035883FM-12+0560SBKG V0201101N00311001201CN0120001N9+02171+02141999999ADDAG10999AY161031AY221031GF108991999051001501011011MA1999999095481MD1999999+0001MW1611REMSYN011333   58000EQDQ01+000082SCOTLC
0107827950999991991050109004-07217-035883FM-12+0560SBKG V0201801N00311045001CN0100001N9+02141+01931999999ADDAG10999AY111031AY211031GF105991041051004501031001MA1999999095601MD1999999+0051MW1101REMSYN011333   58005
0121827950999991991050112004-07217-035883FM-12+0560SBKG V0201901N00411004201CN0200001N9+02501+02001999999ADDAA124006091AG10999GF107991071021004501001001KA1240N+02111MA1999999095701MD1999999+0051REMSYN023333   20211 58005 60064
0085827950999991991050115004-07217-035883FM-12+0560SBKG V0201201N005119999999N0200001N9+02801+01981999999ADDAG10999GF106991061999008001001001MA1999999095681MD1999999+0031REMSYN011333   58003
0160827950999991991050118004-07217-035883FM-12+0560SBKG V0200501N00151045001CN0100001N9+02611+02131100911ADDAA106000191AG10999AY151061AY221061GF106991041081008001031061MD1999999+0081MW1151REMSYN017333   58008 69911EQDQ01+094783APOSP Q02+999990APOSP Q03+094813APOSP 
0085827950999991991050121004-07217-035883FM-12+0560SBKG V0201501N00511004201CN9999999N9+02281+02231999999ADDAG10999GF108991081051004501999999MA1999999095501MD1999999+0021REMSYN011333   58002
0143827950999991991050200004-07217-035883FM-12+0560SBKG V0209999999999012001CN0020001N9+02171+02021101321ADDAA106028091AG10999AY161061AY221061GF108991081081008001999999KA1240M+02771MA1999999095141MD1999999+0091MW1511REMSYN023333   10277 58009 60281
0091827950999991991050209004-07217-035883FM-12+0560SBKG V0201001N00311045001CN0100001N9+02101+01951999999ADDAG10999GF105991021051004501031001MA1999999095611MD1999999-0041MW1101REMSYN011333   59004
0085827950999991991050215004-07217-035883FM-12+0560SBKG V0201801N00511004201CN0200001N9+02601+01961999999ADDAG10999GF107991071021004501001001MA1999999095721MD1999999+0041REMSYN011333   58004
0186827950999991991050218004-07217-035883FM-12+0560SBKG V0202801N00511004201CN0040001N9+03421+02071100941ADDAA106000291AA299000391AG10999AY151061AY251061GF108991081071004501999999MA1999999095002MD1999999-0011MW1161REMSYN017333   59001 69921EQDQ01+094793APOSP Q02+999990APOSP Q03+095003APOSP 
0126827950999991991050221004-07217-035883FM-12+0560SBKG V0201201N00261004201CN0200001N9+02282+02161999999ADDAG10999AY161031AY221031GF107991071051004501001001MA1999999095501MD1999999+0001MW1031REMSYN011333   58000EQDQ01+029603ATOT  
0102827950999991991050312004-07217-035883FM-12+0560SBKG V0201601N00511009001CN0200001N9+02421+02011999999ADDAA124002091AG10999GF107991071081004501001001MA1999999095661MD1999999-0081REMSYN017333   59008 60024
0085827950999991991050315004-07217-035883FM-12+0560SBKG V0201401N00411009001CN0200001N9+02551+02131999999ADDAG10999GF107991071081004501001001MA1999999095671MD1999999+0051REMSYN011333   58005
0128827950999991991050318004-07217-035883FM-12+0560SBKG V0201801N00411009001CN0200001N9+02531+02041999999ADDAA106005091AG10999AY161061AY251061GF108991051081004501051011MD1999999-0011MW1151REMSYN017333   59001 60051EQDQ01+090923APOSP 
0085827950999991991050321004-07217-035883FM-12+0560SBKG V0201201N00311045001CN0200001N9+02261+02141999999ADDAG10999GF106991011011004501031001MA1999999095511MD1999999+0011REMSYN011333   58001
0115827950999991991050400004-07217-035883FM-12+0560SBKG V0200901N00261220001CN0020001N9+02191+01971101251ADDAA106000091AG10999GF103991011011008001001011KA1240M+02641MA1999999095981MD1999999+0011REMSYN017333   10264 58001
0091827950999991991050409004-07217-035883FM-12+0560SBKG V0201401N00311002101CN0130001N9+02171+02141999999ADDAG10999GF107991051051002501031001MA1999999095541MD1999999+0011MW1101REMSYN011333   58001
0132827950999991991050412004-07217-035883FM-12+0560SBKG V0201401N00511004201CN0200001N9+02421+02051999999ADDAA106000091AA224003091AG10999GF106991051021004501031001KA1240N+02111MA1999999095741MD1999999+0091REMSYN023333   20211 58009 60034
0085827950999991991050415004-07217-035883FM-12+0560SBKG V0201201N00511007501CN0200001N9+02761+02041999999ADDAG10999GF106991061021008001001001MA1999999095621MD1999999-0051REMSYN011333   59005
0162827950999991991050418004-07217-035883FM-12+0560SBKG V0201401N00461045001CN0040001N9+02341+01931101161ADDAA124005091AG10999AY161061AY261061GF106991041041008001031011KA1240N+02131MA1999999095002MD1999999-0061MW1921REMSYN023333   20213 59006 60054EQDQ01+095003APOSP 
0143827950999991991050512004-07217-035883FM-12+0560SBKG V0201401N00411012001CN0200001N9+02311+02131101321ADDAA124005091AG10999AY161061AY261061GF108991081081008001001001KA1240N+02121MA1999999095141MD1999999+0141MW1021REMSYN023333   20212 58014 60054
0107827950999991991050515004-07217-035883FM-12+0560SBKG V0201501N00411009001CN0200001N9+02421+02251999999ADDAG10999AY161031AY221031GF106991061081004501001001MA1999999095701MD1999999+0081MW1211REMSYN011333   58008
0160827950999991991050518004-07217-035883FM-12+0560SBKG V0201401N00151045001CN0100001N9+02511+02271100951ADDAA106002091AG10999AY121061AY221061GF106991041071008001051001MD1999999+0031MW1161REMSYN017333   58003 60021EQDQ01+094813APOSP Q02+999990APOSP Q03+094833APOSP 
0085827950999991991050521004-07217-035883FM-12+0560SBKG V0201201N00511004201CN0200001N9+02201+02061999999ADDAG10999GF106991061051004501001001MA1999999095501MD1999999-0031REMSYN011333   59003
0091827950999991991050609004-07217-035883FM-12+0560SBKG V0201001N00261004201CN0200001N9+02201+01961999999ADDAG10999GF107991071051004501001001MA1999999095611MD1999999-0011MW1211REMSYN011333   59001
0143827950999991991050612004-07217-035883FM-12+0560SBKG V0201401N00211045001CN0100001N9+02441+02211101331ADDAA124019091AG10999AY121061AY221061GF106991041021008001041001KA1240N+02181MA1999999095161MD1999999+0021MW1101REMSYN023333   20218 58002 60194
0085827950999991991050615004-07217-035883FM-12+0560SBKG V0200901N00411004201CN0200001N9+02801+02001999999ADDAG10999GF106991051021004501031001MA1999999095701MD1999999+0001REMSYN011333   58000
0096827950999991991050618004-07217-035883FM-12+0560SBKG V0201201N00411004201CN0200001N9+02601+02191999999ADDAA106000091AG10999GF107991051021004501031001MA1999999095591MD1999999-0131REMSYN011333   59013
0107827950999991991050621004-07217-035883FM-12+0560SBKG V0201001N00311045001CN0200001N9+02301+02221999999ADDAG10999AY121031AY221031GF106991031021004501031001MA1999999095621MD1999999+0121MW1211REMSYN011333   58012
0096827950999991991050718004-07217-035883FM-12+0560SBKG V0201401N00361220001CN0200001N9+02731+02101100941ADDAA106000091AG10999GF104991021021008001041001MA1999999094821MD1999999-0101REMSYN011333   59010
0104827950999991991050721004-07217-035883FM-12+0560SBKG V0201201N00361220001CN0200001N9+99999+99999999999ADDAG10999GF101991011011008001001001MA1999999095552MD1999999-0071REMSYN011333   59007EQDQ01+095553APOSP 
0115827950999991991050800004-07217-035883FM-12+0560SBKG V0200901N00361045001CN0100001N9+02291+02131101321ADDAA106000091AG10999GF107991041041008001071001KA1240M+02841MA1999999095161MD1999999-0011REMSYN017333   10284 59001
0120827950999991991050809004-07217-035883FM-12+0560SBKG V0201001N00261220001CN0200001N9+02101+01981095742ADDAG10999GF104991011011004501031001MA1999999999999MD1999999+0021REMSYN011333   58002EQDQ01+999990APOSP Q02 089863APOSP 
0134827950999991991050812004-07217-035883FM-12+0560SBKG V0201101N00511045001CN0200001N9+99999+99999999999ADDAA106000091AG10999GF106991021011004501031001KA1240N+02101MA1999999095882MD1999999+0131REMSYN017333   20210 58013EQDQ01+095883APOSP 
0085827950999991991050815004-07217-035883FM-12+0560SBKG V0201501N005119999999N0200001N9+02801+02001999999ADDAG10999GF106991011001008001011011MA1999999095771MD1999999-0011REMSYN011333   59001
0085827950999991991050821004-07217-035883FM-12+0560SBKG V0201001N00261220001CN0200001N9+02501+02111999999ADDAG10999GF101991999999008001999999MA1999999095601MD1999999+0081REMSYN011333   58008
0115827950999991991050900004-07217-035883FM-12+0560SBKG V0200901N00261220001CN0200001N9+02301+02091101311ADDAA106000091AG10999GF100991001001999999001001KA1240M+02821MA1999999095141MD1999999-0011REMSYN017333   10282 59001
0091827950999991991050909004-07217-035883FM-12+0560SBKG V0201001N00261009001CN0080001N9+02171+02121999999ADDAG10999GF106991061081004501001001MA1999999095721MD1999999-0021MW1101REMSYN011333   59002
0115827950999991991050912004-07217-035883FM-12+0560SBKG V0201001N00261004201CN0200001N9+02471+02181999999ADDAA106000091AG10999GF107991051021004501031001KA1240N+02081MA1999999095891MD1999999+0071REMSYN017333   20208 58007
0135827950999991991050918004-07217-035883FM-12+0560SBKG V0201301N00411220001CN0200001N9+02861+02111999999ADDAA106000291AA299000391AG10999AY161061AY221061GF104991041011008001001001MA1999999095651MD1999999+0071MW1011REMSYN017333   58007 69921
0085827950999991991050921004-07217-035883FM-12+0560SBKG V0201201N00511220001CN0200001N9+02501+02131999999ADDAG10999GF104991041011008001001001MA1999999095651MD1999999+0061REMSYN011333   58006
0115827950999991991051000004-07217-035883FM-12+0560SBKG V0200901N00361220001CN0200001N9+02271+02051101401ADDAA106000091AG10999GF101991011001999999041001KA1240M+02791MA1999999095241MD1999999+0091REMSYN017333   10279 58009
0132827950999991991051012004-07217-035883FM-12+0560SBKG V0201101N00511220001CN0200001N9+02561+01951999999ADDAA124000291AA299000391AG10999GF101991011011004501001001KA1240N+02101MA1999999095921MD1999999+0031REMSYN023333   20210 58003 69924
0085827950999991991051015004-07217-035883FM-12+0560SBKG V0201001N00511220001CN0200001N9+02841+01931999999ADDAG10999GF101991011011008001001001MA1999999095861MD1999999+0091REMSYN011333   58009
0147827950999991991051018004-07217-035883FM-12+0560SBKG V0200901N00411220001CN0200001N9+02881+01701101181ADDAA106000091AG10999GF103991031021008001001001MA1999999095122MD1999999+0071REMSYN011333   58007EQDQ01+095053APOSP Q02+999990APOSP Q03+095123APOSP 
0085827950999991991051021004-07217-035883FM-12+0560SBKG V0201001N00261220001CN0200001N9+02561+02061999999ADDAG10999GF101991011011008001001001MA1999999095711MD1999999+0061REMSYN011333   58006
0115827950999991991051100004-07217-035883FM-12+0560SBKG V0201201N00311220001CN0042001N9+02301+02131999999ADDAA106000091AG10999GF102991021051001501001001KA1240M+02951MA1999999095891MD1999999+0051REMSYN017333   10295 58005
0085827950999991991051109004-07217-035883FM-12+0560SBKG V0209991C00001220001CN0200001N9+02051+02001999999ADDAG10999GF102991021051004501001001MA1999999095821MD1999999-0041REMSYN011333   59004
0115827950999991991051112004-07217-035883FM-12+0560SBKG V0201801N00361007501CN0200001N9+02421+02011101461ADDAA106000091AG10999GF107991071071008001001001KA1240N+02111MA1999999095301MD1999999-0011REMSYN017333   20211 59001
0107827950999991991051115004-07217-035883FM-12+0560SBKG V0201401N00511007501CN0150001N9+02761+02121999999ADDAG19031AY121031AY221031GF106991051021008001031001MA1999999095821MD1999999-0041MW1151REMSYN011333   59004
0135827950999991991051118004-07217-035883FM-12+0560SBKG V0201501N00621004201CN0080001N9+02461+02261999999ADDAA106000691AA299000591AG10999AY161061AY221061GF107991071021004501001001MA1999999095601MD1999999-0111MW1601REMSYN017333   59011 69961
0085827950999991991051215004-07217-035883FM-12+0560SBKG V0201601N00511007501CN0200001N9+02531+02081999999ADDAG10999GF107991071021008001001001MA1999999095901MD1999999+0081REMSYN011333   58008
0160827950999991991051218004-07217-035883FM-12+0560SBKG V0201801N00511007501CN0200001N9+02501+02051101181ADDAA106999929AG10999AY151061AY221061GF107991051031008001061031MD1999999+0071MW1031REMSYN017333   58007 69901EQDQ01+095023APOSP Q02+999990APOSP Q03+095053APOSP 
0107827950999991991051221004-07217-035883FM-12+0560SBKG V0201401N00411004201CN0200001N9+02281+02091999999ADDAG10999AY161031AY211031GF106991061051004501001001MA1999999095701MD1999999+0021MW1211REMSYN011333   58002
0154827950999991991051300004-07217-035883FM-12+0560SBKG V0201401N00211004201CN0007001N9+02191+02031101471ADDAA106000691AA299000591AG10999AY151061AY251061GF107991071051004501001001KA1240M+02571MA1999999095281MD1999999+0051MW1101REMSYN023333   10257 58005 69961
0085827950999991991051309004-07217-035883FM-12+0560SBKG V0201001N00261220001CN0200001N9+02001+01951999999ADDAG10999GF101991011011004501001001MA1999999095781MD1999999-0071REMSYN011333   59007
0121827950999991991051312004-07217-035883FM-12+0560SBKG V0201701N00511004201CN0200001N9+02381+01971999999ADDAA124000391AG10999GF107991051021004501031001KA1240N+02001MA1999999095881MD1999999-0111REMSYN023333   20200 59011 69934
0107827950999991991051315004-07217-035883FM-12+0560SBKG V0201601N00461009001CN0060001N9+02421+02191999999ADDAG10999AY121031AY221031GF107991061081004501031001MA1999999095801MD1999999-0101MW1601REMSYN011333   59010
0107827950999991991051321004-07217-035883FM-12+0560SBKG V0201301N00311045001CN0200001N9+02301+01161999999ADDAG10999AY161031AY221031GF106991031051004501031001MA1999999095621MD1999999-0081MW1031REMSYN011333   59008
0130827950999991991051400004-07217-035883FM-12+0560SBKG V0201401N00211220001CN0200001N9+02211+02081101371ADDAA106000391AG10999AY151061AY221061GF102991011041008001001011MA1999999095191MD1999999-0081MW1011REMSYN023333   1027/ 59008 69931
0085827950999991991051409004-07217-035883FM-12+0560SBKG V0209991C00001004201CN0200001N9+02161+02021999999ADDAG10999GF107991071051004501001001MA1999999095661MD1999999-0121REMSYN011333   59012
0143827950999991991051412004-07217-035883FM-12+0560SBKG V0201401N00411007501CN0100001N9+02441+02091101331ADDAA124002091AG10999AY121061AY221061GF107991071061008001001001KA1240N+02001MA1999999095161MD1999999-0041MW1101REMSYN023333   20200 59004 60024
0107827950999991991051415004-07217-035883FM-12+0560SBKG V0201801N00511004201CN0020001N9+02401+02261999999ADDAG10999AY161031AY221031GF108991081051004501001001MA1999999095701MD1999999+0101MW1601REMSYN011333   58010
0143827950999991991051418004-07217-035883FM-12+0560SBKG V0201801N00511004201CN0060001N9+02261+02181999999ADDAA106002091AG19057AY161061AY221061GF108991999051004501011011MA1999999095581MD1999999-0021MW1601REMSYN017333   59002 60021EQDQ01+000082SCOTLC
0135827950999991991051500004-07217-035883FM-12+0560SBKG V0200901N00311004201CN0040001N9+02171+02131101321ADDAA106999929AG10999AY121061GF106991061071004501001001KA1240M+02971MA1999999095151MD1999999-0041MW1101REMSYN023333   10297 59004 69901
0091827950999991991051509004-07217-035883FM-12+0560SBKG V0201301N00411002101CN0020001N9+02101+01951999999ADDAG10999GF108991081051002501999999MA1999999095651MD1999999-0011MW1601REMSYN011333   59001
0107827950999991991051515004-07217-035883FM-12+0560SBKG V0201701N00511009001CN0200001N9+02461+02031999999ADDAG10999AY161031AY221031GF107991061081004501031001MA1999999095871MD1999999+0171MW1211REMSYN011333   58017
0160827950999991991051518004-07217-035883FM-12+0560SBKG V0201401N00151007501CN0100001N9+02211+02101101161ADDAA106002091AG10999AY161061AY251061GF108991081071008001999999MD1999999+0081MW1511REMSYN017333   58008 60021EQDQ01+094983APOSP Q02+999990APOSP Q03+094973APOSP 
0107827950999991991051521004-07217-035883FM-12+0560SBKG V0202001N00261045001CN0200001N9+02201+02061999999ADDAG10999AY161031AY221031GF107991041051004501031001MA1999999095641MD1999999+0091MW1021REMSYN011333   58009
0130827950999991991051600004-07217-035883FM-12+0560SBKG V0201401N00151220001CN0100001N9+02141+02001101361ADDAA106001091AG10999AY151061AY251061GF100991001001999999001001MA1999999095181MD1999999+0031MW1101REMSYN023333   1/252 58003 60011
0143827950999991991051612004-07217-035883FM-12+0560SBKG V0201801N00411007501CN0040001N9+02291+01981101361ADDAA124004091AG10999AY121061AY221061GF106991061061008001001001KA1240N+02041MA1999999095081MD1999999-0081MW1101REMSYN023333   20204 59008 60044
0089827950999991991051615004-07217-035883FM-12+0560SBKG V0201801N00511007501CN0200001N9+02661+02001999999ADDAG10999GF105991051021008001031001MD1999999-0081REMSYN011333   59008EQDQ01+095793APOSP 
0135827950999991991051618004-07217-035883FM-12+0560SBKG V0201401N00411012001CN0100001N9+02581+02151101061ADDAA106000991AA299001091AG10999AY151061AY251061GF107991051081008001031071MA1999999094911MD1999999-0071MW1021REMSYN017333   59007 69991
0154827950999991991051700004-07217-035883FM-12+0560SBKG V0200901N00211220001CN0200001N9+02151+01991101361ADDAA106000291AA299000391AG10999AY151061AY221061GF100991001001999999001001KA1240M+02691MA1999999095181MD1999999+0001MW1001REMSYN023333   10269 58000 69921
0085827950999991991051709004-07217-035883FM-12+0560SBKG V0201201N00261045001CN0200001N9+02021+01951999999ADDAG10999GF106991041051004501031001MA1999999095381MD1999999+0101REMSYN011333   58010
0132827950999991991051712004-07217-035883FM-12+0560SBKG V0201001N00511004201CN0200001N9+02341+02001999999ADDAA124000891AA299001091AG10999GF107991061021004501031001KA1240N+02021MA1999999095891MD1999999+0091REMSYN023333   20202 58009 69984
0085827950999991991051715004-07217-035883FM-12+0560SBKG V0201401N00511004201CN0200001N9+02581+01971999999ADDAG10999GF106991061021004501001001MA1999999095881MD1999999+0211REMSYN011333   58021
0132827950999991991051718004-07217-035883FM-12+0560SBKG V0200501N00311045001CN0100001N9+02531+02041101111ADDAA106000091AG10999GF107991041041008001051001MD1999999+0041REMSYN011333   58004EQDQ01+094953APOSP Q02+999990APOSP Q03+094993APOSP 
0085827950999991991051721004-07217-035883FM-12+0560SBKG V0201001N00211045001CN0200001N9+02311+02171999999ADDAG10999GF106991031041004501031001MA1999999095681MD1999999+0061REMSYN011333   58006
0115827950999991991051800004-07217-035883FM-12+0560SBKG V0200501N00311045001CN0200001N9+02251+02071101381ADDAA106000091AG10999GF107991021021008001091061KA1240M+02671MA1999999095211MD1999999+0031REMSYN017333   10267 58003
0142827950999991991051809004-07217-035883FM-12+0560SBKG V0209991C00001220001CN0040001N9+02001+01931999999ADDAG10999GF101991011051004501001001MA1999999999999MD1999999-0021MW1101REMSYN011333   59002EQDQ01+999990APOSP Q02 089883APOSP Q03 095783APOSLP
0155827950999991991051812004-07217-035883FM-12+0560SBKG V0200901N00311007501CN0200001N9+02451+02091101432ADDAG10999GF106991999051008001001001KA1240N+02061MA1999999095262MD1999999+0071REMSYN017333   20206 58007EQDQ01+000052SCOTLCQ02+095263APOSP Q03+101433APOSLP
0085827950999991991051815004-07217-035883FM-12+0560SBKG V0200801N00311007501CN0200001N9+02711+02141999999ADDAG10999GF106991061021008001001001MA1999999095801MD1999999-0081REMSYN011333   59008
0096827950999991991051818004-07217-035883FM-12+0560SBKG V0201201N00361220001CN0200001N9+02901+02041999999ADDAA106000091AG10999GF104991041021008001001001MA1999999095671MD1999999+0001REMSYN011333   58000
0085827950999991991051821004-07217-035883FM-12+0560SBKG V0201201N00311220001CN0200001N9+02401+02171999999ADDAG10999GF101991011021008001001001MA1999999095701MD1999999+0021REMSYN011333   58002
0091827950999991991051909004-07217-035883FM-12+0560SBKG V0201501N00261220001CN0080001N9+02121+02051999999ADDAG10999GF104991011051002501001041MA1999999095721MD1999999-0061MW1101REMSYN011333   59006
0115827950999991991051912004-07217-035883FM-12+0560SBKG V0201801N00211045001CN0200001N9+02391+02031101401ADDAA106000091AG10999GF106991041021008001041001KA1240N+02141MA1999999095241MD1999999-0021REMSYN017333   20214 59002
0085827950999991991051915004-07217-035883FM-12+0560SBKG V0201301N00511009001CN0050001N9+02021+99999999999ADDAG10999GF107991071081004501011011MA1999999095811MD1999999+0011REMSYN011333   58001
0124827950999991991051918004-07217-035883FM-12+0560SBKG V0201201N00311009001CN0090001N9+02151+02101999999ADDAA106010091AG10999AY161061AY221061GF107991071081004501001001MA1999999095721MD1999999+0051MW1151REMSYN017333   58005 60101
0158827950999991991051921004-07217-035883FM-12+0560SBKG V0201201N00311045001CN0200001N9+02151+02011095732ADDAG10999AY161031AY221031GF106991031051004501031001MA1999999999999MD1999999+0031MW1021REMSYN011333   58003EQDQ01+999990APOSP Q02+089863APOSP Q03 089863APOSP 
0107827950999991991052009004-07217-035883FM-12+0560SBKG V0201201N00211004201CN0060001N9+02101+01071999999ADDAG10999AY111031AY211031GF107991061051004501031001MA1999999095701MD1999999-0021MW1101REMSYN011333   59002
0121827950999991991052012004-07217-035883FM-12+0560SBKG V0201301N00621004201CN0200001N9+02341+02071999999ADDAA124011091AG10999GF107991051021004501031001KA1240N+02061MA1999999095781MD1999999-0101REMSYN023333   20206 59010 60114
0153827950999991991052015004-07217-035883FM-12+0560SBKG V0201201N00311001201CN0200001N9+99999+99999999999ADDAG10999AY161031AY221031GA1091+001209009GF109991091021004501031001MA1999999095771ME1101119MW1031REMSYN011333   89004EQDQ01+000072SCOTCVQ02+000062SCOTLC
0124827950999991991052018004-07217-035883FM-12+0560SBKG V0201301N00511004201CN0200001N9+02521+02131999999ADDAA106001091AG19043AY161061AY221061GF107991061021004501031001MA1999999095601MD1999999-0121MW1211REMSYN017333   59012 60011
0107827950999991991052021004-07217-035883FM-12+0560SBKG V0201201N00511220001CN0200001N9+02321+02091999999ADDAG10999AY161031AY221031GF104991041011004501001001MA1999999095611MD1999999-0121MW1011REMSYN011333   59012
0091827950999991991052109004-07217-035883FM-12+0560SBKG V0209991C00001220001CN0000001N9+01901+01901999999ADDAG19029GF103991001001999999001041MA1999999095641MD1999999-0061MW1461REMSYN011333   59006
0143827950999991991052112004-07217-035883FM-12+0560SBKG V0201001N00361220001CN0200001N9+02531+02101999999ADDAA124002091AG10999AY141061AY211061GF104991041011004501001001KA1240N+01901MA1999999095801MD1999999+0021MW1021REMSYN023333   20190 58002 60024
0085827950999991991052115004-07217-035883FM-12+0560SBKG V0201001N00361007501CN0200001N9+02751+02031999999ADDAG10999GF105991051021008001021001MA1999999095771MD1999999+0001REMSYN011333   58000
0115827950999991991052118004-07217-035883FM-12+0560SBKG V0201401N00211045001CN0200001N9+02711+01931100971ADDAA106000091AG10999GF106991031041008001031001MA1999999094842MD1999999-0071REMSYN011333   59007EQDQ01+094843APOSP 
0107827950999991991052209004-07217-035883FM-12+0560SBKG V0201201N00261004201CN0005001N9+02041+01961999999ADDAG10999AY111031AY211031GF106991061051004501001001MA1999999095781MD1999999+0141MW1461REMSYN011333   58014
0137827950999991991052212004-07217-035883FM-12+0560SBKG V0201201N00311004201CN0200001N9+02481+01941999999ADDAA106000091AG10999AY141061AY211061GF105991051021004501001001KA1240N+02041MA1999999095951MD1999999+0151MW1011REMSYN017333   20204 58015
0085827950999991991052215004-07217-035883FM-12+0560SBKG V0201001N00511004201CN0200001N9+02801+01921999999ADDAG10999GF106991061021004501001001MA1999999095951MD1999999+0181REMSYN011333   58018
0132827950999991991052218004-07217-035883FM-12+0560SBKG V0200901N00261220001CN0100001N9+02741+01781101131ADDAA106000091AG10999GF106991031041008001001041MD1999999+0221REMSYN011333   58022EQDQ01+095083APOSP Q02+999990APOSP Q03+095053APOSP 
0085827950999991991052221004-07217-035883FM-12+0560SBKG V0200201N02161220001CN0200001N9+99999+99999999999ADDAG10999GF101991011011008001001001MA1999999095731MD1999999+0111REMSYN011333   58011
0115827950999991991052300004-07217-035883FM-12+0560SBKG V0200501N00261045001CN0200001N9+02341+02171101411ADDAA106000091AG10999GF107991031051008001031021KA1240M+02831MA1999999095241MD1999999+0061REMSYN017333   10283 58006
0085827950999991991052309004-07217-035883FM-12+0560SBKG V0201801N00311045001CN0200001N9+02161+01931999999ADDAG10999GF105991031051004501031001MA1999999093801MD1999999+0021REMSYN011333   58002
0134827950999991991052312004-07217-035883FM-12+0560SBKG V0201401N00211220001CN0200001N9+02481+02011101461ADDAA106000091AG10999GF106991041041008001001011KA1240N+02111MA1999999095302MD1999999-0051REMSYN017333   20211 59005EQDQ01+095303APOSP 
0080827950999991991052315004-07217-035883FM-12+0560SBKG V0201601N004119999999N0200001N9+02821+02101999999ADDAG10999GF105991999999008001999999MA1999999095881ME1315109REMSYN011333   50007
0140827950999991991052318004-07217-035883FM-12+0560SBKG V0202701N00051045001CN0200001N9+02451+02031101151ADDAA106000491AA299000591AG10999AY151061AY251061GF106991021041008001081011MA1999999094992MW1021REMSYN017333   50909 69941EQDQ01+094993APOSP 
0091827950999991991052409004-07217-035883FM-12+0560SBKG V0209991C00001002101CN0100001N9+02191+02141999999ADDAG10999GF107991071051002501001001MA1999999095691MD1999999-0111MW1101REMSYN011333   59011
0135827950999991991052412004-07217-035883FM-12+0560SBKG V0201101N00411004201CN0080001N9+02221+02151999999ADDAA124006091AG19021AY161061GF107991071051004501001001KA1240N+02171MA1999999095881MD1999999-0021MW1101REMSYN023333   20217 59002 60064
0085827950999991991052415004-07217-035883FM-12+0560SBKG V0201301N00361004201CN0200001N9+02471+02161999999ADDAG10999GF107991061021004501031001MA1999999095771MD1999999-0111REMSYN011333   59011
0115827950999991991052418004-07217-035883FM-12+0560SBKG V0201001N99999004201CN0200001N9+02461+02131999999ADDAA106000091AG10999GF107991051021004501031001MA1999999095551MD1999999-0131REMSYN011333   59013EQDQ01+004523WOSPD 
0085827950999991991052421004-07217-035883FM-12+0560SBKG V0201501N00311045001CN0200001N9+02301+02151999999ADDAG10999GF107991041011004501031001MA1999999095521MD1999999-0141REMSYN011333   59014
0143827950999991991052500004-07217-035883FM-12+0560SBKG V0200901N00101105001CN0200001N9+02221+02071101341ADDAA106000191AG10999AY151061AY251061GF105991021001999999081051KA1240M+02841MA1999999095161MD1999999-0031MW1031REMSYN023333   10284 59003 69911
0091827950999991991052509004-07217-035883FM-12+0560SBKG V0201201N00311220001CN0150001N9+02061+01981999999ADDAG10999GF104991031011004501031001MA1999999095651MD1999999+0041MW1101REMSYN011333   58004
0124827950999991991052518004-07217-035883FM-12+0560SBKG V0201501N00411009001CN0200001N9+02301+02071999999ADDAA106999929AG19003AY161061AY221061GF107991071081004501001001MA1999999095611MD1999999+0061MW1011REMSYN017333   58006 69901
0085827950999991991052521004-07217-035883FM-12+0560SBKG V0209991C00001045001CN0200001N9+99999+99999999999ADDAG10999GF106991031051004501031001MA1999999095631MD1999999+0111REMSYN011333   58011
0115827950999991991052600004-07217-035883FM-12+0560SBKG V0201401N00211007501CN0040001N9+02111+01881101431ADDAA106000091AG10999GF105991051051008001001001KA1240M+02431MA1999999095241MD1999999+0081REMSYN017333   10243 58008
0091827950999991991052609004-07217-035883FM-12+0560SBKG V0201601N00211004201CN9999999N9+02041+01991999999ADDAG10999GF107991071051004501001001MA1999999095771MD1999999+0121MW1101REMSYN011333   58012
0143827950999991991052612004-07217-035883FM-12+0560SBKG V0201401N00211045001CN0100001N9+02131+01931101471ADDAA124005091AG10999AY161061AY261061GF108991041081008001031001KA1240N+01991MA1999999095271MD1999999+0091MW1021REMSYN023333   20199 58009 60054
0085827950999991991052615004-07217-035883FM-12+0560SBKG V0201701N00411004201CN0200001N9+02501+01871999999ADDAG10999GF107991051021004501031001MA1999999095841MD1999999+0071REMSYN011333   58007
0132827950999991991052618004-07217-035883FM-12+0560SBKG V0201401N00151007501CN0100001N9+02391+02031101181ADDAA106000091AG10999GF107991071061008001001001MD1999999+0011REMSYN011333   58001EQDQ01+095013APOSP Q02+999990APOSP Q03+095023APOSP 
0085827950999991991052621004-07217-035883FM-12+0560SBKG V0201201N00211220001CN0020001N9+02381+01991999999ADDAG10999GF104991999999004501999999MA1999999095721MD1999999+0091REMSYN011333   58009
0104827950999991991052709004-07217-035883FM-12+0560SBKG V0201201N003119999999N0200001N9+99999+99999999999ADDAG10999GF106991999001004501031001MA1999999095841MD1999999+0071REMSYN011333   58007EQDQ01+000052SCOTLC
0115827950999991991052712004-07217-035883FM-12+0560SBKG V0201801N00461004201CN0200001N9+02221+01841999999ADDAA106000091AG10999GF107991061021004501031001KA1240N+01821MA1999999095961MD1999999+0101REMSYN017333   20182 58010
0096827950999991991052718004-07217-035883FM-12+0560SBKG V0201501N00361045001CN0200001N9+02601+01891999999ADDAA106000091AG10999GF107991041011008001031001MA1999999095781MD1999999+0081REMSYN011333   58008
0115827950999991991052800004-07217-035883FM-12+0560SBKG V0201401N00311045001CN0200001N9+02241+01921101451ADDAA106000091AG10999GF106991021021008001061051KA1240M+02841MA1999999095261MD1999999-0051REMSYN017333   10284 59005
0085827950999991991052809004-07217-035883FM-12+0560SBKG V0201201N00311045001CN0200001N9+02001+01931999999ADDAG10999GF107991031051004501031001MA1999999095801MD1999999+0061REMSYN011333   58006
0115827950999991991052812004-07217-035883FM-12+0560SBKG V0201401N00511045001CN0200001N9+02321+01941999999ADDAA106000091AG10999GF107991041011004501031001KA1240N+02001MA1999999095921MD1999999-0041REMSYN017333   20200 59004
0085827950999991991052815004-07217-035883FM-12+0560SBKG V0201601N00511045001CN0200001N9+02551+01991999999ADDAG10999GF107991041011008001031001MA1999999095781MD1999999+0001REMSYN011333   58000
0132827950999991991052818004-07217-035883FM-12+0560SBKG V0201401N00151105001CN0100001N9+02511+01701101181ADDAA106000091AG10999GF107991041041008001001031MD1999999-0011REMSYN011333   59001EQDQ01+095023APOSP Q02+999990APOSP Q03+095053APOSP 
0085827950999991991052821004-07217-035883FM-12+0560SBKG V0201201N00311220001CN0200001N9+02321+99999999999ADDAG10999GF103991011041008001001011MA1999999095721MD1999999-0041REMSYN011333   59004
0115827950999991991052900004-07217-035883FM-12+0560SBKG V0201401N00211105001CN0200001N9+02171+01841101381ADDAA106000091AG10999GF108991011011008001001071KA1240M+02611MA1999999095201MD1999999-0061REMSYN017333   10261 59006
0091827950999991991052909004-07217-035883FM-12+0560SBKG V0201601N00411004201CN0050001N9+02021+01951999999ADDAG10999GF106991051051004501031001MA1999999095621MD1999999-0181MW1101REMSYN011333   59018
0162827950999991991052912004-07217-035883FM-12+0560SBKG V0200101N04682045001CN0100001N9+02311+01961101271ADDAA124000591AG10999AY151061AY251061GF107991041041008001011041KA1240N+02001MA1999999095101MD1999999-0211MW1021REMSYN023333   20200 59021 69954EQDQ01+004683WOSPD 
0085827950999991991052915004-07217-035883FM-12+0560SBKG V0202501N03601220001CN0008001N9+02551+01891999999ADDAG10999GF104991041021004501071001MA1999999095001MD1999999-0081REMSYN011333   59008
0096827950999991991052918004-07217-035883FM-12+0560SBKG V0201401N00261045001CN0100001N9+02501+01801101041ADDAA106000091AG10999GF107991031041008001081001MA1999999094881MD1999999-0141REMSYN011333   59014
0070827950999991991052921004-07217-035883FM-12+0560SBKG V0201601N00511004201CN0200001N9+02381+01951999999ADDAG10999GF107991051051004501031001MD1999999-0171REMSYN011333   59017
0115827950999991991053000004-07217-035883FM-12+0560SBKG V0200901N00151105001CN0200001N9+02151+01931101311ADDAA106000091AG10999GF107991021021008001001061KA1240M+02631MA1999999095141MD1999999-0061REMSYN017333   10263 59006
0091827950999991991053009004-07217-035883FM-12+0560SBKG V0201501N00311004201CN0030001N9+02061+02031999999ADDAG10999GF107991051051004501031001MA1999999095701MD1999999+0081MW1211REMSYN011333   58008
0154827950999991991053012004-07217-035883FM-12+0560SBKG V0201401N00311007501CN0100001N9+02261+02071101381ADDAA124000491AA299000591AG10999AY161061AY251061GF108991061071008001011999KA1240N+02021MA1999999095201MD1999999+0101MW1101REMSYN023333   20202 58010 69944
0111827950999991991053015004-07217-035883FM-12+0560SBKG V0201201N00411004201CN0200001N9+02461+02071999999ADDAG10999AY161031AY221031GF107991051021004501031001MD1999999+0101MW1021REMSYN011333   58010EQDQ01+095803APOSP 
0135827950999991991053018004-07217-035883FM-12+0560SBKG V0201401N00461045001CN0040001N9+02191+02031101341ADDAA112000991AA299001091AG10999AY151061AY251061GF108991031051008001081001MA1999999095151MD1999999+0271MW1021REMSYN017333   58027 69992
0085827950999991991053021004-07217-035883FM-12+0560SBKG V0201301N00311045001CN0200001N9+02201+02061999999ADDAG10999GF106991041041004501031001MA1999999095671MD1999999-0121REMSYN011333   59012
0143827950999991991053100004-07217-035883FM-12+0560SBKG V0201401N00211045001CN0040001N9+02141+01991101321ADDAA106000191AG19021AY151061AY221061GF108991031071004501071081KA1240M+02631MA1999999095141MD1999999+0001MW1101REMSYN023333   10263 58000 69911
0091827950999991991053109004-07217-035883FM-12+0560SBKG V0209991C00001004201CN0050001N9+02111+02061999999ADDAG10999GF107991071051004501001001MA1999999095681MD1999999-0021MW1101REMSYN011333   59002
0143827950999991991053112004-07217-035883FM-12+0560SBKG V0200901N00361007501CN0100001N9+02261+02091101441ADDAA124002091AG10999AY161061AY251061GF108991061071008001011999KA1240N+02061MA1999999095251MD1999999+0051MW1101REMSYN023333   20206 58005 60024
0107827950999991991053115004-07217-035883FM-12+0560SBKG V0201101N00411045001CN0200001N9+02411+02111999999ADDAG10999AY161031AY221031GF106991041021004501031001MA1999999095181MD1999999-0021MW1211REMSYN011333   59002
0124827950999991991053118004-07217-035883FM-12+0560SBKG V0201201N00511009001CN0030001N9+02251+02151999999ADDAA106004091AG19057AY161061AY221061GF107991061081004501031001MA1999999095681MD1999999+0001MW1601REMSYN017333   58000 60041
0143827950999991991060100004-07217-035883FM-12+0560SBKG V0200901N00151004201CN0040001N9+02161+02111101311ADDAA106003091AG10999AY161061AY251061GF108991081071004501999999KA1240M+02501MA1999999095131MD1999999-0011MW1211REMSYN023333   10250 59001 60031
0107827950999991991060109004-07217-035883FM-12+0560SBKG V0201501N00411009001CN0100001N9+02121+01971999999ADDAG10999AY111031AY211031GF107991071081004501001001MA1999999095661MD1999999-0021MW1101REMSYN011333   59002
0143827950999991991060112004-07217-035883FM-12+0560SBKG V0201401N00311007501CN0100001N9+02281+02051101291ADDAA124012091AG10999AY151061AY221061GF108991081071008001999999KA1240N+02071MA1999999095111MD1999999-1141MW1101REMSYN023333   20207 59114 60124
0089827950999991991060115004-07217-035883FM-12+0560SBKG V0201501N00461045001CN0200001N9+02421+02111999999ADDAG10999GF106991041021004501031001MD1999999-0071REMSYN011333   59007EQDQ01+095713APOSP 
0135827950999991991060118004-07217-035883FM-12+0560SBKG V0200901N00361045001CN0200001N9+02401+02031101101ADDAA106000291AA299000391AG10999AY151061AY201061GF107991031071008001071081MA1999999094941MD1999999-0171MW1021REMSYN017333   59017 69921
0085827950999991991060209004-07217-035883FM-12+0560SBKG V0201801N00411220001CN0200001N9+01981+01931999999ADDAG10999GF103991021011004501031001MA1999999095721MD1999999+0061REMSYN011333   58006
0121827950999991991060212004-07217-035883FM-12+0560SBKG V0201501N00621004201CN0200001N9+02401+01911999999ADDAA124007091AG10999GF106991061021004501001001KA1240N+01981MA1999999095821MD1999999+0091REMSYN023333   20198 58009 60074
0085827950999991991060215004-07217-035883FM-12+0560SBKG V0201401N00511004201CN0200001N9+02561+01991999999ADDAG10999GF107991071021004501001001MA1999999095761MD1999999+0051REMSYN011333   58005
0100827950999991991060218004-07217-035883FM-12+0560SBKG V0200901N00311045001CN0200001N9+02481+02031101101ADDAA106000091AG10999GF107991041031008001081031MD1999999+0001REMSYN011333   58000EQDQ01+094943APOSP 
0087827950999991991060221004-07217-035883FM-12+0560SBKG V0201501N00311000901CN0200001N9+99999+99999999999ADDAG10999GA1051+000909009GF107991051041004501031001MA1999999095671REMSYN011333   85003
0154827950999991991060300004-07217-035883FM-12+0560SBKG V0201401N00211004201CN0040001N9+02111+02021101391ADDAA106000291AA299000391AG10999AY151061AY221061GF106991061071004501999999KA1240M+02601MA1999999095201MD1999999+0061MW1201REMSYN023333   10260 58006 69921
0143827950999991991060312004-07217-035883FM-12+0560SBKG V0201601N00411004201CN0200001N9+02221+01971999999ADDAA124006091AG19043AY161061AY211061GF107991071051004501001001KA1240N+02001MA1999999095881MD1999999+0061MW1211REMSYN023333   20200 58006 60064
0085827950999991991060315004-07217-035883FM-12+0560SBKG V0201601N00511004201CN0200001N9+02501+02051999999ADDAG10999GF106991061021004501001001MA1999999095881MD1999999+0021REMSYN011333   58002
0115827950999991991060318004-07217-035883FM-12+0560SBKG V0200901N00511045001CN0100001N9+02331+02051101321ADDAA106000091AG10999GF107991031041008001041001MA1999999095142MD1999999+0201REMSYN011333   58020EQDQ01+095143APOSP 
0085827950999991991060321004-07217-035883FM-12+0560SBKG V0201101N00311004201CN0200001N9+02261+01921999999ADDAG10999GF106991061041004501001001MA1999999095731MD1999999+0061REMSYN011333   58006
0085827950999991991060409004-07217-035883FM-12+0560SBKG V0201601N00311220001CN0200001N9+02001+01921105001ADDAG10999GF104991999999004501999999MA1999999095801MD1999999+0021REMSYN011333   58002
0154827950999991991060412004-07217-035883FM-12+0560SBKG V0201301N00511004201CN0200001N9+02311+02021999999ADDAA124000491AA299000591AG10999AY161061AY211061GF105991051021004501001001KA1240N+01951MA1999999095911MD1999999+0021MW1211REMSYN023333   20195 58002 69944
0104827950999991991060415004-07217-035883FM-12+0560SBKG V0201501N010319999999N0200001N9+02661+01781999999ADDAG10999GF105991999011008001001001MA1999999095881MD1999999+0001REMSYN011333   58000EQDQ01+000042SCOTLC
0115827950999991991060418004-07217-035883FM-12+0560SBKG V0201401N00151220001CN0100001N9+02611+01811101272ADDAA106000091AG10999GF105991031021008001001011MA1999999095112MD1999999-0031REMSYN011333   59003EQDQ01+095113APOSP 
0104827950999991991060421004-07217-035883FM-12+0560SBKG V0201201N005119999999N0200001N9+02361+01911999999ADDAG10999GF105991999031004501001001MA1999999095701MD1999999-0031REMSYN011333   59003EQDQ01+000032SCOTLC
0115827950999991991060500004-07217-035883FM-12+0560SBKG V0200901N00211007501CN0200001N9+02181+01971101431ADDAA106000091AG10999GF105991051071008001001001KA1240M+02791MA1999999095251MD1999999-0021REMSYN017333   10279 59002
0091827950999991991060509004-07217-035883FM-12+0560SBKG V0201501N00311004201CN0016001N9+02061+02041999999ADDAG10999GF108991081051004501999999MA1999999095801MD1999999+0001MW1501REMSYN011333   58000
0135827950999991991060512004-07217-035883FM-12+0560SBKG V0201401N00411004201CN0260001N9+02231+02041999999ADDAA124000391AG10999AY151061GF107991071051004501001001KA1240N+02041MA1999999095881MD1999999-0031MW1501REMSYN023333   20204 59003 69934
0107827950999991991060515004-07217-035883FM-12+0560SBKG V0201301N00511004201CN0200001N9+02501+02071999999ADDAG10999AY151031AY221031GF106991061021004501001001MA1999999095801MD1999999-0081MW1211REMSYN011333   59008
0124827950999991991060518004-07217-035883FM-12+0560SBKG V0201201N00311045001CN0200001N9+02501+02071999999ADDAA106000191AG10999AY161061AY251061GF107991041021004501031001MA1999999095671MD1999999-0021MW1021REMSYN017333   59002 69911
0154827950999991991060600004-07217-035883FM-12+0560SBKG V0200901N00211220001CN0200001N9+02161+01951101431ADDAA106000691AA299000591AG10999AY151061AY251061GF103991011021008001061011KA1240M+02521MA1999999095241MD1999999-0011MW1011REMSYN023333   10252 59001 69961
0089827950999991991060609004-07217-035883FM-12+0560SBKG V0201401N00411004201CN0200001N9+02101+01951999999ADDAG10999GF107991051051004501031001MD1999999+0001REMSYN011333   58000EQDQ01 105803APOSLP
0121827950999991991060612004-07217-035883FM-12+0560SBKG V0201301N00511004201CN0200001N9+02341+02001999999ADDAA106000191AG10999GF106991061021004501001001KA1240N+02101MA1999999096901MD1999999+0021REMSYN023333   20210 58002 69911
0085827950999991991060615004-07217-035883FM-12+0560SBKG V0201001N00411004201CN0200001N9+02471+02101999999ADDAG10999GF106991061021004501001001MA1999999095871MD1999999+0071REMSYN011333   58007
0097827950999991991060618004-07217-035883FM-12+0560SBKG V0200501N00511004201CN0020001N9+02211+02121101231ADDAG10999AY151061AY251061GF108991081071004501999999MW1511REMSYN011333   8005/EQDQ01+095023APOSP 
0107827950999991991060621004-07217-035883FM-12+0560SBKG V0209991C00001220001CN0200001N9+02201+02131999999ADDAG10999AY161031AY221031GF102991021051004501001001MA1999999095701MD1999999+0031MW1011REMSYN011333   58003
0091827950999991991060709004-07217-035883FM-12+0560SBKG V0201001N00311004201CN0000001N9+02121+02091999999ADDAG10999GF108991081051004501999999MA1999999095841MD1999999+0041MW1461REMSYN011333   58004
0143827950999991991060712004-07217-035883FM-12+0560SBKG V0200501N00311045001CN0020001N9+02211+02171101601ADDAA124005091AG10999AY151061AY221061GF108991031071004501021999KA1240N+02101MA1999999095401MD1999999+0101MW1511REMSYN023333   20210 58010 60054
0126827950999991991060715004-07217-035883FM-12+0560SBKG V0209999999999009001CN0200001N9+02341+02151999999ADDAG10999AY161031AY221031GF107991071081004501001001MA1999999096002MD1999999+0131MW1211REMSYN011333   58013EQDQ01+096003APOSP 
0124827950999991991060718004-07217-035883FM-12+0560SBKG V0201001N00511007501CN0200001N9+02601+02031999999ADDAA106002091AG10999AY161061AY221061GF105991051021008001001001MA1999999095871MD1999999+0141MW1021REMSYN017333   58014 60021
0085827950999991991060721004-07217-035883FM-12+0560SBKG V0201201N00361220001CN0200001N9+02221+02031101401ADDAG10999GF101991999999004501999999MA1999999095801MD1999999+0081REMSYN011333   58008
0115827950999991991060800004-07217-035883FM-12+0560SBKG V0201201N00211220001CN0100001N9+02001+01931999999ADDAA106000091AG10999GF100991001001999999001001KA1240M+02601MA1999999095911MD1999999+0011REMSYN017333   10260 58001
0085827950999991991060809004-07217-035883FM-12+0560SBKG V0201401N00411009001CN0200001N9+02001+01931999999ADDAG10999GF106991061081004501001001MA1999999095881MD1999999+0041REMSYN011333   58004
0143827950999991991060812004-07217-035883FM-12+0560SBKG V0200901N00261045001CN0020001N9+02121+02071101601ADDAA124007091AG10999AY151061AY221061GF108991041071008001021999KA1240N+01991MA1999999095391MD1999999-0011MW1501REMSYN023333   20199 59001 60074
0107827950999991991060815004-07217-035883FM-12+0560SBKG V0201301N00411009001CN0200001N9+02481+01941999999ADDAG10999AY151031AY221031GF107991071081004501001001MA1999999095951MD1999999+0051MW1011REMSYN011333   58005
0066827950999991991060818004-07217-035883FM-12+0560SBKG V0200901N00461220001CN0200001N9+02471+02051101251ADDAA106000091AG10999GF104991031021008001061001EQDQ01+095093APOSP 
0085827950999991991060821004-07217-035883FM-12+0560SBKG V0201201N00311220001CN0200001N9+02301+02091999999ADDAG10999GF104991041021008001001001MA1999999095821MD1999999+0021REMSYN011333   58002
0121827950999991991060912004-07217-035883FM-12+0560SBKG V0201501N00411004201CN0200001N9+02201+01991999999ADDAA124002091AG10999GF106991061021004501001001KA1240N+01921MA1999999095981MD1999999+0001REMSYN023333   20192 58000 60024
0085827950999991991060915004-07217-035883FM-12+0560SBKG V0201201N00511007501CN0200001N9+02701+01951999999ADDAG10999GF105991051021008001001001MA1999999095951MD1999999+0041REMSYN011333   58004
0096827950999991991060918004-07217-035883FM-12+0560SBKG V0201101N00411007501CN0200001N9+02701+02011999999ADDAA106000091AG10999GF105991051021008001001001MA1999999095731MD1999999-0061REMSYN011333   59006
0122827950999991991061000004-07217-035883FM-12+0560SBKG V0200901N00211004201CN0040001N9+02171+02011101581ADDAA106000091AG19021AY121061AY211061GF106991061071004501001001KA1240M+02691MD1999999+0021MW1101REMSYN017333   10269 58002
0115827950999991991061012004-07217-035883FM-12+0560SBKG V0200901N00261045001CN0200001N9+02301+01981101711ADDAA106000091AG19005GF105991041021008001041001KA1240N+01981MA1999999095511MD1999999+0111REMSYN017333   20198 58011
0085827950999991991061015004-07217-035883FM-12+0560SBKG V0201201N00511007501CN0200001N9+02661+01951999999ADDAG10999GF105991051021008001001001MA1999999096021MD1999999+0031REMSYN011333   58003
0139827950999991991061018004-07217-035883FM-12+0560SBKG V0200501N00261007501CN0100001N9+02101+01861101421ADDAA106000691AA299000591AG10999AY151061AY251061GF108991081071008001999999MD1999999+0081MW1501REMSYN017333   58008 69961EQDQ01+095233APOSP 
0107827950999991991061021004-07217-035883FM-12+0560SBKG V0201201N00211045001CN0200001N9+02181+02011999999ADDAG10999AY161031AY221031GF106991031021004501031001MA1999999095921MD1999999+0121MW1031REMSYN011333   58012
0172827950999991991061100004-07217-035883FM-12+0560SBKG V0200901N00151220001CN0100001N9+02091+01931101631ADDAA106000091AG10999AY121061AY211061GF101991011011008001001001KA1240M+02661MA1999999999999MD1999999+0031MW1101REMSYN017333   10266 58003EQDQ01+085433APOSP Q02 085433APOSP 
0154827950999991991061112004-07217-035883FM-12+0560SBKG V0200901N00311045001CN0100001N9+02151+01901101761ADDAA124000691AA299000591AG10999AY161061AY251061GF107991041071008001011001KA1240N+01921MA1999999095641MD1999999+0131MW1101REMSYN023333   20192 58013 69964
0085827950999991991061115004-07217-035883FM-12+0560SBKG V0201601N003619999999N0200001N9+02341+02001999999ADDAG10999GF107991999999004501999999MA1999999096101MD1999999+0081REMSYN011333   58008
0107827950999991991061121004-07217-035883FM-12+0560SBKG V0201301N00261004201CN0200001N9+02241+02041999999ADDAG10999AY161031AY211031GF106991061041004501001001MA1999999095901MD1999999-0021MW1031REMSYN011333   59002
0091827950999991991061209004-07217-035883FM-12+0560SBKG V0209991C00001220001CN0140001N9+01891+01821999999ADDAG19021GF101991011051004501001001MA1999999095981MD1999999-0051MW1101REMSYN011333   59005
0121827950999991991061212004-07217-035883FM-12+0560SBKG V0201501N00621004201CN0200001N9+02301+01811999999ADDAA124000591AG10999GF105991051011004501001001KA1240N+01861MA1999999096111MD1999999-0071REMSYN023333   20186 59007 69954
0085827950999991991061215004-07217-035883FM-12+0560SBKG V0201501N00361007501CN0200001N9+02601+01711999999ADDAG10999GF105991051011008001001001MA1999999096001MD1999999-0101REMSYN011333   59010
0115827950999991991061218004-07217-035883FM-12+0560SBKG V0201401N00311007501CN0200001N9+02251+01841101381ADDAA106000091AG10999GF106991061021008001001001MA1999999095372MD1999999-0021REMSYN011333   59002EQDQ01+095373APOSP 
0085827950999991991061221004-07217-035883FM-12+0560SBKG V0201101N00261220001CN0200001N9+02301+01901999999ADDAG10999GF100991001001999999001001MA1999999095821MD1999999-0081REMSYN011333   59008
0085827950999991991061309004-07217-035883FM-12+0560SBKG V0201901N00411045001CN0200001N9+02841+01721999999ADDAG10999GF105991031051004501031001MA1999999095591MD1999999+0041REMSYN011333   58004
0115827950999991991061312004-07217-035883FM-12+0560SBKG V0201601N00511004201CN0200001N9+02381+01891999999ADDAA106000091AG10999GF105991051021004501001001KA1240N+01841MA1999999096011MD1999999-0101REMSYN017333   20184 59010
0085827950999991991061315004-07217-035883FM-12+0560SBKG V0201601N00511045001CN0200001N9+02641+01981999999ADDAG10999GF105991031011008001031001MA1999999095971MD1999999-0031REMSYN011333   59003
0115827950999991991061318004-07217-035883FM-12+0560SBKG V0201401N00461105001CN0200001N9+02631+01901101381ADDAA106000091AG10999GF106991031041008001001031MA1999999095212MD1999999+0041REMSYN011333   58004EQDQ01+095213APOSP 
0085827950999991991061321004-07217-035883FM-12+0560SBKG V0201101N003119999999N0200001N9+02301+01901999999ADDAG10999GF106991999999999999999999MA1999999095781MD1999999-0041REMSYN011333   59004
0085827950999991991061409004-07217-035883FM-12+0560SBKG V0201201N00311009001CN0200001N9+02021+01941999999ADDAG10999GF106991061081004501001001MA1999999095721MD1999999+0021REMSYN011333   58002
0137827950999991991061412004-07217-035883FM-12+0560SBKG V0200901N00211007501CN0100001N9+02171+01651101631ADDAA106000091AG10999AY121061AY221061GF106991061061008001001001KA1240N+01921MA1999999095431MD1999999-0021MW1051REMSYN017333   20192 59002
0085827950999991991061415004-07217-035883FM-12+0560SBKG V0201501N00511007501CN0200001N9+02521+01741999999ADDAG10999GF106991061011008001001001MA1999999096001MD1999999+0031REMSYN011333   58003
0100827950999991991061418004-07217-035883FM-12+0560SBKG V0200501N00211045001CN0100001N9+02601+01841101381ADDAA106000091AG10999GF106991031041008001081051MD1999999-0011REMSYN011333   59001EQDQ01+095203APOSP 
