0115832880999991991010100004-13267-043417FM-12+0458SBLP V0200901N00151045001CN9999999N9+02161+01951101301ADDAA106000091AG10999GF108991041041008001021071KA1240M+02861MA1999999096161MD1999999-0171REMSYN017333   10286 59017
0115832880999991991010112004-13267-043417FM-12+0458SBLP V0201401N00151045001CN0200001N9+02391+01911101421ADDAA106000091AG10999GF107991031041008001071001KA1240N+02081MA1999999096271MD1999999-0031REMSYN017333   20208 59003
0062832880999991991010118004-13267-043417FM-12+0458SBLP V0200501N00051220001CN0200001N9+02841+01881101031ADDAA106000091AG10999GF104991021011008001031001MA1999999095931
0143832880999991991010212004-13267-043417FM-12+0458SBLP V0201401N00151045001CN0200001N9+02281+02071101271ADDAA124018091AG10999AY161061AY251061GF108991041051008001011999KA1240N+02141MA1999999096241MD1999999-0031MW1021REMSYN023333   20214 59003 60184
0115832880999991991010300004-13267-043417FM-12+0458SBLP V0209991C00001220001CN9999999N9+02441+02251101031ADDAA106000091AG10999GF102991021011008001001001KA1240M+02821MA1999999095921MD1999999-0171REMSYN017333   10282 59017
0115832880999991991010312004-13267-043417FM-12+0458SBLP V0209991C00001220001CN0200001N9+02641+02031101311ADDAA106000091AG10999GF102991001001999999001011KA1240N+02081MA1999999096201MD1999999-0041REMSYN017333   20208 59004
0096832880999991991010318004-13267-043417FM-12+0458SBLP V0203601N00151220001CN0200001N9+03181+01981100751ADDAA106000091AG10999GF102991021011008001001001MA1999999095681MD1999999-0161REMSYN011333   59016
0115832880999991991010412004-13267-043417FM-12+0458SBLP V0203601N00051220001CN0200001N9+02721+02051101121ADDAA106000091AG10999GF102991001001999999001021KA1240N+02041MA1999999096041MD1999999-0161REMSYN017333   20204 59016
0115832880999991991010418004-13267-043417FM-12+0458SBLP V0203601N00151105001CN0200001N9+03161+01561100741ADDAA106000091AG10999GF107991011011008001001061MA1999999095741MD1999999+0001REMSYN011333   58000EQDQ01+999990APOSP 
0115832880999991991010500004-13267-043417FM-12+0458SBLP V0209991C00001220001CN9999999N9+02641+02121100981ADDAA106000091AG10999GF103991031011008001001001KA1240M+03221MA1999999095911MD1999999+0081REMSYN017333   10322 58008
0062832880999991991010512004-13267-043417FM-12+0458SBLP V0203601N00151045001CN0200001N9+02611+02031101281ADDAA106000091AG10999GF106991031011008001031001MA1999999096181
0096832880999991991010518004-13267-043417FM-12+0458SBLP V0203601N00211045001CN0200001N9+99999+99999100971ADDAA106000091AG10999GF108991021011008001071081MA1999999095961MD1999999+0181REMSYN011333   58018
0143832880999991991010612004-13267-043417FM-12+0458SBLP V0209991C00001045001CN0200001N9+02421+02281101301ADDAA124000591AG10999AY161061AY261061GF108991041051008001011999KA1240N+02261MA1999999096181MD1999999+0001MW1501REMSYN023333   20226 58000 69954
0115832880999991991010700004-13267-043417FM-12+0458SBLP V0201401N00051045001CN9999999N9+02281+02111101211ADDAA106000091AG10999GF107991031011004501071001KA1240M+02761MA1999999096091MD1999999+0011REMSYN017333   10276 58001
0104832880999991991010718004-13267-043417FM-12+0458SBLP V0201401N001519999999N9999999N9+03011+02211100821ADDAG10999GF106991031021999999061001MA1999999095741MD1999999-0181REMSYN011333   59018EQDQ01+000992SCOLCB
0143832880999991991010800004-13267-043417FM-12+0458SBLP V0203601N00211045001CN9999999N9+02201+02121101351ADDAA106011091AG19057AY161061AY261061GF108991041071008001021999KA1240M+03121MA1999999096221MD1999999+0131MW1921REMSYN023333   10312 58013 60111
0143832880999991991010812004-13267-043417FM-12+0458SBLP V0201401N00151045001CN0200001N9+02401+02171101511ADDAA124014091AG10999AY161061AY251061GF106991031051008001011001KA1240N+02141MA1999999096371MD1999999+0231MW1021REMSYN023333   20214 58023 60144
0096832880999991991010818004-13267-043417FM-12+0458SBLP V0201401N00051045001CN0200001N9+03061+02021101181ADDAA106000091AG10999GF106991031021008001071001MA1999999096091MD1999999+0351REMSYN011333   58035
0143832880999991991010900004-13267-043417FM-12+0458SBLP V0201401N00151220001CN9999999N9+02241+02101101241ADDAA106002091AG10999AY191061AY261061GF101991011011008001001001KA1240M+03121MA1999999096111MD1999999-0111MW1021REMSYN023333   10312 59011 60021
0121832880999991991010912004-13267-043417FM-12+0458SBLP V0200501N00151220001CN0200001N9+02601+02121101491ADDAA124002091AG10999GF101991011011008001001001KA1240N+02031MA1999999096361MD1999999-0011REMSYN023333   20203 59001 60024
0096832880999991991010918004-13267-043417FM-12+0458SBLP V0200501N00151220001CN0200001N9+03181+01941101051ADDAA106000091AG10999GF103991031011008001001001MA1999999095971MD1999999-0121REMSYN011333   59012
0115832880999991991011000004-13267-043417FM-12+0458SBLP V0209991C00001220001CN9999999N9+02761+02191101091ADDAA106000091AG10999GF100991001001999999001001KA1240M+03281MA1999999096011MD1999999-0101REMSYN017333   10328 59010
0115832880999991991011012004-13267-043417FM-12+0458SBLP V0203601N00151220001CN0200001N9+02581+02171101281ADDAA106000091AG10999GF105991001001999999001061KA1240N+02171MA1999999096191MD1999999-0171REMSYN017333   20217 59017
0096832880999991991011018004-13267-043417FM-12+0458SBLP V0203601N00211220001CN0200001N9+03141+02071100781ADDAA106000091AG10999GF106991031021008001001041MA1999999095721MD1999999-0251REMSYN011333   59025
0115832880999991991011100004-13267-043417FM-12+0458SBLP V0209991C000019999999N9999999N9+02621+02101100931ADDAA106000091AG10999GF107991999999008001999999KA1240M+03241MA1999999095851MD1999999-0161REMSYN017333   10324 59016
0115832880999991991011112004-13267-043417FM-12+0458SBLP V0209991C00001045001CN0200001N9+02521+02071101191ADDAA106000091AG10999GF107991021011008001031001KA1240N+02271MA1999999096091MD1999999-0101REMSYN017333   20227 59010
0096832880999991991011118004-13267-043417FM-12+0458SBLP V0203601N00361220001CN0200001N9+03161+02171100641ADDAA106000091AG10999GF106991031021008001001041MA1999999095601MD1999999-0121REMSYN011333   59012
0115832880999991991011200004-13267-043417FM-12+0458SBLP V0200501N00211045001CN9999999N9+02321+02181101131ADDAA106000091AG10999GF107991031081008001071001KA1240M+03181MA1999999096021MD1999999+0171REMSYN017333   10318 58017
0143832880999991991011212004-13267-043417FM-12+0458SBLP V0209991C00001045001CN0200001N9+02361+02221101131ADDAA124003091AG10999AY161061AY251061GF108991041051008001021999KA1240N+02181MA1999999096011MD1999999-0051MW1021REMSYN023333   20218 59005 60034
0124832880999991991011218004-13267-043417FM-12+0458SBLP V0209991C00001045001CN0200001N9+03001+02081100711ADDAA106003091AG10999AY161061AY221061GF107991041041008001021001MA1999999095641MD1999999+0041MW1021REMSYN017333   58004 60031
0143832880999991991011312004-13267-043417FM-12+0458SBLP V0200501N00151045001CN0200001N9+02141+02071101341ADDAA124012091AG10999AY161061AY261061GF108991041061008001021999KA1240N+02051MA1999999096211MD1999999+0201MW1601REMSYN023333   20205 58020 60124
0124832880999991991011318004-13267-043417FM-12+0458SBLP V0200501N00051045001CN0200001N9+02341+02261101141ADDAA106011091AG10999AY161061AY261061GF108991041061008001021999MA1999999096041MD1999999+0401MW1501REMSYN017333   58040 60111
0115832880999991991011400004-13267-043417FM-12+0458SBLP V0200501N00051045001CN9999999N9+02301+02181101121ADDAA106000091AG10999GF108991041051008001021999KA1240M+02341MA1999999096001MD1999999+0171REMSYN017333   10234 58017
0121832880999991991011412004-13267-043417FM-12+0458SBLP V0200501N00151045001CN0200001N9+02461+02251101301ADDAA124001091AG10999GF106991031051008001071001KA1240N+02181MA1999999096181MD1999999-0031REMSYN023333   20218 59003 60014
0102832880999991991011418004-13267-043417FM-12+0458SBLP V0200501N00051220001CN0200001N9+02811+02121100851ADDAA106012091AG10999GF105991021021008001001041MA1999999095761MD1999999-0121REMSYN017333   59012 60121
0115832880999991991011500004-13267-043417FM-12+0458SBLP V0202301N00151045001CN9999999N9+02361+02191101021ADDAA106000091AG10999GF108991041051008001021999KA1240M+02901MA1999999095911MD1999999-0091REMSYN017333   10290 59009
0143832880999991991011512004-13267-043417FM-12+0458SBLP V0200501N00051045001CN0200001N9+02231+02171101371ADDAA124043091AG10999AY161061AY261061GF108991041061008001021999KA1240N+02111MA1999999096241MD1999999+0061MW1621REMSYN023333   20211 58006 60434
0124832880999991991011518004-13267-043417FM-12+0458SBLP V0209991C00001045001CN0200001N9+02641+02181100991ADDAA106001091AG10999AY161061AY251061GF108991031061008001021999MA1999999095881MD1999999+0121MW1201REMSYN017333   58012 60011
0143832880999991991011600004-13267-043417FM-12+0458SBLP V0209991C00001045001CN9999999N9+02361+02281101221ADDAA106003091AG10999AY161061AY261061GF108991041061008001021999KA1240M+02681MA1999999096091MD1999999+0181MW1021REMSYN023333   10268 58018 60031
0143832880999991991011612004-13267-043417FM-12+0458SBLP V0200501N00151007501CN0200001N9+02341+02151101371ADDAA124006091AG10999AY161061AY221061GF106991061051008001001001KA1240N+02081MA1999999096241MD1999999+0001MW1021REMSYN023333   20208 58000 60064
0143832880999991991011712004-13267-043417FM-12+0458SBLP V0209991C00001045001CN0200001N9+99999+99999101331ADDAA124011091AG10999AY161061AY251061GF108991031051008001021999KA1240N+02161MA1999999096211MD1999999-0031MW1021REMSYN023333   20216 59003 60114
0096832880999991991011718004-13267-043417FM-12+0458SBLP V0209991C00001045001CN0200001N9+02641+02231101101ADDAA106000091AG10999GF108991031051008001021999MA1999999095991MD1999999+0091REMSYN011333   58009
0096832880999991991011719004-13267-043417FM-12+0458SBLP V0209991C00001045001CN0200001N9+02641+02231101101ADDAA106000091AG10999GF108991031051008001021999MA1999999095991MD1999999+0091REMSYN011333   58009
0115832880999991991011800004-13267-043417FM-12+0458SBLP V0209991C00001045001CN9999999N9+02481+02321101071ADDAA106000091AG10999GF106991021011008001011001KA1240M+02681MA1999999095961MD1999999-0201REMSYN017333   10268 59020
0143832880999991991011812004-13267-043417FM-12+0458SBLP V0209991C00001220001CN0200001N9+02421+02231101381ADDAA124003091AG10999AY161061AY221061GF103991021011008001031001KA1240N+02041MA1999999096261MD1999999+0051MW1021REMSYN023333   20204 58005 60034
0096832880999991991011818004-13267-043417FM-12+0458SBLP V0209999999999045001CN0200001N9+02741+01951101171ADDAA106000091AG10999GF107991031021008001061001MA1999999096061MD1999999+0071REMSYN011333   58007
0115832880999991991011900004-13267-043417FM-12+0458SBLP V0209991C00001045001CN9999999N9+02401+02211101401ADDAA106000091AG10999GF108991021021008001011001KA1240M+03061MA1999999096271MD1999999+0311REMSYN017333   10306 58031
0115832880999991991011912004-13267-043417FM-12+0458SBLP V0209991C00001220001CN0200001N9+02501+02191101661ADDAA106000091AG10999GF102991011011008001031001KA1240N+02091MA1999999096531MD1999999+0271REMSYN017333   20209 58027
0096832880999991991011918004-13267-043417FM-12+0458SBLP V0209991C00001045001CN0200001N9+03081+02161101231ADDAA106000091AG10999GF106991031011008001061001MA1999999096141MD1999999+0081REMSYN011333   58008
0115832880999991991012000004-13267-043417FM-12+0458SBLP V0209991C00001220001CN9999999N9+02461+02031101371ADDAA106000091AG10999GF101991011021008001001001KA1240M+03121MA1999999096251MD1999999-0021REMSYN017333   10312 59002
0115832880999991991012012004-13267-043417FM-12+0458SBLP V0201401N00151220001CN0200001N9+02581+01941101421ADDAA106000091AG10999GF101991001001999999001011KA1240N+01941MA1999999096301MD1999999-0231REMSYN017333   20194 59023
0096832880999991991012018004-13267-043417FM-12+0458SBLP V0209991C00001105001CN0200001N9+03041+02001101111ADDAA106000091AG10999GF106991041011008001001021MA1999999096021MD1999999-0121REMSYN011333   59012
0115832880999991991012100004-13267-043417FM-12+0458SBLP V0209991C00001007501CN9999999N9+02661+02161101111ADDAA106000091AG10999GF105991051011008001001001KA1240M+03181MA1999999096021MD1999999-0231REMSYN017333   10318 59023
0115832880999991991012112004-13267-043417FM-12+0458SBLP V0200501N00151220001CN0200001N9+02701+02061101331ADDAA106000091AG10999GF103991031011008001001001KA1240N+02161MA1999999096241MD1999999-0061REMSYN017333   20216 59006
0131832880999991991012118004-13267-043417FM-12+0458SBLP V0201401N00051045001CN0200001N9+03001+02141101061ADDAA106000091AG10999GF105991031021008001061001MA1999999096021MD1999999-0051REMSYN011333   59005EQDQ01+095173APOSP Q02+999990APOSP 
0115832880999991991012200004-13267-043417FM-12+0458SBLP V0201401N00051220001CN9999999N9+02561+02231101081ADDAA106000091AG10999GF103991031001022501031001KA1240M+03161MA1999999096001MD1999999-0021REMSYN017333   10316 59002
0115832880999991991012212004-13267-043417FM-12+0458SBLP V0203601N00151105001CN0200001N9+02581+02171101421ADDAA106000091AG10999GF106991031081008001001081KA1240N+02131MA1999999096311MD1999999+0071REMSYN017333   20213 58007
0096832880999991991012218004-13267-043417FM-12+0458SBLP V0209991C00001220001CN0200001N9+03161+02051101001ADDAA106000091AG10999GF105991041021008001001011MA1999999095921MD1999999-0051REMSYN011333   59005
0115832880999991991012300004-13267-043417FM-12+0458SBLP V0209991C00001220001CN9999999N9+02581+02191101091ADDAA106000091AG10999GF101991011001022501031001KA1240M+03241MA1999999096001MD1999999+0001REMSYN017333   10324 58000
0115832880999991991012312004-13267-043417FM-12+0458SBLP V0209991C00001220001CN0200001N9+02711+02061101461ADDAA106000091AG10999GF100991001001999999001001KA1240N+02181MA1999999096361MD1999999+0051REMSYN017333   20218 58005
0131832880999991991012318004-13267-043417FM-12+0458SBLP V0203201N00771220001CN0200001N9+03201+02031100562ADDAA106000091AG10999GF102991021021008001001001MA1999999095512MD1999999-0411REMSYN011333   59041EQDQ01+095513APOSP Q02+100563APOSLP
0115832880999991991012400004-13267-043417FM-12+0458SBLP V0203601N00261220001CN9999999N9+02481+02091101301ADDAA106000091AG10999GF101991001001999999001091KA1240M+03251MA1999999096201MD1999999+0201REMSYN017333   10325 58020
0115832880999991991012412004-13267-043417FM-12+0458SBLP V0203601N00261220001CN0200001N9+02521+02091101671ADDAA106000091AG10999GF102991021021008001001001KA1240N+02081MA1999999096541MD1999999+0181REMSYN017333   20208 58018
0096832880999991991012418004-13267-043417FM-12+0458SBLP V0203201N00211220001CN0200001N9+03041+02091101061ADDAA106000091AG10999GF104991031021008001001041MA1999999095971MD1999999-0081REMSYN011333   59008
0115832880999991991012500004-13267-043417FM-12+0458SBLP V0203601N00151220001CN9999999N9+02441+02341101311ADDAA106000091AG10999GF100991001001999999001001KA1240M+03091MA1999999096201MD1999999+0001REMSYN017333   10309 58000
0115832880999991991012512004-13267-043417FM-12+0458SBLP V0203601N00151105001CN0200001N9+02621+02141101401ADDAA106000091AG10999GF105991001001999999001021KA1240N+02061MA1999999096291MD1999999-0251REMSYN017333   20206 59025
0096832880999991991012518004-13267-043417FM-12+0458SBLP V0200501N00261045001CN0200001N9+02761+02341101001ADDAA106000091AG10999GF107991011081008001071021MA1999999095901MD1999999-0071REMSYN011333   59007
0115832880999991991012600004-13267-043417FM-12+0458SBLP V0209991C00001105001CN9999999N9+02481+02321101181ADDAA106000091AG10999GF106991001001999999001051KA1240M+03101MA1999999096081MD1999999-0121REMSYN017333   10310 59012
0115832880999991991012612004-13267-043417FM-12+0458SBLP V0200501N00101220001CN0200001N9+02561+02191101421ADDAA106000091AG10999GF102991001001999999001051KA1240N+02071MA1999999096301MD1999999+0011REMSYN017333   20207 58001
0096832880999991991012618004-13267-043417FM-12+0458SBLP V0200501N00261045001CN0200001N9+02761+02341101001ADDAA106000091AG10999GF107991011081008001071021MA1999999095901MD1999999-0071REMSYN011333   59007
0115832880999991991012700004-13267-043417FM-12+0458SBLP V0200901N00151105001CN9999999N9+02501+02151101161ADDAA106000091AG10999GF107991001001999999001051KA1240M+03221MA1999999096061MD1999999-0021REMSYN017333   10322 59002
0115832880999991991012712004-13267-043417FM-12+0458SBLP V0209991C00001105001CN0200001N9+02701+02131101391ADDAA106000091AG10999GF106991001001999999001051KA1240N+02081MA1999999096281MD1999999-0021REMSYN017333   20208 59002
0096832880999991991012718004-13267-043417FM-12+0458SBLP V0200901N00101045001CN0200001N9+03081+02041101011ADDAA106000091AG10999GF106991021021008001041051MA1999999095931MD1999999+0111REMSYN011333   58011
0115832880999991991012800004-13267-043417FM-12+0458SBLP V0209991C00001105001CN0200001N9+02801+02151101181ADDAA106000091AG10999GF106991001001999999001051KA1240M+03241MA1999999096101MD1999999+0041REMSYN017333   10324 58004
0143832880999991991012812004-13267-043417FM-12+0458SBLP V0201801N00101220001CN0200001N9+02741+02261101491ADDAA124015091AG10999AY151061AY251061GF102991001001999999001091KA1240N+02121MA1999999096401MD1999999+0121MW1021REMSYN023333   20212 58012 60154
0096832880999991991012818004-13267-043417FM-12+0458SBLP V0202301N00211105001CN0200001N9+02981+02371101061ADDAA106000091AG10999GF107991011021008001001021MA1999999095971MD1999999+0041REMSYN011333   58004
0115832880999991991012912004-13267-043417FM-12+0458SBLP V0202301N00261045001CN0200001N9+02531+02251101411ADDAA106000091AG10999GF105991031081008001031001KA1240N+02201MA1999999096291MD1999999-0111REMSYN017333   20220 59011
0096832880999991991012918004-13267-043417FM-12+0458SBLP V0202301N00211045001CN0200001N9+03001+02271100971ADDAA106000091AG10999GF106991041011008001031001MA1999999095891MD1999999-0081REMSYN011333   59008
0115832880999991991013000004-13267-043417FM-12+0458SBLP V0202301N00051045001CN9999999N9+02601+02271101191ADDAA106000091AG10999GF107991031011008001071001KA1240M+03061MA1999999096091MD1999999-0211REMSYN017333   10306 59021
0115832880999991991013012004-13267-043417FM-12+0458SBLP V0202301N00101220001CN0200001N9+02521+02211101341ADDAA106000091AG10999GF104991021011008001001011KA1240N+02121MA1999999096231MD1999999-0061REMSYN017333   20212 59006
0096832880999991991013018004-13267-043417FM-12+0458SBLP V0203201N00311220001CN0200001N9+03281+01961100851ADDAA106000091AG10999GF104991021021008001001041MA1999999095781MD1999999-0111REMSYN011333   59011
0115832880999991991013100004-13267-043417FM-12+0458SBLP V0209991C00001220001CN9999999N9+02641+02161100981ADDAA106000091AG10999GF102991001001999999001021KA1240M+03311MA1999999095901MD1999999-0101REMSYN017333   10331 59010
0115832880999991991013112004-13267-043417FM-12+0458SBLP V0203201N00261220001CN0200001N9+02701+02171101321ADDAA106000091AG10999GF104991021011008001001021KA1240N+02281MA1999999096231MD1999999+0001REMSYN017333   20228 58000
0155832880999991991013118004-13267-043417FM-12+0458SBLP V0201401N00571045001CN0200001N9+03001+99999100881ADDAA106999999AG10999AY121061AY221061GF107991031021008001061001MA1999999095881MD1999999+0101MW1901REMSYN011333   58010SYN012RJCT41  2518EQDQ01  00002PRCP06
0143832880999991991020100004-13267-043417FM-12+0458SBLP V0209999999999045001CN9999999N9+02361+02191101051ADDAA106010091AG19005AY191061AY261061GF108991031041008001071999KA1240M+03241MA1999999095961MD1999999+0061MW1021REMSYN023333   10324 58006 60101
0121832880999991991020112004-13267-043417FM-12+0458SBLP V0201801N00101045001CN0200001N9+02561+02171101311ADDAA124010091AG10999GF106991031011008001031001KA1240N+02161MA1999999096191MD1999999-0041REMSYN023333   20216 59004 60104
0096832880999991991020118004-13267-043417FM-12+0458SBLP V0203201N00101045001CN0200001N9+02921+02271100911ADDAA106000091AG10999GF106991031021008001061001MA1999999095821MD1999999-0061REMSYN011333   59006
0121832880999991991020212004-13267-043417FM-12+0458SBLP V0201801N00101220001CN0200001N9+02601+02061101401ADDAA124004091AG10999GF104991011011008001001021KA1240N+02081MA1999999096281MD1999999+0091REMSYN023333   20208 58009 60044
0096832880999991991020218004-13267-043417FM-12+0458SBLP V0202301N00311105001CN0200001N9+03141+01581101101ADDAA106000091AG10999GF105991031011008001001021MA1999999095931MD1999999+0111REMSYN011333   58011
0115832880999991991020300004-13267-043417FM-12+0458SBLP V0202301N00151220001CN9999999N9+02541+01831100981ADDAA106000091AG10999GF100991001001999999001001KA1240M+03221MA1999999095891MD1999999-0071REMSYN017333   10322 59007
0115832880999991991020312004-13267-043417FM-12+0458SBLP V0203201N00051220001CN0200001N9+02401+01971101411ADDAA106000091AG10999GF106991011011008001001061KA1240N+01961MA1999999096291MD1999999+0011REMSYN017333   20196 58001
0096832880999991991020318004-13267-043417FM-12+0458SBLP V0203201N00311045001CN0200001N9+03161+01861100951ADDAA106000091AG10999GF105991031011008001061001MA1999999095861MD1999999-0071REMSYN011333   59007
0115832880999991991020412004-13267-043417FM-12+0458SBLP V0203201N00101045001CN0200001N9+02421+02071101441ADDAA106000091AG10999GF107991021011008001031001KA1240N+02121MA1999999096311MD1999999+0021REMSYN017333   20212 58002
0124832880999991991020418004-13267-043417FM-12+0458SBLP V0203201N00101045001CN0200001N9+02301+02011101091ADDAA106007091AG10999AY121061AY261061GF107991021021008001071001MA1999999095961MD1999999+0101MW1211REMSYN017333   58010 60071
0115832880999991991020500004-13267-043417FM-12+0458SBLP V0209991C00001045001CN9999999N9+02341+02201101361ADDAA106000091AG10999GF108991041061008001021999KA1240M+03021MA1999999096241MD1999999+0151REMSYN017333   10302 58015
0062832880999991991020511004-13267-043417FM-12+0458SBLP V0209991C00001220001CN0200001N9+02641+02001999999ADDAA124007091AG10999GF104991999999008001999999MA1999999096101
0121832880999991991020512004-13267-043417FM-12+0458SBLP V0209991C00001220001CN0200001N9+02641+02001101461ADDAA124007091AG10999GF104991021061008001001041KA1240N+02101MA1999999096341MD1999999+0031REMSYN023333   20210 58003 60074
0096832880999991991020518004-13267-043417FM-12+0458SBLP V0209991C00001220001CN0200001N9+03081+01781101011ADDAA106000091AG10999GF104991041021008001001001MA1999999095931MD1999999-0031REMSYN011333   59003
0143832880999991991020600004-13267-043417FM-12+0458SBLP V0200501N00261220001CN9999999N9+02421+02071101241ADDAA106000591AG10999AY151061AY251061GF104991041041008001001001KA1240M+03241MA1999999096141MD1999999-0101MW1021REMSYN023333   10324 59010 69951
0132832880999991991020612004-13267-043417FM-12+0458SBLP V0209991C000019999999N0200001N9+02541+02111101481ADDAA124000691AA299000591AG10999GF107991999999999999999999KA1240N+02081MA1999999096361MD1999999+0021REMSYN023333   20208 58002 69964
0115832880999991991020618004-13267-043417FM-12+0458SBLP V0209991C000019999999N0200001N9+03001+02081101031ADDAA106000091AG10999GF106991061021999999001001MA1999999095941MD1999999+0011REMSYN011333   58001EQDQ01+000992SCOLCB
0166832880999991991020700004-13267-043417FM-12+0458SBLP V0201801N001019999999N0200001N9+02241+02141101361ADDAA106000091AG10999GA1091+999999999GF109991091999999999999999KA1240M+02531MA1999999999999MD1999999+0061REMSYN017333   10253 58006EQDQ01+098503APOSP Q02 098503APOSP 
0143832880999991991020712004-13267-043417FM-12+0458SBLP V0209991C00001220001CN0200001N9+02461+02271101441ADDAA124026091AG10999AY161061AY251061GF103991011081008001001091KA1240N+02141MA1999999096321MD1999999-0041MW1021REMSYN023333   20214 59004 60264
0143832880999991991020800004-13267-043417FM-12+0458SBLP V0200901N00151105001CN9999999N9+02241+02101101341ADDAA106001091AG10999AY151061AY251061GF106991041041008001001081KA1240M+03081MA1999999096211MD1999999+0051MW1511REMSYN023333   10308 58005 60011
0121832880999991991020812004-13267-043417FM-12+0458SBLP V0202301N00151105001CN0200001N9+02461+02151101491ADDAA124003091AG10999GF106991031081008001001091KA1240N+02141MA1999999096351MD1999999+0031REMSYN023333   20214 58003 60034
0096832880999991991020818004-13267-043417FM-12+0458SBLP V0203201N00261012001CN0200001N9+03041+02261101011ADDAA106000091AG10999GF106991051081008001001081MA1999999095931MD1999999-0061REMSYN011333   59006
0115832880999991991020900004-13267-043417FM-12+0458SBLP V0209991C00001220001CN9999999N9+02381+02171101311ADDAA106000091AG10999GF104991001001999999001081KA1240M+03141MA1999999096191MD1999999-0021REMSYN017333   10314 59002
0115832880999991991020912004-13267-043417FM-12+0458SBLP V0201401N00101220001CN0200001N9+02661+02271101391ADDAA106000091AG10999GF103991001001999999001091KA1240N+02221MA1999999096271MD1999999-0081REMSYN017333   20222 59008
0115832880999991991021012004-13267-043417FM-12+0458SBLP V0209991C00001220001CN0200001N9+02741+02071101331ADDAA106000091AG10999GF104991001001999999001041KA1240N+02201MA1999999096231MD1999999-0041REMSYN017333   20220 59004
0096832880999991991021018004-13267-043417FM-12+0458SBLP V0202301N00211220001CN0200001N9+03401+01851100991ADDAA106000091AG10999GF104991031021008001001041MA1999999095931MD1999999+0071REMSYN011333   58007
0115832880999991991021100004-13267-043417FM-12+0458SBLP V0209991C00001220001CN9999999N9+02441+02191101171ADDAA106000091AG10999GF100991001001999999001001KA1240M+03221MA1999999096051MD1999999-0141REMSYN017333   10322 59014
0115832880999991991021112004-13267-043417FM-12+0458SBLP V0201801N00101220001CN0200001N9+02771+02281101391ADDAA106000091AG10999GF104991001001999999001041KA1240N+02321MA1999999096301MD1999999+0071REMSYN017333   20232 58007
0096832880999991991021118004-13267-043417FM-12+0458SBLP V0202301N00151220001CN0200001N9+03521+02031100861ADDAA106000091AG10999GF104991031021008001001041MA1999999095821MD1999999-0111REMSYN011333   59011
0115832880999991991021200004-13267-043417FM-12+0458SBLP V0202301N00151220001CN9999999N9+02981+02201101021ADDAA106000091AG10999GF100991001001999999001001KA1240M+03591MA1999999095971MD1999999-0181REMSYN017333   10359 59018
0115832880999991991021212004-13267-043417FM-12+0458SBLP V0203201N00211220001CN0200001N9+02901+02301101171ADDAA106000091AG10999GF103991011011008001031001KA1240N+02271MA1999999096171MD1999999-0171REMSYN017333   20227 59017
0096832880999991991021218004-13267-043417FM-12+0458SBLP V0203201N00211045001CN0200001N9+03521+02181100661ADDAA106000091AG10999GF105991021011008001061001MA1999999095631MD1999999-0191REMSYN011333   59019
0115832880999991991021300004-13267-043417FM-12+0458SBLP V0203201N00051220001CN9999999N9+02861+02311100781ADDAA106000091AG10999GF102991021021008001001001KA1240M+03541MA1999999095741MD1999999-0231REMSYN017333   10354 59023
0143832880999991991021312004-13267-043417FM-12+0458SBLP V0203201N00151045001CN0200001N9+02281+02111101291ADDAA124001091AG10999AY161061AY261061GF107991031081008001011001KA1240N+02241MA1999999096181MD1999999+0011MW1021REMSYN023333   20224 58001 60014
0096832880999991991021318004-13267-043417FM-12+0458SBLP V0201401N00101220001CN0200001N9+03001+02221100781ADDAA106000091AG10999GF107991011011008001001041MA1999999095711MD1999999+0081REMSYN011333   58008
0115832880999991991021412004-13267-043417FM-12+0458SBLP V0201401N00101045001CN0200001N9+02621+02101101251ADDAA106000091AG10999GF107991041051008001011001KA1240N+02241MA1999999096151MD1999999-0031REMSYN017333   20224 59003
0096832880999991991021418004-13267-043417FM-12+0458SBLP V0203201N00211045001CN0200001N9+03121+02111100941ADDAA106000091AG10999GF107991021021008001061041MA1999999095861MD1999999+0151REMSYN011333   58015
0115832880999991991021500004-13267-043417FM-12+0458SBLP V0209991C00001220001CN9999999N9+02641+02251101181ADDAA106000091AG10999GF102991021011008001001001KA1240M+03241MA1999999096191MD1999999+0321REMSYN017333   10324 58032
0143832880999991991021512004-13267-043417FM-12+0458SBLP V0201401N00101045001CN0200001N9+02201+02081101601ADDAA124007091AG10999AY121061AY261061GF108991041051008001021999KA1240N+02101MA1999999096461MD1999999+0311MW1601REMSYN023333   20210 58031 60074
0096832880999991991021518004-13267-043417FM-12+0458SBLP V0209991C00001045001CN0200001N9+02961+02331101281ADDAA106000091AG10999GF107991021011008001061041MA1999999096151MD1999999+0291REMSYN011333   58029
0115832880999991991021600004-13267-043417FM-12+0458SBLP V0203201N00101220001CN9999999N9+02581+02441101311ADDAA106000091AG10999GF103991031011008001001001KA1240M+03061MA1999999096191MD1999999+0001REMSYN017333   10306 58000
0143832880999991991021612004-13267-043417FM-12+0458SBLP V0203201N00151220001CN0200001N9+02601+02461101511ADDAA124005091AG10999AY161061AY221061GF104991021011008001031001KA1240N+02231MA1999999096401MD1999999-0061MW1021REMSYN023333   20223 59006 60054
0096832880999991991021618004-13267-043417FM-12+0458SBLP V0202301N00101045001CN0200001N9+03321+02171101051ADDAA106000091AG10999GF105991031021008001061001MA1999999095981MD1999999-0171REMSYN011333   59017
0115832880999991991021712004-13267-043417FM-12+0458SBLP V0209991C00001220001CN0200001N9+02721+02321101271ADDAA106000091AG10999GF104991021011008001001021KA1240N+02201MA1999999096161MD1999999-0241REMSYN017333   20220 59024
0096832880999991991021718004-13267-043417FM-12+0458SBLP V0202301N00211105001CN0200001N9+03361+02001100801ADDAA106000091AG10999GF106991031011008001001021MA1999999095741MD1999999-0241REMSYN011333   59024
0115832880999991991021800004-13267-043417FM-12+0458SBLP V0202301N00051105001CN9999999N9+02731+02101100911ADDAA106000091AG10999GF106991031011008001001021KA1240M+03411MA1999999095841MD1999999-0201REMSYN017333   10341 59020
0115832880999991991021812004-13267-043417FM-12+0458SBLP V0203201N00151220001CN0200001N9+02581+02191101141ADDAA106000091AG10999GF102991021011008001001001KA1240N+02011MA1999999096051MD1999999-0111REMSYN017333   20201 59011
0096832880999991991021818004-13267-043417FM-12+0458SBLP V0203201N00461045001CN0200001N9+03401+02001100721ADDAA106000091AG10999GF106991031021008001061001MA1999999095661MD1999999-0081REMSYN011333   59008
0115832880999991991021900004-13267-043417FM-12+0458SBLP V0202701N00101220001CN9999999N9+02641+02161100841ADDAA106000091AG10999GF100991001001999999001001KA1240M+03441MA1999999095751MD1999999-0091REMSYN017333   10344 59009
0115832880999991991021912004-13267-043417FM-12+0458SBLP V0203201N00101220001CN0200001N9+02681+02161101241ADDAA106000091AG10999GF104991011011008001001021KA1240N+02161MA1999999096151MD1999999+0101REMSYN017333   20216 58010
0096832880999991991021918004-13267-043417FM-12+0458SBLP V0201401N00211220001CN0200001N9+03401+02001100741ADDAA106000091AG10999GF106991031011008001001041MA1999999095681MD1999999+0021REMSYN011333   58002
0115832880999991991022000004-13267-043417FM-12+0458SBLP V0209991C00001220001CN9999999N9+02581+02171101011ADDAA106000091AG10999GF101991011001022501031001KA1240M+03421MA1999999095931MD1999999+0181REMSYN017333   10342 58018
0115832880999991991022012004-13267-043417FM-12+0458SBLP V0203601N00361012001CN0200001N9+02701+02171101381ADDAA106000091AG10999GF106991061081008001001001KA1240N+02061MA1999999096281MD1999999+0131REMSYN017333   20206 58013
0115832880999991991022100004-13267-043417FM-12+0458SBLP V0203601N00151220001CN9999999N9+02631+02141101221ADDAA106000091AG10999GF101991011001022501001071KA1240M+03541MA1999999096171MD1999999+0241REMSYN017333   10354 58024
0143832880999991991022112004-13267-043417FM-12+0458SBLP V0209991C00001021001CN0200001N9+02441+02251101401ADDAA124007091AG10999AY161061AY261061GF108991051001022501071091KA1240N+02091MA1999999096291MD1999999+0011MW1021REMSYN023333   20209 58001 60074
0143832880999991991022200004-13267-043417FM-12+0458SBLP V0209991C00001220001CN9999999N9+02341+02201101111ADDAA106002091AG10999AY161061AY251061GF100991001001999999001001KA1240M+03061MA1999999096001MD1999999-0171MW1001REMSYN023333   10306 59017 60021
0121832880999991991022212004-13267-043417FM-12+0458SBLP V0202301N00101220001CN0200001N9+02641+02271101551ADDAA124023091AG10999GF101991011061008001001001KA1240N+02101MA1999999096431MD1999999+0141REMSYN023333   20210 58014 60234
0096832880999991991022218004-13267-043417FM-12+0458SBLP V0209991C00001220001CN0200001N9+03281+02201101031ADDAA106000091AG10999GF103991031021008001001001MA1999999095951MD1999999+0011REMSYN011333   58001
0115832880999991991022312004-13267-043417FM-12+0458SBLP V0209991C00001220001CN0200001N9+02791+01961101411ADDAA106000091AG10999GF100991001001999999001001KA1240N+02061MA1999999096321MD1999999-0111REMSYN017333   20206 59011
0096832880999991991022318004-13267-043417FM-12+0458SBLP V0209991C00001220001CN0200001N9+03421+01871101141ADDAA106000091AG10999GF102991021011008001001001MA1999999096061MD1999999+0111REMSYN011333   58011
0096832880999991991022418004-13267-043417FM-12+0458SBLP V0201801N00151220001CN0200001N9+03541+01801101071ADDAA106000091AG10999GF102991021011008001001001MA1999999096001MD1999999-0061REMSYN011333   59006
0115832880999991991022500004-13267-043417FM-12+0458SBLP V0209991C00001220001CN9999999N9+02821+02171101231ADDAA106000091AG10999GF100991001001999999001001KA1240M+03561MA1999999096151MD1999999+0011REMSYN017333   10356 58001
0115832880999991991022512004-13267-043417FM-12+0458SBLP V0200901N00151220001CN0200001N9+02781+02091101501ADDAA106000091AG10999GF105991001001999999001041KA1240N+02021MA1999999096411MD1999999+0051REMSYN017333   20202 58005
0096832880999991991022518004-13267-043417FM-12+0458SBLP V0201801N00151220001CN0200001N9+03371+01931101071ADDAA106000091AG10999GF103991031021008001001001MA1999999096001MD1999999+0001REMSYN011333   58000
0115832880999991991022600004-13267-043417FM-12+0458SBLP V0202301N00101220001CN9999999N9+02831+02101101101ADDAA106000091AG10999GF101991011021022501001001KA1240M+03481MA1999999096031MD1999999-0121REMSYN017333   10348 59012
0115832880999991991022612004-13267-043417FM-12+0458SBLP V0203201N00101105001CN0200001N9+02671+02091101391ADDAA106000091AG10999GF108991011081008001001071KA1240N+02321MA1999999096301MD1999999-0111REMSYN017333   20232 59011
0096832880999991991022618004-13267-043417FM-12+0458SBLP V0203201N00151105001CN0200001N9+02941+02051101081ADDAA106000091AG10999GF108991011081008001001071MA1999999095991MD1999999-0011REMSYN011333   59001
0115832880999991991022700004-13267-043417FM-12+0458SBLP V0201801N00211220001CN9999999N9+02441+02111101331ADDAA106000091AG10999GF102991021001022501041001KA1240M+03141MA1999999096221MD1999999+0191REMSYN017333   10314 58019
0115832880999991991022712004-13267-043417FM-12+0458SBLP V0203201N00151220001CN0200001N9+02601+02101101381ADDAA106000091AG10999GF103991011011008001001999KA1240N+02111MA1999999096261MD1999999-0041REMSYN017333   20211 59004
0096832880999991991022718004-13267-043417FM-12+0458SBLP V0201401N00101105001CN0200001N9+03461+01781100981ADDAA106000091AG10999GF105991031011008001001021MA1999999095921MD1999999-0071REMSYN011333   59007
0115832880999991991022800004-13267-043417FM-12+0458SBLP V0201801N00261220001CN9999999N9+02701+01991101021ADDAA106000091AG10999GF106991011011008001001041KA1240M+03461MA1999999095941MD1999999-0281REMSYN017333   10346 59028
0115832880999991991022812004-13267-043417FM-12+0458SBLP V0200901N00211220001CN0200001N9+02661+01471101551ADDAA106000091AG10999GF102991001001999999001021KA1240N+02011MA1999999096451MD1999999+0191REMSYN017333   20201 58019
0096832880999991991022818004-13267-043417FM-12+0458SBLP V0202301N00101220001CN0200001N9+03321+01281101151ADDAA106000091AG10999GF106991011011008001001061MA1999999096071MD1999999+0151REMSYN011333   58015
0115832880999991991030100004-13267-043417FM-12+0458SBLP V0202301N00101045001CN9999999N9+02721+01821101261ADDAA106000091AG10999GF105991021011008001031001KA1240M+03341MA1999999096171MD1999999+0231REMSYN017333   10334 58023
0115832880999991991030112004-13267-043417FM-12+0458SBLP V0201401N00261220001CN0200001N9+02681+01831101461ADDAA106000091AG10999GF102991011001022501031021KA1240N+02061MA1999999096361MD1999999-0091REMSYN017333   20206 59009
0096832880999991991030118004-13267-043417FM-12+0458SBLP V0201801N00311220001CN0200001N9+03441+01531100921ADDAA106000091AG10999GF105991031011008001001011MA1999999095851MD1999999+0221REMSYN011333   58022
0115832880999991991030200004-13267-043417FM-12+0458SBLP V0201401N00211220001CN9999999N9+02641+01511101011ADDAA106000091AG10999GF103991001001999999001021KA1240M+03481MA1999999095931MD1999999-0241REMSYN017333   10348 59024
0115832880999991991030212004-13267-043417FM-12+0458SBLP V0201401N00101220001CN0200001N9+02821+01861101261ADDAA106000091AG10999GF101991001001999999001021KA1240N+01991MA1999999096181MD1999999-0181REMSYN017333   20199 59018
0096832880999991991030218004-13267-043417FM-12+0458SBLP V0201401N00051105001CN0200001N9+03481+01611100701ADDAA106000091AG10999GF105991031011008001001021MA1999999095641MD1999999-0211REMSYN011333   59021
0143832880999991991030312004-13267-043417FM-12+0458SBLP V0201401N00101045001CN0200001N9+02561+02021101291ADDAA124003091AG10999AY161061AY221061GF105991011011008001031001KA1240N+02181MA1999999096201MD1999999+0021MW1021REMSYN023333   20218 58002 60034
0096832880999991991030318004-13267-043417FM-12+0458SBLP V0200501N00211045001CN0200001N9+03441+01531100821ADDAA106000091AG10999GF106991031021008001061001MA1999999095761MD1999999+0121REMSYN011333   58012
0115832880999991991030400004-13267-043417FM-12+0458SBLP V0201401N00051045001CN9999999N9+02601+02011101041ADDAA106000091AG10999GF107991031011008001071001KA1240M+03481MA1999999095951MD1999999+0131REMSYN017333   10348 58013
0115832880999991991030412004-13267-043417FM-12+0458SBLP V0201401N00151220001CN0200001N9+02821+01941101361ADDAA106000091AG10999GF103991011011008001001021KA1240N+02211MA1999999096271MD1999999+0071REMSYN017333   20221 58007
0096832880999991991030418004-13267-043417FM-12+0458SBLP V0202301N00151045001CN0200001N9+03081+01981100891ADDAA106000091AG10999GF107991031021008001071001MA1999999095821MD1999999+0061REMSYN011333   58006
0115832880999991991030512004-13267-043417FM-12+0458SBLP V0203201N00101220001CN0200001N9+02681+02061101421ADDAA106000091AG10999GF102991021011008001001001KA1240N+02041MA1999999096321MD1999999+0051REMSYN017333   20204 58005
0096832880999991991030518004-13267-043417FM-12+0458SBLP V0209991C00001220001CN0200001N9+03331+01781100921ADDAA106000091AG10999GF103991031021008001001001MA1999999095851MD1999999+0031REMSYN011333   58003
0146832880999991991030600004-13267-043417FM-12+0458SBLP V0200901N00261045001CN9999999N9+02351+02071101291ADDAA106000291AA299000391AG10999AY131061GF108991031081008001021071KA1240M+03441MA1999999096181MD1999999+0061MW1951REMSYN023333   10344 58006 69921
0121832880999991991030612004-13267-043417FM-12+0458SBLP V0200501N00211220001CN0200001N9+02681+01991101441ADDAA124000591AG10999GF103991001001999999001081KA1240N+02131MA1999999096321MD1999999+0001REMSYN023333   20213 58000 69954
0096832880999991991030618004-13267-043417FM-12+0458SBLP V0201801N00151220001CN0200001N9+03351+01801100941ADDAA106000091AG10999GF102991021011008001001081MA1999999095871MD1999999+0021REMSYN011333   58002
0115832880999991991030700004-13267-043417FM-12+0458SBLP V0200901N00361220001CN9999999N9+02741+01921101061ADDAA106000091AG10999GF100991001001999999001001KA1240M+03401MA1999999095981MD1999999-0201REMSYN017333   10340 59020
0115832880999991991030712004-13267-043417FM-12+0458SBLP V0201401N00211105001CN0200001N9+02741+01701101411ADDAA106000091AG10999GF107991001001999999001081KA1240N+02041MA1999999096321MD1999999+0001REMSYN017333   20204 58000
0115832880999991991030812004-13267-043417FM-12+0458SBLP V0201801N00261220001CN0200001N9+02801+01951101371ADDAA106000091AG10999GF100991001001999999001001KA1240N+02091MA1999999096261MD1999999-0061REMSYN017333   20209 59006
0096832880999991991030818004-13267-043417FM-12+0458SBLP V0201801N00211007501CN0200001N9+03331+01821100901ADDAA106000091AG10999GF105991051021008001001001MA1999999095831MD1999999-0031REMSYN011333   59003
0115832880999991991030900004-13267-043417FM-12+0458SBLP V0200901N00211220001CN9999999N9+02541+01981101181ADDAA106000091AG10999GF102991021001022501031001KA1240M+03441MA1999999096041MD1999999-0011REMSYN017333   10344 59001
0115832880999991991030912004-13267-043417FM-12+0458SBLP V0201401N00311105001CN0200001N9+02701+01781101541ADDAA106000091AG10999GF106991001001999999001051KA1240N+02101MA1999999096431MD1999999+0171REMSYN017333   20210 58017
0062832880999991991030918004-13267-043417FM-12+0458SBLP V0202301N00151105001CN0200001N9+03371+01811101081ADDAA106000091AG10999GF106991041021008001001051MA1999999096011
0115832880999991991031000004-13267-043417FM-12+0458SBLP V0201401N00151220001CN9999999N9+02661+02021101251ADDAA106000091AG10999GF103991031001022501031001KA1240M+03441MA1999999096161MD1999999+0071REMSYN017333   10344 58007
0115832880999991991031012004-13267-043417FM-12+0458SBLP V0200901N00211220001CN0200001N9+02841+01931101491ADDAA106000091AG10999GF100991001001999999001001KA1240N+02181MA1999999096401MD1999999-0031REMSYN017333   20218 59003
0096832880999991991031018004-13267-043417FM-12+0458SBLP V0201401N00411220001CN0200001N9+03531+01741100931ADDAA106000091AG10999GF103991031021008001001001MA1999999095881MD1999999-0131REMSYN011333   59013
0115832880999991991031112004-13267-043417FM-12+0458SBLP V0201401N00101220001CN0200001N9+02741+01941101491ADDAA106000091AG10999GF103991001001999999001011KA1240N+01961MA1999999096391MD1999999-0011REMSYN017333   20196 59001
0096832880999991991031118004-13267-043417FM-12+0458SBLP V0201801N00101220001CN0200001N9+03511+01581100851ADDAA106000091AG10999GF102991021011008001001001MA1999999095791MD1999999-0091REMSYN011333   59009
0115832880999991991031200004-13267-043417FM-12+0458SBLP V0209991C00001220001CN9999999N9+02781+01881101001ADDAA106000091AG10999GF100991001001999999001001KA1240M+03601MA1999999095931MD1999999-0241REMSYN017333   10360 59024
0115832880999991991031212004-13267-043417FM-12+0458SBLP V0200501N00151220001CN0200001N9+02861+01871101241ADDAA106000091AG10999GF100991001001999999001001KA1240N+02081MA1999999096161MD1999999-0231REMSYN017333   20208 59023
0115832880999991991031312004-13267-043417FM-12+0458SBLP V0203201N00151220001CN0200001N9+02761+01801101211ADDAA106000091AG10999GF103991011011008001031001KA1240N+02101MA1999999096141MD1999999-0021REMSYN017333   20210 59002
0096832880999991991031318004-13267-043417FM-12+0458SBLP V0203201N00151045001CN0200001N9+03561+01731100561ADDAA106000091AG10999GF106991031021008001061001MA1999999095531MD1999999-0191REMSYN011333   59019
0115832880999991991031400004-13267-043417FM-12+0458SBLP V0203201N00151220001CN9999999N9+02861+01621100751ADDAA106000091AG10999GF101991011021008001001001KA1240M+03661MA1999999095701MD1999999-0021REMSYN017333   10366 59002
0143832880999991991031412004-13267-043417FM-12+0458SBLP V0203201N00211045001CN0200001N9+02521+02191101161ADDAA124000391AG10999AY121061AY261061GF106991031011008001061001KA1240N+02291MA1999999096081MD1999999-0061MW1021REMSYN023333   20229 59006 69934
0124832880999991991031418004-13267-043417FM-12+0458SBLP V0202301N00361045001CN0200001N9+02801+02251100831ADDAA106003091AG10999AY161061AY261061GF107991031081008001071001MA1999999095751MD1999999+0221MW1151REMSYN017333   58022 60031
0143832880999991991031500004-13267-043417FM-12+0458SBLP V0203601N00101220001CN9999999N9+02481+02321101011ADDAA106000391AG10999AY121061AY261061GF101991011011008001001001KA1240M+03121MA1999999095911MD1999999+0211MW1021REMSYN023333   10312 58021 69931
0121832880999991991031512004-13267-043417FM-12+0458SBLP V0203201N00151045001CN0200001N9+02501+02251101271ADDAA124003091AG10999GF107991031081008001071001KA1240N+02181MA1999999096161MD1999999+0081REMSYN023333   20218 58008 60034
0124832880999991991031518004-13267-043417FM-12+0458SBLP V0201401N00101045001CN0200001N9+02841+02221100871ADDAA106002091AG10999AY161061AY221061GF107991021021008001061041MA1999999095771MD1999999+0021MW1021REMSYN017333   58002 60021
0115832880999991991031600004-13267-043417FM-12+0458SBLP V0203201N00101045001CN9999999N9+02581+02311101021ADDAA106000091AG10999GF108991041041008001011999KA1240M+03061MA1999999095931MD1999999+0021REMSYN017333   10306 58002
0135832880999991991031612004-13267-043417FM-12+0458SBLP V0202701N00261004201CN0100001N9+02281+02251101291ADDAA124027091AG10999AY121061GF108991051051004501021999KA1240N+02191MA1999999096171MD1999999+0011MW1621REMSYN023333   20219 58001 60274
0124832880999991991031618004-13267-043417FM-12+0458SBLP V0201401N00101105001CN0200001N9+02371+02201100951ADDAA106025091AG10999AY161061AY261061GF108991031051008001001071MA1999999095831MD1999999+0061MW1021REMSYN017333   58006 60251
0115832880999991991031700004-13267-043417FM-12+0458SBLP V0201801N00151220001CN9999999N9+02281+02161101071ADDAA106000091AG10999GF104991001001999999001081KA1240M+02561MA1999999095951MD1999999+0021REMSYN017333   10256 58002
0121832880999991991031712004-13267-043417FM-12+0458SBLP V0203601N00211004201CN0200001N9+02501+02251101251ADDAA124025091AG10999GF108991061051004501001071KA1240N+02061MA1999999096131MD1999999-0041REMSYN023333   20206 59004 60254
0124832880999991991031718004-13267-043417FM-12+0458SBLP V0203201N00101045001CN0200001N9+02441+02191101011ADDAA106003091AG10999AY121061AY261061GF108991041051008001021999MA1999999095891MD1999999+0061MW1211REMSYN017333   58006 60031
0143832880999991991031800004-13267-043417FM-12+0458SBLP V0200901N00151045001CN9999999N9+02261+02071101231ADDAA106000391AG10999AY161061AY221061GF107991041051008001011001KA1240M+02621MA1999999096111MD1999999+0161MW1021REMSYN023333   10262 58016 69931
0143832880999991991031812004-13267-043417FM-12+0458SBLP V0200501N00151045001CN0200001N9+02361+02111101431ADDAA124003091AG10999AY161061AY221061GF107991041081008001071001KA1240N+02121MA1999999096291MD1999999+0261MW1021REMSYN023333   20212 58026 60034
0115832880999991991031900004-13267-043417FM-12+0458SBLP V0202701N00051045001CN9999999N9+02481+02341101111ADDAA106000091AG10999GF106991031051008001011001KA1240M+03021MA1999999096011MD1999999-0101REMSYN017333   10302 59010
0143832880999991991031912004-13267-043417FM-12+0458SBLP V0203201N00151045001CN0200001N9+02261+02181101651ADDAA124054091AG10999AY161061AY261061GF108991041061008001021999KA1240N+02091MA1999999096511MD1999999+0221MW1611REMSYN023333   20209 58022 60544
0135832880999991991031918004-13267-043417FM-12+0458SBLP V0209991C00001045001CN0200001N9+02621+02311101241ADDAA106000691AA299000591AG10999AY161061AY251061GF108991041051008001021999MA1999999096121MD1999999+0261MW1211REMSYN017333   58026 69961
0143832880999991991032000004-13267-043417FM-12+0458SBLP V0209991C00001045001CN9999999N9+02361+02281101441ADDAA106010091AG10999AY161061AY261061GF108991041061008001021999KA1240M+02701MA1999999096301MD1999999+0291MW1021REMSYN023333   10270 58029 60101
0121832880999991991032012004-13267-043417FM-12+0458SBLP V0201401N00211045001CN0200001N9+02441+02301101591ADDAA124010091AG10999GF108991041051008001011999KA1240N+02241MA1999999096451MD1999999-0061REMSYN023333   20224 59006 60104
0124832880999991991032018004-13267-043417FM-12+0458SBLP V0209991C00001045001CN0200001N9+02601+02461101291ADDAA106006091AG10999AY151061AY261061GF107991041051008001071001MA1999999096171MD1999999+0051MW1211REMSYN017333   58005 60061
0115832880999991991032100004-13267-043417FM-12+0458SBLP V0203201N00101220001CN9999999N9+02301+02131101341ADDAA106000091AG10999GF103991011011008001001021KA1240M+02961MA1999999096211MD1999999-0091REMSYN017333   10296 59009
0121832880999991991032112004-13267-043417FM-12+0458SBLP V0202301N00101045001CN0200001N9+02361+02191101411ADDAA124006091AG10999GF108991021011008001031001KA1240N+02091MA1999999096281MD1999999-0171REMSYN023333   20209 59017 60064
0096832880999991991032118004-13267-043417FM-12+0458SBLP V0202301N00151220001CN0200001N9+03261+02051100911ADDAA106000091AG10999GF103991031011008001001001MA1999999095841MD1999999-0331REMSYN011333   59033
0102832880999991991032200004-13267-043417FM-12+0458SBLP V0201401N00051220001CN9999999N9+02561+02231100971ADDAA106000091AG10999GF101991011001022501031001MA1999999095871MD1999999-0341REMSYN017333   1032/ 59034
0115832880999991991032212004-13267-043417FM-12+0458SBLP V0209991C00001045001CN0200001N9+02431+02261101151ADDAA106000091AG10999GF108991041051004501021071KA1240N+02281MA1999999096051MD1999999-0231REMSYN017333   20228 59023
0096832880999991991032218004-13267-043417FM-12+0458SBLP V0209999999999105001CN0200001N9+02841+02331100781ADDAA106000091AG10999GF107991031021008001001071MA1999999095701MD1999999-0141REMSYN011333   59014
0115832880999991991032312004-13267-043417FM-12+0458SBLP V0203201N00151045001CN0200001N9+02681+02241101031ADDAA106000091AG10999GF107991041041008001071001KA1240N+02171MA1999999095941MD1999999-0111REMSYN017333   20217 59011
0096832880999991991032318004-13267-043417FM-12+0458SBLP V0203601N00461012001CN0200001N9+03141+02131100551ADDAA106000091AG10999GF106991061081008001001081MA1999999095491MD1999999-0211REMSYN011333   59021
0134832880999991991032400004-13267-043417FM-12+0458SBLP V0201401N00151220001CN9999999N9+02501+02271100781ADDAA106000091AG10999GF107991001001999999001011KA1240M+99999MA1999999095711MD1999999-0021REMSYN017333   10219 59002EQDQ01 +02192ATMX  
0143832880999991991032412004-13267-043417FM-12+0458SBLP V0209991C00001004201CN0200001N9+02341+02241101231ADDAA124008091AG10999AY161061AY261061GF108991051051004501001071KA1240N+02121MA1999999096111MD1999999+0171MW1031REMSYN023333   20212 58017 60084
0096832880999991991032418004-13267-043417FM-12+0458SBLP V0202701N00101105001CN0200001N9+02881+02281100911ADDAA106000091AG10999GF107991031081008001001081MA1999999095831MD1999999+0341REMSYN011333   58034
0143832880999991991032500004-13267-043417FM-12+0458SBLP V0209991C00001220001CN9999999N9+02321+02201101161ADDAA106004091AG10999AY161061AY261061GF105991001001999999001011KA1240M+03181MA1999999096041MD1999999+0331MW1011REMSYN023333   10318 58033 60041
0121832880999991991032512004-13267-043417FM-12+0458SBLP V0209991C00001004201CN0200001N9+02461+02301101441ADDAA124004091AG10999GF108991051051004501001071KA1240N+02241MA1999999096311MD1999999+0201REMSYN023333   20224 58020 60044
0096832880999991991032518004-13267-043417FM-12+0458SBLP V0209991C00001220001CN0200001N9+03161+02341100981ADDAA106000091AG10999GF103991031021008001001001MA1999999095911MD1999999+0081REMSYN011333   58008
0154832880999991991032600004-13267-043417FM-12+0458SBLP V0209991C00001220001CN9999999N9+02421+02321101221ADDAA106000891AA299001091AG10999AY191061AY261061GF102991021081008001001001KA1240M+03241MA1999999096111MD1999999-0071MW1011REMSYN023333   10324 59007 69981
0151832880999991991032612004-13267-043417FM-12+0458SBLP V0200501N00101220001CN0200001N9+02601+02211101351ADDAA106000091AA224000891AG10999GF101991001001999999001081KA1240N+02211MA1999999096241MD1999999-0061REMSYN023333   20221 59006 69984EQDQ01+000012SCOTLC
0096832880999991991032618004-13267-043417FM-12+0458SBLP V0201801N00211220001CN0200001N9+03081+02271100921ADDAA106000091AG10999GF105991021021008001001081MA1999999095851MD1999999-0061REMSYN011333   59006
0115832880999991991032700004-13267-043417FM-12+0458SBLP V0201801N00151220001CN9999999N9+02521+02171101041ADDAA106000091AG10999GF101991001001999999001041KA1240M+03141MA1999999095951MD1999999-0161REMSYN017333   10314 59016
0115832880999991991032712004-13267-043417FM-12+0458SBLP V0201401N00101220001CN0200001N9+02671+01941101191ADDAA106000091AG10999GF101991001001999999001021KA1240N+01921MA1999999096101MD1999999-0141REMSYN017333   20192 59014
0096832880999991991032718004-13267-043417FM-12+0458SBLP V0202301N00151220001CN0200001N9+03131+01841100761ADDAA106000091AG10999GF104991021011008001001021MA1999999095691MD1999999-0161REMSYN011333   59016
0134832880999991991032800004-13267-043417FM-12+0458SBLP V0202301N00101220001CN9999999N9+02541+01811100921ADDAA106000091AG10999GF104991999999008001999999KA1240M+99999MA1999999095841MD1999999-0111REMSYN017333   10218 59011EQDQ01 +02182ATMX  
0115832880999991991032812004-13267-043417FM-12+0458SBLP V0201401N00151220001CN0200001N9+02721+01951101181ADDAA106000091AG10999GF102991001001999999001021KA1240N+01961MA1999999096091MD1999999-0011REMSYN017333   20196 59001
0096832880999991991032818004-13267-043417FM-12+0458SBLP V0202301N00151220001CN0200001N9+03141+01801100771ADDAA106000091AG10999GF106991031011008001001041MA1999999095691MD1999999+0001REMSYN011333   58000
0115832880999991991032900004-13267-043417FM-12+0458SBLP V0209991C00001220001CN9999999N9+02571+02171100951ADDAA106000091AG10999GF103991001001999999001081KA1240M+03241MA1999999095871MD1999999+0031REMSYN017333   10324 58003
0115832880999991991032912004-13267-043417FM-12+0458SBLP V0203201N00151220001CN0200001N9+02541+02171101241ADDAA106000091AG10999GF104991021011008001001021KA1240N+02021MA1999999096141MD1999999+0051REMSYN017333   20202 58005
0096832880999991991032918004-13267-043417FM-12+0458SBLP V0203201N00211220001CN0200001N9+03141+02101100881ADDAA106000091AG10999GF104991021011008001001081MA1999999095801MD1999999+0111REMSYN011333   58011
0115832880999991991033000004-13267-043417FM-12+0458SBLP V0203201N00051220001CN9999999N9+02641+02181101061ADDAA106000091AG10999GF102991021011008001001001KA1240M+03161MA1999999095971MD1999999+0101REMSYN017333   10316 58010
0143832880999991991033012004-13267-043417FM-12+0458SBLP V0203201N00151045001CN0200001N9+02181+02081101561ADDAA124002091AG10999AY151061AY261061GF108991041051008001021999KA1240N+02141MA1999999096431MD1999999+0291MW1601REMSYN023333   20214 58029 60024
0107832880999991991033018004-13267-043417FM-12+0458SBLP V0203201N00101045001CN0200001N9+02961+02231101141ADDAG10999AY161061AY221061GF106991031021008001061001MA1999999096051MD1999999+0251MW1021REMSYN011333   58025
0121832880999991991033112004-13267-043417FM-12+0458SBLP V0209991C00001045001CN0200001N9+02421+02231101541ADDAA124004091AG10999GF107991021011008001031001KA1240N+02121MA1999999096411MD1999999-0021REMSYN023333   20212 59002 60044
0115832880999991991033118004-13267-043417FM-12+0458SBLP V0202301N001519999999N0200001N9+03101+02181100991ADDAA106000091AG10999GF105991999011008001001001MA1999999095911MD1999999-0141REMSYN011333   59014EQDQ01+000042SCOTLC
0115832880999991991040100004-13267-043417FM-12+0458SBLP V0202301N00051007501CN9999999N9+02781+02161101081ADDAA106000091AG10999GF105991051011008001001001KA1240M+03201MA1999999095991MD1999999-0151REMSYN017333   10320 59015
0134832880999991991040112004-13267-043417FM-12+0458SBLP V0203601N00311220001CN9999999N9+02681+02331101331ADDAA106000091AG10999GF103991011011999999001021KA1240N+02201MA1999999096251MD1999999-0161REMSYN017333   20220 59016EQDQ01+000992SCOLCB
0096832880999991991040118004-13267-043417FM-12+0458SBLP V0203201N00211220001CN0200001N9+03181+02311100911ADDAA106000091AG10999GF106991021011008001001061MA1999999095841MD1999999-0071REMSYN011333   59007
0115832880999991991040200004-13267-043417FM-12+0458SBLP V0202301N00261220001CN9999999N9+02621+02211101221ADDAA106000091AG10999GF104991011021008001001041KA1240M+03211MA1999999096131MD1999999-0121REMSYN017333   10321 59012
0132832880999991991040212004-13267-043417FM-12+0458SBLP V0203601N00101012001CN0200001N9+02401+02261101531ADDAA106000091AA224007091AG10999GF108991061081008001001071KA1240N+02161MA1999999096411MD1999999+0161REMSYN023333   20216 58016 60074
0139832880999991991040218004-13267-043417FM-12+0458SBLP V0202701N00211220001CN0500001N9+03041+02361101231ADDAA106000891AA299001091AG10999AY161061AY221061GF103991021021017501001011MD1999999-0011MW1011REMSYN017333   59001 69981EQDQ01+098433APOSP 
0115832880999991991040300004-13267-043417FM-12+0458SBLP V0209991C00001220001CN9999999N9+02401+02281101281ADDAA106000091AG10999GF101991011081008001001001KA1240M+03161MA1999999096171MD1999999+0041REMSYN017333   10316 58004
0143832880999991991040312004-13267-043417FM-12+0458SBLP V0203201N00101045001CN0200001N9+02271+02191101761ADDAA124012091AG10999AY161061AY251061GF108991021051008001021071KA1240N+02121MA1999999096611MD1999999+0201MW1951REMSYN023333   20212 58020 60124
0096832880999991991040318004-13267-043417FM-12+0458SBLP V0209991C00001220001CN0200001N9+03051+02311101221ADDAA106000091AG10999GF104991041081008001001001MA1999999096121MD1999999+0191REMSYN011333   58019
0115832880999991991040400004-13267-043417FM-12+0458SBLP V0209991C00001220001CN9999999N9+02581+02331101451ADDAA106000091AG10999GF100991001001999999001001KA1240M+03101MA1999999096321MD1999999+0151REMSYN017333   10310 58015
0115832880999991991040412004-13267-043417FM-12+0458SBLP V0201401N00101220001CN0200001N9+02701+02111101661ADDAA106000091AG10999GF101991011011008001001001KA1240N+02041MA1999999096551MD1999999-0061REMSYN017333   20204 59006
0102832880999991991040500004-13267-043417FM-12+0458SBLP V0201801N00151220001CN9999999N9+02421+02051101421ADDAA106000091AG10999GF100991001001999999001001MA1999999096311MD1999999-0011REMSYN017333   1014/ 59001
0150832880999991991040512004-13267-043417FM-12+0458SBLP V0201401N005119999999N0200001N9+02161+01741101741ADDAA106000091AG10999GF106991061021999999001001KA1240N+01781MA1999999999999MD1999999+0051REMSYN017333   20178 58005EQDQ01+000992SCOLCBQ02 091953APOSP 
0115832880999991991040518004-13267-043417FM-12+0458SBLP V0202301N00101220001CN0200001N9+03171+02051101181ADDAA106000091AG10999GF101991011021008001001001MA1999999096092MD1999999-0021REMSYN011333   59002EQDQ01+096093APOSP 
0102832880999991991040600004-13267-043417FM-12+0458SBLP V0201801N00211220001CN9999999N9+02501+02001101291ADDAA106000091AG10999GF100991001001999999001001MA1999999096181MD1999999-0131REMSYN017333   1019/ 59013
0134832880999991991040612004-13267-043417FM-12+0458SBLP V0201801N00151220001CN0200001N9+02661+02071999999ADDAA106000091AG10999GF100991001001999999001001KA1240N+02001MA1999999096391MD1999999-0161REMSYN017333   20200 59016EQDQ01 105113APOSLP
0115832880999991991040700004-13267-043417FM-12+0458SBLP V0201801N00261220001CN9999999N9+02421+02011101211ADDAA106000091AG10999GF100991001001999999001001KA1240M+03101MA1999999096121MD1999999+0061REMSYN017333   10310 58006
0096832880999991991040718004-13267-043417FM-12+0458SBLP V0202301N00151220001CN0200001N9+03141+02071101161ADDAA106000091AG10999GF101991011011008001001001MA1999999096061MD1999999+0051REMSYN011333   58005
0115832880999991991040800004-13267-043417FM-12+0458SBLP V0201801N00151220001CN9999999N9+02481+01961101281ADDAA106000091AG10999GF100991001001999999001001KA1240M+03141MA1999999096171MD1999999+0051REMSYN017333   10314 58005
0115832880999991991040812004-13267-043417FM-12+0458SBLP V0201801N00151220001CN0200001N9+02521+02001101421ADDAA106000091AG10999GF100991001001999999001001KA1240N+01911MA1999999096401MD1999999+0051REMSYN017333   20191 58005
0096832880999991991040818004-13267-043417FM-12+0458SBLP V0202301N00261220001CN0200001N9+03061+02081101131ADDAA106000091AG10999GF101991011011008001001001MA1999999096031MD1999999-0031REMSYN011333   59003
0101832880999991991040900004-13267-043417FM-12+0458SBLP V0201801N00211220001CN9999999N9+02561+02081101111ADDAA106000091AG10999GF100991001001999999001001KA1240M+03141MA1999999096021REMSYN017333   10314 5901/
0115832880999991991040912004-13267-043417FM-12+0458SBLP V0200901N00211220001CN0200001N9+02561+02051101421ADDAA106000091AG10999GF100991001001999999001001KA1240N+01901MA1999999096321MD1999999-0081REMSYN017333   20190 59008
0096832880999991991040918004-13267-043417FM-12+0458SBLP V0209991C00001220001CN0200001N9+03181+01871100991ADDAA106000091AG10999GF101991011021008001001001MA1999999095901MD1999999-0131REMSYN011333   59013
0115832880999991991041000004-13267-043417FM-12+0458SBLP V0201801N00211220001CN9999999N9+02581+02101101121ADDAA106000091AG10999GF100991001001999999001001KA1240M+03221MA1999999096041MD1999999+0021REMSYN017333   10322 58002
0115832880999991991041012004-13267-043417FM-12+0458SBLP V0209991C00001220001CN0200001N9+02521+01961101361ADDAA106000091AG10999GF100991001001999999001001KA1240N+01901MA1999999096251MD1999999-0071REMSYN017333   20190 59007
0096832880999991991041018004-13267-043417FM-12+0458SBLP V0209999999999220001CN0200001N9+03201+01861100841ADDAA106000091AG10999GF101991011021008001001001MA1999999095761MD1999999+0141REMSYN011333   58014
0115832880999991991041100004-13267-043417FM-12+0458SBLP V0201401N00211220001CN9999999N9+02561+01901101071ADDAA106000091AG10999GF100991001001999999001001KA1240M+03221MA1999999095981MD1999999-0061REMSYN017333   10322 59006
0115832880999991991041112004-13267-043417FM-12+0458SBLP V0203601N00101220001CN0200001N9+02721+02121101281ADDAA106000091AG10999GF100991001001999999001001KA1240N+02021MA1999999096191MD1999999-0061REMSYN017333   20202 59006
0096832880999991991041118004-13267-043417FM-12+0458SBLP V0209991C00001220001CN0200001N9+03211+01961100841ADDAA106000091AG10999GF101991011011008001001001MA1999999095761MD1999999+0001REMSYN011333   58000
0115832880999991991041200004-13267-043417FM-12+0458SBLP V0209991C00001220001CN9999999N9+02421+02011101081ADDAA106000091AG10999GF101991011081008001001001KA1240M+03241MA1999999095991MD1999999+0011REMSYN017333   10324 58001
0115832880999991991041212004-13267-043417FM-12+0458SBLP V0209991C00001220001CN0200001N9+02671+02231101351ADDAA106000091AG10999GF103991031001022501071001KA1240N+02111MA1999999096241MD1999999+0051REMSYN017333   20211 58005
0096832880999991991041218004-13267-043417FM-12+0458SBLP V0203201N00151220001CN0200001N9+03211+01891100871ADDAA106000091AG10999GF101991011021008001001001MA1999999095791MD1999999+0031REMSYN011333   58003
0115832880999991991041300004-13267-043417FM-12+0458SBLP V0209991C00001220001CN9999999N9+02581+02121101071ADDAA106000091AG10999GF100991001001999999001001KA1240M+03241MA1999999095981MD1999999-0011REMSYN017333   10324 59001
0143832880999991991041312004-13267-043417FM-12+0458SBLP V0209991C00001220001CN0200001N9+02401+02191101281ADDAA124003091AG10999AY161061AY261061GF101991011001022501071001KA1240N+02061MA1999999096171MD1999999-0071MW1021REMSYN023333   20206 59007 60034
0096832880999991991041318004-13267-043417FM-12+0458SBLP V0203601N00151220001CN0200001N9+03161+02051100741ADDAA106000091AG10999GF102991021021008001001001MA1999999095671MD1999999-0121REMSYN011333   59012
0135832880999991991041400004-13267-043417FM-12+0458SBLP V0209991C00001220001CN9999999N9+02381+02211101041ADDAA106003091AG10999AY131061GF102991021081022501001001KA1240M+03161MA1999999095931MD1999999-0051MW1601REMSYN023333   10316 59005 60031
0121832880999991991041412004-13267-043417FM-12+0458SBLP V0209991C00001220001CN0200001N9+02701+02201101271ADDAA124003091AG10999GF100991001001999999001001KA1240N+02151MA1999999096161MD1999999+0231REMSYN023333   20215 58023 60034
0115832880999991991041512004-13267-043417FM-12+0458SBLP V0209991C00001220001CN0200001N9+02721+02101101411ADDAA106000091AG10999GF100991001001999999001001KA1240N+01871MA1999999096321MD1999999+0161REMSYN017333   20187 58016
0096832880999991991041518004-13267-043417FM-12+0458SBLP V0201801N00261012001CN0200001N9+02841+02091101021ADDAA106000091AG10999GF105991051081008001001001MA1999999095911MD1999999+0251REMSYN011333   58025
0115832880999991991041600004-13267-043417FM-12+0458SBLP V0201801N00211220001CN9999999N9+02521+02151101201ADDAA106000091AG10999GF100991001001999999001001KA1240M+03221MA1999999096111MD1999999+0101REMSYN017333   10322 58010
0115832880999991991041612004-13267-043417FM-12+0458SBLP V0201401N00101220001CN0200001N9+02721+02031101481ADDAA106000091AG10999GF101991001001999999001011KA1240N+01981MA1999999096371MD1999999+0051REMSYN017333   20198 58005
0115832880999991991041700004-13267-043417FM-12+0458SBLP V0201801N00051220001CN9999999N9+02521+02071101061ADDAA106000091AG10999GF103991031011008001001001KA1240M+03221MA1999999095981MD1999999-0131REMSYN017333   10322 59013
0115832880999991991041712004-13267-043417FM-12+0458SBLP V0201401N00211220001CN0200001N9+02691+02081101271ADDAA106000091AG10999GF102991001001999999001021KA1240N+02011MA1999999096171MD1999999-0201REMSYN017333   20201 59020
0096832880999991991041718004-13267-043417FM-12+0458SBLP V0203601N00151220001CN0200001N9+03201+01821100761ADDAA106000091AG10999GF104991021011008001001021MA1999999095701MD1999999-0251REMSYN011333   59025
0115832880999991991041800004-13267-043417FM-12+0458SBLP V0200901N00151012001CN9999999N9+02561+02021100941ADDAA106000091AG10999GF105991051081008001001001KA1240M+03281MA1999999095861MD1999999-0121REMSYN017333   10328 59012
0134832880999991991041812004-13267-043417FM-12+0458SBLP V0201401N00511007501CN0200001N9+02121+01621101291ADDAA106000091AG10999GF106991051021008001001021KA1240N+01701MA1999999999999MD1999999+0001REMSYN017333   20170 58000EQDQ01 091543APOSP 
0101832880999991991041818004-13267-043417FM-12+0458SBLP V0202301N00101220001CN0200001N9+03061+02081100891ADDAA106000091AG10999GF106991031011008001001041MA1999999095812REMSYN011333   8011/EQDQ01+095813APOSP 
0115832880999991991041900004-13267-043417FM-12+0458SBLP V0201801N00101220001CN9999999N9+02541+02171101011ADDAA106000091AG10999GF100991001001999999001001KA1240M+03211MA1999999095931MD1999999+0071REMSYN017333   10321 58007
0115832880999991991041912004-13267-043417FM-12+0458SBLP V0200901N00051220001CN0200001N9+02661+01951101431ADDAA106000091AG10999GF100991001001999999001001KA1240N+01921MA1999999096321MD1999999+0211REMSYN017333   20192 58021
0096832880999991991041918004-13267-043417FM-12+0458SBLP V0202301N00101220001CN0200001N9+03261+01911101061ADDAA106000091AG10999GF103991031011008001001001MA1999999095971MD1999999+0161REMSYN011333   58016
0115832880999991991042012004-13267-043417FM-12+0458SBLP V0201801N00101220001CN0200001N9+02581+01851101651ADDAA106000091AG10999GF100991001001999999001001KA1240N+01921MA1999999096531MD1999999+0211REMSYN017333   20192 58021
0096832880999991991042018004-13267-043417FM-12+0458SBLP V0202301N00151220001CN0200001N9+03321+01521101211ADDAA106000091AG10999GF103991031011008001001001MA1999999096121MD1999999+0151REMSYN011333   58015
0115832880999991991042100004-13267-043417FM-12+0458SBLP V0201401N00211220001CN9999999N9+02501+01671101391ADDAA106000091AG10999GF101991011011008001001001KA1240M+03341MA1999999096281MD1999999+0171REMSYN017333   10334 58017
0115832880999991991042112004-13267-043417FM-12+0458SBLP V0201401N00211220001CN0200001N9+02581+01721101721ADDAA106000091AG10999GF100991001001999999001001KA1240N+02021MA1999999096591MD1999999+0061REMSYN017333   20202 58006
0096832880999991991042118004-13267-043417FM-12+0458SBLP V0202301N00361220001CN0200001N9+03261+01561101211ADDAA106000091AG10999GF102991021011008001001001MA1999999096131MD1999999+0011REMSYN011333   58001
0115832880999991991042200004-13267-043417FM-12+0458SBLP V0201401N00311220001CN9999999N9+02481+01801101491ADDAA106000091AG10999GF100991001001999999001001KA1240M+03281MA1999999096371MD1999999+0091REMSYN017333   10328 58009
0115832880999991991042212004-13267-043417FM-12+0458SBLP V0201401N00411220001CN0200001N9+02481+01651101731ADDAA106000091AG10999GF101991011011008001001001KA1240N+01861MA1999999096601MD1999999+0011REMSYN017333   20186 58001
0096832880999991991042218004-13267-043417FM-12+0458SBLP V0201401N00311045001CN0200001N9+02881+01701101341ADDAA106000091AG10999GF107991041011008001031001MA1999999096221MD1999999+0091REMSYN011333   58009
0115832880999991991042300004-13267-043417FM-12+0458SBLP V0201401N00151220001CN9999999N9+02321+01671101461ADDAA106000091AG10999GF100991001001999999001001KA1240M+02961MA1999999096331MD1999999-0041REMSYN017333   10296 59004
0115832880999991991042312004-13267-043417FM-12+0458SBLP V0201401N00311220001CN0200001N9+02461+01781101591ADDAA106000091AG10999GF100991001001999999001001KA1240N+01881MA1999999096451MD1999999-0151REMSYN017333   20188 59015
0096832880999991991042318004-13267-043417FM-12+0458SBLP V0202301N00151220001CN0200001N9+03201+01671101091ADDAA106000091AG10999GF102991021011008001001001MA1999999095991MD1999999-0231REMSYN011333   59023
0100832880999991991042400004-13267-043417FM-12+0458SBLP V0203201N00261220001CN9999999N9+02501+01771101331ADDAA106000091AG10999GF100991001001999999001001KA1240M+03221MD1999999-0111REMSYN017333   10322 59011
0115832880999991991042412004-13267-043417FM-12+0458SBLP V0201401N00151220001CN0200001N9+02471+01851101621ADDAA106000091AG10999GF100991001001999999001001KA1240N+01921MA1999999096491MD1999999+0041REMSYN017333   20192 58004
0096832880999991991042418004-13267-043417FM-12+0458SBLP V0202301N00151220001CN0200001N9+03371+01751101081ADDAA106000091AG10999GF102991021011008001001001MA1999999096001MD1999999+0011REMSYN011333   58001
0115832880999991991042500004-13267-043417FM-12+0458SBLP V0202301N00151220001CN9999999N9+02621+01781101091ADDAA106000091AG10999GF102991021001022501031001KA1240M+03391MA1999999096001MD1999999-0221REMSYN017333   10339 59022
0115832880999991991042512004-13267-043417FM-12+0458SBLP V0200501N00151220001CN0200001N9+02741+01891101341ADDAA106000091AG10999GF101991001001999999001011KA1240N+01941MA1999999096251MD1999999-0241REMSYN017333   20194 59024
0096832880999991991042518004-13267-043417FM-12+0458SBLP V0209999999999220001CN0200001N9+03341+01581100981ADDAA106000091AG10999GF105991021011008001001041MA1999999095901MD1999999-0101REMSYN011333   59010
0115832880999991991042600004-13267-043417FM-12+0458SBLP V0201801N00101220001CN9999999N9+02561+01801101031ADDAA106000091AG10999GF102991021001022501031001KA1240M+03381MA1999999095951MD1999999-0051REMSYN017333   10338 59005
0096832880999991991042618004-13267-043417FM-12+0458SBLP V0202301N00151105001CN0200001N9+03161+01891101011ADDAA106000091AG10999GF107991031011008001001061MA1999999095901MD1999999+0031REMSYN011333   58003
0150832880999991991042700004-13267-043417FM-12+0458SBLP V0209991C00001021001CN0500001N9+02521+02341101461ADDAA106000091AG10999GF106991061001022501061001KA1240M+02931MA1999999999999MD1999999+0161REMSYN017333   10293 58016EQDQ01+098623APOSP Q02 098623APOSP 
0115832880999991991042712004-13267-043417FM-12+0458SBLP V0209991C00001220001CN0200001N9+02621+02071101411ADDAA106000091AG10999GF104991041001022501031001KA1240N+02221MA1999999096311MD1999999+0081REMSYN017333   20222 58008
0096832880999991991042718004-13267-043417FM-12+0458SBLP V0202101N00211045001CN0200001N9+03061+02111100841ADDAA106000091AG10999GF107991031011008001061001MA1999999095771MD1999999-0161REMSYN011333   59016
0154832880999991991042800004-13267-043417FM-12+0458SBLP V0202301N00151045001CN9999999N9+02281+02111101131ADDAA106000891AA299001091AG10999AY151061AY261061GF108991031081008001011999KA1240M+03281MA1999999096021MD1999999-0021MW1021REMSYN023333   10328 59002 69981
0132832880999991991042812004-13267-043417FM-12+0458SBLP V0203201N001019999999N0200001N9+02341+02071101401ADDAA124000891AA299001091AG10999GF108991041081008001999999KA1240N+02141MA1999999096261MD1999999-0051REMSYN023333   20214 59005 69984
0096832880999991991042818004-13267-043417FM-12+0458SBLP V0202301N00101045001CN0200001N9+03081+02071100971ADDAA106000091AG10999GF106991031011008001031001MA1999999095891MD1999999+0121REMSYN011333   58012
0115832880999991991042900004-13267-043417FM-12+0458SBLP V0209991C000019999999N9999999N9+02561+02041101151ADDAA106000091AG10999GF107991021071008001001999KA1240M+03101MA1999999096041MD1999999+0021REMSYN017333   10310 58002
0143832880999991991042912004-13267-043417FM-12+0458SBLP V0200501N00211045001CN0200001N9+02221+02051101441ADDAA124013091AG10999AY161061AY261061GF108991031081008001071999KA1240N+01981MA1999999096311MD1999999+0051MW1021REMSYN023333   20198 58005 60134
0115832880999991991042918004-13267-043417FM-12+0458SBLP V0209991C00001220001CN0500001N9+03251+02131101051ADDAA106000091AG10999GF103991021021017501001011MA1999999098272MD1999999+0071REMSYN011333   58007EQDQ01+098273APOSP 
0115832880999991991043012004-13267-043417FM-12+0458SBLP V0201401N00101220001CN0200001N9+02681+02241101351ADDAA106000091AG10999GF100991001001999999001001KA1240N+01961MA1999999096241MD1999999-0071REMSYN017333   20196 59007
0115832880999991991050100004-13267-043417FM-12+0458SBLP V0201801N00101220001CN9999999N9+02461+02151101101ADDAA106000091AG10999GF100991001001999999001001KA1240M+03261MA1999999096011MD1999999+0021REMSYN017333   10326 58002
0115832880999991991050112004-13267-043417FM-12+0458SBLP V0201401N00211220001CN0200001N9+02511+02051101461ADDAA106000091AG10999GF100991001001999999001001KA1240N+01991MA1999999096341MD1999999+0101REMSYN017333   20199 58010
0096832880999991991050118004-13267-043417FM-12+0458SBLP V0203601N00211220001CN0200001N9+03201+01931101001ADDAA106000091AG10999GF101991011021008001001001MA1999999095921MD1999999+0081REMSYN011333   58008
0115832880999991991050200004-13267-043417FM-12+0458SBLP V0201401N00211220001CN9999999N9+02461+01731101211ADDAA106000091AG10999GF100991001001999999001001KA1240M+03221MA1999999096101MD1999999+0091REMSYN017333   10322 58009
0115832880999991991050212004-13267-043417FM-12+0458SBLP V0209991C00001220001CN0200001N9+02481+01001101401ADDAA106000091AG10999GF100991001001999999001001KA1240N+01851MA1999999096381MD1999999+0041REMSYN017333   20185 58004
0096832880999991991050218004-13267-043417FM-12+0458SBLP V0201801N00211220001CN0200001N9+03111+01521101051ADDAA106000091AG10999GF101991011011008001001001MA1999999095961MD1999999+0041REMSYN011333   58004
0115832880999991991050300004-13267-043417FM-12+0458SBLP V0201401N00051220001CN9999999N9+02221+01601101241ADDAA106000091AG10999GF100991001001999999001001KA1240M+03121MA1999999096121MD1999999+0021REMSYN017333   10312 58002
0115832880999991991050312004-13267-043417FM-12+0458SBLP V0202301N00151220001CN0200001N9+02391+01821101441ADDAA106000091AG10999GF101991001001999999001051KA1240N+01641MA1999999096301MD1999999-0081REMSYN017333   20164 59008
0096832880999991991050318004-13267-043417FM-12+0458SBLP V0209991C00001220001CN0200001N9+03061+01661101041ADDAA106000091AG10999GF101991011011008001001999MA1999999095921MD1999999-0041REMSYN011333   59004
0115832880999991991050400004-13267-043417FM-12+0458SBLP V0202301N00151220001CN9999999N9+02401+01771101221ADDAA106000091AG10999GF100991001001999999001001KA1240M+03161MA1999999096101MD1999999-0021REMSYN017333   10316 59002
0115832880999991991050412004-13267-043417FM-12+0458SBLP V0201401N00151220001CN0200001N9+02541+01761101361ADDAA106000091AG10999GF100991001001999999001001KA1240N+01741MA1999999096241MD1999999-0061REMSYN017333   20174 59006
0096832880999991991050418004-13267-043417FM-12+0458SBLP V0202301N00211220001CN0200001N9+03171+01711100871ADDAA106000091AG10999GF103991011011008001001081MA1999999095781MD1999999-0141REMSYN011333   59014
0115832880999991991050500004-13267-043417FM-12+0458SBLP V0201801N00151220001CN9999999N9+02441+01661101171ADDAA106000091AG10999GF100991001001999999001001KA1240M+03181MA1999999096061MD1999999-0041REMSYN017333   10318 59004
0115832880999991991050512004-13267-043417FM-12+0458SBLP V0200901N00101220001CN0200001N9+02621+01871101361ADDAA106000091AG10999GF100991001001999999001001KA1240N+01801MA1999999096251MD1999999+0011REMSYN017333   20180 58001
0115832880999991991050600004-13267-043417FM-12+0458SBLP V0203201N00211220001CN9999999N9+02561+01851101111ADDAA106000091AG10999GF100991001001999999001001KA1240M+03201MA1999999096021MD1999999-0041REMSYN017333   10320 59004
0115832880999991991050612004-13267-043417FM-12+0458SBLP V0201801N00101220001CN0200001N9+02541+01951101451ADDAA106000091AG10999GF102991021081008001001071KA1240N+01931MA1999999096341MD1999999+0091REMSYN017333   20193 58009
0115832880999991991050618004-13267-043417FM-12+0458SBLP V0201801N002119999999N0200001N9+03241+01361101041ADDAA106000091AG10999GF105991999001022501051001MA1999999095951MD1999999+0071REMSYN011333   58007EQDQ01+000042SCOTLC
0115832880999991991050700004-13267-043417FM-12+0458SBLP V0201801N00101220001CN9999999N9+02561+02131101271ADDAA106000091AG10999GF100991001001999999001001KA1240M+03281MA1999999096161MD1999999+0141REMSYN017333   10328 58014
0115832880999991991050712004-13267-043417FM-12+0458SBLP V0201801N00101220001CN0200001N9+02441+01951101531ADDAA106000091AG10999GF106991001001999999001081KA1240N+02041MA1999999096411MD1999999+0071REMSYN017333   20204 58007
0096832880999991991050718004-13267-043417FM-12+0458SBLP V0202301N00211045001CN0200001N9+03101+02261101121ADDAA106000091AG10999GF106991031011008001061001MA1999999096041MD1999999+0091REMSYN011333   58009
0115832880999991991050800004-13267-043417FM-12+0458SBLP V0201801N00101220001CN9999999N9+02341+02001101271ADDAA106000091AG10999GF100991001001999999001001KA1240M+03121MA1999999096151MD1999999-0011REMSYN017333   10312 59001
0115832880999991991050812004-13267-043417FM-12+0458SBLP V0201801N00211220001CN0200001N9+02721+02051101511ADDAA106000091AG10999GF101991011011022501031001KA1240N+02061MA1999999096391MD1999999-0021REMSYN017333   20206 59002
0096832880999991991050818004-13267-043417FM-12+0458SBLP V0202301N00311220001CN0200001N9+03221+02111100981ADDAA106000091AG10999GF103991031011008001001001MA1999999095901MD1999999-0141REMSYN011333   59014
0115832880999991991050900004-13267-043417FM-12+0458SBLP V0201801N00261220001CN9999999N9+02641+02091101201ADDAA106000091AG10999GF100991001001999999001001KA1240M+03241MA1999999096121MD1999999-0031REMSYN017333   10324 59003
0115832880999991991050912004-13267-043417FM-12+0458SBLP V0201801N00151220001CN0200001N9+02581+02041101511ADDAA106000091AG10999GF100991001001999999001001KA1240N+01941MA1999999096401MD1999999+0011REMSYN017333   20194 58001
0096832880999991991050918004-13267-043417FM-12+0458SBLP V0209999999999220001CN0200001N9+03261+02021101221ADDAA106000091AG10999GF103991031011008001001001MA1999999096131MD1999999+0231REMSYN011333   58023
0115832880999991991051000004-13267-043417FM-12+0458SBLP V0201401N00261220001CN9999999N9+02641+01881101321ADDAA106000091AG10999GF100991001001999999001001KA1240M+03341MA1999999096221MD1999999+0101REMSYN017333   10334 58010
0115832880999991991051012004-13267-043417FM-12+0458SBLP V0201801N00311220001CN0200001N9+02621+01931101651ADDAA106000091AG10999GF103991001001999999001021KA1240N+02041MA1999999096541MD1999999+0141REMSYN017333   20204 58014
0096832880999991991051018004-13267-043417FM-12+0458SBLP V0202301N00311220001CN0200001N9+03301+01871101221ADDAA106000091AG10999GF103991031011008001001001MA1999999096141MD1999999+0011REMSYN011333   58001
0115832880999991991051112004-13267-043417FM-12+0458SBLP V0202301N00101220001CN0200001N9+02421+01931101691ADDAA106000091AG10999GF102991001001999999001021KA1240N+01941MA1999999096561MD1999999+0021REMSYN017333   20194 58002
0115832880999991991051118004-13267-043417FM-12+0458SBLP V0202601N00311220001CN0200001N9+03241+01961101141ADDAA106000091AG10999GF103991999999008001999999MA1999999096051MD1211012-0091REMSYN011333   59009EQDQ01+001012APC3  
0115832880999991991051200004-13267-043417FM-12+0458SBLP V0201801N00261220001CN9999999N9+02481+01781101251ADDAA106000091AG10999GF100991001001999999001001KA1240M+03261MA1999999096141MD1999999-0221REMSYN017333   10326 59022
0115832880999991991051212004-13267-043417FM-12+0458SBLP V0202301N00101220001CN0200001N9+02421+01931101711ADDAA106000091AG10999GF100991001001999999001001KA1240N+01861MA1999999096571MD1999999+0011REMSYN017333   20186 58001
0096832880999991991051218004-13267-043417FM-12+0458SBLP V0201401N00211220001CN0200001N9+03181+01971101231ADDAA106000091AG10999GF104991021011008001001011MA1999999096121MD1999999+0071REMSYN011333   58007
0115832880999991991051300004-13267-043417FM-12+0458SBLP V0201801N00211220001CN9999999N9+02361+01641101501ADDAA106000091AG10999GF100991001001999999001001KA1240M+03261MA1999999096371MD1999999+0231REMSYN017333   10326 58023
0115832880999991991051312004-13267-043417FM-12+0458SBLP V0201801N00361220001CN0200001N9+02501+01621101781ADDAA106000091AG10999GF102991001001999999001021KA1240N+01701MA1999999096661MD1999999+0071REMSYN017333   20170 58007
0096832880999991991051318004-13267-043417FM-12+0458SBLP V0202301N00311220001CN0200001N9+03071+01481101351ADDAA106000091AG10999GF106991001001999999001061MA1999999096231MD1999999+0111REMSYN011333   58011
0115832880999991991051400004-13267-043417FM-12+0458SBLP V0209999999999220001CN9999999N9+02281+01491101531ADDAA106000091AG10999GF100991001001999999001001KA1240M+03121MA1999999096401MD1999999+0031REMSYN017333   10312 58003
0115832880999991991051412004-13267-043417FM-12+0458SBLP V0202301N00101220001CN0200001N9+02331+01911101761ADDAA106000091AG10999GF100991001001999999001001KA1240N+01701MA1999999096601MD1999999-0041REMSYN017333   20170 59004
0096832880999991991051418004-13267-043417FM-12+0458SBLP V0202301N00261220001CN0200001N9+03141+01871101111ADDAA106000091AG10999GF103991011011008001001011MA1999999096001MD1999999-0231REMSYN011333   59023
0115832880999991991051500004-13267-043417FM-12+0458SBLP V0201801N00151220001CN9999999N9+02341+01691101401ADDAA106000091AG10999GF100991001001999999001001KA1240M+03141MA1999999096271MD1999999-0131REMSYN017333   10314 59013
0134832880999991991051512004-13267-043417FM-12+0458SBLP V0200901N00211220001CN0200001N9+02531+01861101651ADDAA106000091AG10999GF101991001001999999001041KA1240N+01701MA1999999096521MD1999999-0081REMSYN017333   20170 59008EQDQ01+000952SCOLCB
0096832880999991991051518004-13267-043417FM-12+0458SBLP V0202701N00151220001CN0200001N9+03101+02151101141ADDAA106000091AG10999GF102991021021008001001001MA1999999096031MD1999999+0031REMSYN011333   58003
0115832880999991991051600004-13267-043417FM-12+0458SBLP V0201401N00211220001CN9999999N9+02441+01921101201ADDAA106000091AG10999GF100991001001999999001001KA1240M+03161MA1999999096201MD1999999-0071REMSYN017333   10316 59007
0115832880999991991051612004-13267-043417FM-12+0458SBLP V0202301N00101220001CN0200001N9+02401+01821101491ADDAA106000091AG10999GF104991001001999999001061KA1240N+01861MA1999999096361MD1999999-0161REMSYN017333   20186 59016
0096832880999991991051618004-13267-043417FM-12+0458SBLP V0201401N00151105001CN0200001N9+03181+01801100991ADDAA106000091AG10999GF105991021011008001001021MA1999999095901MD1999999-0131REMSYN011333   59013
0115832880999991991051700004-13267-043417FM-12+0458SBLP V0201801N00261220001CN9999999N9+02461+01901101251ADDAA106000091AG10999GF100991001001999999001001KA1240M+03191MA1999999096141MD1999999-0061REMSYN017333   10319 59006
0115832880999991991051712004-13267-043417FM-12+0458SBLP V0201801N00101105001CN0750001N9+02431+01951101481ADDAA106000091AG10999GF108991031001999999071071KA1240N+01931MA1999999096351MD1999999-0011REMSYN017333   20193 59001
0096832880999991991051718004-13267-043417FM-12+0458SBLP V0202301N00211021001CN0200001N9+02951+02031101151ADDAA106000091AG10999GF107991061001022501071071MA1999999096041MD1999999+0141REMSYN011333   58014
0115832880999991991051800004-13267-043417FM-12+0458SBLP V0202301N00261220001CN9999999N9+02381+02011101351ADDAA106000091AG10999GF105991001001999999001081KA1240M+02961MA1999999096231MD1999999+0091REMSYN017333   10296 58009
0115832880999991991051812004-13267-043417FM-12+0458SBLP V0201801N00311021001CN0200001N9+02461+01971101721ADDAA106000091AG10999GF105991051001022501071001KA1240N+02041MA1999999096581MD1999999+0231REMSYN017333   20204 58023
0082832880999991991051818004-13267-043417FM-12+0458SBLP V0201801N00101105001CN0200001N9+02781+02181101341ADDAA106000091AG10999GF108991001001999999001071MA1999999096221REMSYN011333   5022/
0115832880999991991051912004-13267-043417FM-12+0458SBLP V0201401N00311105001CN0200001N9+02441+01861101761ADDAA106000091AG10999GF108991041051008001001071KA1240N+01961MA1999999095621MD1999999+0041REMSYN017333   20196 58004
0096832880999991991051918004-13267-043417FM-12+0458SBLP V0201401N00311105001CN0200001N9+02751+02021101441ADDAA106000091AG10999GF108991011051022501001071MA1999999096321MD1999999+0101REMSYN011333   58010
0115832880999991991052000004-13267-043417FM-12+0458SBLP V0201801N00261220001CN9999999N9+02361+01891101581ADDAA106000091AG10999GF104991001001999999001071KA1240M+02861MA1999999096451MD1999999+0121REMSYN017333   10286 58012
0115832880999991991052012004-13267-043417FM-12+0458SBLP V0202301N00151105001CN0200001N9+02301+01981101691ADDAA106000091AG10999GF107991031001022501071081KA1240N+01951MA1999999096531MD1999999+0211REMSYN017333   20195 58021
0096832880999991991052018004-13267-043417FM-12+0458SBLP V0202301N00411105001CN0200001N9+02601+02121101341ADDAA106000091AG10999GF108991041001022501071071MA1999999096221MD1999999-0101REMSYN011333   59010
0115832880999991991052100004-13267-043417FM-12+0458SBLP V0201801N00151045001CN9999999N9+02341+01871101461ADDAA106000091AG10999GF106991031081008001071001KA1240M+03031MA1999999096321MD1999999-0131REMSYN017333   10303 59013
0115832880999991991052112004-13267-043417FM-12+0458SBLP V0202301N00311045001CN0200001N9+02441+02011101751ADDAA106000091AG10999GF105991021011008001031001KA1240N+02121MA1999999096611MD1999999+0081REMSYN017333   20212 58008
0096832880999991991052118004-13267-043417FM-12+0458SBLP V0202301N00261045001CN0200001N9+03001+02051101301ADDAA106000091AG10999GF106991031011008001031001MA1999999096201MD1999999-0021REMSYN011333   59002
0115832880999991991052200004-13267-043417FM-12+0458SBLP V0202301N00261220001CN9999999N9+02471+01981101501ADDAA106000091AG10999GF102991021011008001001001KA1240M+03061MA1999999096371MD1999999+0051REMSYN017333   10306 58005
0115832880999991991052212004-13267-043417FM-12+0458SBLP V0201401N00211045001CN0200001N9+02501+01941101761ADDAA106000091AG10999GF107991031011008001071001KA1240N+02161MA1999999096631MD1999999+0021REMSYN017333   20216 58002
0096832880999991991052218004-13267-043417FM-12+0458SBLP V0202301N00051045001CN0200001N9+03001+02031101311ADDAA106000091AG10999GF108991041081008001071999MA1999999096211MD1999999+0011REMSYN011333   58001
0154832880999991991052300004-13267-043417FM-12+0458SBLP V0201401N00211045001CN9999999N9+02361+01991101611ADDAA106000691AA299000591AG10999AY161061AY251061GF108991041081008001071999KA1240M+03211MA1999999096481MD1999999+0111MW1021REMSYN023333   10321 58011 69961
0132832880999991991052312004-13267-043417FM-12+0458SBLP V0202301N00051220001CN0200001N9+02421+02071101731ADDAA124000691AA299000591AG10999GF103991011011008001031001KA1240N+02021MA1999999096591MD1999999-0041REMSYN023333   20202 59004 69964
0096832880999991991052318004-13267-043417FM-12+0458SBLP V0202301N00101220001CN0200001N9+03421+02021101061ADDAA106000091AG10999GF103991021011008001001021MA1999999095991MD1999999-0221REMSYN011333   59022
0115832880999991991052400004-13267-043417FM-12+0458SBLP V0201401N00101007501CN9999999N9+02801+01901101131ADDAA106000091AG10999GF105991051011008001001001KA1240M+03441MA1999999096041MD1999999-0441REMSYN017333   10344 59044
0143832880999991991052412004-13267-043417FM-12+0458SBLP V0203201N00151220001CN0200001N9+02761+02041101571ADDAA124009091AG10999AY161061AY251061GF103991011011008001031001KA1240N+02081MA1999999096481MD1999999-0111MW1021REMSYN023333   20208 59011 60094
0096832880999991991052418004-13267-043417FM-12+0458SBLP V0202301N00261220001CN0200001N9+03401+01931100931ADDAA106000091AG10999GF104991041011008001001001MA1999999095861MD1999999-0131REMSYN011333   59013
0115832880999991991052500004-13267-043417FM-12+0458SBLP V0201401N00151220001CN9999999N9+02681+02011101111ADDAA106000091AG10999GF104991041011008001001001KA1240M+03421MA1999999096031MD1999999-0011REMSYN017333   10342 59001
0115832880999991991052512004-13267-043417FM-12+0458SBLP V0201401N00151220001CN0200001N9+02701+01911101501ADDAA106000091AG10999GF100991001001999999001001KA1240N+02081MA1999999096401MD1999999-0081REMSYN017333   20208 59008
0096832880999991991052518004-13267-043417FM-12+0458SBLP V0201401N00211220001CN0200001N9+03221+01841101081ADDAA106000091AG10999GF104991041011008001001001MA1999999096001MD1999999+0141REMSYN011333   58014
0115832880999991991052600004-13267-043417FM-12+0458SBLP V0201401N00151220001CN9999999N9+02481+01751101451ADDAA106000091AG10999GF100991001001999999001001KA1240M+03261MA1999999096341MD1999999+0311REMSYN017333   10326 58031
0115832880999991991052612004-13267-043417FM-12+0458SBLP V0201401N00151220001CN0200001N9+02541+01811101641ADDAA106000091AG10999GF102991001001999999001021KA1240N+01811MA1999999096511MD1999999+0111REMSYN017333   20181 58011
0096832880999991991052618004-13267-043417FM-12+0458SBLP V0201401N00261105001CN0200001N9+03201+01591101171ADDAA106000091AG10999GF105991031011008001001021MA1999999096071MD1999999+0071REMSYN011333   58007
0115832880999991991052700004-13267-043417FM-12+0458SBLP V0201401N00151220001CN9999999N9+02491+01591101481ADDAA106000091AG10999GF103991031011008001001001KA1240M+03301MA1999999096361MD1999999+0021REMSYN017333   10330 58002
0115832880999991991052712004-13267-043417FM-12+0458SBLP V0201401N00101220001CN0200001N9+02401+01601101871ADDAA106000091AG10999GF100991001001999999001001KA1240N+01701MA1999999096731MD1999999+0221REMSYN017333   20170 58022
0096832880999991991052718004-13267-043417FM-12+0458SBLP V0200901N00311220001CN0200001N9+03141+01581101421ADDAA106000091AG10999GF104991041011008001001001MA1999999096311MD1999999+0241REMSYN011333   58024
0115832880999991991052800004-13267-043417FM-12+0458SBLP V0201401N00101220001CN9999999N9+02321+01671101611ADDAA106000091AG10999GF100991001001999999001001KA1240M+03161MA1999999096471MD1999999+0111REMSYN017333   10316 58011
0115832880999991991052812004-13267-043417FM-12+0458SBLP V0201801N00151220001CN0200001N9+02421+01741101831ADDAA106000091AG10999GF102991021011008001001001KA1240N+01701MA1999999096671MD1999999-0061REMSYN017333   20170 59006
0096832880999991991052818004-13267-043417FM-12+0458SBLP V0201401N00261220001CN0200001N9+03041+01851101371ADDAA106000091AG10999GF103991031011008001001001MA1999999096251MD1999999-0061REMSYN011333   59006
0115832880999991991052900004-13267-043417FM-12+0458SBLP V0201401N00211220001CN9999999N9+02541+01861101561ADDAA106000091AG10999GF100991001001999999001001KA1240M+03081MA1999999096441MD1999999-0031REMSYN017333   10308 59003
0115832880999991991052912004-13267-043417FM-12+0458SBLP V0201801N00261220001CN0200001N9+02391+01731101711ADDAA106000091AG10999GF103991031081008001001001KA1240N+02001MA1999999096571MD1999999-0101REMSYN017333   20200 59010
0096832880999991991052918004-13267-043417FM-12+0458SBLP V0201801N00361012001CN0200001N9+02761+01831101341ADDAA106000091AG10999GF107991051081008001021001MA1999999096231MD1999999-0021REMSYN011333   59002
0143832880999991991053000004-13267-043417FM-12+0458SBLP V0201801N00211220001CN9999999N9+02361+02051101661ADDAA106000191AG10999AY151061AY251061GF106991031001022501081011KA1240M+02761MA1999999096521MD1999999+0081MW1011REMSYN023333   10276 58008 69911
0121832880999991991053012004-13267-043417FM-12+0458SBLP V0201801N00311045001CN0200001N9+02381+01951101751ADDAA124000191AG10999GF107991041081008001071001KA1240N+02041MA1999999096601MD1999999+0031REMSYN023333   20204 58003 69914
0096832880999991991053018004-13267-043417FM-12+0458SBLP V0200901N00461007501CN0200001N9+02871+02011101321ADDAA106000091AG10999GF106991061021008001001001MA1999999096211MD1999999-0021REMSYN011333   59002
0150832880999991991053100004-13267-043417FM-12+0458SBLP V0201401N00211220001CN0500001N9+02501+01821101531ADDAA106000091AG10999GF104991041001022501031001KA1240M+03131MA1999999999999MD1999999+0111REMSYN017333   10313 58011EQDQ01+098703APOSP Q02 098703APOSP 
0115832880999991991053112004-13267-043417FM-12+0458SBLP V0201401N00511220001CN0200001N9+02421+01911101601ADDAA106000091AG10999GF102991021011008001001001KA1240N+02031MA1999999096521MD1999999-0081REMSYN017333   20203 59008
0096832880999991991053118004-13267-043417FM-12+0458SBLP V0201801N00461012001CN0200001N9+02851+02121101391ADDAA106000091AG10999GF108991081081008001999999MA1999999096261MD1999999+0051REMSYN011333   58005
0115832880999991991060100004-13267-043417FM-12+0458SBLP V0201801N00211021001CN9999999N9+02641+01951101551ADDAA106000091AG10999GF107991071071022501001001KA1240M+02921MA1999999096431MD1999999-0041REMSYN017333   10292 59004
0115832880999991991060112004-13267-043417FM-12+0458SBLP V0201801N00211105001CN0200001N9+02301+01831101671ADDAA106000091AG10999GF107991001001999999001081KA1240N+02101MA1999999096541MD1999999+0021REMSYN017333   20210 58002
0096832880999991991060118004-13267-043417FM-12+0458SBLP V0201401N00211007501CN0200001N9+02941+02081101211ADDAA106000091AG10999GF106991061021008001001001MA1999999096121MD1999999-0141REMSYN011333   59014
0115832880999991991060200004-13267-043417FM-12+0458SBLP V0201801N00211220001CN9999999N9+02401+01891101481ADDAA106000091AG10999GF100991001001999999001001KA1240M+02961MA1999999096351MD1999999-0081REMSYN017333   10296 59008
0115832880999991991060212004-13267-043417FM-12+0458SBLP V0209991C00001220001CN0200001N9+02441+01861101731ADDAA106000091AG10999GF101991011001022501031001KA1240N+02201MA1999999096591MD1999999+0051REMSYN017333   20220 58005
0096832880999991991060218004-13267-043417FM-12+0458SBLP V0201401N00211220001CN0200001N9+02961+01741101241ADDAA106000091AG10999GF102991021011008001001001MA1999999096151MD1999999+0031REMSYN011333   58003
0115832880999991991060300004-13267-043417FM-12+0458SBLP V0201801N00211220001CN9999999N9+02541+01681101511ADDAA106000091AG10999GF100991001001999999001001KA1240M+03061MA1999999096391MD1999999-0041REMSYN017333   10306 59004
0115832880999991991060312004-13267-043417FM-12+0458SBLP V0201401N00101220001CN0200001N9+02321+01871101861ADDAA106000091AG10999GF103991001001999999001081KA1240N+02081MA1999999096721MD1999999+0131REMSYN017333   20208 58013
0096832880999991991060318004-13267-043417FM-12+0458SBLP V0200501N00101220001CN0200001N9+02901+01841101331ADDAA106000091AG10999GF103991031021008001001001MA1999999096221MD1999999+0071REMSYN011333   58007
0115832880999991991060400004-13267-043417FM-12+0458SBLP V0209991C00001220001CN9999999N9+02541+01911101541ADDAA106000091AG10999GF100991001001999999001001KA1240M+03041MA1999999096411MD1999999+0021REMSYN017333   10304 58002
0115832880999991991060412004-13267-043417FM-12+0458SBLP V0201401N00101220001CN0200001N9+02311+01631101821ADDAA106000091AG10999GF101991001001999999001021KA1240N+02031MA1999999096691MD1999999-0031REMSYN017333   20203 59003
0096832880999991991060418004-13267-043417FM-12+0458SBLP V0202301N00151220001CN0200001N9+02921+01461101151ADDAA106000091AG10999GF102991021011008001001001MA1999999096061MD1999999-0161REMSYN011333   59016
0134832880999991991060500004-13267-043417FM-12+0458SBLP V0201401N00101220001CN9999999N9+02461+01441101391ADDAA106000091AG10999GF103991999011008001001001KA1240M+02961MA1999999096261MD1999999-0151REMSYN017333   10296 59015EQDQ01+000022SCOTLC
0115832880999991991060512004-13267-043417FM-12+0458SBLP V0202701N00151220001CN0200001N9+02341+01691101691ADDAA106000091AG10999GF103991031011008001001001KA1240N+02111MA1999999096551MD1999999-0141REMSYN017333   20211 59014
0096832880999991991060518004-13267-043417FM-12+0458SBLP V0202301N00151007501CN0200001N9+02801+01781101141ADDAA106000091AG10999GF106991061011008001001001MA1999999096041MD1999999-0021REMSYN011333   59002
0115832880999991991060600004-13267-043417FM-12+0458SBLP V0209991C00001220001CN9999999N9+02601+01841101401ADDAA106000091AG10999GF100991001001999999001001KA1240M+02881MA1999999096281MD1999999+0021REMSYN017333   10288 58002
0115832880999991991060612004-13267-043417FM-12+0458SBLP V0202701N00051220001CN0200001N9+02441+01811101661ADDAA106000091AG10999GF100991001001999999001001KA1240N+02141MA1999999096531MD1999999-0021REMSYN017333   20214 59002
0096832880999991991060618004-13267-043417FM-12+0458SBLP V0202301N00211220001CN0200001N9+03041+01641101231ADDAA106000091AG10999GF103991031011008001001001MA1999999096141MD1999999+0101REMSYN011333   58010
0115832880999991991060700004-13267-043417FM-12+0458SBLP V0202301N00211220001CN9999999N9+02701+01661101471ADDAA106000091AG10999GF103991031011008001001001KA1240M+03101MA1999999096351MD1999999+0071REMSYN017333   10310 58007
0115832880999991991060712004-13267-043417FM-12+0458SBLP V0202301N00211220001CN0200001N9+02481+01851101731ADDAA106000091AG10999GF101991011001022501031001KA1240N+02241MA1999999096611MD1999999+0081REMSYN017333   20224 58008
0096832880999991991060718004-13267-043417FM-12+0458SBLP V0201401N00101220001CN0200001N9+03141+01911101241ADDAA106000091AG10999GF103991031011008001001001MA1999999096151MD1999999+0011REMSYN011333   58001
0115832880999991991060800004-13267-043417FM-12+0458SBLP V0201401N00151220001CN9999999N9+02881+02001101401ADDAA106000091AG10999GF104991041011008001001001KA1240M+03221MA1999999096311MD1999999-0041REMSYN017333   10322 59004
0115832880999991991060812004-13267-043417FM-12+0458SBLP V0201401N00151220001CN0200001N9+02581+01971101721ADDAA106000091AG10999GF103991011011008001031001KA1240N+02341MA1999999096611MD1999999+0001REMSYN017333   20234 58000
0096832880999991991060818004-13267-043417FM-12+0458SBLP V0202301N00311220001CN0200001N9+03201+01961101231ADDAA106000091AG10999GF103991031011008001001001MA1999999096171MD1999999+0021REMSYN011333   58002
0115832880999991991060900004-13267-043417FM-12+0458SBLP V0201401N00051220001CN9999999N9+02881+02031101391ADDAA106000091AG10999GF102991021011008001001001KA1240M+03261MA1999999096311MD1999999+0001REMSYN017333   10326 58000
0115832880999991991060912004-13267-043417FM-12+0458SBLP V0202301N00051220001CN0200001N9+02521+01961101721ADDAA106000091AG10999GF101991001001999999001011KA1240N+02271MA1999999096611MD1999999+0001REMSYN017333   20227 58000
0096832880999991991060918004-13267-043417FM-12+0458SBLP V0201401N00261045001CN0200001N9+03181+01731101211ADDAA106000091AG10999GF105991021011008001061001MA1999999096141MD1999999-0031REMSYN011333   59003
0115832880999991991061000004-13267-043417FM-12+0458SBLP V0201401N00151220001CN9999999N9+02741+01671101511ADDAA106000091AG10999GF103991031011008001001001KA1240M+03201MA1999999096411MD1999999+0101REMSYN017333   10320 58010
0115832880999991991061012004-13267-043417FM-12+0458SBLP V0201401N00311220001CN0200001N9+02521+01691101881ADDAA106000091AG10999GF104991001001999999001041KA1240N+02141MA1999999096751MD1999999+0141REMSYN017333   20214 58014
0096832880999991991061018004-13267-043417FM-12+0458SBLP V0201401N00151220001CN0200001N9+02941+01511101411ADDAA106000091AG10999GF106991021011008001001061MA1999999096311MD1999999+0171REMSYN011333   58017
0115832880999991991061100004-13267-043417FM-12+0458SBLP V0201401N00211220001CN9999999N9+02481+01461101701ADDAA106000091AG10999GF100991001001999999001001KA1240M+03011MA1999999096571MD1999999+0161REMSYN017333   10301 58016
0115832880999991991061112004-13267-043417FM-12+0458SBLP V0201801N00101105001CN0200001N9+02221+01621102051ADDAA106000091AG10999GF107991001001999999001081KA1240N+02061MA1999999096881MD1999999+0131REMSYN017333   20206 58013
0096832880999991991061118004-13267-043417FM-12+0458SBLP V0201801N00151220001CN0200001N9+02781+01881101551ADDAA106000091AG10999GF106991001001999999001081MA1999999096421MD1999999+0111REMSYN011333   58011
0115832880999991991061200004-13267-043417FM-12+0458SBLP V0202301N00151220001CN9999999N9+02321+01741101781ADDAA106000091AG10999GF100991001001999999001001KA1240M+02801MA1999999096621MD1999999+0051REMSYN017333   10280 58005
0115832880999991991061212004-13267-043417FM-12+0458SBLP V0201801N00151220001CN0200001N9+02241+01731101571ADDAA106000091AG10999GF100991001001999999001001KA1240N+02041MA1999999096411MD1999999-0461REMSYN017333   20204 59046
0096832880999991991061218004-13267-043417FM-12+0458SBLP V0202301N00211220001CN0200001N9+02881+01701101401ADDAA106000091AG10999GF101991011011008001001001MA1999999096281MD1999999-0141REMSYN011333   59014
0115832880999991991061300004-13267-043417FM-12+0458SBLP V0209991C00001220001CN9999999N9+02481+01731101581ADDAA106000091AG10999GF100991001001999999001001KA1240M+02961MA1999999096441MD1999999-0181REMSYN017333   10296 59018
0115832880999991991061312004-13267-043417FM-12+0458SBLP V0202301N00261220001CN0200001N9+02241+01731101831ADDAA106000091AG10999GF101991001001999999001011KA1240N+02041MA1999999096671MD1999999+0251REMSYN017333   20204 58025
0096832880999991991061318004-13267-043417FM-12+0458SBLP V0202301N00261220001CN0200001N9+02991+01921101291ADDAA106000091AG10999GF102991021011008001001001MA1999999096181MD1999999-0101REMSYN011333   59010
0115832880999991991061400004-13267-043417FM-12+0458SBLP V0202301N00101220001CN9999999N9+02521+01841101521ADDAA106000091AG10999GF100991001001999999001001KA1240M+02991MA1999999096391MD1999999-0051REMSYN017333   10299 59005
0115832880999991991061412004-13267-043417FM-12+0458SBLP V0202301N00151220001CN0200001N9+02331+01741101761ADDAA106000091AG10999GF100991001001999999001001KA1240N+02031MA1999999096621MD1999999-0051REMSYN017333   20203 59005
0096832880999991991061418004-13267-043417FM-12+0458SBLP V0202301N00261220001CN0200001N9+02991+01861101211ADDAA106000091AG10999GF103991031081008001001001MA1999999096111MD1999999-0071REMSYN011333   59007
0115832880999991991061500004-13267-043417FM-12+0458SBLP V0202301N00101220001CN9999999N9+02621+01641101431ADDAA106000091AG10999GF101991011001022501011001KA1240M+03081MA1999999096311MD1999999-0081REMSYN017333   10308 59008
0115832880999991991061512004-13267-043417FM-12+0458SBLP V0200901N00151220001CN0200001N9+02441+01641101741ADDAA106000091AG10999GF100991001001999999001001KA1240N+02181MA1999999096611MD1999999-0011REMSYN017333   20218 59001
0096832880999991991061518004-13267-043417FM-12+0458SBLP V0200501N00151220001CN0200001N9+02991+01441101261ADDAA106000091AG10999GF100991001001999999001001MA1999999096171MD1999999+0061REMSYN011333   58006
0115832880999991991061600004-13267-043417FM-12+0458SBLP V0209991C00001220001CN9999999N9+02681+01761101501ADDAA106000091AG10999GF100991001001999999001001KA1240M+03041MA1999999096381MD1999999+0071REMSYN017333   10304 58007
