0154833440999991991010100004-14950-040883FM-12+0905SBQV V0200901N00211004201CN9999999N9+01661+01581101491ADDAA106000291AA299000391AG10999AY151061AY251061GF108991081071004501999999KA1240M+02031MA1999999091441MD1999999-0011MW1201REMSYN023333   10203 59001 69921
0154833440999991991010112004-14950-040883FM-12+0905SBQV V0201401N00311007501CN0100001N9+01681+01581101481ADDAA124000491AA299000591AG10999AY151061AY221061GF108991081061008001999999KA1240N+01391MA1999999091431MD1999999-0041MW1021REMSYN023333   20139 59004 69944
0143833440999991991010212004-14950-040883FM-12+0905SBQV V0200901N00151045001CN0200001N9+01911+01531101421ADDAA124000191AG10999AY161061AY221061GF107991031061008001061001KA1240N+01511MA1999999091411MD1999999-0021MW1021REMSYN023333   20151 59002 69914
0115833440999991991010300004-14950-040883FM-12+0905SBQV V0200901N00151021001CN9999999N9+02051+01801101261ADDAA106000091AG10999GF106991061001022501011001KA1240M+02461MA1999999091191MD1999999-0161REMSYN017333   10246 59016
0121833440999991991010312004-14950-040883FM-12+0905SBQV V0203601N00311220001CN0200001N9+02331+01651101261ADDAA124002091AG10999GF102991021011017501001001KA1240N+01651MA1999999091341MD1999999-0071REMSYN023333   20165 59007 60024
0096833440999991991010318004-14950-040883FM-12+0905SBQV V0201401N00211220001CN0200001N9+02801+01901999999ADDAA106000091AG10999GF104991021021012501041001MA1999999091031MD1999999-0041REMSYN011333   59004
0115833440999991991010412004-14950-040883FM-12+0905SBQV V0203201N00261021001CN0200001N9+02151+01781101221ADDAA106000091AG10999GF105991051001022501081001KA1240N+01631MA1999999091291MD1999999-0051REMSYN017333   20163 59005
0096833440999991991010418004-14950-040883FM-12+0905SBQV V0200501N00151220001CN0200001N9+02861+01781999999ADDAA106000091AG10999GF106991031011017501001061MA1999999091011MD1999999-0021REMSYN011333   59002
0115833440999991991010500004-14950-040883FM-12+0905SBQV V0200501N00151220001CN9999999N9+02231+01841101101ADDAA106000091AG10999GF100991001001999999001001KA1240M+02921MA1999999091191MD1999999+0051REMSYN017333   10292 58005
0115833440999991991010612004-14950-040883FM-12+0905SBQV V0203601N00151004201CN0100001N9+02191+01971101221ADDAA106000091AG10999GF108991081071004501001001KA1240N+01891MA1999999091301MD1999999+0011REMSYN017333   20189 58001
0143833440999991991010700004-14950-040883FM-12+0905SBQV V0200501N00151004201CN9999999N9+02011+01921101121ADDAA106004091AG10999AY161061AY251061GF108991081071004501999999KA1240M+02641MA1999999091191MD1999999-0061MW1201REMSYN023333   10264 59006 60041
0096833440999991991010718004-14950-040883FM-12+0905SBQV V0200901N00211045001CN0200001N9+02351+01911999999ADDAA106000091AG10999GF106991041061008001021001MA1999999091081MD1999999-0011REMSYN011333   59001
0143833440999991991010800004-14950-040883FM-12+0905SBQV V0200901N00211004201CN9999999N9+01971+01901101251ADDAA106003091AG19041AY161061AY251061GF108991081071004501999999KA1240M+02611MA1999999091321MD1999999+0131MW1201REMSYN023333   10261 58013 60031
0121833440999991991010812004-14950-040883FM-12+0905SBQV V0200501N00311007501CN0200001N9+02071+01801101471ADDAA124003091AG10999GF106991061061008001001001KA1240N+01571MA1999999091501MD1999999+0201REMSYN023333   20157 58020 60034
0096833440999991991010818004-14950-040883FM-12+0905SBQV V0200901N00311105001CN0200001N9+02661+01561999999ADDAA106000091AG10999GF106991041021012501001031MA1999999091251MD1999999+0171REMSYN011333   58017
0115833440999991991010912004-14950-040883FM-12+0905SBQV V0200501N00151045001CN0100001N9+02091+01801101521ADDAA106000091AG10999GF108991041071008001021999KA1240N+01721MA1999999091541MD1999999+0041REMSYN017333   20172 58004
0096833440999991991010918004-14950-040883FM-12+0905SBQV V0200901N00151004201CN0040001N9+02611+01941999999ADDAA106000091AG10999GF106991061071004501001001MA1999999091211MD1999999-0041REMSYN011333   59004
0115833440999991991011000004-14950-040883FM-12+0905SBQV V0200501N00261220001CN9999999N9+02091+01931101311ADDAA106000091AG10999GF100991001001999999001001KA1240M+02721MA1999999091361MD1999999-0011REMSYN017333   10272 59001
0115833440999991991011012004-14950-040883FM-12+0905SBQV V0203601N00261045001CN0200001N9+02161+01761101321ADDAA106000091AG10999GF106991041061008001061001KA1240N+01731MA1999999091381MD1999999-0161REMSYN017333   20173 59016
0096833440999991991011018004-14950-040883FM-12+0905SBQV V0203201N00211220001CN0200001N9+02711+01781999999ADDAA106000091AG10999GF104991041051012501001001MA1999999090981MD1999999-0231REMSYN011333   59023
0115833440999991991011100004-14950-040883FM-12+0905SBQV V0200501N00311045001CN9999999N9+02171+01761101101ADDAA106000091AG10999GF108991021061008001021999KA1240M+02831MA1999999091181MD1999999-0181REMSYN017333   10283 59018
0143833440999991991011112004-14950-040883FM-12+0905SBQV V0203601N00151045001CN0100001N9+02151+01681101151ADDAA124002091AG10999AY161061AY221061GF108991041061008001021999KA1240N+01751MA1999999091231MD1999999-0151MW1021REMSYN023333   20175 59015 60024
0096833440999991991011118004-14950-040883FM-12+0905SBQV V0203601N00261045001CN0200001N9+02711+01801999999ADDAA106000091AG10999GF106991031041012501071051MA1999999090841MD1999999-0141REMSYN011333   59014
0143833440999991991011200004-14950-040883FM-12+0905SBQV V0200501N00411004201CN9999999N9+02071+01911100981ADDAA106001091AG10999AY161061AY261061GF108991081071004501999999KA1240M+02741MA1999999091061MD1999999-0121MW1601REMSYN023333   10274 59012 60011
0143833440999991991011212004-14950-040883FM-12+0905SBQV V0203601N00311045001CN0100001N9+02211+01921101011ADDAA124003091AG10999AY161061AY251061GF108991041071004501021999KA1240N+01891MA1999999091101MD1999999-0131MW1201REMSYN023333   20189 59013 60034
0143833440999991991011312004-14950-040883FM-12+0905SBQV V0203601N00411004201CN0100001N9+02041+01851101171ADDAA124012091AG10999AY161061AY221061GF108991081071004501999999KA1240N+01851MA1999999091231MD1999999+0131MW1021REMSYN023333   20185 58013 60124
0096833440999991991011318004-14950-040883FM-12+0905SBQV V0203201N00151045001CN0100001N9+02421+01881999999ADDAA106000091AG10999GF108991041031004501021999MA1999999090941MD1999999+0071REMSYN011333   58007
0115833440999991991011400004-14950-040883FM-12+0905SBQV V0203201N00051004201CN9999999N9+02211+02031100981ADDAA106000091AG10999GF107991071071004501001001KA1240M+02431MA1999999091071MD1999999+0001REMSYN017333   10243 58000
0143833440999991991011412004-14950-040883FM-12+0905SBQV V0203601N00411004201CN0100001N9+02261+01901101121ADDAA124000191AG10999AY151061AY221061GF108991051071004501021999KA1240N+01791MA1999999091221MD1999999-0031MW1021REMSYN023333   20179 59003 69914
0115833440999991991011500004-14950-040883FM-12+0905SBQV V0200501N00211045001CN9999999N9+02131+01891100991ADDAA106000091AG10999GF108991041061004501021999KA1240M+02621MA1999999091091MD1999999+0021REMSYN017333   10262 58002
0115833440999991991011512004-14950-040883FM-12+0905SBQV V0203601N00261045001CN0100001N9+02201+01901101151ADDAA106000091AG10999GF108991041071004501021999KA1240N+01871MA1999999091231MD1999999+0011REMSYN017333   20187 58001
0096833440999991991011518004-14950-040883FM-12+0905SBQV V0203201N00311045001CN0100001N9+02371+01971999999ADDAA106000091AG10999GF108991031061008001011999MA1999999091031MD1999999+0091REMSYN011333   58009
0115833440999991991011612004-14950-040883FM-12+0905SBQV V0203601N00311045001CN0200001N9+02231+01941101211ADDAA106000091AG10999GF107991041061008001061001KA1240N+01911MA1999999091291MD1999999+0061REMSYN017333   20191 58006
0115833440999991991011700004-14950-040883FM-12+0905SBQV V0203201N00151220001CN9999999N9+02271+01981101161ADDAA106000091AG10999GF103991031021017501001001KA1240M+02741MA1999999091251MD1999999+0001REMSYN017333   10274 58000
0115833440999991991011712004-14950-040883FM-12+0905SBQV V0203201N00461045001CN0100001N9+02241+01841101281ADDAA106000091AG10999GF108991031061008001051999KA1240N+01891MA1999999091271MD1999999-0021REMSYN017333   20189 59002
0096833440999991991011718004-14950-040883FM-12+0905SBQV V0202301N00211045001CN0200001N9+02641+02001999999ADDAA106000091AG10999GF106991031051012501071031MA1999999091071MD1999999+0091REMSYN011333   58009
0100833440999991991011719004-14950-040883FM-12+0905SBQV V0202301N00211045001CN0190001N9+02641+02001999999ADDAA106000091AG10999GF106991031051002501071031MD1999999-0091REMSYN011333   59009EQDQ01+090103APOSP 
0115833440999991991011800004-14950-040883FM-12+0905SBQV V0200501N00211220001CN9999999N9+02211+01991101161ADDAA106000091AG10999GF102991021061008001001001KA1240M+02701MA1999999091251MD1999999+0001REMSYN017333   10270 58000
0115833440999991991011812004-14950-040883FM-12+0905SBQV V0203201N00211045001CN0100001N9+02221+01881101361ADDAA106000091AG10999GF108991041071004501021999KA1240N+01851MA1999999091431MD1999999+0161REMSYN017333   20185 58016
0096833440999991991011818004-14950-040883FM-12+0905SBQV V0200501N00311220001CN0200001N9+02701+01801999999ADDAA106000091AG10999GF106991021031017501001061MA1999999091221MD1999999+0211REMSYN011333   58021
0115833440999991991011900004-14950-040883FM-12+0905SBQV V0200501N00211220001CN9999999N9+02151+01951101461ADDAA106000091AG10999GF100991001001999999001001KA1240M+02801MA1999999091521MD1999999+0271REMSYN017333   10280 58027
0062833440999991991011912004-14950-040883FM-12+0905SBQV V0201401N00311220001CN0200001N9+02321+01581101631ADDAA106000091AG10999GF106991021021017501001061MA1999999091681
0096833440999991991011918004-14950-040883FM-12+0905SBQV V0201401N00311012001CN0200001N9+02411+01891999999ADDAA106000091AG10999GF105991051081008001001001MA1999999091421MD1999999+0141REMSYN011333   58014
0115833440999991991012000004-14950-040883FM-12+0905SBQV V0200901N00311220001CN9999999N9+02181+01991101331ADDAA106000091AG10999GF100991001001999999001001KA1240M+02581MA1999999091411MD1999999-0111REMSYN017333   10258 59011
0115833440999991991012012004-14950-040883FM-12+0905SBQV V0201401N00411004201CN0200001N9+02031+01621101491ADDAA106000091AG10999GF106991061061004501001001KA1240N+01631MA1999999091521MD1999999-0161REMSYN017333   20163 59016
0096833440999991991012018004-14950-040883FM-12+0905SBQV V0201401N00461012001CN0200001N9+02381+01971999999ADDAA106000091AG10999GF105991051051012501001001MA1999999091261MD1999999-0161REMSYN011333   59016
0121833440999991991012112004-14950-040883FM-12+0905SBQV V0200901N00311012001CN0200001N9+02191+01741101211ADDAA106999929AG10999GF106991061081008001001001KA1240N+01821MA1999999091441MD1999999-0081REMSYN023333   20182 59008 69901
0096833440999991991012118004-14950-040883FM-12+0905SBQV V0209999999999015001CN0200001N9+02681+01701999999ADDAA106000091AG10999GF105991051011017501001001MA1999999091201MD1999999-0061REMSYN011333   59006
0115833440999991991012200004-14950-040883FM-12+0905SBQV V0200501N00361220001CN9999999N9+02051+01831101251ADDAA106000091AG10999GF102991021081008001001001KA1240M+02721MA1999999091311MD1999999-0011REMSYN017333   10272 59001
0115833440999991991012212004-14950-040883FM-12+0905SBQV V0200501N00261220001CN0200001N9+02291+01661101351ADDAA106000091AG10999GF105991031011012501001011KA1240N+01611MA1999999091411MD1999999-0031REMSYN017333   20161 59003
0096833440999991991012218004-14950-040883FM-12+0905SBQV V0201401N00261007501CN0200001N9+02611+01761999999ADDAA106000091AG10999GF105991051051008001001001MA1999999091151MD1999999-0051REMSYN011333   59005
0115833440999991991012300004-14950-040883FM-12+0905SBQV V0200501N00511220001CN9999999N9+02131+01801101081ADDAA106000091AG10999GF100991001001999999001001KA1240M+02791MA1999999091171MD1999999-0141REMSYN017333   10279 59014
0115833440999991991012312004-14950-040883FM-12+0905SBQV V0203601N00261105001CN0200001N9+02191+01761101521ADDAA106000091AG10999GF105991031021012501001091KA1240N+01671MA1999999091551MD1999999+0141REMSYN017333   20167 58014
0135833440999991991012318004-14950-040883FM-12+0905SBQV V0200901N00361105001CN0100001N9+02671+01711999999ADDAA106000291AA299000391AG10999AY161061AY261061GF106991031061008001001051MA1999999091291MD1999999+0141MW1601REMSYN017333   58014 69921
0115833440999991991012400004-14950-040883FM-12+0905SBQV V0200501N00211220001CN9999999N9+02251+01731101281ADDAA106000091AG10999GF102991001001999999001021KA1240M+02901MA1999999091351MD1999999+0181REMSYN017333   10290 58018
0132833440999991991012412004-14950-040883FM-12+0905SBQV V0203601N00261007501CN0100001N9+02291+01791101531ADDAA124000291AA299000391AG10999GF108991051071008001021999KA1240N+01761MA1999999091591MD1999999+0041REMSYN023333   20176 58004 69924
0096833440999991991012418004-14950-040883FM-12+0905SBQV V0200901N00151105001CN0200001N9+02811+01691999999ADDAA106000091AG10999GF106991041051008001001081MA1999999091091MD1999999-0201REMSYN011333   59020
0143833440999991991012500004-14950-040883FM-12+0905SBQV V0200501N00311045001CN9999999N9+02281+01901101181ADDAA106007091AG10999AY161061AY261061GF106991031041012501041001KA1240M+02961MA1999999091281MD1999999-0071MW1021REMSYN023333   10296 59007 60071
0121833440999991991012512004-14950-040883FM-12+0905SBQV V0203601N00151045001CN0100001N9+02161+01901101371ADDAA124007091AG10999GF108991041071004501021999KA1240N+01791MA1999999091441MD1999999-0151REMSYN023333   20179 59015 60074
0115833440999991991012600004-14950-040883FM-12+0905SBQV V0200501N00311220001CN9999999N9+02261+01921101191ADDAA106000091AG10999GF106991001001999999001041KA1240M+02891MA1999999091261MD1999999-0021REMSYN017333   10289 59002
0115833440999991991012612004-14950-040883FM-12+0905SBQV V0203601N00511105001CN0200001N9+02311+01791101301ADDAA106000091AG10999GF106991021001022501081091KA1240N+01771MA1999999091391MD1999999-0051REMSYN017333   20177 59005
0115833440999991991012700004-14950-040883FM-12+0905SBQV V0200501N002119999999N9999999N9+02341+01781101161ADDAA106000091AG10999GF108991999999017501999999KA1240M+02981MA1999999091261MD1810201+0001REMSYN017333   10298 58000
0096833440999991991012718004-14950-040883FM-12+0905SBQV V0203101N00361220001CN0200001N9+02971+01461999999ADDAA106000091AG10999GF106991031021017501001061MA1999999091161MD1999999-0011REMSYN011333   59001
0115833440999991991012800004-14950-040883FM-12+0905SBQV V0200501N00511021001CN9999999N9+02261+01861101191ADDAA106000091AG10999GF106991061001022501071001KA1240M+03051MA1999999091301MD1999999+0041REMSYN017333   10305 58004
0115833440999991991012812004-14950-040883FM-12+0905SBQV V0200501N00261045001CN0200001N9+02241+01821101571ADDAA106000091AG10999GF107991041021008001011001KA1240N+01811MA1999999091631MD1999999+0191REMSYN017333   20181 58019
0096833440999991991012818004-14950-040883FM-12+0905SBQV V0200501N00261045001CN0200001N9+02841+01631999999ADDAA106000091AG10999GF105991021021004501041001MA1999999091221MD1999999+0141REMSYN011333   58014
0115833440999991991012912004-14950-040883FM-12+0905SBQV V0200501N00211105001CN0200001N9+02161+01721101411ADDAA106000091AG10999GF106991011011017501001031KA1240N+01641MA1999999091471MD1999999-0161REMSYN017333   20164 59016
0096833440999991991012918004-14950-040883FM-12+0905SBQV V0201401N00311045001CN0100001N9+02561+01901999999ADDAA106000091AG10999GF108991031061008001021999MA1999999091101MD1999999-0121REMSYN011333   59012
0115833440999991991013000004-14950-040883FM-12+0905SBQV V0200501N00261021001CN9999999N9+02201+01761101171ADDAA106000091AG10999GF107991071001022501031001KA1240M+02821MA1999999091251MD1999999-0101REMSYN017333   10282 59010
0115833440999991991013012004-14950-040883FM-12+0905SBQV V0203601N00211105001CN0200001N9+02361+01851101271ADDAA106000091AG10999GF106991021011017501001091KA1240N+01671MA1999999091361MD1999999-0111REMSYN017333   20167 59011
0096833440999991991013018004-14950-040883FM-12+0905SBQV V0203601N00051105001CN0200001N9+02881+01671999999ADDAA106000091AG10999GF106991041051012501001091MA1999999090991MD1999999-0111REMSYN011333   59011
0115833440999991991013100004-14950-040883FM-12+0905SBQV V0200501N00461220001CN9999999N9+02191+01781101011ADDAA106000091AG10999GF102991001001999999001091KA1240M+02941MA1999999091131MD1999999-0121REMSYN017333   10294 59012
0115833440999991991013112004-14950-040883FM-12+0905SBQV V0203601N00211220001CN0200001N9+02491+01681101261ADDAA106000091AG10999GF102991021001022501041001KA1240N+01711MA1999999091361MD1999999+0001REMSYN017333   20171 58000
0096833440999991991013118004-14950-040883FM-12+0905SBQV V0200901N00361012001CN0200001N9+02811+01841999999ADDAA106000091AG10999GF106991061051012501001001MA1999999091011MD1999999+0021REMSYN011333   58002
0115833440999991991020100004-14950-040883FM-12+0905SBQV V0200501N00361220001CN9999999N9+02191+01861101081ADDAA106000091AG10999GF103991031051012501001001KA1240M+03001MA1999999091201MD1999999+0071REMSYN017333   10300 58007
0115833440999991991020112004-14950-040883FM-12+0905SBQV V0200901N00211220001CN0200001N9+02311+01671101291ADDAA106000091AG10999GF103991031021008001001001KA1240N+01571MA1999999091371MD1999999+0011REMSYN017333   20157 58001
0096833440999991991020118004-14950-040883FM-12+0905SBQV V0200901N00311220001CN0200001N9+02651+01591999999ADDAA106000091AG10999GF103991031011004501001001MA1999999091111MD1999999+0101REMSYN011333   58010
0115833440999991991020200004-14950-040883FM-12+0905SBQV V0200501N00261220001CN9999999N9+02071+01641101151ADDAA106000091AG10999GF100991001001999999001001KA1240M+02791MA1999999091241MD1999999+0041REMSYN017333   10279 58004
0115833440999991991020212004-14950-040883FM-12+0905SBQV V0200901N00461220001CN0200001N9+02191+01631101421ADDAA106000091AG10999GF104991031041004501031001KA1240N+01471MA1999999091461MD1999999+0091REMSYN017333   20147 58009
0096833440999991991020218004-14950-040883FM-12+0905SBQV V0200901N00311045001CN0200001N9+02631+01631999999ADDAA106000091AG10999GF105991031041004501031001MA1999999091131MD1999999+0021REMSYN011333   58002
0115833440999991991020300004-14950-040883FM-12+0905SBQV V0200501N00311004201CN9999999N9+02031+01821101851ADDAA106000091AG10999GF106991061051004501001001KA1240M+02711MA1999999091311MD1999999+0071REMSYN017333   10271 58007
0115833440999991991020312004-14950-040883FM-12+0905SBQV V0200901N00361220001CN0200001N9+02251+01661101371ADDAA106000091AG10999GF104991041021004501001001KA1240N+01581MA1999999091431MD1999999-0031REMSYN017333   20158 59003
0096833440999991991020318004-14950-040883FM-12+0905SBQV V0200901N00261045001CN0200001N9+02571+01821999999ADDAA106000091AG10999GF107991041021004501021001MA1999999091121MD1999999-0011REMSYN011333   59001
0115833440999991991020412004-14950-040883FM-12+0905SBQV V0200901N00261045001CN0200001N9+02211+01691101461ADDAA106000091AG10999GF107991041031004501021001KA1240N+01581MA1999999091491MD1999999+0061REMSYN017333   20158 58006
0096833440999991991020418004-14950-040883FM-12+0905SBQV V0200901N00411004201CN0200001N9+02461+01711999999ADDAA106000091AG10999GF107991051021004501041001MA1999999091181MD1999999+0061REMSYN011333   58006
0115833440999991991020500004-14950-040883FM-12+0905SBQV V0200901N00261012001CN9999999N9+01981+01811101541ADDAA106000091AG10999GF105991051001012501061001KA1240M+02711MA1999999091471MD1999999+0181REMSYN017333   10271 58018
0082833440999991991020511004-14950-040883FM-12+0905SBQV V0201401N00311220001CN0200001N9+02221+01711101421ADDAA106000091AG10999GF104991021021004501021001MA1999999091451REMSYN011333   2016/
0115833440999991991020512004-14950-040883FM-12+0905SBQV V0201401N00311220001CN0200001N9+02221+01711101421ADDAA106000091AG10999GF104991021021004501021001KA1240N+01601MA1999999091451MD1999999-0041REMSYN017333   20160 59004
0115833440999991991020600004-14950-040883FM-12+0905SBQV V0200901N00211220001CN9999999N9+02051+01761101331ADDAA106000091AG10999GF100991001001999999001001KA1240M+02801MA1999999091361MD1999999-0071REMSYN017333   10280 59007
0115833440999991991020612004-14950-040883FM-12+0905SBQV V0200901N00361045001CN0200001N9+02251+01691101431ADDAA106000091AG10999GF106991041061004501041001KA1240N+01651MA1999999091471MD1999999+0021REMSYN017333   20165 58002
0096833440999991991020618004-14950-040883FM-12+0905SBQV V0201401N00311045001CN0200001N9+02721+01681999999ADDAA106000091AG10999GF106991041071004501041001MA1999999091201MD1999999+0031REMSYN011333   58003
0134833440999991991020712004-14950-040883FM-12+0905SBQV V0203601N003119999999N0200001N9+02131+01841101411ADDAA106000091AG10999GF107991999071004501999999KA1240N+01741MA1999999091441MD1999999-0031REMSYN017333   20174 59003EQDQ01+000082SCOTLC
0096833440999991991020718004-14950-040883FM-12+0905SBQV V0200901N00211004201CN0200001N9+02711+01881999999ADDAA106000091AG10999GF107991051031004501021001MA1999999091141MD1999999-0061REMSYN011333   59006
0115833440999991991020800004-14950-040883FM-12+0905SBQV V0200901N00311220001CN9999999N9+02081+01861101321ADDAA106000091AG10999GF104991041001008001061001KA1240M+02791MA1999999091361MD1999999+0001REMSYN017333   10279 58000
0115833440999991991020812004-14950-040883FM-12+0905SBQV V0203601N00211045001CN0200001N9+02281+01901101391ADDAA106000091AG10999GF105991031041004501041001KA1240N+01761MA1999999091451MD1999999+0011REMSYN017333   20176 58001
0124833440999991991020818004-14950-040883FM-12+0905SBQV V0200501N00311004201CN0200001N9+02351+01951999999ADDAA106000591AG10999AY151061AY221061GF107991051071004501061001MA1999999091141MD1999999+0101MW1031REMSYN017333   58010 69951
0121833440999991991020912004-14950-040883FM-12+0905SBQV V0203601N00151004201CN0100001N9+02291+01851101461ADDAA124000591AG10999GF105991051061004501041001KA1240N+01961MA1999999091501MD1999999+0051REMSYN023333   20196 58005 69954
0096833440999991991020918004-14950-040883FM-12+0905SBQV V0200901N00211004201CN0200001N9+02861+01681999999ADDAA106000091AG10999GF107991051061004501061001MA1999999091121MD1999999-0021REMSYN011333   59002
0115833440999991991021012004-14950-040883FM-12+0905SBQV V0200501N00151220001CN0200001N9+02301+01901101371ADDAA106000091AG10999GF100991001001999999001001KA1240N+01701MA1999999091451MD1999999-0271REMSYN017333   20170 59027
0096833440999991991021018004-14950-040883FM-12+0905SBQV V0200901N00261004201CN0500001N9+03041+01911999999ADDAA106000091AG10999GF106991061021004501001001MA1999999091071MD1999999-0051REMSYN011333   59005
0115833440999991991021100004-14950-040883FM-12+0905SBQV V0200501N00361220001CN9999999N9+02371+01871101201ADDAA106000091AG10999GF100991001001999999001001KA1240M+03121MA1999999091311MD1999999+0031REMSYN017333   10312 58003
0115833440999991991021112004-14950-040883FM-12+0905SBQV V0203601N002619999999N0500001N9+02581+01941101241ADDAA106000091AG10999GF107991041001008001011071KA1240N+01901MA1999999091371MD1999999-0081REMSYN017333   20190 59008
0096833440999991991021118004-14950-040883FM-12+0905SBQV V0201401N00211220001CN0500001N9+03061+01931999999ADDAA106000091AG10999GF104991041031008001001001MA1999999091051MD1999999-0021REMSYN011333   59002
0115833440999991991021200004-14950-040883FM-12+0905SBQV V0200501N00261220001CN9999999N9+02391+02051101041ADDAA106000091AG10999GF100991001001999999001001KA1240M+03111MA1999999091191MD1999999-0121REMSYN017333   10311 59012
0115833440999991991021212004-14950-040883FM-12+0905SBQV V0203601N00211220001CN0200001N9+02641+02031101081ADDAA106000091AG10999GF101991011011004501001001KA1240N+02001MA1999999091231MD1999999-0141REMSYN017333   20200 59014
0115833440999991991021218004-14950-040883FM-12+0905SBQV V0200901N001519999999N0200001N9+03121+01921999999ADDAA106000091AG10999GF106991999021004501001001MA1999999090821MD1999999-0231REMSYN011333   59023EQDQ01+000022SCOTLC
0115833440999991991021300004-14950-040883FM-12+0905SBQV V0200901N00101220001CN9999999N9+02491+99999100801ADDAA106000091AG10999GF100991001001999999001001KA1240M+03221MA1999999090991MD1999999-0201REMSYN017333   10322 59020
0143833440999991991021312004-14950-040883FM-12+0905SBQV V0203201N00261004201CN0200001N9+02481+02131101971ADDAA124020091AG10999AY191061AY261061GF107991051071004501021001KA1240N+01831MA1999999091141MD1999999-0091MW1021REMSYN023333   20183 59009 60204
0096833440999991991021318004-14950-040883FM-12+0905SBQV V0200901N00211045001CN0500001N9+03161+02081999999ADDAA106000091AG10999GF106991031021004501021001MA1999999090771MD1999999-0051REMSYN011333   59005
0161833440999991991021412004-14950-040883FM-12+0905SBQV V0200901N00151004201CN0200001N9+02301+99999101061ADDAA124003091AG10999AY161061AY221061GF108991051071004501021999KA1240N+02071MA1999999091191MD1999999+0051MW1031REMSYN023333   20207 58005 60034SYN012RJCT41  2518
0096833440999991991021418004-14950-040883FM-12+0905SBQV V0201401N00211004201CN0200001N9+02651+02161999999ADDAA106000091AG10999GF108991051021004501021999MA1999999091011MD1999999+0241REMSYN011333   58024
0115833440999991991021500004-14950-040883FM-12+0905SBQV V0200501N00211004201CN9999999N9+02301+02141101121ADDAA106000091AG10999GF108991081051004501999999KA1240M+02711MA1999999091231MD1999999+0331REMSYN017333   10271 58033
0115833440999991991021512004-14950-040883FM-12+0905SBQV V0200501N00261045001CN0200001N9+02461+02031101431ADDAA106000091AG10999GF108991031051004501021999KA1240N+02011MA1999999091531MD1999999+0341REMSYN017333   20201 58034
0096833440999991991021518004-14950-040883FM-12+0905SBQV V0200901N00211004201CN0200001N9+02821+02101999999ADDAA106000091AG10999GF108991051031004501021999MA1999999091211MD1999999+0201REMSYN011333   58020
0143833440999991991021600004-14950-040883FM-12+0905SBQV V0209999999999220001CN9999999N9+02201+02171101231ADDAA106007091AG10999AY161061AY261061GF100991001001999999001001KA1240M+02951MA1999999091371MD1999999+0111MW1131REMSYN023333   10295 58011 60071
0143833440999991991021612004-14950-040883FM-12+0905SBQV V0200501N00411105001CN0200001N9+02391+01821101371ADDAA124007091AG10999AY161061AY221061GF105991031021012501001091KA1240N+01791MA1999999091451MD1999999+0081MW1021REMSYN023333   20179 58008 60074
0096833440999991991021618004-14950-040883FM-12+0905SBQV V0201401N00261220001CN0200001N9+02851+01731999999ADDAA106000091AG10999GF103991031021012501001001MA1999999091151MD1999999-0061REMSYN011333   59006
0115833440999991991021700004-14950-040883FM-12+0905SBQV V0200501N00461220001CN9999999N9+02261+01901101161ADDAA106000091AG10999GF100991001001999999001001KA1240M+02921MA1999999091271MD1999999-0071REMSYN017333   10292 59007
0115833440999991991021712004-14950-040883FM-12+0905SBQV V0200901N00361220001CN0200001N9+02391+01731101231ADDAA106000091AG10999GF103991031011012501001001KA1240N+01741MA1999999091331MD1999999-0121REMSYN017333   20174 59012
0096833440999991991021718004-14950-040883FM-12+0905SBQV V0201401N00211007501CN0200001N9+02821+01711999999ADDAA106000091AG10999GF106991061051008001001001MA1999999091001MD1999999-0151REMSYN011333   59015
0115833440999991991021800004-14950-040883FM-12+0905SBQV V0200901N00261220001CN9999999N9+02151+01721100921ADDAA106000091AG10999GF100991001001999999001001KA1240M+02891MA1999999091041MD1999999-0031REMSYN017333   10289 59003
0115833440999991991021812004-14950-040883FM-12+0905SBQV V0200501N00151220001CN0200001N9+02381+01821101141ADDAA106000091AG10999GF104991021011004501001011KA1240N+02161MA1999999091241MD1999999-0091REMSYN017333   20216 59009
0096833440999991991021818004-14950-040883FM-12+0905SBQV V0200901N00101004201CN0500001N9+02861+01721999999ADDAA106000091AG10999GF105991051021004501001001MA1999999090881MD1999999-0121REMSYN011333   59012
0115833440999991991021900004-14950-040883FM-12+0905SBQV V0200501N00211220001CN9999999N9+02241+01531100821ADDAA106000091AG10999GF100991001001999999001001KA1240M+02951MA1999999090951MD1999999-0091REMSYN017333   10295 59009
0102833440999991991021912004-14950-040883FM-12+0905SBQV V0203601N00411021001CN0100001N9+02271+01821101111ADDAA106000091AG10999GF108991081001022501021001MA1999999091211MD1999999-0031REMSYN017333   20/// 59003
0096833440999991991021918004-14950-040883FM-12+0905SBQV V0203201N00261045001CN0100001N9+02901+01781999999ADDAA106000091AG10999GF108991031041008001061031MA1999999090901MD1999999+0111REMSYN011333   58011
0102833440999991991022012004-14950-040883FM-12+0905SBQV V0203601N00411105001CN0200001N9+02441+01791101191ADDAA106000091AG10999GF105991021011008001001031MA1999999091311MD1999999+0101REMSYN017333   20/// 58010
0096833440999991991022018004-14950-040883FM-12+0905SBQV V0201401N00211105001CN0200001N9+03011+01841999999ADDAA106000091AG10999GF107991041051012501001061MA1999999091061MD1999999+0071REMSYN011333   58007
0143833440999991991022100004-14950-040883FM-12+0905SBQV V0201401N00311004201CN9999999N9+02221+02011101221ADDAA106006091AG10999AY161061AY221061GF106991061061004501001001KA1240M+03151MA1999999091331MD1999999+0301MW1021REMSYN023333   10315 58030 60061
0108833440999991991022112004-14950-040883FM-12+0905SBQV V0200501N00311045001CN0200001N9+02331+01981101361ADDAA124006091AG10999GF106991041071004501041001MA1999999091421MD1999999+0111REMSYN023333   20/// 58011 60064
0137833440999991991022200004-14950-040883FM-12+0905SBQV V0200901N00311004201CN9999999N9+02221+01941101161ADDAA106000091AG10999AY121061AY221061GF107991071071004501001001KA1240M+02901MA1999999091351MD1999999+0021MW1131REMSYN017333   10290 58002
0102833440999991991022212004-14950-040883FM-12+0905SBQV V0200901N00211004201CN0200001N9+02291+01881101541ADDAA106000091AG10999GF106991061071004501001001MA1999999091601MD1999999+0181REMSYN017333   20/// 58018
0096833440999991991022218004-14950-040883FM-12+0905SBQV V0201401N00311004201CN0200001N9+02851+01871999999ADDAA106000091AG10999GF106991061021004501001001MA1999999091191MD1999999+0061REMSYN011333   58006
0102833440999991991022312004-14950-040883FM-12+0905SBQV V0203601N00361220001CN0200001N9+02361+01801101521ADDAA106000091AG10999GF104991041021004501001001MA1999999091591MD1999999-0011REMSYN017333   20/// 59001
0096833440999991991022318004-14950-040883FM-12+0905SBQV V0200901N00151220001CN0500001N9+03001+01911999999ADDAA106000091AG10999GF104991041021004501001001MA1999999091251MD1999999+0061REMSYN011333   58006
0076833440999991991022400004-14950-040883FM-12+0905SBQV V0200501N00261220001CN9999999N9+02361+01691101401ADDAA106000091AG10999GF100991001001999999001001MA1999999091411MD1810011+9999
0062833440999991991022412004-14950-040883FM-12+0905SBQV V0203601N00211220001CN0200001N9+02471+01441101511ADDAA106000091AG10999GF102991001001999999001051MA1999999091601
0102833440999991991022512004-14950-040883FM-12+0905SBQV V0200501N00311045001CN0200001N9+02201+01671101581ADDAA106000091AG10999GF107991041051004501051001MA1999999091631MD1999999+0031REMSYN017333   20/// 58003
0096833440999991991022518004-14950-040883FM-12+0905SBQV V0200901N00151045001CN0200001N9+02661+01821999999ADDAA106000091AG10999GF107991041021004501021001MA1999999091331MD1999999-0051REMSYN011333   59005
0115833440999991991022600004-14950-040883FM-12+0905SBQV V0200901N00261004201CN9999999N9+02201+01821101401ADDAA106000091AG10999GF105991051061004501001001KA1240M+02811MA1999999091461MD1999999-0171REMSYN017333   10281 59017
0102833440999991991022612004-14950-040883FM-12+0905SBQV V0200501N00361045001CN0100001N9+02181+01801101421ADDAA106000091AG10999GF108991041071004501021999MA1999999091481MD1999999-0151REMSYN017333   20/// 59015
0124833440999991991022618004-14950-040883FM-12+0905SBQV V0200501N00311045001CN0200001N9+02661+01821999999ADDAA106999929AG10999AY161061AY261061GF106991041071004501061001MA1999999091201MD1999999-0131MW1021REMSYN017333   59013 69901
0115833440999991991022700004-14950-040883FM-12+0905SBQV V0200901N00311012001CN9999999N9+02171+01861101371ADDAA106000091AG10999GF106991061031012501001001KA1240M+02741MA1999999091441MD1999999-0021REMSYN017333   10274 59002
0102833440999991991022712004-14950-040883FM-12+0905SBQV V0200501N00261045001CN0200001N9+02271+01791101501ADDAA106000091AG10999GF107991041021004501021001MA1999999091551MD1999999+0071REMSYN017333   20/// 58007
0096833440999991991022718004-14950-040883FM-12+0905SBQV V0200501N00211045001CN0500001N9+02801+01601999999ADDAA106000091AG10999GF106991031021004501021001MA1999999091241MD1999999+0041REMSYN011333   58004
0115833440999991991022800004-14950-040883FM-12+0905SBQV V0200501N00261220001CN9999999N9+02041+01541101541ADDAA106000091AG10999GF101991011001008001041001KA1240M+02951MA1999999091571MD1999999+0131REMSYN017333   10295 58013
0130833440999991991022812004-14950-040883FM-12+0905SBQV V0200901N00261004201CN0040001N9+01931+01841101621ADDAA124000191AG10999AY151061AY251061GF108991081071004501999999MA1999999091621MD1999999+0071MW1511REMSYN023333   20/// 58007 69914
0096833440999991991022818004-14950-040883FM-12+0905SBQV V0200901N00361045001CN0200001N9+02701+01371999999ADDAA106000091AG10999GF106991041051012501071001MA1999999091291MD1999999+0051REMSYN011333   58005
0115833440999991991030100004-14950-040883FM-12+0905SBQV V0201401N00151220001CN9999999N9+02001+01681101521ADDAA106000091AG10999GF102991001001999999001031KA1240M+02761MA1999999091521MD1999999-0051REMSYN017333   10276 59005
0102833440999991991030112004-14950-040883FM-12+0905SBQV V0201401N00211045001CN0200001N9+02201+01761101531ADDAA106000091AG10999GF107991041021004501021001MA1999999091551MD1999999-0071REMSYN017333   20/// 59007
0096833440999991991030118004-14950-040883FM-12+0905SBQV V0201401N00361045001CN0200001N9+02601+01791999999ADDAA106000091AG10999GF106991041021004501021001MA1999999091171MD1999999-0121REMSYN011333   59012
0115833440999991991030200004-14950-040883FM-12+0905SBQV V0200501N00361220001CN9999999N9+02031+01761101261ADDAA106000091AG10999GF101991011001008001051001KA1240M+02691MA1999999091321MD1999999-0201REMSYN017333   10269 59020
0102833440999991991030212004-14950-040883FM-12+0905SBQV V0200501N00211045001CN0200001N9+02081+01681101391ADDAA106000091AG10999GF106991041021017501041001MA1999999091421MD1999999-0131REMSYN017333   20/// 59013
0096833440999991991030218004-14950-040883FM-12+0905SBQV V0200501N00261012001CN0200001N9+02641+01541999999ADDAA106000091AG10999GF107991071071012501001001MA1999999091061MD1999999-0111REMSYN011333   59011
0102833440999991991030312004-14950-040883FM-12+0905SBQV V0200501N00361004201CN0200001N9+02331+01691101311ADDAA106000091AG10999GF105991051021004501001001MA1999999091381MD1999999-0041REMSYN017333   20/// 59004
0118833440999991991030318004-14950-040883FM-12+0905SBQV V0200501N00411045001CN0200001N9+02741+01481999999ADDAA106000091AG10999AY121061AY221061GF107991041031004501021001MA1999999091071MD1999999+0011MW1171REMSYN011333   58001
0154833440999991991030400004-14950-040883FM-12+0905SBQV V0200501N00261220001CN9999999N9+02071+01891101221ADDAA106000691AA299000591AG10999AY161061AY221061GF101991011001008001031001KA1240M+02911MA1999999091391MD1999999+0061MW1021REMSYN023333   10291 58006 69961
0119833440999991991030412004-14950-040883FM-12+0905SBQV V0200501N00311220001CN9999999N9+02251+01691101451ADDAA124000691AA299000591AG10999GF106991041021012501001011MA1999999091491MD1999999+0111REMSYN023333   20/// 58011 69964
0096833440999991991030418004-14950-040883FM-12+0905SBQV V0200901N00311220001CN0200001N9+02731+01651999999ADDAA106000091AG10999GF107991031051004501001041MA1999999091201MD1999999+0131REMSYN011333   58013
0076833440999991991030500004-14950-040883FM-12+0905SBQV V0200901N00261220001CN9999999N9+02061+01821101361ADDAA106000091AG10999GF100991001001999999001001MA1999999091421MD1810121+9999
0102833440999991991030512004-14950-040883FM-12+0905SBQV V0200501N00311045001CN0100001N9+02171+01821101491ADDAA106000091AG10999GF108991041051004501021999MA1999999091521MD1999999+0031REMSYN017333   20/// 58003
0096833440999991991030518004-14950-040883FM-12+0905SBQV V0201401N00461004201CN0100001N9+02591+01961999999ADDAA106000091AG10999GF108991081051004501999999MA1999999091231MD1999999+0031REMSYN011333   58003
0115833440999991991030600004-14950-040883FM-12+0905SBQV V0200501N00261021001CN9999999N9+01921+01771101451ADDAA106000091AG10999GF106991061001022501051001KA1240M+02911MA1999999091471MD1999999+0051REMSYN017333   10291 58005
0102833440999991991030612004-14950-040883FM-12+0905SBQV V0200901N00361045001CN0200001N9+02201+01741101561ADDAA106000091AG10999GF106991041061004501061001MA1999999091571MD1999999+0051REMSYN017333   20/// 58005
0096833440999991991030618004-14950-040883FM-12+0905SBQV V0201401N00361105001CN0200001N9+02721+01741999999ADDAA106000091AG10999GF106991041021017501001021MA1999999091241MD1999999+0011REMSYN011333   58001
0115833440999991991030800004-14950-040883FM-12+0905SBQV V0200901N00261220001CN9999999N9+02131+01911101321ADDAA106000091AG10999GF104991041021004501001001KA1240M+02681MA1999999091361MD1999999-0091REMSYN017333   10268 59009
0102833440999991991030812004-14950-040883FM-12+0905SBQV V0200501N00411045001CN0100001N9+02141+01841101481ADDAA106000091AG10999GF108991041071004501011999MA1999999091521MD1999999+0081REMSYN017333   20/// 58008
0124833440999991991030818004-14950-040883FM-12+0905SBQV V0200901N00411007501CN0200001N9+02341+02011999999ADDAA106001091AG10999AY161061AY261061GF106991061071008001001001MA1999999091271MD1999999+0141MW1211REMSYN017333   58014 60011
0143833440999991991030900004-14950-040883FM-12+0905SBQV V0200901N00311004201CN9999999N9+01961+01811101451ADDAA106000191AG10999AY151061AY221061GF106991061041004501001001KA1240M+02541MA1999999091471MD1999999+0111MW1011REMSYN023333   10254 58011 69911
0110833440999991991030912004-14950-040883FM-12+0905SBQV V0200901N00311004201CN0040001N9+02001+01881101571ADDAA124002091AG10999AY111061AY221061GF108991081051004501999999MA1999999091571MW1031REMSYN017333   20/// 60024
0135833440999991991030918004-14950-040883FM-12+0905SBQV V0200901N00511004201CN0100001N9+02181+01971999999ADDAA106000991AA299001091AG19061AY161061AY221061GF108991081051004501999999MA1999999091331MD1999999+0061MW1621REMSYN017333   58006 69991
0154833440999991991031000004-14950-040883FM-12+0905SBQV V0200901N00211220001CN9999999N9+02001+01881101491ADDAA106000291AA299000391AG10999AY161061AY211061GF102991021011004501001001KA1240M+02641MA1999999091501MD1999999+0031MW1011REMSYN023333   10264 58003 69921
0130833440999991991031012004-14950-040883FM-12+0905SBQV V0201401N00311004201CN0200001N9+02151+01861101581ADDAA124001091AG10999AY161061AY221061GF107991071061004501001001MA1999999091601MD1999999+0031MW1021REMSYN023333   20/// 58003 60014
0096833440999991991031018004-14950-040883FM-12+0905SBQV V0201401N00361012001CN0200001N9+02651+01691999999ADDAA106000091AG10999GF105991051021012501001001MA1999999091291MD1999999-0041REMSYN011333   59004
0134833440999991991031100004-14950-040883FM-12+0905SBQV V0200901N00211004201CN9999999N9+02981+01901101441ADDAA106000091AG10999GF107991071051004501001001KA1240M+99999MA1999999091461MD1999999-0041REMSYN017333   10272 59004EQDQ01 +02722ATMX  
0096833440999991991031118004-14950-040883FM-12+0905SBQV V0200501N00361045001CN0200001N9+02451+01811999999ADDAA106000091AG10999GF105991031051004501041001MA1999999091151MD1999999-0141REMSYN011333   59014
0115833440999991991031200004-14950-040883FM-12+0905SBQV V0200901N00211220001CN9999999N9+02051+01781101231ADDAA106000091AG10999GF103991031001012501061001KA1240M+02641MA1999999091291MD1999999-0171REMSYN017333   10264 59017
0102833440999991991031212004-14950-040883FM-12+0905SBQV V0200501N00311220001CN0200001N9+02331+01531101291ADDAA106000091AG10999GF100991001001999999001001MA1999999091361MD1999999-0151REMSYN017333   20/// 59015
0102833440999991991031312004-14950-040883FM-12+0905SBQV V0203601N00261105001CN0200001N9+02191+01781101181ADDAA106000091AG10999GF106991021011004501001091MA1999999091251MD1999999-0111REMSYN017333   20/// 59011
0082833440999991991031318004-14950-040883FM-12+0905SBQV V0201401N00151045001CN0200001N9+02991+01731999999ADDAA106000091AG10999GF106991041051012501061001MA1999999090781REMSYN011333   5902/
0115833440999991991031400004-14950-040883FM-12+0905SBQV V0200501N00411220001CN9999999N9+02301+01871101791ADDAA106000091AG10999GF100991001001999999001001KA1240M+03081MA1999999090921MD1999999-0141REMSYN017333   10308 59014
0102833440999991991031412004-14950-040883FM-12+0905SBQV V0203601N00511220001CN0200001N9+02371+01911100951ADDAA106000091AG10999GF102991001001999999001091MA1999999091081MD1999999-0171REMSYN017333   20/// 59017
0096833440999991991031418004-14950-040883FM-12+0905SBQV V0203201N00211045001CN0200001N9+03061+01801999999ADDAA106000091AG10999GF106991041071004501021001MA1999999090681MD1999999-0111REMSYN011333   59011
0115833440999991991031500004-14950-040883FM-12+0905SBQV V0202701N00151220001CN9999999N9+02461+01851100761ADDAA106000091AG10999GF102991021041012501001001KA1240M+03131MA1999999090921MD1999999+0001REMSYN017333   10313 58000
0115833440999991991031508004-14950-040883FM-12+0905SBQV V0202701N00151220001CN9999999N9+02461+01851100761ADDAA106000091AG10999GF102991021041012501001001KA1240M+03131MA1999999090921MD1999999+0001REMSYN017333   10313 58000
0130833440999991991031512004-14950-040883FM-12+0905SBQV V0203201N00261004201CN0040001N9+02121+02071101021ADDAA124008091AG10999AY161061AY221061GF108991081071004501999999MA1999999091141MD1999999+0061MW1611REMSYN023333   20/// 58006 60084
0124833440999991991031518004-14950-040883FM-12+0905SBQV V0201401N00311045001CN0200001N9+02451+01971999999ADDAA106001091AG10999AY161061AY221061GF107991041021004501021001MA1999999090841MD1999999+0161MW1031REMSYN017333   58016 60011
0143833440999991991031600004-14950-040883FM-12+0905SBQV V0200501N00151220001CN9999999N9+02101+02001100941ADDAA106003091AG10999AY161061AY221061GF100991001001999999001001KA1240M+02491MA1999999091031MD1999999+0111MW1021REMSYN023333   10249 58011 60031
0062833440999991991031618004-14950-040883FM-12+0905SBQV V0200901N00261045001CN0100001N9+02221+01941999999ADDAA106000091AG10999GF108991041071004501021999MA1999999080081
0189833440999991991031700004-14950-040883FM-12+0905SBQV V0200901N00151009001CN9999999N9+01971+01891101171ADDAA106000291AA299000391AG10999AY151061AY251061GF108991999081004501071999KA1240M+02261MA1999999091212MD1999999+0181MW1511REMSYN023333   10226 58018 69921EQDQ01+000082SCOTLCQ02+091213APOSP 
0130833440999991991031712004-14950-040883FM-12+0905SBQV V0200901N00211004201CN0100001N9+01961+01631101231ADDAA124001091AG10999AY161061AY221061GF108991081051004501999999MA1999999091251MD1999999+0031MW1021REMSYN023333   20/// 58003 60014
0096833440999991991031718004-14950-040883FM-12+0905SBQV V0201401N00211004201CN0100001N9+02151+01801999999ADDAA106000091AG10999GF108991081051004501999999MA1999999091011MD1999999+0031REMSYN011333   58003
0115833440999991991031800004-14950-040883FM-12+0905SBQV V0200901N00151004201CN9999999N9+01941+01751101201ADDAA106000091AG10999GF107991071071004501001001KA1240M+02301MA1999999091231MD1999999+0021REMSYN017333   10230 58002
0154833440999991991031812004-14950-040883FM-12+0905SBQV V0200501N00261045001CN0100001N9+02161+01881101321ADDAA124000491AA299000591AG10999AY161061AY221061GF108991041071004501021999KA1240N+02191MA1999999091351MD1999999+0101MW1021REMSYN023333   20219 58010 69944
0121833440999991991031900004-14950-040883FM-12+0905SBQV V0201401N00101004201CN9999999N9+02101+02051101251ADDAA106001091AG10999GF108991081071004501999999KA1240M+02651MA1999999091321MD1999999+0091REMSYN023333   10265 58009 60011
0130833440999991991031912004-14950-040883FM-12+0905SBQV V0203601N00261004201CN0040001N9+02141+01991101461ADDAA124002091AG10999AY161061AY261061GF108991081071004501999999MA1999999091491MD1999999+0141MW1611REMSYN023333   20/// 58014 60024
0124833440999991991031918004-14950-040883FM-12+0905SBQV V0203601N00211004201CN0040001N9+02271+02001999999ADDAA106002091AG10999AY161061AY221061GF108991081051004501999999MA1999999091221MD1999999+0191MW1021REMSYN017333   58019 60021
0108833440999991991032012004-14950-040883FM-12+0905SBQV V0203201N00211045001CN0200001N9+02211+01841101441ADDAA124003091AG10999GF107991031051008001031041MA1999999091501MD1999999+0011REMSYN023333   20/// 58001 60034
0096833440999991991032018004-14950-040883FM-12+0905SBQV V0203201N00211007501CN0200001N9+02641+01851999999ADDAA106000091AG10999GF106991061051008001001001MA1999999091191MD1999999-0031REMSYN011333   59003
0115833440999991991032100004-14950-040883FM-12+0905SBQV V0201801N00151045001CN9999999N9+02261+01991101241ADDAA106000091AG10999GF108991021061008001021999KA1240M+02761MA1999999091331MD1999999-0101REMSYN017333   10276 59010
0130833440999991991032112004-14950-040883FM-12+0905SBQV V0200501N00101105001CN0200001N9+02281+02001101221ADDAA124001091AG10999AY161061AY221061GF105991021011004501061021MA1999999091311MD1999999-0191MW1011REMSYN023333   20/// 59019 60014
0096833440999991991032118004-14950-040883FM-12+0905SBQV V0201401N00261004201CN0100001N9+02291+02051999999ADDAA106000091AG10999GF108991081071004501999999MA1999999091031MD1999999-0161REMSYN011333   59016
0115833440999991991032200004-14950-040883FM-12+0905SBQV V0203601N00311220001CN9999999N9+02231+01861100961ADDAA106000091AG10999GF100991001001999999001001KA1240M+02841MA1999999091071MD1999999-0261REMSYN017333   10284 59026
0102833440999991991032212004-14950-040883FM-12+0905SBQV V0203601N00311021001CN0200001N9+02351+01891100941ADDAA106000091AG10999GF106991061001022501031001MA1999999091061MD1999999-0251REMSYN017333   20/// 59025
0130833440999991991032312004-14950-040883FM-12+0905SBQV V0200501N00261045001CN0100001N9+02321+01961100961ADDAA124008091AG10999AY161061AY221061GF107991041031008001061011MA1999999091071MD1999999+0011MW1021REMSYN023333   20/// 58001 60084
0096833440999991991032318004-14950-040883FM-12+0905SBQV V0203601N00151045001CN0200001N9+02711+01801999999ADDAA106000091AG10999GF107991041071004501011001MA1999999090791MD1999999+0031REMSYN011333   58003
0115833440999991991032400004-14950-040883FM-12+0905SBQV V0200501N00151004201CN9999999N9+02201+02031100901ADDAA106000091AG10999GF106991061011004501001001KA1240M+02811MA1999999091021MD1999999+0031REMSYN017333   10281 58003
0102833440999991991032412004-14950-040883FM-12+0905SBQV V0203601N00361012001CN0200001N9+02481+01921101111ADDAA106000091AG10999GF107991051051012501001031MA1999999091231MD1999999+0161REMSYN017333   20/// 58016
0096833440999991991032418004-14950-040883FM-12+0905SBQV V0201401N00311004201CN0200001N9+02671+02111999999ADDAA106000091AG10999GF105991051071004501001001MA1999999090971MD1999999+0181REMSYN011333   58018
0143833440999991991032500004-14950-040883FM-12+0905SBQV V0200901N00211220001CN9999999N9+02121+02001101081ADDAA106007091AG10999AY161061AY221061GF103991031041012501001001KA1240M+02911MA1999999091191MD1999999+0171MW1021REMSYN023333   10291 58017 60071
0108833440999991991032512004-14950-040883FM-12+0905SBQV V0200501N00311220001CN0200001N9+02271+01901101391ADDAA124007091AG10999GF104991041061004501001001MA1999999091451MD1999999+0221REMSYN023333   20/// 58022 60074
0096833440999991991032518004-14950-040883FM-12+0905SBQV V0201401N00311004201CN0200001N9+02661+01821999999ADDAA106000091AG10999GF106991061021004501001001MA1999999091151MD1999999+0181REMSYN011333   58018
0115833440999991991032600004-14950-040883FM-12+0905SBQV V0201401N00261220001CN9999999N9+02101+01951101241ADDAA106000091AG10999GF100991001001999999001001KA1240M+02861MA1999999091321MD1999999+0131REMSYN017333   10286 58013
0096833440999991991032618004-14950-040883FM-12+0905SBQV V0201401N00411220001CN0200001N9+02691+01581999999ADDAA106000091AG10999GF104991031011017501001011MA1999999091111MD1999999-0111REMSYN011333   59011
0115833440999991991032700004-14950-040883FM-12+0905SBQV V0200901N00151220001CN9999999N9+02771+01601101091ADDAA106000091AG10999GF100991001001999999001001KA1240M+02761MA1999999091181MD1999999-0141REMSYN017333   10276 59014
0102833440999991991032712004-14950-040883FM-12+0905SBQV V0200901N00311220001CN0200001N9+02231+01711101221ADDAA106000091AG10999GF102991021011004501001001MA1999999091291MD1999999-0121REMSYN017333   20/// 59012
0062833440999991991032718004-14950-040883FM-12+0905SBQV V0200901N00361012001CN0200001N9+02651+01601999999ADDAA106000091AG10999GF105991051051012501001001MA1999999090931
0115833440999991991032800004-14950-040883FM-12+0905SBQV V0200901N00051220001CN9999999N9+02041+01821101051ADDAA106000091AG10999GF102991021021004501001001KA1240M+02711MA1999999091141MD1999999-0041REMSYN017333   10271 59004
0102833440999991991032812004-14950-040883FM-12+0905SBQV V0200901N00211045001CN0200001N9+02191+01801101141ADDAA106000091AG10999GF106991041061004501041001MA1999999091211MD1999999-0081REMSYN017333   20/// 59008
0115833440999991991032818004-14950-040883FM-12+0905SBQV V0201401N00261004201CN0500001N9+02461+01851999999ADDAA106000091AG10999GF107991051031004501021001MA1999999090901MD1999999-0031REMSYN011333   59003EQDQ01+104003APOSLP
0115833440999991991032900004-14950-040883FM-12+0905SBQV V0200901N00261220001CN9999999N9+02001+01851101131ADDAA106000091AG10999GF104991041001008001031001KA1240M+02651MA1999999091191MD1999999+0051REMSYN017333   10265 58005
0102833440999991991032912004-14950-040883FM-12+0905SBQV V0200501N00261004201CN0200001N9+02281+01731101181ADDAA106000091AG10999GF105991051021004501001001MA1999999091251MD1999999+0041REMSYN017333   20/// 58004
0063833440999991991032918004-14950-040883FM-12+0905SBQV V0201801N002619999999N0100001N9+02511+02511999999ADDAG10999GF108991999999004501999999MA1999999090991REMSYN003333
0143833440999991991033000004-14950-040883FM-12+0905SBQV V0200901N00151220001CN9999999N9+02091+02001101061ADDAA106042091AG10999AY181061AY221061GF104991041001008001031001KA1240M+02711MA1999999091151MD1999999-0041MW1021REMSYN023333   10271 59004 60421
0108833440999991991033012004-14950-040883FM-12+0905SBQV V0200501N00261045001CN0100001N9+02161+01901101581ADDAA112042091AG10999GF107991041021004501021001MA1999999091601MD1999999+0351REMSYN023333   20/// 58035 60422
0096833440999991991033018004-14950-040883FM-12+0905SBQV V0201401N00211045001CN0200001N9+02681+01761999999ADDAA106000091AG10999GF107991041021004501021001MA1999999091171MD1999999+0181REMSYN011333   58018
0102833440999991991033112004-14950-040883FM-12+0905SBQV V0200501N003119999999N0200001N9+02191+01801101591ADDAA106000091AG10999GF106991061001008001061001MA1999999091621MD1999999+0021REMSYN017333   20/// 58002
0096833440999991991033118004-14950-040883FM-12+0905SBQV V0200901N00211220001CN0200001N9+02701+01721999999ADDAA106000091AG10999GF105991031021004501001081MA1999999091141MD1999999-0031REMSYN011333   59003
0115833440999991991040100004-14950-040883FM-12+0905SBQV V0200901N00211220001CN9999999N9+02141+01911101161ADDAA106000091AG10999GF100991001001999999001001KA1240M+02781MA1999999091241MD1999999-0101REMSYN017333   10278 59010
0102833440999991991040112004-14950-040883FM-12+0905SBQV V0203601N002119999999N0200001N9+02371+01871101291ADDAA106000091AG10999GF106991061001008001061001MA1999999091371MD1999999-0251REMSYN017333   20/// 59025
0096833440999991991040118004-14950-040883FM-12+0905SBQV V0201401N00261004201CN0200001N9+02781+02011999999ADDAA106000091AG10999GF105991051021004501001001MA1999999090991MD1999999-0151REMSYN011333   59015
0115833440999991991040200004-14950-040883FM-12+0905SBQV V0200501N00101220001CN9999999N9+02211+01901101091ADDAA106000091AG10999GF104991041001008001031001KA1240M+02861MA1999999091201MD1999999-0041REMSYN017333   10286 59004
0102833440999991991040212004-14950-040883FM-12+0905SBQV V0200901N00101045001CN0200001N9+02421+01991101331ADDAA106000091AG10999GF107991041021008001041001MA1999999091421MD1999999+0051REMSYN017333   20/// 58005
0096833440999991991040218004-14950-040883FM-12+0905SBQV V0201401N00311220001CN0500001N9+02871+01731999999ADDAA106000091AG10999GF104991021011004501999001MA1999999091031MD1999999+0041REMSYN011333   58004
0137833440999991991040300004-14950-040883FM-12+0905SBQV V0200501N00311220001CN9999999N9+02301+01871101161ADDAA106000091AG10999AY121061AY221061GF100991001001999999001001KA1240M+02981MA1999999091281MD1999999+0081MW1131REMSYN017333   10298 58008
0102833440999991991040312004-14950-040883FM-12+0905SBQV V0200901N00151004201CN0200001N9+02301+01871101551ADDAA106000091AG10999GF105991051021004501001001MA1999999091621MD1999999+0201REMSYN017333   20/// 58020
0096833440999991991040318004-14950-040883FM-12+0905SBQV V0201401N00261045001CN0500001N9+02651+01851999999ADDAA106000091AG10999GF106991041021004501021001MA1999999091371MD1999999+0241REMSYN011333   58024
0115833440999991991040400004-14950-040883FM-12+0905SBQV V0201401N00261004201CN9999999N9+02101+01951101521ADDAA106000091AG10999GF107991071061004501001001KA1240M+02751MA1999999091571MD1999999+0291REMSYN017333   10275 58029
0130833440999991991040412004-14950-040883FM-12+0905SBQV V0201401N00311045001CN0100001N9+02081+01861101701ADDAA124001091AG10999AY161061AY221061GF107991041031004501061001MA1999999091711MD1999999+0091MW1031REMSYN023333   20/// 58009 60014
0096833440999991991040418004-14950-040883FM-12+0905SBQV V0201401N00211004201CN0200001N9+02501+01801999999ADDAA106000091AG10999GF106991061021004501001001MA1999999091431MD1999999+0061REMSYN011333   58006
0115833440999991991040500004-14950-040883FM-12+0905SBQV V0200901N00151220001CN9999999N9+02061+01851101541ADDAA106000091AG10999GF100991001001999999001001KA1240M+02661MA1999999091561MD1999999-0011REMSYN017333   10266 59001
0102833440999991991040512004-14950-040883FM-12+0905SBQV V0201401N002619999999N0100001N9+02131+01931101671ADDAA106000091AG10999GF108991081001008001061999MA1999999091681MD1999999-0031REMSYN017333   20/// 59003
0115833440999991991040518004-14950-040883FM-12+0905SBQV V0201401N003119999999N0200001N9+02491+01891999999ADDAA106000091AG10999GF107991999021004501001001MA1999999091321MD1999999-0111REMSYN011333   59011EQDQ01+000042SCOTLC
0115833440999991991040600004-14950-040883FM-12+0905SBQV V0200901N001519999999N9999999N9+02061+01871101551ADDAA106000091AG10999GF107991071001008001061001KA1240M+02601MA1999999091571MD1999999+0011REMSYN017333   10260 58001
0102833440999991991040612004-14950-040883FM-12+0905SBQV V0201401N00311045001CN0100001N9+01981+01661101611ADDAA106000091AG10999GF107991041021004501061001MA1999999091611MD1999999-0071REMSYN017333   20/// 59007
0096833440999991991040618004-14950-040883FM-12+0905SBQV V0200901N00311045001CN0100001N9+02281+01731999999ADDAA106000091AG10999GF107991041021004501061001MA1999999091361MD1999999+0051REMSYN011333   58005
0115833440999991991040700004-14950-040883FM-12+0905SBQV V0200901N00211004201CN9999999N9+01951+01831101421ADDAA106000091AG10999GF107991071051004501001001KA1240M+02351MA1999999091431MD1999999-0041REMSYN017333   10235 59004
0096833440999991991040718004-14950-040883FM-12+0905SBQV V0200901N00151045001CN0100001N9+02161+01721999999ADDAA106000091AG10999GF107991041021004501021001MA1999999091371MD1999999+0001REMSYN011333   58000
0115833440999991991040800004-14950-040883FM-12+0905SBQV V0200901N00311004201CN9999999N9+01901+01711101521ADDAA106000091AG10999GF107991071061004501001001KA1240M+02321MA1999999091521MD1999999+0121REMSYN017333   10232 58012
0102833440999991991040812004-14950-040883FM-12+0905SBQV V0200901N00261220001CN0200001N9+02091+01581101591ADDAA106000091AG10999GF102991011011017501001011MA1999999091591MD1999999+0001REMSYN017333   20/// 58000
0096833440999991991040818004-14950-040883FM-12+0905SBQV V0201401N00311045001CN0200001N9+02511+01671999999ADDAA106000091AG10999GF106991041041008001031001MA1999999091281MD1999999-0091REMSYN011333   59009
0115833440999991991040900004-14950-040883FM-12+0905SBQV V0200901N00211220001CN9999999N9+02021+01621101361ADDAA106000091AG10999GF100991001001999999001001KA1240M+02611MA1999999091391MD1999999-0131REMSYN017333   10261 59013
0102833440999991991040912004-14950-040883FM-12+0905SBQV V0201401N00261220001CN0200001N9+02181+01781101471ADDAA106000091AG10999GF103991031021012501001001MA1999999091501MD1999999-0091REMSYN017333   20/// 59009
0102833440999991991041012004-14950-040883FM-12+0905SBQV V0201401N00311004201CN0040001N9+02071+01931101381ADDAA106000091AG10999GF108991081051004501999999MA1999999091411MD1999999-0091REMSYN017333   20/// 59009
0096833440999991991041018004-14950-040883FM-12+0905SBQV V0201401N00361004201CN0200001N9+02531+01961999999ADDAA106000091AG10999GF106991061051004501001001MA1999999091081MD1999999-0061REMSYN011333   59006
0143833440999991991041100004-14950-040883FM-12+0905SBQV V0200901N00151004201CN9999999N9+02011+01921101241ADDAA106008091AG10999AY161061AY261061GF107991071071004501001001KA1240M+02621MA1999999091281MD1999999-0051MW1611REMSYN023333   10262 59005 60081
0162833440999991991041112004-14950-040883FM-12+0905SBQV V0200901N00261045001CN0200001N9+02301+01871101341ADDAA124009091AG10999AY161061AY221061GF106991041071004501061001KA1240N+02351MA1999999999999MD1999999-0011MW1021REMSYN023333   20235 59001 60094EQDQ01 096403APOSP 
0115833440999991991041118004-14950-040883FM-12+0905SBQV V0200901N00311007501CN0200001N9+02491+01871999999ADDAA106000091AG10999GF106991061061008001001001MA1999999091092MD1999999+0011REMSYN011333   58001EQDQ01+091093APOSP 
0102833440999991991041212004-14950-040883FM-12+0905SBQV V0200501N00151045001CN0200001N9+02151+01881104411ADDAA106000091AG10999GF106991041071004501041001MA1999999091441MD1999999+0041REMSYN017333   20/// 58004
0124833440999991991041218004-14950-040883FM-12+0905SBQV V0200501N00511004201CN0200001N9+02431+01911999999ADDAA106000391AG10999AY161061AY251061GF106991061071004501001001MA1999999091071MD1999999-0021MW1021REMSYN017333   59002 69931
0096833440999991991041300004-14950-040883FM-12+0905SBQV V0200501N00311220001CN9999999N9+01971+01811101222ADDAA106000091AG10999GF100991001001999999001001MA1999999091261MD1999999-0041REMSYN011333   59004
0108833440999991991041312004-14950-040883FM-12+0905SBQV V0200501N00311004201CN0100001N9+02071+01781101291ADDAA124000391AG10999GF108991081071004501999999MA1999999091331MD1999999-0111REMSYN023333   20/// 59011 69934
0143833440999991991041400004-14950-040883FM-12+0905SBQV V0200501N00361220001CN9999999N9+02021+01871101091ADDAA106999929AG10999AY151061AY211061GF100991001001999999001001KA1240M+02781MA1999999091161MD1999999-0101MW1001REMSYN023333   10278 59010 69901
0108833440999991991041412004-14950-040883FM-12+0905SBQV V0200501N00311012001CN0200001N9+02241+01751101311ADDAA124999929AG10999GF107991071051012501001001MA1999999091371MD1999999-0041REMSYN023333   20/// 59004 69904
0115833440999991991041500004-14950-040883FM-12+0905SBQV V0200901N00361220001CN9999999N9+02061+01891101081ADDAA106000091AG10999GF100991001001999999001001KA1240M+02711MA1999999091161MD1999999+0001REMSYN017333   10271 58000
0162833440999991991041512004-14950-040883FM-12+0905SBQV V0202301N00051045001CN0100001N9+02581+02421101471ADDAA124000191AG10999AY151061AY221061GF106991041061012501041041KA1240N+02061MA1999999999999MD1999999-0121MW1021REMSYN023333   20206 59012 69914EQDQ01 100793APOSP 
0115833440999991991041518004-14950-040883FM-12+0905SBQV V0201401N00311220001CN0200001N9+02651+01661999999ADDAA106000091AG10999GF106991031021012501001061MA1999999091182MD1999999+0201REMSYN011333   58020EQDQ01+091183APOSP 
0115833440999991991041600004-14950-040883FM-12+0905SBQV V0200901N00311220001CN9999999N9+02091+01871101351ADDAA106000091AG10999GF103991031011012501001001KA1240M+02731MA1999999091411MD1999999+0251REMSYN017333   10273 58025
0102833440999991991041612004-14950-040883FM-12+0905SBQV V0201401N00151004201CN0200001N9+02131+01821101511ADDAA106000091AG10999GF107991071071004501001001MA1999999091541MD1999999+0031REMSYN017333   20/// 58003
0115833440999991991041700004-14950-040883FM-12+0905SBQV V0200901N00211004201CN9999999N9+02021+01871101271ADDAA106000091AG10999GF106991061051004501001001KA1240M+02701MA1999999091331MD1999999-0081REMSYN017333   10270 59008
0096833440999991991041718004-14950-040883FM-12+0905SBQV V0200901N00311220001CN0200001N9+02631+01761999999ADDAA106000091AG10999GF104991031021012501001091MA1999999090961MD1999999-0241REMSYN011333   59024
0115833440999991991041800004-14950-040883FM-12+0905SBQV V0200901N00311220001CN9999999N9+01901+01681101121ADDAA106000091AG10999GF103991031001022501081001KA1240M+02701MA1999999091211MD1999999-0171REMSYN017333   10270 59017
0102833440999991991041812004-14950-040883FM-12+0905SBQV V0200901N00311220001CN0200001N9+02191+01701101301ADDAA106000091AG10999GF106991031011012501001011MA1999999091341MD1999999+0001REMSYN017333   20/// 58000
0096833440999991991041818004-14950-040883FM-12+0905SBQV V0200901N00311105001CN0200001N9+02641+01511999999ADDAA106000091AG10999GF107991031021012501001081MA1999999091041MD1999999+0081REMSYN011333   58008
0115833440999991991041900004-14950-040883FM-12+0905SBQV V0200501N00411220001CN9999999N9+01971+01591101211ADDAA106000091AG10999GF100991001001999999001001KA1240M+02761MA1999999091271MD1999999+0111REMSYN017333   10276 58011
0102833440999991991041912004-14950-040883FM-12+0905SBQV V0203601N00311007501CN9999999N9+02361+01731101491ADDAA106000091AG10999GF106991061061008001001001MA1999999091531MD1999999+0191REMSYN017333   20/// 58019
0096833440999991991041918004-14950-040883FM-12+0905SBQV V0200901N00311045001CN0200001N9+02751+01351999999ADDAA106000091AG10999GF105991031021004501061001MA1999999091221MD1999999+0181REMSYN011333   58018
0102833440999991991042012004-14950-040883FM-12+0905SBQV V0200901N00361004201CN0200001N9+02181+01631101721ADDAA106000091AG10999GF106991061051004501001001MA1999999091731MD1999999+0201REMSYN017333   20/// 58020
0115833440999991991042100004-14950-040883FM-12+0905SBQV V0200901N00261220001CN9999999N9+99999+99999101651ADDAA106000091AG10999GF102991021061004501001001KA1240M+02691MA1999999091661MD1999999+0231REMSYN017333   10269 58023
0062833440999991991042112004-14950-040883FM-12+0905SBQV V0201401N00311045001CN0100001N9+01941+01611101841ADDAA106000091AG10999GF108991041071004501011999MA1999999091811
0096833440999991991042118004-14950-040883FM-12+0905SBQV V0201401N00311004201CN0200001N9+02321+01531999999ADDAA106000091AG10999GF106991061071004501001001MA1999999091521MD1999999+0021REMSYN011333   58002
0143833440999991991042200004-14950-040883FM-12+0905SBQV V0201401N00411004201CN9999999N9+01811+01651101731ADDAA106999929AG10999AY151061AY251061GF108991081071004501999999KA1240M+02361MA1999999091701MD1999999+0041MW1511REMSYN023333   10236 58004 69901
0115833440999991991042300004-14950-040883FM-12+0905SBQV V0201401N00311004201CN9999999N9+01741+01711101641ADDAA106000091AG10999GF108991081071004501999999KA1240M+02141MA1999999091601MD1999999-0101REMSYN017333   10214 59010
0143833440999991991042312004-14950-040883FM-12+0905SBQV V0201401N00311004201CN0200001N9+01871+01641101671ADDAA124000191AG10999AY151061AY221061GF106991061071004501001001KA1240N+01631MA1999999091631MD1999999-0101MW1021REMSYN023333   20163 59010 69914
0096833440999991991042318004-14950-040883FM-12+0905SBQV V0201401N00311012001CN0200001N9+02421+01701999999ADDAA106000091AG10999GF105991051051012501001001MA1999999091291MD1999999-0141REMSYN011333   59014
0115833440999991991042400004-14950-040883FM-12+0905SBQV V0200901N00151220001CN9999999N9+01891+01751101661ADDAA106000091AG10999GF100991001001999999001001KA1240M+02511MA1999999091621MD1999999+0021REMSYN017333   10251 58002
0115833440999991991042412004-14950-040883FM-12+0905SBQV V0201401N00261045001CN0200001N9+02031+01621101651ADDAA106000091AG10999GF106991041051004501041001KA1240N+01711MA1999999091641MD1999999+0011REMSYN017333   20171 58001
0096833440999991991042418004-14950-040883FM-12+0905SBQV V0201401N00261012001CN0200001N9+02531+01661999999ADDAA106000091AG10999GF105991051021012501001001MA1999999091241MD1999999-0051REMSYN011333   59005
0115833440999991991042500004-14950-040883FM-12+0905SBQV V0200901N00261007501CN9999999N9+02011+01781101401ADDAA106000091AG10999GF105991051061008001001001KA1240M+02621MA1999999091421MD1999999-0201REMSYN017333   10262 59020
0115833440999991991042512004-14950-040883FM-12+0905SBQV V0200501N00211012001CN0200001N9+02291+01751101531ADDAA106000091AG10999GF106991061021012501001001KA1240N+01781MA1999999091561MD1999999-0081REMSYN017333   20178 59008
0096833440999991991042518004-14950-040883FM-12+0905SBQV V0201401N00311105001CN0200001N9+02691+01671999999ADDAA106000091AG10999GF106991021021012501001091MA1999999091211MD1999999-0031REMSYN011333   59003
0115833440999991991042600004-14950-040883FM-12+0905SBQV V0200901N00311045001CN9999999N9+02081+01911101411ADDAA106000091AG10999GF107991031061008001011001KA1240M+02761MA1999999091471MD1999999+0051REMSYN017333   10276 58005
0115833440999991991042612004-14950-040883FM-12+0905SBQV V0200901N00211045001CN0100001N9+02121+01881101531ADDAA106000091AG10999GF108991041071004501011999KA1240N+01851MA1999999091551MD1999999-0011REMSYN017333   20185 59001
0096833440999991991042618004-14950-040883FM-12+0905SBQV V0201401N00311105001CN0200001N9+02511+01891999999ADDAA106000091AG10999GF107991021071004501001061MA1999999091191MD1999999-0021REMSYN011333   59002
0115833440999991991042700004-14950-040883FM-12+0905SBQV V0200501N00361021001CN9999999N9+01921+01771101361ADDAA106000091AG10999GF106991061001022501011001KA1240M+02641MA1999999091381MD1999999-0091REMSYN017333   10264 59009
0115833440999991991042712004-14950-040883FM-12+0905SBQV V0200901N00211045001CN0200001N9+02151+01701101471ADDAA106000091AG10999GF107991041061008001011001KA1240N+01751MA1999999091491MD1999999-0061REMSYN017333   20175 59006
0115833440999991991042800004-14950-040883FM-12+0905SBQV V0200901N00101045001CN9999999N9+02031+01761101271ADDAA106000091AG10999GF108991041071004501011999KA1240M+02491MA1999999091331MD1999999-0051REMSYN017333   10249 59005
0115833440999991991042812004-14950-040883FM-12+0905SBQV V0200501N00261007501CN0200001N9+02241+01641101321ADDAA106000091AG10999GF107991071061008001001001KA1240N+01771MA1999999091381MD1999999-0111REMSYN017333   20177 59011
0096833440999991991042818004-14950-040883FM-12+0905SBQV V0200501N00311105001CN0200001N9+02741+01571999999ADDAA106000091AG10999GF106991041051012501001091MA1999999091041MD1999999-0101REMSYN011333   59010
0115833440999991991042912004-14950-040883FM-12+0905SBQV V0200901N00101045001CN9999999N9+02111+01951101361ADDAA106000091AG10999GF108991041071004501011999KA1240N+01821MA1999999091381MD1999999+0001REMSYN017333   20182 58000
0121833440999991991043012004-14950-040883FM-12+0905SBQV V0201401N00311220001CN0200001N9+02211+01741101361ADDAA124000191AG10999GF104991041011017501001001KA1240N+01661MA1999999091401MD1999999+0021REMSYN023333   20166 58002 69914
0115833440999991991050100004-14950-040883FM-12+0905SBQV V0201401N00361220001CN9999999N9+02021+01761101311ADDAA106000091AG10999GF100991001001999999001001KA1240M+02691MA1999999091351MD1999999+0131REMSYN017333   10269 58013
0115833440999991991050112004-14950-040883FM-12+0905SBQV V0201401N00261004201CN0200001N9+02021+01601101531ADDAA106000091AG10999GF106991061051004501001001KA1240N+01771MA1999999091541MD1999999+0141REMSYN017333   20177 58014
0096833440999991991050118004-14950-040883FM-12+0905SBQV V0201401N00311220001CN0200001N9+02511+01491999999ADDAA106000091AG10999GF104991041021004501001001MA1999999091241MD1999999+0131REMSYN011333   58013
0115833440999991991050200004-14950-040883FM-12+0905SBQV V0201401N00151220001CN9999999N9+01821+01491101391ADDAA106000091AG10999GF100991001001999999001001KA1240M+02621MA1999999091391MD1999999+0041REMSYN017333   10262 58004
0115833440999991991050212004-14950-040883FM-12+0905SBQV V0201401N00361220001CN0200001N9+01891+01511101711ADDAA106000091AG10999GF102991021021012501001001KA1240N+01551MA1999999091671MD1999999+0131REMSYN017333   20155 58013
0096833440999991991050218004-14950-040883FM-12+0905SBQV V0201401N00211220001CN0200001N9+02431+01341999999ADDAA106000091AG10999GF102991021021012501001001MA1999999091191MD1999999-0051REMSYN011333   59005
0115833440999991991050300004-14950-040883FM-12+0905SBQV V0201401N00311220001CN9999999N9+01871+01661101381ADDAA106000091AG10999GF100991001001999999001001KA1240M+02511MA1999999091381MD1999999-0011REMSYN017333   10251 59001
0134833440999991991050312004-14950-040883FM-12+0905SBQV V0201801N00411045001CN0200001N9+01961+01481101481ADDAA106000091AG10999GF105991021011004501041001KA1240N+01531MA1999999999999MD1999999-0201REMSYN017333   20153 59020EQDQ01 095473APOSP 
0115833440999991991050318004-14950-040883FM-12+0905SBQV V0201401N00151105001CN0200001N9+02401+01471999999ADDAA106000091AG10999GF106991041021012501001091MA1999999091132MD1999999-0061REMSYN011333   59006EQDQ01+091133APOSP 
0115833440999991991050400004-14950-040883FM-12+0905SBQV V0200901N00311220001CN9999999N9+01941+01461101331ADDAA106000091AG10999GF100991001001999999001001KA1240M+02501MA1999999091341MD1999999-0041REMSYN017333   10250 59004
0115833440999991991050412004-14950-040883FM-12+0905SBQV V0201401N00261105001CN0200001N9+01981+01591101491ADDAA106000091AG10999GF105991031031008001001031KA1240N+01511MA1999999091481MD1999999+0011REMSYN017333   20151 58001
0096833440999991991050418004-14950-040883FM-12+0905SBQV V0201401N00261045001CN0200001N9+02361+01541999999ADDAA106000091AG10999GF107991041061004501011001MA1999999091121MD1999999-0011REMSYN011333   59001
0115833440999991991050500004-14950-040883FM-12+0905SBQV V0200901N00211220001CN9999999N9+01931+01641101351ADDAA106000091AG10999GF102991021061004501001001KA1240M+02491MA1999999091361MD1999999+0021REMSYN017333   10249 58002
0115833440999991991050512004-14950-040883FM-12+0905SBQV V0200501N00411220001CN0100001N9+02151+01661101371ADDAA106000091AG10999GF103991031041004501001001KA1240N+01311MA1999999091401MD1999999-0081REMSYN017333   20131 59008
0134833440999991991050600004-14950-040883FM-12+0905SBQV V0200901N00211220001CN9999999N9+02921+01731101181ADDAA106000091AG10999GF102991021011008001001001KA1240M+99999MA1999999091241MD1999999-0121REMSYN017333   10245 59012EQDQ01 +02452ATMX  
0115833440999991991050612004-14950-040883FM-12+0905SBQV V0200501N00261045001CN0100001N9+02091+01561101491ADDAA106000091AG10999GF108991041071004501021999KA1240N+01591MA1999999091501MD1999999+0101REMSYN017333   20159 58010
0070833440999991991050615004-14950-040883FM-12+0905SBQV V0201001N00261045001CN0200001N9+02801+02341101251ADDAG10999GF107991041021004501031041MD1999999+0101REMSYN011333   58010
0096833440999991991050618004-14950-040883FM-12+0905SBQV V0200901N00151045001CN0200001N9+02531+01631999999ADDAA106000091AG10999GF106991041071004501011001MA1999999091221MD1999999+0091REMSYN011333   58009
0115833440999991991050700004-14950-040883FM-12+0905SBQV V0200901N00211220001CN9999999N9+01971+01661101441ADDAA106000091AG10999GF100991001001999999001001KA1240M+02681MA1999999091461MD1999999+0221REMSYN017333   10268 58022
0115833440999991991050712004-14950-040883FM-12+0905SBQV V0201401N00261009001CN0200001N9+02121+01621101541ADDAA106000091AG10999GF107991051081004501091001KA1240N+01731MA1999999091561MD1999999+0061REMSYN017333   20173 58006
0096833440999991991050718004-14950-040883FM-12+0905SBQV V0201401N00311045001CN0100001N9+02421+01571999999ADDAA106000091AG10999GF107991031051004501021001MA1999999091291MD1999999+0071REMSYN011333   58007
0115833440999991991050800004-14950-040883FM-12+0905SBQV V0200901N00211220001CN9999999N9+01941+01751101411ADDAA106000091AG10999GF104991041061012501001001KA1240M+02631MA1999999091431MD1999999-0031REMSYN017333   10263 59003
0115833440999991991050812004-14950-040883FM-12+0905SBQV V0201401N00151045001CN0200001N9+02121+01701101521ADDAA106000091AG10999GF107991021011012501051061KA1240N+01671MA1999999091541MD1999999-0021REMSYN017333   20167 59002
0096833440999991991050818004-14950-040883FM-12+0905SBQV V0201401N00261105001CN0200001N9+02731+01561999999ADDAA106000091AG10999GF105991031011012501001031MA1999999091121MD1999999-0171REMSYN011333   59017
0115833440999991991050900004-14950-040883FM-12+0905SBQV V0200901N00151220001CN9999999N9+02041+01621101281ADDAA106000091AG10999GF103991999999008001999999KA1240M+02781MA1999999091341MD1999999-0091REMSYN017333   10278 59009
0115833440999991991050912004-14950-040883FM-12+0905SBQV V0201401N00261004201CN0100001N9+02121+01721101511ADDAA106000091AG10999GF107991051031004501021001KA1240N+01781MA1999999091541MD1999999+0001REMSYN017333   20178 58000
0096833440999991991050918004-14950-040883FM-12+0905SBQV V0201401N00411220001CN0200001N9+02551+01631999999ADDAA106000091AG10999GF104991031021012501041001MA1999999091311MD1999999+0191REMSYN011333   58019
0115833440999991991051000004-14950-040883FM-12+0905SBQV V0200901N00261220001CN9999999N9+01961+01631101521ADDAA106000091AG10999GF102991021011004501001001KA1240M+02681MA1999999091541MD1999999+0201REMSYN017333   10268 58020
0115833440999991991051012004-14950-040883FM-12+0905SBQV V0201401N00361045001CN0100001N9+01901+01591101821ADDAA106000091AG10999GF108991041071004501021999KA1240N+01711MA1999999091791MD1999999+0251REMSYN017333   20171 58025
0096833440999991991051018004-14950-040883FM-12+0905SBQV V0201401N00261004201CN0200001N9+02321+01631999999ADDAA106000091AG10999GF105991051051004501001001MA1999999091411MD1999999+0141REMSYN011333   58014
0115833440999991991051112004-14950-040883FM-12+0905SBQV V0200901N00361004201CN0100001N9+01811+01431101791ADDAA106000091AG10999GF107991071071004501001001KA1240N+01641MA1999999091741MD1999999-0051REMSYN017333   20164 59005
0096833440999991991051118004-14950-040883FM-12+0905SBQV V0201401N00261220001CN0200001N9+02461+01441999999ADDAA106000091AG10999GF104991041021004501001001MA1999999091311MD1999999-0141REMSYN011333   59014
0115833440999991991051200004-14950-040883FM-12+0905SBQV V0200901N00261220001CN9999999N9+01801+01491101441ADDAA106000091AG10999GF100991001001999999001001KA1240M+02531MA1999999091511MD1999999-0191REMSYN017333   10253 59019
0115833440999991991051212004-14950-040883FM-12+0905SBQV V0201401N00261220001CN0200001N9+02011+01371101801ADDAA106000091AG10999GF102991021011012501001001KA1240N+01491MA1999999091761MD1999999+0021REMSYN017333   20149 58002
0096833440999991991051218004-14950-040883FM-12+0905SBQV V0201401N00411220001CN0200001N9+02281+01181999999ADDAA106000091AG10999GF103991031021012501001001MA1999999091441MD1999999+0131REMSYN011333   58013
0115833440999991991051300004-14950-040883FM-12+0905SBQV V0201401N00101220001CN9999999N9+01721+01251101731ADDAA106000091AG10999GF100991001001999999001001KA1240M+02401MA1999999091691MD1999999+0181REMSYN017333   10240 58018
0115833440999991991051312004-14950-040883FM-12+0905SBQV V0201401N00411045001CN0100001N9+01861+01371101851ADDAA106000091AG10999GF105991031021004501071001KA1240N+01411MA1999999091801MD1999999+0041REMSYN017333   20141 58004
0096833440999991991051318004-14950-040883FM-12+0905SBQV V0200901N00411004201CN0200001N9+02261+01101999999ADDAA106000091AG10999GF105991051021004501001001MA1999999091451MD1999999+0011REMSYN011333   58001
0115833440999991991051400004-14950-040883FM-12+0905SBQV V0200901N00151220001CN9999999N9+01781+01511101741ADDAA106000091AG10999GF102991021011004501001001KA1240M+02361MA1999999091691MD1999999+0001REMSYN017333   10236 58000
0115833440999991991051412004-14950-040883FM-12+0905SBQV V0201401N00211045001CN0200001N9+01861+01601102001ADDAA106000091AG10999GF107991041071004501021001KA1240N+01631MA1999999091921MD1999999+0121REMSYN017333   20163 58012
0096833440999991991051418004-14950-040883FM-12+0905SBQV V0201401N00261004201CN0200001N9+02161+01611999999ADDAA106000091AG10999GF106991061051004501001001MA1999999091351MD1999999-0101REMSYN011333   59010
0115833440999991991051500004-14950-040883FM-12+0905SBQV V0201401N00151004201CN9999999N9+01731+01551101571ADDAA106000091AG10999GF107991071051004501001001KA1240M+02221MA1999999091541MD1999999-0151REMSYN017333   10222 59015
0096833440999991991051518004-14950-040883FM-12+0905SBQV V0200901N00211004201CN0200001N9+02421+01371999999ADDAA106000091AG10999GF107991051051004501001091MA1999999091261MD1999999-0091REMSYN011333   59009
0115833440999991991051600004-14950-040883FM-12+0905SBQV V0200901N00311220001CN9999999N9+01861+01551101461ADDAA106000091AG10999GF100991001001999999001001KA1240M+02531MA1999999091451MD1999999-0091REMSYN017333   10253 59009
0115833440999991991051612004-14950-040883FM-12+0905SBQV V0200901N00211220001CN0200001N9+01951+01591101571ADDAA106000091AG10999GF102991021011017501001091KA1240N+01551MA1999999091551MD1999999-0021REMSYN017333   20155 59002
0096833440999991991051618004-14950-040883FM-12+0905SBQV V0201401N00261105001CN0200001N9+02391+01631999999ADDAA106000091AG10999GF107991001001999999001061MA1999999091231MD1999999-0061REMSYN011333   59006
0115833440999991991051700004-14950-040883FM-12+0905SBQV V0200901N00151220001CN9999999N9+01861+01581101391ADDAA106000091AG10999GF100991001001999999001001KA1240M+02581MA1999999091391MD1999999-0061REMSYN017333   10258 59006
0115833440999991991051712004-14950-040883FM-12+0905SBQV V0203601N00151045001CN0100001N9+01801+01691101531ADDAA106000091AG10999GF108991041041004501021999KA1240N+01631MA1999999091511MD1999999-0041REMSYN017333   20163 59004
0096833440999991991051718004-14950-040883FM-12+0905SBQV V0201401N00311045001CN0100001N9+02271+01711999999ADDAA106000091AG10999GF108991041061004501021999MA1999999091281MD1999999+0051REMSYN011333   58005
0115833440999991991051800004-14950-040883FM-12+0905SBQV V0200901N00211220001CN9999999N9+01901+01681101451ADDAA106000091AG10999GF100991001001999999001001KA1240M+02501MA1999999091441MD1999999+0051REMSYN017333   10250 58005
0115833440999991991051812004-14950-040883FM-12+0905SBQV V0200901N00211004201CN0040001N9+01981+01781101671ADDAA106000091AG10999GF108991081051004501999999KA1240N+01811MA1999999091651MD1999999+0141REMSYN017333   20181 58014
0107833440999991991051918004-14950-040883FM-12+0905SBQV V0201401N00261004201CN0020001N9+01911+01871999999ADDAG10999AY161061AY251061GF108991081071004501999999MA1999999091571MD1999999+0011MW1511REMSYN011333   58001
0143833440999991991052000004-14950-040883FM-12+0905SBQV V0200901N00261004201CN9999999N9+01791+01731101721ADDAA106003091AG10999AY151061AY251061GF108991081071004501999999KA1240M+01971MA1999999091681MD1999999-0021MW1511REMSYN023333   10197 59002 60031
0143833440999991991052012004-14950-040883FM-12+0905SBQV V0201401N00211004201CN0100001N9+01861+01831101701ADDAA124005091AG10999AY161061AY251061GF108991081071004501999999KA1240N+01691MA1999999091661MD1999999-0141MW1201REMSYN023333   20169 59014 60054
0135833440999991991052018004-14950-040883FM-12+0905SBQV V0200901N00311004201CN0040001N9+01951+01871999999ADDAA106000691AA299000591AG19041AY151061AY251061GF108991081071004501999999MA1999999091381MD1999999-0191MW1201REMSYN017333   59019 69961
0154833440999991991052100004-14950-040883FM-12+0905SBQV V0200901N00151004201CN9999999N9+01871+01831101581ADDAA106000691AA299000591AG10999AY151061AY251061GF108991081071004501999999KA1240M+01991MA1999999091551MD1999999-0131MW1511REMSYN023333   10199 59013 69961
0143833440999991991052112004-14950-040883FM-12+0905SBQV V0201401N00151004201CN0040001N9+01861+01841101671ADDAA124003091AG10999AY161061AY251061GF108991081051004501999999KA1240N+01671MA1999999091641MD1999999-0021MW1531REMSYN023333   20167 59002 60034
0124833440999991991052118004-14950-040883FM-12+0905SBQV V0201401N00461004201CN0040001N9+01841+01791999999ADDAA106003091AG10999AY161061AY231061GF108991081051004501999999MA1999999091411MD1999999+0031MW1531REMSYN017333   58003 60031
0130833440999991991052212004-14950-040883FM-12+0905SBQV V0200501N00151045001CN0100001N9+01931+01791101811ADDAA124005091AG10999AY161061AY221061GF108991041071004501021999MA1999999091761MD1999999+0121MW1021REMSYN023333   20/// 58012 60054
0096833440999991991052218004-14950-040883FM-12+0905SBQV V0200901N00151045001CN0200001N9+02311+01681999999ADDAA106000091AG10999GF107991031071004501011001MA1999999091451MD1999999+0041REMSYN011333   58004
0115833440999991991052300004-14950-040883FM-12+0905SBQV V0200501N00101004201CN9999999N9+01971+01811101651ADDAA106000091AG10999GF107991071071004501001001KA1240M+02391MA1999999091641MD1999999-0021REMSYN017333   10239 59002
0115833440999991991052312004-14950-040883FM-12+0905SBQV V0200901N00211220001CN0200001N9+02191+01721101591ADDAA106000091AG10999GF102991021011004501001001KA1240N+01551MA1999999091611MD1999999-0151REMSYN017333   20155 59015
0096833440999991991052318004-14950-040883FM-12+0905SBQV V0201401N00311220001CN0200001N9+02521+01841999999ADDAA106000091AG10999GF104991041021008001001001MA1999999091281MD1999999-0171REMSYN011333   59017
0115833440999991991052400004-14950-040883FM-12+0905SBQV V0200501N00361220001CN9999999N9+02031+01801101461ADDAA106000091AG10999GF100991001001999999001001KA1240M+02701MA1999999091491MD1999999-0151REMSYN017333   10270 59015
0115833440999991991052412004-14950-040883FM-12+0905SBQV V0209991C00001220001CN0200001N9+02291+01831101471ADDAA106000091AG10999GF100991001001999999001001KA1240N+01611MA1999999091501MD1999999-0111REMSYN017333   20161 59011
0096833440999991991052418004-14950-040883FM-12+0905SBQV V0201401N00361220001CN0200001N9+02451+01521999999ADDAA106000091AG10999GF102991021011004501001001MA1999999091241MD1999999-0041REMSYN011333   59004
0150833440999991991052500004-14950-040883FM-12+0905SBQV V0201801N00461045001CN9999999N9+02361+02261101601ADDAA106000091AG10999GF106991041051012501021001KA1240M+02791MA1999999999999MD1999999+0111REMSYN017333   10279 58011EQDQ01+100913APOSP Q02 100913APOSP 
0143833440999991991052512004-14950-040883FM-12+0905SBQV V0201401N00211004201CN0040001N9+01841+01761101651ADDAA124999929AG10999AY151061AY251061GF108991081071004501999999KA1240N+01791MA1999999091641MD1999999+0141MW1501REMSYN023333   20179 58014 69904
0096833440999991991052518004-14950-040883FM-12+0905SBQV V0201401N00261220001CN0200001N9+02301+01701999999ADDAA106000091AG10999GF103991031021004501001001MA1999999091351MD1999999+0111REMSYN011333   58011
0115833440999991991052600004-14950-040883FM-12+0905SBQV V0200501N00211004201CN9999999N9+01821+01691101601ADDAA106000091AG10999GF106991061061004501001001KA1240M+02371MA1999999091571MD1999999+0091REMSYN017333   10237 58009
0115833440999991991052612004-14950-040883FM-12+0905SBQV V0200901N00261012001CN0040001N9+01921+01701101751ADDAA106000091AG10999GF108991081001012501021999KA1240N+01711MA1999999091711MD1999999+0071REMSYN017333   20171 58007
0096833440999991991052618004-14950-040883FM-12+0905SBQV V0200901N00311045001CN0100001N9+02321+02241999999ADDAA106000091AG10999GF107991041021004501061001MA1999999091461MD1999999+0111REMSYN011333   58011
0115833440999991991052700004-14950-040883FM-12+0905SBQV V0200901N00211220001CN9999999N9+01821+01671101731ADDAA106000091AG10999GF104991041021004501001001KA1240M+02451MA1999999091691MD1999999+0121REMSYN017333   10245 58012
0115833440999991991052712004-14950-040883FM-12+0905SBQV V0200901N00311045001CN0100001N9+01911+01451101931ADDAA106000091AG10999GF105991021021004501011001KA1240N+01491MA1999999091861MD1999999-0151REMSYN017333   20149 59015
0096833440999991991052718004-14950-040883FM-12+0905SBQV V0201401N00261220001CN0100001N9+01961+01721999999ADDAA106000091AG10999GF104991041061004501001001MA1999999091671MD1999999+0211REMSYN011333   58021
0154833440999991991052800004-14950-040883FM-12+0905SBQV V0200901N00261004201CN9999999N9+01691+01591101771ADDAA106000491AA299000591AG10999AY151061AY211061GF108991081051004501001001KA1240M+02481MA1999999091821MD1999999+0131MW1031REMSYN023333   10248 58013 69941
0143833440999991991052812004-14950-040883FM-12+0905SBQV V0201401N00311012001CN0200001N9+01991+01541101891ADDAA124002091AG10999AY161061AY221061GF106991061051012501001001KA1240N+01591MA1999999091841MD1999999-0021MW1021REMSYN023333   20159 59002 60024
0096833440999991991052818004-14950-040883FM-12+0905SBQV V0201401N00311045001CN0200001N9+02201+01341999999ADDAA106000091AG10999GF106991041051012501031001MA1999999091571MD1999999-0101REMSYN011333   59010
0143833440999991991052900004-14950-040883FM-12+0905SBQV V0200901N00311004201CN9999999N9+01681+01571101741ADDAA106001091AG10999AY161061AY221061GF107991071071004501001001KA1240M+02481MA1999999091701MD1999999-0121MW1021REMSYN023333   10248 59012 60011
0143833440999991991052912004-14950-040883FM-12+0905SBQV V0201401N00311004201CN0040001N9+01721+01671101711ADDAA124004091AG10999AY151061AY221061GF108991081051004501999999KA1240N+01591MA1999999091641MD1999999-0201MW1521REMSYN023333   20159 59020 60044
0085833440999991991052918004-14950-040883FM-12+0905SBQV V0201401N003119999999N0100001N9+01951+01741999999ADDAG10999AY151061AY221061GF107991999999004501999999MA1999999091501MW1031REMSYN003333
0115833440999991991053000004-14950-040883FM-12+0905SBQV V0201401N00311045001CN9999999N9+01721+01571101711ADDAA106000091AG10999GF108991041071004501051999KA1240M+02031MA1999999091641MD1999999-0061REMSYN017333   10203 59006
0143833440999991991053012004-14950-040883FM-12+0905SBQV V0201401N00311004201CN0040001N9+01721+01711101811ADDAA124002091AG10999AY161061AY251061GF108991081071004501999999KA1240N+01631MA1999999091741MD1999999+0101MW1511REMSYN023333   20163 58010 60024
0135833440999991991053018004-14950-040883FM-12+0905SBQV V0200901N00411220001CN0200001N9+02181+01491999999ADDAA106000991AA299001091AG10999AY151061AY221061GF103991031051012501001001MA1999999091561MD1999999+0061MW1021REMSYN017333   58006 69991
0143833440999991991053100004-14950-040883FM-12+0905SBQV V0201401N00211004201CN9999999N9+01741+01691101751ADDAA106002091AG19041AY151061AY221061GF108991081051004501999999KA1240M+02241MA1999999091681MD1999999+0041MW1521REMSYN023333   10224 58004 60021
0143833440999991991053112004-14950-040883FM-12+0905SBQV V0201401N00311004201CN0040001N9+01721+01671101771ADDAA124005091AG10999AY151061AY221061GF108991081051004501999999KA1240N+01571MA1999999091701MD1999999-0041MW1521REMSYN023333   20157 59004 60054
0135833440999991991053118004-14950-040883FM-12+0905SBQV V0201401N00311220001CN0200001N9+02111+01481999999ADDAA106000891AA299001091AG10999AY151061AY221061GF103991031021004501001001MA1999999091531MD1999999-0031MW1021REMSYN017333   59003 69981
0115833440999991991060100004-14950-040883FM-12+0905SBQV V0201401N00211012001CN9999999N9+01681+01601101811ADDAA106000091AG10999GF108991081001012501021999KA1240M+02161MA1999999091731MD1999999+0051REMSYN017333   10216 58005
0143833440999991991060112004-14950-040883FM-12+0905SBQV V0201401N00411004201CN0040001N9+01701+01671101741ADDAA124005091AG10999AY161061AY251061GF108991081071004501999999KA1240N+01601MA1999999091661MD1999999-0041MW1501REMSYN023333   20160 59004 60054
0124833440999991991060118004-14950-040883FM-12+0905SBQV V0201401N00311220001CN0200001N9+02111+01441999999ADDAA106000191AG10999AY161061AY251061GF106991041051004501001011MA1999999091461MD1999999-0071MW1201REMSYN017333   59007 69911
0115833440999991991060200004-14950-040883FM-12+0905SBQV V0201401N00101220001CN9999999N9+01601+01451101741ADDAA106000091AG10999GF100991001001999999001001KA1240M+02171MA1999999091631MD1999999-0101REMSYN017333   10217 59010
0143833440999991991060212004-14950-040883FM-12+0905SBQV V0201401N00311004201CN0040001N9+01761+01711101801ADDAA124002091AG10999AY161061AY251061GF108991081071004501999999KA1240N+01531MA1999999091721MD1999999+0061MW1201REMSYN023333   20153 58006 60024
0124833440999991991060218004-14950-040883FM-12+0905SBQV V0200901N00261004201CN0020001N9+01841+01791999999ADDAA106001091AG10999AY161061AY261061GF108991081071004501999999MA1999999091511MD1999999+0051MW1611REMSYN017333   58005 60011
0143833440999991991060312004-14950-040883FM-12+0905SBQV V0200901N00361004201CN0100001N9+01771+01591101911ADDAA124004091AG10999AY161061AY251061GF108991081071004501999999KA1240N+01591MA1999999091831MD1999999+0111MW1201REMSYN023333   20159 58011 60044
0096833440999991991060318004-14950-040883FM-12+0905SBQV V0201401N00411220001CN0200001N9+02181+01371999999ADDAA106000091AG10999GF103991021021012501001091MA1999999091551MD1999999+0041REMSYN011333   58004
0115833440999991991060400004-14950-040883FM-12+0905SBQV V0200901N00261220001CN9999999N9+01621+01371101811ADDAA106000091AG10999GF100991001001999999001001KA1240M+02211MA1999999091731MD1999999+0021REMSYN017333   10221 58002
0115833440999991991060412004-14950-040883FM-12+0905SBQV V0200901N00261004201CN0100001N9+01751+01591101841ADDAA106000091AG10999GF106991061061004501001001KA1240N+01421MA1999999091751MD1999999-0081REMSYN017333   20142 59008
0096833440999991991060418004-14950-040883FM-12+0905SBQV V0200901N00261045001CN0200001N9+02131+01571999999ADDAA106000091AG10999GF106991031081004501031001MA1999999091441MD1999999-0111REMSYN011333   59011
0143833440999991991060500004-14950-040883FM-12+0905SBQV V0200501N00261012001CN9999999N9+01581+01501101691ADDAA106000391AG10999AY151061AY221061GF107991071001012501021001KA1240M+02241MA1999999091611MD1999999-0121MW1511REMSYN023333   10224 59012 69931
0154833440999991991060512004-14950-040883FM-12+0905SBQV V0200901N00361045001CN0200001N9+01801+01391101701ADDAA124000491AA299000591AG10999AY161061AY221061GF106991031011012501061001KA1240N+01471MA1999999091631MD1999999-0121MW1021REMSYN023333   20147 59012 69944
0096833440999991991060518004-14950-040883FM-12+0905SBQV V0200901N00311045001CN0100001N9+02071+01471999999ADDAA106000091AG10999GF108991041071004501011999MA1999999091361MD1999999-0081REMSYN011333   59008
0115833440999991991060600004-14950-040883FM-12+0905SBQV V0200501N00311220001CN9999999N9+01701+01461101571ADDAA106000091AG10999GF102991021041012501001001KA1240M+02271MA1999999091531MD1999999-0081REMSYN017333   10227 59008
0115833440999991991060612004-14950-040883FM-12+0905SBQV V0200901N00311004201CN0100001N9+01891+01571101751ADDAA106000091AG10999GF107991071061004501001001KA1240N+01481MA1999999091701MD1999999+0071REMSYN017333   20148 58007
0096833440999991991060618004-14950-040883FM-12+0905SBQV V0200501N00311045001CN0100001N9+02361+01591999999ADDAA106000091AG10999GF106991041021004501021001MA1999999091411MD1999999+0051REMSYN011333   58005
0115833440999991991060700004-14950-040883FM-12+0905SBQV V0200901N00211012001CN9999999N9+01841+01721101721ADDAA106000091AG10999GF108991081001012501021999KA1240M+02401MA1999999091681MD1999999+0151REMSYN017333   10240 58015
0134833440999991991060712004-14950-040883FM-12+0905SBQV V0200901N00361045001CN0200001N9+01991+01661101851ADDAA106000091AG10999GF107991041071004501011001KA1240N+99999MA1999999091811MD1999999+0111REMSYN017333   20240 58011EQDQ01 +02402ATMN  
0096833440999991991060718004-14950-040883FM-12+0905SBQV V0200901N00311045001CN0100001N9+02241+01711999999ADDAA106000091AG10999GF108991041071004501021999MA1999999091551MD1999999+0141REMSYN011333   58014
0115833440999991991060800004-14950-040883FM-12+0905SBQV V0200901N00211004201CN9999999N9+01841+01691101811ADDAA106000091AG10999GF105991051051004501001001KA1240M+02401MA1999999091771MD1999999+0091REMSYN017333   10240 58009
0115833440999991991060812004-14950-040883FM-12+0905SBQV V0201401N00261045001CN0100001N9+01881+01691101871ADDAA106000091AG10999GF106991031041004501061001KA1240N+01751MA1999999091801MD1999999-0011REMSYN017333   20175 59001
0096833440999991991060818004-14950-040883FM-12+0905SBQV V0200901N00411220001CN0200001N9+02391+01381999999ADDAA106000091AG10999GF104991021011004501061001MA1999999091501MD1999999-0051REMSYN011333   59005
0115833440999991991060900004-14950-040883FM-12+0905SBQV V0200901N00311220001CN9999999N9+01841+01721101741ADDAA106000091AG10999GF104991041061004501001001KA1240M+02461MA1999999091701MD1999999-0071REMSYN017333   10246 59007
0115833440999991991060912004-14950-040883FM-12+0905SBQV V0201401N00261045001CN0100001N9+01861+01621101761ADDAA106000091AG10999GF108991041071004501021999KA1240N+01671MA1999999091721MD1999999-0081REMSYN017333   20167 59008
0096833440999991991060918004-14950-040883FM-12+0905SBQV V0200901N00261220001CN0200001N9+02331+01441999999ADDAA106000091AG10999GF103991031011004501001001MA1999999091481MD1999999-0021REMSYN011333   59002
0115833440999991991061000004-14950-040883FM-12+0905SBQV V0200901N00211220001CN9999999N9+01821+01671101811ADDAA106000091AG10999GF102991021011004501001001KA1240M+02421MA1999999091761MD1999999+0061REMSYN017333   10242 58006
0115833440999991991061012004-14950-040883FM-12+0905SBQV V0201401N00361004201CN0040001N9+01801+01531102051ADDAA106000091AG10999GF108991081071004501999999KA1240N+01631MA1999999091961MD1999999+0221REMSYN017333   20163 58022
0096833440999991991061018004-14950-040883FM-12+0905SBQV V0201401N00261004201CN0100001N9+01821+01581999999ADDAA106000091AG10999GF107991071071004501001001MA1999999091681MD1999999+0201REMSYN011333   58020
0132833440999991991061112004-14950-040883FM-12+0905SBQV V0201401N00361105001CN0200001N9+01601+01351101001ADDAA124000691AA299000591AG10999GF107991021021012501001051KA1240N+01281MA1999999090971MD1999999+0011REMSYN023333   20128 58001 69964
0096833440999991991061118004-14950-040883FM-12+0905SBQV V0200901N00311045001CN0100001N9+01951+01331999999ADDAA106000091AG10999GF108991041071004501021999MA1999999091671MD1999999-0011REMSYN011333   59001
0115833440999991991061200004-14950-040883FM-12+0905SBQV V0201401N00151004201CN9999999N9+01661+01551101931ADDAA106000091AG10999GF108991081071004501999999KA1240M+02081MA1999999091831MD1999999-0081REMSYN017333   10208 59008
0115833440999991991061212004-14950-040883FM-12+0905SBQV V0201401N00151004201CN0040001N9+01641+01421102001ADDAA106000091AG10999GF108991081001004501021999KA1240N+01511MA1999999091891MD1999999-0091REMSYN017333   20151 59009
0096833440999991991061218004-14950-040883FM-12+0905SBQV V0201401N00211220001CN0200001N9+01981+01401999999ADDAA106000091AG10999GF104991041021004501001001MA1999999091521MD1999999-0151REMSYN011333   59015
0115833440999991991061300004-14950-040883FM-12+0905SBQV V0200901N00101220001CN9999999N9+01581+01421101771ADDAA106000091AG10999GF102991021011004501001001KA1240M+02041MA1999999091671MD1999999-0161REMSYN017333   10204 59016
0115833440999991991061312004-14950-040883FM-12+0905SBQV V0201401N00261045001CN0200001N9+01851+01471101851ADDAA106000091AG10999GF106991021041008001031091KA1240N+01521MA1999999091761MD1999999-0131REMSYN017333   20152 59013
0096833440999991991061318004-14950-040883FM-12+0905SBQV V0201401N00411105001CN0200001N9+02311+01531999999ADDAA106000091AG10999GF106991021041008001001031MA1999999091431MD1999999-0091REMSYN011333   59009
0115833440999991991061412004-14950-040883FM-12+0905SBQV V0201401N00211045001CN0200001N9+01911+01531101841ADDAA106000091AG10999GF105991021021004501041001KA1240N+01621MA1999999091771MD1999999+0011REMSYN017333   20162 58001
0096833440999991991061418004-14950-040883FM-12+0905SBQV V0201401N00311045001CN0200001N9+02181+01611999999ADDAA106000091AG10999GF107991041071004501021001MA1999999091461MD1999999+0031REMSYN011333   58003
0115833440999991991061500004-14950-040883FM-12+0905SBQV V0200901N00211220001CN9999999N9+01681+01571101681ADDAA106000091AG10999GF100991001001999999001001KA1240M+02261MA1999999091601MD1999999-0041REMSYN017333   10226 59004
0115833440999991991061512004-14950-040883FM-12+0905SBQV V0201401N00261045001CN0100001N9+01781+01581101851ADDAA106000091AG10999GF108991041071004501021999KA1240N+01431MA1999999091771MD1999999+0001REMSYN017333   20143 58000
0154833440999991991061612004-14950-040883FM-12+0905SBQV V0201401N00261004201CN0040001N9+01821+01701101711ADDAA124000891AA299001091AG10999AY151061AY221061GF108991081071004501999999KA1240N+01671MA1999999091661MD1999999-0111MW1021REMSYN023333   20167 59011 69984
0096833440999991991061618004-14950-040883FM-12+0905SBQV V0201401N00311045001CN0100001N9+02131+01761999999ADDAA106000091AG10999GF108991041071004501011999MA1999999091461MD1999999-0091REMSYN011333   59009
0115833440999991991061700004-14950-040883FM-12+0905SBQV V0200901N00211220001CN9999999N9+01771+01611101681ADDAA106000091AG10999GF104991041061004501001001KA1240M+02221MA1999999091641MD1999999+0021REMSYN017333   10222 58002
0115833440999991991061712004-14950-040883FM-12+0905SBQV V0200901N00211004201CN0200001N9+01851+01641101711ADDAA106000091AG10999GF107991071071004501001001KA1240N+01611MA1999999091661MD1999999+0001REMSYN017333   20161 58000
0096833440999991991061718004-14950-040883FM-12+0905SBQV V0200901N00151220001CN0200001N9+02461+01351999999ADDAA106000091AG10999GF100991001001999999001001MA1999999091321MD1999999-0141REMSYN011333   59014
0115833440999991991061800004-14950-040883FM-12+0905SBQV V0200901N00311220001CN9999999N9+01821+01471101521ADDAA106000091AG10999GF100991001001999999001001KA1240M+02511MA1999999091501MD1999999-0141REMSYN017333   10251 59014
0115833440999991991061812004-14950-040883FM-12+0905SBQV V0200901N00211220001CN0200001N9+01881+01591101691ADDAA106000091AG10999GF103991031021004501001001KA1240N+01531MA1999999091651MD1999999-0011REMSYN017333   20153 59001
0096833440999991991061818004-14950-040883FM-12+0905SBQV V0200901N00361220001CN0200001N9+02451+01251999999ADDAA106000091AG10999GF104991021011004501001091MA1999999091371MD1999999+0051REMSYN011333   58005
0115833440999991991061900004-14950-040883FM-12+0905SBQV V0200901N00151220001CN9999999N9+01721+01501101601ADDAA106000091AG10999GF100991001001999999001001KA1240M+02561MA1999999091561MD1999999+0061REMSYN017333   10256 58006
0143833440999991991061912004-14950-040883FM-12+0905SBQV V0200901N00211004201CN0040001N9+01841+01761101741ADDAA124001091AG19037AY161061AY251061GF108991051071004501041041KA1240N+01591MA1999999091691MD1999999+0041MW1501REMSYN023333   20159 58004 60014
0135833440999991991061918004-14950-040883FM-12+0905SBQV V0200501N00311004201CN0100001N9+02071+01761999999ADDAA106000891AA299001091AG10999AY161061AY251061GF108991081071004501999999MA1999999091441MD1999999+0071MW1211REMSYN017333   58007 69981
0115833440999991991062000004-14950-040883FM-12+0905SBQV V0200901N00151220001CN9999999N9+01731+01631101781ADDAA106000091AG10999GF104991041081008001001001KA1240M+02181MA1999999091721MD1999999+0161REMSYN017333   10218 58016
0115833440999991991062012004-14950-040883FM-12+0905SBQV V0200501N00261045001CN0100001N9+01791+01531101901ADDAA106000091AG10999GF107991041061008001071001KA1240N+01401MA1999999091821MD1999999+0131REMSYN017333   20140 58013
0096833440999991991062018004-14950-040883FM-12+0905SBQV V0200901N00361220001CN0200001N9+02511+01491999999ADDAA106000091AG10999GF103991031011004501001001MA1999999091411MD1999999-0031REMSYN011333   59003
0115833440999991991062100004-14950-040883FM-12+0905SBQV V0200901N00261220001CN9999999N9+01841+01711101691ADDAA106000091AG10999GF102991021021008001081001KA1240M+02661MA1999999091641MD1999999-0081REMSYN017333   10266 59008
0143833440999991991062112004-14950-040883FM-12+0905SBQV V0203601N00311045001CN0200001N9+02011+01701101721ADDAA124001091AG10999AY161061AY221061GF106991041051012501041001KA1240N+01691MA1999999091701MD1999999-0121MW1021REMSYN023333   20169 59012 60014
0096833440999991991062118004-14950-040883FM-12+0905SBQV V0200501N00361105001CN0200001N9+02371+01561999999ADDAA106000091AG10999GF105991041011017501001091MA1999999091471MD1999999+0061REMSYN011333   58006
0115833440999991991062200004-14950-040883FM-12+0905SBQV V0200901N00211220001CN9999999N9+01771+01651101731ADDAA106000091AG10999GF103991031041008001001001KA1240M+02461MA1999999091701MD1999999+0061REMSYN017333   10246 58006
0115833440999991991062212004-14950-040883FM-12+0905SBQV V0200501N00211004201CN0100001N9+01941+01611101841ADDAA106000091AG10999GF107991071051004501001001KA1240N+01501MA1999999091791MD1999999+0091REMSYN017333   20150 58009
0096833440999991991062218004-14950-040883FM-12+0905SBQV V0200501N00211045001CN0200001N9+02441+01481999999ADDAA106000091AG10999GF106991031021004501021001MA1999999091531MD1999999+0061REMSYN011333   58006
0115833440999991991062300004-14950-040883FM-12+0905SBQV V0200501N00311220001CN9999999N9+01741+01521101781ADDAA106000091AG10999GF100991001001999999001001KA1240M+02561MA1999999091741MD1999999+0041REMSYN017333   10256 58004
0115833440999991991062312004-14950-040883FM-12+0905SBQV V0200501N00261045001CN0200001N9+01941+01401101931ADDAA106000091AG10999GF106991041051004501061001KA1240N+01411MA1999999091861MD1999999+0071REMSYN017333   20141 58007
0115833440999991991062400004-14950-040883FM-12+0905SBQV V0200501N00151220001CN9999999N9+01691+01331101871ADDAA106000091AG10999GF100991001001999999001001KA1240M+02351MA1999999091801MD1999999+0061REMSYN017333   10235 58006
0115833440999991991062412004-14950-040883FM-12+0905SBQV V0201401N00261220001CN0100001N9+01841+01431101971ADDAA106000091AG10999GF104991041021004501001001KA1240N+01271MA1999999091881MD1999999+0021REMSYN017333   20127 58002
0096833440999991991062418004-14950-040883FM-12+0905SBQV V0201401N00261004201CN0100001N9+02061+01491999999ADDAA106000091AG10999GF108991081051004501999999MA1999999091621MD1999999+0001REMSYN011333   58000
0143833440999991991062500004-14950-040883FM-12+0905SBQV V0201401N00151004201CN0040001N9+01661+01611101991ADDAA124000191AG10999AY151061AY251061GF108991081071004501999999KA1240N+01511MA1999999091881MD1999999+0001MW1501REMSYN023333   20151 58000 69914
0143833440999991991062512004-14950-040883FM-12+0905SBQV V0201401N00151004201CN0040001N9+01661+01611101991ADDAA124000191AG10999AY151061AY251061GF108991081071004501999999KA1240N+01511MA1999999091881MD1999999+0001MW1501REMSYN023333   20151 58000 69914
0096833440999991991062518004-14950-040883FM-12+0905SBQV V0200901N00311045001CN0100001N9+02051+01361999999ADDAA106000091AG10999GF108991041071004501011999MA1999999091551MD1999999-0071REMSYN011333   59007
