0115834980999991991010100004-17733-039250FM-12+000399999V0201401N00361045001CN9999999N9+02481+02051101631ADDAA106000091AG10999GF107991031021008001071001KA1240M+02681MA1999999101581MD1999999-0031REMSYN017333   10268 59003
0101834980999991991010112004-17733-039250FM-12+000399999V0201401N00461045001CN0200001N9+99999+99999101561ADDAA106000091AG10999GF106991031011008001061001KA1240N+02401MA1999999101511REMSYN017333   20240 49007
0062834980999991991010118004-17733-039250FM-12+000399999V0201801N00461045001CN0200001N9+02681+01941101351ADDAA106000091AG10999GF107991021021008001051091MA1999999101301
0154834980999991991010212004-17733-039250FM-12+000399999V0202301N00051045001CN0100001N9+02641+02271101421ADDAA124000491AA299000591AG10999AY161061AY221061GF107991041021008001051091KA1240N+02211MA1999999101371MD1999999-0141MW1211REMSYN023333   20221 59014 69944
0115834980999991991010300004-17733-039250FM-12+000399999V0200501N00261220001CN9999999N9+02401+02311101261ADDAA106000091AG10999GF104991021021008001041001KA1240M+02781MA1999999101211MD1999999-0241REMSYN017333   10278 59024
0121834980999991991010312004-17733-039250FM-12+000399999V0203601N00411220001CN0200001N9+02821+02271101281ADDAA124000391AG10999GF104991021011008001041001KA1240N+02181MA1999999101231MD1999999-0141REMSYN023333   20218 59014 69934
0096834980999991991010318004-17733-039250FM-12+000399999V0200501N00511105001CN0200001N9+03001+02271100971ADDAA106000091AG10999GF105991011021008001001021MA1999999100921MD1999999-0101REMSYN011333   59010
0115834980999991991010412004-17733-039250FM-12+000399999V0203601N00621007501CN0200001N9+02801+02341101191ADDAA106000091AG10999GF107991061021008001001081KA1240N+02331MA1999999101141MD1999999-0091REMSYN017333   20233 59009
0096834980999991991010418004-17733-039250FM-12+000399999V0200501N00621045001CN0200001N9+02901+02371100881ADDAA106000091AG10999GF107991021011008001071031MA1999999100831MD1999999-0091REMSYN011333   59009
0062834980999991991010512004-17733-039250FM-12+000399999V0203301N03081045001CN0100001N9+02821+02421101231ADDAA106000091AG10999GF108991021051008001011999MA1999999101181
0127834980999991991010518004-17733-039250FM-12+000399999V0200901N00261045001CN0040001N9+02601+02551101001ADDAA106000491AA299000591AG10999AY161061GF108991021091008001021031MA1999999100951MD1999999+0121MW1991REMSYN017333   58012 69941
0143834980999991991010612004-17733-039250FM-12+000399999V0201801N00211007501CN0040001N9+02501+02431101281ADDAA124007091AG10999AY161061AY261061GF108991071071008001021999KA1240N+02421MA1999999101231MD1999999+0051MW1611REMSYN023333   20242 58005 60074
0115834980999991991010700004-17733-039250FM-12+000399999V0203201N00151045001CN9999999N9+02321+02161101281ADDAA106000091AG10999GF106991031061008001061001KA1240M+02681MA1999999101231MD1999999+0181REMSYN017333   10268 58018
0124834980999991991010718004-17733-039250FM-12+000399999V0201801N00211045001CN0100001N9+02741+02341101171ADDAA106023091AG10999AY161061AY221061GF107991041071008001071081MA1999999101121MD1999999+0051MW1641REMSYN017333   58005 60231
0115834980999991991010800004-17733-039250FM-12+000399999V0200901N00101105001CN9999999N9+02441+02421101431ADDAA106000091AG10999GF106991021071008001001081KA1240M+02791MA1999999101381MD1999999+0151REMSYN017333   10279 58015
0143834980999991991010812004-17733-039250FM-12+000399999V0202701N00051007501CN0040001N9+02601+02311101551ADDAA106028091AG10999AY161061AY261061GF108991051071008001071061KA1240N+02301MA1999999101561MD1999999+0181MW1631REMSYN023333   20230 58018 60281
0117834980999991991010818004-17733-039250FM-12+000399999V0201401N00311045001CN0100001N9+02761+02301101421ADDAA106008091AY161061AY221061GF107991031071008001071061MA1999999101371MD1999999+0251MW1631REMSYN017333   58025 60081
0115834980999991991010900004-17733-039250FM-12+000399999V0201801N00151220001CN9999999N9+02441+02351101541ADDAA106000091AG10999GF102991021011008001001001KA1240M+02791MA1999999101491MD1999999+0111REMSYN017333   10279 58011
0121834980999991991010912004-17733-039250FM-12+000399999V0202301N00311045001CN0100001N9+02421+02301101571ADDAA124008091AG10999GF107991031051008001011011KA1240N+02231MA1999999101521MD1999999+0021REMSYN023333   20223 58002 60084
0062834980999991991010918004-17733-039250FM-12+000399999V0201401N00211045001CN0100001N9+02841+02311101271ADDAA106000091AG10999GF107991021081008001091081MA1999999101221
0115834980999991991011000004-17733-039250FM-12+000399999V0200901N00151220001CN9999999N9+02581+02371101461ADDAA106000091AG10999GF100991001001999999001001KA1240M+02901MA1999999101411MD1999999-0081REMSYN017333   10290 59008
0143834980999991991011012004-17733-039250FM-12+000399999V0202701N00211007501CN0200001N9+02741+02471101331ADDAA124005091AG10999AY161061AY221061GF107991051071008001031091KA1240N+02381MA1999999101281MD1999999-0241MW1631REMSYN023333   20238 59024 60054
0135834980999991991011018004-17733-039250FM-12+000399999V0200501N00361105001CN0200001N9+02841+02241101071ADDAA106000291AA299000391AG10999AY191061AY261061GF106991021091008001091031MA1999999101021MD1999999-0201MW1291REMSYN017333   59020 69921
0115834980999991991011100004-17733-039250FM-12+000399999V0203601N00411220001CN9999999N9+02581+02531101131ADDAA106000091AG10999GF103991021011008001001011KA1240M+02911MA1999999101081MD1999999-0331REMSYN017333   10291 59033
0132834980999991991011112004-17733-039250FM-12+000399999V0203601N00511045001CN0100001N9+02801+02311101111ADDAA124000291AA299000391AG10999GF108991031051008001051081KA1240N+02391MA1999999101061MD1999999-0221REMSYN023333   20239 59022 69924
0124834980999991991011118004-17733-039250FM-12+000399999V0200501N00261045001CN0100001N9+02621+02411100831ADDAA124011091AG10999AY191061AY261061GF108991021081008001021061MA1999999100781MD1999999-0241MW1291REMSYN017333   59024 60114
0115834980999991991011200004-17733-039250FM-12+000399999V0203601N00311220001CN9999999N9+02601+02311101021ADDAA106000091AG10999GF100991001001999999001001KA1240M+02941MA1999999100971MD1999999-0111REMSYN017333   10294 59011
0121834980999991991011212004-17733-039250FM-12+000399999V0203601N00211045001CN0100001N9+02701+02371101051ADDAA124011091AG10999GF108991021081008001071071KA1240N+02401MA1999999101001MD1999999-0061REMSYN023333   20240 59006 60114
0124834980999991991011218004-17733-039250FM-12+000399999V0200501N00311045001CN0040001N9+02281+02231100921ADDAA106021091AG10999AY191061AY261061GF108991031071008001021071MA1999999100871MD1999999+0091MW1611REMSYN017333   58009 60211
0154834980999991991011300004-17733-039250FM-12+000399999V0203601N00211045001CN9999999N9+02521+02451101031ADDAA106000691AA299000591AG10999AY161061AY221061GF108991031071008001021999KA1240M+02821MA1999999100981MD1999999+0011MW1211REMSYN023333   10282 58001 69961
0124834980999991991011318004-17733-039250FM-12+000399999V0203601N00311007501CN0040001N9+02601+02501100961ADDAA106002091AG10999AY161061AY261061GF108991061071008001021999MA1999999100911MD1999999+0041MW1611REMSYN017333   58004 60021
0143834980999991991011400004-17733-039250FM-12+000399999V0203601N00411045001CN9999999N9+02521+02431101131ADDAA106002091AG10999AY161061AY221061GF106991031071008001011001KA1240M+02921MA1999999101081MD1999999+0101MW1211REMSYN023333   10292 58010 60021
0121834980999991991011412004-17733-039250FM-12+000399999V0203601N00411045001CN9999999N9+02521+02431101131ADDAA106002091AG19043GF106991031071008001011001KA1240M+02921MA1999999101081MD1999999+0101REMSYN023333   10292 58010 60021
0096834980999991991011418004-17733-039250FM-12+000399999V0200501N00621045001CN0200001N9+02801+02341100871ADDAA106000091AG10999GF107991011011008001051031MA1999999100821MD1999999-0091REMSYN011333   59009
0117834980999991991011421004-17733-039250FM-12+000399999V0200901N00311220001CN0040001N9+02501+02151100691ADDAA106000091AG10999AY101031AY201031GF102991021041008001001001MA1999999100641MD1810101+9999MW1101EQDQ01+999990APOSLP
0115834980999991991011500004-17733-039250FM-12+000399999V0203601N00151220001CN9999999N9+02601+02401101111ADDAA106000091AG10999GF103991031011008001001001KA1240M+03001MA1999999101061MD1999999-0021REMSYN017333   10300 59002
0096834980999991991011518004-17733-039250FM-12+000399999V0200501N00311045001CN0100001N9+02801+02521100871ADDAA106000091AG10999GF108991021081008001051071MA1999999100821MD1999999+0001REMSYN011333   58000
0115834980999991991011600004-17733-039250FM-12+000399999V0200501N00361220001CN9999999N9+02601+02501101111ADDAA106000091AG10999GF103991011011008001001011KA1240M+02851MA1999999101061MD1999999+0001REMSYN017333   10285 58000
0115834980999991991011612004-17733-039250FM-12+000399999V0203601N00571045001CN0100001N9+99999+99999101231ADDAA106000091AG10999GF108991041021008001061071KA1240N+02501MA1999999101181MD1999999+0111REMSYN017333   20250 58011
0131834980999991991011700004-17733-039250FM-12+000399999V0200501N004119999999N9999999N9+02621+02411101161ADDAA106000091AG10999GA1091+999999999GF109991091999999999999999KA1240M+02941MA1999999101111MD1999999+0051REMSYN017333   10294 58005
0115834980999991991011712004-17733-039250FM-12+000399999V0200501N00511045001CN0200001N9+02761+02361101151ADDAA106000091AG10999GF108991021011008001021061KA1240N+02421MA1999999101101MD1999999-0081REMSYN017333   20242 59008
0096834980999991991011718004-17733-039250FM-12+000399999V0200501N00621045001CN0200001N9+02821+02401100991ADDAA106000091AG10999GF107991011021008001031021MA1999999100941MD1999999-0011REMSYN011333   59001
0096834980999991991011719004-17733-039250FM-12+000399999V0200501N00621045001CN0200001N9+02821+02401100991ADDAA106000091AG10999GF107991011021008001031021MA1999999100941MD1999999-0011REMSYN011333   59001
0115834980999991991011812004-17733-039250FM-12+000399999V0200501N00461045001CN0200001N9+02761+02381101471ADDAA106000091AG10999GF107991041021008001051081KA1240N+02481MA1999999101421MD1999999+0321REMSYN017333   20248 58032
0096834980999991991011818004-17733-039250FM-12+000399999V0200501N00361105001CN0200001N9+02921+02361101391ADDAA106000091AG10999GF107991011011008001001021MA1999999101341MD1999999+0401REMSYN011333   58040
0062834980999991991011912004-17733-039250FM-12+000399999V0201401N00311007501CN0200001N9+02861+02371101751ADDAA106000091AG10999GF107991061021008001001061MA1999999101701
0096834980999991991011918004-17733-039250FM-12+000399999V0201401N00411105001CN0200001N9+02881+02371101581ADDAA106000091AG10999GF106991031021008001001021MA1999999101531MD1999999+0191REMSYN011333   58019
0115834980999991991012000004-17733-039250FM-12+000399999V0200901N00311220001CN9999999N9+02581+02271101701ADDAA106000091AG10999GF102991011021008001001051KA1240M+02971MA1999999101651MD1999999+0051REMSYN017333   10297 58005
0143834980999991991012012004-17733-039250FM-12+000399999V0200901N00261007501CN0200001N9+02841+02331101621ADDAA124000191AG10999AY161061AY211061GF105991051021008001001001KA1240N+02401MA1999999101571MD1999999-0131MW1211REMSYN023333   20240 59013 69914
0096834980999991991012018004-17733-039250FM-12+000399999V0201401N00311045001CN0200001N9+02801+02311101371ADDAA106000091AG10999GF105991041021008001061001MA1999999101321MD1999999-0211REMSYN011333   59021
0154834980999991991012112004-17733-039250FM-12+000399999V0200501N00051007501CN0200001N9+02701+02431101481ADDAA124000891AA299001091AG10999AY161061AY221061GF107991061021008001071001KA1240N+02271MA1999999101431MD1999999-0141MW1211REMSYN023333   20227 59014 69984
0096834980999991991012118004-17733-039250FM-12+000399999V0200501N00311220001CN0200001N9+02921+02121101311ADDAA106000091AG10999GF103991011021008001071021MA1999999101261MD1999999-0061REMSYN011333   59006
0115834980999991991012200004-17733-039250FM-12+000399999V0200901N00101220001CN9999999N9+02431+02301101421ADDAA106000091AG10999GF100991001001999999001001KA1240M+03001MA1999999101371MD1999999+0041REMSYN017333   10300 58004
0115834980999991991012212004-17733-039250FM-12+000399999V0200501N00211007501CN0200001N9+02851+02311101411ADDAA106000091AG10999GF107991071021008001001001KA1240N+02201MA1999999101361MD1999999-0071REMSYN017333   20220 59007
0096834980999991991012218004-17733-039250FM-12+000399999V0200501N00411220001CN0200001N9+02931+02191101181ADDAA106000091AG10999GF101991011011008001001001MA1999999101131MD1999999-0131REMSYN011333   59013
0115834980999991991012300004-17733-039250FM-12+000399999V0200501N00151220001CN9999999N9+02491+02301101281ADDAA106000091AG10999GF100991001001999999001001KA1240M+03021MA1999999101231MD1999999-0141REMSYN017333   10302 59014
0115834980999991991012312004-17733-039250FM-12+000399999V0200501N00261007501CN0200001N9+02881+02351101501ADDAA106000091AG10999GF107991061021008001001051KA1240N+02321MA1999999101451MD1999999+0091REMSYN017333   20232 58009
0096834980999991991012318004-17733-039250FM-12+000399999V0200501N00621105001CN0200001N9+02881+02321101281ADDAA106000091AG10999GF107991011021008001001021MA1999999101231MD1999999+0101REMSYN011333   58010
0102834980999991991012400004-17733-039250FM-12+000399999V0200501N00211220001CN9999999N9+02541+02381101431ADDAA106000091AG10999GF106991001001999999001081MA1999999101381MD1999999+0151REMSYN017333   1036/ 58015
0115834980999991991012412004-17733-039250FM-12+000399999V0200501N00361007501CN0200001N9+02841+02331101521ADDAA106000091AG10999GF106991051021008001001091KA1240N+02301MA1999999101471MD1999999+0021REMSYN017333   20230 58002
0096834980999991991012418004-17733-039250FM-12+000399999V0200501N00461220001CN0200001N9+02961+02231101161ADDAA106000091AG10999GF105991011021008001001061MA1999999101111MD1999999-0121REMSYN011333   59012
0115834980999991991012500004-17733-039250FM-12+000399999V0200501N00261105001CN9999999N9+02591+02371101321ADDAA106000091AG10999GF106991031001017501051021KA1240M+03061MA1999999101271MD1999999-0111REMSYN017333   10306 59011
0115834980999991991012512004-17733-039250FM-12+000399999V0203601N00511105001CN0200001N9+02921+02361101331ADDAA106000091AG10999GF107991041011008001001091KA1240N+02441MA1999999101281MD1999999-0191REMSYN017333   20244 59019
0096834980999991991012518004-17733-039250FM-12+000399999V0200501N00621105001CN0200001N9+03001+02391101001ADDAA106000091AG10999GF106991011021008001001021MA1999999100951MD1999999-0161REMSYN011333   59016
0115834980999991991012612004-17733-039250FM-12+000399999V0203601N00721012001CN0200001N9+02841+02381101281ADDAA106000091AG10999GF107991051081008001031091KA1240N+02501MA1999999101231MD1999999-0051REMSYN017333   20250 59005
0096834980999991991012618004-17733-039250FM-12+000399999V0200501N00821105001CN0200001N9+02941+02331100931ADDAA106000091AG10999GF107991011011008001001021MA1999999100881MD1999999-0071REMSYN011333   59007
0115834980999991991012712004-17733-039250FM-12+000399999V0203601N00821007501CN0200001N9+02881+02351101331ADDAA106000091AG10999GF107991061021008001001011KA1240N+02441MA1999999101281MD1999999+0051REMSYN017333   20244 58005
0096834980999991991012718004-17733-039250FM-12+000399999V0200501N00871220001CN0200001N9+02961+02421101091ADDAA106000091AG10999GF104991011021008001001061MA1999999101041MD1999999+0161REMSYN011333   58016
0115834980999991991012800004-17733-039250FM-12+000399999V0203601N00361220001CN9999999N9+02621+02441101321ADDAA106000091AG10999GF100991001001999999001001KA1240M+03011MA1999999101271MD1999999+0121REMSYN017333   10301 58012
0115834980999991991012812004-17733-039250FM-12+000399999V0203601N00571007501CN0200001N9+02841+02351101551ADDAA106000091AG10999GF107991061021008001001011KA1240N+02441MA1999999101501MD1999999+0221REMSYN017333   20244 58022
0115834980999991991012912004-17733-039250FM-12+000399999V0200501N00461007501CN0200001N9+02901+02341101391ADDAA106000091AG10999GF106991051021008001001081KA1240N+02431MA1999999101341MD1999999-0161REMSYN017333   20243 59016
0115834980999991991013000004-17733-039250FM-12+000399999V0200501N00211220001CN9999999N9+02461+02321101251ADDAA106000091AG10999GF106991001001999999001061KA1240M+03111MA1999999101201MD1999999-0101REMSYN017333   10311 59010
0115834980999991991013012004-17733-039250FM-12+000399999V0200501N00361045001CN0200001N9+02841+02311101351ADDAA106000091AG10999GF107991041021008001051091KA1240N+02251MA1999999101301MD1999999-0041REMSYN017333   20225 59004
0096834980999991991013018004-17733-039250FM-12+000399999V0200501N00511045001CN0200001N9+02801+02311101031ADDAA106000091AG10999GF107991011021008001031031MA1999999100981MD1999999-0021REMSYN011333   59002
0115834980999991991013100004-17733-039250FM-12+000399999V0200501N00311220001CN9999999N9+02521+02341101171ADDAA106000091AG10999GF102991011041008001051001KA1240M+02961MA1999999101121MD1999999-0081REMSYN017333   10296 59008
0115834980999991991013112004-17733-039250FM-12+000399999V0203601N00511007501CN0200001N9+02881+02281101371ADDAA106000091AG10999GF106991061021008001001001KA1240N+02301MA1999999101321MD1999999+0021REMSYN017333   20230 58002
0096834980999991991013118004-17733-039250FM-12+000399999V0200501N00571220001CN0200001N9+02941+02261101101ADDAA106000091AG10999GF101991011011008001001001MA1999999101051MD1999999+0071REMSYN011333   58007
0115834980999991991020112004-17733-039250FM-12+000399999V0200501N00411220001CN0200001N9+02871+02091101381ADDAA106000091AG10999GF103991031011008001001001KA1240N+02181MA1999999101331MD1999999+0011REMSYN017333   20218 58001
0098834980999991991020118004-17733-039250FM-12+000399999V0200901N00311220001CN0040001N9+02661+02071100991ADDAA106000091AG10999AY101061AY201061GF102991011021008001001041MA1999999100621MD1110071+9999MW1051
0115834980999991991020300004-17733-039250FM-12+000399999V0200901N00211220001CN9999999N9+02521+02341101481ADDAA106000091AG10999GF101991011081008001001001KA1240M+03031MA1999999101431MD1999999+0051REMSYN017333   10303 58005
0136834980999991991020312004-17733-039250FM-12+000399999V0202701N00211045001CN0200001N9+02701+02241101481ADDAA124011091AY161061AY261061GF106991031021008001031031KA1240N+02281MA1999999101431MD1999999-0071MW1631REMSYN023333   20228 59007 60114
0143834980999991991020412004-17733-039250FM-12+000399999V0209991C00001045001CN0100001N9+02561+02441101571ADDAA124004091AG10999AY161061AY261061GF107991041071008001071061KA1240N+02411MA1999999101521MD1999999+0091MW1631REMSYN023333   20241 58009 60044
0096834980999991991020418004-17733-039250FM-12+000399999V0200901N00311045001CN0200001N9+02841+02221101351ADDAA106000091AG10999GF107991021021008001051031MA1999999101301MD1999999+0101REMSYN011333   58010
0154834980999991991020500004-17733-039250FM-12+000399999V0200501N00101220001CN9999999N9+02411+02311101571ADDAA106000491AA299000591AG10999AY161061AY261061GF102991021061008001001001KA1240M+02981MA1999999101521MD1999999+0201MW1621REMSYN023333   10298 58020 69941
0154834980999991991020512004-17733-039250FM-12+000399999V0203201N00151045001CN0200001N9+02501+02321101601ADDAA124000491AA299000591AG10999AY161061AY261061GF107991031071008001051031KA1240N+02301MA1999999101551MD1999999+0031MW1611REMSYN023333   20230 58003 69944
0121834980999991991020612004-17733-039250FM-12+000399999V0201801N00101007501CN0200001N9+02701+02391101531ADDAA124002091AG10999GF107991061021008001001081KA1240N+02061MA1999999101481MD1999999-0071REMSYN023333   20206 59007 60024
0124834980999991991020618004-17733-039250FM-12+000399999V0200501N00411045001CN0200001N9+02901+02371101271ADDAA106003091AG10999AY161061AY221061GF107991021021008001071021MA1999999101221MD1999999-0051MW1211REMSYN017333   59005 60031
0115834980999991991020700004-17733-039250FM-12+000399999V0200501N00151007501CN9999999N9+02521+02341101381ADDAA106000091AG10999GF107991051021008001001081KA1240M+03021MA1999999101331MD1999999-0011REMSYN017333   10302 59001
0121834980999991991020712004-17733-039250FM-12+000399999V0200501N00211007501CN0200001N9+02781+02461101511ADDAA124003091AG10999GF107991051071008001021091KA1240N+02261MA1999999101461MD1999999-0021REMSYN023333   20226 59002 60034
0124834980999991991020718004-17733-039250FM-12+000399999V0200501N00511045001CN0200001N9+02881+02301101351ADDAA106002091AG10999AY161061AY221061GF107991031021008001051021MA1999999101301MD1999999+0081MW1211REMSYN017333   58008 60021
0124834980999991991020818004-17733-039250FM-12+000399999V0203601N00311045001CN0100001N9+02741+02381101281ADDAA106022091AG10999AY191061AY261061GF107991011011008001071031MA1999999101231MD1999999-0071MW1211REMSYN017333   59007 60221
0143834980999991991020912004-17733-039250FM-12+000399999V0203601N00211045001CN0100001N9+02721+02471101491ADDAA124022091AG10999AY161061AY261061GF107991031071008001071061KA1240N+02281MA1999999101441MD1999999-0121MW1611REMSYN023333   20228 59012 60224
0132834980999991991021012004-17733-039250FM-12+000399999V0203601N00461007501CN0200001N9+02821+02381101371ADDAA124000691AA299000591AG10999GF106991061021008001001001KA1240N+02411MA1999999101321MD1999999-0121REMSYN023333   20241 59012 69964
0096834980999991991021018004-17733-039250FM-12+000399999V0200501N00511105001CN0200001N9+02961+02231101051ADDAA106000091AG10999GF107991011011008001001021MA1999999101001MD1999999-0101REMSYN011333   59010
0121834980999991991021100004-17733-039250FM-12+000399999V0200501N00261220001CN9999999N9+02581+02401101271ADDAA106000091AG10999GF101991001001999999001031KA1240M+03081MA1999999101221MD1999999-0051MW1131REMSYN017333   10308 59005
0115834980999991991021112004-17733-039250FM-12+000399999V0203601N00411105001CN0200001N9+02901+02341101331ADDAA106000091AG10999GF107991031011008001001061KA1240N+02421MA1999999101281MD1999999-0041REMSYN017333   20242 59004
0096834980999991991021118004-17733-039250FM-12+000399999V0200501N00621220001CN0200001N9+03031+02291101051ADDAA106000091AG10999GF102991011011008001001031MA1999999101001MD1999999+0001REMSYN011333   58000
0115834980999991991021212004-17733-039250FM-12+000399999V0203601N00511105001CN0200001N9+02941+02401101131ADDAA106000091AG10999GF107991041011008001001021KA1240N+02451MA1999999101081MD1999999-0201REMSYN017333   20245 59020
0096834980999991991021218004-17733-039250FM-12+000399999V0200501N00511105001CN0200001N9+02981+02401100761ADDAA106000091AG10999GF105991011031008001001031MA1999999100711MD1999999-0291REMSYN011333   59029
0137834980999991991021300004-17733-039250FM-12+000399999V0203601N00311220001CN9999999N9+02641+02501100911ADDAA106000091AG10999AY191061AY201061GF102991001001999999001031MA1999999100861MD1999999-0271MW1171REMSYN011333   59027EQDQ01+000952SCOLCB
0115834980999991991021312004-17733-039250FM-12+000399999V0203601N00571105001CN0200001N9+02961+02381100891ADDAA106000091AG10999GF107991021011008001001081KA1240N+02491MA1999999100841MD1999999-0241REMSYN017333   20249 59024
0096834980999991991021318004-17733-039250FM-12+000399999V0200501N00621105001CN0200001N9+02961+02451100571ADDAA106000091AG10999GF107991011031008001001031MA1999999100521MD1999999-0191REMSYN011333   59019
0143834980999991991021412004-17733-039250FM-12+000399999V0202701N00261045001CN0040001N9+02401+02301101071ADDAA124009091AG10999AY191061AY261061GF108991041071008001021999KA1240N+02301MA1999999101021MD1999999+0181MW1621REMSYN023333   20230 58018 60094
0096834980999991991021418004-17733-039250FM-12+000399999V0200501N00051045001CN0100001N9+02581+02381101051ADDAA106000091AG10999GF108991011071008001021999MA1999999101001MD1999999+0121REMSYN011333   58012
0115834980999991991021500004-17733-039250FM-12+000399999V0202301N00151220001CN9999999N9+02561+02421101241ADDAA106000091AG10999GF102991021081008001001001KA1240M+02711MA1999999101191MD1999999+0511REMSYN017333   10271 58051
0115834980999991991021512004-17733-039250FM-12+000399999V0202301N00101045001CN0200001N9+02731+02431101561ADDAA106000091AG10999GF107991031081008001051011KA1240N+02331MA1999999101511MD1999999+0491REMSYN017333   20233 58049
0096834980999991991021518004-17733-039250FM-12+000399999V0200901N00261105001CN0200001N9+02951+02491101271ADDAA106000091AG10999GF107991011011008001001061MA1999999101221MD1999999+0221REMSYN011333   58022
0115834980999991991021612004-17733-039250FM-12+000399999V0200501N00311220001CN0200001N9+02941+02521101511ADDAA106000091AG10999GF104991011011008001051011KA1240N+02451MA1999999101461MD1999999-0051REMSYN017333   20245 59005
0096834980999991991021618004-17733-039250FM-12+000399999V0200501N00511220001CN0200001N9+03041+02521101181ADDAA106000091AG10999GF104991021011008001001011MA1999999101131MD1999999-0091REMSYN011333   59009
0115834980999991991021712004-17733-039250FM-12+000399999V0200501N00311045001CN0100001N9+02741+02451101291ADDAA106000091AG10999GF107991031051008001011001KA1240N+02361MA1999999101241MD1999999-0221REMSYN017333   20236 59022
0096834980999991991021718004-17733-039250FM-12+000399999V0200501N00361220001CN0200001N9+03041+02361101031ADDAA106000091AG10999GF102991011011008001001011MA1999999100981MD1999999-0151REMSYN011333   59015
0143834980999991991021812004-17733-039250FM-12+000399999V0200501N00261220001CN0200001N9+02821+02331101231ADDAA124000191AG10999AY161061AY211061GF104991031021008001001011KA1240N+02291MA1999999101181MD1999999-0061MW1211REMSYN023333   20229 59006 69914
0096834980999991991021818004-17733-039250FM-12+000399999V0200701N00361220001CN0200001N9+03001+02271100831ADDAA106000091AG10999GF102991021011008001001001MA1999999100781MD1999999-0201REMSYN011333   59020
0115834980999991991021900004-17733-039250FM-12+000399999V0200501N00101220001CN9999999N9+02601+02331100971ADDAA106000091AG10999GF100991001001999999001001KA1240M+03081MA1999999100921MD1999999-0101REMSYN017333   10308 59010
0115834980999991991021912004-17733-039250FM-12+000399999V0200501N00461045001CN0200001N9+02881+02351101111ADDAA106000091AG10999GF108991031011008001041021KA1240N+02341MA1999999101061MD1999999-0121REMSYN017333   20234 59012
0096834980999991991021918004-17733-039250FM-12+000399999V0200501N00411105001CN0200001N9+02941+02521100831ADDAA106000091AG10999GF107991011011008001001021MA1999999100781MD1999999+0001REMSYN011333   58000
0115834980999991991022012004-17733-039250FM-12+000399999V0202701N00211045001CN0100001N9+02701+02521101331ADDAA106000091AG10999GF108991031051008001011999KA1240N+02501MA1999999101281MD1999999+0221REMSYN017333   20250 58022
0124834980999991991022018004-17733-039250FM-12+000399999V0201801N00361045001CN0100001N9+02661+02411101231ADDAA106002091AG10999AY161061AY221061GF108991021051008001011999MA1999999101181MD1999999+0401MW1211REMSYN017333   58040 60021
0115834980999991991022100004-17733-039250FM-12+000399999V0201801N00261045001CN9999999N9+02601+02401101431ADDAA106000091AG10999GF106991021021008001011001KA1240M+02741MA1999999101381MD1999999+0411REMSYN017333   10274 58041
0143834980999991991022112004-17733-039250FM-12+000399999V0202301N001519999999N0040001N9+02581+02511101521ADDAA124041091AG10999AY161061AY221061GF108991999999008001999999KA1240N+02311MA1999999101471MD1999999+0191MW1211REMSYN023333   20231 58019 60414
0134834980999991991022200004-17733-039250FM-12+000399999V0201401N00261220001CN9999999N9+02661+02391101501ADDAA106000091AG10999GF102991021011008001001001KA1240M+02811MA1999999999999MD1999999+0071REMSYN017333   10281 58007EQDQ01 081553APOSP 
0143834980999991991022212004-17733-039250FM-12+000399999V0202301N00261007501CN0040001N9+02421+02371101551ADDAA124038091AG10999AY161061AY261061GF108991051071008001021999KA1240N+02331MA1999999101501MD1999999+0031MW1921REMSYN023333   20233 58003 60384
0124834980999991991022218004-17733-039250FM-12+000399999V0201801N00411045001CN0200001N9+02861+02501101241ADDAA106012091AG10999AY161061AY221061GF105991041021008001041001MA1999999101191MD1999999-0041MW1211REMSYN017333   59004 60121
0121834980999991991022312004-17733-039250FM-12+000399999V0203601N00361220001CN0200001N9+02921+02431101471ADDAA124012091AG10999GF103991031011008001001001KA1240N+02381MA1999999101421MD1999999-0081REMSYN023333   20238 59008 60124
0096834980999991991022318004-17733-039250FM-12+000399999V0200501N00621220001CN0200001N9+02981+02441101201ADDAA106000091AG10999GF102991011011008001001011MA1999999101151MD1999999-0041REMSYN011333   59004
0124834980999991991022418004-17733-039250FM-12+000399999V0201801N00461007501CN0040001N9+02421+02251101581ADDAA106011091AG10999AY161061AY221061GF108991051071008001021999MA1999999101531MD1999999+0381MW1921REMSYN017333   58038 60111
0143834980999991991022512004-17733-039250FM-12+000399999V0202301N00211045001CN0040001N9+02381+02291101731ADDAA124012091AG10999AY161061AY221061GF108991041071008001021999KA1240N+02291MA1999999101681MD1999999-0081MW1211REMSYN023333   20229 59008 60124
0124834980999991991022518004-17733-039250FM-12+000399999V0201801N00461045001CN0040001N9+02441+02391101591ADDAA106005091AG10999AY161061AY221061GF108991031071008001021999MA1999999101541MD1999999-0021MW1911REMSYN017333   59002 60051
0143834980999991991022612004-17733-039250FM-12+000399999V0202301N00101007501CN0040001N9+02521+02381101551ADDAA124007091AG10999AY161061AY221061GF108991051071008001021999KA1240N+02241MA1999999101501MD1999999-0181MW1211REMSYN023333   20224 59018 60074
0124834980999991991022618004-17733-039250FM-12+000399999V0201401N00211045001CN0040001N9+02481+02341101391ADDAA106043091AG10999AY161061AY261061GF108991021071008001021999MA1999999101341MD1999999-0201MW1211REMSYN017333   59020 60431
0143834980999991991022712004-17733-039250FM-12+000399999V0202701N00151045001CN0040001N9+02561+02481101641ADDAA124046091AG10999AY161061AY261061GF108991031071008001021999KA1240N+02201MA1999999101591MD1999999+0091MW1211REMSYN023333   20220 58009 60464
0124834980999991991022718004-17733-039250FM-12+000399999V0200901N00361007501CN0040001N9+02541+02491101381ADDAA106000191AG10999AY161061AY261061GF108991051071008001021999MA1999999101331MD1999999-0011MW1211REMSYN017333   59001 69911
0143834980999991991022800004-17733-039250FM-12+000399999V0209991C00001105001CN9999999N9+02601+02461101731ADDAA106000191AG10999AY161061AY221061GF105991021011008001001021KA1240M+02741MA1999999101681MD1999999+0151MW1211REMSYN023333   10274 58015 69911
0143834980999991991022812004-17733-039250FM-12+000399999V0200501N00311220001CN0200001N9+02881+02481101681ADDAA124006091AG10999AY161061AY211061GF104991021011008001041001KA1240N+02291MA1999999101631MD1999999+0041MW1211REMSYN023333   20229 58004 60064
0096834980999991991022818004-17733-039250FM-12+000399999V0200901N00211045001CN0200001N9+02801+02461101471ADDAA106000091AG10999GF107991031021008001041021MA1999999101421MD1999999+0091REMSYN011333   58009
0115834980999991991030100004-17733-039250FM-12+000399999V0201401N00311105001CN9999999N9+02621+02441101591ADDAA106000091AG10999GF105991021021008001001021KA1240M+02961MA1999999101541MD1999999-0141REMSYN017333   10296 59014
0143834980999991991030112004-17733-039250FM-12+000399999V0201401N00101045001CN0100001N9+02681+02521101531ADDAA124002091AG10999AY161061AY221061GF107991021011008001011001KA1240N+02331MA1999999101481MD1999999-0151MW1211REMSYN023333   20233 59015 60024
0096834980999991991030118004-17733-039250FM-12+000399999V0201401N00361045001CN0200001N9+02901+02431101291ADDAA106000091AG10999GF105991021021008001041001MA1999999101241MD1999999-0181REMSYN011333   59018
0115834980999991991030200004-17733-039250FM-12+000399999V0200501N001019999999N9999999N9+02521+02431101431ADDAA106000091AG10999GF106991031001008001031021KA1240M+02961MA1999999101381MD1999999-0161REMSYN017333   10296 59016
0154834980999991991030212004-17733-039250FM-12+000399999V0200501N00261220001CN0200001N9+02741+02381101471ADDAA124000791AA299001091AG10999AY161061AY211061GF102991021011008001001001KA1240N+02291MA1999999101421MD1999999-0061MW1011REMSYN023333   20229 59006 69974
0096834980999991991030218004-17733-039250FM-12+000399999V0200901N00211220001CN0200001N9+02901+02431101231ADDAA106000091AG10999GF104991011011008001041001MA1999999101181MD1999999-0061REMSYN011333   59006
0115834980999991991030312004-17733-039250FM-12+000399999V0200501N00261045001CN0200001N9+02781+02461101391ADDAA106000091AG10999GF105991021011008001041001KA1240N+02281MA1999999101341MD1999999-0081REMSYN017333   20228 59008
0096834980999991991030318004-17733-039250FM-12+000399999V0200501N00411220001CN0200001N9+02901+02481101141ADDAA106000091AG10999GF102991021011008001001001MA1999999101091MD1999999-0091REMSYN011333   59009
0115834980999991991030400004-17733-039250FM-12+000399999V0200501N00101220001CN9999999N9+02521+02381101401ADDAA106000091AG10999GF100991001001999999001001KA1240M+02981MA1999999101351MD1999999+0111REMSYN017333   10298 58011
0143834980999991991030412004-17733-039250FM-12+000399999V0202301N00211045001CN0100001N9+02581+02441101511ADDAA124013091AG10999AY191061AY261061GF107991041031008001011001KA1240N+02281MA1999999101461MD1999999+0121MW1951REMSYN023333   20228 58012 60134
0096834980999991991030418004-17733-039250FM-12+000399999V0200501N00411105001CN0200001N9+02941+02521101301ADDAA106000091AG10999GF105991021011008001041011MA1999999101251MD1999999+0161REMSYN011333   58016
0143834980999991991030512004-17733-039250FM-12+000399999V0200501N00311045001CN0100001N9+02821+02361101541ADDAA124003091AG10999AY161061AY221061GF108991031041008001011999KA1240N+02341MA1999999101491MD1999999+0031MW1211REMSYN023333   20234 58003 60034
0135834980999991991030518004-17733-039250FM-12+000399999V0203201N00151045001CN0100001N9+02601+02421101451ADDAA106000491AA299000591AG10999AY161061AY261061GF107991031041008001011001MA1999999101401MD1999999+0151MW1211REMSYN017333   58015 69941
0143834980999991991030600004-17733-039250FM-12+000399999V0201801N00101220001CN9999999N9+02461+02411101571ADDAA106000391AG10999AY161061AY261061GF102991021041008001001001KA1240M+02951MA1999999101521MD1999999+0071MW1211REMSYN023333   10295 58007 69931
0143834980999991991030612004-17733-039250FM-12+000399999V0200501N00211045001CN0200001N9+02861+02501101641ADDAA124018091AG10999AY161061AY221061GF107991041021008001041001KA1240N+02331MA1999999101591MD1999999+0101MW1211REMSYN023333   20233 58010 60184
0135834980999991991030618004-17733-039250FM-12+000399999V0200901N00411045001CN0200001N9+02941+02401101401ADDAA106000291AA299000391AG10999AY161061AY221061GF105991031021008001041001MA1999999101351MD1999999-0051MW1211REMSYN017333   59005 69921
0115834980999991991030700004-17733-039250FM-12+000399999V0200901N00361220001CN9999999N9+02521+02341101411ADDAA106000091AG10999GF100991001001999999001001KA1240M+03021MA1999999101361MD1999999-0161REMSYN017333   10302 59016
0132834980999991991030712004-17733-039250FM-12+000399999V0200901N00411045001CN0200001N9+02861+02461101431ADDAA124000291AA299000391AG10999GF106991021041008001051001KA1240N+02521MA1999999101381MD1999999-0211REMSYN023333   20252 59021 69924
0121834980999991991030812004-17733-039250FM-12+000399999V0201801N00151045001CN0100001N9+02501+02361101601ADDAA124047091AG10999GF107991031071008001011021KA1240N+02191MA1999999101551MD1999999+0171REMSYN023333   20219 58017 60474
0096834980999991991030818004-17733-039250FM-12+000399999V0201401N00261045001CN0100001N9+02821+02421101381ADDAA106000091AG10999GF108991021041008001041011MA1999999101331MD1999999-0011REMSYN011333   59001
0115834980999991991030912004-17733-039250FM-12+000399999V0201801N00151045001CN0100001N9+02741+02541101671ADDAA106000091AG10999GF106991031041008001011001KA1240N+02291MA1999999101621MD1999999+0071REMSYN017333   20229 58007
0096834980999991991030918004-17733-039250FM-12+000399999V0200901N00211045001CN0200001N9+02901+02521101421ADDAA106000091AG10999GF105991021011008001041001MA1999999101371MD1999999+0041REMSYN011333   58004
0154834980999991991031012004-17733-039250FM-12+000399999V0202301N00051045001CN0100001N9+02681+02521101651ADDAA124000691AA299000591AG10999AY161061AY221061GF107991031041008001041001KA1240N+02321MA1999999101601MD1999999-0021MW1211REMSYN023333   20232 59002 69964
0096834980999991991031018004-17733-039250FM-12+000399999V0200901N00411045001CN0200001N9+02941+02521101371ADDAA106000091AG10999GF106991021011008001041011MA1999999101321MD1999999-0051REMSYN011333   59005
0154834980999991991031112004-17733-039250FM-12+000399999V0202701N00151045001CN0200001N9+02681+02431101551ADDAA124000291AA299000391AG10999AY161061AY221061GF105991021021008001041001KA1240N+02341MA1999999101501MD1999999-0101MW1211REMSYN023333   20234 59010 69924
0115834980999991991031200004-17733-039250FM-12+000399999V0200501N00101220001CN9999999N9+02451+02431101301ADDAA106000091AG10999GF102991021051008001001001KA1240M+03031MA1999999101251MD1999999-0251REMSYN017333   10303 59025
0121834980999991991031212004-17733-039250FM-12+000399999V0203201N00211045001CN0200001N9+02761+02501101341ADDAA124018091AG10999GF106991031021008001041001KA1240N+02321MA1999999101291MD1999999-0211REMSYN023333   20232 59021 60184
0115834980999991991031300004-17733-039250FM-12+000399999V0200501N00211220001CN9999999N9+02501+02371101021ADDAA106000091AG10999GF100991001001999999001001KA1240M+03051MA1999999100971MD1999999-0281REMSYN017333   10305 59028
0115834980999991991031312004-17733-039250FM-12+000399999V0203601N00461045001CN0200001N9+02801+02401101111ADDAA106000091AG10999GF106991031051008001061001KA1240N+02261MA1999999101061MD1999999-0231REMSYN017333   20226 59023
0096834980999991991031318004-17733-039250FM-12+000399999V0200501N00511220001CN0200001N9+02901+02411100761ADDAA106000091AG10999GF104991021011008001041001MA1999999100711MD1999999-0181REMSYN011333   59018
0115834980999991991031412004-17733-039250FM-12+000399999V0203601N00361045001CN0100001N9+02621+02411100831ADDAA106000091AG10999GF108991031041008001011999KA1240N+02411MA1999999100781MD1999999-0281REMSYN017333   20241 59028
0096834980999991991031418004-17733-039250FM-12+000399999V0203601N00411220001CN0200001N9+02961+02521100481ADDAA106000091AG10999GF104991011011008001001021MA1999999100431MD1999999-0271REMSYN011333   59027
0115834980999991991031500004-17733-039250FM-12+000399999V0203601N00461220001CN9999999N9+02701+02521100611ADDAA106000091AG10999GF106991031091008001001011KA1240M+03071MA1999999100561MD1999999-0241REMSYN017333   10307 59024
0115834980999991991031508004-17733-039250FM-12+000399999V0203601N00461220001CN9999999N9+02701+02521100611ADDAA106000091AG10999GF106991031091008001001011KA1240M+03071MA1999999100561MD1999999-0241REMSYN017333   10307 59024
0143834980999991991031512004-17733-039250FM-12+000399999V0203601N00311045001CN0040001N9+02441+02391100981ADDAA124023091AG10999AY161061AY261061GF108991041071008001021999KA1240N+02281MA1999999100931MD1999999+0151MW1211REMSYN023333   20228 58015 60234
0124834980999991991031518004-17733-039250FM-12+000399999V0201801N00511045001CN0100001N9+02781+02341100821ADDAA106002091AG10999AY161061AY261061GF108991021051008001031001MA1999999100771MD1999999+0341MW1211REMSYN017333   58034 60021
0143834980999991991031612004-17733-039250FM-12+000399999V0201801N00621045001CN0100001N9+02561+02421101251ADDAA124013091AG10999AY161061AY221061GF108991031051008001051091KA1240N+02341MA1999999101201MD1999999+0061MW1211REMSYN023333   20234 58006 60134
0124834980999991991031618004-17733-039250FM-12+000399999V0201801N00671045001CN0200001N9+02761+02301101001ADDAA106002091AG10999AY161061AY221061GF105991021011008001041001MA1999999100951MD1999999+0181MW1211REMSYN017333   58018 60021
0115834980999991991031700004-17733-039250FM-12+000399999V0201801N00411220001CN9999999N9+02581+02331101111ADDAA106000091AG10999GF102991021011008001001001KA1240M+02791MA1999999101061MD1999999+0141REMSYN017333   10279 58014
0143834980999991991031712004-17733-039250FM-12+000399999V0202301N00261045001CN0100001N9+02601+02351101101ADDAA124003091AG10999AY161061AY221061GF105991031041008001011001KA1240N+02111MA1999999101141MD1999999+0061MW1211REMSYN023333   20211 58006 60034
0096834980999991991031718004-17733-039250FM-12+000399999V0201401N00411045001CN0100001N9+02741+02341101051ADDAA106000091AG10999GF106991021011008001011001MA1999999101001MD1999999+0051REMSYN011333   58005
0115834980999991991031800004-17733-039250FM-12+000399999V0201401N00101220001CN9999999N9+02561+02381101111ADDAA106000091AG10999GF103991011011008001001011KA1240M+02841MA1999999101061MD1999999+0001REMSYN017333   10284 58000
0115834980999991991031812004-17733-039250FM-12+000399999V0202301N00101045001CN0100001N9+02661+02411101331ADDAA106000091AG10999GF106991021041008001011001KA1240N+02321MA1999999101281MD1999999+0141REMSYN017333   20232 58014
0115834980999991991031900004-17733-039250FM-12+000399999V0200501N00051045001CN9999999N9+02561+02511101231ADDAA106000091AG10999GF108991021041008001011999KA1240M+02901MA1999999101181MD1999999+0121REMSYN017333   10290 58012
0143834980999991991031912004-17733-039250FM-12+000399999V0203601N00261007501CN0200001N9+02821+02521101411ADDAA124002091AG10999AY161061AY221061GF106991051021008001001021KA1240N+02371MA1999999101361MD1999999+0061MW1211REMSYN023333   20237 58006 60024
0121834980999991991032000004-17733-039250FM-12+000399999V0203601N00211045001CN9999999N9+02641+02481101391ADDAA106000091AG10999GF107991021031008001021031KA1240M+03071MA1999999101341MD1999999+0161MW1131REMSYN017333   10307 58016
0115834980999991991032012004-17733-039250FM-12+000399999V0203601N00211045001CN0100001N9+02681+02521101331ADDAA106000091AG10999GF108991031041008001011999KA1240N+02431MA1999999101281MD1999999-0081REMSYN017333   20243 59008
0102834980999991991032018004-17733-039250FM-12+000399999V0200501N00361045001CN0200001N9+03001+02551101061ADDAA106000091AG10999GF105991031031008001041001MA1999999101011MD1999999-0031MW1171REMSYN011333   59003
0115834980999991991032100004-17733-039250FM-12+000399999V0200501N00151220001CN9999999N9+02661+02521101291ADDAA106000091AG10999GF104991021011008001041001KA1240M+03061MA1999999101241MD1999999-0101REMSYN017333   10306 59010
0115834980999991991032112004-17733-039250FM-12+000399999V0200501N00511007501CN0200001N9+02881+02481101251ADDAA106000091AG10999GF107991051021008001071061KA1240N+02461MA1999999101201MD1999999-0081REMSYN017333   20246 59008
0102834980999991991032118004-17733-039250FM-12+000399999V0203601N00461045001CN0100001N9+02781+02481100881ADDAA106000091AG10999GF106991021031008001011001MA1999999100831MD1999999-0181MW1171REMSYN011333   59018
0115834980999991991032200004-17733-039250FM-12+000399999V0203601N00361045001CN9999999N9+02641+02481101011ADDAA106000091AG10999GF105991041021008001011001KA1240M+03041MA1999999100961MD1999999-0281REMSYN017333   10304 59028
0115834980999991991032212004-17733-039250FM-12+000399999V0203601N00411045001CN0100001N9+02681+02481101011ADDAA106000091AG10999GF108991031071008001071061KA1240N+02401MA1999999100961MD1999999-0241REMSYN017333   20240 59024
0096834980999991991032218004-17733-039250FM-12+000399999V0200501N00361045001CN0100001N9+02801+02311100751ADDAA106000091AG10999GF108991011021008001071061MA1999999100701MD1999999-0131REMSYN011333   59013
0102834980999991991032312004-17733-039250FM-12+000399999V0200501N00311007501CN0100001N9+02801+02441101051ADDAA106000091AG10999GF108991051021008001061061MA1999999101001MD1999999+0041REMSYN017333   2242/ 58004
0115834980999991991032412004-17733-039250FM-12+000399999V0200501N00361105001CN0000001N9+02841+02441101131ADDAA106000091AG10999GF106991041021008001001021KA1240N+02441MA1999999101081MD1999999+0081REMSYN017333   20244 58008
0096834980999991991032418004-17733-039250FM-12+000399999V02099999999999999999N0200001N9+99999+99999101061ADDAA106000091AG10999GF199999021011008001041011MA1999999101011MD1999999+0291REMSYN011333   58029
0115834980999991991032500004-17733-039250FM-12+000399999V0200501N00151220001CN9999999N9+02621+02481101251ADDAA106000091AG10999GF104991011011008001001011KA1240M+03031MA1999999101201MD1999999+0221REMSYN017333   10303 58022
0115834980999991991032512004-17733-039250FM-12+000399999V0200501N00461007501CN0200001N9+02821+02461101481ADDAA106000091AG10999GF107991061021008001001061KA1240N+02391MA1999999101431MD1999999+0351REMSYN017333   20239 58035
0096834980999991991032518004-17733-039250FM-12+000399999V0200501N00511045001CN0200001N9+02901+02321101251ADDAA106000091AG10999GF107991031011008001031091MA1999999101201MD1999999+0191REMSYN011333   58019
0115834980999991991032600004-17733-039250FM-12+000399999V0209991C00001220001CN9999999N9+02521+02431101381ADDAA106000091AG10999GF102991011061008001001051KA1240M+03001MA1999999101331MD1999999+0131REMSYN017333   10300 58013
0096834980999991991032618004-17733-039250FM-12+000399999V0200501N00311220001CN0200001N9+02921+02341101141ADDAA106000091AG10999GF103991021011008001041001MA1999999101091MD1999999-0111REMSYN011333   59011
0134834980999991991032700004-17733-039250FM-12+000399999V0200501N00101220001CN9999999N9+02441+02391101201ADDAA106000091AG10999GF102991001001999999001011KA1240M+03081MA1999999101151MD1999999-0181REMSYN017333   10308 59018EQDQ01+000022SCOTLC
0154834980999991991032712004-17733-039250FM-12+000399999V0209991C00001007501CN0200001N9+02701+02521101351ADDAA124000791AA299001091AG10999AY161061AY221061GF107991051021008001051091KA1240N+02291MA1999999101301MD1999999-0021MW1211REMSYN023333   20229 59002 69974
0096834980999991991032718004-17733-039250FM-12+000399999V0201401N00311007501CN0200001N9+02861+02391100981ADDAA106000091AG10999GF106991061021008001001001MA1999999100931MD1999999-0161REMSYN011333   59016
0115834980999991991032800004-17733-039250FM-12+000399999V0200501N00261045001CN9999999N9+02661+02391101211ADDAA106000091AG10999GF107991041021008001051081KA1240M+02991MA1999999101161MD1999999+0011REMSYN017333   10299 58001
0115834980999991991032812004-17733-039250FM-12+000399999V0202701N00261220001CN0200001N9+02661+02391101171ADDAA106000091AG10999GF104991031021008001041001KA1240N+02271MA1999999101121MD1999999-0181REMSYN017333   20227 59018
0096834980999991991032818004-17733-039250FM-12+000399999V0201401N00311045001CN0200001N9+02901+02371100881ADDAA106000091AG10999GF106991031011008001051001MA1999999100831MD1999999-0101REMSYN011333   59010
0143834980999991991032912004-17733-039250FM-12+000399999V0202301N00051007501CN0200001N9+02701+02451101271ADDAA124001091AG10999AY161061AY221061GF107991071021008001001001KA1240N+02261MA1999999101221MD1999999+0101MW1211REMSYN023333   20226 58010 60014
0124834980999991991032918004-17733-039250FM-12+000399999V0201401N00051045001CN0200001N9+02821+02481101001ADDAA106005091AG10999AY161061AY221061GF107991011011008001051091MA1999999100951MD1999999+0121MW1211REMSYN017333   58012 60051
0115834980999991991033000004-17733-039250FM-12+000399999V0209991C00001220001CN9999999N9+02461+02391101261ADDAA106000091AG10999GF104991031011008001001051KA1240M+02921MA1999999101211MD1999999+0171REMSYN017333   10292 58017
0121834980999991991033012004-17733-039250FM-12+000399999V0203601N00211045001CN0200001N9+02741+02451101461ADDAA124005091AG10999GF106991041021008001041001KA1240N+02281MA1999999101411MD1999999+0191REMSYN023333   20228 58019 60054
0124834980999991991033018004-17733-039250FM-12+000399999V0200501N00311045001CN0200001N9+02921+02521101211ADDAA106000191AG10999AY161061AY221061GF106991031021008001041001MA1999999101161MD1999999+0211MW1211REMSYN017333   58021 69911
0121834980999991991033112004-17733-039250FM-12+000399999V0203601N00211007501CN0200001N9+02821+02501101541ADDAA124000191AG10999GF107991061021008001051001KA1240N+02321MA1999999101491MD1999999+0081REMSYN023333   20232 58008 69914
0096834980999991991033118004-17733-039250FM-12+000399999V0200501N00311220001CN0200001N9+02981+02421101171ADDAA106000091AG10999GF103991011011008001001021MA1999999101121MD1999999-0041REMSYN011333   59004
0115834980999991991040100004-17733-039250FM-12+000399999V0200501N00151220001CN9999999N9+02461+02341101261ADDAA106000091AG10999GF102991011011008001001051KA1240M+03071MA1999999101211MD1999999-0111REMSYN017333   10307 59011
0115834980999991991040112004-17733-039250FM-12+000399999V0203601N00311220001CN0200001N9+02821+02361101291ADDAA106000091AG10999GF103991031011008001001001KA1240N+02221MA1999999101241MD1999999-0251REMSYN017333   20222 59025
0096834980999991991040118004-17733-039250FM-12+000399999V0200501N00411105001CN0200001N9+03001+02321100951ADDAA106000091AG10999GF105991011011008001001021MA1999999100901MD1999999-0221REMSYN011333   59022
0115834980999991991040200004-17733-039250FM-12+000399999V0200501N00151220001CN9999999N9+02521+02431101061ADDAA106000091AG10999GF102991021011008001001001KA1240M+03121MA1999999101011MD1999999-0201REMSYN017333   10312 59020
0115834980999991991040212004-17733-039250FM-12+000399999V0200501N00311105001CN0200001N9+02901+02481101391ADDAA106000091AG10999GF107991011011008001001061KA1240N+02341MA1999999101341MD1999999+0101REMSYN017333   20234 58010
0143834980999991991040312004-17733-039250FM-12+000399999V0201801N00411045001CN9999999N9+02481+02381101721ADDAA124028091AG10999AY161061AY261061GF108991031071008001021999KA1240N+02361MA1999999101671MD1999999+0331MW1961REMSYN023333   20236 58033 60284
0124834980999991991040318004-17733-039250FM-12+000399999V0201401N00511007501CN0040001N9+99999+99999101631ADDAA106014091AG10999AY161061AY261061GF108991051071008001021999MA1999999101581MD1999999+0531MW1921REMSYN017333   58053 60141
0143834980999991991040400004-17733-039250FM-12+000399999V0201401N00311045001CN9999999N9+02621+02421101631ADDAA106003091AG10999AY161061AY221061GF106991041021008001011001KA1240M+02761MA1999999101581MD1999999+0161MW1211REMSYN023333   10276 58016 60031
0143834980999991991040412004-17733-039250FM-12+000399999V0203601N00461007501CN0040001N9+02261+02211101751ADDAA124009091AG10999AY161061AY261061GF108991081071008001999999KA1240N+02201MA1999999101701MD1999999+0031MW1921REMSYN023333   20220 58003 60094
0124834980999991991040418004-17733-039250FM-12+000399999V0201801N00311007501CN0040001N9+02421+02371101501ADDAA106021091AG10999AY161061AY261061GF108991051071008001021999MA1999999101451MD1999999+0131MW1921REMSYN017333   58013 60211
0143834980999991991040500004-17733-039250FM-12+000399999V0201801N00261045001CN9999999N9+02581+02381101591ADDAA106005091AG10999AY161061AY221061GF105991021011008001011001KA1240M+02681MA1999999101541MD1999999-0041MW1211REMSYN023333   10268 59004 60051
0143834980999991991040512004-17733-039250FM-12+000399999V0202301N00261007501CN0100001N9+02501+02431101761ADDAA124027091AG10999AY161061AY261061GF108991051071008001071061KA1240N+02241MA1999999101711MD1999999+0011MW1611REMSYN023333   20224 58001 60274
0132834980999991991040612004-17733-039250FM-12+000399999V0201801N00621007501CN0100001N9+02641+02091101751ADDAA124000291AA299000391AG10999GF108991061071008001071999KA1240N+02281MA1999999101701MD1999999-0011REMSYN023333   20228 59001 69924
0124834980999991991040618004-17733-039250FM-12+000399999V0201801N00571045001CN0100001N9+02661+02021101531ADDAA106002091AG10999AY161061AY221061GF105991021041017501051001MA1999999101481MD1999999+0081MW1211REMSYN017333   58008 60021
0096834980999991991040718004-17733-039250FM-12+000399999V0201401N00511105001CN0200001N9+02661+02201101511ADDAA106000091AG10999GF105991021011008001041011MA1999999101461MD1999999-0021REMSYN011333   59002
0115834980999991991040800004-17733-039250FM-12+000399999V0201401N00261220001CN9999999N9+02461+02231101621ADDAA106000091AG10999GF103991021011008001001011KA1240M+02761MA1999999101571MD1999999-0041REMSYN017333   10276 59004
0115834980999991991040812004-17733-039250FM-12+000399999V0202701N00101220001CN0200001N9+02501+02211101691ADDAA106000091AG10999GF107991011021008001001011KA1240N+01941MA1999999101641MD1999999+0001REMSYN017333   20194 58000
0115834980999991991040900004-17733-039250FM-12+000399999V0200901N00211220001CN9999999N9+02471+02251101591ADDAA106000091AG10999GF101991001001999999001051KA1240M+02821MA1999999101541MD1999999-0031REMSYN017333   10282 59003
0115834980999991991040912004-17733-039250FM-12+000399999V0202301N00151220001CN0200001N9+02641+02351101591ADDAA106000091AG10999GF104991021011008001041001KA1240N+02321MA1999999101541MD1999999-0101REMSYN017333   20232 59010
0096834980999991991040918004-17733-039250FM-12+000399999V0201401N00311220001CN0200001N9+02781+02361101251ADDAA106000091AG10999GF103991011011008001041001MA1999999101201MD1999999-0131REMSYN011333   59013
0115834980999991991041000004-17733-039250FM-12+000399999V0200901N00101220001CN9999999N9+02521+02381101371ADDAA106000091AG10999GF102991021011008001001001KA1240M+02841MA1999999101321MD1999999-0221REMSYN017333   10284 59022
0115834980999991991041012004-17733-039250FM-12+000399999V0202701N00151045001CN0100001N9+02531+02381101491ADDAA106000091AG10999GF107991041071008001021081KA1240N+02171MA1999999101441MD1999999-0101REMSYN017333   20217 59010
0143834980999991991041100004-17733-039250FM-12+000399999V0209991C00001045001CN9999999N9+02321+02251101421ADDAA106021091AG10999AY161061AY221061GF106991041071008001051001KA1240M+02851MA1999999101371MD1999999+0051MW1211REMSYN023333   10285 58005 60211
0123834980999991991041112004-17733-039250FM-12+000399999V0202301N00101045001CN0200001N9+02561+02381101421ADDAA124021091AG10999AY161061AY221061GF107991021011008001051091KA1240N+02261MA1999999101371MW1211REMSYN017333   20226 60214
0135834980999991991041118004-17733-039250FM-12+000399999V0200901N00261045001CN0100001N9+02781+02421101171ADDAA106000491AA299000591AG10999AY161061AY221061GF106991031011008001041001MA1999999101121MD1999999-0121MW1211REMSYN017333   59012 69941
0115834980999991991041200004-17733-039250FM-12+000399999V0209991C00001220001CN9999999N9+02441+02411101341ADDAA106000091AG10999GF101991001001999999001051KA1240M+02911MA1999999101291MD1999999-0081REMSYN017333   10291 59008
0109834980999991991041212004-17733-039250FM-12+000399999V0202301N00051007501CN0100001N9+02661+02461101451ADDAG10999GF107991061021008001001091KA1240N+02261MA1999999101401MD1999999+0031REMSYN022333   20226 58003 6994
0115834980999991991041300004-17733-039250FM-12+000399999V02099999999999999999N9999999N9+02541+02401101271ADDAA106000091AG10999GF199999001001999999001051KA1240M+02921MA1999999101221MD1999999+0071REMSYN017333   10292 58007
0154834980999991991041312004-17733-039250FM-12+000399999V0202701N00151045001CN0200001N9+02681+02481101321ADDAA124000291AA299000391AG10999AY161061AY221061GF107991021011008001031041KA1240N+02301MA1999999101271MD1999999-0131MW1211REMSYN023333   20230 59013 69924
0124834980999991991041318004-17733-039250FM-12+000399999V0200501N00261045001CN0200001N9+02881+02441100931ADDAA106002091AG10999AY161061AY221061GF108991031011008001031041MA1999999100881MD1999999-0161MW1211REMSYN017333   59016 60021
0115834980999991991041400004-17733-039250FM-12+000399999V0200501N00051220001CN9999999N9+02421+02371101211ADDAA106000091AG10999GF100991001001999999001001KA1240M+02961MA1999999101161MD1999999-0061REMSYN017333   10296 59006
0121834980999991991041412004-17733-039250FM-12+000399999V0203601N00211007501CN0200001N9+02781+02481101371ADDAA124002091AG10999GF107991051021008001001061KA1240N+02261MA1999999101321MD1999999+0051REMSYN023333   20226 58005 60024
0115834980999991991041500004-17733-039250FM-12+000399999V0200501N00101220001CN0200001N9+02441+02351101291ADDAA106000091AG10999GF101991011011008001001001KA1240M+03041MA1999999101241MD1999999+0081REMSYN017333   10304 58008
0143834980999991991041512004-17733-039250FM-12+000399999V0202301N00101220001CN0200001N9+02661+02461101551ADDAA124002091AG10999AY161061AY221061GF106991031021008001001061KA1240N+02301MA1999999101501MD1999999+0181MW1631REMSYN023333   20230 58018 60024
0096834980999991991041518004-17733-039250FM-12+000399999V0200901N00211220001CN0200001N9+02901+02501101271ADDAA106000091AG10999GF104991011011008001001021MA1999999101221MD1999999+0241REMSYN011333   58024
0154834980999991991041612004-17733-039250FM-12+000399999V0203201N00151007501CN0200001N9+02581+02381101651ADDAA124000291AA299000391AG10999AY161061AY221061GF107991051071008001051061KA1240N+02341MA1999999101601MD1999999+0101MW1211REMSYN023333   20234 58010 69924
0104834980999991991041618004-17733-039250FM-12+000399999V0201401N00311012001CN0200001N9+02621+01621999999ADDAG10999GF105991051021012501001001MA1999999091202MD1999999+0021REMSYN011333   58002EQDQ01+091203APOSP 
0143834980999991991041712004-17733-039250FM-12+000399999V0202301N00051045001CN0100001N9+02541+02421101381ADDAA124009091AG10999AY161061AY261061GF107991031071008001071061KA1240N+02241MA1999999101331MD1999999-0271MW1631REMSYN023333   20224 59027 60094
0096834980999991991041718004-17733-039250FM-12+000399999V0200901N00311220001CN0200001N9+02781+02341101051ADDAA106000091AG10999GF104991031011008001031001MA1999999101001MD1999999-0281REMSYN011333   59028
0134834980999991991041800004-17733-039250FM-12+000399999V0200201N04732220001CN9999999N9+02421+02351101221ADDAA106000091AG10999GF101991011001017501061001KA1240M+02921MA1999999101171MD1999999-0161REMSYN017333   10292 59016EQDQ01+004733WOSPD 
0134834980999991991041812004-17733-039250FM-12+000399999V0202301N00101007501CN0200001N9+02701+02431999999ADDAA106000091AG10999GF106991061021008001001001KA1240N+02241MA1999999101301MD1999999-0031REMSYN017333   20224 59003EQDQ01 090133APOSLP
0137834980999991991041818004-17733-039250FM-12+000399999V0202301N00511045001CN0040001N9+01831+01101100082ADDAA106999929AG10999AY151061AY221061GF108991021031008001071999MA1999999100511MD1310031+9999MW1051REMSYN011333   69901EQDQ01+100083APOSLP
0134834980999991991041900004-17733-039250FM-12+000399999V0200501N00101220001CN9999999N9+02411+02301101292ADDAA106000091AG10999GF100991001001999999001001KA1240M+03011MA1999999101241MD1999999-0031REMSYN017333   10301 59003EQDQ01+101293APOSLP
0115834980999991991041912004-17733-039250FM-12+000399999V0203601N00211007501CN0200001N9+02761+02441101561ADDAA106000091AG10999GF107991071021008001001001KA1240N+02201MA1999999101511MD1999999+0211REMSYN017333   20220 58021
0096834980999991991041918004-17733-039250FM-12+000399999V0200501N00361220001CN0200001N9+02941+02381101281ADDAA106000091AG10999GF101991011011008001001001MA1999999101231MD1999999+0201REMSYN011333   58020
0115834980999991991042012004-17733-039250FM-12+000399999V0202701N00101007501CN0200001N9+02701+02461101731ADDAA106000091AG10999GF105991051021008001001001KA1240N+02161MA1999999101681MD1999999+0171REMSYN017333   20216 58017
0096834980999991991042018004-17733-039250FM-12+000399999V0201401N00261220001CN0200001N9+02921+02341101611ADDAA106000091AG10999GF102991021011008001001001MA1999999101561MD1999999+0331REMSYN011333   58033
0115834980999991991042100004-17733-039250FM-12+000399999V0201801N00461045001CN9999999N9+02501+02311101851ADDAA106000091AG10999GF106991021011008001031001KA1240M+03041MA1999999101801MD1999999+0331REMSYN017333   10304 58033
0143834980999991991042112004-17733-039250FM-12+000399999V0201801N00411045001CN0040001N9+02421+02211101901ADDAA124019091AG10999AY161061AY261061GF108991041071008001021999KA1240N+02131MA1999999101851MD1999999+0171MW1921REMSYN023333   20213 58017 60194
0124834980999991991042118004-17733-039250FM-12+000399999V0201801N00671045001CN0040001N9+02601+02121101671ADDAA106004091AG10999AY161061AY221061GF108991021071008001021999MA1999999101621MD1999999+0061MW1211REMSYN017333   58006 60041
0123834980999991991042212004-17733-039250FM-12+000399999V0201801N00571007501CN0040001N9+02581+02061101851ADDAA124004091AG10999AY161061AY221061GF108991051071008001021999KA1240N+02091MA1999999101801MW1211REMSYN017333   20209 60044
0124834980999991991042218004-17733-039250FM-12+000399999V0201801N00571007501CN0040001N9+02481+02211101561ADDAA106000191AG10999AY161061AY261061GF108991061071008001021999MA1999999101511MD1999999-0111MW1611REMSYN017333   59011 69911
0143834980999991991042312004-17733-039250FM-12+000399999V0201801N00411045001CN0100001N9+02641+02331101631ADDAA124012091AG10999AY161061AY221061GF106991021021008001071001KA1240N+02271MA1999999101581MD1999999-0221MW1211REMSYN023333   20227 59022 60124
0135834980999991991042318004-17733-039250FM-12+000399999V0201401N00361045001CN0200001N9+02701+02411101391ADDAA106000291AA299000391AG10999AY161061AY221061GF106991021071008001041001MA1999999101341MD1999999-0171MW1211REMSYN017333   59017 69921
0115834980999991991042400004-17733-039250FM-12+000399999V0201801N00261045001CN9999999N9+02401+02351101621ADDAA106000091AG10999GF107991021021008001051091KA1240M+02771MA1999999101571MD1999999-0121REMSYN017333   10277 59012
0132834980999991991042412004-17733-039250FM-12+000399999V0202301N00101220001CN0200001N9+02581+02401101731ADDAA124000291AA299000391AG10999GF102991011011008001001051KA1240N+02201MA1999999101681MD1999999+0101REMSYN023333   20220 58010 69924
0115834980999991991042500004-17733-039250FM-12+000399999V0200901N00101220001CN9999999N9+02381+02331101501ADDAA106000091AG10999GF100991001001999999001001KA1240M+02841MA1999999101451MD1999999-0121REMSYN017333   10284 59012
0143834980999991991042512004-17733-039250FM-12+000399999V0203201N00101045001CN0200001N9+02361+02331101601ADDAA124019091AG19057AY161061AY261061GF108991021071008001021999KA1240N+02211MA1999999101551MD1999999-0131MW1921REMSYN023333   20221 59013 60194
0124834980999991991042518004-17733-039250FM-12+000399999V0200901N00411045001CN0200001N9+02881+02391101321ADDAA106000191AG10999AY161061AY221061GF106991031021008001051051MA1999999101271MD1999999-0031MW1211REMSYN017333   59003 69911
0115834980999991991042600004-17733-039250FM-12+000399999V0200901N00101220001CN9999999N9+02481+02431101571ADDAA106000091AG10999GF102991021011008001001001KA1240M+02941MA1999999101451MD1999999+0001REMSYN017333   10294 58000
0121834980999991991042612004-17733-039250FM-12+000399999V0209991C00001045001CN0100001N9+02661+02521101711ADDAA106000191AG10999GF108991011011008001031071KA1240N+02321MA1999999101661MD1999999+0011REMSYN023333   20232 58001 69911
0096834980999991991042618004-17733-039250FM-12+000399999V0200501N00311045001CN0100001N9+02781+02401101301ADDAA106000091AG10999GF108991011011008001021071MA1999999101251MD1999999-0071REMSYN011333   59007
0115834980999991991042712004-17733-039250FM-12+000399999V0200501N00151105001CN0100001N9+02621+02441101521ADDAA106000091AG10999GF108991031051008001001081KA1240N+02261MA1999999101471MD1999999-0091REMSYN017333   20226 59009
0115834980999991991042800004-17733-039250FM-12+000399999V0200501N00151045001CN9999999N9+02421+02351101311ADDAA106000091AG10999GF108991021011008001071081KA1240M+02881MA1999999101261MD1999999-0101REMSYN017333   10288 59010
0115834980999991991042812004-17733-039250FM-12+000399999V0203601N00151015001CN0200001N9+02541+02411101391ADDAA106000091AG10999GF107991051001017501051011KA1240N+02211MA1999999101341MD1999999-0131REMSYN017333   20221 59013
0115834980999991991042900004-17733-039250FM-12+000399999V0200501N00151220001CN9999999N9+02481+02411101211ADDAA106000091AG10999GF104991011011008001041001KA1240M+03021MA1999999101161MD1999999-0101REMSYN017333   10302 59010
0115834980999991991042912004-17733-039250FM-12+000399999V0203601N00311220001CN0200001N9+02721+02411101281ADDAA106000091AG10999GF104991021011008001051001KA1240N+02331MA1999999101231MD1999999-0111REMSYN017333   20233 59011
0115834980999991991042918004-17733-039250FM-12+000399999V0200501N00311220001CN0200001N9+02921+02411101091ADDAA106000091AG10999GF103991011011008001041001MA1999999101041MD1999999-0051REMSYN011333   59005EQDQ01+999990APOSLP
0143834980999991991043012004-17733-039250FM-12+000399999V0202301N00361007501CN0100001N9+02521+02311101491ADDAA124004091AG10999AY191061AY261061GF107991051071008001071081KA1240N+02251MA1999999101441MD1999999+0211MW1291REMSYN023333   20225 58021 60044
0102834980999991991050100004-17733-039250FM-12+000399999V0201801N00461220001CN9999999N9+02541+02251101481ADDAA106000091AG10999GF104991041021008001001001MA1999999101431MD1999999+0271REMSYN017333   1276/ 58027
0143834980999991991050112004-17733-039250FM-12+000399999V0201801N00311045001CN0200001N9+02541+02191101561ADDAA124001091AG10999AY161061AY221061GF105991031041008001051001KA1240N+02091MA1999999101511MD1999999+0071MW1211REMSYN023333   20209 58007 60014
0124834980999991991050118004-17733-039250FM-12+000399999V0201801N00411045001CN0200001N9+02661+02331101391ADDAA106001091AG10999AY161061AY221061GF105991041021008001041001MA1999999101341MD1999999+0141MW1211REMSYN017333   58014 60011
0115834980999991991050200004-17733-039250FM-12+000399999V0201801N00361220001CN9999999N9+02541+02191101531ADDAA106000091AG10999GF102991021011008001001001KA1240M+02721MA1999999101481MD1999999+0051REMSYN017333   10272 58005
0121834980999991991050212004-17733-039250FM-12+000399999V0201801N00311220001CN0200001N9+02661+02091101681ADDAA124001091AG10999GF102991011011008001041001KA1240N+02091MA1999999101631MD1999999+0121REMSYN023333   20209 58012 60014
0096834980999991991050218004-17733-039250FM-12+000399999V0201801N00511220001CN0200001N9+02681+01941101381ADDAA106000091AG10999GF101991011011008001001001MA1999999101331MD1999999-0011REMSYN011333   59001
0115834980999991991050300004-17733-039250FM-12+000399999V0201801N00261220001CN9999999N9+02461+02031101531ADDAA106000091AG10999GF100991001001999999001001KA1240M+02771MA1999999101481MD1999999+0001REMSYN017333   10277 58000
0115834980999991991050312004-17733-039250FM-12+000399999V0202301N00261045001CN0200001N9+02381+02051101571ADDAA106000091AG10999GF105991031011008001041001KA1240N+01881MA1999999101521MD1999999-0111REMSYN017333   20188 59011
0096834980999991991050318004-17733-039250FM-12+000399999V0201801N00311220001CN0200001N9+02641+02031101311ADDAA106000091AG10999GF104991021011008001041001MA1999999101261MD1999999-0071REMSYN011333   59007
0115834980999991991050400004-17733-039250FM-12+000399999V0200901N00261220001CN9999999N9+02321+02091101511ADDAA106000091AG10999GF100991001001999999001001KA1240M+02711MA1999999101461MD1999999-0021REMSYN017333   10271 59002
0115834980999991991050412004-17733-039250FM-12+000399999V0202301N00101045001CN0200001N9+02481+02211101621ADDAA106000091AG10999GF107991011081008001031061KA1240N+01891MA1999999101571MD1999999+0051REMSYN017333   20189 58005
0096834980999991991050418004-17733-039250FM-12+000399999V0200901N00261105001CN0200001N9+02701+02201101241ADDAA106000091AG10999GF107991021021008001001021MA1999999101191MD1999999-0071REMSYN011333   59007
0115834980999991991050512004-17733-039250FM-12+000399999V0209991C00001220001CN0200001N9+02441+02301101471ADDAA106000091AG10999GF103991011011008001051001KA1240N+02041MA1999999101421MD1999999-0151REMSYN017333   20204 59015
0115834980999991991050600004-17733-039250FM-12+000399999V0200901N00151220001CN9999999N9+02221+02031101391ADDAA106000091AG10999GF100991001001999999001001KA1240M+02761MA1999999101341MD1999999-0081REMSYN017333   10276 59008
0115834980999991991050612004-17733-039250FM-12+000399999V0209991C00001045001CN0200001N9+02601+02351101551ADDAA106000091AG10999GF107991021041008001061061KA1240N+02041MA1999999101501MD1999999+0081REMSYN017333   20204 58008
0096834980999991991050618004-17733-039250FM-12+000399999V0200901N00311045001CN0100001N9+02681+02201101371ADDAA106000091AG10999GF107991041081008001071081MA1999999101321MD1999999+0171REMSYN011333   58017
0115834980999991991050712004-17733-039250FM-12+000399999V0201401N00151045001CN0200001N9+02541+02291101631ADDAA106000091AG10999GF107991031051008001041001KA1240N+02191MA1999999101581MD1999999+0081REMSYN017333   20219 58008
0096834980999991991050718004-17733-039250FM-12+000399999V0201801N00211045001CN0100001N9+02621+02411101431ADDAA106000091AG10999GF108991031051008001011999MA1999999101381MD1999999+0061REMSYN011333   58006
0115834980999991991050800004-17733-039250FM-12+000399999V0201401N00151220001CN9999999N9+02421+02211101551ADDAA106000091AG10999GF100991001001999999001001KA1240M+02761MA1999999101501MD1999999-0031REMSYN017333   10276 59003
0143834980999991991050812004-17733-039250FM-12+000399999V0202301N00261045001CN0100001N9+02361+02241101591ADDAA124002091AG10999AY161061AY221061GF108991011061008001071091KA1240N+02191MA1999999101541MD1999999-0041MW1621REMSYN023333   20219 59004 60024
0096834980999991991050818004-17733-039250FM-12+000399999V0201801N00461045001CN0200001N9+02601+02311101231ADDAA106000091AG10999GF107991011011008001061061MA1999999101181MD1999999-0201REMSYN011333   59020
0115834980999991991050900004-17733-039250FM-12+000399999V0209991C00001220001CN9999999N9+02321+02291101451ADDAA106000091AG10999GF100991001001999999001001KA1240M+02671MA1999999101401MD1999999-0101REMSYN017333   10267 59010
0154834980999991991050912004-17733-039250FM-12+000399999V0202301N00151045001CN0040001N9+02341+02271101651ADDAA124000891AA299001091AG10999AY161061AY221061GF108991031021008001061999KA1240N+02061MA1999999101601MD1999999+0061MW1211REMSYN023333   20206 58006 69984
0135834980999991991050918004-17733-039250FM-12+000399999V0201801N00411045001CN0100001N9+02621+02181101511ADDAA106000691AA299000591AG10999AY161061AY221061GF106991021011008001011001MA1999999101461MD1999999+0281MW1211REMSYN017333   58028 69961
0115834980999991991051000004-17733-039250FM-12+000399999V0201401N00361220001CN9999999N9+02481+02111101641ADDAA106000091AG10999GF102991021011008001001001KA1240M+02651MA1999999101591MD1999999+0191REMSYN017333   10265 58019
0149834980999991991051012004-17733-039250FM-12+000399999V0201801N00051220001CN0200001N9+02601+01871101951ADDAA124001091AG10999AY161061AY211061GF103991011081008001031091KA1240N+02101MA1999999101901MD1999999+0301MW1211REMSYN029333   20210 58030 60014 9/211
0096834980999991991051018004-17733-039250FM-12+000399999V0201801N00361045001CN0100001N9+02561+01971101681ADDAA106000091AG10999GF107991011051008001051001MA1999999101631MD1999999+0171REMSYN011333   58017
0115834980999991991051112004-17733-039250FM-12+000399999V0202701N00151220001CN0200001N9+02361+02051101831ADDAA106000091AG10999GF103991021011008001041001KA1240N+01931MA1999999101781MD1999999+0151REMSYN017333   20193 58015
0096834980999991991051118004-17733-039250FM-12+000399999V0201801N00311045001CN0200001N9+02621+02141101521ADDAA106000091AG10999GF106991031011008001041011MA1999999101471MD1999999+0161REMSYN011333   58016
0115834980999991991051200004-17733-039250FM-12+000399999V0201401N00101045001CN9999999N9+02321+02071101631ADDAA106000091AG10999GF105991021041008001011001KA1240M+02701MA1999999101581MD1999999-0251REMSYN017333   10270 59025
0154834980999991991051212004-17733-039250FM-12+000399999V0202701N00211045001CN0200001N9+02201+02051101961ADDAA124000991AA299001091AG10999AY161061AY261061GF106991011081008001051091KA1240N+01941MA1999999101911MD1999999+0131MW1631REMSYN023333   20194 58013 69994
0096834980999991991051218004-17733-039250FM-12+000399999V0201401N00311220001CN0200001N9+02641+02031101711ADDAA106000091AG10999GF101991011011008001001001MA1999999101661MD1999999+0191REMSYN011333   58019
0115834980999991991051300004-17733-039250FM-12+000399999V0201401N00311220001CN9999999N9+02401+01971101941ADDAA106000091AG10999GF100991001001999999001001KA1240M+02731MA1999999101891MD1999999+0311REMSYN017333   10273 58031
0115834980999991991051312004-17733-039250FM-12+000399999V0202701N00151220001CN0200001N9+02241+01991101911ADDAA106000091AG10999GF104991031021008001051001KA1240N+01911MA1999999101861MD1999999-0051REMSYN017333   20191 59005
0115834980999991991051400004-17733-039250FM-12+000399999V0201401N00311220001CN9999999N9+02381+02071101851ADDAA106000091AG10999GF100991001001999999001001KA1240M+02691MA1999999101801MD1999999-0091REMSYN017333   10269 59009
0143834980999991991051412004-17733-039250FM-12+000399999V0202301N00151007501CN0040001N9+02111+02031101951ADDAA124008091AG10999AY161061AY261061GF108991051061008001021999KA1240N+02041MA1999999101901MD1999999+0041MW1631REMSYN023333   20204 58004 60084
0135834980999991991051418004-17733-039250FM-12+000399999V0201801N00261045001CN0100001N9+02461+02111101571ADDAA106000291AA299000391AG10999AY161061AY221061GF108991021081008001071061MA1999999101521MD1999999-0141MW1211REMSYN017333   59014 69921
0143834980999991991051500004-17733-039250FM-12+000399999V0200501N00261012001CN9999999N9+02071+01931101851ADDAA106003091AG10999AY161061AY201061GF108991061071012501021999KA1240M+02491MA1999999101801MD1999999+0001MW1611REMSYN023333   10249 58000 60031
0121834980999991991051512004-17733-039250FM-12+000399999V0202301N00261105001CN0200001N9+02301+02051101721ADDAA124004091AG10999GF106991021011008001001021KA1240N+01961MA1999999101671MD1999999-0231REMSYN023333   20196 59023 60044
0096834980999991991051518004-17733-039250FM-12+000399999V0201401N00311045001CN0200001N9+02681+02241101621ADDAA106000091AG10999GF107991021051008001051001MA1999999101371MD1999999-0151REMSYN011333   59015
0115834980999991991051600004-17733-039250FM-12+000399999V0200901N00101220001CN9999999N9+02381+02151101601ADDAA106000091AG10999GF103991021011008001001011KA1240M+02741MA1999999101551MD1999999-0251REMSYN017333   10274 59025
0115834980999991991051612004-17733-039250FM-12+000399999V0203201N00051045001CN0100001N9+02421+02251101691ADDAA106000091AG10999GF108991031071008001061061KA1240N+02061MA1999999101641MD1999999-0031REMSYN017333   20206 59003
0096834980999991991051618004-17733-039250FM-12+000399999V0200901N00211045001CN0100001N9+02661+02221101391ADDAA106000091AG10999GF108991021081008001071061MA1999999101341MD1999999-0031REMSYN011333   59003
0115834980999991991051700004-17733-039250FM-12+000399999V0209991C00001045001CN9999999N9+02261+02211101561ADDAA106000091AG10999GF107991021041008001011061KA1240M+02741MA1999999101511MD1999999-0041REMSYN017333   10274 59004
0115834980999991991051712004-17733-039250FM-12+000399999V0202301N00211045001CN0100001N9+02361+02281101581ADDAA106000091AG10999GF107991031041008001051001KA1240N+02121MA1999999101531MD1999999-0111REMSYN017333   20212 59011
0124834980999991991051718004-17733-039250FM-12+000399999V0201801N00151045001CN0040001N9+02501+02361101391ADDAA106002091AG10999AY161061AY221061GF108991021071008001011999MA1999999101341MD1999999+0001MW1211REMSYN017333   58000 60021
0143834980999991991051812004-17733-039250FM-12+000399999V0202301N00211045001CN0040001N9+02301+02251101911ADDAA124022091AG10999AY161061AY261061GF108991041071008001071999KA1240N+02101MA1999999101861MD1999999+0331MW1621REMSYN023333   20210 58033 60224
0124834980999991991051818004-17733-039250FM-12+000399999V0201401N00461045001CN0100001N9+02401+02191101851ADDAA106006091AG10999AY161061AY221061GF108991031071008001021061MA1999999101801MD1999999+0461MW1211REMSYN017333   58046 60061
0115834980999991991051900004-17733-039250FM-12+000399999V0200901N00211045001CN9999999N9+02421+02211101981ADDAA106000091AG10999GF107991031081008001051061KA1240M+02441MA1999999101931MD1999999+0381REMSYN017333   10244 58038
0143834980999991991051912004-17733-039250FM-12+000399999V0200901N00311045001CN0040001N9+02441+02301101971ADDAA124012091AG10999AY161061AY261061GF108991041071008001021999KA1240N+02191MA1999999101921MD1999999+0061MW1911REMSYN023333   20219 58006 60124
0135834980999991991051918004-17733-039250FM-12+000399999V0201401N00311045001CN0040001N9+02521+02341101811ADDAA106000691AA299000591AG10999AY161061AY221061GF108991021071008001021999MA1999999101761MD1999999-0041MW1211REMSYN017333   59004 69961
0154834980999991991052000004-17733-039250FM-12+000399999V0200901N00151045001CN9999999N9+02481+02291101951ADDAA106000691AA299000591AG10999AY161061AY221061GF108991021071008001021999KA1240M+02571MA1999999101901MD1999999-0031MW1211REMSYN023333   10257 59003 69961
0124834980999991991052018004-17733-039250FM-12+000399999V0201401N00211007501CN0040001N9+02361+02281101731ADDAA106012091AG19059AY161061AY261061GF108991061071008001021999MA1999999101681MD1999999-0081MW1611REMSYN017333   59008 60121
0143834980999991991052100004-17733-039250FM-12+000399999V0200901N00211007501CN9999999N9+02381+02261101781ADDAA106005091AG10999AY161061AY261061GF108991061071008001021999KA1240M+02521MA1999999101731MD1999999-0171MW1601REMSYN023333   10252 59017 60051
0096834980999991991052118004-17733-039250FM-12+000399999V0201401N00211045001CN0100001N9+02501+02361101651ADDAA106000091AG10999GF108991021071008001011999MA1999999101601MD1999999-0081REMSYN011333   59008
0115834980999991991052200004-17733-039250FM-12+000399999V0200501N00211045001CN9999999N9+02421+02281101651ADDAA106000091AG10999GF108991031061008001011999KA1240M+02581MA1999999101601MD1999999-0131REMSYN017333   10258 59013
0143834980999991991052212004-17733-039250FM-12+000399999V0202301N00151045001CN0040001N9+02441+02301101851ADDAA124003091AG10999AY161061AY221061GF108991031061008001021999KA1240N+02161MA1999999101801MD1999999+0001MW1211REMSYN023333   20216 58000 60034
0096834980999991991052218004-17733-039250FM-12+000399999V0200901N00311045001CN0200001N9+02741+02301101521ADDAA106000091AG10999GF106991021081008001031091MA1999999101471MD1999999-0131REMSYN011333   59013
0115834980999991991052300004-17733-039250FM-12+000399999V0200901N00051220001CN9999999N9+02261+02241101671ADDAA106000091AG10999GF102991011081008001031001KA1240M+02841MA1999999101671MD1999999+0021REMSYN017333   10284 58002
0115834980999991991052312004-17733-039250FM-12+000399999V0203601N00211045001CN0200001N9+02641+02411101651ADDAA106000091AG10999GF106991021021008001041001KA1240N+02051MA1999999101601MD1999999-0201REMSYN017333   20205 59020
0096834980999991991052318004-17733-039250FM-12+000399999V0200501N00311045001CN0200001N9+02781+02321101401ADDAA106000091AG10999GF105991021011008001051001MA1999999101351MD1999999-0121REMSYN011333   59012
0115834980999991991052400004-17733-039250FM-12+000399999V0200501N00101220001CN9999999N9+02381+02331101471ADDAA106000091AG10999GF102991021011008001001001KA1240M+02881MA1999999101421MD1999999-0201REMSYN017333   10288 59020
0115834980999991991052412004-17733-039250FM-12+000399999V0202301N00151007501CN0200001N9+02581+02421101691ADDAA106000091AG10999GF106991051021008001051001KA1240N+02071MA1999999101641MD1999999+0041REMSYN017333   20207 58004
0124834980999991991052418004-17733-039250FM-12+000399999V0201801N00361045001CN0200001N9+02481+02291101481ADDAA106000391AG10999AY161061AY261061GF107991041071008001051091MA1999999101431MD1999999+0081MW1631REMSYN017333   58008 69931
0115834980999991991052500004-17733-039250FM-12+000399999V0201801N00571007501CN9999999N9+02461+02231101681ADDAA106000091AG10999GF106991061021008001001001KA1240M+02681MA1999999101631MD1999999+0211REMSYN017333   10268 58021
0154834980999991991052512004-17733-039250FM-12+000399999V0202701N00211045001CN0200001N9+02221+02141101771ADDAA124000891AA299001091AG10999AY161061AY221061GF106991031011008001031001KA1240N+02041MA1999999101721MD1999999+0081MW1211REMSYN023333   20204 58008 69984
0096834980999991991052518004-17733-039250FM-12+000399999V0201401N00311045001CN0200001N9+02641+02501101491ADDAA106000091AG10999GF105991021011008001041001MA1999999101441MD1999999+0011REMSYN011333   58001
0115834980999991991052600004-17733-039250FM-12+000399999V0200901N00151220001CN9999999N9+02341+02221101751ADDAA106000091AG10999GF102991021011008001001001KA1240M+02721MA1999999101701MD1999999+0071REMSYN017333   10272 58007
0134834980999991991052612004-17733-039250FM-12+000399999V0209999999999007501CN0200001N9+02481+02361101871ADDAA106000091AG10999GF107991061021008001071001KA1240N+02051MA1999999101821MD1999999+0101REMSYN017333   20205 58010EQDQ01+999990APOSP 
0096834980999991991052618004-17733-039250FM-12+000399999V0201401N00311007501CN0200001N9+02681+02221101691ADDAA106000091AG10999GF106991061021008001001001MA1999999101641MD1999999+0201REMSYN011333   58020
0115834980999991991052700004-17733-039250FM-12+000399999V0201401N00261220001CN9999999N9+02481+02251101901ADDAA106000091AG10999GF104991041021008001001001KA1240M+02781MA1999999101851MD1999999+0151REMSYN017333   10278 58015
0154834980999991991052712004-17733-039250FM-12+000399999V0200901N00311045001CN0200001N9+02701+02371102021ADDAA124000691AA299000591AG10999AY161061AY211061GF105991021011008001041001KA1240N+02271MA1999999101971MD1999999+0151MW1211REMSYN023333   20227 58015 69964
0096834980999991991052718004-17733-039250FM-12+000399999V0200901N00311220001CN0200001N9+02681+02361101891ADDAA106000091AG10999GF104991041021008001001001MA1999999101841MD1999999+0201REMSYN011333   58020
0115834980999991991052800004-17733-039250FM-12+000399999V0200901N00101220001CN9999999N9+02441+02191102021ADDAA106000091AG10999GF102991021011008001001001KA1240M+02781MA1999999101971MD1999999+0121REMSYN017333   10278 58012
0143834980999991991052812004-17733-039250FM-12+000399999V0200901N00311045001CN0200001N9+02661+02091102101ADDAA124002091AG10999AY161061AY221061GF106991031081008001051021KA1240N+02261MA1999999102051MD1999999+0081MW1211REMSYN023333   20226 58008 60024
0096834980999991991052818004-17733-039250FM-12+000399999V0201401N00311045001CN0200001N9+02641+02031101861ADDAA106000091AG10999GF107991011021008001051091MA1999999101811MD1999999-0031REMSYN011333   59003
0154834980999991991052900004-17733-039250FM-12+000399999V0200901N00211220001CN9999999N9+02361+02131101991ADDAA106000791AA299001091AG10999AY161061AY261061GF102991011011008001031001KA1240M+02781MA1999999101941MD1999999-0031MW1211REMSYN023333   10278 59003 69971
0132834980999991991052912004-17733-039250FM-12+000399999V0201401N00261045001CN0200001N9+02561+02261101981ADDAA124000791AA299001091AG10999GF105991021011008001051001KA1240N+02241MA1999999101931MD1999999-0121REMSYN023333   20224 59012 69974
0115834980999991991053000004-17733-039250FM-12+000399999V0200901N00151220001CN9999999N9+02461+02191101931ADDAA106000091AG10999GF104991021011008001031001KA1240M+02741MA1999999101881MD1999999-0061REMSYN017333   10274 59006
0121834980999991991053012004-17733-039250FM-12+000399999V0201401N00511220001CN0200001N9+02661+02111102011ADDAA124002091AG10999GF105991011011008001031091KA1240N+02241MA1999999101961MD1999999+0031REMSYN023333   20224 58003 60024
0096834980999991991053018004-17733-039250FM-12+000399999V0201401N00411045001CN0200001N9+02641+02231101881ADDAA106000091AG10999GF106991011031008001031091MA1999999101831MD1999999+0101REMSYN011333   58010
0115834980999991991053100004-17733-039250FM-12+000399999V0201401N00211220001CN9999999N9+02481+02211102031ADDAA106000091AG10999GF102991021021008001001001KA1240M+02741MA1999999101981MD1999999+0101REMSYN017333   10274 58010
0143834980999991991053112004-17733-039250FM-12+000399999V0201401N00311220001CN0200001N9+02581+01991101961ADDAA124006091AG10999AY161061AY221061GF104991041021008001001001KA1240N+02221MA1999999101911MD1999999-0051MW1211REMSYN023333   20222 59005 60064
0096834980999991991053118004-17733-039250FM-12+000399999V0201401N00361220001CN0200001N9+02641+01141101831ADDAA106000091AG10999GF102991021011008001001001MA1999999101781MD1999999-0051REMSYN011333   59005
0115834980999991991060100004-17733-039250FM-12+000399999V0201401N00261220001CN9999999N9+02441+02131101931ADDAA106000091AG10999GF104991041021008001001001KA1240M+02721MA1999999101881MD1999999-0101REMSYN017333   10272 59010
0143834980999991991060112004-17733-039250FM-12+000399999V0201401N00361007501CN0200001N9+02441+02271101941ADDAA124002091AG10999AY161061AY221061GF107991061071008001031001KA1240N+02161MA1999999101891MD1999999-0021MW1601REMSYN023333   20216 59002 60024
0135834980999991991060118004-17733-039250FM-12+000399999V0201401N00261045001CN0200001N9+02541+02231101671ADDAA106000891AA299001091AG10999AY161061AY221061GF107991031081008001061061MA1999999101621MD1999999-0161MW1211REMSYN017333   59016 69981
0115834980999991991060200004-17733-039250FM-12+000399999V0200901N00211220001CN9999999N9+02361+02051101821ADDAA106000091AG10999GF101991001001999999001051KA1240M+02641MA1999999101771MD1999999-0111REMSYN017333   10264 59011
0115834980999991991060300004-17733-039250FM-12+000399999V0202301N00151045001CN9999999N9+02201+02131101901ADDAA106000091AG10999GF108991031041008001011999KA1240M+02661MA1999999101851MD1999999+0081REMSYN017333   10266 58008
0132834980999991991060312004-17733-039250FM-12+000399999V0200901N00261007501CN0200001N9+02661+02091102051ADDAA124000291AA299000391AG10999GF106991061021008001001001KA1240N+02201MA1999999102001MD1999999+0101REMSYN023333   20220 58010 69924
0096834980999991991060318004-17733-039250FM-12+000399999V0201401N00211007501CN0200001N9+02621+02181101851ADDAA106000091AG10999GF107991061021008001001091MA1999999101801MD1999999+0081REMSYN011333   58008
0115834980999991991060400004-17733-039250FM-12+000399999V0201401N00151220001CN9999999N9+02341+02181101911ADDAA106000091AG10999GF104991021011008001031001KA1240M+02741MA1999999101861MD1999999+0011REMSYN017333   10274 58001
0143834980999991991060412004-17733-039250FM-12+000399999V0202301N00051045001CN0040001N9+02121+02071101991ADDAA124016091AG10999AY161061AY261061GF108991031071008001021999KA1240N+01901MA1999999101941MD1999999-0061MW1921REMSYN023333   20190 59006 60164
0135834980999991991060418004-17733-039250FM-12+000399999V0200501N00261045001CN0200001N9+02641+02181101681ADDAA106000791AA299001091AG10999AY161061AY221061GF107991021021008001051091MA1999999101631MD1999999-0171MW1211REMSYN017333   59017 69971
0115834980999991991060500004-17733-039250FM-12+000399999V0201801N00211105001CN9999999N9+02261+02211101771ADDAA106000091AG10999GF105991041021008001001091KA1240M+02761MA1999999101721MD1999999-0141REMSYN017333   10276 59014
0096834980999991991060518004-17733-039250FM-12+000399999V0200501N00311220001CN0200001N9+02641+02071101521ADDAA106000091AG10999GF101991011011008001001001MA1999999101471MD1999999-0161REMSYN011333   59016
0115834980999991991060600004-17733-039250FM-12+000399999V0209991C00001220001CN9999999N9+02081+02051101721ADDAA106000091AG10999GF100991001001999999001001KA1240M+02741MA1999999101671MD1999999-0051REMSYN017333   10274 59005
0115834980999991991060612004-17733-039250FM-12+000399999V0202701N00211045001CN0200001N9+02281+02131101891ADDAA106000091AG10999GF105991031021008001041001KA1240N+01911MA1999999101841MD1999999+0041REMSYN017333   20191 58004
0096834980999991991060618004-17733-039250FM-12+000399999V0200901N00261220001CN0200001N9+02721+02261101611ADDAA106000091AG10999GF102991021011008001001001MA1999999101561MD1999999+0091REMSYN011333   58009
0115834980999991991060712004-17733-039250FM-12+000399999V0209991C00001045001CN0100001N9+02381+02291101971ADDAA106000091AG10999GF108991011081008001051999KA1240N+02161MA1999999101921MD1999999+0081REMSYN017333   20216 58008
0096834980999991991060718004-17733-039250FM-12+000399999V0200901N00211045001CN0200001N9+02581+02291101731ADDAA106000091AG10999GF107991031071008001061061MA1999999101681MD1999999+0121REMSYN011333   58012
0143834980999991991060800004-17733-039250FM-12+000399999V0200901N00051045001CN9999999N9+02301+02251101921ADDAA106000391AG10999AY161061AY221061GF107991031071008001061061KA1240M+02831MA1999999101871MD1999999+0131MW1211REMSYN023333   10283 58013 69931
0154834980999991991060812004-17733-039250FM-12+000399999V0201401N00101045001CN0200001N9+02501+02401101981ADDAA124000791AA299001091AG10999AY161061AY221061GF106991031021008001031001KA1240N+02111MA1999999101931MD1999999+0011MW1211REMSYN023333   20211 58001 69974
0096834980999991991060818004-17733-039250FM-12+000399999V0200901N00361045001CN0100001N9+02581+02291101721ADDAA106000091AG10999GF108991031051008001011999MA1999999101671MD1999999-0011REMSYN011333   59001
0115834980999991991060900004-17733-039250FM-12+000399999V0200901N00101220001CN9999999N9+02181+02131101801ADDAA106000091AG10999GF100991001001999999001001KA1240M+02721MA1999999101751MD1999999-0121REMSYN017333   10272 59012
0115834980999991991060912004-17733-039250FM-12+000399999V0201401N00311007501CN0200001N9+02261+02181101911ADDAA106000091AG10999GF105991051061008001001001KA1240N+02001MA1999999101861MD1999999-0071REMSYN017333   20200 59007
0096834980999991991060918004-17733-039250FM-12+000399999V0201801N00361220001CN0200001N9+02581+02171101681ADDAA106000091AG10999GF101991011021008001001001MA1999999101631MD1999999-0041REMSYN011333   59004
0115834980999991991061000004-17733-039250FM-12+000399999V0201401N00151220001CN9999999N9+02401+02191101971ADDAA106000091AG10999GF104991021011008001001011KA1240M+02681MA1999999101921MD1999999+0171REMSYN017333   10268 58017
0143834980999991991061012004-17733-039250FM-12+000399999V0201801N00571045001CN0200001N9+02501+02051102161ADDAA124005091AG19043AY161061AY221061GF106991031021008001051041KA1240N+02201MA1999999102111MD1999999+0251MW1211REMSYN023333   20220 58025 60054
0096834980999991991061018004-17733-039250FM-12+000399999V0201801N00671220001CN0200001N9+02541+01911101961ADDAA106000091AG10999GF104991021011008001041001MA1999999101911MD1999999+0281REMSYN011333   58028
0115834980999991991061100004-17733-039250FM-12+000399999V0201801N00511220001CN9999999N9+02321+01761102111ADDAA106000091AG10999GF102991021011008001001001KA1240M+02601MA1999999102061MD1999999+0141REMSYN017333   10260 58014
0143834980999991991061112004-17733-039250FM-12+000399999V0202701N00311045001CN0100001N9+02061+02011102251ADDAA124007091AG10999AY121061AY251061GF107991041071008001031061KA1240N+01821MA1999999102201MD1999999+0091MW1621REMSYN023333   20182 58009 60074
0135834980999991991061118004-17733-039250FM-12+000399999V0201401N00211045001CN0100001N9+02421+01971101891ADDAA106000791AA299001091AG10999AY161061AY221061GF108991011021008001051061MA1999999101841MD1999999-0071MW1631REMSYN017333   59007 69971
0143834980999991991061200004-17733-039250FM-12+000399999V0201401N00211007501CN9999999N9+02041+01941102081ADDAA106000591AG10999AY161061AY261061GF108991081071008001999999KA1240M+02621MA1999999102031MD1999999-0031MW1621REMSYN023333   10262 59003 69951
0096834980999991991061218004-17733-039250FM-12+000399999V0201801N00261045001CN0200001N9+02381+02071101691ADDAA106000091AG10999GF106991021041008001031051MA1999999101641MD1999999-0201REMSYN011333   59020
0115834980999991991061300004-17733-039250FM-12+000399999V0201801N00211045001CN9999999N9+02261+02181101821ADDAA106000091AG10999GF105991031041008001011001KA1240M+02541MA1999999101771MD1999999-0261REMSYN017333   10254 59026
0143834980999991991061312004-17733-039250FM-12+000399999V0202301N00211007501CN0040001N9+02181+02101101951ADDAA124003091AG10999AY161061AY221061GF108991071071008001051999KA1240N+01981MA1999999101901MD1999999-0131MW1211REMSYN023333   20198 59013 60034
0096834980999991991061318004-17733-039250FM-12+000399999V0202301N00261045001CN0200001N9+02461+02171101691ADDAA106000091AG10999GF108991021041008001051061MA1999999101641MD1999999+0001REMSYN011333   58000
0115834980999991991061400004-17733-039250FM-12+000399999V0200901N00151007501CN9999999N9+02341+02221101821ADDAA106000091AG10999GF107991051021008001071001KA1240M+02581MA1999999101771MD1999999+0001REMSYN017333   10258 58000
0143834980999991991061412004-17733-039250FM-12+000399999V0201401N00261045001CN0100001N9+02481+02331102021ADDAA124002091AG10999AY161061AY221061GF107991031041008001011001KA1240N+02161MA1999999101971MD1999999+0071MW1211REMSYN023333   20216 58007 60024
0096834980999991991061418004-17733-039250FM-12+000399999V0200901N00211220001CN0200001N9+02601+02311101701ADDAA106000091AG10999GF102991021011008001001001MA1999999101651MD1999999+0011REMSYN011333   58001
0096834980999991991061518004-17733-039250FM-12+000399999V0201401N00151105001CN0200001N9+02621+02251101651ADDAA106000091AG10999GF105991011021008001071061MA1999999101601MD1999999-0051REMSYN011333   59005
0115834980999991991061600004-17733-039250FM-12+000399999V0200901N00151045001CN9999999N9+02321+02201101811ADDAA106000091AG10999GF108991041071008001021999KA1240M+02661MA1999999101761MD1999999-0011REMSYN017333   10266 59001
0143834980999991991061612004-17733-039250FM-12+000399999V0202301N00051045001CN0040001N9+02361+02281101811ADDAA124008091AG10999AY161061AY221061GF108991031071008001021999KA1240N+02141MA1999999101761MD1999999-0191MW1211REMSYN023333   20214 59019 60084
0096834980999991991061618004-17733-039250FM-12+000399999V0200901N00311045001CN0200001N9+02601+02311101661ADDAA106000091AG10999GF106991031021008001051001MA1999999101611MD1999999+0011REMSYN011333   58001
0115834980999991991061700004-17733-039250FM-12+000399999V0200901N00151220001CN9999999N9+02241+02171101751ADDAA106000091AG10999GF102991021011008001001001KA1240M+02681MA1999999101701MD1999999-0061REMSYN017333   10268 59006
0115834980999991991061712004-17733-039250FM-12+000399999V0202701N00101220001CN0200001N9+02361+02221101811ADDAA106000091AG10999GF101991011081008001001001KA1240N+01971MA1999999101761MD1999999+0001REMSYN017333   20197 58000
0096834980999991991061718004-17733-039250FM-12+000399999V0200501N00151045001CN0200001N9+02541+02091101521ADDAA106000091AG10999GF106991011081008001051001MA1999999101471MD1999999-0141REMSYN011333   59014
0115834980999991991061800004-17733-039250FM-12+000399999V0200501N00211220001CN9999999N9+02121+02021101671ADDAA106000091AG10999GF100991001001999999001001KA1240M+02691MA1999999101621MD1999999-0081REMSYN017333   10269 59008
0115834980999991991061812004-17733-039250FM-12+000399999V0202701N00151220001CN0200001N9+02261+02121101781ADDAA106000091AG10999GF102991021081008001001001KA1240N+01821MA1999999101731MD1999999-0031REMSYN017333   20182 59003
0096834980999991991061818004-17733-039250FM-12+000399999V0200501N00361220001CN0200001N9+02601+02171101511ADDAA106000091AG10999GF102991021011008001001001MA1999999101461MD1999999-0011REMSYN011333   59001
0115834980999991991061900004-17733-039250FM-12+000399999V0200501N00211220001CN9999999N9+02121+02091101671ADDAA106000091AG10999GF100991001001999999001001KA1240M+02851MA1999999101621MD1999999+0001REMSYN017333   10285 58000
0062834980999991991061912004-17733-039250FM-12+000399999V0203601N001519999999N0100001N9+02461+02281101861ADDAA106000091AG10999GF107991999999008001999999MA1999999101811
0096834980999991991061918004-17733-039250FM-12+000399999V0200501N00461220001CN0200001N9+02621+02231101601ADDAA106000091AG10999GF102991011011008001001051MA1999999101551MD1999999+0091REMSYN011333   58009
0115834980999991991062000004-17733-039250FM-12+000399999V0203601N00051220001CN9999999N9+02221+02141101831ADDAA106000091AG10999GF100991001001999999001001KA1240M+02741MA1999999101781MD1999999+0161REMSYN017333   10274 58016
0115834980999991991062012004-17733-039250FM-12+000399999V0203601N00311220001CN0200001N9+02401+02191101911ADDAA106000091AG10999GF102991021021008001001001KA1240N+01851MA1999999101861MD1999999+0051REMSYN017333   20185 58005
0096834980999991991062018004-17733-039250FM-12+000399999V0200501N00261220001CN0200001N9+02701+02221101531ADDAA106000091AG10999GF102991021011008001001001MA1999999101481MD1999999-0071REMSYN011333   59007
0115834980999991991062100004-17733-039250FM-12+000399999V0200501N00151220001CN9999999N9+02341+02221101751ADDAA106000091AG10999GF104991021011008001041001KA1240M+02801MA1999999101701MD1999999-0081REMSYN017333   10280 59008
0115834980999991991062112004-17733-039250FM-12+000399999V0203601N00361045001CN0200001N9+02461+02191101831ADDAA106000091AG10999GF107991011011008001031061KA1240N+02041MA1999999101781MD1999999-0081REMSYN017333   20204 59008
0096834980999991991062118004-17733-039250FM-12+000399999V0200501N00411105001CN0200001N9+02721+02051101631ADDAA106000091AG10999GF107991011021008001001061MA1999999101581MD1999999+0101REMSYN011333   58010
0115834980999991991062200004-17733-039250FM-12+000399999V0200501N00151220001CN9999999N9+02201+02151101781ADDAA106000091AG10999GF102991001001999999001051KA1240M+02881MA1999999101731MD1999999+0031REMSYN017333   10288 58003
0115834980999991991062212004-17733-039250FM-12+000399999V0203201N00211220001CN0200001N9+02461+02321101931ADDAA106000091AG10999GF102991999999008001999999KA1240N+01941MA1999999101881MD1999999+0101REMSYN017333   20194 58010
0096834980999991991062218004-17733-039250FM-12+000399999V0200501N00411105001CN0200001N9+02701+02221101721ADDAA106000091AG10999GF107991011011008001001061MA1999999101671MD1999999+0091REMSYN011333   58009
0115834980999991991062300004-17733-039250FM-12+000399999V0200501N00151220001CN9999999N9+02221+02071102001ADDAA106000091AG10999GF104991011011008001041001KA1240M+02801MA1999999101951MD1999999+0221REMSYN017333   10280 58022
0115834980999991991062312004-17733-039250FM-12+000399999V0203601N00101220001CN0200001N9+02441+02131102101ADDAA106000091AG10999GF102991011011008001001051KA1240N+01881MA1999999102051MD1999999+0171REMSYN017333   20188 58017
0096834980999991991062318004-17733-039250FM-12+000399999V0200501N00311220001CN0200001N9+02721+01931101771ADDAA106000091AG10999GF101991011011008001001001MA1999999101721MD1999999+0051REMSYN011333   58005
0115834980999991991062400004-17733-039250FM-12+000399999V0200501N00151105001CN9999999N9+02081+02011101951ADDAA106000091AG10999GF107991001001999999001061KA1240M+02841MA1999999101901MD1999999-0051REMSYN017333   10284 59005
0115834980999991991062412004-17733-039250FM-12+000399999V0203201N00101220001CN0200001N9+02221+02081102101ADDAA106000091AG10999GF104991021011008001041001KA1240N+01791MA1999999102051MD1999999+0001REMSYN017333   20179 58000
0096834980999991991062418004-17733-039250FM-12+000399999V0201401N00261220001CN0200001N9+02701+02131101851ADDAA106000091AG10999GF104991031011008001041001MA1999999101801MD1999999+0081REMSYN011333   58008
0115834980999991991062500004-17733-039250FM-12+000399999V0200501N00151045001CN9999999N9+02201+02081101951ADDAA106000091AG10999GF107991021021008001051001KA1240M+02641MA1999999101901MD1999999+0001REMSYN017333   10264 58000
0115834980999991991062512004-17733-039250FM-12+000399999V0202301N00151220001CN0200001N9+02361+02131102061ADDAA106000091AG10999GF103991011021008001001051KA1240N+02011MA1999999102011MD1999999-0041REMSYN017333   20201 59004
0096834980999991991062518004-17733-039250FM-12+000399999V0201401N00211045001CN0200001N9+02561+02131101731ADDAA106000091AG10999GF107991011021008001031021MA1999999101681MD1999999-0121REMSYN011333   59012
0115834980999991991062600004-17733-039250FM-12+000399999V0201401N00051220001CN9999999N9+02201+02101101951ADDAA106000091AG10999GF106991011011008001001061KA1240M+02671MA1999999101901MD1999999+0001REMSYN017333   10267 58000
0047834980999991991062612004-17733-039250FM-12+000399999V0202701N002119999999N0100001N9+02061+99999999999ADDAA106000091AG10999GF107991999999008001999999
0110834980999991991062618004-17733-039250FM-12+000399999V0200901N00261045001CN0100001N9+02361+02151102031ADDAA106001091AG10999AY161061AY221061GF108991031051008001011001MA1999999101981MW1211REMSYN017333   5830/ 60011
0115834980999991991062700004-17733-039250FM-12+000399999V0203601N00311045001CN9999999N9+02121+02051102171ADDAA106000091AG10999GF107991031051008001011001KA1240M+02581MA1999999102121MD1999999+0221REMSYN017333   10258 58022
0143834980999991991062712004-17733-039250FM-12+000399999V0200901N00311045001CN0200001N9+02381+02111102271ADDAA124004091AG10999AY161061AY221061GF107991031071008001061091KA1240N+01991MA1999999102221MD1999999+0141MW1211REMSYN023333   20199 58014 60044
0135834980999991991062718004-17733-039250FM-12+000399999V0201401N00211045001CN0100001N9+02221+02031102061ADDAA106000791AA299001091AG10999AY161061AY261061GF107991021071008001021081MA1999999102011MD1999999+0031MW1631REMSYN017333   58003 69971
0143834980999991991062800004-17733-039250FM-12+000399999V0203601N00051045001CN9999999N9+02201+02101102191ADDAA106000191AG10999AY161061AY261061GF107991011081008001051081KA1240M+02651MA1999999102141MD1999999+0021MW1611REMSYN023333   10265 58002 69911
0096834980999991991062818004-17733-039250FM-12+000399999V0200901N00211220001CN0200001N9+02561+02061101911ADDAA106000091AG10999GF103991031011008001001001MA1999999101861MD1999999-0151REMSYN011333   59015
0115834980999991991062900004-17733-039250FM-12+000399999V0200501N00151220001CN9999999N9+02101+01981102011ADDAA106000091AG10999GF102991021011008001001001KA1240M+02661MA1999999101961MD1999999-0181REMSYN017333   10266 59018
0115834980999991991062912004-17733-039250FM-12+000399999V0202701N00211220001CN0200001N9+02201+01991102111ADDAA106000091AG10999GF102991011081008001031001KA1240N+01851MA1999999102061MD1999999-0121REMSYN017333   20185 59012
0096834980999991991062918004-17733-039250FM-12+000399999V0201401N00311220001CN0200001N9+02541+02151101781ADDAA106000091AG10999GF101991011021008001001001MA1999999101731MD1999999-0131REMSYN011333   59013
0115834980999991991063000004-17733-039250FM-12+000399999V0200901N00051220001CN9999999N9+01981+01931102021ADDAA106000091AG10999GF100991001001999999001001KA1240M+02621MA1999999101971MD1999999+0011REMSYN017333   10262 58001
0115834980999991991063012004-17733-039250FM-12+000399999V0202701N00051220001CN0200001N9+02341+02181102091ADDAA106000091AG10999GF102991021041008001001001KA1240N+01841MA1999999102041MD1999999-0021REMSYN017333   20184 59002
0096834980999991991063018004-17733-039250FM-12+000399999V0200901N00311045001CN0200001N9+02601+02251101851ADDAA106000091AG10999GF105991021021008001041001MA1999999101801MD1999999+0071REMSYN011333   58007
0115834980999991991070100004-17733-039250FM-12+000399999V0200901N00101220001CN9999999N9+02261+02181102081ADDAA106000091AG10999GF102991021011008001001001KA1240M+02681MA1999999102031MD1999999+0061REMSYN017333   10268 58006
0115834980999991991070112004-17733-039250FM-12+000399999V0202301N00211220001CN0200001N9+02321+02131102261ADDAA106000091AG10999GF104991041011008001001001KA1240N+01951MA1999999102211MD1999999+0171REMSYN017333   20195 58017
0096834980999991991070118004-17733-039250FM-12+000399999V0201801N00311220001CN0200001N9+02481+02031102051ADDAA106000091AG10999GF104991031021008001051001MA1999999102001MD1999999+0201REMSYN011333   58020
