0072825640999992017010100004-05531-047460FM-15+013199999V0200301N001519999999Y999999999+02801+02501999999ADDMA1101001999999REMMET045METAR SBIZ 010000Z 03003KT CAVOK 28/25 Q1010=
0072825640999992017010100454-05531-047460FM-16+013199999V0209999C000019999999Y999999999+02801+02501999999ADDMA1101101999999REMMET045SPECI SBIZ 010045Z 00000KT CAVOK 28/25 Q1011=
0072825640999992017010107154-05531-047460FM-16+013199999V0203001N001019999999Y999999999+02601+02501999999ADDMA1100901999999REMMET045SPECI SBIZ 010715Z 30002KT CAVOK 26/25 Q1009=
0142825640999992017010108004-05531-047460FM-15+013199999V0203601N001019999999N009999199+02601+02501999999ADDGA1021+009141999GE19MSL   +99999+99999GF199999021999009141999999MA1101001999999REMMET051METAR SBIZ 010800Z 36002KT 9999 FEW030 26/25 Q1010=
0142825640999992017010109004-05531-047460FM-15+013199999V0209999C000019999999N009999199+02601+02501999999ADDGA1021+012191999GE19MSL   +99999+99999GF199999021999012191999999MA1101001999999REMMET051METAR SBIZ 010900Z 00000KT 9999 FEW040 26/25 Q1010=
0142825640999992017010110004-05531-047460FM-15+013199999V0209999C000010061019N009999199+02601+02501999999ADDGA1071+006101999GE19MSL   +99999+99999GF199999071999006101999999MA1101101999999REMMET051METAR SBIZ 011000Z 00000KT 9999 BKN020 26/25 Q1011=
0188825640999992017010111004-05531-047460FM-15+013199999V0203101N001510045719N009999199+02701+02501999999ADDGA1021+003051999GA2071+004571999GA3081+021341999GE19MSL   +99999+99999GF199999021999003051999999MA1101201999999REMMET065METAR SBIZ 011100Z 31003KT 9999 FEW010 BKN015 OVC070 27/25 Q1012=
0188825640999992017010112004-05531-047460FM-15+013199999V0203501N00101004571CN009999199+02701+02501999999ADDGA1021+003051999GA2041+004571999GA3081+021341999GE19MSL   +99999+99999GF199999021999003051999999MA1101301999999REMMET065METAR SBIZ 011200Z 35002KT 9999 FEW010 SCT015 OVC070 27/25 Q1013=
0165825640999992017010113004-05531-047460FM-15+013199999V0203201N002610045719N009999199+02901+02401999999ADDGA1071+004571999GA2041+021341999GE19MSL   +99999+99999GF199999071999004571999999MA1101301999999REMMET058METAR SBIZ 011300Z 32005KT 9999 BKN015 SCT070 29/24 Q1013=
0165825640999992017010114004-05531-047460FM-15+013199999V0200101N002110051819N009999199+03001+02501999999ADDGA1071+005181999GA2041+008231999GE19MSL   +99999+99999GF199999071999005181999999MA1101301999999REMMET058METAR SBIZ 011400Z 01004KT 9999 BKN017 SCT027 30/25 Q1013=
0188825640999992017010115004-05531-047460FM-15+013199999V0203401N00211008531CN009999199+03101+02501999999ADDGA1041+005491999GA2041+008531999GA3071+023471999GE19MSL   +99999+99999GF199999041999005491999999MA1101201999999REMMET065METAR SBIZ 011500Z 34004KT 9999 SCT018 SCT028 BKN077 31/25 Q1012=
0165825640999992017010116004-05531-047460FM-15+013199999V0200701N001510088419N009999199+03201+02401999999ADDGA1021+006101999GA2071+008841999GE19MSL   +99999+99999GF199999021999006101999999MA1101101999999REMMET058METAR SBIZ 011600Z 07003KT 9999 FEW020 BKN029 32/24 Q1011=
0188825640999992017010117004-05531-047460FM-15+013199999V0202401N00261008531CN009999199+03201+02501999999ADDGA1021+006101999GA2041+008531999GA3071+024381999GE19MSL   +99999+99999GF199999021999006101999999MA1101001999999REMMET065METAR SBIZ 011700Z 24005KT 9999 FEW020 SCT028 BKN080 32/25 Q1010=
0165825640999992017010121004-05531-047460FM-15+013199999V0209999C000010304819N009999199+03101+02401999999ADDGA1041+006101999GA2071+030481999GE19MSL   +99999+99999GF199999041999006101999999MA1100901999999REMMET058METAR SBIZ 012100Z 00000KT 9999 SCT020 BKN100 31/24 Q1009=
0165825640999992017010122004-05531-047460FM-15+013199999V0202301N001010304819N009999199+03001+02501999999ADDGA1041+006101999GA2071+030481999GE19MSL   +99999+99999GF199999041999006101999999MA1100901999999REMMET058METAR SBIZ 012200Z 23002KT 9999 SCT020 BKN100 30/25 Q1009=
0165825640999992017010123004-05531-047460FM-15+013199999V0209999C00001030481CN009999199+02901+02601999999ADDGA1021+006101999GA2041+030481999GE19MSL   +99999+99999GF199999021999006101999999MA1101001999999REMMET058METAR SBIZ 012300Z 00000KT 9999 FEW020 SCT100 29/26 Q1010=
0165825640999992017010200004-05531-047460FM-15+013199999V0202801N00101030481CN009999199+02801+02501999999ADDGA1021+009141999GA2041+030481999GE19MSL   +99999+99999GF199999021999009141999999MA1101101999999REMMET058METAR SBIZ 020000Z 28002KT 9999 FEW030 SCT100 28/25 Q1011=
0072825640999992017010200454-05531-047460FM-16+013199999V0209999C000019999999Y999999999+02801+02501999999ADDMA1101101999999REMMET045SPECI SBIZ 020045Z 00000KT CAVOK 28/25 Q1011=
0142825640999992017010208004-05531-047460FM-15+013199999V0200101N001519999999N009999199+02601+02501999999ADDGA1041+004571999GE19MSL   +99999+99999GF199999041999004571999999MA1101001999999REMMET051METAR SBIZ 020800Z 01003KT 9999 SCT015 26/25 Q1010=
0165825640999992017010209004-05531-047460FM-15+013199999V0209999C000010045719N009999199+02501+02301999999ADDGA1071+004571999GA2071+024381999GE19MSL   +99999+99999GF199999071999004571999999MA1101101999999REMMET058METAR SBIZ 020900Z 00000KT 9999 BKN015 BKN080 25/23 Q1011=
0165825640999992017010210004-05531-047460FM-15+013199999V0209999C000010045719N009999199+02601+02401999999ADDGA1071+004571999GA2071+024381999GE19MSL   +99999+99999GF199999071999004571999999MA1101201999999REMMET058METAR SBIZ 021000Z 00000KT 9999 BKN015 BKN080 26/24 Q1012=
0198825640999992017010211004-05531-047460FM-15+013199999V0209999C00001004571CN007000199+02601+02501999999ADDGA1021+003051999GA2041+004571999GA3071+021341999GE19MSL   +99999+99999GF199999021999003051999999MA1101201999999MW1611REMMET069METAR SBIZ 021100Z 00000KT 7000 -RA FEW010 SCT015 BKN070 26/25 Q1012=
0165825640999992017010213004-05531-047460FM-15+013199999V0200701N00101004571CN009999199+02901+02401999999ADDGA1021+003051999GA2041+004571999GE19MSL   +99999+99999GF199999021999003051999999MA1101301999999REMMET058METAR SBIZ 021300Z 07002KT 9999 FEW010 SCT015 29/24 Q1013=
0165825640999992017010214004-05531-047460FM-15+013199999V0203501N002110243819N009999199+03001+02501999999ADDGA1041+004571999GA2071+024381999GE19MSL   +99999+99999GF199999041999004571999999MA1101201999999REMMET058METAR SBIZ 021400Z 35004KT 9999 SCT015 BKN080 30/25 Q1012=
0165825640999992017010216004-05531-047460FM-15+013199999V0203301N001510045719N009999199+03001+02601999999ADDGA1071+004571999GA2071+024381999GE19MSL   +99999+99999GF199999071999004571999999MA1101101999999REMMET058METAR SBIZ 021600Z 33003KT 9999 BKN015 BKN080 30/26 Q1011=
0165825640999992017010217004-05531-047460FM-15+013199999V0200601N001510243819N009999199+02801+02601999999ADDGA1041+007621999GA2071+024381999GE19MSL   +99999+99999GF199999041999007621999999MA1101101999999REMMET058METAR SBIZ 021700Z 06003KT 9999 SCT025 BKN080 28/26 Q1011=
0165825640999992017010219004-05531-047460FM-15+013199999V0209999C000010243819N009999199+02901+02501999999ADDGA1041+007621999GA2071+024381999GE19MSL   +99999+99999GF199999041999007621999999MA1100901999999REMMET058METAR SBIZ 021900Z 00000KT 9999 SCT025 BKN080 29/25 Q1009=
0165825640999992017010220004-05531-047460FM-15+013199999V0209999C000010213419N009999199+02801+02601999999ADDGA1021+007621999GA2071+021341999GE19MSL   +99999+99999GF199999021999007621999999MA1100901999999REMMET058METAR SBIZ 022000Z 00000KT 9999 FEW025 BKN070 28/26 Q1009=
0165825640999992017010222004-05531-047460FM-15+013199999V0209999C000010213419N009999199+02701+02601999999ADDGA1021+006101999GA2071+021341999GE19MSL   +99999+99999GF199999021999006101999999MA1101001999999REMMET058METAR SBIZ 022200Z 00000KT 9999 FEW020 BKN070 27/26 Q1010=
0165825640999992017010223004-05531-047460FM-15+013199999V0209999C000010213419N009999199+02701+02601999999ADDGA1041+006101999GA2071+021341999GE19MSL   +99999+99999GF199999041999006101999999MA1101001999999REMMET058METAR SBIZ 022300Z 00000KT 9999 SCT020 BKN070 27/26 Q1010=
0165825640999992017010300004-05531-047460FM-15+013199999V0209999C000010213419N009999199+02701+02601999999ADDGA1041+006101999GA2071+021341999GE19MSL   +99999+99999GF199999041999006101999999MA1101101999999REMMET058METAR SBIZ 030000Z 00000KT 9999 SCT020 BKN070 27/26 Q1011=
0165825640999992017010300454-05531-047460FM-16+013199999V0200301N002610213419N009999199+02701+02601999999ADDGA1041+006101999GA2071+021341999GE19MSL   +99999+99999GF199999041999006101999999MA1101101999999REMMET058SPECI SBIZ 030045Z 03005KT 9999 SCT020 BKN070 27/26 Q1011=
0165825640999992017010308004-05531-047460FM-15+013199999V0209999C000010243819N009999199+02601+02401999999ADDGA1021+006101999GA2071+024381999GE19MSL   +99999+99999GF199999021999006101999999MA1101001999999REMMET058METAR SBIZ 030800Z 00000KT 9999 FEW020 BKN080 26/24 Q1010=
0165825640999992017010309004-05531-047460FM-15+013199999V0200601N001010243819N009999199+02501+02401999999ADDGA1041+009141999GA2071+024381999GE19MSL   +99999+99999GF199999041999009141999999MA1101101999999REMMET058METAR SBIZ 030900Z 06002KT 9999 SCT030 BKN080 25/24 Q1011=
0165825640999992017010310004-05531-047460FM-15+013199999V0200601N001010061019N009999199+02501+02401999999ADDGA1071+006101999GA2071+024381999GE19MSL   +99999+99999GF199999071999006101999999MA1101201999999REMMET058METAR SBIZ 031000Z 06002KT 9999 BKN020 BKN080 25/24 Q1012=
0165825640999992017010311004-05531-047460FM-15+013199999V0209999C00001024381CN009999199+02601+02301999999ADDGA1041+009141999GA2041+024381999GE19MSL   +99999+99999GF199999041999009141999999MA1101201999999REMMET058METAR SBIZ 031100Z 00000KT 9999 SCT030 SCT080 26/23 Q1012=
0165825640999992017010312004-05531-047460FM-15+013199999V0200301N001510045719N009999199+02701+02401999999ADDGA1071+004571999GA2081+024381999GE19MSL   +99999+99999GF199999071999004571999999MA1101301999999REMMET058METAR SBIZ 031200Z 03003KT 9999 BKN015 OVC080 27/24 Q1013=
0165825640999992017010313004-05531-047460FM-15+013199999V0200601N001510243819N009999199+02801+02501999999ADDGA1041+006101999GA2071+024381999GE19MSL   +99999+99999GF199999041999006101999999MA1101301999999REMMET058METAR SBIZ 031300Z 06003KT 9999 SCT020 BKN080 28/25 Q1013=
0165825640999992017010314004-05531-047460FM-15+013199999V0200301N001510061019N009999199+02901+02501999999ADDGA1071+006101999GA2071+024381999GE19MSL   +99999+99999GF199999071999006101999999MA1101201999999REMMET058METAR SBIZ 031400Z 03003KT 9999 BKN020 BKN080 29/25 Q1012=
0188825640999992017010315004-05531-047460FM-15+013199999V0201101N00151007621CN009999199+03001+02501999999ADDGA1041+006101999GA2041+007621999GA3071+024381999GE19MSL   +99999+99999GF199999041999006101999999MA1101201999999REMMET065METAR SBIZ 031500Z 11003KT 9999 SCT020 SCT025 BKN080 30/25 Q1012=
0165825640999992017010316004-05531-047460FM-15+013199999V0201001N00101009141CN009999199+03201+02301999999ADDGA1041+007621999GA2041+009141999GE19MSL   +99999+99999GF199999041999007621999999MA1101101999999REMMET058METAR SBIZ 031600Z 10002KT 9999 SCT025 SCT030 32/23 Q1011=
0188825640999992017010317004-05531-047460FM-15+013199999V0203501N00151007621CN009999199+02901+02501999999ADDGA1021+006101999GA2041+007621999GA3071+030481999GE19MSL   +99999+99999GF199999021999006101999999MA1101001999999REMMET065METAR SBIZ 031700Z 35003KT 9999 FEW020 SCT025 BKN100 29/25 Q1010=
0165825640999992017010320004-05531-047460FM-15+013199999V0201601N001010304819N009999199+02901+02401999999ADDGA1041+006101999GA2071+030481999GE19MSL   +99999+99999GF199999041999006101999999MA1100801999999REMMET058METAR SBIZ 032000Z 16002KT 9999 SCT020 BKN100 29/24 Q1008=
0165825640999992017010322004-05531-047460FM-15+013199999V0209999C000010061019N009999199+02601+02401999999ADDGA1071+006101999GA2081+027431999GE19MSL   +99999+99999GF199999071999006101999999MA1100901999999REMMET058METAR SBIZ 032200Z 00000KT 9999 BKN020 OVC090 26/24 Q1009=
0165825640999992017010323004-05531-047460FM-15+013199999V0209999C000010274319N009999199+02601+02401999999ADDGA1041+006101999GA2071+027431999GE19MSL   +99999+99999GF199999041999006101999999MA1100901999999REMMET058METAR SBIZ 032300Z 00000KT 9999 SCT020 BKN090 26/24 Q1009=
0072825640999992017010400004-05531-047460FM-15+013199999V0209999C000019999999Y999999999+02601+02401999999ADDMA1101001999999REMMET045METAR SBIZ 040000Z 00000KT CAVOK 26/24 Q1010=
0072825640999992017010400454-05531-047460FM-16+013199999V0209999C000019999999Y999999999+02501+02401999999ADDMA1101001999999REMMET045SPECI SBIZ 040045Z 00000KT CAVOK 25/24 Q1010=
0142825640999992017010407154-05531-047460FM-16+013199999V0209999C000019999999N009999199+02401+02401999999ADDGA1041+004571999GE19MSL   +99999+99999GF199999041999004571999999MA1101001999999REMMET051SPECI SBIZ 040715Z 00000KT 9999 SCT015 24/24 Q1010=
0142825640999992017010409004-05531-047460FM-15+013199999V0201101N000519999999N009999199+02401+02401999999ADDGA1041+004571999GE19MSL   +99999+99999GF199999041999004571999999MA1101101999999REMMET051METAR SBIZ 040900Z 11001KT 9999 SCT015 24/24 Q1011=
0142825640999992017010410004-05531-047460FM-15+013199999V0209999C000019999999N009999199+02501+02401999999ADDGA1021+004571999GE19MSL   +99999+99999GF199999021999004571999999MA1101101999999REMMET051METAR SBIZ 041000Z 00000KT 9999 FEW015 25/24 Q1011=
0142825640999992017010412004-05531-047460FM-15+013199999V0201101N002610045719N009999199+02801+02401999999ADDGA1071+004571999GE19MSL   +99999+99999GF199999071999004571999999MA1101201999999REMMET051METAR SBIZ 041200Z 11005KT 9999 BKN015 28/24 Q1012=
0142825640999992017010413004-05531-047460FM-15+013199999V0201801N001510054919N009999199+02901+02401999999ADDGA1071+005491999GE19MSL   +99999+99999GF199999071999005491999999MA1101301999999REMMET051METAR SBIZ 041300Z 18003KT 9999 BKN018 29/24 Q1013=
0191825640999992017010415004-05531-047460FM-15+013199999V0200701N003110061019N009999199+03201+02201999999ADDGA1041+004571999GA2071+006101999GA3021+008231081GE19MSL   +99999+99999GF199999041999004571999999MA1101201999999REMMET068METAR SBIZ 041500Z 07006KT 9999 SCT015 BKN020 FEW027TCU 32/22 Q1012=
0191825640999992017010416004-05531-047460FM-15+013199999V0201201N004110070119N009999199+03201+02301999999ADDGA1021+004571999GA2071+007011999GA3021+008231081GE19MSL   +99999+99999GF199999021999004571999999MA1101101999999REMMET068METAR SBIZ 041600Z 12008KT 9999 FEW015 BKN023 FEW027TCU 32/23 Q1011=
0165825640999992017010417004-05531-047460FM-15+013199999V0201901N00101006711CN009999199+03201+02401999999ADDGA1021+004881999GA2041+006711999GE19MSL   +99999+99999GF199999021999004881999999MA1101001999999REMMET058METAR SBIZ 041700Z 19002KT 9999 FEW016 SCT022 32/24 Q1010=
0191825640999992017010418004-05531-047460FM-15+013199999V0201001N002110073219N009999199+03401+02201999999ADDGA1021+005491999GA2071+007321999GA3021+009141081GE19MSL   +99999+99999GF199999021999005491999999MA1100901999999REMMET068METAR SBIZ 041800Z 10004KT 9999 FEW018 BKN024 FEW030TCU 34/22 Q1009=
0142825640999992017010420004-05531-047460FM-15+013199999V0202401N002119999999N009999199+03201+02501999999ADDGA1041+006101999GE19MSL   +99999+99999GF199999041999006101999999MA1100801999999REMMET051METAR SBIZ 042000Z 24004KT 9999 SCT020 32/25 Q1008=
0142825640999992017010421004-05531-047460FM-15+013199999V0202301N001519999999N009999199+03201+02401999999ADDGA1021+006101999GE19MSL   +99999+99999GF199999021999006101999999MA1100801999999REMMET051METAR SBIZ 042100Z 23003KT 9999 FEW020 32/24 Q1008=
0142825640999992017010422004-05531-047460FM-15+013199999V0202401N001019999999N009999199+03001+02501999999ADDGA1021+006101999GE19MSL   +99999+99999GF199999021999006101999999MA1100801999999REMMET051METAR SBIZ 042200Z 24002KT 9999 FEW020 30/25 Q1008=
0072825640999992017010423004-05531-047460FM-15+013199999V0209999C000019999999Y999999999+02901+02501999999ADDMA1100801999999REMMET045METAR SBIZ 042300Z 00000KT CAVOK 29/25 Q1008=
0072825640999992017010500004-05531-047460FM-15+013199999V0209999C000019999999Y999999999+02801+02501999999ADDMA1100901999999REMMET045METAR SBIZ 050000Z 00000KT CAVOK 28/25 Q1009=
0072825640999992017010500454-05531-047460FM-16+013199999V0209999C000019999999Y999999999+02701+02601999999ADDMA1101001999999REMMET045SPECI SBIZ 050045Z 00000KT CAVOK 27/26 Q1010=
0142825640999992017010507154-05531-047460FM-16+013199999V0209999C000019999999N009999199+02501+02401999999ADDGA1021+004571999GE19MSL   +99999+99999GF199999021999004571999999MA1101001999999REMMET051SPECI SBIZ 050715Z 00000KT 9999 FEW015 25/24 Q1010=
0142825640999992017010508004-05531-047460FM-15+013199999V0209999C000019999999N009999199+02501+02401999999ADDGA1021+004571999GE19MSL   +99999+99999GF199999021999004571999999MA1101001999999REMMET051METAR SBIZ 050800Z 00000KT 9999 FEW015 25/24 Q1010=
0165825640999992017010510004-05531-047460FM-15+013199999V0209999C000010091419N009999199+02501+02401999999ADDGA1021+004571999GA2071+009141999GE19MSL   +99999+99999GF199999021999004571999999MA1101201999999REMMET058METAR SBIZ 051000Z 00000KT 9999 FEW015 BKN030 25/24 Q1012=
0165825640999992017010511004-05531-047460FM-15+013199999V0209999C00001010671CN009999199+02701+02401999999ADDGA1021+004571999GA2041+010671999GE19MSL   +99999+99999GF199999021999004571999999MA1101201999999REMMET058METAR SBIZ 051100Z 00000KT 9999 FEW015 SCT035 27/24 Q1012=
0142825640999992017010512004-05531-047460FM-15+013199999V0200901N002619999999N009999199+02901+02501999999ADDGA1041+005491999GE19MSL   +99999+99999GF199999041999005491999999MA1101301999999REMMET051METAR SBIZ 051200Z 09005KT 9999 SCT018 29/25 Q1013=
0142825640999992017010513004-05531-047460FM-15+013199999V0201301N002110061019N009999199+02901+02501999999ADDGA1071+006101999GE19MSL   +99999+99999GF199999071999006101999999MA1101301999999REMMET051METAR SBIZ 051300Z 13004KT 9999 BKN020 29/25 Q1013=
0142825640999992017010515004-05531-047460FM-15+013199999V0200701N003610054919N009999199+03101+02401999999ADDGA1071+005491999GE19MSL   +99999+99999GF199999071999005491999999MA1101201999999REMMET051METAR SBIZ 051500Z 07007KT 9999 BKN018 31/24 Q1012=
0142825640999992017010516004-05531-047460FM-15+013199999V0201601N002110061019N009999199+03201+02401999999ADDGA1071+006101999GE19MSL   +99999+99999GF199999071999006101999999MA1101101999999REMMET051METAR SBIZ 051600Z 16004KT 9999 BKN020 32/24 Q1011=
0142825640999992017010517004-05531-047460FM-15+013199999V0200501N002119999999N009999199+03201+02401999999ADDGA1041+006101999GE19MSL   +99999+99999GF199999041999006101999999MA1101001999999REMMET051METAR SBIZ 051700Z 05004KT 9999 SCT020 32/24 Q1010=
0215825640999992017010518004-05531-047460FM-15+013199999V0202401N003610045719N009999199+02501+02301999999ADDGA1071+004571999GA2021+009141091GA3071+021341999GE19MSL   +99999+99999GF199999071999004571999999MA1100901999999MW1161MW2171REMMET080METAR SBIZ 051800Z 24007KT 9999 TS VCSH BKN015 FEW030CB BKN070 25/23 Q1009 RERA=
0195825640999992017010519004-05531-047460FM-15+013199999V0209999C000010213419N009999199+02701+02501999999ADDGA1041+006101999GA2021+009141091GA3071+021341999GE19MSL   +99999+99999GF199999041999006101999999MA1100901999999REMMET072METAR SBIZ 051900Z 00000KT 9999 SCT020 FEW030CB BKN070 27/25 Q1009 RETS=
0165825640999992017010520004-05531-047460FM-15+013199999V0202601N000510304819N009999199+02801+02601999999ADDGA1021+007621999GA2071+030481999GE19MSL   +99999+99999GF199999021999007621999999MA1100901999999REMMET058METAR SBIZ 052000Z 26001KT 9999 FEW025 BKN100 28/26 Q1009=
0142825640999992017010521004-05531-047460FM-15+013199999V0202301N001019999999N009999199+02801+02501999999ADDGA1021+008531999GE19MSL   +99999+99999GF199999021999008531999999MA1100901999999REMMET051METAR SBIZ 052100Z 23002KT 9999 FEW028 28/25 Q1009=
0142825640999992017010600004-05531-047460FM-15+013199999V0209999C000019999999N009999199+02601+02401999999ADDGA1021+006101999GE19MSL   +99999+99999GF199999021999006101999999MA1101001999999REMMET051METAR SBIZ 060000Z 00000KT 9999 FEW020 26/24 Q1010=
0101825640999992017010608004-05531-047460FM-15+013199999V0200401N002612200019N009000199+02401+02401999999ADDGF100991999999999999999999MA1101001999999REMMET048METAR SBIZ 060800Z 04005KT 9000 NSC 24/24 Q1010=
0165825640999992017010609004-05531-047460FM-15+013199999V0209999C000010243819N009999199+02401+02401999999ADDGA1041+006101999GA2081+024381999GE19MSL   +99999+99999GF199999041999006101999999MA1101001999999REMMET058METAR SBIZ 060900Z 00000KT 9999 SCT020 OVC080 24/24 Q1010=
0165825640999992017010610004-05531-047460FM-15+013199999V0209999C000010061019N009000199+02501+02401999999ADDGA1071+006101999GA2081+024381999GE19MSL   +99999+99999GF199999071999006101999999MA1101101999999REMMET058METAR SBIZ 061000Z 00000KT 9000 BKN020 OVC080 25/24 Q1011=
0165825640999992017010611004-05531-047460FM-15+013199999V0209999C000010243819N009000199+02501+02501999999ADDGA1041+004571999GA2081+024381999GE19MSL   +99999+99999GF199999041999004571999999MA1101201999999REMMET058METAR SBIZ 061100Z 00000KT 9000 SCT015 OVC080 25/25 Q1012=
0165825640999992017010612004-05531-047460FM-15+013199999V0209999C000010243819N009999199+02701+02501999999ADDGA1021+006101999GA2081+024381999GE19MSL   +99999+99999GF199999021999006101999999MA1101201999999REMMET058METAR SBIZ 061200Z 00000KT 9999 FEW020 OVC080 27/25 Q1012=
0188825640999992017010613004-05531-047460FM-15+013199999V0201501N00261007621CN009999199+02901+02401999999ADDGA1021+005181999GA2041+007621999GA3081+024381999GE19MSL   +99999+99999GF199999021999005181999999MA1101301999999REMMET065METAR SBIZ 061300Z 15005KT 9999 FEW017 SCT025 OVC080 29/24 Q1013=
0165825640999992017010615004-05531-047460FM-15+013199999V0202401N000510076219N009999199+03101+02501999999ADDGA1041+005491999GA2071+007621999GE19MSL   +99999+99999GF199999041999005491999999MA1101201999999REMMET058METAR SBIZ 061500Z 24001KT 9999 SCT018 BKN025 31/25 Q1012=
0165825640999992017010616004-05531-047460FM-15+013199999V0200901N003110076219N009999199+03301+02401999999ADDGA1041+005491999GA2071+007621999GE19MSL   +99999+99999GF199999041999005491999999MA1101101999999REMMET058METAR SBIZ 061600Z 09006KT 9999 SCT018 BKN025 33/24 Q1011=
0165825640999992017010617004-05531-047460FM-15+013199999V0200901N003110076219N009999199+03301+02301999999ADDGA1071+007621999GA2041+024381999GE19MSL   +99999+99999GF199999071999007621999999MA1101001999999REMMET058METAR SBIZ 061700Z 09006KT 9999 BKN025 SCT080 33/23 Q1010=
0165825640999992017010618004-05531-047460FM-15+013199999V0202401N00361024381CN009999199+03301+02501999999ADDGA1041+006101999GA2041+024381999GE19MSL   +99999+99999GF199999041999006101999999MA1100901999999REMMET058METAR SBIZ 061800Z 24007KT 9999 SCT020 SCT080 33/25 Q1009=
0165825640999992017010619004-05531-047460FM-15+013199999V0201501N001510243819N009999199+03301+02401999999ADDGA1021+007621999GA2071+024381999GE19MSL   +99999+99999GF199999021999007621999999MA1100801999999REMMET058METAR SBIZ 061900Z 15003KT 9999 FEW025 BKN080 33/24 Q1008=
0142825640999992017010620004-05531-047460FM-15+013199999V0202301N002619999999N009999199+03401+02501999999ADDGA1041+007621999GE19MSL   +99999+99999GF199999041999007621999999MA1100801999999REMMET051METAR SBIZ 062000Z 23005KT 9999 SCT025 34/25 Q1008=
0142825640999992017010622004-05531-047460FM-15+013199999V0209999C000019999999N009999199+03101+02401999999ADDGA1021+007621999GE19MSL   +99999+99999GF199999021999007621999999MA1100901999999REMMET051METAR SBIZ 062200Z 00000KT 9999 FEW025 31/24 Q1009=
0072825640999992017010623004-05531-047460FM-15+013199999V0209999C000019999999Y999999999+02901+02501999999ADDMA1100901999999REMMET045METAR SBIZ 062300Z 00000KT CAVOK 29/25 Q1009=
0072825640999992017010700004-05531-047460FM-15+013199999V0209999C000019999999Y999999999+02901+02601999999ADDMA1101001999999REMMET045METAR SBIZ 070000Z 00000KT CAVOK 29/26 Q1010=
0072825640999992017010700454-05531-047460FM-16+013199999V0209999C000019999999Y999999999+02701+02501999999ADDMA1101101999999REMMET045SPECI SBIZ 070045Z 00000KT CAVOK 27/25 Q1011=
0142825640999992017010709004-05531-047460FM-15+013199999V0209999C000010121919N009999199+02501+02401999999ADDGA1071+012191999GE19MSL   +99999+99999GF199999071999012191999999MA1101101999999REMMET051METAR SBIZ 070900Z 00000KT 9999 BKN040 25/24 Q1011=
0165825640999992017010710004-05531-047460FM-15+013199999V0209999C000010121919N009999199+02501+02401999999ADDGA1041+005491999GA2071+012191999GE19MSL   +99999+99999GF199999041999005491999999MA1101201999999REMMET058METAR SBIZ 071000Z 00000KT 9999 SCT018 BKN040 25/24 Q1012=
0142825640999992017010712004-05531-047460FM-15+013199999V0202401N001010054919N009999199+02701+02401999999ADDGA1071+005491999GE19MSL   +99999+99999GF199999071999005491999999MA1101401999999REMMET051METAR SBIZ 071200Z 24002KT 9999 BKN018 27/24 Q1014=
0142825640999992017010713004-05531-047460FM-15+013199999V0209999C000010045719N009999199+02901+02401999999ADDGA1071+004571999GE19MSL   +99999+99999GF199999071999004571999999MA1101401999999REMMET051METAR SBIZ 071300Z 00000KT 9999 BKN015 29/24 Q1014=
0165825640999992017010714004-05531-047460FM-15+013199999V0202101N001010076219N009999199+03001+02401999999ADDGA1041+004571999GA2071+007621999GE19MSL   +99999+99999GF199999041999004571999999MA1101401999999REMMET058METAR SBIZ 071400Z 21002KT 9999 SCT015 BKN025 30/24 Q1014=
0142825640999992017010715004-05531-047460FM-15+013199999V0201201N002610076219N009999199+03201+02501999999ADDGA1071+007621999GE19MSL   +99999+99999GF199999071999007621999999MA1101301999999REMMET051METAR SBIZ 071500Z 12005KT 9999 BKN025 32/25 Q1013=
0165825640999992017010716004-05531-047460FM-15+013199999V0200801N00261024381CN009999199+03201+02501999999ADDGA1041+007621999GA2041+024381999GE19MSL   +99999+99999GF199999041999007621999999MA1101201999999REMMET058METAR SBIZ 071600Z 08005KT 9999 SCT025 SCT080 32/25 Q1012=
0165825640999992017010717004-05531-047460FM-15+013199999V0203301N002610054919N009999199+03201+02401999999ADDGA1071+005491999GA2041+021341999GE19MSL   +99999+99999GF199999071999005491999999MA1101101999999REMMET058METAR SBIZ 071700Z 33005KT 9999 BKN018 SCT070 32/24 Q1011=
0165825640999992017010718004-05531-047460FM-15+013199999V0209999C000010243819N009999199+03101+02401999999ADDGA1041+007621999GA2071+024381999GE19MSL   +99999+99999GF199999041999007621999999MA1100901999999REMMET058METAR SBIZ 071800Z 00000KT 9999 SCT025 BKN080 31/24 Q1009=
0165825640999992017010719004-05531-047460FM-15+013199999V0202401N001010243819N009999199+03101+02501999999ADDGA1021+007621999GA2071+024381999GE19MSL   +99999+99999GF199999021999007621999999MA1100801999999REMMET058METAR SBIZ 071900Z 24002KT 9999 FEW025 BKN080 31/25 Q1008=
0165825640999992017010720004-05531-047460FM-15+013199999V0209999C000010243819N009999199+03201+02401999999ADDGA1021+007621999GA2071+024381999GE19MSL   +99999+99999GF199999021999007621999999MA1100801999999REMMET058METAR SBIZ 072000Z 00000KT 9999 FEW025 BKN080 32/24 Q1008=
0103825640999992017010721004-05531-047460FM-15+013199999V0202501N002119999999N999999999+03105+02505999999ADDMA1100805999999REMMET057METAR SBIZ 072100Z 25004KT 999 FEW020 BKN080 31/25 Q1008=EQDD01      0ADE693
0165825640999992017010722004-05531-047460FM-15+013199999V0203601N005110304819N009999199+02901+02501999999ADDGA1021+008531999GA2071+030481999GE19MSL   +99999+99999GF199999021999008531999999MA1100901999999REMMET058METAR SBIZ 072200Z 36010KT 9999 FEW028 BKN100 29/25 Q1009=
0155825640999992017010723004-05531-047460FM-15+013199999V0200201N003119999999N009999199+02801+02401999999ADDGA1021+008531091GE19MSL   +99999+99999GF199999021999008531999999MA1101001999999MW1131REMMET058METAR SBIZ 072300Z 02006KT 9999 VCTS FEW028CB 28/24 Q1010=
0142825640999992017010800004-05531-047460FM-15+013199999V0200301N001019999999N009999199+02801+02501999999ADDGA1021+004571999GE19MSL   +99999+99999GF199999021999004571999999MA1101201999999REMMET051METAR SBIZ 080000Z 03002KT 9999 FEW015 28/25 Q1012=
0072825640999992017010800454-05531-047460FM-16+013199999V0200501N004119999999Y999999999+02801+02501999999ADDMA1101101999999REMMET045SPECI SBIZ 080045Z 05008KT CAVOK 28/25 Q1011=
0072825640999992017010807154-05531-047460FM-16+013199999V0200701N002119999999Y999999999+02501+02401999999ADDMA1100901999999REMMET045SPECI SBIZ 080715Z 07004KT CAVOK 25/24 Q1009=
0142825640999992017010809004-05531-047460FM-15+013199999V0200601N002119999999N009999199+02501+02401999999ADDGA1041+009141999GE19MSL   +99999+99999GF199999041999009141999999MA1101001999999REMMET051METAR SBIZ 080900Z 06004KT 9999 SCT030 25/24 Q1010=
0142825640999992017010810004-05531-047460FM-15+013199999V0200601N001019999999N009999199+02601+02401999999ADDGA1041+009141999GE19MSL   +99999+99999GF199999041999009141999999MA1101101999999REMMET051METAR SBIZ 081000Z 06002KT 9999 SCT030 26/24 Q1011=
0142825640999992017010811004-05531-047460FM-15+013199999V0200301N002110045719N009999199+02701+02401999999ADDGA1071+004571999GE19MSL   +99999+99999GF199999071999004571999999MA1101201999999REMMET051METAR SBIZ 081100Z 03004KT 9999 BKN015 27/24 Q1012=
0142825640999992017010812004-05531-047460FM-15+013199999V0200601N004110054919N009999199+02901+02401999999ADDGA1071+005491999GE19MSL   +99999+99999GF199999071999005491999999MA1101201999999REMMET051METAR SBIZ 081200Z 06008KT 9999 BKN018 29/24 Q1012=
0165825640999992017010813004-05531-047460FM-15+013199999V0200601N004110076219N009999199+03001+02401999999ADDGA1021+005491999GA2071+007621999GE19MSL   +99999+99999GF199999021999005491999999MA1101201999999REMMET058METAR SBIZ 081300Z 06008KT 9999 FEW018 BKN025 30/24 Q1012=
0142825640999992017010815004-05531-047460FM-15+013199999V0200601N004110061019N009999199+03101+02501999999ADDGA1071+006101999GE19MSL   +99999+99999GF199999071999006101999999MA1101201999999REMMET051METAR SBIZ 081500Z 06008KT 9999 BKN020 31/25 Q1012=
0142825640999992017010816004-05531-047460FM-15+013199999V0200501N004610070119N009999199+03301+02401999999ADDGA1071+007011999GE19MSL   +99999+99999GF199999071999007011999999MA1101001999999REMMET051METAR SBIZ 081600Z 05009KT 9999 BKN023 33/24 Q1010=
0142825640999992017010817004-05531-047460FM-15+013199999V0200701N001519999999N009999199+03401+02401999999ADDGA1041+007011999GE19MSL   +99999+99999GF199999041999007011999999MA1100901999999REMMET051METAR SBIZ 081700Z 07003KT 9999 SCT023 34/24 Q1009=
0142825640999992017010818004-05531-047460FM-15+013199999V0201101N003610070119N009999199+03401+02401999999ADDGA1071+007011999GE19MSL   +99999+99999GF199999071999007011999999MA1100801999999REMMET051METAR SBIZ 081800Z 11007KT 9999 BKN023 34/24 Q1008=
0165825640999992017010820004-05531-047460FM-15+013199999V0200101N004110213419N009999199+03101+02501999999ADDGA1041+006101999GA2071+021341999GE19MSL   +99999+99999GF199999041999006101999999MA1100801999999REMMET058METAR SBIZ 082000Z 01008KT 9999 SCT020 BKN070 31/25 Q1008=
0165825640999992017010821004-05531-047460FM-15+013199999V0203401N002110213419N009999199+02901+02401999999ADDGA1041+006401999GA2071+021341999GE19MSL   +99999+99999GF199999041999006401999999MA1100901999999REMMET058METAR SBIZ 082100Z 34004KT 9999 SCT021 BKN070 29/24 Q1009=
0165825640999992017010822004-05531-047460FM-15+013199999V0202601N004110213419N009999199+02901+02401999999ADDGA1041+005491999GA2081+021341999GE19MSL   +99999+99999GF199999041999005491999999MA1101101999999REMMET058METAR SBIZ 082200Z 26008KT 9999 SCT018 OVC070 29/24 Q1011=
0165825640999992017010823004-05531-047460FM-15+013199999V0202501N00311021341CN009999199+02701+02301999999ADDGA1021+006101999GA2041+021341999GE19MSL   +99999+99999GF199999021999006101999999MA1101101999999REMMET058METAR SBIZ 082300Z 25006KT 9999 FEW020 SCT070 27/23 Q1011=
0165825640999992017010900004-05531-047460FM-15+013199999V0209999C00001024381CN009999199+02601+02301999999ADDGA1021+006101999GA2041+024381999GE19MSL   +99999+99999GF199999021999006101999999MA1101201999999REMMET058METAR SBIZ 090000Z 00000KT 9999 FEW020 SCT080 26/23 Q1012=
0165825640999992017010900454-05531-047460FM-16+013199999V0209999C00001024381CN009999199+02501+02201999999ADDGA1021+006101999GA2041+024381999GE19MSL   +99999+99999GF199999021999006101999999MA1101201999999REMMET058SPECI SBIZ 090045Z 00000KT 9999 FEW020 SCT080 25/22 Q1012=
0142825640999992017010908004-05531-047460FM-15+013199999V0200101N001019999999N009999199+02401+02301999999ADDGA1021+004571999GE19MSL   +99999+99999GF199999021999004571999999MA1101001999999REMMET051METAR SBIZ 090800Z 01002KT 9999 FEW015 24/23 Q1010=
0142825640999992017010909004-05531-047460FM-15+013199999V0200301N001019999999N009999199+02401+02301999999ADDGA1021+004571999GE19MSL   +99999+99999GF199999021999004571999999MA1101101999999REMMET051METAR SBIZ 090900Z 03002KT 9999 FEW015 24/23 Q1011=
0142825640999992017010910004-05531-047460FM-15+013199999V0200201N004119999999N009999199+02501+02301999999ADDGA1021+005491999GE19MSL   +99999+99999GF199999021999005491999999MA1101101999999REMMET051METAR SBIZ 091000Z 02008KT 9999 FEW018 25/23 Q1011=
0142825640999992017010912004-05531-047460FM-15+013199999V0200501N002110054919N009999199+02701+02401999999ADDGA1071+005491999GE19MSL   +99999+99999GF199999071999005491999999MA1101301999999REMMET051METAR SBIZ 091200Z 05004KT 9999 BKN018 27/24 Q1013=
0127825640999992017010913004-05531-047460FM-15+013199999V0209999N999990061019N009999199+99999+99999999999ADDGA1071+006101999GE19MSL   +99999+99999GF199999071999006101999999REMMET051METAR SBIZ 091300Z /////// 9999 BKN020 ///// Q////=
0188825640999992017010915004-05531-047460FM-15+013199999V0200101N00461007011CN009999199+03001+02401999999ADDGA1041+005491999GA2041+007011999GA3071+024381999GE19MSL   +99999+99999GF199999041999005491999999MA1101301999999REMMET065METAR SBIZ 091500Z 01009KT 9999 SCT018 SCT023 BKN080 30/24 Q1013=
0188825640999992017010916004-05531-047460FM-15+013199999V0202701N00361007011CN009999199+03001+02401999999ADDGA1041+005181999GA2041+007011999GA3071+024381999GE19MSL   +99999+99999GF199999041999005181999999MA1101101999999REMMET065METAR SBIZ 091600Z 27007KT 9999 SCT017 SCT023 BKN080 30/24 Q1011=
0188825640999992017010918004-05531-047460FM-15+013199999V0200901N00101007621CN009999199+03101+02301999999ADDGA1041+006101999GA2041+007621999GA3071+024381999GE19MSL   +99999+99999GF199999041999006101999999MA1100901999999REMMET065METAR SBIZ 091800Z 09002KT 9999 SCT020 SCT025 BKN080 31/23 Q1009=
0165825640999992017010919004-05531-047460FM-15+013199999V0200901N00101024381CN009999199+03201+02301999999ADDGA1021+007621999GA2041+024381999GE19MSL   +99999+99999GF199999021999007621999999MA1100801999999REMMET058METAR SBIZ 091900Z 09002KT 9999 FEW025 SCT080 32/23 Q1008=
0142825640999992017010920004-05531-047460FM-15+013199999V0201201N002619999999N009999199+03301+02401999999ADDGA1041+007621999GE19MSL   +99999+99999GF199999041999007621999999MA1100901999999REMMET051METAR SBIZ 092000Z 12005KT 9999 SCT025 33/24 Q1009=
0142825640999992017010921004-05531-047460FM-15+013199999V0200901N002619999999N009999199+03201+02401999999ADDGA1041+006101999GE19MSL   +99999+99999GF199999041999006101999999MA1100901999999REMMET051METAR SBIZ 092100Z 09005KT 9999 SCT020 32/24 Q1009=
0142825640999992017010922004-05531-047460FM-15+013199999V0200601N002119999999N009999199+03001+02301999999ADDGA1041+006101999GE19MSL   +99999+99999GF199999041999006101999999MA1101001999999REMMET051METAR SBIZ 092200Z 06004KT 9999 SCT020 30/23 Q1010=
0142825640999992017010923004-05531-047460FM-15+013199999V0203601N003119999999N009999199+02801+02401999999ADDGA1041+006101999GE19MSL   +99999+99999GF199999041999006101999999MA1101101999999REMMET051METAR SBIZ 092300Z 36006KT 9999 SCT020 28/24 Q1011=
0175825640999992017011000004-05531-047460FM-15+013199999V0201501N002610213419N008000199+02601+02501999999ADDGA1041+004571999GA2071+021341999GE19MSL   +99999+99999GF199999041999004571999999MA1101101999999MW1611REMMET062METAR SBIZ 100000Z 15005KT 8000 -RA SCT015 BKN070 26/25 Q1011=
0165825640999992017011000454-05531-047460FM-16+013199999V0201301N003110213419N009999199+02501+02401999999ADDGA1041+004571999GA2071+021341999GE19MSL   +99999+99999GF199999041999004571999999MA1101201999999REMMET058SPECI SBIZ 100045Z 13006KT 9999 SCT015 BKN070 25/24 Q1012=
0142825640999992017011008004-05531-047460FM-15+013199999V0209999C000019999999N009999199+02401+02401999999ADDGA1021+003051999GE19MSL   +99999+99999GF199999021999003051999999MA1100901999999REMMET051METAR SBIZ 100800Z 00000KT 9999 FEW010 24/24 Q1009=
0188825640999992017011009004-05531-047460FM-15+013199999V0203001N002110045719N009999199+02401+02301999999ADDGA1021+002441999GA2071+004571999GA3071+021341999GE19MSL   +99999+99999GF199999021999002441999999MA1101001999999REMMET065METAR SBIZ 100900Z 30004KT 9999 FEW008 BKN015 BKN070 24/23 Q1010=
0188825640999992017011010004-05531-047460FM-15+013199999V0200601N002610045719N009999199+02401+02401999999ADDGA1021+003051999GA2071+004571999GA3071+021341999GE19MSL   +99999+99999GF199999021999003051999999MA1101101999999REMMET065METAR SBIZ 101000Z 06005KT 9999 FEW010 BKN015 BKN070 24/24 Q1011=
0165825640999992017011011004-05531-047460FM-15+013199999V0200501N003110213419N009999199+02501+02301999999ADDGA1021+003961999GA2071+021341999GE19MSL   +99999+99999GF199999021999003961999999MA1101101999999REMMET058METAR SBIZ 101100Z 05006KT 9999 FEW013 BKN070 25/23 Q1011=
0188825640999992017011012004-05531-047460FM-15+013199999V0200901N00361006101CN009999199+02801+02401999999ADDGA1041+004571999GA2041+006101999GA3071+021341999GE19MSL   +99999+99999GF199999041999004571999999MA1101201999999REMMET065METAR SBIZ 101200Z 09007KT 9999 SCT015 SCT020 BKN070 28/24 Q1012=
0188825640999992017011013004-05531-047460FM-15+013199999V0200801N00411005491CN009999199+02901+02401999999ADDGA1021+003961999GA2041+005491999GA3071+021341999GE19MSL   +99999+99999GF199999021999003961999999MA1101201999999REMMET065METAR SBIZ 101300Z 08008KT 9999 FEW013 SCT018 BKN070 29/24 Q1012=
0188825640999992017011014004-05531-047460FM-15+013199999V0200901N005110076219N009999199+03001+02301999999ADDGA1021+006101999GA2071+007621999GA3071+030481999GE19MSL   +99999+99999GF199999021999006101999999MA1101201999999REMMET065METAR SBIZ 101400Z 09010KT 9999 FEW020 BKN025 BKN100 30/23 Q1012=
0165825640999992017011016004-05531-047460FM-15+013199999V0201201N00261009141CN009999199+03201+02301999999ADDGA1021+007621999GA2041+009141999GE19MSL   +99999+99999GF199999021999007621999999MA1101101999999REMMET058METAR SBIZ 101600Z 12005KT 9999 FEW025 SCT030 32/23 Q1011=
0165825640999992017011017004-05531-047460FM-15+013199999V0200601N00361009141CN009999199+03201+02301999999ADDGA1021+007621999GA2041+009141999GE19MSL   +99999+99999GF199999021999007621999999MA1100901999999REMMET058METAR SBIZ 101700Z 06007KT 9999 FEW025 SCT030 32/23 Q1009=
0165825640999992017011019004-05531-047460FM-15+013199999V0200301N00261010671CN009999199+03301+02301999999ADDGA1021+007621999GA2041+010671999GE19MSL   +99999+99999GF199999021999007621999999MA1100701999999REMMET058METAR SBIZ 101900Z 03005KT 9999 FEW025 SCT035 33/23 Q1007=
0142825640999992017011020004-05531-047460FM-15+013199999V0209999C000019999999N009999199+03301+02401999999ADDGA1041+007621999GE19MSL   +99999+99999GF199999041999007621999999MA1100701999999REMMET051METAR SBIZ 102000Z 00000KT 9999 SCT025 33/24 Q1007=
0165825640999992017011021004-05531-047460FM-15+013199999V0209999C00001024381CN009999199+03201+02501999999ADDGA1021+007621999GA2041+024381999GE19MSL   +99999+99999GF199999021999007621999999MA1100701999999REMMET058METAR SBIZ 102100Z 00000KT 9999 FEW025 SCT080 32/25 Q1007=
0142825640999992017011022004-05531-047460FM-15+013199999V0200801N001019999999N009999199+03101+02301999999ADDGA1041+008531999GE19MSL   +99999+99999GF199999041999008531999999MA1100801999999REMMET051METAR SBIZ 102200Z 08002KT 9999 SCT028 31/23 Q1008=
0142825640999992017011023004-05531-047460FM-15+013199999V0200901N003119999999N009999199+02901+02301999999ADDGA1021+004571999GE19MSL   +99999+99999GF199999021999004571999999MA1100901999999REMMET051METAR SBIZ 102300Z 09006KT 9999 FEW015 29/23 Q1009=
0142825640999992017011100004-05531-047460FM-15+013199999V0200801N002119999999N009999199+02901+02401999999ADDGA1021+004571999GE19MSL   +99999+99999GF199999021999004571999999MA1101001999999REMMET051METAR SBIZ 110000Z 08004KT 9999 FEW015 29/24 Q1010=
0072825640999992017011100454-05531-047460FM-16+013199999V0200901N001519999999Y999999999+02801+02401999999ADDMA1101001999999REMMET045SPECI SBIZ 110045Z 09003KT CAVOK 28/24 Q1010=
0165825640999992017011108004-05531-047460FM-15+013199999V0200801N00101021341CN009999199+02501+02301999999ADDGA1021+006101999GA2041+021341999GE19MSL   +99999+99999GF199999021999006101999999MA1101001999999REMMET058METAR SBIZ 110800Z 08002KT 9999 FEW020 SCT070 25/23 Q1010=
0165825640999992017011109004-05531-047460FM-15+013199999V0209999C00001021341CN009999199+02501+02301999999ADDGA1021+006101999GA2041+021341999GE19MSL   +99999+99999GF199999021999006101999999MA1101101999999REMMET058METAR SBIZ 110900Z 00000KT 9999 FEW020 SCT070 25/23 Q1011=
0165825640999992017011110004-05531-047460FM-15+013199999V0209999C00001021341CN009999199+02401+02301999999ADDGA1041+005491999GA2041+021341999GE19MSL   +99999+99999GF199999041999005491999999MA1101201999999REMMET058METAR SBIZ 111000Z 00000KT 9999 SCT018 SCT070 24/23 Q1012=
0165825640999992017011111004-05531-047460FM-15+013199999V0209999C00001021341CN009999199+02601+02401999999ADDGA1041+005181999GA2041+021341999GE19MSL   +99999+99999GF199999041999005181999999MA1101301999999REMMET058METAR SBIZ 111100Z 00000KT 9999 SCT017 SCT070 26/24 Q1013=
0165825640999992017011112004-05531-047460FM-15+013199999V0201901N00101007621CN009999199+02701+02401999999ADDGA1041+006101999GA2041+007621999GE19MSL   +99999+99999GF199999041999006101999999MA1101301999999REMMET058METAR SBIZ 111200Z 19002KT 9999 SCT020 SCT025 27/24 Q1013=
0214825640999992017011113004-05531-047460FM-15+013199999V0201001N00511007621CN009999199+03001+02301999999ADDGA1021+005181999GA2041+007621999GA3021+009141081GA4071+021341999GE19MSL   +99999+99999GF199999021999005181999999MA1101301999999REMMET075METAR SBIZ 111300Z 10010KT 9999 FEW017 SCT025 FEW030TCU BKN070 30/23 Q1013=
0199825640999992017011114004-05531-047460FM-15+013199999V0201301N005110061019N009999199+03001+02401999999ADDGA1041+004571999GA2071+006101999GA3071+021341999GE19MSL   +99999+99999GF199999041999004571999999MA1101301999999MW1161REMMET070METAR SBIZ 111400Z 13010KT 9999 VCSH SCT015 BKN020 BKN070 30/24 Q1013=
0165825640999992017011116004-05531-047460FM-15+013199999V0201501N00311006101CN009999199+02901+02301999999ADDGA1021+004571999GA2041+006101999GE19MSL   +99999+99999GF199999021999004571999999MA1101101999999REMMET058METAR SBIZ 111600Z 15006KT 9999 FEW015 SCT020 29/23 Q1011=
0142825640999992017011117004-05531-047460FM-15+013199999V0201401N003119999999N009999199+03101+02101999999ADDGA1041+004571999GE19MSL   +99999+99999GF199999041999004571999999MA1101001999999REMMET051METAR SBIZ 111700Z 14006KT 9999 SCT015 31/21 Q1010=
0201825640999992017011118004-05531-047460FM-15+013199999V0201301N003110045719N005000199+03001+02501999999ADDGA1071+004571999GA2021+009141091GA3071+021341999GE19MSL   +99999+99999GF199999071999004571999999MA1100901999999MW1951REMMET072METAR SBIZ 111800Z 13006KT 5000 TSRA BKN015 FEW030CB BKN070 30/25 Q1009=
0215825640999992017011118204-05531-047460FM-16+013199999V0202301N003110045719N009999199+02801+02601999999ADDGA1071+004571999GA2021+009141091GA3071+021341999GE19MSL   +99999+99999GF199999071999004571999999MA1100901999999MW1161MW2171REMMET080SPECI SBIZ 111820Z 23006KT 9999 TS VCSH BKN015 FEW030CB BKN070 28/26 Q1009 RERA=
0238825640999992017011119004-05531-047460FM-15+013199999V0202401N004110045719N009999199+02801+02601999999ADDGA1021+003051999GA2071+004571999GA3021+009141091GA4071+021341999GE19MSL   +99999+99999GF199999021999003051999999MA1100901999999MW1161MW2171REMMET087METAR SBIZ 111900Z 24008KT 9999 TS VCSH FEW010 BKN015 FEW030CB BKN070 28/26 Q1009 RERA=
0170825640999992017011120004-05531-047460FM-15+013199999V0202801N002110061019N009999199+02701+02501999999ADDGA1071+006101999GA2071+024381999GE19MSL   +99999+99999GF199999071999006101999999MA1100801999999REMMET063METAR SBIZ 112000Z 28004KT 9999 BKN020 BKN080 27/25 Q1008 RETS=
0165825640999992017011122004-05531-047460FM-15+013199999V0209999C000010243819N009999199+02701+02501999999ADDGA1041+006101999GA2071+024381999GE19MSL   +99999+99999GF199999041999006101999999MA1100901999999REMMET058METAR SBIZ 112200Z 00000KT 9999 SCT020 BKN080 27/25 Q1009=
0178825640999992017011123004-05531-047460FM-15+013199999V0209999C000019999999N009999199+02701+02501999999ADDGA1041+006101999GA2021+007621091GE19MSL   +99999+99999GF199999041999006101999999MA1101001999999MW1131REMMET065METAR SBIZ 112300Z 00000KT 9999 VCTS SCT020 FEW025CB 27/25 Q1010=
0147825640999992017011200004-05531-047460FM-15+013199999V0209999C000019999999N009999199+02601+02401999999ADDGA1041+009141999GE19MSL   +99999+99999GF199999041999009141999999MA1101101999999REMMET056METAR SBIZ 120000Z 00000KT 9999 SCT030 26/24 Q1011 RETS=
0142825640999992017011200454-05531-047460FM-16+013199999V0209999C000019999999N009999199+02601+02401999999ADDGA1041+009141999GE19MSL   +99999+99999GF199999041999009141999999MA1101201999999REMMET051SPECI SBIZ 120045Z 00000KT 9999 SCT030 26/24 Q1012=
0165825640999992017011209004-05531-047460FM-15+013199999V0209999C000010121919N009999199+02401+02301999999ADDGA1021+002441999GA2071+012191999GE19MSL   +99999+99999GF199999021999002441999999MA1101101999999REMMET058METAR SBIZ 120900Z 00000KT 9999 FEW008 BKN040 24/23 Q1011=
0188825640999992017011210004-05531-047460FM-15+013199999V0209999C00001012191CN009999199+02401+02301999999ADDGA1021+002441999GA2041+012191999GA3071+021341999GE19MSL   +99999+99999GF199999021999002441999999MA1101101999999REMMET065METAR SBIZ 121000Z 00000KT 9999 FEW008 SCT040 BKN070 24/23 Q1011=
0165825640999992017011211004-05531-047460FM-15+013199999V0201301N002610213419N009999199+02401+02401999999ADDGA1021+002131999GA2071+021341999GE19MSL   +99999+99999GF199999021999002131999999MA1101201999999REMMET058METAR SBIZ 121100Z 13005KT 9999 FEW007 BKN070 24/24 Q1012=
0165825640999992017011212004-05531-047460FM-15+013199999V0201801N00101021341CN009999199+02601+02401999999ADDGA1021+003051999GA2041+021341999GE19MSL   +99999+99999GF199999021999003051999999MA1101201999999REMMET058METAR SBIZ 121200Z 18002KT 9999 FEW010 SCT070 26/24 Q1012=
0142825640999992017011214004-05531-047460FM-15+013199999V0202801N002619999999N009999199+03101+02401999999ADDGA1041+004571999GE19MSL   +99999+99999GF199999041999004571999999MA1101101999999REMMET051METAR SBIZ 121400Z 28005KT 9999 SCT015 31/24 Q1011=
0142825640999992017011215004-05531-047460FM-15+013199999V0201501N002610045719N009999199+03301+02301999999ADDGA1071+004571999GE19MSL   +99999+99999GF199999071999004571999999MA1101101999999REMMET051METAR SBIZ 121500Z 15005KT 9999 BKN015 33/23 Q1011=
0165825640999992017011216004-05531-047460FM-15+013199999V0201201N00411006101CN009999199+03401+02301999999ADDGA1021+004571999GA2041+006101999GE19MSL   +99999+99999GF199999021999004571999999MA1101001999999REMMET058METAR SBIZ 121600Z 12008KT 9999 FEW015 SCT020 34/23 Q1010=
0165825640999992017011217004-05531-047460FM-15+013199999V0200901N004110061019N009999199+03501+02301999999ADDGA1021+004571999GA2071+006101999GE19MSL   +99999+99999GF199999021999004571999999MA1100901999999REMMET058METAR SBIZ 121700Z 09008KT 9999 FEW015 BKN020 35/23 Q1009=
0165825640999992017011218004-05531-047460FM-15+013199999V0201501N00361006101CN009999199+03501+02401999999ADDGA1021+004571999GA2041+006101999GE19MSL   +99999+99999GF199999021999004571999999MA1100801999999REMMET058METAR SBIZ 121800Z 15007KT 9999 FEW015 SCT020 35/24 Q1008=
0142825640999992017011219004-05531-047460FM-15+013199999V0201801N002619999999N009999199+03501+02301999999ADDGA1041+006101999GE19MSL   +99999+99999GF199999041999006101999999MA1100701999999REMMET051METAR SBIZ 121900Z 18005KT 9999 SCT020 35/23 Q1007=
0142825640999992017011221004-05531-047460FM-15+013199999V0201101N003610085319N009999199+03201+02401999999ADDGA1071+008531999GE19MSL   +99999+99999GF199999071999008531999999MA1100701999999REMMET051METAR SBIZ 122100Z 11007KT 9999 BKN028 32/24 Q1007=
0142825640999992017011222004-05531-047460FM-15+013199999V0201401N001019999999N009999199+03101+02401999999ADDGA1041+008531999GE19MSL   +99999+99999GF199999041999008531999999MA1100801999999REMMET051METAR SBIZ 122200Z 14002KT 9999 SCT028 31/24 Q1008=
0072825640999992017011300004-05531-047460FM-15+013199999V0200901N001019999999Y999999999+02901+02401999999ADDMA1101001999999REMMET045METAR SBIZ 130000Z 09002KT CAVOK 29/24 Q1010=
0072825640999992017011300454-05531-047460FM-16+013199999V0201001N001019999999Y999999999+02801+02301999999ADDMA1101001999999REMMET045SPECI SBIZ 130045Z 10002KT CAVOK 28/23 Q1010=
0072825640999992017011307154-05531-047460FM-16+013199999V0201101N001019999999Y999999999+02401+02301999999ADDMA1100801999999REMMET045SPECI SBIZ 130715Z 11002KT CAVOK 24/23 Q1008=
0072825640999992017011308004-05531-047460FM-15+013199999V0200901N002119999999Y999999999+02401+02301999999ADDMA1100901999999REMMET045METAR SBIZ 130800Z 09004KT CAVOK 24/23 Q1009=
0142825640999992017011309004-05531-047460FM-15+013199999V0209999C000019999999N009999199+02401+02301999999ADDGA1041+004571999GE19MSL   +99999+99999GF199999041999004571999999MA1100901999999REMMET051METAR SBIZ 130900Z 00000KT 9999 SCT015 24/23 Q1009=
0142825640999992017011310004-05531-047460FM-15+013199999V0209999C000019999999N009999199+02501+02401999999ADDGA1021+004571999GE19MSL   +99999+99999GF199999021999004571999999MA1101001999999REMMET051METAR SBIZ 131000Z 00000KT 9999 FEW015 25/24 Q1010=
0072825640999992017011311004-05531-047460FM-15+013199999V0209999C000019999999Y999999999+02801+02401999999ADDMA1101101999999REMMET045METAR SBIZ 131100Z 00000KT CAVOK 28/24 Q1011=
0142825640999992017011317004-05531-047460FM-15+013199999V0200101N004119999999N009999199+03401+02401999999ADDGA1041+007011999GE19MSL   +99999+99999GF199999041999007011999999MA1100901999999REMMET051METAR SBIZ 131700Z 01008KT 9999 SCT023 34/24 Q1009=
0142825640999992017011318004-05531-047460FM-15+013199999V0200101N003110070119N009999199+03501+02301999999ADDGA1071+007011999GE19MSL   +99999+99999GF199999071999007011999999MA1100701999999REMMET051METAR SBIZ 131800Z 01006KT 9999 BKN023 35/23 Q1007=
0149825640999992017011319004-05531-047460FM-15+013199999V0200801N002119999999N009999199+03201+02401999999ADDGA1041+007621999GE19MSL   +99999+99999GF199999041999007621999999MA1100601999999REMMET058METAR SBIZ 131900Z 08004KT 9999 SCT025 32/24 Q1006 RESHRA=
0165825640999992017011321004-05531-047460FM-15+013199999V0200401N003110304819N009999199+03101+02401999999ADDGA1041+007621999GA2071+030481999GE19MSL   +99999+99999GF199999041999007621999999MA1100701999999REMMET058METAR SBIZ 132100Z 04006KT 9999 SCT025 BKN100 31/24 Q1007=
0201825640999992017011323004-05531-047460FM-15+013199999V0203001N002110304819N009999199+02901+02501999999ADDGA1041+007621999GA2021+009141091GA3071+030481999GE19MSL   +99999+99999GF199999041999007621999999MA1100801999999MW1131REMMET072METAR SBIZ 132300Z 30004KT 9999 VCTS SCT025 FEW030CB BKN100 29/25 Q1008=
0202825640999992017011400004-05531-047460FM-15+013199999V0201201N005710030519N008000199+02601+02501999999ADDGA1071+003051999GA2041+007621091GA3071+024381999GE19MSL   +99999+99999GF199999071999003051999999MA1101001999999MW1971REMMET073METAR SBIZ 140000Z 12011KT 8000 +TSRA BKN010 SCT025CB BKN080 26/25 Q1010=
0202825640999992017011400104-05531-047460FM-16+013199999V0201501N007710030519N003000199+02601+02501999999ADDGA1071+003051999GA2041+007621091GA3071+024381999GE19MSL   +99999+99999GF199999071999003051999999MA1101001999999MW1971REMMET073SPECI SBIZ 140010Z 15015KT 3000 +TSRA BKN010 SCT025CB BKN080 26/25 Q1010=
0178825640999992017011407154-05531-047460FM-16+013199999V0203601N002110045719N005000199+02201+02201999999ADDGA1071+004571999GA2021+007621091GE19MSL   +99999+99999GF199999071999004571999999MA1100901999999MW1951REMMET065SPECI SBIZ 140715Z 36004KT 5000 TSRA BKN015 FEW025CB 22/22 Q1009=
0216825640999992017011408004-05531-047460FM-15+013199999V0203301N001510045719N005000199+02201+02201999999ADDGA1021+003051999GA2071+004571999GA3021+007621091GE19MSL   +99999+99999GF199999021999003051999999MA1101001999999MW1101MW2951REMMET081METAR SBIZ 140800Z 33003KT 5000 -TSRA BR FEW010 BKN015 FEW025CB 22/22 Q1010 RERA=
0161825640999992017011410004-05531-047460FM-15+013199999V0202801N002110030519N004000199+02201+02201999999ADDGA1071+003051999GE19MSL   +99999+99999GF199999071999003051999999MA1101101999999MW1101MW2611REMMET058METAR SBIZ 141000Z 28004KT 4000 -RA BR BKN010 22/22 Q1011=
0161825640999992017011411004-05531-047460FM-15+013199999V0209999C000010030519N004000199+02201+02201999999ADDGA1071+003051999GE19MSL   +99999+99999GF199999071999003051999999MA1101301999999MW1101MW2611REMMET058METAR SBIZ 141100Z 00000KT 4000 -RA BR BKN010 22/22 Q1013=
0184825640999992017011412004-05531-047460FM-15+013199999V0202501N001510036619N004000199+02201+02201999999ADDGA1071+003661999GA2041+024381999GE19MSL   +99999+99999GF199999071999003661999999MA1101301999999MW1101MW2611REMMET065METAR SBIZ 141200Z 25003KT 4000 -RA BR BKN012 SCT080 22/22 Q1013=
0184825640999992017011413004-05531-047460FM-15+013199999V0209999C000010036619N003000199+02301+02201999999ADDGA1071+003661999GA2071+024381999GE19MSL   +99999+99999GF199999071999003661999999MA1101401999999MW1101MW2611REMMET065METAR SBIZ 141300Z 00000KT 3000 -RA BR BKN012 BKN080 23/22 Q1014=
0207825640999992017011413054-05531-047460FM-16+013199999V0201201N005110030519N001000199+02301+02201999999ADDGA1041+001831999GA2071+003051999GA3071+021341999GE19MSL   +99999+99999GF199999041999001831999999MA1101501999999MW1101MW2651REMMET072SPECI SBIZ 141305Z 12010KT 1000 +RA BR SCT006 BKN010 BKN070 23/22 Q1015=
0189825640999992017011414004-05531-047460FM-15+013199999V0202001N000510045719N002500199+02201+02201999999ADDGA1071+004571999GA2081+021341999GE19MSL   +99999+99999GF199999071999004571999999MA1101501999999MW1101MW2611REMMET070METAR SBIZ 141400Z 20001KT 2500 -RA BR BKN015 OVC070 22/22 Q1015 RERA=
0198825640999992017011414304-05531-047460FM-16+013199999V0201401N00051004571CN006000199+02201+02201999999ADDGA1021+003051999GA2041+004571999GA3081+021341999GE19MSL   +99999+99999GF199999021999003051999999MA1101401999999MW1611REMMET069SPECI SBIZ 141430Z 14001KT 6000 -RA FEW010 SCT015 OVC070 22/22 Q1014=
0197825640999992017011415004-05531-047460FM-15+013199999V0202601N00151004571CN007000199+02301+02201999999ADDGA1041+003051999GA2041+004571999GA3081+021341999GE19MSL   +99999+99999GF199999041999003051999999MA1101401999999MW1631REMMET068METAR SBIZ 141500Z 26003KT 7000 RA SCT010 SCT015 OVC070 23/22 Q1014=
0180825640999992017011415404-05531-047460FM-16+013199999V0202501N001010213419N009999199+02301+02201999999ADDGA1041+004571999GA2071+021341999GE19MSL   +99999+99999GF199999041999004571999999MA1101201999999MW1611REMMET067SPECI SBIZ 141540Z 25002KT 9999 -RA SCT015 BKN070 23/22 Q1012 RERA=
0165825640999992017011417004-05531-047460FM-15+013199999V0202501N000510213419N009999199+02401+02201999999ADDGA1041+004571999GA2071+021341999GE19MSL   +99999+99999GF199999041999004571999999MA1101101999999REMMET058METAR SBIZ 141700Z 25001KT 9999 SCT015 BKN070 24/22 Q1011=
0165825640999992017011418004-05531-047460FM-15+013199999V0202301N000510213419N009999199+02501+02201999999ADDGA1041+004571999GA2071+021341999GE19MSL   +99999+99999GF199999041999004571999999MA1100901999999REMMET058METAR SBIZ 141800Z 23001KT 9999 SCT015 BKN070 25/22 Q1009=
0165825640999992017011419004-05531-047460FM-15+013199999V0201901N001010243819N009999199+02501+02301999999ADDGA1041+004571999GA2071+024381999GE19MSL   +99999+99999GF199999041999004571999999MA1100901999999REMMET058METAR SBIZ 141900Z 19002KT 9999 SCT015 BKN080 25/23 Q1009=
0165825640999992017011421004-05531-047460FM-15+013199999V0209999C000010054919N009999199+02501+02301999999ADDGA1071+005491999GA2071+024381999GE19MSL   +99999+99999GF199999071999005491999999MA1100901999999REMMET058METAR SBIZ 142100Z 00000KT 9999 BKN018 BKN080 25/23 Q1009=
0165825640999992017011422004-05531-047460FM-15+013199999V0209999C000010243819N009999199+02501+02301999999ADDGA1041+003051999GA2071+024381999GE19MSL   +99999+99999GF199999041999003051999999MA1101001999999REMMET058METAR SBIZ 142200Z 00000KT 9999 SCT010 BKN080 25/23 Q1010=
0165825640999992017011500004-05531-047460FM-15+013199999V0209999C000010243819N009999199+02401+02301999999ADDGA1041+003051999GA2071+024381999GE19MSL   +99999+99999GF199999041999003051999999MA1101201999999REMMET058METAR SBIZ 150000Z 00000KT 9999 SCT010 BKN080 24/23 Q1012=
0165825640999992017011500454-05531-047460FM-16+013199999V0209999C000010243819N009999199+02401+02301999999ADDGA1041+004571999GA2071+024381999GE19MSL   +99999+99999GF199999041999004571999999MA1101201999999REMMET058SPECI SBIZ 150045Z 00000KT 9999 SCT015 BKN080 24/23 Q1012=
0165825640999992017011507154-05531-047460FM-16+013199999V0209999C000010243819N009999199+02301+02201999999ADDGA1041+006101999GA2071+024381999GE19MSL   +99999+99999GF199999041999006101999999MA1100901999999REMMET058SPECI SBIZ 150715Z 00000KT 9999 SCT020 BKN080 23/22 Q1009=
0165825640999992017011508004-05531-047460FM-15+013199999V0200901N001010243819N009999199+02301+02201999999ADDGA1041+005491999GA2071+024381999GE19MSL   +99999+99999GF199999041999005491999999MA1100901999999REMMET058METAR SBIZ 150800Z 09002KT 9999 SCT018 BKN080 23/22 Q1009=
0165825640999992017011510004-05531-047460FM-15+013199999V0209999C000010243819N009999199+02301+02301999999ADDGA1021+006101999GA2071+024381999GE19MSL   +99999+99999GF199999021999006101999999MA1101001999999REMMET058METAR SBIZ 151000Z 00000KT 9999 FEW020 BKN080 23/23 Q1010=
0165825640999992017011511004-05531-047460FM-15+013199999V0209999C000010243819N009999199+02401+02301999999ADDGA1021+006401999GA2071+024381999GE19MSL   +99999+99999GF199999021999006401999999MA1101101999999REMMET058METAR SBIZ 151100Z 00000KT 9999 FEW021 BKN080 24/23 Q1011=
0165825640999992017011512004-05531-047460FM-15+013199999V0201801N001510243819N009999199+02501+02301999999ADDGA1021+006711999GA2071+024381999GE19MSL   +99999+99999GF199999021999006711999999MA1101201999999REMMET058METAR SBIZ 151200Z 18003KT 9999 FEW022 BKN080 25/23 Q1012=
0165825640999992017011513004-05531-047460FM-15+013199999V0209999C000010243819N009999199+02701+02401999999ADDGA1021+006101999GA2071+024381999GE19MSL   +99999+99999GF199999021999006101999999MA1101201999999REMMET058METAR SBIZ 151300Z 00000KT 9999 FEW020 BKN080 27/24 Q1012=
0165825640999992017011515004-05531-047460FM-15+013199999V0203201N003110243819N009999199+03101+02401999999ADDGA1041+006101999GA2071+024381999GE19MSL   +99999+99999GF199999041999006101999999MA1101101999999REMMET058METAR SBIZ 151500Z 32006KT 9999 SCT020 BKN080 31/24 Q1011=
0142825640999992017011516004-05531-047460FM-15+013199999V0201201N001510061019N009999199+03201+02301999999ADDGA1071+006101999GE19MSL   +99999+99999GF199999071999006101999999MA1101001999999REMMET051METAR SBIZ 151600Z 12003KT 9999 BKN020 32/23 Q1010=
0142825640999992017011517004-05531-047460FM-15+013199999V0202501N001519999999N009999199+03301+02401999999ADDGA1041+007011999GE19MSL   +99999+99999GF199999041999007011999999MA1100901999999REMMET051METAR SBIZ 151700Z 25003KT 9999 SCT023 33/24 Q1009=
0165825640999992017011518004-05531-047460FM-15+013199999V0202901N00051024381CN009999199+03401+02401999999ADDGA1021+007011999GA2041+024381999GE19MSL   +99999+99999GF199999021999007011999999MA1100801999999REMMET058METAR SBIZ 151800Z 29001KT 9999 FEW023 SCT080 34/24 Q1008=
0165825640999992017011520004-05531-047460FM-15+013199999V0209999C00001024381CN009999199+03301+02201999999ADDGA1041+004571999GA2041+024381999GE19MSL   +99999+99999GF199999041999004571999999MA1100701999999REMMET058METAR SBIZ 152000Z 00000KT 9999 SCT015 SCT080 33/22 Q1007=
0165825640999992017011521004-05531-047460FM-15+013199999V0200901N00411024381CN009999199+03101+02501999999ADDGA1041+004571999GA2041+024381999GE19MSL   +99999+99999GF199999041999004571999999MA1100701999999REMMET058METAR SBIZ 152100Z 09008KT 9999 SCT015 SCT080 31/25 Q1007=
0165825640999992017011522004-05531-047460FM-15+013199999V0201201N00261024381CN009999199+02901+02401999999ADDGA1021+009141999GA2041+024381999GE19MSL   +99999+99999GF199999021999009141999999MA1100801999999REMMET058METAR SBIZ 152200Z 12005KT 9999 FEW030 SCT080 29/24 Q1008=
0165825640999992017011523004-05531-047460FM-15+013199999V0200901N002610243819N009999199+02801+02401999999ADDGA1021+009141999GA2071+024381999GE19MSL   +99999+99999GF199999021999009141999999MA1100801999999REMMET058METAR SBIZ 152300Z 09005KT 9999 FEW030 BKN080 28/24 Q1008=
0072825640999992017011600004-05531-047460FM-15+013199999V0200901N002619999999Y999999999+02801+02401999999ADDMA1100901999999REMMET045METAR SBIZ 160000Z 09005KT CAVOK 28/24 Q1009=
0072825640999992017011600454-05531-047460FM-16+013199999V0200901N003119999999Y999999999+02801+02401999999ADDMA1101001999999REMMET045SPECI SBIZ 160045Z 09006KT CAVOK 28/24 Q1010=
0072825640999992017011607154-05531-047460FM-16+013199999V0209999C000019999999Y999999999+02501+02401999999ADDMA1100801999999REMMET045SPECI SBIZ 160715Z 00000KT CAVOK 25/24 Q1008=
0165825640999992017011608004-05531-047460FM-15+013199999V0200801N002110243819N009999199+02501+02401999999ADDGA1041+005181999GA2071+024381999GE19MSL   +99999+99999GF199999041999005181999999MA1100901999999REMMET058METAR SBIZ 160800Z 08004KT 9999 SCT017 BKN080 25/24 Q1009=
0165825640999992017011611004-05531-047460FM-15+013199999V0200801N00211024381CN009999199+02701+02401999999ADDGA1021+006101999GA2041+024381999GE19MSL   +99999+99999GF199999021999006101999999MA1101101999999REMMET058METAR SBIZ 161100Z 08004KT 9999 FEW020 SCT080 27/24 Q1011=
0142825640999992017011613004-05531-047460FM-15+013199999V0200601N002610070119N009999199+03001+02501999999ADDGA1071+007011999GE19MSL   +99999+99999GF199999071999007011999999MA1101101999999REMMET051METAR SBIZ 161300Z 06005KT 9999 BKN023 30/25 Q1011=
0142825640999992017011614004-05531-047460FM-15+013199999V0200601N002610045719N009999199+03101+02401999999ADDGA1071+004571999GE19MSL   +99999+99999GF199999071999004571999999MA1101101999999REMMET051METAR SBIZ 161400Z 06005KT 9999 BKN015 31/24 Q1011=
0142825640999992017011615004-05531-047460FM-15+013199999V0200701N004110061019N009999199+03101+02401999999ADDGA1071+006101999GE19MSL   +99999+99999GF199999071999006101999999MA1101001999999REMMET051METAR SBIZ 161500Z 07008KT 9999 BKN020 31/24 Q1010=
0142825640999992017011616004-05531-047460FM-15+013199999V0201101N002610061019N009999199+03201+02401999999ADDGA1071+006101999GE19MSL   +99999+99999GF199999071999006101999999MA1101001999999REMMET051METAR SBIZ 161600Z 11005KT 9999 BKN020 32/24 Q1010=
0142825640999992017011617004-05531-047460FM-15+013199999V0200701N002619999999N009999199+03301+02301999999ADDGA1041+006101999GE19MSL   +99999+99999GF199999041999006101999999MA1100801999999REMMET051METAR SBIZ 161700Z 07005KT 9999 SCT020 33/23 Q1008=
0142825640999992017011619004-05531-047460FM-15+013199999V0200701N002619999999N009999199+03301+02401999999ADDGA1041+007621999GE19MSL   +99999+99999GF199999041999007621999999MA1100601999999REMMET051METAR SBIZ 161900Z 07005KT 9999 SCT025 33/24 Q1006=
0165825640999992017011621004-05531-047460FM-15+013199999V0202101N001510243819N009999199+03301+02501999999ADDGA1021+004571999GA2071+024381999GE19MSL   +99999+99999GF199999021999004571999999MA1100701999999REMMET058METAR SBIZ 162100Z 21003KT 9999 FEW015 BKN080 33/25 Q1007=
0142825640999992017011623004-05531-047460FM-15+013199999V0201401N002119999999N009999199+02901+02501999999ADDGA1021+004571999GE19MSL   +99999+99999GF199999021999004571999999MA1100801999999REMMET051METAR SBIZ 162300Z 14004KT 9999 FEW015 29/25 Q1008=
0142825640999992017011700004-05531-047460FM-15+013199999V0201301N001519999999N009999199+02901+02601999999ADDGA1041+004571999GE19MSL   +99999+99999GF199999041999004571999999MA1101001999999REMMET051METAR SBIZ 170000Z 13003KT 9999 SCT015 29/26 Q1010=
0178825640999992017011700454-05531-047460FM-16+013199999V0201801N002610045719N009999199+02801+02501999999ADDGA1071+004571999GA2021+007621091GE19MSL   +99999+99999GF199999071999004571999999MA1101001999999MW1131REMMET065SPECI SBIZ 170045Z 18005KT 9999 VCTS BKN015 FEW025CB 28/25 Q1010=
0165825640999992017011707154-05531-047460FM-16+013199999V0201201N00261009141CN009999199+02401+02401999999ADDGA1021+002131999GA2041+009141999GE19MSL   +99999+99999GF199999021999002131999999MA1100901999999REMMET058SPECI SBIZ 170715Z 12005KT 9999 FEW007 SCT030 24/24 Q1009=
0142825640999992017011708004-05531-047460FM-15+013199999V0200901N002610121919N009999199+02401+02401999999ADDGA1071+012191999GE19MSL   +99999+99999GF199999071999012191999999MA1100901999999REMMET051METAR SBIZ 170800Z 09005KT 9999 BKN040 24/24 Q1009=
0142825640999992017011709004-05531-047460FM-15+013199999V0209999C000010121919N009999199+02401+02401999999ADDGA1071+012191999GE19MSL   +99999+99999GF199999071999012191999999MA1100901999999REMMET051METAR SBIZ 170900Z 00000KT 9999 BKN040 24/24 Q1009=
0165825640999992017011710004-05531-047460FM-15+013199999V0209999C000010045719N009999199+02501+02401999999ADDGA1071+004571999GA2081+021341999GE19MSL   +99999+99999GF199999071999004571999999MA1100901999999REMMET058METAR SBIZ 171000Z 00000KT 9999 BKN015 OVC070 25/24 Q1009=
0198825640999992017011712004-05531-047460FM-15+013199999V0202501N001010061019N008000199+02501+02501999999ADDGA1021+001831999GA2071+006101999GA3081+021341999GE19MSL   +99999+99999GF199999021999001831999999MA1101101999999MW1611REMMET069METAR SBIZ 171200Z 25002KT 8000 -RA FEW006 BKN020 OVC070 25/25 Q1011=
0165825640999992017011713004-05531-047460FM-15+013199999V0209999C00001006101CN009999199+02601+02501999999ADDGA1021+001831999GA2041+006101999GE19MSL   +99999+99999GF199999021999001831999999MA1101101999999REMMET058METAR SBIZ 171300Z 00000KT 9999 FEW006 SCT020 26/25 Q1011=
0165825640999992017011714004-05531-047460FM-15+013199999V0200701N001510045719N009999199+02901+02601999999ADDGA1041+003051999GA2071+004571999GE19MSL   +99999+99999GF199999041999003051999999MA1101101999999REMMET058METAR SBIZ 171400Z 07003KT 9999 SCT010 BKN015 29/26 Q1011=
0170825640999992017011716004-05531-047460FM-15+013199999V0200601N002610045719N009999199+03001+02501999999ADDGA1041+003051999GA2071+004571999GE19MSL   +99999+99999GF199999041999003051999999MA1100901999999REMMET063METAR SBIZ 171600Z 06005KT 9999 SCT010 BKN015 30/25 Q1009 RERA=
0142825640999992017011717004-05531-047460FM-15+013199999V0201201N002610045719N009999199+03001+02601999999ADDGA1071+004571999GE19MSL   +99999+99999GF199999071999004571999999MA1100801999999REMMET051METAR SBIZ 171700Z 12005KT 9999 BKN015 30/26 Q1008=
0152825640999992017011719004-05531-047460FM-15+013199999V0200801N005110045719N009999199+02901+02501999999ADDGA1071+004571999GE19MSL   +99999+99999GF199999071999004571999999MA1100601999999MW1611REMMET055METAR SBIZ 171900Z 08010KT 9999 -RA BKN015 29/25 Q1006=
0165825640999992017011721004-05531-047460FM-15+013199999V0200901N00101009141CN009999199+02701+02301999999ADDGA1021+007011999GA2041+009141999GE19MSL   +99999+99999GF199999021999007011999999MA1100701999999REMMET058METAR SBIZ 172100Z 09002KT 9999 FEW023 SCT030 27/23 Q1007=
0165825640999992017011722004-05531-047460FM-15+013199999V0201001N00151009141CN009999199+02601+02401999999ADDGA1021+006101999GA2041+009141999GE19MSL   +99999+99999GF199999021999006101999999MA1100701999999REMMET058METAR SBIZ 172200Z 10003KT 9999 FEW020 SCT030 26/24 Q1007=
0142825640999992017011723004-05531-047460FM-15+013199999V0200501N001519999999N009999199+02601+02401999999ADDGA1021+004571999GE19MSL   +99999+99999GF199999021999004571999999MA1100901999999REMMET051METAR SBIZ 172300Z 05003KT 9999 FEW015 26/24 Q1009=
0142825640999992017011800004-05531-047460FM-15+013199999V0209999C000019999999N009999199+02601+02401999999ADDGA1021+004571999GE19MSL   +99999+99999GF199999021999004571999999MA1101001999999REMMET051METAR SBIZ 180000Z 00000KT 9999 FEW015 26/24 Q1010=
0142825640999992017011800454-05531-047460FM-16+013199999V0200201N000519999999N009999199+02601+02401999999ADDGA1021+004571999GE19MSL   +99999+99999GF199999021999004571999999MA1101001999999REMMET051SPECI SBIZ 180045Z 02001KT 9999 FEW015 26/24 Q1010=
0198825640999992017011807154-05531-047460FM-16+013199999V0209999C000010045719N005000199+02301+02301999999ADDGA1041+001521999GA2071+004571999GA3081+021341999GE19MSL   +99999+99999GF199999041999001521999999MA1101101999999MW1631REMMET069SPECI SBIZ 180715Z 00000KT 5000 RA SCT005 BKN015 OVC070 23/23 Q10110=
0188825640999992017011810004-05531-047460FM-15+013199999V0203601N002610045719N009999199+02301+02201999999ADDGA1021+001521999GA2071+004571999GA3081+021341999GE19MSL   +99999+99999GF199999021999001521999999MA1101201999999REMMET065METAR SBIZ 181000Z 36005KT 9999 FEW005 BKN015 OVC070 23/22 Q1012=
0174825640999992017011811004-05531-047460FM-15+013199999V0200301N002110021319N005000199+02301+02301999999ADDGA1071+002131999GA2081+021341999GE19MSL   +99999+99999GF199999071999002131999999MA1101301999999MW1631REMMET061METAR SBIZ 181100Z 03004KT 5000 RA BKN007 OVC070 23/23 Q1013=
0188825640999992017011813004-05531-047460FM-15+013199999V0200701N002610045719N009999199+02501+02401999999ADDGA1041+001521999GA2071+004571999GA3081+021341999GE19MSL   +99999+99999GF199999041999001521999999MA1101401999999REMMET065METAR SBIZ 181300Z 07005KT 9999 SCT005 BKN015 OVC070 25/24 Q1014=
0165825640999992017011815004-05531-047460FM-15+013199999V0202601N000510213419N009999199+02601+02401999999ADDGA1041+004571999GA2071+021341999GE19MSL   +99999+99999GF199999041999004571999999MA1101201999999REMMET058METAR SBIZ 181500Z 26001KT 9999 SCT015 BKN070 26/24 Q1012=
0165825640999992017011816004-05531-047460FM-15+013199999V0203501N003110045719N009999199+02701+02501999999ADDGA1071+004571999GA2071+021341999GE19MSL   +99999+99999GF199999071999004571999999MA1101201999999REMMET058METAR SBIZ 181600Z 35006KT 9999 BKN015 BKN070 27/25 Q1012=
0165825640999992017011817004-05531-047460FM-15+013199999V0203501N004110045719N009999199+02701+02401999999ADDGA1071+004571999GA2071+021341999GE19MSL   +99999+99999GF199999071999004571999999MA1101101999999REMMET058METAR SBIZ 181700Z 35008KT 9999 BKN015 BKN070 27/24 Q1011=
0165825640999992017011821004-05531-047460FM-15+013199999V0203001N002110274319N009999199+02701+02401999999ADDGA1041+005491999GA2071+027431999GE19MSL   +99999+99999GF199999041999005491999999MA1101101999999REMMET058METAR SBIZ 182100Z 30004KT 9999 SCT018 BKN090 27/24 Q1011=
0142825640999992017011823004-05531-047460FM-15+013199999V0209999C000019999999N009999199+02601+02501999999ADDGA1021+003051999GE19MSL   +99999+99999GF199999021999003051999999MA1101201999999REMMET051METAR SBIZ 182300Z 00000KT 9999 FEW010 26/25 Q1012=
0142825640999992017011900004-05531-047460FM-15+013199999V0200201N002119999999N009999199+02501+02401999999ADDGA1021+003051999GE19MSL   +99999+99999GF199999021999003051999999MA1101301999999REMMET051METAR SBIZ 190000Z 02004KT 9999 FEW010 25/24 Q1013=
0142825640999992017011900454-05531-047460FM-16+013199999V0200701N000519999999N009999199+02501+02401999999ADDGA1021+003051999GE19MSL   +99999+99999GF199999021999003051999999MA1101301999999REMMET051SPECI SBIZ 190045Z 07001KT 9999 FEW010 25/24 Q1013=
0142825640999992017011907154-05531-047460FM-16+013199999V0209999C000010045719N009999199+02401+02401999999ADDGA1071+004571999GE19MSL   +99999+99999GF199999071999004571999999MA1101001999999REMMET051SPECI SBIZ 190715Z 00000KT 9999 BKN015 24/24 Q1010=
0142825640999992017011908004-05531-047460FM-15+013199999V0209999C000010045719N009999199+02401+02401999999ADDGA1071+004571999GE19MSL   +99999+99999GF199999071999004571999999MA1101001999999REMMET051METAR SBIZ 190800Z 00000KT 9999 BKN015 24/24 Q1010=
0142825640999992017011909004-05531-047460FM-15+013199999V0209999C000010045719N009999199+02401+02401999999ADDGA1071+004571999GE19MSL   +99999+99999GF199999071999004571999999MA1101101999999REMMET051METAR SBIZ 190900Z 00000KT 9999 BKN015 24/24 Q1011=
0142825640999992017011913004-05531-047460FM-15+013199999V0209999C000010045719N009999199+02801+02401999999ADDGA1081+004571999GE19MSL   +99999+99999GF199999081999004571999999MA1101301999999REMMET051METAR SBIZ 191300Z 00000KT 9999 OVC015 28/24 Q1013=
0165825640999992017011914004-05531-047460FM-15+013199999V0202701N002610045719N009999199+02701+02401999999ADDGA1041+003051999GA2071+004571999GE19MSL   +99999+99999GF199999041999003051999999MA1101301999999REMMET058METAR SBIZ 191400Z 27005KT 9999 SCT010 BKN015 27/24 Q1013=
0142825640999992017011916004-05531-047460FM-15+013199999V0202701N003610054919N009999199+03001+02301999999ADDGA1071+005491999GE19MSL   +99999+99999GF199999071999005491999999MA1101201999999REMMET051METAR SBIZ 191600Z 27007KT 9999 BKN018 30/23 Q1012=
0142825640999992017011917004-05531-047460FM-15+013199999V0202601N000510061019N009999199+03101+02401999999ADDGA1071+006101999GE19MSL   +99999+99999GF199999071999006101999999MA1101101999999REMMET051METAR SBIZ 191700Z 26001KT 9999 BKN020 31/24 Q1011=
0142825640999992017011918004-05531-047460FM-15+013199999V0203001N001519999999N009999199+03101+02301999999ADDGA1041+006101999GE19MSL   +99999+99999GF199999041999006101999999MA1101001999999REMMET051METAR SBIZ 191800Z 30003KT 9999 SCT020 31/23 Q1010=
0165825640999992017011920004-05531-047460FM-15+013199999V0209999C000010274319N009999199+03101+02301999999ADDGA1021+006101999GA2071+027431999GE19MSL   +99999+99999GF199999021999006101999999MA1100901999999REMMET058METAR SBIZ 192000Z 00000KT 9999 FEW020 BKN090 31/23 Q1009=
0165825640999992017011921004-05531-047460FM-15+013199999V0209999C000010274319N009999199+03001+02401999999ADDGA1021+006101999GA2071+027431999GE19MSL   +99999+99999GF199999021999006101999999MA1101001999999REMMET058METAR SBIZ 192100Z 00000KT 9999 FEW020 BKN090 30/24 Q1010=
0165825640999992017011922004-05531-047460FM-15+013199999V0209999C000010213419N009999199+02901+02401999999ADDGA1021+004571999GA2071+021341999GE19MSL   +99999+99999GF199999021999004571999999MA1101001999999REMMET058METAR SBIZ 192200Z 00000KT 9999 FEW015 BKN070 29/24 Q1010=
0201825640999992017011923004-05531-047460FM-15+013199999V0209999C000010213419N009999199+02701+02501999999ADDGA1021+004571999GA2021+007621091GA3071+021341999GE19MSL   +99999+99999GF199999021999004571999999MA1101101999999MW1131REMMET072METAR SBIZ 192300Z 00000KT 9999 VCTS FEW015 FEW025CB BKN070 27/25 Q1011=
0147825640999992017012000004-05531-047460FM-15+013199999V0201201N001519999999N009999199+02701+02501999999ADDGA1041+009141999GE19MSL   +99999+99999GF199999041999009141999999MA1101201999999REMMET056METAR SBIZ 200000Z 12003KT 9999 SCT030 27/25 Q1012 RETS=
0142825640999992017012000454-05531-047460FM-16+013199999V0201101N002619999999N009999199+02601+02501999999ADDGA1041+007621999GE19MSL   +99999+99999GF199999041999007621999999MA1101301999999REMMET051SPECI SBIZ 200045Z 11005KT 9999 SCT025 26/25 Q1013=
0165825640999992017012008004-05531-047460FM-15+013199999V0209999C00001021341CN009999199+02301+02301999999ADDGA1021+001521999GA2041+021341999GE19MSL   +99999+99999GF199999021999001521999999MA1101101999999REMMET058METAR SBIZ 200800Z 00000KT 9999 FEW005 SCT070 23/23 Q1011=
0165825640999992017012009004-05531-047460FM-15+013199999V0209999C00001021341CN009999199+02301+02301999999ADDGA1021+002131999GA2041+021341999GE19MSL   +99999+99999GF199999021999002131999999MA1101201999999REMMET058METAR SBIZ 200900Z 00000KT 9999 FEW007 SCT070 23/23 Q1012=
0142825640999992017012011004-05531-047460FM-15+013199999V0201501N001019999999N009999199+02501+02401999999ADDGA1041+003051999GE19MSL   +99999+99999GF199999041999003051999999MA1101301999999REMMET051METAR SBIZ 201100Z 15002KT 9999 SCT010 25/24 Q1013=
0142825640999992017012013004-05531-047460FM-15+013199999V0200601N002119999999N009999199+02901+02401999999ADDGA1041+003051999GE19MSL   +99999+99999GF199999041999003051999999MA1101301999999REMMET051METAR SBIZ 201300Z 06004KT 9999 SCT010 29/24 Q1013=
0165825640999992017012014004-05531-047460FM-15+013199999V0202101N002110061019N009999199+03001+02401999999ADDGA1071+006101999GA2041+024381999GE19MSL   +99999+99999GF199999071999006101999999MA1101401999999REMMET058METAR SBIZ 201400Z 21004KT 9999 BKN020 SCT080 30/24 Q1014=
0142825640999992017012016004-05531-047460FM-15+013199999V0201501N004110061019N009999199+03201+02401999999ADDGA1071+006101999GE19MSL   +99999+99999GF199999071999006101999999MA1101201999999REMMET051METAR SBIZ 201600Z 15008KT 9999 BKN020 32/24 Q1012=
0142825640999992017012018004-05531-047460FM-15+013199999V0201601N003110070119N009999199+03301+02401999999ADDGA1071+007011999GE19MSL   +99999+99999GF199999071999007011999999MA1100901999999REMMET051METAR SBIZ 201800Z 16006KT 9999 BKN023 33/24 Q1009=
0142825640999992017012020004-05531-047460FM-15+013199999V0201501N002619999999N009999199+03301+02301999999ADDGA1041+006101999GE19MSL   +99999+99999GF199999041999006101999999MA1100901999999REMMET051METAR SBIZ 202000Z 15005KT 9999 SCT020 33/23 Q1009=
0165825640999992017012021004-05531-047460FM-15+013199999V0201501N002110243819N009999199+03301+02201999999ADDGA1041+006101999GA2071+024381999GE19MSL   +99999+99999GF199999041999006101999999MA1100801999999REMMET058METAR SBIZ 202100Z 15004KT 9999 SCT020 BKN080 33/22 Q1008=
0142825640999992017012023004-05531-047460FM-15+013199999V0201001N001019999999N009999199+02901+02501999999ADDGA1021+006101999GE19MSL   +99999+99999GF199999021999006101999999MA1101001999999REMMET051METAR SBIZ 202300Z 10002KT 9999 FEW020 29/25 Q1010=
0142825640999992017012100004-05531-047460FM-15+013199999V0209999C000019999999N009999199+02801+02601999999ADDGA1021+006101999GE19MSL   +99999+99999GF199999021999006101999999MA1101001999999REMMET051METAR SBIZ 210000Z 00000KT 9999 FEW020 28/26 Q1010=
0072825640999992017012100454-05531-047460FM-16+013199999V0209999C000019999999Y999999999+02701+02601999999ADDMA1101101999999REMMET045SPECI SBIZ 210045Z 00000KT CAVOK 27/26 Q1011=
0072825640999992017012107154-05531-047460FM-16+013199999V0209999C000019999999Y999999999+02501+02401999999ADDMA1101001999999REMMET045SPECI SBIZ 210715Z 00000KT CAVOK 25/24 Q1010=
0072825640999992017012108004-05531-047460FM-15+013199999V0209999C000019999999Y999999999+02501+02401999999ADDMA1101001999999REMMET045METAR SBIZ 210800Z 00000KT CAVOK 25/24 Q1010=
0072825640999992017012109004-05531-047460FM-15+013199999V0209999C000019999999Y999999999+02501+02401999999ADDMA1101101999999REMMET045METAR SBIZ 210900Z 00000KT CAVOK 25/24 Q1011=
0110825640999992017012109304-05531-047460FM-15+013199999V0209999C000012200019N000900199+02401+02401999999ADDGF100991999999999999999999MA1101101999999MW1441REMMET051METAR SBIZ 210930Z 00000KT 0900 FG NSC 24/24 Q1011=
0114825640999992017012109304-05531-047460FM-16+013199999V0209999C000012200019N000900199+02401+02401999999ADDGF100991999999999999999999MA1101101999999MW1441REMMET055SPECI COR SBIZ 210930Z 00000KT 0900 FG NSC 24/24 Q1011=
0142825640999992017012111004-05531-047460FM-15+013199999V0209999C000019999999N009999199+02601+02501999999ADDGA1041+003051999GE19MSL   +99999+99999GF199999041999003051999999MA1101201999999REMMET051METAR SBIZ 211100Z 00000KT 9999 SCT010 26/25 Q1012=
0142825640999992017012112004-05531-047460FM-15+013199999V0203001N000519999999N009999199+02901+02401999999ADDGA1021+003051999GE19MSL   +99999+99999GF199999021999003051999999MA1101301999999REMMET051METAR SBIZ 211200Z 30001KT 9999 FEW010 29/24 Q1013=
0142825640999992017012113004-05531-047460FM-15+013199999V0200401N004610061019N009999199+03101+02401999999ADDGA1071+006101999GE19MSL   +99999+99999GF199999071999006101999999MA1101301999999REMMET051METAR SBIZ 211300Z 04009KT 9999 BKN020 31/24 Q1013=
0142825640999992017012114004-05531-047460FM-15+013199999V0200401N002610061019N009999199+03201+02501999999ADDGA1071+006101999GE19MSL   +99999+99999GF199999071999006101999999MA1101301999999REMMET051METAR SBIZ 211400Z 04005KT 9999 BKN020 32/25 Q1013=
0142825640999992017012115004-05531-047460FM-15+013199999V0200601N002610061019N009999199+03201+02401999999ADDGA1071+006101999GE19MSL   +99999+99999GF199999071999006101999999MA1101201999999REMMET051METAR SBIZ 211500Z 06005KT 9999 BKN020 32/24 Q1012=
0165825640999992017012117004-05531-047460FM-15+013199999V0200101N00211009141CN009999199+03401+02401999999ADDGA1041+006101999GA2041+009141999GE19MSL   +99999+99999GF199999041999006101999999MA1100901999999REMMET058METAR SBIZ 211700Z 01004KT 9999 SCT020 SCT030 34/24 Q1009=
0191825640999992017012118004-05531-047460FM-15+013199999V0203501N002610106719N009999199+03201+02501999999ADDGA1021+006101999GA2021+007621081GA3071+010671999GE19MSL   +99999+99999GF199999021999006101999999MA1100801999999REMMET068METAR SBIZ 211800Z 35005KT 9999 FEW020 FEW025TCU BKN035 32/25 Q1008=
0202825640999992017012119004-05531-047460FM-15+013199999V0202101N005110106719N009999199+03001+02301999999ADDGA1021+006101999GA2021+007621081GA3071+010671999GE19MSL   +99999+99999GF199999021999006101999999MA1100701999999MW1161REMMET073METAR SBIZ 211900Z 21010KT 9999 VCSH FEW020 FEW025TCU BKN035 30/23 Q1007=
0222825640999992017012120004-05531-047460FM-15+013199999V0202401N00211006101CN009999199+02801+02301999999ADDGA1021+004571999GA2041+006101999GA3021+007621091GA4071+024381999GE19MSL   +99999+99999GF199999021999004571999999MA1100801999999MW1171REMMET077METAR SBIZ 212000Z 24004KT 9999 TS FEW015 SCT020 FEW025CB BKN080 28/23 Q1008=
0222825640999992017012121204-05531-047460FM-16+013199999V0201001N00261006101CN009999199+02801+02401999999ADDGA1021+004571999GA2041+006101999GA3021+007621091GA4071+024381999GE19MSL   +99999+99999GF199999021999004571999999MA1100901999999MW1171REMMET077SPECI SBIZ 212120Z 10005KT 9999 TS FEW015 SCT020 FEW025CB BKN080 28/24 Q1009=
0225825640999992017012122004-05531-047460FM-15+013199999V0200901N00311006101CN009999199+02701+02401999999ADDGA1041+004571999GA2041+006101999GA3021+007621091GA4071+024381999GE19MSL   +99999+99999GF199999041999004571999999MA1100901999999MW1951REMMET080METAR SBIZ 212200Z 09006KT 9999 -TSRA SCT015 SCT020 FEW025CB BKN080 27/24 Q1009=
0142825640999992017012200004-05531-047460FM-15+013199999V0209999C000019999999N009999199+02601+02501999999ADDGA1041+004571999GE19MSL   +99999+99999GF199999041999004571999999MA1101101999999REMMET051METAR SBIZ 220000Z 00000KT 9999 SCT015 26/25 Q1011=
0142825640999992017012200454-05531-047460FM-16+013199999V0209999C000019999999N009999199+02601+02501999999ADDGA1041+004571999GE19MSL   +99999+99999GF199999041999004571999999MA1101101999999REMMET051SPECI SBIZ 220045Z 00000KT 9999 SCT015 26/25 Q1011=
0142825640999992017012207154-05531-047460FM-16+013199999V0200101N001010061019N009999199+02501+02401999999ADDGA1071+006101999GE19MSL   +99999+99999GF199999071999006101999999MA1101001999999REMMET051SPECI SBIZ 220715Z 01002KT 9999 BKN020 25/24 Q1010=
0142825640999992017012208004-05531-047460FM-15+013199999V0203401N000510061019N009999199+02501+02401999999ADDGA1071+006101999GE19MSL   +99999+99999GF199999071999006101999999MA1101001999999REMMET051METAR SBIZ 220800Z 34001KT 9999 BKN020 25/24 Q1010=
0142825640999992017012209004-05531-047460FM-15+013199999V0209999C000010054919N009999199+02501+02401999999ADDGA1071+005491999GE19MSL   +99999+99999GF199999071999005491999999MA1101101999999REMMET051METAR SBIZ 220900Z 00000KT 9999 BKN018 25/24 Q1011=
0142825640999992017012210004-05531-047460FM-15+013199999V0203001N002610054919N009999199+02501+02401999999ADDGA1071+005491999GE19MSL   +99999+99999GF199999071999005491999999MA1101201999999REMMET051METAR SBIZ 221000Z 30005KT 9999 BKN018 25/24 Q1012=
0165825640999992017012211004-05531-047460FM-15+013199999V0202501N001510045719N009999199+02501+02401999999ADDGA1071+004571999GA2081+021341999GE19MSL   +99999+99999GF199999071999004571999999MA1101301999999REMMET058METAR SBIZ 221100Z 25003KT 9999 BKN015 OVC070 25/24 Q1013=
0165825640999992017012212004-05531-047460FM-15+013199999V0202901N002110045719N009999199+02701+02401999999ADDGA1021+003661999GA2071+004571999GE19MSL   +99999+99999GF199999021999003661999999MA1101301999999REMMET058METAR SBIZ 221200Z 29004KT 9999 FEW012 BKN015 27/24 Q1013=
0142825640999992017012213004-05531-047460FM-15+013199999V0209999C000010045719N009999199+02601+02501999999ADDGA1071+004571999GE19MSL   +99999+99999GF199999071999004571999999MA1101401999999REMMET051METAR SBIZ 221300Z 00000KT 9999 BKN015 26/25 Q1014=
0142825640999992017012215004-05531-047460FM-15+013199999V0201001N002110045719N009999199+03101+02401999999ADDGA1071+004571999GE19MSL   +99999+99999GF199999071999004571999999MA1101201999999REMMET051METAR SBIZ 221500Z 10004KT 9999 BKN015 31/24 Q1012=
0165825640999992017012216004-05531-047460FM-15+013199999V0209999C000010045719N009999199+03201+02501999999ADDGA1071+004571999GA2041+006101999GE19MSL   +99999+99999GF199999071999004571999999MA1101201999999REMMET058METAR SBIZ 221600Z 00000KT 9999 BKN015 SCT020 32/25 Q1012=
0165825640999992017012218004-05531-047460FM-15+013199999V0209999C00001006101CN009999199+03301+02501999999ADDGA1041+004571999GA2041+006101999GE19MSL   +99999+99999GF199999041999004571999999MA1100901999999REMMET058METAR SBIZ 221800Z 00000KT 9999 SCT015 SCT020 33/25 Q1009=
0165825640999992017012219004-05531-047460FM-15+013199999V0209999C000010061019N009999199+03401+02401999999ADDGA1071+006101999GA2041+024381999GE19MSL   +99999+99999GF199999071999006101999999MA1100801999999REMMET058METAR SBIZ 221900Z 00000KT 9999 BKN020 SCT080 34/24 Q1008=
0176825640999992017012221004-05531-047460FM-15+013199999V0202201N004119999999N009999199+03201+02501999999ADDGA1041+007011999GA2021+007621091GE19MSL   +99999+99999GF199999041999007011999999MA1100801999999MW1171REMMET063METAR SBIZ 222100Z 22008KT 9999 TS SCT023 FEW025CB 32/25 Q1008=
0179825640999992017012222004-05531-047460FM-15+013199999V0201201N010310030519N003000199+02901+02401999999ADDGA1071+003051999GA2021+007621091GE19MSL   +99999+99999GF199999071999003051999999MA1101001999999MW1971REMMET066METAR SBIZ 222200Z 12020KT 3000 +TSRA BKN010 FEW025CB 29/24 Q1010=
0183825640999992017012300004-05531-047460FM-15+013199999V0202301N000519999999N009999199+02501+02401999999ADDGA1041+004571999GA2021+007621091GE19MSL   +99999+99999GF199999041999004571999999MA1101101999999MW1131REMMET070METAR SBIZ 230000Z 23001KT 9999 VCTS SCT015 FEW025CB 25/24 Q1011 RETS=
0147825640999992017012300454-05531-047460FM-16+013199999V0209999C000019999999N009999199+02501+02401999999ADDGA1041+004571999GE19MSL   +99999+99999GF199999041999004571999999MA1101101999999REMMET056SPECI SBIZ 230045Z 00000KT 9999 SCT015 25/24 Q1011 RETS=
0142825640999992017012307154-05531-047460FM-16+013199999V0200701N002619999999N009999199+02501+02401999999ADDGA1041+004571999GE19MSL   +99999+99999GF199999041999004571999999MA1101101999999REMMET051SPECI SBIZ 230715Z 07005KT 9999 SCT015 25/24 Q1011=
0142825640999992017012308004-05531-047460FM-15+013199999V0200901N002619999999N009999199+02501+02401999999ADDGA1041+004571999GE19MSL   +99999+99999GF199999041999004571999999MA1101101999999REMMET051METAR SBIZ 230800Z 09005KT 9999 SCT015 25/24 Q1011=
0165825640999992017012310004-05531-047460FM-15+013199999V0209999C000010243819N009999199+02501+02301999999ADDGA1041+004571999GA2071+024381999GE19MSL   +99999+99999GF199999041999004571999999MA1101201999999REMMET058METAR SBIZ 231000Z 00000KT 9999 SCT015 BKN080 25/23 Q1012=
0165825640999992017012311004-05531-047460FM-15+013199999V0201301N002110243819N009999199+02601+02401999999ADDGA1021+004571999GA2071+024381999GE19MSL   +99999+99999GF199999021999004571999999MA1101201999999REMMET058METAR SBIZ 231100Z 13004KT 9999 FEW015 BKN080 26/24 Q1012=
0165825640999992017012313004-05531-047460FM-15+013199999V0201301N003110243819N009999199+02901+02401999999ADDGA1021+004571999GA2071+024381999GE19MSL   +99999+99999GF199999021999004571999999MA1101301999999REMMET058METAR SBIZ 231300Z 13006KT 9999 FEW015 BKN080 29/24 Q1013=
0165825640999992017012314004-05531-047460FM-15+013199999V0201301N003110243819N009999199+03001+02501999999ADDGA1041+005491999GA2071+024381999GE19MSL   +99999+99999GF199999041999005491999999MA1101201999999REMMET058METAR SBIZ 231400Z 13006KT 9999 SCT018 BKN080 30/25 Q1012=
0142825640999992017012316004-05531-047460FM-15+013199999V0201001N002619999999N009999199+03101+02401999999ADDGA1041+006101999GE19MSL   +99999+99999GF199999041999006101999999MA1101101999999REMMET051METAR SBIZ 231600Z 10005KT 9999 SCT020 31/24 Q1011=
0142825640999992017012318004-05531-047460FM-15+013199999V0200501N002119999999N009999199+03201+02401999999ADDGA1041+006101999GE19MSL   +99999+99999GF199999041999006101999999MA1100901999999REMMET051METAR SBIZ 231800Z 05004KT 9999 SCT020 32/24 Q1009=
0168825640999992017012320004-05531-047460FM-15+013199999V0202501N001019999999N009999199+03301+02501999999ADDGA1041+006101999GA2021+007011081GE19MSL   +99999+99999GF199999041999006101999999MA1100801999999REMMET061METAR SBIZ 232000Z 25002KT 9999 SCT020 FEW023TCU 33/25 Q1008=
0176825640999992017012321004-05531-047460FM-15+013199999V0202301N001519999999N009999199+03201+02501999999ADDGA1021+006101999GA2021+007621091GE19MSL   +99999+99999GF199999021999006101999999MA1100901999999MW1171REMMET063METAR SBIZ 232100Z 23003KT 9999 TS FEW020 FEW025CB 32/25 Q1009=
0179825640999992017012321204-05531-047460FM-16+013199999V0201201N003619999999N009000199+02701+02601999999ADDGA1041+006101999GA2021+007621091GE19MSL   +99999+99999GF199999041999006101999999MA1101001999999MW1951REMMET066SPECI SBIZ 232120Z 12007KT 9000 -TSRA SCT020 FEW025CB 27/26 Q1010=
0199825640999992017012322004-05531-047460FM-15+013199999V0202501N00101006101CN009999199+02701+02601999999ADDGA1021+003051999GA2041+006101999GA3021+007621091GE19MSL   +99999+99999GF199999021999003051999999MA1101001999999MW1171REMMET070METAR SBIZ 232200Z 25002KT 9999 TS FEW010 SCT020 FEW025CB 27/26 Q1010=
0176825640999992017012323004-05531-047460FM-15+013199999V0209999C000019999999N009999199+02601+02501999999ADDGA1021+006101999GA2021+007621091GE19MSL   +99999+99999GF199999021999006101999999MA1101101999999MW1171REMMET063METAR SBIZ 232300Z 00000KT 9999 TS FEW020 FEW025CB 26/25 Q1011=
0176825640999992017012400004-05531-047460FM-15+013199999V0209999C000019999999N009999199+02601+02601999999ADDGA1021+006101999GA2021+007621091GE19MSL   +99999+99999GF199999021999006101999999MA1101101999999MW1171REMMET063METAR SBIZ 240000Z 00000KT 9999 TS FEW020 FEW025CB 26/26 Q1011=
0176825640999992017012400454-05531-047460FM-16+013199999V0202001N001019999999N009999199+02601+02601999999ADDGA1021+003051999GA2021+007621091GE19MSL   +99999+99999GF199999021999003051999999MA1101201999999MW1171REMMET063SPECI SBIZ 240045Z 20002KT 9999 TS FEW010 FEW025CB 26/26 Q1012=
0198825640999992017012407154-05531-047460FM-16+013199999V0209999C00001004571CN005000199+02301+02201999999ADDGA1041+001521999GA2041+004571999GA3081+021341999GE19MSL   +99999+99999GF199999041999001521999999MA1101101999999MW1611REMMET069SPECI SBIZ 240715Z 00000KT 5000 -RA SCT005 SCT015 OVC070 23/22 Q1011=
0198825640999992017012410004-05531-047460FM-15+013199999V0200301N00151004571CN009999199+02301+02301999999ADDGA1021+001521999GA2041+004571999GA3081+021341999GE19MSL   +99999+99999GF199999021999001521999999MA1101301999999MW1611REMMET069METAR SBIZ 241000Z 03003KT 9999 -RA FEW005 SCT015 OVC070 23/23 Q1013=
0198825640999992017012411004-05531-047460FM-15+013199999V0203201N002610045719N009999199+02401+02301999999ADDGA1021+001521999GA2071+004571999GA3081+021341999GE19MSL   +99999+99999GF199999021999001521999999MA1101501999999MW1611REMMET069METAR SBIZ 241100Z 32005KT 9999 -RA FEW005 BKN015 OVC070 24/23 Q1015=
0174825640999992017012412004-05531-047460FM-15+013199999V0203001N002610045719N009000199+02401+02301999999ADDGA1071+004571999GA2081+021341999GE19MSL   +99999+99999GF199999071999004571999999MA1101501999999MW1631REMMET061METAR SBIZ 241200Z 30005KT 9000 RA BKN015 OVC070 24/23 Q1015=
0202825640999992017012413004-05531-047460FM-15+013199999V0202401N003110045719N005000199+02401+02401999999ADDGA1041+003051999GA2071+004571999GA3081+021341999GE19MSL   +99999+99999GF199999041999003051999999MA1101601999999MW1631REMMET073METAR SBIZ 241300Z 24006KT 5000 RA SCT010 BKN015 OVC070 24/24 Q1016 RERA=
0203825640999992017012413354-05531-047460FM-16+013199999V0202101N000510045719N001000199+02401+02401999999ADDGA1041+003051999GA2071+004571999GA3081+021341999GE19MSL   +99999+99999GF199999041999003051999999MA1101601999999MW1651REMMET074SPECI SBIZ 241335Z 21001KT 1000 +RA SCT010 BKN015 OVC070 24/24 Q1016 RERA=
0203825640999992017012414004-05531-047460FM-15+013199999V0202101N000510045719N001000199+02301+02301999999ADDGA1041+003051999GA2071+004571999GA3081+021341999GE19MSL   +99999+99999GF199999041999003051999999MA1101702999999MW1651REMMET074METAR SBIZ 241400Z 21001KT 1000 +RA SCT010 BKN015 OVC070 23/23 Q1017 RERA=
0203825640999992017012414404-05531-047460FM-16+013199999V0202501N00151004571CN002000199+02301+02201999999ADDGA1021+003051999GA2041+004571999GA3081+021341999GE19MSL   +99999+99999GF199999021999003051999999MA1101601999999MW1611REMMET074SPECI SBIZ 241440Z 25003KT 2000 -RA FEW010 SCT015 OVC070 23/22 Q1016 RERA=
0198825640999992017012415004-05531-047460FM-15+013199999V0202501N00211004571CN003000199+02301+02301999999ADDGA1041+002441999GA2041+004571999GA3081+021341999GE19MSL   +99999+99999GF199999041999002441999999MA1101601999999MW1611REMMET069METAR SBIZ 241500Z 25004KT 3000 -RA SCT008 SCT015 OVC070 23/23 Q1016=
0197825640999992017012416004-05531-047460FM-15+013199999V0202201N00311004571CN003000199+02301+02301999999ADDGA1041+002441999GA2041+004571999GA3081+021341999GE19MSL   +99999+99999GF199999041999002441999999MA1101501999999MW1631REMMET068METAR SBIZ 241600Z 22006KT 3000 RA SCT008 SCT015 OVC070 23/23 Q1015=
0202825640999992017012417004-05531-047460FM-15+013199999V0202301N00411004571CN005000199+02301+02201999999ADDGA1041+001831999GA2041+004571999GA3081+021341999GE19MSL   +99999+99999GF199999041999001831999999MA1101501999999MW1631REMMET073METAR SBIZ 241700Z 23008KT 5000 RA SCT006 SCT015 OVC070 23/22 Q1015 RERA=
0203825640999992017012418004-05531-047460FM-15+013199999V0202301N00101004571CN009000199+02301+02301999999ADDGA1041+001521999GA2041+004571999GA3081+021341999GE19MSL   +99999+99999GF199999041999001521999999MA1101301999999MW1611REMMET074METAR SBIZ 241800Z 23002KT 9000 -RA SCT005 SCT015 OVC070 23/23 Q1013 RERA=
0165825640999992017012420004-05531-047460FM-15+013199999V0209999C000010243819N009999199+02401+02201999999ADDGA1041+003051999GA2071+024381999GE19MSL   +99999+99999GF199999041999003051999999MA1101101999999REMMET058METAR SBIZ 242000Z 00000KT 9999 SCT010 BKN080 24/22 Q1011=
0188825640999992017012422004-05531-047460FM-15+013199999V0201201N00051003661CN009999199+02401+02201999999ADDGA1021+002741999GA2041+003661999GA3071+024381999GE19MSL   +99999+99999GF199999021999002741999999MA1101201999999REMMET065METAR SBIZ 242200Z 12001KT 9999 FEW009 SCT012 BKN080 24/22 Q1012=
0165825640999992017012423004-05531-047460FM-15+013199999V0200701N000510243819N009999199+02301+02301999999ADDGA1041+003661999GA2071+024381999GE19MSL   +99999+99999GF199999041999003661999999MA1101301999999REMMET058METAR SBIZ 242300Z 07001KT 9999 SCT012 BKN080 23/23 Q1013=
0165825640999992017012500004-05531-047460FM-15+013199999V0203101N00051021341CN009999199+02301+02301999999ADDGA1021+002131999GA2041+021341999GE19MSL   +99999+99999GF199999021999002131999999MA1101301999999REMMET058METAR SBIZ 250000Z 31001KT 9999 FEW007 SCT070 23/23 Q1013=
0165825640999992017012500454-05531-047460FM-16+013199999V0203301N001510213419N009999199+02301+02301999999ADDGA1021+002741999GA2071+021341999GE19MSL   +99999+99999GF199999021999002741999999MA1101401999999REMMET058SPECI SBIZ 250045Z 33003KT 9999 FEW009 BKN070 23/23 Q1014=
0142825640999992017012507154-05531-047460FM-16+013199999V0203101N001010012219N009000199+02301+02201999999ADDGA1071+001221999GE19MSL   +99999+99999GF199999071999001221999999MA1101301999999REMMET051SPECI SBIZ 250715Z 31002KT 9000 BKN004 23/22 Q1013=
0165825640999992017012508004-05531-047460FM-15+013199999V0203101N001510045719N009000199+02301+02201999999ADDGA1041+001521999GA2071+004571999GE19MSL   +99999+99999GF199999041999001521999999MA1101301999999REMMET058METAR SBIZ 250800Z 31003KT 9000 SCT005 BKN015 23/22 Q1013=
0165825640999992017012509004-05531-047460FM-15+013199999V0200101N00101004571CN009999199+02301+02201999999ADDGA1041+002741999GA2041+004571999GE19MSL   +99999+99999GF199999041999002741999999MA1101301999999REMMET058METAR SBIZ 250900Z 01002KT 9999 SCT009 SCT015 23/22 Q1013=
0165825640999992017012510004-05531-047460FM-15+013199999V0200201N000510213419N009999199+02301+02201999999ADDGA1041+004571999GA2071+021341999GE19MSL   +99999+99999GF199999041999004571999999MA1101401999999REMMET058METAR SBIZ 251000Z 02001KT 9999 SCT015 BKN070 23/22 Q1014=
0165825640999992017012512004-05531-047460FM-15+013199999V0209999C000010045719N009999199+02601+02201999999ADDGA1071+004571999GA2071+021341999GE19MSL   +99999+99999GF199999071999004571999999MA1101501999999REMMET058METAR SBIZ 251200Z 00000KT 9999 BKN015 BKN070 26/22 Q1015=
0165825640999992017012513004-05531-047460FM-15+013199999V0201401N001510045719N009999199+02601+02201999999ADDGA1071+004571999GA2071+021341999GE19MSL   +99999+99999GF199999071999004571999999MA1101501999999REMMET058METAR SBIZ 251300Z 14003KT 9999 BKN015 BKN070 26/22 Q1015=
0165825640999992017012514004-05531-047460FM-15+013199999V0201501N001010054919N009999199+02701+02301999999ADDGA1071+005491999GA2071+021341999GE19MSL   +99999+99999GF199999071999005491999999MA1101501999999REMMET058METAR SBIZ 251400Z 15002KT 9999 BKN018 BKN070 27/23 Q1015=
0165825640999992017012515004-05531-047460FM-15+013199999V0200801N001510061019N009999199+02801+02301999999ADDGA1071+006101999GA2071+021341999GE19MSL   +99999+99999GF199999071999006101999999MA1101501999999REMMET058METAR SBIZ 251500Z 08003KT 9999 BKN020 BKN070 28/23 Q1015=
0165825640999992017012516004-05531-047460FM-15+013199999V0201201N001010061019N009999199+02901+02301999999ADDGA1071+006101999GA2071+021341999GE19MSL   +99999+99999GF199999071999006101999999MA1101401999999REMMET058METAR SBIZ 251600Z 12002KT 9999 BKN020 BKN070 29/23 Q1014=
0188825640999992017012517004-05531-047460FM-15+013199999V0202501N001510091419N009999199+02901+02401999999ADDGA1041+006101999GA2071+009141999GA3071+021341999GE19MSL   +99999+99999GF199999041999006101999999MA1101301999999REMMET065METAR SBIZ 251700Z 25003KT 9999 SCT020 BKN030 BKN070 29/24 Q1013=
0165825640999992017012518004-05531-047460FM-15+013199999V0202401N00101010671CN009999199+03001+02401999999ADDGA1041+007621999GA2041+010671999GE19MSL   +99999+99999GF199999041999007621999999MA1101201999999REMMET058METAR SBIZ 251800Z 24002KT 9999 SCT025 SCT035 30/24 Q1012=
0142825640999992017012520004-05531-047460FM-15+013199999V0201201N001519999999N009999199+03101+02401999999ADDGA1021+009141999GE19MSL   +99999+99999GF199999021999009141999999MA1101101999999REMMET051METAR SBIZ 252000Z 12003KT 9999 FEW030 31/24 Q1011=
0142825640999992017012522004-05531-047460FM-15+013199999V0200901N001519999999N009999199+02801+02501999999ADDGA1021+009141999GE19MSL   +99999+99999GF199999021999009141999999MA1101101999999REMMET051METAR SBIZ 252200Z 09003KT 9999 FEW030 28/25 Q1011=
0155825640999992017012523004-05531-047460FM-15+013199999V0201201N001519999999N009999199+02701+02401999999ADDGA1021+009141091GE19MSL   +99999+99999GF199999021999009141999999MA1101201999999MW1131REMMET058METAR SBIZ 252300Z 12003KT 9999 VCTS FEW030CB 27/24 Q1012=
0072825640999992017012600004-05531-047460FM-15+013199999V0201001N002119999999Y999999999+02601+02401999999ADDMA1101301999999REMMET045METAR SBIZ 260000Z 10004KT CAVOK 26/24 Q1013=
0072825640999992017012600454-05531-047460FM-16+013199999V0201301N001519999999Y999999999+02601+02501999999ADDMA1101301999999REMMET045SPECI SBIZ 260045Z 13003KT CAVOK 26/25 Q1013=
0072825640999992017012608004-05531-047460FM-15+013199999V0209999C000019999999Y999999999+02301+02301999999ADDMA1101101999999REMMET045METAR SBIZ 260800Z 00000KT CAVOK 23/23 Q1011=
0165825640999992017012610004-05531-047460FM-15+013199999V0201601N00151021341CN009999199+02301+02301999999ADDGA1041+003051999GA2041+021341999GE19MSL   +99999+99999GF199999041999003051999999MA1101301999999REMMET058METAR SBIZ 261000Z 16003KT 9999 SCT010 SCT070 23/23 Q1013=
0142825640999992017012612004-05531-047460FM-15+013199999V0203101N001519999999N009999199+02601+02401999999ADDGA1041+003051999GE19MSL   +99999+99999GF199999041999003051999999MA1101401999999REMMET051METAR SBIZ 261200Z 31003KT 9999 SCT010 26/24 Q1014=
0142825640999992017012613004-05531-047460FM-15+013199999V0200401N001510045719N009999199+02801+02401999999ADDGA1071+004571999GE19MSL   +99999+99999GF199999071999004571999999MA1101401999999REMMET051METAR SBIZ 261300Z 04003KT 9999 BKN015 28/24 Q1014=
