0168825710999992017010100004-05500-045270FM-12+015399999V0203601N0000100300199010000199+02771+02401100921ADDAA101999999AZ101061AZ201061GA1081+003001061GA2999+999999101GA3999+999999101GE19MSL   +99999+99999GF108991081999003001999999MA1999999099191MD1999999-0011REMSYN004BUFR
0149825710999992017010112004-05500-045270FM-12+015399999V0203601N0021100300199010000199+02771+02421101181ADDAA101999999AZ101061AZ201061GA1061+003001081GE19MSL   +99999+99999GF106991061999003001999999KA1120N+02551MA1999999099451MD1999999+0041REMSYN004BUFR
0142825710999992017010118004-05500-045270FM-12+015399999V0202701N0010100300199010000199+03171+02471100751ADDAA106000231AY161061AY211061GA1061+003001081GE19MSL   +99999+99999GF106991061999003001999999MA1999999099031MD1999999-0081MW1031REMSYN004BUFR
0136825710999992017010200004-05500-045270FM-12+015399999V0203201N0005199999999010000199+02911+02431100941ADDAA101999999AZ101061AZ201061GA1021+003001081GE19MSL   +99999+99999GF102991021999003001999999MA1999999099221MD1999999+0031REMSYN004BUFR
0187825710999992017010212004-05500-045270FM-12+015399999V0201801N0015100300199010000199+02321+02221101211ADDAA124004031AY191061AY261061GA1081+003001061GA2999+999999101GA3999+999999101GE19MSL   +99999+99999GF108991081999003001999999KA1120N+02281MA1999999099461MD1999999+0011MW1021REMSYN004BUFR
0161825710999992017010218004-05500-045270FM-12+015399999V0200501N0010199999999010000199+02871+02441100845ADDAA101999999AZ101061AZ201061GA1021+003001081GA2999+999999031GE19MSL   +99999+99999GF107991021999003001999999MA1999999099121MD1999999+0091ME1912709REMSYN004BUFR
0152825710999992017010300004-05500-045270FM-12+015399999V0203201N0005199999999010000199+02701+02501100981ADDAA101999999AZ101061AZ201061GA1021+003001081GA2999+999999041GE19MSL   +99999+99999GF106991021999003001999999MA1999999099231MD1999999+0011REMSYN004BUFR
0165825710999992017010312004-05500-045270FM-12+015399999V0200501N0021199999999010000199+02601+02211101181ADDAA101999999AZ101061AZ201061GA1011+003001081GA2999+999999031GE19MSL   +99999+99999GF104991011999003001999999KA1120N+02341MA1999999099441MD1999999-0021REMSYN004BUFR
0152825710999992017010318004-05500-045270FM-12+015399999V0200501N0021199999999010000199+03121+02381100761ADDAA101999999AZ101061AZ201061GA1021+003001081GA2999+999999041GE19MSL   +99999+99999GF104991021999003001999999MA1999999099041MD1999999-0081REMSYN004BUFR
0136825710999992017010400004-05500-045270FM-12+015399999V0200501N0010199999999010000199+02811+02471100921ADDAA101999999AZ101061AZ201061GA1031+017501031GE19MSL   +99999+99999GF103991031999017501999999MA1999999099191MD1999999-0041REMSYN004BUFR
0149825710999992017010412004-05500-045270FM-12+015399999V0200901N0026100300199010000199+02621+02391101211ADDAA101999999AZ101061AZ201061GA1061+003001081GE19MSL   +99999+99999GF106991061999003001999999KA1120N+02381MA1999999099471MD1999999+0031REMSYN004BUFR
0158825710999992017010418004-05500-045270FM-12+015399999V0200901N0021199999999010000199+03251+02331100791ADDAA106000231AY161061AY221061GA1031+003001081GA2999+999999031GE19MSL   +99999+99999GF104991031999003001999999MA1999999099071MD1999999+0031MW1011REMSYN004BUFR
0158825710999992017010500004-05500-045270FM-12+015399999V0200501N0005199999999010000199+02821+02311100831ADDAA101999999AY121061AY211061GA1021+003001081GA2999+999999031GE19MSL   +99999+99999GF103991021999003001999999MA1999999099101MD1999999-0091MW1131REMSYN004BUFR
0149825710999992017010512004-05500-045270FM-12+015399999V0200501N0041100300199010000199+02851+02331101141ADDAA124000231AZ101061AZ201061GA1051+003001081GE19MSL   +99999+99999GF105991051999003001999999KA1120N+02511MA1999999099411MD1999999-0061REMSYN004BUFR
0136825710999992017010518004-05500-045270FM-12+015399999V0200501N0015100300199010000199+03401+02211100851ADDAA101999999AZ101061AZ201061GA1051+003001081GE19MSL   +99999+99999GF106991051999003001999999MA1999999099141MD1999999-0041REMSYN004BUFR
0136825710999992017010600004-05500-045270FM-12+015399999V0203201N0005199999999010000199+02851+02441100941ADDAA101999999AZ101061AZ201061GA1021+017501031GE19MSL   +99999+99999GF102991021999017501999999MA1999999099221MD1999999+0121REMSYN004BUFR
0149825710999992017010612004-05500-045270FM-12+015399999V0200501N0021100300199010000199+02771+02401101181ADDAA101999999AZ101061AZ201061GA1061+003001081GE19MSL   +99999+99999GF106991061999003001999999KA1120N+02421MA1999999099451MD1999999+0041REMSYN004BUFR
0168825710999992017010618004-05500-045270FM-12+015399999V0203601N0031199999999010000199+03371+02351100711ADDAA101999999AZ101061AZ201061GA1021+003001081GA2999+999999031GA3999+999999001GE19MSL   +99999+99999GF106991021999003001999999MA1999999099001MD1999999-0141REMSYN004BUFR
0171825710999992017010700004-05500-045270FM-12+015399999V0200501N0015199999999010000199+02851+02391999999ADDAA101999999AZ101061AZ201061GA1062+017501031GE19MSL   +99999+99999GF102992062999017501999999MA1999999099211MD1999999-0011REMSYN004BUFREQDQ01 099243APOSLPQ02 017503SCOCIG
0165825710999992017010712004-05500-045270FM-12+015399999V0200501N0021100300199010000199+02751+02341101261ADDAA101999999AZ101061AZ201061GA1051+003001081GA2999+999999001GE19MSL   +99999+99999GF106991051999003001999999KA1120N+02481MA1999999099531MD1999999+0081REMSYN004BUFR
0136825710999992017010718004-05500-045270FM-12+015399999V0203601N0010100300199010000199+03201+02461100841ADDAA101999999AZ101061AZ201061GA1051+003001081GE19MSL   +99999+99999GF105991051999003001999999MA1999999099141MD1999999+0141REMSYN004BUFR
0155825710999992017010800004-05500-045270FM-12+015399999V0200501N0010100300199010000199+02801+02311999999ADDAA101999999AZ101061AZ201061GA1061+003001081GE19MSL   +99999+99999GF106991061999003001999999MA1999999099221MD1999999+0011REMSYN004BUFREQDQ01 090053APOSLP
0149825710999992017010812004-05500-045270FM-12+015399999V0200501N0026199999999010000199+02851+02381101131ADDAA101999999AZ101061AZ201061GA1041+003001081GE19MSL   +99999+99999GF104991041999003001999999KA1120N+02501MA1999999099401MD1999999-0131REMSYN004BUFR
0136825710999992017010818004-05500-045270FM-12+015399999V0200501N0031199999999010000199+03401+02311100601ADDAA101999999AZ101061AZ201061GA1031+003001081GE19MSL   +99999+99999GF103991031999003001999999MA1999999098891MD1999999-0251REMSYN004BUFR
0142825710999992017010900004-05500-045270FM-12+015399999V0200501N0010199999999010000199+02651+02331101121ADDAA101999999AY111061AY201061GA1041+003001081GE19MSL   +99999+99999GF104991041999003001999999MA1999999099391MD1999999+0171MW1131REMSYN004BUFR
0149825710999992017010912004-05500-045270FM-12+015399999V0200501N0021100300199010000199+02621+02391101201ADDAA101999999AZ101061AZ201061GA1061+003001081GE19MSL   +99999+99999GF106991061999003001999999KA1120N+02451MA1999999099461MD1999999+0061REMSYN004BUFR
0158825710999992017010918004-05500-045270FM-12+015399999V0203201N0026100300199004000199+02501+02321100861ADDAA106008031AY161061AY211061GA1051+003001061GA2999+999999031GE19MSL   +99999+99999GF107991051999003001999999MA1999999099111MD1999999+0221MW1951REMSYN004BUFR
0142825710999992017011000004-05500-045270FM-12+015399999V0200501N0021100300199010000199+02471+02361101051ADDAA106000431AY191061AY261061GA1071+003001061GE19MSL   +99999+99999GF107991071999003001999999MA1999999099301MD1999999-0091MW1131REMSYN004BUFR
0187825710999992017011012004-05500-045270FM-12+015399999V0200501N0015100300199010000199+02551+02381101171ADDAA124009031AY151061AY221061GA1081+003001061GA2999+999999101GA3999+999999101GE19MSL   +99999+99999GF108991081999003001999999KA1120N+02321MA1999999099421MD1999999-0041MW1021REMSYN004BUFR
0152825710999992017011018004-05500-045270FM-12+015399999V0200501N0026199999999010000199+03021+02381100701ADDAA101999999AZ101061AZ201061GA1031+003001081GA2999+999999031GE19MSL   +99999+99999GF104991031999003001999999MA1999999098971MD1999999-0141REMSYN004BUFR
0136825710999992017011100004-05500-045270FM-12+015399999V0203601N0000199999999010000199+02701+02431100901ADDAA101999999AZ101061AZ201061GA1011+017501031GE19MSL   +99999+99999GF101991011999017501999999MA1999999099161MD1999999-0141REMSYN004BUFR
0187825710999992017011112004-05500-045270FM-12+015399999V0200501N0010100300199010000199+02321+02221101261ADDAA124001031AY161061AY221061GA1081+003001061GA2999+999999101GA3999+999999101GE19MSL   +99999+99999GF108991081999003001999999KA1120N+02261MA1999999099511MD1999999+0091MW1021REMSYN004BUFR
0136825710999992017011118004-05500-045270FM-12+015399999V0201401N0031100300199010000199+03001+02391100731ADDAA101999999AZ101061AZ201061GA1061+003001081GE19MSL   +99999+99999GF106991061999003001999999MA1999999099021MD1999999+0051REMSYN004BUFR
0142825710999992017011200004-05500-045270FM-12+015399999V0200501N0051100300199010000199+02521+02131101601ADDAA101999999AY121061AY211061GA1061+003001081GE19MSL   +99999+99999GF106991061999003001999999MA1999999099311MD1999999+0151MW1131REMSYN004BUFR
0187825710999992017011212004-05500-045270FM-12+015399999V0203201N0005199999999010000199+02551+02331101181ADDAA124000631AY161061AY221061GA1031+003001081GA2999+999999031GA3999+999999001GE19MSL   +99999+99999GF105991031999003001999999KA1120N+02301MA1999999099431MD1999999-0081MW1021REMSYN004BUFR
0152825710999992017011218004-05500-045270FM-12+015399999V0200501N0015199999999010000199+03171+02311100861ADDAA101999999AZ101061AZ201061GA1031+003001081GA2999+999999031GE19MSL   +99999+99999GF104991031999003001999999MA1999999099131MD1999999+0111REMSYN004BUFR
0136825710999992017011300004-05500-045270FM-12+015399999V0203601N0010199999999010000199+02821+02001100971ADDAA101999999AZ101061AZ201061GA1011+017501031GE19MSL   +99999+99999GF101991011999017501999999MA1999999099191MD1999999-0121REMSYN004BUFR
0149825710999992017011312004-05500-045270FM-12+015399999V0200501N0015199999999010000199+02721+02221101061ADDAA101999999AZ101061AZ201061GA1041+003001081GE19MSL   +99999+99999GF104991041999003001999999KA1120N+02381MA1999999099331MD1999999-0101REMSYN004BUFR
0136825710999992017011318004-05500-045270FM-12+015399999V0200501N0021100300199010000199+03321+02251100751ADDAA101999999AZ101061AZ201061GA1051+003001081GE19MSL   +99999+99999GF105991051999003001999999MA1999999099041MD1999999-0091REMSYN004BUFR
0152825710999992017011400004-05500-045270FM-12+015399999V0203601N0015199999999010000199+02901+02461100821ADDAA101999999AZ101061AZ201061GA1011+003001081GA2999+999999031GE19MSL   +99999+99999GF102991011999003001999999MA1999999099101MD1999999-0091REMSYN004BUFR
0187825710999992017011412004-05500-045270FM-12+015399999V0201401N0010100300199010000199+02211+02141101231ADDAA124073031AY191061AY261061GA1081+003001061GA2999+999999101GA3999+999999101GE19MSL   +99999+99999GF108991081999003001999999KA1120N+02211MA1999999099481MD1999999+0151MW1911REMSYN004BUFR
0174825710999992017011418004-05500-045270FM-12+015399999V0203201N0015100300199010000199+02621+02421100791ADDAA106000231AY161061AY221061GA1081+003001061GA2999+999999101GA3999+999999101GE19MSL   +99999+99999GF108991081999003001999999MA1999999099051MD1999999+0011MW1021REMSYN004BUFR
0168825710999992017011500004-05500-045270FM-12+015399999V0203601N0000100300199010000199+02521+02401101051ADDAA101999999AZ101061AZ201061GA1081+003001061GA2999+999999101GA3999+999999101GE19MSL   +99999+99999GF108991081999003001999999MA1999999099291MD1999999+0191REMSYN004BUFR
0165825710999992017011512004-05500-045270FM-12+015399999V0200901N0005199999999010000199+02471+02341101161ADDAA124000231AZ101061AZ201061GA1041+003001081GA2999+999999001GE19MSL   +99999+99999GF105991041999003001999999KA1120N+02251MA1999999099411MD1999999-0071REMSYN004BUFR
0152825710999992017011518004-05500-045270FM-12+015399999V0203601N0000199999999010000199+03151+02451100741ADDAA101999999AZ101061AZ201061GA1041+003001081GA2999+999999031GE19MSL   +99999+99999GF106991041999003001999999MA1999999099011MD1999999-0041REMSYN004BUFR
0168825710999992017011600004-05500-045270FM-12+015399999V0203601N0000100300199010000199+02751+02521100791ADDAA101999999AZ101061AZ201061GA1081+003001061GA2999+999999101GA3999+999999101GE19MSL   +99999+99999GF108991081999003001999999MA1999999099051MD1999999-0241REMSYN004BUFR
0149825710999992017011612004-05500-045270FM-12+015399999V0203601N0026199999999010000199+02721+02381101021ADDAA101999999AZ101061AZ201061GA1031+003001081GE19MSL   +99999+99999GF103991031999003001999999KA1120N+02511MA1999999099291MD1999999-0121REMSYN004BUFR
0136825710999992017011618004-05500-045270FM-12+015399999V0200501N0021100300199010000199+03151+02451100641ADDAA101999999AZ101061AZ201061GA1061+003001081GE19MSL   +99999+99999GF106991061999003001999999MA1999999098921MD1999999-0091REMSYN004BUFR
0098825710999992017011700004-05500-045270FM-12+015399999V0201401N0010122000199010000199+02811+02561100861ADDAA101999999AZ101061AZ201061GF100991999999999999999999MA1999999099131MD1999999+0081REMSYN004BUFR
0149825710999992017011712004-05500-045270FM-12+015399999V0200501N0036100300199010000199+02621+02411101011ADDAA101999999AZ101061AZ201061GA1061+003001081GE19MSL   +99999+99999GF106991061999003001999999KA1120N+02481MA1999999099281MD1999999-0011REMSYN004BUFR
0158825710999992017011718004-05500-045270FM-12+015399999V0200501N0021199999999010000199+03001+02531100521ADDAA106000431AY121061AY211061GA1031+003001081GA2999+999999031GE19MSL   +99999+99999GF104991031999003001999999MA1999999098801MD1999999-0121MW1211REMSYN004BUFR
0142825710999992017011800004-05500-045270FM-12+015399999V0200901N0005199999999010000199+02661+02411100821ADDAA106002031AY161061AY211061GA1031+003001081GE19MSL   +99999+99999GF103991031999003001999999MA1999999099091MD1999999-0041MW1131REMSYN004BUFR
0165825710999992017011812004-05500-045270FM-12+015399999V0200501N0015100300199010000199+02721+02431101141ADDAA124002031AZ101061AZ201061GA1061+003001081GA2999+999999031GE19MSL   +99999+99999GF107991061999003001999999KA1120N+02481MA1999999099401MD1999999+0121REMSYN004BUFR
0224825710999992017011818004-05500-045267FM-12+015399999V0203201N002119999999N010000199+02861+02421100871ADDAA106000431AY161021AY221021GA1041+004501061GA2999+999999031GE19MSL   +99999+99999GF107991041999004501999999MA1999999099141MD1999999+0341MW1021REMSYN07082571 21497 73204 10286 20242 39914 40087 70262 84570 333 58034 69941=
0136825710999992017011900004-05500-045270FM-12+015399999V0202301N0005100300199010000199+02521+02331101191ADDAA101999999AZ101061AZ201061GA1061+003001081GE19MSL   +99999+99999GF106991061999003001999999MA1999999099451MD1999999+0361REMSYN004BUFR
0171825710999992017011912004-05500-045270FM-12+015399999V0200501N0021199999999010000199+02301+02081101291ADDAA124007031AY161061AY221061GA1041+003001081GA2999+999999031GE19MSL   +99999+99999GF105991041999003001999999KA1120N+02311MA1999999099531MD1999999+0131MW1021REMSYN004BUFR
0152825710999992017011918004-05500-045270FM-12+015399999V0201401N0021199999999010000199+03101+02181100911ADDAA101999999AZ101061AZ201061GA1011+003001081GA2999+999999031GE19MSL   +99999+99999GF108991011999003001999999MA1999999099181MD1999999+0041REMSYN004BUFR
0142825710999992017012000004-05500-045270FM-12+015399999V0202301N0021100300199010000199+02721+02281101141ADDAA101999999AY121061AY211061GA1061+003001081GE19MSL   +99999+99999GF106991061999003001999999MA1999999099391MD1999999-0061MW1131REMSYN004BUFR
0149825710999992017012012004-05500-045270FM-12+015399999V0200901N0005100300199010000199+02501+02171101291ADDAA101999999AZ101061AZ201061GA1071+003001061GE19MSL   +99999+99999GF107991071999003001999999KA1120N+02321MA1999999099541MD1999999+0011REMSYN004BUFR
0136825710999992017012018004-05500-045270FM-12+015399999V0201401N0021100300199010000199+03101+02461100861ADDAA101999999AZ101061AZ201061GA1061+003001081GE19MSL   +99999+99999GF106991061999003001999999MA1999999099131MD1999999-0051REMSYN004BUFR
0149825710999992017012112004-05500-045270FM-12+015399999V0200501N0021199999999010000199+02771+02421101161ADDAA101999999AZ101061AZ201061GA1031+003001081GE19MSL   +99999+99999GF103991031999003001999999KA1120N+02301MA1999999099431MD1999999-0111REMSYN004BUFR
0136825710999992017012118004-05500-045270FM-12+015399999V0200901N0026199999999010000199+03251+02301101011ADDAA101999999AZ101061AZ201061GA1021+003001081GE19MSL   +99999+99999GF102991021999003001999999MA1999999099011MD1999999-0121REMSYN004BUFR
0098825710999992017012200004-05500-045270FM-12+015399999V0203601N0021122000199010000199+02851+02371100971ADDAA101999999AZ101061AZ201061GF100991999999999999999999MA1999999099241MD1999999-0021REMSYN004BUFR
0165825710999992017012212004-05500-045270FM-12+015399999V0200501N0015199999999010000199+02661+02411101221ADDAA101999999AZ101061AZ201061GA1031+003001081GA2999+999999001GE19MSL   +99999+99999GF105991031999003001999999KA1120N+02371MA1999999099491MD1999999+0061REMSYN004BUFR
0136825710999992017012218004-05500-045270FM-12+015399999V0201401N0026199999999010000199+03201+02331100861ADDAA101999999AZ101061AZ201061GA1041+003001081GE19MSL   +99999+99999GF104991041999003001999999MA1999999099141MD1999999+0131REMSYN004BUFR
0142825710999992017012300004-05500-045270FM-12+015399999V0200501N0015100300199010000199+02871+02411100951ADDAA101999999AY121061AY211061GA1051+003001081GE19MSL   +99999+99999GF105991051999003001999999MA1999999099221MD1999999-0021MW1131REMSYN004BUFR
0149825710999992017012312004-05500-045270FM-12+015399999V0200501N0026100300199010000199+02701+02411101181ADDAA101999999AZ101061AZ201061GA1071+003001081GE19MSL   +99999+99999GF107991071999003001999999KA1120N+02491MA1999999099451MD1999999-0041REMSYN004BUFR
0174825710999992017012318004-05500-045270FM-12+015399999V0200501N0015199999999010000199+03151+02501100741ADDAA106000431AY121061AY211061GA1021+003001081GA2999+999999031GA3999+999999001GE19MSL   +99999+99999GF105991021999003001999999MA1999999099021MD1999999-0121MW1211REMSYN004BUFR
0174825710999992017012400004-05500-045270FM-12+015399999V0203201N0021100300199010000199+02471+02291101111ADDAA106006031AY191061AY261061GA1081+003001061GA2999+999999101GA3999+999999101GE19MSL   +99999+99999GF108991081999003001999999MA1999999099371MD1999999+0151MW1211REMSYN004BUFR
0187825710999992017012412004-05500-045270FM-12+015399999V0202301N0021199999999004000199+02211+02151101441ADDAA124035031AY191061AY261061GA1041+003001061GA2999+999999031GA3999+999999001GE19MSL   +99999+99999GF108991041999003001999999KA1120N+02201MA1999999099671MD1999999+0221MW1951REMSYN004BUFR
0174825710999992017012418004-05500-045270FM-12+015399999V0202301N0015100300199010000199+02371+02311101171ADDAA106041031AY191061AY261061GA1081+003001061GA2999+999999101GA3999+999999101GE19MSL   +99999+99999GF108991081999003001999999MA1999999099411MD1999999+0391MW1021REMSYN004BUFR
0136825710999992017012500004-05500-045270FM-12+015399999V0202301N0005199999999010000199+02371+02311101261ADDAA101999999AZ101061AZ201061GA1011+003001081GE19MSL   +99999+99999GF101991011999003001999999MA1999999099491MD1999999+0121REMSYN004BUFR
0181825710999992017012512004-05500-045270FM-12+015399999V0202701N0005100300199010000199+02311+02251101481ADDAA124041031AZ101061AZ201061GA1081+003001061GA2999+999999101GA3999+999999101GE19MSL   +99999+99999GF108991081999003001999999KA1120N+02191MA1999999099711MD1999999+0041REMSYN004BUFR
0136825710999992017012518004-05500-045270FM-12+015399999V0202701N0015199999999010000199+03011+02411101031ADDAA101999999AZ101061AZ201061GA1031+003001081GE19MSL   +99999+99999GF103991031999003001999999MA1999999099291MD1999999-0121REMSYN004BUFR
0174825710999992017012600004-05500-045270FM-12+015399999V0202301N0015100300199010000199+02321+02151101281ADDAA106014031AY191061AY261061GA1061+003001071GA2999+999999051GA3999+999999101GE19MSL   +99999+99999GF108991061999003001999999MA1999999099511MD1999999+0021MW1511REMSYN004BUFR
0155825710999992017012612004-05500-045270FM-12+015399999V0202301N0005100300199010000199+02371+02241101381ADDAA124015031AY161061AY221061GA1071+003001061GE19MSL   +99999+99999GF107991071999003001999999KA1120N+02191MA1999999099621MD1999999-0091MW1211REMSYN004BUFR
0136825710999992017012618004-05500-045270FM-12+015399999V0200501N0021100300199010000199+03021+02411101051ADDAA101999999AZ101061AZ201061GA1061+003001081GE19MSL   +99999+99999GF106991061999003001999999MA1999999099311MD1999999+0021REMSYN004BUFR
0136825710999992017012700004-05500-045270FM-12+015399999V0203601N0000199999999010000199+02721+02521101191ADDAA101999999AZ101061AZ201061GA1011+003001081GE19MSL   +99999+99999GF101991011999003001999999MA1999999099441MD1999999-0071REMSYN004BUFR
0149825710999992017012712004-05500-045270FM-12+015399999V0200501N0021100300199010000199+02671+02391101311ADDAA101999999AZ101061AZ201061GA1061+003001081GE19MSL   +99999+99999GF106991061999003001999999KA1120N+02371MA1999999099571MD1999999-0051REMSYN004BUFR
0142825710999992017012718004-05500-045270FM-12+015399999V0200501N0021100300199010000199+03021+02521100961ADDAA106000531AY161061AY221061GA1061+003001081GE19MSL   +99999+99999GF106991061999003001999999MA1999999099231MD1999999-0081MW1021REMSYN004BUFR
0142825710999992017012800004-05500-045270FM-12+015399999V0202301N0005100300199010000199+02501+02431101141ADDAA106027031AY191061AY261061GA1071+003001061GE19MSL   +99999+99999GF107991071999003001999999MA1999999099401MD1999999-0041MW1131REMSYN004BUFR
0165825710999992017012812004-05500-045270FM-12+015399999V0200501N0021199999999010000199+02561+02361101411ADDAA124008031AZ101061AZ201061GA1041+003001081GA2999+999999031GE19MSL   +99999+99999GF106991041999003001999999KA1120N+02421MA1999999099661MD1999999+0091REMSYN004BUFR
0152825710999992017012818004-05500-045270FM-12+015399999V0201401N0021199999999010000199+03071+02441100901ADDAA101999999AZ101061AZ201061GA1041+003001081GA2999+999999001GE19MSL   +99999+99999GF105991041999003001999999MA1999999099171MD1999999-0061REMSYN004BUFR
0174825710999992017012900004-05500-045270FM-12+015399999V0200501N0005100300199010000199+02561+02381101111ADDAA106001031AY191061AY261061GA1081+003001071GA2999+999999031GA3999+999999101GE19MSL   +99999+99999GF108991081999003001999999MA1999999099361MD1999999-0041MW1511REMSYN004BUFR
0199825710999992017012912004-05500-045267FM-12+015399999V0209999C000019999999N010000199+02551+02381101311ADDAA124001031GA1081+004501061GE19MSL   +99999+99999GF108991081999004501999999KA1240N+02421MA1999999099561MD1999999-0101REMSYN07082571 22497 80000 10255 20238 39956 40131 885// 333 20242 59010 60014=
0142825710999992017012918004-05500-045270FM-12+015399999V0200901N0021100300199010000199+03071+02471100881ADDAA106000431AY161061AY211061GA1061+003001081GE19MSL   +99999+99999GF106991061999003001999999MA1999999099151MD1999999-0021MW1031REMSYN004BUFR
0142825710999992017013000004-05500-045270FM-12+015399999V0203601N0000199999999010000199+02601+02461101111ADDAA106000431AY191061AY261061GA1031+003001081GE19MSL   +99999+99999GF103991031999003001999999MA1999999099361MD1999999+0001MW1021REMSYN004BUFR
0149825710999992017013012004-05500-045270FM-12+015399999V0200501N0021100300199010000199+02671+02451101211ADDAA124000831AZ101061AZ201061GA1061+003001081GE19MSL   +99999+99999GF106991061999003001999999KA1120N+02421MA1999999099471MD1999999-0091REMSYN004BUFR
0174825710999992017013018004-05500-045270FM-12+015399999V0200501N0005100300199010000199+02721+02481100951ADDAA106003031AY191061AY261061GA1081+003001061GA2999+999999101GA3999+999999101GE19MSL   +99999+99999GF108991081999003001999999MA1999999099211MD1999999+0061MW1211REMSYN004BUFR
0168825710999992017013100004-05500-045270FM-12+015399999V0202701N0005100300199010000199+02521+02381101111ADDAA101999999AZ101061AZ201061GA1081+003001061GA2999+999999101GA3999+999999101GE19MSL   +99999+99999GF108991081999003001999999MA1999999099371MD1999999+0011REMSYN004BUFR
0171825710999992017013112004-05500-045270FM-12+015399999V0201801N0015199999999010000199+02551+02361101251ADDAA124004031AY161061AY211061GA1021+003001081GA2999+999999031GE19MSL   +99999+99999GF104991021999003001999999KA1120N+02301MA1999999099501MD1999999+0031MW1011REMSYN004BUFR
0158825710999992017013118004-05500-045270FM-12+015399999V0200901N0015199999999010000199+03171+02441100831ADDAA106000131AY151061AY201061GA1041+003001081GA2999+999999001GE19MSL   +99999+99999GF105991041999003001999999MA1999999099101MD1999999-0111MW1021REMSYN004BUFR
0136825710999992017020100004-05500-045270FM-12+015399999V0200501N0005199999999010000199+02811+02541100981ADDAA101999999AZ101061AZ201061GA1021+017501031GE19MSL   +99999+99999GF102991021999017501999999MA1999999099251MD1999999-0121REMSYN004BUFR
0181825710999992017020112004-05500-045270FM-12+015399999V0200501N0005100300199010000199+02521+02311101291ADDAA124000131AZ101061AZ201061GA1081+003001061GA2999+999999101GA3999+999999101GE19MSL   +99999+99999GF108991081999003001999999KA1120N+02371MA1999999099551MD1999999+0051REMSYN004BUFR
0136825710999992017020118004-05500-045270FM-12+015399999V0200501N0021100300199010000199+03071+02441100801ADDAA101999999AZ101061AZ201061GA1061+003001081GE19MSL   +99999+99999GF106991061999003001999999MA1999999099071MD1999999-0031REMSYN004BUFR
0174825710999992017020200004-05500-045270FM-12+015399999V0203601N0021100300199010000199+02611+02291100951ADDAA106000231AY161061AY211061GA1081+003001061GA2999+999999101GA3999+999999101GE19MSL   +99999+99999GF108991081999003001999999MA1999999099211MD1999999-0041MW1021REMSYN004BUFR
0165825710999992017020212004-05500-045270FM-12+015399999V0203201N0010100300199010000199+02621+02411101221ADDAA124000231AZ101061AZ201061GA1061+003001081GA2999+999999031GE19MSL   +99999+99999GF107991061999003001999999KA1120N+02451MA1999999099471MD1999999-0081REMSYN004BUFR
0168825710999992017020218004-05500-045270FM-12+015399999V0200501N0021199999999010000199+03151+02481100791ADDAA101999999AZ101061AZ201061GA1031+003001081GA2999+999999031GA3999+999999001GE19MSL   +99999+99999GF106991031999003001999999MA1999999099071MD1999999+0001REMSYN004BUFR
0136825710999992017020300004-05500-045270FM-12+015399999V0203601N0000100300199010000199+02921+02581100991ADDAA101999999AZ101061AZ201061GA1061+003001081GE19MSL   +99999+99999GF106991061999003001999999MA1999999099261MD1999999+0051REMSYN004BUFR
0171825710999992017020312004-05500-045270FM-12+015399999V0202301N0005199999999010000199+02461+02301101281ADDAA124002031AY191061AY261061GA1031+003001081GA2999+999999031GE19MSL   +99999+99999GF106991031999003001999999KA1120N+02371MA1999999099541MD1999999+0071MW1211REMSYN004BUFR
0136825710999992017020318004-05500-045270FM-12+015399999V0203601N0036100300199010000199+02951+02421100891ADDAA101999999AZ101061AZ201061GA1061+003001081GE19MSL   +99999+99999GF106991061999003001999999MA1999999099161MD1999999+0091REMSYN004BUFR
0136825710999992017020400004-05500-045270FM-12+015399999V0203601N0000199999999010000199+02521+02381101011ADDAA101999999AZ101061AZ201061GA1031+017501041GE19MSL   +99999+99999GF103991031999017501999999MA1999999099261MD1999999+0001REMSYN004BUFR
0171825710999992017020412004-05500-045270FM-12+015399999V0203201N0010100300199010000199+02421+02321101021ADDAA124003031AY161061AY221061GA1051+003001081GA2999+999999031GE19MSL   +99999+99999GF106991051999003001999999KA1120N+02341MA1999999099321MD1999999-0201MW1211REMSYN004BUFR
0136825710999992017020418004-05500-045270FM-12+015399999V0200501N0015199999999010000199+03121+02481100731ADDAA101999999AZ101061AZ201061GA1041+003001081GE19MSL   +99999+99999GF104991041999003001999999MA1999999099011MD1999999-0151REMSYN004BUFR
0149825710999992017020512004-05500-045270FM-12+015399999V0200501N0026199999999010000199+02801+02401101081ADDAA101999999AZ101061AZ201061GA1021+003001081GE19MSL   +99999+99999GF102991021999003001999999KA1120N+02481MA1999999099351MD1999999+0011REMSYN004BUFR
0136825710999992017020518004-05500-045270FM-12+015399999V0200501N0021100300199010000199+03271+02441100741ADDAA101999999AZ101061AZ201061GA1051+003001081GE19MSL   +99999+99999GF105991051999003001999999MA1999999099031MD1999999+0021REMSYN004BUFR
0152825710999992017020600004-05500-045270FM-12+015399999V0203601N0000199999999010000199+02871+02521100821ADDAA101999999AZ101061AZ201061GA1011+003001081GA2999+999999031GE19MSL   +99999+99999GF102991011999003001999999MA1999999099101MD1999999-0081REMSYN004BUFR
0149825710999992017020612004-05500-045270FM-12+015399999V0203601N0021199999999010000199+02821+02401101081ADDAA101999999AZ101061AZ201061GA1031+003001081GE19MSL   +99999+99999GF103991031999003001999999KA1120N+02491MA1999999099351MD1999999+0001REMSYN004BUFR
0152825710999992017020618004-05500-045270FM-12+015399999V0203601N0010199999999010000199+03271+02521100711ADDAA101999999AZ101061AZ201061GA1031+003001081GA2999+999999001GE19MSL   +99999+99999GF104991031999003001999999MA1999999099001MD1999999-0031REMSYN004BUFR
0136825710999992017020700004-05500-045270FM-12+015399999V0200501N0010199999999010000199+02921+02541100861ADDAA101999999AZ101061AZ201061GA1021+017501031GE19MSL   +99999+99999GF102991021999017501999999MA1999999099141MD1999999+0041REMSYN004BUFR
0149825710999992017020712004-05500-045270FM-12+015399999V0203601N0015100300199010000199+02761+02461101021ADDAA101999999AZ101061AZ201061GA1071+003001061GE19MSL   +99999+99999GF107991071999003001999999KA1120N+02551MA1999999099301MD1999999-0051REMSYN004BUFR
0142825710999992017020718004-05500-045270FM-12+015399999V0200501N0021100300199010000199+03171+02471100621ADDAA106006031AY161061AY221061GA1051+003001081GE19MSL   +99999+99999GF105991051999003001999999MA1999999098911MD1999999-0091MW1011REMSYN004BUFR
0158825710999992017020800004-05500-045270FM-12+015399999V0203601N0000199999999010000199+02721+02541100941ADDAA106002031AY161061AY211061GA1021+017501041GA2999+999999001GE19MSL   +99999+99999GF103991021999017501999999MA1999999099211MD1999999+0071MW1021REMSYN004BUFR
0181825710999992017020812004-05500-045270FM-12+015399999V0203601N0000100300199010000199+02561+02401101191ADDAA124008031AZ101061AZ201061GA1081+003001061GA2999+999999101GA3999+999999101GE19MSL   +99999+99999GF108991081999003001999999KA1120N+02451MA1999999099451MD1999999+0051REMSYN004BUFR
0136825710999992017020818004-05500-045270FM-12+015399999V0203601N0021100300199010000199+02821+02461100811ADDAA101999999AZ101061AZ201061GA1071+003001081GE19MSL   +99999+99999GF107991071999003001999999MA1999999099081MD1999999+0171REMSYN004BUFR
0142825710999992017020900004-05500-045270FM-12+015399999V0203601N0000100300199010000199+02651+02521100991ADDAA101999999AY121061AY211061GA1061+003001081GE19MSL   +99999+99999GF106991061999003001999999MA1999999099251MD1999999+0041MW1131REMSYN004BUFR
0149825710999992017020912004-05500-045270FM-12+015399999V0200501N0010100300199010000199+02571+02441101171ADDAA101999999AZ101061AZ201061GA1071+003001061GE19MSL   +99999+99999GF107991071999003001999999KA1120N+02461MA1999999099431MD1999999-0021REMSYN004BUFR
0142825710999992017020918004-05500-045270FM-12+015399999V0200501N0010100300199010000199+02911+02341100841ADDAA106000431AY161061AY221061GA1061+003001081GE19MSL   +99999+99999GF106991061999003001999999MA1999999099111MD1999999+0031MW1011REMSYN004BUFR
0174825710999992017021000004-05500-045270FM-12+015399999V0203201N0005100300199010000199+02601+02421100951ADDAA106002031AY191061AY261061GA1051+003001071GA2999+999999051GA3999+999999101GE19MSL   +99999+99999GF108991051999003001999999MA1999999099211MD1999999-0041MW1211REMSYN004BUFR
0155825710999992017021012004-05500-045270FM-12+015399999V0202301N0021100300199010000199+02611+02481101171ADDAA124002031AY161061AY221061GA1071+003001061GE19MSL   +99999+99999GF107991071999003001999999KA1120N+02501MA1999999099431MD1999999+0001MW1021REMSYN004BUFR
0174825710999992017021018004-05500-045270FM-12+015399999V0203601N0015100300199010000199+02571+02441100891ADDAA106016031AY161061AY221061GA1081+003001061GA2999+999999101GA3999+999999101GE19MSL   +99999+99999GF108991081999003001999999MA1999999099151MD1999999+0041MW1201REMSYN004BUFR
0168825710999992017021100004-05500-045270FM-12+015399999V0203601N0000100300199010000199+02511+02431101151ADDAA101999999AZ101061AZ201061GA1081+003001061GA2999+999999101GA3999+999999101GE19MSL   +99999+99999GF108991081999003001999999MA1999999099401MD1999999+0191REMSYN004BUFR
0187825710999992017021112004-05500-045270FM-12+015399999V0203601N0000100300199010000199+02351+02291101221ADDAA124019031AY161061AY221061GA1081+003001061GA2999+999999101GA3999+999999101GE19MSL   +99999+99999GF108991081999003001999999KA1120N+02321MA1999999099461MD1999999+0031MW1211REMSYN004BUFR
0174825710999992017021118004-05500-045270FM-12+015399999V0200501N0015199999999010000199+02821+02401100811ADDAA106000531AY161061AY211061GA1041+003001081GA2999+999999031GA3999+999999001GE19MSL   +99999+99999GF106991041999003001999999MA1999999099071MD1999999-0081MW1021REMSYN004BUFR
0136825710999992017021200004-05500-045270FM-12+015399999V0202701N0010199999999010000199+02551+02331101041ADDAA101999999AZ101061AZ201061GA1031+017501031GE19MSL   +99999+99999GF103991031999017501999999MA1999999099291MD1999999-0111REMSYN004BUFR
0187825710999992017021212004-05500-045270FM-12+015399999V0202301N0005100300199010000199+02501+02401101051ADDAA124001031AY161061AY221061GA1081+003001061GA2999+999999101GA3999+999999101GE19MSL   +99999+99999GF108991081999003001999999KA1120N+02371MA1999999099321MD1999999-0141MW1021REMSYN004BUFR
0152825710999992017021218004-05500-045270FM-12+015399999V0203601N0026199999999010000199+03101+02461100521ADDAA101999999AZ101061AZ201061GA1021+003001081GA2999+999999001GE19MSL   +99999+99999GF103991021999003001999999MA1999999098801MD1999999-0271REMSYN004BUFR
0174825710999992017021300004-05500-045270FM-12+015399999V0203601N0021100300199004000199+02421+02321100961ADDAA106050031AY161061AY221061GA1081+003001061GA2999+999999101GA3999+999999101GE19MSL   +99999+99999GF108991081999003001999999MA1999999099211MD1999999-0081MW1611REMSYN004BUFR
0187825710999992017021312004-05500-045270FM-12+015399999V0203601N0000100300199010000199+02401+02311101111ADDAA124061031AY161061AY221061GA1081+003001061GA2999+999999101GA3999+999999101GE19MSL   +99999+99999GF108991081999003001999999KA1120N+02271MA1999999099351MD1999999+0031MW1021REMSYN004BUFR
0168825710999992017021318004-05500-045270FM-12+015399999V0201401N0010199999999010000199+03051+02331100641ADDAA101999999AZ101061AZ201061GA1041+003001061GA2999+999999031GA3999+999999001GE19MSL   +99999+99999GF107991041999003001999999MA1999999098911MD1999999+0111REMSYN004BUFR
0174825710999992017021400004-05500-045270FM-12+015399999V0201401N0005199999999004000199+02321+02221101211ADDAA106028031AY161061AY221061GA1041+003001071GA2999+999999051GA3999+999999101GE19MSL   +99999+99999GF108991041999003001999999MA1999999099441MD1999999+0241MW1631REMSYN004BUFR
0171825710999992017021412004-05500-045270FM-12+015399999V0200901N0005100300199010000199+02371+02291101301ADDAA124047031AY161061AY221061GA1051+003001061GA2999+999999031GE19MSL   +99999+99999GF107991051999003001999999KA1120N+02201MA1999999099541MD1999999+0191MW1011REMSYN004BUFR
0152825710999992017021418004-05500-045270FM-12+015399999V0203601N0031199999999010000199+03011+02411100951ADDAA101999999AZ101061AZ201061GA1031+003001081GA2999+999999031GE19MSL   +99999+99999GF107991031999003001999999MA1999999099211MD1999999+0301REMSYN004BUFR
0136825710999992017021500004-05500-045270FM-12+015399999V0201401N0031199999999010000199+02471+02251101221ADDAA101999999AZ101061AZ201061GA1031+003001081GE19MSL   +99999+99999GF103991031999003001999999MA1999999099461MD1999999+0011REMSYN004BUFR
0165825710999992017021512004-05500-045270FM-12+015399999V0201401N0026199999999010000199+02661+02291101321ADDAA101999999AZ101061AZ201061GA1031+003001081GA2999+999999031GE19MSL   +99999+99999GF106991031999003001999999KA1120N+02321MA1999999099571MD1999999+0031REMSYN004BUFR
0168825710999992017021518004-05500-045270FM-12+015399999V0201401N0026199999999010000199+03171+02331100971ADDAA101999999AZ101061AZ201061GA1031+003001081GA2999+999999041GA3999+999999001GE19MSL   +99999+99999GF106991031999003001999999MA1999999099241MD1999999+0031REMSYN004BUFR
0136825710999992017021600004-05500-045270FM-12+015399999V0201401N0010199999999010000199+02801+02311101111ADDAA101999999AZ101061AZ201061GA1011+003001081GE19MSL   +99999+99999GF105991011999003001999999MA1999999099381MD1999999-0081REMSYN004BUFR
0165825710999992017021612004-05500-045270FM-12+015399999V0203201N0021199999999010000199+02651+02311101281ADDAA101999999AZ101061AZ201061GA1011+003001081GA2999+999999031GE19MSL   +99999+99999GF106991011999003001999999KA1120N+02411MA1999999099541MD1999999-0031REMSYN004BUFR
0152825710999992017021618004-05500-045270FM-12+015399999V0200501N0010199999999010000199+03211+02341101011ADDAA101999999AZ101061AZ201061GA1041+003001081GA2999+999999031GE19MSL   +99999+99999GF105991041999003001999999MA1999999099291MD1999999+0051REMSYN004BUFR
0142825710999992017021700004-05500-045270FM-12+015399999V0200501N0010100300199010000199+02701+02371101101ADDAA101999999AY121061AY211061GA1061+003001081GE19MSL   +99999+99999GF106991061999003001999999MA1999999099361MD1999999-0021MW1131REMSYN004BUFR
0165825710999992017021712004-05500-045270FM-12+015399999V0203201N0010199999999010000199+02521+02311101171ADDAA101999999AZ101061AZ201061GA1031+003001081GA2999+999999031GE19MSL   +99999+99999GF106991031999003001999999KA1120N+02441MA1999999099431MD1999999-0111REMSYN004BUFR
0136825710999992017021718004-05500-045270FM-12+015399999V0202301N0015199999999010000199+03171+02471100931ADDAA101999999AZ101061AZ201061GA1041+003001081GE19MSL   +99999+99999GF104991041999003001999999MA1999999099211MD1999999-0081REMSYN004BUFR
0174825710999992017021800004-05500-045270FM-12+015399999V0203601N0015100300199010000199+02521+02441101121ADDAA106009031AY191061AY261061GA1051+003001071GA2999+999999051GA3999+999999101GE19MSL   +99999+99999GF108991051999003001999999MA1999999099371MD1999999+0011MW1131REMSYN004BUFR
0187825710999992017021812004-05500-045270FM-12+015399999V0203601N0000100300199010000199+02551+02381101391ADDAA124012031AY121061AY221061GA1081+003001061GA2999+999999101GA3999+999999101GE19MSL   +99999+99999GF108991081999003001999999KA1120N+02421MA1999999099641MD1999999+0211MW1021REMSYN004BUFR
0142825710999992017021818004-05500-045270FM-12+015399999V0202301N0015100300199010000199+02811+02501101001ADDAA106003031AY161061AY221061GA1061+003001091GE19MSL   +99999+99999GF106991061999003001999999MA1999999099261MD1999999+0051MW1021REMSYN004BUFR
0168825710999992017021900004-05500-045270FM-12+015399999V0200501N0010100300199010000199+02651+02481101251ADDAA101999999AZ101061AZ201061GA1081+003001061GA2999+999999101GA3999+999999101GE19MSL   +99999+99999GF108991081999003001999999MA1999999099501MD1999999+0131REMSYN004BUFR
0181825710999992017021912004-05500-045270FM-12+015399999V0202601N0005100300199010000199+02551+02421101351ADDAA124003031AZ101061AZ201061GA1081+003001061GA2999+999999101GA3999+999999101GE19MSL   +99999+99999GF108991081999003001999999KA1120N+02461MA1999999099601MD1999999-0041REMSYN004BUFR
0168825710999992017021918004-05500-045270FM-12+015399999V0200501N0005100300199010000199+02851+02521100971ADDAA101999999AZ101061AZ201061GA1081+003001061GA2999+999999101GA3999+999999101GE19MSL   +99999+99999GF108991081999003001999999MA1999999099241MD1999999-0021REMSYN004BUFR
0168825710999992017022000004-05500-045270FM-12+015399999V0200501N0010100300199010000199+02601+02351101231ADDAA101999999AZ101061AZ201061GA1081+003001061GA2999+999999101GA3999+999999101GE19MSL   +99999+99999GF108991081999003001999999MA1999999099481MD1999999-0021REMSYN004BUFR
0149825710999992017022012004-05500-045270FM-12+015399999V0203201N0000100300199010000199+02621+02351101351ADDAA101999999AZ101061AZ201061GA1071+003001061GE19MSL   +99999+99999GF107991071999003001999999KA1120N+02371MA1999999099601MD1999999+0001REMSYN004BUFR
0152825710999992017022018004-05500-045270FM-12+015399999V0203601N0015199999999010000199+03101+02391100801ADDAA101999999AZ101061AZ201061GA1041+003001081GA2999+999999041GE19MSL   +99999+99999GF105991041999003001999999MA1999999099071MD1999999-0171REMSYN004BUFR
0174825710999992017022100004-05500-045270FM-12+015399999V0200901N0412299999999004000199+02471+02301101201ADDAA106006031AY161061AY221061GA1041+003001071GA2999+999999051GA3999+999999101GE19MSL   +99999+99999GF108991041999003001999999MA1999999099451MD1999999-0031MW1611REMSYN004BUFR
0187825710999992017022112004-05500-045270FM-12+015399999V0202301N0005100300199010000199+02401+02301101301ADDAA124026031AY161061AY221061GA1081+003001061GA2999+999999101GA3999+999999101GE19MSL   +99999+99999GF108991081999003001999999KA1120N+02271MA1999999099541MD1999999-0061MW1021REMSYN004BUFR
0152825710999992017022118004-05500-045270FM-12+015399999V0200501N0026199999999010000199+02971+02331100911ADDAA101999999AZ101061AZ201061GA1021+003001081GA2999+999999031GE19MSL   +99999+99999GF106991021999003001999999MA1999999099171MD1999999+0101REMSYN004BUFR
0136825710999992017022200004-05500-045270FM-12+015399999V0203601N0000100300199010000199+02721+02481101111ADDAA101999999AZ101061AZ201061GA1061+003001081GE19MSL   +99999+99999GF106991061999003001999999MA1999999099361MD1999999-0091REMSYN004BUFR
0165825710999992017022212004-05500-045270FM-12+015399999V0200901N0005199999999010000199+02621+02421101211ADDAA101999999AZ101061AZ201061GA1031+003001081GA2999+999999031GE19MSL   +99999+99999GF106991031999003001999999KA1120N+02401MA1999999099471MD1999999-0071REMSYN004BUFR
0152825710999992017022218004-05500-045270FM-12+015399999V0201401N0015199999999010000199+03021+02381100831ADDAA101999999AZ101061AZ201061GA1041+003001081GA2999+999999031GE19MSL   +99999+99999GF106991041999003001999999MA1999999099101MD1999999-0071REMSYN004BUFR
0152825710999992017022300004-05500-045270FM-12+015399999V0202301N0005199999999010000199+02701+02521100911ADDAA101999999AZ101061AZ201061GA1011+003001081GA2999+999999031GE19MSL   +99999+99999GF102991011999003001999999MA1999999099171MD1999999-0191REMSYN004BUFR
0155825710999992017022312004-05500-045270FM-12+015399999V0203601N0000100300199010000199+02321+02221101351ADDAA124010031AY161061AY221061GA1061+003001081GE19MSL   +99999+99999GF106991061999003001999999KA1120N+02241MA1999999099601MD1999999+0131MW1021REMSYN004BUFR
0136825710999992017022318004-05500-045270FM-12+015399999V0201401N0005100300199010000199+03011+02461101001ADDAA101999999AZ101061AZ201061GA1061+003001081GE19MSL   +99999+99999GF106991061999003001999999MA1999999099261MD1999999+0161REMSYN004BUFR
0142825710999992017022400004-05500-045270FM-12+015399999V0203601N0000100300199010000199+02501+02381101091ADDAA106003031AY161061AY221061GA1071+003001061GE19MSL   +99999+99999GF107991071999003001999999MA1999999099331MD1999999+0161MW1021REMSYN004BUFR
0149825710999992017022412004-05500-045270FM-12+015399999V0203601N0031100300199010000199+02701+02451101181ADDAA124003031AZ101061AZ201061GA1061+003001081GE19MSL   +99999+99999GF106991061999003001999999KA1120N+02251MA1999999099441MD1999999-0061REMSYN004BUFR
0136825710999992017022418004-05500-045270FM-12+015399999V0200501N0010100300199010000199+03201+02461100821ADDAA101999999AZ101061AZ201061GA1061+003001081GE19MSL   +99999+99999GF106991061999003001999999MA1999999099101MD1999999-0161REMSYN004BUFR
0142825710999992017022500004-05500-045270FM-12+015399999V0200501N0005199999999010000199+02421+02341100931ADDAA106012031AY191061AY261061GA1041+003001081GE19MSL   +99999+99999GF104991041999003001999999MA1999999099191MD1999999-0141MW1021REMSYN004BUFR
0165825710999992017022512004-05500-045270FM-12+015399999V0200501N0000100300199010000199+02501+02351101131ADDAA124012031AZ101061AZ201061GA1051+003001061GA2999+999999001GE19MSL   +99999+99999GF106991051999003001999999KA1120N+02321MA1999999099381MD1999999-0061REMSYN004BUFR
0142825710999992017022518004-05500-045270FM-12+015399999V0201401N0000100300199010000199+02771+02501100771ADDAA106007031AY161061AY211061GA1061+003001081GE19MSL   +99999+99999GF106991061999003001999999MA1999999099031MD1999999-0071MW1211REMSYN004BUFR
0174825710999992017022600004-05500-045270FM-12+015399999V0203601N0021100300199010000199+02521+02231101021ADDAA101999999AY121061AY211061GA1081+003001061GA2999+999999101GA3999+999999101GE19MSL   +99999+99999GF108991081999003001999999MA1999999099371MD1999999+0081MW1131REMSYN004BUFR
0181825710999992017022612004-05500-045270FM-12+015399999V0202301N0000100300199010000199+02551+02381101211ADDAA124006031AZ101061AZ201061GA1081+003001061GA2999+999999101GA3999+999999101GE19MSL   +99999+99999GF108991081999003001999999KA1120N+02321MA1999999099461MD1999999+0001REMSYN004BUFR
0158825710999992017022618004-05500-045270FM-12+015399999V0202301N0005199999999010000199+03101+02491100831ADDAA106000231AY161061AY221061GA1041+003001081GA2999+999999001GE19MSL   +99999+99999GF106991041999003001999999MA1999999099101MD1999999+0071MW1021REMSYN004BUFR
0174825710999992017022700004-05500-045270FM-12+015399999V0202301N0010100300199010000199+02651+02411101071ADDAA101999999AY191061AY221061GA1081+003001061GA2999+999999101GA3999+999999101GE19MSL   +99999+99999GF108991081999003001999999MA1999999099331MD1999999+0061MW1021REMSYN004BUFR
0171825710999992017022712004-05500-045270FM-12+015399999V0200501N0010100300199010000199+02321+02181101141ADDAA124011031AY161061AY221061GA1051+003001081GA2999+999999031GE19MSL   +99999+99999GF106991051999003001999999KA1120N+02231MA1999999099391MD1999999-0071MW1021REMSYN004BUFR
0136825710999992017022718004-05500-045270FM-12+015399999V0200501N0005199999999010000199+03111+02411100791ADDAA101999999AZ101061AZ201061GA1041+003001081GE19MSL   +99999+99999GF106991041999003001999999MA1999999099071MD1999999-0031REMSYN004BUFR
0136825710999992017022800004-05500-045270FM-12+015399999V0200501N0010199999999010000199+02721+02471100961ADDAA101999999AZ101061AZ201061GA1031+003001081GE19MSL   +99999+99999GF103991031999003001999999MA1999999099211MD1999999-0121REMSYN004BUFR
0155825710999992017022812004-05500-045270FM-12+015399999V0200501N0021100300199010000199+02571+02351101111ADDAA124000231AY161061AY221061GA1061+003001081GE19MSL   +99999+99999GF106991061999003001999999KA1120N+02341MA1999999099371MD1999999-0021MW1021REMSYN004BUFR
0136825710999992017022818004-05500-045270FM-12+015399999V0200501N0067100300199010000199+03121+02431100651ADDAA101999999AZ101061AZ201061GA1061+003001081GE19MSL   +99999+99999GF106991061999003001999999MA1999999098931MD1999999-0141REMSYN004BUFR
0187825710999992017030112004-05500-045270FM-12+015399999V0202301N0000100300199010000199+02311+02221101261ADDAA124024031AY161061AY221061GA1081+003001061GA2999+999999101GA3999+999999101GE19MSL   +99999+99999GF108991081999003001999999KA1120N+02221MA1999999099501MD1999999+0131MW1021REMSYN004BUFR
0136825710999992017030118004-05500-045270FM-12+015399999V0203201N0000100300199010000199+03021+02451100781ADDAA101999999AZ101061AZ201061GA1051+003001081GE19MSL   +99999+99999GF105991051999003001999999MA1999999099051MD1999999+0121REMSYN004BUFR
0174825710999992017030200004-05500-045270FM-12+015399999V0202301N0000100300199004000199+02571+02401101111ADDAA106003031AY191061AY221061GA1051+003001071GA2999+999999051GA3999+999999101GE19MSL   +99999+99999GF108991051999003001999999MA1999999099361MD1999999+0181MW1911REMSYN004BUFR
0171825710999992017030212004-05500-045270FM-12+015399999V0200901N0005100300199010000199+02411+02321101401ADDAA124025031AY161061AY221061GA1051+003001081GA2999+999999031GE19MSL   +99999+99999GF107991051999003001999999KA1120N+02201MA1999999099651MD1999999+0151MW1011REMSYN004BUFR
0152825710999992017030218004-05500-045270FM-12+015399999V0200501N0010199999999010000199+02911+02431100901ADDAA101999999AZ101061AZ201061GA1031+003001081GA2999+999999031GE19MSL   +99999+99999GF106991031999003001999999MA1999999099161MD1999999+0111REMSYN004BUFR
0152825710999992017030300004-05500-045270FM-12+015399999V0203601N0000199999999010000199+02621+02441101121ADDAA101999999AZ101061AZ201061GA1011+017501051GA2999+999999001GE19MSL   +99999+99999GF101991011999017501999999MA1999999099371MD1999999+0011REMSYN004BUFR
0165825710999992017030312004-05500-045270FM-12+015399999V0200501N0015199999999010000199+02551+02361101251ADDAA101999999AZ101061AZ201061GA1031+003001081GA2999+999999031GE19MSL   +99999+99999GF106991031999003001999999KA1120N+02401MA1999999099501MD1999999-0151REMSYN004BUFR
0168825710999992017030318004-05500-045270FM-12+015399999V0200901N0031199999999010000199+03001+02421100891ADDAA101999999AZ101061AZ201061GA1021+003001081GA2999+999999031GA3999+999999001GE19MSL   +99999+99999GF105991021999003001999999MA1999999099161MD1999999+0001REMSYN004BUFR
0152825710999992017030400004-05500-045270FM-12+015399999V0203601N0000199999999010000199+02701+02521101041ADDAA101999999AZ101061AZ201061GA1041+003001081GA2999+999999031GE19MSL   +99999+99999GF105991041999003001999999MA1999999099301MD1999999-0071REMSYN004BUFR
0149825710999992017030412004-05500-045270FM-12+015399999V0200501N0015100300199010000199+02671+02391101131ADDAA101999999AZ101061AZ201061GA1061+003001081GE19MSL   +99999+99999GF106991061999003001999999KA1120N+02421MA1999999099391MD1999999-0111REMSYN004BUFR
0142825710999992017030418004-05500-045270FM-12+015399999V0200501N0005199999999010000199+03151+02501100711ADDAA106000231AY161061AY211061GA1041+003001081GE19MSL   +99999+99999GF104991041999003001999999MA1999999098991MD1999999-0171MW1011REMSYN004BUFR
0142825710999992017030500004-05500-045270FM-12+015399999V0201401N0010100300199010000199+02751+02481100851ADDAA106000131AY121061AY211061GA1071+003001061GE19MSL   +99999+99999GF107991071999003001999999MA1999999099121MD1999999-0121MW1201REMSYN004BUFR
0155825710999992017030512004-05500-045270FM-12+015399999V0200501N0010199999999010000199+02721+02451101071ADDAA124000531AY191061AY261061GA1041+003001081GE19MSL   +99999+99999GF104991041999003001999999KA1120N+02481MA1999999099341MD1999999-0051MW1011REMSYN004BUFR
0136825710999992017030518004-05500-045270FM-12+015399999V0203201N0010100300199010000199+03171+02541100651ADDAA101999999AZ101061AZ201061GA1051+003001081GE19MSL   +99999+99999GF105991051999003001999999MA1999999098931MD1999999-0061REMSYN004BUFR
0136825710999992017030600004-05500-045270FM-12+015399999V0200501N0005199999999010000199+02601+02421100791ADDAA101999999AZ101061AZ201061GA1021+003001081GE19MSL   +99999+99999GF102991021999003001999999MA1999999099061MD1999999-0061REMSYN004BUFR
0165825710999992017030612004-05500-045270FM-12+015399999V0203601N0015199999999010000199+02671+02461101121ADDAA101999999AZ101061AZ201061GA1041+003001081GA2999+999999031GE19MSL   +99999+99999GF106991041999003001999999KA1120N+02451MA1999999099381MD1999999+0041REMSYN004BUFR
0152825710999992017030618004-05500-045270FM-12+015399999V0201401N0021199999999010000199+03001+02461100711ADDAA101999999AZ101061AZ201061GA1041+003001081GA2999+999999031GE19MSL   +99999+99999GF106991041999003001999999MA1999999098981MD1999999+0051REMSYN004BUFR
0142825710999992017030700004-05500-045270FM-12+015399999V0200501N0005199999999010000199+02571+02351100931ADDAA101999999AY191061AY221061GA1041+017501031GE19MSL   +99999+99999GF104991041999017501999999MA1999999099191MD1999999+0131MW1011REMSYN004BUFR
0165825710999992017030712004-05500-045270FM-12+015399999V0203601N0015100300199010000199+02611+02421101141ADDAA101999999AZ101061AZ201061GA1061+003001081GA2999+999999031GE19MSL   +99999+99999GF107991061999003001999999KA1120N+02341MA1999999099401MD1999999+0021REMSYN004BUFR
0152825710999992017030718004-05500-045270FM-12+015399999V0201401N0015100300199010000199+03001+02551100801ADDAA101999999AZ101061AZ201061GA1051+003001081GA2999+999999031GE19MSL   +99999+99999GF106991051999003001999999MA1999999099071MD1999999+0091REMSYN004BUFR
0158825710999992017030800004-05500-045270FM-12+015399999V0203601N0000199999999010000199+02651+02591100981ADDAA101999999AY121061AY211061GA1021+003001081GA2999+999999031GE19MSL   +99999+99999GF104991021999003001999999MA1999999099241MD1999999+0051MW1131REMSYN004BUFR
0171825710999992017030812004-05500-045270FM-12+015399999V0203601N0010199999999010000199+02571+02381101181ADDAA124000331AY151061AY251061GA1041+003001081GA2999+999999031GE19MSL   +99999+99999GF106991041999003001999999KA1120N+02411MA1999999099441MD1999999+0041MW1021REMSYN004BUFR
0136825710999992017030818004-05500-045270FM-12+015399999V0200501N0026100300199010000199+03071+02441100801ADDAA101999999AZ101061AZ201061GA1061+003001081GE19MSL   +99999+99999GF106991061999003001999999MA1999999099081MD1999999+0011REMSYN004BUFR
0174825710999992017030900004-05500-045270FM-12+015399999V0203201N0005100300199010000199+02321+02261101021ADDAA106026031AY191061AY261061GA1051+003001071GA2999+999999051GA3999+999999101GE19MSL   +99999+99999GF108991051999003001999999MA1999999099391MD1999999+0031MW1611REMSYN004BUFR
0155825710999992017030912004-05500-045270FM-12+015399999V0200901N0005100300199010000199+02461+02341101141ADDAA124030031AY161061AY221061GA1071+003001061GE19MSL   +99999+99999GF107991071999003001999999KA1120N+02251MA1999999099381MD1999999-0061MW1011REMSYN004BUFR
0152825710999992017030918004-05500-045270FM-12+015399999V0200501N0015199999999010000199+03101+02461100681ADDAA101999999AZ101061AZ201061GA1031+003001081GA2999+999999041GE19MSL   +99999+99999GF105991031999003001999999MA1999999098951MD1999999-0131REMSYN004BUFR
0158825710999992017031000004-05500-045270FM-12+015399999V0203601N0000199999999010000199+02651+02461100981ADDAA106006031AY191061AY261061GA1041+003001071GA2999+999999051GE19MSL   +99999+99999GF107991041999003001999999MA1999999099241MD1999999-0151MW1131REMSYN004BUFR
0149825710999992017031012004-05500-045270FM-12+015399999V0203201N0010199999999010000199+02671+02411101101ADDAA124006031AZ101061AZ201061GA1041+003001081GE19MSL   +99999+99999GF104991041999003001999999KA1120N+02451MA1999999099361MD1999999-0021REMSYN004BUFR
0174825710999992017031018004-05500-045270FM-12+015399999V0201801N0010100300199010000199+02611+02411100761ADDAA106001031AY191061AY261061GA1081+003001061GA2999+999999101GA3999+999999101GE19MSL   +99999+99999GF108991081999003001999999MA1999999099021MD1999999+0071MW1021REMSYN004BUFR
0174825710999992017031100004-05500-045270FM-12+015399999V0200501N0021100300199010000199+03001+02131101171ADDAA106000931AY161061AY221061GA1081+003001061GA2999+999999101GA3999+999999101GE19MSL   +99999+99999GF108991081999003001999999MA1999999099421MD1999999+0181MW1021REMSYN004BUFR
0171825710999992017031112004-05500-045270FM-12+015399999V0203601N0000199999999010000199+02451+02321101221ADDAA124017031AY161061AY221061GA1041+003001081GA2999+999999031GE19MSL   +99999+99999GF106991041999003001999999KA1120N+02221MA1999999099461MD1999999+0101MW1021REMSYN004BUFR
0136825710999992017031118004-05500-045270FM-12+015399999V0200501N0015100300199010000199+03071+02441100841ADDAA101999999AZ101061AZ201061GA1061+003001081GE19MSL   +99999+99999GF106991061999003001999999MA1999999099111MD1999999+0091REMSYN004BUFR
0168825710999992017031200004-05500-045270FM-12+015399999V0203601N0000100300199010000199+02661+02501101031ADDAA101999999AZ101061AZ201061GA1081+003001061GA2999+999999101GA3999+999999101GE19MSL   +99999+99999GF108991081999003001999999MA1999999099281MD1999999-0141REMSYN004BUFR
0181825710999992017031212004-05500-045270FM-12+015399999V0203201N0005100300199010000199+02521+02401101141ADDAA101999999AZ101061AZ201061GA1081+003001061GA2999+999999101GA3999+999999101GE19MSL   +99999+99999GF108991081999003001999999KA1120N+02421MA1999999099401MD1999999-0061REMSYN004BUFR
0152825710999992017031218004-05500-045270FM-12+015399999V0200501N0010199999999010000199+03071+02491100771ADDAA101999999AZ101061AZ201061GA1031+003001081GA2999+999999031GE19MSL   +99999+99999GF105991031999003001999999MA1999999099051MD1999999-0061REMSYN004BUFR
0136825710999992017031300004-05500-045270FM-12+015399999V0203601N0010199999999010000199+02701+02431100971ADDAA101999999AZ101061AZ201061GA1041+017501031GE19MSL   +99999+99999GF104991041999017501999999MA1999999099231MD1999999-0051REMSYN004BUFR
0165825710999992017031312004-05500-045270FM-12+015399999V0203201N0005199999999010000199+02621+02391101201ADDAA101999999AZ101061AZ201061GA1041+003001081GA2999+999999031GE19MSL   +99999+99999GF106991041999003001999999KA1120N+02421MA1999999099461MD1999999+0061REMSYN004BUFR
0158825710999992017031318004-05500-045270FM-12+015399999V0200901N0005100300199010000199+03011+02571100781ADDAA106005031AY161061AY221061GA1061+003001061GA2999+999999041GE19MSL   +99999+99999GF107991061999003001999999MA1999999099051MD1999999+0001MW1211REMSYN004BUFR
0136825710999992017031400004-05500-045270FM-12+015399999V0202701N0005199999999010000199+02501+02341100951ADDAA101999999AZ101061AZ201061GA1031+017501041GE19MSL   +99999+99999GF103991031999017501999999MA1999999099211MD1999999-0021REMSYN004BUFR
0181825710999992017031412004-05500-045270FM-12+015399999V0201801N0005199999999010000199+02651+02421101201ADDAA124005031AZ101061AZ201061GA1031+003001081GA2999+999999031GA3999+999999001GE19MSL   +99999+99999GF105991031999003001999999KA1120N+02301MA1999999099451MD1999999-0011REMSYN004BUFR
0152825710999992017031418004-05500-045270FM-12+015399999V0202301N0010199999999010000199+02951+02581100711ADDAA101999999AZ101061AZ201061GA1031+003001061GA2999+999999031GE19MSL   +99999+99999GF106991031999003001999999MA1999999098981MD1999999-0071REMSYN004BUFR
0142825710999992017031500004-05500-045270FM-12+015399999V0201401N0000101750199010000199+02511+02421101041ADDAA106020031AY191061AY261061GA1051+017501031GE19MSL   +99999+99999GF105991051999017501999999MA1999999099301MD1999999+0091MW1021REMSYN004BUFR
0149825710999992017031512004-05500-045270FM-12+015399999V0202301N0005100300199010000199+02611+02421101181ADDAA124020031AZ101061AZ201061GA1071+003001061GE19MSL   +99999+99999GF107991071999003001999999KA1120N+02421MA1999999099431MD1999999-0021REMSYN004BUFR
0152825710999992017031518004-05500-045270FM-12+015399999V0203201N0005199999999010000199+03021+02611100781ADDAA101999999AZ101061AZ201061GA1041+003001081GA2999+999999031GE19MSL   +99999+99999GF107991041999003001999999MA1999999099051MD1999999+0071REMSYN004BUFR
0174825710999992017031600004-05500-045270FM-12+015399999V0203601N0015100300199010000199+02401+02261101121ADDAA106003031AY161061AY221061GA1082+003001061GA2999+999999031GA3999+999999001GE19MSL   +99999+99999GF107992082999003001999999MA1999999099371MD1999999+0071MW1211REMSYN004BUFR
0155825710999992017031612004-05500-045270FM-12+015399999V0202301N0015100300199010000199+02501+02341101221ADDAA124005031AY161061AY221061GA1061+003001081GE19MSL   +99999+99999GF106991061999003001999999KA1120N+02311MA1999999099461MD1999999+0031MW1021REMSYN004BUFR
0152825710999992017031618004-05500-045270FM-12+015399999V0200501N0021100300199010000199+02851+02381100841ADDAA101999999AZ101061AZ201061GA1051+003001081GA2999+999999031GE19MSL   +99999+99999GF106991051999003001999999MA1999999099101MD1999999+0051REMSYN004BUFR
0152825710999992017031700004-05500-045270FM-12+015399999V0200501N0015199999999010000199+02521+02441101071ADDAA101999999AZ101061AZ201061GA1041+003001061GA2999+999999051GE19MSL   +99999+99999GF104991041999003001999999MA1999999099321MD1999999-0051REMSYN004BUFR
0181825710999992017031712004-05500-045270FM-12+015399999V0203601N0000100300199010000199+02511+02381101231ADDAA101999999AZ101061AZ201061GA1081+003001061GA2999+999999101GA3999+999999101GE19MSL   +99999+99999GF108991081999003001999999KA1120N+02381MA1999999099481MD1999999+0021REMSYN004BUFR
0168825710999992017031718004-05500-045270FM-12+015399999V0203601N0036100300199010000199+02871+02391100901ADDAA101999999AZ101061AZ201061GA1051+003001071GA2999+999999051GA3999+999999101GE19MSL   +99999+99999GF108991051999003001999999MA1999999099161MD1999999+0061REMSYN004BUFR
0168825710999992017031800004-05500-045270FM-12+015399999V0203201N0000100300199010000199+02511+02401101131ADDAA101999999AZ101061AZ201061GA1081+003001061GA2999+999999101GA3999+999999101GE19MSL   +99999+99999GF108991081999003001999999MA1999999099381MD1999999+0061REMSYN004BUFR
0187825710999992017031812004-05500-045270FM-12+015399999V0201801N0010100300199010000199+02451+02361101321ADDAA124000231AY161061AY221061GA1081+003001061GA2999+999999101GA3999+999999101GE19MSL   +99999+99999GF108991081999003001999999KA1120N+02371MA1999999099571MD1999999+0091MW1021REMSYN004BUFR
0174825710999992017031818004-05500-045270FM-12+015399999V0201801N0010100300199010000199+02721+02541101011ADDAA106002031AY161061AY211061GA1081+003001061GA2999+999999101GA3999+999999101GE19MSL   +99999+99999GF108991081999003001999999MA1999999099271MD1999999+0111MW1021REMSYN004BUFR
0168825710999992017031900004-05500-045270FM-12+015399999V0202301N0010100300199010000199+02551+02451101201ADDAA101999999AZ101061AZ201061GA1081+003001061GA2999+999999101GA3999+999999101GE19MSL   +99999+99999GF108991081999003001999999MA1999999099451MD1999999+0071REMSYN004BUFR
0165825710999992017031912004-05500-045270FM-12+015399999V0201801N0000199999999010000199+02651+02481101271ADDAA124002031AZ101061AZ201061GA1031+003001081GA2999+999999001GE19MSL   +99999+99999GF105991031999003001999999KA1120N+02291MA1999999099521MD1999999-0051REMSYN004BUFR
0136825710999992017031918004-05500-045270FM-12+015399999V0200901N0021100300199010000199+03271+02371100851ADDAA101999999AZ101061AZ201061GA1051+003001081GE19MSL   +99999+99999GF105991051999003001999999MA1999999099131MD1999999-0141REMSYN004BUFR
0168825710999992017032000004-05500-045270FM-12+015399999V0203601N0000100300199010000199+02721+02541100991ADDAA101999999AZ101061AZ201061GA1081+003001061GA2999+999999101GA3999+999999101GE19MSL   +99999+99999GF108991081999003001999999MA1999999099261MD1999999-0191REMSYN004BUFR
0165825710999992017032012004-05500-045270FM-12+015399999V0203601N0015100300199010000199+02671+02451101331ADDAA101999999AZ101061AZ201061GA1051+003001081GA2999+999999001GE19MSL   +99999+99999GF106991051999003001999999KA1120N+02371MA1999999099591MD1999999+0071REMSYN004BUFR
0168825710999992017032018004-05500-045270FM-12+015399999V0200901N0026199999999010000199+03221+02441100851ADDAA101999999AZ101061AZ201061GA1031+003001081GA2999+999999041GA3999+999999001GE19MSL   +99999+99999GF106991031999003001999999MA1999999099131MD1999999+0001REMSYN004BUFR
0136825710999992017032100004-05500-045270FM-12+015399999V0200901N0005199999999010000199+02771+02501101131ADDAA101999999AZ101061AZ201061GA1021+017501031GE19MSL   +99999+99999GF102991021999017501999999MA1999999099391MD1999999+0131REMSYN004BUFR
0171825710999992017032112004-05500-045270FM-12+015399999V0203201N0005199999999010000199+02501+02321101391ADDAA124024031AY191061AY261061GA1041+003001081GA2999+999999031GE19MSL   +99999+99999GF107991041999003001999999KA1120N+02301MA1999999099651MD1999999+0061MW1011REMSYN004BUFR
0168825710999992017032118004-05500-045270FM-12+015399999V0203601N0005199999999010000199+03121+02551101031ADDAA101999999AZ101061AZ201061GA1031+003001081GA2999+999999041GA3999+999999001GE19MSL   +99999+99999GF106991031999003001999999MA1999999099301MD1999999+0171REMSYN004BUFR
0098825710999992017032200004-05500-045270FM-12+015399999V0203201N0005122000199010000199+02721+02521101291ADDAA101999999AZ101061AZ201061GF100991999999999999999999MA1999999099541MD1999999+0151REMSYN004BUFR
0149825710999992017032212004-05500-045270FM-12+015399999V0202301N0005100300199010000199+02561+02421101481ADDAA101999999AZ101061AZ201061GA1071+003001061GE19MSL   +99999+99999GF107991071999003001999999KA1120N+02451MA1999999099731MD1999999+0081REMSYN004BUFR
0152825710999992017032218004-05500-045270FM-12+015399999V0203601N0015199999999010000199+03001+02531100951ADDAA101999999AZ101061AZ201061GA1021+003001081GA2999+999999031GE19MSL   +99999+99999GF106991021999003001999999MA1999999099221MD1999999-0081REMSYN004BUFR
0136825710999992017032300004-05500-045270FM-12+015399999V0200501N0015199999999010000199+02751+02501101231ADDAA101999999AZ101061AZ201061GA1031+003001081GE19MSL   +99999+99999GF103991031999003001999999MA1999999099491MD1999999-0051REMSYN004BUFR
0149825710999992017032312004-05500-045270FM-12+015399999V0203601N0005100300199010000199+02651+02391101351ADDAA101999999AZ101061AZ201061GA1061+003001081GE19MSL   +99999+99999GF106991061999003001999999KA1120N+02381MA1999999099611MD1999999-0121REMSYN004BUFR
0136825710999992017032318004-05500-045270FM-12+015399999V0201401N0015199999999010000199+03151+02451100971ADDAA101999999AZ101061AZ201061GA1041+003001081GE19MSL   +99999+99999GF104991041999003001999999MA1999999099241MD1999999+0021REMSYN004BUFR
0136825710999992017032400004-05500-045270FM-12+015399999V0200501N0021199999999010000199+02621+02411101051ADDAA101999999AZ101061AZ201061GA1021+003001081GE19MSL   +99999+99999GF102991021999003001999999MA1999999099311MD1999999-0181REMSYN004BUFR
0155825710999992017032412004-05500-045270FM-12+015399999V0203201N0005100300199010000199+02501+02381101391ADDAA124000231AY151061AY211061GA1071+003001061GE19MSL   +99999+99999GF107991071999003001999999KA1120N+02361MA1999999099641MD1999999+0021MW1021REMSYN004BUFR
0136825710999992017032418004-05500-045270FM-12+015399999V0200501N0005100300199010000199+03111+02431100881ADDAA101999999AZ101061AZ201061GA1051+003001081GE19MSL   +99999+99999GF105991051999003001999999MA1999999099151MD1999999-0091REMSYN004BUFR
0142825710999992017032500004-05500-045270FM-12+015399999V0200501N0015199999999010000199+02711+02451101061ADDAA101999999AY111061AY201061GA1011+003001081GE19MSL   +99999+99999GF101991011999003001999999MA1999999099321MD1999999+0011MW1131REMSYN004BUFR
0165825710999992017032512004-05500-045270FM-12+015399999V0200501N0010199999999010000199+02611+02411101151ADDAA101999999AZ101061AZ201061GA1041+003001081GA2999+999999031GE19MSL   +99999+99999GF105991041999003001999999KA1120N+02411MA1999999099411MD1999999-0231REMSYN004BUFR
0136825710999992017032518004-05500-045270FM-12+015399999V0200501N0026100300199010000199+03201+02301100811ADDAA101999999AZ101061AZ201061GA1051+003001081GE19MSL   +99999+99999GF105991051999003001999999MA1999999099091MD1999999-0061REMSYN004BUFR
0136825710999992017032600004-05500-045270FM-12+015399999V0201401N0005199999999010000199+02771+02401101001ADDAA101999999AZ101061AZ201061GA1031+003001081GE19MSL   +99999+99999GF103991031999003001999999MA1999999099271MD1999999-0051REMSYN004BUFR
0149825710999992017032612004-05500-045270FM-12+015399999V0203601N0010100300199010000199+02571+02351101191ADDAA101999999AZ101061AZ201061GA1061+003001081GE19MSL   +99999+99999GF106991061999003001999999KA1120N+02401MA1999999099451MD1999999+0041REMSYN004BUFR
0136825710999992017032618004-05500-045270FM-12+015399999V0201401N0021100300199010000199+03021+02481100901ADDAA101999999AZ101061AZ201061GA1061+003001081GE19MSL   +99999+99999GF106991061999003001999999MA1999999099171MD1999999+0081REMSYN004BUFR
0168825710999992017032700004-05500-045270FM-12+015399999V0203201N0005100300199010000199+02601+02421101071ADDAA101999999AZ101061AZ201061GA1081+003001061GA2999+999999101GA3999+999999101GE19MSL   +99999+99999GF108991081999003001999999MA1999999099331MD1999999+0061REMSYN004BUFR
0181825710999992017032712004-05500-045270FM-12+015399999V0200501N0000100300199010000199+02571+02401101351ADDAA101999999AZ101061AZ201061GA1081+003001061GA2999+999999101GA3999+999999101GE19MSL   +99999+99999GF108991081999003001999999KA1120N+02401MA1999999099601MD1999999+0151REMSYN004BUFR
0168825710999992017032718004-05500-045270FM-12+015399999V0203201N0010199999999010000199+03151+02471100841ADDAA101999999AZ101061AZ201061GA1031+003001081GA2999+999999031GA3999+999999001GE19MSL   +99999+99999GF106991031999003001999999MA1999999099121MD1999999-0051REMSYN004BUFR
0158825710999992017032800004-05500-045270FM-12+015399999V0200501N0010199999999010000199+02571+02381101211ADDAA106002031AY191061AY261061GA1021+003001081GA2999+999999031GE19MSL   +99999+99999GF106991021999003001999999MA1999999099461MD1999999+0131MW1131REMSYN004BUFR
0165825710999992017032812004-05500-045270FM-12+015399999V0201401N0010100300199010000199+02601+02371101351ADDAA124002031AZ101061AZ201061GA1051+003001081GA2999+999999031GE19MSL   +99999+99999GF106991051999003001999999KA1120N+02401MA1999999099601MD1999999+0001REMSYN004BUFR
0168825710999992017032818004-05500-045270FM-12+015399999V0203601N0026199999999010000199+03171+02411100911ADDAA101999999AZ101061AZ201061GA1021+003001081GA2999+999999041GA3999+999999001GE19MSL   +99999+99999GF106991021999003001999999MA1999999099181MD1999999+0061REMSYN004BUFR
0098825710999992017032900004-05500-045270FM-12+015399999V0203601N0000122000199010000199+02811+02561101071ADDAA101999999AZ101061AZ201061GF100991999999999999999999MA1999999099341MD1999999-0121REMSYN004BUFR
0165825710999992017032912004-05500-045270FM-12+015399999V0200501N0010100300199010000199+02621+02441101211ADDAA101999999AZ101061AZ201061GA1051+003001081GA2999+999999031GE19MSL   +99999+99999GF106991051999003001999999KA1120N+02391MA1999999099471MD1999999-0131REMSYN004BUFR
0168825710999992017032918004-05500-045270FM-12+015399999V0200901N0015199999999010000199+03221+02471100761ADDAA101999999AZ101061AZ201061GA1031+003001081GA2999+999999041GA3999+999999001GE19MSL   +99999+99999GF106991031999003001999999MA1999999099041MD1999999-0141REMSYN004BUFR
0136825710999992017033000004-05500-045270FM-12+015399999V0203201N0015199999999010000199+02711+02431100971ADDAA101999999AZ101061AZ201061GA1011+003001081GE19MSL   +99999+99999GF101991011999003001999999MA1999999099231MD1999999-0111REMSYN004BUFR
0155825710999992017033012004-05500-045270FM-12+015399999V0203201N0005100300199010000199+02471+02341101221ADDAA101999999AY141061AY211061GA1071+003001061GE19MSL   +99999+99999GF107991071999003001999999KA1120N+02391MA1999999099471MD1999999+0001MW1021REMSYN004BUFR
0152825710999992017033018004-05500-045270FM-12+015399999V0200501N0010199999999010000199+03151+02471100781ADDAA101999999AZ101061AZ201061GA1031+003001081GA2999+999999001GE19MSL   +99999+99999GF104991031999003001999999MA1999999099061MD1999999+0021REMSYN004BUFR
0142825710999992017033100004-05500-045270FM-12+015399999V0200501N0021100300199010000199+02551+02511101061ADDAA106000631AY111061AY201061GA1061+003001081GE19MSL   +99999+99999GF106991061999003001999999MA1999999099311MD1999999+0081MW1291REMSYN004BUFR
0155825710999992017033112004-05500-045270FM-12+015399999V0202301N0010100300199010000199+02421+02281101391ADDAA124006031AY161061AY221061GA1061+003001081GE19MSL   +99999+99999GF106991061999003001999999KA1120N+02271MA1999999099641MD1999999+0171MW1021REMSYN004BUFR
0152825710999992017033118004-05500-045270FM-12+015399999V0201401N0015100300199010000199+03151+02431100881ADDAA101999999AZ101061AZ201061GA1051+003001081GA2999+999999001GE19MSL   +99999+99999GF106991051999003001999999MA1999999099151MD1999999+0091REMSYN004BUFR
0168825710999992017040100004-05500-045270FM-12+015399999V0200901N0005100300199010000199+02911+02561101171ADDAA101999999AZ101061AZ201061GA1081+003001061GA2999+999999101GA3999+999999101GE19MSL   +99999+99999GF108991081999003001999999MA1999999099491MD1999999+0121REMSYN004BUFR
0171825710999992017040112004-05500-045270FM-12+015399999V0200501N0005199999999010000199+02601+02351101331ADDAA124000831AY161061AY211061GA1031+003001081GA2999+999999001GE19MSL   +99999+99999GF104991031999003001999999KA1120N+02351MA1999999099591MD1999999-0051MW1011REMSYN004BUFR
0152825710999992017040118004-05500-045270FM-12+015399999V0200501N0015100300199010000199+03171+02411100861ADDAA101999999AZ101061AZ201061GA1051+003001081GA2999+999999001GE19MSL   +99999+99999GF106991051999003001999999MA1999999099141MD1999999-0011REMSYN004BUFR
0136825710999992017040200004-05500-045270FM-12+015399999V0200501N0015199999999010000199+02671+02431101211ADDAA101999999AZ101061AZ201061GA1041+003001081GE19MSL   +99999+99999GF104991041999003001999999MA1999999099471MD1999999+0041REMSYN004BUFR
0149825710999992017040212004-05500-045270FM-12+015399999V0200501N0026100300199010000199+02611+02351101251ADDAA101999999AZ101061AZ201061GA1061+003001081GE19MSL   +99999+99999GF106991061999003001999999KA1120N+02421MA1999999099511MD1999999-0081REMSYN004BUFR
0152825710999992017040218004-05500-045270FM-12+015399999V0200501N0021100300199010000199+03171+02391100741ADDAA101999999AZ101061AZ201061GA1051+003001081GA2999+999999001GE19MSL   +99999+99999GF106991051999003001999999MA1999999099021MD1999999-0121REMSYN004BUFR
0158825710999992017040400004-05500-045270FM-12+015399999V0202701N0010199999999010000199+02611+02481101161ADDAA106000731AY161061AY221061GA1031+003001081GA2999+999999031GE19MSL   +99999+99999GF106991031999003001999999MA1999999099411MD1999999+0101MW1131REMSYN004BUFR
0171825710999992017040412004-05500-045270FM-12+015399999V0203201N0021199999999010000199+02471+02341101211ADDAA124021031AY191061AY261061GA1031+003001081GA2999+999999031GE19MSL   +99999+99999GF106991031999003001999999KA1120N+02271MA1999999099461MD1999999-0081MW1011REMSYN004BUFR
0158825710999992017040418004-05500-045270FM-12+015399999V0202301N0010199999999010000199+02971+02531100781ADDAA106000131AY161061AY211061GA1041+003001061GA2999+999999031GE19MSL   +99999+99999GF106991041999003001999999MA1999999099051MD1999999+0061MW1031REMSYN004BUFR
