0155825830999992017010112004-05167-040667FM-12+029999999V0200501N002619999999N050000199+02731+02121101185ADDGA1081+008001061GE19MSL   +99999+99999GF108991081999008001999999MA1999999097821REMSYN06482583 32599 80505 10273 20212 39782 4//// 885// 333 2//// 5////=
0193825830999992017010200004-05167-040667FM-12+029999999V0200901N003119999999N004000199+02991+01781100881ADDGA1011+008001081GE19MSL   +99999+99999GF101991011999008001999999KA1120M+03571KA2120N+00551MA1999999097541REMSYN07682583 32596 10906 10299 20178 39754 40088 81100 333 10357 29055 55048 5////=
0182825830999992017010212004-05167-040667FM-12+029999999V0200901N001519999999N050000199+02671+02111101101ADDGA1081+008001061GE19MSL   +99999+99999GF108991081999008001999999KA1240N+02501MA1999999097761MD1999999-0061REMSYN06482583 32599 80903 10267 20211 39776 40110 885// 333 20250 59006=
0193825830999992017010300004-05167-040667FM-12+029999999V0200501N002619999999N004000199+03171+01731100811ADDGA1011+008001081GE19MSL   +99999+99999GF101991011999008001999999KA1120M+03431KA2120N+00521MA1999999097481REMSYN07682583 32596 10505 10317 20173 39748 40081 81100 333 10343 29052 55028 59006=
0182825830999992017010312004-05167-040667FM-12+029999999V0200901N002119999999N050000199+02691+02061101171ADDGA1081+008001061GE19MSL   +99999+99999GF108991081999008001999999KA1240N+02421MA1999999097791MD1999999+0031REMSYN06482583 32599 80904 10269 20206 39779 40117 885// 333 20242 58003=
0193825830999992017010400004-05167-040667FM-12+029999999V0203601N003119999999N004000199+02841+02091100961ADDGA1011+008001081GE19MSL   +99999+99999GF101991011999008001999999KA1120M+03421KA2120N+00661MA1999999097611REMSYN07682583 32596 13606 10284 20209 39761 40096 81100 333 10342 29066 55040 58013=
0198825830999992017010412004-05167-040667FM-12+029999999V0200901N002619999999N050000199+02861+02091101111ADDGA1041+008001081GA2999+999999001GE19MSL   +99999+99999GF106991041999008001999999KA1240N+02291MA1999999097771MD1999999-0021REMSYN06482583 32599 60905 10286 20209 39777 40111 84201 333 20229 59002=
0123825830999992017010500004-05167-040667FM-12+029999999V0200901N001019999999N004000199+03071+01561100811ADDKA1120M+03621KA2120N+00481MA1999999097401REMSYN07082583 32996 00902 10307 20156 39740 40081 333 10362 29048 55092 59012=
0182825830999992017010512004-05167-040667FM-12+029999999V0200901N003119999999N050000199+02841+01881101161ADDGA1021+008001081GE19MSL   +99999+99999GF102991021999008001999999KA1240N+02491MA1999999097821MD1999999+0051REMSYN06482583 32599 20906 10284 20188 39782 40116 82100 333 20249 58005=
0193825830999992017010600004-05167-040667FM-12+029999999V0200501N001519999999N004000199+03081+01851100871ADDGA1021+008001081GE19MSL   +99999+99999GF102991021999008001999999KA1120M+03601KA2120N+00511MA1999999097551REMSYN07682583 32596 20503 10308 20185 39755 40087 82100 333 10360 29051 55104 58008=
0198825830999992017010612004-05167-040667FM-12+029999999V0200901N002119999999N050000199+02791+02131101111ADDGA1061+008001081GA2999+999999001GE19MSL   +99999+99999GF108991061999008001999999KA1240N+02481MA1999999097771MD1999999-0051REMSYN06482583 32599 80904 10279 20213 39777 40111 86201 333 20248 59005=
0212825830999992017010700004-05167-040667FM-12+029999999V0200901N002619999999N004000199+03101+01191100851ADDGA1999+999999001GE19MSL   +99999+99999GF101991001999999999999999KA1120M+03691KA2120N+00431MA1999999097531REMSYN07682583 32996 10905 10310 20119 39753 40085 80001 333 10369 29043 55080 59002=EQDQ01    003SCCGA1
0182825830999992017010712004-05167-040667FM-12+029999999V0200501N002619999999N050000199+02811+02021101181ADDGA1041+008001081GE19MSL   +99999+99999GF104991041999008001999999KA1240N+02351MA1999999097841MD1999999+0071REMSYN06482583 32599 40505 10281 20202 39784 40118 84200 333 20235 58007=
0123825830999992017010800004-05167-040667FM-12+029999999V0202301N001519999999N004000199+03051+01681100841ADDKA1120M+03671KA2120N+00491MA1999999097521REMSYN07082583 32996 02303 10305 20168 39752 40084 333 10367 29049 55110 59011=
0182825830999992017010812004-05167-040667FM-12+029999999V0202301N001519999999N050000199+02821+02071101011ADDGA1061+008001081GE19MSL   +99999+99999GF106991061999008001999999KA1240N+02491MA1999999097641MD1999999-0161REMSYN06482583 32599 62303 10282 20207 39764 40101 86200 333 20249 59016=
0193825830999992017010900004-05167-040667FM-12+029999999V0200501N002119999999N004000199+03091+01901100851ADDGA1081+008001081GE19MSL   +99999+99999GF108991081999008001999999KA1120M+03601KA2120N+00541MA1999999097531REMSYN07682583 32596 80504 10309 20190 39753 40085 888// 333 10360 29054 55082 58001=
0182825830999992017010912004-05167-040667FM-12+029999999V0200501N002619999999N050000199+02771+02011101131ADDGA1061+008001081GE19MSL   +99999+99999GF107991061999008001999999KA1240N+02491MA1999999097781MD1999999+0111REMSYN06482583 32599 70505 10277 20201 39778 40113 86200 333 20249 58011=
0193825830999992017011000004-05167-040667FM-12+029999999V0203601N001019999999N004000199+03081+02191100811ADDGA1031+008001081GE19MSL   +99999+99999GF107991031999008001999999KA1120M+03531KA2120N+00601MA1999999097481REMSYN07682583 32596 73602 10308 20219 39748 40081 83200 333 10353 29060 55073 59005=
0182825830999992017011012004-05167-040667FM-12+029999999V0200501N003119999999N050000199+02801+02091101021ADDGA1071+008001081GE19MSL   +99999+99999GF107991071999008001999999KA1240N+02461MA1999999097691MD1999999-0101REMSYN06482583 32599 70506 10280 20209 39769 40102 87200 333 20246 59010=
0254825830999992017011100004-05167-040667FM-12+029999999V0200501N002619999999N004000199+02611+02311100841ADDAA106011031AY161021AY261021GA1071+008001081GA2999+999999031GE19MSL   +99999+99999GF108991071999008001999999KA1120M+03561KA2120N+00771MA1999999097501MW1131REMSYN08882583 21596 80505 10261 20231 39750 40084 71366 8785/ 333 10356 29077 55053 58002 60111=
0227825830999992017011112004-05167-040667FM-12+029999999V0200501N001019999999N050000199+02591+02421101201ADDAA124012031AY161021AY261021GA1071+008001061GE19MSL   +99999+99999GF108991071999008001999999KA1240N+02381MA1999999097831MD1999999+0141MW1031REMSYN07682583 21599 80502 10259 20242 39783 40120 70366 87500 333 20238 58014 60124=
0209825830999992017011200004-05167-040667FM-12+029999999V0203601N003119999999N004000199+02641+02141100891ADDGA1051+008001061GA2999+999999031GE19MSL   +99999+99999GF108991051999008001999999KA1120M+03541KA2120N+00801MA1999999097531REMSYN07682583 32596 83606 10264 20214 39753 40089 85430 333 10354 29080 55065 58003=
0182825830999992017011212004-05167-040667FM-12+029999999V0200501N001019999999N050000199+02621+02141101151ADDGA1081+008001081GE19MSL   +99999+99999GF108991081999008001999999KA1240N+02281MA1999999097791MD1999999-0041REMSYN06482583 32599 80502 10262 20214 39779 40115 888// 333 20228 59004=
0193825830999992017011300004-05167-040667FM-12+029999999V0200501N001519999999N004000199+03001+01971100761ADDGA1011+008001081GE19MSL   +99999+99999GF101991011999008001999999KA1120M+03531KA2120N+00611MA1999999097421REMSYN07682583 32596 10503 10300 20197 39742 40076 81100 333 10353 29061 55074 59011=
0182825830999992017011312004-05167-040667FM-12+029999999V0201401N001019999999N050000199+02601+02081101021ADDGA1081+008001061GE19MSL   +99999+99999GF108991081999008001999999KA1240N+02281MA1999999097671MD1999999-0121REMSYN06482583 32599 81402 10260 20208 39767 40102 885// 333 20228 59012=
0212825830999992017011400004-05167-040667FM-12+029999999V0203201N002619999999N004000199+02921+02191100731ADDGA1999+999999001GE19MSL   +99999+99999GF101991001999999999999999KA1120M+03491KA2120N+00681MA1999999097391REMSYN07682583 32996 13205 10292 20219 39739 40073 80001 333 10349 29068 55090 59003=EQDQ01    003SCCGA1
0198825830999992017011412004-05167-040667FM-12+029999999V0200501N002619999999N050000199+02661+01971101021ADDGA1021+008001081GA2999+999999051GE19MSL   +99999+99999GF108991021999008001999999KA1240N+02421MA1999999097671MD1999999+0001REMSYN06482583 32599 80505 10266 20197 39767 40102 8212/ 333 20242 58000=
0123825830999992017011500004-05167-040667FM-12+029999999V0202701N001519999999N004000199+02981+02041100751ADDKA1120M+03331KA2120N+00601MA1999999097411REMSYN07082583 32996 02703 10298 20204 39741 40075 333 10333 29060 55017 58002=
0233825830999992017011512004-05167-040667FM-12+029999999V0200501N001519999999N050000199+02691+02131101061ADDAA124000731AY151021AY251021GA1071+008001081GE19MSL   +99999+99999GF107991071999008001999999MA1999999097721MD1999999+0051MW1021REMSYN07682583 21599 70503 10269 20213 39772 40106 70255 878// 333 20303 58005 69974=EQDQ0130.3  2EATMN 
0193825830999992017011600004-05167-040667FM-12+029999999V0203601N003119999999N004000199+02931+02111100761ADDGA1021+008001081GE19MSL   +99999+99999GF102991021999008001999999KA1120M+03571KA2120N+00641MA1999999097421REMSYN07682583 32596 23606 10293 20211 39742 40076 82100 333 10357 29064 55076 58001=
0182825830999992017011612004-05167-040667FM-12+029999999V0200501N002619999999N050000199+02731+02071101011ADDGA1061+008001081GE19MSL   +99999+99999GF106991061999008001999999KA1240N+02491MA1999999097671MD1999999-0051REMSYN06482583 32599 60505 10273 20207 39767 40101 86200 333 20249 59005=
0238825830999992017011700004-05167-040667FM-12+029999999V0203601N002119999999N004000199+02821+02171100761ADDAA106003031AY161021AY261021GA1031+008001081GE19MSL   +99999+99999GF103991031999008001999999KA1120M+03531KA2120N+00681MA1999999097421MW1131REMSYN08882583 21596 33604 10282 20217 39742 40076 71366 83200 333 10353 29068 55062 58000 60031=
0199825830999992017011712004-05167-040667FM-12+029999999V0200901N002119999999N050000199+02671+02241101041ADDAA124003031GA1081+008001081GE19MSL   +99999+99999GF108991081999008001999999KA1240N+02441MA1999999097681MD1999999+0011REMSYN07082583 22599 80904 10267 20224 39768 40104 888// 333 20244 58001 60034=
0193825830999992017011800004-05167-040667FM-12+029999999V0201401N003119999999N004000199+02941+02031100741ADDGA1071+008001061GE19MSL   +99999+99999GF107991071999008001999999KA1120M+03421KA2120N+00641MA1999999097401REMSYN07682583 32596 71406 10294 20203 39740 40074 87500 333 10342 29064 55045 59002=
0198825830999992017011812004-05167-040667FM-12+029999999V0200501N002619999999N050000199+02841+01991101011ADDGA1041+008001081GA2999+999999001GE19MSL   +99999+99999GF105991041999008001999999KA1240N+02341MA1999999097671MD1999999-0011REMSYN06482583 32599 50505 10284 20199 39767 40101 84101 333 20234 59001=
0232825830999992017011900004-05167-040667FM-12+029999999V0203201N002619999999N004000199+02531+02251100961ADDAA106010031AY161021AY261021GA1041+008001081GE19MSL   +99999+99999GF104991041999008001999999KA1120M+03471KA2120N+00761MA1999999097601REMSYN08882583 21596 43205 10253 20225 39760 40096 77266 84200 333 10347 29076 55080 58020 60101=
0227825830999992017011912004-05167-040667FM-12+029999999V0202301N001019999999N050000199+02411+02321101181ADDAA124017031AY161021AY261021GA1081+008001061GE19MSL   +99999+99999GF108991081999008001999999KA1240N+02341MA1999999097791MD1999999+0121MW1021REMSYN07682583 21599 82302 10241 20232 39779 40118 70266 885// 333 20234 58012 60174=
0193825830999992017012000004-05167-040667FM-12+029999999V0203201N002119999999N004000199+02631+02331101061ADDGA1081+008001061GE19MSL   +99999+99999GF108991081999008001999999KA1120M+03201KA2120N+00871MA1999999097681REMSYN07682583 32596 83204 10263 20233 39768 40106 885// 333 10320 29087 55030 58008=
0227825830999992017012012004-05167-040667FM-12+029999999V0200501N000519999999N050000199+02241+02191101291ADDAA124021031AY191021AY291021GA1081+008001061GE19MSL   +99999+99999GF108991081999008001999999KA1240N+02201MA1999999097951MD1999999+0161MW1031REMSYN07682583 21599 80501 10224 20219 39795 40129 70399 885// 333 20220 58016 60214=
0193825830999992017012100004-05167-040667FM-12+029999999V0203601N001519999999N004000199+02621+02291100981ADDGA1081+008001061GE19MSL   +99999+99999GF108991081999008001999999KA1120M+03071KA2120N+00871MA1999999097601REMSYN07682583 32596 83603 10262 20229 39760 40098 885// 333 10307 29087 55035 59008=
0182825830999992017012112004-05167-040667FM-12+029999999V0200501N002619999999N050000199+02571+02081101201ADDGA1081+008001081GE19MSL   +99999+99999GF108991081999008001999999KA1240N+02231MA1999999097831MD1999999-0121REMSYN06482583 32599 80505 10257 20208 39783 40120 888// 333 20223 59012=
0193825830999992017012200004-05167-040667FM-12+029999999V0202701N001019999999N004000199+02791+02181100851ADDGA1021+008001081GE19MSL   +99999+99999GF102991021999008001999999KA1120M+03151KA2120N+00711MA1999999097501REMSYN07682583 32596 22702 10279 20218 39750 40085 82100 333 10315 29071 55042 59010=
0182825830999992017012212004-05167-040667FM-12+029999999V0200901N002619999999N050000199+02571+02171101191ADDGA1041+008001081GE19MSL   +99999+99999GF107991041999008001999999KA1240N+02291MA1999999097831MD1999999+0001REMSYN06482583 32599 70905 10257 20217 39783 40119 84200 333 20229 58000=
0221825830999992017012300004-05167-040667FM-12+029999999V0203601N003119999999N004000199+02871+02161100961ADDAY121021AY221021GA1021+008001081GE19MSL   +99999+99999GF102991021999008001999999KA1120M+03441KA2120N+00691MA1999999097601MW1131REMSYN08282583 31596 23606 10287 20216 39760 40096 71322 82200 333 10344 29069 55086 58010=
0112825830999992017012312004-05167-040667FM-12+029999999V0200501N002619999999N050000199+02671+02111101161ADDKA1240N+02341MA1999999097801MD1999999-0031REMSYN05882583 32599 00505 10267 20211 39780 40116 333 20234 59003=
0221825830999992017012400004-05167-040667FM-12+029999999V0200901N002119999999N004000199+03011+01991100891ADDAY121021AY221021GA1061+008001081GE19MSL   +99999+99999GF106991061999008001999999KA1120M+03421KA2120N+00601MA1999999097551MW1131REMSYN08282583 31596 60904 10301 20199 39755 40089 71322 86200 333 10342 29060 55091 59005=
0198825830999992017012412004-05167-040667FM-12+029999999V0200901N004119999999N050000199+02681+02111101231ADDGA1071+008001081GA2999+999999051GE19MSL   +99999+99999GF108991071999008001999999KA1240N+02461MA1999999097891MD1999999+0091REMSYN06482583 32599 80908 10268 20211 39789 40123 87820 333 20246 58009=
0193825830999992017012500004-05167-040667FM-12+029999999V0201401N001019999999N004000199+02881+02091100971ADDGA1021+008001081GE19MSL   +99999+99999GF102991021999008001999999KA1120M+03431KA2120N+00631MA1999999097631REMSYN07682583 32596 21402 10288 20209 39763 40097 82200 333 10343 29063 55052 58008=
0214825830999992017012512004-05167-040667FM-12+029999999V0200501N001519999999N050000199+02701+02061101321ADDGA1031+008001081GA2999+999999051GA3999+999999001GE19MSL   +99999+99999GF106991031999008001999999KA1240N+02371MA1999999097961MD1999999+0071REMSYN06482583 32599 60503 10270 20206 39796 40132 83121 333 20237 58007=
0193825830999992017012600004-05167-040667FM-12+029999999V0203201N001519999999N004000199+02901+02071101091ADDGA1011+008001081GE19MSL   +99999+99999GF101991011999008001999999KA1120M+03491KA2120N+00631MA1999999097741REMSYN07682583 32596 13203 10290 20207 39774 40109 81100 333 10349 29063 55066 58011=
0182825830999992017012612004-05167-040667FM-12+029999999V0200501N001519999999N050000199+02661+02111101371ADDGA1031+008001081GE19MSL   +99999+99999GF106991031999008001999999KA1240N+02351MA1999999098011MD1999999+0051REMSYN06482583 32599 60503 10266 20211 39801 40137 83200 333 20235 58005=
0182825830999992017012712004-05167-040667FM-12+029999999V0200501N003119999999N050000199+02741+02021101361ADDGA1061+008001081GE19MSL   +99999+99999GF106991061999008001999999KA1240N+02361MA1999999097991MD1999999-0021REMSYN06482583 32599 60506 10274 20202 39799 40136 86200 333 20236 59002=
0238825830999992017012800004-05167-040667FM-12+029999999V0203601N003119999999N004000199+02591+02271101171ADDAA106002031AY121021AY221021GA1081+008001081GE19MSL   +99999+99999GF108991081999008001999999KA1120M+03411KA2120N+00691MA1999999097811MW1211REMSYN08882583 21596 83606 10259 20227 39781 40117 72122 888// 333 10341 29069 55046 59001 60021=
0227825830999992017012812004-05167-040667FM-12+029999999V0200501N002119999999N050000199+02521+02311101341ADDAA124003031AY161021AY261021GA1081+008001061GE19MSL   +99999+99999GF108991081999008001999999KA1240N+02281MA1999999097961MD1999999-0031MW1021REMSYN07682583 21599 80504 10252 20231 39796 40134 70266 885// 333 20228 59003 60034=
0123825830999992017012900004-05167-040667FM-12+029999999V0203601N001519999999N004000199+02831+02221100161ADDKA1120M+03241KA2120N+00751MA1999999097801REMSYN07082583 32996 03603 10283 20222 39780 40016 333 10324 29075 55037 59001=
0182825830999992017012912004-05167-040667FM-12+029999999V0200901N003119999999N050000199+02841+02041100121ADDGA1061+008001081GE19MSL   +99999+99999GF106991061999008001999999KA1240N+02391MA1999999097781MD1999999-0181REMSYN06482583 32599 60906 10284 20204 39778 40012 86200 333 20239 59018=
0193825830999992017013000004-05167-040667FM-12+029999999V0200501N002119999999N004000199+02931+01941101071ADDGA1021+008001081GE19MSL   +99999+99999GF102991021999008001999999KA1120M+03461KA2120N+00571MA1999999097731REMSYN07682583 32596 20504 10293 20194 39773 40107 82100 333 10346 29057 55065 59007=
0198825830999992017013012004-05167-040667FM-12+029999999V0200901N001519999999N050000199+02601+02121101281ADDGA1031+008001081GA2999+999999001GE19MSL   +99999+99999GF106991031999008001999999KA1240N+02331MA1999999097921MD1999999+0141REMSYN06482583 32599 60903 10260 20212 39792 40128 83102 333 20233 58014=
0193825830999992017013100004-05167-040667FM-12+029999999V0200501N001519999999N004000199+02991+01841100961ADDGA1011+008001081GE19MSL   +99999+99999GF101991011999008001999999KA1120M+03541KA2120N+00581MA1999999097621REMSYN07682583 32596 10503 10299 20184 39762 40096 81100 333 10354 29058 55059 59011=
0198825830999992017013112004-05167-040667FM-12+029999999V0200901N002619999999N050000199+02811+02101101211ADDGA1041+008001081GA2999+999999001GE19MSL   +99999+99999GF105991041999008001999999KA1240N+02341MA1999999097871MD1999999-0051REMSYN06482583 32599 50905 10281 20210 39787 40121 84101 333 20234 59005=
0221825830999992017020100004-05167-040667FM-12+029999999V0200901N003619999999N004000199+02611+02231101071ADDAY121021AY221021GA1081+008001081GE19MSL   +99999+99999GF108991081999008001999999KA1120M+03531KA2120N+00741MA1999999097711MW1131REMSYN08282583 31596 80907 10261 20223 39771 40107 71322 888// 333 10353 29074 55068 58009=
0182825830999992017020112004-05167-040667FM-12+029999999V0200501N004119999999N050000199+02691+02131101271ADDGA1081+008001081GE19MSL   +99999+99999GF108991081999008001999999KA1240N+02301MA1999999097901MD1999999+0031REMSYN06482583 32599 80508 10269 20213 39790 40127 888// 333 20230 58003=
0193825830999992017020200004-05167-040667FM-12+029999999V0203601N002119999999N004000199+02591+02121101081ADDGA1031+008001081GE19MSL   +99999+99999GF103991031999008001999999KA1120M+03441KA2120N+00741MA1999999097721REMSYN07682583 32596 33604 10259 20212 39772 40108 83200 333 10344 29074 55033 58001=
0182825830999992017020212004-05167-040667FM-12+029999999V0200501N002119999999N050000199+02731+02101101131ADDGA1061+008001081GE19MSL   +99999+99999GF106991061999008001999999KA1240N+02281MA1999999097771MD1999999-0131REMSYN06482583 32599 60504 10273 20210 39777 40113 86200 333 20228 59013=
0123825830999992017020300004-05167-040667FM-12+029999999V0200901N001019999999N004000199+03021+01921100851ADDKA1120M+03541KA2120N+00571MA1999999097521REMSYN07082583 32996 00902 10302 20192 39752 40085 333 10354 29057 55081 59020=
0198825830999992017020312004-05167-040667FM-12+029999999V0200501N003619999999N050000199+02841+01991101151ADDGA1041+008001081GA2999+999999001GE19MSL   +99999+99999GF105991041999008001999999KA1240N+02461MA1999999097811MD1999999+0041REMSYN06482583 32599 50507 10284 20199 39781 40115 84101 333 20246 58004=
0123825830999992017020400004-05167-040667FM-12+029999999V0200901N001519999999N004000199+03071+01711100891ADDKA1120M+03561KA2120N+00491MA1999999097571REMSYN07082583 32996 00903 10307 20171 39757 40089 333 10356 29049 55099 58005=
0198825830999992017020412004-05167-040667FM-12+029999999V0200901N002619999999N050000199+02771+01981101221ADDGA1051+008001081GA2999+999999001GE19MSL   +99999+99999GF106991051999008001999999KA1240N+02301MA1999999097881MD1999999+0071REMSYN06482583 32599 60905 10277 20198 39788 40122 85201 333 20230 58007=
0123825830999992017020500004-05167-040667FM-12+029999999V0200501N002119999999N004000199+03071+01681100791ADDKA1120M+03601KA2120N+00491MA1999999097461REMSYN07082583 32596 00504 10307 20168 39746 40079 333 10360 29049 55096 59011=
0182825830999992017020512004-05167-040667FM-12+029999999V0200901N002619999999N050000199+03071+02001101011ADDGA1061+008001081GE19MSL   +99999+99999GF106991061999008001999999KA1240N+02311MA1999999097681MD1999999-0201REMSYN06482583 32599 60905 10307 20200 39768 40101 86100 333 20231 59020=
0193825830999992017020600004-05167-040667FM-12+029999999V0200901N001019999999N004000199+03061+01831100731ADDGA1011+008001081GE19MSL   +99999+99999GF101991011999008001999999KA1120M+03661KA2120N+00531MA1999999097411REMSYN07682583 32596 10902 10306 20183 39741 40073 81100 333 10366 29053 55101 59005=
0198825830999992017020612004-05167-040667FM-12+029999999V0200501N002619999999N050000199+02871+02051101091ADDGA1051+008001081GA2999+999999001GE19MSL   +99999+99999GF106991051999008001999999KA1240N+02381MA1999999097551MD1999999+0071REMSYN06482583 32599 60505 10287 20205 39755 40109 85201 333 20238 58007=
0221825830999992017020700004-05167-040667FM-12+029999999V0203601N003119999999N004000199+02971+02121100791ADDAY121021AY221021GA1021+008001081GE19MSL   +99999+99999GF102991021999008001999999KA1120M+03621KA2120N+00601MA1999999097461MW1131REMSYN08282583 31596 23606 10297 20212 39746 40079 71322 82200 333 10362 29060 55091 58005=
0149825830999992017020712004-05170-040670FM-12+029699999V0203601N0015100600199050000199+02761+02121101021ADDAA101999999AZ101061AZ201061GA1061+006001081GE19MSL   +99999+99999GF106991061999006001999999KA1120N+02381MA1999999097681MD1999999-0071REMSYN004BUFR
0136825830999992017020800004-05170-040670FM-12+029699999V0200501N0031199999999004000199+03071+02041100821ADDAA101999999AZ101061AZ201061GA1011+006001081GE19MSL   +99999+99999GF101991011999006001999999MA1999999097491MD1999999+0031REMSYN004BUFR
0149825830999992017020812004-05170-040670FM-12+029699999V0200901N0010199999999050000199+02721+02121101021ADDAA101999999AZ101061AZ201061GA1041+006001081GE19MSL   +99999+99999GF104991041999006001999999KA1120N+02361MA1999999097681MD1999999+0001REMSYN004BUFR
0142825830999992017020900004-05170-040670FM-12+029699999V0203601N0036100600199004000199+02751+02281100911ADDAA106000131AY151061AY251061GA1061+006001081GE19MSL   +99999+99999GF106991061999006001999999MA1999999097561MD1999999+0071MW1131REMSYN004BUFR
0181825830999992017020912004-05170-040670FM-12+029699999V0203601N0021100600199050000199+02701+99999101131ADDAA124000131AZ101061AZ201061GA1071+006001081GA2999+999999031GA3999+999999101GE19MSL   +99999+99999GF108991071999006001999999KA1120N+02441MA1999999097771MD1999999+0091REMSYN004BUFR
0174825830999992017021000004-05170-040670FM-12+029699999V0203201N0021100600199002000199+02771+02301100901ADDAA106000131AY121061AY221061GA1081+006001081GA2999+999999101GA3999+999999101GE19MSL   +99999+99999GF108991081999006001999999MA1999999097551MD1999999-0011MW1511REMSYN004BUFR
0165825830999992017021012004-05170-040670FM-12+029699999V0200901N0026100600199050000199+02721+02281101071ADDAA124000131AZ101061AZ201061GA1051+006001081GA2999+999999001GE19MSL   +99999+99999GF106991051999006001999999KA1120N+02491MA1999999097711MD1999999-0061REMSYN004BUFR
0168825830999992017021100004-05170-040670FM-12+029699999V0203201N0026100600199004000199+02521+02211100951ADDAA101999999AZ101061AZ201061GA1081+006001081GA2999+999999101GA3999+999999101GE19MSL   +99999+99999GF108991081999006001999999MA1999999097591MD1999999+0041REMSYN004BUFR
0187825830999992017021112004-05170-040670FM-12+029699999V0202701N0010100600199050000199+02371+02291101101ADDAA124043031AY161061AY261061GA1081+006001081GA2999+999999101GA3999+999999101GE19MSL   +99999+99999GF108991081999006001999999KA1120N+02281MA1999999097721MD1999999+0011MW1021REMSYN004BUFR
0174825830999992017021200004-05170-040670FM-12+029699999V0203601N0010100300199001000199+02271+02231101081ADDAA106024031AY161061AY261061GA1081+003001081GA2999+999999101GA3999+999999101GE19MSL   +99999+99999GF108991081999003001999999MA1999999097681MD1999999+0091MW1611REMSYN004BUFR
0149825830999992017021212004-05170-040670FM-12+029699999V0203201N0010100600199050000199+02471+02271100921ADDAA124024031AZ101061AZ201061GA1061+006001081GE19MSL   +99999+99999GF106991061999006001999999KA1120N+02151MA1999999097561MD1999999-0191REMSYN004BUFR
0174825830999992017021300004-05170-040670FM-12+029699999V0202701N0026100300199002000199+02421+02321100901ADDAA106006031AY161061AY261061GA1081+003001081GA2999+999999101GA3999+999999101GE19MSL   +99999+99999GF108991081999003001999999MA1999999097521MD1999999-0161MW1951REMSYN004BUFR
0187825830999992017021312004-05170-040670FM-12+029699999V0200501N0026100600199050000199+02551+02151101001ADDAA124006031AY161061AY261061GA1081+006001081GA2999+999999101GA3999+999999101GE19MSL   +99999+99999GF108991081999006001999999KA1120N+02281MA1999999097621MD1999999+0091MW1021REMSYN004BUFR
0168825830999992017021400004-05170-040670FM-12+029699999V0203601N0026100600199004000199+02701+02241100971ADDAA101999999AZ101061AZ201061GA1081+006001061GA2999+999999101GA3999+999999101GE19MSL   +99999+99999GF108991081999006001999999MA1999999097601MD1999999+0081REMSYN004BUFR
0181825830999992017021412004-05170-040670FM-12+029699999V0201401N0010100600199050000199+02521+02191101241ADDAA101999999AZ101061AZ201061GA1071+006001061GA2999+999999031GA3999+999999101GE19MSL   +99999+99999GF108991071999006001999999KA1120N+02351MA1999999097861MD1999999+0241REMSYN004BUFR
0168825830999992017021500004-05170-040670FM-12+029699999V0201801N0010100600199004000199+02621+02351101211ADDAA101999999AZ101061AZ201061GA1081+006001061GA2999+999999101GA3999+999999101GE19MSL   +99999+99999GF108991081999006001999999MA1999999097831MD1999999+0231REMSYN004BUFR
0181825830999992017021512004-05170-040670FM-12+029699999V0200901N0010100600199050000199+02521+02331101281ADDAA101999999AZ101061AZ201061GA1081+006001081GA2999+999999101GA3999+999999101GE19MSL   +99999+99999GF108991081999006001999999KA1120N+02301MA1999999097901MD1999999+0041REMSYN004BUFR
0136825830999992017021600004-05170-040670FM-12+029699999V0203601N0010199999999004000199+02821+02201101091ADDAA101999999AZ101061AZ201061GA1011+006001081GE19MSL   +99999+99999GF101991011999006001999999MA1999999097731MD1999999-0101REMSYN004BUFR
0181825830999992017021612004-05170-040670FM-12+029699999V0200901N0015100600199050000199+02571+02331101241ADDAA101999999AZ101061AZ201061GA1081+006001081GA2999+999999101GA3999+999999101GE19MSL   +99999+99999GF108991081999006001999999KA1120N+02451MA1999999097881MD1999999-0021REMSYN004BUFR
0168825830999992017021700004-05170-040670FM-12+029699999V0202701N0010100600199004000199+02571+02271101161ADDAA101999999AZ101061AZ201061GA1081+006001081GA2999+999999101GA3999+999999101GE19MSL   +99999+99999GF108991081999006001999999MA1999999097791MD1999999+0061REMSYN004BUFR
0181825830999992017021712004-05170-040670FM-12+029699999V0203601N0010100600199050000199+02451+02211101211ADDAA101999999AZ101061AZ201061GA1081+006001061GA2999+999999101GA3999+999999101GE19MSL   +99999+99999GF108991081999006001999999KA1120N+02331MA1999999097831MD1999999-0051REMSYN004BUFR
0168825830999992017021800004-05170-040670FM-12+029699999V0203601N0021100600199004000199+02471+02271101201ADDAA101999999AZ101061AZ201061GA1081+006001081GA2999+999999101GA3999+999999101GE19MSL   +99999+99999GF108991081999006001999999MA1999999097811MD1999999+0021REMSYN004BUFR
0187825830999992017021812004-05170-040670FM-12+029699999V0200901N0010100600199050000199+02311+02271101351ADDAA124014031AY161061AY261061GA1081+006001081GA2999+999999101GA3999+999999101GE19MSL   +99999+99999GF108991081999006001999999KA1120N+02211MA1999999097951MD1999999+0121MW1031REMSYN004BUFR
0142825830999992017021900004-05170-040670FM-12+029699999V0202701N0010199999999004000199+02601+02401101181ADDAA106003031AY161061AY261061GA1011+006001081GE19MSL   +99999+99999GF101991011999006001999999MA1999999097791MD1999999-0021MW1011REMSYN004BUFR
0149825830999992017021912004-05170-040670FM-12+029699999V0200901N0010100600199050000199+02621+02311101231ADDAA124003031AZ101061AZ201061GA1061+006001081GE19MSL   +99999+99999GF106991061999006001999999KA1120N+02311MA1999999097851MD1999999-0101REMSYN004BUFR
0168825830999992017022000004-05170-040670FM-12+029699999V0203601N0010100600199004000199+02351+02221101271ADDAA101999999AZ101061AZ201061GA1081+006001061GA2999+999999101GA3999+999999101GE19MSL   +99999+99999GF108991081999006001999999MA1999999097881MD1999999+0091REMSYN004BUFR
0149825830999992017022012004-05170-040670FM-12+029699999V0200501N0026100600199050000199+02501+02291101311ADDAA101999999AZ101061AZ201061GA1051+006001081GE19MSL   +99999+99999GF106991051999006001999999KA1120N+02271MA1999999097911MD1999999+0061REMSYN004BUFR
0142825830999992017022100004-05170-040670FM-12+029699999V0200901N0010100600199004000199+02301+02161101111ADDAA106002031AY161061AY261061GA1061+006001081GE19MSL   +99999+99999GF108991061999006001999999MA1999999097721MD1999999-0161MW1031REMSYN004BUFR
0181825830999992017022112004-05170-040670FM-12+029699999V0200501N0026100600199050000199+02521+02251101241ADDAA124002031AZ101061AZ201061GA1081+006001081GA2999+999999101GA3999+999999101GE19MSL   +99999+99999GF108991081999006001999999KA1120N+02211MA1999999097841MD1999999-0071REMSYN004BUFR
0136825830999992017022200004-05170-040670FM-12+029699999V0203201N0026100600199004000199+02471+02071101101ADDAA101999999AZ101061AZ201061GA1061+006001061GE19MSL   +99999+99999GF106991061999006001999999MA1999999097721MD1999999+0001REMSYN004BUFR
0149825830999992017022212004-05170-040670FM-12+029699999V0200901N0036100600199050000199+02601+02121101131ADDAA101999999AZ101061AZ201061GA1061+006001061GE19MSL   +99999+99999GF106991061999006001999999KA1120N+02241MA1999999097751MD1999999-0091REMSYN004BUFR
0152825830999992017022300004-05170-040670FM-12+029699999V0200501N0015100600199004000199+02671+02061100941ADDAA101999999AZ101061AZ201061GA1051+006001061GA2999+999999041GE19MSL   +99999+99999GF106991051999006001999999MA1999999097581MD1999999-0141REMSYN004BUFR
0165825830999992017022312004-05170-040670FM-12+029699999V0201401N0021100600199050000199+02601+02191101281ADDAA101999999AZ101061AZ201061GA1051+006001081GA2999+999999001GE19MSL   +99999+99999GF106991051999006001999999KA1120N+02291MA1999999097911MD1999999+0161REMSYN004BUFR
0136825830999992017022400004-05170-040670FM-12+029699999V0200501N0015199999999004000199+02721+01951100961ADDAA101999999AZ101061AZ201061GA1021+006001081GE19MSL   +99999+99999GF102991021999006001999999MA1999999097601MD1999999+0021REMSYN004BUFR
0149825830999992017022412004-05170-040670FM-12+029699999V0200901N0031199999999050000199+02671+02201101161ADDAA101999999AZ101061AZ201061GA1031+006001081GE19MSL   +99999+99999GF103991031999006001999999KA1120N+02141MA1999999097801MD1999999-0111REMSYN004BUFR
0165825830999992017022512004-05170-040670FM-12+029699999V0200501N0026100600199050000199+02601+02291101141ADDAA101999999AZ101061AZ201061GA1051+006001081GA2999+999999001GE19MSL   +99999+99999GF106991051999006001999999KA1120N+02381MA1999999097761MD1999999-0041REMSYN004BUFR
0149825830999992017022612004-05170-040670FM-12+029699999V0200501N0015100600199050000199+02701+02221101121ADDAA101999999AZ101061AZ201061GA1051+006001081GE19MSL   +99999+99999GF105991051999006001999999KA1120N+02291MA1999999097761MD1999999+0001REMSYN004BUFR
0165825830999992017022712004-05170-040670FM-12+029699999V0203601N0005100600199050000199+02511+02291101171ADDAA101999999AZ101061AZ201061GA1061+006001081GA2999+999999031GE19MSL   +99999+99999GF107991061999006001999999KA1120N+02321MA1999999097791MD1999999+0031REMSYN004BUFR
0155825830999992017022812004-05170-040670FM-12+029699999V0200901N0015100600199050000199+02611+02311101101ADDAA124009031AY161061AY261061GA1051+006001081GE19MSL   +99999+99999GF105991051999006001999999KA1120N+02231MA1999999097721MD1999999-0071MW1021REMSYN004BUFR
0149825830999992017030112004-05170-040670FM-12+029699999V0200901N0021100600199050000199+02521+02271101091ADDAA101999999AZ101061AZ201061GA1061+006001081GE19MSL   +99999+99999GF106991061999006001999999KA1120N+02241MA1999999097711MD1999999-0011REMSYN004BUFR
0142825830999992017030200004-05170-040670FM-12+029699999V0203601N0031199999999004000199+02501+02231101071ADDAA106000631AY161061AY261061GA1031+006001081GE19MSL   +99999+99999GF103991031999006001999999MA1999999097691MD1999999+0081MW1021REMSYN004BUFR
0181825830999992017030212004-05170-040670FM-12+029699999V0201801N0015100600199050000199+02411+02251101241ADDAA124000631AZ101061AZ201061GA1061+006001061GA2999+999999031GA3999+999999101GE19MSL   +99999+99999GF108991061999006001999999KA1120N+02161MA1999999097851MD1999999+0141REMSYN004BUFR
0174825830999992017030300004-05170-040670FM-12+029699999V0203601N0010100300199004000199+02371+02311101261ADDAA106007031AY161061AY261061GA1081+003001071GA2999+999999101GA3999+999999101GE19MSL   +99999+99999GF108991081999003001999999MA1999999097861MD1999999+0171MW1131REMSYN004BUFR
0187825830999992017030312004-05170-040670FM-12+029699999V0200501N0026100600199050000199+02421+02271101351ADDAA124007031AY151061AY251061GA1082+006001061GA2999+999999101GA3999+999999101GE19MSL   +99999+99999GF107992082999006001999999KA1120N+02161MA1999999097951MD1999999+0101MW1031REMSYN004BUFR
0136825830999992017030400004-05170-040670FM-12+029699999V0203201N0015199999999004000199+02561+02351101041ADDAA101999999AZ101061AZ201061GA1041+006001081GE19MSL   +99999+99999GF104991041999006001999999MA1999999097661MD1999999-0201REMSYN004BUFR
0181825830999992017030412004-05170-040670FM-12+029699999V0200501N0005100600199050000199+02511+02291101161ADDAA101999999AZ101061AZ201061GA1081+006001061GA2999+999999101GA3999+999999101GE19MSL   +99999+99999GF108991081999006001999999KA1120N+02271MA1999999097781MD1999999-0171REMSYN004BUFR
0174825830999992017030500004-05170-040670FM-12+029699999V0203201N0015100300199002000199+02551+02401100831ADDAA106001031AY161061AY261061GA1081+003001071GA2999+999999101GA3999+999999101GE19MSL   +99999+99999GF108991081999003001999999MA1999999097461MD1999999-0201MW1031REMSYN004BUFR
0149825830999992017030512004-05170-040670FM-12+029699999V0200901N0031100600199050000199+02601+02251101071ADDAA124001031AZ101061AZ201061GA1061+006001081GE19MSL   +99999+99999GF106991061999006001999999KA1120N+02301MA1999999097691MD1999999-0091REMSYN004BUFR
0174825830999992017030600004-05170-040670FM-12+029699999V0203601N0021100600199004000199+02401+02301100901ADDAA106004031AY161061AY261061GA1081+006001061GA2999+999999101GA3999+999999101GE19MSL   +99999+99999GF108991081999006001999999MA1999999097531MD1999999+0071MW1021REMSYN004BUFR
0149825830999992017030612004-05170-040670FM-12+029699999V0200501N0031100600199050000199+02601+02291101141ADDAA124004031AZ101061AZ201061GA1071+006001081GE19MSL   +99999+99999GF107991071999006001999999KA1120N+02271MA1999999097761MD1999999+0071REMSYN004BUFR
0152825830999992017030700004-05170-040670FM-12+029699999V0203601N0021199999999004000199+02701+02241100931ADDAA101999999AZ101061AZ201061GA1011+006001081GA2999+999999001GE19MSL   +99999+99999GF102991011999006001999999MA1999999097571MD1999999+0041REMSYN004BUFR
0149825830999992017030712004-05170-040670FM-12+029699999V0200901N0036100600199050000199+02721+02261101131ADDAA101999999AZ101061AZ201061GA1061+006001081GE19MSL   +99999+99999GF106991061999006001999999KA1120N+02361MA1999999097771MD1999999+0011REMSYN004BUFR
0136825830999992017030800004-05170-040670FM-12+029699999V0203601N0026100600199004000199+02801+02111100961ADDAA101999999AZ101061AZ201061GA1061+006001061GE19MSL   +99999+99999GF106991061999006001999999MA1999999097611MD1999999+0041REMSYN004BUFR
0165825830999992017030812004-05170-040670FM-12+029699999V0200901N0031100600199050000199+02751+02211101111ADDAA101999999AZ101061AZ201061GA1071+006001081GA2999+999999001GE19MSL   +99999+99999GF108991071999006001999999KA1120N+02341MA1999999097761MD1999999-0011REMSYN004BUFR
0168825830999992017030900004-05170-040670FM-12+029699999V0202701N0010100600199004000199+02551+02291101011ADDAA101999999AZ101061AZ201061GA1051+006001081GA2999+999999051GA3999+999999101GE19MSL   +99999+99999GF108991051999006001999999MA1999999097651MD1999999+0041REMSYN004BUFR
0165825830999992017030912004-05170-040670FM-12+029699999V0200501N0015199999999050000199+02621+02181101131ADDAA101999999AZ101061AZ201061GA1021+006001081GA2999+999999001GE19MSL   +99999+99999GF104991021999006001999999KA1120N+02201MA1999999097761MD1999999+0001REMSYN004BUFR
0168825830999992017031000004-05170-040670FM-12+029699999V0202301N0010100600199004000199+02721+02341100921ADDAA101999999AZ101061AZ201061GA1081+006001061GA2999+999999101GA3999+999999101GE19MSL   +99999+99999GF108991081999006001999999MA1999999097561MD1999999-0091REMSYN004BUFR
0149825830999992017031012004-05170-040670FM-12+029699999V0200501N0021100600199050000199+02521+02251101071ADDAA101999999AZ101061AZ201061GA1071+006001061GE19MSL   +99999+99999GF107991071999006001999999KA1120N+02331MA1999999097711MD1999999-0051REMSYN004BUFR
0174825830999992017031100004-05170-040670FM-12+029699999V0203201N0010100300199001000199+02271+02231101131ADDAA106037031AY161061AY261061GA1081+003001061GA2999+999999101GA3999+999999101GE19MSL   +99999+99999GF108991081999003001999999MA1999999097741MD1999999+0181MW1621REMSYN004BUFR
0187825830999992017031112004-05170-040670FM-12+029699999V0200901N0010100300199020000199+02361+02261101211ADDAA124038031AY161061AY261061GA1081+003001081GA2999+999999101GA3999+999999101GE19MSL   +99999+99999GF108991081999003001999999KA1120N+02171MA1999999097801MD1999999+0091MW1031REMSYN004BUFR
0174825830999992017031200004-05170-040670FM-12+029699999V0203201N0010100600199004000199+02401+02301101151ADDAA106001031AY151061AY251061GA1081+006001061GA2999+999999101GA3999+999999101GE19MSL   +99999+99999GF108991081999006001999999MA1999999097751MD1999999+0011MW1021REMSYN004BUFR
0187825830999992017031212004-05170-040670FM-12+029699999V0201401N0005100600199050000199+02361+02311101161ADDAA124002031AY151061AY251061GA1081+006001061GA2999+999999101GA3999+999999101GE19MSL   +99999+99999GF108991081999006001999999KA1120N+02211MA1999999097761MD1999999-0041MW1021REMSYN004BUFR
0168825830999992017031300004-05170-040670FM-12+029699999V0203601N0010100600199004000199+02301+02131101001ADDAA101999999AZ101061AZ201061GA1081+006001061GA2999+999999101GA3999+999999101GE19MSL   +99999+99999GF108991081999006001999999MA1999999097601MD1999999-0151REMSYN004BUFR
0181825830999992017031312004-05170-040670FM-12+029699999V0200901N0015100600199050000199+02501+02311101261ADDAA101999999AZ101061AZ201061GA1081+006001081GA2999+999999101GA3999+999999101GE19MSL   +99999+99999GF108991081999006001999999KA1120N+02241MA1999999097861MD1999999+0101REMSYN004BUFR
0168825830999992017031400004-05170-040670FM-12+029699999V0203601N0021100600199004000199+02571+02331101001ADDAA101999999AZ101061AZ201061GA1081+006001081GA2999+999999101GA3999+999999101GE19MSL   +99999+99999GF108991081999006001999999MA1999999097621MD1999999+0021REMSYN004BUFR
0181825830999992017031412004-05170-040670FM-12+029699999V0203601N0005100600199050000199+02501+02321101201ADDAA101999999AZ101061AZ201061GA1081+006001081GA2999+999999101GA3999+999999101GE19MSL   +99999+99999GF108991081999006001999999KA1120N+02361MA1999999097821MD1999999-0041REMSYN004BUFR
0168825830999992017031500004-05170-040670FM-12+029699999V0203601N0021100600199004000199+02471+02341101011ADDAA101999999AZ101061AZ201061GA1081+006001081GA2999+999999101GA3999+999999101GE19MSL   +99999+99999GF108991081999006001999999MA1999999097631MD1999999+0011REMSYN004BUFR
0149825830999992017031512004-05170-040670FM-12+029699999V0200901N0036100600199050000199+02751+02231101061ADDAA101999999AZ101061AZ201061GA1051+006001081GE19MSL   +99999+99999GF106991051999006001999999KA1120N+02331MA1999999097701MD1999999-0121REMSYN004BUFR
0168825830999992017031600004-05170-040670FM-12+029699999V0201801N0010100600199050000199+02421+02191101111ADDAA101999999AZ101061AZ201061GA1081+006001061GA2999+999999101GA3999+999999101GE19MSL   +99999+99999GF108991081999006001999999MA1999999097741MD1999999+0111REMSYN004BUFR
0165825830999992017031612004-05170-040670FM-12+029699999V0201801N0005100600199050000199+02551+02361101161ADDAA101999999AZ101061AZ201061GA1061+006001081GA2999+999999001GE19MSL   +99999+99999GF107991061999006001999999KA1120N+02241MA1999999097711MD1999999+0081REMSYN004BUFR
0142825830999992017031700004-05170-040670FM-12+029699999V0203601N0015199999999004000199+02411+02281101061ADDAA106005031AY161061AY261061GA1021+006001081GE19MSL   +99999+99999GF102991021999006001999999MA1999999097681MD1999999-0061MW1011REMSYN004BUFR
0165825830999992017031712004-05170-040670FM-12+029699999V0203601N0010100600199050000199+02521+02271101211ADDAA124005031AZ101061AZ201061GA1061+006001081GA2999+999999001GE19MSL   +99999+99999GF107991061999006001999999KA1120N+02301MA1999999097821MD1999999+0041REMSYN004BUFR
0142825830999992017031800004-05170-040670FM-12+029699999V0202701N0010100600199004000199+02401+02351101181ADDAA106003031AY161061AY261061GA1061+006001061GE19MSL   +99999+99999GF106991061999006001999999MA1999999097791MD1999999+0111MW1021REMSYN004BUFR
0165825830999992017031812004-05170-040670FM-12+029699999V0200501N0010100600199050000199+02451+02321101331ADDAA124003031AZ101061AZ201061GA1061+006001081GA2999+999999031GE19MSL   +99999+99999GF107991061999006001999999KA1120N+02241MA1999999097931MD1999999+0111REMSYN004BUFR
0136825830999992017031900004-05170-040670FM-12+029699999V0200501N0015199999999004000199+02551+02191101241ADDAA101999999AZ101061AZ201061GA1021+006001081GE19MSL   +99999+99999GF102991021999006001999999MA1999999097851MD1999999+0061REMSYN004BUFR
0149825830999992017031912004-05170-040670FM-12+029699999V0203201N0015100600199050000199+02561+02251101361ADDAA101999999AZ101061AZ201061GA1061+006001061GE19MSL   +99999+99999GF106991061999006001999999KA1120N+02111MA1999999097981MD1999999+0051REMSYN004BUFR
0136825830999992017032000004-05170-040670FM-12+029699999V0200901N0015199999999004000199+02651+02161101141ADDAA101999999AZ101061AZ201061GA1011+006001081GE19MSL   +99999+99999GF101991011999006001999999MA1999999097771MD1999999-0081REMSYN004BUFR
0149825830999992017032012004-05170-040670FM-12+029699999V0200501N0015100600199050000199+02651+02271101301ADDAA101999999AZ101061AZ201061GA1061+006001081GE19MSL   +99999+99999GF106991061999006001999999KA1120N+02251MA1999999097921MD1999999-0061REMSYN004BUFR
0136825830999992017032100004-05170-040670FM-12+029699999V0201801N0005199999999004000199+02621+02351101081ADDAA101999999AZ101061AZ201061GA1011+006001081GE19MSL   +99999+99999GF101991011999006001999999MA1999999097721MD1999999-0051REMSYN004BUFR
0181825830999992017032112004-05170-040670FM-12+029699999V0200501N0015100600199050000199+02551+02311101321ADDAA101999999AZ101061AZ201061GA1081+006001081GA2999+999999101GA3999+999999101GE19MSL   +99999+99999GF108991081999006001999999KA1120N+02191MA1999999097931MD1999999+0011REMSYN004BUFR
0136825830999992017032200004-05170-040670FM-12+029699999V0203601N0021199999999004000199+02521+02131101251ADDAA101999999AZ101061AZ201061GA1021+006001081GE19MSL   +99999+99999GF102991021999006001999999MA1999999097871MD1999999+0151REMSYN004BUFR
0187825830999992017032212004-05170-040670FM-12+029699999V0200901N0015100600199050000199+02501+02401101511ADDAA124000631AY161061AY261061GA1081+006001081GA2999+999999101GA3999+999999101GE19MSL   +99999+99999GF108991081999006001999999KA1120N+02261MA1999999098111MD1999999+0181MW1031REMSYN004BUFR
0174825830999992017032300004-05170-040670FM-12+029699999V0202701N0015100600199004000199+02371+02281101211ADDAA106011031AY161061AY261061GA1081+006001081GA2999+999999101GA3999+999999101GE19MSL   +99999+99999GF108991081999006001999999MA1999999097821MD1999999-0051MW1021REMSYN004BUFR
0181825830999992017032312004-05170-040670FM-12+029699999V0200501N0021100600199050000199+02571+02311101301ADDAA124011031AZ101061AZ201061GA1081+006001081GA2999+999999101GA3999+999999101GE19MSL   +99999+99999GF108991081999006001999999KA1120N+02291MA1999999097911MD1999999-0201REMSYN004BUFR
0136825830999992017032400004-05170-040670FM-12+029699999V0203201N0015100600199004000199+02321+02201101121ADDAA101999999AZ101061AZ201061GA1061+006001081GE19MSL   +99999+99999GF106991061999006001999999MA1999999097741MD1999999-0081REMSYN004BUFR
0181825830999992017032412004-05170-040670FM-12+029699999V0201401N0015100600199050000199+02451+02281101351ADDAA101999999AZ101061AZ201061GA1081+006001061GA2999+999999101GA3999+999999101GE19MSL   +99999+99999GF108991081999006001999999KA1120N+02201MA1999999097951MD1999999+0041REMSYN004BUFR
0136825830999992017032500004-05170-040670FM-12+029699999V0203601N0026199999999004000199+02511+02271101091ADDAA101999999AZ101061AZ201061GA1021+006001081GE19MSL   +99999+99999GF102991021999006001999999MA1999999097711MD1999999-0031REMSYN004BUFR
0149825830999992017032512004-05170-040670FM-12+029699999V0201401N0021100600199050000199+02521+02271101181ADDAA101999999AZ101061AZ201061GA1071+006001081GE19MSL   +99999+99999GF107991071999006001999999KA1120N+02231MA1999999097801MD1999999-0151REMSYN004BUFR
0098825830999992017032600004-05170-040670FM-12+029699999V0200901N0010122000199004000199+02271+02161101141ADDAA101999999AZ101061AZ201061GF100991999999999999999999MA1999999097771MD1999999+0061REMSYN004BUFR
0149825830999992017032612004-05170-040670FM-12+029699999V0200901N0021100600199050000199+02711+02281101241ADDAA101999999AZ101061AZ201061GA1061+006001081GE19MSL   +99999+99999GF106991061999006001999999KA1120N+02191MA1999999097871MD1999999+0071REMSYN004BUFR
0136825830999992017032700004-05170-040670FM-12+029699999V0203201N0015199999999004000199+02501+02171101061ADDAA101999999AZ101061AZ201061GA1021+006001081GE19MSL   +99999+99999GF102991021999006001999999MA1999999097691MD1999999-0081REMSYN004BUFR
0165825830999992017032712004-05170-040670FM-12+029699999V0201401N0015100600199050000199+02601+02271101311ADDAA101999999AZ101061AZ201061GA1051+006001081GA2999+999999041GE19MSL   +99999+99999GF108991051999006001999999KA1120N+02301MA1999999097921MD1999999+0051REMSYN004BUFR
0168825830999992017032800004-05170-040670FM-12+029699999V0203601N0015100600199004000199+02451+02251101131ADDAA101999999AZ101061AZ201061GA1081+006001061GA2999+999999101GA3999+999999101GE19MSL   +99999+99999GF108991081999006001999999MA1999999097751MD1999999+0061REMSYN004BUFR
0149825830999992017032812004-05170-040670FM-12+029699999V0200901N0015199999999050000199+02551+02311101331ADDAA101999999AZ101061AZ201061GA1041+006001081GE19MSL   +99999+99999GF104991041999006001999999KA1120N+02261MA1999999097941MD1999999+0021REMSYN004BUFR
0165825830999992017032912004-05170-040670FM-12+029699999V0200501N0010199999999050000199+02671+02111101101ADDAA124000531AZ101061AZ201061GA1011+006001081GA2999+999999001GE19MSL   +99999+99999GF102991011999006001999999KA1120N+02281MA1999999097731MD1999999-0211REMSYN004BUFR
0149825830999992017033012004-05170-040670FM-12+029699999V0200901N0015100600199050000199+02571+02251101171ADDAA101999999AZ101061AZ201061GA1061+006001081GE19MSL   +99999+99999GF108991061999006001999999KA1120N+02341MA1999999097811MD1999999+0081REMSYN004BUFR
0174825830999992017033100004-05170-040670FM-12+029699999V0202301N0010100600199004000199+02371+02311101091ADDAA106013031AY191061AY291061GA1081+006001081GA2999+999999101GA3999+999999101GE19MSL   +99999+99999GF108991081999006001999999MA1999999097711MD1999999+0131MW1021REMSYN004BUFR
0176825830999992017033112004-05170-040670FM-12+029699999V0201401N0010100600199050000199+01261+99999101311ADDAZ101061AZ201061GA1081+006001081GA2999+999999101GA3999+999999101GE19MSL   +99999+99999GF108991081999006001999999MA1999999097911MD1810101+9999REMSYN004BUFREQDQ0122.8  2ATOD  
0174825830999992017040100004-05170-040670FM-12+029699999V0203201N0005100300199002000199+02371+02281101231ADDAA106006031AY161061AY261061GA1081+003001061GA2999+999999101GA3999+999999101GE19MSL   +99999+99999GF108991081999003001999999MA1999999097841MD1999999+0131MW1511REMSYN004BUFR
0187825830999992017040112004-05170-040670FM-12+029699999V0200901N0026100600199050000199+02601+02391101261ADDAA124013031AY151061AY251061GA1081+006001081GA2999+999999101GA3999+999999101GE19MSL   +99999+99999GF108991081999006001999999KA1120N+02331MA1999999097871MD1999999-0041MW1031REMSYN004BUFR
0136825830999992017040200004-05170-040670FM-12+029699999V0203601N0021100600199004000199+02351+02261101311ADDAA101999999AZ101061AZ201061GA1061+006001061GE19MSL   +99999+99999GF106991061999006001999999MA1999999097921MD1999999+0081REMSYN004BUFR
0149825830999992017040212004-05170-040670FM-12+029699999V0200901N0015100600199050000199+02501+02231101251ADDAA101999999AZ101061AZ201061GA1061+006001081GE19MSL   +99999+99999GF106991061999006001999999KA1120N+02231MA1999999097851MD1999999-0021REMSYN004BUFR
0174825830999992017040318004-05170-040670FM-12+029699999V0200901N0010100600199020000199+02321+02261101231ADDAA124006031AY121061AY221061GA1081+006001061GA2999+999999101GA3999+999999101GE19MSL   +99999+99999GF108991081999006001999999MA1999999097831MD1999999-0021MW1211REMSYN004BUFR
0136825830999992017040400004-05170-040670FM-12+029699999V0200501N0010199999999004000199+02501+02291101061ADDAA101999999AZ101061AZ201061GA1999+080001001GE19MSL   +99999+99999GF102991999999080001999999MA1999999097671MD1999999-0031REMSYN004BUFR
0181825830999992017040412004-05170-040670FM-12+029699999V0200501N0005100600199050000199+02471+02321101191ADDAA101999999AZ101061AZ201061GA1081+006001081GA2999+999999101GA3999+999999101GE19MSL   +99999+99999GF108991081999006001999999KA1120N+02291MA1999999097811MD1999999-0021REMSYN004BUFR
