0142829860999992017010111154-09401-038251FM-16+026999999V0201101N005119999999N009999199+02901+01901999999ADDGA1041+006101999GE19MSL   +99999+99999GF199999041999006101999999MA1101601999999REMMET051SPECI SBUF 011115Z 11010KT 9999 SCT020 29/19 Q1016=
0142829860999992017010112004-09401-038251FM-15+026999999V0201001N005110061019N009999199+03101+01801999999ADDGA1071+006101999GE19MSL   +99999+99999GF199999071999006101999999MA1101601999999REMMET051METAR SBUF 011200Z 10010KT 9999 BKN020 31/18 Q1016=
0142829860999992017010114004-09401-038251FM-15+026999999V0201001N005119999999N009999199+03301+01901999999ADDGA1041+006401999GE19MSL   +99999+99999GF199999041999006401999999MA1101501999999REMMET051METAR SBUF 011400Z 10010KT 9999 SCT021 33/19 Q1015=
0142829860999992017010116004-09401-038251FM-15+026999999V0201401N006719999999N009999199+03301+01901999999ADDGA1041+006711999GE19MSL   +99999+99999GF199999041999006711999999MA1101401999999REMMET051METAR SBUF 011600Z 14013KT 9999 SCT022 33/19 Q1014=
0142829860999992017010117004-09401-038251FM-15+026999999V0201401N005719999999N009999199+03501+01701999999ADDGA1041+006401999GE19MSL   +99999+99999GF199999041999006401999999MA1101301999999REMMET051METAR SBUF 011700Z 14011KT 9999 SCT021 35/17 Q1013=
0142829860999992017010118004-09401-038251FM-15+026999999V0201501N004619999999N009999199+03501+01701999999ADDGA1041+006711999GE19MSL   +99999+99999GF199999041999006711999999MA1101201999999REMMET051METAR SBUF 011800Z 15009KT 9999 SCT022 35/17 Q1012=
0142829860999992017010119004-09401-038251FM-15+026999999V0201301N005719999999N009999199+03501+01601999999ADDGA1041+006711999GE19MSL   +99999+99999GF199999041999006711999999MA1101101999999REMMET051METAR SBUF 011900Z 13011KT 9999 SCT022 35/16 Q1011=
0142829860999992017010119454-09401-038251FM-16+026999999V0201101N005119999999N009999199+03501+01501999999ADDGA1021+006711999GE19MSL   +99999+99999GF199999021999006711999999MA1101101999999REMMET051SPECI SBUF 011945Z 11010KT 9999 FEW022 35/15 Q1011=
0142829860999992017010211154-09401-038251FM-16+026999999V0201101N004619999999N009999199+02901+01901999999ADDGA1041+006101999GE19MSL   +99999+99999GF199999041999006101999999MA1101501999999REMMET051SPECI SBUF 021115Z 11009KT 9999 SCT020 29/19 Q1015=
0142829860999992017010212004-09401-038251FM-15+026999999V0201001N004619999999N009999199+03101+01901999999ADDGA1041+006101999GE19MSL   +99999+99999GF199999041999006101999999MA1101501999999REMMET051METAR SBUF 021200Z 10009KT 9999 SCT020 31/19 Q1015=
0142829860999992017010213004-09401-038251FM-15+026999999V0201101N004119999999N009999199+03101+01801999999ADDGA1041+006711999GE19MSL   +99999+99999GF199999041999006711999999MA1101501999999REMMET051METAR SBUF 021300Z 11008KT 9999 SCT022 31/18 Q1015=
0165829860999992017010214004-09401-038251FM-15+026999999V0201001N00411021341CN009999199+03301+01701999999ADDGA1021+006711999GA2041+021341999GE19MSL   +99999+99999GF199999021999006711999999MA1101401999999REMMET058METAR SBUF 021400Z 10008KT 9999 FEW022 SCT070 33/17 Q1014=
0142829860999992017010215004-09401-038251FM-15+026999999V0201301N003619999999N009999199+03501+01601999999ADDGA1021+006711999GE19MSL   +99999+99999GF199999021999006711999999MA1101301999999REMMET051METAR SBUF 021500Z 13007KT 9999 FEW022 35/16 Q1013=
0142829860999992017010217004-09401-038251FM-15+026999999V0201201N004619999999N009999199+03701+01301999999ADDGA1021+007011999GE19MSL   +99999+99999GF199999021999007011999999MA1101101999999REMMET051METAR SBUF 021700Z 12009KT 9999 FEW023 37/13 Q1011=
0142829860999992017010218004-09401-038251FM-15+026999999V0200901N004119999999N009999199+03701+01101999999ADDGA1021+007011999GE19MSL   +99999+99999GF199999021999007011999999MA1101001999999REMMET051METAR SBUF 021800Z 09008KT 9999 FEW023 37/11 Q1010=
0142829860999992017010219454-09401-038251FM-15+026999999V0200901N004619999999N009999199+03601+01301999999ADDGA1021+007011999GE19MSL   +99999+99999GF199999021999007011999999MA1101001999999REMMET051METAR SBUF 021945Z 09009KT 9999 FEW023 36/13 Q1010=
0142829860999992017010311154-09401-038251FM-16+026999999V0201201N002619999999N009999199+02701+02001999999ADDGA1041+006101999GE19MSL   +99999+99999GF199999041999006101999999MA1101501999999REMMET051SPECI SBUF 031115Z 12005KT 9999 SCT020 27/20 Q1015=
0142829860999992017010312004-09401-038251FM-15+026999999V0201001N002619999999N009999199+03001+01801999999ADDGA1041+006101999GE19MSL   +99999+99999GF199999041999006101999999MA1101501999999REMMET051METAR SBUF 031200Z 10005KT 9999 SCT020 30/18 Q1015=
0165829860999992017010314004-09401-038251FM-15+026999999V0201401N00361021341CN009999199+03301+01601999999ADDGA1021+006711999GA2041+021341999GE19MSL   +99999+99999GF199999021999006711999999MA1101401999999REMMET058METAR SBUF 031400Z 14007KT 9999 FEW022 SCT070 33/16 Q1014=
0072829860999992017010315004-09401-038251FM-15+026999999V0201501N003119999999Y999999999+03501+01401999999ADDMA1101301999999REMMET045METAR SBUF 031500Z 15006KT CAVOK 35/14 Q1013=
0072829860999992017010316004-09401-038251FM-15+026999999V0201001N003119999999Y999999999+03601+01101999999ADDMA1101201999999REMMET045METAR SBUF 031600Z 10006KT CAVOK 36/11 Q1012=
0165829860999992017010317004-09401-038251FM-15+026999999V0201001N00361021341CN009999199+03801+01001999999ADDGA1021+006711999GA2041+021341999GE19MSL   +99999+99999GF199999021999006711999999MA1101101999999REMMET058METAR SBUF 031700Z 10007KT 9999 FEW022 SCT070 38/10 Q1011=
0165829860999992017010318004-09401-038251FM-15+026999999V0200901N00361021341CN009999199+03701+00901999999ADDGA1021+006711999GA2041+021341999GE19MSL   +99999+99999GF199999021999006711999999MA1101001999999REMMET058METAR SBUF 031800Z 09007KT 9999 FEW022 SCT070 37/09 Q1010=
0165829860999992017010319004-09401-038251FM-15+026999999V0201101N00411021341CN009999199+03701+01101999999ADDGA1021+006711999GA2041+021341999GE19MSL   +99999+99999GF199999021999006711999999MA1101001999999REMMET058METAR SBUF 031900Z 11008KT 9999 FEW022 SCT070 37/11 Q1010=
0165829860999992017010320004-09401-038251FM-15+026999999V0201101N00511021341CN009999199+03601+01101999999ADDGA1021+006711999GA2041+021341999GE19MSL   +99999+99999GF199999021999006711999999MA1101001999999REMMET058METAR SBUF 032000Z 11010KT 9999 FEW022 SCT070 36/11 Q1010=
0165829860999992017010320454-09401-038251FM-16+026999999V0201201N00511021341CN009999199+03501+01401999999ADDGA1021+006711999GA2041+021341999GE19MSL   +99999+99999GF199999021999006711999999MA1101001999999REMMET058SPECI SBUF 032045Z 12010KT 9999 FEW022 SCT070 35/14 Q1010=
0142829860999992017010412004-09401-038251FM-15+026999999V0200701N004610061019N009999199+03101+01601999999ADDGA1071+006101999GE19MSL   +99999+99999GF199999071999006101999999MA1101601999999REMMET051METAR SBUF 041200Z 07009KT 9999 BKN020 31/16 Q1016=
0142829860999992017010413004-09401-038251FM-15+026999999V0200401N003119999999N009999199+03201+01601999999ADDGA1041+006711999GE19MSL   +99999+99999GF199999041999006711999999MA1101601999999REMMET051METAR SBUF 041300Z 04006KT 9999 SCT022 32/16 Q1016=
0142829860999992017010415004-09401-038251FM-15+026999999V0200801N003619999999N009999199+03601+01501999999ADDGA1041+006401999GE19MSL   +99999+99999GF199999041999006401999999MA1101401999999REMMET051METAR SBUF 041500Z 08007KT 9999 SCT021 36/15 Q1014=
0142829860999992017010416004-09401-038251FM-15+026999999V0201201N004119999999N009999199+03701+01401999999ADDGA1041+006711999GE19MSL   +99999+99999GF199999041999006711999999MA1101301999999REMMET051METAR SBUF 041600Z 12008KT 9999 SCT022 37/14 Q1013=
0142829860999992017010418004-09401-038251FM-15+026999999V0201201N005119999999N009999199+03701+01301999999ADDGA1041+006711999GE19MSL   +99999+99999GF199999041999006711999999MA1101201999999REMMET051METAR SBUF 041800Z 12010KT 9999 SCT022 37/13 Q1012=
0142829860999992017010419004-09401-038251FM-15+026999999V0201201N005119999999N009999199+03701+01201999999ADDGA1021+006711999GE19MSL   +99999+99999GF199999021999006711999999MA1101101999999REMMET051METAR SBUF 041900Z 12010KT 9999 FEW022 37/12 Q1011=
0142829860999992017010419454-09401-038251FM-16+026999999V0201101N005119999999N009999199+03701+01301999999ADDGA1021+006711999GE19MSL   +99999+99999GF199999021999006711999999MA1101101999999REMMET051SPECI SBUF 041945Z 11010KT 9999 FEW022 37/13 Q1011=
0142829860999992017010512004-09401-038251FM-15+026999999V0201001N006210061019N009999199+02901+01801999999ADDGA1071+006101999GE19MSL   +99999+99999GF199999071999006101999999MA1101701999999REMMET051METAR SBUF 051200Z 10012KT 9999 BKN020 29/18 Q1017=
0142829860999992017010516004-09401-038251FM-15+026999999V0200901N005119999999N009999199+03501+01401999999ADDGA1041+006401999GE19MSL   +99999+99999GF199999041999006401999999MA1101401999999REMMET051METAR SBUF 051600Z 09010KT 9999 SCT021 35/14 Q1014=
0142829860999992017010517004-09401-038251FM-15+026999999V0201001N005719999999N009999199+03601+01401999999ADDGA1041+006711999GE19MSL   +99999+99999GF199999041999006711999999MA1101301999999REMMET051METAR SBUF 051700Z 10011KT 9999 SCT022 36/14 Q1013=
0142829860999992017010518004-09401-038251FM-15+026999999V0200901N006719999999N009999199+03601+01301999999ADDGA1041+006711999GE19MSL   +99999+99999GF199999041999006711999999MA1101201999999REMMET051METAR SBUF 051800Z 09013KT 9999 SCT022 36/13 Q1012=
0142829860999992017010519004-09401-038251FM-15+026999999V0201101N007219999999N009999199+03501+01201999999ADDGA1041+006711999GE19MSL   +99999+99999GF199999041999006711999999MA1101201999999REMMET051METAR SBUF 051900Z 11014KT 9999 SCT022 35/12 Q1012=
0142829860999992017010519454-09401-038251FM-16+026999999V0201001N007219999999N009999199+03501+01201999999ADDGA1041+006711999GE19MSL   +99999+99999GF199999041999006711999999MA1101201999999REMMET051SPECI SBUF 051945Z 10014KT 9999 SCT022 35/12 Q1012=
0165829860999992017010611154-09401-038251FM-16+026999999V0201201N00621024381CN009999199+02701+01901999999ADDGA1041+006101999GA2041+024381999GE19MSL   +99999+99999GF199999041999006101999999MA1101601999999REMMET058SPECI SBUF 061115Z 12012KT 9999 SCT020 SCT080 27/19 Q1016=
0165829860999992017010612004-09401-038251FM-15+026999999V0200901N00571021341CN009999199+03001+01801999999ADDGA1041+006101999GA2041+021341999GE19MSL   +99999+99999GF199999041999006101999999MA1101601999999REMMET058METAR SBUF 061200Z 09011KT 9999 SCT020 SCT070 30/18 Q1016=
0165829860999992017010613004-09401-038251FM-15+026999999V0201301N00621021341CN009999199+03101+01601999999ADDGA1041+006101999GA2041+021341999GE19MSL   +99999+99999GF199999041999006101999999MA1101601999999REMMET058METAR SBUF 061300Z 13012KT 9999 SCT020 SCT070 31/16 Q1016=
0165829860999992017010614004-09401-038251FM-15+026999999V0201301N00621021341CN009999199+03301+01601999999ADDGA1041+006711999GA2041+021341999GE19MSL   +99999+99999GF199999041999006711999999MA1101501999999REMMET058METAR SBUF 061400Z 13012KT 9999 SCT022 SCT070 33/16 Q1015=
0165829860999992017010615004-09401-038251FM-15+026999999V0201301N00571024381CN009999199+03201+01601999999ADDGA1041+006711999GA2041+024381999GE19MSL   +99999+99999GF199999041999006711999999MA1101401999999REMMET058METAR SBUF 061500Z 13011KT 9999 SCT022 SCT080 32/16 Q1014=
0165829860999992017010616004-09401-038251FM-15+026999999V0201301N005110243819N009999199+03401+01401999999ADDGA1041+006711999GA2071+024381999GE19MSL   +99999+99999GF199999041999006711999999MA1101301999999REMMET058METAR SBUF 061600Z 13010KT 9999 SCT022 BKN080 34/14 Q1013=
0165829860999992017010617004-09401-038251FM-15+026999999V0201501N00511024381CN009999199+03501+01301999999ADDGA1041+006711999GA2041+024381999GE19MSL   +99999+99999GF199999041999006711999999MA1101201999999REMMET058METAR SBUF 061700Z 15010KT 9999 SCT022 SCT080 35/13 Q1012=
0165829860999992017010619004-09401-038251FM-15+026999999V0201501N00621024381CN009999199+03401+01201999999ADDGA1041+007321999GA2041+024381999GE19MSL   +99999+99999GF199999041999007321999999MA1101101999999REMMET058METAR SBUF 061900Z 15012KT 9999 SCT024 SCT080 34/12 Q1011=
0165829860999992017010619454-09401-038251FM-16+026999999V0201201N007210243819N009999199+03401+01101999999ADDGA1021+007621999GA2071+024381999GE19MSL   +99999+99999GF199999021999007621999999MA1101101999999REMMET058SPECI SBUF 061945Z 12014KT 9999 FEW025 BKN080 34/11 Q1011=
0142829860999992017010711154-09401-038251FM-16+026999999V0201301N004119999999N009999199+02501+01901999999ADDGA1041+005791999GE19MSL   +99999+99999GF199999041999005791999999MA1101601999999REMMET051SPECI SBUF 071115Z 13008KT 9999 SCT019 25/19 Q1016=
0142829860999992017010712004-09401-038251FM-15+026999999V0201001N005119999999N009999199+02901+01901999999ADDGA1041+005791999GE19MSL   +99999+99999GF199999041999005791999999MA1101601999999REMMET051METAR SBUF 071200Z 10010KT 9999 SCT019 29/19 Q1016=
0142829860999992017010713004-09401-038251FM-15+026999999V0201301N003619999999N009999199+03001+01801999999ADDGA1041+006101999GE19MSL   +99999+99999GF199999041999006101999999MA1101601999999REMMET051METAR SBUF 071300Z 13007KT 9999 SCT020 30/18 Q1016=
0142829860999992017010714004-09401-038251FM-15+026999999V0200901N004119999999N009999199+03101+01801999999ADDGA1021+006101999GE19MSL   +99999+99999GF199999021999006101999999MA1101501999999REMMET051METAR SBUF 071400Z 09008KT 9999 FEW020 31/18 Q1015=
0142829860999992017010715004-09401-038251FM-15+026999999V0201401N005119999999N009999199+03401+01601999999ADDGA1041+006711999GE19MSL   +99999+99999GF199999041999006711999999MA1101401999999REMMET051METAR SBUF 071500Z 14010KT 9999 SCT022 34/16 Q1014=
0142829860999992017010716004-09401-038251FM-15+026999999V0201001N004119999999N009999199+03501+01601999999ADDGA1041+006711999GE19MSL   +99999+99999GF199999041999006711999999MA1101301999999REMMET051METAR SBUF 071600Z 10008KT 9999 SCT022 35/16 Q1013=
0142829860999992017010717004-09401-038251FM-15+026999999V0201401N007219999999N009999199+03501+01601999999ADDGA1041+006711999GE19MSL   +99999+99999GF199999041999006711999999MA1101201999999REMMET051METAR SBUF 071700Z 14014KT 9999 SCT022 35/16 Q1012=
0165829860999992017010719004-09401-038251FM-15+026999999V0201701N00621024381CN009999199+03101+01801999999ADDGA1021+006711999GA2041+024381999GE19MSL   +99999+99999GF199999021999006711999999MA1101201999999REMMET058METAR SBUF 071900Z 17012KT 9999 FEW022 SCT080 31/18 Q1012=
0165829860999992017010719454-09401-038251FM-16+026999999V0201201N00881024381CN009999199+03001+01801999999ADDGA1021+006711999GA2041+024381999GE19MSL   +99999+99999GF199999021999006711999999MA1101201999999REMMET058SPECI SBUF 071945Z 12017KT 9999 FEW022 SCT080 30/18 Q1012=
0142829860999992017010811154-09401-038251FM-16+026999999V0201101N005119999999N009999199+02701+01801999999ADDGA1041+005791999GE19MSL   +99999+99999GF199999041999005791999999MA1101501999999REMMET051SPECI SBUF 081115Z 11010KT 9999 SCT019 27/18 Q1015=
0142829860999992017010812004-09401-038251FM-15+026999999V0201001N005719999999N009999199+03001+01701999999ADDGA1041+005791999GE19MSL   +99999+99999GF199999041999005791999999MA1101501999999REMMET051METAR SBUF 081200Z 10011KT 9999 SCT019 30/17 Q1015=
0142829860999992017010813004-09401-038251FM-15+026999999V0201001N005719999999N009999199+03101+01501999999ADDGA1041+006401999GE19MSL   +99999+99999GF199999041999006401999999MA1101501999999REMMET051METAR SBUF 081300Z 10011KT 9999 SCT021 31/15 Q1015=
0142829860999992017010815004-09401-038251FM-15+026999999V0201101N004619999999N009999199+03401+01401999999ADDGA1021+006711999GE19MSL   +99999+99999GF199999021999006711999999MA1101301999999REMMET051METAR SBUF 081500Z 11009KT 9999 FEW022 34/14 Q1013=
0142829860999992017010816004-09401-038251FM-15+026999999V0201001N004619999999N009999199+03601+01301999999ADDGA1041+006711999GE19MSL   +99999+99999GF199999041999006711999999MA1101101999999REMMET051METAR SBUF 081600Z 10009KT 9999 SCT022 36/13 Q1011=
0142829860999992017010817004-09401-038251FM-15+026999999V0201101N005119999999N009999199+03501+01301999999ADDGA1041+007011999GE19MSL   +99999+99999GF199999041999007011999999MA1101001999999REMMET051METAR SBUF 081700Z 11010KT 9999 SCT023 35/13 Q1010=
0142829860999992017010818004-09401-038251FM-15+026999999V0201401N003119999999N009999199+03601+01301999999ADDGA1041+007011999GE19MSL   +99999+99999GF199999041999007011999999MA1101001999999REMMET051METAR SBUF 081800Z 14006KT 9999 SCT023 36/13 Q1010=
0142829860999992017010819004-09401-038251FM-15+026999999V0201201N002619999999N009999199+03601+01201999999ADDGA1041+007011999GE19MSL   +99999+99999GF199999041999007011999999MA1100901999999REMMET051METAR SBUF 081900Z 12005KT 9999 SCT023 36/12 Q1009=
0142829860999992017010819454-09401-038251FM-16+026999999V0201301N004119999999N009999199+03401+01201999999ADDGA1041+007011999GE19MSL   +99999+99999GF199999041999007011999999MA1101001999999REMMET051SPECI SBUF 081945Z 13008KT 9999 SCT023 34/12 Q1010=
0142829860999992017010911154-09401-038251FM-16+026999999V0201001N005110057919N009999199+02801+02001999999ADDGA1071+005791999GE19MSL   +99999+99999GF199999071999005791999999MA1101501999999REMMET051SPECI SBUF 091115Z 10010KT 9999 BKN019 28/20 Q1015=
0142829860999992017010912004-09401-038251FM-15+026999999V0201101N004110057919N009999199+02901+01901999999ADDGA1071+005791999GE19MSL   +99999+99999GF199999071999005791999999MA1101501999999REMMET051METAR SBUF 091200Z 11008KT 9999 BKN019 29/19 Q1015=
0142829860999992017010913004-09401-038251FM-15+026999999V0201201N004119999999N009999199+03101+01801999999ADDGA1041+005791999GE19MSL   +99999+99999GF199999041999005791999999MA1101501999999REMMET051METAR SBUF 091300Z 12008KT 9999 SCT019 31/18 Q1015=
0142829860999992017010914004-09401-038251FM-15+026999999V0201401N004119999999N009999199+03301+01701999999ADDGA1021+006401999GE19MSL   +99999+99999GF199999021999006401999999MA1101401999999REMMET051METAR SBUF 091400Z 14008KT 9999 FEW021 33/17 Q1014=
0142829860999992017010915004-09401-038251FM-15+026999999V0201001N003619999999N009999199+03501+01701999999ADDGA1021+006401999GE19MSL   +99999+99999GF199999021999006401999999MA1101301999999REMMET051METAR SBUF 091500Z 10007KT 9999 FEW021 35/17 Q1013=
0142829860999992017010916004-09401-038251FM-15+026999999V0200901N003619999999N009999199+03501+01601999999ADDGA1021+006401999GE19MSL   +99999+99999GF199999021999006401999999MA1101201999999REMMET051METAR SBUF 091600Z 09007KT 9999 FEW021 35/16 Q1012=
0142829860999992017010917004-09401-038251FM-15+026999999V0201701N003119999999N009999199+03601+01401999999ADDGA1041+006711999GE19MSL   +99999+99999GF199999041999006711999999MA1101001999999REMMET051METAR SBUF 091700Z 17006KT 9999 SCT022 36/14 Q1010=
0142829860999992017010919004-09401-038251FM-15+026999999V0200801N003119999999N009999199+03701+01301999999ADDGA1021+006711999GE19MSL   +99999+99999GF199999021999006711999999MA1100901999999REMMET051METAR SBUF 091900Z 08006KT 9999 FEW022 37/13 Q1009=
0142829860999992017010920004-09401-038251FM-15+026999999V0201401N003619999999N009999199+03601+01301999999ADDGA1021+006401999GE19MSL   +99999+99999GF199999021999006401999999MA1100901999999REMMET051METAR SBUF 092000Z 14007KT 9999 FEW021 36/13 Q1009=
0072829860999992017010922004-09401-038251FM-15+026999999V0201001N010319999999Y999999999+03101+01901999999ADDMA1101101999999REMMET045METAR SBUF 092200Z 10020KT CAVOK 31/19 Q1011=
0072829860999992017010922454-09401-038251FM-16+026999999V0201101N008819999999Y999999999+02901+02001999999ADDMA1101201999999REMMET045SPECI SBUF 092245Z 11017KT CAVOK 29/20 Q1012=
0142829860999992017011011154-09401-038251FM-16+026999999V0201501N003619999999N009999199+02901+02001999999ADDGA1041+006101999GE19MSL   +99999+99999GF199999041999006101999999MA1101301999999REMMET051SPECI SBUF 101115Z 15007KT 9999 SCT020 29/20 Q1013=
0142829860999992017011012004-09401-038251FM-15+026999999V0201301N003119999999N009999199+03101+02001999999ADDGA1021+006101999GE19MSL   +99999+99999GF199999021999006101999999MA1101301999999REMMET051METAR SBUF 101200Z 13006KT 9999 FEW020 31/20 Q1013=
0142829860999992017011015004-09401-038251FM-15+026999999V0201201N004119999999N009999199+03601+01601999999ADDGA1041+006711999GE19MSL   +99999+99999GF199999041999006711999999MA1101101999999REMMET051METAR SBUF 101500Z 12008KT 9999 SCT022 36/16 Q1011=
0142829860999992017011018004-09401-038251FM-15+026999999V0200801N004119999999N009999199+03801+01401999999ADDGA1041+007011999GE19MSL   +99999+99999GF199999041999007011999999MA1100801999999REMMET051METAR SBUF 101800Z 08008KT 9999 SCT023 38/14 Q1008=
0142829860999992017011019004-09401-038251FM-15+026999999V0201201N004619999999N009999199+03801+01401999999ADDGA1041+007011999GE19MSL   +99999+99999GF199999041999007011999999MA1100701999999REMMET051METAR SBUF 101900Z 12009KT 9999 SCT023 38/14 Q1007=
0165829860999992017011019454-09401-038251FM-16+026999999V0201101N00511024381CN009999199+03601+01401999999ADDGA1021+007011999GA2041+024381999GE19MSL   +99999+99999GF199999021999007011999999MA1100801999999REMMET058SPECI SBUF 101945Z 11010KT 9999 FEW023 SCT080 36/14 Q1008=
0142829860999992017011111154-09401-038251FM-16+026999999V0200901N003119999999N009999199+02901+01901999999ADDGA1021+006101999GE19MSL   +99999+99999GF199999021999006101999999MA1101501999999REMMET051SPECI SBUF 111115Z 09006KT 9999 FEW020 29/19 Q1015=
0142829860999992017011112004-09401-038251FM-15+026999999V0200701N003619999999N009999199+03101+01801999999ADDGA1021+006711999GE19MSL   +99999+99999GF199999021999006711999999MA1101501999999REMMET051METAR SBUF 111200Z 07007KT 9999 FEW022 31/18 Q1015=
0142829860999992017011113004-09401-038251FM-15+026999999V0200801N003119999999N009999199+03201+01701999999ADDGA1021+006711999GE19MSL   +99999+99999GF199999021999006711999999MA1101401999999REMMET051METAR SBUF 111300Z 08006KT 9999 FEW022 32/17 Q1014=
0142829860999992017011116004-09401-038251FM-15+026999999V0201901N003119999999N009999199+03601+01401999999ADDGA1021+006401999GE19MSL   +99999+99999GF199999021999006401999999MA1101101999999REMMET051METAR SBUF 111600Z 19006KT 9999 FEW021 36/14 Q1011=
0142829860999992017011117004-09401-038251FM-15+026999999V0201601N003119999999N009999199+03601+01401999999ADDGA1041+006401999GE19MSL   +99999+99999GF199999041999006401999999MA1101001999999REMMET051METAR SBUF 111700Z 16006KT 9999 SCT021 36/14 Q1010=
0165829860999992017011118004-09401-038251FM-15+026999999V0200801N004110304819N009999199+03601+01301999999ADDGA1021+006401999GA2071+030481999GE19MSL   +99999+99999GF199999021999006401999999MA1100901999999REMMET058METAR SBUF 111800Z 08008KT 9999 FEW021 BKN100 36/13 Q1009=
0165829860999992017011119004-09401-038251FM-15+026999999V0200801N003610304819N009999199+03501+01301999999ADDGA1021+006401999GA2071+030481999GE19MSL   +99999+99999GF199999021999006401999999MA1100901999999REMMET058METAR SBUF 111900Z 08007KT 9999 FEW021 BKN100 35/13 Q1009=
0165829860999992017011119454-09401-038251FM-16+026999999V0200801N004110304819N009999199+03401+01401999999ADDGA1021+006101999GA2071+030481999GE19MSL   +99999+99999GF199999021999006101999999MA1100901999999REMMET058SPECI SBUF 111945Z 08008KT 9999 FEW020 BKN100 34/14 Q1009=
0142829860999992017011211154-09401-038251FM-16+026999999V0201601N002619999999N009999199+02901+02001999999ADDGA1041+005791999GE19MSL   +99999+99999GF199999041999005791999999MA1101401999999REMMET051SPECI SBUF 121115Z 16005KT 9999 SCT019 29/20 Q1014=
0072829860999992017011212004-09401-038251FM-15+026999999V0201301N002619999999Y999999999+03101+02001999999ADDMA1101401999999REMMET045METAR SBUF 121200Z 13005KT CAVOK 31/20 Q1014=
0142829860999992017011214004-09401-038251FM-15+026999999V0201301N003119999999N009999199+03501+01701999999ADDGA1021+006101999GE19MSL   +99999+99999GF199999021999006101999999MA1101301999999REMMET051METAR SBUF 121400Z 13006KT 9999 FEW020 35/17 Q1013=
0142829860999992017011215004-09401-038251FM-15+026999999V0201101N003619999999N009999199+03601+01601999999ADDGA1041+006401999GE19MSL   +99999+99999GF199999041999006401999999MA1101301999999REMMET051METAR SBUF 121500Z 11007KT 9999 SCT021 36/16 Q1013=
0142829860999992017011216004-09401-038251FM-15+026999999V0201501N003119999999N009999199+03701+01601999999ADDGA1041+006401999GE19MSL   +99999+99999GF199999041999006401999999MA1101201999999REMMET051METAR SBUF 121600Z 15006KT 9999 SCT021 37/16 Q1012=
0142829860999992017011218004-09401-038251FM-15+026999999V0201201N003619999999N009999199+03601+01501999999ADDGA1041+006711999GE19MSL   +99999+99999GF199999041999006711999999MA1101001999999REMMET051METAR SBUF 121800Z 12007KT 9999 SCT022 36/15 Q1010=
0142829860999992017011219004-09401-038251FM-15+026999999V0201201N004619999999N009999199+03601+01501999999ADDGA1041+007011999GE19MSL   +99999+99999GF199999041999007011999999MA1100901999999REMMET051METAR SBUF 121900Z 12009KT 9999 SCT023 36/15 Q1009=
0142829860999992017011221004-09401-038251FM-15+026999999V0201101N005119999999N009999199+03401+01501999999ADDGA1021+007011999GE19MSL   +99999+99999GF199999021999007011999999MA1100901999999REMMET051METAR SBUF 122100Z 11010KT 9999 FEW023 34/15 Q1009=
0142829860999992017011222004-09401-038251FM-15+026999999V0201101N005119999999N009999199+03301+01601999999ADDGA1021+007011999GE19MSL   +99999+99999GF199999021999007011999999MA1101001999999REMMET051METAR SBUF 122200Z 11010KT 9999 FEW023 33/16 Q1010=
0072829860999992017011223004-09401-038251FM-15+026999999V0201101N008219999999Y999999999+03101+01901999999ADDMA1101101999999REMMET045METAR SBUF 122300Z 11016KT CAVOK 31/19 Q1011=
0072829860999992017011300004-09401-038251FM-15+026999999V0201201N008819999999Y999999999+02901+01901999999ADDMA1101201999999REMMET045METAR SBUF 130000Z 12017KT CAVOK 29/19 Q1012=
0072829860999992017011301004-09401-038251FM-15+026999999V0201201N006719999999Y999999999+02801+02001999999ADDMA1101301999999REMMET045METAR SBUF 130100Z 12013KT CAVOK 28/20 Q1013=
0142829860999992017011312004-09401-038251FM-15+026999999V0201001N005110057919N009999199+02801+02001999999ADDGA1071+005791999GE19MSL   +99999+99999GF199999071999005791999999MA1101401999999REMMET051METAR SBUF 131200Z 10010KT 9999 BKN019 28/20 Q1014=
0142829860999992017011317004-09401-038251FM-15+026999999V0201201N004619999999N009999199+03501+01701999999ADDGA1041+006401999GE19MSL   +99999+99999GF199999041999006401999999MA1101101999999REMMET051METAR SBUF 131700Z 12009KT 9999 SCT021 35/17 Q1011=
0142829860999992017011318004-09401-038251FM-15+026999999V0201201N004619999999N009999199+03401+01601999999ADDGA1041+006401999GE19MSL   +99999+99999GF199999041999006401999999MA1101001999999REMMET051METAR SBUF 131800Z 12009KT 9999 SCT021 34/16 Q1010=
0142829860999992017011319004-09401-038251FM-15+026999999V0201101N005119999999N009999199+03601+01401999999ADDGA1041+006711999GE19MSL   +99999+99999GF199999041999006711999999MA1100901999999REMMET051METAR SBUF 131900Z 11010KT 9999 SCT022 36/14 Q1009=
0142829860999992017011319454-09401-038251FM-16+026999999V0201101N005719999999N009999199+03401+01501999999ADDGA1041+006401999GE19MSL   +99999+99999GF199999041999006401999999MA1100901999999REMMET051SPECI SBUF 131945Z 11011KT 9999 SCT021 34/15 Q1009=
0142829860999992017011412004-09401-038251FM-15+026999999V0200901N003619999999N009999199+03001+01801999999ADDGA1041+006101999GE19MSL   +99999+99999GF199999041999006101999999MA1101301999999REMMET051METAR SBUF 141200Z 09007KT 9999 SCT020 30/18 Q1013=
0142829860999992017011413004-09401-038251FM-15+026999999V0200901N004119999999N009999199+03201+01601999999ADDGA1041+006101999GE19MSL   +99999+99999GF199999041999006101999999MA1101301999999REMMET051METAR SBUF 141300Z 09008KT 9999 SCT020 32/16 Q1013=
0165829860999992017011415004-09401-038251FM-15+026999999V0201101N00361030481CN009999199+03201+01601999999ADDGA1021+006711999GA2041+030481999GE19MSL   +99999+99999GF199999021999006711999999MA1101201999999REMMET058METAR SBUF 141500Z 11007KT 9999 FEW022 SCT100 32/16 Q1012=
0165829860999992017011417004-09401-038251FM-15+026999999V0201401N00211030481CN009999199+03501+01501999999ADDGA1021+007011999GA2041+030481999GE19MSL   +99999+99999GF199999021999007011999999MA1100901999999REMMET058METAR SBUF 141700Z 14004KT 9999 FEW023 SCT100 35/15 Q1009=
0165829860999992017011418004-09401-038251FM-15+026999999V0201401N00361030481CN009999199+03301+01501999999ADDGA1021+007011999GA2041+030481999GE19MSL   +99999+99999GF199999021999007011999999MA1100901999999REMMET058METAR SBUF 141800Z 14007KT 9999 FEW023 SCT100 33/15 Q1009=
0165829860999992017011419004-09401-038251FM-15+026999999V0201101N00311030481CN009999199+03301+01501999999ADDGA1021+007011999GA2041+030481999GE19MSL   +99999+99999GF199999021999007011999999MA1100801999999REMMET058METAR SBUF 141900Z 11006KT 9999 FEW023 SCT100 33/15 Q1008=
0165829860999992017011419454-09401-038251FM-16+026999999V0201301N00311030481CN009999199+03301+01401999999ADDGA1021+007011999GA2041+030481999GE19MSL   +99999+99999GF199999021999007011999999MA1100801999999REMMET058SPECI SBUF 141945Z 13006KT 9999 FEW023 SCT100 33/14 Q1008=
0142829860999992017011511154-09401-038251FM-16+026999999V0201501N003619999999N009999199+02901+02101999999ADDGA1041+005791999GE19MSL   +99999+99999GF199999041999005791999999MA1101401999999REMMET051SPECI SBUF 151115Z 15007KT 9999 SCT019 29/21 Q1014=
0142829860999992017011512004-09401-038251FM-15+026999999V0201001N003119999999N009999199+03101+02001999999ADDGA1041+006101999GE19MSL   +99999+99999GF199999041999006101999999MA1101401999999REMMET051METAR SBUF 151200Z 10006KT 9999 SCT020 31/20 Q1014=
0142829860999992017011513004-09401-038251FM-15+026999999V0201201N004119999999N009999199+03101+01901999999ADDGA1041+006101999GE19MSL   +99999+99999GF199999041999006101999999MA1101401999999REMMET051METAR SBUF 151300Z 12008KT 9999 SCT020 31/19 Q1014=
0142829860999992017011514004-09401-038251FM-15+026999999V0201201N003119999999N009999199+03301+01801999999ADDGA1041+006101999GE19MSL   +99999+99999GF199999041999006101999999MA1101301999999REMMET051METAR SBUF 151400Z 12006KT 9999 SCT020 33/18 Q1013=
0142829860999992017011515004-09401-038251FM-15+026999999V0201201N003610064019N009999199+03401+01801999999ADDGA1071+006401999GE19MSL   +99999+99999GF199999071999006401999999MA1101201999999REMMET051METAR SBUF 151500Z 12007KT 9999 BKN021 34/18 Q1012=
0142829860999992017011516004-09401-038251FM-15+026999999V0201501N003610064019N009999199+03401+01701999999ADDGA1071+006401999GE19MSL   +99999+99999GF199999071999006401999999MA1101101999999REMMET051METAR SBUF 151600Z 15007KT 9999 BKN021 34/17 Q1011=
0142829860999992017011517004-09401-038251FM-15+026999999V0201501N003119999999N009999199+03601+01601999999ADDGA1041+006711999GE19MSL   +99999+99999GF199999041999006711999999MA1101001999999REMMET051METAR SBUF 151700Z 15006KT 9999 SCT022 36/16 Q1010=
0142829860999992017011518004-09401-038251FM-15+026999999V0201501N003119999999N009999199+03601+01501999999ADDGA1021+006711999GE19MSL   +99999+99999GF199999021999006711999999MA1100901999999REMMET051METAR SBUF 151800Z 15006KT 9999 FEW022 36/15 Q1009=
0142829860999992017011519004-09401-038251FM-15+026999999V0201301N005119999999N009999199+03601+01401999999ADDGA1021+006711999GE19MSL   +99999+99999GF199999021999006711999999MA1100901999999REMMET051METAR SBUF 151900Z 13010KT 9999 FEW022 36/14 Q1009=
0142829860999992017011519454-09401-038251FM-16+026999999V0201401N004619999999N009999199+03601+01401999999ADDGA1021+006711999GE19MSL   +99999+99999GF199999021999006711999999MA1100901999999REMMET051SPECI SBUF 151945Z 14009KT 9999 FEW022 36/14 Q1009=
0165829860999992017011612004-09401-038251FM-15+026999999V0201101N00461021341CN009999199+02901+01901999999ADDGA1041+006101999GA2041+021341999GE19MSL   +99999+99999GF199999041999006101999999MA1101401999999REMMET058METAR SBUF 161200Z 11009KT 9999 SCT020 SCT070 29/19 Q1014=
0142829860999992017011614004-09401-038251FM-15+026999999V0201101N005119999999N009999199+03201+01701999999ADDGA1041+006711999GE19MSL   +99999+99999GF199999041999006711999999MA1101301999999REMMET051METAR SBUF 161400Z 11010KT 9999 SCT022 32/17 Q1013=
0142829860999992017011615004-09401-038251FM-15+026999999V0201301N005119999999N009999199+03301+01501999999ADDGA1041+006401999GE19MSL   +99999+99999GF199999041999006401999999MA1101201999999REMMET051METAR SBUF 161500Z 13010KT 9999 SCT021 33/15 Q1012=
0142829860999992017011616004-09401-038251FM-15+026999999V0201201N004619999999N009999199+03401+01501999999ADDGA1041+006401999GE19MSL   +99999+99999GF199999041999006401999999MA1101101999999REMMET051METAR SBUF 161600Z 12009KT 9999 SCT021 34/15 Q1011=
0142829860999992017011617004-09401-038251FM-15+026999999V0201301N004619999999N009999199+03601+01301999999ADDGA1021+006711999GE19MSL   +99999+99999GF199999021999006711999999MA1101001999999REMMET051METAR SBUF 161700Z 13009KT 9999 FEW022 36/13 Q1010=
0142829860999992017011618004-09401-038251FM-15+026999999V0201201N005119999999N009999199+03601+01201999999ADDGA1021+006711999GE19MSL   +99999+99999GF199999021999006711999999MA1100901999999REMMET051METAR SBUF 161800Z 12010KT 9999 FEW022 36/12 Q1009=
0142829860999992017011619004-09401-038251FM-15+026999999V0201201N004619999999N009999199+03601+01201999999ADDGA1021+006711999GE19MSL   +99999+99999GF199999021999006711999999MA1100901999999REMMET051METAR SBUF 161900Z 12009KT 9999 FEW022 36/12 Q1009=
0142829860999992017011619454-09401-038251FM-16+026999999V0201201N006219999999N009999199+03501+01201999999ADDGA1021+006711999GE19MSL   +99999+99999GF199999021999006711999999MA1100901999999REMMET051SPECI SBUF 161945Z 12012KT 9999 FEW022 35/12 Q1009=
0142829860999992017011712004-09401-038251FM-15+026999999V0201001N005710061019N009999199+02901+01801999999ADDGA1071+006101999GE19MSL   +99999+99999GF199999071999006101999999MA1101501999999REMMET051METAR SBUF 171200Z 10011KT 9999 BKN020 29/18 Q1015=
0142829860999992017011714004-09401-038251FM-15+026999999V0201101N003619999999N009999199+03201+01501999999ADDGA1041+006711999GE19MSL   +99999+99999GF199999041999006711999999MA1101301999999REMMET051METAR SBUF 171400Z 11007KT 9999 SCT022 32/15 Q1013=
0142829860999992017011715004-09401-038251FM-15+026999999V0200801N002619999999N009999199+03401+01501999999ADDGA1041+006401999GE19MSL   +99999+99999GF199999041999006401999999MA1101201999999REMMET051METAR SBUF 171500Z 08005KT 9999 SCT021 34/15 Q1012=
0142829860999992017011716004-09401-038251FM-15+026999999V0201301N003119999999N009999199+03501+01401999999ADDGA1041+006711999GE19MSL   +99999+99999GF199999041999006711999999MA1101201999999REMMET051METAR SBUF 171600Z 13006KT 9999 SCT022 35/14 Q1012=
0142829860999992017011717004-09401-038251FM-15+026999999V0201101N002119999999N009999199+03601+01401999999ADDGA1041+006711999GE19MSL   +99999+99999GF199999041999006711999999MA1101001999999REMMET051METAR SBUF 171700Z 11004KT 9999 SCT022 36/14 Q1010=
0142829860999992017011718004-09401-038251FM-15+026999999V0200701N002619999999N009999199+03601+01301999999ADDGA1041+006711999GE19MSL   +99999+99999GF199999041999006711999999MA1101001999999REMMET051METAR SBUF 171800Z 07005KT 9999 SCT022 36/13 Q1010=
0142829860999992017011720004-09401-038251FM-15+026999999V0201201N003619999999N009999199+03501+01101999999ADDGA1021+006711999GE19MSL   +99999+99999GF199999021999006711999999MA1100901999999REMMET051METAR SBUF 172000Z 12007KT 9999 FEW022 35/11 Q1009=
0142829860999992017011720204-09401-038251FM-16+026999999V0201201N004619999999N009999199+03501+01201999999ADDGA1021+006711999GE19MSL   +99999+99999GF199999021999006711999999MA1100901999999REMMET051SPECI SBUF 172020Z 12009KT 9999 FEW022 35/12 Q1009=
0142829860999992017011812004-09401-038251FM-15+026999999V0201001N005110061019N009999199+02901+01901999999ADDGA1071+006101999GE19MSL   +99999+99999GF199999071999006101999999MA1101401999999REMMET051METAR SBUF 181200Z 10010KT 9999 BKN020 29/19 Q1014=
0142829860999992017011813004-09401-038251FM-15+026999999V0201101N004610061019N009999199+03101+01801999999ADDGA1071+006101999GE19MSL   +99999+99999GF199999071999006101999999MA1101401999999REMMET051METAR SBUF 181300Z 11009KT 9999 BKN020 31/18 Q1014=
0142829860999992017011814004-09401-038251FM-15+026999999V0201201N004119999999N009999199+03301+01701999999ADDGA1041+006711999GE19MSL   +99999+99999GF199999041999006711999999MA1101301999999REMMET051METAR SBUF 181400Z 12008KT 9999 SCT022 33/17 Q1013=
0142829860999992017011815004-09401-038251FM-15+026999999V0201001N004110061019N009999199+03401+01701999999ADDGA1071+006101999GE19MSL   +99999+99999GF199999071999006101999999MA1101201999999REMMET051METAR SBUF 181500Z 10008KT 9999 BKN020 34/17 Q1012=
0165829860999992017011816004-09401-038251FM-15+026999999V0201401N00211030481CN009999199+03401+01601999999ADDGA1041+006711999GA2041+030481999GE19MSL   +99999+99999GF199999041999006711999999MA1101101999999REMMET058METAR SBUF 181600Z 14004KT 9999 SCT022 SCT100 34/16 Q1011=
0165829860999992017011818004-09401-038251FM-15+026999999V0201101N00511030481CN009999199+03601+01501999999ADDGA1041+007011999GA2041+030481999GE19MSL   +99999+99999GF199999041999007011999999MA1101001999999REMMET058METAR SBUF 181800Z 11010KT 9999 SCT023 SCT100 36/15 Q1010=
0165829860999992017011819004-09401-038251FM-15+026999999V0201201N00511030481CN009999199+03601+01401999999ADDGA1041+007011999GA2041+030481999GE19MSL   +99999+99999GF199999041999007011999999MA1101001999999REMMET058METAR SBUF 181900Z 12010KT 9999 SCT023 SCT100 36/14 Q1010=
0165829860999992017011819454-09401-038251FM-16+026999999V0201201N003610304819N009999199+03401+01501999999ADDGA1041+007011999GA2071+030481999GE19MSL   +99999+99999GF199999041999007011999999MA1101001999999REMMET058SPECI SBUF 181945Z 12007KT 9999 SCT023 BKN100 34/15 Q1010=
0142829860999992017011911154-09401-038251FM-16+026999999V0201101N004619999999N009999199+02701+02001999999ADDGA1041+006101999GE19MSL   +99999+99999GF199999041999006101999999MA1101501999999REMMET051SPECI SBUF 191115Z 11009KT 9999 SCT020 27/20 Q1015=
0142829860999992017011912004-09401-038251FM-15+026999999V0201101N004610061019N009999199+02901+02001999999ADDGA1071+006101999GE19MSL   +99999+99999GF199999071999006101999999MA1101501999999REMMET051METAR SBUF 191200Z 11009KT 9999 BKN020 29/20 Q1015=
0142829860999992017011913004-09401-038251FM-15+026999999V0201001N005110061019N009999199+03001+02001999999ADDGA1071+006101999GE19MSL   +99999+99999GF199999071999006101999999MA1101501999999REMMET051METAR SBUF 191300Z 10010KT 9999 BKN020 30/20 Q1015=
0142829860999992017011914004-09401-038251FM-15+026999999V0201001N003619999999N009999199+03301+01701999999ADDGA1041+006101999GE19MSL   +99999+99999GF199999041999006101999999MA1101401999999REMMET051METAR SBUF 191400Z 10007KT 9999 SCT020 33/17 Q1014=
0142829860999992017011915004-09401-038251FM-15+026999999V0201201N006210064019N009999199+03301+01601999999ADDGA1071+006401999GE19MSL   +99999+99999GF199999071999006401999999MA1101301999999REMMET051METAR SBUF 191500Z 12012KT 9999 BKN021 33/16 Q1013=
0142829860999992017011917004-09401-038251FM-15+026999999V0201201N006219999999N009999199+03601+01401999999ADDGA1041+006711999GE19MSL   +99999+99999GF199999041999006711999999MA1101101999999REMMET051METAR SBUF 191700Z 12012KT 9999 SCT022 36/14 Q1011=
0142829860999992017011918004-09401-038251FM-15+026999999V0201201N005710067119N009999199+03501+01401999999ADDGA1071+006711999GE19MSL   +99999+99999GF199999071999006711999999MA1101101999999REMMET051METAR SBUF 191800Z 12011KT 9999 BKN022 35/14 Q1011=
0142829860999992017011919004-09401-038251FM-15+026999999V0201201N005710067119N009999199+03501+01501999999ADDGA1071+006711999GE19MSL   +99999+99999GF199999071999006711999999MA1101101999999REMMET051METAR SBUF 191900Z 12011KT 9999 BKN022 35/15 Q1011=
0142829860999992017011919454-09401-038251FM-16+026999999V0201101N005719999999N009999199+03501+01401999999ADDGA1041+006401999GE19MSL   +99999+99999GF199999041999006401999999MA1101001999999REMMET051SPECI SBUF 191945Z 11011KT 9999 SCT021 35/14 Q1010=
0142829860999992017012011154-09401-038251FM-16+026999999V0201001N004610057919N009999199+02701+02001999999ADDGA1071+005791999GE19MSL   +99999+99999GF199999071999005791999999MA1101601999999REMMET051SPECI SBUF 201115Z 10009KT 9999 BKN019 27/20 Q1016=
0142829860999992017012012004-09401-038251FM-15+026999999V0201001N003119999999N009999199+02901+01901999999ADDGA1041+006101999GE19MSL   +99999+99999GF199999041999006101999999MA1101601999999REMMET051METAR SBUF 201200Z 10006KT 9999 SCT020 29/19 Q1016=
0142829860999992017012013004-09401-038251FM-15+026999999V0200901N003619999999N009999199+03101+01701999999ADDGA1041+006101999GE19MSL   +99999+99999GF199999041999006101999999MA1101601999999REMMET051METAR SBUF 201300Z 09007KT 9999 SCT020 31/17 Q1016=
0142829860999992017012014004-09401-038251FM-15+026999999V0201301N005119999999N009999199+03301+01601999999ADDGA1041+006401999GE19MSL   +99999+99999GF199999041999006401999999MA1101501999999REMMET051METAR SBUF 201400Z 13010KT 9999 SCT021 33/16 Q1015=
0142829860999992017012016004-09401-038251FM-15+026999999V0201401N004119999999N009999199+03401+01301999999ADDGA1041+006401999GE19MSL   +99999+99999GF199999041999006401999999MA1101301999999REMMET051METAR SBUF 201600Z 14008KT 9999 SCT021 34/13 Q1013=
0142829860999992017012017004-09401-038251FM-15+026999999V0201501N004119999999N009999199+03501+01301999999ADDGA1041+006711999GE19MSL   +99999+99999GF199999041999006711999999MA1101201999999REMMET051METAR SBUF 201700Z 15008KT 9999 SCT022 35/13 Q1012=
0142829860999992017012018004-09401-038251FM-15+026999999V0201301N004119999999N009999199+03601+01301999999ADDGA1041+006711999GE19MSL   +99999+99999GF199999041999006711999999MA1101101999999REMMET051METAR SBUF 201800Z 13008KT 9999 SCT022 36/13 Q1011=
0142829860999992017012019004-09401-038251FM-15+026999999V0201101N004619999999N009999199+03501+01201999999ADDGA1041+006711999GE19MSL   +99999+99999GF199999041999006711999999MA1101101999999REMMET051METAR SBUF 201900Z 11009KT 9999 SCT022 35/12 Q1011=
0142829860999992017012019454-09401-038251FM-16+026999999V0201401N004119999999N009999199+03401+01301999999ADDGA1041+006711999GE19MSL   +99999+99999GF199999041999006711999999MA1101101999999REMMET051SPECI SBUF 201945Z 14008KT 9999 SCT022 34/13 Q1011=
0165829860999992017012111154-09401-038251FM-16+026999999V0200901N004610213419N009999199+02701+01901999999ADDGA1041+006101999GA2071+021341999GE19MSL   +99999+99999GF199999041999006101999999MA1101601999999REMMET058SPECI SBUF 211115Z 09009KT 9999 SCT020 BKN070 27/19 Q1016=
0165829860999992017012112004-09401-038251FM-15+026999999V0201001N004610213419N009999199+02901+01801999999ADDGA1041+006101999GA2071+021341999GE19MSL   +99999+99999GF199999041999006101999999MA1101601999999REMMET058METAR SBUF 211200Z 10009KT 9999 SCT020 BKN070 29/18 Q1016=
0165829860999992017012113004-09401-038251FM-15+026999999V0201001N005110243819N009999199+03101+01701999999ADDGA1041+006101999GA2071+024381999GE19MSL   +99999+99999GF199999041999006101999999MA1101601999999REMMET058METAR SBUF 211300Z 10010KT 9999 SCT020 BKN080 31/17 Q1016=
0165829860999992017012114004-09401-038251FM-15+026999999V0201001N003610243819N009999199+03301+01601999999ADDGA1041+006401999GA2071+024381999GE19MSL   +99999+99999GF199999041999006401999999MA1101501999999REMMET058METAR SBUF 211400Z 10007KT 9999 SCT021 BKN080 33/16 Q1015=
0165829860999992017012115004-09401-038251FM-15+026999999V0201001N003610304819N009999199+03401+01501999999ADDGA1021+006401999GA2071+030481999GE19MSL   +99999+99999GF199999021999006401999999MA1101401999999REMMET058METAR SBUF 211500Z 10007KT 9999 FEW021 BKN100 34/15 Q1014=
0165829860999992017012116004-09401-038251FM-15+026999999V0200901N003110304819N009999199+03401+01401999999ADDGA1021+006711999GA2071+030481999GE19MSL   +99999+99999GF199999021999006711999999MA1101301999999REMMET058METAR SBUF 211600Z 09006KT 9999 FEW022 BKN100 34/14 Q1013=
0165829860999992017012117004-09401-038251FM-15+026999999V0201701N002610304819N009999199+03301+01301999999ADDGA1021+006711999GA2071+030481999GE19MSL   +99999+99999GF199999021999006711999999MA1101201999999REMMET058METAR SBUF 211700Z 17005KT 9999 FEW022 BKN100 33/13 Q1012=
0072829860999992017012119004-09401-038251FM-15+026999999V0201501N004119999999Y999999999+03401+01301999999ADDMA1101101999999REMMET045METAR SBUF 211900Z 15008KT CAVOK 34/13 Q1011=
0072829860999992017012119454-09401-038251FM-16+026999999V0201601N004119999999Y999999999+03401+01201999999ADDMA1101101999999REMMET045SPECI SBUF 211945Z 16008KT CAVOK 34/12 Q1011=
0142829860999992017012211154-09401-038251FM-16+026999999V0200801N004610057919N009999199+02801+02001999999ADDGA1071+005791999GE19MSL   +99999+99999GF199999071999005791999999MA1101501999999REMMET051SPECI SBUF 221115Z 08009KT 9999 BKN019 28/20 Q1015=
0142829860999992017012212004-09401-038251FM-15+026999999V0200901N005110057919N009999199+03001+01901999999ADDGA1071+005791999GE19MSL   +99999+99999GF199999071999005791999999MA1101501999999REMMET051METAR SBUF 221200Z 09010KT 9999 BKN019 30/19 Q1015=
0142829860999992017012213004-09401-038251FM-15+026999999V0201101N005719999999N009999199+03201+01801999999ADDGA1041+006101999GE19MSL   +99999+99999GF199999041999006101999999MA1101501999999REMMET051METAR SBUF 221300Z 11011KT 9999 SCT020 32/18 Q1015=
0142829860999992017012214004-09401-038251FM-15+026999999V0201101N005119999999N009999199+03301+01701999999ADDGA1041+006401999GE19MSL   +99999+99999GF199999041999006401999999MA1101401999999REMMET051METAR SBUF 221400Z 11010KT 9999 SCT021 33/17 Q1014=
0142829860999992017012215004-09401-038251FM-15+026999999V0201001N004119999999N009999199+03401+01701999999ADDGA1041+006711999GE19MSL   +99999+99999GF199999041999006711999999MA1101301999999REMMET051METAR SBUF 221500Z 10008KT 9999 SCT022 34/17 Q1013=
0142829860999992017012216004-09401-038251FM-15+026999999V0201401N003119999999N009999199+03601+01601999999ADDGA1041+006711999GE19MSL   +99999+99999GF199999041999006711999999MA1101201999999REMMET051METAR SBUF 221600Z 14006KT 9999 SCT022 36/16 Q1012=
0142829860999992017012217004-09401-038251FM-15+026999999V0201301N004119999999N009999199+03601+01501999999ADDGA1041+006711999GE19MSL   +99999+99999GF199999041999006711999999MA1101101999999REMMET051METAR SBUF 221700Z 13008KT 9999 SCT022 36/15 Q1011=
0142829860999992017012218004-09401-038251FM-15+026999999V0200901N004119999999N009999199+03501+01501999999ADDGA1041+006711999GE19MSL   +99999+99999GF199999041999006711999999MA1101101999999REMMET051METAR SBUF 221800Z 09008KT 9999 SCT022 35/15 Q1011=
0142829860999992017012219004-09401-038251FM-15+026999999V0201101N003619999999N009999199+03501+01501999999ADDGA1041+006711999GE19MSL   +99999+99999GF199999041999006711999999MA1101101999999REMMET051METAR SBUF 221900Z 11007KT 9999 SCT022 35/15 Q1011=
0142829860999992017012219454-09401-038251FM-16+026999999V0201101N004119999999N009999199+03401+01501999999ADDGA1021+006711999GE19MSL   +99999+99999GF199999021999006711999999MA1101001999999REMMET051SPECI SBUF 221945Z 11008KT 9999 FEW022 34/15 Q1010=
0142829860999992017012311154-09401-038251FM-16+026999999V0201401N003110061019N009999199+02701+02101999999ADDGA1071+006101999GE19MSL   +99999+99999GF199999071999006101999999MA1101501999999REMMET051SPECI SBUF 231115Z 14006KT 9999 BKN020 27/21 Q1015=
0142829860999992017012312004-09401-038251FM-15+026999999V0201101N004119999999N009999199+03101+02001999999ADDGA1041+006101999GE19MSL   +99999+99999GF199999041999006101999999MA1101501999999REMMET051METAR SBUF 231200Z 11008KT 9999 SCT020 31/20 Q1015=
0142829860999992017012313004-09401-038251FM-15+026999999V0200901N006219999999N009999199+03201+01701999999ADDGA1021+006711999GE19MSL   +99999+99999GF199999021999006711999999MA1101401999999REMMET051METAR SBUF 231300Z 09012KT 9999 FEW022 32/17 Q1014=
0142829860999992017012314004-09401-038251FM-15+026999999V0201001N005119999999N009999199+03401+01701999999ADDGA1021+006711999GE19MSL   +99999+99999GF199999021999006711999999MA1101401999999REMMET051METAR SBUF 231400Z 10010KT 9999 FEW022 34/17 Q1014=
0142829860999992017012315004-09401-038251FM-15+026999999V0201301N006719999999N009999199+03501+01601999999ADDGA1021+006401999GE19MSL   +99999+99999GF199999021999006401999999MA1101301999999REMMET051METAR SBUF 231500Z 13013KT 9999 FEW021 35/16 Q1013=
0142829860999992017012316004-09401-038251FM-15+026999999V0201001N005719999999N009999199+03601+01601999999ADDGA1041+006711999GE19MSL   +99999+99999GF199999041999006711999999MA1101201999999REMMET051METAR SBUF 231600Z 10011KT 9999 SCT022 36/16 Q1012=
0142829860999992017012317004-09401-038251FM-15+026999999V0200901N005719999999N009999199+03601+01601999999ADDGA1041+006711999GE19MSL   +99999+99999GF199999041999006711999999MA1101101999999REMMET051METAR SBUF 231700Z 09011KT 9999 SCT022 36/16 Q1011=
0142829860999992017012319004-09401-038251FM-15+026999999V0201001N004619999999N009999199+03301+01701999999ADDGA1041+006401999GE19MSL   +99999+99999GF199999041999006401999999MA1101001999999REMMET051METAR SBUF 231900Z 10009KT 9999 SCT021 33/17 Q1010=
0142829860999992017012319454-09401-038251FM-16+026999999V0201401N004619999999N009999199+03601+01401999999ADDGA1041+006401999GE19MSL   +99999+99999GF199999041999006401999999MA1101001999999REMMET051SPECI SBUF 231945Z 14009KT 9999 SCT021 36/14 Q1010=
0142829860999992017012411154-09401-038251FM-16+026999999V0201101N006210057919N009999199+02901+02001999999ADDGA1071+005791999GE19MSL   +99999+99999GF199999071999005791999999MA1101601999999REMMET051SPECI SBUF 241115Z 11012KT 9999 BKN019 29/20 Q1016=
0142829860999992017012412004-09401-038251FM-15+026999999V0200901N004110061019N009999199+03001+02001999999ADDGA1071+006101999GE19MSL   +99999+99999GF199999071999006101999999MA1101601999999REMMET051METAR SBUF 241200Z 09008KT 9999 BKN020 30/20 Q1016=
0142829860999992017012414004-09401-038251FM-15+026999999V0201301N004119999999N009999199+03401+01801999999ADDGA1041+006101999GE19MSL   +99999+99999GF199999041999006101999999MA1101501999999REMMET051METAR SBUF 241400Z 13008KT 9999 SCT020 34/18 Q1015=
0142829860999992017012415004-09401-038251FM-15+026999999V0201401N004119999999N009999199+03601+01701999999ADDGA1041+006401999GE19MSL   +99999+99999GF199999041999006401999999MA1101401999999REMMET051METAR SBUF 241500Z 14008KT 9999 SCT021 36/17 Q1014=
0142829860999992017012416004-09401-038251FM-15+026999999V0201501N004619999999N009999199+03701+01601999999ADDGA1041+006401999GE19MSL   +99999+99999GF199999041999006401999999MA1101301999999REMMET051METAR SBUF 241600Z 15009KT 9999 SCT021 37/16 Q1013=
0142829860999992017012417004-09401-038251FM-15+026999999V0200901N004119999999N009999199+03701+01401999999ADDGA1041+007011999GE19MSL   +99999+99999GF199999041999007011999999MA1101201999999REMMET051METAR SBUF 241700Z 09008KT 9999 SCT023 37/14 Q1012=
0142829860999992017012419004-09401-038251FM-15+026999999V0201001N004119999999N009999199+03701+01201999999ADDGA1041+007011999GE19MSL   +99999+99999GF199999041999007011999999MA1101001999999REMMET051METAR SBUF 241900Z 10008KT 9999 SCT023 37/12 Q1010=
0142829860999992017012419454-09401-038251FM-16+026999999V0201301N004619999999N009999199+03601+01401999999ADDGA1021+006711999GE19MSL   +99999+99999GF199999021999006711999999MA1101101999999REMMET051SPECI SBUF 241945Z 13009KT 9999 FEW022 36/14 Q1011=
0142829860999992017012513004-09401-038251FM-15+026999999V0201101N006219999999N009999199+03201+01701999999ADDGA1041+006101999GE19MSL   +99999+99999GF199999041999006101999999MA1101701999999REMMET051METAR SBUF 251300Z 11012KT 9999 SCT020 32/17 Q1017=
0142829860999992017012514004-09401-038251FM-15+026999999V0201201N005719999999N009999199+03301+01601999999ADDGA1041+006101999GE19MSL   +99999+99999GF199999041999006101999999MA1101601999999REMMET051METAR SBUF 251400Z 12011KT 9999 SCT020 33/16 Q1016=
0142829860999992017012515004-09401-038251FM-15+026999999V0201201N004610067119N009999199+03401+01601999999ADDGA1071+006711999GE19MSL   +99999+99999GF199999071999006711999999MA1101501999999REMMET051METAR SBUF 251500Z 12009KT 9999 BKN022 34/16 Q1015=
0142829860999992017012519004-09401-038251FM-15+026999999V0201101N005119999999N009999199+03701+01401999999ADDGA1041+006711999GE19MSL   +99999+99999GF199999041999006711999999MA1101101999999REMMET051METAR SBUF 251900Z 11010KT 9999 SCT022 37/14 Q1011=
0142829860999992017012519454-09401-038251FM-16+026999999V0201101N005119999999N009999199+03501+01401999999ADDGA1041+006711999GE19MSL   +99999+99999GF199999041999006711999999MA1101101999999REMMET051SPECI SBUF 251945Z 11010KT 9999 SCT022 35/14 Q1011=
0142829860999992017012610004-09401-038251FM-15+026999999V0201201N003619999999N009999199+02501+02001999999ADDGA1041+005791999GE19MSL   +99999+99999GF199999041999005791999999MA1101601999999REMMET051METAR SBUF 261000Z 12007KT 9999 SCT019 25/20 Q1016=
0142829860999992017012611004-09401-038251FM-15+026999999V0200901N004119999999N009999199+02801+01901999999ADDGA1041+005791999GE19MSL   +99999+99999GF199999041999005791999999MA1101701999999REMMET051METAR SBUF 261100Z 09008KT 9999 SCT019 28/19 Q1017=
0142829860999992017012612004-09401-038251FM-15+026999999V0200901N004119999999N009999199+03001+01801999999ADDGA1041+005791999GE19MSL   +99999+99999GF199999041999005791999999MA1101701999999REMMET051METAR SBUF 261200Z 09008KT 9999 SCT019 30/18 Q1017=
0142829860999992017012613004-09401-038251FM-15+026999999V0201001N004119999999N009999199+03101+01701999999ADDGA1041+006101999GE19MSL   +99999+99999GF199999041999006101999999MA1101701999999REMMET051METAR SBUF 261300Z 10008KT 9999 SCT020 31/17 Q1017=
0142829860999992017012615004-09401-038251FM-15+026999999V0201101N003119999999N009999199+03401+01501999999ADDGA1041+006711999GE19MSL   +99999+99999GF199999041999006711999999MA1101501999999REMMET051METAR SBUF 261500Z 11006KT 9999 SCT022 34/15 Q1015=
0142829860999992017012617004-09401-038251FM-15+026999999V0201401N003119999999N009999199+03601+01401999999ADDGA1041+006711999GE19MSL   +99999+99999GF199999041999006711999999MA1101301999999REMMET051METAR SBUF 261700Z 14006KT 9999 SCT022 36/14 Q1013=
0165829860999992017012618004-09401-038251FM-15+026999999V0201201N00361021341CN009999199+03601+01401999999ADDGA1041+006711999GA2041+021341999GE19MSL   +99999+99999GF199999041999006711999999MA1101201999999REMMET058METAR SBUF 261800Z 12007KT 9999 SCT022 SCT070 36/14 Q1012=
0165829860999992017012619004-09401-038251FM-15+026999999V0201601N00311021341CN009999199+03601+01301999999ADDGA1041+006711999GA2041+021341999GE19MSL   +99999+99999GF199999041999006711999999MA1101201999999REMMET058METAR SBUF 261900Z 16006KT 9999 SCT022 SCT070 36/13 Q1012=
0165829860999992017012619454-09401-038251FM-16+026999999V0201101N00361021341CN009999199+03501+01301999999ADDGA1021+006711999GA2041+021341999GE19MSL   +99999+99999GF199999021999006711999999MA1101201999999REMMET058SPECI SBUF 261945Z 11007KT 9999 FEW022 SCT070 35/13 Q1012=
0165829860999992017012711154-09401-038251FM-16+026999999V0200901N003110213419N009999199+02901+02001999999ADDGA1021+006101999GA2071+021341999GE19MSL   +99999+99999GF199999021999006101999999MA1101701999999REMMET058SPECI SBUF 271115Z 09006KT 9999 FEW020 BKN070 29/20 Q1017=
0165829860999992017012712004-09401-038251FM-15+026999999V0200901N005110213419N009999199+03001+01801999999ADDGA1021+006101999GA2071+021341999GE19MSL   +99999+99999GF199999021999006101999999MA1101701999999REMMET058METAR SBUF 271200Z 09010KT 9999 FEW020 BKN070 30/18 Q1017=
0165829860999992017012713004-09401-038251FM-15+026999999V0201001N00511021341CN009999199+03201+01801999999ADDGA1041+006101999GA2041+021341999GE19MSL   +99999+99999GF199999041999006101999999MA1101701999999REMMET058METAR SBUF 271300Z 10010KT 9999 SCT020 SCT070 32/18 Q1017=
0165829860999992017012714004-09401-038251FM-15+026999999V0201201N00511021341CN009999199+03301+01801999999ADDGA1041+006101999GA2041+021341999GE19MSL   +99999+99999GF199999041999006101999999MA1101601999999REMMET058METAR SBUF 271400Z 12010KT 9999 SCT020 SCT070 33/18 Q1016=
0142829860999992017012715004-09401-038251FM-15+026999999V0201501N003619999999N009999199+03501+01601999999ADDGA1041+006401999GE19MSL   +99999+99999GF199999041999006401999999MA1101501999999REMMET051METAR SBUF 271500Z 15007KT 9999 SCT021 35/16 Q1015=
0142829860999992017012716004-09401-038251FM-15+026999999V0201501N003619999999N009999199+03501+01601999999ADDGA1041+006401999GE19MSL   +99999+99999GF199999041999006401999999MA1101401999999REMMET051METAR SBUF 271600Z 15007KT 9999 SCT021 35/16 Q1014=
0142829860999992017012718004-09401-038251FM-15+026999999V0201501N003119999999N009999199+03701+01401999999ADDGA1041+006711999GE19MSL   +99999+99999GF199999041999006711999999MA1101201999999REMMET051METAR SBUF 271800Z 15006KT 9999 SCT022 37/14 Q1012=
0142829860999992017012719004-09401-038251FM-15+026999999V0201201N004119999999N009999199+03701+01301999999ADDGA1021+006711999GE19MSL   +99999+99999GF199999021999006711999999MA1101201999999REMMET051METAR SBUF 271900Z 12008KT 9999 FEW022 37/13 Q1012=
0142829860999992017012719454-09401-038251FM-16+026999999V0201801N003619999999N009999199+03701+01301999999ADDGA1021+006711999GE19MSL   +99999+99999GF199999021999006711999999MA1101101999999REMMET051SPECI SBUF 271945Z 18007KT 9999 FEW022 37/13 Q1011=
0142829860999992017012811154-09401-038251FM-16+026999999V0201001N005110057919N009999199+02801+02101999999ADDGA1071+005791999GE19MSL   +99999+99999GF199999071999005791999999MA1101701999999REMMET051SPECI SBUF 281115Z 10010KT 9999 BKN019 28/21 Q1017=
0142829860999992017012812004-09401-038251FM-15+026999999V0201001N005710061019N009999199+03001+02101999999ADDGA1071+006101999GE19MSL   +99999+99999GF199999071999006101999999MA1101801999999REMMET051METAR SBUF 281200Z 10011KT 9999 BKN020 30/21 Q1018=
0142829860999992017012813004-09401-038251FM-15+026999999V0201201N006219999999N009999199+03201+01901999999ADDGA1041+006101999GE19MSL   +99999+99999GF199999041999006101999999MA1101701999999REMMET051METAR SBUF 281300Z 12012KT 9999 SCT020 32/19 Q1017=
0142829860999992017012814004-09401-038251FM-15+026999999V0201101N007210061019N009999199+03301+01801999999ADDGA1071+006101999GE19MSL   +99999+99999GF199999071999006101999999MA1101701999999REMMET051METAR SBUF 281400Z 11014KT 9999 BKN020 33/18 Q1017=
0142829860999992017012815004-09401-038251FM-15+026999999V0201101N005110064019N009999199+03501+01601999999ADDGA1071+006401999GE19MSL   +99999+99999GF199999071999006401999999MA1101601999999REMMET051METAR SBUF 281500Z 11010KT 9999 BKN021 35/16 Q1016=
0142829860999992017012816004-09401-038251FM-15+026999999V0201101N005110064019N009999199+03401+01501999999ADDGA1071+006401999GE19MSL   +99999+99999GF199999071999006401999999MA1101501999999REMMET051METAR SBUF 281600Z 11010KT 9999 BKN021 34/15 Q1015=
0142829860999992017012817004-09401-038251FM-15+026999999V0201401N005110064019N009999199+03601+01501999999ADDGA1071+006401999GE19MSL   +99999+99999GF199999071999006401999999MA1101401999999REMMET051METAR SBUF 281700Z 14010KT 9999 BKN021 36/15 Q1014=
0142829860999992017012818004-09401-038251FM-15+026999999V0201501N005119999999N009999199+03601+01501999999ADDGA1041+006401999GE19MSL   +99999+99999GF199999041999006401999999MA1101201999999REMMET051METAR SBUF 281800Z 15010KT 9999 SCT021 36/15 Q1012=
0142829860999992017012819004-09401-038251FM-15+026999999V0201201N007210064019N009999199+03501+01601999999ADDGA1071+006401999GE19MSL   +99999+99999GF199999071999006401999999MA1101201999999REMMET051METAR SBUF 281900Z 12014KT 9999 BKN021 35/16 Q1012=
0165829860999992017012819454-09401-038251FM-16+026999999V0201001N00511024381CN009999199+03401+01601999999ADDGA1041+006401999GA2041+024381999GE19MSL   +99999+99999GF199999041999006401999999MA1101201999999REMMET058SPECI SBUF 281945Z 10010KT 9999 SCT021 SCT080 34/16 Q1012=
0142829860999992017012912004-09401-038251FM-15+026999999V0200901N004619999999N009999199+03001+01801999999ADDGA1041+006101999GE19MSL   +99999+99999GF199999041999006101999999MA1101701999999REMMET051METAR SBUF 291200Z 09009KT 9999 SCT020 30/18 Q1017=
0142829860999992017012913004-09401-038251FM-15+026999999V0201001N005119999999N009999199+03101+01701999999ADDGA1041+006101999GE19MSL   +99999+99999GF199999041999006101999999MA1101701999999REMMET051METAR SBUF 291300Z 10010KT 9999 SCT020 31/17 Q1017=
0142829860999992017012914004-09401-038251FM-15+026999999V0201201N004119999999N009999199+03301+01601999999ADDGA1041+006101999GE19MSL   +99999+99999GF199999041999006101999999MA1101601999999REMMET051METAR SBUF 291400Z 12008KT 9999 SCT020 33/16 Q1016=
0142829860999992017012916004-09401-038251FM-15+026999999V0201001N004619999999N009999199+03501+01401999999ADDGA1041+006711999GE19MSL   +99999+99999GF199999041999006711999999MA1101401999999REMMET051METAR SBUF 291600Z 10009KT 9999 SCT022 35/14 Q1014=
0142829860999992017012918004-09401-038251FM-15+026999999V0201001N003619999999N009999199+03601+01301999999ADDGA1041+006711999GE19MSL   +99999+99999GF199999041999006711999999MA1101301999999REMMET051METAR SBUF 291800Z 10007KT 9999 SCT022 36/13 Q1013=
0142829860999992017012919004-09401-038251FM-15+026999999V0201001N004119999999N009999199+03601+01201999999ADDGA1041+006711999GE19MSL   +99999+99999GF199999041999006711999999MA1101201999999REMMET051METAR SBUF 291900Z 10008KT 9999 SCT022 36/12 Q1012=
0142829860999992017012921004-09401-038251FM-15+026999999V0200901N003619999999N009999199+03301+01201999999ADDGA1041+006101999GE19MSL   +99999+99999GF199999041999006101999999MA1101201999999REMMET051METAR SBUF 292100Z 09007KT 9999 SCT020 33/12 Q1012=
0142829860999992017012921454-09401-038251FM-16+026999999V0201001N003619999999N009999199+03301+01301999999ADDGA1041+006101999GE19MSL   +99999+99999GF199999041999006101999999MA1101301999999REMMET051SPECI SBUF 292145Z 10007KT 9999 SCT020 33/13 Q1013=
0142829860999992017013006154-09401-038251FM-16+026999999V0201201N004119999999N009999199+02101+02001999999ADDGA1021+006101999GE19MSL   +99999+99999GF199999021999006101999999MA1101501999999REMMET051SPECI SBUF 300615Z 12008KT 9999 FEW020 21/20 Q1015=
0142829860999992017013007004-09401-038251FM-15+026999999V0201301N004119999999N009999199+02401+02001999999ADDGA1021+006101999GE19MSL   +99999+99999GF199999021999006101999999MA1101501999999REMMET051METAR SBUF 300700Z 13008KT 9999 FEW020 24/20 Q1015=
0142829860999992017013007404-09401-038251FM-16+026999999V0201401N004119999999N009999199+02401+02001999999ADDGA1021+006101999GE19MSL   +99999+99999GF199999021999006101999999MA1101501999999REMMET051SPECI SBUF 300740Z 14008KT 9999 FEW020 24/20 Q1015=
0142829860999992017013010004-09401-038251FM-15+026999999V0201301N005119999999N009999199+02501+02001999999ADDGA1041+005791999GE19MSL   +99999+99999GF199999041999005791999999MA1101601999999REMMET051METAR SBUF 301000Z 13010KT 9999 SCT019 25/20 Q1016=
0142829860999992017013011004-09401-038251FM-15+026999999V0201101N005719999999N009999199+02701+02001999999ADDGA1041+006101999GE19MSL   +99999+99999GF199999041999006101999999MA1101701999999REMMET051METAR SBUF 301100Z 11011KT 9999 SCT020 27/20 Q1017=
0142829860999992017013012004-09401-038251FM-15+026999999V0201201N005719999999N009999199+02901+01901999999ADDGA1041+006711999GE19MSL   +99999+99999GF199999041999006711999999MA1101601999999REMMET051METAR SBUF 301200Z 12011KT 9999 SCT022 29/19 Q1016=
0142829860999992017013013004-09401-038251FM-15+026999999V0201001N005719999999N009999199+03101+01801999999ADDGA1041+006101999GE19MSL   +99999+99999GF199999041999006101999999MA1101601999999REMMET051METAR SBUF 301300Z 10011KT 9999 SCT020 31/18 Q1016=
0142829860999992017013015004-09401-038251FM-15+026999999V0201101N004619999999N009999199+03401+01601999999ADDGA1041+006401999GE19MSL   +99999+99999GF199999041999006401999999MA1101401999999REMMET051METAR SBUF 301500Z 11009KT 9999 SCT021 34/16 Q1014=
0142829860999992017013016004-09401-038251FM-15+026999999V0201001N004119999999N009999199+03501+01501999999ADDGA1041+006711999GE19MSL   +99999+99999GF199999041999006711999999MA1101301999999REMMET051METAR SBUF 301600Z 10008KT 9999 SCT022 35/15 Q1013=
0142829860999992017013017004-09401-038251FM-15+026999999V0200801N004119999999N009999199+03601+01401999999ADDGA1041+007011999GE19MSL   +99999+99999GF199999041999007011999999MA1101201999999REMMET051METAR SBUF 301700Z 08008KT 9999 SCT023 36/14 Q1012=
0142829860999992017013018004-09401-038251FM-15+026999999V0201101N004119999999N009999199+03601+01301999999ADDGA1041+007011999GE19MSL   +99999+99999GF199999041999007011999999MA1101101999999REMMET051METAR SBUF 301800Z 11008KT 9999 SCT023 36/13 Q1011=
0142829860999992017013019004-09401-038251FM-15+026999999V0201201N003619999999N009999199+03601+01301999999ADDGA1041+007011999GE19MSL   +99999+99999GF199999041999007011999999MA1101101999999REMMET051METAR SBUF 301900Z 12007KT 9999 SCT023 36/13 Q1011=
0142829860999992017013020004-09401-038251FM-15+026999999V0201601N003119999999N009999199+03501+01401999999ADDGA1021+007011999GE19MSL   +99999+99999GF199999021999007011999999MA1101101999999REMMET051METAR SBUF 302000Z 16006KT 9999 FEW023 35/14 Q1011=
0142829860999992017013021004-09401-038251FM-15+026999999V0201101N007219999999N009999199+03301+01701999999ADDGA1021+006711999GE19MSL   +99999+99999GF199999021999006711999999MA1101201999999REMMET051METAR SBUF 302100Z 11014KT 9999 FEW022 33/17 Q1012=
0142829860999992017013022004-09401-038251FM-15+026999999V0201101N007219999999N009999199+03101+01801999999ADDGA1021+006711999GE19MSL   +99999+99999GF199999021999006711999999MA1101301999999REMMET051METAR SBUF 302200Z 11014KT 9999 FEW022 31/18 Q1013=
0142829860999992017013022104-09401-038251FM-16+026999999V0201001N008819999999N009999199+03101+01801999999ADDGA1021+006711999GE19MSL   +99999+99999GF199999021999006711999999MA1101301999999REMMET051SPECI SBUF 302210Z 10017KT 9999 FEW022 31/18 Q1013=
0142829860999992017013111154-09401-038251FM-16+026999999V0201101N005119999999N009999199+02801+02001999999ADDGA1041+006101999GE19MSL   +99999+99999GF199999041999006101999999MA1101601999999REMMET051SPECI SBUF 311115Z 11010KT 9999 SCT020 28/20 Q1016=
0142829860999992017013112004-09401-038251FM-15+026999999V0201001N005119999999N009999199+02901+01901999999ADDGA1041+006101999GE19MSL   +99999+99999GF199999041999006101999999MA1101601999999REMMET051METAR SBUF 311200Z 10010KT 9999 SCT020 29/19 Q1016=
0142829860999992017013113004-09401-038251FM-15+026999999V0201001N005119999999N009999199+03301+01801999999ADDGA1041+006101999GE19MSL   +99999+99999GF199999041999006101999999MA1101601999999REMMET051METAR SBUF 311300Z 10010KT 9999 SCT020 33/18 Q1016=
0142829860999992017013114004-09401-038251FM-15+026999999V0201001N005119999999N009999199+03401+01701999999ADDGA1041+006711999GE19MSL   +99999+99999GF199999041999006711999999MA1101501999999REMMET051METAR SBUF 311400Z 10010KT 9999 SCT022 34/17 Q1015=
0142829860999992017013115004-09401-038251FM-15+026999999V0201101N005119999999N009999199+03401+01601999999ADDGA1041+006401999GE19MSL   +99999+99999GF199999041999006401999999MA1101401999999REMMET051METAR SBUF 311500Z 11010KT 9999 SCT021 34/16 Q1014=
0142829860999992017013116004-09401-038251FM-15+026999999V0201301N004119999999N009999199+03601+01601999999ADDGA1041+006711999GE19MSL   +99999+99999GF199999041999006711999999MA1101301999999REMMET051METAR SBUF 311600Z 13008KT 9999 SCT022 36/16 Q1013=
0142829860999992017013117004-09401-038251FM-15+026999999V0201501N004119999999N009999199+03601+01501999999ADDGA1041+006711999GE19MSL   +99999+99999GF199999041999006711999999MA1101101999999REMMET051METAR SBUF 311700Z 15008KT 9999 SCT022 36/15 Q1011=
0142829860999992017013118004-09401-038251FM-15+026999999V0201001N004619999999N009999199+03601+01501999999ADDGA1041+006711999GE19MSL   +99999+99999GF199999041999006711999999MA1101101999999REMMET051METAR SBUF 311800Z 10009KT 9999 SCT022 36/15 Q1011=
0142829860999992017013119004-09401-038251FM-15+026999999V0201201N004619999999N009999199+03701+01501999999ADDGA1021+006711999GE19MSL   +99999+99999GF199999021999006711999999MA1101001999999REMMET051METAR SBUF 311900Z 12009KT 9999 FEW022 37/15 Q1010=
0142829860999992017013119454-09401-038251FM-16+026999999V0201301N004619999999N009999199+03601+01501999999ADDGA1021+006711999GE19MSL   +99999+99999GF199999021999006711999999MA1101001999999REMMET051SPECI SBUF 311945Z 13009KT 9999 FEW022 36/15 Q1010=
0142829860999992017020112004-09401-038251FM-15+026999999V0201001N005119999999N009999199+03001+01801999999ADDGA1021+006101999GE19MSL   +99999+99999GF199999021999006101999999MA1101501999999REMMET051METAR SBUF 011200Z 10010KT 9999 FEW020 30/18 Q1015=
0142829860999992017020113004-09401-038251FM-15+026999999V0201101N005119999999N009999199+03201+01701999999ADDGA1021+006401999GE19MSL   +99999+99999GF199999021999006401999999MA1101501999999REMMET051METAR SBUF 011300Z 11010KT 9999 FEW021 32/17 Q1015=
0142829860999992017020114004-09401-038251FM-15+026999999V0201001N004619999999N009999199+03301+01701999999ADDGA1021+006401999GE19MSL   +99999+99999GF199999021999006401999999MA1101401999999REMMET051METAR SBUF 011400Z 10009KT 9999 FEW021 33/17 Q1014=
0142829860999992017020116004-09401-038251FM-15+026999999V0201401N004619999999N009999199+03601+01601999999ADDGA1021+007011999GE19MSL   +99999+99999GF199999021999007011999999MA1101201999999REMMET051METAR SBUF 011600Z 14009KT 9999 FEW023 36/16 Q1012=
0142829860999992017020117004-09401-038251FM-15+026999999V0201001N003619999999N009999199+03601+01601999999ADDGA1021+007011999GE19MSL   +99999+99999GF199999021999007011999999MA1101101999999REMMET051METAR SBUF 011700Z 10007KT 9999 FEW023 36/16 Q1011=
0165829860999992017020119004-09401-038251FM-15+026999999V0201201N00461030481CN009999199+03601+01501999999ADDGA1021+006711999GA2041+030481999GE19MSL   +99999+99999GF199999021999006711999999MA1101001999999REMMET058METAR SBUF 011900Z 12009KT 9999 FEW022 SCT100 36/15 Q1010=
0165829860999992017020119454-09401-038251FM-16+026999999V0201201N004610304819N009999199+03501+01501999999ADDGA1021+006711999GA2071+030481999GE19MSL   +99999+99999GF199999021999006711999999MA1101001999999REMMET058SPECI SBUF 011945Z 12009KT 9999 FEW022 BKN100 35/15 Q1010=
0142829860999992017020211154-09401-038251FM-16+026999999V0201001N003610057919N009999199+02901+02101999999ADDGA1071+005791999GE19MSL   +99999+99999GF199999071999005791999999MA1101401999999REMMET051SPECI SBUF 021115Z 10007KT 9999 BKN019 29/21 Q1014=
0142829860999992017020213004-09401-038251FM-15+026999999V0201001N004110061019N009999199+03201+01901999999ADDGA1071+006101999GE19MSL   +99999+99999GF199999071999006101999999MA1101401999999REMMET051METAR SBUF 021300Z 10008KT 9999 BKN020 32/19 Q1014=
0142829860999992017020214004-09401-038251FM-15+026999999V0200901N003610064019N009999199+03301+01801999999ADDGA1071+006401999GE19MSL   +99999+99999GF199999071999006401999999MA1101401999999REMMET051METAR SBUF 021400Z 09007KT 9999 BKN021 33/18 Q1014=
0142829860999992017020215004-09401-038251FM-15+026999999V0201301N005119999999N009999199+03501+01701999999ADDGA1041+006401999GE19MSL   +99999+99999GF199999041999006401999999MA1101301999999REMMET051METAR SBUF 021500Z 13010KT 9999 SCT021 35/17 Q1013=
0142829860999992017020216004-09401-038251FM-15+026999999V0200901N005119999999N009999199+03501+01601999999ADDGA1041+007011999GE19MSL   +99999+99999GF199999041999007011999999MA1101201999999REMMET051METAR SBUF 021600Z 09010KT 9999 SCT023 35/16 Q1012=
0142829860999992017020218004-09401-038251FM-15+026999999V0201001N003619999999N009999199+03701+01401999999ADDGA1041+007011999GE19MSL   +99999+99999GF199999041999007011999999MA1101001999999REMMET051METAR SBUF 021800Z 10007KT 9999 SCT023 37/14 Q1010=
0142829860999992017020219004-09401-038251FM-15+026999999V0201001N005119999999N009999199+03701+01401999999ADDGA1041+007011999GE19MSL   +99999+99999GF199999041999007011999999MA1101001999999REMMET051METAR SBUF 021900Z 10010KT 9999 SCT023 37/14 Q1010=
0142829860999992017020219454-09401-038251FM-16+026999999V0201301N004119999999N009999199+03601+01401999999ADDGA1041+007011999GE19MSL   +99999+99999GF199999041999007011999999MA1101001999999REMMET051SPECI SBUF 021945Z 13008KT 9999 SCT023 36/14 Q1010=
0142829860999992017020312004-09401-038251FM-15+026999999V0201201N003619999999N009999199+02801+01901999999ADDGA1021+006101999GE19MSL   +99999+99999GF199999021999006101999999MA1101501999999REMMET051METAR SBUF 031200Z 12007KT 9999 FEW020 28/19 Q1015=
0142829860999992017020314004-09401-038251FM-15+026999999V0201201N005719999999N009999199+03301+01701999999ADDGA1021+006101999GE19MSL   +99999+99999GF199999021999006101999999MA1101401999999REMMET051METAR SBUF 031400Z 12011KT 9999 FEW020 33/17 Q1014=
0165829860999992017020315004-09401-038251FM-15+026999999V0201101N00411030481CN009999199+03401+01601999999ADDGA1021+006711999GA2041+030481999GE19MSL   +99999+99999GF199999021999006711999999MA1101301999999REMMET058METAR SBUF 031500Z 11008KT 9999 FEW022 SCT100 34/16 Q1013=
0165829860999992017020318004-09401-038251FM-15+026999999V0200901N00461030481CN009999199+03701+01401999999ADDGA1021+007011999GA2041+030481999GE19MSL   +99999+99999GF199999021999007011999999MA1101001999999REMMET058METAR SBUF 031800Z 09009KT 9999 FEW023 SCT100 37/14 Q1010=
0165829860999992017020319004-09401-038251FM-15+026999999V0200901N00411030481CN009999199+03701+01301999999ADDGA1021+007011999GA2041+030481999GE19MSL   +99999+99999GF199999021999007011999999MA1101001999999REMMET058METAR SBUF 031900Z 09008KT 9999 FEW023 SCT100 37/13 Q1010=
0165829860999992017020319454-09401-038251FM-16+026999999V0200901N00461030481CN009999199+03601+01301999999ADDGA1021+007011999GA2041+030481999GE19MSL   +99999+99999GF199999021999007011999999MA1100901999999REMMET058SPECI SBUF 031945Z 09009KT 9999 FEW023 SCT100 36/13 Q1009=
0142829860999992017020412004-09401-038251FM-15+026999999V0201101N005119999999N009999199+03001+01901999999ADDGA1041+006101999GE19MSL   +99999+99999GF199999041999006101999999MA1101501999999REMMET051METAR SBUF 041200Z 11010KT 9999 SCT020 30/19 Q1015=
0142829860999992017020413004-09401-038251FM-15+026999999V0200901N005119999999N009999199+03201+01801999999ADDGA1041+006101999GE19MSL   +99999+99999GF199999041999006101999999MA1101401999999REMMET051METAR SBUF 041300Z 09010KT 9999 SCT020 32/18 Q1014=
0142829860999992017020414004-09401-038251FM-15+026999999V0201001N004619999999N009999199+03301+01701999999ADDGA1021+006401999GE19MSL   +99999+99999GF199999021999006401999999MA1101301999999REMMET051METAR SBUF 041400Z 10009KT 9999 FEW021 33/17 Q1013=
0142829860999992017020415004-09401-038251FM-15+026999999V0201001N004119999999N009999199+03501+01601999999ADDGA1021+006711999GE19MSL   +99999+99999GF199999021999006711999999MA1101201999999REMMET051METAR SBUF 041500Z 10008KT 9999 FEW022 35/16 Q1012=
0142829860999992017020418004-09401-038251FM-15+026999999V0201401N003619999999N009999199+03701+01401999999ADDGA1021+006711999GE19MSL   +99999+99999GF199999021999006711999999MA1100901999999REMMET051METAR SBUF 041800Z 14007KT 9999 FEW022 37/14 Q1009=
0142829860999992017020419004-09401-038251FM-15+026999999V0201001N003119999999N009999199+03701+01301999999ADDGA1021+006711999GE19MSL   +99999+99999GF199999021999006711999999MA1100901999999REMMET051METAR SBUF 041900Z 10006KT 9999 FEW022 37/13 Q1009=
0142829860999992017020419454-09401-038251FM-16+026999999V0201201N004619999999N009999199+03701+01301999999ADDGA1021+006711999GE19MSL   +99999+99999GF199999021999006711999999MA1100901999999REMMET051SPECI SBUF 041945Z 12009KT 9999 FEW022 37/13 Q1009=
0142829860999992017020511154-09401-038251FM-16+026999999V0201001N004119999999N009999199+02801+02001999999ADDGA1041+006101999GE19MSL   +99999+99999GF199999041999006101999999MA1101501999999REMMET051SPECI SBUF 051115Z 10008KT 9999 SCT020 28/20 Q1015=
0142829860999992017020519454-09401-038251FM-16+026999999V0201001N005119999999N009999199+03601+01501999999ADDGA1041+007011999GE19MSL   +99999+99999GF199999041999007011999999MA1100901999999REMMET051SPECI SBUF 051945Z 10010KT 9999 SCT023 36/15 Q1009=
0142829860999992017020611154-09401-038251FM-16+026999999V0201301N003119999999N009999199+02801+02001999999ADDGA1021+006101999GE19MSL   +99999+99999GF199999021999006101999999MA1101401999999REMMET051SPECI SBUF 061115Z 13006KT 9999 FEW020 28/20 Q1014=
0142829860999992017020619454-09401-038251FM-16+026999999V0200901N004119999999N009999199+03701+01601999999ADDGA1041+007621999GE19MSL   +99999+99999GF199999041999007621999999MA1100801999999REMMET051SPECI SBUF 061945Z 09008KT 9999 SCT025 37/16 Q1008=
0142829860999992017020712004-09401-038251FM-15+026999999V0201101N003610061019N009999199+02901+01901999999ADDGA1071+006101999GE19MSL   +99999+99999GF199999071999006101999999MA1101301999999REMMET051METAR SBUF 071200Z 11007KT 9999 BKN020 29/19 Q1013=
0142829860999992017020713004-09401-038251FM-15+026999999V0200601N003119999999N009999199+03101+01801999999ADDGA1041+006711999GE19MSL   +99999+99999GF199999041999006711999999MA1101301999999REMMET051METAR SBUF 071300Z 06006KT 9999 SCT022 31/18 Q1013=
0142829860999992017020714004-09401-038251FM-15+026999999V0201201N004119999999N009999199+03301+01801999999ADDGA1041+006711999GE19MSL   +99999+99999GF199999041999006711999999MA1101201999999REMMET051METAR SBUF 071400Z 12008KT 9999 SCT022 33/18 Q1012=
0142829860999992017020715004-09401-038251FM-15+026999999V0201401N004119999999N009999199+03401+01701999999ADDGA1041+006711999GE19MSL   +99999+99999GF199999041999006711999999MA1101201999999REMMET051METAR SBUF 071500Z 14008KT 9999 SCT022 34/17 Q1012=
0142829860999992017020716004-09401-038251FM-15+026999999V0200901N002119999999N009999199+03501+01601999999ADDGA1041+006711999GE19MSL   +99999+99999GF199999041999006711999999MA1101101999999REMMET051METAR SBUF 071600Z 09004KT 9999 SCT022 35/16 Q1011=
0142829860999992017020717004-09401-038251FM-15+026999999V0202001N002619999999N009999199+03601+01601999999ADDGA1041+007011999GE19MSL   +99999+99999GF199999041999007011999999MA1101001999999REMMET051METAR SBUF 071700Z 20005KT 9999 SCT023 36/16 Q1010=
0142829860999992017020719004-09401-038251FM-15+026999999V0201401N003119999999N009999199+03701+01601999999ADDGA1041+007621999GE19MSL   +99999+99999GF199999041999007621999999MA1100801999999REMMET051METAR SBUF 071900Z 14006KT 9999 SCT025 37/16 Q1008=
0142829860999992017020812004-09401-038251FM-15+026999999V0201401N003119999999N009999199+03001+01901999999ADDGA1021+006711999GE19MSL   +99999+99999GF199999021999006711999999MA1101301999999REMMET051METAR SBUF 081200Z 14006KT 9999 FEW022 30/19 Q1013=
0142829860999992017020813004-09401-038251FM-15+026999999V0201601N003119999999N009999199+03101+01901999999ADDGA1041+006711999GE19MSL   +99999+99999GF199999041999006711999999MA1101301999999REMMET051METAR SBUF 081300Z 16006KT 9999 SCT022 31/19 Q1013=
0142829860999992017020814004-09401-038251FM-15+026999999V0201801N002619999999N009999199+03301+01701999999ADDGA1021+006711999GE19MSL   +99999+99999GF199999021999006711999999MA1101301999999REMMET051METAR SBUF 081400Z 18005KT 9999 FEW022 33/17 Q1013=
0142829860999992017020815004-09401-038251FM-15+026999999V0201301N002619999999N009999199+03401+01701999999ADDGA1041+006101999GE19MSL   +99999+99999GF199999041999006101999999MA1101201999999REMMET051METAR SBUF 081500Z 13005KT 9999 SCT020 34/17 Q1012=
0142829860999992017020817004-09401-038251FM-15+026999999V0201401N002119999999N009999199+03701+01401999999ADDGA1041+007621999GE19MSL   +99999+99999GF199999041999007621999999MA1101001999999REMMET051METAR SBUF 081700Z 14004KT 9999 SCT025 37/14 Q1010=
0142829860999992017020818004-09401-038251FM-15+026999999V0201001N003619999999N009999199+03801+01401999999ADDGA1041+007621999GE19MSL   +99999+99999GF199999041999007621999999MA1100901999999REMMET051METAR SBUF 081800Z 10007KT 9999 SCT025 38/14 Q1009=
0142829860999992017020819004-09401-038251FM-15+026999999V0201301N005119999999N009999199+03701+01501999999ADDGA1041+007621999GE19MSL   +99999+99999GF199999041999007621999999MA1100801999999REMMET051METAR SBUF 081900Z 13010KT 9999 SCT025 37/15 Q1008=
0142829860999992017020913004-09401-038251FM-15+026999999V0201701N002619999999N009999199+03201+02001999999ADDGA1041+006101999GE19MSL   +99999+99999GF199999041999006101999999MA1101301999999REMMET051METAR SBUF 091300Z 17005KT 9999 SCT020 32/20 Q1013=
0142829860999992017020914004-09401-038251FM-15+026999999V0201601N002619999999N009999199+03401+01701999999ADDGA1041+006711999GE19MSL   +99999+99999GF199999041999006711999999MA1101301999999REMMET051METAR SBUF 091400Z 16005KT 9999 SCT022 34/17 Q1013=
0142829860999992017020915004-09401-038251FM-15+026999999V0201601N002610064019N009999199+03601+01701999999ADDGA1071+006401999GE19MSL   +99999+99999GF199999071999006401999999MA1101201999999REMMET051METAR SBUF 091500Z 16005KT 9999 BKN021 36/17 Q1012=
0142829860999992017020916004-09401-038251FM-15+026999999V0201201N003619999999N009999199+03601+01601999999ADDGA1041+006401999GE19MSL   +99999+99999GF199999041999006401999999MA1101101999999REMMET051METAR SBUF 091600Z 12007KT 9999 SCT021 36/16 Q1011=
0142829860999992017020918004-09401-038251FM-15+026999999V0200901N003119999999N009999199+03801+01401999999ADDGA1021+006711999GE19MSL   +99999+99999GF199999021999006711999999MA1100901999999REMMET051METAR SBUF 091800Z 09006KT 9999 FEW022 38/14 Q1009=
0142829860999992017020919004-09401-038251FM-15+026999999V0201201N004119999999N009999199+03701+01401999999ADDGA1041+007011999GE19MSL   +99999+99999GF199999041999007011999999MA1100801999999REMMET051METAR SBUF 091900Z 12008KT 9999 SCT023 37/14 Q1008=
0142829860999992017020921004-09401-038251FM-15+026999999V0201001N004619999999N009999199+03501+01401999999ADDGA1021+006711999GE19MSL   +99999+99999GF199999021999006711999999MA1100801999999REMMET051METAR SBUF 092100Z 10009KT 9999 FEW022 35/14 Q1008=
0142829860999992017021012004-09401-038251FM-15+026999999V0201301N003619999999N009999199+03001+02101999999ADDGA1041+006101999GE19MSL   +99999+99999GF199999041999006101999999MA1101401999999REMMET051METAR SBUF 101200Z 13007KT 9999 SCT020 30/21 Q1014=
0142829860999992017021013004-09401-038251FM-15+026999999V0201601N003619999999N009999199+03101+02001999999ADDGA1041+006101999GE19MSL   +99999+99999GF199999041999006101999999MA1101401999999REMMET051METAR SBUF 101300Z 16007KT 9999 SCT020 31/20 Q1014=
0142829860999992017021014004-09401-038251FM-15+026999999V0201401N003610064019N009999199+03301+01801999999ADDGA1071+006401999GE19MSL   +99999+99999GF199999071999006401999999MA1101401999999REMMET051METAR SBUF 101400Z 14007KT 9999 BKN021 33/18 Q1014=
0142829860999992017021015004-09401-038251FM-15+026999999V0201601N003610064019N009999199+03301+01801999999ADDGA1071+006401999GE19MSL   +99999+99999GF199999071999006401999999MA1101301999999REMMET051METAR SBUF 101500Z 16007KT 9999 BKN021 33/18 Q1013=
0142829860999992017021016004-09401-038251FM-15+026999999V0201201N002610070119N009999199+03601+01601999999ADDGA1071+007011999GE19MSL   +99999+99999GF199999071999007011999999MA1101101999999REMMET051METAR SBUF 101600Z 12005KT 9999 BKN023 36/16 Q1011=
0142829860999992017021017004-09401-038251FM-15+026999999V0201701N003619999999N009999199+03601+01501999999ADDGA1041+007621999GE19MSL   +99999+99999GF199999041999007621999999MA1101001999999REMMET051METAR SBUF 101700Z 17007KT 9999 SCT025 36/15 Q1010=
0142829860999992017021019004-09401-038251FM-15+026999999V0201601N003619999999N009999199+03601+01501999999ADDGA1041+007621999GE19MSL   +99999+99999GF199999041999007621999999MA1100901999999REMMET051METAR SBUF 101900Z 16007KT 9999 SCT025 36/15 Q1009=
0142829860999992017021112004-09401-038251FM-15+026999999V0201301N005119999999N009999199+02901+01801999999ADDGA1041+004881999GE19MSL   +99999+99999GF199999041999004881999999MA1101401999999REMMET051METAR SBUF 111200Z 13010KT 9999 SCT016 29/18 Q1014=
0142829860999992017021113004-09401-038251FM-15+026999999V0201401N004619999999N009999199+03001+01701999999ADDGA1041+005181999GE19MSL   +99999+99999GF199999041999005181999999MA1101301999999REMMET051METAR SBUF 111300Z 14009KT 9999 SCT017 30/17 Q1013=
0142829860999992017021114004-09401-038251FM-15+026999999V0201501N004110061019N009999199+03101+01601999999ADDGA1071+006101999GE19MSL   +99999+99999GF199999071999006101999999MA1101301999999REMMET051METAR SBUF 111400Z 15008KT 9999 BKN020 31/16 Q1013=
0142829860999992017021115004-09401-038251FM-15+026999999V0201301N003110061019N009999199+03301+01501999999ADDGA1071+006101999GE19MSL   +99999+99999GF199999071999006101999999MA1101201999999REMMET051METAR SBUF 111500Z 13006KT 9999 BKN020 33/15 Q1012=
0142829860999992017021116004-09401-038251FM-15+026999999V0201201N002610064019N009999199+03401+01501999999ADDGA1071+006401999GE19MSL   +99999+99999GF199999071999006401999999MA1101101999999REMMET051METAR SBUF 111600Z 12005KT 9999 BKN021 34/15 Q1011=
0142829860999992017021117004-09401-038251FM-15+026999999V0200801N002619999999N009999199+03401+01401999999ADDGA1041+006401999GE19MSL   +99999+99999GF199999041999006401999999MA1101001999999REMMET051METAR SBUF 111700Z 08005KT 9999 SCT021 34/14 Q1010=
0142829860999992017021118004-09401-038251FM-15+026999999V0201601N004119999999N009999199+03501+01201999999ADDGA1041+006401999GE19MSL   +99999+99999GF199999041999006401999999MA1100901999999REMMET051METAR SBUF 111800Z 16008KT 9999 SCT021 35/12 Q1009=
0142829860999992017021119004-09401-038251FM-15+026999999V0201601N003119999999N009999199+03401+01101999999ADDGA1041+006401999GE19MSL   +99999+99999GF199999041999006401999999MA1100901999999REMMET051METAR SBUF 111900Z 16006KT 9999 SCT021 34/11 Q1009=
0142829860999992017021212004-09401-038251FM-15+026999999V0200901N004610061019N009999199+02901+01701999999ADDGA1071+006101999GE19MSL   +99999+99999GF199999071999006101999999MA1101401999999REMMET051METAR SBUF 121200Z 09009KT 9999 BKN020 29/17 Q1014=
0142829860999992017021213004-09401-038251FM-15+026999999V0200901N005119999999N009999199+03101+01601999999ADDGA1041+006711999GE19MSL   +99999+99999GF199999041999006711999999MA1101301999999REMMET051METAR SBUF 121300Z 09010KT 9999 SCT022 31/16 Q1013=
0142829860999992017021214004-09401-038251FM-15+026999999V0201001N004119999999N009999199+03201+01501999999ADDGA1041+006711999GE19MSL   +99999+99999GF199999041999006711999999MA1101301999999REMMET051METAR SBUF 121400Z 10008KT 9999 SCT022 32/15 Q1013=
0142829860999992017021216004-09401-038251FM-15+026999999V0201601N003610070119N009999199+03301+01201999999ADDGA1071+007011999GE19MSL   +99999+99999GF199999071999007011999999MA1101101999999REMMET051METAR SBUF 121600Z 16007KT 9999 BKN023 33/12 Q1011=
0142829860999992017021217004-09401-038251FM-15+026999999V0201501N003619999999N009999199+03501+01101999999ADDGA1041+007011999GE19MSL   +99999+99999GF199999041999007011999999MA1101001999999REMMET051METAR SBUF 121700Z 15007KT 9999 SCT023 35/11 Q1010=
0142829860999992017021218004-09401-038251FM-15+026999999V0201001N004119999999N009999199+03501+01001999999ADDGA1041+007011999GE19MSL   +99999+99999GF199999041999007011999999MA1100901999999REMMET051METAR SBUF 121800Z 10008KT 9999 SCT023 35/10 Q1009=
0142829860999992017021219004-09401-038251FM-15+026999999V0201001N004119999999N009999199+03501+01001999999ADDGA1041+007011999GE19MSL   +99999+99999GF199999041999007011999999MA1100901999999REMMET051METAR SBUF 121900Z 10008KT 9999 SCT023 35/10 Q1009=
0142829860999992017021312004-09401-038251FM-15+026999999V0200901N005119999999N009999199+03001+01601999999ADDGA1021+006101999GE19MSL   +99999+99999GF199999021999006101999999MA1101401999999REMMET051METAR SBUF 131200Z 09010KT 9999 FEW020 30/16 Q1014=
0142829860999992017021313004-09401-038251FM-15+026999999V0201301N004619999999N009999199+03101+01501999999ADDGA1021+006101999GE19MSL   +99999+99999GF199999021999006101999999MA1101301999999REMMET051METAR SBUF 131300Z 13009KT 9999 FEW020 31/15 Q1013=
0142829860999992017021315004-09401-038251FM-15+026999999V0200901N005119999999N009999199+03401+01401999999ADDGA1041+006401999GE19MSL   +99999+99999GF199999041999006401999999MA1101201999999REMMET051METAR SBUF 131500Z 09010KT 9999 SCT021 34/14 Q1012=
0165829860999992017021317004-09401-038251FM-15+026999999V0201301N004110243819N009999199+03501+01301999999ADDGA1041+006401999GA2071+024381999GE19MSL   +99999+99999GF199999041999006401999999MA1101001999999REMMET058METAR SBUF 131700Z 13008KT 9999 SCT021 BKN080 35/13 Q1010=
0165829860999992017021318004-09401-038251FM-15+026999999V0200901N003610070119N009999199+03501+01201999999ADDGA1041+007011999GA2071+007011999GE19MSL   +99999+99999GF199999041999007011999999MA1100901999999REMMET058METAR SBUF 131800Z 09007KT 9999 SCT023 BKN023 35/12 Q1009=
0142829860999992017021319004-09401-038251FM-15+026999999V0201501N003119999999N009999199+03501+01201999999ADDGA1041+007621999GE19MSL   +99999+99999GF199999041999007621999999MA1100901999999REMMET051METAR SBUF 131900Z 15006KT 9999 SCT025 35/12 Q1009=
0165829860999992017021412004-09401-038251FM-15+026999999V0201101N005110243819N009999199+02801+02001999999ADDGA1041+006101999GA2081+024381999GE19MSL   +99999+99999GF199999041999006101999999MA1101701999999REMMET058METAR SBUF 141200Z 11010KT 9999 SCT020 OVC080 28/20 Q1017=
0165829860999992017021413004-09401-038251FM-15+026999999V0201101N005710243819N009999199+03001+01901999999ADDGA1041+006101999GA2071+024381999GE19MSL   +99999+99999GF199999041999006101999999MA1101601999999REMMET058METAR SBUF 141300Z 11011KT 9999 SCT020 BKN080 30/19 Q1016=
0165829860999992017021414004-09401-038251FM-15+026999999V0201101N005710061019N009999199+03101+01801999999ADDGA1071+006101999GA2071+024381999GE19MSL   +99999+99999GF199999071999006101999999MA1101601999999REMMET058METAR SBUF 141400Z 11011KT 9999 BKN020 BKN080 31/18 Q1016=
0165829860999992017021415004-09401-038251FM-15+026999999V0201201N005710243819N009999199+03301+01701999999ADDGA1021+006101999GA2071+024381999GE19MSL   +99999+99999GF199999021999006101999999MA1101501999999REMMET058METAR SBUF 141500Z 12011KT 9999 FEW020 BKN080 33/17 Q1015=
0165829860999992017021416004-09401-038251FM-15+026999999V0201601N004610274319N009999199+03301+01701999999ADDGA1021+006101999GA2071+027431999GE19MSL   +99999+99999GF199999021999006101999999MA1101401999999REMMET058METAR SBUF 141600Z 16009KT 9999 FEW020 BKN090 33/17 Q1014=
0165829860999992017021417004-09401-038251FM-15+026999999V0201301N004610274319N009999199+03301+01701999999ADDGA1021+006101999GA2071+027431999GE19MSL   +99999+99999GF199999021999006101999999MA1101401999999REMMET058METAR SBUF 141700Z 13009KT 9999 FEW020 BKN090 33/17 Q1014=
0142829860999992017021419004-09401-038251FM-15+026999999V0201101N005119999999N009999199+03301+01701999999ADDGA1041+006101999GE19MSL   +99999+99999GF199999041999006101999999MA1101301999999REMMET051METAR SBUF 141900Z 11010KT 9999 SCT020 33/17 Q1013=
0193829860999992017021512004-09401-038251FM-15+026999999V0201101N00411004571CN009999199+02601+02101999999ADDGA1021+003051999GA2041+004571999GA3071+024381999GE19MSL   +99999+99999GF199999021999003051999999MA1101801999999REMMET070METAR SBUF 151200Z 11008KT 9999 FEW010 SCT015 BKN080 26/21 Q1018 RERA=
0165829860999992017021513004-09401-038251FM-15+026999999V0201201N007210243819N009999199+03001+01901999999ADDGA1041+004881999GA2071+024381999GE19MSL   +99999+99999GF199999041999004881999999MA1101701999999REMMET058METAR SBUF 151300Z 12014KT 9999 SCT016 BKN080 30/19 Q1017=
0142829860999992017021515004-09401-038251FM-15+026999999V0201201N006219999999N009999199+03401+01601999999ADDGA1041+006711999GE19MSL   +99999+99999GF199999041999006711999999MA1101601999999REMMET051METAR SBUF 151500Z 12012KT 9999 SCT022 34/16 Q1016=
0142829860999992017021517004-09401-038251FM-15+026999999V0201001N007219999999N009999199+03501+01501999999ADDGA1041+007011999GE19MSL   +99999+99999GF199999041999007011999999MA1101401999999REMMET051METAR SBUF 151700Z 10014KT 9999 SCT023 35/15 Q1014=
0142829860999992017021518004-09401-038251FM-15+026999999V0201101N008219999999N009999199+03401+01501999999ADDGA1041+007011999GE19MSL   +99999+99999GF199999041999007011999999MA1101301999999REMMET051METAR SBUF 151800Z 11016KT 9999 SCT023 34/15 Q1013=
0142829860999992017021519004-09401-038251FM-15+026999999V0201401N006719999999N009999199+03401+01501999999ADDGA1041+007011999GE19MSL   +99999+99999GF199999041999007011999999MA1101301999999REMMET051METAR SBUF 151900Z 14013KT 9999 SCT023 34/15 Q1013=
0142829860999992017021612004-09401-038251FM-15+026999999V0200801N003619999999N009999199+02901+01901999999ADDGA1041+005181999GE19MSL   +99999+99999GF199999041999005181999999MA1101601999999REMMET051METAR SBUF 161200Z 08007KT 9999 SCT017 29/19 Q1016=
0142829860999992017021613004-09401-038251FM-15+026999999V0200901N004610061019N009999199+03101+01901999999ADDGA1071+006101999GE19MSL   +99999+99999GF199999071999006101999999MA1101601999999REMMET051METAR SBUF 161300Z 09009KT 9999 BKN020 31/19 Q1016=
0142829860999992017021614004-09401-038251FM-15+026999999V0201601N004610064019N009999199+03101+01801999999ADDGA1071+006401999GE19MSL   +99999+99999GF199999071999006401999999MA1101501999999REMMET051METAR SBUF 161400Z 16009KT 9999 BKN021 31/18 Q1015=
0142829860999992017021615004-09401-038251FM-15+026999999V0201601N004110067119N009999199+03201+01701999999ADDGA1071+006711999GE19MSL   +99999+99999GF199999071999006711999999MA1101501999999REMMET051METAR SBUF 161500Z 16008KT 9999 BKN022 32/17 Q1015=
0142829860999992017021616004-09401-038251FM-15+026999999V0201501N004610064019N009999199+03401+01701999999ADDGA1071+006401999GE19MSL   +99999+99999GF199999071999006401999999MA1101401999999REMMET051METAR SBUF 161600Z 15009KT 9999 BKN021 34/17 Q1014=
0142829860999992017021618004-09401-038251FM-15+026999999V0201101N005710064019N009999199+03501+01701999999ADDGA1071+006401999GE19MSL   +99999+99999GF199999071999006401999999MA1101201999999REMMET051METAR SBUF 161800Z 11011KT 9999 BKN021 35/17 Q1012=
0142829860999992017021619004-09401-038251FM-15+026999999V0201201N004110064019N009999199+03401+01601999999ADDGA1071+006401999GE19MSL   +99999+99999GF199999071999006401999999MA1101201999999REMMET051METAR SBUF 161900Z 12008KT 9999 BKN021 34/16 Q1012=
0142829860999992017021712004-09401-038251FM-15+026999999V0201201N005110061019N009999199+03001+01801999999ADDGA1071+006101999GE19MSL   +99999+99999GF199999071999006101999999MA1101501999999REMMET051METAR SBUF 171200Z 12010KT 9999 BKN020 30/18 Q1015=
0142829860999992017021713004-09401-038251FM-15+026999999V0201301N004619999999N009999199+03101+01801999999ADDGA1041+006101999GE19MSL   +99999+99999GF199999041999006101999999MA1101501999999REMMET051METAR SBUF 171300Z 13009KT 9999 SCT020 31/18 Q1015=
0142829860999992017021715004-09401-038251FM-15+026999999V0201001N005719999999N009999199+03401+01601999999ADDGA1041+006711999GE19MSL   +99999+99999GF199999041999006711999999MA1101301999999REMMET051METAR SBUF 171500Z 10011KT 9999 SCT022 34/16 Q1013=
0142829860999992017021716004-09401-038251FM-15+026999999V0201301N004119999999N009999199+03401+01601999999ADDGA1041+006711999GE19MSL   +99999+99999GF199999041999006711999999MA1101201999999REMMET051METAR SBUF 171600Z 13008KT 9999 SCT022 34/16 Q1012=
0142829860999992017021719004-09401-038251FM-15+026999999V0201001N005119999999N009999199+03501+01601999999ADDGA1041+007011999GE19MSL   +99999+99999GF199999041999007011999999MA1101101999999REMMET051METAR SBUF 171900Z 10010KT 9999 SCT023 35/16 Q1011=
0142829860999992017021812004-09401-038251FM-15+026999999V0200901N003619999999N009999199+02801+01901999999ADDGA1041+006101999GE19MSL   +99999+99999GF199999041999006101999999MA1101701999999REMMET051METAR SBUF 181200Z 09007KT 9999 SCT020 28/19 Q1017=
0142829860999992017021813004-09401-038251FM-15+026999999V0201101N004119999999N009999199+03101+01801999999ADDGA1041+006101999GE19MSL   +99999+99999GF199999041999006101999999MA1101601999999REMMET051METAR SBUF 181300Z 11008KT 9999 SCT020 31/18 Q1016=
0142829860999992017021814004-09401-038251FM-15+026999999V0201601N003619999999N009999199+03101+01701999999ADDGA1041+006101999GE19MSL   +99999+99999GF199999041999006101999999MA1101601999999REMMET051METAR SBUF 181400Z 16007KT 9999 SCT020 31/17 Q1016=
0142829860999992017021815004-09401-038251FM-15+026999999V0201201N002619999999N009999199+03301+01701999999ADDGA1041+006101999GE19MSL   +99999+99999GF199999041999006101999999MA1101501999999REMMET051METAR SBUF 181500Z 12005KT 9999 SCT020 33/17 Q1015=
0142829860999992017021816004-09401-038251FM-15+026999999V0200801N002619999999N009999199+03301+01601999999ADDGA1041+006101999GE19MSL   +99999+99999GF199999041999006101999999MA1101401999999REMMET051METAR SBUF 181600Z 08005KT 9999 SCT020 33/16 Q1014=
0142829860999992017021817004-09401-038251FM-15+026999999V0200801N002119999999N009999199+03501+01601999999ADDGA1041+006711999GE19MSL   +99999+99999GF199999041999006711999999MA1101301999999REMMET051METAR SBUF 181700Z 08004KT 9999 SCT022 35/16 Q1013=
0142829860999992017021818004-09401-038251FM-15+026999999V0200801N001519999999N009999199+03401+01601999999ADDGA1041+006711999GE19MSL   +99999+99999GF199999041999006711999999MA1101201999999REMMET051METAR SBUF 181800Z 08003KT 9999 SCT022 34/16 Q1012=
0142829860999992017021819004-09401-038251FM-15+026999999V0201001N002619999999N009999199+03401+01401999999ADDGA1041+006711999GE19MSL   +99999+99999GF199999041999006711999999MA1101101999999REMMET051METAR SBUF 181900Z 10005KT 9999 SCT022 34/14 Q1011=
0142829860999992017021912004-09401-038251FM-15+026999999V0200901N005119999999N009999199+02901+01901999999ADDGA1041+006101999GE19MSL   +99999+99999GF199999041999006101999999MA1101701999999REMMET051METAR SBUF 191200Z 09010KT 9999 SCT020 29/19 Q1017=
0142829860999992017021913004-09401-038251FM-15+026999999V0201101N004119999999N009999199+03001+01701999999ADDGA1041+006101999GE19MSL   +99999+99999GF199999041999006101999999MA1101701999999REMMET051METAR SBUF 191300Z 11008KT 9999 SCT020 30/17 Q1017=
0142829860999992017021914004-09401-038251FM-15+026999999V0201301N002619999999N009999199+03101+01601999999ADDGA1041+006401999GE19MSL   +99999+99999GF199999041999006401999999MA1101601999999REMMET051METAR SBUF 191400Z 13005KT 9999 SCT021 31/16 Q1016=
0142829860999992017021916004-09401-038251FM-15+026999999V0201201N003119999999N009999199+03401+01501999999ADDGA1041+007011999GE19MSL   +99999+99999GF199999041999007011999999MA1101401999999REMMET051METAR SBUF 191600Z 12006KT 9999 SCT023 34/15 Q1014=
0142829860999992017021917004-09401-038251FM-15+026999999V0201001N003119999999N009999199+03501+01401999999ADDGA1041+007321999GE19MSL   +99999+99999GF199999041999007321999999MA1101301999999REMMET051METAR SBUF 191700Z 10006KT 9999 SCT024 35/14 Q1013=
0142829860999992017021918004-09401-038251FM-15+026999999V0200901N005119999999N009999199+03601+01301999999ADDGA1041+007621999GE19MSL   +99999+99999GF199999041999007621999999MA1101201999999REMMET051METAR SBUF 191800Z 09010KT 9999 SCT025 36/13 Q1012=
0142829860999992017021919004-09401-038251FM-15+026999999V0201101N004119999999N009999199+03601+01301999999ADDGA1041+007621999GE19MSL   +99999+99999GF199999041999007621999999MA1101101999999REMMET051METAR SBUF 191900Z 11008KT 9999 SCT025 36/13 Q1011=
0142829860999992017022012004-09401-038251FM-15+026999999V0201201N003610061019N009999199+03001+02001999999ADDGA1071+006101999GE19MSL   +99999+99999GF199999071999006101999999MA1101601999999REMMET051METAR SBUF 201200Z 12007KT 9999 BKN020 30/20 Q1016=
0142829860999992017022013004-09401-038251FM-15+026999999V0201101N004619999999N009999199+03201+01901999999ADDGA1041+006401999GE19MSL   +99999+99999GF199999041999006401999999MA1101601999999REMMET051METAR SBUF 201300Z 11009KT 9999 SCT021 32/19 Q1016=
0142829860999992017022014004-09401-038251FM-15+026999999V0201101N004619999999N009999199+03301+01801999999ADDGA1041+006401999GE19MSL   +99999+99999GF199999041999006401999999MA1101501999999REMMET051METAR SBUF 201400Z 11009KT 9999 SCT021 33/18 Q1015=
0142829860999992017022015004-09401-038251FM-15+026999999V0201201N005110064019N009999199+03401+01701999999ADDGA1071+006401999GE19MSL   +99999+99999GF199999071999006401999999MA1101401999999REMMET051METAR SBUF 201500Z 12010KT 9999 BKN021 34/17 Q1014=
0142829860999992017022016004-09401-038251FM-15+026999999V0201301N003619999999N009999199+03601+01601999999ADDGA1041+006401999GE19MSL   +99999+99999GF199999041999006401999999MA1101301999999REMMET051METAR SBUF 201600Z 13007KT 9999 SCT021 36/16 Q1013=
0142829860999992017022018004-09401-038251FM-15+026999999V0201201N004619999999N009999199+03701+01501999999ADDGA1041+006711999GE19MSL   +99999+99999GF199999041999006711999999MA1101101999999REMMET051METAR SBUF 201800Z 12009KT 9999 SCT022 37/15 Q1011=
0142829860999992017022019004-09401-038251FM-15+026999999V0201501N004119999999N009999199+03701+01501999999ADDGA1021+006711999GE19MSL   +99999+99999GF199999021999006711999999MA1101001999999REMMET051METAR SBUF 201900Z 15008KT 9999 FEW022 37/15 Q1010=
0142829860999992017022020004-09401-038251FM-15+026999999V0201101N010819999999N009999199+03201+01901999999ADDGA1021+006401999GE19MSL   +99999+99999GF199999021999006401999999MA1101101999999REMMET051METAR SBUF 202000Z 11021KT 9999 FEW021 32/19 Q1011=
0165829860999992017022109004-09401-038251FM-15+026999999V0201401N00361004881CN009999199+02401+02101999999ADDGA1021+003961999GA2041+004881999GE19MSL   +99999+99999GF199999021999003961999999MA1101501999999REMMET058METAR SBUF 210900Z 14007KT 9999 FEW013 SCT016 24/21 Q1015=
