0136834980999992017010112004-17739-039259FM-12+000399999V0200501N0015100600199002000199+02671+02541101471ADDAA101999999AZ101061AZ201061GA1061+006001081GE19MSL   +99999+99999GF106991061999006001999999MA1999999101421MD1999999-0101REMSYN004BUFR
0136834980999992017010118004-17739-039259FM-12+000399999V0200501N0036199999999002000199+02951+02541101151ADDAA101999999AZ101061AZ201061GA1031+006001081GE19MSL   +99999+99999GF103991031999006001999999MA1999999101101MD1999999-0381REMSYN004BUFR
0136834980999992017010212004-17739-039259FM-12+000399999V0203601N0021100600199002000199+02751+02451101151ADDAA101999999AZ101061AZ201061GA1061+006001081GE19MSL   +99999+99999GF106991061999006001999999MA1999999101101MD1999999-0321REMSYN004BUFR
0152834980999992017010218004-17739-039259FM-12+000399999V0200501N0036199999999002000199+02921+02521100971ADDAA101999999AZ101061AZ201061GA1021+006001081GA2999+999999001GE19MSL   +99999+99999GF104991021999006001999999MA1999999100921MD1999999-0181REMSYN004BUFR
0152834980999992017010312004-17739-039259FM-12+000399999V0203601N0015199999999002000199+02721+02481101271ADDAA101999999AZ101061AZ201061GA1031+006001081GA2999+999999031GE19MSL   +99999+99999GF106991031999006001999999MA1999999101221MD1999999+0121REMSYN004BUFR
0168834980999992017010318004-17739-039259FM-12+000399999V0203601N0026199999999002000199+02921+02581101061ADDAA101999999AZ101061AZ201061GA1021+006001081GA2999+999999031GA3999+999999001GE19MSL   +99999+99999GF106991021999006001999999MA1999999101011MD1999999+0091REMSYN004BUFR
0142834980999992017010412004-17739-039259FM-12+000399999V0200501N0031100600199002000199+02721+02501101451ADDAA124000331AY161061AY221061GA1061+006001081GE19MSL   +99999+99999GF106991061999006001999999MA1999999101401MD1999999+0181MW1211REMSYN004BUFR
0152834980999992017010418004-17739-039259FM-12+000399999V0200501N0036199999999002000199+02821+02501101251ADDAA101999999AZ101061AZ201061GA1041+006001061GA2999+999999001GE19MSL   +99999+99999GF108991041999006001999999MA1999999101201MD1999999+0191REMSYN004BUFR
0110834980999992017010500004-17733-039250FM-12+000399999V0209999C000019999999N002000199+02741+02471101411ADDKA1120N+00871MA1999999101361REMSYN07083498 32995 00000 10274 20247 30136 40141 333 1//// 29087 55/// 58021=
0136834980999992017010512004-17739-039259FM-12+000399999V0203601N0031100600199002000199+02671+02561101451ADDAA101999999AZ101061AZ201061GA1061+006001081GE19MSL   +99999+99999GF106991061999006001999999MA1999999101401MD1999999+0001REMSYN004BUFR
0136834980999992017010518004-17739-039259FM-12+000399999V0203601N0026199999999002000199+02901+02521101321ADDAA101999999AZ101061AZ201061GA1021+006001081GE19MSL   +99999+99999GF102991021999006001999999MA1999999101271MD1999999+0071REMSYN004BUFR
0098834980999992017010600004-17739-039259FM-12+000399999V0203601N0000122000199002000199+02811+02711101391ADDAA101999999AZ101061AZ201061GF100991999999999999999999MA1999999101341MD1999999-0021REMSYN004BUFR
0136834980999992017010612004-17739-039259FM-12+000399999V0200501N0021100600199002000199+02751+02381101501ADDAA101999999AZ101061AZ201061GA1051+006001081GE19MSL   +99999+99999GF105991051999006001999999MA1999999101451MD1999999+0051REMSYN004BUFR
0136834980999992017010618004-17739-039259FM-12+000399999V0200501N0041199999999002000199+02901+02431101421ADDAA101999999AZ101061AZ201061GA1031+006001081GE19MSL   +99999+99999GF103991031999006001999999MA1999999101371MD1999999+0101REMSYN004BUFR
0136834980999992017010700004-17739-039259FM-12+000399999V0200501N0010199999999002000199+02821+02421101391ADDAA101999999AZ101061AZ201061GA1021+006001081GE19MSL   +99999+99999GF102991021999006001999999MA1999999101341MD1999999+0001REMSYN004BUFR
0136834980999992017010712004-17739-039259FM-12+000399999V0203601N0010100600199002000199+02701+02501101471ADDAA101999999AZ101061AZ201061GA1051+006001081GE19MSL   +99999+99999GF105991051999006001999999MA1999999101421MD1999999-0031REMSYN004BUFR
0152834980999992017010718004-17739-039259FM-12+000399999V0200501N0015199999999002000199+02851+02621101331ADDAA101999999AZ101061AZ201061GA1031+006001061GA2999+999999041GE19MSL   +99999+99999GF106991031999006001999999MA1999999101281MD1999999-0091REMSYN004BUFR
0152834980999992017010812004-17739-039259FM-12+000399999V0200501N0021199999999002000199+02671+02451101471ADDAA101999999AZ101061AZ201061GA1041+006001081GA2999+999999001GE19MSL   +99999+99999GF106991041999006001999999MA1999999101421MD1999999+0001REMSYN004BUFR
0152834980999992017010818004-17739-039259FM-12+000399999V0200501N0036199999999002000199+02851+02621101431ADDAA101999999AZ101061AZ201061GA1031+006001081GA2999+999999001GE19MSL   +99999+99999GF104991031999006001999999MA1999999101381MD1999999+0101REMSYN004BUFR
0136834980999992017010912004-17739-039259FM-12+000399999V0203601N0005100600199002000199+02671+02561101341ADDAA101999999AZ101061AZ201061GA1051+006001081GE19MSL   +99999+99999GF105991051999006001999999MA1999999101291MD1999999-0131REMSYN004BUFR
0152834980999992017010918004-17739-039259FM-12+000399999V0200501N0026199999999002000199+02911+02761101011ADDAA101999999AZ101061AZ201061GA1021+006001081GA2999+999999001GE19MSL   +99999+99999GF104991021999006001999999MA1999999100961MD1999999-0421REMSYN004BUFR
0136834980999992017011000004-17739-039259FM-12+000399999V0200501N0015199999999002000199+02771+02661101131ADDAA101999999AZ101061AZ201061GA1041+006001081GE19MSL   +99999+99999GF104991041999006001999999MA1999999101081MD1999999-0281REMSYN004BUFR
0136834980999992017011012004-17739-039259FM-12+000399999V0200501N0031100600199002000199+02761+02461101191ADDAA101999999AZ101061AZ201061GA1051+006001081GE19MSL   +99999+99999GF105991051999006001999999MA1999999101141MD1999999-0151REMSYN004BUFR
0152834980999992017011018004-17739-039259FM-12+000399999V0200501N0041199999999002000199+02901+02641100961ADDAA101999999AZ101061AZ201061GA1011+006001081GA2999+999999001GE19MSL   +99999+99999GF104991011999006001999999MA1999999100911MD1999999-0051REMSYN004BUFR
0098834980999992017011100004-17739-039259FM-12+000399999V0203601N0000122000199002000199+02821+02521101111ADDAA101999999AZ101061AZ201061GF100991999999999999999999MA1999999101061MD1999999-0021REMSYN004BUFR
0136834980999992017011112004-17739-039259FM-12+000399999V0203601N0031100600199002000199+02801+02461101191ADDAA101999999AZ101061AZ201061GA1051+006001081GE19MSL   +99999+99999GF105991051999006001999999MA1999999101141MD1999999+0001REMSYN004BUFR
0136834980999992017011118004-17739-039259FM-12+000399999V0203601N0041199999999002000199+02971+02531100841ADDAA101999999AZ101061AZ201061GA1011+006001081GE19MSL   +99999+99999GF101991011999006001999999MA1999999100791MD1999999-0121REMSYN004BUFR
0136834980999992017011200004-17739-039259FM-12+000399999V0200501N0015199999999002000199+02851+02521101011ADDAA101999999AZ101061AZ201061GA1021+006001081GE19MSL   +99999+99999GF102991021999006001999999MA1999999100961MD1999999-0101REMSYN004BUFR
0152834980999992017011212004-17739-039259FM-12+000399999V0203601N0031199999999002000199+02761+02561101211ADDAA101999999AZ101061AZ201061GA1041+006001081GA2999+999999051GE19MSL   +99999+99999GF106991041999006001999999MA1999999101161MD1999999+0021REMSYN004BUFR
0136834980999992017011218004-17739-039259FM-12+000399999V0203601N0041199999999002000199+03001+02571100981ADDAA101999999AZ101061AZ201061GA1021+006001081GE19MSL   +99999+99999GF102991021999006001999999MA1999999100931MD1999999+0141REMSYN004BUFR
0152834980999992017011312004-17739-039259FM-12+000399999V0200501N0021199999999002000199+02821+02501101211ADDAA101999999AZ101061AZ201061GA1021+006001081GA2999+999999011GE19MSL   +99999+99999GF105991021999006001999999MA1999999101161MD1999999+0001REMSYN004BUFR
0152834980999992017011318004-17739-039259FM-12+000399999V0200501N0026199999999002000199+02971+02601100991ADDAA101999999AZ101061AZ201061GA1021+006001081GA2999+999999031GE19MSL   +99999+99999GF104991021999006001999999MA1999999100941MD1999999+0011REMSYN004BUFR
0136834980999992017011400004-17739-039259FM-12+000399999V0200501N0010199999999002000199+02851+02001101081ADDAA101999999AZ101061AZ201061GA1031+006001081GE19MSL   +99999+99999GF103991031999006001999999MA1999999101031MD1999999+0031REMSYN004BUFR
0136834980999992017011412004-17739-039259FM-12+000399999V0203601N0015199999999002000199+02771+02461101101ADDAA101999999AZ101061AZ201061GA1041+006001081GE19MSL   +99999+99999GF104991041999006001999999MA1999999101051MD1999999+0021REMSYN004BUFR
0168834980999992017011418004-17739-039259FM-12+000399999V0203601N0026199999999002000199+03001+02491100791ADDAA101999999AZ101061AZ201061GA1011+006001081GA2999+999999031GA3999+999999001GE19MSL   +99999+99999GF103991011999006001999999MA1999999100741MD1999999-0201REMSYN004BUFR
0152834980999992017011512004-17739-039259FM-12+000399999V0203601N0015199999999002000199+02871+02441101211ADDAA101999999AZ101061AZ201061GA1021+006001081GA2999+999999031GE19MSL   +99999+99999GF104991021999006001999999MA1999999101161MD1999999-0111REMSYN004BUFR
0152834980999992017011518004-17739-039259FM-12+000399999V0203601N0015199999999002000199+02901+02621101021ADDAA101999999AZ101061AZ201061GA1031+006001061GA2999+999999031GE19MSL   +99999+99999GF106991031999006001999999MA1999999100971MD1999999+0231REMSYN004BUFR
0152834980999992017011612004-17739-039259FM-12+000399999V0203601N0015199999999002000199+02801+02441101321ADDAA101999999AZ101061AZ201061GA1021+006001081GA2999+999999031GE19MSL   +99999+99999GF106991021999006001999999MA1999999101271MD1999999+0111REMSYN004BUFR
0152834980999992017011618004-17739-039259FM-12+000399999V0200501N0015100600199002000199+02821+02421101151ADDAA101999999AZ101061AZ201061GA1051+006001061GA2999+999999041GE19MSL   +99999+99999GF107991051999006001999999MA1999999101101MD1999999+0171REMSYN004BUFR
0136834980999992017011700004-17739-039259FM-12+000399999V0203601N0000199999999002000199+02801+02521102201ADDAA101999999AZ101061AZ201061GA1021+006001081GE19MSL   +99999+99999GF102991021999006001999999MA1999999101151MD1999999+0051REMSYN004BUFR
0158834980999992017011712004-17739-039259FM-12+000399999V0201801N0005199999999002000199+02601+02481101341ADDAA124002031AY161061AY261061GA1021+006001081GA2999+999999031GE19MSL   +99999+99999GF104991021999006001999999MA1999999101291MD1999999+0021MW1211REMSYN004BUFR
0136834980999992017011718004-17739-039259FM-12+000399999V0200901N0021199999999002000199+02821+02421101011ADDAA101999999AZ101061AZ201061GA1031+006001021GE19MSL   +99999+99999GF103991031999006001999999MA1999999100961MD1999999-0141REMSYN004BUFR
0098834980999992017011800004-17739-039259FM-12+000399999V0203601N0000122000199002000199+02751+02651101181ADDAA101999999AZ101061AZ201061GF100991999999999999999999MA1999999101131MD1999999-0021REMSYN004BUFR
0158834980999992017011812004-17739-039259FM-12+000399999V0200501N0026199999999002000199+02701+02481101341ADDAA124000331AY121061AY211061GA1031+006001081GA2999+999999051GE19MSL   +99999+99999GF106991031999006001999999MA1999999101291MD1999999+0001MW1031REMSYN004BUFR
0152834980999992017011818004-17739-039259FM-12+000399999V0200501N0026199999999002000199+02951+02521101201ADDAA101999999AZ101061AZ201061GA1021+006001081GA2999+999999021GE19MSL   +99999+99999GF103991021999006001999999MA1999999101151MD1999999+0191REMSYN004BUFR
0098834980999992017011900004-17739-039259FM-12+000399999V0203601N0000122000199002000199+02821+02661101251ADDAA101999999AZ101061AZ201061GF100991999999999999999999MA1999999101201MD1999999+0071REMSYN004BUFR
0136834980999992017011912004-17739-039259FM-12+000399999V0200901N0015199999999002000199+02711+02521101371ADDAA101999999AZ101061AZ201061GA1041+006001081GE19MSL   +99999+99999GF104991041999006001999999MA1999999101321MD1999999+0031REMSYN004BUFR
0136834980999992017011918004-17739-039259FM-12+000399999V0200901N0026199999999002000199+02901+02681101241ADDAA101999999AZ101061AZ201061GA1021+006001081GE19MSL   +99999+99999GF102991021999006001999999MA1999999101191MD1999999+0041REMSYN004BUFR
0098834980999992017012000004-17739-039259FM-12+000399999V0200901N0015122000199002000199+02871+02641101341ADDAA101999999AZ101061AZ201061GF100991999999999999999999MA1999999101291MD1999999+0091REMSYN004BUFR
0152834980999992017012012004-17739-039259FM-12+000399999V0201401N0015199999999002000199+02751+02481101521ADDAA101999999AZ101061AZ201061GA1041+006001061GA2999+999999031GE19MSL   +99999+99999GF106991041999006001999999MA1999999101471MD1999999+0151REMSYN004BUFR
0136834980999992017012018004-17739-039259FM-12+000399999V0200901N0026199999999002000199+03011+02781101311ADDAA101999999AZ101061AZ201061GA1021+006001081GE19MSL   +99999+99999GF102991021999006001999999MA1999999101261MD1999999+0071REMSYN004BUFR
0136834980999992017012100004-17739-039259FM-12+000399999V0200901N0015199999999002000199+02901+02431101421ADDAA101999999AZ101061AZ201061GA1021+006001081GE19MSL   +99999+99999GF102991021999006001999999MA1999999101371MD1999999+0081REMSYN004BUFR
0136834980999992017012112004-17739-039259FM-12+000399999V0200901N0015100600199002000199+02721+02471101371ADDAA101999999AZ101061AZ201061GA1061+006001081GE19MSL   +99999+99999GF106991061999006001999999MA1999999101321MD1999999-0151REMSYN004BUFR
0136834980999992017012118004-17739-039259FM-12+000399999V0200901N0015199999999002000199+03001+02511101271ADDAA101999999AZ101061AZ201061GA1021+006001081GE19MSL   +99999+99999GF102991021999006001999999MA1999999101221MD1999999-0041REMSYN004BUFR
0158834980999992017012212004-17739-039259FM-12+000399999V0202701N0010199999999002000199+02621+02461101361ADDAA124013031AY161061AY261061GA1041+006001061GA2999+999999041GE19MSL   +99999+99999GF106991041999006001999999MA1999999101311MD1999999-0011MW1211REMSYN004BUFR
0158834980999992017012218004-17739-039259FM-12+000399999V0200901N0031199999999002000199+02951+02361101131ADDAA106001031AY121061AY211061GA1021+006001081GA2999+999999001GE19MSL   +99999+99999GF105991021999006001999999MA1999999101081MD1999999-0141MW1031REMSYN004BUFR
0136834980999992017012312004-17739-039259FM-12+000399999V0200501N0015100600199002000199+02671+02501101381ADDAA124001031AZ101061AZ201061GA1061+006001081GE19MSL   +99999+99999GF106991061999006001999999MA1999999101331MD1999999+0021REMSYN004BUFR
0152834980999992017012318004-17739-039259FM-12+000399999V0203601N0031199999999002000199+02901+02721101201ADDAA101999999AZ101061AZ201061GA1021+006001081GA2999+999999031GE19MSL   +99999+99999GF105991021999006001999999MA1999999101151MD1999999+0071REMSYN004BUFR
0136834980999992017012400004-17739-039259FM-12+000399999V0203601N0000199999999002000199+02821+02641101321ADDAA101999999AZ101061AZ201061GA1011+006001081GE19MSL   +99999+99999GF101991011999006001999999MA1999999101271MD1999999+0051REMSYN004BUFR
0158834980999992017012412004-17739-039259FM-12+000399999V0202701N0015199999999002000199+02701+02451101471ADDAA124000831AY121061AY211061GA1041+006001061GA2999+999999041GE19MSL   +99999+99999GF106991041999006001999999MA1999999101421MD1999999+0091MW1031REMSYN004BUFR
0136834980999992017012418004-17739-039259FM-12+000399999V0200501N0041199999999002000199+02971+02451101261ADDAA101999999AZ101061AZ201061GA1031+006001081GE19MSL   +99999+99999GF103991031999006001999999MA1999999101211MD1999999+0061REMSYN004BUFR
0152834980999992017012500004-17739-039259FM-12+000399999V0200501N0015199999999002000199+02871+02521101451ADDAA101999999AZ101061AZ201061GA1031+006001081GA2999+999999041GE19MSL   +99999+99999GF105991031999006001999999MA1999999101401MD1999999+0131REMSYN004BUFR
0136834980999992017012512004-17739-039259FM-12+000399999V0200501N0026100600199002000199+02771+02501101521ADDAA101999999AZ101061AZ201061GA1051+006001081GE19MSL   +99999+99999GF105991051999006001999999MA1999999101471MD1999999+0051REMSYN004BUFR
0136834980999992017012518004-17739-039259FM-12+000399999V0200501N0031199999999002000199+03021+02551101351ADDAA101999999AZ101061AZ201061GA1031+006001081GE19MSL   +99999+99999GF103991031999006001999999MA1999999101301MD1999999+0191REMSYN004BUFR
0098834980999992017012600004-17739-039259FM-12+000399999V0200901N0005122000199002000199+02871+02641101341ADDAA101999999AZ101061AZ201061GF100991999999999999999999MA1999999101291MD1999999-0111REMSYN004BUFR
0136834980999992017012612004-17739-039259FM-12+000399999V0200501N0015199999999002000199+02721+02341101521ADDAA101999999AZ101061AZ201061GA1041+006001081GE19MSL   +99999+99999GF104991041999006001999999MA1999999101471MD1999999+0001REMSYN004BUFR
0136834980999992017012618004-17739-039259FM-12+000399999V0200901N0021199999999002000199+02951+02381101301ADDAA101999999AZ101061AZ201061GA1021+006001081GE19MSL   +99999+99999GF102991021999006001999999MA1999999101251MD1999999-0051REMSYN004BUFR
0152834980999992017012712004-17739-039259FM-12+000399999V0203601N0021199999999002000199+02801+02361101631ADDAA101999999AZ101061AZ201061GA1031+006001081GA2999+999999031GE19MSL   +99999+99999GF106991031999006001999999MA1999999101581MD1999999+0111REMSYN004BUFR
0136834980999992017012718004-17739-039259FM-12+000399999V0200501N0026199999999002000199+02971+02511101471ADDAA101999999AZ101061AZ201061GA1041+006001081GE19MSL   +99999+99999GF104991041999006001999999MA1999999101421MD1999999+0171REMSYN004BUFR
0136834980999992017012800004-17739-039259FM-12+000399999V0203601N0000199999999002000199+02901+02621101601ADDAA101999999AZ101061AZ201061GA1011+006001081GE19MSL   +99999+99999GF101991011999006001999999MA1999999101551MD1999999+0161REMSYN004BUFR
0158834980999992017012812004-17739-039259FM-12+000399999V0200901N0026199999999002000199+02801+02481101731ADDAA124009031AY121061AY211061GA1041+006001061GA2999+999999041GE19MSL   +99999+99999GF106991041999006001999999MA1999999101681MD1999999+0101MW1031REMSYN004BUFR
0136834980999992017012818004-17739-039259FM-12+000399999V0201401N0031199999999002000199+02951+02471101521ADDAA101999999AZ101061AZ201061GA1041+006001081GE19MSL   +99999+99999GF104991041999006001999999MA1999999101471MD1999999+0051REMSYN004BUFR
0152834980999992017012912004-17739-039259FM-12+000399999V0203601N0000199999999002000199+02711+02501101681ADDAA101999999AZ101061AZ201061GA1021+006001081GA2999+999999031GE19MSL   +99999+99999GF104991021999006001999999MA1999999101631MD1999999-0051REMSYN004BUFR
0136834980999992017012918004-17739-039259FM-12+000399999V0201401N0010199999999002000199+02951+02641101511ADDAA101999999AZ101061AZ201061GA1031+006001081GE19MSL   +99999+99999GF103991031999006001999999MA1999999101461MD1999999-0011REMSYN004BUFR
0158834980999992017013012004-17739-039259FM-12+000399999V0203601N0015199999999002000199+02671+02411101601ADDAA124002031AY161061AY261061GA1041+006001061GA2999+999999031GE19MSL   +99999+99999GF106991041999006001999999MA1999999101551MD1999999-0071MW1601REMSYN004BUFR
0136834980999992017013018004-17739-039259FM-12+000399999V0200901N0015199999999002000199+02971+02451101321ADDAA101999999AZ101061AZ201061GA1031+006001081GE19MSL   +99999+99999GF103991031999006001999999MA1999999101271MD1999999-0191REMSYN004BUFR
0136834980999992017013100004-17739-039259FM-12+000399999V0203601N0000199999999002000199+02871+02461101501ADDAA101999999AZ101061AZ201061GA1011+006001081GE19MSL   +99999+99999GF101991011999006001999999MA1999999101451MD1999999-0131REMSYN004BUFR
0158834980999992017013112004-17739-039259FM-12+000399999V0203601N0000199999999002000199+02671+02521101511ADDAA124019031AY161061AY261061GA1031+006001061GA2999+999999051GE19MSL   +99999+99999GF106991031999006001999999MA1999999101461MD1999999-0101MW1611REMSYN004BUFR
0174834980999992017013118004-17739-039259FM-12+000399999V0201801N0005199999999002000199+02751+02561101281ADDAA106007031AY161061AY261061GA1021+006001081GA2999+999999031GA3999+999999001GE19MSL   +99999+99999GF105991021999006001999999MA1999999101231MD1999999-0041MW1211REMSYN004BUFR
0098834980999992017020100004-17739-039259FM-12+000399999V0203601N0000122000199002000199+02721+02541101281ADDAA101999999AZ101061AZ201061GF100991999999999999999999MA1999999101231MD1999999-0221REMSYN004BUFR
0142834980999992017020112004-17739-039259FM-12+000399999V0201801N0010100600199002000199+02611+02401101331ADDAA124007031AY161061AY261061GA1051+006001061GE19MSL   +99999+99999GF105991051999006001999999MA1999999101281MD1999999-0161MW1601REMSYN004BUFR
0136834980999992017020118004-17739-039259FM-12+000399999V0200501N0031199999999002000199+02901+02411101071ADDAA101999999AZ101061AZ201061GA1041+006001001GE19MSL   +99999+99999GF104991041999006001999999MA1999999101021MD1999999-0211REMSYN004BUFR
0152834980999992017020212004-17739-039259FM-12+000399999V0203601N0015199999999002000199+02771+02481101271ADDAA101999999AZ101061AZ201061GA1031+006001081GA2999+999999031GE19MSL   +99999+99999GF106991031999006001999999MA1999999101221MD1999999-0061REMSYN004BUFR
0152834980999992017020218004-17739-039259FM-12+000399999V0200501N0015199999999002000199+02961+02641101051ADDAA101999999AZ101061AZ201061GA1021+006001081GA2999+999999031GE19MSL   +99999+99999GF105991021999006001999999MA1999999101001MD1999999-0021REMSYN004BUFR
0158834980999992017020312004-17739-039259FM-12+000399999V0201401N0005199999999002000199+02701+02541101351ADDAA124000131AY161061AY261061GA1041+006001061GA2999+999999041GE19MSL   +99999+99999GF107991041999006001999999MA1999999101301MD1999999+0081MW1601REMSYN004BUFR
0152834980999992017020318004-17739-039259FM-12+000399999V0200501N0031199999999002000199+02951+02431101051ADDAA101999999AZ101061AZ201061GA1011+006001081GA2999+999999001GE19MSL   +99999+99999GF105991011999006001999999MA1999999101001MD1999999+0001REMSYN004BUFR
0158834980999992017020412004-17739-039259FM-12+000399999V0203601N0000199999999002000199+02671+02541101291ADDAA124012031AY161061AY261061GA1031+006001061GA2999+999999051GE19MSL   +99999+99999GF106991031999006001999999MA1999999101241MD1999999-0061MW1611REMSYN004BUFR
0158834980999992017020418004-17739-039259FM-12+000399999V0200501N0026199999999002000199+02851+02541101021ADDAA106000131AY121061AY211061GA1031+006001081GA2999+999999021GE19MSL   +99999+99999GF106991031999006001999999MA1999999100971MD1999999-0031MW1031REMSYN004BUFR
0152834980999992017020512004-17739-039259FM-12+000399999V0203601N0015199999999002000199+02701+02391101301ADDAA124000131AZ101061AZ201061GA1031+006001081GA2999+999999051GE19MSL   +99999+99999GF106991031999006001999999MA1999999101251MD1999999+0011REMSYN004BUFR
0152834980999992017020518004-17739-039259FM-12+000399999V0203601N0041199999999002000199+02851+02481100971ADDAA101999999AZ101061AZ201061GA1031+006001081GA2999+999999051GE19MSL   +99999+99999GF106991031999006001999999MA1999999100921MD1999999-0051REMSYN004BUFR
0152834980999992017020612004-17739-039259FM-12+000399999V0200501N0021199999999002000199+02721+02391101161ADDAA101999999AZ101061AZ201061GA1021+006001081GA2999+999999031GE19MSL   +99999+99999GF104991021999006001999999MA1999999101111MD1999999-0141REMSYN004BUFR
0152834980999992017020618004-17739-039259FM-12+000399999V0200901N0031199999999002000199+02921+02501100841ADDAA101999999AZ101061AZ201061GA1011+006001081GA2999+999999031GE19MSL   +99999+99999GF103991011999006001999999MA1999999100791MD1999999-0131REMSYN004BUFR
0152834980999992017020712004-17739-039259FM-12+000699999V0203601N0015199999999002000199+02771+02401101101ADDAA101999999AZ101061AZ201061GA1041+006001061GA2999+999999041GE19MSL   +99999+99999GF107991041999006001999999MA1999999101051MD1999999-0061REMSYN004BUFR
0152834980999992017020718004-17739-039259FM-12+000699999V0200501N0031199999999002000199+02871+02421100881ADDAA101999999AZ101061AZ201061GA1041+006001061GA2999+999999041GE19MSL   +99999+99999GF107991041999006001999999MA1999999100831MD1999999+0041REMSYN004BUFR
0158834980999992017020812004-17739-039259FM-12+000699999V0203601N0015199999999002000199+02821+02621101091ADDAA124002031AY161061AY201061GA1031+006001061GA2999+999999051GE19MSL   +99999+99999GF106991031999006001999999MA1999999101041MD1999999-0011MW1211REMSYN004BUFR
0158834980999992017020818004-17739-039259FM-12+000699999V0200901N0026199999999002000199+02801+02561100851ADDAA106001031AY161061AY261061GA1031+006001061GA2999+999999031GE19MSL   +99999+99999GF106991031999006001999999MA1999999100801MD1999999-0031MW1211REMSYN004BUFR
0174834980999992017020912004-17739-039259FM-12+000699999V0203601N0000100600199002000199+02571+02461101311ADDAA124009031AY161061AY261061GA1051+006001061GA2999+999999051GA3999+999999101GE19MSL   +99999+99999GF108991051999006001999999MA1999999101261MD1999999+0221MW1601REMSYN004BUFR
0158834980999992017020918004-17739-039259FM-12+000699999V0200901N0010100600199002000199+02671+02521101081ADDAA106000231AY121061AY211061GA1051+006001061GA2999+999999041GE19MSL   +99999+99999GF107991051999006001999999MA1999999101031MD1999999+0231MW1031REMSYN004BUFR
0152834980999992017021012004-17739-039259FM-12+000699999V0203601N0000199999999002000199+02501+02381101361ADDAA124003031AZ101061AZ201061GA1031+006001081GA2999+999999031GE19MSL   +99999+99999GF106991031999006001999999MA1999999101311MD1999999+0051REMSYN004BUFR
0152834980999992017021018004-17739-039259FM-12+000699999V0201801N0026199999999002000199+02751+02561101141ADDAA101999999AZ101061AZ201061GA1021+006001081GA2999+999999031GE19MSL   +99999+99999GF105991021999006001999999MA1999999101091MD1999999+0061REMSYN004BUFR
0158834980999992017021112004-17739-039259FM-12+000699999V0201401N0010199999999002000199+02561+02401101271ADDAA124008031AY161061AY261061GA1041+006001061GA2999+999999041GE19MSL   +99999+99999GF106991041999006001999999MA1999999101221MD1999999-0091MW1611REMSYN004BUFR
0136834980999992017021118004-17739-039259FM-12+000699999V0200501N0015199999999002000199+02771+02251101051ADDAA101999999AZ101061AZ201061GA1031+006001081GE19MSL   +99999+99999GF103991031999006001999999MA1999999101001MD1999999-0091REMSYN004BUFR
0158834980999992017021212004-17739-039259FM-12+000699999V0203601N0000199999999002000199+02571+02471101291ADDAA124004031AY161061AY261061GA1031+006001061GA2999+999999051GE19MSL   +99999+99999GF106991031999006001999999MA1999999101241MD1999999+0021MW1601REMSYN004BUFR
0136834980999992017021218004-17739-039259FM-12+000699999V0200901N0015100600199002000199+02801+02641101091ADDAA101999999AZ101061AZ201061GA1051+006001081GE19MSL   +99999+99999GF105991051999006001999999MA1999999101041MD1999999+0041REMSYN004BUFR
0158834980999992017021312004-17739-039259FM-12+000699999V0200501N0015100600199002000199+02571+02401101371ADDAA124021031AY161061AY261061GA1051+006001061GA2999+999999041GE19MSL   +99999+99999GF107991051999006001999999MA1999999101321MD1999999+0081MW1601REMSYN004BUFR
0152834980999992017021318004-17739-039259FM-12+000699999V0200901N0026199999999002000199+02751+02471101191ADDAA101999999AZ101061AZ201061GA1021+006001081GA2999+999999031GE19MSL   +99999+99999GF105991021999006001999999MA1999999101141MD1999999+0101REMSYN004BUFR
0152834980999992017021412004-17739-039259FM-12+000699999V0200901N0015199999999002000199+02621+02531101641ADDAA124004031AZ101061AZ201061GA1031+006001061GA2999+999999051GE19MSL   +99999+99999GF106991031999006001999999MA1999999101591MD1999999+0271REMSYN004BUFR
0152834980999992017021418004-17739-039259FM-12+000699999V0201401N0015199999999002000199+02771+02581101521ADDAA101999999AZ101061AZ201061GA1021+006001081GA2999+999999021GE19MSL   +99999+99999GF105991021999006001999999MA1999999101471MD1999999+0331REMSYN004BUFR
0168834980999992017021512004-17739-039259FM-12+000699999V0200901N0015199999999002000199+02671+02481101831ADDAA101999999AZ101061AZ201061GA1041+006001061GA2999+999999051GA3999+999999101GE19MSL   +99999+99999GF108991041999006001999999MA1999999101781MD1999999+0191REMSYN004BUFR
0168834980999992017021518004-17739-039259FM-12+000699999V0200901N0026199999999002000199+02851+02521101631ADDAA101999999AZ101061AZ201061GA1031+006001061GA2999+999999041GA3999+999999101GE19MSL   +99999+99999GF108991031999006001999999MA1999999101581MD1999999+0111REMSYN004BUFR
0142834980999992017021612004-17739-039259FM-12+000699999V0200901N0031100600199002000199+02721+02471101821ADDAA124002031AY121061AY211061GA1051+006001081GE19MSL   +99999+99999GF105991051999006001999999MA1999999101771MD1999999-0231MW1031REMSYN004BUFR
0152834980999992017021618004-17739-039259FM-12+000699999V0201401N0026199999999002000199+02901+02391101391ADDAA101999999AZ101061AZ201061GA1031+006001081GA2999+999999051GE19MSL   +99999+99999GF106991031999006001999999MA1999999101341MD1999999-0241REMSYN004BUFR
0136834980999992017021712004-17739-039259FM-12+000699999V0201801N0005100600199002000199+02661+02551101461ADDAA101999999AZ101061AZ201061GA1051+006001081GE19MSL   +99999+99999GF105991051999006001999999MA1999999101411MD1999999-0141REMSYN004BUFR
0152834980999992017021718004-17739-039259FM-12+000699999V0201401N0021199999999002000199+02911+02721101241ADDAA101999999AZ101061AZ201061GA1021+006001081GA2999+999999001GE19MSL   +99999+99999GF103991021999006001999999MA1999999101191MD1999999-0151REMSYN004BUFR
0136834980999992017021812004-17739-039259FM-12+000699999V0202301N0010100600199002000199+02701+02501101451ADDAA101999999AZ101061AZ201061GA1051+006001081GE19MSL   +99999+99999GF105991051999006001999999MA1999999101401MD1999999-0011REMSYN004BUFR
0142834980999992017021818004-17739-039259FM-12+000699999V0200501N0021199999999002000199+02901+02641101351ADDAA106004031AY161061AY211061GA1041+006001081GE19MSL   +99999+99999GF104991041999006001999999MA1999999101301MD1999999+0111MW1211REMSYN004BUFR
0136834980999992017021912004-17739-039259FM-12+000699999V0200901N0015100600199002000199+02711+02461101541ADDAA124004031AZ101061AZ201061GA1051+006001081GE19MSL   +99999+99999GF105991051999006001999999MA1999999101491MD1999999+0091REMSYN004BUFR
0136834980999992017021918004-17739-039259FM-12+000699999V0200501N0026199999999002000199+02901+02351101351ADDAA101999999AZ101061AZ201061GA1031+006001081GE19MSL   +99999+99999GF103991031999006001999999MA1999999101131MD1999999+0001REMSYN004BUFR
0158834980999992017022012004-17739-039259FM-12+000699999V0201401N0026199999999002000199+02751+02451101621ADDAA124000231AY121061AY211061GA1041+006001061GA2999+999999031GE19MSL   +99999+99999GF106991041999006001999999MA1999999101571MD1999999+0081MW1031REMSYN004BUFR
0136834980999992017022018004-17739-039259FM-12+000699999V0200901N0031199999999002000199+02951+02521101401ADDAA101999999AZ101061AZ201061GA1041+006001081GE19MSL   +99999+99999GF104991041999006001999999MA1999999101351MD1999999+0051REMSYN004BUFR
0142834980999992017022112004-17739-039259FM-12+000699999V0200901N0015100600199002000199+02761+02481101561ADDAA124000231AY161061AY221061GA1061+006001081GE19MSL   +99999+99999GF106991061999006001999999MA1999999101511MD1999999-0061MW1211REMSYN004BUFR
0136834980999992017022118004-17739-039259FM-12+000699999V0200901N0026199999999002000199+02901+02561101301ADDAA101999999AZ101061AZ201061GA1041+006001081GE19MSL   +99999+99999GF104991041999006001999999MA1999999101251MD1999999-0101REMSYN004BUFR
0142834980999992017022212004-17739-039259FM-12+000699999V0200501N0026100600199002000199+02801+02461101511ADDAA124000431AY121061AY211061GA1051+006001081GE19MSL   +99999+99999GF105991051999006001999999MA1999999101461MD1999999-0051MW1031REMSYN004BUFR
0136834980999992017022218004-17739-039259FM-12+000699999V0201401N0031100600199002000199+03001+02511101321ADDAA101999999AZ101061AZ201061GA1051+006001081GE19MSL   +99999+99999GF105991051999006001999999MA1999999101271MD1999999+0021REMSYN004BUFR
0158834980999992017022312004-17739-039259FM-12+000699999V0203601N0000199999999002000199+02751+02631101481ADDAA124001031AY161061AY261061GA1031+006001081GA2999+999999031GE19MSL   +99999+99999GF106991031999006001999999MA1999999101431MD1999999-0031MW1601REMSYN004BUFR
0158834980999992017022318004-17739-039259FM-12+000699999V0202701N0005199999999002000199+02771+02641101271ADDAA106005031AY161061AY211061GA1031+006001081GA2999+999999001GE19MSL   +99999+99999GF106991031999006001999999MA1999999101221MD1999999-0051MW1211REMSYN004BUFR
0142834980999992017022412004-17739-039259FM-12+000699999V0200501N0015100600199002000199+02661+02451101381ADDAA124007031AY161061AY261061GA1051+006001081GE19MSL   +99999+99999GF105991051999006001999999MA1999999101331MD1999999-0101MW1211REMSYN004BUFR
0136834980999992017022418004-17739-039259FM-12+000699999V0200501N0031199999999002000199+02851+02521101231ADDAA101999999AZ101061AZ201061GA1031+006001081GE19MSL   +99999+99999GF103991031999006001999999MA1999999101181MD1999999-0041REMSYN004BUFR
0158834980999992017022512004-17739-039259FM-12+000699999V0203601N0015199999999002000199+02701+02451101261ADDAA124000431AY161061AY261061GA1041+006001061GA2999+999999031GE19MSL   +99999+99999GF106991041999006001999999MA1999999101211MD1999999-0121MW1601REMSYN004BUFR
0152834980999992017022518004-17739-039259FM-12+000699999V0200501N0026199999999002000199+02921+02471101001ADDAA101999999AZ101061AZ201061GA1021+006001081GA2999+999999001GE19MSL   +99999+99999GF103991021999006001999999MA1999999100951MD1999999-0231REMSYN004BUFR
0152834980999992017022612004-17739-039259FM-12+000699999V0203601N0005199999999002000199+02711+02521101241ADDAA101999999AZ101061AZ201061GA1031+006001081GA2999+999999001GE19MSL   +99999+99999GF106991031999006001999999MA1999999101191MD1999999-0021REMSYN004BUFR
0152834980999992017022618004-17739-039259FM-12+000699999V0200501N0010199999999002000199+02921+02581101081ADDAA101999999AZ101061AZ201061GA1031+006001081GA2999+999999021GE19MSL   +99999+99999GF106991031999006001999999MA1999999101031MD1999999+0081REMSYN004BUFR
0136834980999992017022712004-17739-039259FM-12+000699999V0203601N0010100600199002000199+02721+02481101231ADDAA101999999AZ101061AZ201061GA1061+006001081GE19MSL   +99999+99999GF106991061999006001999999MA1999999101181MD1999999-0011REMSYN004BUFR
0152834980999992017022718004-17739-039259FM-12+000699999V0200501N0021199999999002000199+02901+02561101031ADDAA101999999AZ101061AZ201061GA1031+006001081GA2999+999999001GE19MSL   +99999+99999GF106991031999006001999999MA1999999100981MD1999999-0051REMSYN004BUFR
0152834980999992017022812004-17739-039259FM-12+000699999V0203601N0015199999999002000199+02771+02441101141ADDAA101999999AZ101061AZ201061GA1041+006001081GA2999+999999001GE19MSL   +99999+99999GF106991041999006001999999MA1999999101091MD1999999-0091REMSYN004BUFR
0136834980999992017022818004-17739-039259FM-12+000699999V0203601N0031199999999002000199+03011+02511100851ADDAA101999999AZ101061AZ201061GA1021+006001081GE19MSL   +99999+99999GF102991021999006001999999MA1999999100801MD1999999-0181REMSYN004BUFR
0136834980999992017030112004-17739-039259FM-12+000699999V0200501N0010100600199002000199+02761+02541101211ADDAA101999999AZ101061AZ201061GA1061+006001081GE19MSL   +99999+99999GF106991061999006001999999MA1999999101161MD1999999+0071REMSYN004BUFR
0152834980999992017030118004-17739-039259FM-12+000699999V0200501N0015199999999002000199+02951+02581100981ADDAA101999999AZ101061AZ201061GA1031+006001061GA2999+999999051GE19MSL   +99999+99999GF106991031999006001999999MA1999999100931MD1999999+0131REMSYN004BUFR
0136834980999992017030212004-17739-039259FM-12+000699999V0203601N0015199999999002000199+02761+02401101361ADDAA101999999AZ101061AZ201061GA1041+006001081GE19MSL   +99999+99999GF105991041999006001999999MA1999999101311MD1999999+0251REMSYN004BUFR
0152834980999992017030218004-17739-039259FM-12+000699999V0200501N0031199999999002000199+02921+02501101181ADDAA101999999AZ101061AZ201061GA1021+006001081GA2999+999999001GE19MSL   +99999+99999GF103991021999006001999999MA1999999101131MD1999999+0201REMSYN004BUFR
0136834980999992017030312004-17739-039259FM-12+000699999V0203601N0010199999999002000199+02751+02321101491ADDAA101999999AZ101061AZ201061GA1031+006001081GE19MSL   +99999+99999GF103991031999006001999999MA1999999101441MD1999999+0131REMSYN004BUFR
0136834980999992017030318004-17739-039259FM-12+000699999V0200501N0031199999999002000199+03001+02351101281ADDAA101999999AZ101061AZ201061GA1031+006001081GE19MSL   +99999+99999GF103991031999006001999999MA1999999101231MD1999999+0101REMSYN004BUFR
0142834980999992017030412004-17739-039259FM-12+000699999V0203601N0000100600199002000199+02701+02541101301ADDAA124000531AY161061AY261061GA1061+006001081GE19MSL   +99999+99999GF106991061999006001999999MA1999999101251MD1999999-0191MW1601REMSYN004BUFR
0158834980999992017030418004-17739-039259FM-12+000699999V0200901N0015199999999002000199+02901+02561100941ADDAA106001031AY161061AY261061GA1011+006001081GA2999+999999001GE19MSL   +99999+99999GF103991011999006001999999MA1999999100891MD1999999-0341MW1211REMSYN004BUFR
0142834980999992017030512004-17739-039259FM-12+000699999V0203601N0015100600199002000199+02721+02391101071ADDAA124002031AY161061AY221061GA1051+006001081GE19MSL   +99999+99999GF105991051999006001999999MA1999999101021MD1999999-0231MW1211REMSYN004BUFR
0152834980999992017030518004-17739-039259FM-12+000699999V0200501N0031199999999002000199+02901+02561100801ADDAA101999999AZ101061AZ201061GA1021+006001081GA2999+999999001GE19MSL   +99999+99999GF106991021999006001999999MA1999999100751MD1999999-0141REMSYN004BUFR
0136834980999992017030612004-17739-039259FM-12+000699999V0203601N0031199999999002000199+02811+02291101131ADDAA101999999AZ101061AZ201061GA1041+006001081GE19MSL   +99999+99999GF104991041999006001999999MA1999999101081MD1999999+0061REMSYN004BUFR
0136834980999992017030618004-17739-039259FM-12+000699999V0203601N0051199999999002000199+03051+02381100871ADDAA101999999AZ101061AZ201061GA1021+006001081GE19MSL   +99999+99999GF102991021999006001999999MA1999999100821MD1999999+0071REMSYN004BUFR
0136834980999992017030712004-17739-039259FM-12+000699999V0200501N0021199999999002000199+02801+02501101271ADDAA101999999AZ101061AZ201061GA1041+006001081GE19MSL   +99999+99999GF104991041999006001999999MA1999999101221MD1999999+0141REMSYN004BUFR
0136834980999992017030718004-17739-039259FM-12+000699999V0200901N0026199999999002000199+03051+02611101031ADDAA101999999AZ101061AZ201061GA1021+006001081GE19MSL   +99999+99999GF102991021999006001999999MA1999999100981MD1999999+0161REMSYN004BUFR
0152834980999992017030812004-17739-039259FM-12+000699999V0203601N0015199999999002000199+02761+02441101401ADDAA101999999AZ101061AZ201061GA1031+006001081GA2999+999999001GE19MSL   +99999+99999GF107991031999006001999999MA1999999101351MD1999999+0131REMSYN004BUFR
0152834980999992017030818004-17739-039259FM-12+000699999V0200501N0021199999999002000199+02901+02561101131ADDAA101999999AZ101061AZ201061GA1021+006001081GA2999+999999001GE19MSL   +99999+99999GF104991021999006001999999MA1999999101081MD1999999+0101REMSYN004BUFR
0152834980999992017030912004-17739-039259FM-12+000699999V0200901N0015199999999002000199+02921+02411101331ADDAA101999999AZ101061AZ201061GA1041+006001081GA2999+999999051GE19MSL   +99999+99999GF106991041999006001999999MA1999999101281MD1999999-0071REMSYN004BUFR
0152834980999992017030918004-17739-039259FM-12+000699999V0200901N0015199999999002000199+03021+02591101081ADDAA101999999AZ101061AZ201061GA1031+006001081GA2999+999999051GE19MSL   +99999+99999GF105991031999006001999999MA1999999101031MD1999999-0051REMSYN004BUFR
0136834980999992017031012004-17739-039259FM-12+000699999V0201401N0010199999999002000199+02801+02521101411ADDAA101999999AZ101061AZ201061GA1041+006001081GE19MSL   +99999+99999GF104991041999006001999999MA1999999101361MD1999999+0081REMSYN004BUFR
0136834980999992017031018004-17739-039259FM-12+000699999V0201401N0015199999999002000199+03051+02701101261ADDAA101999999AZ101061AZ201061GA1021+006001081GE19MSL   +99999+99999GF102991021999006001999999MA1999999101211MD1999999+0181REMSYN004BUFR
0152834980999992017031112004-17739-039259FM-12+000699999V0201401N0010199999999002000199+02821+02501101391ADDAA101999999AZ101061AZ201061GA1041+006001081GA2999+999999001GE19MSL   +99999+99999GF106991041999006001999999MA1999999101341MD1999999-0021REMSYN004BUFR
0152834980999992017031118004-17739-039259FM-12+000699999V0200901N0031199999999002000199+03021+02591101161ADDAA101999999AZ101061AZ201061GA1021+006001081GA2999+999999001GE19MSL   +99999+99999GF104991021999006001999999MA1999999101111MD1999999-0101REMSYN004BUFR
0152834980999992017031212004-17739-039259FM-12+000699999V0200901N0015199999999002000199+02821+02521101361ADDAA101999999AZ101061AZ201061GA1041+006001081GA2999+999999051GE19MSL   +99999+99999GF106991041999006001999999MA1999999101311MD1999999-0031REMSYN004BUFR
0136834980999992017031218004-17739-039259FM-12+000699999V0200901N0015199999999002000199+03021+02501101061ADDAA101999999AZ101061AZ201061GA1021+006001081GE19MSL   +99999+99999GF102991021999006001999999MA1999999101011MD1999999-0101REMSYN004BUFR
0142834980999992017031312004-17739-039259FM-12+000699999V0201801N0005199999999002000199+02701+02591101311ADDAA124002031AY161061AY261061GA1031+006001081GE19MSL   +99999+99999GF103991031999006001999999MA1999999101261MD1999999-0051MW1211REMSYN004BUFR
0152834980999992017031318004-17739-039259FM-12+000699999V0200501N0015199999999002000199+02971+02641100921ADDAA101999999AZ101061AZ201061GA1011+006001081GA2999+999999001GE19MSL   +99999+99999GF103991011999006001999999MA1999999100871MD1999999-0141REMSYN004BUFR
0136834980999992017031412004-17739-039259FM-12+000699999V0200901N0010100600199002000199+02751+02521101351ADDAA101999999AZ101061AZ201061GA1051+006001081GE19MSL   +99999+99999GF105991051999006001999999MA1999999101301MD1999999+0041REMSYN004BUFR
0136834980999992017031418004-17739-039259FM-12+000699999V0200901N0021199999999002000199+02971+02641101021ADDAA101999999AZ101061AZ201061GA1041+006001081GE19MSL   +99999+99999GF104991041999006001999999MA1999999100971MD1999999+0101REMSYN004BUFR
0158834980999992017031512004-17739-039259FM-12+000699999V0200901N0010199999999002000199+02671+02461101371ADDAA124008031AY161061AY261061GA1041+006001061GA2999+999999051GE19MSL   +99999+99999GF106991041999006001999999MA1999999101321MD1999999+0021MW1211REMSYN004BUFR
0152834980999992017031518004-17739-039259FM-12+000699999V0200901N0015199999999002000199+02921+02561101191ADDAA101999999AZ101061AZ201061GA1021+006001081GA2999+999999051GE19MSL   +99999+99999GF106991021999006001999999MA1999999101141MD1999999+0171REMSYN004BUFR
0158834980999992017031612004-17739-039259FM-12+000699999V0203601N0005199999999002000199+02601+02461101441ADDAA124003031AY161061AY261061GA1031+006001081GA2999+999999001GE19MSL   +99999+99999GF106991031999006001999999MA1999999101391MD1999999+0071MW1601REMSYN004BUFR
0174834980999992017031618004-17739-039259FM-12+000699999V0200901N0015199999999002000199+99999+99999101141ADDAA106000431AY121061AY211061GA1031+006001081GA2999+999999031GA3999+999999001GE19MSL   +99999+99999GF106991031999006001999999MA1999999101091MD1999999-0051MW1031REMSYN004BUFR
0174834980999992017031712004-17739-039259FM-12+000699999V0203601N0015199999999002000199+99999+99999101401ADDAA124006031AY161061AY221061GA1021+006001081GA2999+999999031GA3999+999999001GE19MSL   +99999+99999GF106991021999006001999999MA1999999101351MD1999999-0041MW1211REMSYN004BUFR
0152834980999992017031718004-17739-039259FM-12+000699999V0201401N0021199999999002000199+99999+99999101061ADDAA101999999AZ101061AZ201061GA1021+006001081GA2999+999999031GE19MSL   +99999+99999GF106991021999006001999999MA1999999101011MD1999999-0081REMSYN004BUFR
0136834980999992017031812004-17739-039259FM-12+000699999V0203601N0015100600199002000199+99999+99999101271ADDAA101999999AZ101061AZ201061GA1051+006001081GE19MSL   +99999+99999GF105991051999006001999999MA1999999101221MD1999999-0131REMSYN004BUFR
0152834980999992017031818004-17739-039259FM-12+000699999V0203601N0026199999999002000199+99999+99999101051ADDAA101999999AZ101061AZ201061GA1011+006001081GA2999+999999021GE19MSL   +99999+99999GF105991011999006001999999MA1999999101001MD1999999-0011REMSYN004BUFR
0158834980999992017031912004-17739-039259FM-12+000699999V0203601N0000199999999002000199+99999+99999101401ADDAA124002031AY161061AY261061GA1031+006001061GA2999+999999051GE19MSL   +99999+99999GF106991031999006001999999MA1999999101351MD1999999+0131MW1621REMSYN004BUFR
0152834980999992017031918004-17739-039259FM-12+000699999V0200901N0015199999999002000199+99999+99999101111ADDAA101999999AZ101061AZ201061GA1031+006001081GA2999+999999031GE19MSL   +99999+99999GF106991031999006001999999MA1999999101061MD1999999+0061REMSYN004BUFR
0158834980999992017032012004-17739-039259FM-12+000699999V0200501N0015199999999002000199+99999+99999101351ADDAA124004031AY161061AY221061GA1021+006001081GA2999+999999031GE19MSL   +99999+99999GF106991021999006001999999MA1999999101301MD1999999-0051MW1211REMSYN004BUFR
0152834980999992017032018004-17739-039259FM-12+000699999V0200501N0021199999999002000199+99999+99999101001ADDAA101999999AZ101061AZ201061GA1031+006001081GA2999+999999001GE19MSL   +99999+99999GF105991031999006001999999MA1999999100951MD1999999-0111REMSYN004BUFR
0174834980999992017032100004-17739-039259FM-12+000699999V0201401N0031100600199002000199+99999+99999101391ADDAA106004031AY161061AY221061GA1081+006001071GA2999+999999101GA3999+999999101GE19MSL   +99999+99999GF108991081999006001999999MA1999999101341MD1999999+0091MW1631REMSYN004BUFR
0158834980999992017032112004-17739-039259FM-12+000699999V0201801N0041199999999002000199+99999+99999101521ADDAA124144031AY121061AY211061GA1041+006001061GA2999+999999041GE19MSL   +99999+99999GF107991041999006001999999MA1999999101471MD1999999+0171MW1031REMSYN004BUFR
0152834980999992017032118004-17739-039259FM-12+000699999V0201801N0051199999999002000199+99999+99999101381ADDAA101999999AZ101061AZ201061GA1041+006001061GA2999+999999031GE19MSL   +99999+99999GF107991041999006001999999MA1999999101331MD1999999+0381REMSYN004BUFR
0136834980999992017032200004-17739-039259FM-12+000699999V0201801N0031100600199002000199+99999+99999101571ADDAA101999999AZ101061AZ201061GA1051+006001061GE19MSL   +99999+99999GF105991051999006001999999MA1999999101521MD1999999+0181REMSYN004BUFR
0142834980999992017032212004-17739-039259FM-12+000699999V020230199999900600199002000199+99999+99999101891ADDAA124000331AY161061AY261061GA1051+006001081GE19MSL   +99999+99999GF105991051999006001999999MA1999999101841MD1999999+0371MW1211REMSYN004BUFR
0152834980999992017032218004-17739-039259FM-12+000699999V020140199999999999999002000199+99999+99999101621ADDAA101999999AZ101061AZ201061GA1031+006001061GA2999+999999051GE19MSL   +99999+99999GF106991031999006001999999MA1999999101571MD1999999+0231REMSYN004BUFR
0142834980999992017032300004-17739-039259FM-12+000699999V020140199999999999999002000199+99999+99999101721ADDAA106000431AY121061AY211061GA1031+006001081GE19MSL   +99999+99999GF103991031999006001999999MA1999999101671MD1999999+0151MW1031REMSYN004BUFR
0136834980999992017032312004-17739-039259FM-12+000699999V020180199999999999999002000199+99999+99999101581ADDAA124000431AZ101061AZ201061GA1031+006001081GE19MSL   +99999+99999GF103991031999006001999999MA1999999101531MD1999999-0311REMSYN004BUFR
0136834980999992017032318004-17739-039259FM-12+000699999V020180199999999999999002000199+99999+99999101301ADDAA101999999AZ101061AZ201061GA1041+006001081GE19MSL   +99999+99999GF104991041999006001999999MA1999999101251MD1999999-0321REMSYN004BUFR
0152834980999992017032400004-17739-039259FM-12+000699999V020180199999999999999002000199+99999+99999101331ADDAA101999999AZ101061AZ201061GA1031+006001061GA2999+999999031GE19MSL   +99999+99999GF106991031999006001999999MA1999999101281MD1999999-0391REMSYN004BUFR
0158834980999992017032412004-17739-039259FM-12+000699999V020230199999999999999002000199+99999+99999101351ADDAA124000231AY121061AY211061GA1021+006001081GA2999+999999031GE19MSL   +99999+99999GF105991021999006001999999MA1999999101301MD1999999-0231MW1031REMSYN004BUFR
0152834980999992017032418004-17739-039259FM-12+000699999V020180199999999999999002000199+99999+99999101021ADDAA101999999AZ101061AZ201061GA1031+006001061GA2999+999999031GE19MSL   +99999+99999GF105991031999006001999999MA1999999100971MD1999999-0281REMSYN004BUFR
0152834980999992017032500004-17739-039259FM-12+000699999V020180199999999999999002000199+99999+99999101171ADDAA101999999AZ101061AZ201061GA1041+006001061GA2999+999999031GE19MSL   +99999+99999GF106991041999006001999999MA1999999101121MD1999999-0061REMSYN004BUFR
0136834980999992017032512004-17739-039259FM-12+000699999V020320199999999999999002000199+99999+99999101231ADDAA101999999AZ101061AZ201061GA1021+006001081GE19MSL   +99999+99999GF102991021999006001999999MA1999999101181MD1999999-0121REMSYN004BUFR
0136834980999992017032518004-17739-039259FM-12+000699999V020050199999999999999002000199+99999+99999100881ADDAA101999999AZ101061AZ201061GA1031+006001081GE19MSL   +99999+99999GF103991031999006001999999MA1999999100801MD1999999-0171REMSYN004BUFR
0152834980999992017032612004-17739-039259FM-12+000699999V0203601N0015199999999002000199+99999+99999101251ADDAA101999999AZ101061AZ201061GA1031+006001081GA2999+999999031GE19MSL   +99999+99999GF105991031999006001999999MA1999999101201MD1999999+0021REMSYN004BUFR
0136834980999992017032618004-17739-039259FM-12+000699999V020050199999999999999002000199+99999+99999100861ADDAA101999999AZ101061AZ201061GA1031+006001081GE19MSL   +99999+99999GF103991031999006001999999MA1999999100811MD1999999+0011REMSYN004BUFR
0152834980999992017032712004-17739-039259FM-12+000699999V020320199999999999999002000199+99999+99999101281ADDAA101999999AZ101061AZ201061GA1041+006001081GA2999+999999051GE19MSL   +99999+99999GF106991041999006001999999MA1999999101231MD1999999+0031REMSYN004BUFR
0158834980999992017032718004-17739-039259FM-12+000699999V020090199999999999999002000199+99999+99999100971ADDAA106006031AY121061AY211061GA1021+006001081GA2999+999999051GE19MSL   +99999+99999GF105991021999006001999999MA1999999100921MD1999999+0111MW1031REMSYN004BUFR
0152834980999992017032800004-17739-039259FM-12+000699999V0203601N0000199999999002000199+99999+99999101201ADDAA101999999AZ101061AZ201061GA1041+006001061GA2999+999999041GE19MSL   +99999+99999GF107991041999006001999999MA1999999101151MD1999999+0141REMSYN004BUFR
0158834980999992017032812004-17739-039259FM-12+000699999V0203601N0000199999999002000199+99999+99999101261ADDAA124017031AY161061AY261061GA1031+006001061GA2999+999999051GE19MSL   +99999+99999GF108991031999006001999999MA1999999101211MD1999999-0021MW1611REMSYN004BUFR
0158834980999992017032818004-17739-039259FM-12+000699999V020180199999999999999002000199+99999+99999100881ADDAA106002031AY161061AY261061GA1031+006001081GA2999+999999031GE19MSL   +99999+99999GF106991031999006001999999MA1999999100831MD1999999-0091MW1211REMSYN004BUFR
0174834980999992017032900004-17739-039259FM-12+000699999V020140199999999999999002000199+99999+99999101191ADDAA106002031AY161061AY261061GA1041+006001061GA2999+999999051GA3999+999999101GE19MSL   +99999+99999GF108991041999006001999999MA1999999101141MD1999999-0011MW1621REMSYN004BUFR
0174834980999992017032912004-17739-039259FM-12+000699999V020230199999999999999002000199+99999+99999101251ADDAA124006031AY161061AY261061GA1041+006001061GA2999+999999041GA3999+999999101GE19MSL   +99999+99999GF108991041999006001999999MA1999999101201MD1999999-0011MW1211REMSYN004BUFR
0168834980999992017032918004-17739-039259FM-12+000699999V020230199999999999999002000199+99999+99999100881ADDAA101999999AZ101061AZ201061GA1031+006001061GA2999+999999041GA3999+999999101GE19MSL   +99999+99999GF108991031999006001999999MA1999999100831MD1999999+0001REMSYN004BUFR
0136834980999992017033000004-17739-039259FM-12+000699999V020180199999999999999002000199+99999+99999101171ADDAA101999999AZ101061AZ201061GA1031+006001081GE19MSL   +99999+99999GF103991031999006001999999MA1999999101121MD1999999-0021REMSYN004BUFR
0142834980999992017033012004-17739-039259FM-12+000699999V020180199999900600199002000199+99999+99999101301ADDAA124000231AY121061AY211061GA1051+006001081GE19MSL   +99999+99999GF105991051999006001999999MA1999999101251MD1999999+0051MW1031REMSYN004BUFR
0136834980999992017033018004-17739-039259FM-12+000699999V020180199999999999999002000199+99999+99999101061ADDAA101999999AZ101061AZ201061GA1041+006001081GE19MSL   +99999+99999GF104991041999006001999999MA1999999101011MD1999999+0181REMSYN004BUFR
0136834980999992017033100004-17739-039259FM-12+000699999V020090199999999999999002000199+99999+99999101251ADDAA101999999AZ101061AZ201061GA1021+006001081GE19MSL   +99999+99999GF102991021999006001999999MA1999999101201MD1999999+0081REMSYN004BUFR
0136834980999992017033112004-17739-039259FM-12+000699999V020230199999900600199002000199+99999+99999101381ADDAA101999999AZ101061AZ201061GA1051+006001081GE19MSL   +99999+99999GF105991051999006001999999MA1999999101331MD1999999+0081REMSYN004BUFR
0152834980999992017033118004-17739-039259FM-12+000699999V020140199999999999999002000199+99999+99999101271ADDAA101999999AZ101061AZ201061GA1031+006001061GA2999+999999041GE19MSL   +99999+99999GF107991031999006001999999MA1999999101221MD1999999+0211REMSYN004BUFR
0174834980999992017040100004-17739-039259FM-12+000699999V020999999999999999999002000199+99999+99999101441ADDAA106011031AY161061AY261061GA1041+006001061GA2999+999999051GA3999+999999101GE19MSL   +99999+99999GF108991041999006001999999MA1999999101391MD1999999+0191MW1611REMSYN004BUFR
0174834980999992017040112004-17739-039259FM-12+000699999V020180199999999999999002000199+99999+99999101581ADDAA124015031AY161061AY261061GA1041+006001061GA2999+999999051GA3999+999999101GE19MSL   +99999+99999GF108991041999006001999999MA1999999101531MD1999999+0201MW1211REMSYN004BUFR
0168834980999992017040118004-17739-039259FM-12+000699999V020999999999900600199002000199+99999+99999101281ADDAA101999999AZ101061AZ201061GA1051+006001061GA2999+999999051GA3999+999999101GE19MSL   +99999+99999GF108991051999006001999999MA1999999101231MD1999999+0011REMSYN004BUFR
0152834980999992017040212004-17739-039259FM-12+000699999V020090199999999999999002000199+99999+99999101471ADDAA101999999AZ101061AZ201061GA1041+006001061GA2999+999999051GE19MSL   +99999+99999GF107991041999006001999999MA1999999101421MD1999999-0111REMSYN004BUFR
0152834980999992017040218004-17739-039259FM-12+000699999V020090199999999999999002000199+99999+99999101201ADDAA101999999AZ101061AZ201061GA1041+006001061GA2999+999999051GE19MSL   +99999+99999GF107991041999006001999999MA1999999101151MD1999999-0081REMSYN004BUFR
0152834980999992017040412004-17739-039259FM-12+000699999V020140199999999999999002000199+99999+99999101511ADDAA124008031AZ101061AZ201061GA1041+006001061GA2999+999999041GE19MSL   +99999+99999GF106991041999006001999999MA1999999101461MD1999999+0051REMSYN004BUFR
0152834980999992017040418004-17739-039259FM-12+000699999V020140199999999999999002000199+99999+99999101251ADDAA101999999AZ101061AZ201061GA1031+006001081GA2999+999999031GE19MSL   +99999+99999GF105991031999006001999999MA1999999101201MD1999999-0011REMSYN004BUFR
