0142825640999992015010100004-05531-047460FM-15+013199999V0209999C000019999999N009999199+02701+02301999999ADDGA1021+010671999GE19MSL   +99999+99999GF199999021999010671999999MA1101201999999REMMET051METAR SBIZ 010000Z 00000KT 9999 FEW035 27/23 Q1012=
0142825640999992015010101004-05531-047460FM-15+013199999V0209999C000019999999N009999199+02601+02301999999ADDGA1021+010671999GE19MSL   +99999+99999GF199999021999010671999999MA1101201999999REMMET051METAR SBIZ 010100Z 00000KT 9999 FEW035 26/23 Q1012=
0142825640999992015010102004-05531-047460FM-15+013199999V0200701N002619999999N009999199+02701+02301999999ADDGA1021+010671999GE19MSL   +99999+99999GF199999021999010671999999MA1101301999999REMMET051METAR SBIZ 010200Z 07005KT 9999 FEW035 27/23 Q1013=
0101825640999992015010107154-05531-047460FM-16+013199999V0209999C000012200019N008000199+02301+02201999999ADDGF100991999999999999999999MA1101201999999REMMET048SPECI SBIZ 010715Z 00000KT 8000 NSC 23/22 Q1012=
0101825640999992015010108004-05531-047460FM-15+013199999V0209999C000012200019N008000199+02301+02201999999ADDGF100991999999999999999999MA1101201999999REMMET048METAR SBIZ 010800Z 00000KT 8000 NSC 23/22 Q1012=
0142825640999992015010109004-05531-047460FM-15+013199999V0203501N001519999999N009999199+02401+02101999999ADDGA1021+004571999GE19MSL   +99999+99999GF199999021999004571999999MA1101201999999REMMET051METAR SBIZ 010900Z 35003KT 9999 FEW015 24/21 Q1012=
0072825640999992015010110004-05531-047460FM-15+013199999V0200801N001519999999Y999999999+02501+02101999999ADDMA1101301999999REMMET045METAR SBIZ 011000Z 08003KT CAVOK 25/21 Q1013=
0072825640999992015010111004-05531-047460FM-15+013199999V0201001N002619999999Y999999999+02701+02101999999ADDMA1101401999999REMMET045METAR SBIZ 011100Z 10005KT CAVOK 27/21 Q1014=
0142825640999992015010112004-05531-047460FM-15+013199999V0200901N002619999999N009999199+02901+02201999999ADDGA1041+006101999GE19MSL   +99999+99999GF199999041999006101999999MA1101401999999REMMET051METAR SBIZ 011200Z 09005KT 9999 SCT020 29/22 Q1014=
0142825640999992015010113004-05531-047460FM-15+013199999V0200801N002610061019N009999199+02901+02101999999ADDGA1071+006101999GE19MSL   +99999+99999GF199999071999006101999999MA1101401999999REMMET051METAR SBIZ 011300Z 08005KT 9999 BKN020 29/21 Q1014=
0142825640999992015010114004-05531-047460FM-15+013199999V0200801N003110061019N009999199+03001+02201999999ADDGA1071+006101999GE19MSL   +99999+99999GF199999071999006101999999MA1101401999999REMMET051METAR SBIZ 011400Z 08006KT 9999 BKN020 30/22 Q1014=
0142825640999992015010115004-05531-047460FM-15+013199999V0200401N005110085319N009999199+03301+02201999999ADDGA1071+008531999GE19MSL   +99999+99999GF199999071999008531999999MA1101301999999REMMET051METAR SBIZ 011500Z 04010KT 9999 BKN028 33/22 Q1013=
0142825640999992015010116004-05531-047460FM-15+013199999V0201301N003110091419N009999199+03401+02101999999ADDGA1071+009141999GE19MSL   +99999+99999GF199999071999009141999999MA1101201999999REMMET051METAR SBIZ 011600Z 13006KT 9999 BKN030 34/21 Q1012=
0142825640999992015010117004-05531-047460FM-15+013199999V0201401N002610091419N009999199+03401+02201999999ADDGA1071+009141999GE19MSL   +99999+99999GF199999071999009141999999MA1101101999999REMMET051METAR SBIZ 011700Z 14005KT 9999 BKN030 34/22 Q1011=
0142825640999992015010118004-05531-047460FM-15+013199999V0201001N004110097519N009999199+03401+02201999999ADDGA1071+009751999GE19MSL   +99999+99999GF199999071999009751999999MA1101001999999REMMET051METAR SBIZ 011800Z 10008KT 9999 BKN032 34/22 Q1010=
0142825640999992015010119004-05531-047460FM-15+013199999V0201401N003119999999N009999199+03401+02101999999ADDGA1041+010671999GE19MSL   +99999+99999GF199999041999010671999999MA1100901999999REMMET051METAR SBIZ 011900Z 14006KT 9999 SCT035 34/21 Q1009=
0142825640999992015010120004-05531-047460FM-15+013199999V0201001N003619999999N009999199+03401+02201999999ADDGA1041+010671999GE19MSL   +99999+99999GF199999041999010671999999MA1100901999999REMMET051METAR SBIZ 012000Z 10007KT 9999 SCT035 34/22 Q1009=
0142825640999992015010121004-05531-047460FM-15+013199999V0200901N004119999999N009999199+03301+02101999999ADDGA1041+010671999GE19MSL   +99999+99999GF199999041999010671999999MA1100901999999REMMET051METAR SBIZ 012100Z 09008KT 9999 SCT035 33/21 Q1009=
0142825640999992015010122004-05531-047460FM-15+013199999V0201001N003119999999N009999199+03101+02301999999ADDGA1021+009141999GE19MSL   +99999+99999GF199999021999009141999999MA1101001999999REMMET051METAR SBIZ 012200Z 10006KT 9999 FEW030 31/23 Q1010=
0072825640999992015010123004-05531-047460FM-15+013199999V0201101N001519999999Y999999999+02901+02301999999ADDMA1101101999999REMMET045METAR SBIZ 012300Z 11003KT CAVOK 29/23 Q1011=
0072825640999992015010200004-05531-047460FM-15+013199999V0201401N001519999999Y999999999+02801+02301999999ADDMA1101201999999REMMET045METAR SBIZ 020000Z 14003KT CAVOK 28/23 Q1012=
0072825640999992015010201004-05531-047460FM-15+013199999V0201101N002119999999Y999999999+02701+02301999999ADDMA1101201999999REMMET045METAR SBIZ 020100Z 11004KT CAVOK 27/23 Q1012=
0072825640999992015010202004-05531-047460FM-15+013199999V0201101N001019999999Y999999999+02601+02301999999ADDMA1101201999999REMMET045METAR SBIZ 020200Z 11002KT CAVOK 26/23 Q1012=
0072825640999992015010202154-05531-047460FM-16+013199999V0201101N001019999999Y999999999+02601+02301999999ADDMA1101201999999REMMET045SPECI SBIZ 020215Z 11002KT CAVOK 26/23 Q1012=
0101825640999992015010207154-05531-047460FM-16+013199999V0209999C000012200019N008000199+02301+02201999999ADDGF100991999999999999999999MA1101101999999REMMET048SPECI SBIZ 020715Z 00000KT 8000 NSC 23/22 Q1011=
0142825640999992015010208004-05531-047460FM-15+013199999V0209999C000019999999N008000199+02301+02201999999ADDGA1021+003051999GE19MSL   +99999+99999GF199999021999003051999999MA1101101999999REMMET051METAR SBIZ 020800Z 00000KT 8000 FEW010 23/22 Q1011=
0142825640999992015010209004-05531-047460FM-15+013199999V0201501N001519999999N009999199+02301+02201999999ADDGA1021+004571999GE19MSL   +99999+99999GF199999021999004571999999MA1101201999999REMMET051METAR SBIZ 020900Z 15003KT 9999 FEW015 23/22 Q1012=
0072825640999992015010210004-05531-047460FM-15+013199999V0209999C000019999999Y999999999+02501+02201999999ADDMA1101301999999REMMET045METAR SBIZ 021000Z 00000KT CAVOK 25/22 Q1013=
0142825640999992015010211004-05531-047460FM-15+013199999V0201101N001519999999N009999199+02701+02201999999ADDGA1021+004571999GE19MSL   +99999+99999GF199999021999004571999999MA1101301999999REMMET051METAR SBIZ 021100Z 11003KT 9999 FEW015 27/22 Q1013=
0142825640999992015010212004-05531-047460FM-15+013199999V0200801N002610045719N009999199+02801+02201999999ADDGA1071+004571999GE19MSL   +99999+99999GF199999071999004571999999MA1101401999999REMMET051METAR SBIZ 021200Z 08005KT 9999 BKN015 28/22 Q1014=
0142825640999992015010213004-05531-047460FM-15+013199999V0200601N002610045719N009999199+02801+02201999999ADDGA1081+004571999GE19MSL   +99999+99999GF199999081999004571999999MA1101401999999REMMET051METAR SBIZ 021300Z 06005KT 9999 OVC015 28/22 Q1014=
0142825640999992015010214004-05531-047460FM-15+013199999V0200601N002610045719N009999199+03001+02201999999ADDGA1071+004571999GE19MSL   +99999+99999GF199999071999004571999999MA1101401999999REMMET051METAR SBIZ 021400Z 06005KT 9999 BKN015 30/22 Q1014=
0165825640999992015010215004-05531-047460FM-15+013199999V0201401N001510082319N009999199+03001+02301999999ADDGA1021+005491999GA2071+008231999GE19MSL   +99999+99999GF199999021999005491999999MA1101301999999REMMET058METAR SBIZ 021500Z 14003KT 9999 FEW018 BKN027 30/23 Q1013=
0165825640999992015010216004-05531-047460FM-15+013199999V0201001N00151030481CN009999199+03201+02301999999ADDGA1041+009141999GA2041+030481999GE19MSL   +99999+99999GF199999041999009141999999MA1101301999999REMMET058METAR SBIZ 021600Z 10003KT 9999 SCT030 SCT100 32/23 Q1013=
0142825640999992015010217004-05531-047460FM-15+013199999V0201601N002610097519N009999199+03301+02201999999ADDGA1071+009751999GE19MSL   +99999+99999GF199999071999009751999999MA1101101999999REMMET051METAR SBIZ 021700Z 16005KT 9999 BKN032 33/22 Q1011=
0142825640999992015010218004-05531-047460FM-15+013199999V0200601N001010106719N009999199+03401+02301999999ADDGA1071+010671999GE19MSL   +99999+99999GF199999071999010671999999MA1101001999999REMMET051METAR SBIZ 021800Z 06002KT 9999 BKN035 34/23 Q1010=
0142825640999992015010219004-05531-047460FM-15+013199999V0202401N001010106719N009999199+03201+02201999999ADDGA1071+010671999GE19MSL   +99999+99999GF199999071999010671999999MA1101001999999REMMET051METAR SBIZ 021900Z 24002KT 9999 BKN035 32/22 Q1010=
0176825640999992015010220004-05531-047460FM-15+013199999V0202901N003619999999N009999199+03401+02201999999ADDGA1041+009141999GA2021+010671091GE19MSL   +99999+99999GF199999041999009141999999MA1100901999999MW1171REMMET063METAR SBIZ 022000Z 29007KT 9999 TS SCT030 FEW035CB 34/22 Q1009=
0213825640999992015010221004-05531-047460FM-15+013199999V0201101N005710213419N008000199+02402+02201999999ADDGA1041+004571999GA2021+009141091GA3071+021341999GE19MSL   +99999+99999GF199999041999004571999999MA1101201999999MW1951REMMET084METAR SBIZ 022100Z 11011KT 8000 3000E -TSRA SCT015 FEW030CB BKN070      24/22 Q1012=
0211825640999992015010222004-05531-047460FM-15+013199999V0201201N001510045719N009999199+02401+02201999999ADDGA1071+004571999GA2021+007621091GA3071+021341999GE19MSL   +99999+99999GF199999071999004571999999MA1101101999999MW1131REMMET082METAR SBIZ 022200Z 12003KT 9999 VCTS BKN015 FEW025CB BKN070 24/22 Q1011      RETS=
0178825640999992015010223004-05531-047460FM-15+013199999V0201001N002119999999N009999199+02301+02201999999ADDGA1021+004571999GA2021+007621091GE19MSL   +99999+99999GF199999021999004571999999MA1101201999999MW1131REMMET065METAR SBIZ 022300Z 10004KT 9999 VCTS FEW015 FEW025CB 23/22 Q1012=
0165825640999992015010300004-05531-047460FM-15+013199999V0200901N00151015241CN009999199+02301+02201999999ADDGA1021+001521999GA2041+015241999GE19MSL   +99999+99999GF199999021999001521999999MA1101301999999REMMET058METAR SBIZ 030000Z 09003KT 9999 FEW005 SCT050 23/22 Q1013=
0165825640999992015010301004-05531-047460FM-15+013199999V0200801N00151009141CN009999199+02301+02201999999ADDGA1021+002131999GA2041+009141999GE19MSL   +99999+99999GF199999021999002131999999MA1101301999999REMMET058METAR SBIZ 030100Z 08003KT 9999 FEW007 SCT030 23/22 Q1013=
0178825640999992015010302004-05531-047460FM-15+013199999V0201901N002119999999N009999199+02301+02301999999ADDGA1021+002131999GA2021+007621091GE19MSL   +99999+99999GF199999021999002131999999MA1101201999999MW1131REMMET065METAR SBIZ 030200Z 19004KT 9999 VCTS FEW007 FEW025CB 23/23 Q1012=
0182825640999992015010302154-05531-047460FM-16+013199999V0201101N002119999999N009999199+02301+02301999999ADDGA1021+002131999GA2021+007621091GE19MSL   +99999+99999GF199999021999002131999999MA1101201999999MW1131REMMET069SPECI COR SBIZ 030215Z 11004KT 9999 VCTS FEW007 FEW025CB 23/23 Q1012=
0165825640999992015010307154-05531-047460FM-16+013199999V0200801N00211009141CN009000199+02201+02201999999ADDGA1021+001521999GA2041+009141999GE19MSL   +99999+99999GF199999021999001521999999MA1101101999999REMMET058SPECI SBIZ 030715Z 08004KT 9000 FEW005 SCT030 22/22 Q1011=
0165825640999992015010308004-05531-047460FM-15+013199999V0209999C00001009141CN009000199+02301+02201999999ADDGA1021+001521999GA2041+009141999GE19MSL   +99999+99999GF199999021999001521999999MA1101101999999REMMET058METAR SBIZ 030800Z 00000KT 9000 FEW005 SCT030 23/22 Q1011=
0142825640999992015010309004-05531-047460FM-15+013199999V0201201N001019999999N009999199+02201+02201999999ADDGA1021+009141999GE19MSL   +99999+99999GF199999021999009141999999MA1101201999999REMMET051METAR SBIZ 030900Z 12002KT 9999 FEW030 22/22 Q1012=
0142825640999992015010310004-05531-047460FM-15+013199999V0209999C000019999999N009999199+02301+02301999999ADDGA1021+012191999GE19MSL   +99999+99999GF199999021999012191999999MA1101301999999REMMET051METAR SBIZ 031000Z 00000KT 9999 FEW040 23/23 Q1013=
0072825640999992015010311004-05531-047460FM-15+013199999V0209999C000019999999Y999999999+02701+02301999999ADDMA1101301999999REMMET045METAR SBIZ 031100Z 00000KT CAVOK 27/23 Q1013=
0142825640999992015010312004-05531-047460FM-15+013199999V0200801N002619999999N009999199+02801+02301999999ADDGA1021+004571999GE19MSL   +99999+99999GF199999021999004571999999MA1101301999999REMMET051METAR SBIZ 031200Z 08005KT 9999 FEW015 28/23 Q1013=
0142825640999992015010313004-05531-047460FM-15+013199999V0200501N003110061019N009999199+03001+02301999999ADDGA1071+006101999GE19MSL   +99999+99999GF199999071999006101999999MA1101301999999REMMET051METAR SBIZ 031300Z 05006KT 9999 BKN020 30/23 Q1013=
0142825640999992015010314004-05531-047460FM-15+013199999V0200601N002110070119N009999199+03301+02401999999ADDGA1071+007011999GE19MSL   +99999+99999GF199999071999007011999999MA1101301999999REMMET051METAR SBIZ 031400Z 06004KT 9999 BKN023 33/24 Q1013=
0142825640999992015010315004-05531-047460FM-15+013199999V0203101N001510070119N009999199+03201+02201999999ADDGA1071+007011999GE19MSL   +99999+99999GF199999071999007011999999MA1101301999999REMMET051METAR SBIZ 031500Z 31003KT 9999 BKN023 32/22 Q1013=
0142825640999992015010316004-05531-047460FM-15+013199999V0200801N001010070119N009999199+03201+02301999999ADDGA1071+007011999GE19MSL   +99999+99999GF199999071999007011999999MA1101201999999REMMET051METAR SBIZ 031600Z 08002KT 9999 BKN023 32/23 Q1012=
0168825640999992015010317004-05531-047460FM-15+013199999V0203501N002110070119N009999199+03401+02201999999ADDGA1071+007011999GA2021+007621081GE19MSL   +99999+99999GF199999071999007011999999MA1101101999999REMMET061METAR SBIZ 031700Z 35004KT 9999 BKN023 FEW025TCU 34/22 Q1011=
0142825640999992015010318004-05531-047460FM-15+013199999V0202601N001510070119N009999199+03401+02101999999ADDGA1071+007011999GE19MSL   +99999+99999GF199999071999007011999999MA1101001999999REMMET051METAR SBIZ 031800Z 26003KT 9999 BKN023 34/21 Q1010=
0142825640999992015010319004-05531-047460FM-15+013199999V0200901N003119999999N009999199+03501+02001999999ADDGA1041+007621999GE19MSL   +99999+99999GF199999041999007621999999MA1100901999999REMMET051METAR SBIZ 031900Z 09006KT 9999 SCT025 35/20 Q1009=
0142825640999992015010320004-05531-047460FM-15+013199999V0202601N002119999999N009999199+03401+02001999999ADDGA1041+007621999GE19MSL   +99999+99999GF199999041999007621999999MA1100801999999REMMET051METAR SBIZ 032000Z 26004KT 9999 SCT025 34/20 Q1008=
0176825640999992015010321004-05531-047460FM-15+013199999V0201001N002610091419N009999199+03401+01901999999ADDGA1021+007621091GA2071+009141999GE19MSL   +99999+99999GF199999021999007621999999MA1101001999999MW1171REMMET063METAR SBIZ 032100Z 10005KT 9999 TS FEW025CB BKN030 34/19 Q1010=
0182825640999992015010321404-05531-047460FM-16+013199999V0201701N003610076219N003500199+02402+02201999999ADDGA1071+007621999GA2071+009141091GE19MSL   +99999+99999GF199999071999007621999999MA1101201999999MW1951REMMET069SPECI COR SBIZ 032140Z 17007KT 3500 TSRA BKN025 BKN030CB 24/22 Q1012=
0188825640999992015010322004-05531-047460FM-15+013199999V0200901N003610076219N005000199+02401+02301999999ADDGA1071+007621999GA2071+009141091GE19MSL   +99999+99999GF199999071999007621999999MA1101101999999MW1101MW2951REMMET069METAR SBIZ 032200Z 09007KT 5000 -TSRA BR BKN025 BKN030CB 24/23 Q1011=
0188825640999992015010323004-05531-047460FM-15+013199999V0200301N007210076219N005000199+02401+02301999999ADDGA1071+007621999GA2071+009141091GE19MSL   +99999+99999GF199999071999007621999999MA1101001999999MW1101MW2951REMMET069METAR SBIZ 032300Z 03014KT 5000 -TSRA BR BKN025 BKN030CB 24/23 Q1010=
0178825640999992015010400004-05531-047460FM-15+013199999V0200801N005710121919N008000199+02302+02201999999ADDGA1021+007621091GA2071+012191999GE19MSL   +99999+99999GF199999021999007621999999MA1101201999999MW1131REMMET065METAR SBIZ 040000Z 08011KT 8000 VCTS FEW025CB BKN040 23/22 Q1012=
0101825640999992015010401004-05531-047460FM-15+013199999V0203401N001512200019N009000199+02401+02301999999ADDGF100991999999999999999999MA1101201999999REMMET048METAR SBIZ 040100Z 34003KT 9000 NSC 24/23 Q1012=
0101825640999992015010402004-05531-047460FM-15+013199999V0200901N001012200019N009000199+02401+02301999999ADDGF100991999999999999999999MA1101201999999REMMET048METAR SBIZ 040200Z 09002KT 9000 NSC 24/23 Q1012=
0101825640999992015010407154-05531-047460FM-16+013199999V0200701N001512200019N008000199+02301+02301999999ADDGF100991999999999999999999MA1101201999999REMMET048SPECI SBIZ 040715Z 07003KT 8000 NSC 23/23 Q1012=
0142825640999992015010408004-05531-047460FM-15+013199999V0201501N001519999999N008000199+02301+02201999999ADDGA1021+004571999GE19MSL   +99999+99999GF199999021999004571999999MA1101201999999REMMET051METAR SBIZ 040800Z 15003KT 8000 FEW015 23/22 Q1012=
0142825640999992015010409004-05531-047460FM-15+013199999V0209999C000019999999N009999199+02301+02201999999ADDGA1021+004571999GE19MSL   +99999+99999GF199999021999004571999999MA1101301999999REMMET051METAR SBIZ 040900Z 00000KT 9999 FEW015 23/22 Q1013=
0142825640999992015010410004-05531-047460FM-15+013199999V0200901N002619999999N009999199+02401+02301999999ADDGA1021+004571999GE19MSL   +99999+99999GF199999021999004571999999MA1101301999999REMMET051METAR SBIZ 041000Z 09005KT 9999 FEW015 24/23 Q1013=
0142825640999992015010411004-05531-047460FM-15+013199999V0201201N002619999999N009999199+02601+02301999999ADDGA1021+004571999GE19MSL   +99999+99999GF199999021999004571999999MA1101401999999REMMET051METAR SBIZ 041100Z 12005KT 9999 FEW015 26/23 Q1014=
0142825640999992015010412004-05531-047460FM-15+013199999V0200801N003110045719N009999199+02701+02301999999ADDGA1071+004571999GE19MSL   +99999+99999GF199999071999004571999999MA1101401999999REMMET051METAR SBIZ 041200Z 08006KT 9999 BKN015 27/23 Q1014=
0142825640999992015010413004-05531-047460FM-15+013199999V0200601N002610045719N009999199+02901+02301999999ADDGA1071+004571999GE19MSL   +99999+99999GF199999071999004571999999MA1101401999999REMMET051METAR SBIZ 041300Z 06005KT 9999 BKN015 29/23 Q1014=
0142825640999992015010414004-05531-047460FM-15+013199999V0200501N003110061019N009999199+03101+02301999999ADDGA1071+006101999GE19MSL   +99999+99999GF199999071999006101999999MA1101401999999REMMET051METAR SBIZ 041400Z 05006KT 9999 BKN020 31/23 Q1014=
0142825640999992015010415004-05531-047460FM-15+013199999V0200201N004110061019N009999199+03201+02401999999ADDGA1071+006101999GE19MSL   +99999+99999GF199999071999006101999999MA1101401999999REMMET051METAR SBIZ 041500Z 02008KT 9999 BKN020 32/24 Q1014=
0142825640999992015010416004-05531-047460FM-15+013199999V0209999C000010061019N009999199+03201+02301999999ADDGA1071+006101999GE19MSL   +99999+99999GF199999071999006101999999MA1101301999999REMMET051METAR SBIZ 041600Z 00000KT 9999 BKN020 32/23 Q1013=
0142825640999992015010417004-05531-047460FM-15+013199999V0202801N003610061019N009999199+03301+02501999999ADDGA1071+006101999GE19MSL   +99999+99999GF199999071999006101999999MA1101201999999REMMET051METAR SBIZ 041700Z 28007KT 9999 BKN020 33/25 Q1012=
0142825640999992015010418004-05531-047460FM-15+013199999V0209999C000019999999N009999199+03101+02501999999ADDGA1041+006101999GE19MSL   +99999+99999GF199999041999006101999999MA1101101999999REMMET051METAR SBIZ 041800Z 00000KT 9999 SCT020 31/25 Q1011=
0191825640999992015010419004-05531-047460FM-15+013199999V0201901N00511021341CN009999199+03101+02501999999ADDGA1021+006101999GA2021+007621081GA3041+021341999GE19MSL   +99999+99999GF199999021999006101999999MA1101101999999REMMET068METAR SBIZ 041900Z 19010KT 9999 FEW020 FEW025TCU SCT070 31/25 Q1011=
0168825640999992015010420004-05531-047460FM-15+013199999V0201801N002119999999N009999199+03101+02501999999ADDGA1021+006101999GA2021+007621081GE19MSL   +99999+99999GF199999021999006101999999MA1101001999999REMMET061METAR SBIZ 042000Z 18004KT 9999 FEW020 FEW025TCU 31/25 Q1010=
0168825640999992015010421004-05531-047460FM-15+013199999V0202101N001019999999N009999199+03001+02401999999ADDGA1021+006101999GA2021+007621081GE19MSL   +99999+99999GF199999021999006101999999MA1101101999999REMMET061METAR SBIZ 042100Z 21002KT 9999 FEW020 FEW025TCU 30/24 Q1011=
0165825640999992015010422004-05531-047460FM-15+013199999V0202601N00101009141CN009999199+02901+02501999999ADDGA1021+006101999GA2041+009141999GE19MSL   +99999+99999GF199999021999006101999999MA1101201999999REMMET058METAR SBIZ 042200Z 26002KT 9999 FEW020 SCT030 29/25 Q1012=
0165825640999992015010423004-05531-047460FM-15+013199999V0202301N00151024381CN009999199+02701+02301999999ADDGA1021+004571999GA2041+024381999GE19MSL   +99999+99999GF199999021999004571999999MA1101301999999REMMET058METAR SBIZ 042300Z 23003KT 9999 FEW015 SCT080 27/23 Q1013=
0178825640999992015010500004-05531-047460FM-15+013199999V0209999C000019999999N009999199+02701+02301999999ADDGA1021+006101999GA2021+007621091GE19MSL   +99999+99999GF199999021999006101999999MA1101301999999MW1131REMMET065METAR SBIZ 050000Z 00000KT 9999 VCTS FEW020 FEW025CB 27/23 Q1013=
0178825640999992015010501004-05531-047460FM-15+013199999V0209999C000019999999N009999199+02601+02301999999ADDGA1021+006101999GA2021+007621091GE19MSL   +99999+99999GF199999021999006101999999MA1101301999999MW1131REMMET065METAR SBIZ 050100Z 00000KT 9999 VCTS FEW020 FEW025CB 26/23 Q1013=
0178825640999992015010502004-05531-047460FM-15+013199999V0202001N000519999999N009999199+02501+02401999999ADDGA1021+004571999GA2021+007621091GE19MSL   +99999+99999GF199999021999004571999999MA1101301999999MW1131REMMET065METAR SBIZ 050200Z 20001KT 9999 VCTS FEW015 FEW025CB 25/24 Q1013=
0178825640999992015010502204-05531-047460FM-16+013199999V0201801N001019999999N009999199+02501+02401999999ADDGA1021+004571999GA2021+007621091GE19MSL   +99999+99999GF199999021999004571999999MA1101301999999MW1131REMMET065SPECI SBIZ 050220Z 18002KT 9999 VCTS FEW015 FEW025CB 25/24 Q1013=
0142825640999992015010507154-05531-047460FM-16+013199999V0200301N002119999999N009000199+02501+02401999999ADDGA1041+007621999GE19MSL   +99999+99999GF199999041999007621999999MA1101301999999REMMET051SPECI SBIZ 050715Z 03004KT 9000 SCT025 25/24 Q1013=
0142825640999992015010508004-05531-047460FM-15+013199999V0200301N001519999999N009000199+02501+02301999999ADDGA1041+006101999GE19MSL   +99999+99999GF199999041999006101999999MA1101301999999REMMET051METAR SBIZ 050800Z 03003KT 9000 SCT020 25/23 Q1013=
0142825640999992015010509004-05531-047460FM-15+013199999V0209999C000019999999N009999199+02401+02301999999ADDGA1021+009141999GE19MSL   +99999+99999GF199999021999009141999999MA1101401999999REMMET051METAR SBIZ 050900Z 00000KT 9999 FEW030 24/23 Q1014=
0142825640999992015010510004-05531-047460FM-15+013199999V0200701N002619999999N009999199+02401+02301999999ADDGA1021+004571999GE19MSL   +99999+99999GF199999021999004571999999MA1101501999999REMMET051METAR SBIZ 051000Z 07005KT 9999 FEW015 24/23 Q1015=
0142825640999992015010511004-05531-047460FM-15+013199999V0201201N002619999999N009999199+02601+02301999999ADDGA1021+002131999GE19MSL   +99999+99999GF199999021999002131999999MA1101501999999REMMET051METAR SBIZ 051100Z 12005KT 9999 FEW007 26/23 Q1015=
0072825640999992015010512004-05531-047460FM-15+013199999V0200901N002619999999Y999999999+02701+02301999999ADDMA1101501999999REMMET045METAR SBIZ 051200Z 09005KT CAVOK 27/23 Q1015=
0072825640999992015010513004-05531-047460FM-15+013199999V0200901N003119999999Y999999999+03001+02301999999ADDMA1101501999999REMMET045METAR SBIZ 051300Z 09006KT CAVOK 30/23 Q1015=
0142825640999992015010514004-05531-047460FM-15+013199999V0201101N004119999999N009999199+03101+02201999999ADDGA1021+006101999GE19MSL   +99999+99999GF199999021999006101999999MA1101501999999REMMET051METAR SBIZ 051400Z 11008KT 9999 FEW020 31/22 Q1015=
0142825640999992015010515004-05531-047460FM-15+013199999V0201101N003119999999N009999199+03201+02001999999ADDGA1021+006101999GE19MSL   +99999+99999GF199999021999006101999999MA1101401999999REMMET051METAR SBIZ 051500Z 11006KT 9999 FEW020 32/20 Q1014=
0142825640999992015010516004-05531-047460FM-15+013199999V0201101N004619999999N009999199+03401+02001999999ADDGA1041+006101999GE19MSL   +99999+99999GF199999041999006101999999MA1101301999999REMMET051METAR SBIZ 051600Z 11009KT 9999 SCT020 34/20 Q1013=
0142825640999992015010517004-05531-047460FM-15+013199999V0201301N002619999999N009999199+03401+02001999999ADDGA1041+006101999GE19MSL   +99999+99999GF199999041999006101999999MA1101201999999REMMET051METAR SBIZ 051700Z 13005KT 9999 SCT020 34/20 Q1012=
0142825640999992015010518004-05531-047460FM-15+013199999V0202301N001519999999N009999199+03501+02001999999ADDGA1041+006101999GE19MSL   +99999+99999GF199999041999006101999999MA1101101999999REMMET051METAR SBIZ 051800Z 23003KT 9999 SCT020 35/20 Q1011=
0142825640999992015010519004-05531-047460FM-15+013199999V0200901N002619999999N009999199+03501+02001999999ADDGA1041+007621999GE19MSL   +99999+99999GF199999041999007621999999MA1101001999999REMMET051METAR SBIZ 051900Z 09005KT 9999 SCT025 35/20 Q1010=
0142825640999992015010520004-05531-047460FM-15+013199999V0201601N002619999999N009999199+03401+02101999999ADDGA1041+007621999GE19MSL   +99999+99999GF199999041999007621999999MA1101001999999REMMET051METAR SBIZ 052000Z 16005KT 9999 SCT025 34/21 Q1010=
0168825640999992015010521004-05531-047460FM-15+013199999V0200801N005119999999N009999199+03001+02401999999ADDGA1041+009141999GA2021+010671081GE19MSL   +99999+99999GF199999041999009141999999MA1101101999999REMMET061METAR SBIZ 052100Z 08010KT 9999 SCT030 FEW035TCU 30/24 Q1011=
0178825640999992015010522004-05531-047460FM-15+013199999V0201001N003619999999N009999199+02901+02201999999ADDGA1041+009141999GA2021+010671091GE19MSL   +99999+99999GF199999041999009141999999MA1101101999999MW1131REMMET065METAR SBIZ 052200Z 10007KT 9999 VCTS SCT030 FEW035CB 29/22 Q1011=
0178825640999992015010523004-05531-047460FM-15+013199999V0200701N003619999999N009999199+02801+02201999999ADDGA1041+009141999GA2021+010671091GE19MSL   +99999+99999GF199999041999009141999999MA1101201999999MW1131REMMET065METAR SBIZ 052300Z 07007KT 9999 VCTS SCT030 FEW035CB 28/22 Q1012=
0168825640999992015010600004-05531-047460FM-15+013199999V0200701N001019999999N009999199+02801+02201999999ADDGA1041+009141999GA2021+010671081GE19MSL   +99999+99999GF199999041999009141999999MA1101301999999REMMET061METAR SBIZ 060000Z 07002KT 9999 SCT030 FEW035TCU 28/22 Q1013=
0142825640999992015010601004-05531-047460FM-15+013199999V0200901N001019999999N009999199+02701+02301999999ADDGA1021+009141999GE19MSL   +99999+99999GF199999021999009141999999MA1101301999999REMMET051METAR SBIZ 060100Z 09002KT 9999 FEW030 27/23 Q1013=
0142825640999992015010602004-05531-047460FM-15+013199999V0209999C000019999999N009999199+02601+02301999999ADDGA1021+009141999GE19MSL   +99999+99999GF199999021999009141999999MA1101301999999REMMET051METAR SBIZ 060200Z 00000KT 9999 FEW030 26/23 Q1013=
0142825640999992015010602124-05531-047460FM-16+013199999V0209999C000019999999N009999199+02601+02401999999ADDGA1021+009141999GE19MSL   +99999+99999GF199999021999009141999999MA1101301999999REMMET051SPECI SBIZ 060212Z 00000KT 9999 FEW030 26/24 Q1013=
0101825640999992015010607154-05531-047460FM-16+013199999V0201501N001512200019N009000199+02301+02201999999ADDGF100991999999999999999999MA1101301999999REMMET048SPECI SBIZ 060715Z 15003KT 9000 NSC 23/22 Q1013=
0101825640999992015010608004-05531-047460FM-15+013199999V0209999C000012200019N008000199+02301+02201999999ADDGF100991999999999999999999MA1101301999999REMMET048METAR SBIZ 060800Z 00000KT 8000 NSC 23/22 Q1013=
0142825640999992015010609004-05531-047460FM-15+013199999V0200701N001519999999N009999199+02301+02201999999ADDGA1021+004571999GE19MSL   +99999+99999GF199999021999004571999999MA1101301999999REMMET051METAR SBIZ 060900Z 07003KT 9999 FEW015 23/22 Q1013=
0142825640999992015010610004-05531-047460FM-15+013199999V0209999C000010045719N009999199+02501+02301999999ADDGA1071+004571999GE19MSL   +99999+99999GF199999071999004571999999MA1101401999999REMMET051METAR SBIZ 061000Z 00000KT 9999 BKN015 25/23 Q1014=
0142825640999992015010611004-05531-047460FM-15+013199999V0200601N002619999999N009999199+02701+02201999999ADDGA1041+004571999GE19MSL   +99999+99999GF199999041999004571999999MA1101401999999REMMET051METAR SBIZ 061100Z 06005KT 9999 SCT015 27/22 Q1014=
0142825640999992015010612004-05531-047460FM-15+013199999V0200601N002619999999N009999199+02801+02201999999ADDGA1021+004571999GE19MSL   +99999+99999GF199999021999004571999999MA1101501999999REMMET051METAR SBIZ 061200Z 06005KT 9999 FEW015 28/22 Q1015=
0142825640999992015010613004-05531-047460FM-15+013199999V0200901N002619999999N009999199+03101+02101999999ADDGA1021+006101999GE19MSL   +99999+99999GF199999021999006101999999MA1101501999999REMMET051METAR SBIZ 061300Z 09005KT 9999 FEW020 31/21 Q1015=
0142825640999992015010614004-05531-047460FM-15+013199999V0201001N002619999999N009999199+03201+02001999999ADDGA1021+006101999GE19MSL   +99999+99999GF199999021999006101999999MA1101501999999REMMET051METAR SBIZ 061400Z 10005KT 9999 FEW020 32/20 Q1015=
0142825640999992015010615004-05531-047460FM-15+013199999V0200101N004119999999N009999199+03301+02001999999ADDGA1041+009141999GE19MSL   +99999+99999GF199999041999009141999999MA1101401999999REMMET051METAR SBIZ 061500Z 01008KT 9999 SCT030 33/20 Q1014=
0142825640999992015010616004-05531-047460FM-15+013199999V0201901N002610097519N009999199+03401+02101999999ADDGA1071+009751999GE19MSL   +99999+99999GF199999071999009751999999MA1101301999999REMMET051METAR SBIZ 061600Z 19005KT 9999 BKN032 34/21 Q1013=
0142825640999992015010617004-05531-047460FM-15+013199999V0209999C000010106719N009999199+03401+02101999999ADDGA1071+010671999GE19MSL   +99999+99999GF199999071999010671999999MA1101201999999REMMET051METAR SBIZ 061700Z 00000KT 9999 BKN035 34/21 Q1012=
0142825640999992015010618004-05531-047460FM-15+013199999V0201201N002119999999N009999199+03401+02101999999ADDGA1041+010671999GE19MSL   +99999+99999GF199999041999010671999999MA1101101999999REMMET051METAR SBIZ 061800Z 12004KT 9999 SCT035 34/21 Q1011=
0142825640999992015010619004-05531-047460FM-15+013199999V0202801N002119999999N009999199+03301+02001999999ADDGA1041+012191999GE19MSL   +99999+99999GF199999041999012191999999MA1101101999999REMMET051METAR SBIZ 061900Z 28004KT 9999 SCT040 33/20 Q1011=
0142825640999992015010620004-05531-047460FM-15+013199999V0203201N003619999999N009999199+03401+02001999999ADDGA1021+012191999GE19MSL   +99999+99999GF199999021999012191999999MA1101101999999REMMET051METAR SBIZ 062000Z 32007KT 9999 FEW040 34/20 Q1011=
0142825640999992015010621004-05531-047460FM-15+013199999V0203101N002619999999N009999199+03201+02101999999ADDGA1021+012191999GE19MSL   +99999+99999GF199999021999012191999999MA1101101999999REMMET051METAR SBIZ 062100Z 31005KT 9999 FEW040 32/21 Q1011=
0178825640999992015010622004-05531-047460FM-15+013199999V0209999C000019999999N009999199+03101+02101999999ADDGA1021+006101999GA2021+012191091GE19MSL   +99999+99999GF199999021999006101999999MA1101101999999MW1131REMMET065METAR SBIZ 062200Z 00000KT 9999 VCTS FEW020 FEW040CB 31/21 Q1011=
0207825640999992015010623004-05531-047460FM-15+013199999V0202101N004110030519N001000199+02401+02301999999ADDGA1071+003051999GA2041+004571999GA3021+007621091GE19MSL   +99999+99999GF199999071999003051999999MA1101301999999MW1971REMMET078METAR SBIZ 062300Z 21008KT 1000 +TSRA BKN010 SCT015 FEW025CB 24/23      Q1013=
0207825640999992015010623154-05531-047460FM-16+013199999V0200801N00101004571CN009999199+02401+02301999999ADDGA1021+003051999GA2041+004571999GA3021+007621091GE19MSL   +99999+99999GF199999021999003051999999MA1101301999999MW1951REMMET078SPECI SBIZ 062315Z 08002KT 9999 -TSRA FEW010 SCT015 FEW025CB 24/23      Q1013=
0149825640999992015010700004-05531-047460FM-15+013199999V0202101N004119999999N009999199+02401+02301999999ADDGA1041+004571999GE19MSL   +99999+99999GF199999041999004571999999MA1101301999999REMMET058METAR SBIZ 070000Z 21008KT 9999 SCT015 24/23 Q1013 RETSRA=
0142825640999992015010701004-05531-047460FM-15+013199999V0201401N001019999999N009000199+02401+02401999999ADDGA1041+004571999GE19MSL   +99999+99999GF199999041999004571999999MA1101301999999REMMET051METAR SBIZ 070100Z 14002KT 9000 SCT015 24/24 Q1013=
0165825640999992015010702004-05531-047460FM-15+013199999V0201001N00151012191CN009999199+02401+02301999999ADDGA1021+004571999GA2041+012191999GE19MSL   +99999+99999GF199999021999004571999999MA1101301999999REMMET058METAR SBIZ 070200Z 10003KT 9999 FEW015 SCT040 24/23 Q1013=
0142825640999992015010703004-05531-047460FM-15+013199999V0202101N001519999999N009999199+02401+02301999999ADDGA1021+004571999GE19MSL   +99999+99999GF199999021999004571999999MA1101301999999REMMET051METAR SBIZ 070300Z 21003KT 9999 FEW015 24/23 Q1013=
0142825640999992015010703204-05531-047460FM-16+013199999V0209999C000019999999N009999199+02401+02301999999ADDGA1021+004571999GE19MSL   +99999+99999GF199999021999004571999999MA1101201999999REMMET051SPECI SBIZ 070320Z 00000KT 9999 FEW015 24/23 Q1012=
0101825640999992015010707154-05531-047460FM-16+013199999V0202001N001012200019N008000199+02301+02201999999ADDGF100991999999999999999999MA1101101999999REMMET048SPECI SBIZ 070715Z 20002KT 8000 NSC 23/22 Q1011=
0101825640999992015010708004-05531-047460FM-15+013199999V0209999C000012200019N008000199+02301+02301999999ADDGF100991999999999999999999MA1101201999999REMMET048METAR SBIZ 070800Z 00000KT 8000 NSC 23/23 Q1012=
0142825640999992015010709004-05531-047460FM-15+013199999V0209999C000019999999N008000199+02301+02201999999ADDGA1021+004571999GE19MSL   +99999+99999GF199999021999004571999999MA1101201999999REMMET051METAR SBIZ 070900Z 00000KT 8000 FEW015 23/22 Q1012=
0142825640999992015010710004-05531-047460FM-15+013199999V0201501N001519999999N009999199+02401+02301999999ADDGA1041+004571999GE19MSL   +99999+99999GF199999041999004571999999MA1101301999999REMMET051METAR SBIZ 071000Z 15003KT 9999 SCT015 24/23 Q1013=
0142825640999992015010711004-05531-047460FM-15+013199999V0209999C000010045719N009999199+02501+02401999999ADDGA1071+004571999GE19MSL   +99999+99999GF199999071999004571999999MA1101301999999REMMET051METAR SBIZ 071100Z 00000KT 9999 BKN015 25/24 Q1013=
0142825640999992015010712004-05531-047460FM-15+013199999V0202001N001510045719N009999199+02701+02401999999ADDGA1071+004571999GE19MSL   +99999+99999GF199999071999004571999999MA1101401999999REMMET051METAR SBIZ 071200Z 20003KT 9999 BKN015 27/24 Q1014=
0142825640999992015010713004-05531-047460FM-15+013199999V0200801N004110070119N009999199+02901+02301999999ADDGA1071+007011999GE19MSL   +99999+99999GF199999071999007011999999MA1101401999999REMMET051METAR SBIZ 071300Z 08008KT 9999 BKN023 29/23 Q1014=
0142825640999992015010714004-05531-047460FM-15+013199999V0200801N003110076219N009999199+03001+02301999999ADDGA1071+007621999GE19MSL   +99999+99999GF199999071999007621999999MA1101301999999REMMET051METAR SBIZ 071400Z 08006KT 9999 BKN025 30/23 Q1013=
0142825640999992015010715004-05531-047460FM-15+013199999V0200501N003110076219N009999199+03101+02301999999ADDGA1071+007621999GE19MSL   +99999+99999GF199999071999007621999999MA1101301999999REMMET051METAR SBIZ 071500Z 05006KT 9999 BKN025 31/23 Q1013=
0142825640999992015010716004-05531-047460FM-15+013199999V0200701N003110076219N009999199+03201+02201999999ADDGA1071+007621999GE19MSL   +99999+99999GF199999071999007621999999MA1101201999999REMMET051METAR SBIZ 071600Z 07006KT 9999 BKN025 32/22 Q1012=
0142825640999992015010717004-05531-047460FM-15+013199999V0201801N003110076219N009999199+03101+02501999999ADDGA1071+007621999GE19MSL   +99999+99999GF199999071999007621999999MA1101101999999REMMET051METAR SBIZ 071700Z 18006KT 9999 BKN025 31/25 Q1011=
0213825640999992015010717404-05531-047460FM-16+013199999V0201201N01031006101CN007000199+02401+02201999999ADDGA1041+003051999GA2041+006101999GA3021+007621091GE19MSL   +99999+99999GF199999041999003051999999MA1101201999999MW1951REMMET084SPECI SBIZ 071740Z 12020KT 7000 2000E -TSRA SCT010 SCT020 FEW025CB      24/22 Q1012=
0212825640999992015010718004-05531-047460FM-15+013199999V0201201N00671006101CN005000199+02202+02101999999ADDGA1041+004571999GA2041+006101999GA3021+007621091GE19MSL   +99999+99999GF199999041999004571999999MA1101201999999MW1951REMMET083METAR SBIZ 071800Z 12013KT 5000 1000E TSRA SCT015 SCT020 FEW025CB 22/21      Q1012=
0199825640999992015010718204-05531-047460FM-16+013199999V0201601N002110213419N009999199+02201+02201999999ADDGA1041+004571999GA2021+007621091GA3071+021341999GE19MSL   +99999+99999GF199999041999004571999999MA1101101999999MW1171REMMET070SPECI SBIZ 071820Z 16004KT 9999 TS SCT015 FEW025CB BKN070 22/22 Q1011=
0172825640999992015010719004-05531-047460FM-15+013199999V0201101N002110045719N009999199+02301+02201999999ADDGA1071+004571999GA2071+021341999GE19MSL   +99999+99999GF199999071999004571999999MA1101101999999REMMET065METAR SBIZ 071900Z 11004KT 9999 BKN015 BKN070 23/22 Q1011 RETSRA=
0198825640999992015010720004-05531-047460FM-15+013199999V0201701N00261009141CN009000199+02301+02201999999ADDGA1021+004571999GA2041+009141999GA3071+021341999GE19MSL   +99999+99999GF199999021999004571999999MA1101001999999MW1611REMMET069METAR SBIZ 072000Z 17005KT 9000 -RA FEW015 SCT030 BKN070 23/22 Q1010=
0165825640999992015010721004-05531-047460FM-15+013199999V0201801N002610213419N009999199+02301+02201999999ADDGA1021+006101999GA2071+021341999GE19MSL   +99999+99999GF199999021999006101999999MA1101001999999REMMET058METAR SBIZ 072100Z 18005KT 9999 FEW020 BKN070 23/22 Q1010=
0165825640999992015010722004-05531-047460FM-15+013199999V0202401N002110213419N009999199+02201+02201999999ADDGA1021+006101999GA2071+021341999GE19MSL   +99999+99999GF199999021999006101999999MA1101101999999REMMET058METAR SBIZ 072200Z 24004KT 9999 FEW020 BKN070 22/22 Q1011=
0165825640999992015010723004-05531-047460FM-15+013199999V0209999C000010213419N009999199+02301+02301999999ADDGA1021+006101999GA2071+021341999GE19MSL   +99999+99999GF199999021999006101999999MA1101101999999REMMET058METAR SBIZ 072300Z 00000KT 9999 FEW020 BKN070 23/23 Q1011=
0165825640999992015010800004-05531-047460FM-15+013199999V0200901N001010213419N009999199+02301+02201999999ADDGA1021+006101999GA2071+021341999GE19MSL   +99999+99999GF199999021999006101999999MA1101101999999REMMET058METAR SBIZ 080000Z 09002KT 9999 FEW020 BKN070 23/22 Q1011=
0072825640999992015010801004-05531-047460FM-15+013199999V0209999C000019999999Y999999999+02301+02301999999ADDMA1101201999999REMMET045METAR SBIZ 080100Z 00000KT CAVOK 23/23 Q1012=
0072825640999992015010802004-05531-047460FM-15+013199999V0209999C000019999999Y999999999+02201+02201999999ADDMA1101201999999REMMET045METAR SBIZ 080200Z 00000KT CAVOK 22/22 Q1012=
0142825640999992015010802304-05531-047460FM-16+013199999V0201801N001019999999N009999199+02201+02201999999ADDGA1041+006101999GE19MSL   +99999+99999GF199999041999006101999999MA1101201999999REMMET051SPECI SBIZ 080230Z 18002KT 9999 SCT020 22/22 Q1012=
0142825640999992015010807154-05531-047460FM-16+013199999V0202101N001019999999N008000199+02201+02201999999ADDGA1021+012191999GE19MSL   +99999+99999GF199999021999012191999999MA1101101999999REMMET051SPECI SBIZ 080715Z 21002KT 8000 FEW040 22/22 Q1011=
0142825640999992015010808004-05531-047460FM-15+013199999V0209999C000019999999N006000199+02201+02201999999ADDGA1021+012191999GE19MSL   +99999+99999GF199999021999012191999999MA1101101999999REMMET051METAR SBIZ 080800Z 00000KT 6000 FEW040 22/22 Q1011=
0165825640999992015010809004-05531-047460FM-15+013199999V0209999C00001030481CN009999199+02201+02201999999ADDGA1021+001521999GA2041+030481999GE19MSL   +99999+99999GF199999021999001521999999MA1101101999999REMMET058METAR SBIZ 080900Z 00000KT 9999 FEW005 SCT100 22/22 Q1011=
0165825640999992015010810004-05531-047460FM-15+013199999V0202301N00151030481CN009999199+02201+02201999999ADDGA1021+001521999GA2041+030481999GE19MSL   +99999+99999GF199999021999001521999999MA1101201999999REMMET058METAR SBIZ 081000Z 23003KT 9999 FEW005 SCT100 22/22 Q1012=
0165825640999992015010811004-05531-047460FM-15+013199999V0202401N00211030481CN009999199+02501+02301999999ADDGA1021+002441999GA2041+030481999GE19MSL   +99999+99999GF199999021999002441999999MA1101301999999REMMET058METAR SBIZ 081100Z 24004KT 9999 FEW008 SCT100 25/23 Q1013=
0142825640999992015010812004-05531-047460FM-15+013199999V0209999C000010045719N009999199+02801+02401999999ADDGA1071+004571999GE19MSL   +99999+99999GF199999071999004571999999MA1101301999999REMMET051METAR SBIZ 081200Z 00000KT 9999 BKN015 28/24 Q1013=
0165825640999992015010813004-05531-047460FM-15+013199999V0201401N003610061019N009999199+02801+02401999999ADDGA1021+004571999GA2071+006101999GE19MSL   +99999+99999GF199999021999004571999999MA1101301999999REMMET058METAR SBIZ 081300Z 14007KT 9999 FEW015 BKN020 28/24 Q1013=
0142825640999992015010814004-05531-047460FM-15+013199999V0201001N003110070119N009999199+02901+02401999999ADDGA1071+007011999GE19MSL   +99999+99999GF199999071999007011999999MA1101301999999REMMET051METAR SBIZ 081400Z 10006KT 9999 BKN023 29/24 Q1013=
0142825640999992015010815004-05531-047460FM-15+013199999V0200901N001510061019N009999199+03001+02401999999ADDGA1071+006101999GE19MSL   +99999+99999GF199999071999006101999999MA1101301999999REMMET051METAR SBIZ 081500Z 09003KT 9999 BKN020 30/24 Q1013=
0168825640999992015010816004-05531-047460FM-15+013199999V0202301N004610061019N009999199+03101+02301999999ADDGA1071+006101999GA2021+007621081GE19MSL   +99999+99999GF199999071999006101999999MA1101201999999REMMET061METAR SBIZ 081600Z 23009KT 9999 BKN020 FEW025TCU 31/23 Q1012=
0168825640999992015010817004-05531-047460FM-15+013199999V0202301N003619999999N009999199+03201+02401999999ADDGA1041+006101999GA2021+007621081GE19MSL   +99999+99999GF199999041999006101999999MA1101101999999REMMET061METAR SBIZ 081700Z 23007KT 9999 SCT020 FEW025TCU 32/24 Q1011=
0168825640999992015010818004-05531-047460FM-15+013199999V0202101N004110061019N009999199+03201+02201999999ADDGA1071+006101999GA2021+007621081GE19MSL   +99999+99999GF199999071999006101999999MA1101001999999REMMET061METAR SBIZ 081800Z 21008KT 9999 BKN020 FEW025TCU 32/22 Q1010=
0168825640999992015010819004-05531-047460FM-15+013199999V0201501N004119999999N009999199+03301+02201999999ADDGA1041+007011999GA2021+007621081GE19MSL   +99999+99999GF199999041999007011999999MA1100901999999REMMET061METAR SBIZ 081900Z 15008KT 9999 SCT023 FEW025TCU 33/22 Q1009=
0142825640999992015010820004-05531-047460FM-15+013199999V0201401N003119999999N009999199+03201+02101999999ADDGA1021+007011999GE19MSL   +99999+99999GF199999021999007011999999MA1100901999999REMMET051METAR SBIZ 082000Z 14006KT 9999 FEW023 32/21 Q1009=
0165825640999992015010821004-05531-047460FM-15+013199999V0201701N00151030481CN009999199+03201+02401999999ADDGA1021+009141999GA2041+030481999GE19MSL   +99999+99999GF199999021999009141999999MA1100901999999REMMET058METAR SBIZ 082100Z 17003KT 9999 FEW030 SCT100 32/24 Q1009=
0165825640999992015010822004-05531-047460FM-15+013199999V0200601N00211030481CN009999199+02901+02401999999ADDGA1021+009141999GA2041+030481999GE19MSL   +99999+99999GF199999021999009141999999MA1101001999999REMMET058METAR SBIZ 082200Z 06004KT 9999 FEW030 SCT100 29/24 Q1010=
0165825640999992015010823004-05531-047460FM-15+013199999V0200901N00211030481CN009999199+02801+02401999999ADDGA1021+006101999GA2041+030481999GE19MSL   +99999+99999GF199999021999006101999999MA1101001999999REMMET058METAR SBIZ 082300Z 09004KT 9999 FEW020 SCT100 28/24 Q1010=
0142825640999992015010900004-05531-047460FM-15+013199999V0209999C000019999999N009999199+02701+02501999999ADDGA1021+009141999GE19MSL   +99999+99999GF199999021999009141999999MA1101101999999REMMET051METAR SBIZ 090000Z 00000KT 9999 FEW030 27/25 Q1011=
0072825640999992015010901004-05531-047460FM-15+013199999V0209999C000019999999Y999999999+02601+02501999999ADDMA1101101999999REMMET045METAR SBIZ 090100Z 00000KT CAVOK 26/25 Q1011=
0072825640999992015010902004-05531-047460FM-15+013199999V0201001N001019999999Y999999999+02601+02401999999ADDMA1101101999999REMMET045METAR SBIZ 090200Z 10002KT CAVOK 26/24 Q1011=
0072825640999992015010902254-05531-047460FM-16+013199999V0209999C000019999999Y999999999+02601+02401999999ADDMA1101101999999REMMET045SPECI SBIZ 090225Z 00000KT CAVOK 26/24 Q1011=
0101825640999992015010907154-05531-047460FM-16+013199999V0200901N001512200019N009000199+02401+02301999999ADDGF100991999999999999999999MA1101001999999REMMET048SPECI SBIZ 090715Z 09003KT 9000 NSC 24/23 Q1010=
0101825640999992015010908004-05531-047460FM-15+013199999V0200901N002612200019N009000199+02401+02301999999ADDGF100991999999999999999999MA1101101999999REMMET048METAR SBIZ 090800Z 09005KT 9000 NSC 24/23 Q1011=
0072825640999992015010909004-05531-047460FM-15+013199999V0209999C000019999999Y999999999+02401+02201999999ADDMA1101201999999REMMET045METAR SBIZ 090900Z 00000KT CAVOK 24/22 Q1012=
0072825640999992015010910004-05531-047460FM-15+013199999V0200701N001519999999Y999999999+02501+02201999999ADDMA1101301999999REMMET045METAR SBIZ 091000Z 07003KT CAVOK 25/22 Q1013=
0072825640999992015010911004-05531-047460FM-15+013199999V0201201N002619999999Y999999999+02701+02301999999ADDMA1101301999999REMMET045METAR SBIZ 091100Z 12005KT CAVOK 27/23 Q1013=
0142825640999992015010912004-05531-047460FM-15+013199999V0201001N004119999999N009999199+02901+02201999999ADDGA1021+004571999GE19MSL   +99999+99999GF199999021999004571999999MA1101401999999REMMET051METAR SBIZ 091200Z 10008KT 9999 FEW015 29/22 Q1014=
0142825640999992015010913004-05531-047460FM-15+013199999V0201001N004119999999N009999199+03001+02201999999ADDGA1021+004571999GE19MSL   +99999+99999GF199999021999004571999999MA1101401999999REMMET051METAR SBIZ 091300Z 10008KT 9999 FEW015 30/22 Q1014=
0142825640999992015010914004-05531-047460FM-15+013199999V0200701N002110061019N009999199+03101+02301999999ADDGA1071+006101999GE19MSL   +99999+99999GF199999071999006101999999MA1101301999999REMMET051METAR SBIZ 091400Z 07004KT 9999 BKN020 31/23 Q1013=
0142825640999992015010915004-05531-047460FM-15+013199999V0203301N001010061019N009999199+03301+02401999999ADDGA1071+006101999GE19MSL   +99999+99999GF199999071999006101999999MA1101301999999REMMET051METAR SBIZ 091500Z 33002KT 9999 BKN020 33/24 Q1013=
0142825640999992015010916004-05531-047460FM-15+013199999V0200601N001510061019N009999199+03401+02401999999ADDGA1071+006101999GE19MSL   +99999+99999GF199999071999006101999999MA1101201999999REMMET051METAR SBIZ 091600Z 06003KT 9999 BKN020 34/24 Q1012=
0142825640999992015010917004-05531-047460FM-15+013199999V0201501N002110061019N009999199+03401+02401999999ADDGA1071+006101999GE19MSL   +99999+99999GF199999071999006101999999MA1101101999999REMMET051METAR SBIZ 091700Z 15004KT 9999 BKN020 34/24 Q1011=
0142825640999992015010918004-05531-047460FM-15+013199999V0202701N001519999999N009999199+03501+02401999999ADDGA1041+006101999GE19MSL   +99999+99999GF199999041999006101999999MA1101001999999REMMET051METAR SBIZ 091800Z 27003KT 9999 SCT020 35/24 Q1010=
0158825640999992015010918154-05531-047460FM-16+013199999V0201801N007210061019N004500199+02901+02501999999ADDGA1071+006101999GE19MSL   +99999+99999GF199999071999006101999999MA1101001999999MW1631REMMET061SPECI SBIZ 091815Z 18014KT 4500 0400SW RA BKN020 29/25 Q1010=
0196825640999992015010918304-05531-047460FM-16+013199999V0202401N004110061019N009999199+02801+02501999999ADDGA1071+006101999GA2021+007621091GE19MSL   +99999+99999GF199999071999006101999999MA1101001999999MW1951REMMET083SPECI SBIZ 091830Z 24008KT 9999 3000SW -TSRA BKN020 FEW025CB 28/25      Q1010 RERA=
0147825640999992015010919004-05531-047460FM-15+013199999V0203001N002619999999N009999199+03001+02601999999ADDGA1041+007621999GE19MSL   +99999+99999GF199999041999007621999999MA1100901999999REMMET056METAR SBIZ 091900Z 30005KT 9999 SCT025 30/26 Q1009 RETS=
0165825640999992015010920004-05531-047460FM-15+013199999V0201201N00211012191CN009999199+03301+02401999999ADDGA1021+006101999GA2041+012191999GE19MSL   +99999+99999GF199999021999006101999999MA1101001999999REMMET058METAR SBIZ 092000Z 12004KT 9999 FEW020 SCT040 33/24 Q1010=
0172825640999992015010921004-05531-047460FM-15+013199999V0200301N00211009141CN009999199+03001+02501999999ADDGA1041+007011999GA2041+009141999GE19MSL   +99999+99999GF199999041999007011999999MA1101001999999REMMET065METAR SBIZ 092100Z 03004KT 9999 SCT023 SCT030 30/25 Q1010 RESHRA=
0165825640999992015010922004-05531-047460FM-15+013199999V0201101N00211007011CN009999199+02901+02501999999ADDGA1041+005491999GA2041+007011999GE19MSL   +99999+99999GF199999041999005491999999MA1101101999999REMMET058METAR SBIZ 092200Z 11004KT 9999 SCT018 SCT023 29/25 Q1011=
0165825640999992015010923004-05531-047460FM-15+013199999V0202501N00151006101CN009999199+02801+02501999999ADDGA1041+004571999GA2041+006101999GE19MSL   +99999+99999GF199999041999004571999999MA1101101999999REMMET058METAR SBIZ 092300Z 25003KT 9999 SCT015 SCT020 28/25 Q1011=
0142825640999992015011000004-05531-047460FM-15+013199999V0209999C000019999999N009999199+02801+02501999999ADDGA1041+004571999GE19MSL   +99999+99999GF199999041999004571999999MA1101201999999REMMET051METAR SBIZ 100000Z 00000KT 9999 SCT015 28/25 Q1012=
0142825640999992015011001004-05531-047460FM-15+013199999V0202501N001019999999N009999199+02701+02501999999ADDGA1021+004571999GE19MSL   +99999+99999GF199999021999004571999999MA1101201999999REMMET051METAR SBIZ 100100Z 25002KT 9999 FEW015 27/25 Q1012=
0178825640999992015011001354-05531-047460FM-16+013199999V0202501N000519999999N009999199+02601+02501999999ADDGA1021+004571999GA2021+007621091GE19MSL   +99999+99999GF199999021999004571999999MA1101201999999MW1131REMMET065SPECI SBIZ 100135Z 25001KT 9999 VCTS FEW015 FEW025CB 26/25 Q1012=
0178825640999992015011002004-05531-047460FM-15+013199999V0202501N000519999999N009999199+02601+02501999999ADDGA1021+004571999GA2021+007621091GE19MSL   +99999+99999GF199999021999004571999999MA1101201999999MW1131REMMET065METAR SBIZ 100200Z 25001KT 9999 VCTS FEW015 FEW025CB 26/25 Q1012=
0178825640999992015011002154-05531-047460FM-16+013199999V0202501N001019999999N009999199+02601+02501999999ADDGA1021+004571999GA2021+007621091GE19MSL   +99999+99999GF199999021999004571999999MA1101201999999MW1131REMMET065SPECI SBIZ 100215Z 25002KT 9999 VCTS FEW015 FEW025CB 26/25 Q1012=
0101825640999992015011007154-05531-047460FM-16+013199999V0203001N002112200019N008000199+02601+02501999999ADDGF100991999999999999999999MA1101001999999REMMET048SPECI SBIZ 100715Z 30004KT 8000 NSC 26/25 Q1010=
0101825640999992015011008004-05531-047460FM-15+013199999V0203601N001512200019N008000199+02601+02501999999ADDGF100991999999999999999999MA1101101999999REMMET048METAR SBIZ 100800Z 36003KT 8000 NSC 26/25 Q1011=
0101825640999992015011009004-05531-047460FM-15+013199999V0200701N001012200019N009000199+02501+02401999999ADDGF100991999999999999999999MA1101101999999REMMET048METAR SBIZ 100900Z 07002KT 9000 NSC 25/24 Q1011=
0101825640999992015011010004-05531-047460FM-15+013199999V0201501N001012200019N009000199+02501+02401999999ADDGF100991999999999999999999MA1101301999999REMMET048METAR SBIZ 101000Z 15002KT 9000 NSC 25/24 Q1013=
0142825640999992015011011004-05531-047460FM-15+013199999V0201601N001010091419N009999199+02601+02501999999ADDGA1071+009141999GE19MSL   +99999+99999GF199999071999009141999999MA1101401999999REMMET051METAR SBIZ 101100Z 16002KT 9999 BKN030 26/25 Q1014=
0142825640999992015011012004-05531-047460FM-15+013199999V0203601N002110061019N009999199+02801+02501999999ADDGA1071+006101999GE19MSL   +99999+99999GF199999071999006101999999MA1101501999999REMMET051METAR SBIZ 101200Z 36004KT 9999 BKN020 28/25 Q1015=
0142825640999992015011013004-05531-047460FM-15+013199999V0200701N004110061019N009999199+03001+02501999999ADDGA1071+006101999GE19MSL   +99999+99999GF199999071999006101999999MA1101501999999REMMET051METAR SBIZ 101300Z 07008KT 9999 BKN020 30/25 Q1015=
0142825640999992015011014004-05531-047460FM-15+013199999V0203501N002610061019N009999199+03101+02401999999ADDGA1071+006101999GE19MSL   +99999+99999GF199999071999006101999999MA1101401999999REMMET051METAR SBIZ 101400Z 35005KT 9999 BKN020 31/24 Q1014=
0142825640999992015011015004-05531-047460FM-15+013199999V0203201N001510061019N009999199+03201+02301999999ADDGA1071+006101999GE19MSL   +99999+99999GF199999071999006101999999MA1101401999999REMMET051METAR SBIZ 101500Z 32003KT 9999 BKN020 32/23 Q1014=
0168825640999992015011016004-05531-047460FM-15+013199999V0203501N002610061019N009999199+03101+02301999999ADDGA1071+006101999GA2021+007621081GE19MSL   +99999+99999GF199999071999006101999999MA1101201999999REMMET061METAR SBIZ 101600Z 35005KT 9999 BKN020 FEW025TCU 31/23 Q1012=
0168825640999992015011017004-05531-047460FM-15+013199999V0203301N002110061019N009999199+02901+02501999999ADDGA1071+006101999GA2021+007621081GE19MSL   +99999+99999GF199999071999006101999999MA1101201999999REMMET061METAR SBIZ 101700Z 33004KT 9999 BKN020 FEW025TCU 29/25 Q1012=
0106825640999992015011018004-05531-047460FM-15+013199999V0202701N002119999999N999999999+99999+99999999999ADDMA1101105999999REMMET060METAR SBIZ 101800Z 27004KT 9999SCT020 FEW025TCU 32/24 Q1011=EQDD01      0ADE693
0142825640999992015011019004-05531-047460FM-15+013199999V0200601N001519999999N009999199+03301+02401999999ADDGA1021+006101999GE19MSL   +99999+99999GF199999021999006101999999MA1101001999999REMMET051METAR SBIZ 101900Z 06003KT 9999 FEW020 33/24 Q1010=
0142825640999992015011020004-05531-047460FM-15+013199999V0203501N002619999999N009999199+03301+02301999999ADDGA1021+007621999GE19MSL   +99999+99999GF199999021999007621999999MA1101001999999REMMET051METAR SBIZ 102000Z 35005KT 9999 FEW025 33/23 Q1010=
0142825640999992015011021004-05531-047460FM-15+013199999V0202301N001019999999N009999199+03101+02501999999ADDGA1021+008531999GE19MSL   +99999+99999GF199999021999008531999999MA1101001999999REMMET051METAR SBIZ 102100Z 23002KT 9999 FEW028 31/25 Q1010=
0142825640999992015011022004-05531-047460FM-15+013199999V0209999C000019999999N009999199+03001+02401999999ADDGA1021+008531999GE19MSL   +99999+99999GF199999021999008531999999MA1101101999999REMMET051METAR SBIZ 102200Z 00000KT 9999 FEW028 30/24 Q1011=
0142825640999992015011023004-05531-047460FM-15+013199999V0209999C000019999999N009999199+02901+02501999999ADDGA1021+008531999GE19MSL   +99999+99999GF199999021999008531999999MA1101101999999REMMET051METAR SBIZ 102300Z 00000KT 9999 FEW028 29/25 Q1011=
0142825640999992015011100004-05531-047460FM-15+013199999V0200801N001519999999N009999199+02801+02401999999ADDGA1021+008531999GE19MSL   +99999+99999GF199999021999008531999999MA1101201999999REMMET051METAR SBIZ 110000Z 08003KT 9999 FEW028 28/24 Q1012=
0142825640999992015011101004-05531-047460FM-15+013199999V0201401N001519999999N009999199+02701+02501999999ADDGA1021+008531999GE19MSL   +99999+99999GF199999021999008531999999MA1101201999999REMMET051METAR SBIZ 110100Z 14003KT 9999 FEW028 27/25 Q1012=
0142825640999992015011102004-05531-047460FM-15+013199999V0209999C000019999999N009999199+02601+02401999999ADDGA1021+008531999GE19MSL   +99999+99999GF199999021999008531999999MA1101201999999REMMET051METAR SBIZ 110200Z 00000KT 9999 FEW028 26/24 Q1012=
0101825640999992015011107154-05531-047460FM-16+013199999V0209999C000012200019N008000199+02401+02301999999ADDGF100991999999999999999999MA1101001999999REMMET048SPECI SBIZ 110715Z 00000KT 8000 NSC 24/23 Q1010=
0165825640999992015011108004-05531-047460FM-15+013199999V0209999C00001004571CN008000199+02401+02301999999ADDGA1021+001521999GA2041+004571999GE19MSL   +99999+99999GF199999021999001521999999MA1101101999999REMMET058METAR SBIZ 110800Z 00000KT 8000 FEW005 SCT015 24/23 Q1011=
0142825640999992015011109004-05531-047460FM-15+013199999V0209999C000019999999N009000199+02301+02301999999ADDGA1021+001831999GE19MSL   +99999+99999GF199999021999001831999999MA1101201999999REMMET051METAR SBIZ 110900Z 00000KT 9000 FEW006 23/23 Q1012=
0165825640999992015011110004-05531-047460FM-15+013199999V0201501N00151004571CN009999199+02401+02301999999ADDGA1021+001831999GA2041+004571999GE19MSL   +99999+99999GF199999021999001831999999MA1101301999999REMMET058METAR SBIZ 111000Z 15003KT 9999 FEW006 SCT015 24/23 Q1013=
0165825640999992015011111004-05531-047460FM-15+013199999V0201801N001510045719N009999199+02601+02401999999ADDGA1021+002441999GA2081+004571999GE19MSL   +99999+99999GF199999021999002441999999MA1101401999999REMMET058METAR SBIZ 111100Z 18003KT 9999 FEW008 OVC015 26/24 Q1014=
0142825640999992015011112004-05531-047460FM-15+013199999V0201001N002610045719N009999199+02701+02301999999ADDGA1081+004571999GE19MSL   +99999+99999GF199999081999004571999999MA1101401999999REMMET051METAR SBIZ 111200Z 10005KT 9999 OVC015 27/23 Q1014=
0142825640999992015011113004-05531-047460FM-15+013199999V0200801N002610045719N009999199+02901+02301999999ADDGA1071+004571999GE19MSL   +99999+99999GF199999071999004571999999MA1101401999999REMMET051METAR SBIZ 111300Z 08005KT 9999 BKN015 29/23 Q1014=
0165825640999992015011114004-05531-047460FM-15+013199999V0200901N002610061019N009999199+03001+02301999999ADDGA1041+004571999GA2071+006101999GE19MSL   +99999+99999GF199999041999004571999999MA1101401999999REMMET058METAR SBIZ 111400Z 09005KT 9999 SCT015 BKN020 30/23 Q1014=
0165825640999992015011115004-05531-047460FM-15+013199999V0209999C000010085319N009999199+03101+02401999999ADDGA1021+005181999GA2071+008531999GE19MSL   +99999+99999GF199999021999005181999999MA1101301999999REMMET058METAR SBIZ 111500Z 00000KT 9999 FEW017 BKN028 31/24 Q1013=
0152825640999992015011116004-05531-047460FM-15+013199999V0202101N001510091419N009999199+03201+02401999999ADDGA1071+009141999GE19MSL   +99999+99999GF199999071999009141999999MA1101201999999MW1611REMMET055METAR SBIZ 111600Z 21003KT 9999 -RA BKN030 32/24 Q1012=
0142825640999992015011117004-05531-047460FM-15+013199999V0201401N004119999999N009999199+03301+02401999999ADDGA1041+009141999GE19MSL   +99999+99999GF199999041999009141999999MA1101101999999REMMET051METAR SBIZ 111700Z 14008KT 9999 SCT030 33/24 Q1011=
0142825640999992015011118004-05531-047460FM-15+013199999V0201401N003119999999N009999199+03301+02301999999ADDGA1041+010671999GE19MSL   +99999+99999GF199999041999010671999999MA1101001999999REMMET051METAR SBIZ 111800Z 14006KT 9999 SCT035 33/23 Q1010=
0142825640999992015011119004-05531-047460FM-15+013199999V0201901N002119999999N009999199+03401+02201999999ADDGA1041+010671999GE19MSL   +99999+99999GF199999041999010671999999MA1100901999999REMMET051METAR SBIZ 111900Z 19004KT 9999 SCT035 34/22 Q1009=
0142825640999992015011120004-05531-047460FM-15+013199999V0201101N002619999999N009999199+03301+02301999999ADDGA1041+010671999GE19MSL   +99999+99999GF199999041999010671999999MA1100901999999REMMET051METAR SBIZ 112000Z 11005KT 9999 SCT035 33/23 Q1009=
0142825640999992015011121004-05531-047460FM-15+013199999V0209999C000019999999N009999199+03101+02301999999ADDGA1041+010671999GE19MSL   +99999+99999GF199999041999010671999999MA1100901999999REMMET051METAR SBIZ 112100Z 00000KT 9999 SCT035 31/23 Q1009=
0142825640999992015011122004-05531-047460FM-15+013199999V0209999C000019999999N009999199+03001+02401999999ADDGA1021+009141999GE19MSL   +99999+99999GF199999021999009141999999MA1101001999999REMMET051METAR SBIZ 112200Z 00000KT 9999 FEW030 30/24 Q1010=
0142825640999992015011123004-05531-047460FM-15+013199999V0200101N004119999999N009999199+03001+02501999999ADDGA1021+009141999GE19MSL   +99999+99999GF199999021999009141999999MA1101101999999REMMET051METAR SBIZ 112300Z 01008KT 9999 FEW030 30/25 Q1011=
0142825640999992015011200004-05531-047460FM-15+013199999V0200301N003119999999N009999199+02901+02501999999ADDGA1021+007011999GE19MSL   +99999+99999GF199999021999007011999999MA1101101999999REMMET051METAR SBIZ 120000Z 03006KT 9999 FEW023 29/25 Q1011=
0142825640999992015011201004-05531-047460FM-15+013199999V0203501N005119999999N009999199+02801+02501999999ADDGA1021+007011999GE19MSL   +99999+99999GF199999021999007011999999MA1101201999999REMMET051METAR SBIZ 120100Z 35010KT 9999 FEW023 28/25 Q1012=
0142825640999992015011202004-05531-047460FM-15+013199999V0209999C000019999999N009999199+02701+02401999999ADDGA1021+006101999GE19MSL   +99999+99999GF199999021999006101999999MA1101201999999REMMET051METAR SBIZ 120200Z 00000KT 9999 FEW020 27/24 Q1012=
0142825640999992015011203004-05531-047460FM-15+013199999V0201601N000519999999N009999199+02601+02501999999ADDGA1021+006101999GE19MSL   +99999+99999GF199999021999006101999999MA1101201999999REMMET051METAR SBIZ 120300Z 16001KT 9999 FEW020 26/25 Q1012=
0165825640999992015011207154-05531-047460FM-16+013199999V0200901N001010045719N009000199+02501+02401999999ADDGA1021+001831999GA2071+004571999GE19MSL   +99999+99999GF199999021999001831999999MA1101101999999REMMET058SPECI SBIZ 120715Z 09002KT 9000 FEW006 BKN015 25/24 Q1011=
0165825640999992015011208004-05531-047460FM-15+013199999V0201101N00151004571CN009000199+02501+02301999999ADDGA1021+001831999GA2041+004571999GE19MSL   +99999+99999GF199999021999001831999999MA1101201999999REMMET058METAR SBIZ 120800Z 11003KT 9000 FEW006 SCT015 25/23 Q1012=
0142825640999992015011209004-05531-047460FM-15+013199999V0200901N001519999999N009999199+02501+02301999999ADDGA1021+001831999GE19MSL   +99999+99999GF199999021999001831999999MA1101201999999REMMET051METAR SBIZ 120900Z 09003KT 9999 FEW006 25/23 Q1012=
0165825640999992015011210004-05531-047460FM-15+013199999V0209999C00001012191CN009999199+02501+02301999999ADDGA1021+004571999GA2041+012191999GE19MSL   +99999+99999GF199999021999004571999999MA1101401999999REMMET058METAR SBIZ 121000Z 00000KT 9999 FEW015 SCT040 25/23 Q1014=
0142825640999992015011211004-05531-047460FM-15+013199999V0201301N002610045719N009999199+02701+02401999999ADDGA1071+004571999GE19MSL   +99999+99999GF199999071999004571999999MA1101401999999REMMET051METAR SBIZ 121100Z 13005KT 9999 BKN015 27/24 Q1014=
0142825640999992015011212004-05531-047460FM-15+013199999V0200901N004610045719N009999199+02901+02301999999ADDGA1071+004571999GE19MSL   +99999+99999GF199999071999004571999999MA1101401999999REMMET051METAR SBIZ 121200Z 09009KT 9999 BKN015 29/23 Q1014=
0165825640999992015011213004-05531-047460FM-15+013199999V0200701N005110061019N009999199+03001+02301999999ADDGA1021+004571999GA2071+006101999GE19MSL   +99999+99999GF199999021999004571999999MA1101401999999REMMET058METAR SBIZ 121300Z 07010KT 9999 FEW015 BKN020 30/23 Q1014=
0142825640999992015011214004-05531-047460FM-15+013199999V0201201N004610082319N009999199+03201+02301999999ADDGA1071+008231999GE19MSL   +99999+99999GF199999071999008231999999MA1101401999999REMMET051METAR SBIZ 121400Z 12009KT 9999 BKN027 32/23 Q1014=
0142825640999992015011215004-05531-047460FM-15+013199999V0201201N005710082319N009999199+03201+02201999999ADDGA1071+008231999GE19MSL   +99999+99999GF199999071999008231999999MA1101301999999REMMET051METAR SBIZ 121500Z 12011KT 9999 BKN027 32/22 Q1013=
0142825640999992015011216004-05531-047460FM-15+013199999V0200601N003610082319N009999199+03301+02201999999ADDGA1071+008231999GE19MSL   +99999+99999GF199999071999008231999999MA1101201999999REMMET051METAR SBIZ 121600Z 06007KT 9999 BKN027 33/22 Q1012=
0165825640999992015011217004-05531-047460FM-15+013199999V0201101N004110082319N009999199+03401+02201999999ADDGA1021+005491999GA2071+008231999GE19MSL   +99999+99999GF199999021999005491999999MA1101101999999REMMET058METAR SBIZ 121700Z 11008KT 9999 FEW018 BKN027 34/22 Q1011=
0191825640999992015011218004-05531-047460FM-15+013199999V0202001N00311007621CN009999199+03201+02501999999ADDGA1021+004571999GA2041+007621999GA3021+008231081GE19MSL   +99999+99999GF199999021999004571999999MA1101001999999REMMET068METAR SBIZ 121800Z 20006KT 9999 FEW015 SCT025 FEW027TCU 32/25 Q1010=
0227825640999992015011218354-05531-047460FM-16+013199999V0201601N005710045719N009999199+02402+02201999999ADDGA1071+004571999GA2041+006101999GA3021+007621091GA4071+021341999GE19MSL   +99999+99999GF199999071999004571999999MA1101201999999MW1171REMMET082SPECI SBIZ 121835Z 16011KT 9999 TS BKN015 SCT020 FEW025CB BKN070 24/22      Q1012=
0207825640999992015011219004-05531-047460FM-15+013199999V0201701N005110045719N007000199+02401+02401999999ADDGA1071+004571999GA2021+007621091GA3071+021341999GE19MSL   +99999+99999GF199999071999004571999999MA1101201999999MW1951REMMET078METAR SBIZ 121900Z 17010KT 7000 -TSRA BKN015 FEW025CB BKN070 24/24      Q1012=
0170825640999992015011220004-05531-047460FM-15+013199999V0201801N004110213419N009999199+02301+02301999999ADDGA1041+005491999GA2071+021341999GE19MSL   +99999+99999GF199999041999005491999999MA1101201999999REMMET063METAR SBIZ 122000Z 18008KT 9999 SCT018 BKN070 23/23 Q1012 RETS=
0175825640999992015011221004-05531-047460FM-15+013199999V0201701N002610121919N009999199+02401+02401999999ADDGA1021+001521999GA2081+012191999GE19MSL   +99999+99999GF199999021999001521999999MA1101201999999MW1611REMMET062METAR SBIZ 122100Z 17005KT 9999 -RA FEW005 OVC040 24/24 Q1012=
0175825640999992015011222004-05531-047460FM-15+013199999V0209999C000010152419N009999199+02401+02401999999ADDGA1021+001521999GA2081+015241999GE19MSL   +99999+99999GF199999021999001521999999MA1101201999999MW1611REMMET062METAR SBIZ 122200Z 00000KT 9999 -RA FEW005 OVC050 24/24 Q1012=
0188825640999992015011223004-05531-047460FM-15+013199999V0209999C000010091419N009999199+02401+02301999999ADDGA1021+001521999GA2071+009141999GA3081+021341999GE19MSL   +99999+99999GF199999021999001521999999MA1101201999999REMMET065METAR SBIZ 122300Z 00000KT 9999 FEW005 BKN030 OVC070 24/23 Q1012=
0142825640999992015011300004-05531-047460FM-15+013199999V0203501N001519999999N009999199+02401+02301999999ADDGA1021+001521999GE19MSL   +99999+99999GF199999021999001521999999MA1101201999999REMMET051METAR SBIZ 130000Z 35003KT 9999 FEW005 24/23 Q1012=
0142825640999992015011301004-05531-047460FM-15+013199999V0201801N001019999999N009999199+02301+02201999999ADDGA1021+002131999GE19MSL   +99999+99999GF199999021999002131999999MA1101201999999REMMET051METAR SBIZ 130100Z 18002KT 9999 FEW007 23/22 Q1012=
0151825640999992015011302004-05531-047460FM-15+013199999V0209999C000010021319N005000199+02301+02301999999ADDGA1071+002131999GE19MSL   +99999+99999GF199999071999002131999999MA1101201999999MW1101REMMET054METAR SBIZ 130200Z 00000KT 5000 BR BKN007 23/23 Q1012=
0151825640999992015011302154-05531-047460FM-16+013199999V0209999C000010009119N004000199+02301+02301999999ADDGA1071+000911999GE19MSL   +99999+99999GF199999071999000911999999MA1101201999999MW1101REMMET054SPECI SBIZ 130215Z 00000KT 4000 BR BKN003 23/23 Q1012=
0151825640999992015011302354-05531-047460FM-16+013199999V0209999C000010009119N003500199+02301+02301999999ADDGA1071+000911999GE19MSL   +99999+99999GF199999071999000911999999MA1101201999999MW1101REMMET054SPECI SBIZ 130235Z 00000KT 3500 BR BKN003 23/23 Q1012=
0142825640999992015011307154-05531-047460FM-16+013199999V0209999C000019999999N006000199+02301+02301999999ADDGA1021+002441999GE19MSL   +99999+99999GF199999021999002441999999MA1101001999999REMMET051SPECI SBIZ 130715Z 00000KT 6000 FEW008 23/23 Q1010=
0151825640999992015011308004-05531-047460FM-15+013199999V0201201N002119999999N005000199+02301+02301999999ADDGA1021+002441999GE19MSL   +99999+99999GF199999021999002441999999MA1101001999999MW1101REMMET054METAR SBIZ 130800Z 12004KT 5000 BR FEW008 23/23 Q1010=
0197825640999992015011308404-05531-047460FM-16+013199999V0201301N00101012191CN003000199+02301+02301999999ADDGA1021+002441999GA2041+012191999GE19MSL   +99999+99999GF199999021999002441999999MA1101001999999MW1101MW2111REMMET078SPECI SBIZ 130840Z 13002KT 3000 0800NE PRFG BR FEW008 SCT040 23/23      Q1010=
0132825640999992015011309004-05531-047460FM-15+013199999V0201301N001012200019N003000199+02201+02201999999ADDGF100991999999999999999999MA1101101999999MW1101MW2111REMMET067METAR COR SBIZ 130900Z 13002KT 3000 0600NE PRFG BR NSC 22/22 Q1011=
0110825640999992015011309254-05531-047460FM-16+013199999V0209999C000012200019N000500199+02201+02201999999ADDGF100991999999999999999999MA1101101999999MW1441REMMET051SPECI SBIZ 130925Z 00000KT 0500 FG NSC 22/22 Q1011=
0197825640999992015011309404-05531-047460FM-16+013199999V0209999C000010274319N003500199+02301+02301999999ADDGA1021+002131999GA2071+027431999GE19MSL   +99999+99999GF199999021999002131999999MA1101101999999MW1101MW2111REMMET078SPECI SBIZ 130940Z 00000KT 3500 0600NE PRFG BR FEW007 BKN090 23/23      Q1011=
0183825640999992015011310004-05531-047460FM-15+013199999V0209999C000010274319N007000199+02301+02301999999ADDGA1021+002131999GA2071+027431999GE19MSL   +99999+99999GF199999021999002131999999MA1101201999999MW1111REMMET070METAR SBIZ 131000Z 00000KT 7000 2500NE BCFG FEW007 BKN090 23/23 Q1012=
0165825640999992015011311004-05531-047460FM-15+013199999V0209999C000010274319N009999199+02501+02401999999ADDGA1021+003051999GA2071+027431999GE19MSL   +99999+99999GF199999021999003051999999MA1101301999999REMMET058METAR SBIZ 131100Z 00000KT 9999 FEW010 BKN090 25/24 Q1013=
0165825640999992015011312004-05531-047460FM-15+013199999V0201001N00151030481CN009999199+02701+02401999999ADDGA1021+003051999GA2041+030481999GE19MSL   +99999+99999GF199999021999003051999999MA1101301999999REMMET058METAR SBIZ 131200Z 10003KT 9999 FEW010 SCT100 27/24 Q1013=
0165825640999992015011313004-05531-047460FM-15+013199999V0200801N00511030481CN009999199+03001+02301999999ADDGA1021+003961999GA2041+030481999GE19MSL   +99999+99999GF199999021999003961999999MA1101301999999REMMET058METAR SBIZ 131300Z 08010KT 9999 FEW013 SCT100 30/23 Q1013=
0142825640999992015011314004-05531-047460FM-15+013199999V0200901N004119999999N009999199+03201+02401999999ADDGA1041+008231999GE19MSL   +99999+99999GF199999041999008231999999MA1101301999999REMMET051METAR SBIZ 131400Z 09008KT 9999 SCT027 32/24 Q1013=
0142825640999992015011315004-05531-047460FM-15+013199999V0201001N004610082319N009999199+03201+02101999999ADDGA1071+008231999GE19MSL   +99999+99999GF199999071999008231999999MA1101201999999REMMET051METAR SBIZ 131500Z 10009KT 9999 BKN027 32/21 Q1012=
0142825640999992015011316004-05531-047460FM-15+013199999V0200801N004610082319N009999199+03301+02201999999ADDGA1071+008231999GE19MSL   +99999+99999GF199999071999008231999999MA1101101999999REMMET051METAR SBIZ 131600Z 08009KT 9999 BKN027 33/22 Q1011=
0142825640999992015011317004-05531-047460FM-15+013199999V0200901N005110082319N009999199+03301+02201999999ADDGA1071+008231999GE19MSL   +99999+99999GF199999071999008231999999MA1101001999999REMMET051METAR SBIZ 131700Z 09010KT 9999 BKN027 33/22 Q1010=
0142825640999992015011318004-05531-047460FM-15+013199999V0201401N004110082319N009999199+03401+02201999999ADDGA1071+008231999GE19MSL   +99999+99999GF199999071999008231999999MA1100901999999REMMET051METAR SBIZ 131800Z 14008KT 9999 BKN027 34/22 Q1009=
0165825640999992015011319004-05531-047460FM-15+013199999V0201601N003110082319N009999199+03501+02201999999ADDGA1021+004571999GA2071+008231999GE19MSL   +99999+99999GF199999021999004571999999MA1100801999999REMMET058METAR SBIZ 131900Z 16006KT 9999 FEW015 BKN027 35/22 Q1008=
0168825640999992015011320004-05531-047460FM-15+013199999V0201601N003110082319N009999199+03001+02301999999ADDGA1071+008231999GA2021+009141081GE19MSL   +99999+99999GF199999071999008231999999MA1100801999999REMMET061METAR SBIZ 132000Z 16006KT 9999 BKN027 FEW030TCU 30/23 Q1008=
0165825640999992015011321004-05531-047460FM-15+013199999V0201801N002110213419N009999199+02901+02501999999ADDGA1021+006101999GA2071+021341999GE19MSL   +99999+99999GF199999021999006101999999MA1100901999999REMMET058METAR SBIZ 132100Z 18004KT 9999 FEW020 BKN070 29/25 Q1009=
0221825640999992015011322004-05531-047460FM-15+013199999V0201901N002610304819N009999199+02601+02401999999ADDGA1041+006101999GA2021+007621091GA3071+030481999GE19MSL   +99999+99999GF199999041999006101999999MA1101101999999MW1161MW2171REMMET086METAR SBIZ 132200Z 19005KT 9999 4000W TS VCSH SCT020 FEW025CB BKN100      26/24 Q1011=
0178825640999992015011323004-05531-047460FM-15+013199999V0201401N002110091419N009999199+02501+02101999999ADDGA1021+007621091GA2071+009141999GE19MSL   +99999+99999GF199999021999007621999999MA1101001999999MW1131REMMET065METAR SBIZ 132300Z 14004KT 9999 VCTS FEW025CB BKN030 25/21 Q1010=
0152825640999992015011400004-05531-047460FM-15+013199999V0202501N002610091419N009999199+02401+02201999999ADDGA1071+009141999GE19MSL   +99999+99999GF199999071999009141999999MA1101101999999MW1611REMMET055METAR SBIZ 140000Z 25005KT 9999 -RA BKN030 24/22 Q1011=
0142825640999992015011401004-05531-047460FM-15+013199999V0203001N002110121919N009999199+02401+02301999999ADDGA1071+012191999GE19MSL   +99999+99999GF199999071999012191999999MA1101101999999REMMET051METAR SBIZ 140100Z 30004KT 9999 BKN040 24/23 Q1011=
0152825640999992015011402004-05531-047460FM-15+013199999V0209999C000010121919N009000199+02501+02401999999ADDGA1071+012191999GE19MSL   +99999+99999GF199999071999012191999999MA1101201999999MW1611REMMET055METAR SBIZ 140200Z 00000KT 9000 -RA BKN040 25/24 Q1012=
0152825640999992015011402254-05531-047460FM-16+013199999V0202201N002110121919N009000199+02501+02401999999ADDGA1071+012191999GE19MSL   +99999+99999GF199999071999012191999999MA1101201999999MW1611REMMET055SPECI SBIZ 140225Z 22004KT 9000 -RA BKN040 25/24 Q1012=
0198825640999992015011407154-05531-047460FM-16+013199999V0200801N00261007621CN006000199+02401+02301999999ADDGA1021+003051999GA2041+007621999GA3081+021341999GE19MSL   +99999+99999GF199999021999003051999999MA1101101999999MW1611REMMET069SPECI SBIZ 140715Z 08005KT 6000 -RA FEW010 SCT025 OVC070 24/23 Q1011=
0198825640999992015011408004-05531-047460FM-15+013199999V0209999C00001007621CN006000199+02401+02301999999ADDGA1021+003051999GA2041+007621999GA3081+021341999GE19MSL   +99999+99999GF199999021999003051999999MA1101101999999MW1611REMMET069METAR SBIZ 140800Z 00000KT 6000 -RA FEW010 SCT025 OVC070 24/23 Q1011=
0198825640999992015011409004-05531-047460FM-15+013199999V0200901N00151004571CN009000199+02401+02301999999ADDGA1021+003051999GA2041+004571999GA3081+021341999GE19MSL   +99999+99999GF199999021999003051999999MA1101201999999MW1611REMMET069METAR SBIZ 140900Z 09003KT 9000 -RA FEW010 SCT015 OVC070 24/23 Q1012=
0175825640999992015011410004-05531-047460FM-15+013199999V0201001N002610213419N009999199+02401+02301999999ADDGA1041+004571999GA2081+021341999GE19MSL   +99999+99999GF199999041999004571999999MA1101201999999MW1611REMMET062METAR SBIZ 141000Z 10005KT 9999 -RA SCT015 OVC070 24/23 Q1012=
0165825640999992015011411004-05531-047460FM-15+013199999V0201801N001510243819N009999199+02501+02301999999ADDGA1041+009141999GA2071+024381999GE19MSL   +99999+99999GF199999041999009141999999MA1101201999999REMMET058METAR SBIZ 141100Z 18003KT 9999 SCT030 BKN080 25/23 Q1012=
0188825640999992015011412004-05531-047460FM-15+013199999V0201501N00261009141CN009999199+02601+02301999999ADDGA1021+004571999GA2041+009141999GA3071+024381999GE19MSL   +99999+99999GF199999021999004571999999MA1101301999999REMMET065METAR SBIZ 141200Z 15005KT 9999 FEW015 SCT030 BKN080 26/23 Q1013=
0188825640999992015011413004-05531-047460FM-15+013199999V0201101N00261009141CN009999199+02701+02301999999ADDGA1021+004571999GA2041+009141999GA3071+024381999GE19MSL   +99999+99999GF199999021999004571999999MA1101301999999REMMET065METAR SBIZ 141300Z 11005KT 9999 FEW015 SCT030 BKN080 27/23 Q1013=
0165825640999992015011414004-05531-047460FM-15+013199999V0200901N001510243819N009999199+02801+02301999999ADDGA1041+009141999GA2071+024381999GE19MSL   +99999+99999GF199999041999009141999999MA1101301999999REMMET058METAR SBIZ 141400Z 09003KT 9999 SCT030 BKN080 28/23 Q1013=
0165825640999992015011415004-05531-047460FM-15+013199999V0200601N003610061019N009999199+03001+02401999999ADDGA1071+006101999GA2041+021341999GE19MSL   +99999+99999GF199999071999006101999999MA1101301999999REMMET058METAR SBIZ 141500Z 06007KT 9999 BKN020 SCT070 30/24 Q1013=
0142825640999992015011416004-05531-047460FM-15+013199999V0201201N002610061019N009999199+03101+02401999999ADDGA1071+006101999GE19MSL   +99999+99999GF199999071999006101999999MA1101201999999REMMET051METAR SBIZ 141600Z 12005KT 9999 BKN020 31/24 Q1012=
0165825640999992015011417004-05531-047460FM-15+013199999V0200301N002610061019N009999199+03101+02401999999ADDGA1071+006101999GA2041+021341999GE19MSL   +99999+99999GF199999071999006101999999MA1101101999999REMMET058METAR SBIZ 141700Z 03005KT 9999 BKN020 SCT070 31/24 Q1011=
0199825640999992015011418004-05531-047460FM-15+013199999V0200701N005110061019N009999199+03301+02501999999ADDGA1071+006101999GA2021+007621091GA3071+021341999GE19MSL   +99999+99999GF199999071999006101999999MA1101001999999MW1171REMMET070METAR SBIZ 141800Z 07010KT 9999 TS BKN020 FEW025CB BKN070 33/25 Q1010=
0214825640999992015011419004-05531-047460FM-15+013199999V0201501N002110061019N009999199+03101+02401999999ADDGA1071+006101999GA2041+007621091GA3071+027431999GE19MSL   +99999+99999GF199999071999006101999999MA1101001999999MW1951REMMET085METAR SBIZ 141900Z 15004KT 9999 4500SE -TSRA BKN020 SCT025CB BKN090      31/24 Q1010=
0201825640999992015011419304-05531-047460FM-16+013199999V0201801N003610061019N000500199+02401+02301999999ADDGA1071+006101999GA2041+007621091GA3071+027431999GE19MSL   +99999+99999GF199999071999006101999999MA1101001999999MW1951REMMET072SPECI SBIZ 141930Z 18007KT 0500 TSRA BKN020 SCT025CB BKN090 24/23 Q1010=
0247825640999992015011420004-05531-047460FM-15+013199999V0202101N002610061019N009000199+99999+99999999999ADDGA1071+006101999GA2041+007621091GA3081+999999999GE19AGL   +99999+99999GF199999071999006101999999MA1101105999999MW1951REMMET099METAR COR SBIZ 142000Z 21005KT 9000 3000SW -TSRA BKN020 SCT025CB OVC0      90 25/24 Q1011 CB NE SW=EQDD01      0ADE693
0207825640999992015011421004-05531-047460FM-15+013199999V0201401N002110045719N008000199+02401+02401999999ADDGA1071+004571999GA2021+007621091GA3081+021341999GE19MSL   +99999+99999GF199999071999004571999999MA1101101999999MW1951REMMET078METAR SBIZ 142100Z 14004KT 8000 -TSRA BKN015 FEW025CB OVC070 24/24      Q1011=
0180825640999992015011422004-05531-047460FM-15+013199999V0203101N001010045719N008000199+02401+02401999999ADDGA1071+004571999GA2081+021341999GE19MSL   +99999+99999GF199999071999004571999999MA1101101999999MW1611REMMET067METAR SBIZ 142200Z 31002KT 8000 -RA BKN015 OVC070 24/24 Q1011 RETS=
0198825640999992015011423004-05531-047460FM-15+013199999V0202501N00151004571CN008000199+02501+02401999999ADDGA1021+002441999GA2041+004571999GA3081+021341999GE19MSL   +99999+99999GF199999021999002441999999MA1101201999999MW1611REMMET069METAR SBIZ 142300Z 25003KT 8000 -RA FEW008 SCT015 OVC070 25/24 Q1012=
0165825640999992015011500004-05531-047460FM-15+013199999V0209999C000010213419N009999199+02401+02401999999ADDGA1041+004571999GA2081+021341999GE19MSL   +99999+99999GF199999041999004571999999MA1101201999999REMMET058METAR SBIZ 150000Z 00000KT 9999 SCT015 OVC070 24/24 Q1012=
0198825640999992015011501004-05531-047460FM-15+013199999V0202301N001510045719N008000199+02401+02401999999ADDGA1021+001831999GA2071+004571999GA3081+021341999GE19MSL   +99999+99999GF199999021999001831999999MA1101201999999MW1611REMMET069METAR SBIZ 150100Z 23003KT 8000 -RA FEW006 BKN015 OVC070 24/24 Q1012=
0198825640999992015011502004-05531-047460FM-15+013199999V0202501N002110045719N008000199+02401+02401999999ADDGA1041+001831999GA2071+004571999GA3081+021341999GE19MSL   +99999+99999GF199999041999001831999999MA1101201999999MW1611REMMET069METAR SBIZ 150200Z 25004KT 8000 -RA SCT006 BKN015 OVC070 24/24 Q1012=
0188825640999992015011502454-05531-047460FM-16+013199999V0200301N001510045719N009000199+02501+02401999999ADDGA1021+001831999GA2071+004571999GA3071+021341999GE19MSL   +99999+99999GF199999021999001831999999MA1101201999999REMMET065SPECI SBIZ 150245Z 03003KT 9000 FEW006 BKN015 BKN070 25/24 Q1012=
0151825640999992015011507154-05531-047460FM-16+013199999V0209999C000010018319N005000199+02401+02301999999ADDGA1081+001831999GE19MSL   +99999+99999GF199999081999001831999999MA1101101999999MW1101REMMET054SPECI SBIZ 150715Z 00000KT 5000 BR OVC006 24/23 Q1011=
0174825640999992015011508004-05531-047460FM-15+013199999V0200301N001510018319N005000199+02401+02401999999ADDGA1021+001221999GA2071+001831999GE19MSL   +99999+99999GF199999021999001221999999MA1101101999999MW1101REMMET061METAR SBIZ 150800Z 03003KT 5000 BR FEW004 BKN006 24/24 Q1011=
0174825640999992015011509004-05531-047460FM-15+013199999V0200501N001510018319N004000199+02401+02401999999ADDGA1021+001221999GA2081+001831999GE19MSL   +99999+99999GF199999021999001221999999MA1101201999999MW1101REMMET061METAR SBIZ 150900Z 05003KT 4000 BR FEW004 OVC006 24/24 Q1012=
0174825640999992015011510004-05531-047460FM-15+013199999V0203301N001510018319N003000199+02401+02401999999ADDGA1021+001221999GA2081+001831999GE19MSL   +99999+99999GF199999021999001221999999MA1101301999999MW1101REMMET061METAR SBIZ 151000Z 33003KT 3000 BR FEW004 OVC006 24/24 Q1013=
0174825640999992015011511004-05531-047460FM-15+013199999V0209999C000010018319N004000199+02501+02401999999ADDGA1021+001221999GA2081+001831999GE19MSL   +99999+99999GF199999021999001221999999MA1101301999999MW1101REMMET061METAR SBIZ 151100Z 00000KT 4000 BR FEW004 OVC006 25/24 Q1013=
0174825640999992015011511254-05531-047460FM-16+013199999V0209999C000010018319N005000199+02601+02501999999ADDGA1021+001221999GA2081+001831999GE19MSL   +99999+99999GF199999021999001221999999MA1101401999999MW1101REMMET061SPECI SBIZ 151125Z 00000KT 5000 BR FEW004 OVC006 26/25 Q1014=
0165825640999992015011512004-05531-047460FM-15+013199999V0209999C000010024419N006000199+02601+02501999999ADDGA1021+001521999GA2081+002441999GE19MSL   +99999+99999GF199999021999001521999999MA1101401999999REMMET058METAR SBIZ 151200Z 00000KT 6000 FEW005 OVC008 26/25 Q1014=
0165825640999992015011512404-05531-047460FM-16+013199999V0209999C000010030519N009999199+02701+02401999999ADDGA1021+001521999GA2071+003051999GE19MSL   +99999+99999GF199999021999001521999999MA1101401999999REMMET058SPECI SBIZ 151240Z 00000KT 9999 FEW005 BKN010 27/24 Q1014=
0188825640999992015011513004-05531-047460FM-15+013199999V0200501N00211003051CN009999199+02901+02501999999ADDGA1021+002131999GA2041+003051999GA3071+004571999GE19MSL   +99999+99999GF199999021999002131999999MA1101401999999REMMET065METAR SBIZ 151300Z 05004KT 9999 FEW007 SCT010 BKN015 29/25 Q1014=
0142825640999992015011514004-05531-047460FM-15+013199999V0209999C000010045719N009999199+03001+02401999999ADDGA1071+004571999GE19MSL   +99999+99999GF199999071999004571999999MA1101401999999REMMET051METAR SBIZ 151400Z 00000KT 9999 BKN015 30/24 Q1014=
0142825640999992015011515004-05531-047460FM-15+013199999V0200501N002610061019N009999199+03101+02401999999ADDGA1071+006101999GE19MSL   +99999+99999GF199999071999006101999999MA1101301999999REMMET051METAR SBIZ 151500Z 05005KT 9999 BKN020 31/24 Q1013=
0142825640999992015011516004-05531-047460FM-15+013199999V0200601N001510061019N009999199+03301+02401999999ADDGA1071+006101999GE19MSL   +99999+99999GF199999071999006101999999MA1101201999999REMMET051METAR SBIZ 151600Z 06003KT 9999 BKN020 33/24 Q1012=
0142825640999992015011517004-05531-047460FM-15+013199999V0200701N003119999999N009999199+03301+02401999999ADDGA1041+006101999GE19MSL   +99999+99999GF199999041999006101999999MA1101101999999REMMET051METAR SBIZ 151700Z 07006KT 9999 SCT020 33/24 Q1011=
0168825640999992015011518004-05531-047460FM-15+013199999V0201601N003119999999N009999199+03201+02501999999ADDGA1041+006101999GA2021+007621081GE19MSL   +99999+99999GF199999041999006101999999MA1101001999999REMMET061METAR SBIZ 151800Z 16006KT 9999 SCT020 FEW025TCU 32/25 Q1010=
0185825640999992015011518354-05531-047460FM-16+013199999V0201301N004110061019N009999199+03001+02501999999ADDGA1071+006101999GA2021+007621091GE19MSL   +99999+99999GF199999071999006101999999MA1101001999999MW1951REMMET072SPECI SBIZ 151835Z 13008KT 9999 4000N -TSRA BKN020 FEW025CB 30/25 Q1010=
0185825640999992015011519004-05531-047460FM-15+013199999V0200201N007210076219N009999199+02901+02501999999ADDGA1071+007621999GA2041+009141091GE19MSL   +99999+99999GF199999071999007621999999MA1101001999999MW1951REMMET072METAR SBIZ 151900Z 02014KT 9999 3500N -TSRA BKN025 SCT030CB 29/25 Q1010=
0179825640999992015011520004-05531-047460FM-15+013199999V0203601N001010091419N009999199+02701+02401999999ADDGA1021+007621091GA2071+009141999GE19MSL   +99999+99999GF199999021999007621999999MA1101101999999MW1951REMMET066METAR SBIZ 152000Z 36002KT 9999 -TSRA FEW025CB BKN030 27/24 Q1011=
0207825640999992015011521004-05531-047460FM-15+013199999V0202301N00211009141CN009999199+02501+02401999999ADDGA1021+007621091GA2041+009141999GA3071+024381999GE19MSL   +99999+99999GF199999021999007621999999MA1101001999999MW1951REMMET078METAR SBIZ 152100Z 23004KT 9999 -TSRA FEW025CB SCT030 BKN080 25/24      Q1010=
0221825640999992015011522004-05531-047460FM-15+013199999V0202101N001010243819N009999199+02501+02401999999ADDGA1041+009141999GA2021+010671091GA3071+024381999GE19MSL   +99999+99999GF199999041999009141999999MA1101101999999MW1131MW2611REMMET086METAR SBIZ 152200Z 21002KT 9999 VCTS -RA SCT030 FEW035CB BKN080 25/24      Q1011 RETS=
0230825640999992015011523004-05531-047460FM-15+013199999V0202301N00151009141CN009999199+02501+02501999999ADDGA1021+001831999GA2041+009141999GA3021+010671091GA4081+024381999GE19MSL   +99999+99999GF199999021999001831999999MA1101201999999MW1951REMMET085METAR SBIZ 152300Z 23003KT 9999 -TSRA FEW006 SCT030 FEW035CB OVC080      25/25 Q1012=
0230825640999992015011600004-05531-047460FM-15+013199999V0202301N00211009141CN009999199+02501+02401999999ADDGA1021+001831999GA2041+009141999GA3021+010671091GA4081+024381999GE19MSL   +99999+99999GF199999021999001831999999MA1101301999999MW1951REMMET085METAR SBIZ 160000Z 23004KT 9999 -TSRA FEW006 SCT030 FEW035CB OVC080      25/24 Q1013=
0230825640999992015011601004-05531-047460FM-15+013199999V0202501N00261009141CN009999199+02501+02401999999ADDGA1021+001521999GA2041+009141999GA3021+010671091GA4081+024381999GE19MSL   +99999+99999GF199999021999001521999999MA1101301999999MW1951REMMET085METAR SBIZ 160100Z 25005KT 9999 -TSRA FEW005 SCT030 FEW035CB OVC080      25/24 Q1013=
0211825640999992015011602004-05531-047460FM-15+013199999V0202601N002610243819N009999199+02401+02401999999ADDGA1021+001521999GA2021+010671081GA3081+024381999GE19MSL   +99999+99999GF199999021999001521999999MA1101301999999MW1611REMMET082METAR SBIZ 160200Z 26005KT 9999 -RA FEW005 FEW035TCU OVC080 24/24 Q1013      RETS=
0201825640999992015011602274-05531-047460FM-16+013199999V0202601N001510243819N009999199+02401+02401999999ADDGA1021+009141999GA2021+010671081GA3081+024381999GE19MSL   +99999+99999GF199999021999009141999999MA1101201999999MW1611REMMET072SPECI SBIZ 160227Z 26003KT 9999 -RA FEW030 FEW035TCU OVC080 24/24 Q1012=
0165825640999992015011607154-05531-047460FM-16+013199999V0200801N001010018319N006000199+02401+02301999999ADDGA1021+001221999GA2071+001831999GE19MSL   +99999+99999GF199999021999001221999999MA1101101999999REMMET058SPECI SBIZ 160715Z 08002KT 6000 FEW004 BKN006 24/23 Q1011=
0174825640999992015011608004-05531-047460FM-15+013199999V0200501N001010018319N005000199+02401+02301999999ADDGA1021+001221999GA2071+001831999GE19MSL   +99999+99999GF199999021999001221999999MA1101201999999MW1101REMMET061METAR SBIZ 160800Z 05002KT 5000 BR FEW004 BKN006 24/23 Q1012=
0165825640999992015011608454-05531-047460FM-16+013199999V0209999C000010024419N008000199+02401+02301999999ADDGA1021+001521999GA2071+002441999GE19MSL   +99999+99999GF199999021999001521999999MA1101201999999REMMET058SPECI SBIZ 160845Z 00000KT 8000 FEW005 BKN008 24/23 Q1012=
0188825640999992015011609004-05531-047460FM-15+013199999V0209999C00001002441CN009999199+02401+02301999999ADDGA1021+001521999GA2041+002441999GA3071+003051999GE19MSL   +99999+99999GF199999021999001521999999MA1101201999999REMMET065METAR SBIZ 160900Z 00000KT 9999 FEW005 SCT008 BKN010 24/23 Q1012=
0188825640999992015011609304-05531-047460FM-16+013199999V0209999C00001002441CN009999199+02401+02301999999ADDGA1021+001521999GA2041+002441999GA3071+004571999GE19MSL   +99999+99999GF199999021999001521999999MA1101301999999REMMET065SPECI SBIZ 160930Z 00000KT 9999 FEW005 SCT008 BKN015 24/23 Q1013=
0188825640999992015011610004-05531-047460FM-15+013199999V0209999C00001002441CN009999199+02401+02401999999ADDGA1021+001521999GA2041+002441999GA3071+004571999GE19MSL   +99999+99999GF199999021999001521999999MA1101301999999REMMET065METAR SBIZ 161000Z 00000KT 9999 FEW005 SCT008 BKN015 24/24 Q1013=
0188825640999992015011611004-05531-047460FM-15+013199999V0203301N00151002441CN009999199+02501+02401999999ADDGA1021+001521999GA2041+002441999GA3081+004571999GE19MSL   +99999+99999GF199999021999001521999999MA1101401999999REMMET065METAR SBIZ 161100Z 33003KT 9999 FEW005 SCT008 OVC015 25/24 Q1014=
0165825640999992015011612004-05531-047460FM-15+013199999V0203201N001510045719N009999199+02601+02401999999ADDGA1041+002441999GA2081+004571999GE19MSL   +99999+99999GF199999041999002441999999MA1101501999999REMMET058METAR SBIZ 161200Z 32003KT 9999 SCT008 OVC015 26/24 Q1015=
0165825640999992015011613004-05531-047460FM-15+013199999V0200501N002610045719N009999199+02801+02401999999ADDGA1021+002441999GA2071+004571999GE19MSL   +99999+99999GF199999021999002441999999MA1101501999999REMMET058METAR SBIZ 161300Z 05005KT 9999 FEW008 BKN015 28/24 Q1015=
0165825640999992015011614004-05531-047460FM-15+013199999V0200701N002110061019N009999199+02901+02301999999ADDGA1041+004571999GA2071+006101999GE19MSL   +99999+99999GF199999041999004571999999MA1101401999999REMMET058METAR SBIZ 161400Z 07004KT 9999 SCT015 BKN020 29/23 Q1014=
0165825640999992015011615004-05531-047460FM-15+013199999V0201001N003610082319N009999199+03001+02401999999ADDGA1021+004571999GA2071+008231999GE19MSL   +99999+99999GF199999021999004571999999MA1101401999999REMMET058METAR SBIZ 161500Z 10007KT 9999 FEW015 BKN027 30/24 Q1014=
0165825640999992015011616004-05531-047460FM-15+013199999V0200401N003110085319N009999199+03101+02301999999ADDGA1021+005181999GA2071+008531999GE19MSL   +99999+99999GF199999021999005181999999MA1101301999999REMMET058METAR SBIZ 161600Z 04006KT 9999 FEW017 BKN028 31/23 Q1013=
0142825640999992015011617004-05531-047460FM-15+013199999V0200501N002619999999N009999199+03101+02301999999ADDGA1041+009141999GE19MSL   +99999+99999GF199999041999009141999999MA1101201999999REMMET051METAR SBIZ 161700Z 05005KT 9999 SCT030 31/23 Q1012=
0142825640999992015011618004-05531-047460FM-15+013199999V0200301N002119999999N009999199+03001+02201999999ADDGA1041+009751999GE19MSL   +99999+99999GF199999041999009751999999MA1101201999999REMMET051METAR SBIZ 161800Z 03004KT 9999 SCT032 30/22 Q1012=
0142825640999992015011619004-05531-047460FM-15+013199999V0200501N002619999999N009999199+03001+02201999999ADDGA1041+009751999GE19MSL   +99999+99999GF199999041999009751999999MA1101101999999REMMET051METAR SBIZ 161900Z 05005KT 9999 SCT032 30/22 Q1011=
0165825640999992015011620004-05531-047460FM-15+013199999V0203401N00211015241CN009999199+03001+02301999999ADDGA1021+009751999GA2041+015241999GE19MSL   +99999+99999GF199999021999009751999999MA1101101999999REMMET058METAR SBIZ 162000Z 34004KT 9999 FEW032 SCT050 30/23 Q1011=
0165825640999992015011621004-05531-047460FM-15+013199999V0200201N001510152419N009999199+02901+02301999999ADDGA1021+009751999GA2071+015241999GE19MSL   +99999+99999GF199999021999009751999999MA1101101999999REMMET058METAR SBIZ 162100Z 02003KT 9999 FEW032 BKN050 29/23 Q1011=
0165825640999992015011622004-05531-047460FM-15+013199999V0203101N002110152419N009999199+02801+02401999999ADDGA1021+009141999GA2071+015241999GE19MSL   +99999+99999GF199999021999009141999999MA1101201999999REMMET058METAR SBIZ 162200Z 31004KT 9999 FEW030 BKN050 28/24 Q1012=
0142825640999992015011623004-05531-047460FM-15+013199999V0202301N001019999999N009999199+02701+02401999999ADDGA1021+004571999GE19MSL   +99999+99999GF199999021999004571999999MA1101201999999REMMET051METAR SBIZ 162300Z 23002KT 9999 FEW015 27/24 Q1012=
0142825640999992015011700004-05531-047460FM-15+013199999V0202601N001019999999N009999199+02701+02501999999ADDGA1021+004571999GE19MSL   +99999+99999GF199999021999004571999999MA1101301999999REMMET051METAR SBIZ 170000Z 26002KT 9999 FEW015 27/25 Q1013=
0142825640999992015011701004-05531-047460FM-15+013199999V0202301N001519999999N009999199+02601+02501999999ADDGA1041+004571999GE19MSL   +99999+99999GF199999041999004571999999MA1101401999999REMMET051METAR SBIZ 170100Z 23003KT 9999 SCT015 26/25 Q1014=
0142825640999992015011702004-05531-047460FM-15+013199999V0202001N001519999999N009999199+02501+02501999999ADDGA1041+004571999GE19MSL   +99999+99999GF199999041999004571999999MA1101301999999REMMET051METAR SBIZ 170200Z 20003KT 9999 SCT015 25/25 Q1013=
0165825640999992015011707154-05531-047460FM-16+013199999V0202401N001510091419N008000199+02401+02201999999ADDGA1021+001831999GA2071+009141999GE19MSL   +99999+99999GF199999021999001831999999MA1101101999999REMMET058SPECI SBIZ 170715Z 24003KT 8000 FEW006 BKN030 24/22 Q1011=
0165825640999992015011708004-05531-047460FM-15+013199999V0209999C000010091419N008000199+02301+02201999999ADDGA1021+001831999GA2071+009141999GE19MSL   +99999+99999GF199999021999001831999999MA1101101999999REMMET058METAR SBIZ 170800Z 00000KT 8000 FEW006 BKN030 23/22 Q1011=
0188825640999992015011709004-05531-047460FM-15+013199999V0209999C00001003051CN009999199+02301+02201999999ADDGA1021+001831999GA2041+003051999GA3071+004571999GE19MSL   +99999+99999GF199999021999001831999999MA1101101999999REMMET065METAR SBIZ 170900Z 00000KT 9999 FEW006 SCT010 BKN015 23/22 Q1011=
0165825640999992015011710004-05531-047460FM-15+013199999V0201101N001510045719N009999199+02301+02201999999ADDGA1041+003051999GA2071+004571999GE19MSL   +99999+99999GF199999041999003051999999MA1101201999999REMMET058METAR SBIZ 171000Z 11003KT 9999 SCT010 BKN015 23/22 Q1012=
0165825640999992015011711004-05531-047460FM-15+013199999V0201501N002610045719N009999199+02501+02201999999ADDGA1021+003051999GA2081+004571999GE19MSL   +99999+99999GF199999021999003051999999MA1101401999999REMMET058METAR SBIZ 171100Z 15005KT 9999 FEW010 OVC015 25/22 Q1014=
0142825640999992015011712004-05531-047460FM-15+013199999V0209999C000010045719N009999199+02501+02201999999ADDGA1081+004571999GE19MSL   +99999+99999GF199999081999004571999999MA1101501999999REMMET051METAR SBIZ 171200Z 00000KT 9999 OVC015 25/22 Q1015=
0142825640999992015011713004-05531-047460FM-15+013199999V0202301N002110054919N009999199+02801+02401999999ADDGA1071+005491999GE19MSL   +99999+99999GF199999071999005491999999MA1101501999999REMMET051METAR SBIZ 171300Z 23004KT 9999 BKN018 28/24 Q1015=
0165825640999992015011714004-05531-047460FM-15+013199999V0202101N001510076219N009999199+02901+02401999999ADDGA1021+003961999GA2071+007621999GE19MSL   +99999+99999GF199999021999003961999999MA1101401999999REMMET058METAR SBIZ 171400Z 21003KT 9999 FEW013 BKN025 29/24 Q1014=
0142825640999992015011715004-05531-047460FM-15+013199999V0200401N003110076219N009999199+03001+02301999999ADDGA1071+007621999GE19MSL   +99999+99999GF199999071999007621999999MA1101401999999REMMET051METAR SBIZ 171500Z 04006KT 9999 BKN025 30/23 Q1014=
0165825640999992015011716004-05531-047460FM-15+013199999V0200201N00211024381CN009999199+03001+02401999999ADDGA1041+007621999GA2041+024381999GE19MSL   +99999+99999GF199999041999007621999999MA1101201999999REMMET058METAR SBIZ 171600Z 02004KT 9999 SCT025 SCT080 30/24 Q1012=
0142825640999992015011717004-05531-047460FM-15+013199999V0200201N002119999999N009999199+02901+02401999999ADDGA1021+006101999GE19MSL   +99999+99999GF199999021999006101999999MA1101201999999REMMET051METAR SBIZ 171700Z 02004KT 9999 FEW020 29/24 Q1012=
0165825640999992015011718004-05531-047460FM-15+013199999V0201001N002110304819N009999199+02901+02501999999ADDGA1021+004571999GA2071+030481999GE19MSL   +99999+99999GF199999021999004571999999MA1101101999999REMMET058METAR SBIZ 171800Z 10004KT 9999 FEW015 BKN100 29/25 Q1011=
0165825640999992015011719004-05531-047460FM-15+013199999V0202801N002110213419N009999199+02801+02401999999ADDGA1021+004571999GA2071+021341999GE19MSL   +99999+99999GF199999021999004571999999MA1101001999999REMMET058METAR SBIZ 171900Z 28004KT 9999 FEW015 BKN070 28/24 Q1010=
0165825640999992015011720004-05531-047460FM-15+013199999V0209999C000010213419N009999199+02801+02401999999ADDGA1021+008231999GA2071+021341999GE19MSL   +99999+99999GF199999021999008231999999MA1101001999999REMMET058METAR SBIZ 172000Z 00000KT 9999 FEW027 BKN070 28/24 Q1010=
0072825640999992015011721004-05531-047460FM-15+013199999V0201801N001019999999Y999999999+02801+02501999999ADDMA1101101999999REMMET045METAR SBIZ 172100Z 18002KT CAVOK 28/25 Q1011=
0072825640999992015011722004-05531-047460FM-15+013199999V0209999C000019999999Y999999999+02701+02601999999ADDMA1101101999999REMMET045METAR SBIZ 172200Z 00000KT CAVOK 27/26 Q1011=
0072825640999992015011723004-05531-047460FM-15+013199999V0209999C000019999999Y999999999+02701+02501999999ADDMA1101101999999REMMET045METAR SBIZ 172300Z 00000KT CAVOK 27/25 Q1011=
0072825640999992015011800004-05531-047460FM-15+013199999V0201501N001019999999Y999999999+02601+02501999999ADDMA1101201999999REMMET045METAR SBIZ 180000Z 15002KT CAVOK 26/25 Q1012=
0072825640999992015011801004-05531-047460FM-15+013199999V0209999C000019999999Y999999999+02601+02601999999ADDMA1101301999999REMMET045METAR SBIZ 180100Z 00000KT CAVOK 26/26 Q1013=
0072825640999992015011802004-05531-047460FM-15+013199999V0203601N001519999999Y999999999+02601+02601999999ADDMA1101201999999REMMET045METAR SBIZ 180200Z 36003KT CAVOK 26/26 Q1012=
0151825640999992015011807154-05531-047460FM-16+013199999V0200801N003610021319N004000199+02401+02401999999ADDGA1071+002131999GE19MSL   +99999+99999GF199999071999002131999999MA1101101999999MW1101REMMET054SPECI SBIZ 180715Z 08007KT 4000 BR BKN007 24/24 Q1011=
0142825640999992015011808004-05531-047460FM-15+013199999V0209999C000019999999N008000199+02401+02401999999ADDGA1021+002131999GE19MSL   +99999+99999GF199999021999002131999999MA1101101999999REMMET051METAR SBIZ 180800Z 00000KT 8000 FEW007 24/24 Q1011=
0188825640999992015011809004-05531-047460FM-15+013199999V0209999C00001007621CN009000199+02401+02401999999ADDGA1021+002131999GA2041+007621999GA3071+021341999GE19MSL   +99999+99999GF199999021999002131999999MA1101201999999REMMET065METAR SBIZ 180900Z 00000KT 9000 FEW007 SCT025 BKN070 24/24 Q1012=
0188825640999992015011810004-05531-047460FM-15+013199999V0209999C00001007621CN009999199+02401+02401999999ADDGA1021+001521999GA2041+007621999GA3071+021341999GE19MSL   +99999+99999GF199999021999001521999999MA1101301999999REMMET065METAR SBIZ 181000Z 00000KT 9999 FEW005 SCT025 BKN070 24/24 Q1013=
0165825640999992015011811004-05531-047460FM-15+013199999V0209999C000010213419N009999199+02501+02501999999ADDGA1021+001521999GA2071+021341999GE19MSL   +99999+99999GF199999021999001521999999MA1101401999999REMMET058METAR SBIZ 181100Z 00000KT 9999 FEW005 BKN070 25/25 Q1014=
0165825640999992015011812004-05531-047460FM-15+013199999V0209999C000010091419N009999199+02701+02401999999ADDGA1021+002441999GA2071+009141999GE19MSL   +99999+99999GF199999021999002441999999MA1101501999999REMMET058METAR SBIZ 181200Z 00000KT 9999 FEW008 BKN030 27/24 Q1015=
0165825640999992015011813004-05531-047460FM-15+013199999V0200701N003610091419N009999199+02901+02301999999ADDGA1021+003961999GA2071+009141999GE19MSL   +99999+99999GF199999021999003961999999MA1101501999999REMMET058METAR SBIZ 181300Z 07007KT 9999 FEW013 BKN030 29/23 Q1015=
0142825640999992015011814004-05531-047460FM-15+013199999V0200401N004110091419N009999199+03001+02301999999ADDGA1071+009141999GE19MSL   +99999+99999GF199999071999009141999999MA1101401999999REMMET051METAR SBIZ 181400Z 04008KT 9999 BKN030 30/23 Q1014=
0165825640999992015011815004-05531-047460FM-15+013199999V0200601N002610061019N009999199+03101+02301999999ADDGA1041+004571999GA2071+006101999GE19MSL   +99999+99999GF199999041999004571999999MA1101401999999REMMET058METAR SBIZ 181500Z 06005KT 9999 SCT015 BKN020 31/23 Q1014=
0142825640999992015011816004-05531-047460FM-15+013199999V0200601N003110061019N009999199+03001+02301999999ADDGA1071+006101999GE19MSL   +99999+99999GF199999071999006101999999MA1101301999999REMMET051METAR SBIZ 181600Z 06006KT 9999 BKN020 30/23 Q1013=
0165825640999992015011817004-05531-047460FM-15+013199999V0200301N001510076219N009999199+03101+02301999999ADDGA1041+004571999GA2071+007621999GE19MSL   +99999+99999GF199999041999004571999999MA1101201999999REMMET058METAR SBIZ 181700Z 03003KT 9999 SCT015 BKN025 31/23 Q1012=
0165825640999992015011818004-05531-047460FM-15+013199999V0200201N00311007621CN009999199+03101+02301999999ADDGA1021+004571999GA2041+007621999GE19MSL   +99999+99999GF199999021999004571999999MA1101101999999REMMET058METAR SBIZ 181800Z 02006KT 9999 FEW015 SCT025 31/23 Q1011=
0142825640999992015011819004-05531-047460FM-15+013199999V0200701N003119999999N009999199+03201+02301999999ADDGA1041+007621999GE19MSL   +99999+99999GF199999041999007621999999MA1101001999999REMMET051METAR SBIZ 181900Z 07006KT 9999 SCT025 32/23 Q1010=
