0168825830999992015010112004-05167-040667FM-12+029999999V0201401N002619999999N050000199+02631+02001999999ADDGA1081+008001061GE19MSL   +99999+99999GF108991081999008001999999KA1240N+02371MA1999999097931REMSYN06482583 32599 81405 10263 20200 39793 4//// 885// 333 20237 5////=
0193825830999992015010200004-05167-040667FM-12+029999999V0201401N001519999999N004000199+02941+01411100981ADDGA1022+008001081GE19MSL   +99999+99999GF101992022999008001999999KA1120M+03501KA2120N+00471MA1999999097641REMSYN07682583 32596 11403 10294 20141 39764 40098 82100 333 10350 29047 55059 5////=
0182825830999992015010212004-05167-040667FM-12+029999999V0200901N002619999999N050000199+02761+01971101261ADDGA1021+008001081GE19MSL   +99999+99999GF102991021999008001999999KA1240N+02381MA1999999097921MD1999999-0061REMSYN06482583 32599 20905 10276 20197 39792 40126 82100 333 20238 59006=
0238825830999992015010300004-05167-040667FM-12+029999999V0203601N001519999999N004000199+02361+02241101101ADDAA106025031AY191021AY291021GA1081+008001091GE19MSL   +99999+99999GF108991081999008001999999KA1120M+03581KA2120N+00721MA1999999097721MW1171REMSYN08882583 21596 83603 10236 20224 39772 40110 71799 889// 333 10358 29072 55106 58002 60251=
0227825830999992015010312004-05167-040667FM-12+029999999V0203601N001519999999N050000199+02441+02211101291ADDAA124037031AY161021AY291021GA1081+008001071GE19MSL   +99999+99999GF108991081999008001999999KA1240N+02231MA1999999097891MD1999999-0031MW1021REMSYN07682583 21599 83603 10244 20221 39789 40129 70269 88700 333 20223 59003 60374=
0193825830999992015010400004-05167-040667FM-12+029999999V0203601N002619999999N004000199+02651+02111101061ADDGA1021+008001081GE19MSL   +99999+99999GF102991021999008001999999KA1120M+03191KA2120N+00721MA1999999097681REMSYN07682583 32596 23605 10265 20211 39768 40106 82100 333 10319 29072 55043 58004=
0227825830999992015010412004-05167-040667FM-12+029999999V0200901N001519999999N050000199+02391+02231101351ADDAA124012031AY161021AY261021GA1061+008001061GE19MSL   +99999+99999GF106991061999008001999999KA1240N+02091MA1999999097961MD1999999+0071MW1021REMSYN07682583 21599 60903 10239 20223 39796 40135 70266 86500 333 20209 58007 60124=
0238825830999992015010500004-05167-040667FM-12+029999999V0203201N002119999999N050000199+02281+02161101441ADDAA106022031AY161021AY261021GA1081+008001081GE19MSL   +99999+99999GF108991081999008001999999KA1120M+02731KA2120N+00881MA1999999098021MW1021REMSYN08882583 21599 83204 10228 20216 39802 40144 70266 888// 333 10273 29088 55019 58034 60221=
0227825830999992015010512004-05167-040667FM-12+029999999V0200901N003619999999N050000199+02571+02171101481ADDAA124023031AY161021AY261021GA1061+008001061GE19MSL   +99999+99999GF106991061999008001999999KA1240N+02071MA1999999098071MD1999999+0111MW1031REMSYN07682583 21599 60907 10257 20217 39807 40148 70366 86500 333 20207 58011 60234=
0212825830999992015010600004-05167-040667FM-12+029999999V0200901N001019999999N004000199+02721+02081101141ADDGA1999+999999001GE19MSL   +99999+99999GF101991001999999999999999KA1120M+03241KA2120N+00671MA1999999097781REMSYN07682583 32996 10902 10272 20208 39778 40114 80001 333 10324 29067 55083 59024=EQDQ01    003SCCGA1
0198825830999992015010612004-05167-040667FM-12+029999999V0200901N002619999999N050000199+02571+02081101401ADDGA1031+008001081GA2999+999999001GE19MSL   +99999+99999GF104991031999008001999999KA1240N+02201MA1999999098021MD1999999-0051REMSYN06482583 32599 40905 10257 20208 39802 40140 83101 333 20220 59005=
0212825830999992015010700004-05167-040667FM-12+029999999V0200501N000519999999N004000199+02811+02171101121ADDGA1999+999999001GE19MSL   +99999+99999GF101991001999999999999999KA1120M+03281KA2120N+00641MA1999999097761REMSYN07682583 32996 10501 10281 20217 39776 40112 80001 333 10328 29064 55063 59002=EQDQ01    003SCCGA1
0227825830999992015010712004-05167-040667FM-12+029999999V0200501N003119999999N050000199+02531+02251101331ADDAA124000831AY161021AY261021GA1061+008001061GE19MSL   +99999+99999GF106991061999008001999999KA1240N+02391MA1999999095811MD1999999-0071MW1021REMSYN07682583 21599 60506 10253 20225 39581 40133 70266 86500 333 20239 59007 69984=
0123825830999992015010800004-05167-040667FM-12+029999999V0201401N001519999999N004000199+02711+02031101001ADDKA1120M+03301KA2120N+00661MA1999999097631REMSYN07082583 32996 01403 10271 20203 39763 40100 333 10330 29066 55081 59013=
0182825830999992015010812004-05167-040667FM-12+029999999V0200901N003619999999N050000199+02511+02231101311ADDGA1081+008001999GE19MSL   +99999+99999GF108991081999008001999999KA1240N+02301MA1999999097931MD1999999-0021REMSYN06482583 32599 80907 10251 20223 39793 40131 88/// 333 20230 59002=
0182825830999992015010912004-05167-040667FM-12+029999999V0200901N003119999999N050000199+02681+02061101271ADDGA1032+008001081GE19MSL   +99999+99999GF102992032999008001999999KA1240N+02241MA1999999097911MD1999999-0021REMSYN06482583 32599 20906 10268 20206 39791 40127 83200 333 20224 59002=
0123825830999992015011000004-05167-040667FM-12+029999999V0200901N001519999999N004000199+02891+01651101041ADDKA1120M+03541KA2120N+00491MA1999999097691REMSYN07082583 32996 00903 10289 20165 39769 40104 333 10354 29049 55112 58000=
0182825830999992015011012004-05167-040667FM-12+029999999V0200901N005119999999N050000199+02821+02101101241ADDGA1031+008001081GE19MSL   +99999+99999GF103991031999008001999999KA1240N+02261MA1999999097901MD1999999-0011REMSYN06482583 32599 30910 10282 20210 39790 40124 83100 333 20226 59001=
0123825830999992015011100004-05167-040667FM-12+029999999V0200901N001519999999N004000199+02991+01841102901ADDKA1120M+03451KA2120N+00521MA1999999097591REMSYN07082583 32996 00903 10299 20184 39759 40290 333 10345 29052 55107 59010=
0182825830999992015011112004-05167-040667FM-12+029999999V0200901N004619999999N050000199+02771+02011101301ADDGA1081+008001081GE19MSL   +99999+99999GF108991081999008001999999KA1240N+02211MA1999999097951MD1999999+0051REMSYN06482583 32599 80909 10277 20201 39795 40130 888// 333 20221 58005=
0193825830999992015011200004-05167-040667FM-12+029999999V0200901N001519999999N004000199+02961+01641101021ADDGA1021+008001081GE19MSL   +99999+99999GF102991021999008001999999KA1120M+03571KA2120N+00481MA1999999097681REMSYN07682583 32596 20903 10296 20164 39768 40102 82100 333 10357 29048 55077 58009=
0182825830999992015011212004-05167-040667FM-12+029999999V0200901N005719999999N050000199+02801+01871101381ADDGA1061+008001081GE19MSL   +99999+99999GF106991061999008001999999KA1240N+02471MA1999999098031MD1999999+0081REMSYN06482583 32599 60911 10280 20187 39803 40138 86200 333 20247 58008=
0123825830999992015011300004-05167-040667FM-12+029999999V0200901N001519999999N004000199+03011+01731100981ADDKA1120M+03561KA2120N+00471MA1999999097651REMSYN07082583 32996 00903 10301 20173 39765 40098 333 10356 29047 55097 59003=
0182825830999992015011312004-05167-040667FM-12+029999999V0200901N009319999999N050000199+02881+01891101191ADDGA1021+008001081GE19MSL   +99999+99999GF102991021999008001999999KA1240N+02501MA1999999097851MD1999999-0181REMSYN06482583 32599 20918 10288 20189 39785 40119 82100 333 20250 59018=
0123825830999992015011400004-05167-040667FM-12+029999999V0200901N001519999999N004000199+02901+01721100961ADDKA1120M+03531KA2120N+00481MA1999999097631REMSYN07082583 32996 00903 10290 20172 39763 40096 333 10353 29048 55100 59002=
0182825830999992015011412004-05167-040667FM-12+029999999V0200901N007719999999N050000199+02831+01821101181ADDGA1021+008001081GE19MSL   +99999+99999GF102991021999008001999999KA1240N+02441MA1999999097841MD1999999-0011REMSYN06482583 32599 20915 10283 20182 39784 40118 82100 333 20244 59001=
0142825830999992015011500004-05167-040667FM-12+029999999V0200901N001519999999N004000199+02971+01551100891ADDKA1120M+03601KA2120N+00431MA1999999999999REMSYN07082583 32996 00903 10297 20155 39456 40089 333 10360 29043 55110 59007=EQDQ01 094563APOSP 
0198825830999992015011512004-05167-040667FM-12+029999999V0200901N003619999999N050000199+02721+02001101311ADDGA1051+008001081GA2999+999999001GE19MSL   +99999+99999GF106991051999008001999999KA1240N+02431MA1999999097951MD1999999+0111REMSYN06482583 32599 60907 10272 20200 39795 40131 85801 333 20243 58011=
0123825830999992015011600004-05167-040667FM-12+029999999V0201401N001519999999N004000199+03031+01711101001ADDKA1120M+03551KA2120N+00491MA1999999097661REMSYN07082583 32996 01403 10303 20171 39766 40100 333 10355 29049 55084 58010=
0182825830999992015011612004-05167-040667FM-12+029999999V0200901N008219999999N050000199+02871+01701101311ADDGA1011+008001081GE19MSL   +99999+99999GF101991011999008001999999KA1240N+02341MA1999999097971MD1999999+0021REMSYN06482583 32599 10916 10287 20170 39797 40131 81100 333 20234 58002=
0123825830999992015011700004-05167-040667FM-12+029999999V0200901N001019999999N004000199+02971+01591100991ADDKA1120M+03541KA2120N+00431MA1999999097661REMSYN07082583 32996 00902 10297 20159 39766 40099 333 10354 29043 55105 58000=
0182825830999992015011712004-05167-040667FM-12+029999999V0200901N002119999999N050000199+02651+02091101251ADDGA1051+008001081GE19MSL   +99999+99999GF105991051999008001999999KA1240N+02331MA1999999097911MD1999999-0061REMSYN06482583 32599 50904 10265 20209 39791 40125 85200 333 20233 59006=
0123825830999992015011800004-05167-040667FM-12+029999999V0200901N001519999999N004000199+03041+01681100961ADDKA1120M+03531KA2120N+00501MA1999999097621REMSYN07082583 32996 00903 10304 20168 39762 40096 333 10353 29050 55097 59004=
0182825830999992015011812004-05167-040667FM-12+029999999V0200901N005119999999N050000199+02891+02021101251ADDGA1041+008001081GE19MSL   +99999+99999GF106991041999008001999999KA1240N+02501MA1999999097911MD1999999+0001REMSYN06482583 32599 60910 10289 20202 39791 40125 84200 333 20250 58000=
0193825830999992015011900004-05167-040667FM-12+029999999V0200901N005119999999N004000199+02971+01981100941ADDGA1032+008001081GE19MSL   +99999+99999GF102992032999008001999999KA1120M+03601KA2120N+00531MA1999999097881REMSYN07682583 32596 20910 10297 20198 39788 40094 83200 333 10360 29053 55108 58000=
0243825830999992015011912004-05167-040667FM-12+029999999V0200901N007719999999N050000199+02811+02001101221ADDAA124000231AY161021AY261021GA1051+008001081GA2999+999999001GE19MSL   +99999+99999GF106991051999008001999999KA1240N+02491MA1999999097881MD1999999-0031MW1021REMSYN07682583 21599 60915 10281 20200 39788 40122 70266 85201 333 20249 59003 69924=
0193825830999992015012000004-05167-040667FM-12+029999999V0200501N002119999999N004000199+02901+01751101061ADDGA1011+008001081GE19MSL   +99999+99999GF101991011999008001999999KA1120M+03491KA2120N+00491MA1999999097721REMSYN07682583 32596 10504 10290 20175 39772 40106 81100 333 10349 29049 55076 58010=
0198825830999992015012012004-05167-040667FM-12+029999999V0200901N005119999999N050000199+02781+01961101111ADDGA1051+008001081GA2999+999999001GE19MSL   +99999+99999GF106991051999008001999999KA1240N+02431MA1999999097771MD1999999-0111REMSYN06482583 32599 60910 10278 20196 39777 40111 85201 333 20243 59011=
0123825830999992015012100004-05167-040667FM-12+029999999V0200901N001519999999N004000199+02861+01651100781ADDKA1120M+03471KA2120N+00481MA1999999097441REMSYN07082583 32996 00903 10286 20165 39744 40078 333 10347 29048 55100 59028=
0182825830999992015012112004-05167-040667FM-12+029999999V0200901N003619999999N050000199+02731+02021101191ADDGA1071+008001081GE19MSL   +99999+99999GF108991071999008001999999KA1240N+02341MA1999999097841MD1999999+0071REMSYN06482583 32599 80907 10273 20202 39784 40119 87200 333 20234 58007=
0193825830999992015012200004-05167-040667FM-12+029999999V0203601N002619999999N004000199+02831+01991100991ADDGA1021+008001081GE19MSL   +99999+99999GF102991021999008001999999KA1120M+03431KA2120N+00601MA1999999097651REMSYN07682583 32596 23605 10283 20199 39765 40099 82100 333 10343 29060 55036 58021=
0227825830999992015012212004-05167-040667FM-12+029999999V0200901N002619999999N050000199+02541+02211101321ADDAA124001031AY161021AY261021GA1081+008001061GE19MSL   +99999+99999GF108991081999008001999999KA1240N+02401MA1999999097951MD1999999+0111MW1031REMSYN07682583 21599 80905 10254 20221 39795 40132 70366 885// 333 20240 58011 60014=
0238825830999992015012300004-05167-040667FM-12+029999999V0201401N002119999999N004000199+02781+01821100981ADDAA106000831AY161021AY261021GA1031+008001081GE19MSL   +99999+99999GF103991031999008001999999KA1120M+03231KA2120N+00581MA1999999097621MW1021REMSYN08882583 21596 31404 10278 20182 39762 40098 70266 83200 333 10323 29058 55007 59003 69981=
0199825830999992015012312004-05167-040667FM-12+029999999V0200901N005119999999N050000199+02651+01901101301ADDAA124000831GA1051+008001081GE19MSL   +99999+99999GF106991051999008001999999KA1240N+02391MA1999999097941MD1999999-0011REMSYN07082583 22599 60910 10265 20190 39794 40130 85200 333 20239 59001 69984=
0193825830999992015012400004-05167-040667FM-12+029999999V0201401N002619999999N004000199+02831+01601101021ADDGA1051+008001081GE19MSL   +99999+99999GF108991051999008001999999KA1120M+03401KA2120N+00481MA1999999097661REMSYN07682583 32596 81405 10283 20160 39766 40102 852// 333 10340 29048 55041 58004=
0182825830999992015012412004-05167-040667FM-12+029999999V0200901N005119999999N050000199+02851+01951101221ADDGA1061+008001081GE19MSL   +99999+99999GF106991061999008001999999KA1240N+02491MA1999999097881MD1999999-0061REMSYN06482583 32599 60910 10285 20195 39788 40122 86200 333 20249 59006=
0193825830999992015012500004-05167-040667FM-12+029999999V0200901N002619999999N050000199+03071+01781100871ADDGA1021+008001081GE19MSL   +99999+99999GF102991021999008001999999KA1120M+03551KA2120N+00461MA1999999097551REMSYN07682583 32599 20905 10307 20178 39755 40087 82100 333 10355 29046 55100 59011=
0182825830999992015012512004-05167-040667FM-12+029999999V0200901N007719999999N004000199+02841+01881101171ADDGA1041+008001081GE19MSL   +99999+99999GF107991041999008001999999KA1240N+02461MA1999999097831MD1999999-0051REMSYN06482583 32596 70915 10284 20188 39783 40117 84200 333 20246 59005=
0193825830999992015012600004-05167-040667FM-12+029999999V0200901N002619999999N004000199+02931+01791100951ADDGA1021+008001081GE19MSL   +99999+99999GF105991021999008001999999KA1120M+03311KA2120N+00481MA1999999097621REMSYN07682583 32596 50905 10293 20179 39762 40095 82100 333 10331 29048 55028 58007=
0198825830999992015012612004-05167-040667FM-12+029999999V0200901N003119999999N050000199+02701+01881101351ADDGA1051+008001081GA2999+999999031GE19MSL   +99999+99999GF106991051999008001999999KA1240N+02281MA1999999097991MD1999999+0161REMSYN06482583 32599 60906 10270 20188 39799 40135 85230 333 20228 58016=
0193825830999992015012700004-05167-040667FM-12+029999999V0201401N002119999999N004000199+02831+01231101061ADDGA1011+008001081GE19MSL   +99999+99999GF101991011999008001999999KA1120M+03601KA2120N+00401MA1999999097701REMSYN07682583 32596 11404 10283 20123 39770 40106 81100 333 10360 29040 55103 58008=
0182825830999992015012712004-05167-040667FM-12+029999999V0200501N000519999999N050000199+02581+01941101301ADDGA1061+008001081GE19MSL   +99999+99999GF106991061999008001999999KA1240N+02031MA1999999097941MD1999999-0051REMSYN06482583 32599 60501 10258 20194 39794 40130 86200 333 20203 59005=
0123825830999992015012800004-05167-040667FM-12+029999999V0200501N001019999999N004000199+02981+01471100901ADDKA1120M+03611KA2120N+00461MA1999999097561REMSYN07082583 32996 00502 10298 20147 39756 40090 333 10361 29046 55090 59014=
0182825830999992015012812004-05167-040667FM-12+029999999V0200901N003119999999N050000199+02721+01951101221ADDGA1021+008001081GE19MSL   +99999+99999GF102991021999008001999999KA1240N+02331MA1999999097881MD1999999-0061REMSYN06482583 32599 20906 10272 20195 39788 40122 82100 333 20233 59006=
0123825830999992015012900004-05167-040667FM-12+029999999V0200901N001519999999N004000199+03041+01491100891ADDKA1120M+03651KA2120N+00441MA1999999097561REMSYN07082583 32996 00903 10304 20149 39756 40089 333 10365 29044 55110 58000=
0182825830999992015012912004-05167-040667FM-12+029999999V0200901N002119999999N050000199+02601+02011101211ADDGA1051+008001081GE19MSL   +99999+99999GF107991051999008001999999KA1240N+02391MA1999999097861MD1999999-0021REMSYN06482583 32599 70904 10260 20201 39786 40121 85200 333 20239 59002=
0193825830999992015013000004-05167-040667FM-12+029999999V0200901N001519999999N050000199+03101+01771100951ADDGA1052+008001081GE19MSL   +99999+99999GF101992052999008001999999KA1120M+03521KA2120N+00501MA1999999097611REMSYN07682583 32599 10903 10310 20177 39761 40095 85200 333 10352 29050 55078 58005=
0182825830999992015013012004-05167-040667FM-12+029999999V0200901N002119999999N050000199+02611+02011101231ADDGA1081+008001081GE19MSL   +99999+99999GF108991081999008001999999KA1240N+02341MA1999999097891MD1999999+0031REMSYN06482583 32599 80904 10261 20201 39789 40123 888// 333 20234 58003=
0182825830999992015013112004-05167-040667FM-12+029999999V0200901N003119999999N050000199+02791+02031101201ADDGA1051+008001081GE19MSL   +99999+99999GF105991051999008001999999KA1240N+02211MA1999999097861MD1999999-0031REMSYN06482583 32599 50906 10279 20203 39786 40120 85200 333 20221 59003=
0123825830999992015020100004-05167-040667FM-12+029999999V0200901N001519999999N004000199+03051+02031100851ADDKA1120M+03571KA2120N+00481MA1999999096521REMSYN07082583 32596 00903 10305 20203 39652 40085 333 10357 29048 55112 59005=
0198825830999992015020112004-05167-040667FM-12+029999999V0200901N006719999999N050000199+02931+01941101151ADDGA1061+008001081GA2999+999999001GE19MSL   +99999+99999GF107991061999008001999999KA1240N+02481MA1999999097801MD1999999-0061REMSYN06482583 32599 70913 10293 20194 39780 40115 86801 333 20248 59006=
0212825830999992015020200004-05167-040667FM-12+029999999V0200901N001519999999N004000199+03061+01731100861ADDGA1999+999999001GE19MSL   +99999+99999GF102991001999999999999999KA1120M+03581KA2120N+00471MA1999999097541REMSYN07682583 32996 20903 10306 20173 39754 40086 80001 333 10358 29047 55099 59002=EQDQ01    003SCCGA1
0227825830999992015020212004-05167-040667FM-12+029999999V0200901N001019999999N050000199+02551+02311101201ADDAA124001031AY161021AY261021GA1061+008001061GE19MSL   +99999+99999GF107991061999008001999999KA1240N+02381MA1999999097851MD1999999+0051MW1031REMSYN07682583 21599 70902 10255 20231 39785 40120 70366 86500 333 20238 58005 60014=
0209825830999992015020300004-05167-040667FM-12+029999999V0203601N003619999999N004000199+02801+02061101051ADDGA1011+008001081GA2999+999999001GE19MSL   +99999+99999GF103991011999008001999999KA1120M+03481KA2120N+00621MA1999999097691REMSYN07682583 32596 33607 10280 20206 39769 40105 81101 333 10348 29062 55053 58015=
0182825830999992015020312004-05167-040667FM-12+029999999V0200901N001519999999N050000199+02711+02241101381ADDGA1061+008001081GE19MSL   +99999+99999GF107991061999008001999999KA1240N+02501MA1999999098021MD1999999+0171REMSYN06482583 32599 70903 10271 20224 39802 40138 86200 333 20250 58017=
0238825830999992015020400004-05167-040667FM-12+029999999V0203201N002619999999N004000199+02491+02321101111ADDAA106011031AY161021AY261021GA1081+008001061GE19MSL   +99999+99999GF108991081999008001999999KA1120M+03371KA2120N+00851MA1999999097771MW1211REMSYN08882583 21596 83205 10249 20232 39777 40111 72166 885// 333 10337 29085 55036 58008 60111=
0215825830999992015020412004-05167-040667FM-12+029999999V0200501N003119999999N050000199+02631+02331101191ADDAA124011031GA1061+008001061GA2999+999999031GE19MSL   +99999+99999GF108991061999008001999999KA1240N+02351MA1999999097811MD1999999-0211REMSYN07082583 22599 80506 10263 20233 39781 40119 8653/ 333 20235 59021 60114=
0238825830999992015020500004-05167-040667FM-12+029999999V0203201N001019999999N002000199+02231+02171101201ADDAA106012031AY161021AY261021GA1081+008001061GE19MSL   +99999+99999GF108991081999008001999999KA1120M+03171KA2120N+00901MA1999999097811MW1501REMSYN08882583 21595 83202 10223 20217 39781 40120 75066 885// 333 10317 29090 55021 58004 60121=
0243825830999992015020512004-05167-040667FM-12+029999999V0200901N001519999999N050000199+02471+02231101321ADDAA124012031AY151021AY251021GA1061+008001081GA2999+999999031GE19MSL   +99999+99999GF107991061999008001999999KA1240N+02161MA1999999097921MD1999999+0111MW1021REMSYN07682583 21599 70903 10247 20223 39792 40132 70255 86850 333 20216 58011 60124=
0193825830999992015020600004-05167-040667FM-12+029999999V0201401N001519999999N004000199+02751+02041100941ADDGA1031+008001081GE19MSL   +99999+99999GF103991031999008001999999KA1120M+03261KA2120N+00651MA1999999097571REMSYN07682583 32596 31403 10275 20204 39757 40094 83100 333 10326 29065 55053 59024=
0182825830999992015020612004-05167-040667FM-12+029999999V0200901N004619999999N050000199+02721+02101101051ADDGA1061+008001081GE19MSL   +99999+99999GF106991061999008001999999KA1240N+02281MA1999999097691MD1999999-0231REMSYN06482583 32599 60909 10272 20210 39769 40105 86200 333 20228 59023=
0212825830999992015020700004-05167-040667FM-12+029999999V0200901N002619999999N004000199+02891+01811100821ADDGA1999+999999001GE19MSL   +99999+99999GF101991001999999999999999KA1120M+03431KA2120N+00521MA1999999097481REMSYN07682583 32996 10905 10289 20181 39748 40082 80001 333 10343 29052 55106 59009=EQDQ01    003SCCGA1
0198825830999992015020712004-05167-040667FM-12+029999999V0200901N006719999999N050000199+02761+01991101131ADDGA1021+008001081GA2999+999999001GE19MSL   +99999+99999GF103991021999008001999999KA1240N+02251MA1999999097781MD1999999+0091REMSYN06482583 32599 30913 10276 20199 39778 40113 82101 333 20225 58009=
0123825830999992015020800004-05167-040667FM-12+029999999V0201401N001519999999N004000199+02901+01481100771ADDKA1120M+03431KA2120N+00461MA1999999097431REMSYN07082583 32996 01403 10290 20148 39743 40077 333 10343 29046 55076 59005=
0182825830999992015020812004-05167-040667FM-12+029999999V0200901N005119999999N050000199+02781+01981101131ADDGA1061+008001061GE19MSL   +99999+99999GF106991061999008001999999KA1240N+02411MA1999999097791MD1999999+0011REMSYN06482583 32599 60910 10278 20198 39779 40113 86500 333 20241 58001=
0123825830999992015020900004-05167-040667FM-12+029999999V0201401N003119999999N004000199+02921+01741100791ADDKA1120M+03531KA2120N+00481MA1999999097451REMSYN07082583 32996 01406 10292 20174 39745 40079 333 10353 29048 55082 58002=
0198825830999992015020912004-05167-040667FM-12+029999999V0200901N003619999999N050000199+02851+02141101011ADDGA1031+008001081GA2999+999999001GE19MSL   +99999+99999GF105991031999008001999999KA1240N+02321MA1999999097671MD1999999-0121REMSYN06482583 32599 50907 10285 20214 39767 40101 83101 333 20232 59012=
0193825830999992015021000004-05167-040667FM-12+029999999V0200901N002619999999N004000199+03071+01521100771ADDGA1011+008001081GE19MSL   +99999+99999GF101991011999008001999999KA1120M+03611KA2120N+00441MA1999999097451REMSYN07682583 32596 10905 10307 20152 39745 40077 81100 333 10361 29044 55103 59010=
0182825830999992015021012004-05167-040667FM-12+029999999V0200901N004619999999N050000199+02841+02141101081ADDGA1061+008001081GE19MSL   +99999+99999GF106991061999008001999999KA1240N+02491MA1999999097741MD1999999+0071REMSYN06482583 32599 60909 10284 20214 39774 40108 86200 333 20249 58007=
0123825830999992015021100004-05167-040667FM-12+029999999V0200901N001519999999N004000199+03121+01711100881ADDKA1120M+03701KA2120N+00471MA1999999097561REMSYN07082583 32996 00903 10312 20171 39756 40088 333 10370 29047 55092 58011=
0227825830999992015021112004-05167-040667FM-12+029999999V0200501N003119999999N050000199+02631+02231101311ADDAA124000131AY161021AY261021GA1081+008001081GE19MSL   +99999+99999GF108991081999008001999999KA1240N+02501MA1999999097961MD1999999+0221MW1021REMSYN07682583 21599 80506 10263 20223 39796 40131 70266 888// 333 20250 58022 69914=
0193825830999992015021200004-05167-040667FM-12+029999999V0200501N001019999999N004000199+02941+01721101081ADDGA1041+008001061GE19MSL   +99999+99999GF104991041999008001999999KA1120M+03491KA2120N+00521MA1999999097731REMSYN07682583 32596 40502 10294 20172 39773 40108 84500 333 10349 29052 55020 58017=
0198825830999992015021212004-05167-040667FM-12+029999999V0200901N006719999999N050000199+02811+02021101431ADDGA1031+008001081GA2999+999999001GE19MSL   +99999+99999GF104991031999008001999999KA1240N+02331MA1999999098081MD1999999+0121REMSYN06482583 32599 40913 10281 20202 39808 40143 83101 333 20233 58012=
0193825830999992015021300004-05167-040667FM-12+029999999V0201401N002119999999N004000199+03001+01681101171ADDGA1021+008001081GE19MSL   +99999+99999GF102991021999008001999999KA1120M+03601KA2120N+00461MA1999999097831REMSYN07682583 32596 21404 10300 20168 39783 40117 82100 333 10360 29046 55088 58010=
0182825830999992015021312004-05167-040667FM-12+029999999V0200901N006719999999N050000199+02841+02011101361ADDGA1051+008001081GE19MSL   +99999+99999GF105991051999008001999999KA1240N+02451MA1999999098011MD1999999-0071REMSYN06482583 32599 50913 10284 20201 39801 40136 85200 333 20245 59007=
0123825830999992015021400004-05167-040667FM-12+029999999V0200501N001519999999N004000199+03051+01621101011ADDKA1120M+03571KA2120N+00461MA1999999097681REMSYN07082583 32996 00503 10305 20162 39768 40101 333 10357 29046 55091 59015=
0182825830999992015021412004-05167-040667FM-12+029999999V0200901N005119999999N050000199+02781+01961101351ADDGA1081+008001081GE19MSL   +99999+99999GF108991081999008001999999KA1240N+02521MA1999999098001MD1999999-0011REMSYN06482583 32599 80910 10278 20196 39800 40135 888// 333 20252 59001=
0123825830999992015021500004-05167-040667FM-12+029999999V0201801N000519999999N004000199+03061+01991101011ADDKA1120M+03511KA2120N+00521MA1999999097671REMSYN07082583 32996 01801 10306 20199 39767 40101 333 10351 29052 55040 59001=
0182825830999992015021512004-05167-040667FM-12+029999999V0200501N004619999999N050000199+02811+01901101281ADDGA1061+008001081GE19MSL   +99999+99999GF106991061999008001999999KA1240N+02471MA1999999097941MD1999999-0061REMSYN06482583 32599 60509 10281 20190 39794 40128 86200 333 20247 59006=
0193825830999992015021600004-05167-040667FM-12+029999999V0200901N003619999999N004000199+03131+01731101021ADDGA1061+008001081GE19MSL   +99999+99999GF106991061999008001999999KA1120M+03531KA2120N+00461MA1999999097691REMSYN07682583 32596 60907 10313 20173 39769 40102 86800 333 10353 29046 55062 58002=
0182825830999992015021612004-05167-040667FM-12+029999999V0200501N004119999999N050000199+02731+02101101221ADDGA1031+008001081GE19MSL   +99999+99999GF107991031999008001999999KA1240N+02531MA1999999097541MD1999999-0061REMSYN06482583 32599 70508 10273 20210 39754 40122 83200 333 20253 59006=
0193825830999992015021700004-05167-040667FM-12+029999999V0203601N002119999999N004000199+02621+02101101131ADDGA1041+008001081GE19MSL   +99999+99999GF104991041999008001999999KA1120M+03521KA2120N+00641MA1999999097771REMSYN07682583 32596 43604 10262 20210 39777 40113 84200 333 10352 29064 55043 58008=
0182825830999992015021712004-05167-040667FM-12+029999999V0200501N006719999999N050000199+02861+01921101191ADDGA1041+008001081GE19MSL   +99999+99999GF105991041999008001999999KA1240N+02431MA1999999097831MD1999999-0051REMSYN06482583 32599 50513 10286 20192 39783 40119 84200 333 20243 59005=
0182825830999992015021812004-05167-040667FM-12+029999999V0200501N003619999999N050000199+02791+02111101041ADDGA1061+008001081GE19MSL   +99999+99999GF106991061999008001999999KA1240N+02411MA1999999097681MD1999999-0151REMSYN06482583 32599 60507 10279 20211 39768 40104 86200 333 20241 59015=
0238825830999992015021900004-05167-040667FM-12+029999999V0203601N001519999999N004000199+02781+02321100901ADDAA106012031AY161021AY261021GA1051+008001081GE19MSL   +99999+99999GF108991051999008001999999KA1120M+03631KA2120N+00711MA1999999097541MW1021REMSYN08882583 21596 83603 10278 20232 39754 40090 70266 85200 333 10363 29071 55072 59008 60121=
0227825830999992015021912004-05167-040667FM-12+029999999V0202701N001019999999N050000199+02541+02331101151ADDAA124013031AY151021AY251021GA1081+008001081GE19MSL   +99999+99999GF108991081999008001999999KA1240N+02301MA1999999097771MD1999999-0091MW1031REMSYN07682583 21599 82702 10254 20233 39777 40115 70355 888// 333 20230 59009 60134=
0193825830999992015022000004-05167-040667FM-12+029999999V0203201N001519999999N004000199+02631+02161100941ADDGA1061+008001081GE19MSL   +99999+99999GF106991061999008001999999KA1120M+03361KA2120N+00701MA1999999097581REMSYN07682583 32596 63203 10263 20216 39758 40094 86200 333 10336 29070 55034 58003=
0243825830999992015022012004-05167-040667FM-12+029999999V0200901N002619999999N050000199+02271+02181101281ADDAA124017031AY161021AY251021GA1051+008001061GA2999+999999051GE19MSL   +99999+99999GF108991051999008001999999KA1240N+02121MA1999999097881MD1999999+0111MW1021REMSYN07682583 21599 80905 10227 20218 39788 40128 70265 8552/ 333 20212 58011 60174=
0238825830999992015022100004-05167-040667FM-12+029999999V0203601N001519999999N002000199+02471+02321101131ADDAA106008031AY121021AY221021GA1081+004501061GE19MSL   +99999+99999GF108991081999004501999999KA1120M+02951KA2120N+00851MA1999999097751MW1631REMSYN08882583 21495 83603 10247 20232 39775 40113 76322 885// 333 10295 29085 55002 58018 60081=
0243825830999992015022112004-05167-040667FM-12+029999999V0200901N001519999999N050000199+02501+02231101221ADDAA124009031AY161021AY251021GA1041+008001061GA2999+999999051GE19MSL   +99999+99999GF106991041999008001999999KA1240N+02181MA1999999097891MD1999999+0011MW1031REMSYN07682583 21599 60903 10250 20223 39789 40122 70365 84520 333 20218 58001 60094=
0193825830999992015022200004-05167-040667FM-12+029999999V0203601N002119999999N004000199+02471+02251100911ADDGA1021+008001081GE19MSL   +99999+99999GF102991021999008001999999KA1120M+02861KA2120N+00791MA1999999097611REMSYN07682583 32596 23604 10247 20225 39761 40091 82100 333 10286 29079 55015 59014=
0227825830999992015022212004-05167-040667FM-12+029999999V0201401N002619999999N050000199+02261+02071101151ADDAA124001031AY161021AY261021GA1081+008001061GE19MSL   +99999+99999GF108991081999008001999999KA1240N+02181MA1999999097811MD1999999-0091MW1201REMSYN07682583 21599 81405 10226 20207 39781 40115 72066 885// 333 20218 59009 60014=
0238825830999992015022300004-05167-040667FM-12+029999999V0202701N001019999999N004000199+02621+02251100971ADDAA106000431AY161021AY261021GA1061+008001061GE19MSL   +99999+99999GF106991061999008001999999KA1120M+03071KA2120N+00761MA1999999097591MW1021REMSYN08882583 21596 62702 10262 20225 39759 40097 70266 86500 333 10307 29076 55038 59002 69941=
0227825830999992015022312004-05167-040667FM-12+029999999V0201801N004619999999N001000199+02251+02241101291ADDAA124013031AY161021AY261021GA1081+004501061GE19MSL   +99999+99999GF108991081999004501999999KA1240N+02121MA1999999097891MD1999999+0081MW1631REMSYN07682583 21494 81809 10225 20224 39789 40129 76366 885// 333 20212 58008 60134=
0238825830999992015022400004-05167-040667FM-12+029999999V0203601N001019999999N001000199+02331+02291101191ADDAA106011031AY161021AY261021GA1081+004501061GE19MSL   +99999+99999GF108991081999004501999999KA1120M+02981KA2120N+00911MA1999999097781MW1631REMSYN08882583 21494 83602 10233 20229 39778 40119 76366 885// 333 10298 29091 55020 58019 60111=
0215825830999992015022412004-05167-040667FM-12+029999999V0200901N004619999999N050000199+02581+02331101331ADDAA124011031GA1061+008001081GA2999+999999031GE19MSL   +99999+99999GF107991061999008001999999KA1240N+02291MA1999999097931MD1999999+0041REMSYN07082583 22599 70909 10258 20233 39793 40133 86250 333 20229 58004 60114=
0193825830999992015022500004-05167-040667FM-12+029999999V0203601N002119999999N004000199+02431+02211101301ADDGA1061+008001061GE19MSL   +99999+99999GF106991061999008001999999KA1120M+03261KA2120N+00811MA1999999097911REMSYN07682583 32596 63604 10243 20221 39791 40130 86500 333 10326 29081 55072 58013=
0182825830999992015022512004-05167-040667FM-12+029999999V0200901N005119999999N050000199+02681+02261101341ADDGA1061+008001081GE19MSL   +99999+99999GF106991061999008001999999KA1240N+02311MA1999999097961MD1999999+0031REMSYN06482583 32599 60910 10268 20226 39796 40134 86200 333 20231 58003=
0238825830999992015022600004-05167-040667FM-12+029999999V0202301N000519999999N004000199+02401+02371101161ADDAA106004031AY161021AY251021GA1031+008001071GE19MSL   +99999+99999GF103991031999008001999999KA1120M+03101KA2120N+00871MA1999999097781MW1011REMSYN08882583 21596 32301 10240 20237 39778 40116 70165 83600 333 10310 29087 55049 59013 60041=
0199825830999992015022612004-05167-040667FM-12+029999999V0200901N003619999999N050000199+02561+02371101191ADDAA124004031GA1061+008001081GE19MSL   +99999+99999GF106991061999008001999999KA1240N+02261MA1999999097811MD1999999-0151REMSYN07082583 22599 60907 10256 20237 39781 40119 86200 333 20226 59015 60044=
0193825830999992015022700004-05167-040667FM-12+029999999V0200501N002119999999N004000199+02751+02141100881ADDGA1011+008001081GE19MSL   +99999+99999GF101991011999008001999999KA1120M+03281KA2120N+00701MA1999999097521REMSYN07682583 32596 10504 10275 20214 39752 40088 81100 333 10328 29070 55079 59026=
0198825830999992015022712004-05167-040667FM-12+029999999V0203201N001019999999N050000199+02541+02191101121ADDGA1031+008001081GA2999+999999001GE19MSL   +99999+99999GF104991031999008001999999KA1240N+02191MA1999999097761MD1999999-0051REMSYN06482583 32599 43202 10254 20219 39776 40112 83101 333 20219 59005=
0193825830999992015022800004-05167-040667FM-12+029999999V0203601N004619999999N004000199+02531+02061101071ADDGA1081+008001061GE19MSL   +99999+99999GF108991081999008001999999KA1120M+03261KA2120N+00761MA1999999097711REMSYN07682583 32596 83609 10253 20206 39771 40107 885// 333 10326 29076 55103 58019=
0243825830999992015022812004-05167-040667FM-12+029999999V0200501N000519999999N050000199+02371+02241101291ADDAA124000231AY161021AY261021GA1071+008001061GA2999+999999051GE19MSL   +99999+99999GF108991071999008001999999KA1240N+02161MA1999999097891MD1999999+0131MW1031REMSYN07682583 21599 80501 10237 20224 39789 40129 70366 8752/ 333 20216 58013 69924=
0238825830999992015030100004-05167-040667FM-12+029999999V0203601N001019999999N004000199+02331+02201101221ADDAA106000431AY161021AY261021GA1081+008001081GE19MSL   +99999+99999GF108991081999008001999999KA1120M+03241KA2120N+00861MA1999999097821MW1131REMSYN08882583 21596 83602 10233 20220 39782 40122 71366 888// 333 10324 29086 55062 58011 69941=
0199825830999992015030112004-05167-040667FM-12+029999999V0200901N003119999999N050000199+02461+02271101231ADDAA124000431GA1061+008001061GE19MSL   +99999+99999GF106991061999008001999999KA1240N+02171MA1999999097831MD1999999-0061REMSYN07082583 22599 60906 10246 20227 39783 40123 86500 333 20217 59006 69944=
0257825830999992015030200004-05167-040667FM-12+029999999V0202301N003119999999N004000199+02401+02171101021ADDAA106003031AY161021AY261021GA1031+008001081GE19MSL   +99999+99999GF108991031999008001999999KA1120M+03121KA2120N+00861MA1999999999999MW1031REMSYN08882583 21596 82306 10240 20217 39481 40102 70366 83200 333 10312 29086 55045 58003 60031=EQDQ01 094813APOSP 
0243825830999992015030212004-05167-040667FM-12+029999999V0200901N002119999999N050000199+02261+02141101371ADDAA124005031AY161021AY261021GA1071+008001081GA2999+999999031GE19MSL   +99999+99999GF108991071999008001999999KA1240N+02061MA1999999097951MD1999999+0121MW1021REMSYN07682583 21599 80904 10226 20214 39795 40137 70266 8784/ 333 20206 58012 60054=
0238825830999992015030300004-05167-040667FM-12+029999999V0200501N001019999999N002000199+02311+02201101021ADDAA106022031AY161021AY261021GA1081+004501061GE19MSL   +99999+99999GF108991081999004501999999KA1120M+03171KA2120N+00901MA1999999097621MW1531REMSYN08882583 21495 80502 10231 20220 39762 40102 75366 885// 333 10317 29090 55065 59019 60221=
0227825830999992015030312004-05167-040667FM-12+029999999V0200901N006219999999N050000199+02611+02231101181ADDAA124022031AY151021AY251021GA1051+008001081GE19MSL   +99999+99999GF106991051999008001999999KA1240N+02261MA1999999097791MD1999999-0161MW1011REMSYN07682583 21599 60912 10261 20223 39779 40118 70155 85200 333 20226 59016 60224=
0209825830999992015030400004-05167-040667FM-12+029999999V0209999C000019999999N050000199+02601+02101100981ADDGA1011+008001081GA2999+999999001GE19MSL   +99999+99999GF102991011999008001999999KA1120M+03161KA2120N+00711MA1999999097611REMSYN07682583 32599 20900 10260 20210 39761 40098 81101 333 10316 29071 55100 59001=
0198825830999992015030412004-05167-040667FM-12+029999999V0200501N002619999999N050000199+02661+02111101251ADDGA1031+008001081GA2999+999999001GE19MSL   +99999+99999GF104991031999008001999999KA1240N+02131MA1999999097881MD1999999+0091REMSYN06482583 32599 40505 10266 20211 39788 40125 83201 333 20213 58009=
0238825830999992015030500004-05167-040667FM-12+029999999V0209999C000019999999N004000199+02451+02261100991ADDAA106002031AY161021AY261021GA1061+008001061GE19MSL   +99999+99999GF106991061999008001999999KA1120M+03041KA2120N+00831MA1999999097611MW1021REMSYN08882583 21596 62700 10245 20226 39761 40099 70266 86500 333 10304 29083 55067 58000 60021=
0199825830999992015030512004-05167-040667FM-12+029999999V0200501N000519999999N050000199+02511+02271101201ADDAA124002031GA1081+008001081GE19MSL   +99999+99999GF108991081999008001999999KA1240N+02241MA1999999097831MD1999999-0061REMSYN07082583 22599 80501 10251 20227 39783 40120 888// 333 20224 59006 60024=
0238825830999992015030600004-05167-040667FM-12+029999999V0203601N002119999999N004000199+02451+02251101111ADDAA106000131AY161021AY261021GA1081+008001071GE19MSL   +99999+99999GF108991081999008001999999KA1120M+03221KA2120N+00791MA1999999097731MW1031REMSYN08882583 21596 83604 10245 20225 39773 40111 70366 887// 333 10322 29079 55074 58012 69911=
0227825830999992015030612004-05167-040667FM-12+029999999V0201401N001519999999N050000199+02401+02241101221ADDAA124002031AY161021AY261021GA1081+008001061GE19MSL   +99999+99999GF108991081999008001999999KA1240N+02151MA1999999097821MD1999999+0001MW1031REMSYN07682583 21599 81403 10240 20224 39782 40122 70366 885// 333 20215 58000 60024=
0238825830999992015030700004-05167-040667FM-12+029999999V0203601N002619999999N004000199+02431+02341101031ADDAA106015031AY161021AY261021GA1081+008001081GE19MSL   +99999+99999GF108991081999008001999999KA1120M+03241KA2120N+00911MA1999999097641MW1021REMSYN08882583 21596 83605 10243 20234 39764 40103 70266 888// 333 10324 29091 55062 59009 60151=
0243825830999992015030712004-05167-040667FM-12+029999999V0200501N001019999999N050000199+02431+02231101211ADDAA124016031AY161021AY261021GA1051+008001081GA2999+999999001GE19MSL   +99999+99999GF106991051999008001999999KA1240N+02131MA1999999097821MD1999999+0001MW1021REMSYN07682583 21599 60502 10243 20223 39782 40121 70266 85801 333 20213 58000 60164=
0193825830999992015030800004-05167-040667FM-12+029999999V0203601N001519999999N004000199+02811+02101100971ADDGA1081+008001091GE19MSL   +99999+99999GF108991081999008001999999KA1120M+03251KA2120N+00691MA1999999097601REMSYN07682583 32596 83603 10281 20210 39760 40097 883// 333 10325 29069 55082 59004=
0188825830999992015030812004-05167-040667FM-12+029999999V0200901N000519999999N050000199+02531+02271101151ADDGA1071+008001061GE19MSL   +99999+99999GF107991071999008001999999MA1999999097791MD1999999-0031REMSYN06482583 32599 70901 10253 20227 39779 40115 875// 333 20287 59003=EQDQ0128    2EATMN 
0238825830999992015030900004-05167-040667FM-12+029999999V0200501N000519999999N002000199+02341+02291101211ADDAA106018031AY161021AY261021GA1081+004501061GE19MSL   +99999+99999GF108991081999004501999999KA1120M+03261KA2120N+00851MA1999999097821MW1611REMSYN08882583 21495 80501 10234 20229 39782 40121 76166 885// 333 10326 29085 55056 58022 60181=
0227825830999992015030912004-05167-040667FM-12+029999999V0200901N002619999999N050000199+02501+02271101241ADDAA124019031AY161021AY261021GA1081+008001081GE19MSL   +99999+99999GF108991081999008001999999KA1240N+02281MA1999999097841MD1999999+0051MW1031REMSYN07682583 21599 80905 10250 20227 39784 40124 70366 888// 333 20228 58005 60194=
0238825830999992015031000004-05167-040667FM-12+029999999V0203601N001019999999N004000199+02411+02321101031ADDAA106005031AY161021AY261021GA1021+008001081GE19MSL   +99999+99999GF102991021999008001999999KA1120M+03081KA2120N+00861MA1999999097651MW1011REMSYN08882583 21596 23602 10241 20232 39765 40103 70166 82200 333 10308 29086 55053 59017 60051=
0199825830999992015031012004-05167-040667FM-12+029999999V0201401N001519999999N050000199+02531+02401101211ADDAA124005031GA1081+008001081GE19MSL   +99999+99999GF108991081999008001999999KA1240N+02291MA1999999097821MD1999999-0021REMSYN07082583 22599 81403 10253 20240 39782 40121 888// 333 20229 59002 60054=
0238825830999992015031100004-05167-040667FM-12+029999999V0203201N001019999999N004000199+02401+02311101011ADDAA106000631AY161021AY261021GA1081+008001061GE19MSL   +99999+99999GF108991081999008001999999KA1120M+02951KA2120N+00921MA1999999097631MW1031REMSYN08882583 21596 83202 10240 20231 39763 40101 70366 884// 333 10295 29092 55043 59002 69961=
0215825830999992015031112004-05167-040667FM-12+029999999V0200901N004619999999N050000199+02631+02271101141ADDAA124000631GA1041+008001081GA2999+999999001GE19MSL   +99999+99999GF106991041999008001999999KA1240N+02221MA1999999097761MD1999999-0061REMSYN07082583 22599 60909 10263 20227 39776 40114 84101 333 20222 59006 69964=
0212825830999992015031200004-05167-040667FM-12+029999999V0209999C000019999999N004000199+02711+02241100951ADDGA1999+999999001GE19MSL   +99999+99999GF101991001999999999999999KA1120M+03191KA2120N+00701MA1999999097591REMSYN07682583 32996 10500 10271 20224 39759 40095 80001 333 10319 29070 55090 59004=EQDQ01    003SCCGA1
0198825830999992015031212004-05167-040667FM-12+029999999V0201401N000519999999N050000199+02531+02211101131ADDGA1021+008001081GA2999+999999001GE19MSL   +99999+99999GF105991021999008001999999KA1240N+02161MA1999999097761MD1999999+0001REMSYN06482583 32599 51401 10253 20221 39776 40113 82101 333 20216 58000=
0182825830999992015031312004-05167-040667FM-12+029999999V0200901N003619999999N050000199+02661+02201101031ADDGA1061+008001081GE19MSL   +99999+99999GF106991061999008001999999KA1240N+02331MA1999999097671MD1999999-0091REMSYN06482583 32599 60907 10266 20220 39767 40103 86200 333 20233 59009=
0193825830999992015031400004-05167-040667FM-12+029999999V0203601N001519999999N004000199+02731+02301100811ADDGA1011+008001081GE19MSL   +99999+99999GF101991011999008001999999KA1120M+03131KA2120N+00731MA1999999097461REMSYN07682583 32596 13603 10273 20230 39746 40081 81100 333 10313 29073 55061 59013=
0182825830999992015031412004-05167-040667FM-12+029999999V0200901N004119999999N050000199+02671+02281101021ADDGA1031+008001081GE19MSL   +99999+99999GF103991031999008001999999KA1240N+02231MA1999999097661MD1999999-0011REMSYN06482583 32599 30908 10267 20228 39766 40102 83100 333 20223 59001=
0193825830999992015031500004-05167-040667FM-12+029999999V0203601N001519999999N004000199+02831+02621100761ADDGA1021+008001081GE19MSL   +99999+99999GF102991021999008001999999KA1120M+03321KA2120N+00771MA1999999097421REMSYN07682583 32596 23603 10283 20262 39742 40076 82100 333 10332 29077 55107 59004=
0182825830999992015031512004-05167-040667FM-12+029999999V0200901N003119999999N050000199+02621+02161101051ADDGA1031+008001081GE19MSL   +99999+99999GF103991031999008001999999KA1240N+02161MA1999999097691MD1999999+0031REMSYN06482583 32599 30906 10262 20216 39769 40105 83100 333 20216 58003=
0193825830999992015031600004-05167-040667FM-12+029999999V0200501N001019999999N004000199+02821+02201100941ADDGA1081+008001081GE19MSL   +99999+99999GF108991081999008001999999KA1120M+03381KA2120N+00661MA1999999097581REMSYN07682583 32596 80502 10282 20220 39758 40094 888// 333 10338 29066 55081 58016=
0198825830999992015031612004-05167-040667FM-12+029999999V0200901N005119999999N050000199+02721+02151101191ADDGA1051+008001081GA2999+999999001GE19MSL   +99999+99999GF106991051999008001999999KA1240N+02271MA1999999097831MD1999999+0141REMSYN06482583 32599 60910 10272 20215 39783 40119 85201 333 20227 58014=
0193825830999992015031700004-05167-040667FM-12+029999999V0200501N001519999999N004000199+02861+02141100821ADDGA1011+008001081GE19MSL   +99999+99999GF101991011999008001999999KA1120M+03421KA2120N+00631MA1999999097481REMSYN07682583 32596 10503 10286 20214 39748 40082 81100 333 10342 29063 55085 59010=
0182825830999992015031712004-05167-040667FM-12+029999999V0200901N007219999999N050000199+02841+02041101141ADDGA1061+008001081GE19MSL   +99999+99999GF106991061999008001999999KA1240N+02291MA1999999097801MD1999999-0031REMSYN06482583 32599 60914 10284 20204 39780 40114 86200 333 20229 59003=
0212825830999992015031800004-05167-040667FM-12+029999999V0203601N001519999999N004000199+02751+02121100991ADDGA1999+999999001GE19MSL   +99999+99999GF101991001999999999999999KA1120M+03451KA2120N+00611MA1999999097651REMSYN07682583 32996 13603 10275 20212 39765 40099 80001 333 10345 29061 55072 58017=EQDQ01    003SCCGA1
0198825830999992015031812004-05167-040667FM-12+029999999V0200901N004619999999N050000199+02631+02091101231ADDGA1011+008001081GA2999+999999001GE19MSL   +99999+99999GF106991011999008001999999KA1240N+02341MA1999999097871MD1999999+0171REMSYN06482583 32599 60909 10263 20209 39787 40123 81102 333 20234 58017=
0193825830999992015031900004-05167-040667FM-12+029999999V0202701N001519999999N004000199+02811+01971101041ADDGA1011+008001081GE19MSL   +99999+99999GF101991011999008001999999KA1120M+03471KA2120N+00581MA1999999097681REMSYN07682583 32596 12703 10281 20197 39768 40104 81100 333 10347 29058 55062 58003=
0214825830999992015031912004-05167-040667FM-12+029999999V0200901N003119999999N050000199+02801+02151101071ADDGA1031+008001081GA2999+999999031GA3999+999999001GE19MSL   +99999+99999GF104991031999008001999999KA1240N+02361MA1999999097721MD1999999-0151REMSYN06482583 32599 40906 10280 20215 39772 40107 83241 333 20236 59015=
0193825830999992015032000004-05167-040667FM-12+029999999V0203601N002619999999N004000199+02821+02271100851ADDGA1031+008001081GE19MSL   +99999+99999GF103991031999008001999999KA1120M+03581KA2120N+00621MA1999999097511REMSYN07682583 32596 33605 10282 20227 39751 40085 83200 333 10358 29062 55085 59017=
0182825830999992015032012004-05167-040667FM-12+029999999V0203601N001019999999N050000199+02531+02251101081ADDGA1081+008001061GE19MSL   +99999+99999GF108991081999008001999999KA1240N+02331MA1999999097721MD1999999+0001REMSYN06482583 32599 83602 10253 20225 39772 40108 885// 333 20233 58000=
0193825830999992015032100004-05167-040667FM-12+029999999V0209999C000019999999N004000199+02671+02311100941ADDGA1051+008001061GE19MSL   +99999+99999GF105991051999008001999999KA1120M+03241KA2120N+00761MA1999999097571REMSYN07682583 32596 52700 10267 20231 39757 40094 85500 333 10324 29076 55014 58006=
0214825830999992015032112004-05167-040667FM-12+029999999V0203601N001519999999N050000199+02621+02271101161ADDGA1061+008001081GA2999+999999031GA3999+999999001GE19MSL   +99999+99999GF107991061999008001999999KA1240N+02361MA1999999097801MD1999999+0081REMSYN06482583 32599 73603 10262 20227 39780 40116 86841 333 20236 58008=
0227825830999992015032212004-05167-040667FM-12+029999999V0201401N001519999999N050000199+02471+02301101201ADDAA124026031AY161021AY261021GA1071+008001061GE19MSL   +99999+99999GF107991071999008001999999KA1240N+02111MA1999999097821MD1999999+0021MW1021REMSYN07682583 21599 71403 10247 20230 39782 40120 70266 875// 333 20211 58002 60264=
0238825830999992015032300004-05167-040667FM-12+029999999V0200501N001519999999N004000199+02431+02341101281ADDAA106001031AY161021AY261021GA1061+008001061GE19MSL   +99999+99999GF106991061999008001999999KA1120M+03251KA2120N+00861MA1999999097881MW1021REMSYN08882583 21596 60503 10243 20234 39788 40128 70266 86500 333 10325 29086 55036 58008 60011=
0243825830999992015032312004-05167-040667FM-12+029999999V0202701N000519999999N050000199+02331+02261101591ADDAA124010031AY161021AY261021GA1071+008001081GA2999+999999031GE19MSL   +99999+99999GF108991071999008001999999KA1240N+02201MA1999999098181MD1999999+0361MW1031REMSYN07682583 21599 82701 10233 20226 39818 40159 70366 8784/ 333 20220 58036 60104=
0193825830999992015032400004-05167-040667FM-12+029999999V0203601N001519999999N004000199+02491+02211101391ADDGA1061+008001081GE19MSL   +99999+99999GF106991061999008001999999KA1120M+03131KA2120N+00821MA1999999097991REMSYN07682583 32596 63603 10249 20221 39799 40139 86800 333 10313 29082 55037 58011=
0243825830999992015032412004-05167-040667FM-12+029999999V0201401N002619999999N050000199+02491+02171101561ADDAA124002031AY161021AY261021GA1071+008001081GA2999+999999031GE19MSL   +99999+99999GF108991071999008001999999KA1240N+02261MA1999999098161MD1999999-0021MW1021REMSYN07682583 21599 81405 10249 20217 39816 40156 70266 8783/ 333 20226 59002 60024=
0193825830999992015032500004-05167-040667FM-12+029999999V0202701N001019999999N004000199+02521+02291101311ADDGA1061+008001061GE19MSL   +99999+99999GF106991061999008001999999KA1120M+03041KA2120N+00761MA1999999097921REMSYN07682583 32596 62702 10252 20229 39792 40131 86500 333 10304 29076 55022 59007=
0198825830999992015032512004-05167-040667FM-12+029999999V0200501N001019999999N050000199+02511+02231101371ADDGA1041+008001081GA2999+999999001GE19MSL   +99999+99999GF106991041999008001999999KA1240N+02271MA1999999097981MD1999999-0181REMSYN06482583 32599 60502 10251 20223 39798 40137 84102 333 20227 59018=
0254825830999992015032600004-05167-040667FM-12+029999999V0202701N000519999999N004000199+02401+02301101241ADDAA106005031AY161021AY261021GA1041+008001081GA2999+999999001GE19MSL   +99999+99999GF106991041999008001999999KA1120M+02941KA2120N+00891MA1999999097851MW1021REMSYN08882583 21596 62701 10240 20230 39785 40124 70266 84202 333 10294 29089 55030 59007 60051=
0199825830999992015032612004-05167-040667FM-12+029999999V0203601N001019999999N050000199+02471+02171101331ADDAA124005031GA1081+008001081GE19MSL   +99999+99999GF108991081999008001999999KA1240N+02231MA1999999097931MD1999999-0051REMSYN07082583 22599 83602 10247 20217 39793 40133 888// 333 20223 59005 60054=
0238825830999992015032700004-05167-040667FM-12+029999999V0202301N000519999999N004000199+02321+02251101201ADDAA106026031AY161021AY261021GA1021+008001081GE19MSL   +99999+99999GF102991021999008001999999KA1120M+03071KA2120N+00871MA1999999097801MW1131REMSYN08882583 21596 22301 10232 20225 39780 40120 71366 82200 333 10307 29087 55034 59005 60261=
0215825830999992015032712004-05167-040667FM-12+029999999V0203601N002119999999N050000199+02511+02341101491ADDAA124026031GA1061+008001081GA2999+999999031GE19MSL   +99999+99999GF107991061999008001999999KA1240N+02261MA1999999098081MD1999999+0151REMSYN07082583 22599 73604 10251 20234 39808 40149 86840 333 20226 58015 60264=
0193825830999992015032800004-05167-040667FM-12+029999999V0202701N000519999999N004000199+02471+02301101391ADDGA1021+008001081GE19MSL   +99999+99999GF102991021999008001999999KA1120M+03041KA2120N+00841MA1999999098001REMSYN07682583 32596 22701 10247 20230 39800 40139 82100 333 10304 29084 55032 58020=
0198825830999992015032812004-05167-040667FM-12+029999999V0200901N002119999999N050000199+02621+02211101591ADDGA1021+008001081GA2999+999999031GE19MSL   +99999+99999GF104991021999008001999999KA1240N+02291MA1999999098191MD1999999+0111REMSYN06482583 32599 40904 10262 20221 39819 40159 82140 333 20229 58011=
0193825830999992015032900004-05167-040667FM-12+029999999V0203601N001519999999N050000199+02611+02181101171ADDGA1011+008001081GE19MSL   +99999+99999GF101991011999008001999999KA1120M+03161KA2120N+00761MA1999999097801REMSYN07682583 32599 13603 10261 20218 39780 40117 81100 333 10316 29076 55097 59020=
0182825830999992015032912004-05167-040667FM-12+029999999V0209999C000019999999N050000199+02631+02311101451ADDGA1051+008001081GE19MSL   +99999+99999GF105991051999008001999999KA1240N+02241MA1999999098071MD1999999-0121REMSYN06482583 32599 53600 10263 20231 39807 40145 85200 333 20224 59012=
0238825830999992015033000004-05167-040667FM-12+029999999V0201801N001519999999N004000199+02331+02291101321ADDAA106014031AY161021AY261021GA1081+008001081GE19MSL   +99999+99999GF108991081999008001999999KA1120M+03101KA2120N+00851MA1999999097931MW1211REMSYN08882583 21596 81803 10233 20229 39793 40132 72166 888// 333 10310 29085 55066 58013 60141=
0243825830999992015033012004-05167-040667FM-12+029999999V0201401N000519999999N050000199+02471+02341101331ADDAA124015031AY161021AY261021GA1061+008001081GA2999+999999031GE19MSL   +99999+99999GF107991061999008001999999KA1240N+02261MA1999999097931MD1999999-0141MW1021REMSYN07682583 21599 71401 10247 20234 39793 40133 70266 86830 333 20226 59014 60154=
0254825830999992015033100004-05167-040667FM-12+029999999V0203601N000519999999N004000199+02331+02241101251ADDAA106007031AY161021AY261021GA1061+008001061GA2999+999999001GE19MSL   +99999+99999GF108991061999008001999999KA1120M+03031KA2120N+00911MA1999999097851MW1021REMSYN08882583 21596 83601 10233 20224 39785 40125 70266 86502 333 10303 29091 55039 59008 60071=
0227825830999992015033112004-05167-040667FM-12+029999999V0200901N002619999999N050000199+02571+02421101341ADDAA124008031AY161021AY251021GA1081+008001081GE19MSL   +99999+99999GF108991081999008001999999KA1240N+02281MA1999999097941MD1999999+0011MW1021REMSYN07682583 21599 80905 10257 20242 39794 40134 70265 888// 333 20228 58001 60084=
0254825830999992015040100004-05167-040667FM-12+029999999V0203201N001519999999N004000199+02421+02321101151ADDAA106009031AY161021AY261021GA1061+008001071GA2999+999999001GE19MSL   +99999+99999GF108991061999008001999999KA1120M+03131KA2120N+00881MA1999999097771MW1021REMSYN08882583 21596 83203 10242 20232 39777 40115 70266 86702 333 10313 29088 55059 59008 60091=
0199825830999992015040112004-05167-040667FM-12+029999999V0200901N001519999999N050000199+02401+02301101391ADDAA124009031GA1081+008001081GE19MSL   +99999+99999GF108991081999008001999999KA1240N+02251MA1999999097991MD1999999+0051REMSYN07082583 22599 80903 10240 20230 39799 40139 888// 333 20225 58005 60094=
0238825830999992015040200004-05167-040667FM-12+029999999V0201801N001019999999N004000199+02321+02221101331ADDAA106008031AY161021AY261021GA1081+008001081GE19MSL   +99999+99999GF108991081999008001999999KA1120M+03261KA2120N+00881MA1999999097931MW1171REMSYN08882583 21596 81802 10232 20222 39793 40133 71766 888// 333 10326 29088 55051 58016 60081=
0199825830999992015040212004-05167-040667FM-12+029999999V0203201N001019999999N050000199+02471+02301101431ADDAA124008031GA1081+008001081GE19MSL   +99999+99999GF108991081999008001999999KA1240N+02251MA1999999098031MD1999999+0041REMSYN07082583 22599 83202 10247 20230 39803 40143 888// 333 20225 58004 60084=
0221825830999992015040300004-05167-040667FM-12+029999999V0203601N003119999999N004000199+02441+02151101261ADDAY121021AY221021GA1061+008001091GE19MSL   +99999+99999GF106991061999008001999999KA1120M+03201KA2120N+00821MA1999999097861MW1131REMSYN08282583 31596 63606 10244 20215 39786 40126 71322 86900 333 10320 29082 55057 59007=
0182825830999992015040312004-05167-040667FM-12+029999999V0203601N001019999999N050000199+02531+02311101241ADDGA1061+008001081GE19MSL   +99999+99999GF106991061999008001999999KA1240N+02231MA1999999097851MD1999999-0181REMSYN06482583 32599 63602 10253 20231 39785 40124 86200 333 20223 59018=
0254825830999992015040400004-05167-040667FM-12+029999999V0203601N002119999999N004000199+02441+02131101081ADDAA106000431AY161021AY261021GA1031+008001081GA2999+999999001GE19MSL   +99999+99999GF104991031999008001999999KA1120M+03211KA2120N+00801MA1999999097701MW1131REMSYN08882583 21596 43604 10244 20213 39770 40108 71366 83201 333 10321 29080 55075 59016 69941=
0199825830999992015040412004-05167-040667FM-12+029999999V0200901N001519999999N050000199+02541+02211101131ADDAA124000431GA1061+008001081GE19MSL   +99999+99999GF106991061999008001999999KA1240N+02321MA1999999097751MD1999999-0101REMSYN07082583 22599 60903 10254 20221 39775 40113 86200 333 20232 59010 69944=
0238825830999992015040500004-05167-040667FM-12+029999999V0201401N002119999999N004000199+02371+02171100941ADDAA106007031AY161021AY261021GA1041+008001081GE19MSL   +99999+99999GF104991041999008001999999KA1120M+03051KA2120N+00831MA1999999097561MW1011REMSYN08882583 21596 41404 10237 20217 39756 40094 70166 84200 333 10305 29083 55055 59014 60071=
0199825830999992015040512004-05167-040667FM-12+029999999V0200901N004119999999N050000199+02571+02121101151ADDAA124007031GA1041+008001081GE19MSL   +99999+99999GF104991041999008001999999KA1240N+02161MA1999999097771MD1999999+0021REMSYN07082583 22599 40908 10257 20212 39777 40115 84100 333 20216 58002 60074=
0193825830999992015040600004-05167-040667FM-12+029999999V0200501N002119999999N004000199+02601+02191100991ADDGA1021+008001081GE19MSL   +99999+99999GF102991021999008001999999KA1120M+03261KA2120N+00741MA1999999097621REMSYN07682583 32596 20504 10260 20219 39762 40099 82200 333 10326 29074 55090 58006=
0182825830999992015040612004-05167-040667FM-12+029999999V0200501N002619999999N050000199+02541+02291101241ADDGA1031+008001081GE19MSL   +99999+99999GF103991031999008001999999KA1240N+02161MA1999999097861MD1999999+0091REMSYN06482583 32599 30505 10254 20229 39786 40124 83200 333 20216 58009=
0193825830999992015040700004-05167-040667FM-12+029999999V0203601N004119999999N004000199+02621+02211101091ADDGA1011+008001081GE19MSL   +99999+99999GF101991011999008001999999KA1120M+03181KA2120N+00741MA1999999097721REMSYN07682583 32596 13608 10262 20221 39772 40109 81100 333 10318 29074 55100 58010=
0182825830999992015040712004-05167-040667FM-12+029999999V0203601N002119999999N050000199+02621+02271101261ADDGA1061+008001081GE19MSL   +99999+99999GF106991061999008001999999KA1240N+02331MA1999999097881MD1999999+0021REMSYN06482583 32599 63604 10262 20227 39788 40126 86200 333 20233 58002=
0193825830999992015040800004-05167-040667FM-12+029999999V0203601N002619999999N004000199+02631+02231101111ADDGA1081+008001081GE19MSL   +99999+99999GF108991081999008001999999KA1120M+03221KA2120N+00751MA1999999097741REMSYN07682583 32596 83605 10263 20223 39774 40111 888// 333 10322 29075 55089 58002=
0182825830999992015040812004-05167-040667FM-12+029999999V0201401N001019999999N050000199+02541+02331101301ADDGA1061+008001081GE19MSL   +99999+99999GF106991061999008001999999KA1240N+02301MA1999999097921MD1999999+0041REMSYN06482583 32599 61402 10254 20233 39792 40130 86200 333 20230 58004=
0227825830999992015040912004-05167-040667FM-12+029999999V0209999C000019999999N050000199+02471+02361101301ADDAA124022031AY191021AY291021GA1081+008001061GE19MSL   +99999+99999GF108991081999008001999999KA1240N+02191MA1999999097901MD1999999-0021MW1021REMSYN07682583 21599 80900 10247 20236 39790 40130 70299 885// 333 20219 59002 60224=
0238825830999992015041000004-05167-040667FM-12+029999999V0203601N001019999999N004000199+02471+02361101211ADDAA106014031AY161021AY261021GA1081+008001061GE19MSL   +99999+99999GF108991081999008001999999KA1120M+02941KA2120N+00921MA1999999097821MW1131REMSYN08882583 21596 83602 10247 20236 39782 40121 71366 885// 333 10294 29092 55023 58004 60141=
0215825830999992015041012004-05167-040667FM-12+029999999V0201401N001019999999N050000199+02531+02421101301ADDAA124014031GA1061+008001081GA2999+999999001GE19MSL   +99999+99999GF107991061999008001999999KA1240N+02361MA1999999097911MD1999999+0011REMSYN07082583 22599 71402 10253 20242 39791 40130 86801 333 20236 58001 60144=
0238825830999992015041100004-05167-040667FM-12+029999999V0203601N001019999999N004000199+02381+02311101261ADDAA106002031AY161021AY261021GA1061+008001081GE19MSL   +99999+99999GF106991061999008001999999KA1120M+03001KA2120N+00891MA1999999097871MW1021REMSYN08882583 21596 63602 10238 20231 39787 40126 70266 86800 333 10300 29089 55027 58005 60021=
0199825830999992015041112004-05167-040667FM-12+029999999V0201401N002119999999N050000199+02511+02401101371ADDAA124002031GA1031+008001081GE19MSL   +99999+99999GF108991031999008001999999KA1240N+02281MA1999999097971MD1999999+0061REMSYN07082583 22599 81404 10251 20240 39797 40137 83200 333 20228 58006 60024=
0238825830999992015041200004-05167-040667FM-12+029999999V0203601N001519999999N004000199+02391+02271101221ADDAA106000231AY161021AY261021GA1011+008001081GE19MSL   +99999+99999GF101991011999008001999999KA1120M+03131KA2120N+00881MA1999999097831MW1021REMSYN08882583 21596 13603 10239 20227 39783 40122 70266 81100 333 10313 29088 55058 59004 69921=
0199825830999992015041212004-05167-040667FM-12+029999999V0203201N000519999999N050000199+02421+02321102421ADDAA124000231GA1081+008001081GE19MSL   +99999+99999GF108991081999008001999999KA1240N+02231MA1999999097931MD1999999-0041REMSYN07082583 22599 83201 10242 20232 39793 40242 888// 333 20223 59004 69924=
0238825830999992015041300004-05167-040667FM-12+029999999V0203601N001519999999N004000199+02481+02411101181ADDAA106011031AY161021AY261021GA1061+004501071GE19MSL   +99999+99999GF108991061999004501999999KA1120M+02781KA2120N+00951MA1999999097791MW1031REMSYN08882583 21496 83603 10248 20241 39779 40118 70366 86600 333 10278 29095 55004 59004 60111=
0199825830999992015041312004-05167-040667FM-12+029999999V0200901N002119999999N050000199+02641+02411101381ADDAA124011031GA1061+008001081GE19MSL   +99999+99999GF106991061999008001999999KA1240N+02301MA1999999098001MD1999999+0071REMSYN07082583 22599 60904 10264 20241 39800 40138 86200 333 20230 58007 60114=
0238825830999992015041400004-05167-040667FM-12+029999999V0203201N001519999999N004000199+02401+02311101301ADDAA106002031AY161021AY261021GA1081+008001061GE19MSL   +99999+99999GF108991081999008001999999KA1120M+02981KA2120N+00901MA1999999097911MW1021REMSYN08882583 21596 83203 10240 20231 39791 40130 70266 884// 333 10298 29090 55042 58012 60021=
0199825830999992015041412004-05167-040667FM-12+029999999V0200901N002119999999N050000199+02571+02331101411ADDAA124002031GA1061+008001081GE19MSL   +99999+99999GF106991061999008001999999KA1240N+02281MA1999999098021MD1999999+0021REMSYN07082583 22599 60904 10257 20233 39802 40141 86200 333 20228 58002 60024=
0193825830999992015041500004-05167-040667FM-12+029999999V0201801N001019999999N004000199+02561+02271101191ADDGA1041+008001081GE19MSL   +99999+99999GF104991041999008001999999KA1120M+03161KA2120N+00791MA1999999097811REMSYN07682583 32596 41802 10256 20227 39781 40119 84200 333 10316 29079 55072 59010=
0182825830999992015041512004-05167-040667FM-12+029999999V0200901N003619999999N050000199+02631+02311101301ADDGA1061+008001081GE19MSL   +99999+99999GF106991061999008001999999KA1240N+02181MA1999999097921MD1999999-0101REMSYN06482583 32599 60907 10263 20231 39792 40130 86200 333 20218 59010=
0193825830999992015041600004-05167-040667FM-12+029999999V0201801N001019999999N004000199+02761+02341101091ADDGA1021+008001081GE19MSL   +99999+99999GF102991021999008001999999KA1120M+03201KA2120N+00741MA1999999097731REMSYN07682583 32596 21802 10276 20234 39773 40109 82100 333 10320 29074 55098 59008=
0182825830999992015041612004-05167-040667FM-12+029999999V0200901N003619999999N050000199+02711+02221101261ADDGA1032+008001081GE19MSL   +99999+99999GF102992032999008001999999KA1240N+02371MA1999999097901MD1999999-0021REMSYN06482583 32599 20907 10271 20222 39790 40126 83200 333 20237 59002=
0182825830999992015041712004-05167-040667FM-12+029999999V0200901N003119999999N050000199+02671+02241101271ADDGA1031+008001081GE19MSL   +99999+99999GF103991031999008001999999KA1240N+02221MA1999999097911MD1999999+0011REMSYN06482583 32599 30906 10267 20224 39791 40127 83200 333 20222 58001=
0193825830999992015041800004-05167-040667FM-12+029999999V0200501N001019999999N004000199+02521+02231101061ADDGA1021+008001081GE19MSL   +99999+99999GF102991021999008001999999KA1120M+03261KA2120N+00751MA1999999097691REMSYN07682583 32596 20502 10252 20223 39769 40106 82100 333 10326 29075 55093 58006=
0182825830999992015041812004-05167-040667FM-12+029999999V0200901N003119999999N050000199+02611+02351101261ADDGA1061+008001081GE19MSL   +99999+99999GF106991061999008001999999KA1240N+02241MA1999999097881MD1999999-0031REMSYN06482583 32599 60906 10261 20235 39788 40126 86200 333 20224 59003=
0193825830999992015041900004-05167-040667FM-12+029999999V0203601N002119999999N004000199+02611+02211101041ADDGA1021+008001081GE19MSL   +99999+99999GF102991021999008001999999KA1120M+03271KA2120N+00731MA1999999097671REMSYN07682583 32596 23604 10261 20221 39767 40104 82100 333 10327 29073 55101 59006=
0182825830999992015041912004-05167-040667FM-12+029999999V0200901N002119999999N050000199+02591+02331101171ADDGA1061+008001061GE19MSL   +99999+99999GF106991061999008001999999KA1240N+02271MA1999999097801MD1999999-0081REMSYN06482583 32599 60904 10259 20233 39780 40117 86500 333 20227 59008=
0214825830999992015042012004-05167-040667FM-12+029999999V0201401N002119999999N050000199+02561+02311101241ADDGA1071+008001081GA2999+999999031GA3999+999999001GE19MSL   +99999+99999GF108991071999008001999999KA1240N+02231MA1999999097861MD1999999+0061REMSYN06482583 32599 81404 10256 20231 39786 40124 87841 333 20223 58006=
0182825830999992015042112004-05167-040667FM-12+029999999V0200501N002619999999N050000199+02641+02141101251ADDGA1061+008001081GE19MSL   +99999+99999GF106991061999008001999999KA1240N+02261MA1999999097871MD1999999+0011REMSYN06482583 32599 60505 10264 20214 39787 40125 86800 333 20226 58001=
0221825830999992015042200004-05167-040667FM-12+029999999V0203201N001019999999N004000199+02371+02131101131ADDAY111021AY211021GA1021+008001081GE19MSL   +99999+99999GF102991021999008001999999KA1120M+03231KA2120N+00771MA1999999097751MW1131REMSYN08282583 31596 23202 10237 20213 39775 40113 71311 82200 333 10323 29077 55095 58000=
0182825830999992015042212004-05167-040667FM-12+029999999V0200501N002119999999N050000199+02571+02251101261ADDGA1051+008001081GE19MSL   +99999+99999GF106991051999008001999999KA1240N+02281MA1999999097861MD1999999-0011REMSYN06482583 32599 60504 10257 20225 39786 40126 85200 333 20228 59001=
0238825830999992015042300004-05167-040667FM-12+029999999V0203601N001519999999N004000199+02411+02231101271ADDAA106004031AY161021AY261021GA1061+008001081GE19MSL   +99999+99999GF106991061999008001999999KA1120M+03321KA2120N+00811MA1999999097881MW1021REMSYN08882583 21596 63603 10241 20223 39788 40127 70266 86800 333 10332 29081 55087 58013 60041=
0199825830999992015042312004-05167-040667FM-12+029999999V0200501N004619999999N050000199+02731+02301101281ADDAA124004031GA1051+008001081GE19MSL   +99999+99999GF107991051999008001999999KA1240N+02271MA1999999097901MD1999999+0041REMSYN07082583 22599 70509 10273 20230 39790 40128 85200 333 20227 58004 60044=
0238825830999992015042400004-05167-040667FM-12+029999999V0209999C000019999999N004000199+02421+02331101191ADDAA106006031AY161021AY261021GA1041+008001061GE19MSL   +99999+99999GF104991041999008001999999KA1120M+03291KA2120N+00801MA1999999097821MW1021REMSYN08882583 21596 42300 10242 20233 39782 40119 70266 84500 333 10329 29080 55076 59006 60061=
0215825830999992015042412004-05167-040667FM-12+029999999V0200901N002619999999N050000199+02571+02331101401ADDAA124006031GA1021+008001081GA2999+999999031GE19MSL   +99999+99999GF103991021999008001999999KA1240N+02201MA1999999098011MD1999999+0111REMSYN07082583 22599 30905 10257 20233 39801 40140 82230 333 20220 58011 60064=
0238825830999992015042500004-05167-040667FM-12+029999999V0209999C000019999999N004000199+02291+02251101331ADDAA106038031AY161021AY261021GA1081+004501081GE19MSL   +99999+99999GF108991081999004501999999KA1120M+03171KA2120N+00921MA1999999097931MW1021REMSYN08882583 21496 83200 10229 20225 39793 40133 70266 888// 333 10317 29092 55072 58011 60381=
0215825830999992015042512004-05167-040667FM-12+029999999V0200901N004619999999N050000199+02651+02291101481ADDAA124038031GA1031+008001081GA2999+999999031GE19MSL   +99999+99999GF104991031999008001999999KA1240N+02201MA1999999098081MD1999999+0071REMSYN07082583 22599 40909 10265 20229 39808 40148 83240 333 20220 58007 60384=
0238825830999992015042600004-05167-040667FM-12+029999999V0200501N001519999999N004000199+02381+02171101221ADDAA106005031AY161021AY261021GA1021+008001081GE19MSL   +99999+99999GF102991021999008001999999KA1120M+03141KA2120N+00801MA1999999097841MW1011REMSYN08882583 21596 20503 10238 20217 39784 40122 70166 82200 333 10314 29080 55083 59009 60051=
0199825830999992015042612004-05167-040667FM-12+029999999V0200901N004619999999N050000199+02671+02311101321ADDAA124005031GA1061+008001061GE19MSL   +99999+99999GF106991061999008001999999KA1240N+02151MA1999999097931MD1999999-0151REMSYN07082583 22599 60909 10267 20231 39793 40132 86500 333 20215 59015 60054=
0123825830999992015042700004-05167-040667FM-12+029999999V0200901N001519999999N004000199+02511+02091101191ADDKA1120M+03221KA2120N+00721MA1999999097821REMSYN07082583 32996 00903 10251 20209 39782 40119 333 10322 29072 55106 58002=
0182825830999992015042712004-05167-040667FM-12+029999999V0209999C000019999999N050000199+02611+02271101281ADDGA1032+008001081GE19MSL   +99999+99999GF102992032999008001999999KA1240N+02051MA1999999097901MD1999999-0031REMSYN06482583 32599 20900 10261 20227 39790 40128 83200 333 20205 59003=
0193825830999992015042800004-05167-040667FM-12+029999999V0200501N001519999999N004000199+02611+02141101011ADDGA1011+008001081GE19MSL   +99999+99999GF101991011999008001999999KA1120M+03271KA2120N+00701MA1999999097651REMSYN07682583 32596 10503 10261 20214 39765 40101 81100 333 10327 29070 55105 59017=
0182825830999992015042812004-05167-040667FM-12+029999999V0200901N005119999999N050000199+02711+02151101171ADDGA1011+008001081GE19MSL   +99999+99999GF101991011999008001999999KA1240N+02171MA1999999097811MD1999999-0091REMSYN06482583 32599 10910 10271 20215 39781 40117 81100 333 20217 59009=
0123825830999992015042900004-05167-040667FM-12+029999999V0200501N001519999999N004000199+02561+02081100991ADDKA1120M+03241KA2120N+00671MA1999999097631REMSYN07082583 32996 00503 10256 20208 39763 40099 333 10324 29067 55093 59002=
0182825830999992015042912004-05167-040667FM-12+029999999V0200901N006219999999N050000199+02731+02121101181ADDGA1021+008001081GE19MSL   +99999+99999GF102991021999008001999999KA1240N+02141MA1999999097821MD1999999+0011REMSYN06482583 32599 20912 10273 20212 39782 40118 82100 333 20214 58001=
0193825830999992015043000004-05167-040667FM-12+029999999V0203601N002119999999N004000199+02691+02111101041ADDGA1021+017501031GE19MSL   +99999+99999GF102991021999017501999999KA1120M+03271KA2120N+00651MA1999999097681REMSYN07682583 32796 23604 10269 20211 39768 40104 82030 333 10327 29065 55090 58005=
0182825830999992015043012004-05167-040667FM-12+029999999V0200901N002119999999N050000199+02581+02251101171ADDGA1031+008001081GE19MSL   +99999+99999GF104991031999008001999999KA1240N+02081MA1999999097811MD1999999-0011REMSYN06482583 32599 40904 10258 20225 39781 40117 83200 333 20208 59001=
0212825830999992015050100004-05167-040667FM-12+029999999V0200501N000519999999N004000199+02631+02311101041ADDGA1999+999999001GE19MSL   +99999+99999GF101991001999999999999999KA1120M+03271KA2120N+00751MA1999999097671REMSYN07682583 32996 10501 10263 20231 39767 40104 80001 333 10327 29075 55071 59001=EQDQ01    003SCCGA1
0155825830999992015050112004-05167-040667FM-12+029999999V0200901N002619999999N050000199+02581+02231101171ADDGA1061+008001081GE19MSL   +99999+99999GF106991061999008001999999MA1999999097801REMSYN06482583 32599 60905 10258 20223 39780 40117 86200 333 2//// 5////=
0182825830999992015050412004-05167-040667FM-12+029999999V0200901N002119999999N050000199+02691+02201101361ADDGA1051+008001081GE19MSL   +99999+99999GF106991051999008001999999KA1240N+02231MA1999999097991MD1999999+0181REMSYN06482583 32599 60904 10269 20220 39799 40136 85200 333 20223 58018=
0193825830999992015050500004-05167-040667FM-12+029999999V0201401N002619999999N004000199+02691+02111101201ADDGA1021+008001081GE19MSL   +99999+99999GF102991021999008001999999KA1120M+03331KA2120N+00701MA1999999097841REMSYN07682583 32596 21405 10269 20211 39784 40120 82100 333 10333 29070 55076 59002=
0182825830999992015050512004-05167-040667FM-12+029999999V0200901N002119999999N050000199+02731+02151101401ADDGA1041+008001081GE19MSL   +99999+99999GF104991041999008001999999KA1240N+02291MA1999999098031MD1999999+0041REMSYN06482583 32599 40904 10273 20215 39803 40140 84200 333 20229 58004=
0182825830999992015050612004-05167-040667FM-12+029999999V0201801N000519999999N050000199+02541+02211101391ADDGA1061+008001081GE19MSL   +99999+99999GF106991061999008001999999KA1240N+02141MA1999999098011MD1999999-0021REMSYN06482583 32599 61801 10254 20221 39801 40139 86200 333 20214 59002=
0193825830999992015050700004-05167-040667FM-12+029999999V0203601N003119999999N004000199+02751+02191101061ADDGA1061+008001081GE19MSL   +99999+99999GF106991061999008001999999KA1120M+03401KA2120N+00661MA1999999097701REMSYN07682583 32596 63606 10275 20219 39770 40106 86800 333 10340 29066 55077 59009=
0182825830999992015050712004-05167-040667FM-12+029999999V0200501N001019999999N050000199+02631+02331101251ADDGA1061+008001081GE19MSL   +99999+99999GF106991061999008001999999KA1240N+02241MA1999999097891MD1999999-0121REMSYN06482583 32599 60502 10263 20233 39789 40125 86200 333 20224 59012=
0227825830999992015050812004-05167-040667FM-12+029999999V0200901N002119999999N050000199+02471+02341101471ADDAA124013031AY191021AY291021GA1061+008001081GE19MSL   +99999+99999GF108991061999008001999999KA1240N+02201MA1999999098051MD1999999+0161MW1031REMSYN07682583 21599 80904 10247 20234 39805 40147 70399 86200 333 20220 58016 60134=
0193825830999992015050900004-05167-040667FM-12+029999999V0203601N003119999999N004000199+02561+02251101321ADDGA1021+008001081GE19MSL   +99999+99999GF102991021999008001999999KA1120M+03231KA2120N+00791MA1999999097931REMSYN07682583 32596 23606 10256 20225 39793 40132 82200 333 10323 29079 55063 58002=
0227825830999992015050912004-05167-040667FM-12+029999999V0200901N004619999999N002000199+02571+02331101461ADDAA124003031AY151021AY221021GA1051+004501081GE19MSL   +99999+99999GF108991051999004501999999KA1240N+02271MA1999999098051MD1999999+0001MW1631REMSYN07682583 21495 80909 10257 20233 39805 40146 76352 85200 333 20227 58000 60034=
0193825830999992015051000004-05167-040667FM-12+029999999V0200901N001019999999N004000199+02571+02101101161ADDGA1021+008001081GE19MSL   +99999+99999GF102991021999008001999999KA1120M+03241KA2120N+00711MA1999999097781REMSYN07682583 32596 20902 10257 20210 39778 40116 82100 333 10324 29071 55070 59015=
0182825830999992015051012004-05167-040667FM-12+029999999V0200901N002619999999N050000199+02601+02211101311ADDGA1061+008001081GE19MSL   +99999+99999GF106991061999008001999999KA1240N+02201MA1999999097931MD1999999-0121REMSYN06482583 32599 60905 10260 20221 39793 40131 86200 333 20220 59012=
0193825830999992015051100004-05167-040667FM-12+029999999V0203601N001519999999N004000199+02701+02171101131ADDGA1011+008001081GE19MSL   +99999+99999GF101991011999008001999999KA1120M+03361KA2120N+00681MA1999999097771REMSYN07682583 32596 13603 10270 20217 39777 40113 81100 333 10336 29068 55090 59001=
0182825830999992015051112004-05167-040667FM-12+029999999V0200901N003619999999N050000199+02771+02011101211ADDGA1061+008001081GE19MSL   +99999+99999GF106991061999008001999999KA1240N+02261MA1999999097911MD1999999-0051REMSYN06482583 32599 60907 10277 20201 39791 40121 86200 333 20226 59005=
0123825830999992015051200004-05167-040667FM-12+029999999V0200901N001519999999N004000199+02601+02311101081ADDKA1120M+03231KA2120N+00721MA1999999097721REMSYN07082583 32996 00903 10260 20231 39772 40108 333 10323 29072 55083 59005=
0182825830999992015051212004-05167-040667FM-12+029999999V0200901N002119999999N050000199+02581+02171101351ADDGA1051+008001081GE19MSL   +99999+99999GF106991051999008001999999KA1240N+02311MA1999999097971MD1999999+0061REMSYN06482583 32599 60904 10258 20217 39797 40135 85200 333 20231 58006=
0193825830999992015051300004-05167-040667FM-12+029999999V0200501N002119999999N004000199+02681+02181101131ADDGA1011+008001081GE19MSL   +99999+99999GF101991011999008001999999KA1120M+03411KA2120N+00681MA1999999097771REMSYN07682583 32596 10504 10268 20218 39777 40113 81100 333 10341 29068 55093 58005=
0182825830999992015051312004-05167-040667FM-12+029999999V0200901N003119999999N050000199+02611+02141101291ADDGA1041+008001081GE19MSL   +99999+99999GF105991041999008001999999KA1240N+02251MA1999999097921MD1999999-0051REMSYN06482583 32599 50906 10261 20214 39792 40129 84200 333 20225 59005=
0193825830999992015051400004-05167-040667FM-12+029999999V0202301N001019999999N004000199+02771+02301101091ADDGA1011+008001081GE19MSL   +99999+99999GF101991011999008001999999KA1120M+03451KA2120N+00671MA1999999097731REMSYN07682583 32596 12302 10277 20230 39773 40109 81100 333 10345 29067 55093 59004=
0182825830999992015051412004-05167-040667FM-12+029999999V0200901N001019999999N050000199+02671+02201101271ADDGA1041+008001081GE19MSL   +99999+99999GF104991041999008001999999KA1240N+02091MA1999999097911MD1999999-0011REMSYN06482583 32599 40902 10267 20220 39791 40127 84200 333 20209 59001=
0193825830999992015051500004-05167-040667FM-12+029999999V0201401N002619999999N004000199+02671+01991101081ADDGA1011+008001081GE19MSL   +99999+99999GF101991011999008001999999KA1120M+03341KA2120N+00631MA1999999097721REMSYN07682583 32596 11405 10267 20199 39772 40108 81100 333 10334 29063 55089 59001=
0182825830999992015051512004-05167-040667FM-12+029999999V0200901N005119999999N050000199+02801+02061101281ADDGA1032+008001081GE19MSL   +99999+99999GF102992032999008001999999KA1240N+02161MA1999999097921MD1999999+0011REMSYN06482583 32599 20910 10280 20206 39792 40128 83200 333 20216 58001=
0123825830999992015051600004-05167-040667FM-12+029999999V0202701N001519999999N004000199+02581+01901101121ADDKA1120M+03471KA2120N+00581MA1999999097761REMSYN07082583 32996 02703 10258 20190 39776 40112 333 10347 29058 55108 58004=
0227825830999992015051612004-05167-040667FM-12+029999999V0201401N002119999999N050000199+02551+02231101451ADDAA124000131AY161021AY261021GA1051+008001081GE19MSL   +99999+99999GF105991051999008001999999KA1240N+02521MA1999999098061MD1999999+0141MW1011REMSYN07682583 21599 51404 10255 20223 39806 40145 70166 85200 333 20252 58014 69914=
0193825830999992015051700004-05167-040667FM-12+029999999V0202301N001519999999N004000199+02571+01901101231ADDGA1011+008001081GE19MSL   +99999+99999GF101991011999008001999999KA1120M+03441KA2120N+00631MA1999999097851REMSYN07682583 32596 12303 10257 20190 39785 40123 81100 333 10344 29063 55080 58009=
0182825830999992015051712004-05167-040667FM-12+029999999V0200901N002619999999N050000199+02711+02151101411ADDGA1011+008001081GE19MSL   +99999+99999GF101991011999008001999999KA1240N+01971MA1999999098031MD1999999-0031REMSYN06482583 32599 10905 10271 20215 39803 40141 81100 333 20197 59003=
0193825830999992015051800004-05167-040667FM-12+029999999V0209999C000019999999N004000199+02731+02381101241ADDGA1011+008001081GE19MSL   +99999+99999GF101991011999008001999999KA1120M+03421KA2120N+00711MA1999999097881REMSYN07682583 32596 13200 10273 20238 39788 40124 81100 333 10342 29071 55070 58004=
0198825830999992015051812004-05167-040667FM-12+029999999V0201401N001019999999N050000199+02541+02231101351ADDGA1062+008001061GA2999+999999001GE19MSL   +99999+99999GF102992062999008001999999KA1240N+02141MA1999999097971MD1999999-0061REMSYN06482583 32599 21402 10254 20223 39797 40135 86501 333 20214 59006=
0123825830999992015051900004-05167-040667FM-12+029999999V0209999C000019999999N004000199+02651+01951101151ADDKA1120M+03501KA2120N+00591MA1999999097781REMSYN07082583 32996 01800 10265 20195 39778 40115 333 10350 29059 55061 59010=
0182825830999992015051912004-05167-040667FM-12+029999999V0201401N002119999999N050000199+02701+02081101361ADDGA1051+008001081GE19MSL   +99999+99999GF106991051999008001999999KA1240N+02151MA1999999097991MD1999999+0021REMSYN06482583 32599 61404 10270 20208 39799 40136 85200 333 20215 58002=
0238825830999992015052000004-05167-040667FM-12+029999999V0201801N001019999999N004000199+02841+02071101121ADDAA106000231AY161021AY261021GA1081+008001081GE19MSL   +99999+99999GF108991081999008001999999KA1120M+03471KA2120N+00601MA1999999097761MW1021REMSYN08882583 21596 81802 10284 20207 39776 40112 70266 888// 333 10347 29060 55085 59002 69921=
0199825830999992015052012004-05167-040667FM-12+029999999V0200901N002119999999N050000199+02721+02151101391ADDAA124000231GA1061+008001081GE19MSL   +99999+99999GF106991061999008001999999KA1240N+02361MA1999999098031MD1999999+0041REMSYN07082583 22599 60904 10272 20215 39803 40139 86200 333 20236 58004 69924=
0193825830999992015052100004-05167-040667FM-12+029999999V0201801N001519999999N004000199+02671+02131101151ADDGA1011+008001081GE19MSL   +99999+99999GF101991011999008001999999KA1120M+03321KA2120N+00691MA1999999097791REMSYN07682583 32596 11803 10267 20213 39779 40115 81100 333 10332 29069 55082 59003=
0227825830999992015052112004-05167-040667FM-12+029999999V0201401N004619999999N050000199+02801+02151101441ADDAA124000431AY161021AY261021GA1061+008001081GE19MSL   +99999+99999GF106991061999008001999999KA1240N+02411MA1999999098081MD1999999+0051MW1011REMSYN07682583 21599 61409 10280 20215 39808 40144 70166 86200 333 20241 58005 69944=
0193825830999992015052200004-05167-040667FM-12+029999999V0201801N001019999999N004000199+02631+02161101291ADDGA1031+008001081GE19MSL   +99999+99999GF108991031999008001999999KA1120M+03171KA2120N+00701MA1999999097931REMSYN07682583 32596 81802 10263 20216 39793 40129 83200 333 10317 29070 55055 58014=
0227825830999992015052212004-05167-040667FM-12+029999999V0201401N001019999999N050000199+02441+02271101551ADDAA124000531AY161021AY251021GA1071+008001061GE19MSL   +99999+99999GF108991071999008001999999KA1240N+02281MA1999999098151MD1999999+0071MW1021REMSYN07682583 21599 81402 10244 20227 39815 40155 70265 87500 333 20228 58007 69954=
0238825830999992015052300004-05167-040667FM-12+029999999V0201801N001019999999N004000199+02501+02271101341ADDAA106000531AY161021AY261021GA1021+008001081GE19MSL   +99999+99999GF102991021999008001999999KA1120M+03171KA2120N+00871MA1999999097941MW1011REMSYN08882583 21596 21802 10250 20227 39794 40134 70166 82100 333 10317 29087 55032 58001 69951=
0199825830999992015052312004-05167-040667FM-12+029999999V0200901N002119999999N050000199+02671+02161101421ADDAA124000531GA1051+008001081GE19MSL   +99999+99999GF108991051999008001999999KA1240N+02181MA1999999098041MD1999999-0111REMSYN07082583 22599 80904 10267 20216 39804 40142 852// 333 20218 59011 69954=
0238825830999992015052400004-05167-040667FM-12+029999999V0201401N001519999999N004000199+02671+02111101201ADDAA106000531AY161021AY261021GA1041+008001061GE19MSL   +99999+99999GF104991041999008001999999KA1120M+03281KA2120N+00661MA1999999097841MW1021REMSYN08882583 21596 41403 10267 20211 39784 40120 70266 84500 333 10328 29066 55073 58010 69951=
0199825830999992015052412004-05167-040667FM-12+029999999V0201801N003119999999N050000199+02551+02251101361ADDAA124000531GA1081+008001081GE19MSL   +99999+99999GF108991081999008001999999KA1240N+02371MA1999999097991MD1999999-0051REMSYN07082583 22599 81806 10255 20225 39799 40136 888// 333 20237 59005 69954=
0193825830999992015052500004-05167-040667FM-12+029999999V0201801N001519999999N004000199+02621+02071101161ADDGA1021+008001081GE19MSL   +99999+99999GF102991021999008001999999KA1120M+03301KA2120N+00701MA1999999097791REMSYN07682583 32596 21803 10262 20207 39779 40116 82100 333 10330 29070 55060 59005=
0182825830999992015052512004-05167-040667FM-12+029999999V0200901N005719999999N050000199+02871+02161101251ADDGA1061+008001081GE19MSL   +99999+99999GF106991061999008001999999KA1240N+02221MA1999999097891MD1999999-0101REMSYN06482583 32599 60911 10287 20216 39789 40125 86200 333 20222 59010=
0193825830999992015052600004-05167-040667FM-12+029999999V0201801N001519999999N004000199+02641+02071101081ADDGA1021+008001081GE19MSL   +99999+99999GF102991021999008001999999KA1120M+03421KA2120N+00641MA1999999097021REMSYN07682583 32596 21803 10264 20207 39702 40108 82100 333 10342 29064 55094 59007=
0227825830999992015052612004-05167-040667FM-12+029999999V0200901N002119999999N050000199+02741+02241101301ADDAA124000131AY161021AY261021GA1061+008001081GE19MSL   +99999+99999GF106991061999008001999999KA1240N+02231MA1999999097941MD1999999+0051MW1021REMSYN07682583 21599 60904 10274 20224 39794 40130 70266 86200 333 20223 58005 69914=
0238825830999992015052700004-05167-040667FM-12+029999999V0203601N002619999999N004000199+02561+02151101101ADDAA106001031AY161021AY261021GA1011+008001081GE19MSL   +99999+99999GF101991011999008001999999KA1120M+03381KA2120N+00721MA1999999097741MW1011REMSYN08882583 21596 13605 10256 20215 39774 40110 70166 81100 333 10338 29072 55054 58002 60011=
0199825830999992015052712004-05167-040667FM-12+029999999V0200901N003619999999N050000199+02711+02121101291ADDAA124001031GA1061+008001081GE19MSL   +99999+99999GF107991061999008001999999KA1240N+02321MA1999999097921MD1999999-0021REMSYN07082583 22599 70907 10271 20212 39792 40129 86200 333 20232 59002 60014=
0193825830999992015052800004-05167-040667FM-12+029999999V0201801N001519999999N004000199+02651+02041101191ADDGA1011+008001081GE19MSL   +99999+99999GF101991011999008001999999KA1120M+03471KA2120N+00621MA1999999097831REMSYN07682583 32596 11803 10265 20204 39783 40119 81100 333 10347 29062 55079 58009=
0182825830999992015052812004-05167-040667FM-12+029999999V0200901N002619999999N050000199+02811+02121101311ADDGA1071+008001061GE19MSL   +99999+99999GF107991071999008001999999KA1240N+02191MA1999999097951MD1999999+0031REMSYN06482583 32599 70905 10281 20212 39795 40131 87500 333 20219 58003=
0212825830999992015052900004-05167-040667FM-12+029999999V0201401N002119999999N004000199+02691+01941101031ADDGA1999+999999001GE19MSL   +99999+99999GF101991001999999999999999KA1120M+03331KA2120N+00601MA1999999097671REMSYN07682583 32996 11404 10269 20194 39767 40103 80001 333 10333 29060 55059 59016=EQDQ01    003SCCGA1
0182825830999992015052912004-05167-040667FM-12+029999999V0200901N001519999999N050000199+02641+02161101241ADDGA1081+008001061GE19MSL   +99999+99999GF108991081999008001999999KA1240N+02071MA1999999097871MD1999999-0081REMSYN06482583 32599 80903 10264 20216 39787 40124 885// 333 20207 59008=
0123825830999992015053000004-05167-040667FM-12+029999999V0201801N002119999999N999999999+02611+02101101011ADDKA1120M+03241KA2120N+00681MA1999999097641REMSYN07082583 329// 01804 10261 20210 39764 40101 333 10324 29068 55055 59003=
0182825830999992015053012004-05167-040667FM-12+029999999V0201401N002619999999N004000199+02721+02081101231ADDGA1031+008001081GE19MSL   +99999+99999GF103991031999008001999999KA1240N+02091MA1999999097861MD1999999-0011REMSYN06482583 32596 31405 10272 20208 39786 40123 83200 333 20209 59001=
0227825830999992015053112004-05167-040667FM-12+029999999V0201401N005119999999N050000199+02821+01971101261ADDAA124000331AY161021AY261021GA1051+008001081GE19MSL   +99999+99999GF105991051999008001999999KA1240N+02341MA1999999097911MD1999999+0051MW1021REMSYN07682583 21599 51410 10282 20197 39791 40126 70266 85200 333 20234 58005 69934=
0123825830999992015060100004-05167-040667FM-12+029999999V0201801N001519999999N004000199+02701+01941101181ADDKA1120M+03531KA2120N+00541MA1999999097821REMSYN07082583 32996 01803 10270 20194 39782 40118 333 10353 29054 55086 58012=
0198825830999992015060112004-05167-040667FM-12+029999999V0200901N004619999999N050000199+02871+02161101411ADDGA1021+008001081GA2999+999999001GE19MSL   +99999+99999GF103991021999008001999999KA1240N+02371MA1999999098051MD1999999+0141REMSYN06482583 32599 30909 10287 20216 39805 40141 82101 333 20237 58014=
0182825830999992015060212004-05167-040667FM-12+029999999V0200901N002119999999N050000199+02731+02101101351ADDGA1051+008001081GE19MSL   +99999+99999GF105991051999008001999999KA1240N+02001MA1999999097991MD1999999-0061REMSYN06482583 32599 50904 10273 20210 39799 40135 85200 333 20200 59006=
0193825830999992015060300004-05167-040667FM-12+029999999V0200901N001519999999N004000199+02811+01941101131ADDGA1021+008001081GE19MSL   +99999+99999GF102991021999008001999999KA1120M+03481KA2120N+00581MA1999999097771REMSYN07682583 32596 20903 10281 20194 39777 40113 82100 333 10348 29058 55090 59001=
0182825830999992015060312004-05167-040667FM-12+029999999V0200901N001519999999N050000199+02641+02201101401ADDGA1051+008001081GE19MSL   +99999+99999GF105991051999008001999999KA1240N+02331MA1999999098031MD1999999+0041REMSYN06482583 32599 50903 10264 20220 39803 40140 85200 333 20233 58004=
0212825830999992015060400004-05167-040667FM-12+029999999V0202301N000519999999N004000199+02441+02011101181ADDGA1999+999999001GE19MSL   +99999+99999GF101991001999999999999999KA1120M+03341KA2120N+00701MA1999999097801REMSYN07682583 32996 12301 10244 20201 39780 40118 80001 333 10334 29070 55073 58003=EQDQ01    003SCCGA1
0182825830999992015060412004-05167-040667FM-12+029999999V0200501N001019999999N050000199+02431+02151101481ADDGA1081+008001061GE19MSL   +99999+99999GF108991081999008001999999KA1240N+02161MA1999999098081MD1999999+0051REMSYN06482583 32599 80502 10243 20215 39808 40148 885// 333 20216 58005=
0238825830999992015060500004-05167-040667FM-12+029999999V0201801N003119999999N004000199+02461+02191101311ADDAA106000731AY161021AY261021GA1081+008001081GE19MSL   +99999+99999GF108991081999008001999999KA1120M+03151KA2120N+00771MA1999999097911MW1021REMSYN08882583 21596 81806 10246 20219 39791 40131 70266 888// 333 10315 29077 55016 58011 69971=
0227825830999992015060512004-05167-040667FM-12+029999999V0201401N004119999999N050000199+02511+02211101521ADDAA124014031AY161021AY251021GA1061+008001081GE19MSL   +99999+99999GF107991061999008001999999KA1240N+02231MA1999999098131MD1999999+0051MW1021REMSYN07682583 21599 71408 10251 20221 39813 40152 70265 86200 333 20223 58005 60144=
0193825830999992015060600004-05167-040667FM-12+029999999V0201401N001519999999N004000199+02621+02031101211ADDGA1061+008001061GE19MSL   +99999+99999GF106991061999008001999999KA1120M+03281KA2120N+00671MA1999999097831REMSYN07682583 32596 61403 10262 20203 39783 40121 86500 333 10328 29067 55079 59008=
0227825830999992015060612004-05167-040667FM-12+029999999V0201801N002119999999N001000199+02361+02191101301ADDAA124000631AY121021AY221021GA1051+004501999GE19MSL   +99999+99999GF108991051999004501999999KA1240N+02241MA1999999097911MD1999999-0221MW1621REMSYN07682583 21494 81804 10236 20219 39791 40130 76222 85/// 333 20224 59022 69964=
0238825830999992015060700004-05167-040667FM-12+029999999V0201401N001519999999N004000199+02561+02061101091ADDAA106000431AY161021AY261021GA1021+008001081GE19MSL   +99999+99999GF102991021999008001999999KA1120M+03291KA2120N+00731MA1999999097711MW1021REMSYN08882583 21596 21403 10256 20206 39771 40109 70266 82100 333 10329 29073 55042 59012 69941=
0199825830999992015060712004-05167-040667FM-12+029999999V0201401N002119999999N050000199+02571+02211101331ADDAA124000431GA1061+008001081GE19MSL   +99999+99999GF106991061999008001999999KA1240N+02251MA1999999097951MD1999999+0041REMSYN07082583 22599 61404 10257 20221 39795 40133 86100 333 20225 58004 69944=
0193825830999992015060800004-05167-040667FM-12+029999999V0201401N001019999999N004000199+02571+01991101231ADDGA1011+008001081GE19MSL   +99999+99999GF101991011999008001999999KA1120M+03371KA2120N+00671MA1999999097851REMSYN07682583 32596 11402 10257 20199 39785 40123 81100 333 10337 29067 55077 58014=
0227825830999992015060812004-05167-040667FM-12+029999999V0201801N002119999999N050000199+02251+02121101411ADDAA124023031AY161021AY261021GA1081+008001061GE19MSL   +99999+99999GF108991081999008001999999KA1240N+02121MA1999999098011MD1999999+0061MW1031REMSYN07682583 21599 81804 10225 20212 39801 40141 70366 885// 333 20212 58006 60234=
0238825830999992015060900004-05167-040667FM-12+029999999V0201401N001019999999N004000199+02401+02111101311ADDAA106000331AY161021AY261021GA1032+008001081GE19MSL   +99999+99999GF102992032999008001999999KA1120M+03031KA2120N+00791MA1999999097911MW1011REMSYN08882583 21596 21402 10240 20211 39791 40131 70166 83200 333 10303 29079 55039 58006 69931=
0215825830999992015060912004-05167-040667FM-12+029999999V0201401N005119999999N050000199+02581+02151101331ADDAA124000331GA1051+008001081GA2999+999999001GE19MSL   +99999+99999GF106991051999008001999999KA1240N+02201MA1999999097941MD1999999-0071REMSYN07082583 22599 61410 10258 20215 39794 40133 85201 333 20220 59007 69934=
0193825830999992015061000004-05167-040667FM-12+029999999V0201401N001519999999N004000199+02571+02081101241ADDGA1021+008001081GE19MSL   +99999+99999GF102991021999008001999999KA1120M+03171KA2120N+00691MA1999999097861REMSYN07682583 32596 21403 10257 20208 39786 40124 82100 333 10317 29069 55066 59005=
0198825830999992015061012004-05167-040667FM-12+029999999V0201401N003119999999N050000199+02761+02041101281ADDGA1011+008001081GA2999+999999001GE19MSL   +99999+99999GF102991011999008001999999KA1240N+02061MA1999999097911MD1999999-0031REMSYN06482583 32599 21406 10276 20204 39791 40128 81101 333 20206 59003=
0193825830999992015061100004-05167-040667FM-12+029999999V0201401N001519999999N004000199+02761+02041101171ADDGA1021+008001081GE19MSL   +99999+99999GF102991021999008001999999KA1120M+03301KA2120N+00621MA1999999097811REMSYN07682583 32596 21403 10276 20204 39781 40117 82100 333 10330 29062 55076 59005=
0198825830999992015061112004-05167-040667FM-12+029999999V0201801N002619999999N050000199+02601+02191101271ADDGA1031+008001081GA2999+999999001GE19MSL   +99999+99999GF104991031999008001999999KA1240N+02091MA1999999097911MD1999999+0001REMSYN06482583 32599 41805 10260 20219 39791 40127 83201 333 20209 58000=
0193825830999992015061200004-05167-040667FM-12+029999999V0201401N002119999999N004000199+02661+01951101201ADDGA1031+008001081GE19MSL   +99999+99999GF108991031999008001999999KA1120M+03371KA2120N+00651MA1999999097841REMSYN07682583 32596 81404 10266 20195 39784 40120 83200 333 10337 29065 55093 58003=
0198825830999992015061212004-05167-040667FM-12+029999999V0200901N004119999999N050000199+02631+02091101481ADDGA1051+008001081GA2999+999999001GE19MSL   +99999+99999GF106991051999008001999999KA1240N+02121MA1999999098081MD1999999+0191REMSYN06482583 32599 60908 10263 20209 39808 40148 85201 333 20212 58019=
0193825830999992015061300004-05167-040667FM-12+029999999V0200901N002119999999N004000199+02621+01981101171ADDGA1011+008001081GE19MSL   +99999+99999GF101991011999008001999999KA1120M+03321KA2120N+00641MA1999999097801REMSYN07682583 32596 10904 10262 20198 39780 40117 81100 333 10332 29064 55091 59004=
0182825830999992015061312004-05167-040667FM-12+029999999V0201401N003619999999N050000199+02711+02101101431ADDGA1031+008001081GE19MSL   +99999+99999GF103991031999008001999999KA1240N+02291MA1999999098051MD1999999-0031REMSYN06482583 32599 31407 10271 20210 39805 40143 83200 333 20229 59003=
0182825830999992015061412004-05167-040667FM-12+029999999V0201401N002619999999N050000199+02631+02071101381ADDGA1061+008001081GE19MSL   +99999+99999GF106991061999008001999999KA1240N+01971MA1999999098001MD1999999-0051REMSYN06482583 32599 61405 10263 20207 39800 40138 86200 333 20197 59005=
0193825830999992015061500004-05167-040667FM-12+029999999V0202301N001519999999N004000199+02531+01931101211ADDGA1011+008001081GE19MSL   +99999+99999GF101991011999008001999999KA1120M+03261KA2120N+00641MA1999999097841REMSYN07682583 32596 12303 10253 20193 39784 40121 81100 333 10326 29064 55078 58002=
0227825830999992015061512004-05167-040667FM-12+029999999V0201401N005119999999N050000199+02841+01821101511ADDAA124000131AY161021AY261021GA1011+008001081GE19MSL   +99999+99999GF101991011999008001999999KA1240N+02231MA1999999098141MD1999999+0141MW1001REMSYN07682583 21599 11410 10284 20182 39814 40151 70066 81100 333 20223 58014 69914=
0110825830999992015061600004-05167-040667FM-12+029999999V0202301N001519999999N004000199+02621+01861101231ADDKA1120M+03391MA1999999097871REMSYN07082583 32996 02303 10262 20186 39787 40123 333 10339 29/// 55100 58003=
0198825830999992015061612004-05167-040667FM-12+029999999V0200901N005719999999N050000199+02681+02061101401ADDGA1051+008001081GA2999+999999001GE19MSL   +99999+99999GF106991051999008001999999KA1240N+02001MA1999999098021MD1999999-0121REMSYN06482583 32599 60911 10268 20206 39802 40140 85801 333 20200 59012=
0193825830999992015061700004-05167-040667FM-12+029999999V0201401N000519999999N004000199+02611+01931101131ADDGA1021+008001081GE19MSL   +99999+99999GF102991021999008001999999KA1120M+03341KA2120N+00621MA1999999097771REMSYN07682583 32596 21401 10261 20193 39777 40113 82100 333 10334 29062 55084 59010=
0182825830999992015061712004-05167-040667FM-12+029999999V0201401N004619999999N050000199+02631+01951101351ADDGA1061+008001081GE19MSL   +99999+99999GF106991061999008001999999KA1240N+01961MA1999999097971MD1999999-0051REMSYN06482583 32599 61409 10263 20195 39797 40135 86200 333 20196 59005=
0123825830999992015061800004-05167-040667FM-12+029999999V0209999C000019999999N004000199+02531+01651101201ADDKA1120M+03331KA2120N+00521MA1999999097821REMSYN07082583 32996 01800 10253 20165 39782 40120 333 10333 29052 55101 58005=
0182825830999992015061812004-05167-040667FM-12+029999999V0200901N004119999999N050000199+02681+02021101401ADDGA1061+008001081GE19MSL   +99999+99999GF106991061999008001999999KA1240N+02061MA1999999098021MD1999999+0051REMSYN06482583 32599 60908 10268 20202 39802 40140 86200 333 20206 58005=
0212825830999992015061900004-05167-040667FM-12+029999999V0200901N000519999999N004000199+02581+01801101251ADDGA1011+017501031GE19MSL   +99999+99999GF101991011999017501999999KA1120M+03321KA2120N+00571MA1999999999999REMSYN07682583 32796 10901 10258 20180 36788 40125 81030 333 10332 29057 55104 58006=EQDQ01 067883APOSP 
0182825830999992015061912004-05167-040667FM-12+029999999V0200901N004119999999N050000199+02671+02041101541ADDGA1061+008001081GE19MSL   +99999+99999GF106991061999008001999999KA1240N+01971MA1999999098151MD1999999+0131REMSYN06482583 32599 60908 10267 20204 39815 40154 86100 333 20197 58013=
0123825830999992015062000004-05167-040667FM-12+029999999V0201401N001519999999N004000199+02571+01741101301ADDKA1120M+03331KA2120N+00581MA1999999097921REMSYN07082583 32996 01403 10257 20174 39792 40130 333 10333 29058 55088 58004=
0182825830999992015062012004-05167-040667FM-12+029999999V0201401N004619999999N050000199+02721+02001101521ADDGA1021+008001081GE19MSL   +99999+99999GF102991021999008001999999KA1240N+01941MA1999999098141MD1999999-0011REMSYN06482583 32599 21409 10272 20200 39814 40152 82100 333 20194 59001=
0123825830999992015062100004-05167-040667FM-12+029999999V0209999C000019999999N004000199+02611+01881101291ADDKA1120M+03371KA2120N+00581MA1999999097921REMSYN07082583 32996 01800 10261 20188 39792 40129 333 10337 29058 55105 58000=
0182825830999992015062112004-05167-040667FM-12+029999999V0201401N003119999999N050000199+02611+02011101611ADDGA1051+008001081GE19MSL   +99999+99999GF105991051999008001999999KA1240N+02261MA1999999098221MD1999999+0081REMSYN06482583 32599 51406 10261 20201 39822 40161 85200 333 20226 58008=
0193825830999992015062200004-05167-040667FM-12+029999999V0201401N001019999999N004000199+02681+01971101451ADDGA1032+008001081GE19MSL   +99999+99999GF101992032999008001999999KA1120M+03281KA2120N+00621MA1999999098071REMSYN07682583 32596 11402 10268 20197 39807 40145 83200 333 10328 29062 55095 58006=
0182825830999992015062212004-05167-040667FM-12+029999999V0201401N003619999999N050000199+02731+01611101721ADDGA1021+008001081GE19MSL   +99999+99999GF102991021999008001999999KA1240N+02121MA1999999098341MD1999999+0121REMSYN06482583 32599 21407 10273 20161 39834 40172 82100 333 20212 58012=
0123825830999992015062300004-05167-040667FM-12+029999999V0201401N002119999999N004000199+02611+01621101441ADDKA1120M+03401KA2120N+00491MA1999999098061REMSYN07082583 32996 01404 10261 20162 39806 40144 333 10340 29049 55096 59001=
0182825830999992015062312004-05167-040667FM-12+029999999V0201401N002619999999N050000199+02581+01921101691ADDGA1031+008001081GE19MSL   +99999+99999GF103991031999008001999999KA1240N+02061MA1999999098301MD1999999-0041REMSYN06482583 32599 31405 10258 20192 39830 40169 83200 333 20206 59004=
0193825830999992015062400004-05167-040667FM-12+029999999V0201401N001519999999N004000199+02671+01941101581ADDGA1011+008001081GE19MSL   +99999+99999GF101991011999008001999999KA1120M+03291KA2120N+00621MA1999999098191REMSYN07682583 32596 11403 10267 20194 39819 40158 81100 333 10329 29062 55058 58013=
0182825830999992015062412004-05167-040667FM-12+029999999V0200501N001019999999N020000199+02441+02171101771ADDGA1081+008001081GE19MSL   +99999+99999GF108991081999008001999999KA1240N+02291MA1999999098371MD1999999+0071REMSYN06482583 32598 80502 10244 20217 39837 40177 888// 333 20229 58007=
