0136825860999992015010118004-05200-039300FM-12+021299999V0200901N0041100800199020000199+03521+01941100891ADDAA101999999AZ101061AZ201061GA1061+008001061GE19MSL   +99999+99999GF106991061999008001999999MA1999999098261MD1999999+0081REMSYN004BUFR
0136825860999992015010700004-05200-039300FM-12+021299999V0203601N0041199999999001000199+02751+02301100941ADDAA101999999AZ101061AZ201061GA1021+008001081GE19MSL   +99999+99999GF102991021999008001999999MA1999999098291MD1999999-0071REMSYN004BUFR
0187825860999992015041212004-05200-039300FM-12+021299999V0203601N0000100800199020000199+02551+02331101481ADDAA124009031AY161061AY221061GA1081+008001071GA2999+999999101GA3999+999999101GE19MSL   +99999+99999GF108991081999008001999999KA1120N+02301MA1999999098781MD1999999-0021MW1031REMSYN004BUFR
0152825860999992015041918004-05200-039300FM-12+021299999V0203601N0051199999999020000199+03191+02331101151ADDAA101999999AZ101061AZ201061GA1031+008001081GA2999+999999001GE19MSL   +99999+99999GF105991031999008001999999MA1999999098501MD1999999+0021REMSYN004BUFR
0149825860999992015042512004-05200-039300FM-12+021299999V0200501N0015100800199020000199+02671+02501101521ADDAA124012031AZ101061AZ201061GA1051+008001081GE19MSL   +99999+99999GF105991051999008001999999KA1120N+02301MA1999999098831MD1999999+0061REMSYN004BUFR
0098825860999992015051900004-05200-039300FM-12+021299999V0200901N0041122000199001000199+02751+02041101181ADDAA101999999AZ101061AZ201061GF100991999999999999999999MA1999999098531MD1999999-0131REMSYN004BUFR
0098825860999992015061500004-05200-039300FM-12+021299999V0203601N0026122000199001000199+02641+02331101341ADDAA101999999AZ101061AZ201061GF100991999999999999999999MA1999999098671MD1999999+0021REMSYN004BUFR
0149825860999992015073012004-05200-039300FM-12+021299999V0200901N0026100600199020000199+02741+02141101411ADDAA101999999AZ101061AZ201061GA1051+006001061GE19MSL   +99999+99999GF105991051999006001999999KA1120N+02401MA1999999098751MD1999999+0021REMSYN004BUFR
0098825860999992015073100004-05200-039300FM-12+021299999V0200501N0015122000199001000199+02591+01601101251ADDAA101999999AZ101061AZ201061GF100991999999999999999999MA1999999098581MD1999999+0011REMSYN004BUFR
0149825860999992015073112004-05200-039300FM-12+021299999V0200901N0031199999999020000199+02741+02021101301ADDAA101999999AZ101061AZ201061GA1041+006001081GE19MSL   +99999+99999GF104991041999006001999999KA1120N+02091MA1999999098631MD1999999-0121REMSYN004BUFR
0168825860999992015080100004-05200-039300FM-12+021299999V0200501N0026100600199001000199+02641+02331101271ADDAA101999999AZ101061AZ201061GA1081+006001071GA2999+999999101GA3999+999999101GE19MSL   +99999+99999GF108991081999006001999999MA1999999098601MD1999999+0021REMSYN004BUFR
0149825860999992015080112004-05200-039300FM-12+021299999V0200901N0051199999999020000199+02641+01901101461ADDAA101999999AZ101061AZ201061GA1021+006001081GE19MSL   +99999+99999GF102991021999006001999999KA1120N+02301MA1999999098781MD1999999+0151REMSYN004BUFR
0122825860999992015080118004-05200-039300FM-12+021299999V0200901N0031199999999020000199+03351+02301101081ADDAA101999999AZ101061AZ201061GA1021+006001081GE19MSL   +99999+99999GF102991021999006001999999MA1999999098431REMSYN004BUFR
0098825860999992015080200004-05200-039300FM-12+021299999V0203601N0000122000199001000199+02591+01841101161ADDAA101999999AZ101061AZ201061GF100991999999999999999999MA1999999098481MD1999999-0121REMSYN004BUFR
0149825860999992015080212004-05200-039300FM-12+021299999V0200901N0051100600199020000199+02591+02081101361ADDAA101999999AZ101061AZ201061GA1061+006001081GE19MSL   +99999+99999GF106991061999006001999999KA1120N+02261MA1999999098681MD1999999-0101REMSYN004BUFR
0136825860999992015080218004-05200-039300FM-12+021299999V0200901N0031199999999020000199+03391+02161101031ADDAA101999999AZ101061AZ201061GA1021+006001081GE19MSL   +99999+99999GF102991021999006001999999MA1999999098381MD1999999-0051REMSYN004BUFR
0136825860999992015080300004-05200-039300FM-12+021299999V0200901N0015199999999001000199+02791+01901101171ADDAA101999999AZ101061AZ201061GA1031+006001061GE19MSL   +99999+99999GF103991031999006001999999MA1999999098501MD1999999+0021REMSYN004BUFR
0149825860999992015080312004-05200-039300FM-12+021299999V0200901N0015199999999020000199+02741+01891101391ADDAA101999999AZ101061AZ201061GA1021+006001081GE19MSL   +99999+99999GF102991021999006001999999KA1120N+02261MA1999999098721MD1999999+0041REMSYN004BUFR
0136825860999992015080318004-05200-039300FM-12+021299999V0200501N0041199999999020000199+03351+02111101061ADDAA101999999AZ101061AZ201061GA1021+006001081GE19MSL   +99999+99999GF102991021999006001999999MA1999999098411MD1999999+0031REMSYN004BUFR
0098825860999992015080400004-05200-039300FM-12+021299999V0200501N0031122000199001000199+02641+02231101201ADDAA101999999AZ101061AZ201061GF100991999999999999999999MA1999999098531MD1999999+0031REMSYN004BUFR
0149825860999992015080412004-05200-039300FM-12+021299999V0200901N0041199999999020000199+02691+02111101451ADDAA101999999AZ101061AZ201061GA1021+006001081GE19MSL   +99999+99999GF102991021999006001999999KA1120N+02261MA1999999098781MD1999999+0061REMSYN004BUFR
0136825860999992015080418004-05200-039300FM-12+021299999V0200901N0031199999999020000199+03291+01861101181ADDAA101999999AZ101061AZ201061GA1032+006001081GE19MSL   +99999+99999GF102992032999006001999999MA1999999098531MD1999999+0121REMSYN004BUFR
0098825860999992015080500004-05200-039300FM-12+021299999V0200501N0031122000199001000199+02741+02101101241ADDAA101999999AZ101061AZ201061GF100991999999999999999999MA1999999098571MD1999999+0041REMSYN004BUFR
0149825860999992015080512004-05200-039300FM-12+021299999V0200501N0031199999999020000199+02791+02201101401ADDAA101999999AZ101061AZ201061GA1021+006001081GE19MSL   +99999+99999GF102991021999006001999999KA1120N+02261MA1999999098731MD1999999-0051REMSYN004BUFR
0155825860999992015080518004-05200-039300FM-12+021299999V0200901N0031199999999020000199+03391+02141101071ADDAA101999999AZ101061AZ201061GA1062+006001081GE19MSL   +99999+99999GF102992062999006001999999MA1999999098421MD1999999-0111REMSYN004BUFREQDQ01 006003SCOCIG
0098825860999992015080600004-05200-039300FM-12+021299999V0200501N0041122000199001000199+02791+02151101181ADDAA101999999AZ101061AZ201061GF100991999999999999999999MA1999999098531MD1999999-0041REMSYN004BUFR
0149825860999992015080612004-05200-039300FM-12+021299999V0200501N0051199999999020000199+02691+01991101351ADDAA101999999AZ101061AZ201061GA1021+006001081GE19MSL   +99999+99999GF102991021999006001999999KA1120N+02301MA1999999098681MD1999999-0051REMSYN004BUFR
0136825860999992015080618004-05200-039300FM-12+021299999V0200901N0062100600199020000199+03291+01841101031ADDAA101999999AZ101061AZ201061GA1051+006001081GE19MSL   +99999+99999GF105991051999006001999999MA1999999098381MD1999999-0041REMSYN004BUFR
0136825860999992015080700004-05200-039300FM-12+021299999V0200901N0031199999999001000199+02741+02001101031ADDAA101999999AZ101061AZ201061GA1041+006001081GE19MSL   +99999+99999GF104991041999006001999999MA1999999098461MD1999999-0071REMSYN004BUFR
0149825860999992015080712004-05200-039300FM-12+021299999V0201401N0051100600199020000199+02621+02101101291ADDAA101999999AZ101061AZ201061GA1061+006001061GE19MSL   +99999+99999GF106991061999006001999999KA1120N+02241MA1999999098631MD1999999-0051REMSYN004BUFR
0136825860999992015080718004-05200-039300FM-12+021299999V0201401N0031199999999020000199+03221+01881101011ADDAA101999999AZ101061AZ201061GA1031+006001081GE19MSL   +99999+99999GF103991031999006001999999MA1999999098351MD1999999-0031REMSYN004BUFR
0136825860999992015080800004-05200-039300FM-12+021299999V0201401N0021199999999001000199+02651+01741101141ADDAA101999999AZ101061AZ201061GA1031+006001081GE19MSL   +99999+99999GF103991031999006001999999MA1999999098471MD1999999+0011REMSYN004BUFR
0149825860999992015080812004-05200-039300FM-12+021299999V0201801N0031199999999020000199+02491+01941101311ADDAA101999999AZ101061AZ201061GA1021+006001081GE19MSL   +99999+99999GF102991021999006001999999KA1120N+02111MA1999999098631MD1999999+0001REMSYN004BUFR
0136825860999992015080818004-05200-039300FM-12+021299999V0200901N0051199999999020000199+03291+01761100981ADDAA101999999AZ101061AZ201061GA1021+006001081GE19MSL   +99999+99999GF102991021999006001999999MA1999999098331MD1999999-0021REMSYN004BUFR
0098825860999992015080900004-05200-039300FM-12+021299999V0200901N0041122000199001000199+02721+02121101131ADDAA101999999AZ101061AZ201061GF100991999999999999999999MA1999999098451MD1999999-0021REMSYN004BUFR
0149825860999992015080912004-05200-039300FM-12+021299999V0201801N0041199999999020000199+02591+02031101291ADDAA101999999AZ101061AZ201061GA1031+006001081GE19MSL   +99999+99999GF103991031999006001999999KA1120N+02181MA1999999098621MD1999999-0011REMSYN004BUFR
0136825860999992015080918004-05200-039300FM-12+021299999V0201401N0046100600199020000199+03351+01731100991ADDAA101999999AZ101061AZ201061GA1051+006001081GE19MSL   +99999+99999GF105991051999006001999999MA1999999098341MD1999999+0011REMSYN004BUFR
0098825860999992015081000004-05200-039300FM-12+021299999V0200901N0031122000199001000199+02741+02191101141ADDAA101999999AZ101061AZ201061GF100991999999999999999999MA1999999098471MD1999999+0021REMSYN004BUFR
0181825860999992015081012004-05200-039300FM-12+021299999V0201801N0041100600199020000199+02621+02031101371ADDAA101999999AZ101061AZ201061GA1081+006001071GA2999+999999101GA3999+999999101GE19MSL   +99999+99999GF108991081999006001999999KA1120N+02221MA1999999098701MD1999999+0081REMSYN004BUFR
0136825860999992015081018004-05200-039300FM-12+021299999V0201401N0031199999999020000199+03251+01721101071ADDAA101999999AZ101061AZ201061GA1021+006001081GE19MSL   +99999+99999GF102991021999006001999999MA1999999098371MD1999999+0031REMSYN004BUFR
0098825860999992015081100004-05200-039300FM-12+021299999V0200501N0015122000199001000199+02741+01441101121ADDAA101999999AZ101061AZ201061GF100991999999999999999999MA1999999098451MD1999999-0021REMSYN004BUFR
0149825860999992015081112004-05200-039300FM-12+021299999V0200901N0051199999999020000199+02651+01971101351ADDAA101999999AZ101061AZ201061GA1041+006001081GE19MSL   +99999+99999GF104991041999006001999999KA1120N+02201MA1999999098681MD1999999-0021REMSYN004BUFR
0136825860999992015081118004-05200-039300FM-12+021299999V0200901N0015199999999020000199+03391+01921100981ADDAA101999999AZ101061AZ201061GA1031+006001081GE19MSL   +99999+99999GF104991031999006001999999MA1999999098331MD1999999-0041REMSYN004BUFR
0098825860999992015081200004-05200-039300FM-12+021299999V0200901N0015122000199001000199+02821+02071101111ADDAA101999999AZ101061AZ201061GF100991999999999999999999MA1999999098451MD1999999+0001REMSYN004BUFR
0149825860999992015081212004-05200-039300FM-12+021299999V0200501N0015199999999020000199+02651+01901101291ADDAA101999999AZ101061AZ201061GA1021+006001081GE19MSL   +99999+99999GF102991021999006001999999KA1120N+02201MA1999999098631MD1999999-0051REMSYN004BUFR
0136825860999992015081218004-05200-039300FM-12+021299999V0200901N0041199999999020000199+03351+02111100901ADDAA101999999AZ101061AZ201061GA1031+006001081GE19MSL   +99999+99999GF103991031999006001999999MA1999999098251MD1999999-0081REMSYN004BUFR
0136825860999992015081300004-05200-039300FM-12+021299999V0201401N0005199999999001000199+02751+01691101091ADDAA101999999AZ101061AZ201061GA1041+006001081GE19MSL   +99999+99999GF104991041999006001999999MA1999999098431MD1999999-0021REMSYN004BUFR
0149825860999992015081312004-05200-039300FM-12+021299999V0200901N0031199999999020000199+02641+01661101301ADDAA101999999AZ101061AZ201061GA1021+006001081GE19MSL   +99999+99999GF102991021999006001999999KA1120N+02261MA1999999098631MD1999999+0001REMSYN004BUFR
0136825860999992015081318004-05200-039300FM-12+021299999V0200901N0031199999999020000199+03351+02141100981ADDAA101999999AZ101061AZ201061GA1021+006001081GE19MSL   +99999+99999GF102991021999006001999999MA1999999098331MD1999999+0081REMSYN004BUFR
0136825860999992015081400004-05200-039300FM-12+021299999V0200901N0031199999999001000199+02771+01871101141ADDAA101999999AZ101061AZ201061GA1021+006001081GE19MSL   +99999+99999GF102991021999006001999999MA1999999098471MD1999999+0041REMSYN004BUFR
0149825860999992015081412004-05200-039300FM-12+021299999V0200501N0026199999999020000199+02751+01901101281ADDAA101999999AZ101061AZ201061GA1021+006001081GE19MSL   +99999+99999GF102991021999006001999999KA1120N+02321MA1999999098621MD1999999-0011REMSYN004BUFR
0136825860999992015081418004-05200-039300FM-12+021299999V0200901N0015199999999020000199+03291+02261101041ADDAA101999999AZ101061AZ201061GA1041+006001081GE19MSL   +99999+99999GF104991041999006001999999MA1999999098391MD1999999+0061REMSYN004BUFR
0098825860999992015081500004-05200-039300FM-12+021299999V0200501N0021122000199001000199+02721+02001101121ADDAA101999999AZ101061AZ201061GF100991999999999999999999MA1999999098461MD1999999-0011REMSYN004BUFR
0149825860999992015081512004-05200-039300FM-12+021299999V0200901N0026199999999020000199+02791+02031101281ADDAA101999999AZ101061AZ201061GA1041+006001081GE19MSL   +99999+99999GF104991041999006001999999KA1120N+02401MA1999999098621MD1999999+0001REMSYN004BUFR
0136825860999992015081518004-05200-039300FM-12+021299999V0200901N0051199999999020000199+03351+02171100991ADDAA101999999AZ101061AZ201061GA1041+006001081GE19MSL   +99999+99999GF104991041999006001999999MA1999999098351MD1999999-0041REMSYN004BUFR
0149825860999992015081612004-05200-039300FM-12+021299999V0200901N0021199999999020000199+02691+02041101291ADDAA101999999AZ101061AZ201061GA1041+006001081GE19MSL   +99999+99999GF104991041999006001999999KA1120N+02391MA1999999098631MD1999999+0011REMSYN004BUFR
0136825860999992015081618004-05200-039300FM-12+021299999V0200501N0026199999999020000199+03391+02091100991ADDAA101999999AZ101061AZ201061GA1021+006001081GE19MSL   +99999+99999GF102991021999006001999999MA1999999098351MD1999999+0001REMSYN004BUFR
0098825860999992015081700004-05200-039300FM-12+021299999V0201801N0015122000199001000199+02771+01581101101ADDAA101999999AZ101061AZ201061GF100991999999999999999999MA1999999098441MD1999999+0031REMSYN004BUFR
0149825860999992015081712004-05200-039300FM-12+021299999V0200901N0051100600199020000199+02541+01951101101ADDAA101999999AZ101061AZ201061GA1051+006001081GE19MSL   +99999+99999GF105991051999006001999999KA1120N+02301MA1999999098431MD1999999-0201REMSYN004BUFR
0136825860999992015081718004-05200-039300FM-12+021299999V0200901N0031199999999020000199+03391+02041100711ADDAA101999999AZ101061AZ201061GA1021+006001081GE19MSL   +99999+99999GF102991021999006001999999MA1999999098041MD1999999-0281REMSYN004BUFR
0098825860999992015081800004-05200-039300FM-12+021299999V0200501N0021122000199001000199+02751+02161100841ADDAA101999999AZ101061AZ201061GF100991999999999999999999MA1999999098181MD1999999-0261REMSYN004BUFR
0149825860999992015081812004-05200-039300FM-12+021299999V0200901N0051199999999020000199+02791+01811101011ADDAA101999999AZ101061AZ201061GA1021+006001081GE19MSL   +99999+99999GF102991021999006001999999KA1120N+02301MA1999999098361MD1999999-0071REMSYN004BUFR
0136825860999992015081818004-05200-039300FM-12+021299999V0203601N0031199999999020000199+03391+02041100711ADDAA101999999AZ101061AZ201061GA1021+006001081GE19MSL   +99999+99999GF102991021999006001999999MA1999999098071MD1999999+0001REMSYN004BUFR
0098825860999992015081900004-05200-039300FM-12+021299999V0201401N0051122000199001000199+02721+02171100781ADDAA101999999AZ101061AZ201061GF100991999999999999999999MA1999999098131MD1999999-0051REMSYN004BUFR
0149825860999992015081912004-05200-039300FM-12+021299999V0200901N0041199999999020000199+02791+01881100951ADDAA101999999AZ101061AZ201061GA1021+006001081GE19MSL   +99999+99999GF102991021999006001999999KA1120N+02261MA1999999098301MD1999999-0061REMSYN004BUFR
0136825860999992015081918004-05200-039300FM-12+021299999V0200901N0041199999999020000199+03391+02061100801ADDAA101999999AZ101061AZ201061GA1021+006001081GE19MSL   +99999+99999GF102991021999006001999999MA1999999098161MD1999999+0091REMSYN004BUFR
0098825860999992015082000004-05200-039300FM-12+021299999V0201401N0041122000199001000199+02651+02181100921ADDAA101999999AZ101061AZ201061GF100991999999999999999999MA1999999098271MD1999999-0141REMSYN004BUFR
0149825860999992015082012004-05200-039300FM-12+021299999V0200901N0031199999999020000199+02741+01841101091ADDAA101999999AZ101061AZ201061GA1021+006001081GE19MSL   +99999+99999GF102991021999006001999999KA1120N+02261MA1999999098431MD1999999+0131REMSYN004BUFR
0136825860999992015082018004-05200-039300FM-12+021299999V0200501N0015199999999020000199+03391+02211100811ADDAA101999999AZ101061AZ201061GA1021+006001081GE19MSL   +99999+99999GF102991021999006001999999MA1999999098171MD1999999+0011REMSYN004BUFR
0098825860999992015082100004-05200-039300FM-12+021299999V0200501N0041122000199001000199+02641+02051100931ADDAA101999999AZ101061AZ201061GF100991999999999999999999MA1999999098271MD1999999+0001REMSYN004BUFR
0149825860999992015082112004-05200-039300FM-12+021299999V0203601N0051199999999020000199+02741+02211101201ADDAA101999999AZ101061AZ201061GA1021+006001081GE19MSL   +99999+99999GF102991021999006001999999KA1120N+02261MA1999999098531MD1999999+0101REMSYN004BUFR
0136825860999992015082118004-05200-039300FM-12+021299999V0200901N0031199999999020000199+03391+02041100921ADDAA101999999AZ101061AZ201061GA1021+006001081GE19MSL   +99999+99999GF102991021999006001999999MA1999999098281MD1999999+0111REMSYN004BUFR
0098825860999992015082200004-05200-039300FM-12+021299999V0203601N0067122000199001000199+02551+02311101041ADDAA101999999AZ101061AZ201061GF100991999999999999999999MA1999999098371MD1999999+0101REMSYN004BUFR
0149825860999992015082212004-05200-039300FM-12+021299999V0200901N0031100600199020000199+02741+02141101101ADDAA101999999AZ101061AZ201061GA1061+006001081GE19MSL   +99999+99999GF106991061999006001999999KA1120N+02301MA1999999098431MD1999999-0101REMSYN004BUFR
0136825860999992015082218004-05200-039300FM-12+021299999V0203601N0031199999999020000199+03391+01961100711ADDAA101999999AZ101061AZ201061GA1041+006001081GE19MSL   +99999+99999GF104991041999006001999999MA1999999098071MD1999999-0211REMSYN004BUFR
0098825860999992015082300004-05200-039300FM-12+021299999V0201401N0067122000199001000199+02721+02301100921ADDAA101999999AZ101061AZ201061GF100991999999999999999999MA1999999098271MD1999999-0101REMSYN004BUFR
0149825860999992015082312004-05200-039300FM-12+021299999V0200501N0041100600199020000199+02691+02111101041ADDAA101999999AZ101061AZ201061GA1051+006001081GE19MSL   +99999+99999GF105991051999006001999999KA1120N+02301MA1999999098321MD1999999-0051REMSYN004BUFR
0098825860999992015082318004-05200-039300FM-12+021299999V0200901N0041122000199001000199+03391+01961100731ADDAA101999999AZ101061AZ201061GF100991999999999999999999MA1999999098091MD1999999+0021REMSYN004BUFR
0098825860999992015082400004-05200-039300FM-12+021299999V0201401N0041122000199001000199+02841+02121100921ADDAA101999999AZ101061AZ201061GF100991999999999999999999MA1999999098271MD1999999+0001REMSYN004BUFR
0149825860999992015082412004-05200-039300FM-12+021299999V0200501N0031199999999020000199+02591+01921101211ADDAA101999999AZ101061AZ201061GA1021+006001081GE19MSL   +99999+99999GF102991021999006001999999KA1120N+02261MA1999999098551MD1999999+0171REMSYN004BUFR
0136825860999992015082418004-05200-039300FM-12+021299999V0200901N0031199999999020000199+03391+02091100821ADDAA101999999AZ101061AZ201061GA1021+006001081GE19MSL   +99999+99999GF102991021999006001999999MA1999999098181MD1999999+0091REMSYN004BUFR
0098825860999992015082500004-05200-039300FM-12+021299999V0200901N0067122000199001000199+02521+02211101151ADDAA101999999AZ101061AZ201061GF100991999999999999999999MA1999999098481MD1999999+0211REMSYN004BUFR
0149825860999992015082512004-05200-039300FM-12+021299999V0200901N0015199999999020000199+02791+02011101331ADDAA101999999AZ101061AZ201061GA1031+006001081GE19MSL   +99999+99999GF103991031999006001999999KA1120N+02301MA1999999098651MD1999999+0101REMSYN004BUFR
0136825860999992015082518004-05200-039300FM-12+021299999V0200901N0051199999999020000199+03391+02071100921ADDAA101999999AZ101061AZ201061GA1021+006001081GE19MSL   +99999+99999GF102991021999006001999999MA1999999098281MD1999999+0101REMSYN004BUFR
0098825860999992015082600004-05200-039300FM-12+021299999V0200901N0051122000199001000199+02571+02231101091ADDAA101999999AZ101061AZ201061GF100991999999999999999999MA1999999098431MD1999999-0051REMSYN004BUFR
0149825860999992015082612004-05200-039300FM-12+021299999V0200901N0041199999999020000199+02591+02081101331ADDAA101999999AZ101061AZ201061GA1031+006001081GE19MSL   +99999+99999GF103991031999006001999999KA1120N+02301MA1999999098651MD1999999+0001REMSYN004BUFR
0136825860999992015082618004-05200-039300FM-12+021299999V0200501N0026199999999020000199+03351+01931101001ADDAA101999999AZ101061AZ201061GA1021+006001081GE19MSL   +99999+99999GF102991021999006001999999MA1999999098351MD1999999+0071REMSYN004BUFR
0098825860999992015082700004-05200-039300FM-12+021299999V0200501N0051122000199001000199+02691+02171101121ADDAA101999999AZ101061AZ201061GF100991999999999999999999MA1999999098451MD1999999+0021REMSYN004BUFR
0149825860999992015082712004-05200-039300FM-12+021299999V0200901N0026199999999020000199+02591+01871101251ADDAA101999999AZ101061AZ201061GA1021+006001081GE19MSL   +99999+99999GF102991021999006001999999KA1120N+02361MA1999999098581MD1999999-0071REMSYN004BUFR
0136825860999992015082718004-05200-039300FM-12+021299999V0200901N0031199999999020000199+03391+01851100871ADDAA101999999AZ101061AZ201061GA1021+006001081GE19MSL   +99999+99999GF102991021999006001999999MA1999999098231MD1999999-0121REMSYN004BUFR
0098825860999992015082800004-05200-039300FM-12+021299999V0200501N0051122000199001000199+02641+02161101091ADDAA101999999AZ101061AZ201061GF100991999999999999999999MA1999999098421MD1999999-0031REMSYN004BUFR
0149825860999992015082812004-05200-039300FM-12+021299999V0200901N0051199999999020000199+02841+01931101231ADDAA101999999AZ101061AZ201061GA1021+006001081GE19MSL   +99999+99999GF102991021999006001999999KA1120N+02261MA1999999098571MD1999999-0011REMSYN004BUFR
0136825860999992015082818004-05200-039300FM-12+021299999V0200901N0051199999999020000199+03391+02001100891ADDAA101999999AZ101061AZ201061GA1021+006001081GE19MSL   +99999+99999GF102991021999006001999999MA1999999098251MD1999999+0021REMSYN004BUFR
0098825860999992015082900004-05200-039300FM-12+021299999V0200901N0067122000199001000199+02621+02071101091ADDAA101999999AZ101061AZ201061GF100991999999999999999999MA1999999098431MD1999999+0011REMSYN004BUFR
0149825860999992015082912004-05200-039300FM-12+021299999V0200901N0015199999999020000199+02791+01931101401ADDAA101999999AZ101061AZ201061GA1021+006001081GE19MSL   +99999+99999GF102991021999006001999999KA1120N+02261MA1999999098731MD1999999+0161REMSYN004BUFR
0098825860999992015082918004-05200-039300FM-12+021299999V0200501N0026122000199001000199+03341+01711101021ADDAA101999999AZ101061AZ201061GF100991999999999999999999MA1999999098371MD1999999+0121REMSYN004BUFR
0098825860999992015083000004-05200-039300FM-12+021299999V0200501N0057122000199001000199+02591+02231101201ADDAA101999999AZ101061AZ201061GF100991999999999999999999MA1999999098531MD1999999+0101REMSYN004BUFR
0149825860999992015083012004-05200-039300FM-12+021299999V0200901N0031100600199020000199+02741+02021101451ADDAA101999999AZ101061AZ201061GA1051+006001081GE19MSL   +99999+99999GF105991051999006001999999KA1120N+02201MA1999999098771MD1999999+0041REMSYN004BUFR
0136825860999992015083018004-05200-039300FM-12+021299999V0200901N0031199999999020000199+03351+01931101071ADDAA101999999AZ101061AZ201061GA1021+006001081GE19MSL   +99999+99999GF102991021999006001999999MA1999999098421MD1999999+0051REMSYN004BUFR
0098825860999992015083100004-05200-039300FM-12+021299999V0200901N0051122000199001000199+02691+02261101201ADDAA101999999AZ101061AZ201061GF100991999999999999999999MA1999999098531MD1999999+0001REMSYN004BUFR
0149825860999992015083112004-05200-039300FM-12+021299999V0200901N0031199999999020000199+02791+02061101281ADDAA101999999AZ101061AZ201061GA1031+006001081GE19MSL   +99999+99999GF103991031999006001999999KA1120N+02261MA1999999098621MD1999999-0151REMSYN004BUFR
0136825860999992015083118004-05200-039300FM-12+021299999V0200901N0015199999999020000199+03391+02071100911ADDAA101999999AZ101061AZ201061GA1041+006001081GE19MSL   +99999+99999GF104991041999006001999999MA1999999098241MD1999999-0181REMSYN004BUFR
0098825860999992015090100004-05200-039300FM-12+021299999V0201801N0067122000199001000199+02621+02291101141ADDAA101999999AZ101061AZ201061GF100991999999999999999999MA1999999098471MD1999999-0061REMSYN004BUFR
0149825860999992015090112004-05200-039300FM-12+021299999V0200901N0051199999999020000199+02751+02041101341ADDAA101999999AZ101061AZ201061GA1031+006001081GE19MSL   +99999+99999GF103991031999006001999999KA1120N+02301MA1999999098671MD1999999+0051REMSYN004BUFR
0136825860999992015090118004-05200-039300FM-12+021299999V0200901N0031199999999020000199+03471+01791100971ADDAA101999999AZ101061AZ201061GA1021+006001081GE19MSL   +99999+99999GF102991021999006001999999MA1999999098331MD1999999+0091REMSYN004BUFR
0098825860999992015090200004-05200-039300FM-12+021299999V0200501N0067122000199001000199+02641+02291101071ADDAA101999999AZ101061AZ201061GF100991999999999999999999MA1999999098411MD1999999-0061REMSYN004BUFR
0149825860999992015090212004-05200-039300FM-12+021299999V0200901N0051100600199020000199+02591+02121101231ADDAA101999999AZ101061AZ201061GA1051+006001081GE19MSL   +99999+99999GF105991051999006001999999KA1120N+02291MA1999999098531MD1999999-0141REMSYN004BUFR
0136825860999992015090218004-05200-039300FM-12+021299999V0200901N0026100600199020000199+03341+02091100981ADDAA101999999AZ101061AZ201061GA1051+006001081GE19MSL   +99999+99999GF105991051999006001999999MA1999999098331MD1999999+0001REMSYN004BUFR
0098825860999992015090300004-05200-039300FM-12+021299999V0200901N0041122000199001000199+02651+02291101091ADDAA101999999AZ101061AZ201061GF100991999999999999999999MA1999999098421MD1999999+0011REMSYN004BUFR
0149825860999992015090312004-05200-039300FM-12+021299999V0200901N0041199999999020000199+02651+02071101291ADDAA101999999AZ101061AZ201061GA1041+006001081GE19MSL   +99999+99999GF104991041999006001999999KA1120N+02391MA1999999098621MD1999999+0091REMSYN004BUFR
0136825860999992015090318004-05200-039300FM-12+021299999V0200901N0026199999999020000199+03391+01851100991ADDAA101999999AZ101061AZ201061GA1021+006001081GE19MSL   +99999+99999GF102991021999006001999999MA1999999098351MD1999999+0021REMSYN004BUFR
0098825860999992015090400004-05200-039300FM-12+021299999V0200501N0031122000199001000199+02671+02041101151ADDAA101999999AZ101061AZ201061GF100991999999999999999999MA1999999098471MD1999999+0051REMSYN004BUFR
0181825860999992015090412004-05200-039300FM-12+021299999V0200901N0041100600199020000199+02541+02171101341ADDAA101999999AZ101061AZ201061GA1081+006001071GA2999+999999101GA3999+999999101GE19MSL   +99999+99999GF108991081999006001999999KA1120N+02301MA1999999098661MD1999999+0041REMSYN004BUFR
0136825860999992015090418004-05200-039300FM-12+021299999V0200501N0031199999999020000199+03291+02121101011ADDAA101999999AZ101061AZ201061GA1041+006001081GE19MSL   +99999+99999GF104991041999006001999999MA1999999098361MD1999999+0021REMSYN004BUFR
0098825860999992015090500004-05200-039300FM-12+021299999V0200501N0067122000199001000199+02651+02331101151ADDAA101999999AZ101061AZ201061GF100991999999999999999999MA1999999098401MD1999999+0001REMSYN004BUFR
0181825860999992015090512004-05200-039300FM-12+021299999V0200501N0015100600199020000199+02651+02071101301ADDAA101999999AZ101061AZ201061GA1081+006001061GA2999+999999101GA3999+999999101GE19MSL   +99999+99999GF108991081999006001999999KA1120N+02391MA1999999098631MD1999999-0031REMSYN004BUFR
0136825860999992015090518004-05200-039300FM-12+021299999V0200901N0031199999999020000199+03391+02071100991ADDAA101999999AZ101061AZ201061GA1021+006001081GE19MSL   +99999+99999GF102991021999006001999999MA1999999098351MD1999999-0011REMSYN004BUFR
0136825860999992015090600004-05200-039300FM-12+021299999V0200901N0067100600199001000199+02651+02571101051ADDAA101999999AZ101061AZ201061GA1051+006001081GE19MSL   +99999+99999GF105991051999006001999999MA1999999098381MD1999999-0091REMSYN004BUFR
0149825860999992015090612004-05200-039300FM-12+021299999V0200901N0041199999999020000199+02541+02171101041ADDAA101999999AZ101061AZ201061GA1041+006001081GE19MSL   +99999+99999GF108991041999006001999999KA1120N+02551MA1999999098601MD1999999+0031REMSYN004BUFR
0136825860999992015090618004-05200-039300FM-12+021299999V0200901N0031199999999020000199+03291+02121101011ADDAA101999999AZ101061AZ201061GA1041+006001081GE19MSL   +99999+99999GF104991041999006001999999MA1999999098361MD1999999+0011REMSYN004BUFR
0098825860999992015090700004-05200-039300FM-12+021299999V0201801N0067122000199001000199+02651+02291101091ADDAA101999999AZ101061AZ201061GF100991999999999999999999MA1999999098421MD1999999+0041REMSYN004BUFR
0149825860999992015090712004-05200-039300FM-12+021299999V0200901N0026199999999020000199+02691+01741101291ADDAA101999999AZ101061AZ201061GA1021+006001081GE19MSL   +99999+99999GF102991021999006001999999KA1120N+02361MA1999999098621MD1999999-0041REMSYN004BUFR
0168825860999992015090718004-05200-039300FM-12+021299999V0200901N0031100000199020000199+03391+01701100981ADDAA101999999AZ101061AZ201061GA1091+000001101GA2999+999999101GA3999+999999101GE19MSL   +99999+99999GF199999091999000001999999MA1999999098331MD1999999-0031REMSYN004BUFR
0098825860999992015090800004-05200-039300FM-12+021299999V0200901N0051122000199001000199+02691+02271101081ADDAA101999999AZ101061AZ201061GF100991999999999999999999MA1999999098421MD1999999+0001REMSYN004BUFR
0149825860999992015090812004-05200-039300FM-12+021299999V0201401N0077199999999020000199+02671+02091101171ADDAA101999999AZ101061AZ201061GA1041+006001081GE19MSL   +99999+99999GF104991041999006001999999KA1120N+02241MA1999999098501MD1999999-0181REMSYN004BUFR
0136825860999992015090818004-05200-039300FM-12+021299999V0200501N0041199999999020000199+03441+02111100851ADDAA101999999AZ101061AZ201061GA1021+006001081GE19MSL   +99999+99999GF102991021999006001999999MA1999999098201MD1999999-0131REMSYN004BUFR
0098825860999992015090900004-05200-039300FM-12+021299999V0200501N0046122000199001000199+02641+02161101111ADDAA101999999AZ101061AZ201061GF100991999999999999999999MA1999999098451MD1999999+0031REMSYN004BUFR
0149825860999992015090912004-05200-039300FM-12+021299999V0200901N0077100600199020000199+02741+02051101171ADDAA101999999AZ101061AZ201061GA1061+006001061GE19MSL   +99999+99999GF106991061999006001999999KA1120N+02301MA1999999098511MD1999999+0011REMSYN004BUFR
0136825860999992015090918004-05200-039300FM-12+021299999V0200901N0046199999999020000199+03371+02061100861ADDAA101999999AZ101061AZ201061GA1041+006001081GE19MSL   +99999+99999GF104991041999006001999999MA1999999098211MD1999999+0011REMSYN004BUFR
0098825860999992015091000004-05200-039300FM-12+021299999V0200901N0051122000199001000199+02691+02061101011ADDAA101999999AZ101061AZ201061GF100991999999999999999999MA1999999098351MD1999999-0101REMSYN004BUFR
0149825860999992015091012004-05200-039300FM-12+021299999V0200901N0077199999999020000199+02691+01991101171ADDAA101999999AZ101061AZ201061GA1021+006001081GE19MSL   +99999+99999GF102991021999006001999999KA1120N+02321MA1999999098521MD1999999+0011REMSYN004BUFR
0136825860999992015091018004-05200-039300FM-12+021299999V0200901N0041199999999020000199+03471+01841100811ADDAA101999999AZ101061AZ201061GA1011+006001081GE19MSL   +99999+99999GF101991011999006001999999MA1999999098171MD1999999-0041REMSYN004BUFR
0098825860999992015091100004-05200-039300FM-12+021299999V0200501N0062122000199001000199+02771+02111101061ADDAA101999999AZ101061AZ201061GF100991999999999999999999MA1999999098401MD1999999+0051REMSYN004BUFR
0149825860999992015091112004-05200-039300FM-12+021299999V0200901N0062199999999020000199+02741+02071101371ADDAA101999999AZ101061AZ201061GA1031+006001081GE19MSL   +99999+99999GF103991031999006001999999KA1120N+02301MA1999999098701MD1999999+0181REMSYN004BUFR
0136825860999992015091118004-05200-039300FM-12+021299999V0201401N0051199999999020000199+03441+02041100991ADDAA101999999AZ101061AZ201061GA1021+006001081GE19MSL   +99999+99999GF102991021999006001999999MA1999999098351MD1999999+0181REMSYN004BUFR
0098825860999992015091200004-05200-039300FM-12+021299999V0200501N0036122000199001000199+02841+01791101081ADDAA101999999AZ101061AZ201061GF100991999999999999999999MA1999999098421MD1999999+0021REMSYN004BUFR
0149825860999992015091212004-05200-039300FM-12+021299999V0200901N0031199999999020000199+02691+02111101361ADDAA101999999AZ101061AZ201061GA1031+006001081GE19MSL   +99999+99999GF103991031999006001999999KA1120N+02261MA1999999098701MD1999999+0001REMSYN004BUFR
0136825860999992015091218004-05200-039300FM-12+021299999V0200901N0031199999999020000199+03541+01971100981ADDAA101999999AZ101061AZ201061GA1031+006001081GE19MSL   +99999+99999GF103991031999006001999999MA1999999098341MD1999999-0011REMSYN004BUFR
0098825860999992015091300004-05200-039300FM-12+021299999V0200901N0062122000199001000199+02741+02141101131ADDAA101999999AZ101061AZ201061GF100991999999999999999999MA1999999098461MD1999999+0041REMSYN004BUFR
0181825860999992015091312004-05200-039300FM-12+021299999V0200901N0036100600199020000199+02691+02111101381ADDAA101999999AZ101061AZ201061GA1081+006001071GA2999+999999101GA3999+999999101GE19MSL   +99999+99999GF108991081999006001999999KA1120N+02301MA1999999098711MD1999999+0011REMSYN004BUFR
0136825860999992015091318004-05200-039300FM-12+021299999V0200901N0021199999999020000199+03441+02141100991ADDAA101999999AZ101061AZ201061GA1031+006001081GE19MSL   +99999+99999GF103991031999006001999999MA1999999098351MD1999999+0011REMSYN004BUFR
0098825860999992015091400004-05200-039300FM-12+021299999V0200901N0051122000199001000199+02591+02251101191ADDAA101999999AZ101061AZ201061GF100991999999999999999999MA1999999098521MD1999999+0001REMSYN004BUFR
0181825860999992015091412004-05200-039300FM-12+021299999V0200901N0051100600199020000199+02651+02311101481ADDAA101999999AZ101061AZ201061GA1081+006001071GA2999+999999101GA3999+999999101GE19MSL   +99999+99999GF108991081999006001999999KA1120N+02361MA1999999098801MD1999999+0091REMSYN004BUFR
0136825860999992015091418004-05200-039300FM-12+021299999V0201401N0041199999999020000199+03371+02021101101ADDAA101999999AZ101061AZ201061GA1041+006001081GE19MSL   +99999+99999GF104991041999006001999999MA1999999098451MD1999999+0101REMSYN004BUFR
0098825860999992015091500004-05200-039300FM-12+021299999V0200901N0062122000199001000199+02741+02281101261ADDAA101999999AZ101061AZ201061GF100991999999999999999999MA1999999098591MD1999999+0071REMSYN004BUFR
0181825860999992015091512004-05200-039300FM-12+021299999V0201401N0062100600199020000199+02691+02221101471ADDAA101999999AZ101061AZ201061GA1081+006001071GA2999+999999101GA3999+999999101GE19MSL   +99999+99999GF108991081999006001999999KA1120N+02261MA1999999098801MD1999999+0001REMSYN004BUFR
0136825860999992015091518004-05200-039300FM-12+021299999V0201401N0062100600199020000199+03351+02001101081ADDAA101999999AZ101061AZ201061GA1051+006001081GE19MSL   +99999+99999GF105991051999006001999999MA1999999098431MD1999999-0021REMSYN004BUFR
0098825860999992015091600004-05200-039300FM-12+021299999V0200501N0062122000199001000199+02821+02101101261ADDAA101999999AZ101061AZ201061GF100991999999999999999999MA1999999098601MD1999999+0011REMSYN004BUFR
0149825860999992015091612004-05200-039300FM-12+021299999V0200901N0067199999999020000199+02791+02001101461ADDAA101999999AZ101061AZ201061GA1021+006001081GE19MSL   +99999+99999GF102991021999006001999999KA1120N+02381MA1999999098801MD1999999+0001REMSYN004BUFR
0136825860999992015091618004-05200-039300FM-12+021299999V0200901N0051199999999020000199+03451+01861101021ADDAA101999999AZ101061AZ201061GA1021+006001081GE19MSL   +99999+99999GF102991021999006001999999MA1999999098381MD1999999-0051REMSYN004BUFR
0136825860999992015091700004-05200-039300FM-12+021299999V0200901N0046199999999004000199+02951+01871101201ADDAA101999999AZ101061AZ201061GA1032+006001081GE19MSL   +99999+99999GF102992032999006001999999MA1999999098551MD1999999-0051REMSYN004BUFR
0149825860999992015091712004-05200-039300FM-12+021299999V0200901N0051199999999020000199+02721+01981101341ADDAA101999999AZ101061AZ201061GA1031+006001081GE19MSL   +99999+99999GF103991031999006001999999KA1120N+02221MA1999999098691MD1999999-0111REMSYN004BUFR
0136825860999992015091718004-05200-039300FM-12+021299999V0200901N0051199999999020000199+03491+01811101081ADDAA101999999AZ101061AZ201061GA1021+006001081GE19MSL   +99999+99999GF102991021999006001999999MA1999999098431MD1999999+0051REMSYN004BUFR
0136825860999992015091800004-05200-039300FM-12+021299999V0200501N0057199999999001000199+02791+02151101211ADDAA101999999AZ101061AZ201061GA1021+050001081GE19MSL   +99999+99999GF102991021999050001999999MA1999999098551MD1999999+0001REMSYN004BUFR
0165825860999992015091812004-05200-039300FM-12+021299999V0200901N0051199999999020000199+02691+02061101451ADDAA101999999AZ101061AZ201061GA1031+006001081GA2999+999999001GE19MSL   +99999+99999GF104991031999006001999999KA1120N+02201MA1999999098781MD1999999+0091REMSYN004BUFR
0136825860999992015091818004-05200-039300FM-12+021299999V0200901N0057100600199020000199+02391+02001101051ADDAA101999999AZ101061AZ201061GA1051+006001081GE19MSL   +99999+99999GF105991051999006001999999MA1999999098401MD1999999-0031REMSYN004BUFR
0098825860999992015091900004-05200-039300FM-12+021299999V0200501N0062122000199001000199+02691+02261101211ADDAA101999999AZ101061AZ201061GF100991999999999999999999MA1999999098551MD1999999+0001REMSYN004BUFR
0149825860999992015091912004-05200-039300FM-12+021299999V0200501N0087199999999020000199+02721+02081101471ADDAA101999999AZ101061AZ201061GA1021+006001081GE19MSL   +99999+99999GF102991021999006001999999KA1120N+02281MA1999999098801MD1999999+0021REMSYN004BUFR
0136825860999992015091918004-05200-039300FM-12+021299999V0200901N0057199999999020000199+03441+02071101131ADDAA101999999AZ101061AZ201061GA1031+006001081GE19MSL   +99999+99999GF103991031999006001999999MA1999999098481MD1999999+0081REMSYN004BUFR
0098825860999992015092000004-05200-039300FM-12+021299999V0200901N0062122000199001000199+02691+02431101241ADDAA101999999AZ101061AZ201061GF100991999999999999999999MA1999999098571MD1999999+0021REMSYN004BUFR
0181825860999992015092012004-05200-039300FM-12+021299999V0200901N0046100600199020000199+02591+02211101491ADDAA101999999AZ101061AZ201061GA1081+006001071GA2999+999999101GA3999+999999101GE19MSL   +99999+99999GF108991081999006001999999KA1120N+02221MA1999999098811MD1999999+0011REMSYN004BUFR
0136825860999992015092018004-05200-039300FM-12+021299999V0201801N0015100600199020000199+03271+02131101151ADDAA101999999AZ101061AZ201061GA1051+006001081GE19MSL   +99999+99999GF105991051999006001999999MA1999999098491MD1999999+0011REMSYN004BUFR
0098825860999992015092100004-05200-039300FM-12+021299999V0200901N0051122000199001000199+02721+02301101231ADDAA101999999AZ101061AZ201061GF100991999999999999999999MA1999999098561MD1999999-0011REMSYN004BUFR
0149825860999992015092112004-05200-039300FM-12+021299999V0200901N0067199999999020000199+02691+02111101581ADDAA101999999AZ101061AZ201061GA1999+006001001GE19MSL   +99999+99999GF101991999999006001999999KA1120N+02201MA1999999098901MD1999999+0091REMSYN004BUFR
0136825860999992015092118004-05200-039300FM-12+021299999V0200901N0046199999999020000199+03421+01941101151ADDAA101999999AZ101061AZ201061GA1021+006001081GE19MSL   +99999+99999GF102991021999006001999999MA1999999098501MD1999999+0011REMSYN004BUFR
0098825860999992015092200004-05200-039300FM-12+021299999V0201401N0041122000199001000199+02691+02201101271ADDAA101999999AZ101061AZ201061GF100991999999999999999999MA1999999098601MD1999999+0041REMSYN004BUFR
0149825860999992015092212004-05200-039300FM-12+021299999V0201401N0046100600199020000199+02521+02171101531ADDAA101999999AZ101061AZ201061GA1071+006001031GE19MSL   +99999+99999GF107991071999006001999999KA1120N+02181MA1999999098841MD1999999-0061REMSYN004BUFR
0136825860999992015092218004-05200-039300FM-12+021299999V0200901N0046199999999020000199+03391+01961101131ADDAA101999999AZ101061AZ201061GA1999+006001001GE19MSL   +99999+99999GF101991999999006001999999MA1999999098481MD1999999-0021REMSYN004BUFR
0098825860999992015092300004-05200-039300FM-12+021299999V0201401N0062122000199004000199+02691+02391101251ADDAA101999999AZ101061AZ201061GF100991999999999999999999MA1999999098601MD1999999+0001REMSYN004BUFR
0165825860999992015092312004-05170-039280FM-12+021299999V0200901N0072199999999020000199+02791+02131101471ADDAA101999999AZ101061AZ201061GA1021+006001081GA2999+999999001GE19MSL   +99999+99999GF103991021999006001999999KA1120N+02301MA1999999098801MD1999999-0041REMSYN004BUFR
0136825860999992015092318004-05170-039280FM-12+021299999V0201401N0051199999999020000199+03491+02021101081ADDAA101999999AZ101061AZ201061GA1021+006001081GE19MSL   +99999+99999GF102991021999006001999999MA1999999098441MD1999999-0041REMSYN004BUFR
0098825860999992015092400004-05170-039280FM-12+021299999V0201401N0036122000199001000199+02791+02311101241ADDAA101999999AZ101061AZ201061GF100991999999999999999999MA1999999098581MD1999999-0021REMSYN004BUFR
0181825860999992015092412004-05170-039280FM-12+021299999V0200901N0051100600199020000199+02691+02151101511ADDAA101999999AZ101061AZ201061GA1081+006001071GA2999+999999101GA3999+999999101GE19MSL   +99999+99999GF108991081999006001999999KA1120N+02281MA1999999098841MD1999999+0041REMSYN004BUFR
0136825860999992015092418004-05170-039280FM-12+021299999V0201401N0041199999999020000199+03391+02041101131ADDAA101999999AZ101061AZ201061GA1041+006001081GE19MSL   +99999+99999GF104991041999006001999999MA1999999098481MD1999999+0041REMSYN004BUFR
0098825860999992015092500004-05170-039280FM-12+021299999V0201401N0067122000199001000199+02741+02241101361ADDAA101999999AZ101061AZ201061GF100991999999999999999999MA1999999098691MD1999999+0111REMSYN004BUFR
0149825860999992015092512004-05170-039280FM-12+021299999V0200901N0021199999999020000199+02741+02071101521ADDAA101999999AZ101061AZ201061GA1041+006001081GE19MSL   +99999+99999GF104991041999006001999999KA1120N+02241MA1999999098851MD1999999+0011REMSYN004BUFR
0136825860999992015092518004-05170-039280FM-12+021299999V0200901N0046199999999020000199+03421+01911101171ADDAA101999999AZ101061AZ201061GA1031+006001081GE19MSL   +99999+99999GF103991031999006001999999MA1999999098521MD1999999+0041REMSYN004BUFR
0098825860999992015092600004-05170-039280FM-12+021299999V0201401N0062122000199001000199+02741+02281101341ADDAA101999999AZ101061AZ201061GF100991999999999999999999MA1999999098671MD1999999-0061REMSYN004BUFR
0149825860999992015092612004-05170-039280FM-12+021299999V0201401N0082100600199020000199+02641+02141101421ADDAA101999999AZ101061AZ201061GA1061+006001081GE19MSL   +99999+99999GF106991061999006001999999KA1120N+02181MA1999999098751MD1999999-0101REMSYN004BUFR
0136825860999992015092618004-05170-039280FM-12+021299999V0201401N0051199999999020000199+03491+01811101051ADDAA101999999AZ101061AZ201061GA1021+006001081GE19MSL   +99999+99999GF102991021999006001999999MA1999999098401MD1999999-0121REMSYN004BUFR
0098825860999992015092700004-05170-039280FM-12+021299999V0201401N0051122000199002000199+02691+02221101261ADDAA101999999AZ101061AZ201061GF100991999999999999999999MA1999999098591MD1999999-0081REMSYN004BUFR
0149825860999992015092712004-05170-039280FM-12+021299999V0201401N0046199999999020000199+02641+02181101471ADDAA101999999AZ101061AZ201061GA1041+006001081GE19MSL   +99999+99999GF104991041999006001999999KA1120N+02321MA1999999098801MD1999999+0051REMSYN004BUFR
0136825860999992015092718004-05170-039280FM-12+021299999V0200901N0041199999999020000199+03491+01901101041ADDAA101999999AZ101061AZ201061GA1011+006001081GE19MSL   +99999+99999GF101991011999006001999999MA1999999098401MD1999999+0001REMSYN004BUFR
0098825860999992015092800004-05170-039280FM-12+021299999V0201401N0051122000199001000199+02741+02241101261ADDAA101999999AZ101061AZ201061GF100991999999999999999999MA1999999098591MD1999999+0001REMSYN004BUFR
0165825860999992015092812004-05170-039280FM-12+021299999V0201401N0031199999999020000199+02651+02041101471ADDAA101999999AZ101061AZ201061GA1041+006001081GA2999+999999001GE19MSL   +99999+99999GF105991041999006001999999KA1120N+02221MA1999999098801MD1999999+0051REMSYN004BUFR
0098825860999992015092818004-05170-039280FM-12+021299999V0200501N0031122000199020000199+03471+01751101051ADDAA101999999AZ101061AZ201061GF100991999999999999999999MA1999999098401MD1999999+0001REMSYN004BUFR
0098825860999992015092900004-05170-039280FM-12+021299999V0201401N0041122000199001000199+02691+02241101171ADDAA101999999AZ101061AZ201061GF100991999999999999999999MA1999999098501MD1999999-0091REMSYN004BUFR
0165825860999992015092912004-05170-039280FM-12+021299999V0201401N0051199999999020000199+02691+02111101371ADDAA101999999AZ101061AZ201061GA1041+006001081GA2999+999999001GE19MSL   +99999+99999GF105991041999006001999999KA1120N+02281MA1999999098701MD1999999-0101REMSYN004BUFR
0098825860999992015092918004-05170-039280FM-12+021299999V0201401N0051199999999020000199+03521+01721100961ADDAA101999999AZ101061AZ201061GF100991999999999999999999MA1999999098321MD1999999-0081REMSYN004BUFR
0098825860999992015093000004-05170-039280FM-12+021299999V0201801N0051122000199001000199+02691+02261101061ADDAA101999999AZ101061AZ201061GF100991999999999999999999MA1999999098401MD1999999-0101REMSYN004BUFR
0149825860999992015093012004-05170-039280FM-12+021299999V0201801N0051100600199020000199+02621+02141101441ADDAA101999999AZ101061AZ201061GA1051+006001081GE19MSL   +99999+99999GF105991051999006001999999KA1120N+02261MA1999999098761MD1999999+0061REMSYN004BUFR
0136825860999992015093018004-05170-039280FM-12+021299999V0201401N0041199999999020000199+03491+02021100991ADDAA101999999AZ101061AZ201061GA1021+006001081GE19MSL   +99999+99999GF102991021999006001999999MA1999999098351MD1999999+0031REMSYN004BUFR
0098825860999992015100100004-05170-039280FM-12+021299999V0201401N0051122000199001000199+02691+02201101171ADDAA101999999AZ101061AZ201061GF100991999999999999999999MA1999999098501MD1999999+0101REMSYN004BUFR
0149825860999992015100112004-05170-039280FM-12+021299999V0201401N0077100600199020000199+02791+02151101371ADDAA101999999AZ101061AZ201061GA1051+006001081GE19MSL   +99999+99999GF105991051999006001999999KA1120N+02301MA1999999098701MD1999999-0061REMSYN004BUFR
0136825860999992015100118004-05170-039280FM-12+021299999V0201801N0082199999999020000199+03421+02091101051ADDAA101999999AZ101061AZ201061GA1041+006001081GE19MSL   +99999+99999GF104991041999006001999999MA1999999098401MD1999999+0051REMSYN004BUFR
0098825860999992015100200004-05170-039280FM-12+021299999V0201801N0077122000199001000199+02721+02111101201ADDAA101999999AZ101061AZ201061GF100991999999999999999999MA1999999098541MD1999999+0041REMSYN004BUFR
0149825860999992015100212004-05170-039280FM-12+021299999V0200901N0031199999999020000199+02791+02001101451ADDAA101999999AZ101061AZ201061GA1021+006001081GE19MSL   +99999+99999GF102991021999006001999999KA1120N+02281MA1999999098781MD1999999+0081REMSYN004BUFR
0136825860999992015100218004-05170-039280FM-12+021299999V0201401N0041199999999020000199+03471+01791101041ADDAA101999999AZ101061AZ201061GA1999+080001001GE19MSL   +99999+99999GF101991999999080001999999MA1999999098401MD1999999+0001REMSYN004BUFR
0098825860999992015100300004-05170-039280FM-12+021299999V0201401N0051122000199001000199+02791+02111101191ADDAA101999999AZ101061AZ201061GF100991999999999999999999MA1999999098541MD1999999+0001REMSYN004BUFR
0149825860999992015100312004-05170-039280FM-12+021299999V0201401N0046199999999020000199+02721+02081101441ADDAA101999999AZ101061AZ201061GA1021+006001081GE19MSL   +99999+99999GF102991021999006001999999KA1120N+02301MA1999999098771MD1999999-0011REMSYN004BUFR
0136825860999992015100318004-05170-039280FM-12+021299999V0201401N0031199999999020000199+03491+02131101121ADDAA101999999AZ101061AZ201061GA1041+006001081GE19MSL   +99999+99999GF104991041999006001999999MA1999999098481MD1999999+0081REMSYN004BUFR
0098825860999992015100400004-05170-039280FM-12+021299999V0200901N0067122000199001000199+02721+02221101251ADDAA101999999AZ101061AZ201061GF100991999999999999999999MA1999999098581MD1999999+0051REMSYN004BUFR
0111825860999992015100412004-05170-039280FM-12+021299999V0200901N0062122000199001000199+02771+02061101471ADDAA101999999AZ101061AZ201061GF100991999999999999999999KA1120N+02281MA1999999098801MD1999999+0031REMSYN004BUFR
0136825860999992015100418004-05170-039280FM-12+021299999V0200501N0031199999999020000199+03591+01991101121ADDAA101999999AZ101061AZ201061GA1999+006001001GE19MSL   +99999+99999GF103991999999006001999999MA1999999098481MD1999999+0001REMSYN004BUFR
0098825860999992015100500004-05170-039280FM-12+021299999V0200901N0082122000199001000199+02721+02261101381ADDAA101999999AZ101061AZ201061GF100991999999999999999999MA1999999098711MD1999999+0131REMSYN004BUFR
0149825860999992015100512004-05170-039280FM-12+021299999V0200501N0026100600199020000199+02691+02151101581ADDAA101999999AZ101061AZ201061GA1071+006001081GE19MSL   +99999+99999GF107991071999006001999999KA1120N+02301MA1999999098901MD1999999+0101REMSYN004BUFR
0136825860999992015100518004-05170-039280FM-12+021299999V0200501N0026199999999020000199+03521+02151101091ADDAA101999999AZ101061AZ201061GA1041+006001081GE19MSL   +99999+99999GF104991041999006001999999MA1999999098451MD1999999-0031REMSYN004BUFR
0098825860999992015100600004-05170-039280FM-12+021299999V0200901N0041122000199001000199+02691+02201101471ADDAA101999999AZ101061AZ201061GF100991999999999999999999MA1999999098801MD1999999+0091REMSYN004BUFR
0181825860999992015100612004-05170-039280FM-12+021299999V0200901N0031100600199020000199+02691+02171101581ADDAA101999999AZ101061AZ201061GA1081+006001071GA2999+999999101GA3999+999999101GE19MSL   +99999+99999GF108991081999006001999999KA1120N+02381MA1999999098901MD1999999+0001REMSYN004BUFR
0152825860999992015100618004-05170-039280FM-12+021299999V0200901N0031199999999020000199+03371+02221101251ADDAA101999999AZ101061AZ201061GA1041+006001081GA2999+999999001GE19MSL   +99999+99999GF106991041999006001999999MA1999999098601MD1999999+0151REMSYN004BUFR
0098825860999992015100700004-05170-039280FM-12+021299999V0200901N0051122000199001000199+02821+02221101411ADDAA101999999AZ101061AZ201061GF100991999999999999999999MA1999999098741MD1999999-0061REMSYN004BUFR
0149825860999992015100712004-05170-039280FM-12+021299999V0200901N0072199999999020000199+02791+02151101531ADDAA101999999AZ101061AZ201061GA1041+006001081GE19MSL   +99999+99999GF104991041999006001999999KA1120N+02261MA1999999098861MD1999999-0041REMSYN004BUFR
0152825860999992015100718004-05170-039280FM-12+021299999V0201401N0015199999999020000199+03291+02181101151ADDAA101999999AZ101061AZ201061GA1031+006001081GA2999+999999031GE19MSL   +99999+99999GF105991031999006001999999MA1999999098501MD1999999-0101REMSYN004BUFR
0098825860999992015100800004-05170-039280FM-12+021299999V0201401N0067122000199001000199+02691+02411101311ADDAA101999999AZ101061AZ201061GF100991999999999999999999MA1999999098651MD1999999-0091REMSYN004BUFR
0149825860999992015100812004-05170-039280FM-12+021299999V0201401N0046199999999020000199+02851+02111101461ADDAA101999999AZ101061AZ201061GA1021+006001081GE19MSL   +99999+99999GF102991021999006001999999KA1120N+02401MA1999999098801MD1999999-0091REMSYN004BUFR
0136825860999992015100818004-05170-039280FM-12+021299999V0201401N0067199999999020000199+03521+01961101101ADDAA101999999AZ101061AZ201061GA1031+006001081GE19MSL   +99999+99999GF103991031999006001999999MA1999999098461MD1999999-0041REMSYN004BUFR
0098825860999992015100900004-05170-039280FM-12+021299999V0201401N0067122000199001000199+02651+02291101281ADDAA101999999AZ101061AZ201061GF100991999999999999999999MA1999999098621MD1999999-0031REMSYN004BUFR
0149825860999992015100912004-05170-039280FM-12+021299999V0201401N0051199999999020000199+02791+02061101551ADDAA101999999AZ101061AZ201061GA1031+006001081GE19MSL   +99999+99999GF103991031999006001999999KA1120N+02301MA1999999098881MD1999999+0081REMSYN004BUFR
0152825860999992015100918004-05170-039280FM-12+021299999V0201401N0051199999999020000199+03391+01891101231ADDAA101999999AZ101061AZ201061GA1031+006001081GA2999+999999031GE19MSL   +99999+99999GF105991031999006001999999MA1999999098581MD1999999+0121REMSYN004BUFR
0098825860999992015101000004-05170-039280FM-12+021299999V0201401N0051122000199001000199+02691+02331101411ADDAA101999999AZ101061AZ201061GF100991999999999999999999MA1999999098741MD1999999+0121REMSYN004BUFR
0149825860999992015101012004-05170-039280FM-12+021299999V0201401N0062199999999020000199+02721+02121101561ADDAA101999999AZ101061AZ201061GA1041+006001081GE19MSL   +99999+99999GF104991041999006001999999KA1120N+02301MA1999999098901MD1999999+0021REMSYN004BUFR
0136825860999992015101018004-05170-039280FM-12+021299999V0200901N0041199999999020000199+03451+01981101231ADDAA101999999AZ101061AZ201061GA1031+006001081GE19MSL   +99999+99999GF103991031999006001999999MA1999999098581MD1999999+0001REMSYN004BUFR
0098825860999992015101100004-05170-039280FM-12+021299999V0201401N0062122000199001000199+02721+02261101371ADDAA101999999AZ101061AZ201061GF100991999999999999999999MA1999999098701MD1999999+0061REMSYN004BUFR
0149825860999992015101112004-05170-039280FM-12+021299999V0201401N0041100600199020000199+02691+02111101471ADDAA101999999AZ101061AZ201061GA1061+006001081GE19MSL   +99999+99999GF106991061999006001999999KA1120N+02281MA1999999098801MD1999999-0101REMSYN004BUFR
0098825860999992015101200004-05170-039280FM-12+021299999V0201401N0051122000199001000199+02691+02281101361ADDAA101999999AZ101061AZ201061GF100991999999999999999999MA1999999098691MD1999999-0011REMSYN004BUFR
0149825860999992015101212004-05170-039280FM-12+021299999V0200901N0051199999999020000199+02751+02071101531ADDAA101999999AZ101061AZ201061GA1041+006001081GE19MSL   +99999+99999GF104991041999006001999999KA1120N+02381MA1999999098861MD1999999+0061REMSYN004BUFR
0098825860999992015101300004-05170-039280FM-12+021299999V0201401N0062122000199020000199+02791+02001101331ADDAA101999999AZ101061AZ201061GF100991999999999999999999MA1999999098671MD1999999-0021REMSYN004BUFR
0149825860999992015101312004-05170-039280FM-12+021299999V0201401N0072199999999020000199+02891+01991101621ADDAA101999999AZ101061AZ201061GA1999+080001001GE19MSL   +99999+99999GF101991999999080001999999KA1120N+02281MA1999999098961MD1999999+0101REMSYN004BUFR
0098825860999992015101400004-05170-039280FM-12+021299999V0201401N0067122000199001000199+02891+02321101311ADDAA101999999AZ101061AZ201061GF100991999999999999999999MA1999999098661MD1999999-0011REMSYN004BUFR
0165825860999992015101412004-05170-039280FM-12+021299999V0200901N0062199999999020000199+02841+02171101641ADDAA101999999AZ101061AZ201061GA1041+006001081GA2999+999999001GE19MSL   +99999+99999GF106991041999006001999999KA1120N+02301MA1999999098981MD1999999+0021REMSYN004BUFR
0098825860999992015101500004-05170-039280FM-12+021299999V0200901N0051122000199001000199+02891+02371101311ADDAA101999999AZ101061AZ201061GF100991999999999999999999MA1999999098661MD1999999+0001REMSYN004BUFR
0149825860999992015101512004-05170-039280FM-12+021299999V0201401N0077199999999020000199+02841+02041101511ADDAA101999999AZ101061AZ201061GA1021+006001081GE19MSL   +99999+99999GF102991021999006001999999KA1120N+02401MA1999999098861MD1999999-0121REMSYN004BUFR
0098825860999992015101600004-05170-039280FM-12+021299999V0201401N0026122000199001000199+02971+02041101411ADDAA101999999AZ101061AZ201061GF100991999999999999999999MA1999999098751MD1999999+0091REMSYN004BUFR
0149825860999992015101612004-05170-039280FM-12+021299999V0201401N0051199999999020000199+02791+02081101581ADDAA101999999AZ101061AZ201061GA1041+006001081GE19MSL   +99999+99999GF104991041999006001999999KA1120N+02301MA1999999098931MD1999999+0071REMSYN004BUFR
0098825860999992015101700004-05170-039280FM-12+021299999V0201401N0057122000199001000199+02841+02241101311ADDAA101999999AZ101061AZ201061GF100991999999999999999999MA1999999098651MD1999999-0101REMSYN004BUFR
0149825860999992015101712004-05170-039280FM-12+021299999V0201401N0041100600199020000199+02841+02091101601ADDAA101999999AZ101061AZ201061GA1051+006001081GE19MSL   +99999+99999GF105991051999006001999999KA1120N+02281MA1999999098941MD1999999+0011REMSYN004BUFR
0098825860999992015101800004-05170-039280FM-12+021299999V0201401N0067122000199001000199+02751+02161101381ADDAA101999999AZ101061AZ201061GF100991999999999999999999MA1999999098721MD1999999+0071REMSYN004BUFR
0181825860999992015101812004-05170-039280FM-12+021299999V0201401N0031100600199020000199+02591+02231101601ADDAA101999999AZ101061AZ201061GA1081+006001071GA2999+999999101GA3999+999999101GE19MSL   +99999+99999GF108991081999006001999999KA1120N+02301MA1999999098921MD1999999-0021REMSYN004BUFR
0098825860999992015101900004-05170-039280FM-12+021299999V0200501N0087122000199020000199+02791+02201101421ADDAA101999999AZ101061AZ201061GF100991999999999999999999MA1999999098751MD1999999+0031REMSYN004BUFR
0149825860999992015101912004-05170-039280FM-12+021299999V0200901N0051100600199020000199+02691+02261101621ADDAA101999999AZ101061AZ201061GA1061+006001081GE19MSL   +99999+99999GF106991061999006001999999KA1120N+02281MA1999999098951MD1999999+0011REMSYN004BUFR
0098825860999992015102000004-05170-039280FM-12+021299999V0201401N0082122000199001000199+02821+02321101311ADDAA101999999AZ101061AZ201061GF100991999999999999999999MA1999999098651MD1999999-0101REMSYN004BUFR
0165825860999992015102012004-05170-039280FM-12+021299999V0200901N0031199999999020000199+02741+02071101481ADDAA101999999AZ101061AZ201061GA1011+006001081GA2999+999999001GE19MSL   +99999+99999GF103991011999006001999999KA1120N+02281MA1999999098821MD1999999-0131REMSYN004BUFR
0098825860999992015102100004-05170-039280FM-12+021299999V0201401N0067122000199020000199+02791+02341101281ADDAA101999999AZ101061AZ201061GF100991999999999999999999MA1999999098621MD1999999-0031REMSYN004BUFR
0149825860999992015102112004-05170-039280FM-12+021299999V0201401N0031199999999020000199+02751+02071101611ADDAA101999999AZ101061AZ201061GA1011+006001081GE19MSL   +99999+99999GF101991011999006001999999KA1120N+02281MA1999999098941MD1999999+0121REMSYN004BUFR
0168825860999992015102118004-05170-039280FM-12+021299999V0200901N0031100600199020000199+03391+01891101201ADDAA101999999AZ101061AZ201061GA1081+006001071GA2999+999999101GA3999+999999101GE19MSL   +99999+99999GF108991081999006001999999MA1999999098581MD1999999+0041REMSYN004BUFR
0098825860999992015102200004-05170-039280FM-12+021299999V0201401N0067122000199001000199+02751+02161101381ADDAA101999999AZ101061AZ201061GF100991999999999999999999MA1999999098721MD1999999-0101REMSYN004BUFR
0149825860999992015102212004-05170-039280FM-12+021299999V0201401N0051199999999020000199+02851+02061101561ADDAA101999999AZ101061AZ201061GA1021+006001081GE19MSL   +99999+99999GF102991021999006001999999KA1120N+02281MA1999999098891MD1999999-0041REMSYN004BUFR
0136825860999992015102218004-05170-039280FM-12+021299999V0201401N0051199999999020000199+03591+01991101051ADDAA101999999AZ101061AZ201061GA1021+006001081GE19MSL   +99999+99999GF102991021999006001999999MA1999999098411MD1999999-0171REMSYN004BUFR
0098825860999992015102300004-05170-039280FM-12+021299999V0201401N0062122000199001000199+02641+02291101431ADDAA101999999AZ101061AZ201061GF100991999999999999999999MA1999999098761MD1999999+0041REMSYN004BUFR
0149825860999992015102312004-05170-039280FM-12+021299999V0200901N0051100600199020000199+02691+02241101541ADDAA101999999AZ101061AZ201061GA1061+006001081GE19MSL   +99999+99999GF106991061999006001999999KA1120N+02401MA1999999098871MD1999999-0021REMSYN004BUFR
0136825860999992015102318004-05170-039280FM-12+021299999V0200901N0031199999999020000199+03391+02001101181ADDAA101999999AZ101061AZ201061GA1041+006001081GE19MSL   +99999+99999GF106991041999006001999999MA1999999098541MD1999999+0131REMSYN004BUFR
0098825860999992015102400004-05170-039280FM-12+021299999V0200901N0051122000199001000199+02691+02391101441ADDAA101999999AZ101061AZ201061GF100991999999999999999999MA1999999098761MD1999999+0011REMSYN004BUFR
0165825860999992015102412004-05170-039280FM-12+021299999V0200901N0051199999999020000199+02791+02061101641ADDAA101999999AZ101061AZ201061GA1041+006001081GA2999+999999001GE19MSL   +99999+99999GF106991041999006001999999KA1120N+02321MA1999999098971MD1999999+0101REMSYN004BUFR
0152825860999992015102418004-05170-039280FM-12+021299999V0200901N0051199999999020000199+03321+02001101261ADDAA101999999AZ101061AZ201061GA1031+006001081GA2999+999999001GE19MSL   +99999+99999GF104991031999006001999999MA1999999098601MD1999999+0061REMSYN004BUFR
0098825860999992015102500004-05170-039280FM-12+021299999V0200901N0051122000199001000199+02691+02111101501ADDAA101999999AZ101061AZ201061GF100991999999999999999999MA1999999098831MD1999999+0071REMSYN004BUFR
0149825860999992015102512004-05170-039280FM-12+021299999V0200901N0036199999999020000199+02741+01971101601ADDAA101999999AZ101061AZ201061GA1041+006001081GE19MSL   +99999+99999GF104991041999006001999999KA1120N+02281MA1999999098921MD1999999-0051REMSYN004BUFR
0136825860999992015102518004-05170-039280FM-12+021299999V0201401N0041199999999020000199+03441+01801101181ADDAA101999999AZ101061AZ201061GA1021+006001081GE19MSL   +99999+99999GF102991021999006001999999MA1999999098531MD1999999-0071REMSYN004BUFR
0098825860999992015102600004-05170-039280FM-12+021299999V0200901N0067122000199001000199+02821+02121101461ADDAA101999999AZ101061AZ201061GF100991999999999999999999MA1999999098801MD1999999+0031REMSYN004BUFR
0149825860999992015102612004-05170-039280FM-12+021299999V0201401N0051199999999020000199+02851+02161101641ADDAA101999999AZ101061AZ201061GA1041+006001081GE19MSL   +99999+99999GF104991041999006001999999KA1120N+02321MA1999999098981MD1999999+0061REMSYN004BUFR
0136825860999992015102618004-05170-039280FM-12+021299999V0201401N0036199999999020000199+03541+01851101141ADDAA101999999AZ101061AZ201061GA1031+006001081GE19MSL   +99999+99999GF103991031999006001999999MA1999999098501MD1999999-0031REMSYN004BUFR
0098825860999992015102700004-05170-039280FM-12+021299999V0200901N0051122000199001000199+02741+02241101421ADDAA101999999AZ101061AZ201061GF100991999999999999999999MA1999999098761MD1999999-0041REMSYN004BUFR
0149825860999992015102712004-05170-039280FM-12+021299999V0200901N0051199999999020000199+02741+02071101611ADDAA101999999AZ101061AZ201061GA1999+006001001GE19MSL   +99999+99999GF101991999999006001999999KA1120N+02281MA1999999098941MD1999999-0041REMSYN004BUFR
0136825860999992015102718004-05170-039280FM-12+021299999V0200901N0051199999999020000199+03541+02051101181ADDAA101999999AZ101061AZ201061GA1999+006001001GE19MSL   +99999+99999GF101991999999006001999999MA1999999098541MD1999999-0041REMSYN004BUFR
0098825860999992015102800004-05170-039280FM-12+021299999V0201401N0072122000199001000199+02691+02111101371ADDAA101999999AZ101061AZ201061GF100991999999999999999999MA1999999098701MD1999999-0071REMSYN004BUFR
0149825860999992015102812004-05170-039280FM-12+021299999V0200901N0051199999999020000199+02741+02071101661ADDAA101999999AZ101061AZ201061GA1021+006001081GE19MSL   +99999+99999GF102991021999006001999999KA1120N+02281MA1999999098981MD1999999+0041REMSYN004BUFR
0152825860999992015102818004-05170-039280FM-12+021299999V0200901N0031199999999020000199+03491+02021101161ADDAA101999999AZ101061AZ201061GA1021+006001081GA2999+999999001GE19MSL   +99999+99999GF103991021999006001999999MA1999999098521MD1999999-0021REMSYN004BUFR
0098825860999992015102900004-05170-039280FM-12+021299999V0201401N0087122000199001000199+02741+02101101371ADDAA101999999AZ101061AZ201061GF100991999999999999999999MA1999999098701MD1999999+0001REMSYN004BUFR
0149825860999992015102912004-05170-039280FM-12+021299999V0201401N0067199999999020000199+02791+02201101491ADDAA101999999AZ101061AZ201061GA1021+006001081GE19MSL   +99999+99999GF102991021999006001999999KA1120N+02301MA1999999098821MD1999999-0161REMSYN004BUFR
0152825860999992015102918004-05170-039280FM-12+021299999V0201401N0051199999999020000199+03451+01941101141ADDAA101999999AZ101061AZ201061GA1011+006001081GA2999+999999001GE19MSL   +99999+99999GF102991011999006001999999MA1999999098491MD1999999-0031REMSYN004BUFR
0098825860999992015103000004-05170-039280FM-12+021299999V0200901N0067122000199001000199+02741+02241101351ADDAA101999999AZ101061AZ201061GF100991999999999999999999MA1999999098681MD1999999-0021REMSYN004BUFR
0149825860999992015103012004-05170-039280FM-12+021299999V0200901N0051199999999020000199+02821+02201101551ADDAA101999999AZ101061AZ201061GA1041+006001081GE19MSL   +99999+99999GF104991041999006001999999KA1120N+02341MA1999999098881MD1999999+0061REMSYN004BUFR
0136825860999992015103018004-05170-039280FM-12+021299999V0201401N0031199999999020000199+03291+01931101121ADDAA101999999AZ101061AZ201061GA1041+006001081GE19MSL   +99999+99999GF104991041999006001999999MA1999999098471MD1999999-0021REMSYN004BUFR
0098825860999992015103100004-05170-039280FM-12+021299999V0200501N0051122000199001000199+02641+02181101331ADDAA101999999AZ101061AZ201061GF100991999999999999999999MA1999999098661MD1999999-0021REMSYN004BUFR
0149825860999992015103112004-05170-039280FM-12+021299999V0200901N0031100600199020000199+02641+02121101601ADDAA101999999AZ101061AZ201061GA1061+006001061GE19MSL   +99999+99999GF106991061999006001999999KA1120N+02381MA1999999098941MD1999999+0061REMSYN004BUFR
0121825860999992015103118004-05170-039280FM-12+021299999V0201401N0051100600199020000199+03351+01831101251ADDAA101999999AZ101061AZ201061GA1061+006001061GE19MSL   +99999+99999GF106991061999006001999999MD1999999+0131REMSYN004BUFR
0098825860999992015110100004-05170-039280FM-12+021299999V0200901N0051122000199001000199+02641+02031101391ADDAA101999999AZ101061AZ201061GF100991999999999999999999MA1999999098711MD1999999+0051REMSYN004BUFR
0155825860999992015110112004-05170-039280FM-12+021299999V0200901N0072199999999020000199+02791+02151101561ADDAA124000231AY151061AY221061GA1041+006001081GE19MSL   +99999+99999GF104991041999006001999999KA1120N+02281MA1999999098881MD1999999-0061MW1021REMSYN004BUFR
0136825860999992015110118004-05170-039280FM-12+021299999V0200901N0057100600199020000199+03441+01841101061ADDAA101999999AZ101061AZ201061GA1061+006001061GE19MSL   +99999+99999GF106991061999006001999999MA1999999098411MD1999999-0191REMSYN004BUFR
0098825860999992015110200004-05170-039280FM-12+021299999V0200901N0051122000199001000199+02751+02281101271ADDAA101999999AZ101061AZ201061GF100991999999999999999999MA1999999098611MD1999999-0101REMSYN004BUFR
0149825860999992015110212004-05170-039280FM-12+021299999V0200901N0067199999999020000199+02751+02161101471ADDAA101999999AZ101061AZ201061GA1031+006001081GE19MSL   +99999+99999GF103991031999006001999999KA1120N+02281MA1999999098801MD1999999-0081REMSYN004BUFR
0136825860999992015110218004-05170-039280FM-12+021299999V0200901N0015199999999020000199+03491+01811101051ADDAA101999999AZ101061AZ201061GA1031+006001081GE19MSL   +99999+99999GF103991031999006001999999MA1999999098411MD1999999+0001REMSYN004BUFR
0098825860999992015110300004-05170-039280FM-12+021299999V0200901N0051122000199004000199+02691+02081100171ADDAA101999999AZ101061AZ201061GF100991999999999999999999MA1999999098511MD1999999-0101REMSYN004BUFR
0149825860999992015110312004-05170-039280FM-12+021299999V0200901N0031100600199020000199+02891+02101101401ADDAA101999999AZ101061AZ201061GA1051+006001081GE19MSL   +99999+99999GF105991051999006001999999KA1120N+02401MA1999999098741MD1999999+0061REMSYN004BUFR
0136825860999992015110318004-05170-039280FM-12+021299999V0200501N0051199999999020000199+03391+02111101161ADDAA101999999AZ101061AZ201061GA1031+006001081GE19MSL   +99999+99999GF103991031999006001999999MA1999999098521MD1999999+0101REMSYN004BUFR
0098825860999992015110400004-05170-039280FM-12+021299999V0200901N0067122000199001000199+02691+02101101271ADDAA101999999AZ101061AZ201061GF100991999999999999999999MA1999999098601MD1999999+0091REMSYN004BUFR
0149825860999992015110412004-05170-039280FM-12+021299999V0200901N0072199999999020000199+02791+02151101341ADDAA101999999AZ101061AZ201061GA1041+006001081GE19MSL   +99999+99999GF104991041999006001999999KA1120N+02281MA1999999098691MD1999999+0131REMSYN004BUFR
0136825860999992015110418004-05170-039280FM-12+021299999V0200901N0031199999999020000199+03351+02371101211ADDAA101999999AZ101061AZ201061GA1031+006001081GE19MSL   +99999+99999GF103991031999006001999999MA1999999098561MD1999999+0041REMSYN004BUFR
0098825860999992015110500004-05170-039280FM-12+021299999V0200501N0051122000199001000199+02791+02151101261ADDAA101999999AZ101061AZ201061GF100991999999999999999999MA1999999098601MD1999999+0001REMSYN004BUFR
0149825860999992015110512004-05170-039280FM-12+021299999V0200901N0031199999999004000199+02871+02081101391ADDAA101999999AZ101061AZ201061GA1041+006001081GE19MSL   +99999+99999GF104991041999006001999999KA1120N+02361MA1999999098741MD1999999+0051REMSYN004BUFR
0136825860999992015110518004-05170-039280FM-12+021299999V0200901N0046199999999020000199+03391+02211101281ADDAA101999999AZ101061AZ201061GA1031+006001081GE19MSL   +99999+99999GF103991031999006001999999MA1999999098631MD1999999+0051REMSYN004BUFR
0098825860999992015110600004-05170-039280FM-12+021299999V0200901N0051122000199001000199+02991+02371101211ADDAA101999999AZ101061AZ201061GF100991999999999999999999MA1999999098561MD1999999-0041REMSYN004BUFR
0149825860999992015110612004-05170-039280FM-12+021299999V0200901N0031199999999020000199+02791+02001101371ADDAA101999999AZ101061AZ201061GA1041+006001001GE19MSL   +99999+99999GF104991041999006001999999KA1120N+02401MA1999999098721MD1999999+0021REMSYN004BUFR
0136825860999992015110618004-05170-039280FM-12+021299999V0200901N0026199999999020000199+03491+02301101231ADDAA101999999AZ101061AZ201061GA1041+006001001GE19MSL   +99999+99999GF104991041999006001999999MA1999999098591MD1999999+0041REMSYN004BUFR
0149825860999992015110712004-05170-039280FM-12+021299999V0200901N0031199999999020000199+02891+02071101391ADDAA101999999AZ101061AZ201061GA1031+006001081GE19MSL   +99999+99999GF103991031999006001999999KA1120N+02401MA1999999098741MD1999999+0021REMSYN004BUFR
0098825860999992015110718004-05170-039280FM-12+021299999V0200901N0015122000199020000199+03591+02031101131ADDAA101999999AZ101061AZ201061GF100991999999999999999999MA1999999098481MD1999999-0111REMSYN004BUFR
0098825860999992015110800004-05170-039280FM-12+021299999V0200501N0051122000199001000199+03851+02521101251ADDAA101999999AZ101061AZ201061GF100991999999999999999999MA1999999098601MD1999999+0011REMSYN004BUFR
0149825860999992015110812004-05170-039280FM-12+021299999V0200901N0031100600199010000199+02791+02151101351ADDAA101999999AZ101061AZ201061GA1051+006001081GE19MSL   +99999+99999GF105991051999006001999999KA1120N+02451MA1999999098561MD1999999-0051REMSYN004BUFR
0136825860999992015110818004-05170-039280FM-12+021299999V0200901N0031199999999020000199+03491+02231101131ADDAA101999999AZ101061AZ201061GA1041+006001081GE19MSL   +99999+99999GF104991041999006001999999MA1999999098501MD1999999+0011REMSYN004BUFR
0098825860999992015110900004-05170-039280FM-12+021299999V0200901N0051122000199001000199+02691+02151101261ADDAA101999999AZ101061AZ201061GF100991999999999999999999MA1999999098601MD1999999+0001REMSYN004BUFR
0149825860999992015110912004-05170-039280FM-12+021299999V0200901N0031100600199020000199+02891+02251101531ADDAA101999999AZ101061AZ201061GA1061+006001081GE19MSL   +99999+99999GF106991061999006001999999KA1120N+02501MA1999999098871MD1999999+0181REMSYN004BUFR
0136825860999992015110918004-05170-039280FM-12+021299999V0200901N0031100600199020000199+03391+02111101171ADDAA101999999AZ101061AZ201061GA1051+006001081GE19MSL   +99999+99999GF105991051999006001999999MA1999999098531MD1999999+0031REMSYN004BUFR
0098825860999992015111000004-05170-039280FM-12+021299999V0200901N0051122000199001000199+02691+02341101291ADDAA101999999AZ101061AZ201061GF100991999999999999999999MA1999999098631MD1999999+0031REMSYN004BUFR
0149825860999992015111012004-05170-039280FM-12+021299999V0200901N0041100600199020000199+02851+02001101371ADDAA101999999AZ101061AZ201061GA1061+006001081GE19MSL   +99999+99999GF106991061999006001999999KA1120N+02491MA1999999098721MD1999999+0091REMSYN004BUFR
0136825860999992015111018004-05170-039280FM-12+021299999V0200901N0015100600199020000199+03441+02111101031ADDAA101999999AZ101061AZ201061GA1051+006001081GE19MSL   +99999+99999GF105991051999006001999999MA1999999098401MD1999999-0131REMSYN004BUFR
0098825860999992015111100004-05170-039280FM-12+021299999V0201801N0051122000199001000199+02791+02221101121ADDAA101999999AZ101061AZ201061GF100991999999999999999999MA1999999098461MD1999999-0171REMSYN004BUFR
0149825860999992015111112004-05170-039280FM-12+021299999V0200901N0015199999999020000199+02841+02031101151ADDAA101999999AZ101061AZ201061GA1041+006001081GE19MSL   +99999+99999GF107991041999006001999999KA1120N+02461MA1999999098501MD1999999-0221REMSYN004BUFR
0136825860999992015111118004-05170-039280FM-12+021299999V0200901N0015199999999020000199+03591+02031100981ADDAA101999999AZ101061AZ201061GA1031+006001081GE19MSL   +99999+99999GF103991031999006001999999MA1999999098361MD1999999-0041REMSYN004BUFR
0098825860999992015111200004-05170-039280FM-12+021299999V0200901N0051122000199001000199+02871+02031101131ADDAA101999999AZ101061AZ201061GF100991999999999999999999MA1999999098501MD1999999+0061REMSYN004BUFR
0149825860999992015111212004-05170-039280FM-12+021299999V0200901N0031100600199020000199+02771+02161101201ADDAA101999999AZ101061AZ201061GA1071+006001081GE19MSL   +99999+99999GF107991071999006001999999KA1120N+02481MA1999999098541MD1999999+0041REMSYN004BUFR
0136825860999992015111218004-05170-039280FM-12+021299999V0200501N0031199999999020000199+03491+02301101081ADDAA101999999AZ101061AZ201061GA1041+006001081GE19MSL   +99999+99999GF104991041999006001999999MA1999999098441MD1999999+0081REMSYN004BUFR
0098825860999992015111300004-05170-039280FM-12+021299999V020999999999922000199002000199+02691+02131101071ADDAA101999999AZ101061AZ201061GF100991999999999999999999MA1999999098421MD1999999-0051REMSYN004BUFR
0149825860999992015111312004-05170-039280FM-12+021299999V0200901N0031199999999020000199+02591+01871101061ADDAA101999999AZ101061AZ201061GA1041+006001081GE19MSL   +99999+99999GF104991041999006001999999KA1120N+02461MA1999999098401MD1999999+0061REMSYN004BUFR
0136825860999992015111318004-05170-039280FM-12+021299999V0200901N0015100600199020000199+03291+02091101031ADDAA101999999AZ101061AZ201061GA1061+006001081GE19MSL   +99999+99999GF106991061999006001999999MA1999999098391MD1999999-0041REMSYN004BUFR
0098825860999992015111400004-05170-039280FM-12+021299999V0200901N0051122000199001000199+02691+02091101051ADDAA101999999AZ101061AZ201061GF100991999999999999999999MA1999999098391MD1999999-0031REMSYN004BUFR
0149825860999992015111412004-05170-039280FM-12+021299999V0200901N0031100600199020000199+02741+02211101071ADDAA101999999AZ101061AZ201061GA1061+006001081GE19MSL   +99999+99999GF106991061999006001999999KA1120N+02391MA1999999098411MD1999999+0011REMSYN004BUFR
0136825860999992015111418004-05170-039280FM-12+021299999V0200901N0026199999999020000199+03491+02131101031ADDAA101999999AZ101061AZ201061GA1031+006001081GE19MSL   +99999+99999GF103991031999006001999999MA1999999098391MD1999999+0001REMSYN004BUFR
0098825860999992015111500004-05170-039280FM-12+021299999V0200501N0031122000199020000199+02791+02201101141ADDAA101999999AZ101061AZ201061GF100991999999999999999999MA1999999098481MD1999999+0091REMSYN004BUFR
0149825860999992015111512004-05170-039280FM-12+021299999V0200901N0031100600199020000199+02891+02201101181ADDAA101999999AZ101061AZ201061GA1081+006001081GE19MSL   +99999+99999GF108991081999006001999999KA1120N+02401MA1999999098531MD1999999+0121REMSYN004BUFR
0136825860999992015111518004-05170-039280FM-12+021299999V0200901N0015100600199020000199+02541+02341100921ADDAA101999999AZ101061AZ201061GA1051+006001081GE19MSL   +99999+99999GF105991051999006001999999MA1999999098291MD1999999+0101REMSYN004BUFR
0098825860999992015111600004-05170-039280FM-12+021299999V0201801N0057122000199001000199+02891+02151101051ADDAA101999999AZ101061AZ201061GF100991999999999999999999MA1999999098401MD1999999-0081REMSYN004BUFR
0149825860999992015111612004-05170-039280FM-12+021299999V0200901N0051100600199020000199+02591+01981101281ADDAA101999999AZ101061AZ201061GA1081+006001081GE19MSL   +99999+99999GF108991081999006001999999KA1120N+02391MA1999999098621MD1999999+0091REMSYN004BUFR
0136825860999992015111618004-05170-039280FM-12+021299999V0200901N0031100600199020000199+03491+02161101031ADDAA101999999AZ101061AZ201061GA1051+006001081GE19MSL   +99999+99999GF105991051999006001999999MA1999999098391MD1999999+0101REMSYN004BUFR
0098825860999992015111700004-05170-039280FM-12+021299999V0203601N0041122000199001000199+02871+02501101121ADDAA101999999AZ101061AZ201061GF100991999999999999999999MA1999999098481MD1999999+0081REMSYN004BUFR
0149825860999992015111712004-05170-039280FM-12+021299999V0200901N0051100600199020000199+02751+02141101341ADDAA101999999AZ101061AZ201061GA1061+006001081GE19MSL   +99999+99999GF106991061999006001999999KA1120N+02401MA1999999098681MD1999999-0061REMSYN004BUFR
0136825860999992015111718004-05170-039280FM-12+021299999V0200501N0067199999999020000199+03551+02181100931ADDAA101999999AZ101061AZ201061GA1031+006001081GE19MSL   +99999+99999GF103991031999006001999999MA1999999098301MD1999999-0091REMSYN004BUFR
0098825860999992015111800004-05170-039280FM-12+021299999V0200901N0051122000199001000199+02791+02201101051ADDAA101999999AZ101061AZ201061GF100991999999999999999999MA1999999098411MD1999999+0071REMSYN004BUFR
0149825860999992015111812004-05170-039280FM-12+021299999V0200901N0031100600199020000199+02791+02361101331ADDAA101999999AZ101061AZ201061GA1081+006001081GE19MSL   +99999+99999GF108991081999006001999999KA1120N+02491MA1999999098671MD1999999-0011REMSYN004BUFR
0136825860999992015111818004-05170-039280FM-12+021299999V0200901N0031100600199020000199+03491+02301101031ADDAA101999999AZ101061AZ201061GA1051+006001081GE19MSL   +99999+99999GF105991051999006001999999MA1999999098391MD1999999+0091REMSYN004BUFR
0098825860999992015111900004-05170-039280FM-12+021299999V0200901N0067122000199001000199+02851+02261101141ADDAA101999999AZ101061AZ201061GF100991999999999999999999MA1999999098491MD1999999+0091REMSYN004BUFR
0149825860999992015111912004-05170-039280FM-12+021299999V0200901N0031100600199020000199+02891+02251101281ADDAA101999999AZ101061AZ201061GA1051+006001081GE19MSL   +99999+99999GF105991051999006001999999KA1120N+02501MA1999999098631MD1999999+0041REMSYN004BUFR
0136825860999992015111918004-05170-039280FM-12+021299999V0200901N0031199999999020000199+03591+02361100991ADDAA101999999AZ101061AZ201061GA1041+006001081GE19MSL   +99999+99999GF104991041999006001999999MA1999999098371MD1999999+0021REMSYN004BUFR
0098825860999992015112000004-05170-039280FM-12+021299999V0200901N0067122000199001000199+02991+02341101041ADDAA101999999AZ101061AZ201061GF100991999999999999999999MA1999999098401MD1999999+0091REMSYN004BUFR
0149825860999992015112012004-05170-039280FM-12+021299999V0200901N0036100600199020000199+02691+02061101161ADDAA101999999AZ101061AZ201061GA1051+006001081GE19MSL   +99999+99999GF105991051999006001999999KA1120N+02401MA1999999098511MD1999999+0121REMSYN004BUFR
0136825860999992015112018004-05170-039280FM-12+021299999V0200901N0031199999999020000199+03571+02091101021ADDAA101999999AZ101061AZ201061GA1031+006001081GE19MSL   +99999+99999GF103991031999006001999999MA1999999098391MD1999999+0021REMSYN004BUFR
0098825860999992015112100004-05170-039280FM-12+021299999V0200901N0031122000199001000199+02791+02001101071ADDAA101999999AZ101061AZ201061GF100991999999999999999999MA1999999098431MD1999999+0031REMSYN004BUFR
0149825860999992015112112004-05170-039280FM-12+021299999V0200901N0036199999999020000199+02851+02211101441ADDAA101999999AZ101061AZ201061GA1011+006001081GE19MSL   +99999+99999GF102991011999006001999999KA1120N+02401MA1999999098781MD1999999+0271REMSYN004BUFR
0136825860999992015112118004-05170-039280FM-12+021299999V0200901N0046100600199020000199+02541+02471101101ADDAA101999999AZ101061AZ201061GA1051+006001081GE19MSL   +99999+99999GF105991051999006001999999MA1999999098471MD1999999+0081REMSYN004BUFR
0098825860999992015112200004-05170-039280FM-12+021299999V0200901N0031122000199001000199+02851+02261101191ADDAA101999999AZ101061AZ201061GF100991999999999999999999MA1999999098541MD1999999-0141REMSYN004BUFR
0149825860999992015112212004-05170-039280FM-12+021299999V0200901N0031100600199020000199+02791+02111101351ADDAA101999999AZ101061AZ201061GA1051+006001081GE19MSL   +99999+99999GF105991051999006001999999KA1120N+02391MA1999999098701MD1999999-0071REMSYN004BUFR
0136825860999992015112218004-05170-039280FM-12+021299999V0200901N0021199999999020000199+03491+02231101141ADDAA101999999AZ101061AZ201061GA1041+006001081GE19MSL   +99999+99999GF104991041999006001999999MA1999999098501MD1999999+0031REMSYN004BUFR
0098825860999992015112300004-05170-039280FM-12+021299999V0200901N0036122000199001000199+02791+02111101161ADDAA101999999AZ101061AZ201061GF100991999999999999999999MA1999999098511MD1999999+0031REMSYN004BUFR
0149825860999992015112312004-05170-039280FM-12+021299999V0200901N0031100600199020000199+02891+02251101261ADDAA101999999AZ101061AZ201061GA1051+006001081GE19MSL   +99999+99999GF105991051999006001999999KA1120N+02501MA1999999098621MD1999999-0081REMSYN004BUFR
0136825860999992015112318004-05170-039280FM-12+021299999V0200901N0036199999999020000199+03491+02131101161ADDAA101999999AZ101061AZ201061GA1041+006001081GE19MSL   +99999+99999GF104991041999006001999999MA1999999098521MD1999999+0031REMSYN004BUFR
0098825860999992015112400004-05170-039280FM-12+021299999V0200901N0067122000199001000199+02851+02261101211ADDAA101999999AZ101061AZ201061GF100991999999999999999999MA1999999098561MD1999999+0031REMSYN004BUFR
0149825860999992015112412004-05170-039280FM-12+021299999V0200901N0072100600199020000199+02791+02031101371ADDAA101999999AZ101061AZ201061GA1061+006001081GE19MSL   +99999+99999GF106991061999006001999999KA1120N+02491MA1999999098721MD1999999+0101REMSYN004BUFR
0098825860999992015112418004-05170-039280FM-12+021299999V0200901N0010122000199020000199+03491+02251101121ADDAA101999999AZ101061AZ201061GF100991999999999999999999MA1999999098491MD1999999+0041REMSYN004BUFR
0136825860999992015112500004-05170-039280FM-12+021299999V0200901N0072199999999001000199+02651+02111101221ADDAA101999999AZ101061AZ201061GA1031+006001081GE19MSL   +99999+99999GF103991031999006001999999MA1999999098571MD1999999+0011REMSYN004BUFR
0149825860999992015112512004-05170-039280FM-12+021299999V0200901N0031100600199020000199+02891+02271101401ADDAA101999999AZ101061AZ201061GA1051+006001081GE19MSL   +99999+99999GF105991051999006001999999KA1120N+02491MA1999999098741MD1999999+0021REMSYN004BUFR
0136825860999992015112518004-05170-039280FM-12+021299999V0200901N0051199999999020000199+03491+02461101061ADDAA101999999AZ101061AZ201061GA1031+006001081GE19MSL   +99999+99999GF103991031999006001999999MA1999999098431MD1999999+0061REMSYN004BUFR
0098825860999992015112600004-05170-039280FM-12+021299999V0200901N0072122000199001000199+02791+02151101211ADDAA101999999AZ101061AZ201061GF100991999999999999999999MA1999999098551MD1999999+0021REMSYN004BUFR
0149825860999992015112612004-05170-039280FM-12+021299999V0200901N0031100600199020000199+02871+02181101191ADDAA101999999AZ101061AZ201061GA1071+006001081GE19MSL   +99999+99999GF107991071999006001999999KA1120N+02481MA1999999098701MD1999999+0041REMSYN004BUFR
0136825860999992015112618004-05170-039280FM-12+021299999V0200901N0026199999999020000199+03451+02281101121ADDAA101999999AZ101061AZ201061GA1041+006001081GE19MSL   +99999+99999GF104991041999006001999999MA1999999098491MD1999999-0061REMSYN004BUFR
0098825860999992015112700004-05170-039280FM-12+021299999V0200901N0067122000199001000199+02691+02481101231ADDAA101999999AZ101061AZ201061GF100991999999999999999999MA1999999098571MD1999999+0021REMSYN004BUFR
0149825860999992015112712004-05170-039280FM-12+021299999V0200901N0031100600199020000199+02921+02321101421ADDAA101999999AZ101061AZ201061GA1051+006001081GE19MSL   +99999+99999GF105991051999006001999999KA1120N+02401MA1999999098761MD1999999+0061REMSYN004BUFR
0136825860999992015112718004-05170-039280FM-12+021299999V0200901N0051199999999020000199+03551+02391101101ADDAA101999999AZ101061AZ201061GA1041+006001081GE19MSL   +99999+99999GF104991041999006001999999MA1999999098571MD1999999+0021REMSYN004BUFR
0098825860999992015112800004-05170-039280FM-12+021299999V0200901N0046122000199001000199+02671+02411101191ADDAA101999999AZ101061AZ201061GF100991999999999999999999MA1999999098541MD1999999-0051REMSYN004BUFR
0149825860999992015112812004-05170-039280FM-12+021299999V0200901N0015100600199020000199+02871+02081101381ADDAA101999999AZ101061AZ201061GA1071+006001091GE19MSL   +99999+99999GF107991071999006001999999KA1120N+02401MA1999999098721MD1999999-0041REMSYN004BUFR
0136825860999992015112818004-05170-039280FM-12+021299999V0200901N0031100600199020000199+03391+02211101121ADDAA101999999AZ101061AZ201061GA1072+006001091GE19MSL   +99999+99999GF105992072999006001999999MA1999999098481MD1999999+0011REMSYN004BUFR
0098825860999992015112900004-05170-039280FM-12+021299999V0200901N0072122000199001000199+02791+02201101231ADDAA101999999AZ101061AZ201061GF100991999999999999999999MA1999999098571MD1999999+0031REMSYN004BUFR
0149825860999992015112912004-05170-039280FM-12+021299999V0200901N0031100600199020000199+02991+02271101391ADDAA101999999AZ101061AZ201061GA1051+006001081GE19MSL   +99999+99999GF105991051999006001999999KA1120N+02501MA1999999098741MD1999999+0021REMSYN004BUFR
0136825860999992015112918004-05170-039280FM-12+021299999V0200901N0067199999999020000199+03491+02491101191ADDAA101999999AZ101061AZ201061GA1041+006001081GE19MSL   +99999+99999GF104991041999006001999999MA1999999098551MD1999999+0071REMSYN004BUFR
0098825860999992015113000004-05170-039280FM-12+021299999V0200501N0072122000199001000199+02791+02181101331ADDAA101999999AZ101061AZ201061GF100991999999999999999999MA1999999098671MD1999999+0101REMSYN004BUFR
0149825860999992015113012004-05170-039280FM-12+021299999V0200901N0031100600199020000199+02791+02111101361ADDAA101999999AZ101061AZ201061GA1071+006001081GE19MSL   +99999+99999GF107991071999006001999999KA1120N+02401MA1999999098701MD1999999+0041REMSYN004BUFR
0136825860999992015113018004-05170-039280FM-12+021299999V0200901N0031100600199020000199+03391+02211101161ADDAA101999999AZ101061AZ201061GA1051+006001081GE19MSL   +99999+99999GF105991051999006001999999MA1999999098521MD1999999+0031REMSYN004BUFR
0098825860999992015120100004-05170-039280FM-12+021299999V0200901N0072122000199001000199+02851+02111101331ADDAA101999999AZ101061AZ201061GF100991999999999999999999MA1999999098681MD1999999+0011REMSYN004BUFR
0149825860999992015120112004-05170-039280FM-12+021299999V0200901N0082199999999020000199+02921+02321101501ADDAA101999999AZ101061AZ201061GA1041+006001081GE19MSL   +99999+99999GF104991041999006001999999KA1120N+02401MA1999999098851MD1999999+0011REMSYN004BUFR
0136825860999992015120118004-05170-039280FM-12+021299999V0200901N0082199999999020000199+03491+02461101141ADDAA101999999AZ101061AZ201061GA1041+006001081GE19MSL   +99999+99999GF104991041999006001999999MA1999999098501MD1999999+0021REMSYN004BUFR
0098825860999992015120200004-05170-039280FM-12+021299999V0200501N0082122000199001000199+02851+02181101211ADDAA101999999AZ101061AZ201061GF100991999999999999999999MA1999999098561MD1999999+0121REMSYN004BUFR
0149825860999992015120212004-05170-039280FM-12+021299999V0200901N0031199999999020000199+02891+02101101391ADDAA101999999AZ101061AZ201061GA1041+006001081GE19MSL   +99999+99999GF104991041999006001999999KA1120N+02401MA1999999098741MD1999999+0111REMSYN004BUFR
0136825860999992015120218004-05170-039280FM-12+021299999V0200501N0051199999999020000199+03391+02111101171ADDAA101999999AZ101061AZ201061GA1031+006001081GE19MSL   +99999+99999GF103991031999006001999999MA1999999098521MD1999999+0021REMSYN004BUFR
0098825860999992015120300004-05170-039280FM-12+021299999V0200501N0051122000199001000199+02851+02251101201ADDAA101999999AZ101061AZ201061GF100991999999999999999999MA1999999098621MD1999999+0061REMSYN004BUFR
0149825860999992015120312004-05170-039280FM-12+021299999V0200901N0031100600199020000199+02751+02161101461ADDAA101999999AZ101061AZ201061GA1051+006001081GE19MSL   +99999+99999GF105991051999006001999999KA1120N+02391MA1999999098801MD1999999+0041REMSYN004BUFR
0136825860999992015120318004-05170-039280FM-12+021299999V0200901N0031199999999020000199+03391+02371101211ADDAA101999999AZ101061AZ201061GA1031+006001081GE19MSL   +99999+99999GF103991031999006001999999MA1999999098561MD1999999+0041REMSYN004BUFR
0098825860999992015120400004-05170-039280FM-12+021299999V0200901N0031122000199001000199+02791+02201101221ADDAA101999999AZ101061AZ201061GF100991999999999999999999MA1999999098561MD1999999+0101REMSYN004BUFR
0149825860999992015120412004-05170-039280FM-12+021299999V0201401N0031199999999020000199+02741+02241101551ADDAA101999999AZ101061AZ201061GA1041+006001081GE19MSL   +99999+99999GF104991041999006001999999KA1120N+02381MA1999999098881MD1999999+0081REMSYN004BUFR
0136825860999992015120418004-05170-039280FM-12+021299999V0201401N0031199999999020000199+03491+02461101141ADDAA101999999AZ101061AZ201061GA1041+006001081GE19MSL   +99999+99999GF104991041999006001999999MA1999999098561MD1999999+0061REMSYN004BUFR
0098825860999992015120500004-05170-039280FM-12+021299999V0200901N0031122000199001000199+02691+02081101291ADDAA101999999AZ101061AZ201061GF100991999999999999999999MA1999999098631MD1999999+0071REMSYN004BUFR
0149825860999992015120512004-05170-039280FM-12+021299999V0200501N0015199999999020000199+02891+02101101561ADDAA101999999AZ101061AZ201061GA1041+006001081GE19MSL   +99999+99999GF104991041999006001999999KA1120N+02461MA1999999098891MD1999999+0011REMSYN004BUFR
0136825860999992015120518004-05170-039280FM-12+021299999V0200901N0015199999999020000199+03391+02481101221ADDAA101999999AZ101061AZ201061GA1031+006001081GE19MSL   +99999+99999GF103991031999006001999999MA1999999098571MD1999999+0071REMSYN004BUFR
0098825860999992015120600004-05170-039280FM-12+021299999V0200501N0026122000199001000199+02791+02201101401ADDAA101999999AZ101061AZ201061GF100991999999999999999999MA1999999098751MD1999999+0121REMSYN004BUFR
0149825860999992015120612004-05170-039280FM-12+021299999V0200501N0051100600199020000199+02821+02221101561ADDAA101999999AZ101061AZ201061GA1061+006001081GE19MSL   +99999+99999GF106991061999006001999999KA1120N+02381MA1999999098901MD1999999+0011REMSYN004BUFR
0136825860999992015120618004-05170-039280FM-12+021299999V0200901N0051199999999020000199+03551+02181101191ADDAA101999999AZ101061AZ201061GA1031+006001081GE19MSL   +99999+99999GF103991031999006001999999MA1999999098551MD1999999-0021REMSYN004BUFR
0098825860999992015120700004-05170-039280FM-12+021299999V0200901N0036122000199001000199+02821+02201101341ADDAA101999999AZ101061AZ201061GF100991999999999999999999MA1999999098681MD1999999-0071REMSYN004BUFR
0149825860999992015120712004-05170-039280FM-12+021299999V0200901N0046199999999020000199+02771+02231101461ADDAA101999999AZ101061AZ201061GA1041+006001081GE19MSL   +99999+99999GF104991041999006001999999KA1120N+02401MA1999999098801MD1999999-0101REMSYN004BUFR
0136825860999992015120718004-05170-039280FM-12+021299999V0200501N0041199999999020000199+03621+02001101061ADDAA101999999AZ101061AZ201061GA1011+006001081GE19MSL   +99999+99999GF101991011999006001999999MA1999999098431MD1999999+0121REMSYN004BUFR
0098825860999992015120800004-05170-039280FM-12+021299999V0200501N0051122000199001000199+02841+02221101261ADDAA101999999AZ101061AZ201061GF100991999999999999999999MA1999999098601MD1999999-0081REMSYN004BUFR
0149825860999992015120812004-05170-039280FM-12+021299999V0200901N0057100600199020000199+02841+02091101461ADDAA101999999AZ101061AZ201061GA1061+006001081GE19MSL   +99999+99999GF106991061999006001999999KA1120N+02421MA1999999098811MD1999999+0011REMSYN004BUFR
0136825860999992015120818004-05170-039280FM-12+021299999V0200501N0031199999999020000199+03541+01931101131ADDAA101999999AZ101061AZ201061GA1031+006001081GE19MSL   +99999+99999GF103991031999006001999999MA1999999098501MD1999999+0071REMSYN004BUFR
0098825860999992015120900004-05170-039280FM-12+021299999V0200501N0077122000199001000199+02841+02241101301ADDAA101999999AZ101061AZ201061GF100991999999999999999999MA1999999098611MD1999999+0011REMSYN004BUFR
0149825860999992015120912004-05170-039280FM-12+021299999V0200901N0067100600199020000199+02891+02321101501ADDAA101999999AZ101061AZ201061GA1061+006001081GE19MSL   +99999+99999GF106991061999006001999999KA1120N+02421MA1999999098841MD1999999+0031REMSYN004BUFR
0136825860999992015120918004-05170-039280FM-12+021299999V0201801N0067199999999020000199+03541+01971101151ADDAA101999999AZ101061AZ201061GA1041+006001081GE19MSL   +99999+99999GF104991041999006001999999MA1999999098521MD1999999+0021REMSYN004BUFR
0098825860999992015121000004-05170-039280FM-12+021299999V0200501N0051122000199001000199+02851+02281101271ADDAA101999999AZ101061AZ201061GF100991999999999999999999MA1999999098621MD1999999+0011REMSYN004BUFR
0149825860999992015121012004-05170-039280FM-12+021299999V0200901N0051100600199020000199+02771+02251101501ADDAA101999999AZ101061AZ201061GA1061+006001081GE19MSL   +99999+99999GF106991061999006001999999KA1120N+02421MA1999999098841MD1999999+0001REMSYN004BUFR
0136825860999992015121018004-05170-039280FM-12+021299999V0200901N0026199999999020000199+03521+01991101171ADDAA101999999AZ101061AZ201061GA1041+006001081GE19MSL   +99999+99999GF104991041999006001999999MA1999999098531MD1999999+0011REMSYN004BUFR
0098825860999992015121100004-05170-039280FM-12+021299999V0200901N0057122000199001000199+02841+02351101391ADDAA101999999AZ101061AZ201061GF100991999999999999999999MA1999999098741MD1999999+0121REMSYN004BUFR
0149825860999992015121112004-05170-039280FM-12+021299999V0200901N0082199999999020000199+02891+02121101621ADDAA101999999AZ101061AZ201061GA1031+006001081GE19MSL   +99999+99999GF103991031999006001999999KA1120N+02441MA1999999098961MD1999999+0121REMSYN004BUFR
0136825860999992015121118004-05170-039280FM-12+021299999V0200901N0041199999999020000199+03551+01991101241ADDAA101999999AZ101061AZ201061GA1021+006001041GE19MSL   +99999+99999GF102991021999006001999999MA1999999098601MD1999999+0071REMSYN004BUFR
0098825860999992015121200004-05170-039280FM-12+021299999V0200901N0062122000199001000199+02771+02061101301ADDAA101999999AZ101061AZ201061GF100991999999999999999999MA1999999098651MD1999999-0091REMSYN004BUFR
0149825860999992015121212004-05170-039280FM-12+021299999V0200901N0057100600199020000199+02871+02161101511ADDAA101999999AZ101061AZ201061GA1061+006001081GE19MSL   +99999+99999GF106991061999006001999999KA1120N+02401MA1999999098851MD1999999-0111REMSYN004BUFR
0136825860999992015121218004-05170-039280FM-12+021299999V0200901N0067199999999020000199+03541+01801101191ADDAA101999999AZ101061AZ201061GA1041+006001081GE19MSL   +99999+99999GF104991041999006001999999MA1999999098551MD1999999-0051REMSYN004BUFR
0098825860999992015121300004-05170-039280FM-12+021299999V0200901N0067122000199001000199+02921+02241101351ADDAA101999999AZ101061AZ201061GF100991999999999999999999MA1999999098701MD1999999+0051REMSYN004BUFR
0149825860999992015121312004-05170-039280FM-12+021299999V0200901N0072100600199020000199+02821+02121101491ADDAA101999999AZ101061AZ201061GA1061+006001081GE19MSL   +99999+99999GF106991061999006001999999KA1120N+02461MA1999999098831MD1999999-0021REMSYN004BUFR
0149825860999992015121412004-05170-039280FM-12+021299999V0200901N0051199999999020000199+02921+02191101471ADDAA101999999AZ101061AZ201061GA1041+006001081GE19MSL   +99999+99999GF104991041999006001999999KA1120N+02441MA1999999098811MD1999999-0021REMSYN004BUFR
0098825860999992015121500004-05170-039280FM-12+021299999V0201401N0072122000199001000199+02891+02321101251ADDAA101999999AZ101061AZ201061GF100991999999999999999999MA1999999098601MD1999999+0001REMSYN004BUFR
0149825860999992015121512004-05170-039280FM-12+021299999V0200901N0057100600199020000199+02841+02351101501ADDAA101999999AZ101061AZ201061GA1051+006001081GE19MSL   +99999+99999GF105991051999006001999999KA1120N+02381MA1999999098841MD1999999+0031REMSYN004BUFR
0098825860999992015121600004-05170-039280FM-12+021299999V0200901N0051122000199001000199+02921+02341101351ADDAA101999999AZ101061AZ201061GF100991999999999999999999MA1999999098701MD1999999+0101REMSYN004BUFR
0149825860999992015121612004-05170-039280FM-12+021299999V0200901N0041199999999020000199+02921+02191101541ADDAA101999999AZ101061AZ201061GA1041+006001081GE19MSL   +99999+99999GF104991041999006001999999KA1120N+02441MA1999999098881MD1999999+0041REMSYN004BUFR
0142825860999992015121700004-05170-039280FM-12+021299999V0201401N0062199999999001000199+02871+02321101401ADDAA101999999AY101061AY201061GA1041+006001081GE19MSL   +99999+99999GF104991041999006001999999MA1999999098751MD1999999+0051MW1131REMSYN004BUFR
0149825860999992015121712004-05170-039280FM-12+021299999V0201801N0067100600199020000199+02821+02221101541ADDAA101999999AZ101061AZ201061GA1071+006001071GE19MSL   +99999+99999GF107991071999006001999999KA1120N+02461MA1999999098881MD1999999+0001REMSYN004BUFR
0174825860999992015121800004-05170-039280FM-12+021299999V0200901N0067100000199001000199+02671+02261101381ADDAA106004031AY161061AY261061GA1091+000001101GA2999+999999101GA3999+999999101GE19MSL   +99999+99999GF199999091999000001999999MA1999999098711MD1999999-0041MW1021REMSYN004BUFR
0165825860999992015121812004-05170-039280FM-12+021299999V0200901N0062100600199020000199+02721+02261101581ADDAA124004031AZ101061AZ201061GA1051+006001081GA2999+999999031GE19MSL   +99999+99999GF107991051999006001999999KA1120N+02381MA1999999098901MD1999999+0021REMSYN004BUFR
0142825860999992015121900004-05170-039280FM-12+021299999V0200901N0067199999999001000199+02791+02201101371ADDAA101999999AY101061AY201061GA1031+050001081GE19MSL   +99999+99999GF103991031999050001999999MA1999999098701MD1999999-0011MW1131REMSYN004BUFR
0149825860999992015121912004-05170-039280FM-12+021299999V0200901N0072100600199020000199+02821+02331101571ADDAA101999999AZ101061AZ201061GA1051+006001081GE19MSL   +99999+99999GF105991051999006001999999KA1120N+02461MA1999999098901MD1999999+0001REMSYN004BUFR
0098825860999992015122000004-05170-039280FM-12+021299999V0201401N0072122000199001000199+02821+02381101391ADDAA101999999AZ101061AZ201061GF100991999999999999999999MA1999999098731MD1999999+0031REMSYN004BUFR
0165825860999992015122012004-05170-039280FM-12+021299999V0201401N0082199999999020000199+02821+02221101581ADDAA101999999AZ101061AZ201061GA1041+006001081GA2999+999999031GE19MSL   +99999+99999GF107991041999006001999999KA1120N+02481MA1999999098911MD1999999+0011REMSYN004BUFR
0098825860999992015122100004-05170-039280FM-12+021299999V0200501N0072122000199001000199+02771+02161101361ADDAA101999999AZ101061AZ201061GF100991999999999999999999MA1999999098701MD1999999-0031REMSYN004BUFR
0198825860999992015122112004-05200-039300FM-12+021299999V0200901N006719999999N020000199+02841+02091101571ADDGA1041+008001081GA2999+999999031GE19MSL   +99999+99999GF106991041999008001999999KA1240N+02461MA1999999098901MD1999999-0011REMSYN06482586 32598 60913 10284 20209 39890 40157 84230 333 20246 59001=
0123825860999992015122200004-05200-039300FM-12+021299999V0201401N006719999999N001000199+02801+02151101371ADDKA1120M+03561KA2120N+00661MA1999999098711REMSYN07082586 32994 01413 10280 20215 39871 40137 333 10356 29066 55098 58001=
0182825860999992015122212004-05200-039300FM-12+021299999V0201401N005119999999N020000199+02781+02061101541ADDGA1061+008001061GE19MSL   +99999+99999GF106991061999008001999999KA1240N+02441MA1999999098871MD1999999-0031REMSYN06482586 32598 61410 10278 20206 39887 40154 86500 333 20244 59003=
0193825860999992015122300004-05200-039300FM-12+021299999V0201401N008819999999N001000199+02781+02061101361ADDGA1041+999999061GE19MSL   +99999+99999GF104991041999999999999999KA1120M+03621KA2120N+00651MA1999999098701REMSYN07682586 32994 41417 10278 20206 39870 40136 84400 333 10362 29065 55078 59001=
0182825860999992015122312004-05200-039300FM-12+021299999V0201401N005119999999N020000199+02701+02111101571ADDGA1081+008001071GE19MSL   +99999+99999GF108991081999008001999999KA1240N+02461MA1999999098901MD1999999+0031REMSYN06482586 32598 81410 10270 20211 39890 40157 887// 333 20246 58003=
0123825860999992015122400004-05200-039300FM-12+021299999V0201401N006719999999N001000199+02881+02181101361ADDKA1120M+03621KA2120N+00681MA1999999098701REMSYN07082586 32994 01413 10288 20218 39870 40136 333 10362 29068 55078 58000=
