0181826780999992015040512004-06767-043017FM-12+012399999V0200501N0015100800199004000199+02491+02321101291ADDAA124000831AZ101061AZ201061GA1081+008001061GA2999+999999101GA3999+999999101GE19MSL   +99999+99999GF108991081999008001999999KA1120N+02221MA1999999099891MD1999999+0011REMSYN004BUFR
0165826780999992015073012004-06760-043010FM-12+012799999V0201401N0057199999999004000199+02891+01781101611ADDAA101999999AZ101061AZ201061GA1021+017501041GA2999+999999001GE19MSL   +99999+99999GF105991021999017501999999KA1120N+02501MA1999999100221MD1999999-0021REMSYN004BUFR
0136826780999992015073018004-06760-043010FM-12+012799999V0201401N0031100600199004000199+03291+01721101271ADDAA101999999AZ101061AZ201061GA1071+006001061GE19MSL   +99999+99999GF107991071999006001999999MA1999999099891MD1999999+0161REMSYN004BUFR
0098826780999992015073100004-06760-043010FM-12+012799999V0201801N0015122000199000200199+02751+01561101421ADDAA101999999AZ101061AZ201061GF100991999999999999999999MA1999999100031MD1999999+0061REMSYN004BUFR
0149826780999992015073112004-06760-043010FM-12+012799999V0201401N0041199999999004000199+02791+01631101621ADDAA101999999AZ101061AZ201061GA1999+080001001GE19MSL   +99999+99999GF102991999999080001999999KA1120N+02101MA1999999100221MD1999999+0001REMSYN004BUFR
0136826780999992015073118004-06760-043010FM-12+012799999V0201401N0026199999999004000199+03371+01571101251ADDAA101999999AZ101061AZ201061GA1031+006001081GE19MSL   +99999+99999GF105991031999006001999999MA1999999099861MD1999999-0031REMSYN004BUFR
0098826780999992015080100004-06760-043010FM-12+012799999V0200901N0010122000199000200199+02921+01671101341ADDAA101999999AZ101061AZ201061GF100991999999999999999999MA1999999099951MD1999999-0081REMSYN004BUFR
0111826780999992015080112004-06760-043010FM-12+012799999V0201801N0051122000199004000199+02751+01561101631ADDAA101999999AZ101061AZ201061GF100991999999999999999999KA1120N+02421MA1999999100241MD1999999+0021REMSYN004BUFR
0136826780999992015080118004-06760-043010FM-12+012799999V0201801N0021199999999004000199+03471+01061101081ADDAA101999999AZ101061AZ201061GA1999+080001001GE19MSL   +99999+99999GF102991999999080001999999MA1999999099701MD1999999-0161REMSYN004BUFR
0098826780999992015080200004-06760-043010FM-12+012799999V0203601N0000122000199000200199+02751+01661101271ADDAA101999999AZ101061AZ201061GF100991999999999999999999MA1999999099871MD1999999-0081REMSYN004BUFR
0111826780999992015080212004-06760-043010FM-12+012799999V0201401N0036122000199004000199+02751+01721101591ADDAA101999999AZ101061AZ201061GF100991999999999999999999KA1120N+01951MA1999999100191MD1999999-0051REMSYN004BUFR
0136826780999992015080218004-06760-043010FM-12+012799999V0201401N0036199999999004000199+03471+01611101081ADDAA101999999AZ101061AZ201061GA1031+006001081GE19MSL   +99999+99999GF104991031999006001999999MA1999999099701MD1999999+0001REMSYN004BUFR
0098826780999992015080300004-06760-043010FM-12+012799999V0201401N0021122000199000200199+02921+01421101291ADDAA101999999AZ101061AZ201061GF100991999999999999999999MA1999999099901MD1999999+0031REMSYN004BUFR
0111826780999992015080312004-06760-043010FM-12+012799999V0201401N0026122000199004000199+02741+01541101621ADDAA101999999AZ101061AZ201061GF100991999999999999999999KA1120N+02141MA1999999100231MD1999999+0041REMSYN004BUFR
0098826780999992015080318004-06760-043010FM-12+012799999V0201401N0026122000199004000199+03521+01451101141ADDAA101999999AZ101061AZ201061GF100991999999999999999999MA1999999099761MD1999999+0061REMSYN004BUFR
0098826780999992015080400004-06760-043010FM-12+012799999V0201401N0015122000199000200199+02951+01571101311ADDAA101999999AZ101061AZ201061GF100991999999999999999999MA1999999099921MD1999999+0021REMSYN004BUFR
0111826780999992015080412004-06760-043010FM-12+012799999V0200901N0036122000199004000199+02741+01731101691ADDAA101999999AZ101061AZ201061GF100991999999999999999999KA1120N+02341MA1999999100301MD1999999+0071REMSYN004BUFR
0136826780999992015080418004-06760-043010FM-12+012799999V0201401N0026199999999004000199+03521+01551101201ADDAA101999999AZ101061AZ201061GA1021+006001081GE19MSL   +99999+99999GF102991021999006001999999MA1999999099821MD1999999+0061REMSYN004BUFR
0098826780999992015080500004-06760-043010FM-12+012799999V0201401N0015122000199000200199+02951+01571101351ADDAA101999999AZ101061AZ201061GF100991999999999999999999MA1999999099961MD1999999+0041REMSYN004BUFR
0111826780999992015080512004-06760-043010FM-12+012799999V0200901N0031122000199004000199+02791+01531101651ADDAA101999999AZ101061AZ201061GF100991999999999999999999KA1120N+02281MA1999999100261MD1999999-0041REMSYN004BUFR
0136826780999992015080518004-06760-043010FM-12+012799999V0200901N0015199999999004000199+03591+01461101131ADDAA101999999AZ101061AZ201061GA1999+080001001GE19MSL   +99999+99999GF102991999999080001999999MA1999999099751MD1999999-0071REMSYN004BUFR
0098826780999992015080600004-06760-043010FM-12+012799999V0201401N0015122000199000200199+03021+01301101311ADDAA101999999AZ101061AZ201061GF100991999999999999999999MA1999999099921MD1999999-0041REMSYN004BUFR
0111826780999992015080612004-06760-043010FM-12+012799999V0201401N0031122000199004000199+02891+01651101561ADDAA101999999AZ101061AZ201061GF100991999999999999999999KA1120N+02101MA1999999100171MD1999999-0091REMSYN004BUFR
0136826780999992015080618004-06760-043010FM-12+012799999V0200901N0021199999999004000199+03621+01691101031ADDAA101999999AZ101061AZ201061GA1031+006001081GE19MSL   +99999+99999GF103991031999006001999999MA1999999099651MD1999999-0101REMSYN004BUFR
0098826780999992015080700004-06760-043010FM-12+012799999V0201401N0021122000199000200199+03071+01601101161ADDAA101999999AZ101061AZ201061GF100991999999999999999999MA1999999099771MD1999999-0141REMSYN004BUFR
0149826780999992015080712004-06760-043010FM-12+012799999V0201401N0041199999999004000199+02821+01831101451ADDAA101999999AZ101061AZ201061GA1011+017501031GE19MSL   +99999+99999GF101991011999017501999999KA1120N+02401MA1999999100061MD1999999-0111REMSYN004BUFR
0136826780999992015080718004-06760-043010FM-12+012799999V0200901N0015199999999004000199+03551+01641100991ADDAA101999999AZ101061AZ201061GA1031+006001081GE19MSL   +99999+99999GF103991031999006001999999MA1999999099621MD1999999-0031REMSYN004BUFR
0098826780999992015080800004-06760-043010FM-12+012799999V0201401N0026122000199000200199+03041+01231101201ADDAA101999999AZ101061AZ201061GF100991999999999999999999MA1999999099821MD1999999+0041REMSYN004BUFR
0111826780999992015080812004-06760-043010FM-12+012799999V0200901N0031122000199004000199+02821+01511101411ADDAA101999999AZ101061AZ201061GF100991999999999999999999KA1120N+02381MA1999999100031MD1999999-0031REMSYN004BUFR
0136826780999992015080818004-06760-043010FM-12+012799999V0200901N0015199999999004000199+03591+01351100971ADDAA101999999AZ101061AZ201061GA1999+006001001GE19MSL   +99999+99999GF103991999999006001999999MA1999999099601MD1999999-0021REMSYN004BUFR
0098826780999992015080900004-06760-043010FM-12+012799999V0201401N0015122000199000200199+02951+01251101191ADDAA101999999AZ101061AZ201061GF100991999999999999999999MA1999999099801MD1999999-0021REMSYN004BUFR
0111826780999992015080912004-06760-043010FM-12+012799999V0200901N0031122000199004000199+02791+01531101471ADDAA101999999AZ101061AZ201061GF100991999999999999999999KA1120N+02141MA1999999100081MD1999999+0051REMSYN004BUFR
0152826780999992015080918004-06760-043010FM-12+012799999V0200901N0015199999999004000199+03541+01591101061ADDAA101999999AZ101061AZ201061GA1041+006001081GA2999+999999001GE19MSL   +99999+99999GF106991041999006001999999MA1999999099671MD1999999+0071REMSYN004BUFR
0098826780999992015081000004-06760-043010FM-12+012799999V0201801N0015122000199000200199+02991+01371101211ADDAA101999999AZ101061AZ201061GF100991999999999999999999MA1999999099821MD1999999+0021REMSYN004BUFR
0149826780999992015081012004-06760-043010FM-12+012799999V0201401N0041199999999004000199+02741+01761101651ADDAA101999999AZ101061AZ201061GA1999+080001001GE19MSL   +99999+99999GF103991999999080001999999KA1120N+02301MA1999999100261MD1999999+0181REMSYN004BUFR
0152826780999992015081018004-06760-043010FM-12+012799999V0200901N0026100600199004000199+03591+01571101121ADDAA101999999AZ101061AZ201061GA1051+006001081GA2999+999999001GE19MSL   +99999+99999GF106991051999006001999999MA1999999099751MD1999999+0081REMSYN004BUFR
0098826780999992015081100004-06760-043010FM-12+012799999V0201401N0021122000199000200199+03021+01261101401ADDAA101999999AZ101061AZ201061GF100991999999999999999999MA1999999100011MD1999999+0191REMSYN004BUFR
0149826780999992015081112004-06760-043010FM-12+012799999V0200901N0041199999999004000199+02771+01761101661ADDAA101999999AZ101061AZ201061GA1999+080001001GE19MSL   +99999+99999GF103991999999080001999999KA1120N+02311MA1999999100271MD1999999+0011REMSYN004BUFR
0136826780999992015081118004-06760-043010FM-12+012799999V0200901N0031199999999004000199+03451+01551101181ADDAA101999999AZ101061AZ201061GA1999+080001001GE19MSL   +99999+99999GF103991999999080001999999MA1999999099801MD1999999+0051REMSYN004BUFR
0083826780999992015081200004-06760-043010FM-12+012799999V0200501N0031122000199000200199+03021+01391101491ADDAA101999999AZ101061AZ201061GF100991999999999999999999MD1999999+0091REMSYN004BUFR
0111826780999992015081212004-06767-043017FM-12+012399999V0201401N0041122000199004000199+02641+01511101721ADDAA101999999AZ101061AZ201061GF100991999999999999999999KA1120N+02161MA1999999100331MD1999999+0061REMSYN004BUFR
0098826780999992015081218004-06767-043017FM-12+012399999V0201401N0026122000199004000199+03451+01231101131ADDAA101999999AZ101061AZ201061GF100991999999999999999999MA1999999099751MD1999999-0051REMSYN004BUFR
0098826780999992015081300004-06767-043017FM-12+012399999V0201401N0015122000199000200199+02851+01251101401ADDAA101999999AZ101061AZ201061GF100991999999999999999999MA1999999100001MD1999999-0101REMSYN004BUFR
0111826780999992015081312004-06767-043017FM-12+012399999V0201401N0046122000199004000199+02651+01471101791ADDAA101999999AZ101061AZ201061GF100991999999999999999999KA1120N+02161MA1999999100391MD1999999+0061REMSYN004BUFR
0136826780999992015081318004-06767-043017FM-12+012399999V0201801N0036199999999004000199+03351+01311101251ADDAA101999999AZ101061AZ201061GA1999+080001001GE19MSL   +99999+99999GF101991999999080001999999MA1999999099861MD1999999+0111REMSYN004BUFR
0098826780999992015081400004-06767-043017FM-12+012399999V0201401N0021122000199004000199+02841+01351101521ADDAA101999999AZ101061AZ201061GF100991999999999999999999MA1999999100121MD1999999+0121REMSYN004BUFR
0111826780999992015081412004-06767-043017FM-12+012399999V0200901N0031122000199004000199+02651+01621101711ADDAA101999999AZ101061AZ201061GF100991999999999999999999KA1120N+02221MA1999999100311MD1999999-0011REMSYN004BUFR
0136826780999992015081418004-06767-043017FM-12+012399999V0201801N0026199999999004000199+03571+01441101181ADDAA101999999AZ101061AZ201061GA1999+080001001GE19MSL   +99999+99999GF104991999999080001999999MA1999999099801MD1999999-0061REMSYN004BUFR
0098826780999992015081500004-06767-043017FM-12+012399999V0201801N0015122000199000200199+02971+01551101401ADDAA101999999AZ101061AZ201061GF100991999999999999999999MA1999999100011MD1999999-0111REMSYN004BUFR
0111826780999992015081512004-06767-043017FM-12+012399999V0200901N0041122000199004000199+02851+01811101661ADDAA101999999AZ101061AZ201061GF100991999999999999999999KA1120N+02381MA1999999100271MD1999999-0041REMSYN004BUFR
0136826780999992015081518004-06767-043017FM-12+012399999V0201401N0031100600199004000199+03451+01691101251ADDAA101999999AZ101061AZ201061GA1051+006001081GE19MSL   +99999+99999GF105991051999006001999999MA1999999099871MD1999999+0071REMSYN004BUFR
0111826780999992015081612004-06767-043017FM-12+012399999V0201401N0051122000199004000199+02801+01631101621ADDAA101999999AZ101061AZ201061GF100991999999999999999999KA1120N+02401MA1999999100231MD1999999-0041REMSYN004BUFR
0136826780999992015081618004-06767-043017FM-12+012399999V0201401N0026199999999004000199+03591+01461101081ADDAA101999999AZ101061AZ201061GA1011+006001081GE19MSL   +99999+99999GF101991011999006001999999MA1999999099711MD1999999-0161REMSYN004BUFR
0098826780999992015081700004-06767-043017FM-12+012399999V0201401N0026122000199000200199+03071+01251101321ADDAA101999999AZ101061AZ201061GF100991999999999999999999MA1999999099941MD1999999-0081REMSYN004BUFR
0111826780999992015081712004-06767-043017FM-12+012399999V0201401N0031122000199004000199+02741+01611101621ADDAA101999999AZ101061AZ201061GF100991999999999999999999KA1120N+02341MA1999999100231MD1999999+0001REMSYN004BUFR
0152826780999992015081718004-06767-043017FM-12+012399999V0201801N0026199999999004000199+03551+01431101101ADDAA101999999AZ101061AZ201061GA1021+006001081GA2999+999999001GE19MSL   +99999+99999GF104991021999006001999999MA1999999099731MD1999999+0021REMSYN004BUFR
0098826780999992015081800004-06767-043017FM-12+012399999V0200901N0015122000199000200199+03021+01471101311ADDAA101999999AZ101061AZ201061GF100991999999999999999999MA1999999099921MD1999999-0021REMSYN004BUFR
0111826780999992015081812004-06767-043017FM-12+012399999V0201401N0031122000199004000199+02851+01651101571ADDAA101999999AZ101061AZ201061GF100991999999999999999999KA1120N+02401MA1999999100181MD1999999-0051REMSYN004BUFR
0136826780999992015081818004-06767-043017FM-12+012399999V0201401N0026199999999004000199+03641+01501101051ADDAA101999999AZ101061AZ201061GA1031+006001081GE19MSL   +99999+99999GF103991031999006001999999MA1999999099681MD1999999-0051REMSYN004BUFR
0098826780999992015081900004-06767-043017FM-12+012399999V0201401N0015122000199000200199+03071+01361101151ADDAA101999999AZ101061AZ201061GF100991999999999999999999MA1999999099771MD1999999-0151REMSYN004BUFR
0111826780999992015081912004-06767-043017FM-12+012399999V0201401N0031122000199004000199+02941+01721101421ADDAA101999999AZ101061AZ201061GF100991999999999999999999KA1120N+02331MA1999999100041MD1999999-0141REMSYN004BUFR
0136826780999992015081918004-06767-043017FM-12+012399999V0201401N0031199999999004000199+03671+01411100931ADDAA101999999AZ101061AZ201061GA1021+006001081GE19MSL   +99999+99999GF102991021999006001999999MA1999999099561MD1999999-0121REMSYN004BUFR
0098826780999992015082000004-06767-043017FM-12+012399999V0201401N0021122000199000200199+03051+01341101141ADDAA101999999AZ101061AZ201061GF100991999999999999999999MA1999999099761MD1999999-0011REMSYN004BUFR
0111826780999992015082012004-06767-043017FM-12+012399999V0200901N0031122000199000200199+02821+01771101511ADDAA101999999AZ101061AZ201061GF100991999999999999999999KA1120N+02351MA1999999100121MD1999999+0081REMSYN004BUFR
0136826780999992015082018004-06767-043017FM-12+012399999V0203201N0010199999999004000199+03571+01701100991ADDAA101999999AZ101061AZ201061GA1021+006001081GE19MSL   +99999+99999GF103991021999006001999999MA1999999099621MD1999999+0061REMSYN004BUFR
0098826780999992015082100004-06767-043017FM-12+012399999V0203601N0000122000199000200199+02951+01901101191ADDAA101999999AZ101061AZ201061GF100991999999999999999999MA1999999099801MD1999999+0041REMSYN004BUFR
0111826780999992015082112004-06767-043017FM-12+012399999V0203601N0005122000199004000199+02921+02091101511ADDAA101999999AZ101061AZ201061GF100991999999999999999999KA1120N+02141MA1999999100121MD1999999+0001REMSYN004BUFR
0136826780999992015082118004-06767-043017FM-12+012399999V0200901N0015199999999004000199+03741+01451100981ADDAA101999999AZ101061AZ201061GA1041+006001081GE19MSL   +99999+99999GF104991041999006001999999MA1999999099601MD1999999-0021REMSYN004BUFR
0098826780999992015082200004-06767-043017FM-12+012399999V0203601N0000122000199000200199+02971+01831101041ADDAA101999999AZ101061AZ201061GF100991999999999999999999MA1999999099661MD1999999-0141REMSYN004BUFR
0111826780999992015082212004-06767-043017FM-12+012399999V0201801N0005122000199004000199+02871+01981101371ADDAA101999999AZ101061AZ201061GF100991999999999999999999KA1120N+02241MA1999999099981MD1999999-0141REMSYN004BUFR
0136826780999992015082218004-06767-043017FM-12+012399999V0201401N0015100600199004000199+03741+01581100751ADDAA101999999AZ101061AZ201061GA1051+006001081GE19MSL   +99999+99999GF105991051999006001999999MA1999999099381MD1999999-0221REMSYN004BUFR
0098826780999992015082300004-06767-043017FM-12+012399999V0201401N0021122000199000200199+03221+01571100991ADDAA101999999AZ101061AZ201061GF100991999999999999999999MA1999999099621MD1999999-0041REMSYN004BUFR
0111826780999992015082312004-06767-043017FM-12+012399999V0200901N0015122000199004000199+03071+01781101291ADDAA101999999AZ101061AZ201061GF100991999999999999999999KA1120N+02361MA1999999099941MD1999999-0041REMSYN004BUFR
0098826780999992015082318004-06767-043017FM-12+012399999V0200901N0015122000199004000199+03751+01421100721ADDAA101999999AZ101061AZ201061GF100991999999999999999999MA1999999099371MD1999999-0011REMSYN004BUFR
0098826780999992015082400004-06767-043017FM-12+012399999V0200501N0010122000199000200199+03191+01511100981ADDAA101999999AZ101061AZ201061GF100991999999999999999999MA1999999099611MD1999999-0011REMSYN004BUFR
0149826780999992015082412004-06767-043017FM-12+012399999V0200901N0010199999999004000199+03091+01621101391ADDAA101999999AZ101061AZ201061GA1021+017501031GE19MSL   +99999+99999GF102991021999017501999999KA1120N+02421MA1999999100021MD1999999+0081REMSYN004BUFR
0152826780999992015082418004-06767-043017FM-12+012399999V0201401N0026199999999004000199+03751+01861100821ADDAA101999999AZ101061AZ201061GA1011+006001081GA2999+999999031GE19MSL   +99999+99999GF103991011999006001999999MA1999999099461MD1999999+0091REMSYN004BUFR
0098826780999992015082500004-06767-043017FM-12+012399999V0203601N0000122000199000200199+02971+01831100971ADDAA101999999AZ101061AZ201061GF100991999999999999999999MA1999999099601MD1999999-0011REMSYN004BUFR
0149826780999992015082512004-06767-043017FM-12+012399999V0200501N0021199999999004000199+02971+02041101421ADDAA101999999AZ101061AZ201061GA1021+006001081GE19MSL   +99999+99999GF102991021999006001999999KA1120N+02251MA1999999100041MD1999999+0021REMSYN004BUFR
0155826780999992015082518004-06767-043017FM-12+012399999V0200901N0015199999999004000199+03751+01651100861ADDAA101999999AZ101061AZ201061GA1052+006001081GE19MSL   +99999+99999GF104992052999006001999999MA1999999099491MD1999999+0031REMSYN004BUFREQDQ01 006003SCOCIG
0158826780999992015082600004-06767-043017FM-12+012399999V0202301N0005199999999000200199+03041+02361101061ADDAA106000231AY161061AY221061GA1021+006001081GA2999+999999031GE19MSL   +99999+99999GF104991021999006001999999MA1999999099681MD1999999+0081MW1021REMSYN004BUFR
0165826780999992015082612004-06767-043017FM-12+012399999V0200501N0015199999999004000199+03051+02051101451ADDAA124000231AZ101061AZ201061GA1021+006001081GA2999+999999001GE19MSL   +99999+99999GF104991021999006001999999KA1120N+02601MA1999999100071MD1999999+0041REMSYN004BUFR
0136826780999992015082618004-06767-043017FM-12+012399999V0200501N0015100600199004000199+03751+01721100901ADDAA101999999AZ101061AZ201061GA1061+006001081GE19MSL   +99999+99999GF106991061999006001999999MA1999999099551MD1999999+0061REMSYN004BUFR
0152826780999992015082700004-06767-043017FM-12+012399999V0203601N0000199999999000200199+03271+01961101101ADDAA101999999AZ101061AZ201061GA1021+006001081GA2999+999999031GE19MSL   +99999+99999GF103991021999006001999999MA1999999099731MD1999999+0051REMSYN004BUFR
0111826780999992015082712004-06767-043017FM-12+012399999V0200501N0005122000199004000199+03171+01911101351ADDAA101999999AZ101061AZ201061GF100991999999999999999999KA1120N+02401MA1999999099981MD1999999-0091REMSYN004BUFR
0136826780999992015082718004-06767-043017FM-12+012399999V0200901N0005100600199004000199+03941+01151100801ADDAA101999999AZ101061AZ201061GA1051+006001081GE19MSL   +99999+99999GF105991051999006001999999MA1999999099451MD1999999-0101REMSYN004BUFR
0098826780999992015082800004-06767-043017FM-12+012399999V0203601N0000122000199000200199+03321+01611100971ADDAA101999999AZ101061AZ201061GF100991999999999999999999MA1999999099611MD1999999-0121REMSYN004BUFR
0111826780999992015082812004-06767-043017FM-12+012399999V0200501N0036122000199004000199+03241+01631101431ADDAA101999999AZ101061AZ201061GF100991999999999999999999KA1120N+02661MA1999999100061MD1999999+0081REMSYN004BUFR
0136826780999992015082818004-06767-043017FM-12+012399999V0201401N0021100600199004000199+03821+01591100841ADDAA101999999AZ101061AZ201061GA1051+006001081GE19MSL   +99999+99999GF105991051999006001999999MA1999999099481MD1999999+0031REMSYN004BUFR
0152826780999992015082900004-06767-043017FM-12+012399999V0203601N0000199999999000200199+03141+01691101141ADDAA101999999AZ101061AZ201061GA1011+017501031GA2999+999999001GE19MSL   +99999+99999GF102991011999017501999999MA1999999099771MD1999999+0161REMSYN004BUFR
0149826780999992015082912004-06767-043017FM-12+012399999V0200901N0015199999999004000199+03141+01541101621ADDAA101999999AZ101061AZ201061GA1999+080001001GE19MSL   +99999+99999GF102991999999080001999999KA1120N+02481MA1999999100241MD1999999+0181REMSYN004BUFR
0136826780999992015082918004-06767-043017FM-12+012399999V0200501N0015199999999004000199+03721+01511101061ADDAA101999999AZ101061AZ201061GA1999+080001001GE19MSL   +99999+99999GF103991999999080001999999MA1999999099691MD1999999+0211REMSYN004BUFR
0098826780999992015083000004-06767-043017FM-12+012399999V0201801N0015122000199000200199+03191+01511101271ADDAA101999999AZ101061AZ201061GF100991999999999999999999MA1999999099901MD1999999+0131REMSYN004BUFR
0149826780999992015083012004-06767-043017FM-12+012399999V0200901N0041199999999004000199+02971+01591101631ADDAA101999999AZ101061AZ201061GA1999+080001001GE19MSL   +99999+99999GF101991999999080001999999KA1120N+02501MA1999999100251MD1999999+0011REMSYN004BUFR
0136826780999992015083018004-06767-043017FM-12+012399999V0201401N0031199999999004000199+03721+01391101131ADDAA101999999AZ101061AZ201061GA1031+006001081GE19MSL   +99999+99999GF103991031999006001999999MA1999999099761MD1999999+0071REMSYN004BUFR
0098826780999992015083100004-06767-043017FM-12+012399999V0201401N0015122000199000200199+03291+01621101331ADDAA101999999AZ101061AZ201061GF100991999999999999999999MA1999999099961MD1999999+0061REMSYN004BUFR
0149826780999992015083112004-06767-043017FM-12+012399999V0200901N0051199999999004000199+02941+01441101591ADDAA101999999AZ101061AZ201061GA1999+080001001GE19MSL   +99999+99999GF106991999999080001999999KA1120N+02541MA1999999100211MD1999999-0041REMSYN004BUFR
0152826780999992015083118004-06767-043017FM-12+012399999V0201401N0026100600199004000199+03621+01421101061ADDAA101999999AZ101061AZ201061GA1071+006001081GA2999+999999041GE19MSL   +99999+99999GF107991071999006001999999MA1999999099691MD1999999-0071REMSYN004BUFR
0136826780999992015090100004-06767-043017FM-12+012399999V0201401N0005199999999000200199+03041+01781101311ADDAA101999999AZ101061AZ201061GA1999+080001001GE19MSL   +99999+99999GF108991999999080001999999MA1999999099931MD1999999-0031REMSYN004BUFR
0149826780999992015090112004-06767-043017FM-12+012399999V0200901N0031199999999004000199+02921+01531101641ADDAA101999999AZ101061AZ201061GA1999+080001001GE19MSL   +99999+99999GF102991999999080001999999KA1120N+02401MA1999999100251MD1999999+0041REMSYN004BUFR
0152826780999992015090118004-06767-043017FM-12+012399999V0201801N0010199999999004000199+03721+01451101081ADDAA101999999AZ101061AZ201061GA1021+006001081GA2999+999999001GE19MSL   +99999+99999GF103991021999006001999999MA1999999099701MD1999999+0011REMSYN004BUFR
0098826780999992015090200004-06767-043017FM-12+012399999V0203601N0000122000199000200199+02941+01781101181ADDAA101999999AZ101061AZ201061GF100991999999999999999999MA1999999099801MD1999999-0131REMSYN004BUFR
0111826780999992015090212004-06767-043017FM-12+012399999V0200501N0005122000199004000199+03091+01461101551ADDAA101999999AZ101061AZ201061GF100991999999999999999999KA1120N+01941MA1999999100171MD1999999-0081REMSYN004BUFR
0136826780999992015090218004-06767-043017FM-12+012399999V0201401N0015199999999004000199+03771+01501101001ADDAA101999999AZ101061AZ201061GA1021+006001081GE19MSL   +99999+99999GF102991021999006001999999MA1999999099611MD1999999-0091REMSYN004BUFR
0098826780999992015090300004-06767-043017FM-12+012399999V0203601N0000122000199000200199+03121+01791101141ADDAA101999999AZ101061AZ201061GF100991999999999999999999MA1999999099771MD1999999-0031REMSYN004BUFR
0181826780999992015090312004-06767-043017FM-12+012399999V0200901N0046199999999004000199+03221+01481101491ADDAA101999999AZ101061AZ201061GA1011+006001081GA2999+999999031GA3999+999999001GE19MSL   +99999+99999GF103991011999006001999999KA1120N+02521MA1999999100121MD1999999-0051REMSYN004BUFR
0136826780999992015090318004-06767-043017FM-12+012399999V0200901N0026100600199004000199+03721+01621101021ADDAA101999999AZ101061AZ201061GA1061+006001081GE19MSL   +99999+99999GF106991061999006001999999MA1999999099651MD1999999+0041REMSYN004BUFR
0098826780999992015090400004-06767-043017FM-12+012399999V0201401N0010122000199000200199+03171+01821101181ADDAA101999999AZ101061AZ201061GF100991999999999999999999MA1999999099811MD1999999+0041REMSYN004BUFR
0149826780999992015090412004-06767-043017FM-12+012399999V0201801N0010199999999004000199+03091+01871101471ADDAA101999999AZ101061AZ201061GA1999+080001001GE19MSL   +99999+99999GF102991999999080001999999KA1120N+02301MA1999999100091MD1999999-0031REMSYN004BUFR
0155826780999992015090418004-06767-043017FM-12+012399999V0203601N0010199999999004000199+03871+01701100971ADDAA101999999AZ101061AZ201061GA1062+006001081GE19MSL   +99999+99999GF104992062999006001999999MA1999999099601MD1999999-0051REMSYN004BUFREQDQ01 006003SCOCIG
0098826780999992015090500004-06767-043017FM-12+012399999V0203601N0000122000199004000199+03191+01861101151ADDAA101999999AZ101061AZ201061GF100991999999999999999999MA1999999099781MD1999999-0031REMSYN004BUFR
0149826780999992015090512004-06767-043017FM-12+012399999V0203201N0005199999999004000199+03121+02171101371ADDAA101999999AZ101061AZ201061GA1021+017501031GE19MSL   +99999+99999GF102991021999017501999999KA1120N+02501MA1999999100001MD1999999-0091REMSYN004BUFR
0136826780999992015090518004-06767-043017FM-12+012399999V0201801N0005100600199004000199+03891+01661100941ADDAA101999999AZ101061AZ201061GA1051+006001081GE19MSL   +99999+99999GF107991051999006001999999MA1999999099571MD1999999-0031REMSYN004BUFR
0136826780999992015090600004-06767-043017FM-12+012399999V0203601N0000199999999000500199+03221+01731101011ADDAA101999999AZ101061AZ201061GA1021+006001031GE19MSL   +99999+99999GF102991021999006001999999MA1999999099641MD1999999-0141REMSYN004BUFR
0181826780999992015090612004-06767-043017FM-12+012399999V0203601N0015100600199004000199+02741+02301101531ADDAA101999999AZ101061AZ201061GA1051+006001081GA2999+999999101GA3999+999999101GE19MSL   +99999+99999GF108991051999006001999999KA1120N+02491MA1999999100151MD1999999+0151REMSYN004BUFR
0152826780999992015090618004-06767-043017FM-12+012399999V0203601N0005100600199004000199+03751+01901100991ADDAA101999999AZ101061AZ201061GA1051+006001081GA2999+999999001GE19MSL   +99999+99999GF107991051999006001999999MA1999999099621MD1999999+0051REMSYN004BUFR
0136826780999992015090700004-06767-043017FM-12+012399999V0203601N0000199999999000200199+03191+01961101051ADDAA101999999AZ101061AZ201061GA1021+017501031GE19MSL   +99999+99999GF102991021999017501999999MA1999999099671MD1999999+0031REMSYN004BUFR
0165826780999992015090712004-06767-043017FM-12+012399999V0200501N0010101750199004000199+02941+02211101481ADDAA101999999AZ101061AZ201061GA1051+017501061GA2999+999999031GE19MSL   +99999+99999GF108991051999017501999999KA1120N+02481MA1999999100101MD1999999-0051REMSYN004BUFR
0136826780999992015090718004-06767-043017FM-12+012399999V0200501N0005199999999004000199+03771+02101100841ADDAA101999999AZ101061AZ201061GA1999+080001001GE19MSL   +99999+99999GF103991999999080001999999MA1999999099471MD1999999+0151REMSYN004BUFR
0098826780999992015090800004-06767-043017FM-12+012399999V0203601N0000122000199000200199+02971+01661100981ADDAA101999999AZ101061AZ201061GF100991999999999999999999MA1999999099601MD1999999-0071REMSYN004BUFR
0111826780999992015090812004-06767-043017FM-12+012399999V0200501N0010122000199004000199+02951+02071101461ADDAA101999999AZ101061AZ201061GF100991999999999999999999KA1120N+01891MA1999999100071MD1999999-0031REMSYN004BUFR
0098826780999992015090818004-06767-043017FM-12+012399999V0200501N0010122000199004000199+03771+01311100831ADDAA101999999AZ101061AZ201061GF100991999999999999999999MA1999999099451MD1999999-0021REMSYN004BUFR
0098826780999992015090900004-06767-043017FM-12+012399999V0203601N0000122000199000200199+03021+01551100961ADDAA101999999AZ101061AZ201061GF100991999999999999999999MA1999999099581MD1999999-0021REMSYN004BUFR
0149826780999992015090912004-06767-043017FM-12+012399999V0200501N0021199999999004000199+02951+02071101371ADDAA101999999AZ101061AZ201061GA1011+006001081GE19MSL   +99999+99999GF101991011999006001999999KA1120N+02171MA1999999099991MD1999999-0081REMSYN004BUFR
0152826780999992015090918004-06767-043017FM-12+012399999V0200901N0031100600199004000199+03801+01391100771ADDAA101999999AZ101061AZ201061GA1051+006001081GA2999+999999001GE19MSL   +99999+99999GF106991051999006001999999MA1999999099401MD1999999-0051REMSYN004BUFR
0098826780999992015091000004-06767-043017FM-12+012399999V0200901N0010122000199000200199+03251+01841100981ADDAA101999999AZ101061AZ201061GF100991999999999999999999MA1999999099611MD1999999+0031REMSYN004BUFR
0111826780999992015091012004-06767-043017FM-12+012399999V0200901N0036122000199004000199+03171+01651101301ADDAA101999999AZ101061AZ201061GF100991999999999999999999KA1120N+02321MA1999999099931MD1999999-0061REMSYN004BUFR
0152826780999992015091018004-06767-043017FM-12+012399999V0200901N0031199999999004000199+03841+01151100741ADDAA101999999AZ101061AZ201061GA1021+006001081GA2999+999999001GE19MSL   +99999+99999GF103991021999006001999999MA1999999099371MD1999999-0031REMSYN004BUFR
0098826780999992015091100004-06767-043017FM-12+012399999V0200501N0015122000199000200199+03241+01311101021ADDAA101999999AZ101061AZ201061GF100991999999999999999999MA1999999099651MD1999999+0011REMSYN004BUFR
0111826780999992015091112004-06767-043017FM-12+012399999V0200901N0031122000199004000199+03071+01371101371ADDAA101999999AZ101061AZ201061GF100991999999999999999999KA1120N+02661MA1999999100001MD1999999+0071REMSYN004BUFR
0136826780999992015091118004-06767-043017FM-12+012399999V0200901N0015199999999004000199+03851+01501100831ADDAA101999999AZ101061AZ201061GA1041+006001081GE19MSL   +99999+99999GF104991041999006001999999MA1999999099471MD1999999+0101REMSYN004BUFR
0098826780999992015091200004-06767-043017FM-12+012399999V0203601N0000122000199000200199+03041+01971101081ADDAA101999999AZ101061AZ201061GF100991999999999999999999MA1999999099701MD1999999+0051REMSYN004BUFR
0111826780999992015091212004-06767-043017FM-12+012399999V0201801N0005122000199004000199+03071+01881101431ADDAA101999999AZ101061AZ201061GF100991999999999999999999KA1120N+02381MA1999999100051MD1999999+0051REMSYN004BUFR
0136826780999992015091218004-06767-043017FM-12+012399999V0201801N0021199999999004000199+03941+01371100791ADDAA101999999AZ101061AZ201061GA1041+006001081GE19MSL   +99999+99999GF104991041999006001999999MA1999999099421MD1999999-0051REMSYN004BUFR
0136826780999992015091300004-06767-043017FM-12+012399999V0201401N0005199999999000200199+03121+01711101021ADDAA101999999AZ101061AZ201061GA1031+006001081GE19MSL   +99999+99999GF103991031999006001999999MA1999999099651MD1999999-0051REMSYN004BUFR
0111826780999992015091312004-06767-043017FM-12+012399999V0203601N0015122000199004000199+02991+02141101481ADDAA101999999AZ101061AZ201061GF100991999999999999999999KA1120N+02521MA1999999100101MD1999999-0051REMSYN004BUFR
0152826780999992015091318004-06767-043017FM-12+012399999V0200901N0015199999999004000199+03871+01751100921ADDAA101999999AZ101061AZ201061GA1041+006001081GA2999+999999001GE19MSL   +99999+99999GF105991041999006001999999MA1999999099551MD1999999-0131REMSYN004BUFR
0098826780999992015091400004-06767-043017FM-12+012399999V0203601N0000122000199004000199+03171+01801101061ADDAA101999999AZ101061AZ201061GF100991999999999999999999MA1999999099691MD1999999+0041REMSYN004BUFR
0165826780999992015091412004-06767-043017FM-12+012399999V0203601N0010199999999004000199+03021+02241101641ADDAA101999999AZ101061AZ201061GA1021+006001081GA2999+999999001GE19MSL   +99999+99999GF106991021999006001999999KA1120N+02481MA1999999100261MD1999999+0161REMSYN004BUFR
0152826780999992015091418004-06767-043017FM-12+012399999V0201401N0015199999999004000199+03691+01711101021ADDAA101999999AZ101061AZ201061GA1011+006001081GA2999+999999001GE19MSL   +99999+99999GF106991011999006001999999MA1999999099651MD1999999+0101REMSYN004BUFR
0098826780999992015091500004-06767-043017FM-12+012399999V0201401N0010122000199000200199+03221+01431101201ADDAA101999999AZ101061AZ201061GF100991999999999999999999MA1999999099831MD1999999+0141REMSYN004BUFR
0149826780999992015091512004-06767-043017FM-12+012399999V0200901N0051199999999004000199+03141+01581101551ADDAA101999999AZ101061AZ201061GA1011+006001081GE19MSL   +99999+99999GF101991011999006001999999KA1120N+02341MA1999999100181MD1999999-0081REMSYN004BUFR
0152826780999992015091518004-06767-043017FM-12+012399999V0201401N0041199999999004000199+03741+01461101001ADDAA101999999AZ101061AZ201061GA1041+006001081GA2999+999999001GE19MSL   +99999+99999GF105991041999006001999999MA1999999099631MD1999999-0021REMSYN004BUFR
0136826780999992015091600004-06767-043017FM-12+012399999V0201401N0005100600199000200199+03251+01601101181ADDAA101999999AZ101061AZ201061GA1061+006001061GE19MSL   +99999+99999GF106991061999006001999999MA1999999099811MD1999999+0001REMSYN004BUFR
0111826780999992015091612004-06767-043017FM-12+012399999V0201801N0036122000199004000199+03021+01621101601ADDAA101999999AZ101061AZ201061GF100991999999999999999999KA1120N+02721MA1999999100221MD1999999+0041REMSYN004BUFR
0136826780999992015091618004-06767-043017FM-12+012399999V0200501N0015199999999004000199+03641+01441100941ADDAA101999999AZ101061AZ201061GA1999+080001001GE19MSL   +99999+99999GF102991999999080001999999MA1999999099571MD1999999-0061REMSYN004BUFR
0098826780999992015091700004-06767-043017FM-12+012399999V0203601N0000122000199000200199+03091+01541101121ADDAA101999999AZ101061AZ201061GF100991999999999999999999MA1999999099741MD1999999-0091REMSYN004BUFR
0149826780999992015091712004-06767-043017FM-12+012399999V0201401N0031199999999004000199+03051+01771101451ADDAA101999999AZ101061AZ201061GA1011+006001081GE19MSL   +99999+99999GF101991011999006001999999KA1120N+02661MA1999999100071MD1999999-0151REMSYN004BUFR
0136826780999992015091718004-06767-043017FM-12+012399999V0200901N0041199999999004000199+03691+01371100921ADDAA101999999AZ101061AZ201061GA1031+006001081GE19MSL   +99999+99999GF103991031999006001999999MA1999999099551MD1999999-0021REMSYN004BUFR
0136826780999992015091800004-06767-043017FM-12+012399999V0201401N0010101750199000200199+03191+01511101091ADDAA101999999AZ101061AZ201061GA1061+017501031GE19MSL   +99999+99999GF106991061999017501999999MA1999999099721MD1999999-0021REMSYN004BUFR
0149826780999992015091812004-06767-043017FM-12+012399999V0200901N0046199999999004000199+03041+01851101411ADDAA101999999AZ101061AZ201061GA1031+006001081GE19MSL   +99999+99999GF103991031999006001999999KA1120N+02571MA1999999100031MD1999999-0041REMSYN004BUFR
0136826780999992015091818004-06767-043017FM-12+012399999V0200901N0031100600199004000199+03691+01601100871ADDAA101999999AZ101061AZ201061GA1051+006001081GE19MSL   +99999+99999GF105991051999006001999999MA1999999099501MD1999999-0051REMSYN004BUFR
0098826780999992015091900004-06767-043017FM-12+012399999V0201401N0015122000199000200199+03121+01521101101ADDAA101999999AZ101061AZ201061GF100991999999999999999999MA1999999099731MD1999999+0011REMSYN004BUFR
0149826780999992015091912004-06767-043017FM-12+012399999V0200501N0031100600199004000199+03091+01901101491ADDAA101999999AZ101061AZ201061GA1051+006001081GE19MSL   +99999+99999GF105991051999006001999999KA1120N+02721MA1999999100111MD1999999+0081REMSYN004BUFR
0136826780999992015091918004-06767-043017FM-12+012399999V0200901N0010100600199004000199+03751+01601100911ADDAA101999999AZ101061AZ201061GA1051+006001081GE19MSL   +99999+99999GF105991051999006001999999MA1999999099551MD1999999+0051REMSYN004BUFR
0136826780999992015092000004-06767-043017FM-12+012399999V0201401N0010199999999000200199+03291+01591101071ADDAA101999999AZ101061AZ201061GA1041+017501031GE19MSL   +99999+99999GF104991041999017501999999MA1999999099701MD1999999-0031REMSYN004BUFR
0111826780999992015092012004-06767-043017FM-12+012399999V0201401N0031122000199004000199+03191+01751101341ADDAA101999999AZ101061AZ201061GF100991999999999999999999KA1120N+02701MA1999999099971MD1999999-0141REMSYN004BUFR
0136826780999992015092018004-06767-043017FM-12+012399999V0201401N0010100600199004000199+03871+01581100881ADDAA101999999AZ101061AZ201061GA1051+006001081GE19MSL   +99999+99999GF105991051999006001999999MA1999999099521MD1999999-0031REMSYN004BUFR
0136826780999992015092100004-06767-043017FM-12+012399999V0201401N0005199999999000200199+03191+01631101011ADDAA101999999AZ101061AZ201061GA1031+017501031GE19MSL   +99999+99999GF103991031999017501999999MA1999999099641MD1999999+0061REMSYN004BUFR
0111826780999992015092112004-06767-043017FM-12+012399999V0200901N0036122000199004000199+03221+01521101401ADDAA101999999AZ101061AZ201061GF100991999999999999999999KA1120N+02491MA1999999100031MD1999999+0061REMSYN004BUFR
0136826780999992015092118004-06767-043017FM-12+012399999V0201401N0021100600199004000199+03751+01601100841ADDAA101999999AZ101061AZ201061GA1051+006001081GE19MSL   +99999+99999GF105991051999006001999999MA1999999099471MD1999999-0051REMSYN004BUFR
0098826780999992015092200004-06767-043017FM-12+012399999V0201401N0015122000199000200199+03241+01541101001ADDAA101999999AZ101061AZ201061GF100991999999999999999999MA1999999099641MD1999999+0001REMSYN004BUFR
0111826780999992015092212004-06767-043017FM-12+012399999V0203601N0010122000199004000199+03071+01681101361ADDAA101999999AZ101061AZ201061GF100991999999999999999999KA1120N+02401MA1999999099991MD1999999-0041REMSYN004BUFR
0136826780999992015092218004-06767-043017FM-12+012399999V0201801N0015199999999004000199+03871+01581100811ADDAA101999999AZ101061AZ201061GA1999+080001001GE19MSL   +99999+99999GF101991999999080001999999MA1999999099441MD1999999-0031REMSYN004BUFR
0098826780999992015092300004-06767-043017FM-12+012399999V0201401N0015122000199000200199+03291+01361101031ADDAA101999999AZ101061AZ201061GF100991999999999999999999MA1999999099661MD1999999+0021REMSYN004BUFR
0111826780999992015092312004-06770-043020FM-12+012799999V0200901N0026122000199004000199+03241+01631101311ADDAA101999999AZ101061AZ201061GF100991999999999999999999KA1120N+02641MA1999999099941MD1999999-0051REMSYN004BUFR
0136826780999992015092318004-06770-043020FM-12+012799999V0201401N0015199999999004000199+03851+01381100771ADDAA101999999AZ101061AZ201061GA1041+006001081GE19MSL   +99999+99999GF104991041999006001999999MA1999999099411MD1999999-0031REMSYN004BUFR
0136826780999992015092400004-06770-043020FM-12+012799999V0201401N0010199999999000200199+03341+01401100911ADDAA101999999AZ101061AZ201061GA1011+017501031GE19MSL   +99999+99999GF101991011999017501999999MA1999999099551MD1999999-0111REMSYN004BUFR
0111826780999992015092412004-06770-043020FM-12+012799999V0200501N0031122000199004000199+03221+01731101321ADDAA101999999AZ101061AZ201061GF100991999999999999999999KA1120N+02301MA1999999099961MD1999999+0021REMSYN004BUFR
0152826780999992015092418004-06770-043020FM-12+012799999V0200901N0041199999999004000199+03851+01441100811ADDAA101999999AZ101061AZ201061GA1041+006001081GA2999+999999001GE19MSL   +99999+99999GF105991041999006001999999MA1999999099441MD1999999+0031REMSYN004BUFR
0136826780999992015092500004-06770-043020FM-12+012799999V0201401N0010199999999000200199+03341+01581101081ADDAA101999999AZ101061AZ201061GA1031+017501031GE19MSL   +99999+99999GF103991031999017501999999MA1999999099721MD1999999+0171REMSYN004BUFR
0111826780999992015092512004-06770-043020FM-12+012799999V0200501N0015122000199000200199+03141+01801101461ADDAA101999999AZ101061AZ201061GF100991999999999999999999KA1120N+02501MA1999999100091MD1999999+0131REMSYN004BUFR
0136826780999992015092518004-06770-043020FM-12+012799999V0201801N0021199999999004000199+03891+01541100891ADDAA101999999AZ101061AZ201061GA1041+006001081GE19MSL   +99999+99999GF104991041999006001999999MA1999999099531MD1999999-0091REMSYN004BUFR
0098826780999992015092600004-06770-043020FM-12+012799999V0201401N0015122000199000200199+02391+01811101031ADDAA101999999AZ101061AZ201061GF100991999999999999999999MA1999999099671MD1999999-0051REMSYN004BUFR
0111826780999992015092612004-06770-043020FM-12+012799999V0200901N0005122000199004000199+03271+01861101301ADDAA101999999AZ101061AZ201061GF100991999999999999999999KA1120N+02481MA1999999099941MD1999999-0151REMSYN004BUFR
0136826780999992015092618004-06770-043020FM-12+012799999V0201801N0005199999999004000199+03991+01421100731ADDAA101999999AZ101061AZ201061GA1041+006001081GE19MSL   +99999+99999GF104991041999006001999999MA1999999099731MD1999999-0161REMSYN004BUFR
0098826780999992015092700004-06770-043020FM-12+012799999V0203601N0000122000199000200199+03241+01891100921ADDAA101999999AZ101061AZ201061GF100991999999999999999999MA1999999099561MD1999999-0111REMSYN004BUFR
0165826780999992015092712004-06770-043020FM-12+012799999V0200501N0010100600199004000199+03091+02181101321ADDAA101999999AZ101061AZ201061GA1051+006001081GA2999+999999001GE19MSL   +99999+99999GF106991051999006001999999KA1120N+02601MA1999999099951MD1999999+0011REMSYN004BUFR
0152826780999992015092718004-06770-043020FM-12+012799999V0202301N0015199999999004000199+03841+01971100741ADDAA101999999AZ101061AZ201061GA1041+006001081GA2999+999999001GE19MSL   +99999+99999GF106991041999006001999999MA1999999099371MD1999999+0001REMSYN004BUFR
0098826780999992015092800004-06770-043020FM-12+012799999V0201401N0026122000199000200199+03351+01771100981ADDAA101999999AZ101061AZ201061GF100991999999999999999999MA1999999099621MD1999999+0061REMSYN004BUFR
0149826780999992015092812004-06770-043020FM-12+012799999V0200901N0015199999999004000199+02921+02121101411ADDAA101999999AZ101061AZ201061GA1999+080001001GE19MSL   +99999+99999GF103991999999080001999999KA1120N+02581MA1999999100041MD1999999+0091REMSYN004BUFR
0152826780999992015092818004-06770-043020FM-12+012799999V0201801N0015199999999004000199+03751+01901100751ADDAA101999999AZ101061AZ201061GA1041+006001081GA2999+999999001GE19MSL   +99999+99999GF105991041999006001999999MA1999999099381MD1999999+0011REMSYN004BUFR
0098826780999992015092900004-06770-043020FM-12+012799999V0203601N0000122000199004000199+03241+02101100821ADDAA101999999AZ101061AZ201061GF100991999999999999999999MA1999999099451MD1999999-0171REMSYN004BUFR
0149826780999992015092912004-06770-043020FM-12+012799999V0200501N0015100600199004000199+03091+02121101311ADDAA101999999AZ101061AZ201061GA1051+006001081GE19MSL   +99999+99999GF105991051999006001999999KA1120N+02681MA1999999099941MD1999999-0101REMSYN004BUFR
0136826780999992015092918004-06770-043020FM-12+012799999V0201401N0015100600199004000199+03851+01441100631ADDAA101999999AZ101061AZ201061GA1051+006001081GE19MSL   +99999+99999GF105991051999006001999999MA1999999099271MD1999999-0111REMSYN004BUFR
0136826780999992015093000004-06770-043020FM-12+012799999V020999999999999999999000200199+03191+01781100781ADDAA101999999AZ101061AZ201061GA1031+017501081GE19MSL   +99999+99999GF103991031999017501999999MA1999999099411MD1999999-0041REMSYN004BUFR
0149826780999992015093012004-06770-043020FM-12+012799999V0200501N0031199999999004000199+03041+01941101131ADDAA101999999AZ101061AZ201061GA1031+006001081GE19MSL   +99999+99999GF103991031999006001999999KA1120N+02411MA1999999099761MD1999999-0181REMSYN004BUFR
0136826780999992015093018004-06770-043020FM-12+012799999V0201401N0031199999999004000199+03871+01391100551ADDAA101999999AZ101061AZ201061GA1031+006001081GE19MSL   +99999+99999GF103991031999006001999999MA1999999099191MD1999999-0081REMSYN004BUFR
0152826780999992015100100004-06770-043020FM-12+012799999V0201401N0010199999999000200199+03171+01801100721ADDAA101999999AZ101061AZ201061GA1011+017501031GA2999+999999001GE19MSL   +99999+99999GF102991011999017501999999MA1999999099351MD1999999-0061REMSYN004BUFR
0149826780999992015100112004-06770-043020FM-12+012799999V0200901N0036199999999004000199+03191+01711101191ADDAA101999999AZ101061AZ201061GA1999+080001001GE19MSL   +99999+99999GF101991999999080001999999KA1120N+02301MA1999999099821MD1999999+0061REMSYN004BUFR
0136826780999992015100118004-06770-043020FM-12+012799999V0200901N0015100600199004000199+03791+01111100641ADDAA101999999AZ101061AZ201061GA1051+006001081GE19MSL   +99999+99999GF105991051999006001999999MA1999999099271MD1999999+0081REMSYN004BUFR
0098826780999992015100200004-06770-043020FM-12+012799999V0201801N0026122000199004000199+03291+01261100851ADDAA101999999AZ101061AZ201061GF100991999999999999999999MA1999999099491MD1999999+0141REMSYN004BUFR
0111826780999992015100212004-06770-043020FM-12+012799999V0201401N0026122000199004000199+03191+01781101231ADDAA101999999AZ101061AZ201061GF100991999999999999999999KA1120N+02661MA1999999099861MD1999999+0041REMSYN004BUFR
0136826780999992015100218004-06770-043020FM-12+012799999V0201401N0031199999999004000199+03851+01091100781ADDAA101999999AZ101061AZ201061GA1021+006001081GE19MSL   +99999+99999GF102991021999006001999999MA1999999099421MD1999999-0151REMSYN004BUFR
0098826780999992015100300004-06770-043020FM-12+012799999V0203601N0000122000199000200199+03191+01821100991ADDAA101999999AZ101061AZ201061GF100991999999999999999999MA1999999099621MD1999999+0131REMSYN004BUFR
0111826780999992015100312004-06770-043020FM-12+012799999V0200501N0015122000199004000199+03191+01571101431ADDAA101999999AZ101061AZ201061GF100991999999999999999999KA1120N+02421MA1999999099861MD1999999+0001REMSYN004BUFR
0136826780999992015100318004-06770-043020FM-12+012799999V0201401N0021100600199004000199+03891+02141100691ADDAA101999999AZ101061AZ201061GA1051+006001081GE19MSL   +99999+99999GF105991051999006001999999MA1999999099321MD1999999-0101REMSYN004BUFR
0098826780999992015100400004-06770-043020FM-12+012799999V0200901N0005122000199000200199+03201+02061100921ADDAA101999999AZ101061AZ201061GF100991999999999999999999MA1999999099551MD1999999-0071REMSYN004BUFR
0117826780999992015100412004-06770-043020FM-12+012799999V0203601N0010122000199004000199+02171+02041101341ADDAA101999999AZ101061AZ201061GF100991999999999999999999MA1999999099971MD1999999+0111REMSYN004BUFREQDQ0126.4  2EATMN 
0152826780999992015100418004-06770-043020FM-12+012799999V0203601N0000199999999004000199+03972+01731100741ADDAA101999999AZ101061AZ201061GA1041+006001081GA2999+999999001GE19MSL   +99999+99999GF106991041999006001999999MA1999999099381MD1999999+0061REMSYN004BUFR
0098826780999992015100500004-06770-043020FM-12+012799999V0201801N0010122000199000200199+03251+01981100931ADDAA101999999AZ101061AZ201061GF100991999999999999999999MA1999999099561MD1999999-0011REMSYN004BUFR
0111826780999992015100512004-06770-043020FM-12+012799999V0200901N0015122000199004000199+03121+02381101351ADDAA101999999AZ101061AZ201061GF100991999999999999999999KA1120N+02711MA1999999099981MD1999999+0011REMSYN004BUFR
0098826780999992015100518004-06770-043020FM-12+012799999V0203201N0005122000199004000199+03941+02061100771ADDAA101999999AZ101061AZ201061GF100991999999999999999999MA1999999099411MD1999999+0031REMSYN004BUFR
0098826780999992015100600004-06770-043020FM-12+012799999V0200501N0005122000199000200199+03371+01871100991ADDAA101999999AZ101061AZ201061GF100991999999999999999999MA1999999099631MD1999999+0071REMSYN004BUFR
0165826780999992015100612004-06770-043020FM-12+012799999V0200501N0026100600199004000199+03041+01971101531ADDAA101999999AZ101061AZ201061GA1051+006001081GA2999+999999001GE19MSL   +99999+99999GF106991051999006001999999KA1120N+02661MA1999999100161MD1999999+0181REMSYN004BUFR
0168826780999992015100618004-06770-043020FM-12+012799999V0202701N0015100600199004000199+03641+01941100991ADDAA101999999AZ101061AZ201061GA1061+006001081GA2999+999999051GA3999+999999001GE19MSL   +99999+99999GF108991061999006001999999MA1999999099621MD1999999+0211REMSYN004BUFR
0136826780999992015100700004-06770-043020FM-12+012799999V0202701N0005100600199000200199+03291+02101101111ADDAA101999999AZ101061AZ201061GA1051+006001061GE19MSL   +99999+99999GF105991051999006001999999MA1999999099741MD1999999+0111REMSYN004BUFR
0181826780999992015100712004-06770-043020FM-12+012799999V0200501N0015100600199004000199+03071+02131101331ADDAA101999999AZ101061AZ201061GA1051+006001081GA2999+999999031GA3999+999999001GE19MSL   +99999+99999GF108991051999006001999999KA1120N+02831MA1999999099961MD1999999+0201REMSYN004BUFR
0152826780999992015100718004-06770-043020FM-12+012799999V0200501N0015100600199004000199+03591+01941100751ADDAA101999999AZ101061AZ201061GA1061+006001061GA2999+999999051GE19MSL   +99999+99999GF108991061999006001999999MA1999999099391MD1999999-0231REMSYN004BUFR
0098826780999992015100800004-06770-043020FM-12+012799999V0203601N0000122000199000200199+03221+02201100981ADDAA101999999AZ101061AZ201061GF100991999999999999999999MA1999999099611MD1999999-0131REMSYN004BUFR
0149826780999992015100812004-06770-043020FM-12+012799999V0200901N0046199999999004000199+03251+01721101311ADDAA101999999AZ101061AZ201061GA1021+006001081GE19MSL   +99999+99999GF102991021999006001999999KA1120N+02621MA1999999099941MD1999999-0021REMSYN004BUFR
0136826780999992015100818004-06770-043020FM-12+012799999V0201401N0015100600199004000199+03841+01421100751ADDAA101999999AZ101061AZ201061GA1051+006001081GE19MSL   +99999+99999GF105991051999006001999999MA1999999099391MD1999999+0001REMSYN004BUFR
0098826780999992015100900004-06770-043020FM-12+012799999V0201401N0031122000199000200199+03371+01531100931ADDAA101999999AZ101061AZ201061GF100991999999999999999999MA1999999099571MD1999999-0041REMSYN004BUFR
0149826780999992015100912004-06770-043020FM-12+012799999V0201401N0031100600199004000199+03051+01871101381ADDAA101999999AZ101061AZ201061GA1061+006001081GE19MSL   +99999+99999GF106991061999006001999999KA1120N+02681MA1999999100011MD1999999+0071REMSYN004BUFR
0136826780999992015100918004-06770-043020FM-12+012799999V0201401N0036100600199004000199+03771+01501100791ADDAA101999999AZ101061AZ201061GA1061+006001081GE19MSL   +99999+99999GF106991061999006001999999MA1999999099431MD1999999+0041REMSYN004BUFR
0098826780999992015101000004-06770-043020FM-12+012799999V0201401N0026122000199000200199+03421+01511100991ADDAA101999999AZ101061AZ201061GF100991999999999999999999MA1999999099631MD1999999+0061REMSYN004BUFR
0149826780999992015101012004-06770-043020FM-12+012799999V0200901N0036199999999004000199+03121+01791101391ADDAA101999999AZ101061AZ201061GA1031+006001081GE19MSL   +99999+99999GF103991031999006001999999KA1120N+02751MA1999999100031MD1999999+0021REMSYN004BUFR
0152826780999992015101018004-06770-043020FM-12+012799999V0201401N0031199999999004000199+03791+01391100821ADDAA101999999AZ101061AZ201061GA1031+006001081GA2999+999999001GE19MSL   +99999+99999GF104991031999006001999999MA1999999099461MD1999999+0031REMSYN004BUFR
0098826780999992015101100004-06770-043020FM-12+012799999V0201401N0015122000199000200199+03321+01571101031ADDAA101999999AZ101061AZ201061GF100991999999999999999999MA1999999099671MD1999999+0041REMSYN004BUFR
0111826780999992015101112004-06770-043020FM-12+012799999V0201401N0046122000199004000199+03221+01611101321ADDAA101999999AZ101061AZ201061GF100991999999999999999999KA1120N+02841MA1999999099961MD1999999-0071REMSYN004BUFR
0136826780999992015101118004-06770-043020FM-12+012799999V0201401N0021199999999004000199+03771+01611100731ADDAA101999999AZ101061AZ201061GA1011+006001081GE19MSL   +99999+99999GF101991011999006001999999MA1999999099371MD1999999-0091REMSYN004BUFR
0098826780999992015101200004-06770-043020FM-12+012799999V0201401N0015122000199000200199+03271+01531101021ADDAA101999999AZ101061AZ201061GF100991999999999999999999MA1999999099661MD1999999-0011REMSYN004BUFR
0111826780999992015101212004-06770-043020FM-12+012799999V0201401N0041122000199004000199+03091+01661101411ADDAA101999999AZ101061AZ201061GF100991999999999999999999KA1120N+02701MA1999999100041MD1999999+0081REMSYN004BUFR
0136826780999992015101218004-06770-043020FM-12+012799999V0201401N0015199999999004000199+03771+01561100851ADDAA101999999AZ101061AZ201061GA1041+006001081GE19MSL   +99999+99999GF104991041999006001999999MA1999999099471MD1999999+0101REMSYN004BUFR
0136826780999992015101300004-06770-043020FM-12+012799999V0201401N0015199999999000200199+03271+01531100981ADDAA101999999AZ101061AZ201061GA1021+017501031GE19MSL   +99999+99999GF102991021999017501999999MA1999999099611MD1999999-0051REMSYN004BUFR
0111826780999992015101312004-06770-043020FM-12+012799999V0201401N0041122000199004000199+03271+01741101451ADDAA101999999AZ101061AZ201061GF100991999999999999999999KA1120N+02761MA1999999100081MD1999999+0041REMSYN004BUFR
0168826780999992015101318004-06770-043020FM-12+012799999V0201401N0026199999999004000199+03871+01181100861ADDAA101999999AZ101061AZ201061GA1031+006001081GA2999+999999031GA3999+999999001GE19MSL   +99999+99999GF106991031999006001999999MA1999999099501MD1999999+0031REMSYN004BUFR
0136826780999992015101400004-06770-043020FM-12+012799999V0200901N0015199999999000200199+03351+01511101041ADDAA101999999AZ101061AZ201061GA1031+017501051GE19MSL   +99999+99999GF103991031999017501999999MA1999999099681MD1999999+0071REMSYN004BUFR
0111826780999992015101412004-06770-043020FM-12+012799999V0200901N0051122000199004000199+03271+01681101341ADDAA101999999AZ101061AZ201061GF100991999999999999999999KA1120N+02851MA1999999099981MD1999999-0101REMSYN004BUFR
0152826780999992015101418004-06770-043020FM-12+012799999V0201401N0036100600199004000199+03841+01491100751ADDAA101999999AZ101061AZ201061GA1051+006001081GA2999+999999001GE19MSL   +99999+99999GF105991051999006001999999MA1999999099401MD1999999-0101REMSYN004BUFR
0136826780999992015101500004-06770-043020FM-12+012799999V0201401N0036199999999000200199+03441+01581101051ADDAA101999999AZ101061AZ201061GA1031+017501051GE19MSL   +99999+99999GF103991031999017501999999MA1999999099691MD1999999+0011REMSYN004BUFR
0149826780999992015101512004-06770-043020FM-12+012799999V0201401N0041100600199004000199+03191+01931101271ADDAA101999999AZ101061AZ201061GA1051+006001081GE19MSL   +99999+99999GF105991051999006001999999KA1120N+02721MA1999999099911MD1999999-0071REMSYN004BUFR
0136826780999992015101518004-06770-043020FM-12+012799999V0201401N0031100600199004000199+03851+01571100751ADDAA101999999AZ101061AZ201061GA1051+006001081GE19MSL   +99999+99999GF105991051999006001999999MA1999999099391MD1999999-0011REMSYN004BUFR
0098826780999992015101600004-06770-043020FM-12+012799999V0201401N0026122000199000200199+03321+01481100971ADDAA101999999AZ101061AZ201061GF100991999999999999999999MA1999999099611MD1999999-0081REMSYN004BUFR
0111826780999992015101612004-06770-043020FM-12+012799999V0201401N0041122000199004000199+03241+01781101391ADDAA101999999AZ101061AZ201061GF100991999999999999999999KA1120N+02881MA1999999100031MD1999999+0121REMSYN004BUFR
0098826780999992015101618004-06770-043020FM-12+012799999V0201401N0041122000199004000199+03851+01441100771ADDAA101999999AZ101061AZ201061GF100991999999999999999999MA1999999099421MD1999999+0031REMSYN004BUFR
0098826780999992015101700004-06770-043020FM-12+012799999V0201401N0021122000199000200199+03301+01501101031ADDAA101999999AZ101061AZ201061GF100991999999999999999999MA1999999099671MD1999999+0061REMSYN004BUFR
0111826780999992015101712004-06770-043020FM-12+012799999V0200901N0036122000199004000199+03291+01761101251ADDAA101999999AZ101061AZ201061GF100991999999999999999999KA1120N+02721MA1999999099891MD1999999-0141REMSYN004BUFR
0168826780999992015101718004-06770-043020FM-12+012799999V0200901N0031199999999004000199+03941+01301100781ADDAA101999999AZ101061AZ201061GA1011+006001081GA2999+999999031GA3999+999999001GE19MSL   +99999+99999GF103991011999006001999999MA1999999099431MD1999999+0011REMSYN004BUFR
0098826780999992015101800004-06770-043020FM-12+012799999V0201401N0026122000199000200199+03321+01051100971ADDAA101999999AZ101061AZ201061GF100991999999999999999999MA1999999099611MD1999999-0061REMSYN004BUFR
0111826780999992015101812004-06770-043020FM-12+012799999V0200901N0026122000199004000199+03321+01431101281ADDAA101999999AZ101061AZ201061GF100991999999999999999999KA1120N+02661MA1999999099921MD1999999+0031REMSYN004BUFR
0136826780999992015101818004-06770-043020FM-12+012799999V0200501N0010199999999004000199+04051+01331100751ADDAA101999999AZ101061AZ201061GA1021+006001081GE19MSL   +99999+99999GF102991021999006001999999MA1999999099401MD1999999-0031REMSYN004BUFR
0098826780999992015101900004-06770-043020FM-12+012799999V0201401N0015122000199000200199+03451+01341100941ADDAA101999999AZ101061AZ201061GF100991999999999999999999MA1999999099591MD1999999-0021REMSYN004BUFR
0165826780999992015101912004-06770-043020FM-12+012799999V0203601N0010199999999004000199+03171+02221101441ADDAA101999999AZ101061AZ201061GA1031+006001081GA2999+999999001GE19MSL   +99999+99999GF105991031999006001999999KA1120N+02601MA1999999100071MD1999999+0151REMSYN004BUFR
0136826780999992015101918004-06770-043020FM-12+012799999V0201801N0015199999999004000199+03841+01831100821ADDAA101999999AZ101061AZ201061GA1031+006001081GE19MSL   +99999+99999GF106991031999006001999999MA1999999099461MD1999999+0061REMSYN004BUFR
0136826780999992015102000004-06770-043020FM-12+012799999V0201401N0015101750199000200199+03351+01731100981ADDAA101999999AZ101061AZ201061GA1051+017501031GE19MSL   +99999+99999GF105991051999017501999999MA1999999099621MD1999999+0031REMSYN004BUFR
0165826780999992015102012004-06770-043020FM-12+012799999V0203601N0005199999999004000199+03241+02191101321ADDAA101999999AZ101061AZ201061GA1041+006001081GA2999+999999001GE19MSL   +99999+99999GF105991041999006001999999KA1120N+02821MA1999999099961MD1999999+0111REMSYN004BUFR
0152826780999992015102018004-06770-043020FM-12+012799999V0201401N0015199999999004000199+03771+02011100881ADDAA101999999AZ101061AZ201061GA1041+006001081GA2999+999999001GE19MSL   +99999+99999GF105991041999006001999999MA1999999099521MD1999999+0061REMSYN004BUFR
0136826780999992015102100004-06770-043020FM-12+012799999V0201401N0010199999999000200199+03391+01851100981ADDAA101999999AZ101061AZ201061GA1031+017501031GE19MSL   +99999+99999GF103991031999017501999999MA1999999099621MD1999999+0001REMSYN004BUFR
0117826780999992015102112004-06770-043020FM-12+012799999V0203201N0010122000199004000199+03151+02201101301ADDAA124000331AY121061AY261061GF100991999999999999999999KA1120N+02661MA1999999099941MD1999999-0041MW1021REMSYN004BUFR
0136826780999992015102118004-06770-043020FM-12+012799999V0203601N0015199999999004000199+03991+01961100671ADDAA101999999AZ101061AZ201061GA1031+006001081GE19MSL   +99999+99999GF103991031999006001999999MA1999999099321MD1999999-0201REMSYN004BUFR
0098826780999992015102200004-06770-043020FM-12+012799999V0200901N0005122000199000200199+03401+01851100811ADDAA101999999AZ101061AZ201061GF100991999999999999999999MA1999999099451MD1999999-0171REMSYN004BUFR
0149826780999992015102212004-06770-043020FM-12+012799999V0203601N0026199999999004000199+03171+02331101211ADDAA101999999AZ101061AZ201061GA1999+017501001GE19MSL   +99999+99999GF101991999999017501999999KA1120N+02661MA1999999099851MD1999999-0091REMSYN004BUFR
0152826780999992015102218004-06770-043020FM-12+012799999V0202301N0015199999999004000199+03941+01961100581ADDAA101999999AZ101061AZ201061GA1021+006001081GA2999+999999001GE19MSL   +99999+99999GF103991021999006001999999MA1999999099231MD1999999-0091REMSYN004BUFR
0136826780999992015102300004-06770-043020FM-12+012799999V0201801N0021199999999004000199+03321+01971100891ADDAA101999999AZ101061AZ201061GA1031+006001081GE19MSL   +99999+99999GF104991031999006001999999MA1999999099531MD1999999+0081REMSYN004BUFR
0149826780999992015102312004-06770-043020FM-12+012799999V0200901N0010199999999004000199+03221+02141101131ADDAA101999999AZ101061AZ201061GA1031+006001081GE19MSL   +99999+99999GF103991031999006001999999KA1120N+02661MA1999999099771MD1999999-0081REMSYN004BUFR
0152826780999992015102318004-06770-043020FM-12+012799999V0201401N0005199999999004000199+03891+01981100571ADDAA101999999AZ101061AZ201061GA1041+006001081GA2999+999999001GE19MSL   +99999+99999GF106991041999006001999999MA1999999099221MD1999999-0011REMSYN004BUFR
0168826780999992015102400004-06770-043020FM-12+012799999V0203201N0015100600199000200199+03241+01961100811ADDAA101999999AZ101061AZ201061GA1051+006001061GA2999+999999031GA3999+999999001GE19MSL   +99999+99999GF108991051999006001999999MA1999999099451MD1999999-0081REMSYN004BUFR
0165826780999992015102412004-06770-043020FM-12+012799999V0200501N0026100600199004000199+03051+02051101401ADDAA101999999AZ101061AZ201061GA1061+006001081GA2999+999999001GE19MSL   +99999+99999GF108991061999006001999999KA1120N+02661MA1999999100031MD1999999+0261REMSYN004BUFR
0152826780999992015102418004-06770-043020FM-12+012799999V0201401N0015100600199004000199+03771+01921100801ADDAA101999999AZ101061AZ201061GA1051+006001081GA2999+999999001GE19MSL   +99999+99999GF106991051999006001999999MA1999999099441MD1999999+0221REMSYN004BUFR
0168826780999992015102500004-06770-043020FM-12+012799999V0200501N0005100600199000200199+03371+01931100991ADDAA101999999AZ101061AZ201061GA1081+006001081GA2999+999999101GA3999+999999101GE19MSL   +99999+99999GF108991081999006001999999MA1999999099621MD1999999+0171REMSYN004BUFR
0111826780999992015102512004-06770-043020FM-12+012799999V0203601N0010122000199000200199+03571+02261101261ADDAA101999999AZ101061AZ201061GF100991999999999999999999KA1120N+02741MA1999999099901MD1999999-0131REMSYN004BUFR
0152826780999992015102518004-06770-043020FM-12+012799999V0200501N0010199999999004000199+03841+01881100791ADDAA101999999AZ101061AZ201061GA1041+006001081GA2999+999999001GE19MSL   +99999+99999GF105991041999006001999999MA1999999099431MD1999999-0011REMSYN004BUFR
0187826780999992015102600004-06770-043020FM-12+012799999V0203601N0000199999999000200199+03351+02451101031ADDAA101999999AZ101061AZ201061GA1082+006001081GA2999+999999101GA3999+999999101GE19MSL   +99999+99999GF104992082999006001999999MA1999999099671MD1999999+0051REMSYN004BUFREQDQ01 006003SCOCIG
0165826780999992015102612004-06770-043020FM-12+012799999V0200901N0041199999999004000199+03351+01851101351ADDAA124000231AZ101061AZ201061GA1021+006001081GA2999+999999001GE19MSL   +99999+99999GF105991021999006001999999KA1120N+02881MA1999999099991MD1999999+0091REMSYN004BUFR
0152826780999992015102618004-06770-043020FM-12+012799999V0201401N0026199999999004000199+03841+01721100771ADDAA101999999AZ101061AZ201061GA1041+006001081GA2999+999999001GE19MSL   +99999+99999GF106991041999006001999999MA1999999099421MD1999999-0011REMSYN004BUFR
0136826780999992015102700004-06770-043020FM-12+012799999V0201401N0021199999999000200199+03391+01641100971ADDAA101999999AZ101061AZ201061GA1999+080001001GE19MSL   +99999+99999GF106991999999080001999999MA1999999099621MD1999999-0051REMSYN004BUFR
0149826780999992015102712004-06770-043020FM-12+012799999V0200501N0026199999999004000199+03351+01971101311ADDAA101999999AZ101061AZ201061GA1041+006001081GE19MSL   +99999+99999GF104991041999006001999999KA1120N+02881MA1999999099951MD1999999-0041REMSYN004BUFR
0136826780999992015102718004-06770-043020FM-12+012799999V0200901N0026100600199004000199+03841+01881100761ADDAA101999999AZ101061AZ201061GA1051+006001081GE19MSL   +99999+99999GF105991051999006001999999MA1999999099411MD1999999-0011REMSYN004BUFR
0098826780999992015102800004-06770-043020FM-12+012799999V0203601N0000122000199000200199+03251+01951100871ADDAA101999999AZ101061AZ201061GF100991999999999999999999MA1999999099511MD1999999-0111REMSYN004BUFR
0149826780999992015102812004-06770-043020FM-12+012799999V0200901N0010199999999004000199+03151+02141101331ADDAA101999999AZ101061AZ201061GA1031+006001081GE19MSL   +99999+99999GF105991031999006001999999KA1120N+02741MA1999999099961MD1999999+0011REMSYN004BUFR
0136826780999992015102818004-06770-043020FM-12+012799999V0202701N0015199999999004000199+03891+01931100761ADDAA101999999AZ101061AZ201061GA1041+006001081GE19MSL   +99999+99999GF104991041999006001999999MA1999999099421MD1999999+0011REMSYN004BUFR
0098826780999992015102900004-06770-043020FM-12+012799999V0203601N0000122000199004000199+03341+01631100901ADDAA101999999AZ101061AZ201061GF100991999999999999999999MA1999999099541MD1999999+0031REMSYN004BUFR
0149826780999992015102912004-06770-043020FM-12+012799999V0203601N0010199999999004000199+03151+02081101301ADDAA101999999AZ101061AZ201061GA1999+080001001GE19MSL   +99999+99999GF103991999999080001999999KA1120N+02681MA1999999099931MD1999999-0031REMSYN004BUFR
0152826780999992015102918004-06770-043020FM-12+012799999V0202701N0005199999999004000199+03751+01901100771ADDAA101999999AZ101061AZ201061GA1041+006001081GA2999+999999001GE19MSL   +99999+99999GF106991041999006001999999MA1999999099411MD1999999-0011REMSYN004BUFR
0098826780999992015103000004-06770-043020FM-12+012799999V0202701N0005122000199000200199+03371+02061100891ADDAA101999999AZ101061AZ201061GF100991999999999999999999MA1999999099531MD1999999-0011REMSYN004BUFR
0149826780999992015103012004-06770-043020FM-12+012799999V0203201N0021100600199004000199+02991+02081101311ADDAA101999999AZ101061AZ201061GA1061+006001081GE19MSL   +99999+99999GF108991061999006001999999KA1120N+02741MA1999999099941MD1999999+0011REMSYN004BUFR
0136826780999992015103018004-06770-043020FM-12+012799999V0201401N0015199999999004000199+03591+02071100731ADDAA101999999AZ101061AZ201061GA1041+006001081GE19MSL   +99999+99999GF108991041999006001999999MA1999999099371MD1999999-0041REMSYN004BUFR
0152826780999992015103100004-06770-043020FM-12+012799999V0202301N0005101750199000200199+03221+02291100921ADDAA101999999AZ101061AZ201061GA1061+017501051GA2999+999999001GE19MSL   +99999+99999GF108991061999017501999999MA1999999099551MD1999999+0021REMSYN004BUFR
0187826780999992015103112004-06770-043020FM-12+012799999V0200501N0005100600199004000199+02671+02221101441ADDAA124003031AY161061AY221061GA1071+006001061GA2999+999999031GA3999+999999101GE19MSL   +99999+99999GF108991071999006001999999KA1120N+02361MA1999999100061MD1999999+0121MW1021REMSYN004BUFR
0168826780999992015103118004-06770-043020FM-12+012799999V0200901N0005100600199004000199+03351+02141101011ADDAA101999999AZ101061AZ201061GA1051+006001061GA2999+999999031GA3999+999999001GE19MSL   +99999+99999GF107991051999006001999999MA1999999099621MD1999999+0251REMSYN004BUFR
0098826780999992015110100004-06770-043020FM-12+012799999V0202701N0005122000199000200199+02891+02221101061ADDAA101999999AZ101061AZ201061GF100991999999999999999999MA1999999099671MD1999999+0121REMSYN004BUFR
0155826780999992015110112004-06770-043020FM-12+012799999V020999999999999999999004000199+02421+02331101411ADDAA124009031AY161061AY221061GA1031+006001081GE19MSL   +99999+99999GF108991031999006001999999KA1120N+02321MA1999999100011MD1999999-0051MW1911REMSYN004BUFR
0168826780999992015110118004-06770-043020FM-12+012799999V0203201N0010199999999004000199+03321+02171100901ADDAA101999999AZ101061AZ201061GA1041+006001061GA2999+999999031GA3999+999999001GE19MSL   +99999+99999GF108991041999006001999999MA1999999099511MD1999999-0111REMSYN004BUFR
0136826780999992015110200004-06770-043020FM-12+012799999V0203601N0000199999999000200199+02991+02461100961ADDAA101999999AZ101061AZ201061GA1031+006001081GE19MSL   +99999+99999GF104991031999006001999999MA1999999099571MD1999999-0101REMSYN004BUFR
0149826780999992015110212004-06770-043020FM-12+012799999V0200501N0036199999999004000199+03191+01861101101ADDAA101999999AZ101061AZ201061GA1021+006001081GE19MSL   +99999+99999GF106991021999006001999999KA1120N+02441MA1999999099731MD1999999-0281REMSYN004BUFR
0136826780999992015110218004-06770-043020FM-12+012799999V0201401N0015100600199004000199+03721+01771100621ADDAA101999999AZ101061AZ201061GA1051+006001081GE19MSL   +99999+99999GF107991051999006001999999MA1999999099251MD1999999-0261REMSYN004BUFR
0136826780999992015110300004-06770-043020FM-12+012799999V0201401N0010199999999000200199+03241+01821100731ADDAA101999999AZ101061AZ201061GA1999+080001001GE19MSL   +99999+99999GF103991999999080001999999MA1999999099371MD1999999-0201REMSYN004BUFR
0181826780999992015110312004-06770-043020FM-12+012799999V0200901N0031199999999004000199+03171+01801101221ADDAA101999999AZ101061AZ201061GA1031+006001081GA2999+999999031GA3999+999999001GE19MSL   +99999+99999GF105991031999006001999999KA1120N+02701MA1999999099851MD1999999+0121REMSYN004BUFR
0136826780999992015110318004-06770-043020FM-12+012799999V0201801N0015199999999004000199+03751+01811100691ADDAA101999999AZ101061AZ201061GA1041+006001081GE19MSL   +99999+99999GF105991041999006001999999MA1999999099331MD1999999+0081REMSYN004BUFR
0098826780999992015110400004-06770-043020FM-12+012799999V0201401N0010122000199004000199+03291+01641100821ADDAA101999999AZ101061AZ201061GF100991999999999999999999MA1999999099461MD1999999+0091REMSYN004BUFR
0111826780999992015110412004-06770-043020FM-12+012799999V0200901N0010122000199004000199+03291+01871101391ADDAA101999999AZ101061AZ201061GF100991999999999999999999KA1120N+02381MA1999999100031MD1999999+0181REMSYN004BUFR
0168826780999992015110418004-06770-043020FM-12+012799999V0200901N0026199999999004000199+03791+01571100841ADDAA101999999AZ101061AZ201061GA1041+006001081GA2999+999999031GA3999+999999001GE19MSL   +99999+99999GF107991041999006001999999MA1999999099471MD1999999+0141REMSYN004BUFR
0098826780999992015110500004-06770-043020FM-12+012799999V0203601N0000122000199000200199+03041+02031100911ADDAA101999999AZ101061AZ201061GF100991999999999999999999MA1999999099541MD1999999+0081REMSYN004BUFR
0149826780999992015110512004-06770-043020FM-12+012799999V0203601N0015199999999004000199+03091+01971101231ADDAA101999999AZ101061AZ201061GA1042+017501081GE19MSL   +99999+99999GF102992042999017501999999KA1120N+02401MA1999999099851MD1999999-0181REMSYN004BUFR
0136826780999992015110518004-06770-043020FM-12+012799999V0200501N0026199999999004000199+03971+01481100681ADDAA101999999AZ101061AZ201061GA1021+006001081GE19MSL   +99999+99999GF108991021999006001999999MA1999999099321MD1999999-0151REMSYN004BUFR
0098826780999992015110600004-06770-043020FM-12+012799999V0200901N0010122000199000200199+03241+01631100851ADDAA101999999AZ101061AZ201061GF100991999999999999999999MA1999999099481MD1999999-0061REMSYN004BUFR
0165826780999992015110612004-06770-043020FM-12+012799999V0203601N0015199999999004000199+03051+02111101371ADDAA101999999AZ101061AZ201061GA1031+006001081GA2999+999999001GE19MSL   +99999+99999GF104991031999006001999999KA1120N+02581MA1999999100001MD1999999+0151REMSYN004BUFR
0136826780999992015110618004-06770-043020FM-12+012799999V0200901N0010199999999004000199+03421+02111100681ADDAA101999999AZ101061AZ201061GA1031+006001081GE19MSL   +99999+99999GF105991031999006001999999MA1999999099311MD1999999-0011REMSYN004BUFR
0098826780999992015110700004-06770-043020FM-12+012799999V0203601N0000122000199000200199+03241+02221100821ADDAA101999999AZ101061AZ201061GF100991999999999999999999MA1999999099451MD1999999-0041REMSYN004BUFR
0111826780999992015110712004-06770-043020FM-12+012799999V0200501N0015122000199004000199+03091+02231101331ADDAA101999999AZ101061AZ201061GF100991999999999999999999KA1120N+02551MA1999999099961MD1999999-0041REMSYN004BUFR
0152826780999992015110718004-06770-043020FM-12+012799999V0203601N0000199999999004000199+03841+02201100771ADDAA101999999AZ101061AZ201061GA1031+006001081GA2999+999999001GE19MSL   +99999+99999GF106991031999006001999999MA1999999099411MD1999999+0101REMSYN004BUFR
0098826780999992015110800004-06770-043020FM-12+012799999V0203601N0000122000199000200199+03371+02221100861ADDAA101999999AZ101061AZ201061GF100991999999999999999999MA1999999099501MD1999999+0051REMSYN004BUFR
0165826780999992015110812004-06770-043020FM-12+012799999V0203201N0015100600199004000199+02771+02161101281ADDAA101999999AZ101061AZ201061GA1051+006001081GA2999+999999051GE19MSL   +99999+99999GF108991051999006001999999KA1120N+02731MA1999999099911MD1999999-0051REMSYN004BUFR
0136826780999992015110818004-06770-043020FM-12+012799999V0202301N0015199999999004000199+03721+02051100731ADDAA101999999AZ101061AZ201061GA1041+006001081GE19MSL   +99999+99999GF108991041999006001999999MA1999999099371MD1999999-0041REMSYN004BUFR
0136826780999992015110900004-06770-043020FM-12+012799999V0200501N0010199999999000200199+03091+02031100991ADDAA101999999AZ101061AZ201061GA1031+017501081GE19MSL   +99999+99999GF106991031999017501999999MA1999999099611MD1999999+0111REMSYN004BUFR
0165826780999992015110912004-06770-043020FM-12+012799999V0202701N0010199999999004000199+02991+02221101381ADDAA101999999AZ101061AZ201061GA1031+006001081GA2999+999999001GE19MSL   +99999+99999GF105991031999006001999999KA1120N+02621MA1999999100001MD1999999+0091REMSYN004BUFR
0136826780999992015110918004-06770-043020FM-12+012799999V0200501N0015100600199004000199+03691+01991100871ADDAA101999999AZ101061AZ201061GA1051+006001081GE19MSL   +99999+99999GF106991051999006001999999MA1999999099501MD1999999+0131REMSYN004BUFR
0098826780999992015111000004-06770-043020FM-12+012799999V0203601N0000122000199000200199+03151+02161101101ADDAA101999999AZ101061AZ201061GF100991999999999999999999MA1999999099731MD1999999+0121REMSYN004BUFR
0149826780999992015111012004-06770-043020FM-12+012799999V0200901N0015100600199004000199+03321+01651101451ADDAA101999999AZ101061AZ201061GA1051+006001081GE19MSL   +99999+99999GF105991051999006001999999KA1120N+02661MA1999999100081MD1999999+0081REMSYN004BUFR
0136826780999992015111018004-06770-043020FM-12+012799999V0200901N0015100600199004000199+03791+01791100871ADDAA101999999AZ101061AZ201061GA1051+006001081GE19MSL   +99999+99999GF105991051999006001999999MA1999999099511MD1999999+0011REMSYN004BUFR
0098826780999992015111100004-06770-043020FM-12+012799999V0201901N0005122000199000200199+03251+01721100911ADDAA101999999AZ101061AZ201061GF100991999999999999999999MA1999999099551MD1999999-0181REMSYN004BUFR
0149826780999992015111112004-06770-043020FM-12+012799999V0200901N0036199999999004000199+03221+01571101241ADDAA101999999AZ101061AZ201061GA1011+006001081GE19MSL   +99999+99999GF101991011999006001999999KA1120N+02721MA1999999099871MD1999999-0211REMSYN004BUFR
0136826780999992015111118004-06770-043020FM-12+012799999V0201401N0015199999999004000199+03871+01521100581ADDAA101999999AZ101061AZ201061GA1031+006001081GE19MSL   +99999+99999GF103991031999006001999999MA1999999099231MD1999999-0281REMSYN004BUFR
0098826780999992015111200004-06770-043020FM-12+012799999V0201801N0005122000199000200199+03121+01561100751ADDAA101999999AZ101061AZ201061GF100991999999999999999999MA1999999099381MD1999999-0071REMSYN004BUFR
0165826780999992015111212004-06770-043020FM-12+012799999V0200501N0015199999999004000199+03121+02071101251ADDAA101999999AZ101061AZ201061GA1031+006001081GA2999+999999001GE19MSL   +99999+99999GF104991031999006001999999KA1120N+02741MA1999999099881MD1999999+0011REMSYN004BUFR
0136826780999992015111218004-06770-043020FM-12+012799999V0203601N0015199999999004000199+03751+01951100691ADDAA101999999AZ101061AZ201061GA1031+006001081GE19MSL   +99999+99999GF103991031999006001999999MA1999999099331MD1999999+0101REMSYN004BUFR
0098826780999992015111300004-06770-043020FM-12+012799999V0203601N0000122000199000200199+03141+01691100821ADDAA101999999AZ101061AZ201061GF100991999999999999999999MA1999999099451MD1999999+0071REMSYN004BUFR
0165826780999992015111312004-06770-043020FM-12+012799999V0203201N0005199999999004000199+03091+02201101221ADDAA101999999AZ101061AZ201061GA1031+006001081GA2999+999999001GE19MSL   +99999+99999GF105991031999006001999999KA1120N+02531MA1999999099851MD1999999-0031REMSYN004BUFR
0152826780999992015111318004-06770-043020FM-12+012799999V0201801N0010199999999004000199+03841+01671100671ADDAA101999999AZ101061AZ201061GA1041+006001081GA2999+999999001GE19MSL   +99999+99999GF106991041999006001999999MA1999999099311MD1999999-0021REMSYN004BUFR
0098826780999992015111400004-06770-043020FM-12+012799999V0200901N0005122000199000200199+03221+01771100821ADDAA101999999AZ101061AZ201061GF100991999999999999999999MA1999999099451MD1999999+0001REMSYN004BUFR
0149826780999992015111412004-06770-043020FM-12+012799999V0200501N0026199999999004000199+03121+02081101301ADDAA101999999AZ101061AZ201061GA1021+006001081GE19MSL   +99999+99999GF102991021999006001999999KA1120N+02641MA1999999099931MD1999999+0081REMSYN004BUFR
0152826780999992015111418004-06770-043020FM-12+012799999V0202701N0015199999999004000199+03871+02101100731ADDAA101999999AZ101061AZ201061GA1031+006001081GA2999+999999031GE19MSL   +99999+99999GF104991031999006001999999MA1999999099371MD1999999+0061REMSYN004BUFR
0136826780999992015111500004-06770-043020FM-12+012799999V0201801N0005199999999000200199+03451+02061100831ADDAA101999999AZ101061AZ201061GA1021+006001061GE19MSL   +99999+99999GF102991021999006001999999MA1999999099471MD1999999+0021REMSYN004BUFR
0111826780999992015111512004-06770-043020FM-12+012799999V0203601N0015122000199000200199+03121+01791101321ADDAA101999999AZ101061AZ201061GF100991999999999999999999KA1120N+02721MA1999999099961MD1999999+0031REMSYN004BUFR
0136826780999992015111518004-06770-043020FM-12+012799999V0200501N0010199999999004000199+02771+01971100771ADDAA101999999AZ101061AZ201061GA1999+080001001GE19MSL   +99999+99999GF102991999999080001999999MA1999999099711MD1999999+0071REMSYN004BUFR
0098826780999992015111600004-06770-043020FM-12+012799999V0202701N0010122000199000200199+03351+01771100801ADDAA101999999AZ101061AZ201061GF100991999999999999999999MA1999999099441MD1999999-0031REMSYN004BUFR
0165826780999992015111612004-06770-043020FM-12+012799999V0202701N0005199999999004000199+03121+01921101161ADDAA101999999AZ101061AZ201061GA1021+017501031GA2999+999999001GE19MSL   +99999+99999GF105991021999017501999999KA1120N+02741MA1999999099801MD1999999-0161REMSYN004BUFR
0152826780999992015111618004-06770-043020FM-12+012799999V0203201N0005199999999004000199+03771+01971100621ADDAA101999999AZ101061AZ201061GA1041+006001081GA2999+999999001GE19MSL   +99999+99999GF106991041999006001999999MA1999999099261MD1999999-0151REMSYN004BUFR
0152826780999992015111700004-06770-043020FM-12+012799999V0200501N0015100600199000200199+03351+01931100661ADDAA101999999AZ101061AZ201061GA1051+006001061GA2999+999999031GE19MSL   +99999+99999GF107991051999006001999999MA1999999099301MD1999999-0141REMSYN004BUFR
0149826780999992015111712004-06770-043020FM-12+012799999V0200501N0026100600199004000199+03051+02301101041ADDAA124000531AZ101061AZ201061GA1061+006001081GE19MSL   +99999+99999GF108991061999006001999999KA1120N+02631MA1999999099671MD1999999-0131REMSYN004BUFR
0136826780999992015111718004-06770-043020FM-12+012799999V0202701N0051100600199004000199+03291+02181100561ADDAA101999999AZ101061AZ201061GA1051+006001081GE19MSL   +99999+99999GF108991051999006001999999MA1999999099191MD1999999-0071REMSYN004BUFR
0098826780999992015111800004-06770-043020FM-12+012799999V0202701N0021122000199000200199+03051+02191100741ADDAA101999999AZ101061AZ201061GF100991999999999999999999MA1999999099371MD1999999+0071REMSYN004BUFR
0181826780999992015111812004-06770-043020FM-12+012799999V0203601N0015199999999004000199+03071+02191100991ADDAA101999999AZ101061AZ201061GA1032+006001061GA2999+999999051GA3999+999999001GE19MSL   +99999+99999GF102992032999006001999999KA1120N+02541MA1999999099621MD1999999-0051REMSYN004BUFR
0136826780999992015111818004-06770-043020FM-12+012799999V0203601N0010199999999004000199+03671+02101100501ADDAA101999999AZ101061AZ201061GA1041+006001081GE19MSL   +99999+99999GF106991041999006001999999MA1999999099141MD1999999-0051REMSYN004BUFR
0098826780999992015111900004-06770-043020FM-12+012799999V0203601N0000122000199000200199+03241+01931100521ADDAA101999999AZ101061AZ201061GF100991999999999999999999MA1999999099161MD1999999-0211REMSYN004BUFR
0165826780999992015111912004-06770-043020FM-12+012799999V0203601N0005199999999004000199+03151+02051100991ADDAA101999999AZ101061AZ201061GA1011+017501031GA2999+999999001GE19MSL   +99999+99999GF103991011999017501999999KA1120N+02551MA1999999099621MD1999999+0001REMSYN004BUFR
0136826780999992015111918004-06770-043020FM-12+012799999V0201401N0010100600199004000199+03871+02011100461ADDAA101999999AZ101061AZ201061GA1051+006001081GE19MSL   +99999+99999GF105991051999006001999999MA1999999099101MD1999999-0041REMSYN004BUFR
0136826780999992015112000004-06770-043020FM-12+012799999V0202301N0005199999999000200199+03351+01771100531ADDAA101999999AZ101061AZ201061GA1031+017501031GE19MSL   +99999+99999GF103991031999017501999999MA1999999099171MD1999999+0011REMSYN004BUFR
0149826780999992015112012004-06770-043020FM-12+012799999V0203601N0021199999999004000199+03041+02001101071ADDAA101999999AZ101061AZ201061GA1041+006001081GE19MSL   +99999+99999GF108991041999006001999999KA1120N+02731MA1999999099701MD1999999+0081REMSYN004BUFR
0136826780999992015112018004-06770-043020FM-12+012799999V0203201N0021100600199004000199+03771+02061100551ADDAA101999999AZ101061AZ201061GA1051+006001081GE19MSL   +99999+99999GF108991051999006001999999MA1999999099191MD1999999+0091REMSYN004BUFR
0136826780999992015112100004-06770-043020FM-12+012799999V0202301N0015199999999000200199+03301+02051100751ADDAA101999999AZ101061AZ201061GA1999+080001001GE19MSL   +99999+99999GF102991999999080001999999MA1999999099391MD1999999+0221REMSYN004BUFR
0187826780999992015112112004-06770-043020FM-12+012799999V0203601N0000100600199004000199+02421+02321101421ADDAA124022031AY161061AY221061GA1081+006001061GA2999+999999101GA3999+999999101GE19MSL   +99999+99999GF108991081999006001999999KA1120N+02311MA1999999100021MD1999999+0321MW1021REMSYN004BUFR
0168826780999992015112118004-06770-043020FM-12+012799999V0203601N0000199999999004000199+03271+02071100821ADDAA101999999AZ101061AZ201061GA1021+006001061GA2999+999999031GA3999+999999001GE19MSL   +99999+99999GF104991021999006001999999MA1999999099431MD1999999+0241REMSYN004BUFR
0098826780999992015112200004-06770-043020FM-12+012799999V0202701N0015122000199000200199+02841+02311100791ADDAA101999999AZ101061AZ201061GF100991999999999999999999MA1999999099401MD1999999+0011REMSYN004BUFR
0165826780999992015112212004-06770-043020FM-12+012799999V0203601N0010199999999004000199+03021+02241101191ADDAA101999999AZ101061AZ201061GA1031+006001081GA2999+999999001GE19MSL   +99999+99999GF106991031999006001999999KA1120N+02421MA1999999099981MD1999999-0211REMSYN004BUFR
0152826780999992015112218004-06770-043020FM-12+012799999V0203601N0015199999999004000199+03591+01991100771ADDAA101999999AZ101061AZ201061GA1041+006001061GA2999+999999001GE19MSL   +99999+99999GF107991041999006001999999MA1999999099401MD1999999-0031REMSYN004BUFR
0152826780999992015112300004-06770-043020FM-12+012799999V0203601N0000199999999000200199+03071+02441100791ADDAA101999999AZ101061AZ201061GA1031+017501031GA2999+999999001GE19MSL   +99999+99999GF105991031999017501999999MA1999999099421MD1999999+0021REMSYN004BUFR
0149826780999992015112312004-06770-043020FM-12+012799999V0203201N0015199999999004000199+03091+02121101031ADDAA101999999AZ101061AZ201061GA1021+006001081GE19MSL   +99999+99999GF106991021999006001999999KA1120N+02651MA1999999099661MD1999999-0151REMSYN004BUFR
0136826780999992015112318004-06770-043020FM-12+012799999V0203201N0015199999999004000199+03791+01841100411ADDAA101999999AZ101061AZ201061GA1042+006001081GE19MSL   +99999+99999GF102992042999006001999999MA1999999099051MD1999999-0351REMSYN004BUFR
0098826780999992015112400004-06770-043020FM-12+012799999V0203601N0000122000199000200199+03171+02251100451ADDAA101999999AZ101061AZ201061GF100991999999999999999999MA1999999099091MD1999999-0331REMSYN004BUFR
0187826780999992015112412004-06770-043020FM-12+012799999V0202301N0015100600199004000199+03471+02401100991ADDAA124004031AY161061AY221061GA1061+006001081GA2999+999999031GA3999+999999001GE19MSL   +99999+99999GF108991061999006001999999KA1120N+02441MA1999999099631MD1999999-0031MW1021REMSYN004BUFR
0136826780999992015112418004-06770-043020FM-12+012799999V0201801N0015100600199004000199+03571+02161100561ADDAA101999999AZ101061AZ201061GA1051+006001081GE19MSL   +99999+99999GF108991051999006001999999MA1999999099191MD1999999+0141REMSYN004BUFR
0152826780999992015112500004-06770-043020FM-12+012799999V0203601N0000199999999000200199+03021+02241100841ADDAA101999999AZ101061AZ201061GA1031+017501031GA2999+999999001GE19MSL   +99999+99999GF105991031999017501999999MA1999999099481MD1999999+0391REMSYN004BUFR
0181826780999992015112512004-06770-043020FM-12+012799999V0203601N0010100600199004000199+02951+02261101281ADDAA101999999AZ101061AZ201061GA1061+006001061GA2999+999999031GA3999+999999101GE19MSL   +99999+99999GF108991061999006001999999KA1120N+02561MA1999999099901MD1999999+0271REMSYN004BUFR
0168826780999992015112518004-06770-043020FM-12+012799999V0202701N0010199999999004000199+03591+01991100771ADDAA101999999AZ101061AZ201061GA1041+006001081GA2999+999999031GA3999+999999001GE19MSL   +99999+99999GF106991041999006001999999MA1999999099401MD1999999+0211REMSYN004BUFR
0152826780999992015112600004-06770-043020FM-12+012799999V0203601N0000199999999000200199+02891+02121100941ADDAA101999999AZ101061AZ201061GA1021+017501031GA2999+999999001GE19MSL   +99999+99999GF103991021999017501999999MA1999999099561MD1999999+0081REMSYN004BUFR
0149826780999992015112612004-06770-043020FM-12+012799999V0203601N0015199999999004000199+03041+02211101221ADDAA101999999AZ101061AZ201061GA1041+006001081GE19MSL   +99999+99999GF106991041999006001999999KA1120N+02521MA1999999099841MD1999999-0061REMSYN004BUFR
0136826780999992015112618004-06770-043020FM-12+012799999V0203601N0021199999999004000199+03751+02041100601ADDAA101999999AZ101061AZ201061GA1041+006001081GE19MSL   +99999+99999GF108991041999006001999999MA1999999099241MD1999999-0161REMSYN004BUFR
0152826780999992015112700004-06770-043020FM-12+012799999V0203601N0000199999999000200199+03221+02431100831ADDAA101999999AZ101061AZ201061GA1021+017501031GA2999+999999001GE19MSL   +99999+99999GF103991021999017501999999MA1999999099461MD1999999-0101REMSYN004BUFR
0181826780999992015112712004-06770-043020FM-12+012799999V0203201N0015199999999004000199+02941+01971101201ADDAA101999999AZ101061AZ201061GA1031+006001081GA2999+999999031GA3999+999999001GE19MSL   +99999+99999GF105991031999006001999999KA1120N+02691MA1999999099841MD1999999-0011REMSYN004BUFR
0136826780999992015112718004-06770-043020FM-12+012799999V0203201N0010100600199004000199+03671+02061100681ADDAA101999999AZ101061AZ201061GA1051+006001081GE19MSL   +99999+99999GF108991051999006001999999MA1999999099321MD1999999+0031REMSYN004BUFR
0098826780999992015112800004-06770-043020FM-12+012799999V0202301N0010122000199000200199+03121+02191100781ADDAA101999999AZ101061AZ201061GF100991999999999999999999MA1999999099411MD1999999-0051REMSYN004BUFR
0165826780999992015112812004-06770-043020FM-12+012799999V0200901N0015199999999004000199+03221+02141101141ADDAA101999999AZ101061AZ201061GA1041+006001061GA2999+999999031GE19MSL   +99999+99999GF105991041999006001999999KA1120N+02681MA1999999099771MD1999999-0061REMSYN004BUFR
0136826780999992015112818004-06770-043020FM-12+012799999V0201801N0010199999999004000199+03591+02321100821ADDAA101999999AZ101061AZ201061GA1041+006001081GE19MSL   +99999+99999GF104991041999006001999999MA1999999099451MD1999999+0131REMSYN004BUFR
0098826780999992015112900004-06770-043020FM-12+012799999V0202701N0015122000199000200199+03071+02191100871ADDAA101999999AZ101061AZ201061GF100991999999999999999999MA1999999099501MD1999999+0091REMSYN004BUFR
0149826780999992015112912004-06770-043020FM-12+012799999V0200501N0015199999999004000199+03091+02181101291ADDAA101999999AZ101061AZ201061GA1031+006001081GE19MSL   +99999+99999GF105991031999006001999999KA1120N+02531MA1999999099921MD1999999+0151REMSYN004BUFR
0136826780999992015112918004-06770-043020FM-12+012799999V0201401N0021199999999004000199+03821+01651100781ADDAA101999999AZ101061AZ201061GA1041+006001081GE19MSL   +99999+99999GF104991041999006001999999MA1999999099421MD1999999-0031REMSYN004BUFR
0136826780999992015113000004-06770-043020FM-12+012799999V0200901N0010199999999000200199+03171+02141100871ADDAA101999999AZ101061AZ201061GA1999+080001001GE19MSL   +99999+99999GF102991999999080001999999MA1999999099501MD1999999+0001REMSYN004BUFR
0149826780999992015113012004-06770-043020FM-12+012799999V0203201N0015199999999004000199+03071+02011101321ADDAA101999999AZ101061AZ201061GA1999+006001001GE19MSL   +99999+99999GF102991999999006001999999KA1120N+02241MA1999999099951MD1999999+0031REMSYN004BUFR
0136826780999992015113018004-06770-043020FM-12+012799999V0200501N0021199999999004000199+03391+01681100771ADDAA101999999AZ101061AZ201061GA1041+006001081GE19MSL   +99999+99999GF104991041999006001999999MA1999999099341MD1999999-0031REMSYN004BUFR
0098826780999992015120100004-06770-043020FM-12+012799999V0203601N0000122000199000200199+03171+01871100961ADDAA101999999AZ101061AZ201061GF100991999999999999999999MA1999999099591MD1999999+0091REMSYN004BUFR
0111826780999992015120112004-06770-043020FM-12+012799999V0200501N0026122000199004000199+03391+01891101271ADDAA101999999AZ101061AZ201061GF100991999999999999999999KA1120N+02361MA1999999099911MD1999999-0041REMSYN004BUFR
0136826780999992015120118004-06770-043020FM-12+012799999V0201401N0031100600199004000199+04041+01061100721ADDAA101999999AZ101061AZ201061GA1051+006001081GE19MSL   +99999+99999GF105991051999006001999999MA1999999099361MD1999999-0031REMSYN004BUFR
0098826780999992015120200004-06770-043020FM-12+012799999V0200901N0005122000199000200199+03251+01841100811ADDAA101999999AZ101061AZ201061GF100991999999999999999999MA1999999099451MD1999999-0141REMSYN004BUFR
0111826780999992015120212004-06770-043020FM-12+012799999V0203201N0010122000199004000199+03271+01891101151ADDAA101999999AZ101061AZ201061GF100991999999999999999999KA1120N+02441MA1999999099791MD1999999-0121REMSYN004BUFR
0136826780999992015120218004-06770-043020FM-12+012799999V0200901N0026100600199004000199+03971+01521100581ADDAA101999999AZ101061AZ201061GA1051+006001081GE19MSL   +99999+99999GF105991051999006001999999MA1999999099221MD1999999-0141REMSYN004BUFR
0136826780999992015120300004-06770-043020FM-12+012799999V0200901N0005199999999000200199+03351+01771100761ADDAA101999999AZ101061AZ201061GA1031+017501031GE19MSL   +99999+99999GF103991031999017501999999MA1999999099401MD1999999-0051REMSYN004BUFR
0149826780999992015120312004-06770-043020FM-12+012799999V0200501N0015199999999004000199+03191+02031101301ADDAA101999999AZ101061AZ201061GA1999+080001001GE19MSL   +99999+99999GF103991999999080001999999KA1120N+02761MA1999999099941MD1999999-0151REMSYN004BUFR
0136826780999992015120318004-06770-043020FM-12+012799999V0200901N0010100600199004000199+03791+01271100791ADDAA101999999AZ101061AZ201061GA1051+006001081GE19MSL   +99999+99999GF105991051999006001999999MA1999999099431MD1999999+0211REMSYN004BUFR
0098826780999992015120400004-06770-043020FM-12+012799999V0203201N0010122000199000200199+03251+01911100861ADDAA101999999AZ101061AZ201061GF100991999999999999999999MA1999999099501MD1999999+0101REMSYN004BUFR
0165826780999992015120412004-06770-043020FM-12+012799999V0202701N0005199999999004000199+03091+02091101391ADDAA101999999AZ101061AZ201061GA1041+006001081GA2999+999999001GE19MSL   +99999+99999GF107991041999006001999999KA1120N+02701MA1999999100021MD1999999+0081REMSYN004BUFR
0152826780999992015120418004-06770-043020FM-12+012799999V0203601N0000100600199004000199+03641+01941100931ADDAA101999999AZ101061AZ201061GA1051+006001061GA2999+999999001GE19MSL   +99999+99999GF107991051999006001999999MA1999999099561MD1999999+0131REMSYN004BUFR
0098826780999992015120500004-06770-043020FM-12+012799999V0203601N0000122000199000200199+03251+01981101011ADDAA101999999AZ101061AZ201061GF100991999999999999999999MA1999999099641MD1999999+0141REMSYN004BUFR
0181826780999992015120512004-06770-043020FM-12+012799999V0203601N0026100600199004000199+02951+02101101391ADDAA101999999AZ101061AZ201061GA1051+006001061GA2999+999999031GA3999+999999001GE19MSL   +99999+99999GF108991051999006001999999KA1120N+02621MA1999999100011MD1999999-0011REMSYN004BUFR
0168826780999992015120518004-06770-043020FM-12+012799999V0203601N0021100600199004000199+03621+01921100881ADDAA101999999AZ101061AZ201061GA1051+006001091GA2999+999999041GA3999+999999001GE19MSL   +99999+99999GF106991051999006001999999MA1999999099511MD1999999-0051REMSYN004BUFR
0098826780999992015120600004-06770-043020FM-12+012799999V0203601N0000122000199000200199+03251+02111101091ADDAA101999999AZ101061AZ201061GF100991999999999999999999MA1999999099721MD1999999+0081REMSYN004BUFR
0165826780999992015120612004-06770-043020FM-12+012799999V0202701N0010199999999004000199+03171+02071101421ADDAA101999999AZ101061AZ201061GA1031+006001081GA2999+999999001GE19MSL   +99999+99999GF106991031999006001999999KA1120N+02621MA1999999100051MD1999999+0041REMSYN004BUFR
0152826780999992015120618004-06770-043020FM-12+012799999V0201801N0005199999999004000199+03721+01961100901ADDAA101999999AZ101061AZ201061GA1041+006001081GA2999+999999001GE19MSL   +99999+99999GF105991041999006001999999MA1999999099531MD1999999+0021REMSYN004BUFR
0152826780999992015120700004-06770-043020FM-12+012799999V0201801N0005199999999000200199+03321+02101100941ADDAA101999999AZ101061AZ201061GA1021+017501031GA2999+999999001GE19MSL   +99999+99999GF103991021999017501999999MA1999999099581MD1999999-0141REMSYN004BUFR
0200826780999992015120712004-06770-043020FM-12+012799999V0203601N0005100600199004000199+02751+02321101431ADDAA124004031AY121061AY261061GA1051+006001061GA2999+999999031GA3999+999999001GE19MSL   +99999+99999GF108991051999006001999999KA1120N+02481MA1999999100051MD1999999+0001REMSYN004BUFREQDQ0170    2PRSWM 
0152826780999992015120718004-06770-043020FM-12+012799999V0202701N0005100600199004000199+03491+02131100931ADDAA101999999AZ101061AZ201061GA1051+006001061GA2999+999999001GE19MSL   +99999+99999GF106991051999006001999999MA1999999099551MD1999999+0021REMSYN004BUFR
0098826780999992015120800004-06770-043020FM-12+012799999V0203601N0000122000199000200199+03151+02231100981ADDAA101999999AZ101061AZ201061GF100991999999999999999999MA1999999099601MD1999999+0021REMSYN004BUFR
0181826780999992015120812004-06770-043020FM-12+012799999V0203601N0021199999999004000199+02941+02001101361ADDAA101999999AZ101061AZ201061GA1031+006001081GA2999+999999031GA3999+999999001GE19MSL   +99999+99999GF106991031999006001999999KA1120N+02571MA1999999099981MD1999999-0071REMSYN004BUFR
0136826780999992015120818004-06770-043020FM-12+012799999V0203601N0010199999999004000199+03741+02021100781ADDAA101999999AZ101061AZ201061GA1041+006001081GE19MSL   +99999+99999GF104991041999006001999999MA1999999099411MD1999999-0141REMSYN004BUFR
0098826780999992015120900004-06770-043020FM-12+012799999V0203601N0000122000199000200199+03221+02171100901ADDAA101999999AZ101061AZ201061GF100991999999999999999999MA1999999099531MD1999999-0071REMSYN004BUFR
0149826780999992015120912004-06770-043020FM-12+012799999V0200501N0015199999999004000199+03121+02111101371ADDAA101999999AZ101061AZ201061GA1021+050001001GE19MSL   +99999+99999GF102991021999050001999999KA1120N+02521MA1999999100001MD1999999+0021REMSYN004BUFR
0136826780999992015120918004-06770-043020FM-12+012799999V0201801N0015199999999004000199+03841+01491100771ADDAA101999999AZ101061AZ201061GA1031+006001081GE19MSL   +99999+99999GF103991031999006001999999MA1999999099411MD1999999+0001REMSYN004BUFR
0098826780999992015121000004-06770-043020FM-12+012799999V0203601N0000122000199000200199+03321+01891100881ADDAA101999999AZ101061AZ201061GF100991999999999999999999MA1999999099521MD1999999-0011REMSYN004BUFR
0181826780999992015121012004-06770-043020FM-12+012799999V0203601N0015199999999004000199+03091+02201101331ADDAA101999999AZ101061AZ201061GA1031+006001081GA2999+999999031GA3999+999999001GE19MSL   +99999+99999GF105991031999006001999999KA1120N+02821MA1999999099961MD1999999-0041REMSYN004BUFR
0152826780999992015121018004-06770-043020FM-12+012799999V0200901N0010100600199004000199+03691+01941100891ADDAA101999999AZ101061AZ201061GA1051+006001081GA2999+999999031GE19MSL   +99999+99999GF106991051999006001999999MA1999999099531MD1999999+0121REMSYN004BUFR
0152826780999992015121100004-06770-043020FM-12+012799999V0203601N0000101750199000200199+03351+02171101001ADDAA101999999AZ101061AZ201061GA1051+017501031GA2999+999999001GE19MSL   +99999+99999GF108991051999017501999999MA1999999099641MD1999999+0121REMSYN004BUFR
0181826780999992015121112004-06770-043020FM-12+012799999V0200901N0015100600199004000199+02771+02401101451ADDAA101999999AZ101061AZ201061GA1081+006001061GA2999+999999101GA3999+999999101GE19MSL   +99999+99999GF108991081999006001999999KA1120N+02621MA1999999100071MD1999999+0111REMSYN004BUFR
0158826780999992015121118004-06770-043020FM-12+012799999V0202701N0021100600199004000199+03651+02081100881ADDAA106000431AY121061AY261061GA1051+006001081GA2999+999999001GE19MSL   +99999+99999GF106991051999006001999999MA1999999099511MD1999999-0021MW1021REMSYN004BUFR
0142826780999992015121200004-06770-043020FM-12+012799999V0202301N0005199999999000200199+02971+02401101011ADDAA106006031AY161061AY221061GA1031+017501031GE19MSL   +99999+99999GF103991031999017501999999MA1999999099631MD1999999-0011MW1021REMSYN004BUFR
0149826780999992015121212004-06770-043020FM-12+012799999V0203601N0010199999999004000199+03091+02291101381ADDAA124007031AZ101061AZ201061GA1021+006001081GE19MSL   +99999+99999GF102991021999006001999999KA1120N+02581MA1999999100001MD1999999-0071REMSYN004BUFR
0136826780999992015121218004-06770-043020FM-12+012799999V0201401N0005100600199004000199+03791+01631100881ADDAA101999999AZ101061AZ201061GA1051+006001081GE19MSL   +99999+99999GF105991051999006001999999MA1999999099521MD1999999+0011REMSYN004BUFR
0136826780999992015121300004-06770-043020FM-12+012799999V0200501N0015199999999000200199+03251+02051100891ADDAA101999999AZ101061AZ201061GA1031+017501031GE19MSL   +99999+99999GF103991031999017501999999MA1999999099531MD1999999-0101REMSYN004BUFR
0149826780999992015121312004-06770-043020FM-12+012799999V0200901N0026199999999004000199+03121+02021101241ADDAA101999999AZ101061AZ201061GA1041+006001081GE19MSL   +99999+99999GF105991041999006001999999KA1120N+02621MA1999999099871MD1999999-0131REMSYN004BUFR
0152826780999992015121318004-06770-043020FM-12+012799999V0201401N0041100600199004000199+03821+01861100781ADDAA101999999AZ101061AZ201061GA1051+006001081GA2999+999999031GE19MSL   +99999+99999GF106991051999006001999999MA1999999099421MD1999999-0101REMSYN004BUFR
0136826780999992015121400004-06770-043020FM-12+012799999V0202701N0005199999999000200199+03241+01931100811ADDAA101999999AZ101061AZ201061GA1031+006001061GE19MSL   +99999+99999GF103991031999006001999999MA1999999099451MD1999999-0081REMSYN004BUFR
0149826780999992015121412004-06770-043020FM-12+012799999V0200501N0021199999999004000199+03221+02111101121ADDAA101999999AZ101061AZ201061GA1031+006001081GE19MSL   +99999+99999GF103991031999006001999999KA1120N+02621MA1999999099761MD1999999-0111REMSYN004BUFR
0136826780999992015121418004-06770-043020FM-12+012799999V0201401N0010100600199004000199+03941+01571100621ADDAA101999999AZ101061AZ201061GA1051+006001081GE19MSL   +99999+99999GF105991051999006001999999MA1999999099261MD1999999-0161REMSYN004BUFR
0098826780999992015121500004-06770-043020FM-12+012799999V0201401N0005122000199000200199+03301+01501100701ADDAA101999999AZ101061AZ201061GF100991999999999999999999MA1999999099341MD1999999-0111REMSYN004BUFR
0149826780999992015121512004-06770-043020FM-12+012799999V0200501N0015199999999004000199+03221+01841101041ADDAA101999999AZ101061AZ201061GA1041+006001081GE19MSL   +99999+99999GF104991041999006001999999KA1120N+02581MA1999999099681MD1999999-0081REMSYN004BUFR
0136826780999992015121518004-06770-043020FM-12+012799999V0203201N0010100600199004000199+03751+01811100721ADDAA101999999AZ101061AZ201061GA1051+006001081GE19MSL   +99999+99999GF105991051999006001999999MA1999999099351MD1999999+0091REMSYN004BUFR
0098826780999992015121600004-06770-043020FM-12+012799999V0203601N0000122000199000200199+03221+01731100861ADDAA101999999AZ101061AZ201061GF100991999999999999999999MA1999999099501MD1999999+0161REMSYN004BUFR
0181826780999992015121612004-06770-043020FM-12+012799999V0203601N0015199999999004000199+03351+01891101231ADDAA101999999AZ101061AZ201061GA1011+006001081GA2999+999999031GA3999+999999001GE19MSL   +99999+99999GF103991011999006001999999KA1120N+02541MA1999999099871MD1999999+0191REMSYN004BUFR
0152826780999992015121618004-06770-043020FM-12+012799999V0200901N0005199999999004000199+03791+01791100881ADDAA101999999AZ101061AZ201061GA1041+006001081GA2999+999999001GE19MSL   +99999+99999GF106991041999006001999999MA1999999099511MD1999999+0161REMSYN004BUFR
0152826780999992015121700004-06770-043020FM-12+012799999V0200501N0015199999999000200199+03171+01651100921ADDAA101999999AZ101061AZ201061GA1041+006001061GA2999+999999031GE19MSL   +99999+99999GF106991041999006001999999MA1999999099561MD1999999+0061REMSYN004BUFR
