0168827650999992015013118004-07333-047467FM-12+019499999V0203601N0000100800199020000199+03141+02351101151ADDAA101999999AZ101061AZ201061GA1051+008001081GA2999+999999051GA3999+999999101GE19MSL   +99999+99999GF108991051999008001999999MA1999999098781MD1999999+0031REMSYN004BUFR
0165827650999992015020812004-07333-047467FM-12+019499999V0203601N0000100450199020000199+02571+02381101571ADDAA101999999AZ101061AZ201061GA1051+004501081GA2999+999999041GE19MSL   +99999+99999GF107991051999004501999999KA1120N+02411MA1999999099161MD1999999+0051REMSYN004BUFR
0165827650999992015020912004-07333-047467FM-12+019499999V0203601N0000199999999020000199+02391+02261101521ADDAA124036031AZ101061AZ201061GA1021+004501071GA2999+999999031GE19MSL   +99999+99999GF104991021999004501999999KA1120N+02211MA1999999099111MD1999999-0051REMSYN004BUFR
0181827650999992015022612004-07333-047467FM-12+019499999V0203601N0000199999999020000199+02521+02451101611ADDAA124000631AZ101061AZ201061GA1041+002501081GA2999+999999041GA3999+999999001GE19MSL   +99999+99999GF107991041999002501999999KA1120N+02291MA1999999099211MD1999999-0071REMSYN004BUFR
0165827650999992015030512004-07333-047467FM-12+019499999V0203601N0000199999999020000199+02641+02481101541ADDAA124010031AZ101061AZ201061GA1031+008001081GA2999+999999031GE19MSL   +99999+99999GF106991031999008001999999KA1120N+02231MA1999999099141MD1999999-0021REMSYN004BUFR
0152827650999992015032218004-07333-047467FM-12+019499999V0203601N0000199999999020000199+03071+02241101281ADDAA101999999AZ101061AZ201061GA1031+008001081GA2999+999999021GE19MSL   +99999+99999GF105991031999008001999999MA1999999098891MD1999999-0071REMSYN004BUFR
0136827650999992015041718004-07333-047467FM-12+019499999V020180199999900800199020000199+03251+02351101111ADDAA101999999AZ101061AZ201061GA1051+008001081GE19MSL   +99999+99999GF105991051999008001999999MA1999999098751MD1999999-0061REMSYN004BUFR
0174827650999992015042218004-07333-047467FM-12+019499999V020320199999999999999010000199+02501+02321101271ADDAA106031031AY121061AY221061GA1041+004501091GA2999+999999051GA3999+999999001GE19MSL   +99999+99999GF107991041999004501999999MA1999999098861MD1999999-0161MW1291REMSYN004BUFR
0187827650999992015042612004-07333-047467FM-12+019499999V0203601N0000199999999020000199+02701+02451101661ADDAA124015031AY151061AY221061GA1011+008001081GA2999+999999031GA3999+999999001GE19MSL   +99999+99999GF104991011999008001999999KA1120N+02271MA1999999099251MD1999999-0071MW1021REMSYN004BUFR
0168827650999992015052218004-07333-047467FM-12+019499999V020090199999999999999020000199+03251+02151101451ADDAA101999999AZ101061AZ201061GA1041+008001081GA2999+999999031GA3999+999999021GE19MSL   +99999+99999GF107991041999008001999999MA1999999099081MD1999999-0031REMSYN004BUFR
0149827650999992015060212004-07333-047467FM-12+019499999V0203601N0000199999999020000199+02771+02181101621ADDAA101999999AZ101061AZ201061GA1031+008001081GE19MSL   +99999+99999GF103991031999008001999999KA1120N+02191MA1999999099241MD1999999-0131REMSYN004BUFR
0149827650999992015070412004-07333-047467FM-12+019499999V020090199999999999999020000199+02871+02281101681ADDAA101999999AZ101061AZ201061GA1031+008001081GE19MSL   +99999+99999GF103991031999008001999999KA1120N+02331MA1999999099301MD1999999-0051REMSYN004BUFR
0149827650999992015071012004-07333-047467FM-12+019499999V020090199999999999999020000199+02771+02111101821ADDAA101999999AZ101061AZ201061GA1011+017501001GE19MSL   +99999+99999GF101991011999017501999999KA1120N+02171MA1999999099441MD1999999+0061REMSYN004BUFR
0098827650999992015071518004-07333-047467FM-12+019499999V020090199999922000199020000199+03391+01241101401ADDAA101999999AZ101061AZ201061GF100991999999999999999999MA1999999099031MD1999999-0091REMSYN004BUFR
0149827650999992015072512004-07333-047467FM-12+019499999V020090199999999999999020000199+02751+01771101821ADDAA101999999AZ101061AZ201061GA1021+012501081GE19MSL   +99999+99999GF102991021999012501999999KA1120N+01991MA1999999099431MD1999999-0091REMSYN004BUFR
0149827650999992015073012004-07330-047460FM-12+019399999V020090199999999999999020000199+02751+01321101701ADDAA101999999AZ101061AZ201061GA1021+012501001GE19MSL   +99999+99999GF102991021999012501999999KA1120N+02031MA1999999099311MD1999999-0031REMSYN004BUFR
0152827650999992015073018004-07330-047460FM-12+019399999V020050199999999999999020000199+03541+01321101341ADDAA101999999AZ101061AZ201061GA1021+006001081GA2999+999999021GE19MSL   +99999+99999GF104991021999006001999999MA1999999098981MD1999999+0031REMSYN004BUFR
0136827650999992015073100004-07330-047460FM-12+019399999V020050199999901750199020000199+02821+01681101551ADDAA101999999AZ101061AZ201061GA1051+017501031GE19MSL   +99999+99999GF105991051999017501999999MA1999999099171MD1999999-0031REMSYN004BUFR
0149827650999992015073112004-07330-047460FM-12+019399999V020090199999999999999020000199+02741+01571101761ADDAA101999999AZ101061AZ201061GA1031+017501001GE19MSL   +99999+99999GF103991031999017501999999KA1120N+02151MA1999999099371MD1999999+0061REMSYN004BUFR
0152827650999992015073118004-07330-047460FM-12+019399999V020090199999999999999020000199+03491+01381101401ADDAA101999999AZ101061AZ201061GA1031+006001081GA2999+999999001GE19MSL   +99999+99999GF104991031999006001999999MA1999999099041MD1999999+0061REMSYN004BUFR
0098827650999992015080100004-07330-047460FM-12+019399999V020090199999922000199020000199+02751+01561101631ADDAA101999999AZ101061AZ201061GF100991999999999999999999MA1999999099241MD1999999+0071REMSYN004BUFR
0111827650999992015080112004-07330-047460FM-12+019399999V020090199999922000199020000199+02401+01501101811ADDAA101999999AZ101061AZ201061GF100991999999999999999999KA1120N+01751MA1999999099401MD1999999+0031REMSYN004BUFR
0098827650999992015080118004-07330-047460FM-12+019399999V020140199999922000199020000199+03501+01481101271ADDAA101999999AZ101061AZ201061GF100991999999999999999999MA1999999098921MD1999999-0121REMSYN004BUFR
0098827650999992015080200004-07330-047460FM-12+019399999V0203601N0000122000199020000199+02791+01631101531ADDAA101999999AZ101061AZ201061GF100991999999999999999999MA1999999099131MD1999999-0111REMSYN004BUFR
0111827650999992015080212004-07330-047460FM-12+019399999V020090199999922000199020000199+02371+01481101721ADDAA101999999AZ101061AZ201061GF100991999999999999999999KA1120N+01831MA1999999099311MD1999999-0091REMSYN004BUFR
0098827650999992015080218004-07330-047460FM-12+019399999V020140199999922000199020000199+03441+01331101291ADDAA101999999AZ101061AZ201061GF100991999999999999999999MA1999999098911MD1999999-0011REMSYN004BUFR
0111827650999992015080312004-07330-047460FM-12+019399999V020090199999922000199020000199+02591+01601101771ADDAA101999999AZ101061AZ201061GF100991999999999999999999KA1120N+02111MA1999999099371MD1999999+0061REMSYN004BUFR
0098827650999992015080318004-07330-047460FM-12+019399999V020140199999922000199020000199+03471+01471101391ADDAA101999999AZ101061AZ201061GF100991999999999999999999MA1999999099031MD1999999+0121REMSYN004BUFR
0098827650999992015080400004-07330-047460FM-12+019399999V0203601N0000122000199020000199+02771+01731101601ADDAA101999999AZ101061AZ201061GF100991999999999999999999MA1999999099211MD1999999+0091REMSYN004BUFR
0111827650999992015080412004-07330-047460FM-12+019399999V020110199999922000199020000199+02671+01581101881ADDAA101999999AZ101061AZ201061GF100991999999999999999999KA1120N+02011MA1999999099481MD1999999+0111REMSYN004BUFR
0136827650999992015080418004-07330-047460FM-12+019399999V020090199999999999999020000199+03571+01391101431ADDAA101999999AZ101061AZ201061GA1011+006001081GE19MSL   +99999+99999GF101991011999006001999999MA1999999099061MD1999999+0031REMSYN004BUFR
0098827650999992015080500004-07330-047460FM-12+019399999V0203601N0000122000199020000199+02841+01781101611ADDAA101999999AZ101061AZ201061GF100991999999999999999999MA1999999099221MD1999999+0011REMSYN004BUFR
0111827650999992015080512004-07330-047460FM-12+019399999V020090199999922000199020000199+02871+01601101781ADDAA101999999AZ101061AZ201061GF100991999999999999999999KA1120N+01931MA1999999099401MD1999999-0081REMSYN004BUFR
0136827650999992015080518004-07330-047460FM-12+019399999V020140199999999999999020000199+03521+01281101371ADDAA101999999AZ101061AZ201061GA1011+006001081GE19MSL   +99999+99999GF101991011999006001999999MA1999999099011MD1999999-0051REMSYN004BUFR
0098827650999992015080600004-07330-047460FM-12+019399999V0203601N0000122000199020000199+02791+01841101571ADDAA101999999AZ101061AZ201061GF100991999999999999999999MA1999999099191MD1999999-0031REMSYN004BUFR
0165827650999992015080612004-07330-047460FM-12+019399999V020140199999999999999020000199+02721+01621101751ADDAA101999999AZ101061AZ201061GA1011+006001081GA2999+999999031GE19MSL   +99999+99999GF102991011999006001999999KA1120N+01891MA1999999099361MD1999999-0041REMSYN004BUFR
0098827650999992015080618004-07330-047460FM-12+019399999V0203601N0000122000199020000199+03541+01411101281ADDAA101999999AZ101061AZ201061GF100991999999999999999999MA1999999098911MD1999999-0101REMSYN004BUFR
0098827650999992015080700004-07330-047460FM-12+019399999V020050199999922000199020000199+02821+01611101421ADDAA101999999AZ101061AZ201061GF100991999999999999999999MA1999999099041MD1999999-0151REMSYN004BUFR
0149827650999992015080712004-07330-047460FM-12+019399999V0203601N0000199999999020000199+02701+01691101621ADDAA101999999AZ101061AZ201061GA1021+006001081GE19MSL   +99999+99999GF102991021999006001999999KA1120N+01901MA1999999099231MD1999999-0131REMSYN004BUFR
0152827650999992015080718004-07330-047460FM-12+019399999V020050199999999999999020000199+03521+01551101201ADDAA101999999AZ101061AZ201061GA1031+006001081GA2999+999999001GE19MSL   +99999+99999GF104991031999006001999999MA1999999098841MD1999999-0111REMSYN004BUFR
0098827650999992015080800004-07330-047460FM-12+019399999V0203601N0000122000199020000199+02821+01711101461ADDAA101999999AZ101061AZ201061GF100991999999999999999999MA1999999099071MD1999999+0031REMSYN004BUFR
0165827650999992015080812004-07330-047460FM-12+019399999V0203601N0000199999999020000199+02791+01721101601ADDAA101999999AZ101061AZ201061GA1011+006001081GA2999+999999031GE19MSL   +99999+99999GF102991011999006001999999KA1120N+02091MA1999999099221MD1999999-0011REMSYN004BUFR
0136827650999992015080818004-07330-047460FM-12+019399999V020180199999999999999020000199+03551+01311101201ADDAA101999999AZ101061AZ201061GA1021+006001081GE19MSL   +99999+99999GF102991021999006001999999MA1999999098851MD1999999+0011REMSYN004BUFR
0098827650999992015080900004-07330-047460FM-12+019399999V020180199999922000199020000199+02821+01411101441ADDAA101999999AZ101061AZ201061GF100991999999999999999999MA1999999099061MD1999999-0011REMSYN004BUFR
0111827650999992015080912004-07330-047460FM-12+019399999V020050199999922000199020000199+02701+01411101671ADDAA101999999AZ101061AZ201061GF100991999999999999999999KA1120N+02051MA1999999099281MD1999999+0061REMSYN004BUFR
0136827650999992015080918004-07330-047460FM-12+019399999V020140199999999999999020000199+03521+01281101301ADDAA101999999AZ101061AZ201061GA1021+017501031GE19MSL   +99999+99999GF102991021999017501999999MA1999999098941MD1999999+0091REMSYN004BUFR
0098827650999992015081000004-07330-047460FM-12+019399999V0203601N0000122000199020000199+02721+02681101501ADDAA101999999AZ101061AZ201061GF100991999999999999999999MA1999999099111MD1999999+0051REMSYN004BUFR
0111827650999992015081012004-07330-047460FM-12+019399999V020090199999922000199020000199+02871+01311101631ADDAA101999999AZ101061AZ201061GF100991999999999999999999KA1120N+01891MA1999999099251MD1999999+0141REMSYN004BUFR
0136827650999992015081018004-07330-047460FM-12+019399999V020140199999999999999020000199+03521+01341101381ADDAA101999999AZ101061AZ201061GA1021+006001081GE19MSL   +99999+99999GF102991021999006001999999MA1999999099021MD1999999+0081REMSYN004BUFR
0136827650999992015081100004-07330-047460FM-12+019399999V0203601N0000100600199020000199+02921+01531101641ADDAA101999999AZ101061AZ201061GA1061+006001081GE19MSL   +99999+99999GF106991061999006001999999MA1999999099261MD1999999+0151REMSYN004BUFR
0111827650999992015081112004-07330-047460FM-12+019399999V020110199999922000199020000199+02851+01521101811ADDAA101999999AZ101061AZ201061GF100991999999999999999999KA1120N+02001MA1999999099431MD1999999+0181REMSYN004BUFR
0136827650999992015081118004-07330-047460FM-12+019399999V020090199999999999999020000199+03471+01411101371ADDAA101999999AZ101061AZ201061GA1021+006001081GE19MSL   +99999+99999GF102991021999006001999999MA1999999099011MD1999999-0011REMSYN004BUFR
0098827650999992015081200004-07330-047460FM-12+019399999V0203601N0000122000199020000199+02841+01671101601ADDAA101999999AZ101061AZ201061GF100991999999999999999999MA1999999099221MD1999999-0041REMSYN004BUFR
0111827650999992015081212004-07333-047467FM-12+019499999V020090199999922000199020000199+02771+01301101841ADDAA101999999AZ101061AZ201061GF100991999999999999999999KA1120N+02131MA1999999099451MD1999999+0021REMSYN004BUFR
0098827650999992015081218004-07333-047467FM-12+019499999V020140199999922000199020000199+03451+01401101301ADDAA101999999AZ101061AZ201061GF100991999999999999999999MA1999999098941MD1999999-0071REMSYN004BUFR
0098827650999992015081300004-07333-047467FM-12+019499999V020140199999922000199020000199+02741+01541101611ADDAA101999999AZ101061AZ201061GF100991999999999999999999MA1999999099221MD1999999+0001REMSYN004BUFR
0111827650999992015081312004-07333-047467FM-12+019499999V020140199999922000199020000199+02621+01231101931ADDAA101999999AZ101061AZ201061GF100991999999999999999999KA1120N+01971MA1999999099531MD1999999+0081REMSYN004BUFR
0098827650999992015081318004-07333-047467FM-12+019499999V020140199999922000199020000199+03321+01051101451ADDAA101999999AZ101061AZ201061GF100991999999999999999999MA1999999099071MD1999999+0131REMSYN004BUFR
0098827650999992015081400004-07333-047467FM-12+019499999V0203601N0000122000199020000199+02671+01451101701ADDAA101999999AZ101061AZ201061GF100991999999999999999999MA1999999099301MD1999999+0081REMSYN004BUFR
0111827650999992015081412004-07333-047467FM-12+019499999V020140199999922000199020000199+02521+01211101941ADDAA101999999AZ101061AZ201061GF100991999999999999999999KA1120N+01811MA1999999099531MD1999999+0001REMSYN004BUFR
0098827650999992015081418004-07333-047467FM-12+019499999V020090199999922000199020000199+03451+01341101421ADDAA101999999AZ101061AZ201061GF100991999999999999999999MA1999999099051MD1999999-0021REMSYN004BUFR
0098827650999992015081500004-07333-047467FM-12+019499999V020050199999922000199020000199+02751+01661101651ADDAA101999999AZ101061AZ201061GF100991999999999999999999MA1999999099251MD1999999-0051REMSYN004BUFR
0111827650999992015081512004-07333-047467FM-12+019499999V0203601N0000122000199020000199+02691+01601101871ADDAA101999999AZ101061AZ201061GF100991999999999999999999KA1120N+02011MA1999999099471MD1999999-0061REMSYN004BUFR
0136827650999992015081518004-07333-047467FM-12+019499999V020050199999999999999020000199+03541+01461101371ADDAA101999999AZ101061AZ201061GA1011+006001081GE19MSL   +99999+99999GF101991011999006001999999MA1999999099011MD1999999-0041REMSYN004BUFR
0111827650999992015081612004-07333-047467FM-12+019499999V020180199999922000199020000199+02921+01571101711ADDAA101999999AZ101061AZ201061GF100991999999999999999999KA1120N+02151MA1999999099341MD1999999-0131REMSYN004BUFR
0136827650999992015081618004-07333-047467FM-12+019499999V020140199999999999999020000199+03671+01441101261ADDAA101999999AZ101061AZ201061GA1031+006001081GE19MSL   +99999+99999GF103991031999006001999999MA1999999098911MD1999999-0101REMSYN004BUFR
0098827650999992015081700004-07333-047467FM-12+019499999V0203601N0000122000199020000199+02991+01681101491ADDAA101999999AZ101061AZ201061GF100991999999999999999999MA1999999099121MD1999999-0101REMSYN004BUFR
0111827650999992015081712004-07333-047467FM-12+019499999V020140199999922000199020000199+02871+01221101791ADDAA101999999AZ101061AZ201061GF100991999999999999999999KA1120N+02211MA1999999099421MD1999999+0081REMSYN004BUFR
0136827650999992015081718004-07333-047467FM-12+019499999V020140199999999999999020000199+03491+01381101351ADDAA101999999AZ101061AZ201061GA1011+006001081GE19MSL   +99999+99999GF101991011999006001999999MA1999999098991MD1999999+0081REMSYN004BUFR
0098827650999992015081800004-07333-047467FM-12+019499999V0203601N0000122000199020000199+02851+01651101491ADDAA101999999AZ101061AZ201061GF100991999999999999999999MA1999999099111MD1999999-0011REMSYN004BUFR
0111827650999992015081812004-07333-047467FM-12+019499999V020090199999922000199020000199+02841+01461101741ADDAA101999999AZ101061AZ201061GF100991999999999999999999KA1120N+02031MA1999999099361MD1999999-0061REMSYN004BUFR
0136827650999992015081818004-07333-047467FM-12+019499999V020050199999999999999020000199+03641+01381101231ADDAA101999999AZ101061AZ201061GA1021+006001081GE19MSL   +99999+99999GF102991021999006001999999MA1999999098881MD1999999-0111REMSYN004BUFR
0098827650999992015081900004-07333-047467FM-12+019499999V020050199999922000199020000199+02891+01691101451ADDAA101999999AZ101061AZ201061GF100991999999999999999999MA1999999099071MD1999999-0041REMSYN004BUFR
0111827650999992015081912004-07333-047467FM-12+019499999V020090199999922000199020000199+02791+01261101601ADDAA101999999AZ101061AZ201061GF100991999999999999999999KA1120N+02071MA1999999099251MD1999999-0141REMSYN004BUFR
0098827650999992015081918004-07333-047467FM-12+019499999V020090199999922000199020000199+03671+01211101131ADDAA101999999AZ101061AZ201061GF100991999999999999999999MA1999999098791MD1999999-0091REMSYN004BUFR
0098827650999992015082000004-07333-047467FM-12+019499999V0203601N0000122000199020000199+02941+01511101341ADDAA101999999AZ101061AZ201061GF100991999999999999999999MA1999999098971MD1999999-0101REMSYN004BUFR
0111827650999992015082012004-07333-047467FM-12+019499999V0203601N0000122000199020000199+02751+01491101561ADDAA101999999AZ101061AZ201061GF100991999999999999999999KA1120N+01961MA1999999099181MD1999999-0071REMSYN004BUFR
0136827650999992015082018004-07333-047467FM-12+019499999V020050199999999999999020000199+03641+01381101201ADDAA101999999AZ101061AZ201061GA1031+006001081GE19MSL   +99999+99999GF103991031999006001999999MA1999999098851MD1999999+0061REMSYN004BUFR
0136827650999992015082100004-07333-047467FM-12+019499999V0203601N0000199999999020000199+02951+02071101411ADDAA101999999AZ101061AZ201061GA1031+017501031GE19MSL   +99999+99999GF103991031999017501999999MA1999999099041MD1999999+0071REMSYN004BUFR
0149827650999992015082112004-07333-047467FM-12+019499999V020270199999999999999020000199+03021+02071101571ADDAA101999999AZ101061AZ201061GA1011+017501081GE19MSL   +99999+99999GF101991011999017501999999KA1120N+02231MA1999999099211MD1999999+0031REMSYN004BUFR
0136827650999992015082118004-07333-047467FM-12+019499999V020090199999999999999020000199+03691+01711101271ADDAA101999999AZ101061AZ201061GA1031+006001081GE19MSL   +99999+99999GF103991031999006001999999MA1999999098871MD1999999+0021REMSYN004BUFR
0136827650999992015082200004-07333-047467FM-12+019499999V0203601N0000199999999020000199+03101+01901101331ADDAA101999999AZ101061AZ201061GA1021+017501031GE19MSL   +99999+99999GF102991021999017501999999MA1999999098981MD1999999-0061REMSYN004BUFR
0111827650999992015082212004-07333-047467FM-12+019499999V020320199999922000199020000199+02971+02091101531ADDAA101999999AZ101061AZ201061GF100991999999999999999999KA1120N+02171MA1999999099171MD1999999-0041REMSYN004BUFR
0136827650999992015082218004-07333-047467FM-12+019499999V020360199999999999999020000199+03541+01931101101ADDAA101999999AZ101061AZ201061GA1041+006001081GE19MSL   +99999+99999GF104991041999006001999999MA1999999098751MD1999999-0121REMSYN004BUFR
0098827650999992015082300004-07333-047467FM-12+019499999V0203601N0000122000199020000199+02971+02061101321ADDAA101999999AZ101061AZ201061GF100991999999999999999999MA1999999098961MD1999999-0021REMSYN004BUFR
0111827650999992015082312004-07333-047467FM-12+019499999V0203601N0000122000199020000199+02921+02381101441ADDAA101999999AZ101061AZ201061GF100991999999999999999999KA1120N+02231MA1999999099071MD1999999-0101REMSYN004BUFR
0136827650999992015082318004-07333-047467FM-12+019499999V020050199999999999999020000199+03621+01831101021ADDAA101999999AZ101061AZ201061GA1031+006001081GE19MSL   +99999+99999GF103991031999006001999999MA1999999098681MD1999999-0071REMSYN004BUFR
0136827650999992015082400004-07333-047467FM-12+019499999V0203601N0000199999999020000199+03121+02361101251ADDAA101999999AZ101061AZ201061GA1011+006001081GE19MSL   +99999+99999GF101991011999006001999999MA1999999098891MD1999999-0071REMSYN004BUFR
0149827650999992015082412004-07333-047467FM-12+019499999V020050199999999999999020000199+02951+01991101521ADDAA101999999AZ101061AZ201061GA1021+006001081GE19MSL   +99999+99999GF102991021999006001999999KA1120N+02191MA1999999099161MD1999999+0091REMSYN004BUFR
0136827650999992015082418004-07333-047467FM-12+019499999V020270199999900600199020000199+03491+02021101031ADDAA101999999AZ101061AZ201061GA1051+006001081GE19MSL   +99999+99999GF105991051999006001999999MA1999999098681MD1999999+0001REMSYN004BUFR
0136827650999992015082500004-07333-047467FM-12+019499999V0203601N0000199999999020000199+03021+02041101201ADDAA101999999AZ101061AZ201061GA1021+012501031GE19MSL   +99999+99999GF102991021999012501999999MA1999999098851MD1999999-0041REMSYN004BUFR
0181827650999992015082512004-07333-047467FM-12+019499999V020050199999999999999020000199+02971+02171101561ADDAA101999999AZ101061AZ201061GA1011+006001081GA2999+999999031GA3999+999999001GE19MSL   +99999+99999GF103991011999006001999999KA1120N+02461MA1999999099201MD1999999+0041REMSYN004BUFR
0168827650999992015082518004-07333-047467FM-12+019499999V020090199999999999999020000199+03491+01901101121ADDAA101999999AZ101061AZ201061GA1041+006001081GA2999+999999031GA3999+999999001GE19MSL   +99999+99999GF106991041999006001999999MA1999999098781MD1999999+0101REMSYN004BUFR
0098827650999992015082600004-07333-047467FM-12+019499999V0203601N0000122000199020000199+03021+02041101261ADDAA101999999AZ101061AZ201061GF100991999999999999999999MA1999999098901MD1999999+0051REMSYN004BUFR
0165827650999992015082612004-07333-047467FM-12+019499999V020360199999999999999020000199+02741+02101101691ADDAA101999999AZ101061AZ201061GA1021+006001081GA2999+999999001GE19MSL   +99999+99999GF103991021999006001999999KA1120N+02391MA1999999099311MD1999999+0111REMSYN004BUFR
0168827650999992015082618004-07333-047467FM-12+019499999V020050199999999999999020000199+03641+01941101171ADDAA101999999AZ101061AZ201061GA1041+006001081GA2999+999999041GA3999+999999021GE19MSL   +99999+99999GF106991041999006001999999MA1999999098831MD1999999+0051REMSYN004BUFR
0142827650999992015082700004-07333-047467FM-12+019499999V0203601N0000199999999020000199+02921+02341101361ADDAA106005031AY161061AY201061GA1011+006001081GE19MSL   +99999+99999GF101991011999006001999999MA1999999098991MD1999999+0091MW1001REMSYN004BUFR
0149827650999992015082712004-07333-047467FM-12+019499999V020360199999999999999020000199+02871+02031101661ADDAA124005031AZ101061AZ201061GA1021+006001081GE19MSL   +99999+99999GF102991021999006001999999KA1120N+02411MA1999999099281MD1999999-0031REMSYN004BUFR
0136827650999992015082718004-07333-047467FM-12+019499999V020320199999999999999020000199+03521+02071101151ADDAA101999999AZ101061AZ201061GA1041+006001081GE19MSL   +99999+99999GF104991041999006001999999MA1999999098811MD1999999-0021REMSYN004BUFR
0098827650999992015082800004-07333-047467FM-12+019499999V0203601N0000122000199020000199+03071+02371101301ADDAA101999999AZ101061AZ201061GF100991999999999999999999MA1999999098941MD1999999-0051REMSYN004BUFR
0165827650999992015082812004-07333-047467FM-12+019499999V020270199999999999999020000199+02951+02231101641ADDAA101999999AZ101061AZ201061GA1041+006001081GA2999+999999031GE19MSL   +99999+99999GF106991041999006001999999KA1120N+02411MA1999999099281MD1999999+0001REMSYN004BUFR
0168827650999992015082818004-07333-047467FM-12+019499999V020320199999900600199020000199+02821+02151101401ADDAA101999999AZ101061AZ201061GA1051+006001081GA2999+999999051GA3999+999999101GE19MSL   +99999+99999GF108991051999006001999999MA1999999099021MD1999999+0211REMSYN004BUFR
0152827650999992015082900004-07333-047467FM-12+019499999V0203601N0000199999999020000199+02571+02371101521ADDAA101999999AZ101061AZ201061GA1021+006001081GA2999+999999031GE19MSL   +99999+99999GF105991021999006001999999MA1999999099131MD1999999+0191REMSYN004BUFR
0165827650999992015082912004-07333-047467FM-12+019499999V020320199999999999999020000199+02751+02231101801ADDAA101999999AZ101061AZ201061GA1041+006001071GA2999+999999031GE19MSL   +99999+99999GF107991041999006001999999KA1120N+02211MA1999999099401MD1999999+0121REMSYN004BUFR
0136827650999992015082918004-07333-047467FM-12+019499999V020090199999900600199020000199+03451+01941101261ADDAA101999999AZ101061AZ201061GA1061+006001081GE19MSL   +99999+99999GF106991061999006001999999MA1999999098891MD1999999-0131REMSYN004BUFR
0098827650999992015083000004-07333-047467FM-12+019499999V0203601N0000122000199020000199+02971+02301101461ADDAA101999999AZ101061AZ201061GF100991999999999999999999MA1999999099091MD1999999-0041REMSYN004BUFR
0149827650999992015083012004-07333-047467FM-12+019499999V020050199999999999999020000199+02591+01761101791ADDAA101999999AZ101061AZ201061GA1011+006001081GE19MSL   +99999+99999GF101991011999006001999999KA1120N+02291MA1999999099401MD1999999+0001REMSYN004BUFR
0136827650999992015083018004-07333-047467FM-12+019499999V020090199999999999999020000199+03571+01601101351ADDAA101999999AZ101061AZ201061GA1031+006001081GE19MSL   +99999+99999GF103991031999006001999999MA1999999098991MD1999999+0101REMSYN004BUFR
0152827650999992015083100004-07333-047467FM-12+019499999V0203601N0000199999999020000199+02941+01851101561ADDAA101999999AZ101061AZ201061GA1011+006001081GA2999+999999041GE19MSL   +99999+99999GF102991011999006001999999MA1999999099171MD1999999+0081REMSYN004BUFR
0171827650999992015083112004-07333-047467FM-12+019499999V020090199999999999999010000199+03021+01731101731ADDAA101999999AY111061AY211061GA1011+017501041GA2999+999999001GE19MSL   +99999+99999GF103991011999017501999999KA1120N+02241MA1999999099361MD1999999-0041MW1051REMSYN004BUFR
0168827650999992015083118004-07333-047467FM-12+019499999V020050199999999999999020000199+03641+01441101281ADDAA101999999AZ101061AZ201061GA1021+006001081GA2999+999999031GA3999+999999001GE19MSL   +99999+99999GF104991021999006001999999MA1999999098931MD1999999-0061REMSYN004BUFR
0136827650999992015090100004-07333-047467FM-12+019499999V0203601N0000199999999020000199+02941+01791101521ADDAA101999999AZ101061AZ201061GA1021+006001081GE19MSL   +99999+99999GF102991021999006001999999MA1999999099161MD1999999-0011REMSYN004BUFR
0165827650999992015090112004-07333-047467FM-12+019499999V020360199999999999999020000199+02941+01441101821ADDAA101999999AZ101061AZ201061GA1031+006001081GA2999+999999001GE19MSL   +99999+99999GF105991031999006001999999KA1120N+02271MA1999999099451MD1999999+0091REMSYN004BUFR
0168827650999992015090118004-07333-047467FM-12+019499999V020140199999999999999020000199+03591+01351101321ADDAA101999999AZ101061AZ201061GA1041+006001081GA2999+999999041GA3999+999999001GE19MSL   +99999+99999GF106991041999006001999999MA1999999098971MD1999999+0041REMSYN004BUFR
0098827650999992015090200004-07333-047467FM-12+019499999V0203601N0000122000199020000199+02921+01771101471ADDAA101999999AZ101061AZ201061GF100991999999999999999999MA1999999099101MD1999999-0061REMSYN004BUFR
0117827650999992015090212004-07333-047467FM-12+019499999V020050199999922000199000500199+02671+01561101671ADDAA101999999AY101061AY201061GF100991999999999999999999KA1120N+02001MA1999999099281MD1999999-0171MW1041REMSYN004BUFR
0136827650999992015090218004-07333-047467FM-12+019499999V020270199999999999999020000199+03701+01431101141ADDAA101999999AZ101061AZ201061GA1031+006001081GE19MSL   +99999+99999GF103991031999006001999999MA1999999098801MD1999999-0171REMSYN004BUFR
0098827650999992015090300004-07333-047467FM-12+019499999V0203601N0000122000199020000199+02941+01791101291ADDAA101999999AZ101061AZ201061GF100991999999999999999999MA1999999098931MD1999999-0171REMSYN004BUFR
0111827650999992015090312004-07333-047467FM-12+019499999V020360199999922000199020000199+03091+02091101561ADDAA101999999AZ101061AZ201061GF100991999999999999999999KA1120N+02491MA1999999099201MD1999999+0001REMSYN004BUFR
0152827650999992015090318004-07333-047467FM-12+019499999V020140199999999999999020000199+03521+01871101281ADDAA101999999AZ101061AZ201061GA1021+006001081GA2999+999999021GE19MSL   +99999+99999GF103991021999006001999999MA1999999098921MD1999999+0121REMSYN004BUFR
0098827650999992015090400004-07333-047467FM-12+019499999V0203601N0000122000199020000199+03051+02271101331ADDAA101999999AZ101061AZ201061GF100991999999999999999999MA1999999098981MD1999999+0081REMSYN004BUFR
0149827650999992015090412004-07333-047467FM-12+019499999V020360199999999999999020000199+03021+02071101631ADDAA101999999AZ101061AZ201061GA1021+017501021GE19MSL   +99999+99999GF102991021999017501999999KA1120N+02331MA1999999099271MD1999999+0071REMSYN004BUFR
0136827650999992015090418004-07333-047467FM-12+019499999V020360199999999999999020000199+03651+01821101211ADDAA101999999AZ101061AZ201061GA1041+006001081GE19MSL   +99999+99999GF104991041999006001999999MA1999999098871MD1999999-0051REMSYN004BUFR
0098827650999992015090500004-07333-047467FM-12+019499999V0203601N0000122000199020000199+03071+02241101371ADDAA101999999AZ101061AZ201061GF100991999999999999999999MA1999999099021MD1999999+0041REMSYN004BUFR
0149827650999992015090512004-07333-047467FM-12+019499999V020360199999999999999020000199+03071+02191101641ADDAA101999999AZ101061AZ201061GA1011+012501021GE19MSL   +99999+99999GF101991011999012501999999KA1120N+02471MA1999999099281MD1999999+0011REMSYN004BUFR
0136827650999992015090518004-07333-047467FM-12+019499999V020320199999999999999020000199+03621+02041101131ADDAA101999999AZ101061AZ201061GA1021+006001081GE19MSL   +99999+99999GF104991021999006001999999MA1999999098801MD1999999-0071REMSYN004BUFR
0098827650999992015090600004-07333-047467FM-12+019499999V0203601N0000122000199020000199+03071+02241101321ADDAA101999999AZ101061AZ201061GF100991999999999999999999MA1999999098971MD1999999-0051REMSYN004BUFR
0165827650999992015090612004-07333-047467FM-12+019499999V020360199999900600199020000199+02841+02191101721ADDAA101999999AZ101061AZ201061GA1051+006001081GA2999+999999051GE19MSL   +99999+99999GF107991051999006001999999KA1120N+02571MA1999999099341MD1999999+0061REMSYN004BUFR
0152827650999992015090618004-07333-047467FM-12+019499999V020270199999999999999020000199+03171+02221101371ADDAA101999999AZ101061AZ201061GA1031+006001081GA2999+999999021GE19MSL   +99999+99999GF107991031999006001999999MA1999999098971MD1999999+0101REMSYN004BUFR
0136827650999992015090700004-07333-047467FM-12+019499999V020270199999999999999020000199+02771+02321101401ADDAA101999999AZ101061AZ201061GA1031+012501051GE19MSL   +99999+99999GF103991031999012501999999MA1999999099021MD1999999+0051REMSYN004BUFR
0165827650999992015090712004-07333-047467FM-12+019499999V020360199999999999999020000199+02971+02151101571ADDAA101999999AZ101061AZ201061GA1021+006001081GA2999+999999001GE19MSL   +99999+99999GF105991021999006001999999KA1120N+02291MA1999999099201MD1999999-0141REMSYN004BUFR
0152827650999992015090718004-07333-047467FM-12+019499999V020050199999999999999020000199+03471+02001101121ADDAA101999999AZ101061AZ201061GA1021+006001081GA2999+999999021GE19MSL   +99999+99999GF105991021999006001999999MA1999999098771MD1999999-0201REMSYN004BUFR
0098827650999992015090800004-07333-047467FM-12+019499999V0203601N0000122000199020000199+02951+02231101031ADDAA101999999AZ101061AZ201061GF100991999999999999999999MA1999999098651MD1999999-0341REMSYN004BUFR
0165827650999992015090812004-07333-047467FM-12+019499999V020050199999999999999020000199+03021+02071101401ADDAA101999999AZ101061AZ201061GA1021+006001081GA2999+999999021GE19MSL   +99999+99999GF104991021999006001999999KA1120N+02471MA1999999099041MD1999999-0161REMSYN004BUFR
0136827650999992015090818004-07333-047467FM-12+019499999V020270199999999999999020000199+03441+02111101951ADDAA101999999AZ101061AZ201061GA1041+006001081GE19MSL   +99999+99999GF104991041999006001999999MA1999999098611MD1999999-0161REMSYN004BUFR
0098827650999992015090900004-07333-047467FM-12+019499999V020320199999922000199020000199+02891+02151101031ADDAA101999999AZ101061AZ201061GF100991999999999999999999MA1999999098651MD1999999+0001REMSYN004BUFR
0111827650999992015090912004-07333-047467FM-12+019499999V020360199999922000199020000199+02921+02091101491ADDAA101999999AZ101061AZ201061GF100991999999999999999999KA1120N+02251MA1999999099121MD1999999+0081REMSYN004BUFR
0136827650999992015090918004-07333-047467FM-12+019499999V020090199999900600199020000199+03601+01721101031ADDAA101999999AZ101061AZ201061GA1051+006001081GE19MSL   +99999+99999GF105991051999006001999999MA1999999098691MD1999999+0081REMSYN004BUFR
0098827650999992015091000004-07333-047467FM-12+019499999V0203601N0000122000199020000199+03051+01961101231ADDAA101999999AZ101061AZ201061GF100991999999999999999999MA1999999098871MD1999999+0191REMSYN004BUFR
0111827650999992015091012004-07333-047467FM-12+019499999V020050199999922000199020000199+02921+01921101481ADDAA101999999AZ101061AZ201061GF100991999999999999999999KA1120N+02261MA1999999099121MD1999999+0001REMSYN004BUFR
0136827650999992015091018004-07333-047467FM-12+019499999V0203601N0000100600199020000199+03591+01811100981ADDAA101999999AZ101061AZ201061GA1061+006001081GE19MSL   +99999+99999GF106991061999006001999999MA1999999098651MD1999999-0041REMSYN004BUFR
0098827650999992015091100004-07333-047467FM-12+019499999V0203601N0000122000199020000199+03141+02131101141ADDAA101999999AZ101061AZ201061GF100991999999999999999999MA1999999098791MD1999999-0081REMSYN004BUFR
0111827650999992015091112004-07333-047467FM-12+019499999V020320199999922000199020000199+03021+01991101601ADDAA101999999AZ101061AZ201061GF100991999999999999999999KA1120N+02311MA1999999099251MD1999999+0131REMSYN004BUFR
0136827650999992015091118004-07333-047467FM-12+019499999V020230199999999999999020000199+03621+01691101041ADDAA101999999AZ101061AZ201061GA1031+006001081GE19MSL   +99999+99999GF103991031999006001999999MA1999999098701MD1999999+0051REMSYN004BUFR
0098827650999992015091200004-07333-047467FM-12+019499999V0203601N0000122000199020000199+03001+02051101371ADDAA101999999AZ101061AZ201061GF100991999999999999999999MA1999999099011MD1999999+0221REMSYN004BUFR
0155827650999992015091212004-07333-047467FM-12+019499999V020360199999901250199020000199+02901+02141101631ADDAA101999999AZ101061AZ201061GA1051+012501031GE19MSL   +99999+99999GF105991051999012501999999MA1999999099261MD1999999+0011REMSYN004BUFREQDQ0131.1  2EATMN 
0136827650999992015091218004-07333-047467FM-12+019499999V0203601N0000199999999020000199+03691+01941101031ADDAA101999999AZ101061AZ201061GA1031+006001081GE19MSL   +99999+99999GF103991031999006001999999MA1999999098701MD1999999+0001REMSYN004BUFR
0098827650999992015091300004-07333-047467FM-12+019499999V0203601N0000122000199020000199+03151+02921101281ADDAA101999999AZ101061AZ201061GF100991999999999999999999MA1999999098931MD1999999-0081REMSYN004BUFR
0149827650999992015091312004-07333-047467FM-12+019499999V020270199999901250199020000199+02951+02281101561ADDAA101999999AZ101061AZ201061GA1061+012501051GE19MSL   +99999+99999GF106991061999012501999999KA1120N+02631MA1999999099211MD1999999-0051REMSYN004BUFR
0152827650999992015091318004-07333-047467FM-12+019499999V020270199999999999999020000199+03471+02281101221ADDAA101999999AZ101061AZ201061GA1031+006001081GA2999+999999051GE19MSL   +99999+99999GF106991031999006001999999MA1999999098881MD1999999+0181REMSYN004BUFR
0098827650999992015091400004-07333-047467FM-12+019499999V0203601N0000122000199020000199+02991+02171101391ADDAA101999999AZ101061AZ201061GF100991999999999999999999MA1999999099031MD1999999+0101REMSYN004BUFR
0149827650999992015091412004-07333-047467FM-12+019499999V020090199999901250199020000199+02921+02191101781ADDAA101999999AZ101061AZ201061GA1071+012501031GE19MSL   +99999+99999GF107991071999012501999999KA1120N+02591MA1999999099411MD1999999+0201REMSYN004BUFR
0152827650999992015091418004-07333-047467FM-12+019499999V020320199999999999999020000199+03491+02231101251ADDAA101999999AZ101061AZ201061GA1031+006001081GA2999+999999021GE19MSL   +99999+99999GF107991031999006001999999MA1999999098931MD1999999+0031REMSYN004BUFR
0098827650999992015091500004-07333-047467FM-12+019499999V020180199999922000199020000199+03091+02361101411ADDAA101999999AZ101061AZ201061GF100991999999999999999999MA1999999099051MD1999999+0021REMSYN004BUFR
0149827650999992015091512004-07333-047467FM-12+019499999V020020199999999999999020000199+03091+02091101711ADDAA101999999AZ101061AZ201061GA1031+017501001GE19MSL   +99999+99999GF103991031999017501999999KA1120N+02451MA1999999099351MD1999999-0061REMSYN004BUFR
0152827650999992015091518004-07333-047467FM-12+019499999V020090199999999999999020000199+03771+01371101111ADDAA101999999AZ101061AZ201061GA1011+006001081GA2999+999999001GE19MSL   +99999+99999GF103991011999006001999999MA1999999098791MD1999999-0121REMSYN004BUFR
0098827650999992015091600004-07333-047467FM-12+019499999V0203601N0000122000199020000199+02971+01731101311ADDAA101999999AZ101061AZ201061GF100991999999999999999999MA1999999098961MD1999999-0091REMSYN004BUFR
0111827650999992015091612004-07333-047467FM-12+019499999V020090199999922000199020000199+03241+01501101631ADDAA101999999AZ101061AZ201061GF100991999999999999999999KA1120N+02411MA1999999099271MD1999999-0081REMSYN004BUFR
0136827650999992015091618004-07333-047467FM-12+019499999V020140199999999999999020000199+03751+01291101061ADDAA101999999AZ101061AZ201061GA1031+006001081GE19MSL   +99999+99999GF103991031999006001999999MA1999999098731MD1999999-0061REMSYN004BUFR
0098827650999992015091700004-07333-047467FM-12+019499999V020090199999922000199020000199+03021+01551101211ADDAA101999999AZ101061AZ201061GF100991999999999999999999MA1999999098871MD1999999-0091REMSYN004BUFR
0111827650999992015091712004-07333-047467FM-12+019499999V020050199999922000199020000199+03151+01551101531ADDAA101999999AZ101061AZ201061GF100991999999999999999999KA1120N+02451MA1999999099181MD1999999-0091REMSYN004BUFR
0136827650999992015091718004-07333-047467FM-12+019499999V020140199999999999999020000199+03391+01641101071ADDAA101999999AZ101061AZ201061GA1031+006001081GE19MSL   +99999+99999GF103991031999006001999999MA1999999098731MD1999999+0001REMSYN004BUFR
0098827650999992015091800004-07333-047467FM-12+019499999V0203601N0000122000199020000199+03051+01831101211ADDAA101999999AZ101061AZ201061GF100991999999999999999999MA1999999098861MD1999999-0011REMSYN004BUFR
0149827650999992015091812004-07333-047467FM-12+019499999V020050199999999999999020000199+03151+01431101461ADDAA101999999AZ101061AZ201061GA1011+017501031GE19MSL   +99999+99999GF101991011999017501999999KA1120N+02431MA1999999099111MD1999999-0071REMSYN004BUFR
0142827650999992015091818004-07333-047467FM-12+019499999V020090199999999999999010000199+03791+01111100971ADDAA101999999AY111061AY211061GA1011+006001081GE19MSL   +99999+99999GF101991011999006001999999MA1999999098651MD1999999-0081MW1041REMSYN004BUFR
0098827650999992015091900004-07333-047467FM-12+019499999V0203601N0000122000199020000199+02951+01381101271ADDAA101999999AZ101061AZ201061GF100991999999999999999999MA1999999098921MD1999999+0061REMSYN004BUFR
0117827650999992015091912004-07333-047467FM-12+019499999V020050199999922000199002000199+03151+01511101561ADDAA101999999AY101061AY201061GF100991999999999999999999KA1120N+02331MA1999999099201MD1999999+0091MW1041REMSYN004BUFR
0098827650999992015092000004-07333-047467FM-12+019499999V0203601N0000122000199020000199+03091+01601101241ADDAA101999999AZ101061AZ201061GF100991999999999999999999MA1999999098891MD1999999-0031REMSYN004BUFR
0117827650999992015092012004-07333-047467FM-12+019499999V020050199999922000199002000199+03051+01801101601ADDAA101999999AY101061AY201061GF100991999999999999999999KA1120N+02421MA1999999099251MD1999999+0051MW1041REMSYN004BUFR
0136827650999992015092100004-07333-047467FM-12+019499999V020180199999999999999020000199+03191+01781101321ADDAA101999999AZ101061AZ201061GA1041+006001081GE19MSL   +99999+99999GF104991041999006001999999MA1999999098981MD1999999+0091REMSYN004BUFR
0149827650999992015092112004-07333-047467FM-12+019499999V020090199999999999999020000199+03051+02081101541ADDAA101999999AZ101061AZ201061GA1031+006001081GE19MSL   +99999+99999GF103991031999006001999999KA1120N+02551MA1999999099191MD1999999-0061REMSYN004BUFR
0136827650999992015092118004-07333-047467FM-12+019499999V020270199999999999999020000199+03571+02161101011ADDAA101999999AZ101061AZ201061GA1041+006001081GE19MSL   +99999+99999GF104991041999006001999999MA1999999098651MD1999999-0161REMSYN004BUFR
0174827650999992015092200004-07333-047467FM-12+019499999V020360199999900600199010000199+02551+02231101331ADDAA106009031AY161061AY221061GA1081+006001071GA2999+999999101GA3999+999999101GE19MSL   +99999+99999GF108991081999006001999999MA1999999098951MD1999999-0031MW1021REMSYN004BUFR
0165827650999992015092212004-07333-047467FM-12+019499999V0203601N0000199999999020000199+02821+02331101531ADDAA124009031AZ101061AZ201061GA1031+006001081GA2999+999999021GE19MSL   +99999+99999GF105991031999006001999999KA1120N+02331MA1999999099141MD1999999-0051REMSYN004BUFR
0152827650999992015092218004-07333-047467FM-12+019499999V020270199999999999999020000199+03321+02231101041ADDAA101999999AZ101061AZ201061GA1031+006001081GA2999+999999051GE19MSL   +99999+99999GF105991031999006001999999MA1999999098681MD1999999+0031REMSYN004BUFR
0098827650999992015092300004-07333-047467FM-12+019499999V0203601N0000122000199020000199+02951+02491101141ADDAA101999999AZ101061AZ201061GF100991999999999999999999MA1999999098781MD1999999-0171REMSYN004BUFR
0149827650999992015092312004-07330-047470FM-12+019399999V0203601N0000199999999020000199+02941+02191101511ADDAA101999999AZ101061AZ201061GA1031+006001081GE19MSL   +99999+99999GF103991031999006001999999KA1120N+02331MA1999999099141MD1999999+0001REMSYN004BUFR
0136827650999992015092318004-07330-047470FM-12+019399999V020090199999999999999020000199+03671+01841100791ADDAA101999999AZ101061AZ201061GA1041+006001081GE19MSL   +99999+99999GF104991041999006001999999MA1999999098471MD1999999-0211REMSYN004BUFR
0098827650999992015092400004-07330-047470FM-12+019399999V0203601N0000122000199020000199+03021+02041101031ADDAA101999999AZ101061AZ201061GF100991999999999999999999MA1999999098681MD1999999-0101REMSYN004BUFR
0111827650999992015092412004-07330-047470FM-12+019399999V020360199999922000199020000199+03141+02001101481ADDAA101999999AZ101061AZ201061GF100991999999999999999999KA1120N+02471MA1999999099131MD1999999-0011REMSYN004BUFR
0136827650999992015092418004-07330-047470FM-12+019399999V020270199999900600199020000199+03491+02091101001ADDAA101999999AZ101061AZ201061GA1051+006001081GE19MSL   +99999+99999GF105991051999006001999999MA1999999098661MD1999999+0191REMSYN004BUFR
0136827650999992015092500004-07330-047470FM-12+019399999V0203601N0000199999999020000199+03041+02061101181ADDAA101999999AZ101061AZ201061GA1031+017501031GE19MSL   +99999+99999GF103991031999017501999999MA1999999098841MD1999999+0161REMSYN004BUFR
0111827650999992015092512004-07330-047470FM-12+019399999V020360199999922000199020000199+02991+02051101701ADDAA101999999AZ101061AZ201061GF100991999999999999999999KA1120N+02451MA1999999099331MD1999999+0201REMSYN004BUFR
0121827650999992015092518004-07330-047470FM-12+019399999V020140199999999999999020000199+03621+01691101091ADDAA101999999AZ101061AZ201061GA1031+006001081GE19MSL   +99999+99999GF103991031999006001999999MD1999999+0101REMSYN004BUFR
0098827650999992015092600004-07330-047470FM-12+019399999V0203601N0000122000199020000199+03141+02351101241ADDAA101999999AZ101061AZ201061GF100991999999999999999999MA1999999098891MD1999999+0051REMSYN004BUFR
0111827650999992015092612004-07330-047470FM-12+019399999V020360199999922000199020000199+03021+02041101481ADDAA101999999AZ101061AZ201061GF100991999999999999999999KA1120N+02551MA1999999099131MD1999999-0201REMSYN004BUFR
0136827650999992015092618004-07330-047470FM-12+019399999V020270199999999999999020000199+03591+02031100941ADDAA101999999AZ101061AZ201061GA1031+006001081GE19MSL   +99999+99999GF103991031999006001999999MA1999999098611MD1999999-0151REMSYN004BUFR
0098827650999992015092700004-07330-047470FM-12+019399999V0203601N0000122000199020000199+03141+02241101191ADDAA101999999AZ101061AZ201061GF100991999999999999999999MA1999999098851MD1999999-0041REMSYN004BUFR
0149827650999992015092712004-07330-047470FM-12+019399999V020360199999900600199020000199+02951+02131101481ADDAA101999999AZ101061AZ201061GA1071+006001061GE19MSL   +99999+99999GF107991071999006001999999KA1120N+02611MA1999999099121MD1999999-0011REMSYN004BUFR
0152827650999992015092718004-07330-047470FM-12+019399999V020270199999999999999020000199+03451+02161101071ADDAA101999999AZ101061AZ201061GA1031+006001081GA2999+999999051GE19MSL   +99999+99999GF106991031999006001999999MA1999999098741MD1999999+0131REMSYN004BUFR
0149827650999992015092812004-07330-047470FM-12+019399999V020360199999900600199020000199+02791+02061101531ADDAA101999999AZ101061AZ201061GA1071+006001031GE19MSL   +99999+99999GF107991071999006001999999KA1120N+02411MA1999999099171MD1999999+0051REMSYN004BUFR
0152827650999992015092818004-07330-047470FM-12+019399999V020270199999999999999020000199+03451+02131101921ADDAA101999999AZ101061AZ201061GA1031+006001081GA2999+999999051GE19MSL   +99999+99999GF106991031999006001999999MA1999999098571MD1999999-0121REMSYN004BUFR
0136827650999992015092900004-07330-047470FM-12+019399999V0203601N0000199999999020000199+02951+02151101041ADDAA101999999AZ101061AZ201061GA1031+012501081GE19MSL   +99999+99999GF103991031999012501999999MA1999999098681MD1999999-0171REMSYN004BUFR
0149827650999992015092912004-07330-047470FM-12+019399999V020360199999999999999020000199+02951+02071101401ADDAA101999999AZ101061AZ201061GA1031+006001081GE19MSL   +99999+99999GF103991031999006001999999KA1120N+02571MA1999999099041MD1999999-0131REMSYN004BUFR
0136827650999992015092918004-07330-047470FM-12+019399999V020270199999999999999020000199+03551+01991100821ADDAA101999999AZ101061AZ201061GA1041+006001081GE19MSL   +99999+99999GF104991041999006001999999MA1999999098551MD1999999-0021REMSYN004BUFR
0136827650999992015093000004-07330-047470FM-12+019399999V0203601N0000199999999020000199+03121+02381101051ADDAA101999999AZ101061AZ201061GA1021+006001081GE19MSL   +99999+99999GF102991021999006001999999MA1999999098701MD1999999+0021REMSYN004BUFR
0149827650999992015093012004-07330-047470FM-12+019399999V020090199999901250199020000199+02791+02181101311ADDAA101999999AZ101061AZ201061GA1071+012501031GE19MSL   +99999+99999GF107991071999012501999999KA1120N+02471MA1999999098951MD1999999-0091REMSYN004BUFR
0152827650999992015093018004-07330-047470FM-12+019399999V020270199999999999999020000199+03571+02161100861ADDAA101999999AZ101061AZ201061GA1031+006001081GA2999+999999031GE19MSL   +99999+99999GF104991031999006001999999MA1999999098521MD1999999-0031REMSYN004BUFR
0136827650999992015100100004-07330-047470FM-12+019399999V0203601N0000199999999020000199+03121+02111100921ADDAA101999999AZ101061AZ201061GA1031+012501031GE19MSL   +99999+99999GF103991031999012501999999MA1999999098571MD1999999-0131REMSYN004BUFR
0149827650999992015100112004-07330-047470FM-12+019399999V020270199999999999999020000199+03051+02191101381ADDAA101999999AZ101061AZ201061GA1021+006001081GE19MSL   +99999+99999GF102991021999006001999999KA1120N+02551MA1999999099031MD1999999+0081REMSYN004BUFR
0136827650999992015100118004-07330-047470FM-12+019399999V0203601N0000199999999020000199+03691+01601101851ADDAA101999999AZ101061AZ201061GA1041+006001081GE19MSL   +99999+99999GF104991041999006001999999MA1999999098531MD1999999-0011REMSYN004BUFR
0098827650999992015100200004-07330-047470FM-12+019399999V020320199999922000199020000199+03091+01941101071ADDAA101999999AZ101061AZ201061GF100991999999999999999999MA1999999098731MD1999999+0161REMSYN004BUFR
0111827650999992015100212004-07330-047470FM-12+019399999V020050199999922000199020000199+03021+01991101401ADDAA101999999AZ101061AZ201061GF100991999999999999999999KA1120N+02491MA1999999099051MD1999999+0021REMSYN004BUFR
0136827650999992015100218004-07330-047470FM-12+019399999V020090199999900600199020000199+03841+01361100871ADDAA101999999AZ101061AZ201061GA1061+006001081GE19MSL   +99999+99999GF106991061999006001999999MA1999999098551MD1999999+0021REMSYN004BUFR
0136827650999992015100300004-07330-047470FM-12+019399999V020360199999999999999020000199+03151+02021101001ADDAA101999999AZ101061AZ201061GA1031+012501081GE19MSL   +99999+99999GF103991031999012501999999MA1999999098661MD1999999-0071REMSYN004BUFR
0149827650999992015100312004-07330-047470FM-12+019399999V020050199999901250199020000199+03051+01831101451ADDAA101999999AZ101061AZ201061GA1061+012501081GE19MSL   +99999+99999GF106991061999012501999999KA1120N+02411MA1999999099101MD1999999+0051REMSYN004BUFR
0136827650999992015100318004-07330-047470FM-12+019399999V0203601N0000100600199020000199+03671+01881100981ADDAA101999999AZ101061AZ201061GA1051+006001081GE19MSL   +99999+99999GF105991051999006001999999MA1999999098651MD1999999+0101REMSYN004BUFR
0098827650999992015100400004-07330-047470FM-12+019399999V0203601N0000122000199020000199+03141+02181101111ADDAA101999999AZ101061AZ201061GF100991999999999999999999MA1999999098771MD1999999+0111REMSYN004BUFR
0111827650999992015100412004-07330-047470FM-12+019399999V020320199999922000199020000199+03021+02131101511ADDAA101999999AZ101061AZ201061GF100991999999999999999999KA1120N+02491MA1999999099161MD1999999+0061REMSYN004BUFR
0136827650999992015100418004-07330-047470FM-12+019399999V020320199999900600199020000199+03771+02101100981ADDAA101999999AZ101061AZ201061GA1051+006001081GE19MSL   +99999+99999GF105991051999006001999999MA1999999098661MD1999999+0011REMSYN004BUFR
0098827650999992015100500004-07330-047470FM-12+019399999V0203601N0000122000199020000199+03251+02181101191ADDAA101999999AZ101061AZ201061GF100991999999999999999999MA1999999098851MD1999999+0081REMSYN004BUFR
0149827650999992015100512004-07330-047470FM-12+019399999V020320199999999999999020000199+03071+02211101501ADDAA101999999AZ101061AZ201061GA1031+012501081GE19MSL   +99999+99999GF103991031999012501999999KA1120N+02771MA1999999099161MD1999999+0001REMSYN004BUFR
0136827650999992015100518004-07330-047470FM-12+019399999V020270199999999999999020000199+03691+02191100911ADDAA101999999AZ101061AZ201061GA1031+006001081GE19MSL   +99999+99999GF103991031999006001999999MA1999999098601MD1999999+0061REMSYN004BUFR
0098827650999992015100600004-07330-047470FM-12+019399999V0203601N0000122000199020000199+03271+02591101101ADDAA101999999AZ101061AZ201061GF100991999999999999999999MA1999999098771MD1999999-0081REMSYN004BUFR
0187827650999992015100612004-07330-047470FM-12+019399999V020360199999900600199020000199+02651+01951101611ADDAA124004031AY161061AY201061GA1061+006001081GA2999+999999051GA3999+999999101GE19MSL   +99999+99999GF108991061999006001999999KA1120N+02371MA1999999099241MD1999999+0081MW1001REMSYN004BUFR
0168827650999992015100618004-07330-047470FM-12+019399999V020180199999900600199020000199+03191+02061101441ADDAA101999999AZ101061AZ201061GA1061+006001081GA2999+999999051GA3999+999999101GE19MSL   +99999+99999GF108991061999006001999999MA1999999099061MD1999999+0461REMSYN004BUFR
0098827650999992015100700004-07330-047470FM-12+019399999V0203601N0000122000199020000199+02771+02161101441ADDAA101999999AZ101061AZ201061GF100991999999999999999999MA1999999099061MD1999999+0291REMSYN004BUFR
0149827650999992015100712004-07330-047470FM-12+019399999V0203601N0000199999999020000199+02851+02211101661ADDAA101999999AZ101061AZ201061GA1021+012501031GE19MSL   +99999+99999GF102991021999012501999999KA1120N+02311MA1999999099271MD1999999+0031REMSYN004BUFR
0152827650999992015100718004-07330-047470FM-12+019399999V020320199999999999999020000199+03491+02201101061ADDAA101999999AZ101061AZ201061GA1031+006001081GA2999+999999031GE19MSL   +99999+99999GF106991031999006001999999MA1999999098711MD1999999-0351REMSYN004BUFR
0098827650999992015100800004-07330-047470FM-12+019399999V0203601N0000122000199020000199+03071+02371101271ADDAA101999999AZ101061AZ201061GF100991999999999999999999MA1999999098911MD1999999-0151REMSYN004BUFR
0149827650999992015100812004-07330-047470FM-12+019399999V020090199999901250199020000199+02871+02231101471ADDAA101999999AZ101061AZ201061GA1071+012501071GE19MSL   +99999+99999GF107991071999012501999999KA1120N+02591MA1999999099121MD1999999-0151REMSYN004BUFR
0136827650999992015100818004-07330-047470FM-12+019399999V020360199999900600199020000199+03391+02111100941ADDAA101999999AZ101061AZ201061GA1051+006001061GE19MSL   +99999+99999GF105991051999006001999999MA1999999098601MD1999999-0111REMSYN004BUFR
0136827650999992015100900004-07330-047470FM-12+019399999V0203601N0000199999999020000199+02941+02331101171ADDAA101999999AZ101061AZ201061GA1031+012501061GE19MSL   +99999+99999GF103991031999012501999999MA1999999098811MD1999999-0101REMSYN004BUFR
0165827650999992015100912004-07330-047470FM-12+019399999V0203601N0000199999999020000199+02951+02261101581ADDAA101999999AZ101061AZ201061GA1031+006001081GA2999+999999031GE19MSL   +99999+99999GF106991031999006001999999KA1120N+02371MA1999999099211MD1999999+0091REMSYN004BUFR
0152827650999992015100918004-07330-047470FM-12+019399999V020090199999999999999020000199+03591+01861101091ADDAA101999999AZ101061AZ201061GA1031+006001081GA2999+999999031GE19MSL   +99999+99999GF105991031999006001999999MA1999999098751MD1999999+0151REMSYN004BUFR
0098827650999992015101000004-07330-047470FM-12+019399999V0203601N0000122000199020000199+03051+02051101191ADDAA101999999AZ101061AZ201061GF100991999999999999999999MA1999999098841MD1999999+0031REMSYN004BUFR
0149827650999992015101012004-07330-047470FM-12+019399999V0203601N0000199999999020000199+03121+02111101541ADDAA101999999AZ101061AZ201061GA1021+012501021GE19MSL   +99999+99999GF102991021999012501999999KA1120N+02391MA1999999099191MD1999999-0021REMSYN004BUFR
0152827650999992015101018004-07330-047470FM-12+019399999V020320199999999999999020000199+03671+01971100981ADDAA101999999AZ101061AZ201061GA1031+006001081GA2999+999999051GE19MSL   +99999+99999GF106991031999006001999999MA1999999098651MD1999999-0101REMSYN004BUFR
0098827650999992015101100004-07330-047470FM-12+019399999V020050199999922000199020000199+03051+01871101141ADDAA101999999AZ101061AZ201061GF100991999999999999999999MA1999999098801MD1999999-0041REMSYN004BUFR
0111827650999992015101112004-07330-047470FM-12+019399999V020360199999922000199020000199+03151+01961101541ADDAA101999999AZ101061AZ201061GF100991999999999999999999KA1120N+02431MA1999999099191MD1999999+0001REMSYN004BUFR
0136827650999992015101118004-07330-047470FM-12+019399999V020360199999900600199020000199+03751+01761100831ADDAA101999999AZ101061AZ201061GA1051+006001081GE19MSL   +99999+99999GF105991051999006001999999MA1999999098511MD1999999-0141REMSYN004BUFR
0098827650999992015101200004-07330-047470FM-12+019399999V0203601N0000122000199020000199+03151+01821101111ADDAA101999999AZ101061AZ201061GF100991999999999999999999MA1999999098771MD1999999-0031REMSYN004BUFR
0111827650999992015101212004-07330-047470FM-12+019399999V020090199999922000199004000199+03171+01981101561ADDAA101999999AZ101061AZ201061GF100991999999999999999999KA1120N+02391MA1999999099211MD1999999+0021REMSYN004BUFR
0152827650999992015101218004-07330-047470FM-12+019399999V020090199999999999999010000199+03641+01851100981ADDAA101999999AZ101061AZ201061GA1041+006001081GA2999+999999031GE19MSL   +99999+99999GF105991041999006001999999MA1999999098651MD1999999+0141REMSYN004BUFR
0136827650999992015101300004-07330-047470FM-12+019399999V0203601N0000199999999010000199+03141+02241101211ADDAA101999999AZ101061AZ201061GA1021+006001081GE19MSL   +99999+99999GF102991021999006001999999MA1999999098871MD1999999+0101REMSYN004BUFR
0111827650999992015101312004-07330-047470FM-12+019399999V020360199999922000199010000199+03051+02111101601ADDAA101999999AZ101061AZ201061GF100991999999999999999999KA1120N+02431MA1999999099251MD1999999+0041REMSYN004BUFR
0168827650999992015101318004-07330-047470FM-12+019399999V020090199999999999999020000199+03751+01541101061ADDAA101999999AZ101061AZ201061GA1031+006001081GA2999+999999031GA3999+999999021GE19MSL   +99999+99999GF105991031999006001999999MA1999999098731MD1999999+0081REMSYN004BUFR
0111827650999992015101412004-07330-047470FM-12+019399999V020360199999922000199004000199+03051+01831101571ADDAA101999999AZ101061AZ201061GF100991999999999999999999KA1120N+02441MA1999999099211MD1999999-0041REMSYN004BUFR
0152827650999992015101418004-07330-047470FM-12+019399999V020070199999999999999020000199+03821+01411100991ADDAA101999999AZ101061AZ201061GA1031+006001081GA2999+999999031GE19MSL   +99999+99999GF105991031999006001999999MA1999999098671MD1999999-0061REMSYN004BUFR
0136827650999992015101500004-07330-047470FM-12+019399999V0203601N0000199999999020000199+03171+01771101241ADDAA101999999AZ101061AZ201061GA1021+006001081GE19MSL   +99999+99999GF102991021999006001999999MA1999999098891MD1999999-0031REMSYN004BUFR
0149827650999992015101512004-07330-047470FM-12+019399999V020360199999900600199020000199+03171+02031101461ADDAA101999999AZ101061AZ201061GA1061+006001081GE19MSL   +99999+99999GF106991061999006001999999KA1120N+02511MA1999999099111MD1999999-0101REMSYN004BUFR
0136827650999992015101518004-07330-047470FM-12+019399999V020140199999999999999020000199+03771+01671100861ADDAA101999999AZ101061AZ201061GA1041+006001081GE19MSL   +99999+99999GF104991041999006001999999MA1999999098541MD1999999-0131REMSYN004BUFR
0098827650999992015101600004-07330-047470FM-12+019399999V0203601N0000122000199020000199+03171+02041101141ADDAA101999999AZ101061AZ201061GF100991999999999999999999MA1999999098801MD1999999-0091REMSYN004BUFR
0149827650999992015101612004-07330-047470FM-12+019399999V020050199999999999999020000199+03321+01741101531ADDAA101999999AZ101061AZ201061GA1021+006001081GE19MSL   +99999+99999GF102991021999006001999999KA1120N+02591MA1999999099191MD1999999+0081REMSYN004BUFR
0136827650999992015101618004-07330-047470FM-12+019399999V020090199999900600199020000199+03891+01271100901ADDAA101999999AZ101061AZ201061GA1051+006001081GE19MSL   +99999+99999GF105991051999006001999999MA1999999098591MD1999999+0051REMSYN004BUFR
0098827650999992015101700004-07330-047470FM-12+019399999V020090199999922000199020000199+03151+01711101071ADDAA101999999AZ101061AZ201061GF100991999999999999999999MA1999999098741MD1999999-0061REMSYN004BUFR
0111827650999992015101712004-07330-047470FM-12+019399999V020360199999922000199020000199+03241+01861101571ADDAA101999999AZ101061AZ201061GF100991999999999999999999KA1120N+02431MA1999999099231MD1999999+0041REMSYN004BUFR
0136827650999992015101718004-07330-047470FM-12+019399999V020050199999999999999020000199+03851+01571100961ADDAA101999999AZ101061AZ201061GA1021+012501081GE19MSL   +99999+99999GF102991021999012501999999MA1999999098651MD1999999+0061REMSYN004BUFR
0149827650999992015101812004-07330-047470FM-12+019399999V020290199999999999999004000199+03041+02261101691ADDAA101999999AZ101061AZ201061GA1041+006001081GE19MSL   +99999+99999GF104991041999006001999999KA1120N+02491MA1999999099331MD1999999+0101REMSYN004BUFR
0136827650999992015101818004-07330-047470FM-12+019399999V020230199999999999999004000199+03591+02031101201ADDAA101999999AZ101061AZ201061GA1021+006001081GE19MSL   +99999+99999GF102991021999006001999999MA1999999098861MD1999999+0211REMSYN004BUFR
0098827650999992015101900004-07330-047470FM-12+019399999V0203601N0000122000199004000199+03151+02341101391ADDAA101999999AZ101061AZ201061GF100991999999999999999999MA1999999099041MD1999999+0181REMSYN004BUFR
0181827650999992015101912004-07330-047470FM-12+019399999V0203601N0000199999999004000199+02751+02281101771ADDAA101999999AZ101061AZ201061GA1021+006001081GA2999+999999051GA3999+999999101GE19MSL   +99999+99999GF108991021999006001999999KA1120N+02561MA1999999099401MD1999999+0071REMSYN004BUFR
0136827650999992015101918004-07330-047470FM-12+019399999V020320199999999999999010000199+03491+02201101331ADDAA101999999AZ101061AZ201061GA1041+006001081GE19MSL   +99999+99999GF104991041999006001999999MA1999999098981MD1999999+0121REMSYN004BUFR
0098827650999992015102000004-07330-047470FM-12+019399999V0203601N0000122000199004000199+03021+02161101381ADDAA101999999AZ101061AZ201061GF100991999999999999999999MA1999999099011MD1999999-0031REMSYN004BUFR
0181827650999992015102012004-07330-047470FM-12+019399999V020360199999900600199020000199+02851+02111101791ADDAA101999999AZ101061AZ201061GA1061+006001081GA2999+999999051GA3999+999999101GE19MSL   +99999+99999GF108991061999006001999999KA1120N+02531MA1999999099421MD1999999+0021REMSYN004BUFR
0152827650999992015102018004-07330-047470FM-12+019399999V020340199999999999999020000199+03441+02111101291ADDAA101999999AZ101061AZ201061GA1031+006001081GA2999+999999031GE19MSL   +99999+99999GF106991031999006001999999MA1999999098941MD1999999-0041REMSYN004BUFR
0098827650999992015102100004-07330-047470FM-12+019399999V0203601N0000122000199020000199+03071+02371101441ADDAA101999999AZ101061AZ201061GF100991999999999999999999MA1999999099071MD1999999+0061REMSYN004BUFR
0111827650999992015102112004-07330-047470FM-12+019399999V020360199999922000199020000199+03171+02071101521ADDAA101999999AZ101061AZ201061GF100991999999999999999999KA1120N+02431MA1999999099171MD1999999-0251REMSYN004BUFR
0136827650999992015102118004-07330-047470FM-12+019399999V020320199999999999999010000199+03721+02131100991ADDAA101999999AZ101061AZ201061GA1031+006001081GE19MSL   +99999+99999GF103991031999006001999999MA1999999098661MD1999999-0281REMSYN004BUFR
0098827650999992015102200004-07330-047470FM-12+019399999V0203601N0000122000199020000199+03151+02201101041ADDAA101999999AZ101061AZ201061GF100991999999999999999999MA1999999098711MD1999999-0361REMSYN004BUFR
0111827650999992015102212004-07330-047470FM-12+019399999V020360199999922000199004000199+03171+02131101311ADDAA101999999AZ101061AZ201061GF100991999999999999999999KA1120N+02511MA1999999098971MD1999999-0201REMSYN004BUFR
0136827650999992015102218004-07330-047470FM-12+019399999V020270199999900600199020000199+03621+02271100911ADDAA101999999AZ101061AZ201061GA1061+006001081GE19MSL   +99999+99999GF106991061999006001999999MA1999999098591MD1999999-0071REMSYN004BUFR
0136827650999992015102300004-07330-047470FM-12+019399999V020360199999900600199010000199+03091+02201101171ADDAA101999999AZ101061AZ201061GA1071+006001061GE19MSL   +99999+99999GF107991071999006001999999MA1999999098831MD1999999+0121REMSYN004BUFR
0149827650999992015102312004-07330-047470FM-12+019399999V020320199999900600199020000199+02971+02231101431ADDAA101999999AZ101061AZ201061GA1071+006001061GE19MSL   +99999+99999GF107991071999006001999999KA1120N+02611MA1999999099071MD1999999+0101REMSYN004BUFR
0136827650999992015102318004-07330-047470FM-12+019399999V020270199999900600199020000199+03371+02261100961ADDAA101999999AZ101061AZ201061GA1071+006001061GE19MSL   +99999+99999GF107991071999006001999999MA1999999098641MD1999999+0051REMSYN004BUFR
0174827650999992015102400004-07330-047470FM-12+019399999V020180199999900600199010000199+02621+02271101381ADDAA101999999AY121061AY221061GA1081+006001071GA2999+999999101GA3999+999999101GE19MSL   +99999+99999GF108991081999006001999999MA1999999099001MD1999999+0171MW1031REMSYN004BUFR
0181827650999992015102412004-07330-047470FM-12+019399999V020360199999900600199020000199+02641+02161101701ADDAA101999999AZ101061AZ201061GA1061+006001081GA2999+999999051GA3999+999999101GE19MSL   +99999+99999GF108991061999006001999999KA1120N+02391MA1999999099301MD1999999+0231REMSYN004BUFR
0136827650999992015102418004-07330-047470FM-12+019399999V020180199999900600199020000199+03341+01981101111ADDAA101999999AZ101061AZ201061GA1071+006001061GE19MSL   +99999+99999GF107991071999006001999999MA1999999098791MD1999999+0151REMSYN004BUFR
0136827650999992015102500004-07330-047470FM-12+019399999V0203601N0000199999999020000199+02991+02171101351ADDAA101999999AZ101061AZ201061GA1011+022501031GE19MSL   +99999+99999GF101991011999022501999999MA1999999098971MD1999999-0031REMSYN004BUFR
0165827650999992015102512004-07330-047470FM-12+019399999V020020199999999999999020000199+02951+01811101661ADDAA101999999AZ101061AZ201061GA1011+006001081GA2999+999999031GE19MSL   +99999+99999GF104991011999006001999999KA1120N+02471MA1999999099291MD1999999-0011REMSYN004BUFR
0152827650999992015102518004-07330-047470FM-12+019399999V020270199999999999999020000199+03451+01981101181ADDAA101999999AZ101061AZ201061GA1031+006001081GA2999+999999031GE19MSL   +99999+99999GF105991031999006001999999MA1999999098841MD1999999+0051REMSYN004BUFR
0098827650999992015102600004-07330-047470FM-12+019399999V0203601N0000122000199020000199+03091+02261101361ADDAA101999999AZ101061AZ201061GF100991999999999999999999MA1999999099011MD1999999+0041REMSYN004BUFR
0187827650999992015102612004-07330-047470FM-12+019399999V020050199999900600199020000199+02341+02241101921ADDAA124040031AY161061AY221061GA1081+006001071GA2999+999999101GA3999+999999101GE19MSL   +99999+99999GF108991081999006001999999KA1120N+02191MA1999999099511MD1999999+0231MW1611REMSYN004BUFR
0158827650999992015102618004-07330-047470FM-12+019399999V020270199999999999999020000199+02851+02391101391ADDAA106000731AY161061AY201061GA1021+006001081GA2999+999999031GE19MSL   +99999+99999GF102991021999006001999999MA1999999098991MD1999999+0151MW1001REMSYN004BUFR
0136827650999992015102700004-07330-047470FM-12+019399999V0203601N0000199999999020000199+02641+02391101511ADDAA101999999AZ101061AZ201061GA1031+012501031GE19MSL   +99999+99999GF103991031999012501999999MA1999999099101MD1999999+0091REMSYN004BUFR
0149827650999992015102712004-07330-047470FM-12+019399999V020090199999999999999010000199+02891+02371101541ADDAA124000731AZ101061AZ201061GA1031+006001081GE19MSL   +99999+99999GF103991031999006001999999KA1120N+02231MA1999999099161MD1999999-0361REMSYN004BUFR
0136827650999992015102718004-07330-047470FM-12+019399999V020270199999999999999020000199+03191+02381101071ADDAA101999999AZ101061AZ201061GA1031+006001081GE19MSL   +99999+99999GF103991031999006001999999MA1999999098701MD1999999-0291REMSYN004BUFR
0098827650999992015102800004-07330-047470FM-12+019399999V0203601N0000122000199020000199+02991+02441101151ADDAA101999999AZ101061AZ201061GF100991999999999999999999MA1999999098791MD1999999-0311REMSYN004BUFR
0149827650999992015102812004-07330-047470FM-12+019399999V020270199999999999999020000199+02851+02231101521ADDAA101999999AZ101061AZ201061GA1031+006001081GE19MSL   +99999+99999GF103991031999006001999999KA1120N+02571MA1999999099151MD1999999-0011REMSYN004BUFR
0152827650999992015102818004-07330-047470FM-12+019399999V020270199999999999999010000199+03241+02331101181ADDAA101999999AZ101061AZ201061GA1041+006001071GA2999+999999051GE19MSL   +99999+99999GF107991041999006001999999MA1999999098831MD1999999+0131REMSYN004BUFR
0136827650999992015102900004-07330-047470FM-12+019399999V0203601N0000100600199010000199+02751+02341101331ADDAA101999999AZ101061AZ201061GA1071+006001061GE19MSL   +99999+99999GF107991071999006001999999MA1999999098891MD1999999+0161REMSYN004BUFR
0149827650999992015102912004-07330-047470FM-12+019399999V020230199999900600199020000199+02771+02251101521ADDAA101999999AZ101061AZ201061GA1071+006001031GE19MSL   +99999+99999GF107991071999006001999999KA1120N+02411MA1999999099141MD1999999-0011REMSYN004BUFR
0168827650999992015102918004-07330-047470FM-12+019399999V020050199999999999999020000199+02921+02141101141ADDAA101999999AZ101061AZ201061GA1021+006001081GA2999+999999031GA3999+999999001GE19MSL   +99999+99999GF106991021999006001999999MA1999999098761MD1999999-0071REMSYN004BUFR
0136827650999992015103000004-07330-047470FM-12+019399999V020270199999900600199020000199+02851+02461101281ADDAA101999999AZ101061AZ201061GA1061+006001061GE19MSL   +99999+99999GF106991061999006001999999MA1999999098901MD1999999-0051REMSYN004BUFR
0149827650999992015103012004-07330-047470FM-12+019399999V0203601N0000199999999020000199+02951+02331101521ADDAA101999999AZ101061AZ201061GA1011+017501021GE19MSL   +99999+99999GF101991011999017501999999KA1120N+02471MA1999999099151MD1999999+0011REMSYN004BUFR
0174827650999992015103018004-07330-047470FM-12+019399999V020140199999900600199020000199+02551+02271101231ADDAA106000731AY151061AY221061GA1051+006001071GA2999+999999051GA3999+999999101GE19MSL   +99999+99999GF108991051999006001999999MA1999999098841MD1999999-0081MW1611REMSYN004BUFR
0165827650999992015103112004-07330-047470FM-12+019399999V020050199999999999999020000199+02791+02251101651ADDAA124002031AZ101061AZ201061GA1031+006001081GA2999+999999031GE19MSL   +99999+99999GF105991031999006001999999KA1120N+02171MA1999999099251MD1999999+0101REMSYN004BUFR
0152827650999992015103118004-07330-047470FM-12+019399999V020020199999999999999020000199+03421+02061101021ADDAA101999999AZ101061AZ201061GA1021+006001081GA2999+999999051GE19MSL   +99999+99999GF106991021999006001999999MA1999999098661MD1999999-0181REMSYN004BUFR
0152827650999992015110100004-07330-047470FM-12+019399999V0203601N0000199999999020000199+02851+02281101341ADDAA101999999AZ101061AZ201061GA1041+006001081GA2999+999999051GE19MSL   +99999+99999GF106991041999006001999999MA1999999098971MD1999999-0071REMSYN004BUFR
0171827650999992015110112004-07330-047470FM-12+019399999V020340199999999999999020000199+02771+02251101561ADDAA124003031AY161061AY221061GA1011+006001081GA2999+999999031GE19MSL   +99999+99999GF106991011999006001999999KA1120N+02401MA1999999099181MD1999999-0071MW1001REMSYN004BUFR
0174827650999992015110118004-07330-047470FM-12+019399999V020140199999999999999020000199+02751+02381101181ADDAA106004031AY161061AY221061GA1021+006001071GA2999+999999051GA3999+999999101GE19MSL   +99999+99999GF108991021999006001999999MA1999999098791MD1999999+0131MW1151REMSYN004BUFR
0098827650999992015110200004-07330-047470FM-12+019399999V0203601N0000122000199020000199+02471+02341101361ADDAA101999999AZ101061AZ201061GF100991999999999999999999MA1999999098971MD1999999+0001REMSYN004BUFR
0158827650999992015110218004-07330-047470FM-12+019399999V020270199999999999999020000199+03201+02301100961ADDAA106000131AY151061AY211061GA1031+006001081GA2999+999999021GE19MSL   +99999+99999GF106991031999006001999999MA1999999098591MD1999999-0201MW1021REMSYN004BUFR
0098827650999992015110300004-07330-047470FM-12+019399999V0203601N0000122000199020000199+02891+02521101031ADDAA101999999AZ101061AZ201061GF100991999999999999999999MA1999999098651MD1999999-0321REMSYN004BUFR
0165827650999992015110312004-07330-047470FM-12+019399999V020090199999999999999020000199+02941+02331101391ADDAA124000131AZ101061AZ201061GA1021+006001081GA2999+999999031GE19MSL   +99999+99999GF106991021999006001999999KA1120N+02371MA1999999099021MD1999999-0081REMSYN004BUFR
0158827650999992015110318004-07330-047470FM-12+019399999V020360199999999999999020000199+03071+02241100941ADDAA106002031AY161061AY291061GA1021+012501081GA2999+999999031GE19MSL   +99999+99999GF106991021999012501999999MA1999999098581MD1999999-0011MW1021REMSYN004BUFR
0142827650999992015110400004-07330-047470FM-12+019399999V0203601N0000100600199020000199+02841+02401101081ADDAA101999999AY101061AY201061GA1051+006001081GE19MSL   +99999+99999GF105991051999006001999999MA1999999098721MD1999999+0071MW1131REMSYN004BUFR
0165827650999992015110412004-07330-047470FM-12+019399999V020050199999999999999020000199+02921+02321101671ADDAA124002031AZ101061AZ201061GA1041+006001081GA2999+999999031GE19MSL   +99999+99999GF106991041999006001999999KA1120N+02331MA1999999099291MD1999999+0271REMSYN004BUFR
0152827650999992015110418004-07330-047470FM-12+019399999V020270199999999999999020000199+03251+02211101201ADDAA101999999AZ101061AZ201061GA1021+006001081GA2999+999999041GE19MSL   +99999+99999GF106991021999006001999999MA1999999098841MD1999999+0261REMSYN004BUFR
0152827650999992015110500004-07330-047470FM-12+019399999V020340199999999999999020000199+02871+02231101191ADDAA101999999AZ101061AZ201061GA1011+006001081GA2999+999999041GE19MSL   +99999+99999GF106991011999006001999999MA1999999098831MD1999999+0111REMSYN004BUFR
0149827650999992015110512004-07330-047470FM-12+019399999V020320199999901250199020000199+02741+02121101561ADDAA101999999AZ101061AZ201061GA1061+012501031GE19MSL   +99999+99999GF106991061999012501999999KA1120N+02391MA1999999099181MD1999999-0111REMSYN004BUFR
0152827650999992015110518004-07330-047470FM-12+019399999V020270199999999999999020000199+03371+02181100981ADDAA101999999AZ101061AZ201061GA1041+006001061GA2999+999999051GE19MSL   +99999+99999GF107991041999006001999999MA1999999098631MD1999999-0211REMSYN004BUFR
0098827650999992015110600004-07330-047470FM-12+019399999V0203601N0000122000199020000199+03021+02211101181ADDAA101999999AZ101061AZ201061GF100991999999999999999999MA1999999098821MD1999999-0011REMSYN004BUFR
0165827650999992015110612004-07330-047470FM-12+019399999V020270199999999999999020000199+02971+02251101601ADDAA101999999AZ101061AZ201061GA1011+006001081GA2999+999999031GE19MSL   +99999+99999GF103991011999006001999999KA1120N+02411MA1999999099241MD1999999+0061REMSYN004BUFR
0152827650999992015110618004-07330-047470FM-12+019399999V020230199999999999999020000199+03371+02091101141ADDAA101999999AZ101061AZ201061GA1021+006001081GA2999+999999031GE19MSL   +99999+99999GF106991021999006001999999MA1999999098791MD1999999+0161REMSYN004BUFR
0152827650999992015110700004-07330-047470FM-12+019399999V0203601N0000199999999020000199+03021+02311101321ADDAA101999999AZ101061AZ201061GA1011+006001081GA2999+999999041GE19MSL   +99999+99999GF107991011999006001999999MA1999999098961MD1999999+0141REMSYN004BUFR
0165827650999992015110712004-07330-047470FM-12+019399999V020270199999999999999020000199+03071+02371101501ADDAA101999999AZ101061AZ201061GA1031+006001081GA2999+999999051GE19MSL   +99999+99999GF107991031999006001999999KA1120N+02511MA1999999099141MD1999999-0101REMSYN004BUFR
0152827650999992015110718004-07330-047470FM-12+019399999V020320199999999999999020000199+03421+02191101041ADDAA101999999AZ101061AZ201061GA1031+006001081GA2999+999999051GE19MSL   +99999+99999GF107991031999006001999999MA1999999098701MD1999999-0091REMSYN004BUFR
0168827650999992015110800004-07330-047470FM-12+019399999V020320199999999999999020000199+02921+02321101251ADDAA101999999AZ101061AZ201061GA1031+006001081GA2999+999999051GA3999+999999101GE19MSL   +99999+99999GF108991031999006001999999MA1999999098891MD1999999-0071REMSYN004BUFR
0149827650999992015110812004-07330-047470FM-12+019399999V020270199999900600199002000199+03041+02311101421ADDAA101999999AZ101061AZ201061GA1071+006001071GE19MSL   +99999+99999GF107991071999006001999999KA1120N+02571MA1999999099061MD1999999-0081REMSYN004BUFR
0152827650999992015110818004-07330-047470FM-12+019399999V020360199999999999999010000199+03391+02271100991ADDAA101999999AZ101061AZ201061GA1031+006001081GA2999+999999051GE19MSL   +99999+99999GF107991031999006001999999MA1999999098651MD1999999+0051REMSYN004BUFR
0136827650999992015110900004-07330-047470FM-12+019399999V0203601N0000100600199010000199+02821+02421101321ADDAA101999999AZ101061AZ201061GA1071+006001061GE19MSL   +99999+99999GF107991071999006001999999MA1999999098961MD1999999+0071REMSYN004BUFR
0152827650999992015110918004-07330-047470FM-12+019399999V020230199999999999999020000199+03241+02281101261ADDAA101999999AZ101061AZ201061GA1031+006001081GA2999+999999051GE19MSL   +99999+99999GF107991031999006001999999MA1999999098901MD1999999+0251REMSYN004BUFR
0098827650999992015111000004-07330-047470FM-12+019399999V020180199999922000199020000199+02721+02371101411ADDAA101999999AZ101061AZ201061GF100991999999999999999999MA1999999099031MD1999999+0071REMSYN004BUFR
0149827650999992015111012004-07330-047470FM-12+019399999V020230199999900600199020000199+02871+02351101631ADDAA101999999AZ101061AZ201061GA1051+006001031GE19MSL   +99999+99999GF105991051999006001999999KA1120N+02331MA1999999099251MD1999999-0021REMSYN004BUFR
0136827650999992015111018004-07330-047470FM-12+019399999V020320199999901250199020000199+03041+02361101211ADDAA101999999AZ101061AZ201061GA1051+012501031GE19MSL   +99999+99999GF105991051999012501999999MA1999999098841MD1999999-0061REMSYN004BUFR
0098827650999992015111100004-07330-047470FM-12+019399999V0203601N0000122000199020000199+02741+02431101301ADDAA101999999AZ101061AZ201061GF100991999999999999999999MA1999999098931MD1999999-0111REMSYN004BUFR
0165827650999992015111112004-07330-047470FM-12+019399999V0203601N0000199999999020000199+02941+02401101551ADDAA101999999AZ101061AZ201061GA1041+006001081GA2999+999999031GE19MSL   +99999+99999GF106991041999006001999999KA1120N+02311MA1999999099171MD1999999-0081REMSYN004BUFR
0152827650999992015111118004-07330-047470FM-12+019399999V020270199999999999999020000199+03371+02191101011ADDAA101999999AZ101061AZ201061GA1031+006001081GA2999+999999031GE19MSL   +99999+99999GF105991031999006001999999MA1999999098661MD1999999-0181REMSYN004BUFR
0098827650999992015111200004-07330-047470FM-12+019399999V020320199999922000199020000199+03051+02401101101ADDAA101999999AZ101061AZ201061GF100991999999999999999999MA1999999098751MD1999999-0171REMSYN004BUFR
0165827650999992015111212004-07330-047470FM-12+019399999V0203601N0000199999999020000199+02871+02281101431ADDAA101999999AZ101061AZ201061GA1011+006001081GA2999+999999031GE19MSL   +99999+99999GF106991011999006001999999KA1120N+02361MA1999999099071MD1999999-0101REMSYN004BUFR
0174827650999992015111218004-07330-047470FM-12+019399999V0203601N0000100600199020000199+02721+02191101241ADDAA101999999AY191061AY221061GA1061+006001081GA2999+999999051GA3999+999999101GE19MSL   +99999+99999GF108991061999006001999999MA1999999098851MD1999999+0191MW1001REMSYN004BUFR
0098827650999992015111300004-07330-047470FM-12+019399999V0203601N0000122000199020000199+02621+02371101161ADDAA101999999AZ101061AZ201061GF100991999999999999999999MA1999999098781MD1999999+0031REMSYN004BUFR
0149827650999992015111312004-07330-047470FM-12+019399999V020360199999999999999020000199+02921+02271101441ADDAA101999999AZ101061AZ201061GA1021+006001081GE19MSL   +99999+99999GF102991021999006001999999KA1120N+02211MA1999999099061MD1999999-0011REMSYN004BUFR
0136827650999992015111318004-07330-047470FM-12+019399999V020270199999999999999020000199+03471+02221101031ADDAA101999999AZ101061AZ201061GA1031+006001081GE19MSL   +99999+99999GF103991031999006001999999MA1999999098681MD1999999-0171REMSYN004BUFR
0098827650999992015111400004-07330-047470FM-12+019399999V0203601N0000122000199020000199+03041+02231101111ADDAA101999999AZ101061AZ201061GF100991999999999999999999MA1999999098731MD1999999-0021REMSYN004BUFR
0149827650999992015111412004-07330-047470FM-12+019399999V020360199999999999999020000199+02971+02151101551ADDAA101999999AZ101061AZ201061GA1041+006001081GE19MSL   +99999+99999GF104991041999006001999999KA1120N+02491MA1999999099191MD1999999+0131REMSYN004BUFR
0136827650999992015111418004-07330-047470FM-12+019399999V020270199999900600199020000199+03451+02231101111ADDAA101999999AZ101061AZ201061GA1061+006001081GE19MSL   +99999+99999GF106991061999006001999999MA1999999098771MD1999999+0091REMSYN004BUFR
0098827650999992015111500004-07330-047470FM-12+019399999V020360199999922000199020000199+03021+02241101221ADDAA101999999AZ101061AZ201061GF100991999999999999999999MA1999999098861MD1999999+0101REMSYN004BUFR
0149827650999992015111512004-07330-047470FM-12+019399999V020360199999901250199020000199+02971+01921101561ADDAA101999999AZ101061AZ201061GA1061+012501031GE19MSL   +99999+99999GF106991061999012501999999KA1120N+02591MA1999999099201MD1999999+0011REMSYN004BUFR
0152827650999992015111518004-07330-047470FM-12+019399999V020270199999999999999020000199+03321+02141101131ADDAA101999999AZ101061AZ201061GA1031+006001061GA2999+999999051GE19MSL   +99999+99999GF107991031999006001999999MA1999999098791MD1999999+0021REMSYN004BUFR
0136827650999992015111600004-07330-047470FM-12+019399999V0203601N0000100600199020000199+02991+02291101241ADDAA101999999AZ101061AZ201061GA1051+006001081GE19MSL   +99999+99999GF105991051999006001999999MA1999999098881MD1999999+0021REMSYN004BUFR
0165827650999992015111612004-07330-047470FM-12+019399999V020360199999900600199010000199+02891+02021101451ADDAA101999999AZ101061AZ201061GA1081+006001031GA2999+999999101GE19MSL   +99999+99999GF108991081999006001999999KA1120N+02471MA1999999099081MD1999999-0121REMSYN004BUFR
0152827650999992015111618004-07330-047470FM-12+019399999V020270199999999999999020000199+03421+01981100941ADDAA101999999AZ101061AZ201061GA1041+006001081GA2999+999999051GE19MSL   +99999+99999GF107991041999006001999999MA1999999098611MD1999999-0181REMSYN004BUFR
0098827650999992015111700004-07330-047470FM-12+019399999V0203601N0000122000199020000199+03041+02281100961ADDAA101999999AZ101061AZ201061GF100991999999999999999999MA1999999098611MD1999999-0271REMSYN004BUFR
0187827650999992015111712004-07330-047470FM-12+019399999V020360199999999999999020000199+02891+02301101331ADDAA101999999AY101061AY201061GA1041+006001081GA2999+999999051GA3999+999999101GE19MSL   +99999+99999GF108991041999006001999999KA1120N+02421MA1999999098971MD1999999-0111MW1031REMSYN004BUFR
0168827650999992015111718004-07330-047470FM-12+019399999V0203601N0000199999999020000199+03141+02321100951ADDAA101999999AZ101061AZ201061GA1021+006001081GA2999+999999051GA3999+999999101GE19MSL   +99999+99999GF108991021999006001999999MA1999999098591MD1999999-0021REMSYN004BUFR
0152827650999992015111800004-07330-047470FM-12+019399999V020360199999999999999020000199+02641+02251101191ADDAA101999999AZ101061AZ201061GA1041+006001081GA2999+999999041GE19MSL   +99999+99999GF107991041999006001999999MA1999999098811MD1999999+0101REMSYN004BUFR
0181827650999992015111812004-07330-047470FM-12+019399999V0203601N0000199999999020000199+02751+02361101281ADDAA101999999AZ101061AZ201061GA1021+006001081GA2999+999999051GA3999+999999101GE19MSL   +99999+99999GF108991021999006001999999KA1120N+02411MA1999999098891MD1999999-0081REMSYN004BUFR
0152827650999992015111818004-07330-047470FM-12+019399999V020270199999999999999020000199+03421+02291100721ADDAA101999999AZ101061AZ201061GA1031+006001081GA2999+999999031GE19MSL   +99999+99999GF106991031999006001999999MA1999999098381MD1999999-0211REMSYN004BUFR
0168827650999992015111900004-07330-047470FM-12+019399999V020230199999900600199020000199+02991+02441101021ADDAA101999999AZ101061AZ201061GA1061+006001081GA2999+999999051GA3999+999999101GE19MSL   +99999+99999GF108991061999006001999999MA1999999098661MD1999999-0151REMSYN004BUFR
0165827650999992015111912004-07330-047470FM-12+019399999V0203601N0000199999999020000199+02851+02331101211ADDAA101999999AZ101061AZ201061GA1021+006001081GA2999+999999041GE19MSL   +99999+99999GF105991021999006001999999KA1120N+02471MA1999999098851MD1999999-0041REMSYN004BUFR
0168827650999992015111918004-07330-047470FM-12+019399999V020270199999999999999020000199+03251+02271100851ADDAA101999999AZ101061AZ201061GA1021+006001081GA2999+999999051GA3999+999999101GE19MSL   +99999+99999GF108991021999006001999999MA1999999098501MD1999999-0121REMSYN004BUFR
0152827650999992015112000004-07330-047470FM-12+019399999V020270199999901750199010000199+02771+02321101061ADDAA101999999AZ101061AZ201061GA1081+017501041GA2999+999999101GE19MSL   +99999+99999GF108991081999017501999999MA1999999098691MD1999999+0031REMSYN004BUFR
0149827650999992015112012004-07330-047470FM-12+019399999V020320199999901250199020000199+02741+02281101361ADDAA101999999AZ101061AZ201061GA1071+012501061GE19MSL   +99999+99999GF107991071999012501999999KA1120N+02511MA1999999098981MD1999999+0131REMSYN004BUFR
0152827650999992015112018004-07330-047470FM-12+019399999V020320199999999999999020000199+03351+02211100941ADDAA101999999AZ101061AZ201061GA1021+006001081GA2999+999999051GE19MSL   +99999+99999GF105991021999006001999999MA1999999098591MD1999999+0091REMSYN004BUFR
0158827650999992015112100004-07330-047470FM-12+019399999V020270199999999999999010000199+02871+02301101141ADDAA101999999AY101061AY201061GA1041+006001071GA2999+999999031GE19MSL   +99999+99999GF105991041999006001999999MA1999999098771MD1999999+0081MW1131REMSYN004BUFR
0165827650999992015112112004-07330-047470FM-12+019399999V020320199999999999999020000199+03091+02341101341ADDAA101999999AZ101061AZ201061GA1011+006001081GA2999+999999041GE19MSL   +99999+99999GF106991011999006001999999KA1120N+02431MA1999999098981MD1999999+0001REMSYN004BUFR
0168827650999992015112118004-07330-047470FM-12+019399999V020230199999999999999010000199+03391+02341100941ADDAA101999999AZ101061AZ201061GA1021+006001081GA2999+999999051GA3999+999999101GE19MSL   +99999+99999GF108991021999006001999999MA1999999098601MD1999999+0011REMSYN004BUFR
0098827650999992015112200004-07330-047470FM-12+019399999V020140199999922000199020000199+02851+02311101201ADDAA101999999AZ101061AZ201061GF100991999999999999999999MA1999999098851MD1999999+0081REMSYN004BUFR
0165827650999992015112212004-07330-047470FM-12+019399999V020360199999999999999020000199+02941+02141101331ADDAA101999999AZ101061AZ201061GA1031+006001081GA2999+999999041GE19MSL   +99999+99999GF107991031999006001999999KA1120N+02351MA1999999098961MD1999999-0021REMSYN004BUFR
0152827650999992015112218004-07330-047470FM-12+019399999V020270199999999999999020000199+03441+02111100961ADDAA101999999AZ101061AZ201061GA1031+006001081GA2999+999999051GE19MSL   +99999+99999GF107991031999006001999999MA1999999098611MD1999999+0011REMSYN004BUFR
0152827650999992015112300004-07330-047470FM-12+019399999V0203601N0000199999999020000199+03091+02361101081ADDAA101999999AZ101061AZ201061GA1031+006001081GA2999+999999031GE19MSL   +99999+99999GF105991031999006001999999MA1999999098731MD1999999-0121REMSYN004BUFR
0165827650999992015112312004-07330-047470FM-12+019399999V020320199999999999999020000199+02891+02101101361ADDAA101999999AZ101061AZ201061GA1011+006001081GA2999+999999041GE19MSL   +99999+99999GF107991011999006001999999KA1120N+02491MA1999999099001MD1999999+0041REMSYN004BUFR
0136827650999992015112318004-07330-047470FM-12+019399999V020160199999900600199004000199+03041+02281100901ADDAA101999999AZ101061AZ201061GA1061+006001031GE19MSL   +99999+99999GF106991061999006001999999MA1999999098541MD1999999-0071REMSYN004BUFR
0098827650999992015112400004-07330-047470FM-12+019399999V0203601N0000122000199020000199+02841+02461100901ADDAA101999999AZ101061AZ201061GF100991999999999999999999MA1999999098541MD1999999-0191REMSYN004BUFR
0149827650999992015112412004-07330-047470FM-12+019399999V0203601N0000101250199020000199+02921+02341101181ADDAA101999999AZ101061AZ201061GA1071+012501031GE19MSL   +99999+99999GF107991071999012501999999KA1120N+02391MA1999999098821MD1999999-0181REMSYN004BUFR
0168827650999992015112418004-07330-047470FM-12+019399999V020360199999900600199020000199+02921+02141100921ADDAA101999999AZ101061AZ201061GA1081+006001071GA2999+999999101GA3999+999999101GE19MSL   +99999+99999GF108991081999006001999999MA1999999098551MD1999999+0011REMSYN004BUFR
0098827650999992015112500004-07330-047470FM-12+019399999V0203601N0000122000199020000199+02451+02191101261ADDAA101999999AZ101061AZ201061GF100991999999999999999999MA1999999098871MD1999999+0331REMSYN004BUFR
0181827650999992015112512004-07330-047470FM-12+019399999V0203601N0000100600199020000199+02541+02351101651ADDAA101999999AZ101061AZ201061GA1061+006001081GA2999+999999051GA3999+999999101GE19MSL   +99999+99999GF108991061999006001999999KA1120N+02291MA1999999099241MD1999999+0421REMSYN004BUFR
0152827650999992015112518004-07330-047470FM-12+019399999V020270199999999999999020000199+03151+02261101101ADDAA101999999AZ101061AZ201061GA1041+006001081GA2999+999999041GE19MSL   +99999+99999GF106991041999006001999999MA1999999098731MD1999999+0181REMSYN004BUFR
0136827650999992015112600004-07330-047470FM-12+019399999V0203601N0000199999999020000199+02921+02361101261ADDAA101999999AZ101061AZ201061GA1031+050001021GE19MSL   +99999+99999GF103991031999050001999999MA1999999098881MD1999999+0011REMSYN004BUFR
0165827650999992015112612004-07330-047470FM-12+019399999V020360199999999999999020000199+02951+02351101481ADDAA101999999AZ101061AZ201061GA1031+006001061GA2999+999999031GE19MSL   +99999+99999GF107991031999006001999999KA1120N+02451MA1999999099111MD1999999-0131REMSYN004BUFR
0168827650999992015112618004-07330-047470FM-12+019399999V020270199999999999999020000199+03151+02391101101ADDAA101999999AZ101061AZ201061GA1041+006001061GA2999+999999041GA3999+999999101GE19MSL   +99999+99999GF108991041999006001999999MA1999999098741MD1999999+0011REMSYN004BUFR
0136827650999992015112700004-07330-047470FM-12+019399999V0203601N0000199999999020000199+02891+02411101201ADDAA101999999AZ101061AZ201061GA1031+012501081GE19MSL   +99999+99999GF103991031999012501999999MA1999999098841MD1999999-0041REMSYN004BUFR
0165827650999992015112712004-07330-047470FM-12+019399999V020360199999999999999020000199+02941+02331101371ADDAA101999999AZ101061AZ201061GA1041+012501061GA2999+999999051GE19MSL   +99999+99999GF107991041999012501999999KA1120N+02311MA1999999099001MD1999999-0111REMSYN004BUFR
0168827650999992015112718004-07330-047470FM-12+019399999V020360199999999999999020000199+03341+02221100951ADDAA101999999AZ101061AZ201061GA1041+006001061GA2999+999999031GA3999+999999101GE19MSL   +99999+99999GF108991041999006001999999MA1999999098671MD1999999-0141REMSYN004BUFR
0136827650999992015112800004-07330-047470FM-12+019399999V0203601N0000101750199020000199+02751+02281101131ADDAA101999999AZ101061AZ201061GA1071+017501041GE19MSL   +99999+99999GF107991071999017501999999MA1999999098761MD1999999-0081REMSYN004BUFR
0181827650999992015112812004-07330-047470FM-12+019399999V0203601N0000101250199020000199+02821+02311101371ADDAA101999999AZ101061AZ201061GA1081+012501071GA2999+999999101GA3999+999999101GE19MSL   +99999+99999GF108991081999012501999999KA1120N+02411MA1999999098991MD1999999-0011REMSYN004BUFR
0158827650999992015112818004-07330-047470FM-12+019399999V020270199999900600199020000199+03141+02381101101ADDAA106000731AY161061AY211061GA1081+006001041GA2999+999999101GE19MSL   +99999+99999GF108991081999006001999999MA1999999098741MD1999999+0141MW1021REMSYN004BUFR
0152827650999992015112900004-07330-047470FM-12+019399999V020140199999999999999020000199+02541+02151101301ADDAA101999999AZ101061AZ201061GA1041+006001081GA2999+999999051GE19MSL   +99999+99999GF106991041999006001999999MA1999999098911MD1999999+0151REMSYN004BUFR
0165827650999992015112912004-07330-047470FM-12+019399999V0203601N0000199999999004000199+02741+02281101631ADDAA124000731AZ101061AZ201061GA1011+006001081GA2999+999999041GE19MSL   +99999+99999GF102991011999006001999999KA1120N+02171MA1999999099231MD1999999+0241REMSYN004BUFR
0098827650999992015113000004-07330-047470FM-12+019399999V020360199999922000199020000199+02921+02191101341ADDAA101999999AZ101061AZ201061GF100991999999999999999999MA1999999098971MD1999999+0061REMSYN004BUFR
0165827650999992015113012004-07330-047470FM-12+019399999V0203601N0000199999999020000199+02871+02211101551ADDAA101999999AZ101061AZ201061GA1031+006001081GA2999+999999031GE19MSL   +99999+99999GF105991031999006001999999KA1120N+02351MA1999999099181MD1999999-0051REMSYN004BUFR
0152827650999992015113018004-07330-047470FM-12+019399999V0203601N0000199999999020000199+03491+02051101081ADDAA101999999AZ101061AZ201061GA1031+006001081GA2999+999999041GE19MSL   +99999+99999GF104991031999006001999999MA1999999098731MD1999999-0101REMSYN004BUFR
0098827650999992015120100004-07330-047470FM-12+019399999V0203601N0000122000199020000199+03041+02311101271ADDAA101999999AZ101061AZ201061GF100991999999999999999999MA1999999098911MD1999999-0061REMSYN004BUFR
0111827650999992015120112004-07330-047470FM-12+019399999V020320199999922000199004000199+02941+02141101481ADDAA101999999AZ101061AZ201061GF100991999999999999999999KA1120N+02331MA1999999099121MD1999999-0061REMSYN004BUFR
0136827650999992015120118004-07330-047470FM-12+019399999V020200199999900600199020000199+03691+01711100951ADDAA101999999AZ101061AZ201061GA1051+006001081GE19MSL   +99999+99999GF105991051999006001999999MA1999999098621MD1999999-0111REMSYN004BUFR
0136827650999992015120200004-07330-047470FM-12+019399999V0203601N0000199999999020000199+03141+02041101151ADDAA101999999AZ101061AZ201061GA1021+006001081GE19MSL   +99999+99999GF102991021999006001999999MA1999999098801MD1999999-0111REMSYN004BUFR
0165827650999992015120212004-07330-047470FM-12+019399999V020360199999901250199010000199+03041+02121101431ADDAA101999999AZ101061AZ201061GA1081+012501041GA2999+999999101GE19MSL   +99999+99999GF108991081999012501999999KA1120N+02231MA1999999099081MD1999999-0041REMSYN004BUFR
0152827650999992015120218004-07330-047470FM-12+019399999V020270199999900600199010000199+03551+02251100941ADDAA101999999AZ101061AZ201061GA1081+006001051GA2999+999999101GE19MSL   +99999+99999GF108991081999006001999999MA1999999098601MD1999999-0021REMSYN004BUFR
0152827650999992015120300004-07330-047470FM-12+019399999V020270199999900600199010000199+03051+02401101061ADDAA101999999AZ101061AZ201061GA1081+006001051GA2999+999999101GE19MSL   +99999+99999GF108991081999006001999999MA1999999098711MD1999999-0091REMSYN004BUFR
0149827650999992015120312004-07330-047470FM-12+019399999V020360199999900600199010000199+02921+02321101551ADDAA101999999AZ101061AZ201061GA1061+006001081GE19MSL   +99999+99999GF106991061999006001999999KA1120N+02571MA1999999099191MD1999999+0111REMSYN004BUFR
0136827650999992015120318004-07330-047470FM-12+019399999V020270199999900600199010000199+03341+02371101101ADDAA101999999AZ101061AZ201061GA1051+006001051GE19MSL   +99999+99999GF105991051999006001999999MA1999999098711MD1999999+0161REMSYN004BUFR
0098827650999992015120400004-07330-047470FM-12+019399999V020320199999922000199020000199+02971+02441101251ADDAA101999999AZ101061AZ201061GF100991999999999999999999MA1999999098891MD1999999+0181REMSYN004BUFR
0165827650999992015120412004-07330-047470FM-12+019399999V020360199999901250199010000199+02841+02311101561ADDAA101999999AZ101061AZ201061GA1081+012501041GA2999+999999101GE19MSL   +99999+99999GF108991081999012501999999KA1120N+02571MA1999999099191MD1999999+0001REMSYN004BUFR
0136827650999992015120418004-07330-047470FM-12+019399999V020360199999900600199010000199+03321+02171101121ADDAA101999999AZ101061AZ201061GA1071+006001041GE19MSL   +99999+99999GF107991071999006001999999MA1999999098771MD1999999+0011REMSYN004BUFR
0098827650999992015120500004-07330-047470FM-12+019399999V0203601N0000122000199020000199+02941+02291101351ADDAA101999999AZ101061AZ201061GF100991999999999999999999MA1999999098981MD1999999+0091REMSYN004BUFR
0187827650999992015120512004-07330-047470FM-12+019399999V020320199999999999999004000199+02871+02161101681ADDAA101999999AY101061AY201061GA1021+006001081GA2999+999999051GA3999+999999101GE19MSL   +99999+99999GF108991021999006001999999KA1120N+02571MA1999999099301MD1999999+0111MW1041REMSYN004BUFR
0158827650999992015120518004-07330-047470FM-12+019399999V020320199999900600199004000199+03251+02151101251ADDAA101999999AY101061AY201061GA1081+006001051GA2999+999999101GE19MSL   +99999+99999GF108991081999006001999999MA1999999098891MD1999999+0121MW1041REMSYN004BUFR
0148827650999992015120600004-07330-047470FM-12+019399999V020320199999999999999004000199+02891+02321101501ADDAA101999999AY101061AY201061GA1999+999999101GA2999+999999101GA3999+999999101GE19MSL   +99999+99999MA1999999099131MD1999999+0151MW1041REMSYN004BUFR
0155827650999992015120612004-07330-047470FM-12+019399999V0203601N0000100300199004000199+02851+02281101601ADDAA101999999AY101061AY201061GA1071+003001081GE19MSL   +99999+99999GF107991071999003001999999KA1120N+02431MA1999999099231MD1999999-0071MW1041REMSYN004BUFR
0158827650999992015120618004-07330-047470FM-12+019399999V0203601N0000199999999002000199+03221+02291101261ADDAA101999999AY101061AY201061GA1081+999999051GA2999+999999101GE19MSL   +99999+99999GF108991081999999999999999MA1999999098901MD1999999+0011MW1041REMSYN004BUFR
0148827650999992015120700004-07330-047470FM-12+019399999V0203601N0000199999999004000199+02991+02441101431ADDAA101999999AY101061AY201061GA1999+999999101GA2999+999999101GA3999+999999101GE19MSL   +99999+99999MA1999999099071MD1999999-0061MW1041REMSYN004BUFR
0187827650999992015120712004-07330-047470FM-12+019399999V020050199999999999999004000199+02821+02331101611ADDAA101999999AY101061AY201061GA1031+006001081GA2999+999999051GA3999+999999101GE19MSL   +99999+99999GF108991031999006001999999KA1120N+02441MA1999999099241MD1999999+0011MW1041REMSYN004BUFR
0152827650999992015120718004-07330-047470FM-12+019399999V020340199999999999999004000199+03291+02121101201ADDAA101999999AZ101061AZ201061GA1031+006001081GA2999+999999041GE19MSL   +99999+99999GF105991031999006001999999MA1999999098841MD1999999-0061REMSYN004BUFR
0152827650999992015120800004-07330-047470FM-12+019399999V0203601N0000199999999004000199+02941+02211101341ADDAA101999999AZ101061AZ201061GA1021+006001081GA2999+999999041GE19MSL   +99999+99999GF107991021999006001999999MA1999999098971MD1999999-0101REMSYN004BUFR
0149827650999992015120812004-07330-047470FM-12+019399999V020090199999901250199020000199+02971+02091101531ADDAA101999999AZ101061AZ201061GA1051+012501081GE19MSL   +99999+99999GF105991051999012501999999KA1120N+02471MA1999999099171MD1999999-0071REMSYN004BUFR
0136827650999992015120818004-07330-047470FM-12+019399999V020270199999901750199020000199+03471+02111101101ADDAA101999999AZ101061AZ201061GA1061+017501081GE19MSL   +99999+99999GF106991061999017501999999MA1999999098761MD1999999-0081REMSYN004BUFR
0098827650999992015120900004-07330-047470FM-12+019399999V0203601N0000122000199020000199+02951+02311101271ADDAA101999999AZ101061AZ201061GF100991999999999999999999MA1999999098911MD1999999-0061REMSYN004BUFR
0165827650999992015120912004-07330-047470FM-12+019399999V020050199999999999999020000199+02871+02161101611ADDAA101999999AZ101061AZ201061GA1041+017501081GA2999+999999051GE19MSL   +99999+99999GF107991041999017501999999KA1120N+02371MA1999999099241MD1999999+0071REMSYN004BUFR
0158827650999992015120918004-07330-047470FM-12+019399999V020270199999999999999004000199+03351+02111101151ADDAA101999999AY101061AY201061GA1081+999999041GA2999+999999101GE19MSL   +99999+99999GF108991081999999999999999MA1999999098801MD1999999+0041MW1041REMSYN004BUFR
0142827650999992015121000004-07330-047470FM-12+019399999V0203601N0000101250199010000199+02871+02441101281ADDAA101999999AY101061AY201061GA1051+012501081GE19MSL   +99999+99999GF105991051999012501999999MA1999999098911MD1999999+0001MW1041REMSYN004BUFR
0187827650999992015121012004-07330-047470FM-12+019399999V020360199999999999999004000199+02721+02411101651ADDAA101999999AY101061AY201061GA1041+999999061GA2999+999999051GA3999+999999101GE19MSL   +99999+99999GF108991041999999999999999KA1120N+02431MA1999999099261MD1999999+0021MW1041REMSYN004BUFR
0142827650999992015121018004-07330-047470FM-12+019399999V020270199999999999999010000199+03121+02281101331ADDAA101999999AY101061AY201061GA1051+999999051GE19MSL   +99999+99999GF105991051999999999999999MA1999999098961MD1999999+0161MW1041REMSYN004BUFR
0174827650999992015121100004-07330-047470FM-12+019399999V020320199999999999999004000199+02741+02341101351ADDAA101999999AY101061AY201061GA1081+999999081GA2999+999999031GA3999+999999101GE19MSL   +99999+99999GF108991081999999999999999MA1999999098971MD1999999+0061MW1041REMSYN004BUFR
0117827650999992015121112004-07330-047470FM-12+019399999V020320199999922000199004000199+02891+02321101631ADDAA101999999AY101061AY201061GF100991999999999999999999KA1120N+02331MA1999999099251MD1999999-0011MW1041REMSYN004BUFR
0158827650999992015121118004-07330-047470FM-12+019399999V020270199999999999999004000199+03471+02251101111ADDAA101999999AY101061AY201061GA1041+006001081GA2999+999999031GE19MSL   +99999+99999GF106991041999006001999999MA1999999098761MD1999999-0201MW1041REMSYN004BUFR
0174827650999992015121200004-07330-047470FM-12+019399999V020360199999999999999004000199+03051+02271101311ADDAA101999999AY101061AY201061GA1999+000001091GA2999+999999031GA3999+999999001GE19MSL   +99999+99999GF199999999999000001999999MA1999999098951MD1999999-0021MW1041REMSYN004BUFR
0155827650999992015121212004-07330-047470FM-12+019399999V020360199999999999999004000199+02871+02231101551ADDAA101999999AY101061AY201061GA1061+999999081GE19MSL   +99999+99999GF106991061999999999999999KA1120N+02611MA1999999099191MD1999999-0061MW1041REMSYN004BUFR
0152827650999992015121218004-07330-047470FM-12+019399999V020270199999999999999020000199+03391+02241101131ADDAA101999999AZ101061AZ201061GA1041+012501061GA2999+999999051GE19MSL   +99999+99999GF107991041999012501999999MA1999999098781MD1999999+0031REMSYN004BUFR
0098827650999992015121300004-07330-047470FM-12+019399999V020230199999922000199020000199+02771+02271101321ADDAA101999999AZ101061AZ201061GF100991999999999999999999MA1999999098961MD1999999+0011REMSYN004BUFR
0181827650999992015121312004-07330-047470FM-12+019399999V020360199999999999999020000199+02791+02551101621ADDAA101999999AZ101061AZ201061GA1021+006001081GA2999+999999051GA3999+999999101GE19MSL   +99999+99999GF108991021999006001999999KA1120N+02451MA1999999099241MD1999999+0051REMSYN004BUFR
