0165829830999992015010612004-09383-040483FM-12+037299999V0201401N0041199999999020000199+02741+01971101501ADDAA101999999AZ101061AZ201061GA1021+008001081GA2999+999999031GE19MSL   +99999+99999GF103991021999008001999999KA1120N+02401MA1999999097411MD1999999-0021REMSYN004BUFR
0098829830999992015011100004-09383-040483FM-12+037299999V0201801N0021122000199002000199+02951+01961101221ADDAA101999999AZ101061AZ201061GF100991999999999999999999MA1999999097121MD1999999+0021REMSYN004BUFR
0149829830999992015011112004-09383-040483FM-12+037299999V0201401N0041100800199010000199+02691+02061101511ADDAA101999999AZ101061AZ201061GA1061+008001081GE19MSL   +99999+99999GF106991061999008001999999KA1120N+02251MA1999999097411MD1999999-0031REMSYN004BUFR
0136829830999992015021618004-09383-040483FM-12+037299999V0201401N0026199999999020000199+03521+01791100851ADDAA101999999AZ101061AZ201061GA1041+008001081GE19MSL   +99999+99999GF106991041999008001999999MA1999999096801MD1999999+0001REMSYN004BUFR
0149829830999992015030212004-09383-040483FM-12+037299999V0201401N0015100800199010000199+02541+02251101401ADDAA124012031AZ101061AZ201061GA1061+008001071GE19MSL   +99999+99999GF106991061999008001999999KA1120N+02251MA1999999097241MD1999999+0051REMSYN004BUFR
0165829830999992015031012004-09383-040483FM-12+037299999V0200901N0036100800199020000199+02891+02201101211ADDAA101999999AZ101061AZ201061GA1051+008001081GA2999+999999021GE19MSL   +99999+99999GF106991051999008001999999KA1120N+02531MA1999999097141MD1999999+0031REMSYN004BUFR
0152829830999992015040918004-09383-040483FM-12+037299999V0200901N0031199999999020000199+03291+02091100961ADDAA101999999AZ101061AZ201061GA1041+008001081GA2999+999999021GE19MSL   +99999+99999GF105991041999008001999999MA1999999096881MD1999999+0121REMSYN004BUFR
0187829830999992015042112004-09383-040483FM-12+037299999V0201801N0026199999999010000199+02321+02151101431ADDAA124006031AY161061AY211061GA1041+008001081GA2999+999999031GA3999+999999001GE19MSL   +99999+99999GF107991041999008001999999KA1120N+02161MA1999999097291MD1999999+0111MW1011REMSYN004BUFR
0171829830999992015060812004-09383-040483FM-12+037299999V0201401N0051100800199002000199+02271+02031101631ADDAA124000231AY151061AY221061GA1051+008001081GA2999+999999031GE19MSL   +99999+99999GF107991051999008001999999KA1120N+02131MA1999999097451MD1999999-0011MW1021REMSYN004BUFR
0149829830999992015062912004-09383-040483FM-12+037299999V0201401N0041100800199010000199+02721+01841101861ADDAA101999999AZ101061AZ201061GA1051+008001081GE19MSL   +99999+99999GF105991051999008001999999KA1120N+02051MA1999999097671MD1999999-0071REMSYN004BUFR
0149829830999992015073012004-09380-040480FM-12+037099999V0201401N0041100600199010000199+02341+01811101871ADDAA101999999AZ101061AZ201061GA1061+006001081GE19MSL   +99999+99999GF106991061999006001999999KA1120N+02041MA1999999097701MD1999999-0051REMSYN004BUFR
0136829830999992015073018004-09380-040480FM-12+037099999V0201401N0036199999999020000199+03021+01511101401ADDAA101999999AZ101061AZ201061GA1011+006001081GE19MSL   +99999+99999GF101991011999006001999999MA1999999097261MD1999999+0031REMSYN004BUFR
0098829830999992015073100004-09380-040480FM-12+037099999V0201401N0031122000199002000199+02541+01861101701ADDAA101999999AZ101061AZ201061GF100991999999999999999999MA1999999097531MD1999999+0051REMSYN004BUFR
0149829830999992015073112004-09380-040480FM-12+037099999V0201401N0041199999999020000199+02371+01681101831ADDAA101999999AZ101061AZ201061GA1021+006001031GE19MSL   +99999+99999GF102991021999006001999999KA1120N+02011MA1999999097651MD1999999-0051REMSYN004BUFR
0152829830999992015073118004-09380-040480FM-12+037099999V0201401N0031199999999020000199+03021+01831101341ADDAA101999999AZ101061AZ201061GA1021+006001081GA2999+999999031GE19MSL   +99999+99999GF106991021999006001999999MA1999999097191MD1999999-0071REMSYN004BUFR
0136829830999992015080100004-09380-040480FM-12+037099999V0201401N0031199999999002000199+02571+01691101651ADDAA101999999AZ101061AZ201061GA1021+006001031GE19MSL   +99999+99999GF102991021999006001999999MA1999999097491MD1999999-0041REMSYN004BUFR
0149829830999992015080112004-09380-040480FM-12+037099999V0201401N0031199999999020000199+02221+01671101871ADDAA101999999AZ101061AZ201061GA1011+006001081GE19MSL   +99999+99999GF101991011999006001999999KA1120N+01871MA1999999097681MD1999999+0031REMSYN004BUFR
0136829830999992015080118004-09380-040480FM-12+037099999V0200901N0031199999999020000199+03051+01701101281ADDAA101999999AZ101061AZ201061GA1041+006001081GE19MSL   +99999+99999GF104991041999006001999999MA1999999097131MD1999999-0061REMSYN004BUFR
0136829830999992015080200004-09380-040480FM-12+037099999V0201401N0046199999999002000199+02591+01871101501ADDAA101999999AZ101061AZ201061GA1011+006001081GE19MSL   +99999+99999GF101991011999006001999999MA1999999097331MD1999999-0161REMSYN004BUFR
0149829830999992015080212004-09380-040480FM-12+037099999V0201401N0041199999999010000199+02141+01721101831ADDAA101999999AZ101061AZ201061GA1041+006001081GE19MSL   +99999+99999GF107991041999006001999999KA1120N+01971MA1999999097641MD1999999-0041REMSYN004BUFR
0152829830999992015080218004-09380-040480FM-12+037099999V0201401N0026199999999020000199+02971+01621101311ADDAA101999999AZ101061AZ201061GA1021+006001081GA2999+999999001GE19MSL   +99999+99999GF103991021999006001999999MA1999999097161MD1999999+0031REMSYN004BUFR
0098829830999992015080300004-09380-040480FM-12+037099999V0201401N0041122000199002000199+02471+01781101581ADDAA101999999AZ101061AZ201061GF100991999999999999999999MA1999999097391MD1999999+0061REMSYN004BUFR
0149829830999992015080312004-09380-040480FM-12+037099999V0201401N0031100600199010000199+02321+01721101911ADDAA101999999AZ101061AZ201061GA1061+006001081GE19MSL   +99999+99999GF106991061999006001999999KA1120N+01891MA1999999097721MD1999999+0081REMSYN004BUFR
0136829830999992015080318004-09380-040480FM-12+037099999V0201401N0026199999999020000199+02941+01761101431ADDAA101999999AZ101061AZ201061GA1031+006001081GE19MSL   +99999+99999GF103991031999006001999999MA1999999097271MD1999999+0111REMSYN004BUFR
0098829830999992015080400004-09380-040480FM-12+037099999V0201401N0051122000199002000199+02471+01801101661ADDAA101999999AZ101061AZ201061GF100991999999999999999999MA1999999097481MD1999999+0091REMSYN004BUFR
0149829830999992015080412004-09380-040480FM-12+037099999V0200901N0046199999999020000199+02291+01681101911ADDAA101999999AZ101061AZ201061GA1031+006001081GE19MSL   +99999+99999GF103991031999006001999999KA1120N+01911MA1999999097721MD1999999+0001REMSYN004BUFR
0098829830999992015080418004-09380-040480FM-12+037099999V0201401N0046122000199020000199+03051+01581101421ADDAA101999999AZ101061AZ201061GF100991999999999999999999MA1999999097271MD1999999+0001REMSYN004BUFR
0098829830999992015080500004-09380-040480FM-12+037099999V0201801N0031122000199002000199+02541+01631101651ADDAA101999999AZ101061AZ201061GF100991999999999999999999MA1999999097471MD1999999-0011REMSYN004BUFR
0149829830999992015080512004-09380-040480FM-12+037099999V0201401N0031199999999010000199+02351+01761101911ADDAA101999999AZ101061AZ201061GA1041+006001081GE19MSL   +99999+99999GF104991041999006001999999KA1120N+01951MA1999999097731MD1999999+0011REMSYN004BUFR
0098829830999992015080518004-09380-040480FM-12+037099999V0201401N0031122000199010000199+03071+01521101351ADDAA101999999AZ101061AZ201061GF100991999999999999999999MA1999999097211MD1999999-0061REMSYN004BUFR
0098829830999992015080600004-09380-040480FM-12+037099999V0201401N0015122000199002000199+02691+01661101551ADDAA101999999AZ101061AZ201061GF100991999999999999999999MA1999999097401MD1999999-0071REMSYN004BUFR
0181829830999992015080612004-09380-040480FM-12+037099999V0201401N0031100600199010000199+02451+01971101761ADDAA101999999AZ101061AZ201061GA1071+006001061GA2999+999999101GA3999+999999101GE19MSL   +99999+99999GF107991071999006001999999KA1120N+02211MA1999999097611MD1999999-0121REMSYN004BUFR
0136829830999992015080618004-09380-040480FM-12+037099999V0201801N0031100600199020000199+03071+01921101251ADDAA101999999AZ101061AZ201061GA1051+006001081GE19MSL   +99999+99999GF105991051999006001999999MA1999999097121MD1999999-0091REMSYN004BUFR
0098829830999992015080700004-09380-040480FM-12+037099999V0201401N0036122000199002000199+02351+01891101561ADDAA101999999AZ101061AZ201061GF100991999999999999999999MA1999999097381MD1999999-0021REMSYN004BUFR
0149829830999992015080712004-09380-040480FM-12+037099999V0201401N0031199999999020000199+02351+01641101761ADDAA101999999AZ101061AZ201061GA1041+006001031GE19MSL   +99999+99999GF104991041999006001999999KA1120N+02101MA1999999097571MD1999999-0041REMSYN004BUFR
0136829830999992015080718004-09380-040480FM-12+037099999V0200901N0031199999999020000199+03121+01521101181ADDAA101999999AZ101061AZ201061GA1011+006001081GE19MSL   +99999+99999GF101991011999006001999999MA1999999097061MD1999999-0061REMSYN004BUFR
0098829830999992015080800004-09380-040480FM-12+037099999V0201401N0026122000199002000199+02551+01671101541ADDAA101999999AZ101061AZ201061GF100991999999999999999999MA1999999097371MD1999999-0011REMSYN004BUFR
0149829830999992015080812004-09380-040480FM-12+037099999V0201401N0041199999999020000199+02321+01551101741ADDAA101999999AZ101061AZ201061GA1999+006001001GE19MSL   +99999+99999GF104991999999006001999999KA1120N+01921MA1999999097561MD1999999-0011REMSYN004BUFR
0136829830999992015080818004-09380-040480FM-12+037099999V0201401N0031199999999020000199+02971+01551101271ADDAA101999999AZ101061AZ201061GA1999+006001001GE19MSL   +99999+99999GF105991999999006001999999MA1999999097121MD1999999+0061REMSYN004BUFR
0098829830999992015080900004-09380-040480FM-12+037099999V0201801N0031122000199002000199+02491+01451101541ADDAA101999999AZ101061AZ201061GF100991999999999999999999MA1999999097361MD1999999-0011REMSYN004BUFR
0181829830999992015080912004-09380-040480FM-12+037099999V0201401N0026100600199002000199+02151+01681101811ADDAA101999999AZ101061AZ201061GA1071+006001081GA2999+999999101GA3999+999999101GE19MSL   +99999+99999GF107991071999006001999999KA1120N+01991MA1999999097621MD1999999+0061REMSYN004BUFR
0136829830999992015080918004-09380-040480FM-12+037099999V0201401N0031199999999020000199+02891+01621101311ADDAA101999999AZ101061AZ201061GA1031+006001081GE19MSL   +99999+99999GF103991031999006001999999MA1999999097151MD1999999+0031REMSYN004BUFR
0098829830999992015081000004-09380-040480FM-12+037099999V0201801N0051122000199002000199+02321+01791101681ADDAA101999999AZ101061AZ201061GF100991999999999999999999MA1999999097471MD1999999+0111REMSYN004BUFR
0149829830999992015081012004-09380-040480FM-12+037099999V0201401N0026100600199010000199+02351+01781101951ADDAA101999999AZ101061AZ201061GA1051+006001081GE19MSL   +99999+99999GF105991051999006001999999KA1120N+01971MA1999999097751MD1999999+0131REMSYN004BUFR
0152829830999992015081018004-09380-040480FM-12+037099999V0201401N0041100600199010000199+02841+01881101501ADDAA101999999AZ101061AZ201061GA1051+006001081GA2999+999999031GE19MSL   +99999+99999GF106991051999006001999999MA1999999097331MD1999999+0181REMSYN004BUFR
0136829830999992015081100004-09380-040480FM-12+037099999V0201401N0031100600199002000199+02221+01901101811ADDAA101999999AZ101061AZ201061GA1061+006001081GE19MSL   +99999+99999GF106991061999006001999999MA1999999097611MD1999999+0141REMSYN004BUFR
0149829830999992015081112004-09380-040480FM-12+037099999V0201401N0046199999999020000199+02341+01601101981ADDAA101999999AZ101061AZ201061GA1041+006001081GE19MSL   +99999+99999GF107991041999006001999999KA1120N+02071MA1999999097771MD1999999+0021REMSYN004BUFR
0136829830999992015081118004-09380-040480FM-12+037099999V0201401N0041100600199020000199+02691+01721101581ADDAA101999999AZ101061AZ201061GA1061+006001061GE19MSL   +99999+99999GF106991061999006001999999MA1999999097291MD1999999+0061REMSYN004BUFR
0098829830999992015081200004-09380-040480FM-12+037099999V0201401N0036122000199002000199+02241+01671101851ADDAA101999999AZ101061AZ201061GF100991999999999999999999MA1999999097651MD1999999+0041REMSYN004BUFR
0149829830999992015081212004-09383-040483FM-12+037299999V0201401N0041100600199010000199+02321+01651101961ADDAA101999999AZ101061AZ201061GA1061+006001081GE19MSL   +99999+99999GF106991061999006001999999KA1120N+01811MA1999999097751MD1999999-0021REMSYN004BUFR
0136829830999992015081218004-09383-040483FM-12+037299999V0201401N0051100600199020000199+02691+01631101451ADDAA101999999AZ101061AZ201061GA1061+006001081GE19MSL   +99999+99999GF106991061999006001999999MA1999999097271MD1999999-0121REMSYN004BUFR
0152829830999992015081300004-09383-040483FM-12+037299999V0201401N0031199999999002000199+02251+01751101751ADDAA101999999AZ101061AZ201061GA1031+006001081GA2999+999999031GE19MSL   +99999+99999GF104991031999006001999999MA1999999097551MD1999999-0101REMSYN004BUFR
0181829830999992015081312004-09383-040483FM-12+037299999V0201401N0041199999999010000199+02151+01591102041ADDAA101999999AZ101061AZ201061GA1041+006001081GA2999+999999051GA3999+999999101GE19MSL   +99999+99999GF108991041999006001999999KA1120N+01821MA1999999097811MD1999999+0061REMSYN004BUFR
0136829830999992015081318004-09383-040483FM-12+037299999V0201801N0036199999999020000199+02891+01401101491ADDAA101999999AZ101061AZ201061GA1011+006001081GE19MSL   +99999+99999GF101991011999006001999999MA1999999097321MD1999999+0051REMSYN004BUFR
0098829830999992015081400004-09383-040483FM-12+037299999V0201401N0026122000199002000199+02451+01551101731ADDAA101999999AZ101061AZ201061GF100991999999999999999999MA1999999097531MD1999999-0021REMSYN004BUFR
0181829830999992015081412004-09383-040483FM-12+037299999V0201401N0031100600199002000199+02251+01821101941ADDAA101999999AZ101061AZ201061GA1081+006001081GA2999+999999101GA3999+999999101GE19MSL   +99999+99999GF108991081999006001999999KA1120N+02051MA1999999097741MD1999999-0071REMSYN004BUFR
0136829830999992015081418004-09383-040483FM-12+037299999V0201401N0041100600199010000199+02921+01711101391ADDAA101999999AZ101061AZ201061GA1051+006001081GE19MSL   +99999+99999GF105991051999006001999999MA1999999097241MD1999999-0081REMSYN004BUFR
0098829830999992015081500004-09383-040483FM-12+037299999V0201401N0041122000199002000199+02621+01781101601ADDAA101999999AZ101061AZ201061GF100991999999999999999999MA1999999097431MD1999999-0101REMSYN004BUFR
0149829830999992015081512004-09383-040483FM-12+037299999V0201401N0031100600199020000199+02471+01921101851ADDAA101999999AZ101061AZ201061GA1061+006001081GE19MSL   +99999+99999GF106991061999006001999999KA1120N+02181MA1999999097691MD1999999-0051REMSYN004BUFR
0136829830999992015081518004-09383-040483FM-12+037299999V0201401N0031199999999020000199+03121+01821101411ADDAA101999999AZ101061AZ201061GA1041+006001081GE19MSL   +99999+99999GF104991041999006001999999MA1999999097281MD1999999+0041REMSYN004BUFR
0149829830999992015081612004-09383-040483FM-12+037299999V0201401N0031100600199010000199+02341+01671101921ADDAA101999999AZ101061AZ201061GA1051+006001081GE19MSL   +99999+99999GF105991051999006001999999KA1120N+02171MA1999999097031MD1999999+0041REMSYN004BUFR
0136829830999992015081618004-09383-040483FM-12+037299999V0201401N0051199999999020000199+03041+01491101411ADDAA101999999AZ101061AZ201061GA1041+006001081GE19MSL   +99999+99999GF104991041999006001999999MA1999999097271MD1999999-0011REMSYN004BUFR
0098829830999992015081700004-09383-040483FM-12+037299999V0201401N0015122000199002000199+02541+01731101641ADDAA101999999AZ101061AZ201061GF100991999999999999999999MA1999999097771MD1999999-0071REMSYN004BUFR
0149829830999992015081712004-09383-040483FM-12+037299999V0201401N0031100600199010000199+02371+01681101911ADDAA101999999AZ101061AZ201061GA1051+006001081GE19MSL   +99999+99999GF105991051999006001999999KA1120N+02001MA1999999097731MD1999999+0001REMSYN004BUFR
0136829830999992015081718004-09383-040483FM-12+037299999V0201401N0031100600199010000199+02891+01781101411ADDAA101999999AZ101061AZ201061GA1061+006001081GE19MSL   +99999+99999GF106991061999006001999999MA1999999097261MD1999999-0011REMSYN004BUFR
0098829830999992015081800004-09383-040483FM-12+037299999V0201401N0026122000199002000199+02591+01651101511ADDAA101999999AZ101061AZ201061GF100991999999999999999999MA1999999097351MD1999999-0121REMSYN004BUFR
0155829830999992015081812004-09383-040483FM-12+037299999V0200901N0046100600199020000199+02351+01761101861ADDAA124000131AY151061AY211061GA1051+006001081GE19MSL   +99999+99999GF105991051999006001999999KA1120N+02011MA1999999097691MD1999999-0041MW1011REMSYN004BUFR
0136829830999992015081818004-09383-040483FM-12+037299999V0200901N0041199999999020000199+03141+01451101261ADDAA101999999AZ101061AZ201061GA1011+006001081GE19MSL   +99999+99999GF101991011999006001999999MA1999999097141MD1999999-0121REMSYN004BUFR
0098829830999992015081900004-09383-040483FM-12+037299999V0201401N0031122000199002000199+02651+01851101451ADDAA101999999AZ101061AZ201061GF100991999999999999999999MA1999999097301MD1999999-0051REMSYN004BUFR
0149829830999992015081912004-09383-040483FM-12+037299999V0201401N0026100600199010000199+02271+01941101691ADDAA101999999AZ101061AZ201061GA1061+006001081GE19MSL   +99999+99999GF106991061999006001999999KA1120N+02111MA1999999097521MD1999999-0171REMSYN004BUFR
0136829830999992015081918004-09383-040483FM-12+037299999V0201401N0031199999999020000199+03021+01991101131ADDAA101999999AZ101061AZ201061GA1041+006001081GE19MSL   +99999+99999GF104991041999006001999999MA1999999097011MD1999999-0131REMSYN004BUFR
0098829830999992015082000004-09383-040483FM-12+037299999V0201401N0031122000199002000199+02441+01901101471ADDAA101999999AZ101061AZ201061GF100991999999999999999999MA1999999097291MD1999999-0011REMSYN004BUFR
0165829830999992015082012004-09383-040483FM-12+037299999V0201401N0036199999999020000199+02371+01841101661ADDAA101999999AZ101061AZ201061GA1031+006001081GA2999+999999001GE19MSL   +99999+99999GF105991031999006001999999KA1120N+02051MA1999999097781MD1999999-0041REMSYN004BUFR
0136829830999992015082018004-09383-040483FM-12+037299999V0201401N0021199999999020000199+03191+01591101061ADDAA101999999AZ101061AZ201061GA1999+006001021GE19MSL   +99999+99999GF102991999999006001999999MA1999999096951MD1999999-0061REMSYN004BUFR
0098829830999992015082100004-09383-040483FM-12+037299999V0201401N0021122000199002000199+02821+01861101281ADDAA101999999AZ101061AZ201061GF100991999999999999999999MA1999999097151MD1999999-0141REMSYN004BUFR
0165829830999992015082112004-09383-040483FM-12+037299999V0200901N0031199999999020000199+02441+01971101631ADDAA101999999AZ101061AZ201061GA1011+006001081GA2999+999999021GE19MSL   +99999+99999GF102991011999006001999999KA1120N+02031MA1999999097491MD1999999+0011REMSYN004BUFR
0136829830999992015082118004-09383-040483FM-12+037299999V0201401N0015199999999020000199+03451+01451101021ADDAA101999999AZ101061AZ201061GA1021+006001081GE19MSL   +99999+99999GF102991021999006001999999MA1999999096941MD1999999-0011REMSYN004BUFR
0098829830999992015082200004-09383-040483FM-12+037299999V0200901N0051122000199002000199+02841+01601101291ADDAA101999999AZ101061AZ201061GF100991999999999999999999MA1999999097171MD1999999+0021REMSYN004BUFR
0149829830999992015082212004-09383-040483FM-12+037299999V0201401N0041100600199020000199+02441+01691101551ADDAA101999999AZ101061AZ201061GA1051+006001081GE19MSL   +99999+99999GF105991051999006001999999KA1120N+02171MA1999999097421MD1999999-0071REMSYN004BUFR
0136829830999992015082218004-09383-040483FM-12+037299999V0200901N0031199999999020000199+03291+01801100971ADDAA101999999AZ101061AZ201061GA1011+006001081GE19MSL   +99999+99999GF101991011999006001999999MA1999999096811MD1999999-0131REMSYN004BUFR
0098829830999992015082300004-09383-040483FM-12+037299999V0201401N0036122000199002000199+02751+01751101261ADDAA101999999AZ101061AZ201061GF100991999999999999999999MA1999999097131MD1999999-0041REMSYN004BUFR
0181829830999992015082312004-09383-040483FM-12+037299999V0201401N0046100600199010000199+02451+01731101501ADDAA101999999AZ101061AZ201061GA1081+006001071GA2999+999999101GA3999+999999101GE19MSL   +99999+99999GF108991081999006001999999KA1120N+02191MA1999999097361MD1999999-0061REMSYN004BUFR
0136829830999992015082318004-09383-040483FM-12+037299999V0201401N0041199999999020000199+03191+01821100951ADDAA101999999AZ101061AZ201061GA1021+006001081GE19MSL   +99999+99999GF102991021999006001999999MA1999999096851MD1999999+0041REMSYN004BUFR
0098829830999992015082400004-09383-040483FM-12+037299999V0201401N0026122000199002000199+02741+01761101291ADDAA101999999AZ101061AZ201061GF100991999999999999999999MA1999999097161MD1999999+0031REMSYN004BUFR
0149829830999992015082412004-09383-040483FM-12+037299999V0201401N0015199999999020000199+02441+01691101531ADDAA101999999AZ101061AZ201061GA1011+006001081GE19MSL   +99999+99999GF101991011999006001999999KA1120N+02061MA1999999097391MD1999999+0031REMSYN004BUFR
0136829830999992015082418004-09383-040483FM-12+037299999V0201401N0031199999999020000199+03321+01521100941ADDAA101999999AZ101061AZ201061GA1021+006001081GE19MSL   +99999+99999GF102991021999006001999999MA1999999096851MD1999999+0001REMSYN004BUFR
0098829830999992015082500004-09383-040483FM-12+037299999V0201401N0015122000199002000199+02841+01731101211ADDAA101999999AZ101061AZ201061GF100991999999999999999999MA1999999097091MD1999999-0071REMSYN004BUFR
0149829830999992015082512004-09383-040483FM-12+037299999V0200901N0046199999999020000199+02391+01971101631ADDAA101999999AZ101061AZ201061GA1011+006001081GE19MSL   +99999+99999GF101991011999006001999999KA1120N+02091MA1999999097481MD1999999+0091REMSYN004BUFR
0098829830999992015082518004-09383-040483FM-12+037299999V0200901N0026122000199020000199+03141+01751101041ADDAA101999999AZ101061AZ201061GF100991999999999999999999MA1999999096941MD1999999+0091REMSYN004BUFR
0098829830999992015082600004-09383-040483FM-12+037299999V0201801N0026122000199002000199+02871+01621101261ADDAA101999999AZ101061AZ201061GF100991999999999999999999MA1999999097141MD1999999+0091REMSYN004BUFR
0165829830999992015082612004-09383-040483FM-12+037299999V0201401N0031199999999010000199+02641+01901101601ADDAA101999999AZ101061AZ201061GA1041+006001081GA2999+999999031GE19MSL   +99999+99999GF105991041999006001999999KA1120N+02321MA1999999097481MD1999999+0001REMSYN004BUFR
0136829830999992015082618004-09383-040483FM-12+037299999V0201401N0015100600199020000199+03341+01951101051ADDAA101999999AZ101061AZ201061GA1051+006001081GE19MSL   +99999+99999GF105991051999006001999999MA1999999096971MD1999999+0031REMSYN004BUFR
0098829830999992015082700004-09383-040483FM-12+037299999V0201401N0015122000199002000199+03021+01991101261ADDAA101999999AZ101061AZ201061GF100991999999999999999999MA1999999097171MD1999999+0031REMSYN004BUFR
0149829830999992015082712004-09383-040483FM-12+037299999V0200901N0031100600199020000199+02691+02031101491ADDAA101999999AZ101061AZ201061GA1051+006001081GE19MSL   +99999+99999GF105991051999006001999999KA1120N+02391MA1999999097391MD1999999-0091REMSYN004BUFR
0136829830999992015082718004-09383-040483FM-12+037299999V0201401N0031199999999020000199+03191+01891100981ADDAA101999999AZ101061AZ201061GA1021+006001081GE19MSL   +99999+99999GF102991021999006001999999MA1999999096901MD1999999-0071REMSYN004BUFR
0098829830999992015082800004-09383-040483FM-12+037299999V0201401N0021122000199002000199+02851+01811101311ADDAA101999999AZ101061AZ201061GF100991999999999999999999MA1999999097211MD1999999+0041REMSYN004BUFR
0111829830999992015082812004-09383-040483FM-12+037299999V0201401N0031122000199020000199+02551+01831101601ADDAA101999999AZ101061AZ201061GF100991999999999999999999KA1120N+02171MA1999999097471MD1999999+0081REMSYN004BUFR
0152829830999992015082818004-09383-040483FM-12+037299999V0201401N0026199999999020000199+03291+01801101021ADDAA101999999AZ101061AZ201061GA1011+006001081GA2999+999999031GE19MSL   +99999+99999GF102991011999006001999999MA1999999096941MD1999999+0041REMSYN004BUFR
0098829830999992015082900004-09383-040483FM-12+037299999V0201401N0031122000199002000199+02871+01771101361ADDAA101999999AZ101061AZ201061GF100991999999999999999999MA1999999097251MD1999999+0041REMSYN004BUFR
0149829830999992015082912004-09383-040483FM-12+037299999V0201401N0031199999999010000199+02371+01731101831ADDAA101999999AZ101061AZ201061GA1031+006001081GE19MSL   +99999+99999GF103991031999006001999999KA1120N+02051MA1999999097691MD1999999+0221REMSYN004BUFR
0136829830999992015082918004-09383-040483FM-12+037299999V0200901N0031199999999020000199+03251+01601101221ADDAA101999999AZ101061AZ201061GA1011+006001081GE19MSL   +99999+99999GF101991011999006001999999MA1999999097111MD1999999+0171REMSYN004BUFR
0098829830999992015083000004-09383-040483FM-12+037299999V0201401N0031122000199002000199+02871+01701101541ADDAA101999999AZ101061AZ201061GF100991999999999999999999MA1999999097411MD1999999+0161REMSYN004BUFR
0181829830999992015083012004-09383-040483FM-12+037299999V0200901N0041100600199010000199+02391+01801101831ADDAA101999999AZ101061AZ201061GA1081+006001061GA2999+999999101GA3999+999999101GE19MSL   +99999+99999GF108991081999006001999999KA1120N+02201MA1999999097691MD1999999+0001REMSYN004BUFR
0152829830999992015083018004-09383-040483FM-12+037299999V0201401N0031199999999010000199+03151+01671101361ADDAA101999999AZ101061AZ201061GA1041+006001081GA2999+999999031GE19MSL   +99999+99999GF105991041999006001999999MA1999999097251MD1999999+0141REMSYN004BUFR
0098829830999992015083100004-09383-040483FM-12+037299999V0201401N0031122000199002000199+02771+01581101621ADDAA101999999AZ101061AZ201061GF100991999999999999999999MA1999999097471MD1999999+0061REMSYN004BUFR
0165829830999992015083112004-09383-040483FM-12+037299999V0201401N0031199999999010000199+02241+01601101771ADDAA101999999AZ101061AZ201061GA1021+006001081GA2999+999999001GE19MSL   +99999+99999GF105991021999006001999999KA1120N+02011MA1999999097601MD1999999-0091REMSYN004BUFR
0152829830999992015083118004-09383-040483FM-12+037299999V0201401N0051199999999010000199+03141+01691101251ADDAA101999999AZ101061AZ201061GA1021+006001081GA2999+999999001GE19MSL   +99999+99999GF106991021999006001999999MA1999999097141MD1999999-0131REMSYN004BUFR
0136829830999992015090100004-09383-040483FM-12+037299999V0201401N0031199999999002000199+02641+01851101571ADDAA101999999AZ101061AZ201061GA1999+006001001GE19MSL   +99999+99999GF104991999999006001999999MA1999999097401MD1999999-0071REMSYN004BUFR
0165829830999992015090112004-09383-040483FM-12+037299999V0201401N0041199999999020000199+02541+01811101691ADDAA101999999AZ101061AZ201061GA1011+006001081GA2999+999999001GE19MSL   +99999+99999GF104991011999006001999999KA1120N+02071MA1999999097541MD1999999-0061REMSYN004BUFR
0168829830999992015090118004-09383-040483FM-12+037299999V0200901N0026199999999010000199+03171+01871101181ADDAA101999999AZ101061AZ201061GA1011+006001081GA2999+999999041GA3999+999999001GE19MSL   +99999+99999GF106991011999006001999999MA1999999097061MD1999999-0061REMSYN004BUFR
0098829830999992015090200004-09383-040483FM-12+037299999V0201401N0026122000199002000199+02791+01841101371ADDAA101999999AZ101061AZ201061GF100991999999999999999999MA1999999097251MD1999999-0151REMSYN004BUFR
0111829830999992015090212004-09383-040483FM-12+037299999V0201401N0026122000199020000199+02351+01901101661ADDAA101999999AZ101061AZ201061GF100991999999999999999999KA1120N+02031MA1999999097511MD1999999-0031REMSYN004BUFR
0098829830999992015090218004-09383-040483FM-12+037299999V0201401N0026122000199020000199+03421+01561101021ADDAA101999999AZ101061AZ201061GF100991999999999999999999MA1999999096931MD1999999-0131REMSYN004BUFR
0098829830999992015090300004-09383-040483FM-12+037299999V0201401N0015122000199002000199+02851+01551101351ADDAA101999999AZ101061AZ201061GF100991999999999999999999MA1999999097221MD1999999-0031REMSYN004BUFR
0149829830999992015090312004-09383-040483FM-12+037299999V0200901N0051100600199020000199+02471+01751101671ADDAA101999999AZ101061AZ201061GA1051+006001081GE19MSL   +99999+99999GF105991051999006001999999KA1120N+02141MA1999999097531MD1999999+0021REMSYN004BUFR
0098829830999992015090318004-09383-040483FM-12+037299999V0200901N0021122000199020000199+03221+01801101141ADDAA101999999AZ101061AZ201061GF100991999999999999999999MA1999999097031MD1999999+0101REMSYN004BUFR
0098829830999992015090400004-09383-040483FM-12+037299999V0201401N0021122000199002000199+02871+01941101331ADDAA101999999AZ101061AZ201061GF100991999999999999999999MA1999999097221MD1999999+0001REMSYN004BUFR
0111829830999992015090412004-09383-040483FM-12+037299999V0201401N0031122000199020000199+02491+01801101711ADDAA101999999AZ101061AZ201061GF100991999999999999999999KA1120N+02131MA1999999097581MD1999999+0051REMSYN004BUFR
0136829830999992015090418004-09383-040483FM-12+037299999V0201401N0031199999999020000199+03371+01571101101ADDAA101999999AZ101061AZ201061GA1011+006001081GE19MSL   +99999+99999GF101991011999006001999999MA1999999097011MD1999999-0021REMSYN004BUFR
0136829830999992015090500004-09383-040483FM-12+037299999V0201401N0015100600199002000199+02951+01871101321ADDAA101999999AZ101061AZ201061GA1051+006001061GE19MSL   +99999+99999GF105991051999006001999999MA1999999097211MD1999999-0011REMSYN004BUFR
0149829830999992015090512004-09383-040483FM-12+037299999V0201401N0031199999999020000199+02491+01941101581ADDAA101999999AZ101061AZ201061GA1999+006001001GE19MSL   +99999+99999GF104991999999006001999999KA1120N+02281MA1999999097461MD1999999-0121REMSYN004BUFR
0136829830999992015090518004-09383-040483FM-12+037299999V0201401N0031199999999020000199+03591+01671100951ADDAA101999999AZ101061AZ201061GA1999+006001001GE19MSL   +99999+99999GF103991999999006001999999MA1999999096911MD1999999-0101REMSYN004BUFR
0098829830999992015090600004-09383-040483FM-12+037299999V0201401N0026122000199002000199+03091+01371101171ADDAA101999999AZ101061AZ201061GF100991999999999999999999MA1999999097081MD1999999-0131REMSYN004BUFR
0111829830999992015090612004-09383-040483FM-12+037299999V0200901N0041122000199020000199+02571+01851101571ADDAA101999999AZ101061AZ201061GF100991999999999999999999KA1120N+02231MA1999999097471MD1999999+0011REMSYN004BUFR
0098829830999992015090618004-09383-040483FM-12+037299999V0201401N0031122000199020000199+03491+01581100951ADDAA101999999AZ101061AZ201061GF100991999999999999999999MA1999999096891MD1999999-0021REMSYN004BUFR
0098829830999992015090700004-09383-040483FM-12+037299999V0200901N0041122000199002000199+03071+01421101261ADDAA101999999AZ101061AZ201061GF100991999999999999999999MA1999999097171MD1999999+0091REMSYN004BUFR
0149829830999992015090712004-09383-040483FM-12+037299999V0201401N0031199999999020000199+02521+01841101581ADDAA101999999AZ101061AZ201061GA1011+006001081GE19MSL   +99999+99999GF101991011999006001999999KA1120N+02131MA1999999097471MD1999999+0001REMSYN004BUFR
0136829830999992015090718004-09383-040483FM-12+037299999V0201401N0031199999999020000199+03371+01621100941ADDAA101999999AZ101061AZ201061GA1999+006001021GE19MSL   +99999+99999GF102991999999006001999999MA1999999096861MD1999999-0031REMSYN004BUFR
0098829830999992015090800004-09383-040483FM-12+037299999V0201401N0031122000199002000199+02951+01641101181ADDAA101999999AZ101061AZ201061GF100991999999999999999999MA1999999097081MD1999999-0091REMSYN004BUFR
0111829830999992015090812004-09383-040483FM-12+037299999V0200901N0051122000199020000199+02591+01711101511ADDAA101999999AZ101061AZ201061GF100991999999999999999999KA1120N+02151MA1999999097401MD1999999-0071REMSYN004BUFR
0098829830999992015090818004-09383-040483FM-12+037299999V0200901N0026122000199020000199+03391+01851100881ADDAA101999999AZ101061AZ201061GF100991999999999999999999MA1999999096801MD1999999-0061REMSYN004BUFR
0098829830999992015090900004-09383-040483FM-12+037299999V0200901N0026122000199002000199+02921+01711101111ADDAA101999999AZ101061AZ201061GF100991999999999999999999MA1999999097011MD1999999-0071REMSYN004BUFR
0149829830999992015090912004-09383-040483FM-12+037299999V0201401N0031199999999020000199+02541+01861101521ADDAA101999999AZ101061AZ201061GA1011+006001081GE19MSL   +99999+99999GF101991011999006001999999KA1120N+02221MA1999999097411MD1999999-0011REMSYN004BUFR
0136829830999992015090918004-09383-040483FM-12+037299999V0201401N0036199999999020000199+03341+01871100941ADDAA101999999AZ101061AZ201061GA1041+006001081GE19MSL   +99999+99999GF104991041999006001999999MA1999999096861MD1999999+0061REMSYN004BUFR
0136829830999992015091000004-09383-040483FM-12+037299999V0201401N0041199999999002000199+03041+01781101171ADDAA101999999AZ101061AZ201061GA1021+006001081GE19MSL   +99999+99999GF102991021999006001999999MA1999999097081MD1999999+0071REMSYN004BUFR
0149829830999992015091012004-09383-040483FM-12+037299999V0200901N0046199999999020000199+02491+01801101541ADDAA101999999AZ101061AZ201061GA1011+006001081GE19MSL   +99999+99999GF101991011999006001999999KA1120N+02251MA1999999097431MD1999999+0021REMSYN004BUFR
0155829830999992015091018004-09383-040483FM-12+037299999V0201401N0031199999999020000199+03321+01611999999ADDAA101999999AZ101061AZ201061GA1021+006001081GE19MSL   +99999+99999GF102991021999006001999999MA1999999096881MD1999999+0021REMSYN004BUFREQDQ011028  3APOSLP
0098829830999992015091100004-09383-040483FM-12+037299999V0200901N0031122000199002000199+02941+01661101171ADDAA101999999AZ101061AZ201061GF100991999999999999999999MA1999999097061MD1999999-0021REMSYN004BUFR
0149829830999992015091112004-09383-040483FM-12+037299999V0201401N0031199999999020000199+02571+01801101541ADDAA101999999AZ101061AZ201061GA1021+006001081GE19MSL   +99999+99999GF102991021999006001999999KA1120N+02171MA1999999097431MD1999999+0001REMSYN004BUFR
0136829830999992015091118004-09383-040483FM-12+037299999V0201401N0010199999999020000199+03321+01891100881ADDAA101999999AZ101061AZ201061GA1011+006001081GE19MSL   +99999+99999GF101991011999006001999999MA1999999096791MD1999999-0091REMSYN004BUFR
0098829830999992015091200004-09383-040483FM-12+037299999V0203601N0000122000199002000199+02821+02051101201ADDAA101999999AZ101061AZ201061GF100991999999999999999999MA1999999097091MD1999999+0031REMSYN004BUFR
0111829830999992015091212004-09383-040483FM-12+037299999V0200901N0031122000199020000199+02541+01911101561ADDAA101999999AZ101061AZ201061GF100991999999999999999999KA1120N+02211MA1999999097441MD1999999+0011REMSYN004BUFR
0098829830999992015091218004-09383-040483FM-12+037299999V0201401N0026122000199020000199+03521+01701100911ADDAA101999999AZ101061AZ201061GF100991999999999999999999MA1999999096851MD1999999+0061REMSYN004BUFR
0098829830999992015091300004-09383-040483FM-12+037299999V0201801N0026122000199002000199+03071+01711101221ADDAA101999999AZ101061AZ201061GF100991999999999999999999MA1999999097131MD1999999+0041REMSYN004BUFR
0149829830999992015091312004-09383-040483FM-12+037299999V0200901N0041100600199020000199+02571+01921101591ADDAA101999999AZ101061AZ201061GA1071+006001061GE19MSL   +99999+99999GF107991071999006001999999KA1120N+02321MA1999999097491MD1999999+0051REMSYN004BUFR
0098829830999992015091318004-09383-040483FM-12+037299999V0200901N0051122000199020000199+03451+01551100991ADDAA101999999AZ101061AZ201061GF100991999999999999999999MA1999999096921MD1999999+0071REMSYN004BUFR
0098829830999992015091400004-09383-040483FM-12+037299999V0201401N0021122000199002000199+02971+01891101281ADDAA101999999AZ101061AZ201061GF100991999999999999999999MA1999999097181MD1999999+0051REMSYN004BUFR
0181829830999992015091412004-09383-040483FM-12+037299999V0201401N0031100600199010000199+02441+01861101781ADDAA101999999AZ101061AZ201061GA1061+006001081GA2999+999999101GA3999+999999101GE19MSL   +99999+99999GF106991061999006001999999KA1120N+02201MA1999999097651MD1999999+0161REMSYN004BUFR
0136829830999992015091418004-09383-040483FM-12+037299999V0201401N0031199999999020000199+03271+01661101211ADDAA101999999AZ101061AZ201061GA1021+006001081GE19MSL   +99999+99999GF102991021999006001999999MA1999999097111MD1999999+0191REMSYN004BUFR
0098829830999992015091500004-09383-040483FM-12+037299999V0201401N0026122000199002000199+02951+01711101441ADDAA101999999AZ101061AZ201061GF100991999999999999999999MA1999999097321MD1999999+0141REMSYN004BUFR
0181829830999992015091512004-09383-040483FM-12+037299999V0201401N0031100600199010000199+02591+02081101721ADDAA101999999AZ101061AZ201061GA1081+006001061GA2999+999999101GA3999+999999101GE19MSL   +99999+99999GF108991081999006001999999KA1120N+02271MA1999999097611MD1999999-0041REMSYN004BUFR
0152829830999992015091518004-09383-040483FM-12+037299999V0200901N0051199999999020000199+03141+01911101231ADDAA101999999AZ101061AZ201061GA1031+006001081GA2999+999999031GE19MSL   +99999+99999GF104991031999006001999999MA1999999097131MD1999999+0021REMSYN004BUFR
0136829830999992015091600004-09383-040483FM-12+037299999V0200901N0031199999999002000199+02841+01731101461ADDAA101999999AZ101061AZ201061GA1021+006001081GE19MSL   +99999+99999GF102991021999006001999999MA1999999097341MD1999999+0021REMSYN004BUFR
0181829830999992015091612004-09383-040483FM-12+037299999V0201401N0031100600199010000199+02251+01901101811ADDAA101999999AZ101061AZ201061GA1061+006001081GA2999+999999101GA3999+999999101GE19MSL   +99999+99999GF106991061999006001999999KA1120N+02031MA1999999097651MD1999999+0041REMSYN004BUFR
0136829830999992015091618004-09383-040483FM-12+037299999V0201401N0026100600199020000199+03051+01831101201ADDAA101999999AZ101061AZ201061GA1061+006001061GE19MSL   +99999+99999GF106991061999006001999999MA1999999097061MD1999999+0071REMSYN004BUFR
0098829830999992015091700004-09383-040483FM-12+037299999V0200901N0041122000199002000199+02741+01811101451ADDAA101999999AZ101061AZ201061GF100991999999999999999999MA1999999097301MD1999999-0041REMSYN004BUFR
0181829830999992015091712004-09383-040483FM-12+037299999V0201401N0031100600199010000199+02521+01821101691ADDAA101999999AZ101061AZ201061GA1081+006001061GA2999+999999101GA3999+999999101GE19MSL   +99999+99999GF108991081999006001999999KA1120N+02211MA1999999097551MD1999999-0101REMSYN004BUFR
0136829830999992015091718004-09383-040483FM-12+037299999V0200901N0041100600199020000199+03151+01751101151ADDAA101999999AZ101061AZ201061GA1051+006001081GE19MSL   +99999+99999GF105991051999006001999999MA1999999097041MD1999999-0021REMSYN004BUFR
0098829830999992015091800004-09383-040483FM-12+037299999V0201401N0026122000199002000199+02841+01731101321ADDAA101999999AZ101061AZ201061GF100991999999999999999999MA1999999097211MD1999999-0091REMSYN004BUFR
0149829830999992015091812004-09383-040483FM-12+037299999V0201401N0031100600199010000199+02451+01831101691ADDAA101999999AZ101061AZ201061GA1061+006001081GE19MSL   +99999+99999GF106991061999006001999999KA1120N+02151MA1999999097551MD1999999+0001REMSYN004BUFR
0136829830999992015091818004-09383-040483FM-12+037299999V0201401N0015100600199020000199+03041+02111101121ADDAA101999999AZ101061AZ201061GA1051+006001081GE19MSL   +99999+99999GF105991051999006001999999MA1999999097001MD1999999-0041REMSYN004BUFR
0136829830999992015091900004-09383-040483FM-12+037299999V0201401N0026199999999002000199+02571+01991101391ADDAA101999999AZ101061AZ201061GA1021+006001081GE19MSL   +99999+99999GF102991021999006001999999MA1999999097241MD1999999+0031REMSYN004BUFR
0181829830999992015091912004-09383-040483FM-12+037299999V0201401N0026100600199002000199+02491+01821101791ADDAA101999999AZ101061AZ201061GA1071+006001061GA2999+999999101GA3999+999999101GE19MSL   +99999+99999GF107991071999006001999999KA1120N+02251MA1999999097631MD1999999+0081REMSYN004BUFR
0136829830999992015091918004-09383-040483FM-12+037299999V0201401N0031199999999020000199+03191+01861101141ADDAA101999999AZ101061AZ201061GA1031+006001081GE19MSL   +99999+99999GF103991031999006001999999MA1999999097041MD1999999+0041REMSYN004BUFR
0098829830999992015092000004-09383-040483FM-12+037299999V0201801N0031122000199002000199+02851+01871101311ADDAA101999999AZ101061AZ201061GF100991999999999999999999MA1999999097191MD1999999-0051REMSYN004BUFR
0149829830999992015092012004-09383-040483FM-12+037299999V0200901N0031100600199010000199+02621+01881101601ADDAA101999999AZ101061AZ201061GA1061+006001081GE19MSL   +99999+99999GF106991061999006001999999KA1120N+02371MA1999999097481MD1999999-0151REMSYN004BUFR
0136829830999992015092018004-09383-040483FM-12+037299999V0201401N0031199999999020000199+03321+01821101061ADDAA101999999AZ101061AZ201061GA1041+006001081GE19MSL   +99999+99999GF104991041999006001999999MA1999999096981MD1999999-0061REMSYN004BUFR
0098829830999992015092100004-09383-040483FM-12+037299999V0201401N0031122000199002000199+02891+01961101321ADDAA101999999AZ101061AZ201061GF100991999999999999999999MA1999999097211MD1999999+0021REMSYN004BUFR
0149829830999992015092112004-09383-040483FM-12+037299999V0201401N0031199999999010000199+02471+01801101651ADDAA101999999AZ101061AZ201061GA1041+006001081GE19MSL   +99999+99999GF104991041999006001999999KA1120N+02151MA1999999097521MD1999999+0041REMSYN004BUFR
0136829830999992015092118004-09383-040483FM-12+037299999V0200901N0036199999999020000199+03251+01841101011ADDAA101999999AZ101061AZ201061GA1021+006001081GE19MSL   +99999+99999GF102991021999006001999999MA1999999096921MD1999999-0061REMSYN004BUFR
0098829830999992015092200004-09383-040483FM-12+037299999V0200901N0021122000199002000199+02891+01901101251ADDAA101999999AZ101061AZ201061GF100991999999999999999999MA1999999097141MD1999999-0071REMSYN004BUFR
0181829830999992015092212004-09383-040483FM-12+037299999V0201401N0046100600199010000199+02321+01251101661ADDAA101999999AZ101061AZ201061GA1081+006001061GA2999+999999101GA3999+999999101GE19MSL   +99999+99999GF108991081999006001999999KA1120N+02101MA1999999097511MD1999999-0011REMSYN004BUFR
0136829830999992015092218004-09383-040483FM-12+037299999V0201401N0031199999999020000199+03341+01711100981ADDAA101999999AZ101061AZ201061GA1999+006001021GE19MSL   +99999+99999GF102991999999006001999999MA1999999096891MD1999999-0031REMSYN004BUFR
0098829830999992015092300004-09383-040483FM-12+037299999V0201401N0015122000199002000199+02921+01741101281ADDAA101999999AZ101061AZ201061GF100991999999999999999999MA1999999097151MD1999999+0011REMSYN004BUFR
0149829830999992015092312004-09380-040480FM-12+037099999V0201401N0051100600199010000199+02391+01861101611ADDAA101999999AZ101061AZ201061GA1061+006001081GE19MSL   +99999+99999GF106991061999006001999999KA1120N+02181MA1999999097471MD1999999-0041REMSYN004BUFR
0136829830999992015092318004-09380-040480FM-12+037099999V0201401N0041199999999020000199+03441+01961100891ADDAA101999999AZ101061AZ201061GA1021+006001081GE19MSL   +99999+99999GF102991021999006001999999MA1999999096821MD1999999-0071REMSYN004BUFR
0098829830999992015092400004-09380-040480FM-12+037099999V0201401N0015122000199002000199+03051+01801101111ADDAA101999999AZ101061AZ201061GF100991999999999999999999MA1999999097011MD1999999-0141REMSYN004BUFR
0149829830999992015092412004-09380-040480FM-12+037099999V0201401N0031199999999020000199+02521+01891101601ADDAA101999999AZ101061AZ201061GA1041+006001081GE19MSL   +99999+99999GF104991041999006001999999KA1120N+02171MA1999999097491MD1999999+0021REMSYN004BUFR
0098829830999992015092418004-09380-040480FM-12+037099999V0200901N0046122000199020000199+03351+01601100991ADDAA101999999AZ101061AZ201061GF100991999999999999999999MA1999999096911MD1999999+0091REMSYN004BUFR
0098829830999992015092500004-09380-040480FM-12+037099999V0201401N0015122000199002000199+02951+01711101281ADDAA101999999AZ101061AZ201061GF100991999999999999999999MA1999999097171MD1999999+0161REMSYN004BUFR
0149829830999992015092512004-09380-040480FM-12+037099999V0201401N0031199999999020000199+02651+01851101601ADDAA101999999AZ101061AZ201061GA1041+006001081GE19MSL   +99999+99999GF104991041999006001999999KA1120N+02311MA1999999097491MD1999999+0001REMSYN004BUFR
0098829830999992015092518004-09380-040480FM-12+037099999V0201401N0015122000199020000199+03421+01941101031ADDAA101999999AZ101061AZ201061GF100991999999999999999999MA1999999096951MD1999999+0041REMSYN004BUFR
0098829830999992015092600004-09380-040480FM-12+037099999V0201401N0015122000199002000199+03041+01781101201ADDAA101999999AZ101061AZ201061GF100991999999999999999999MA1999999097121MD1999999-0051REMSYN004BUFR
0111829830999992015092612004-09380-040480FM-12+037099999V0200901N0041122000199020000199+02651+02001101421ADDAA101999999AZ101061AZ201061GF100991999999999999999999KA1120N+02251MA1999999097331MD1999999-0161REMSYN004BUFR
0098829830999992015092618004-09380-040480FM-12+037099999V0200901N0026122000199020000199+03541+01851100771ADDAA101999999AZ101061AZ201061GF100991999999999999999999MA1999999096721MD1999999-0231REMSYN004BUFR
0098829830999992015092700004-09380-040480FM-12+037099999V0201401N0026122000199002000199+03141+01581101151ADDAA101999999AZ101061AZ201061GF100991999999999999999999MA1999999097081MD1999999-0041REMSYN004BUFR
0149829830999992015092712004-09380-040480FM-12+037099999V0201401N0031100600199020000199+02591+01941101461ADDAA101999999AZ101061AZ201061GA1071+006001081GE19MSL   +99999+99999GF107991071999006001999999KA1120N+02361MA1999999097361MD1999999+0031REMSYN004BUFR
0136829830999992015092718004-09380-040480FM-12+037099999V0201401N0015199999999020000199+03241+01861100901ADDAA101999999AZ101061AZ201061GA1041+006001081GE19MSL   +99999+99999GF105991041999006001999999MA1999999096821MD1999999+0101REMSYN004BUFR
0136829830999992015092800004-09380-040480FM-12+037099999V0201401N0015199999999002000199+02971+01921101181ADDAA101999999AZ101061AZ201061GA1021+006001081GE19MSL   +99999+99999GF102991021999006001999999MA1999999097091MD1999999+0011REMSYN004BUFR
0149829830999992015092812004-09380-040480FM-12+037099999V0201401N0031199999999020000199+02551+01891101441ADDAA101999999AZ101061AZ201061GA1021+006001081GE19MSL   +99999+99999GF102991021999006001999999KA1120N+02281MA1999999097331MD1999999-0031REMSYN004BUFR
0136829830999992015092818004-09380-040480FM-12+037099999V0200501N0026199999999020000199+03441+01841100791ADDAA101999999AZ101061AZ201061GA1021+006001081GE19MSL   +99999+99999GF103991021999006001999999MA1999999096721MD1999999-0101REMSYN004BUFR
0098829830999992015092900004-09380-040480FM-12+037099999V0201401N0026122000199002000199+03071+01781100991ADDAA101999999AZ101061AZ201061GF100991999999999999999999MA1999999096911MD1999999-0181REMSYN004BUFR
0149829830999992015092912004-09380-040480FM-12+037099999V0201401N0041199999999020000199+02551+01881101371ADDAA101999999AZ101061AZ201061GA1011+006001081GE19MSL   +99999+99999GF101991011999006001999999KA1120N+02221MA1999999097271MD1999999-0061REMSYN004BUFR
0136829830999992015092918004-09380-040480FM-12+037099999V0201401N0031199999999020000199+03471+01751100691ADDAA101999999AZ101061AZ201061GA1011+006001081GE19MSL   +99999+99999GF101991011999006001999999MA1999999096641MD1999999-0081REMSYN004BUFR
0098829830999992015093000004-09380-040480FM-12+037099999V0201401N0021122000199001000199+03041+01711100981ADDAA101999999AZ101061AZ201061GF100991999999999999999999MA1999999096901MD1999999-0011REMSYN004BUFR
0149829830999992015093012004-09380-040480FM-12+037099999V0201401N0051100600199010000199+02541+01761101331ADDAA101999999AZ101061AZ201061GA1061+006001081GE19MSL   +99999+99999GF106991061999006001999999KA1120N+02231MA1999999097231MD1999999-0041REMSYN004BUFR
0152829830999992015093018004-09380-040480FM-12+037099999V0201401N0031100600199010000199+03491+01321100701ADDAA101999999AZ101061AZ201061GA1051+006001081GA2999+999999021GE19MSL   +99999+99999GF106991051999006001999999MA1999999096651MD1999999+0011REMSYN004BUFR
0098829830999992015100100004-09380-040480FM-12+037099999V0201401N0031122000199002000199+03021+01471100821ADDAA101999999AZ101061AZ201061GF100991999999999999999999MA1999999096841MD1999999-0061REMSYN004BUFR
0149829830999992015100112004-09380-040480FM-12+037099999V0200901N0031100600199020000199+02641+02051101351ADDAA101999999AZ101061AZ201061GA1061+006001081GE19MSL   +99999+99999GF106991061999006001999999KA1120N+02341MA1999999097261MD1999999+0031REMSYN004BUFR
0136829830999992015100118004-09380-040480FM-12+037099999V0201801N0041100600199020000199+03351+01691100871ADDAA101999999AZ101061AZ201061GA1061+006001081GE19MSL   +99999+99999GF106991061999006001999999MA1999999096791MD1999999+0141REMSYN004BUFR
0136829830999992015100200004-09380-040480FM-12+037099999V0200901N0031100600199002000199+02951+01661101131ADDAA101999999AZ101061AZ201061GA1051+006001081GE19MSL   +99999+99999GF105991051999006001999999MA1999999097041MD1999999+0211REMSYN004BUFR
0149829830999992015100212004-09380-040480FM-12+037099999V0201401N0041199999999020000199+02541+01651101461ADDAA101999999AZ101061AZ201061GA1021+006001081GE19MSL   +99999+99999GF102991021999006001999999KA1120N+02181MA1999999097351MD1999999+0091REMSYN004BUFR
0098829830999992015100218004-09380-040480FM-12+037099999V0201401N0026122000199020000199+03351+01511100891ADDAA101999999AZ101061AZ201061GF100991999999999999999999MA1999999096811MD1999999+0021REMSYN004BUFR
0098829830999992015100300004-09380-040480FM-12+037099999V0201401N0031122000199002000199+02951+01741101161ADDAA101999999AZ101061AZ201061GF100991999999999999999999MA1999999097061MD1999999+0021REMSYN004BUFR
0149829830999992015100312004-09380-040480FM-12+037099999V0200901N0051100600199020000199+02551+01781101471ADDAA101999999AZ101061AZ201061GA1061+006001081GE19MSL   +99999+99999GF106991061999006001999999KA1120N+02211MA1999999097361MD1999999+0011REMSYN004BUFR
0098829830999992015100318004-09380-040480FM-12+037099999V0200901N0031122000199020000199+03371+01961100861ADDAA101999999AZ101061AZ201061GF100991999999999999999999MA1999999096781MD1999999-0031REMSYN004BUFR
0098829830999992015100400004-09380-040480FM-12+037099999V0201401N0026122000199002000199+03091+01771101071ADDAA101999999AZ101061AZ201061GF100991999999999999999999MA1999999096971MD1999999-0091REMSYN004BUFR
0111829830999992015100412004-09380-040480FM-12+037099999V0201401N0031122000199020000199+02571+01901101411ADDAA101999999AZ101061AZ201061GF100991999999999999999999KA1120N+02301MA1999999097321MD1999999-0041REMSYN004BUFR
0136829830999992015100418004-09380-040480FM-12+037099999V0200901N0031199999999020000199+03521+02221100781ADDAA101999999AZ101061AZ201061GA1011+006001081GE19MSL   +99999+99999GF101991011999006001999999MA1999999096721MD1999999-0061REMSYN004BUFR
0098829830999992015100500004-09380-040480FM-12+037099999V0201401N0031122000199002000199+03151+01791101051ADDAA101999999AZ101061AZ201061GF100991999999999999999999MA1999999096951MD1999999+0001REMSYN004BUFR
0149829830999992015100512004-09380-040480FM-12+037099999V0200901N0031199999999020000199+02891+02151101171ADDAA101999999AZ101061AZ201061GA1021+006001041GE19MSL   +99999+99999GF102991021999006001999999KA1120N+02371MA1999999097121MD1999999-0201REMSYN004BUFR
0136829830999992015100518004-09380-040480FM-12+037099999V0201401N0015199999999020000199+03741+02111100671ADDAA101999999AZ101061AZ201061GA1021+006001081GE19MSL   +99999+99999GF102991021999006001999999MA1999999096641MD1999999-0331REMSYN004BUFR
0098829830999992015100600004-09380-040480FM-12+037099999V0201401N0015122000199002000199+03291+02211100961ADDAA101999999AZ101061AZ201061GF100991999999999999999999MA1999999096931MD1999999-0041REMSYN004BUFR
0181829830999992015100612004-09380-040480FM-12+037099999V0200901N0031100600199010000199+02791+02111101451ADDAA101999999AZ101061AZ201061GA1081+006001061GA2999+999999101GA3999+999999101GE19MSL   +99999+99999GF108991081999006001999999KA1120N+02521MA1999999097391MD1999999+0271REMSYN004BUFR
0152829830999992015100618004-09380-040480FM-12+037099999V0200901N0026199999999020000199+03241+02031101001ADDAA101999999AZ101061AZ201061GA1021+006001081GA2999+999999051GE19MSL   +99999+99999GF106991021999006001999999MA1999999096941MD1999999+0301REMSYN004BUFR
0136829830999992015100700004-09380-040480FM-12+037099999V0201801N0010199999999002000199+03051+02351101201ADDAA101999999AZ101061AZ201061GA1041+006001081GE19MSL   +99999+99999GF104991041999006001999999MA1999999097131MD1999999+0201REMSYN004BUFR
0149829830999992015100712004-09380-040480FM-12+037099999V0201401N0041199999999020000199+02651+01901101461ADDAA101999999AZ101061AZ201061GA1031+006001081GE19MSL   +99999+99999GF103991031999006001999999KA1120N+02391MA1999999097361MD1999999-0031REMSYN004BUFR
0152829830999992015100718004-09380-040480FM-12+037099999V0201401N0031199999999020000199+03491+01901100741ADDAA101999999AZ101061AZ201061GA1041+006001081GA2999+999999021GE19MSL   +99999+99999GF106991041999006001999999MA1999999096741MD1999999-0201REMSYN004BUFR
0098829830999992015100800004-09380-040480FM-12+037099999V0201401N0031122000199002000199+03041+01911101171ADDAA101999999AZ101061AZ201061GF100991999999999999999999MA1999999097121MD1999999-0011REMSYN004BUFR
0181829830999992015100812004-09380-040480FM-12+037099999V0200901N0057100600199010000199+02621+02011101501ADDAA101999999AZ101061AZ201061GA1081+006001061GA2999+999999101GA3999+999999101GE19MSL   +99999+99999GF108991081999006001999999KA1120N+02321MA1999999097401MD1999999+0041REMSYN004BUFR
0168829830999992015100818004-09380-040480FM-12+037099999V0200901N0046100600199010000199+02971+01951101101ADDAA101999999AZ101061AZ201061GA1081+006001061GA2999+999999101GA3999+999999101GE19MSL   +99999+99999GF108991081999006001999999MA1999999096991MD1999999+0251REMSYN004BUFR
0136829830999992015100900004-09380-040480FM-12+037099999V0200901N0041100600199002000199+02641+01901101361ADDAA101999999AZ101061AZ201061GA1061+006001061GE19MSL   +99999+99999GF106991061999006001999999MA1999999097241MD1999999+0121REMSYN004BUFR
0149829830999992015100912004-09380-040480FM-12+037099999V0201401N0026100600199020000199+02571+01901101571ADDAA101999999AZ101061AZ201061GA1061+006001081GE19MSL   +99999+99999GF106991061999006001999999KA1120N+02271MA1999999097431MD1999999+0031REMSYN004BUFR
0136829830999992015100918004-09380-040480FM-12+037099999V0201401N0026100600199010000199+03151+02021101101ADDAA101999999AZ101061AZ201061GA1061+006001081GE19MSL   +99999+99999GF106991061999006001999999MA1999999096991MD1999999+0091REMSYN004BUFR
0104829830999992015101000004-09380-040480FM-12+037099999V0201801N0041122000199002000199+02441+02031101461ADDAA106014031AY161061AY221061GF100991999999999999999999MA1999999097311MD1999999+0071MW1011REMSYN004BUFR
0181829830999992015101012004-09380-040480FM-12+037099999V0201401N0051100600199010000199+02521+01741101691ADDAA124014031AZ101061AZ201061GA1061+006001061GA2999+999999101GA3999+999999101GE19MSL   +99999+99999GF106991061999006001999999KA1120N+02211MA1999999097531MD1999999+0101REMSYN004BUFR
0136829830999992015101018004-09380-040480FM-12+037099999V0201401N0036199999999020000199+03341+01751101041ADDAA101999999AZ101061AZ201061GA1021+006001081GE19MSL   +99999+99999GF102991021999006001999999MA1999999096941MD1999999-0051REMSYN004BUFR
0098829830999992015101100004-09380-040480FM-12+037099999V0201401N0026122000199002000199+02921+01671101271ADDAA101999999AZ101061AZ201061GF100991999999999999999999MA1999999097161MD1999999-0151REMSYN004BUFR
0149829830999992015101112004-09380-040480FM-12+037099999V0200901N0041199999999020000199+02591+01711101561ADDAA101999999AZ101061AZ201061GA1031+006001081GE19MSL   +99999+99999GF103991031999006001999999KA1120N+02191MA1999999097451MD1999999-0081REMSYN004BUFR
0136829830999992015101118004-09380-040480FM-12+037099999V0201801N0026199999999020000199+03291+01641100961ADDAA101999999AZ101061AZ201061GA1021+006001081GE19MSL   +99999+99999GF102991021999006001999999MA1999999096871MD1999999-0071REMSYN004BUFR
0098829830999992015101200004-09380-040480FM-12+037099999V0201401N0051122000199002000199+02651+01901101261ADDAA101999999AZ101061AZ201061GF100991999999999999999999MA1999999097141MD1999999-0021REMSYN004BUFR
0181829830999992015101212004-09380-040480FM-12+037099999V0200901N0046100600199010000199+02451+01781101741ADDAA101999999AZ101061AZ201061GA1071+006001061GA2999+999999101GA3999+999999101GE19MSL   +99999+99999GF107991071999006001999999KA1120N+02131MA1999999097581MD1999999+0131REMSYN004BUFR
0136829830999992015101218004-09380-040480FM-12+037099999V0201401N0031199999999020000199+03251+01681101071ADDAA101999999AZ101061AZ201061GA1021+006001081GE19MSL   +99999+99999GF102991021999006001999999MA1999999096961MD1999999+0091REMSYN004BUFR
0098829830999992015101300004-09380-040480FM-12+037099999V0201401N0026122000199002000199+02891+01871101291ADDAA101999999AZ101061AZ201061GF100991999999999999999999MA1999999097181MD1999999+0041REMSYN004BUFR
0149829830999992015101312004-09380-040480FM-12+037099999V0201401N0046199999999020000199+02541+01811101771ADDAA101999999AZ101061AZ201061GA1021+006001081GE19MSL   +99999+99999GF102991021999006001999999KA1120N+02211MA1999999097641MD1999999+0061REMSYN004BUFR
0136829830999992015101318004-09380-040480FM-12+037099999V0200901N0031199999999020000199+03391+01771101101ADDAA101999999AZ101061AZ201061GA1011+006001081GE19MSL   +99999+99999GF101991011999006001999999MA1999999097021MD1999999+0051REMSYN004BUFR
0098829830999992015101400004-09380-040480FM-12+037099999V0201401N0046122000199002000199+03051+01771101321ADDAA101999999AZ101061AZ201061GF100991999999999999999999MA1999999097221MD1999999+0041REMSYN004BUFR
0181829830999992015101412004-09380-040480FM-12+037099999V0201401N0031100600199010000199+02551+01951101621ADDAA101999999AZ101061AZ201061GA1071+006001081GA2999+999999101GA3999+999999101GE19MSL   +99999+99999GF107991071999006001999999KA1120N+02291MA1999999097511MD1999999-0131REMSYN004BUFR
0136829830999992015101418004-09380-040480FM-12+037099999V0201401N0031100600199020000199+03271+01931101071ADDAA101999999AZ101061AZ201061GA1061+006001081GE19MSL   +99999+99999GF106991061999006001999999MA1999999096981MD1999999-0031REMSYN004BUFR
0136829830999992015101500004-09380-040480FM-12+037099999V0201401N0026100600199002000199+02991+02031101261ADDAA101999999AZ101061AZ201061GA1061+006001081GE19MSL   +99999+99999GF106991061999006001999999MA1999999097161MD1999999-0061REMSYN004BUFR
0149829830999992015101512004-09380-040480FM-12+037099999V0201401N0005199999999020000199+02721+01901101571ADDAA101999999AZ101061AZ201061GA1021+006001081GE19MSL   +99999+99999GF102991021999006001999999KA1120N+02481MA1999999097471MD1999999-0041REMSYN004BUFR
0136829830999992015101518004-09380-040480FM-12+037099999V0201401N0041100600199010000199+03221+01881101021ADDAA101999999AZ101061AZ201061GA1061+006001081GE19MSL   +99999+99999GF106991061999006001999999MA1999999096941MD1999999-0041REMSYN004BUFR
0136829830999992015101600004-09380-040480FM-12+037099999V0201401N0021199999999002000199+02971+01951101311ADDAA101999999AZ101061AZ201061GA1021+006001081GE19MSL   +99999+99999GF102991021999006001999999MA1999999097221MD1999999+0061REMSYN004BUFR
0149829830999992015101612004-09380-040480FM-12+037099999V0201401N0051100600199010000199+02641+01801101721ADDAA101999999AZ101061AZ201061GA1061+006001081GE19MSL   +99999+99999GF106991061999006001999999KA1120N+02241MA1999999097611MD1999999+0141REMSYN004BUFR
0136829830999992015101618004-09380-040480FM-12+037099999V0201401N0031199999999020000199+03341+01751101041ADDAA101999999AZ101061AZ201061GA1041+006001081GE19MSL   +99999+99999GF104991041999006001999999MA1999999096951MD1999999+0011REMSYN004BUFR
0098829830999992015101700004-09380-040480FM-12+037099999V0201401N0015122000199002000199+02921+01921101301ADDAA101999999AZ101061AZ201061GF100991999999999999999999MA1999999097201MD1999999-0021REMSYN004BUFR
0149829830999992015101712004-09380-040480FM-12+037099999V0201401N0036199999999020000199+02551+01901101611ADDAA101999999AZ101061AZ201061GA1041+006001081GE19MSL   +99999+99999GF104991041999006001999999KA1120N+02181MA1999999097491MD1999999-0121REMSYN004BUFR
0136829830999992015101718004-09380-040480FM-12+037099999V0200901N0031199999999020000199+03391+01851100981ADDAA101999999AZ101061AZ201061GA1011+006001081GE19MSL   +99999+99999GF101991011999006001999999MA1999999096901MD1999999-0051REMSYN004BUFR
0098829830999992015101800004-09380-040480FM-12+037099999V0201401N0026122000199002000199+03041+01751101221ADDAA101999999AZ101061AZ201061GF100991999999999999999999MA1999999097131MD1999999-0071REMSYN004BUFR
0149829830999992015101812004-09380-040480FM-12+037099999V0200901N0041199999999020000199+02521+01741101581ADDAA101999999AZ101061AZ201061GA1011+006001081GE19MSL   +99999+99999GF101991011999006001999999KA1120N+02171MA1999999097471MD1999999-0021REMSYN004BUFR
0098829830999992015101818004-09380-040480FM-12+037099999V0201401N0026122000199020000199+03391+01591101061ADDAA101999999AZ101061AZ201061GF100991999999999999999999MA1999999096971MD1999999+0071REMSYN004BUFR
0098829830999992015101900004-09380-040480FM-12+037099999V0201801N0021122000199002000199+03041+01641101291ADDAA101999999AZ101061AZ201061GF100991999999999999999999MA1999999097191MD1999999+0061REMSYN004BUFR
0149829830999992015101912004-09380-040480FM-12+037099999V0201401N0031100600199010000199+02721+01901101601ADDAA101999999AZ101061AZ201061GA1061+006001081GE19MSL   +99999+99999GF106991061999006001999999KA1120N+02421MA1999999097511MD1999999+0041REMSYN004BUFR
0136829830999992015101918004-09380-040480FM-12+037099999V0201401N0010199999999002000199+03341+01871101031ADDAA101999999AZ101061AZ201061GA1041+006001081GE19MSL   +99999+99999GF106991041999006001999999MA1999999096961MD1999999-0011REMSYN004BUFR
0152829830999992015102000004-09380-040480FM-12+037099999V0201401N0015199999999002000199+03121+02051101171ADDAA101999999AZ101061AZ201061GA1021+006001081GA2999+999999031GE19MSL   +99999+99999GF104991021999006001999999MA1999999097101MD1999999-0011REMSYN004BUFR
0149829830999992015102012004-09380-040480FM-12+037099999V0201401N0036100600199020000199+02591+01921101631ADDAA101999999AZ101061AZ201061GA1061+006001061GE19MSL   +99999+99999GF106991061999006001999999KA1120N+02291MA1999999097531MD1999999+0021REMSYN004BUFR
0136829830999992015102018004-09380-040480FM-12+037099999V0201401N0031199999999020000199+03351+01811101051ADDAA101999999AZ101061AZ201061GA1021+006001081GE19MSL   +99999+99999GF102991021999006001999999MA1999999096971MD1999999+0011REMSYN004BUFR
0098829830999992015102100004-09380-040480FM-12+037099999V0201401N0021122000199002000199+03051+01801101241ADDAA101999999AZ101061AZ201061GF100991999999999999999999MA1999999097151MD1999999+0051REMSYN004BUFR
0149829830999992015102112004-09380-040480FM-12+037099999V0201401N0031199999999010000199+02571+01971101481ADDAA101999999AZ101061AZ201061GA1031+006001081GE19MSL   +99999+99999GF103991031999006001999999KA1120N+02311MA1999999097371MD1999999-0161REMSYN004BUFR
0136829830999992015102118004-09380-040480FM-12+037099999V0200901N0015199999999020000199+03491+01901100781ADDAA101999999AZ101061AZ201061GA1021+006001081GE19MSL   +99999+99999GF102991021999006001999999MA1999999096721MD1999999-0251REMSYN004BUFR
0098829830999992015102200004-09380-040480FM-12+037099999V0200901N0010122000199002000199+03041+02311100991ADDAA101999999AZ101061AZ201061GF100991999999999999999999MA1999999096911MD1999999-0241REMSYN004BUFR
0111829830999992015102212004-09380-040480FM-12+037099999V0200901N0031122000199020000199+02921+02061101221ADDAA101999999AZ101061AZ201061GF100991999999999999999999KA1120N+02351MA1999999097131MD1999999-0241REMSYN004BUFR
0136829830999992015102218004-09380-040480FM-12+037099999V0200901N0041199999999020000199+03691+02111100641ADDAA101999999AZ101061AZ201061GA1011+006001081GE19MSL   +99999+99999GF101991011999006001999999MA1999999096541MD1999999-0181REMSYN004BUFR
0098829830999992015102300004-09380-040480FM-12+037099999V0201401N0026122000199002000199+03271+01891100861ADDAA101999999AZ101061AZ201061GF100991999999999999999999MA1999999096831MD1999999-0081REMSYN004BUFR
0149829830999992015102312004-09380-040480FM-12+037099999V0201401N0031100600199010000199+02791+02111101201ADDAA101999999AZ101061AZ201061GA1061+006001081GE19MSL   +99999+99999GF106991061999006001999999KA1120N+02431MA1999999097151MD1999999+0021REMSYN004BUFR
0136829830999992015102318004-09380-040480FM-12+037099999V0201401N0015100600199020000199+03591+02031100621ADDAA101999999AZ101061AZ201061GA1051+006001081GE19MSL   +99999+99999GF105991051999006001999999MA1999999096581MD1999999+0041REMSYN004BUFR
0136829830999992015102400004-09380-040480FM-12+037099999V0201401N0026100600199002000199+03271+01891100941ADDAA101999999AZ101061AZ201061GA1051+006001081GE19MSL   +99999+99999GF105991051999006001999999MA1999999096901MD1999999+0071REMSYN004BUFR
0149829830999992015102412004-09380-040480FM-12+037099999V0200901N0041100600199020000199+02841+02041101361ADDAA101999999AZ101061AZ201061GA1061+006001081GE19MSL   +99999+99999GF106991061999006001999999KA1120N+02411MA1999999097301MD1999999+0151REMSYN004BUFR
0136829830999992015102418004-09380-040480FM-12+037099999V0200901N0036100600199020000199+03471+01841100851ADDAA101999999AZ101061AZ201061GA1061+006001081GE19MSL   +99999+99999GF106991061999006001999999MA1999999096811MD1999999+0231REMSYN004BUFR
0152829830999992015102500004-09380-040480FM-12+037099999V0201401N0041199999999002000199+03191+01861101071ADDAA101999999AZ101061AZ201061GA1011+006001081GA2999+999999031GE19MSL   +99999+99999GF102991011999006001999999MA1999999097021MD1999999+0121REMSYN004BUFR
0165829830999992015102512004-09380-040480FM-12+037099999V0201401N0031199999999010000199+02651+01951101441ADDAA101999999AZ101061AZ201061GA1031+006001081GA2999+999999031GE19MSL   +99999+99999GF106991031999006001999999KA1120N+02351MA1999999097361MD1999999+0061REMSYN004BUFR
0136829830999992015102518004-09380-040480FM-12+037099999V0201401N0031100600199020000199+03421+01981100941ADDAA101999999AZ101061AZ201061GA1051+006001081GE19MSL   +99999+99999GF105991051999006001999999MA1999999096871MD1999999+0061REMSYN004BUFR
0136829830999992015102600004-09380-040480FM-12+037099999V0201401N0031199999999002000199+03041+01821101271ADDAA101999999AZ101061AZ201061GA1031+006001081GE19MSL   +99999+99999GF103991031999006001999999MA1999999097181MD1999999+0161REMSYN004BUFR
0149829830999992015102612004-09380-040480FM-12+037099999V0201401N0026199999999010000199+02691+01831101591ADDAA101999999AZ101061AZ201061GA1041+006001081GE19MSL   +99999+99999GF104991041999006001999999KA1120N+02291MA1999999097491MD1999999+0131REMSYN004BUFR
0136829830999992015102618004-09380-040480FM-12+037099999V0201401N0026199999999020000199+03471+01791100911ADDAA101999999AZ101061AZ201061GA1031+006001081GE19MSL   +99999+99999GF103991031999006001999999MA1999999096851MD1999999-0021REMSYN004BUFR
0136829830999992015102700004-09380-040480FM-12+037099999V0201401N0026199999999002000199+03141+01771101161ADDAA101999999AZ101061AZ201061GA1021+006001031GE19MSL   +99999+99999GF102991021999006001999999MA1999999097091MD1999999-0091REMSYN004BUFR
0149829830999992015102712004-09380-040480FM-12+037099999V0201401N0041199999999020000199+02641+01801101501ADDAA101999999AZ101061AZ201061GA1011+006001081GE19MSL   +99999+99999GF101991011999006001999999KA1120N+02291MA1999999097411MD1999999-0081REMSYN004BUFR
0136829830999992015102718004-09380-040480FM-12+037099999V0200901N0031199999999020000199+03551+01731100831ADDAA101999999AZ101061AZ201061GA1011+006001081GE19MSL   +99999+99999GF101991011999006001999999MA1999999096781MD1999999-0071REMSYN004BUFR
0136829830999992015102800004-09380-040480FM-12+037099999V0201401N0031199999999002000199+03071+01821101031ADDAA101999999AZ101061AZ201061GA1011+006001081GE19MSL   +99999+99999GF101991011999006001999999MA1999999096951MD1999999-0141REMSYN004BUFR
0111829830999992015102812004-09380-040480FM-12+037099999V0201401N0031122000199020000199+02741+01701101411ADDAA101999999AZ101061AZ201061GF100991999999999999999999KA1120N+02311MA1999999097331MD1999999-0081REMSYN004BUFR
0136829830999992015102818004-09380-040480FM-12+037099999V0201401N0031199999999020000199+03551+01911100771ADDAA101999999AZ101061AZ201061GA1999+006001021GE19MSL   +99999+99999GF102991999999006001999999MA1999999096721MD1999999-0061REMSYN004BUFR
0098829830999992015102900004-09380-040480FM-12+037099999V0201401N0015122000199002000199+03151+02021100951ADDAA101999999AZ101061AZ201061GF100991999999999999999999MA1999999096891MD1999999-0061REMSYN004BUFR
0111829830999992015102912004-09380-040480FM-12+037099999V0200901N0041122000199020000199+02791+01901101181ADDAA101999999AZ101061AZ201061GF100991999999999999999999KA1120N+02351MA1999999097121MD1999999-0211REMSYN004BUFR
0136829830999992015102918004-09380-040480FM-12+037099999V0200901N0026199999999020000199+03541+02091100661ADDAA101999999AZ101061AZ201061GA1021+006001081GE19MSL   +99999+99999GF102991021999006001999999MA1999999096621MD1999999-0101REMSYN004BUFR
0136829830999992015103000004-09380-040480FM-12+037099999V0200901N0026199999999002000199+03341+01911100881ADDAA101999999AZ101061AZ201061GA1999+006001021GE19MSL   +99999+99999GF101991999999006001999999MA1999999096841MD1999999-0051REMSYN004BUFR
0149829830999992015103012004-09380-040480FM-12+037099999V0201401N0026199999999020000199+03921+02121101241ADDAA101999999AZ101061AZ201061GA1031+006001081GE19MSL   +99999+99999GF103991031999006001999999KA1120N+02511MA1999999097211MD1999999+0091REMSYN004BUFR
0136829830999992015103018004-09380-040480FM-12+037099999V0201401N0015199999999020000199+03391+02111100751ADDAA101999999AZ101061AZ201061GA1031+006001081GE19MSL   +99999+99999GF103991031999006001999999MA1999999096701MD1999999+0081REMSYN004BUFR
0098829830999992015103100004-09380-040480FM-12+037099999V0201401N0026122000199002000199+02991+02001101001ADDAA101999999AZ101061AZ201061GF100991999999999999999999MA1999999096941MD1999999+0101REMSYN004BUFR
0181829830999992015103112004-09380-040480FM-12+037099999V0201401N0041100600199010000199+02721+01901101421ADDAA101999999AZ101061AZ201061GA1061+006001061GA2999+999999051GA3999+999999101GE19MSL   +99999+99999GF108991061999006001999999KA1120N+02511MA1999999097331MD1999999+0121REMSYN004BUFR
0152829830999992015103118004-09380-040480FM-12+037099999V0201401N0031100600199020000199+03251+02021100901ADDAA101999999AZ101061AZ201061GA1051+006001081GA2999+999999011GE19MSL   +99999+99999GF106991051999006001999999MA1999999096841MD1999999+0071REMSYN004BUFR
0136829830999992015110100004-09380-040480FM-12+037099999V0200901N0021199999999002000199+02991+01881101061ADDAA101999999AZ101061AZ201061GA1041+006001081GE19MSL   +99999+99999GF108991041999006001999999MA1999999096981MD1999999+0041REMSYN004BUFR
0149829830999992015110112004-09380-040480FM-12+037099999V0201401N0031199999999020000199+02741+01971101341ADDAA101999999AZ101061AZ201061GA1031+006001081GE19MSL   +99999+99999GF106991031999006001999999KA1120N+02391MA1999999097251MD1999999-0081REMSYN004BUFR
0136829830999992015110118004-09380-040480FM-12+037099999V0201401N0036100600199020000199+03371+02001100781ADDAA101999999AZ101061AZ201061GA1051+006001081GE19MSL   +99999+99999GF107991051999006001999999MA1999999096721MD1999999-0121REMSYN004BUFR
0098829830999992015110200004-09380-040480FM-12+037099999V0200901N0031122000199002000199+02891+01841101111ADDAA101999999AZ101061AZ201061GF100991999999999999999999MA1999999097021MD1999999+0001REMSYN004BUFR
0149829830999992015110212004-09380-040480FM-12+037099999V0200901N0046199999999020000199+02651+01851101331ADDAA101999999AZ101061AZ201061GA1031+006001081GE19MSL   +99999+99999GF103991031999006001999999KA1120N+02271MA1999999097231MD1999999-0021REMSYN004BUFR
0136829830999992015110218004-09380-040480FM-12+037099999V0201401N0031199999999010000199+03421+01781100741ADDAA101999999AZ101061AZ201061GA1041+006001081GE19MSL   +99999+99999GF104991041999006001999999MA1999999096671MD1999999-0051REMSYN004BUFR
0098829830999992015110300004-09380-040480FM-12+037099999V0201401N0041122000199002000199+03141+01731100881ADDAA101999999AZ101061AZ201061GF100991999999999999999999MA1999999096821MD1999999-0201REMSYN004BUFR
0149829830999992015110312004-09380-040480FM-12+037099999V0200901N0051100600199020000199+02751+01941101361ADDAA101999999AZ101061AZ201061GA1051+006001081GE19MSL   +99999+99999GF105991051999006001999999KA1120N+02411MA1999999097291MD1999999+0061REMSYN004BUFR
0136829830999992015110318004-09380-040480FM-12+037099999V0200901N0041100600199020000199+03521+01831100801ADDAA101999999AZ101061AZ201061GA1061+006001081GE19MSL   +99999+99999GF106991061999006001999999MA1999999096741MD1999999+0071REMSYN004BUFR
0136829830999992015110400004-09380-040480FM-12+037099999V0200901N0026199999999002000199+03121+01791101011ADDAA101999999AZ101061AZ201061GA1011+006001081GE19MSL   +99999+99999GF101991011999006001999999MA1999999096951MD1999999+0131REMSYN004BUFR
0149829830999992015110412004-09380-040480FM-12+037099999V0201401N0051100600199010000199+02621+01881101541ADDAA101999999AZ101061AZ201061GA1061+006001081GE19MSL   +99999+99999GF106991061999006001999999KA1120N+02311MA1999999097441MD1999999+0151REMSYN004BUFR
0136829830999992015110418004-09380-040480FM-12+037099999V0201401N0031199999999010000199+03371+01711100961ADDAA101999999AZ101061AZ201061GA1031+006001081GE19MSL   +99999+99999GF103991031999006001999999MA1999999096881MD1999999+0141REMSYN004BUFR
0098829830999992015110500004-09380-040480FM-12+037099999V0201401N0010122000199002000199+03041+01911101061ADDAA101999999AZ101061AZ201061GF100991999999999999999999MA1999999096981MD1999999+0031REMSYN004BUFR
0111829830999992015110512004-09380-040480FM-12+037099999V0200901N0026122000199020000199+02691+01881101331ADDAA101999999AZ101061AZ201061GF100991999999999999999999KA1120N+02311MA1999999097241MD1999999-0201REMSYN004BUFR
0136829830999992015110518004-09380-040480FM-12+037099999V0201401N0026199999999020000199+03591+01871100721ADDAA101999999AZ101061AZ201061GA1041+006001081GE19MSL   +99999+99999GF104991041999006001999999MA1999999096681MD1999999+0001REMSYN004BUFR
0098829830999992015110600004-09380-040480FM-12+037099999V0203601N0000122000199002000199+03171+02361100921ADDAA101999999AZ101061AZ201061GF100991999999999999999999MA1999999096861MD1999999-0121REMSYN004BUFR
0149829830999992015110612004-09380-040480FM-12+037099999V0201401N0031199999999020000199+02971+02091101161ADDAA101999999AZ101061AZ201061GA1999+006001001GE19MSL   +99999+99999GF102991999999006001999999KA1120N+02441MA1999999097121MD1999999-0121REMSYN004BUFR
0136829830999992015110618004-09380-040480FM-12+037099999V0201401N0015199999999020000199+03771+02141100581ADDAA101999999AZ101061AZ201061GA1041+006001081GE19MSL   +99999+99999GF106991041999006001999999MA1999999096561MD1999999-0121REMSYN004BUFR
0098829830999992015110700004-09380-040480FM-12+037099999V0203601N0000122000199002000199+03321+02261100801ADDAA101999999AZ101061AZ201061GF100991999999999999999999MA1999999096781MD1999999-0081REMSYN004BUFR
0149829830999992015110712004-09380-040480FM-12+037099999V0200901N0031199999999020000199+02841+02071101241ADDAA101999999AZ101061AZ201061GA1999+006001021GE19MSL   +99999+99999GF107991999999006001999999KA1120N+02491MA1999999097201MD1999999+0081REMSYN004BUFR
0152829830999992015110718004-09380-040480FM-12+037099999V0200501N0021199999999020000199+03621+02041100751ADDAA101999999AZ101061AZ201061GA1021+006001081GA2999+999999021GE19MSL   +99999+99999GF104991021999006001999999MA1999999096741MD1999999+0181REMSYN004BUFR
0098829830999992015110800004-09380-040480FM-12+037099999V0201401N0021122000199002000199+03251+01881100951ADDAA101999999AZ101061AZ201061GF100991999999999999999999MA1999999096911MD1999999+0131REMSYN004BUFR
0149829830999992015110812004-09380-040480FM-12+037099999V0201401N0041199999999020000199+02591+01871101471ADDAA101999999AZ101061AZ201061GA1041+006001081GE19MSL   +99999+99999GF108991041999006001999999KA1120N+02401MA1999999097391MD1999999+0191REMSYN004BUFR
0136829830999992015110818004-09380-040480FM-12+037099999V0201401N0031199999999020000199+03351+01891100841ADDAA101999999AZ101061AZ201061GA1011+006001081GE19MSL   +99999+99999GF101991011999006001999999MA1999999096781MD1999999+0041REMSYN004BUFR
0098829830999992015110900004-09380-040480FM-12+037099999V0201401N0026122000199002000199+03041+01751101151ADDAA101999999AZ101061AZ201061GF100991999999999999999999MA1999999097061MD1999999+0151REMSYN004BUFR
0149829830999992015110912004-09380-040480FM-12+037099999V0201401N0051100600199010000199+02591+01741101571ADDAA101999999AZ101061AZ201061GA1061+006001081GE19MSL   +99999+99999GF106991061999006001999999KA1120N+02271MA1999999097461MD1999999+0071REMSYN004BUFR
0152829830999992015110918004-09380-040480FM-12+037099999V0201401N0031199999999020000199+03341+01951101021ADDAA101999999AZ101061AZ201061GA1041+006001081GA2999+999999031GE19MSL   +99999+99999GF105991041999006001999999MA1999999096941MD1999999+0161REMSYN004BUFR
0136829830999992015111000004-09380-040480FM-12+037099999V0201401N0041199999999002000199+03071+01981101261ADDAA101999999AZ101061AZ201061GA1021+006001081GE19MSL   +99999+99999GF102991021999006001999999MA1999999097171MD1999999+0111REMSYN004BUFR
0165829830999992015111012004-09380-040480FM-12+037099999V0201401N0046100600199020000199+02651+01851101611ADDAA101999999AZ101061AZ201061GA1061+006001061GA2999+999999031GE19MSL   +99999+99999GF107991061999006001999999KA1120N+02291MA1999999097491MD1999999+0031REMSYN004BUFR
0136829830999992015111018004-09380-040480FM-12+037099999V0201401N0031100600199020000199+03371+01981101011ADDAA101999999AZ101061AZ201061GA1051+006001081GE19MSL   +99999+99999GF105991051999006001999999MA1999999096941MD1999999+0001REMSYN004BUFR
0098829830999992015111100004-09380-040480FM-12+037099999V0201401N0026122000199002000199+03041+01821101161ADDAA101999999AZ101061AZ201061GF100991999999999999999999MA1999999097081MD1999999-0091REMSYN004BUFR
0149829830999992015111112004-09380-040480FM-12+037099999V0201401N0031199999999020000199+02571+01801101441ADDAA101999999AZ101061AZ201061GA1041+006001081GE19MSL   +99999+99999GF106991041999006001999999KA1120N+02191MA1999999097341MD1999999-0151REMSYN004BUFR
0098829830999992015111118004-09380-040480FM-12+037099999V0201401N0051122000199020000199+03451+01641100731ADDAA101999999AZ101061AZ201061GF100991999999999999999999MA1999999096661MD1999999-0281REMSYN004BUFR
0098829830999992015111200004-09380-040480FM-12+037099999V0201401N0031122000199002000199+03051+01801100911ADDAA101999999AZ101061AZ201061GF100991999999999999999999MA1999999096831MD1999999-0251REMSYN004BUFR
0155829830999992015111212004-09380-040480FM-12+037099999V0200901N0031199999999020000199+02091+01871101301ADDAA101999999AZ101061AZ201061GA1999+006001001GE19MSL   +99999+99999GF105991999999006001999999MA1999999097211MD1999999-0131REMSYN004BUFREQDQ0123.2  2EATMN 
0136829830999992015111218004-09380-040480FM-12+037099999V0201401N0026199999999020000199+03541+01761100671ADDAA101999999AZ101061AZ201061GA1999+006001001GE19MSL   +99999+99999GF105991999999006001999999MA1999999096631MD1999999-0031REMSYN004BUFR
0098829830999992015111300004-09380-040480FM-12+037099999V0203601N0015122000199002000199+02951+01841100861ADDAA101999999AZ101061AZ201061GF100991999999999999999999MA1999999096781MD1999999-0051REMSYN004BUFR
0149829830999992015111312004-09380-040480FM-12+037099999V0201401N0031199999999020000199+02921+01981101101ADDAA101999999AZ101061AZ201061GA1999+006001021GE19MSL   +99999+99999GF106991999999006001999999KA1120N+02421MA1999999097041MD1999999-0171REMSYN004BUFR
0152829830999992015111318004-09380-040480FM-12+037099999V0200501N0031199999999020000199+03791+01841100471ADDAA101999999AZ101061AZ201061GA1011+006001081GA2999+999999021GE19MSL   +99999+99999GF106991011999006001999999MA1999999096471MD1999999-0161REMSYN004BUFR
0098829830999992015111400004-09380-040480FM-12+037099999V0200901N0015122000199002000199+03441+01721100751ADDAA101999999AZ101061AZ201061GF100991999999999999999999MA1999999096741MD1999999-0041REMSYN004BUFR
0149829830999992015111412004-09380-040480FM-12+037099999V0200501N0031199999999020000199+02951+02101101211ADDAA101999999AZ101061AZ201061GA1021+006001081GE19MSL   +99999+99999GF102991021999006001999999KA1120N+02581MA1999999097181MD1999999+0141REMSYN004BUFR
0136829830999992015111418004-09380-040480FM-12+037099999V0200901N0021199999999020000199+03721+02091100621ADDAA101999999AZ101061AZ201061GA1031+006001081GE19MSL   +99999+99999GF103991031999006001999999MA1999999096621MD1999999+0151REMSYN004BUFR
0136829830999992015111500004-09380-040480FM-12+037099999V0200501N0015100600199002000199+03391+02001100771ADDAA101999999AZ101061AZ201061GA1051+006001081GE19MSL   +99999+99999GF105991051999006001999999MA1999999096761MD1999999+0021REMSYN004BUFR
0149829830999992015111512004-09380-040480FM-12+037099999V0201401N0041199999999020000199+03071+01921101181ADDAA101999999AZ101061AZ201061GA1999+006001021GE19MSL   +99999+99999GF102991999999006001999999KA1120N+02691MA1999999097161MD1999999-0021REMSYN004BUFR
0152829830999992015111518004-09380-040480FM-12+037099999V0200901N0021199999999020000199+03741+01931100581ADDAA101999999AZ101061AZ201061GA1031+006001081GA2999+999999021GE19MSL   +99999+99999GF105991031999006001999999MA1999999096581MD1999999-0041REMSYN004BUFR
0098829830999992015111600004-09380-040480FM-12+037099999V0200501N0021122000199002000199+03271+01821100721ADDAA101999999AZ101061AZ201061GF100991999999999999999999MA1999999096711MD1999999-0051REMSYN004BUFR
0165829830999992015111612004-09380-040480FM-12+037099999V0200901N0015199999999020000199+03071+02211101011ADDAA101999999AZ101061AZ201061GA1021+006001081GA2999+999999051GE19MSL   +99999+99999GF106991021999006001999999KA1120N+02671MA1999999096991MD1999999-0171REMSYN004BUFR
0152829830999992015111618004-09380-040480FM-12+037099999V0201401N0015100600199020000199+03721+02091100401ADDAA101999999AZ101061AZ201061GA1051+006001081GA2999+999999031GE19MSL   +99999+99999GF106991051999006001999999MA1999999096411MD1999999-0171REMSYN004BUFR
0136829830999992015111700004-09380-040480FM-12+037099999V0200901N0015100600199002000199+03441+01961100571ADDAA101999999AZ101061AZ201061GA1061+006001081GE19MSL   +99999+99999GF106991061999006001999999MA1999999096581MD1999999-0131REMSYN004BUFR
0149829830999992015111712004-09380-040480FM-12+037099999V0200901N0041199999999020000199+02851+02111100981ADDAA101999999AZ101061AZ201061GA1011+006001081GE19MSL   +99999+99999GF101991011999006001999999KA1120N+02541MA1999999096951MD1999999-0041REMSYN004BUFR
0136829830999992015111718004-09380-040480FM-12+037099999V0200901N0031199999999020000199+02671+01681100391ADDAA101999999AZ101061AZ201061GA1021+006001081GE19MSL   +99999+99999GF102991021999006001999999MA1999999096391MD1999999-0021REMSYN004BUFR
0098829830999992015111800004-09380-040480FM-12+037099999V0200501N0015122000199002000199+03191+01861100631ADDAA101999999AZ101061AZ201061GF100991999999999999999999MA1999999096601MD1999999+0021REMSYN004BUFR
0149829830999992015111812004-09380-040480FM-12+037099999V0200901N0031100600199020000199+02921+02121100951ADDAA101999999AZ101061AZ201061GA1061+006001081GE19MSL   +99999+99999GF106991061999006001999999KA1120N+02511MA1999999096911MD1999999-0041REMSYN004BUFR
0152829830999992015111818004-09380-040480FM-12+037099999V0200901N0031199999999020000199+03641+01701100321ADDAA101999999AZ101061AZ201061GA1031+006001081GA2999+999999021GE19MSL   +99999+99999GF105991031999006001999999MA1999999096311MD1999999-0081REMSYN004BUFR
0098829830999992015111900004-09380-040480FM-12+037099999V0200501N0015122000199002000199+03251+01961100491ADDAA101999999AZ101061AZ201061GF100991999999999999999999MA1999999096501MD1999999-0101REMSYN004BUFR
0165829830999992015111912004-09380-040480FM-12+037099999V0200901N0041199999999020000199+02891+02121100851ADDAA101999999AZ101061AZ201061GA1021+006001081GA2999+999999021GE19MSL   +99999+99999GF104991021999006001999999KA1120N+02481MA1999999096821MD1999999-0091REMSYN004BUFR
0152829830999992015111918004-09380-040480FM-12+037099999V0200501N0015199999999020000199+03641+02061100351ADDAA101999999AZ101061AZ201061GA1031+006001081GA2999+999999021GE19MSL   +99999+99999GF106991031999006001999999MA1999999096331MD1999999+0021REMSYN004BUFR
0098829830999992015112000004-09380-040480FM-12+037099999V0200901N0015122000199002000199+03251+02111100521ADDAA101999999AZ101061AZ201061GF100991999999999999999999MA1999999096511MD1999999+0011REMSYN004BUFR
0149829830999992015112012004-09380-040480FM-12+037099999V0200901N0026199999999020000199+02971+02171100881ADDAA101999999AZ101061AZ201061GA1021+006001031GE19MSL   +99999+99999GF102991021999006001999999KA1120N+02571MA1999999096851MD1999999+0031REMSYN004BUFR
0136829830999992015112018004-09380-040480FM-12+037099999V0200901N0026100600199020000199+03741+02191100391ADDAA101999999AZ101061AZ201061GA1061+006001081GE19MSL   +99999+99999GF106991061999006001999999MA1999999096391MD1999999+0061REMSYN004BUFR
0098829830999992015112100004-09380-040480FM-12+037099999V0201401N0010122000199002000199+03351+02301100621ADDAA101999999AZ101061AZ201061GF100991999999999999999999MA1999999096621MD1999999+0111REMSYN004BUFR
0149829830999992015112112004-09380-040480FM-12+037099999V0200901N0031199999999020000199+03091+02091101041ADDAA101999999AZ101061AZ201061GA1999+006001001GE19MSL   +99999+99999GF103991999999006001999999KA1120N+02251MA1999999097031MD1999999+0181REMSYN004BUFR
0152829830999992015112118004-09380-040480FM-12+037099999V0200901N0031199999999020000199+03741+01891100541ADDAA101999999AZ101061AZ201061GA1041+006001081GA2999+999999001GE19MSL   +99999+99999GF106991041999006001999999MA1999999096561MD1999999+0171REMSYN004BUFR
0098829830999992015112200004-09380-040480FM-12+037099999V0200901N0015122000199002000199+03291+01911100641ADDAA101999999AZ101061AZ201061GF100991999999999999999999MA1999999096641MD1999999+0021REMSYN004BUFR
0149829830999992015112212004-09380-040480FM-12+037099999V0201401N0031100600199020000199+02851+02161101071ADDAA101999999AZ101061AZ201061GA1051+006001081GE19MSL   +99999+99999GF105991051999006001999999KA1120N+02571MA1999999097031MD1999999+0001REMSYN004BUFR
0152829830999992015112218004-09380-040480FM-12+037099999V0201401N0015199999999020000199+03641+02101100501ADDAA101999999AZ101061AZ201061GA1041+006001081GA2999+999999041GE19MSL   +99999+99999GF106991041999006001999999MA1999999096491MD1999999-0071REMSYN004BUFR
0136829830999992015112300004-09380-040480FM-12+037099999V0201401N0041100600199002000199+03341+02021100681ADDAA101999999AZ101061AZ201061GA1061+006001081GE19MSL   +99999+99999GF106991061999006001999999MA1999999096961MD1999999+0021REMSYN004BUFR
0149829830999992015112312004-09380-040480FM-12+037099999V0201401N0031199999999020000199+02951+02071100911ADDAA101999999AZ101061AZ201061GA1021+006001081GE19MSL   +99999+99999GF105991021999006001999999KA1120N+02631MA1999999096891MD1999999-0141REMSYN004BUFR
0156829830999992015112318004-09380-040480FM-12+037099999V0201401N0026199999999020000199+03651+02201100311ADDAA101999999AZ101061AZ201061GA1011+006001081GA2999+999999021GE19MSL   +99999+99999GF103991011999006001999999MD1999999-0181REMSYN004BUFREQDQ01993.1 3APOSP 
0136829830999992015112400004-09380-040480FM-12+037099999V0200901N0015199999999002000199+03351+02171100381ADDAA101999999AZ101061AZ201061GA1021+006001081GE19MSL   +99999+99999GF102991021999006001999999MA1999999096381MD1999999-0281REMSYN004BUFR
0165829830999992015112412004-09380-040480FM-12+037099999V0200901N0031199999999020000199+03021+02131100831ADDAA101999999AZ101061AZ201061GA1021+006001031GA2999+999999021GE19MSL   +99999+99999GF105991021999006001999999KA1120N+02181MA1999999096821MD1999999-0071REMSYN004BUFR
0168829830999992015112418004-09380-040480FM-12+037099999V0201801N0026199999999020000199+03591+02031100341ADDAA101999999AZ101061AZ201061GA1041+006001081GA2999+999999051GA3999+999999021GE19MSL   +99999+99999GF108991041999006001999999MA1999999096341MD1999999+0031REMSYN004BUFR
0152829830999992015112500004-09380-040480FM-12+037099999V0202301N0015199999999002000199+03091+02121100661ADDAA101999999AZ101061AZ201061GA1031+006001031GA2999+999999021GE19MSL   +99999+99999GF105991031999006001999999MA1999999096631MD1999999+0251REMSYN004BUFR
0149829830999992015112512004-09380-040480FM-12+037099999V0203601N0031199999999020000199+03121+02171101011ADDAA101999999AZ101061AZ201061GA1041+006001081GE19MSL   +99999+99999GF104991041999006001999999KA1120N+02761MA1999999096971MD1999999+0151REMSYN004BUFR
0136829830999992015112518004-09380-040480FM-12+037099999V0203601N0026199999999020000199+03691+02341100511ADDAA101999999AZ101061AZ201061GA1031+006001081GE19MSL   +99999+99999GF103991031999006001999999MA1999999096511MD1999999+0171REMSYN004BUFR
0136829830999992015112600004-09380-040480FM-12+037099999V0203601N0010199999999002000199+03351+02531100691ADDAA101999999AZ101061AZ201061GA1041+006001061GE19MSL   +99999+99999GF104991041999006001999999MA1999999096691MD1999999+0061REMSYN004BUFR
0149829830999992015112612004-09380-040480FM-12+037099999V0201401N0031199999999020000199+03171+02131100961ADDAA101999999AZ101061AZ201061GA1021+006001081GE19MSL   +99999+99999GF106991021999006001999999KA1120N+02851MA1999999096981MD1999999-0021REMSYN004BUFR
0152829830999992015112618004-09380-040480FM-12+037099999V0203201N0015199999999020000199+03721+02431100421ADDAA101999999AZ101061AZ201061GA1031+006001081GA2999+999999051GE19MSL   +99999+99999GF106991031999006001999999MA1999999096441MD1999999-0031REMSYN004BUFR
0136829830999992015112700004-09380-040480FM-12+037099999V0200501N0010199999999002000199+03421+02391100671ADDAA101999999AZ101061AZ201061GA1021+006001081GE19MSL   +99999+99999GF102991021999006001999999MA1999999096681MD1999999-0011REMSYN004BUFR
0165829830999992015112712004-09380-040480FM-12+037099999V0200901N0031199999999020000199+03171+01981100991ADDAA101999999AZ101061AZ201061GA1021+006001081GA2999+999999051GE19MSL   +99999+99999GF106991021999006001999999KA1120N+02891MA1999999096991MD1999999+0041REMSYN004BUFR
0152829830999992015112718004-09380-040480FM-12+037099999V0201401N0026199999999020000199+03671+02181100391ADDAA101999999AZ101061AZ201061GA1021+006001081GA2999+999999001GE19MSL   +99999+99999GF106991021999006001999999MA1999999096411MD1999999-0031REMSYN004BUFR
0136829830999992015112800004-09380-040480FM-12+037099999V0201401N0015199999999002000199+03171+02281100621ADDAA101999999AZ101061AZ201061GA1021+006001081GE19MSL   +99999+99999GF102991021999006001999999MA1999999096621MD1999999-0061REMSYN004BUFR
0149829830999992015112812004-09380-040480FM-12+037099999V0201401N0051199999999020000199+02991+02111101091ADDAA101999999AZ101061AZ201061GA1021+006001081GE19MSL   +99999+99999GF102991021999006001999999KA1120N+02631MA1999999097051MD1999999+0061REMSYN004BUFR
0136829830999992015112818004-09380-040480FM-12+037099999V0200901N0015199999999020000199+03621+02081100581ADDAA101999999AZ101061AZ201061GA1041+006001081GE19MSL   +99999+99999GF104991041999006001999999MA1999999096571MD1999999+0161REMSYN004BUFR
0152829830999992015112900004-09380-040480FM-12+037099999V0201401N0015199999999002000199+03271+02001100771ADDAA101999999AZ101061AZ201061GA1041+006001081GA2999+999999041GE19MSL   +99999+99999GF106991041999006001999999MA1999999096751MD1999999+0131REMSYN004BUFR
0149829830999992015112912004-09380-040480FM-12+037099999V0201401N0031199999999010000199+02891+02101101261ADDAA101999999AZ101061AZ201061GA1021+006001081GE19MSL   +99999+99999GF102991021999006001999999KA1120N+02551MA1999999097221MD1999999+0171REMSYN004BUFR
0136829830999992015112918004-09380-040480FM-12+037099999V0201401N0031199999999020000199+03691+02161100691ADDAA101999999AZ101061AZ201061GA1041+006001081GE19MSL   +99999+99999GF104991041999006001999999MA1999999096681MD1999999+0111REMSYN004BUFR
0098829830999992015113000004-09380-040480FM-12+037099999V0201401N0015122000199002000199+03441+01841100841ADDAA101999999AZ101061AZ201061GF100991999999999999999999MA1999999096821MD1999999+0071REMSYN004BUFR
0111829830999992015113012004-09380-040480FM-12+037099999V0201401N0041122000199020000199+02821+01911101351ADDAA101999999AZ101061AZ201061GF100991999999999999999999KA1120N+02791MA1999999097311MD1999999+0091REMSYN004BUFR
0136829830999992015113018004-09380-040480FM-12+037099999V0201401N0015199999999020000199+03641+01651100821ADDAA101999999AZ101061AZ201061GA1021+006001081GE19MSL   +99999+99999GF102991021999006001999999MA1999999096781MD1999999+0101REMSYN004BUFR
0098829830999992015120100004-09380-040480FM-12+037099999V0201401N0015122000199002000199+03291+01681101011ADDAA101999999AZ101061AZ201061GF100991999999999999999999MA1999999096971MD1999999+0151REMSYN004BUFR
0149829830999992015120112004-09380-040480FM-12+037099999V0201401N0031199999999020000199+02841+02071101391ADDAA101999999AZ101061AZ201061GA1021+006001081GE19MSL   +99999+99999GF102991021999006001999999KA1120N+02151MA1999999097331MD1999999+0021REMSYN004BUFR
0136829830999992015120200004-09380-040480FM-12+037099999V0201401N0051199999999002000199+03351+01601100951ADDAA101999999AZ101061AZ201061GA1021+006001031GE19MSL   +99999+99999GF102991021999006001999999MA1999999096921MD1999999-0051REMSYN004BUFR
0149829830999992015120212004-09380-040480FM-12+037099999V0201401N0041199999999020000199+02771+01851101351ADDAA101999999AZ101061AZ201061GA1021+006001081GE19MSL   +99999+99999GF102991021999006001999999KA1120N+02391MA1999999097291MD1999999-0041REMSYN004BUFR
0136829830999992015120300004-09380-040480FM-12+037099999V0201401N0031199999999002000199+03271+01861100861ADDAA101999999AZ101061AZ201061GA1021+006001081GE19MSL   +99999+99999GF102991021999006001999999MA1999999096821MD1999999-0101REMSYN004BUFR
0149829830999992015120312004-09380-040480FM-12+037099999V0201401N0015199999999020000199+02941+02031101261ADDAA101999999AZ101061AZ201061GA1999+006001021GE19MSL   +99999+99999GF102991999999006001999999KA1120N+02491MA1999999097221MD1999999-0071REMSYN004BUFR
0098829830999992015120400004-09380-040480FM-12+037099999V0201401N0010122000199002000199+03251+02151100811ADDAA101999999AZ101061AZ201061GF100991999999999999999999MA1999999096781MD1999999-0041REMSYN004BUFR
0149829830999992015120412004-09380-040480FM-12+037099999V0200501N0031199999999020000199+03121+01891101121ADDAA101999999AZ101061AZ201061GA1011+006001081GE19MSL   +99999+99999GF101991011999006001999999KA1120N+02671MA1999999097101MD1999999-0121REMSYN004BUFR
0152829830999992015120500004-09380-040480FM-12+037099999V0203601N0010199999999002000199+03371+02161100751ADDAA101999999AZ101061AZ201061GA1011+006001081GA2999+999999031GE19MSL   +99999+99999GF103991011999006001999999MA1999999096751MD1999999-0031REMSYN004BUFR
0165829830999992015120512004-09380-040480FM-12+037099999V0203601N0031199999999020000199+03171+01981101121ADDAA101999999AZ101061AZ201061GA1021+006001081GA2999+999999041GE19MSL   +99999+99999GF107991021999006001999999KA1120N+02891MA1999999097121MD1999999-0081REMSYN004BUFR
0152829830999992015120600004-09380-040480FM-12+037099999V0202301N0015199999999002000199+03241+02191100871ADDAA101999999AZ101061AZ201061GA1021+006001081GA2999+999999031GE19MSL   +99999+99999GF103991021999006001999999MA1999999096861MD1999999+0111REMSYN004BUFR
0165829830999992015120612004-09380-040480FM-12+037099999V0203601N0051199999999010000199+02741+02191101271ADDAA101999999AZ101061AZ201061GA1021+006001081GA2999+999999051GE19MSL   +99999+99999GF106991021999006001999999KA1120N+02731MA1999999097211MD1999999+0091REMSYN004BUFR
0098829830999992015120700004-09380-040480FM-12+037099999V0201801N0041122000199002000199+03121+02081101011ADDAA101999999AZ101061AZ201061GF100991999999999999999999MA1999999096951MD1999999+0091REMSYN004BUFR
0149829830999992015120712004-09380-040480FM-12+037099999V0200901N0031100600199020000199+03221+02171101151ADDAA101999999AZ101061AZ201061GA1051+006001081GE19MSL   +99999+99999GF105991051999006001999999KA1120N+02731MA1999999097121MD1999999-0091REMSYN004BUFR
0136829830999992015120800004-09380-040480FM-12+037099999V0200501N0031199999999002000199+03341+01951100791ADDAA101999999AZ101061AZ201061GA1041+006001081GE19MSL   +99999+99999GF104991041999006001999999MA1999999096801MD1999999-0151REMSYN004BUFR
0149829830999992015120812004-09380-040480FM-12+037099999V0200901N0026199999999020000199+02991+02171101211ADDAA101999999AZ101061AZ201061GA1011+006001081GE19MSL   +99999+99999GF101991011999006001999999KA1120N+02521MA1999999097181MD1999999+0061REMSYN004BUFR
0098829830999992015120900004-09380-040480FM-12+037099999V0200901N0026122000199002000199+03271+01891100961ADDAA101999999AZ101061AZ201061GF100991999999999999999999MA1999999096941MD1999999+0141REMSYN004BUFR
0149829830999992015120912004-09380-040480FM-12+037099999V0201401N0031199999999020000199+02791+01951101451ADDAA101999999AZ101061AZ201061GA1041+006001081GE19MSL   +99999+99999GF104991041999006001999999KA1120N+02331MA1999999097391MD1999999+0211REMSYN004BUFR
0098829830999992015121000004-09380-040480FM-12+037099999V0201401N0026122000199002000199+03221+01841101011ADDAA101999999AZ101061AZ201061GF100991999999999999999999MA1999999096961MD1999999+0021REMSYN004BUFR
0149829830999992015121012004-09380-040480FM-12+037099999V0201401N0031100600199020000199+02721+01881101441ADDAA101999999AZ101061AZ201061GA1051+006001081GE19MSL   +99999+99999GF105991051999006001999999KA1120N+02431MA1999999097361MD1999999-0031REMSYN004BUFR
0098829830999992015121100004-09380-040480FM-12+037099999V0201401N0015122000199002000199+03251+01981101031ADDAA101999999AZ101061AZ201061GF100991999999999999999999MA1999999096981MD1999999+0021REMSYN004BUFR
0111829830999992015121112004-09380-040480FM-12+037099999V0201401N0031122000199020000199+02791+02031101401ADDAA101999999AZ101061AZ201061GF100991999999999999999999KA1120N+02581MA1999999097341MD1999999-0021REMSYN004BUFR
0098829830999992015121200004-09380-040480FM-12+037099999V0200901N0015122000199002000199+03341+02281100961ADDAA101999999AZ101061AZ201061GF100991999999999999999999MA1999999096921MD1999999-0061REMSYN004BUFR
0111829830999992015121212004-09380-040480FM-12+037099999V0201401N0031122000199020000199+02951+02071101311ADDAA101999999AZ101061AZ201061GF100991999999999999999999KA1120N+02111MA1999999097271MD1999999-0071REMSYN004BUFR
0136829830999992015121300004-09380-040480FM-12+037099999V0201801N0015199999999002000199+03021+01431100981ADDAA101999999AZ101061AZ201061GA1021+006001081GE19MSL   +99999+99999GF102991021999006001999999MA1999999096931MD1999999+0011REMSYN004BUFR
0111829830999992015121312004-09380-040480FM-12+037099999V0201401N0041122000199020000199+02791+02031101331ADDAA101999999AZ101061AZ201061GF100991999999999999999999KA1120N+02561MA1999999097251MD1999999-0021REMSYN004BUFR
0098829830999992015121400004-09380-040480FM-12+037099999V0200901N0041122000199002000199+03291+01801100871ADDAA101999999AZ101061AZ201061GF100991999999999999999999MA1999999096831MD1999999-0101REMSYN004BUFR
0111829830999992015121412004-09380-040480FM-12+037099999V0201401N0051122000199020000199+02841+01881101231ADDAA101999999AZ101061AZ201061GF100991999999999999999999KA1120N+02471MA1999999097181MD1999999-0071REMSYN004BUFR
0098829830999992015121500004-09380-040480FM-12+037099999V0201401N0041122000199002000199+02921+02061101001ADDAA101999999AZ101061AZ201061GF100991999999999999999999MA1999999096931MD1999999+0101REMSYN004BUFR
0111829830999992015121512004-09380-040480FM-12+037099999V0201401N0051122000199020000199+02841+01881101231ADDAA101999999AZ101061AZ201061GF100991999999999999999999KA1120N+02471MA1999999097181MD1999999-0071REMSYN004BUFR
0098829830999992015121600004-09380-040480FM-12+037099999V0201401N0026122000199002000199+03141+01871100971ADDAA101999999AZ101061AZ201061GF100991999999999999999999MA1999999096901MD1999999-0031REMSYN004BUFR
0149829830999992015121612004-09380-040480FM-12+037099999V0201401N0031199999999020000199+02751+01971101301ADDAA101999999AZ101061AZ201061GA1011+006001031GE19MSL   +99999+99999GF101991011999006001999999KA1120N+02441MA1999999097231MD1999999-0031REMSYN004BUFR
0136829830999992015121700004-09380-040480FM-12+037099999V0201401N0015199999999002000199+03271+02101100911ADDAA101999999AZ101061AZ201061GA1031+006001081GE19MSL   +99999+99999GF103991031999006001999999MA1999999096861MD1999999-0041REMSYN004BUFR
0165829830999992015121712004-09380-040480FM-12+037099999V0201401N0031199999999020000199+02791+02031101341ADDAA101999999AZ101061AZ201061GA1031+006001081GA2999+999999001GE19MSL   +99999+99999GF106991031999006001999999KA1120N+02501MA1999999097281MD1999999+0051REMSYN004BUFR
0136829830999992015121800004-09380-040480FM-12+037099999V0200901N0021199999999002000199+03241+01961100971ADDAA101999999AZ101061AZ201061GA1011+006001081GE19MSL   +99999+99999GF101991011999006001999999MA1999999096921MD1999999+0061REMSYN004BUFR
0181829830999992015121812004-09380-040480FM-12+037099999V0201401N0041199999999020000199+02721+01951101371ADDAA101999999AZ101061AZ201061GA1031+006001081GA2999+999999031GA3999+999999001GE19MSL   +99999+99999GF106991031999006001999999KA1120N+02421MA1999999097301MD1999999+0021REMSYN004BUFR
0136829830999992015121900004-09380-040480FM-12+037099999V0201401N0026100600199002000199+03191+01991100951ADDAA101999999AZ101061AZ201061GA1051+006001081GE19MSL   +99999+99999GF105991051999006001999999MA1999999096891MD1999999-0031REMSYN004BUFR
0165829830999992015121912004-09380-040480FM-12+037099999V0201401N0046199999999020000199+02791+02081101331ADDAA101999999AZ101061AZ201061GA1041+006001081GA2999+999999051GE19MSL   +99999+99999GF107991041999006001999999KA1120N+02571MA1999999097261MD1999999-0041REMSYN004BUFR
0136829830999992015122000004-09380-040480FM-12+037099999V0200901N0036199999999002000199+02871+02211101141ADDAA101999999AZ101061AZ201061GA1041+006001081GE19MSL   +99999+99999GF107991041999006001999999MA1999999097061MD1999999+0171REMSYN004BUFR
