0111832360999992015073012004-12150-045000FM-12+043999999V0202301N0010122000199020000199+02251+01501101731ADDAA101999999AZ101061AZ201061GF100991999999999999999999KA1120N+01531MA1999999096791MD1999999+0021REMSYN004BUFR
0098832360999992015073100004-12150-045000FM-12+043999999V0202301N0010122000199020000199+02201+01131101441ADDAA101999999AZ101061AZ201061GF100991999999999999999999MA1999999096491MD1999999+0001REMSYN004BUFR
0111832360999992015073112004-12150-045000FM-12+043999999V0203601N0000122000199020000199+02191+01251101761ADDAA101999999AZ101061AZ201061GF100991999999999999999999KA1120N+01581MA1999999096791MD1999999+0031REMSYN004BUFR
0098832360999992015080100004-12150-045000FM-12+043999999V0202301N0021122000199020000199+02471+00831101421ADDAA101999999AZ101061AZ201061GF100991999999999999999999MA1999999096501MD1999999+0011REMSYN004BUFR
0111832360999992015080112004-12150-045000FM-12+043999999V0201401N0015122000199020000199+02271+01241101711ADDAA101999999AZ101061AZ201061GF100991999999999999999999KA1120N+01591MA1999999096781MD1999999-0011REMSYN004BUFR
0165832360999992015080212004-12150-045000FM-12+043999999V0200501N0031199999999020000199+02491+01531101531ADDAA101999999AZ101061AZ201061GA1011+006001081GA2999+999999001GE19MSL   +99999+99999GF102991011999006001999999KA1120N+01831MA1999999096601MD1999999-0181REMSYN004BUFR
0111832360999992015080312004-12150-045000FM-12+043999999V0203601N0000122000199020000199+02091+01161101721ADDAA101999999AZ101061AZ201061GF100991999999999999999999KA1120N+01431MA1999999096761MD1999999+0161REMSYN004BUFR
0098832360999992015080400004-12150-045000FM-12+043999999V0202301N0015122000199020000199+02221+01121101471ADDAA101999999AZ101061AZ201061GF100991999999999999999999MA1999999096501MD1999999+0161REMSYN004BUFR
0111832360999992015080412004-12150-045000FM-12+043999999V0203601N0000122000199020000199+02151+01221101731ADDAA101999999AZ101061AZ201061GF100991999999999999999999KA1120N+01341MA1999999096761MD1999999+0001REMSYN004BUFR
0098832360999992015080500004-12150-045000FM-12+043999999V0202301N0015122000199020000199+02471+00831101401ADDAA101999999AZ101061AZ201061GF100991999999999999999999MA1999999096461MD1999999-0041REMSYN004BUFR
0111832360999992015080512004-12150-045000FM-12+043999999V0200901N0031122000199020000199+02301+01061101691ADDAA101999999AZ101061AZ201061GF100991999999999999999999KA1120N+01351MA1999999096761MD1999999+0001REMSYN004BUFR
0098832360999992015080600004-12150-045000FM-12+043999999V0202301N0015122000199020000199+02191+01081101441ADDAA101999999AZ101061AZ201061GF100991999999999999999999MA1999999096491MD1999999+0031REMSYN004BUFR
0111832360999992015080612004-12150-045000FM-12+043999999V0203601N0000122000199020000199+02041+00921101601ADDAA101999999AZ101061AZ201061GF100991999999999999999999KA1120N+01221MA1999999096621MD1999999-0141REMSYN004BUFR
0098832360999992015080700004-12150-045000FM-12+043999999V0203601N0000122000199020000199+02151+01301101341ADDAA101999999AZ101061AZ201061GF100991999999999999999999MA1999999096371MD1999999-0121REMSYN004BUFR
0111832360999992015080712004-12150-045000FM-12+043999999V0203601N0000122000199020000199+02091+01131101521ADDAA101999999AZ101061AZ201061GF100991999999999999999999KA1120N+01341MA1999999096541MD1999999-0081REMSYN004BUFR
0136832360999992015080800004-12150-045000FM-12+043999999V0202301N0026199999999020000199+02651+01151101201ADDAA101999999AZ101061AZ201061GA1021+006001081GE19MSL   +99999+99999GF102991021999006001999999MA1999999096291MD1999999-0081REMSYN004BUFR
0149832360999992015080812004-12150-045000FM-12+043999999V0202301N0010199999999020000199+02301+01221101461ADDAA101999999AZ101061AZ201061GA1999+080001001GE19MSL   +99999+99999GF103991999999080001999999KA1120N+01531MA1999999096561MD1999999+0021REMSYN004BUFR
0111832360999992015080912004-12150-045000FM-12+043999999V0203601N0015122000199020000199+02341+01131101601ADDAA101999999AZ101061AZ201061GF100991999999999999999999KA1120N+01541MA1999999096681MD1999999+0121REMSYN004BUFR
0111832360999992015081012004-12150-045000FM-12+043999999V0200501N0005122000199020000199+02341+01381101741ADDAA101999999AZ101061AZ201061GF100991999999999999999999KA1120N+01601MA1999999096791MD1999999+0111REMSYN004BUFR
0098832360999992015081100004-12150-045000FM-12+043999999V0201401N0021122000199020000199+02641+01131101491ADDAA101999999AZ101061AZ201061GF100991999999999999999999MA1999999096591MD1999999+0141REMSYN004BUFR
0149832360999992015081112004-12150-045000FM-12+043999999V0203201N0010199999999020000199+02271+01511101811ADDAA101999999AZ101061AZ201061GA1041+006001081GE19MSL   +99999+99999GF104991041999006001999999KA1120N+01871MA1999999096891MD1999999+0101REMSYN004BUFR
0098832360999992015081200004-12150-045000FM-12+043999999V0201401N0036122000199020000199+02571+00921101491ADDAA101999999AZ101061AZ201061GF100991999999999999999999MA1999999096571MD1999999-0021REMSYN004BUFR
0111832360999992015081212004-12150-045000FM-12+043999999V0200501N0041122000199020000199+02191+01111101871ADDAA101999999AZ101061AZ201061GF100991999999999999999999KA1120N+01651MA1999999096941MD1999999+0051REMSYN004BUFR
0098832360999992015081300004-12150-045000FM-12+043999999V0201401N0031122000199020000199+02341+00681101571ADDAA101999999AZ101061AZ201061GF100991999999999999999999MA1999999096621MD1999999+0051REMSYN004BUFR
0111832360999992015081312004-12150-045000FM-12+043999999V0200501N0005122000199020000199+02191+01051101971ADDAA101999999AZ101061AZ201061GF100991999999999999999999KA1120N+01581MA1999999097001MD1999999+0061REMSYN004BUFR
0098832360999992015081400004-12150-045000FM-12+043999999V0201401N0026122000199020000199+02321+00861101571ADDAA101999999AZ101061AZ201061GF100991999999999999999999MA1999999096631MD1999999+0011REMSYN004BUFR
0111832360999992015081412004-12150-045000FM-12+043999999V0202301N0005122000199020000199+02191+01011101811ADDAA101999999AZ101061AZ201061GF100991999999999999999999KA1120N+01391MA1999999096851MD1999999+0151REMSYN004BUFR
0098832360999992015081500004-12150-045000FM-12+043999999V0201801N0010122000199020000199+02591+01171101511ADDAA101999999AZ101061AZ201061GF100991999999999999999999MA1999999096591MD1999999+0041REMSYN004BUFR
0149832360999992015081512004-12150-045000FM-12+043999999V0200901N0005199999999020000199+02471+01461101681ADDAA101999999AZ101061AZ201061GA1031+006001081GE19MSL   +99999+99999GF103991031999006001999999KA1120N+01671MA1999999096781MD1999999-0071REMSYN004BUFR
0165832360999992015081612004-12150-045000FM-12+043999999V0201401N0026199999999020000199+02441+01661101651ADDAA101999999AZ101061AZ201061GA1011+006001081GA2999+999999031GE19MSL   +99999+99999GF106991011999006001999999KA1120N+01981MA1999999096751MD1999999-0031REMSYN004BUFR
0111832360999992015081712004-12150-045000FM-12+043999999V0203601N0000122000199020000199+02351+01201101771ADDAA101999999AZ101061AZ201061GF100991999999999999999999KA1120N+01731MA1999999096831MD1999999+0081REMSYN004BUFR
0098832360999992015081800004-12150-045000FM-12+043999999V0200501N0036122000199020000199+02751+00851101361ADDAA101999999AZ101061AZ201061GF100991999999999999999999MA1999999096481MD1999999+0001REMSYN004BUFR
0165832360999992015081812004-12150-045000FM-12+043999999V0201401N0036199999999020000199+02621+01421101591ADDAA101999999AZ101061AZ201061GA1021+006001081GA2999+999999001GE19MSL   +99999+99999GF104991021999006001999999KA1120N+01871MA1999999096731MD1999999-0101REMSYN004BUFR
0098832360999992015081900004-12150-045000FM-12+043999999V0203201N0015122000199020000199+02241+01171101231ADDAA101999999AZ101061AZ201061GF100991999999999999999999MA1999999096341MD1999999-0141REMSYN004BUFR
0149832360999992015081912004-12150-045000FM-12+043999999V0201401N0005199999999020000199+02451+01521101561ADDAA101999999AZ101061AZ201061GA1041+006001081GE19MSL   +99999+99999GF104991041999006001999999KA1120N+01531MA1999999096641MD1999999-0091REMSYN004BUFR
0152832360999992015082000004-12150-045000FM-12+043999999V0202301N0010199999999020000199+02641+01371101081ADDAA101999999AZ101061AZ201061GA1021+006001081GA2999+999999031GE19MSL   +99999+99999GF105991021999006001999999MA1999999096211MD1999999-0131REMSYN004BUFR
0149832360999992015082012004-12150-045000FM-12+043999999V0200501N0010199999999020000199+02541+01311101341ADDAA101999999AZ101061AZ201061GA1999+080001001GE19MSL   +99999+99999GF104991999999080001999999KA1120N+01771MA1999999096471MD1999999-0171REMSYN004BUFR
0136832360999992015082100004-12150-045000FM-12+043999999V0203201N0005100600199020000199+02491+01641101101ADDAA101999999AZ101061AZ201061GA1051+006001081GE19MSL   +99999+99999GF105991051999006001999999MA1999999096221MD1999999+0011REMSYN004BUFR
0171832360999992015082112004-12150-045000FM-12+043999999V0200501N0010199999999020000199+02421+01281101321ADDAA101999999AY101061AY201061GA1031+006001081GA2999+999999001GE19MSL   +99999+99999GF104991031999006001999999KA1120N+01631MA1999999096421MD1999999-0051MW1061REMSYN004BUFR
0136832360999992015082200004-12150-045000FM-12+043999999V0201401N0005199999999020000199+02521+01191101061ADDAA101999999AZ101061AZ201061GA1031+017501031GE19MSL   +99999+99999GF103991031999017501999999MA1999999096171MD1999999-0051REMSYN004BUFR
0149832360999992015082212004-12150-045000FM-12+043999999V0203601N0000199999999020000199+02521+01291101231ADDAA101999999AZ101061AZ201061GA1999+080001001GE19MSL   +99999+99999GF102991999999080001999999KA1120N+01631MA1999999096351MD1999999-0071REMSYN004BUFR
0165832360999992015082312004-12150-045000FM-12+043999999V0200501N0005199999999020000199+02671+01451101211ADDAA101999999AZ101061AZ201061GA1031+006001081GA2999+999999001GE19MSL   +99999+99999GF105991031999006001999999KA1120N+02031MA1999999096341MD1999999-0011REMSYN004BUFR
0111832360999992015082412004-12150-045000FM-12+043999999V0200501N0051122000199020000199+02721+01441101261ADDAA101999999AZ101061AZ201061GF100991999999999999999999KA1120N+02151MA1999999096391MD1999999+0051REMSYN004BUFR
0136832360999992015082500004-12150-045000FM-12+043999999V0202301N0010199999999020000199+02491+01421100901ADDAA101999999AZ101061AZ201061GA1021+006001081GE19MSL   +99999+99999GF102991021999006001999999MA1999999096051MD1999999-0051REMSYN004BUFR
0111832360999992015082512004-12150-045000FM-12+043999999V0200501N0015122000199020000199+02591+01211101361ADDAA101999999AZ101061AZ201061GF100991999999999999999999KA1120N+01761MA1999999096481MD1999999+0091REMSYN004BUFR
0136832360999992015082600004-12150-045000FM-12+043999999V0202301N0010100600199020000199+02641+01261101011ADDAA101999999AZ101061AZ201061GA1061+006001031GE19MSL   +99999+99999GF106991061999006001999999MA1999999096151MD1999999+0101REMSYN004BUFR
0117832360999992015082612004-12150-045000FM-12+043999999V0200501N0005122000199020000199+02491+01161101341ADDAA101999999AY101061AY201061GF100991999999999999999999KA1120N+01661MA1999999096461MD1999999-0021MW1061REMSYN004BUFR
0084832360999992015082700004-12150-045000FM-12+043999999V0202301N0015122000199020000199+02201+99999101131ADDAA101999999AZ101061AZ201061GF100991999999999999999999MA1999999096221REMSYN004BUFR
0117832360999992015082712004-12150-045000FM-12+043999999V0201401N0005122000199020000199+02271+00811101411ADDAA101999999AY101061AY201061GF100991999999999999999999KA1120N+01381MA1999999096461MD1999999+0001MW1061REMSYN004BUFR
0098832360999992015082800004-12150-045000FM-12+043999999V0202301N0015122000199020000199+02691+01111101041ADDAA101999999AZ101061AZ201061GF100991999999999999999999MA1999999096161MD1999999-0061REMSYN004BUFR
0117832360999992015082812004-12150-045000FM-12+043999999V0200501N0031122000199020000199+02701+01201101301ADDAA101999999AY101061AY201061GF100991999999999999999999KA1120N+01531MA1999999096451MD1999999-0011MW1061REMSYN004BUFR
0098832360999992015082900004-12150-045000FM-12+043999999V0201401N0015122000199020000199+02741+00851101071ADDAA101999999AZ101061AZ201061GF100991999999999999999999MA1999999096241MD1999999+0081REMSYN004BUFR
0117832360999992015082912004-12150-045000FM-12+043999999V0200501N0026122000199020000199+02591+01351101521ADDAA101999999AY101061AY201061GF100991999999999999999999KA1120N+01831MA1999999096661MD1999999+0211MW1061REMSYN004BUFR
0149832360999992015083012004-12150-045000FM-12+043999999V0200501N0036199999999020000199+02691+01411101581ADDAA101999999AZ101061AZ201061GA1021+006001081GE19MSL   +99999+99999GF102991021999006001999999KA1120N+01761MA1999999096721MD1999999+0061REMSYN004BUFR
0165832360999992015083112004-12150-045000FM-12+043999999V0201401N0005199999999020000199+02471+01461101591ADDAA101999999AZ101061AZ201061GA1021+006001081GA2999+999999001GE19MSL   +99999+99999GF104991021999006001999999KA1120N+01741MA1999999096711MD1999999-0011REMSYN004BUFR
0136832360999992015090100004-12150-045000FM-12+043999999V0201401N0015199999999020000199+02791+00781101261ADDAA101999999AZ101061AZ201061GA1999+080001001GE19MSL   +99999+99999GF103991999999080001999999MA1999999096401MD1999999-0031REMSYN004BUFR
0165832360999992015090112004-12150-045000FM-12+043999999V0200501N0031199999999020000199+02541+01231101571ADDAA101999999AZ101061AZ201061GA1031+017501081GA2999+999999001GE19MSL   +99999+99999GF104991031999017501999999KA1120N+01641MA1999999096701MD1999999-0011REMSYN004BUFR
0136832360999992015090200004-12150-045000FM-12+043999999V0202301N0005199999999020000199+02271+01031101271ADDAA101999999AZ101061AZ201061GA1021+017501051GE19MSL   +99999+99999GF102991021999017501999999MA1999999096281MD1999999-0121REMSYN004BUFR
0117832360999992015090212004-12150-045000FM-12+043999999V0203201N0005122000199020000199+02271+00891101481ADDAA101999999AY101061AY201061GF100991999999999999999999KA1120N+01331MA1999999096531MD1999999-0171MW1061REMSYN004BUFR
0098832360999992015090300004-12150-045000FM-12+043999999V0203601N0000122000199020000199+02391+00921101091ADDAA101999999AZ101061AZ201061GF100991999999999999999999MA1999999096181MD1999999-0101REMSYN004BUFR
0117832360999992015090312004-12150-045000FM-12+043999999V0202301N0005122000199020000199+02491+01011101421ADDAA101999999AY161061AY261061GF100991999999999999999999KA1120N+01591MA1999999096541MD1999999+0011MW1051REMSYN004BUFR
0104832360999992015090400004-12150-045000FM-12+043999999V0203601N0000122000199020000199+02291+01081101121ADDAA101999999AY141061AY241061GF100991999999999999999999MA1999999096221MD1999999+0041MW1041REMSYN004BUFR
0117832360999992015090412004-12150-045000FM-12+043999999V0203601N0000122000199020000199+02441+00851101441ADDAA101999999AY141061AY241061GF100991999999999999999999KA1120N+01441MA1999999096521MD1999999-0021MW1051REMSYN004BUFR
0117832360999992015090512004-12150-045000FM-12+043999999V0203601N0000122000199020000199+02401+00861101361ADDAA101999999AY141061AY241061GF100991999999999999999999KA1120N+01511MA1999999096441MD1999999-0081MW1051REMSYN004BUFR
0155832360999992015090612004-12150-045000FM-12+043999999V0200501N0026199999999020000199+02991+00661101241ADDAA101999999AY141061AY241061GA1999+080001001GE19MSL   +99999+99999GF103991999999080001999999KA1120N+01711MA1999999096391MD1999999-0051MW1051REMSYN004BUFR
0155832360999992015090712004-12150-045000FM-12+043999999V0200501N0031199999999020000199+02921+01301101201ADDAA101999999AY141061AY241061GA1999+080001001GE19MSL   +99999+99999GF103991999999080001999999KA1120N+01961MA1999999096381MD1999999-0011MW1051REMSYN004BUFR
0155832360999992015090812004-12150-045000FM-12+043999999V0200501N0041199999999020000199+02801+01171101121ADDAA101999999AY141061AY241061GA1999+080001001GE19MSL   +99999+99999GF102991999999080001999999KA1120N+02271MA1999999096331MD1999999-0051MW1051REMSYN004BUFR
0171832360999992015090912004-12150-045000FM-12+043999999V0200501N0041199999999020000199+02871+01181101081ADDAA101999999AY141061AY241061GA1021+006001081GA2999+999999001GE19MSL   +99999+99999GF105991021999006001999999KA1120N+02131MA1999999096291MD1999999-0041MW1051REMSYN004BUFR
0117832360999992015091012004-12150-045000FM-12+043999999V0203201N0005122000199020000199+02641+01501101261ADDAA101999999AY141061AY241061GF100991999999999999999999KA1120N+01821MA1999999096381MD1999999+0091MW1051REMSYN004BUFR
0155832360999992015091112004-12150-045000FM-12+043999999V0200501N0031199999999020000199+02691+01191101171ADDAA101999999AY141061AY241061GA1999+080001001GE19MSL   +99999+99999GF103991999999080001999999KA1120N+02261MA1999999096371MD1999999-0011MW1051REMSYN004BUFR
0117832360999992015091212004-12150-045000FM-12+043999999V0200501N0031122000199020000199+02791+00931101251ADDAA101999999AY141061AY241061GF100991999999999999999999KA1120N+01571MA1999999096401MD1999999+0031MW1051REMSYN004BUFR
0155832360999992015091312004-12150-045000FM-12+043999999V0203601N0000199999999020000199+02771+02121101261ADDAA101999999AY141061AY241061GA1011+006001081GE19MSL   +99999+99999GF101991011999006001999999KA1120N+01821MA1999999096391MD1999999-0011MW1051REMSYN004BUFR
0165832360999992015091412004-12150-045000FM-12+043999999V0200501N0031199999999020000199+03041+01321101281ADDAA101999999AZ101061AZ201061GA1021+006001081GA2999+999999001GE19MSL   +99999+99999GF104991021999006001999999KA1120N+02221MA1999999096471MD1999999+0081REMSYN004BUFR
0136832360999992015091500004-12150-045000FM-12+043999999V0201401N0005199999999020000199+02941+01691101051ADDAA101999999AZ101061AZ201061GA1031+006001081GE19MSL   +99999+99999GF103991031999006001999999MA1999999096271MD1999999+0201REMSYN004BUFR
0149832360999992015091512004-12150-045000FM-12+043999999V0200501N0051199999999020000199+02841+01521101491ADDAA101999999AZ101061AZ201061GA1999+080001011GE19MSL   +99999+99999GF101991999999080001999999KA1120N+02221MA1999999096671MD1999999+0201REMSYN004BUFR
0136832360999992015091600004-12150-045000FM-12+043999999V0201401N0015199999999020000199+02971+01131101051ADDAA101999999AZ101061AZ201061GA1021+006001081GE19MSL   +99999+99999GF102991021999006001999999MA1999999096251MD1999999-0021REMSYN004BUFR
0136832360999992015091700004-12150-045000FM-12+043999999V0203601N0000199999999020000199+02371+01281101181ADDAA101999999AZ101061AZ201061GA1021+006001081GE19MSL   +99999+99999GF102991021999006001999999MA1999999096291MD1999999+0041REMSYN004BUFR
0111832360999992015091712004-12150-045000FM-12+043999999V0200501N0031122000199020000199+02621+01351101511ADDAA101999999AZ101061AZ201061GF100991999999999999999999KA1120N+01751MA1999999096611MD1999999-0151REMSYN004BUFR
0136832360999992015091800004-12150-045000FM-12+043999999V0201401N0005199999999020000199+02541+01311100971ADDAA101999999AZ101061AZ201061GA1011+006001081GE19MSL   +99999+99999GF101991011999006001999999MA1999999096151MD1999999-0141REMSYN004BUFR
0111832360999992015091812004-12150-045000FM-12+043999999V0200501N0031122000199020000199+02751+01161101371ADDAA101999999AZ101061AZ201061GF100991999999999999999999KA1120N+01821MA1999999096511MD1999999-0101REMSYN004BUFR
0098832360999992015091900004-12150-045000FM-12+043999999V0201401N0005122000199020000199+02441+00991101051ADDAA101999999AZ101061AZ201061GF100991999999999999999999MA1999999096191MD1999999+0051REMSYN004BUFR
0111832360999992015091912004-12150-045000FM-12+043999999V0200501N0010122000199020000199+02721+01341101391ADDAA101999999AZ101061AZ201061GF100991999999999999999999KA1120N+01761MA1999999096511MD1999999+0001REMSYN004BUFR
0149832360999992015092012004-12150-045000FM-12+043999999V0200501N0021101750199020000199+02741+01461101341ADDAA101999999AZ101061AZ201061GA1061+017501031GE19MSL   +99999+99999GF106991061999017501999999KA1120N+01801MA1999999096481MD1999999-0031REMSYN004BUFR
0165832360999992015092112004-12150-045000FM-12+043999999V0200501N0031199999999020000199+02871+01571101221ADDAA101999999AZ101061AZ201061GA1011+017501051GA2999+999999001GE19MSL   +99999+99999GF102991011999017501999999KA1120N+02001MA1999999096401MD1999999-0081REMSYN004BUFR
0136832360999992015092200004-12150-045000FM-12+043999999V0203601N0000199999999020000199+02871+01571100851ADDAA101999999AZ101061AZ201061GA1041+006001081GE19MSL   +99999+99999GF104991041999006001999999MA1999999096061MD1999999-0091REMSYN004BUFR
0149832360999992015092212004-12150-045000FM-12+043999999V0200501N0046199999999020000199+02941+01401101171ADDAA101999999AZ101061AZ201061GA1021+017501031GE19MSL   +99999+99999GF102991021999017501999999KA1120N+01971MA1999999096371MD1999999-0031REMSYN004BUFR
0136832360999992015092300004-12150-045000FM-12+043999999V0200501N0005199999999020000199+03341+01071100741ADDAA101999999AZ101061AZ201061GA1031+006001081GE19MSL   +99999+99999GF103991031999006001999999MA1999999096011MD1999999-0021REMSYN004BUFR
0111832360999992015092312004-12156-045008FM-12+043999999V0200501N0031122000199020000199+02851+01211101111ADDAA101999999AZ101061AZ201061GF100991999999999999999999KA1120N+02061MA1999999096351MD1999999-0021REMSYN004BUFR
0136832360999992015092400004-12156-045008FM-12+043999999V0200501N0005199999999020000199+02821+01251100751ADDAA101999999AZ101061AZ201061GA1999+080001001GE19MSL   +99999+99999GF102991999999080001999999MA1999999095961MD1999999-0051REMSYN004BUFR
0111832360999992015092412004-12156-045008FM-12+043999999V0200501N0036122000199020000199+02941+01101101171ADDAA101999999AZ101061AZ201061GF100991999999999999999999KA1120N+02081MA1999999096371MD1999999+0021REMSYN004BUFR
0098832360999992015092500004-12156-045008FM-12+043999999V0203601N0000122000199020000199+02671+01261100901ADDAA101999999AZ101061AZ201061GF100991999999999999999999MA1999999096091MD1999999+0131REMSYN004BUFR
0117832360999992015092512004-12156-045008FM-12+043999999V0200501N0041122000199020000199+02921+00951101291ADDAA101999999AY101061AY241061GF100991999999999999999999KA1120N+02061MA1999999096461MD1999999+0091MW1051REMSYN004BUFR
0098832360999992015092600004-12156-045008FM-12+043999999V0202301N0010122000199020000199+02671+01011100821ADDAA101999999AZ101061AZ201061GF100991999999999999999999MA1999999096021MD1999999-0071REMSYN004BUFR
0117832360999992015092612004-12156-045008FM-12+043999999V0203601N0000122000199020000199+02821+00691101191ADDAA101999999AY101061AY241061GF100991999999999999999999KA1120N+01751MA1999999096351MD1999999-0111MW1051REMSYN004BUFR
0155832360999992015092712004-12156-045008FM-12+043999999V0200501N0021199999999020000199+02891+00761101161ADDAA101999999AY101061AY241061GA1031+017501081GE19MSL   +99999+99999GF103991031999017501999999KA1120N+02121MA1999999096361MD1999999+0011MW1051REMSYN004BUFR
0117832360999992015092812004-12156-045008FM-12+043999999V0200501N0031122000199020000199+02941+01001101111ADDAA101999999AY101061AY241061GF100991999999999999999999KA1120N+01871MA1999999096291MD1999999-0071MW1051REMSYN004BUFR
0104832360999992015092900004-12156-045008FM-12+043999999V0203201N0015122000199020000199+02991+01711100591ADDAA101999999AY101061AY241061GF100991999999999999999999MA1999999095841MD1999999-0141MW1051REMSYN004BUFR
0155832360999992015092912004-12156-045008FM-12+043999999V0200501N0015199999999020000199+02991+01291101001ADDAA101999999AY101061AY241061GA1999+080001001GE19MSL   +99999+99999GF102991999999080001999999KA1120N+02101MA1999999096231MD1999999-0061MW1051REMSYN004BUFR
0142832360999992015093000004-12156-045008FM-12+043999999V0203601N0000199999999020000199+02801+01411100611ADDAA101999999AY101061AY241061GA1041+006001081GE19MSL   +99999+99999GF104991041999006001999999MA1999999095841MD1999999+0001MW1051REMSYN004BUFR
0155832360999992015093012004-12156-045008FM-12+043999999V0203601N0000199999999010000199+02791+01751100941ADDAA101999999AY101061AY241061GA1999+006001001GE19MSL   +99999+99999GF102991999999006001999999KA1120N+02251MA1999999096131MD1999999-0101MW1051REMSYN004BUFR
0136832360999992015100100004-12156-045008FM-12+043999999V0203601N0000199999999020000199+02821+00571100711ADDAA101999999AZ101061AZ201061GA1021+050001051GE19MSL   +99999+99999GF102991021999050001999999MA1999999095911MD1999999+0071REMSYN004BUFR
0117832360999992015100112004-12156-045008FM-12+043999999V0200501N0036122000199010000199+02891+01281100951ADDAA101999999AY141061AY241061GF100991999999999999999999KA1120N+01841MA1999999096151MD1999999+0021MW1051REMSYN004BUFR
0117832360999992015100212004-12156-045008FM-12+043999999V0200501N0036122000199020000199+02941+01361101081ADDAA101999999AY141061AY241061GF100991999999999999999999KA1120N+02241MA1999999096301MD1999999+0151MW1051REMSYN004BUFR
0117832360999992015100312004-12156-045008FM-12+043999999V0200501N0005122000199020000199+02801+00901101131ADDAA101999999AY141061AY241061GF100991999999999999999999KA1120N+01701MA1999999096311MD1999999+0011MW1051REMSYN004BUFR
0117832360999992015100412004-12156-045008FM-12+043999999V0200501N0036122000199020000199+03001+01071101091ADDAA101999999AY141061AY241061GF100991999999999999999999KA1120N+01871MA1999999096281MD1999999-0031MW1051REMSYN004BUFR
0155832360999992015100512004-12156-045008FM-12+043999999V0200501N0046199999999020000199+03091+01141100951ADDAA101999999AY141061AY241061GA1021+017501031GE19MSL   +99999+99999GF102991021999017501999999KA1120N+01961MA1999999096151MD1999999-0131MW1051REMSYN004BUFR
0155832360999992015100612004-12156-045008FM-12+043999999V0203601N0041100600199020000199+02721+01771101251ADDAA101999999AY141061AY241061GA1051+006001081GE19MSL   +99999+99999GF105991051999006001999999KA1120N+02571MA1999999096461MD1999999+0311MW1051REMSYN004BUFR
0155832360999992015100712004-12156-045008FM-12+043999999V0203601N0000199999999020000199+02741+01801101271ADDAA101999999AY141061AY241061GA1999+080001001GE19MSL   +99999+99999GF102991999999080001999999KA1120N+02061MA1999999096421MD1999999-0041MW1051REMSYN004BUFR
0165832360999992015100812004-12156-045008FM-12+043999999V0200501N0021199999999020000199+02821+01681101231ADDAA101999999AZ101061AZ201061GA1011+017501031GA2999+999999001GE19MSL   +99999+99999GF102991011999017501999999KA1120N+02281MA1999999096421MD1999999+0001REMSYN004BUFR
0149832360999992015100912004-12156-045008FM-12+043999999V0200501N0041199999999020000199+02821+01311101271ADDAA101999999AZ101061AZ201061GA1021+017501031GE19MSL   +99999+99999GF102991021999017501999999KA1120N+02061MA1999999096481MD1999999+0061REMSYN004BUFR
0165832360999992015101012004-12156-045008FM-12+043999999V0200501N0051199999999020000199+02891+01551101291ADDAA101999999AZ101061AZ201061GA1011+017501051GA2999+999999001GE19MSL   +99999+99999GF103991011999017501999999KA1120N+02271MA1999999096461MD1999999-0021REMSYN004BUFR
0149832360999992015101112004-12156-045008FM-12+043999999V0200501N0051199999999020000199+02921+01481101161ADDAA101999999AZ101061AZ201061GA1999+080001001GE19MSL   +99999+99999GF101991999999080001999999KA1120N+02261MA1999999096411MD1999999-0051REMSYN004BUFR
0111832360999992015101212004-12156-045008FM-12+043999999V0200501N0031122000199020000199+02871+01141101261ADDAA101999999AZ101061AZ201061GF100991999999999999999999KA1120N+02051MA1999999096471MD1999999+0061REMSYN004BUFR
0149832360999992015101312004-12156-045008FM-12+043999999V0200501N0026199999999020000199+02851+01121101321ADDAA101999999AZ101061AZ201061GA1999+080001001GE19MSL   +99999+99999GF103991999999080001999999KA1120N+01841MA1999999096511MD1999999+0041REMSYN004BUFR
0111832360999992015101412004-12156-045008FM-12+043999999V0200501N0046122000199020000199+02971+01181101221ADDAA101999999AZ101061AZ201061GF100991999999999999999999KA1120N+01931MA1999999096431MD1999999-0081REMSYN004BUFR
0117832360999992015101512004-12156-045008FM-12+043999999V0200501N0062122000199020000199+02991+01681101211ADDAA101999999AY101061AY201061GF100991999999999999999999KA1120N+02101MA1999999096401MD1999999-0031MW1071REMSYN004BUFR
0111832360999992015101612004-12156-045008FM-12+043999999V0200501N0051122000199020000199+02971+01441101351ADDAA101999999AZ101061AZ201061GF100991999999999999999999KA1120N+02141MA1999999096521MD1999999+0121REMSYN004BUFR
0111832360999992015101712004-12156-045008FM-12+043999999V0200501N0026122000199020000199+03021+01281101291ADDAA101999999AZ101061AZ201061GF100991999999999999999999KA1120N+02061MA1999999096461MD1999999-0061REMSYN004BUFR
0111832360999992015101812004-12156-045008FM-12+043999999V0200501N0031122000199020000199+02921+01001101321ADDAA101999999AZ101061AZ201061GF100991999999999999999999KA1120N+02061MA1999999096501MD1999999+0041REMSYN004BUFR
0111832360999992015101912004-12156-045008FM-12+043999999V0200501N0046122000199020000199+03021+00911101341ADDAA101999999AZ101061AZ201061GF100991999999999999999999KA1120N+01881MA1999999096561MD1999999+0061REMSYN004BUFR
0155832360999992015102012004-12156-045008FM-12+043999999V0200501N0005199999999020000199+02921+01031101291ADDAA101999999AY141061AY241061GA1999+080001001GE19MSL   +99999+99999GF103991999999080001999999KA1120N+01661MA1999999096471MD1999999-0091MW1041REMSYN004BUFR
0155832360999992015102112004-12156-045008FM-12+043999999V0201401N0005199999999010000199+03021+00971101201ADDAA101999999AY141061AY241061GA1041+006001081GE19MSL   +99999+99999GF104991041999006001999999KA1120N+01721MA1999999096391MD1999999-0081MW1041REMSYN004BUFR
0117832360999992015102212004-12156-045008FM-12+043999999V0200501N0010122000199020000199+03121+01271100851ADDAA101999999AY141061AY241061GF100991999999999999999999KA1120N+02111MA1999999096061MD1999999-0331MW1041REMSYN004BUFR
0149832360999992015102312004-12156-045008FM-12+043999999V0200501N0067100600199020000199+03191+01421100921ADDAA101999999AZ101061AZ201061GA1061+006001091GE19MSL   +99999+99999GF106991061999006001999999KA1120N+02481MA1999999096161MD1999999+0101REMSYN004BUFR
0171832360999992015102412004-12156-045008FM-12+043999999V0200901N0005199999999020000199+02791+02081101131ADDAA124011031AY161061AY261061GA1031+017501051GA2999+999999001GE19MSL   +99999+99999GF104991031999017501999999KA1120N+02191MA1999999096281MD1999999+0121MW1051REMSYN004BUFR
0171832360999992015102512004-12156-045008FM-12+043999999V0203201N0005199999999020000199+02821+02121101151ADDAA124002031AY161061AY261061GA1031+006001081GA2999+999999031GE19MSL   +99999+99999GF103991031999006001999999KA1120N+02311MA1999999096361MD1999999+0081MW1031REMSYN004BUFR
0171832360999992015102612004-12156-045008FM-12+043999999V0201801N0015199999999020000199+02791+02061101341ADDAA124000431AY151061AY251061GA1031+006001061GA2999+999999001GE19MSL   +99999+99999GF106991031999006001999999KA1120N+02321MA1999999096531MD1999999+0171MW1031REMSYN004BUFR
0111832360999992015102712004-12156-045008FM-12+043999999V0200501N0015122000199020000199+02971+01401101141ADDAA101999999AZ101061AZ201061GF100991999999999999999999KA1120N+02111MA1999999096361MD1999999-0171REMSYN004BUFR
0149832360999992015102812004-12156-045008FM-12+043999999V0200501N0051199999999020000199+03071+01521101051ADDAA101999999AZ101061AZ201061GA1999+080001001GE19MSL   +99999+99999GF101991999999080001999999KA1120N+02371MA1999999096271MD1999999-0091REMSYN004BUFR
0165832360999992015102912004-12156-045008FM-12+043999999V0202301N0015199999999020000199+02671+02041101061ADDAA101999999AZ101061AZ201061GA1041+006001061GA2999+999999001GE19MSL   +99999+99999GF106991041999006001999999KA1120N+02521MA1999999096251MD1999999-0021REMSYN004BUFR
0181832360999992015103012004-12156-045008FM-12+043999999V0203201N0021100600199020000199+02621+02051101231ADDAA101999999AZ101061AZ201061GA1051+006001061GA2999+999999051GA3999+999999101GE19MSL   +99999+99999GF108991051999006001999999KA1120N+01901MA1999999096371MD1999999+0121REMSYN004BUFR
0165832360999992015103112004-12156-045008FM-12+043999999V0203601N0021199999999020000199+02721+02001101131ADDAA101999999AZ101061AZ201061GA1031+006001081GA2999+999999001GE19MSL   +99999+99999GF106991031999006001999999KA1120N+02351MA1999999096271MD1999999-0101REMSYN004BUFR
0165832360999992015110112004-12156-045008FM-12+043999999V0200501N0051199999999020000199+02971+01621101061ADDAA101999999AZ101061AZ201061GA1011+017501081GA2999+999999001GE19MSL   +99999+99999GF103991011999017501999999KA1120N+02321MA1999999096251MD1999999-0021REMSYN004BUFR
0149832360999992015110212004-12156-045008FM-12+043999999V020999999999999999999020000199+02771+02011101131ADDAA124000131AZ101061AZ201061GA1041+006001081GE19MSL   +99999+99999GF104991041999006001999999KA1120N+02141MA1999999096281MD1999999+0031REMSYN004BUFR
0111832360999992015110312004-12156-045008FM-12+043999999V020999999999922000199020000199+02971+01441101061ADDAA101999999AZ101061AZ201061GF100991999999999999999999KA1120N+02141MA1999999096261MD1999999-0021REMSYN004BUFR
0136832360999992015110400004-12156-045008FM-12+043999999V020999999999999999999020000199+02821+01151100691ADDAA101999999AZ101061AZ201061GA1021+050001051GE19MSL   +99999+99999GF102991021999050001999999MA1999999095911MD1999999+0121REMSYN004BUFR
0111832360999992015110412004-12156-045008FM-12+043999999V020999999999922000199020000199+03041+01551101121ADDAA101999999AZ101061AZ201061GF100991999999999999999999KA1120N+01931MA1999999096331MD1999999+0071REMSYN004BUFR
0136832360999992015110500004-12156-045008FM-12+043999999V020999999999901750199020000199+03151+01091100601ADDAA101999999AZ101061AZ201061GA1051+017501031GE19MSL   +99999+99999GF105991051999017501999999MA1999999095861MD1999999-0051REMSYN004BUFR
0165832360999992015110512004-12156-045008FM-12+043999999V020999999999999999999020000199+03041+01091100991ADDAA101999999AZ101061AZ201061GA1011+017501051GA2999+999999001GE19MSL   +99999+99999GF103991011999017501999999KA1120N+02121MA1999999096241MD1999999-0091REMSYN004BUFR
0136832360999992015110600004-12156-045008FM-12+043999999V020999999999999999999020000199+03001+01101100651ADDAA101999999AZ101061AZ201061GA1021+017501051GE19MSL   +99999+99999GF102991021999017501999999MA1999999095891MD1999999+0031REMSYN004BUFR
0165832360999992015110612004-12156-045008FM-12+043999999V020999999999999999999020000199+03021+01531100951ADDAA101999999AZ101061AZ201061GA1021+017501051GA2999+999999001GE19MSL   +99999+99999GF104991021999017501999999KA1120N+02171MA1999999096181MD1999999-0061REMSYN004BUFR
0136832360999992015110700004-12156-045008FM-12+043999999V020999999999999999999020000199+02821+01851100611ADDAA101999999AZ101061AZ201061GA1031+006001081GE19MSL   +99999+99999GF103991031999006001999999MA1999999095851MD1999999-0041REMSYN004BUFR
0165832360999992015110712004-12156-045008FM-12+043999999V020999999999999999999020000199+03271+01781100921ADDAA101999999AZ101061AZ201061GA1041+006001081GA2999+999999001GE19MSL   +99999+99999GF106991041999006001999999KA1120N+02371MA1999999096161MD1999999-0021REMSYN004BUFR
0149832360999992015110812004-12156-045008FM-12+043999999V020999999999999999999020000199+03251+01381100901ADDAA101999999AZ101061AZ201061GA1999+080001001GE19MSL   +99999+99999GF102991999999080001999999KA1120N+02301MA1999999096191MD1999999+0031REMSYN004BUFR
0149832360999992015110912004-12156-045008FM-12+043999999V020999999999999999999020000199+02991+01241101161ADDAA101999999AZ101061AZ201061GA1999+080001001GE19MSL   +99999+99999GF103991999999080001999999KA1120N+02221MA1999999096401MD1999999+0211REMSYN004BUFR
0098832360999992015111000004-12156-045008FM-12+043999999V020999999999922000199020000199+03251+00601100841ADDAA101999999AZ101061AZ201061GF100991999999999999999999MA1999999096101MD1999999+0131REMSYN004BUFR
0149832360999992015111012004-12156-045008FM-12+043999999V020999999999999999999020000199+02941+01401101231ADDAA101999999AZ101061AZ201061GA1999+080001001GE19MSL   +99999+99999GF102991999999080001999999KA1120N+01981MA1999999096461MD1999999+0361REMSYN004BUFR
0098832360999992015111100004-12156-045008FM-12+043999999V020999999999922000199020000199+03291+00631100821ADDAA101999999AZ101061AZ201061GF100991999999999999999999MA1999999096071MD1999999-0031REMSYN004BUFR
0149832360999992015111112004-12156-045008FM-12+043999999V020999999999999999999020000199+03071+01121101051ADDAA101999999AZ101061AZ201061GA1999+080001001GE19MSL   +99999+99999GF102991999999080001999999KA1120N+01971MA1999999096311MD1999999-0151REMSYN004BUFR
0098832360999992015111200004-12156-045008FM-12+043999999V020999999999922000199020000199+02591+01211100671ADDAA101999999AZ101061AZ201061GF100991999999999999999999MA1999999095881MD1999999-0191REMSYN004BUFR
0149832360999992015111212004-12156-045008FM-12+043999999V020999999999999999999020000199+03121+01221100861ADDAA101999999AZ101061AZ201061GA1999+080001011GE19MSL   +99999+99999GF102991999999080001999999KA1120N+01851MA1999999096061MD1999999-0251REMSYN004BUFR
0136832360999992015111300004-12156-045008FM-12+043999999V020999999999900600199020000199+03121+01521100471ADDAA101999999AZ101061AZ201061GA1051+006001031GE19MSL   +99999+99999GF105991051999006001999999MA1999999095741MD1999999-0141REMSYN004BUFR
0165832360999992015111312004-12156-045008FM-12+043999999V020999999999999999999020000199+03201+01291100771ADDAA101999999AZ101061AZ201061GA1021+017501051GA2999+999999001GE19MSL   +99999+99999GF105991021999017501999999KA1120N+02281MA1999999096041MD1999999-0021REMSYN004BUFR
0136832360999992015111400004-12156-045008FM-12+043999999V020999999999999999999020000199+02941+01691100501ADDAA101999999AZ101061AZ201061GA1041+006001081GE19MSL   +99999+99999GF104991041999006001999999MA1999999095761MD1999999+0021REMSYN004BUFR
0165832360999992015111412004-12156-045008FM-12+043999999V020999999999999999999020000199+03291+01761100861ADDAA101999999AZ101061AZ201061GA1021+006001081GA2999+999999031GE19MSL   +99999+99999GF105991021999006001999999KA1120N+02451MA1999999096111MD1999999+0071REMSYN004BUFR
0165832360999992015111512004-12156-045008FM-12+043999999V020999999999999999999020000199+02841+01981101071ADDAA101999999AZ101061AZ201061GA1041+006001091GA2999+999999001GE19MSL   +99999+99999GF106991041999006001999999KA1120N+02351MA1999999096261MD1999999+0151REMSYN004BUFR
0181832360999992015111612004-12156-045008FM-12+043999999V020999999999999999999020000199+02891+01961100951ADDAA101999999AZ101061AZ201061GA1021+006001081GA2999+999999031GA3999+999999001GE19MSL   +99999+99999GF105991021999006001999999KA1120N+02371MA1999999096131MD1999999-0131REMSYN004BUFR
0136832360999992015111700004-12156-045008FM-12+043999999V020999999999900600199020000199+02851+01951100681ADDAA101999999AZ101061AZ201061GA1051+006001091GE19MSL   +99999+99999GF105991051999006001999999MA1999999095891MD1999999-0151REMSYN004BUFR
0149832360999992015111712004-12156-045008FM-12+043999999V020999999999900600199020000199+02721+02171100891ADDAA101999999AZ101061AZ201061GA1061+006001061GE19MSL   +99999+99999GF106991061999006001999999KA1120N+02351MA1999999096071MD1999999-0061REMSYN004BUFR
0136832360999992015111800004-12156-045008FM-12+043999999V020999999999900600199020000199+02451+02191100771ADDAA101999999AZ101061AZ201061GA1061+006001091GE19MSL   +99999+99999GF106991061999006001999999MA1999999096181MD1999999+0041REMSYN004BUFR
0181832360999992015111812004-12156-045008FM-12+043999999V020999999999999999999020000199+02841+02191100741ADDAA101999999AZ101061AZ201061GA1031+006001081GA2999+999999031GA3999+999999021GE19MSL   +99999+99999GF106991031999006001999999KA1120N+02361MA1999999095911MD1999999-0161REMSYN004BUFR
0152832360999992015111900004-12156-045008FM-12+043999999V020999999999999999999020000199+02921+01921100441ADDAA101999999AZ101061AZ201061GA1021+006001081GA2999+999999031GE19MSL   +99999+99999GF105991021999006001999999MA1999999095671MD1999999-0261REMSYN004BUFR
0165832360999992015111912004-12156-045008FM-12+043999999V020999999999999999999020000199+02821+02101100671ADDAA101999999AZ101061AZ201061GA1041+006001091GA2999+999999001GE19MSL   +99999+99999GF106991041999006001999999KA1120N+02411MA1999999095881MD1999999-0031REMSYN004BUFR
0142832360999992015112000004-12156-045008FM-12+043999999V020999999999999999999020000199+02471+02191100581ADDAA106003031AY191061AY261061GA1041+006001091GE19MSL   +99999+99999GF104991041999006001999999MA1999999095801MD1999999+0131MW1131REMSYN004BUFR
0165832360999992015112012004-12156-045008FM-12+043999999V020999999999999999999020000199+02641+02041100911ADDAA124003031AZ101061AZ201061GA1041+006001091GA2999+999999041GE19MSL   +99999+99999GF105991041999006001999999KA1120N+02271MA1999999096051MD1999999+0171REMSYN004BUFR
0142832360999992015112100004-12156-045008FM-12+043999999V020999999999900600199020000199+02251+02141100961ADDAA106002031AY161061AY261061GA1061+006001061GE19MSL   +99999+99999GF106991061999006001999999MA1999999096081MD1999999+0281MW1131REMSYN004BUFR
0181832360999992015112112004-12156-045008FM-12+043999999V020999999999999999999020000199+02621+02071101081ADDAA124002031AZ101061AZ201061GA1021+006001081GA2999+999999051GA3999+999999001GE19MSL   +99999+99999GF106991021999006001999999KA1120N+02171MA1999999096191MD1999999+0141REMSYN004BUFR
0171832360999992015112212004-12156-045008FM-12+043999999V020999999999999999999020000199+02651+02201100981ADDAA124004031AY161061AY261061GA1031+006001031GA2999+999999001GE19MSL   +99999+99999GF105991031999006001999999KA1120N+02271MA1999999096111MD1999999-0081MW1031REMSYN004BUFR
0165832360999992015112312004-12156-045008FM-12+043999999V020999999999999999999020000199+02871+02211100811ADDAA124002031AZ101061AZ201061GA1041+006001081GA2999+999999031GE19MSL   +99999+99999GF106991041999006001999999KA1120N+02371MA1999999095991MD1999999-0121REMSYN004BUFR
0152832360999992015112400004-12156-045008FM-12+043999999V020999999999999999999020000199+02891+02041100381ADDAA101999999AZ101061AZ201061GA1041+006001091GA2999+999999031GE19MSL   +99999+99999GF106991041999006001999999MA1999999095621MD1999999-0401REMSYN004BUFR
0187832360999992015112412004-12156-045008FM-12+043999999V020999999999999999999020000199+02171+02081101061ADDAA124052031AY161061AY261061GA1031+006001091GA2999+999999031GA3999+999999101GE19MSL   +99999+99999GF108991031999006001999999KA1120N+02051MA1999999096191MD1999999+0201MW1501REMSYN004BUFR
0158832360999992015112500004-12156-045008FM-12+043999999V020999999999999999999020000199+02391+02191100901ADDAA106001031AY161061AY261061GA1021+006001081GA2999+999999031GE19MSL   +99999+99999GF106991021999006001999999MA1999999095991MD1999999+0371MW1031REMSYN004BUFR
0181832360999992015112512004-12156-045008FM-12+043999999V020999999999999999999020000199+02671+02161101001ADDAA124001031AZ101061AZ201061GA1021+006001091GA2999+999999051GA3999+999999001GE19MSL   +99999+99999GF106991021999006001999999KA1120N+02141MA1999999096141MD1999999-0051REMSYN004BUFR
0142832360999992015112600004-12156-045008FM-12+043999999V020999999999900600199020000199+02821+02241100771ADDAA101999999AY101061AY201061GA1061+006001061GE19MSL   +99999+99999GF106991061999006001999999MA1999999095951MD1999999-0041MW1171REMSYN004BUFR
0171832360999992015112612004-12156-045008FM-12+043999999V020999999999999999999020000199+02351+02011100931ADDAA124054031AY161061AY261061GA1021+006001091GA2999+999999031GE19MSL   +99999+99999GF106991021999006001999999KA1120N+02121MA1999999096081MD1999999-0061MW1031REMSYN004BUFR
0152832360999992015112700004-12156-045008FM-12+043999999V0203601N0000199999999020000199+02441+02211100881ADDAA101999999AZ101061AZ201061GA1021+006001081GA2999+999999031GE19MSL   +99999+99999GF104991021999006001999999MA1999999095991MD1999999+0041REMSYN004BUFR
0181832360999992015112712004-12156-045008FM-12+043999999V020999999999999999999020000199+02571+02151101191ADDAA101999999AZ101061AZ201061GA1031+006001081GA2999+999999031GA3999+999999001GE19MSL   +99999+99999GF107991031999006001999999KA1120N+02261MA1999999096311MD1999999+0231REMSYN004BUFR
0152832360999992015112800004-12156-045008FM-12+043999999V020999999999999999999020000199+02471+02131100771ADDAA101999999AZ101061AZ201061GA1011+006001081GA2999+999999031GE19MSL   +99999+99999GF103991011999006001999999MA1999999095921MD1999999-0071REMSYN004BUFR
0181832360999992015112812004-12156-045008FM-12+043999999V020999999999999999999020000199+02701+02101100941ADDAA101999999AZ101061AZ201061GA1021+006001081GA2999+999999051GA3999+999999001GE19MSL   +99999+99999GF105991021999006001999999KA1120N+02231MA1999999096091MD1999999-0221REMSYN004BUFR
0187832360999992015112912004-12156-045008FM-12+043999999V020999999999999999999020000199+02621+02141101271ADDAA124010031AY161061AY261061GA1021+006001081GA2999+999999031GA3999+999999001GE19MSL   +99999+99999GF106991021999006001999999KA1120N+02171MA1999999096391MD1999999+0301MW1031REMSYN004BUFR
0181832360999992015113012004-12156-045008FM-12+043999999V020999999999999999999020000199+02821+02101101141ADDAA101999999AZ101061AZ201061GA1011+006001081GA2999+999999051GA3999+999999001GE19MSL   +99999+99999GF104991011999006001999999KA1120N+02271MA1999999096301MD1999999-0091REMSYN004BUFR
0152832360999992015120100004-12156-045008FM-12+043999999V020999999999999999999020000199+02771+02131100851ADDAA101999999AZ101061AZ201061GA1011+006001081GA2999+999999031GE19MSL   +99999+99999GF102991011999006001999999MA1999999096051MD1999999+0011REMSYN004BUFR
0165832360999992015120112004-12156-045008FM-12+043999999V020999999999999999999020000199+02821+01231101151ADDAA101999999AZ101061AZ201061GA1011+006001081GA2999+999999001GE19MSL   +99999+99999GF102991011999006001999999KA1120N+01971MA1999999096331MD1999999+0031REMSYN004BUFR
0136832360999992015120200004-12156-045008FM-12+043999999V020999999999999999999020000199+02641+01681100831ADDAA101999999AZ101061AZ201061GA1999+080001001GE19MSL   +99999+99999GF101991999999080001999999MA1999999096011MD1999999-0041REMSYN004BUFR
0149832360999992015120212004-12156-045008FM-12+043999999V020999999999999999999020000199+02791+01661101101ADDAA101999999AZ101061AZ201061GA1999+080001001GE19MSL   +99999+99999GF101991999999080001999999KA1120N+01941MA1999999096261MD1999999-0071REMSYN004BUFR
0098832360999992015120300004-12156-045008FM-12+043999999V020999999999922000199020000199+02541+01881100721ADDAA101999999AZ101061AZ201061GF100991999999999999999999MA1999999095891MD1999999-0121REMSYN004BUFR
0149832360999992015120312004-12156-045008FM-12+043999999V020999999999999999999020000199+02771+01481101081ADDAA101999999AZ101061AZ201061GA1999+080001001GE19MSL   +99999+99999GF101991999999080001999999KA1120N+01821MA1999999096231MD1999999-0031REMSYN004BUFR
0098832360999992015120400004-12156-045008FM-12+043999999V020999999999922000199020000199+02691+01881100621ADDAA101999999AZ101061AZ201061GF100991999999999999999999MA1999999095811MD1999999-0081REMSYN004BUFR
0187832360999992015120412004-12156-045008FM-12+043999999V020999999999999999999002000199+02851+02111101041ADDAA101999999AY101061AY201061GA1031+006001081GA2999+999999051GA3999+999999101GE19MSL   +99999+99999GF106991031999006001999999KA1120N+02061MA1999999096231MD1999999+0001MW1051REMSYN004BUFR
0104832360999992015120500004-12156-045008FM-12+043999999V020999999999922000199020000199+02891+01901100761ADDAA101999999AY141061AY241061GF100991999999999999999999MA1999999095981MD1999999+0171MW1051REMSYN004BUFR
0155832360999992015120512004-12156-045008FM-12+043999999V020999999999999999999004000199+02791+02111101101ADDAA101999999AY141061AY241061GA1041+017501031GE19MSL   +99999+99999GF104991041999017501999999KA1120N+02351MA1999999096291MD1999999+0061MW1051REMSYN004BUFR
0187832360999992015120612004-12156-045008FM-12+043999999V020999999999900600199010000199+02441+02031101331ADDAA124009031AY161061AY261061GA1061+006001091GA2999+999999101GA3999+999999101GE19MSL   +99999+99999GF106991061999006001999999KA1120N+02151MA1999999096411MD1999999+0121MW1051REMSYN004BUFR
0149832360999992015120712004-12156-045008FM-12+043999999V020999999999999999999020000199+02891+02221100991ADDAA101999999AZ101061AZ201061GA1031+006001081GE19MSL   +99999+99999GF103991031999006001999999KA1120N+02341MA1999999096181MD1999999-0231REMSYN004BUFR
0136832360999992015120800004-12156-045008FM-12+043999999V020999999999999999999020000199+02741+02281100821ADDAA101999999AZ101061AZ201061GA1041+006001091GE19MSL   +99999+99999GF104991041999006001999999MA1999999096021MD1999999-0101REMSYN004BUFR
0165832360999992015120812004-12156-045008FM-12+043999999V020999999999999999999020000199+02841+01291101071ADDAA101999999AZ101061AZ201061GA1011+017501031GA2999+999999001GE19MSL   +99999+99999GF103991011999017501999999KA1120N+02351MA1999999096251MD1999999+0071REMSYN004BUFR
0165832360999992015120912004-12156-045008FM-12+043999999V020999999999999999999020000199+02771+02161101171ADDAA101999999AZ101061AZ201061GA1031+006001081GA2999+999999051GE19MSL   +99999+99999GF106991031999006001999999KA1120N+02181MA1999999096351MD1999999+0101REMSYN004BUFR
0136832360999992015121000004-12156-045008FM-12+043999999V020999999999999999999020000199+02671+01841100891ADDAA101999999AZ101061AZ201061GA1999+080001001GE19MSL   +99999+99999GF102991999999080001999999MA1999999096061MD1999999-0031REMSYN004BUFR
0149832360999992015121012004-12156-045008FM-12+043999999V0200501N0005199999999020000199+02771+01641101181ADDAA101999999AZ101061AZ201061GA1999+080001001GE19MSL   +99999+99999GF102991999999080001999999KA1120N+02001MA1999999096341MD1999999-0011REMSYN004BUFR
0098832360999992015121100004-12156-045008FM-12+043999999V0203601N0000122000199020000199+02641+01881100861ADDAA101999999AZ101061AZ201061GF100991999999999999999999MA1999999096031MD1999999-0031REMSYN004BUFR
0111832360999992015121112004-12156-045008FM-12+043999999V0203601N0000122000199020000199+02851+01751101191ADDAA101999999AZ101061AZ201061GF100991999999999999999999KA1120N+01971MA1999999096351MD1999999+0011REMSYN004BUFR
0098832360999992015121200004-12156-045008FM-12+043999999V0203601N0000122000199020000199+02621+01961100831ADDAA101999999AZ101061AZ201061GF100991999999999999999999MA1999999096011MD1999999-0021REMSYN004BUFR
0149832360999992015121212004-12156-045008FM-12+043999999V0200501N0031199999999020000199+02991+01611101051ADDAA101999999AZ101061AZ201061GA1999+080001001GE19MSL   +99999+99999GF101991999999080001999999KA1120N+02011MA1999999096241MD1999999-0111REMSYN004BUFR
0165832360999992015121312004-12156-045008FM-12+043999999V0203601N0000199999999020000199+02921+02001101021ADDAA101999999AZ101061AZ201061GA1021+017501031GA2999+999999001GE19MSL   +99999+99999GF104991021999017501999999KA1120N+02351MA1999999096241MD1999999+0001REMSYN004BUFR
0171832360999992015121412004-12156-045008FM-12+043999999V0202301N0015199999999020000199+02771+02091101121ADDAA124002031AY161061AY261061GA1021+017501051GA2999+999999001GE19MSL   +99999+99999GF104991021999017501999999KA1120N+02151MA1999999096281MD1999999+0041MW1031REMSYN004BUFR
0136832360999992015121500004-12156-045008FM-12+043999999V0203601N0000199999999020000199+02501+01981100661ADDAA101999999AZ101061AZ201061GA1021+006001081GE19MSL   +99999+99999GF102991021999006001999999MA1999999095831MD1999999-0101REMSYN004BUFR
0149832360999992015121512004-12156-045008FM-12+043999999V0201401N0005199999999020000199+02801+01551101111ADDAA101999999AZ101061AZ201061GA1011+006001081GE19MSL   +99999+99999GF101991011999006001999999KA1120N+02051MA1999999096261MD1999999-0021REMSYN004BUFR
0098832360999992015121600004-12156-045008FM-12+043999999V0202301N0010122000199020000199+02621+01761100701ADDAA101999999AZ101061AZ201061GF100991999999999999999999MA1999999095881MD1999999+0051REMSYN004BUFR
0149832360999992015121612004-12156-045008FM-12+043999999V0202301N0005199999999020000199+02771+01441101141ADDAA101999999AZ101061AZ201061GA1021+006001081GE19MSL   +99999+99999GF102991021999006001999999KA1120N+01881MA1999999096301MD1999999+0041REMSYN004BUFR
0165832360999992015121712004-12156-045008FM-12+043999999V0200501N0015199999999020000199+02851+01651101081ADDAA101999999AZ101061AZ201061GA1021+017501051GA2999+999999001GE19MSL   +99999+99999GF104991021999017501999999KA1120N+02131MA1999999096271MD1999999-0031REMSYN004BUFR
0149832360999992015121812004-12156-045008FM-12+043999999V0200501N0005199999999020000199+02891+01621101131ADDAA101999999AZ101061AZ201061GA1999+080001001GE19MSL   +99999+99999GF102991999999080001999999KA1120N+02151MA1999999096311MD1999999+0041REMSYN004BUFR
0165832360999992015121912004-12156-045008FM-12+043999999V0201401N0015199999999020000199+02921+01741101121ADDAA101999999AZ101061AZ201061GA1021+017501031GA2999+999999001GE19MSL   +99999+99999GF103991021999017501999999KA1120N+02181MA1999999096301MD1999999-0011REMSYN004BUFR
0181832360999992015122012004-12156-045008FM-12+043999999V0202701N0005199999999020000199+02791+01871101211ADDAA101999999AZ101061AZ201061GA1021+006001081GA2999+999999031GA3999+999999001GE19MSL   +99999+99999GF106991021999006001999999KA1120N+02371MA1999999096371MD1999999+0071REMSYN004BUFR
0198832360999992015122112004-12150-045000FM-12+043999999V0202301N000519999999N020000199+03061+01771101001ADDGA1031+008001081GA2999+999999031GE19MSL   +99999+99999GF106991031999008001999999KA1240N+02501MA1999999096241MD1999999-0131REMSYN06483236 32598 62301 10306 20177 39624 40100 83230 333 20250 59013=
0214832360999992015122212004-12150-045000FM-12+043999999V0209999C000019999999N020000199+02901+01991101161ADDGA1021+008001081GA2999+999999031GA3999+999999001GE19MSL   +99999+99999GF105991021999008001999999KA1240N+02351MA1999999096331MD1999999+0091REMSYN06483236 32598 50000 10290 20199 39633 40116 82232 333 20235 58009=
0201832360999992015122312004-12150-045000FM-12+043999999V0203201N001519999999N020000199+02861+01681101251ADDGA1999+999999001GE19MSL   +99999+99999GF102991001999999999999999KA1240N+02061MA1999999096411MD1999999+0081REMSYN06483236 32998 23203 10286 20168 39641 40125 80004 333 20206 58008=EQDQ01    003SCCGA1
0182832360999992015122412004-12150-045000FM-12+043999999V0203601N001519999999N020000199+02861+01581101181ADDGA1021+008001081GE19MSL   +99999+99999GF102991021999008001999999KA1240N+02111MA1999999096391MD1999999-0021REMSYN06483236 32598 23603 10286 20158 39639 40118 82100 333 20211 59002=
0198832360999992015122512004-12150-045000FM-12+043999999V0200501N005119999999N020000199+02951+01711101241ADDGA1021+008001081GA2999+999999031GE19MSL   +99999+99999GF103991021999008001999999KA1240N+02441MA1999999096451MD1999999+0061REMSYN06483236 32598 30510 10295 20171 39645 40124 82240 333 20244 58006=
0198832360999992015122612004-12150-045000FM-12+043999999V0200501N004119999999N020000199+02961+01781101071ADDGA1011+008001031GA2999+999999001GE19MSL   +99999+99999GF102991011999008001999999KA1240N+02151MA1999999096271MD1999999-0181REMSYN06483236 32598 20508 10296 20178 39627 40107 81043 333 20215 59018=
0214832360999992015122712004-12150-045000FM-12+043999999V0202301N001519999999N020000199+02701+01941101171ADDGA1021+008001081GA2999+999999031GA3999+999999001GE19MSL   +99999+99999GF105991021999008001999999KA1240N+02291MA1999999096321MD1999999+0051REMSYN06483236 32598 52303 10270 20194 39632 40117 82243 333 20229 58005=
0215832360999992015122812004-12150-045000FM-12+043999999V0201401N001019999999N020000199+02611+01831101251ADDAA124001031GA1041+017501031GA2999+999999001GE19MSL   +99999+99999GF106991041999017501999999KA1240N+02201MA1999999096371MD1999999+0051REMSYN07083236 22798 61402 10261 20183 39637 40125 84034 333 20220 58005 60014=
0181832360999992015122912004-12156-045008FM-12+043999999V0200501N0031199999999020000199+02851+01841101381ADDAA101999999AZ101061AZ201061GA1021+006001081GA2999+999999031GA3999+999999001GE19MSL   +99999+99999GF106991021999006001999999KA1120N+02201MA1999999096571MD1999999+0201REMSYN004BUFR
0165832360999992015123012004-12156-045008FM-12+043999999V0202301N0005199999999020000199+02601+02071101531ADDAA101999999AZ101061AZ201061GA1031+006001081GA2999+999999031GE19MSL   +99999+99999GF106991031999006001999999KA1120N+02281MA1999999096681MD1999999+0111REMSYN004BUFR
0165832360999992015123112004-12156-045008FM-12+043999999V0202301N0010199999999020000199+02441+02051101351ADDAA124019031AZ101061AZ201061GA1021+017501051GA2999+999999021GE19MSL   +99999+99999GF106991021999017501999999KA1120N+02131MA1999999096431MD1999999-0251REMSYN004BUFR
