0072833440999992015010100004-14863-040863FM-15+091499999V0200801N003119999999Y999999999+02301+01801999999ADDMA1102001999999REMMET045METAR SBQV 010000Z 08006KT CAVOK 23/18 Q1020=
0072833440999992015010101004-14863-040863FM-15+091499999V0200701N004119999999Y999999999+02201+01801999999ADDMA1102001999999REMMET045METAR SBQV 010100Z 07008KT CAVOK 22/18 Q1020=
0072833440999992015010101154-14863-040863FM-16+091499999V0200701N003619999999Y999999999+02201+01801999999ADDMA1102001999999REMMET045SPECI SBQV 010115Z 07007KT CAVOK 22/18 Q1020=
0072833440999992015010107304-14863-040863FM-16+091499999V0200701N003119999999Y999999999+01901+01701999999ADDMA1101901999999REMMET045SPECI SBQV 010730Z 07006KT CAVOK 19/17 Q1019=
0072833440999992015010108004-14863-040863FM-15+091499999V0200801N002619999999Y999999999+01901+01701999999ADDMA1101901999999REMMET045METAR SBQV 010800Z 08005KT CAVOK 19/17 Q1019=
0072833440999992015010109004-14863-040863FM-15+091499999V0200701N002619999999Y999999999+02001+01701999999ADDMA1102001999999REMMET045METAR SBQV 010900Z 07005KT CAVOK 20/17 Q1020=
0142833440999992015010110004-14863-040863FM-15+091499999V0200501N001019999999N009999199+02301+01801999999ADDGA1021+001521999GE19MSL   +99999+99999GF199999021999001521999999MA1102101999999REMMET051METAR SBQV 011000Z 05002KT 9999 FEW005 23/18 Q1021=
0142833440999992015010111004-14863-040863FM-15+091499999V0200101N002619999999N009999199+02201+01801999999ADDGA1041+002131999GE19MSL   +99999+99999GF199999041999002131999999MA1102101999999REMMET051METAR SBQV 011100Z 01005KT 9999 SCT007 22/18 Q1021=
0142833440999992015010112004-14863-040863FM-15+091499999V0200201N002619999999N009999199+02501+01901999999ADDGA1021+005491999GE19MSL   +99999+99999GF199999021999005491999999MA1102101999999REMMET051METAR SBQV 011200Z 02005KT 9999 FEW018 25/19 Q1021=
0142833440999992015010113004-14863-040863FM-15+091499999V0203601N002119999999N009999199+02701+01901999999ADDGA1041+006101999GE19MSL   +99999+99999GF199999041999006101999999MA1102101999999REMMET051METAR SBQV 011300Z 36004KT 9999 SCT020 27/19 Q1021=
0142833440999992015010114004-14863-040863FM-15+091499999V0200201N002619999999N009999199+02801+01801999999ADDGA1041+006101999GE19MSL   +99999+99999GF199999041999006101999999MA1102101999999REMMET051METAR SBQV 011400Z 02005KT 9999 SCT020 28/18 Q1021=
0142833440999992015010115004-14863-040863FM-15+091499999V0200301N001519999999N009999199+02901+01301999999ADDGA1041+006101999GE19MSL   +99999+99999GF199999041999006101999999MA1102001999999REMMET051METAR SBQV 011500Z 03003KT 9999 SCT020 29/13 Q1020=
0142833440999992015010116004-14863-040863FM-15+091499999V0203501N002119999999N009999199+02901+01701999999ADDGA1041+006101999GE19MSL   +99999+99999GF199999041999006101999999MA1101901999999REMMET051METAR SBQV 011600Z 35004KT 9999 SCT020 29/17 Q1019=
0142833440999992015010117004-14863-040863FM-15+091499999V0200701N001519999999N009999199+02901+01601999999ADDGA1041+006101999GE19MSL   +99999+99999GF199999041999006101999999MA1101801999999REMMET051METAR SBQV 011700Z 07003KT 9999 SCT020 29/16 Q1018=
0142833440999992015010118004-14863-040863FM-15+091499999V0200601N003619999999N009999199+03001+01601999999ADDGA1041+006101999GE19MSL   +99999+99999GF199999041999006101999999MA1101701999999REMMET051METAR SBQV 011800Z 06007KT 9999 SCT020 30/16 Q1017=
0142833440999992015010119004-14863-040863FM-15+091499999V0200301N002619999999N009999199+02901+01601999999ADDGA1021+006101999GE19MSL   +99999+99999GF199999021999006101999999MA1101701999999REMMET051METAR SBQV 011900Z 03005KT 9999 FEW020 29/16 Q1017=
0142833440999992015010120004-14863-040863FM-15+091499999V0200201N003119999999N009999199+02901+01501999999ADDGA1021+006101999GE19MSL   +99999+99999GF199999021999006101999999MA1101701999999REMMET051METAR SBQV 012000Z 02006KT 9999 FEW020 29/15 Q1017=
0072833440999992015010121004-14863-040863FM-15+091499999V0201501N002119999999Y999999999+02601+01501999999ADDMA1101801999999REMMET045METAR SBQV 012100Z 15004KT CAVOK 26/15 Q1018=
0072833440999992015010122004-14863-040863FM-15+091499999V0201101N002619999999Y999999999+02401+01901999999ADDMA1101801999999REMMET045METAR SBQV 012200Z 11005KT CAVOK 24/19 Q1018=
0072833440999992015010123004-14863-040863FM-15+091499999V0201001N002619999999Y999999999+02301+01901999999ADDMA1101901999999REMMET045METAR SBQV 012300Z 10005KT CAVOK 23/19 Q1019=
0072833440999992015010200004-14863-040863FM-15+091499999V0201101N002619999999Y999999999+02301+01901999999ADDMA1101901999999REMMET045METAR SBQV 020000Z 11005KT CAVOK 23/19 Q1019=
0072833440999992015010201004-14863-040863FM-15+091499999V0200701N003119999999Y999999999+02301+01801999999ADDMA1101901999999REMMET045METAR SBQV 020100Z 07006KT CAVOK 23/18 Q1019=
0072833440999992015010201154-14863-040863FM-16+091499999V0200801N002619999999Y999999999+02201+01801999999ADDMA1101901999999REMMET045SPECI SBQV 020115Z 08005KT CAVOK 22/18 Q1019=
0072833440999992015010207304-14863-040863FM-16+091499999V0200501N003619999999Y999999999+01901+01801999999ADDMA1101801999999REMMET045SPECI SBQV 020730Z 05007KT CAVOK 19/18 Q1018=
0072833440999992015010208004-14863-040863FM-15+091499999V0200601N003619999999Y999999999+01901+01801999999ADDMA1101801999999REMMET045METAR SBQV 020800Z 06007KT CAVOK 19/18 Q1018=
0072833440999992015010209004-14863-040863FM-15+091499999V0200401N004619999999Y999999999+02001+01801999999ADDMA1101901999999REMMET045METAR SBQV 020900Z 04009KT CAVOK 20/18 Q1019=
0142833440999992015010210004-14863-040863FM-15+091499999V0200301N006219999999N009999199+02101+01801999999ADDGA1041+002131999GE19MSL   +99999+99999GF199999041999002131999999MA1101901999999REMMET051METAR SBQV 021000Z 03012KT 9999 SCT007 21/18 Q1019=
0165833440999992015010210454-14863-040863FM-16+091499999V0200201N005710033519N009999199+02201+01901999999ADDGA1021+002131999GA2071+003351999GE19MSL   +99999+99999GF199999021999002131999999MA1102001999999REMMET058SPECI SBQV 021045Z 02011KT 9999 FEW007 BKN011 22/19 Q1020=
0165833440999992015010211004-14863-040863FM-15+091499999V0200401N003610033519N009999199+02201+01901999999ADDGA1021+002131999GA2071+003351999GE19MSL   +99999+99999GF199999021999002131999999MA1102001999999REMMET058METAR SBQV 021100Z 04007KT 9999 FEW007 BKN011 22/19 Q1020=
0165833440999992015010212004-14863-040863FM-15+091499999V0200401N00211003351CN009999199+02101+01901999999ADDGA1041+002131999GA2041+003351999GE19MSL   +99999+99999GF199999041999002131999999MA1102001999999REMMET058METAR SBQV 021200Z 04004KT 9999 SCT007 SCT011 21/19 Q1020=
0142833440999992015010213004-14863-040863FM-15+091499999V0200601N002110045719N009999199+02301+01901999999ADDGA1071+004571999GE19MSL   +99999+99999GF199999071999004571999999MA1102001999999REMMET051METAR SBQV 021300Z 06004KT 9999 BKN015 23/19 Q1020=
0142833440999992015010214004-14863-040863FM-15+091499999V0200101N002110061019N009999199+02501+01901999999ADDGA1071+006101999GE19MSL   +99999+99999GF199999071999006101999999MA1102001999999REMMET051METAR SBQV 021400Z 01004KT 9999 BKN020 25/19 Q1020=
0142833440999992015010215004-14863-040863FM-15+091499999V0200801N001510061019N009999199+02801+01901999999ADDGA1071+006101999GE19MSL   +99999+99999GF199999071999006101999999MA1102001999999REMMET051METAR SBQV 021500Z 08003KT 9999 BKN020 28/19 Q1020=
0142833440999992015010216004-14863-040863FM-15+091499999V0200501N002610076219N009999199+02801+01801999999ADDGA1071+007621999GE19MSL   +99999+99999GF199999071999007621999999MA1101901999999REMMET051METAR SBQV 021600Z 05005KT 9999 BKN025 28/18 Q1019=
0142833440999992015010217004-14863-040863FM-15+091499999V0200101N002110091419N009999199+03001+01701999999ADDGA1071+009141999GE19MSL   +99999+99999GF199999071999009141999999MA1101801999999REMMET051METAR SBQV 021700Z 01004KT 9999 BKN030 30/17 Q1018=
0142833440999992015010218004-14863-040863FM-15+091499999V0200601N002119999999N009999199+02901+01801999999ADDGA1041+009141999GE19MSL   +99999+99999GF199999041999009141999999MA1101701999999REMMET051METAR SBQV 021800Z 06004KT 9999 SCT030 29/18 Q1017=
0142833440999992015010219004-14863-040863FM-15+091499999V0200701N001019999999N009999199+02901+01701999999ADDGA1041+009141999GE19MSL   +99999+99999GF199999041999009141999999MA1101701999999REMMET051METAR SBQV 021900Z 07002KT 9999 SCT030 29/17 Q1017=
0142833440999992015010220004-14863-040863FM-15+091499999V0201501N002119999999N009999199+02801+02001999999ADDGA1041+009141999GE19MSL   +99999+99999GF199999041999009141999999MA1101701999999REMMET051METAR SBQV 022000Z 15004KT 9999 SCT030 28/20 Q1017=
0142833440999992015010221004-14863-040863FM-15+091499999V0201301N003610061019N009999199+02601+01901999999ADDGA1071+006101999GE19MSL   +99999+99999GF199999071999006101999999MA1101701999999REMMET051METAR SBQV 022100Z 13007KT 9999 BKN020 26/19 Q1017=
0072833440999992015010222004-14863-040863FM-15+091499999V0201101N002619999999Y999999999+02501+01901999999ADDMA1101801999999REMMET045METAR SBQV 022200Z 11005KT CAVOK 25/19 Q1018=
0072833440999992015010223004-14863-040863FM-15+091499999V0201001N002119999999Y999999999+02401+01801999999ADDMA1101801999999REMMET045METAR SBQV 022300Z 10004KT CAVOK 24/18 Q1018=
0072833440999992015010300004-14863-040863FM-15+091499999V0201001N002119999999Y999999999+02301+01801999999ADDMA1101901999999REMMET045METAR SBQV 030000Z 10004KT CAVOK 23/18 Q1019=
0072833440999992015010301004-14863-040863FM-15+091499999V0200901N001519999999Y999999999+02201+01801999999ADDMA1101901999999REMMET045METAR SBQV 030100Z 09003KT CAVOK 22/18 Q1019=
0072833440999992015010301254-14863-040863FM-16+091499999V0201001N002119999999Y999999999+02001+01801999999ADDMA1101901999999REMMET045SPECI SBQV 030125Z 10004KT CAVOK 20/18 Q1019=
0072833440999992015010307304-14863-040863FM-16+091499999V0200901N002119999999Y999999999+01901+01801999999ADDMA1101701999999REMMET045SPECI SBQV 030730Z 09004KT CAVOK 19/18 Q1017=
0072833440999992015010308004-14863-040863FM-15+091499999V0201001N002119999999Y999999999+01901+01801999999ADDMA1101801999999REMMET045METAR SBQV 030800Z 10004KT CAVOK 19/18 Q1018=
0072833440999992015010309004-14863-040863FM-15+091499999V0200701N002619999999Y999999999+02001+01801999999ADDMA1101801999999REMMET045METAR SBQV 030900Z 07005KT CAVOK 20/18 Q1018=
0072833440999992015010310004-14863-040863FM-15+091499999V0200801N002619999999Y999999999+02401+01901999999ADDMA1101801999999REMMET045METAR SBQV 031000Z 08005KT CAVOK 24/19 Q1018=
0142833440999992015010311004-14863-040863FM-15+091499999V0200901N002119999999N009999199+02601+01801999999ADDGA1021+006101999GE19MSL   +99999+99999GF199999021999006101999999MA1101901999999REMMET051METAR SBQV 031100Z 09004KT 9999 FEW020 26/18 Q1019=
0142833440999992015010312004-14863-040863FM-15+091499999V0200701N002610061019N009999199+02501+01801999999ADDGA1071+006101999GE19MSL   +99999+99999GF199999071999006101999999MA1101901999999REMMET051METAR SBQV 031200Z 07005KT 9999 BKN020 25/18 Q1019=
0142833440999992015010313004-14863-040863FM-15+091499999V0203201N002110061019N009999199+02601+02001999999ADDGA1071+006101999GE19MSL   +99999+99999GF199999071999006101999999MA1102001999999REMMET051METAR SBQV 031300Z 32004KT 9999 BKN020 26/20 Q1020=
0142833440999992015010314004-14863-040863FM-15+091499999V0203501N002110061019N009999199+02501+02001999999ADDGA1071+006101999GE19MSL   +99999+99999GF199999071999006101999999MA1101901999999REMMET051METAR SBQV 031400Z 35004KT 9999 BKN020 25/20 Q1019=
0142833440999992015010315004-14863-040863FM-15+091499999V0203501N001010061019N009999199+02601+01901999999ADDGA1071+006101999GE19MSL   +99999+99999GF199999071999006101999999MA1101901999999REMMET051METAR SBQV 031500Z 35002KT 9999 BKN020 26/19 Q1019=
0142833440999992015010316004-14863-040863FM-15+091499999V0201501N003610076219N009999199+02901+01601999999ADDGA1071+007621999GE19MSL   +99999+99999GF199999071999007621999999MA1101801999999REMMET051METAR SBQV 031600Z 15007KT 9999 BKN025 29/16 Q1018=
0142833440999992015010317004-14863-040863FM-15+091499999V0201001N005119999999N009999199+02901+01501999999ADDGA1041+009141999GE19MSL   +99999+99999GF199999041999009141999999MA1101801999999REMMET051METAR SBQV 031700Z 10010KT 9999 SCT030 29/15 Q1018=
0142833440999992015010318004-14863-040863FM-15+091499999V0201301N003610076219N009999199+02901+01501999999ADDGA1071+007621999GE19MSL   +99999+99999GF199999071999007621999999MA1101701999999REMMET051METAR SBQV 031800Z 13007KT 9999 BKN025 29/15 Q1017=
0142833440999992015010319004-14863-040863FM-15+091499999V0201201N005119999999N009999199+02901+01501999999ADDGA1041+009141999GE19MSL   +99999+99999GF199999041999009141999999MA1101701999999REMMET051METAR SBQV 031900Z 12010KT 9999 SCT030 29/15 Q1017=
0142833440999992015010320004-14863-040863FM-15+091499999V0201301N004119999999N009999199+02801+01601999999ADDGA1041+006101999GE19MSL   +99999+99999GF199999041999006101999999MA1101701999999REMMET051METAR SBQV 032000Z 13008KT 9999 SCT020 28/16 Q1017=
0072833440999992015010321004-14863-040863FM-15+091499999V0201101N004119999999Y999999999+02601+01501999999ADDMA1101701999999REMMET045METAR SBQV 032100Z 11008KT CAVOK 26/15 Q1017=
0072833440999992015010322004-14863-040863FM-15+091499999V0201101N003119999999Y999999999+02401+01601999999ADDMA1101701999999REMMET045METAR SBQV 032200Z 11006KT CAVOK 24/16 Q1017=
0072833440999992015010323004-14863-040863FM-15+091499999V0201101N001519999999Y999999999+02101+01701999999ADDMA1101801999999REMMET045METAR SBQV 032300Z 11003KT CAVOK 21/17 Q1018=
0072833440999992015010400004-14863-040863FM-15+091499999V0200801N002119999999Y999999999+02201+01601999999ADDMA1101801999999REMMET045METAR SBQV 040000Z 08004KT CAVOK 22/16 Q1018=
0072833440999992015010401004-14863-040863FM-15+091499999V0200701N004119999999Y999999999+02101+01901999999ADDMA1101801999999REMMET045METAR SBQV 040100Z 07008KT CAVOK 21/19 Q1018=
0072833440999992015010401304-14863-040863FM-16+091499999V0200601N004119999999Y999999999+02101+01901999999ADDMA1101801999999REMMET045SPECI SBQV 040130Z 06008KT CAVOK 21/19 Q1018=
0072833440999992015010407304-14863-040863FM-16+091499999V0200401N002119999999Y999999999+01901+01701999999ADDMA1101901999999REMMET045SPECI SBQV 040730Z 04004KT CAVOK 19/17 Q1019=
0142833440999992015010408004-14863-040863FM-15+091499999V0200701N002119999999N009999199+01901+01801999999ADDGA1041+003661999GE19MSL   +99999+99999GF199999041999003661999999MA1102001999999REMMET051METAR SBQV 040800Z 07004KT 9999 SCT012 19/18 Q1020=
0142833440999992015010409004-14863-040863FM-15+091499999V0200701N003119999999N009999199+01901+01801999999ADDGA1021+004571999GE19MSL   +99999+99999GF199999021999004571999999MA1102001999999REMMET051METAR SBQV 040900Z 07006KT 9999 FEW015 19/18 Q1020=
0072833440999992015010410004-14863-040863FM-15+091499999V0200701N003119999999Y999999999+02201+01701999999ADDMA1102101999999REMMET045METAR SBQV 041000Z 07006KT CAVOK 22/17 Q1021=
0072833440999992015010411004-14863-040863FM-15+091499999V0200901N002119999999Y999999999+02201+01701999999ADDMA1102101999999REMMET045METAR SBQV 041100Z 09004KT CAVOK 22/17 Q1021=
0142833440999992015010412004-14863-040863FM-15+091499999V0201001N003119999999N009999199+02601+01501999999ADDGA1021+004571999GE19MSL   +99999+99999GF199999021999004571999999MA1102101999999REMMET051METAR SBQV 041200Z 10006KT 9999 FEW015 26/15 Q1021=
0142833440999992015010413004-14863-040863FM-15+091499999V0200701N002619999999N009999199+02701+01301999999ADDGA1021+006101999GE19MSL   +99999+99999GF199999021999006101999999MA1102101999999REMMET051METAR SBQV 041300Z 07005KT 9999 FEW020 27/13 Q1021=
0142833440999992015010414004-14863-040863FM-15+091499999V0200701N003119999999N009999199+02801+01301999999ADDGA1021+009141999GE19MSL   +99999+99999GF199999021999009141999999MA1102001999999REMMET051METAR SBQV 041400Z 07006KT 9999 FEW030 28/13 Q1020=
0142833440999992015010415004-14863-040863FM-15+091499999V0201101N002619999999N009999199+02901+01501999999ADDGA1021+009141999GE19MSL   +99999+99999GF199999021999009141999999MA1102001999999REMMET051METAR SBQV 041500Z 11005KT 9999 FEW030 29/15 Q1020=
0142833440999992015010416004-14863-040863FM-15+091499999V0200901N002619999999N009999199+03001+01501999999ADDGA1021+007621999GE19MSL   +99999+99999GF199999021999007621999999MA1101901999999REMMET051METAR SBQV 041600Z 09005KT 9999 FEW025 30/15 Q1019=
0142833440999992015010417004-14863-040863FM-15+091499999V0201301N004619999999N009999199+03001+01601999999ADDGA1041+010671999GE19MSL   +99999+99999GF199999041999010671999999MA1101901999999REMMET051METAR SBQV 041700Z 13009KT 9999 SCT035 30/16 Q1019=
0142833440999992015010418004-14863-040863FM-15+091499999V0201001N004119999999N009999199+02901+01501999999ADDGA1041+010671999GE19MSL   +99999+99999GF199999041999010671999999MA1101801999999REMMET051METAR SBQV 041800Z 10008KT 9999 SCT035 29/15 Q1018=
0142833440999992015010419004-14863-040863FM-15+091499999V0201201N004619999999N009999199+02901+01601999999ADDGA1021+009141999GE19MSL   +99999+99999GF199999021999009141999999MA1101801999999REMMET051METAR SBQV 041900Z 12009KT 9999 FEW030 29/16 Q1018=
0142833440999992015010420004-14863-040863FM-15+091499999V0201301N004619999999N009999199+02801+01601999999ADDGA1021+009141999GE19MSL   +99999+99999GF199999021999009141999999MA1101801999999REMMET051METAR SBQV 042000Z 13009KT 9999 FEW030 28/16 Q1018=
0142833440999992015010421004-14863-040863FM-15+091499999V0201101N005719999999N009999199+02501+01701999999ADDGA1021+007621999GE19MSL   +99999+99999GF199999021999007621999999MA1101801999999REMMET051METAR SBQV 042100Z 11011KT 9999 FEW025 25/17 Q1018=
0072833440999992015010422004-14863-040863FM-15+091499999V0201001N005719999999Y999999999+02301+01801999999ADDMA1101801999999REMMET045METAR SBQV 042200Z 10011KT CAVOK 23/18 Q1018=
0072833440999992015010423004-14863-040863FM-15+091499999V0200901N004619999999Y999999999+02201+01901999999ADDMA1101901999999REMMET045METAR SBQV 042300Z 09009KT CAVOK 22/19 Q1019=
0072833440999992015010500004-14863-040863FM-15+091499999V0200801N004619999999Y999999999+02101+01901999999ADDMA1102001999999REMMET045METAR SBQV 050000Z 08009KT CAVOK 21/19 Q1020=
0072833440999992015010501004-14863-040863FM-15+091499999V0200801N005119999999Y999999999+02101+01901999999ADDMA1102001999999REMMET045METAR SBQV 050100Z 08010KT CAVOK 21/19 Q1020=
0072833440999992015010501154-14863-040863FM-16+091499999V0200801N005119999999Y999999999+02001+01901999999ADDMA1102001999999REMMET045SPECI SBQV 050115Z 08010KT CAVOK 20/19 Q1020=
0072833440999992015010507004-14863-040863FM-15+091499999V0201101N003119999999Y999999999+01701+01701999999ADDMA1102001999999REMMET045METAR SBQV 050700Z 11006KT CAVOK 17/17 Q1020=
0142833440999992015010508004-14863-040863FM-15+091499999V0201001N002610018319N009999199+01701+01701999999ADDGA1071+001831999GE19MSL   +99999+99999GF199999071999001831999999MA1102001999999REMMET051METAR SBQV 050800Z 10005KT 9999 BKN006 17/17 Q1020=
0142833440999992015010509004-14863-040863FM-15+091499999V0200701N002110024419N009999199+01801+01801999999ADDGA1071+002441999GE19MSL   +99999+99999GF199999071999002441999999MA1102101999999REMMET051METAR SBQV 050900Z 07004KT 9999 BKN008 18/18 Q1021=
0142833440999992015010510004-14863-040863FM-15+091499999V0200701N002110030519N009999199+02001+01801999999ADDGA1071+003051999GE19MSL   +99999+99999GF199999071999003051999999MA1102101999999REMMET051METAR SBQV 051000Z 07004KT 9999 BKN010 20/18 Q1021=
0142833440999992015010511004-14863-040863FM-15+091499999V0200501N004119999999N009999199+02301+01801999999ADDGA1041+003961999GE19MSL   +99999+99999GF199999041999003961999999MA1102101999999REMMET051METAR SBQV 051100Z 05008KT 9999 SCT013 23/18 Q1021=
0142833440999992015010512004-14863-040863FM-15+091499999V0200601N004619999999N009999199+02501+01801999999ADDGA1041+005491999GE19MSL   +99999+99999GF199999041999005491999999MA1102201999999REMMET051METAR SBQV 051200Z 06009KT 9999 SCT018 25/18 Q1022=
0142833440999992015010513004-14863-040863FM-15+091499999V0200701N003610061019N009999199+02601+01801999999ADDGA1071+006101999GE19MSL   +99999+99999GF199999071999006101999999MA1102201999999REMMET051METAR SBQV 051300Z 07007KT 9999 BKN020 26/18 Q1022=
0142833440999992015010514004-14863-040863FM-15+091499999V0200601N003110076219N009999199+02801+01701999999ADDGA1071+007621999GE19MSL   +99999+99999GF199999071999007621999999MA1102101999999REMMET051METAR SBQV 051400Z 06006KT 9999 BKN025 28/17 Q1021=
0142833440999992015010515004-14863-040863FM-15+091499999V0200401N002110076219N009999199+02801+01701999999ADDGA1071+007621999GE19MSL   +99999+99999GF199999071999007621999999MA1102101999999REMMET051METAR SBQV 051500Z 04004KT 9999 BKN025 28/17 Q1021=
0142833440999992015010516004-14863-040863FM-15+091499999V0201901N002110061019N009999199+02601+01901999999ADDGA1071+006101999GE19MSL   +99999+99999GF199999071999006101999999MA1102101999999REMMET051METAR SBQV 051600Z 19004KT 9999 BKN020 26/19 Q1021=
0165833440999992015010517004-14863-040863FM-15+091499999V0202001N001510061019N009999199+02701+01801999999ADDGA1071+006101999GA2041+021341999GE19MSL   +99999+99999GF199999071999006101999999MA1102001999999REMMET058METAR SBQV 051700Z 20003KT 9999 BKN020 SCT070 27/18 Q1020=
0191833440999992015010518004-14863-040863FM-15+091499999V0201401N001510061019N009999199+02601+01801999999ADDGA1071+006101999GA2021+007621081GA3041+021341999GE19MSL   +99999+99999GF199999071999006101999999MA1101901999999REMMET068METAR SBQV 051800Z 14003KT 9999 BKN020 FEW025TCU SCT070 26/18 Q1019=
0168833440999992015010519004-14863-040863FM-15+091499999V0201201N005719999999N009999199+02801+02001999999ADDGA1041+006101999GA2021+007621081GE19MSL   +99999+99999GF199999041999006101999999MA1101901999999REMMET061METAR SBQV 051900Z 12011KT 9999 SCT020 FEW025TCU 28/20 Q1019=
0142833440999992015010520004-14863-040863FM-15+091499999V0201201N005119999999N009999199+02501+01901999999ADDGA1021+006101999GE19MSL   +99999+99999GF199999021999006101999999MA1101901999999REMMET051METAR SBQV 052000Z 12010KT 9999 FEW020 25/19 Q1019=
0142833440999992015010521004-14863-040863FM-15+091499999V0201101N003619999999N009999199+02401+01801999999ADDGA1021+005491999GE19MSL   +99999+99999GF199999021999005491999999MA1101901999999REMMET051METAR SBQV 052100Z 11007KT 9999 FEW018 24/18 Q1019=
0142833440999992015010522004-14863-040863FM-15+091499999V0201201N004119999999N009999199+02201+01901999999ADDGA1021+005491999GE19MSL   +99999+99999GF199999021999005491999999MA1102001999999REMMET051METAR SBQV 052200Z 12008KT 9999 FEW018 22/19 Q1020=
0165833440999992015010523004-14863-040863FM-15+091499999V0201001N00361021341CN009999199+02201+01901999999ADDGA1021+005491999GA2041+021341999GE19MSL   +99999+99999GF199999021999005491999999MA1102001999999REMMET058METAR SBQV 052300Z 10007KT 9999 FEW018 SCT070 22/19 Q1020=
0165833440999992015010600004-14863-040863FM-15+091499999V0201001N00411021341CN009999199+02101+01901999999ADDGA1041+004571999GA2041+021341999GE19MSL   +99999+99999GF199999041999004571999999MA1102101999999REMMET058METAR SBQV 060000Z 10008KT 9999 SCT015 SCT070 21/19 Q1021=
0165833440999992015010601004-14863-040863FM-15+091499999V0200901N00461021341CN009999199+02101+01901999999ADDGA1041+004571999GA2041+021341999GE19MSL   +99999+99999GF199999041999004571999999MA1102101999999REMMET058METAR SBQV 060100Z 09009KT 9999 SCT015 SCT070 21/19 Q1021=
0072833440999992015010602004-14863-040863FM-15+091499999V0200901N004119999999Y999999999+02101+01901999999ADDMA1102101999999REMMET045METAR SBQV 060200Z 09008KT CAVOK 21/19 Q1021=
0072833440999992015010603004-14863-040863FM-15+091499999V0200901N004619999999Y999999999+02101+01801999999ADDMA1102101999999REMMET045METAR SBQV 060300Z 09009KT CAVOK 21/18 Q1021=
0072833440999992015010603354-14863-040863FM-16+091499999V0200801N004619999999Y999999999+02001+01801999999ADDMA1102001999999REMMET045SPECI SBQV 060335Z 08009KT CAVOK 20/18 Q1020=
0072833440999992015010607004-14863-040863FM-15+091499999V0201101N002619999999Y999999999+01901+01701999999ADDMA1102001999999REMMET045METAR SBQV 060700Z 11005KT CAVOK 19/17 Q1020=
0165833440999992015010608004-14863-040863FM-15+091499999V0201101N00311021341CN009999199+01901+01801999999ADDGA1021+003661999GA2041+021341999GE19MSL   +99999+99999GF199999021999003661999999MA1102101999999REMMET058METAR SBQV 060800Z 11006KT 9999 FEW012 SCT070 19/18 Q1021=
0142833440999992015010609004-14863-040863FM-15+091499999V0201001N003110030519N009999199+01901+01801999999ADDGA1071+003051999GE19MSL   +99999+99999GF199999071999003051999999MA1102101999999REMMET051METAR SBQV 060900Z 10006KT 9999 BKN010 19/18 Q1021=
0142833440999992015010610004-14863-040863FM-15+091499999V0200601N003610036619N009999199+02001+01801999999ADDGA1071+003661999GE19MSL   +99999+99999GF199999071999003661999999MA1102201999999REMMET051METAR SBQV 061000Z 06007KT 9999 BKN012 20/18 Q1022=
0142833440999992015010611004-14863-040863FM-15+091499999V0200801N003619999999N009999199+02201+01801999999ADDGA1041+003961999GE19MSL   +99999+99999GF199999041999003961999999MA1102201999999REMMET051METAR SBQV 061100Z 08007KT 9999 SCT013 22/18 Q1022=
0165833440999992015010612004-14863-040863FM-15+091499999V0200801N003110045719N009999199+02301+01801999999ADDGA1041+003961999GA2071+004571999GE19MSL   +99999+99999GF199999041999003961999999MA1102201999999REMMET058METAR SBQV 061200Z 08006KT 9999 SCT013 BKN015 23/18 Q1022=
0142833440999992015010613004-14863-040863FM-15+091499999V0201301N002110061019N009999199+02401+01901999999ADDGA1071+006101999GE19MSL   +99999+99999GF199999071999006101999999MA1102201999999REMMET051METAR SBQV 061300Z 13004KT 9999 BKN020 24/19 Q1022=
0142833440999992015010614004-14863-040863FM-15+091499999V0201101N002110061019N009999199+02601+01901999999ADDGA1071+006101999GE19MSL   +99999+99999GF199999071999006101999999MA1102201999999REMMET051METAR SBQV 061400Z 11004KT 9999 BKN020 26/19 Q1022=
0142833440999992015010615004-14863-040863FM-15+091499999V0200901N003110076219N009999199+02901+01901999999ADDGA1071+007621999GE19MSL   +99999+99999GF199999071999007621999999MA1102201999999REMMET051METAR SBQV 061500Z 09006KT 9999 BKN025 29/19 Q1022=
0142833440999992015010616004-14863-040863FM-15+091499999V0200901N003610076219N009999199+02701+01901999999ADDGA1071+007621999GE19MSL   +99999+99999GF199999071999007621999999MA1102101999999REMMET051METAR SBQV 061600Z 09007KT 9999 BKN025 27/19 Q1021=
0142833440999992015010617004-14863-040863FM-15+091499999V0203501N001510076219N009999199+02601+02001999999ADDGA1071+007621999GE19MSL   +99999+99999GF199999071999007621999999MA1102001999999REMMET051METAR SBQV 061700Z 35003KT 9999 BKN025 26/20 Q1020=
0142833440999992015010618004-14863-040863FM-15+091499999V0200901N001510061019N009999199+02801+01801999999ADDGA1071+006101999GE19MSL   +99999+99999GF199999071999006101999999MA1102001999999REMMET051METAR SBQV 061800Z 09003KT 9999 BKN020 28/18 Q1020=
0142833440999992015010619004-14863-040863FM-15+091499999V0201401N004110054919N009999199+02701+01801999999ADDGA1071+005491999GE19MSL   +99999+99999GF199999071999005491999999MA1102001999999REMMET051METAR SBQV 061900Z 14008KT 9999 BKN018 27/18 Q1020=
0142833440999992015010620004-14863-040863FM-15+091499999V0201301N004119999999N009999199+02801+01801999999ADDGA1041+006101999GE19MSL   +99999+99999GF199999041999006101999999MA1102001999999REMMET051METAR SBQV 062000Z 13008KT 9999 SCT020 28/18 Q1020=
0142833440999992015010621004-14863-040863FM-15+091499999V0201301N004619999999N009999199+02601+01701999999ADDGA1021+006101999GE19MSL   +99999+99999GF199999021999006101999999MA1102001999999REMMET051METAR SBQV 062100Z 13009KT 9999 FEW020 26/17 Q1020=
0072833440999992015010622004-14863-040863FM-15+091499999V0201101N002619999999Y999999999+02401+01701999999ADDMA1102001999999REMMET045METAR SBQV 062200Z 11005KT CAVOK 24/17 Q1020=
0072833440999992015010623004-14863-040863FM-15+091499999V0201101N003619999999Y999999999+02301+01701999999ADDMA1102001999999REMMET045METAR SBQV 062300Z 11007KT CAVOK 23/17 Q1020=
0072833440999992015010700004-14863-040863FM-15+091499999V0201201N004119999999Y999999999+02201+01901999999ADDMA1102101999999REMMET045METAR SBQV 070000Z 12008KT CAVOK 22/19 Q1021=
0142833440999992015010701004-14863-040863FM-15+091499999V0201001N004610030519N009999199+02201+02001999999ADDGA1071+003051999GE19MSL   +99999+99999GF199999071999003051999999MA1102101999999REMMET051METAR SBQV 070100Z 10009KT 9999 BKN010 22/20 Q1021=
0142833440999992015010702004-14863-040863FM-15+091499999V0201001N005110030519N009999199+02101+01901999999ADDGA1071+003051999GE19MSL   +99999+99999GF199999071999003051999999MA1102101999999REMMET051METAR SBQV 070200Z 10010KT 9999 BKN010 21/19 Q1021=
0142833440999992015010703004-14863-040863FM-15+091499999V0201001N005710030519N009999199+02101+01901999999ADDGA1071+003051999GE19MSL   +99999+99999GF199999071999003051999999MA1102101999999REMMET051METAR SBQV 070300Z 10011KT 9999 BKN010 21/19 Q1021=
0142833440999992015010703474-14863-040863FM-16+091499999V0201001N004619999999N009999199+02001+01901999999ADDGA1021+003051999GE19MSL   +99999+99999GF199999021999003051999999MA1102001999999REMMET051SPECI SBQV 070347Z 10009KT 9999 FEW010 20/19 Q1020=
0142833440999992015010707004-14863-040863FM-15+091499999V0201201N002619999999N009999199+01901+01901999999ADDGA1021+002131999GE19MSL   +99999+99999GF199999021999002131999999MA1102001999999REMMET051METAR SBQV 070700Z 12005KT 9999 FEW007 19/19 Q1020=
0165833440999992015010708004-14863-040863FM-15+091499999V0201201N002610030519N009999199+01901+01901999999ADDGA1021+002131999GA2071+003051999GE19MSL   +99999+99999GF199999021999002131999999MA1102001999999REMMET058METAR SBQV 070800Z 12005KT 9999 FEW007 BKN010 19/19 Q1020=
0182833440999992015010709004-14863-040863FM-15+091499999V0201101N003610030519N009999199+02001+01901999999ADDGA1021+002131999GA2071+003051999GE19MSL   +99999+99999GF199999021999002131999999MA1102101999999MW1511REMMET069METAR SBQV 070900Z 11007KT 9999 4000SE -DZ FEW007 BKN010 20/19 Q1021=
0182833440999992015010710004-14863-040863FM-15+091499999V0201001N002610030519N009999199+02001+02001999999ADDGA1021+002131999GA2071+003051999GE19MSL   +99999+99999GF199999021999002131999999MA1102101999999MW1611REMMET069METAR SBQV 071000Z 10005KT 9999 3000SE -RA FEW007 BKN010 20/20 Q1021=
0165833440999992015010711004-14863-040863FM-15+091499999V0200901N00411021341CN009999199+02101+02101999999ADDGA1041+003351999GA2041+021341999GE19MSL   +99999+99999GF199999041999003351999999MA1102101999999REMMET058METAR SBQV 071100Z 09008KT 9999 SCT011 SCT070 21/21 Q1021=
0176833440999992015010712004-14863-040863FM-15+091499999V0201201N004110045719N009999199+02301+02001999999ADDGA1071+004571999GA2041+021341999GE19MSL   +99999+99999GF199999071999004571999999MA1102101999999MW1161REMMET063METAR SBQV 071200Z 12008KT 9999 VCSH BKN015 SCT070 23/20 Q1021=
0177833440999992015010713004-14863-040863FM-15+091499999V0201201N004110033519N006000199+02201+02101999999ADDGA1021+001831999GA2071+003351999GE19MSL   +99999+99999GF199999021999001831999999MA1102201999999MW1581REMMET064METAR SBQV 071300Z 12008KT 6000 -RADZ FEW006 BKN011 22/21 Q1022=
0165833440999992015010714004-14863-040863FM-15+091499999V0201101N004110036619N009999199+02201+02201999999ADDGA1071+003661999GA2071+021341999GE19MSL   +99999+99999GF199999071999003661999999MA1102101999999REMMET058METAR SBQV 071400Z 11008KT 9999 BKN012 BKN070 22/22 Q1021=
0142833440999992015010715004-14863-040863FM-15+091499999V0201301N005710045719N009999199+02401+02101999999ADDGA1071+004571999GE19MSL   +99999+99999GF199999071999004571999999MA1102101999999REMMET051METAR SBQV 071500Z 13011KT 9999 BKN015 24/21 Q1021=
0142833440999992015010716004-14863-040863FM-15+091499999V0201301N005710061019N009999199+02601+01901999999ADDGA1071+006101999GE19MSL   +99999+99999GF199999071999006101999999MA1102001999999REMMET051METAR SBQV 071600Z 13011KT 9999 BKN020 26/19 Q1020=
0142833440999992015010717004-14863-040863FM-15+091499999V0201301N006719999999N009999199+02801+01901999999ADDGA1041+007621999GE19MSL   +99999+99999GF199999041999007621999999MA1102001999999REMMET051METAR SBQV 071700Z 13013KT 9999 SCT025 28/19 Q1020=
0142833440999992015010718004-14467-040867FM-12+084099999V0201401N0031199999999020000199+02491+01751999999ADDAA106003031AY161061AY221061GA1041+004501081GE19MSL   +99999+99999GF104991041999004501999999MA1999999091761MD1999999-0091MW1011REMSYN004BUFR
0142833440999992015010718004-14863-040863FM-15+091499999V0201101N005719999999N009999199+02801+01801999999ADDGA1021+007621999GE19MSL   +99999+99999GF199999021999007621999999MA1101901999999REMMET051METAR SBQV 071800Z 11011KT 9999 FEW025 28/18 Q1019=
0142833440999992015010719004-14863-040863FM-15+091499999V0201301N005719999999N009999199+02801+01801999999ADDGA1021+006101999GE19MSL   +99999+99999GF199999021999006101999999MA1101901999999REMMET051METAR SBQV 071900Z 13011KT 9999 FEW020 28/18 Q1019=
0142833440999992015010720004-14863-040863FM-15+091499999V0201201N005719999999N009999199+02601+01801999999ADDGA1021+006101999GE19MSL   +99999+99999GF199999021999006101999999MA1101901999999REMMET051METAR SBQV 072000Z 12011KT 9999 FEW020 26/18 Q1019=
0142833440999992015010721004-14863-040863FM-15+091499999V0201101N005119999999N009999199+02401+01701999999ADDGA1021+006101999GE19MSL   +99999+99999GF199999021999006101999999MA1101901999999REMMET051METAR SBQV 072100Z 11010KT 9999 FEW020 24/17 Q1019=
0072833440999992015010722004-14863-040863FM-15+091499999V0201201N003619999999Y999999999+02201+01701999999ADDMA1101901999999REMMET045METAR SBQV 072200Z 12007KT CAVOK 22/17 Q1019=
0072833440999992015010723004-14863-040863FM-15+091499999V0201101N003119999999Y999999999+02101+01701999999ADDMA1102001999999REMMET045METAR SBQV 072300Z 11006KT CAVOK 21/17 Q1020=
0142833440999992015010800004-14863-040863FM-15+091499999V0200801N004119999999N009999199+02101+01901999999ADDGA1041+003661999GE19MSL   +99999+99999GF199999041999003661999999MA1102101999999REMMET051METAR SBQV 080000Z 08008KT 9999 SCT012 21/19 Q1021=
0072833440999992015010801004-14863-040863FM-15+091499999V0200801N004619999999Y999999999+02001+01801999999ADDMA1102101999999REMMET045METAR SBQV 080100Z 08009KT CAVOK 20/18 Q1021=
0142833440999992015010802004-14863-040863FM-15+091499999V0201101N003619999999N009999199+01901+01801999999ADDGA1041+003051999GE19MSL   +99999+99999GF199999041999003051999999MA1102001999999REMMET051METAR SBQV 080200Z 11007KT 9999 SCT010 19/18 Q1020=
0142833440999992015010803004-14863-040863FM-15+091499999V0200901N003619999999N009999199+01801+01801999999ADDGA1021+003051999GE19MSL   +99999+99999GF199999021999003051999999MA1102001999999REMMET051METAR SBQV 080300Z 09007KT 9999 FEW010 18/18 Q1020=
0142833440999992015010803454-14863-040863FM-16+091499999V0200801N003619999999N009999199+01801+01701999999ADDGA1021+003051999GE19MSL   +99999+99999GF199999021999003051999999MA1102001999999REMMET051SPECI SBQV 080345Z 08007KT 9999 FEW010 18/17 Q1020=
0072833440999992015010807004-14863-040863FM-15+091499999V0201101N002619999999Y999999999+01601+01601999999ADDMA1102001999999REMMET045METAR SBQV 080700Z 11005KT CAVOK 16/16 Q1020=
0072833440999992015010808004-14863-040863FM-15+091499999V0201201N002119999999Y999999999+01501+01501999999ADDMA1102101999999REMMET045METAR SBQV 080800Z 12004KT CAVOK 15/15 Q1021=
0072833440999992015010809004-14863-040863FM-15+091499999V0201201N002119999999Y999999999+01701+01701999999ADDMA1102201999999REMMET045METAR SBQV 080900Z 12004KT CAVOK 17/17 Q1022=
0142833440999992015010810004-14863-040863FM-15+091499999V0201001N003619999999N009999199+01901+01801999999ADDGA1041+003051999GE19MSL   +99999+99999GF199999041999003051999999MA1102201999999REMMET051METAR SBQV 081000Z 10007KT 9999 SCT010 19/18 Q1022=
0142833440999992015010811004-14863-040863FM-15+091499999V0201001N005119999999N009999199+02201+01701999999ADDGA1041+003051999GE19MSL   +99999+99999GF199999041999003051999999MA1102201999999REMMET051METAR SBQV 081100Z 10010KT 9999 SCT010 22/17 Q1022=
0142833440999992015010812004-14863-040863FM-15+091499999V0200901N003619999999N009999199+02401+01701999999ADDGA1041+004571999GE19MSL   +99999+99999GF199999041999004571999999MA1102201999999REMMET051METAR SBQV 081200Z 09007KT 9999 SCT015 24/17 Q1022=
0142833440999992015010813004-14863-040863FM-15+091499999V0200901N004110061019N009999199+02601+01601999999ADDGA1071+006101999GE19MSL   +99999+99999GF199999071999006101999999MA1102201999999REMMET051METAR SBQV 081300Z 09008KT 9999 BKN020 26/16 Q1022=
0142833440999992015010814004-14863-040863FM-15+091499999V0200601N003110061019N009999199+02601+01601999999ADDGA1071+006101999GE19MSL   +99999+99999GF199999071999006101999999MA1102201999999REMMET051METAR SBQV 081400Z 06006KT 9999 BKN020 26/16 Q1022=
0142833440999992015010815004-14863-040863FM-15+091499999V0201201N004610076219N009999199+02701+01701999999ADDGA1071+007621999GE19MSL   +99999+99999GF199999071999007621999999MA1102101999999REMMET051METAR SBQV 081500Z 12009KT 9999 BKN025 27/17 Q1021=
0142833440999992015010816004-14863-040863FM-15+091499999V0201201N003610076219N009999199+02801+01601999999ADDGA1071+007621999GE19MSL   +99999+99999GF199999071999007621999999MA1102101999999REMMET051METAR SBQV 081600Z 12007KT 9999 BKN025 28/16 Q1021=
0142833440999992015010817004-14863-040863FM-15+091499999V0201201N003610076219N009999199+02901+01601999999ADDGA1071+007621999GE19MSL   +99999+99999GF199999071999007621999999MA1101901999999REMMET051METAR SBQV 081700Z 12007KT 9999 BKN025 29/16 Q1019=
0142833440999992015010818004-14863-040863FM-15+091499999V0201001N004619999999N009999199+02901+01601999999ADDGA1041+007621999GE19MSL   +99999+99999GF199999041999007621999999MA1101901999999REMMET051METAR SBQV 081800Z 10009KT 9999 SCT025 29/16 Q1019=
0142833440999992015010819004-14863-040863FM-15+091499999V0201001N005719999999N009999199+02801+01601999999ADDGA1041+007621999GE19MSL   +99999+99999GF199999041999007621999999MA1101901999999REMMET051METAR SBQV 081900Z 10011KT 9999 SCT025 28/16 Q1019=
0142833440999992015010820004-14863-040863FM-15+091499999V0201101N005119999999N009999199+02801+01601999999ADDGA1041+006101999GE19MSL   +99999+99999GF199999041999006101999999MA1101901999999REMMET051METAR SBQV 082000Z 11010KT 9999 SCT020 28/16 Q1019=
0142833440999992015010821004-14863-040863FM-15+091499999V0201101N005719999999N009999199+02501+01601999999ADDGA1021+005491999GE19MSL   +99999+99999GF199999021999005491999999MA1101901999999REMMET051METAR SBQV 082100Z 11011KT 9999 FEW018 25/16 Q1019=
0142833440999992015010822004-14863-040863FM-15+091499999V0200901N004119999999N009999199+02301+01801999999ADDGA1021+004571999GE19MSL   +99999+99999GF199999021999004571999999MA1101901999999REMMET051METAR SBQV 082200Z 09008KT 9999 FEW015 23/18 Q1019=
0072833440999992015010823004-14863-040863FM-15+091499999V0200901N005119999999Y999999999+02201+01901999999ADDMA1102001999999REMMET045METAR SBQV 082300Z 09010KT CAVOK 22/19 Q1020=
0072833440999992015010900004-14863-040863FM-15+091499999V0201001N004619999999Y999999999+02101+01901999999ADDMA1102001999999REMMET045METAR SBQV 090000Z 10009KT CAVOK 21/19 Q1020=
0142833440999992015010901004-14863-040863FM-15+091499999V0201001N004119999999N009999199+02101+01901999999ADDGA1041+003961999GE19MSL   +99999+99999GF199999041999003961999999MA1102001999999REMMET051METAR SBQV 090100Z 10008KT 9999 SCT013 21/19 Q1020=
0142833440999992015010902004-14863-040863FM-15+091499999V0200901N005119999999N009999199+02101+01901999999ADDGA1041+003351999GE19MSL   +99999+99999GF199999041999003351999999MA1102001999999REMMET051METAR SBQV 090200Z 09010KT 9999 SCT011 21/19 Q1020=
0142833440999992015010903004-14863-040863FM-15+091499999V0200901N004119999999N009999199+02101+01901999999ADDGA1041+003051999GE19MSL   +99999+99999GF199999041999003051999999MA1102001999999REMMET051METAR SBQV 090300Z 09008KT 9999 SCT010 21/19 Q1020=
0142833440999992015010904004-14863-040863FM-15+091499999V0201001N005710030519N009999199+02001+01901999999ADDGA1071+003051999GE19MSL   +99999+99999GF199999071999003051999999MA1101901999999REMMET051METAR SBQV 090400Z 10011KT 9999 BKN010 20/19 Q1019=
0142833440999992015010904304-14863-040863FM-16+091499999V0200901N006210030519N009999199+02001+01901999999ADDGA1071+003051999GE19MSL   +99999+99999GF199999071999003051999999MA1101901999999REMMET051SPECI SBQV 090430Z 09012KT 9999 BKN010 20/19 Q1019=
0072833440999992015010907004-14863-040863FM-15+091499999V0200901N003619999999Y999999999+01901+01801999999ADDMA1102001999999REMMET045METAR SBQV 090700Z 09007KT CAVOK 19/18 Q1020=
0165833440999992015010908004-14863-040863FM-15+091499999V0201101N00211021341CN009999199+01901+01801999999ADDGA1021+003051999GA2041+021341999GE19MSL   +99999+99999GF199999021999003051999999MA1102101999999REMMET058METAR SBQV 090800Z 11004KT 9999 FEW010 SCT070 19/18 Q1021=
0165833440999992015010909004-14863-040863FM-15+091499999V0201201N00151021341CN009999199+01801+01801999999ADDGA1041+003051999GA2041+021341999GE19MSL   +99999+99999GF199999041999003051999999MA1102201999999REMMET058METAR SBQV 090900Z 12003KT 9999 SCT010 SCT070 18/18 Q1022=
0165833440999992015010910004-14863-040863FM-15+091499999V0201201N002610213419N009999199+02001+01901999999ADDGA1041+003051999GA2071+021341999GE19MSL   +99999+99999GF199999041999003051999999MA1102201999999REMMET058METAR SBQV 091000Z 12005KT 9999 SCT010 BKN070 20/19 Q1022=
0165833440999992015010911004-14863-040863FM-15+091499999V0201001N003610045719N009999199+02201+01901999999ADDGA1071+004571999GA2071+021341999GE19MSL   +99999+99999GF199999071999004571999999MA1102301999999REMMET058METAR SBQV 091100Z 10007KT 9999 BKN015 BKN070 22/19 Q1023=
0142833440999992015010912004-14863-040863FM-15+091499999V0201201N003610054919N009999199+02301+01801999999ADDGA1071+005491999GE19MSL   +99999+99999GF199999071999005491999999MA1102301999999REMMET051METAR SBQV 091200Z 12007KT 9999 BKN018 23/18 Q1023=
0142833440999992015010913004-14863-040863FM-15+091499999V0201201N003110061019N009999199+02501+01901999999ADDGA1071+006101999GE19MSL   +99999+99999GF199999071999006101999999MA1102301999999REMMET051METAR SBQV 091300Z 12006KT 9999 BKN020 25/19 Q1023=
0165833440999992015010914004-14863-040863FM-15+091499999V0201101N003110061019N009999199+02601+01901999999ADDGA1071+006101999GA2041+021341999GE19MSL   +99999+99999GF199999071999006101999999MA1102201999999REMMET058METAR SBQV 091400Z 11006KT 9999 BKN020 SCT070 26/19 Q1022=
0142833440999992015010915004-14863-040863FM-15+091499999V0201401N003110076219N009999199+02601+01901999999ADDGA1071+007621999GE19MSL   +99999+99999GF199999071999007621999999MA1102101999999REMMET051METAR SBQV 091500Z 14006KT 9999 BKN025 26/19 Q1021=
0150833440999992015010916004-14863-040863FM-15+091499999V0201201V003110076219N009999199+02701+01901999999ADDGA1071+007621999GE19MSL   +99999+99999GF199999071999007621999999MA1102101999999REMMET059METAR SBQV 091600Z 12006KT 090V150 9999 BKN025 27/19 Q1021=
0142833440999992015010917004-14863-040863FM-15+091499999V0201301N004119999999N009999199+02801+02001999999ADDGA1041+007621999GE19MSL   +99999+99999GF199999041999007621999999MA1102001999999REMMET051METAR SBQV 091700Z 13008KT 9999 SCT025 28/20 Q1020=
0142833440999992015010918004-14863-040863FM-15+091499999V0201301N005110076219N009999199+02801+02101999999ADDGA1071+007621999GE19MSL   +99999+99999GF199999071999007621999999MA1101901999999REMMET051METAR SBQV 091800Z 13010KT 9999 BKN025 28/21 Q1019=
0142833440999992015010919004-14863-040863FM-15+091499999V0201101N005119999999N009999199+02501+02001999999ADDGA1041+006101999GE19MSL   +99999+99999GF199999041999006101999999MA1102001999999REMMET051METAR SBQV 091900Z 11010KT 9999 SCT020 25/20 Q1020=
0142833440999992015010920004-14863-040863FM-15+091499999V0200901N006719999999N009999199+02401+02001999999ADDGA1041+004571999GE19MSL   +99999+99999GF199999041999004571999999MA1102001999999REMMET051METAR SBQV 092000Z 09013KT 9999 SCT015 24/20 Q1020=
0165833440999992015010921004-14863-040863FM-15+091499999V0200901N00461021341CN009999199+02301+01801999999ADDGA1021+003961999GA2041+021341999GE19MSL   +99999+99999GF199999021999003961999999MA1102001999999REMMET058METAR SBQV 092100Z 09009KT 9999 FEW013 SCT070 23/18 Q1020=
0142833440999992015010922004-14863-040863FM-15+091499999V0201001N005119999999N009999199+02101+01901999999ADDGA1041+003351999GE19MSL   +99999+99999GF199999041999003351999999MA1102001999999REMMET051METAR SBQV 092200Z 10010KT 9999 SCT011 21/19 Q1020=
0142833440999992015010923004-14863-040863FM-15+091499999V0201101N004619999999N009999199+02101+01901999999ADDGA1041+003351999GE19MSL   +99999+99999GF199999041999003351999999MA1102101999999REMMET051METAR SBQV 092300Z 11009KT 9999 SCT011 21/19 Q1021=
0142833440999992015011000004-14863-040863FM-15+091499999V0200901N005710027419N009999199+02001+01901999999ADDGA1071+002741999GE19MSL   +99999+99999GF199999071999002741999999MA1102201999999REMMET051METAR SBQV 100000Z 09011KT 9999 BKN009 20/19 Q1022=
0142833440999992015011001004-14863-040863FM-15+091499999V0201001N004119999999N009999199+02001+01901999999ADDGA1041+002741999GE19MSL   +99999+99999GF199999041999002741999999MA1102101999999REMMET051METAR SBQV 100100Z 10008KT 9999 SCT009 20/19 Q1021=
0142833440999992015011002004-14863-040863FM-15+091499999V0200801N005110021319N009999199+02001+01901999999ADDGA1071+002131999GE19MSL   +99999+99999GF199999071999002131999999MA1102101999999REMMET051METAR SBQV 100200Z 08010KT 9999 BKN007 20/19 Q1021=
0142833440999992015011003004-14863-040863FM-15+091499999V0200901N004619999999N009999199+01901+01901999999ADDGA1041+001831999GE19MSL   +99999+99999GF199999041999001831999999MA1102001999999REMMET051METAR SBQV 100300Z 09009KT 9999 SCT006 19/19 Q1020=
0142833440999992015011004004-14863-040863FM-15+091499999V0200701N004619999999N009999199+01901+01801999999ADDGA1041+002441999GE19MSL   +99999+99999GF199999041999002441999999MA1102001999999REMMET051METAR SBQV 100400Z 07009KT 9999 SCT008 19/18 Q1020=
0142833440999992015011005004-14863-040863FM-15+091499999V0200901N004119999999N009999199+01901+01801999999ADDGA1041+002441999GE19MSL   +99999+99999GF199999041999002441999999MA1101901999999REMMET051METAR SBQV 100500Z 09008KT 9999 SCT008 19/18 Q1019=
0142833440999992015011006004-14863-040863FM-15+091499999V0200901N003619999999N009999199+01901+01801999999ADDGA1041+003051999GE19MSL   +99999+99999GF199999041999003051999999MA1102001999999REMMET051METAR SBQV 100600Z 09007KT 9999 SCT010 19/18 Q1020=
0142833440999992015011007004-14863-040863FM-15+091499999V0200901N002610030519N009999199+01901+01801999999ADDGA1071+003051999GE19MSL   +99999+99999GF199999071999003051999999MA1102001999999REMMET051METAR SBQV 100700Z 09005KT 9999 BKN010 19/18 Q1020=
0142833440999992015011008004-14863-040863FM-15+091499999V0200801N003110030519N009999199+01901+01801999999ADDGA1071+003051999GE19MSL   +99999+99999GF199999071999003051999999MA1102101999999REMMET051METAR SBQV 100800Z 08006KT 9999 BKN010 19/18 Q1021=
0142833440999992015011008334-14863-040863FM-16+091499999V0200801N002119999999N009999199+01901+01801999999ADDGA1041+003051999GE19MSL   +99999+99999GF199999041999003051999999MA1102101999999REMMET051SPECI SBQV 100833Z 08004KT 9999 SCT010 19/18 Q1021=
0165833440999992015011009004-14863-040863FM-15+091499999V0201001N00261021341CN009999199+01901+01801999999ADDGA1041+003051999GA2041+021341999GE19MSL   +99999+99999GF199999041999003051999999MA1102101999999REMMET058METAR SBQV 100900Z 10005KT 9999 SCT010 SCT070 19/18 Q1021=
0181833440999992015011010004-14863-040863FM-15+091499999V0200801N003110030519N009999199+02001+01801999999ADDGA1041+001831999GA2071+003051999GE19MSL   +99999+99999GF199999041999001831999999MA1102201999999MW1511REMMET068METAR SBQV 101000Z 08006KT 9999 4000E -DZ SCT006 BKN010 20/18 Q1022=
0165833440999992015011011004-14863-040863FM-15+091499999V0201001N002610033519N009999199+02101+01901999999ADDGA1071+003351999GA2041+021341999GE19MSL   +99999+99999GF199999071999003351999999MA1102301999999REMMET058METAR SBQV 101100Z 10005KT 9999 BKN011 SCT070 21/19 Q1023=
0142833440999992015011012004-14863-040863FM-15+091499999V0201201N002119999999N009999199+02401+01901999999ADDGA1041+004571999GE19MSL   +99999+99999GF199999041999004571999999MA1102301999999REMMET051METAR SBQV 101200Z 12004KT 9999 SCT015 24/19 Q1023=
0142833440999992015011013004-14863-040863FM-15+091499999V0200901N003619999999N009999199+02801+01801999999ADDGA1041+006101999GE19MSL   +99999+99999GF199999041999006101999999MA1102201999999REMMET051METAR SBQV 101300Z 09007KT 9999 SCT020 28/18 Q1022=
0142833440999992015011014004-14863-040863FM-15+091499999V0201301N004110061019N009999199+02801+01801999999ADDGA1071+006101999GE19MSL   +99999+99999GF199999071999006101999999MA1102201999999REMMET051METAR SBQV 101400Z 13008KT 9999 BKN020 28/18 Q1022=
0142833440999992015011015004-14863-040863FM-15+091499999V0201301N003610061019N009999199+02801+01801999999ADDGA1071+006101999GE19MSL   +99999+99999GF199999071999006101999999MA1102201999999REMMET051METAR SBQV 101500Z 13007KT 9999 BKN020 28/18 Q1022=
0142833440999992015011016004-14863-040863FM-15+091499999V0201201N003610061019N009999199+02901+01801999999ADDGA1071+006101999GE19MSL   +99999+99999GF199999071999006101999999MA1102101999999REMMET051METAR SBQV 101600Z 12007KT 9999 BKN020 29/18 Q1021=
0142833440999992015011017004-14863-040863FM-15+091499999V0201001N003610061019N009999199+02801+01701999999ADDGA1071+006101999GE19MSL   +99999+99999GF199999071999006101999999MA1102001999999REMMET051METAR SBQV 101700Z 10007KT 9999 BKN020 28/17 Q1020=
0142833440999992015011018004-14863-040863FM-15+091499999V0201501N003610061019N009999199+02801+01701999999ADDGA1071+006101999GE19MSL   +99999+99999GF199999071999006101999999MA1102001999999REMMET051METAR SBQV 101800Z 15007KT 9999 BKN020 28/17 Q1020=
0142833440999992015011019004-14863-040863FM-15+091499999V0201201N004110061019N009999199+02901+01701999999ADDGA1071+006101999GE19MSL   +99999+99999GF199999071999006101999999MA1101901999999REMMET051METAR SBQV 101900Z 12008KT 9999 BKN020 29/17 Q1019=
0165833440999992015011020004-14863-040863FM-15+091499999V0201301N00361024381CN009999199+02701+01601999999ADDGA1021+006101999GA2041+024381999GE19MSL   +99999+99999GF199999021999006101999999MA1101901999999REMMET058METAR SBQV 102000Z 13007KT 9999 FEW020 SCT080 27/16 Q1019=
0072833440999992015011021004-14863-040863FM-15+091499999V0201001N004119999999Y999999999+02601+01701999999ADDMA1101901999999REMMET045METAR SBQV 102100Z 10008KT CAVOK 26/17 Q1019=
0072833440999992015011022004-14863-040863FM-15+091499999V0201101N003619999999Y999999999+02401+01701999999ADDMA1101901999999REMMET045METAR SBQV 102200Z 11007KT CAVOK 24/17 Q1019=
0072833440999992015011023004-14863-040863FM-15+091499999V0201001N002619999999Y999999999+02301+01701999999ADDMA1102001999999REMMET045METAR SBQV 102300Z 10005KT CAVOK 23/17 Q1020=
0072833440999992015011100004-14863-040863FM-15+091499999V0200601N005119999999Y999999999+02201+01901999999ADDMA1102001999999REMMET045METAR SBQV 110000Z 06010KT CAVOK 22/19 Q1020=
0142833440999992015011101004-14863-040863FM-15+091499999V0200601N006219999999N009999199+02101+01901999999ADDGA1021+003051999GE19MSL   +99999+99999GF199999021999003051999999MA1102001999999REMMET051METAR SBQV 110100Z 06012KT 9999 FEW010 21/19 Q1020=
0142833440999992015011101154-14863-040863FM-16+091499999V0200601N005719999999N009999199+02101+01901999999ADDGA1021+003051999GE19MSL   +99999+99999GF199999021999003051999999MA1102001999999REMMET051SPECI SBQV 110115Z 06011KT 9999 FEW010 21/19 Q1020=
0142833440999992015011108004-14863-040863FM-15+091499999V0200701N003119999999N009999199+01901+01801999999ADDGA1041+003051999GE19MSL   +99999+99999GF199999041999003051999999MA1102001999999REMMET051METAR SBQV 110800Z 07006KT 9999 SCT010 19/18 Q1020=
0142833440999992015011109004-14863-040863FM-15+091499999V0200401N002619999999N009999199+01901+01801999999ADDGA1021+003661999GE19MSL   +99999+99999GF199999021999003661999999MA1102101999999REMMET051METAR SBQV 110900Z 04005KT 9999 FEW012 19/18 Q1021=
0142833440999992015011110004-14863-040863FM-15+091499999V0200501N001519999999N009999199+02001+01801999999ADDGA1041+003961999GE19MSL   +99999+99999GF199999041999003961999999MA1102201999999REMMET051METAR SBQV 111000Z 05003KT 9999 SCT013 20/18 Q1022=
0142833440999992015011111004-14863-040863FM-15+091499999V0200601N003110045719N009999199+02301+01801999999ADDGA1071+004571999GE19MSL   +99999+99999GF199999071999004571999999MA1102301999999REMMET051METAR SBQV 111100Z 06006KT 9999 BKN015 23/18 Q1023=
0142833440999992015011112004-14863-040863FM-15+091499999V0200301N003110045719N009999199+02501+01901999999ADDGA1071+004571999GE19MSL   +99999+99999GF199999071999004571999999MA1102301999999REMMET051METAR SBQV 111200Z 03006KT 9999 BKN015 25/19 Q1023=
0142833440999992015011113004-14863-040863FM-15+091499999V0200501N003110048819N009999199+02701+01801999999ADDGA1071+004881999GE19MSL   +99999+99999GF199999071999004881999999MA1102301999999REMMET051METAR SBQV 111300Z 05006KT 9999 BKN016 27/18 Q1023=
0142833440999992015011114004-14863-040863FM-15+091499999V0200101N002610061019N009999199+02801+01801999999ADDGA1071+006101999GE19MSL   +99999+99999GF199999071999006101999999MA1102201999999REMMET051METAR SBQV 111400Z 01005KT 9999 BKN020 28/18 Q1022=
0142833440999992015011115004-14863-040863FM-15+091499999V0200801N003110076219N009999199+02801+01701999999ADDGA1071+007621999GE19MSL   +99999+99999GF199999071999007621999999MA1102201999999REMMET051METAR SBQV 111500Z 08006KT 9999 BKN025 28/17 Q1022=
0142833440999992015011116004-14863-040863FM-15+091499999V0200801N003610076219N009999199+03001+01801999999ADDGA1071+007621999GE19MSL   +99999+99999GF199999071999007621999999MA1102101999999REMMET051METAR SBQV 111600Z 08007KT 9999 BKN025 30/18 Q1021=
0142833440999992015011117004-14863-040863FM-15+091499999V0200401N004610091419N009999199+02901+01701999999ADDGA1071+009141999GE19MSL   +99999+99999GF199999071999009141999999MA1102001999999REMMET051METAR SBQV 111700Z 04009KT 9999 BKN030 29/17 Q1020=
0142833440999992015011118004-14863-040863FM-15+091499999V0200601N002610061019N009999199+03101+01601999999ADDGA1071+006101999GE19MSL   +99999+99999GF199999071999006101999999MA1101901999999REMMET051METAR SBQV 111800Z 06005KT 9999 BKN020 31/16 Q1019=
0142833440999992015011119004-14863-040863FM-15+091499999V0200501N003110091419N009999199+03001+01701999999ADDGA1071+009141999GE19MSL   +99999+99999GF199999071999009141999999MA1101901999999REMMET051METAR SBQV 111900Z 05006KT 9999 BKN030 30/17 Q1019=
0142833440999992015011120004-14863-040863FM-15+091499999V0201001N005119999999N009999199+02901+01801999999ADDGA1041+009141999GE19MSL   +99999+99999GF199999041999009141999999MA1101901999999REMMET051METAR SBQV 112000Z 10010KT 9999 SCT030 29/18 Q1019=
0142833440999992015011121004-14863-040863FM-15+091499999V0200901N004619999999N009999199+02701+01801999999ADDGA1021+009141999GE19MSL   +99999+99999GF199999021999009141999999MA1101901999999REMMET051METAR SBQV 112100Z 09009KT 9999 FEW030 27/18 Q1019=
0142833440999992015011122004-14863-040863FM-15+091499999V0200901N004119999999N009999199+02401+02001999999ADDGA1021+009141999GE19MSL   +99999+99999GF199999021999009141999999MA1101901999999REMMET051METAR SBQV 112200Z 09008KT 9999 FEW030 24/20 Q1019=
0072833440999992015011123004-14863-040863FM-15+091499999V0200701N004619999999Y999999999+02301+02001999999ADDMA1102001999999REMMET045METAR SBQV 112300Z 07009KT CAVOK 23/20 Q1020=
0072833440999992015011200004-14863-040863FM-15+091499999V0200701N005719999999Y999999999+02201+02001999999ADDMA1102001999999REMMET045METAR SBQV 120000Z 07011KT CAVOK 22/20 Q1020=
0072833440999992015011201004-14863-040863FM-15+091499999V0200801N005119999999Y999999999+02101+01901999999ADDMA1102101999999REMMET045METAR SBQV 120100Z 08010KT CAVOK 21/19 Q1021=
0072833440999992015011202004-14863-040863FM-15+091499999V0200901N004619999999Y999999999+02001+01801999999ADDMA1102101999999REMMET045METAR SBQV 120200Z 09009KT CAVOK 20/18 Q1021=
0072833440999992015011203004-14863-040863FM-15+091499999V0201001N004619999999Y999999999+02001+01801999999ADDMA1102001999999REMMET045METAR SBQV 120300Z 10009KT CAVOK 20/18 Q1020=
0072833440999992015011204004-14863-040863FM-15+091499999V0200901N004119999999Y999999999+01901+01801999999ADDMA1102001999999REMMET045METAR SBQV 120400Z 09008KT CAVOK 19/18 Q1020=
0072833440999992015011205004-14863-040863FM-15+091499999V0200701N005119999999Y999999999+01901+01801999999ADDMA1102001999999REMMET045METAR SBQV 120500Z 07010KT CAVOK 19/18 Q1020=
0072833440999992015011205154-14863-040863FM-16+091499999V0200901N005119999999Y999999999+01901+01801999999ADDMA1102001999999REMMET045SPECI SBQV 120515Z 09010KT CAVOK 19/18 Q1020=
0072833440999992015011207004-14863-040863FM-15+091499999V0200701N004619999999Y999999999+01801+01701999999ADDMA1102001999999REMMET045METAR SBQV 120700Z 07009KT CAVOK 18/17 Q1020=
0142833440999992015011208004-14863-040863FM-15+091499999V0200601N006219999999N009999199+01801+01701999999ADDGA1021+002441999GE19MSL   +99999+99999GF199999021999002441999999MA1102101999999REMMET051METAR SBQV 120800Z 06012KT 9999 FEW008 18/17 Q1021=
0142833440999992015011209004-14863-040863FM-15+091499999V0200501N007219999999N009999199+01901+01701999999ADDGA1021+003051999GE19MSL   +99999+99999GF199999021999003051999999MA1102201999999REMMET051METAR SBQV 120900Z 05014KT 9999 FEW010 19/17 Q1022=
0142833440999992015011210004-14863-040863FM-15+091499999V0200601N006219999999N009999199+02101+01801999999ADDGA1021+003661999GE19MSL   +99999+99999GF199999021999003661999999MA1102201999999REMMET051METAR SBQV 121000Z 06012KT 9999 FEW012 21/18 Q1022=
0142833440999992015011211004-14863-040863FM-15+091499999V0200501N007719999999N009999199+02301+01801999999ADDGA1041+003961999GE19MSL   +99999+99999GF199999041999003961999999MA1102301999999REMMET051METAR SBQV 121100Z 05015KT 9999 SCT013 23/18 Q1023=
0142833440999992015011212004-14863-040863FM-15+091499999V0200501N004119999999N009999199+02501+01801999999ADDGA1041+004571999GE19MSL   +99999+99999GF199999041999004571999999MA1102301999999REMMET051METAR SBQV 121200Z 05008KT 9999 SCT015 25/18 Q1023=
0142833440999992015011213004-14863-040863FM-15+091499999V0200501N004119999999N009999199+02701+01801999999ADDGA1041+006101999GE19MSL   +99999+99999GF199999041999006101999999MA1102301999999REMMET051METAR SBQV 121300Z 05008KT 9999 SCT020 27/18 Q1023=
0142833440999992015011214004-14863-040863FM-15+091499999V0200401N003619999999N009999199+02801+01801999999ADDGA1041+007621999GE19MSL   +99999+99999GF199999041999007621999999MA1102201999999REMMET051METAR SBQV 121400Z 04007KT 9999 SCT025 28/18 Q1022=
0142833440999992015011215004-14863-040863FM-15+091499999V0200401N003619999999N009999199+02901+01601999999ADDGA1041+009141999GE19MSL   +99999+99999GF199999041999009141999999MA1102101999999REMMET051METAR SBQV 121500Z 04007KT 9999 SCT030 29/16 Q1021=
0142833440999992015011217004-14863-040863FM-15+091499999V0200501N003619999999N009999199+03001+01601999999ADDGA1041+010671999GE19MSL   +99999+99999GF199999041999010671999999MA1102001999999REMMET051METAR SBQV 121700Z 05007KT 9999 SCT035 30/16 Q1020=
0142833440999992015011218004-14863-040863FM-15+091499999V0200301N003119999999N009999199+03101+01301999999ADDGA1041+010671999GE19MSL   +99999+99999GF199999041999010671999999MA1101901999999REMMET051METAR SBQV 121800Z 03006KT 9999 SCT035 31/13 Q1019=
0142833440999992015011219004-14863-040863FM-15+091499999V0200501N003119999999N009999199+03001+01301999999ADDGA1041+009141999GE19MSL   +99999+99999GF199999041999009141999999MA1101801999999REMMET051METAR SBQV 121900Z 05006KT 9999 SCT030 30/13 Q1018=
0142833440999992015011220004-14863-040863FM-15+091499999V0201001N005719999999N009999199+02801+01601999999ADDGA1041+007621999GE19MSL   +99999+99999GF199999041999007621999999MA1101901999999REMMET051METAR SBQV 122000Z 10011KT 9999 SCT025 28/16 Q1019=
0142833440999992015011221004-14863-040863FM-15+091499999V0201001N004119999999N009999199+02701+01601999999ADDGA1021+007621999GE19MSL   +99999+99999GF199999021999007621999999MA1101901999999REMMET051METAR SBQV 122100Z 10008KT 9999 FEW025 27/16 Q1019=
0072833440999992015011222004-14863-040863FM-15+091499999V0201101N003619999999Y999999999+02501+01601999999ADDMA1101901999999REMMET045METAR SBQV 122200Z 11007KT CAVOK 25/16 Q1019=
0072833440999992015011223004-14863-040863FM-15+091499999V0200901N004619999999Y999999999+02401+01901999999ADDMA1102001999999REMMET045METAR SBQV 122300Z 09009KT CAVOK 24/19 Q1020=
0072833440999992015011300004-14863-040863FM-15+091499999V0200701N005119999999Y999999999+02201+01901999999ADDMA1102001999999REMMET045METAR SBQV 130000Z 07010KT CAVOK 22/19 Q1020=
0072833440999992015011301004-14863-040863FM-15+091499999V0200801N004619999999Y999999999+02101+01901999999ADDMA1102101999999REMMET045METAR SBQV 130100Z 08009KT CAVOK 21/19 Q1021=
0072833440999992015011302004-14863-040863FM-15+091499999V0200701N005119999999Y999999999+02001+01901999999ADDMA1102101999999REMMET045METAR SBQV 130200Z 07010KT CAVOK 20/19 Q1021=
0072833440999992015011303004-14863-040863FM-15+091499999V0200701N005119999999Y999999999+02001+01901999999ADDMA1102001999999REMMET045METAR SBQV 130300Z 07010KT CAVOK 20/19 Q1020=
0072833440999992015011304004-14863-040863FM-15+091499999V0200701N004619999999Y999999999+01901+01801999999ADDMA1102001999999REMMET045METAR SBQV 130400Z 07009KT CAVOK 19/18 Q1020=
0142833440999992015011307004-14863-040863FM-15+091499999V0200801N001519999999N009999199+01701+01701999999ADDGA1021+003051999GE19MSL   +99999+99999GF199999021999003051999999MA1102001999999REMMET051METAR SBQV 130700Z 08003KT 9999 FEW010 17/17 Q1020=
0142833440999992015011308004-14863-040863FM-15+091499999V0202301N001019999999N009999199+01701+01701999999ADDGA1021+002441999GE19MSL   +99999+99999GF199999021999002441999999MA1102001999999REMMET051METAR SBQV 130800Z 23002KT 9999 FEW008 17/17 Q1020=
0142833440999992015011309004-14863-040863FM-15+091499999V0200401N001519999999N009999199+01801+01701999999ADDGA1041+003351999GE19MSL   +99999+99999GF199999041999003351999999MA1102101999999REMMET051METAR SBQV 130900Z 04003KT 9999 SCT011 18/17 Q1021=
0142833440999992015011310004-14863-040863FM-15+091499999V0200501N002119999999N009999199+02101+01701999999ADDGA1041+004571999GE19MSL   +99999+99999GF199999041999004571999999MA1102201999999REMMET051METAR SBQV 131000Z 05004KT 9999 SCT015 21/17 Q1022=
0142833440999992015011311004-14863-040863FM-15+091499999V0200101N003619999999N009999199+02301+01701999999ADDGA1021+004881999GE19MSL   +99999+99999GF199999021999004881999999MA1102201999999REMMET051METAR SBQV 131100Z 01007KT 9999 FEW016 23/17 Q1022=
0181833440999992015011312004-14467-040867FM-12+084099999V0200901N0031199999999020000199+02321+01581101661ADDAA101999999AZ101061AZ201061GA1021+004501061GA2999+999999031GA3999+999999001GE19MSL   +99999+99999GF106991021999004501999999KA1120N+01441MA1999999092071MD1999999-0101REMSYN004BUFR
0142833440999992015011312004-14863-040863FM-15+091499999V0200501N003619999999N009999199+02501+01701999999ADDGA1041+005491999GE19MSL   +99999+99999GF199999041999005491999999MA1102201999999REMMET051METAR SBQV 131200Z 05007KT 9999 SCT018 25/17 Q1022=
0142833440999992015011313004-14863-040863FM-15+091499999V0200601N003619999999N009999199+02701+01701999999ADDGA1021+006101999GE19MSL   +99999+99999GF199999021999006101999999MA1102201999999REMMET051METAR SBQV 131300Z 06007KT 9999 FEW020 27/17 Q1022=
0142833440999992015011314004-14863-040863FM-15+091499999V0200601N004119999999N009999199+02901+01501999999ADDGA1041+007621999GE19MSL   +99999+99999GF199999041999007621999999MA1102101999999REMMET051METAR SBQV 131400Z 06008KT 9999 SCT025 29/15 Q1021=
0142833440999992015011315004-14863-040863FM-15+091499999V0201101N003119999999N009999199+02901+01501999999ADDGA1041+007621999GE19MSL   +99999+99999GF199999041999007621999999MA1102001999999REMMET051METAR SBQV 131500Z 11006KT 9999 SCT025 29/15 Q1020=
0142833440999992015011316004-14863-040863FM-15+091499999V0201101N004119999999N009999199+03001+01501999999ADDGA1041+009141999GE19MSL   +99999+99999GF199999041999009141999999MA1102001999999REMMET051METAR SBQV 131600Z 11008KT 9999 SCT030 30/15 Q1020=
0142833440999992015011317004-14863-040863FM-15+091499999V0201201N004610106719N009999199+03001+01401999999ADDGA1071+010671999GE19MSL   +99999+99999GF199999071999010671999999MA1101901999999REMMET051METAR SBQV 131700Z 12009KT 9999 BKN035 30/14 Q1019=
0142833440999992015011318004-14863-040863FM-15+091499999V0201201N005119999999N009999199+03101+01101999999ADDGA1041+010671999GE19MSL   +99999+99999GF199999041999010671999999MA1101801999999REMMET051METAR SBQV 131800Z 12010KT 9999 SCT035 31/11 Q1018=
0142833440999992015011319004-14863-040863FM-15+091499999V0201201N005119999999N009999199+02901+01201999999ADDGA1041+010671999GE19MSL   +99999+99999GF199999041999010671999999MA1101801999999REMMET051METAR SBQV 131900Z 12010KT 9999 SCT035 29/12 Q1018=
0142833440999992015011320004-14863-040863FM-15+091499999V0201101N004119999999N009999199+02801+01301999999ADDGA1021+009141999GE19MSL   +99999+99999GF199999021999009141999999MA1101801999999REMMET051METAR SBQV 132000Z 11008KT 9999 FEW030 28/13 Q1018=
0142833440999992015011321004-14863-040863FM-15+091499999V0201201N004119999999N009999199+02601+01401999999ADDGA1021+007621999GE19MSL   +99999+99999GF199999021999007621999999MA1101901999999REMMET051METAR SBQV 132100Z 12008KT 9999 FEW025 26/14 Q1019=
0142833440999992015011322004-14863-040863FM-15+091499999V0201101N003119999999N009999199+02401+01501999999ADDGA1021+006101999GE19MSL   +99999+99999GF199999021999006101999999MA1101901999999REMMET051METAR SBQV 132200Z 11006KT 9999 FEW020 24/15 Q1019=
0072833440999992015011323004-14863-040863FM-15+091499999V0200901N003619999999Y999999999+02401+01501999999ADDMA1101901999999REMMET045METAR SBQV 132300Z 09007KT CAVOK 24/15 Q1019=
0072833440999992015011400004-14863-040863FM-15+091499999V0200901N004619999999Y999999999+02201+01801999999ADDMA1102001999999REMMET045METAR SBQV 140000Z 09009KT CAVOK 22/18 Q1020=
0072833440999992015011401004-14863-040863FM-15+091499999V0201101N003119999999Y999999999+02101+01801999999ADDMA1102001999999REMMET045METAR SBQV 140100Z 11006KT CAVOK 21/18 Q1020=
0072833440999992015011402004-14863-040863FM-15+091499999V0201001N004619999999Y999999999+02001+01801999999ADDMA1102001999999REMMET045METAR SBQV 140200Z 10009KT CAVOK 20/18 Q1020=
0072833440999992015011403004-14863-040863FM-15+091499999V0201101N004619999999Y999999999+02001+01601999999ADDMA1102001999999REMMET045METAR SBQV 140300Z 11009KT CAVOK 20/16 Q1020=
0072833440999992015011403454-14863-040863FM-16+091499999V0201101N003619999999Y999999999+01901+01601999999ADDMA1101901999999REMMET045SPECI SBQV 140345Z 11007KT CAVOK 19/16 Q1019=
0072833440999992015011406104-14863-040863FM-16+091499999V0201301N001519999999Y999999999+01601+01601999999ADDMA1101901999999REMMET045SPECI SBQV 140610Z 13003KT CAVOK 16/16 Q1019=
0142833440999992015011407004-14863-040863FM-15+091499999V0201401N001010045719N009999199+01701+01701999999ADDGA1071+004571999GE19MSL   +99999+99999GF199999071999004571999999MA1101901999999REMMET051METAR SBQV 140700Z 14002KT 9999 BKN015 17/17 Q1019=
0142833440999992015011408004-14863-040863FM-15+091499999V0200801N002610024419N009999199+01801+01701999999ADDGA1071+002441999GE19MSL   +99999+99999GF199999071999002441999999MA1101901999999REMMET051METAR SBQV 140800Z 08005KT 9999 BKN008 18/17 Q1019=
0142833440999992015011409004-14863-040863FM-15+091499999V0200701N002119999999N009999199+01901+01701999999ADDGA1021+002741999GE19MSL   +99999+99999GF199999021999002741999999MA1102001999999REMMET051METAR SBQV 140900Z 07004KT 9999 FEW009 19/17 Q1020=
0165833440999992015011410004-14863-040863FM-15+091499999V0201001N002110213419N009999199+02001+01801999999ADDGA1041+003351999GA2071+021341999GE19MSL   +99999+99999GF199999041999003351999999MA1102001999999REMMET058METAR SBQV 141000Z 10004KT 9999 SCT011 BKN070 20/18 Q1020=
0165833440999992015011411004-14863-040863FM-15+091499999V0200901N004110076219N009999199+02201+01801999999ADDGA1041+003961999GA2071+007621999GE19MSL   +99999+99999GF199999041999003961999999MA1102101999999REMMET058METAR SBQV 141100Z 09008KT 9999 SCT013 BKN025 22/18 Q1021=
0165833440999992015011412004-14863-040863FM-15+091499999V0200801N003610045719N009999199+02401+01801999999ADDGA1071+004571999GA2071+021341999GE19MSL   +99999+99999GF199999071999004571999999MA1102101999999REMMET058METAR SBQV 141200Z 08007KT 9999 BKN015 BKN070 24/18 Q1021=
0165833440999992015011413004-14863-040863FM-15+091499999V0200601N004110048819N009999199+02501+01801999999ADDGA1071+004881999GA2071+021341999GE19MSL   +99999+99999GF199999071999004881999999MA1102101999999REMMET058METAR SBQV 141300Z 06008KT 9999 BKN016 BKN070 25/18 Q1021=
0173833440999992015011414004-14863-040863FM-15+091499999V0200801V003610054919N009999199+02601+01801999999ADDGA1071+005491999GA2071+021341999GE19MSL   +99999+99999GF199999071999005491999999MA1102101999999REMMET066METAR SBQV 141400Z 08007KT 030V120 9999 BKN018 BKN070 26/18 Q1021=
0165833440999992015011415004-14863-040863FM-15+091499999V0200601N004110054919N009999199+02601+01801999999ADDGA1071+005491999GA2041+021341999GE19MSL   +99999+99999GF199999071999005491999999MA1102001999999REMMET058METAR SBQV 141500Z 06008KT 9999 BKN018 SCT070 26/18 Q1020=
0142833440999992015011416004-14863-040863FM-15+091499999V0200901N003610061019N009999199+02701+01801999999ADDGA1071+006101999GE19MSL   +99999+99999GF199999071999006101999999MA1102001999999REMMET051METAR SBQV 141600Z 09007KT 9999 BKN020 27/18 Q1020=
0165833440999992015011417004-14863-040863FM-15+091499999V0201201N003110061019N009999199+02701+01801999999ADDGA1071+006101999GA2041+021341999GE19MSL   +99999+99999GF199999071999006101999999MA1101901999999REMMET058METAR SBQV 141700Z 12006KT 9999 BKN020 SCT070 27/18 Q1019=
0165833440999992015011418004-14863-040863FM-15+091499999V0201401N005110061019N009999199+02701+01801999999ADDGA1071+006101999GA2041+021341999GE19MSL   +99999+99999GF199999071999006101999999MA1101901999999REMMET058METAR SBQV 141800Z 14010KT 9999 BKN020 SCT070 27/18 Q1019=
0165833440999992015011419004-14863-040863FM-15+091499999V0201401N003110213419N009999199+02601+01801999999ADDGA1041+006101999GA2071+021341999GE19MSL   +99999+99999GF199999041999006101999999MA1101801999999REMMET058METAR SBQV 141900Z 14006KT 9999 SCT020 BKN070 26/18 Q1018=
0165833440999992015011420004-14863-040863FM-15+091499999V0201201N005710213419N009999199+02601+01801999999ADDGA1041+004881999GA2071+021341999GE19MSL   +99999+99999GF199999041999004881999999MA1101801999999REMMET058METAR SBQV 142000Z 12011KT 9999 SCT016 BKN070 26/18 Q1018=
0165833440999992015011421004-14863-040863FM-15+091499999V0200901N004610213419N009999199+02301+01901999999ADDGA1041+004571999GA2071+021341999GE19MSL   +99999+99999GF199999041999004571999999MA1101901999999REMMET058METAR SBQV 142100Z 09009KT 9999 SCT015 BKN070 23/19 Q1019=
0165833440999992015011422004-14863-040863FM-15+091499999V0201001N00411021341CN009999199+02201+01901999999ADDGA1041+003351999GA2041+021341999GE19MSL   +99999+99999GF199999041999003351999999MA1101901999999REMMET058METAR SBQV 142200Z 10008KT 9999 SCT011 SCT070 22/19 Q1019=
0142833440999992015011423004-14863-040863FM-15+091499999V0200901N005719999999N009999199+02101+01801999999ADDGA1041+003051999GE19MSL   +99999+99999GF199999041999003051999999MA1102001999999REMMET051METAR SBQV 142300Z 09011KT 9999 SCT010 21/18 Q1020=
0142833440999992015011500004-14863-040863FM-15+091499999V0200901N004119999999N009999199+02001+01801999999ADDGA1021+002741999GE19MSL   +99999+99999GF199999021999002741999999MA1102001999999REMMET051METAR SBQV 150000Z 09008KT 9999 FEW009 20/18 Q1020=
0142833440999992015011501004-14863-040863FM-15+091499999V0201201N002619999999N009999199+01901+01801999999ADDGA1021+002741999GE19MSL   +99999+99999GF199999021999002741999999MA1102001999999REMMET051METAR SBQV 150100Z 12005KT 9999 FEW009 19/18 Q1020=
0142833440999992015011502004-14863-040863FM-15+091499999V0201001N005110027419N009999199+02001+01801999999ADDGA1071+002741999GE19MSL   +99999+99999GF199999071999002741999999MA1102001999999REMMET051METAR SBQV 150200Z 10010KT 9999 BKN009 20/18 Q1020=
0142833440999992015011503004-14863-040863FM-15+091499999V0201101N004110033519N009999199+02001+01901999999ADDGA1071+003351999GE19MSL   +99999+99999GF199999071999003351999999MA1102001999999REMMET051METAR SBQV 150300Z 11008KT 9999 BKN011 20/19 Q1020=
0142833440999992015011503154-14863-040863FM-16+091499999V0201101N003610033519N009999199+02001+01901999999ADDGA1071+003351999GE19MSL   +99999+99999GF199999071999003351999999MA1101901999999REMMET051SPECI SBQV 150315Z 11007KT 9999 BKN011 20/19 Q1019=
0142833440999992015011507004-14863-040863FM-15+091499999V0201001N002119999999N009999199+01901+01801999999ADDGA1041+003051999GE19MSL   +99999+99999GF199999041999003051999999MA1101901999999REMMET051METAR SBQV 150700Z 10004KT 9999 SCT010 19/18 Q1019=
0142833440999992015011508004-14863-040863FM-15+091499999V0200701N003610030519N009999199+01901+01801999999ADDGA1071+003051999GE19MSL   +99999+99999GF199999071999003051999999MA1102001999999REMMET051METAR SBQV 150800Z 07007KT 9999 BKN010 19/18 Q1020=
0165833440999992015011509004-14863-040863FM-15+091499999V0200801N003110033519N009999199+02001+01801999999ADDGA1071+003351999GA2041+021341999GE19MSL   +99999+99999GF199999071999003351999999MA1102001999999REMMET058METAR SBQV 150900Z 08006KT 9999 BKN011 SCT070 20/18 Q1020=
0165833440999992015011510004-14863-040863FM-15+091499999V0200701N002610045719N009999199+02101+01801999999ADDGA1071+004571999GA2041+021341999GE19MSL   +99999+99999GF199999071999004571999999MA1102101999999REMMET058METAR SBQV 151000Z 07005KT 9999 BKN015 SCT070 21/18 Q1021=
0165833440999992015011511004-14863-040863FM-15+091499999V0200601N003610213419N009999199+02201+01801999999ADDGA1041+004571999GA2071+021341999GE19MSL   +99999+99999GF199999041999004571999999MA1102201999999REMMET058METAR SBQV 151100Z 06007KT 9999 SCT015 BKN070 22/18 Q1022=
0165833440999992015011512004-14863-040863FM-15+091499999V0200601N003110048819N009999199+02301+01901999999ADDGA1071+004881999GA2041+021341999GE19MSL   +99999+99999GF199999071999004881999999MA1102201999999REMMET058METAR SBQV 151200Z 06006KT 9999 BKN016 SCT070 23/19 Q1022=
0165833440999992015011513004-14863-040863FM-15+091499999V0200901N002610054919N009999199+02501+01901999999ADDGA1071+005491999GA2041+021341999GE19MSL   +99999+99999GF199999071999005491999999MA1102201999999REMMET058METAR SBQV 151300Z 09005KT 9999 BKN018 SCT070 25/19 Q1022=
0165833440999992015011514004-14863-040863FM-15+091499999V0201301N001010054919N009999199+02601+01901999999ADDGA1071+005491999GA2041+021341999GE19MSL   +99999+99999GF199999071999005491999999MA1102101999999REMMET058METAR SBQV 151400Z 13002KT 9999 BKN018 SCT070 26/19 Q1021=
0165833440999992015011515004-14863-040863FM-15+091499999V0201101N002110054919N009999199+02701+01801999999ADDGA1071+005491999GA2041+021341999GE19MSL   +99999+99999GF199999071999005491999999MA1102101999999REMMET058METAR SBQV 151500Z 11004KT 9999 BKN018 SCT070 27/18 Q1021=
0142833440999992015011516004-14863-040863FM-15+091499999V0201101N003610061019N009999199+02801+02001999999ADDGA1071+006101999GE19MSL   +99999+99999GF199999071999006101999999MA1102001999999REMMET051METAR SBQV 151600Z 11007KT 9999 BKN020 28/20 Q1020=
0142833440999992015011517004-14863-040863FM-15+091499999V0201101N003110061019N009999199+02901+01801999999ADDGA1071+006101999GE19MSL   +99999+99999GF199999071999006101999999MA1101901999999REMMET051METAR SBQV 151700Z 11006KT 9999 BKN020 29/18 Q1019=
0142833440999992015011518004-14863-040863FM-15+091499999V0201401N003610061019N009999199+02801+01901999999ADDGA1071+006101999GE19MSL   +99999+99999GF199999071999006101999999MA1101901999999REMMET051METAR SBQV 151800Z 14007KT 9999 BKN020 28/19 Q1019=
0142833440999992015011519004-14863-040863FM-15+091499999V0201301N007210048819N009999199+02601+02101999999ADDGA1071+004881999GE19MSL   +99999+99999GF199999071999004881999999MA1101901999999REMMET051METAR SBQV 151900Z 13014KT 9999 BKN016 26/21 Q1019=
0142833440999992015011520004-14863-040863FM-15+091499999V0201201N006210054919N009999199+02301+02001999999ADDGA1071+005491999GE19MSL   +99999+99999GF199999071999005491999999MA1101901999999REMMET051METAR SBQV 152000Z 12012KT 9999 BKN018 23/20 Q1019=
0142833440999992015011521004-14863-040863FM-15+091499999V0201201N005710045719N009999199+02201+01901999999ADDGA1071+004571999GE19MSL   +99999+99999GF199999071999004571999999MA1102001999999REMMET051METAR SBQV 152100Z 12011KT 9999 BKN015 22/19 Q1020=
0142833440999992015011522004-14863-040863FM-15+091499999V0201101N005710030519N009999199+02101+01901999999ADDGA1071+003051999GE19MSL   +99999+99999GF199999071999003051999999MA1102001999999REMMET051METAR SBQV 152200Z 11011KT 9999 BKN010 21/19 Q1020=
0165833440999992015011523004-14863-040863FM-15+091499999V0201001N006710045719N009999199+02001+01901999999ADDGA1041+002131999GA2071+004571999GE19MSL   +99999+99999GF199999041999002131999999MA1102001999999REMMET058METAR SBQV 152300Z 10013KT 9999 SCT007 BKN015 20/19 Q1020=
0142833440999992015011600004-14863-040863FM-15+091499999V0200901N006210024419N009999199+02001+01901999999ADDGA1071+002441999GE19MSL   +99999+99999GF199999071999002441999999MA1102101999999REMMET051METAR SBQV 160000Z 09012KT 9999 BKN008 20/19 Q1021=
0072833440999992015011601004-14863-040863FM-15+091499999V0200901N005119999999Y999999999+02001+01801999999ADDMA1102101999999REMMET045METAR SBQV 160100Z 09010KT CAVOK 20/18 Q1021=
0072833440999992015011602004-14863-040863FM-15+091499999V0200901N005119999999Y999999999+02001+01801999999ADDMA1102001999999REMMET045METAR SBQV 160200Z 09010KT CAVOK 20/18 Q1020=
0072833440999992015011603004-14863-040863FM-15+091499999V0200801N004119999999Y999999999+02001+01801999999ADDMA1102001999999REMMET045METAR SBQV 160300Z 08008KT CAVOK 20/18 Q1020=
0142833440999992015011607004-14863-040863FM-15+091499999V0200801N004119999999N009999199+01901+01801999999ADDGA1041+003351999GE19MSL   +99999+99999GF199999041999003351999999MA1102001999999REMMET051METAR SBQV 160700Z 08008KT 9999 SCT011 19/18 Q1020=
0142833440999992015011608004-14863-040863FM-15+091499999V0200701N003119999999N009999199+01801+01701999999ADDGA1041+002741999GE19MSL   +99999+99999GF199999041999002741999999MA1102001999999REMMET051METAR SBQV 160800Z 07006KT 9999 SCT009 18/17 Q1020=
0142833440999992015011609004-14863-040863FM-15+091499999V0201101N002119999999N009999199+01801+01801999999ADDGA1021+003961999GE19MSL   +99999+99999GF199999021999003961999999MA1102101999999REMMET051METAR SBQV 160900Z 11004KT 9999 FEW013 18/18 Q1021=
0142833440999992015011610004-14863-040863FM-15+091499999V0201201N003119999999N009999199+02001+01801999999ADDGA1041+003961999GE19MSL   +99999+99999GF199999041999003961999999MA1102101999999REMMET051METAR SBQV 161000Z 12006KT 9999 SCT013 20/18 Q1021=
0142833440999992015011611004-14863-040863FM-15+091499999V0200801N003610045719N009999199+02101+01801999999ADDGA1071+004571999GE19MSL   +99999+99999GF199999071999004571999999MA1102201999999REMMET051METAR SBQV 161100Z 08007KT 9999 BKN015 21/18 Q1022=
0142833440999992015011612004-14863-040863FM-15+091499999V0200801N003610045719N009999199+02401+01801999999ADDGA1071+004571999GE19MSL   +99999+99999GF199999071999004571999999MA1102201999999REMMET051METAR SBQV 161200Z 08007KT 9999 BKN015 24/18 Q1022=
0142833440999992015011613004-14863-040863FM-15+091499999V0201101N003110048819N009999199+02601+01801999999ADDGA1071+004881999GE19MSL   +99999+99999GF199999071999004881999999MA1102201999999REMMET051METAR SBQV 161300Z 11006KT 9999 BKN016 26/18 Q1022=
0142833440999992015011614004-14863-040863FM-15+091499999V0201101N003610061019N009999199+02801+01701999999ADDGA1071+006101999GE19MSL   +99999+99999GF199999071999006101999999MA1102201999999REMMET051METAR SBQV 161400Z 11007KT 9999 BKN020 28/17 Q1022=
0142833440999992015011615004-14863-040863FM-15+091499999V0201201N004110061019N009999199+02801+01601999999ADDGA1071+006101999GE19MSL   +99999+99999GF199999071999006101999999MA1102101999999REMMET051METAR SBQV 161500Z 12008KT 9999 BKN020 28/16 Q1021=
0142833440999992015011616004-14863-040863FM-15+091499999V0201101N004619999999N009999199+03001+01601999999ADDGA1041+007621999GE19MSL   +99999+99999GF199999041999007621999999MA1102001999999REMMET051METAR SBQV 161600Z 11009KT 9999 SCT025 30/16 Q1020=
0142833440999992015011617004-14863-040863FM-15+091499999V0201401N004119999999N009999199+02901+01601999999ADDGA1041+007621999GE19MSL   +99999+99999GF199999041999007621999999MA1101901999999REMMET051METAR SBQV 161700Z 14008KT 9999 SCT025 29/16 Q1019=
0142833440999992015011618004-14863-040863FM-15+091499999V0201401N004119999999N009999199+02901+01601999999ADDGA1041+009141999GE19MSL   +99999+99999GF199999041999009141999999MA1101901999999REMMET051METAR SBQV 161800Z 14008KT 9999 SCT030 29/16 Q1019=
0142833440999992015011619004-14863-040863FM-15+091499999V0201301N003119999999N009999199+03001+01401999999ADDGA1041+009141999GE19MSL   +99999+99999GF199999041999009141999999MA1101801999999REMMET051METAR SBQV 161900Z 13006KT 9999 SCT030 30/14 Q1018=
0142833440999992015011620004-14863-040863FM-15+091499999V0201401N004119999999N009999199+02901+01401999999ADDGA1041+009141999GE19MSL   +99999+99999GF199999041999009141999999MA1101801999999REMMET051METAR SBQV 162000Z 14008KT 9999 SCT030 29/14 Q1018=
0142833440999992015011621004-14863-040863FM-15+091499999V0201301N006719999999N009999199+02601+01801999999ADDGA1021+006101999GE19MSL   +99999+99999GF199999021999006101999999MA1101801999999REMMET051METAR SBQV 162100Z 13013KT 9999 FEW020 26/18 Q1018=
0165833440999992015011622004-14863-040863FM-15+091499999V0201301N006710213419N009999199+02301+02001999999ADDGA1021+004571999GA2071+021341999GE19MSL   +99999+99999GF199999021999004571999999MA1101901999999REMMET058METAR SBQV 162200Z 13013KT 9999 FEW015 BKN070 23/20 Q1019=
0072833440999992015011623004-14863-040863FM-15+091499999V0200901N005119999999Y999999999+02201+01901999999ADDMA1102001999999REMMET045METAR SBQV 162300Z 09010KT CAVOK 22/19 Q1020=
0072833440999992015011700004-14863-040863FM-15+091499999V0200801N004619999999Y999999999+02101+01801999999ADDMA1102001999999REMMET045METAR SBQV 170000Z 08009KT CAVOK 21/18 Q1020=
0072833440999992015011701004-14863-040863FM-15+091499999V0200901N005719999999Y999999999+02101+01801999999ADDMA1102001999999REMMET045METAR SBQV 170100Z 09011KT CAVOK 21/18 Q1020=
0072833440999992015011702004-14863-040863FM-15+091499999V0200901N005119999999Y999999999+02101+01901999999ADDMA1102001999999REMMET045METAR SBQV 170200Z 09010KT CAVOK 21/19 Q1020=
0072833440999992015011703004-14863-040863FM-15+091499999V0200901N003619999999Y999999999+02001+01801999999ADDMA1102001999999REMMET045METAR SBQV 170300Z 09007KT CAVOK 20/18 Q1020=
0072833440999992015011703204-14863-040863FM-16+091499999V0200901N005119999999Y999999999+02001+01801999999ADDMA1102001999999REMMET045SPECI SBQV 170320Z 09010KT CAVOK 20/18 Q1020=
0165833440999992015011707154-14863-040863FM-16+091499999V0201001N00361021341CN009999199+01801+01701999999ADDGA1021+003051999GA2041+021341999GE19MSL   +99999+99999GF199999021999003051999999MA1101901999999REMMET058SPECI SBQV 170715Z 10007KT 9999 FEW010 SCT070 18/17 Q1019=
0165833440999992015011708004-14863-040863FM-15+091499999V0201001N00411021341CN009999199+01801+01701999999ADDGA1041+001831999GA2041+021341999GE19MSL   +99999+99999GF199999041999001831999999MA1102001999999REMMET058METAR SBQV 170800Z 10008KT 9999 SCT006 SCT070 18/17 Q1020=
0165833440999992015011709004-14863-040863FM-15+091499999V0200901N005110030519N009999199+01901+01801999999ADDGA1071+003051999GA2041+021341999GE19MSL   +99999+99999GF199999071999003051999999MA1102001999999REMMET058METAR SBQV 170900Z 09010KT 9999 BKN010 SCT070 19/18 Q1020=
0142833440999992015011710004-14863-040863FM-15+091499999V0200801N004110045719N009999199+02001+01801999999ADDGA1071+004571999GE19MSL   +99999+99999GF199999071999004571999999MA1102101999999REMMET051METAR SBQV 171000Z 08008KT 9999 BKN015 20/18 Q1021=
0165833440999992015011711004-14863-040863FM-15+091499999V0200701N003610213419N009999199+02201+01801999999ADDGA1021+004571999GA2071+021341999GE19MSL   +99999+99999GF199999021999004571999999MA1102101999999REMMET058METAR SBQV 171100Z 07007KT 9999 FEW015 BKN070 22/18 Q1021=
0142833440999992015011712004-14863-040863FM-15+091499999V0200801N003619999999N009999199+02601+01801999999ADDGA1041+006101999GE19MSL   +99999+99999GF199999041999006101999999MA1102101999999REMMET051METAR SBQV 171200Z 08007KT 9999 SCT020 26/18 Q1021=
0142833440999992015011713004-14863-040863FM-15+091499999V0201001N002610061019N009999199+02801+01701999999ADDGA1071+006101999GE19MSL   +99999+99999GF199999071999006101999999MA1102101999999REMMET051METAR SBQV 171300Z 10005KT 9999 BKN020 28/17 Q1021=
0142833440999992015011714004-14863-040863FM-15+091499999V0200601N003110076219N009999199+02701+01701999999ADDGA1071+007621999GE19MSL   +99999+99999GF199999071999007621999999MA1102101999999REMMET051METAR SBQV 171400Z 06006KT 9999 BKN025 27/17 Q1021=
0142833440999992015011715004-14863-040863FM-15+091499999V0201201N003610091419N009999199+03101+01601999999ADDGA1071+009141999GE19MSL   +99999+99999GF199999071999009141999999MA1102001999999REMMET051METAR SBQV 171500Z 12007KT 9999 BKN030 31/16 Q1020=
0142833440999992015011716004-14863-040863FM-15+091499999V0201001N003610091419N009999199+02801+01601999999ADDGA1071+009141999GE19MSL   +99999+99999GF199999071999009141999999MA1101901999999REMMET051METAR SBQV 171600Z 10007KT 9999 BKN030 28/16 Q1019=
0142833440999992015011717004-14863-040863FM-15+091499999V0201401N003110091419N009999199+02901+01601999999ADDGA1071+009141999GE19MSL   +99999+99999GF199999071999009141999999MA1101901999999REMMET051METAR SBQV 171700Z 14006KT 9999 BKN030 29/16 Q1019=
0142833440999992015011718004-14863-040863FM-15+091499999V0201101N004619999999N009999199+03001+01401999999ADDGA1041+009141999GE19MSL   +99999+99999GF199999041999009141999999MA1101801999999REMMET051METAR SBQV 171800Z 11009KT 9999 SCT030 30/14 Q1018=
0142833440999992015011719004-14863-040863FM-15+091499999V0201301N003619999999N009999199+03001+01401999999ADDGA1041+009141999GE19MSL   +99999+99999GF199999041999009141999999MA1101801999999REMMET051METAR SBQV 171900Z 13007KT 9999 SCT030 30/14 Q1018=
0142833440999992015011720004-14863-040863FM-15+091499999V0201201N003119999999N009999199+02901+01401999999ADDGA1041+010671999GE19MSL   +99999+99999GF199999041999010671999999MA1101801999999REMMET051METAR SBQV 172000Z 12006KT 9999 SCT035 29/14 Q1018=
0142833440999992015011721004-14863-040863FM-15+091499999V0201401N004119999999N009999199+02701+01601999999ADDGA1021+009141999GE19MSL   +99999+99999GF199999021999009141999999MA1101801999999REMMET051METAR SBQV 172100Z 14008KT 9999 FEW030 27/16 Q1018=
0072833440999992015011722004-14863-040863FM-15+091499999V0201101N003619999999Y999999999+02501+01701999999ADDMA1101801999999REMMET045METAR SBQV 172200Z 11007KT CAVOK 25/17 Q1018=
0072833440999992015011723004-14863-040863FM-15+091499999V0200901N005119999999Y999999999+02301+02001999999ADDMA1101901999999REMMET045METAR SBQV 172300Z 09010KT CAVOK 23/20 Q1019=
0072833440999992015011800004-14863-040863FM-15+091499999V0201001N004619999999Y999999999+02201+02001999999ADDMA1102001999999REMMET045METAR SBQV 180000Z 10009KT CAVOK 22/20 Q1020=
0072833440999992015011801004-14863-040863FM-15+091499999V0200901N004119999999Y999999999+02101+01901999999ADDMA1102001999999REMMET045METAR SBQV 180100Z 09008KT CAVOK 21/19 Q1020=
0072833440999992015011801154-14863-040863FM-16+091499999V0200901N005119999999Y999999999+02101+02001999999ADDMA1102001999999REMMET045SPECI SBQV 180115Z 09010KT CAVOK 21/20 Q1020=
0072833440999992015011808004-14863-040863FM-15+091499999V0200501N003619999999Y999999999+01901+01801999999ADDMA1101901999999REMMET045METAR SBQV 180800Z 05007KT CAVOK 19/18 Q1019=
0142833440999992015011809004-14863-040863FM-15+091499999V0200501N003119999999N009999199+01901+01801999999ADDGA1041+003051999GE19MSL   +99999+99999GF199999041999003051999999MA1102001999999REMMET051METAR SBQV 180900Z 05006KT 9999 SCT010 19/18 Q1020=
0142833440999992015011810004-14863-040863FM-15+091499999V0200501N003110030519N009999199+02101+01801999999ADDGA1071+003051999GE19MSL   +99999+99999GF199999071999003051999999MA1102101999999REMMET051METAR SBQV 181000Z 05006KT 9999 BKN010 21/18 Q1021=
0142833440999992015011811004-14863-040863FM-15+091499999V0200501N003110036619N009999199+02201+01801999999ADDGA1071+003661999GE19MSL   +99999+99999GF199999071999003661999999MA1102101999999REMMET051METAR SBQV 181100Z 05006KT 9999 BKN012 22/18 Q1021=
0142833440999992015011812004-14863-040863FM-15+091499999V0200401N002619999999N009999199+02701+01901999999ADDGA1041+004571999GE19MSL   +99999+99999GF199999041999004571999999MA1102201999999REMMET051METAR SBQV 181200Z 04005KT 9999 SCT015 27/19 Q1022=
0142833440999992015011813004-14863-040863FM-15+091499999V0203601N002610061019N009999199+02701+01801999999ADDGA1071+006101999GE19MSL   +99999+99999GF199999071999006101999999MA1102201999999REMMET051METAR SBQV 181300Z 36005KT 9999 BKN020 27/18 Q1022=
0142833440999992015011814004-14863-040863FM-15+091499999V0203301N001510091419N009999199+02801+01801999999ADDGA1071+009141999GE19MSL   +99999+99999GF199999071999009141999999MA1102101999999REMMET051METAR SBQV 181400Z 33003KT 9999 BKN030 28/18 Q1021=
0142833440999992015011815004-14863-040863FM-15+091499999V0200301N001010091419N009999199+02901+01601999999ADDGA1071+009141999GE19MSL   +99999+99999GF199999071999009141999999MA1102001999999REMMET051METAR SBQV 181500Z 03002KT 9999 BKN030 29/16 Q1020=
0142833440999992015011816004-14863-040863FM-15+091499999V0201101N004110091419N009999199+02901+01801999999ADDGA1071+009141999GE19MSL   +99999+99999GF199999071999009141999999MA1101901999999REMMET051METAR SBQV 181600Z 11008KT 9999 BKN030 29/18 Q1019=
0142833440999992015011817004-14863-040863FM-15+091499999V0201001N006210061019N009999199+02901+01901999999ADDGA1071+006101999GE19MSL   +99999+99999GF199999071999006101999999MA1101801999999REMMET051METAR SBQV 181700Z 10012KT 9999 BKN020 29/19 Q1018=
0191833440999992015011818004-14863-040863FM-15+091499999V0201201N004619999999N009999199+03101+01701999999ADDGA1041+009141999GA2021+010671081GA3041+027431999GE19MSL   +99999+99999GF199999041999009141999999MA1101801999999REMMET068METAR SBQV 181800Z 12009KT 9999 SCT030 FEW035TCU SCT090 31/17 Q1018=
0191833440999992015011819004-14863-040863FM-15+091499999V0201001N005719999999N009999199+02901+01801999999ADDGA1041+009141999GA2021+010671081GA3041+027431999GE19MSL   +99999+99999GF199999041999009141999999MA1101801999999REMMET068METAR SBQV 181900Z 10011KT 9999 SCT030 FEW035TCU SCT090 29/18 Q1018=
0142833440999992015011820004-14863-040863FM-15+091499999V0201101N006219999999N009999199+02901+01901999999ADDGA1021+009141999GE19MSL   +99999+99999GF199999021999009141999999MA1101701999999REMMET051METAR SBQV 182000Z 11012KT 9999 FEW030 29/19 Q1017=
0142833440999992015011821004-14863-040863FM-15+091499999V0201101N005119999999N009999199+02601+01801999999ADDGA1021+006101999GE19MSL   +99999+99999GF199999021999006101999999MA1101801999999REMMET051METAR SBQV 182100Z 11010KT 9999 FEW020 26/18 Q1018=
0142833440999992015011822004-14863-040863FM-15+091499999V0200801N005119999999N009999199+02301+01901999999ADDGA1021+005491999GE19MSL   +99999+99999GF199999021999005491999999MA1101801999999REMMET051METAR SBQV 182200Z 08010KT 9999 FEW018 23/19 Q1018=
0072833440999992015011823004-14863-040863FM-15+091499999V0200901N005119999999Y999999999+02201+01901999999ADDMA1101901999999REMMET045METAR SBQV 182300Z 09010KT CAVOK 22/19 Q1019=
0072833440999992015011900004-14863-040863FM-15+091499999V0200801N005719999999Y999999999+02101+01901999999ADDMA1101901999999REMMET045METAR SBQV 190000Z 08011KT CAVOK 21/19 Q1019=
0072833440999992015011901004-14863-040863FM-15+091499999V0200801N004619999999Y999999999+02101+01901999999ADDMA1102001999999REMMET045METAR SBQV 190100Z 08009KT CAVOK 21/19 Q1020=
0072833440999992015011902004-14863-040863FM-15+091499999V0200801N005119999999Y999999999+02001+01801999999ADDMA1102001999999REMMET045METAR SBQV 190200Z 08010KT CAVOK 20/18 Q1020=
0072833440999992015011903004-14863-040863FM-15+091499999V0200801N005119999999Y999999999+02001+01801999999ADDMA1101901999999REMMET045METAR SBQV 190300Z 08010KT CAVOK 20/18 Q1019=
0072833440999992015011903454-14863-040863FM-16+091499999V0200801N005719999999Y999999999+01901+01701999999ADDMA1101901999999REMMET045SPECI SBQV 190345Z 08011KT CAVOK 19/17 Q1019=
0072833440999992015011907004-14863-040863FM-15+091499999V0200801N004119999999Y999999999+01901+01701999999ADDMA1102001999999REMMET045METAR SBQV 190700Z 08008KT CAVOK 19/17 Q1020=
0072833440999992015011908004-14863-040863FM-15+091499999V0200801N004119999999Y999999999+01801+01701999999ADDMA1101901999999REMMET045METAR SBQV 190800Z 08008KT CAVOK 18/17 Q1019=
0142833440999992015011909004-14863-040863FM-15+091499999V0200901N003119999999N009999199+01801+01801999999ADDGA1021+002741999GE19MSL   +99999+99999GF199999021999002741999999MA1102001999999REMMET051METAR SBQV 190900Z 09006KT 9999 FEW009 18/18 Q1020=
0072833440999992015011910004-14863-040863FM-15+091499999V0200901N003119999999Y999999999+02101+01701999999ADDMA1102001999999REMMET045METAR SBQV 191000Z 09006KT CAVOK 21/17 Q1020=
0072833440999992015011911004-14863-040863FM-15+091499999V0200601N003619999999Y999999999+02301+01701999999ADDMA1102101999999REMMET045METAR SBQV 191100Z 06007KT CAVOK 23/17 Q1021=
0142833440999992015011912004-14863-040863FM-15+091499999V0200701N003619999999N009999199+02501+01601999999ADDGA1021+004571999GE19MSL   +99999+99999GF199999021999004571999999MA1102201999999REMMET051METAR SBQV 191200Z 07007KT 9999 FEW015 25/16 Q1022=
0072833440999992015011913004-14863-040863FM-15+091499999V0200401N003619999999Y999999999+02701+01601999999ADDMA1102201999999REMMET045METAR SBQV 191300Z 04007KT CAVOK 27/16 Q1022=
0142833440999992015011914004-14863-040863FM-15+091499999V0200601N003619999999N009999199+02801+01501999999ADDGA1021+009141999GE19MSL   +99999+99999GF199999021999009141999999MA1102101999999REMMET051METAR SBQV 191400Z 06007KT 9999 FEW030 28/15 Q1021=
0142833440999992015011915004-14863-040863FM-15+091499999V0200301N004119999999N009999199+03001+01501999999ADDGA1021+009141999GE19MSL   +99999+99999GF199999021999009141999999MA1102001999999REMMET051METAR SBQV 191500Z 03008KT 9999 FEW030 30/15 Q1020=
0142833440999992015011916004-14863-040863FM-15+091499999V0200901N002619999999N009999199+03101+01501999999ADDGA1041+010671999GE19MSL   +99999+99999GF199999041999010671999999MA1101901999999REMMET051METAR SBQV 191600Z 09005KT 9999 SCT035 31/15 Q1019=
0142833440999992015011917004-14863-040863FM-15+091499999V0201201N003619999999N009999199+03101+01601999999ADDGA1041+010671999GE19MSL   +99999+99999GF199999041999010671999999MA1101801999999REMMET051METAR SBQV 191700Z 12007KT 9999 SCT035 31/16 Q1018=
0142833440999992015011918004-14863-040863FM-15+091499999V0201201N005710106719N009999199+02901+01701999999ADDGA1071+010671999GE19MSL   +99999+99999GF199999071999010671999999MA1101801999999REMMET051METAR SBQV 191800Z 12011KT 9999 BKN035 29/17 Q1018=
0142833440999992015011919004-14863-040863FM-15+091499999V0201301N005119999999N009999199+03101+01601999999ADDGA1021+010671999GE19MSL   +99999+99999GF199999021999010671999999MA1101701999999REMMET051METAR SBQV 191900Z 13010KT 9999 FEW035 31/16 Q1017=
0142833440999992015011920004-14863-040863FM-15+091499999V0201201N005719999999N009999199+02901+01501999999ADDGA1021+009141999GE19MSL   +99999+99999GF199999021999009141999999MA1101701999999REMMET051METAR SBQV 192000Z 12011KT 9999 FEW030 29/15 Q1017=
0142833440999992015011921004-14863-040863FM-15+091499999V0201101N005719999999N009999199+02601+01701999999ADDGA1021+007621999GE19MSL   +99999+99999GF199999021999007621999999MA1101701999999REMMET051METAR SBQV 192100Z 11011KT 9999 FEW025 26/17 Q1017=
0142833440999992015011922004-14863-040863FM-15+091499999V0201001N004619999999N009999199+02401+01701999999ADDGA1021+005491999GE19MSL   +99999+99999GF199999021999005491999999MA1101801999999REMMET051METAR SBQV 192200Z 10009KT 9999 FEW018 24/17 Q1018=
0072833440999992015011923004-14863-040863FM-15+091499999V0201001N003619999999Y999999999+02401+01701999999ADDMA1101801999999REMMET045METAR SBQV 192300Z 10007KT CAVOK 24/17 Q1018=
0072833440999992015012000004-14863-040863FM-15+091499999V0200801N005119999999Y999999999+02201+01901999999ADDMA1101901999999REMMET045METAR SBQV 200000Z 08010KT CAVOK 22/19 Q1019=
0072833440999992015012001004-14863-040863FM-15+091499999V0200601N005719999999Y999999999+02101+01901999999ADDMA1102001999999REMMET045METAR SBQV 200100Z 06011KT CAVOK 21/19 Q1020=
0072833440999992015012002004-14863-040863FM-15+091499999V0200601N006719999999Y999999999+02001+01801999999ADDMA1102001999999REMMET045METAR SBQV 200200Z 06013KT CAVOK 20/18 Q1020=
0072833440999992015012003004-14863-040863FM-15+091499999V0200701N005719999999Y999999999+01901+01701999999ADDMA1101901999999REMMET045METAR SBQV 200300Z 07011KT CAVOK 19/17 Q1019=
0072833440999992015012003374-14863-040863FM-16+091499999V0200701N005719999999Y999999999+01901+01701999999ADDMA1101801999999REMMET045SPECI SBQV 200337Z 07011KT CAVOK 19/17 Q1018=
0072833440999992015012007004-14863-040863FM-15+091499999V0200801N002119999999Y999999999+01701+01601999999ADDMA1101801999999REMMET045METAR SBQV 200700Z 08004KT CAVOK 17/16 Q1018=
0072833440999992015012008004-14863-040863FM-15+091499999V0201301N002119999999Y999999999+01601+01501999999ADDMA1101801999999REMMET045METAR SBQV 200800Z 13004KT CAVOK 16/15 Q1018=
0142833440999992015012009004-14863-040863FM-15+091499999V0201201N002110030519N009999199+01701+01701999999ADDGA1071+003051999GE19MSL   +99999+99999GF199999071999003051999999MA1101801999999REMMET051METAR SBQV 200900Z 12004KT 9999 BKN010 17/17 Q1018=
0142833440999992015012010004-14863-040863FM-15+091499999V0200801N003110045719N009999199+02001+01801999999ADDGA1071+004571999GE19MSL   +99999+99999GF199999071999004571999999MA1101901999999REMMET051METAR SBQV 201000Z 08006KT 9999 BKN015 20/18 Q1019=
0142833440999992015012011004-14863-040863FM-15+091499999V0200901N005110045719N009999199+02201+01701999999ADDGA1071+004571999GE19MSL   +99999+99999GF199999071999004571999999MA1101901999999REMMET051METAR SBQV 201100Z 09010KT 9999 BKN015 22/17 Q1019=
0142833440999992015012012004-14863-040863FM-15+091499999V0200901N004610054919N009999199+02401+01701999999ADDGA1071+005491999GE19MSL   +99999+99999GF199999071999005491999999MA1102001999999REMMET051METAR SBQV 201200Z 09009KT 9999 BKN018 24/17 Q1020=
0142833440999992015012013004-14863-040863FM-15+091499999V0200701N002610061019N009999199+02501+01801999999ADDGA1071+006101999GE19MSL   +99999+99999GF199999071999006101999999MA1102001999999REMMET051METAR SBQV 201300Z 07005KT 9999 BKN020 25/18 Q1020=
0142833440999992015012014004-14863-040863FM-15+091499999V0200601N002610061019N009999199+02501+01901999999ADDGA1071+006101999GE19MSL   +99999+99999GF199999071999006101999999MA1101901999999REMMET051METAR SBQV 201400Z 06005KT 9999 BKN020 25/19 Q1019=
0142833440999992015012015004-14863-040863FM-15+091499999V0201301N004110061019N009999199+02601+01901999999ADDGA1071+006101999GE19MSL   +99999+99999GF199999071999006101999999MA1101901999999REMMET051METAR SBQV 201500Z 13008KT 9999 BKN020 26/19 Q1019=
0150833440999992015012016004-14863-040863FM-15+091499999V0201401V003610061019N009999199+02801+01901999999ADDGA1071+006101999GE19MSL   +99999+99999GF199999071999006101999999MA1101801999999REMMET059METAR SBQV 201600Z 14007KT 070V200 9999 BKN020 28/19 Q1018=
0142833440999992015012017004-14863-040863FM-15+091499999V0201301N003610061019N009999199+02901+02001999999ADDGA1071+006101999GE19MSL   +99999+99999GF199999071999006101999999MA1101701999999REMMET051METAR SBQV 201700Z 13007KT 9999 BKN020 29/20 Q1017=
0142833440999992015012018004-14863-040863FM-15+091499999V0201201N003110061019N009999199+02901+01901999999ADDGA1071+006101999GE19MSL   +99999+99999GF199999071999006101999999MA1101601999999REMMET051METAR SBQV 201800Z 12006KT 9999 BKN020 29/19 Q1016=
0142833440999992015012019004-14863-040863FM-15+091499999V0201101N005110061019N009999199+02901+01801999999ADDGA1071+006101999GE19MSL   +99999+99999GF199999071999006101999999MA1101601999999REMMET051METAR SBQV 201900Z 11010KT 9999 BKN020 29/18 Q1016=
0142833440999992015012020004-14863-040863FM-15+091499999V0201201N004619999999N009999199+02901+01801999999ADDGA1041+005491999GE19MSL   +99999+99999GF199999041999005491999999MA1101601999999REMMET051METAR SBQV 202000Z 12009KT 9999 SCT018 29/18 Q1016=
