0154822800999991986010112004-02533-044283FM-12+005199999V0202701N00151220001CN0100001N9+02541+02381101371ADDAA106000091AA224031091AG10999AY161061AY261061GF106991041021008001001011KA1240N+02251MA1999999100791MD1999999-0011MW1021REMSYN023333   20225 59001 60314
0124822800999991986010118004-02533-044283FM-12+005199999V0203601N00361045001CN0100001N9+02791+02501101051ADDAA106008091AG10999AY161061AY261061GF106991041081008001061001MA1999999100471MD1999999-0181MW1021REMSYN017333   59018 60081
0115822800999991986010200004-02533-044283FM-12+005199999V0200501N001019999999N0100001N9+02541+02391101211ADDAA106000091AG10999GF108991061061999999021999KA1240M+02871MA1999999100631MD1999999-0151REMSYN017333   10287 59015
0132822800999991986010212004-02533-044283FM-12+005199999V0203201N00151220001CN0100001N9+02701+02431101271ADDAA106000091AA224018091AG10999GF104991041021004501001001KA1240N+02271MA1999999100691MD1999999-0101REMSYN023333   20227 59010 60184
0085822800999991986010218004-02533-044283FM-12+005199999V0203601N00151045001CN0100001N9+02681+02451100851ADDAG10999GF107991041051004501021999MA1999999100261MD1999999-0201REMSYN011333   59020
0115822800999991986010300004-02533-044283FM-12+005199999V0203601N00151220001CN0100001N9+02601+02441101031ADDAA106000091AG10999GF104991041011008001001001KA1240M+02861MA1999999100451MD1999999-0181REMSYN017333   10286 59018
0121822800999991986010312004-02533-044283FM-12+005199999V0203601N00361220001CN0100001N9+02741+02401101171ADDAA124001091AG10999GF105991041021004501001011KA1240N+02301MA1999999100591MD1999999-0101REMSYN023333   20230 59010 60014
0096822800999991986010318004-02533-044283FM-12+005199999V0200501N00101105001CN0100001N9+02821+02431100841ADDAA106000091AG10999GF106991021031008001001031MA1999999100261MD1999999-0011REMSYN011333   59001
0115822800999991986010400004-02533-044283FM-12+005199999V0203601N00151220001CN0100001N9+02511+02321101021ADDAA106000091AG10999GF103991011011008001031001KA1240M+02921MA1999999100441MD1999999-0011REMSYN017333   10292 59001
0134822800999991986010412004-02533-044283FM-12+005199999V0203601N00211220001CN0100001N9+02741+02381101131ADDAA106000091AG10999GF104991021021004501001011KA1240N+02391MA1999999100551MD1999999+0011REMSYN017333   20239 58001EQDQ01+999990APOSLP
0096822800999991986010418004-02533-044283FM-12+005199999V0203601N00361220001CN0100001N9+02841+02361100971ADDAA106000091AG10999GF103991011061008001001061MA1999999100391MD1999999+0131REMSYN011333   58013
0115822800999991986010500004-02533-044283FM-12+005199999V0200501N00311220001CN0100001N9+02511+02321101171ADDAA106000091AG10999GF103991031011008001001001KA1240M+03001MA1999999100591MD1999999+0151REMSYN017333   10300 58015
0115822800999991986010512004-02533-044283FM-12+005199999V0200501N00211220001CN0100001N9+02861+02371101181ADDAA106000091AG10999GF103991031011008001001001KA1240N+02371MA1999999100601MD1410001+0001REMSYN017333   20237 58000
0107822800999991986010518004-02533-044283FM-12+005199999V0200901N00151004201CN0100001N9+02571+02311100481ADDAG10999AY131061AY231061GF106991051061004501021999MA1999999100341MD1999999-0051MW1961REMSYN011333   59005
0115822800999991986010612004-02533-044283FM-12+005199999V0200901N00311004201CN0100001N9+02811+02361101161ADDAA106000091AG10999GF105991051021004501001001KA1240N+02421MA1999999100581MD1999999-0021REMSYN017333   20242 59002
0096822800999991986010618004-02533-044283FM-12+005199999V0203601N00361220001CN0100001N9+02901+02431100781ADDAA106000091AG10999GF105991041021004501001011MA1999999100201MD1999999-0141REMSYN011333   59014
0115822800999991986010700004-02533-044283FM-12+005199999V0200501N00151220001CN0100001N9+02531+02341100971ADDAA106000091AG10999GF101991011011004501001001KA1240M+03061MA1999999100391MD1999999-0141REMSYN017333   10306 59014
0115822800999991986010712004-02533-044283FM-12+005199999V0200501N00311004201CN0100001N9+02801+02201101091ADDAA106000091AG10999GF105991051021004501001001KA1240N+02381MA1999999100511MD1999999-0071REMSYN017333   20238 59007
0115822800999991986010718004-02533-044283FM-12+005199999V0203601N003119999999N0100001N9+02961+02401100851ADDAA106000091AG10999GF108991999011008001001001MA1999999100281MD1999999-0131REMSYN011333   59013EQDQ01+000022SCOTLC
0115822800999991986010800004-02533-044283FM-12+005199999V0200501N00261220001CN0100001N9+02541+02321101041ADDAA106000091AG10999GF102991021011008001001001KA1240M+02991MA1999999100461MD1999999+0071REMSYN017333   10299 58007
0102822800999991986010812004-02533-044283FM-12+005199999V0200501N00261045001CN0100001N9+02731+02341101221ADDAA106000091AG10999GF107991031021004501011041MA1999999100641MD1999999+0131REMSYN017333   20/40 58013
0096822800999991986010818004-02533-044283FM-12+005199999V0203601N00461105001CN0100001N9+02861+02311101031ADDAA106000091AG10999GF105991021011008001001021MA1999999100451MD1999999+0171REMSYN011333   58017
0115822800999991986010900004-02533-044283FM-12+005199999V0200501N00261045001CN0100001N9+02331+02271101201ADDAA106000091AG10999GF105991031021004501031001KA1240M+02991MA1999999100621MD1999999+0161REMSYN017333   10299 58016
0115822800999991986010912004-02533-044283FM-12+005199999V0200501N00211045001CN0100001N9+02881+02371101341ADDAA106000091AG10999GF105991031021008001061011KA1240N+02491MA1999999100761MD1999999+0121REMSYN017333   20249 58012
0096822800999991986010918004-02533-044283FM-12+005199999V0200501N00511220001CN0100001N9+02891+02391101151ADDAA106000091AG10999GF103991021021008001001011MA1999999100521MD1999999+0071REMSYN011333   58007
0096822800999991986011000004-02533-044283FM-12+005199999V0200501N00151220001CN0100001N9+02551+02371101301ADDAA106000091AG10999GF102991021021008001001001MA1999999100721MD1999999+0101REMSYN011333   58010
0129822800999991986011006004-02533-044283FM-12+005199999V0202901N00151220001CN0500001N9+99999+99999102071ADDAA106000091AG10999GF102991001001999999001021KA1240N-01951MD1210061+9999REMSYN011333   21195EQDQ01+025393ATOT  Q02+025133ATOD  
0115822800999991986011012004-02533-044283FM-12+005199999V0200501N00311220001CN0100001N9+02801+02341101411ADDAA106000091AG10999GF104991041021004501001001KA1240N+02311MA1999999100831MD1999999+0071REMSYN017333   20231 58007
0124822800999991986011018004-02533-044283FM-12+005199999V0203601N00311045001CN0100001N9+02671+02451101181ADDAA106002091AG10999AY161061AY261061GF106991031021004501031001MA1999999100601MD1999999+0081MW1021REMSYN017333   58008 60021
0115822800999991986011100004-02533-044283FM-12+005199999V0200501N00261220001CN0100001N9+02521+02381101211ADDAA106000091AG10999GF101991011031004501001001KA1240M+03011MA1999999100631MD1999999-0091REMSYN017333   10301 59009
0143822800999991986011112004-02533-044283FM-12+005199999V0200501N00211045001CN0100001N9+02461+02371101341ADDAA124006091AG10999AY121061AY221061GF106991041021004501011001KA1240N+02371MA1999999100761MD1999999-0071MW1211REMSYN023333   20237 59007 60064
0124822800999991986011118004-02533-044283FM-12+005199999V0200501N00311004201CN0100001N9+02601+02311101161ADDAA106006091AG10999AY161061AY261061GF108991081071004501999999MA1999999100571MD1999999-0061MW1601REMSYN017333   59006 60061
0143822800999991986011200004-02533-044283FM-12+005199999V0200501N00151004201CN0100001N9+02481+02381101221ADDAA106001091AG10999AY161061AY261061GF106991061051004501001001KA1240M+02971MA1999999100641MD1999999+0011MW1021REMSYN023333   10297 58001 60011
0121822800999991986011212004-02533-044283FM-12+005199999V0200901N00361045001CN0100001N9+02801+02361101221ADDAA124006091AG10999GF105991041021004501031001KA1240N+02421MA1999999100641MD1999999-0121REMSYN023333   20242 59012 60064
0115822800999991986011218004-02533-044283FM-12+005199999V0200501N00361220001CN0100001N9+02991+02301100971ADDAA106000091AG10999GF101991011011008001001001MA1999999100391MD1999999-0181REMSYN011333   59018EQDQ01+999990APOSLP
0115822800999991986011300004-02533-044283FM-12+005199999V0200901N00101220001CN0100001N9+02411+02281101051ADDAA106000091AG10999GF100991001001999999001001KA1240M+03051MA1999999100471MD1999999-0171REMSYN017333   10305 59017
0115822800999991986011312004-02533-044283FM-12+005199999V0200501N00311220001CN0100001N9+02851+02421101101ADDAA106000091AG10999GF102991021011012501001001KA1240N+02321MA1999999100521MD1999999-0121REMSYN017333   20232 59012
0096822800999991986011318004-02533-044283FM-12+005199999V0203601N00361007501CN0100001N9+02901+02481100881ADDAA106000091AG10999GF106991061021008001001001MA1999999100301MD1999999-0091REMSYN011333   59009
0115822800999991986011400004-02533-044283FM-12+005199999V0200501N00151220001CN0100001N9+02461+02301100981ADDAA106000091AG10999GF101991011041008001001001KA1240M+03021MA1999999100401MD1999999-0071REMSYN017333   10302 59007
0115822800999991986011412004-02533-044283FM-12+005199999V0200501N00311045001CN0100001N9+02841+02311101031ADDAA106000091AG10999GF106991041021004501011081KA1240N+02311MA1999999100451MD1999999-0071REMSYN017333   20231 59007
0096822800999991986011418004-02533-044283FM-12+005199999V0203601N00311004201CN0100001N9+02861+02371100771ADDAA106000091AG10999GF105991051021004501001001MA1999999100191MD1999999-0111REMSYN011333   59011
0115822800999991986011500004-02533-044283FM-12+005199999V0200501N00151220001CN0100001N9+02541+02401100921ADDAA106000091AG10999GF100991001001999999001001KA1240M+03001MA1999999100341MD1999999-0061REMSYN017333   10300 59006
0115822800999991986011512004-02533-044283FM-12+005199999V0200501N00311004201CN0100001N9+02781+02321101091ADDAA106000091AG10999GF105991051021004501001001KA1240N+02291MA1999999100511MD1999999+0061REMSYN017333   20229 58006
0118822800999991986011518004-02533-044283FM-12+005199999V0202301N00211012001CN0200001N9+02681+02391101191ADDAA106000091AG10999AY161061AY221061GF105991051021012501999999MA1999999099721MD1999999+0201MW1031REMSYN011333   58020
0121822800999991986011612004-02533-044283FM-12+005199999V0200501N00311045001CN0010001N9+02771+02361101551ADDAA124000191AG10999GF108991031011008001011011KA1240N+02431MA1999999100591MD1999999+0081REMSYN023333   20243 58008 69914
0096822800999991986011618004-02533-044283FM-12+005199999V0200501N00461045001CN0100001N9+02901+02391100911ADDAA106000091AG10999GF107991021011008001021011MA1999999100331MD1999999+0041REMSYN011333   58004
0115822800999991986011700004-02533-044283FM-12+005199999V0200501N00151045001CN0100001N9+02541+02311101131ADDAA106000091AG10999GF108991021011008001021999KA1240M+03031MA1999999100551MD1999999+0081REMSYN017333   10303 58008
0096822800999991986011718004-02533-044283FM-12+005199999V0200501N00211045001CN0100001N9+02911+02341100801ADDAA106000091AG10999GF106991041081008001061001MA1999999100231MD1999999-0101REMSYN011333   59010
0154822800999991986011800004-02533-044283FM-12+005199999V0209991C00001045001CN0100001N9+02481+02391101031ADDAA106000291AA299000391AG10999AY161061AY261061GF106991041061008001061999KA1240M+03051MA1999999100451MD1999999-0101MW1211REMSYN023333   10305 59010 69921
0143822800999991986011812004-02533-044283FM-12+005199999V0200501N00151004201CN0010001N9+02241+02191101191ADDAA124004091AG10999AY161061AY261061GF108991081071004501999999KA1240N+02211MA1999999100611MD1999999+0041MW1601REMSYN023333   20221 58004 60044
0159822800999991986011818004-02533-044283FM-12+005199999V0200901N00361045001CN0100001N9+02621+02211100971ADDAA106005091AG10999AY161061AY261061GF106991031021004501031001MA1999999100391MD1999999+0161MW1011REMSYN017333   58016 60051EQDQ01+099393APOSP Q02+999990APOSP 
0115822800999991986011900004-02533-044283FM-12+005199999V0209991C00001004201CN0100001N9+02361+02221101071ADDAA106000091AG10999GF108991051051004501031001KA1240M+02681MA1999999100491MD1999999+0041REMSYN017333   10268 58004
0121822800999991986011912004-02533-044283FM-12+005199999V0200901N00101004201CN0100001N9+02641+02341101171ADDAA124005091AG10999GF108991051051004501031999KA1240N+02311MA1999999100591MD1999999-0021REMSYN023333   20231 59002 60054
0124822800999991986011918004-02533-044283FM-12+005199999V0203201N00151045001CN0100001N9+02601+02441100991ADDAA106003091AG10999AY161061AY261061GF107991041051004501011001MA1999999100411MD1999999+0021MW1011REMSYN017333   58002 60031
0121822800999991986012012004-02533-044283FM-12+005199999V0200901N00151045001CN0100001N9+02801+02441101141ADDAA124007091AG10999GF106991041021004501031011KA1240N+02281MA1999999100541MD1999999-0051REMSYN023333   20228 59005 60074
0118822800999991986012018004-02533-044283FM-12+005199999V0203601N00461045001CN0100001N9+02821+02401100921ADDAA106000091AG10999AY121061AY221061GF106991031081004501061011MA1999999100341MD1999999-0071MW1171REMSYN011333   59007
0115822800999991986012100004-02533-044283FM-12+005199999V0200501N00211045001CN0100001N9+02541+02321101221ADDAA106000091AG10999GF106991021011008001031011KA1240M+03211MA1999999100641MD1999999+0051REMSYN017333   10321 58005
0115822800999991986012112004-02533-044283FM-12+005199999V0200901N00211007501CN0100001N9+02741+02451101211ADDAA106000091AG10999GF106991051061008001001011KA1240N+02331MA1999999100631MD1999999+0111REMSYN017333   20233 58011
0096822800999991986012118004-02533-044283FM-12+005199999V0203601N00361045001CN0100001N9+02921+02471100821ADDAA106000091AG10999GF105991031021004501031011MA1999999100241MD1999999-0101REMSYN011333   59010
0115822800999991986012200004-02533-044283FM-12+005199999V0200501N00151220001CN0100001N9+02381+02151100991ADDAA106000091AG10999GF103991021051008001041001KA1240M+03021MA1999999100411MD1999999+0231REMSYN017333   10302 58023
0115822800999991986012212004-02533-044283FM-12+005199999V0200501N00311045001CN0100001N9+02741+02321101281ADDAA106000091AG10999GF106991041021004501031001KA1240N+02391MA1999999100701MD1999999+0071REMSYN017333   20239 58007
0115822800999991986012300004-02533-044283FM-12+005199999V0200501N00151220001CN0100001N9+02461+02251101051ADDAA106000091AG10999GF103991021011008001011001KA1240M+03001MA1999999100471MD1999999+0061REMSYN017333   10300 58006
0143822800999991986012312004-02533-044283FM-12+005199999V0200901N00101004201CN0020001N9+99999+99999101371ADDAA124045091AG10999AY161061AY261061GF108991081071004501999999KA1240N+02201MA1999999100791MD1999999+0091MW1601REMSYN023333   20220 58009 60454
0135822800999991986012318004-02533-044283FM-12+005199999V0200501N00311045001CN0100001N9+02701+02281101961ADDAA106000291AA299000391AG10999AY161061AY261061GF106991041051004501031001MA1999999100481MD1999999+0111MW1011REMSYN017333   58011 69921
0115822800999991986012400004-02533-044283FM-12+005199999V0209991C00001220001CN0100001N9+02401+02261101171ADDAA106000091AG10999GF102991021011008001001001KA1240M+02741MA1999999100591MD1999999+0121REMSYN017333   10274 58012
0160822800999991986012412004-02533-044283FM-12+005199999V0200501N00261045001CN0100001N9+02781+02481101131ADDAA106000091AA224000291AG10999AJ199999999999999GF106991041021004501031001IA1219KA1240N+02231MA1999999100551REMSYN023333   20223 45902 69924EQDQ01  09022SNDP  
0096822800999991986012418004-02533-044283FM-12+005199999V0200501N00361045001CN0100001N9+03001+02461100871ADDAA106000091AG10999GF105991031061004501021001MA1999999100301MD1999999-0181REMSYN011333   59018
0143822800999991986012500004-02533-044283FM-12+005199999V0200901N00101045001CN0100001N9+02571+02431101101ADDAA106006091AG10999AY161061AY221061GF108991041051008001011999KA1240M+03071MA1999999100521MD1999999-0071MW1021REMSYN023333   10307 59007 60061
0121822800999991986012512004-02533-044283FM-12+005199999V0200901N00261045001CN0100001N9+02521+02471101031ADDAA124006091AG10999GF106991041021008001061001KA1240N+02321MA1999999100451MD1999999+0151REMSYN023333   20232 58015 60064
0096822800999991986012518004-02533-044283FM-12+005199999V0203601N00311007501CN0100001N9+02801+02521100801ADDAA106000091AG10999GF105991051021008001001001MA1999999100231MD1999999-0071REMSYN011333   59007
0115822800999991986012600004-02533-044283FM-12+005199999V0200501N00151045001CN0100001N9+02501+02341101021ADDAA106000091AG10999GF106991041041008001061001KA1240M+03041MA1999999100441MD1999999-0081REMSYN017333   10304 59008
0115822800999991986012612004-02533-044283FM-12+005199999V0200501N00311220001CN0100001N9+02831+02311101051ADDAA106000091AG10999GF103991031011008001001001KA1240N+02411MA1999999100471MD1999999+0021REMSYN017333   20241 58002
0096822800999991986012618004-02533-044283FM-12+005199999V0203601N00511007501CN0100001N9+02881+02461100781ADDAA106000091AG10999GF105991051021008001001001MA1999999100211MD1999999-0021REMSYN011333   59002
0115822800999991986012700004-02533-044283FM-12+005199999V0200501N00151220001CN0100001N9+02541+02341100971ADDAA106000091AG10999GF103991031021008001001001KA1240M+03051MA1999999100311MD1999999-0121REMSYN017333   10305 59012
0134822800999991986012712004-02533-044283FM-12+005199999V0200501N00311045001CN0100001N9+02801+02381101111ADDAA106000091AG10999GF105991041021004501011001KA1240N+02311MA1999999999999MD1999999+0061REMSYN017333   20231 58006EQDQ01 080533APOSP 
0135822800999991986012718004-02533-044283FM-12+005199999V0200501N00261004201CN0100001N9+02641+02441100951ADDAA106002091AG10999AY161061GF108991051061004501021999MA1999999100372MD1999999+0161MW1171REMSYN017333   58016 60021EQDQ01+100373APOSP 
0143822800999991986012800004-02533-044283FM-12+005199999V0200501N00151004201CN0100001N9+02501+02361101111ADDAA106056091AG10999AY161061AY261061GF108991081051004501999999KA1240M+02941MA1999999100531MD1999999+0211MW1021REMSYN023333   10294 58021 60561
0143822800999991986012812004-02533-044283FM-12+005199999V0200501N00151045001CN0100001N9+02671+02461101211ADDAA124058091AG10999AY161061AY221061GF106991031081008001031021KA1240N+02241MA1999999100631MD1999999+0101MW1161REMSYN023333   20224 58010 60584
0096822800999991986012818004-02533-044283FM-12+005199999V0203601N00311045001CN0100001N9+02821+02381100921ADDAA106000091AG10999GF107991041021004501061031MA1999999100341MD1999999-0031REMSYN011333   59003
0143822800999991986012900004-02533-044283FM-12+005199999V0202601N00101045001CN0100001N9+02491+02321101181ADDAA106000591AG10999AY161061AY221061GF108991031021004501011999KA1240M+02961MA1999999100571MD1999999+0041MW1911REMSYN023333   10296 58004 69951
0130822800999991986012912004-02533-044283FM-12+005199999V0209999999999004201CN0040001N9+02701+02411101091ADDAA124002091AG10999AY161061AY261061GF108991061071004501021999MA1999999100511MD1999999-0121MW1161REMSYN023333   2023/ 59012 60024
0124822800999991986012918004-02533-044283FM-12+005199999V0203601N00151045001CN0100001N9+02481+02411100921ADDAA106002091AG10999AY161061AY221061GF108991031061004501021999MA1999999100341MD1410001+0001MW1021REMSYN017333   58000 60021
0189822800999991986013000004-02533-044283FM-12+005199999V0200501N001519999999N0100001N9+02411+02401102272ADDAA106000791AA299001091AG10999AY161061AY261061GF106991041061004501999999KA1240M+99999MA1999999100411MD1999999+0161MW1021REMSYN023333   10224 58016 69971EQDQ01+102273APOSLPQ02 +02242ATMX  
0143822800999991986013012004-02533-044283FM-12+005199999V0200501N00101004201CN0100001N9+02381+02371101101ADDAA124108091AG10999AY161061AY261061GF108991081061004501999999KA1240N+02251MA1999999100521MD1999999+0011MW1021REMSYN023333   20225 58001 61084
0137822800999991986013015004-02533-044283FM-12+005199999V0201101N00151004201CN0150001N9+99999+99999999999ADDAG10999GA1081+004209079GF108991081061004501999999MD1310041+9999REMSYN011333   88714EQDQ01+026893ATOT  Q02+026703ATOD  Q03+104353APOSLP
0102822800999991986013018004-02533-044283FM-12+005199999V0200501N00261004201CN0100001N9+02621+02251100901ADDAA106001091AG10999GF108991061051004501011999MA1999999100321MD1999999-0021REMSYN017333   59002 60011
0115822800999991986013100004-02533-044283FM-12+005199999V0200501N00151012001CN0100001N9+02461+02321100971ADDAA106000091AG10999GF106991061051012501001001KA1240M+02661MA1999999100391MD1999999-0021REMSYN017333   10266 59002
0143822800999991986013112004-02533-044283FM-12+005199999V0200501N00261009001CN0100001N9+02381+02211101201ADDAA124035091AG10999AY161061AY261061GF108991061081004501021999KA1240N+02171MA1999999100621MD1999999+0101MW1021REMSYN023333   20217 58010 60354
0124822800999991986013118004-02533-044283FM-12+005199999V0200501N00211012001CN0100001N9+02501+02321100861ADDAA106000191AG10999AY161061AY261061GF108991061081008001061999MA1999999100281MD1999999-0041MW1021REMSYN017333   59004 69911
0143822800999991986020100004-02533-044283FM-12+005199999V0200501N00151004201CN0100001N9+02341+02321101041ADDAA106001091AG10999AY161061AY261061GF108991061061004501021081KA1240M+02781MA1999999100511MD1999999-0181MW1021REMSYN023333   10278 59018 60011
0143822800999991986020112004-02533-044283FM-12+005199999V0201401N00151004201CN0100001N9+02301+02221101351ADDAA124045091AG10999AY161061AY261061GF108991081061004501999999KA1240N+02101MA1999999100771MD1999999+0151MW1021REMSYN023333   20210 58015 60454
0143822800999991986020118004-02533-044283FM-12+005199999V0201401N001519999999N0020001N9+02401+02281101071ADDAA106010091AG10999AY121061AY221061GF108991999071004501999999MA1999999100491MD1999999+0211MW1601REMSYN017333   58021 60101EQDQ01+000002SCOTLC
0143822800999991986020200004-02533-044283FM-12+005199999V0209991C00001004201CN0100001N9+02341+02221101211ADDAA106002091AG10999AY161061AY261061GF106991061051004501001001KA1240M+02801MA1999999100611MD1999999+0121MW1021REMSYN023333   10280 58012 60021
0121822800999991986020212004-02533-044283FM-12+005199999V0203601N00151045001CN0100001N9+02561+02271101281ADDAA124012091AG10999GF106991011011008001031011KA1240N+02141MA1999999100701MD1999999-0071REMSYN023333   20214 59007 60124
0096822800999991986020218004-02533-044283FM-12+005199999V0202701N00211105001CN0100001N9+02821+02291100941ADDAA106000091AG10999GF105991021021004501061011MA1999999100361MD1999999-0131REMSYN011333   59013
0143822800999991986020300004-02533-044283FM-12+005199999V0201801N00101220001CN0100001N9+02371+02221101141ADDAA106007091AG10999AY161061AY291061GF103991021061004501031061KA1240M+02971MA1999999100561MD1999999-0071MW1031REMSYN023333   10297 59007 60071
0143822800999991986020312004-02533-044283FM-12+005199999V0201401N00051045001CN0100001N9+02381+02311101181ADDAA124012091AG10999AY161061AY261061GF106991041081004501061001KA1240N+02361MA1999999100601MD1999999+0101MW1211REMSYN023333   20236 58010 60124
0096822800999991986020318004-02533-044283FM-12+005199999V0203601N00311045001CN0100001N9+02831+02221100851ADDAA106000091AG10999GF107991021011008001031061MA1999999100261MD1999999-0101REMSYN011333   59010
0115822800999991986020400004-02533-044283FM-12+005199999V0200501N00101007501CN0100001N9+02431+02331101081ADDAA106000091AG10999GF105991051021008001001001KA1240M+02861MA1999999100501MD1999999-0061REMSYN017333   10286 59006
0143822800999991986020412004-02533-044283FM-12+005199999V0201401N00151004201CN0100001N9+02581+02291101311ADDAA124007091AG10999AY161061AY261061GF108991061051004501011999KA1240N+02331MA1999999100731MD1999999+0131MW1031REMSYN023333   20233 58013 60074
0124822800999991986020418004-02533-044283FM-12+005199999V0201801N00101045001CN0100001N9+02341+02201101121ADDAA106004091AG10999AY161061AY261061GF108991041051004501021999MA1999999100541MD1999999+0281MW1611REMSYN017333   58028 60041
0143822800999991986020500004-02533-044283FM-12+005199999V0209991C00001004201CN0100001N9+02281+02231101241ADDAA148000291AG10999AY161061AY261061GF108991061051004501021999KA1240M+02641MA1999999100651MD1999999+0151MW1031REMSYN023333   10264 58015 69929
0140822800999991986020512004-02533-044283FM-12+005199999V0203601N001519999999N0100001N9+02571+02401101401ADDAA124008091AG10999GF106991999041004501061061KA1240N+02241MA1999999100821MD1999999+0091REMSYN023333   20224 58009 60084EQDQ01+000002SCOTLC
0124822800999991986020518004-02533-044283FM-12+005199999V0200501N00151045001CN0100001N9+02861+02371101101ADDAA106001091AG10999AY161061AY261061GF106991041021004501031001MA1999999100521MD1999999-0021MW1011REMSYN017333   59002 60011
0121822800999991986020612004-02533-044283FM-12+005199999V0201401N00151004201CN0100001N9+02601+02461101331ADDAA124001091AG10999GF108991061021004501011999KA1240N+02271MA1999999100751MD1999999-0071REMSYN023333   20227 59007 60014
0096822800999991986020618004-02533-044283FM-12+005199999V0200501N00101004201CN0100001N9+02901+02391101011ADDAA106000091AG10999GF106991061021004501001001MA1999999100431MD1999999+0031REMSYN011333   58003
0115822800999991986020700004-02533-044283FM-12+005199999V0209991C00001220001CN0100001N9+02441+02321101191ADDAA106000091AG10999GF101991011011008001001001KA1240M+02921MA1999999100331MD1999999-0121REMSYN017333   10292 59012
0154822800999991986020712004-02533-044283FM-12+005199999V0201401N00101045001CN0100001N9+02741+02381101341ADDAA124000291AA299000391AG10999AY161061AY221061GF106991021011008001031011KA1240N+02301MA1999999100761MD1999999+0011MW1021REMSYN023333   20230 58001 69924
0124822800999991986020718004-02533-044283FM-12+005199999V0209991C00001045001CN0100001N9+02571+02421100971ADDAA106015091AG10999AY161061AY221061GF107991031051008001021011MA1999999100391MD1999999-0041MW1171REMSYN017333   59004 60151
0143822800999991986020800004-02533-044283FM-12+005199999V0201401N00101045001CN0100001N9+02481+02391101211ADDAA106000391AG10999AY161061AY221061GF108991041061004501021999KA1240M+02861MA1999999100631MD1999999+0021MW1021REMSYN023333   10286 58002 69931
0143822800999991986020812004-02533-044283FM-12+005199999V0200901N00151045001CN0100001N9+02541+02451101211ADDAA124107091AG10999AY161061AY261061GF106991041081008001061011KA1240N+02271MA1999999100631MD1999999-0131MW1021REMSYN023333   20227 59013 61074
0115822800999991986020900004-02533-044283FM-12+005199999V0200901N00101045001CN0100001N9+02491+02321101131ADDAA106000091AG10999GF106991041061004501021001KA1240M+02991MA1999999100551MD1999999-0081REMSYN017333   10299 59008
0154822800999991986020912004-02533-044283FM-12+005199999V0209991C00001004201CN0100001N9+02621+02481101181ADDAA124000291AA299000391AG10999AY161061AY261061GF107991051051004501061001KA1240N+02331MA1999999100601MD1999999-0031MW1911REMSYN023333   20233 59003 69924
0135822800999991986020918004-02533-044283FM-12+005199999V0209991C00001004201CN0100001N9+02601+02401101181ADDAA106000691AA299000591AG10999AY161061AY261061GF108991051051004501061999MA1999999100371MD1999999+0041MW1021REMSYN017333   58004 69961
0115822800999991986021000004-02533-044283FM-12+005199999V0200901N00101045001CN0100001N9+02481+02381101011ADDAA106000091AG10999GF106991031051004501031001KA1240M+02671MA1999999100431MD1999999-0121REMSYN017333   10267 59012
0140822800999991986021012004-02533-044283FM-12+005199999V0200901N003119999999N0049001N9+02721+02501101111ADDAA124009091AG10999GF106991999021001501001001KA1240N+02291MA1999999100531MD1999999-0071REMSYN023333   20229 59007 60094EQDQ01+000042SCOTLC
0115822800999991986021018004-02533-044283FM-12+005199999V0200501N004119999999N0100001N9+02901+02481100771ADDAA106000091AG10999GF106991999021004501001001MA1999999100191MD1999999-0181REMSYN011333   59018EQDQ01+000042SCOTLC
0143822800999991986021100004-02533-044283FM-12+005199999V0200501N00151045001CN0100001N9+02541+02441101101ADDAA106003091AG10999AY161061AY261061GF105991021031004501011001KA1240M+03061MA1999999100521MD1999999+0091MW1011REMSYN023333   10306 58009 60031
0132822800999991986021112004-02533-044283FM-12+005199999V0200501N00311004201CN0100001N9+02701+02431101281ADDAA106000091AA224003091AG10999GF106991061021004501001001KA1240N+02291MA1999999100701MD1999999+0171REMSYN023333   20229 58017 60034
0107822800999991986021118004-02533-044283FM-12+005199999V0200501N00311004201CN0100001N9+02831+02501100971ADDAG10999AY161061AY261061GF107991051021004501011001MA1999999100391MD1999999+0021MW1011REMSYN011333   58002
0162822800999991986021200004-02533-044283FM-12+005199999V0200901N001519999999N0100001N9+02461+02371101291ADDAA106006091AG10999AY161061AY261061GF105991051011999999001001KA1240M+02941MA1999999100711MD1999999-0081MW1211REMSYN023333   10294 59008 60061EQDQ01+000992SCOLCB
0143822800999991986021212004-02533-044283FM-12+005199999V0200901N00101045001CN0100001N9+02671+02461101621ADDAA124026091AG10999AY161061AY261061GF107991041081004501061001KA1240N+02211MA1999999100841MD1999999+0141MW1601REMSYN023333   20221 58014 60264
0124822800999991986021218004-02533-044283FM-12+005199999V0200501N00261045001CN0100001N9+02621+02411101211ADDAA106002091AG10999AY161061AY261061GF107991041061004501021021MA1999999100631MD1999999+0141MW1211REMSYN017333   58014 60021
0115822800999991986021300004-02533-044283FM-12+005199999V0209991C00001004201CN0100001N9+02351+02281101331ADDAA106000091AG10999GF106991061021004501001001KA1240M+02741MA1999999100451MD1999999+0041REMSYN017333   10274 58004
0143822800999991986021312004-02533-044283FM-12+005199999V0200901N00151105001CN0100001N9+02761+02441101331ADDAA124004091AG10999AY161061AY261061GF106991041021008001001021KA1240N+02271MA1999999100751MD1999999-0091MW1021REMSYN023333   20227 59009 60044
0131822800999991986021318004-02533-044283FM-12+005199999V0200501N003119999999N0100001N9+02871+02311101061ADDAA106000091AG10999GF108991999021008001001001MA1999999100481MD1999999-0151REMSYN011333   59015EQDQ01+000032SCOTLCQ02+999990APOSP 
0137822800999991986021400004-02533-044283FM-12+005199999V0200901N00101220001CN0100001N9+02481+02301101181ADDAA106000091AG10999AY121061AY221061GF103991031021008001001001KA1240M+02931MA1999999100601MD1999999-0151MW1131REMSYN017333   10293 59015
0143822800999991986021412004-02533-044283FM-12+005199999V0200901N00261004201CN0100001N9+02731+02451101151ADDAA124002091AG10999AY161061AY261061GF105991051051004501001001KA1240N+02331MA1999999100571MD1999999-0181MW1021REMSYN023333   20233 59018 60024
0135822800999991986021418004-02533-044283FM-12+005199999V0203601N00411004201CN0100001N9+02861+02441100971ADDAA106000291AA299000391AG10999AY161061AY261061GF105991051051004501001001MA1999999100391MD1999999-0091MW1021REMSYN017333   59009 69921
0143822800999991986021512004-02533-044283FM-12+005199999V0200501N00211004201CN0100001N9+02701+02431101271ADDAA124001091AG10999AY161061AY261061GF105991051021004501001001KA1240N+02311MA1999999100691MD1999999+0121MW1011REMSYN023333   20231 58012 60014
0124822800999991986021518004-02533-044283FM-12+005199999V0200501N00261045001CN0100001N9+02661+02431100941ADDAA124003091AG10999AY161061AY261061GF107991041051004501011001MA1999999100361MD1999999-0251MW1011REMSYN017333   59025 60034
0143822800999991986021600004-02533-044283FM-12+005199999V0209991C00001004201CN0100001N9+02341+02271101171ADDAA106008091AG10999AY161061AY261061GF108991061061004501011999KA1240M+02871MA1999999100591MD1999999-0021MW1211REMSYN023333   10287 59002 60081
0143822800999991986021612004-02533-044283FM-12+005199999V0200901N00151045001CN0100001N9+02701+02391101291ADDAA124023091AG10999AY161061AY261061GF106991041021004501011001KA1240N+02271MA1999999100711MD1999999+0021MW1011REMSYN023333   20227 58002 60234
0124822800999991986021618004-02533-044283FM-12+005199999V0200501N00411004201CN0100001N9+02801+02381100941ADDAA106000391AG10999AY161061AY261061GF108991051061004501011999MA1999999100361MD1410001+0001MW1021REMSYN017333   58000 69931
0143822800999991986021700004-02533-044283FM-12+005199999V0200501N00261004201CN0100001N9+02501+02361101001ADDAA106000391AG10999AY121061AY221061GF108991051061004501011999KA1240M+02931MA1999999100481MD1999999-0121MW1211REMSYN023333   10293 59012 69931
0143822800999991986021712004-02533-044283FM-12+005199999V0200901N00151004201CN0100001N9+02601+02231101181ADDAA124023091AG10999AY161061AY261061GF108991051021004501011001KA1240N+02251MA1999999100601MD1999999-0111MW1011REMSYN023333   20225 59011 60234
0124822800999991986021718004-02533-044283FM-12+005199999V0200501N00411045001CN0100001N9+02641+02541100931ADDAA112006091AG10999AY161061AY261061GF106991041021004501011001MA1999999100331MD1999999-0031MW1021REMSYN017333   59003 60062
0115822800999991986021800004-02533-044283FM-12+005199999V0200501N00211045001CN0100001N9+02501+02361100971ADDAA106000091AG10999GF106991041021004501011001KA1240M+02701MA1999999100391MD1999999-0091REMSYN017333   10270 59009
0143822800999991986021812004-02533-044283FM-12+005199999V0200901N00151004201CN0040001N9+02411+02371101151ADDAA124030091AG10999AY161061AY261061GF108991061071004501021999KA1240N+02211MA1999999100571MD1999999-0031MW1601REMSYN023333   20221 59003 60304
0096822800999991986021818004-02533-044283FM-12+005199999V0200501N001519999999N0100001N9+02741+02401100751ADDAA106000091AG10999GF108991031051004501999999MA1999999100211MD1999999-0121REMSYN011333   59012
0154822800999991986021900004-02533-044283FM-12+005199999V0209991C00001004201CN0040001N9+02411+02371100991ADDAA106000491AA299000591AG10999AY161061AY261061GF108991061061004501021999KA1240M+02881MA1999999100411MD1999999+0021MW1601REMSYN023333   10288 58002 69941
0154822800999991986021912004-02533-044283FM-12+005199999V0209991C00001045001CN0100001N9+02581+02341101021ADDAA124000791AA299001091AG10999AY161061AY261061GF107991031051004501021001KA1240N+02251MA1999999100441MD1999999-0131MW1021REMSYN023333   20225 59013 69974
0096822800999991986021918004-02533-044283FM-12+005199999V0203601N00311045001CN0100001N9+02781+02441100661ADDAA106000091AG10999GF106991031051008001021001MA1999999100081MD1999999-0131REMSYN011333   59013
0143822800999991986022000004-02533-044283FM-12+005199999V0209991C00001004201CN0100001N9+02381+02351100931ADDAA106021091AG10999AY161061AY261061GF108991061051004501999999KA1240M+02991MA1999999100351MD1999999-0061MW1911REMSYN023333   10299 59006 60211
0143822800999991986022012004-02533-044283FM-12+005199999V0200901N00151045001CN0100001N9+02701+02131101191ADDAA124022091AG10999AY161061AY261061GF106991041021004501031001KA1240N+02271MA1999999100611MD1999999+0171MW1011REMSYN023333   20227 58017 60224
0124822800999991986022018004-02533-044283FM-12+005199999V0200501N00311004201CN0100001N9+02721+02371100851ADDAA106025091AG10999AY161061AY261061GF108991061051004501011999MA1999999100271MD1999999+0191MW1021REMSYN017333   58019 60251
0143822800999991986022100004-02533-044283FM-12+005199999V0201801N00051045001CN0100001N9+02341+02291101131ADDAA106001091AG10999AY161061AY261061GF105991031021004501031001KA1240M+02901MA1999999100551MD1999999+0201MW1011REMSYN023333   10290 58020 60011
0124822800999991986022118004-02533-044283FM-12+005199999V0200501N00051045001CN0100001N9+02601+02331100831ADDAA106002091AG10001AY161061AY261061GF107991041021004501031001MA1999999100221MD1999999-0021MW1211REMSYN017333   59002 60021
0115822800999991986022200004-02533-044283FM-12+005199999V0209991C00001045001CN0100001N9+02441+02341101211ADDAA106000091AG10999GF108991041061004501021999KA1240M+02641MA1999999100561MD1999999-0021REMSYN017333   10264 59002
0143822800999991986022212004-02533-044283FM-12+005199999V0200901N00211045001CN0100001N9+02601+02351101301ADDAA124029091AG10999AY161061AY221061GF108991031011008001031999KA1240N+02201MA1999999100721MD1999999+0051MW1021REMSYN023333   20220 58005 60294
0096822800999991986022218004-02533-044283FM-12+005199999V0209991C00001045001CN0100001N9+02661+02311100891ADDAA106000091AG10999GF108991031051008001021999MA1999999100311MD1999999+0061REMSYN011333   58006
0115822800999991986022300004-02533-044283FM-12+005199999V0209991C00001045001CN0100001N9+02391+02261101031ADDAA106000091AG10999GF108991041051008001061999KA1240M+02681MA1999999100451MD1999999-0081REMSYN017333   10268 59008
0096822800999991986022318004-02533-044283FM-12+005199999V0203601N00311045001CN0100001N9+02901+02431100811ADDAA106000091AG10999GF105991031021004501061001MA1999999100241MD1999999-0071REMSYN011333   59007
0143822800999991986022400004-02533-044283FM-12+005199999V0200901N00101045001CN0100001N9+02311+02271101011ADDAA106014091AG10999AY161061AY261061GF108991041051004501021999KA1240M+02991MA1999999100431MD1999999-0021MW1021REMSYN023333   10299 59002 60141
0171822800999991986022412004-02533-044283FM-12+005199999V0200901N00101220001CN0100001N9+02731+02451100991ADDAA124019091AG10999AY161061AY261061GF104991041021004501001001KA1240N+02171MA1999999100411MD1999999-0071ME1310999MW1011REMSYN023333   20217 59007 60194EQDQ01+999990APOSLP
0135822800999991986022418004-02533-044283FM-12+005199999V0200701N00311045001CN0100001N9+02901+02431100741ADDAA106000291AA299000091AG10999AY161061AY261061GF105991031051004501031001MA1999999100161MD1999999-0081MW1031REMSYN017333   59008 69921
0096822800999991986022518004-02533-044283FM-12+005199999V0200501N00461045001CN0100001N9+02841+02381100621ADDAA106000091AG10999GF105991041021004501011001MA1999999100041MD1999999-0121REMSYN011333   59012
0115822800999991986022600004-02533-044283FM-12+005199999V0200501N00261045001CN0100001N9+02531+02341100771ADDAA106000091AG10999GF106991041021004501011001KA1240M+03021MA1999999100191MD1999999-0201REMSYN017333   10302 59020
0143822800999991986022612004-02533-044283FM-12+005199999V0200501N00311220001CN0100001N9+02741+02341100971ADDAA124003091AG10999AY161061AY261061GF104991041021004501001001KA1240N+02311MA1999999100391MD1999999-0101MW1021REMSYN023333   20231 59010 60034
0096822800999991986022618004-02533-044283FM-12+005199999V0200501N00511220001CN0100001N9+02901+02341100651ADDAA106000091AG10999GF104991041021004501001001MA1999999100071MD1999999+0031REMSYN011333   58003
0115822800999991986022700004-02533-044283FM-12+005199999V0200501N00151220001CN0100001N9+02501+02361100831ADDAA106000091AG10999GF103991021011008001011001KA1240M+03001MA1999999100251MD1999999+0061REMSYN017333   10300 58006
0143822800999991986022712004-02533-044283FM-12+005199999V0200901N00211220001CN0100001N9+02701+02411101091ADDAA124035091AG10999AY161061AY221061GF104991041021004501031021KA1240N+02201MA1999999100511MD1999999+0121MW1021REMSYN023333   20220 58012 60354
0124822800999991986022718004-02533-044283FM-12+005199999V0200901N00151045001CN0100001N9+02441+02251100771ADDAA106002091AG10999AY191061AY261061GF108991041081004501061999MA1999999100191MD1999999+0121MW1911REMSYN017333   58012 60021
0173822800999991986022800004-02533-044283FM-12+005199999V0201801N00101045001CN0100001N9+02461+02321101051ADDAA106000691AA299999999AG10999AY161061AY221061GF108991031061004501021999KA1240M+02851MA1999999100471MD1999999+0221MW1911REMSYN023333   10285 58022 69961EQDQ01  00002PRCP99
0129822800999991986022812004-02533-044283FM-12+005199999V0209991C00001045001CN0100001N9+02311+02221101221ADDAA124004091AG10999AY161061AY261061GF108991041081004501011999KA1240N+02151MA1999999100641MW1211REMSYN023333   20215 58818 60044
0124822800999991986022818004-02533-044283FM-12+005199999V0200501N002119999999N0100001N9+02591+02311101051ADDAA106000191AG10999AY161061AY261061GF108991041011008001999999MA1999999100471MD1999999+0281MW1911REMSYN017333   58028 69911
0143822800999991986030112004-02533-044283FM-12+005199999V0200501N00151004201CN0100001N9+02661+02431101661ADDAA124000591AG10999AY161061AY261061GF106991061051004501001001KA1240N+02211MA1999999100581MD1999999-0061MW1031REMSYN023333   20221 59006 69954
0115822800999991986030118004-02533-044283FM-12+005199999V0200501N00311004201CN0100001N9+02751+02341100862ADDAA106000091AG10999GF108991061051004501021999MA1999999100221MD1999999-0191REMSYN011333   59019EQDQ01+100863APOSLP
0143822800999991986030200004-02533-044283FM-12+005199999V0200501N00101045001CN0100001N9+02321+02241101171ADDAA106005091AG10999AY161061AY221061GF108991041051008001021999KA1240M+02891MA1999999100481MD1999999-0101MW1611REMSYN023333   10289 59010 60051
0143822800999991986030212004-02533-044283FM-12+005199999V0203201N00101004201CN0100001N9+02441+02351101201ADDAA124060091AG10999AY161061AY261061GF108991081061004501999999KA1240N+02191MA1999999100621MD1999999+0041MW1021REMSYN023333   20219 58004 60604
0124822800999991986030218004-02533-044283FM-12+005199999V0201401N00261004201CN0010001N9+02261+02231101031ADDAA106010091AG10999AY161061AY261061GF108991081071004501999999MA1999999100451MD1999999+0171MW1611REMSYN017333   58017 60101
0143822800999991986030300004-02533-044283FM-12+005199999V0209991C00001004201CN0009001N9+02221+02151101201ADDAA106009091AG10999AY161061AY261061GF108991081061004501999999KA1240M+02761MA1999999100621MD1999999+0161MW1021REMSYN023333   10276 58016 60091
0135822800999991986030318004-02533-044283FM-12+005199999V0203201N00151004201CN0100001N9+02501+02381101231ADDAA106000291AA299000391AG10999AY161061AY261061GF108991081061004501999999MA1999999100651MD1999999+0201MW1021REMSYN017333   58020 69921
0129822800999991986030400004-02533-044283FM-12+005199999V0209991C00001004201CN0010001N9+02321+02271101411ADDAA106040091AG10999AY161061AY261061GF108991081071004501999999KA1240M+02661MA1999999100831MW1601REMSYN023333   10266 58/22 60401
0143822800999991986030412004-02533-044283FM-12+005199999V0200901N00261045001CN0100001N9+02571+02331101451ADDAA124047091AG10999AY161061AY221061GF107991031061004501031011KA1240N+02261MA1999999100271MD1999999+0051MW1021REMSYN023333   20226 58005 60474
0096822800999991986030418004-02533-044283FM-12+005199999V0203601N00311045001CN0100001N9+02681+02281101121ADDAA106000091AG10999GF106991031011008001031011MA1999999100541MD1999999-0111REMSYN011333   59011
0154822800999991986030500004-02533-044283FM-12+005199999V0200501N00211220001CN0100001N9+02401+02231101351ADDAA106000291AA299000391AG10999AY161061AY221061GF102991011011008001001011KA1240M+02881MA1999999100761MD1999999-0071MW1011REMSYN023333   10288 59007 69921
0143822800999991986030512004-02533-044283FM-12+005199999V0200501N00151004201CN0100001N9+02271+02231101511ADDAA124024091AG10999AY161061AY261061GF108991061051004501999999KA1240N+02211MA1999999100921MD1999999+0051MW1611REMSYN023333   20221 58005 60244
0115822800999991986030600004-02533-044283FM-12+005199999V0202301N03191004201CN0100001N9+02451+02361101261ADDAA106000091AG10999GF108991061051004501021999KA1240M+02891MA1999999100681MD1999999-0081REMSYN017333   10289 59008
0143822800999991986030612004-02533-044283FM-12+005199999V0201401N00151045001CN0100001N9+02521+02361101291ADDAA124015091AG10999AY161061AY261061GF106991041051004501011001KA1240N+02221MA1999999100711MD1999999-0211MW1011REMSYN023333   20222 59021 60154
0135822800999991986030618004-02533-044283FM-12+005199999V0200501N00311045001CN0100001N9+02821+02461100901ADDAA106000291AA299000391AG10999AY161061AY261061GF105991031021004501011001MA1999999100321MD1999999-0141MW1021REMSYN017333   59014 69921
0115822800999991986030700004-02533-044283FM-12+005199999V0200501N00101220001CN0100001N9+02441+02341101051ADDAA106000091AG10001GF104991031011008001011001KA1240M+02881MA1999999100471MD1999999-0211REMSYN017333   10288 59021
0143822800999991986030712004-02533-044283FM-12+005199999V0200901N00361004201CN0100001N9+02801+02381101071ADDAA124001091AG10999AY161061AY261061GF105991051021004501001001KA1240N+02391MA1999999100491MD1999999-0221MW1011REMSYN023333   20239 59022 60014
0096822800999991986030718004-02533-044283FM-12+005199999V0200501N00511004201CN0100001N9+02881+02501100761ADDAA106000091AG10999GF106991061051004501001001MA1999999100181MD1999999-0041REMSYN011333   59004
0115822800999991986030800004-02533-044283FM-12+005199999V0200501N00101220001CN0100001N9+02461+02371101101ADDAA106000091AG10999GF103991031021004501001001KA1240M+02981MA1999999100521MD1999999+0051REMSYN017333   10298 58005
0143822800999991986030812004-02533-044283FM-12+005199999V0200901N00261045001CN0100001N9+02731+02411101231ADDAA124006091AG10999AY161061AY221061GF108991031021004501031011KA1240N+02391MA1999999100651MD1999999+0161MW1031REMSYN023333   20239 58016 60064
0118822800999991986030818004-02533-044283FM-12+005199999V0203601N00151045001CN0100001N9+02581+02421100971ADDAA106000091AG10999AY121061AY221061GF108991041081004501021999MA1999999100391MD1999999+0211MW1161REMSYN011333   58021
0143822800999991986030900004-02533-044283FM-12+005199999V0200501N00151045001CN0040001N9+02281+02251101361ADDAA106046091AG10999AY161061AY261061GF108991041071004501021999KA1240M+02901MA1999999100771MD1999999+0251MW1611REMSYN023333   10290 58025 60461
0143822800999991986030912004-02533-044283FM-12+005199999V0202701N00261045001CN0100001N9+02561+02311101351ADDAA124063091AG10999AY161061AY261061GF106991041051004501031001KA1240N+02231MA1999999100761MD1999999+0111MW1011REMSYN023333   20223 58011 60634
0124822800999991986030918004-02533-044283FM-12+005199999V0203601N00151009001CN0100001N9+02721+02281101071ADDAA106002091AG10999AY161061AY261061GF107991051081004501031001MA1999999100491MD1999999+0101MW1021REMSYN017333   58010 60021
0115822800999991986031000004-02533-044283FM-12+005199999V0209991C00001004201CN0100001N9+02441+02351101121ADDAA106000091AG10999GF108991061051004501021999KA1240M+02781MA1999999100541MD1999999-0231REMSYN017333   10278 59023
0121822800999991986031012004-02533-044283FM-12+005199999V0201401N00101045001CN0100001N9+02481+02391101321ADDAA124002091AG10999GF108991041051004501011999KA1240N+02291MA1999999100771MD1999999+0011REMSYN023333   20229 58001 60024
0124822800999991986031018004-02533-044283FM-12+005199999V0202301N00101004201CN0100001N9+02341+02221101121ADDAA106028091AG10999AY161061AY261061GF108991051061004501021999MA1999999100541MD1999999+0051MW1011REMSYN017333   58005 60281
0115822800999991986031100004-02533-044283FM-12+005199999V0209991C00001045001CN0100001N9+02281+02231101091ADDAA106000091AG10999GF105991021021004501011001KA1240M+02721MA1999999100511MD1999999-0031REMSYN017333   10272 59003
0132822800999991986031112004-02533-044283FM-12+005199999V0201401N00151004201CN0100001N9+02561+02461101191ADDAA106000091AA224028091AG10999GF105991051021004501001001KA1240N+02211MA1999999100611MD1999999-0161REMSYN023333   20221 59016 60284
0124822800999991986031118004-02533-044283FM-12+005199999V0203601N00261220001CN0100001N9+02841+02421100861ADDAA106005091AG10999AY161061AY261061GF104991021021004501031001MA1999999100281MD1999999-0261MW1011REMSYN017333   59026 60051
0134822800999991986031200004-02533-044283FM-12+005199999V0209991C000019999999N0100001N9+02481+02391103052ADDAA106000091AG10999GF105991999999008001999999KA1240M+02911MA1999999100471MD1999999-0041REMSYN017333   10291 59004EQDQ01+103053APOSLP
0143822800999991986031212004-02533-044283FM-12+005199999V0201801N00211045001CN0040001N9+02221+02151101341ADDAA124007091AG10999AY121061AY221061GF108991041071004501021999KA1240N+02201MA1999999100751MD1999999+0141MW1611REMSYN023333   20220 58014 60074
0124822800999991986031218004-02533-044283FM-12+005199999V0203601N00151045001CN0100001N9+02331+02251100981ADDAA106006091AG10999AY161061AY261061GF108991021011008001021999MA1999999100401MD1999999+0121MW1911REMSYN017333   58012 60061
0115822800999991986031300004-02533-044283FM-12+005199999V0209991C00001045001CN0100001N9+02341+02291101211ADDAA106000091AG10999GF108991031061008001011999KA1240M+02791MA1999999100631MD1999999+0161REMSYN017333   10279 58016
0143822800999991986031312004-02533-044283FM-12+005199999V0203601N00101004201CN0100001N9+02431+02271101271ADDAA124047091AG10999AY161061AY261061GF108991061021004501999999KA1240N+02151MA1999999100681MD1999999-0071MW1031REMSYN023333   20215 59007 60474
0096822800999991986031318004-02533-044283FM-12+005199999V0203201N00151004201CN0100001N9+02621+02291100931ADDAA106000091AG10999GF108991061051004501021999MA1999999100351MD1999999-0051REMSYN011333   59005
0115822800999991986031400004-02533-044283FM-12+005199999V0200501N00101045001CN0100001N9+02401+02261101121ADDAA106000091AG10999GF107991041011004501021001KA1240M+03631MA1999999100541MD1999999-0091REMSYN017333   10363 59009
0115822800999991986031412004-02533-044283FM-12+005199999V0200501N00261004201CN0100001N9+02721+02261101191ADDAA106000091AG10999GF105991051021004501001001KA1240N+02181MA1999999100611MD1999999-0071REMSYN017333   20218 59007
0096822800999991986031418004-02533-044283FM-12+005199999V0203601N00311045001CN0100001N9+02841+02381100861ADDAA106000091AG10999GF106991041021004501011001MA1999999100281MD1999999-0071REMSYN011333   59007
0115822800999991986031500004-02533-044283FM-12+005199999V0209991C00001220001CN0100001N9+02461+02371101091ADDAA106000091AG10999GF103991031021004501001001KA1240M+02961MA1999999100511MD1999999-0031REMSYN017333   10296 59003
0134822800999991986031512004-02533-044283FM-12+005199999V0200501N00311004201CN0100001N9+02801+02311101151ADDAA106000091AG10999GF105991051021004501001001KA1240N+02371MA1999999999999MD1999999-0041REMSYN017333   20237 59004EQDQ01 090573APOSP 
0115822800999991986031518004-02533-044283FM-12+005199999V0200501N00311004201CN0100001N9+02661+02391100931ADDAA106000091AG10999GF107991061051004501011001MA1999999100352MD1999999+0071REMSYN011333   58007EQDQ01+100353APOSP 
0143822800999991986031600004-02533-044283FM-12+005199999V0200501N00151220001CN0100001N9+02401+02351100921ADDAA106002091AG10999AY161061AY261061GF103991031021004501001001KA1240M+02961MA1999999100731MD1999999-0141MW1011REMSYN023333   10296 59014 60021
0124822800999991986031618004-02533-044283FM-12+005199999V0203601N00151045001CN0100001N9+02741+02321100911ADDAA106000191AG10999AY161061AY261061GF107991041051004501021001MA1999999100331MD1999999-0021MW1021REMSYN017333   59002 69911
0143822800999991986031700004-02533-044283FM-12+005199999V0209991C00001220001CN0100001N9+02361+02281101141ADDAA106000191AG10999AY191061AY261061GF103991011011008001031011KA1240M+02941MA1999999100561MD1999999+0211MW1011REMSYN023333   10294 58021 69911
0143822800999991986031712004-02533-044283FM-12+005199999V0203601N00151004201CN0100001N9+02241+02211101411ADDAA124046091AG10999AY161061AY261061GF108991061051004501021999KA1240N+02211MA1999999100821MD1999999+0221MW1611REMSYN023333   20221 58022 60464
0131822800999991986031718004-02533-044283FM-12+005199999V0202301N99999045001CN0100001N9+02821+02201101021ADDAA106000091AG10999GF107991031051017501041001MA1999999100441MD1999999+0111REMSYN011333   58011EQDQ01+004273WOSPD Q020004273WOSPD 
0154822800999991986031800004-02533-044283FM-12+005199999V0200901N00101004201CN0100001N9+02431+02411101141ADDAA106000491AA299000591AG10999AY161061AY261061GF108991061051004501021999KA1240M+02951MA1999999100561MD1999999+0001MW1031REMSYN023333   10295 58000 69941
0132822800999991986031812004-02533-044283FM-12+005199999V0200901N00151007501CN0049001N9+02631+02331101261ADDAA106000091AA224000491AG10999GF105991051021008001001001KA1240N+02171MA1999999100681MD1999999-0141REMSYN023333   20217 59014 69944
0096822800999991986031818004-02533-044283FM-12+005199999V0203601N00311004201CN0100001N9+02801+02381101041ADDAA106000091AG10999GF106991061021004501001001MA1999999100461MD1999999+0021REMSYN011333   58002
0115822800999991986031900004-02533-044283FM-12+005199999V0200501N00151004201CN0100001N9+02541+02441101131ADDAA106000091AG10999GF106991061021004501001001KA1240M+02951MA1999999100551MD1999999-0011REMSYN017333   10295 59001
0143822800999991986031912004-02533-044283FM-12+005199999V0200901N00311045001CN0100001N9+02741+02401101251ADDAA124010091AG10999AY161061AY261061GF106991041021004501011001KA1240N+02351MA1999999100671MD1999999-0011MW1011REMSYN023333   20235 59001 60104
0115822800999991986032000004-02533-044283FM-12+005199999V0203601N00151004201CN0100001N9+02421+02351101111ADDAA106000091AG10999GF108991051061004501021999KA1240M+02901MA1999999100531MD1999999-0031REMSYN017333   10290 59003
0124822800999991986032018004-02533-044283FM-12+005199999V0200501N00261045001CN0100001N9+02471+02381100961ADDAA106011091AG10999AY161061AY281061GF108991031051008001071999MA1999999100381MD1999999+0011MW1021REMSYN017333   58001 60111
0115822800999991986032100004-02533-044283FM-12+005199999V0209991C00001045001CN0100001N9+02401+02371101161ADDAA106000091AG10999GF108991031041008001061999KA1240M+02771MA1999999100581MD1999999+0051REMSYN017333   10277 58005
0143822800999991986032112004-02533-044283FM-12+005199999V0200501N00151004201CN0100001N9+02701+02451101161ADDAA124011091AG10999AY161061AY261061GF106991061051004501001001KA1240N+02251MA1999999100581MD1999999-0031MW1031REMSYN023333   20225 59003 60114
0096822800999991986032118004-02533-044283FM-12+005199999V0200501N00101045001CN0100001N9+02811+02401100781ADDAA106000091AG10999GF106991031051004501021001MA1999999100201MD1999999-0181REMSYN011333   59018
0143822800999991986032200004-02533-044283FM-12+005199999V0201801N00101004201CN0100001N9+02451+02431101081ADDAA106008091AG10999AY161061AY261061GF108991061051004501061999KA1240M+02921MA1999999100501MD1999999-0081MW1031REMSYN023333   10292 59008 60081
0143822800999991986032212004-02533-044283FM-12+005199999V0200501N00311004201CN0100001N9+02601+02461101251ADDAA124040091AG10999AY161061AY261061GF106991051021004501011001KA1240N+02301MA1999999100671MD1999999+0091MW1011REMSYN023333   20230 58009 60404
0124822800999991986032218004-02533-044283FM-12+005199999V0203601N00361045001CN0100001N9+02801+02341100861ADDAA106002091AG10999AY161061AY261061GF108991041021004501011001MA1999999100281MD1999999+0021MW1011REMSYN017333   58002 60021
0115822800999991986032300004-02533-044283FM-12+005199999V0209991C00001220001CN0100001N9+02441+02351101131ADDAA106000091AG10999GF104991041021004501001001KA1240M+02891MA1999999100551MD1999999+0051REMSYN017333   10289 58005
0124822800999991986032318004-02533-044283FM-12+005199999V0203601N00261004201CN0100001N9+02701+02411101041ADDAA199003091AG10999AY161061AY261061GF108991061051004501011999MA1999999100481MD1999999+0201MW1011REMSYN017333   58020 60030
0115822800999991986032400004-02533-044283FM-12+005199999V0209991C00001045001CN0100001N9+02461+02391101181ADDAA106000091AG10999GF105991021051004501031001KA1240M+02901MA1999999100601MD1999999-0051REMSYN017333   10290 59005
0143822800999991986032412004-02533-044283FM-12+005199999V0200901N00151045001CN0100001N9+02701+02431101321ADDAA124004091AG10999AY161061AY221061GF106991031061004501031011KA1240N+02291MA1999999100741MD1999999+0051MW1011REMSYN023333   20229 58005 60044
0159822800999991986032418004-02533-044283FM-12+005199999V0203601N00361045001CN0100001N9+02821+02311100931ADDAA106000591AG10999AY161061AY221061GF106991031081004501061011MA1999999100351MD1999999-0131MW1021REMSYN017333   59013 69951EQDQ01+090013APOSP Q02+999990APOSP 
0143822800999991986032500004-02533-044283FM-12+005199999V0203601N00151007501CN0100001N9+02441+02321101121ADDAA106002091AG10999AY161061AY221061GF108991081051008001999999KA1240M+02951MA1999999100541MD1999999-0061MW1021REMSYN023333   10295 59006 60021
0143822800999991986032512004-02533-044283FM-12+005199999V0203201N00151004201CN0100001N9+02311+02271101261ADDAA124045091AG10999AY161061AY261061GF108991061051004501021999KA1240N+02301MA1999999100671MD1999999-0071MW1611REMSYN023333   20230 59007 60454
0124822800999991986032518004-02533-044283FM-12+005199999V0203601N00101004201CN0040001N9+02461+02301101031ADDAA106049091AG10001AY161061AY261061GF108991061051004501061999MA1999999100451MD1999999+0101MW1611REMSYN017333   58010 60491
0154822800999991986032600004-02533-044283FM-12+005199999V0202701N001019999999N0100001N9+02321+02231101121ADDAA106000291AA299000391AG10999AY161061AY261061GF108991061051999999061999KA1240M+02481MA1999999100551MD1999999+0011MW1021REMSYN023333   10248 58001 69921
0178822800999991986032612004-02533-044283FM-12+005199999V0202301N00101004201CN0100001N9+02461+02431101201ADDAA124099091AG10999AY161061AY261061GF108991061051004501011999KA1240N+02211MA1999999100611MD1999999-0051MW1011REMSYN023333   20221 59005 60994EQDQ01+015621APOSP Q02+999990APOSP 
0096822800999991986032618004-02533-044283FM-12+005199999V0203601N00101004201CN0100001N9+02781+02501100881ADDAA106000091AG10999GF108991061051004501011999MA1999999100301MD1999999-0151REMSYN011333   59015
0115822800999991986032700004-02533-044283FM-12+005199999V0201401N00101004201CN0100001N9+02521+02451101111ADDAA106000091AG10999GF108991061051004501011999KA1240M+02891MA1999999100531MD1999999+0021REMSYN017333   10289 58002
0143822800999991986032712004-02533-044283FM-12+005199999V0201401N00151045001CN0100001N9+02661+02441101191ADDAA124013091AG10999AY161061AY261061GF106991041021004501011001KA1240N+02271MA1999999100611MD1999999-0011MW1011REMSYN023333   20227 59001 60134
0085822800999991986032718004-02533-044283FM-12+005199999V0203601N00311045001CN0100001N9+02701+02411100891ADDAG10999GF107991041051004501011001MA1999999100311MD1999999+0011REMSYN011333   58001
0115822800999991986032800004-02533-044283FM-12+005199999V0209991C00001045001CN0100001N9+02461+02411101221ADDAA106000091AG10999GF106991041021004501011001KA1240M+02901MA1999999100241MD1999999+0111REMSYN017333   10290 58011
0143822800999991986032812004-02533-044283FM-12+005199999V0200501N00211004201CN0100001N9+99999+99999101291ADDAA124013091AG10999AY161061AY221061GF107991051071004501061011KA1240N+02351MA1999999100711MD1999999+0101MW1021REMSYN023333   20235 58010 60134
0124822800999991986032918004-02533-044283FM-12+005199999V0203601N00261045001CN0100001N9+02871+02481100971ADDAA106002091AG10999AY161061AY261061GF107991041051004501021001MA1999999100391MD1999999-0061MW1021REMSYN017333   59006 60021
0154822800999991986033000004-02533-044283FM-12+005199999V0200501N00101004201CN0100001N9+02471+02451101161ADDAA106000791AA299001091AG10999AY161061AY261061GF108991061051004501021999KA1240M+02881MA1999999100581MD1999999-0041MW1611REMSYN023333   10288 59004 69971
0143822800999991986033012004-02533-044283FM-12+005199999V0200901N00051004201CN0100001N9+02541+02451101191ADDAA124019091AG10999AY161061AY261061GF108991061051004501011999KA1240N+02291MA1999999100611MD1999999-0111MW1011REMSYN023333   20229 59011 60194
0096822800999991986033018004-02533-044283FM-12+005199999V0203601N00311045001CN0100001N9+02821+02381100881ADDAA106000091AG10999GF105991041021004501011001MA1999999100301MD1999999-0071REMSYN011333   59007
0134822800999991986033100004-02533-044283FM-12+005199999V0209991C00001220001CN0100001N9+02481+02411101111ADDAA106000091AG10999GF103991031021999999001001KA1240M+02901MA1999999100531MD1999999-0031REMSYN017333   10290 59003EQDQ01+000992SCOLCB
0143822800999991986033112004-02533-044283FM-12+005199999V0200901N00261004201CN0100001N9+02581+02461101151ADDAA199003091AG10999AY161061AY261061GF108991061061004501021999KA1240N+02311MA1999999100571MD1999999-0041MW1141REMSYN023333   20231 59004 60030
0148822800999991986033118004-02533-044283FM-12+005199999V0200501N00211004201CN0100001N9+02571+02401100941ADDAA106000291AA299000391AG10999AY161061AY261061GF108991061071004501021999MA1999999100361MD1999999+0061REMSYN017333   58006 69921EQDQ01+000262PRSWM1
0173822800999991986040100004-02533-044283FM-12+005199999V0200901N001019999999N0100001N9+02391+02351101091ADDAA106000191AA299999999AG10999AY161061AY261061GF106991041061004501999999KA1240M+02631MA1999999100511MD1999999-0021MW1911REMSYN023333   10263 59002 69911EQDQ01  00002PRCP99
0121822800999991986040112004-02533-044283FM-12+005199999V0200901N00211105001CN0100001N9+02661+02371101151ADDAA124001091AG10999GF105991021011008001031031KA1240N+02301MA1999999100571MD1999999+0061REMSYN023333   20230 58006 60014
0135822800999991986040118004-02533-044283FM-12+005199999V0203601N00261045001CN0100001N9+02821+02441100781ADDAA106000491AA299000591AG10999AY161061AY221061GF106991021021004501061011MA1999999100201MD1999999-0161MW1031REMSYN017333   59016 69941
0115822800999991986040200004-02533-044283FM-12+005199999V0200501N00151220001CN0100001N9+02421+02411101001ADDAA106000091AG10999GF102991021021004501001001KA1240M+02901MA1999999100421MD1999999-0091REMSYN017333   10290 59009
0143822800999991986040212004-02533-044283FM-12+005199999V0209991C00001004201CN0040001N9+02551+02401101171ADDAA124011091AG10999AY161061AY261061GF108991051071004501021999KA1240N+02321MA1999999100591MD1999999+0021MW1911REMSYN023333   20232 58002 60114
0124822800999991986040218004-02533-044283FM-12+005199999V0200501N00151004201CN0100001N9+02611+02391100951ADDAA106018091AG10999AY161061AY261061GF108991061061004501021999MA1999999100341MD1999999+0171MW1161REMSYN017333   58017 60181
0130822800999991986040312004-02533-044283FM-12+005199999V0209991C00001004201CN0020001N9+02381+02351101251ADDAA124044091AG10999AY161061AY261061GF108991081071004501999999MA1999999100671MD1999999+0081MW1601REMSYN023333   0229/ 58008 60444
0124822800999991986040318004-02533-044283FM-12+005199999V0200501N00101004201CN0100001N9+02501+02401100911ADDAA106001091AG10999AY161061AY261061GF108991081061004501999999MA1999999100331MD1999999-0041MW1011REMSYN017333   59004 60011
0143822800999991986040400004-02533-044283FM-12+005199999V0200501N00151004201CN0100001N9+02441+02371101081ADDAA106001091AG10999AY161061AY261061GF108991081061004501999999KA1240M+02861MA1999999100501MD1999999-0041MW1011REMSYN023333   10286 59004 60011
0143822800999991986040412004-02533-044283FM-12+005199999V0200901N00151045001CN0100001N9+02701+02431101081ADDAA124002091AG10999AY161061AY261061GF105991041021004501011001KA1240N+02311MA1999999100501MD1999999-0141MW1011REMSYN023333   20231 59014 60024
0096822800999991986040418004-02533-044283FM-12+005199999V0200501N00261004201CN0100001N9+02841+02351100741ADDAA106000091AG10999GF106991051021004501011001MA1999999100161MD1999999-0171REMSYN011333   59017
0115822800999991986040500004-02533-044283FM-12+005199999V0209991C00001220001CN0100001N9+02481+02411100951ADDAA106000091AG10999GF104991041021004501001001KA1240M+03041MA1999999100371MD1999999-0131REMSYN017333   10304 59013
0115822800999991986040512004-02533-044283FM-12+005199999V0200501N00211045001CN0100001N9+02841+02521101011ADDAA106000091AG10999GF106991041021008001061001KA1240N+02361MA1999999100431MD1999999-0071REMSYN017333   20236 59007
0096822800999991986040518004-02533-044283FM-12+005199999V0203601N00101045001CN0100001N9+02771+02401100711ADDAA106000091AG10999GF107991041061004501061001MA1999999100131MD1999999-0031REMSYN011333   59003
0115822800999991986040600004-02533-044283FM-12+005199999V0200901N00101045001CN0100001N9+02441+02351100961ADDAA106000091AG10001GF106991041061004501061001KA1240M+03101MA1999999100381MD1999999+0011REMSYN017333   10310 58001
0115822800999991986040612004-02533-044283FM-12+005199999V0200901N00211045001CN0100001N9+02781+02461101101ADDAA106000091AG10999GF106991041021004501061011KA1240N+02391MA1999999100521MD1999999+0091REMSYN017333   20239 58009
0124822800999991986040618004-02533-044283FM-12+005199999V0200501N00261045001CN0100001N9+02431+02371100741ADDAA106011091AG10999AY161061AY221061GF107991031081004501021011MA1999999100161MD1999999+0031MW1021REMSYN017333   58003 60111
0143822800999991986040700004-02533-044283FM-12+005199999V0209999999999220001CN0100001N9+02481+02461101081ADDAA106003091AG10999AY161061AY231061GF104991031011008001031011KA1240M+02981MA1999999100501MD1999999+0121MW1001REMSYN023333   10298 58012 60031
0162822800999991986040712004-02533-044283FM-12+005199999V0203601N00101012001CN0100001N9+02521+02441101121ADDAA124013091AG10999AY161061AY221061GF108991999021012501001001KA1240N+02361MA1999999100541MD1999999+0021MW1031REMSYN023333   20236 58002 60134EQDQ01+000052SCOTLC
0159822800999991986040718004-02533-044283FM-12+005199999V0209991C00001105001CN0100001N9+02671+02421100801ADDAA106035091AG10999AY191061AY261061GF106991021041004501061061MA1999999100221MD1999999+0061MW1021REMSYN017333   58006 60351EQDQ01+098223APOSP Q02+999990APOSP 
0154822800999991986040800004-02533-044283FM-12+005199999V0200901N00101045001CN0100001N9+02471+02431101111ADDAA106000291AA299000391AG10999AY161061AY221061GF107991021041004501061011KA1240M+02971MA1999999100531MD1999999+0031MW1021REMSYN023333   10297 58003 69921
0143822800999991986040812004-02533-044283FM-12+005199999V0200901N00151045001CN0100001N9+02701+02431101751ADDAA124046091AG10999AY161061AY261061GF106991041021004501011001KA1240N+02331MA1999999100571MD1999999+0031MW1011REMSYN023333   20233 58003 60464
0115822800999991986040818004-02533-044283FM-12+005199999V0203601N00261045001CN0100001N9+02801+02441100752ADDAA106000091AG10999GF106991041021004501011001MA1999999100171MD1999999-0051REMSYN011333   59005EQDQ01+100753APOSLP
0143822800999991986040912004-02533-044283FM-12+005199999V0201801N00101004201CN0100001N9+02581+02481101181ADDAA124008091AG10999AY161061AY261061GF106991051021004501011001KA1240N+02311MA1999999100601MD1999999+0031MW1021REMSYN023333   20231 58003 60084
0143822800999991986041000004-02533-044283FM-12+005199999V0200501N00101220001CN0100001N9+02441+02391101031ADDAA106009091AG10999AY161061AY221061GF104991041011004501001001KA1240M+02971MA1999999100451MD1999999-0021MW1021REMSYN023333   10297 59002 60091
0143822800999991986041012004-02533-044283FM-12+005199999V0201401N00151004201CN0100001N9+02671+02431101151ADDAA124047091AG10001AY161061AY261061GF106991061061004501001001KA1240N+02201MA1999999100171MD1999999-0831MW1031REMSYN023333   20220 59083 60474
0124822800999991986041018004-02533-044283FM-12+005199999V0203601N00151045001CN0100001N9+02421+02391100831ADDAA106012091AG10999AY161061AY261061GF108991041081004501021999MA1999999100261MD1999999-0021MW1911REMSYN017333   59002 60121
0115822800999991986041100004-02533-044283FM-12+005199999V0200901N00101045001CN0100001N9+02321+02251101061ADDAA106000091AG10999GF107991041081008001061999KA1240M+02861MA1999999100481MD1999999+0031REMSYN017333   10286 58003
0135822800999991986041118004-02533-044283FM-12+005199999V0203601N00311004201CN0100001N9+02681+02481100901ADDAA106000291AA299000391AG10999AY161061AY221061GF107991051071004501061001MA1999999100321MD1999999+0061MW1911REMSYN017333   58006 69921
0143822800999991986041200004-02533-044283FM-12+005199999V0200901N00151220001CN0100001N9+02411+02331101161ADDAA106000191AG10999AY161061AY221061GF103991011011008001031001KA1240M+02961MA1999999100581MD1999999+0101MW1011REMSYN023333   10296 58010 69911
0143822800999991986041212004-02533-044283FM-12+005199999V0200901N00261045001CN0100001N9+02761+02441101251ADDAA124043091AG10999AY161061AY221061GF106991041021004501031011KA1240N+02201MA1999999100701MD1999999+0051MW1021REMSYN023333   20220 58005 60434
0135822800999991986041218004-02533-044283FM-12+005199999V0200501N00311045001CN0100001N9+02811+02441100961ADDAA106000291AA299000391AG10999AY161061AY221061GF108991041051008001031021MA1999999100381MD1999999+0061MW1031REMSYN017333   58006 69921
0115822800999991986041300004-02533-044283FM-12+005199999V0200501N00311220001CN0100001N9+02451+02381101101ADDAA106000091AG10999GF102991021011008001001001KA1240M+02921MA1999999100521MD1999999-0061REMSYN017333   10292 59006
0143822800999991986041312004-02533-044283FM-12+005199999V0200501N00261004201CN0100001N9+02841+02091101151ADDAA124008091AG10999AY161061AY261061GF106991061021004501001001KA1240N+02341MA1999999100571MD1999999-0101MW1011REMSYN023333   20234 59010 60084
0096822800999991986041318004-02533-044283FM-12+005199999V0203601N00311045001CN0100001N9+02841+02421100811ADDAA106000091AG10999GF106991041021004501011001MA1999999100231MD1999999-0151REMSYN011333   59015
0143822800999991986041400004-02533-044283FM-12+005199999V0200501N00261045001CN0020001N9+02501+02401100971ADDAA106006091AG10999AY161061AY261061GF106991041071004501011001KA1240M+02881MA1999999100391MD1999999-0111MW1601REMSYN023333   10288 59011 60061
0143822800999991986041412004-02533-044283FM-12+005199999V0200501N00211220001CN0100001N9+02631+02411101051ADDAA124020091AG10999AY161061AY261061GF104991041021004501001001KA1240N+02311MA1999999100471MD1999999-0101MW1021REMSYN023333   20231 59010 60204
0131822800999991986041418004-02533-044283FM-12+005199999V0203601N00311004201CN0100001N9+02801+02421100761ADDAA106000091AG10999GF105991051021004501001001MA1999999100181MD1999999-0051REMSYN011333   59005EQDQ01+108763APOSLPQ02+999990APOSLP
0143822800999991986041500004-02533-044283FM-12+005199999V0209991C00001220001CN0100001N9+02441+02341100931ADDAA106001091AG10999AY161061AY261061GF103991031021004501001001KA1240M+02851MA1999999100351MD1999999-0041MW1011REMSYN023333   10285 59004 60011
0121822800999991986041512004-02533-044283FM-12+005199999V0201401N00151045001CN0100001N9+02691+02391101071ADDAA124002091AG10999GF106991041081008001061001KA1240N+02351MA1999999100491MD1999999+0021REMSYN023333   20235 58002 60024
0093822800999991986041518004-02533-044283FM-12+005199999V0203601N00101045001CN0100001N9+02821+02521100771ADDAG10999AY161061AY261061GF106991041051004501031001MA1999999100191MW1021REMSYN011333   8001/
0143822800999991986041600004-02533-044283FM-12+005199999V0209991C00001004201CN0009001N9+02451+02411101031ADDAA112099091AG10999AY161061AY261061GF108991061051004501999999KA1240M+02931MA1999999100451MD1999999+0101MW1031REMSYN023333   10293 58010 60992
0143822800999991986041612004-02533-044283FM-12+005199999V0200901N00151000601CN0049001N9+02741+02501101221ADDAA124017091AG10999AY161061AY221061GF107991051021000751031001KA1240N+02381MA1999999100641MD1999999+0151MW1031REMSYN023333   20238 58015 60174
0096822800999991986041618004-02533-044283FM-12+005199999V0203601N00311045001CN0100001N9+02861+02481100811ADDAA106000091AG10999GF107991031011008001011021MA1999999100231MD1999999+0041REMSYN011333   58004
0115822800999991986041700004-02533-044283FM-12+005199999V0200901N00151045001CN0100001N9+02461+02391101151ADDAA106000091AG10999GF107991021011008001011021KA1240M+03031MA1999999100571MD1999999+0121REMSYN017333   10303 58012
0143822800999991986041712004-02533-044283FM-12+005199999V0209991C00001004201CN0100001N9+02371+02251101221ADDAA124072091AG10999AY161061AY261061GF108991061051004501031001KA1240N+02331MA1999999100641MD1999999+0051MW1611REMSYN023333   20233 58005 60724
0124822800999991986041718004-02533-044283FM-12+005199999V0203601N00151004201CN0100001N9+02651+02441100831ADDAA106000391AG10999AY161061AY261061GF108991071051004501061999MA1999999100251MD1999999+0021MW1031REMSYN017333   58002 69931
0143822800999991986041812004-02533-044283FM-12+005199999V0201401N00151045001CN0100001N9+02701+02391101051ADDAA124024091AG10999AY161061AY261061GF106991041021004501031001KA1240N+02351MA1999999100481MD1999999-0161MW1011REMSYN023333   20235 59016 60244
0096822800999991986041818004-02533-044283FM-12+005199999V0200501N00261004201CN0100001N9+02641+02501100771ADDAA106000091AG10999GF108991051061004501011999MA1999999100191MD1999999-0061REMSYN011333   59006
0143822800999991986041900004-02533-044283FM-12+005199999V0209991C000019999999N0020001N9+02301+02231101031ADDAA106013091AG10999AY161061AY261061GF108991081041999999999999KA1240M+03021MA1999999100451MD1999999-0121MW1611REMSYN023333   10302 59012 60131
0143822800999991986041912004-02533-044283FM-12+005199999V0209991C00001004201CN0020001N9+02301+02251101181ADDAA124068091AG10999AY161061AY261061GF108991081071004501999999KA1240N+02191MA1999999100601MD1999999+0121MW1601REMSYN023333   20219 58012 60684
0135822800999991986041918004-02533-044283FM-12+005199999V0202701N00101004201CN0100001N9+02601+02461100951ADDAA106000291AA299000391AG10999AY161061AY261061GF108991061051004501021999MA1999999100371MD1999999+0181MW1021REMSYN017333   58018 69921
0115822800999991986042000004-02533-044283FM-12+005199999V0201401N00101045001CN0100001N9+02441+02391101151ADDAA106000091AG10999GF106991041051004501031001KA1240M+02601MA1999999100571MD1999999+0121REMSYN017333   10260 58012
0118822800999991986042012004-02533-044283FM-12+005199999V0200901N00101045001CN0100001N9+02701+02451101751ADDAA124000291AA299000391AG10999GF106991031081008001061001KA1240N+02261MA1999999100571REMSYN023333   20226 58900 69924
0096822800999991986042018004-02533-044283FM-12+005199999V0203601N00151004201CN0100001N9+02741+02471100971ADDAA106000091AG10999GF106991061061004501061001MA1999999100391MD1999999+0021REMSYN011333   58002
0154822800999991986042100004-02533-044283FM-12+005199999V0209991C00001045001CN0100001N9+02421+02371101211ADDAA106000891AA299001091AG10999AY161061AY261061GF106991041081004501061001KA1240M+02941MA1999999100631MD1999999+0031MW1031REMSYN023333   10294 58003 69981
0143822800999991986042112004-02533-044283FM-12+005199999V0200901N00151004201CN0100001N9+02621+02571101311ADDAA124052091AG10999AY191061AY261061GF107991061071004501031001KA1240N+02301MA1999999100731MD1999999+0161MW1011REMSYN023333   20230 58016 60524
0096822800999991986042118004-02533-044283FM-12+005199999V0203601N00261105001CN0100001N9+02761+02381100991ADDAA106000091AG10999GF106991021011008001051061MA1999999100411MD1999999+0021REMSYN011333   58002
0115822800999991986042200004-02533-044283FM-12+005199999V0209991C00001045001CN0100001N9+02421+02331101211ADDAA106000091AG10999GF108991011011008001031071KA1240M+02971MA1999999100631MD1999999+0001REMSYN017333   10297 58000
0171822800999991986042212004-02533-044283FM-12+005199999V0200901N00151004201CN0100001N9+02541+02451101241ADDAA124006091AG10999AY161061AY261061GF108991051021004501021999KA1240N+02371MA1999999100651MD1999999-0061ME1311129MW1021REMSYN023333   20237 59006 60064EQDQ01+999990APOSLP
0096822800999991986042218004-02533-044283FM-12+005199999V0203601N00311045001CN0100001N9+02881+02411100841ADDAA106000091AG10999GF107991031051004501021011MA1999999100261MD1999999-0151REMSYN011333   59015
0143822800999991986042300004-02533-044283FM-12+005199999V0200501N00151004201CN0100001N9+02481+02371101131ADDAA106091091AG10999AY161061AY261061GF108991061051004501061999KA1240M+02721MA1999999100551MD1999999-0081MW1031REMSYN023333   10272 59008 60911
0143822800999991986042312004-02533-044283FM-12+005199999V0203201N00211004201CN0100001N9+02641+02441101241ADDAA124017091AG10999AY161061AY261061GF108991081051004501999999KA1240N+02181MA1999999100661MD1999999-0011MW1021REMSYN023333   20218 59001 60174
0124822800999991986042318004-02533-044283FM-12+005199999V0200501N00151045001CN0100001N9+99999+99999100861ADDAA106020091AG10999AY161061AY261061GF106991041021004501011001MA1999999100281MD1999999+0021MW1011REMSYN017333   58002 60201
0115822800999991986042400004-02533-044283FM-12+005199999V0209991C00001004201CN0100001N9+02461+02411101001ADDAA106000091AG10999GF106991061051004501001001KA1240M+02701MA1999999100511MD1999999+0001REMSYN017333   10270 58000
0121822800999991986042412004-02533-044283FM-12+005199999V0200501N00151004201CN0100001N9+02701+02431101181ADDAA124020091AG10999GF106991051021004501011001KA1240N+02351MA1999999100601MD1999999-0061REMSYN023333   20235 59006 60204
0124822800999991986042418004-02533-044283FM-12+005199999V0200801N00411045001CN0100001N9+02601+02511100851ADDAA106002091AG10999AY161061AY261061GF106991041051004501011001MA1999999100271MD1999999-0011MW1211REMSYN017333   59001 60021
0143822800999991986042500004-02533-044283FM-12+005199999V0203201N00151004201CN9999999N9+02341+02321101091ADDAA106061091AG10999AY161061AY261061GF108991081071004501999999KA1240M+02801MA1999999100511MD1999999+0001MW1621REMSYN023333   10280 58000 60611
0124822800999991986042518004-02533-044283FM-12+005199999V0209991C00001009001CN0100001N9+02611+02441100971ADDAA106002091AG10999AY121061AY261061GF107991061081004501061001MA1999999100361MD1999999+0091MW1201REMSYN017333   58009 60021
0115822800999991986042600004-02533-044283FM-12+005199999V0209991C00001220001CN0100001N9+02391+02371101071ADDAA106000091AG10999GF103991031021008001001001KA1240M+02971MA1999999100491MD1999999-0021REMSYN017333   10297 59002
0143822800999991986042612004-02533-044283FM-12+005199999V0200901N00101045001CN0100001N9+02571+02441101261ADDAA124002091AG10999AY161061AY261061GF107991041051004501061001KA1240N+02231MA1999999100681MD1999999+0011MW1021REMSYN023333   20223 58001 60024
0096822800999991986042618004-02533-044283FM-12+005199999V0203601N00311045001CN0100001N9+02871+02411100861ADDAA106000091AG10999GF106991021051004501031011MA1999999100221MD1999999-0081REMSYN011333   59008
0115822800999991986042700004-02533-044283FM-12+005199999V0200901N00101220001CN0100001N9+02441+02371101031ADDAA106000091AG10999GF103991011011004501001011KA1240M+02771MA1999999100451MD1999999-0041REMSYN017333   10277 59004
0154822800999991986042712004-02533-044283FM-12+005199999V0200901N00151045001CN0100001N9+02741+02471101121ADDAA124000291AA299000391AG10999AY161061AY261061GF107991021051004501031011KA1240N+02401MA1999999100541MD1999999-0141MW1021REMSYN023333   20240 59014 69924
0096822800999991986042718004-02533-044283FM-12+005199999V0200501N00311045001CN0100001N9+02871+02541100771ADDAA106000091AG10999GF106991031051004501061001MA1999999100191MD1999999-0091REMSYN011333   59009
0143822800999991986042812004-02533-044283FM-12+005199999V0200901N00151045001CN0100001N9+02701+02591101221ADDAA124004091AG10999AY161061AY261061GF106991041021004501011001KA1240N+02391MA1999999100641MD1999999+0101MW1021REMSYN023333   20239 58010 60044
0096822800999991986042818004-02533-044283FM-12+005199999V0203601N00211045001CN0100001N9+02821+02461100891ADDAA106000091AG10999GF106991041051004501011001MA1999999100311MD1999999+0121REMSYN011333   58012
0191822800999991986042900004-02533-044283FM-12+005199999V0202501N001519999999N0100001N9+02561+02491101131ADDAA106999999AG10999AY161061AY261061GF107991999021004501001001KA1240M+02981MA1999999100551MD1999999+0081MW1021REMSYN036333   10298 58008 69041   = 43  3559EQDQ01+000042SCOTLCQ02  90402PRCP06
0143822800999991986042912004-02533-044283FM-12+005199999V0200501N00211004201CN0100001N9+02701+02651101221ADDAA124004091AG10999AY161061AY261061GF108991061051004501021999KA1240N+02391MA1999999100641MD1999999+0001MW1011REMSYN023333   20239 58000 60044
0124822800999991986042918004-02533-044283FM-12+005199999V0209991C00001004201CN0100001N9+02601+02551100951ADDAA106019091AG10999AY161061AY261061GF108991081061004501999999MA1999999100371MD1999999+0061MW1011REMSYN017333   58006 60191
0154822800999991986043000004-02533-044283FM-12+005199999V0209999999999015001CN0100001N9+02461+02431101111ADDAA106010091AG10999AY161061GF108991081061017501999999KA1240M+02821MA1999999100551MD1999999+0001MW1021REMSYN023333   10282 58000 60101EQDQ01+000072PSTWM1
0135822800999991986043012004-02533-044283FM-12+005199999V0201401N00151004201CN0040001N9+02301+02251101461ADDAA124099091AG10999AY161061GF108991061071004501021999KA1240N+02261MA1999999100781MD1999999+0141MW1651REMSYN023333   20226 58014 60994
0124822800999991986043018004-02533-044283FM-12+005199999V0209991C00001004201CN0040001N9+02401+02331101201ADDAA106004091AG10999AY161061AY261061GF108991061071004501999999MA1999999100621MD1999999+0251MW1651REMSYN017333   58025 60041
0143822800999991986050100004-02533-044283FM-12+005199999V0200901N00051004201CN0040001N9+02331+02271101161ADDAA106004091AG10999AY161061AY261061GF108991071021004501999999KA1240M+02461MA1999999100811MD1999999+0031MW1211REMSYN023333   10246 58003 60041
0143822800999991986050112004-02533-044283FM-12+005199999V0201401N00151220001CN0100001N9+02721+02321101201ADDAA124008091AG10999AY161061AY221061GF102991011011008001031001KA1240N+02281MA1999999100621MD1999999-0161MW1011REMSYN023333   20228 59016 60084
0124822800999991986050118004-02533-044283FM-12+005199999V0203601N00101045001CN0100001N9+02871+02331100951ADDAA106000591AG10999AY161061AY221061GF106991041061004501031001MA1999999100371MD1999999-0261MW1021REMSYN017333   59026 69951
0137822800999991986050200004-02533-044283FM-12+005199999V0209991C00001045001CN0100001N9+02461+02391101361ADDAA106000091AG10999AY191061AY221061GF107991031061004501031011KA1240M+02941MA1999999100701MD1999999-0021MW1031REMSYN017333   10294 59002
0154822800999991986050212004-02533-044283FM-12+005199999V0200901N00101045001CN0100001N9+02531+02441101351ADDAA124000691AA299000591AG10999AY161061AY261061GF108991041051004501021999KA1240N+02291MA1999999100761MD1999999+0141MW1021REMSYN023333   20229 58014 69964
0096822800999991986050218004-02533-044283FM-12+005199999V0200901N00101045001CN0100001N9+02821+02441100961ADDAA106000091AG10999GF106991031011004501071001MA1999999100381MD1999999+0011REMSYN011333   58001
0143822800999991986050300004-02533-044283FM-12+005199999V0209991C000019999999N0100001N9+02401+02371101221ADDAA106028091AG10999AY161061AY261061GF108991041051004501999999KA1240M+02941MA1999999100701MD1999999+0001MW1611REMSYN023333   10294 58000 60281
0143822800999991986050312004-02533-044283FM-12+005199999V0201401N00151045001CN0100001N9+02501+02471101291ADDAA124029091AG10999AY161061AY261061GF106991041021004501031001KA1240N+02291MA1999999100781MD1999999-0051MW1011REMSYN023333   20229 59005 60294
0096822800999991986050318004-02533-044283FM-12+005199999V0200501N00151045001CN0100001N9+02801+02501100921ADDAA106000091AG10999GF108991041051004501031001MA1999999100341MD1999999-0041REMSYN011333   59004
0115822800999991986050400004-02533-044283FM-12+005199999V0209991C00001045001CN0100001N9+02501+02431101131ADDAA106000091AG10999GF106991041051004501021001KA1240M+03021MA1999999100551MD1999999-0151REMSYN017333   10302 59015
0143822800999991986050412004-02533-044283FM-12+005199999V0201401N00151045001CN0100001N9+02601+02511101131ADDAA124001091AG10999AY161061AY261061GF106991041021004501011001KA1240N+02371MA1999999100551MD1999999-0161MW1011REMSYN023333   20237 59016 60014
0096822800999991986050418004-02533-044283FM-12+005199999V0200501N00261045001CN0100001N9+02901+02481100811ADDAA106000091AG10999GF106991031021004501011001MA1999999100231MD1999999-0111REMSYN011333   59011
0101822800999991986050500004-02533-044283FM-12+005199999V0209991C00001220001CN0100001N9+02501+02431101001ADDAA106000091AG10999GF103991031001017501021001KA1240M+03041MA1999999100421REMSYN017333   10304 90590
0115822800999991986050512004-02533-044283FM-12+005199999V0200901N00261045001CN0100001N9+02791+02521101161ADDAA106000091AG10999GF105991041021008001061001KA1240N+02411MA1999999100581MD1999999+0031REMSYN017333   20241 58003
0096822800999991986050518004-02533-044283FM-12+005199999V0200901N00411220001CN0100001N9+03011+02381100821ADDAA106000091AG10999GF103991021021008001001011MA1999999100241MD1999999+0011REMSYN011333   58001
0115822800999991986050600004-02533-044283FM-12+005199999V0200901N00101220001CN0100001N9+02511+02361101061ADDAA106000091AG10999GF100991001001999999001001KA1240M+03091MA1999999100501MD1999999+0081REMSYN017333   10309 58008
0115822800999991986050612004-02533-044283FM-12+005199999V0200901N00261220001CN0100001N9+02801+02271101161ADDAA106000091AG10999GF100991001001999999001001KA1240N+02311MA1999999100581MD1999999+0001REMSYN017333   20231 58000
0096822800999991986050618004-02533-044283FM-12+005199999V0200901N00211220001CN0100001N9+03101+02971100751ADDAA106000091AG10999GF101991011011008001001001MA1999999100221MD1999999-0021REMSYN011333   59002
0115822800999991986050700004-02533-044283FM-12+005199999V0201401N00101220001CN0100001N9+02431+02301101101ADDAA106000091AG10999GF100991001001999999001001KA1240M+03181MA1999999100521MD1999999+0021REMSYN017333   10318 58002
0115822800999991986050712004-02533-044283FM-12+005199999V0201401N001019999999N0100001N9+02841+99999101161ADDAA106000091AG10999GF105991021001017501001999KA1240N+02181MA1999999100581MD1999999+0001REMSYN017333   20218 58000
0162822800999991986050800004-02533-044283FM-12+005199999V0200901N001019999999N0100001N9+02531+02451101001ADDAA106001091AG10001AY161061AY261061GF107991999011004501001001KA1240M+03181MA1999999100441MD1999999-0011MW1011REMSYN023333   10318 59001 60011EQDQ01+000032SCOTLC
0143822800999991986050812004-02533-044283FM-12+005199999V0209991C00001004201CN0100001N9+02421+02391101171ADDAA124036091AG10999AY161061AY261061GF108991061051004501021999KA1240N+02241MA1999999100591MD1999999+0011MW1611REMSYN023333   20224 58001 60364
0096822800999991986050818004-02533-044283FM-12+005199999V0200501N003119999999N0100001N9+02761+02401100861ADDAA106000091AG10999GF108991051999004501021999MA1999999100221MD1999999+0081REMSYN011333   58008
0143822800999991986050900004-02533-044283FM-12+005199999V0201401N00101045001CN0100001N9+02421+02251101151ADDAA106001091AG10999AY161061AY261061GF107991041051004501021001KA1240M+02901MA1999999100571MD1999999+0151MW1021REMSYN023333   10290 58015 60011
0121822800999991986050912004-02533-044283FM-12+005199999V0200901N00261045001CN0040001N9+02761+02441101041ADDAA124001091AG10999GF106991041021004501031001KA1240N+02261MA1999999100461MD1999999-0131REMSYN023333   20226 59013 60014
0096822800999991986050918004-02533-044283FM-12+005199999V0200901N00151045001CN0100001N9+03001+02451100671ADDAA106000091AG10999GF106991031011004501031011MA1999999100101MD1999999-0181REMSYN011333   59018
0115822800999991986051000004-02533-044283FM-12+005199999V0200901N00151004201CN0100001N9+02581+02301101101ADDAA106000091AG10999GF105991051011004501031031KA1240M+03091MA1999999100431MD1999999-0141REMSYN017333   10309 59014
0115822800999991986051012004-02533-044283FM-12+005199999V0200901N00211220001CN0100001N9+02911+02271101261ADDAA106000091AG10999GF103991021041012501061021KA1240N+02501MA1999999100651MD1999999+0191REMSYN017333   20250 58019
0124822800999991986051018004-02533-044283FM-12+005199999V0200501N00211045001CN0100001N9+02671+02431100891ADDAA106004091AG10999AY161061AY221061GF106991031071008001021021MA1999999100311MD1999999+0201MW1601REMSYN017333   58020 60041
0115822800999991986051100004-02533-044283FM-12+005199999V0200901N00151220001CN0100001N9+02581+02371101001ADDAA106000091AG10999GF102991021011004501001001KA1240M+03151MA1999999100421MD1999999-0011REMSYN017333   10315 59001
0121822800999991986051112004-02533-044283FM-12+005199999V0200901N00261220001CN0100001N9+02891+02251101201ADDAA124004091AG10999GF103991001001999999001041KA1240N+02411MA1999999100621MD1999999-0031REMSYN023333   20241 59003 60044
0115822800999991986051212004-02533-044283FM-12+005199999V0200601N00261004201CN0100001N9+02821+02601101001ADDAA106000091AG10999GF106991061021004501001001KA1240N+02401MA1999999100421MD1999999-0201REMSYN017333   20240 59020
0096822800999991986051218004-02533-044283FM-12+005199999V0203601N00311220001CN0100001N9+03011+02531100681ADDAA106000091AG10999GF103991021051004501031001MA1999999100111MD1999999-0161REMSYN011333   59016
0134822800999991986051300004-02533-044283FM-12+005199999V0200901N00101045001CN0100001N9+02581+02421100941ADDAA106000091AG10999GF105991011011004501031001KA1240N+99999MA1999999100361MD1999999-0021REMSYN017333   20314 59002EQDQ01 +03142ATMN  
0115822800999991986051312004-02533-044283FM-12+005199999V0200901N00101045001CN0100001N9+02581+02421100941ADDAA106000091AG10999GF105991011011004501031001KA1240N+02141MA1999999100361MD1999999-0021REMSYN017333   20214 59002
0124822800999991986051318004-02533-044283FM-12+005199999V0203601N00411045001CN0100001N9+02941+02471100821ADDAA124001091AG10999AY161061AY261061GF106991041021004501031001MA1999999100241MD1999999-0121MW1021REMSYN017333   59012 60014
0115822800999991986051400004-02533-044283FM-12+005199999V0200501N00151220001CN0100001N9+02581+02491101141ADDAA106000091AG10999GF102991021011008001001001KA1240M+03001MA1999999100561MD1999999+0021REMSYN017333   10300 58002
0121822800999991986051412004-02533-044283FM-12+005199999V0200101N02571004201CN0100001N9+02901+02581101311ADDAA124001091AG10999GF106991061021004501001001KA1240N+02391MA1999999100731MD1999999+0731REMSYN023333   20239 58073 60014
0118822800999991986051417004-02533-044283FM-12+005199999V0200501N00261004201CN0100001N9+02801+02521101101ADDAA106000091AG10999AY121051AY221051GF108991051061004501021999MA1999999100521MD1999999+0281MW1171REMSYN011333   58028
0118822800999991986051418004-02533-044283FM-12+005199999V0200501N00261004201CN0100001N9+02801+02521101101ADDAA106000091AG10999AY121061AY221061GF108991051061004501021999MA1999999100521MD1999999+0281MW1171REMSYN011333   58028
0143822800999991986051500004-02533-044283FM-12+005199999V0200501N00101220001CN0100001N9+02541+02491101301ADDAA106004091AG10999AY161061AY261061GF104991041021004501001001KA1240M+03021MA1999999100721MD1999999+0161MW1021REMSYN023333   10302 58016 60041
0121822800999991986051512004-02533-044283FM-12+005199999V0200901N00101220001CN0100001N9+02471+02441101321ADDAA124004091AG10999GF103991031011012501001001KA1240N+02361MA1999999100801MD1999999+0071REMSYN023333   20236 58007 60044
0096822800999991986051518004-02533-044283FM-12+005199999V0200501N00211007501CN0100001N9+03001+02551101091ADDAA106000091AG10999GF105991051021008001001001MA1999999100511MD1999999-0011REMSYN011333   59001
0115822800999991986051600004-02533-044283FM-12+005199999V0200901N00151220001CN0100001N9+02551+02441101181ADDAA106000091AG10999GF103991031011004501001001KA1240M+03101MA1999999100601MD1999999-0121REMSYN017333   10310 59012
0115822800999991986051612004-02533-044283FM-12+005199999V0200901N00311220001CN0100001N9+02841+02401101241ADDAA106000091AG10999GF103991031011008001001001KA1240N+02411MA1999999100661MD1999999-0141REMSYN017333   20241 59014
0096822800999991986051618004-02533-044283FM-12+005199999V0203601N00361220001CN0100001N9+03021+02501100961ADDAA106000091AG10999GF103991021011008001001011MA1999999100391MD1999999-0121REMSYN011333   59012
0115822800999991986051700004-02533-044283FM-12+005199999V0200901N00101220001CN0100001N9+02521+02381101051ADDAA106000091AG10999GF100991001001999999001001KA1240M+03141MA1999999100571MD1999999-0031REMSYN017333   10314 59003
0115822800999991986051712004-02533-044283FM-12+005199999V0200901N00151045001CN0100001N9+02881+02481100971ADDAA106000091AG10999GF105991021011004501031001KA1240N+02401MA1999999100521MD1999999-0071REMSYN017333   20240 59007
0096822800999991986051718004-02533-044283FM-12+005199999V0202601N00311045001CN0100001N9+03021+02511100841ADDAA106000091AG10999GF106991041051004501031001MA1999999100341MD1999999-0151REMSYN011333   59015
0154822800999991986051800004-02533-044283FM-12+005199999V0200501N00101004201CN0100001N9+02461+02391101121ADDAA106000791AA299001091AG10999AY161061AY261061GF106991051051004501031001KA1240M+03101MA1999999100541MD1999999-0031MW1021REMSYN023333   10310 59003 69971
0143822800999991986051812004-02533-044283FM-12+005199999V0200901N00211004201CN0200001N9+02541+02291101241ADDAA124014091AG10999AY161061AY261061GF108991081061004501999999KA1240N+02271MA1999999100661MD1999999+0071MW1011REMSYN023333   20227 58007 60144
0085822800999991986051815004-02533-044283FM-12+005199999V0202901N00151007501CN0002001N9+99999+99999101601ADDAG10999GF105991051051008001051999MD1210121+9999EQDQ01+028673ATOT  Q02+027703ATOD  
0143822800999991986051818004-02533-044283FM-12+005199999V0201401N00151004201CN0020001N9+02861+02521100912ADDAA106003091AG10999AY161061AY261061GF108991081071004501999999MA1999999100331MD1999999+0061MW1611REMSYN017333   58006 60031EQDQ01+100913APOSLP
0115822800999991986051900004-02533-044283FM-12+005199999V0200901N00151220001CN0100001N9+02541+02421101151ADDAA106000091AG10999GF102991021011008001001001KA1240M+03001MA1999999100571MD1999999+0031REMSYN017333   10300 58003
0121822800999991986051912004-02533-044283FM-12+005199999V0200901N00311220001CN0100001N9+02801+02381101271ADDAA124005091AG10999GF102991021011004501001001KA1240N+02291MA1999999100691MD1999999+0001REMSYN023333   20229 58000 60054
0096822800999991986051918004-02533-044283FM-12+005199999V0200901N00311220001CN0100001N9+03061+02351100921ADDAA106000091AG10999GF104991041021004501001001MA1999999100351MD1999999+0021REMSYN011333   58002
0115822800999991986052000004-02533-044283FM-12+005199999V0209999999999220001CN0100001N9+02461+02391101181ADDAA106000091AG10999GF102991021011008001001001KA1240M+03121MA1999999100501MD1999999-0071REMSYN017333   10312 59007
0115822800999991986052012004-02533-044283FM-12+005199999V0200901N00261220001CN0100001N9+02891+02461101241ADDAA106000091AG10999GF104991041021008001001001KA1240N+02321MA1999999100661MD1999999-0031REMSYN017333   20232 59003
0124822800999991986052018004-02533-044283FM-12+005199999V0200501N00151045001CN0100001N9+02921+02521100901ADDAA106006091AG10999AY161061AY261061GF106991031021008001061021MA1999999100321MD1999999+0031MW1021REMSYN017333   58003 60061
0115822800999991986052100004-02533-044283FM-12+005199999V0209991C00001045001CN0100001N9+02531+02421101181ADDAA106000091AG10999GF107991031011004501031001KA1240M+03011MA1999999100601MD1999999+0101REMSYN017333   10301 58010
0121822800999991986052112004-02533-044283FM-12+005199999V0200901N00261220001CN0100001N9+02841+02461101231ADDAA124006091AG10001GF103991021011008001061001KA1240N+02341MA1999999100651MD1999999-0011REMSYN023333   20234 59001 60064
0107822800999991986052118004-02533-044283FM-12+005199999V0203601N00461045001CN0100001N9+02921+02501100821ADDAG10999AY121061AY221061GF106991041081004501061001MA1999999100241MD1999999-0081MW1171REMSYN011333   59008
0143822800999991986052200004-02533-044283FM-12+005199999V0200901N00101004201CN0100001N9+02571+02411101181ADDAA106014091AG10999AY191061AY261061GF107991051071004501999999KA1240M+03121MA1999999100601MD1999999+0071MW1911REMSYN023333   10312 58007 60141
0143822800999991986052212004-02533-044283FM-12+005199999V0200901N00261004201CN0100001N9+02701+02421101091ADDAA124014091AG10999AY161061AY261061GF107991051051004501031001KA1240N+02261MA1999999100511MD1999999-0041MW1021REMSYN023333   20226 59004 60144
0143822800999991986052300004-02533-044283FM-12+005199999V0200501N00101004201CN0100001N9+02541+02401101071ADDAA106002091AG10999AY161061AY261061GF108991051051004501021999KA1240M+03051MA1999999100491MD1999999-0111MW1011REMSYN023333   10305 59011 60021
0143822800999991986052312004-02533-044283FM-12+005199999V0200901N00211045001CN0100001N9+02801+02501101211ADDAA124010091AG10999AY161061AY261061GF106991041021004501011001KA1240N+02231MA1999999100631MD1999999+0121MW1011REMSYN023333   20223 58012 60104
0124822800999991986052318004-02533-044283FM-12+005199999V0209991C00001045001CN0100001N9+02831+02781100861ADDAA124001091AG10999AY161061AY261061GF106991041021004501011001MA1999999100281MD1999999+0101MW1011REMSYN017333   58010 60014
0104822800999991986052400004-02533-044283FM-12+005199999V0200901N00151045001CN0100001N9+02621+02461101051ADDAG10999GF107991041021004501031001KA1240M+02951MA1999999100471MD1999999-0021REMSYN017333   10295 59002
0121822800999991986052412004-02533-044283FM-12+005199999V0200901N00311045001CN0100001N9+02701+02281101171ADDAA124001091AG10999GF106991021011004501011001KA1240N+02351MA1999999100591MD1999999-0041REMSYN023333   20235 59004 60014
0143822800999991986052500004-02533-044283FM-12+005199999V0200901N001519999999N0100001N9+02501+02411101101ADDAA106002091AG10999AY161061AY261061GF106991041021999999051001KA1240M+03041MA1999999100521MD1999999+0051MW1031REMSYN023333   10304 58005 60021
0121822800999991986052512004-02533-044283FM-12+005199999V0200901N00211045001CN0100001N9+02661+02371101211ADDAA124002091AG10999GF107991041081008001061001KA1240N+02401MA1999999100631MD1999999+0041REMSYN023333   20240 58004 60024
0107822800999991986052518004-02533-044283FM-12+005199999V0200501N00311045001CN0100001N9+02781+02401100931ADDAG10999AY121061AY221061GF108991041081004501021999MA1999999100821MD1999999+0251MW1161REMSYN011333   58025
0159822800999991986052600004-02533-044283FM-12+005199999V0209991C000019999999N0100001N9+02421+02391101291ADDAA106001091AG10999AY161061AY251061GA1091+999999999GF109991041081004501061001KA1240M+03021MA1999999100711MD1999999-0191MW1021REMSYN023333   10302 59019 60011
0121822800999991986052612004-02533-044283FM-12+005199999V0200501N00151220001CN0100001N9+02741+02301101231ADDAA124015091AG10999GF103991011011008001001011KA1240N+02181MA1999999100651MD1999999+0021REMSYN023333   20218 58002 60154
0124822800999991986052618004-02533-044283FM-12+005199999V0201401N00311045001CN0040001N9+02701+02221101041ADDAA106002091AG10999AY121061AY211061GF107991041081004501031011MA1999999100441MD1999999+0091MW1911REMSYN017333   58009 60021
0143822800999991986052700004-02533-044283FM-12+005199999V0200901N00151220001CN0100001N9+02411+02331101141ADDAA106010091AG10999AY191061AY261061GF103991011011008001031021KA1240M+03031MA1999999100561MD1999999-0151MW1011REMSYN023333   10303 59015 60101
0121822800999991986052712004-02533-044283FM-12+005199999V0200901N00211220001CN0100001N9+02601+02331101151ADDAA124012091AG10999GF104991021011004501031001KA1240N+02311MA1999999100571MD1999999-0081REMSYN023333   20231 59008 60124
0085822800999991986052718004-02533-044283FM-12+005199999V0200501N00211004201CN0100001N9+03001+02371100791ADDAG10999GF105991051021004501001001MA1999999100221MD1999999-0221REMSYN011333   59022
0104822800999991986052800004-02533-044283FM-12+005199999V0200901N00101004201CN0100001N9+02561+02471100961ADDAG10999GF106991061021004501001001KA1240M+03051MA1999999100381MD1999999-0181REMSYN017333   10305 59018
0154822800999991986052812004-02533-044283FM-12+005199999V0201401N00151220001CN0100001N9+02701+02411101151ADDAA124000791AA299001091AG10999AY161061AY261061GF104991031051004501051001KA1240N+02701MA1999999100571MD1999999+0001MW1011REMSYN023333   20270 58000 69974
0085822800999991986052818004-02533-044283FM-12+005199999V0201401N00151045001CN0100001N9+03141+02301100791ADDAG10999GF105991031021004501011001MA1999999100221MD1999999+0001REMSYN011333   58000
0135822800999991986052900004-02533-044283FM-12+005199999V0209991C00001004201CN0100001N9+02461+02411100941ADDAA106000491AA299000591AG10999AY161061AY261061GF107991051061004501011001MA1999999100361MD1999999-0021MW1171REMSYN017333   59002 69941
0143822800999991986052912004-02533-044283FM-12+005199999V0203401N00151045001CN0100001N9+02801+02521101121ADDAA124003091AG10999AY161061AY261061GF106991041021004501011001KA1240N+02351MA1999999100541MD1999999-0031MW1011REMSYN023333   20235 59003 60034
0107822800999991986052918004-02533-044283FM-12+005199999V0203601N00151004201CN0100001N9+02701+02431100881ADDAG10999AY111061AY221061GF108991051061004501021999MA1999999100301MD1999999+0081MW1171REMSYN011333   58008
0154822800999991986053000004-02533-044283FM-12+005199999V0200901N00211045001CN0100001N9+02441+02371101111ADDAA106000691AA299000591AG10999AY121061AY221061GF105991031021004501011001KA1240M+03161MA1999999100531MD1999999-0201MW1211REMSYN023333   10316 59020 69961
0121822800999991986053012004-02533-044283FM-12+005199999V0200501N00211045001CN0100001N9+02801+02421101131ADDAA124003091AG10999GF105991031041008001061001KA1240N+02331MA1999999100551MD1999999+0011REMSYN023333   20233 58001 60034
0135822800999991986053018004-02533-044283FM-12+005199999V0200501N00311045001CN0100001N9+02921+02341101101ADDAA106000491AA299000591AG10001AY161061AY261061GF107991021041004501081061MA1999999100331MD1999999+0031MW1021REMSYN017333   58003 69941
0143822800999991986053100004-02533-044283FM-12+005199999V0200901N00101220001CN0100001N9+02381+02351101221ADDAA106001091AG10999AY161061AY261061GF103991031021008001001001KA1240M+03011MA1999999100641MD1999999+0091MW1011REMSYN023333   10301 58009 60011
0124822800999991986053118004-02533-044283FM-12+005199999V0201001N00461045001CN0100001N9+02461+02361100971ADDAA106001091AG10999AY161061AY221061GF108991041081004501021999MA1999999100391MD1999999+0061MW1161REMSYN017333   58006 60011
0143822800999991986060100004-02533-044283FM-12+005199999V0209991C000019999999N0100001N9+02401+02371101241ADDAA106004091AG10999AY161061AY221061GF108991031041999999999999KA1240M+02861MA1999999100651MD1999999+0011MW1021REMSYN023333   10286 58001 60041
0143822800999991986060112004-02533-044283FM-12+005199999V0200501N00151045001CN0100001N9+02701+02431101301ADDAA124006091AG10999AY161061AY261061GF106991041021004501071001KA1240N+02291MA1999999100731MD1999999+0021MW1011REMSYN023333   20229 58002 60064
0085822800999991986060118004-02533-044283FM-12+005199999V0200901N00311004201CN0100001N9+02701+02281100971ADDAG10999GF108991061051004501021999MA1999999100391MD1999999+0001REMSYN011333   58000
0050822800999991986060209004-02533-044283FM-12+005199999V0200901N00151220001CN0270001N9+01961+00941101661ADDAG10999GF104991041001999999031001MD1410001+9999
0104822800999991986060212004-02533-044283FM-12+005199999V0200901N00311220001CN0100001N9+02761+02442101251ADDAG10999GF104991031011008001011001KA1240N+02311MA1999999100671MD1999999-0051REMSYN017333   20231 59005
0085822800999991986060218004-02533-044283FM-12+005199999V0200901N00311220001CN0100001N9+03001+02321100911ADDAG10999GF104991041021004501001001MA1999999100341MD1999999-0051REMSYN011333   59005
0104822800999991986060300004-02533-044283FM-12+005199999V0200501N00151220001CN0100001N9+02401+02311101221ADDAG10999GF102991021011008001001001KA1240M+03061MA1999999100641MD1999999-0031REMSYN017333   10306 59003
0104822800999991986060312004-02533-044283FM-12+005199999V0200501N00311045001CN0100001N9+02781+02401101361ADDAG10999GF106991041051004501031001KA1240N+02291MA1999999100781MD1999999-0111REMSYN017333   20229 59011
0085822800999991986060318004-02533-044283FM-12+005199999V0200501N00311220001CN0100001N9+02941+02331100991ADDAG10999GF104991021021004501011001MA1999999100421MD1999999+0081REMSYN011333   58008
0104822800999991986060400004-02533-044283FM-12+005199999V0209991C00001220001CN0100001N9+02441+02391101341ADDAG10999GF102991999999004501999999KA1240M+03061MA1999999100761MD1999999+0121REMSYN017333   10306 58012
0143822800999991986060412004-02533-044283FM-12+005199999V0201801N00151220001CN0100001N9+02601+02251101441ADDAA124021091AG10999AY161061AY261061GF103991021041008001041001KA1240N+02231MA1999999100861MD1999999+0081MW1021REMSYN023333   20223 58008 60214
