0115825860999991986010112004-05200-039300FM-12+019999999V0200901N00311012001CN0200001N9+02691+01701101561ADDAA106000091AG10999GF108991081081008001999999KA1240N+02321MA1999999098861MD1999999-0071REMSYN017333   20232 59007
0096825860999991986010118004-05200-039300FM-12+019999999V0201401N00101220001CN0200001N9+02251+01781100841ADDAA106000091AG10999GF106991031021008001001041MA1999999098491MD1999999-0171REMSYN011333   59017
0137825860999991986010200004-05200-039300FM-12+019999999V0203601N00411007501CN9999999N9+02531+02071101101ADDAA106000091AG10999AY121061AY221061GF108991051031008001001021KA1240M+03301MA1999999098731MD1999999-0121MW1131REMSYN017333   10330 59012
0137825860999991986010212004-05200-039300FM-12+019999999V0202701N00211007501CN0040001N9+02461+02281101311ADDAA106000091AG10999AY121061AY221061GF108991051051008001031041KA1240N+02281MA1999999098921MD1999999+0061MW1151REMSYN017333   20228 58006
0096825860999991986010218004-05200-039300FM-12+019999999V0200901N00151220001CN0200001N9+03211+01821100721ADDAA106000091AG10999GF104991031021008001001011MA1999999098371MD1999999-0151REMSYN011333   59015
0137825860999991986010312004-05200-039300FM-12+019999999V0201401N00101007501CN0200001N9+02661+02221101201ADDAA106000091AG10999AY121061AY221061GF108991051041008001001041KA1240N+02381MA1999999098831MD1999999-0091MW1021REMSYN017333   20238 59009
0096825860999991986010318004-05200-039300FM-12+019999999V0200501N00461220001CN0200001N9+03181+01871100701ADDAA106000091AG10999GF104991031021008001001041MA1999999098361MD1999999-0011REMSYN011333   59001
0115825860999991986010400004-05200-039300FM-12+019999999V0200501N00361220001CN9999999N9+02661+02271100951ADDAA106000091AG10999GF100991001001999999001001KA1240M+03211MA1999999098591MD1410001+0001REMSYN017333   10321 58000
0115825860999991986010412004-05200-039300FM-12+019999999V0203601N00151220001CN0200001N9+02691+02131101221ADDAA106000091AG10999GF104991041021008001001001KA1240N+02281MA1999999098851MD1999999+0021REMSYN017333   20228 58002
0137825860999991986010500004-05200-039300FM-12+019999999V0200501N00211220001CN9999999N9+02671+02181101221ADDAA106000091AG10999AY121061AY221061GF104991021031008001001031KA1240M+03151MA1999999098841MD1999999+0251MW1131REMSYN017333   10315 58025
0115825860999991986010512004-05200-039300FM-12+019999999V0200901N00261045001CN0200001N9+02691+02181101291ADDAA106000091AG10999GF107991041041008001051041KA1240N+02331MA1999999098921MD1999999+0071REMSYN017333   20233 58007
0118825860999991986010518004-05200-039300FM-12+019999999V0201401N00311007501CN0040001N9+03251+01711100841ADDAA106000091AG10999AY121061AY221061GF108991051031008001091041MA1999999098491MD1999999-0061MW1151REMSYN011333   59006
0137825860999991986010600004-05200-039300FM-12+019999999V0200501N00311220001CN9999999N9+02441+02231101211ADDAA106000091AG10999AY191061AY221061GF104991021031008001001031KA1240M+03281MA1999999098831MD1999999-0011MW1131REMSYN017333   10328 59001
0143825860999991986010612004-05200-039300FM-12+019999999V0200901N00361007501CN0100001N9+02621+02211101181ADDAA124000391AG10999AY161061AY221061GF108991081051008001999999KA1240N+02271MA1999999098801MD1999999-0121MW1511REMSYN023333   20227 59012 69934
0096825860999991986010618004-05200-039300FM-12+019999999V0200501N00461007501CN0200001N9+03191+01911100711ADDAA106000091AG10999GF105991051021008001001001MA1999999098361MD1999999-0131REMSYN011333   59013
0115825860999991986010700004-05200-039300FM-12+019999999V0200501N00361220001CN9999999N9+02681+02111100931ADDAA106000091AG10999GF100991001001999999001001KA1240M+03241MA1999999098571MD1999999-0261REMSYN017333   10324 59026
0143825860999991986010712004-05200-039300FM-12+019999999V0200501N00311007501CN0100001N9+02591+02171101241ADDAA124000191AG10999AY151061AY221061GF107991061041008001001011KA1240N+02321MA1999999098861MD1999999+0061MW1031REMSYN023333   20232 58006 69914
0096825860999991986010718004-05200-039300FM-12+019999999V0200501N00461220001CN0200001N9+03221+01731100771ADDAA106000091AG10999GF103991031021008001001001MA1999999098421MD1999999+0061REMSYN011333   58006
0137825860999991986010800004-05200-039300FM-12+019999999V0200501N00311220001CN9999999N9+02681+02061101061ADDAA106000091AG10999AY121061AY211061GF102991021031008001001001KA1240M+03241MA1999999098691MD1999999+0121MW1131REMSYN017333   10324 58012
0115825860999991986010812004-05200-039300FM-12+019999999V0200901N00361007501CN0200001N9+02701+02171101281ADDAA106000091AG10999GF105991051041008001001001KA1240N+02281MA1999999098911MD1999999+0051REMSYN017333   20228 58005
0096825860999991986010818004-05200-039300FM-12+019999999V0200501N00411220001CN0200001N9+03261+01941100921ADDAA106000091AG10999GF102991021021008001001001MA1999999098561MD1999999+0141REMSYN011333   58014
0115825860999991986010900004-05200-039300FM-12+019999999V0200501N00621220001CN9999999N9+02701+01991101131ADDAA106000091AG10999GF100991001001999999001001KA1240M+03311MA1999999098761MD1999999+0051REMSYN017333   10331 58005
0143825860999991986010912004-05200-039300FM-12+019999999V0200901N00151007501CN0200001N9+02591+02251101831ADDAA124002091AG10999AY161061AY221061GF108991051031008001041999KA1240N+02241MA1999999099051MD1999999+0141MW1021REMSYN023333   20224 58014 60024
0124825860999991986010918004-05200-039300FM-12+019999999V0200501N00361045001CN0040001N9+02931+02061101061ADDAA106000191AG10999AY151061AY221061GF108991041031008001071999MA1999999098691MD1999999+0131MW1151REMSYN017333   58013 69911
0137825860999991986011000004-05200-039300FM-12+019999999V0203601N00051220001CN9999999N9+02451+02251101371ADDAA106000091AG10999AY121061AY221061GF104991031031008001001011KA1240M+03021MA1999999098971MD1999999+0211MW1131REMSYN017333   10302 58021
0121825860999991986011012004-05200-039300FM-12+019999999V0200901N00461007501CN0200001N9+02701+02171101501ADDAA124000191AG10999GF106991051041008001001011KA1240N+02301MA1999999099121MD1999999+0071REMSYN023333   20230 58007 69914
0118825860999991986011018004-05200-039300FM-12+019999999V0200501N00511045001CN0040001N9+03271+01801101041ADDAA106000091AG10999AY121061AY221061GF106991041031008001051031MA1999999098681MD1999999-0011MW1151REMSYN011333   59001
0115825860999991986011100004-05200-039300FM-12+019999999V0200501N00671220001CN9999999N9+02621+02181101291ADDAA106000091AG10999GF100991001001999999001001KA1240M+03291MA1999999098911MD1999999-0061REMSYN017333   10329 59006
0115825860999991986011112004-05200-039300FM-12+019999999V0200901N00411007501CN0200001N9+02511+02031101471ADDAA106000091AG10999GF108991081051008001999999KA1240N+02281MA1999999099001MD1999999-0031REMSYN017333   20228 59003
0096825860999991986011118004-05200-039300FM-12+019999999V0200501N00311220001CN0200001N9+03221+01571101051ADDAA106000091AG10999GF102991021021008001001001MA1999999098691MD1999999+0011REMSYN011333   58001
0115825860999991986011212004-05200-039300FM-12+019999999V0200901N00571105001CN0200001N9+02601+01991101361ADDAA106000091AG10999GF106991041051008001001081KA1240N+02351MA1999999098981MD1999999-0111REMSYN017333   20235 59011
0115825860999991986011218004-05200-039300FM-12+019999999V0200901N00151007501CN0200001N9+03161+01791100911ADDAA106000091AG10999GF105991051021008001001001MA1999999098571MD1999999-0121REMSYN011333   59012EQDQ01+999990APOSLP
0115825860999991986011300004-05200-039300FM-12+019999999V0200501N00311220001CN9999999N9+02691+01991101051ADDAA106000091AG10999GF100991001001999999001001KA1240M+03181MA1999999098681MD1999999-0121REMSYN017333   10318 59012
0115825860999991986011400004-05200-039300FM-12+019999999V0200501N00261220001CN9999999N9+02731+01851100941ADDAA106000091AG10999GF100991001001999999001001KA1240M+03301MA1999999098581MD1999999-0101REMSYN017333   10330 59010
0115825860999991986011412004-05200-039300FM-12+019999999V0200901N00461220001CN0200001N9+02761+01891101081ADDAA106000091AG10999GF102991021011008001001001KA1240N+02221MA1999999098721MD1999999-0131REMSYN017333   20222 59013
0096825860999991986011418004-05200-039300FM-12+019999999V0200901N00211220001CN0200001N9+03281+01821100701ADDAA106000091AG10999GF103991031021008001001001MA1999999098351MD1999999-0081REMSYN011333   59008
0137825860999991986011500004-05200-039300FM-12+019999999V0200501N00571220001CN9999999N9+02731+01881100931ADDAA106000091AG10999AY101061AY201061GF104991041031008001001001KA1240M+03351MA1999999098571MD1999999-0011MW1131REMSYN017333   10335 59001
0096825860999991986011518004-05200-039300FM-12+019999999V0200501N00361220001CN0200001N9+03321+01431100771ADDAA106000091AG10999GF102991021011008001001001MA1999999098431MD1999999+0081REMSYN011333   58008
0115825860999991986011600004-05200-039300FM-12+019999999V0200501N00621045001CN9999999N9+02721+01881101011ADDAA106000091AG10999GF105991021011008001051001KA1240M+03371MA1999999098651MD1999999+0081REMSYN017333   10337 58008
0096825860999991986011618004-05200-039300FM-12+019999999V0200501N00311045001CN0200001N9+02981+01621100951ADDAA106000091AG10999GF107991031021008001071001MA1999999098591MD1999999+0161REMSYN011333   58016
0115825860999991986011700004-05200-039300FM-12+019999999V0200501N00361220001CN9999999N9+02641+01851101251ADDAA106000091AG10999GF103991021011008001001011KA1240M+03111MA1999999098771MD1999999+0121REMSYN017333   10311 58012
0096825860999991986011718004-05200-039300FM-12+019999999V0200501N00361007501CN0200001N9+02801+01751100941ADDAA106000091AG10999GF108991081051008001999999MA1999999098571MD1999999-0021REMSYN011333   59002
0154825860999991986011800004-05200-039300FM-12+019999999V0200501N00151045001CN9999999N9+02461+02171101071ADDAA106000291AA299000391AG10999AY151061AY251061GF108991041071008001021999KA1240M+03001MA1999999098681MD1999999-0091MW1021REMSYN023333   10300 59009 69921
0132825860999991986011812004-05200-039300FM-12+019999999V0200901N00411012001CN0200001N9+02761+02021101221ADDAA124000291AA299000391AG10999GF106991051081008001041001KA1240N+02321MA1999999098841MD1999999-0041REMSYN023333   20232 59004 69924
0124825860999991986011818004-05200-039300FM-12+019999999V0200901N00461045001CN0100001N9+03141+01621100921ADDAA106999929AG10999AY121061AY221061GF107991041071008001021001MA1999999098561MD1999999-0011MW1141REMSYN017333   59001 69901
0115825860999991986011900004-05200-039300FM-12+019999999V0200501N00671007501CN9999999N9+02701+02031101071ADDAA106000091AG10999GF107991071051008001001001KA1240M+03161MA1999999098711MD1999999+0031REMSYN017333   10316 58003
0143825860999991986011912004-05200-039300FM-12+019999999V0200901N00411045001CN0200001N9+02761+01941101151ADDAA124000391AG10999AY161061AY261061GF106991041041008001071001KA1240N+02341MA1999999098791MD1999999-0051MW1021REMSYN023333   20234 59005 69934
0096825860999991986011918004-05200-039300FM-12+019999999V0201401N00461045001CN0200001N9+03321+01281100821ADDAA106000091AG10999GF106991041021008001041001MA1999999098771MD1999999-0091REMSYN011333   59009
0124825860999991986012218004-05200-039300FM-12+019999999V0200901N00511220001CN0200001N9+03341+01711100801ADDAA106000191AG10999AY151061AY251061GF104991021011008001041001MA1999999098461MD1999999+0101MW1011REMSYN017333   58010 69911
0143825860999991986012300004-05200-039300FM-12+019999999V0200901N00151012001CN9999999N9+02401+02351101221ADDAA106008091AG10999AY161061AY261061GF106991061081008001001001KA1240M+03401MA1999999098841MD1999999+0211MW1021REMSYN023333   10340 58021 60081
0121825860999991986012312004-05200-039300FM-12+019999999V0200901N00461012001CN0040001N9+02621+02011101381ADDAA124008091AG10999GF106991061081008001001001KA1240N+02181MA1999999098981MD1999999+0141REMSYN023333   20218 58014 60084
0096825860999991986012318004-05200-039300FM-12+019999999V0200901N00411045001CN0200001N9+03281+01621100921ADDAA106000091AG10999GF106991041021008001041011MA1999999098561MD1999999+0101REMSYN011333   58010
0115825860999991986012400004-05200-039300FM-12+019999999V0200501N00261220001CN9999999N9+02761+01971101131ADDAA106000091AG10999GF104991021011008001041011KA1240M+03361MA1999999098761MD1999999+0081REMSYN017333   10336 58008
0115825860999991986012412004-05200-039300FM-12+019999999V0200901N00411220001CN0200001N9+02721+02101101261ADDAA106000091AG10999GF104991041021008001001001KA1240N+02261MA1999999098891MD1999999-0091REMSYN017333   20226 59009
0115825860999991986012500004-05200-039300FM-12+019999999V0200501N00571220001CN9999999N9+02871+02041100991ADDAA106000091AG10999GF100991001001999999001001KA1240M+03561MA1999999098621MD1999999-0131REMSYN017333   10356 59013
0115825860999991986012512004-05200-039300FM-12+019999999V0200901N00361105001CN0200001N9+02721+02001101131ADDAA106000091AG10999GF106991021011008001041041KA1240N+02291MA1999999098241MD1999999-0121REMSYN017333   20229 59012
0096825860999991986012518004-05200-039300FM-12+019999999V0200901N00361220001CN0200001N9+03401+01181100671ADDAA106000091AG10999GF103991011011008001041011MA1999999098331MD1999999-0071REMSYN011333   59007
0115825860999991986012600004-05200-039300FM-12+019999999V0200501N00571220001CN9999999N9+02841+01881100941ADDAA106000091AG10999GF100991001001999999001001KA1240M+03481MA1999999098581MD1999999-0051REMSYN017333   10348 59005
0115825860999991986012612004-05200-039300FM-12+019999999V0200901N00361220001CN0200001N9+02801+01921101131ADDAA106000091AG10999GF103991011011008001001011KA1240N+02291MA1999999098771MD1410001+0001REMSYN017333   20229 58000
0096825860999991986012618004-05200-039300FM-12+019999999V0200901N00311220001CN0200001N9+03521+01391100621ADDAA106000091AG10999GF103991021011008001001011MA1999999098281MD1999999-0051REMSYN011333   59005
0115825860999991986012700004-05200-039300FM-12+019999999V0200501N00671220001CN9999999N9+02821+01891100861ADDAA106000091AG10999GF100991001001999999001001KA1240M+03561MA1999999098511MD1999999-0071REMSYN017333   10356 59007
0115825860999991986012712004-05200-039300FM-12+019999999V0200501N00261220001CN0200001N9+02801+02001101111ADDAA106000091AG10999GF104991011011008001001011KA1240N+02221MA1999999098751MD1999999-0031REMSYN017333   20222 59003
0096825860999991986012718004-05200-039300FM-12+019999999V0200501N00311045001CN0200001N9+03361+01651100721ADDAA106000091AG10999GF106991041021008001011001MA1999999098381MD1999999+0101REMSYN011333   58010
0115825860999991986012800004-05200-039300FM-12+019999999V0200501N00361045001CN9999999N9+02841+01911101041ADDAA106000091AG10999GF105991041021008001011001KA1240M+03521MA1999999098681MD1999999+0171REMSYN017333   10352 58017
0143825860999991986012812004-05200-039300FM-12+019999999V0201801N00051007501CN0200001N9+02721+02171101221ADDAA124002091AG10999AY161061AY261061GF107991071051008001999999KA1240N+02191MA1999999098841MD1999999+0091MW1021REMSYN023333   20219 58009 60024
0096825860999991986012818004-05200-039300FM-12+019999999V0201401N00211045001CN0200001N9+03061+01831100861ADDAA106000091AG10999GF107991041021008001011001MA1999999098501MD1999999+0121REMSYN011333   58012
0115825860999991986012900004-05200-039300FM-12+019999999V0200501N00211220001CN9999999N9+02601+02101101101ADDAA106000091AG10999GF102991021011008001001001KA1240M+03091MA1999999098711MD1999999+0031REMSYN017333   10309 58003
0115825860999991986012912004-05200-039300FM-12+019999999V0200501N00211012001CN0200001N9+02541+02111101201ADDAA106000091AG10999GF105991051081008001001001KA1240N+02291MA1999999098821MD1999999-0021REMSYN017333   20229 59002
0096825860999991986012918004-05200-039300FM-12+019999999V0201401N00311220001CN0200001N9+03301+01721100671ADDAA106000091AG10999GF103991031021008001001001MA1999999098331MD1999999-0171REMSYN011333   59017
0115825860999991986013000004-05200-039300FM-12+019999999V0200501N00211007501CN9999999N9+02581+02171101071ADDAA106000091AG10999GF108991081051008001999999KA1240M+03351MA1999999098691MD1999999-0021REMSYN017333   10335 59002
0171825860999991986013012004-05200-039300FM-12+019999999V0200901N00261012001CN0200001N9+02601+02191101091ADDAA124001091AG10999AY161061AY261061GF107991071081008001001001KA1240N+02291MA1999999098701MD1999999-0121ME1100079MW1021REMSYN023333   20229 59012 60014EQDQ01+999990APOSLP
0096825860999991986013018004-05200-039300FM-12+019999999V0200501N00721012001CN0200001N9+02981+02121100671ADDAA106000091AG10999GF107991051081008001041001MA1999999098311MD1999999-0021REMSYN011333   59002
0143825860999991986013100004-05200-039300FM-12+019999999V0203601N00311007501CN9999999N9+02321+02201101081ADDAA106004091AG10999AY191061AY261061GF108991051071008001021999KA1240M+03301MA1999999098681MD1999999-0011MW1021REMSYN023333   10330 59001 60041
0143825860999991986013112004-05200-039300FM-12+019999999V0201801N00101007501CN0200001N9+02491+02151101161ADDAA124004091AG10999AY151061AY221061GF108991051071008001011999KA1240N+02201MA1999999098761MD1999999+0061MW1031REMSYN023333   20220 58006 60044
0124825860999991986013118004-05200-039300FM-12+019999999V0200501N00411004201CN0020001N9+02341+02291100881ADDAA106004091AG10999AY121061AY221061GF108991051071004501021999MA1999999098481MD1999999+0171MW1611REMSYN017333   58017 60041
0143825860999991986020112004-05200-039300FM-12+019999999V0202301N00051007501CN0020001N9+02221+02141101391ADDAA124059091AG10999AY161061AY261061GF108991051071008001021999KA1240N+02041MA1999999098971MD1999999+0211MW1611REMSYN023333   20204 58021 60594
0096825860999991986020218004-05200-039300FM-12+019999999V0200901N00311045001CN0200001N9+02821+01891100961ADDAA106000091AG10999GF105991041021008001071001MA1999999098581MD1999999-0191REMSYN011333   59019
0115825860999991986020300004-05200-039300FM-12+019999999V0203601N00051220001CN9999999N9+02481+02091101101ADDAA106000091AG10999GF100991001001999999001001KA1240M+02871MA1999999098701MD1999999-0191REMSYN017333   10287 59019
0143825860999991986020312004-05200-039300FM-12+019999999V0202401N00051045001CN0200001N9+02301+02181101271ADDAA124007091AG10999AY161061AY221061GF108991031061008001071999KA1240N+02041MA1999999098871MD1999999+0081MW1021REMSYN023333   20204 58008 60074
0096825860999991986020318004-05200-039300FM-12+019999999V0200901N00361220001CN0200001N9+03001+01811100781ADDAA106000091AG10999GF102991021021008001001001MA1999999098421MD1999999-0161REMSYN011333   59016
0115825860999991986020400004-05200-039300FM-12+019999999V0200501N00411220001CN9999999N9+02601+02101101061ADDAA106000091AG10999GF104991041041008001001001KA1240M+03061MA1999999098661MD1999999-0041REMSYN017333   10306 59004
0115825860999991986020412004-05200-039300FM-12+019999999V0200901N00311220001CN0200001N9+02641+02121101341ADDAA106000091AG10999GF106991041041008001001011KA1240N+02311MA1999999098961MD1999999+0091REMSYN017333   20231 58009
0096825860999991986020418004-05200-039300FM-12+019999999V0200901N00261045001CN0200001N9+03101+01731100911ADDAA106000091AG10999GF107991041021008001061011MA1999999098551MD1999999+0131REMSYN011333   58013
0137825860999991986020500004-05200-039300FM-12+019999999V0200501N00261220001CN9999999N9+02661+02141101201ADDAA106000091AG10999AY121061AY221061GF104991021031008001071001KA1240M+03141MA1999999098821MD1999999+0161MW1131REMSYN017333   10314 58016
0115825860999991986020512004-05200-039300FM-12+019999999V0200901N00151007501CN0200001N9+02631+02051101361ADDAA106000091AG10999GF108991051041008001001041KA1240N+02301MA1999999098981MD1999999+0021REMSYN017333   20230 58002
0135825860999991986020518004-05200-039300FM-12+019999999V0200501N00361007501CN0040001N9+02881+02161100891ADDAA106000291AA299000391AG10999AY151061AY221061GF108991051031008001061031MA1999999098531MD1999999-0021MW1151REMSYN017333   59002 69921
0154825860999991986020600004-05200-039300FM-12+019999999V0200501N00211007501CN9999999N9+02381+02331101231ADDAA106000291AA299000391AG10999AY151061AY221061GF108991051031008001001031KA1240M+03041MA1999999098841MD1999999+0021MW1201REMSYN023333   10304 58002 69921
0132825860999991986020612004-05200-039300FM-12+019999999V0202301N00151007501CN0200001N9+02541+02151101361ADDAA124000691AA299000591AG10999GF107991051051008001001041KA1240N+02211MA1999999098961MD1999999-0021REMSYN023333   20221 59002 69964
0118825860999991986020618004-05200-039300FM-12+019999999V0201801N00261007501CN0040001N9+02981+02041100891ADDAA106000091AG10999AY121061AY221061GF107991051031008001061001MA1999999098531MD1410001+0001MW1151REMSYN011333   58000
0143825860999991986020712004-05200-039300FM-12+019999999V0200901N00151045001CN0200001N9+02501+02191101381ADDAA124011091AG10999AY191061AY221061GF108991041021008001061041KA1240N+02221MA1999999098971MD1999999+0011MW1021REMSYN023333   20222 58001 60114
0096825860999991986020718004-05200-039300FM-12+019999999V0201401N00211220001CN0200001N9+03041+01971100921ADDAA106000091AG10999GF106991041031008001001011MA1999999098561MD1999999+0031REMSYN011333   58003
0143825860999991986020900004-05200-039300FM-12+019999999V0201801N00211007501CN9999999N9+02421+02371101171ADDAA106008091AG10999AY161061AY261061GF108991081031008001999999KA1240M+03181MA1999999098791MD1999999-0151MW1131REMSYN023333   10318 59015 60081
0113825860999991986020912004-05200-039300FM-12+019999999V0200901N00361012001CN0200001N9+02581+02251101201ADDAA106000091AA224008091AG10999GF106991061081008001001001MA1999999098811MD1999999-0091REMSYN017333   59009 60084
0115825860999991986020918004-05200-039300FM-12+019999999V0200901N00361012001CN0200001N9+03061+01731100931ADDAA106000091AG10999GF106991061081008001001001MA1999999098581MD1999999+0101REMSYN011333   58010EQDQ01+999990APOSP 
0115825860999991986021000004-05200-039300FM-12+019999999V0203601N00051105001CN9999999N9+02621+01981101721ADDAA106000091AG10999GF105991011011008001041011KA1240M+03121MA1999999098651MD1999999-0141REMSYN017333   10312 59014
0143825860999991986021012004-05200-039300FM-12+019999999V0200901N00361012001CN0200001N9+02601+02191101221ADDAA106000091AG10999GF106991061081008001001001KA1240N+02291MA1999999098821MD1999999+0011ME1100209REMSYN017333   20229 58001EQDQ01+999990APOSLP
0096825860999991986021018004-05200-039300FM-12+019999999V0201801N00361220001CN0200001N9+03161+01921100831ADDAA106000091AG10999GF104991041021008001001001MA1999999098481MD1999999-0091REMSYN011333   59009
0115825860999991986021100004-05200-039300FM-12+019999999V0200501N00051220001CN9999999N9+02661+02001101041ADDAA106000091AG10999GF100991001001999999001001KA1240M+03201MA1999999098671MD1999999+0021REMSYN017333   10320 58002
0134825860999991986021112004-05200-039300FM-12+019999999V0200501N00211007501CN0200001N9+02591+02231101351ADDAA106000091AG10999GF107991051021008001001041KA1240N+02251MA1999999098951MD1999999+0131REMSYN017333   20225 58013EQDQ01+999990APOSLP
0124825860999991986021118004-05200-039300FM-12+019999999V0200901N00151004201CN0020001N9+02681+02331101031ADDAA106002091AG10999AY161061AY221061GF108991061031004501021999MA1999999098651MD1999999+0171MW1951REMSYN017333   58017 60021
0115825860999991986021200004-05200-039300FM-12+019999999V0202301N00051015001CN9999999N9+02301+02231101321ADDAA106000091AG10999GF108991081001017501071999KA1240M+03051MA1999999098921MD1999999+0251REMSYN017333   10305 58025
0121825860999991986021212004-05200-039300FM-12+019999999V0209991C00001220001CN0200001N9+02541+02041101441ADDAA124002091AG10999GF107991031041008001001041KA1240N+02071MA1999999099031MD1999999+0081REMSYN023333   20207 58008 60024
0154825860999991986021300004-05200-039300FM-12+019999999V0200901N00411007501CN9999999N9+02481+02381101361ADDAA106000491AA299000591AG10999AY121061AY221061GF108991081091008001999999KA1240M+03161MA1999999098961MD1999999+0041MW1171REMSYN023333   10316 58004 69941
0143825860999991986021312004-05200-039300FM-12+019999999V0209991C00001045001CN0200001N9+02521+02191101371ADDAA124001091AG10999AY191061AY221061GF106991041041008001041001KA1240N+02111MA1999999098971MD1999999+0041MW1031REMSYN023333   20211 58004 60014
0124825860999991986021318004-05200-039300FM-12+019999999V0201401N00151007501CN0200001N9+03051+02121100941ADDAA106999929AG10999AY121061AY221061GF107991051031008001001031MA1999999098571MD1999999-0071MW1511REMSYN017333   59007 69901
0137825860999991986021400004-05200-039300FM-12+019999999V0200901N00211007501CN9999999N9+02521+02341101211ADDAA106000091AG10999AY121061AY221061GF108991051031008001001031KA1240M+03121MA1999999098821MD1999999-0141MW1131REMSYN017333   10312 59014
0121825860999991986021412004-05200-039300FM-12+019999999V0201401N00051007501CN0200001N9+02511+02191101191ADDAA124002091AG10999GF107991051051008001001011KA1240N+02191MA1999999098801MD1999999-0171REMSYN023333   20219 59017 60024
0118825860999991986021418004-05200-039300FM-12+019999999V0202301N00101007501CN0040001N9+02841+02241100931ADDAA106000091AG10999AY121061AY221061GF108991051031008001001031MA1999999098551MD1999999-0021MW1151REMSYN011333   59002
0137825860999991986021500004-05200-039300FM-12+019999999V0200501N00051105001CN9999999N9+02401+02331101171ADDAA106000091AG10999AY121061AY221061GF106991041031008001001031KA1240M+03141MA1999999098771MD1999999-0051MW1131REMSYN017333   10314 59005
0124825860999991986021518004-05200-039300FM-12+019999999V0200901N00211045001CN0020001N9+02361+02281101151ADDAA106004091AG10999AY191061AY261061GF108991031071004501021999MA1999999098751MD1999999+0201MW1611REMSYN017333   58020 60041
0137825860999991986021600004-05200-039300FM-12+019999999V0209991C00001105001CN9999999N9+02341+02291101251ADDAA106000091AG10999AY121061AY221061GF107991041031008001001031KA1240M+02741MA1999999098851MD1999999+0081MW1131REMSYN017333   10274 58008
0121825860999991986021612004-05200-039300FM-12+019999999V0202301N00051012001CN0200001N9+02421+02281101331ADDAA124011091AG10999GF107991071081008001001001KA1240N+02151MA1999999098931MD1999999-0021REMSYN023333   20215 59002 60114
0096825860999991986021618004-05200-039300FM-12+019999999V0201401N00261220001CN0200001N9+03181+01691100861ADDAA106000091AG10999GF104991041021008001001001MA1999999098501MD1999999-0051REMSYN011333   59005
0115825860999991986021700004-05200-039300FM-12+019999999V0200901N00051007501CN9999999N9+02401+02261101201ADDAA106000091AG10999GF107991071051008001001001KA1240M+03181MA1999999098801MD1999999-0051REMSYN017333   10318 59005
0143825860999991986021712004-05200-039300FM-12+019999999V0201401N00051007501CN0010001N9+02401+02261101231ADDAA124013091AG10999AY151061AY251061GF108991061071008001021999KA1240N+02231MA1999999098831MD1999999-0101MW1611REMSYN023333   20223 59010 60134
0115825860999991986021800004-05200-039300FM-12+019999999V0203601N00151220001CN9999999N9+02361+02221101021ADDAA106000091AG10999GF102991021011008001001001KA1240M+03091MA1999999098621MD1999999-0181REMSYN017333   10309 59018
0121825860999991986021812004-05200-039300FM-12+019999999V0202701N00051007501CN0200001N9+02491+02011102081ADDAA124007091AG10999GF108991051061008001071999KA1240N+02231MA1999999098681MD1999999-0151REMSYN023333   20223 59015 60074
0124825860999991986021815004-05200-039300FM-12+019999999V0201401N00311105001CN0200001N9+02811+02081100951ADDAA106002091AG10999AY161031AY221031GF108991041021008001001071MA1999999098571MD1999999-0181MW1031REMSYN017333   59018 60021
0096825860999991986021818004-05200-039300FM-12+019999999V0201401N00261105001CN0200001N9+03001+01881100661ADDAA106000091AG10999GF108991041031008001001071MA1999999098301MD1999999-0201REMSYN011333   59020
0115825860999991986021900004-05200-039300FM-12+019999999V0203201N00051220001CN9999999N9+02481+02091100921ADDAA106000091AG10999GF107991001001999999001041KA1240M+03031MA1999999098531MD1999999-0091REMSYN017333   10303 59009
0121825860999991986021912004-05200-039300FM-12+019999999V0201401N00261007501CN0200001N9+02521+02151101061ADDAA124002091AG10999GF108991051021008001001071KA1240N+02191MA1999999098671MD1999999-0011REMSYN023333   20219 59001 60024
0096825860999991986021918004-05200-039300FM-12+019999999V0201401N00361045001CN0200001N9+03081+01641100691ADDAA106000091AG10999GF106991031021008001051041MA1999999098331MD1999999+0031REMSYN011333   58003
0137825860999991986022000004-05200-039300FM-12+019999999V0203601N00151105001CN9999999N9+02561+01991100821ADDAA106000091AG10999AY121061AY221061GF107991031031008001001031KA1240M+03121MA1999999098441MD1999999-0091MW1131REMSYN017333   10312 59009
0143825860999991986022012004-05200-039300FM-12+019999999V0200901N00261007501CN0200001N9+02611+02211101051ADDAA124000191AG10999AY151061AY221061GF108991081051008001001001KA1240N+02321MA1999999098681MD1999999+0011MW1021REMSYN023333   20232 58001 69914
0096825860999991986022018004-05200-039300FM-12+019999999V0200901N00311105001CN0200001N9+03101+01901100751ADDAA106000091AG10999GF108991041021008001001071MA1999999098391MD1999999+0061REMSYN011333   58006
0124825860999991986022118004-05200-039300FM-12+019999999V0201401N00361045001CN0200001N9+03011+01941100771ADDAA106000191AG10001AY151061AY221061GF107991041021008001061031MA1999999098411MD1999999+0021MW1021REMSYN017333   58002 69911
0115825860999991986022200004-05200-039300FM-12+019999999V0200501N000519999999N9999999N9+02541+02231101051ADDAA106000091AG10999GF108991081001012501071999KA1240M+03121MA1999999098681MD1999999+0101REMSYN017333   10312 58010
0121825860999991986022212004-05200-039300FM-12+019999999V0201401N00101220001CN0200001N9+02671+02041101221ADDAA124000191AG10999GF104991041021008001001001KA1240N+02251MA1999999098841MD1999999+0051REMSYN023333   20225 58005 69914
0096825860999991986022218004-05200-039300FM-12+019999999V0201401N00311105001CN0200001N9+03151+01731100781ADDAA106000091AG10999GF106991041021008001001031MA1999999098421MD1999999+0011REMSYN011333   58001
0115825860999991986022300004-05200-039300FM-12+019999999V0200501N00151045001CN9999999N9+02621+02121101031ADDAA106000091AG10999GF107991041011008001061031KA1240M+03201MA1999999098661MD1999999-0021REMSYN017333   10320 59002
0115825860999991986022312004-05200-039300FM-12+019999999V0200901N00151012001CN0200001N9+02481+02111101041ADDAA106000091AG10999GF107991061081008001041001KA1240N+02301MA1999999098661MD1999999-0181REMSYN017333   20230 59018
0115825860999991986022400004-05200-039300FM-12+019999999V0200501N00571012001CN9999999N9+02671+02071101031ADDAA106000091AG10999GF106991061081008001001001KA1240M+03221MA1999999098651MD1999999-0011REMSYN017333   10322 59001
0147825860999991986022412004-05200-039300FM-12+019999999V0200901N003619999999N0200001N9+02601+99999999999ADDAA124000891AA299001091AG10999GF107991999999008001999999KA1240N+02381MD1410001+0001UG1010159999REMSYN04122223 39866 40103 333   20238 58000 69984
0096825860999991986022418004-05200-039300FM-12+019999999V0201401N00311220001CN0200001N9+03181+01731100631ADDAA106000091AG10999GF104991041021008001001001MA1999999098291MD1999999-0101REMSYN011333   59010
0137825860999991986022500004-05200-039300FM-12+019999999V0200501N00461220001CN9999999N9+02661+02091100811ADDAA106000091AG10999AY111061AY211061GF103991031031008001001001KA1240M+03221MA1999999098451MD1999999-0201MW1131REMSYN017333   10322 59020
0115825860999991986022512004-05200-039300FM-12+019999999V0200901N00361045001CN0200001N9+02671+02111100991ADDAA106000091AG10999GF108991041021008001061031KA1240N+02391MA1999999098631MD1999999-0031REMSYN017333   20239 59003
0096825860999991986022518004-05200-039300FM-12+019999999V0201401N00211105001CN0200001N9+03071+01871100561ADDAA106000091AG10999GF108991041021008001001031MA1999999098201MD1999999-0091REMSYN011333   59009
0115825860999991986022600004-05200-039300FM-12+019999999V0200501N00311045001CN9999999N9+02631+01981100751ADDAA106000091AG10999GF108991081001999999011999KA1240M+03121MA1999999098391MD1999999-0061REMSYN017333   10312 59006
0143825860999991986022612004-05200-039300FM-12+019999999V0200901N00261004201CN0010001N9+99999+99999101061ADDAA124012091AG10999AY121061AY221061GF108991081091004501999999KA1240N+02281MA1999999098671MD1999999+0041MW1951REMSYN023333   20228 58004 60124
0118825860999991986022618004-05200-039300FM-12+019999999V0201801N00311007501CN0040001N9+03021+02161100591ADDAA106000091AG10999AY121061AY221061GF108991051031008001061031MA1999999098231MD1999999+0031MW1151REMSYN011333   58003
0137825860999991986022700004-05200-039300FM-12+019999999V0200501N00261105001CN9999999N9+02521+02311100881ADDAA106000091AG10999AY121061AY221061GF108991041031008001001031KA1240M+03121MA1999999098491MD1999999+0101MW1131REMSYN017333   10312 58010
0143825860999991986022712004-05200-039300FM-12+019999999V0200501N00051007501CN0200001N9+02491+02221101051ADDAA124008091AG10999AY161061AY261061GF108991051071008001011999KA1240N+02181MA1999999098661MD1999999-0011MW1021REMSYN023333   20218 59001 60084
0124825860999991986022718004-05200-039300FM-12+019999999V0200501N00361004201CN0020001N9+02681+02391100671ADDAA106002091AG10999AY191061AY221061GF108991051091004501001031MA1999999098301MD1999999+0071MW1291REMSYN017333   58007 60021
0143825860999991986022800004-05200-039300FM-12+019999999V0209991C00001004201CN0100001N9+02191+02131101111ADDAA106010091AG10999AY191061AY291061GF108991081091004501999999KA1240M+03041MA1999999098711MD1999999+0221MW1611REMSYN023333   10304 58022 60101
0143825860999991986022812004-05200-039300FM-12+019999999V0202301N00051004201CN0200001N9+02321+02181101191ADDAA124035091AG10999AY191061AY261061GF108991061071004501021999KA1240N+02101MA1999999098781MD1999999+0121MW1021REMSYN023333   20210 58012 60354
0062825860999991986022818004-05200-039300FM-12+019999999V0203601N00361007501CN0200001N9+02741+02261100811ADDAA106000091AG10999GF108991051031008001071999MA1999999098421
0137825860999991986030100004-05200-039300FM-12+019999999V0203601N00511007501CN9999999N9+02321+02111101081ADDAA106000091AG10999AY121061AY221061GF108991051031008001011999KA1240M+02951MA1999999098681MD1999999-0031MW1131REMSYN017333   10295 59003
0096825860999991986030118004-05200-039300FM-12+019999999V0201801N00151045001CN0200001N9+03011+01881100721ADDAA106000091AG10999GF107991041021008001051011MA1999999098351MD1999999-0071REMSYN011333   59007
0137825860999991986030200004-05200-039300FM-12+019999999V0200501N00211220001CN9999999N9+02521+02231100941ADDAA106000091AG10999AY121061AY221061GF105991031031008001001041KA1240M+03061MA1999999098551MD1999999-0131MW1131REMSYN017333   10306 59013
0096825860999991986030218004-05200-039300FM-12+019999999V0201801N00211012001CN0200001N9+02961+01961100771ADDAA106000091AG10999GF106991051081008001041001MA1999999098411MD1999999+0061REMSYN011333   58006
0124825860999991986030318004-05200-039300FM-12+019999999V0202301N00101007501CN0200001N9+02641+02441100961ADDAA106004091AG10999AY161061AY261061GF108991051091008001021999MA1999999098571MD1999999+0161MW1171REMSYN017333   58016 60041
0143825860999991986030400004-05200-039300FM-12+019999999V0200901N00211045001CN9999999N9+02401+02261101381ADDAA106999929AG10999AY121061AY221061GF108991031051008001021999KA1240M+03041MA1999999098981MD1999999+0181MW1141REMSYN023333   10304 58018 69901
0130825860999991986030412004-05200-039300FM-12+019999999V0201401N00261007501CN0200001N9+02491+02231101431ADDAA124004091AG10999AY151061AY221061GF108991051071008001051031MA1999999099031MD1999999+0031MW1031REMSYN023333   2/222 58003 60044
0124825860999991986030418004-05200-039300FM-12+019999999V0200501N00151007501CN0040001N9+02381+02331101061ADDAA106009091AG10999AY191061AY261061GF108991051091008001041031MA1999999098661MD1999999+0091MW1951REMSYN017333   58009 60091
0143825860999991986030500004-05200-039300FM-12+019999999V0203601N00151045001CN9999999N9+02321+02271101421ADDAA106000191AG10999AY151061AY291061GF108991031031008001021999KA1240M+02901MA1999999099011MD1999999+0031MW1131REMSYN023333   10290 58003 69911
0115825860999991986030518004-05200-039300FM-12+019999999V0200501N00461045001CN0200001N9+02841+02311101051ADDAA106000091AG10999GF106991041081008001011001MA1999999098681MD1999999+0011REMSYN011333   58001EQDQ01+999990APOSP 
0121825860999991986030612004-05200-039300FM-12+019999999V0201801N00051045001CN0200001N9+02441+02231101341ADDAA124002091AG10999GF107991041051008001051001KA1240N+02121MA1999999098941MD1999999-0141REMSYN023333   20212 59014 60024
0096825860999991986030618004-05200-039300FM-12+019999999V0200901N00211045001CN0200001N9+02961+02071100861ADDAA106000091AG10999GF106991031031008001051031MA1999999098481MD1999999-0191REMSYN011333   59019
0115825860999991986030712004-05200-039300FM-12+019999999V0200501N00211007501CN0200001N9+02651+02201101101ADDAA106000091AG10999GF107991071051008001001001KA1240N+02281MA1999999098741MD1999999-0201REMSYN017333   20228 59020
0143825860999991986030900004-05200-039300FM-12+019999999V0202301N00101004201CN9999999N9+02401+02371101201ADDAA106018091AG10999AY191061AY261061GF108991051071004501021999KA1240M+02931MA1999999098801MD1999999+0181MW1131REMSYN023333   10293 58018 60181
0121825860999991986031012004-05200-039300FM-12+019999999V0200901N00261007501CN0200001N9+02451+02321101281ADDAA124026091AG10999GF108991081051008001999999KA1240N+02171MA1999999098881MD1410001+0001REMSYN023333   20217 58000 60264
0124825860999991986031018004-05200-039300FM-12+019999999V0201401N00051007501CN0200001N9+02411+02241101031ADDAA106003091AG10999AY161061AY261061GF108991051071008001021999MA1999999098631MD1999999+0081MW1021REMSYN017333   58008 60031
0115825860999991986031100004-05200-039300FM-12+019999999V0200501N00051007501CN9999999N9+02351+02241101121ADDAA106000091AG10999GF108991081051008001999999KA1240M+02531MA1999999098721MD1999999-0031REMSYN017333   10253 59003
0121825860999991986031112004-05200-039300FM-12+019999999V0200901N00101007501CN0200001N9+02471+02191101151ADDAA124003091AG10999GF108991081051008001999999KA1240N+02161MA1999999098751MD1999999-0131REMSYN023333   20216 59013 60034
0154825860999991986031118004-05200-039300FM-12+019999999V0200501N00211045001CN0040001N9+02761+02191100771ADDAA106999929AA299999999AG10999AY121061AY221061GF108991041091008001051031MA1999999098391MD1999999-0241MW1511REMSYN017333   59024 69901EQDQ01  00002PRCP99
0137825860999991986031200004-05200-039300FM-12+019999999V0202701N00051007501CN9999999N9+02451+02271101101ADDAA106000091AG10999AY121061AY221061GF108991051031008001021999KA1240M+02881MA1999999098701MD1999999-0021MW1131REMSYN017333   10288 59002
0154825860999991986031212004-05200-039300FM-12+019999999V0200501N00051007501CN0200001N9+02421+02251101181ADDAA124000291AA299000391AG10999AY121061AY221061GF108991081051008001999999KA1240N+02291MA1999999098781MD1999999+0031MW1201REMSYN023333   20229 58003 69924
0124825860999991986031218004-05200-039300FM-12+019999999V0202701N00211045001CN0040001N9+02531+02361100791ADDAA106002091AG10999AY161061AY261061GF108991041091008001021999MA1999999098411MD1999999+0021MW1171REMSYN017333   58002 60021
0143825860999991986031300004-05200-039300FM-12+019999999V0202301N00101004201CN9999999N9+02221+02191101141ADDAA106010091AG10999AY191061AY261061GF108991051031004501021999KA1240M+02781MA1999999098741MD1999999+0041MW1211REMSYN023333   10278 58004 60101
0096825860999991986031318004-05200-039300FM-12+019999999V0200901N00101007501CN0200001N9+02871+01981100761ADDAA106000091AG10999GF108991051031008001001031MA1999999098381MD1999999-0031REMSYN011333   59003
0137825860999991986031400004-05200-039300FM-12+019999999V0200501N00151045001CN9999999N9+02331+02251101121ADDAA106000091AG10999AY121061AY221061GF108991041031008001021999KA1240M+02971MA1999999098721MD1999999-0021MW1131REMSYN017333   10297 59002
0143825860999991986031412004-05200-039300FM-12+019999999V0202301N00151007501CN0200001N9+02481+02231101201ADDAA124000391AG10999AY151061AY251061GF108991051071008001021999KA1240N+02221MA1999999098801MD1999999+0021MW1031REMSYN023333   20222 58002 69934
0135825860999991986031418004-05200-039300FM-12+019999999V0200501N00101105001CN0200001N9+02901+02041100801ADDAA106000291AA299000391AG10999AY151061AY221061GF106991041021008001001031MA1999999098431MD1999999+0051MW1031REMSYN017333   58005 69921
0115825860999991986031500004-05200-039300FM-12+019999999V0202301N00101220001CN9999999N9+02501+02391101111ADDAA106000091AG10999GF100991001001999999001001KA1240M+02991MA1999999098211MD1999999-0011REMSYN017333   10299 59001
0132825860999991986031512004-05200-039300FM-12+019999999V0201401N00151105001CN0200001N9+02531+02291101141ADDAA124000291AA299000391AG10999GF106991041021008001001021KA1240N+02261MA1999999098751MD1999999+0051REMSYN023333   20226 58005 69924
0118825860999991986031518004-05200-039300FM-12+019999999V0201401N00361105001CN0040001N9+02991+02121100771ADDAA106000091AG10001AY121061AY221061GF105991031021008001001021MA1999999098411MD1999999-0021MW1161REMSYN011333   59002
0137825860999991986031600004-05200-039300FM-12+019999999V0203601N00101220001CN9999999N9+02441+02301101041ADDAA106000091AG10999AY121061AY221061GF102991021021008001001001KA1240M+03121MA1999999098651MD1999999-0061MW1131REMSYN017333   10312 59006
0115825860999991986031612004-05200-039300FM-12+019999999V0200901N00211007501CN0200001N9+02541+02231101111ADDAA106000091AG10999GF106991061041008001001001KA1240N+02241MA1999999098721MD1999999-0031REMSYN017333   20224 59003
0096825860999991986031618004-05200-039300FM-12+019999999V0200901N00511220001CN0200001N9+03101+01701100761ADDAA106000091AG10001GF103991021021008001001011MA1999999098401MD1999999-0011REMSYN011333   59001
0137825860999991986031700004-05200-039300FM-12+019999999V0200501N00151220001CN9999999N9+02541+02211101021ADDAA106000091AG10999AY111061AY211061GF102991021031008001001001KA1240M+03131MA1999999098641MD1999999-0011MW1131REMSYN017333   10313 59001
0115825860999991986031712004-05200-039300FM-12+019999999V0200901N00151007501CN0200001N9+02601+02141101251ADDAA106000091AG10999GF107991071041008001001001KA1240N+02251MA1999999098871MD1999999+0151REMSYN017333   20225 58015
0096825860999991986031718004-05200-039300FM-12+019999999V0201401N00311220001CN0200001N9+03111+01871100741ADDAA106000091AG10999GF104991031021008001001011MA1999999098381MD1999999-0021REMSYN011333   59002
0143825860999991986031800004-05200-039300FM-12+019999999V0203601N00051045001CN9999999N9+02401+02171101131ADDAA124006091AG10999AY191061AY261061GF107991041031008001061031KA1240M+03151MA1999999098741MD1999999+0101MW1131REMSYN023333   10315 58010 60064
0143825860999991986031812004-05200-039300FM-12+019999999V0203201N00151105001CN0200001N9+02511+02231101261ADDAA124007091AG10999AY161061AY221061GF108991041031008001001071KA1240N+02221MA1999999098861MD1999999-0011MW1031REMSYN023333   20222 59001 60074
0118825860999991986031818004-05200-039300FM-12+019999999V0200901N00211007501CN0040001N9+03001+02141100921ADDAA106000091AG10999AY121061AY221061GF108991051091008001001031MA1999999098561MD1999999+0181MW1171REMSYN011333   58018
0137825860999991986031900004-05200-039300FM-12+019999999V0203601N00151220001CN9999999N9+02441+02211101061ADDAA106000091AG10999AY191061AY211061GF102991011031008001001031KA1240M+03041MA1999999098671MD1999999-0071MW1131REMSYN017333   10304 59007
0115825860999991986031912004-05200-039300FM-12+019999999V0200901N00311220001CN0200001N9+02711+02111101231ADDAA106000091AG10999GF106991041021008001001011KA1240N+02321MA1999999098851MD1999999-0011REMSYN017333   20232 59001
0137825860999991986032000004-05200-039300FM-12+019999999V0200501N00361007501CN9999999N9+02561+02251101081ADDAA106000091AG10999AY121061AY221061GF108991051031008001011999KA1240M+03021MA1999999098711MD1999999+0041MW1131REMSYN017333   10302 58004
0143825860999991986032012004-05200-039300FM-12+019999999V0200901N00311045001CN0200001N9+02571+02271101201ADDAA124004091AG10999AY191061AY221061GF108991041041008001051031KA1240N+02221MA1999999098821MD1999999-0031MW1031REMSYN023333   20222 59003 60044
0137825860999991986032100004-05200-039300FM-12+019999999V0200901N00051105001CN9999999N9+02421+02331101061ADDAA106000091AG10999AY121061AY221061GF106991031031008001001031KA1240M+03101MA1999999098671MD1999999-0041MW1131REMSYN017333   10310 59004
0121825860999991986032112004-05200-039300FM-12+019999999V0200901N00211007501CN0200001N9+02601+02171101141ADDAA124000191AG10999GF107991051051008001001011KA1240N+02211MA1999999098751MD1999999-0071REMSYN023333   20221 59007 69914
0118825860999991986032118004-05200-039300FM-12+019999999V0201801N00051007501CN0040001N9+02781+02111100811ADDAA106000091AG10999AY121061AY221061GF107991051091008001061031MA1999999098431MD1999999+0071MW1171REMSYN011333   58007
0143825860999991986032200004-05200-039300FM-12+019999999V0203601N000519999999N9999999N9+02281+02231101131ADDAA106005091AG10999AY191061AY261061GF107991031001008001041031KA1240M+02891MA1999999098731MD1999999+0061MW1011REMSYN023333   10289 58006 60051
0143825860999991986032212004-05200-039300FM-12+019999999V0200901N00311007501CN0200001N9+02621+02181101191ADDAA124005091AG10999AY151061AY221061GF105991051021008001001001KA1240N+02211MA1999999098791MD1999999+0041MW1031REMSYN023333   20221 58004 60054
0124825860999991986032218004-05200-039300FM-12+019999999V0202301N00101105001CN0040001N9+02791+02301100761ADDAA106004091AG10999AY121061AY221061GF106991041031008001001031MA1999999098381MD1999999-0051MW1211REMSYN017333   59005 60041
0143825860999991986032312004-05200-039300FM-12+019999999V0202701N00051007501CN0200001N9+02501+02111101331ADDAA124004091AG10999AY121061AY261061GF108991061021008001091999KA1240N+02191MA1999999098931MD1999999+0141MW1021REMSYN023333   20219 58014 60044
0096825860999991986032318004-05200-039300FM-12+019999999V0202301N00051007501CN0200001N9+02931+01921100801ADDAA106000091AG10999GF106991051031008001041001MA1999999098431MD1999999+0051REMSYN011333   58005
0143825860999991986032400004-05200-039300FM-12+019999999V0203601N00411007501CN9999999N9+02311+02231101221ADDAA106014091AG10999AY191061AY261061GF108991051091008001021999KA1240M+03191MA1999999098821MD1999999+0081MW1951REMSYN023333   10319 58008 60141
0143825860999991986032412004-05200-039300FM-12+019999999V0201801N00051007501CN0200001N9+02401+02191101271ADDAA124022091AG10999AY161061AY221061GF108991061011008001011999KA1240N+02111MA1999999098871MD1999999-0061MW1021REMSYN023333   20211 59006 60224
0124825860999991986032418004-05200-039300FM-12+019999999V0200501N00101045001CN0040001N9+02541+02331100881ADDAA106003091AG10999AY161061AY221061GF108991041031008001041031MA1999999098481MD1999999+0051MW1151REMSYN017333   58005 60031
0143825860999991986032500004-05200-039300FM-12+019999999V0200501N00101007501CN9999999N9+02311+02251101161ADDAA106001091AG10999AY161061AY221061GF108991051091008001021999KA1240M+02801MA1999999098761MD1999999-0061MW1171REMSYN023333   10280 59006 60011
0143825860999991986032512004-05200-039300FM-12+019999999V0201401N00151007501CN0040001N9+02361+02291101221ADDAA124011091AG10999AY191061AY261061GF108991051071008001021999KA1240N+02211MA1999999098821MD1999999-0051MW1201REMSYN023333   20221 59005 60114
0124825860999991986032518004-05200-039300FM-12+019999999V0200501N00411045001CN0040001N9+02681+02201100851ADDAA106004091AG10001AY161061AY261061GF108991041031008001091031MA1999999098471MD1999999-0011MW1151REMSYN017333   59001 60041
0115825860999991986032600004-05200-039300FM-12+019999999V0203201N00101015001CN9999999N9+02361+02261101161ADDAA106000091AG10999GF108991081001017501071999KA1240M+02701MA1999999098761MD1999999+0001REMSYN017333   10270 58000
0118825860999991986032618004-05200-039300FM-12+019999999V0202301N00151045001CN0040001N9+02741+02101100811ADDAA106000091AG10999AY121061AY221061GF108991041031008001061031MA1999999098431MD1999999-0041MW1151REMSYN011333   59004
0108825860999991986032712004-05200-039300FM-12+019999999V0201401N00151007501CN0200001N9+02481+02231101221ADDAA124005091AG10999GF108991081051008001999999MA1999999098821MD1999999-0011REMSYN023333   20/18 59001 60054
0096825860999991986032718004-05200-039300FM-12+019999999V0201401N00311045001CN0200001N9+02971+02051100821ADDAA106000091AG10999GF106991031021008001051031MA1999999098461MD1999999+0031REMSYN011333   58003
0137825860999991986032800004-05200-039300FM-12+019999999V0200901N00261045001CN9999999N9+02561+02251101131ADDAA106000091AG10999AY121061AY221061GF106991041031008001041031KA1240M+03021MA1999999098741MD1999999+0051MW1131REMSYN017333   10302 58005
0143825860999991986032812004-05200-039300FM-12+019999999V0200901N00361045001CN0200001N9+02711+02131101231ADDAA124000191AG10999AY151061AY211061GF107991041051008001051011KA1240N+02301MA1999999098851MD1999999+0031MW1031REMSYN023333   20230 58003 69914
0135825860999991986032818004-05200-039300FM-12+019999999V0200901N00361105001CN0200001N9+03051+02061100821ADDAA106000791AA299001091AG10999AY161061AY221061GF106991041031008001001031MA1999999098461MD1999999+0001MW1001REMSYN017333   58000 69971
0143825860999991986032900004-05200-039300FM-12+019999999V0200501N00151007501CN9999999N9+02451+02391101221ADDAA106004091AG10999AY161061AY221061GF108991081051008001999999KA1240M+03101MA1999999098841MD1999999+0101MW1021REMSYN023333   10310 58010 60041
0121825860999991986032912004-05200-039300FM-12+019999999V0201401N00101007501CN0100001N9+02621+02251101341ADDAA124004091AG10001GF108991061071008001021999KA1240N+02311MA1999999098951MD1999999+0101REMSYN023333   20231 58010 60044
0135825860999991986032918004-05200-039300FM-12+019999999V0200501N00361045001CN0200001N9+02801+02341100941ADDAA106000291AA299000091AG10999AY151061AY221061GF108991041031008001071031MA1999999098571MD1999999+0111MW1001REMSYN017333   58011 69921
0121825860999991986033012004-05200-039300FM-12+019999999V0201401N00211220001CN0200001N9+02601+02191101191ADDAA124002091AG10999GF106991041021008001001041KA1240N+02291MA1999999098801MD1999999-0151REMSYN023333   20229 59015 60024
0118825860999991986033018004-05200-039300FM-12+019999999V0200901N00101105001CN0040001N9+03091+02011100731ADDAA106000091AG10999AY121061AY221061GF106991041031008001001031MA1999999098371MD1999999-0201MW1151REMSYN011333   59020
0143825860999991986033112004-05200-039300FM-12+019999999V0201401N00151007501CN0200001N9+02481+02231101191ADDAA124055091AG10999AY161061AY261061GF108991061071008001021999KA1240N+02181MA1999999099791MD1999999-0011MW1011REMSYN023333   20218 59001 60554
0143825860999991986040100004-05200-039300FM-12+019999999V0200501N00101007501CN9999999N9+02391+02331101131ADDAA106012091AG10999AY161061AY221061GF108991061071008001021999KA1240M+02971MA1999999098731MD1999999+0061MW1021REMSYN023333   10297 58006 60121
0143825860999991986040112004-05200-039300FM-12+019999999V0201401N003619999999N0200001N9+02571+02211101141ADDAA124014091AG10999AY161061AY221061GF107991999999008001999999KA1240N+02261MA1999999098751MD1999999-0041MW1031REMSYN023333   20226 59004 60144
0135825860999991986040118004-05200-039300FM-12+019999999V0202301N00311045001CN0020001N9+02801+02361100651ADDAA106000291AA299000391AG10999AY151061AY251061GF107991041031008001061031MA1999999098281MD1999999-0071MW1161REMSYN017333   59007 69921
0143825860999991986040200004-05200-039300FM-12+019999999V0200901N00151004201CN0100001N9+02351+02311101111ADDAA106025091AG10999AY161061AY261061GF108991051071004501021999KA1240M+02961MA1999999098711MD1999999-0021MW1611REMSYN023333   10296 59002 60251
0143825860999991986040212004-05200-039300FM-12+019999999V0201401N00151045001CN0200001N9+02421+02211101101ADDAA124048091AG10999AY161061AY261061GF108991041061004501071999KA1240N+02181MA1999999098701MD1999999-0051MW1001REMSYN023333   20218 59005 60484
0118825860999991986040218004-05200-039300FM-12+019999999V0201401N00361045001CN0040001N9+02981+02041100701ADDAA106000091AG10999AY121061AY211061GF105991031031008001041031MA1999999098341MD1999999+0041MW1151REMSYN011333   58004
0143825860999991986040300004-05200-039300FM-12+019999999V0200901N00311007501CN0100001N9+02341+02261101141ADDAA106010091AG10999AY161061AY261061GF108991051071008001021999KA1240M+03021MA1999999098741MD1999999+0031MW1611REMSYN023333   10302 58003 60101
0096825860999991986040318004-05200-039300FM-12+019999999V0200901N00261045001CN0200001N9+02951+02111100771ADDAA106000091AG10999GF108991031021008001051031MA1999999098401MD1999999+0061REMSYN011333   58006
0134825860999991986040400004-05200-039300FM-12+019999999V0203601N00051220001CN9999999N9+02361+02191101071ADDAA106000091AG10999GF102991001001999999001031KA1240M+03001MA1999999098671MD1999999-0071REMSYN017333   10300 59007EQDQ01+000952SCOLCB
0104825860999991986040412004-05200-039300FM-12+019999999V0201801N00311045001CN0040001N9+02791+02341101091ADDAG10999GF106991031021008001051001KA1240N+02211MA1999999100371MD1999999-0151REMSYN017333   20221 59015
0115825860999991986040418004-05200-039300FM-12+019999999V0201401N00261220001CN0200001N9+02961+01681100761ADDAA106000091AG10999GF107991041051008001001011MA1999999098392MD1999999-0011REMSYN011333   59001EQDQ01+098393APOSP 
0134825860999991986040500004-05200-039300FM-12+019999999V0203201N00051220001CN9999999N9+02491+02151100851ADDAA106000091AG10999GF104991001001999999001041KA1240M+02991MA1999999098471MD1999999-0201REMSYN017333   10299 59020EQDQ01+000952SCOLCB
0143825860999991986040512004-05200-039300FM-12+019999999V0200901N00211007501CN0200001N9+02611+02231101011ADDAA124000191AG10999AY151061AY221061GF108991081051008001999999KA1240N+02221MA1999999098631MD1999999-0121MW1031REMSYN023333   20222 59012 69914
0118825860999991986040518004-05200-039300FM-12+019999999V0200501N00101007501CN0040001N9+02841+02221100631ADDAA106000091AG10999AY121061AY221061GF108991051091008001071999MA1999999098261MD1999999-0131MW1171REMSYN011333   59013
0143825860999991986040600004-05200-039300FM-12+019999999V0201801N00051220001CN9999999N9+02361+02331100951ADDAA106020091AG10999AY161061AY261061GF104991041001022501071001KA1240M+02901MA1999999098561MD1999999+0091MW1011REMSYN023333   10290 58009 60201
0121825860999991986040612004-05200-039300FM-12+019999999V0201401N00211007501CN0200001N9+02521+02231101191ADDAA124020091AG10999GF107991071051008001001001KA1240N+02211MA1999999098791MD1999999+0161REMSYN023333   20221 58016 60204
0135825860999991986040618004-05200-039300FM-12+019999999V0200901N00311045001CN0040001N9+02721+02391100821ADDAA106000291AA299000391AG10999AY121061AY221061GF108991041031008001071999MA1999999098431MD1999999+0171MW1201REMSYN017333   58017 69921
0134825860999991986040700004-05200-039300FM-12+019999999V0202301N00051220001CN9999999N9+02451+02351101021ADDAA106000091AG10999GF104991001001999999001031KA1240M+02821MA1999999098631MD1999999+0071REMSYN017333   10282 58007EQDQ01+000042SCOTLC
0132825860999991986040712004-05200-039300FM-12+019999999V0200901N00211007501CN0200001N9+02631+02211101191ADDAA106000091AA224000291AG10999GF107991051021008001001041KA1240N+02211MA1999999098811MD1999999+0021REMSYN023333   20221 58002 69924
0135825860999991986040718004-05200-039300FM-12+019999999V0200901N00571007501CN0040001N9+02861+02351100851ADDAA106000291AA299000391AG10999AY151061AY221061GF108991051031008001021021MA1999999098471MD1999999+0041MW1511REMSYN017333   58004 69921
0154825860999991986040800004-05200-039300FM-12+019999999V0201401N00051007501CN9999999N9+02381+02331101131ADDAA106000491AA299000591AG10999AY161061AY221061GF108991051051008001071999KA1240M+02971MA1999999098741MD1999999+0111MW1001REMSYN023333   10297 58011 69941
0143825860999991986040812004-05200-039300FM-12+019999999V0201401N00261007501CN0040001N9+02491+02361101261ADDAA124007091AG10999AY161061AY221061GF108991051051008001041999KA1240N+02281MA1999999098861MD1999999+0051MW1151REMSYN023333   20228 58005 60074
0096825860999991986040818004-05200-039300FM-12+019999999V0201401N00261105001CN0200001N9+02901+02121100741ADDAA106000091AG10999GF105991031021008001001031MA1999999098371MD1999999-0101REMSYN011333   59010
0121825860999991986040912004-05200-039300FM-12+019999999V0201401N00151007501CN0200001N9+02561+02271101141ADDAA124002091AG10999GF108991051051008001031999KA1240N+02281MA1999999098751MD1999999-0111REMSYN023333   20228 59011 60024
0124825860999991986040918004-05200-039300FM-12+019999999V0200501N00051045001CN0040001N9+02361+02261100811ADDAA106009091AG10999AY161061AY261061GF108991041031008001021999MA1999999098411MD1999999+0041MW1211REMSYN017333   58004 60091
0143825860999991986041012004-05200-039300FM-12+019999999V0201801N00151045001CN0200001N9+02541+02211101161ADDAA124026091AG10999AY191061AY261061GF108991041061004501041031KA1240N+02181MA1999999098761MD1999999+0011MW1001REMSYN023333   20218 58001 60264
0096825860999991986041018004-05200-039300FM-12+019999999V0200901N00151105001CN0200001N9+02981+02061100691ADDAA106000091AG10999GF107991041021008001001031MA1999999098331MD1999999-0081REMSYN011333   59008
0137825860999991986041100004-05200-039300FM-12+019999999V0209991C00001045001CN9999999N9+02421+02331101101ADDAA106000091AG10999AY121061AY221061GF108991041031008001071999KA1240M+03011MA1999999098711MD1999999-0071MW1131REMSYN017333   10301 59007
0115825860999991986041112004-05200-039300FM-12+019999999V0201401N00101220001CN0200001N9+02591+02171101151ADDAA106000091AG10999GF107991041081008001001041KA1240N+02261MA1999999098761MD1999999+0001REMSYN017333   20226 58000
0096825860999991986041118004-05200-039300FM-12+019999999V0201401N00361220001CN0200001N9+03041+01881100781ADDAA106000091AG10999GF103991021021008001001011MA1999999098421MD1999999+0091REMSYN011333   58009
0137825860999991986041200004-05200-039300FM-12+019999999V0200501N00311220001CN9999999N9+02481+02231101081ADDAA106000091AG10999AY121061AY211061GF103991031031008001001001KA1240M+03081MA1999999098701MD1999999-0011MW1131REMSYN017333   10308 59001
0143825860999991986041212004-05200-039300FM-12+019999999V0200901N00261220001CN0200001N9+02681+02241101231ADDAA124007091AG10999AY161061AY211061GF106991041021008001001011KA1240N+02181MA1999999098851MD1999999+0091MW1031REMSYN023333   20218 58009 60074
0131825860999991986041218004-05200-039300FM-12+019999999V0200901N00361105001CN0040001N9+02971+02351100941ADDAA106000091AG10999GF106991041021008001001021MA1999999098591MD1999999+0081REMSYN011333   58008EQDQ01+100213APOSP Q02+999990APOSP 
0143825860999991986041300004-05200-039300FM-12+019999999V0203601N00051220001CN9999999N9+02381+02331101081ADDAA106003091AG10999AY161061AY251061GF102991021041008001001001KA1240M+03071MA1999999098691MD1999999-0011MW1011REMSYN023333   10307 59001 60031
0143825860999991986041312004-05200-039300FM-12+019999999V0201401N00151007501CN0200001N9+02641+02231101151ADDAA124004091AG10999AY151061AY221061GF107991051021008001001011KA1240N+02291MA1999999098761MD1999999-0091MW1031REMSYN023333   20229 59009 60044
0124825860999991986041318004-05200-039300FM-12+019999999V0201801N00261007501CN0040001N9+02901+02221100651ADDAA106001091AG10999AY161061AY221061GF108991051031008001001041MA1999999098291MD1999999-0151MW1051REMSYN017333   59015 60011
0143825860999991986041400004-05200-039300FM-12+019999999V0201401N00101105001CN9999999N9+02361+02291101041ADDAA106015091AG10999AY191061AY261061GF106991031031004501001031KA1240M+02981MA1999999098651MD1999999-0041MW1131REMSYN023333   10298 59004 60151
0143825860999991986041412004-05200-039300FM-12+019999999V0201801N00151045001CN0010001N9+02381+02331101091ADDAA124021091AG10999AY161061AY261061GF108991041071004501021999KA1240N+02271MA1999999098691MD1999999-0071MW1611REMSYN023333   20227 59007 60214
0124825860999991986041418004-05200-039300FM-12+019999999V0203601N00151004201CN0020001N9+02401+02331100761ADDAA106032091AG10999AY191061AY261061GF108991081091004501999999MA1999999098361MD1999999+0071MW1951REMSYN017333   58007 60321
0143825860999991986041500004-05200-039300FM-12+019999999V0200901N00051045001CN9999999N9+02341+02291101131ADDAA106025091AG10999AY161061AY261061GF108991041071004501021999KA1240M+02791MA1999999098731MD1999999+0081MW1511REMSYN023333   10279 58008 60251
0143825860999991986041512004-05200-039300FM-12+019999999V0200901N00151007501CN0200001N9+02491+02231101111ADDAA124057091AG10999AY161061AY221061GF108991051051008001001041KA1240N+02181MA1999999098711MD1999999+0021MW1021REMSYN023333   20218 58002 60574
0135825860999991986041518004-05200-039300FM-12+019999999V0200901N00101045001CN0040001N9+02841+02241100701ADDAA106000691AA299000591AG10999AY161061AY221061GF107991041031008001041031MA1999999098331MD1999999-0031MW1151REMSYN017333   59003 69961
0143825860999991986041600004-05200-039300FM-12+019999999V0201401N00151004201CN9999999N9+02401+02331101111ADDAA106000391AG10999AY151061AY221061GF108991061071004501021999KA1240M+02931MA1999999098711MD1999999-0011MW1001REMSYN023333   10293 59001 69931
0143825860999991986041612004-05200-039300FM-12+019999999V0201401N00151004201CN9999999N9+02401+02331101111ADDAA106000391AG10999AY151061AY221061GF108991061071004501021999KA1240M+02931MA1999999098711MD1999999-0011MW1001REMSYN023333   10293 59001 69931
0096825860999991986041618004-05200-039300FM-12+019999999V0201401N00311045001CN0200001N9+02941+02161100811ADDAA106000091AG10999GF107991041031008001061041MA1999999098441MD1999999+0111REMSYN011333   58011
0137825860999991986041700004-05200-039300FM-12+019999999V0202301N00051045001CN9999999N9+02581+02421101111ADDAA106000091AG10999AY121061AY221061GF106991041031008001041041KA1240M+02971MA1999999098741MD1999999+0031MW1131REMSYN017333   10297 58003
0143825860999991986041712004-05200-039300FM-12+019999999V0201401N00151007501CN0200001N9+02501+02291101231ADDAA124006091AG10999AY161061AY221061GF108991081051008001999999KA1240N+02231MA1999999098851MD1999999+0031MW1021REMSYN023333   20223 58003 60064
0118825860999991986041718004-05200-039300FM-12+019999999V0200901N00261007501CN0040001N9+02991+02301100711ADDAA106000091AG10999AY121061AY221061GF108991051031008001041031MA1999999098351MD1999999-0091MW1161REMSYN011333   59009
0143825860999991986041812004-05200-039300FM-12+019999999V0201401N00261007501CN0200001N9+02461+02251101181ADDAA124027091AG10999AY151061AY221061GF108991081051008001999999KA1240N+02141MA1999999098781MD1999999-0071MW1021REMSYN023333   20214 59007 60274
0096825860999991986041818004-05200-039300FM-12+019999999V0201401N00311220001CN0200001N9+03001+02001100761ADDAA106000091AG10999GF104991031021008001001041MA1999999098391MD1999999+0041REMSYN011333   58004
0115825860999991986041900004-05200-039300FM-12+019999999V0202301N00051021001CN9999999N9+02581+02231101001ADDAA106000091AG10999GF105991051001022501031001KA1240M+03031MA1999999098611MD1999999-0191REMSYN017333   10303 59019
0115825860999991986041912004-05200-039300FM-12+019999999V0201801N00211007501CN0200001N9+02571+02191101141ADDAA106000091AG10001GF108991051041008001001041KA1240N+02121MA1999999098761MD1999999-0021REMSYN017333   20212 59002
0096825860999991986041918004-05200-039300FM-12+019999999V0201801N00211220001CN0200001N9+03001+01841100771ADDAA106000091AG10999GF107991031021008001001041MA1999999098391MD1999999+0001REMSYN011333   58000
0137825860999991986042000004-05200-039300FM-12+019999999V0202301N00051105001CN9999999N9+02431+02261101121ADDAA106000091AG10999AY121061AY211061GF106991021031008001061031KA1240M+03031MA1999999098731MD1999999+0121MW1131REMSYN017333   10303 58012
0115825860999991986042012004-05200-039300FM-12+019999999V0200901N00151012001CN0200001N9+02621+02211101251ADDAA106000091AG10999GF107991071081008001001001KA1240N+02261MA1999999098861MD1999999+0101REMSYN017333   20226 58010
0124825860999991986042018004-05200-039300FM-12+019999999V0201801N00311045001CN0200001N9+02701+02131100911ADDAA106004091AG10999AY161061AY261061GF106991041021008001011001MA1999999098521MD1999999+0131MW1011REMSYN017333   58013 60041
0137825860999991986042100004-05200-039300FM-12+019999999V0200901N00051105001CN9999999N9+02431+02321101121ADDAA106000091AG10999AY121061AY221061GF105991021031008001041031KA1240M+02771MA1999999098741MD1999999+0011MW1131REMSYN017333   10277 58001
0143825860999991986042112004-05200-039300FM-12+019999999V0200901N00051045001CN0200001N9+02361+02241101371ADDAA124049091AG10999AY191061AY261061GF108991041061008001051031KA1240N+02161MA1999999098961MD1999999+0101MW1001REMSYN023333   20216 58010 60494
0096825860999991986042118004-05200-039300FM-12+019999999V0200901N00151220001CN0200001N9+02991+02061100841ADDAA106000091AG10999GF106991041021008001001011MA1999999098481MD1999999-0041REMSYN011333   59004
0143825860999991986042212004-05200-039300FM-12+019999999V0200901N00151045001CN0200001N9+02481+02381101221ADDAA124045091AG10999AY191061AY261061GF108991041071008001061031KA1240N+02191MA1999999098841MD1999999-0121MW1001REMSYN023333   20219 59012 60454
0118825860999991986042218004-05200-039300FM-12+019999999V0201401N00311220001CN0100001N9+03021+02071100751ADDAA106000091AG10999AY121061AY211061GF104991021031008001001031MA1999999098391MD1999999-0091MW1151REMSYN011333   59009
0115825860999991986042300004-05200-039300FM-12+019999999V0200501N00151105001CN9999999N9+02471+02271101071ADDAA106000091AG10999GF107991001001999999001031KA1240M+03051MA1999999098681MD1999999-0111REMSYN017333   10305 59011
0115825860999991986042312004-05200-039300FM-12+019999999V0200901N00461007501CN0200001N9+02631+02121101191ADDAA106000091AG10999GF108991051051008001001041KA1240N+02221MA1999999098811MD1999999-0031REMSYN017333   20222 59003
0096825860999991986042318004-05200-039300FM-12+019999999V0200901N00211045001CN0200001N9+02941+02081100681ADDAA106000091AG10999GF107991041021008001061041MA1999999098321MD1999999-0071REMSYN011333   59007
0115825860999991986042400004-05200-039300FM-12+019999999V0203201N00151045001CN9999999N9+02431+02191101031ADDAA106000091AG10999GF108991011011008001061071KA1240M+02971MA1999999098651MD1999999-0031REMSYN017333   10297 59003
0096825860999991986042418004-05200-039300FM-12+019999999V0200901N00361105001CN0200001N9+03011+02141100681ADDAA106000091AG10999GF106991041021008001001091MA1999999098321MD1999999+0001REMSYN011333   58000
0115825860999991986042500004-05200-039300FM-12+019999999V0200501N00151045001CN9999999N9+02501+02311101121ADDAA106000091AG10999GF108991021011008001041031KA1240M+03071MA1999999098741MD1999999+0091REMSYN017333   10307 58009
0143825860999991986042512004-05200-039300FM-12+019999999V0200901N00361045001CN0200001N9+02521+02211101241ADDAA106009091AG10999AY161061AY261061GF108991041051008001031031KA1240N+02311MA1999999098851MD1999999+0061MW1021REMSYN023333   20231 58006 60091
0124825860999991986042518004-05200-039300FM-12+019999999V0201401N00411007501CN0040001N9+02521+02191100881ADDAA106005091AG10999AY161061AY221061GF108991051031008001061031MA1999999098501MD1999999+0181MW1211REMSYN017333   58018 60051
0143825860999991986042600004-05200-039300FM-12+019999999V0202301N00151045001CN9999999N9+02421+02351101141ADDAA106000391AG10999AY161061AY221061GF108991031041008001071999KA1240M+02931MA1999999098741MD1999999+0001MW1021REMSYN023333   10293 58000 69931
0121825860999991986042612004-05200-039300FM-12+019999999V0200901N00311045001CN0200001N9+02551+02311101201ADDAA124005091AG10999GF107991041051008001051031KA1240N+02231MA1999999098811MD1999999-0041REMSYN023333   20223 59004 60054
0096825860999991986042618004-05200-039300FM-12+019999999V0200901N00101105001CN0200001N9+02811+02361100851ADDAA106000091AG10999GF106991041031008001001031MA1999999098471MD1999999-0031REMSYN011333   59003
0115825860999991986042700004-05200-039300FM-12+019999999V0200501N00151105001CN9999999N9+02541+02441101071ADDAA106000091AG10999GF106991041021008001001031KA1240M+02981MA1999999098691MD1999999-0051REMSYN017333   10298 59005
0115825860999991986042712004-05200-039300FM-12+019999999V0201401N00261007501CN0200001N9+02611+02231101211ADDAA106000091AG10999GF108991081051008001999999KA1240N+02291MA1999999098831MD1999999+0021REMSYN017333   20229 58002
0096825860999991986042718004-05200-039300FM-12+019999999V0201401N00311220001CN0200001N9+03001+02171100771ADDAA106000091AG10999GF105991041021008001001011MA1999999098411MD1999999-0061REMSYN011333   59006
0115825860999991986042800004-05200-039300FM-12+019999999V0200501N00211007501CN9999999N9+02541+02401101051ADDAA106000091AG10999GF108991081051008001999999KA1240M+03051MA1999999098681MD1999999-0011REMSYN017333   10305 59001
0115825860999991986042812004-05200-039300FM-12+019999999V0200901N00261220001CN0200001N9+02791+02211101181ADDAA106000091AG10999GF106991041041008001001011KA1240N+02381MA1999999098821MD1999999-0011REMSYN017333   20238 59001
0096825860999991986042818004-05200-039300FM-12+019999999V0200901N00211220001CN0200001N9+03091+02131100751ADDAA106000091AG10999GF103991031021008001001001MA1999999098391MD1999999-0021REMSYN011333   59002
0154825860999991986042900004-05200-039300FM-12+019999999V0200501N00151220001CN9999999N9+02511+02411101141ADDAA106000291AA299000391AG10999AY151061AY221061GF104991041041008001001001KA1240M+03131MA1999999098761MD1999999+0081MW1011REMSYN023333   10313 58008 69921
0132825860999991986042912004-05200-039300FM-12+019999999V0200901N00361007501CN0200001N9+02661+02181101181ADDAA124000291AA299000391AG10999GF107991061051008001001011KA1240N+02331MA1999999098801MD1999999-0021REMSYN023333   20233 59002 69924
0124825860999991986042918004-05200-039300FM-12+019999999V0201401N00211007501CN0040001N9+03001+02221100761ADDAA106999929AG10999AY151061AY221061GF108991051031008001001031MA1999999098401MD1999999+0011MW1151REMSYN017333   58001 69901
0143825860999991986043000004-05200-039300FM-12+019999999V0201401N00051045001CN9999999N9+02401+02331101181ADDAA106002091AG10999AY191061AY261061GF108991041071008001021999KA1240M+03031MA1999999098801MD1999999+0041MW1211REMSYN023333   10303 58004 60021
0121825860999991986043012004-05200-039300FM-12+019999999V0201401N00151007501CN0200001N9+02421+02341101311ADDAA124002091AG10999GF108991081051008001999999KA1240N+02231MA1999999098911MD1999999+0111REMSYN023333   20223 58011 60024
0143825860999991986050100004-05200-039300FM-12+019999999V0209991C00001007501CN9999999N9+02411+02301101251ADDAA106003091AG10999AY191061AY221061GF108991051031008001021999KA1240M+02881MA1999999098851MD1999999+0051MW1131REMSYN023333   10288 58005 60031
0121825860999991986050112004-05200-039300FM-12+019999999V0201801N00151045001CN0200001N9+02521+02211101241ADDAA124003091AG10999GF105991031041008001041001KA1240N+02201MA1999999098841MD1999999-0071REMSYN023333   20220 59007 60034
0096825860999991986050118004-05200-039300FM-12+019999999V0201401N00311220001CN0200001N9+03041+02091100891ADDAA106000091AG10999GF104991021021008001061011MA1999999098531MD1999999-0041REMSYN011333   59004
0115825860999991986050200004-05200-039300FM-12+019999999V0203601N00151220001CN9999999N9+02561+02401101191ADDAA106000091AG10999GF102991021011008001001001KA1240M+03071MA1999999098811MD1999999-0041REMSYN017333   10307 59004
0143825860999991986050212004-05200-039300FM-12+019999999V0202301N00101007501CN0020001N9+02261+02231101421ADDAA124085091AG10999AY191061AY261061GF108991061071008001021999KA1240N+02191MA1999999099011MD1999999+0171MW1611REMSYN023333   20219 58017 60854
0124825860999991986050218004-05200-039300FM-12+019999999V0201801N00151045001CN0040001N9+02801+02311101001ADDAA106000191AG10999AY151061AY221061GF108991041031008001061031MA1999999098621MD1999999+0091MW1151REMSYN017333   58009 69911
0143825860999991986050312004-05200-039300FM-12+019999999V0201401N00151007501CN0100001N9+02441+02371101371ADDAA124028091AG10999AY161061AY261061GF108991051071008001021999KA1240N+02221MA1999999098961MD1999999-0051MW1211REMSYN023333   20222 59005 60284
0115825860999991986050400004-05200-039300FM-12+019999999V0200501N00051220001CN9999999N9+02411+02171101241ADDAA106000091AG10999GF100991001001999999001001KA1240M+02961MA1999999098841MD1999999-0131REMSYN017333   10296 59013
0115825860999991986050412004-05200-039300FM-12+019999999V0201401N00211007501CN0200001N9+02481+02221101251ADDAA106000091AG10999GF108991061051008001051999KA1240N+02071MA1999999098851MD1999999-0111REMSYN017333   20207 59011
0096825860999991986050418004-05200-039300FM-12+019999999V0201401N00361220001CN0200001N9+02981+02091100831ADDAA106000091AG10999GF104991031021008001001021MA1999999098451MD1999999-0151REMSYN011333   59015
0115825860999991986050500004-05200-039300FM-12+019999999V0203601N00101220001CN9999999N9+02461+02131101111ADDAA106000091AG10999GF100991001001999999001001KA1240M+03001MA1999999098711MD1999999-0131REMSYN017333   10300 59013
0115825860999991986050512004-05200-039300FM-12+019999999V0201401N00361007501CN0200001N9+02571+02131101261ADDAA106000091AG10999GF106991061041008001001001KA1240N+02131MA1999999098871MD1999999+0021REMSYN017333   20213 58002
0096825860999991986050518004-05200-039300FM-12+019999999V0201401N00311045001CN0200001N9+02821+02021100871ADDAA106000091AG10001GF107991041021008001071001MA1999999098491MD1999999+0041REMSYN011333   58004
0143825860999991986050612004-05200-039300FM-12+019999999V0201401N00261007501CN0200001N9+02471+02251101241ADDAA106007091AG10999AY161061AY251061GF107991051051008001001011KA1240N+02141MA1999999098841MD1999999-0031MW1021REMSYN023333   20214 59003 60071
0135825860999991986050618004-05200-039300FM-12+019999999V0200501N00311220001CN0200001N9+02871+02281100831ADDAA106000791AA299001091AG10999AY161061AY211061GF106991041031008001001011MA1999999098451MD1999999-0041MW1031REMSYN017333   59004 69971
0115825860999991986050700004-05200-039300FM-12+019999999V0203601N00101220001CN9999999N9+02481+02271101031ADDAA106000091AG10999GF100991001001999999001001KA1240M+02991MA1999999098641MD1999999-0121REMSYN017333   10299 59012
0132825860999991986050712004-05200-039300FM-12+019999999V0201801N00311007501CN0200001N9+02551+02251101191ADDAA124000891AA299001091AG10999GF106991061051008001001001KA1240N+02311MA1999999098801MD1999999-0041REMSYN023333   20231 59004 69984
0096825860999991986050718004-05200-039300FM-12+019999999V0201401N00261045001CN0200001N9+03001+02191100741ADDAA106000091AG10999GF106991041021008001061001MA1999999098381MD1999999-0071REMSYN011333   59007
0115825860999991986050800004-05200-039300FM-12+019999999V0201401N00151220001CN9999999N9+02481+02321101021ADDAA106000091AG10001GF100991001001999999001001KA1240M+03021MA1999999098631MD1999999-0011REMSYN017333   10302 59001
0124825860999991986050818004-05200-039300FM-12+019999999V0200901N00461045001CN0040001N9+02831+02241100881ADDAA106000191AG10999AY151061AY221061GF107991031031008001061041MA1999999098501MD1999999+0121MW1151REMSYN017333   58012 69911
0121825860999991986050912004-05200-039300FM-12+019999999V0200901N00261007501CN0200001N9+02531+02311101281ADDAA124002091AG10999GF107991051051008001001011KA1240N+02291MA1999999098881MD1999999+0071REMSYN023333   20229 58007 60024
0135825860999991986050918004-05200-039300FM-12+019999999V0201401N00261220001CN0200001N9+02911+02071100831ADDAA106000291AA299000391AG10999AY151061AY221061GF106991041021008001001041MA1999999098451MD1999999-0051MW1011REMSYN017333   59005 69921
0115825860999991986051000004-05200-039300FM-12+019999999V0200501N00101220001CN9999999N9+02471+02271101141ADDAA106000091AG10999GF100991001001999999001001KA1240M+02961MA1999999098751MD1999999-0051REMSYN017333   10296 59005
0132825860999991986051012004-05200-039300FM-12+019999999V0200901N00211220001CN0200001N9+02711+02281101271ADDAA124000291AA299000391AG10999GF104991041041008001001001KA1240N+02211MA1999999098891MD1999999+0011REMSYN023333   20221 58001 69924
0096825860999991986051018004-05200-039300FM-12+019999999V0201401N00461220001CN0200001N9+03041+01941100901ADDAA106000091AG10999GF102991021021008001001001MA1999999098541MD1999999+0091REMSYN011333   58009
0115825860999991986051100004-05200-039300FM-12+019999999V0209991C00001220001CN9999999N9+02501+02381101111ADDAA106000091AG10999GF100991001001999999001001KA1240M+03101MA1999999098741MD1999999-0011REMSYN017333   10310 59001
0115825860999991986051112004-05200-039300FM-12+019999999V0201401N00151007501CN0200001N9+02631+02141101231ADDAA106000091AG10999GF105991051041008001001001KA1240N+02261MA1999999098851MD1999999-0041REMSYN017333   20226 59004
0096825860999991986051118004-05200-039300FM-12+019999999V0200501N00151220001CN0200001N9+03041+02001100881ADDAA106000091AG10999GF103991031021008001001001MA1999999098521MD1999999-0021REMSYN011333   59002
0115825860999991986051300004-05200-039300FM-12+019999999V0209991C00001220001CN9999999N9+02511+02341100961ADDAA106000091AG10999GF100991001001999999001001KA1240M+03071MA1999999098581MD1999999-0051REMSYN017333   10307 59005
0115825860999991986051312004-05200-039300FM-12+019999999V0201401N001519999999N0200001N9+02541+02331101081ADDAA106000091AG10999GF107991071001008001001001KA1240N+02101MA1999999098701MD1999999+0001REMSYN017333   20210 58000
0096825860999991986051318004-05200-039300FM-12+019999999V0200501N00151220001CN0200001N9+03091+02041100801ADDAA106000091AG10999GF106991031021008001001041MA1999999098431MD1999999+0111REMSYN011333   58011
0115825860999991986051400004-05200-039300FM-12+019999999V0202301N00151220001CN9999999N9+02541+02371101091ADDAA106000091AG10999GF100991001001999999001001KA1240M+03121MA1999999098711MD1999999+0131REMSYN017333   10312 58013
0115825860999991986051412004-05200-039300FM-12+019999999V0200901N00511007501CN0200001N9+02661+02201101411ADDAA106000091AG10999GF108991051051008001041041KA1240N+02311MA1999999099031MD1999999+0331REMSYN017333   20231 58033
0096825860999991986051418004-05200-039300FM-12+019999999V0200901N00261220001CN0200001N9+03061+01991101031ADDAA106000091AG10999GF103991021021008001001011MA1999999098671MD1999999+0241REMSYN011333   58024
0115825860999991986051500004-05200-039300FM-12+019999999V0203601N00101220001CN9999999N9+02511+02291101331ADDAA106000091AG10999GF102991001001999999001011KA1240M+03101MA1999999098951MD1999999+0241REMSYN017333   10310 58024
0115825860999991986051512004-05200-039300FM-12+019999999V0200901N00261220001CN0200001N9+02691+02161101471ADDAA106000091AG10999GF105991041041008001001011KA1240N+02211MA1999999099091MD1999999+0061REMSYN017333   20221 58006
0096825860999991986051518004-05200-039300FM-12+019999999V0200901N00261220001CN0200001N9+03041+01911101111ADDAA106000091AG10999GF102991011011008001001011MA1999999098741MD1999999+0071REMSYN011333   58007
0115825860999991986051600004-05200-039300FM-12+019999999V0200501N00101220001CN9999999N9+02421+02211101291ADDAA106000091AG10999GF102991001001999999001041KA1240M+03091MA1999999098911MD1999999-0041REMSYN017333   10309 59004
0115825860999991986051612004-05200-039300FM-12+019999999V0201401N00311007501CN0200001N9+02531+02211101361ADDAA106000091AG10999GF106991061041008001001001KA1240N+02141MA1999999098961MD1999999-0131REMSYN017333   20214 59013
0096825860999991986051618004-05200-039300FM-12+019999999V0201401N00261220001CN0200001N9+03051+01711100931ADDAA106000091AG10999GF102991021011008001001001MA1999999098571MD1999999-0171REMSYN011333   59017
0115825860999991986051700004-05200-039300FM-12+019999999V0209991C00001220001CN9999999N9+02491+02151101201ADDAA106000091AG10999GF100991001001999999001001KA1240M+03061MA1999999098811MD1999999-0101REMSYN017333   10306 59010
0130825860999991986051712004-05200-039300FM-12+019999999V0201401N00361220001CN0200001N9+02691+02091101271ADDAA124000391AG10999AY161061AY211061GF103991031011008001001001MA1999999098891MD1999999-0071MW1011REMSYN023333   20/10 59007 69934
0096825860999991986051718004-05200-039300FM-12+019999999V0201401N00261220001CN0200001N9+03021+01861100901ADDAA106000091AG10999GF103991021021008001061001MA1999999098521MD1999999-0051REMSYN011333   59005
0173825860999991986051812004-05200-039300FM-12+019999999V0201401N00311007501CN0200001N9+02621+02161101331ADDAA124000291AA299000391AG10999AY151061AY211061GF106991051041008001001011KA1240N+02191MA1999999098931MD1999999+0041MW1031REMSYN023333   20219 58004 69924EQDQ01+999990APOSLP
0096825860999991986051818004-05200-039300FM-12+019999999V0201401N00261220001CN0200001N9+03011+01881100971ADDAA106000091AG10999GF102991021021008001001001MA1999999098611MD1999999+0091REMSYN011333   58009
0115825860999991986051912004-05200-039300FM-12+019999999V0201401N00361012001CN0200001N9+02711+02061101271ADDAA106000091AG10999GF105991051081008001001001KA1240N+02241MA1999999098891MD1999999+0041REMSYN017333   20224 58004
0096825860999991986051918004-05200-039300FM-12+019999999V0201401N00211220001CN0200001N9+02861+02091100961ADDAA106000091AG10999GF104991031021008001061001MA1999999098591MD1999999-0021REMSYN011333   59002
0115825860999991986052000004-05200-039300FM-12+019999999V0209991C00001220001CN9999999N9+02511+02341101201ADDAA106000091AG10999GF102991021001022501051001KA1240M+03041MA1999999098821MD1999999+0011REMSYN017333   10304 58001
0143825860999991986052012004-05200-039300FM-12+019999999V0201401N00151007501CN0200001N9+02631+02231101271ADDAA124003091AG10999AY161061AY221061GF106991061041008001001001KA1240N+02281MA1999999098891MD1999999+0001MW1021REMSYN023333   20228 58000 60034
0096825860999991986052018004-05200-039300FM-12+019999999V0201401N00311045001CN0200001N9+02971+01991100901ADDAA106000091AG10999GF105991031021008001061001MA1999999098541MD1999999-0051REMSYN011333   59005
0143825860999991986052100004-05200-039300FM-12+019999999V0200501N00101007501CN9999999N9+02441+02371101211ADDAA106013091AG10999AY161061AY221061GF108991081071008001999999KA1240M+03021MA1999999098831MD1999999+0011MW1211REMSYN023333   10302 58001 60131
0121825860999991986052112004-05200-039300FM-12+019999999V0201401N00101007501CN0200001N9+02571+02171101241ADDAA124013091AG10999GF106991061041008001001001KA1240N+02211MA1999999098851MD1999999-0041REMSYN023333   20221 59004 60134
0085825860999991986052118004-05200-039300FM-12+019999999V0201801N00261045001CN0200001N9+02951+02161100871ADDAG10999GF106991041021008001061001MA1999999098511MD1999999-0031REMSYN011333   59003
0124825860999991986052218004-05200-039300FM-12+019999999V0201801N00311007501CN0200001N9+02711+02241100901ADDAA106000191AG10999AY121061AY221061GF107991051021008001051001MA1999999098511MD1999999+0001MW1201REMSYN017333   58000 69911
0143825860999991986052312004-05200-039300FM-12+019999999V0201401N00101007501CN0200001N9+02471+02251101311ADDAA124001091AG10999AY161061AY251061GF107991051051008001051001KA1240N+02291MA1999999098911MD1999999+0061MW1031REMSYN023333   20229 58006 60014
0124825860999991986052318004-05200-039300FM-12+019999999V0201401N00311045001CN0040001N9+02801+02341100901ADDAA106004091AG10999AY161061AY251061GF107991041031008001041041MA1999999098531MD1999999+0021MW1211REMSYN017333   58002 60041
0143825860999991986052412004-05200-039300FM-12+019999999V0201401N00261007501CN0200001N9+02511+02191101301ADDAA124034091AG10999AY161061AY221061GF107991051051008001001041KA1240N+02121MA1999999098901MD1999999-0011MW1031REMSYN023333   20212 59001 60344
0085825860999991986052418004-05200-039300FM-12+019999999V0201401N00261007501CN0200001N9+02881+02051100921ADDAG10999GF105991051021008001001001MA1999999098541MD1999999+0001REMSYN011333   58000
0143825860999991986052512004-05200-039300FM-12+019999999V0201801N00311007501CN0200001N9+02321+02201101371ADDAA124006091AG10999AY161061AY221061GF108991051071008001071999KA1240N+02111MA1999999098961MD1999999+0061MW1021REMSYN023333   20211 58006 60064
0085825860999991986052518004-05200-039300FM-12+019999999V0200901N00261007501CN0200001N9+02741+02121101041ADDAG10999GF107991051041008001071001MA1999999098651MD1999999+0111REMSYN011333   58011
0143825860999991986052700004-05200-039300FM-12+019999999V0201801N00511007501CN0100001N9+02471+02411101251ADDAA106005091AG10999AY151061AY221061GF108991081071008001999999KA1240M+02861MA1999999098851MD1999999+0041MW1611REMSYN023333   10286 58004 60051
0143825860999991986052712004-05200-039300FM-12+019999999V0201401N00101007501CN0200001N9+02211+02151101291ADDAA124022091AG10999AY161061AY261061GF108991081071008001999999KA1240N+02061MA1999999098891MD1999999+0031MW1031REMSYN023333   20206 58003 60224
0085825860999991986052718004-05200-039300FM-12+019999999V0202301N00151007501CN0200001N9+02521+02271100971ADDAG10999GF108991061051008001071999MA1999999098571MD1999999-0021REMSYN011333   59002
0143825860999991986052812004-05200-039300FM-12+019999999V0201801N00311007501CN0200001N9+02481+02251101201ADDAA124002091AG10999AY161061AY251061GF106991061041008001001001KA1240N+02171MA1999999098801MD1999999-0091MW1031REMSYN023333   20217 59009 60024
0085825860999991986052818004-05200-039300FM-12+019999999V0201401N00361220001CN0200001N9+02931+02041100851ADDAG10999GF104991041021008001001001MA1999999098481MD1999999-0091REMSYN011333   59009
0104825860999991986052900004-05200-039300FM-12+019999999V0209991C00001220001CN9999999N9+02341+02221101061ADDAG10999GF100991001001999999001001KA1240M+02951MA1999999098661MD1999999-0041REMSYN017333   10295 59004
0143825860999991986052912004-05200-039300FM-12+019999999V0201401N00151007501CN0200001N9+02421+02231101281ADDAA124999929AG10999AY121061AY221061GF108991051071008001021999KA1240N+02251MA1999999098881MD1999999+0081MW1511REMSYN023333   20225 58008 69904
0107825860999991986052918004-05200-039300FM-12+019999999V0201401N00311045001CN0040001N9+02881+02031100951ADDAG10999AY121061AY221061GF106991041031008001061001MA1999999098581MD1999999+0101MW1161REMSYN011333   58010
0104825860999991986053000004-05200-039300FM-12+019999999V0200501N00051220001CN9999999N9+02431+02321101201ADDAG10999GF100991001001999999001001KA1240M+02901MA1999999098801MD1999999+0141REMSYN017333   10290 58014
0154825860999991986053012004-05200-039300FM-12+019999999V0209999999999045001CN0200001N9+02581+02151101271ADDAA124000991AA299001091AG10001AY161061AY221061GF108991041041008001061041KA1240N+02261MA1999999098871MD1999999-0011MW1021REMSYN023333   20226 59001 69994
0073825860999991986053018004-05200-039300FM-12+019999999V0203601N002619999999N0040001N9+02651+02351101021ADDAG10001AY121061AY221061GF107991999999008001999999MA1999999098621MW1211
0104825860999991986053100004-05200-039300FM-12+019999999V0203601N00151220001CN9999999N9+02331+02271101181ADDAG10999GF100991001001999999001001KA1240M+02831MA1999999098781MD1999999-0021REMSYN017333   10283 59002
0143825860999991986053112004-05200-039300FM-12+019999999V0202401N00211220001CN0200001N9+02551+02211101331ADDAA124005091AG10999AY161061AY221061GF106991041081008001001041KA1240N+02221MA1999999098901MD1999999+0061MW1031REMSYN023333   20222 58006 60054
0085825860999991986053118004-05200-039300FM-12+019999999V0201401N00261045001CN0200001N9+02831+02071100991ADDAG10999GF106991031021008001051041MA1999999098611MD1999999-0011REMSYN011333   59001
0104825860999991986060112004-05200-039300FM-12+019999999V0200901N00151045001CN0200001N9+02541+02151101281ADDAG10999GF107991031011008001051041KA1240N+02131MA1999999098881MD1999999-0051REMSYN017333   20213 59005
0124825860999991986060118004-05200-039300FM-12+019999999V0201401N00211045001CN0040001N9+02811+02291100921ADDAA106003091AG10999AY161061AY251061GF108991041031008001061041MA1999999098541MD1999999-0071MW1151REMSYN017333   59007 60031
0143825860999991986060200004-05200-039300FM-12+019999999V0200901N00361007501CN9999999N9+02281+02231101371ADDAA106003091AG10999AY161061AY221061GF108991051071008001021999KA1240M+02891MA1999999098961MD1999999+0141MW1001REMSYN023333   10289 58014 60031
0143825860999991986060212004-05200-039300FM-12+019999999V0200901N00261045001CN0200001N9+02501+02151101401ADDAA124007091AG10999AY161061AY211061GF107991031011008001051041KA1240N+02101MA1999999098991MD1999999+0111MW1031REMSYN023333   20210 58011 60074
0107825860999991986060218004-05200-039300FM-12+019999999V0200901N00311105001CN0040001N9+02951+02051100991ADDAG10999AY121061AY221061GF106991041031008001001031MA1999999098611MD1999999+0071MW1151REMSYN011333   58007
0162825860999991986060300004-05200-039300FM-12+019999999V0209991C00001220001CN9999999N9+02351+02261101311ADDAA106000391AG10999AY161061AY211061GF104991999041008001001001KA1240M+03001MA1999999098911MD1999999-0051MW1031REMSYN023333   10300 59005 69931EQDQ01+000002SCOTLC
0162825860999991986060312004-05200-039300FM-12+019999999V0201401N00101004201CN0200001N9+02441+02251101471ADDAA124026091AG10999AY191061AY251061GF108991999061004501051041KA1240N+02111MA1999999099061MD1999999+0071MW1031REMSYN023333   20211 58007 60264EQDQ01+000082SCOTLC
0124825860999991986060318004-05200-039300FM-12+019999999V0201801N00151045001CN0040001N9+02831+02151101091ADDAA106003091AG10999AY121061AY221061GF106991031021008001051041MA1999999098701MD1999999+0091MW1611REMSYN017333   58009 60031
0175825860999991986060400004-05200-039300FM-12+019999999V0203601N00261007501CN9999999N9+02371+02201101441ADDAA106999999AG10999AY121061AY221061GF108991081091008001999999KA1240M+02891MA1999999099031MD1999999+0121MW1291REMSYN036333   10289 58012 66641   = 43  2614EQDQ01  66402PRCP06
0143825860999991986060412004-05200-039300FM-12+019999999V0201401N00151045001CN0200001N9+02481+02271101461ADDAA124009091AG10999AY161061AY221061GF108991041051008001051041KA1240N+02131MA1999999099061MD1999999+0001MW1031REMSYN023333   20213 58000 60094
0124825860999991986060418004-05200-039300FM-12+019999999V0201801N00411220001CN0009001N9+02891+02101101091ADDAA106000391AG10999AY161061AY221061GF106991031021008001001041MA1999999098711MD1999999+0011MW1011REMSYN017333   58001 69931
0104825860999991986060500004-05200-039300FM-12+019999999V0200501N00051220001CN9999999N9+02391+02261101331ADDAG10999GF100991001001999999001001KA1240M+02901MA1999999098931MD1999999-0101REMSYN017333   10290 59010
0121825860999991986060512004-05200-039300FM-12+019999999V0201801N00311045001CN0200001N9+02421+02051101451ADDAA124000391AG10999GF106991021011008001051001KA1240N+02111MA1999999099041MD1999999-0021REMSYN023333   20211 59002 69934
0096825860999991986060518004-05200-039300FM-12+019999999V0201801N00311045001CN0200001N9+02711+02081101141ADDAA106000091AG10999GF107991041041008001061001MA1999999098741MD1999999+0031REMSYN011333   58003
0115825860999991986060612004-05200-039300FM-12+019999999V0201801N00311220001CN0200001N9+02451+01971101541ADDAA106000091AG10999GF104991021011008001051001KA1240N+02121MA1999999099141MD1999999+0091REMSYN017333   20212 58009
0096825860999991986060618004-05200-039300FM-12+019999999V0202301N00311012001CN0200001N9+02691+01891101231ADDAA106000091AG10999GF106991061081008001001001MA1999999098831MD1999999+0091REMSYN011333   58009
0115825860999991986060712004-05200-039300FM-12+019999999V0201801N00511220001CN0200001N9+02341+01871101451ADDAA106000091AG10001GF101991011011008001001001KA1240N+01891MA1999999099041MD1999999-0091REMSYN017333   20189 59009
0096825860999991986060718004-05200-039300FM-12+019999999V0201401N00211220001CN0200001N9+02781+01821101161ADDAA106000091AG10999GF104991041021008001001001MA1999999098761MD1999999-0071REMSYN011333   59007
0115825860999991986060800004-05200-039300FM-12+019999999V0201401N00051220001CN9999999N9+02321+02201101311ADDAA106000091AG10999GF100991001001999999001001KA1240M+02811MA1999999098911MD1999999-0051REMSYN017333   10281 59005
0115825860999991986060812004-05200-039300FM-12+019999999V0209991C00001045001CN0200001N9+02201+01971101421ADDAA106000091AG10999GF108991021011008001071999KA1240N+01981MA1999999099001MD1999999-0041REMSYN017333   20198 59004
0096825860999991986060818004-05200-039300FM-12+019999999V0201801N00151045001CN0200001N9+02781+01981101161ADDAA106000091AG10999GF107991031021008001061001MA1999999098761MD1999999+0001REMSYN011333   58000
0115825860999991986060912004-05200-039300FM-12+019999999V0201801N00261220001CN0200001N9+02441+01901101471ADDAA106000091AG10999GF103991011011008001041001KA1240N+02111MA1999999099061MD1999999+0061REMSYN017333   20211 58006
0096825860999991986060918004-05200-039300FM-12+019999999V0201801N00311045001CN0200001N9+02851+01761101121ADDAA106000091AG10999GF106991031021008001031001MA1999999098741MD1999999-0021REMSYN011333   59002
0115825860999991986061012004-05200-039300FM-12+019999999V0201801N00211220001CN0200001N9+02401+01821101441ADDAA106000091AG10999GF101991011011012501001001KA1240N+02051MA1999999099041MD1999999-0021REMSYN017333   20205 59002
0096825860999991986061018004-05200-039300FM-12+019999999V0201801N00311045001CN0200001N9+02761+01891101171ADDAA106000091AG10999GF106991031021008001061001MA1999999098771MD1999999+0031REMSYN011333   58003
0115825860999991986061100004-05200-039300FM-12+019999999V0200501N00101007501CN9999999N9+02431+02321101381ADDAA106000091AG10999GF106991061041008001001001KA1240M+02781MA1999999098971MD1999999+0061REMSYN017333   10278 58006
0135825860999991986061112004-05200-039300FM-12+019999999V0201401N00151220001CN0200001N9+02451+02111101451ADDAA124008091AG10999AY161061GF104991041041008001001001KA1240N+02141MA1999999099051MD1999999+0011MW1031REMSYN023333   20214 58001 60084
0096825860999991986061118004-05200-039300FM-12+019999999V0200901N00311220001CN0200001N9+02841+01821101141ADDAA106000091AG10999GF102991021011008001001001MA1999999098751MD1999999-0021REMSYN011333   59002
0154825860999991986061212004-05200-039300FM-12+019999999V0202301N00311007501CN0200001N9+02431+02281101371ADDAA124000491AA299000591AG10999AY161061AY221061GF107991071051008001001001KA1240N+02151MA1999999098961MD1999999-0091MW1021REMSYN023333   20215 59009 69944
0096825860999991986061218004-05200-039300FM-12+019999999V0201801N00311007501CN0200001N9+02771+02161101121ADDAA106000091AG10999GF106991061031008001001001MA1999999098731MD1999999-0021REMSYN011333   59002
0096825860999991986061318004-05200-039300FM-12+019999999V0201401N00461045001CN0200001N9+02831+01861101191ADDAA106000091AG10999GF106991041031008001061001MA1999999098791MD1999999+0061REMSYN011333   58006
0115825860999991986061400004-05200-039300FM-12+019999999V0209991C00001220001CN9999999N9+02391+02261101381ADDAA106000091AG10999GF100991001001999999001001KA1240M+02871MA1999999098971MD1999999-0081REMSYN017333   10287 59008
0115825860999991986061412004-05200-039300FM-12+019999999V0201801N00211007501CN0200001N9+02291+01981101471ADDAA106000091AG10999GF108991081051008001999999KA1240N+02031MA1999999099061MD1999999+0021REMSYN017333   20203 58002
0096825860999991986061418004-05200-039300FM-12+019999999V0202301N00311007501CN0200001N9+02631+02051101201ADDAA106000091AG10999GF106991061041008001001001MA1999999098801MD1999999+0011REMSYN011333   58001
0162825860999991986061500004-05200-039300FM-12+019999999V0203601N00051007501CN0200001N9+02261+02191100352ADDAA106001091AG10999AY161061AY251061GF108991081051008001999999KA1240M+02651MA1999999098941MD1999999-0031MW1211REMSYN023333   10265 59003 60011EQDQ01+100353APOSLP
0121825860999991986061512004-05200-039300FM-12+019999999V0201801N00311220001CN0200001N9+02241+01731101531ADDAA124001091AG10999GF101991011001022501041001KA1240N+01921MA1999999099111MD1999999+0051REMSYN023333   20192 58005 60014
0096825860999991986061518004-05200-039300FM-12+019999999V0201401N00361220001CN0200001N9+02721+01521101191ADDAA106000091AG10999GF102991011011012501041001MA1999999098791MD1999999-0011REMSYN011333   59001
0115825860999991986061612004-05200-039300FM-12+019999999V0201801N00311220001CN0200001N9+02291+01701101461ADDAA106000091AG10999GF100991001001999999001001KA1240N+01911MA1999999099041MD1999999-0071REMSYN017333   20191 59007
0096825860999991986061618004-05200-039300FM-12+019999999V0201401N00311220001CN0200001N9+02821+01711101181ADDAA106000091AG10999GF101991011011012501001001MA1999999098781MD1999999-0011REMSYN011333   59001
0115825860999991986061700004-05200-039300FM-12+019999999V0200901N00051220001CN9999999N9+02211+02131101311ADDAA106000091AG10999GF101991011001022501041001KA1240M+02851MA1999999098901MD1999999+0001REMSYN017333   10285 58000
0115825860999991986061712004-05200-039300FM-12+019999999V0201801N00211220001CN0200001N9+02381+01931101401ADDAA106000091AG10999GF102991021001022501041001KA1240N+02021MA1999999098991MD1999999-0051REMSYN017333   20202 59005
0096825860999991986061718004-05200-039300FM-12+019999999V0200501N00311045001CN0200001N9+02691+02061101201ADDAA106000091AG10999GF108991041041008001071999MA1999999098801MD1999999+0021REMSYN011333   58002
0154825860999991986061812004-05200-039300FM-12+019999999V0201401N00151007501CN0200001N9+02251+02071101531ADDAA124000991AA299001091AG10999AY161061AY251061GF108991081051008001999999KA1240N+01981MA1999999099121MD1999999+0131MW1031REMSYN023333   20198 58013 69994
0143825860999991986061900004-05200-039300FM-12+019999999V0201401N00151004201CN9999999N9+02301+02231101421ADDAA106010091AG10999AY161061AY221061GF108991081031004501999999KA1240M+02821MA1999999099011MD1999999-0061MW1611REMSYN023333   10282 59006 60101
0143825860999991986061912004-05200-039300FM-12+019999999V0201801N00261007501CN0200001N9+02381+02221101501ADDAA124036091AG10999AY161061AY261061GF107991071041008001001001KA1240N+02151MA1999999099091MD1999999-0031MW1031REMSYN023333   20215 59003 60364
0096825860999991986061918004-05200-039300FM-12+019999999V0201801N00261007501CN0200001N9+02771+02091101171ADDAA106000091AG10999GF105991051021008001001001MA1999999098781MD1999999+0061REMSYN011333   58006
0115825860999991986062000004-05200-039300FM-12+019999999V0200901N00051220001CN9999999N9+02311+02181101321ADDAA106000091AG10999GF100991001001999999001001KA1240M+02821MA1999999098921MD1999999-0091REMSYN017333   10282 59009
0115825860999991986062012004-05200-039300FM-12+019999999V0201801N00311220001CN0200001N9+02311+02001101501ADDAA106000091AG10999GF101991011011008001001001KA1240N+01941MA1999999099091MD1999999+0001REMSYN017333   20194 58000
0096825860999991986062018004-05200-039300FM-12+019999999V0201801N00311220001CN0200001N9+02761+01751101171ADDAA106000091AG10999GF102991021011008001001001MA1999999098771MD1999999-0011REMSYN011333   59001
0115825860999991986062100004-05200-039300FM-12+019999999V0201801N00051220001CN9999999N9+02241+02171101371ADDAA106000091AG10999GF100991001001999999001001KA1240M+02781MA1999999098901MD1999999+0041REMSYN017333   10278 58004
0115825860999991986062112004-05200-039300FM-12+019999999V0201401N00311220001CN0200001N9+02421+01971101481ADDAA106000091AG10999GF101991011011008001001001KA1240N+01911MA1999999099071MD1999999-0021REMSYN017333   20191 59002
0096825860999991986062118004-05200-039300FM-12+019999999V0201801N00261220001CN0200001N9+02801+02001101151ADDAA106000091AG10999GF104991041021008001001001MA1999999098751MD1999999-0021REMSYN011333   59002
0115825860999991986062200004-05200-039300FM-12+019999999V0200501N00101220001CN9999999N9+02271+02161101361ADDAA106000091AG10999GF100991001001999999001001KA1240M+02881MA1999999098951MD1999999-0011REMSYN017333   10288 59001
0143825860999991986062212004-05200-039300FM-12+019999999V0201801N00311220001CN0200001N9+02361+01991101551ADDAA124007091AG10999AY161061AY251061GF102991021011008001001001KA1240N+02071MA1999999099141MD1999999+0071MW1031REMSYN023333   20207 58007 60074
0096825860999991986062218004-05200-039300FM-12+019999999V0201401N00311220001CN0200001N9+02791+01851101211ADDAA106000091AG10999GF104991041021008001001001MA1999999098821MD1999999+0071REMSYN011333   58007
0115825860999991986062300004-05200-039300FM-12+019999999V0200501N00051220001CN9999999N9+02261+02191101401ADDAA106000091AG10999GF100991001001999999001001KA1240M+02821MA1999999098991MD1999999+0041REMSYN017333   10282 58004
0115825860999991986062312004-05200-039300FM-12+019999999V0201801N00211220001CN0200001N9+02371+01911101511ADDAA106000091AG10999GF104991041001022501041001KA1240N+01961MA1999999099101MD1999999-0041REMSYN017333   20196 59004
0143825860999991986062400004-05200-039300FM-12+019999999V0209991C00001007501CN9999999N9+02421+02321101411ADDAA106999929AG10999AY121061AY221061GF108991081051008001999999KA1240M+02801MA1999999099001MD1999999+0011MW1511REMSYN023333   10280 58001 69901
0115825860999991986062412004-05200-039300FM-12+019999999V0201801N00361045001CN0200001N9+02421+01951101441ADDAA106000091AG10999GF105991021011008001041001KA1240N+02081MA1999999099031MD1999999-0071REMSYN017333   20208 59007
0096825860999991986062418004-05200-039300FM-12+019999999V0201401N00311045001CN0200001N9+02881+01831101121ADDAA106000091AG10999GF106991041081008001041001MA1999999098741MD1999999-0091REMSYN011333   59009
0115825860999991986062500004-05200-039300FM-12+019999999V0200501N00051045001CN9999999N9+02421+02251101321ADDAA106000091AG10999GF106991031081008001041001KA1240M+02911MA1999999098921MD1999999-0081REMSYN017333   10291 59008
0115825860999991986062512004-05200-039300FM-12+019999999V0201801N00311045001CN0200001N9+02401+02091101451ADDAA106000091AG10999GF107991031041008001061041KA1240N+02051MA1999999099041MD1999999+0011REMSYN017333   20205 58001
0096825860999991986062518004-05200-039300FM-12+019999999V0201801N00361007501CN0200001N9+02621+02101101231ADDAA106000091AG10999GF108991081051008001999999MA1999999098831MD1999999+0091REMSYN011333   58009
0115825860999991986062600004-05200-039300FM-12+019999999V0203601N00151007501CN9999999N9+02381+02281101411ADDAA106000091AG10999GF108991081051008001999999KA1240M+02721MA1999999099001MD1999999+0081REMSYN017333   10272 58008
0096825860999991986062618004-05200-039300FM-12+019999999V0201401N00311045001CN0200001N9+02911+01961101091ADDAA106000091AG10999GF106991041041008001041001MA1999999098711MD1999999-0121REMSYN011333   59012
0115825860999991986062700004-05200-039300FM-12+019999999V0209991C00001220001CN9999999N9+02501+02341101321ADDAA106000091AG10999GF100991001001999999001001KA1240M+02951MA1999999098931MD1999999-0071REMSYN017333   10295 59007
0115825860999991986062712004-05200-039300FM-12+019999999V0201401N00261220001CN0200001N9+02571+02171101341ADDAA106000091AG10999GF102991021011008001001001KA1240N+02021MA1999999098951MD1999999-0021REMSYN017333   20202 59002
