0115827840999991986010100004-07317-039300FM-12+040999999V0209991C00001220001CN9999999N9+02361+02071101291ADDAA106000091AG10999GF100991001001999999001001KA1240M+03021MA1999999096621MD1999999+0221REMSYN017333   10302 58022
0096827840999991986010118004-07317-039300FM-12+040999999V0200501N00211045001CN0200001N9+03041+01881101001ADDAA106000091AG10999GF106991041021008001011001MA1999999096361MD1999999-0131REMSYN011333   59013
0115827840999991986010200004-07317-039300FM-12+040999999V0201401N00051220001CN9999999N9+02401+02111101181ADDAA106000091AG10999GF100991001001999999001001KA1240M+03091MA1999999096521MD1999999-0101REMSYN017333   10309 59010
0154827840999991986010212004-07317-039300FM-12+040999999V0200501N00151045001CN0200001N9+02301+02031101381ADDAA106000091AA224037091AG10999AY161061AY221061GF107991021021008001071001KA1240N+02291MA1999999096701MD1999999+0031MW1021REMSYN023333   20229 58003 60374
0096827840999991986010218004-07317-039300FM-12+040999999V0200501N00211045001CN0200001N9+02841+01821100901ADDAA106000091AG10999GF106991031021008001031001MA1999999096261MD1999999-0101REMSYN011333   59010
0137827840999991986010300004-07317-039300FM-12+040999999V0200901N00051220001CN9999999N9+02281+02141101011ADDAA106000091AG10999AY181061AY201061GF100991001001999999001001KA1240M+02951MA1999999096341MD1999999-0181MW1001REMSYN017333   10295 59018
0096827840999991986010318004-07317-039300FM-12+040999999V0200501N00211012001CN0200001N9+02991+02121100741ADDAA106000091AG10999GF106991061081008001001001MA1999999096111MD1999999-0151REMSYN011333   59015
0137827840999991986010400004-07317-039300FM-12+040999999V0202701N00101220001CN9999999N9+02371+02211101011ADDAA106000091AG10999AY181061AY201061GF100991001001999999001001KA1240M+03051MA1999999096351MD1999999+0011MW1001REMSYN017333   10305 58001
0115827840999991986010412004-07317-039300FM-12+040999999V0200501N00151012001CN0200001N9+02461+02151101341ADDAA106000091AG10999GF108991081081008001999999KA1240N+02241MA1999999096661MD1999999+0031REMSYN017333   20224 58003
0096827840999991986010418004-07317-039300FM-12+040999999V0200501N00151220001CN0200001N9+03101+01871100931ADDAA106000091AG10999GF104991031021008001021001MA1999999096311MD1999999+0201REMSYN011333   58020
0115827840999991986010500004-07317-039300FM-12+040999999V0202301N00101220001CN9999999N9+02381+02031101221ADDAA106000091AG10999GF100991001001999999001001KA1240M+03171MA1999999096551MD1999999+0201REMSYN017333   10317 58020
0143827840999991986010512004-07317-039300FM-12+040999999V0200901N00211012001CN0100001N9+02491+99999101461ADDAA124000191AG10999AY131061AY231061GF108991081081008001999999KA1240N+02211MA1999999096781MD1999999+0121MW1511REMSYN023333   20221 58012 69914
0096827840999991986010518004-07317-039300FM-12+040999999V0209999999999012001CN0200001N9+02981+02121100951ADDAA106000091AG10999GF108991081061012501999999MA1999999096321MD1999999+0011REMSYN011333   58001
0115827840999991986010600004-07317-039300FM-12+040999999V0209991C00001004201CN9999999N9+02451+02251101201ADDAA106000091AG10999GF108991081071004501999999KA1240M+03051MA1999999096541MD1999999-0011REMSYN017333   10305 59001
0154827840999991986010612004-07317-039300FM-12+040999999V0200901N00151007501CN0200001N9+02421+02111101271ADDAA124000291AA299000391AG10999AY161061AY231061GF108991081071008001999999KA1240N+02301MA1999999096601MD1999999-0161MW1021REMSYN023333   20230 59016 69924
0096827840999991986010618004-07317-039300FM-12+040999999V0200501N00151007501CN0200001N9+03031+02051100851ADDAA106000091AG10999GF106991061021008001001001MA1999999096191MD1999999-0141REMSYN011333   59014
0115827840999991986010700004-07317-039300FM-12+040999999V0202301N00151220001CN9999999N9+02301+02011101031ADDAA106000091AG10999GF100991001001999999001001KA1240M+03091MA1999999096361MD1999999+0121REMSYN017333   10309 58012
0143827840999991986010712004-07317-039300FM-12+040999999V0200501N00101004201CN0040001N9+02381+02151101371ADDAA124010091AG10999AY161061AY221061GF108991081071004501999999KA1240N+02181MA1999999096691MD1999999+0071MW1021REMSYN023333   20218 58007 60104
0124827840999991986010718004-07317-039300FM-12+040999999V0203201N00101220001CN0200001N9+02671+02131100921ADDAA106004091AG10999AY161061AY211061GF102991021081008001001001MA1999999096281MD1999999+0091MW1021REMSYN017333   58009 60041
0115827840999991986010800004-07317-039300FM-12+040999999V0202301N000519999999N9999999N9+99999+99999101121ADDAA106000091AG10999GF108991999999999999999999KA1240M+02791MA1999999096441MD1999999+0081REMSYN017333   10279 58008
0143827840999991986010812004-07317-039300FM-12+040999999V0202301N00151004201CN0040001N9+02061+01981101551ADDAA124062091AG10999AY161061AY221061GF108991081071004501999999KA1240N+01941MA1999999096841MD1999999+0161MW1021REMSYN023333   20194 58016 60624
0096827840999991986010818004-07317-039300FM-12+040999999V0200501N00211220001CN0200001N9+02741+01811101081ADDAA106000091AG10999GF103991011021008001061001MA1999999096431MD1999999+0151REMSYN011333   58015
0137827840999991986010900004-07317-039300FM-12+040999999V0209991C00001220001CN9999999N9+02051+01941101241ADDAA106000091AG10999AY181061AY201061GF100991001001999999001001KA1240M+02871MA1999999096531MD1999999+0091MW1001REMSYN017333   10287 58009
0115827840999991986010912004-07317-039300FM-12+040999999V0201801N00101012001CN0200001N9+02471+02121101551ADDAA106000091AG10999GF108991061081008001021999KA1240N+01911MA1999999096851MD1999999+0011REMSYN017333   20191 58001
0096827840999991986010918004-07317-039300FM-12+040999999V0200901N00211220001CN0200001N9+02901+01991101071ADDAA106000091AG10999GF103991031091012501071001MA1999999096421MD1999999-0011REMSYN011333   59001
0137827840999991986011000004-07317-039300FM-12+040999999V0200901N00051012001CN9999999N9+02371+02241101391ADDAA106000091AG10999AY181061AY231061GF108991081081008001999999KA1240M+02951MA1999999096711MD1999999+0181MW1021REMSYN017333   10295 58018
0154827840999991986011012004-07317-039300FM-12+040999999V0203601N00101007501CN0200001N9+02501+02171101601ADDAA124000291AA299000391AG10999AY161061AY231061GF108991081051008001999999KA1240N+02201MA1999999096921MD1999999+0071MW1021REMSYN023333   20220 58007 69924
0096827840999991986011018004-07317-039300FM-12+040999999V0200501N00311007501CN0200001N9+03041+02001101131ADDAA106000091AG10999GF105991051021008001001001MA1999999096491MD1999999+0041REMSYN011333   58004
0115827840999991986011100004-07317-039300FM-12+040999999V0201801N00051220001CN9999999N9+02361+02071101301ADDAA106000091AG10999GF100991001001999999001001KA1240M+03091MA1999999096631MD1999999-0081REMSYN017333   10309 59008
0096827840999991986011118004-07317-039300FM-12+040999999V0200901N00211220001CN0200001N9+03061+01771101201ADDAA106000091AG10999GF103991031999008001001001MA1999999096561MD1999999+0071REMSYN011333   58007
0115827840999991986011200004-07317-039300FM-12+040999999V0209991C00001220001CN9999999N9+02361+02031101261ADDAA106000091AG10999GF100991001001999999001001KA1240M+03121MA1999999096601MD1999999-0031REMSYN017333   10312 59003
0115827840999991986011212004-07317-039300FM-12+040999999V0200901N00311220001CN0200001N9+02661+01971101421ADDAA106000091AG10999GF102991021021008001001001KA1240N+02221MA1999999096751MD1999999-0141REMSYN017333   20222 59014
0115827840999991986011300004-07317-039300FM-12+040999999V0202701N00051220001CN9999999N9+02321+01981101131ADDAA106000091AG10999GF100991001001999999001001KA1240M+03051MA1999999096471MD1999999-0131REMSYN017333   10305 59013
0115827840999991986011312004-07317-039300FM-12+040999999V0200901N00151012001CN0200001N9+02541+02021101291ADDAA106000091AG10999GF107991071081008001001001KA1240N+02151MA1999999096621MD1999999-0131REMSYN017333   20215 59013
0096827840999991986011318004-07317-039300FM-12+040999999V0200501N00261220001CN0200001N9+03101+01841100891ADDAA106000091AG10999GF102991021021008001001001MA1999999096261MD1999999-0091REMSYN011333   59009
0115827840999991986011400004-07317-039300FM-12+040999999V0209991C00001220001CN9999999N9+02211+01901101011ADDAA106000091AG10999GF100991001001999999001001KA1240M+03151MA1999999096351MD1999999-0121REMSYN017333   10315 59012
0115827840999991986011412004-07317-039300FM-12+040999999V0201401N00151007501CN0200001N9+02541+02021101211ADDAA106000091AG10999GF108991081051008001999999KA1240N+02031MA1999999096541MD1999999-0081REMSYN017333   20203 59008
0096827840999991986011418004-07317-039300FM-12+040999999V0200901N00261220001CN0200001N9+03101+01901100801ADDAA106000091AG10999GF102991011021008001031001MA1999999096181MD1999999-0081REMSYN011333   59008
0115827840999991986011500004-07317-039300FM-12+040999999V0209991C00001220001CN9999999N9+02321+00911101011ADDAA106000091AG10999GF100991001001999999001001KA1240M+03151MA1999999096351MD1410001+0001REMSYN017333   10315 58000
0143827840999991986011512004-07317-039300FM-12+040999999V0201401N00051004201CN0100001N9+02221+02141101381ADDAA124020091AG10999AY161061AY221061GF108991081071004501999999KA1240N+02141MA1999999096691MD1999999+0151MW1021REMSYN023333   20214 58015 60204
0135827840999991986011518004-07317-039300FM-12+040999999V0200901N00261045001CN0200001N9+02951+01791100971ADDAA106000291AA299000391AG10999AY161061AY221061GF105991031021008001061001MA1999999096331MD1999999+0151MW1011REMSYN017333   58015 69921
0137827840999991986011600004-07317-039300FM-12+040999999V0209991C00001220001CN9999999N9+02281+02091101081ADDAA106000091AG10999AY181061AY201061GF100991001001999999001001KA1240M+02991MA1999999096401MD1999999+0051MW1001REMSYN017333   10299 58005
0096827840999991986011618004-07317-039300FM-12+040999999V0203201N00101045001CN0200001N9+02841+01881101061ADDAA106000091AG10999GF108991041021008001071999MA1999999096361MD1999999+0031REMSYN011333   58003
0137827840999991986011700004-07317-039300FM-12+040999999V0201801N00051007501CN9999999N9+02241+02011101151ADDAA106000091AG10999AY181061AY231061GF108991081061008001999999KA1240M+02881MA1999999096481MD1999999+0081MW1021REMSYN017333   10288 58008
0115827840999991986011712004-07317-039300FM-12+040999999V0200501N00101045001CN0200001N9+02441+01811101381ADDAA106000091AG10999GF108991021011008001071999KA1240N+02141MA1999999096701MD1410001+0001REMSYN017333   20214 58000
0096827840999991986011718004-07317-039300FM-12+040999999V0200501N00261012001CN0200001N9+02801+01841101011ADDAA106000091AG10999GF108991081061012501999999MA1999999096361MD1410001+0001REMSYN011333   58000
0115827840999991986011800004-07317-039300FM-12+040999999V0209991C00001007501CN9999999N9+02261+01931101161ADDAA106000091AG10999GF106991061071008001001001KA1240M+02831MA1999999096491MD1999999-0011REMSYN017333   10283 59001
0134827840999991986011812004-07317-039300FM-12+040999999V0200901N00311045001CN0200001N9+02581+01821101391ADDAA106000091AG10999GF107991011011008001031001KA1240N+99999MA1999999096711MD1999999+0011REMSYN017333   20296 58001EQDQ01 +02962ATMN  
0096827840999991986011818004-07317-039300FM-12+040999999V0200901N00311045001CN0200001N9+02901+01731101111ADDAA106000091AG10999GF108991031081008001031999MA1999999096451MD1999999+0091REMSYN011333   58009
0134827840999991986011912004-07317-039300FM-12+040999999V0200901N00211007501CN0200001N9+02561+01731101331ADDAA106000091AG10999GF108991999041008001071999KA1240N+02071MA1999999096651MD1999999-0161REMSYN017333   20207 59016EQDQ01+000082SCOTLC
0096827840999991986011918004-07317-039300FM-12+040999999V0201401N00311012001CN0200001N9+03061+01471100991ADDAA106000091AG10999GF108991061041012501071091MA1999999096351MD1999999-0101REMSYN011333   59010
0096827840999991986012018004-07317-039300FM-12+040999999V0200901N00211220001CN0200001N9+03241+01631100871ADDAA106000091AG10999GF102991011011012501011001MA1999999096251MD1999999-0101REMSYN011333   59010
0115827840999991986012100004-07317-039300FM-12+040999999V0209991C00001015001CN9999999N9+02391+01891101131ADDAA106000091AG10999GF108991081001017501061999KA1240M+03271MA1999999096471MD1999999+0061REMSYN017333   10327 58006
0115827840999991986012112004-07317-039300FM-12+040999999V0201401N00101012001CN0200001N9+02601+01991101411ADDAA106000091AG10999GF106991061081008001001001KA1240N+02161MA1999999096741MD1999999+0141REMSYN017333   20216 58014
0096827840999991986012118004-07317-039300FM-12+040999999V0201401N00211220001CN0200001N9+03201+01751100901ADDAA106000091AG10999GF102991021021012501001001MA1999999096281MD1999999+0031REMSYN011333   58003
0115827840999991986012200004-07317-039300FM-12+040999999V0201801N00151220001CN9999999N9+02491+01531100951ADDAA106000091AG10999GF101991011041008001001001KA1240M+03221MA1999999096311MD1999999-0161REMSYN017333   10322 59016
0115827840999991986012212004-07317-039300FM-12+040999999V0201401N00311220001CN0200001N9+02741+01841101371ADDAA106000091AG10999GF103991021021008001031001KA1240N+02291MA1999999096711MD1999999-0031REMSYN017333   20229 59003
0096827840999991986012218004-07317-039300FM-12+040999999V0200501N00261012001CN0200001N9+03021+01911101001ADDAA106000091AG10999GF108991081081008001999999MA1999999096371MD1999999+0091REMSYN011333   58009
0115827840999991986012300004-07317-039300FM-12+040999999V0201801N00051012001CN9999999N9+02381+02031101331ADDAA106000091AG10999GF108991081081008001999999KA1240M+03101MA1999999096661MD1999999+0351REMSYN017333   10310 58035
0121827840999991986012312004-07317-039300FM-12+040999999V0200901N00361007501CN0200001N9+02661+01821101471ADDAA124000191AG10999GF106991051021008001031001KA1240N+02011MA1999999096791MD1999999+0081REMSYN023333   20201 58008 69914
0096827840999991986012318004-07317-039300FM-12+040999999V0200901N00261012001CN0200001N9+03031+01681101151ADDAA106000091AG10999GF108991061081008001071999MA1999999096501MD1999999+0131REMSYN011333   58013
0115827840999991986012400004-07317-039300FM-12+040999999V0201401N00151007501CN9999999N9+02441+01611101261ADDAA106000091AG10999GF108991081061008001999999KA1240M+03111MA1999999096601MD1999999-0061REMSYN017333   10311 59006
0115827840999991986012412004-07317-039300FM-12+040999999V0200901N00261220001CN0200001N9+02701+01911101351ADDAA106000091AG10999GF103991011011008001011001KA1240N+02121MA1999999096691MD1999999-0101REMSYN017333   20212 59010
0096827840999991986012418004-07317-039300FM-12+040999999V0201401N00211045001CN0200001N9+03161+01631100981ADDAA106000091AG10999GF105991011011008001051001MA1999999096351MD1999999-0151REMSYN011333   59015
0096827840999991986012518004-07317-039300FM-12+040999999V0201401N00261220001CN0200001N9+03141+01691100861ADDAA106000091AG10999GF106991011011008001001041MA1999999096241MD1999999-0111REMSYN011333   59011
0115827840999991986012600004-07317-039300FM-12+040999999V0201801N00151012001CN9999999N9+02531+01861101031ADDAA106000091AG10999GF108991081081008001999999KA1240M+03161MA1999999096191MD1999999-0091REMSYN017333   10316 59009
0115827840999991986012612004-07317-039300FM-12+040999999V0200901N00361220001CN0200001N9+02721+01791101241ADDAA106000091AG10999GF102991021001017501071001KA1240N+02221MA1999999096591MD1999999-0041REMSYN017333   20222 59004
0096827840999991986012618004-07317-039300FM-12+040999999V0201401N00261220001CN0200001N9+03221+01391100861ADDAA106000091AG10999GF101991011081012501001001MA1999999096221MD1999999-0021REMSYN011333   59002
0115827840999991986012700004-07317-039300FM-12+040999999V0201401N00211012001CN9999999N9+02781+01931100941ADDAA106000091AG10999GF108991081081008001999999KA1240M+03271MA1999999096321MD1999999-0071REMSYN017333   10327 59007
0115827840999991986012712004-07317-039300FM-12+040999999V0200901N00261012001CN0200001N9+02751+01971101261ADDAA106000091AG10999GF107991061081008001061001KA1240N+02161MA1999999096621MD1999999+0031REMSYN017333   20216 58003
0096827840999991986012718004-07317-039300FM-12+040999999V0200901N00311045001CN0200001N9+03221+01951100861ADDAA106000091AG10999GF106991041081008001071001MA1999999096251MD1999999+0031REMSYN011333   58003
0115827840999991986012800004-07317-039300FM-12+040999999V0200501N00151007501CN9999999N9+02461+01711101251ADDAA106000091AG10999GF108991081071008001999999KA1240M+03241MA1999999096601MD1999999+0281REMSYN017333   10324 58028
0115827840999991986012812004-07317-039300FM-12+040999999V0200501N00051045001CN0200001N9+02561+01971101371ADDAA106000091AG10999GF108991041081008001031999KA1240N+02161MA1999999096711MD1999999+0091REMSYN017333   20216 58009
0096827840999991986012818004-07317-039300FM-12+040999999V0200501N00211220001CN0200001N9+03211+01711100861ADDAA106000091AG10999GF103991021021008001061001MA1999999096241MD1999999-0011REMSYN011333   59001
0115827840999991986012900004-07317-039300FM-12+040999999V0203201N00211220001CN9999999N9+02181+01861101191ADDAA106000091AG10999GF100991001001999999001001KA1240M+03271MA1999999096521MD1999999-0081REMSYN017333   10327 59008
0115827840999991986012912004-07317-039300FM-12+040999999V0200201N00211220001CN0200001N9+02601+01961101301ADDAA106000091AG10999GF102991011021008001031001KA1240N+01971MA1999999096631MD1999999-0081REMSYN017333   20197 59008
0135827840999991986012918004-07317-039300FM-12+040999999V0201401N00211012001CN0200001N9+02481+02011100951ADDAA106000891AA299001091AG10999AY121061AY221061GF108991081081008001999999MA1999999096281MD1999999+0041MW1201REMSYN017333   58004 69981
0115827840999991986013000004-07317-039300FM-12+040999999V0202701N00051007501CN9999999N9+02321+02161101041ADDAA106000091AG10999GF108991081071008001999999KA1240M+03071MA1999999096381MD1999999-0141REMSYN017333   10307 59014
0143827840999991986013012004-07317-039300FM-12+040999999V0201401N00101045001CN0200001N9+02381+01891101241ADDAA124015091AG10001AY161061AY231061GF108991021081008001031999KA1240N+02121MA1999999096561MD1999999-0071MW1021REMSYN023333   20212 59007 60154
0096827840999991986013018004-07317-039300FM-12+040999999V0200901N00101007501CN0200001N9+02661+02021100911ADDAA106000091AG10999GF108991071051008001071999MA1999999096251MD1999999-0031REMSYN011333   59003
0137827840999991986013100004-07317-039300FM-12+040999999V0202301N00051220001CN9999999N9+02221+02051101081ADDAA106000091AG10999AY181061AY201061GF100991001001999999001001KA1240M+02771MA1999999096401MD1999999+0031MW1001REMSYN017333   10277 58003
0134827840999991986013112004-07317-039300FM-12+040999999V0200901N00051012001CN0200001N9+02501+02071101211ADDAA106000091AG10999GF108991081081008001999999KA1240N+02191MA1999999096541MD1999999-0021REMSYN017333   20219 59002EQDQ01+999990APOSP 
0096827840999991986013118004-07317-039300FM-12+040999999V0200501N00211012001CN0200001N9+02801+02181100801ADDAA106000091AG10999GF107991051081008001021001MA1999999096171MD1999999-0081REMSYN011333   59008
0124827840999991986020118004-07317-039300FM-12+040999999V0202701N00101007501CN0200001N9+02441+02011101211ADDAA106000191AG10999AY161061AY231061GF108991081071008001999999MA1999999096521MD1999999+0351MW1021REMSYN017333   58035 69911
0143827840999991986020200004-07317-039300FM-12+040999999V0201401N00051015001CN0100001N9+02231+02101101401ADDAA106000391AG10999AY161061AY231061GF108991081001017501021999KA1240M+02511MA1999999096711MD1999999+0011MW1511REMSYN023333   10251 58001 69931
0154827840999991986020212004-07317-039300FM-12+040999999V0203201N00101045001CN0100001N9+99999+99999101411ADDAA124000991AA299001091AG10999AY161061AY231061GF108991021051008001021999KA1240N+02141MA1999999096731MD1999999-0021MW1511REMSYN023333   20214 59002 69994
0135827840999991986020218004-07317-039300FM-12+040999999V0203201N00051045001CN0200001N9+02501+02191101041ADDAA106000491AA299000591AG10999AY161061AY261061GF108991021051004501021999MA1999999096371MD1999999-0151MW1021REMSYN017333   59015 69941
0115827840999991986020300004-07317-039300FM-12+040999999V0209991C00001007501CN9999999N9+02321+02201101191ADDAA106000091AG10999GF108991081071008001999999KA1240M+02531MA1999999096511MD1999999-0201REMSYN017333   10253 59020
0132827840999991986020312004-07317-039300FM-12+040999999V0200501N00151007501CN0200001N9+02221+02051101291ADDAA124000491AA299000591AG10999GF108991081051008001999999KA1240N+02121MA1999999096611MD1999999+0121REMSYN023333   20212 58012 69944
0096827840999991986020318004-07317-039300FM-12+040999999V0200501N00261007501CN0200001N9+02891+01831100871ADDAA106000091AG10999GF105991051021008001001001MA1999999096231MD1999999-0141REMSYN011333   59014
0115827840999991986020400004-07317-039300FM-12+040999999V0209991C00001220001CN9999999N9+02301+02051101101ADDAA106000091AG10999GF100991001001999999001001KA1240M+02981MA1999999096421MD1999999-0091REMSYN017333   10298 59009
0143827840999991986020412004-07317-039300FM-12+040999999V0201801N00051004201CN0200001N9+02201+02081101491ADDAA124009091AG10999AY161061AY221061GF108991081071004501999999KA1240N+02081MA1999999096781MD1999999+0181MW1211REMSYN023333   20208 58018 60094
0096827840999991986020418004-07317-039300FM-12+040999999V0203201N00151015001CN0200001N9+02921+01801101021ADDAA106000091AG10999GF107991061081012501021001MA1999999096371MD1999999+0141REMSYN011333   58014
0137827840999991986020500004-07317-039300FM-12+040999999V0201401N00051220001CN9999999N9+02381+02281101271ADDAA106000091AG10999AY181061AY221061GF102991021071008001001001KA1240M+03021MA1999999096591MD1999999+0171MW1021REMSYN017333   10302 58017
0143827840999991986020512004-07317-039300FM-12+040999999V0201401N00101007501CN0200001N9+02261+02091101551ADDAA124009091AG10999AY161061AY221061GF108991081051008001999999KA1240N+02121MA1999999096851MD1999999+0061MW1021REMSYN023333   20212 58006 60094
0096827840999991986020518004-07317-039300FM-12+040999999V0200901N00311012001CN0200001N9+02781+02231100961ADDAA106000091AG10999GF106991051081008001061001MA1999999096311MD1999999-0061REMSYN011333   59006
0143827840999991986020600004-07317-039300FM-12+040999999V0200901N00051045001CN0100001N9+02241+02161101331ADDAA106013091AG10999AY161061AY261061GF108991031071004501021999KA1240M+02951MA1999999096641MD1999999+0051MW1511REMSYN023333   10295 58005 60131
0143827840999991986020612004-07317-039300FM-12+040999999V0200501N00051007501CN0200001N9+02451+02151101441ADDAA124014091AG10999AY161061AY231061GF108991081051008001999999KA1240N+02191MA1999999096751MD1999999-0101MW1021REMSYN023333   20219 59010 60144
0096827840999991986020618004-07317-039300FM-12+040999999V0201801N00151015001CN0200001N9+02901+02041100971ADDAA106000091AG10999GF108991071081012501001081MA1999999096321MD1999999+0021REMSYN011333   58002
0162827840999991986020700004-07317-039300FM-12+040999999V0201801N00151004201CN0040001N9+02101+02001101531ADDAA106011091AG10999AY161061AY231061GF108991999051004501021999KA1240M+02981MA1999999096841MD1999999+0201MW1971REMSYN023333   10298 58020 60111EQDQ01+000082SCOTLC
0143827840999991986020712004-07317-039300FM-12+040999999V0200501N00311012001CN0200001N9+02481+02151101431ADDAA124014091AG10999AY161061AY221061GF106991051081008001011001KA1240N+02111MA1999999096741MD1999999-0011MW1011REMSYN023333   20211 59001 60144
0137827840999991986020800004-07317-039300FM-12+040999999V0200501N00051220001CN9999999N9+02301+02231101371ADDAA106000091AG10999AY181061AY211061GF100991001001999999001001KA1240M+02911MA1999999096691MD1999999-0151MW1001REMSYN017333   10291 59015
0143827840999991986020812004-07317-039300FM-12+040999999V0200901N00211007501CN0200001N9+02651+02121101381ADDAA124003091AG10999AY161061AY211061GF105991051021008001001001KA1240N+02141MA1999999096711MD1999999-0031MW1021REMSYN023333   20214 59003 60034
0096827840999991986020818004-07317-039300FM-12+040999999V0200501N00311007501CN0200001N9+02941+02111100931ADDAA106000091AG10001GF105991051021008001001001MA1999999096291MD1999999-0121REMSYN011333   59012
0137827840999991986020900004-07317-039300FM-12+040999999V0202301N00151220001CN9999999N9+02391+02231101251ADDAA106000091AG10999AY181061AY211061GF100991001001999999001001KA1240M+03061MA1999999096841MD1999999-0111MW1131REMSYN017333   10306 59011
0143827840999991986020912004-07317-039300FM-12+040999999V0200901N00211012001CN0200001N9+02501+02151101331ADDAA124007091AG10999AY161061AY231061GF108991081081008001999999KA1240N+02021MA1999999096661MD1999999-0051MW1021REMSYN023333   20202 59005 60074
0096827840999991986020918004-07317-039300FM-12+040999999V0200501N00261045001CN0200001N9+02821+02051101051ADDAA106000091AG10999GF108991031081008001021999MA1999999096401MD1999999+0111REMSYN011333   58011
0137827840999991986021000004-07317-039300FM-12+040999999V0209991C00001220001CN9999999N9+02281+02201101221ADDAA106000091AG10999AY181061AY211061GF100991001001999999001001KA1240M+02871MA1999999096551MD1999999-0031MW1001REMSYN017333   10287 59003
0115827840999991986021012004-07317-039300FM-12+040999999V0200501N00151220001CN0200001N9+02621+02121101301ADDAA106000091AG10999GF104991041021008001001001KA1240N+02221MA1999999096231MD1999999-0031REMSYN017333   20222 59003
0096827840999991986021018004-07317-039300FM-12+040999999V0200901N00311007501CN0200001N9+03061+02021100961ADDAA106000091AG10999GF105991051021008001001001MA1999999096331MD1999999-0071REMSYN011333   59007
0150827840999991986021100004-07317-039300FM-12+040999999V0200501N00101220001CN9999999N9+02361+02071101161ADDAA106000091AG10999GF100991001001999999001001KA1240M+03081MA1999999999999MD1999999-0051REMSYN017333   10308 59005EQDQ01+099653APOSP Q02 099653APOSP 
0115827840999991986021112004-07317-039300FM-12+040999999V0201401N00101220001CN0200001N9+02641+01881101421ADDAA106000091AG10999GF103991021021008001011001KA1240N+02071MA1999999096751MD1999999+0121REMSYN017333   20207 58012
0096827840999991986021118004-07317-039300FM-12+040999999V0203601N00151045001CN0200001N9+03011+01911101061ADDAA106000091AG10999GF105991021021008001011001MA1999999096421MD1999999+0091REMSYN011333   58009
0115827840999991986021200004-07317-039300FM-12+040999999V0201801N00051220001CN9999999N9+02501+02111101341ADDAA106000091AG10999GF100991001001999999001001KA1240M+03101MA1999999096681MD1999999+0181REMSYN017333   10310 58018
0115827840999991986021212004-07317-039300FM-12+040999999V0203201N00101012001CN0200001N9+02541+02111101491ADDAA106000091AG10999GF108991081081008001999999KA1240N+02231MA1999999096821MD1999999+0071REMSYN017333   20223 58007
0096827840999991986021218004-07317-039300FM-12+040999999V0201401N00101012001CN0200001N9+02941+02051101091ADDAA106000091AG10999GF107991071081008001001001MA1999999096441MD1999999+0021REMSYN011333   58002
0115827840999991986021300004-07317-039300FM-12+040999999V0201401N00101220001CN9999999N9+02381+02151101381ADDAA106000091AG10999GF100991001001999999001001KA1240M+03071MA1999999096711MD1999999+0031REMSYN017333   10307 58003
0115827840999991986021312004-07317-039300FM-12+040999999V0202501N00051220001CN0200001N9+02421+01931101491ADDAA106000091AG10999GF103991021081008001051001KA1240N+02161MA1999999096811MD1999999-0011REMSYN017333   20216 59001
0096827840999991986021318004-07317-039300FM-12+040999999V0203601N00261007501CN0200001N9+99999+99999101021ADDAA106000091AG10999GF106991051021008001021001MA1999999096371MD1999999-0071REMSYN011333   59007
0102827840999991986021400004-07317-039300FM-12+040999999V0200901N00051220001CN9999999N9+02401+02151101261ADDAA106000091AG10999GF100991001001999999001001MA1999999096591MD1999999+0121REMSYN017333   00302 58012
0134827840999991986021412004-07317-039300FM-12+040999999V0200901N00101012001CN0200001N9+02441+01971101361ADDAA106000091AG10999GF108991081081008001999999KA1240N+02101MA1999999096671MD1999999-0141REMSYN017333   20210 59014EQDQ01+999990APOSLP
0115827840999991986021500004-07317-039300FM-12+040999999V0201401N00051007501CN9999999N9+02381+02031101241ADDAA106000091AG10999GF108991061061008001021999KA1240M+03111MA1999999096561MD1999999-0031REMSYN017333   10311 59003
0115827840999991986021512004-07317-039300FM-12+040999999V0203601N00151012001CN0200001N9+02561+02151101441ADDAA106000091AG10999GF108991081081008001999999KA1240N+02251MA1999999096761MD1999999+0091REMSYN017333   20225 58009
0096827840999991986021518004-07317-039300FM-12+040999999V0200501N00211007501CN0200001N9+03051+02031100961ADDAA106000091AG10999GF106991051021008001011001MA1999999096331MD1999999+0051REMSYN011333   58005
0115827840999991986021600004-07317-039300FM-12+040999999V0201401N00101012001CN9999999N9+02341+02031101351ADDAA106000091AG10999GF108991081081008001999999KA1240M+03091MA1999999096681MD1999999+0121REMSYN017333   10309 58012
0115827840999991986021612004-07317-039300FM-12+040999999V0200501N00101012001CN0200001N9+02521+02131101401ADDAA106000091AG10999GF108991081081008001999999KA1240N+02241MA1999999096731MD1999999-0031REMSYN017333   20224 59003
0096827840999991986021618004-07317-039300FM-12+040999999V0203601N00211012001CN0200001N9+02031+02001100951ADDAA106000091AG10999GF105991051021012501001001MA1999999096321MD1999999-0011REMSYN011333   59001
0115827840999991986021700004-07317-039300FM-12+040999999V0200501N00101220001CN9999999N9+02141+02051101181ADDAA106000091AG10999GF100991001001999999001001KA1240M+03111MA1999999096521MD1999999-0161REMSYN017333   10311 59016
0129827840999991986021712004-07317-039300FM-12+040999999V0200501N00101012001CN0200001N9+02541+02151101271ADDAA124000591AG10999AY161061AY221061GF108991081081008001999999KA1240N+02281MA1999999096621MW1021REMSYN023333   20228 59811 69954
0096827840999991986021718004-07317-039300FM-12+040999999V0200501N00311045001CN0200001N9+03041+01971100791ADDAA106000091AG10999GF106991041021008001011001MA1999999096171MD1999999-0151REMSYN011333   59015
0143827840999991986021800004-07317-039300FM-12+040999999V0203201N00051007501CN9999999N9+02341+02261101061ADDAA106003091AG10999AY161061AY231061GF108991081061008001999999KA1240M+03111MA1999999096401MD1999999+0121MW1021REMSYN023333   10311 58012 60031
0143827840999991986021812004-07317-039300FM-12+040999999V0200901N00051007501CN0200001N9+02461+02171101181ADDAA124003091AG10999AY161061AY231061GF108991081071008001999999KA1240N+02221MA1999999096511MD1999999-0111MW1021REMSYN023333   20222 59011 60034
0096827840999991986021818004-07317-039300FM-12+040999999V0200501N00211045001CN0200001N9+03011+02071100681ADDAA106000091AG10999GF108991041091012501011999MA1999999096061MD1999999-0111REMSYN011333   59011
0162827840999991986021900004-07317-039300FM-12+040999999V0201801N001019999999N9999999N9+02281+02201101011ADDAA106003091AG10999AY161061AY211061GF106991999061008001001001KA1240M+03071MA1999999096341MD1999999-0061MW1021REMSYN023333   10307 59006 60031EQDQ01+000022SCOTLC
0096827840999991986021918004-07317-039300FM-12+040999999V0200901N00261220001CN0200001N9+03151+02041100691ADDAA106000091AG10999GF102991021021008001001001MA1999999096071MD1999999+0021REMSYN011333   58002
0115827840999991986022000004-07317-039300FM-12+040999999V0202301N00101007501CN9999999N9+02381+02091100911ADDAA106000091AG10999GF108991081041008001999999KA1240M+03151MA1999999096251MD1999999-0091REMSYN017333   10315 59009
0143827840999991986022012004-07317-039300FM-12+040999999V0200901N00261220001CN0200001N9+02641+02051101231ADDAA124002091AG10999AY161061AY211061GF103991021021008001011001KA1240N+02581MA1999999096571MD1999999+0051MW1011REMSYN023333   20258 58005 60024
0096827840999991986022018004-07317-039300FM-12+040999999V0201401N00211045001CN0200001N9+02991+01661100891ADDAA106000091AG10999GF106991041021008001011001MA1999999096261MD1999999+0191REMSYN011333   58019
0115827840999991986022100004-07317-039300FM-12+040999999V0201801N00101220001CN9999999N9+02271+01961101101ADDAA106000091AG10999GF104991041061008001001001KA1240M+03061MA1999999096441MD1999999+0191REMSYN017333   10306 58019
0115827840999991986022112004-07317-039300FM-12+040999999V0200901N00101012001CN0200001N9+02471+02011101351ADDAA106000091AG10001GF108991081081008001999999KA1240N+02191MA1999999096671MD1999999+0101REMSYN017333   20219 58010
0096827840999991986022118004-07317-039300FM-12+040999999V0200501N00151012001CN0200001N9+03011+02041100891ADDAA106000091AG10001GF108991081081008001999999MA1999999096261MD1410001+0001REMSYN011333   58000
0115827840999991986022200004-07317-039300FM-12+040999999V0201401N00101012001CN9999999N9+02321+02021101271ADDAA106000091AG10999GF108991081081008001999999KA1240M+03101MA1999999096601MD1999999+0161REMSYN017333   10310 58016
0115827840999991986022212004-07317-039300FM-12+040999999V0200901N00411045001CN0200001N9+02631+01871101351ADDAA106000091AG10999GF106991031021008001011001KA1240N+02121MA1999999096681MD1999999+0011REMSYN017333   20212 58001
0096827840999991986022218004-07317-039300FM-12+040999999V0201401N00211045001CN0200001N9+03061+01831100911ADDAA106000091AG10999GF106991041021008001011001MA1999999096281MD1999999+0021REMSYN011333   58002
0115827840999991986022300004-07317-039300FM-12+040999999V0200901N00101007501CN9999999N9+02211+01921101151ADDAA106000091AG10999GF106991061061008001001001KA1240M+03171MA1999999096491MD1999999-0111REMSYN017333   10317 59011
0115827840999991986022312004-07317-039300FM-12+040999999V0200901N00151220001CN0200001N9+02691+01861101201ADDAA106000091AG10999GF101991011011008001001001KA1240N+02301MA1999999096541MD1999999-0141REMSYN017333   20230 59014
0096827840999991986022318004-07317-039300FM-12+040999999V0201801N00211012001CN0200001N9+03161+01611100851ADDAA106000091AG10999GF106991051021012501001081MA1999999096221MD1999999-0061REMSYN011333   59006
0062827840999991986022400004-07317-039300FM-12+040999999V0201401N00101220001CN9999999N9+02381+01891101131ADDAA106000091AG10001GF100991001001999999001001MA1999999096481
0115827840999991986022412004-07317-039300FM-12+040999999V0200901N00101007501CN0200001N9+02521+02051101171ADDAA106000091AG10999GF108991081071008001999999KA1240N+02201MA1999999096511MD1999999-0031REMSYN017333   20220 59003
0096827840999991986022418004-07317-039300FM-12+040999999V0202701N00151220001CN0200001N9+03121+01921100711ADDAA106000091AG10999GF104991041021008001001001MA1999999096101MD1999999-0121REMSYN011333   59012
0115827840999991986022500004-07317-039300FM-12+040999999V0209991C00001220001CN9999999N9+02401+01971101011ADDAA106000091AG10999GF101991011081008001001001KA1240M+03161MA1999999096431MD1999999-0131REMSYN017333   10316 59013
0143827840999991986022512004-07317-039300FM-12+040999999V0200901N00101007501CN0200001N9+02371+01971101201ADDAA124008091AG10999AY161061AY221061GF108991081051008001999999KA1240N+02121MA1999999096531MD1999999+0021MW1021REMSYN023333   20212 58002 60084
0096827840999991986022518004-07317-039300FM-12+040999999V0200501N00151012001CN0200001N9+02921+02041100701ADDAA106000091AG10999GF108991051081008001031999MA1999999096071MD1999999-0031REMSYN011333   59003
0137827840999991986022600004-07317-039300FM-12+040999999V0202301N00101007501CN9999999N9+02421+02321100901ADDAA106000091AG10999AY181061AY231061GF108991081051008001999999KA1240M+02961MA1999999096241MD1999999-0111MW1021REMSYN017333   10296 59011
0143827840999991986022612004-07317-039300FM-12+040999999V0201401N00101012001CN0200001N9+02301+01981101121ADDAA124020091AG10999AY161061AY231061GF108991051081008001021999KA1240N+02011MA1999999096541MD1999999+0011MW1021REMSYN023333   20201 58001 60204
0096827840999991986022618004-07317-039300FM-12+040999999V0203601N00211045001CN0200001N9+02881+02181100721ADDAA106000091AG10999GF107991041081008001051001MA1999999096091MD1999999+0021REMSYN011333   58002
0137827840999991986022700004-07317-039300FM-12+040999999V0202301N00051045001CN9999999N9+02361+02221100921ADDAA106000091AG10999AY181061AY221061GF107991031071008001071001KA1240M+02951MA1999999096251MD1999999+0011MW1021REMSYN017333   10295 58001
0143827840999991986022712004-07317-039300FM-12+040999999V0202301N00051007501CN0200001N9+02361+02031101231ADDAA124048091AG10999AY161061AY221061GF108991081061008001999999KA1240N+02201MA1999999096651MD1999999+0011MW1021REMSYN023333   20220 58001 60484
0096827840999991986022718004-07317-039300FM-12+040999999V0200501N00151045001CN0200001N9+02911+01901100811ADDAA106000091AG10999GF108991031021008001011999MA1999999096171MD1999999+0081REMSYN011333   58008
0137827840999991986022800004-07317-039300FM-12+040999999V0202301N00151007501CN9999999N9+02351+02111101041ADDAA106000091AG10999AY181061AY231061GF108991081051008001999999KA1240M+02941MA1999999096371MD1999999+0121MW1021REMSYN017333   10294 58012
0137827840999991986022812004-07317-039300FM-12+040999999V0200501N00151012001CN0200001N9+02521+02021101241ADDAA106000091AG10999AY181061AY231061GF108991081081008001999999KA1240N+02101MA1999999096571MD1999999+0021MW1021REMSYN017333   20210 58002
0096827840999991986022818004-07317-039300FM-12+040999999V0203601N00151007501CN0200001N9+02841+02041101121ADDAA106000091AG10999GF108991061071008001021999MA1999999096181MD1999999+0011REMSYN011333   58001
0143827840999991986030100004-07317-039300FM-12+040999999V0202701N00151007501CN0200001N9+02201+02011101271ADDAA124005091AG10999AY161061AY231061GF108991081071008001999999KA1240N+01991MA1999999096591MD1999999+0021MW1021REMSYN023333   20199 58002 60054
0096827840999991986030118004-07317-039300FM-12+040999999V0200501N00101045001CN0200001N9+02661+02141100961ADDAA106000091AG10999GF108991031021008001021999MA1999999096291MD1999999+0111REMSYN011333   58011
0137827840999991986030200004-07317-039300FM-12+040999999V0209991C00001220001CN9999999N9+02201+01121101111ADDAA106000091AG10999AY181061AY221061GF100991001001999999001001KA1240M+02691MA1999999096431MD1410001+0001MW1021REMSYN017333   10269 58000
0115827840999991986030212004-07317-039300FM-12+040999999V0200501N00051012001CN0200001N9+02411+02111101191ADDAA106000091AG10999GF108991081081008001999999KA1240N+02011MA1999999096511MD1999999-0081REMSYN017333   20201 59008
0096827840999991986030218004-07317-039300FM-12+040999999V0200501N00211015001CN0200001N9+02921+02041100791ADDAA106000091AG10999GF106991051081012501021001MA1999999096201MD1999999-0141REMSYN011333   59014
0115827840999991986030300004-07317-039300FM-12+040999999V0201801N00051007501CN9999999N9+02441+02211101211ADDAA106000091AG10999GF107991071071008001999999KA1240M+02971MA1999999096541MD1999999+0111REMSYN017333   10297 58011
0143827840999991986030312004-07317-039300FM-12+040999999V0202301N00151007501CN0040001N9+02321+02071101451ADDAA124013091AG10999AY161061AY231061GF108991081071008001999999KA1240N+02031MA1999999096771MD1999999+0261MW1021REMSYN023333   20203 58026 60134
0096827840999991986030318004-07317-039300FM-12+040999999V0200501N00211012001CN0200001N9+02701+02111101081ADDAA106000091AG10999GF108991081081008001999999MA1999999096421MD1999999+0271REMSYN011333   58027
0115827840999991986030400004-07317-039300FM-12+040999999V0201401N00051220001CN9999999N9+02341+02221101381ADDAA106000091AG10999GF100991001001999999001001KA1240M+02761MA1999999096691MD1999999+0151REMSYN017333   10276 58015
0143827840999991986030412004-07317-039300FM-12+040999999V0203601N00101012001CN0040001N9+02481+02151101581ADDAA124000391AG10999AY161061AY221061GF108991081081008001999999KA1240N+02201MA1999999096891MD1999999+0121MW1021REMSYN023333   20220 58012 69934
0124827840999991986030418004-07317-039300FM-12+040999999V0200901N00151045001CN0200001N9+02701+02081101071ADDAA106000591AG10999AY161061AY231061GF108991031081008001021999MA1999999096411MD1999999-0011MW1021REMSYN017333   59001 69951
0143827840999991986030500004-07317-039300FM-12+040999999V0201401N00311015001CN0040001N9+02001+01931101611ADDAA106011091AG10999AY161061AY231061GF108991081001017501021999KA1240M+02751MA1999999096911MD1999999+0221MW1131REMSYN023333   10275 58022 60111
0162827840999991986030512004-07317-039300FM-12+040999999V0201801N00101004201CN0040001N9+02281+02071101631ADDAA124013091AG10999AY111061AY261061GF108991081051004501999999KA1240N+99999MA1999999096911MD1999999-0021MW1151REMSYN023333   20299 59002 60134EQDQ01 +02992ATMN  
0124827840999991986030518004-07317-039300FM-12+040999999V0200901N00051004201CN0040001N9+02281+02201101271ADDAA106008091AG10999AY161061AY231061GF108991081071004501999999MA1999999096571MD1999999+0161MW1161REMSYN017333   58016 60081
0121827840999991986030612004-07317-039300FM-12+040999999V0203601N00101045001CN0200001N9+02381+02021101461ADDAA124008091AG10999GF108991041081008001031999KA1240N+02001MA1999999097661MD1999999-0141REMSYN023333   20200 59014 60084
0115827840999991986030618004-07317-039300FM-12+040999999V0200501N00261015001CN0200001N9+02811+02221100951ADDAA106000091AG10999GF108991071081012501021999MA1999999096302MD1999999-0271REMSYN011333   59027EQDQ01+096303APOSP 
0115827840999991986030712004-07317-039300FM-12+040999999V0200901N00051007501CN0200001N9+02421+02071101301ADDAA106000091AG10999GF108991081071008001999999KA1240N+02101MA1999999096661MD1999999-0151REMSYN017333   20210 59015
0143827840999991986030900004-07317-039300FM-12+040999999V0202701N00051007501CN9999999N9+02281+02201101221ADDAA106009091AG10999AY161061AY261061GF108991081071008001999999KA1240M+02651MA1999999096531MD1999999+0051MW1021REMSYN023333   10265 58005 60091
0143827840999991986030912004-07317-039300FM-12+040999999V0201801N00101045001CN0200001N9+02291+02091101411ADDAA124047091AG10999AY161061AY231061GF108991041081004501021999KA1240N+02031MA1999999096721MD1999999-0021MW1021REMSYN023333   20203 59002 60474
0137827840999991986031000004-07317-039300FM-12+040999999V0201801N00051220001CN9999999N9+02121+02041101201ADDAA106000091AG10999AY181061AY211061GF100991001001999999001001KA1240M+02121MA1999999096511MD1999999-0021MW1001REMSYN017333   10212 59002
0115827840999991986031012004-07317-039300FM-12+040999999V0200501N00151012001CN0200001N9+02541+02021101381ADDAA106000091AG10999GF107991071081008001001001KA1240N+02021MA1999999096701MD1999999-0021REMSYN017333   20202 59002
0118827840999991986031018004-07317-039300FM-12+040999999V0200901N00311009001CN0040001N9+02701+02221101041ADDAA106000091AG10999AY121061AY221061GF108991081081004501999999MA1999999096381MD1999999+0061MW1161REMSYN011333   58006
0137827840999991986031100004-07317-039300FM-12+040999999V0209991C00001007501CN9999999N9+02311+02161101271ADDAA106000091AG10999AY181061AY231061GF108991081071008001999999KA1240M+02891MA1999999096601MD1999999+0091MW1021REMSYN017333   10289 58009
0115827840999991986031112004-07317-039300FM-12+040999999V0201401N00151045001CN0200001N9+02721+02081101181ADDAA106000091AG10999GF106991041021008001011001KA1240N+02131MA1999999096521MD1999999-0181REMSYN017333   20213 59018
0096827840999991986031118004-07317-039300FM-12+040999999V0200901N00261012001CN0200001N9+03001+02081100811ADDAA106000091AG10999GF105991051081008001001001MA1999999096181MD1999999-0201REMSYN011333   59020
0115827840999991986031200004-07317-039300FM-12+040999999V0201401N00051012001CN9999999N9+02421+02191101151ADDAA106000091AG10999GF107991071081008001001001KA1240M+03091MA1999999096501MD1999999-0101REMSYN017333   10309 59010
0143827840999991986031300004-07317-039300FM-12+040999999V0203601N00101007501CN9999999N9+02261+02071101201ADDAA106000191AG10999AY161061AY231061GF108991081071008001999999KA1240M+02951MA1999999096541MD1999999+0041MW1021REMSYN023333   10295 58004 69911
0096827840999991986031318004-07317-039300FM-12+040999999V0200501N00151220001CN0200001N9+02961+02051100801ADDAA106000091AG10999GF104991031021008001021001MA1999999096161MD1999999-0131REMSYN011333   59013
0143827840999991986031400004-07317-039300FM-12+040999999V0201401N00261004201CN9999999N9+02261+02121101201ADDAA106002091AG10999AY131061AY251061GF108991081071004501999999KA1240M+02971MA1999999096541MD1999999+0001MW1251REMSYN023333   10297 58000 60021
0143827840999991986031412004-07317-039300FM-12+040999999V0200901N00151007501CN0200001N9+02401+02111101321ADDAA124037091AG10999AY161061AY231061GF108991081071008001999999KA1240N+02121MA1999999096641MD1999999+0071MW1001REMSYN023333   20212 58007 60374
0096827840999991986031418004-07317-039300FM-12+040999999V0200901N00151007501CN0200001N9+02561+02191100941ADDAA106000091AG10999GF108991081071008001999999MA1999999096281MD1999999+0121REMSYN011333   58012
0143827840999991986031512004-07317-039300FM-12+040999999V0200901N00101012001CN0200001N9+02541+02151101311ADDAA124005091AG10999AY161061AY231061GF107991071081008001001001KA1240N+02151MA1999999096641MD1999999+0001MW1021REMSYN023333   20215 58000 60054
0096827840999991986031518004-07317-039300FM-12+040999999V0200501N00361012001CN0200001N9+02881+02211100871ADDAA106000091AG10001GF106991061081008001001001MA1999999096231MD1999999-0081REMSYN011333   59008
0123827840999991986031600004-07317-039300FM-12+040999999V0209991C00001220001CN9999999N9+02341+02221101131ADDAA106000091AG10999AY181061AY201061GF100991001001999999001001KA1240M+03031MA1999999096471MW1001REMSYN017333   10303 590/3
0143827840999991986031612004-07317-039300FM-12+040999999V0200501N00211012001CN0200001N9+02641+02231101271ADDAA124000391AG10999AY161061AY231061GF108991081081008001999999KA1240N+02201MA1999999096611MD1999999-0031MW1021REMSYN023333   20220 59003 69934
0096827840999991986031618004-07317-039300FM-12+040999999V0200901N00211045001CN0200001N9+03041+01941100851ADDAA106000091AG10001GF105991041021012501011001MA1999999096221MD1999999-0011REMSYN011333   59001
0115827840999991986031700004-07317-039300FM-12+040999999V0200501N00051220001CN9999999N9+02241+02031101161ADDAA106000091AG10999GF100991001001999999001001KA1240M+03091MA1999999096501MD1999999+0031REMSYN017333   10309 58003
0115827840999991986031712004-07317-039300FM-12+040999999V0200901N00151220001CN0200001N9+02601+02081101341ADDAA106000091AG10999GF103991031021008001001001KA1240N+02001MA1999999096661MD1999999+0051REMSYN017333   20200 58005
0096827840999991986031718004-07317-039300FM-12+040999999V0200901N00261220001CN0200001N9+03101+02121100811ADDAA106000091AG10999GF104991041021008001001001MA1999999096181MD1999999-0041REMSYN011333   59004
0162827840999991986031812004-07317-039300FM-12+040999999V0200901N00151012001CN0200001N9+02561+02191101391ADDAA124046091AG10999AY161061AY211061GF106991061081008001001001KA1240N+99999MA1999999096721MD1999999+0061MW1021REMSYN023333   20270 58006 60464EQDQ01 +02702ATMN  
0096827840999991986031818004-07317-039300FM-12+040999999V0200901N00361015001CN0200001N9+02861+01901101051ADDAA106000091AG10999GF108991071081012501021999MA1999999096401MD1999999+0221REMSYN011333   58022
0115827840999991986031900004-07317-039300FM-12+040999999V0201401N00101220001CN9999999N9+02251+02121101231ADDAA106000091AG10999GF100991001001999999001001KA1240M+02961MA1999999096521MD1999999-0041REMSYN017333   10296 59004
0115827840999991986031912004-07317-039300FM-12+040999999V0201401N00211007501CN0200001N9+02621+02031101351ADDAA106000091AG10999GF106991061021008001001001KA1240N+02121MA1999999096681MD1999999-0041REMSYN017333   20212 59004
0115827840999991986032000004-07317-039300FM-12+040999999V0209991C00001220001CN9999999N9+02321+02131101191ADDAA106000091AG10999GF102991021041008001001001KA1240M+03061MA1999999096531MD1999999-0031REMSYN017333   10306 59003
0115827840999991986032012004-07317-039300FM-12+040999999V0200501N00151012001CN0200001N9+02521+02151101351ADDAA106000091AG10999GF107991071081008001001001KA1240N+02081MA1999999096671MD1999999-0011REMSYN017333   20208 59001
0096827840999991986032018004-07317-039300FM-12+040999999V0202301N00211012001CN0200001N9+02921+02091100821ADDAA106000091AG10999GF108991081081008001999999MA1999999096181MD1999999-0151REMSYN011333   59015
0143827840999991986032112004-07317-039300FM-12+040999999V0203201N00101012001CN0200001N9+02481+02031101311ADDAA124005091AG10999AY161061AY211061GF107991071081008001001001KA1240N+02131MA1999999096641MD1999999-0031MW1021REMSYN023333   20213 59003 60054
0096827840999991986032118004-07317-039300FM-12+040999999V0200901N00311007501CN0200001N9+02981+02151100871ADDAA106000091AG10999GF106991061021008001001001MA1999999096241MD1999999+0061REMSYN011333   58006
0115827840999991986032200004-07317-039300FM-12+040999999V0202701N00051012001CN9999999N9+02401+02191101191ADDAA106000091AG10999GF108991051081008001021999KA1240M+03031MA1999999096541MD1999999+0091REMSYN017333   10303 58009
0143827840999991986032212004-07317-039300FM-12+040999999V0203601N00051012001CN0200001N9+02501+02031101311ADDAA124001091AG10999AY161061AY221061GF108991081081008001999999KA1240N+02141MA1999999096641MD1999999+0001MW1021REMSYN023333   20214 58000 60014
0124827840999991986032218004-07317-039300FM-12+040999999V0201801N00311004201CN0002001N9+02101+02021100961ADDAA106031091AG10999AY131061AY231061GF108991081071004501999999MA1999999096281MD1999999+0041MW1971REMSYN017333   58004 60311
0124827840999991986032318004-07317-039300FM-12+040999999V0203201N00211045001CN0200001N9+02421+02261100991ADDAA106004091AG10999AY161061AY231061GF108991041031008001021999MA1999999096321MD1999999+0041MW1021REMSYN017333   58004 60041
0143827840999991986032400004-07317-039300FM-12+040999999V0202301N00151007501CN9999999N9+02341+02151101211ADDAA106000591AG10999AY161061AY231061GF108991071071008001021999KA1240M+02871MA1999999096571MD1999999+0041MW1011REMSYN023333   10287 58004 69951
0121827840999991986032412004-07317-039300FM-12+040999999V0201401N00211012001CN0200001N9+02681+02111101291ADDAA124005091AG10999GF105991051081008001001001KA1240N+02161MA1999999096631MD1999999-0061REMSYN023333   20216 59006 60054
0096827840999991986032418004-07317-039300FM-12+040999999V0201401N00261012001CN0200001N9+02881+02081100871ADDAA106000091AG10999GF107991071081008001001001MA1999999096241MD1999999-0091REMSYN011333   59009
0143827840999991986032500004-07317-039300FM-12+040999999V0201801N00101045001CN0100001N9+02371+02211101211ADDAA106000191AG10999AY131061AY231061GF108991021051008001021999KA1240M+03051MA1999999096551MD1999999+0001MW1511REMSYN023333   10305 58000 69911
0121827840999991986032512004-07317-039300FM-12+040999999V0200901N00311012001CN0200001N9+02641+01951101291ADDAA124000191AG10999GF106991061081008001001001KA1240N+02151MA1999999096621MD1999999-0011REMSYN023333   20215 59001 69914
0124827840999991986032518004-07317-039300FM-12+040999999V0203201N00101012001CN0200001N9+02661+02181100921ADDAA106002091AG10001AY161061AY221061GF106991051081008001011001MA1999999096271MD1999999+0031MW1021REMSYN017333   58003 60021
0143827840999991986032600004-07317-039300FM-12+040999999V0209991C00001045001CN9999999N9+02301+02231101241ADDAA106004091AG10999AY161061AY231061GF108991041051008001021999KA1240M+02801MA1999999096571MD1999999+0001MW1021REMSYN023333   10280 58000 60041
0124827840999991986032618004-07317-039300FM-12+040999999V0202701N00151012001CN0200001N9+02621+02211101011ADDAA106000191AG10999AY161061AY231061GF108991081081008001999999MA1999999096351MD1999999+0081MW1021REMSYN017333   58008 69911
0115827840999991986032700004-07317-039300FM-12+040999999V0209991C00001001201CN9999999N9+02381+02191101171ADDAA106000091AG10999GF108991081041001501999999KA1240M+02661MA1999999096491MD1999999-0081REMSYN017333   10266 59008
0121827840999991986032712004-07317-039300FM-12+040999999V0200901N00101220001CN0200001N9+02641+02091101321ADDAA124000191AG10999GF101991011021008001001001KA1240N+01971MA1999999096651MD1999999-0071REMSYN023333   20197 59007 69914
0115827840999991986032718004-07317-039300FM-12+040999999V0200901N00311012001CN0200001N9+02881+02031100941ADDAA106000091AG10999GF106991999081008001001001MA1999999096291MD1999999-0061REMSYN011333   59006EQDQ01+000052SCOTLC
0137827840999991986032800004-07317-039300FM-12+040999999V0202301N00101220001CN9999999N9+02221+02081101201ADDAA106000091AG10999AY181061AY201061GF100991001001999999001001KA1240M+03041MA1999999096541MD1999999+0051MW1001REMSYN017333   10304 58005
0143827840999991986032812004-07317-039300FM-12+040999999V0203601N00101012001CN0040001N9+02281+02201101451ADDAA124030091AG10999AY161061AY221061GF108991081081008001999999KA1240N+02161MA1999999096751MD1999999+0101MW1201REMSYN023333   20216 58010 60304
0096827840999991986032818004-07317-039300FM-12+040999999V0200901N00261012001CN0200001N9+02931+02931100961ADDAA106000091AG10999GF108991081081008001999999MA1999999096321MD1999999+0031REMSYN011333   58003
0154827840999991986032900004-07317-039300FM-12+040999999V0200901N00101007501CN0100001N9+02401+02211101281ADDAA106000691AA299000591AG10999AY161061AY231061GF108991081071008001999999KA1240M+02991MA1999999096601MD1999999+0061MW1951REMSYN023333   10299 58006 69961
0143827840999991986032912004-07317-039300FM-12+040999999V0200501N00101007501CN0020001N9+02361+02191101511ADDAA124011091AG10001AY161061AY231061GF108991081071008001999999KA1240N+02231MA1999999096831MD1999999+0081MW1161REMSYN023333   20223 58008 60114
0124827840999991986032918004-07317-039300FM-12+040999999V0201401N00151045001CN0200001N9+02911+02131100991ADDAA106003091AG10999AY161061AY281061GF106991041021008001011001MA1999999096321MD1999999+0031MW1021REMSYN017333   58003 60031
0143827840999991986033000004-07317-039300FM-12+040999999V0203601N00211007501CN9999999N9+02311+02201101351ADDAA106000591AG10999AY161061AY231061GF108991081071008001999999KA1240M+02951MA1999999096671MD1999999+0071MW1131REMSYN023333   10295 58007 69951
0143827840999991986033012004-07317-039300FM-12+040999999V0200501N00361220001CN0200001N9+02561+02171101361ADDAA124008091AG10999AY161061AY231061GF104991041081008001001001KA1240N+02201MA1999999096691MD1999999-0141MW1021REMSYN023333   20220 59014 60084
0096827840999991986033018004-07317-039300FM-12+040999999V0203601N00311015001CN0200001N9+02941+02241100741ADDAA106000091AG10999GF106991061081012501001001MA1999999096111MD1999999-0241REMSYN011333   59024
0154827840999991986033100004-07317-039300FM-12+040999999V0200501N00151007501CN9999999N9+02301+02161101241ADDAA106000691AA299000591AG10999AY161061AY261061GF108991081071008001999999KA1240M+02981MA1999999096581MD1999999-0101MW1131REMSYN023333   10298 59010 69961
0143827840999991986033112004-07317-039300FM-12+040999999V0200901N00211045001CN0200001N9+02611+02121101301ADDAA124005091AG10999AY161061AY221061GF106991041021008001041001KA1240N+02201MA1999999096631MD1999999-0051MW1021REMSYN023333   20220 59005 60054
0137827840999991986040100004-07317-039300FM-12+040999999V0209991C00001220001CN9999999N9+02271+02131101151ADDAA106000091AG10999AY181061AY211061GF100991001001999999001001KA1240M+03001MA1999999096491MD1999999-0081MW1001REMSYN017333   10300 59008
0150827840999991986040112004-07317-039300FM-12+040999999V0200901N00051007501CN0200001N9+02501+02241101141ADDAA106000091AG10999GF108991999021008001001001KA1240N+02261MA1999999999999MD1999999-0011REMSYN017333   20226 59001EQDQ01+000062SCOTLCQ02 098583APOSP 
0115827840999991986040118004-07317-039300FM-12+040999999V0201401N00151045001CN0200001N9+02941+02081100721ADDAA106000091AG10999GF106991031021012501021001MA1999999096092MD1999999-0091REMSYN011333   59009EQDQ01+096093APOSP 
0115827840999991986040200004-07317-039300FM-12+040999999V0201401N00211007501CN9999999N9+02421+02091101251ADDAA106000091AG10999GF108991081071008001999999KA1240M+02411MA1999999096581MD1999999+0091REMSYN017333   10241 58009
0143827840999991986040212004-07317-039300FM-12+040999999V0200901N00261007501CN0200001N9+02541+02041101211ADDAA124000591AG10999AY161061AY231061GF108991081051008001999999KA1240N+02191MA1999999096551MD1999999-0071MW1021REMSYN023333   20219 59007 69954
0118827840999991986040218004-07317-039300FM-12+040999999V0201801N00261012001CN0040001N9+02681+02111100831ADDAA106000091AG10999AY131061AY231061GF108991081081008001999999MA1999999096181MD1999999+0091MW1161REMSYN011333   58009
0143827840999991986040300004-07317-039300FM-12+040999999V0203201N00051220001CN9999999N9+02281+02231101221ADDAA106012091AG10999AY161061AY231061GF101991011081008001001001KA1240M+03011MA1999999096551MD1999999-0081MW1021REMSYN023333   10301 59008 60121
0143827840999991986040312004-07317-039300FM-12+040999999V0201401N00211045001CN0200001N9+02571+02131101341ADDAA124013091AG10999AY161061AY211061GF105991031081008001011001KA1240N+02031MA1999999096671MD1999999+0121MW1011REMSYN023333   20203 58012 60134
0096827840999991986040318004-07317-039300FM-12+040999999V0200901N00101012001CN0200001N9+02861+01951100851ADDAA106000091AG10999GF107991051061012501021001MA1999999096211MD1999999+0031REMSYN011333   58003
0137827840999991986040400004-07317-039300FM-12+040999999V0202701N00101220001CN9999999N9+02331+02221101141ADDAA106000091AG10999AY181061AY211061GF100991001001999999001001KA1240M+02961MA1999999096481MD1999999-0071MW1001REMSYN017333   10296 59007
0115827840999991986040412004-07317-039300FM-12+040999999V0201501N00151220001CN0200001N9+02641+02001101261ADDAA106000091AG10999GF103991021021008001021001KA1240N+02151MA1999999096001MD1999999-0071REMSYN017333   20215 59007
0096827840999991986040418004-07317-039300FM-12+040999999V0201401N00261012001CN0200001N9+02941+01941100831ADDAA106000091AG10999GF107991071081008001001001MA1999999096191MD1999999-0021REMSYN011333   59002
0115827840999991986040512004-07317-039300FM-12+040999999V0201401N00051220001CN0200001N9+02671+01811101161ADDAA106000091AG10999GF102991011021008001061001KA1240N+02081MA1999999096491MD1999999-0111REMSYN017333   20208 59011
0096827840999991986040518004-07317-039300FM-12+040999999V0201401N00261220001CN0200001N9+02941+01791100741ADDAA106000091AG10999GF103991031021008001001001MA1999999096101MD1999999-0091REMSYN011333   59009
0115827840999991986040600004-07317-039300FM-12+040999999V0202301N00101220001CN9999999N9+02141+01971101031ADDAA106000091AG10999GF100991001001999999001001KA1240M+02981MA1999999096371MD1999999+0021REMSYN017333   10298 58002
0115827840999991986040612004-07317-039300FM-12+040999999V0200901N00261012001CN0200001N9+02681+01891101281ADDAA106000091AG10999GF106991061081008001001001KA1240N+02061MA1999999096611MD1999999+0121REMSYN017333   20206 58012
0096827840999991986040618004-07317-039300FM-12+040999999V0200901N00211045001CN0200001N9+03001+02031100811ADDAA106000091AG10999GF106991021081012501071001MA1999999096171MD1999999+0071REMSYN011333   58007
0115827840999991986040700004-07317-039300FM-12+040999999V0200901N00051220001CN9999999N9+02481+02151100941ADDAA106000091AG10999GF102991021071008001001001KA1240M+03071MA1999999096301MD1999999-0071REMSYN017333   10307 59007
0143827840999991986040712004-07317-039300FM-12+040999999V0200501N00051007501CN0040001N9+02421+02191101311ADDAA124006091AG10999AY161061AY221061GF108991081051008001999999KA1240N+02181MA1999999096641MD1999999+0031MW1021REMSYN023333   20218 58003 60064
0124827840999991986040718004-07317-039300FM-12+040999999V0203201N00151012001CN0200001N9+02561+02251100971ADDAA106001091AG10999AY161061AY231061GF108991081081008001999999MA1999999096321MD1999999+0151MW1021REMSYN017333   58015 60011
0143827840999991986040800004-07317-039300FM-12+040999999V0201401N00101045001CN0020001N9+02221+02171101381ADDAA106043091AG10999AY161061AY231061GF108991031071004501021999KA1240M+02871MA1999999096701MD1999999+0401MW1651REMSYN023333   10287 58040 60431
0143827840999991986040812004-07317-039300FM-12+040999999V0201401N00101045001CN0200001N9+02561+02191101361ADDAA124053091AG10999AY161061AY231061GF107991031081008001061001KA1240N+02181MA1999999096681MD1999999+0041MW1021REMSYN023333   20218 58004 60534
0124827840999991986040818004-07317-039300FM-12+040999999V0203601N00101007501CN0200001N9+02361+02261100971ADDAA106005091AG10999AY161061AY231061GF108991081071008001999999MA1999999096301MD1999999-0021MW1211REMSYN017333   59002 60051
0143827840999991986040912004-07317-039300FM-12+040999999V0201401N00211045001CN0200001N9+02681+02161101271ADDAA124012091AG10999AY161061AY211061GF107991031021008001031001KA1240N+02151MA1999999096601MD1999999-0081MW1021REMSYN023333   20215 59008 60124
0096827840999991986040918004-07317-039300FM-12+040999999V0201401N00261220001CN0200001N9+02831+02121100831ADDAA106000091AG10999GF104991041081008001001001MA1999999096191MD1999999-0111REMSYN011333   59011
0132827840999991986041012004-07317-039300FM-12+040999999V0200501N00101045001CN0200001N9+02521+02151101211ADDAA124000991AA299001091AG10999GF108991031081008001031999KA1240N+02021MA1999999096581MD1999999-0021REMSYN023333   20202 59002 69994
0096827840999991986041018004-07317-039300FM-12+040999999V0200501N00151045001CN0200001N9+02901+02071100821ADDAA106000091AG10999GF106991041081008001031001MA1999999096181MD1999999-0011REMSYN011333   59001
0143827840999991986041100004-07317-039300FM-12+040999999V0200901N00101007501CN9999999N9+02281+02051101231ADDAA106001091AG10999AY161061AY231061GF108991081071008001999999KA1240M+02971MA1999999096561MD1999999+0031MW1021REMSYN023333   10297 58003 60011
0121827840999991986041112004-07317-039300FM-12+040999999V0200501N00101045001CN0200001N9+02501+99999101301ADDAA124001091AG10999GF107991011011008001031001KA1240N+02151MA1999999096631MD1999999+0051REMSYN023333   20215 58005 60014
0096827840999991986041118004-07317-039300FM-12+040999999V0201401N00261220001CN0200001N9+03101+02031100851ADDAA106000091AG10999GF104991021081008001071001MA1999999096181MD1999999+0001REMSYN011333   58000
0137827840999991986041200004-07317-039300FM-12+040999999V0201801N00051220001CN9999999N9+02381+02151101171ADDAA106000091AG10999AY111061AY211061GF102991021081008001001001KA1240M+03111MA1999999096511MD1999999-0051MW1131REMSYN017333   10311 59005
0143827840999991986041212004-07317-039300FM-12+040999999V0200501N00051012001CN0200001N9+02621+02161101351ADDAA124002091AG10999AY161061AY211061GF107991071081008001001001KA1240N+02201MA1999999096681MD1999999+0051MW1021REMSYN023333   20220 58005 60024
0096827840999991986041218004-07317-039300FM-12+040999999V0203601N00261045001CN0200001N9+02741+02211100971ADDAA106000091AG10999GF105991041081008001031001MA1999999096321MD1999999+0141REMSYN011333   58014
0154827840999991986041300004-07317-039300FM-12+040999999V0201401N00051220001CN9999999N9+02221+02121101171ADDAA106000991AA299001091AG10999AY161061AY211061GF100991001001999999001001KA1240M+03081MA1999999096501MD1999999-0011MW1001REMSYN023333   10308 59001 69991
0096827840999991986041318004-07317-039300FM-12+040999999V0200901N00211220001CN0200001N9+03021+02071100731ADDAA106000091AG10999GF103991021081012501011001MA1999999096101MD1999999-0221REMSYN011333   59022
0121827840999991986041400004-07317-039300FM-12+040999999V02099999999999999999N9999999N9+02221+02171999999ADDAA106006091AG10999GF108991999999008001999999KA1240M+03051MA1999999096521MD1999999+0021REMSYN023333   10305 58002 60061
0121827840999991986041412004-07317-039300FM-12+040999999V0201401N00151045001CN0200001N9+02601+01991101201ADDAA124006091AG10999GF105991031051008001011001KA1240N+02161MA1999999096531MD1999999-0051REMSYN023333   20216 59005 60064
0124827840999991986041418004-07317-039300FM-12+040999999V0201801N00311007501CN0200001N9+02441+02211100801ADDAA106003091AG10999AY121061AY221061GF106991051071008001011001MA1999999096141MD1999999+0021MW1211REMSYN017333   58002 60031
0143827840999991986041500004-07317-039300FM-12+040999999V0202301N00101007501CN9999999N9+02171+02131101211ADDAA106005091AG10999AY161061AY221061GF108991081051008001999999KA1240M+02981MA1999999096541MD1999999+0021MW1021REMSYN023333   10298 58002 60051
0121827840999991986041512004-07317-039300FM-12+040999999V0200901N00151007501CN0200001N9+02481+02231101241ADDAA124007091AG10999GF108991081051008001999999KA1240N+02141MA1999999096561MD1999999+0031REMSYN023333   20214 58003 60074
0143827840999991986041600004-07317-039300FM-12+040999999V0202301N00101007501CN0100001N9+02241+02171101321ADDAA106004091AG10999AY161061AY221061GF108991081071008001999999KA1240M+02921MA1999999096641MD1999999+0101MW1511REMSYN023333   10292 58010 60041
0143827840999991986041612004-07317-039300FM-12+040999999V0200901N00151012001CN0200001N9+02661+02311101311ADDAA124005091AG10999AY161061AY231061GF106991051081008001031001KA1240N+02201MA1999999096641MD1999999+0081MW1021REMSYN023333   20220 58008 60054
0096827840999991986041618004-07317-039300FM-12+040999999V0200501N00211012001CN0200001N9+02921+02321100931ADDAA106000091AG10999GF106991051081008001061001MA1999999096591MD1999999+0081REMSYN011333   58008
0143827840999991986041700004-07317-039300FM-12+040999999V0201401N00621004201CN0002001N9+02291+02181101381ADDAA106010091AG10999AY161061AY221061GF108991081071004501999999KA1240M+02971MA1999999096711MD1999999+0071MW1971REMSYN023333   10297 58007 60101
0143827840999991986041712004-07317-039300FM-12+040999999V0200501N00101045001CN0200001N9+02521+02251101291ADDAA124016091AG10999AY161061AY231061GF107991021021008001031001KA1240N+02051MA1999999096621MD1999999-0021MW1021REMSYN023333   20205 59002 60164
0096827840999991986041718004-07317-039300FM-12+040999999V0201801N00101045001CN0200001N9+02781+02131100871ADDAA106000091AG10999GF108991021051008001021999MA1999999096231MD1999999-0071REMSYN011333   59007
0115827840999991986041812004-07317-039300FM-12+040999999V0201401N00311220001CN0200001N9+02631+01911101341ADDAA106000091AG10999GF103991011011008001011001KA1240N+02101MA1999999096671MD1999999+0051REMSYN017333   20210 58005
0096827840999991986041818004-07317-039300FM-12+040999999V0201401N00261045001CN0200001N9+02881+01971100911ADDAA106000091AG10999GF106991041021008001011001MA1999999096261MD1999999+0031REMSYN011333   58003
0137827840999991986041900004-07317-039300FM-12+040999999V0209991C00001220001CN9999999N9+02201+01991101161ADDAA106000091AG10999AY181061AY211061GF102991021061008001001001KA1240M+02951MA1999999096491MD1999999-0071MW1011REMSYN017333   10295 59007
0134827840999991986041912004-07317-039300FM-12+040999999V0201401N00211012001CN0200001N9+02641+02051101241ADDAA106000091AG10999GF108991081081008001999999KA1240N+99999MA1999999096571MD1999999-0101REMSYN017333   20296 59010EQDQ01 +02962ATMN  
0121827840999991986042012004-07317-039300FM-12+040999999V0203201N00051004201CN0200001N9+02261+02141101251ADDAA124003091AG10999GF108991081051004501999999KA1240N+02051MA1999999096751MD1999999+0181REMSYN023333   20205 58018 60034
0124827840999991986042018004-07317-039300FM-12+040999999V0201801N00101220001CN0200001N9+02851+02261100951ADDAA106002091AG10999AY161061AY211061GF103991021021008001071001MA1999999096301MD1999999+0071MW1011REMSYN017333   58007 60021
0137827840999991986042100004-07317-039300FM-12+040999999V0202701N00051012001CN9999999N9+02341+02261101311ADDAA106000091AG10999AY181061AY211061GF108991081081008001999999KA1240M+02971MA1999999096631MD1999999+0071MW1021REMSYN017333   10297 58007
0143827840999991986042112004-07317-039300FM-12+040999999V0203201N00051007501CN0200001N9+02221+02011101511ADDAA124019091AG10999AY161061AY221061GF108991081051008001999999KA1240N+02111MA1999999096821MD1999999+0071MW1611REMSYN023333   20211 58007 60194
0096827840999991986042118004-07317-039300FM-12+040999999V0202701N00051012001CN0200001N9+02661+02371101011ADDAA106000091AG10999GF107991071081008001001001MA1999999096351MD1999999+0051REMSYN011333   58005
0132827840999991986042212004-07317-039300FM-12+040999999V0202301N00051220001CN9999999N9+02221+02171101291ADDAG10999AY181061AY211061GF102991021041000751001001KA1240N+02051MA1999999096591MD1999999+0041MW1011REMSYN023333   1033/ 20205 58004
0118827840999991986042218004-07317-039300FM-12+040999999V0201801N00211009001CN0010001N9+02651+02071100971ADDAA106000091AG10999AY131061AY231061GF108991081081004501999999MA1999999096301MD1999999-0051MW1171REMSYN011333   59005
0143827840999991986042300004-07317-039300FM-12+040999999V0201801N00151012001CN9999999N9+02201+02131101201ADDAA106020091AG10999AY161061AY221061GF107991071081008001001001KA1240M+03071MA1999999096531MD1999999-0061MW1011REMSYN023333   10307 59006 60201
0132827840999991986042312004-07317-039300FM-12+040999999V0202301N00051007501CN0200001N9+02321+02201101311ADDAG10999AY161061AY231061GF108991081071008001999999KA1240N+02121MA1999999096621MD1999999+0001MW1021REMSYN023333   20212 58000 60/04
0096827840999991986042318004-07317-039300FM-12+040999999V0202701N00151012001CN0200001N9+02661+02181100781ADDAA106000091AG10999GF108991081081008001999999MA1999999096131MD1999999-0171REMSYN011333   59017
0143827840999991986042412004-07317-039300FM-12+040999999V0203201N00051012001CN0200001N9+02461+02111101281ADDAA124062091AG10999AY161061AY221061GF107991061081008001031001KA1240N+02051MA1999999096591MD1999999-0031MW1021REMSYN023333   20205 59003 60624
0096827840999991986042418004-07317-039300FM-12+040999999V0202301N00211012001CN0200001N9+02521+02111100961ADDAA106000091AG10999GF107991071081008001001001MA1999999096191MD1999999+0061REMSYN011333   58006
0143827840999991986042500004-07317-039300FM-12+040999999V0203201N00051045001CN9999999N9+02221+02171101231ADDAA106013091AG10999AY161061AY231061GF108991031051008001021999KA1240M+02971MA1999999096551MD1999999+0071MW1021REMSYN023333   10297 58007 60131
0143827840999991986042512004-07317-039300FM-12+040999999V0200501N00051007501CN0200001N9+02401+02171101391ADDAA124013091AG10999AY161061AY231061GF108991081071008001999999KA1240N+02181MA1999999096701MD1999999+0111MW1021REMSYN023333   20218 58011 60134
0124827840999991986042518004-07317-039300FM-12+040999999V0201401N00051007501CN0200001N9+02461+02111101061ADDAA106005091AG10999AY161061AY231061GF108991081071008001999999MA1999999096391MD1999999+0201MW1021REMSYN017333   58020 60051
0115827840999991986042600004-07317-039300FM-12+040999999V0209991C00001007501CN9999999N9+02201+02131101281ADDAA106000091AG10999GF108991081071008001999999KA1240M+02671MA1999999096601MD1999999-0051REMSYN017333   10267 59005
0121827840999991986042612004-07317-039300FM-12+040999999V0200901N00151012001CN0200001N9+02601+02191101361ADDAA124005091AG10999GF106991061081008001001001KA1240N+02031MA1999999096681MD1999999-0021REMSYN023333   20203 59002 60054
0096827840999991986042618004-07317-039300FM-12+040999999V0200901N00211012001CN0200001N9+02961+02211100961ADDAA106000091AG10999GF106991061081008001001001MA1999999096311MD1999999-0081REMSYN011333   59008
0096827840999991986042718004-07317-039300FM-12+040999999V0200901N00151012001CN0200001N9+03021+02161100861ADDAA106000091AG10999GF106991061021012501001001MA1999999096231MD1999999-0081REMSYN011333   59008
0096827840999991986042812004-07317-039300FM-12+040999999V0200901N00101007501CN0200001N9+02561+02231101361ADDAA106000091AG10999GF108991081051008001999999MA1999999096691MD1999999+0031REMSYN011333   58003
0096827840999991986042818004-07317-039300FM-12+040999999V0200501N00151012001CN0200001N9+02841+02311100921ADDAA106000091AG10999GF107991051081008001021001MA1999999096281MD1999999+0051REMSYN011333   58005
0137827840999991986042900004-07317-039300FM-12+040999999V0209991C00001220001CN9999999N9+02381+02281101201ADDAA106000091AG10999AY181061AY211061GF100991001001999999001001KA1240M+03041MA1999999096541MD1999999+0071MW1001REMSYN017333   10304 58007
0143827840999991986042912004-07317-039300FM-12+040999999V0200501N00151007501CN0200001N9+02521+02311101311ADDAA124004091AG10999AY161061AY221061GF108991081071008001999999KA1240N+02241MA1999999096641MD1999999-0051MW1021REMSYN023333   20224 59005 60044
0096827840999991986042918004-07317-039300FM-12+040999999V0202701N00261012001CN0200001N9+02841+02261100941ADDAA106000091AG10999GF108991071081008001021999MA1999999096291MD1999999+0011REMSYN011333   58001
0143827840999991986043012004-07317-039300FM-12+040999999V0201401N00101012001CN0040001N9+02461+02131101481ADDAA124066091AG10001AY161061AY221061GF108991061081008001021999KA1240N+02131MA1999999096791MD1999999+0151MW1021REMSYN023333   20213 58015 60664
0115827840999991986050100004-07317-039300FM-12+040999999V0201401N00151007501CN9999999N9+02461+02171101381ADDAA106000091AG10999GF108991081071008001999999KA1240M+02971MA1999999096711MD1999999-0041REMSYN017333   10297 59004
0143827840999991986050112004-07317-039300FM-12+040999999V0201401N00211045001CN0200001N9+02621+02141101371ADDAA124002091AG10999AY161061AY221061GF106991031081008001031011KA1240N+02341MA1999999096711MD1999999-0081MW1011REMSYN023333   20234 59008 60024
0137827840999991986050200004-07317-039300FM-12+040999999V0209991C00001220001CN9999999N9+02221+02081101361ADDAA106000091AG10999AY181061AY211061GF100991001001999999001001KA1240M+02841MA1999999096681MD1999999-0031MW1001REMSYN017333   10284 59003
0115827840999991986050212004-07317-039300FM-12+040999999V0201401N00311220001CN0200001N9+02561+02041101541ADDAA106000091AG10999GF104991031021008001011001KA1240N+02141MA1999999096851MD1999999+0141REMSYN017333   20214 58014
0096827840999991986050218004-07317-039300FM-12+040999999V0200901N00151045001CN0200001N9+02841+02191101141ADDAA106000091AG10999GF106991021021008001021001MA1999999096481MD1999999+0011REMSYN011333   58001
0115827840999991986050300004-07317-039300FM-12+040999999V0201801N00101220001CN9999999N9+02271+02091101431ADDAA106000091AG10999GF100991001001999999001001KA1240M+02881MA1999999096751MD1999999+0071REMSYN017333   10288 58007
0134827840999991986050312004-07317-039300FM-12+040999999V0201401N00151007501CN0200001N9+02411+02091101541ADDAA106000091AG10999GF108991081051008001999999KA1240N+02071MA1999999999999MD1999999+0001REMSYN017333   20207 58000EQDQ01 098853APOSP 
0115827840999991986050400004-07317-039300FM-12+040999999V0201401N00101007501CN9999999N9+02341+02151101391ADDAA106000091AG10999GF107991071071008001001001KA1240M+02861MA1999999096721MD1999999-0041REMSYN017333   10286 59004
0115827840999991986050412004-07317-039300FM-12+040999999V0200901N00261012001CN0200001N9+02601+02121101281ADDAA106000091AG10999GF108991081081008001999999KA1240N+02271MA1999999096611MD1999999-0241REMSYN017333   20227 59024
0096827840999991986050418004-07317-039300FM-12+040999999V0200901N00261012001CN0200001N9+02821+02101100951ADDAA106000091AG10999GF108991081081008001999999MA1999999096311MD1999999-0171REMSYN011333   59017
0115827840999991986050500004-07317-039300FM-12+040999999V0209991C00001012001CN9999999N9+02271+02161101281ADDAA106000091AG10999GF108991081081008001999999KA1240M+02961MA1999999096611MD1999999-0111REMSYN017333   10296 59011
0134827840999991986050512004-07317-039300FM-12+040999999V0200501N00311220001CN0200001N9+02631+01961101381ADDAA106000091AG10999GF102991021021008001001001KA1240N+99999MA1999999096711MD1999999+0101REMSYN017333   20287 58010EQDQ01 +02872ATMN  
0096827840999991986050518004-07317-039300FM-12+040999999V0201401N00151220001CN0200001N9+02751+02191101021ADDAA106000091AG10001GF103991021021008001011001MA1999999096361MD1999999+0051REMSYN011333   58005
0102827840999991986050600004-07317-039300FM-12+040999999V0201801N00151220001CN9999999N9+02211+02061101281ADDAA106000091AG10999GF100991001001999999001001MA1999999096611MD1999999+0001REMSYN017333   102/2 58000
0125827840999991986050612004-07317-039300FM-12+040999999V0200901N00311012001CN0200001N9+02661+02111101361ADDAG10999AY161061AY211061GF106991061081008001001001KA1240N+02161MA1999999999999MW1031REMSYN011333   20216EQDQ01 098643APOSP 
0115827840999991986050618004-07317-039300FM-12+040999999V0200901N00311045001CN0200001N9+02941+01971100951ADDAA106000091AG10999GF106991041081008001031001MA1999999096312MD1999999-0051REMSYN011333   59005EQDQ01+096313APOSP 
0137827840999991986050700004-07317-039300FM-12+040999999V0201401N00051220001CN9999999N9+02241+02101101191ADDAA106000091AG10999AY181061AY211061GF102991021081008001001001KA1240M+02971MA1999999096531MD1999999-0081MW1021REMSYN017333   10297 59008
0143827840999991986050712004-07317-039300FM-12+040999999V0200901N00051045001CN0200001N9+02381+02151101381ADDAA124017091AG10999AY161061AY221061GF107991021081008001071001KA1240N+02131MA1999999096701MD1999999+0011MW1021REMSYN023333   20213 58001 60174
0096827840999991986050718004-07317-039300FM-12+040999999V0201401N00151012001CN0200001N9+02821+02161100901ADDAA106000091AG10999GF107991071081008001001001MA1999999096251MD1999999-0061REMSYN011333   59006
0115827840999991986050812004-07317-039300FM-12+040999999V0200501N00101007501CN0200001N9+02541+01861101341ADDAA106000091AG10999GF108991081051008001999999KA1240N+02191MA1999999096671MD1999999-0031REMSYN017333   20219 59003
0096827840999991986050818004-07317-039300FM-12+040999999V0200901N00211007501CN0200001N9+02801+01921101011ADDAA106000091AG10999GF108991071051008001021999MA1999999096371MD1999999+0121REMSYN011333   58012
0115827840999991986050912004-07317-039300FM-12+040999999V0200501N00211007501CN0200001N9+99999+99999101361ADDAA106000091AG10999GF105991051021008001001001KA1240N+01861MA1999999096681MD1999999+0011REMSYN017333   20186 58001
0096827840999991986050918004-07317-039300FM-12+040999999V0200901N00211220001CN0200001N9+03001+01941100911ADDAA106000091AG10999GF102991021021008001001001MA1999999096261MD1999999-0111REMSYN011333   59011
0115827840999991986051012004-07317-039300FM-12+040999999V0203601N00151220001CN0200001N9+99999+99999101431ADDAA106000091AG10999GF101991011011008001001001KA1240N+02931MA1999999096751MD1999999+0071REMSYN017333   20293 58007
0137827840999991986051100004-07317-039300FM-12+040999999V0209991C00001220001CN9999999N9+02171+02021101261ADDAA106000091AG10999AY181061AY201061GF100991001001999999001001KA1240M+03031MA1999999096591MD1999999-0011MW1001REMSYN017333   10303 59001
0115827840999991986051112004-07317-039300FM-12+040999999V0200901N00151012001CN0200001N9+02641+02161101361ADDAA106000091AG10999GF106991061081008001001001KA1240N+01891MA1999999096681MD1999999-0071REMSYN017333   20189 59007
0096827840999991986051118004-07317-039300FM-12+040999999V0200501N00151220001CN0200001N9+02901+02251101001ADDAA106000091AG10999GF103991031021008001001001MA1999999096331MD1999999-0091REMSYN011333   59009
0137827840999991986051200004-07317-039300FM-12+040999999V0209991C00001220001CN0200001N9+02251+02121101151ADDAA106000091AG10999AY181061AY211061GF100991001001999999001001KA1240M+02971MA1999999096491MD1999999-0101MW1001REMSYN017333   10297 59010
0137827840999991986051212004-07317-039300FM-12+040999999V0200901N00211045001CN0200001N9+02641+02091101181ADDAA106000091AG10999AY181061AY211061GF105991041021008001031001KA1240N+02201MA1999999096521MD1999999+0161MW1021REMSYN017333   20220 58016
0096827840999991986051218004-07317-039300FM-12+040999999V0200901N00211220001CN0200001N9+03001+02141100781ADDAA106000091AG10999GF103991021021008001011001MA1999999096151MD1999999-0181REMSYN011333   59018
0115827840999991986051300004-07317-039300FM-12+040999999V0202301N00051220001CN9999999N9+02191+02031101141ADDAA106000091AG10999GF100991001001999999001001KA1240M+03051MA1999999096471MD1999999-0021REMSYN017333   10305 59002
0115827840999991986051312004-07317-039300FM-12+040999999V0200501N00151220001CN0200001N9+02581+02101101201ADDAA106000091AG10999GF103991031021008001001001KA1240N+01871MA1999999096531MD1999999+0011REMSYN017333   20187 58001
0096827840999991986051318004-07317-039300FM-12+040999999V0200501N00211220001CN0200001N9+02991+02061100901ADDAA106000091AG10999GF103991021081008001011001MA1999999096251MD1999999+0101REMSYN011333   58010
0115827840999991986051412004-07317-039300FM-12+040999999V0200501N00151007501CN0200001N9+02481+02191101541ADDAA106000091AG10999GF108991081051008001999999KA1240N+02051MA1999999096851MD1999999+0321REMSYN017333   20205 58032
0096827840999991986051418004-07317-039300FM-12+040999999V0200501N00211012001CN0200001N9+02901+02101101151ADDAA106000091AG10999GF106991061081008001001001MA1999999096491MD1999999+0241REMSYN011333   58024
0143827840999991986051500004-07317-039300FM-12+040999999V0202301N00051220001CN9999999N9+02221+02121101481ADDAA106001091AG10999AY161061AY211061GF101991011001017501031001KA1240M+02951MA1999999096791MD1999999+0171MW1011REMSYN023333   10295 58017 60011
0121827840999991986051512004-07317-039300FM-12+040999999V0200901N00101012001CN0200001N9+02521+02191101631ADDAA124001091AG10999GF107991071081008001001001KA1240N+02081MA1999999096941MD1999999+0091REMSYN023333   20208 58009 60014
0096827840999991986051518004-07317-039300FM-12+040999999V0200901N00311045001CN0200001N9+02921+02061101181ADDAA106000091AG10999GF107991021021008001021001MA1999999096531MD1999999+0041REMSYN011333   58004
0137827840999991986051600004-07317-039300FM-12+040999999V0200301N00051220001CN9999999N9+02211+02081101411ADDAA106000091AG10999AY181061AY211061GF101991011021008001001001KA1240M+03031MA1999999096731MD1999999-0061MW1021REMSYN017333   10303 59006
0115827840999991986051612004-07317-039300FM-12+040999999V0200901N00311220001CN0200001N9+02621+01881101461ADDAA106000091AG10999GF102991021021008001001001KA1240N+01931MA1999999096781MD1999999-0161REMSYN017333   20193 59016
0096827840999991986051618004-07317-039300FM-12+040999999V0201401N00261220001CN0200001N9+02971+01681101051ADDAA106000091AG10999GF102991021011008001001001MA1999999096411MD1999999-0121REMSYN011333   59012
0115827840999991986051700004-07317-039300FM-12+040999999V0202701N00051220001CN9999999N9+02041+01891101341ADDAA106000091AG10999GF102991021021008001001001KA1240M+02991MA1999999096641MD1999999-0071REMSYN017333   10299 59007
0115827840999991986051712004-07317-039300FM-12+040999999V0201401N00411007501CN0200001N9+02521+01961101441ADDAA106000091AG10999GF107991071051008001001001KA1240N+02011MA1999999096751MD1999999-0031REMSYN017333   20201 59003
0096827840999991986051718004-07317-039300FM-12+040999999V0200901N00361220001CN0200001N9+02901+01841101021ADDAA106000091AG10999GF102991021021008001001001MA1999999096371MD1999999-0041REMSYN011333   59004
0115827840999991986051800004-07317-039300FM-12+040999999V0202301N00051220001CN9999999N9+02041+01711101341ADDAA106000091AG10999GF100991001001999999001001KA1240M+02951MA1999999096651MD1999999-0011REMSYN017333   10295 59001
0115827840999991986051812004-07317-039300FM-12+040999999V0200901N00261220001CN0200001N9+02541+01911101481ADDAA106000091AG10999GF104991041021008001001001KA1240N+01921MA1999999096791MD1999999+0041REMSYN017333   20192 58004
0096827840999991986051818004-07317-039300FM-12+040999999V0200901N00311220001CN0200001N9+02941+01851101091ADDAA106000091AG10999GF103991031021008001001001MA1999999096441MD1999999+0071REMSYN011333   58007
0134827840999991986051912004-07317-039300FM-12+040999999V0200901N00211220001CN0200001N9+02621+01931101481ADDAA106000091AG10999GF102991021021008001001001KA1240N+99999MA1999999096801MD1999999+0011REMSYN017333   20291 58001EQDQ01 +02912ATMN  
0096827840999991986051918004-07317-039300FM-12+040999999V0200901N00261220001CN0200001N9+02911+01691101131ADDAA106000091AG10999GF102991021021008001001001MA1999999096471MD1999999+0031REMSYN011333   58003
0115827840999991986052012004-07317-039300FM-12+040999999V0200901N00261220001CN0200001N9+02621+01671101371ADDAA106000091AG10999GF100991001001999999001001KA1240N+01861MA1999999096701MD1999999-0111REMSYN017333   20186 59011
0096827840999991986052018004-07317-039300FM-12+040999999V0200501N00211220001CN0200001N9+03021+01801100891ADDAA106000091AG10999GF102991021081012501001001MA1999999096261MD1999999-0191REMSYN011333   59019
0104827840999991986052112004-07317-039300FM-12+040999999V0200901N00211220001CN9999999N9+02681+01891101361ADDAG10999GF100991001001999999001001KA1240N+02151MA1999999096691MD1999999+0001REMSYN017333   20215 58000
0085827840999991986052118004-07317-039300FM-12+040999999V0200901N00151220001CN0200001N9+99999+99999999999ADDAG10999GF102991021021012501001001MA1999999096251MD1999999-0011REMSYN011333   59001
0085827840999991986052200004-07317-039300FM-12+040999999V0200901N00151007501CN9999999N9+99999+99999999999ADDAG10999GF108991081041008001999999MA1999999096521MD1999999-0131REMSYN011333   59013
0104827840999991986052212004-07317-039300FM-12+040999999V0201401N00261007501CN0200001N9+02461+02011999999ADDAG10001GF108991081051008001999999KA1240N+02201MA1999999096721MD1999999+0031REMSYN017333   20220 58003
0085827840999991986052218004-07317-039300FM-12+040999999V0200501N00211045001CN0200001N9+02881+02101100921ADDAG10999GF106991041081008001031081MA1999999096281MD1999999-0011REMSYN011333   59001
0132827840999991986052312004-07317-039300FM-12+040999999V0201401N00261012001CN0200001N9+02441+02031101471ADDAA124000691AA299000591AG10999GF106991051081008001031001KA1240N+02161MA1999999096791MD1999999+0071REMSYN023333   20216 58007 69964
0085827840999991986052318004-07317-039300FM-12+040999999V0201401N00211045001CN0200001N9+02791+02061101081ADDAG10999GF105991041081008001061001MA1999999096431MD1999999+0151REMSYN011333   58015
0104827840999991986052412004-07317-039300FM-12+040999999V0201801N00261220001CN0200001N9+02621+01981101381ADDAG10999GF101991011021008001001001KA1240N+01921MA1999999096711MD1999999-0081REMSYN017333   20192 59008
0085827840999991986052418004-07317-039300FM-12+040999999V0201401N00311012001CN0200001N9+02781+02061101041ADDAG10999GF106991061081008001001001MA1999999096381MD1999999-0051REMSYN011333   59005
0104827840999991986052512004-07317-039300FM-12+040999999V0201401N00211007501CN0200001N9+02401+01821101501ADDAG10999GF108991081061008001001001KA1240N+02081MA1999999096811MD1999999+0101REMSYN017333   20208 58010
0085827840999991986052518004-07317-039300FM-12+040999999V0201401N00311220001CN0200001N9+02781+01931101121ADDAG10999GF104991031021008001061001MA1999999096461MD1999999+0061REMSYN011333   58006
0104827840999991986052600004-07317-039300FM-12+040999999V0209991C00001220001CN9999999N9+02071+01931101351ADDAG10999GF102991021021008001001001KA1240M+02581MA1999999096661MD1999999-0021REMSYN017333   10258 59002
0104827840999991986052612004-07317-039300FM-12+040999999V0201401N00461220001CN0200001N9+02571+01931101401ADDAG10999GF104991041021008001001001KA1240N+01931MA1999999096711MD1999999-0101REMSYN017333   20193 59010
0085827840999991986052618004-07317-039300FM-12+040999999V0201401N00361012001CN0200001N9+02701+02061101121ADDAG10999GF107991071081008001001001MA1999999096461MD1999999+0001REMSYN011333   58000
0104827840999991986052712004-07317-039300FM-12+040999999V0201401N00261220001CN0200001N9+02501+01871101391ADDAG10999GF103991011021008001061001KA1240N-00931MA1999999096721MD1999999+0011REMSYN017333   21093 58001
0085827840999991986052718004-07317-039300FM-12+040999999V0201401N00361220001CN0200001N9+02891+01891101001ADDAG10999GF104991021021008001061001MA1999999096351MD1999999-0111REMSYN011333   59011
0077827840999991986052812004-07317-039300FM-12+040999999V0201401N00261220001CN0200001N9+02541+01761101351ADDAG10999GF101991011021008001001001MA1999999096681REMSYN017333   2020/ 5904/
0085827840999991986052818004-07317-039300FM-12+040999999V0201401N00261007501CN0200001N9+02841+01881101041ADDAG10999GF106991061021008001001001MA1999999096391MD1999999+0041REMSYN011333   58004
0104827840999991986052900004-07317-039300FM-12+040999999V0201401N00051220001CN9999999N9+02051+01831101211ADDAG10999GF100991001001999999001001KA1240M+02971MA1999999096531MD1999999-0031REMSYN017333   10297 59003
0104827840999991986052912004-07317-039300FM-12+040999999V0201401N00311220001CN0200001N9+02531+01771101391ADDAG10999GF102991011011008001061001KA1240N+02041MA1999999096701MD1999999+0021REMSYN017333   20204 58002
0085827840999991986052918004-07317-039300FM-12+040999999V0200901N00261220001CN0200001N9+02921+01861101031ADDAG10999GF104991041021008001001001MA1999999096381MD1999999-0011REMSYN011333   59001
0104827840999991986053000004-07317-039300FM-12+040999999V0201401N00151220001CN9999999N9+02301+01961101301ADDAG10999GF102991021081008001001001KA1240M+03001MA1999999096631MD1999999+0101REMSYN017333   10300 58010
0104827840999991986053012004-07317-039300FM-12+040999999V0201401N00311045001CN0200001N9+02441+01791101471ADDAG10999GF106991011021008001061001KA1240N+02101MA1999999096781MD1999999+0081REMSYN017333   20210 58008
0085827840999991986053018004-07317-039300FM-12+040999999V0201401N00211007501CN0200001N9+02741+01951101121ADDAG10001GF107991071051008001001001MA1999999096461MD1999999+0081REMSYN011333   58008
0051827840999991986053100004-07317-039300FM-12+040999999V0209991C00001220001CN9999999N9+02181+01971101301ADDAG10999GF104991031051008001031001MA1999999096621
0104827840999991986053112004-07317-039300FM-12+040999999V0200501N00101007501CN0200001N9+02381+01951101521ADDAG10999GF108991081051008001999999KA1240N+01991MA1999999096631MD1999999+0051REMSYN017333   20199 58005
0104827840999991986060112004-07317-039300FM-12+040999999V0200501N00101220001CN0200001N9+02671+02111101391ADDAG10999GF102991011021008001031001KA1240N+01811MA1999999096711MD1999999-0121REMSYN017333   20181 59012
0124827840999991986060118004-07317-039300FM-12+040999999V0202701N00051012001CN0200001N9+02561+02231101091ADDAA106008091AG10999AY161061AY211061GF107991071081008001001001MA1999999096401MD1999999-0121MW1171REMSYN017333   59012 60081
0146827840999991986060200004-07317-039300FM-12+040999999V0200901N00051004201CN9999999N9+99999+99999101461ADDAA106000291AA299000391AG10999AY131061GF108991081071004501999999KA1240M+02991MA1999999096791MD1999999+0181MW1201REMSYN023333   10299 58018 69921
0143827840999991986060212004-07317-039300FM-12+040999999V0200501N00211012001CN0200001N9+02441+02131101231ADDAA124007091AG10999AY121061AY221061GF106991061081008001001001KA1240N+02071MA1999999096841MD1999999+0131MW1011REMSYN023333   20207 58013 60074
0085827840999991986060218004-07317-039300FM-12+040999999V0200901N00211012001CN0200001N9+02841+01931101081ADDAG10999GF106991051081008001061001MA1999999096431MD1999999+0031REMSYN011333   58003
0104827840999991986060300004-07317-039300FM-12+040999999V0202301N00051012001CN9999999N9+02261+02091101391ADDAG10999GF107991071081008001001001KA1240M+03011MA1999999096711MD1999999-0081REMSYN017333   10301 59008
0143827840999991986060312004-07317-039300FM-12+040999999V0203201N00051045001CN0200001N9+02421+02131101611ADDAA124003091AG10999AY161061AY231061GF108991041081008001031999KA1240N+02141MA1999999096921MD1999999+0081MW1021REMSYN023333   20214 58008 60034
0085827840999991986060318004-07317-039300FM-12+040999999V0201401N00151045001CN0200001N9+02861+01951101181ADDAG10999GF105991031081008001061001MA1999999096531MD1999999+0101REMSYN011333   58010
0104827840999991986060400004-07317-039300FM-12+040999999V0209991C00001015001CN9999999N9+02221+02081101481ADDAG10999GF106991061001017501031001KA1240M+02911MA1999999096791MD1999999+0081REMSYN017333   10291 58008
0104827840999991986060412004-07317-039300FM-12+040999999V0201401N00311220001CN0200001N9+02541+01881101661ADDAG10999GF104991041021008001001001KA1240N+02181MA1999999096971MD1999999+0051REMSYN017333   20218 58005
0085827840999991986060418004-07317-039300FM-12+040999999V0201401N00311012001CN0200001N9+02881+01911101241ADDAG10999GF106991061081008001001001MA1999999096591MD1999999+0061REMSYN011333   58006
0104827840999991986060500004-07317-039300FM-12+040999999V0201401N00411220001CN9999999N9+02291+01921101361ADDAG10999GF101991011021008001001001KA1240M+02931MA1999999096871MD1999999+0081REMSYN017333   10293 58008
0104827840999991986060512004-07317-039300FM-12+040999999V0201401N00261012001CN0200001N9+02521+01931101551ADDAG10999GF106991061081008001001001KA1240N+02101MA1999999096861MD1999999-0111REMSYN017333   20210 59011
0096827840999991986060518004-07317-039300FM-12+040999999V0201401N00211007501CN0200001N9+02541+01861101281ADDAA106000091AG10999GF108991081051008001999999MA1999999096601MD1999999+0011REMSYN011333   58001
0096827840999991986060618004-07317-039300FM-12+040999999V0201401N00261012001CN0200001N9+02781+01641101301ADDAA106000091AG10999GF106991061021012501001001MA1999999096631MD1999999+0031REMSYN011333   58003
0115827840999991986060712004-07317-039300FM-12+040999999V0201801N00311220001CN0200001N9+02381+01711101651ADDAA106000091AG10001GF102991021011008001001001KA1240N+01681MA1999999096931MD1999999-0051REMSYN017333   20168 59005
0115827840999991986060800004-07317-039300FM-12+040999999V0209991C00001220001CN9999999N9+01871+01661101501ADDAA106000091AG10001GF100991001001999999001001KA1240M+02881MA1999999096781MD1999999-0051REMSYN017333   10288 59005
0115827840999991986060812004-07317-039300FM-12+040999999V0201401N00311220001CN0200001N9+02481+01731101551ADDAA106000091AG10999GF100991001001999999001001KA1240N+01871MA1999999096841MD1999999-0091REMSYN017333   20187 59009
0096827840999991986060818004-07317-039300FM-12+040999999V0200901N00261012001CN0200001N9+02881+01671101221ADDAA106000091AG10999GF106991061021012501001001MA1999999096551MD1999999+0031REMSYN011333   58003
0115827840999991986060912004-07317-039300FM-12+040999999V0201401N00361220001CN0200001N9+02431+01671101591ADDAA106000091AG10999GF101991011011008001001001KA1240N+01991MA1999999096891MD1999999+0051REMSYN017333   20199 58005
0096827840999991986060918004-07317-039300FM-12+040999999V0201401N00411220001CN0200001N9+02921+01501101231ADDAA106000091AG10999GF101991011011008001001001MA1999999096571MD1999999+0011REMSYN011333   58001
0115827840999991986061012004-07317-039300FM-12+040999999V0201401N00461220001CN0200001N9+02421+01751101631ADDAA106000091AG10999GF103991031021008001001001KA1240N+02031MA1999999096931MD1999999+0041REMSYN017333   20203 58004
0096827840999991986061018004-07317-039300FM-12+040999999V0201401N00311012001CN0200001N9+02721+01821101241ADDAA106000091AG10999GF106991061021012501001001MA1999999096571MD1999999+0001REMSYN011333   58000
0115827840999991986061112004-07317-039300FM-12+040999999V0201401N00211220001CN0200001N9+02501+01561101561ADDAA106000091AG10999GF101991011011008001001001KA1240N+01871MA1999999096881MD1999999-0051REMSYN017333   20187 59005
0096827840999991986061118004-07317-039300FM-12+040999999V0201401N00261220001CN0200001N9+02941+01591101171ADDAA106000091AG10999GF101991011011008001001001MA1999999096511MD1999999-0061REMSYN011333   59006
0115827840999991986061200004-07317-039300FM-12+040999999V0201801N00051012001CN9999999N9+02051+01781101621ADDAA106000091AG10999GF107991071081008001001001KA1240M+02981MA1999999096731MD1999999-0051REMSYN017333   10298 59005
0115827840999991986061212004-07317-039300FM-12+040999999V0201401N00211220001CN0200001N9+02521+01931101481ADDAA106000091AG10999GF104991041021008001001001KA1240N+01911MA1999999096791MD1999999-0091REMSYN017333   20191 59009
0096827840999991986061218004-07317-039300FM-12+040999999V0201801N00311220001CN0200001N9+02781+01961101181ADDAA106000091AG10999GF103991031081012501001001MA1999999096521MD1999999+0011REMSYN011333   58001
0143827840999991986061300004-07317-039300FM-12+040999999V0209991C00001007501CN9999999N9+02211+02081101571ADDAA106001091AG10999AY161061AY231061GF108991081071008001999999KA1240M+02931MA1999999096881MD1999999+0151MW1201REMSYN023333   10293 58015 60011
0154827840999991986061312004-07317-039300FM-12+040999999V0201401N00311012001CN0200001N9+02421+01841101581ADDAA106000091AA224008091AG10999AY161061AY231061GF107991071081008001001001KA1240N+02091MA1999999096881MD1999999+0091MW1021REMSYN023333   20209 58009 60084
0096827840999991986061318004-07317-039300FM-12+040999999V0200901N00461220001CN0200001N9+02771+01771101311ADDAA106000091AG10999GF103991021021008001011001MA1999999096641MD1999999+0121REMSYN011333   58012
0115827840999991986061400004-07317-039300FM-12+040999999V0201401N00211220001CN9999999N9+02261+01751101561ADDAA106000091AG10999GF100991001001999999001001KA1240M+02851MA1999999096771MD1999999-0111REMSYN017333   10285 59011
0115827840999991986061412004-07317-039300FM-12+040999999V0201401N00361220001CN0200001N9+02381+01751101571ADDAA106000091AG10999GF104991041021008001001001KA1240N+02051MA1999999096871MD1999999-0011REMSYN017333   20205 59001
0096827840999991986061418004-07317-039300FM-12+040999999V0201401N00311007501CN0200001N9+02671+01681101301ADDAA106000091AG10999GF105991051021008001001001MA1999999096621MD1999999-0021REMSYN011333   59002
0115827840999991986061500004-07317-039300FM-12+040999999V0201401N00211220001CN9999999N9+02161+01471101541ADDAA106000091AG10999GF100991001001999999001001KA1240M+02801MA1999999096841MD1999999+0071REMSYN017333   10280 58007
0115827840999991986061512004-07317-039300FM-12+040999999V0201401N00361012001CN0200001N9+02341+01551101671ADDAA106000091AG10999GF106991061081008001001001KA1240N+01831MA1999999096961MD1999999+0091REMSYN017333   20183 58009
0096827840999991986061518004-07317-039300FM-12+040999999V0201401N00311220001CN0200001N9+02821+01581101291ADDAA106000091AG10999GF100991001001999999001001MA1999999096621MD1999999+0001REMSYN011333   59000
0115827840999991986061612004-07317-039300FM-12+040999999V0201401N00411220001CN0200001N9+02361+01561101621ADDAA106000091AG10999GF101991011011008001001001KA1240N+01771MA1999999096901MD1999999-0061REMSYN017333   20177 59006
0096827840999991986061618004-07317-039300FM-12+040999999V0200901N00211220001CN0200001N9+02851+01701101281ADDAA106000091AG10999GF102991021011008001001001MA1999999096601MD1999999-0021REMSYN011333   59002
0115827840999991986061712004-07317-039300FM-12+040999999V0201401N00361220001CN0200001N9+02441+01531101501ADDAA106000091AG10999GF101991011011008001001001KA1240N+01981MA1999999096811MD1999999-0091REMSYN017333   20198 59009
0096827840999991986061718004-07317-039300FM-12+040999999V0201401N00211007501CN0200001N9+02661+01851101351ADDAA106000091AG10999GF108991081051008001999999MA1999999096671MD1999999+0071REMSYN011333   58007
0154827840999991986061812004-07317-039300FM-12+040999999V0201401N00461012001CN0200001N9+02321+01891101651ADDAA124000691AA299000591AG10999AY121061AY221061GF106991051081008001061001KA1240N+01981MA1999999096951MD1999999+0141MW1021REMSYN023333   20198 58014 69964
0115827840999991986061900004-07317-039300FM-12+040999999V0201401N00261007501CN9999999N9+02301+01851101611ADDAA106000091AG10999GF108991081071008001999999KA1240M+02671MA1999999096911MD1999999-0051REMSYN017333   10267 59005
0115827840999991986061912004-07317-039300FM-12+040999999V0201401N00361220001CN0200001N9+02441+01691101671ADDAA106000091AG10999GF101991011011008001001001KA1240N+02151MA1999999096971MD1999999+0021REMSYN017333   20215 58002
0096827840999991986061918004-07317-039300FM-12+040999999V0201401N00211220001CN0200001N9+02761+01721101291ADDAA106000091AG10999GF104991041021008001001001MA1999999096631MD1999999-0011REMSYN011333   59001
0115827840999991986062000004-07317-039300FM-12+040999999V0201401N00051220001CN9999999N9+01981+01641101551ADDAA106000091AG10999GF100991001001999999001001KA1240M+02881MA1999999096841MD1999999-0071REMSYN017333   10288 59007
0115827840999991986062012004-07317-039300FM-12+040999999V0201401N00311220001CN0200001N9+02391+01581101691ADDAA106000091AG10999GF102991021021008001001001KA1240N+01971MA1999999096981MD1999999+0011REMSYN017333   20197 58001
0096827840999991986062018004-07317-039300FM-12+040999999V0201401N00461220001CN0200001N9+02841+01531101231ADDAA106000091AG10999GF103991031021012501001001MA1999999096561MD1999999-0071REMSYN011333   59007
0115827840999991986062112004-07317-039300FM-12+040999999V0201401N00361007501CN0200001N9+02341+01831101661ADDAA106000091AG10999GF105991051021008001001001KA1240N+01821MA1999999096941MD1999999-0041REMSYN017333   20182 59004
0096827840999991986062118004-07317-039300FM-12+040999999V0201401N00361007501CN0200001N9+02741+01781101311ADDAA106000091AG10999GF105991051021008001001001MA1999999096641MD1999999+0081REMSYN011333   58008
0115827840999991986062200004-07317-039300FM-12+040999999V0201401N00361220001CN9999999N9+02351+01781101611ADDAA106000091AG10999GF100991001001999999001001KA1240M+02871MA1999999096821MD1999999-0021REMSYN017333   10287 59002
0115827840999991986062212004-07317-039300FM-12+040999999V0200901N00361012001CN0200001N9+02461+01811101661ADDAA106000091AG10999GF108991081081008001999999KA1240N+02101MA1999999096971MD1999999+0031REMSYN017333   20210 58003
0096827840999991986062218004-07317-039300FM-12+040999999V0201401N00511012001CN0200001N9+02861+01681101281ADDAA106000091AG10999GF106991061081008001001001MA1999999096621MD1999999-0021REMSYN011333   59002
0115827840999991986062300004-07317-039300FM-12+040999999V0201801N00261220001CN9999999N9+02341+99999101621ADDAA106000091AG10999GF100991001001999999001001KA1240M+02901MA1999999096031MD1999999+0111REMSYN017333   10290 58011
0115827840999991986062312004-07317-039300FM-12+040999999V0201401N00361012001CN0200001N9+02451+01901101611ADDAA106000091AG10999GF107991071081008001001001KA1240N+02051MA1999999096931MD1999999-0041REMSYN017333   20205 59004
0096827840999991986062318004-07317-039300FM-12+040999999V0201401N00261012001CN0200001N9+02781+01821101301ADDAA106000091AG10999GF107991071081008001001001MA1999999096641MD1999999+0021REMSYN011333   58002
0115827840999991986062400004-07317-039300FM-12+040999999V0201801N00311220001CN9999999N9+02321+01731101511ADDAA106000091AG10999GF100991001001999999001001KA1240M+02831MA1999999096831MD1999999-0101REMSYN017333   10283 59010
0115827840999991986062412004-07317-039300FM-12+040999999V0200901N00311220001CN0200001N9+02441+01691101661ADDAA106000091AG10999GF101991011011008001001001KA1240N+01971MA1999999096971MD1999999+0041REMSYN017333   20197 58004
0096827840999991986062418004-07317-039300FM-12+040999999V0201401N00311007501CN0200001N9+02621+01781101331ADDAA106000091AG10999GF108991081071008001999999MA1999999096641MD1999999+0001REMSYN011333   58000
0115827840999991986062500004-07317-039300FM-12+040999999V0201401N00051220001CN9999999N9+02081+01871101551ADDAA106000091AG10999GF102991021081008001001001KA1240M+02911MA1999999096851MD1999999+0021REMSYN017333   10291 58002
0115827840999991986062512004-07317-039300FM-12+040999999V0201401N00311012001CN0200001N9+02341+01781101611ADDAA106000091AG10999GF106991061081008001001001KA1240N+02021MA1999999096901MD1999999-0071REMSYN017333   20202 59007
