0065827950999991986010115004-07217-035867FM-12+0560SBKG V0201001N00411007501CN0150001N9+03041+01841999999ADDAG10999GF107991071011008001001001MA1999999101541MD1210141+9999
0065827950999991986010118004-07217-035867FM-12+0560SBKG V0201101N00311105001CN0150001N9+03241+01641999999ADDAG10999GF108991041051008001001031MA1999999101241MD1210041+9999
0065827950999991986010121004-07217-035867FM-12+0560SBKG V0200901N00511105001CN0150001N9+02741+02041999999ADDAG10999GF107991011011008001001021MA1999999101341MD1210141+9999
0065827950999991986010200004-07217-035867FM-12+0560SBKG V0201001N00511220001CN0150001N9+02441+02041999999ADDAG10999GF100991001001999999001001MA1999999101441MD1210141+9999
0051827950999991986010215004-07217-035867FM-12+0560SBKG V0209991C00001007501CN0150001N9+03141+99999999999ADDAG10999GF106991061011008001001001MA1999999101441
0065827950999991986010218004-07217-035867FM-12+0560SBKG V0201201N00211220001CN0150001N9+03341+01641999999ADDAG10999GF104991041011008001001001MA1999999101141MD1710341+9999
0065827950999991986010221004-07217-035867FM-12+0560SBKG V0201001N00511220001CN0150001N9+02741+02141999999ADDAG10999GF103991031011004501001001MA1999999101241MD1210101+9999
0057827950999991986010309004-07217-035867FM-12+0560SBKG V0209991C00001004201CN0150001N9+02241+02141999999ADDAG10999GF108991051051004501031999MA1999999101441MW1101
0081827950999991986010312004-07217-035867FM-12+0560SBKG V0209991C00001007501CN0150001N9+02841+02041999999ADDAG10999AY111061AY201061GF106991061011008001001001MA1999999101541MD1210141+9999
0065827950999991986010315004-07217-035867FM-12+0560SBKG V0201001N00311004201CN0150001N9+03141+01841999999ADDAG10999GF105991051011004501001001MA1999999101441MD1710101+9999
0051827950999991986010412004-07217-035867FM-12+0560SBKG V0200601N00411004201CN0150001N9+02841+01941999999ADDAG10999GF105991051011004501001001MA1999999101541
0065827950999991986010415004-07217-035867FM-12+0560SBKG V0200401N00311007501CN0150001N9+03141+01741999999ADDAG10999GF106991061011008001001001MA1999999101441MD1710141+9999
0065827950999991986010418004-07217-035867FM-12+0560SBKG V0209991C00001007501CN0150001N9+03441+01641999999ADDAG10999GF106991061011008001001001MA1999999101341MD1710141+9999
0065827950999991986010509004-07217-035867FM-12+0560SBKG V0209991C00001007501CN0150001N9+02241+02141999999ADDAG10999GF106991061051008001001001MA1999999101541MD1210241+9999
0065827950999991986010512004-07217-035867FM-12+0560SBKG V0209991C00001007501CN0150001N9+02441+02241999999ADDAG10999GF108991051051008001999999MA1999999101641MD1210241+9999
0051827950999991986010521004-07217-035867FM-12+0560SBKG V0201001N00411220001CN0150001N9+02541+02141999999ADDAG10999GF104991041011008001001001MA1999999101441
0065827950999991986010618004-07217-035867FM-12+0560SBKG V0200901N00311007501CN0150001N9+03241+01641999999ADDAG10999GF106991061011008001001001MA1999999101141MD1710141+9999
0051827950999991986010700004-07217-035867FM-12+0560SBKG V0201001N00311220001CN0150001N9+02441+02041999999ADDAG10999GF102991021011008001001001MA1999999101341
0065827950999991986010709004-07217-035867FM-12+0560SBKG V0209991C00001220001CN0150001N9+02141+02041999999ADDAG10999GF102991021011008001001001MA1999999101441MD1210041+9999
0065827950999991986010712004-07217-035867FM-12+0560SBKG V0201201N003119999999N0150001N9+02641+01941999999ADDAG10999GF107991071001008001001001MA1999999101641MD1210041+9999
0065827950999991986010718004-07217-035867FM-12+0560SBKG V0201001N00311007501CN0150001N9+03241+01341999999ADDAG10999GF105991051011008001001001MA1999999101241MD1710241+9999
0051827950999991986010809004-07217-035867FM-12+0560SBKG V0209991C00001220001CN0150001N9+02041+01941999999ADDAG10999GF102991021011008001001001MA1999999101541
0065827950999991986010812004-07217-035867FM-12+0560SBKG V0201201N00411007501CN0150001N9+02641+01841999999ADDAG10999GF105991051011008001001001MA1999999101641MD1210141+9999
0065827950999991986010815004-07217-035867FM-12+0560SBKG V0201201N00411004201CN0150001N9+03041+01541999999ADDAG10999GF105991051071004501001001MA1999999101541MD1710101+9999
0051827950999991986010821004-07217-035867FM-12+0560SBKG V0200901N00411045001CN0150001N9+02541+01841999999ADDAG10999GF108991031011008001031999MA1999999101441
0051827950999991986010909004-07217-035867FM-12+0560SBKG V0209991C00001045001CN0150001N9+02241+02141999999ADDAG10999GF108991031051004501021999MA1999999101641
0057827950999991986010915004-07217-035867FM-12+0560SBKG V0209991C00001045001CN0150001N9+02341+02141999999ADDAG10999GF108991041051004501021999MA1999999101741MW1171
0092827950999991986010918004-07217-035867FM-12+0560SBKG V0201101N00311007501CN0150001N9+02541+02141999999ADDAG10999AY111061GF108991051011008001021999MA1999999101541MD1710241+9999EQDQ01+000072PSTWM2
0051827950999991986011009004-07217-035867FM-12+0560SBKG V0209991C00001004201CN0150001N9+02241+02241999999ADDAG10999GF105991051051004501001001MA1999999101741
0065827950999991986011115004-07217-035867FM-12+0560SBKG V0201401N00311007501CN0150001N9+02941+01741999999ADDAG10999GF106991061011008001001001MA1999999101841MD1210041+9999
0065827950999991986011121004-07217-035867FM-12+0560SBKG V0201001N00621220001CN0150001N9+02741+01741999999ADDAG10999GF100991001001999999001001MA1999999101541MD1410001+9999
0065827950999991986011200004-07217-035867FM-12+0560SBKG V0200901N00411220001CN0150001N9+02441+01941999999ADDAG10999GF100991001001999999001001MA1999999101641MD1210141+9999
0065827950999991986011215004-07217-035867FM-12+0560SBKG V0201301N00411007501CN0150001N9+03041+01741999999ADDAG10999GF107991071011008001001001MA1999999101641MD1710141+9999
0065827950999991986011218004-07217-035867FM-12+0560SBKG V0201101N00411007501CN0150001N9+03241+01741999999ADDAG10999GF105991051011008001001001MA1999999101341MD1710341+9999
0051827950999991986011309004-07217-035867FM-12+0560SBKG V0209991C00001004201CN0150001N9+02141+02041999999ADDAG10999GF106991061051004501001001MA1999999101441
0065827950999991986011312004-07217-035867FM-12+0560SBKG V0201101N00311007501CN0150001N9+02541+01941999999ADDAG10999GF107991071011008001001001MA1999999101541MD1210141+9999
0084827950999991986011315004-07217-035867FM-12+0560SBKG V0201201N00511004201CN0150001N9+03041+02241999999ADDAG10999GF107991999011004501001001MA1999999101241MD1710201+9999EQDQ01+000052SCOTLC
0051827950999991986011321004-07217-035867FM-12+0560SBKG V0200901N00311220001CN0150001N9+02741+01941999999ADDAG10999GF103991031011008001001001MA1999999101341
0051827950999991986011412004-07217-035867FM-12+0560SBKG V0201301N00311004201CN0150001N9+02541+01941999999ADDAG10999GF106991061011004501001001MA1999999101541
0065827950999991986011415004-07217-035867FM-12+0560SBKG V0201001N00411007501CN0150001N9+03141+01641999999ADDAG10999GF105991051011008001001001MA1999999101341MD1710241+9999
0065827950999991986011418004-07217-035867FM-12+0560SBKG V0201201N00511007501CN0150001N9+03341+01641999999ADDAG10999GF105991051011008001001001MA1999999101241MD1710141+9999
0051827950999991986011509004-07217-035867FM-12+0560SBKG V0209991C00001220001CN0150001N9+02141+02041999999ADDAG10999GF104991041051004501001001MA1999999101441
0065827950999991986011512004-07217-035867FM-12+0560SBKG V0201201N00621007501CN0150001N9+02641+01941999999ADDAG10999GF107991071011008001001001MA1999999101541MD1210141+9999
0065827950999991986011521004-07217-035867FM-12+0560SBKG V0201001N00621220001CN0150001N9+02741+01541999999ADDAG10999GF100991001001999999001001MA1999999101441MD1210141+9999
0065827950999991986011618004-07217-035867FM-12+0560SBKG V0200901N00821045001CN0150001N9+03241+01441999999ADDAG10999GF105991031011008001031011MA1999999101341MD1710041+9999
0065827950999991986011621004-07217-035867FM-12+0560SBKG V0201101N00411220001CN0150001N9+02641+01641999999ADDAG10999GF105991011011008001001011MA1999999101441MD1210241+9999
0065827950999991986011700004-07217-035867FM-12+0560SBKG V0201001N00411105001CN0150001N9+02441+01841999999ADDAG10999GF107991021011008001001021MA1999999101541MD1210141+9999
0065827950999991986011715004-07217-035867FM-12+0560SBKG V0201401N00721007501CN0150001N9+03041+01641999999ADDAG10999GF108991051011008001001021MA1999999101541MD1410001+9999
0065827950999991986011718004-07217-035867FM-12+0560SBKG V0201101N00511105001CN0150001N9+02941+01541999999ADDAG10999GF108991041011008001001021MA1999999101341MD1710241+9999
0065827950999991986011812004-07217-035867FM-12+0560SBKG V0201201N00621045001CN0150001N9+02541+01841999999ADDAG10999GF108991041011008001031999MA1999999101641MD1210241+9999
0051827950999991986011818004-07217-035867FM-12+0560SBKG V0201001N00721045001CN0150001N9+02741+01841999999ADDAG10999GF108991021011004501031021MA1999999101441
0051827950999991986011821004-07217-035867FM-12+0560SBKG V0200901N00511045001CN0150001N9+02541+01741999999ADDAG10999GF106991011011008001031001MA1999999101441
0070827950999991986011909004-07217-035867FM-12+0560SBKG V0209991C000019999999N0150001N9+02111+01941999999ADDAG10999GF107991071051999999001001MA1999999101441EQDQ01+000992SCOLCB
0073827950999991986011912004-07217-035867FM-12+0560SBKG V0201301N00311004201CN0150001N9+02141+02141999999ADDAG10999AY101061AY201061GF108991051051004501021999MA1999999101641MW1501
0051827950999991986012009004-07217-035867FM-12+0560SBKG V0209991C00001220001CN0150001N9+02041+01941999999ADDAG10999GF102991021011008001001001MA1999999101541
0065827950999991986012012004-07217-035867FM-12+0560SBKG V0201501N00511007501CN0150001N9+02741+01741999999ADDAG10999GF106991061011008001001001MA1999999101541MD1410001+9999
0065827950999991986012021004-07217-035867FM-12+0560SBKG V0201101N00411220001CN0150001N9+02841+01741999999ADDAG10999GF102991021011008001001001MA1999999101441MD1210041+9999
0065827950999991986012100004-07217-035867FM-12+0560SBKG V0201001N00311220001CN0150001N9+02441+01941999999ADDAG10999GF100991001001999999001001MA1999999101541MD1210041+9999
0065827950999991986012115004-07217-035867FM-12+0560SBKG V0201201N00411007501CN0150001N9+03041+01941999999ADDAG10999GF107991071011008001001001MA1999999101541MD1210041+9999
0087827950999991986012118004-07217-035867FM-12+0560SBKG V0201001N00411045001CN0150001N9+02541+02141999999ADDAG10999AY121061AY201061GF108991041011008001031011MA1999999101341MD1710141+9999MW1211
0081827950999991986012121004-07217-035867FM-12+0560SBKG V0201001N00511004201CN0150001N9+02441+02041999999ADDAG10999AY121031AY211031GF108991051011004501031999MA1999999101441MD1210141+9999
0065827950999991986012200004-07217-035867FM-12+0560SBKG V0201001N00621004201CN0150001N9+02341+02141999999ADDAG10999GF108991081051004501999999MA1999999101541MD1210141+9999
0065827950999991986012209004-07217-035867FM-12+0560SBKG V0209991C00001007501CN0150001N9+02141+02041999999ADDAG10999GF107991071051008001001001MA1999999101541MD1210041+9999
0058827950999991986012212004-07217-035867FM-12+0560SBKG V0201301N00311007501CN0080001N9+02241+02141999999ADDAG10999AY161061AY201061GF108991061051008001031999MW1601
0081827950999991986012215004-07217-035867FM-12+0560SBKG V0209999999999004201CN0150001N9+02441+02141999999ADDAG10999AY161031AY201031GF108991061051004501021999MA1999999101641MD1710141+9999
0057827950999991986012309004-07217-035867FM-12+0560SBKG V0209991C00001220001CN0150001N9+02041+02041999999ADDAG10999GF103991031011004501001001MA1999999101541MW1101
0081827950999991986012312004-07217-035867FM-12+0560SBKG V0201201N00411007501CN0150001N9+02541+01941999999ADDAG10999AY111061AY201061GF106991061011008001001001MA1999999101641MD1210141+9999
0051827950999991986012412004-07217-035867FM-12+0560SBKG V0201601N00511004201CN0150001N9+02641+01841999999ADDAG10999GF106991061011004501001001MA1999999101641
0051827950999991986012509004-07217-035867FM-12+0560SBKG V0209991C00001004201CN0150001N9+02141+02041999999ADDAG10999GF106991061051004501001001MA1999999101441
0065827950999991986012512004-07217-035867FM-12+0560SBKG V0209991C00001007501CN0150001N9+02541+01941999999ADDAG10999GF107991071011008001001001MA1999999101541MD1210141+9999
0065827950999991986012521004-07217-035867FM-12+0560SBKG V0201101N00411220001CN0150001N9+02741+01841999999ADDAG10999GF100991001001999999001001MA1999999101341MD1210141+9999
0065827950999991986012600004-07217-035867FM-12+0560SBKG V0201001N00311220001CN0150001N9+02441+01941999999ADDAG10999GF100991001001999999001001MA1999999101441MD1210041+9999
0065827950999991986012615004-07217-035867FM-12+0560SBKG V0201001N00721007501CN0150001N9+03041+01841999999ADDAG10999GF105991051011008001001001MA1999999101441MD1210141+9999
0051827950999991986012621004-07217-035867FM-12+0560SBKG V0201201N00621220001CN0150001N9+02841+01841999999ADDAG10999GF102991021011008001001001MA1999999101341
0065827950999991986012700004-07217-035867FM-12+0560SBKG V0201001N00511220001CN0150001N9+02441+01941999999ADDAG10999GF100991001001999999001001MA1999999101441MD1210141+9999
0073827950999991986012709004-07217-035867FM-12+0560SBKG V0201001N00411001201CN0150001N9+02241+02241999999ADDAG10999AY111031AY201031GF108991081051001501999999MA1999999101041MW1101
0051827950999991986012712004-07217-035867FM-12+0560SBKG V0201201N00511007501CN0150001N9+02341+02241999999ADDAG10999GF106991061051008001001001MA1999999101541
0051827950999991986012809004-07217-035867FM-12+0560SBKG V0209991C00001045001CN0150001N9+02141+02141999999ADDAG10999GF106991021011008001031001MA1999999101541
0065827950999991986012812004-07217-035867FM-12+0560SBKG V0201201N00411007501CN0150001N9+02641+02041999999ADDAG10999GF106991061011008001001001MA1999999101541MD1410001+9999
0051827950999991986012818004-07217-035867FM-12+0560SBKG V0201601N00511004201CN0150001N9+02941+02341999999ADDAG10999GF106991061011004501001001MA1999999101141
0065827950999991986012821004-07217-035867FM-12+0560SBKG V0200901N00311004201CN0150001N9+02641+02141999999ADDAG10999GF107991051011004501031001MA1999999101341MD1210141+9999
0051827950999991986012909004-07217-035867FM-12+0560SBKG V0209991C00001004201CN0150001N9+02241+02141999999ADDAG10999GF106991061051004501001001MA1999999101441
0070827950999991986012912004-07217-035867FM-12+0560SBKG V0201301N004119999999N0150001N9+02541+02141999999ADDAG10999GF108991081051999999999999MA1999999101541EQDQ01+000992SCOLCB
0065827950999991986012915004-07217-035867FM-12+0560SBKG V0201501N00311007501CN0150001N9+03041+01941999999ADDAG10999GF106991061011008001001001MA1999999101441MD1710141+9999
0065827950999991986012918004-07217-035867FM-12+0560SBKG V0201201N00411007501CN0150001N9+03041+01941999999ADDAG10999GF106991061011008001001001MA1999999101241MD1710241+9999
0051827950999991986013009004-07217-035867FM-12+0560SBKG V0209991C00001045001CN0150001N9+02141+02141999999ADDAG10001GF105991031051004501031001MA1999999101341
0065827950999991986013021004-07217-035867FM-12+0560SBKG V0201101N00411045001CN0150001N9+02641+01941999999ADDAG10999GF108991031011008001031011MA1999999101241MD1210241+9999
0065827950999991986013100004-07217-035867FM-12+0560SBKG V0201001N00411007501CN0150001N9+02441+02041999999ADDAG10999GF107991071051008001001001MA1999999101341MD1210041+9999
0087827950999991986013115004-07217-035867FM-12+0560SBKG V0201101N00511007501CN0150001N9+02741+01941999999ADDAG10999AY161031AY201031GF108991051011008001031011MA1999999101441MD1210041+9999MW1601
0081827950999991986013121004-07217-035867FM-12+0560SBKG V0201501N00311004201CN9999999N9+02041+02041999999ADDAG10999AY161031AY201031GF108991081051004501999999MA1999999101441MD1210141+9999
0071827950999991986020100004-07217-035867FM-12+0560SBKG V0201201N00311004201CN9999999N9+02041+02041999999ADDAG10999GF108991081051004501999999MA1999999101441MD1410001+9999MW1611
0106827950999991986020109004-07217-035867FM-12+0560SBKG V0209991C00001000601CN0080001N9+02041+02041999999ADDAG10999AY111031AY201031GF108991999051000751041041MA1999999101541MD1210141+9999MW1101EQDQ01+000082SCOTLC
0065827950999991986020112004-07217-035867FM-12+0560SBKG V0209991C00001045001CN0150001N9+02351+02041999999ADDAG10999GF108991031011008001031999MA1999999101541MD1210041+9999
0065827950999991986020115004-07217-035867FM-12+0560SBKG V0201001N00311007501CN0150001N9+02741+01941999999ADDAG10999GF107991071011008001001001MA1999999101541MD1410001+9999
0065827950999991986020118004-07217-035867FM-12+0560SBKG V0201201N00411007501CN0150001N9+02841+01941999999ADDAG10999GF108991051011008001031999MA1999999101341MD1710241+9999
0065827950999991986020121004-07217-035867FM-12+0560SBKG V0209991C00001045001CN0150001N9+02341+02141999999ADDAG10999GF108991031051004501021999MA1999999101441MD1210101+9999
0051827950999991986020209004-07217-035867FM-12+0560SBKG V0209991C00001220001CN0150001N9+02141+02041999999ADDAG10999GF104991041051004501001001MA1999999101541
0065827950999991986020212004-07217-035867FM-12+0560SBKG V0201201N00311007501CN0150001N9+02441+02041999999ADDAG10999GF107991071011008001001001MA1999999101641MD1210141+9999
0065827950999991986020215004-07217-035867FM-12+0560SBKG V0201201N00261007501CN0150001N9+02841+01841999999ADDAG10999GF107991071011008001001001MA1999999101541MD1710101+9999
0051827950999991986020309004-07217-035867FM-12+0560SBKG V0209991C00001045001CN0150001N9+02141+02141999999ADDAG10999GF107991031051004501031001MA1999999101441
0065827950999991986020312004-07217-035867FM-12+0560SBKG V0209991C00001007501CN0150001N9+02441+02041999999ADDAG10999GF107991071011008001001001MA1999999101541MD1210101+9999
0065827950999991986020315004-07217-035867FM-12+0560SBKG V0201001N00411007501CN0150001N9+02841+02141999999ADDAG10999GF107991061011008001031001MA1999999101441MD1710141+9999
0051827950999991986020412004-07217-035867FM-12+0560SBKG V0201001N00311007501CN0150001N9+02541+02141999999ADDAG10999GF106991061011008001001001MA1999999101641
0051827950999991986020421004-07217-035867FM-12+0560SBKG V0201001N00411045001CN0150001N9+02541+02141999999ADDAG10999GF108991041011008001031999MA1999999101441
0065827950999991986020500004-07217-035867FM-12+0560SBKG V0201001N00311045001CN0150001N9+02341+02241999999ADDAG10999GF108991031011008001031999MA1999999101541MD1210141+9999
0057827950999991986020515004-07217-035867FM-12+0560SBKG V0209991C00001045001CN0150001N9+02541+02341999999ADDAG10999GF108991041051004501021999MA1999999101541MW1171
0065827950999991986020521004-07217-035867FM-12+0560SBKG V0209991C00001045001CN0150001N9+02141+02141999999ADDAG10999GF108991031051008001031999MA1999999101441MD1210041+9999
0065827950999991986020600004-07217-035867FM-12+0560SBKG V0209991C00001007501CN0150001N9+02241+02141999999ADDAG10999GF108991051051008001031999MA1999999101641MD1210141+9999
0057827950999991986020609004-07217-035867FM-12+0560SBKG V0209991C00001004201CN0150001N9+02241+02241999999ADDAG10999GF108991051051004501021999MA1999999101441MW1501
0065827950999991986020618004-07217-035867FM-12+0560SBKG V0201001N00511045001CN0150001N9+02441+02341999999ADDAG10999GF108991041011008001031011MA1999999101441MD1710141+9999
0087827950999991986020621004-07217-035867FM-12+0560SBKG V0201001N00411004201CN0080001N9+02241+02241999999ADDAG10999AY161031AY221031GF108991061051004501021999MA1999999101541MD1210101+9999MW1601
0087827950999991986020700004-07217-035867FM-12+0560SBKG V0201001N00261004201CN0060001N9+02141+02111999999ADDAG10999AY161061AY221061GF108991061051004501021999MA1999999101641MD1210101+9999MW1601
0065827950999991986020712004-07217-035867FM-12+0560SBKG V0209991C00001045001CN0150001N9+02441+02141999999ADDAG10999GF108991021051008001031999MA1999999101641MD1210041+9999
0065827950999991986020715004-07217-035867FM-12+0560SBKG V0201001N00311007501CN0150001N9+02841+02141999999ADDAG10999GF107991071011008001001001MA1999999101641MD1410001+9999
0065827950999991986020718004-07217-035867FM-12+0560SBKG V0200901N00511007501CN0150001N9+02741+02341999999ADDAG10999GF107991051011008001001011MA1999999101441MD1710201+9999
0065827950999991986020721004-07217-035867FM-12+0560SBKG V0201001N00311105001CN0150001N9+02541+02241999999ADDAG10999GF107991041051004501001031MA1999999101441MD1410001+9999
0073827950999991986020809004-07217-035867FM-12+0560SBKG V0209991C00001004201CN0150001N9+02241+02241999999ADDAG10999AY111031AY211031GF106991061051004501001001MA1999999101541MW1101
0065827950999991986020812004-07217-035867FM-12+0560SBKG V0201201N00511004201CN0150001N9+02541+02241999999ADDAG10999GF108991081051004501999999MA1999999101641MD1210101+9999
0051827950999991986020818004-07217-035867FM-12+0560SBKG V0201001N00411007501CN0150001N9+02741+02141999999ADDAG10001GF106991061011008001001001MA1999999101341
0057827950999991986020909004-07217-035867FM-12+0560SBKG V0209991C00001004201CN0050001N9+02141+02141999999ADDAG10999GF107991071051004501001001MA1999999101541MW1101
0051827950999991986020921004-07217-035867FM-12+0560SBKG V0201001N00211220001CN0150001N9+02641+02041999999ADDAG10999GF103991031011008001001001MA1999999101341
0065827950999991986021000004-07217-035867FM-12+0560SBKG V0201001N00311220001CN0150001N9+02441+02041999999ADDAG10999GF100991001001999999001001MA1999999101541MD1210241+9999
0051827950999991986021015004-07217-035867FM-12+0560SBKG V0201701N00411007501CN0150001N9+02841+01941999999ADDAG10999GF106991061011008001001001MA1999999101541
0065827950999991986021018004-07217-035867FM-12+0560SBKG V0201201N00411007501CN0150001N9+02941+01841999999ADDAG10999GF105991051011008001001001MA1999999101341MD1710241+9999
0065827950999991986021100004-07217-035867FM-12+0560SBKG V0209991C00001220001CN0150001N9+02441+01941999999ADDAG10999GF100991001001999999001001MA1999999101441MD1210041+9999
0051827950999991986021112004-07217-035867FM-12+0560SBKG V0209991C00001045001CN0150001N9+02341+02041999999ADDAG10999GF108991041011004501031999MA1999999101601
0065827950999991986021115004-07217-035867FM-12+0560SBKG V0201201N00311045001CN0150001N9+02541+02041999999ADDAG10999GF108991041011008001031011MA1999999101641MD1210041+9999
0065827950999991986021118004-07217-035867FM-12+0560SBKG V0201201N00621007501CN0150001N9+02741+02141999999ADDAG10999GF108991051011008001031999MA1999999101741MD1710141+9999
0065827950999991986021121004-07217-035867FM-12+0560SBKG V0200901N00311045001CN0150001N9+99999+99999999999ADDAG10999GF107991021011008001031001MA1999999101541MD1710201+9999
0087827950999991986021209004-07217-035867FM-12+0560SBKG V0209991C00001000601CN0080001N9+02141+02141999999ADDAG10999AY111031AY201031GF106991061051000751001001MA1999999101641MD1210241+9999MW1101
0065827950999991986021212004-07217-035867FM-12+0560SBKG V0209991C00001007501CN0150001N9+02541+02141999999ADDAG10999GF107991071011008001001001MA1999999101741MD1210041+9999
0065827950999991986021215004-07217-035867FM-12+0560SBKG V0209991C00001007501CN0150001N9+02441+02041999999ADDAG10999GF105991051011008001001001MA1999999101641MD1710101+9999
0065827950999991986021218004-07217-035867FM-12+0560SBKG V0201201N00511007501CN0150001N9+02941+02241999999ADDAG10999GF106991061021008001001001MA1999999101441MD1710201+9999
0071827950999991986021221004-07217-035867FM-12+0560SBKG V0209991C00001045001CN0080001N9+02341+02241999999ADDAG10999GF108991031051004501021999MA1999999101641MD1210241+9999MW1601
0065827950999991986021309004-07217-035867FM-12+0560SBKG V0209991C00001220001CN0080001N9+01941+01041999999ADDAG10999AY101031GF103991031051004501001001MA1999999101541MW1101
0051827950999991986021315004-07217-035867FM-12+0560SBKG V0201301N00311007501CN0150001N9+03041+02041999999ADDAG10999GF106991061011008001001001MA1999999101641
0051827950999991986021318004-07217-035867FM-12+0560SBKG V0201001N00411007501CN0150001N9+03141+02041999999ADDAG10999GF105991051011008001001001MA1999999101341
0051827950999991986021409004-07217-035867FM-12+0560SBKG V0209991C00001220001CN0150001N9+02041+02041999999ADDAG10999GF104991021011004501001011MA1999999101441
0051827950999991986021421004-07217-035867FM-12+0560SBKG V0200901N00511045001CN0150001N9+02641+02141999999ADDAG10999GF108991031051004501031999MA1999999101041
0065827950999991986021500004-07217-035867FM-12+0560SBKG V0209991C00001220001CN0150001N9+02441+02141999999ADDAG10999GF104991041011008001001001MA1999999101441MD1210441+9999
0070827950999991986021515004-07217-035867FM-12+0560SBKG V0200901N003119999999N0150001N9+03041+02041999999ADDAG10999GF107991999011008001001001MA1999999101541EQDQ01+000032SCOTLC
0065827950999991986021518004-07217-035867FM-12+0560SBKG V0209991C00001007501CN0150001N9+02741+02141999999ADDAG10999GF106991061011008001001001MA1999999101441MD1710141+9999
0065827950999991986021521004-07217-035867FM-12+0560SBKG V0209991C00001045001CN0150001N9+02641+02141999999ADDAG10999GF108991021011008001031011MA1999999101441MD1210241+9999
0065827950999991986021600004-07217-035867FM-12+0560SBKG V0209991C00001220001CN0150001N9+02441+02141999999ADDAG10999GF100991001001999999001001MA1999999101541MD1210041+9999
0051827950999991986021612004-07217-035867FM-12+0560SBKG V0209991C00001007501CN0150001N9+02641+02141999999ADDAG10999GF107991071011008001001001MA1999999101641
0065827950999991986021618004-07217-035867FM-12+0560SBKG V0201001N00511007501CN0150001N9+03041+02041999999ADDAG10999GF106991061011008001001001MA1999999101341MD1710241+9999
0084827950999991986021621004-07217-035867FM-12+0560SBKG V0200901N00511220001CN0150001N9+02641+02141999999ADDAG10999GF104991041011008001001001MA1999999101441MD1010101+9999EQDQ01+002102APC3  
0065827950999991986021709004-07217-035867FM-12+0560SBKG V0209991C00001220001CN0150001N9+02041+02041999999ADDAG10999GF102991021011008001031011MA1999999101441MD1210041+9999
0065827950999991986021712004-07217-035867FM-12+0560SBKG V0201201N00311045001CN0150001N9+02541+02141999999ADDAG10999GF108991021051008001031011MA1999999101541MD1210241+9999
0051827950999991986021718004-07217-035867FM-12+0560SBKG V0200901N00311220001CN0150001N9+03141+01841999999ADDAG10999GF104991041011008001001001MA1999999101241
0070827950999991986021809004-07217-035867FM-12+0560SBKG V0209991C000019999999N0070001N9+02141+02141999999ADDAG10999GF105991999061004501001001MA1999999101341EQDQ01+000042SCOTLC
0065827950999991986021812004-07217-035867FM-12+0560SBKG V0201301N00411007501CN0150001N9+02541+02041999999ADDAG10999GF106991061011008001001001MA1999999101441MD1210101+9999
0065827950999991986021815004-07217-035867FM-12+0560SBKG V0209991C00001007501CN0150001N9+02941+02041999999ADDAG10999GF107991071011008001001001MA1999999101341MD1710141+9999
0051827950999991986021909004-07217-035867FM-12+0560SBKG V0209991C00001004201CN0150001N9+02241+02141999999ADDAG10999GF107991071051004501001001MA1999999101341
0065827950999991986021912004-07217-035867FM-12+0560SBKG V0201101N00411220001CN0150001N9+02641+01941999999ADDAG10999GF104991041051004501001001MA1999999101441MD1210141+9999
0051827950999991986021921004-07217-035867FM-12+0560SBKG V0209991C00001007501CN0150001N9+02441+02141999999ADDAG10999GF106991061011008001001001MA1999999101241
0065827950999991986022000004-07217-035867FM-12+0560SBKG V0201101N00261220001CN0150001N9+02341+02241999999ADDAG10999GF104991041011008001001001MA1999999101341MD1210141+9999
0051827950999991986022015004-07217-035867FM-12+0560SBKG V0201301N00311007501CN0150001N9+02841+01841999999ADDAG10999GF105991051011008001001001MA1999999101441
0065827950999991986022018004-07217-035867FM-12+0560SBKG V0201201N00621007501CN0150001N9+03041+01841999999ADDAG10999GF106991061011008001001001MA1999999101241MD1710241+9999
0065827950999991986022021004-07217-035867FM-12+0560SBKG V0201501N00311220001CN0150001N9+02641+01941999999ADDAG10999GF103991031011008001001001MA1999999101341MD1210141+9999
0051827950999991986022100004-07217-035867FM-12+0560SBKG V0201001N00411220001CN0150001N9+02441+02041999999ADDAG10999GF103991031051008001001001MA1999999101541
0051827950999991986022109004-07217-035867FM-12+0560SBKG V0209991C00001004201CN0150001N9+02141+02041999999ADDAG10001GF105991051051004501001001MA1999999101441
0065827950999991986022112004-07217-035867FM-12+0560SBKG V0209991C00001220001CN0150001N9+02341+02141999999ADDAG10999GF107991031011008001001011MA1999999101541MD1210141+9999
0065827950999991986022115004-07217-035867FM-12+0560SBKG V0201301N00311007501CN0150001N9+02941+01841999999ADDAG10999GF108991051011008001031999MA1999999101541MD1210041+9999
0065827950999991986022118004-07217-035867FM-12+0560SBKG V0201001N00621105001CN0150001N9+02941+02141999999ADDAG10001GF108991041011008001001031MA1999999101341MD1710241+9999
0065827950999991986022121004-07217-035867FM-12+0560SBKG V0201001N00411220001CN0150001N9+02641+02041999999ADDAG10999GF105991011011008001001011MA1999999101441MD1210101+9999
0065827950999991986022209004-07217-035867FM-12+0560SBKG V0209991C00001045001CN0150001N9+02141+02041999999ADDAG10999GF107991031051008001031011MA1999999101541MD1210241+9999
0065827950999991986022212004-07217-035867FM-12+0560SBKG V0201801N00311045001CN0150001N9+02541+01941999999ADDAG10999GF108991021011008001031011MA1999999101541MD1210041+9999
0065827950999991986022215004-07217-035867FM-12+0560SBKG V0201301N00311105001CN0150001N9+03041+01541999999ADDAG10999GF107991041011008001001021MA1999999101541MD1410001+9999
0065827950999991986022218004-07217-035867FM-12+0560SBKG V0201501N00261105001CN0150001N9+03141+01641999999ADDAG10999GF107991041011008001001021MA1999999101341MD1710201+9999
0065827950999991986022221004-07217-035867FM-12+0560SBKG V0209991C00001220001CN0150001N9+02841+01841999999ADDAG10999GF100991001001999999001001MA1999999101341MD1410001+9999
0051827950999991986022309004-07217-035867FM-12+0560SBKG V0209991C00001045001CN0150001N9+02041+01941999999ADDAG10999GF106991031051004501031001MA1999999101441
0051827950999991986022315004-07217-035867FM-12+0560SBKG V0201001N00511045001CN0150001N9+02641+01941999999ADDAG10999GF105991021011008001031001MA1999999101541
0051827950999991986022409004-07217-035867FM-12+0560SBKG V0209991C00001220001CN0150001N9+02141+02041999999ADDAG10999GF100991001001999999001001MA1999999101341
0065827950999991986022412004-07217-035867FM-12+0560SBKG V0201301N00311007501CN0150001N9+02541+02041999999ADDAG10999GF106991061011008001001001MA1999999101441MD1210141+9999
0051827950999991986022421004-07217-035867FM-12+0560SBKG V0201001N00411220001CN0150001N9+02741+02041999999ADDAG10999GF101991011011008001001001MA1999999101241
0065827950999991986022500004-07217-035867FM-12+0560SBKG V0201001N00511220001CN0150001N9+02441+01941999999ADDAG10999GF100991001001999999001001MA1999999101341MD1210141+9999
0051827950999991986022518004-07217-035867FM-12+0560SBKG V0201001N00211007501CN0150001N9+03141+01841999999ADDAG10999GF105991051011008001001001MA1999999101141
0065827950999991986022521004-07217-035867FM-12+0560SBKG V0200901N00511220001CN0150001N9+02641+02041999999ADDAG10999GF103991031011008001001001MA1999999101141MD1210041+9999
0087827950999991986022600004-07217-035867FM-12+0560SBKG V0209991C00001000601CN0150001N9+02441+02341999999ADDAG10999AY121061AY201061GF108991071051000751021999MA1999999100841MD1210041+9999MW1211
0051827950999991986022609004-07217-035867FM-12+0560SBKG V0209991C00001004201CN9999999N9+02141+02141999999ADDAG10999GF106991061061004501001001MA1999999101241
0065827950999991986022612004-07217-035867FM-12+0560SBKG V0201301N00311007501CN0150001N9+02541+02141999999ADDAG10999GF107991071011008001001001MA1999999101441MD1210241+9999
0065827950999991986022615004-07217-035867FM-12+0560SBKG V0201001N00311007501CN0150001N9+02941+02041999999ADDAG10999GF106991061011008001001001MA1999999101341MD1210141+9999
0087827950999991986022621004-07217-035867FM-12+0560SBKG V0201001N00511004201CN0070001N9+02341+02241999999ADDAG10999AY191031AY261031GF108991051031004501021999MA1999999101241MD1210101+9999MW1951
0065827950999991986022709004-07217-035867FM-12+0560SBKG V0209991C00001045001CN0150001N9+02141+02141999999ADDAG10999GF108991031051008001031999MA1999999101341MD1210141+9999
0065827950999991986022712004-07217-035867FM-12+0560SBKG V0209991C00001007501CN0150001N9+02541+02141999999ADDAG10999GF107991071011008001001001MA1999999101441MD1210241+9999
0065827950999991986022718004-07217-035867FM-12+0560SBKG V0201301N00511007501CN0150001N9+03241+01941999999ADDAG10999GF107991071011008001001001MA1999999101241MD1710101+9999
0071827950999991986022721004-07217-035867FM-12+0560SBKG V0209991C00001004201CN0090001N9+02241+02041999999ADDAG10999GF107991051051004501021001MA1999999101241MD1410001+9999MW1501
0051827950999991986022809004-07217-035867FM-12+0560SBKG V0209991C00001045001CN0150001N9+02141+02041999999ADDAG10999GF106991011051004501031011MA1999999101241
0065827950999991986022812004-07217-035867FM-12+0560SBKG V0201001N00261004201CN0150001N9+02541+02041999999ADDAG10999GF107991071011004501001001MA1999999101441MD1210201+9999
0065827950999991986022815004-07217-035867FM-12+0560SBKG V0201201N00411007501CN0150001N9+02941+02141999999ADDAG10999GF107991071011008001001001MA1999999101341MD1710141+9999
0051827950999991986030109004-07217-035867FM-12+0560SBKG V0209991C00001220001CN0150001N9+02141+02041999999ADDAG10999GF104991021051004501031001MA1999999101441
0065827950999991986030112004-07217-035867FM-12+0560SBKG V0209991C00001007501CN0150001N9+02541+01941999999ADDAG10999GF106991051011008001001031MA1999999101441MD1410001+9999
0051827950999991986030121004-07217-035867FM-12+0560SBKG V0209991C00001105001CN0150001N9+02541+02141999999ADDAG10999GF107991041011008001001021MA1999999101141
0065827950999991986030200004-07217-035867FM-12+0560SBKG V0201001N00311220001CN0150001N9+02341+02241999999ADDAG10999GF103991031011008001001001MA1999999101341MD1210241+9999
0051827950999991986030215004-07217-035867FM-12+0560SBKG V0200901N00311004201CN0150001N9+02741+02141999999ADDAG10999GF107991051011004501031001MA1999999101441
0065827950999991986030218004-07217-035867FM-12+0560SBKG V0201001N00511045001CN0150001N9+02641+02141999999ADDAG10999GF107991041051004501021001MA1999999101241MD1710241+9999
0065827950999991986030221004-07217-035867FM-12+0560SBKG V0209991C00001045001CN0150001N9+02441+02141999999ADDAG10999GF108991031051008001031011MA1999999101341MD1210141+9999
0087827950999991986030300004-07217-035867FM-12+0560SBKG V0209991C00001000601CN0100001N9+02141+02041999999ADDAG10999AY191061AY251061GF108991051051000751031999MA1999999101541MD1210041+9999MW1951
0057827950999991986030309004-07217-035867FM-12+0560SBKG V0209991C00001045001CN0080001N9+02141+02141999999ADDAG10999GF107991021051008001031001MA1999999101541MW1101
0081827950999991986030312004-07217-035867FM-12+0560SBKG V0209991C00001105001CN0150001N9+02441+02141999999ADDAG10999AY111061AY201061GF108991041011004501001021MA1999999101641MD1210141+9999
0065827950999991986030315004-07217-035867FM-12+0560SBKG V0209991C00001045001CN0150001N9+02841+02041999999ADDAG10999GF108991041011008001031011MA1999999101641MD1210041+9999
0065827950999991986030318004-07217-035867FM-12+0560SBKG V0200901N00311007501CN0150001N9+03041+02041999999ADDAG10999GF106991061011008001001001MA1999999101441MD1710041+9999
0065827950999991986030412004-07217-035867FM-12+0560SBKG V0209991C00001007501CN0150001N9+02541+02141999999ADDAG10999GF107991071011008001001001MA1999999101741MD1210041+9999
0065827950999991986030415004-07217-035867FM-12+0560SBKG V0200901N00311007501CN0150001N9+02641+02241999999ADDAG10999GF107991071011008001001001MA1999999101641MD1710101+9999
0065827950999991986030421004-07217-035867FM-12+0560SBKG V0200901N00311004201CN0150001N9+02341+02241999999ADDAG10999GF107991061051004501031031MA1999999101541MD1210141+9999
0065827950999991986030509004-07217-035867FM-12+0560SBKG V0209991C00001045001CN0150001N9+02141+02141999999ADDAG10999AY121031GF107991021011004501031001MA1999999101641MW1101
0065827950999991986030512004-07217-035867FM-12+0560SBKG V0201001N00311105001CN0150001N9+02541+02241999999ADDAG10999GF107991021051004501001021MA1999999101741MD1210101+9999
0051827950999991986030518004-07217-035867FM-12+0560SBKG V0201001N00411007501CN0150001N9+02641+02241999999ADDAG10999GF107991051011008001031001MA1999999101441
0051827950999991986030609004-07217-035867FM-12+0560SBKG V0209991C00001004201CN0150001N9+02141+02041999999ADDAG10999GF106991061051004501001001MA1999999101541
0051827950999991986030621004-07217-035867FM-12+0560SBKG V0200901N00311045001CN0150001N9+02441+02141999999ADDAG10999GF107991041011008001031001MA1999999101341
0065827950999991986030700004-07217-035867FM-12+0560SBKG V0201001N00311004201CN0150001N9+02341+02141999999ADDAG10999GF108991081051004501999999MA1999999101441MD1210141+9999
0051827950999991986030712004-07217-035867FM-12+0560SBKG V0209991C00001002101CN0150001N9+02441+02241999999ADDAG10999GF108991081051002501001001MA1999999101541
0065827950999991986030715004-07217-035867FM-12+0560SBKG V0201201N00311007501CN0150001N9+02941+02141999999ADDAG10999GF107991071011008001001001MA1999999101441MD1710141+9999
0065827950999991986030718004-07217-035867FM-12+0560SBKG V0201201N00311007501CN0150001N9+03041+02041999999ADDAG10999GF107991071011008001001001MA1999999101341MD1710141+9999
0065827950999991986030721004-07217-035867FM-12+0560SBKG V0201001N00411045001CN0150001N9+02441+02341999999ADDAG10999GF108991021011008001031011MA1999999101341MD1210041+9999
0051827950999991986030809004-07217-035867FM-12+0560SBKG V0209991C00001004201CN0150001N9+02241+02141999999ADDAG10999GF107991071051004501001001MA1999999101441
0065827950999991986030812004-07217-035867FM-12+0560SBKG V0209991C00001004201CN0150001N9+02441+02241999999ADDAG10999GF107991071011004501001001MA1999999101541MD1210141+9999
0065827950999991986030815004-07217-035867FM-12+0560SBKG V0201101N00411007501CN0150001N9+02841+02041999999ADDAG10999GF107991071011008001001001MA1999999101541MD1210041+9999
0065827950999991986030818004-07217-035867FM-12+0560SBKG V0201501N00511007501CN0150001N9+02841+02241999999ADDAG10999GF107991071011008001001001MA1999999101341MD1710041+9999
0065827950999991986030821004-07217-035867FM-12+0560SBKG V0201101N00411004201CN0150001N9+02341+02241999999ADDAG10999GF108991081051004501001001MA1999999101341MD1410001+9999
0065827950999991986030909004-07217-035867FM-12+0560SBKG V0209991C00001045001CN0150001N9+02141+02041999999ADDAG10999GF108991021051008001031011MA1999999101441MD1210141+9999
0065827950999991986030912004-07217-035867FM-12+0560SBKG V0209991C00001007501CN0150001N9+02541+02041999999ADDAG10999GF108991051011008001031031MA1999999101541MD1210141+9999
0065827950999991986030915004-07217-035867FM-12+0560SBKG V0201501N00411007501CN0150001N9+02841+01941999999ADDAG10999GF107991051011008001001021MA1999999101441MD1710101+9999
0065827950999991986030918004-07217-035867FM-12+0560SBKG V0201001N00311007501CN0150001N9+02941+02141999999ADDAG10999GF107991071011008001001001MA1999999101241MD1710201+9999
0065827950999991986030921004-07217-035867FM-12+0560SBKG V0201001N00511105001CN0150001N9+02641+02241999999ADDAG10999GF105991041051004501001021MA1999999101341MD1210141+9999
0051827950999991986031009004-07217-035867FM-12+0560SBKG V0209991C00001045001CN0150001N9+02141+02041999999ADDAG10999GF107991041051004501031001MA1999999101441
0065827950999991986031012004-07217-035867FM-12+0560SBKG V0201301N00311045001CN0150001N9+02441+02041999999ADDAG10999GF107991041051004501031001MA1999999101541MD1210101+9999
0051827950999991986031018004-07217-035867FM-12+0560SBKG V0209991C00001045001CN0150001N9+02741+02041999999ADDAG10999GF107991041051004501031001MA1999999101341
0057827950999991986031109004-07217-035867FM-12+0560SBKG V0209991C00001220001CN0080001N9+02041+02041999999ADDAG10999GF102991021051004501001001MA1999999101341MW1101
0081827950999991986031112004-07217-035867FM-12+0560SBKG V0209991C00001045001CN0150001N9+02641+01941999999ADDAG10999AY111061AY201061GF105991041011008001031001MA1999999101541MD1210241+9999
0051827950999991986031121004-07217-035867FM-12+0560SBKG V0201001N00311004201CN0150001N9+02341+02241999999ADDAG10999GF107991051051004501031021MA1999999101341
0065827950999991986031200004-07217-035867FM-12+0560SBKG V0209991C00001004201CN0150001N9+02341+02241999999ADDAG10999GF107991061051004501031021MA1999999101441MD1210141+9999
0051827950999991986031215004-07217-035867FM-12+0560SBKG V0201201N00361004201CN0150001N9+02341+02141999999ADDAG10999GF108991051051004501031999MA1999999101541
0065827950999991986031221004-07217-035867FM-12+0560SBKG V0201001N00311007501CN0150001N9+99999+99999999999ADDAG10999GF108991061051008001031999MA1999999101341MD1210041+9999
0065827950999991986031300004-07217-035867FM-12+0560SBKG V0201201N00411045001CN0150001N9+02141+02141999999ADDAG10999GF108991041051008001031999MA1999999101441MD1210041+9999
0051827950999991986031309004-07217-035867FM-12+0560SBKG V0209991C00001004201CN0150001N9+02141+02141999999ADDAG10999GF108991081051004501999999MA1999999101441
0065827950999991986031312004-07217-035867FM-12+0560SBKG V0209991C00001007501CN0150001N9+02541+02041999999ADDAG10999GF107991071011008001001001MA1999999101541MD1210141+9999
0065827950999991986031315004-07217-035867FM-12+0560SBKG V0209991C00001045001CN0150001N9+02941+02041999999ADDAG10999GF108991041011008001031011MA1999999101441MD1210141+9999
0065827950999991986031318004-07217-035867FM-12+0560SBKG V0201201N00311007501CN0150001N9+02941+02141999999ADDAG10999GF108991051011008001001031MA1999999101241MD1710141+9999
0065827950999991986031321004-07217-035867FM-12+0560SBKG V0201301N00311045001CN0150001N9+02341+02041999999ADDAG10999GF108991041051004501071999MA1999999101341MD1210101+9999
0065827950999991986031409004-07217-035867FM-12+0560SBKG V0209991C00001045001CN0150001N9+02141+02141999999ADDAG10999GF108991041051008001031011MA1999999101441MD1210241+9999
0065827950999991986031412004-07217-035867FM-12+0560SBKG V0209991C00001045001CN0150001N9+02441+02241999999ADDAG10999GF108991041051008001031011MA1999999101641MD1210141+9999
0051827950999991986031418004-07217-035867FM-12+0560SBKG V0209991C00001045001CN0150001N9+02541+02241999999ADDAG10999GF108991021051004501021999MA1999999101341
0065827950999991986031421004-07217-035867FM-12+0560SBKG V0209991C00001045001CN0150001N9+02341+02341999999ADDAG10999GF108991031051004501021999MA1999999101341MD1410001+9999
0065827950999991986031509004-07217-035867FM-12+0560SBKG V0209991C00001220001CN0080001N9+02141+02141999999ADDAG10999AY101031GF103991031051004501001001MA1999999101441MW1101
0065827950999991986031512004-07217-035867FM-12+0560SBKG V0209991C00001007501CN0150001N9+02641+02041999999ADDAG10999GF105991051011008001001001MA1999999101541MD1210101+9999
0065827950999991986031515004-07217-035867FM-12+0560SBKG V0201101N00311007501CN0150001N9+02841+02041999999ADDAG10999GF106991061011008001001001MA1999999101541MD1410001+9999
0065827950999991986031518004-07217-035867FM-12+0560SBKG V0201201N00311220001CN0150001N9+03041+01941999999ADDAG10999GF104991041011008001001001MA1999999101341MD1710241+9999
0051827950999991986031609004-07217-035867FM-12+0560SBKG V0209991C00001220001CN0150001N9+02141+02141999999ADDAG10999GF104991041051004501001001MA1999999101441
0065827950999991986031612004-07217-035867FM-12+0560SBKG V0209991C00001007501CN0150001N9+02541+02141999999ADDAG10999GF106991061011008001001001MA1999999101541MD1210141+9999
0051827950999991986031621004-07217-035867FM-12+0560SBKG V0209991C00001220001CN0150001N9+02641+02241999999ADDAG10999GF103991031011008001001001MA1999999101341
0065827950999991986031700004-07217-035867FM-12+0560SBKG V0201001N00411004201CN0150001N9+02441+02141999999ADDAG10999GF106991061011004501001001MA1999999101341MD1410001+9999
0051827950999991986031715004-07217-035867FM-12+0560SBKG V0201101N00411007501CN0150001N9+02841+02141999999ADDAG10999GF106991061011008001001001MA1999999101541
0065827950999991986031718004-07217-035867FM-12+0560SBKG V0201201N00311007501CN0150001N9+03041+02041999999ADDAG10999GF106991061011008001001001MA1999999101341MD1710241+9999
0065827950999991986031721004-07217-035867FM-12+0560SBKG V0200901N00311220001CN0150001N9+02741+02141999999ADDAG10999GF103991031051008001001001MA1999999101341MD1210041+9999
0065827950999991986031800004-07217-035867FM-12+0560SBKG V0201001N00311007501CN0150001N9+02441+02241999999ADDAG10999GF105991051051008001001001MA1999999101441MD1210241+9999
0051827950999991986031812004-07217-035867FM-12+0560SBKG V0209991C00001007501CN0150001N9+02441+02141999999ADDAG10999GF107991071011008001001001MA1999999101641
0065827950999991986031815004-07217-035867FM-12+0560SBKG V0201201N00411007501CN0150001N9+02841+02141999999ADDAG10999GF107991071011008001001001MA1999999101641MD1210041+9999
0065827950999991986031818004-07217-035867FM-12+0560SBKG V0209991C00001105001CN0150001N9+02741+02041999999ADDAG10999GF107991031011008001001031MA1999999101441MD1710041+9999
0065827950999991986031821004-07217-035867FM-12+0560SBKG V0200901N00311007501CN0150001N9+02541+02041999999ADDAG10999GF107991051011008001031001MA1999999101441MD1410001+9999
0065827950999991986031912004-07217-035867FM-12+0560SBKG V0201201N00411007501CN0150001N9+02541+02141999999ADDAG10999GF106991061011008001001001MA1999999101641MD1210141+9999
0065827950999991986031915004-07217-035867FM-12+0560SBKG V0201201N00311007501CN0150001N9+02941+02041999999ADDAG10001GF107991071011008001001001MA1999999101541MD1710141+9999
0065827950999991986031918004-07217-035867FM-12+0560SBKG V0201101N00511220001CN0150001N9+03041+01941999999ADDAG10999GF103991031011008001001001MA1999999101341MD1710241+9999
0051827950999991986032009004-07217-035867FM-12+0560SBKG V0209991C00001220001CN0150001N9+02141+02141999999ADDAG10999GF102991021051004501001001MA1999999101441
0065827950999991986032012004-07217-035867FM-12+0560SBKG V0201301N00411004201CN0150001N9+02641+02041999999ADDAG10999GF106991061051004501001001MA1999999101541MD1210141+9999
0065827950999991986032015004-07217-035867FM-12+0560SBKG V0209991C00001007501CN0150001N9+02941+02141999999ADDAG10999GF107991071011008001001001MA1999999101441MD1710101+9999
0065827950999991986032018004-07217-035867FM-12+0560SBKG V0201201N00311007501CN0150001N9+03041+02241999999ADDAG10999GF106991061011008001001001MA1999999101241MD1710201+9999
0065827950999991986032112004-07217-035867FM-12+0560SBKG V0201201N00311007501CN0150001N9+02641+02141999999ADDAG10999GF107991071011008001001001MA1999999101541MD1210101+9999
0065827950999991986032115004-07217-035867FM-12+0560SBKG V0201201N00511007501CN0150001N9+02941+02341999999ADDAG10999GF106991061011008001001001MA1999999101441MD1710101+9999
0051827950999991986032121004-07217-035867FM-12+0560SBKG V0200901N00411007501CN0150001N9+02441+02141999999ADDAG10999GF107991051011008001031001MA1999999101341
0065827950999991986032200004-07217-035867FM-12+0560SBKG V0200801N00411004201CN0150001N9+02341+02141999999ADDAG10999GF107991051011004501001021MA1999999101341MD1410001+9999
0051827950999991986032215004-07217-035867FM-12+0560SBKG V0209991C00001007501CN0150001N9+03041+02041999999ADDAG10999GF107991071011008001001001MA1999999101441
0065827950999991986032218004-07217-035867FM-12+0560SBKG V0201001N00621007501CN0150001N9+02941+02241999999ADDAG10999GF107991071011008001001001MA1999999101341MD1710141+9999
0065827950999991986032221004-07217-035867FM-12+0560SBKG V0201001N00311007501CN0150001N9+02441+02141999999ADDAG10001GF107991071011008001001001MA1999999101341MD1210041+9999
0065827950999991986032300004-07217-035867FM-12+0560SBKG V0201001N00311007501CN0150001N9+02341+02241999999ADDAG10999GF106991061011008001001001MA1999999101441MD1210241+9999
0081827950999991986032312004-07217-035867FM-12+0560SBKG V0209991C00001220001CN0150001N9+02641+02041999999ADDAG10999AY111061AY201061GF103991031011004501001001MA1999999101541MD1210141+9999
0065827950999991986032315004-07217-035867FM-12+0560SBKG V0209991C00001007501CN0150001N9+03041+01941999999ADDAG10999GF106991061011008001001001MA1999999101441MD1210141+9999
0065827950999991986032318004-07217-035867FM-12+0560SBKG V0201101N00311045001CN0150001N9+03141+01741999999ADDAG10999GF108991031011008001031011MA1999999101241MD1710241+9999
0065827950999991986032321004-07217-035867FM-12+0560SBKG V0201101N00511045001CN0150001N9+02641+02241999999ADDAG10999GF107991031051008001031021MA1999999101341MD1210101+9999
0065827950999991986032409004-07217-035867FM-12+0560SBKG V0209991C00001007501CN0150001N9+02241+02141999999ADDAG10999GF108991051051008001031999MA1999999101441MD1210241+9999
0051827950999991986032415004-07217-035867FM-12+0560SBKG V0200901N00411045001CN0150001N9+02441+02241999999ADDAG10999GF108991041051004501021999MA1999999101541
0065827950999991986032418004-07217-035867FM-12+0560SBKG V0201201N00411004201CN0150001N9+02541+02241999999ADDAG10999GF108991061051004501021999MA1999999101341MD1710241+9999
0065827950999991986032421004-07217-035867FM-12+0560SBKG V0201201N00311004201CN0150001N9+02341+02241999999ADDAG10999GF108991061051004501021999MA1999999101441MD1210101+9999
0051827950999991986032509004-07217-035867FM-12+0560SBKG V0209991C00001220001CN0150001N9+02141+02041999999ADDAG10999GF104991041051004501001001MA1999999101441
0065827950999991986032512004-07217-035867FM-12+0560SBKG V0201301N00311007501CN0150001N9+02441+02141999999ADDAG10999GF106991061011008001001001MA1999999101541MD1210141+9999
0065827950999991986032515004-07217-035867FM-12+0560SBKG V0201201N00311007501CN0150001N9+02841+02141999999ADDAG10999GF107991071011008001001001MA1999999101541MD1410001+9999
0087827950999991986032518004-07217-035867FM-12+0560SBKG V0201001N00311007501CN0150001N9+02841+02141999999ADDAG10001AY161061AY221061GF106991061021008001001001MA1999999101341MD1710201+9999MW1211
0065827950999991986032521004-07217-035867FM-12+0560SBKG V0201001N00311220001CN0150001N9+02441+02141999999ADDAG10999GF104991041011008001001001MA1999999101341MD1410001+9999
0051827950999991986032609004-07217-035867FM-12+0560SBKG V0209991C00001004201CN0150001N9+02141+02141999999ADDAG10999GF105991051051004501001001MA1999999101441
0065827950999991986032615004-07217-035867FM-12+0560SBKG V0201601N00361007501CN0150001N9+02641+02141999999ADDAG10999GF107991071011008001001001MA1999999101541MD1410001+9999
0051827950999991986032621004-07217-035867FM-12+0560SBKG V0201601N00311045001CN0150001N9+02341+02141999999ADDAG10999GF107991041051004501031001MA1999999101341
0065827950999991986032700004-07217-035867FM-12+0560SBKG V0209991C00001045001CN0150001N9+02241+02141999999ADDAG10999GF107991031051004501031001MA1999999101441MD1210141+9999
0051827950999991986032715004-07217-035867FM-12+0560SBKG V0201801N00311007501CN0150001N9+02941+02041999999ADDAG10999GF107991071011008001001001MA1999999101441
0065827950999991986032718004-07217-035867FM-12+0560SBKG V0201501N00311007501CN0150001N9+02841+02141999999ADDAG10999GF106991061011008001001001MA1999999101341MD1710141+9999
0065827950999991986032721004-07217-035867FM-12+0560SBKG V0201001N00311220001CN0150001N9+02641+02241999999ADDAG10999GF102991021011008001001001MA1999999101441MD1210141+9999
0065827950999991986032800004-07217-035867FM-12+0560SBKG V0201001N00311220001CN0150001N9+02441+02241999999ADDAG10999GF102991021011008001001001MA1999999101441MD1210141+9999
0051827950999991986032809004-07217-035867FM-12+0560SBKG V0209991C00001220001CN0150001N9+02141+02141999999ADDAG10999GF102991021051004501001001MA1999999101541
0065827950999991986032812004-07217-035867FM-12+0560SBKG V0201601N00311007501CN0150001N9+02541+02041999999ADDAG10999GF105991051011008001001001MA1999999101741MD1210241+9999
0065827950999991986032815004-07217-035867FM-12+0560SBKG V0201201N00311007501CN0150001N9+02841+02141999999ADDAG10999GF106991061011008001051001MA1999999101541MD1210241+9999
0065827950999991986032821004-07217-035867FM-12+0560SBKG V0201001N00411007501CN0190001N9+02641+02241999999ADDAG10999GF106991061011008001001001MA1999999101441MD1210101+9999
0087827950999991986032909004-07217-035867FM-12+0560SBKG V0209991C00001045001CN0080001N9+02141+02141999999ADDAG10999AY111031AY201031GF108991041051000751031999MA1999999101541MD1210041+9999MW1101
0065827950999991986032912004-07217-035867FM-12+0560SBKG V0209991C00001007501CN0150001N9+02241+02141999999ADDAG10999GF108991051051008001021999MA1999999101741MD1210241+9999
0065827950999991986032915004-07217-035867FM-12+0560SBKG V0201101N00311007501CN0150001N9+02741+02141999999ADDAG10999GF107991061011008001001021MA1999999101641MD1710101+9999
0087827950999991986032918004-07217-035867FM-12+0560SBKG V0201001N00311105001CN0150001N9+02441+02341999999ADDAG10999AY161061AY221061GF107991031051004501001021MA1999999101441MD1710201+9999MW1211
0081827950999991986032921004-07217-035867FM-12+0560SBKG V0201001N00311105001CN0150001N9+02341+02241999999ADDAG10999AY121031AY211031GF106991021051004501001031MA1999999101441MD1410001+9999
0051827950999991986033009004-07217-035867FM-12+0560SBKG V0209991C00001004201CN0150001N9+02241+02241999999ADDAG10999GF107991071051004501001001MA1999999101441
0065827950999991986033012004-07217-035867FM-12+0560SBKG V0201201N00411004201CN0070001N9+02341+02241999999ADDAG10999GF108991061051004501021999MA1999999101541MD1210101+9999
0065827950999991986033015004-07217-035867FM-12+0560SBKG V0201301N00411004201CN0150001N9+02741+02241999999ADDAG10999GF106991061051004501001001MA1999999101441MD1710141+9999
0065827950999991986033018004-07217-035867FM-12+0560SBKG V0201001N00411007501CN0150001N9+02641+02241999999ADDAG10999GF106991061011008001001001MA1999999101341MD1710141+9999
0084827950999991986033021004-07217-035867FM-12+0560SBKG V0201201N00311002101CN0150001N9+02441+02141999999ADDAG10999GF108991999051002501001021MA1999999101341MD1410001+9999EQDQ01+000082SCOTLC
0051827950999991986033109004-07217-035867FM-12+0560SBKG V0209991C00001004201CN0150001N9+02141+02141999999ADDAG10999GF107991071051004501001001MA1999999101441
0065827950999991986033112004-07217-035867FM-12+0560SBKG V0209991C00001045001CN0150001N9+02541+02241999999ADDAG10999GF105991041051004501031001MA1999999101541MD1210141+9999
0051827950999991986033121004-07217-035867FM-12+0560SBKG V0209991C00001220001CN0150001N9+02541+02141999999ADDAG10999GF103991031011008001001001MA1999999101341
0087827950999991986040100004-07217-035867FM-12+0560SBKG V0209991C00001220001CN0150001N9+02341+02141999999ADDAG10999AY101061AY201061GF102991999999008001999999MA1999999101231MD1410001+9999MW1211
0051827950999991986040115004-07217-035867FM-12+0560SBKG V0200901N00311007501CN0150001N9+02841+02241999999ADDAG10999GF106991061011008001001001MA1999999101441
0071827950999991986040118004-07217-035867FM-12+0560SBKG V0201001N00511004201CN0040001N9+02241+02141999999ADDAG10999GF108991061051004501021999MA1999999101341MD1710141+9999MW1601
0065827950999991986040121004-07217-035867FM-12+0560SBKG V0209991C00001007501CN0150001N9+02341+02341999999ADDAG10999GF108991071051008001031999MA1999999101341MD1210041+9999
0087827950999991986040200004-07217-035867FM-12+0560SBKG V0209991C00001000601CN0150001N9+02141+02141999999ADDAG10999AY151061AY201061GF108991051051000751021999MA1999999101541MD1210141+9999MW1501
0051827950999991986040209004-07217-035867FM-12+0560SBKG V0209991C00001045001CN0150001N9+02241+02241999999ADDAG10999GF108991031051004501031999MA1999999101441
0065827950999991986040221004-07217-035867FM-12+0560SBKG V0201201N00411004201CN0150001N9+02341+02341999999ADDAG10999GF107991061051004501031001MA1999999101341MD1210101+9999
0065827950999991986040309004-07217-035867FM-12+0560SBKG V0209991C00001045001CN0150001N9+02241+02141999999ADDAG10999GF108991041051008001031999MA1999999101541MD1210141+9999
0065827950999991986040312004-07217-035867FM-12+0560SBKG V0201201N00311045001CN0150001N9+02541+02241999999ADDAG10999GF108991041051008001031999MA1999999101541MD1210141+9999
0065827950999991986040315004-07217-035867FM-12+0560SBKG V0201201N00311007501CN0150001N9+02841+02241999999ADDAG10999GF107991051011008001031001MA1999999101441MD1710101+9999
0065827950999991986040318004-07217-035867FM-12+0560SBKG V0201501N00511045001CN0150001N9+02841+02141999999ADDAG10999GF107991041011008001031021MA1999999101241MD1710201+9999
0065827950999991986040321004-07217-035867FM-12+0560SBKG V0201101N00411004201CN0150001N9+02441+02141999999ADDAG10999GF106991051051004501001031MA1999999101341MD1210141+9999
0051827950999991986040409004-07217-035867FM-12+0560SBKG V0209991C00001220001CN0150001N9+02141+02041999999ADDAG10999GF104991011011008001031001MA1999999101441
0065827950999991986040412004-07217-035867FM-12+0560SBKG V0201501N00411045001CN0150001N9+02441+02041999999ADDAG10999GF107991041061004501031001MA1999999101541MD1210101+9999
0065827950999991986040418004-07217-035867FM-12+0560SBKG V0201501N00311007501CN0150001N9+02941+02041999999ADDAG10999GF106991061011008001001001MA1999999101241MD1710241+9999
0065827950999991986040421004-07217-035867FM-12+0560SBKG V0201201N00411007501CN0150001N9+02541+02241999999ADDAG10999GF105991051011008001031001MA1999999101241MD1410001+9999
0051827950999991986040521004-07217-035867FM-12+0560SBKG V0201101N00311007501CN0150001N9+02441+02241999999ADDAG10999GF106991061011008001001001MA1999999101241
0065827950999991986040600004-07217-035867FM-12+0560SBKG V0209991C00001220001CN0150001N9+02341+02141999999ADDAG10001GF104991041011008001001001MA1999999101341MD1210141+9999
0051827950999991986040615004-07217-035867FM-12+0560SBKG V0209991C00001007501CN0150001N9+02841+02141999999ADDAG10999GF106991061011008001001001MA1999999101441
0071827950999991986040618004-07217-035867FM-12+0560SBKG V0209991C00001004201CN0080001N9+02541+02241999999ADDAG10999GF107991071051004501001001MA1999999101241MD1710241+9999MW1601
0065827950999991986040621004-07217-035867FM-12+0560SBKG V0209991C00001045001CN0150001N9+02241+02241999999ADDAG10999GF108991041051008001021999MA1999999101341MD1210141+9999
0084827950999991986040700004-07217-035867FM-12+0560SBKG V0209991C000019999999N0150001N9+02241+02141999999ADDAG10999GF108991999051008001001001MA1999999101341MD1210041+9999EQDQ01+000042SCOTLC
0051827950999991986040709004-07217-035867FM-12+0560SBKG V0209991C00001045001CN0150001N9+02141+02141999999ADDAG10999GF107991031051004501031001MA1999999101341
0071827950999991986040712004-07217-035867FM-12+0560SBKG V0209991C00001004201CN0060001N9+02341+02241999999ADDAG10999GF108991051051004501021999MA1999999101641MD1210341+9999MW1601
0065827950999991986040715004-07217-035867FM-12+0560SBKG V0201301N00311007501CN0080001N9+02641+02241999999ADDAG10999GF108991061051008001031011MA1999999101541MD1210041+9999
0065827950999991986040718004-07217-035867FM-12+0560SBKG V0201201N00311007501CN0150001N9+02541+02241999999ADDAG10999GF108991061051008001021999MA1999999101341MD1710141+9999
0087827950999991986040721004-07217-035867FM-12+0560SBKG V0201201N00311004201CN0080001N9+02241+02241999999ADDAG10999AY161031AY221031GF108991061051004501021999MA1999999101441MD1210101+9999MW1601
0065827950999991986040809004-07217-035867FM-12+0560SBKG V0209991C00001007501CN0150001N9+02151+02141999999ADDAG10999GF108991061051008001031999MA1999999101541MD1210141+9999
0051827950999991986040812004-07217-035867FM-12+0560SBKG V0201201N00311007501CN0150001N9+02441+02241999999ADDAG10999GF108991061051008001999999MA1999999101641
0065827950999991986040815004-07217-035867FM-12+0560SBKG V0200901N00311004201CN0150001N9+02741+02241999999ADDAG10999GF107991061051004501031001MA1999999101541MD1710101+9999
0087827950999991986040818004-07217-035867FM-12+0560SBKG V0209991C00001009001CN0150001N9+02341+02241999999ADDAG10999AY161061AY221061GF108991071081004501021999MA1999999101341MD1710201+9999MW1211
0081827950999991986040821004-07217-035867FM-12+0560SBKG V0209991C00001004201CN0150001N9+02341+02241999999ADDAG10999AY121031AY211031GF108991051051004501021999MA1999999101341MD1410001+9999
0065827950999991986040909004-07217-035867FM-12+0560SBKG V0209991C00001004201CN0150001N9+02241+02241999999ADDAG10999AY121031GF107991071051004501001001MA1999999101441MW1101
0065827950999991986040912004-07217-035867FM-12+0560SBKG V0201201N00311004201CN0150001N9+02441+02241999999ADDAG10999GF107991071051004501001001MA1999999101541MD1210101+9999
0065827950999991986040915004-07217-035867FM-12+0560SBKG V0201801N00311004201CN0150001N9+02541+02441999999ADDAG10999GF106991051051004501031001MA1999999101541MD1410001+9999
0065827950999991986040918004-07217-035867FM-12+0560SBKG V0201501N00411004201CN0150001N9+02541+02141999999ADDAG10999GF107991061051004501031001MA1999999101341MD1710241+9999
0051827950999991986041009004-07217-035867FM-12+0560SBKG V0209991C00001004201CN0150001N9+02241+02141999999ADDAG10999GF106991061051004501001001MA1999999101341
0065827950999991986041012004-07217-035867FM-12+0560SBKG V0209991C00001004201CN0150001N9+02541+02241999999ADDAG10999GF106991051011004501031001MA1999999101441MD1210141+9999
0051827950999991986041021004-07217-035867FM-12+0560SBKG V0209991C00001004201CN0150001N9+02341+02241999999ADDAG10999GF108991051051004501021999MA1999999101341
0065827950999991986041100004-07217-035867FM-12+0560SBKG V0209991C00001004201CN0150001N9+02241+02141999999ADDAG10999GF108991081051004501999999MA1999999101341MD1410001+9999
0051827950999991986041115004-07217-035867FM-12+0560SBKG V0201201N00311007501CN0150001N9+02841+02141999999ADDAG10999GF105991051011008001001001MA1999999101441
0065827950999991986041118004-07217-035867FM-12+0560SBKG V0201201N00311007501CN0150001N9+02941+02241999999ADDAG10999GF106991061011008001001001MA1999999101341MD1710141+9999
0065827950999991986041121004-07217-035867FM-12+0560SBKG V0200901N00311220001CN0150001N9+02541+02441999999ADDAG10999GF103991031051008001001001MA1999999101341MD1210141+9999
0065827950999991986041200004-07217-035867FM-12+0560SBKG V0209991C00001007501CN0150001N9+02541+02441999999ADDAG10999GF105991051051008001001001MA1999999101441MD1210141+9999
0057827950999991986041209004-07217-035867FM-12+0560SBKG V0209991C00001004201CN0080001N9+02141+02141999999ADDAG10999GF105991051051004501001001MA1999999101441MW1101
0081827950999991986041212004-07217-035867FM-12+0560SBKG V0201401N00311004201CN0150001N9+02641+02241999999ADDAG10999AY111061AY201061GF106991061011004501001001MA1999999101641MD1210241+9999
0065827950999991986041215004-07217-035867FM-12+0560SBKG V0201201N00311007501CN0150001N9+02941+02241999999ADDAG10999GF106991061011008001001001MA1999999101541MD1210041+9999
0065827950999991986041218004-07217-035867FM-12+0560SBKG V0201301N00311007501CN0150001N9+03041+02241999999ADDAG10999GF106991061011008001001001MA1999999101341MD1710241+9999
0065827950999991986041221004-07217-035867FM-12+0560SBKG V0201101N00311007501CN0150001N9+02641+02241999999ADDAG10999GF105991051011008001001001MA1999999101341MD1410001+9999
0065827950999991986041309004-07217-035867FM-12+0560SBKG V0209991C00001220001CN0150001N9+02241+02141999999ADDAG10999GF104991041051008001001001MA1999999101441MD1210141+9999
0065827950999991986041312004-07217-035867FM-12+0560SBKG V0201101N00411007501CN0150001N9+02541+02241999999ADDAG10999GF108991061051008001031999MA1999999101541MD1210141+9999
0087827950999991986041315004-07217-035867FM-12+0560SBKG V0201201N00411004201CN0040001N9+02441+02341999999ADDAG10999AY151031AY221031GF108991061051004501021999MA1999999101441MD1710101+9999MW1501
0087827950999991986041318004-07217-035867FM-12+0560SBKG V0201201N00311004201CN0150001N9+02341+02341999999ADDAG10999AY151061AY221061GF108991051051004501021999MA1999999101341MD1710101+9999MW1031
0087827950999991986041412004-07217-035867FM-12+0560SBKG V0209991C00001001201CN0020001N9+02241+02241999999ADDAG10999AY161061AY221061GF108991071061001501021999MA1999999101441MD1210101+9999MW1601
0081827950999991986041415004-07217-035867FM-12+0560SBKG V0209991C00001004201CN0150001N9+02441+02341999999ADDAG10999AY161031AY201031GF108991051051004501021999MA1999999101541MD1210141+9999
0065827950999991986041418004-07217-035867FM-12+0560SBKG V0201001N00411004201CN0150001N9+02641+02241999999ADDAG10999GF107991051051004501021001MA1999999101241MD1710341+9999
0057827950999991986041509004-07217-035867FM-12+0560SBKG V0209991C00001004201CN0080001N9+02241+02241999999ADDAG10999GF108991081051004501999999MA1999999101341MW1101
0081827950999991986041512004-07217-035867FM-12+0560SBKG V0201301N00311004201CN0150001N9+02541+02341999999ADDAG10999AY111061AY201061GF106991061011004501001001MA1999999101441MD1210141+9999
0057827950999991986041521004-07217-035867FM-12+0560SBKG V0209991C00001004201CN0080001N9+02341+02241999999ADDAG10999GF108991061051004501021999MA1999999101241MW1101
0081827950999991986041600004-07217-035867FM-12+0560SBKG V0209991C00001004201CN0150001N9+02241+02241999999ADDAG10999AY111061AY201061GF108991061051004501021999MA1999999101541MD1210341+9999
0051827950999991986041615004-07217-035867FM-12+0560SBKG V0201301N00311007501CN0150001N9+02741+02341999999ADDAG10999GF107991071011008001001001MA1999999101441
0065827950999991986041618004-07217-035867FM-12+0560SBKG V0201201N00311045001CN0150001N9+02441+02341999999ADDAG10999GF107991041011008001021001MA1999999101341MD1710141+9999
0065827950999991986041621004-07217-035867FM-12+0560SBKG V0201301N00311007501CN0150001N9+02341+02341999999ADDAG10999GF108991061051008001021999MA1999999101441MD1210041+9999
0065827950999991986041700004-07217-035867FM-12+0560SBKG V0209991C00001045001CN0150001N9+02341+02341999999ADDAG10999GF108991041051008001021999MA1999999101541MD1210141+9999
0057827950999991986041709004-07217-035867FM-12+0560SBKG V0209991C00001004201CN0080001N9+02241+02241999999ADDAG10999GF108991081061004501999999MA1999999101541MW1101
0087827950999991986041712004-07217-035867FM-12+0560SBKG V0209991C00001004201CN0080001N9+02341+02241999999ADDAG10999AY111061AY201061GF108991051051004501021999MA1999999101541MD1410001+9999MW1501
0065827950999991986041715004-07217-035867FM-12+0560SBKG V0201201N00411007501CN0150001N9+02741+02341999999ADDAG10999GF106991061011008001001001MA1999999101541MD1210041+9999
0065827950999991986041718004-07217-035867FM-12+0560SBKG V0201101N00621007501CN0150001N9+02841+02341999999ADDAG10999GF108991051011008001031999MA1999999101241MD1710241+9999
0065827950999991986041721004-07217-035867FM-12+0560SBKG V0209991C00001105001CN0150001N9+02541+02241999999ADDAG10999GF107991021011008001001021MA1999999101341MD1210101+9999
0065827950999991986041809004-07217-035867FM-12+0560SBKG V0209991C00001220001CN0150001N9+01941+01941999999ADDAG10999GF102991021051008001001001MA1999999101141MD1210241+9999
0065827950999991986041812004-07217-035867FM-12+0560SBKG V0201501N00311220001CN0150001N9+02541+01941999999ADDAG10999GF102991021051008001001001MA1999999101541MD1210141+9999
0065827950999991986041815004-07217-035867FM-12+0560SBKG V0209991C00001007501CN0150001N9+02841+02141999999ADDAG10999GF106991061011008001001001MA1999999101441MD1710101+9999
0065827950999991986041818004-07217-035867FM-12+0560SBKG V0201301N00311105001CN0150001N9+02841+02141999999ADDAG10999GF107991041011008001001021MA1999999101241MD1710201+9999
0051827950999991986041909004-07217-035867FM-12+0560SBKG V0209991C00001220001CN0150001N9+01941+01941999999ADDAG10999GF103991011051004501001011MA1999999101441
0065827950999991986041912004-07217-035867FM-12+0560SBKG V0209991C00001007501CN0150001N9+02441+02041999999ADDAG10999GF107991051011008001001021MA1999999101541MD1210101+9999
0065827950999991986041915004-07217-035867FM-12+0560SBKG V0201501N00311007501CN0150001N9+02841+02141999999ADDAG10999GF107991071011008001001001MA1999999101441MD1710141+9999
0051827950999991986042009004-07217-035867FM-12+0560SBKG V0209991C00001004201CN0150001N9+02241+02141999999ADDAG10999GF108991081051004501999999MA1999999101541
0065827950999991986042012004-07217-035867FM-12+0560SBKG V0201801N00411004201CN0150001N9+02441+02241999999ADDAG10999GF106991051051004501031001MA1999999101541MD1410001+9999
0057827950999991986042021004-07217-035867FM-12+0560SBKG V0209991C00001045001CN0150001N9+02341+02241999999ADDAG10999GF107991041011008001031001MA1999999101441MW1211
0051827950999991986042115004-07217-035867FM-12+0560SBKG V0209991C00001007501CN0150001N9+02941+02041999999ADDAG10999GF106991061011008001001001MA1999999101541
0065827950999991986042118004-07217-035867FM-12+0560SBKG V0200901N00211220001CN0150001N9+03041+02241999999ADDAG10001GF106991031011008001001011MA1999999101341MD1710241+9999
0065827950999991986042121004-07217-035867FM-12+0560SBKG V0209991C00001220001CN0150001N9+02641+02141999999ADDAG10999GF103991031011008001001001MA1999999101341MD1410001+9999
0051827950999991986042209004-07217-035867FM-12+0560SBKG V0209991C00001220001CN0150001N9+02141+02041999999ADDAG10999GF104991021051004501001021MA1999999101441
0065827950999991986042212004-07217-035867FM-12+0560SBKG V0209991C00001045001CN0150001N9+02441+02141999999ADDAG10999GF105991041011008001031001MA1999999101541MD1210141+9999
0051827950999991986042218004-07217-035867FM-12+0560SBKG V0201501N00311007501CN0150001N9+02841+02241999999ADDAG10999GF106991061011008001001001MA1999999101341
0065827950999991986042221004-07217-035867FM-12+0560SBKG V0201001N00261220001CN0150001N9+02541+02241999999ADDAG10999GF101991011011008001001001MA1999999101341MD1410001+9999
0065827950999991986042309004-07217-035867FM-12+0560SBKG V0209991C00001105001CN0150001N9+02141+02141999999ADDAG10999GF106991031051008001001031MA1999999101441MD1210241+9999
0065827950999991986042312004-07217-035867FM-12+0560SBKG V0209991C00001007501CN0150001N9+02541+02141999999ADDAG10999GF107991071011008001001001MA1999999101441MD1210141+9999
0065827950999991986042315004-07217-035867FM-12+0560SBKG V0201201N00311007501CN0150001N9+02741+02241999999ADDAG10999GF107991071011008001001001MA1999999101441MD1410001+9999
0065827950999991986042318004-07217-035867FM-12+0560SBKG V0201001N00311220001CN0150001N9+02941+02141999999ADDAG10999GF103991031011008001001001MA1999999101241MD1710201+9999
0065827950999991986042321004-07217-035867FM-12+0560SBKG V0209991C00001220001CN0150001N9+02541+02141999999ADDAG10999GF102991021011008001001001MA1999999101241MD1410001+9999
0065827950999991986042400004-07217-035867FM-12+0560SBKG V0209991C00001220001CN0150001N9+02441+02141999999ADDAG10999GF104991041011008001001001MA1999999101341MD1210141+9999
0051827950999991986042412004-07217-035867FM-12+0560SBKG V0201501N00311220001CN0150001N9+02541+02141999999ADDAG10999GF104991011011008001001011MA1999999101541
0065827950999991986042415004-07217-035867FM-12+0560SBKG V0209991C00001105001CN0150001N9+02841+01841999999ADDAG10999GF105991021011008001001021MA1999999101541MD1410001+9999
0065827950999991986042418004-07217-035867FM-12+0560SBKG V0201501N00211007501CN0150001N9+02941+01941999999ADDAG10999GF107991051011008001001021MA1999999101341MD1710201+9999
0051827950999991986042509004-07217-035867FM-12+0560SBKG V0209991C00001004201CN0150001N9+02241+02241999999ADDAG10999GF105991051051004501001001MA1999999101441
0065827950999991986042512004-07217-035867FM-12+0560SBKG V0201401N00311007501CN0150001N9+02541+02141999999ADDAG10999GF106991061011008001001001MA1999999101641MD1210241+9999
0065827950999991986042521004-07217-035867FM-12+0560SBKG V0209991C00001220001CN0150001N9+02441+02241999999ADDAG10999GF103991031011008001001001MA1999999101341MD1410001+9999
0065827950999991986042600004-07217-035867FM-12+0560SBKG V0201001N00311220001CN0150001N9+02341+02241999999ADDAG10999GF100991001001999999001001MA1999999101441MD1210141+9999
0051827950999991986042615004-07217-035867FM-12+0560SBKG V0201001N00211007501CN0150001N9+02841+02141999999ADDAG10999GF106991061011008001001001MA1999999101541
0071827950999991986042618004-07217-035867FM-12+0560SBKG V0200901N00411045001CN0060001N9+02441+02341999999ADDAG10999GF106991031011008001021001MA1999999101441MD1710141+9999MW1621
0065827950999991986042621004-07217-035867FM-12+0560SBKG V0201201N00311007501CN0150001N9+02041+02041999999ADDAG10999GF107991071051008001001001MA1999999101441MD1210041+9999
0065827950999991986042700004-07217-035867FM-12+0560SBKG V0209991C00001007501CN0150001N9+02041+02041999999ADDAG10999GF105991051051008001001001MA1999999101541MD1210141+9999
0051827950999991986042709004-07217-035867FM-12+0560SBKG V0209991C00001220001CN0150001N9+02041+02041999999ADDAG10999GF102991999999008001999999MA1999999101441
0065827950999991986042712004-07217-035867FM-12+0560SBKG V0209991C00001220001CN0150001N9+02541+02141999999ADDAG10999GF103991031051004501001001MA1999999101541MD1210141+9999
0065827950999991986042715004-07217-035867FM-12+0560SBKG V0201601N00311007501CN0150001N9+02841+02241999999ADDAG10999GF107991071011008001001001MA1999999101541MD1210141+9999
0065827950999991986042718004-07217-035867FM-12+0560SBKG V0201001N00411007501CN0150001N9+02941+02241999999ADDAG10001GF108991051011008001031011MA1999999101341MD1710241+9999
0065827950999991986042721004-07217-035867FM-12+0560SBKG V0201101N00311007501CN0150001N9+02541+02241999999ADDAG10999GF106991061011008001001001MA1999999101341MD1410001+9999
0087827950999991986042809004-07217-035867FM-12+0560SBKG V0209991C00001220001CN0080001N9+02141+02141999999ADDAG10999AY111031AY201031GF104991041051000751001001MA1999999101541MD1210041+9999MW1101
0065827950999991986042812004-07217-035867FM-12+0560SBKG V0209991C00001220001CN0150001N9+02741+02241999999ADDAG10999GF103991031011008001001001MA1999999101541MD1210141+9999
0065827950999991986042821004-07217-035867FM-12+0560SBKG V0200901N00311105001CN0150001N9+02641+02241999999ADDAG10999GF107991021011008001001021MA1999999101441MD1210101+9999
0081827950999991986042912004-07217-035867FM-12+0560SBKG V0201101N00311007501CN0150001N9+02641+99999999999ADDAG10999AY111061AY201061GF106991061011008001001001MA1999999101241MD1410001+9999
0065827950999991986042915004-07217-035867FM-12+0560SBKG V0201201N00311007501CN0150001N9+02841+02341999999ADDAG10999GF106991061011008001001001MA1999999101541MD1410001+9999
0087827950999991986042918004-07217-035867FM-12+0560SBKG V0201001N00411004201CN0040001N9+02341+02241999999ADDAG10999AY161061AY221061GF108991061051004501021999MA1999999101441MD1710101+9999MW1621
0051827950999991986043009004-07217-035867FM-12+0560SBKG V0209991C00001220001CN0150001N9+02241+01241999999ADDAG10999GF103991031051004501001001MA1999999101541
0065827950999991986043012004-07217-035867FM-12+0560SBKG V0209991C00001007501CN0150001N9+02541+02141999999ADDAG10999GF106991061011008001001001MA1999999101641MD1210101+9999
0051827950999991986043021004-07217-035867FM-12+0560SBKG V0200901N00411004201CN0150001N9+02541+02341999999ADDAG10999GF105991051051004501001001MA1999999101441
0071827950999991986050100004-07217-035867FM-12+0560SBKG V0200901N00311004201CN0150001N9+02441+02341999999ADDAG10999GF107991071051004501001001MA1999999101541MD1210141+9999MW1211
0051827950999991986050115004-07217-035867FM-12+0560SBKG V0209991C00001007501CN0150001N9+02941+02141999999ADDAG10999GF106991061011008001001001MA1999999101541
0065827950999991986050118004-07217-035867FM-12+0560SBKG V0209991C00001007501CN0150001N9+03041+02041999999ADDAG10999GF105991051011008001001001MA1999999101341MD1710241+9999
0065827950999991986050121004-07217-035867FM-12+0560SBKG V0209991C00001220001CN0150001N9+02641+02241999999ADDAG10999GF103991031011008001001001MA1999999101441MD1210141+9999
0065827950999991986050200004-07217-035867FM-12+0560SBKG V0201001N00211220001CN0150001N9+02441+02341999999ADDAG10999GF103991031011008001001001MA1999999101641MD1210141+9999
0051827950999991986050209004-07217-035867FM-12+0560SBKG V0209991C00001004201CN0150001N9+02241+02241999999ADDAG10999GF105991051051004501001021MA1999999101541
0065827950999991986050212004-07217-035867FM-12+0560SBKG V0201601N00211007501CN0150001N9+02541+02141999999ADDAG10999GF105991051011008001001021MA1999999101741MD1210241+9999
0065827950999991986050218004-07217-035867FM-12+0560SBKG V0201201N00311007501CN0150001N9+02941+01941999999ADDAG10999GF106991061011008001001001MA1999999101441MD1710241+9999
0065827950999991986050221004-07217-035867FM-12+0560SBKG V0201001N00311045001CN0150001N9+02641+02241999999ADDAG10999GF107991031051004501031001MA1999999101541MD1210101+9999
0065827950999991986050309004-07217-035867FM-12+0560SBKG V0209991C00001007501CN0150001N9+02241+02141999999ADDAG10999GF105991051051008001001001MA1999999101541MD1210241+9999
0065827950999991986050315004-07217-035867FM-12+0560SBKG V0201201N00311105001CN0150001N9+02741+02141999999ADDAG10999GF107991041011008001001021MA1999999101641MD1710101+9999
0065827950999991986050318004-07217-035867FM-12+0560SBKG V0201001N00311105001CN0150001N9+02841+02141999999ADDAG10999GF107991031011008001001021MA1999999101441MD1710201+9999
0065827950999991986050321004-07217-035867FM-12+0560SBKG V0201001N00511105001CN0150001N9+02441+02241999999ADDAG10999GF106991031011008001001031MA1999999101541MD1210341+9999
0065827950999991986050412004-07217-035867FM-12+0560SBKG V0201601N00211007501CN0150001N9+02441+02141999999ADDAG10999GF107991071011008001001001MA1999999101541MD1210101+9999
0071827950999991986050415004-07217-035867FM-12+0560SBKG V0201201N00311007501CN0150001N9+02541+02441999999ADDAG10999GF106991061011008001001001MA1999999101541MD1410001+9999MW1211
0081827950999991986050418004-07217-035867FM-12+0560SBKG V0201201N00511220001CN0150001N9+02841+02141999999ADDAG10999AY121061AY211061GF104991041011008001001001MA1999999101341MD1710241+9999
0051827950999991986050512004-07217-035867FM-12+0560SBKG V0201001N00721004201CN0150001N9+02441+02141999999ADDAG10999GF106991061051004501001001MA1999999101541
0051827950999991986050521004-07217-035867FM-12+0560SBKG V0200901N00311004201CN0150001N9+02341+02241999999ADDAG10999GF106991061051004501001001MA1999999101441
0071827950999991986050600004-07217-035867FM-12+0560SBKG V0209991C00001004201CN0150001N9+02241+02241999999ADDAG10999GF107991071051004501001001MA1999999101541MD1710101+9999MW1601
0057827950999991986050615004-07217-035867FM-12+0560SBKG V0201001N00211004201CN0080001N9+02441+02341999999ADDAG10999GF107991061051004501021001MA1999999101541MW1601
0081827950999991986050618004-07217-035867FM-12+0560SBKG V0201201N00311004201CN0150001N9+02541+02241999999ADDAG10999AY161061AY201061GF107991071051004501001001MA1999999101341MD1710241+9999
0065827950999991986050621004-07217-035867FM-12+0560SBKG V0201201N00311220001CN0150001N9+02241+02241999999ADDAG10999GF104991041051004501001001MA1999999101441MD1710101+9999
0065827950999991986050700004-07217-035867FM-12+0560SBKG V0201001N00261220001CN0150001N9+02241+02241999999ADDAG10999GF104991041051008001001001MA1999999101441MD1210141+9999
0057827950999991986050709004-07217-035867FM-12+0560SBKG V0209991C00001220001CN0080001N9+02141+02141999999ADDAG10999GF104991041051004501031001MA1999999101441MW1101
0081827950999991986050712004-07217-035867FM-12+0560SBKG V0201601N00311007501CN0150001N9+02441+02241999999ADDAG10999AY111061AY201061GF107991071011008001001001MA1999999101541MD1210141+9999
0065827950999991986050718004-07217-035867FM-12+0560SBKG V0201201N00311007501CN0150001N9+02641+02341999999ADDAG10999GF106991061011008001001001MA1999999101341MD1710141+9999
0051827950999991986050815004-07217-035867FM-12+0560SBKG V0201601N00311007501CN0150001N9+02741+02041999999ADDAG10999GF106991061011008001001001MA1999999101541
0065827950999991986050818004-07217-035867FM-12+0560SBKG V0201001N00211105001CN0150001N9+02841+02041999999ADDAG10999GF107991041011008001001021MA1999999101341MD1710201+9999
0065827950999991986050821004-07217-035867FM-12+0560SBKG V0209991C00001007501CN0150001N9+02441+02141999999ADDAG10999GF106991061011008001001001MA1999999101441MD1210101+9999
0065827950999991986050909004-07217-035867FM-12+0560SBKG V0209991C00001220001CN0080001N9+02041+02041999999ADDAG10999AY101031GF103991031051004501001001MA1999999101541MW1101
0065827950999991986050912004-07217-035867FM-12+0560SBKG V0209999999999009001CN0150001N9+02641+02041999999ADDAG10999GF106991061081004501001001MA1999999101641MD1210101+9999
0065827950999991986050915004-07217-035867FM-12+0560SBKG V0201101N00411007501CN0150001N9+02841+02141999999ADDAG10999GF105991051011008001001001MA1999999101541MD1710141+9999
0065827950999991986050918004-07217-035867FM-12+0560SBKG V0201201N00311007501CN0150001N9+02941+02041999999ADDAG10999GF105991051011008001001001MA1999999101341MD1710241+9999
0051827950999991986051009004-07217-035867FM-12+0560SBKG V0209991C00001220001CN0150001N9+01941+01941999999ADDAG10999GF102991021051004501001001MA1999999101541
0065827950999991986051012004-07217-035867FM-12+0560SBKG V0201501N00311007501CN0150001N9+02541+02141999999ADDAG10999GF105991051011008001001001MA1999999101741MD1210241+9999
0051827950999991986051021004-07217-035867FM-12+0560SBKG V0201001N00311045001CN0150001N9+02441+02241999999ADDAG10999GF106991031011008001031001MA1999999101441
0065827950999991986051100004-07217-035867FM-12+0560SBKG V0209991C00001004201CN0150001N9+02341+02141999999ADDAG10999GF108991061011004501031999MA1999999101541MD1210141+9999
0051827950999991986051112004-07217-035867FM-12+0560SBKG V0201001N00411007501CN0150001N9+02841+02241999999ADDAG10999GF106991061011008001001001MA1999999101541
0065827950999991986051118004-07217-035867FM-12+0560SBKG V0200901N00411220001CN0150001N9+02941+02241999999ADDAG10999GF103991031011008001001001MA1999999101341MD1710241+9999
0065827950999991986051121004-07217-035867FM-12+0560SBKG V0201201N00311220001CN0150001N9+02441+02241999999ADDAG10999GF101991011011008001001001MA1999999101441MD1710101+9999
0065827950999991986051200004-07217-035867FM-12+0560SBKG V0209991C00001220001CN0150001N9+02441+02241999999ADDAG10999GF100991001001999999001001MA1999999101441MD1210041+9999
0065827950999991986051215004-07217-035867FM-12+0560SBKG V0201201N00311007501CN0150001N9+02741+02041999999ADDAG10999GF106991061011008001001001MA1999999101441MD1710101+9999
0065827950999991986051218004-07217-035867FM-12+0560SBKG V0201001N00511007501CN0150001N9+02741+02241999999ADDAG10999GF107991051011008001031001MA1999999101241MD1710201+9999
0065827950999991986051221004-07217-035867FM-12+0560SBKG V0200901N00311220001CN0150001N9+02441+02141999999ADDAG10999GF101991011011008001001001MA1999999101241MD1410001+9999
0051827950999991986051309004-07217-035867FM-12+0560SBKG V0209991C00001004201CN0150001N9+02141+02141999999ADDAG10999GF106991061051004501001001MA1999999101441
0065827950999991986051312004-07217-035867FM-12+0560SBKG V0201201N00311220001CN0150001N9+02541+02141999999ADDAG10999GF104991041011008001001001MA1999999101441MD1210041+9999
0065827950999991986051315004-07217-035867FM-12+0560SBKG V0201301N00311007501CN0150001N9+02941+02041999999ADDAG10999GF107991071011008001001001MA1999999101441MD1410001+9999
0051827950999991986051321004-07217-035867FM-12+0560SBKG V0201101N00411004201CN0150001N9+02341+02241999999ADDAG10999GF107991071011004501001001MA1999999101441
0065827950999991986051400004-07217-035867FM-12+0560SBKG V0201001N00411004201CN0150001N9+02241+02141999999ADDAG10999GF107991071051004501001001MA1999999101541MD1210141+9999
0051827950999991986051412004-07217-035867FM-12+0560SBKG V0201201N00411007501CN0150001N9+02641+02141999999ADDAG10999GF105991051011008001001001MA1999999101841
0065827950999991986051415004-07217-035867FM-12+0560SBKG V0201001N00211007501CN0150001N9+02841+02141999999ADDAG10999GF106991061011008001001001MA1999999101641MD1710241+9999
0065827950999991986051418004-07217-035867FM-12+0560SBKG V0201201N00411220001CN0150001N9+02941+02241999999ADDAG10999GF103991031011008001001001MA1999999101541MD1710141+9999
0057827950999991986051509004-07217-035867FM-12+0560SBKG V0209991C00001220001CN0080001N9+02041+02041999999ADDAG10999GF102991021051004501001001MA1999999101841MW1101
0081827950999991986051512004-07217-035867FM-12+0560SBKG V0209991C00001004201CN0150001N9+02541+02141999999ADDAG10999AY111061AY201061GF106991061011004501001001MA1999999101941MD1210141+9999
0051827950999991986051521004-07217-035867FM-12+0560SBKG V0201101N00411220001CN0150001N9+02541+02141999999ADDAG10999GF103991031011008001001001MA1999999101641
0065827950999991986051600004-07217-035867FM-12+0560SBKG V0200901N00411220001CN0150001N9+02341+02141999999ADDAG10999GF100991001001999999001001MA1999999101741MD1210141+9999
0051827950999991986051615004-07217-035867FM-12+0560SBKG V0201101N00511007501CN0150001N9+02841+01941999999ADDAG10999GF105991051011008001001001MA1999999101541
0065827950999991986051618004-07217-035867FM-12+0560SBKG V0201201N00311007501CN0150001N9+02941+02041999999ADDAG10999GF106991061011008001001001MA1999999101441MD1710141+9999
0065827950999991986051621004-07217-035867FM-12+0560SBKG V0201201N00261220001CN0150001N9+02441+02041999999ADDAG10999GF100991001001999999001001MA1999999101541MD1210101+9999
0065827950999991986051700004-07217-035867FM-12+0560SBKG V0201001N00311220001CN0150001N9+02441+02041999999ADDAG10999GF100991001001999999001001MA1999999101641MD1210141+9999
0051827950999991986051709004-07217-035867FM-12+0560SBKG V0209991C00001220001CN0150001N9+02141+02041999999ADDAG10999GF103991031051004501001001MA1999999101641
0065827950999991986051712004-07217-035867FM-12+0560SBKG V0201401N00411007501CN0150001N9+02641+02041999999ADDAG10999GF106991061011008001001001MA1999999101641MD1410001+9999
0065827950999991986051715004-07217-035867FM-12+0560SBKG V0201201N00261007501CN0150001N9+02741+02041999999ADDAG10999GF106991061011008001001001MA1999999101541MD1210141+9999
0065827950999991986051718004-07217-035867FM-12+0560SBKG V0201501N00311220001CN0150001N9+02841+02041999999ADDAG10999GF104991041011008001001001MA1999999101441MD1710101+9999
0065827950999991986051809004-07217-035867FM-12+0560SBKG V0209991C00001220001CN0150001N9+02041+02041999999ADDAG10999GF103991031051008001001001MA1999999101641MD1210141+9999
0051827950999991986051812004-07217-035867FM-12+0560SBKG V0201201N00311220001CN0150001N9+02541+02141999999ADDAG10999GF102991021011008001001001MA1999999101741
0065827950999991986051815004-07217-035867FM-12+0560SBKG V0201201N00311007501CN0150001N9+02841+02041999999ADDAG10999GF106991061011008001001001MA1999999101741MD1410001+9999
0065827950999991986051818004-07217-035867FM-12+0560SBKG V0201401N00311220001CN0150001N9+02941+01941999999ADDAG10999GF104991041011008001001001MA1999999101541MD1710201+9999
0065827950999991986051821004-07217-035867FM-12+0560SBKG V0200901N00311004201CN0150001N9+02441+02141999999ADDAG10999GF107991071051004501001001MA1999999101541MD1410001+9999
0051827950999991986051909004-07217-035867FM-12+0560SBKG V0209991C00001220001CN0150001N9+02141+02141999999ADDAG10999GF101991011011008001001001MA1999999101641
0065827950999991986051912004-07217-035867FM-12+0560SBKG V0201301N00411004201CN0150001N9+02541+02041999999ADDAG10999GF105991051011004501001001MA1999999101741MD1210101+9999
0065827950999991986051915004-07217-035867FM-12+0560SBKG V0201001N00311007501CN0150001N9+02741+01841999999ADDAG10999GF106991061011008001001001MA1999999101741MD1410001+9999
0036827950999991986051918004-07217-035867FM-12+0560SBKG V0201501N00311007501CN0150001N9+02641+99999999999ADDAG10999GF106991061051008001001001
0051827950999991986052009004-07217-035867FM-12+0560SBKG V0209991C00001220001CN0150001N9+02141+02041999999ADDAG10999GF104991021011008001031001MA1999999101641
0065827950999991986052012004-07217-035867FM-12+0560SBKG V0201301N00511007501CN0150001N9+02541+02041999999ADDAG10999GF105991051011008001001001MA1999999101641MD1410001+9999
0071827950999991986052100004-07217-035867FM-12+0560SBKG V0209991C000019999999N0150001N9+02241+99999999999ADDAG10999GF107991999999004501999999MA1999999101641MD1210141+9999MW1211
0065827950999991986052121004-07217-035867FM-12+0560SBKG V0201001N00311045001CN0150001N9+02541+02141999999ADDAG10999GF105991041051004501011999MA1999999101441MD1410001+9999
0051827950999991986052209004-07217-035867FM-12+0560SBKG V0209991C00001220001CN0150001N9+02141+01041999999ADDAG10999GF104991041051004501001001MA1999999101541
0065827950999991986052212004-07217-035867FM-12+0560SBKG V0201301N00311004201CN0150001N9+02541+02142999999ADDAG10001GF107991071011004501001001MA1999999101641MD1210141+9999
0065827950999991986052215004-07217-035867FM-12+0560SBKG V0201201N00511007501CN0150001N9+02841+02141999999ADDAG10001GF107991071011008001001001MA1999999101541MD1710101+9999
0087827950999991986052218004-07217-035867FM-12+0560SBKG V0209991C00001004201CN0150001N9+02341+02241999999ADDAG10999AY161061AY211061GF108991051051004501021999MA1999999101441MD1710101+9999MW1211
0051827950999991986052312004-07217-035867FM-12+0560SBKG V0201801N00311004201CN0150001N9+02441+02141999999ADDAG10999GF106991061051004501001001MA1999999101641
0065827950999991986052315004-07217-035867FM-12+0560SBKG V0201201N00411004201CN0150001N9+02441+02241999999ADDAG10999GF107991071051004501001001MA1999999101641MD1410001+9999
0065827950999991986052318004-07217-035867FM-12+0560SBKG V0201001N00411004201CN0080001N9+02341+02241999999ADDAG10999GF108991081051004501999999MA1999999101541MD1710101+9999
0071827950999991986052321004-07217-035867FM-12+0560SBKG V0209991C00001004201CN0150001N9+02241+02141999999ADDAG10999GF106991061011004501001001MA1999999101541MD1410001+9999MW1211
0051827950999991986052412004-07217-035867FM-12+0560SBKG V0209991C00001004201CN0150001N9+02241+02141999999ADDAG10999GF105991051051004501001001MA1999999101641
0065827950999991986052415004-07217-035867FM-12+0560SBKG V0209991C00001004201CN0150001N9+02641+02141999999ADDAG10999GF106991061051004501001001MA1999999101641MD1410001+9999
0071827950999991986052418004-07217-035867FM-12+0560SBKG V0201501N00311004201CN0150001N9+02241+02241999999ADDAG10999GF107991071051004501001001MA1999999101541MD1710141+9999MW1601
0051827950999991986052509004-07217-035867FM-12+0560SBKG V0209991C00001004201CN0150001N9+01941+01941999999ADDAG10999GF105991051051004501001001MA1999999101541
0065827950999991986052512004-07217-035867FM-12+0560SBKG V0201201N00511220001CN0150001N9+02541+02041999999ADDAG10999GF104991041011008001001001MA1999999101641MD1210141+9999
0057827950999991986052521004-07217-035867FM-12+0560SBKG V0209991C00001004201CN0150001N9+02341+02241999999ADDAG10999GF108991051051004501021999MA1999999101541MW1211
0081827950999991986052600004-07217-035867FM-12+0560SBKG V0209991C00001004201CN0150001N9+02141+02041999999ADDAG10999AY121061AY211061GF105991051051004501031001MA1999999101541MD1410001+9999
0065827950999991986052603004-07217-035867FM-12+0560SBKG V0209991C00001220001CN0150001N9+02141+02041999999ADDAG10999GF103991031001022501031001MA1999999101541MD1410001+9999
0057827950999991986052615004-07217-035867FM-12+0560SBKG V0201801N00311004201CN0070001N9+02241+02141999999ADDAG10999GF108991051051004501021999MA1999999101641MW1501
0051827950999991986052709004-07217-035867FM-12+0560SBKG V0209991C00001004201CN0150001N9+02041+02041999999ADDAG10999GF106991061051004501001001MA1999999101541
0065827950999991986052712004-07217-035867FM-12+0560SBKG V0201501N003119999999N0150001N9+02341+02141999999ADDAG10999GF107991999999004501999999MA1999999101641MD1710141+9999
0065827950999991986052715004-07217-035867FM-12+0560SBKG V0201301N00411045001CN0150001N9+02641+02041999999ADDAG10999GF106991041011008001031001MA1999999101641MD1410001+9999
0051827950999991986052718004-07217-035867FM-12+0560SBKG V0201201N00311045001CN0150001N9+02441+02141999999ADDAG10999GF107991041011004501031001MA1999999101441
0065827950999991986052721004-07217-035867FM-12+0560SBKG V0209991C00001004201CN0150001N9+02341+02141999999ADDAG10999GF106991061011004501001001MA1999999101441MD1410001+9999
0071827950999991986052800004-07217-035867FM-12+0560SBKG V0209991C00001004201CN0150001N9+02241+02241999999ADDAG10999GF107991071011004501001001MA1999999101541MD1210141+9999MW1211
0065827950999991986052809004-07217-035867FM-12+0560SBKG V0209991C00001220001CN0150001N9+02041+02041999999ADDAG10999GF103991031051008001001001MA1999999101541MD1210141+9999
0071827950999991986052815004-07217-035867FM-12+0560SBKG V0209999999999004201CN0080001N9+02541+02041999999ADDAG10999GF108991051011004501021999MA1999999101541MD1710141+9999MW1601
0081827950999991986052818004-07217-035867FM-12+0560SBKG V0201201N00261004201CN0150001N9+02341+02141999999ADDAG10999AY161061AY201061GF107991051051004501021001MA1999999101441MD1710141+9999
0065827950999991986052821004-07217-035867FM-12+0560SBKG V0201201N00311004201CN0150001N9+02241+02141999999ADDAG10999GF105991051051004501001001MA1999999101441MD1410001+9999
0051827950999991986052909004-07217-035867FM-12+0560SBKG V0209991C00001004201CN0150001N9+02141+02141999999ADDAG10001GF108991061051004501031999MA1999999101541
0051827950999991986052912004-07217-035867FM-12+0560SBKG V0201601N00311220001CN0150001N9+02341+02141999999ADDAG10999GF104991041051004501001001MA1999999101641
0084827950999991986052915004-07217-035867FM-12+0560SBKG V0201501N003119999999N0150001N9+02741+02041999999ADDAG10999GF105991999011008001001001MA1999999101541MD1710101+9999EQDQ01+000042SCOTLC
0065827950999991986052918004-07217-035867FM-12+0560SBKG V0201201N00411007501CN0150001N9+02641+02141999999ADDAG10999GF107991051011008001071001MA1999999101441MD1710101+9999
0065827950999991986052921004-07217-035867FM-12+0560SBKG V0201301N00211004201CN0150001N9+02241+02141999999ADDAG10999GF108991061051004501021001MA1999999101541MD1210101+9999
0051827950999991986053009004-07217-035867FM-12+0560SBKG V0209991C00001004201CN0150001N9+02151+02041999999ADDAG10999GF105991051051004501001001MA1999999101641
0065827950999991986053012004-07217-035867FM-12+0560SBKG V0201601N00311045001CN0150001N9+02941+01841999999ADDAG10999GF107991041011008001071001MA1999999101541MD1710101+9999
0051827950999991986053021004-07217-035867FM-12+0560SBKG V0209991C00001220001CN9999999N9+02341+02141999999ADDAG10999GF104991031011008001031001MA1999999101541
0065827950999991986053100004-07217-035867FM-12+0560SBKG V0209991C00001220001CN0150001N9+02241+02141999999ADDAG10999GF100991001001999999001001MA1999999101541MD1410001+9999
0051827950999991986053115004-07217-035867FM-12+0560SBKG V0201301N00311004201CN0150001N9+02241+02141999999ADDAG10999GF108991051051004501021999MA1999999101641
0065827950999991986060100004-07217-035867FM-12+0560SBKG V0209991C00001007501CN0150001N9+02241+02141999999ADDAG10999GF108991081051008001999999MA1999999101541MD1210241+9999
0051827950999991986060109004-07217-035867FM-12+0560SBKG V0209991C00001004201CN0150001N9+02141+02041999999ADDAG10999GF108991061051004501031999MA1999999101541
0087827950999991986060115004-07217-035867FM-12+0560SBKG V0201101N00311004201CN0150001N9+02441+02241999999ADDAG10001AY161031AY221031GF108991061051004501021999MA1999999101641MD1210101+9999MW1211
0065827950999991986060121004-07217-035867FM-12+0560SBKG V0201201N00261045001CN0150001N9+02241+02111999999ADDAG10999GF105991031011004501031001MA1999999101541MD1410001+9999
0065827950999991986060209004-07217-035867FM-12+0560SBKG V0209991C00001045001CN0150001N9+02041+02041999999ADDAG10999GF108991041051008001031999MA1999999101741MD1210141+9999
0051827950999991986060212004-07217-035867FM-12+0560SBKG V0209999999999045001CN0150001N9+02341+02041999999ADDAG10999GF107991031051004501031001MA1999999101841
0065827950999991986060215004-07217-035867FM-12+0560SBKG V0201201N00311045001CN0150001N9+02541+02041999999ADDAG10999GF106991041011008001031001MA1999999101741MD1710141+9999
0065827950999991986060218004-07217-035867FM-12+0560SBKG V0209991C00001007501CN0150001N9+02541+02141999999ADDAG10999GF105991051011008001031001MA1999999101541MD1710241+9999
0057827950999991986060309004-07217-035867FM-12+0560SBKG V0209991C00001004201CN0150001N9+02041+02041999999ADDAG10999GF106991061051004501001001MA1999999101741MW1101
0081827950999991986060312004-07217-035867FM-12+0560SBKG V0201601N00311007501CN0150001N9+02441+02041999999ADDAG10999AY111061AY201061GF106991061011008001001001MA1999999101841MD1210141+9999
0065827950999991986060315004-07217-035867FM-12+0560SBKG V0209991C00001004201CN0150001N9+02641+02041999999ADDAG10999GF107991061011004501071001MA1999999101741MD1710101+9999
0051827950999991986060409004-07217-035867FM-12+0560SBKG V0209991C00001220001CN0150001N9+01941+01941999999ADDAG10999GF102991021051004501001001MA1999999101741
0065827950999991986060412004-07217-035867FM-12+0560SBKG V0201701N00311220001CN0150001N9+02441+02041999999ADDAG10999GF102991021011008001001001MA1999999101841MD1210101+9999
0051827950999991986060421004-07217-035867FM-12+0560SBKG V0201501N00411004201CN0150001N9+02441+02041999999ADDAG10999GF106991061011004501001001MA1999999101741
0065827950999991986060500004-07217-035867FM-12+0560SBKG V0209991C00001220001CN0150001N9+02241+02141999999ADDAG10999GF103991031011004501001001MA1999999101841MD1210141+9999
0051827950999991986060515004-07217-035867FM-12+0560SBKG V0201801N00511007501CN0150001N9+02741+02041999999ADDAG10999GF107991071011008001001001MA1999999101741
0051827950999991986060521004-07217-035867FM-12+0560SBKG V0201001N00311004201CN0150001N9+02041+02041999999ADDAG10999GF106991061051004501001001MA1999999101741
0065827950999991986060609004-07217-035867FM-12+0560SBKG V0209991C00001220001CN0150001N9+01841+01741999999ADDAG10999GF100991001001999999001001MA1999999101741MD1210241+9999
0084827950999991986060612004-07217-035867FM-12+0560SBKG V0201801N00311007501CN0150001N9+02341+01841999999ADDAG10999GF108991999011008001001001MA1999999101841MD1210141+9999EQDQ01+000052SCOTLC
0065827950999991986060615004-07217-035867FM-12+0560SBKG V0201601N00411007501CN0150001N9+02641+02041999999ADDAG10999GF107991071011008001001001MA1999999101741MD1710101+9999
0065827950999991986060618004-07217-035867FM-12+0560SBKG V0201701N00311045001CN0150001N9+02741+01941999999ADDAG10001GF107991041011008001031001MA1999999101641MD1710101+9999
0065827950999991986060621004-07217-035867FM-12+0560SBKG V0209991C00001220001CN0150001N9+02441+02041999999ADDAG10999GF103991031001999999031001MA1999999101641MD1410001+9999
0051827950999991986060709004-07217-035867FM-12+0560SBKG V0209991C00001220001CN0150001N9+01841+01741999999ADDAG10999GF103991031051004501001001MA1999999101741
0065827950999991986060712004-07217-035867FM-12+0560SBKG V0202001N00411007501CN0150001N9+02341+01941999999ADDAG10001GF105991051011008001001001MA1999999101841MD1210101+9999
0065827950999991986060715004-07217-035867FM-12+0560SBKG V0201801N00411007501CN0150001N9+02641+01941999999ADDAG10999GF107991071011008001001001MA1999999101741MD1710101+9999
0065827950999991986060718004-07217-035867FM-12+0560SBKG V0201601N00311007501CN0150001N9+02741+02041999999ADDAG10999GF106991061011008001001001MA1999999101541MD1710201+9999
0065827950999991986060721004-07217-035867FM-12+0560SBKG V0209991C00001220001CN0150001N9+02241+02041999999ADDAG10999GF102991021011008001001001MA1999999101541MD1410001+9999
0051827950999991986060809004-07217-035867FM-12+0560SBKG V0209991C00001004201CN0150001N9+01841+01841999999ADDAG10999GF105991051051004501001001MA1999999101741
0051827950999991986060909004-07217-035867FM-12+0560SBKG V0209991C00001220001CN0150001N9+99999+99999999999ADDAG10999GF103991021051004501031001MA1999999101741
0065827950999991986060912004-07217-035867FM-12+0560SBKG V0201501N00311007501CN0150001N9+02441+01941999999ADDAG10999GF106991061011008001001001MA1999999101941MD1210241+9999
0051827950999991986061000004-07217-035867FM-12+0560SBKG V0201701N00311007501CN0150001N9+02141+02041999999ADDAG10999GF105991051011008001001001MA1999999101841
0057827950999991986061018004-07217-035867FM-12+0560SBKG V0201201N00311004201CN0150001N9+02141+02141999999ADDAG10999GF107991051051004501031001MA1999999101641MW1211
0065827950999991986061021004-07217-035867FM-12+0560SBKG V0209991C00001007501CN0150001N9+02141+02041999999ADDAG10999GF108991061051008001031011MA1999999101241MD1210241+9999
0065827950999991986061100004-07217-035867FM-12+0560SBKG V0209991C00001007501CN0150001N9+02141+02041999999ADDAG10999GF105991051051008001001001MA1999999101741MD1210041+9999
0051827950999991986061109004-07217-035867FM-12+0560SBKG V0209991C00001045001CN0150001N9+02041+02041999999ADDAG10999GF107991041051004501071001MA1999999101741
0065827950999991986061112004-07217-035867FM-12+0560SBKG V0201301N00411007501CN0150001N9+02341+02041999999ADDAG10999GF105991051011008001001001MA1999999101841MD1210101+9999
0065827950999991986061115004-07217-035867FM-12+0560SBKG V0201501N00311007501CN0150001N9+02741+02141999999ADDAG10999GF106991061011008001001001MA1999999101641MD1210241+9999
0065827950999991986061118004-07217-035867FM-12+0560SBKG V0201201N00311007501CN0150001N9+02641+02141999999ADDAG10999GF105991051011008001001001MA1999999101641MD1410001+9999
0065827950999991986061121004-07217-035867FM-12+0560SBKG V0209991C00001220001CN0150001N9+02341+02141999999ADDAG10999GF104991041011008001001001MA1999999101641MD1410001+9999
0065827950999991986061200004-07217-035867FM-12+0560SBKG V0209991C00001007501CN0150001N9+02241+02141999999ADDAG10999GF105991051011008001001001MA1999999101641MD1410001+9999
0051827950999991986061209004-07217-035867FM-12+0560SBKG V0209991C00001220001CN0150001N9+02141+02041999999ADDAG10999GF103991031051008001001001MA1999999101641
0051827950999991986061212004-07217-035867FM-12+0560SBKG V0209991C00001004201CN0150001N9+02441+02041999999ADDAG10999GF107991071051004501001001MA1999999101741
0087827950999991986061218004-07217-035867FM-12+0560SBKG V0201001N00411004201CN0080001N9+02241+02141999999ADDAG10999AY161061AY201061GF108991061051004501021999MA1999999101641MD1710141+9999MW1601
0087827950999991986061221004-07217-035867FM-12+0560SBKG V0201201N00311002101CN0080001N9+02141+02141999999ADDAG10999AY161031AY201031GF108991061051002501021999MA1999999101641MD1410001+9999MW1601
0051827950999991986061309004-07217-035867FM-12+0560SBKG V0209991C00001004201CN0090001N9+02041+01941999999ADDAG10999GF108991081051004501999999MA1999999101741
