0073829750999991986020812004-09067-044367FM-12+033299999V0209999999999220001CN0500001N9-01601-02061103291ADDAA106000091AG10999GF107991001001999999001011MD1610071+9999REMSYN003333
0115829750999991986030600004-09067-044367FM-12+033299999V0200901N00051220001CN0002001N9+02181+02011101451ADDAA106000091AG10999GF101991011011008001001001KA1240M+02811MA1999999095271MD1999999-0041REMSYN017333   10281 59004
0050829750999991986030918004-09067-044367FM-12+033299999V0202001N000519999999N0400001N9-01221-01491101361ADDAG10999GF108991001001999999999999MD1710211+9999
0121829750999991986081112004-09067-044367FM-12+033299999V0200901N00261220001CN0500001N9+02571+01561101621ADDAA106000091AG10999GF100991001001999999001001KA1240N+01971MA1999999097761MD1999999-0011REMSYN023333   20197 59001 60000
0096829750999991986081118004-09067-044367FM-12+033299999V0201801N00151007501CN0500001N9+99999+99999999999ADDAA106000091AG10999GF105991051031008001061051MA1999999097261MD1999999-0121REMSYN011333   59012
0115829750999991986081200004-09067-044367FM-12+033299999V0209991C00001220001CN9999999N9+99999+99999999999ADDAA106000091AG10999GF100991001001999999001001KA1240M+03411MA1999999097491MD1999999-0041REMSYN017333   10341 59004
0115829750999991986081212004-09067-044367FM-12+033299999V0200501N00151220001CN0500001N9+99999+99999101451ADDAA106000091AG10999GF100991001001999999001001KA1240N+01631MA1999999097611MD1999999-0151REMSYN017333   20163 59015
0096829750999991986081218004-09067-044367FM-12+033299999V0200901N00261007501CN0200001N9+99999+99999100951ADDAA106000091AG10999GF106991051031008001041031MA1999999097101MD1999999-0161REMSYN011333   59016
0115829750999991986081300004-09067-044367FM-12+033299999V0201801N00151220001CN9999999N9+99999+99999999999ADDAA106000091AG10999GF100991001001999999001001KA1240M+03231MA1999999097261MD1999999-0141REMSYN017333   10323 59014
0115829750999991986081400004-09067-044367FM-12+033299999V0201801N00151220001CN9999999N9+99999+99999100931ADDAA106000091AG10999GF100991001001999999001001KA1240M+03711MA1999999097111MD1999999-0151REMSYN017333   10371 59015
0137829750999991986081412004-09067-044367FM-12+033299999V0200501N00151220001CN0200001N9+99999+99999999999ADDAA106000091AG10001AY121061AY281061GF100991001001999999001001KA1240N+01891MA1999999097451MD1999999-0051MW1011REMSYN017333   20189 59005
0115829750999991986081512004-09067-044367FM-12+033299999V0200901N00151220001CN0500001N9+99999+99999101231ADDAA106000091AG10001GF100991001001999999001001KA1240N+01831MA1999999097401MD1999999-0051REMSYN017333   20183 59005
0096829750999991986081518004-09067-044367FM-12+033299999V0209991C00001220001CN0200001N9+99999+99999100631ADDAA106000091AG10999GF104991031021008001021011MA1999999096811MD1999999+0341REMSYN011333   58034
0115829750999991986081700004-09067-044367FM-12+033299999V0201801N00151220001CN9999999N9+99999+99999100911ADDAA106000091AG10999GF100991001001999999001001KA1240M+03491MA1999999097111MD1999999+0001REMSYN017333   10349 58000
0115829750999991986081812004-09067-044367FM-12+033299999V0201401N00261220001CN0200001N9+99999+99999101181ADDAA106000091AG10999GF100991001001999999001001KA1240N+01971MA1999999097331MD1999999-0091REMSYN017333   20197 59009
0096829750999991986081818004-09067-044367FM-12+033299999V0201801N00311045001CN0500001N9+99999+99999100591ADDAA106000091AG10999GF105991041021008001031041MA1999999096761MD1999999-0241REMSYN011333   59024
0115829750999991986081900004-09067-044367FM-12+033299999V0201801N00101220001CN9999999N9+99999+99999100751ADDAA106000091AG10999GF100991001001999999001001KA1240M+03571MA1999999096961MD1999999-0151REMSYN017333   10357 59015
0115829750999991986081912004-09067-044367FM-12+033299999V0200901N00151220001CN0200001N9+99999+99999101161ADDAA106000091AG10999GF100991001001999999001001KA1240N+02021MA1999999097351MD1999999+0021REMSYN017333   20202 58002
0115829750999991986082000004-09067-044367FM-12+033299999V0200901N00151220001CN9999999N9+99999+99999100901ADDAA106000091AG10999GF100991001001999999001001KA1240M+03411MA1999999097101MD1999999-0141REMSYN017333   10341 59014
0115829750999991986082100004-09067-044367FM-12+033299999V0203201N00151220001CN9999999N9+99999+99999100971ADDAA106000091AG10999GF100991001001999999001001KA1240M+03471MA1999999097161MD1999999+0061REMSYN017333   10347 58006
0115829750999991986082112004-09067-044367FM-12+033299999V0201401N00261220001CN0200001N9+99999+99999101261ADDAA106000091AG10999GF100991001001999999001001KA1240N+01731MA1999999097431MD1999999-0081REMSYN017333   20173 59008
0096829750999991986082118004-09067-044367FM-12+033299999V0200901N00151007501CN0200001N9+99999+99999100741ADDAA106000091AG10999GF105991051031008001041021MA1999999096911MD1999999-0251REMSYN011333   59025
0162829750999991986082312004-09067-044367FM-12+033299999V0203601N00151012001CN0500001N9+99999+99999101321ADDAA124009091AG10999AY161061AY221061GF108991999081008001081081KA1240N+02791MA1999999097461MD1999999+0161MW1071REMSYN023333   20279 58016 60094EQDQ01+000082SCOTLC
0115829750999991986082412004-09067-044367FM-12+033299999V0209991C000019999999N0200001N9+99999+99999101231ADDAA106000091AG10999GF108991081999008001999999KA1240N+02101MA1999999097391MD1999999-0071REMSYN017333   20210 59007
0096829750999991986082418004-09067-044367FM-12+033299999V0200901N00151045001CN0200001N9+99999+99999101141ADDAA106000091AG10999GF105991041021008001041031MA1999999097301MD1999999+0261REMSYN011333   58026
0115829750999991986082500004-09067-044367FM-12+033299999V0203201N00151220001CN9999999N9+99999+99999100971ADDAA106000091AG10999GF100991001001999999001001KA1240M+03111MA1999999097141MD1999999+0101REMSYN017333   10311 58010
0115829750999991986082600004-09067-044367FM-12+033299999V0209991C00001220001CN0100001N9+02451+99999101161ADDAA106000091AG10999GF100991001001999999001001KA1240M+03391MA1999999097301MD1999999+0161REMSYN017333   10339 58016
0115829750999991986082612004-09067-044367FM-12+033299999V0201401N00151220001CN0100001N9+02531+99999101551ADDAA106000091AG10999GF100991001001999999001001KA1240N+01891MA1999999097681MD1999999+0111REMSYN017333   20189 58011
0096829750999991986082618004-09067-044367FM-12+033299999V0201801N00311045001CN0100001N9+03431+99999101061ADDAA106000091AG10999GF106991031041008001061051MA1999999097211MD1999999+0111REMSYN011333   58011
0115829750999991986082712004-09067-044367FM-12+033299999V0201801N00261220001CN0100001N9+02501+99999101531ADDAA106000091AG10999GF100991001001999999001001KA1240N+01611MA1999999097681MD1999999+0001REMSYN017333   20161 58000
0096829750999991986082718004-09067-044367FM-12+033299999V0200901N00261220001CN0200001N9+03451+99999100951ADDAA106000091AG10999GF103991031001008001021071MA1999999097111MD1999999-0101REMSYN011333   59010
0115829750999991986082812004-09067-044367FM-12+033299999V0201401N00411220001CN0100001N9+02721+99999101501ADDAA106000091AG10999GF100991001001999999001001KA1240N+02021MA1999999097681MD1999999+0001REMSYN017333   20202 58000
0096829750999991986082818004-09067-044367FM-12+033299999V0201401N00411220001CN0100001N9+03441+99999100951ADDAA106000091AG10999GF100991001001999999001001MA1999999097131MD1999999+0031REMSYN011333   58003
0115829750999991986082900004-09067-044367FM-12+033299999V0201401N00151220001CN9999999N9+02731+99999101231ADDAA106000091AG10999GF100991001001999999001001KA1240M+03451MA1999999097401MD1999999+0141REMSYN017333   10345 58014
0115829750999991986082912004-09067-044367FM-12+033299999V0200901N00411220001CN0100001N9+02611+99999101611ADDAA106000091AG10999GF102991021001008001041061KA1240N+02121MA1999999097761MD1999999+0081REMSYN017333   20212 58008
0096829750999991986082918004-09067-044367FM-12+033299999V0201801N00311045001CN0100001N9+03361+99999101071ADDAA106000091AG10999GF105991041021008001041081MA1999999097251MD1999999+0121REMSYN011333   58012
0096829750999991986082919004-09067-044367FM-12+033299999V0201801N00311045001CN0100001N9+03361+99999101071ADDAA106000091AG10999GF105991041021008001041081MA1999999097251MD1999999+0121REMSYN011333   58012
0115829750999991986083000004-09067-044367FM-12+033299999V0201801N00151220001CN9999999N9+02761+99999101281ADDAA106000091AG10999GF100991001001999999001001KA1240M+03401MA1999999097451MD1999999+0051REMSYN017333   10340 58005
0115829750999991986090300004-09067-044367FM-12+033299999V0201401N00151220001CN9999999N9+02691+99999101381ADDAA106000091AG10999GF100991001001999999001001KA1240M+03311MA1999999097531MD1999999+0361REMSYN017333   10331 58036
0134829750999991986090312004-09067-044367FM-12+033299999V0200901N00461220001CN0200001N9+02341+99999101731ADDAA106000091AG10999GF102991021001008001061041KA1240N+99999MA1999999097851MD1999999+0121REMSYN017333   20298 58012EQDQ01 +02982ATMN  
0096829750999991986090318004-09067-044367FM-12+033299999V0201401N00311220001CN0100001N9+03241+99999101081ADDAA106000091AG10999GF103991031021008001051001MA1999999097241MD1999999+0041REMSYN011333   58004
0115829750999991986090400004-09067-044367FM-12+033299999V0201801N00101220001CN9999999N9+02641+99999101301ADDAA106000091AG10999GF100991001001999999001001KA1240M+03281MA1999999097441MD1999999-0091REMSYN017333   10328 59009
0115829750999991986090500004-09067-044367FM-12+033299999V0201801N00311220001CN9999999N9+02741+99999101231ADDAA106000091AG10999GF100991001001999999001001KA1240M+03341MA1999999097381MD1999999-0061REMSYN017333   10334 59006
0115829750999991986090512004-09067-044367FM-12+033299999V0201401N00151220001CN0100001N9+02551+99999101581ADDAA106000091AG10999GF100991001001999999001001KA1240N+01901MA1999999097731MD1999999-0111REMSYN017333   20190 59011
0096829750999991986090518004-09067-044367FM-12+033299999V0200901N00151007501CN0100001N9+03401+99999101001ADDAA106000091AG10999GF105991051041008001061071MA1999999097151MD1999999-0091REMSYN011333   59009
0115829750999991986090600004-09067-044367FM-12+033299999V0201801N00151220001CN9999999N9+02841+99999101131ADDAA106000091AG10999GF100991001001999999001001KA1240M+03451MA1999999097301MD1999999-0081REMSYN017333   10345 59008
0115829750999991986090612004-09067-044367FM-12+033299999V0201801N00151220001CN0100001N9+02501+99999101651ADDAA106000091AG10999GF100991001001999999001001KA1240N+02041MA1999999097801MD1999999+0071REMSYN017333   20204 58007
0115829750999991986090700004-09067-044367FM-12+033299999V0201401N00151220001CN9999999N9+02761+99999101351ADDAA106000091AG10001GF100991001001999999001001KA1240M+03481MA1999999097501MD1999999+0201REMSYN017333   10348 58020
0115829750999991986090712004-09067-044367FM-12+033299999V0201401N00411220001CN0100001N9+02711+99999101651ADDAA106000091AG10999GF100991001001999999001001KA1240N+02181MA1999999097811MD1999999+0011REMSYN017333   20218 58001
0096829750999991986090718004-09067-044367FM-12+033299999V0201401N00311045001CN0100001N9+03491+99999101091ADDAA106000091AG10999GF105991041051008001061071MA1999999097291MD1999999+0051REMSYN011333   58005
0096829750999991986090818004-09067-044367FM-12+033299999V0201801N00361045001CN0100001N9+03421+99999101111ADDAA106000091AG10999GF105991041031008001061051MA1999999097291MD1999999+0001REMSYN011333   58000
0115829750999991986090900004-09067-044367FM-12+033299999V0209991C00001220001CN9999999N9+02761+99999101301ADDAA106000091AG10999GF100991001001999999001001KA1240M+03451MA1999999097481MD1999999-0061REMSYN017333   10345 59006
0115829750999991986090912004-09067-044367FM-12+033299999V0201401N00571220001CN0200001N9+02601+99999101681ADDAA106000091AG10999GF100991001001999999001001KA1240N+02061MA1999999097841MD1999999+0021REMSYN017333   20206 58002
0096829750999991986090918004-09067-044367FM-12+033299999V0201801N00311045001CN0100001N9+03401+99999101141ADDAA106000091AG10999GF105991041021008001041061MA1999999097321MD1999999+0031REMSYN011333   58003
0115829750999991986091000004-09067-044367FM-12+033299999V0201801N00151220001CN9999999N9+02721+99999101331ADDAA106000091AG10999GF100991001001999999001001KA1240M+03441MA1999999097491MD1999999+0011REMSYN017333   10344 58001
0095829750999991986091012004-09067-044367FM-12+033299999V0200901N00311220001CN0500001N9+02511+99999103572ADDAA106000091AG10999GF103991021021008001021001KA1240N+01971MA1999999097921REMSYN011333   20197
0115829750999991986091112004-09067-044367FM-12+033299999V0200901N00261220001CN0200001N9+02511+99999101641ADDAA106000091AG10999GF100991001001999999001001KA1240N+01951MA1999999097801MD1999999-0111REMSYN017333   20195 59011
0115829750999991986091200004-09067-044367FM-12+033299999V0200901N00101220001CN9999999N9+02851+99999101161ADDAA106000091AG10999GF100991001001999999001001KA1240M+03431MA1999999097341MD1999999-0111REMSYN017333   10343 59011
0062829750999991986091212004-09067-044367FM-12+033299999V0200501N00261220001CN0200001N9+02661+99999101381ADDAA106000091AG10999GF100991001001999999001001MA1999999097551
0096829750999991986091218004-09067-044367FM-12+033299999V0200901N00261220001CN0500001N9+03401+99999101161ADDAA106000091AG10999GF103991031021008001031021MA1999999097351MD1999999-0111REMSYN011333   59011
0115829750999991986091300004-09067-044367FM-12+033299999V0201801N00101220001CN9999999N9+02921+99999101211ADDAA106000091AG10999GF100991001001999999001001KA1240M+03411MA1999999097401MD1999999+0061REMSYN017333   10341 58006
0115829750999991986091412004-09067-044367FM-12+033299999V0200501N00211220001CN0500001N9+02811+99999101531ADDAA106000091AG10999GF100991001001999999001001KA1240N+02221MA1999999097711MD1999999+0011REMSYN017333   20222 58001
0115829750999991986091500004-09067-044367FM-12+033299999V0209991C00001220001CN9999999N9+02831+99999101121ADDAA106000091AG10999GF100991001001999999001001KA1240M+03391MA1999999097311MD1999999-0191REMSYN017333   10339 59019
0115829750999991986091512004-09067-044367FM-12+033299999V0200901N00151220001CN0200001N9+02751+99999101571ADDAA106000091AG10999GF100991001001999999001001KA1240N+02201MA1999999097751MD1999999+0041REMSYN017333   20220 58004
0115829750999991986091612004-09067-044367FM-12+033299999V0200501N00261220001CN0500001N9+02751+99999101341ADDAA106000091AG10999GF100991001001999999001001KA1240N+02141MA1999999097541MD1999999+0211REMSYN017333   20214 58021
0115829750999991986091712004-09067-044367FM-12+033299999V0200501N00151220001CN0200001N9+02751+99999101431ADDAA106000091AG10999GF100991001001999999001001KA1240N+02301MA1999999097611MD1999999+0071REMSYN017333   20230 58007
0115829750999991986092600004-09067-044367FM-12+033299999V0201401N00151220001CN9999999N9+03091+99999100901ADDAA106000091AG10999GF100991001001999999001001KA1240M+03691MA1999999097131MD1999999-0081REMSYN017333   10369 59008
0115829750999991986092612004-09067-044367FM-12+033299999V0200501N00261220001CN0100001N9+02931+99999101171ADDAA106000091AG10999GF100991001001999999001001KA1240N+02161MA1999999097391MD1999999-0151REMSYN017333   20216 59015
0096829750999991986092618004-09067-044367FM-12+033299999V0201401N00151007501CN0200001N9+03681+99999100551ADDAA106000091AG10999GF106991051061008001051071MA1999999096781MD1999999-0181REMSYN011333   59018
0115829750999991986092912004-09067-044367FM-12+033299999V0201401N00261220001CN0100001N9+02731+99999101571ADDAA106000091AG10999GF100991001001999999001001KA1240N+02201MA1999999097751MD1999999+0091REMSYN017333   20220 58009
0096829750999991986092918004-09067-044367FM-12+033299999V0200901N00311045001CN0100001N9+03551+99999100991ADDAA106000091AG10999GF106991041061008001051071MA1999999097191MD1999999+0091REMSYN011333   58009
0115829750999991986093000004-09067-044367FM-12+033299999V0201401N00101220001CN9999999N9+02951+99999101191ADDAA106000091AG10999GF100991001001999999001001KA1240M+03601MA1999999097391MD1999999+0091REMSYN017333   10360 58009
0069829750999991986093006004-09067-044367FM-12+033299999V0209991C00001220001CN0500001N9+01801+00511999999ADDAG10999GF102991001001999999001091MD1710231+9999EQDQ01+100373APOSLP
0115829750999991986093012004-09067-044367FM-12+033299999V0201401N00261220001CN0100001N9+02731+99999101581ADDAA106000091AG10999GF100991001001999999001001KA1240N+02181MA1999999097761MD1999999+0011REMSYN017333   20218 58001
0096829750999991986093018004-09067-044367FM-12+033299999V0200901N00151045001CN0100001N9+03451+99999100971ADDAA106000091AG10999GF106991041061008001051031MA1999999097161MD1999999-0031REMSYN011333   59003
0115829750999991986100112004-09067-044367FM-12+033299999V0200501N00311220001CN0100001N9+02971+99999101361ADDAA106000091AG10999GF103991021001008001031061KA1240N+02191MA1999999097551MD1999999-0211REMSYN017333   20219 59021
0096829750999991986100118004-09067-044367FM-12+033299999V0200901N00151045001CN0100001N9+03511+99999100781ADDAA106000091AG10999GF105991031041008001061051MA1999999096991MD1999999-0171REMSYN011333   59017
0115829750999991986100200004-09067-044367FM-12+033299999V0203201N00151007501CN9999999N9+03031+99999101051ADDAA106000091AG10999GF108991061061008001071061KA1240M+03501MA1999999097271MD1999999+0031REMSYN017333   10350 58003
0121829750999991986100212004-09067-044367FM-12+033299999V0200501N00411220001CN0100001N9+02801+99999101321ADDAA199001091AG10999GF103991021001008001031061KA1240N+02221MA1999999097521MD1999999+0031REMSYN023333   20222 58003 60010
0115829750999991986100312004-09067-044367FM-12+033299999V0200901N00151045001CN0100001N9+02631+99999101481ADDAA106000091AG10999GF106991041061008001071031KA1240N+02221MA1999999097641MD1999999+0121REMSYN017333   20222 58012
0096829750999991986100318004-09067-044367FM-12+033299999V0200901N00311045001CN0100001N9+03421+99999100911ADDAA106000091AG10999GF105991031061008001041021MA1999999097111MD1999999+0001REMSYN011333   58000
0115829750999991986100400004-09067-044367FM-12+033299999V0203601N00151220001CN9999999N9+02951+99999101121ADDAA106000091AG10999GF103991021021008001061031KA1240M+03451MA1999999097311MD1999999-0071REMSYN017333   10345 59007
0121829750999991986100412004-09067-044367FM-12+033299999V0200501N00151220001CN0200001N9+03031+99999101321ADDAA106000091AG10999GF104991031001008001031021KA1240N+02451MA1999999097541MD1999999-0101REMSYN023333   20245 59010 59002
0115829750999991986100700004-09067-044367FM-12+033299999V0201801N00151220001CN9999999N9+02511+99999101021ADDAA106000091AG10999GF100991001001999999001001KA1240M+03211MA1999999097191MD1999999+0121REMSYN017333   10321 58012
0115829750999991986100800004-09067-044367FM-12+033299999V0203201N00211220001CN9999999N9+02901+99999100961ADDAA106000091AG10999GF103991031061008001031021KA1240M+03431MA1999999097161MD1999999-0031REMSYN017333   10343 59003
0115829750999991986100812004-09067-044367FM-12+033299999V0200501N00311220001CN0100001N9+02921+99999101251ADDAA106000091AG10999GF100991001001999999001001KA1240N+02101MA1999999097451MD1999999-0051REMSYN017333   20210 59005
0096829750999991986100818004-09067-044367FM-12+033299999V0201401N00151045001CN0100001N9+03601+99999100671ADDAA106000091AG10999GF105991041031008001061041MA1999999096891MD1999999-0111REMSYN011333   59011
0115829750999991986100900004-09067-044367FM-12+033299999V0203201N00151220001CN9999999N9+03001+99999100711ADDAA106000091AG10999GF100991001001999999001001KA1240M+03651MA1999999096941MD1999999-0021REMSYN017333   10365 59002
0115829750999991986100912004-09067-044367FM-12+033299999V0200501N00261220001CN0100001N9+02981+99999101091ADDAA106000091AG10999GF100991001001999999001001KA1240N+02041MA1999999097311MD1999999-0141REMSYN017333   20204 59014
0096829750999991986100918004-09067-044367FM-12+033299999V0201801N00151220001CN0100001N9+03561+99999100501ADDAA106000091AG10999GF105991041031008001001061MA1999999096711MD1999999-0181REMSYN011333   59018
0134829750999991986101012004-09067-044367FM-12+033299999V0201801N00151007501CN0200001N9+02361+99999101111ADDAA106000091AG10999GF108991999071008001081061KA1240N+02231MA1999999097281MD1999999-0031REMSYN017333   20223 59003EQDQ01+000082SCOTLC
0096829750999991986101118004-09067-044367FM-12+033299999V0203601N00311007501CN0100001N9+03431+99999100511ADDAA106000091AG10999GF105991051041008001071031MA1999999096721MD1999999+0031REMSYN011333   58003
0162829750999991986101312004-09067-044367FM-12+033299999V0201401N00151012001CN0200001N9+02321+99999101231ADDAA124017091AG10999AY161061AY291061GF108991999081008001081081KA1240N+02081MA1999999097361MD1999999+0111MW1071REMSYN023333   20208 58011 60174EQDQ01+000082SCOTLC
0096829750999991986101318004-09067-044367FM-12+033299999V0200501N00151045001CN0200001N9+03191+99999100691ADDAA106000091AG10999GF107991041071008001061051MA1999999096871MD1999999+0141REMSYN011333   58014
0162829750999991986101400004-09067-044367FM-12+033299999V0201801N00101012001CN9999999N9+02481+99999101051ADDAA106003091AG10999AY161061AY221061GF108991999081008001081081KA1240M+03221MA1999999097181MD1999999-0041MW1071REMSYN023333   10322 59004 60031EQDQ01+000082SCOTLC
0115829750999991986101512004-09067-044367FM-12+033299999V0201401N00151012001CN0200001N9+02651+99999101261ADDAA106000091AG10999GF108991071081008001071081KA1240N+02171MA1999999097401MD1999999+0011REMSYN017333   20217 58001
0134829750999991986101600004-09067-044367FM-12+033299999V0201801N00151012001CN9999999N9+02231+99999101381ADDAA106000091AG10999GF108991999081008001081081KA1240M+02951MA1999999097441MD1999999+0241REMSYN017333   10295 58024EQDQ01+000082SCOTLC
0134829750999991986101612004-09067-044367FM-12+033299999V0201401N00151012001CN0200001N9+02411+99999101531ADDAA106000091AG10999GF108991999081008001081081KA1240N+02071MA1999999097631MD1999999+0231REMSYN017333   20207 58023EQDQ01+000082SCOTLC
0096829750999991986101718004-09067-044367FM-12+033299999V0209999999999007501CN0200001N9+03511+99999100781ADDAA106000091AG10999GF105991051031008001031021MA1999999097001MD1999999-0181REMSYN011333   59018
0134829750999991986101800004-09067-044367FM-12+033299999V0209999999999012001CN9999999N9+03031+99999100931ADDAA106000091AG10999GF108991999081008001081081KA1240M+03551MA1999999097151MD1999999-0091REMSYN017333   10355 59009EQDQ01+000082SCOTLC
0115829750999991986101812004-09067-044367FM-12+033299999V0209999999999220001CN0200001N9+02851+99999101211ADDAA106000091AG10999GF100991001001999999001001KA1240N+02441MA1999999097411MD1999999-0111REMSYN017333   20244 59011
0096829750999991986102118004-09067-044367FM-12+033299999V0209999999999045001CN0200001N9+03631+99999100841ADDAA106000091AG10999GF105991041031008001021031MA1999999097061MD1999999+0011REMSYN011333   58001
0115829750999991986102212004-09067-044367FM-12+033299999V0209999999999220001CN0200001N9+02831+99999101441ADDAA106000091AG10999GF100991001001999999001001KA1240N+02041MA1999999097651MD1999999+0101REMSYN017333   20204 58010
0115829750999991986102300004-09067-044367FM-12+033299999V0209999999999220001CN9999999N9+02871+99999101201ADDAA106000091AG10999GF103991031021008001001031KA1240M+03671MA1999999097401MD1999999+0141REMSYN017333   10367 58014
0096829750999991986102318004-09067-044367FM-12+033299999V0209999999999007501CN0100001N9+03411+99999101061ADDAA106000091AG10999GF106991051031008001021041MA1999999097241MD1999999-0061REMSYN011333   59006
0089829750999991986102400004-09067-044367FM-12+033299999V02099999999999999999N9999999N9+02811+99999101541ADDAA106000091AG10999KA1240M+03471MA1999999097441MD1999999+0041REMSYN017333   10347 58004
0137829750999991986102412004-09067-044367FM-12+033299999V02099999999999999999N0200001N9+02421+99999101151ADDAA106000091AG10999GF107991999011008001001001MA1999999097271MD1999999-0251REMSYN017333   20/// 59025EQDQ01+000012SCOTLCQ02+999990APOSLP
0162829750999991986102500004-09067-044367FM-12+033299999V0209999999999012001CN9999999N9+02311+99999101201ADDAA106003091AG10999AY161061AY221061GF108991999081008001081081KA1240M+03511MA1999999097331MD1999999-0111MW1071REMSYN023333   10351 59011 60031EQDQ01+000082SCOTLC
0115829750999991986102600004-09067-044367FM-12+033299999V0209999999999007501CN9999999N9+02611+99999101301ADDAA106000091AG10999GF107991071021008001041051KA1240M+02931MA1999999097421MD1999999-0091REMSYN017333   10293 59009
0115829750999991986102612004-09067-044367FM-12+033299999V0209999999999045001CN0200001N9+02591+99999101501ADDAA106000091AG10999GF105991041031008001021021KA1240N+02141MA1999999097651MD1999999+0141REMSYN017333   20214 58014
0115829750999991986102812004-09067-044367FM-12+033299999V0209999999999007501CN0200001N9+02391+99999101511ADDAA106000091AG10999GF107991061021008001041031KA1240N+02121MA1999999097671MD1999999-0041REMSYN017333   20212 59004
0096829750999991986102818004-09067-044367FM-12+033299999V02099999999999999999N0100001N9+03091+99999101021ADDAA106000091AG10999GF105991041001008001031041MA1999999097181MD1999999-0071REMSYN011333   59007
0115829750999991986102900004-09067-044367FM-12+033299999V0209999999999045001CN9999999N9+02571+99999101211ADDAA106000091AG10999GF105991041021008001051021KA1240M+03091MA1999999097351MD1999999-0041REMSYN017333   10309 59004
0115829750999991986103012004-09067-044367FM-12+033299999V0209999999999220001CN0200001N9+02631+99999101341ADDAA106000091AG10999GF103991031001008001051021KA1240N+02161MA1999999097481MD1999999+0011REMSYN017333   20216 58001
0096829750999991986103018004-09067-044367FM-12+033299999V0209999999999045001CN0200001N9+03371+99999100731ADDAA106000091AG10999GF106991041031008001051041MA1999999096931MD1999999-0021REMSYN011333   59002
0143829750999991986103100004-09067-044367FM-12+033299999V0209999999999007501CN9999999N9+02481+99999101041ADDAA106009091AG10999AY161061AY221061GF107991061031008001051021KA1240M+03321MA1999999097201MD1999999-0051MW1091REMSYN023333   10332 59005 60091
0115829750999991986103112004-09067-044367FM-12+033299999V0209999999999220001CN0200001N9+02711+99999101371ADDAA106000091AG10999GF103991031021008001001031KA1240N+02041MA1999999097521MD1999999+0041REMSYN017333   20204 58004
0096829750999991986103118004-09067-044367FM-12+033299999V0209999999999220001CN0200001N9+03451+99999100871ADDAA106000091AG10999GF100991001001999999001001MA1999999097061MD1999999+0131REMSYN011333   58013
0115829750999991986110412004-09067-044367FM-12+033299999V0209999999999220001CN0100001N9+02751+99999101291ADDAA106000091AG10999GF103991031001008001021011KA1240N+01891MA1999999097471MD1999999+0061REMSYN017333   20189 58006
0096829750999991986110418004-09067-044367FM-12+033299999V0209999999999045001CN0100001N9+03551+99999100751ADDAA106000091AG10999GF105991031041008001011061MA1999999096991MD1999999+0091REMSYN011333   58009
0115829750999991986110900004-09067-044367FM-12+033299999V0209999999999220001CN9999999N9+02711+99999100631ADDAA106000091AG10999GF100991001001999999001001KA1240M+03691MA1999999096841MD1999999-0221REMSYN017333   10369 59022
0143829750999991986110912004-09067-044367FM-12+033299999V0209999999999012001CN0200001N9+02471+99999101101ADDAA124004091AG10999AY161061AY221061GF108991081081008001999999KA1240N+02321MA1999999097261MD1999999-0051MW1071REMSYN023333   20232 59005 60044
0084829750999991986121403004-09100-044117FM-12+033199999V0201201N00151015001CN0500001N9-00981-01691102671ADDAG10999GF106991051051017501041001MA1999999098241MD1710041+9999EQDQ01+999990APOSP 
