0115829860999991986010112004-09400-038217FM-12+0249SBUF V0201401N00311045001CN0100001N9+02601+02061101311ADDAA106000091AG10999GF106991041021004501081001KA1240N+02161MA1999999098471MD1999999-0091REMSYN017333   20216 59009
0096829860999991986010118004-09400-038217FM-12+0249SBUF V0201801N00211045001CN0200001N9+03231+01801100841ADDAA106000091AG10999GF105991021011008001021001MA1999999098021MD1999999-0161REMSYN011333   59016
0115829860999991986010200004-09400-038217FM-12+0249SBUF V0201401N00361220001CN9999999N9+02791+01911101081ADDAA106000091AG10999GF100991001001999999001001KA1240M+03321MA1999999098251MD1999999-0051REMSYN017333   10332 59005
0115829860999991986010212004-09400-038217FM-12+0249SBUF V0200501N00211220001CN0500001N9+02611+02101101191ADDAA106000091AG10999GF102991011001017501041011KA1240N+02231MA1999999098361MD1999999-0111REMSYN017333   20223 59011
0096829860999991986010218004-09400-038217FM-12+0249SBUF V0201401N00211045001CN0500001N9+03301+01841100581ADDAA106000091AG10999GF106991021021008001081071MA1999999097781MD1999999-0241REMSYN011333   59024
0115829860999991986010300004-09400-038217FM-12+0249SBUF V0201401N00361220001CN9999999N9+02861+02011100811ADDAA106000091AG10999GF100991001001999999001001KA1240M+03391MA1999999097991MD1999999-0261REMSYN017333   10339 59026
0115829860999991986010312004-09400-038217FM-12+0249SBUF V0203201N00151045001CN0200001N9+02741+02141101061ADDAA106000091AG10999GF106991031011008001081011KA1240N+02281MA1999999098241MD1999999-0121REMSYN017333   20228 59012
0096829860999991986010318004-09400-038217FM-12+0249SBUF V0200501N00211045001CN0200001N9+03311+01871100491ADDAA106000091AG10999GF106991031021008001081011MA1999999097691MD1999999-0091REMSYN011333   59009
0137829860999991986010400004-09400-038217FM-12+0249SBUF V0201801N00211045001CN9999999N9+02861+02261100771ADDAA106000091AG10999AY121061AY221061GF106991041021008001081001KA1240M+03381MA1999999097961MD1999999-0031MW1151REMSYN017333   10338 59003
0096829860999991986010418004-09400-038217FM-12+0249SBUF V0203201N00211045001CN0200001N9+03311+02091100721ADDAA106000091AG10999GF106991031011008001081011MA1999999097921MD1999999+0231REMSYN011333   58023
0115829860999991986010500004-09400-038217FM-12+0249SBUF V0201401N00261220001CN9999999N9+02451+02091101191ADDAA106000091AG10999GF100991001001999999001001KA1240M+03321MA1999999098351MD1999999+0391REMSYN017333   10332 58039
0137829860999991986010512004-09400-038217FM-12+0249SBUF V0201401N00311012001CN0100001N9+02481+02271101271ADDAA106000091AG10999AY101061AY201061GF108991081081008001999999KA1240N+02501MA1999999098431MD1999999+0241MW1151REMSYN017333   20250 58024
0096829860999991986010518004-09400-038217FM-12+0249SBUF V0201401N00151105001CN0500001N9+03251+01931100831ADDAA106000091AG10999GF105991021011012501061021MA1999999098021MD1999999+0101REMSYN011333   58010
0115829860999991986010600004-09400-038217FM-12+0249SBUF V0201401N00461220001CN9999999N9+02821+02071101011ADDAA106000091AG10999GF100991001001999999001001KA1240M+03321MA1999999098181MD1999999-0171REMSYN017333   10332 59017
0137829860999991986010612004-09400-038217FM-12+0249SBUF V0201401N00101045001CN0100001N9+02681+02201101041ADDAA106000091AG10999AY101061AY201061GF106991031071012501081001KA1240N+02501MA1999999098211MD1999999-0221MW1051REMSYN017333   20250 59022
0149829860999991986010700004-09400-038217FM-12+0249SBUF V0202001N00051045001CN0034001N9+99999+99999999999ADDAA106000091AG10999AY141061AY221061GF107991071001999999051091MA1999999099771MD1710021+9999MW1101EQDQ01+999990APOSP Q02 -02513ATOT  Q03 103273APOSLP
0137829860999991986010712004-09400-038217FM-12+0249SBUF V0201401N00311045001CN0040001N9+02601+02121101141ADDAA106000091AG10999AY101061AY201061GF106991031071012501081001KA1240N+02341MA1999999098311MD1999999+0101MW1051REMSYN017333   20234 58010
0096829860999991986010718004-09400-038217FM-12+0249SBUF V0201401N00361045001CN0500001N9+03311+01681100721ADDAA106000091AG10999GF105991021071008001061001MA1999999097911MD1999999+0201REMSYN011333   58020
0115829860999991986010800004-09400-038217FM-12+0249SBUF V0201401N00511220001CN9999999N9+02721+01461100921ADDAA106000091AG10999GF100991001001999999001001KA1240M+03351MA1999999098091MD1999999+0811REMSYN017333   10335 58081
0137829860999991986010812004-09400-038217FM-12+0249SBUF V0200501N00101220001CN0040001N9+02521+01931101271ADDAA106000091AG10999AY101061AY201061GF103991021011004501061001KA1240N+02121MA1999999098431MD1999999+0121MW1051REMSYN017333   20212 58012
0096829860999991986010818004-09400-038217FM-12+0249SBUF V0203201N00211045001CN0500001N9+03291+01391100851ADDAA106000091AG10999GF105991021011008001061001MA1999999098031MD1999999+0121REMSYN011333   58012
0115829860999991986010900004-09400-038217FM-12+0249SBUF V0201401N00211220001CN9999999N9+02781+01671101021ADDAA106000091AG10999GF100991001001999999001001KA1240M+03361MA1999999098191MD1999999+0101REMSYN017333   10336 58010
0137829860999991986010912004-09400-038217FM-12+0249SBUF V0201401N00211007501CN0500001N9+02541+02151101261ADDAA106000091AG10999AY101061AY201061GF107991051071008001081001KA1240N+02441MA1999999098421MD1999999-0011MW1151REMSYN017333   20244 59001
0118829860999991986010918004-09400-038217FM-12+0249SBUF V0203201N00261045001CN0100001N9+02841+01431101001ADDAA106000091AG10999AY151061AY221061GF106991031011008001081071MA1999999098171MD1999999+0141MW1161REMSYN011333   58014
0137829860999991986011000004-09400-038217FM-12+0249SBUF V0201401N00151009001CN9999999N9+02441+02191101171ADDAA106000091AG10999AY121061AY221061GF108991081081004501999999KA1240M+03021MA1999999098321MD1999999+0131MW1131REMSYN017333   10302 58013
0154829860999991986011012004-09400-038217FM-12+0249SBUF V0201401N00151045001CN0100001N9+99999+99999101461ADDAA124000891AA299001091AG10999AY161061AY251061GF106991041021004501081001KA1240N+02291MA1999999098601MD1999999+0181MW1031REMSYN023333   20229 58018 69984
0113829860999991986011018004-09400-038217FM-12+0249SBUF V0201401N00461045001CN0200001N9+03471+01731100901ADDAA106023091AA299000091AG10999GF106991031021008001081011MA1999999098091MD1999999+0091REMSYN017333   58009 60231
0137829860999991986011100004-09400-038217FM-12+0249SBUF V0201801N00871007501CN9999999N9+02681+02201101221ADDAA106000091AG10999AY121061AY221061GF107991051071008001999999KA1240M+03521MA1999999098381MD1999999+0061MW1131REMSYN017333   10352 58006
0137829860999991986011112004-09400-038217FM-12+0249SBUF V0200901N00361045001CN0100001N9+02721+02101101341ADDAA106000091AG10999AY121061AY221061GF106991031071012501081001KA1240N+02541MA1999999098501MD1999999-0101MW1051REMSYN017333   20254 59010
0096829860999991986011118004-09400-038217FM-12+0249SBUF V0201401N00211045001CN0200001N9+03391+01751101021ADDAA106000091AG10999GF105991021011008001061001MA1999999098251MD1999999+0121REMSYN011333   58012
0115829860999991986011212004-09400-038217FM-12+0249SBUF V0201401N00461045001CN0200001N9+02601+01991101251ADDAA106000091AG10999GF106991031071012501081001KA1240N+02301MA1999999098421MD1999999-0081REMSYN017333   20230 59008
0096829860999991986011218004-09400-038217FM-12+0249SBUF V0202301N00311045001CN0200001N9+03181+02011100941ADDAA106000091AG10999GF106991031021012501081001MA1999999098121MD1999999-0091REMSYN011333   59009
0115829860999991986011300004-09400-038217FM-12+0249SBUF V0201401N00461220001CN9999999N9+02701+01911101081ADDAA106000091AG10999GF100991001001999999001001KA1240M+03221MA1999999098241MD1999999-0051REMSYN017333   10322 59005
0115829860999991986011312004-09400-038217FM-12+0249SBUF V0201401N00311045001CN0200001N9+02581+01971101161ADDAA106000091AG10999GF105991021011008001061001KA1240N+02211MA1999999098321MD1999999-0101REMSYN017333   20221 59010
0096829860999991986011318004-09400-038217FM-12+0249SBUF V0202301N00361045001CN0500001N9+03311+01761100741ADDAA106000091AG10999GF106991031071012501081001MA1999999097921MD1999999-0201REMSYN011333   59020
0156829860999991986011412004-09400-038217FM-12+0249SBUF V0202201N00101012001CN0120001N9-00022-00471101261ADDAA112000491AG10999AY171061AY221061GF107991051051012501031001KA1240M-00011MA1999999098141MD1210031+9999MW1011REMSYN017333   11001 69942EQDQ01+999990APOSP 
0115829860999991986011512004-09400-038217FM-12+0249SBUF V0201401N00261045001CN0200001N9+02651+02051101191ADDAA106000091AG10999GF106991031011008001081011KA1240N+02181MA1999999098361MD1999999+0061REMSYN017333   20218 58006
0115829860999991986011600004-09400-038217FM-12+0249SBUF V0201401N00461220001CN9999999N9+02801+01901100971ADDAA106000091AG10999GF100991001001999999001001KA1240M+03451MA1999999098151MD1999999+0011REMSYN017333   10345 58001
0115829860999991986011612004-09400-038217FM-12+0249SBUF V0201401N00311220001CN0040001N9+02621+01881101141ADDAA106000091AG10999GF105991021011008001061091KA1240N+02321MA1999999098311MD1999999-0051REMSYN017333   20232 59005
0096829860999991986011618004-09400-038217FM-12+0249SBUF V0201401N00361045001CN0500001N9+03311+01261100721ADDAA106000091AG10999GF106991031071012501081001MA1999999097911MD1999999-0041REMSYN011333   59004
0115829860999991986011700004-09400-038217FM-12+0249SBUF V0201401N00311045001CN9999999N9+02801+01841101101ADDAA106000091AG10999GF106991041071004501081001KA1240M+03401MA1999999098271MD1999999+0121REMSYN017333   10340 58012
0115829860999991986011712004-09400-038217FM-12+0249SBUF V0201401N00311105001CN0200001N9+02691+01731101241ADDAA106000091AG10999GF106991021011012501091031KA1240N+02301MA1999999098401MD1999999+0091REMSYN017333   20230 58009
0096829860999991986011718004-09400-038217FM-12+0249SBUF V0201401N00311045001CN0200001N9+02351+01491100741ADDAA106000091AG10999GF106991031021008001081071MA1999999097941MD1999999+0031REMSYN011333   58003
0115829860999991986011800004-09400-038217FM-12+0249SBUF V0201401N00571220001CN9999999N9+02761+01661101001ADDAA106000091AG10999GF100991001001999999001001KA1240M+03381MA1999999098181MD1999999-0091REMSYN017333   10338 59009
0134829860999991986011812004-09400-038217FM-12+0249SBUF V0201401N04732045001CN0200001N9+02681+01991101251ADDAA106000091AG10999GF106991031051012501081001KA1240N+02221MA1999999098421MD1999999+0221REMSYN017333   20222 58022EQDQ01+004733WOSPD 
0096829860999991986011818004-09400-038217FM-12+0249SBUF V0201401N00511045001CN0200001N9+03271+01331100881ADDAA106000091AG10999GF106991031011008001081071MA1999999098061MD1999999+0121REMSYN011333   58012
0115829860999991986011900004-09400-038217FM-12+0249SBUF V0201401N00461220001CN9999999N9+02701+01571101121ADDAA106000091AG10999GF100991001001999999001001KA1240M+03411MA1999999098291MD1999999+0111REMSYN017333   10341 58011
0062829860999991986011912004-09400-038217FM-12+0249SBUF V0201401N00621045001CN0200001N9+02601+01891101261ADDAA106000091AG10999GF106991031071012501081001MA1999999098421
0096829860999991986011918004-09400-038217FM-12+0249SBUF V0201401N00361045001CN0200001N9+03351+01541100881ADDAA106000091AG10999GF107991031011008001081081MA1999999098071MD1999999+0011REMSYN011333   58001
0115829860999991986012012004-09400-038217FM-12+0249SBUF V0201401N00621045001CN0200001N9+02601+02061101141ADDAA106000091AG10999GF106991031071012501081001KA1240N+02431MA1999999098311MD1999999-0111REMSYN017333   20243 59011
0096829860999991986012018004-09400-038217FM-12+0249SBUF V0201401N00361045001CN0500001N9+03491+01611100701ADDAA106000091AG10999GF105991021071012501081001MA1999999097901MD1999999-0171REMSYN011333   59017
0115829860999991986012100004-09400-038217FM-12+0249SBUF V0201401N00671220001CN9999999N9+02781+01701101011ADDAA106000091AG10999GF100991001001999999001001KA1240M+03521MA1999999098191MD1410001+0001REMSYN017333   10352 58000
0115829860999991986012112004-09400-038217FM-12+0249SBUF V0201401N00261045001CN0200001N9+02581+02061101241ADDAA106000091AG10999GF106991031071012501081001KA1240N+02341MA1999999098411MD1999999+0101REMSYN017333   20234 58010
0096829860999991986012118004-09400-038217FM-12+0249SBUF V0201401N00311007501CN0500001N9+03411+01641100821ADDAA106000091AG10999GF107991051071008001081001MA1999999098001MD1999999-0191REMSYN011333   59019
0115829860999991986012212004-09400-038217FM-12+0249SBUF V0201401N00671045001CN0200001N9+02681+01991101251ADDAA106000091AG10999GF106991031071012501081001KA1240N+02341MA1999999098411MD1410001+0001REMSYN017333   20234 58000
0096829860999991986012218004-09400-038217FM-12+0249SBUF V0201401N00821045001CN0500001N9+03351+01631100821ADDAA106000091AG10999GF106991031071012501081001MA1999999098011MD1999999+0011REMSYN011333   58001
0143829860999991986012300004-09400-038217FM-12+0249SBUF V0201401N00211045001CN9999999N9+02541+02041101161ADDAA106010091AG10999AY161061AY221061GF105991021071008001081001KA1240M+03441MA1999999098321MD1999999+0101MW1031REMSYN023333   10344 58010 60101
0132829860999991986012312004-09400-038217FM-12+0249SBUF V0201401N00621045001CN0200001N9+02621+02071101271ADDAA106000091AA224010091AG10999GF106991031021012501081001KA1240N+02311MA1999999098431MD1999999+0021REMSYN023333   20231 58002 60104
0096829860999991986012318004-09400-038217FM-12+0249SBUF V0201801N00361045001CN0200001N9+03321+01521101031ADDAA106000091AG10999GF106991031021008001081001MA1999999098211MD1999999+0201REMSYN011333   58020
0115829860999991986012400004-09400-038217FM-12+0249SBUF V0201401N00511045001CN9999999N9+02721+01711101151ADDAA106000091AG10999GF105991021071008001081001KA1240M+03361MA1999999098311MD1999999-0011REMSYN017333   10336 59001
0115829860999991986012412004-09400-038217FM-12+0249SBUF V0201401N00571045001CN0200001N9+02671+01991101371ADDAA106000091AG10999GF106991031011008001081011KA1240N+02181MA1999999098531MD1999999+0101REMSYN017333   20218 58010
0096829860999991986012418004-09400-038217FM-12+0249SBUF V0201401N00361105001CN0500001N9+03431+01511100871ADDAA106000091AG10999GF105991021011012501061021MA1999999098061MD1999999-0151REMSYN011333   59015
0115829860999991986012500004-09400-038217FM-12+0249SBUF V0201401N00511220001CN9999999N9+02761+01801101011ADDAA106000091AG10999GF104991021011008001061011KA1240M+03461MA1999999098191MD1999999-0121REMSYN017333   10346 59012
0115829860999991986012512004-09400-038217FM-12+0249SBUF V0201401N00511045001CN0200001N9+02781+02041101131ADDAA106000091AG10999GF106991031071012501081001KA1240N+02411MA1999999098301MD1999999-0031REMSYN017333   20241 59003
0096829860999991986012518004-09400-038217FM-12+0249SBUF V0201401N00261045001CN0200001N9+03411+01501100721ADDAA106000091AG10999GF106991021011008001081021MA1999999097921MD1999999-0141REMSYN011333   59014
0115829860999991986012600004-09400-038217FM-12+0249SBUF V0201401N00511045001CN9999999N9+02741+01671101011ADDAA106000091AG10999GF106991031071008001081001KA1240M+03481MA1999999098191MD1410001+0001REMSYN017333   10348 58000
0096829860999991986012618004-09400-038217FM-12+0249SBUF V0201401N00361045001CN0100001N9+03271+01721100791ADDAA106000091AG10999GF107991041021008001081071MA1999999097981MD1999999+0061REMSYN011333   58006
0115829860999991986012700004-09400-038217FM-12+0249SBUF V0201401N00361045001CN9999999N9+02711+02031101051ADDAA106000091AG10999GF106991031021008001081001KA1240M+03291MA1999999098211MD1999999+0021REMSYN017333   10329 58002
0143829860999991986012712004-09400-038217FM-12+0249SBUF V0201401N00311007501CN0200001N9+99999+99999101181ADDAA124000191AG10999AY161061AY221061GF107991051071008001081001KA1240N+02511MA1999999098341MD1999999+0131MW1151REMSYN023333   20251 58013 69914
0096829860999991986012718004-09400-038217FM-12+0249SBUF V0201401N00621045001CN0200001N9+03431+01741100701ADDAA106000091AG10999GF106991031071012501081001MA1999999097911MD1999999-0071REMSYN011333   59007
0115829860999991986012800004-09400-038217FM-12+0249SBUF V0201401N00361045001CN9999999N9+02711+01961101101ADDAA106000091AG10999GF106991041071004501081001KA1240M+03441MA1999999098201MD1999999+0051REMSYN017333   10344 58005
0137829860999991986012812004-09400-038217FM-12+0249SBUF V0201401N00511045001CN0200001N9+02741+02121101221ADDAA106000091AG10999AY121061AY221061GF106991031071008001081001KA1240N+02441MA1999999098391MD1999999+0051MW1151REMSYN017333   20244 58005
0096829860999991986012818004-09400-038217FM-12+0249SBUF V0200501N00311045001CN0200001N9+03361+01691100791ADDAA106000091AG10999GF106991031021008001081081MA1999999097991MD1999999+0081REMSYN011333   58008
0115829860999991986012900004-09400-038217FM-12+0249SBUF V0201401N00361220001CN9999999N9+02741+01571101011ADDAA106000091AG10999GF100991001001999999001001KA1240M+03401MA1999999098191MD1999999-0071REMSYN017333   10340 59007
0115829860999991986012912004-09400-038217FM-12+0249SBUF V0201401N00311045001CN0200001N9+02851+02011101161ADDAA106000091AG10999GF106991031021008001081001KA1240N+02191MA1999999098341MD1999999-0051REMSYN017333   20219 59005
0096829860999991986012918004-09400-038217FM-12+0249SBUF V0201401N00361045001CN0200001N9+03471+01551100671ADDAA106000091AG10999GF106991041021008001081001MA1999999097861MD1999999-0131REMSYN011333   59013
0115829860999991986013000004-09400-038217FM-12+0249SBUF V0201401N00721220001CN9999999N9+02781+01981100981ADDAA106000091AG10999GF100991001001999999001001KA1240M+03541MA1999999098171MD1999999-0021REMSYN017333   10354 59002
0115829860999991986013012004-09400-038217FM-12+0249SBUF V0201401N00311045001CN0100001N9+02661+02001101151ADDAA106000091AG10999GF106991041071008001081011KA1240N+02221MA1999999098321MD1999999-0021REMSYN017333   20222 59002
0096829860999991986013018004-09400-038217FM-12+0249SBUF V0201401N00151045001CN0100001N9+03171+01691100801ADDAA106000091AG10999GF107991041021008001081071MA1999999097981MD1999999+0121REMSYN011333   58012
0115829860999991986013100004-09400-038217FM-12+0249SBUF V0201401N00621220001CN9999999N9+02771+01721100951ADDAA106000091AG10999GF100991001001999999001001KA1240M+03321MA1999999098131MD1999999-0041REMSYN017333   10332 59004
0115829860999991986013112004-09400-038217FM-12+0249SBUF V0201401N00411045001CN0100001N9+02621+01961101131ADDAA106000091AG10999GF107991041071004501081011KA1240N+02201MA1999999098301MD1999999-0021REMSYN017333   20220 59002
0096829860999991986013118004-09400-038217FM-12+0249SBUF V0201401N00311045001CN0200001N9+03271+01511100701ADDAA106000091AG10999GF106991031011008001081011MA1999999097891MD1999999-0091REMSYN011333   59009
0115829860999991986020100004-09400-038217FM-12+0249SBUF V0201401N00871220001CN9999999N9+02741+01761101041ADDAA106000091AG10999GF100991001001999999001001KA1240M+03361MA1999999098211MD1999999+0081REMSYN017333   10336 58008
0115829860999991986020112004-09400-038217FM-12+0249SBUF V0201401N00151045001CN0200001N9+02641+02141101131ADDAA106000091AG10999GF106991031071012501081091KA1240N+02511MA1999999098301MD1410001+0001REMSYN017333   20251 58000
0096829860999991986020118004-09400-038217FM-12+0249SBUF V0200501N00151045001CN0100001N9+03101+01731100871ADDAA106000091AG10999GF107991041071008001081001MA1999999098061MD1410001+0001REMSYN011333   58000
0154829860999991986020200004-09400-038217FM-12+0249SBUF V0201401N00311045001CN9999999N9+02231+02101101311ADDAA106000491AA299000591AG10999AY161061AY251061GF107991041071004501081001KA1240M+03171MA1999999098451MD1999999+0241MW1031REMSYN023333   10317 58024 69941
0143829860999991986020212004-09400-038217FM-12+0249SBUF V0201401N00311045001CN0200001N9+02521+02191101201ADDAA124000591AG10999AY161061AY221061GF106991031071012501081001KA1240N+02341MA1999999098321MD1999999+0021MW1031REMSYN023333   20234 58002 69954
0096829860999991986020218004-09400-038217FM-12+0249SBUF V0201801N00511045001CN0200001N9+03151+01871100811ADDAA106000091AG10999GF106991031021008001081011MA1999999097991MD1999999-0071REMSYN011333   59007
0115829860999991986020300004-09400-038217FM-12+0249SBUF V0201401N00411220001CN9999999N9+02621+01981101101ADDAA106000091AG10999GF100991001001999999001001KA1240M+03201MA1999999098251MD1999999-0201REMSYN017333   10320 59020
0143829860999991986020312004-09400-038217FM-12+0249SBUF V0201401N00211045001CN0100001N9+02601+02121101141ADDAA124000391AG10999AY161061AY251061GF106991031021008001081011KA1240N+02291MA1999999098301MD1999999-0021MW1031REMSYN023333   20229 59002 69934
0096829860999991986020318004-09400-038217FM-12+0249SBUF V0201801N00411045001CN0200001N9+03181+01891100731ADDAA106000091AG10999GF106991031011008001081011MA1999999097911MD1999999-0081REMSYN011333   59008
0115829860999991986020400004-09400-038217FM-12+0249SBUF V0201401N00671220001CN9999999N9+02781+01821101011ADDAA106000091AG10999GF100991001001999999001001KA1240M+03331MA1999999098191MD1999999-0061REMSYN017333   10333 59006
0115829860999991986020412004-09400-038217FM-12+0249SBUF V0201401N00151045001CN0200001N9+02601+01991101281ADDAA106000091AG10999GF106991021011012501091021KA1240N+02281MA1999999098451MD1999999+0151REMSYN017333   20228 58015
0096829860999991986020418004-09400-038217FM-12+0249SBUF V0201401N00211045001CN0200001N9+03291+01661100831ADDAA106000091AG10999GF106991031011012501081021MA1999999098021MD1999999+0111REMSYN011333   58011
0143829860999991986020500004-09400-038217FM-12+0249SBUF V0200901N00151009001CN9999999N9+02521+02271101281ADDAA106009091AG10999AY161061AY251061GF108991081081004501999999KA1240M+03351MA1999999098431MD1999999+0241MW1031REMSYN023333   10335 58024 60091
0096829860999991986020518004-09400-038217FM-12+0249SBUF V0201401N00261045001CN0200001N9+02821+02101100921ADDAA106000091AG10999GF106991031021008001081021MA1999999098091MD1999999+0071REMSYN011333   58007
0115829860999991986020600004-09400-038217FM-12+0249SBUF V0201401N00261220001CN9999999N9+02471+02191101191ADDAA106000091AG10999GF100991001001999999001001KA1240M+03211MA1999999098341MD1999999-0091REMSYN017333   10321 59009
0115829860999991986020612004-09400-038217FM-12+0249SBUF V0201401N00461045001CN0100001N9+02701+02111101341ADDAA106000091AG10999GF106991031021008001081011KA1240N+02281MA1999999098501MD1999999-0091REMSYN017333   20228 59009
0096829860999991986020618004-09400-038217FM-12+0249SBUF V0201801N00311045001CN0200001N9+03211+01821100861ADDAA106000091AG10999GF106991031011012501081071MA1999999098041MD1999999-0051REMSYN011333   59005
0137829860999991986020700004-09400-038217FM-12+0249SBUF V0201401N00511220001CN9999999N9+02761+02091101201ADDAA106000091AG10999AY151061AY221061GF100991001001999999001001KA1240M+03261MA1999999098371MD1999999+0031MW1131REMSYN017333   10326 58003
0115829860999991986020712004-09400-038217FM-12+0249SBUF V0201401N00361045001CN0200001N9+02641+02071101351ADDAA106000091AG10999GF106991031011008001081001KA1240N+02201MA1999999098511MD1999999+0011REMSYN017333   20220 58001
0137829860999991986020800004-09400-038217FM-12+0249SBUF V0200901N00361220001CN9999999N9+02441+02011101281ADDAA106000091AG10999AY151061AY221061GF100991001001999999001001KA1240M+03471MA1999999098431MD1999999+0061MW1031REMSYN017333   10347 58006
0115829860999991986020812004-09400-038217FM-12+0249SBUF V0200901N00151045001CN0100001N9+02641+02121101301ADDAA106000091AG10999GF106991031011008001081001KA1240N+02241MA1999999098451MD1999999-0061REMSYN017333   20224 59006
0096829860999991986020818004-09400-038217FM-12+0249SBUF V0201401N00461045001CN0200001N9+03391+01791100791ADDAA106000091AG10001GF106991031011008001081071MA1999999097981MD1999999-0071REMSYN011333   59007
0115829860999991986020900004-09400-038217FM-12+0249SBUF V0201401N00461220001CN9999999N9+02661+02141101101ADDAA106000091AG10999GF100991001001999999001001KA1240M+03411MA1999999098261MD1999999-0171REMSYN017333   10341 59017
0115829860999991986020912004-09400-038217FM-12+0249SBUF V0201401N00261045001CN0100001N9+02661+02191101261ADDAA106000091AG10999GF107991041071004501081001KA1240N+02341MA1999999098421MD1999999-0031REMSYN017333   20234 59003
0096829860999991986020918004-09400-038217FM-12+0249SBUF V0201401N00311045001CN0200001N9+03281+01831100881ADDAA106000091AG10999GF106991031011008001081071MA1999999098071MD1999999+0091REMSYN011333   58009
0115829860999991986021000004-09400-038217FM-12+0249SBUF V0201401N00511220001CN9999999N9+02731+02001101081ADDAA106000091AG10999GF100991001001999999001001KA1240M+03361MA1999999098251MD1999999-0011REMSYN017333   10336 59001
0115829860999991986021012004-09400-038217FM-12+0249SBUF V0201401N00571045001CN0200001N9+02771+02021101271ADDAA106000091AG10999GF106991031011008001081001KA1240N+02191MA1999999098431MD1999999+0011REMSYN017333   20219 58001
0096829860999991986021018004-09400-038217FM-12+0249SBUF V0201401N00621220001CN0500001N9+03501+01581100761ADDAA106000091AG10999GF103991031001017501041001MA1999999097961MD1999999-0111REMSYN011333   59011
0115829860999991986021100004-09400-038217FM-12+0249SBUF V0201401N00671220001CN9999999N9+02741+01781101161ADDAA106000091AG10999GF100991001001999999001001KA1240M+03511MA1999999098331MD1999999+0081REMSYN017333   10351 58008
0115829860999991986021112004-09400-038217FM-12+0249SBUF V0201401N00311045001CN0100001N9+02621+02051101351ADDAA106000091AG10999GF106991041071004501081011KA1240N+02161MA1999999098511MD1999999+0081REMSYN017333   20216 58008
0096829860999991986021118004-09400-038217FM-12+0249SBUF V0201401N00311045001CN0040001N9+03311+01591100911ADDAA106000091AG10999GF106991031011008001081001MA1999999098091MD1999999+0131REMSYN011333   58013
0115829860999991986021200004-09400-038217FM-12+0249SBUF V0201401N00621220001CN9999999N9+02851+01851101151ADDAA106000091AG10999GF100991001001999999001001KA1240M+03491MA1999999098321MD1999999-0011REMSYN017333   10349 59001
0115829860999991986021212004-09400-038217FM-12+0249SBUF V0201401N00211045001CN0200001N9+02641+01931101341ADDAA106000091AG10999GF106991021011008001091071KA1240N+02221MA1999999098501MD1999999-0011REMSYN017333   20222 59001
0096829860999991986021218004-09400-038217FM-12+0249SBUF V0201401N00211045001CN0500001N9+03501+01531100891ADDAA106000091AG10999GF106991021011012501061021MA1999999098081MD1999999-0011REMSYN011333   59001
0115829860999991986021300004-09400-038217FM-12+0249SBUF V0201401N00511220001CN9999999N9+02851+01911101161ADDAA106000091AG10999GF100991001001999999001001KA1240M+03541MA1999999098331MD1999999+0011REMSYN017333   10354 58001
0096829860999991986021318004-09400-038217FM-12+0249SBUF V0202301N00101045001CN0500001N9+03611+01671100691ADDAA106000091AG10999GF105991021011012501061001MA1999999097901MD1999999-0181REMSYN011333   59018
0143829860999991986021400004-09400-038217FM-12+0249SBUF V0200501N00771009001CN9999999N9+02221+01991101121ADDAA106014091AG10999AY161061AY251061GF108991081081004501999999KA1240M+03651MA1999999098261MD1999999-0071MW1131REMSYN023333   10365 59007 60141
0143829860999991986021412004-09400-038217FM-12+0249SBUF V0203201N00151045001CN0100001N9+02681+02161101171ADDAA124015091AG10999AY161061AY251061GF106991031021008001081011KA1240N+02191MA1999999098311MD1999999-0151MW1031REMSYN023333   20219 59015 60154
0062829860999991986021418004-09400-038217FM-12+0249SBUF V0203201N00211105001CN0200001N9+03291+01821100731ADDAA106000091AG10999GF105991021021008001081011MA1999999097911
0137829860999991986021500004-09400-038217FM-12+0249SBUF V0201401N00261045001CN9999999N9+02981+02011100971ADDAA106000091AG10999AY131061AY251061GF106991031021004501081001KA1240M+03401MA1999999098161MD1999999-0101MW1011REMSYN017333   10340 59010
0115829860999991986021512004-09400-038217FM-12+0249SBUF V0203201N00211045001CN0100001N9+02621+02211101241ADDAA106000091AG10999GF106991041021004501081011KA1240N+02361MA1999999098411MD1999999+0101REMSYN017333   20236 58010
0096829860999991986021518004-09400-038217FM-12+0249SBUF V0203201N00151045001CN0200001N9+03291+01931100751ADDAA106000091AG10999GF106991021011008001061071MA1999999097941MD1999999+0031REMSYN011333   58003
0115829860999991986021600004-09400-038217FM-12+0249SBUF V0201801N00151045001CN9999999N9+02721+02101101041ADDAA106000091AG10999GF106991031021008001081001KA1240M+03311MA1999999098201MD1999999+0041REMSYN017333   10331 58004
0143829860999991986021612004-09400-038217FM-12+0249SBUF V0203201N00151045001CN0100001N9+02631+02271101211ADDAA124006091AG10999AY161061AY251061GF106991031011008001081011KA1240N+02321MA1999999098381MD1999999-0031MW1031REMSYN023333   20232 59003 60064
0096829860999991986021618004-09400-038217FM-12+0249SBUF V0203201N00151220001CN0500001N9+03321+01931100741ADDAA106000091AG10999GF103991021011008001061091MA1999999097931MD1999999-0011REMSYN011333   59001
0137829860999991986021700004-09400-038217FM-12+0249SBUF V0200901N00411045001CN9999999N9+02721+02001100961ADDAA106000091AG10999AY151061AY221061GF106991041021004501081001KA1240M+03401MA1999999098141MD1999999-0061MW1131REMSYN017333   10340 59006
0143829860999991986021712004-09400-038217FM-12+0249SBUF V0203201N00151045001CN0200001N9+02661+02271101151ADDAA124007091AG10999AY161061AY251061GF105991021021008001081001KA1240N+02331MA1999999098321MD1999999-0051MW1031REMSYN023333   20233 59005 60074
0096829860999991986021718004-09400-038217FM-12+0249SBUF V0203201N00151220001CN0500001N9+03291+01861100661ADDAA106000091AG10999GF103991021011008001061091MA1999999097851MD1999999-0081REMSYN011333   59008
0115829860999991986021800004-09400-038217FM-12+0249SBUF V0201401N00461045001CN9999999N9+02961+02101100791ADDAA106000091AG10999GF106991041021008001081001KA1240M+03341MA1999999097901MD1999999-0171REMSYN017333   10334 59017
0115829860999991986021812004-09400-038217FM-12+0249SBUF V0203201N00151045001CN0200001N9+02661+02141100971ADDAA106000091AG10999GF105991031011008001061011KA1240N+02351MA1999999098161MD1999999-0161REMSYN017333   20235 59016
0096829860999991986021818004-09400-038217FM-12+0249SBUF V0203201N00151045001CN0500001N9+03341+02021100561ADDAA106000091AG10999GF105991031021008001081001MA1999999097761MD1999999-0091REMSYN011333   59009
0115829860999991986021900004-09400-038217FM-12+0249SBUF V0201401N00311220001CN9999999N9+02921+02011100781ADDAA106000091AG10999GF100991001001999999001001KA1240M+03431MA1999999097971MD1410001+0001REMSYN017333   10343 58000
0137829860999991986021912004-09400-038217FM-12+0249SBUF V0201401N00151220001CN0100001N9+02661+02091101021ADDAA106000091AG10999AY101061AY201061GF102991021001017501041001KA1240N+02301MA1999999098201MD1999999+0041MW1051REMSYN017333   20230 58004
0096829860999991986021918004-09400-038217FM-12+0249SBUF V0201401N00261045001CN0200001N9+03381+01661100571ADDAA106000091AG10999GF106991031011008001081021MA1999999097781MD1999999+0021REMSYN011333   58002
0115829860999991986022000004-09400-038217FM-12+0249SBUF V0201401N00721220001CN9999999N9+02721+01881100921ADDAA106000091AG10999GF100991001001999999001001KA1240M+03481MA1999999098101MD1999999+0131REMSYN017333   10348 58013
0115829860999991986022012004-09400-038217FM-12+0249SBUF V0201401N00461045001CN0100001N9+02661+01971101151ADDAA106000091AG10999GF106991041021008001081001KA1240N+02221MA1999999098321MD1999999+0121REMSYN017333   20222 58012
0096829860999991986022018004-09400-038217FM-12+0249SBUF V0201401N00261045001CN0200001N9+03371+01411100701ADDAA106000091AG10999GF106991021011012501061021MA1999999097891MD1999999+0111REMSYN011333   58011
0115829860999991986022100004-09400-038217FM-12+0249SBUF V0201401N00411045001CN9999999N9+02711+01991101061ADDAA106000091AG10999GF105991021011008001081001KA1240M+03451MA1999999098231MD1999999+0131REMSYN017333   10345 58013
0115829860999991986022112004-09400-038217FM-12+0249SBUF V0201401N00261045001CN0040001N9+02601+02101101251ADDAA106000091AG10001GF107991041071004501081011KA1240N+02291MA1999999098411MD1999999+0091REMSYN017333   20229 58009
0096829860999991986022118004-09400-038217FM-12+0249SBUF V0201401N00151045001CN0200001N9+03381+01571100781ADDAA106000091AG10001GF106991031011008001081071MA1999999097971MD1999999+0081REMSYN011333   58008
0150829860999991986022200004-09400-038217FM-12+0249SBUF V0201401N005719999999N9999999N9+02821+01511101111ADDAA106000091AG10999GA1091+999999999GF109991001001999999001071KA1240M+03421MA1999999098281MD1999999+0051REMSYN017333   10342 58005EQDQ01+000022SCOTLC
0115829860999991986022212004-09400-038217FM-12+0249SBUF V0201401N00461105001CN0200001N9+02811+01921101261ADDAA106000091AG10999GF105991021011008001061021KA1240N+02371MA1999999098431MD1999999+0021REMSYN017333   20237 58002
0096829860999991986022218004-09400-038217FM-12+0249SBUF V0201401N00361045001CN0500001N9+03411+01401100781ADDAA106000091AG10999GF106991031011008001081021MA1999999097981MD1999999+0011REMSYN011333   58001
0115829860999991986022300004-09400-038217FM-12+0249SBUF V0201401N00721220001CN9999999N9+02741+01671101111ADDAA106000091AG10999GF100991001001999999001001KA1240M+03451MA1999999098291MD1999999+0011REMSYN017333   10345 58001
0137829860999991986022312004-09400-038217FM-12+0249SBUF V0201401N00411045001CN0100001N9+02581+02011101241ADDAA106000091AG10999AY101061AY201061GF106991041071004501081011KA1240N+02241MA1999999098401MD1999999-0031MW1151REMSYN017333   20224 59003
0096829860999991986022318004-09400-038217FM-12+0249SBUF V0201401N00311045001CN0200001N9+03461+02161100671ADDAA106000091AG10999GF106991031011008001081011MA1999999097871MD1999999-0111REMSYN011333   59011
0115829860999991986022400004-09400-038217FM-12+0249SBUF V0201401N00461220001CN9999999N9+02611+01941101171ADDAA106000091AG10999GF100991001001999999001001KA1240M+03501MA1999999098331MD1999999+0041REMSYN017333   10350 58004
0115829860999991986022412004-09400-038217FM-12+0249SBUF V0201401N00311045001CN0100001N9+02641+02071101111ADDAA106000091AG10999GF106991031021008001081011KA1240N+02231MA1999999098271MD1999999-0131REMSYN017333   20223 59013
0096829860999991986022418004-09400-038217FM-12+0249SBUF V0203201N00151045001CN0500001N9+03451+01721100531ADDAA106000091AG10999GF105991031011008001081001MA1999999097741MD1999999-0131REMSYN011333   59013
0115829860999991986022500004-09400-038217FM-12+0249SBUF V0201401N00511220001CN9999999N9+02721+01981100911ADDAA106000091AG10999GF100991001001999999001001KA1240M+03561MA1999999098091MD1999999-0241REMSYN017333   10356 59024
0115829860999991986022512004-09400-038217FM-12+0249SBUF V0201401N00211045001CN0200001N9+02701+01991101041ADDAA106000091AG10999GF106991021011008001091011KA1240N+02281MA1999999098211MD1999999-0061REMSYN017333   20228 59006
0096829860999991986022518004-09400-038217FM-12+0249SBUF V0201801N00511045001CN0200001N9+03171+01961100531ADDAA106000091AG10999GF106991031021008001081011MA1999999097721MD1999999-0021REMSYN011333   59002
0137829860999991986022600004-09400-038217FM-12+0249SBUF V0201401N00461220001CN9999999N9+02821+01941100791ADDAA106000091AG10999AY151061AY221061GF102991021021008001001001KA1240M+03451MA1999999097971MD1999999-0121MW1131REMSYN017333   10345 59012
0115829860999991986022612004-09400-038217FM-12+0249SBUF V0201401N00151045001CN0200001N9+02681+01971101031ADDAA106000091AG10999GF106991031011008001081001KA1240N+02221MA1999999098201MD1999999-0011REMSYN017333   20222 59001
0096829860999991986022618004-09400-038217FM-12+0249SBUF V0200901N00211045001CN0500001N9+03391+01661100541ADDAA106000091AG10999GF105991021011012501081001MA1999999097741MD1999999+0021REMSYN011333   58002
0115829860999991986022700004-09400-038217FM-12+0249SBUF V0201401N00671220001CN9999999N9+02741+01891100881ADDAA106000091AG10999GF100991001001999999001001KA1240M+03481MA1999999098061MD1999999+0091REMSYN017333   10348 58009
0115829860999991986022712004-09400-038217FM-12+0249SBUF V0201401N00311045001CN0200001N9+02781+01821101081ADDAA106000091AG10999GF106991021011008001081011KA1240N+02201MA1999999098251MD1999999+0051REMSYN017333   20220 58005
0096829860999991986022718004-09400-038217FM-12+0249SBUF V0201401N00311220001CN0500001N9+03491+01471100611ADDAA106000091AG10999GF104991021011012501061001MA1999999097811MD1999999+0071REMSYN011333   58007
0115829860999991986022800004-09400-038217FM-12+0249SBUF V0201401N00571220001CN9999999N9+02811+01781100891ADDAA106000091AG10999GF100991001001999999001001KA1240M+03541MA1999999098081MD1999999+0021REMSYN017333   10354 58002
0115829860999991986022812004-09400-038217FM-12+0249SBUF V0201401N00151045001CN0200001N9+02761+02091101041ADDAA106000091AG10999GF106991031021008001081011KA1240N+02311MA1999999098221MD1999999-0031REMSYN017333   20231 59003
0143829860999991986030100004-09400-038217FM-12+0249SBUF V0200901N00151045001CN9999999N9+02451+02231100971ADDAA106009091AG10999AY161061AY251061GF106991041021004501081001KA1240M+03421MA1999999098141MD1999999+0061MW1131REMSYN023333   10342 58006 60091
0132829860999991986030112004-09400-038217FM-12+0249SBUF V0203201N00151045001CN0100001N9+02551+02041101091ADDAA106000091AA224009091AG10999GF106991031011008001081071KA1240N+02301MA1999999098241MD1999999+0021REMSYN023333   20230 58002 60094
0096829860999991986030118004-09400-038217FM-12+0249SBUF V0203201N00261045001CN0200001N9+02921+02141100701ADDAA106000091AG10999GF106991031021008001081021MA1999999097871MD1999999+0081REMSYN011333   58008
0143829860999991986030200004-09400-038217FM-12+0249SBUF V0201401N002619999999N9999999N9+02361+02221101081ADDAA106001091AG10999AY161061AY281061GF108991081999002501999999KA1240M+03051MA1999999098221MD1999999+0081MW1131REMSYN023333   10305 58008 60011
0096829860999991986030218004-09400-038217FM-12+0249SBUF V0200501N00261045001CN0200001N9+03321+01891100551ADDAA106000091AG10999GF106991031021008001081091MA1999999097751MD1999999-0121REMSYN011333   59012
0156829860999991986030300004-09400-038217FM-12+0249SBUF V0200901N001519999999N9999999N9+02451+02211101161ADDAA106000091AG10999AY151061AY221061GF108991999021004501001001KA1240M+03331MA1999999098311MD1999999+0091MW1131REMSYN017333   10333 58009EQDQ01+000042SCOTLC
0115829860999991986030312004-09400-038217FM-12+0249SBUF V0201401N00211045001CN0200001N9+02581+02211101281ADDAA106000091AG10999GF106991031011008001081071KA1240N+02341MA1999999098431MD1999999+0191REMSYN017333   20234 58019
0118829860999991986030318004-09400-038217FM-12+0249SBUF V0202301N00211045001CN0040001N9+02921+02121100901ADDAA106000091AG10999AY151061AY221061GF107991041021004501081071MA1999999098071MD1999999+0321MW1151REMSYN011333   58032
0143829860999991986030400004-09400-038217FM-12+0249SBUF V0203601N00151006001CN9999999N9+02221+02151101381ADDAA106035091AG10001AY161061AY261061GF108991081081002501999999KA1240M+03131MA1999999098511MD1999999+0201MW1911REMSYN023333   10313 58020 60351
0143829860999991986030412004-09400-038217FM-12+0249SBUF V0201401N00151045001CN0020001N9+02591+02331101441ADDAA124042091AG10999AY161061AY251061GF107991041071004501081001KA1240N+02101MA1999999098571MD1999999+0141MW1031REMSYN023333   20210 58014 60424
0118829860999991986030418004-09400-038217FM-12+0249SBUF V0202301N00211045001CN0100001N9+03031+02041100931ADDAA106000091AG10999AY111061AY251061GF106991041071004501081071MA1999999098101MD1999999+0031MW1151REMSYN011333   58003
0084829860999991986030512004-09400-038217FM-12+0249SBUF V0201401N00211045001CN0100001N9+02561+02231101371ADDAA106000091AG10999AY121061AY221061GF106991031071012501081061MA1999999098521MW1101
0143829860999991986030600004-09400-038217FM-12+0249SBUF V0203201N00211009001CN9999999N9+02341+02221101201ADDAA106018091AG10999AY161061AY221061GF108991081081004501999999KA1240M+03221MA1999999098341MD1999999-0131MW1921REMSYN023333   10322 59013 60181
0143829860999991986030612004-09400-038217FM-12+0249SBUF V0201801N00211045001CN0200001N9+02481+02271101301ADDAA124022091AG10999AY161061AY221061GF106991031071008001081001KA1240N+02341MA1999999098431MD1999999-0061MW1101REMSYN023333   20234 59006 60224
0096829860999991986030618004-09400-038217FM-12+0249SBUF V0203201N00211105001CN0500001N9+03121+02141100791ADDAA106000091AG10999GF105991021071004501061011MA1999999097931MD1999999-0071REMSYN011333   59007
0115829860999991986030712004-09400-038217FM-12+0249SBUF V0200501N00101045001CN0040001N9+02631+02251101151ADDAA106000091AG10999GF107991041071004501081021KA1240N+02341MA1999999098321MD1999999-0111REMSYN017333   20234 59011
0096829860999991986030718004-09400-038217FM-12+0249SBUF V0201401N00211220001CN0200001N9+03221+02081100711ADDAA106000091AG10999GF104991021021008001091091MA1999999097901MD1999999-0071REMSYN011333   59007
0137829860999991986030800004-09400-038217FM-12+0249SBUF V0201401N00151220001CN9999999N9+02681+02161100941ADDAA106000091AG10999AY101061AY201061GF100991001001999999001001KA1240M+03261MA1999999098111MD1999999+0101MW1131REMSYN017333   10326 58010
0137829860999991986030812004-09400-038217FM-12+0249SBUF V0201401N00101045001CN0200001N9+02561+02191101151ADDAA106000091AG10999AY101061AY201061GF106991031071012501081001KA1240N+02301MA1999999098311MD1999999-0011MW1101REMSYN017333   20230 59001
0124829860999991986030818004-09400-038217FM-12+0249SBUF V0202301N00151045001CN0040001N9+02821+02331100841ADDAA106000591AG10999AY161061AY251061GF107991041071004501081001MA1999999098001MD1999999+0101MW1151REMSYN017333   58010 69951
0143829860999991986030912004-09400-038217FM-12+0249SBUF V0201401N00311045001CN0200001N9+02541+02111101171ADDAA124000591AG10999AY161061AY201061GF106991031071012501081001KA1240N+02231MA1999999098321MD1999999+0011MW1031REMSYN023333   20223 58001 69954
0096829860999991986030918004-09400-038217FM-12+0249SBUF V0201401N00151045001CN0100001N9+03101+02061100841ADDAA106000091AG10999GF107991031021008001081071MA1999999098011MD1999999+0011REMSYN011333   58001
0115829860999991986031000004-09400-038217FM-12+0249SBUF V0201401N00361220001CN9999999N9+02601+01961101141ADDAA106000091AG10999GF100991001001999999001001KA1240M+03161MA1999999098291MD1999999+0081REMSYN017333   10316 58008
0137829860999991986031012004-09400-038217FM-12+0249SBUF V0201401N00151045001CN0200001N9+02481+02171101181ADDAA106000091AG10999AY101061AY201061GF106991031071008001081001KA1240N+02221MA1999999098331MD1999999+0011MW1101REMSYN017333   20222 58001
0096829860999991986031018004-09400-038217FM-12+0249SBUF V0209999999999220001CN0500001N9+03061+02081100781ADDAA106000091AG10999GF105991021071012501061091MA1999999097951MD1999999-0061REMSYN011333   59006
0115829860999991986031100004-09400-038217FM-12+0249SBUF V0201401N00361220001CN9999999N9+02661+02071101141ADDAA106000091AG10999GF100991001001999999001001KA1240M+03201MA1999999098291MD1410001+0001REMSYN017333   10320 58000
0115829860999991986031112004-09400-038217FM-12+0249SBUF V0201401N00311045001CN0200001N9+02561+02151101161ADDAA106000091AG10999GF106991031071012501081001KA1240N+02301MA1999999098321MD1999999-0011REMSYN017333   20230 59001
0096829860999991986031118004-09400-038217FM-12+0249SBUF V0201401N00151045001CN0500001N9+03211+01821100751ADDAA106000091AG10999GF106991031071012501081001MA1999999097961MD1999999-0031REMSYN011333   59003
0115829860999991986031200004-09400-038217FM-12+0249SBUF V0201401N00361220001CN9999999N9+02681+01991101131ADDAA106000091AG10999GF100991001001999999001001KA1240M+03301MA1999999098291MD1410001+0001REMSYN017333   10330 58000
0143829860999991986031212004-09400-038217FM-12+0249SBUF V0201401N00361045001CN0200001N9+02561+02311101161ADDAA124002091AG10999AY161061AY201061GF106991031071012501081001KA1240N+02311MA1999999098321MD1999999+0001MW1151REMSYN023333   20231 58000 60024
0124829860999991986031218004-09400-038217FM-12+0249SBUF V0201401N00721045001CN0500001N9+02921+02201100921ADDAA106001091AG10999AY161061AY221061GF106991031071008001081001MA1999999098081MD1999999+0051MW1151REMSYN017333   58005 60011
0115829860999991986031300004-09400-038217FM-12+0249SBUF V0201401N00261220001CN9999999N9+02501+01961101101ADDAA106000091AG10999GF100991001001999999001001KA1240M+03011MA1999999098251MD1999999-0041REMSYN017333   10301 59004
0143829860999991986031312004-09400-038217FM-12+0249SBUF V0201401N00261045001CN0020001N9+02511+02211101141ADDAA124002091AG10999AY161061AY251061GF107991041071004501081001KA1240N+02261MA1999999098291MD1999999-0031MW1031REMSYN023333   20226 59003 60024
0096829860999991986031318004-09400-038217FM-12+0249SBUF V0201401N00361045001CN0040001N9+02481+02171100931ADDAA106000091AG10999GF107991041071004501081001MA1999999098071MD1999999-0011REMSYN011333   59001
0143829860999991986031400004-09400-038217FM-12+0249SBUF V0200901N00211009001CN9999999N9+02261+02181101321ADDAA106000191AG10999AY161061AY251061GF108991081081004501999999KA1240M+03041MA1999999098451MD1999999+0201MW1031REMSYN023333   10304 58020 69911
0154829860999991986031412004-09400-038217FM-12+0249SBUF V0201401N00151045001CN0100001N9+02581+02251101261ADDAA124000791AA299001091AG10999AY161061AY251061GF106991031021004501081021KA1240N+02221MA1999999098391MD1999999+0101MW1031REMSYN023333   20222 58010 69974
0124829860999991986031418004-09400-038217FM-12+0249SBUF V0201401N00151045001CN0100001N9+02961+02181100751ADDAA106000191AG10999AY161061AY251061GF106991031021004501081011MA1999999097921MD1999999-0151MW1151REMSYN017333   59015 69911
0143829860999991986031500004-09400-038217FM-12+0249SBUF V0201401N00211006001CN9999999N9+02261+02211101251ADDAA106039091AG10999AY161061AY261061GF108991081081002501999999KA1240M+03101MA1999999098381MD1999999+0031MW1911REMSYN023333   10310 58003 60391
0143829860999991986031512004-09400-038217FM-12+0249SBUF V0201801N00211007501CN0200001N9+02401+02231101221ADDAA124047091AG10999AY161061AY221061GF107991051071008001081001KA1240N+02211MA1999999098341MD1999999-0051MW1151REMSYN023333   20221 59005 60474
0096829860999991986031518004-09400-038217FM-12+0249SBUF V0201401N00261045001CN0200001N9+03101+02121100781ADDAA106000091AG10001GF106991031021008001081021MA1999999097951MD1999999+0031REMSYN011333   58003
0115829860999991986031600004-09400-038217FM-12+0249SBUF V0201401N00361220001CN9999999N9+02521+02211101011ADDAA106000091AG10999GF100991001001999999001001KA1240M+03141MA1999999098161MD1999999-0221REMSYN017333   10314 59022
0137829860999991986031612004-09400-038217FM-12+0249SBUF V0201401N00051007501CN0200001N9+02521+02251101181ADDAA106000091AG10999AY101061AY201061GF107991051071008001081001KA1240N+02331MA1999999098331MD1999999-0011MW1151REMSYN017333   20233 59001
0096829860999991986031618004-09400-038217FM-12+0249SBUF V0200501N00151045001CN0200001N9+03161+02231100751ADDAA106000091AG10999GF105991031011008001061001MA1999999097931MD1999999-0021REMSYN011333   59002
0115829860999991986031700004-09400-038217FM-12+0249SBUF V0201401N00311045001CN9999999N9+02681+02241100931ADDAA106000091AG10999GF106991031071008001081001KA1240M+03221MA1999999098101MD1999999-0061REMSYN017333   10322 59006
0115829860999991986031712004-09400-038217FM-12+0249SBUF V0201401N00151045001CN0200001N9+02621+02211101151ADDAA106000091AG10999GF106991031071012501081001KA1240N+02341MA1999999098311MD1999999-0121REMSYN017333   20234 59012
0137829860999991986031800004-09400-038217FM-12+0249SBUF V0201401N00361045001CN9999999N9+02701+02131101041ADDAA106000091AG10999AY121061AY221061GF106991031071004501081001KA1240M+03221MA1999999098201MD1999999+0101MW1131REMSYN017333   10322 58010
0115829860999991986031812004-09400-038217FM-12+0249SBUF V0201401N00361045001CN0200001N9+02621+02211101251ADDAA106000091AG10999GF106991031071008001081001KA1240N+02241MA1999999098411MD1999999+0101REMSYN017333   20224 58010
0096829860999991986031818004-09400-038217FM-12+0249SBUF V0209999999999045001CN0500001N9+03001+02171100981ADDAA106000091AG10999GF106991031071012501081091MA1999999098151MD1999999+0211REMSYN011333   58021
0115829860999991986031900004-09400-038217FM-12+0249SBUF V0201401N00211220001CN9999999N9+02601+01961101151ADDAA106000091AG10999GF100991001001999999001001KA1240M+03101MA1999999098321MD1999999+0111REMSYN017333   10310 58011
0115829860999991986031912004-09400-038217FM-12+0249SBUF V0201401N00311045001CN0200001N9+02561+02191101251ADDAA106000091AG10999GF106991031071012501081001KA1240N+02221MA1999999098411MD1999999+0001REMSYN017333   20222 58000
0115829860999991986032000004-09400-038217FM-12+0249SBUF V0201401N00151045001CN9999999N9+02641+02101101131ADDAA106000091AG10999GF106991031071008001081001KA1240M+03201MA1999999098291MD1999999-0021REMSYN017333   10320 59002
0137829860999991986032012004-09400-038217FM-12+0249SBUF V0201401N00311045001CN0200001N9+02541+02251101151ADDAA106000091AG10999AY121061AY221061GF106991031071012501081001KA1240N+02321MA1999999098311MD1999999-0101MW1101REMSYN017333   20232 59010
0096829860999991986032018004-09400-038217FM-12+0249SBUF V0201401N00151045001CN0500001N9+03121+02081100761ADDAA106000091AG10999GF105991021071012501081001MA1999999097941MD1999999-0091REMSYN011333   59009
0115829860999991986032100004-09400-038217FM-12+0249SBUF V0201401N00151220001CN9999999N9+02681+02091100931ADDAA106000091AG10999GF100991001001999999001001KA1240M+03241MA1999999098101MD1999999-0191REMSYN017333   10324 59019
0115829860999991986032112004-09400-038217FM-12+0249SBUF V0201401N00151045001CN0100001N9+02581+02191101171ADDAA106000091AG10999GF106991031021008001081001KA1240N+02181MA1999999098331MD1999999+0021REMSYN017333   20218 58002
0096829860999991986032118004-09400-038217FM-12+0249SBUF V0200501N00151045001CN0200001N9+03251+02031100651ADDAA106000091AG10999GF106991031021008001081001MA1999999097831MD1999999-0111REMSYN011333   59011
0115829860999991986032200004-09400-038217FM-12+0249SBUF V0201401N00311045001CN9999999N9+02721+02221100921ADDAA106000091AG10999GF106991031071008001081001KA1240M+03281MA1999999098091MD1999999-0011REMSYN017333   10328 59001
0137829860999991986032212004-09400-038217FM-12+0249SBUF V0201401N00311045001CN0200001N9+02581+02251101051ADDAA106000091AG10999AY121061AY221061GF106991031071012501081001KA1240N+02311MA1999999098211MD1999999-0121MW1101REMSYN017333   20231 59012
0096829860999991986032218004-09400-038217FM-12+0249SBUF V0201401N00151045001CN0200001N9+03221+01951100681ADDAA106000091AG10999GF106991031011008001081001MA1999999097861MD1999999+0031REMSYN011333   58003
0115829860999991986032300004-09400-038217FM-12+0249SBUF V0201401N00571045001CN9999999N9+02701+02171101021ADDAA106000091AG10999GF106991031071008001081001KA1240M+03241MA1999999098191MD1999999+0101REMSYN017333   10324 58010
0143829860999991986032312004-09400-038217FM-12+0249SBUF V0201401N00151009001CN0005001N9+02381+02291101191ADDAA124002091AG10999AY161061AY221061GF108991081081004501999999KA1240N+02411MA1999999098341MD1999999+0131MW1111REMSYN023333   20241 58013 60024
0124829860999991986032318004-09400-038217FM-12+0249SBUF V0201401N00261045001CN0040001N9+02631+02311100941ADDAA106006091AG10999AY161061AY251061GF107991041071004501081021MA1999999098141MD1999999+0241MW1031REMSYN017333   58024 60061
0115829860999991986032400004-09400-038217FM-12+0249SBUF V0201401N00461105001CN9999999N9+02531+02171101171ADDAA106000091AG10999GF105991021011008001061041KA1240M+02971MA1999999098311MD1999999+0121REMSYN017333   10297 58012
0143829860999991986032412004-09400-038217FM-12+0249SBUF V0201401N00461045001CN0200001N9+02461+02251101291ADDAA124007091AG10999AY161061AY221061GF106991031071012501081001KA1240N+02321MA1999999098441MD1999999+0101MW1151REMSYN023333   20232 58010 60074
0124829860999991986032418004-09400-038217FM-12+0249SBUF V0201401N00151007501CN0500001N9+02721+02241100841ADDAA106006091AG10999AY161061AY221061GF107991051071008001081001MA1999999098001MD1999999-0101MW1151REMSYN017333   59010 60061
0115829860999991986032500004-09400-038217FM-12+0249SBUF V0201401N00101045001CN9999999N9+02481+02091101161ADDAA106000091AG10999GF106991031011008001081021KA1240M+02931MA1999999098301MD1999999-0011REMSYN017333   10293 59001
0143829860999991986032512004-09400-038217FM-12+0249SBUF V0201401N00261045001CN0200001N9+02441+02091101301ADDAA124006091AG10999AY161061AY221061GF106991031071012501081001KA1240N+02211MA1999999098441MD1999999+0001MW1101REMSYN023333   20221 58000 60064
0096829860999991986032518004-09400-038217FM-12+0249SBUF V0201401N00151220001CN0500001N9+03061+02081100771ADDAA106000091AG10001GF105991021071008001061091MA1999999097941MD1999999-0061REMSYN011333   59006
0115829860999991986032600004-09400-038217FM-12+0249SBUF V0201401N005119999999N9999999N9+02581+02081101111ADDAA106000091AG10999GF107991031001008001091071KA1240M+03151MA1999999098261MD1999999-0041REMSYN017333   10315 59004
0096829860999991986032618004-09400-038217FM-12+0249SBUF V0201401N00261045001CN0200001N9+03071+01831100801ADDAA106000091AG10999GF106991031011008001081001MA1999999097971MD1999999+0031REMSYN011333   58003
0115829860999991986032700004-09400-038217FM-12+0249SBUF V0201401N00151220001CN9999999N9+02581+01941101131ADDAA106000091AG10999GF100991001001999999001001KA1240M+03201MA1999999098281MD1999999+0021REMSYN017333   10320 58002
0115829860999991986032712004-09400-038217FM-12+0249SBUF V0201401N00311045001CN0040001N9+02541+02151101251ADDAA106000091AG10999GF106991041071004501081001KA1240N+02131MA1999999098401MD1999999-0021REMSYN017333   20213 59002
0096829860999991986032718004-09400-038217FM-12+0249SBUF V0201401N00261045001CN0040001N9+03101+01971100841ADDAA106000091AG10999GF107991041071004501081001MA1999999098011MD1999999+0041REMSYN011333   58004
0115829860999991986032800004-09400-038217FM-12+0249SBUF V0201401N00361220001CN9999999N9+02601+02191101171ADDAA106000091AG10999GF100991001001999999001001KA1240M+03181MA1999999098321MD1999999+0041REMSYN017333   10318 58004
0137829860999991986032812004-09400-038217FM-12+0249SBUF V0201401N00261045001CN0040001N9+02601+02231101331ADDAA106000091AG10999AY101061AY221061GF107991041071004501081001KA1240N+02281MA1999999098491MD1999999+0091MW1151REMSYN017333   20228 58009
0118829860999991986032818004-09400-038217FM-12+0249SBUF V0200501N00151045001CN0100001N9+02971+02181100911ADDAA106000091AG10999AY121061AY221061GF106991041021008001081041MA1999999098081MD1999999+0071MW1151REMSYN011333   58007
0115829860999991986032900004-09400-038217FM-12+0249SBUF V0201401N00411220001CN9999999N9+02721+02121101221ADDAA106000091AG10999GF100991001001999999001001KA1240M+03151MA1999999098381MD1999999+0061REMSYN017333   10315 58006
0143829860999991986032912004-09400-038217FM-12+0249SBUF V0201401N00211045001CN0200001N9+02541+02401101261ADDAA124003091AG10001AY161061AY201061GF106991031071012501081001KA1240N+02421MA1999999098421MD1999999-0071MW1151REMSYN023333   20242 59007 60034
0135829860999991986032918004-09400-038217FM-12+0249SBUF V0201401N00211045001CN0040001N9+02671+02481100971ADDAA106000791AA299001091AG10999AY161061AY251061GF107991041071004501081001MA1999999098121MD1999999+0051MW1151REMSYN017333   58005 69971
0143829860999991986033000004-09400-038217FM-12+0249SBUF V0201401N00151009001CN9999999N9+02311+02251101281ADDAA106002091AG10999AY161061AY251061GF108991081081004501999999KA1240M+03001MA1999999098421MD1999999+0041MW1031REMSYN023333   10300 58004 60021
0143829860999991986033012004-09400-038217FM-12+0249SBUF V0201401N00151045001CN0200001N9+02641+02271101171ADDAA124003091AG10999AY161061AY221061GF106991031071012501081001KA1240N+02411MA1999999098311MD1999999-0111MW1101REMSYN023333   20241 59011 60034
0124829860999991986033018004-09400-038217FM-12+0249SBUF V0201401N00101045001CN0200001N9+03041+02311100771ADDAA106000191AG10999AY161061AY251061GF106991041071004501081001MA1999999097951MD1999999-0181MW1151REMSYN017333   59018 69911
0143829860999991986033112004-09400-038217FM-12+0249SBUF V0201401N00151004201CN0200001N9+02521+02311101191ADDAA124048091AG10999AY161061AY261061GF107991051071004501081001KA1240N+02401MA1999999098361MD1999999+0051MW1151REMSYN023333   20240 58005 60484
0115829860999991986040100004-09400-038217FM-12+0249SBUF V0201401N00151045001CN9999999N9+02421+02321100981ADDAA106000091AG10999GF106991031071008001081001KA1240M+02941MA1999999098131MD1999999-0111REMSYN017333   10294 59011
0143829860999991986040112004-09400-038217FM-12+0249SBUF V0201401N00261004201CN0200001N9+02601+02291101171ADDAA124003091AG10999AY161061AY221061GF107991051071004501081001KA1240N+02411MA1999999098321MD1999999-0041MW1101REMSYN023333   20241 59004 60034
0096829860999991986040118004-09400-038217FM-12+0249SBUF V0201401N00461045001CN0500001N9+02961+02381100691ADDAA106000091AG10999GF106991031071008001081001MA1999999097871MD1999999-0031REMSYN011333   59003
0115829860999991986040200004-09400-038217FM-12+0249SBUF V0201401N00311045001CN9999999N9+02561+02231100991ADDAA106000091AG10999GF106991031071008001081001KA1240M+03061MA1999999098121MD1999999-0011REMSYN017333   10306 59001
0137829860999991986040212004-09400-038217FM-12+0249SBUF V0201401N00461045001CN0200001N9+02581+02271101171ADDAA106000091AG10999AY121061AY221061GF106991031071012501081001KA1240N+02411MA1999999098321MD1999999+0001MW1101REMSYN017333   20241 58000
0096829860999991986040218004-09400-038217FM-12+0249SBUF V0200501N00411045001CN0500001N9+03001+02241100791ADDAA106000091AG10999GF106991031071008001081001MA1999999097971MD1999999+0101REMSYN011333   58010
0115829860999991986040300004-09400-038217FM-12+0249SBUF V0201401N00361220001CN9999999N9+02561+02151101081ADDAA106000091AG10999GF100991001001999999001001KA1240M+03081MA1999999098231MD1999999+0001REMSYN017333   10308 58000
0115829860999991986040312004-09400-038217FM-12+0249SBUF V0201401N00361045001CN0040001N9+02681+02261101281ADDAA106000091AG10999GF106991041021004501081001KA1240N+02321MA1999999098441MD1999999+0131REMSYN017333   20232 58013
0096829860999991986040318004-09400-038217FM-12+0249SBUF V0200901N00211220001CN0200001N9+03091+02011100781ADDAA106000091AG10999GF104991021011012501061001MA1999999097961MD1999999-0011REMSYN011333   59001
0115829860999991986040400004-09400-038217FM-12+0249SBUF V0201401N00411045001CN9999999N9+02641+02071100941ADDAA106000091AG10999GF106991031071008001081001KA1240M+03121MA1999999098111MD1999999-0121REMSYN017333   10312 59012
0115829860999991986040412004-09400-038217FM-12+0249SBUF V0201401N00211045001CN0040001N9+02571+02131101191ADDAA106000091AG10999GF106991041021004501081001KA1240N+02121MA1999999098351MD1999999-0091REMSYN017333   20212 59009
0096829860999991986040418004-09400-038217FM-12+0249SBUF V0200901N00261045001CN0100001N9+02941+01971100721ADDAA106000091AG10999GF107991031021008001081011MA1999999097941MD1999999-0021REMSYN011333   59002
0115829860999991986040500004-09400-038217FM-12+0249SBUF V0201401N00211220001CN9999999N9+02541+02151100961ADDAA106000091AG10999GF100991001001999999001001KA1240M+03061MA1999999098121MD1999999+0011REMSYN017333   10306 58001
0115829860999991986040512004-09400-038217FM-12+0249SBUF V0201401N00621045001CN0200001N9+02581+02171101071ADDAA106000091AG10999GF106991031071012501081001KA1240N+02301MA1999999098221MD1999999-0131REMSYN017333   20230 59013
0096829860999991986040518004-09400-038217FM-12+0249SBUF V0201401N00261045001CN0200001N9+02901+02041100711ADDAA106000091AG10999GF106991031021008001081001MA1999999097881MD1999999-0061REMSYN011333   59006
0115829860999991986040600004-09400-038217FM-12+0249SBUF V0201401N00361220001CN9999999N9+02601+02031100961ADDAA106000091AG10999GF100991001001999999001001KA1240M+03021MA1999999098131MD1999999+0011REMSYN017333   10302 58001
0115829860999991986040612004-09400-038217FM-12+0249SBUF V0201401N00461045001CN0200001N9+02561+02081101171ADDAA106000091AG10999GF106991031071012501081001KA1240N+02211MA1999999098331MD1999999+0111REMSYN017333   20221 58011
0096829860999991986040618004-09400-038217FM-12+0249SBUF V0201401N00211220001CN0200001N9+03081+01781100811ADDAA106000091AG10999GF103991021011012501061001MA1999999097981MD1999999+0101REMSYN011333   58010
0115829860999991986040700004-09400-038217FM-12+0249SBUF V0201401N00461220001CN9999999N9+02651+01981101041ADDAA106000091AG10999GF100991001001999999001001KA1240M+03111MA1999999098201MD1999999+0071REMSYN017333   10311 58007
0115829860999991986040712004-09400-038217FM-12+0249SBUF V0201401N00211045001CN0200001N9+02641+02141101151ADDAA106000091AG10999GF106991031071012501081001KA1240N+02341MA1999999098311MD1999999-0021REMSYN017333   20234 59002
0118829860999991986040718004-09400-038217FM-12+0249SBUF V0201401N00361045001CN0500001N9+03041+02001100751ADDAA106000091AG10999AY121061AY221061GF106991031071012501081001MA1999999097931MD1999999-0051MW1151REMSYN011333   59005
0115829860999991986040800004-09400-038217FM-12+0249SBUF V0201401N00361220001CN9999999N9+02601+02031101191ADDAA106000091AG10999GF100991001001999999001001KA1240M+03121MA1999999098351MD1999999+0151REMSYN017333   10312 58015
0115829860999991986040812004-09400-038217FM-12+0249SBUF V0201401N00311045001CN0200001N9+02591+02151101311ADDAA106000091AG10999GF106991031011008001081011KA1240N+02301MA1999999098471MD1999999+0161REMSYN017333   20230 58016
0096829860999991986040818004-09400-038217FM-12+0249SBUF V0201401N00261220001CN0200001N9+03181+01801100741ADDAA106000091AG10999GF104991021011008001061001MA1999999097931MD1999999+0001REMSYN011333   58000
0143829860999991986040912004-09400-038217FM-12+0249SBUF V0201401N00361045001CN0100001N9+02561+02151101261ADDAA124002091AG10999AY161061AY251061GF106991041071004501081011KA1240N+02251MA1999999098401MD1999999-0071MW1031REMSYN023333   20225 59007 60024
0096829860999991986040918004-09400-038217FM-12+0249SBUF V0201401N00361045001CN0200001N9+03101+01901100741ADDAA106000091AG10999GF106991031011008001081011MA1999999097921MD1999999-0011REMSYN011333   59001
0115829860999991986041000004-09400-038217FM-12+0249SBUF V0201401N00211220001CN9999999N9+02521+01771101081ADDAA106000091AG10999GF100991001001999999001001KA1240M+03161MA1999999098231MD1999999-0081REMSYN017333   10316 59008
0115829860999991986041012004-09400-038217FM-12+0249SBUF V0201401N00151045001CN0100001N9+02481+02091101181ADDAA106000091AG10999GF106991031011008001081001KA1240N+02041MA1999999098331MD1999999-0071REMSYN017333   20204 59007
0096829860999991986041018004-09400-038217FM-12+0249SBUF V0201401N00261045001CN0200001N9+03131+01921100701ADDAA106000091AG10999GF106991031011008001081001MA1999999097871MD1999999-0051REMSYN011333   59005
0115829860999991986041100004-09400-038217FM-12+0249SBUF V0201401N00151220001CN9999999N9+02541+02091101031ADDAA106000091AG10999GF100991001001999999001001KA1240M+03211MA1999999098191MD1999999-0041REMSYN017333   10321 59004
0134829860999991986041112004-09400-038217FM-12+0249SBUF V0201401N002119999999N0040001N9+02561+02231101221ADDAA106000091AG10999GF107991999071004501001001KA1240N+02181MA1999999098371MD1999999+0041REMSYN017333   20218 58004EQDQ01+000042SCOTLC
0096829860999991986041118004-09400-038217FM-12+0249SBUF V0201401N00151220001CN0200001N9+03241+01931100711ADDAA106000091AG10999GF104991021011012501061001MA1999999097891MD1999999+0021REMSYN011333   58002
0115829860999991986041200004-09400-038217FM-12+0249SBUF V0201401N00211220001CN9999999N9+02661+02201101041ADDAA106000091AG10999GF100991001001999999001001KA1240M+03281MA1999999098201MD1999999+0011REMSYN017333   10328 58001
0115829860999991986041212004-09400-038217FM-12+0249SBUF V0203201N00151045001CN0200001N9+02661+02271101141ADDAA106000091AG10999GF106991031071008001081001KA1240N+02341MA1999999098311MD1999999-0061REMSYN017333   20234 59006
0096829860999991986041218004-09400-038217FM-12+0249SBUF V0201401N00261045001CN0500001N9+03271+01841100791ADDAA106000091AG10999GF105991021011012501061001MA1999999097981MD1999999+0091REMSYN011333   58009
0115829860999991986041300004-09400-038217FM-12+0249SBUF V0201401N00461220001CN9999999N9+02761+02211101031ADDAA106000091AG10999GF100991001001999999001001KA1240M+03301MA1999999098201MD1999999+0001REMSYN017333   10330 58000
0137829860999991986041312004-09400-038217FM-12+0249SBUF V0201401N00361045001CN0200001N9+02621+02251101041ADDAA106000091AG10999AY101061AY201061GF106991031071012501081001KA1240N+02331MA1999999098211MD1999999-0101MW1151REMSYN017333   20233 59010
0124829860999991986041318004-09400-038217FM-12+0249SBUF V0200901N00621009001CN0020001N9+02461+02321101031ADDAA106004091AG10999AY161061AY261061GF108991081081004501999999MA1999999098171MD1999999+0191MW1911REMSYN017333   58019 60041
0143829860999991986041412004-09400-038217FM-12+0249SBUF V0201401N00211007501CN0200001N9+02421+02261101131ADDAA124004091AG10999AY161061AY251061GF107991051071008001081001KA1240N+02161MA1999999098261MD1999999+0051MW1151REMSYN023333   20216 58005 60044
0124829860999991986041418004-09400-038217FM-12+0249SBUF V0201401N00511006001CN0005001N9+02461+02411100781ADDAA106003091AG10999AY161061AY221061GF108991081081002501999999MA1999999098911MD1999999-0261MW1921REMSYN017333   59026 60031
0143829860999991986041512004-09400-038217FM-12+0249SBUF V0201401N00361006001CN0200001N9+02501+02291101111ADDAA124007091AG10999AY161061AY221061GF108991081081002501999999KA1240N+02301MA1999999098241MD1999999-0021MW1151REMSYN023333   20230 59002 60074
0118829860999991986041518004-09400-038217FM-12+0249SBUF V0201401N00621045001CN0500001N9+02781+02341100801ADDAA106000091AG10999AY121061AY221061GF106991031071012501081001MA1999999097971MD1999999+0061MW1151REMSYN011333   58006
0137829860999991986041612004-09400-038217FM-12+0249SBUF V0201401N00311045001CN0200001N9+02601+02271101181ADDAA106000091AG10999AY121061AY221061GF106991031071008001081001KA1240N+02281MA1999999098331MD1999999+0091MW1101REMSYN017333   20228 58009
0096829860999991986041618004-09400-038217FM-12+0249SBUF V0200901N00311045001CN0500001N9+03141+02131100761ADDAA106000091AG10999GF106991031071012501081001MA1999999097941MD1999999-0031REMSYN011333   59003
0115829860999991986041700004-09400-038217FM-12+0249SBUF V0201401N00361045001CN9999999N9+02681+02261100941ADDAA106000091AG10999GF105991021071008001081001KA1240M+03161MA1999999098111MD1999999-0131REMSYN017333   10316 59013
0137829860999991986041712004-09400-038217FM-12+0249SBUF V0201401N00211045001CN0200001N9+02561+02231101161ADDAA106000091AG10999AY121061AY221061GF106991031071012501081001KA1240N+02321MA1999999098321MD1999999-0011MW1101REMSYN017333   20232 59001
0096829860999991986041718004-09400-038217FM-12+0249SBUF V0201401N00311220001CN0500001N9+03101+01901100761ADDAA106000091AG10999GF105991021071008001061091MA1999999097941MD1999999+0001REMSYN011333   58000
0115829860999991986041812004-09400-038217FM-12+0249SBUF V0201401N00211004201CN0040001N9+02401+02111101291ADDAA106000091AG10999GF108991051071004501081999KA1240N+02131MA1999999098431MD1999999+0111REMSYN017333   20213 58011
0135829860999991986041818004-09400-038217FM-12+0249SBUF V0200501N00151045001CN0040001N9+02601+02191100901ADDAA106000291AA299000391AG10999AY161061AY251061GF107991041071008001081071MA1999999098041MD1999999+0101MW1031REMSYN017333   58010 69921
0154829860999991986041900004-09400-038217FM-12+0249SBUF V0201801N00211007501CN9999999N9+02381+02281101011ADDAA106000491AA299000591AG10999AY161061AY221061GF107991051071008001081001KA1240M+02621MA1999999098151MD1999999-0061MW1031REMSYN023333   10262 59006 69941
0143829860999991986041912004-09400-038217FM-12+0249SBUF V0201401N00311006001CN0005001N9+02281+02251101251ADDAA124003091AG10999AY161061AY221061GF108991081081002501999999KA1240N+02221MA1999999098371MD1999999-0061MW1621REMSYN023333   20222 59006 60034
0170829860999991986041918004-09400-038217FM-12+0249SBUF V0201401N002619999999N0010001N9+02381+02281100961ADDAA106006091AA299999999AG10999AY161061AY261061GF108991081081999999999999MA1999999098091MD1999999+0051MW1911REMSYN017333   58005 60061EQDQ01+000992SCOLCBQ02  00002PRCP99
0124829860999991986042018004-09400-038217FM-12+0249SBUF V0202301N00051220001CN0500001N9+02921+02241100911ADDAA106003091AG10999AY161061AY251061GF104991021021008001081011MA1999999098081MD1999999-0011MW1031REMSYN017333   59001 60031
0115829860999991986042100004-09400-038217FM-12+0249SBUF V0201401N00261045001CN9999999N9+02541+02231101171ADDAA106000091AG10999GF107991041071004501071001KA1240M+02981MA1999999098321MD1999999+0061REMSYN017333   10298 58006
0143829860999991986042112004-09400-038217FM-12+0249SBUF V0201801N00151006001CN0040001N9+02401+02261101311ADDAA124003091AG10999AY161061AY221061GF108991081081002501999999KA1240N+02341MA1999999098451MD1999999+0001MW1501REMSYN023333   20234 58000 60034
0096829860999991986042118004-09400-038217FM-12+0249SBUF V0203201N00211045001CN0500001N9+03101+02201100871ADDAA106000091AG10999GF105991021071008001061001MA1999999098051MD1999999-0031REMSYN011333   59003
0115829860999991986042200004-09400-038217FM-12+0249SBUF V0201401N00211220001CN9999999N9+02561+02151101151ADDAA106000091AG10999GF100991001001999999001001KA1240M+03151MA1999999098301MD1999999-0021REMSYN017333   10315 59002
0115829860999991986042212004-09400-038217FM-12+0249SBUF V0201401N00211045001CN0200001N9+02621+02231101151ADDAA106000091AG10999GF106991031071008001081001KA1240N+02441MA1999999098311MD1999999-0141REMSYN017333   20244 59014
0124829860999991986042218004-09400-038217FM-12+0249SBUF V0202301N00211004201CN0500001N9+02641+02371100831ADDAA106000591AG10999AY161061AY221061GF107991051071004501081001MA1999999097991MD1999999-0061MW1151REMSYN017333   59006 69951
0115829860999991986042300004-09400-038217FM-12+0249SBUF V0201401N00261220001CN9999999N9+02491+02231101111ADDAA106000091AG10999GF100991001001999999001001KA1240M+03101MA1999999098261MD1999999-0041REMSYN017333   10310 59004
0121829860999991986042312004-09400-038217FM-12+0249SBUF V0201401N00151045001CN0040001N9+02451+02171101181ADDAA124000591AG10999GF106991041071004501081001KA1240N+02171MA1999999098321MD1999999+0011REMSYN023333   20217 58001 69954
0096829860999991986042318004-09400-038217FM-12+0249SBUF V0201401N00211220001CN0500001N9+03091+01881100671ADDAA106000091AG10999GF104991021011008001061011MA1999999097841MD1999999-0151REMSYN011333   59015
0115829860999991986042400004-09400-038217FM-12+0249SBUF V0201401N00361045001CN9999999N9+02581+02101100981ADDAA106000091AG10999GF107991031011008001081071KA1240M+03141MA1999999098141MD1999999-0121REMSYN017333   10314 59012
0115829860999991986042412004-09400-038217FM-12+0249SBUF V0201401N00211045001CN0100001N9+02481+02091101181ADDAA106000091AG10999GF106991021011008001081081KA1240N+02141MA1999999098331MD1999999+0011REMSYN017333   20214 58001
0096829860999991986042418004-09400-038217FM-12+0249SBUF V0200501N00211045001CN0100001N9+02961+01901100791ADDAA106000091AG10999GF106991031021008001081071MA1999999097961MD1999999+0121REMSYN011333   58012
0115829860999991986042512004-09400-038217FM-12+0249SBUF V0201401N00311045001CN0100001N9+02541+02151101311ADDAA106000091AG10999GF106991041021004501081001KA1240N+02201MA1999999098461MD1999999+0131REMSYN017333   20220 58013
0096829860999991986042518004-09400-038217FM-12+0249SBUF V0201401N00261220001CN0200001N9+03121+01921100801ADDAA106000091AG10999GF103991021021008001081001MA1999999097981MD1999999+0021REMSYN011333   58002
0115829860999991986042600004-09400-038217FM-12+0249SBUF V0201401N00411045001CN9999999N9+02611+02061101171ADDAA106000091AG10999GF106991021011008001081071KA1240M+03221MA1999999098321MD1999999+0031REMSYN017333   10322 58003
0137829860999991986042612004-09400-038217FM-12+0249SBUF V0201401N00151045001CN0200001N9+02521+02151101181ADDAA106000091AG10999AY121061AY221061GF106991031071008001081001KA1240N+02201MA1999999098331MD1999999-0131MW1101REMSYN017333   20220 59013
0096829860999991986042618004-09400-038217FM-12+0249SBUF V0201401N002119999999N0200001N9+03151+01941100841ADDAA106000091AG10999GF106991999999008001999999MA1999999098021MD1999999+0041REMSYN011333   58004
0124829860999991986042712004-09400-038217FM-12+0249SBUF V0201401N00211045001CN0200001N9+02521+02151101181ADDAA106000091AG10999AY101061AY201061GF106991031071008001081001MA1999999098351MD1999999+0001MW1101REMSYN017333   2014/ 58000
0096829860999991986042718004-09400-038217FM-12+0249SBUF V0201401N00151045001CN0200001N9+03251+01961100761ADDAA106000091AG10999GF106991031011008001081001MA1999999097951MD1999999-0071REMSYN011333   59007
0115829860999991986042800004-09400-038217FM-12+0249SBUF V0201401N00151220001CN9999999N9+02661+02141100931ADDAA106000091AG10999GF100991001001999999001001KA1240M+03301MA1999999098101MD1999999-0151REMSYN017333   10330 59015
0137829860999991986042812004-09400-038217FM-12+0249SBUF V0202301N00051045001CN0200001N9+02461+02251101161ADDAA106000091AG10999AY101061AY201061GF106991031071012501081001KA1240N+02201MA1999999098321MD1999999-0011MW1101REMSYN017333   20220 59001
0096829860999991986042818004-09400-038217FM-12+0249SBUF V0201401N00151220001CN0500001N9+03331+02041100721ADDAA106000091AG10999GF104991021011008001061091MA1999999097911MD1999999-0041REMSYN011333   59004
0115829860999991986042900004-09400-038217FM-12+0249SBUF V0201401N00671220001CN9999999N9+02781+02301101021ADDAA106000091AG10999GF100991001001999999001001KA1240M+03401MA1999999098191MD1999999+0091REMSYN017333   10340 58009
0115829860999991986042912004-09400-038217FM-12+0249SBUF V0201401N002119999999N0200001N9+02741+02211101221ADDAA106000091AG10999GF106991031001012501031081KA1240N+02321MA1999999098391MD1999999+0071REMSYN017333   20232 58007
0115829860999991986043000004-09400-038217FM-12+0249SBUF V0201401N00671045001CN9999999N9+02201+02141101261ADDAA106000091AG10999GF106991031071008001081001KA1240M+03321MA1999999098301MD1999999+0911REMSYN017333   10332 58091
0143829860999991986043012004-09400-038217FM-12+0249SBUF V0201401N00311009001CN0200001N9+02461+02211101291ADDAA124002091AG10999AY161061AY221061GF108991081081004501999999KA1240N+02281MA1999999098441MD1999999+0051MW1151REMSYN023333   20228 58005 60024
0135829860999991986043018004-09400-038217FM-12+0249SBUF V0201401N00671007501CN0500001N9+02541+02231101081ADDAA106000691AA299000591AG10999AY161061AY221061GF107991051071008001081001MA1999999098211MD1999999+0201MW1501REMSYN017333   58020 69961
0154829860999991986050112004-09400-038217FM-12+0249SBUF V0201401N00211012001CN0200001N9+02441+02151101311ADDAA124000291AA299000391AG10999AY161061AY221061GF108991081081008001999999KA1240N+02201MA1999999098441MD1999999+0001MW1151REMSYN023333   20220 58000 69924
0118829860999991986050118004-09400-038217FM-12+0249SBUF V0201401N00411045001CN0040001N9+02871+02061101051ADDAA106000091AG10999AY151061AY251061GF107991041071004501081001MA1999999098211MD1999999+0001MW1151REMSYN011333   58000
0143829860999991986050200004-09400-038217FM-12+0249SBUF V0201401N00211006001CN0020001N9+02321+02251101551ADDAA124000391AG10999AY161061AY261061GF108991081081002501999999KA1240N+02191MA1999999098661MD1999999+0221MW1911REMSYN023333   20219 58022 69934
0124829860999991986050218004-09400-038217FM-12+0249SBUF V0201401N00151009001CN0020001N9+02401+02281101191ADDAA106002091AG10999AY161061AY251061GF108991081081004501999999MA1999999098311MD1999999+0101MW1151REMSYN017333   58010 60021
0143829860999991986050300004-09400-038217FM-12+0249SBUF V0201401N00151006001CN9999999N9+02221+02171101311ADDAA106016091AG10999AY161061AY221061GF108991081081002501999999KA1240M+02581MA1999999098481MD1999999+0041MW1601REMSYN023333   10258 58004 60161
0143829860999991986050312004-09400-038217FM-12+0249SBUF V0201401N00151012001CN0200001N9+02421+02231101321ADDAA124019091AG10999AY161061AY261061GF108991081081008001999999KA1240N+02201MA1999999098441MD1999999-0221MW1151REMSYN023333   20220 59022 60194
0124829860999991986050400004-09400-038217FM-12+0249SBUF V0201401N00151009001CN0020001N9+02401+02281101191ADDAA106002091AG10999AY161061AY251061GF108991081081004501999999MA1999999098311MD1999999+0101MW1151REMSYN017333   58010 60021
0143829860999991986050412004-09400-038217FM-12+0249SBUF V0201401N00261007501CN0200001N9+02481+02231101211ADDAA124004091AG10999AY161061AY221061GF107991051071008001081001KA1240N+02261MA1999999098341MD1999999-0101MW1151REMSYN023333   20226 59010 60044
0135829860999991986050418004-09400-038217FM-12+0249SBUF V0201401N00311045001CN0200001N9+02871+02161100901ADDAA106000291AA299000391AG10999AY161061AY251061GF106991041021008001081001MA1999999098071MD1999999-0151MW1151REMSYN017333   59015 69921
0143829860999991986050500004-09400-038217FM-12+0249SBUF V0201401N00261220001CN9999999N9+02341+02201101271ADDAA106000191AG10999AY161061AY251061GF100991001001999999001001KA1240M+02961MA1999999098401MD1999999-0051MW1001REMSYN023333   10296 59005 69911
0143829860999991986050512004-09400-038217FM-12+0249SBUF V0201401N00311006001CN0040001N9+02401+02261101241ADDAA124004091AG10999AY161061AY261061GF108991081081002501999999KA1240N+02201MA1999999098461MD1999999+0021MW1911REMSYN023333   20220 58002 60044
0107829860999991986050518004-09400-038217FM-12+0249SBUF V0201401N00211045001CN0500001N9+02941+02211100901ADDAG10999AY161061AY221061GF106991031071012501081001MA1999999098071MD1999999+0001MW1031REMSYN011333   58000
0115829860999991986050600004-09400-038217FM-12+0249SBUF V0201401N00151220001CN9999999N9+02381+02151101271ADDAA106000091AG10999GF100991001001999999001001KA1240M+03001MA1999999098401MD1999999+0001REMSYN017333   10300 58000
0143829860999991986050612004-09400-038217FM-12+0249SBUF V0201401N00361045001CN0200001N9+02461+02301101311ADDAA124002091AG10999AY161061AY201061GF106991031071008001081001KA1240N+02161MA1999999098441MD1999999+0081MW1151REMSYN023333   20216 58008 60024
0096829860999991986050618004-09400-038217FM-12+0249SBUF V0201401N00261105001CN0200001N9+02681+01921100901ADDAA106000091AG10999GF105991021011008001061011MA1999999098071MD1999999+0001REMSYN011333   58000
0143829860999991986050700004-09400-038217FM-12+0249SBUF V0200901N00151045001CN9999999N9+02351+02271101251ADDAA106002091AG10999AY161061AY251061GF106991041081004501071001KA1240M+03001MA1999999098381MD1999999-0021MW1031REMSYN023333   10300 59002 60021
0132829860999991986050712004-09400-038217FM-12+0249SBUF V0200901N00261045001CN0100001N9+02511+02211101331ADDAA106000091AA224002091AG10999GF106991041021004501081001KA1240N+02221MA1999999098471MD1999999+0031REMSYN023333   20222 58003 60024
0118829860999991986050718004-09400-038217FM-12+0249SBUF V0201401N00361045001CN0200001N9+02911+02151100871ADDAA106000091AG10999AY151061AY221061GF106991041071004501081001MA1999999098141MD1999999-0031MW1151REMSYN011333   59003
0143829860999991986050800004-09400-038217FM-12+0249SBUF V0201401N00211045001CN9999999N9+02361+02071101221ADDAA106000391AG10999AY161061AY251061GF106991041071004501081001KA1240M+03021MA1999999098361MD1999999-0021MW1031REMSYN023333   10302 59002 69931
0132829860999991986050812004-09400-038217FM-12+0249SBUF V0200901N00361045001CN0040001N9+02561+02171101281ADDAA106000091AA224000391AG10999GF106991041071008001081001KA1240N+02081MA1999999098421MD1999999-0051REMSYN023333   20208 59005 69934
0124829860999991986050818004-09400-038217FM-12+0249SBUF V0201401N00511045001CN0200001N9+02821+02151100901ADDAA106000391AG10999AY161061AY251061GF106991041021008001081001MA1999999098061MD1999999+0021MW1031REMSYN017333   58002 69931
0115829860999991986050900004-09400-038217FM-12+0249SBUF V0201401N00311220001CN9999999N9+02441+02111101231ADDAA106000091AG10999GF100991001001999999001001KA1240M+02941MA1999999098381MD1999999+0021REMSYN017333   10294 58002
0096829860999991986050918004-09400-038217FM-12+0249SBUF V0201401N00261220001CN0500001N9+03021+01991100851ADDAA106000091AG10999GF102991021001017501041001MA1999999098021MD1999999-0041REMSYN011333   59004
0115829860999991986051000004-09400-038217FM-12+0249SBUF V0201401N00311220001CN9999999N9+02501+02111101251ADDAA106000091AG10999GF100991001001999999001001KA1240M+03051MA1999999098401MD1999999+0021REMSYN017333   10305 58002
0115829860999991986051012004-09400-038217FM-12+0249SBUF V0201401N00511045001CN0200001N9+02541+02111101261ADDAA106000091AG10999GF106991031071012501081001KA1240N+02161MA1999999098411MD1999999-0071REMSYN017333   20216 59007
0096829860999991986051018004-09400-038217FM-12+0249SBUF V0201401N00311220001CN0500001N9+03081+01981100941ADDAA106000091AG10999GF103991021001012501041021MA1999999098111MD1999999+0091REMSYN011333   58009
0115829860999991986051112004-09400-038217FM-12+0249SBUF V0201401N00361045001CN0200001N9+02621+02231101131ADDAA106000091AG10999GF106991031071008001081001KA1240N+02321MA1999999098291MD1999999-0121REMSYN017333   20232 59012
0118829860999991986051118004-09400-038217FM-12+0249SBUF V0201401N00411045001CN0200001N9+02911+02221100881ADDAA106000091AG10999AY151061AY221061GF106991041021008001081081MA1999999098051MD1999999-0061MW1151REMSYN011333   59006
0143829860999991986051212004-09400-038217FM-12+0249SBUF V0201401N00151045001CN0200001N9+02521+02191101111ADDAA124008091AG10999AY161061AY261061GF106991031071008001081001KA1240N+02161MA1999999098231MD1999999-0061MW1101REMSYN023333   20216 59006 60084
0137829860999991986051312004-09400-038217FM-12+0249SBUF V0209999999999007501CN0200001N9+02501+02171101111ADDAA106000091AG10999AY121061AY221061GF107991051071008001081001KA1240N+02221MA1999999098241MD1999999+0011MW1151REMSYN017333   20222 58001
0096829860999991986051318004-09400-038217FM-12+0249SBUF V0201401N00051045001CN0500001N9+02961+02151100771ADDAA106000091AG10999GF105991041071008001061001MA1999999097941MD1999999+0101REMSYN011333   58010
0104829860999991986051400004-09400-038217FM-12+0249SBUF V0200901N00151004201CN9999999N9+02481+02321100981ADDAG10999GF107991051071004501081001KA1240M+03001MA1999999098131MD1999999+0091REMSYN017333   10300 58009
0137829860999991986051412004-09400-038217FM-12+0249SBUF V0201401N00051045001CN0200001N9+02461+02251101291ADDAA106000091AG10999AY121061AY221061GF106991031071012501081001KA1240N+02281MA1999999098421MD1999999+0181MW1101REMSYN017333   20228 58018
0096829860999991986051418004-09400-038217FM-12+0249SBUF V0201401N00461045001CN0500001N9+03101+02181100961ADDAA106000091AG10999GF106991031071012501051001MA1999999098141MD1999999+0201REMSYN011333   58020
0115829860999991986051500004-09400-038217FM-12+0249SBUF V0200901N00151220001CN9999999N9+02521+02231101261ADDAA106000091AG10999GF100991001001999999001001KA1240M+03181MA1999999098321MD1999999+0181REMSYN017333   10318 58018
0137829860999991986051512004-09400-038217FM-12+0249SBUF V0201401N00151012001CN0200001N9+02561+02291101371ADDAA106000091AG10999AY101061AY201061GF107991051071012501081001KA1240N+02321MA1999999098521MD1999999+0101MW1101REMSYN017333   20232 58010
0096829860999991986051518004-09400-038217FM-12+0249SBUF V0201401N00411220001CN0500001N9+03191+01981101121ADDAA106000091AG10999GF102991011001017501041021MA1999999098291MD1999999+0151REMSYN011333   58015
0154829860999991986051612004-09400-038217FM-12+0249SBUF V0201401N00311045001CN0100001N9+02501+02171101471ADDAA124000291AA299000391AG10999AY161061AY251061GF106991041021008001081001KA1240N+02201MA1999999098611MD1999999+0091MW1031REMSYN023333   20220 58009 69924
0096829860999991986051618004-09400-038217FM-12+0249SBUF V0201401N00461220001CN0500001N9+03051+01911100991ADDAA106000091AG10999GF103991021011012501061001MA1999999098171MD1999999-0121REMSYN011333   59012
0143829860999991986051712004-09400-038217FM-12+0249SBUF V0201401N00211045001CN0200001N9+02381+02211101411ADDAA124002091AG10999AY161061AY201061GF106991031071008001081001KA1240N+02201MA1999999098541MD1999999-0071MW1151REMSYN023333   20220 59007 60024
0096829860999991986051718004-09400-038217FM-12+0249SBUF V0201401N00361220001CN0200001N9+03031+01511100961ADDAA106000091AG10999GF101991011001017501041001MA1999999098131MD1999999-0071REMSYN011333   59007
0115829860999991986051800004-09400-038217FM-12+0249SBUF V0201401N00211220001CN9999999N9+99999+99999101221ADDAA106000091AG10999GF100991001001999999001001KA1240M+03041MA1999999098341MD1999999+0001REMSYN017333   10304 58000
0137829860999991986051812004-09400-038217FM-12+0249SBUF V0201401N00151045001CN0200001N9+02501+02031101261ADDAA106000091AG10999AY101061AY251061GF106991031071012501081001KA1240N+02061MA1999999098431MD1999999-0111MW1031REMSYN017333   20206 59011
0096829860999991986051818004-09400-038217FM-12+0249SBUF V0201401N00411220001CN0500001N9+03081+01681101011ADDAA106000091AG10999GF102991011011012501061001MA1999999098181MD1999999+0051REMSYN011333   58005
0115829860999991986051900004-09400-038217FM-12+0249SBUF V0201401N00311220001CN9999999N9+02371+02091101351ADDAA106000091AG10999GF100991001001999999001001KA1240M+03101MA1999999098491MD1999999+0151REMSYN017333   10310 58015
0115829860999991986051912004-09400-038217FM-12+0249SBUF V0201401N00151045001CN0200001N9+02461+02071101301ADDAA106000091AG10999GF106991031071012501081001KA1240N+02121MA1999999098431MD1999999+0001REMSYN017333   20212 58000
0096829860999991986051918004-09400-038217FM-12+0249SBUF V0201401N00361045001CN0500001N9+03121+01691100871ADDAA106000091AG10999GF106991031071012501081001MA1999999098041MD1999999-0141REMSYN011333   59014
0115829860999991986052000004-09400-038217FM-12+0249SBUF V0201401N00461220001CN9999999N9+02451+02151101411ADDAA106000091AG10999GF100991001001999999001001KA1240M+03161MA1999999098541MD1999999+0051REMSYN017333   10316 58005
0115829860999991986052012004-09400-038217FM-12+0249SBUF V0201401N00311045001CN0200001N9+02481+02031101301ADDAA106000091AG10999GF106991031071008001081001KA1240N+02181MA1999999098441MD1999999+0011REMSYN017333   20218 58001
0096829860999991986052018004-09400-038217FM-12+0249SBUF V0201401N00311045001CN0100001N9+02801+01901101061ADDAA106000091AG10999GF106991031011008001081021MA1999999098211MD1999999+0171REMSYN011333   58017
0143829860999991986052112004-09400-038217FM-12+0249SBUF V0200901N00311045001CN0100001N9+02421+02151101421ADDAA124000591AG10999AY161061AY221061GF106991041021008001081001KA1240N+02151MA1999999098551MD1999999+0111MW1031REMSYN023333   20215 58011 69954
0085829860999991986052118004-09400-038217FM-12+0249SBUF V0201401N00511220001CN0500001N9+03041+01681100951ADDAG10999GF104991021011012501061001MA1999999098121MD1999999-0091REMSYN011333   59009
0123829860999991986052200004-09400-038217FM-12+0249SBUF V0200901N00311220001CN9999999N9+02461+02151101271ADDAG10999GF100991001001999999001001KA1240N+99999MA1999999098411MD1999999-0131REMSYN017333   20308 59013EQDQ01 +03082ATMN  
0143829860999991986052212004-09400-038217FM-12+0249SBUF V0201401N00361006001CN0010001N9+02301+02281101411ADDAA124000191AG10999AY161061AY251061GF108991081081002501999999KA1240N+02161MA1999999098541MD1999999-0011MW1151REMSYN023333   20216 59001 69914
0085829860999991986052218004-09400-038217FM-12+0249SBUF V0201401N00511220001CN0200001N9+02821+02171101001ADDAG10999GF104991021011008001061001MA1999999098161MD1999999+0041REMSYN011333   58004
0104829860999991986052312004-09400-038217FM-12+0249SBUF V0201401N00361045001CN0100001N9+02421+01991101481ADDAG10999GF107991041071004501081011KA1240N+02181MA1999999098601MD1999999+0061REMSYN017333   20218 58006
0085829860999991986052318004-09400-038217FM-12+0249SBUF V0201401N00261045001CN0500001N9+02981+01791101011ADDAG10999GF106991021011008001061011MA1999999098181MD1999999+0021REMSYN011333   58002
0143829860999991986052412004-09400-038217FM-12+0249SBUF V0201401N00511045001CN0200001N9+02461+02211101291ADDAA124002091AG10999AY161061AY221061GF106991031071012501081001KA1240N+02201MA1999999098441MD1999999-0161MW1031REMSYN023333   20220 59016 60024
0126829860999991986052512004-09400-038217FM-12+0249SBUF V0201401N00151012001CN0200001N9+02361+01991101431ADDAG10999AY101061AY201061GF107991051071012501081001KA1240N+02021MA1999999098541MD1999999+0101MW1151REMSYN017333   20202 58010
0107829860999991986052518004-09400-038217FM-12+0249SBUF V0201401N00361045001CN0040001N9+02901+01871101061ADDAG10999AY151061AY251061GF106991041071004501081001MA1999999098211MD1999999-0081MW1151REMSYN011333   59008
0143829860999991986052600004-09400-038217FM-12+0249SBUF V0201401N00211045001CN9999999N9+02241+02121101251ADDAA106000191AG10999AY161061AY221061GF106991031071008001081001KA1240M+02941MA1999999098371MD1999999-0141MW1031REMSYN023333   10294 59014 69911
0143829860999991986052612004-09400-038217FM-12+0249SBUF V0201401N00511045001CN0040001N9+02501+02071101411ADDAA124001091AG10999AY161061AY251061GF106991041071004501081011KA1240N+02161MA1999999098531MD1999999-0011MW1031REMSYN023333   20216 59001 60014
0107829860999991986052618004-09400-038217FM-12+0249SBUF V0201401N00461045001CN0040001N9+02601+02061101191ADDAG10999AY151061AY221061GF107991041071004501081001MA1999999098321MD1999999+0111MW1151REMSYN011333   58011
0143829860999991986052712004-09400-038217FM-12+0249SBUF V0201401N00311004201CN0200001N9+02281+02091101341ADDAA124001091AG10999AY161061AY221061GF107991051071004501081001KA1240N+02061MA1999999098471MD1999999-0061MW1151REMSYN023333   20206 59006 60014
0107829860999991986052718004-09400-038217FM-12+0249SBUF V0201401N00511045001CN0500001N9+02781+02041101041ADDAG10999AY121061AY221061GF106991031071008001061011MA1999999098191MD1999999-0131MW1151REMSYN011333   59013
0143829860999991986052800004-09400-038217FM-12+0249SBUF V0201401N00211006001CN9999999N9+02121+02051101271ADDAA106002091AG10999AY161061AY221061GF108991081081002501999999KA1240M+02821MA1999999098381MD1999999-0101MW1501REMSYN023333   10282 59010 60021
0143829860999991986052812004-09400-038217FM-12+0249SBUF V0201401N00361045001CN0200001N9+02301+02111101331ADDAA124003091AG10999AY161061AY221061GF106991031071008001081001KA1240N+01981MA1999999098461MD1999999-0011MW1151REMSYN023333   20198 59001 60034
0085829860999991986052818004-09400-038217FM-12+0249SBUF V0201401N00151045001CN0500001N9+02861+01951101011ADDAG10999GF106991031071004501061001MA1999999098171MD1999999-0021REMSYN011333   59002
0154829860999991986052912004-09400-038217FM-12+0249SBUF V0201401N00211006001CN0020001N9+02221+02151101351ADDAA124000291AA299000391AG10999AY161061AY201061GF108991081081002501999999KA1240N+02121MA1999999098481MD1999999+0021MW1911REMSYN023333   20212 58002 69924
0124829860999991986052918004-09400-038217FM-12+0249SBUF V0201401N00511006001CN0040001N9+02261+02181101161ADDAA106003091AG10999AY161061AY221061GF108991081081002501999999MA1999999098271MD1999999+0101MW1911REMSYN017333   58010 60031
0121829860999991986053012004-09400-038217FM-12+0249SBUF V0201401N00311045001CN0100001N9+02391+01911101471ADDAA124005091AG10999GF105991031021008001081011KA1240N+01951MA1999999098591MD1999999+0111REMSYN023333   20195 58011 60054
0085829860999991986053018004-09400-038217FM-12+0249SBUF V0201401N00261045001CN0200001N9+02771+01801101111ADDAG10001GF106991041021008001071001MA1999999098251MD1999999-0021REMSYN011333   59002
0104829860999991986053112004-09400-038217FM-12+0249SBUF V0201401N00211045001CN0200001N9+02441+02031101401ADDAG10999GF106991031071012501081001KA1240N+02021MA1999999098531MD1999999-0061REMSYN017333   20202 59006
0085829860999991986053118004-09400-038217FM-12+0249SBUF V0201401N00211220001CN0500001N9+02961+01741101281ADDAG10999GF103991021011012501091011MA1999999098231MD1999999-0021REMSYN011333   59002
0104829860999991986060100004-09400-038217FM-12+0249SBUF V0201401N00051220001CN9999999N9+02321+02001101221ADDAG10999GF100991001001999999001001KA1240M+03041MA1999999098341MD1999999+0001REMSYN017333   10304 58000
0126829860999991986060112004-09400-038217FM-12+0249SBUF V0201401N00311045001CN0200001N9+02481+02051101301ADDAG10999AY101061AY201061GF106991031071004501081001KA1240N+02121MA1999999098431MD1999999-0101MW1151REMSYN017333   20212 59010
0085829860999991986060118004-09400-038217FM-12+0249SBUF V0201401N00311045001CN0500001N9+03031+01801100971ADDAG10999GF105991031011012501081091MA1999999098141MD1999999-0091REMSYN011333   59009
0126829860999991986060212004-09400-038217FM-12+0249SBUF V0200901N00051006001CN0040001N9+02421+02251101421ADDAG10999AY101061AY201061GF108991081081002501999999KA1240N+02261MA1999999098551MD1999999+0121MW1911REMSYN017333   20226 58012
0124829860999991986060218004-09400-038217FM-12+0249SBUF V0201401N00621045001CN0500001N9+02901+02171101111ADDAA106000191AG10999AY161061AY221061GF105991041071004501061011MA1999999098271MD1999999+0131MW1151REMSYN017333   58013 69911
0071829860999991986060221004-09400-038217FM-12+0249SBUF V0203301N00151012001CN0500001N9+00652+00492101421ADDAG10999GF106991061051012501001001EQDQ01+027973ATOT  Q02+027813ATOD  
0143829860999991986060312004-09400-038217FM-12+0249SBUF V0201401N00311009001CN0200001N9+02381+02071101551ADDAA124000191AG10999AY161061AY201061GF108991081081004501999999KA1240N+02181MA1999999098661MD1999999+0111MW1151REMSYN023333   20218 58011 69914
0107829860999991986060318004-09400-038217FM-12+0249SBUF V0201401N00311007501CN0500001N9+02661+02091101161ADDAG10999AY121061AY221061GF107991051071008001081001MA1999999098301MD1999999+0031MW1151REMSYN011333   58003
0126829860999991986060412004-09400-038217FM-12+0249SBUF V0201401N00311009001CN0040001N9+02281+02051101671ADDAG10999AY121061AY221061GF108991081081004501999999KA1240N+02121MA1999999098781MD1999999+0121MW1911REMSYN017333   20212 58012
0124829860999991986060418004-09400-038217FM-12+0249SBUF V0201401N00261009001CN0100001N9+02381+02071101341ADDAA106001091AG10999AY161061AY221061GF108991081081004501999999MA1999999098461MD1999999+0161MW1151REMSYN017333   58016 60011
0143829860999991986060512004-09400-038217FM-12+0249SBUF V0201401N00621045001CN0200001N9+02401+01891101531ADDAA124001091AG10999AY161061AY221061GF106991031071012501081001KA1240N+02081MA1999999098641MD1999999-0141MW1031REMSYN023333   20208 59014 60014
0096829860999991986060618004-09400-038217FM-12+0249SBUF V0201401N00311045001CN0500001N9+02821+01581101261ADDAA106000091AG10999GF106991031071012501081001MA1999999098391MD1999999+0001REMSYN011333   58000
0137829860999991986060712004-09400-038217FM-12+0249SBUF V0201401N00261045001CN0200001N9+02301+01871101541ADDAA106000091AG10999AY101061AY201061GF106991031071012501081001KA1240N+01981MA1999999098651MD1999999-0011MW1151REMSYN017333   20198 59001
0096829860999991986060718004-09400-038217FM-12+0249SBUF V0200901N00571045001CN0500001N9+02761+01891101261ADDAA106000091AG10999GF106991031071008001081001MA1999999098391MD1999999+0001REMSYN011333   58000
0115829860999991986060800004-09400-038217FM-12+0249SBUF V0201401N00311220001CN9999999N9+02121+01841101421ADDAA106000091AG10999GF100991001001999999001001KA1240M+02861MA1999999098571MD1999999+0011REMSYN017333   10286 58001
0115829860999991986060812004-09400-038217FM-12+0249SBUF V0201401N00361045001CN0200001N9+02361+01891101541ADDAA106000091AG10999GF106991031071008001081001KA1240N+01781MA1999999098641MD1999999-0011REMSYN017333   20178 59001
0096829860999991986060818004-09400-038217FM-12+0249SBUF V0201401N00411045001CN0500001N9+02941+01761101251ADDAA106000091AG10001GF106991031071012501081001MA1999999098381MD1999999-0011REMSYN011333   59001
0115829860999991986060900004-09400-038217FM-12+0249SBUF V0201401N00311220001CN9999999N9+02221+01691101441ADDAA106000091AG10001GF100991001001999999001001KA1240M+02961MA1999999098561MD1999999-0011REMSYN017333   10296 59001
0115829860999991986060912004-09400-038217FM-12+0249SBUF V0201401N00571045001CN0200001N9+02361+01911101531ADDAA106000091AG10999GF106991031071004501061001KA1240N+01781MA1999999098641MD1999999+0001REMSYN017333   20178 58000
0118829860999991986060918004-09400-038217FM-12+0249SBUF V0201401N00511045001CN0500001N9+02901+01811101251ADDAA106000091AG10999AY121061AY221061GF106991031071012501081001MA1999999098381MD1999999+0001MW1061REMSYN011333   58000
0143829860999991986061012004-09400-038217FM-12+0249SBUF V0201401N00671007501CN0200001N9+02401+01971101551ADDAA124000191AG10999AY161061AY201061GF107991051071008001081001KA1240N+01821MA1999999098661MD1999999+0021MW1151REMSYN023333   20182 58002 69914
0118829860999991986061018004-09400-038217FM-12+0249SBUF V0201401N00821007501CN0500001N9+02821+02001101261ADDAA106000091AG10999AY151061AY221061GF107991051071008001081001MA1999999098391MD1999999+0011MW1151REMSYN011333   58001
0137829860999991986061100004-09400-038217FM-12+0249SBUF V0201401N00311045001CN9999999N9+02181+01041101481ADDAA106000091AG10999AY151061AY221061GF106991031071004501081001KA1240M+02901MA1999999098571MD1999999+0071MW1031REMSYN017333   10290 58007
0137829860999991986061112004-09400-038217FM-12+0249SBUF V0201401N00361007501CN0200001N9+02201+01971101801ADDAA106000091AG10999AY121061AY221061GF107991051071008001081001KA1240N+01841MA1999999098691MD1999999+0031MW1151REMSYN017333   20184 58003
0118829860999991986061118004-09400-038217FM-12+0249SBUF V0201401N00511045001CN0500001N9+02961+01841101131ADDAA106000091AG10999AY121061AY221061GF106991031071012501081001MA1999999098281MD1999999-0111MW1151REMSYN011333   59011
0143829860999991986061212004-09400-038217FM-12+0249SBUF V0201401N00461006001CN0020001N9+02221+02101101481ADDAA124001091AG10999AY161061AY221061GF108991081081002501999999KA1240N+02121MA1999999098591MD1999999-0101MW1911REMSYN023333   20212 59010 60014
0124829860999991986061218004-09400-038217FM-12+0249SBUF V0201401N00361009001CN0040001N9+02321+02241101251ADDAA106003091AG10999AY161061AY251061GF108991081081004501999999MA1999999098361MD1999999+0081MW1151REMSYN017333   58008 60031
0143829860999991986061312004-09400-038217FM-12+0249SBUF V0200901N00311004201CN0200001N9+02241+02101101471ADDAA124010091AG10999AY161061AY261061GF107991051071004501081001KA1240N+02101MA1999999098581MD1999999-0011MW1151REMSYN023333   20210 59001 60104
0118829860999991986061318004-09400-038217FM-12+0249SBUF V0201401N00621045001CN0500001N9+02761+01801101261ADDAA106000091AG10999AY121061AY221061GF105991021071004501061001MA1999999098411MD1999999+0051MW1061REMSYN011333   58005
0115829860999991986061412004-09400-038217FM-12+0249SBUF V0201401N00361045001CN0200001N9+02321+01971101541ADDAA106000091AG10999GF106991031071012501081001KA1240N+01831MA1999999098641MD1999999+0061REMSYN017333   20183 58006
0120829860999991986061418004-09400-038217FM-12+0249SBUF V0201401N006219999999N0500001N9+02741+01641101261ADDAA106000091AG10999AY121061AY221061GA1031+090009079GF106991999999012501999999MA1999999098391MW1061REMSYN011333   83780
0115829860999991986061512004-09400-038217FM-12+0249SBUF V0201401N00461045001CN0200001N9+02321+01891101551ADDAA106000091AG10999GF106991031071008001081001KA1240N+01781MA1999999098651MD1999999+0011REMSYN017333   20178 58001
0096829860999991986061518004-09400-038217FM-12+0249SBUF V0201401N00511045001CN0500001N9+02761+01691101271ADDAA106000091AG10999GF105991031071012501081001MA1999999098391MD1999999+0001REMSYN011333   58000
0096829860999991986061618004-09400-038217FM-12+0249SBUF V0201401N00671045001CN0500001N9+02861+01841101371ADDAA106000091AG10999GF106991031071012501081001MA1999999098491MD1999999+0101REMSYN011333   58010
0137829860999991986061712004-09400-038217FM-12+0249SBUF V0200901N00311045001CN0200001N9+02261+01861101571ADDAA106000091AG10999AY101061AY201061GF106991031071008001081001KA1240N+01661MA1999999098671MD1999999+0011MW1151REMSYN017333   20166 58001
0118829860999991986061718004-09400-038217FM-12+0249SBUF V0201401N00511004201CN0500001N9+02881+01691101181ADDAA106000091AG10999AY121061AY221061GF107991051071004501081001MA1999999098301MD1999999+0101MW1151REMSYN011333   58010
0137829860999991986061812004-09400-038217FM-12+0249SBUF V0200901N00511045001CN0200001N9+02361+02011101541ADDAA106000091AG10999AY121061AY221061GF106991031071008001081001KA1240N+02081MA1999999098651MD1999999-0021MW1101REMSYN017333   20208 59002
0118829860999991986061818004-09400-038217FM-12+0249SBUF V0200901N00311004201CN0500001N9+02621+01981101191ADDAA106000091AG10999AY121061AY221061GF108991081051004501999999MA1999999098321MD1999999+0021MW1151REMSYN011333   58002
0106829860999991986061906004-09400-038217FM-12+0249SBUF V0200201N00151012001CN0200001N9+01781+01221100641ADDAG10999AY181061AY241061GF106991061091012501001031MA1999999097711MD1710111+9999MW1801EQDQ01+999990APOSP 
0178829860999991986061912004-09400-038217FM-12+0249SBUF V0201401N00211009001CN0040001N9+02281+02031101592ADDAA124001091AG10999AY161061AY221061GF108991081081004501999999KA1240N+01961MA1999999098692MD1999999+0041MW1501REMSYN023333   20196 58004 60014EQDQ01+098693APOSP Q02+101593APOSLP
0118829860999991986061918004-09400-038217FM-12+0249SBUF V0200901N00821045001CN0500001N9+02901+01721101231ADDAA106000091AG10999AY121061AY221061GF106991031071012501081001MA1999999098381MD1999999+0061MW1061REMSYN011333   58006
0134829860999991986062000004-09400-038217FM-12+0249SBUF V0200901N002119999999N9999999N9+02261+01961101481ADDAA106000091AG10999GF106991021021999999041001KA1240M+02581MA1999999098561MD1999999-0121REMSYN017333   10258 59012EQDQ01+000992SCOLCB
0137829860999991986062012004-09400-038217FM-12+0249SBUF V0201401N00311045001CN0200001N9+02241+01901101561ADDAA106000091AG10999AY121061AY221061GF106991031071012501081001KA1240N+01861MA1999999098661MD1999999-0031MW1151REMSYN017333   20186 59003
0096829860999991986062018004-09400-038217FM-12+0249SBUF V0201401N00461045001CN0500001N9+02881+01831101241ADDAA106000091AG10999GF106991031071012501081001MA1999999098371MD1999999-0011REMSYN011333   59001
0143829860999991986062112004-09400-038217FM-12+0249SBUF V0201401N00571009001CN0200001N9+02261+02121101571ADDAA124004091AG10001AY161061AY221061GF108991081081004501999999KA1240N+02021MA1999999098681MD1999999+0021MW1151REMSYN023333   20202 58002 60044
0124829860999991986062118004-09400-038217FM-12+0249SBUF V0201801N00211045001CN0500001N9+02721+01931101291ADDAA106000191AG10999AY161061AY221061GF106991031071008001081001MA1999999098421MD1999999+0051MW1151REMSYN017333   58005 69911
0154829860999991986062212004-09400-038217FM-12+0249SBUF V0200901N00511007501CN0100001N9+02281+02051101571ADDAA124000291AA299000391AG10999AY161061AY221061GF107991051071008001081001KA1240N+02021MA1999999098671MD1999999-0011MW1501REMSYN023333   20202 59001 69924
0096829860999991986062218004-09400-038217FM-12+0249SBUF V0200901N00511045001CN0200001N9+02861+01921101351ADDAA106000091AG10999GF105991031021008001081001MA1999999098501MD1999999+0081REMSYN011333   58008
