0115830960999991986010112004-10917-037050FM-12+000699999V0200901N00151220001CN0200001N9+02821+02381101341ADDAA106000091AG10999GF102991021051012501001001KA1240N+02331MA1999999101271MD1999999-0171REMSYN017333   20233 59017
0096830960999991986010118004-10917-037050FM-12+000699999V0200901N00311045001CN0200001N9+02881+02371101031ADDAA106000091AG10999GF105991031021012501041001MA1999999100961MD1999999-0151REMSYN011333   59015
0115830960999991986010200004-10917-037050FM-12+000699999V0200901N00311220001CN9999999N9+02661+02181101201ADDAA106000091AG10999GF101991011011012501001001KA1240M+02981MA1999999101131MD1999999-0141REMSYN017333   10298 59014
0115830960999991986010212004-10917-037050FM-12+000699999V0200901N00361220001CN0200001N9+02541+02221101181ADDAA106000091AG10999GF101991011011012501001001KA1240N+02311MA1999999101111MD1999999-0161REMSYN017333   20231 59016
0096830960999991986010218004-10917-037050FM-12+000699999V0200901N00311045001CN0200001N9+02841+02421100861ADDAA106000091AG10999GF105991031011012501051001MA1999999100791MD1999999-0171REMSYN011333   59017
0115830960999991986010300004-10917-037050FM-12+000699999V0200901N00411220001CN9999999N9+02681+02241100981ADDAA106000091AG10999GF101991011011012501001001KA1240M+02981MA1999999100911MD1999999-0221REMSYN017333   10298 59022
0115830960999991986010312004-10917-037050FM-12+000699999V0200501N00411220001CN0200001N9+02981+02211101051ADDAA106000091AG10999GF101991011011012501001001KA1240N+02431MA1999999100981MD1999999-0131REMSYN017333   20243 59013
0096830960999991986010318004-10917-037050FM-12+000699999V0200901N00311045001CN0200001N9+02841+02461100541ADDAA106000091AG10999GF105991031011012501051001MA1999999100471MD1999999-0321REMSYN011333   59032
0115830960999991986010400004-10917-037050FM-12+000699999V0200501N00461012001CN9999999N9+02721+02391101041ADDAA106000091AG10999GF107991071051012501001001KA1240M+03021MA1999999100971MD1999999+0061REMSYN017333   10302 58006
0115830960999991986010412004-10917-037050FM-12+000699999V0200901N00311012001CN0200001N9+02901+02501101081ADDAA106000091AG10999GF105991051051012501001001KA1240N+02591MA1999999101011MD1999999+0031REMSYN017333   20259 58003
0096830960999991986010418004-10917-037050FM-12+000699999V0200901N00311045001CN0200001N9+02901+02501101051ADDAA106000091AG10999GF105991031021012501041001MA1999999100981MD1999999+0511REMSYN011333   58051
0115830960999991986010500004-10917-037050FM-12+000699999V0200901N00461220001CN9999999N9+02701+02351101261ADDAA106000091AG10999GF104991041051012501001001KA1240M+03041MA1999999101191MD1999999+0221REMSYN017333   10304 58022
0115830960999991986010512004-10917-037050FM-12+000699999V0200501N00411220001CN0200001N9+02881+02251101391ADDAA106000091AG10999GF106991041051012501001011KA1240N+02521MA1999999101321MD1999999+0311REMSYN017333   20252 58031
0096830960999991986010518004-10917-037050FM-12+000699999V0200901N00461220001CN0200001N9+02881+02321101131ADDAA106000091AG10999GF104991011011012501001011MA1999999101061MD1999999+0081REMSYN011333   58008
0115830960999991986010600004-10917-037050FM-12+000699999V0200901N00461012001CN9999999N9+02681+02411101221ADDAA106000091AG10999GF106991061051012501001001KA1240M+03021MA1999999101151MD1999999-0041REMSYN017333   10302 59004
0115830960999991986010612004-10917-037050FM-12+000699999V0200501N00571220001CN0200001N9+02881+02371101171ADDAA106000091AG10999GF101991011011012501001001KA1240N+02501MA1999999101101MD1999999-0221REMSYN017333   20250 59022
0096830960999991986010618004-10917-037050FM-12+000699999V0200901N00511220001CN0200001N9+02821+02361100911ADDAA106000091AG10999GF101991011011012501001001MA1999999100841MD1999999-0221REMSYN011333   59022
0115830960999991986010700004-10917-037050FM-12+000699999V0200901N00621012001CN9999999N9+02681+02331101041ADDAA106000091AG10999GF106991061051012501001001KA1240M+02981MA1999999100971MD1999999-0181REMSYN017333   10298 59018
0115830960999991986010712004-10917-037050FM-12+000699999V0200501N00411220001CN0200001N9+02841+02121101311ADDAA106000091AG10999GF101991011011012501001001KA1240N+02561MA1999999101241MD1999999+0141REMSYN017333   20256 58014
0096830960999991986010718004-10917-037050FM-12+000699999V0200901N00311220001CN0200001N9+02881+02081101051ADDAA106000091AG10999GF102991021011012501001001MA1999999100981MD1999999+0041REMSYN011333   58004
0115830960999991986010800004-10917-037050FM-12+000699999V0200901N00311220001CN9999999N9+02661+02141101161ADDAA106000091AG10999GF101991011011008001001001KA1240M+02981MA1999999101091MD1999999+0121REMSYN017333   10298 58012
0115830960999991986010812004-10917-037050FM-12+000699999V0200901N00311220001CN0200001N9+02881+02081101351ADDAA106000091AG10999GF101991011011012501001001KA1240N+02101MA1999999101221MD1999999+0041REMSYN017333   20210 58004
0096830960999991986010818004-10917-037050FM-12+000699999V0200901N00411220001CN0200001N9+02901+02041101021ADDAA106000091AG10999GF101991011011012501001001MA1999999100951MD1999999-0031REMSYN011333   59003
0115830960999991986010900004-10917-037050FM-12+000699999V0200901N00621220001CN9999999N9+02681+02201101231ADDAA106000091AG10999GF101991011011012501001001KA1240M+02981MA1999999101161MD1999999+0071REMSYN017333   10298 58007
0121830960999991986010912004-10917-037050FM-12+000699999V0201801N00151012001CN0200001N9+02551+02291101531ADDAA124021091AG10999GF108991081071012501999999KA1240N+02101MA1999999101461MD1999999+0181REMSYN023333   20210 58018 60214
0096830960999991986010918004-10917-037050FM-12+000699999V0200901N00511220001CN0200001N9+02811+02311101181ADDAA106000091AG10999GF101991011011012501001001MA1999999101111MD1999999+0161REMSYN011333   58016
0101830960999991986011000004-10917-037050FM-12+000699999V0200501N00461012001CN9999999N9+02621+02331101391ADDAA106000091AG10999GF106991061051012501001001KA1240M+02901MA1999999101321REMSYN017333   10290 58/16
0115830960999991986011012004-10917-037050FM-12+000699999V0200501N00511220001CN0200001N9+02881+02391101511ADDAA106000091AG10999GF102991021051012501001001KA1240N+02481MA1999999101441MD1999999-0021REMSYN017333   20248 59002
0096830960999991986011018004-10917-037050FM-12+000699999V0200901N00671220001CN0200001N9+02841+02381101241ADDAA106000091AG10999GF103991021051012501031001MA1999999101171MD1999999+0061REMSYN011333   58006
0115830960999991986011100004-10917-037050FM-12+000699999V0200901N00671220001CN9999999N9+02681+02351101471ADDAA106000091AG10999GF102991021011012501001001KA1240M+02941MA1999999101401MD1999999+0081REMSYN017333   10294 58008
0115830960999991986011112004-10917-037050FM-12+000699999V0200501N00571220001CN0200001N9+02841+02311101591ADDAA106000091AG10999GF101991011011012501001001KA1240N+02581MA1999999101521MD1999999+0081REMSYN017333   20258 58008
0096830960999991986011118004-10917-037050FM-12+000699999V0200901N00571220001CN0200001N9+02861+02351101341ADDAA106000091AG10999GF101991011011012501001001MA1999999101271MD1999999+0101REMSYN011333   58010
0115830960999991986011200004-10917-037050FM-12+000699999V0200901N00621220001CN9999999N9+02641+02311101351ADDAA106000091AG10999GF104991041051012501001001KA1240M+02981MA1999999101281MD1999999-0121REMSYN017333   10298 59012
0121830960999991986011212004-10917-037050FM-12+000699999V0200901N00411045001CN0200001N9+02761+02301101451ADDAA124006091AG10999GF106991031051012501031001KA1240N+02311MA1999999101381MD1999999-0141REMSYN023333   20231 59014 60064
0096830960999991986011218004-10917-037050FM-12+000699999V0200901N00311220001CN0200001N9+02841+02351101281ADDAA106000091AG10999GF101991011011012501001001MA1999999101211MD1999999-0061REMSYN011333   59006
0115830960999991986011300004-10917-037050FM-12+000699999V0200501N00361220001CN9999999N9+02581+02211101291ADDAA106000091AG10999GF101991011011012501001001KA1240M+02941MA1999999101221MD1999999-0061REMSYN017333   10294 59006
0102830960999991986011318004-10917-037050FM-12+000699999V0201401N00311012001CN0200001N9+02741+02101101041ADDAA106001091AG10999GF107991051051012501031001MA1999999100971MD1999999-0241REMSYN017333   59024 60011
0051830960999991986011412004-10917-037050FM-12+000699999V0200901N00461220001CN0200001N9+02821+02271101201ADDAG10999GF104991041051012501001001MA1999999101131
0096830960999991986011418004-10917-037050FM-12+000699999V0200901N00511220001CN0200001N9+02841+02191100951ADDAA106000091AG10999GF101991011011012501001001MA1999999100881MD1999999-0091REMSYN011333   59009
0115830960999991986011500004-10917-037050FM-12+000699999V0200901N00461220001CN9999999N9+02701+02261101191ADDAA106000091AG10999GF104991041051012501001001KA1240M+02961MA1999999101121MD1999999+0131REMSYN017333   10296 58013
0115830960999991986011512004-10917-037050FM-12+000699999V0200501N00571220001CN0200001N9+02841+02261101231ADDAA106000091AG10999GF102991021011012501001001KA1240N+02431MA1999999101161MD1999999+0031REMSYN017333   20243 58003
0096830960999991986011518004-10917-037050FM-12+000699999V0200901N00671220001CN0200001N9+02841+02311101081ADDAA106000091AG10999GF101991011011012501001001MA1999999101011MD1999999+0131REMSYN011333   58013
0115830960999991986011600004-10917-037050FM-12+000699999V0200901N00671220001CN9999999N9+02681+02261101191ADDAA106000091AG10999GF102991021051012501001001KA1240M+02981MA1999999101121MD1410001+0001REMSYN017333   10298 58000
0115830960999991986011612004-10917-037050FM-12+000699999V0200501N00411220001CN0200001N9+02811+02181101351ADDAA106000091AG10999GF102991021011012501001001KA1240N+02451MA1999999101281MD1999999+0121REMSYN017333   20245 58012
0096830960999991986011618004-10917-037050FM-12+000699999V0200901N00621220001CN0200001N9+02821+02241101101ADDAA106000091AG10999GF101991011011012501001001MA1999999101031MD1999999+0021REMSYN011333   58002
0115830960999991986011700004-10917-037050FM-12+000699999V0200901N00311220001CN9999999N9+02661+02181101281ADDAA106000091AG10999GF101991011011012501001001KA1240M+02941MA1999999101211MD1999999+0091REMSYN017333   10294 58009
0115830960999991986011712004-10917-037050FM-12+000699999V02099999999999999999N0200001N9+02821+02271101361ADDAA106000091AG10999GF199999021051012501001011KA1240N+02581MA1999999101291MD1999999+0011REMSYN017333   20258 58001
0134830960999991986011800004-10917-037050FM-12+000699999V0200901N00511220001CN9999999N9+02621+02211101231ADDAA106000091AG10999GF102991021011012501001001KA1240M+02941MA1999999999999MD1999999-0051REMSYN017333   10294 59005EQDQ01 091163APOSP 
0115830960999991986011812004-10917-037050FM-12+000699999V0200901N00511220001CN0200001N9+02821+02201101451ADDAA106000091AG10999GF102991011051012501001011KA1240N+02291MA1999999101381MD1999999+0091REMSYN017333   20229 58009
0096830960999991986011818004-10917-037050FM-12+000699999V0200901N00621220001CN0200001N9+02861+02231101221ADDAA106000091AG10999GF104991021051012501001011MA1999999101151MD1999999+0181REMSYN011333   58018
0115830960999991986011900004-10917-037050FM-12+000699999V0200901N00511220001CN9999999N9+02661+02181101281ADDAA106000091AG10999GF103991031051012501001001KA1240M+02901MA1999999101211MD1999999+0051REMSYN017333   10290 58005
0062830960999991986011912004-10917-037050FM-12+000699999V0200901N00311220001CN0200001N9+02821+02241101361ADDAA106000091AG10999GF102991021011012501001001MA1999999101291
0096830960999991986011918004-10917-037050FM-12+000699999V0200901N00311220001CN0200001N9+02821+02261101231ADDAA106000091AG10999GF102991011011012501001011MA1999999101161MD1999999+0011REMSYN011333   58001
0132830960999991986012012004-10917-037050FM-12+000699999V0200901N00571220001CN0200001N9+02841+02241101351ADDAA124000491AA299000591AG10999GF102991021011012501001001KA1240N+02451MA1999999101281MD1999999-0011REMSYN023333   20245 59001 69944
0096830960999991986012018004-10917-037050FM-12+000699999V0201401N00311220001CN0200001N9+02901+02271101141ADDAA106000091AG10999GF101991011011012501001001MA1999999101071MD1999999-0061REMSYN011333   59006
0115830960999991986012100004-10917-037050FM-12+000699999V0200901N00311220001CN9999999N9+02701+02221101371ADDAA106000091AG10999GF102991021051012501001001KA1240M+03001MA1999999101301MD1999999+0031REMSYN017333   10300 58003
0115830960999991986012112004-10917-037050FM-12+000699999V0201801N00311012001CN0200001N9+02881+02321101461ADDAA106000091AG10999GF108991081071012501999999KA1240N+02541MA1999999101391MD1999999+0091REMSYN017333   20254 58009
0124830960999991986012118004-10917-037050FM-12+000699999V0201801N00211007501CN0100001N9+02421+02371101231ADDAA106028091AG10999AY161061AY261061GF108991081071008001999999MA1999999101161MD1999999+0091MW1601REMSYN017333   58009 60281
0121830960999991986012200004-10917-037050FM-12+000699999V0200901N00511220001CN9999999N9+02701+02281101291ADDAA106001091AG10999GF104991041051012501001001KA1240M+03001MA1999999101221MD1999999-0081REMSYN023333   10300 59008 60011
0121830960999991986012212004-10917-037050FM-12+000699999V0200901N00311220001CN0200001N9+02801+02381101471ADDAA124031091AG10999GF102991021051012501001001KA1240N+02391MA1999999101401MD1999999+0011REMSYN023333   20239 58001 60314
0096830960999991986012218004-10917-037050FM-12+000699999V0200901N00511220001CN0200001N9+02881+02321101301ADDAA106000091AG10999GF102991021011012501001001MA1999999101231MD1999999+0071REMSYN011333   58007
0115830960999991986012300004-10917-037050FM-12+000699999V0200901N00461045001CN9999999N9+02681+02341101381ADDAA106000091AG10999GF105991031051012501031001KA1240M+02981MA1999999101311MD1999999+0091REMSYN017333   10298 58009
0121830960999991986012312004-10917-037050FM-12+000699999V0200901N00311220001CN0200001N9+02821+02241101541ADDAA124002091AG10999GF102991021051012501001001KA1240N+02501MA1999999101471MD1999999+0071REMSYN023333   20250 58007 60024
0096830960999991986012318004-10917-037050FM-12+000699999V0201401N00261220001CN0200001N9+02851+02221101371ADDAA106000091AG10999GF102991011051012501031001MA1999999101301MD1999999+0071REMSYN011333   58007
0115830960999991986012400004-10917-037050FM-12+000699999V0201401N00311220001CN9999999N9+02621+02161101531ADDAA106000091AG10999GF101991011011012501001001KA1240M+02981MA1999999101461MD1999999+0151REMSYN017333   10298 58015
0115830960999991986012412004-10917-037050FM-12+000699999V0200901N00361220001CN0200001N9+02821+02201101361ADDAA106000091AG10999GF102991021011012501001001KA1240N+02561MA1999999101291MD1999999-0181REMSYN017333   20256 59018
0096830960999991986012418004-10917-037050FM-12+000699999V0201401N00311220001CN0200001N9+02841+02261101201ADDAA106000091AG10999GF101991011011012501001001MA1999999101131MD1999999+0171REMSYN011333   58017
0115830960999991986012500004-10917-037050FM-12+000699999V0201401N00211220001CN9999999N9+02681+02331101351ADDAA106000091AG10999GF101991011051012501001001KA1240M+02981MA1999999101281MD1999999-0181REMSYN017333   10298 59018
0115830960999991986012512004-10917-037050FM-12+000699999V0201401N00311220001CN0200001N9+02841+02261101301ADDAA106000091AG10999GF104991041051012501001001KA1240N+02581MA1999999101231MD1999999-0061REMSYN017333   20258 59006
0096830960999991986012518004-10917-037050FM-12+000699999V0201401N00311012001CN0200001N9+02841+02261101091ADDAA106000091AG10999GF108991081071012501999999MA1999999101021MD1999999-0111REMSYN011333   59011
0115830960999991986012600004-10917-037050FM-12+000699999V0201401N00311045001CN9999999N9+02701+02261101241ADDAA106000091AG10999GF106991041051012501031001KA1240M+02981MA1999999101171MD1999999-0111REMSYN017333   10298 59011
0132830960999991986012612004-10917-037050FM-12+000699999V0200901N00151012001CN0200001N9+02821+02331101291ADDAA106000091AA224000191AG10999GF108991081071012501999999KA1240N+02521MA1999999101221MD1999999+0001REMSYN023333   20252 59000 69914
0096830960999991986012618004-10917-037050FM-12+000699999V0201401N00211012001CN0200001N9+02861+02371101071ADDAA106000091AG10999GF108991081071012501999999MA1999999101001MD1999999-0021REMSYN011333   59002
0115830960999991986012700004-10917-037050FM-12+000699999V0201401N00261012001CN9999999N9+02681+02331101261ADDAA106000091AG10999GF108991081071012501999999KA1240M+02941MA1999999101191MD1999999+0021REMSYN017333   10294 58002
0115830960999991986012712004-10917-037050FM-12+000699999V0201401N00461045001CN0200001N9+99999+99999101311ADDAA106000091AG10999GF108991041051012501031011KA1240N+02641MA1999999101241MD1999999+0021REMSYN017333   20264 58002
0096830960999991986012718004-10917-037050FM-12+000699999V0201401N00311012001CN0200001N9+02801+02421101161ADDAA106000091AG10999GF108991081071012501999999MA1999999101091MD1999999+0091REMSYN011333   58009
0115830960999991986012800004-10917-037050FM-12+000699999V0201401N00361012001CN9999999N9+02711+02331101241ADDAA106000091AG10999GF108991081051012501999999KA1240M+02921MA1999999101171MD1999999-0021REMSYN017333   10292 59002
0143830960999991986012812004-10917-037050FM-12+000699999V0200501N00571007501CN0100001N9+02401+02211101461ADDAA124004091AG10999AY161061AY261061GF108991081071008001999999KA1240N+02351MA1999999101391MD1999999+0151MW1601REMSYN023333   20235 58015 60044
0102830960999991986012818004-10917-037050FM-12+000699999V0200901N00411220001CN0200001N9+02761+02141101041ADDAA106001091AG10999GF102991021051012501001001MA1999999100971MD1999999-0121REMSYN017333   59012 60011
0121830960999991986012912004-10917-037050FM-12+000699999V0200901N00311220001CN0200001N9+02861+02391101271ADDAA124001091AG10999GF102991021011012501001001KA1240N+02391MA1999999101201MD1999999-0191REMSYN023333   20239 59019 60014
0096830960999991986012918004-10917-037050FM-12+000699999V0200901N00411220001CN0200001N9+02881+02371101001ADDAA106000091AG10999GF101991011011012501001001MA1999999100931MD1999999-0041REMSYN011333   59004
0115830960999991986013000004-10917-037050FM-12+000699999V0200901N00571220001CN9999999N9+02681+02311101161ADDAA106000091AG10999GF102991021051012501999999KA1240M+02961MA1999999101091MD1999999-0051REMSYN017333   10296 59005
0115830960999991986013012004-10917-037050FM-12+000699999V0200901N00311045001CN0200001N9+02821+02291101201ADDAA106000091AG10999GF106991031051012501031001KA1240N+02601MA1999999101131MD1999999-0071REMSYN017333   20260 59007
0096830960999991986013018004-10917-037050FM-12+000699999V0201401N00311220001CN0200001N9+02881+02301101011ADDAA106000091AG10999GF103991011051012501031001MA1999999100941MD1999999+0011REMSYN011333   58001
0115830960999991986013112004-10917-037050FM-12+000699999V0200901N00621220001CN0200001N9+02881+02461101231ADDAA106000091AG10999GF103991021051012501031001KA1240N+02521MA1999999101161MD1999999+0031REMSYN017333   20252 58003
0096830960999991986013118004-10917-037050FM-12+000699999V0200901N00361012001CN0200001N9+02821+02461101011ADDAA106000091AG10999GF108991061051012501031999MA1999999100941MD1410001+0001REMSYN011333   58000
0115830960999991986020100004-10917-037050FM-12+000699999V0200901N00361220001CN9999999N9+02701+02411101281ADDAA106000091AG10999GF101991011011012501001001KA1240M+02981MA1999999101211MD1999999+0111REMSYN017333   10298 58011
0115830960999991986020112004-10917-037050FM-12+000699999V0200901N00151012001CN0200001N9+02691+02481101331ADDAA106000091AG10999GF108991081071012501999999KA1240N+02341MA1999999101261MD1999999+0211REMSYN017333   20234 58021
0085830960999991986020118004-10917-037050FM-12+000699999V0200901N00311012001CN0200001N9+02841+02311101111ADDAG10999GF108991081051012501999999MA1999999101041MD1999999+0101REMSYN011333   58010
0115830960999991986020200004-10917-037050FM-12+000699999V0200901N00411012001CN9999999N9+02661+02311101311ADDAA106000091AG10999GF108991081071012501999999KA1240M+02961MA1999999101241MD1999999+0031REMSYN017333   10296 58003
0143830960999991986020212004-10917-037050FM-12+000699999V0203201N00211007501CN0100001N9+02161+02081101441ADDAA124018091AG10999AY101061AY261061GF108991081071008001999999KA1240N+02101MA1999999101371MD1999999+0111MW1601REMSYN023333   20210 58011 60184
0102830960999991986020218004-10917-037050FM-12+000699999V0201401N00311012001CN0200001N9+02561+02191101171ADDAA106001091AG10999GF108991081071012501999999MA1999999101101MD1999999+0061REMSYN017333   58006 60011
0115830960999991986020300004-10917-037050FM-12+000699999V0201401N00211220001CN9999999N9+02561+02311101181ADDAA106000091AG10999GF101991011011012501011001KA1240M+02701MA1999999101111MD1999999-0131REMSYN017333   10270 59013
0121830960999991986020312004-10917-037050FM-12+000699999V0200901N00051220001CN0200001N9+02801+02341101201ADDAA124001091AG10999GF101991011011012501001001KA1240N+02171MA1999999101131MD1999999-0241REMSYN023333   20217 59024 60014
0096830960999991986020318004-10917-037050FM-12+000699999V0200901N00361012001CN0200001N9+02501+02271100981ADDAA106000091AG10999GF108991081071012501999999MA1999999100911MD1999999-0191REMSYN011333   59019
0115830960999991986020400004-10917-037050FM-12+000699999V0200901N00411220001CN9999999N9+02661+02311101191ADDAA106000091AG10999GF101991011011012501001001KA1240M+02911MA1999999101121MD1999999+0011REMSYN017333   10291 58001
0115830960999991986020412004-10917-037050FM-12+000699999V0200901N00311220001CN0200001N9+02901+02501101361ADDAA106000091AG10999GF103991031051012501001001KA1240N+02601MA1999999101291MD1999999+0161REMSYN017333   20260 58016
0096830960999991986020418004-10917-037050FM-12+000699999V0200901N00411012001CN0200001N9+02821+02461101101ADDAA106000091AG10999GF108991081071012501999999MA1999999101031MD1999999+0121REMSYN011333   58012
0115830960999991986020500004-10917-037050FM-12+000699999V0200901N00361220001CN9999999N9+02721+02281101261ADDAA106000091AG10999GF102991021051012501001001KA1240M+02981MA1999999101191MD1999999+0071REMSYN017333   10298 58007
0096830960999991986020518004-10917-037050FM-12+000699999V0201801N00311045001CN0200001N9+02921+02521101361ADDAA106000091AG10999GF105991041021012501041001MA1999999101291MD1999999+0261REMSYN011333   58026
0115830960999991986020600004-10917-037050FM-12+000699999V0200901N00311220001CN9999999N9+02741+02421101341ADDAA106000091AG10999GF103991031011012501001001KA1240M+03001MA1999999101271MD1999999+0081REMSYN017333   10300 58008
0121830960999991986020612004-10917-037050FM-12+000699999V0201801N00311045001CN0200001N9+02901+02501101391ADDAA124004091AG10999GF105991031011012501051001KA1240N+02491MA1999999101321MD1999999-0111REMSYN023333   20249 59011 60044
0115830960999991986020700004-10917-037050FM-12+000699999V0200901N00311220001CN9999999N9+02721+02481101321ADDAA106000091AG10999GF103991021011012501051001KA1240M+03021MA1999999101251MD1999999-0021REMSYN017333   10302 59002
0115830960999991986020712004-10917-037050FM-12+000699999V0203201N00101045001CN0200001N9+02841+02481101371ADDAA106000091AG10999GF105991021021012501041001KA1240N+02411MA1999999101301MD1999999-0021REMSYN017333   20241 59002
0096830960999991986020718004-10917-037050FM-12+000699999V0201801N00311045001CN0200001N9+02921+02441101161ADDAA106000091AG10999GF105991031011012501051001MA1999999101091MD1999999+0091REMSYN011333   58009
0115830960999991986020800004-10917-037050FM-12+000699999V0200901N00311220001CN9999999N9+02741+02471101391ADDAA106000091AG10999GF101991011011012501001001KA1240M+03001MA1999999101321MD1999999+0011REMSYN017333   10300 58001
0102830960999991986020818004-10917-037050FM-12+000699999V0200901N00311045001CN0200001N9+02821+02441101221ADDAA106002091AG10001GF105991031011012501051001MA1999999101151MD1999999+0061REMSYN017333   58006 60021
0104830960999991986020900004-10917-037050FM-12+000699999V0200901N00311012001CN9999999N9+02521+02441101351ADDAG10999GF108991081071012501999999KA1240M+02801MA1999999101281MD1999999-0041REMSYN017333   10280 59004
0121830960999991986020912004-10917-037050FM-12+000699999V0203601N00151045001CN0200001N9+02861+02441101371ADDAA124017091AG10999GF106991041021012501041001KA1240N+02391MA1999999101301MD1999999-0021REMSYN023333   20239 59002 60174
0096830960999991986020918004-10917-037050FM-12+000699999V0201401N00511045001CN0200001N9+02861+02391101141ADDAA106000091AG10999GF105991031011012501051001MA1999999101071MD1999999+0181REMSYN011333   58018
0115830960999991986021012004-10917-037050FM-12+000699999V0201401N00311045001CN0200001N9+02841+02601101431ADDAA106000091AG10999GF105991041021012501041001KA1240N+02601MA1999999101361MD1999999+0061REMSYN017333   20260 58006
0082830960999991986021018004-10917-037050FM-12+000699999V0201401N00311045001CN0200001N9+02861+02481101141ADDAA106000091AG10999GF105991031011012501051001MA1999999101071REMSYN011333   5800/
0115830960999991986021100004-10917-037050FM-12+000699999V0200901N00311220001CN9999999N9+02721+02371101331ADDAA106000091AG10999GF102991021011012501001001KA1240M+03001MA1999999101261MD1999999-0041REMSYN017333   10300 59004
0115830960999991986021112004-10917-037050FM-12+000699999V0201801N00151045001CN0200001N9+02881+02391101391ADDAA106000091AG10999GF105991031011012501051001KA1240N+02521MA1999999101321MD1999999-0041REMSYN017333   20252 59004
0096830960999991986021118004-10917-037050FM-12+000699999V0201401N00511220001CN0200001N9+02841+02421101141ADDAA106000091AG10999GF103991031021012501001001MA1999999101071MD1410001+0001REMSYN011333   58000
0115830960999991986021200004-10917-037050FM-12+000699999V0200901N00311220001CN9999999N9+02701+02461101341ADDAA106000091AG10999GF102991021011012501001001KA1240M+03001MA1999999101271MD1999999+0011REMSYN017333   10300 58001
0115830960999991986021212004-10917-037050FM-12+000699999V0200901N00311012001CN0200001N9+02881+02411101361ADDAA106000091AG10999GF108991081071012501999999KA1240N+02411MA1999999101291MD1999999-0031REMSYN017333   20241 59003
0096830960999991986021218004-10917-037050FM-12+000699999V0201401N00311045001CN0200001N9+02881+02251101141ADDAA106000091AG10999GF106991041051012501031001MA1999999101071MD1410001+0001REMSYN011333   58000
0115830960999991986021300004-10917-037050FM-12+000699999V0200901N00311220001CN9999999N9+02701+02261101261ADDAA106000091AG10999GF102991021051012501001001KA1240M+03001MA1999999101191MD1999999-0081REMSYN017333   10300 59008
0115830960999991986021312004-10917-037050FM-12+000699999V0200901N00151220001CN0200001N9+02961+02351101331ADDAA106000091AG10999GF102991021051012501001001KA1240N+02211MA1999999101261MD1999999-0031REMSYN017333   20221 59003
0096830960999991986021318004-10917-037050FM-12+000699999V0201401N00511220001CN0200001N9+02921+02341101021ADDAA106000091AG10999GF101991011011012501001001MA1999999100951MD1999999-0121REMSYN011333   59012
0115830960999991986021400004-10917-037050FM-12+000699999V0200901N00511220001CN9999999N9+02781+02361101131ADDAA106000091AG10999GF102991021051012501001001KA1240M+03021MA1999999101061MD1999999-0131REMSYN017333   10302 59013
0115830960999991986021412004-10917-037050FM-12+000699999V0200501N00411220001CN0200001N9+02901+02341101141ADDAA106000091AG10999GF101991011011012501001001KA1240N+02461MA1999999101071MD1999999-0191REMSYN017333   20246 59019
0115830960999991986021418004-10917-037050FM-12+000699999V0200901N00411220001CN0200001N9+02961+02281100721ADDAA106000091AG10999GF101991001001999999001011MA1999999100651MD1999999-0301REMSYN011333   59030EQDQ01+000962SCOLCB
0115830960999991986021500004-10917-037050FM-12+000699999V0200901N00311220001CN9999999N9+02801+02501101111ADDAA106000091AG10999GF102991021051012501001001KA1240M+03001MA1999999101041MD1999999-0021REMSYN017333   10300 59002
0115830960999991986021512004-10917-037050FM-12+000699999V0200501N00311220001CN0200001N9+03021+02261101241ADDAA106000091AG10999GF103991031051012501001001KA1240N+02561MA1999999101171MD1999999+0101REMSYN017333   20256 58010
0115830960999991986021600004-10917-037050FM-12+000699999V0200501N00621012001CN9999999N9+02801+02381101221ADDAA106000091AG10999GF106991061051012501001001KA1240M+03101MA1999999101151MD1999999+0111REMSYN017333   10310 58011
0115830960999991986021612004-10917-037050FM-12+000699999V0200901N00311220001CN0200001N9+02961+02281101271ADDAA106000091AG10999GF101991011011012501001001KA1240N+02541MA1999999101201MD1999999+0031REMSYN017333   20254 58003
0096830960999991986021618004-10917-037050FM-12+000699999V0200901N00511220001CN0200001N9+02961+02331100911ADDAA106000091AG10999GF102991021011012501001001MA1999999100841MD1999999+0081REMSYN011333   58008
0115830960999991986021700004-10917-037050FM-12+000699999V0200501N00411012001CN9999999N9+02741+02451101161ADDAA106000091AG10999GF106991061051012501001001KA1240M+03041MA1999999101091MD1999999-0061REMSYN017333   10304 59006
0115830960999991986021712004-10917-037050FM-12+000699999V0200501N00461220001CN0200001N9+03021+02461101131ADDAA106000091AG10999GF104991041051012501001001KA1240N+02521MA1999999101061MD1999999-0141REMSYN017333   20252 59014
0096830960999991986021718004-10917-037050FM-12+000699999V0200901N00511220001CN0200001N9+02901+02341100801ADDAA106000091AG10999GF102991021051012501001001MA1999999100731MD1999999-0111REMSYN011333   59011
0115830960999991986021800004-10917-037050FM-12+000699999V0200501N00511220001CN9999999N9+02741+02451101061ADDAA106000091AG10999GF101991011011012501001001KA1240M+03041MA1999999100991MD1999999-0101REMSYN017333   10304 59010
0115830960999991986021812004-10917-037050FM-12+000699999V0200501N00311012001CN0200001N9+02821+02241101081ADDAA106000091AG10999GF106991061051012501001001KA1240N+02451MA1999999101011MD1999999-0051REMSYN017333   20245 59005
0115830960999991986021900004-10917-037050FM-12+000699999V0200901N00461220001CN9999999N9+02721+02431100971ADDAA106000091AG10999GF101991011011012501001001KA1240M+03061MA1999999100901MD1999999-0091REMSYN017333   10306 59009
0121830960999991986021912004-10917-037050FM-12+000699999V0200901N00311012001CN0200001N9+02601+02411101171ADDAA124002091AG10999GF108991081071012501999999KA1240N+02421MA1999999101101MD1999999+0011REMSYN023333   20242 58001 60024
0096830960999991986021918004-10917-037050FM-12+000699999V0200901N00311012001CN0200001N9+02601+02391100851ADDAA106000091AG10999GF106991061051012501001001MA1999999100781MD1999999+0101REMSYN011333   58010
0115830960999991986022000004-10917-037050FM-12+000699999V0200901N00671220001CN9999999N9+02721+02451101171ADDAA106000091AG10999GF103991031011012501001001KA1240M+02941MA1999999101101MD1999999+0201REMSYN017333   10294 58020
0115830960999991986022012004-10917-037050FM-12+000699999V0200901N00051045001CN0200001N9+02921+02501101251ADDAA106000091AG10999GF105991021021012501041001KA1240N+02601MA1999999101181MD1999999+0081REMSYN017333   20260 58008
0096830960999991986022018004-10917-037050FM-12+000699999V0200901N00311045001CN0200001N9+02961+02401100921ADDAA106000091AG10999GF105991031011012501051001MA1999999100851MD1999999-0021REMSYN011333   59002
0115830960999991986022100004-10917-037050FM-12+000699999V0201401N00311015001CN9999999N9+02541+02271101321ADDAA106000091AG10999GF106991061081012501001001KA1240M+03001MA1999999101251MD1999999+0151REMSYN017333   10300 58015
0121830960999991986022112004-10917-037050FM-12+000699999V0200901N00311045001CN0200001N9+02801+02561101321ADDAA124006091AG10001GF105991031021012501041001KA1240N+02291MA1999999101251MD1999999+0071REMSYN023333   20229 58007 60064
0096830960999991986022118004-10917-037050FM-12+000699999V0200901N00311045001CN0200001N9+02861+02441101281ADDAA106000091AG10001GF105991031051012501011001MA1999999101211MD1999999+0361REMSYN011333   58036
0121830960999991986022212004-10917-037050FM-12+000699999V0201401N00311045001CN0200001N9+02901+02521101331ADDAA124001091AG10999GF105991021021012501041001KA1240N+02521MA1999999101261MD1999999+0011REMSYN023333   20252 58001 60014
0096830960999991986022218004-10917-037050FM-12+000699999V0201401N00151220001CN0200001N9+02921+02591101141ADDAA106000091AG10999GF104991031011012501051071MA1999999101071MD1999999+0141REMSYN011333   58014
0115830960999991986022300004-10917-037050FM-12+000699999V0201801N00311012001CN9999999N9+02761+02481101301ADDAA106000091AG10999GF106991061091012501999999KA1240M+03041MA1999999101231MD1999999-0061REMSYN017333   10304 59006
0121830960999991986022312004-10917-037050FM-12+000699999V0203201N00051015001CN0200001N9+02441+02341101191ADDAA124016091AG10999GF106991061081012501001001KA1240N+02291MA1999999101121MD1999999-0141REMSYN023333   20229 59014 60164
0115830960999991986022400004-10917-037050FM-12+000699999V0201801N00311220001CN9999999N9+02681+02411101271ADDAA106000091AG10999GF103991031011012501001001KA1240M+02861MA1999999101201MD1999999-0031REMSYN017333   10286 59003
0121830960999991986022412004-10917-037050FM-12+000699999V0201401N00151045001CN0200001N9+02641+02371101231ADDAA124008091AG10999GF105991041021012501041001KA1240N+02331MA1999999101161MD1999999+0041REMSYN023333   20233 58004 60084
0096830960999991986022418004-10917-037050FM-12+000699999V0201401N00311045001CN0200001N9+02701+02431101151ADDAA106000091AG10999GF105991021011012501051001MA1999999101081MD1999999-0011REMSYN011333   59001
0115830960999991986022500004-10917-037050FM-12+000699999V0201401N00311015001CN9999999N9+02701+02431101151ADDAA106000091AG10999GF106991061081012501001001KA1240M+03001MA1999999101081MD1999999-0121REMSYN017333   10300 59012
0121830960999991986022512004-10917-037050FM-12+000699999V0200901N00311045001CN0200001N9+02841+02621101081ADDAA124026091AG10999GF106991041021012501041001KA1240N+02331MA1999999101011MD1999999-0151REMSYN023333   20233 59015 60264
0081830960999991986022518004-10917-037050FM-12+000699999V0200901N003119999999N0200001N9+02861+02641100971ADDAA106000091AG10999GF106991999999012501999999MA1999999100901EQDQ01+999990APOSLP
0115830960999991986022600004-10917-037050FM-12+000699999V0201401N00311220001CN9999999N9+02741+02501101071ADDAA106000091AG10999GF102991021011012501001001KA1240M+02981MA1999999101001MD1999999-0081REMSYN017333   10298 59008
0115830960999991986022612004-10917-037050FM-12+000699999V0200901N00261045001CN0200001N9+02921+02411101071ADDAA106000091AG10999GF106991031051012501021001KA1240N+02541MA1999999101001MD1999999-0011REMSYN017333   20254 59001
0096830960999991986022618004-10917-037050FM-12+000699999V0201401N00411220001CN0200001N9+02911+02301100861ADDAA106000091AG10999GF101991011011012501001001MA1999999100791MD1999999-0121REMSYN011333   59012
0121830960999991986022712004-10917-037050FM-12+000699999V0200901N00311220001CN0200001N9+02841+02311101151ADDAA124008091AG10999GF102991021051012501001001KA1240N+02451MA1999999101081MD1999999+0081REMSYN023333   20245 58008 60084
0121830960999991986022812004-10917-037050FM-12+000699999V0201401N00211045001CN0200001N9+02821+02241101121ADDAA124002091AG10999GF106991031051012501031001KA1240N+02431MA1999999101051MD1999999-0031REMSYN023333   20243 59003 60024
0096830960999991986022818004-10917-037050FM-12+000699999V0201401N00311012001CN0200001N9+02821+02271100861ADDAA106000091AG10999GF108991081051012501999999MA1999999100791MD1999999-0061REMSYN011333   59006
0096830960999991986030218004-10917-037050FM-12+000699999V0200901N00571012001CN0200001N9+02821+02371100941ADDAA106000091AG10999GF107991071051012501001001MA1999999100871MD1999999+0111REMSYN011333   58011
0115830960999991986030300004-10917-037050FM-12+000699999V0200901N00411220001CN9999999N9+02741+02301101191ADDAA106000091AG10999GF101991011011012501001001KA1240M+03001MA1999999101121MD1999999+0131REMSYN017333   10300 58013
0096830960999991986030318004-10917-037050FM-12+000699999V0200901N00311012001CN0200001N9+02721+02281101141ADDAA106000091AG10999GF108991081051012501999999MA1999999101071MD1999999+0251REMSYN011333   58025
0121830960999991986030400004-10917-037050FM-12+000699999V0200901N00311220001CN9999999N9+02711+02371101371ADDAA106001091AG10999GF104991041051012501001001KA1240M+02981MA1999999101301MD1999999+0181REMSYN023333   10298 58018 60011
0096830960999991986030418004-10917-037050FM-12+000699999V0201401N00211045001CN0200001N9+02801+02341101191ADDAA106000091AG10999GF106991021051012501031001MA1999999101071MD1410001+0001REMSYN011333   58000
0096830960999991986030500004-10917-037050FM-12+000699999V0200901N00311012001CN0200001N9+02861+02371101131ADDAA106000091AG10999GF105991051051012501051001MA1999999101061MD1999999-0011REMSYN011333   59001
0121830960999991986030612004-10917-037050FM-12+000699999V0203601N00101220001CN0200001N9+02741+02381101371ADDAA124003091AG10999GF104991041051012501001001KA1240N+02391MA1999999101301MD1999999-0121REMSYN023333   20239 59012 60034
0102830960999991986030618004-10917-037050FM-12+000699999V0201401N00311220001CN0200001N9+02901+02341101021ADDAA106000191AG10999GF106991021051012501001011MA1999999100951MD1999999-0111REMSYN017333   59011 69911
0115830960999991986030712004-10917-037050FM-12+000699999V0200501N00311045001CN0200001N9+02841+02541101171ADDAA106000091AG10999GF105991041011012501051001KA1240N+02621MA1999999101101MD1999999-0201REMSYN017333   20262 59020
0096830960999991986030718004-10917-037050FM-12+000699999V0200901N00261220001CN0200001N9+02901+02411100981ADDAA106000091AG10999GF101991011011012501001001MA1999999100911MD1999999-0041REMSYN011333   59004
0115830960999991986030800004-10917-037050FM-12+000699999V0200901N00361220001CN9999999N9+02761+02301101161ADDAA106000091AG10999GF102991021011012501999999KA1240M+03001MA1999999101091MD1999999-0011REMSYN017333   10300 59001
0096830960999991986030818004-10917-037050FM-12+000699999V0200901N00311015001CN0200001N9+02901+02621101041ADDAA106000091AG10999GF106991061081012501001001MA1999999100971MD1999999+0071REMSYN011333   58007
0115830960999991986030912004-10917-037050FM-12+000699999V0201801N00311015001CN0200001N9+02741+02401101341ADDAA106000091AG10999GF106991061081012501001001KA1240N+02581MA1999999101271MD1999999+0151REMSYN017333   20258 58015
0096830960999991986030918004-10917-037050FM-12+000699999V0201801N00411220001CN0200001N9+02901+02321101121ADDAA106000091AG10999GF102991011051012501001011MA1999999101051MD1999999+0081REMSYN011333   58008
0115830960999991986031000004-10917-037050FM-12+000699999V0200901N00411220001CN9999999N9+02721+02241101261ADDAA106000091AG10999GF104991999999012501999999KA1240M+03001MA1999999101191MD1410001+0001REMSYN017333   10300 58000
0121830960999991986031012004-10917-037050FM-12+000699999V0203201N00151015001CN0200001N9+02641+02371101351ADDAA124004091AG10999GF106991061081012501001001KA1240N+02351MA1999999101281MD1999999+0011REMSYN023333   20235 58001 60044
0102830960999991986031018004-10917-037050FM-12+000699999V0200901N00361220001CN0200001N9+02901+02271101031ADDAA106002091AG10999GF102991021051012501001001MA1999999100961MD1999999-0091REMSYN017333   59009 60021
0115830960999991986031100004-10917-037050FM-12+000699999V0201401N00311220001CN9999999N9+02721+02321101251ADDAA106000091AG10999GF101991011011012501001001KA1240M+02941MA1999999101181MD1999999-0011REMSYN017333   10294 59001
0115830960999991986031112004-10917-037050FM-12+000699999V0200901N00311045001CN0200001N9+02861+02601101261ADDAA106000091AG10999GF105991041021012501041001KA1240N+02431MA1999999101191MD1999999-0091REMSYN017333   20243 59009
0132830960999991986031212004-10917-037050FM-12+000699999V0201801N00151045001CN0200001N9+02841+02481101371ADDAA124000491AA299000591AG10999GF105991031021012501041001KA1240N+02601MA1999999101301MD1999999+0111REMSYN023333   20260 58011 69944
0096830960999991986031218004-10917-037050FM-12+000699999V0200901N00261045001CN0200001N9+02941+02331101051ADDAA106000091AG10999GF106991021051012501031011MA1999999100981MD1999999+0001REMSYN011333   58000
0132830960999991986031300004-10917-037050FM-12+000699999V0200901N00311220001CN9999999N9+02721+02371101241ADDAA106000491AA299000591AG10999GF104991041051012501061001KA1240M+03061MA1999999101171MD1999999-0011REMSYN023333   10306 59001 69941
0121830960999991986031312004-10917-037050FM-12+000699999V0201801N00151015001CN0200001N9+02681+02481101171ADDAA124001091AG10999GF106991061081012501001001KA1240N+02581MA1999999101101MD1999999-0201REMSYN023333   20258 59020 60014
0124830960999991986031318004-10917-037050FM-12+000699999V0201401N00311007501CN0100001N9+02481+02321101011ADDAA106005091AG10999AY161061AY261061GF108991081071008001999999MA1999999100941MD1999999-0041MW1601REMSYN017333   59004 60051
0121830960999991986031400004-10917-037050FM-12+000699999V0203201N00151012001CN9999999N9+02501+02361101171ADDAA106005091AG10999GF108991081071012501999999KA1240M+02821MA1999999101101MD1999999-0071REMSYN023333   10282 59007 60051
0121830960999991986031412004-10917-037050FM-12+000699999V0200501N00101012001CN0200001N9+02401+02261101381ADDAA124030091AG10999GF108991081091012501999999KA1240N+02311MA1999999101311MD1999999+0211REMSYN023333   20231 58021 60304
0096830960999991986031418004-10917-037050FM-12+000699999V0201801N00311012001CN0200001N9+02701+02281100981ADDAA106000091AG10999GF106991061051012501001001MA1999999100911MD1999999-0031REMSYN011333   59003
0115830960999991986031500004-10917-037050FM-12+000699999V0201801N00311220001CN9999999N9+02681+02261101221ADDAA106000091AG10999GF101991011011012501001001KA1240M+02841MA1999999101151MD1999999+0051REMSYN017333   10284 58005
0115830960999991986031512004-10917-037050FM-12+000699999V0200901N00151045001CN0200001N9+02761+02461101291ADDAA106000091AG10999GF105991031021012501041001KA1240N+02371MA1999999101221MD1999999-0091REMSYN017333   20237 59009
0096830960999991986031518004-10917-037050FM-12+000699999V0201801N00411220001CN0200001N9+02881+02461100921ADDAA106000091AG10001GF104991041051012501001001MA1999999100851MD1999999-0061REMSYN011333   59006
0115830960999991986031600004-10917-037050FM-12+000699999V0200501N00361012001CN9999999N9+02751+02321101141ADDAA106000091AG10999GF106991061051012501001001KA1240M+02941MA1999999101071MD1999999-0081REMSYN017333   10294 59008
0121830960999991986031612004-10917-037050FM-12+000699999V0203601N00151045001CN0200001N9+02721+02431101191ADDAA124007091AG10999GF105991031021012501041001KA1240N+02351MA1999999101121MD1999999-0101REMSYN023333   20235 59010 60074
0096830960999991986031618004-10917-037050FM-12+000699999V0200901N00311012001CN0200001N9+02801+02521100961ADDAA106000091AG10999GF107991071051012501001001MA1999999100891MD1999999+0041REMSYN011333   58004
0115830960999991986031700004-10917-037050FM-12+000699999V0200901N00311220001CN9999999N9+02771+02271101141ADDAA106000091AG10999GF101991011011012501001001KA1240M+02901MA1999999101071MD1999999+0001REMSYN017333   10290 58000
0102830960999991986031718004-10917-037050FM-12+000699999V0200901N00311220001CN0200001N9+02881+02301101051ADDAA106002091AG10999GF101991011011012501001001MA1999999100981MD1999999+0091REMSYN017333   58009 60021
0115830960999991986031800004-10917-037050FM-12+000699999V0200901N00311220001CN9999999N9+02741+02261101271ADDAA106000091AG10999GF101991011011012501001001KA1240M+02981MA1999999101201MD1999999+0131REMSYN017333   10298 58013
0121830960999991986031812004-10917-037050FM-12+000699999V0201801N00151045001CN0200001N9+02881+02481101351ADDAA124002091AG10999GF105991041021012501041001KA1240N+02541MA1999999101281MD1999999+0041REMSYN023333   20254 58004 60024
0102830960999991986031818004-10917-037050FM-12+000699999V0200901N00261220001CN0200001N9+02881+02231101211ADDAA106000191AG10999GF101991011011012501001001MA1999999101141MD1999999+0161REMSYN017333   58016 69911
0143830960999991986031912004-10917-037050FM-12+000699999V0201801N00151015001CN0200001N9+02621+02421101371ADDAA124003091AG10999AY161061AY261061GF106991061081012501001001KA1240N+02211MA1999999101301MD1999999+0021MW1601REMSYN023333   20221 58002 60034
0115830960999991986032000004-10917-037050FM-12+000699999V0200901N00311012001CN9999999N9+02761+02341101271ADDAA106000091AG10999GF105991051051012501001001KA1240M+02961MA1999999101201MD1999999-0071REMSYN017333   10296 59007
0115830960999991986032100004-10917-037050FM-12+000699999V0201401N00461220001CN9999999N9+02761+02281101221ADDAA106000091AG10999GF104991041051012501001001KA1240M+03001MA1999999101151MD1999999-0051REMSYN017333   10300 59005
0115830960999991986032200004-10917-037050FM-12+000699999V0201401N00311220001CN9999999N9+02721+02281101161ADDAA106000091AG10999GF104991041051012501001001KA1240M+03061MA1999999101091MD1999999-0061REMSYN017333   10306 59006
0102830960999991986032318004-10917-037050FM-12+000699999V0201801N00311012001CN0200001N9+02861+02261101101ADDAA106001091AG10999GF108991081051012501999999MA1999999101031MD1999999+0151REMSYN017333   58015 60011
0121830960999991986032400004-10917-037050FM-12+000699999V0201801N00151012001CN9999999N9+02521+02331101271ADDAA106005091AG10999GF108991081061012501999999KA1240M+02981MA1999999101201MD1999999+0041REMSYN023333   10298 58004 60051
0115830960999991986032500004-10917-037050FM-12+000699999V0201801N00411012001CN9999999N9+02661+02311101261ADDAA106000091AG10999GF108991081051012501999999KA1240M+03021MA1999999101191MD1999999-0011REMSYN017333   10302 59001
0085830960999991986032518004-10917-037050FM-12+000699999V02099999999999999999N0200001N9+02841+02291101021ADDAG10001GF199999031051999999001011MA1999999100951MD1999999-0061REMSYN011333   59006
0115830960999991986032600004-10917-037050FM-12+000699999V0200901N00311220001CN9999999N9+02721+02321101271ADDAA106000091AG10999GF102991021011012501001001KA1240M+02911MA1999999101201MD1999999+0011REMSYN017333   10291 58001
0096830960999991986032618004-10917-037050FM-12+000699999V0201801N00211220001CN0200001N9+02901+02271101061ADDAA106000091AG10999GF102991021051012501001001MA1999999100991MD1999999+0041REMSYN011333   58004
0115830960999991986032700004-10917-037050FM-12+000699999V0201801N00311220001CN9999999N9+02721+02281101261ADDAA106000091AG10999GF101991011011012501001001KA1240M+03001MA1999999101191MD1999999-0011REMSYN017333   10300 59001
0115830960999991986032712004-10917-037050FM-12+000699999V0201801N00151045001CN0200001N9+02901+02341101291ADDAA106000091AG10999GF105991031021012501041001KA1240N+02581MA1999999101221MD1999999-0021REMSYN017333   20258 59002
0096830960999991986032718004-10917-037050FM-12+000699999V0201401N00411220001CN0200001N9+02921+02291101061ADDAA106000091AG10999GF102991011051012501001011MA1999999100991MD1999999+0001REMSYN011333   58000
0115830960999991986032800004-10917-037050FM-12+000699999V0201801N00151220001CN9999999N9+02741+02301101251ADDAA106000091AG10999GF102991021051012501001001KA1240M+03021MA1999999101181MD1999999-0011REMSYN017333   10302 59001
0115830960999991986032812004-10917-037050FM-12+000699999V0201801N00151045001CN0200001N9+02901+02521101351ADDAA106000091AG10999GF105991031021012501041001KA1240N+02621MA1999999101281MD1999999+0061REMSYN017333   20262 58006
0096830960999991986032818004-10917-037050FM-12+000699999V0200901N00311220001CN0200001N9+02911+02481101161ADDAA106000091AG10999GF101991011051012501001001MA1999999101091MD1999999+0101REMSYN011333   58010
0115830960999991986032900004-10917-037050FM-12+000699999V0201801N00311220001CN9999999N9+02781+02481101351ADDAA106000091AG10999GF101991011011012501001001KA1240M+02981MA1999999101281MD1999999+0101REMSYN017333   10298 58010
0121830960999991986032912004-10917-037050FM-12+000699999V0201801N00151015001CN0200001N9+02601+02391101391ADDAA124051091AG10001GF106991061081012501001001KA1240N+02451MA1999999101321MD1999999+0041REMSYN023333   20245 58004 60514
0115830960999991986033000004-10917-037050FM-12+000699999V0201401N00311220001CN9999999N9+02721+02281101291ADDAA106000091AG10999GF103991031051012501001001KA1240M+02941MA1999999101221MD1999999-0061REMSYN017333   10294 59006
0124830960999991986033018004-10917-037050FM-12+000699999V0201401N00361007501CN0100001N9+02561+02331101061ADDAA106002091AG10999AY161061AY261061GF108991081071008001999999MA1999999100991MD1999999-0121MW1601REMSYN017333   59012 60021
0143830960999991986033100004-10917-037050FM-12+000699999V0200501N00151007501CN9999999N9+02441+02411101281ADDAA106043091AG10999AY161061AY261061GF108991081071008001999999KA1240M+02781MA1999999101211MD1999999-0011MW1601REMSYN023333   10278 59001 60431
0143830960999991986033112004-10917-037050FM-12+000699999V0203201N00151015001CN0200001N9+02461+02361101351ADDAA124076091AG10999AY161061AY261061GF108991081081012501999999KA1240N+02331MA1999999101281MD1999999+0041MW1601REMSYN023333   20233 58004 60764
0121830960999991986040100004-10917-037050FM-12+000699999V0200901N00311012001CN9999999N9+02701+02481101191ADDAA106000391AG10999GF105991051051012501001001KA1240M+02961MA1999999101121MD1999999-0091REMSYN023333   10296 59009 69931
0121830960999991986040112004-10917-037050FM-12+000699999V0203201N00151015001CN0200001N9+02741+02261101371ADDAA124003091AG10999GF106991061081012501001001KA1240N+02391MA1999999101301MD1999999+0021REMSYN023333   20239 58002 60034
0096830960999991986040118004-10917-037050FM-12+000699999V0200901N00411220001CN0200001N9+02901+02481100871ADDAA106000091AG10999GF104991041051012501001001MA1999999100801MD1999999-0101REMSYN011333   59010
0115830960999991986040200004-10917-037050FM-12+000699999V0200901N00361220001CN9999999N9+02801+02421101121ADDAA106000091AG10999GF104991041051012501001001KA1240M+02971MA1999999101061MD1999999-0061REMSYN017333   10297 59006
0115830960999991986040212004-10917-037050FM-12+000699999V0200901N00311045001CN0200001N9+02941+02521101311ADDAA106000091AG10999GF106991041021012501041001KA1240N+02581MA1999999101241MD1999999-0061REMSYN017333   20258 59006
0115830960999991986040300004-10917-037050FM-12+000699999V0200901N00461220001CN9999999N9+02761+02481101211ADDAA106000091AG10999GF102991021051012501001001KA1240M+03021MA1999999101171MD1999999+0081REMSYN017333   10302 58008
0096830960999991986040418004-10917-037050FM-12+000699999V0201401N00311045001CN0200001N9+02861+02421100921ADDAA106000091AG10999GF106991031051012501031001MA1999999100851MD1999999+0001REMSYN011333   58000
0115830960999991986040512004-10917-037050FM-12+000699999V0201401N00311045001CN0200001N9+02901+02561101131ADDAA106000091AG10999GF105991031011012501051001KA1240N+02621MA1999999101061MD1999999-0181REMSYN017333   20262 59018
0096830960999991986040518004-10917-037050FM-12+000699999V0201401N00211220001CN0200001N9+02861+02261100921ADDAA106000091AG10999GF101991011011012501001001MA1999999100851MD1999999+0001REMSYN011333   58000
0121830960999991986040612004-10917-037050FM-12+000699999V0200901N00151045001CN0200001N9+02841+02541101271ADDAA124003091AG10999GF105991031021012501041001KA1240N+02431MA1999999101201MD1999999+0141REMSYN023333   20243 58014 60034
0096830960999991986040618004-10917-037050FM-12+000699999V0201401N00261220001CN0200001N9+02901+02301100961ADDAA106000091AG10999GF102991021051012501001001MA1999999100891MD1999999+0041REMSYN011333   58004
0115830960999991986040700004-10917-037050FM-12+000699999V0201401N00211220001CN9999999N9+02721+02341101171ADDAA106000091AG10999GF102991021011012501001001KA1240M+02941MA1999999101101MD1999999+0041REMSYN017333   10294 58004
0132830960999991986040712004-10917-037050FM-12+000699999V0209999999999045001CN0200001N9+02841+01281101351ADDAA106000091AA224000291AG10999GF105991031021012501041001KA1240N+02431MA1999999102671MD1999999+0081REMSYN023333   20243 58008 69924
0132830960999991986040718004-10917-037050FM-12+000699999V0201401N00211220001CN0200001N9+02881+02451101101ADDAA106000891AA299001091AG10999GF101991011011012501001001MA1999999101032MD1999999+0141REMSYN017333   58014 69981EQDQ01+101033APOSP 
0121830960999991986040812004-10917-037050FM-12+000699999V0200901N00311045001CN0200001N9+02841+02521101391ADDAA124006091AG10999GF105991031011012501051001KA1240N+02211MA1999999101321MD1999999+0041REMSYN023333   20221 58004 60064
0115830960999991986040912004-10917-037050FM-12+000699999V0201801N00311045001CN0200001N9+02901+02681101341ADDAA106000091AG10999GF105991041021012501041001KA1240N+02371MA1999999101271MD1999999-0051REMSYN017333   20237 59005
0096830960999991986040918004-10917-037050FM-12+000699999V0201801N00411220001CN0200001N9+02851+02121101061ADDAA106000091AG10999GF101991011011012501001001MA1999999100991MD1999999+0141REMSYN011333   58014
0115830960999991986041000004-10917-037050FM-12+000699999V0201401N00211220001CN9999999N9+02781+02121101201ADDAA106000091AG10999GF101991011011012501001001KA1240M+02981MA1999999101131MD1999999-0071REMSYN017333   10298 59007
0115830960999991986041012004-10917-037050FM-12+000699999V0201801N00311045001CN0200001N9+02901+02561101271ADDAA106000091AG10999GF105991021021012501041001KA1240N+02451MA1999999101201MD1999999-0071REMSYN017333   20245 59007
0096830960999991986041018004-10917-037050FM-12+000699999V0201401N00311220001CN0200001N9+02861+02261100911ADDAA106000091AG10999GF102991021051012501001001MA1999999100841MD1999999-0151REMSYN011333   59015
0115830960999991986041100004-10917-037050FM-12+000699999V0201401N00311220001CN9999999N9+02721+02261101151ADDAA106000091AG10999GF101991011011012501001001KA1240M+03001MA1999999101081MD1999999-0051REMSYN017333   10300 59005
0115830960999991986041112004-10917-037050FM-12+000699999V0201801N00311045001CN0200001N9+02921+02501101271ADDAA106000091AG10999GF106991041021012501041001KA1240N+02431MA1999999101201MD1999999+0001REMSYN017333   20243 58000
0096830960999991986041118004-10917-037050FM-12+000699999V0201401N00311220001CN0200001N9+02911+02251100911ADDAA106000091AG10999GF101991011011012501001001MA1999999100841MD1999999+0001REMSYN011333   58000
0115830960999991986041200004-10917-037050FM-12+000699999V0200901N00311220001CN9999999N9+02781+02301101161ADDAA106000091AG10999GF101991011011012501001001KA1240M+03021MA1999999101091MD1999999+0011REMSYN017333   10302 58001
0115830960999991986041212004-10917-037050FM-12+000699999V0200901N00311045001CN0200001N9+02901+02521101341ADDAA106000091AG10999GF105991031021012501041001KA1240N+02351MA1999999101271MD1999999+0071REMSYN017333   20235 58007
0096830960999991986041218004-10917-037050FM-12+000699999V0201401N00361220001CN0200001N9+02921+02341101011ADDAA106000091AG10999GF101991011011012501001001MA1999999100941MD1999999+0101REMSYN011333   58010
0115830960999991986041300004-10917-037050FM-12+000699999V0200901N00361220001CN9999999N9+02781+02301101181ADDAA106000091AG10999GF101991011011012501001001KA1240M+03001MA1999999101111MD1999999+0021REMSYN017333   10300 58002
0101830960999991986041306004-10917-037050FM-12+000699999V0203201N00821105001CN0500001N9+99999+99999999999ADDAG10999GF107991001001999999001061MD1210101+9999EQDQ01+028323ATOT  Q02+026853ATOD  Q03+100333APOSLP
0115830960999991986041312004-10917-037050FM-12+000699999V0200901N00311045001CN0200001N9+02941+02541101281ADDAA106000091AG10999GF105991041021012501041001KA1240N+02661MA1999999101211MD1999999-0061REMSYN017333   20266 59006
0115830960999991986041400004-10917-037050FM-12+000699999V0200901N00511220001CN9999999N9+02781+02401101241ADDAA106000091AG10999GF102991021011012501001001KA1240M+03061MA1999999101171MD1999999+0061REMSYN017333   10306 58006
0121830960999991986041412004-10917-037050FM-12+000699999V0200901N00151015001CN0200001N9+02741+02471101271ADDAA124004091AG10999GF106991061081012501001001KA1240N+02491MA1999999101201MD1999999-0061REMSYN023333   20249 59006 60044
0115830960999991986041512004-10917-037050FM-12+000699999V0200901N00311015001CN0200001N9+02821+02441101251ADDAA106000091AG10999GF106991061081012501001001KA1240N+02621MA1999999101181MD1999999-0021REMSYN017333   20262 59002
0096830960999991986041518004-10917-037050FM-12+000699999V0200501N00051012001CN0200001N9+02731+02281101011ADDAA106000091AG10999GF108991081071012501999999MA1999999100941MD1999999+0081REMSYN011333   58008
0121830960999991986041600004-10917-037050FM-12+000699999V0200901N00311220001CN9999999N9+02741+02261101191ADDAA106006091AG10999GF101991011011012501001001KA1240M+02941MA1999999101121MD1999999+0041REMSYN023333   10294 58004 60061
0121830960999991986041612004-10917-037050FM-12+000699999V0200901N00151045001CN0200001N9+02901+02561101351ADDAA124006091AG10999GF105991031021012501041001KA1240N+02411MA1999999101281MD1999999+0101REMSYN023333   20241 58010 60064
0096830960999991986041618004-10917-037050FM-12+000699999V0200901N00101220001CN0200001N9+02901+02411101011ADDAA106000091AG10999GF104991021051012501031001MA1999999100941MD1999999+0001REMSYN011333   58000
0115830960999991986041700004-10917-037050FM-12+000699999V0200901N00311220001CN9999999N9+02741+02321101281ADDAA106000091AG10999GF102991021051012501001001KA1240M+02981MA1999999101211MD1999999+0091REMSYN017333   10298 58009
0115830960999991986041712004-10917-037050FM-12+000699999V0201401N00311045001CN0200001N9+02901+02391101371ADDAA106000091AG10999GF105991031021012501041001KA1240N+02621MA1999999101301MD1999999+0201REMSYN017333   20262 58020
0115830960999991986041800004-10917-037050FM-12+000699999V0201801N00211220001CN9999999N9+02681+02181101261ADDAA106000091AG10999GF101991011011012501001001KA1240M+02991MA1999999101191MD1999999-0021REMSYN017333   10299 59002
0121830960999991986041812004-10917-037050FM-12+000699999V0201801N00211015001CN0200001N9+02581+02371101351ADDAA124004091AG10999GF106991061081012501001001KA1240N+02391MA1999999101281MD1999999-0021REMSYN023333   20239 59002 60044
0096830960999991986041818004-10917-037050FM-12+000699999V0201401N00261045001CN0200001N9+02781+02341100961ADDAA106000091AG10999GF107991041051012501031001MA1999999100891MD1999999-0121REMSYN011333   59012
0143830960999991986041900004-10917-037050FM-12+000699999V0201801N00821012001CN9999999N9+02461+02051101301ADDAA106017091AG10999AY161061AY261061GF108991081071012501999999KA1240M+02881MA1999999101231MD1999999+0041MW1601REMSYN023333   10288 58004 60171
0143830960999991986041912004-10917-037050FM-12+000699999V0201801N00821012001CN0200001N9+02601+02441101311ADDAA124045091AG10999AY161061AY261061GF108991081071012501999999KA1240N+02351MA1999999101241MD1999999-0041MW1601REMSYN023333   20235 59004 60454
0102830960999991986041918004-10917-037050FM-12+000699999V0201801N00361012001CN0200001N9+02581+02311101031ADDAA106031091AG10999GF108991081071012501999999MA1999999100961MD1999999+0071REMSYN017333   58007 60311
0121830960999991986042012004-10917-037050FM-12+000699999V0203201N00051015001CN0200001N9+02641+02391101371ADDAA124035091AG10999GF106991061081012501001001KA1240N+02311MA1999999101301MD1999999+0061REMSYN023333   20231 58006 60354
0115830960999991986042100004-10917-037050FM-12+000699999V0201801N00311220001CN9999999N9+02661+02331101271ADDAA106000091AG10999GF103991031051012501001001KA1240M+02921MA1999999101201MD1999999-0051REMSYN017333   10292 59005
0115830960999991986042112004-10917-037050FM-12+000699999V0209999999999045001CN0200001N9+02601+02421101391ADDAA106000091AG10999GF105991031021012501041001KA1240N+02331MA1999999101321MD1999999+0021REMSYN017333   20233 58002
0096830960999991986042118004-10917-037050FM-12+000699999V0201401N00261045001CN0200001N9+02881+02521101031ADDAA106000091AG10999GF106991031051012501031001MA1999999100961MD1999999+0001REMSYN011333   58000
0134830960999991986042200004-10917-037050FM-12+000699999V0201801N00311220001CN9999999N9+02691+02451101281ADDAA106000091AG10999GF102991021051012501001001KA1240M+02941MA1999999101211MD1999999+0011REMSYN017333   10294 58001EQDQ01+999990APOSLP
0121830960999991986042212004-10917-037050FM-12+000699999V0203201N00151015001CN0200001N9+02681+02481101351ADDAA112004091AG10999GF106991061081012501001001KA1240N+02451MA1999999101281MD1999999-0041REMSYN023333   20245 59004 60042
0085830960999991986042218004-10917-037050FM-12+000699999V0200901N00151012001CN0200001N9+02761+02381101031ADDAG10999GF106991061051012501001001MA1999999100961MD1999999+0001REMSYN011333   58000
0115830960999991986042300004-10917-037050FM-12+000699999V0200501N00311220001CN9999999N9+02671+02311101201ADDAA106000091AG10999GF101991011011012501001001KA1240M+02881MA1999999101131MD1999999-0081REMSYN017333   10288 59008
0121830960999991986042312004-10917-037050FM-12+000699999V0200901N00311045001CN0200001N9+02841+02401101201ADDAA124006091AG10999GF105991031021012501041001KA1240N+02391MA1999999101131MD1999999-0151REMSYN023333   20239 59015 60064
0096830960999991986042318004-10917-037050FM-12+000699999V0200901N00411220001CN0200001N9+02811+02221100901ADDAA106000091AG10999GF101991011011012501001001MA1999999100831MD1999999-0131REMSYN011333   59013
0115830960999991986042400004-10917-037050FM-12+000699999V0200901N00311220001CN9999999N9+02701+02331101161ADDAA106000091AG10999GF101991011011012501001001KA1240M+02941MA1999999101091MD1999999-0041REMSYN017333   10294 59004
0115830960999991986042412004-10917-037050FM-12+000699999V0203201N00151045001CN0200001N9+02841+02421101251ADDAA106000091AG10999GF105991041021012501041001KA1240N+02291MA1999999101181MD1999999+0051REMSYN017333   20229 58005
0096830960999991986042418004-10917-037050FM-12+000699999V0200901N00311045001CN0200001N9+02841+02291100951ADDAA106000091AG10999GF106991031051012501031001MA1999999100881MD1999999+0051REMSYN011333   58005
0115830960999991986042500004-10917-037050FM-12+000699999V0200901N00151045001CN9999999N9+02721+02341101241ADDAA106000091AG10999GF106991031051012501031001KA1240M+02921MA1999999101171MD1999999+0081REMSYN017333   10292 58008
0121830960999991986042512004-10917-037050FM-12+000699999V0200901N00311015001CN0200001N9+02881+02411101371ADDAA124001091AG10999GF105991051081012501001001KA1240N+02431MA1999999101301MD1999999+0121REMSYN023333   20243 58012 60014
0096830960999991986042518004-10917-037050FM-12+000699999V0200901N00311220001CN0200001N9+02841+02381101031ADDAA106000091AG10999GF101991011051012501001001MA1999999100961MD1999999+0081REMSYN011333   58008
0115830960999991986042600004-10917-037050FM-12+000699999V0200901N00261220001CN9999999N9+02711+02131101251ADDAA106000091AG10999GF102991021051012501001001KA1240M+02941MA1999999101181MD1999999+0011REMSYN017333   10294 58001
0132830960999991986042612004-10917-037050FM-12+000699999V0200901N00311045001CN0200001N9+02901+02431101351ADDAA124000491AA299000591AG10999GF105991031021012501041001KA1240N+02231MA1999999101281MD1999999-0021REMSYN023333   20223 59002 69944
0121830960999991986042712004-10917-037050FM-12+000699999V0200501N00151015001CN0200001N9+02761+02441101281ADDAA124002091AG10999GF106991061081012501001001KA1240N+02351MA1999999101211MD1999999+0001REMSYN023333   20235 58000 60024
0115830960999991986042800004-10917-037050FM-12+000699999V0200901N00511220001CN9999999N9+02741+02361101181ADDAA106000091AG10999GF101991011011012501001001KA1240M+02941MA1999999101111MD1999999-0051REMSYN017333   10294 59005
0115830960999991986042812004-10917-037050FM-12+000699999V0203601N00151045001CN0200001N9+02881+02541101251ADDAA106000091AG10999GF105991031011012501051001KA1240N+02311MA1999999101181MD1999999-0101REMSYN017333   20231 59010
0096830960999991986042818004-10917-037050FM-12+000699999V0200901N00411220001CN0200001N9+02881+02541100921ADDAA106000091AG10999GF101991011011012501001001MA1999999100851MD1999999+0091REMSYN011333   58009
0115830960999991986042900004-10917-037050FM-12+000699999V0200901N00311220001CN9999999N9+02761+02401101241ADDAA106000091AG10999GF102991021011012501001001KA1240M+02991MA1999999101171MD1999999+0061REMSYN017333   10299 58006
0132830960999991986042912004-10917-037050FM-12+000699999V0201401N00311045001CN0200001N9+02901+02501101341ADDAA124000491AA299000591AG10999GF105991041021012501041001KA1240N+02411MA1999999101271MD1999999+0091REMSYN023333   20241 58009 69944
0143830960999991986043012004-10917-037050FM-12+000699999V0201801N00311012001CN0100001N9+02541+02351101391ADDAA124060091AG10999AY161061AY261061GF108991081071012501999999KA1240N+02311MA1999999101321MD1999999+0051MW1601REMSYN023333   20231 58005 60604
0102830960999991986043018004-10917-037050FM-12+000699999V0201801N00361012001CN0200001N9+02711+02261101181ADDAA106006091AG10999GF108991081071012501999999MA1999999101111MD1999999+0091REMSYN017333   58009 60061
0121830960999991986050100004-10917-037050FM-12+000699999V0201801N00311220001CN9999999N9+02701+02261101391ADDAA106000191AG10999GF102991021051012501001001KA1240M+02741MA1999999101321MD1999999+0011REMSYN023333   10274 58001 69911
0143830960999991986050112004-10917-037050FM-12+000699999V0202301N00311012001CN0200001N9+02461+02411101391ADDAA124012091AG10999AY161061AY261061GF108991081071012501999999KA1240N+02271MA1999999101321MD1999999+0001MW1601REMSYN023333   20227 58000 60124
0102830960999991986050118004-10917-037050FM-12+000699999V0201801N00621012001CN0200001N9+02521+02341101191ADDAA106004091AG10999GF108991081071012501999999MA1999999101121MD1999999+0011REMSYN017333   58001 60041
0143830960999991986050200004-10917-037050FM-12+000699999V0201801N00511007501CN9999999N9+02441+02271101501ADDAA106003091AG10999AY161061AY261061GF108991081071008001999999KA1240M+02901MA1999999101431MD1999999+0111MW1601REMSYN023333   10290 58011 60031
0102830960999991986050218004-10917-037050FM-12+000699999V0201801N00211012001CN0200001N9+02481+02381101311ADDAA106019091AG10999GF108991081071012501999999MA1999999101241MD1999999+0121REMSYN017333   58012 60191
0132830960999991986050300004-10917-037050FM-12+000699999V0201801N00151012001CN9999999N9+02481+02381101461ADDAA106000291AA299000391AG10999GF108991081071012501999999KA1240M+02521MA1999999101391MD1999999-0041REMSYN023333   10252 59004 69921
0143830960999991986050312004-10917-037050FM-12+000699999V0201801N00151012001CN0100001N9+02401+02301101571ADDAA124035091AG10999AY161061AY261061GF108991081071012501999999KA1240N+02311MA1999999101501MD1999999-0011MW1601REMSYN023333   20231 59001 60354
0102830960999991986050400004-10917-037050FM-12+000699999V0201801N00211012001CN0200001N9+02481+02381101311ADDAA106019091AG10999GF108991081071012501999999MA1999999101241MD1999999+0121REMSYN017333   58012 60191
0096830960999991986050418004-10917-037050FM-12+000699999V0201801N00311220001CN0200001N9+02741+02521101091ADDAA106000091AG10999GF104991041051012501001001MA1999999101021MD1999999-0121REMSYN011333   59012
0121830960999991986050500004-10917-037050FM-12+000699999V0201401N00261220001CN9999999N9+02601+02351101301ADDAA106007091AG10999GF102991021051012501001001KA1240M+02801MA1999999101231MD1999999-0141REMSYN023333   10280 59014 60071
0121830960999991986050512004-10917-037050FM-12+000699999V0209999999999045001CN0200001N9+02841+02481101431ADDAA124020091AG10999GF106991031021012501041001KA1240N+02231MA1999999101361MD1999999+0011REMSYN023333   20223 58001 60204
0096830960999991986050518004-10917-037050FM-12+000699999V0200901N00411220001CN0200001N9+02861+02481101121ADDAA106000091AG10999GF101991011011012501001001MA1999999101051MD1999999+0031REMSYN011333   58003
0096830960999991986050600004-10917-037050FM-12+000699999V0203601N00311045001CN0200001N9+00212-00222100921ADDAA106000091AG10999GF108991031051012501031061MD1310061+9999EQDQ01+027533ATOT  Q02+027103ATOD  
0115830960999991986050612004-10917-037050FM-12+000699999V0201801N00311045001CN0200001N9+02841+02421101391ADDAA106000091AG10999GF105991031021012501041001KA1240N+02521MA1999999101321MD1999999-0041REMSYN017333   20252 59004
0096830960999991986050618004-10917-037050FM-12+000699999V0201801N00311220001CN0200001N9+02841+02401101041ADDAA106000091AG10999GF102991021051012501001001MA1999999100971MD1999999+0081REMSYN011333   58008
0115830960999991986050712004-10917-037050FM-12+000699999V0201801N00311045001CN0200001N9+02841+02521101321ADDAA106000091AG10999GF106991031021012501041001KA1240N+02601MA1999999101251MD1999999-0071REMSYN017333   20260 59007
0097830960999991986050718004-10917-037050FM-12+000699999V0201101N99999220001CN0200001N9+02841+02261101071ADDAA106000091AG10001GF101991011021012501001001MA1999999101001EQDQ01+004113WOSPD Q020004113WOSPD 
0150830960999991986050800004-10917-037050FM-12+000699999V0200901N00211012001CN9999999N9+02651+02371101181ADDAA106000091AG10999GF106991061051012501001001KA1240M+02941MA1999999999999MD1999999-0071REMSYN017333   10294 59007EQDQ01+097113APOSP Q02 097113APOSP 
0121830960999991986050812004-10917-037050FM-12+000699999V0201801N00311045001CN0200001N9+02841+02521101351ADDAA124002091AG10999GF105991031021012501041001KA1240N+02541MA1999999101281MD1999999+0031REMSYN023333   20254 58003 60024
0096830960999991986050818004-10917-037050FM-12+000699999V0201401N00211220001CN0200001N9+02821+02241101061ADDAA106000091AG10999GF102991011011012501001011MA1999999100991MD1999999-0011REMSYN011333   59001
0121830960999991986050912004-10917-037050FM-12+000699999V0200501N00151045001CN0200001N9+02841+02501101351ADDAA124005091AG10999GF105991031021012501041001KA1240N+02371MA1999999101281MD1999999+0001REMSYN023333   20237 58000 60054
0096830960999991986050918004-10917-037050FM-12+000699999V0201801N00311220001CN0200001N9+02861+02481101031ADDAA106000091AG10999GF102991021011012501001001MA1999999100961MD1999999-0031REMSYN011333   59003
0115830960999991986051000004-10917-037050FM-12+000699999V0200901N00411220001CN9999999N9+02721+02431101351ADDAA106000091AG10999GF102991021011012501001001KA1240M+02941MA1999999101281MD1999999+0061REMSYN017333   10294 58006
0121830960999991986051012004-10917-037050FM-12+000699999V0202301N00151045001CN0200001N9+02841+02561101461ADDAA124001091AG10999GF105991031021012501041001KA1240N+02391MA1999999101391MD1999999-0131REMSYN023333   20239 59013 60014
0096830960999991986051018004-10917-037050FM-12+000699999V0201801N00311220001CN0200001N9+02841+02461101101ADDAA106000091AG10999GF101991011011012501001001MA1999999101031MD1999999+0071REMSYN011333   58007
0132830960999991986051100004-10917-037050FM-12+000699999V0200501N00211012001CN9999999N9+02611+02391101291ADDAA106000291AA299000391AG10999GF107991071051012501001001KA1240M+02961MA1999999101221MD1999999-0061REMSYN023333   10296 59006 69921
0162830960999991986051112004-10917-037050FM-12+000699999V0201801N001519999999N0100001N9+02461+02411101371ADDAA124013091AG10999AY161061AY261061GF108991999071012501999999KA1240N+02411MA1999999101301MD1999999-0091MW1601REMSYN023333   20241 59009 60134EQDQ01+000002SCOTLC
0102830960999991986051118004-10917-037050FM-12+000699999V0200501N00311012001CN0100001N9+02521+02381101121ADDAA106002091AG10999GF108991081071012501999999MA1999999101051MD1999999+0021REMSYN017333   58002 60021
0115830960999991986051200004-10917-037050FM-12+000699999V0202701N00101012001CN9999999N9+02401+02261101261ADDAA106000091AG10999GF108991081071012501999999KA1240M+02701MA1999999101191MD1999999-0031REMSYN017333   10270 59003
0121830960999991986051212004-10917-037050FM-12+000699999V0200501N00151012001CN0200001N9+02501+02341101271ADDAA124025091AG10999GF108991081071012501999999KA1240N+02271MA1999999101201MD1999999-0101REMSYN023333   20227 59010 60254
0115830960999991986051300004-10917-037050FM-12+000699999V0202301N00211220001CN9999999N9+02431+02131101171ADDAA106000091AG10999GF101991011011012501001001KA1240M+02781MA1999999101101MD1999999-0091REMSYN017333   10278 59009
0115830960999991986051312004-10917-037050FM-12+000699999V0200901N00311015001CN0200001N9+02581+02461101221ADDAA106000091AG10999GF108991081081012501001001KA1240N+02331MA1999999101201MD1999999-0021REMSYN017333   20233 59002
0115830960999991986051400004-10917-037050FM-12+000699999V0200501N00211007501CN9999999N9+02621+02331101291ADDAA106000091AG10999GF107991071051008001001001KA1240M+02811MA1999999101221MD1999999+0121REMSYN017333   10281 58012
0115830960999991986051412004-10917-037050FM-12+000699999V0200501N00151045001CN0200001N9+02721+02431101421ADDAA106000091AG10999GF105991031021012501041001KA1240N+02331MA1999999101351MD1999999+0151REMSYN017333   20233 58015
0062830960999991986051418004-10917-037050FM-12+000699999V0200901N00311220001CN0200001N9+02781+02301101161ADDAA106000091AG10999GF101991011011012501001001MA1999999101091
0115830960999991986051500004-10917-037050FM-12+000699999V0200901N00311220001CN9999999N9+02721+02341101391ADDAA106000091AG10999GF101991011011012501001001KA1240M+02901MA1999999101321MD1999999+0101REMSYN017333   10290 58010
0115830960999991986051512004-10917-037050FM-12+000699999V0200901N00311045001CN0200001N9+02841+02521101661ADDAA106000091AG10999GF105991031021012501041001KA1240N+02411MA1999999101591MD1999999+0241REMSYN017333   20241 58024
0096830960999991986051518004-10917-037050FM-12+000699999V0200901N00311220001CN0200001N9+02801+02311101361ADDAA106000091AG10999GF102991011011012501001011MA1999999101291MD1999999+0201REMSYN011333   58020
0134830960999991986051600004-10917-037050FM-12+000699999V0200901N00411220001CN9999999N9+02701+02221101541ADDAA106000091AG10999GF101991011011012501001001KA1240M+99999MA1999999101471MD1999999+0151REMSYN017333   10234 58015EQDQ01 +02342ATMX  
0132830960999991986051612004-10917-037050FM-12+000699999V0200901N00311045001CN0200001N9+02801+02521101521ADDAA124000691AA299000591AG10999GF105991031021012501041001KA1240N+02471MA1999999101451MD1999999-0141REMSYN023333   20247 59014 69964
0096830960999991986051618004-10917-037050FM-12+000699999V0200901N00101220001CN0200001N9+02841+02351101221ADDAA106000091AG10999GF103991031051012501001001MA1999999101151MD1999999-0141REMSYN011333   59014
0115830960999991986051700004-10917-037050FM-12+000699999V0201801N00411012001CN9999999N9+02621+02291101511ADDAA106000091AG10999GF108991081051012501999999KA1240M+02921MA1999999101441MD1999999-0031REMSYN017333   10292 59003
0115830960999991986051712004-10917-037050FM-12+000699999V0200901N00311045001CN0200001N9+02841+02401101581ADDAA106000091AG10999GF105991031021012501041001KA1240N+02501MA1999999101511MD1999999+0061REMSYN017333   20250 58006
0096830960999991986051718004-10917-037050FM-12+000699999V0201401N00311045001CN0200001N9+02841+02121101181ADDAA106000091AG10999GF106991031051012501031001MA1999999101111MD1999999-0041REMSYN011333   59004
0115830960999991986051800004-10917-037050FM-12+000699999V0201801N00151012001CN9999999N9+02481+02231101471ADDAA106000091AG10999GF108991081051012501999999KA1240M+02911MA1999999101401MD1999999-0041REMSYN017333   10291 59004
0115830960999991986051812004-10917-037050FM-12+000699999V0209999999999045001CN0200001N9+99999+99999101521ADDAA106000091AG10999GF105991031021012501041001KA1240N+02231MA1999999101451MD1999999-0061REMSYN017333   20223 59006
0102830960999991986051818004-10917-037050FM-12+000699999V0200501N00151012001CN0200001N9+02501+02231101291ADDAA106003091AG10999GF108991081051012501999999MA1999999101221MD1999999+0111REMSYN017333   58011 60031
0121830960999991986051900004-10917-037050FM-12+000699999V0202701N00101220001CN9999999N9+02331+02051101471ADDAA106000191AG10999GF101991011011012501001001KA1240M+02861MA1999999101401MD1999999+0001REMSYN023333   10286 58000 69911
0121830960999991986051912004-10917-037050FM-12+000699999V0201801N00151012001CN0200001N9+02641+02441101561ADDAA124009091AG10999GF106991061031012501001001KA1240N+02191MA1999999101491MD1999999+0041REMSYN023333   20219 58004 60094
0102830960999991986051918004-10917-037050FM-12+000699999V0200901N00361012001CN0200001N9+02781+02481101281ADDAA106002091AG10999GF106991061051012501001001MA1999999101211MD1999999-0011REMSYN017333   59001 60021
0132830960999991986052000004-10917-037050FM-12+000699999V0201801N00311220001CN9999999N9+02711+02311101531ADDAA106000491AA299000591AG10999GF103991031051012501001001KA1240M+02871MA1999999101461MD1999999+0061REMSYN023333   10287 58006 69941
0121830960999991986052012004-10917-037050FM-12+000699999V0201801N00311045001CN0200001N9+02841+02381101451ADDAA124002091AG10999GF105991031021012501041001KA1240N+02491MA1999999101381MD1999999-0111REMSYN023333   20249 59011 60024
0096830960999991986052018004-10917-037050FM-12+000699999V0201801N00311012001CN0200001N9+02781+02211101181ADDAA106000091AG10999GF107991071051012501001001MA1999999101111MD1999999-0101REMSYN011333   59010
0084830960999991986052103004-10917-037050FM-12+000699999V0203201N001019999999N0500001N9+01421-00191101541ADDAG10999GF108991999999999999999999MA1999999101471MD1810051+9999EQDQ01+999990APOSP 
0104830960999991986052112004-10917-037050FM-12+000699999V0202301N00151045001CN0200001N9+02701+02411101411ADDAG10999GF105991031021008001041001KA1240N+02231MA1999999101341MD1999999-0041REMSYN017333   20223 59004
0085830960999991986052118004-10917-037050FM-12+000699999V0201801N00311220001CN0200001N9+02801+02271101111ADDAG10999GF101991011011012501001001MA1999999101041MD1999999-0071REMSYN011333   59007
0104830960999991986052200004-10917-037050FM-12+000699999V0201801N00311220001CN9999999N9+02661+02181101351ADDAG10999GF101991011011012501001001KA1240M+02881MA1999999101281MD1999999-0041REMSYN017333   10288 59004
0104830960999991986052212004-10917-037050FM-12+000699999V0201801N00311045001CN0200001N9+02841+02481101391ADDAG10999GF105991031021012501041001KA1240N+02581MA1999999101321MD1999999-0021REMSYN017333   20258 59002
0085830960999991986052218004-10917-037050FM-12+000699999V0201801N00461220001CN0200001N9+02801+02421101221ADDAG10999GF101991011011012501001001MA1999999101151MD1999999+0111REMSYN011333   58011
0104830960999991986052300004-10917-037050FM-12+000699999V0201801N00101220001CN9999999N9+02621+02211101471ADDAG10999GF102991021011012501001001KA1240M+02901MA1999999101401MD1999999+0121REMSYN017333   10290 58012
0121830960999991986052312004-10917-037050FM-12+000699999V0201801N00311045001CN0200001N9+02841+02331101611ADDAA124001091AG10999GF105991031021012501041001KA1240N+02331MA1999999101541MD1999999+0221REMSYN023333   20233 58022 60014
0102830960999991986052318004-10917-037050FM-12+000699999V0201801N00311012001CN0200001N9+02541+02331101231ADDAA106002091AG10999GF108991081071012501999999MA1999999101161MD1999999+0011REMSYN017333   58001 60021
0121830960999991986052400004-10917-037050FM-12+000699999V0201801N00311012001CN9999999N9+02551+02291101381ADDAA106007091AG10999GF108991081071012501999999KA1240M+02921MA1999999101311MD1999999-0091REMSYN023333   10292 59009 60071
0121830960999991986052412004-10917-037050FM-12+000699999V0201401N00311015001CN0200001N9+02721+02431101711ADDAA124016091AG10999GF106991061081012501001001KA1240N+02331MA1999999101541MD1999999+0001REMSYN023333   20233 58000 60164
0143830960999991986052512004-10917-037050FM-12+000699999V0201401N00151012001CN0200001N9+02441+02351101491ADDAA124002091AG10999AY161061AY261061GF108991081071012501999999KA1240N+02331MA1999999101421MD1999999-0121MW1601REMSYN023333   20233 59012 60024
0102830960999991986052518004-10917-037050FM-12+000699999V0201801N00511012001CN0200001N9+02761+02281101211ADDAA106008091AG10999GF108991081071012501999999MA1999999101141MD1999999-0061REMSYN017333   59006 60081
0104830960999991986052600004-10917-037050FM-12+000699999V0201801N00311012001CN9999999N9+02641+02161101421ADDAG10999GF107991071051012501001001KA1240M+02821MA1999999101351MD1999999-0091REMSYN017333   10282 59009
0104830960999991986052612004-10917-037050FM-12+000699999V0201801N00311045001CN0200001N9+02801+02521101471ADDAG10999GF106991031021012501041001KA1240N+02311MA1999999101401MD1999999-0021REMSYN017333   20231 59002
0085830960999991986052618004-10917-037050FM-12+000699999V0200901N00411012001CN0200001N9+02721+02341101271ADDAG10999GF106991061051012501001001MA1999999101201MD1999999+0061REMSYN011333   58006
0104830960999991986052700004-10917-037050FM-12+000699999V0200501N00461012001CN9999999N9+02521+02271101511ADDAG10999GF108991081071012501999999KA1240M+02891MA1999999101441MD1999999+0091REMSYN017333   10289 58009
0143830960999991986052712004-10917-037050FM-12+000699999V0202701N00051007501CN0020001N9+02301+02221101561ADDAA124019091AG10999AY161061AY261061GF108991081071008001999999KA1240N+02231MA1999999101491MD1999999+0091MW1601REMSYN023333   20223 58009 60194
0102830960999991986052718004-10917-037050FM-12+000699999V0201801N00361012001CN0200001N9+02601+02231101201ADDAA106007091AG10999GF108991081071012501999999MA1999999101131MD1999999-0071REMSYN017333   59007 60071
0085830960999991986052721004-10917-037050FM-12+000699999V0203101N00151220001CN0500001N9+99999+99999999999ADDAG10999GF100991001001999999001001MD1210141+9999EQDQ01+028073ATOT  Q02+027773ATOD  
0132830960999991986052800004-10917-037050FM-12+000699999V0201801N00411220001CN9999999N9+02581+02171101431ADDAA106000491AA299000591AG10999GF101991011011012501001001KA1240M+02641MA1999999101361MD1999999-0081REMSYN023333   10264 59008 69941
0085830960999991986052803004-10917-037050FM-12+000699999V0202901N00101220001CN0500001N9+01841+00022100462ADDAG10999GF101991001001999999001021MD1810111+9999EQDQ01+027343ATOD  Q02+100463APOSLP
0121830960999991986052812004-10917-037050FM-12+000699999V0201801N00151045001CN0200001N9+02801+02561101431ADDAA124011091AG10999GF105991031021012501041001KA1240N+02231MA1999999101361MD1999999-0131REMSYN023333   20223 59013 60114
0102830960999991986052818004-10917-037050FM-12+000699999V0203201N00051012001CN0200001N9+02361+02091101241ADDAA106000591AG10999GF108991081071012501999999MA1999999101171MD1999999+0041REMSYN017333   58004 69951
0104830960999991986052900004-10917-037050FM-12+000699999V0200901N00261220001CN9999999N9+02621+02351101301ADDAG10999GF104991041051012501001001KA1240M+02861MA1999999101231MD1999999-0031REMSYN017333   10286 59003
0132830960999991986052912004-10917-037050FM-12+000699999V0200901N00151015001CN0200001N9+02541+02381101491ADDAA124000891AA299001091AG10999GF106991061081012501001001KA1240N+02311MA1999999101421MD1999999+0061REMSYN023333   20231 58006 69984
0085830960999991986052918004-10917-037050FM-12+000699999V0201801N00361220001CN0200001N9+02781+02011101221ADDAG10999GF101991011011012501001001MA1999999101151MD1999999-0021REMSYN011333   59002
0132830960999991986053000004-10917-037050FM-12+000699999V0201801N00311220001CN9999999N9+02561+02191101421ADDAA106000291AA299000391AG10999GF102991021051012501001001KA1240M+02841MA1999999101351MD1999999+0121REMSYN023333   10284 58012 69921
0132830960999991986053012004-10917-037050FM-12+000699999V0201801N00311045001CN0200001N9+02761+02401101511ADDAA124000691AA299000591AG10999GF105991031021012501041001KA1240N+02451MA1999999101441MD1999999+0021REMSYN023333   20245 58002 69964
0085830960999991986053018004-10917-037050FM-12+000699999V0201401N00261220001CN0200001N9+02761+02141101281ADDAG10001GF101991011011012501001001MA1999999101151MD1999999+0001REMSYN011333   58000
0104830960999991986053100004-10917-037050FM-12+000699999V0201401N00151220001CN9999999N9+02581+02101101411ADDAG10999GF101991011011012501001001KA1240M+02861MA1999999101341MD1999999-0051REMSYN017333   10286 59005
0104830960999991986053112004-10917-037050FM-12+000699999V0203601N00151045001CN0200001N9+02741+02321101621ADDAG10999GF105991031021012501041001KA1240N+02061MA1999999101551MD1999999+0111REMSYN017333   20206 58011
0085830960999991986053118004-10917-037050FM-12+000699999V0201401N00311220001CN0200001N9+02721+02241101241ADDAG10999GF101991011011012501001001MA1999999101171MD1999999+0021REMSYN011333   58002
0104830960999991986060100004-10917-037050FM-12+000699999V0201401N00311220001CN9999999N9+02581+02211101451ADDAG10999GF101991011011012501001001KA1240M+02881MA1999999101381MD1999999+0041REMSYN017333   10288 58004
0123830960999991986060112004-10917-037050FM-12+000699999V0201401N00051045001CN0200001N9+02721+02501101431ADDAG10999GF105991031021012501041001KA1240M+99999MA1999999101361MD1999999-0191REMSYN017333   10225 59019EQDQ01 +02252ATMX  
0085830960999991986060118004-10917-037050FM-12+000699999V0201801N00311045001CN0200001N9+02771+02191101171ADDAG10999GF106991041051012501031001MA1999999101101MD1999999-0071REMSYN011333   59007
0104830960999991986060200004-10917-037050FM-12+000699999V0201801N00151012001CN9999999N9+02671+02181101471ADDAG10999GF106991061051012501001001KA1240M+02881MA1999999101401MD1999999+0021REMSYN017333   10288 58002
0121830960999991986060212004-10917-037050FM-12+000699999V0201801N00151015001CN0200001N9+02741+02451101561ADDAA124003091AG10999GF106991061081012501001001KA1240N+02451MA1999999101491MD1999999+0131REMSYN023333   20245 58013 60034
0085830960999991986060218004-10917-037050FM-12+000699999V0201801N00311012001CN0200001N9+02741+02261101271ADDAG10999GF106991061051012501001001MA1999999101201MD1999999+0101REMSYN011333   58010
0104830960999991986060300004-10917-037050FM-12+000699999V0201801N00311220001CN9999999N9+02701+02221101471ADDAG10999GF102991021011012501001001KA1240M+02861MA1999999101401MD1999999+0001REMSYN017333   10286 58000
0121830960999991986060312004-10917-037050FM-12+000699999V0201401N00311015001CN0022001N9+02561+02471101601ADDAA124004091AG10999GF106991061081012501001001KA1240N+02231MA1999999101531MD1999999+0041REMSYN023333   20223 58004 60044
0102830960999991986060318004-10917-037050FM-12+000699999V0201801N00311220001CN0200001N9+02761+02341101331ADDAA106001091AG10999GF102991021051012501001001MA1999999101261MD1999999+0061REMSYN017333   58006 60011
0121830960999991986060412004-10917-037050FM-12+000699999V0201801N00311015001CN0200001N9+02681+02411101731ADDAA124004091AG10999GF106991061081012501001001KA1240N+02331MA1999999101661MD1999999+0131REMSYN023333   20233 58013 60044
0102830960999991986060418004-10917-037050FM-12+000699999V0201801N00511012001CN0200001N9+02631+02141101451ADDAA106001091AG10999GF108991081051012501999999MA1999999101381MD1999999+0121REMSYN017333   58012 60011
0104830960999991986060500004-10917-037050FM-12+000699999V0201801N00311012001CN9999999N9+02541+02171101621ADDAG10999GF108991081071012501999999KA1240M+02801MA1999999101551MD1999999+0011REMSYN017333   10280 58001
0121830960999991986060512004-10917-037050FM-12+000699999V0201401N00311015001CN0200001N9+02641+02421101761ADDAA124005091AG10999GF106991061081012501001001KA1240N+02311MA1999999101691MD1999999+0031REMSYN023333   20231 58003 60054
0113830960999991986060518004-10917-037050FM-12+000699999V0201801N00311012001CN0200001N9+02471+02011101381ADDAA106000291AA299000391AG10999GF108991081071012501999999MA1999999101311MD1999999-0071REMSYN017333   59007 69921
0121830960999991986060600004-10917-037050FM-12+000699999V0201801N00311012001CN9999999N9+02261+01991101491ADDAA106001091AG10999GF106991061051012501001001KA1240M+02761MA1999999101421MD1999999-0131REMSYN023333   10276 59013 60011
0140830960999991986060612004-10917-037050FM-12+000699999V0202301N00151045001CN0200001N9+02501+02311101671ADDAA124002091AG10999GF105991031021012501041001KA1240N+02041MA1999999101601MD1999999-0091REMSYN023333   20204 59009 60024EQDQ01+999990APOSP 
0096830960999991986060618004-10917-037050FM-12+000699999V0201801N00361220001CN0200001N9+02621+02211101461ADDAA106000091AG10999GF104991041051012501001001MA1999999101391MD1999999+0081REMSYN011333   58008
0115830960999991986060700004-10917-037050FM-12+000699999V0201801N00311012001CN9999999N9+02401+02131101651ADDAA106000091AG10999GF108991081051012501999999KA1240M+02761MA1999999101581MD1999999+0161REMSYN017333   10276 58016
0140830960999991986060712004-10917-037050FM-12+000699999V0201401N00311012001CN0200001N9+02261+02121101651ADDAA124004091AG10999GF108991999071012501051999KA1240N+02061MA1999999101581MD1999999-0021REMSYN023333   20206 59002 60044EQDQ01+000082SCOTLC
0102830960999991986060718004-10917-037050FM-12+000699999V0201801N00151012001CN0200001N9+02641+02051101391ADDAA106005091AG10999GF107991071051012501001001MA1999999101321MD1999999-0071REMSYN017333   59007 60051
0115830960999991986060800004-10917-037050FM-12+000699999V0209999999999220001CN9999999N9+02581+02061101611ADDAA106000091AG10999GF102991021051012501001001KA1240M+02701MA1999999101541MD1999999-0041REMSYN017333   10270 59004
0121830960999991986060812004-10917-037050FM-12+000699999V0201801N00311045001CN0200001N9+02741+02501101631ADDAA124005091AG10999GF105991031021012501041001KA1240N+02251MA1999999101561MD1999999-0021REMSYN023333   20225 59002 60054
0096830960999991986060818004-10917-037050FM-12+000699999V0201801N00311220001CN0200001N9+02701+02061101451ADDAA106000091AG10001GF102991021051012501001001MA1999999101381MD1999999+0061REMSYN011333   58006
0115830960999991986060900004-10917-037050FM-12+000699999V0201801N00311220001CN9999999N9+02541+02021101651ADDAA106000091AG10001GF104991041051012501001001KA1240M+02801MA1999999101581MD1999999+0041REMSYN017333   10280 58004
0121830960999991986060912004-10917-037050FM-12+000699999V0201801N00311045001CN0200001N9+02761+02461101751ADDAA124001091AG10999GF105991031021012501041001KA1240N+02431MA1999999101681MD1999999+0121REMSYN023333   20243 58012 60014
0096830960999991986060918004-10917-037050FM-12+000699999V0201801N00411220001CN0200001N9+02781+02161101481ADDAA106000091AG10999GF101991011011012501001001MA1999999101411MD1999999+0031REMSYN011333   58003
0115830960999991986061000004-10917-037050FM-12+000699999V0201801N00311220001CN9999999N9+02581+02061101691ADDAA106000091AG10999GF101991011011012501001001KA1240M+02861MA1999999101621MD1999999+0041REMSYN017333   10286 58004
0143830960999991986061012004-10917-037050FM-12+000699999V0201801N00151012001CN0200001N9+02381+02241101761ADDAA124005091AG10999AY161061AY261061GF108991081071012501999999KA1240N+02231MA1999999101691MD1999999+0011MW1601REMSYN023333   20223 58001 60054
0102830960999991986061018004-10917-037050FM-12+000699999V0201801N00311012001CN0200001N9+02681+02311101451ADDAA106005091AG10999GF106991061051012501001001MA1999999101381MD1999999-0031REMSYN017333   59003 60051
0104830960999991986061100004-10917-037050FM-12+000699999V0201801N00311012001CN9999999N9+02541+02061101641ADDAG10999GF106991061051012501001001KA1240M+02761MA1999999101571MD1999999-0051REMSYN017333   10276 59005
0121830960999991986061112004-10917-037050FM-12+000699999V0201801N00311015001CN0200001N9+02581+02401101641ADDAA124015091AG10999GF106991061081012501001001KA1240N+02151MA1999999101571MD1999999-0121REMSYN023333   20215 59012 60154
0102830960999991986061118004-10917-037050FM-12+000699999V0201801N00361220001CN0200001N9+02711+02391101361ADDAA106000391AG10999GF104991041051012501001001MA1999999101291MD1999999-0091REMSYN017333   59009 69931
0143830960999991986061212004-10917-037050FM-12+000699999V0200601N00311012001CN0100001N9+02341+02261101661ADDAA124019091AG10999AY161061AY261061GF108991081071012501999999KA1240N+02211MA1999999101591MD1999999-0021MW1601REMSYN023333   20221 59002 60194
0124830960999991986061218004-10917-037050FM-12+000699999V0200501N00311007501CN0100001N9+02391+02091101461ADDAA106002091AG10999AY161061AY261061GF108991081071008001999999MA1999999101391MD1999999+0101MW1601REMSYN017333   58010 60021
0095830960999991986061300004-10917-037050FM-12+000699999V0200901N00311012001CN9999999N9+02601+02231101661ADDAA106000091AG10999GF108991081071012501999999KA1240M+02601MA1999999101591REMSYN011333   10260
0121830960999991986061312004-10917-037050FM-12+000699999V0200901N00821045001CN0200001N9+02681+02411101721ADDAA124005091AG10999GF105991031021012501041001KA1240N+02331MA1999999101651MD1999999+0061REMSYN023333   20233 58006 60054
0096830960999991986061318004-10917-037050FM-12+000699999V0201801N00461220001CN0200001N9+02681+02091101061ADDAA106000091AG10999GF101991011011012501001001MA1999999100991MD1999999-0401REMSYN011333   59040
0115830960999991986061400004-10917-037050FM-12+000699999V0201801N00311220001CN9999999N9+02531+02051101631ADDAA106000091AG10999GF101991011011012501001001KA1240M+02801MA1999999101561MD1999999-0031REMSYN017333   10280 59003
0115830960999991986061412004-10917-037050FM-12+000699999V0201401N00211045001CN0200001N9+02661+02431101761ADDAA106000091AG10999GF105991041021012501041001KA1240N+02431MA1999999101691MD1999999+0041REMSYN017333   20243 58004
0121830960999991986061512004-10917-037050FM-12+000699999V0201801N00311015001CN0200001N9+02681+02411101801ADDAA124002091AG10999GF106991061081012501001001KA1240N+02271MA1999999101731MD1999999+0041REMSYN023333   20227 58004 60024
0096830960999991986061518004-10917-037050FM-12+000699999V0201401N00311220001CN0200001N9+02701+02331101491ADDAA106000091AG10999GF101991011011012501001001MA1999999101431MD1999999+0071REMSYN011333   58007
0121830960999991986061612004-10917-037050FM-12+000699999V0201801N00151015001CN0200001N9+02521+02381101701ADDAA124002091AG10999GF106991061081012501001001KA1240N+02211MA1999999101631MD1999999-0101REMSYN023333   20221 59010 60024
0115830960999991986061700004-10917-037050FM-12+000699999V0201801N00311220001CN9999999N9+02481+02111101721ADDAA106000091AG10999GF102991021051012501001001KA1240M+02781MA1999999101651MD1999999+0131REMSYN017333   10278 58013
0115830960999991986061712004-10917-037050FM-12+000699999V0201801N00311045001CN0200001N9+02681+02331101691ADDAA106000091AG10999GF105991031021012501041001KA1240N+02431MA1999999101621MD1999999-0101REMSYN017333   20243 59010
0096830960999991986061718004-10917-037050FM-12+000699999V0201801N00411220001CN0200001N9+02691+02411101511ADDAA106000091AG10999GF101991011011012501001001MA1999999101441MD1999999-0021REMSYN011333   59002
0115830960999991986061800004-10917-037050FM-12+000699999V0201801N00411012001CN9999999N9+02541+02271101691ADDAA106000091AG10999GF108991061051012501031999KA1240M+02781MA1999999101621MD1999999-0031REMSYN017333   10278 59003
0115830960999991986061812004-10917-037050FM-12+000699999V0201801N00311045001CN0200001N9+02701+02501101861ADDAA106000091AG10999GF105991031011012501031001KA1240N+02411MA1999999101761MD1999999+0141REMSYN017333   20241 58014
0096830960999991986061818004-10917-037050FM-12+000699999V0201801N00461220001CN0200001N9+02691+02311101511ADDAA106000091AG10999GF104991021051012501031001MA1999999101441MD1999999+0001REMSYN011333   58000
0121830960999991986061912004-10917-037050FM-12+000699999V0201801N00311045001CN0200001N9+02681+02461101751ADDAA124001091AG10999GF105991031021012501041001KA1240N+02411MA1999999101681MD1999999-0081REMSYN023333   20241 59008 60014
0115830960999991986062000004-10917-037050FM-12+000699999V0201801N00361220001CN9999999N9+02521+02231101661ADDAA106000091AG10999GF101991011011012501001001KA1240M+02811MA1999999101591MD1999999+0031REMSYN017333   10281 58003
0115830960999991986062012004-10917-037050FM-12+000699999V0201801N00311045001CN0200001N9+02681+02451101691ADDAA106000091AG10999GF105991031021012501041001KA1240N+02431MA1999999101621MD1999999-0061REMSYN017333   20243 59006
0096830960999991986062018004-10917-037050FM-12+000699999V0201801N00361220001CN0200001N9+02661+02331101431ADDAA106000091AG10999GF102991021011012501001001MA1999999101361MD1999999+0161REMSYN011333   58016
0115830960999991986062100004-10917-037050FM-12+000699999V0201801N00361220001CN9999999N9+02501+02231101671ADDAA106000091AG10999GF101991011011012501001001KA1240M+02801MA1999999101601MD1999999+0011REMSYN017333   10280 58001
0121830960999991986062112004-10917-037050FM-12+000699999V0201801N00311015001CN0200001N9+02641+02441101071ADDAA124005091AG10001GF106991061081012501001001KA1240N+02271MA1999999101701MD1999999+0081REMSYN023333   20227 58008 60054
0096830960999991986062118004-10917-037050FM-12+000699999V0201801N02571220001CN0200001N9+02681+02311101541ADDAA106000091AG10999GF101991011011012501001001MA1999999101441MD1999999+0081REMSYN011333   58008
0115830960999991986062200004-10917-037050FM-12+000699999V0201801N00511220001CN9999999N9+02541+02271101691ADDAA106000091AG10999GF102991021011012501001001KA1240M+02781MA1999999101621MD1999999+0021REMSYN017333   10278 58002
0121830960999991986062212004-10917-037050FM-12+000699999V0201801N00311045001CN0200001N9+02681+02481101831ADDAA124002091AG10999GF105991031021012501041001KA1240N+02331MA1999999101761MD1999999+0061REMSYN023333   20233 58006 60024
0096830960999991986062218004-10917-037050FM-12+000699999V0201801N00261012001CN0200001N9+02701+02331101591ADDAA106000091AG10999GF106991061051012501001001MA1999999101521MD1999999+0081REMSYN011333   58008
0115830960999991986062300004-10917-037050FM-12+000699999V0201801N00311012001CN9999999N9+02501+02291101691ADDAA106000091AG10999GF106991061051012501001001KA1240M+02781MA1999999101621MD1999999+0001REMSYN017333   10278 58000
0132830960999991986062312004-10917-037050FM-12+000699999V0201801N00311015001CN0200001N9+02681+02311101811ADDAA124000491AA299000591AG10999GF106991061081012501001001KA1240N+02351MA1999999101741MD1999999-0021REMSYN023333   20235 59002 69944
0096830960999991986062318004-10917-037050FM-12+000699999V0201801N00311220001CN0200001N9+02701+02221101581ADDAA106000091AG10999GF101991011011012501001001MA1999999101511MD1999999-0011REMSYN011333   59001
0115830960999991986062400004-10917-037050FM-12+000699999V0201801N00311220001CN9999999N9+02541+02061101721ADDAA106000091AG10999GF101991011011012501001001KA1240M+02781MA1999999101651MD1999999+0031REMSYN017333   10278 58003
0121830960999991986062412004-10917-037050FM-12+000699999V0201401N00511012001CN0200001N9+02561+02081101731ADDAA124005091AG10999GF108991081071012501999999KA1240N+02201MA1999999101661MD1999999-0151REMSYN023333   20220 59015 60054
0096830960999991986062418004-10917-037050FM-12+000699999V0201801N00571012001CN0200001N9+02581+02101101591ADDAA106000091AG10999GF108991081071012501999999MA1999999101521MD1999999+0011REMSYN011333   58001
0115830960999991986062500004-10917-037050FM-12+000699999V0201401N00511012001CN9999999N9+02531+02071101661ADDAA106000091AG10999GF108991081051012501999999KA1240M+02681MA1999999101591MD1999999-0061REMSYN017333   10268 59006
0115830960999991986062512004-10917-037050FM-12+000699999V0201801N00461220001CN0200001N9+02661+02181101711ADDAA106000091AG10999GF102991021011012501001001KA1240N+02351MA1999999101641MD1999999+0121REMSYN017333   20235 58012
0096830960999991986062518004-10917-037050FM-12+000699999V0201401N00311220001CN0200001N9+02641+02161101561ADDAA106000091AG10999GF101991011051012501001001MA1999999101491MD1999999-0031REMSYN011333   59003
0115830960999991986062600004-10917-037050FM-12+000699999V0201401N00311220001CN9999999N9+02411+02031101711ADDAA106000091AG10999GF101991011011012501001001KA1240M+02761MA1999999101641MD1999999+0051REMSYN017333   10276 58005
0096830960999991986062618004-10917-037050FM-12+000699999V0201801N00151045001CN0200001N9+02601+02191101461ADDAA106000091AG10999GF106991041051012501031001MA1999999101391MD1999999-0101REMSYN011333   59010
0115830960999991986062700004-10917-037050FM-12+000699999V0201401N00151012001CN9999999N9+02401+02131101611ADDAA106000091AG10999GF106991061051012501001001KA1240M+02661MA1999999101541MD1999999-0101REMSYN017333   10266 59010
0096830960999991986062718004-10917-037050FM-12+000699999V0200901N00261220001CN0200001N9+02581+02271101341ADDAA106000091AG10999GF101991011011012501001001MA1999999101271MD1999999-0121REMSYN011333   59012
0115830960999991986062800004-10917-037050FM-12+000699999V0200901N00311220001CN9999999N9+02521+02191101511ADDAA106000091AG10999GF102991021051012501001001KA1240M+02701MA1999999101441MD1999999-0101REMSYN017333   10270 59010
0115830960999991986062812004-10917-037050FM-12+000699999V0201801N00311220001CN0200001N9+02461+02191101521ADDAA106000091AG10999GF102991021051012501001001KA1240N+02041MA1999999101451MD1999999-0091REMSYN017333   20204 59009
0102830960999991986062818004-10917-037050FM-12+000699999V0202301N00051045001CN0200001N9+02581+02251101341ADDAA106001091AG10999GF106991041051012501031001MA1999999101271MD1999999+0001REMSYN017333   58000 60011
0115830960999991986062900004-10917-037050FM-12+000699999V0201401N00261220001CN9999999N9+02501+02191101471ADDAA106000091AG10999GF104991041051012501001001KA1240M+02701MA1999999101401MD1999999-0041REMSYN017333   10270 59004
0121830960999991986062912004-10917-037050FM-12+000699999V0201401N00211045001CN0200001N9+02621+02351101481ADDAA124005091AG10999GF106991041051012501031001KA1240N+02271MA1999999101411MD1999999-0071REMSYN023333   20227 59007 60054
0115830960999991986063000004-10917-037050FM-12+000699999V0200901N00211220001CN9999999N9+02511+02231101431ADDAA106000091AG10999GF104991041051012501001001KA1240M+02741MA1999999101361MD1999999-0041REMSYN017333   10274 59004
0121830960999991986063012004-10917-037050FM-12+000699999V0202701N00151220001CN0200001N9+02381+02031101681ADDAA124001091AG10999GF102991021051012501001001KA1240N+02171MA1999999101611MD1999999+0201REMSYN023333   20217 58020 60014
0096830960999991986063018004-10917-037050FM-12+000699999V0201801N00311012001CN0200001N9+02621+02251101381ADDAA106000091AG10999GF108991081051012501999999MA1999999101311MD1999999+0061REMSYN011333   58006
0115830960999991986070100004-10917-037050FM-12+000699999V0201401N00311220001CN9999999N9+02501+02111101591ADDAA106000091AG10999GF104991041051012501001001KA1240M+02711MA1999999101521MD1999999+0161REMSYN017333   10271 58016
0132830960999991986070112004-10917-037050FM-12+000699999V0201801N00261220001CN0200001N9+02701+02171101781ADDAA118000991AA299001091AG10999GF102991021051012501001001KA1240N+02201MA1999999101711MD1999999+0101REMSYN023333   20220 58010 69993
0096830960999991986070118004-10917-037050FM-12+000699999V0200901N00311045001CN0200001N9+02621+02071101561ADDAA106000091AG10999GF106991041051012501031001MA1999999101431MD1999999+0121REMSYN011333   58012
0115830960999991986070200004-10917-037050FM-12+000699999V0200901N00151012001CN9999999N9+02561+02191101691ADDAA106000091AG10999GF106991061051012501001001KA1240M+02801MA1999999101621MD1999999+0101REMSYN017333   10280 58010
0102830960999991986070218004-10917-037050FM-12+000699999V0201401N00151012001CN0200001N9+02541+02211101611ADDAA106005091AG10999GF108991081051012501999999MA1999999101541MD1999999+0111REMSYN017333   58011 60051
0115830960999991986070300004-10917-037050FM-12+000699999V0200501N00311012001CN9999999N9+02341+02111101891ADDAA106000091AG10999GF108991081051012501999999KA1240M+02781MA1999999101821MD1999999+0201REMSYN017333   10278 58020
