0120827980999992010010100004-07100-034867FM-15+0066SBJP V0209999C000012200019N0112651N1+02701+02301999999ADDGA1021+006001999GF102991999999999999999999MA1101291999999REMMET051METAR SBJP 010000Z 00000KT 9999 FEW020 27/23 Q1013;
0143827980999992010010101004-07100-034867FM-15+0066SBJP V0209999C000012200019N0112651N1+02701+02301999999ADDGA1021+006001999GA2041+021001999GF104991999999999999999999MA1101291999999REMMET058METAR SBJP 010100Z 00000KT 9999 FEW020 SCT070 27/23 Q1013;
0120827980999992010010102004-07100-034867FM-15+0066SBJP V0209999C000012200019N0112651N1+02601+02301999999ADDGA1021+006001999GF102991999999999999999999MA1101191999999REMMET051METAR SBJP 010200Z 00000KT 9999 FEW020 26/23 Q1012;
0120827980999992010010103004-07100-034867FM-15+0066SBJP V0209999C000012200019N0112651N1+02701+02301999999ADDGA1021+006001999GF102991999999999999999999MA1101191999999REMMET051METAR SBJP 010300Z 00000KT 9999 FEW020 27/23 Q1012;
0120827980999992010010104004-07100-034867FM-15+0066SBJP V0209999C000010090019N0112651N1+02601+02301999999ADDGA1071+009001999GF107991999999999999999999MA1101081999999REMMET051METAR SBJP 010400Z 00000KT 9999 BKN030 26/23 Q1011;
0130827980999992010010105004-07100-034867FM-15+0066SBJP V0209999C000010060019N0045001N1+02501+02301999999ADDGA1071+006001999GF107991999999999999999999MA1101081999999MW1611REMMET055METAR SBJP 010500Z 00000KT 4500 -RA BKN020 25/23 Q1011;
0120827980999992010010106004-07100-034867FM-15+0066SBJP V0200301N002610060019N0112651N1+02401+02201999999ADDGA1071+006001999GF107991999999999999999999MA1101081999999REMMET051METAR SBJP 010600Z 03005KT 9999 BKN020 24/22 Q1011;
0186827980999992010010106274-07100-034867FM-16+0066SBJP V0209999C00001009001CN0080001N1+02401+02201999999ADDGA1041+006001999GA2021+009001091GA3071+021001999GF107991999999999999999999MA1101081999999MW1801MW2951REMMET073SPECI SBJP 010627Z 00000KT 8000 -TSRA SCT020 FEW030CB BKN070 24/22 Q1011;
0186827980999992010010107004-07100-034867FM-15+0066SBJP V0209999C000010060019N0040001N1+02401+02201999999ADDGA1071+006001999GA2021+009001091GA3081+021001999GF108991999999999999999999MA1101081999999MW1801MW2951REMMET073METAR SBJP 010700Z 00000KT 4000 -TSRA BKN020 FEW030CB OVC070 24/22 Q1011;
0158827980999992010010108004-07100-034867FM-15+0066SBJP V0209999C000010060019N0050001N1+02401+02201999999ADDGA1071+006001999GA2081+021001999GF108991999999999999999999MA1101081999999MW1611REMMET067METAR SBJP 010800Z 00000KT 5000 -RA BKN020 OVC070 24/22 Q1011 RETS;
0153827980999992010010109004-07100-034867FM-15+0066SBJP V0209999C000010060019N0050001N1+02401+02201999999ADDGA1071+006001999GA2071+021001999GF107991999999999999999999MA1101191999999MW1611REMMET062METAR SBJP 010900Z 00000KT 5000 -RA BKN020 BKN070 24/22 Q1012;
0143827980999992010010110004-07100-034867FM-15+0066SBJP V0209999C000012200019N0112651N1+02601+02301999999ADDGA1041+006001999GA2041+021001999GF104991999999999999999999MA1101191999999REMMET058METAR SBJP 011000Z 00000KT 9999 SCT020 SCT070 26/23 Q1012;
0120827980999992010010111004-07100-034867FM-15+0066SBJP V0209999C000012200019N0112651N1+02801+02401999999ADDGA1041+006001999GF104991999999999999999999MA1101291999999REMMET051METAR SBJP 011100Z 00000KT 9999 SCT020 28/24 Q1013;
0120827980999992010010112004-07100-034867FM-15+0066SBJP V0209999C000010060019N0112651N1+02901+02301999999ADDGA1071+006001999GF107991999999999999999999MA1101291999999REMMET051METAR SBJP 011200Z 00000KT 9999 BKN020 29/23 Q1013;
0120827980999992010010113004-07100-034867FM-15+0066SBJP V0201001N002110060019N0112651N1+03001+02201999999ADDGA1071+006001999GF107991999999999999999999MA1101291999999REMMET051METAR SBJP 011300Z 10004KT 9999 BKN020 30/22 Q1013;
0120827980999992010010114004-07100-034867FM-15+0066SBJP V0201101N002612200019N0112651N1+03001+02301999999ADDGA1041+007501999GF104991999999999999999999MA1101291999999REMMET051METAR SBJP 011400Z 11005KT 9999 SCT025 30/23 Q1013;
0120827980999992010010115004-07100-034867FM-15+0066SBJP V0201101N002612200019N0112651N1+03101+02301999999ADDGA1041+007501999GF104991999999999999999999MA1101191999999REMMET051METAR SBJP 011500Z 11005KT 9999 SCT025 31/23 Q1012;
0143827980999992010010116004-07100-034867FM-15+0066SBJP V0200901N002612200019N0112651N1+03001+02301999999ADDGA1041+006001999GA2041+021001999GF104991999999999999999999MA1101081999999REMMET058METAR SBJP 011600Z 09005KT 9999 SCT020 SCT070 30/23 Q1011;
0143827980999992010010117004-07100-034867FM-15+0066SBJP V0200801N002612200019N0112651N1+03001+02301999999ADDGA1041+006001999GA2041+021001999GF104991999999999999999999MA1101021999999REMMET058METAR SBJP 011700Z 08005KT 9999 SCT020 SCT070 30/23 Q1010;
0120827980999992010010118004-07100-034867FM-15+0066SBJP V0201001N002612200019N0112651N1+02901+02401999999ADDGA1041+009001999GF104991999999999999999999MA1101021999999REMMET051METAR SBJP 011800Z 10005KT 9999 SCT030 29/24 Q1010;
0120827980999992010010119004-07100-034867FM-15+0066SBJP V0200901N002612200019N0112651N1+02901+02301999999ADDGA1041+009001999GF104991999999999999999999MA1100911999999REMMET051METAR SBJP 011900Z 09005KT 9999 SCT030 29/23 Q1009;
0120827980999992010010120004-07100-034867FM-15+0066SBJP V0201001N001510090019N0112651N1+02801+02301999999ADDGA1071+009001999GF107991999999999999999999MA1101021999999REMMET051METAR SBJP 012000Z 10003KT 9999 BKN030 28/23 Q1010;
0120827980999992010010121004-07100-034867FM-15+0066SBJP V0201101N001010060019N0112651N1+02701+02301999999ADDGA1071+006001999GF107991999999999999999999MA1101021999999REMMET051METAR SBJP 012100Z 11002KT 9999 BKN020 27/23 Q1010;
0120827980999992010010122004-07100-034867FM-15+0066SBJP V0201201N001010060019N0112651N1+02701+02401999999ADDGA1071+006001999GF107991999999999999999999MA1101081999999REMMET051METAR SBJP 012200Z 12002KT 9999 BKN020 27/24 Q1011;
0120827980999992010010123004-07100-034867FM-15+0066SBJP V0201301N001010060019N0112651N1+02701+02301999999ADDGA1071+006001999GF107991999999999999999999MA1101191999999REMMET051METAR SBJP 012300Z 13002KT 9999 BKN020 27/23 Q1012;
0120827980999992010010200004-07100-034867FM-15+0066SBJP V0201201N000512200019N0112651N1+02701+02301999999ADDGA1041+006001999GF104991999999999999999999MA1101291999999REMMET051METAR SBJP 020000Z 12001KT 9999 SCT020 27/23 Q1013;
0120827980999992010010201004-07100-034867FM-15+0066SBJP V0201301N001512200019N0112651N1+02601+02301999999ADDGA1041+006001999GF104991999999999999999999MA1101291999999REMMET051METAR SBJP 020100Z 13003KT 9999 SCT020 26/23 Q1013;
0120827980999992010010202004-07100-034867FM-15+0066SBJP V0209999C000012200019N0112651N1+02701+02301999999ADDGA1041+006001999GF104991999999999999999999MA1101191999999REMMET051METAR SBJP 020200Z 00000KT 9999 SCT020 27/23 Q1012;
0120827980999992010010203004-07100-034867FM-15+0066SBJP V0209999C000012200019N0112651N1+02701+02301999999ADDGA1041+006001999GF104991999999999999999999MA1101191999999REMMET051METAR SBJP 020300Z 00000KT 9999 SCT020 27/23 Q1012;
0120827980999992010010204004-07100-034867FM-15+0066SBJP V0209999C000012200019N0112651N1+02601+02301999999ADDGA1041+006001999GF104991999999999999999999MA1101191999999REMMET051METAR SBJP 020400Z 00000KT 9999 SCT020 26/23 Q1012;
0120827980999992010010205004-07100-034867FM-15+0066SBJP V0209999C000012200019N0112651N1+02601+02301999999ADDGA1041+005101999GF104991999999999999999999MA1101081999999REMMET051METAR SBJP 020500Z 00000KT 9999 SCT017 26/23 Q1011;
0120827980999992010010206004-07100-034867FM-15+0066SBJP V0209999C000012200019N0112651N1+02501+02301999999ADDGA1041+005101999GF104991999999999999999999MA1101081999999REMMET051METAR SBJP 020600Z 00000KT 9999 SCT017 25/23 Q1011;
0120827980999992010010207004-07100-034867FM-15+0066SBJP V0209999C000012200019N0112651N1+02501+02301999999ADDGA1041+005101999GF104991999999999999999999MA1101081999999REMMET051METAR SBJP 020700Z 00000KT 9999 SCT017 25/23 Q1011;
0120827980999992010010208004-07100-034867FM-15+0066SBJP V0209999C000012200019N0112651N1+02401+02301999999ADDGA1041+005101999GF104991999999999999999999MA1101081999999REMMET051METAR SBJP 020800Z 00000KT 9999 SCT017 24/23 Q1011;
0130827980999992010010209004-07100-034867FM-15+0066SBJP V0209999C000010051019N0050001N1+02501+02301999999ADDGA1071+005101999GF107991999999999999999999MA1101191999999MW1611REMMET055METAR SBJP 020900Z 00000KT 5000 -RA BKN017 25/23 Q1012;
0139827980999992010010210004-07100-034867FM-15+0066SBJP V0209999C00001005401CN0112651N1+02701+02301999999ADDGA1071+005401999GA2021+007501021MA1101191999999REMMET061METAR SBJP 021000Z 00000KT 9999 BKN018 FEW025TCU 27/23 Q1012;EQDQ01+000022SCOTCV
0139827980999992010010211004-07100-034867FM-15+0066SBJP V0209999C00001005401CN0112651N1+02701+02401999999ADDGA1071+005401999GA2021+007501021MA1101291999999REMMET061METAR SBJP 021100Z 00000KT 9999 BKN018 FEW025TCU 27/24 Q1013;EQDQ01+000022SCOTCV
0143827980999992010010212004-07100-034867FM-15+0066SBJP V0201301N002110054019N0112651N1+02901+02301999999ADDGA1071+005401999GA2071+021001999GF107991999999999999999999MA1101291999999REMMET058METAR SBJP 021200Z 13004KT 9999 BKN018 BKN070 29/23 Q1013;
0143827980999992010010213004-07100-034867FM-15+0066SBJP V0201001N002610090019N0112651N1+03001+02201999999ADDGA1071+009001999GA2071+021001999GF107991999999999999999999MA1101291999999REMMET058METAR SBJP 021300Z 10005KT 9999 BKN030 BKN070 30/22 Q1013;
0143827980999992010010214004-07100-034867FM-15+0066SBJP V0201001N002110090019N0112651N1+03001+02301999999ADDGA1071+009001999GA2071+021001999GF107991999999999999999999MA1101291999999REMMET058METAR SBJP 021400Z 10004KT 9999 BKN030 BKN070 30/23 Q1013;
0143827980999992010010215004-07100-034867FM-15+0066SBJP V0201001N002110090019N0112651N1+03001+02301999999ADDGA1071+009001999GA2071+021001999GF107991999999999999999999MA1101191999999REMMET058METAR SBJP 021500Z 10004KT 9999 BKN030 BKN070 30/23 Q1012;
0143827980999992010010216004-07100-034867FM-15+0066SBJP V0201301N002110090019N0112651N1+03001+02301999999ADDGA1071+009001999GA2071+021001999GF107991999999999999999999MA1101081999999REMMET058METAR SBJP 021600Z 13004KT 9999 BKN030 BKN070 30/23 Q1011;
0143827980999992010010217004-07100-034867FM-15+0066SBJP V0201101N001512200019N0112651N1+03001+02301999999ADDGA1041+009001999GA2041+021001999GF104991999999999999999999MA1101021999999REMMET058METAR SBJP 021700Z 11003KT 9999 SCT030 SCT070 30/23 Q1010;
0143827980999992010010218004-07100-034867FM-15+0066SBJP V0201301N002612200019N0112651N1+02901+02201999999ADDGA1041+009001999GA2041+021001999GF104991999999999999999999MA1101021999999REMMET058METAR SBJP 021800Z 13005KT 9999 SCT030 SCT070 29/22 Q1010;
0143827980999992010010219004-07100-034867FM-15+0066SBJP V0201301N001512200019N0112651N1+03001+02101999999ADDGA1041+009001999GA2041+021001999GF104991999999999999999999MA1101021999999REMMET058METAR SBJP 021900Z 13003KT 9999 SCT030 SCT070 30/21 Q1010;
0143827980999992010010220004-07100-034867FM-15+0066SBJP V0201301N002112200019N0112651N1+02801+02201999999ADDGA1041+009001999GA2041+090001999GF104991999999999999999999MA1101021999999REMMET058METAR SBJP 022000Z 13004KT 9999 SCT030 SCT300 28/22 Q1010;
0120827980999992010010221004-07100-034867FM-15+0066SBJP V0201201N002112200019N0112651N1+02701+02201999999ADDGA1041+006001999GF104991999999999999999999MA1101081999999REMMET051METAR SBJP 022100Z 12004KT 9999 SCT020 27/22 Q1011;
0120827980999992010010222004-07100-034867FM-15+0066SBJP V0201501N001012200019N0112651N1+02601+02201999999ADDGA1041+006001999GF104991999999999999999999MA1101191999999REMMET051METAR SBJP 022200Z 15002KT 9999 SCT020 26/22 Q1012;
0120827980999992010010223004-07100-034867FM-15+0066SBJP V0201601N002112200019N0112651N1+02601+02301999999ADDGA1041+006001999GF104991999999999999999999MA1101191999999REMMET051METAR SBJP 022300Z 16004KT 9999 SCT020 26/23 Q1012;
0120827980999992010010300004-07100-034867FM-15+0066SBJP V0201901N001012200019N0112651N1+02601+02301999999ADDGA1041+006001999GF104991999999999999999999MA1101291999999REMMET051METAR SBJP 030000Z 19002KT 9999 SCT020 26/23 Q1013;
0120827980999992010010301004-07100-034867FM-15+0066SBJP V0201801N001012200019N0112651N1+02501+02301999999ADDGA1041+006001999GF104991999999999999999999MA1101291999999REMMET051METAR SBJP 030100Z 18002KT 9999 SCT020 25/23 Q1013;
0130827980999992010010302004-07100-034867FM-15+0066SBJP V0201801N002110048019N0035001N1+02501+02301999999ADDGA1071+004801999GF107991999999999999999999MA1101291999999MW1611REMMET055METAR SBJP 030200Z 18004KT 3500 -RA BKN016 25/23 Q1013;
0131827980999992010010302164-07100-034867FM-16+0066SBJP V0201601N006210036019N0020001N1+02401+02201999999ADDGA1071+003601999GF107991999999999999999999MA1101291999999MW1811REMMET056SPECI SBJP 030216Z 16012KT 2000 SHRA BKN012 24/22 Q1013;
0155827980999992010010303004-07100-034867FM-15+0066SBJP V0201801N00311004201CN0035001N1+02401+02301999999ADDGA1071+004201999GA2021+007501091MA1101191999999MW1811MW2951REMMET065METAR SBJP 030300Z 18006KT 3500 TSRA BKN014 FEW025CB 24/23 Q1012;EQDQ01+000022SCOTCV
0148827980999992010010303204-07100-034867FM-16+0066SBJP V0201501N001510060019N0112651N1+02401+02301999999ADDGA1071+006001999GA2071+021001999GF107991999999999999999999MA1101191999999REMMET063SPECI SBJP 030320Z 15003KT 9999 BKN020 BKN070 24/23 Q1012 RETS;
0160827980999992010010304004-07100-034867FM-15+0066SBJP V0209999C000010210019N0060001N1+02401+02301999999ADDGA1041+005101999GA2071+021001999GF107991999999999999999999MA1101191999999MW1611REMMET069METAR SBJP 030400Z 00000KT 6000 -RA SCT017 BKN070 24/23 Q1012 RETSRA;
0143827980999992010010305004-07100-034867FM-15+0066SBJP V0209999C000010210019N0112651N1+02401+02301999999ADDGA1041+005101999GA2071+021001999GF107991999999999999999999MA1101081999999REMMET058METAR SBJP 030500Z 00000KT 9999 SCT017 BKN070 24/23 Q1011;
0152827980999992010010306004-07100-034867FM-15+0066SBJP V0201401N003110051019N0040001N1+02301+02201999999ADDGA1071+005101999GA2081+021001999GF108991999999999999999999MA1101081999999MW1631REMMET061METAR SBJP 030600Z 14006KT 4000 RA BKN017 OVC070 23/22 Q1011;
0158827980999992010010306304-07100-034867FM-16+0066SBJP V0209999C000010042019N0080001N1+02401+02201999999ADDGA1071+004201999GA2081+021001999GF108991999999999999999999MA1101081999999MW1611REMMET067SPECI SBJP 030630Z 00000KT 8000 -RA BKN014 OVC070 24/22 Q1011 RERA;
0158827980999992010010307004-07100-034867FM-15+0066SBJP V0209999C000010060019N0090001N1+02401+02201999999ADDGA1071+006001999GA2081+021001999GF108991999999999999999999MA1101081999999MW1611REMMET067METAR SBJP 030700Z 00000KT 9000 -RA BKN020 OVC070 24/22 Q1011 RERA;
0153827980999992010010308004-07100-034867FM-15+0066SBJP V0209999C000010051019N0040001N1+02401+02201999999ADDGA1071+005101999GA2071+021001999GF107991999999999999999999MA1101191999999MW1611REMMET062METAR SBJP 030800Z 00000KT 4000 -RA BKN017 BKN070 24/22 Q1012;
0120827980999992010010309004-07100-034867FM-15+0066SBJP V0209999C000012200019N0112651N1+02401+02301999999ADDGA1041+006001999GF104991999999999999999999MA1101191999999REMMET051METAR SBJP 030900Z 00000KT 9999 SCT020 24/23 Q1012;
0120827980999992010010310004-07100-034867FM-15+0066SBJP V0209999C000010060019N0112651N1+02501+02301999999ADDGA1071+006001999GF107991999999999999999999MA1101291999999REMMET051METAR SBJP 031000Z 00000KT 9999 BKN020 25/23 Q1013;
0130827980999992010010311004-07100-034867FM-15+0066SBJP V0209999C000010060019N0060001N1+02601+02401999999ADDGA1071+006001999GF107991999999999999999999MA1101291999999MW1611REMMET055METAR SBJP 031100Z 00000KT 6000 -RA BKN020 26/24 Q1013;
0130827980999992010010312004-07100-034867FM-15+0066SBJP V0209999C000010060019N0060001N1+02601+02401999999ADDGA1071+006001999GF107991999999999999999999MA1101391999999MW1611REMMET055METAR SBJP 031200Z 00000KT 6000 -RA BKN020 26/24 Q1014;
0139827980999992010010313004-07100-034867FM-15+0066SBJP V0201301N002612200019N0112651N1+02901+02301999999ADDGA1041+006001999GA2021+007501021MA1101291999999REMMET061METAR SBJP 031300Z 13005KT 9999 SCT020 FEW025TCU 29/23 Q1013;EQDQ01+000022SCOTCV
0139827980999992010010314004-07100-034867FM-15+0066SBJP V0201001N002112200019N0112651N1+03001+02201999999ADDGA1041+006001999GA2021+007501021MA1101291999999REMMET061METAR SBJP 031400Z 10004KT 9999 SCT020 FEW025TCU 30/22 Q1013;EQDQ01+000022SCOTCV
0139827980999992010010315004-07100-034867FM-15+0066SBJP V0201101N002612200019N0112651N1+03101+02301999999ADDGA1041+006001999GA2021+007501021MA1101291999999REMMET061METAR SBJP 031500Z 11005KT 9999 SCT020 FEW025TCU 31/23 Q1013;EQDQ01+000022SCOTCV
0139827980999992010010316004-07100-034867FM-15+0066SBJP V0201101N003112200019N0112651N1+03101+02201999999ADDGA1041+006001999GA2021+007501021MA1101191999999REMMET061METAR SBJP 031600Z 11006KT 9999 SCT020 FEW025TCU 31/22 Q1012;EQDQ01+000022SCOTCV
0120827980999992010010317004-07100-034867FM-15+0066SBJP V0201001N002110060019N0112651N1+02901+02201999999ADDGA1071+006001999GF107991999999999999999999MA1101191999999REMMET051METAR SBJP 031700Z 10004KT 9999 BKN020 29/22 Q1012;
0120827980999992010010318004-07100-034867FM-15+0066SBJP V0201201N003112200019N0112651N1+02901+02201999999ADDGA1041+006001999GF104991999999999999999999MA1101081999999REMMET051METAR SBJP 031800Z 12006KT 9999 SCT020 29/22 Q1011;
0120827980999992010010319004-07100-034867FM-15+0066SBJP V0201201N002112200019N0112651N1+02901+02201999999ADDGA1041+006001999GF104991999999999999999999MA1101191999999REMMET051METAR SBJP 031900Z 12004KT 9999 SCT020 29/22 Q1012;
0120827980999992010010320004-07100-034867FM-15+0066SBJP V0201101N002112200019N0112651N1+02801+02301999999ADDGA1041+006001999GF104991999999999999999999MA1101291999999REMMET051METAR SBJP 032000Z 11004KT 9999 SCT020 28/23 Q1013;
0120827980999992010010321004-07100-034867FM-15+0066SBJP V0201101N001012200019N0112651N1+02701+02301999999ADDGA1041+006001999GF104991999999999999999999MA1101291999999REMMET051METAR SBJP 032100Z 11002KT 9999 SCT020 27/23 Q1013;
0120827980999992010010322004-07100-034867FM-15+0066SBJP V0201201N001010060019N0112651N1+02701+02301999999ADDGA1071+006001999GF107991999999999999999999MA1101291999999REMMET051METAR SBJP 032200Z 12002KT 9999 BKN020 27/23 Q1013;
0120827980999992010010323004-07100-034867FM-15+0066SBJP V0201101N001010060019N0112651N1+02701+02301999999ADDGA1071+006001999GF107991999999999999999999MA1101291999999REMMET051METAR SBJP 032300Z 11002KT 9999 BKN020 27/23 Q1013;
0120827980999992010010400004-07100-034867FM-15+0066SBJP V0201201N001012200019N0112651N1+02701+02301999999ADDGA1041+006001999GF104991999999999999999999MA1101291999999REMMET051METAR SBJP 040000Z 12002KT 9999 SCT020 27/23 Q1013;
0120827980999992010010401004-07100-034867FM-15+0066SBJP V0209999C000010060019N0112651N1+02701+02301999999ADDGA1071+006001999GF107991999999999999999999MA1101291999999REMMET051METAR SBJP 040100Z 00000KT 9999 BKN020 27/23 Q1013;
0120827980999992010010402004-07100-034867FM-15+0066SBJP V0209999C000010054019N0112651N1+02701+02301999999ADDGA1071+005401999GF107991999999999999999999MA1101291999999REMMET051METAR SBJP 040200Z 00000KT 9999 BKN018 27/23 Q1013;
0120827980999992010010403004-07100-034867FM-15+0066SBJP V0209999C000010060019N0112651N1+02601+02401999999ADDGA1071+006001999GF107991999999999999999999MA1101291999999REMMET051METAR SBJP 040300Z 00000KT 9999 BKN020 26/24 Q1013;
0153827980999992010010403304-07100-034867FM-16+0066SBJP V0200701N001010042019N0040001N1+02501+02301999999ADDGA1071+004201999GA2071+006001999GF107991999999999999999999MA1101291999999MW1611REMMET062SPECI SBJP 040330Z 07002KT 4000 -RA BKN014 BKN020 25/23 Q1013;
0153827980999992010010404004-07100-034867FM-15+0066SBJP V0209999C000010060019N0050001N1+02501+02301999999ADDGA1041+003601999GA2071+006001999GF107991999999999999999999MA1101191999999MW1611REMMET062METAR SBJP 040400Z 00000KT 5000 -RA SCT012 BKN020 25/23 Q1012;
0152827980999992010010404254-07100-034867FM-16+0066SBJP V0201401N001010060019N0030001N1+02501+02301999999ADDGA1041+003601999GA2071+006001999GF107991999999999999999999MA1101191999999MW1631REMMET061SPECI SBJP 040425Z 14002KT 3000 RA SCT012 BKN020 25/23 Q1012;
0152827980999992010010405004-07100-034867FM-15+0066SBJP V0201001N002110036019N0040001N1+02501+02301999999ADDGA1071+003601999GA2071+006001999GF107991999999999999999999MA1101191999999MW1631REMMET061METAR SBJP 040500Z 10004KT 4000 RA BKN012 BKN020 25/23 Q1012;
0148827980999992010010406004-07100-034867FM-15+0066SBJP V0209999C000010060019N0112651N1+02501+02301999999ADDGA1041+003601999GA2071+006001999GF107991999999999999999999MA1101191999999REMMET063METAR SBJP 040600Z 00000KT 9999 SCT012 BKN020 25/23 Q1012 RERA;
0143827980999992010010407004-07100-034867FM-15+0066SBJP V0209999C000010060019N0112651N1+02501+02301999999ADDGA1021+003601999GA2071+006001999GF107991999999999999999999MA1101191999999REMMET058METAR SBJP 040700Z 00000KT 9999 FEW012 BKN020 25/23 Q1012;
0143827980999992010010408004-07100-034867FM-15+0066SBJP V0209999C000012200019N0112651N1+02501+02301999999ADDGA1041+006001999GA2041+021001999GF104991999999999999999999MA1101191999999REMMET058METAR SBJP 040800Z 00000KT 9999 SCT020 SCT070 25/23 Q1012;
0143827980999992010010409004-07100-034867FM-15+0066SBJP V0209999C000010210019N0112651N1+02601+02301999999ADDGA1041+006001999GA2071+021001999GF107991999999999999999999MA1101291999999REMMET058METAR SBJP 040900Z 00000KT 9999 SCT020 BKN070 26/23 Q1013;
0143827980999992010010410004-07100-034867FM-15+0066SBJP V0201001N001010210019N0112651N1+02701+02301999999ADDGA1041+006001999GA2071+021001999GF107991999999999999999999MA1101291999999REMMET058METAR SBJP 041000Z 10002KT 9999 SCT020 BKN070 27/23 Q1013;
0143827980999992010010411004-07100-034867FM-15+0066SBJP V0201001N002110060019N0112651N1+02801+02301999999ADDGA1071+006001999GA2071+021001999GF107991999999999999999999MA1101391999999REMMET058METAR SBJP 041100Z 10004KT 9999 BKN020 BKN070 28/23 Q1014;
0143827980999992010010412004-07100-034867FM-15+0066SBJP V0200801N002110060019N0112651N1+02701+02301999999ADDGA1071+006001999GA2071+021001999GF107991999999999999999999MA1101391999999REMMET058METAR SBJP 041200Z 08004KT 9999 BKN020 BKN070 27/23 Q1014;
0143827980999992010010413004-07100-034867FM-15+0066SBJP V0200701N004110060019N0112651N1+02801+02301999999ADDGA1071+006001999GA2071+021001999GF107991999999999999999999MA1101391999999REMMET058METAR SBJP 041300Z 07008KT 9999 BKN020 BKN070 28/23 Q1014;
0143827980999992010010414004-07100-034867FM-15+0066SBJP V0201001N003110060019N0112651N1+02901+02101999999ADDGA1071+006001999GA2071+021001999GF107991999999999999999999MA1101391999999REMMET058METAR SBJP 041400Z 10006KT 9999 BKN020 BKN070 29/21 Q1014;
0143827980999992010010415004-07100-034867FM-15+0066SBJP V0200801N003112200019N0112651N1+03001+02201999999ADDGA1041+006001999GA2041+027001999GF104991999999999999999999MA1101291999999REMMET058METAR SBJP 041500Z 08006KT 9999 SCT020 SCT090 30/22 Q1013;
0120827980999992010010416004-07100-034867FM-15+0066SBJP V0200801N002612200019N0112651N1+03001+02101999999ADDGA1041+006001999GF104991999999999999999999MA1101291999999REMMET051METAR SBJP 041600Z 08005KT 9999 SCT020 30/21 Q1013;
0120827980999992010010417004-07100-034867FM-15+0066SBJP V0200701N003110075019N0112651N1+02901+02201999999ADDGA1071+007501999GF107991999999999999999999MA1101191999999REMMET051METAR SBJP 041700Z 07006KT 9999 BKN025 29/22 Q1012;
0120827980999992010010418004-07100-034867FM-15+0066SBJP V0201101N002612200019N0112651N1+02901+02201999999ADDGA1041+009001999GF104991999999999999999999MA1101191999999REMMET051METAR SBJP 041800Z 11005KT 9999 SCT030 29/22 Q1012;
0143827980999992010010419004-07100-034867FM-15+0066SBJP V0201101N002610075019N0112651N1+02901+02201999999ADDGA1071+007501999GA2071+021001999GF107991999999999999999999MA1101191999999REMMET058METAR SBJP 041900Z 11005KT 9999 BKN025 BKN070 29/22 Q1012;
0143827980999992010010420004-07100-034867FM-15+0066SBJP V0201101N002110240019N0112651N1+02801+02201999999ADDGA1021+006001999GA2071+024001999GF107991999999999999999999MA1101191999999REMMET058METAR SBJP 042000Z 11004KT 9999 FEW020 BKN080 28/22 Q1012;
0143827980999992010010421004-07100-034867FM-15+0066SBJP V0201101N002110210019N0112651N1+02801+02201999999ADDGA1021+006001999GA2071+021001999GF107991999999999999999999MA1101191999999REMMET058METAR SBJP 042100Z 11004KT 9999 FEW020 BKN070 28/22 Q1012;
0143827980999992010010422004-07100-034867FM-15+0066SBJP V0209999C000012200019N0112651N1+02701+02301999999ADDGA1021+006001999GA2041+021001999GF104991999999999999999999MA1101291999999REMMET058METAR SBJP 042200Z 00000KT 9999 FEW020 SCT070 27/23 Q1013;
0143827980999992010010423004-07100-034867FM-15+0066SBJP V0209999C000012200019N0112651N1+02601+02201999999ADDGA1021+006001999GA2041+021001999GF104991999999999999999999MA1101391999999REMMET058METAR SBJP 042300Z 00000KT 9999 FEW020 SCT070 26/22 Q1014;
0143827980999992010010500004-07100-034867FM-15+0066SBJP V0209999C000012200019N0112651N1+02701+02301999999ADDGA1021+006001999GA2041+021001999GF104991999999999999999999MA1101391999999REMMET058METAR SBJP 050000Z 00000KT 9999 FEW020 SCT070 27/23 Q1014;
0143827980999992010010501004-07100-034867FM-15+0066SBJP V0209999C000012200019N0112651N1+02601+02301999999ADDGA1021+006001999GA2041+021001999GF104991999999999999999999MA1101391999999REMMET058METAR SBJP 050100Z 00000KT 9999 FEW020 SCT070 26/23 Q1014;
0143827980999992010010502004-07100-034867FM-15+0066SBJP V0209999C000010210019N0112651N1+02601+02301999999ADDGA1021+006001999GA2071+021001999GF107991999999999999999999MA1101391999999REMMET058METAR SBJP 050200Z 00000KT 9999 FEW020 BKN070 26/23 Q1014;
0143827980999992010010503004-07100-034867FM-15+0066SBJP V0209999C000010210019N0112651N1+02601+02301999999ADDGA1021+006001999GA2071+021001999GF107991999999999999999999MA1101291999999REMMET058METAR SBJP 050300Z 00000KT 9999 FEW020 BKN070 26/23 Q1013;
0143827980999992010010504004-07100-034867FM-15+0066SBJP V0209999C000010210019N0112651N1+02601+02301999999ADDGA1021+006001999GA2071+021001999GF107991999999999999999999MA1101291999999REMMET058METAR SBJP 050400Z 00000KT 9999 FEW020 BKN070 26/23 Q1013;
0143827980999992010010505004-07100-034867FM-15+0066SBJP V0209999C000010210019N0112651N1+02501+02301999999ADDGA1021+006001999GA2071+021001999GF107991999999999999999999MA1101191999999REMMET058METAR SBJP 050500Z 00000KT 9999 FEW020 BKN070 25/23 Q1012;
0143827980999992010010506004-07100-034867FM-15+0066SBJP V0209999C000012200019N0112651N1+02501+02301999999ADDGA1021+006001999GA2041+021001999GF104991999999999999999999MA1101191999999REMMET058METAR SBJP 050600Z 00000KT 9999 FEW020 SCT070 25/23 Q1012;
0143827980999992010010507004-07100-034867FM-15+0066SBJP V0209999C000012200019N0112651N1+02401+02301999999ADDGA1021+006001999GA2041+021001999GF104991999999999999999999MA1101191999999REMMET058METAR SBJP 050700Z 00000KT 9999 FEW020 SCT070 24/23 Q1012;
0143827980999992010010508004-07100-034867FM-15+0066SBJP V0209999C000012200019N0112651N1+02401+02201999999ADDGA1021+006001999GA2041+021001999GF104991999999999999999999MA1101191999999REMMET058METAR SBJP 050800Z 00000KT 9999 FEW020 SCT070 24/22 Q1012;
0143827980999992010010509004-07100-034867FM-15+0066SBJP V0209999C000012200019N0112651N1+02401+02301999999ADDGA1021+006001999GA2041+027001999GF104991999999999999999999MA1101191999999REMMET058METAR SBJP 050900Z 00000KT 9999 FEW020 SCT090 24/23 Q1012;
0143827980999992010010510004-07100-034867FM-15+0066SBJP V0209999C000010060019N0112651N1+02701+02401999999ADDGA1071+006001999GA2071+024001999GF107991999999999999999999MA1101391999999REMMET058METAR SBJP 051000Z 00000KT 9999 BKN020 BKN080 27/24 Q1014;
0143827980999992010010511004-07100-034867FM-15+0066SBJP V0200901N000510300019N0112651N1+02801+02301999999ADDGA1041+007501999GA2071+030001999GF107991999999999999999999MA1101391999999REMMET058METAR SBJP 051100Z 09001KT 9999 SCT025 BKN100 28/23 Q1014;
0120827980999992010010512004-07100-034867FM-15+0066SBJP V0201101N001510090019N0112651N1+02901+02201999999ADDGA1071+009001999GF107991999999999999999999MA1101391999999REMMET051METAR SBJP 051200Z 11003KT 9999 BKN030 29/22 Q1014;
0120827980999992010010513004-07100-034867FM-15+0066SBJP V0201201N002110090019N0112651N1+02901+02101999999ADDGA1071+009001999GF107991999999999999999999MA1101391999999REMMET051METAR SBJP 051300Z 12004KT 9999 BKN030 29/21 Q1014;
0120827980999992010010514004-07100-034867FM-15+0066SBJP V0201401N001510090019N0112651N1+03001+02201999999ADDGA1071+009001999GF107991999999999999999999MA1101391999999REMMET051METAR SBJP 051400Z 14003KT 9999 BKN030 30/22 Q1014;
0120827980999992010010515004-07100-034867FM-15+0066SBJP V0201001N002612200019N0112651N1+03001+02201999999ADDGA1041+009001999GF104991999999999999999999MA1101291999999REMMET051METAR SBJP 051500Z 10005KT 9999 SCT030 30/22 Q1013;
0120827980999992010010516004-07100-034867FM-15+0066SBJP V0201301N002610090019N0112651N1+03001+02201999999ADDGA1071+009001999GF107991999999999999999999MA1101191999999REMMET051METAR SBJP 051600Z 13005KT 9999 BKN030 30/22 Q1012;
0120827980999992010010517004-07100-034867FM-15+0066SBJP V0201301N003112200019N0112651N1+03001+02201999999ADDGA1041+009001999GF104991999999999999999999MA1101191999999REMMET051METAR SBJP 051700Z 13006KT 9999 SCT030 30/22 Q1012;
0120827980999992010010518004-07100-034867FM-15+0066SBJP V0201401N002612200019N0112651N1+03001+02301999999ADDGA1041+009001999GF104991999999999999999999MA1101081999999REMMET051METAR SBJP 051800Z 14005KT 9999 SCT030 30/23 Q1011;
0120827980999992010010519004-07100-034867FM-15+0066SBJP V0201101N002112200019N0112651N1+03001+02201999999ADDGA1021+009001999GF102991999999999999999999MA1101081999999REMMET051METAR SBJP 051900Z 11004KT 9999 FEW030 30/22 Q1011;
0120827980999992010010520004-07100-034867FM-15+0066SBJP V0201201N001512200019N0112651N1+02901+02201999999ADDGA1021+009001999GF102991999999999999999999MA1101081999999REMMET051METAR SBJP 052000Z 12003KT 9999 FEW030 29/22 Q1011;
0120827980999992010010521004-07100-034867FM-15+0066SBJP V0201201N001512200019N0112651N1+02701+02201999999ADDGA1021+006001999GF102991999999999999999999MA1101081999999REMMET051METAR SBJP 052100Z 12003KT 9999 FEW020 27/22 Q1011;
0120827980999992010010522004-07100-034867FM-15+0066SBJP V0201001N001012200019N0112651N1+02701+02201999999ADDGA1021+006001999GF102991999999999999999999MA1101191999999REMMET051METAR SBJP 052200Z 10002KT 9999 FEW020 27/22 Q1012;
0120827980999992010010523004-07100-034867FM-15+0066SBJP V0209999C000012200019N0112651N1+02601+02201999999ADDGA1021+006001999GF102991999999999999999999MA1101191999999REMMET051METAR SBJP 052300Z 00000KT 9999 FEW020 26/22 Q1012;
0120827980999992010010600004-07100-034867FM-15+0066SBJP V0209999C000012200019N0112651N1+02601+02201999999ADDGA1041+006001999GF104991999999999999999999MA1101191999999REMMET051METAR SBJP 060000Z 00000KT 9999 SCT020 26/22 Q1012;
0120827980999992010010601004-07100-034867FM-15+0066SBJP V0209999C000012200019N0112651N1+02501+02301999999ADDGA1021+006001999GF102991999999999999999999MA1101191999999REMMET051METAR SBJP 060100Z 00000KT 9999 FEW020 25/23 Q1012;
0120827980999992010010602004-07100-034867FM-15+0066SBJP V0209999C000012200019N0112651N1+02501+02301999999ADDGA1021+006001999GF102991999999999999999999MA1101191999999REMMET051METAR SBJP 060200Z 00000KT 9999 FEW020 25/23 Q1012;
0120827980999992010010603004-07100-034867FM-15+0066SBJP V0209999C000012200019N0112651N1+02501+02301999999ADDGA1021+006001999GF102991999999999999999999MA1101081999999REMMET051METAR SBJP 060300Z 00000KT 9999 FEW020 25/23 Q1011;
0120827980999992010010604004-07100-034867FM-15+0066SBJP V0209999C000012200019N0112651N1+02401+02201999999ADDGA1021+006001999GF102991999999999999999999MA1101081999999REMMET051METAR SBJP 060400Z 00000KT 9999 FEW020 24/22 Q1011;
0120827980999992010010605004-07100-034867FM-15+0066SBJP V0209999C000010054019N0112651N1+02401+02201999999ADDGA1071+005401999GF107991999999999999999999MA1101021999999REMMET051METAR SBJP 060500Z 00000KT 9999 BKN018 24/22 Q1010;
0120827980999992010010606004-07100-034867FM-15+0066SBJP V0209999C000010060019N0112651N1+02401+02301999999ADDGA1071+006001999GF107991999999999999999999MA1101021999999REMMET051METAR SBJP 060600Z 00000KT 9999 BKN020 24/23 Q1010;
0143827980999992010010607004-07100-034867FM-15+0066SBJP V0209999C000012200019N0112651N1+02401+02201999999ADDGA1021+006001999GA2041+021001999GF104991999999999999999999MA1101021999999REMMET058METAR SBJP 060700Z 00000KT 9999 FEW020 SCT070 24/22 Q1010;
0143827980999992010010608004-07100-034867FM-15+0066SBJP V0209999C000012200019N0112651N1+02401+02201999999ADDGA1021+006001999GA2041+021001999GF104991999999999999999999MA1101081999999REMMET058METAR SBJP 060800Z 00000KT 9999 FEW020 SCT070 24/22 Q1011;
0143827980999992010010609004-07100-034867FM-15+0066SBJP V0209999C000010300019N0112651N1+02401+02301999999ADDGA1021+006001999GA2071+030001999GF107991999999999999999999MA1101081999999REMMET058METAR SBJP 060900Z 00000KT 9999 FEW020 BKN100 24/23 Q1011;
0143827980999992010010610004-07100-034867FM-15+0066SBJP V0209999C000010300019N0112651N1+02601+02301999999ADDGA1021+006001999GA2071+030001999GF107991999999999999999999MA1101191999999REMMET058METAR SBJP 061000Z 00000KT 9999 FEW020 BKN100 26/23 Q1012;
0143827980999992010010611004-07100-034867FM-15+0066SBJP V0201701N001010210019N0112651N1+02801+02301999999ADDGA1021+006001999GA2071+021001999GF107991999999999999999999MA1101191999999REMMET058METAR SBJP 061100Z 17002KT 9999 FEW020 BKN070 28/23 Q1012;
0143827980999992010010612004-07100-034867FM-15+0066SBJP V0201601N002112200019N0112651N1+02901+02201999999ADDGA1041+007501999GA2041+030001999GF104991999999999999999999MA1101291999999REMMET058METAR SBJP 061200Z 16004KT 9999 SCT025 SCT100 29/22 Q1013;
0143827980999992010010613004-07100-034867FM-15+0066SBJP V0201201N001510300019N0112651N1+03001+02201999999ADDGA1041+007501999GA2071+030001999GF107991999999999999999999MA1101191999999REMMET058METAR SBJP 061300Z 12003KT 9999 SCT025 BKN100 30/22 Q1012;
0143827980999992010010614004-07100-034867FM-15+0066SBJP V0201301N002610210019N0112651N1+03001+02101999999ADDGA1041+007501999GA2071+021001999GF107991999999999999999999MA1101191999999REMMET058METAR SBJP 061400Z 13005KT 9999 SCT025 BKN070 30/21 Q1012;
0143827980999992010010615004-07100-034867FM-15+0066SBJP V0201101N002110210019N0112651N1+03101+02201999999ADDGA1041+007501999GA2071+021001999GF107991999999999999999999MA1101191999999REMMET058METAR SBJP 061500Z 11004KT 9999 SCT025 BKN070 31/22 Q1012;
0143827980999992010010616004-07100-034867FM-15+0066SBJP V0201301N001510210019N0112651N1+03001+02101999999ADDGA1041+007501999GA2071+021001999GF107991999999999999999999MA1101081999999REMMET058METAR SBJP 061600Z 13003KT 9999 SCT025 BKN070 30/21 Q1011;
0143827980999992010010617004-07100-034867FM-15+0066SBJP V0201301N002610240019N0112651N1+03001+02001999999ADDGA1041+007501999GA2071+024001999GF107991999999999999999999MA1101081999999REMMET058METAR SBJP 061700Z 13005KT 9999 SCT025 BKN080 30/20 Q1011;
0143827980999992010010618004-07100-034867FM-15+0066SBJP V0201301N002610075019N0112651N1+03001+02101999999ADDGA1071+007501999GA2071+021001999GF107991999999999999999999MA1101021999999REMMET058METAR SBJP 061800Z 13005KT 9999 BKN025 BKN070 30/21 Q1010;
0143827980999992010010619004-07100-034867FM-15+0066SBJP V0201201N002110210019N0112651N1+02901+02201999999ADDGA1021+009001999GA2071+021001999GF107991999999999999999999MA1101021999999REMMET058METAR SBJP 061900Z 12004KT 9999 FEW030 BKN070 29/22 Q1010;
0143827980999992010010620004-07100-034867FM-15+0066SBJP V0201101N002110210019N0112651N1+02901+02201999999ADDGA1021+009001999GA2071+021001999GF107991999999999999999999MA1101081999999REMMET058METAR SBJP 062000Z 11004KT 9999 FEW030 BKN070 29/22 Q1011;
0072827980999992010010621004-07100-034867FM-15+0066SBJP V0201101N002119999999Y0099001N1+02701+02101999999ADDMA1101081999999REMMET045METAR SBJP 062100Z 11004KT CAVOK 27/21 Q1011;
0143827980999992010010622004-07100-034867FM-15+0066SBJP V0201401N001012200019N0112651N1+02701+02201999999ADDGA1041+006001999GA2041+021001999GF104991999999999999999999MA1101081999999REMMET058METAR SBJP 062200Z 14002KT 9999 SCT020 SCT070 27/22 Q1011;
0143827980999992010010623004-07100-034867FM-15+0066SBJP V0201401N001012200019N0112651N1+02601+02201999999ADDGA1041+006001999GA2041+021001999GF104991999999999999999999MA1101191999999REMMET058METAR SBJP 062300Z 14002KT 9999 SCT020 SCT070 26/22 Q1012;
0120827980999992010010700004-07100-034867FM-15+0066SBJP V0201301N001012200019N0112651N1+02601+02201999999ADDGA1041+006001999GF104991999999999999999999MA1101191999999REMMET051METAR SBJP 070000Z 13002KT 9999 SCT020 26/22 Q1012;
0120827980999992010010701004-07100-034867FM-15+0066SBJP V0201301N001012200019N0112651N1+02601+02201999999ADDGA1041+006001999GF104991999999999999999999MA1101191999999REMMET051METAR SBJP 070100Z 13002KT 9999 SCT020 26/22 Q1012;
0120827980999992010010702004-07100-034867FM-15+0066SBJP V0201401N000512200019N0112651N1+02501+02201999999ADDGA1041+006001999GF104991999999999999999999MA1101191999999REMMET051METAR SBJP 070200Z 14001KT 9999 SCT020 25/22 Q1012;
0120827980999992010010703004-07100-034867FM-15+0066SBJP V0209999C000012200019N0112651N1+02501+02201999999ADDGA1041+006001999GF104991999999999999999999MA1101191999999REMMET051METAR SBJP 070300Z 00000KT 9999 SCT020 25/22 Q1012;
0120827980999992010010704004-07100-034867FM-15+0066SBJP V0209999C000012200019N0112651N1+02401+02201999999ADDGA1041+006001999GF104991999999999999999999MA1101081999999REMMET051METAR SBJP 070400Z 00000KT 9999 SCT020 24/22 Q1011;
0120827980999992010010705004-07100-034867FM-15+0066SBJP V0202501N000512200019N0112651N1+02401+02201999999ADDGA1021+006001999GF102991999999999999999999MA1101081999999REMMET051METAR SBJP 070500Z 25001KT 9999 FEW020 24/22 Q1011;
0120827980999992010010706004-07100-034867FM-15+0066SBJP V0209999C000012200019N0112651N1+02301+02101999999ADDGA1021+006001999GF102991999999999999999999MA1101021999999REMMET051METAR SBJP 070600Z 00000KT 9999 FEW020 23/21 Q1010;
0120827980999992010010707004-07100-034867FM-15+0066SBJP V0209999C000012200019N0112651N1+02301+02201999999ADDGA1021+006001999GF102991999999999999999999MA1101081999999REMMET051METAR SBJP 070700Z 00000KT 9999 FEW020 23/22 Q1011;
0120827980999992010010708004-07100-034867FM-15+0066SBJP V0209999C000012200019N0112651N1+02301+02101999999ADDGA1021+006001999GF102991999999999999999999MA1101081999999REMMET051METAR SBJP 070800Z 00000KT 9999 FEW020 23/21 Q1011;
0120827980999992010010709004-07100-034867FM-15+0066SBJP V0209999C000012200019N0112651N1+02301+02201999999ADDGA1021+006001999GF102991999999999999999999MA1101081999999REMMET051METAR SBJP 070900Z 00000KT 9999 FEW020 23/22 Q1011;
0120827980999992010010710004-07100-034867FM-15+0066SBJP V0209999C000012200019N0112651N1+02601+02301999999ADDGA1041+009001999GF104991999999999999999999MA1101191999999REMMET051METAR SBJP 071000Z 00000KT 9999 SCT030 26/23 Q1012;
0120827980999992010010711004-07100-034867FM-15+0066SBJP V0201101N001012200019N0112651N1+02901+02301999999ADDGA1041+006001999GF104991999999999999999999MA1101191999999REMMET051METAR SBJP 071100Z 11002KT 9999 SCT020 29/23 Q1012;
0120827980999992010010712004-07100-034867FM-15+0066SBJP V0201101N001510090019N0112651N1+02901+02201999999ADDGA1071+009001999GF107991999999999999999999MA1101191999999REMMET051METAR SBJP 071200Z 11003KT 9999 BKN030 29/22 Q1012;
0120827980999992010010713004-07100-034867FM-15+0066SBJP V0200901N002610090019N0112651N1+03001+02201999999ADDGA1071+009001999GF107991999999999999999999MA1101191999999REMMET051METAR SBJP 071300Z 09005KT 9999 BKN030 30/22 Q1012;
0120827980999992010010714004-07100-034867FM-15+0066SBJP V0201201N002610090019N0112651N1+03101+02201999999ADDGA1071+009001999GF107991999999999999999999MA1101191999999REMMET051METAR SBJP 071400Z 12005KT 9999 BKN030 31/22 Q1012;
0143827980999992010010715004-07100-034867FM-15+0066SBJP V0200901N002612200019N0112651N1+03001+02101999999ADDGA1041+009001999GA2041+021001999GF104991999999999999999999MA1101191999999REMMET058METAR SBJP 071500Z 09005KT 9999 SCT030 SCT070 30/21 Q1012;
0120827980999992010010716004-07100-034867FM-15+0066SBJP V0201101N001510090019N0112651N1+03101+02201999999ADDGA1071+009001999GF107991999999999999999999MA1101081999999REMMET051METAR SBJP 071600Z 11003KT 9999 BKN030 31/22 Q1011;
0120827980999992010010717004-07100-034867FM-15+0066SBJP V0201101N002610090019N0112651N1+03101+02201999999ADDGA1071+009001999GF107991999999999999999999MA1101081999999REMMET051METAR SBJP 071700Z 11005KT 9999 BKN030 31/22 Q1011;
0120827980999992010010718004-07100-034867FM-15+0066SBJP V0201101N002112200019N0112651N1+03001+02201999999ADDGA1041+009001999GF104991999999999999999999MA1101021999999REMMET051METAR SBJP 071800Z 11004KT 9999 SCT030 30/22 Q1010;
0120827980999992010010719004-07100-034867FM-15+0066SBJP V0201201N002112200019N0112651N1+03001+02201999999ADDGA1041+009001999GF104991999999999999999999MA1101021999999REMMET051METAR SBJP 071900Z 12004KT 9999 SCT030 30/22 Q1010;
0120827980999992010010720004-07100-034867FM-15+0066SBJP V0201101N001512200019N0112651N1+02901+02301999999ADDGA1041+009001999GF104991999999999999999999MA1101081999999REMMET051METAR SBJP 072000Z 11003KT 9999 SCT030 29/23 Q1011;
0120827980999992010010721004-07100-034867FM-15+0066SBJP V0201201N001512200019N0112651N1+02801+02301999999ADDGA1021+007501999GF102991999999999999999999MA1101081999999REMMET051METAR SBJP 072100Z 12003KT 9999 FEW025 28/23 Q1011;
0120827980999992010010722004-07100-034867FM-15+0066SBJP V0201101N001012200019N0112651N1+02701+02301999999ADDGA1021+007501999GF102991999999999999999999MA1101191999999REMMET051METAR SBJP 072200Z 11002KT 9999 FEW025 27/23 Q1012;
0120827980999992010010723004-07100-034867FM-15+0066SBJP V0201201N001012200019N0112651N1+02701+02301999999ADDGA1021+007501999GF102991999999999999999999MA1101191999999REMMET051METAR SBJP 072300Z 12002KT 9999 FEW025 27/23 Q1012;
0120827980999992010010800004-07100-034867FM-15+0066SBJP V0200901N001012200019N0112651N1+02801+02301999999ADDGA1021+006001999GF102991999999999999999999MA1101291999999REMMET051METAR SBJP 080000Z 09002KT 9999 FEW020 28/23 Q1013;
0120827980999992010010801004-07100-034867FM-15+0066SBJP V0200901N001012200019N0112651N1+02701+02301999999ADDGA1021+006001999GF102991999999999999999999MA1101291999999REMMET051METAR SBJP 080100Z 09002KT 9999 FEW020 27/23 Q1013;
0120827980999992010010802004-07100-034867FM-15+0066SBJP V0200901N001012200019N0112651N1+02701+02301999999ADDGA1021+006001999GF102991999999999999999999MA1101291999999REMMET051METAR SBJP 080200Z 09002KT 9999 FEW020 27/23 Q1013;
0120827980999992010010803004-07100-034867FM-15+0066SBJP V0209999C000012200019N0112651N1+02701+02301999999ADDGA1021+006001999GF102991999999999999999999MA1101191999999REMMET051METAR SBJP 080300Z 00000KT 9999 FEW020 27/23 Q1012;
0120827980999992010010804004-07100-034867FM-15+0066SBJP V0201001N001012200019N0112651N1+02601+02301999999ADDGA1041+006001999GF104991999999999999999999MA1101081999999REMMET051METAR SBJP 080400Z 10002KT 9999 SCT020 26/23 Q1011;
0120827980999992010010805004-07100-034867FM-15+0066SBJP V0200801N000512200019N0112651N1+02601+02301999999ADDGA1041+006001999GF104991999999999999999999MA1101081999999REMMET051METAR SBJP 080500Z 08001KT 9999 SCT020 26/23 Q1011;
0120827980999992010010806004-07100-034867FM-15+0066SBJP V0200901N001512200019N0112651N1+02601+02301999999ADDGA1041+006001999GF104991999999999999999999MA1101081999999REMMET051METAR SBJP 080600Z 09003KT 9999 SCT020 26/23 Q1011;
0120827980999992010010807004-07100-034867FM-15+0066SBJP V0209999C000010060019N0112651N1+02601+02301999999ADDGA1071+006001999GF107991999999999999999999MA1101191999999REMMET051METAR SBJP 080700Z 00000KT 9999 BKN020 26/23 Q1012;
0143827980999992010010808004-07100-034867FM-15+0066SBJP V0201001N001012200019N0112651N1+02601+02301999999ADDGA1021+006001999GA2041+021001999GF104991999999999999999999MA1101191999999REMMET058METAR SBJP 080800Z 10002KT 9999 FEW020 SCT070 26/23 Q1012;
0143827980999992010010809004-07100-034867FM-15+0066SBJP V0201001N000512200019N0112651N1+02601+02301999999ADDGA1021+006001999GA2041+021001999GF104991999999999999999999MA1101191999999REMMET058METAR SBJP 080900Z 10001KT 9999 FEW020 SCT070 26/23 Q1012;
0136827980999992010010810004-07100-034867FM-15+0066SBJP V0201201N00261006001CN0112651N1+02801+02301999999ADDGA1071+006001999GA2041+021001999MA1101291999999REMMET058METAR SBJP 081000Z 12005KT 9999 BKN020 SCT070 28/23 Q1013;EQDQ01+000042SCOTCV
0143827980999992010010811004-07100-034867FM-15+0066SBJP V0201301N002112200019N0112651N1+02901+02301999999ADDGA1041+006001999GA2041+021001999GF104991999999999999999999MA1101291999999REMMET058METAR SBJP 081100Z 13004KT 9999 SCT020 SCT070 29/23 Q1013;
0136827980999992010010812004-07100-034867FM-15+0066SBJP V0201201N00261007501CN0112651N1+03001+02301999999ADDGA1071+007501999GA2041+030001999MA1101391999999REMMET058METAR SBJP 081200Z 12005KT 9999 BKN025 SCT100 30/23 Q1014;EQDQ01+000042SCOTCV
0143827980999992010010813004-07100-034867FM-15+0066SBJP V0201401N002610075019N0112651N1+02901+02301999999ADDGA1071+007501999GA2071+030001999GF107991999999999999999999MA1101291999999REMMET058METAR SBJP 081300Z 14005KT 9999 BKN025 BKN100 29/23 Q1013;
0143827980999992010010814004-07100-034867FM-15+0066SBJP V0201401N003112200019N0112651N1+03101+02201999999ADDGA1041+007501999GA2041+030001999GF104991999999999999999999MA1101291999999REMMET058METAR SBJP 081400Z 14006KT 9999 SCT025 SCT100 31/22 Q1013;
0143827980999992010010815004-07100-034867FM-15+0066SBJP V0201401N002612200019N0112651N1+03101+02101999999ADDGA1041+009001999GA2041+021001999GF104991999999999999999999MA1101291999999REMMET058METAR SBJP 081500Z 14005KT 9999 SCT030 SCT070 31/21 Q1013;
0143827980999992010010816004-07100-034867FM-15+0066SBJP V0201401N002112200019N0112651N1+03101+02101999999ADDGA1041+009001999GA2041+021001999GF104991999999999999999999MA1101191999999REMMET058METAR SBJP 081600Z 14004KT 9999 SCT030 SCT070 31/21 Q1012;
0143827980999992010010817004-07100-034867FM-15+0066SBJP V0201101N003110300019N0112651N1+03101+02201999999ADDGA1041+009001999GA2071+030001999GF107991999999999999999999MA1101081999999REMMET058METAR SBJP 081700Z 11006KT 9999 SCT030 BKN100 31/22 Q1011;
0143827980999992010010818004-07100-034867FM-15+0066SBJP V0201501N002610300019N0112651N1+03001+02201999999ADDGA1021+009001999GA2071+030001999GF107991999999999999999999MA1101081999999REMMET058METAR SBJP 081800Z 15005KT 9999 FEW030 BKN100 30/22 Q1011;
0143827980999992010010819004-07100-034867FM-15+0066SBJP V0201201N003110270019N0112651N1+02901+02201999999ADDGA1041+006001999GA2071+027001999GF107991999999999999999999MA1101081999999REMMET058METAR SBJP 081900Z 12006KT 9999 SCT020 BKN090 29/22 Q1011;
0143827980999992010010820004-07100-034867FM-15+0066SBJP V0201401N003110270019N0112651N1+02801+02301999999ADDGA1041+006001999GA2071+027001999GF107991999999999999999999MA1101081999999REMMET058METAR SBJP 082000Z 14006KT 9999 SCT020 BKN090 28/23 Q1011;
0143827980999992010010821004-07100-034867FM-15+0066SBJP V0201501N002110270019N0112651N1+02801+02301999999ADDGA1041+006001999GA2071+027001999GF107991999999999999999999MA1101191999999REMMET058METAR SBJP 082100Z 15004KT 9999 SCT020 BKN090 28/23 Q1012;
0120827980999992010010822004-07100-034867FM-15+0066SBJP V0201501N001512200019N0112651N1+02701+02301999999ADDGA1021+007501999GF102991999999999999999999MA1101191999999REMMET051METAR SBJP 082200Z 15003KT 9999 FEW025 27/23 Q1012;
0120827980999992010010823004-07100-034867FM-15+0066SBJP V0201501N001012200019N0112651N1+02701+02301999999ADDGA1021+007501999GF102991999999999999999999MA1101291999999REMMET051METAR SBJP 082300Z 15002KT 9999 FEW025 27/23 Q1013;
0120827980999992010010900004-07100-034867FM-15+0066SBJP V0209999C000012200019N0112651N1+02701+02301999999ADDGA1021+006001999GF102991999999999999999999MA1101291999999REMMET051METAR SBJP 090000Z 00000KT 9999 FEW020 27/23 Q1013;
0120827980999992010010901004-07100-034867FM-15+0066SBJP V0209999C000012200019N0112651N1+02701+02301999999ADDGA1041+006001999GF104991999999999999999999MA1101291999999REMMET051METAR SBJP 090100Z 00000KT 9999 SCT020 27/23 Q1013;
0143827980999992010010902004-07100-034867FM-15+0066SBJP V0202101N001510060019N0112651N1+02601+02401999999ADDGA1071+006001999GA2071+021001999GF107991999999999999999999MA1101291999999REMMET058METAR SBJP 090200Z 21003KT 9999 BKN020 BKN070 26/24 Q1013;
0143827980999992010010903004-07100-034867FM-15+0066SBJP V0202201N000510075019N0112651N1+02601+02401999999ADDGA1071+007501999GA2071+024001999GF107991999999999999999999MA1101191999999REMMET058METAR SBJP 090300Z 22001KT 9999 BKN025 BKN080 26/24 Q1012;
0143827980999992010010904004-07100-034867FM-15+0066SBJP V0209999C000010210019N0112651N1+02601+02401999999ADDGA1041+006001999GA2071+021001999GF107991999999999999999999MA1101081999999REMMET058METAR SBJP 090400Z 00000KT 9999 SCT020 BKN070 26/24 Q1011;
0143827980999992010010905004-07100-034867FM-15+0066SBJP V0209999C000010210019N0112651N1+02601+02401999999ADDGA1041+006001999GA2071+021001999GF107991999999999999999999MA1101081999999REMMET058METAR SBJP 090500Z 00000KT 9999 SCT020 BKN070 26/24 Q1011;
0143827980999992010010906004-07100-034867FM-15+0066SBJP V0209999C000010210019N0112651N1+02501+02401999999ADDGA1041+006001999GA2071+021001999GF107991999999999999999999MA1101081999999REMMET058METAR SBJP 090600Z 00000KT 9999 SCT020 BKN070 25/24 Q1011;
0143827980999992010010907004-07100-034867FM-15+0066SBJP V0209999C000012200019N0112651N1+02501+02301999999ADDGA1041+006001999GA2041+021001999GF104991999999999999999999MA1101081999999REMMET058METAR SBJP 090700Z 00000KT 9999 SCT020 SCT070 25/23 Q1011;
0143827980999992010010908004-07100-034867FM-15+0066SBJP V0209999C000012200019N0112651N1+02501+02301999999ADDGA1041+006001999GA2041+021001999GF104991999999999999999999MA1101191999999REMMET058METAR SBJP 090800Z 00000KT 9999 SCT020 SCT070 25/23 Q1012;
0120827980999992010010909004-07100-034867FM-15+0066SBJP V0209999C000012200019N0112651N1+02501+02401999999ADDGA1041+006001999GF104991999999999999999999MA1101291999999REMMET051METAR SBJP 090900Z 00000KT 9999 SCT020 25/24 Q1013;
0120827980999992010010910004-07100-034867FM-15+0066SBJP V0201701N001012200019N0112651N1+02701+02401999999ADDGA1041+006001999GF104991999999999999999999MA1101291999999REMMET051METAR SBJP 091000Z 17002KT 9999 SCT020 27/24 Q1013;
0120827980999992010010911004-07100-034867FM-15+0066SBJP V0201401N002112200019N0112651N1+02901+02301999999ADDGA1041+006001999GF104991999999999999999999MA1101291999999REMMET051METAR SBJP 091100Z 14004KT 9999 SCT020 29/23 Q1013;
0120827980999992010010912004-07100-034867FM-15+0066SBJP V0201101N003110060019N0112651N1+03001+02301999999ADDGA1071+006001999GF107991999999999999999999MA1101291999999REMMET051METAR SBJP 091200Z 11006KT 9999 BKN020 30/23 Q1013;
0120827980999992010010913004-07100-034867FM-15+0066SBJP V0201401N003110060019N0112651N1+03001+02301999999ADDGA1071+006001999GF107991999999999999999999MA1101291999999REMMET051METAR SBJP 091300Z 14006KT 9999 BKN020 30/23 Q1013;
0120827980999992010010914004-07100-034867FM-15+0066SBJP V0201301N002110060019N0112651N1+02901+02201999999ADDGA1071+006001999GF107991999999999999999999MA1101291999999REMMET051METAR SBJP 091400Z 13004KT 9999 BKN020 29/22 Q1013;
0120827980999992010010915004-07100-034867FM-15+0066SBJP V0201401N003110060019N0112651N1+02901+02301999999ADDGA1071+006001999GF107991999999999999999999MA1101191999999REMMET051METAR SBJP 091500Z 14006KT 9999 BKN020 29/23 Q1012;
0143827980999992010010916004-07100-034867FM-15+0066SBJP V0201401N002110075019N0112651N1+03001+02201999999ADDGA1071+007501999GA2071+027001999GF107991999999999999999999MA1101081999999REMMET058METAR SBJP 091600Z 14004KT 9999 BKN025 BKN090 30/22 Q1011;
0143827980999992010010917004-07100-034867FM-15+0066SBJP V0201301N002110075019N0112651N1+02901+02201999999ADDGA1071+007501999GA2071+021001999GF107991999999999999999999MA1101081999999REMMET058METAR SBJP 091700Z 13004KT 9999 BKN025 BKN070 29/22 Q1011;
0143827980999992010010918004-07100-034867FM-15+0066SBJP V0201401N001510270019N0112651N1+02801+02201999999ADDGA1041+007501999GA2071+027001999GF107991999999999999999999MA1101021999999REMMET058METAR SBJP 091800Z 14003KT 9999 SCT025 BKN090 28/22 Q1010;
0143827980999992010010919004-07100-034867FM-15+0066SBJP V0201501N002110060019N0112651N1+02801+02301999999ADDGA1071+006001999GA2071+021001999GF107991999999999999999999MA1101021999999REMMET058METAR SBJP 091900Z 15004KT 9999 BKN020 BKN070 28/23 Q1010;
0143827980999992010010920004-07100-034867FM-15+0066SBJP V0201301N001010060019N0112651N1+02801+02301999999ADDGA1071+006001999GA2071+021001999GF107991999999999999999999MA1101021999999REMMET058METAR SBJP 092000Z 13002KT 9999 BKN020 BKN070 28/23 Q1010;
0143827980999992010010921004-07100-034867FM-15+0066SBJP V0201301N001010060019N0112651N1+02701+02301999999ADDGA1071+006001999GA2071+024001999GF107991999999999999999999MA1101021999999REMMET058METAR SBJP 092100Z 13002KT 9999 BKN020 BKN080 27/23 Q1010;
0143827980999992010010922004-07100-034867FM-15+0066SBJP V0201101N001010060019N0112651N1+02701+02301999999ADDGA1071+006001999GA2071+021001999GF107991999999999999999999MA1101081999999REMMET058METAR SBJP 092200Z 11002KT 9999 BKN020 BKN070 27/23 Q1011;
0143827980999992010010923004-07100-034867FM-15+0066SBJP V0209999C000010060019N0080001N1+02601+02401999999ADDGA1071+006001999GA2071+021001999GF107991999999999999999999MA1101191999999REMMET058METAR SBJP 092300Z 00000KT 8000 BKN020 BKN070 26/24 Q1012;
0153827980999992010011000004-07100-034867FM-15+0066SBJP V0209999C000010060019N0050001N1+02501+02301999999ADDGA1071+006001999GA2071+021001999GF107991999999999999999999MA1101191999999MW1611REMMET062METAR SBJP 100000Z 00000KT 5000 -RA BKN020 BKN070 25/23 Q1012;
0152827980999992010011001004-07100-034867FM-15+0066SBJP V0209999C000010060019N0050001N1+02401+02301999999ADDGA1071+006001999GA2071+021001999GF107991999999999999999999MA1101191999999MW1631REMMET061METAR SBJP 100100Z 00000KT 5000 RA BKN020 BKN070 24/23 Q1012;
0148827980999992010011002004-07100-034867FM-15+0066SBJP V0209999C000010060019N0112651N1+02401+02301999999ADDGA1071+006001999GA2071+021001999GF107991999999999999999999MA1101191999999REMMET063METAR SBJP 100200Z 00000KT 9999 BKN020 BKN070 24/23 Q1012 RERA;
0143827980999992010011003004-07100-034867FM-15+0066SBJP V0209999C000010060019N0112651N1+02401+02301999999ADDGA1071+006001999GA2071+021001999GF107991999999999999999999MA1101081999999REMMET058METAR SBJP 100300Z 00000KT 9999 BKN020 BKN070 24/23 Q1011;
0143827980999992010011004004-07100-034867FM-15+0066SBJP V0209999C000010060019N0112651N1+02501+02301999999ADDGA1071+006001999GA2071+021001999GF107991999999999999999999MA1101081999999REMMET058METAR SBJP 100400Z 00000KT 9999 BKN020 BKN070 25/23 Q1011;
0143827980999992010011005004-07100-034867FM-15+0066SBJP V0209999C000010210019N0112651N1+02501+02301999999ADDGA1041+006001999GA2071+021001999GF107991999999999999999999MA1101021999999REMMET058METAR SBJP 100500Z 00000KT 9999 SCT020 BKN070 25/23 Q1010;
0143827980999992010011006004-07100-034867FM-15+0066SBJP V0209999C000010270019N0112651N1+02401+02301999999ADDGA1041+006001999GA2071+027001999GF107991999999999999999999MA1101021999999REMMET058METAR SBJP 100600Z 00000KT 9999 SCT020 BKN090 24/23 Q1010;
0143827980999992010011007004-07100-034867FM-15+0066SBJP V0209999C000010270019N0112651N1+02501+02301999999ADDGA1041+006001999GA2071+027001999GF107991999999999999999999MA1101021999999REMMET058METAR SBJP 100700Z 00000KT 9999 SCT020 BKN090 25/23 Q1010;
0143827980999992010011008004-07100-034867FM-15+0066SBJP V0209999C000010270019N0112651N1+02501+02301999999ADDGA1041+006001999GA2071+027001999GF107991999999999999999999MA1101081999999REMMET058METAR SBJP 100800Z 00000KT 9999 SCT020 BKN090 25/23 Q1011;
0143827980999992010011009004-07100-034867FM-15+0066SBJP V0209999C000010270019N0112651N1+02501+02401999999ADDGA1041+006001999GA2071+027001999GF107991999999999999999999MA1101191999999REMMET058METAR SBJP 100900Z 00000KT 9999 SCT020 BKN090 25/24 Q1012;
0143827980999992010011010004-07100-034867FM-15+0066SBJP V0209999C000010300019N0112651N1+02701+02401999999ADDGA1021+007501999GA2071+030001999GF107991999999999999999999MA1101291999999REMMET058METAR SBJP 101000Z 00000KT 9999 FEW025 BKN100 27/24 Q1013;
0154827980999992010011011004-07100-034867FM-15+0066SBJP V0201201N003110060019N0050001N1+02601+02201999999ADDGA1071+006001999GA2071+027001999GF107991999999999999999999MA1101291999999MW1161REMMET063METAR SBJP 101100Z 12006KT 5000 VCSH BKN020 BKN090 26/22 Q1013;
0143827980999992010011012004-07100-034867FM-15+0066SBJP V0209999C000010069019N0112651N1+02601+02401999999ADDGA1071+006901999GA2071+024001999GF107991999999999999999999MA1101291999999REMMET058METAR SBJP 101200Z 00000KT 9999 BKN023 BKN080 26/24 Q1013;
0143827980999992010011013004-07100-034867FM-15+0066SBJP V0209999C000010270019N0112651N1+02701+02401999999ADDGA1021+007501999GA2071+027001999GF107991999999999999999999MA1101291999999REMMET058METAR SBJP 101300Z 00000KT 9999 FEW025 BKN090 27/24 Q1013;
0143827980999992010011014004-07100-034867FM-15+0066SBJP V0209999C000010075019N0112651N1+02901+02301999999ADDGA1071+007501999GA2071+027001999GF107991999999999999999999MA1101291999999REMMET058METAR SBJP 101400Z 00000KT 9999 BKN025 BKN090 29/23 Q1013;
0143827980999992010011015004-07100-034867FM-15+0066SBJP V0201501N001510240019N0112651N1+02901+02301999999ADDGA1041+007501999GA2071+024001999GF107991999999999999999999MA1101191999999REMMET058METAR SBJP 101500Z 15003KT 9999 SCT025 BKN080 29/23 Q1012;
0143827980999992010011016004-07100-034867FM-15+0066SBJP V0201101N001510075019N0112651N1+02901+02201999999ADDGA1071+007501999GA2071+024001999GF107991999999999999999999MA1101191999999REMMET058METAR SBJP 101600Z 11003KT 9999 BKN025 BKN080 29/22 Q1012;
0143827980999992010011017004-07100-034867FM-15+0066SBJP V0201101N001510060019N0112651N1+02801+02301999999ADDGA1071+006001999GA2081+021001999GF108991999999999999999999MA1101081999999REMMET058METAR SBJP 101700Z 11003KT 9999 BKN020 OVC070 28/23 Q1011;
0153827980999992010011018004-07100-034867FM-15+0066SBJP V0201501N002610045019N0040001N1+02701+02301999999ADDGA1071+004501999GA2081+021001999GF108991999999999999999999MA1101081999999MW1611REMMET062METAR SBJP 101800Z 15005KT 4000 -RA BKN015 OVC070 27/23 Q1011;
0143827980999992010011019004-07100-034867FM-15+0066SBJP V0201001N001010210019N0080001N1+02601+02401999999ADDGA1041+005401999GA2071+021001999GF107991999999999999999999MA1101081999999REMMET058METAR SBJP 101900Z 10002KT 8000 SCT018 BKN070 26/24 Q1011;
0143827980999992010011020004-07100-034867FM-15+0066SBJP V0201401N001510210019N0112651N1+02701+02401999999ADDGA1041+005401999GA2071+021001999GF107991999999999999999999MA1101081999999REMMET058METAR SBJP 102000Z 14003KT 9999 SCT018 BKN070 27/24 Q1011;
0143827980999992010011021004-07100-034867FM-15+0066SBJP V0209999C000010210019N0112651N1+02601+02301999999ADDGA1041+006001999GA2071+021001999GF107991999999999999999999MA1101081999999REMMET058METAR SBJP 102100Z 00000KT 9999 SCT020 BKN070 26/23 Q1011;
0143827980999992010011022004-07100-034867FM-15+0066SBJP V0201001N001010210019N0112651N1+02601+02301999999ADDGA1041+006001999GA2081+021001999GF108991999999999999999999MA1101191999999REMMET058METAR SBJP 102200Z 10002KT 9999 SCT020 OVC070 26/23 Q1012;
0143827980999992010011023004-07100-034867FM-15+0066SBJP V0209999C000012200019N0112651N1+02601+02301999999ADDGA1021+006001999GA2041+021001999GF104991999999999999999999MA1101191999999REMMET058METAR SBJP 102300Z 00000KT 9999 FEW020 SCT070 26/23 Q1012;
0072827980999992010011100004-07100-034867FM-15+0066SBJP V0209999C000019999999Y0099001N1+02601+02301999999ADDMA1101291999999REMMET045METAR SBJP 110000Z 00000KT CAVOK 26/23 Q1013;
0143827980999992010011101004-07100-034867FM-15+0066SBJP V0209999C000010060019N0112651N1+02501+02301999999ADDGA1071+006001999GA2081+021001999GF108991999999999999999999MA1101291999999REMMET058METAR SBJP 110100Z 00000KT 9999 BKN020 OVC070 25/23 Q1013;
0143827980999992010011102004-07100-034867FM-15+0066SBJP V0209999C000010060019N0112651N1+02501+02301999999ADDGA1071+006001999GA2081+021001999GF108991999999999999999999MA1101291999999REMMET058METAR SBJP 110200Z 00000KT 9999 BKN020 OVC070 25/23 Q1013;
0153827980999992010011103004-07100-034867FM-15+0066SBJP V0209999C000010210019N0080001N1+02501+02301999999ADDGA1041+006001999GA2081+021001999GF108991999999999999999999MA1101191999999MW1611REMMET062METAR SBJP 110300Z 00000KT 8000 -RA SCT020 OVC070 25/23 Q1012;
0143827980999992010011104004-07100-034867FM-15+0066SBJP V0209999C000010270019N0112651N1+02501+02401999999ADDGA1041+009001999GA2071+027001999GF107991999999999999999999MA1101081999999REMMET058METAR SBJP 110400Z 00000KT 9999 SCT030 BKN090 25/24 Q1011;
0143827980999992010011105004-07100-034867FM-15+0066SBJP V0209999C000010075019N0112651N1+02501+02301999999ADDGA1041+005401999GA2071+007501999GF107991999999999999999999MA1101081999999REMMET058METAR SBJP 110500Z 00000KT 9999 SCT018 BKN025 25/23 Q1011;
0120827980999992010011106004-07100-034867FM-15+0066SBJP V0201201N002610075019N0112651N1+02501+02301999999ADDGA1071+007501999GF107991999999999999999999MA1101021999999REMMET051METAR SBJP 110600Z 12005KT 9999 BKN025 25/23 Q1010;
0143827980999992010011107004-07100-034867FM-15+0066SBJP V0209999C000010060019N0112651N1+02501+02301999999ADDGA1071+006001999GA2071+021001999GF107991999999999999999999MA1101081999999REMMET058METAR SBJP 110700Z 00000KT 9999 BKN020 BKN070 25/23 Q1011;
0143827980999992010011108004-07100-034867FM-15+0066SBJP V0209999C000010210019N0112651N1+02501+02301999999ADDGA1041+007501999GA2071+021001999GF107991999999999999999999MA1101081999999REMMET058METAR SBJP 110800Z 00000KT 9999 SCT025 BKN070 25/23 Q1011;
0143827980999992010011109004-07100-034867FM-15+0066SBJP V0209999C000010900019N0112651N1+02501+02301999999ADDGA1021+006001999GA2071+090001999GF107991999999999999999999MA1101081999999REMMET058METAR SBJP 110900Z 00000KT 9999 FEW020 BKN300 25/23 Q1011;
0120827980999992010011110004-07100-034867FM-15+0066SBJP V0209999C000012200019N0112651N1+02701+02401999999ADDGA1021+006001999GF102991999999999999999999MA1101191999999REMMET051METAR SBJP 111000Z 00000KT 9999 FEW020 27/24 Q1012;
0120827980999992010011111004-07100-034867FM-15+0066SBJP V0209999C000010060019N0112651N1+02801+02401999999ADDGA1071+006001999GF107991999999999999999999MA1101291999999REMMET051METAR SBJP 111100Z 00000KT 9999 BKN020 28/24 Q1013;
0120827980999992010011112004-07100-034867FM-15+0066SBJP V0201001N001010060019N0112651N1+02801+02301999999ADDGA1071+006001999GF107991999999999999999999MA1101291999999REMMET051METAR SBJP 111200Z 10002KT 9999 BKN020 28/23 Q1013;
0120827980999992010011113004-07100-034867FM-15+0066SBJP V0201001N001510060019N0112651N1+02901+02401999999ADDGA1071+006001999GF107991999999999999999999MA1101291999999REMMET051METAR SBJP 111300Z 10003KT 9999 BKN020 29/24 Q1013;
0120827980999992010011114004-07100-034867FM-15+0066SBJP V0200401N001010051019N0112651N1+02701+02501999999ADDGA1071+005101999GF107991999999999999999999MA1101291999999REMMET051METAR SBJP 111400Z 04002KT 9999 BKN017 27/25 Q1013;
0120827980999992010011115004-07100-034867FM-15+0066SBJP V0200901N001010060019N0112651N1+02901+02301999999ADDGA1071+006001999GF107991999999999999999999MA1101291999999REMMET051METAR SBJP 111500Z 09002KT 9999 BKN020 29/23 Q1013;
0143827980999992010011116004-07100-034867FM-15+0066SBJP V0200801N002110210019N0112651N1+03001+02301999999ADDGA1041+009001999GA2071+021001999GF107991999999999999999999MA1101191999999REMMET058METAR SBJP 111600Z 08004KT 9999 SCT030 BKN070 30/23 Q1012;
0143827980999992010011117004-07100-034867FM-15+0066SBJP V0200701N002110210019N0112651N1+02901+02201999999ADDGA1041+009001999GA2071+021001999GF107991999999999999999999MA1101081999999REMMET058METAR SBJP 111700Z 07004KT 9999 SCT030 BKN070 29/22 Q1011;
0143827980999992010011118004-07100-034867FM-15+0066SBJP V0201101N002610090019N0112651N1+02901+02301999999ADDGA1071+009001999GA2071+021001999GF107991999999999999999999MA1101081999999REMMET058METAR SBJP 111800Z 11005KT 9999 BKN030 BKN070 29/23 Q1011;
0143827980999992010011119004-07100-034867FM-15+0066SBJP V0200701N002110090019N0112651N1+02801+02301999999ADDGA1071+009001999GA2071+021001999GF107991999999999999999999MA1101081999999REMMET058METAR SBJP 111900Z 07004KT 9999 BKN030 BKN070 28/23 Q1011;
0143827980999992010011120004-07100-034867FM-15+0066SBJP V0201001N001010210019N0112651N1+02801+02201999999ADDGA1021+009001999GA2071+021001999GF107991999999999999999999MA1101081999999REMMET058METAR SBJP 112000Z 10002KT 9999 FEW030 BKN070 28/22 Q1011;
0072827980999992010011121004-07100-034867FM-15+0066SBJP V0201101N001519999999Y0099001N1+02701+02201999999ADDMA1101081999999REMMET045METAR SBJP 112100Z 11003KT CAVOK 27/22 Q1011;
0072827980999992010011122004-07100-034867FM-15+0066SBJP V0209999C000019999999Y0099001N1+02601+02201999999ADDMA1101191999999REMMET045METAR SBJP 112200Z 00000KT CAVOK 26/22 Q1012;
0120827980999992010011123004-07100-034867FM-15+0066SBJP V0209999C000012200019N0112651N1+02601+02301999999ADDGA1021+006001999GF102991999999999999999999MA1101291999999REMMET051METAR SBJP 112300Z 00000KT 9999 FEW020 26/23 Q1013;
0120827980999992010011200004-07100-034867FM-15+0066SBJP V0209999C000012200019N0112651N1+02601+02201999999ADDGA1021+006001999GF102991999999999999999999MA1101291999999REMMET051METAR SBJP 120000Z 00000KT 9999 FEW020 26/22 Q1013;
0120827980999992010011201004-07100-034867FM-15+0066SBJP V0209999C000012200019N0112651N1+02601+02201999999ADDGA1021+006001999GF102991999999999999999999MA1101391999999REMMET051METAR SBJP 120100Z 00000KT 9999 FEW020 26/22 Q1014;
0120827980999992010011202004-07100-034867FM-15+0066SBJP V0209999C000012200019N0112651N1+02401+02201999999ADDGA1021+006001999GF102991999999999999999999MA1101291999999REMMET051METAR SBJP 120200Z 00000KT 9999 FEW020 24/22 Q1013;
0120827980999992010011203004-07100-034867FM-15+0066SBJP V0209999C000012200019N0112651N1+02401+02301999999ADDGA1041+006001999GF104991999999999999999999MA1101191999999REMMET051METAR SBJP 120300Z 00000KT 9999 SCT020 24/23 Q1012;
0072827980999992010011204004-07100-034867FM-15+0066SBJP V0209999C000019999999Y0099001N1+02401+02201999999ADDMA1101191999999REMMET045METAR SBJP 120400Z 00000KT CAVOK 24/22 Q1012;
0120827980999992010011205004-07100-034867FM-15+0066SBJP V0209999C000012200019N0112651N1+02401+02201999999ADDGA1041+006001999GF104991999999999999999999MA1101081999999REMMET051METAR SBJP 120500Z 00000KT 9999 SCT020 24/22 Q1011;
0120827980999992010011206004-07100-034867FM-15+0066SBJP V0209999C000012200019N0112651N1+02401+02201999999ADDGA1041+006001999GF104991999999999999999999MA1101191999999REMMET051METAR SBJP 120600Z 00000KT 9999 SCT020 24/22 Q1012;
0120827980999992010011207004-07100-034867FM-15+0066SBJP V0209999C000012200019N0112651N1+02401+02201999999ADDGA1041+006001999GF104991999999999999999999MA1101081999999REMMET051METAR SBJP 120700Z 00000KT 9999 SCT020 24/22 Q1011;
0120827980999992010011208004-07100-034867FM-15+0066SBJP V0209999C000010051019N0112651N1+02401+02201999999ADDGA1071+005101999GF107991999999999999999999MA1101191999999REMMET051METAR SBJP 120800Z 00000KT 9999 BKN017 24/22 Q1012;
0120827980999992010011209004-07100-034867FM-15+0066SBJP V0209999C000010051019N0112651N1+02401+02301999999ADDGA1071+005101999GF107991999999999999999999MA1101291999999REMMET051METAR SBJP 120900Z 00000KT 9999 BKN017 24/23 Q1013;
0143827980999992010011210004-07100-034867FM-15+0066SBJP V0209999C000010210019N0112651N1+02501+02301999999ADDGA1041+007501999GA2081+021001999GF108991999999999999999999MA1101391999999REMMET058METAR SBJP 121000Z 00000KT 9999 SCT025 OVC070 25/23 Q1014;
0143827980999992010011211004-07100-034867FM-15+0066SBJP V0209999C000010075019N0112651N1+02701+02301999999ADDGA1071+007501999GA2071+021001999GF107991999999999999999999MA1101391999999REMMET058METAR SBJP 121100Z 00000KT 9999 BKN025 BKN070 27/23 Q1014;
0120827980999992010011212004-07100-034867FM-15+0066SBJP V0200901N002110090019N0112651N1+02901+02201999999ADDGA1071+009001999GF107991999999999999999999MA1101391999999REMMET051METAR SBJP 121200Z 09004KT 9999 BKN030 29/22 Q1014;
0120827980999992010011213004-07100-034867FM-15+0066SBJP V0200801N002110090019N0112651N1+02901+02201999999ADDGA1071+009001999GF107991999999999999999999MA1101391999999REMMET051METAR SBJP 121300Z 08004KT 9999 BKN030 29/22 Q1014;
0120827980999992010011214004-07100-034867FM-15+0066SBJP V0200601N002110090019N0112651N1+02901+02201999999ADDGA1071+009001999GF107991999999999999999999MA1101391999999REMMET051METAR SBJP 121400Z 06004KT 9999 BKN030 29/22 Q1014;
0120827980999992010011215004-07100-034867FM-15+0066SBJP V0200801N001010090019N0112651N1+03001+02201999999ADDGA1071+009001999GF107991999999999999999999MA1101391999999REMMET051METAR SBJP 121500Z 08002KT 9999 BKN030 30/22 Q1014;
0143827980999992010011216004-07100-034867FM-15+0066SBJP V0201201N001510210019N0112651N1+03001+02201999999ADDGA1041+009001999GA2071+021001999GF107991999999999999999999MA1101291999999REMMET058METAR SBJP 121600Z 12003KT 9999 SCT030 BKN070 30/22 Q1013;
0143827980999992010011217004-07100-034867FM-15+0066SBJP V0201001N001510210019N0112651N1+02901+02101999999ADDGA1041+009001999GA2071+021001999GF107991999999999999999999MA1101191999999REMMET058METAR SBJP 121700Z 10003KT 9999 SCT030 BKN070 29/21 Q1012;
0143827980999992010011218004-07100-034867FM-15+0066SBJP V0201301N002110210019N0112651N1+02901+02101999999ADDGA1041+009001999GA2071+021001999GF107991999999999999999999MA1101191999999REMMET058METAR SBJP 121800Z 13004KT 9999 SCT030 BKN070 29/21 Q1012;
0143827980999992010011219004-07100-034867FM-15+0066SBJP V0201201N002110210019N0112651N1+02901+02001999999ADDGA1021+007501999GA2071+021001999GF107991999999999999999999MA1101191999999REMMET058METAR SBJP 121900Z 12004KT 9999 FEW025 BKN070 29/20 Q1012;
0143827980999992010011220004-07100-034867FM-15+0066SBJP V0201301N001510210019N0112651N1+02801+02101999999ADDGA1021+007501999GA2071+021001999GF107991999999999999999999MA1101191999999REMMET058METAR SBJP 122000Z 13003KT 9999 FEW025 BKN070 28/21 Q1012;
0143827980999992010011221004-07100-034867FM-15+0066SBJP V0201201N001012200019N0112651N1+02701+02201999999ADDGA1021+007501999GA2041+021001999GF104991999999999999999999MA1101191999999REMMET058METAR SBJP 122100Z 12002KT 9999 FEW025 SCT070 27/22 Q1012;
0143827980999992010011222004-07100-034867FM-15+0066SBJP V0209999C000012200019N0112651N1+02601+02201999999ADDGA1021+007501999GA2041+021001999GF104991999999999999999999MA1101291999999REMMET058METAR SBJP 122200Z 00000KT 9999 FEW025 SCT070 26/22 Q1013;
0143827980999992010011223004-07100-034867FM-15+0066SBJP V0209999C000012200019N0112651N1+02601+02201999999ADDGA1041+006001999GA2041+021001999GF104991999999999999999999MA1101391999999REMMET058METAR SBJP 122300Z 00000KT 9999 SCT020 SCT070 26/22 Q1014;
0120827980999992010011300004-07100-034867FM-15+0066SBJP V0209999C000012200019N0112651N1+02601+02201999999ADDGA1041+006001999GF104991999999999999999999MA1101391999999REMMET051METAR SBJP 130000Z 00000KT 9999 SCT020 26/22 Q1014;
0120827980999992010011301004-07100-034867FM-15+0066SBJP V0209999C000012200019N0112651N1+02501+02201999999ADDGA1041+006001999GF104991999999999999999999MA1101391999999REMMET051METAR SBJP 130100Z 00000KT 9999 SCT020 25/22 Q1014;
0120827980999992010011302004-07100-034867FM-15+0066SBJP V0209999C000012200019N0112651N1+02501+02201999999ADDGA1041+006001999GF104991999999999999999999MA1101391999999REMMET051METAR SBJP 130200Z 00000KT 9999 SCT020 25/22 Q1014;
0120827980999992010011303004-07100-034867FM-15+0066SBJP V0209999C000012200019N0112651N1+02501+02201999999ADDGA1041+006001999GF104991999999999999999999MA1101291999999REMMET051METAR SBJP 130300Z 00000KT 9999 SCT020 25/22 Q1013;
0120827980999992010011304004-07100-034867FM-15+0066SBJP V0209999C000012200019N0112651N1+02401+02201999999ADDGA1041+006001999GF104991999999999999999999MA1101191999999REMMET051METAR SBJP 130400Z 00000KT 9999 SCT020 24/22 Q1012;
0120827980999992010011305004-07100-034867FM-15+0066SBJP V0209999C000012200019N0112651N1+02301+02201999999ADDGA1041+006001999GF104991999999999999999999MA1101191999999REMMET051METAR SBJP 130500Z 00000KT 9999 SCT020 23/22 Q1012;
0120827980999992010011306004-07100-034867FM-15+0066SBJP V0209999C000012200019N0112651N1+02301+02201999999ADDGA1021+006001999GF102991999999999999999999MA1101291999999REMMET051METAR SBJP 130600Z 00000KT 9999 FEW020 23/22 Q1013;
0120827980999992010011307004-07100-034867FM-15+0066SBJP V0209999C000012200019N0112651N1+02301+02101999999ADDGA1021+006001999GF102991999999999999999999MA1101291999999REMMET051METAR SBJP 130700Z 00000KT 9999 FEW020 23/21 Q1013;
0120827980999992010011308004-07100-034867FM-15+0066SBJP V0202301N001012200019N0112651N1+02301+02201999999ADDGA1041+006001999GF104991999999999999999999MA1101291999999REMMET051METAR SBJP 130800Z 23002KT 9999 SCT020 23/22 Q1013;
0143827980999992010011309004-07100-034867FM-15+0066SBJP V0209999C000012200019N0112651N1+02301+02201999999ADDGA1021+006001999GA2041+021001999GF104991999999999999999999MA1101391999999REMMET058METAR SBJP 130900Z 00000KT 9999 FEW020 SCT070 23/22 Q1014;
0143827980999992010011310004-07100-034867FM-15+0066SBJP V0209999C000010210019N0112651N1+02501+02301999999ADDGA1021+006001999GA2071+021001999GF107991999999999999999999MA1101491999999REMMET058METAR SBJP 131000Z 00000KT 9999 FEW020 BKN070 25/23 Q1015;
0143827980999992010011311004-07100-034867FM-15+0066SBJP V0209999C000010210019N0112651N1+02901+02301999999ADDGA1021+007501999GA2071+021001999GF107991999999999999999999MA1101491999999REMMET058METAR SBJP 131100Z 00000KT 9999 FEW025 BKN070 29/23 Q1015;
0143827980999992010011312004-07100-034867FM-15+0066SBJP V0201201N001510210019N0112651N1+02901+02201999999ADDGA1041+007501999GA2071+021001999GF107991999999999999999999MA1101491999999REMMET058METAR SBJP 131200Z 12003KT 9999 SCT025 BKN070 29/22 Q1015;
0143827980999992010011313004-07100-034867FM-15+0066SBJP V0201101N001510210019N0112651N1+03001+02201999999ADDGA1041+009001999GA2071+021001999GF107991999999999999999999MA1101491999999REMMET058METAR SBJP 131300Z 11003KT 9999 SCT030 BKN070 30/22 Q1015;
0143827980999992010011314004-07100-034867FM-15+0066SBJP V0201301N001510210019N0112651N1+03001+02101999999ADDGA1041+009001999GA2071+021001999GF107991999999999999999999MA1101491999999REMMET058METAR SBJP 131400Z 13003KT 9999 SCT030 BKN070 30/21 Q1015;
0143827980999992010011315004-07100-034867FM-15+0066SBJP V0201301N001510090019N0112651N1+02901+02201999999ADDGA1071+009001999GA2071+021001999GF107991999999999999999999MA1101391999999REMMET058METAR SBJP 131500Z 13003KT 9999 BKN030 BKN070 29/22 Q1014;
0143827980999992010011316004-07100-034867FM-15+0066SBJP V0201601N003110210019N0112651N1+03101+02201999999ADDGA1041+009001999GA2071+021001999GF107991999999999999999999MA1101291999999REMMET058METAR SBJP 131600Z 16006KT 9999 SCT030 BKN070 31/22 Q1013;
0143827980999992010011317004-07100-034867FM-15+0066SBJP V0201101N002110210019N0112651N1+03101+02201999999ADDGA1041+009001999GA2071+021001999GF107991999999999999999999MA1101291999999REMMET058METAR SBJP 131700Z 11004KT 9999 SCT030 BKN070 31/22 Q1013;
0143827980999992010011318004-07100-034867FM-15+0066SBJP V0201101N002110270019N0112651N1+03001+02201999999ADDGA1021+009001999GA2071+027001999GF107991999999999999999999MA1101191999999REMMET058METAR SBJP 131800Z 11004KT 9999 FEW030 BKN090 30/22 Q1012;
0143827980999992010011319004-07100-034867FM-15+0066SBJP V0201501N003112200019N0112651N1+03001+02101999999ADDGA1021+009001999GA2041+090001999GF104991999999999999999999MA1101081999999REMMET058METAR SBJP 131900Z 15006KT 9999 FEW030 SCT300 30/21 Q1011;
0120827980999992010011320004-07100-034867FM-15+0066SBJP V0201501N003112200019N0112651N1+02801+02201999999ADDGA1021+009001999GF102991999999999999999999MA1101191999999REMMET051METAR SBJP 132000Z 15006KT 9999 FEW030 28/22 Q1012;
0120827980999992010011321004-07100-034867FM-15+0066SBJP V0201401N002112200019N0112651N1+02701+02201999999ADDGA1021+009001999GF102991999999999999999999MA1101191999999REMMET051METAR SBJP 132100Z 14004KT 9999 FEW030 27/22 Q1012;
0120827980999992010011322004-07100-034867FM-15+0066SBJP V0201301N001012200019N0112651N1+02701+02201999999ADDGA1021+007501999GF102991999999999999999999MA1101291999999REMMET051METAR SBJP 132200Z 13002KT 9999 FEW025 27/22 Q1013;
0120827980999992010011323004-07100-034867FM-15+0066SBJP V0209999C000012200019N0112651N1+02601+02201999999ADDGA1021+007501999GF102991999999999999999999MA1101391999999REMMET051METAR SBJP 132300Z 00000KT 9999 FEW025 26/22 Q1014;
0120827980999992010011400004-07100-034867FM-15+0066SBJP V0209999C000012200019N0112651N1+02601+02301999999ADDGA1021+007501999GF102991999999999999999999MA1101391999999REMMET051METAR SBJP 140000Z 00000KT 9999 FEW025 26/23 Q1014;
0120827980999992010011401004-07100-034867FM-15+0066SBJP V0209999C000012200019N0112651N1+02601+02301999999ADDGA1021+007501999GF102991999999999999999999MA1101391999999REMMET051METAR SBJP 140100Z 00000KT 9999 FEW025 26/23 Q1014;
0120827980999992010011402004-07100-034867FM-15+0066SBJP V0209999C000012200019N0112651N1+02501+02201999999ADDGA1021+007501999GF102991999999999999999999MA1101391999999REMMET051METAR SBJP 140200Z 00000KT 9999 FEW025 25/22 Q1014;
0120827980999992010011403004-07100-034867FM-15+0066SBJP V0209999C000012200019N0112651N1+02501+02301999999ADDGA1021+007501999GF102991999999999999999999MA1101291999999REMMET051METAR SBJP 140300Z 00000KT 9999 FEW025 25/23 Q1013;
0143827980999992010011404004-07100-034867FM-15+0066SBJP V0209999C000012200019N0112651N1+02501+02301999999ADDGA1021+004501999GA2041+006001999GF104991999999999999999999MA1101291999999REMMET058METAR SBJP 140400Z 00000KT 9999 FEW015 SCT020 25/23 Q1013;
0120827980999992010011405004-07100-034867FM-15+0066SBJP V0209999C000012200019N0112651N1+02501+02301999999ADDGA1041+006001999GF104991999999999999999999MA1101191999999REMMET051METAR SBJP 140500Z 00000KT 9999 SCT020 25/23 Q1012;
0143827980999992010011406004-07100-034867FM-15+0066SBJP V0209999C000010060019N0112651N1+02501+02301999999ADDGA1021+004501999GA2071+006001999GF107991999999999999999999MA1101191999999REMMET058METAR SBJP 140600Z 00000KT 9999 FEW015 BKN020 25/23 Q1012;
0120827980999992010011407004-07100-034867FM-15+0066SBJP V0209999C000012200019N0112651N1+02501+02301999999ADDGA1041+006001999GF104991999999999999999999MA1101291999999REMMET051METAR SBJP 140700Z 00000KT 9999 SCT020 25/23 Q1013;
0120827980999992010011408004-07100-034867FM-15+0066SBJP V0209999C000012200019N0112651N1+02501+02301999999ADDGA1041+006001999GF104991999999999999999999MA1101291999999REMMET051METAR SBJP 140800Z 00000KT 9999 SCT020 25/23 Q1013;
0120827980999992010011409004-07100-034867FM-15+0066SBJP V0209999C000012200019N0112651N1+02501+02301999999ADDGA1041+006001999GF104991999999999999999999MA1101391999999REMMET051METAR SBJP 140900Z 00000KT 9999 SCT020 25/23 Q1014;
0120827980999992010011410004-07100-034867FM-15+0066SBJP V0209999C000012200019N0112651N1+02801+02301999999ADDGA1041+006001999GF104991999999999999999999MA1101491999999REMMET051METAR SBJP 141000Z 00000KT 9999 SCT020 28/23 Q1015;
0120827980999992010011411004-07100-034867FM-15+0066SBJP V0201101N002112200019N0112651N1+02801+02301999999ADDGA1041+006001999GF104991999999999999999999MA1101491999999REMMET051METAR SBJP 141100Z 11004KT 9999 SCT020 28/23 Q1015;
0120827980999992010011412004-07100-034867FM-15+0066SBJP V0201401N002110060019N0112651N1+03101+02201999999ADDGA1071+006001999GF107991999999999999999999MA1101491999999REMMET051METAR SBJP 141200Z 14004KT 9999 BKN020 31/22 Q1015;
0120827980999992010011413004-07100-034867FM-15+0066SBJP V0201001N003112200019N0112651N1+03001+02101999999ADDGA1041+006001999GF104991999999999999999999MA1101491999999REMMET051METAR SBJP 141300Z 10006KT 9999 SCT020 30/21 Q1015;
0120827980999992010011414004-07100-034867FM-15+0066SBJP V0201501N003112200019N0112651N1+03001+02201999999ADDGA1041+006001999GF104991999999999999999999MA1101491999999REMMET051METAR SBJP 141400Z 15006KT 9999 SCT020 30/22 Q1015;
0120827980999992010011415004-07100-034867FM-15+0066SBJP V0201001N002112200019N0112651N1+03101+02201999999ADDGA1041+006001999GF104991999999999999999999MA1101391999999REMMET051METAR SBJP 141500Z 10004KT 9999 SCT020 31/22 Q1014;
0120827980999992010011416004-07100-034867FM-15+0066SBJP V0201401N002612200019N0112651N1+03101+02101999999ADDGA1041+009001999GF104991999999999999999999MA1101391999999REMMET051METAR SBJP 141600Z 14005KT 9999 SCT030 31/21 Q1014;
0120827980999992010011417004-07100-034867FM-15+0066SBJP V0201201N002612200019N0112651N1+03101+02201999999ADDGA1041+009001999GF104991999999999999999999MA1101291999999REMMET051METAR SBJP 141700Z 12005KT 9999 SCT030 31/22 Q1013;
0120827980999992010011418004-07100-034867FM-15+0066SBJP V0201501N003112200019N0112651N1+03001+02201999999ADDGA1021+009001999GF102991999999999999999999MA1101191999999REMMET051METAR SBJP 141800Z 15006KT 9999 FEW030 30/22 Q1012;
0120827980999992010011419004-07100-034867FM-15+0066SBJP V0201201N002612200019N0112651N1+03001+02201999999ADDGA1021+009001999GF102991999999999999999999MA1101191999999REMMET051METAR SBJP 141900Z 12005KT 9999 FEW030 30/22 Q1012;
0120827980999992010011420004-07100-034867FM-15+0066SBJP V0201301N002612200019N0112651N1+02801+02201999999ADDGA1021+009001999GF102991999999999999999999MA1101291999999REMMET051METAR SBJP 142000Z 13005KT 9999 FEW030 28/22 Q1013;
0120827980999992010011421004-07100-034867FM-15+0066SBJP V0201301N001512200019N0112651N1+02801+02301999999ADDGA1041+007501999GF104991999999999999999999MA1101291999999REMMET051METAR SBJP 142100Z 13003KT 9999 SCT025 28/23 Q1013;
0120827980999992010011422004-07100-034867FM-15+0066SBJP V0201101N001012200019N0112651N1+02701+02301999999ADDGA1021+006001999GF102991999999999999999999MA1101391999999REMMET051METAR SBJP 142200Z 11002KT 9999 FEW020 27/23 Q1014;
0120827980999992010011423004-07100-034867FM-15+0066SBJP V0201001N001512200019N0112651N1+02701+02301999999ADDGA1021+006001999GF102991999999999999999999MA1101391999999REMMET051METAR SBJP 142300Z 10003KT 9999 FEW020 27/23 Q1014;
0120827980999992010011500004-07100-034867FM-15+0066SBJP V0209999C000012200019N0112651N1+02701+02201999999ADDGA1021+006001999GF102991999999999999999999MA1101391999999REMMET051METAR SBJP 150000Z 00000KT 9999 FEW020 27/22 Q1014;
0120827980999992010011501004-07100-034867FM-15+0066SBJP V0201301N001012200019N0112651N1+02601+02301999999ADDGA1041+006001999GF104991999999999999999999MA1101491999999REMMET051METAR SBJP 150100Z 13002KT 9999 SCT020 26/23 Q1015;
0120827980999992010011502004-07100-034867FM-15+0066SBJP V0209999C000012200019N0112651N1+02601+02301999999ADDGA1021+006001999GF102991999999999999999999MA1101391999999REMMET051METAR SBJP 150200Z 00000KT 9999 FEW020 26/23 Q1014;
0120827980999992010011503004-07100-034867FM-15+0066SBJP V0209999C000012200019N0112651N1+02601+02301999999ADDGA1041+006001999GF104991999999999999999999MA1101391999999REMMET051METAR SBJP 150300Z 00000KT 9999 SCT020 26/23 Q1014;
0120827980999992010011504004-07100-034867FM-15+0066SBJP V0209999C000012200019N0112651N1+02501+02301999999ADDGA1041+006001999GF104991999999999999999999MA1101291999999REMMET051METAR SBJP 150400Z 00000KT 9999 SCT020 25/23 Q1013;
0120827980999992010011505004-07100-034867FM-15+0066SBJP V0209999C000012200019N0112651N1+02501+02301999999ADDGA1041+006001999GF104991999999999999999999MA1101291999999REMMET051METAR SBJP 150500Z 00000KT 9999 SCT020 25/23 Q1013;
0120827980999992010011506004-07100-034867FM-15+0066SBJP V0209999C000012200019N0112651N1+02401+02301999999ADDGA1041+006001999GF104991999999999999999999MA1101191999999REMMET051METAR SBJP 150600Z 00000KT 9999 SCT020 24/23 Q1012;
0120827980999992010011507004-07100-034867FM-15+0066SBJP V0209999C000012200019N0112651N1+02401+02201999999ADDGA1041+006001999GF104991999999999999999999MA1101291999999REMMET051METAR SBJP 150700Z 00000KT 9999 SCT020 24/22 Q1013;
0120827980999992010011508004-07100-034867FM-15+0066SBJP V0209999C000012200019N0112651N1+02401+02201999999ADDGA1041+006001999GF104991999999999999999999MA1101291999999REMMET051METAR SBJP 150800Z 00000KT 9999 SCT020 24/22 Q1013;
0120827980999992010011509004-07100-034867FM-15+0066SBJP V0209999C000012200019N0112651N1+02401+02301999999ADDGA1041+006001999GF104991999999999999999999MA1101391999999REMMET051METAR SBJP 150900Z 00000KT 9999 SCT020 24/23 Q1014;
0120827980999992010011510004-07100-034867FM-15+0066SBJP V0209999C000012200019N0112651N1+02601+02301999999ADDGA1041+007501999GF104991999999999999999999MA1101491999999REMMET051METAR SBJP 151000Z 00000KT 9999 SCT025 26/23 Q1015;
0120827980999992010011511004-07100-034867FM-15+0066SBJP V0201501N002110075019N0112651N1+02801+02301999999ADDGA1071+007501999GF107991999999999999999999MA1101491999999REMMET051METAR SBJP 151100Z 15004KT 9999 BKN025 28/23 Q1015;
0120827980999992010011512004-07100-034867FM-15+0066SBJP V0201401N002610075019N0112651N1+03001+02201999999ADDGA1071+007501999GF107991999999999999999999MA1101491999999REMMET051METAR SBJP 151200Z 14005KT 9999 BKN025 30/22 Q1015;
0120827980999992010011513004-07100-034867FM-15+0066SBJP V0201401N002110075019N0112651N1+03001+02101999999ADDGA1071+007501999GF107991999999999999999999MA1101591999999REMMET051METAR SBJP 151300Z 14004KT 9999 BKN025 30/21 Q1016;
0120827980999992010011514004-07100-034867FM-15+0066SBJP V0201501N002610090019N0112651N1+03101+02201999999ADDGA1071+009001999GF107991999999999999999999MA1101491999999REMMET051METAR SBJP 151400Z 15005KT 9999 BKN030 31/22 Q1015;
0120827980999992010011515004-07100-034867FM-15+0066SBJP V0201701N003110090019N0112651N1+03101+02201999999ADDGA1071+009001999GF107991999999999999999999MA1101391999999REMMET051METAR SBJP 151500Z 17006KT 9999 BKN030 31/22 Q1014;
0120827980999992010011516004-07100-034867FM-15+0066SBJP V0201201N002110090019N0112651N1+03101+02201999999ADDGA1071+009001999GF107991999999999999999999MA1101391999999REMMET051METAR SBJP 151600Z 12004KT 9999 BKN030 31/22 Q1014;
0120827980999992010011517004-07100-034867FM-15+0066SBJP V0201201N002112200019N0112651N1+03101+02201999999ADDGA1041+009001999GF104991999999999999999999MA1101291999999REMMET051METAR SBJP 151700Z 12004KT 9999 SCT030 31/22 Q1013;
0120827980999992010011518004-07100-034867FM-15+0066SBJP V0201201N002612200019N0112651N1+03001+02201999999ADDGA1041+009001999GF104991999999999999999999MA1101291999999REMMET051METAR SBJP 151800Z 12005KT 9999 SCT030 30/22 Q1013;
0120827980999992010011519004-07100-034867FM-15+0066SBJP V0201301N002612200019N0112651N1+03001+02201999999ADDGA1041+007501999GF104991999999999999999999MA1101291999999REMMET051METAR SBJP 151900Z 13005KT 9999 SCT025 30/22 Q1013;
0120827980999992010011520004-07100-034867FM-15+0066SBJP V0201301N002612200019N0112651N1+02901+02201999999ADDGA1041+006001999GF104991999999999999999999MA1101391999999REMMET051METAR SBJP 152000Z 13005KT 9999 SCT020 29/22 Q1014;
0120827980999992010011521004-07100-034867FM-15+0066SBJP V0201501N002112200019N0112651N1+02801+02301999999ADDGA1021+006001999GF102991999999999999999999MA1101391999999REMMET051METAR SBJP 152100Z 15004KT 9999 FEW020 28/23 Q1014;
0120827980999992010011522004-07100-034867FM-15+0066SBJP V0201301N001012200019N0112651N1+02701+02301999999ADDGA1041+006001999GF104991999999999999999999MA1101491999999REMMET051METAR SBJP 152200Z 13002KT 9999 SCT020 27/23 Q1015;
0120827980999992010011523004-07100-034867FM-15+0066SBJP V0209999C000012200019N0112651N1+02601+02301999999ADDGA1021+006001999GF102991999999999999999999MA1101491999999REMMET051METAR SBJP 152300Z 00000KT 9999 FEW020 26/23 Q1015;
0120827980999992010011600004-07100-034867FM-15+0066SBJP V0209999C000012200019N0112651N1+02601+02301999999ADDGA1021+006001999GF102991999999999999999999MA1101591999999REMMET051METAR SBJP 160000Z 00000KT 9999 FEW020 26/23 Q1016;
0120827980999992010011601004-07100-034867FM-15+0066SBJP V0209999C000012200019N0112651N1+02601+02301999999ADDGA1021+006001999GF102991999999999999999999MA1101591999999REMMET051METAR SBJP 160100Z 00000KT 9999 FEW020 26/23 Q1016;
0120827980999992010011602004-07100-034867FM-15+0066SBJP V0209999C000012200019N0112651N1+02501+02301999999ADDGA1021+006001999GF102991999999999999999999MA1101491999999REMMET051METAR SBJP 160200Z 00000KT 9999 FEW020 25/23 Q1015;
0143827980999992010011603004-07100-034867FM-15+0066SBJP V0209999C000012200019N0112651N1+02501+02301999999ADDGA1021+006001999GA2041+021001999GF104991999999999999999999MA1101491999999REMMET058METAR SBJP 160300Z 00000KT 9999 FEW020 SCT070 25/23 Q1015;
0120827980999992010011604004-07100-034867FM-15+0066SBJP V0209999C000012200019N0112651N1+02501+02301999999ADDGA1041+009001999GF104991999999999999999999MA1101391999999REMMET051METAR SBJP 160400Z 00000KT 9999 SCT030 25/23 Q1014;
0143827980999992010011605004-07100-034867FM-15+0066SBJP V0209999C000010210019N0112651N1+02601+02301999999ADDGA1041+006001999GA2071+021001999GF107991999999999999999999MA1101391999999REMMET058METAR SBJP 160500Z 00000KT 9999 SCT020 BKN070 26/23 Q1014;
0143827980999992010011606004-07100-034867FM-15+0066SBJP V0209999C000010210019N0112651N1+02501+02301999999ADDGA1041+006001999GA2071+021001999GF107991999999999999999999MA1101391999999REMMET058METAR SBJP 160600Z 00000KT 9999 SCT020 BKN070 25/23 Q1014;
0143827980999992010011607004-07100-034867FM-15+0066SBJP V0209999C000010210019N0112651N1+02501+02301999999ADDGA1041+006001999GA2071+021001999GF107991999999999999999999MA1101291999999REMMET058METAR SBJP 160700Z 00000KT 9999 SCT020 BKN070 25/23 Q1013;
0143827980999992010011608004-07100-034867FM-15+0066SBJP V0209999C000010060019N0112651N1+02501+02301999999ADDGA1071+006001999GA2071+021001999GF107991999999999999999999MA1101391999999REMMET058METAR SBJP 160800Z 00000KT 9999 BKN020 BKN070 25/23 Q1014;
0153827980999992010011608384-07100-034867FM-16+0066SBJP V0209999C000010027019N0030001N1+02501+02301999999ADDGA1071+002701999GA2081+021001999GF108991999999999999999999MA1101391999999MW1611REMMET062SPECI SBJP 160838Z 00000KT 3000 -RA BKN009 OVC070 25/23 Q1014;
0153827980999992010011609004-07100-034867FM-15+0066SBJP V0209999C000010030019N0030001N1+02501+02301999999ADDGA1071+003001999GA2081+021001999GF108991999999999999999999MA1101391999999MW1611REMMET062METAR SBJP 160900Z 00000KT 3000 -RA BKN010 OVC070 25/23 Q1014;
0153827980999992010011609294-07100-034867FM-16+0066SBJP V0209999C000010015019N0012001N1+02401+02301999999ADDGA1071+001501999GA2081+021001999GF108991999999999999999999MA1101491999999MW1611REMMET062SPECI SBJP 160929Z 00000KT 1200 -RA BKN005 OVC070 24/23 Q1015;
0143827980999992010011610004-07100-034867FM-15+0066SBJP V0209999C000010030019N0112651N1+02401+02301999999ADDGA1071+003001999GA2071+021001999GF107991999999999999999999MA1101491999999REMMET058METAR SBJP 161000Z 00000KT 9999 BKN010 BKN070 24/23 Q1015;
0153827980999992010011610304-07100-034867FM-16+0066SBJP V0200801N002110015019N0012001N1+02501+02401999999ADDGA1071+001501999GA2071+021001999GF107991999999999999999999MA1101491999999MW1611REMMET062SPECI SBJP 161030Z 08004KT 1200 -RA BKN005 BKN070 25/24 Q1015;
0153827980999992010011611004-07100-034867FM-15+0066SBJP V0209999C000010036019N0045001N1+02501+02401999999ADDGA1071+003601999GA2071+021001999GF107991999999999999999999MA1101491999999MW1611REMMET062METAR SBJP 161100Z 00000KT 4500 -RA BKN012 BKN070 25/24 Q1015;
0143827980999992010011612004-07100-034867FM-15+0066SBJP V0209999C000010045019N0112651N1+02801+02401999999ADDGA1071+004501999GA2071+021001999GF107991999999999999999999MA1101591999999REMMET058METAR SBJP 161200Z 00000KT 9999 BKN015 BKN070 28/24 Q1016;
0136827980999992010011613004-07100-034867FM-15+0066SBJP V0200901N00211006001CN0112651N1+02901+02201999999ADDGA1071+006001999GA2041+021001999MA1101491999999REMMET058METAR SBJP 161300Z 09004KT 9999 BKN020 SCT070 29/22 Q1015;EQDQ01+000042SCOTCV
0120827980999992010011614004-07100-034867FM-15+0066SBJP V0201101N001510060019N0112651N1+03001+02301999999ADDGA1071+006001999GF107991999999999999999999MA1101491999999REMMET051METAR SBJP 161400Z 11003KT 9999 BKN020 30/23 Q1015;
0120827980999992010011615004-07100-034867FM-15+0066SBJP V0201201N002110075019N0112651N1+03101+02301999999ADDGA1071+007501999GF107991999999999999999999MA1101491999999REMMET051METAR SBJP 161500Z 12004KT 9999 BKN025 31/23 Q1015;
0136827980999992010011616004-07100-034867FM-15+0066SBJP V0201401N00311007501CN0112651N1+03001+02201999999ADDGA1071+007501999GA2041+021001999MA1101391999999REMMET058METAR SBJP 161600Z 14006KT 9999 BKN025 SCT070 30/22 Q1014;EQDQ01+000042SCOTCV
0120827980999992010011617004-07100-034867FM-15+0066SBJP V0201301N002610090019N0112651N1+03001+02301999999ADDGA1071+009001999GF107991999999999999999999MA1101291999999REMMET051METAR SBJP 161700Z 13005KT 9999 BKN030 30/23 Q1013;
0120827980999992010011618004-07100-034867FM-15+0066SBJP V0201401N002612200019N0112651N1+03001+02301999999ADDGA1041+009001999GF104991999999999999999999MA1101291999999REMMET051METAR SBJP 161800Z 14005KT 9999 SCT030 30/23 Q1013;
0120827980999992010011619004-07100-034867FM-15+0066SBJP V0201501N001512200019N0112651N1+02901+02301999999ADDGA1041+009001999GF104991999999999999999999MA1101291999999REMMET051METAR SBJP 161900Z 15003KT 9999 SCT030 29/23 Q1013;
0139827980999992010011620004-07100-034867FM-15+0066SBJP V0201601N002612200019N0112651N1+02901+02301999999ADDGA1041+007501999GA2021+009001021MA1101291999999REMMET061METAR SBJP 162000Z 16005KT 9999 SCT025 FEW030TCU 29/23 Q1013;EQDQ01+000022SCOTCV
0120827980999992010011621004-07100-034867FM-15+0066SBJP V0201301N001012200019N0112651N1+02701+02401999999ADDGA1041+006001999GF104991999999999999999999MA1101391999999REMMET051METAR SBJP 162100Z 13002KT 9999 SCT020 27/24 Q1014;
0120827980999992010011622004-07100-034867FM-15+0066SBJP V0209999C000012200019N0112651N1+02701+02401999999ADDGA1041+006001999GF104991999999999999999999MA1101391999999REMMET051METAR SBJP 162200Z 00000KT 9999 SCT020 27/24 Q1014;
0120827980999992010011623004-07100-034867FM-15+0066SBJP V0201501N002112200019N0112651N1+02701+02401999999ADDGA1041+006001999GF104991999999999999999999MA1101491999999REMMET051METAR SBJP 162300Z 15004KT 9999 SCT020 27/24 Q1015;
0120827980999992010011700004-07100-034867FM-15+0066SBJP V0201801N001012200019N0112651N1+02601+02401999999ADDGA1041+006001999GF104991999999999999999999MA1101491999999REMMET051METAR SBJP 170000Z 18002KT 9999 SCT020 26/24 Q1015;
0120827980999992010011701004-07100-034867FM-15+0066SBJP V0209999C000012200019N0112651N1+02601+02401999999ADDGA1041+006001999GF104991999999999999999999MA1101491999999REMMET051METAR SBJP 170100Z 00000KT 9999 SCT020 26/24 Q1015;
0120827980999992010011702004-07100-034867FM-15+0066SBJP V0209999C000012200019N0112651N1+02601+02401999999ADDGA1041+006001999GF104991999999999999999999MA1101491999999REMMET051METAR SBJP 170200Z 00000KT 9999 SCT020 26/24 Q1015;
0120827980999992010011703004-07100-034867FM-15+0066SBJP V0209999C000012200019N0112651N1+02501+02401999999ADDGA1041+006001999GF104991999999999999999999MA1101391999999REMMET051METAR SBJP 170300Z 00000KT 9999 SCT020 25/24 Q1014;
0143827980999992010011704004-07100-034867FM-15+0066SBJP V0209999C000010060019N0112651N1+02501+02401999999ADDGA1021+003001999GA2071+006001999GF107991999999999999999999MA1101291999999REMMET058METAR SBJP 170400Z 00000KT 9999 FEW010 BKN020 25/24 Q1013;
0120827980999992010011705004-07100-034867FM-15+0066SBJP V0209999C000010045019N0112651N1+02501+02401999999ADDGA1071+004501999GF107991999999999999999999MA1101291999999REMMET051METAR SBJP 170500Z 00000KT 9999 BKN015 25/24 Q1013;
0130827980999992010011706004-07100-034867FM-15+0066SBJP V0209999C000010042019N0040001N1+02501+02401999999ADDGA1071+004201999GF107991999999999999999999MA1101291999999MW1611REMMET055METAR SBJP 170600Z 00000KT 4000 -RA BKN014 25/24 Q1013;
0120827980999992010011707004-07100-034867FM-15+0066SBJP V0201601N001512200019N0112651N1+02501+02301999999ADDGA1041+006001999GF104991999999999999999999MA1101191999999REMMET051METAR SBJP 170700Z 16003KT 9999 SCT020 25/23 Q1012;
0130827980999992010011708004-07100-034867FM-15+0066SBJP V0209999C000010045019N0050001N1+02401+02301999999ADDGA1071+004501999GF107991999999999999999999MA1101291999999MW1611REMMET055METAR SBJP 170800Z 00000KT 5000 -RA BKN015 24/23 Q1013;
0153827980999992010011709004-07100-034867FM-15+0066SBJP V0209999C000010030019N0035001N1+02501+02301999999ADDGA1071+003001999GA2071+006001999GF107991999999999999999999MA1101391999999MW1611REMMET062METAR SBJP 170900Z 00000KT 3500 -RA BKN010 BKN020 25/23 Q1014;
0162827980999992010011710004-07100-034867FM-15+0066SBJP V0201901N00211006001CN0112651N1+02501+02301999999ADDGA1041+004201999GA2071+006001999GA3021+007501021MA1101391999999REMMET068METAR SBJP 171000Z 19004KT 9999 SCT014 BKN020 FEW025TCU 25/23 Q1014;EQDQ01+000022SCOTCV
0172827980999992010011711004-07100-034867FM-15+0066SBJP V0201301N00261006001CN0030001N1+02501+02401999999ADDGA1041+004201999GA2071+006001999GA3021+007501021MA1101491999999MW1611REMMET072METAR SBJP 171100Z 13005KT 3000 -RA SCT014 BKN020 FEW025TCU 25/24 Q1015;EQDQ01+000022SCOTCV
0162827980999992010011711404-07100-034867FM-16+0066SBJP V0209999C00001006001CN0112651N1+02601+02401999999ADDGA1041+004501999GA2071+006001999GA3021+007501021MA1101491999999REMMET068SPECI SBJP 171140Z 00000KT 9999 SCT015 BKN020 FEW025TCU 26/24 Q1015;EQDQ01+000022SCOTCV
0162827980999992010011712004-07100-034867FM-15+0066SBJP V0201501N00151006001CN0112651N1+02601+02401999999ADDGA1041+004501999GA2071+006001999GA3021+007501021MA1101491999999REMMET068METAR SBJP 171200Z 15003KT 9999 SCT015 BKN020 FEW025TCU 26/24 Q1015;EQDQ01+000022SCOTCV
0172827980999992010011713004-07100-034867FM-15+0066SBJP V0201501N00261006001CN0030001N1+02701+02401999999ADDGA1041+003001999GA2071+006001999GA3021+007501021MA1101491999999MW1611REMMET072METAR SBJP 171300Z 15005KT 3000 -RA SCT010 BKN020 FEW025TCU 27/24 Q1015;EQDQ01+000022SCOTCV
0153827980999992010011713414-07100-034867FM-16+0066SBJP V0201701N003110024019N0030001N1+02501+02401999999ADDGA1071+002401999GA2081+006001999GF108991999999999999999999MA1101491999999MW1611REMMET062SPECI SBJP 171341Z 17006KT 3000 -RA BKN008 OVC020 25/24 Q1015;
0153827980999992010011714004-07100-034867FM-15+0066SBJP V0201801N002610024019N0030001N1+02501+02301999999ADDGA1071+002401999GA2081+006001999GF108991999999999999999999MA1101491999999MW1611REMMET062METAR SBJP 171400Z 18005KT 3000 -RA BKN008 OVC020 25/23 Q1015;
0179827980999992010011714314-07100-034867FM-16+0066SBJP V0201601N00211002401CN0025001N1+02501+02301999999ADDGA1071+002401999GA2071+006001999GA3021+007501091MA1101491999999MW1801MW2951REMMET073SPECI SBJP 171431Z 16004KT 2500 -TSRA BKN008 BKN020 FEW025CB 25/23 Q1015;EQDQ01+000022SCOTCV
0179827980999992010011715004-07100-034867FM-15+0066SBJP V0201901N00211002401CN0025001N1+02401+02301999999ADDGA1071+002401999GA2071+006001999GA3021+007501091MA1101391999999MW1801MW2951REMMET073METAR SBJP 171500Z 19004KT 2500 -TSRA BKN008 BKN020 FEW025CB 24/23 Q1014;EQDQ01+000022SCOTCV
0179827980999992010011716004-07100-034867FM-15+0066SBJP V0201701N00361002401CN0020001N1+02501+02401999999ADDGA1071+002401999GA2071+006001999GA3021+007501091MA1101391999999MW1801MW2951REMMET073METAR SBJP 171600Z 17007KT 2000 -TSRA BKN008 BKN020 FEW025CB 25/24 Q1014;EQDQ01+000022SCOTCV
0158827980999992010011717004-07100-034867FM-15+0066SBJP V0201701N001510024019N0060001N1+02401+02301999999ADDGA1071+002401999GA2071+006001999GF107991999999999999999999MA1101291999999MW1611REMMET067METAR SBJP 171700Z 17003KT 6000 -RA BKN008 BKN020 24/23 Q1013 RETS;
0153827980999992010011718004-07100-034867FM-15+0066SBJP V0201701N001010018019N0070001N1+02501+02301999999ADDGA1071+001801999GA2071+006001999GF107991999999999999999999MA1101191999999MW1611REMMET062METAR SBJP 171800Z 17002KT 7000 -RA BKN006 BKN020 25/23 Q1012;
0153827980999992010011719004-07100-034867FM-15+0066SBJP V0209999C000010018019N0020001N1+02501+02401999999ADDGA1071+001801999GA2071+006001999GF107991999999999999999999MA1101291999999MW1611REMMET062METAR SBJP 171900Z 00000KT 2000 -RA BKN006 BKN020 25/24 Q1013;
0153827980999992010011720004-07100-034867FM-15+0066SBJP V0209999C000010018019N0020001N1+02401+02301999999ADDGA1071+001801999GA2071+006001999GF107991999999999999999999MA1101291999999MW1611REMMET062METAR SBJP 172000Z 00000KT 2000 -RA BKN006 BKN020 24/23 Q1013;
0153827980999992010011721004-07100-034867FM-15+0066SBJP V0209999C000010018019N0020001N1+02401+02301999999ADDGA1071+001801999GA2071+006001999GF107991999999999999999999MA1101391999999MW1611REMMET062METAR SBJP 172100Z 00000KT 2000 -RA BKN006 BKN020 24/23 Q1014;
0153827980999992010011722004-07100-034867FM-15+0066SBJP V0202001N002110030019N0035001N1+02401+02301999999ADDGA1071+003001999GA2071+006001999GF107991999999999999999999MA1101491999999MW1611REMMET062METAR SBJP 172200Z 20004KT 3500 -RA BKN010 BKN020 24/23 Q1015;
