0168831820999992010010100004-11300-041867FM-12+074799999V0200901N001010075019N0010001N1+02331+02061101111ADDGF108991051051008001021999KA1240M+02711MA1999999092921MD1999999+0011REMSYN088AAXX  01004 83182 32594 80902 10233 20206 39292 40111 8552/ 333 10271 29082 55000 58001;
0143831820999992010010112004-11300-041867FM-12+074799999V0200901N004110450019N0100001N1+02491+01841101171ADDGF108991021021008001041011MA1999999093011MD1999999+0021REMSYN076AAXX  01124 83182 32597 80908 10249 20184 39301 40117 82241 333 2//// 58002;
0137831820999992010010118004-11300-041867FM-12+074799999V0200901N005110450019N0100001N1+02581+01511100781ADDGF108991031021008001041021MA1999999092681MD1999999-0081REMSYN070AAXX  01184 83182 32597 80910 10258 20151 39268 40078 83242 333 59008;
0168831820999992010010200004-11300-041867FM-12+074799999V0203201N001510075019N0100001N1+02201+02061101161ADDGF108991081051008001999999KA1240M+03001MA1999999092981MD1999999+0061REMSYN088AAXX  02004 83182 32597 83203 10220 20206 39298 40116 885// 333 10300 29074 55074 58006;
0143831820999992010010212004-11300-041867FM-12+074799999V0200901N003110075019N0100001N1+02391+01811101231ADDGF108991051021008001041011MA1999999093031MD1999999+0021REMSYN076AAXX  02124 83182 32597 80906 10239 20181 39303 40123 85241 333 2//// 58002;
0137831820999992010010218004-11300-041867FM-12+074799999V0201401N002612200019N0100001N1+03051+01101100841ADDGF102991021021008001001001MA1999999092741MD1999999+0061REMSYN070AAXX  02184 83182 32597 21405 10305 20110 39274 40084 82200 333 58006;
0168831820999992010010300004-11300-041867FM-12+074799999V0200901N004610450019N0010001N1+02431+01801101051ADDGF105991011031008001031001KA1240M+03111MA1999999092901MD1999999-0081REMSYN088AAXX  03004 83182 32594 50909 10243 20180 39290 40105 81330 333 10311 29058 55103 59008;
0143831820999992010010312004-11300-041867FM-12+074799999V0201401N005112200019N0100001N1+02461+01631101301ADDGF102991021021008001001001MA1999999093151MD1999999+0121REMSYN076AAXX  03124 83182 32597 21410 10246 20163 39315 40130 82200 333 2//// 58012;
0137831820999992010010318004-11300-041867FM-12+074799999V0200901N004112200019N0100001N1+03291+00971100941ADDGF102991021021008001001001MA1999999092791MD1999999+0051REMSYN070AAXX  03184 83182 32597 20908 10329 20097 39279 40094 82200 333 58005;
0168831820999992010010400004-11300-041867FM-12+074799999V0201401N004612200019N0010001N1+02401+01771101161ADDGF102991011021008001041001KA1240M+03301MA1999999093021MD1999999+0121REMSYN088AAXX  04004 83182 32594 21409 10240 20177 39302 40116 81240 333 10330 29055 55113 58012;
0143831820999992010010412004-11300-041867FM-12+074799999V0200901N004110075019N0100001N1+02421+01671101211ADDGF107991071021008001001001MA1999999093051MD1999999-0101REMSYN076AAXX  04124 83182 32597 70908 10242 20167 39305 40121 87200 333 2//// 59010;
0172831820999992010010418004-11300-041867FM-12+074799999V0201401N999992200019N0100001N1+03001+01201100981ADDGF102991021021008001001001MA1999999092861MD1999999+0071REMSYN070AAXX  04184 83182 32597 21496 10300 20120 39286 40098 82200 333 58007;EQDQ01+004933WOSPD Q020004933WOSPD 
0178831820999992010010500004-11300-041867FM-12+074799999V0200901N002612200019N0010001N1+02551+01371101001ADDGA1001+999999999GF100991001001999999001001KA1240M+03131MA1999999092881MD1999999-0141REMSYN082AAXX  05004 83182 32994 00905 10255 20137 39288 40100 333 10313 29048 55099 59014;
0143831820999992010010512004-11300-041867FM-12+074799999V0200901N003112200019N0100001N1+02521+01791101121ADDGF101991011011012501001001MA1999999093011MD1999999+0131REMSYN076AAXX  05124 83182 32697 10906 10252 20179 39301 40112 81100 333 2//// 58013;
0137831820999992010010518004-11300-041867FM-12+074799999V0201401N003110450019N0100001N1+03101+01371100801ADDGF108991031031008001041021MA1999999092741MD1999999-0121REMSYN070AAXX  05184 83182 32597 81406 10310 20137 39274 40080 83342 333 59012;
0168831820999992010010600004-11300-041867FM-12+074799999V0200901N004110075019N0010001N1+02671+01661100861ADDGF108991071051008001001011KA1240M+03271MA1999999092791MD1999999-0091REMSYN088AAXX  06004 83182 32594 80908 10267 20166 39279 40086 87501 333 10327 29052 55105 59009;
0143831820999992010010612004-11300-041867FM-12+074799999V0200901N002612200019N0100001N1+02521+01861100941ADDGF102991021021008001041001MA1999999092861MD1999999-0151REMSYN076AAXX  06124 83182 32597 20905 10252 20186 39286 40094 82240 333 2//// 59015;
0137831820999992010010618004-11300-041867FM-12+074799999V0200501N003110450019N0100001N1+03101+01661100701ADDGF108991031031008001041011MA1999999092641MD1999999-0101REMSYN070AAXX  06184 83182 32597 80506 10310 20166 39264 40070 83341 333 59010;
0213831820999992010010700004-11300-041867FM-12+074799999V0202301N002110042019N0010001N1+02171+02021101021ADDAA106005191AY161061AY221061GF108991061071004501021999KA1240M+03191MA1999999092851MD1999999+0031MW1021REMSYN100AAXX  07004 83182 21494 82304 10217 20202 39285 40102 70262 8672/ 333 10319 29073 55083 58003 60051;
0188831820999992010010712004-11300-041867FM-12+074799999V0201801N001010075019N0100001N1+02281+02091101261ADDAA124043991AY161061AY261061GF108991051021008001041999MA1999999093021MD1999999+0161MW1021REMSYN088AAXX  07124 83182 21597 81802 10228 20209 39302 40126 70266 8524/ 333 2//// 58016 60444;
0165831820999992010010718004-11300-041867FM-12+074799999V0203601N003610075019N0100001N1+02891+01861101011ADDAY121061AY221061GF108991061031008001021999MA1999999092721MD1999999+0081MW1951REMSYN076AAXX  07184 83182 31597 83607 10289 20186 39272 40101 79522 8632/ 333 58008;
0213831820999992010010800004-11300-041867FM-12+074799999V0200901N004110042019N0010001N1+02041+01871101281ADDAA106014091AY161061AY261061GF108991051031004501021999KA1240M+03031MA1999999093031MD1999999+0181MW1611REMSYN100AAXX  08004 83182 21494 80908 10204 20187 39303 40128 76166 8532/ 333 10303 29081 55045 58018 60141;
0188831820999992010010812004-11300-041867FM-12+074799999V0200901N003110450019N0100001N1+02301+01851101291ADDAA124015091AY161061AY221061GF108991041051008001041999MA1999999093051MD1999999+0031MW1021REMSYN088AAXX  08124 83182 21597 80906 10230 20185 39305 40129 70262 8454/ 333 2//// 58003 60154;
0137831820999992010010818004-11300-041867FM-12+074799999V0200501N002610450019N0100001N1+02731+01911101061ADDGF108991031031008001041021MA1999999092891MD1999999+0171REMSYN070AAXX  08184 83182 32597 80505 10273 20191 39289 40106 83342 333 58017;
0232831820999992010010900004-11300-041867FM-12+074799999V0201401N001510075019N0010001N1+02171+02001101191ADDAA106000091AY161061AY221061GF108991061031008001021999KA1240M+02771MA1999999092971MD1999999-0061MW1131REMSYN100AAXX  09004 83182 21594 81403 10217 20200 39297 40119 71362 8632/ 333 10277 29079 55036 59006 69911;EQDQ01  00002PRCP06
0188831820999992010010912004-11300-041867FM-12+074799999V0200901N004110075019N0100001N1+02371+02011101221ADDAA124026991AY161061AY221061GF108991081051008001999999MA1999999093021MD1999999-0031MW1021REMSYN088AAXX  09124 83182 21597 80908 10237 20201 39302 40122 70262 885// 333 2//// 59003 60274;
0137831820999992010010918004-11300-041867FM-12+074799999V0200901N002610450019N0100001N1+02891+01711100911ADDGF108991041031008001041011MA1999999092771MD1999999-0121REMSYN070AAXX  09184 83182 32597 80905 10289 20171 39277 40091 84341 333 59012;
0213831820999992010011000004-11300-041867FM-12+074799999V0201801N002110042019N0010001N1+02171+01961101131ADDAA106003091AY161061AY221061GF108991081051004501999999KA1240M+02991MA1999999092931MD1999999-0041MW1021REMSYN100AAXX  10004 83182 21494 81804 10217 20196 39293 40113 70262 885// 333 10299 29076 55093 59004 60031;
0160831820999992010011012004-11300-041867FM-12+074799999V0200901N003110075019N0100001N1+02301+01901101251ADDAA124003091GF108991061021008001041999MA1999999093011MD1999999-0011REMSYN082AAXX  10124 83182 22597 80906 10230 20190 39301 40125 8624/ 333 2//// 59001 60034;
0137831820999992010011018004-11300-041867FM-12+074799999V0200901N001512200019N0100001N1+02851+01611100961ADDGF102991021021008001001001MA1999999092821MD1999999+0051REMSYN070AAXX  10184 83182 32597 20903 10285 20161 39282 40096 82200 333 58005;
0168831820999992010011100004-11300-041867FM-12+074799999V0200901N002612200019N0010001N1+02431+01751101081ADDGF102991011021008001001021KA1240M+03001MA1999999092891MD1999999-0041REMSYN088AAXX  11004 83182 32594 20905 10243 20175 39289 40108 81202 333 10300 29064 55106 59004;
0143831820999992010011112004-11300-041867FM-12+074799999V0200901N003610450019N0100001N1+02471+01821101181ADDGF108991031021008001041011MA1999999093041MD1999999+0031REMSYN076AAXX  11124 83182 32597 80907 10247 20182 39304 40118 83241 333 2//// 58003;
0137831820999992010011118004-11300-041867FM-12+074799999V0200501N002612200019N0100001N1+02981+01681100961ADDGF106991031031008001001041MA1999999092821MD1999999+0001REMSYN070AAXX  11184 83182 32597 60505 10298 20168 39282 40096 83304 333 58000;
0168831820999992010011200004-11300-041867FM-12+074799999V0200901N002112200019N0010001N1+02531+01851100941ADDGF103991011011012501001041KA1240M+03071MA1999999092831MD1999999-0061REMSYN088AAXX  12004 83182 32694 30904 10253 20185 39283 40094 81104 333 10307 29062 55100 59006;
0143831820999992010011212004-11300-041867FM-12+074799999V0200901N001012200019N0100001N1+02551+02051101121ADDGF102991021021008001001001MA1999999093011MD1999999-0031REMSYN076AAXX  12124 83182 32597 20902 10255 20205 39301 40112 82200 333 2//// 59003;
0137831820999992010011218004-11300-041867FM-12+074799999V0201401N002112200019N0100001N1+03211+01761100861ADDGF106991021021008001001041MA1999999092751MD1999999-0071REMSYN070AAXX  12184 83182 32597 61404 10321 20176 39275 40086 82204 333 59007;
0168831820999992010011300004-11300-041867FM-12+074799999V0203601N001010042019N0010001N1+02421+01861101061ADDGF108991051071004501021999KA1240M+03211MA1999999092941MD1999999+0111REMSYN088AAXX  13004 83182 32494 83602 10242 20186 39294 40106 8572/ 333 10321 29064 55091 58011;
0143831820999992010011312004-11300-041867FM-12+074799999V0201401N005112200019N0100001N1+02481+01961101291ADDGF101991011011012501001001MA1999999093231MD1999999+0221REMSYN076AAXX  13124 83182 32697 11410 10248 20196 39323 40129 81100 333 2//// 58022;
0137831820999992010011318004-11300-041867FM-12+074799999V0201401N000512200019N0100001N1+03071+01551100941ADDGF107991031031008001001011MA1999999092841MD1999999+0091REMSYN070AAXX  13184 83182 32597 71401 10307 20155 39284 40094 83301 333 58009;
0196831820999992010011400004-11300-041867FM-12+074799999V0200901N002610075019N0010001N1+02331+02011101201ADDAY121061AY221061GF108991051031008001021999KA1240M+03211MA1999999093041MD1999999+0101MW1131REMSYN094AAXX  14004 83182 31594 80905 10233 20201 39304 40120 71322 8532/ 333 10321 29069 55094 58010;
0188831820999992010011412004-11300-041867FM-12+074799999V0200901N003612200019N0100001N1+02471+02061101301ADDAA124000391AY161061AY211061GF102991021031017501001001MA1999999093131MD1999999-0101MW1031REMSYN088AAXX  14124 83182 21797 20907 10247 20206 39313 40130 70361 82300 333 2//// 59010 69934;
0137831820999992010011418004-11300-041867FM-12+074799999V0200501N002610450019N0100001N1+03021+01441101041ADDGF106991031031008001031001MA1999999092911MD1999999+0071REMSYN070AAXX  14184 83182 32597 60505 10302 20144 39291 40104 83330 333 58007;
0168831820999992010011500004-11300-041867FM-12+074799999V0200901N002110450019N0010001N1+02461+01831101151ADDGF108991041021017501031011KA1240M+03201MA1999999093011MD1999999-0031REMSYN088AAXX  15004 83182 32794 80904 10246 20183 39301 40115 84231 333 10320 29063 55103 59003;
0143831820999992010011512004-11300-041867FM-12+074799999V0200901N002610075019N0100001N1+02431+02121101441ADDGF108991081051008001001001MA1999999093281MD1999999+0151REMSYN076AAXX  15124 83182 32597 80905 10243 20212 39328 40144 88500 333 2//// 58015;
0137831820999992010011518004-11300-041867FM-12+074799999V0201401N003112200019N0100001N1+03131+01721101131ADDGF106991041031008001001011MA1999999093011MD1999999+0101REMSYN070AAXX  15184 83182 32597 61406 10313 20172 39301 40113 84301 333 58010;
0168831820999992010011600004-11300-041867FM-12+074799999V0200901N003619999999N0010001N1+02461+01761101261ADDGF108991001001999999001011KA1240M+03191MA1999999093111MD1999999+0101REMSYN088AAXX  16004 83182 32994 80907 10246 20176 39311 40126 80001 333 10319 29064 55095 58010;
0143831820999992010011612004-11300-041867FM-12+074799999V0201401N005110075019N0100001N1+02291+01761101571ADDGF106991061021008001001001MA1999999093371MD1999999+0091REMSYN076AAXX  16124 83182 32597 61410 10229 20176 39337 40157 86200 333 2//// 58009;
0147831820999992010011618004-11300-041867FM-12+074799999V0201401N004112200019N0100001N1+03091+01281101161ADDGA1001+999999999GF100991001001999999001001MA1999999093031MD1999999+0021REMSYN064AAXX  16184 83182 32997 01408 10309 20128 39303 40116 333 58002;
0178831820999992010011700004-11300-041867FM-12+074799999V0201401N002612200019N0010001N1+02471+01641101311ADDGA1001+999999999GF100991001001999999001001KA1240M+03191MA1999999093141MD1999999+0031REMSYN082AAXX  17004 83182 32994 01405 10247 20164 39314 40131 333 10319 29056 55112 58003;
0188831820999992010011712004-11300-041867FM-12+074799999V0200901N003610075019N0100001N1+02401+02111101601ADDAA124011991AY161061AY221061GF108991061021008001041011MA1999999093421MD1999999+0051MW1021REMSYN088AAXX  17124 83182 21597 80907 10240 20211 39342 40160 70262 86241 333 2//// 58005 60124;
0137831820999992010011718004-11300-041867FM-12+074799999V02099999999992200019N0100001N1+02961+01641101191ADDGF102991021021008001001001MA1999999093071MD1999999+0041REMSYN070AAXX  17184 83182 32597 209// 10296 20164 39307 40119 82200 333 58004;
0168831820999992010011800004-11300-041867FM-12+074799999V02099999999992200019N0010001N1+02231+01731101311ADDGF102991011021008001001011KA1240M+03101MA1999999093121MD1999999-0521REMSYN088AAXX  18004 83182 32594 214// 10223 20173 39312 40131 81201 333 10310 29066 55085 59052;
0143831820999992010011812004-11300-041867FM-12+074799999V02099999999992200019N0100001N1+02271+01781101561ADDGF101991011011008001001001MA1999999093331MD1999999-0091REMSYN076AAXX  18124 83182 32597 109// 10227 20178 39333 40156 81100 333 2//// 59009;
0137831820999992010011818004-11300-041867FM-12+074799999V02099999999992200019N0100001N1+03031+01311101191ADDGF102991011011012501001011MA1999999093031MD1999999-0041REMSYN070AAXX  18184 83182 32697 214// 10303 20131 39303 40119 81101 333 59004;
0168831820999992010011900004-11300-041867FM-12+074799999V02099999999992200019N0010001N1+02401+01441101201ADDGF103991011021008001041011KA1240M+03371MA1999999093021MD1999999-0091REMSYN088AAXX  19004 83182 32594 309// 10240 20144 39302 40120 81241 333 10337 29057 55111 59009;
0143831820999992010011912004-11300-041867FM-12+074799999V02099999999990075019N0100001N1+02311+01991101421ADDGF107991071021008001001001MA1999999093281MD1999999+0201REMSYN076AAXX  19124 83182 32597 709// 10231 20199 39328 40142 87200 333 2//// 58020;
0137831820999992010011918004-11300-041867FM-12+074799999V02099999999992200019N0100001N1+03031+01701101041ADDGF102991011011012501001021MA1999999092901MD1999999-0131REMSYN070AAXX  19184 83182 32697 214// 10303 20170 39290 40104 81102 333 59013;
0178831820999992010012000004-11300-041867FM-12+074799999V02099999999992200019N0010001N1+02511+01781101161ADDGA1001+999999999GF100991001001999999001001KA1240M+03151MA1999999093001MD1999999-0021REMSYN082AAXX  20004 83182 32994 009// 10251 20178 39300 40116 333 10315 29064 55101 59002;
0143831820999992010012012004-11300-041867FM-12+074799999V02099999999992200019N0100001N1+02401+01751101241ADDGF101991011011012501001001MA1999999093091MD1999999+0091REMSYN076AAXX  20124 83182 32697 109// 10240 20175 39309 40124 81100 333 2//// 58009;
0137831820999992010012018004-11300-041867FM-12+074799999V02099999999992200019N0100001N1+03151+01461100921ADDGF102991021021008001001001MA1999999092791MD1999999-0111REMSYN070AAXX  20184 83182 32597 214// 10315 20146 39279 40092 82200 333 59011;
0178831820999992010012100004-11300-041867FM-12+074799999V02099999999992200019N0010001N1+02591+01471100931ADDGA1001+999999999GF100991001001999999001001KA1240M+03291MA1999999092821MD1999999-0181REMSYN082AAXX  21004 83182 32994 014// 10259 20147 39282 40093 333 10329 29051 55108 59018;
0143831820999992010012112004-11300-041867FM-12+074799999V02099999999992200019N0100001N1+02431+01941101311ADDGF102991021021008001001001MA1999999093171MD1999999+0081REMSYN076AAXX  21124 83182 32597 209// 10243 20194 39317 40131 82200 333 2//// 58008;
0137831820999992010012118004-11300-041867FM-12+074799999V02099999999992200019N0100001N1+03111+01851100941ADDGF102991011021008001041001MA1999999092861MD1999999+0071REMSYN070AAXX  21184 83182 32597 209// 10311 20185 39286 40094 81240 333 58007;
0168831820999992010012200004-11300-041867FM-12+074799999V02099999999992200019N0010001N1+02531+01711101111ADDGF108991041031008001001011KA1240M+03211MA1999999092981MD1999999+0161REMSYN088AAXX  22004 83182 32594 814// 10253 20171 39298 40111 84301 333 10321 29062 55107 58016;
0143831820999992010012212004-11300-041867FM-12+074799999V02099999999990450019N0100001N1+02431+01911101251ADDGF108991031021008001011999MA1999999093121MD1999999-0051REMSYN076AAXX  22124 83182 32597 809// 10243 20191 39312 40125 8321/ 333 2//// 59005;
0137831820999992010012218004-11300-041867FM-12+074799999V02099999999990450019N0100001N1+02931+01841101031ADDGF108991021021008001041021MA1999999092891MD1999999+0031REMSYN070AAXX  22184 83182 32597 809// 10293 20184 39289 40103 82242 333 58003;
0168831820999992010012300004-11300-041867FM-12+074799999V02099999999990450019N0010001N1+02531+01801101031ADDGF108991011021008001041011KA1240M+03021MA1999999092911MD1999999-0071REMSYN088AAXX  23004 83182 32594 814// 10253 20180 39291 40103 81241 333 10302 29063 55032 59007;
0143831820999992010012312004-11300-041867FM-12+074799999V02099999999992200019N0100001N1+02521+01961101201ADDGF104991021021008001001011MA1999999093071MD1999999-0051REMSYN076AAXX  23124 83182 32597 405// 10252 20196 39307 40120 82201 333 2//// 59005;
0137831820999992010012318004-11300-041867FM-12+074799999V02099999999992200019N0100001N1+03241+01331100911ADDGF102991021021008001001011MA1999999092801MD1999999-0091REMSYN070AAXX  23184 83182 32597 209// 10324 20133 39280 40091 82201 333 59009;
0168831820999992010012400004-11300-041867FM-12+074799999V02099999999999999999N0010001N1+02581+01521100941ADDGF108991001001999999001011KA1240M+03331MA1999999092851MD1999999-0061REMSYN088AAXX  24004 83182 32994 814// 10258 20152 39285 40094 80001 333 10333 29052 55110 59006;
0143831820999992010012412004-11300-041867FM-12+074799999V02099999999992200019N0100001N1+02601+01921101111ADDGF104991011061012501001011MA1999999093021MD1999999-0051REMSYN076AAXX  24124 83182 32697 409// 10260 20192 39302 40111 81601 333 2//// 59005;
0137831820999992010012418004-11300-041867FM-12+074799999V02099999999992200019N0100001N1+03211+01331100751ADDGF107991041031008001001011MA1999999092691MD1999999-0111REMSYN070AAXX  24184 83182 32597 714// 10321 20133 39269 40075 84301 333 59011;
0168831820999992010012500004-11300-041867FM-12+074799999V02099999999990450019N0010001N1+02561+01501100931ADDGF108991021021008001051011KA1240M+03291MA1999999092851MD1999999+0001REMSYN088AAXX  25004 83182 32594 836// 10256 20150 39285 40093 82251 333 10329 29050 55104 58000;
0143831820999992010012512004-11300-041867FM-12+074799999V02099999999992200019N0100001N1+02521+01731101151ADDGF104991031021008001001011MA1999999093041MD1999999-0021REMSYN076AAXX  25124 83182 32597 409// 10252 20173 39304 40115 83201 333 2//// 59002;
0156831820999992010012518004-11300-041867FM-12+074799999V02099999999999999999N0100001N1+03131+01261101251ADDGF105991999031008001001001MA1999999092781MD1999999+0091REMSYN070AAXX  25184 83182 32597 514// 10313 20126 39278 40125 84300 333 58009;EQDQ01+000042SCOTLC
0168831820999992010012600004-11300-041867FM-12+074799999V02099999999999999999N0010001N1+02511+01431100851ADDGF108991001001999999001011KA1240M+03271MA1999999092761MD1999999-0091REMSYN088AAXX  26004 83182 32994 809// 10251 20143 39276 40085 80001 333 10327 29049 55110 59009;
0143831820999992010012612004-11300-041867FM-12+074799999V02099999999990450019N0100001N1+02331+01771101111ADDGF108991011011012501041091MA1999999092951MD1999999-0091REMSYN076AAXX  26124 83182 32697 805// 10233 20177 39295 40111 81149 333 2//// 59009;
0137831820999992010012618004-11300-041867FM-12+074799999V02099999999992200019N0100001N1+03141+01361100681ADDGF103991031031008001001001MA1999999092631MD1999999-0151REMSYN070AAXX  26184 83182 32597 314// 10314 20136 39263 40068 83300 333 59015;
0168831820999992010012700004-11300-041867FM-12+074799999V02099999999999999999N0010001N1+02561+01211100781ADDGF108991001001999999001011KA1240M+03291MA1999999092661MD1999999-0101REMSYN088AAXX  27004 83182 32994 809// 10256 20121 39266 40078 80001 333 10329 29048 55105 59010;
0143831820999992010012712004-11300-041867FM-12+074799999V02099999999990450019N0100001N1+02551+01791101121ADDGF108991021021008001041011MA1999999093011MD1999999+0031REMSYN076AAXX  27124 83182 32597 818// 10255 20179 39301 40112 82241 333 2//// 58003;
0137831820999992010012718004-11300-041867FM-12+074799999V02099999999992200019N0100001N1+03251+01371100701ADDGF107991041031008001001011MA1999999092661MD1999999-0021REMSYN070AAXX  27184 83182 32597 709// 10325 20137 39266 40070 84301 333 59002;
0168831820999992010012800004-11300-041867FM-12+074799999V02099999999990450019N0010001N1+02681+01321100721ADDGF108991011021008001051011KA1240M+03301MA1999999092661MD1999999+0001REMSYN088AAXX  28004 83182 32594 809// 10268 20132 39266 40072 81251 333 10330 29045 55102 58000;
0143831820999992010012812004-11300-041867FM-12+074799999V02099999999992200019N0100001N1+02551+01771101131ADDGF104991031021008001001011MA1999999093041MD1999999+0031REMSYN076AAXX  28124 83182 32597 414// 10255 20177 39304 40113 83201 333 2//// 58003;
0137831820999992010012818004-11300-041867FM-12+074799999V02099999999992200019N0100001N1+03221+01481100711ADDGF103991031031008001001001MA1999999092651MD1999999+0041REMSYN070AAXX  28184 83182 32597 305// 10322 20148 39265 40071 83300 333 58004;
0168831820999992010012900004-11300-041867FM-12+074799999V02099999999992200019N0010001N1+02631+01571100771ADDGF108991021001017501041011KA1240M+03331MA1999999092711MD1999999+0061REMSYN088AAXX  29004 83182 32794 809// 10263 20157 39271 40077 82041 333 10333 29050 55108 58006;
0143831820999992010012912004-11300-041867FM-12+074799999V02099999999992200019N0100001N1+02341+01641101161ADDGF108991021021008001001011MA1999999093031MD1999999-0011REMSYN076AAXX  29124 83182 32597 814// 10234 20164 39303 40116 82201 333 2//// 59001;
0137831820999992010012918004-11300-041867FM-12+074799999V02099999999990075019N0100001N1+03201+01511100801ADDGF108991061031008001001011MA1999999092741MD1999999+0091REMSYN070AAXX  29184 83182 32597 809// 10320 20151 39274 40080 86301 333 58009;
0168831820999992010013000004-11300-041867FM-12+074799999V02099999999999999999N0010001N1+02561+01351100851ADDGF108991001001999999001011KA1240M+03271MA1999999092731MD1999999+0021REMSYN088AAXX  30004 83182 32994 809// 10256 20135 39273 40085 80001 333 10327 29049 55098 58002;
0143831820999992010013012004-11300-041867FM-12+074799999V02099999999992200019N0100001N1+02421+01621101181ADDGF108991011021008001001011MA1999999093051MD1999999+0021REMSYN076AAXX  30124 83182 32597 818// 10242 20162 39305 40118 81201 333 2//// 58002;
0137831820999992010013018004-11300-041867FM-12+074799999V02099999999992200019N0100001N1+03281+01241100921ADDGF102991011011012501001011MA1999999092821MD1999999+0081REMSYN070AAXX  30184 83182 32697 209// 10328 20124 39282 40092 81101 333 58008;
0178831820999992010013100004-11300-041867FM-12+074799999V02099999999992200019N0010001N1+02591+01591101081ADDGA1001+999999999GF100991001001999999001001KA1240M+03391MA1999999092951MD1999999+0221REMSYN082AAXX  31004 83182 32994 014// 10259 20159 39295 40108 333 10339 29050 55111 58022;
0143831820999992010013112004-11300-041867FM-12+074799999V02099999999992200019N0100001N1+02501+01641101311ADDGF108991021021008001001011MA1999999093191MD1999999+0141REMSYN076AAXX  31124 83182 32597 809// 10250 20164 39319 40131 82201 333 2//// 58014;
0137831820999992010013118004-11300-041867FM-12+074799999V02099999999999999999N0100001N1+03301+01361100941ADDGF108991001001999999001011MA1999999092881MD1999999+0061REMSYN070AAXX  31184 83182 32997 809// 10330 20136 39288 40094 80001 333 58006;
0168831820999992010020100004-11300-041867FM-12+074799999V02099999999999999999N0010001N1+02641+01481100991ADDGF108991001001999999001011KA1240M+03351MA1999999092911MD1999999-0041REMSYN088AAXX  01004 83182 32994 809// 10264 20148 39291 40099 80001 333 10335 29047 55104 59004;
0143831820999992010020112004-11300-041867FM-12+074799999V02099999999990450019N0100001N1+02471+02001101371ADDGF108991041051008001041011MA1999999093251MD1999999+0061REMSYN076AAXX  01124 83182 32597 814// 10247 20200 39325 40137 84541 333 2//// 58006;
0137831820999992010020118004-11300-041867FM-12+074799999V02099999999990075019N0100001N1+02961+01781101181ADDGF108991051031008001041001MA1999999093021MD1999999-0171REMSYN070AAXX  01184 83182 32597 809// 10296 20178 39302 40118 85340 333 59017;
0168831820999992010020200004-11300-041867FM-12+074799999V02099999999999999999N0010001N1+02601+01761101191ADDGF108991001001999999001011KA1240M+03031MA1999999093071MD1999999+0161REMSYN088AAXX  02004 83182 32994 814// 10260 20176 39307 40119 80001 333 10303 29061 55036 58016;
0143831820999992010020212004-11300-041867FM-12+074799999V02099999999990450019N0100001N1+02421+01881101371ADDGF108991031041008001041021MA1999999093231MD1999999-0021REMSYN076AAXX  02124 83182 32597 809// 10242 20188 39323 40137 83442 333 2//// 59002;
0137831820999992010020218004-11300-041867FM-12+074799999V02099999999990450019N0100001N1+03101+01501101001ADDGF108991021021008001041031MA1999999092921MD1999999-0101REMSYN070AAXX  02184 83182 32597 814// 10310 20150 39292 40100 82243 333 59010;
0168831820999992010020300004-11300-041867FM-12+074799999V02099999999990450019N0010001N1+02631+01651101211ADDGF108991031051008001031011KA1240M+03231MA1999999093081MD1999999+0011REMSYN088AAXX  03004 83182 32594 809// 10263 20165 39308 40121 83531 333 10323 29054 55064 58001;
0143831820999992010020312004-11300-041867FM-12+074799999V02099999999992200019N0100001N1+02421+01701101301ADDGF107991031001017501041011MA1999999093161MD1999999-0071REMSYN076AAXX  03124 83182 32797 718// 10242 20170 39316 40130 83041 333 2//// 59007;
0137831820999992010020318004-11300-041867FM-12+074799999V02099999999992200019N0100001N1+03351+01021100861ADDGF102991011011012501041001MA1999999092761MD1999999-0161REMSYN070AAXX  03184 83182 32697 214// 10335 20102 39276 40086 81140 333 59016;
0178831820999992010020400004-11300-041867FM-12+074799999V02099999999992200019N0010001N1+02661+01151101071ADDGA1001+999999999GF100991001001999999001001KA1240M+03431MA1999999092961MD1999999-0121REMSYN082AAXX  04004 83182 32994 009// 10266 20115 39296 40107 333 10343 29042 55111 59012;
0143831820999992010020412004-11300-041867FM-12+074799999V02099999999992200019N0100001N1+02441+01861101251ADDGF102991021011012501001001MA1999999093131MD1999999-0031REMSYN076AAXX  04124 83182 32697 209// 10244 20186 39313 40125 82100 333 2//// 59003;
0137831820999992010020418004-11300-041867FM-12+074799999V02099999999990075019N0100001N1+03311+01321100881ADDGF105991051031008001001001MA1999999092811MD1999999+0051REMSYN070AAXX  04184 83182 32597 514// 10331 20132 39281 40088 85300 333 58005;
0196831820999992010020500004-11300-041867FM-12+074799999V02099999999992200019N0010001N1+02741+01511100961ADDAY121061AY221061GF108991011031008001001011KA1240M+03391MA1999999092881MD1999999-0081MW1131REMSYN094AAXX  05004 83182 31594 809// 10274 20151 39288 40096 71322 81301 333 10339 29049 55105 59008;
0143831820999992010020512004-11300-041867FM-12+074799999V02099999999990450019N0100001N1+02551+01891101101ADDGF106991041021008001041001MA1999999093031MD1999999-0101REMSYN076AAXX  05124 83182 32597 614// 10255 20189 39303 40110 84240 333 2//// 59010;
0137831820999992010020518004-11300-041867FM-12+074799999V02099999999992200019N0100001N1+03281+01441100841ADDGF103991021031008001001011MA1999999092761MD1999999+0001REMSYN070AAXX  05184 83182 32597 309// 10328 20144 39276 40084 82301 333 58000;
0168831820999992010020600004-11300-041867FM-12+074799999V02099999999992200019N0010001N1+02771+01571100921ADDGF108991031001017501031011KA1240M+03391MA1999999092861MD1999999-0021REMSYN088AAXX  06004 83182 32794 809// 10277 20157 39286 40092 83031 333 10339 29049 55103 59002;
0143831820999992010020612004-11300-041867FM-12+074799999V02099999999990075019N0100001N1+02421+01951101121ADDGF108991051051008001021999MA1999999093031MD1999999+0171REMSYN076AAXX  06124 83182 32597 814// 10242 20195 39303 40112 8552/ 333 2//// 58017;
0137831820999992010020618004-11300-041867FM-12+074799999V02099999999990450019N0100001N1+03041+01601101081ADDGF108991021011012501031011MA1999999092821MD1999999+0061REMSYN070AAXX  06184 83182 32697 809// 10304 20160 39282 40108 82131 333 58006;
0178831820999992010020700004-11300-041867FM-12+074799999V02099999999992200019N0010001N1+02531+01441100931ADDGA1001+999999999GF100991001001999999001001KA1240M+03171MA1999999092821MD1999999-0041REMSYN082AAXX  07004 83182 32994 009// 10253 20144 39282 40093 333 10317 29054 55025 59004;
0143831820999992010020712004-11300-041867FM-12+074799999V02099999999992200019N0100001N1+02381+01631101221ADDGF108991041001017501041011MA1999999093071MD1999999+0041REMSYN076AAXX  07124 83182 32797 814// 10238 20163 39307 40122 84041 333 2//// 58004;
0137831820999992010020718004-11300-041867FM-12+074799999V02099999999990450019N0100001N1+03001+01751100881ADDGF108991031021008001031011MA1999999092811MD1999999-0011REMSYN070AAXX  07184 83182 32597 809// 10300 20175 39281 40088 83231 333 59001;
0168831820999992010020800004-11300-041867FM-12+074799999V02099999999990075019N0010001N1+02541+01681100961ADDGF108991081051008001999999KA1240M+03191MA1999999092831MD1999999+0011REMSYN088AAXX  08004 83182 32594 809// 10254 20168 39283 40096 885// 333 10319 29057 55005 58001;
0188831820999992010020812004-11300-041867FM-12+074799999V02099999999990450019N0100001N1+02341+01761101161ADDAA124000591AY151061AY221061GF108991021021008001041031MA1999999093021MD1999999-0051MW1021REMSYN088AAXX  08124 83182 21597 814// 10234 20176 39302 40116 70252 82243 333 2//// 59005 69954;
0137831820999992010020818004-11300-041867FM-12+074799999V02099999999990450019N0100001N1+02941+01661100891ADDGF108991021021008001021999MA1999999092801MD1999999-0011REMSYN070AAXX  08184 83182 32597 809// 10294 20166 39280 40089 8222/ 333 59001;
0168831820999992010020900004-11300-041867FM-12+074799999V02099999999990075019N0010001N1+02641+01581100981ADDGF108991061051008001021999KA1240M+03021MA1999999092861MD1999999+0031REMSYN088AAXX  09004 83182 32594 814// 10264 20158 39286 40098 8652/ 333 10302 29055 55003 58003;
0188831820999992010020912004-11300-041867FM-12+074799999V02099999999990450019N0100001N1+02341+01111101101ADDAA124001091AY151061AY221061GF108991041071004501021999MA1999999092971MD1999999+0111MW1021REMSYN088AAXX  09124 83182 21497 814// 10234 20111 39297 40110 70252 8472/ 333 2//// 58011 69994;
0137831820999992010020918004-11300-041867FM-12+074799999V02099999999990075019N0100001N1+03021+01691100701ADDGF108991051021008001011999MA1999999092631MD1999999-0171REMSYN070AAXX  09184 83182 32597 809// 10302 20169 39263 40070 8521/ 333 59017;
0213831820999992010021000004-11300-041867FM-12+074799999V02099999999990450019N0010001N1+02111+02031101191ADDAA106024991AY161061AY261061GF108991041071004501021999KA1240M+03131MA1999999092951MD1999999+0091MW1601REMSYN100AAXX  10004 83182 21494 809// 10211 20203 39295 40119 76066 8472/ 333 10313 29080 55012 58009 60251;
0188831820999992010021012004-11300-041867FM-12+074799999V02099999999990450019N0100001N1+02341+02011101211ADDAA124026991AY161061AY261061GF108991041051008001021999MA1999999092971MD1999999+0001MW1021REMSYN088AAXX  10124 83182 21597 809// 10234 20201 39297 40121 70266 8452/ 333 2//// 58000 60274;
0137831820999992010021018004-11300-041867FM-12+074799999V02099999999990075019N0100001N1+02891+01681100801ADDGF108991061021008001041999MA1999999092681MD1999999+0051REMSYN070AAXX  10184 83182 32597 814// 10289 20168 39268 40080 8624/ 333 58005;
0168831820999992010021100004-11300-041867FM-12+074799999V02099999999990450019N0010001N1+02361+01911100871ADDGF108991011021008001031011KA1240M+02971MA1999999092701MD1999999-0251REMSYN088AAXX  11004 83182 32594 809// 10236 20191 39270 40087 81231 333 10297 29072 55054 59025;
0143831820999992010021112004-11300-041867FM-12+074799999V02099999999992200019N0100001N1+02251+01631101161ADDGF102991021021008001001001MA1999999092981MD1999999+0011REMSYN076AAXX  11124 83182 32597 214// 10225 20163 39298 40116 82200 333 2//// 58001;
0137831820999992010021118004-11300-041867FM-12+074799999V02099999999992200019N0100001N1+03121+01561100731ADDGF102991021011012501001001MA1999999092621MD1999999-0061REMSYN070AAXX  11184 83182 32697 209// 10312 20156 39262 40073 82100 333 59006;
0143831820999992010021212004-11300-041867FM-12+074799999V02099999999992200019N0100001N1+02421+02111101111ADDGF107991041021008001001011MA1999999092981MD1999999+0001REMSYN076AAXX  12124 83182 32597 714// 10242 20211 39298 40111 84201 333 2//// 58000;
0137831820999992010021218004-11300-041867FM-12+074799999V02099999999990450019N0100001N1+03021+01761100991ADDGF108991041021008001031011MA1999999092861MD1999999+0241REMSYN070AAXX  12184 83182 32597 809// 10302 20176 39286 40099 84231 333 58024;
0143831820999992010021312004-11300-041867FM-12+074799999V02099999999990450019N0100001N1+02321+02051101301ADDGF108991041021008001021011MA1999999093161MD1999999+0181REMSYN076AAXX  13124 83182 32597 818// 10232 20205 39316 40130 84221 333 2//// 58018;
0137831820999992010021318004-11300-041867FM-12+074799999V02099999999990075019N0100001N1+03171+01801100931ADDGF105991051021008001001001MA1999999092871MD1999999+0011REMSYN070AAXX  13184 83182 32597 509// 10317 20180 39287 40093 85200 333 58001;
0143831820999992010021412004-11300-041867FM-12+074799999V02099999999990075019N0010001N1+02441+01691101281ADDGF108991061021008001001011MA1999999093161MD1999999+0001REMSYN076AAXX  14124 83182 32594 814// 10244 20169 39316 40128 86201 333 2//// 58000;
0137831820999992010021418004-11300-041867FM-12+074799999V02099999999992200019N0100001N1+03321+01221100901ADDGF105991031021008001001011MA1999999092861MD1999999-0011REMSYN070AAXX  14184 83182 32597 505// 10332 20122 39286 40090 83201 333 59001;
0143831820999992010021512004-11300-041867FM-12+074799999V02099999999992200019N0100001N1+02521+01061101201ADDGF102991011011012501001011MA1999999093081MD1999999-0081REMSYN076AAXX  15124 83182 32697 214// 10252 20106 39308 40120 81101 333 2//// 59008;
0137831820999992010021518004-11300-041867FM-12+074799999V02099999999992200019N0100001N1+03261+01331100961ADDGF102991011021008001001011MA1999999092921MD1999999+0061REMSYN070AAXX  15184 83182 32597 209// 10326 20133 39292 40096 81201 333 58006;
0143831820999992010021612004-11300-041867FM-12+074799999V02099999999992200019N0100001N1+02541+02061101181ADDGF104991021021008001001011MA1999999093081MD1999999+0001REMSYN076AAXX  16124 83182 32597 414// 10254 20206 39308 40118 82201 333 2//// 58000;
0137831820999992010021618004-11300-041867FM-12+074799999V02099999999992200019N0100001N1+03001+01491101011ADDGF104991041031008001001001MA1999999092931MD1999999+0011REMSYN070AAXX  16184 83182 32597 409// 10300 20149 39293 40101 84300 333 58001;
0143831820999992010021712004-11300-041867FM-12+074799999V02099999999992200019N0100001N1+02561+02081101311ADDGF103991011011012501041011MA1999999093321MD1999999+0141REMSYN076AAXX  17124 83182 32697 318// 10256 20208 39332 40131 81141 333 2//// 58014;
0137831820999992010021718004-11300-041867FM-12+074799999V02099999999992200019N0100001N1+03381+01571100911ADDGF102991021021008001001001MA1999999092861MD1999999-0071REMSYN070AAXX  17184 83182 32597 209// 10338 20157 39286 40091 82200 333 59007;
0143831820999992010021812004-11300-041867FM-12+074799999V02099999999992200019N0100001N1+02621+02051101181ADDGF103991031021008001001001MA1999999093121MD1999999-0101REMSYN076AAXX  18124 83182 32597 314// 10262 20205 39312 40118 83200 333 2//// 59010;
0137831820999992010021818004-11300-041867FM-12+074799999V02099999999992200019N0100001N1+03371+01471100841ADDGF108991021021008001001011MA1999999092841MD1999999-0021REMSYN070AAXX  18184 83182 32597 809// 10337 20147 39284 40084 82201 333 59002;
0168831820999992010021900004-11300-041867FM-12+074799999V02099999999999999999N0010001N1+02831+01691101121ADDGF108991001001999999001011KA1240M+03491MA1999999093061MD1999999+0191REMSYN088AAXX  19004 83182 32994 809// 10283 20169 39306 40112 80001 333 10349 29051 55103 58019;
0143831820999992010021912004-11300-041867FM-12+074799999V02099999999999999999N0100001N1+02631+02081101101ADDGF108991001001999999001021MA1999999093071MD1999999+0011REMSYN076AAXX  19124 83182 32997 805// 10263 20208 39307 40110 80002 333 2//// 58001;
0137831820999992010021918004-11300-041867FM-12+074799999V02099999999991050019N0100001N1+03511+01591100931ADDGF108991031021008001001031MA1999999092921MD1999999+0081REMSYN070AAXX  19184 83182 32597 809// 10351 20159 39292 40093 83203 333 58008;
0168831820999992010022000004-11300-041867FM-12+074799999V02099999999999999999N0010001N1+02721+01681101131ADDGF108991001001999999001011KA1240M+03551MA1999999093051MD1999999-0011REMSYN088AAXX  20004 83182 32994 814// 10272 20168 39305 40113 80001 333 10355 29052 55104 59001;
0143831820999992010022012004-11300-041867FM-12+074799999V02099999999990450019N0100001N1+02441+02171101341ADDGF108991021021008001041031MA1999999093231MD1999999+0161REMSYN076AAXX  20124 83182 32597 809// 10244 20217 39323 40134 82243 333 2//// 58016;
0137831820999992010022018004-11300-041867FM-12+074799999V02099999999991050019N0100001N1+03191+01921100921ADDGF108991031021008001001031MA1999999092901MD1999999-0021REMSYN070AAXX  20184 83182 32597 814// 10319 20192 39290 40092 83203 333 59002;
0168831820999992010022100004-11300-041867FM-12+074799999V02099999999990150019N0010001N1+02681+02041101041ADDGF108991081001017501011999KA1240M+03271MA1999999092941MD1999999-0111REMSYN088AAXX  21004 83182 32794 809// 10268 20204 39294 40104 8801/ 333 10327 29067 55042 59011;
0143831820999992010022112004-11300-041867FM-12+074799999V02099999999990450019N0100001N1+02681+02091101161ADDGF108991021021008001031011MA1999999093101MD1999999-0131REMSYN076AAXX  21124 83182 32597 809// 10268 20209 39310 40116 82231 333 2//// 59013;
0137831820999992010022118004-11300-041867FM-12+074799999V02099999999990450019N0100001N1+03281+01701100851ADDGF108991041021008001041011MA1999999092821MD1999999-0091REMSYN070AAXX  21184 83182 32597 814// 10328 20170 39282 40085 84241 333 59009;
0168831820999992010022200004-11300-041867FM-12+074799999V02099999999992200019N0010001N1+02641+01541100911ADDGF108991031001017501041011KA1240M+03411MA1999999092821MD1999999-0121REMSYN088AAXX  22004 83182 32794 809// 10264 20154 39282 40091 83041 333 10341 29053 55094 59012;
0143831820999992010022212004-11300-041867FM-12+074799999V02099999999991050019N0100001N1+02541+01651101231ADDGF108991041001017501031031MA1999999093131MD1999999+0001REMSYN076AAXX  22124 83182 32797 814// 10254 20165 39313 40123 84033 333 2//// 58000;
0137831820999992010022218004-11300-041867FM-12+074799999V02099999999990450019N0100001N1+03301+01091100691ADDGF108991031021008001031999MA1999999092701MD1999999-0121REMSYN070AAXX  22184 83182 32597 805// 10330 20109 39270 40069 8323/ 333 59012;
0168831820999992010022300004-11300-041867FM-12+074799999V02099999999990450019N0010001N1+02801+01461100911ADDGF108991041071004501021999KA1240M+03431MA1999999092851MD1999999+0031REMSYN088AAXX  23004 83182 32494 809// 10280 20146 39285 40091 8472/ 333 10343 29043 55055 58003;
0143831820999992010022312004-11300-041867FM-12+074799999V02099999999990450019N0100001N1+02441+01831101221ADDGF108991031051008001021999MA1999999093121MD1999999-0011REMSYN076AAXX  23124 83182 32597 809// 10244 20183 39312 40122 8352/ 333 2//// 59001;
0182831820999992010022318004-11300-041867FM-12+074799999V02099999999990042019N0100001N1+02141+02001100981ADDAA106011991AY121061AY221061GF108991051071004501021999MA1999999092801MD1999999-0051MW1621REMSYN082AAXX  23184 83182 21497 814// 10214 20200 39280 40098 76222 8572/ 333 59005 60121;
0213831820999992010022400004-11300-041867FM-12+074799999V02099999999990450019N0010001N1+02201+02011101131ADDAA106011991AY161061AY221061GF108991021071004501021999KA1240M+03161MA1999999092941MD1999999+0091MW1021REMSYN100AAXX  24004 83182 21494 814// 10220 20201 39294 40113 70262 8272/ 333 10316 29085 55014 58009 60121;
0160831820999992010022412004-11300-041867FM-12+074799999V02099999999990450019N0010001N1+02541+01981101351ADDAA124023991GF108991011021008001051011MA1999999093151MD1999999+0031REMSYN082AAXX  24124 83182 22594 814// 10254 20198 39315 40135 81251 333 2//// 58003 60244;
0137831820999992010022418004-11300-041867FM-12+074799999V02099999999991050019N0100001N1+02811+01611100841ADDGF108991041031008001001021MA1999999092741MD1999999-0061REMSYN070AAXX  24184 83182 32597 809// 10281 20161 39274 40084 84302 333 59006;
0213831820999992010022500004-11300-041867FM-12+074799999V02099999999990450019N0010001N1+02021+01761101111ADDAA106002091AY161061AY221061GF108991041071004501021999KA1240M+03051MA1999999092921MD1999999-0021MW1021REMSYN100AAXX  25004 83182 21494 809// 10202 20176 39292 40111 70262 8472/ 333 10305 29072 55059 59002 60021;
0188831820999992010022512004-11300-041867FM-12+074799999V02099999999990150019N0100001N1+02421+01721101291ADDAA124002091AY161061AY221061GF108991081001017501031011MA1999999093051MD1999999+0131MW1031REMSYN088AAXX  25124 83182 21797 814// 10242 20172 39305 40129 70362 88031 333 2//// 58013 60024;
0137831820999992010022518004-11300-041867FM-12+074799999V02099999999991050019N0100001N1+03231+01481100741ADDGF105991021021008001041021MA1999999092631MD1999999-0111REMSYN070AAXX  25184 83182 32597 527// 10323 20148 39263 40074 82242 333 59011;
0168831820999992010022600004-11300-041867FM-12+074799999V02099999999990450019N0010001N1+02481+01751101041ADDGF108991031051008001051011KA1240M+03301MA1999999092901MD1999999-0021REMSYN088AAXX  26004 83182 32594 836// 10248 20175 39290 40104 83551 333 10330 29057 55099 59002;
0143831820999992010022612004-11300-041867FM-12+074799999V02099999999992200019N0100001N1+02621+01551101061ADDGF102991021001017501041011MA1999999092951MD1999999-0101REMSYN076AAXX  26124 83182 32797 218// 10262 20155 39295 40106 82041 333 2//// 59010;
0165831820999992010022618004-11300-041867FM-12+074799999V02099999999990075019N0100001N1+03411+01071100641ADDAY111061AY221061GF108991051031008001041011MA1999999092641MD1999999+0011MW1151REMSYN076AAXX  26184 83182 31597 809// 10341 20107 39264 40064 71512 85341 333 58001;
0213831820999992010022700004-11300-041867FM-12+074799999V02099999999990450019N0200001N1+02641+01801100861ADDAA106003091AY161061AY221061GF108991011021008001051011KA1240M+03431MA1999999092811MD1999999-0091MW1021REMSYN100AAXX  27004 83182 21598 809// 10264 20180 39281 40086 70262 81251 333 10343 29050 55100 59009 60031;
0188831820999992010022712004-11300-041867FM-12+074799999V02099999999990075019N0100001N1+02641+01901101141ADDAA124003091AY161061AY221061GF108991061021008001041999MA1999999093061MD1999999+0111MW1031REMSYN088AAXX  27124 83182 21597 809// 10264 20190 39306 40114 70362 8624/ 333 2//// 58011 60034;
0182831820999992010022718004-11300-041867FM-12+074799999V02099999999990075019N0100001N1+03141+01451100681ADDAA106003091AY161061AY221061GF108991051031008001001021MA1999999092641MD1999999+0001MW1021REMSYN082AAXX  27184 83182 21597 814// 10314 20145 39264 40068 70262 85302 333 58000 60031;
0213831820999992010022800004-11300-041867FM-12+074799999V02099999999990042019N0010001N1+02411+02081101081ADDAA106000021AY121061AY221061GF108991061031004501021999KA1240M+03251MA1999999092971MD1999999+0161MW1601REMSYN100AAXX  28004 83182 21494 805// 10241 20208 39297 40108 76022 8632/ 333 10325 29066 55068 58016 69911;
0160831820999992010022812004-11300-041867FM-12+074799999V02099999999990450019N0100001N1+02701+01911101241ADDAA124003091GF108991011021008001051011MA1999999093121MD1999999+0061REMSYN082AAXX  28124 83182 22597 809// 10270 20191 39312 40124 81251 333 2//// 58006 60034;
0137831820999992010022818004-11300-041867FM-12+074799999V02099999999990075019N0100001N1+03321+01221100711ADDGF107991061031008001001011MA1999999092721MD1999999+0081REMSYN070AAXX  28184 83182 32597 714// 10332 20122 39272 40071 86301 333 58008;
0213831820999992010030100004-11300-041867FM-12+074799999V02099999999990075019N0010001N1+02441+02111101111ADDAA106003091AY161061AY221061GF108991081051008001999999KA1240M+03371MA1999999093001MD1999999+0031MW1021REMSYN100AAXX  01004 83182 21594 823// 10244 20211 39300 40111 70262 885// 333 10337 29064 55099 58003 60031;
0188831820999992010030112004-11300-041867FM-12+074799999V02099999999990042019N0100001N1+02201+02031101431ADDAA124039191AY161061AY261061GF108991051071004501021999MA1999999093211MD1999999-0211MW1621REMSYN088AAXX  01124 83182 21497 809// 10220 20203 39321 40143 76266 8572/ 333 2//// 59021 60394;
0182831820999992010030118004-11300-041867FM-12+074799999V02099999999990450019N0100001N1+02721+01851101031ADDAA106003091AY161061AY221061GF108991041021008001031011MA1999999092911MD1999999+0191MW1021REMSYN082AAXX  01184 83182 21597 809// 10272 20185 39291 40103 70262 84231 333 58019 60031;
0168831820999992010030200004-11300-041867FM-12+074799999V02099999999990450019N0010001N1+02271+02001101151ADDGF108991041051008001031011KA1240M+02841MA1999999092971MD1999999-0031REMSYN088AAXX  02004 83182 32594 814// 10227 20200 39297 40115 84531 333 10284 29080 55022 59003;
0143831820999992010030212004-11300-041867FM-12+074799999V02099999999992200019N0100001N1+02641+01581101201ADDGF108991021021008001001011MA1999999093051MD1999999-0161REMSYN076AAXX  02124 83182 32597 809// 10264 20158 39305 40120 82201 333 2//// 59016;
0137831820999992010030218004-11300-041867FM-12+074799999V02099999999990450019N0100001N1+02341+01781101111ADDGF108991041031008001021011MA1999999092881MD1999999-0031REMSYN070AAXX  02184 83182 32597 805// 10234 20178 39288 40111 84321 333 59003;
0168831820999992010030300004-11300-041867FM-12+074799999V02099999999990450019N0010001N1+02621+02161100991ADDGF108991011031008001041021KA1240M+03021MA1999999092911MD1999999-0061REMSYN088AAXX  03004 83182 32594 814// 10262 20216 39291 40099 81342 333 10302 29069 55068 59006;
0143831820999992010030312004-11300-041867FM-12+074799999V02099999999990075019N0100001N1+02541+01661101271ADDGF108991051031008001021999MA1999999093161MD1999999+0111REMSYN076AAXX  03124 83182 32597 809// 10254 20166 39316 40127 8532/ 333 2//// 58011;
0182831820999992010030318004-11300-041867FM-12+074799999V02099999999990075019N0100001N1+02661+02141100941ADDAA106000591AY121061AY221061GF108991061031008001021011MA1999999092801MD1999999-0081MW1601REMSYN082AAXX  03184 83182 21597 809// 10266 20214 39280 40094 76022 86321 333 59008 69951;
0213831820999992010030400004-11300-041867FM-12+074799999V02099999999990450019N0010001N1+02141+01901101141ADDAA106006191AY161061AY261061GF108991041071004501021999KA1240M+03161MA1999999092961MD1999999+0061MW1501REMSYN100AAXX  04004 83182 21494 814// 10214 20190 39296 40114 75066 8472/ 333 10316 29080 55004 58006 60061;
0188831820999992010030412004-11300-041867FM-12+074799999V02099999999990450019N0100001N1+02241+01971101291ADDAA124013091AY161061AY261061GF108991031051008001021011MA1999999093051MD1999999-0111MW1021REMSYN088AAXX  04124 83182 21597 809// 10224 20197 39305 40129 70266 83521 333 2//// 59011 60134;
0137831820999992010030418004-11300-041867FM-12+074799999V02099999999990450019N0100001N1+02961+01781100871ADDGF108991041031008001031011MA1999999092761MD1999999-0041REMSYN070AAXX  04184 83182 32597 814// 10296 20178 39276 40087 84331 333 59004;
0188831820999992010030512004-11300-041867FM-12+074799999V02099999999990042019N0100001N1+02121+01911101391ADDAA124064091AY161061AY261061GF108991071071004501021999MA1999999093111MD1999999+0061MW1601REMSYN088AAXX  05124 83182 21497 823// 10212 20191 39311 40139 76066 8772/ 333 2//// 58006 60644;
0182831820999992010030518004-11300-041867FM-12+074799999V02099999999990450019N0100001N1+02331+02021101061ADDAA106011991AY161061AY221061GF108991011031008001021999MA1999999092841MD1999999+0081MW1021REMSYN082AAXX  05184 83182 21597 809// 10233 20202 39284 40106 70262 8132/ 333 58008 60121;
0168831820999992010030600004-11300-041867FM-12+074799999V02099999999990042019N0010001N1+02271+02081101071ADDGF108991061071004501021999KA1240M+02531MA1999999092851MD1999999+0101REMSYN088AAXX  06004 83182 32494 832// 10227 20208 39285 40107 8672/ 333 10253 29087 55007 58010;
0188831820999992010030612004-11300-041867FM-12+074799999V02099999999990450019N0100001N1+02441+01741100951ADDAA124000891AY161061AY221061GF108991021021017501031011MA1999999092811MD1999999-0301MW1031REMSYN088AAXX  06124 83182 21797 809// 10244 20174 39281 40095 70362 82231 333 2//// 59030 69984;
0137831820999992010030618004-11300-041867FM-12+074799999V02099999999990450019N0100001N1+03021+01731100541ADDGF108991041021008001041011MA1999999092481MD1999999-0361REMSYN070AAXX  06184 83182 32597 827// 10302 20173 39248 40054 84241 333 59036;
0168831820999992010030700004-11300-041867FM-12+074799999V02099999999990042019N0010001N1+02381+02011100941ADDGF108991061071004501021999KA1240M+03101MA1999999092801MD1999999-0051REMSYN088AAXX  07004 83182 32494 827// 10238 20201 39280 40094 8672/ 333 10310 29068 55099 59005;
0143831820999992010030712004-11300-041867FM-12+074799999V02099999999990450019N0100001N1+02461+01831101021ADDGF108991021021008001051011MA1999999092871MD1999999+0021REMSYN076AAXX  07124 83182 32597 827// 10246 20183 39287 40102 82251 333 2//// 58002;
0182831820999992010030718004-11300-041867FM-12+074799999V02099999999990075019N0100001N1+02721+01931100801ADDAA106006191AY161061AY221061GF108991051031008001041011MA1999999092661MD1999999+0181MW1021REMSYN082AAXX  07184 83182 21597 832// 10272 20193 39266 40080 70262 85341 333 58018 60061;
0213831820999992010030800004-11300-041867FM-12+074799999V02099999999990042019N0010001N1+02231+02001101131ADDAA106000591AY161061AY221061GF108991061071004501021999KA1240M+02911MA1999999092951MD1999999+0151MW1021REMSYN100AAXX  08004 83182 21494 814// 10223 20200 39295 40113 70262 8672/ 333 10291 29076 55049 58015 69951;
0188831820999992010030812004-11300-041867FM-12+074799999V02099999999990450019N0100001N1+02431+02081101261ADDAA124007191AY161061AY221061GF106991011021008001041011MA1999999093051MD1999999+0181MW1031REMSYN088AAXX  08124 83182 21597 614// 10243 20208 39305 40126 70362 81241 333 2//// 58018 60074;
0137831820999992010030818004-11300-041867FM-12+074799999V02099999999991050019N0100001N1+03121+01681100791ADDGF107991031031008001001021MA1999999092731MD1999999+0071REMSYN070AAXX  08184 83182 32597 736// 10312 20168 39273 40079 83302 333 58007;
0168831820999992010030900004-11300-041867FM-12+074799999V02099999999990450019N0010001N1+02561+01931101081ADDGF108991041021008001021001KA1240M+03281MA1999999092951MD1999999+0001REMSYN088AAXX  09004 83182 32594 809// 10256 20193 39295 40108 84220 333 10328 29071 55092 58000;
0143831820999992010030912004-11300-041867FM-12+074799999V02099999999990075019N0100001N1+02761+02121101191ADDGF108991061021008001031011MA1999999093131MD1999999+0081REMSYN076AAXX  09124 83182 32597 814// 10276 20212 39313 40119 86231 333 2//// 58008;
0182831820999992010030918004-11300-041867FM-12+074799999V02099999999990450019N0100001N1+02361+02191101101ADDAA106011991AY161061AY261061GF108991031031004501021999MA1999999092911MD1999999+0181MW1021REMSYN082AAXX  09184 83182 21497 818// 10236 20219 39291 40110 70266 8332/ 333 58018 60121;
0232831820999992010031000004-11300-041867FM-12+074799999V02099999999990450019N0010001N1+02311+02191101091ADDAA106000091AY161061AY221061GF108991031071004501021999KA1240M+02971MA1999999092981MD1999999+0031MW1021REMSYN100AAXX  10004 83182 21494 814// 10231 20219 39298 40109 70262 8372/ 333 10297 29086 55041 58003 69921;EQDQ01  00002PRCP06
0188831820999992010031012004-11300-041867FM-12+074799999V02099999999992200019N0100001N1+02481+02031101151ADDAA124011991AY161061AY221061GF103991021011012501041011MA1999999092991MD1999999-0141MW1031REMSYN088AAXX  10124 83182 21697 318// 10248 20203 39299 40115 70362 82141 333 2//// 59014 60124;
0137831820999992010031018004-11300-041867FM-12+074799999V02099999999990075019N0100001N1+03021+01621100761ADDGF107991051031008001001011MA1999999092701MD1999999-0211REMSYN070AAXX  10184 83182 32597 709// 10302 20162 39270 40076 85301 333 59021;
0168831820999992010031100004-11300-041867FM-12+074799999V02099999999992200019N0010001N1+02601+01571100871ADDGF103991011021008001001011KA1240M+03111MA1999999092781MD1999999-0201REMSYN088AAXX  11004 83182 32594 309// 10260 20157 39278 40087 81201 333 10311 29056 55102 59020;
0143831820999992010031112004-11300-041867FM-12+074799999V02099999999999999999N0100001N1+02621+01981101011ADDGF108991001001999999001011MA1999999092931MD1999999-0061REMSYN076AAXX  11124 83182 32997 809// 10262 20198 39293 40101 80001 333 2//// 59006;
0137831820999992010031118004-11300-041867FM-12+074799999V02099999999992200019N0100001N1+02341+01451100631ADDGF104991021021008001001011MA1999999092611MD1999999-0091REMSYN070AAXX  11184 83182 32597 432// 10234 20145 39261 40063 82201 333 59009;
0178831820999992010031200004-11300-041867FM-12+074799999V02099999999992200019N0010001N1+02721+01821100721ADDGA1001+999999999GF100991001001999999001001KA1240M+03411MA1999999092681MD1999999-0101REMSYN082AAXX  12004 83182 32994 014// 10272 20182 39268 40072 333 10341 29054 55108 59010;
0143831820999992010031212004-11300-041867FM-12+074799999V02099999999992200019N0100001N1+02771+02041101041ADDGF108991011011012501001011MA1999999093011MD1999999+0081REMSYN076AAXX  12124 83182 32697 814// 10277 20204 39301 40104 81101 333 2//// 58008;
0137831820999992010031218004-11300-041867FM-12+074799999V02099999999992200019N0100001N1+03341+01401100611ADDGF103991021021008001001011MA1999999092611MD1999999+0001REMSYN070AAXX  12184 83182 32597 318// 10334 20140 39261 40061 82201 333 58000;
0168831820999992010031300004-11300-041867FM-12+074799999V02099999999992200019N0100001N1+02701+01661100961ADDGF105991021021008001001011KA1240M+03401MA1999999092941MD1999999+0261REMSYN088AAXX  13004 83182 32597 509// 10270 20166 39294 40096 82201 333 10340 29050 55109 58026;
0143831820999992010031312004-11300-041867FM-12+074799999V02099999999992200019N0100001N1+02801+01901101201ADDGF101991011001017501041001MA1999999093141MD1999999+0131REMSYN076AAXX  13124 83182 32797 109// 10280 20190 39314 40120 81040 333 2//// 58013;
0137831820999992010031318004-11300-041867FM-12+074799999V02099999999992200019N0100001N1+03341+00811100801ADDGF101991011011012501001001MA1999999092741MD1999999+0131REMSYN070AAXX  13184 83182 32697 109// 10334 20081 39274 40080 81100 333 58013;
0178831820999992010031400004-11300-041867FM-12+074799999V02099999999992200019N0010001N1+02481+01701101121ADDGA1001+999999999GF100991001001999999001001KA1240M+03371MA1999999093031MD1999999+0091REMSYN082AAXX  14004 83182 32994 009// 10248 20170 39303 40112 333 10337 29051 55107 58009;
0143831820999992010031412004-11300-041867FM-12+074799999V02099999999992200019N0100001N1+02641+01691101361ADDGF102991011011012501001011MA1999999093241MD1999999+0101REMSYN076AAXX  14124 83182 32697 209// 10264 20169 39324 40136 81101 333 2//// 58010;
0137831820999992010031418004-11300-041867FM-12+074799999V02099999999992200019N0100001N1+03061+01421100991ADDGF108991021021008001001011MA1999999092891MD1999999+0151REMSYN070AAXX  14184 83182 32597 818// 10306 20142 39289 40099 82201 333 58015;
0168831820999992010031500004-11300-041867FM-12+074799999V02099999999999999999N0010001N1+02531+01741101221ADDGF108991001001999999001011KA1240M+03161MA1999999093121MD1999999+0091REMSYN088AAXX  15004 83182 32994 809// 10253 20174 39312 40122 80001 333 10316 29054 55103 58009;
0143831820999992010031512004-11300-041867FM-12+074799999V02099999999990075019N0100001N1+02461+01971101341ADDGF108991081021008001001001MA1999999092201MD1999999-0041REMSYN076AAXX  15124 83182 32597 814// 10246 20197 39220 40134 88200 333 2//// 59004;
0137831820999992010031518004-11300-041867FM-12+074799999V02099999999992200019N0100001N1+03081+01521101031ADDGF106991041031008001001011MA1999999092931MD1999999+0041REMSYN070AAXX  15184 83182 32597 614// 10308 20152 39293 40103 84301 333 58004;
0178831820999992010031600004-11300-041867FM-12+074799999V02099999999992200019N0010001N1+02441+01641101061ADDGA1001+999999999GF100991001001999999001001KA1240M+03161MA1999999092921MD1999999-0201REMSYN082AAXX  16004 83182 32994 009// 10244 20164 39292 40106 333 10316 29059 55107 59020;
0143831820999992010031612004-11300-041867FM-12+074799999V02099999999990075019N0100001N1+02581+01741101361ADDGF105991051021008001001001MA1999999093221MD1999999+0021REMSYN076AAXX  16124 83182 32597 514// 10258 20174 39322 40136 85200 333 2//// 58002;
0137831820999992010031618004-11300-041867FM-12+074799999V02099999999992200019N0100001N1+03121+01561100891ADDGF102991021021008001001001MA1999999092801MD1999999-0131REMSYN070AAXX  16184 83182 32597 209// 10312 20156 39280 40089 82200 333 59013;
0168831820999992010031700004-11300-041867FM-12+074799999V02099999999992200019N0010001N1+02441+01691101031ADDGF102991021011012501001001KA1240M+03211MA1999999092911MD1999999-0011REMSYN088AAXX  17004 83182 32694 209// 10244 20169 39291 40103 82100 333 10321 29056 55109 59001;
0143831820999992010031712004-11300-041867FM-12+074799999V02099999999992200019N0100001N1+02441+01691101361ADDGF104991041021008001001001MA1999999093201MD1999999-0021REMSYN076AAXX  17124 83182 32597 414// 10244 20169 39320 40136 84200 333 2//// 59002;
0137831820999992010031718004-11300-041867FM-12+074799999V02099999999992200019N0100001N1+03141+01411100891ADDGF106991031021008001001011MA1999999092801MD1999999+0001REMSYN070AAXX  17184 83182 32597 609// 10314 20141 39280 40089 83201 333 58000;
0168831820999992010031800004-11300-041867FM-12+074799999V02099999999999999999N0010001N1+02431+01631101141ADDGF108991001001999999001011KA1240M+03181MA1999999093011MD1999999+0101REMSYN088AAXX  18004 83182 32994 809// 10243 20163 39301 40114 80001 333 10318 29055 55106 58010;
0143831820999992010031812004-11300-041867FM-12+074799999V02099999999992200019N0100001N1+02531+01991101371ADDGF103991021021008001001011MA1999999093231MD1999999+0031REMSYN076AAXX  18124 83182 32597 314// 10253 20199 39323 40137 82201 333 2//// 58003;
0137831820999992010031818004-11300-041867FM-12+074799999V02099999999992200019N0100001N1+03181+01661101031ADDGF106991041031008001001011MA1999999092961MD1999999+0161REMSYN070AAXX  18184 83182 32597 618// 10318 20166 39296 40103 84301 333 58016;
0168831820999992010031900004-11300-041867FM-12+074799999V02099999999999999999N0010001N1+02541+01681101201ADDGF108991001001999999001011KA1240M+03281MA1999999093081MD1999999+0071REMSYN088AAXX  19004 83182 32994 814// 10254 20168 39308 40120 80001 333 10328 29057 55106 58007;
0143831820999992010031912004-11300-041867FM-12+074799999V02099999999990075019N0100001N1+02471+01931101471ADDGF108991081051008001999999MA1999999093321MD1999999+0091REMSYN076AAXX  19124 83182 32597 809// 10247 20193 39332 40147 885// 333 2//// 58009;
0137831820999992010031918004-11300-041867FM-12+074799999V02099999999990450019N0100001N1+03041+01571100881ADDGF108991041021008001041011MA1999999092811MD1999999-0151REMSYN070AAXX  19184 83182 32597 809// 10304 20157 39281 40088 84241 333 59015;
0168831820999992010032000004-11300-041867FM-12+074799999V02099999999990450019N9999999N1+02521+01841101171ADDGF108991021021008001041011KA1240M+03151MA1999999093041MD1999999-0041REMSYN088AAXX  20004 83182 325// 809// 10252 20184 39304 40117 82241 333 10315 29061 55062 59004;
0188831820999992010032012004-11300-041867FM-12+074799999V02099999999990075019N0100001N1+02341+02181101381ADDAA124007191AY161061AY221061GF108991061071008001021999MA1999999093241MD1999999-0081MW1021REMSYN088AAXX  20124 83182 21597 818// 10234 20218 39324 40138 70262 8672/ 333 2//// 59008 60074;
0137831820999992010032018004-11300-041867FM-12+074799999V02099999999992200019N0100001N1+02941+01881100851ADDGF108991031021008001001011MA1999999092781MD1999999-0031REMSYN070AAXX  20184 83182 32597 827// 10294 20188 39278 40085 83201 333 59003;
0168831820999992010032100004-11300-041867FM-12+074799999V02099999999990450019N0010001N1+02301+01921101151ADDGF108991031051008001061021KA1240M+02941MA1999999092951MD1999999-0091REMSYN088AAXX  21004 83182 32594 814// 10230 20192 39295 40115 83562 333 10294 29076 55052 59009;
0188831820999992010032112004-11300-041867FM-12+074799999V02099999999990075019N0100001N1+02421+02251101271ADDAA124019191AY161061AY261061GF108991051021008001041011MA1999999093081MD1999999-0161MW1021REMSYN088AAXX  21124 83182 21597 814// 10242 20225 39308 40127 70266 85241 333 2//// 59016 60194;
0165831820999992010032118004-11300-041867FM-12+074799999V02099999999990450019N0100001N1+02681+02111100951ADDAY111061AY261061GF108991041031008001041031MA1999999092801MD1999999+0021MW1021REMSYN076AAXX  21184 83182 31597 832// 10268 20211 39280 40095 70216 84343 333 58002;
0213831820999992010032200004-11300-041867FM-12+074799999V02099999999990042019N0010001N1+02121+02101101161ADDAA106000891AY161061AY221061GF108991051071004501021999KA1240M+03001MA1999999092961MD1999999+0011MW1601REMSYN100AAXX  22004 83182 21494 836// 10212 20210 39296 40116 76062 8572/ 333 10300 29090 55018 58001 69981;
0188831820999992010032212004-11300-041867FM-12+074799999V02099999999990450019N0100001N1+02361+02091101351ADDAA124003091AY161061AY261061GF106991041021008001041001MA1999999093121MD1999999+0041MW1031REMSYN088AAXX  22124 83182 21597 609// 10236 20209 39312 40135 70366 84240 333 2//// 58004 60034;
0137831820999992010032218004-11300-041867FM-12+074799999V02099999999990075019N0100001N1+02721+02101100941ADDGF108991051021008001031021MA1999999092801MD1999999+0001REMSYN070AAXX  22184 83182 32597 832// 10272 20210 39280 40094 85232 333 58000;
0168831820999992010032300004-11300-041867FM-12+074799999V02099999999999999999N0010001N1+02181+02031101261ADDGF108991001001999999001011KA1240M+02831MA1999999093041MD1999999+0081REMSYN088AAXX  23004 83182 32994 814// 10218 20203 39304 40126 80001 333 10283 29084 55052 58008;
0188831820999992010032312004-11300-041867FM-12+074799999V02099999999990450019N0100001N1+02381+02111101441ADDAA124001091AY161061AY221061GF108991021021008001031001MA1999999093221MD1999999+0101MW1021REMSYN088AAXX  23124 83182 21597 836// 10238 20211 39322 40144 70262 82230 333 2//// 58010 69994;
0182831820999992010032318004-11300-041867FM-12+074799999V02099999999990450019N0100001N1+02441+02091101131ADDAA106010991AY161061AY261061GF108991041031008001021011MA1999999092901MD1999999+0101MW1621REMSYN082AAXX  23184 83182 21597 823// 10244 20209 39290 40113 76266 84321 333 58010 60111;
0213831820999992010032400004-11300-041867FM-12+074799999V02099999999999999999N0010001N1+02301+02271101151ADDAA106000021AY161061AY221061GF108991001001999999001011KA1240M+02961MA1999999092971MD1999999-0071MW1021REMSYN100AAXX  24004 83182 21994 814// 10230 20227 39297 40115 70262 80001 333 10296 29090 55023 59007 69921;
0160831820999992010032412004-11300-041867FM-12+074799999V02099999999990450019N0100001N1+02541+01881101341ADDAA124010991GF108991021021008001041011MA1999999093161MD1999999-0061REMSYN082AAXX  24124 83182 22597 809// 10254 20188 39316 40134 82241 333 2//// 59006 60114;
0137831820999992010032418004-11300-041867FM-12+074799999V02099999999992200019N0100001N1+02981+01441100921ADDGF104991031021008001031001MA1999999092831MD1999999-0071REMSYN070AAXX  24184 83182 32597 409// 10298 20144 39283 40092 83230 333 59007;
0178831820999992010032500004-11300-041867FM-12+074799999V02099999999992200019N0010001N1+02201+01691101111ADDGA1001+999999999GF100991001001999999001001KA1240M+03041MA1999999092941MD1999999-0031REMSYN082AAXX  25004 83182 32994 014// 10220 20169 39294 40111 333 10304 29063 55096 59003;
0143831820999992010032512004-11300-041867FM-12+074799999V02099999999990450019N0100001N1+02381+01731101451ADDGF106991021021008001041001MA1999999093231MD1999999+0061REMSYN076AAXX  25124 83182 32597 609// 10238 20173 39323 40145 82240 333 2//// 58006;
0137831820999992010032518004-11300-041867FM-12+074799999V02099999999992200019N0100001N1+02941+01511101081ADDGF105991041021008001001011MA1999999092911MD1999999+0081REMSYN070AAXX  25184 83182 32597 509// 10294 20151 39291 40108 84201 333 58008;
0168831820999992010032600004-11300-041867FM-12+074799999V02099999999992200019N0010001N1+02321+02001101141ADDGF102991001001999999001011KA1240M+03031MA1999999092961MD1999999+0021REMSYN088AAXX  26004 83182 32994 214// 10232 20200 39296 40114 80001 333 10303 29068 55106 58002;
0143831820999992010032612004-11300-041867FM-12+074799999V02099999999990075019N0100001N1+02441+01811101361ADDGF106991061021008001001001MA1999999093181MD1999999-0051REMSYN076AAXX  26124 83182 32597 605// 10244 20181 39318 40136 86200 333 2//// 59005;
0137831820999992010032618004-11300-041867FM-12+074799999V02099999999992200019N0100001N1+02781+01821100981ADDGF102991011031008001001011MA1999999092821MD1999999-0091REMSYN070AAXX  26184 83182 32597 214// 10278 20182 39282 40098 81301 333 59009;
0168831820999992010032700004-11300-041867FM-12+074799999V02099999999991050019N0010001N1+02041+01951101311ADDGF108991021001017501061021KA1240M+02881MA1999999093081MD1999999+0121REMSYN088AAXX  27004 83182 32794 814// 10204 20195 39308 40131 82062 333 10288 29076 55077 58012;
0143831820999992010032712004-11300-041867FM-12+074799999V02099999999990075019N0100001N1+02481+01921101391ADDGF108991081051008001999999MA1999999093151MD1999999-0031REMSYN076AAXX  27124 83182 32597 809// 10248 20192 39315 40139 885// 333 2//// 59003;
0137831820999992010032718004-11300-041867FM-12+074799999V02099999999992200019N0100001N1+02941+01511100961ADDGF104991031021008001001011MA1999999092831MD1999999+0011REMSYN070AAXX  27184 83182 32597 409// 10294 20151 39283 40096 83201 333 58001;
0168831820999992010032800004-11300-041867FM-12+074799999V02099999999999999999N0010001N1+02281+01881101121ADDGF108991001001999999001011KA1240M+02991MA1999999092961MD1999999-0121REMSYN088AAXX  28004 83182 32994 814// 10228 20188 39296 40112 80001 333 10299 29067 55098 59012;
0143831820999992010032812004-11300-041867FM-12+074799999V02099999999990075019N0100001N1+02541+01951101301ADDGF106991061021008001001001MA1999999093121MD1999999-0021REMSYN076AAXX  28124 83182 32597 609// 10254 20195 39312 40130 86200 333 2//// 59002;
0137831820999992010032818004-11300-041867FM-12+074799999V02099999999992200019N0100001N1+02961+01741100831ADDGF103991031021008001001001MA1999999092711MD1999999-0121REMSYN070AAXX  28184 83182 32597 314// 10296 20174 39271 40083 83200 333 59012;
0168831820999992010032900004-11300-041867FM-12+074799999V02099999999990150019N0010001N1+03041+01871101161ADDGF106991061001017501051001KA1240M+03041MA1999999093061MD1999999+0061REMSYN088AAXX  29004 83182 32794 609// 10304 20187 39306 40116 86050 333 10304 29068 55096 58006;
0143831820999992010032912004-11300-041867FM-12+074799999V02099999999990450019N0100001N1+02421+01911101221ADDGF108991021021008001031011MA1999999093171MD1999999+0041REMSYN076AAXX  29124 83182 32597 809// 10242 20191 39317 40122 82231 333 2//// 58004;
0156831820999992010032918004-11300-041867FM-12+074799999V02099999999990075019N0100001N1+02941+01691100961ADDGF108991999031008001001001MA1999999092831MD1999999+0121REMSYN070AAXX  29184 83182 32597 809// 10294 20169 39283 40096 86300 333 58012;EQDQ01+000062SCOTLC
0168831820999992010033000004-11300-041867FM-12+074799999V02099999999999999999N0010001N1+02421+01991101141ADDGF107991001001999999001011KA1240M+03011MA1999999093001MD1999999-0021REMSYN088AAXX  30004 83182 32994 709// 10242 20199 39300 40114 80001 333 10301 29069 55045 59002;
0143831820999992010033012004-11300-041867FM-12+074799999V02099999999992200019N0100001N1+02521+01791101241ADDGF103991011011012501041001MA1999999093091MD1999999-0081REMSYN076AAXX  30124 83182 32697 314// 10252 20179 39309 40124 81140 333 2//// 59008;
0137831820999992010033018004-11300-041867FM-12+074799999V02099999999992200019N0100001N1+03161+01671100861ADDGF102991021031008001001001MA1999999092791MD1999999+0041REMSYN070AAXX  30184 83182 32597 223// 10316 20167 39279 40086 82300 333 58004;
0213831820999992010033100004-11300-041867FM-12+074799999V02099999999992200019N0010001N1+02321+02051101111ADDAA106005191AY161061AY221061GF108991031001017501041011KA1240M+03251MA1999999092951MD1999999-0051MW1021REMSYN100AAXX  31004 83182 21794 809// 10232 20205 39295 40111 70262 83041 333 10325 29069 55091 59005 60051;
0160831820999992010033112004-11300-041867FM-12+074799999V02099999999992200019N0100001N1+02601+02061101111ADDAA124005191GF102991021021008001001001MA1999999092971MD1999999-0121REMSYN082AAXX  31124 83182 22597 214// 10260 20206 39297 40111 82200 333 2//// 59012 60054;
0137831820999992010033118004-11300-041867FM-12+074799999V02099999999992200019N0100001N1+03221+01341100651ADDGF108991021021008001001011MA1999999092601MD1999999-0191REMSYN070AAXX  31184 83182 32597 809// 10322 20134 39260 40065 82201 333 59019;
0168831820999992010040100004-11300-041867FM-12+074799999V02099999999999999999N0010001N1+02441+01861100931ADDGF108991001001999999001011KA1240M+03351MA1999999092821MD1999999-0131REMSYN088AAXX  01004 83182 32994 809// 10244 20186 39282 40093 80001 333 10335 29061 55107 59013;
0143831820999992010040112004-11300-041867FM-12+074799999V02099999999992200019N0100001N1+02561+01951101041ADDGF103991021021008001001011MA1999999092921MD1999999-0051REMSYN076AAXX  01124 83182 32597 309// 10256 20195 39292 40104 82201 333 2//// 59005;
0137831820999992010040118004-11300-041867FM-12+074799999V02099999999992200019N0100001N1+03121+01391100691ADDGF107991041031008001001011MA1999999092621MD1999999+0021REMSYN070AAXX  01184 83182 32597 723// 10312 20139 39262 40069 84301 333 58002;
0168831820999992010040200004-11300-041867FM-12+074799999V02099999999990150019N0010001N1+02541+01761100861ADDGF108991081001017501011999KA1240M+03241MA1999999092771MD1999999-0051REMSYN088AAXX  02004 83182 32794 814// 10254 20176 39277 40086 8801/ 333 10324 29057 55099 59005;
0143831820999992010040212004-11300-041867FM-12+074799999V02099999999990075019N0100001N1+02541+01981101121ADDGF108991081051008001999999MA1999999093011MD1999999+0091REMSYN076AAXX  02124 83182 32597 809// 10254 20198 39301 40112 885// 333 2//// 58009;
0137831820999992010040218004-11300-041867FM-12+074799999V02099999999992200019N0100001N1+03081+01851100651ADDGF108991021031008001001011MA1999999092611MD1999999-0011REMSYN070AAXX  02184 83182 32597 814// 10308 20185 39261 40065 82301 333 59001;
0196831820999992010040300004-11300-041867FM-12+074799999V02099999999990450019N0010001N1+02501+01941101031ADDAY121061AY221061GF108991021031008001041021KA1240M+03131MA1999999092911MD1999999+0141MW1131REMSYN094AAXX  03004 83182 31594 809// 10250 20194 39291 40103 71322 82342 333 10313 29065 55086 58014;
0143831820999992010040312004-11300-041867FM-12+074799999V02099999999990075019N0100001N1+02661+01971101271ADDGF107991061021008001041001MA1999999093161MD1999999+0151REMSYN076AAXX  03124 83182 32597 709// 10266 20197 39316 40127 86240 333 2//// 58015;
0182831820999992010040318004-11300-041867FM-12+074799999V02099999999990450019N0100001N1+02561+02161100961ADDAA106007991AY161061AY221061GF108991021031008001061021MA1999999092801MD1999999+0191MW1151REMSYN082AAXX  03184 83182 21597 836// 10256 20216 39280 40096 71562 82362 333 58019 60081;
0168831820999992010040400004-11300-041867FM-12+074799999V02099999999990075019N0010001N1+02341+02071101181ADDGF108991081051008001999999KA1240M+03061MA1999999093051MD1999999+0141REMSYN088AAXX  04004 83182 32594 814// 10234 20207 39305 40118 885// 333 10306 29078 55042 58014;
0188831820999992010040412004-11300-041867FM-12+074799999V02099999999990075019N0100001N1+02421+01951101281ADDAA124007991AY161061AY221061GF108991071021008001041001MA1999999093111MD1999999+0011MW1021REMSYN088AAXX  04124 83182 21597 809// 10242 20195 39311 40128 70262 87240 333 2//// 58001 60084;
0182831820999992010040418004-11300-041867FM-12+074799999V02099999999990075019N0100001N1+02721+02051100871ADDAA106003091AY161061AY221061GF108991061031008001001021MA1999999092751MD1999999-0051MW1501REMSYN082AAXX  04184 83182 21597 814// 10272 20205 39275 40087 75062 86302 333 59005 60031;
0213831820999992010040500004-11300-041867FM-12+074799999V02099999999990075019N0010001N1+02341+02051101041ADDAA106000021AY161061AY221061GF108991051051008001021999KA1240M+03001MA1999999092891MD1999999-0161MW1021REMSYN100AAXX  05004 83182 21594 809// 10234 20205 39289 40104 70262 8552/ 333 10300 29078 55078 59016 69921;
0188831820999992010040512004-11300-041867FM-12+074799999V02099999999990075019N0100001N1+02521+02001101221ADDAA124004191AY161061AY221061GF105991051021008001001001MA1999999093051MD1999999-0061MW1031REMSYN088AAXX  05124 83182 21597 523// 10252 20200 39305 40122 70362 85200 333 2//// 59006 60044;
0137831820999992010040518004-11300-041867FM-12+074799999V02099999999990075019N0100001N1+03121+01751100901ADDGF107991051031008001001021MA1999999092801MD1999999+0051REMSYN070AAXX  05184 83182 32597 714// 10312 20175 39280 40090 85302 333 58005;
0168831820999992010040600004-11300-041867FM-12+074799999V02099999999999999999N0010001N1+02501+01981100941ADDGF106991001001999999001011KA1240M+03131MA1999999092831MD1999999+0061REMSYN088AAXX  06004 83182 32994 609// 10250 20198 39283 40094 80001 333 10313 29066 55093 58006;
0143831820999992010040612004-11300-041867FM-12+074799999V02099999999992200019N0100001N1+02521+02001101031ADDGF104991021021008001001011MA1999999092911MD1999999-0141REMSYN076AAXX  06124 83182 32597 409// 10252 20200 39291 40103 82201 333 2//// 59014;
0137831820999992010040618004-11300-041867FM-12+074799999V02099999999992200019N0100001N1+03211+01431100531ADDGF105991031031008001001011MA1999999092531MD1999999-0271REMSYN070AAXX  06184 83182 32597 536// 10321 20143 39253 40053 83301 333 59027;
0168831820999992010040700004-11300-041867FM-12+074799999V02099999999992200019N0010001N1+02641+01901100631ADDGF104991001001999999001011KA1240M+03381MA1999999092561MD1999999-0271REMSYN088AAXX  07004 83182 32994 414// 10264 20190 39256 40063 80001 333 10338 29059 55095 59027;
0143831820999992010040712004-11300-041867FM-12+074799999V02099999999990075019N0100001N1+02681+02111100851ADDGF108991061031008001001011MA1999999092801MD1999999-0111REMSYN076AAXX  07124 83182 32597 836// 10268 20211 39280 40085 86301 333 2//// 59011;
0201831820999992010040718004-11300-041867FM-12+074799999V02099999999990075019N0100001N1+02541+02041100551ADDAA106000091AY161061AY221061GF108991061051008001021999MA1999999092441MD1999999-0091MW1021REMSYN082AAXX  07184 83182 21597 805// 10254 20204 39244 40055 70262 8652/ 333 59009 69911;EQDQ01  00002PRCP06
0168831820999992010040800004-11300-041867FM-12+074799999V02099999999990075019N0010001N1+02261+02111100961ADDGF108991081051008001999999KA1240M+02771MA1999999092831MD1999999+0271REMSYN088AAXX  08004 83182 32594 836// 10226 20211 39283 40096 885// 333 10277 29082 55032 58027;
0188831820999992010040812004-11300-041867FM-12+074799999V02099999999990042019N0100001N1+02041+01971101131ADDAA124026991AY161061AY261061GF108991051071004501021999MA1999999092881MD1999999+0081MW1021REMSYN088AAXX  08124 83182 21497 814// 10204 20197 39288 40113 70266 8572/ 333 2//// 58008 60274;
0182831820999992010040818004-11300-041867FM-12+074799999V02099999999990075019N0100001N1+02681+02351100751ADDAA106006191AY161061AY221061GF108991051031008001031999MA1999999092611MD1999999+0171MW1021REMSYN082AAXX  08184 83182 21597 809// 10268 20235 39261 40075 70262 8533/ 333 58017 60061;
0213831820999992010040900004-11300-041867FM-12+074799999V02099999999990042019N0010001N1+02021+02001101261ADDAA106024991AY161061AY261061GF108991061051004501021999KA1240M+02811MA1999999092971MD1999999+0141MW1601REMSYN100AAXX  09004 83182 21494 814// 10202 20200 39297 40126 76066 8652/ 333 10281 29094 55012 58014 60251;
0188831820999992010040912004-11300-041867FM-12+074799999V02099999999990075019N0100001N1+02441+02131101211ADDAA124055191AY161061AY221061GF108991061051008001051011MA1999999092991MD1999999+0111MW1021REMSYN088AAXX  09124 83182 21597 809// 10244 20213 39299 40121 70262 86551 333 2//// 58011 60554;
0137831820999992010040918004-11300-041867FM-12+074799999V02099999999990042019N0100001N1+02461+02151101051ADDGF108991071071004501021999MA1999999092851MD1999999+0241REMSYN070AAXX  09184 83182 32497 836// 10246 20215 39285 40105 8772/ 333 58024;
0213831820999992010041000004-11300-041867FM-12+074799999V02099999999990042019N0010001N1+02121+02021101411ADDAA106018091AY161061AY261061GF108991061071004501021999KA1240M+02811MA1999999093191MD1999999+0221MW1021REMSYN100AAXX  10004 83182 21494 814// 10212 20202 39319 40141 70266 8672/ 333 10281 29088 55022 58022 60181;
0188831820999992010041012004-11300-041867FM-12+074799999V02099999999990042019N0100001N1+02071+01791101611ADDAA124021191AY161061AY261061GF108991061071004501021999MA1999999093311MD1999999+0321MW1021REMSYN088AAXX  10124 83182 21497 814// 10207 20179 39331 40161 70266 8672/ 333 2//// 58032 60214;
0137831820999992010041018004-11300-041867FM-12+074799999V02099999999990075019N0100001N1+02441+01901101131ADDGF108991061051008001061021MA1999999092881MD1999999+0031REMSYN070AAXX  10184 83182 32597 814// 10244 20190 39288 40113 86562 333 58003;
0168831820999992010041100004-11300-041867FM-12+074799999V02099999999990042019N0010001N1+02081+01781101371ADDGF108991071071004501021999KA1240M+02551MA1999999093191MD1999999+0001REMSYN088AAXX  11004 83182 32494 814// 10208 20178 39319 40137 8772/ 333 10255 29080 55007 58000;
0143831820999992010041112004-11300-041867FM-12+074799999V02099999999990075019N0100001N1+02141+01721101381ADDGF108991081051008001999999MA1999999093101MD1999999-0211REMSYN076AAXX  11124 83182 32597 814// 10214 20172 39310 40138 885// 333 2//// 59021;
0137831820999992010041118004-11300-041867FM-12+074799999V02099999999990075019N0100001N1+02381+01841101051ADDGF108991061051008001011999MA1999999092811MD1999999-0071REMSYN070AAXX  11184 83182 32597 818// 10238 20184 39281 40105 8651/ 333 59007;
0168831820999992010041200004-11300-041867FM-12+074799999V02099999999990450019N0010001N1+02031+01781101381ADDGF108991011051008001051021KA1240M+02551MA1999999093101MD1999999-0091REMSYN088AAXX  12004 83182 32594 814// 10203 20178 39310 40138 81552 333 10255 29081 55005 59009;
0143831820999992010041212004-11300-041867FM-12+074799999V02099999999992200019N0100001N1+02321+01791101291ADDGF107991031021008001001011MA1999999093051MD1999999-0051REMSYN076AAXX  12124 83182 32597 714// 10232 20179 39305 40129 83201 333 2//// 59005;
0137831820999992010041218004-11300-041867FM-12+074799999V02099999999990450019N0100001N1+02621+01811101091ADDGF108991041021008001091021MA1999999092901MD1999999+0091REMSYN070AAXX  12184 83182 32597 818// 10262 20181 39290 40109 84292 333 58009;
0168831820999992010041300004-11300-041867FM-12+074799999V02099999999990450019N0010001N1+02181+01881101281ADDGF108991041051008001031999KA1240M+02711MA1999999093051MD1999999-0051REMSYN088AAXX  13004 83182 32594 809// 10218 20188 39305 40128 8453/ 333 10271 29075 55056 59005;
0143831820999992010041312004-11300-041867FM-12+074799999V02099999999990075019N0100001N1+02301+01791101511ADDGF106991061021008001001001MA1999999093271MD1999999+0221REMSYN076AAXX  13124 83182 32597 614// 10230 20179 39327 40151 86200 333 2//// 58022;
0137831820999992010041318004-11300-041867FM-12+074799999V02099999999990450019N0100001N1+02741+01771101181ADDGF108991041021008001091081MA1999999092981MD1999999+0081REMSYN070AAXX  13184 83182 32597 814// 10274 20177 39298 40118 84298 333 58008;
0178831820999992010041400004-11300-041867FM-12+074799999V02099999999992200019N0010001N1+02171+01941101281ADDGA1001+999999999GF100991001001999999001001KA1240M+02851MA1999999093051MD1999999+0001REMSYN082AAXX  14004 83182 32994 009// 10217 20194 39305 40128 333 10285 29076 55103 58000;
0143831820999992010041412004-11300-041867FM-12+074799999V02099999999990075019N0100001N1+02491+01941101491ADDGF106991061051008001001001MA1999999093281MD1999999+0011REMSYN076AAXX  14124 83182 32597 614// 10249 20194 39328 40149 86500 333 2//// 58001;
0137831820999992010041418004-11300-041867FM-12+074799999V02099999999990075019N0100001N1+02611+01971101151ADDGF106991061051008001001001MA1999999092971MD1999999-0011REMSYN070AAXX  14184 83182 32597 614// 10261 20197 39297 40115 86500 333 59001;
0168831820999992010041500004-11300-041867FM-12+074799999V02099999999990075019N0010001N1+02171+01841101361ADDGF107991071051008001001001KA1240M+02761MA1999999093161MD1999999+0111REMSYN088AAXX  15004 83182 32594 714// 10217 20184 39316 40136 87500 333 10276 29076 55061 58011;
0143831820999992010041512004-11300-041867FM-12+074799999V02099999999990075019N0100001N1+02161+01991101421ADDGF107991051021008001041001MA1999999093151MD1999999-0131REMSYN076AAXX  15124 83182 32597 709// 10216 20199 39315 40142 85240 333 2//// 59013;
0137831820999992010041518004-11300-041867FM-12+074799999V02099999999990450019N0100001N1+02721+01901100981ADDGF106991041051008001031011MA1999999092841MD1999999-0131REMSYN070AAXX  15184 83182 32597 614// 10272 20190 39284 40098 84531 333 59013;
0168831820999992010041600004-11300-041867FM-12+074799999V02099999999990075019N0010001N1+02201+01901101261ADDGF107991071051008001001001KA1240M+02871MA1999999093021MD1999999-0141REMSYN088AAXX  16004 83182 32594 714// 10220 20190 39302 40126 87500 333 10287 29079 55057 59014;
0143831820999992010041612004-11300-041867FM-12+074799999V02099999999990075019N0100001N1+02481+02011101291ADDGF107991071051008001001001MA1999999093101MD1999999-0051REMSYN076AAXX  16124 83182 32597 714// 10248 20201 39310 40129 87500 333 2//// 59005;
0137831820999992010041618004-11300-041867FM-12+074799999V02099999999992200019N0100001N1+03001+01781100981ADDGF102991021021008001001001MA1999999092861MD1999999+0021REMSYN070AAXX  16184 83182 32597 209// 10300 20178 39286 40098 82200 333 58002;
0178831820999992010041700004-11300-041867FM-12+074799999V02099999999992200019N0010001N1+02301+01961101171ADDGA1001+999999999GF100991001001999999001001KA1240M+03131MA1999999093011MD1999999-0011REMSYN082AAXX  17004 83182 32994 009// 10230 20196 39301 40117 333 10313 29071 55096 59001;
0143831820999992010041712004-11300-041867FM-12+074799999V02099999999990075019N0100001N1+02501+01981101431ADDGF107991071051008001001001MA1999999093251MD1999999+0151REMSYN076AAXX  17124 83182 32597 709// 10250 20198 39325 40143 87500 333 2//// 58015;
0137831820999992010041718004-11300-041867FM-12+074799999V02099999999992200019N0100001N1+02901+01991101041ADDGF103991021021008001051001MA1999999092891MD1999999+0031REMSYN070AAXX  17184 83182 32597 314// 10290 20199 39289 40104 82250 333 58003;
0178831820999992010041800004-11300-041867FM-12+074799999V02099999999992200019N0010001N1+02341+01951101301ADDGA1001+999999999GF100991001001999999001001KA1240M+03051MA1999999093131MD1999999+0121REMSYN082AAXX  18004 83182 32994 009// 10234 20195 39313 40130 333 10305 29072 55102 58012;
0143831820999992010041812004-11300-041867FM-12+074799999V02099999999990075019N0100001N1+02521+01961101431ADDGF108991061021008001041001MA1999999093261MD1999999+0011REMSYN076AAXX  18124 83182 32597 814// 10252 20196 39326 40143 86240 333 2//// 58001;
0137831820999992010041818004-11300-041867FM-12+074799999V02099999999992200019N0100001N1+03021+01891101201ADDGF103991021031008001041001MA1999999093071MD1999999+0181REMSYN070AAXX  18184 83182 32597 309// 10302 20189 39307 40120 82340 333 58018;
0162831820999992010041900004-11300-041867FM-12+074799999V02099999999992200019N0010001N1+02331+02231101351ADDGF101991999999999999999999KA1240M+03131MA1999999093171MD1999999+0041REMSYN082AAXX  19004 83182 32994 108// 10233 20223 39317 40135 333 10313 29077 55085 58004;
0143831820999992010041912004-11300-041867FM-12+074799999V02099999999992200019N0100001N1+02321+01741101571ADDGF108991031011012501001011MA1999999093341MD1999999+0081REMSYN076AAXX  19124 83182 32697 814// 10232 20174 39334 40157 83101 333 2//// 58008;
0137831820999992010041918004-11300-041867FM-12+074799999V02099999999990075019N0100001N1+02881+01571101151ADDGF105991051021008001001001MA1999999093031MD1999999-0041REMSYN070AAXX  19184 83182 32597 509// 10288 20157 39303 40115 85200 333 59004;
0178831820999992010042000004-11300-041867FM-12+074799999V02099999999992200019N0010001N1+02181+01881101351ADDGA1001+999999999GF100991001001999999001001KA1240M+03001MA1999999093121MD1999999-0051REMSYN082AAXX  20004 83182 32994 018// 10218 20188 39312 40135 333 10300 29069 55112 59005;
0143831820999992010042012004-11300-041867FM-12+074799999V02099999999990450019N0100001N1+02221+01761101451ADDGF106991031021008001041011MA1999999093201MD1999999-0141REMSYN076AAXX  20124 83182 32597 609// 10222 20176 39320 40145 83241 333 2//// 59014;
0137831820999992010042018004-11300-041867FM-12+074799999V02099999999992200019N0100001N1+02861+01411101041ADDGF104991041021008001001001MA1999999092891MD1999999-0141REMSYN070AAXX  20184 83182 32597 414// 10286 20141 39289 40104 84200 333 59014;
0168831820999992010042100004-11300-041867FM-12+074799999V02099999999990075019N0010001N1+02221+01691101271ADDGF107991071051008001001001KA1240M+03001MA1999999093031MD1999999-0091REMSYN088AAXX  21004 83182 32594 718// 10222 20169 39303 40127 87500 333 10300 29065 55110 59009;
0143831820999992010042112004-11300-041867FM-12+074799999V02099999999999999999N0100001N1+02481+01701101271ADDGF108991001001999999001011MA1999999093081MD1999999-0121REMSYN076AAXX  21124 83182 32997 814// 10248 20170 39308 40127 80001 333 2//// 59012;
0137831820999992010042118004-11300-041867FM-12+074799999V02099999999992200019N0100001N1+03001+01331100961ADDGF108991011021008001001011MA1999999092821MD1999999-0071REMSYN070AAXX  21184 83182 32597 805// 10300 20133 39282 40096 81201 333 59007;
0168831820999992010042200004-11300-041867FM-12+074799999V02099999999999999999N0010001N1+02181+01671101331ADDGF108991001001999999001011KA1240M+03121MA1999999093171MD1999999+0141REMSYN088AAXX  22004 83182 32994 814// 10218 20167 39317 40133 80001 333 10312 29061 55111 58014;
0143831820999992010042212004-11300-041867FM-12+074799999V02099999999992200019N0100001N1+02341+01871101411ADDGF101991011011012501001001MA1999999093171MD1999999-0091REMSYN076AAXX  22124 83182 32697 114// 10234 20187 39317 40141 81100 333 2//// 59009;
0137831820999992010042218004-11300-041867FM-12+074799999V02099999999992200019N0100001N1+03021+01301100971ADDGF102991021021008001001001MA1999999092811MD1999999-0011REMSYN070AAXX  22184 83182 32597 214// 10302 20130 39281 40097 82200 333 59001;
0168831820999992010042300004-11300-041867FM-12+074799999V02099999999992200019N0010001N1+02261+01981101211ADDGF103991001001999999001011KA1240M+03171MA1999999093011MD1999999-0161REMSYN088AAXX  23004 83182 32994 309// 10226 20198 39301 40121 80001 333 10317 29070 55103 59016;
0143831820999992010042312004-11300-041867FM-12+074799999V02099999999992200019N0100001N1+02521+01911101411ADDGF108991011021008001001011MA1999999093271MD1999999+0101REMSYN076AAXX  23124 83182 32597 809// 10252 20191 39327 40141 81201 333 2//// 58010;
0137831820999992010042318004-11300-041867FM-12+074799999V02099999999992200019N0100001N1+03041+01531101001ADDGF108991011021008001001011MA1999999092861MD1999999+0051REMSYN070AAXX  23184 83182 32597 809// 10304 20153 39286 40100 81201 333 58005;
0168831820999992010042400004-11300-041867FM-12+074799999V02099999999992200019N0010001N1+02261+01791101311ADDGF108991021001017501051011KA1240M+03171MA1999999093141MD1999999+0131REMSYN088AAXX  24004 83182 32794 809// 10226 20179 39314 40131 82051 333 10317 29065 55101 58013;
0153831820999992010042412004-11300-041867FM-12+074799999V02099999999992200019N0100001N1+02461+01831101481ADDGA1001+999999999GF100991001001999999001001MA1999999093281MD1999999+0011REMSYN070AAXX  24124 83182 32997 014// 10246 20183 39328 40148 333 2//// 58001;
0137831820999992010042418004-11300-041867FM-12+074799999V02099999999992200019N0100001N1+02981+01551101051ADDGF102991021021008001001001MA1999999092861MD1999999+0001REMSYN070AAXX  24184 83182 32597 209// 10298 20155 39286 40105 82200 333 58000;
0178831820999992010042500004-11300-041867FM-12+074799999V02099999999992200019N0010001N1+02301+01831101331ADDGA1001+999999999GF100991001001999999001001KA1240M+03101MA1999999093151MD1999999+0011REMSYN082AAXX  25004 83182 32994 014// 10230 20183 39315 40133 333 10310 29065 55108 58001;
0143831820999992010042512004-11300-041867FM-12+074799999V02099999999992200019N0100001N1+02531+01711101411ADDGF102991021021008001001001MA1999999093231MD1999999-0051REMSYN076AAXX  25124 83182 32597 214// 10253 20171 39323 40141 82200 333 2//// 59005;
0137831820999992010042518004-11300-041867FM-12+074799999V02099999999992200019N0100001N1+02911+01551100941ADDGF102991021021008001001001MA1999999092811MD1999999-0051REMSYN070AAXX  25184 83182 32597 214// 10291 20155 39281 40094 82200 333 59005;
0178831820999992010042600004-11300-041867FM-12+074799999V02099999999992200019N0010001N1+02161+01781101311ADDGA1001+999999999GF100991001001999999001001KA1240M+03061MA1999999093121MD1999999-0031REMSYN082AAXX  26004 83182 32994 014// 10216 20178 39312 40131 333 10306 29066 55109 59003;
0143831820999992010042612004-11300-041867FM-12+074799999V02099999999992200019N0100001N1+02301+01751101511ADDGF101991011011012501001001MA1999999093271MD1999999+0001REMSYN076AAXX  26124 83182 32697 114// 10230 20175 39327 40151 81100 333 2//// 58000;
0137831820999992010042618004-11300-041867FM-12+074799999V02099999999992200019N0100001N1+03081+01221101021ADDGF102991021011008001001001MA1999999092911MD1999999+0101REMSYN070AAXX  26184 83182 32597 214// 10308 20122 39291 40102 82100 333 58010;
0168831820999992010042700004-11300-041867FM-12+074799999V02099999999992200019N0010001N1+02261+01751101201ADDGF102991011021008001001011KA1240M+03171MA1999999093001MD1999999-0121REMSYN088AAXX  27004 83182 32594 209// 10226 20175 39300 40120 81201 333 10317 29062 55104 59012;
0143831820999992010042712004-11300-041867FM-12+074799999V02099999999992200019N0100001N1+02421+01841101421ADDGF101991011011012501001001MA1999999093221MD1999999-0051REMSYN076AAXX  27124 83182 32697 109// 10242 20184 39322 40142 81100 333 2//// 59005;
0137831820999992010042718004-11300-041867FM-12+074799999V02099999999992200019N0100001N1+03021+01071101111ADDGF102991011021008001001011MA1999999092951MD1999999+0041REMSYN070AAXX  27184 83182 32597 218// 10302 20107 39295 40111 81201 333 58004;
0178831820999992010042800004-11300-041867FM-12+074799999V02099999999992200019N0010001N1+02301+01721101251ADDGA1001+999999999GF100991001001999999001001KA1240M+03191MA1999999093061MD1999999+0061REMSYN082AAXX  28004 83182 32994 014// 10230 20172 39306 40125 333 10319 29060 55107 58006;
0143831820999992010042812004-11300-041867FM-12+074799999V02099999999992200019N0100001N1+02481+01801101501ADDGF108991011021008001001011MA1999999093271MD1999999+0051REMSYN076AAXX  28124 83182 32597 809// 10248 20180 39327 40150 81201 333 2//// 58005;
0137831820999992010042818004-11300-041867FM-12+074799999V02099999999992200019N0100001N1+03081+01171101021ADDGF108991021021008001001011MA1999999092881MD1999999-0071REMSYN070AAXX  28184 83182 32597 814// 10308 20117 39288 40102 82201 333 59007;
0168831820999992010042900004-11300-041867FM-12+074799999V02099999999992200019N0010001N1+02301+01681101411ADDGF108991041001017501051011KA1240M+03081MA1999999093231MD1999999+0171REMSYN088AAXX  29004 83182 32794 814// 10230 20168 39323 40141 84051 333 10308 29058 55102 58017;
0143831820999992010042912004-11300-041867FM-12+074799999V02099999999990450019N0100001N1+02361+01661101411ADDGF106991021021008001061001MA1999999092211MD1999999-0021REMSYN076AAXX  29124 83182 32597 609// 10236 20166 39221 40141 82260 333 2//// 59002;
0137831820999992010042918004-11300-041867FM-12+074799999V02099999999990450019N0100001N1+02921+01341101011ADDGF105991041021008001041001MA1999999092861MD1999999-0021REMSYN070AAXX  29184 83182 32597 509// 10292 20134 39286 40101 84240 333 59002;
0143831820999992010043012004-11300-041867FM-12+074799999V02099999999999999999N0100001N1+02511+01681999999ADDGF108991001001999999001011MA1999999093191MD1999999-0021REMSYN076AAXX  30124 83182 32997 814// 10251 20168 39319 4//// 80001 333 2//// 59002;
0137831820999992010043018004-11300-041867FM-12+074799999V02099999999992200019N0100001N1+03041+01091100961ADDGF108991031021008001001011MA1999999092821MD1999999-0041REMSYN070AAXX  30184 83182 32597 818// 10304 20109 39282 40096 83201 333 59004;
0154831820999992010050100004-11300-041867FM-12+074799999V02099999999999999999N0010001N1+02231+01591101281ADDGF108991001001999999001011KA1240M+03231MA1999999093091REMSYN088AAXX  01004 83182 32994 814// 10223 20159 39309 40128 80001 333 10323 29056 55102 5////;
0143831820999992010050112004-11300-041867FM-12+074799999V02099999999992200019N0100001N1+02381+01731101461ADDGF101991011021008001001001MA1999999093241MD1999999+0051REMSYN076AAXX  01124 83182 32597 109// 10238 20173 39324 40146 81200 333 2//// 58005;
0137831820999992010050118004-11300-041867FM-12+074799999V02099999999992200019N0100001N1+03021+01171101021ADDGF102991021021008001001001MA1999999092851MD1999999+0031REMSYN070AAXX  01184 83182 32597 209// 10302 20117 39285 40102 82200 333 58003;
0168831820999992010050200004-11300-041867FM-12+074799999V02099999999992200019N0010001N1+02261+01641101241ADDGF101991011001017501051001KA1240M+03081MA1999999093041MD1999999-0051REMSYN088AAXX  02004 83182 32794 109// 10226 20164 39304 40124 81050 333 10308 29059 55105 59005;
0143831820999992010050212004-11300-041867FM-12+074799999V02099999999992200019N0100001N1+02261+01791101471ADDGF102991011021008001041001MA1999999093231MD1999999-0011REMSYN076AAXX  02124 83182 32597 214// 10226 20179 39323 40147 81240 333 2//// 59001;
0156831820999992010050218004-11300-041867FM-12+074799999V02099999999992200019N0100001N1+03001+01201999999ADDGF102991021021008001001001MA1999999092961MD1999999+0111REMSYN070AAXX  02184 83182 32597 209// 10300 20120 39296 40012 82200 333 58011;EQDQ01+100123APOSLP
0168831820999992010050300004-11300-041867FM-12+074799999V02099999999992200019N0010001N1+02221+01601101441ADDGF102991001001999999001011KA1240M+03091MA1999999093201MD1999999+0161REMSYN088AAXX  03004 83182 32994 214// 10222 20160 39320 40144 80001 333 10309 29060 55109 58016;
0143831820999992010050312004-11300-041867FM-12+074799999V02099999999992200019N0100001N1+02281+01591101561ADDGF102991021021008001001001MA1999999093321MD1999999+0091REMSYN076AAXX  03124 83182 32597 214// 10228 20159 39332 40156 82200 333 2//// 58009;
0137831820999992010050318004-11300-041867FM-12+074799999V02099999999992200019N0100001N1+02761+01591101291ADDGF104991031021008001061001MA1999999093081MD1999999+0121REMSYN070AAXX  03184 83182 32597 409// 10276 20159 39308 40129 83260 333 58012;
0178831820999992010050400004-11300-041867FM-12+074799999V02099999999992200019N0010001N1+02191+01791101401ADDGA1001+999999999GF100991001001999999001001KA1240M+02891MA1999999093161MD1999999-0041REMSYN082AAXX  04004 83182 32994 014// 10219 20179 39316 40140 333 10289 29068 55095 59004;
0143831820999992010050412004-11300-041867FM-12+074799999V02099999999992200019N0100001N1+02221+01531101461ADDGF101991011011012501001001MA1999999093211MD1999999-0111REMSYN076AAXX  04124 83182 32697 109// 10222 20153 39321 40146 81100 333 2//// 59011;
0137831820999992010050418004-11300-041867FM-12+074799999V02099999999990450019N0100001N1+03021+01521101031ADDGF105991041021008001041001MA1999999092911MD1999999-0171REMSYN070AAXX  04184 83182 32597 514// 10302 20152 39291 40103 84240 333 59017;
0168831820999992010050500004-11300-041867FM-12+074799999V02099999999992200019N0010001N1+02331+01661101201ADDGF101991001001999999001011KA1240M+03071MA1999999092981MD1999999-0181REMSYN088AAXX  05004 83182 32994 109// 10233 20166 39298 40120 80001 333 10307 29059 55099 59018;
0153831820999992010050512004-11300-041867FM-12+074799999V02099999999992200019N0100001N1+02541+01571101281ADDGA1001+999999999GF100991001001999999001001MA1999999093111MD1999999-0101REMSYN070AAXX  05124 83182 32997 014// 10254 20157 39311 40128 333 2//// 59010;
0137831820999992010050518004-11300-041867FM-12+074799999V02099999999990075019N0100001N1+02681+01811101071ADDGF108991081051008001999999MA1999999092861MD1999999-0051REMSYN070AAXX  05184 83182 32597 809// 10268 20181 39286 40107 885// 333 59005;
0143831820999992010050612004-11300-041867FM-12+074799999V02099999999990075019N0100001N1+02331+01861101241ADDGF107991071051008001999999MA1999999093121MD1999999+0011REMSYN076AAXX  06124 83182 32597 714// 10233 20186 39312 40124 875// 333 2//// 58001;
0137831820999992010050618004-11300-041867FM-12+074799999V02099999999990450019N0100001N1+03001+01781101031ADDGF108991041051008001031999MA1999999092911MD1999999+0051REMSYN070AAXX  06184 83182 32597 805// 10300 20178 39291 40103 8453/ 333 58005;
0168831820999992010050700004-11300-041867FM-12+074799999V02099999999992200019N0010001N1+02351+02011101371ADDGF103991001001999999001011KA1240M+03121MA1999999093171MD1999999+0061REMSYN088AAXX  07004 83182 32994 314// 10235 20201 39317 40137 80001 333 10312 29071 55052 58006;
0143831820999992010050712004-11300-041867FM-12+074799999V02099999999992200019N0100001N1+02441+01691101551ADDGF103991021021008001001011MA1999999093351MD1999999+0231REMSYN076AAXX  07124 83182 32597 318// 10244 20169 39335 40155 82201 333 2//// 58023;
0137831820999992010050718004-11300-041867FM-12+074799999V02099999999999999999N0100001N1+03121+01161101091ADDGF108991001001999999001011MA1999999092961MD1999999+0051REMSYN070AAXX  07184 83182 32997 809// 10312 20116 39296 40109 80001 333 58005;
0168831820999992010050800004-11300-041867FM-12+074799999V02099999999999999999N0010001N1+02181+01521101351ADDGF108991001001999999001011KA1240M+03211MA1999999093141MD1999999-0031REMSYN088AAXX  08004 83182 32994 814// 10218 20152 39314 40135 80001 333 10321 29056 55107 59003;
0143831820999992010050812004-11300-041867FM-12+074799999V02099999999992200019N0100001N1+02361+01461101581ADDGF101991001001999999001011MA1999999093341MD1999999-0011REMSYN076AAXX  08124 83182 32997 109// 10236 20146 39334 40158 80001 333 2//// 59001;
0137831820999992010050818004-11300-041867FM-12+074799999V02099999999999999999N0100001N1+03141+00961101131ADDGF108991001001999999001011MA1999999092951MD1999999-0011REMSYN070AAXX  08184 83182 32997 814// 10314 20096 39295 40113 80001 333 59001;
0168831820999992010050900004-11300-041867FM-12+074799999V02099999999999999999N0010001N1+02241+01241101321ADDGF108991001001999999001011KA1240M+03231MA1999999093111MD1999999-0031REMSYN088AAXX  09004 83182 32994 814// 10224 20124 39311 40132 80001 333 10323 29053 55100 59003;
0143831820999992010050912004-11300-041867FM-12+074799999V02099999999999999999N0100001N1+02531+01751101361ADDGF108991001001999999001011MA1999999093181MD1999999-0161REMSYN076AAXX  09124 83182 32997 814// 10253 20175 39318 40136 80001 333 2//// 59016;
0137831820999992010050918004-11300-041867FM-12+074799999V02099999999992200019N0100001N1+03181+01051101401ADDGF102991011021008001001011MA1999999093241MD1999999+0291REMSYN070AAXX  09184 83182 32597 209// 10318 20105 39324 40140 81201 333 58029;
0178831820999992010051000004-11300-041867FM-12+074799999V02099999999992200019N0010001N1+02361+01711101131ADDGA1001+999999999GF100991001001999999001001KA1240M+03291MA1999999092991MD1999999-0121REMSYN082AAXX  10004 83182 32994 014// 10236 20171 39299 40113 333 10329 29056 55109 59012;
0143831820999992010051012004-11300-041867FM-12+074799999V02099999999999999999N0100001N1+02421+01821101131ADDGF108991001001999999001011MA1999999092971MD1999999-0211REMSYN076AAXX  10124 83182 32997 809// 10242 20182 39297 40113 80001 333 2//// 59021;
0137831820999992010051018004-11300-041867FM-12+074799999V02099999999992200019N0100001N1+03161+01241100681ADDGF108991031021008001001011MA1999999092611MD1999999-0631REMSYN070AAXX  10184 83182 32597 809// 10316 20124 39261 40068 83201 333 59063;
