0168833390999992010010100004-14050-042617FM-12+088299999V0209999C000010450019N0020001N1+02251+02011100991ADDGF106991031021004501031001KA1240M+02541MA1999999091391MD1999999+0031REMSYN088AAXX  01004 83339 32495 60000 10225 20201 39139 40099 83230 333 10254 29084 55000 58003;
0201833390999992010010112004-14050-042617FM-12+088299999V0201401N002110042019N0010001N1+02051+01991101221ADDAA124009991AY161061AY241061GF108991051051004501021999KA1240N+01901MA1999999091601MD1999999+0071MW1401REMSYN088AAXX  01124 83339 21494 81404 10205 20199 39160 40122 74064 8552/ 333 20190 58007 60104;
0165833390999992010010118004-14050-042617FM-12+088299999V0201401N005112200019N0100001N1+02731+01971100711ADDAY141061AY221061GF105991041021004501001011MA1999999091241MD1999999-0091MW1021REMSYN076AAXX  01184 83339 31497 51410 10273 20197 39124 40071 70242 84201 333 59009;
0168833390999992010010200004-14050-042617FM-12+088299999V0201401N001012200019N0020001N1+02371+01661101041ADDGF102991021011004501001001KA1240M+02771MA1999999091451MD1999999+0061REMSYN088AAXX  02004 83339 32495 21402 10237 20166 39145 40104 82100 333 10277 29072 55071 58006;
0156833390999992010010212004-14050-042617FM-12+088299999V0201401N002612200019N0100001N1+02291+01811101211ADDGF102991021011004501001001KA1240N+01961MA1999999091671MD1999999+0071REMSYN076AAXX  02124 83339 32497 21405 10229 20181 39167 40121 82100 333 20196 58007;
0137833390999992010010218004-14050-042617FM-12+088299999V0200901N004112200019N0100001N1+02731+01781100861ADDGF105991031021004501001041MA1999999091391MD1999999+0151REMSYN070AAXX  02184 83339 32497 50908 10273 20178 39139 40086 83204 333 58015;
0168833390999992010010300004-14050-042617FM-12+088299999V0201401N003112200019N0020001N1+02071+01861101221ADDGF102991021011004501001001KA1240M+02781MA1999999091601MD1999999+0151REMSYN088AAXX  03004 83339 32495 21406 10207 20186 39160 40122 82100 333 10278 29076 55089 58015;
0156833390999992010010312004-14050-042617FM-12+088299999V0200901N007212200019N0100001N1+02171+01861101381ADDGF104991041021004501001001KA1240N+01861MA1999999091731MD1999999+0061REMSYN076AAXX  03124 83339 32497 40914 10217 20186 39173 40138 84200 333 20186 58006;
0137833390999992010010318004-14050-042617FM-12+088299999V0201401N006712200019N0100001N1+02791+01751100981ADDGF103991031021004501001001MA1999999091481MD1999999+0091REMSYN070AAXX  03184 83339 32497 31413 10279 20175 39148 40098 83200 333 58009;
0178833390999992010010400004-14050-042617FM-12+088299999V0201401N004612200019N0020001N1+02241+01841101231ADDGA1001+999999999GF100991001001999999001001KA1240M+03841MA1999999091631MD1999999+0031REMSYN082AAXX  04004 83339 32995 01409 10224 20184 39163 40123 333 10384 29073 55103 58003;
0156833390999992010010412004-14050-042617FM-12+088299999V0201401N006710042019N0100001N1+02291+01831101271ADDGF106991061021004501001001KA1240N+01931MA1999999091701MD1999999-0031REMSYN076AAXX  04124 83339 32497 61413 10229 20183 39170 40127 86200 333 20193 59003;
0137833390999992010010418004-14050-042617FM-12+088299999V0201401N003112200019N0100001N1+02851+01631100861ADDGF103991031021004501001001MA1999999091391MD1999999-0091REMSYN070AAXX  04184 83339 32497 31406 10285 20163 39139 40086 83200 333 59009;
0178833390999992010010500004-14050-042617FM-12+088299999V0201801N003112200019N0020001N1+02291+01541100961ADDGA1001+999999999GF100991001001999999001001KA1240M+02901MA1999999091431MD1999999-0201REMSYN082AAXX  05004 83339 32995 01806 10229 20154 39143 40096 333 10290 29062 55104 59020;
0156833390999992010010512004-14050-042617FM-12+088299999V0201401N003112200019N0100001N1+02291+01901101051ADDGF103991021021004501031001KA1240N+01881MA1999999091511MD1999999-0191REMSYN076AAXX  05124 83339 32497 31406 10229 20190 39151 40105 82230 333 20188 59019;
0137833390999992010010518004-14050-042617FM-12+088299999V0201401N001512200019N0100001N1+02891+01421100641ADDGF103991021021004501001021MA1999999091221MD1999999-0171REMSYN070AAXX  05184 83339 32497 31403 10289 20142 39122 40064 82202 333 59017;
0168833390999992010010600004-14050-042617FM-12+088299999V0209999C000012200019N0020001N1+02371+01541100721ADDGF102991021021004501001001KA1240M+02951MA1999999091231MD1999999-0201REMSYN088AAXX  06004 83339 32495 20000 10237 20154 39123 40072 82200 333 10295 29060 55102 59020;
0156833390999992010010612004-14050-042617FM-12+088299999V0200901N002610042019N0100001N1+02251+01861100881ADDGF106991051021004501031001KA1240N+01801MA1999999091351MD1999999-0161REMSYN076AAXX  06124 83339 32497 60905 10225 20186 39135 40088 85230 333 20180 59016;
0165833390999992010010618004-14050-042617FM-12+088299999V0203201N002110042019N0100001N1+02611+01841100581ADDAY101061AY291061GF106991051021004501021001MA1999999091101MD1999999-0121MW1021REMSYN076AAXX  06184 83339 31497 63204 10261 20184 39110 40058 70209 85220 333 59012;
0168833390999992010010700004-14050-042617FM-12+088299999V0202301N000512200019N0020001N1+02271+01621100821ADDGF104991041021004501001001KA1240M+02881MA1999999091281MD1999999+0051REMSYN088AAXX  07004 83339 32495 42301 10227 20162 39128 40082 84200 333 10288 29069 55077 58005;
0156833390999992010010712004-14050-042617FM-12+088299999V0202701N003110042019N0040001N1+02351+01931100991ADDGF107991061021004501021999KA1240N+02061MA1999999091451MD1999999+0101REMSYN076AAXX  07124 83339 32496 72706 10235 20193 39145 40099 8622/ 333 20206 58010;
0137833390999992010010718004-14050-042617FM-12+088299999V0202701N003610042019N0040001N1+02411+01931100831ADDGF106991051021004501021001MA1999999091311MD1999999+0211REMSYN070AAXX  07184 83339 32496 62707 10241 20193 39131 40083 85220 333 58021;
0196833390999992010010800004-14050-042617FM-12+088299999V0209999C000010042019N0020001N1+02211+02011100821ADDAY101061AY201061GF107991061021004501031001KA1240M+02631MA1999999091301MD1999999+0021MW1101REMSYN094AAXX  08004 83339 31495 70000 10221 20201 39130 40082 71000 86230 333 10263 29083 55003 58002;
0156833390999992010010812004-14050-042617FM-12+088299999V0201401N005110042019N0100001N1+02311+01921101071ADDGF106991051021004501021001KA1240N+01961MA1999999091511MD1999999+0061REMSYN076AAXX  08124 83339 32497 61410 10231 20192 39151 40107 85220 333 20196 58006;
0137833390999992010010818004-14050-042617FM-12+088299999V0201401N004612200019N0100001N1+02851+01821100691ADDGF103991031021004501001001MA1999999091241MD1999999-0071REMSYN070AAXX  08184 83339 32497 31409 10285 20182 39124 40069 83200 333 59007;
0168833390999992010010900004-14050-042617FM-12+088299999V0202301N005712200019N0020001N1+02111+01701101051ADDGF102991021021004501001001KA1240M+02921MA1999999091461MD1999999+0161REMSYN088AAXX  09004 83339 32495 22311 10211 20170 39146 40105 82200 333 10292 29072 55092 58016;
0184833390999992010010912004-14050-042617FM-12+088299999V0201401N003110042019N0040001N1+02111+01911101211ADDAY101061AY201061GF108991081051004501999999KA1240N+01881MA1999999091571MD1999999+0061MW1101REMSYN082AAXX  09124 83339 31496 81406 10211 20191 39157 40121 71000 885// 333 20188 58006;
0137833390999992010010918004-14050-042617FM-12+088299999V0201401N005112200019N0100001N1+02831+01651100731ADDGF102991021021004501001001MA1999999091251MD1999999+0011REMSYN070AAXX  09184 83339 32497 21410 10283 20165 39125 40073 82200 333 58001;
0197833390999992010011000004-14050-042617FM-12+088299999V0201401N002112200019N0020001N1+02471+01681101822ADDGA1001+999999999GF100991001001999999001001KA1240M+02921MA1999999091301MD1999999-0161REMSYN082AAXX  10004 83339 32995 01404 10247 20168 39130 40182 333 10292 29066 55083 59016;EQDQ01+101823APOSLP
0156833390999992010011012004-14050-042617FM-12+088299999V0201401N005712200019N0100001N1+02271+01621101011ADDGF102991021021004501001001KA1240N+01841MA1999999091491MD1999999-0081REMSYN076AAXX  10124 83339 32497 21411 10227 20162 39149 40101 82200 333 20184 59008;
0137833390999992010011018004-14050-042617FM-12+088299999V0200901N004612200019N0100001N1+02751+01141100761ADDGF104991041021004501001001MA1999999091301MD1999999+0051REMSYN070AAXX  10184 83339 32497 40909 10275 20114 39130 40076 84200 333 58005;
0178833390999992010011100004-14050-042617FM-12+088299999V0201401N003612200019N0020001N1+02331+01761100831ADDGA1001+999999999GF100991001001999999001001KA1240M+02861MA1999999091311MD1999999+0011REMSYN082AAXX  11004 83339 32995 01407 10233 20176 39131 40083 333 10286 29062 55120 58001;
0184833390999992010011112004-14050-042617FM-12+088299999V0201401N002610042019N0100001N1+02191+01901101011ADDAY101061AY201061GF106991061021004501001001KA1240N+01951MA1999999091451MD1999999-0041MW1101REMSYN082AAXX  11124 83339 31497 61405 10219 20190 39145 40101 71000 86200 333 20195 59004;
0137833390999992010011118004-14050-042617FM-12+088299999V0201401N002112200019N0100001N1+02931+01531100681ADDGF102991021021004501001001MA1999999091151MD1999999-0151REMSYN070AAXX  11184 83339 32497 21404 10293 20153 39115 40068 82200 333 59015;
0168833390999992010011200004-14050-042617FM-12+088299999V0201801N001510042019N0020001N1+02271+01441100871ADDGF106991061021004501001001KA1240M+03001MA1999999091331MD1999999+0021REMSYN088AAXX  12004 83339 32495 61803 10227 20144 39133 40087 86200 333 10300 29062 55099 58002;
0156833390999992010011212004-14050-042617FM-12+088299999V0201401N002112200019N0100001N1+02191+01801101061ADDGF104991031021004501031001KA1240N+01761MA1999999091501MD1999999+0051REMSYN076AAXX  12124 83339 32497 41404 10219 20180 39150 40106 83230 333 20176 58005;
0182833390999992010011218004-14050-042617FM-12+088299999V0203201N003610042019N0100001N1+02311+01981100771ADDAA106004191AY111061AY261061GF106991051021004501021001MA1999999091191MD1999999+0041MW1601REMSYN082AAXX  12184 83339 21497 63207 10231 20198 39119 40077 76016 85220 333 58004 60041;
0168833390999992010011300004-14050-042617FM-12+088299999V0201801N005110042019N0020001N1+02111+01701101101ADDGF106991061021004501001001KA1240M+03061MA1999999091491MD1999999+0161REMSYN088AAXX  13004 83339 32495 61810 10211 20170 39149 40110 86200 333 10306 29079 55058 58016;
0201833390999992010011312004-14050-042617FM-12+088299999V0200501N002610450019N0100001N1+02351+01851101121ADDAA124004191AY161061AY261061GF105991041021004501031001KA1240N+01761MA1999999091551MD1999999+0051MW1021REMSYN088AAXX  13124 83339 21497 50505 10235 20185 39155 40112 70266 84230 333 20176 58005 60044;
0165833390999992010011318004-14050-042617FM-12+088299999V0203201N004612200019N0100001N1+02891+01601100741ADDAY101061AY201061GF104991041021004501001001MA1999999091261MD1999999+0071MW1171REMSYN076AAXX  13184 83339 31497 43209 10289 20160 39126 40074 71700 84200 333 58007;
0213833390999992010011400004-14050-042617FM-12+088299999V0203201N000512200019N0020001N1+01951+01771101071ADDAA106002091AY191061AY261061GF102991021021004501001001KA1240M+02961MA1999999091461MD1999999-0031MW1101REMSYN100AAXX  14004 83339 21495 23201 10195 20177 39146 40107 71096 82200 333 10296 29075 55088 59003 60021;
0201833390999992010011412004-14050-042617FM-12+088299999V0200501N001512200019N0100001N1+02331+01811101221ADDAA124002091AY161061AY261061GF102991021021004501001001KA1240N+01841MA1999999091601MD1999999+0051MW1021REMSYN088AAXX  14124 83339 21497 20503 10233 20181 39160 40122 70266 82200 333 20184 58005 60024;
0137833390999992010011418004-14050-042617FM-12+088299999V0202301N003110042019N0100001N1+02811+01871100811ADDGF105991051021004501001001MA1999999091311MD1999999+0051REMSYN070AAXX  14184 83339 32497 52306 10281 20187 39131 40081 85200 333 58005;
0196833390999992010011500004-14050-042617FM-12+088299999V0201401N005112200019N0020001N1+02391+01801100921ADDAY101061AY201061GF102991021021004501001001KA1240M+03071MA1999999091411MD1999999-0051MW1131REMSYN094AAXX  15004 83339 31495 21410 10239 20180 39141 40092 71300 82200 333 10307 29068 55113 59005;
0156833390999992010011512004-14050-042617FM-12+088299999V0201401N002110042019N0100001N1+02331+01891101201ADDGF106991051021004501021001KA1240N+01881MA1999999091661MD1999999+0061REMSYN076AAXX  15124 83339 32497 61404 10233 20189 39166 40120 85220 333 20188 58006;
0137833390999992010011518004-14050-042617FM-12+088299999V0201401N003612200019N0100001N1+03011+01811100811ADDGF104991031021004501021001MA1999999091391MD1999999+0081REMSYN070AAXX  15184 83339 32497 41407 10301 20181 39139 40081 83220 333 58008;
0178833390999992010011600004-14050-042617FM-12+088299999V0201401N003112200019N0020001N1+02551+01571101001ADDGA1001+999999999GF100991001001999999001001KA1240M+03101MA1999999091521MD1999999+0111REMSYN082AAXX  16004 83339 32995 01406 10255 20157 39152 40100 333 10310 29059 55111 58011;
0156833390999992010011612004-14050-042617FM-12+088299999V02099999999992200019N0100001N1+02291+01641101211ADDGF103991021021004501001021KA1240N+01881MA1999999091691MD1999999+0031REMSYN076AAXX  16124 83339 32497 309// 10229 20164 39169 40121 82202 333 20188 58003;
0147833390999992010011618004-14050-042617FM-12+088299999V02099999999992200019N0100001N1+02911+01401100901ADDGA1001+999999999GF100991001001999999001001MA1999999091471MD1999999+0081REMSYN064AAXX  16184 83339 32997 009// 10291 20140 39147 40090 333 58008;
0178833390999992010011700004-14050-042617FM-12+088299999V02099999999992200019N0020001N1+02551+01231101001ADDGA1001+999999999GF100991001001999999001001KA1240M+02921MA1999999091501MD1999999-0021REMSYN082AAXX  17004 83339 32995 009// 10255 20123 39150 40100 333 10292 29049 55120 59002;
0156833390999992010011712004-14050-042617FM-12+088299999V02099999999990042019N0100001N1+02331+01721101281ADDGF105991051021004501001001KA1240N+02001MA1999999091771MD1999999+0081REMSYN076AAXX  17124 83339 32497 509// 10233 20172 39177 40128 85200 333 20200 58008;
0137833390999992010011718004-14050-042617FM-12+088299999V02099999999992200019N0100001N1+02891+01421100941ADDGF103991031021004501001001MA1999999091531MD1999999+0061REMSYN070AAXX  17184 83339 32497 305// 10289 20142 39153 40094 83200 333 58006;
0168833390999992010011800004-14050-042617FM-12+088299999V02099999999992200019N0020001N1+02471+01291101021ADDGF102991021021004501001001KA1240M+03001MA1999999091521MD1999999+0021REMSYN088AAXX  18004 83339 32495 218// 10247 20129 39152 40102 82200 333 10300 29052 55103 58002;
0156833390999992010011812004-14050-042617FM-12+088299999V02099999999992200019N0100001N1+02191+01611101231ADDGF102991021021004501001001KA1240N+01741MA1999999091691MD1999999-0081REMSYN076AAXX  18124 83339 32497 209// 10219 20161 39169 40123 82200 333 20174 59008;
0137833390999992010011818004-14050-042617FM-12+088299999V02099999999992200019N0100001N1+02971+01381100811ADDGF104991041021004501001001MA1999999091391MD1999999-0141REMSYN070AAXX  18184 83339 32497 409// 10297 20138 39139 40081 84200 333 59014;
0168833390999992010011900004-14050-042617FM-12+088299999V02099999999992200019N0020001N1+02411+01521100931ADDGF102991021021004501001001KA1240M+03021MA1999999091401MD1999999-0121REMSYN088AAXX  19004 83339 32495 214// 10241 20152 39140 40093 82200 333 10302 29056 55117 59012;
0156833390999992010011912004-14050-042617FM-12+088299999V02099999999990042019N0100001N1+02231+01671101141ADDGF106991051021004501031001KA1240N+01961MA1999999091591MD1999999-0101REMSYN076AAXX  19124 83339 32497 618// 10223 20167 39159 40114 85230 333 20196 59010;
0137833390999992010011918004-14050-042617FM-12+088299999V02099999999992200019N0100001N1+03051+01531100641ADDGF103991031021004501001001MA1999999091251MD1999999-0141REMSYN070AAXX  19184 83339 32497 314// 10305 20153 39125 40064 83200 333 59014;
0178833390999992010012000004-14050-042617FM-12+088299999V02099999999992200019N0020001N1+02331+01671100801ADDGA1001+999999999GF100991001001999999001001KA1240M+03101MA1999999091281MD1999999-0121REMSYN082AAXX  20004 83339 32995 018// 10233 20167 39128 40080 333 10310 29061 55080 59012;
0166833390999992010012012004-14050-042617FM-12+088299999V02099999999992200019N0100001N1+02391+01661101001ADDGA1001+999999999GF100991001001999999001001KA1240N+01921MA1999999091481MD1999999-0111REMSYN070AAXX  20124 83339 32997 014// 10239 20166 39148 40100 333 20192 59011;
0137833390999992010012018004-14050-042617FM-12+088299999V02099999999992200019N0100001N1+03131+01211100481ADDGF102991021021004501001001MA1999999091111MD1999999-0141REMSYN070AAXX  20184 83339 32497 209// 10313 20121 39111 40048 82200 333 59014;
0178833390999992010012100004-14050-042617FM-12+088299999V02099999999992200019N0020001N1+02651+01171100611ADDGA1001+999999999GF100991001001999999001001KA1240M+03201MA1999999091191MD1999999-0091REMSYN082AAXX  21004 83339 32995 014// 10265 20117 39119 40061 333 10320 29044 55119 59009;
0156833390999992010012112004-14050-042617FM-12+088299999V02099999999992200019N0100001N1+02391+01751100911ADDGF102991011021004501021001KA1240N+01981MA1999999091451MD1999999-0031REMSYN076AAXX  21124 83339 32497 209// 10239 20175 39145 40091 81220 333 20198 59003;
0137833390999992010012118004-14050-042617FM-12+088299999V02099999999992200019N0100001N1+03171+01291100441ADDGF103991021021004501001021MA1999999091141MD1999999+0031REMSYN070AAXX  21184 83339 32497 305// 10317 20129 39114 40044 82202 333 58003;
0168833390999992010012200004-14050-042617FM-12+088299999V02099999999992200019N0020001N1+02451+01561100781ADDGF104991041021004501001001KA1240M+03261MA1999999091301MD1999999+0111REMSYN088AAXX  22004 83339 32495 418// 10245 20156 39130 40078 84200 333 10326 29054 55106 58011;
0156833390999992010012212004-14050-042617FM-12+088299999V02099999999990042019N0100001N1+02251+01861101001ADDGF106991051021004501001021KA1240N+02001MA1999999091481MD1999999+0031REMSYN076AAXX  22124 83339 32497 609// 10225 20186 39148 40100 85202 333 20200 58003;
0137833390999992010012218004-14050-042617FM-12+088299999V02099999999992200019N0100001N1+03031+01591100511ADDGF104991031021004501001041MA1999999091141MD1999999+0001REMSYN070AAXX  22184 83339 32497 405// 10303 20159 39114 40051 83204 333 58000;
0168833390999992010012300004-14050-042617FM-12+088299999V02099999999990042019N0020001N1+02231+01781100861ADDGF106991061021004501001001KA1240M+03151MA1999999091321MD1999999+0021REMSYN088AAXX  23004 83339 32495 609// 10223 20178 39132 40086 86200 333 10315 29068 55073 58002;
0156833390999992010012312004-14050-042617FM-12+088299999V02099999999990450019N0100001N1+02391+01911101011ADDGF105991041021004501031001KA1240N+02051MA1999999091471MD1999999-0011REMSYN076AAXX  23124 83339 32497 509// 10239 20191 39147 40101 84230 333 20205 59001;
0137833390999992010012318004-14050-042617FM-12+088299999V02099999999992200019N0100001N1+03091+01441100481ADDGF102991021021004501001001MA1999999091111MD1999999-0031REMSYN070AAXX  23184 83339 32497 214// 10309 20144 39111 40048 82200 333 59003;
0168833390999992010012400004-14050-042617FM-12+088299999V02099999999992200019N0020001N1+02521+01271100711ADDGF104991041021004501001001KA1240M+03161MA1999999091251MD1999999-0071REMSYN088AAXX  24004 83339 32495 409// 10252 20127 39125 40071 84200 333 10316 29050 55097 59007;
0156833390999992010012412004-14050-042617FM-12+088299999V02099999999990042019N0100001N1+02351+01851100841ADDGF105991051021004501001001KA1240N+02041MA1999999091371MD1999999-0101REMSYN076AAXX  24124 83339 32497 514// 10235 20185 39137 40084 85200 333 20204 59010;
0137833390999992010012418004-14050-042617FM-12+088299999V02099999999992200019N0100001N1+02931+01531100431ADDGF104991041021004501001001MA1999999091061MD1999999-0051REMSYN070AAXX  24184 83339 32497 409// 10293 20153 39106 40043 84200 333 59005;
0168833390999992010012500004-14050-042617FM-12+088299999V02099999999992200019N0020001N1+02571+01351100601ADDGF102991021021004501001001KA1240M+03101MA1999999091151MD1999999-0101REMSYN088AAXX  25004 83339 32495 218// 10257 20135 39115 40060 82200 333 10310 29053 55112 59010;
0156833390999992010012512004-14050-042617FM-12+088299999V02099999999990042019N0100001N1+02211+01761100871ADDGF106991051021004501021001KA1240N+01961MA1999999091381MD1999999+0011REMSYN076AAXX  25124 83339 32497 609// 10221 20176 39138 40087 85220 333 20196 58001;
0137833390999992010012518004-14050-042617FM-12+088299999V02099999999991050019N0100001N1+02931+01341100451ADDGF105991041021004501001021MA1999999091081MD1999999+0021REMSYN070AAXX  25184 83339 32497 509// 10293 20134 39108 40045 84202 333 58002;
0168833390999992010012600004-14050-042617FM-12+088299999V0209999C000010042019N0020001N1+02571+01531100571ADDGF106991061021004501001001KA1240M+03051MA1999999091111MD1999999-0041REMSYN088AAXX  26004 83339 32495 60000 10257 20153 39111 40057 86200 333 10305 29055 55099 59004;
0156833390999992010012612004-14050-042617FM-12+088299999V02099999999992200019N0100001N1+02331+01551100751ADDGF102991021011004501001001KA1240N+01961MA1999999091291MD1999999-0091REMSYN076AAXX  26124 83339 32497 209// 10233 20155 39129 40075 82100 333 20196 59009;
0137833390999992010012618004-14050-042617FM-12+088299999V02099999999992200019N0100001N1+03071+01051100331ADDGF102991021021004501001001MA1999999090991MD1999999-0091REMSYN070AAXX  26184 83339 32497 214// 10307 20105 39099 40033 82200 333 59009;
0178833390999992010012700004-14050-042617FM-12+088299999V02099999999992200019N0020001N1+02451+01141100511ADDGA1001+999999999GF100991001001999999001001KA1240M+03141MA1999999091051MD1999999-0061REMSYN082AAXX  27004 83339 32995 009// 10245 20114 39105 40051 333 10314 29045 55118 59006;
0156833390999992010012712004-14050-042617FM-12+088299999V02099999999990042019N0100001N1+02311+01631100801ADDGF106991051021004501001041KA1240N+01901MA1999999091321MD1999999+0031REMSYN076AAXX  27124 83339 32497 614// 10231 20163 39132 40080 85204 333 20190 58003;
0137833390999992010012718004-14050-042617FM-12+088299999V02099999999992200019N0100001N1+03031+01211100311ADDGF104991041021004501001001MA1999999090951MD1999999-0041REMSYN070AAXX  27184 83339 32497 418// 10303 20121 39095 40031 84200 333 59004;
0178833390999992010012800004-14050-042617FM-12+088299999V0209999C000012200019N0100001N1+02551+01261100471ADDGA1001+999999999GF100991001001999999001001KA1240M+03161MA1999999091041MD1999999-0011REMSYN082AAXX  28004 83339 32997 00000 10255 20126 39104 40047 333 10316 29047 55117 59001;
0156833390999992010012812004-14050-042617FM-12+088299999V02099999999990042019N0100001N1+02371+01731100821ADDGF106991061021004501001001KA1240N+01961MA1999999091351MD1999999+0031REMSYN076AAXX  28124 83339 32497 609// 10237 20173 39135 40082 86200 333 20196 58003;
0137833390999992010012818004-14050-042617FM-12+088299999V02099999999992200019N0100001N1+03071+01531100351ADDGF104991031021004501021001MA1999999091011MD1999999+0061REMSYN070AAXX  28184 83339 32497 409// 10307 20153 39101 40035 83220 333 58006;
0168833390999992010012900004-14050-042617FM-12+088299999V02099999999992200019N0020001N1+02631+01591100441ADDGF102991021021004501001001KA1240M+03161MA1999999091041MD1999999+0001REMSYN088AAXX  29004 83339 32495 214// 10263 20159 39104 40044 82200 333 10316 29053 55116 58000;
0156833390999992010012912004-14050-042617FM-12+088299999V02099999999990450019N0100001N1+02391+01451100721ADDGF105991041021004501021001KA1240N+01921MA1999999091291MD1999999-0061REMSYN076AAXX  29124 83339 32497 509// 10239 20145 39129 40072 84220 333 20192 59006;
0137833390999992010012918004-14050-042617FM-12+088299999V02099999999992200019N0100001N1+03071+01151100531ADDGF104991031021004501001041MA1999999091171MD1999999+0161REMSYN070AAXX  29184 83339 32497 409// 10307 20115 39117 40053 83204 333 58016;
0168833390999992010013000004-14050-042617FM-12+088299999V02099999999990042019N0020001N1+02671+01231100601ADDGF105991051021004501001001KA1240M+03141MA1999999091201MD1999999+0161REMSYN088AAXX  30004 83339 32495 518// 10267 20123 39120 40060 85200 333 10314 29042 55114 58016;
0156833390999992010013012004-14050-042617FM-12+088299999V02099999999990450019N0100001N1+02371+01611100861ADDGF105991041021004501021001KA1240N+01901MA1999999091421MD1999999+0131REMSYN076AAXX  30124 83339 32497 509// 10237 20161 39142 40086 84220 333 20190 58013;
0137833390999992010013018004-14050-042617FM-12+088299999V02099999999992200019N0100001N1+03071+01051100531ADDGF103991021021004501021001MA1999999091171MD1999999+0001REMSYN070AAXX  30184 83339 32497 314// 10307 20105 39117 40053 82220 333 58000;
0178833390999992010013100004-14050-042617FM-12+088299999V02099999999992200019N0020001N1+02591+01261100661ADDGA1001+999999999GF100991001001999999001001KA1240M+03141MA1999999091241MD1999999+0041REMSYN082AAXX  31004 83339 32995 014// 10259 20126 39124 40066 333 10314 29045 55119 58004;
0156833390999992010013112004-14050-042617FM-12+088299999V02099999999990042019N0100001N1+02271+01641100971ADDGF105991051021004501001001KA1240N+01961MA1999999091491MD1999999+0071REMSYN076AAXX  31124 83339 32497 509// 10227 20164 39149 40097 85200 333 20196 58007;
0137833390999992010013118004-14050-042617FM-12+088299999V02099999999992200019N0100001N1+03111+01281100551ADDGF103991021021004501021001MA1999999091211MD1999999+0041REMSYN070AAXX  31184 83339 32497 309// 10311 20128 39121 40055 82220 333 58004;
0168833390999992010020100004-14050-042617FM-12+088299999V02099999999992200019N0020001N1+02591+01491100691ADDGF104991041021004501001001KA1240M+03231MA1999999091241MD1999999+0001REMSYN088AAXX  01004 83339 32495 414// 10259 20149 39124 40069 84200 333 10323 29051 55109 58000;
0156833390999992010020112004-14050-042617FM-12+088299999V02099999999992200019N0100001N1+02291+01791101441ADDGF105991021011004501001011KA1240N+02001MA1999999091881MD1999999+0391REMSYN076AAXX  01124 83339 32497 514// 10229 20179 39188 40144 82101 333 20200 58039;
0137833390999992010020118004-14050-042617FM-12+088299999V02099999999992200019N0100001N1+03141+01321100831ADDGF106991021011004501001041MA1999999091511MD1999999+0301REMSYN070AAXX  01184 83339 32497 609// 10314 20132 39151 40083 82104 333 58030;
0178833390999992010020200004-14050-042617FM-12+088299999V02099999999992200019N0020001N1+02651+01561101041ADDGA1001+999999999GF100991001001999999001001KA1240M+03191MA1999999091551MD1999999+0311REMSYN082AAXX  02004 83339 32995 014// 10265 20156 39155 40104 333 10319 29052 55080 58031;
0156833390999992010020212004-14050-042617FM-12+088299999V02099999999992200019N0100001N1+02311+01701101311ADDGF104991041021004501001001KA1240N+02041MA1999999091821MD1999999-0061REMSYN076AAXX  02124 83339 32497 414// 10231 20170 39182 40131 84200 333 20204 59006;
0137833390999992010020218004-14050-042617FM-12+088299999V02099999999992200019N0100001N1+03111+01561100821ADDGF104991041011004501001001MA1999999091451MD1999999-0061REMSYN070AAXX  02184 83339 32497 409// 10311 20156 39145 40082 84100 333 59006;
0178833390999992010020300004-14050-042617FM-12+088299999V02099999999992200019N0020001N1+02521+01661101121ADDGA1001+999999999GF100991001001999999001001KA1240M+03141MA1999999091611MD1999999+0061REMSYN082AAXX  03004 83339 32995 009// 10252 20166 39161 40112 333 10314 29056 55095 58006;
0156833390999992010020312004-14050-042617FM-12+088299999V02099999999990042019N0100001N1+02211+01841101271ADDGF108991061021004501021999KA1240N+01921MA1999999091731MD1999999-0091REMSYN076AAXX  03124 83339 32497 809// 10221 20184 39173 40127 8622/ 333 20192 59009;
0137833390999992010020318004-14050-042617FM-12+088299999V02099999999990042019N0100001N1+03111+01351100771ADDGF106991061021004501001001MA1999999091391MD1999999-0061REMSYN070AAXX  03184 83339 32497 609// 10311 20135 39139 40077 86200 333 59006;
0168833390999992010020400004-14050-042617FM-12+088299999V02099999999992200019N0020001N1+02591+01711101041ADDGF102991021011004501001001KA1240M+03181MA1999999091541MD1999999-0071REMSYN088AAXX  04004 83339 32495 205// 10259 20171 39154 40104 82100 333 10318 29057 55079 59007;
0156833390999992010020412004-14050-042617FM-12+088299999V02099999999992200019N0100001N1+02251+01731101221ADDGF103991031011004501001001KA1240N+01901MA1999999091701MD1999999-0031REMSYN076AAXX  04124 83339 32497 314// 10225 20173 39170 40122 83100 333 20190 59003;
0137833390999992010020418004-14050-042617FM-12+088299999V02099999999992200019N0100001N1+03131+01271100711ADDGF102991011011004501001011MA1999999091351MD1999999-0041REMSYN070AAXX  04184 83339 32497 205// 10313 20127 39135 40071 81101 333 59004;
0178833390999992010020500004-14050-042617FM-12+088299999V02099999999992200019N0020001N1+02651+01531101001ADDGA1001+999999999GF100991001001999999001001KA1240M+03201MA1999999091521MD1999999-0021REMSYN082AAXX  05004 83339 32995 014// 10265 20153 39152 40100 333 10320 29051 55106 59002;
0156833390999992010020512004-14050-042617FM-12+088299999V02099999999990042019N0100001N1+02391+01821101191ADDGF106991061021004501001001KA1240N+02061MA1999999091711MD1999999+0011REMSYN076AAXX  05124 83339 32497 609// 10239 20182 39171 40119 86200 333 20206 58001;
0137833390999992010020518004-14050-042617FM-12+088299999V02099999999992200019N0100001N1+03131+01501100611ADDGF102991021011004501001001MA1999999091281MD1999999-0071REMSYN070AAXX  05184 83339 32497 209// 10313 20150 39128 40061 82100 333 59007;
0168833390999992010020600004-14050-042617FM-12+088299999V02099999999992200019N0020001N1+02131+01901101171ADDGF102991021021004501001001KA1240M+03201MA1999999091601MD1999999+0081REMSYN088AAXX  06004 83339 32495 214// 10213 20190 39160 40117 82200 333 10320 29070 55102 58008;
0201833390999992010020612004-14050-042617FM-12+088299999V02099999999990042019N0100001N1+01971+01811101391ADDAA124005191AY161061AY221061GF108991051021004501021999KA1240N+01801MA1999999091721MD1999999+0011MW1021REMSYN088AAXX  06124 83339 21497 814// 10197 20181 39172 40139 70262 8522/ 333 20180 58001 60054;
0137833390999992010020618004-14050-042617FM-12+088299999V02099999999990450019N0100001N1+02511+01821100961ADDGF106991041051004501021999MA1999999091411MD1999999+0131REMSYN070AAXX  06184 83339 32497 609// 10251 20182 39141 40096 8452/ 333 58013;
0178833390999992010020700004-14050-042617FM-12+088299999V02099999999992200019N0020001N1+02311+01761101081ADDGA1001+999999999GF100991001001999999001001KA1240M+02641MA1999999091471MD1999999-0131REMSYN082AAXX  07004 83339 32995 005// 10231 20176 39147 40108 333 10264 29074 55015 59013;
0156833390999992010020712004-14050-042617FM-12+088299999V02099999999990450019N0100001N1+02131+01821101261ADDGF106991041021004501031001KA1240N+01961MA1999999091651MD1999999-0071REMSYN076AAXX  07124 83339 32497 614// 10213 20182 39165 40126 84230 333 20196 59007;
0137833390999992010020718004-14050-042617FM-12+088299999V02099999999990450019N0100001N1+02771+01761100771ADDGF106991031011004501021001MA1999999091311MD1999999-0101REMSYN070AAXX  07184 83339 32497 605// 10277 20176 39131 40077 83120 333 59010;
0168833390999992010020800004-14050-042617FM-12+088299999V02099999999990450019N0020001N1+02431+01611100971ADDGF105991021011004501021001KA1240M+02811MA1999999091441MD1999999-0031REMSYN088AAXX  08004 83339 32495 518// 10243 20161 39144 40097 82120 333 10281 29064 55012 59003;
0184833390999992010020812004-14050-042617FM-12+088299999V02099999999990042019N0040001N1+02191+01821101151ADDAY101061AY201061GF107991061021004501031001KA1240N+02101MA1999999091601MD1999999-0051MW1101REMSYN082AAXX  08124 83339 31496 718// 10219 20182 39160 40115 71000 86230 333 20210 59005;
0137833390999992010020818004-14050-042617FM-12+088299999V02099999999990042019N0040001N1+02791+01761100661ADDGF107991061021004501021999MA1999999091241MD1999999-0071REMSYN070AAXX  08184 83339 32496 727// 10279 20176 39124 40066 8622/ 333 59007;
0196833390999992010020900004-14050-042617FM-12+088299999V0209999C000012200019N0020001N1+02071+01701100891ADDAY101061AY201061GF103991031021004501001001KA1240M+02921MA1999999091301MD1999999-0141MW1101REMSYN094AAXX  09004 83339 31495 30000 10207 20170 39130 40089 71000 83200 333 10292 29074 55008 59014;
0201833390999992010020912004-14050-042617FM-12+088299999V02099999999990042019N0040001N1+02091+01821101111ADDAA124000591AY161061AY261061GF106991051021004501021001KA1240N+01941MA1999999091481MD1999999-0121MW1101REMSYN088AAXX  09124 83339 21496 627// 10209 20182 39148 40111 71066 85220 333 20194 59012 69964;
0137833390999992010020918004-14050-042617FM-12+088299999V02099999999990042019N0100001N1+02891+01671100631ADDGF106991051021004501021001MA1999999091161MD1999999-0081REMSYN070AAXX  09184 83339 32497 627// 10289 20167 39116 40063 85220 333 59008;
0196833390999992010021000004-14050-042617FM-12+088299999V02099999999990042019N0020001N1+02191+01861100921ADDAY101061AY201061GF106991061021004501001001KA1240M+02961MA1999999091331MD1999999+0031MW1101REMSYN094AAXX  10004 83339 31495 627// 10219 20186 39133 40092 71000 86200 333 10296 29074 55017 58003;
0184833390999992010021012004-14050-042617FM-12+088299999V02099999999990042019N0040001N1+02071+01931101021ADDAY101061AY201061GF108991081051004501999999KA1240N+02001MA1999999091421MD1999999-0061MW1101REMSYN082AAXX  10124 83339 31496 809// 10207 20193 39142 40102 71000 885// 333 20200 59006;
0137833390999992010021018004-14050-042617FM-12+088299999V02099999999992200019N0100001N1+02911+01751100551ADDGF104991031021004501031001MA1999999091141MD1999999-0021REMSYN070AAXX  10184 83339 32497 409// 10291 20175 39114 40055 83230 333 59002;
0168833390999992010021100004-14050-042617FM-12+088299999V02099999999992200019N0020001N1+02411+01821100761ADDGF102991021021004501001001KA1240M+02961MA1999999091231MD1999999-0101REMSYN088AAXX  11004 83339 32495 209// 10241 20182 39123 40076 82200 333 10296 29070 55055 59010;
0156833390999992010021112004-14050-042617FM-12+088299999V02099999999990042019N0100001N1+02171+01681100931ADDGF106991061021004501001001KA1240N+01851MA1999999091401MD1999999-0021REMSYN076AAXX  11124 83339 32497 605// 10217 20168 39140 40093 86200 333 20185 59002;
0137833390999992010021118004-14050-042617FM-12+088299999V02099999999992200019N0100001N1+02851+01631100551ADDGF104991041021004501001001MA1999999091141MD1999999+0001REMSYN070AAXX  11184 83339 32497 405// 10285 20163 39114 40055 84200 333 58000;
0184833390999992010021212004-14050-042617FM-12+088299999V02099999999990042019N0040001N1+02051+01721101091ADDAY101061AY201061GF108991081051004501999999KA1240N+01861MA1999999091501MD1999999+0101MW1101REMSYN082AAXX  12124 83339 31496 809// 10205 20172 39150 40109 71000 885// 333 20186 58010;
0137833390999992010021218004-14050-042617FM-12+088299999V02099999999990042019N0100001N1+02451+01861100921ADDGF106991061021004501001001MA1999999091371MD1999999+0231REMSYN070AAXX  12184 83339 32497 609// 10245 20186 39137 40092 86200 333 58023;
0156833390999992010021312004-14050-042617FM-12+088299999V0201401N005712200019N0100001N1+02251+01691101211ADDGF104991041021004501001001KA1240N+01951MA1999999091641MD1999999+0141REMSYN076AAXX  13124 83339 32497 41411 10225 20169 39164 40121 84200 333 20195 58014;
0137833390999992010021318004-14050-042617FM-12+088299999V0200901N006212200019N0100001N1+02991+01471100741ADDGF103991021021004501021001MA1999999091331MD1999999-0041REMSYN070AAXX  13184 83339 32497 30912 10299 20147 39133 40074 82220 333 59004;
0156833390999992010021412004-14050-042617FM-12+088299999V0201401N006710042019N0100001N1+02231+01731101151ADDGF105991051021004501001001KA1240N+01981MA1999999091641MD1999999+0001REMSYN076AAXX  14124 83339 32497 51413 10223 20173 39164 40115 85200 333 20198 58000;
0137833390999992010021418004-14050-042617FM-12+088299999V0200501N005112200019N0100001N1+03151+01451100671ADDGF102991021021004501001001MA1999999091321MD1999999-0011REMSYN070AAXX  14184 83339 32497 20510 10315 20145 39132 40067 82200 333 59001;
0201833390999992010021512004-14050-042617FM-12+088299999V0200901N003610042019N0100001N1+02241+01941101211ADDAA124000591AY161061AY221061GF106991061021004501001001KA1240N+01981MA1999999091671MD1999999+0031MW1021REMSYN088AAXX  15124 83339 21497 60907 10224 20194 39167 40121 70262 86200 333 20198 58003 69944;
0137833390999992010021518004-14050-042617FM-12+088299999V0201401N004112200019N0100001N1+03111+01481100661ADDGF104991031021004501001011MA1999999091291MD1999999-0031REMSYN070AAXX  15184 83339 32497 41408 10311 20148 39129 40066 83201 333 59003;
0156833390999992010021612004-14050-042617FM-12+088299999V0201401N004112200019N0100001N1+02391+01771101181ADDGF102991021011004501001001KA1240N+01941MA1999999091681MD1999999+0011REMSYN076AAXX  16124 83339 32497 21408 10239 20177 39168 40118 82100 333 20194 58001;
0137833390999992010021618004-14050-042617FM-12+088299999V0201801N004112200019N0100001N1+03151+01511100651ADDGF102991021011004501001001MA1999999091301MD1999999+0011REMSYN070AAXX  16184 83339 32497 21808 10315 20151 39130 40065 82100 333 58001;
0166833390999992010021712004-14050-042617FM-12+088299999V0201401N003112200019N0100001N1+02601+01941101061ADDGA1001+999999999GF100991001001999999001001KA1240N+02101MA1999999091651MD1999999-0031REMSYN070AAXX  17124 83339 32997 01406 10260 20194 39165 40106 333 20210 59003;
0137833390999992010021718004-14050-042617FM-12+088299999V0201401N002112200019N0100001N1+03351+01361100531ADDGF103991031021004501001001MA1999999091251MD1999999-0051REMSYN070AAXX  17184 83339 32497 31404 10335 20136 39125 40053 83200 333 59005;
0156833390999992010021812004-14050-042617FM-12+088299999V0201401N004112200019N0100001N1+02541+01811101041ADDGF102991021011004501001001KA1240N+02161MA1999999091661MD1999999+0011REMSYN076AAXX  18124 83339 32497 21408 10254 20181 39166 40104 82100 333 20216 58001;
0137833390999992010021818004-14050-042617FM-12+088299999V0201801N005712200019N0100001N1+03311+01171100581ADDGF102991021011004501001001MA1999999091321MD1999999+0071REMSYN070AAXX  18184 83339 32497 21811 10331 20117 39132 40058 82100 333 58007;
0178833390999992010021900004-14050-042617FM-12+088299999V0201401N003112200019N0020001N1+02821+01331100891ADDGA1001+999999999GF100991001001999999001001KA1240M+03401MA1999999091521MD1999999+0171REMSYN082AAXX  19004 83339 32995 01406 10282 20133 39152 40089 333 10340 29043 55117 58017;
0156833390999992010021912004-14050-042617FM-12+088299999V0201401N005112200019N0100001N1+02361+01781101341ADDGF105991021011004501001041KA1240N+02151MA1999999091891MD1999999+0231REMSYN076AAXX  19124 83339 32497 51410 10236 20178 39189 40134 82104 333 20215 58023;
0137833390999992010021918004-14050-042617FM-12+088299999V0200501N003612200019N0100001N1+03291+01171100801ADDGF106991021011004501001041MA1999999091521MD1999999+0201REMSYN070AAXX  19184 83339 32497 60507 10329 20117 39152 40080 82104 333 58020;
0168833390999992010022000004-14050-042617FM-12+088299999V0201401N006212200019N0020001N1+02751+01281101111ADDGF102991021011004501001001KA1240M+03371MA1999999091661MD1999999+0141REMSYN088AAXX  20004 83339 32495 21412 10275 20128 39166 40111 82100 333 10337 29045 55062 58014;
0156833390999992010022012004-14050-042617FM-12+088299999V0200901N007712200019N0100001N1+02531+01711101211ADDGF105991021011004501001041KA1240N+02041MA1999999091791MD1999999-0101REMSYN076AAXX  20124 83339 32497 50915 10253 20171 39179 40121 82104 333 20204 59010;
0137833390999992010022018004-14050-042617FM-12+088299999V0200901N006712200019N0100001N1+02951+01531100841ADDGF106991021011004501001041MA1999999091471MD1999999-0051REMSYN070AAXX  20184 83339 32497 60913 10295 20153 39147 40084 82104 333 59005;
0178833390999992010022100004-14050-042617FM-12+088299999V0201401N004612200019N0020001N1+02491+01621101021ADDGA1001+999999999GF100991001001999999001001KA1240M+03001MA1999999091551MD1999999-0111REMSYN082AAXX  21004 83339 32995 01409 10249 20162 39155 40102 333 10300 29055 55055 59011;
0156833390999992010022112004-14050-042617FM-12+088299999V0200901N006210042019N0100001N1+02281+01771101201ADDGF106991061021004501001001KA1240N+01981MA1999999091681MD1999999-0111REMSYN076AAXX  21124 83339 32497 60912 10228 20177 39168 40120 86200 333 20198 59011;
0137833390999992010022118004-14050-042617FM-12+088299999V0201401N003110450019N0100001N1+02811+01581100781ADDGF108991021011004501021999MA1999999091361MD1999999-0111REMSYN070AAXX  21184 83339 32497 81406 10281 20158 39136 40078 8212/ 333 59011;
0168833390999992010022200004-14050-042617FM-12+088299999V0201401N001012200019N0020001N1+02511+01521100971ADDGF104991021011004501031001KA1240M+02861MA1999999091471MD1999999-0081REMSYN088AAXX  22004 83339 32495 41402 10251 20152 39147 40097 82130 333 10286 29057 55012 59008;
0156833390999992010022212004-14050-042617FM-12+088299999V0201401N003112200019N0100001N1+02431+01841101161ADDGF104991041021004501001001KA1240N+02321MA1999999091661MD1999999-0021REMSYN076AAXX  22124 83339 32497 41406 10243 20184 39166 40116 84200 333 20232 59002;
0137833390999992010022218004-14050-042617FM-12+088299999V0200501N002610042019N0100001N1+03111+01371100571ADDGF106991061021004501001001MA1999999091231MD1999999-0131REMSYN070AAXX  22184 83339 32497 60505 10311 20137 39123 40057 86200 333 59013;
0213833390999992010022300004-14050-042617FM-12+088299999V0201401N005110042019N0020001N1+02051+01831101071ADDAA106001091AY161061AY261061GF107991061021004501021999KA1240M+03291MA1999999091511MD1999999+0041MW1131REMSYN100AAXX  23004 83339 21495 71410 10205 20183 39151 40107 71366 8622/ 333 10329 29070 55074 58004 60011;
0201833390999992010022312004-14050-042617FM-12+088299999V0209999C000010042019N0040001N1+02031+01831101351ADDAA124005191AY161061AY261061GF108991081051004501999999KA1240N+01931MA1999999091681MD1999999+0021MW1101REMSYN088AAXX  23124 83339 21496 80000 10203 20183 39168 40135 71066 885// 333 20193 58002 60054;
0137833390999992010022318004-14050-042617FM-12+088299999V0201401N003610042019N0100001N1+02491+01871100921ADDGF106991051021004501031001MA1999999091371MD1999999+0141REMSYN070AAXX  23184 83339 32497 61407 10249 20187 39137 40092 85230 333 58014;
0168833390999992010022400004-14050-042617FM-12+088299999V0202701N001012200019N0020001N1+02151+01501101081ADDGF103991031021004501001001KA1240M+02521MA1999999091451MD1999999-0061REMSYN088AAXX  24004 83339 32495 32702 10215 20150 39145 40108 83200 333 10252 29073 55019 59006;
0156833390999992010022412004-14050-042617FM-12+088299999V0201401N003112200019N0100001N1+02451+01971101141ADDGF102991021011004501001001KA1240N+01881MA1999999091591MD1999999-0091REMSYN076AAXX  24124 83339 32497 21406 10245 20197 39159 40114 82100 333 20188 59009;
0137833390999992010022418004-14050-042617FM-12+088299999V0203201N004610042019N0100001N1+03071+01661100631ADDGF105991051021004501001001MA1999999091231MD1999999-0141REMSYN070AAXX  24184 83339 32497 53209 10307 20166 39123 40063 85200 333 59014;
0178833390999992010022500004-14050-042617FM-12+088299999V0202701N001012200019N0020001N1+02311+01461100861ADDGA1001+999999999GF100991001001999999001001KA1240M+03181MA1999999091371MD1999999-0081REMSYN082AAXX  25004 83339 32995 02702 10231 20146 39137 40086 333 10318 29059 55085 59008;
0166833390999992010022512004-14050-042617FM-12+088299999V0200901N003112200019N0100001N1+02491+01701101031ADDGA1001+999999999GF100991001001999999001001KA1240N+01881MA1999999091531MD1999999-0061REMSYN070AAXX  25124 83339 32997 00906 10249 20170 39153 40103 333 20188 59006;
0137833390999992010022518004-14050-042617FM-12+088299999V0200501N001512200019N0100001N1+03231+01241100791ADDGF104991041021004501001001MA1999999091141MD1999999-0091REMSYN070AAXX  25184 83339 32497 40503 10323 20124 39114 40079 84200 333 59009;
0168833390999992010022600004-14050-042617FM-12+088299999V0209999C000012200019N0020001N1+02651+01601100671ADDGF102991011021004501001021KA1240M+03371MA1999999091261MD1999999-0111REMSYN088AAXX  26004 83339 32495 20000 10265 20160 39126 40067 81202 333 10337 29050 55106 59011;
0156833390999992010022612004-14050-042617FM-12+088299999V0203201N000510042019N0100001N1+02571+01781100881ADDGF106991051021004501001021KA1240N+02061MA1999999091471MD1999999-0061REMSYN076AAXX  26124 83339 32497 63201 10257 20178 39147 40088 85202 333 20206 59006;
0182833390999992010022618004-14050-042617FM-12+088299999V0202301N002110042019N0100001N1+02551+01881100521ADDAA106006191AY161061AY261061GF105991051021004501001001MA1999999091081MD1999999-0061MW1021REMSYN082AAXX  26184 83339 21497 52304 10255 20188 39108 40052 70266 85200 333 59006 60061;
0196833390999992010022700004-14050-042617FM-12+088299999V0202701N001512200019N0020001N1+02511+01721100771ADDAY101061AY201061GF103991021021004501031001KA1240M+03311MA1999999091351MD1999999-0091MW1131REMSYN094AAXX  27004 83339 31495 32703 10251 20172 39135 40077 71300 82230 333 10331 29063 55071 59009;
0201833390999992010022712004-14050-042617FM-12+088299999V0201401N003610042019N0100001N1+02271+01921101031ADDAA124006191AY161061AY261061GF106991051021004501031001KA1240N+02101MA1999999091531MD1999999+0061MW1101REMSYN088AAXX  27124 83339 21497 61407 10227 20192 39153 40103 71066 85230 333 20210 58006 60064;
0137833390999992010022718004-14050-042617FM-12+088299999V0201401N003110042019N0100001N1+03071+01731100511ADDGF105991051021004501001001MA1999999091171MD1999999+0091REMSYN070AAXX  27184 83339 32497 51406 10307 20173 39117 40051 85200 333 58009;
0213833390999992010022800004-14050-042617FM-12+088299999V0202301N002610042019N0020001N1+02391+01951100951ADDAA106000591AY161061AY261061GF106991061021004501001001KA1240M+03161MA1999999091441MD1999999+0091MW1021REMSYN100AAXX  28004 83339 21495 62305 10239 20195 39144 40095 70266 86200 333 10316 29070 55067 58009 69961;
0201833390999992010022812004-14050-042617FM-12+088299999V0201401N003110042019N0040001N1+02171+01841101211ADDAA124000891AY161061AY261061GF106991051021004501021001KA1240N+02041MA1999999091651MD1999999+0121MW1101REMSYN088AAXX  28124 83339 21496 61406 10217 20184 39165 40121 71066 85220 333 20204 58012 69984;
0137833390999992010022818004-14050-042617FM-12+088299999V0200501N004110042019N0100001N1+03091+01781100671ADDGF105991051021004501001001MA1999999091271MD1999999+0101REMSYN070AAXX  28184 83339 32497 50508 10309 20178 39127 40067 85200 333 58010;
0168833390999992010030100004-14050-042617FM-12+088299999V0202301N002110042019N0020001N1+02371+01891100991ADDGF106991061021004501001001KA1240M+03121MA1999999091441MD1999999+0001REMSYN088AAXX  01004 83339 32495 62304 10237 20189 39144 40099 86200 333 10312 29070 55056 58000;
0201833390999992010030112004-14050-042617FM-12+088299999V0200901N000510042019N0040001N1+02191+01971101191ADDAA124000591AY161061AY261061GF108991081051004501999999KA1240N+02161MA1999999091641MD1999999-0011MW1101REMSYN088AAXX  01124 83339 21496 80901 10219 20197 39164 40119 71066 885// 333 20216 59001 69964;
0182833390999992010030118004-14050-042617FM-12+088299999V0209999C000010042019N0020001N1+02261+02091101011ADDAA106010991AY161061AY241061GF108991061021004501021999MA1999999091451MD1999999+0181MW1161REMSYN082AAXX  01184 83339 21495 80000 10226 20209 39145 40101 71664 8622/ 333 58018 60111;
0213833390999992010030200004-14050-042617FM-12+088299999V0201801N000510450019N0020001N1+02261+01841101151ADDAA106001091AY161061AY261061GF106991041021004501031001KA1240M+02761MA1999999091581MD1999999+0141MW1021REMSYN100AAXX  02004 83339 21495 61801 10226 20184 39158 40115 70266 84230 333 10276 29083 55005 58014 60011;
0201833390999992010030212004-14050-042617FM-12+088299999V0200501N001010450019N0100001N1+02341+02031101231ADDAA124011991AY161061AY221061GF106991011011004501031001KA1240N+02081MA1999999091671MD1999999+0031MW1021REMSYN088AAXX  02124 83339 21497 60502 10234 20203 39167 40123 70262 81130 333 20208 58003 60124;
0137833390999992010030218004-14050-042617FM-12+088299999V0202301N004112200019N0100001N1+03021+01801100671ADDGF105991031021004501001011MA1999999091281MD1999999-0171REMSYN070AAXX  02184 83339 32497 52308 10302 20180 39128 40067 83201 333 59017;
0168833390999992010030300004-14050-042617FM-12+088299999V0201401N001510042019N0020001N1+02471+01961101011ADDGF108991051021004501021999KA1240M+03101MA1999999091511MD1999999-0071REMSYN088AAXX  03004 83339 32495 81403 10247 20196 39151 40101 8522/ 333 10310 29069 55032 59007;
0156833390999992010030312004-14050-042617FM-12+088299999V0201401N001010042019N0100001N1+02351+02111101251ADDGF108991061021004501021999KA1240N+02201MA1999999091731MD1999999+0061REMSYN076AAXX  03124 83339 32497 81402 10235 20211 39173 40125 8622/ 333 20220 58006;
0182833390999992010030318004-14050-042617FM-12+088299999V0202301N001510450019N0100001N1+02631+02141100821ADDAA106002091AY161061AY221061GF108991041021004501021999MA1999999091381MD1999999+0101MW1021REMSYN082AAXX  03184 83339 21497 82303 10263 20214 39138 40082 70262 8422/ 333 58010 60021;
0232833390999992010030400004-14050-042617FM-12+088299999V0201401N001010042019N0020001N1+02151+02021101261ADDAA106000091AY161061AY221061GF108991051021004501021999KA1240M+02661MA1999999091671MD1999999+0161MW1021REMSYN100AAXX  04004 83339 21495 81402 10215 20202 39167 40126 70262 8522/ 333 10266 29086 55001 58016 69921;EQDQ01  00002PRCP06
0201833390999992010030412004-14050-042617FM-12+088299999V0200501N001510042019N0100001N1+02181+02011101261ADDAA124002091AY161061AY241061GF106991061021004501001001KA1240N+02071MA1999999091641MD1999999-0091MW1021REMSYN088AAXX  04124 83339 21497 60503 10218 20201 39164 40126 70264 86200 333 20207 59009 60024;
0182833390999992010030418004-14050-042617FM-12+088299999V0201401N003110042019N0100001N1+02311+02161100841ADDAA106003091AY161061AY221061GF106991051021004501021001MA1999999091271MD1999999-0111MW1401REMSYN082AAXX  04184 83339 21497 61406 10231 20216 39127 40084 74062 85220 333 59011 60031;
0201833390999992010030512004-14050-042617FM-12+088299999V0203201N001510450019N0100001N1+02111+01951101111ADDAA124087191AY191061AY261061GF108991041051004501021999KA1240N+02041MA1999999091521MD1999999-0121MW1021REMSYN088AAXX  05124 83339 21497 83203 10211 20195 39152 40111 70296 8452/ 333 20204 59012 60874;
0182833390999992010030518004-14050-042617FM-12+088299999V0202301N004610450019N0100001N1+02391+02111100591ADDAA106000591AY161061AY221061GF106991041021004501031011MA1999999091161MD1999999-0111MW1021REMSYN082AAXX  05184 83339 21497 62309 10239 20211 39116 40059 70262 84231 333 59011 69941;
0213833390999992010030600004-14050-042617FM-12+088299999V0202301N003110042019N0020001N1+02071+01981100921ADDAA106019191AY121061AY221061GF108991061021004501021999KA1240M+02721MA1999999091331MD1999999-0111MW1601REMSYN100AAXX  06004 83339 21495 82306 10207 20198 39133 40092 76022 8622/ 333 10272 29091 55024 59011 60191;
0201833390999992010030612004-14050-042617FM-12+088299999V0203201N003110042019N0100001N1+02211+02031100861ADDAA124026991AY161061AY261061GF108991061021004501021999KA1240N+02061MA1999999091271MD1999999-0251MW1021REMSYN088AAXX  06124 83339 21497 83206 10221 20203 39127 40086 70266 8622/ 333 20206 59025 60274;
0182833390999992010030618004-14050-042617FM-12+088299999V0202701N003110450019N0100001N1+02581+02191100391ADDAA106005191AY161061AY221061GF106991041021004501031011MA1999999090931MD1999999-0231MW1021REMSYN082AAXX  06184 83339 21497 62706 10258 20219 39093 40039 70262 84231 333 59023 60051;
0232833390999992010030700004-14050-042617FM-12+088299999V0203201N001010042019N0020001N1+02231+02141100751ADDAA106000091AY161061AY221061GF106991061021004501001001KA1240M+02721MA1999999091191MD1999999-0141MW1401REMSYN100AAXX  07004 83339 21495 63202 10223 20214 39119 40075 74062 86200 333 10272 29089 55014 59014 69921;EQDQ01  00002PRCP06
0201833390999992010030712004-14050-042617FM-12+088299999V0203201N003610042019N0100001N1+02241+02051100921ADDAA124007191AY161061AY241061GF108991051021004501021999KA1240N+02111MA1999999091371MD1999999+0101MW1021REMSYN088AAXX  07124 83339 21497 83207 10224 20205 39137 40092 70264 8522/ 333 20211 58010 60074;
0137833390999992010030718004-14050-042617FM-12+088299999V0202701N005112200019N0100001N1+02821+02071100461ADDGF103991031021004501001001MA1999999091051MD1999999+0121REMSYN070AAXX  07184 83339 32497 32710 10282 20207 39105 40046 83200 333 58012;
0232833390999992010030800004-14050-042617FM-12+088299999V0202701N003610042019N0020001N1+02261+02091100861ADDAA106000091AY161061AY221061GF108991051021004501021999KA1240M+02861MA1999999091321MD1999999+0131MW1021REMSYN100AAXX  08004 83339 21495 82707 10226 20209 39132 40086 70262 8522/ 333 10286 29083 55048 58013 69921;EQDQ01  00002PRCP06
0201833390999992010030812004-14050-042617FM-12+088299999V0203201N001010042019N0040001N1+02231+02081101121ADDAA124014091AY161061AY261061GF107991061021004501021999KA1240N+01941MA1999999091551MD1999999+0181MW1101REMSYN088AAXX  08124 83339 21496 73202 10223 20208 39155 40112 71066 8622/ 333 20194 58018 60144;
0137833390999992010030818004-14050-042617FM-12+088299999V0203201N004112200019N0100001N1+02931+01921100691ADDGF104991041021004501001001MA1999999091241MD1999999+0191REMSYN070AAXX  08184 83339 32497 43208 10293 20192 39124 40069 84200 333 58019;
0196833390999992010030900004-14050-042617FM-12+088299999V0203201N001510042019N0020001N1+02371+01891101011ADDAY101061AY201061GF106991061021004501001001KA1240M+02981MA1999999091471MD1999999+0151MW1131REMSYN094AAXX  09004 83339 31495 63203 10237 20189 39147 40101 71300 86200 333 10298 29074 55074 58015;
0201833390999992010030912004-14050-042617FM-12+088299999V0200901N000510042019N0040001N1+02271+02111101211ADDAA124000591AY161061AY261061GF108991081051004501999999KA1240N+02121MA1999999091651MD1999999+0101MW1101REMSYN088AAXX  09124 83339 21496 80901 10227 20211 39165 40121 71066 885// 333 20212 58010 69944;
0182833390999992010030918004-14050-042617FM-12+088299999V0209999C000010042019N0040001N1+02191+02031100981ADDAA106003091AY191061AY261061GF108991081051004501999999MA1999999091401MD1999999+0161MW1101REMSYN082AAXX  09184 83339 21496 80000 10219 20203 39140 40098 71096 885// 333 58016 60031;
0215833390999992010031000004-14050-042617FM-12+088299999V0202701N000519999999N0020001N1+02151+01861101131ADDAY101061AY201061GF105991999021004501001001KA1240M+02481MA1999999091541MD1999999+0071MW1101REMSYN094AAXX  10004 83339 31495 52701 10215 20186 39154 40113 71000 86200 333 10248 29088 55000 58007;EQDQ01+000062SCOTLC
0201833390999992010031012004-14050-042617FM-12+088299999V0202701N001512200019N0100001N1+02591+01821101011ADDAA124003091AY161061AY261061GF102991011021004501001021KA1240N+02101MA1999999091491MD1999999-0161MW1021REMSYN088AAXX  10124 83339 21497 22703 10259 20182 39149 40101 70266 81202 333 20210 59016 60034;
0137833390999992010031018004-14050-042617FM-12+088299999V0202701N003112200019N0100001N1+03131+01791100511ADDGF104991031021004501021001MA1999999091141MD1999999-0261REMSYN070AAXX  10184 83339 32497 42706 10313 20179 39114 40051 83220 333 59026;
0196833390999992010031100004-14050-042617FM-12+088299999V0209999C000012200019N0020001N1+02391+01951100801ADDAY191061AY201061GF102991021021004501001001KA1240M+03181MA1999999091361MD1999999-0181MW1021REMSYN094AAXX  11004 83339 31495 20000 10239 20195 39136 40080 70290 82200 333 10318 29066 55111 59018;
0156833390999992010031112004-14050-042617FM-12+088299999V0203601N001512200019N0100001N1+02651+01901100851ADDGF104991031021004501021001KA1240N+02201MA1999999091411MD1999999-0081REMSYN076AAXX  11124 83339 32497 43603 10265 20190 39141 40085 83220 333 20220 59008;
0137833390999992010031118004-14050-042617FM-12+088299999V0202701N004110450019N0100001N1+03091+01891100421ADDGF105991041021004501031001MA1999999091091MD1999999-0051REMSYN070AAXX  11184 83339 32497 52708 10309 20189 39109 40042 84230 333 59005;
0168833390999992010031200004-14050-042617FM-12+088299999V0202301N004612200019N0020001N1+02591+01941100651ADDGF102991021021004501001001KA1240M+03181MA1999999091261MD1999999-0101REMSYN088AAXX  12004 83339 32495 22309 10259 20194 39126 40065 82200 333 10318 29063 55089 59010;
0156833390999992010031212004-14050-042617FM-12+088299999V0200901N002110042019N0100001N1+02651+02031100901ADDGF106991051021004501021001KA1240N+02181MA1999999091491MD1999999+0081REMSYN076AAXX  12124 83339 32497 60904 10265 20203 39149 40090 85220 333 20218 58008;
0182833390999992010031218004-14050-042617FM-12+088299999V0201801N001510042019N0100001N1+02271+01641100741ADDAA106007991AY191061AY261061GF106991051021004501031001MA1999999091231MD1999999+0141MW1021REMSYN082AAXX  12184 83339 21497 61803 10227 20164 39123 40074 70296 85230 333 58014 60081;
0168833390999992010031300004-14050-042617FM-12+088299999V0202701N000512200019N0020001N1+02371+01951100941ADDGF103991031021004501001001KA1240M+02941MA1999999091481MD1999999+0221REMSYN088AAXX  13004 83339 32495 32701 10237 20195 39148 40094 83200 333 10294 29073 55064 58022;
0201833390999992010031312004-14050-042617FM-12+088299999V0200501N002612200019N0100001N1+02491+02051101041ADDAA124007991AY161061AY261061GF103991021021004501031001KA1240N+02061MA1999999091551MD1999999+0061MW1021REMSYN088AAXX  13124 83339 21497 30505 10249 20205 39155 40104 70266 82230 333 20206 58006 60084;
0137833390999992010031318004-14050-042617FM-12+088299999V0201401N004612200019N0100001N1+03051+01781100661ADDGF103991031021004501001001MA1999999091291MD1999999+0061REMSYN070AAXX  13184 83339 32497 31409 10305 20178 39129 40066 83200 333 58006;
0168833390999992010031400004-14050-042617FM-12+088299999V0201801N004612200019N0020001N1+02571+01801100931ADDGF102991021021004501001001KA1240M+03081MA1999999091501MD1999999+0021REMSYN088AAXX  14004 83339 32495 21809 10257 20180 39150 40093 82200 333 10308 29062 55099 58002;
0156833390999992010031412004-14050-042617FM-12+088299999V0201401N005110042019N0100001N1+02271+01861101231ADDGF105991051021004501001001KA1240N+02001MA1999999091711MD1999999+0161REMSYN076AAXX  14124 83339 32497 51410 10227 20186 39171 40123 85200 333 20200 58016;
0137833390999992010031418004-14050-042617FM-12+088299999V0201401N004612200019N0100001N1+02871+01751100881ADDGF103991021021004501001041MA1999999091451MD1999999+0161REMSYN070AAXX  14184 83339 32497 31409 10287 20175 39145 40088 82204 333 58016;
0178833390999992010031500004-14050-042617FM-12+088299999V0201401N005112200019N0020001N1+02471+01681101101ADDGA1001+999999999GF100991001001999999001001KA1240M+02981MA1999999091571MD1999999+0071REMSYN082AAXX  15004 83339 32995 01410 10247 20168 39157 40110 333 10298 29063 55113 58007;
0156833390999992010031512004-14050-042617FM-12+088299999V0201401N002612200019N0100001N1+02351+01951101361ADDGF103991031021004501001001KA1240N+01921MA1999999091831MD1999999+0121REMSYN076AAXX  15124 83339 32497 31405 10235 20195 39183 40136 83200 333 20192 58012;
0137833390999992010031518004-14050-042617FM-12+088299999V0201401N002612200019N0100001N1+02871+01781100941ADDGF104991041021004501001001MA1999999091511MD1999999+0061REMSYN070AAXX  15184 83339 32497 41405 10287 20178 39151 40094 84200 333 58006;
0178833390999992010031600004-14050-042617FM-12+088299999V0201401N002612200019N0020001N1+02431+01691101071ADDGA1001+999999999GF100991001001999999001001KA1240M+02961MA1999999091561MD1999999-0011REMSYN082AAXX  16004 83339 32995 01405 10243 20169 39156 40107 333 10296 29064 55113 59001;
0156833390999992010031612004-14050-042617FM-12+088299999V0201401N007712200019N0100001N1+02251+01861101261ADDGF102991021011004501001001KA1240N+01961MA1999999091701MD1999999-0131REMSYN076AAXX  16124 83339 32497 21415 10225 20186 39170 40126 82100 333 20196 59013;
0137833390999992010031618004-14050-042617FM-12+088299999V0201401N003612200019N0100001N1+02771+01641100921ADDGF102991021011004501001001MA1999999091461MD1999999-0051REMSYN070AAXX  16184 83339 32497 21407 10277 20164 39146 40092 82100 333 59005;
0178833390999992010031700004-14050-042617FM-12+088299999V0201401N004612200019N0020001N1+02411+01591101111ADDGA1001+999999999GF100991001001999999001001KA1240M+02821MA1999999091581MD1999999+0021REMSYN082AAXX  17004 83339 32995 01409 10241 20159 39158 40111 333 10282 29062 55113 58002;
0156833390999992010031712004-14050-042617FM-12+088299999V0201401N005110042019N0100001N1+02111+01821101381ADDGF106991061021004501001001KA1240N+01941MA1999999091781MD1999999+0081REMSYN076AAXX  17124 83339 32497 61410 10211 20182 39178 40138 86200 333 20194 58008;
0137833390999992010031718004-14050-042617FM-12+088299999V0200901N005712200019N0100001N1+02791+01691100931ADDGF102991021011004501001001MA1999999091471MD1999999+0011REMSYN070AAXX  17184 83339 32497 20911 10279 20169 39147 40093 82100 333 58001;
0178833390999992010031800004-14050-042617FM-12+088299999V0201401N006712200019N0020001N1+02431+01791101171ADDGA1001+999999999GF100991001001999999001001KA1240M+02821MA1999999091601MD1999999+0021REMSYN082AAXX  18004 83339 32995 01413 10243 20179 39160 40117 333 10282 29067 55098 58002;
0156833390999992010031812004-14050-042617FM-12+088299999V0201401N004610042019N0100001N1+02211+01761101381ADDGF106991061021004501001001KA1240N+02041MA1999999091811MD1999999+0031REMSYN076AAXX  18124 83339 32497 61409 10221 20176 39181 40138 86200 333 20204 58003;
0137833390999992010031818004-14050-042617FM-12+088299999V0200501N005112200019N0100001N1+02891+01721100911ADDGF102991011011004501001011MA1999999091481MD1999999+0011REMSYN070AAXX  18184 83339 32497 20510 10289 20172 39148 40091 81101 333 58001;
0178833390999992010031900004-14050-042617FM-12+088299999V0201401N003612200019N0020001N1+02451+01831101211ADDGA1001+999999999GF100991001001999999001001KA1240M+02941MA1999999091671MD1999999+0071REMSYN082AAXX  19004 83339 32995 01407 10245 20183 39167 40121 333 10294 29065 55092 58007;
0156833390999992010031912004-14050-042617FM-12+088299999V0201401N003110042019N0100001N1+02231+01961101381ADDGF106991061021004501001001KA1240N+02041MA1999999091831MD1999999+0021REMSYN076AAXX  19124 83339 32497 61406 10223 20196 39183 40138 86200 333 20204 58002;
0137833390999992010031918004-14050-042617FM-12+088299999V0200901N003110450019N0100001N1+02771+01881100971ADDGF106991041021004501021011MA1999999091511MD1999999+0031REMSYN070AAXX  19184 83339 32497 60906 10277 20188 39151 40097 84221 333 58003;
0168833390999992010032000004-14050-042617FM-12+088299999V0202301N001010042019N0020001N1+02371+01871101181ADDGF108991051021004501021999KA1240M+02821MA1999999091631MD1999999-0041REMSYN088AAXX  20004 83339 32495 82302 10237 20187 39163 40118 8522/ 333 10282 29072 55059 59004;
0156833390999992010032012004-14050-042617FM-12+088299999V0201401N003112200019N0100001N1+02391+01931101261ADDGF102991021021004501001001KA1240N+01971MA1999999091741MD1999999-0091REMSYN076AAXX  20124 83339 32497 21406 10239 20193 39174 40126 82200 333 20197 59009;
0182833390999992010032018004-14050-042617FM-12+088299999V0203201N002610042019N0100001N1+02511+01911100821ADDAA106018091AY191061AY261061GF106991051021004501001011MA1999999091321MD1999999-0191MW1021REMSYN082AAXX  20184 83339 21497 63205 10251 20191 39132 40082 70296 85201 333 59019 60181;
0232833390999992010032100004-14050-042617FM-12+088299999V0209999C000010042019N0020001N1+02111+01951101071ADDAA106000091AY161061AY221061GF106991061021004501001001KA1240M+02921MA1999999091511MD1999999-0121MW1021REMSYN100AAXX  21004 83339 21495 60000 10211 20195 39151 40107 70262 86200 333 10292 29081 55068 59012 69921;EQDQ01  00002PRCP06
0201833390999992010032112004-14050-042617FM-12+088299999V0203201N001510042019N0100001N1+02351+01991101141ADDAA124018091AY161061AY221061GF105991051021004501001001KA1240N+01841MA1999999091571MD1999999-0171MW1021REMSYN088AAXX  21124 83339 21497 53203 10235 20199 39157 40114 70262 85200 333 20184 59017 60184;
0137833390999992010032118004-14050-042617FM-12+088299999V0203201N001510042019N0100001N1+02791+02031100601ADDGF106991061021004501001001MA1999999091141MD1999999-0181REMSYN070AAXX  21184 83339 32497 63203 10279 20203 39114 40060 86200 333 59018;
0178833390999992010032200004-14050-042617FM-12+088299999V0209999C000012200019N0020001N1+02351+02011100891ADDGA1001+999999999GF100991001001999999001001KA1240M+02941MA1999999091381MD1999999-0131REMSYN082AAXX  22004 83339 32995 00000 10235 20201 39138 40089 333 10294 29076 55067 59013;
0184833390999992010032212004-14050-042617FM-12+088299999V0203201N004610042019N0040001N1+02231+01991101191ADDAY101061AY201061GF108991081051004501999999KA1240N+02101MA1999999091341MD1999999+0071MW1101REMSYN082AAXX  22124 83339 31496 83209 10223 20199 39134 40119 71000 885// 333 20210 58007;
0137833390999992010032218004-14050-042617FM-12+088299999V0202701N001010042019N0040001N1+02451+01971100891ADDGF107991061021004501021999MA1999999091381MD1999999+0241REMSYN070AAXX  22184 83339 32496 72702 10245 20197 39138 40089 8622/ 333 58024;
0196833390999992010032300004-14050-042617FM-12+088299999V0209999C000010042019N0020001N1+02231+02011101091ADDAY101061AY201061GF106991061021004501001001KA1240M+02541MA1999999091531MD1999999+0151MW1101REMSYN094AAXX  23004 83339 31495 60000 10223 20201 39153 40109 71000 86200 333 10254 29084 55001 58015;
0184833390999992010032312004-14050-042617FM-12+088299999V0201401N003110042019N0040001N1+02211+02051101241ADDAY101061AY201061GF108991081051004501999999KA1240N+02121MA1999999091641MD1999999+0001MW1101REMSYN082AAXX  23124 83339 31496 81406 10221 20205 39164 40124 71000 885// 333 20212 58000;
0182833390999992010032318004-14050-042617FM-12+088299999V0202301N003110042019N0100001N1+02691+02041100741ADDAA106002091AY161061AY261061GF106991051021004501021001MA1999999091281MD1999999-0101MW1021REMSYN082AAXX  23184 83339 21497 62306 10269 20204 39128 40074 70266 85220 333 59010 60021;
0213833390999992010032400004-14050-042617FM-12+088299999V0202701N001510042019N0020001N1+02151+02041101081ADDAA106025991AY191061AY261061GF108991081051004501999999KA1240M+02781MA1999999091491MD1999999-0041MW1101REMSYN100AAXX  24004 83339 21495 82703 10215 20204 39149 40108 71096 885// 333 10278 29087 55025 59004 60261;
0201833390999992010032412004-14050-042617FM-12+088299999V0201401N003110042019N0040001N1+02131+01911101341ADDAA124031091AY161061AY261061GF108991061021004501031001KA1240N+01961MA1999999091711MD1999999+0071MW1101REMSYN088AAXX  24124 83339 21496 81406 10213 20191 39171 40134 71066 86230 333 20196 58007 60314;
0137833390999992010032418004-14050-042617FM-12+088299999V0201401N003112200019N0100001N1+02671+01851100881ADDGF103991031021004501001001MA1999999091371MD1999999+0091REMSYN070AAXX  24184 83339 32497 31406 10267 20185 39137 40088 83200 333 58009;
0178833390999992010032500004-14050-042617FM-12+088299999V0201401N003112200019N0020001N1+02211+01631101091ADDGA1001+999999999GF100991001001999999001001KA1240M+02721MA1999999091481MD1999999-0011REMSYN082AAXX  25004 83339 32995 01406 10221 20163 39148 40109 333 10272 29072 55079 59001;
0156833390999992010032512004-14050-042617FM-12+088299999V0201401N004610042019N0100001N1+02111+01701101331ADDGF106991061021004501001001KA1240N+01861MA1999999091701MD1999999-0011REMSYN076AAXX  25124 83339 32497 61409 10211 20170 39170 40133 86200 333 20186 59001;
0137833390999992010032518004-14050-042617FM-12+088299999V0201401N002112200019N0100001N1+02691+01781100971ADDGF104991041021004501001001MA1999999091451MD1999999+0081REMSYN070AAXX  25184 83339 32497 41404 10269 20178 39145 40097 84200 333 58008;
0196833390999992010032600004-14050-042617FM-12+088299999V0201401N006212200019N0020001N1+02171+01821101131ADDAY101061AY201061GF102991021021004501001001KA1240M+02761MA1999999091521MD1999999+0041MW1101REMSYN094AAXX  26004 83339 31495 21412 10217 20182 39152 40113 71000 82200 333 10276 29049 55087 58004;
0184833390999992010032612004-14050-042617FM-12+088299999V0201401N007710042019N0040001N1+02071+01871101311ADDAY101061AY201061GF107991061021004501021999KA1240N+01881MA1999999091661MD1999999-0041MW1101REMSYN082AAXX  26124 83339 31496 71415 10207 20187 39166 40131 71000 8622/ 333 20188 59004;
0137833390999992010032618004-14050-042617FM-12+088299999V0201401N003112200019N0100001N1+02751+01731100851ADDGF103991031021004501001001MA1999999091361MD1999999-0091REMSYN070AAXX  26184 83339 32497 31406 10275 20173 39136 40085 83200 333 59009;
0213833390999992010032700004-14050-042617FM-12+088299999V0201401N006710042019N0020001N1+01951+01751101231ADDAA106002091AY191061AY261061GF106991051021004501021001KA1240M+02801MA1999999091551MD1999999+0031MW1101REMSYN100AAXX  27004 83339 21495 61413 10195 20175 39155 40123 71096 85220 333 10280 29080 55076 58003 60021;
0201833390999992010032712004-14050-042617FM-12+088299999V0200901N008210042019N0100001N1+02051+01831101281ADDAA124002091AY161061AY261061GF106991061021004501001001KA1240N+01881MA1999999091601MD1999999-0061MW1101REMSYN088AAXX  27124 83339 21497 60916 10205 20183 39160 40128 71066 86200 333 20188 59006 60024;
0137833390999992010032718004-14050-042617FM-12+088299999V0200901N004612200019N0100001N1+02451+01901100951ADDGF103991031021004501001001MA1999999091371MD1999999+0011REMSYN070AAXX  27184 83339 32497 30909 10245 20190 39137 40095 83200 333 58001;
0196833390999992010032800004-14050-042617FM-12+088299999V0201401N005112200019N0020001N1+02191+01841101061ADDAY101061AY201061GF102991021021004501001001KA1240M+02661MA1999999091441MD1999999-0111MW1131REMSYN094AAXX  28004 83339 31495 21410 10219 20184 39144 40106 71300 82200 333 10266 29080 55076 59011;
0184833390999992010032812004-14050-042617FM-12+088299999V0201401N006210042019N0040001N1+02071+01871101241ADDAY101061AY201061GF108991081051004501999999KA1240N+01961MA1999999091621MD1999999+0021MW1101REMSYN082AAXX  28124 83339 31496 81412 10207 20187 39162 40124 71000 885// 333 20196 58002;
0137833390999992010032818004-14050-042617FM-12+088299999V0200501N004612200019N0100001N1+02751+01731100851ADDGF102991021021004501001001MA1999999091361MD1999999-0011REMSYN070AAXX  28184 83339 32497 20509 10275 20173 39136 40085 82200 333 59001;
0213833390999992010032900004-14050-042617FM-12+088299999V0201401N007212200019N0020001N1+02231+01731101011ADDGA1001+999999999GF100991001001999999001001KA1240M+02801MA1999999999999MD1999999-0031REMSYN082AAXX  29004 83339 32995 01414 10223 20173 30141 40101 333 10280 29073 55088 59003;EQDQ01+101413APOSP Q02 101413APOSP 
0156833390999992010032912004-14050-042617FM-12+088299999V0201401N002110042019N0100001N1+02171+01951101371ADDGF105991051021004501001001KA1240N+01981MA1999999091751MD1999999+0131REMSYN076AAXX  29124 83339 32497 51404 10217 20195 39175 40137 85200 333 20198 58013;
0137833390999992010032918004-14050-042617FM-12+088299999V0201401N003112200019N0100001N1+02671+01811100921ADDGF104991021011004501001041MA1999999091431MD1999999+0071REMSYN070AAXX  29184 83339 32497 41406 10267 20181 39143 40092 82104 333 58007;
0168833390999992010033000004-14050-042617FM-12+088299999V0209999C000012200019N0020001N1+02311+01851101151ADDGF102991021011004501001001KA1240M+02841MA1999999091581MD1999999+0171REMSYN088AAXX  30004 83339 32495 20000 10231 20185 39158 40115 82100 333 10284 29074 55079 58017;
0156833390999992010033012004-14050-042617FM-12+088299999V0201401N002612200019N0100001N1+02351+02011101251ADDGF102991021021004501001001KA1240N+01961MA1999999091711MD1999999-0041REMSYN076AAXX  30124 83339 32497 21405 10235 20201 39171 40125 82200 333 20196 59004;
0137833390999992010033018004-14050-042617FM-12+088299999V0201401N003112200019N0100001N1+02911+01771100751ADDGF102991021011004501001001MA1999999091321MD1999999-0111REMSYN070AAXX  30184 83339 32497 21406 10291 20177 39132 40075 82100 333 59011;
0168833390999992010033100004-14050-042617FM-12+088299999V0201401N002112200019N0020001N1+02451+01831101021ADDGF103991011011004501031041KA1240M+02961MA1999999091521MD1999999-0061REMSYN088AAXX  31004 83339 32495 31404 10245 20183 39152 40102 81134 333 10296 29067 55085 59006;
0156833390999992010033112004-14050-042617FM-12+088299999V0201401N002112200019N0100001N1+02411+02071101041ADDGF104991021011004501031001KA1240N+02051MA1999999091551MD1999999-0161REMSYN076AAXX  31124 83339 32497 41404 10241 20207 39155 40104 82130 333 20205 59016;
0137833390999992010033118004-14050-042617FM-12+088299999V0200901N001512200019N0100001N1+02851+01981100561ADDGF106991031011004501001041MA1999999091161MD1999999-0161REMSYN070AAXX  31184 83339 32497 60903 10285 20198 39116 40056 83104 333 59016;
0168833390999992010040100004-14050-042617FM-12+088299999V0201401N001512200019N0020001N1+02501+01721100771ADDGF104991011011004501001011KA1240M+03041MA1999999091311MD1999999-0211REMSYN088AAXX  01004 83339 32495 41403 10250 20172 39131 40077 81101 333 10304 29066 55071 59021;
0156833390999992010040112004-14050-042617FM-12+088299999V0201401N003110042019N0100001N1+02331+02051101031ADDGF106991061021004501001001KA1240N+02141MA1999999091531MD1999999-0021REMSYN076AAXX  01124 83339 32497 61406 10233 20205 39153 40103 86200 333 20214 59002;
0137833390999992010040118004-14050-042617FM-12+088299999V0201401N002612200019N0100001N1+02831+01911100571ADDGF104991031021004501031001MA1999999091191MD1999999+0031REMSYN070AAXX  01184 83339 32497 41405 10283 20191 39119 40057 83230 333 58003;
0168833390999992010040200004-14050-042617FM-12+088299999V0201401N004610450019N0100001N1+02461+01901100891ADDGF106991031011004501021001KA1240M+02901MA1999999091391MD1999999+0071REMSYN088AAXX  02004 83339 32497 61409 10246 20190 39139 40089 83120 333 10290 29071 55076 58007;
0156833390999992010040212004-14050-042617FM-12+088299999V0201401N002110042019N0100001N1+02221+01991101061ADDGF106991061021004501001001KA1240N+02131MA1999999091541MD1999999+0011REMSYN076AAXX  02124 83339 32497 61404 10222 20199 39154 40106 86200 333 20213 58001;
0137833390999992010040218004-14050-042617FM-12+088299999V0201401N004612200019N0100001N1+02751+01911100621ADDGF104991031021004501001011MA1999999091201MD1999999+0011REMSYN070AAXX  02184 83339 32497 41409 10275 20191 39120 40062 83201 333 58001;
0213833390999992010040300004-14050-042617FM-12+088299999V0201801N001510042019N0020001N1+02171+02041101131ADDAA106010991AY121061AY221061GF108991051021004501021999KA1240M+02841MA1999999091541MD1999999+0161MW1601REMSYN100AAXX  03004 83339 21495 81803 10217 20204 39154 40113 76022 8522/ 333 10284 29083 55064 58016 60111;
0201833390999992010040312004-14050-042617FM-12+088299999V0201401N003110042019N0100001N1+02281+02071101301ADDAA124010991AY161061AY221061GF106991061021004501001001KA1240N+02061MA1999999091711MD1999999+0171MW1021REMSYN088AAXX  03124 83339 21497 61406 10228 20207 39171 40130 70262 86200 333 20206 58017 60114;
0137833390999992010040318004-14050-042617FM-12+088299999V0201401N003112200019N0100001N1+02771+02061100731ADDGF103991031021004501001001MA1999999091271MD1999999+0071REMSYN070AAXX  03184 83339 32497 31406 10277 20206 39127 40073 83200 333 58007;
0213833390999992010040400004-14050-042617FM-12+088299999V0201401N005112200019N0020001N1+02361+01951101131ADDAA106000891AY121061AY221061GF104991041021004501001001KA1240M+02821MA1999999091581MD1999999+0041MW1601REMSYN100AAXX  04004 83339 21495 41410 10236 20195 39158 40113 76022 84200 333 10282 29077 55085 58004 69981;
0201833390999992010040412004-14050-042617FM-12+088299999V0200901N001510042019N0100001N1+02181+02041101351ADDAA124021191AY161061AY261061GF108991051021004501021999KA1240N+02061MA1999999091751MD1999999+0041MW1021REMSYN088AAXX  04124 83339 21497 80903 10218 20204 39175 40135 70266 8522/ 333 20206 58004 60214;
0182833390999992010040418004-14050-042617FM-12+088299999V0202701N006710042019N0020001N1+02211+02011100981ADDAA106002091AY121061AY221061GF108991061021004501021999MA1999999091401MD1999999+0131MW1601REMSYN082AAXX  04184 83339 21495 82713 10221 20201 39140 40098 76022 8622/ 333 58013 60021;
0213833390999992010040500004-14050-042617FM-12+088299999V0203201N001012200019N0020001N1+02231+01921101191ADDAA106000021AY161061AY221061GF104991041021004501001001KA1240M+02781MA1999999091541MD1999999-0041MW1021REMSYN100AAXX  05004 83339 21495 43202 10223 20192 39154 40119 70262 84200 333 10278 29086 55032 59004 69921;
0201833390999992010040512004-14050-042617FM-12+088299999V0200901N002110042019N0040001N1+02191+01921101201ADDAA124002091AY161061AY261061GF108991081051004501999999KA1240N+02061MA1999999091601MD1999999-0151MW1101REMSYN088AAXX  05124 83339 21496 80904 10219 20192 39160 40120 71066 885// 333 20206 59015 60024;
0137833390999992010040518004-14050-042617FM-12+088299999V0201401N002110042019N0100001N1+02651+02031100751ADDGF106991051021004501021001MA1999999091271MD1999999-0131REMSYN070AAXX  05184 83339 32497 61404 10265 20203 39127 40075 85220 333 59013;
0213833390999992010040600004-14050-042617FM-12+088299999V0209999C000010042019N0020001N1+02191+02181100871ADDAA106000591AY161061AY261061GF108991081051004501999999KA1240M+02761MA1999999091331MD1999999-0211MW1101REMSYN100AAXX  06004 83339 21495 80000 10219 20218 39133 40087 71066 885// 333 10276 29084 55041 59021 69941;
0201833390999992010040612004-14050-042617FM-12+088299999V0200901N001510042019N0100001N1+02311+01851100941ADDAA124000591AY161061AY261061GF106991051021004501031001KA1240N+02101MA1999999091391MD1999999-0211MW1021REMSYN088AAXX  06124 83339 21497 60903 10231 20185 39139 40094 70266 85230 333 20210 59021 69944;
0182833390999992010040618004-14050-042617FM-12+088299999V0200901N002110042019N0100001N1+02451+02011100551ADDAA106009991AY161061AY261061GF106991051021004501021001MA1999999091051MD1999999-0221MW1021REMSYN082AAXX  06184 83339 21497 60904 10245 20201 39105 40055 70266 85220 333 59022 60101;
0196833390999992010040700004-14050-042617FM-12+088299999V0203201N002610042019N0020001N1+02331+01981100661ADDAY101061AY201061GF107991061021004501021999KA1240M+02901MA1999999091151MD1999999-0181MW1101REMSYN094AAXX  07004 83339 31495 73205 10233 20198 39115 40066 71000 8622/ 333 10290 29079 55053 59018;
0201833390999992010040712004-14050-042617FM-12+088299999V0202701N004610042019N0100001N1+02371+02011100771ADDAA124009991AY161061AY261061GF105991051021004501001001KA1240N+02141MA1999999091271MD1999999-0121MW1101REMSYN088AAXX  07124 83339 21497 52709 10237 20201 39127 40077 71066 85200 333 20214 59012 60104;
0182833390999992010040718004-14050-042617FM-12+088299999V0202701N003612200019N0100001N1+02651+02091100411ADDAA106002091AY161061AY261061GF104991031021004501021001MA1999999090981MD1999999-0071MW1021REMSYN082AAXX  07184 83339 21497 42707 10265 20209 39098 40041 70266 83220 333 59007 60021;
0213833390999992010040800004-14050-042617FM-12+088299999V0203201N005710042019N0020001N1+02031+01921100861ADDAA106003091AY161061AY261061GF108991081051004501999999KA1240M+02781MA1999999091291MD1999999+0141MW1131REMSYN100AAXX  08004 83339 21495 83211 10203 20192 39129 40086 71366 885// 333 10278 29085 55092 58014 60031;
0201833390999992010040812004-14050-042617FM-12+088299999V0202701N001510042019N0040001N1+02171+01821101041ADDAA124005191AY161061AY261061GF107991061021004501021999KA1240N+02041MA1999999091421MD1999999+0151MW1101REMSYN088AAXX  08124 83339 21496 72703 10217 20182 39142 40104 71066 8622/ 333 20204 58015 60054;
0137833390999992010040818004-14050-042617FM-12+088299999V0202301N003110450019N0100001N1+02711+01661100681ADDGF105991041021004501021001MA1999999091191MD1999999+0211REMSYN070AAXX  08184 83339 32497 52306 10271 20166 39119 40068 84220 333 58021;
0168833390999992010040900004-14050-042617FM-12+088299999V0202301N002112200019N0020001N1+02251+01571100981ADDGF102991021021004501001001KA1240M+02761MA1999999091401MD1999999+0111REMSYN088AAXX  09004 83339 32495 22304 10225 20157 39140 40098 82200 333 10276 29066 55044 58011;
0184833390999992010040912004-14050-042617FM-12+088299999V0201401N003110042019N0100001N1+02071+01761101221ADDAY101061AY201061GF106991061021004501001001KA1240N+01861MA1999999091601MD1999999+0181MW1101REMSYN082AAXX  09124 83339 31497 61406 10207 20176 39160 40122 71000 86200 333 20186 58018;
0137833390999992010040918004-14050-042617FM-12+088299999V0201401N006210042019N0100001N1+02351+01871101041ADDGF106991061021004501001001MA1999999091451MD1999999+0261REMSYN070AAXX  09184 83339 32497 61412 10235 20187 39145 40104 86200 333 58026;
0196833390999992010041000004-14050-042617FM-12+088299999V0201401N003610042019N0020001N1+01971+01831101361ADDAY101061AY201061GF106991061021004501001001KA1240M+02451MA1999999091661MD1999999+0261MW1101REMSYN094AAXX  10004 83339 31495 61407 10197 20183 39166 40136 71000 86200 333 10245 29086 55057 58026;
0201833390999992010041012004-14050-042617FM-12+088299999V0201401N004610042019N0040001N1+01651+01531101581ADDAA124000891AY161061AY261061GF108991081051004501999999KA1240N+01561MA1999999091791MD1999999+0191MW1101REMSYN088AAXX  10124 83339 21496 81409 10165 20153 39179 40158 71066 885// 333 20156 58019 69984;
0137833390999992010041018004-14050-042617FM-12+088299999V0201401N005112200019N0100001N1+02291+01641101191ADDGF103991031021004501001001MA1999999091521MD1999999+0071REMSYN070AAXX  10184 83339 32497 31410 10229 20164 39152 40119 83200 333 58007;
0196833390999992010041100004-14050-042617FM-12+088299999V0201401N002612200019N0020001N1+01991+01641101441ADDAY101061AY201061GF104991041021004501001001KA1240M+02371MA1999999091661MD1999999+0001MW1101REMSYN094AAXX  11004 83339 31495 41405 10199 20164 39166 40144 71000 84200 333 10237 29080 55064 58000;
0184833390999992010041112004-14050-042617FM-12+088299999V0201401N004610042019N0100001N1+01971+01631101371ADDAY101061AY201061GF106991061021004501001001KA1240N+01661MA1999999091671MD1999999-0121MW1101REMSYN082AAXX  11124 83339 31497 61409 10197 20163 39167 40137 71000 86200 333 20166 59012;
0137833390999992010041118004-14050-042617FM-12+088299999V0201401N003110042019N0100001N1+02431+01541101021ADDGF106991061021004501001001MA1999999091401MD1999999-0121REMSYN070AAXX  11184 83339 32497 61406 10243 20154 39140 40102 86200 333 59012;
0168833390999992010041200004-14050-042617FM-12+088299999V0201401N004612200019N0020001N1+02011+01481101281ADDGF102991021021004501001001KA1240M+02521MA1999999091601MD1999999-0061REMSYN088AAXX  12004 83339 32495 21409 10201 20148 39160 40128 82200 333 10252 29071 55072 59006;
0156833390999992010041212004-14050-042617FM-12+088299999V0201401N005110042019N0100001N1+01851+01491101521ADDGF106991061021004501001001KA1240N+01681MA1999999091791MD1999999+0121REMSYN076AAXX  12124 83339 32497 61410 10185 20149 39179 40152 86200 333 20168 58012;
0137833390999992010041218004-14050-042617FM-12+088299999V0201401N003612200019N0100001N1+02391+01471101141ADDGF103991031011004501001001MA1999999091511MD1999999+0111REMSYN070AAXX  12184 83339 32497 31407 10239 20147 39151 40114 83100 333 58011;
0168833390999992010041300004-14050-042617FM-12+088299999V0201401N003112200019N0020001N1+02031+01601101411ADDGF102991021011004501001001KA1240M+02481MA1999999091691MD1999999+0091REMSYN088AAXX  13004 83339 32495 21406 10203 20160 39169 40141 82100 333 10248 29072 55086 58009;
0156833390999992010041312004-14050-042617FM-12+088299999V0201401N005110042019N0100001N1+01951+01661101651ADDGF105991051021004501001001KA1240N+01741MA1999999091931MD1999999+0141REMSYN076AAXX  13124 83339 32497 51410 10195 20166 39193 40165 85200 333 20174 58014;
0137833390999992010041318004-14050-042617FM-12+088299999V0201401N006212200019N0100001N1+02501+01671101211ADDGF102991021011004501001001MA1999999091611MD1999999+0101REMSYN070AAXX  13184 83339 32497 21412 10250 20167 39161 40121 82100 333 58010;
0178833390999992010041400004-14050-042617FM-12+088299999V0201401N006712200019N0020001N1+02131+01741101471ADDGA1001+999999999GF100991001001999999001001KA1240M+02581MA1999999091791MD1999999+0101REMSYN082AAXX  14004 83339 32995 01413 10213 20174 39179 40147 333 10258 29075 55087 58010;
0156833390999992010041412004-14050-042617FM-12+088299999V0201401N006210042019N0100001N1+01931+01741101591ADDGF106991061021004501001001KA1240N+01801MA1999999091901MD1999999-0031REMSYN076AAXX  14124 83339 32497 61412 10193 20174 39190 40159 86200 333 20180 59003;
0137833390999992010041418004-14050-042617FM-12+088299999V0201401N003110042019N0100001N1+02401+01801101291ADDGF106991061021004501001001MA1999999091691MD1999999+0081REMSYN070AAXX  14184 83339 32497 61406 10240 20180 39169 40129 86200 333 58008;
0168833390999992010041500004-14050-042617FM-12+088299999V0201401N003612200019N0020001N1+02071+01721101511ADDGF102991021011004501001001KA1240M+02461MA1999999091801MD1999999+0011REMSYN088AAXX  15004 83339 32495 21407 10207 20172 39180 40151 82100 333 10246 29079 55055 58001;
0156833390999992010041512004-14050-042617FM-12+088299999V0201401N006712200019N0100001N1+02041+01641101451ADDGF104991041011004501001001KA1240N+01711MA1999999091771MD1999999-0131REMSYN076AAXX  15124 83339 32497 41413 10204 20164 39177 40145 84100 333 20171 59013;
0137833390999992010041518004-14050-042617FM-12+088299999V0201401N005110042019N0100001N1+02361+01781101181ADDGF108991051021004501021999MA1999999091561MD1999999-0131REMSYN070AAXX  15184 83339 32497 81410 10236 20178 39156 40118 8522/ 333 59013;
0168833390999992010041600004-14050-042617FM-12+088299999V0201401N004112200019N0020001N1+02051+01841101331ADDGF103991031011004501001001KA1240M+02481MA1999999091661MD1999999-0141REMSYN088AAXX  16004 83339 32495 31408 10205 20184 39166 40133 83100 333 10248 29080 55060 59014;
0156833390999992010041612004-14050-042617FM-12+088299999V0201401N007210042019N0100001N1+02061+01871101441ADDGF108991051021004501021999KA1240N+01861MA1999999091761MD1999999-0011REMSYN076AAXX  16124 83339 32497 81414 10206 20187 39176 40144 8522/ 333 20186 59001;
0137833390999992010041618004-14050-042617FM-12+088299999V0200901N001512200019N0100001N1+02691+01801100921ADDGF104991021011004501001011MA1999999091411MD1999999-0151REMSYN070AAXX  16184 83339 32497 40903 10269 20180 39141 40092 82101 333 59015;
0178833390999992010041700004-14050-042617FM-12+088299999V0201401N001512200019N0020001N1+02231+01921101231ADDGA1001+999999999GF100991001001999999001001KA1240M+02771MA1999999091611MD1999999-0051REMSYN082AAXX  17004 83339 32995 01403 10223 20192 39161 40123 333 10277 29078 55054 59005;
0156833390999992010041712004-14050-042617FM-12+088299999V0201401N003110042019N0100001N1+02231+01761101391ADDGF106991061021004501001001KA1240N+02001MA1999999091791MD1999999+0031REMSYN076AAXX  17124 83339 32497 61406 10223 20176 39179 40139 86200 333 20200 58003;
0137833390999992010041718004-14050-042617FM-12+088299999V0201401N001512200019N0100001N1+02851+01901101001ADDGF102991021021004501001001MA1999999091541MD1999999+0131REMSYN070AAXX  17184 83339 32497 21403 10285 20190 39154 40100 82200 333 58013;
0178833390999992010041800004-14050-042617FM-12+088299999V0201401N005112200019N0020001N1+02471+01871101141ADDGA1001+999999999GF100991001001999999001001KA1240M+02961MA1999999091681MD1999999+0071REMSYN082AAXX  18004 83339 32995 01410 10247 20187 39168 40114 333 10296 29070 55087 58007;
0220833390999992010041812004-14050-042617FM-12+088299999V0201401N006710042019N0100001N1+02151+01951101491ADDAA124000091AY161061AY221061GF106991061021004501001001KA1240N+02001MA1999999091911MD1999999+0121MW1021REMSYN088AAXX  18124 83339 21497 61413 10215 20195 39191 40149 70262 86200 333 20200 58012 69924;EQDQ01  00002PRCP24
0137833390999992010041818004-14050-042617FM-12+088299999V0200901N004612200019N0100001N1+02701+01781101201ADDGF104991041021004501001001MA1999999091701MD1999999+0161REMSYN070AAXX  18184 83339 32497 40909 10270 20178 39170 40120 84200 333 58016;
0178833390999992010041900004-14050-042617FM-12+088299999V0201401N005112200019N0020001N1+02301+01751101411ADDGA1001+999999999GF100991001001999999001001KA1240M+02751MA1999999091811MD1999999+0131REMSYN082AAXX  19004 83339 32995 01410 10230 20175 39181 40141 333 10275 29072 55047 58013;
0184833390999992010041912004-14050-042617FM-12+088299999V0201401N004610042019N0040001N1+02011+01761101571ADDAY101061AY201061GF108991081051004501999999KA1240N+01901MA1999999091921MD1999999+0011MW1101REMSYN082AAXX  19124 83339 31496 81409 10201 20176 39192 40157 71000 885// 333 20190 58001;
0137833390999992010041918004-14050-042617FM-12+088299999V0201401N004112200019N0100001N1+02751+01611101091ADDGF102991021021004501001001MA1999999091581MD1999999-0121REMSYN070AAXX  19184 83339 32497 21408 10275 20161 39158 40109 82200 333 59012;
0178833390999992010042000004-14050-042617FM-12+088299999V0201401N005112200019N0020001N1+02291+01561101241ADDGA1001+999999999GF100991001001999999001001KA1240M+02801MA1999999091621MD1999999-0191REMSYN082AAXX  20004 83339 32995 01410 10229 20156 39162 40124 333 10280 29066 55079 59019;
0184833390999992010042012004-14050-042617FM-12+088299999V0201401N004610042019N0040001N1+02071+01761101311ADDAY101061AY201061GF106991061021004501001001KA1240N+01881MA1999999091701MD1999999-0221MW1101REMSYN082AAXX  20124 83339 31496 61409 10207 20176 39170 40131 71000 86200 333 20188 59022;
0137833390999992010042018004-14050-042617FM-12+088299999V0201401N004612200019N0100001N1+02751+01371100841ADDGF102991021021004501001001MA1999999091351MD1999999-0231REMSYN070AAXX  20184 83339 32497 21409 10275 20137 39135 40084 82200 333 59023;
0178833390999992010042100004-14050-042617FM-12+088299999V0201801N003612200019N0020001N1+02211+01111101131ADDGA1001+999999999GF100991001001999999001001KA1240M+02821MA1999999091521MD1999999-0101REMSYN082AAXX  21004 83339 32995 01807 10221 20111 39152 40113 333 10282 29056 55097 59010;
0156833390999992010042112004-14050-042617FM-12+088299999V0200901N004112200019N0100001N1+02151+01701101221ADDGF102991021021004501001001KA1240N+01621MA1999999091621MD1999999+0081REMSYN076AAXX  21124 83339 32497 20908 10215 20170 39162 40122 82200 333 20162 58008;
0137833390999992010042118004-14050-042617FM-12+088299999V0201401N002612200019N0100001N1+02671+01471100901ADDGF104991041021004501001001MA1999999091371MD1999999+0021REMSYN070AAXX  21184 83339 32497 41405 10267 20147 39137 40090 84200 333 58002;
0168833390999992010042200004-14050-042617FM-12+088299999V0201401N003112200019N0020001N1+02251+01711101201ADDGF102991021021004501001001KA1240M+02761MA1999999091601MD1999999+0081REMSYN088AAXX  22004 83339 32495 21406 10225 20171 39160 40120 82200 333 10276 29067 55106 58008;
0201833390999992010042212004-14050-042617FM-12+088299999V0201401N004610042019N0040001N1+01961+01771101371ADDAA124000591AY161061AY261061GF108991081051004501999999KA1240N+01901MA1999999091721MD1999999+0101MW1101REMSYN088AAXX  22124 83339 21496 81409 10196 20177 39172 40137 71066 885// 333 20190 58010 69944;
0137833390999992010042218004-14050-042617FM-12+088299999V0201401N003110042019N0100001N1+02631+01831100891ADDGF106991061021004501001001MA1999999091381MD1999999+0011REMSYN070AAXX  22184 83339 32497 61406 10263 20183 39138 40089 86200 333 58001;
0178833390999992010042300004-14050-042617FM-12+088299999V0209999C000012200019N0020001N1+02231+01781101151ADDGA1001+999999999GF100991001001999999001001KA1240M+02701MA1999999091521MD1999999-0081REMSYN082AAXX  23004 83339 32995 00000 10223 20178 39152 40115 333 10270 29076 55052 59008;
0184833390999992010042312004-14050-042617FM-12+088299999V0201401N003610042019N0040001N1+02091+01891101361ADDAY101061AY201061GF108991081051004501999999KA1240N+01841MA1999999091731MD1999999+0011MW1101REMSYN082AAXX  23124 83339 31496 81407 10209 20189 39173 40136 71000 885// 333 20184 58001;
0137833390999992010042318004-14050-042617FM-12+088299999V0201401N002610042019N0100001N1+02891+01571100861ADDGF106991061021004501001001MA1999999091391MD1999999+0011REMSYN070AAXX  23184 83339 32497 61405 10289 20157 39139 40086 86200 333 58001;
0168833390999992010042400004-14050-042617FM-12+088299999V0201401N003112200019N0020001N1+02391+01581101121ADDGF102991021021004501001001KA1240M+03011MA1999999091551MD1999999+0031REMSYN088AAXX  24004 83339 32495 21406 10239 20158 39155 40112 82200 333 10301 29064 55074 58003;
0156833390999992010042412004-14050-042617FM-12+088299999V0201401N002612200019N0100001N1+02391+01951101331ADDGF104991041021004501001001KA1240N+01921MA1999999091801MD1999999+0071REMSYN076AAXX  24124 83339 32497 41405 10239 20195 39180 40133 84200 333 20192 58007;
0137833390999992010042418004-14050-042617FM-12+088299999V0200501N006212200019N0100001N1+02911+01321100801ADDGF103991021021004501021001MA1999999091381MD1999999-0011REMSYN070AAXX  24184 83339 32497 30512 10291 20132 39138 40080 82220 333 59001;
0178833390999992010042500004-14050-042617FM-12+088299999V0202301N000512200019N0020001N1+02331+01391101021ADDGA1001+999999999GF100991001001999999001001KA1240M+02941MA1999999091501MD1999999-0051REMSYN082AAXX  25004 83339 32995 02301 10233 20139 39150 40102 333 10294 29057 55101 59005;
0184833390999992010042512004-14050-042617FM-12+088299999V0201401N004110042019N0040001N1+02091+01781101371ADDAY101061AY201061GF106991051021004501021001KA1240N+01841MA1999999091751MD1999999-0051MW1101REMSYN082AAXX  25124 83339 31496 61408 10209 20178 39175 40137 71000 85220 333 20184 59005;
0137833390999992010042518004-14050-042617FM-12+088299999V0201401N004612200019N0100001N1+02451+01741101011ADDGF102991021021004501001001MA1999999091451MD1999999+0071REMSYN070AAXX  25184 83339 32497 21409 10245 20174 39145 40101 82200 333 58007;
0178833390999992010042600004-14050-042617FM-12+088299999V0201401N003112200019N0020001N1+02231+01581101141ADDGA1001+999999999GF100991001001999999001001KA1240M+02681MA1999999091531MD1999999+0031REMSYN082AAXX  26004 83339 32995 01406 10223 20158 39153 40114 333 10268 29070 55090 58003;
0156833390999992010042612004-14050-042617FM-12+088299999V0201401N004112200019N0100001N1+02231+01821101511ADDGF102991021011004501001001KA1240N+01831MA1999999091901MD1999999+0151REMSYN076AAXX  26124 83339 32497 21408 10223 20182 39190 40151 82100 333 20183 58015;
0137833390999992010042618004-14050-042617FM-12+088299999V0201401N001512200019N0100001N1+02801+01461101001ADDGF102991021011004501001001MA1999999091501MD1999999+0051REMSYN070AAXX  26184 83339 32497 21403 10280 20146 39150 40100 82100 333 58005;
0168833390999992010042700004-14050-042617FM-12+088299999V0209999C000012200019N0020001N1+02251+01591101261ADDGF102991021011999999001001KA1240M+02881MA1999999091671MD1999999+0141REMSYN088AAXX  27004 83339 32995 20000 10225 20159 39167 40126 82100 333 10288 29063 55096 58014;
0156833390999992010042712004-14050-042617FM-12+088299999V0201401N004610042019N0100001N1+02281+01861101541ADDGF106991061021004501001001KA1240N+01961MA1999999091931MD1999999+0031REMSYN076AAXX  27124 83339 32497 61409 10228 20186 39193 40154 86200 333 20196 58003;
0137833390999992010042718004-14050-042617FM-12+088299999V0203201N002612200019N0100001N1+02921+01381100971ADDGF104991031021004501031001MA1999999091511MD1999999+0011REMSYN070AAXX  27184 83339 32497 43205 10292 20138 39151 40097 83230 333 58001;
0168833390999992010042800004-14050-042617FM-12+088299999V0209999C000010450019N0020001N1+02271+01441101261ADDGF105991011011004501031001KA1240M+02981MA1999999091671MD1999999+0001REMSYN088AAXX  28004 83339 32495 50000 10227 20144 39167 40126 81130 333 10298 29060 55077 58000;
0156833390999992010042812004-14050-042617FM-12+088299999V0201401N003110450019N0100001N1+02211+01941101401ADDGF105991031021004501031001KA1240N+01871MA1999999091801MD1999999-0131REMSYN076AAXX  28124 83339 32497 51406 10221 20194 39180 40140 83230 333 20187 59013;
0137833390999992010042818004-14050-042617FM-12+088299999V0201401N002610042019N0100001N1+02751+01491100991ADDGF106991051021004501031001MA1999999091491MD1999999-0021REMSYN070AAXX  28184 83339 32497 61405 10275 20149 39149 40099 85230 333 59002;
0168833390999992010042900004-14050-042617FM-12+088299999V0201401N002610042019N0020001N1+02371+01451101261ADDGF106991061021004501001001KA1240M+02901MA1999999091701MD1999999+0031REMSYN088AAXX  29004 83339 32495 61405 10237 20145 39170 40126 86200 333 10290 29061 55075 58003;
0156833390999992010042912004-14050-042617FM-12+088299999V0201401N004612200019N0100001N1+02201+01741101561ADDGF102991021021004501001001KA1240N+01861MA1999999091971MD1999999+0171REMSYN076AAXX  29124 83339 32497 21409 10220 20174 39197 40156 82200 333 20186 58017;
0137833390999992010042918004-14050-042617FM-12+088299999V0200901N006210042019N0100001N1+02731+01351101001ADDGF106991051021004501031001MA1999999091501MD1999999+0011REMSYN070AAXX  29184 83339 32497 60912 10273 20135 39150 40100 85230 333 58001;
0168833390999992010043000004-14050-042617FM-12+088299999V0201401N004112200019N0020001N1+02351+01611101191ADDGF102991021011004501001001KA1240M+02821MA1999999091641MD1999999-0061REMSYN088AAXX  30004 83339 32495 21408 10235 20161 39164 40119 82100 333 10282 29061 55102 59006;
0156833390999992010043012004-14050-042617FM-12+088299999V0201401N005112200019N0100001N1+02211+01671101351ADDGF102991021011004501001001KA1240N+01881MA1999999091781MD1999999-0191REMSYN076AAXX  30124 83339 32497 21410 10221 20167 39178 40135 82100 333 20188 59019;
0137833390999992010043018004-14050-042617FM-12+088299999V0201401N002612200019N0100001N1+02751+01461100961ADDGF103991021011004501001011MA1999999091481MD1999999-0021REMSYN070AAXX  30184 83339 32497 31405 10275 20146 39148 40096 82101 333 59002;
0178833390999992010050100004-14050-042617FM-12+088299999V0201801N001512200019N0020001N1+02301+01481101241ADDGA1001+999999999GF100991001001999999001001KA1240M+02841MA1999999091651MD1999999+0011REMSYN082AAXX  01004 83339 32995 01803 10230 20148 39165 40124 333 10284 29059 55100 58001;
0156833390999992010050112004-14050-042617FM-12+088299999V0201401N003110042019N0100001N1+02051+01741101451ADDGF108991051021004501021999KA1240N+01731MA1999999091831MD1999999+0051REMSYN076AAXX  01124 83339 32497 81406 10205 20174 39183 40145 8522/ 333 20173 58005;
0137833390999992010050118004-14050-042617FM-12+088299999V0200501N001512200019N0100001N1+02751+01561100961ADDGF102991021021004501001001MA1999999091461MD1999999-0021REMSYN070AAXX  01184 83339 32497 20503 10275 20156 39146 40096 82200 333 59002;
0178833390999992010050200004-14050-042617FM-12+088299999V0201401N003112200019N0020001N1+02301+01481101301ADDGA1001+999999999GF100991001001999999001001KA1240M+02871MA1999999091691MD1999999+0041REMSYN082AAXX  02004 83339 32995 01406 10230 20148 39169 40130 333 10287 29062 55079 58004;
0156833390999992010050212004-14050-042617FM-12+088299999V0201401N004610042019N0100001N1+02071+01881101531ADDGF106991061021004501001001KA1240N+01861MA1999999091901MD1999999+0071REMSYN076AAXX  02124 83339 32497 61409 10207 20188 39190 40153 86200 333 20186 58007;
0137833390999992010050218004-14050-042617FM-12+088299999V0201401N004112200019N0100001N1+02691+01441101111ADDGF102991021011004501001001MA1999999091601MD1999999+0141REMSYN070AAXX  02184 83339 32497 21408 10269 20144 39160 40111 82100 333 58014;
0178833390999992010050300004-14050-042617FM-12+088299999V0201401N006712200019N0020001N1+02301+01351101451ADDGA1001+999999999GF100991001001999999001001KA1240M+02751MA1999999091831MD1999999+0141REMSYN082AAXX  03004 83339 32995 01413 10230 20135 39183 40145 333 10275 29060 55086 58014;
0184833390999992010050312004-14050-042617FM-12+088299999V0201401N005110042019N0040001N1+01831+01551101641ADDAY101061AY201061GF107991061021004501021999KA1240N+01621MA1999999091981MD1999999+0081MW1101REMSYN082AAXX  03124 83339 31496 71410 10183 20155 39198 40164 71000 8622/ 333 20162 58008;
0137833390999992010050318004-14050-042617FM-12+088299999V0201401N005112200019N0100001N1+02551+01481101201ADDGF102991021021004501001001MA1999999091631MD1999999+0031REMSYN070AAXX  03184 83339 32497 21410 10255 20148 39163 40120 82200 333 58003;
0168833390999992010050400004-14050-042617FM-12+088299999V0200901N003112200019N0020001N1+02051+01641101441ADDGF103991031021004501001001KA1240M+02681MA1999999091721MD1999999-0111REMSYN088AAXX  04004 83339 32495 30906 10205 20164 39172 40144 83200 333 10268 29073 55072 59011;
0156833390999992010050412004-14050-042617FM-12+088299999V0201401N006212200019N0100001N1+02071+01431101541ADDGF102991021011004501001001KA1240N+01681MA1999999091851MD1999999-0131REMSYN076AAXX  04124 83339 32497 21412 10207 20143 39185 40154 82100 333 20168 59013;
0137833390999992010050418004-14050-042617FM-12+088299999V0201401N003612200019N0100001N1+02751+01181101021ADDGF104991041021004501001001MA1999999091481MD1999999-0151REMSYN070AAXX  04184 83339 32497 41407 10275 20118 39148 40102 84200 333 59015;
0178833390999992010050500004-14050-042617FM-12+088299999V0200901N001512200019N0020001N1+02311+01141101091ADDGA1001+999999999GF100991001001999999001001KA1240M+02821MA1999999091501MD1999999-0221REMSYN082AAXX  05004 83339 32995 00903 10231 20114 39150 40109 333 10282 29050 55102 59022;
0184833390999992010050512004-14050-042617FM-12+088299999V0201401N002610042019N0100001N1+02011+01681101291ADDAY101061AY201061GF106991061021004501001001KA1240N+01821MA1999999091621MD1999999-0191MW1101REMSYN082AAXX  05124 83339 31497 61405 10201 20168 39162 40129 71000 86200 333 20182 59019;
0137833390999992010050518004-14050-042617FM-12+088299999V0200901N003110042019N0100001N1+02771+01561100821ADDGF105991051021004501001001MA1999999091341MD1999999-0141REMSYN070AAXX  05184 83339 32497 50906 10277 20156 39134 40082 85200 333 59014;
0184833390999992010050612004-14050-042617FM-12+088299999V0201401N004610042019N0040001N1+02091+01871101331ADDAY101061AY201061GF108991081051004501999999KA1240N+01981MA1999999091721MD1999999+0061MW1101REMSYN082AAXX  06124 83339 31496 81409 10209 20187 39172 40133 71000 885// 333 20198 58006;
