0168825710999992016010100004-05500-045270FM-12+015399999V0200501N0036100300199010000199+02671+02221100991ADDAA101999999AZ101061AZ201061GA1081+003001061GA2999+999999101GA3999+999999101GE19MSL   +99999+99999GF108991081999003001999999MA1999999099261MD1999999-0101REMSYN004BUFR
0187825710999992016010112004-05500-045270FM-12+015399999V0200501N0010100300199010000199+02271+02251101381ADDAA124030031AY161061AY221061GA1081+003001061GA2999+999999101GA3999+999999101GE19MSL   +99999+99999GF108991081999003001999999KA1120N+02271MA1999999099631MD1999999+0181MW1631REMSYN004BUFR
0098825710999992016010200004-05500-045270FM-12+015399999V0203601N0000122000199010000199+02491+02271101021ADDAA101999999AZ101061AZ201061GF100991999999999999999999MA1999999099261MD1999999+0001REMSYN004BUFR
0149825710999992016010212004-05500-045270FM-12+015399999V0203601N0021100300199010000199+02721+02361101311ADDAA124001031AZ101061AZ201061GA1061+003001081GE19MSL   +99999+99999GF106991061999003001999999KA1120N+02321MA1999999099561MD1999999-0071REMSYN004BUFR
0136825710999992016010218004-05500-045270FM-12+015399999V0200501N0051100300199010000199+02941+02401100631ADDAA101999999AZ101061AZ201061GA1061+003001081GE19MSL   +99999+99999GF106991061999003001999999MA1999999099101MD1999999-0191REMSYN004BUFR
0104825710999992016010300004-05500-045270FM-12+015399999V0202701N0005122000199010000199+02691+02371100931ADDAA106003031AY161061AY211061GF100991999999999999999999MA1999999099201MD1999999-0061MW1001REMSYN004BUFR
0149825710999992016010312004-05500-045270FM-12+015399999V0200501N0036100300199010000199+02741+02251101481ADDAA124003031AZ101061AZ201061GA1061+003001081GE19MSL   +99999+99999GF106991061999003001999999KA1120N+02481MA1999999099511MD1999999-0051REMSYN004BUFR
0142825710999992016010318004-05500-045270FM-12+015399999V0203601N0041199999999010000199+03201+02321100801ADDAA106001031AY111061AY211061GA1041+003001081GE19MSL   +99999+99999GF104991041999003001999999MA1999999099081MD1999999-0021MW1181REMSYN004BUFR
0098825710999992016010400004-05500-045270FM-12+015399999V0200501N0015122000199010000199+02891+02371100931ADDAA101999999AZ101061AZ201061GF100991999999999999999999MA1999999099201MD1999999+0001REMSYN004BUFR
0149825710999992016010412004-05500-045270FM-12+015399999V0200501N0026100300199010000199+02771+02361101251ADDAA124001031AZ101061AZ201061GA1061+003001081GE19MSL   +99999+99999GF106991061999003001999999KA1120N+02481MA1999999099521MD1999999+0011REMSYN004BUFR
0152825710999992016010418004-05500-045270FM-12+015399999V0200501N0010199999999010000199+03421+02191100761ADDAA101999999AZ101061AZ201061GA1031+003001081GA2999+999999041GE19MSL   +99999+99999GF105991031999003001999999MA1999999099051MD1999999-0031REMSYN004BUFR
0136825710999992016010500004-05500-045270FM-12+015399999V0200501N0010199999999010000199+03051+02301100971ADDAA101999999AZ101061AZ201061GA1041+017501041GE19MSL   +99999+99999GF104991041999017501999999MA1999999099251MD1999999+0051REMSYN004BUFR
0149825710999992016010512004-05500-045270FM-12+015399999V0203601N0031100300199010000199+02771+02271101311ADDAA101999999AZ101061AZ201061GA1071+003001081GE19MSL   +99999+99999GF107991071999003001999999KA1120N+02561MA1999999099581MD1999999+0061REMSYN004BUFR
0168825710999992016010518004-05500-045270FM-12+015399999V0200901N0021100300199010000199+03091+02201100951ADDAA101999999AZ101061AZ201061GA1081+003001061GA2999+999999101GA3999+999999101GE19MSL   +99999+99999GF108991081999003001999999MA1999999099231MD1999999+0181REMSYN004BUFR
0136825710999992016010600004-05500-045270FM-12+015399999V0203601N0000199999999010000199+02841+02421101121ADDAA101999999AZ101061AZ201061GA1021+017501041GE19MSL   +99999+99999GF102991021999017501999999MA1999999099391MD1999999+0141REMSYN004BUFR
0181825710999992016010612004-05500-045270FM-12+015399999V0203601N0026100300199010000199+02821+02311101341ADDAA101999999AZ101061AZ201061GA1081+003001061GA2999+999999101GA3999+999999101GE19MSL   +99999+99999GF108991081999003001999999KA1120N+02551MA1999999099611MD1999999+0031REMSYN004BUFR
0136825710999992016010618004-05500-045270FM-12+015399999V0203601N0026100300199010000199+03441+02181100801ADDAA101999999AZ101061AZ201061GA1051+003001081GE19MSL   +99999+99999GF105991051999003001999999MA1999999099091MD1999999-0141REMSYN004BUFR
0136825710999992016010700004-05500-045270FM-12+015399999V0200501N0021100300199010000199+03051+02221101031ADDAA101999999AZ101061AZ201061GA1061+003001081GE19MSL   +99999+99999GF106991061999003001999999MA1999999099311MD1999999-0081REMSYN004BUFR
0149825710999992016010712004-05500-045270FM-12+015399999V0200501N0021100300199010000199+02651+02331101271ADDAA101999999AZ101061AZ201061GA1071+003001061GE19MSL   +99999+99999GF107991071999003001999999KA1120N+02641MA1999999099541MD1999999-0071REMSYN004BUFR
0158825710999992016010718004-05500-045270FM-12+015399999V0200501N0010199999999010000199+02821+02481100931ADDAA106010031AY161061AY221061GA1041+003001081GA2999+999999031GE19MSL   +99999+99999GF106991041999003001999999MA1999999099201MD1999999+0111MW1211REMSYN004BUFR
0142825710999992016010800004-05500-045270FM-12+015399999V0201401N0010100300199010000199+02591+02391101091ADDAA106000231AY161061AY221061GA1051+003001081GE19MSL   +99999+99999GF105991051999003001999999MA1999999099351MD1999999+0041MW1131REMSYN004BUFR
0187825710999992016010812004-05500-045270FM-12+015399999V0200501N0021100300199010000199+02441+02391101301ADDAA124034031AY191061AY261061GA1051+003001071GA2999+999999051GA3999+999999101GE19MSL   +99999+99999GF108991051999003001999999KA1120N+02341MA1999999099551MD1999999+0011MW1211REMSYN004BUFR
0136825710999992016010818004-05500-045270FM-12+015399999V0200501N0010100300199010000199+02851+02461100931ADDAA101999999AZ101061AZ201061GA1061+003001081GE19MSL   +99999+99999GF106991061999003001999999MA1999999099191MD1999999-0011REMSYN004BUFR
0142825710999992016010900004-05500-045270FM-12+015399999V0203601N0010199999999010000199+02491+02341101171ADDAA106008031AY161061AY221061GA1031+003001081GE19MSL   +99999+99999GF103991031999003001999999MA1999999099421MD1999999+0071MW1211REMSYN004BUFR
0187825710999992016010912004-05500-045270FM-12+015399999V0200501N0015100300199010000199+02471+02301101351ADDAA124019031AY161061AY221061GA1081+003001061GA2999+999999101GA3999+999999101GE19MSL   +99999+99999GF108991081999003001999999KA1120N+02391MA1999999099601MD1999999+0051MW1021REMSYN004BUFR
0136825710999992016010918004-05500-045270FM-12+015399999V0200901N0021100300199010000199+03101+02301100901ADDAA101999999AZ101061AZ201061GA1061+003001061GE19MSL   +99999+99999GF106991061999003001999999MA1999999099171MD1999999-0021REMSYN004BUFR
0168825710999992016011000004-05500-045270FM-12+015399999V0200501N0015100300199010000199+02801+02441100981ADDAA101999999AZ101061AZ201061GA1081+003001061GA2999+999999101GA3999+999999101GE19MSL   +99999+99999GF108991081999003001999999MA1999999099241MD1999999-0181REMSYN004BUFR
0187825710999992016011012004-05500-045270FM-12+015399999V0200501N0015100300199010000199+02541+02471101171ADDAA124002031AY161061AY221061GA1081+003001061GA2999+999999101GA3999+999999101GE19MSL   +99999+99999GF108991081999003001999999KA1120N+02501MA1999999099431MD1999999-0171MW1021REMSYN004BUFR
0152825710999992016011018004-05500-045270FM-12+015399999V0201401N0021199999999010000199+02871+02391100891ADDAA101999999AZ101061AZ201061GA1031+003001081GA2999+999999031GE19MSL   +99999+99999GF107991031999003001999999MA1999999099161MD1999999-0011REMSYN004BUFR
0098825710999992016011100004-05500-045270FM-12+015399999V0201401N0015122000199010000199+02751+02401101051ADDAA101999999AZ101061AZ201061GF100991999999999999999999MA1999999099311MD1999999+0071REMSYN004BUFR
0171825710999992016011112004-05500-045270FM-12+015399999V0200901N0015199999999010000199+02651+02391101231ADDAA124007031AY161061AY211061GA1041+003001081GA2999+999999031GE19MSL   +99999+99999GF105991041999003001999999KA1120N+02401MA1999999099491MD1999999+0061MW1021REMSYN004BUFR
0136825710999992016011118004-05500-045270FM-12+015399999V0200901N0036199999999010000199+03341+02111100791ADDAA101999999AZ101061AZ201061GA1041+003001081GE19MSL   +99999+99999GF104991041999003001999999MA1999999099701MD1999999-0091REMSYN004BUFR
0098825710999992016011200004-05500-045270FM-12+015399999V0200501N0005122000199010000199+02901+02271100861ADDAA101999999AZ101061AZ201061GF100991999999999999999999MA1999999099141MD1999999-0171REMSYN004BUFR
0149825710999992016011212004-05500-045270FM-12+015399999V0200501N0026199999999010000199+02801+02381101101ADDAA101999999AZ101061AZ201061GA1031+003001081GE19MSL   +99999+99999GF103991031999003001999999KA1120N+02591MA1999999099371MD1999999-0121REMSYN004BUFR
0136825710999992016011218004-05500-045270FM-12+015399999V0200501N0015199999999010000199+03471+02251100631ADDAA101999999AZ101061AZ201061GA1041+003001081GE19MSL   +99999+99999GF104991041999003001999999MA1999999098931MD1999999-0141REMSYN004BUFR
0098825710999992016011300004-05500-045270FM-12+015399999V0203201N0015122000199010000199+03071+02371100821ADDAA101999999AZ101061AZ201061GF100991999999999999999999MA1999999099111MD1999999-0031REMSYN004BUFR
0177825710999992016011312004-05500-045270FM-12+015399999V0200501N0021199999999010000199+02491+02311101101ADDAA124000131AY151061AY221061GA1031+003001081GA2999+999999031GE19MSL   +99999+99999GF106991031999003001999999MA1999999099371MD1999999+0001MW1021REMSYN004BUFREQDQ0125.6  2EATMN 
0158825710999992016011318004-05500-045270FM-12+015399999V0202301N0015100300199010000199+02591+02421101031ADDAA106002031AY191061AY261061GA1051+003001071GA2999+999999051GE19MSL   +99999+99999GF107991051999003001999999MA1999999099201MD1999999+0371MW1021REMSYN004BUFR
0136825710999992016011400004-05500-045270FM-12+015399999V0203601N0000199999999010000199+02491+02401101131ADDAA101999999AZ101061AZ201061GA1041+003001081GE19MSL   +99999+99999GF104991041999003001999999MA1999999099381MD1999999+0271REMSYN004BUFR
0165825710999992016011412004-05500-045270FM-12+015399999V0200901N0010199999999010000199+02591+02251101241ADDAA124001031AZ101061AZ201061GA1041+003001081GA2999+999999031GE19MSL   +99999+99999GF106991041999003001999999KA1120N+02341MA1999999099491MD1999999+0121REMSYN004BUFR
0136825710999992016011418004-05500-045270FM-12+015399999V0203601N0021101750199010000199+02891+02271100941ADDAA101999999AZ101061AZ201061GA1071+017501061GE19MSL   +99999+99999GF107991071999017501999999MA1999999099201MD1999999-0101REMSYN004BUFR
0136825710999992016011500004-05500-045270FM-12+015399999V0200501N0021100300199010000199+02771+02321101051ADDAA101999999AZ101061AZ201061GA1051+003001081GE19MSL   +99999+99999GF105991051999003001999999MA1999999099321MD1999999-0061REMSYN004BUFR
0149825710999992016011512004-05500-045270FM-12+015399999V0200501N0005100300199010000199+02641+02421101231ADDAA101999999AZ101061AZ201061GA1061+003001081GE19MSL   +99999+99999GF106991061999003001999999KA1120N+02551MA1999999099491MD1999999+0001REMSYN004BUFR
0136825710999992016011518004-05500-045270FM-12+015399999V0203601N0021100300199010000199+03401+02291100731ADDAA101999999AZ101061AZ201061GA1061+003001081GE19MSL   +99999+99999GF106991061999003001999999MA1999999099031MD1999999-0171REMSYN004BUFR
0174825710999992016011600004-05500-045270FM-12+015399999V0202301N0010100300199010000199+02691+02431101011ADDAA106000231AY191061AY261061GA1081+003001061GA2999+999999101GA3999+999999101GE19MSL   +99999+99999GF108991081999003001999999MA1999999099271MD1999999-0051MW1021REMSYN004BUFR
0181825710999992016011612004-05500-045270FM-12+015399999V0200501N0031100300199010000199+02691+02391101151ADDAA124000231AZ101061AZ201061GA1051+003001071GA2999+999999051GA3999+999999101GE19MSL   +99999+99999GF106991051999003001999999KA1120N+02551MA1999999099411MD1999999-0081REMSYN004BUFR
0136825710999992016011618004-05500-045270FM-12+015399999V0203601N0026100300199010000199+03251+02331100691ADDAA101999999AZ101061AZ201061GA1061+003001081GE19MSL   +99999+99999GF106991061999003001999999MA1999999098981MD1999999-0051REMSYN004BUFR
0152825710999992016011700004-05500-045270FM-12+015399999V0200501N0005199999999010000199+02751+02361100951ADDAA101999999AZ101061AZ201061GA1021+003001081GA2999+999999031GE19MSL   +99999+99999GF104991021999003001999999MA1999999099221MD1999999-0051REMSYN004BUFR
0149825710999992016011712004-05500-045270FM-12+015399999V0203601N0015100300199010000199+02691+02391101211ADDAA101999999AZ101061AZ201061GA1061+003001081GE19MSL   +99999+99999GF106991061999003001999999KA1120N+02541MA1999999099471MD1999999+0061REMSYN004BUFR
0136825710999992016011718004-05500-045270FM-12+015399999V0200501N0010100300199010000199+03071+02351100861ADDAA101999999AZ101061AZ201061GA1061+003001081GE19MSL   +99999+99999GF106991061999003001999999MA1999999099141MD1999999+0161REMSYN004BUFR
0136825710999992016011800004-05500-045270FM-12+015399999V0201801N0010199999999010000199+02521+02441101091ADDAA101999999AZ101061AZ201061GA1031+003001081GE19MSL   +99999+99999GF103991031999003001999999MA1999999099351MD1999999+0131REMSYN004BUFR
0187825710999992016011812004-05500-045270FM-12+015399999V0200901N0015100300199010000199+02571+02491101171ADDAA124000831AY151061AY221061GA1081+003001061GA2999+999999101GA3999+999999101GE19MSL   +99999+99999GF108991081999003001999999KA1120N+02571MA1999999099431MD1999999-0041MW1201REMSYN004BUFR
0158825710999992016011818004-05500-045270FM-12+015399999V0200501N0031100300199010000199+02841+02391100801ADDAA106004031AY161061AY221061GA1051+003001061GA2999+999999031GE19MSL   +99999+99999GF107991051999003001999999MA1999999099071MD1999999-0071MW1021REMSYN004BUFR
0142825710999992016011900004-05500-045270FM-12+015399999V0200501N0010101750199010000199+02501+02361101071ADDAA106002031AY161061AY221061GA1061+017501031GE19MSL   +99999+99999GF106991061999017501999999MA1999999099321MD1999999-0031MW1021REMSYN004BUFR
0149825710999992016011912004-05500-045270FM-12+015399999V0200501N0015100300199010000199+02641+02441999999ADDAA124006031AZ101061AZ201061GA1071+003001081GE19MSL   +99999+99999GF107991071999003001999999KA1120N+02401MA1999999099371MD1999999-0061REMSYN004BUFR
0152825710999992016011918004-05500-045270FM-12+015399999V0200901N0031100300199010000199+02951+02311100791ADDAA101999999AZ101061AZ201061GA1051+003001081GA2999+999999041GE19MSL   +99999+99999GF106991051999003001999999MA1999999099061MD1999999-0011REMSYN004BUFR
0136825710999992016012000004-05500-045270FM-12+015399999V0203601N0031100300199010000199+02671+02391101001ADDAA101999999AZ101061AZ201061GA1071+003001081GE19MSL   +99999+99999GF107991071999003001999999MA1999999099261MD1999999-0061REMSYN004BUFR
0187825710999992016012012004-05500-045270FM-12+015399999V0200501N0015100300199010000199+02451+02301101231ADDAA124000431AY151061AY221061GA1081+003001081GA2999+999999101GA3999+999999101GE19MSL   +99999+99999GF108991081999003001999999KA1120N+02391MA1999999099481MD1999999+0111MW1021REMSYN004BUFR
0224825710999992016012018004-05500-045267FM-12+015399999V0203601N002619999999N010000199+02851+02311100861ADDAA106000131AY151021AY221021GA1041+004501081GA2999+999999031GE19MSL   +99999+99999GF106991041999004501999999MA1999999099131MD1999999+0071MW1011REMSYN07082571 21497 63605 10285 20231 39913 40086 70152 84230 333 58007 69911=
0136825710999992016012100004-05500-045270FM-12+015399999V0200501N0005100300199010000199+02621+02371101121ADDAA101999999AZ101061AZ201061GA1071+003001081GE19MSL   +99999+99999GF107991071999003001999999MA1999999099371MD1999999+0111REMSYN004BUFR
0165825710999992016012112004-05500-045270FM-12+015399999V0203601N0015100300199010000199+02571+02401101191ADDAA124000131AZ101061AZ201061GA1051+003001081GA2999+999999031GE19MSL   +99999+99999GF106991051999003001999999KA1120N+02421MA1999999099451MD1999999-0031REMSYN004BUFR
0136825710999992016012118004-05500-045270FM-12+015399999V0203201N0041100300199010000199+03071+02211100761ADDAA101999999AZ101061AZ201061GA1071+003001061GE19MSL   +99999+99999GF107991071999003001999999MA1999999099041MD1999999-0091REMSYN004BUFR
0174825710999992016012200004-05500-045270FM-12+015399999V0200501N0010100300199010000199+02391+02371101201ADDAA106074031AY191061AY261061GA1081+003001061GA2999+999999101GA3999+999999101GE19MSL   +99999+99999GF108991081999003001999999MA1999999099451MD1999999+0081MW1911REMSYN004BUFR
0187825710999992016012212004-05500-045270FM-12+015399999V0200501N0005100300199010000199+02391+02351101241ADDAA124096031AY161061AY221061GA1081+003001061GA2999+999999101GA3999+999999101GE19MSL   +99999+99999GF108991081999003001999999KA1120N+02341MA1999999099481MD1999999+0031MW1521REMSYN004BUFR
0174825710999992016012218004-05500-045270FM-12+015399999V0200901N0005100300199010000199+02521+02381101071ADDAA106002031AY161061AY221061GA1081+003001071GA2999+999999101GA3999+999999101GE19MSL   +99999+99999GF108991081999003001999999MA1999999099321MD1999999+0281MW1021REMSYN004BUFR
0142825710999992016012300004-05500-045270FM-12+015399999V0200501N0010100300199010000199+02471+02381101201ADDAA106002031AY161061AY221061GA1071+003001061GE19MSL   +99999+99999GF107991071999003001999999MA1999999099451MD1999999+0001MW1021REMSYN004BUFR
0181825710999992016012512004-05500-045270FM-12+015399999V0200501N0010100300199010000199+02671+02411101411ADDAA124006031AZ101061AZ201061GA1081+003001061GA2999+999999101GA3999+999999101GE19MSL   +99999+99999GF108991081999003001999999KA1120N+02491MA1999999099661MD1999999+0001REMSYN004BUFR
0152825710999992016012518004-05500-045270FM-12+015399999V0200901N0026199999999010000199+03091+02441101011ADDAA101999999AZ101061AZ201061GA1041+003001081GA2999+999999031GE19MSL   +99999+99999GF105991041999003001999999MA1999999099281MD1999999-0101REMSYN004BUFR
0158825710999992016012600004-05500-045270FM-12+015399999V0200501N0005199999999010000199+02671+02481101121ADDAA106004031AY161061AY221061GA1021+003001081GA2999+999999031GE19MSL   +99999+99999GF105991021999003001999999MA1999999099381MD1999999-0141MW1011REMSYN004BUFR
0187825710999992016012612004-05500-045270FM-12+015399999V0200901N0015199999999002000199+02351+02331101401ADDAA124054031AY161061AY221061GA1041+003001071GA2999+999999051GA3999+999999101GE19MSL   +99999+99999GF108991041999003001999999KA1120N+02361MA1999999099651MD1999999-0011MW1611REMSYN004BUFR
0158825710999992016012618004-05500-045270FM-12+015399999V0200501N0021199999999010000199+02821+02441100941ADDAA106002031AY161061AY221061GA1021+003001081GA2999+999999031GE19MSL   +99999+99999GF107991021999003001999999MA1999999099211MD1999999-0071MW1011REMSYN004BUFR
0136825710999992016012700004-05500-045270FM-12+015399999V0203601N0031199999999010000199+02541+02311101221ADDAA101999999AZ101061AZ201061GA1041+003001081GE19MSL   +99999+99999GF104991041999003001999999MA1999999099461MD1999999+0081REMSYN004BUFR
0187825710999992016012712004-05500-045270FM-12+015399999V0203601N0000100300199010000199+02541+02461101301ADDAA124002031AY161061AY221061GA1081+003001061GA2999+999999101GA3999+999999101GE19MSL   +99999+99999GF108991081999003001999999KA1120N+02361MA1999999099551MD1999999-0101MW1021REMSYN004BUFR
0174825710999992016012718004-05500-045270FM-12+015399999V0200901N0041100300199010000199+02691+02391101061ADDAA106000731AY161061AY221061GA1081+003001061GA2999+999999101GA3999+999999101GE19MSL   +99999+99999GF108991081999003001999999MA1999999099311MD1999999+0101MW1021REMSYN004BUFR
0174825710999992016012800004-05500-045270FM-12+015399999V0203601N0000100300199010000199+02291+02251101271ADDAA106025031AY191061AY261061GA1051+003001071GA2999+999999051GA3999+999999101GE19MSL   +99999+99999GF108991051999003001999999MA1999999099511MD1999999+0051MW1211REMSYN004BUFR
0187825710999992016012812004-05500-045270FM-12+015399999V0202701N0005199999999010000199+02321+02291101511ADDAA124032031AY161061AY221061GA1041+003001071GA2999+999999051GA3999+999999101GE19MSL   +99999+99999GF108991041999003001999999KA1120N+02271MA1999999099741MD1999999+0191MW1611REMSYN004BUFR
0174825710999992016012818004-05500-045270FM-12+015399999V0202301N0010100300199010000199+02491+02381101121ADDAA106001031AY161061AY221061GA1061+003001071GA2999+999999051GA3999+999999101GE19MSL   +99999+99999GF108991061999003001999999MA1999999099371MD1999999+0061MW1021REMSYN004BUFR
0174825710999992016012900004-05500-045270FM-12+015399999V0203601N0000100300199010000199+02421+02251101251ADDAA106000131AY161061AY221061GA1081+003001061GA2999+999999051GA3999+999999101GE19MSL   +99999+99999GF108991081999003001999999MA1999999099491MD1999999-0021MW1021REMSYN004BUFR
0171825710999992016012912004-05500-045270FM-12+015399999V0201801N0005199999999010000199+02521+02361101291ADDAA124002031AY121061AY241061GA1031+003001081GA2999+999999031GE19MSL   +99999+99999GF106991031999003001999999KA1120N+02331MA1999999099541MD1999999-0201MW1021REMSYN004BUFR
0152825710999992016012918004-05500-045270FM-12+015399999V0200501N0026199999999010000199+03191+02211100841ADDAA101999999AZ101061AZ201061GA1041+003001081GA2999+999999031GE19MSL   +99999+99999GF106991041999003001999999MA1999999099121MD1999999-0251REMSYN004BUFR
0142825710999992016013000004-05500-045270FM-12+015399999V0200501N0015199999999010000199+02691+02411101051ADDAA106002031AY161061AY221061GA1031+003001081GE19MSL   +99999+99999GF103991031999003001999999MA1999999099311MD1999999-0181MW1021REMSYN004BUFR
0149825710999992016013012004-05500-045270FM-12+015399999V0200501N0005199999999010000199+02641+02391101241ADDAA124002031AZ101061AZ201061GA1021+003001081GE19MSL   +99999+99999GF102991021999003001999999KA1120N+02381MA1999999099491MD1999999-0051REMSYN004BUFR
0152825710999992016013018004-05500-045270FM-12+015399999V0200501N0021199999999010000199+03221+02161100861ADDAA101999999AZ101061AZ201061GA1031+003001081GA2999+999999031GE19MSL   +99999+99999GF105991031999003001999999MA1999999099141MD1999999+0021REMSYN004BUFR
0136825710999992016013100004-05500-045270FM-12+015399999V0200501N0005199999999010000199+02741+02281101061ADDAA101999999AZ101061AZ201061GA1021+003001081GE19MSL   +99999+99999GF102991021999003001999999MA1999999099331MD1999999+0021REMSYN004BUFR
0149825710999992016013112004-05500-045270FM-12+015399999V0200501N0005100300199010000199+02541+02281101311ADDAA101999999AZ101061AZ201061GA1061+003001081GE19MSL   +99999+99999GF106991061999003001999999KA1120N+02321MA1999999099571MD1999999+0081REMSYN004BUFR
0136825710999992016013118004-05500-045270FM-12+015399999V0200501N0021199999999010000199+03191+02241100941ADDAA101999999AZ101061AZ201061GA1021+003001081GE19MSL   +99999+99999GF102991021999003001999999MA1999999099221MD1999999+0081REMSYN004BUFR
0098825710999992016020100004-05500-045270FM-12+015399999V0203601N0000122000199010000199+02741+02281101101ADDAA101999999AZ101061AZ201061GF100991999999999999999999MA1999999099361MD1999999+0031REMSYN004BUFR
0149825710999992016020112004-05500-045270FM-12+015399999V0200901N0010100300199010000199+02741+02321101411ADDAA101999999AZ101061AZ201061GA1061+003001081GE19MSL   +99999+99999GF106991061999003001999999KA1120N+02321MA1999999099671MD1999999+0101REMSYN004BUFR
0142825710999992016020118004-05500-045270FM-12+015399999V0200501N0031100300199010000199+03091+02231100971ADDAA106000331AY161061AY221061GA1071+003001081GE19MSL   +99999+99999GF107991071999003001999999MA1999999099241MD1999999+0021MW1031REMSYN004BUFR
0136825710999992016020200004-05500-045270FM-12+015399999V0200901N0015100300199010000199+02271+02051101251ADDAA101999999AZ101061AZ201061GA1061+003001081GE19MSL   +99999+99999GF106991061999003001999999MA1999999099501MD1999999+0141REMSYN004BUFR
0165825710999992016020212004-05500-045270FM-12+015399999V0200901N0010199999999010000199+02471+02191101311ADDAA124000331AZ101061AZ201061GA1011+003001081GA2999+999999031GE19MSL   +99999+99999GF106991011999003001999999KA1120N+02221MA1999999099551MD1999999-0121REMSYN004BUFR
0168825710999992016020218004-05500-045270FM-12+015399999V0200501N0031199999999010000199+03041+02191100951ADDAA101999999AZ101061AZ201061GA1021+003001081GA2999+999999031GA3999+999999001GE19MSL   +99999+99999GF106991021999003001999999MA1999999099211MD1999999-0031REMSYN004BUFR
0136825710999992016020300004-05500-045270FM-12+015399999V0200501N0010101750199010000199+02591+02271101091ADDAA101999999AZ101061AZ201061GA1061+017501031GE19MSL   +99999+99999GF106991061999017501999999MA1999999099341MD1999999-0161REMSYN004BUFR
0187825710999992016020312004-05500-045270FM-12+015399999V0203601N0010100300199010000199+02441+02271101241ADDAA124000231AY161061AY221061GA1081+003001061GA2999+999999101GA3999+999999101GE19MSL   +99999+99999GF108991081999003001999999KA1120N+02351MA1999999099491MD1999999-0061MW1021REMSYN004BUFR
0098825710999992016020400004-05500-045270FM-12+015399999V0203601N0000122000199010000199+02691+02391101021ADDAA101999999AZ101061AZ201061GF100991999999999999999999MA1999999099271MD1999999-0071REMSYN004BUFR
0149825710999992016020412004-05500-045270FM-12+015399999V0203601N0005100300199010000199+02391+02151101251ADDAA101999999AZ101061AZ201061GA1071+003001061GE19MSL   +99999+99999GF107991071999003001999999KA1120N+02251MA1999999099501MD1999999+0011REMSYN004BUFR
0152825710999992016020418004-05500-045270FM-12+015399999V0200501N0015199999999010000199+03251+02301100911ADDAA101999999AZ101061AZ201061GA1031+003001081GA2999+999999031GE19MSL   +99999+99999GF104991031999003001999999MA1999999099191MD1999999+0101REMSYN004BUFR
0142825710999992016020500004-05500-045270FM-12+015399999V0203601N0000199999999010000199+02571+02351101011ADDAA106000331AY191061AY261061GA1021+003001081GE19MSL   +99999+99999GF102991021999003001999999MA1999999099261MD1999999-0011MW1131REMSYN004BUFR
0155825710999992016020512004-05500-045270FM-12+015399999V0203201N0005100300199010000199+02291+02251101341ADDAA124009031AY191061AY261061GA1071+003001061GE19MSL   +99999+99999GF107991071999003001999999KA1120N+02151MA1999999099581MD1999999+0081MW1021REMSYN004BUFR
0136825710999992016020518004-05500-045270FM-12+015399999V0200901N0026100300199010000199+03221+02321101071ADDAA101999999AZ101061AZ201061GA1051+003001081GE19MSL   +99999+99999GF106991051999003001999999MA1999999099341MD1999999+0151REMSYN004BUFR
0136825710999992016020600004-05500-045270FM-12+015399999V0203601N0000199999999010000199+02841+02311101111ADDAA101999999AZ101061AZ201061GA1011+003001081GE19MSL   +99999+99999GF101991011999003001999999MA1999999099361MD1999999+0101REMSYN004BUFR
0149825710999992016020612004-05500-045270FM-12+015399999V0200501N0015100300199010000199+02721+02481101261ADDAA101999999AZ101061AZ201061GA1051+003001081GE19MSL   +99999+99999GF105991051999003001999999KA1120N+02371MA1999999099561MD1999999-0051REMSYN004BUFR
0136825710999992016020618004-05500-045270FM-12+015399999V0200501N0021100300199010000199+03221+02331101061ADDAA101999999AZ101061AZ201061GA1061+003001081GE19MSL   +99999+99999GF106991061999003001999999MA1999999099341MD1999999+0001REMSYN004BUFR
0098825710999992016020700004-05500-045270FM-12+015399999V0203601N0000122000199010000199+02901+02501101131ADDAA101999999AZ101061AZ201061GF100991999999999999999999MA1999999099401MD1999999+0041REMSYN004BUFR
0149825710999992016020712004-05500-045270FM-12+015399999V0200501N0021100300199010000199+02841+02461101321ADDAA101999999AZ101061AZ201061GA1051+003001081GE19MSL   +99999+99999GF105991051999003001999999KA1120N+02491MA1999999099591MD1999999+0061REMSYN004BUFR
0136825710999992016020718004-05500-045270FM-12+015399999V0200501N0026199999999010000199+03241+02271100851ADDAA101999999AZ101061AZ201061GA1021+003001081GE19MSL   +99999+99999GF102991021999003001999999MA1999999099141MD1999999-0201REMSYN004BUFR
0098825710999992016020800004-05500-045270FM-12+015399999V0200501N0010122000199010000199+02901+02191101001ADDAA101999999AZ101061AZ201061GF100991999999999999999999MA1999999099281MD1999999-0121REMSYN004BUFR
0155825710999992016020812004-05500-045270FM-12+015399999V0203601N0031100300199010000199+02671+02391101411ADDAA124002031AY161061AY211061GA1051+003001081GE19MSL   +99999+99999GF105991051999003001999999KA1120N+02491MA1999999099681MD1999999+0091MW1021REMSYN004BUFR
0136825710999992016020818004-05500-045270FM-12+015399999V0200901N0026199999999010000199+03321+02221101051ADDAA101999999AZ101061AZ201061GA1031+003001081GE19MSL   +99999+99999GF103991031999003001999999MA1999999099341MD1999999+0201REMSYN004BUFR
0098825710999992016020900004-05500-045270FM-12+015399999V0200501N0005122000199010000199+02891+02121101201ADDAA101999999AZ101061AZ201061GF100991999999999999999999MA1999999099471MD1999999+0191REMSYN004BUFR
0149825710999992016020912004-05500-045270FM-12+015399999V0200901N0015199999999010000199+02791+02311101421ADDAA101999999AZ101061AZ201061GA1011+003001081GE19MSL   +99999+99999GF101991011999003001999999KA1120N+02361MA1999999099691MD1999999+0011REMSYN004BUFR
0136825710999992016020918004-05500-045270FM-12+015399999V0200501N0026199999999010000199+03421+02161101031ADDAA101999999AZ101061AZ201061GA1041+003001081GE19MSL   +99999+99999GF104991041999003001999999MA1999999099321MD1999999-0021REMSYN004BUFR
0142825710999992016021000004-05500-045270FM-12+015399999V0200501N0005199999999010000199+02921+02291101141ADDAA101999999AY121061AY211061GA1011+003001091GE19MSL   +99999+99999GF101991011999003001999999MA1999999099411MD1999999+0061MW1131REMSYN004BUFR
0149825710999992016021012004-05500-045270FM-12+015399999V0200501N0026199999999010000199+02751+02381101341ADDAA101999999AZ101061AZ201061GA1021+003001081GE19MSL   +99999+99999GF102991021999003001999999KA1120N+02451MA1999999099611MD1999999-0081REMSYN004BUFR
0142825710999992016021018004-05500-045270FM-12+015399999V0201401N0041100300199010000199+03191+02431100961ADDAA106000931AY121061AY211061GA1051+003001061GE19MSL   +99999+99999GF105991051999003001999999MA1999999099251MD1999999-0071MW1811REMSYN004BUFR
0142825710999992016021100004-05500-045270FM-12+015399999V0201401N0051199999999010000199+02721+02361101311ADDAA106000931AY161061AY211061GA1041+003001061GE19MSL   +99999+99999GF104991041999003001999999MA1999999099571MD1999999+0161MW1811REMSYN004BUFR
0171825710999992016021112004-05500-045270FM-12+015399999V0200501N0005199999999010000199+02691+02391101331ADDAA124004031AY191061AY261061GA1021+003001081GA2999+999999031GE19MSL   +99999+99999GF103991021999003001999999KA1120N+02271MA1999999099591MD1999999-0021MW1031REMSYN004BUFR
0152825710999992016021118004-05500-045270FM-12+015399999V0200501N0021199999999010000199+03341+02371100801ADDAA101999999AZ101061AZ201061GA1031+003001081GA2999+999999041GE19MSL   +99999+99999GF105991031999003001999999MA1999999099081MD1999999-0171REMSYN004BUFR
0187825710999992016021212004-05500-045270FM-12+015399999V0202301N0010100300199010000199+02421+02391101371ADDAA124007031AY161061AY221061GA1081+003001061GA2999+999999101GA3999+999999101GE19MSL   +99999+99999GF108991081999003001999999KA1120N+02401MA1999999099631MD1999999+0041MW1201REMSYN004BUFR
0142825710999992016021218004-05500-045270FM-12+015399999V0203601N0046100300199010000199+02621+02271101091ADDAA106000331AY161061AY221061GA1071+003001061GE19MSL   +99999+99999GF107991071999003001999999MA1999999099351MD1999999+0271MW1021REMSYN004BUFR
0152825710999992016021300004-05500-045270FM-12+015399999V0203601N0000199999999010000199+02471+02341101131ADDAA101999999AZ101061AZ201061GA1021+003001081GA2999+999999031GE19MSL   +99999+99999GF104991021999003001999999MA1999999099381MD1999999+0111REMSYN004BUFR
0155825710999992016021312004-05500-045270FM-12+015399999V0203601N0015100300199010000199+02701+02431101281ADDAA124000431AY151061AY201061GA1061+003001081GE19MSL   +99999+99999GF106991061999003001999999KA1120N+02371MA1999999099531MD1999999-0101MW1021REMSYN004BUFR
0136825710999992016021318004-05500-045270FM-12+015399999V0203601N0021199999999010000199+03191+02221100901ADDAA101999999AZ101061AZ201061GA1041+003001081GE19MSL   +99999+99999GF104991041999003001999999MA1999999099171MD1999999-0181REMSYN004BUFR
0158825710999992016021400004-05500-045270FM-12+015399999V0201401N0005199999999010000199+02491+02361101121ADDAA106000631AY161061AY211061GA1011+003001081GA2999+999999031GE19MSL   +99999+99999GF103991011999003001999999MA1999999099391MD1999999+0011MW1021REMSYN004BUFR
0171825710999992016021412004-05500-045270FM-12+015399999V0203601N0010199999999010000199+02621+02411101251ADDAA124000931AY151061AY211061GA1041+003001081GA2999+999999031GE19MSL   +99999+99999GF105991041999003001999999KA1120N+02381MA1999999099501MD1999999-0031MW1021REMSYN004BUFR
0168825710999992016021418004-05500-045270FM-12+015399999V0200501N0026199999999010000199+03191+02351100881ADDAA101999999AZ101061AZ201061GA1041+003001081GA2999+999999031GA3999+999999001GE19MSL   +99999+99999GF106991041999003001999999MA1999999099151MD1999999-0021REMSYN004BUFR
0174825710999992016021500004-05500-045270FM-12+015399999V0200501N0021100300199004000199+02321+02151101111ADDAA106000731AY191061AY261061GA1051+003001071GA2999+999999051GA3999+999999101GE19MSL   +99999+99999GF108991051999003001999999MA1999999099361MD1999999-0031MW1611REMSYN004BUFR
0098825710999992016021600004-05500-045270FM-12+015399999V0203601N0000122000199010000199+02671+02221101011ADDAA101999999AZ101061AZ201061GF100991999999999999999999MA1999999099271MD1999999-0091REMSYN004BUFR
0165825710999992016021612004-05500-045270FM-12+015399999V0203601N0010199999999010000199+02691+02431101241ADDAA101999999AZ101061AZ201061GA1031+003001081GA2999+999999031GE19MSL   +99999+99999GF104991031999003001999999KA1120N+02371MA1999999099501MD1999999+0021REMSYN004BUFR
0152825710999992016021618004-05500-045270FM-12+015399999V0200901N0026199999999010000199+03341+02281100781ADDAA101999999AZ101061AZ201061GA1031+003001081GA2999+999999031GE19MSL   +99999+99999GF104991031999003001999999MA1999999099071MD1999999-0201REMSYN004BUFR
0136825710999992016021700004-05500-045270FM-12+015399999V0200901N0005199999999010000199+02921+02381100921ADDAA101999999AZ101061AZ201061GA1031+017501031GE19MSL   +99999+99999GF103991031999017501999999MA1999999099191MD1999999-0081REMSYN004BUFR
0149825710999992016021712004-05500-045270FM-12+015399999V0203601N0015199999999010000199+02771+02401101111ADDAA101999999AZ101061AZ201061GA1031+003001081GE19MSL   +99999+99999GF103991031999003001999999KA1120N+02601MA1999999099381MD1999999-0121REMSYN004BUFR
0136825710999992016021718004-05500-045270FM-12+015399999V0200901N0036199999999010000199+03441+02041100711ADDAA101999999AZ101061AZ201061GA1031+003001081GE19MSL   +99999+99999GF103991031999003001999999MA1999999099011MD1999999-0061REMSYN004BUFR
0098825710999992016021800004-05500-045270FM-12+015399999V0200501N0005122000199010000199+02921+02431100971ADDAA101999999AZ101061AZ201061GF100991999999999999999999MA1999999099251MD1999999+0061REMSYN004BUFR
0149825710999992016021812004-05500-045270FM-12+015399999V0200501N0010199999999010000199+02891+02411101201ADDAA101999999AZ101061AZ201061GA1041+003001081GE19MSL   +99999+99999GF104991041999003001999999KA1120N+02551MA1999999099481MD1999999+0101REMSYN004BUFR
0136825710999992016021818004-05500-045270FM-12+015399999V0200501N0021199999999010000199+03351+02241100751ADDAA101999999AZ101061AZ201061GA1031+003001081GE19MSL   +99999+99999GF103991031999003001999999MA1999999099051MD1999999+0041REMSYN004BUFR
0152825710999992016021900004-05500-045270FM-12+015399999V0200501N0010199999999010000199+02891+02341100891ADDAA101999999AZ101061AZ201061GA1021+003001081GA2999+999999031GE19MSL   +99999+99999GF103991021999003001999999MA1999999099171MD1999999-0081REMSYN004BUFR
0149825710999992016021912004-05500-045270FM-12+015399999V0200501N0021100300199010000199+02721+02431101231ADDAA101999999AZ101061AZ201061GA1061+003001081GE19MSL   +99999+99999GF106991061999003001999999KA1120N+02581MA1999999099501MD1999999+0021REMSYN004BUFR
0136825710999992016022000004-05500-045270FM-12+015399999V0200501N0010199999999010000199+02791+02421101001ADDAA101999999AZ101061AZ201061GA1021+017501031GE19MSL   +99999+99999GF102991021999017501999999MA1999999099271MD1999999+0101REMSYN004BUFR
0149825710999992016022012004-05500-045270FM-12+015399999V0200501N0015100300199010000199+02721+02361101211ADDAA101999999AZ101061AZ201061GA1061+003001081GE19MSL   +99999+99999GF106991061999003001999999KA1120N+02481MA1999999099481MD1999999-0021REMSYN004BUFR
0136825710999992016022018004-05500-045270FM-12+015399999V0200901N0051199999999010000199+03271+02261100791ADDAA101999999AZ101061AZ201061GA1021+003001081GE19MSL   +99999+99999GF102991021999003001999999MA1999999099081MD1999999+0011REMSYN004BUFR
0142825710999992016022100004-05500-045270FM-12+015399999V0200501N0010199999999010000199+02741+02361100951ADDAA106000231AY161061AY201061GA1031+017501031GE19MSL   +99999+99999GF103991031999017501999999MA1999999099221MD1999999-0051MW1031REMSYN004BUFR
0149825710999992016022112004-05500-045270FM-12+015399999V0200501N0021199999999010000199+02741+02251101091ADDAA124000231AZ101061AZ201061GA1021+003001081GE19MSL   +99999+99999GF102991021999003001999999KA1120N+02381MA1999999099361MD1999999-0121REMSYN004BUFR
0136825710999992016022118004-05500-045270FM-12+015399999V0201401N0031199999999010000199+03371+02221100691ADDAA101999999AZ101061AZ201061GA1031+003001081GE19MSL   +99999+99999GF103991031999003001999999MA1999999098981MD1999999-0101REMSYN004BUFR
0098825710999992016022200004-05500-045270FM-12+015399999V0200501N0000122000199010000199+02901+02291100781ADDAA101999999AZ101061AZ201061GF100991999999999999999999MA1999999099061MD1999999-0161REMSYN004BUFR
0181825710999992016022212004-05500-045270FM-12+015399999V0200501N0015100300199010000199+02691+02451101071ADDAA101999999AZ101061AZ201061GA1081+003001061GA2999+999999101GA3999+999999101GE19MSL   +99999+99999GF108991081999003001999999KA1120N+02481MA1999999099341MD1999999-0021REMSYN004BUFR
0136825710999992016022218004-05500-045270FM-12+015399999V0200901N0036199999999010000199+03471+02221100641ADDAA101999999AZ101061AZ201061GA1031+003001081GE19MSL   +99999+99999GF103991031999003001999999MA1999999098941MD1999999-0041REMSYN004BUFR
0098825710999992016022300004-05500-045270FM-12+015399999V0203601N0000122000199010000199+02941+02351101191ADDAA101999999AZ101061AZ201061GF100991999999999999999999MA1999999099181MD1999999+0121REMSYN004BUFR
0149825710999992016022312004-05500-045270FM-12+015399999V0203601N0021199999999010000199+02821+02401101231ADDAA101999999AZ101061AZ201061GA1031+003001081GE19MSL   +99999+99999GF103991031999003001999999KA1120N+02451MA1999999099511MD1999999+0171REMSYN004BUFR
0136825710999992016022318004-05500-045270FM-12+015399999V0200901N0021199999999010000199+03451+02231100791ADDAA101999999AZ101061AZ201061GA1021+003001081GE19MSL   +99999+99999GF102991021999003001999999MA1999999099091MD1999999+0151REMSYN004BUFR
0158825710999992016022400004-05500-045270FM-12+015399999V0200501N0010199999999010000199+03121+02411101091ADDAA101999999AY111061AY201061GA1021+003001091GA2999+999999031GE19MSL   +99999+99999GF104991021999003001999999MA1999999099371MD1999999+0191MW1131REMSYN004BUFR
0171825710999992016022412004-05500-045270FM-12+015399999V0203601N0000199999999010000199+02641+02241101081ADDAA124000131AY151061AY211061GA1011+003001081GA2999+999999031GE19MSL   +99999+99999GF103991011999003001999999KA1120N+02461MA1999999099361MD1999999-0151MW1021REMSYN004BUFR
0152825710999992016022418004-05500-045270FM-12+015399999V0200501N0046199999999010000199+03471+02071100741ADDAA101999999AZ101061AZ201061GA1021+003001081GA2999+999999031GE19MSL   +99999+99999GF103991021999003001999999MA1999999099041MD1999999-0051REMSYN004BUFR
0158825710999992016022500004-05500-045270FM-12+015399999V0200501N0021199999999010000199+02971+02421100961ADDAA101999999AY111061AY201061GA1011+003001091GA2999+999999031GE19MSL   +99999+99999GF102991011999003001999999MA1999999099251MD1999999-0121MW1131REMSYN004BUFR
0149825710999992016022512004-05500-045270FM-12+015399999V0200501N0021100300199010000199+02721+02381101141ADDAA101999999AZ101061AZ201061GA1061+003001081GE19MSL   +99999+99999GF106991061999003001999999KA1120N+02471MA1999999099411MD1999999+0051REMSYN004BUFR
0152825710999992016022518004-05500-045270FM-12+015399999V0200501N0021100300199010000199+03321+02401100701ADDAA101999999AZ101061AZ201061GA1051+003001081GA2999+999999031GE19MSL   +99999+99999GF106991051999003001999999MA1999999098991MD1999999-0051REMSYN004BUFR
0136825710999992016022600004-05500-045270FM-12+015399999V0200501N0021199999999010000199+02901+02521100811ADDAA101999999AZ101061AZ201061GA1011+017501031GE19MSL   +99999+99999GF101991011999017501999999MA1999999099091MD1999999-0161REMSYN004BUFR
0155825710999992016022612004-05500-045270FM-12+015399999V0200901N0010100300199010000199+02471+02171101031ADDAA124001031AY161061AY211061GA1071+003001061GE19MSL   +99999+99999GF107991071999003001999999KA1120N+02461MA1999999099301MD1999999-0111MW1021REMSYN004BUFR
0152825710999992016022618004-05500-045270FM-12+015399999V0203601N0015100300199010000199+03021+02391100871ADDAA101999999AZ101061AZ201061GA1051+003001081GA2999+999999031GE19MSL   +99999+99999GF106991051999003001999999MA1999999099151MD1999999+0161REMSYN004BUFR
0136825710999992016022700004-05500-045270FM-12+015399999V0203601N0000199999999010000199+02771+02501100941ADDAA101999999AZ101061AZ201061GA1041+003001081GE19MSL   +99999+99999GF104991041999003001999999MA1999999099201MD1999999+0111REMSYN004BUFR
0187825710999992016022712004-05500-045270FM-12+015399999V0201801N0010100300199010000199+02341+02241101251ADDAA124005031AY191061AY261061GA1081+003001061GA2999+999999101GA3999+999999101GE19MSL   +99999+99999GF108991081999003001999999KA1120N+02341MA1999999099501MD1999999+0201MW1021REMSYN004BUFR
0136825710999992016022718004-05500-045270FM-12+015399999V0203201N0010100300199010000199+02991+02551100931ADDAA101999999AZ101061AZ201061GA1061+003001081GE19MSL   +99999+99999GF106991061999003001999999MA1999999099201MD1999999+0051REMSYN004BUFR
0098825710999992016022800004-05500-045270FM-12+015399999V0203601N0010122000199010000199+02751+02461101051ADDAA101999999AZ101061AZ201061GF100991999999999999999999MA1999999099301MD1999999+0201REMSYN004BUFR
0149825710999992016022812004-05500-045270FM-12+015399999V0203601N0015100300199010000199+02691+02391101301ADDAA101999999AZ101061AZ201061GA1061+003001081GE19MSL   +99999+99999GF106991061999003001999999KA1120N+02421MA1999999099561MD1999999+0061REMSYN004BUFR
0136825710999992016022818004-05500-045270FM-12+015399999V0200901N0015100300199010000199+03221+02431100871ADDAA101999999AZ101061AZ201061GA1051+003001081GE19MSL   +99999+99999GF105991051999003001999999MA1999999099151MD1999999-0051REMSYN004BUFR
0098825710999992016022900004-05500-045270FM-12+015399999V0203601N0000122000199010000199+02901+02501101031ADDAA101999999AZ101061AZ201061GF100991999999999999999999MA1999999099301MD1999999+0001REMSYN004BUFR
0149825710999992016022912004-05500-045270FM-12+015399999V0200501N0015100300199010000199+02721+02451101141ADDAA101999999AZ101061AZ201061GA1071+003001061GE19MSL   +99999+99999GF107991071999003001999999KA1120N+02541MA1999999099411MD1999999-0151REMSYN004BUFR
0152825710999992016022918004-05500-045270FM-12+015399999V0200901N0021199999999010000199+03351+02361100801ADDAA101999999AZ101061AZ201061GA1031+003001081GA2999+999999041GE19MSL   +99999+99999GF104991031999003001999999MA1999999099091MD1999999-0061REMSYN004BUFR
0098825710999992016030100004-05500-045270FM-12+015399999V0203601N0000122000199010000199+02991+02511100931ADDAA101999999AZ101061AZ201061GF100991999999999999999999MA1999999099211MD1999999-0091REMSYN004BUFR
0181825710999992016030112004-05500-045270FM-12+015399999V0203601N0021100300199010000199+02741+02471101271ADDAA101999999AZ101061AZ201061GA1081+003001061GA2999+999999101GA3999+999999101GE19MSL   +99999+99999GF108991081999003001999999KA1120N+02571MA1999999099541MD1999999+0131REMSYN004BUFR
0136825710999992016030118004-05500-045270FM-12+015399999V0200901N0010100300199002000199+03341+02451100731ADDAA101999999AZ101061AZ201061GA1051+003001081GE19MSL   +99999+99999GF105991051999003001999999MA1999999099031MD1999999-0061REMSYN004BUFR
0098825710999992016030200004-05500-045270FM-12+015399999V0200501N0010122000199010000199+03001+02551100881ADDAA101999999AZ101061AZ201061GF100991999999999999999999MA1999999099161MD1999999-0051REMSYN004BUFR
0149825710999992016030212004-05500-045270FM-12+015399999V0203601N0031100300199010000199+02771+02501101201ADDAA101999999AZ101061AZ201061GA1071+003001061GE19MSL   +99999+99999GF107991071999003001999999KA1120N+02631MA1999999099451MD1999999-0061REMSYN004BUFR
0158825710999992016030218004-05500-045270FM-12+015399999V0203601N0021100300199010000199+03301+02491100711ADDAA106000231AY161061AY221061GA1051+003001081GA2999+999999031GE19MSL   +99999+99999GF107991051999003001999999MA1999999099011MD1999999-0021MW1021REMSYN004BUFR
0136825710999992016030300004-05500-045270FM-12+015399999V0203601N0010199999999010000199+02741+02381101081ADDAA101999999AZ101061AZ201061GA1021+003001081GE19MSL   +99999+99999GF102991021999003001999999MA1999999099351MD1999999+0191REMSYN004BUFR
0149825710999992016030312004-05500-045270FM-12+015399999V0202701N0005100300199010000199+02621+02411101251ADDAA101999999AZ101061AZ201061GA1071+003001061GE19MSL   +99999+99999GF107991071999003001999999KA1120N+02491MA1999999099511MD1999999+0031REMSYN004BUFR
0123825710999992016030318004-05500-045270FM-12+015399999V020180199999900600199020000199+03001+02381999999ADDAA101999999AZ101061AZ201061GA1051+006001091GA2999+999999031GE19MSL   +99999+99999GF107991051999006001999999REMSYN004BUFR
0136825710999992016030400004-05500-045270FM-12+015399999V0200901N0010199999999010000199+02791+02501101011ADDAA101999999AZ101061AZ201061GA1011+017501031GE19MSL   +99999+99999GF101991011999017501999999MA1999999099281MD1999999-0071REMSYN004BUFR
0165825710999992016030412004-05500-045270FM-12+015399999V0200501N0021199999999010000199+02741+02401101151ADDAA101999999AZ101061AZ201061GA1031+003001081GA2999+999999031GE19MSL   +99999+99999GF105991031999003001999999KA1120N+02421MA1999999099421MD1999999-0091REMSYN004BUFR
0152825710999992016030418004-05500-045270FM-12+015399999V0202701N0005199999999010000199+03141+02481100821ADDAA101999999AZ101061AZ201061GA1031+003001081GA2999+999999031GE19MSL   +99999+99999GF104991031999003001999999MA1999999099101MD1999999-0121REMSYN004BUFR
0149825710999992016030512004-05500-045270FM-12+015399999V0200501N0021100300199010000199+02741+02401101221ADDAA101999999AZ101061AZ201061GA1051+003001061GE19MSL   +99999+99999GF107991051999003001999999KA1120N+02591MA1999999099481MD1999999+0061REMSYN004BUFR
0158825710999992016030518004-05500-045270FM-12+015399999V0201401N0067199999999010000199+02691+02461100861ADDAA106010031AY161061AY211061GA1041+003001071GA2999+999999051GE19MSL   +99999+99999GF106991041999003001999999MA1999999099131MD1999999+0031MW1951REMSYN004BUFR
0104825710999992016030600004-05500-045270FM-12+015399999V0200901N0010122000199010000199+02601+02331101201ADDAA106000831AY161061AY211061GF100991999999999999999999MA1999999099311MD1999999-0021MW1001REMSYN004BUFR
0187825710999992016030612004-05500-045270FM-12+015399999V0202301N0005100300199010000199+02321+02271101411ADDAA124040031AY161061AY211061GA1081+003001061GA2999+999999101GA3999+999999101GE19MSL   +99999+99999GF108991081999003001999999KA1120N+02331MA1999999099651MD1999999+0171MW1611REMSYN004BUFR
0174825710999992016030618004-05500-045270FM-12+015399999V0202301N0000100300199010000199+02571+02441101011ADDAA106004031AY161061AY221061GA1081+003001061GA2999+999999101GA3999+999999101GE19MSL   +99999+99999GF108991081999003001999999MA1999999099261MD1999999+0131MW1021REMSYN004BUFR
0168825710999992016030700004-05500-045270FM-12+015399999V0203601N0000100300199010000199+02591+02461101121ADDAA101999999AZ101061AZ201061GA1081+003001061GA2999+999999101GA3999+999999101GE19MSL   +99999+99999GF108991081999003001999999MA1999999099371MD1999999+0061REMSYN004BUFR
0187825710999992016030712004-05500-045270FM-12+015399999V0200501N0005199999999010000199+02341+02291101311ADDAA124008031AY191061AY261061GA1041+003001071GA2999+999999051GA3999+999999101GE19MSL   +99999+99999GF108991041999003001999999KA1120N+02321MA1999999099551MD1999999-0101MW1551REMSYN004BUFR
0174825710999992016030718004-05500-045270FM-12+015399999V0200501N0015100300199010000199+02821+02541100911ADDAA106000231AY161061AY221061GA1081+003001061GA2999+999999101GA3999+999999101GE19MSL   +99999+99999GF108991081999003001999999MA1999999099181MD1999999-0081MW1021REMSYN004BUFR
0098825710999992016030800004-05500-045270FM-12+015399999V0203601N0000122000199010000199+02671+02541101151ADDAA101999999AZ101061AZ201061GF100991999999999999999999MA1999999099401MD1999999+0031REMSYN004BUFR
0181825710999992016030812004-05500-045270FM-12+015399999V0202701N0005100300199010000199+02571+02461101291ADDAA124000231AZ101061AZ201061GA1081+003001061GA2999+999999101GA3999+999999101GE19MSL   +99999+99999GF108991081999003001999999KA1120N+02381MA1999999099541MD1999999-0011REMSYN004BUFR
0174825710999992016030818004-05500-045270FM-12+015399999V0200501N0010100300199010000199+02901+02341100861ADDAA106010031AY161061AY211061GA1081+003001061GA2999+999999101GA3999+999999101GE19MSL   +99999+99999GF108991081999003001999999MA1999999099131MD1999999-0051MW1021REMSYN004BUFR
0142825710999992016030900004-05500-045270FM-12+015399999V0203601N0000199999999010000199+02671+02501101141ADDAA106001031AY161061AY211061GA1031+003001081GE19MSL   +99999+99999GF108991031999003001999999MA1999999099401MD1999999+0001MW1021REMSYN004BUFR
0187825710999992016030912004-05500-045270FM-12+015399999V0200501N0026100300199010000199+02401+02231101371ADDAA124011031AY121061AY211061GA1081+003001061GA2999+999999101GA3999+999999101GE19MSL   +99999+99999GF108991081999003001999999KA1120N+02421MA1999999099621MD1999999+0081MW1201REMSYN004BUFR
0152825710999992016030918004-05500-045270FM-12+015399999V0200501N0015199999999010000199+03091+02391100771ADDAA101999999AZ101061AZ201061GA1031+003001081GA2999+999999001GE19MSL   +99999+99999GF105991031999003001999999MA1999999099051MD1999999-0081REMSYN004BUFR
0098825710999992016031000004-05500-045270FM-12+015399999V0203601N0000122000199010000199+02741+02421101041ADDAA101999999AZ101061AZ201061GF100991999999999999999999MA1999999099301MD1999999-0101REMSYN004BUFR
0165825710999992016031012004-05500-045270FM-12+015399999V0203601N0000100300199010000199+02641+02411101281ADDAA101999999AZ101061AZ201061GA1051+003001081GA2999+999999041GE19MSL   +99999+99999GF106991051999003001999999KA1120N+02411MA1999999099541MD1999999-0081REMSYN004BUFR
0142825710999992016031018004-05500-045270FM-12+015399999V0202301N0015100300199010000199+02771+02521100901ADDAA106003031AY161061AY221061GA1071+003001081GE19MSL   +99999+99999GF107991071999003001999999MA1999999099171MD1999999+0121MW1021REMSYN004BUFR
0142825710999992016031100004-05500-045270FM-12+015399999V0200501N0015199999999010000199+02551+02441101221ADDAA106012031AY191061AY261061GA1011+003001081GE19MSL   +99999+99999GF101991011999003001999999MA1999999099471MD1999999+0171MW1021REMSYN004BUFR
0181825710999992016031112004-05500-045270FM-12+015399999V0203601N0010100300199010000199+02471+02381101481ADDAA124015031AZ101061AZ201061GA1081+003001061GA2999+999999101GA3999+999999101GE19MSL   +99999+99999GF108991081999003001999999KA1120N+02401MA1999999099721MD1999999+0181REMSYN004BUFR
0158825710999992016031118004-05500-045270FM-12+015399999V0202701N0005199999999010000199+02491+02411101121ADDAA106019031AY161061AY221061GA1021+003001081GA2999+999999031GE19MSL   +99999+99999GF105991021999003001999999MA1999999099371MD1999999+0201MW1201REMSYN004BUFR
0136825710999992016031200004-05500-045270FM-12+015399999V0203601N0000199999999010000199+02571+02461101361ADDAA101999999AZ101061AZ201061GA1031+017501041GE19MSL   +99999+99999GF103991031999017501999999MA1999999099611MD1999999+0141REMSYN004BUFR
0155825710999992016031212004-05500-045270FM-12+015399999V0200901N0010100300199010000199+02521+02361101371ADDAA124019031AY141061AY211061GA1061+003001081GE19MSL   +99999+99999GF106991061999003001999999KA1120N+02301MA1999999099621MD1999999-0101MW1021REMSYN004BUFR
0152825710999992016031218004-05500-045270FM-12+015399999V0200501N0026199999999010000199+03121+02481101021ADDAA101999999AZ101061AZ201061GA1041+003001081GA2999+999999001GE19MSL   +99999+99999GF105991041999003001999999MA1999999099331MD1999999-0041REMSYN004BUFR
0098825710999992016031300004-05500-045270FM-12+015399999V0203601N0000122000199010000199+02721+02521101171ADDAA101999999AZ101061AZ201061GF100991999999999999999999MA1999999099431MD1999999-0181REMSYN004BUFR
0181825710999992016031312004-05500-045270FM-12+015399999V0200501N0005100300199010000199+02591+02441101351ADDAA101999999AZ101061AZ201061GA1081+003001061GA2999+999999101GA3999+999999101GE19MSL   +99999+99999GF108991081999003001999999KA1120N+02521MA1999999099611MD1999999-0011REMSYN004BUFR
0136825710999992016031318004-05500-045270FM-12+015399999V0200501N0010100300199010000199+03191+02481100951ADDAA101999999AZ101061AZ201061GA1051+003001081GE19MSL   +99999+99999GF105991051999003001999999MA1999999099231MD1999999-0101REMSYN004BUFR
0174825710999992016031400004-05500-045270FM-12+015399999V0200501N0015100300199010000199+02541+02361101221ADDAA106013031AY191061AY261061GA1051+003001071GA2999+999999051GA3999+999999101GE19MSL   +99999+99999GF108991051999003001999999MA1999999099471MD1999999+0041MW1291REMSYN004BUFR
0181825710999992016031412004-05500-045270FM-12+015399999V0200501N0015100300199010000199+02621+02481101321ADDAA124013031AZ101061AZ201061GA1081+003001061GA2999+999999101GA3999+999999101GE19MSL   +99999+99999GF108991081999003001999999KA1120N+02531MA1999999099571MD1999999-0041REMSYN004BUFR
0158825710999992016031418004-05500-045270FM-12+015399999V0201401N0021199999999010000199+02791+02361101011ADDAA106000831AY161061AY221061GA1031+003001081GA2999+999999031GE19MSL   +99999+99999GF106991031999003001999999MA1999999099271MD1999999+0041MW1011REMSYN004BUFR
0142825710999992016031500004-05500-045270FM-12+015399999V0200901N0005199999999010000199+02691+02541101211ADDAA101999999AY121061AY211061GA1031+003001081GE19MSL   +99999+99999GF103991031999003001999999MA1999999099471MD1999999+0001MW1131REMSYN004BUFR
0149825710999992016031512004-05500-045270FM-12+015399999V0201401N0010199999999010000199+02601+02501101341ADDAA124000831AZ101061AZ201061GA1041+003001081GE19MSL   +99999+99999GF104991041999003001999999KA1120N+02461MA1999999099601MD1999999+0031REMSYN004BUFR
0152825710999992016031518004-05500-045270FM-12+015399999V0200901N0026199999999010000199+03221+02341100971ADDAA101999999AZ101061AZ201061GA1021+003001081GA2999+999999031GE19MSL   +99999+99999GF103991021999003001999999MA1999999099251MD1999999-0021REMSYN004BUFR
0098825710999992016031600004-05500-045270FM-12+015399999V0200901N0021122000199010000199+02841+02421101081ADDAA101999999AZ101061AZ201061GF100991999999999999999999MA1999999099351MD1999999-0121REMSYN004BUFR
0181825710999992016031612004-05500-045270FM-12+015399999V0203201N0015199999999010000199+02751+02441101281ADDAA101999999AZ101061AZ201061GA1011+003001081GA2999+999999031GA3999+999999001GE19MSL   +99999+99999GF106991011999003001999999KA1120N+02531MA1999999099551MD1999999-0051REMSYN004BUFR
0158825710999992016031618004-05500-045270FM-12+015399999V0200501N0021199999999010000199+02891+02541101021ADDAA106001031AY191061AY261061GA1041+003001061GA2999+999999031GE19MSL   +99999+99999GF106991041999003001999999MA1999999099291MD1999999+0041MW1211REMSYN004BUFR
0152825710999992016031700004-05500-045270FM-12+015399999V0200501N0005199999999010000199+02691+02461101221ADDAA101999999AZ101061AZ201061GA1021+003001081GA2999+999999031GE19MSL   +99999+99999GF102991021999003001999999MA1999999099491MD1999999+0141REMSYN004BUFR
0149825710999992016031712004-05500-045270FM-12+015399999V0200501N0021100300199010000199+02791+02341101321ADDAA124001031AZ101061AZ201061GA1061+003001081GE19MSL   +99999+99999GF106991061999003001999999KA1120N+02491MA1999999099581MD1999999+0031REMSYN004BUFR
0158825710999992016031718004-05500-045270FM-12+015399999V0200501N0036199999999010000199+02851+02351101001ADDAA101999999AY121061AY211061GA1021+003001091GA2999+999999031GE19MSL   +99999+99999GF105991021999003001999999MA1999999099271MD1999999-0021MW1291REMSYN004BUFR
0142825710999992016031800004-05500-045270FM-12+015399999V0200501N0010100300199010000199+02621+02551101221ADDAA106000631AY161061AY221061GA1061+003001081GE19MSL   +99999+99999GF106991061999003001999999MA1999999099481MD1999999-0011MW1131REMSYN004BUFR
0155825710999992016031812004-05500-045270FM-12+015399999V0200501N0026199999999010000199+02701+02371101281ADDAA124009031AY161061AY211061GA1041+003001081GE19MSL   +99999+99999GF104991041999003001999999KA1120N+02551MA1999999099541MD1999999-0041MW1021REMSYN004BUFR
0158825710999992016031818004-05500-045270FM-12+015399999V0200501N0021199999999010000199+02941+02561101041ADDAA106002031AY161061AY221061GA1041+003001081GA2999+999999031GE19MSL   +99999+99999GF105991041999003001999999MA1999999099311MD1999999+0041MW1021REMSYN004BUFR
0142825710999992016031900004-05500-045270FM-12+015399999V0203601N0000199999999010000199+02791+02581101081ADDAA101999999AY121061AY211061GA1011+003001091GE19MSL   +99999+99999GF101991011999003001999999MA1999999099351MD1999999-0131MW1131REMSYN004BUFR
0149825710999992016031912004-05500-045270FM-12+015399999V0200501N0010100300199010000199+02701+02541101341ADDAA124002031AZ101061AZ201061GA1061+003001081GE19MSL   +99999+99999GF106991061999003001999999KA1120N+02581MA1999999099601MD1999999+0061REMSYN004BUFR
0136825710999992016031918004-05500-045270FM-12+015399999V0200501N0031199999999010000199+03271+02451100731ADDAA101999999AZ101061AZ201061GA1021+003001081GE19MSL   +99999+99999GF102991021999003001999999MA1999999099021MD1999999-0291REMSYN004BUFR
0152825710999992016032000004-05500-045270FM-12+015399999V0200501N0010199999999010000199+02891+02521101031ADDAA101999999AZ101061AZ201061GA1031+017501031GA2999+999999001GE19MSL   +99999+99999GF105991031999017501999999MA1999999099311MD1999999-0041REMSYN004BUFR
0181825710999992016032012004-05500-045270FM-12+015399999V0200501N0015100300199010000199+02741+02441101261ADDAA101999999AZ101061AZ201061GA1081+003001061GA2999+999999101GA3999+999999101GE19MSL   +99999+99999GF108991081999003001999999KA1120N+02571MA1999999099531MD1999999-0071REMSYN004BUFR
0152825710999992016032018004-05500-045270FM-12+015399999V0203601N0026199999999010000199+03171+02541100841ADDAA101999999AZ101061AZ201061GA1041+003001081GA2999+999999031GE19MSL   +99999+99999GF106991041999003001999999MA1999999099131MD1999999+0111REMSYN004BUFR
0136825710999992016032100004-05500-045270FM-12+015399999V0201801N0010199999999010000199+02841+02621101161ADDAA101999999AZ101061AZ201061GA1021+017501031GE19MSL   +99999+99999GF102991021999017501999999MA1999999099431MD1999999+0121REMSYN004BUFR
0149825710999992016032112004-05500-045270FM-12+015399999V0200901N0015100300199010000199+02691+02451101411ADDAA101999999AZ101061AZ201061GA1061+003001061GE19MSL   +99999+99999GF106991061999003001999999KA1120N+02481MA1999999099671MD1999999+0141REMSYN004BUFR
0136825710999992016032118004-05500-045270FM-12+015399999V0200901N0026100300199010000199+03121+02411100971ADDAA101999999AZ101061AZ201061GA1061+003001081GE19MSL   +99999+99999GF106991061999003001999999MA1999999099251MD1999999+0121REMSYN004BUFR
0098825710999992016032200004-05500-045270FM-12+015399999V0203601N0000122000199010000199+02871+02521101221ADDAA101999999AZ101061AZ201061GF100991999999999999999999MA1999999099491MD1999999+0061REMSYN004BUFR
0149825710999992016032212004-05500-045270FM-12+015399999V0200501N0026199999999010000199+02821+02481101411ADDAA101999999AZ101061AZ201061GA1021+003001081GE19MSL   +99999+99999GF102991021999003001999999KA1120N+02531MA1999999099681MD1999999+0011REMSYN004BUFR
0174825710999992016032218004-05500-045270FM-12+015399999V0200501N0046100300199010000199+02741+02421100961ADDAA106008031AY111061AY201061GA1081+003001061GA2999+999999101GA3999+999999101GE19MSL   +99999+99999GF108991081999003001999999MA1999999099231MD1999999-0031MW1951REMSYN004BUFR
0136825710999992016032318004-05500-045270FM-12+015399999V0200501N0021100300199010000199+03241+02591100791ADDAA101999999AZ101061AZ201061GA1051+003001081GE19MSL   +99999+99999GF105991051999003001999999MA1999999099071MD1999999-0161REMSYN004BUFR
0104825710999992016032400004-05500-045270FM-12+015399999V0202301N0010122000199010000199+02621+02351101061ADDAA106000231AY161061AY201061GF100991999999999999999999MA1999999099321MD1999999-0171MW1001REMSYN004BUFR
0149825710999992016032412004-05500-045270FM-12+015399999V0200501N0021100300199010000199+02671+02461101291ADDAA124000231AZ101061AZ201061GA1071+003001081GE19MSL   +99999+99999GF107991071999003001999999KA1120N+02481MA1999999099551MD1999999-0031REMSYN004BUFR
0136825710999992016032418004-05500-045270FM-12+015399999V0200901N0015199999999010000199+03171+02561100801ADDAA101999999AZ101061AZ201061GA1041+003001081GE19MSL   +99999+99999GF104991041999003001999999MA1999999099081MD1999999+0011REMSYN004BUFR
0142825710999992016032500004-05500-045270FM-12+015399999V0200501N0005199999999010000199+02641+02351101131ADDAA106003031AY161061AY211061GA1021+017501031GE19MSL   +99999+99999GF102991021999017501999999MA1999999099391MD1999999+0071MW1011REMSYN004BUFR
0149825710999992016032512004-05500-045270FM-12+015399999V0200501N0015100300199010000199+02691+02451101241ADDAA124003031AZ101061AZ201061GA1061+003001081GE19MSL   +99999+99999GF106991061999003001999999KA1120N+02511MA1999999099571MD1999999-0051REMSYN004BUFR
0152825710999992016032518004-05500-045270FM-12+015399999V0200501N0026199999999010000199+03241+02471100851ADDAA101999999AZ101061AZ201061GA1041+003001081GA2999+999999001GE19MSL   +99999+99999GF105991041999003001999999MA1999999099131MD1999999+0051REMSYN004BUFR
0136825710999992016032600004-05500-045270FM-12+015399999V0203601N0000199999999010000199+02871+02501101051ADDAA101999999AZ101061AZ201061GA1021+017501031GE19MSL   +99999+99999GF102991021999017501999999MA1999999099321MD1999999-0071REMSYN004BUFR
0149825710999992016032612004-05500-045270FM-12+015399999V0200501N0026100300199010000199+02771+02441101731ADDAA101999999AZ101061AZ201061GA1061+003001081GE19MSL   +99999+99999GF106991061999003001999999KA1120N+02551MA1999999099571MD1999999+0071REMSYN004BUFR
0136825710999992016032618004-05500-045270FM-12+015399999V0202301N0021100300199010000199+03191+02531100931ADDAA101999999AZ101061AZ201061GA1051+003001081GE19MSL   +99999+99999GF105991051999003001999999MA1999999099221MD1999999+0091REMSYN004BUFR
0158825710999992016032700004-05500-045270FM-12+015399999V0200501N0005199999999010000199+02721+02501101061ADDAA106000131AY191061AY251061GA1011+003001081GA2999+999999031GE19MSL   +99999+99999GF102991011999003001999999MA1999999099331MD1999999+0011MW1131REMSYN004BUFR
0149825710999992016032712004-05500-045270FM-12+015399999V0200501N0010100300199010000199+02651+02441101231ADDAA101999999AZ101061AZ201061GA1071+003001061GE19MSL   +99999+99999GF107991071999003001999999KA1120N+02531MA1999999099441MD1999999-0081REMSYN004BUFR
0136825710999992016032718004-05500-045270FM-12+015399999V0200501N0021199999999010000199+03141+02501100891ADDAA101999999AZ101061AZ201061GA1031+003001081GE19MSL   +99999+99999GF103991031999003001999999MA1999999099171MD1999999-0091REMSYN004BUFR
0142825710999992016032800004-05500-045270FM-12+015399999V0200501N0021199999999010000199+02791+02581100981ADDAA106000631AY161061AY211061GA1011+003001031GE19MSL   +99999+99999GF101991011999003001999999MA1999999099251MD1999999-0081MW1011REMSYN004BUFR
0181825710999992016032812004-05500-045270FM-12+015399999V0200501N0010100300199010000199+02671+02461101241ADDAA124000631AZ101061AZ201061GA1081+003001061GA2999+999999101GA3999+999999101GE19MSL   +99999+99999GF108991081999003001999999KA1120N+02611MA1999999099511MD1999999+0021REMSYN004BUFR
0136825710999992016032818004-05500-045270FM-12+015399999V0201801N0021100300199010000199+02991+02511100831ADDAA101999999AZ101061AZ201061GA1071+003001061GE19MSL   +99999+99999GF107991071999003001999999MA1999999099111MD1999999-0061REMSYN004BUFR
0142825710999992016032900004-05500-045270FM-12+015399999V0200501N0021199999999010000199+02621+02501101101ADDAA106001031AY191061AY261061GA1021+003001081GE19MSL   +99999+99999GF102991021999003001999999MA1999999099361MD1999999+0111MW1021REMSYN004BUFR
0181825710999992016032912004-05500-045270FM-12+015399999V0203201N0010100300199010000199+02621+02481101381ADDAA124001031AZ101061AZ201061GA1081+003001061GA2999+999999101GA3999+999999101GE19MSL   +99999+99999GF108991081999003001999999KA1120N+02481MA1999999099641MD1999999+0131REMSYN004BUFR
0152825710999992016032918004-05500-045270FM-12+015399999V0201801N0015199999999010000199+03201+02481100951ADDAA101999999AZ101061AZ201061GA1041+003001081GA2999+999999041GE19MSL   +99999+99999GF106991041999003001999999MA1999999099231MD1999999+0121REMSYN004BUFR
0098825710999992016033000004-05500-045270FM-12+015399999V0203601N0026122000199050000199+02791+02461101281ADDAA101999999AZ101061AZ201061GF100991999999999999999999MA1999999099541MD1999999+0181REMSYN004BUFR
0165825710999992016033012004-05500-045270FM-12+015399999V0202301N0021199999999010000199+02641+02411101341ADDAA101999999AZ101061AZ201061GA1031+003001081GA2999+999999031GE19MSL   +99999+99999GF106991031999003001999999KA1120N+02441MA1999999099601MD1999999-0041REMSYN004BUFR
0152825710999992016033018004-05500-045270FM-12+015399999V0200501N0026199999999010000199+03141+02301101141ADDAA101999999AZ101061AZ201061GA1031+003001081GA2999+999999031GE19MSL   +99999+99999GF104991031999003001999999MA1999999099421MD1999999+0191REMSYN004BUFR
0196825710999992016033100004-05500-045267FM-12+015399999V0200501N000519999999N010000199+02781+99999999999ADDGA1999+017501999GE19MSL   +99999+99999GF101991999999017501999999KA1120M+03211KA2120N+00761MA1999999101202ME1100409REMSYN07082571 32797 10501 10278 29946 30120 41040 333 10321 29076 55070 59008=
0181825710999992016033112004-05500-045270FM-12+015399999V0203601N0021199999999010000199+02821+02481101391ADDAA101999999AZ101061AZ201061GA1011+003001081GA2999+999999031GA3999+999999001GE19MSL   +99999+99999GF104991011999003001999999KA1120N+02481MA1999999099661MD1999999+0061REMSYN004BUFR
0152825710999992016033118004-05500-045270FM-12+015399999V0200501N0021199999999010000199+03191+02531101011ADDAA101999999AZ101061AZ201061GA1021+003001081GA2999+999999031GE19MSL   +99999+99999GF106991021999003001999999MA1999999099291MD1999999-0131REMSYN004BUFR
0174825710999992016040100004-05500-045270FM-12+015399999V0203201N0005199999999010000199+02451+02301101351ADDAA106017031AY191061AY261061GA1041+003001071GA2999+999999051GA3999+999999101GE19MSL   +99999+99999GF108991041999003001999999MA1999999099611MD1999999+0151MW1911REMSYN004BUFR
0155825710999992016040112004-05500-045270FM-12+015399999V0200501N0005100300199010000199+02541+02361101331ADDAA124019031AY161061AY221061GA1071+003001061GE19MSL   +99999+99999GF107991071999003001999999KA1120N+02451MA1999999099581MD1999999+0081MW1021REMSYN004BUFR
0136825710999992016040118004-05500-045270FM-12+015399999V0200901N0015199999999010000199+03091+02491100901ADDAA101999999AZ101061AZ201061GA1021+003001081GE19MSL   +99999+99999GF102991021999003001999999MA1999999099171MD1999999-0121REMSYN004BUFR
0136825710999992016040200004-05500-045270FM-12+015399999V0203601N0000199999999010000199+02621+02571101081ADDAA101999999AZ101061AZ201061GA1011+003001081GE19MSL   +99999+99999GF101991011999003001999999MA1999999099341MD1999999-0271REMSYN004BUFR
0181825710999992016040212004-05500-045270FM-12+015399999V0200501N0021100300199010000199+02671+02461101211ADDAA101999999AZ101061AZ201061GA1081+003001061GA2999+999999101GA3999+999999101GE19MSL   +99999+99999GF108991081999003001999999KA1120N+02591MA1999999099471MD1999999-0111REMSYN004BUFR
0168825710999992016040300004-05500-045270FM-12+015399999V0200501N0015100300199010000199+02771+02541101091ADDAA101999999AZ101061AZ201061GA1081+003001061GA2999+999999101GA3999+999999101GE19MSL   +99999+99999GF108991081999003001999999MA1999999099351MD1999999+0011REMSYN004BUFR
0149825710999992016040312004-05500-045270FM-12+015399999V0200501N0005100300199010000199+02701+02431101301ADDAA101999999AZ101061AZ201061GA1061+003001061GE19MSL   +99999+99999GF106991061999003001999999KA1120N+02481MA1999999099561MD1999999+0091REMSYN004BUFR
0142825710999992016040318004-05500-045270FM-12+015399999V0200501N0021100300199010000199+03041+02521100961ADDAA101999999AY111061AY201061GA1061+003001061GE19MSL   +99999+99999GF106991061999003001999999MA1999999099221MD1999999+0241MW1171REMSYN004BUFR
0104825710999992016040400004-05500-045270FM-12+015399999V0203601N0005122000199010000199+02741+02521101171ADDAA106000431AY161061AY201061GF100991999999999999999999MA1999999099441MD1999999+0091MW1001REMSYN004BUFR
0181825710999992016040412004-05500-045270FM-12+015399999V0203601N0005100300199010000199+02691+02521101491ADDAA124000431AZ101061AZ201061GA1081+003001061GA2999+999999101GA3999+999999101GE19MSL   +99999+99999GF108991081999003001999999KA1120N+02561MA1999999099051MD1999999+0191REMSYN004BUFR
0136825710999992016040418004-05500-045270FM-12+015399999V0200501N0015100300199010000199+03251+02461100931ADDAA101999999AZ101061AZ201061GA1051+003001081GE19MSL   +99999+99999GF105991051999003001999999MA1999999099221MD1999999+0001REMSYN004BUFR
0142825710999992016040500004-05500-045270FM-12+015399999V0200501N0005199999999010000199+02671+02461101251ADDAA106004031AY161061AY211061GA1041+003001081GE19MSL   +99999+99999GF104991041999003001999999MA1999999099511MD1999999+0071MW1011REMSYN004BUFR
0149825710999992016040512004-05500-045270FM-12+015399999V0200501N0021100300199010000199+02601+02421101391ADDAA124004031AZ101061AZ201061GA1071+003001061GE19MSL   +99999+99999GF107991071999003001999999KA1120N+02481MA1999999099651MD1999999-0101REMSYN004BUFR
0168825710999992016040518004-05500-045270FM-12+015399999V0200901N0026199999999010000199+03201+02371100901ADDAA101999999AZ101061AZ201061GA1011+003001081GA2999+999999031GA3999+999999001GE19MSL   +99999+99999GF103991011999003001999999MA1999999099181MD1999999-0041REMSYN004BUFR
0098825710999992016040600004-05500-045270FM-12+015399999V0200501N0010122000199010000199+02871+02481101131ADDAA101999999AZ101061AZ201061GF100991999999999999999999MA1999999099401MD1999999-0111REMSYN004BUFR
0149825710999992016040612004-05500-045270FM-12+015399999V0200501N0010100300199010000199+02671+02481101311ADDAA101999999AZ101061AZ201061GA1071+003001061GE19MSL   +99999+99999GF107991071999003001999999KA1120N+02501MA1999999099581MD1999999-0071REMSYN004BUFR
0158825710999992016040618004-05500-045270FM-12+015399999V0202301N0005199999999010000199+02721+02501100851ADDAA106003031AY191061AY261061GA1031+003001061GA2999+999999031GE19MSL   +99999+99999GF105991031999003001999999MA1999999099121MD1999999-0061MW1291REMSYN004BUFR
0142825710999992016040700004-05500-045270FM-12+015399999V0203201N0005199999999010000199+02651+02541101111ADDAA101999999AY121061AY211061GA1031+003001081GE19MSL   +99999+99999GF103991031999003001999999MA1999999099371MD1999999-0031MW1131REMSYN004BUFR
0149825710999992016040712004-05500-045270FM-12+015399999V0200501N0015100300199010000199+02641+02411101241ADDAA124003031AZ101061AZ201061GA1051+003001081GE19MSL   +99999+99999GF105991051999003001999999KA1120N+02481MA1999999099501MD1999999-0081REMSYN004BUFR
0136825710999992016040718004-05500-045270FM-12+015399999V0201401N0015199999999010000199+03141+02521100811ADDAA101999999AZ101061AZ201061GA1031+003001081GE19MSL   +99999+99999GF103991031999003001999999MA1999999099091MD1999999-0031REMSYN004BUFR
0136825710999992016040800004-05500-045270FM-12+015399999V0200501N0005199999999010000199+02621+02461101101ADDAA101999999AZ101061AZ201061GA1011+003001081GE19MSL   +99999+99999GF101991011999003001999999MA1999999099361MD1999999-0011REMSYN004BUFR
0149825710999992016040812004-05500-045270FM-12+015399999V0200501N0005100300199010000199+02641+02481101261ADDAA101999999AZ101061AZ201061GA1061+003001081GE19MSL   +99999+99999GF106991061999003001999999KA1120N+02471MA1999999099521MD1999999+0021REMSYN004BUFR
0136825710999992016040818004-05500-045270FM-12+015399999V0200501N0021199999999010000199+03221+02401100801ADDAA101999999AZ101061AZ201061GA1021+003001081GE19MSL   +99999+99999GF102991021999003001999999MA1999999099081MD1999999-0011REMSYN004BUFR
0136825710999992016040900004-05500-045270FM-12+015399999V0200501N0015199999999010000199+02871+02461100961ADDAA101999999AZ101061AZ201061GA1011+017501031GE19MSL   +99999+99999GF101991011999017501999999MA1999999099231MD1999999-0131REMSYN004BUFR
0149825710999992016040912004-05500-045270FM-12+015399999V0200901N0005199999999010000199+02751+02561101161ADDAA101999999AZ101061AZ201061GA1031+003001081GE19MSL   +99999+99999GF103991031999003001999999KA1120N+02491MA1999999099431MD1999999-0091REMSYN004BUFR
0161825710999992016040918004-05500-045270FM-12+015399999V0200901N0010199999999010000199+03241+02571100671ADDAA106002031AY111061AY201061GA1052+003001061GE19MSL   +99999+99999GF102992052999003001999999MA1999999098961MD1999999-0121MW1211REMSYN004BUFREQDQ01 003003SCOCIG
0098825710999992016041000004-05500-045270FM-12+015399999V0200501N0010122000199010000199+02821+02561100971ADDAA101999999AZ101061AZ201061GF100991999999999999999999MA1999999099241MD1999999+0011REMSYN004BUFR
0181825710999992016041012004-05500-045270FM-12+015399999V0200501N0026100300199010000199+02701+02481101101ADDAA124002031AZ101061AZ201061GA1081+003001061GA2999+999999101GA3999+999999101GE19MSL   +99999+99999GF108991081999003001999999KA1120N+02531MA1999999099371MD1999999-0061REMSYN004BUFR
0168825710999992016041018004-05500-045270FM-12+015399999V0201401N0021199999999010000199+03191+02531100641ADDAA101999999AZ101061AZ201061GA1031+003001081GA2999+999999031GA3999+999999001GE19MSL   +99999+99999GF106991031999003001999999MA1999999098931MD1999999-0031REMSYN004BUFR
0136825710999992016041100004-05500-045270FM-12+015399999V0203601N0000100300199010000199+02771+02461100971ADDAA101999999AZ101061AZ201061GA1051+003001061GE19MSL   +99999+99999GF105991051999003001999999MA1999999099241MD1999999+0001REMSYN004BUFR
0155825710999992016041112004-05500-045270FM-12+015399999V0200501N0015100300199010000199+02841+02521101131ADDAA124000631AY161061AY221061GA1061+003001081GE19MSL   +99999+99999GF106991061999003001999999KA1120N+02631MA1999999099401MD1999999+0031MW1031REMSYN004BUFR
0158825710999992016041118004-05500-045270FM-12+015399999V0200901N0021199999999010000199+03271+02591100631ADDAA106000231AY161061AY221061GA1031+003001061GA2999+999999031GE19MSL   +99999+99999GF104991031999003001999999MA1999999098921MD1999999-0011MW1011REMSYN004BUFR
0158825710999992016041200004-05500-045270FM-12+015399999V0203601N0010199999999010000199+02721+02501100981ADDAA106003031AY161061AY221061GA1011+003001091GA2999+999999041GE19MSL   +99999+99999GF102991011999003001999999MA1999999099251MD1999999+0101MW1131REMSYN004BUFR
0181825710999992016041212004-05500-045270FM-12+015399999V0200501N0005100300199010000199+02591+02421101251ADDAA124003031AZ101061AZ201061GA1081+003001061GA2999+999999101GA3999+999999101GE19MSL   +99999+99999GF108991081999003001999999KA1120N+02481MA1999999099511MD1999999+0111REMSYN004BUFR
0174825710999992016041218004-05500-045270FM-12+015399999V0200501N0005199999999010000199+03091+02651100801ADDAA106000931AY121061AY211061GA1031+003001061GA2999+999999031GA3999+999999001GE19MSL   +99999+99999GF105991031999003001999999MA1999999099081MD1999999+0161MW1211REMSYN004BUFR
0136825710999992016041300004-05500-045270FM-12+015399999V0200501N0010199999999010000199+02671+02451101021ADDAA101999999AZ101061AZ201061GA1031+017501031GE19MSL   +99999+99999GF103991031999017501999999MA1999999099281MD1999999+0031REMSYN004BUFR
0149825710999992016041312004-05500-045270FM-12+015399999V0200901N0015100300199010000199+02701+02481101251ADDAA124000931AZ101061AZ201061GA1071+003001061GE19MSL   +99999+99999GF107991071999003001999999KA1120N+02491MA1999999099511MD1999999+0001REMSYN004BUFR
0168825710999992016041318004-05500-045270FM-12+015399999V0200501N0021199999999010000199+03021+02501100881ADDAA101999999AZ101061AZ201061GA1021+003001081GA2999+999999031GA3999+999999001GE19MSL   +99999+99999GF107991021999003001999999MA1999999099151MD1999999+0071REMSYN004BUFR
0136825710999992016041400004-05500-045270FM-12+015399999V0203601N0000199999999010000199+02701+02561101041ADDAA101999999AZ101061AZ201061GA1031+003001081GE19MSL   +99999+99999GF103991031999003001999999MA1999999099311MD1999999+0031REMSYN004BUFR
0165825710999992016041412004-05500-045270FM-12+015399999V0200501N0026199999999010000199+02721+02221101251ADDAA101999999AZ101061AZ201061GA1031+003001081GA2999+999999031GE19MSL   +99999+99999GF104991031999003001999999KA1120N+02571MA1999999099511MD1999999+0001REMSYN004BUFR
0152825710999992016041418004-05500-045270FM-12+015399999V0201401N0031100300199010000199+03221+02291101031ADDAA101999999AZ101061AZ201061GA1051+003001081GA2999+999999031GE19MSL   +99999+99999GF106991051999003001999999MA1999999099311MD1999999+0161REMSYN004BUFR
0158825710999992016041500004-05500-045270FM-12+015399999V0200501N0005199999999010000199+02801+02541101061ADDAA101999999AY191061AY211061GA1011+003001081GA2999+999999031GE19MSL   +99999+99999GF102991011999003001999999MA1999999099331MD1999999+0021MW1011REMSYN004BUFR
0187825710999992016041512004-05500-045270FM-12+015399999V0200501N0031100300199004000199+02421+02301101261ADDAA124002031AY191061AY261061GA1051+003001071GA2999+999999051GA3999+999999101GE19MSL   +99999+99999GF108991051999003001999999KA1120N+02421MA1999999099511MD1999999+0001MW1611REMSYN004BUFR
0174825710999992016041518004-05500-045270FM-12+015399999V0200501N0010100300199010000199+02891+02541100931ADDAA106001031AY161061AY221061GA1081+003001061GA2999+999999101GA3999+999999101GE19MSL   +99999+99999GF108991081999003001999999MA1999999099201MD1999999-0111MW1021REMSYN004BUFR
0168825710999992016041600004-05500-045270FM-12+015399999V0203601N0000100300199010000199+02691+02541101161ADDAA101999999AZ101061AZ201061GA1081+003001061GA2999+999999101GA3999+999999101GE19MSL   +99999+99999GF108991081999003001999999MA1999999099411MD1999999+0081REMSYN004BUFR
0181825710999992016041612004-05500-045270FM-12+015399999V0200501N0021199999999010000199+02621+02461101231ADDAA124001031AZ101061AZ201061GA1021+003001061GA2999+999999101GA3999+999999101GE19MSL   +99999+99999GF108991021999003001999999KA1120N+02421MA1999999099481MD1999999-0031REMSYN004BUFR
0174825710999992016041618004-05500-045270FM-12+015399999V0201401N0021100300199010000199+02491+02341100911ADDAA106018031AY191061AY261061GA1081+003001061GA2999+999999101GA3999+999999101GE19MSL   +99999+99999GF108991081999003001999999MA1999999099171MD1999999-0031MW1631REMSYN004BUFR
0136825710999992016041700004-05500-045270FM-12+015399999V0203601N0005100300199010000199+02521+02471101111ADDAA101999999AZ101061AZ201061GA1051+003001081GE19MSL   +99999+99999GF105991051999003001999999MA1999999099371MD1999999-0041REMSYN004BUFR
0155825710999992016041712004-05500-045270FM-12+015399999V0200901N0015100300199010000199+02721+02521101281ADDAA124020031AY161061AY221061GA1051+003001081GE19MSL   +99999+99999GF105991051999003001999999KA1120N+02501MA1999999099531MD1999999+0021MW1021REMSYN004BUFR
0155825710999992016041718004-05500-045270FM-12+015399999V0200901N0021199999999010000199+03271+02531100881ADDAA101999999AZ101061AZ201061GA1052+003001081GE19MSL   +99999+99999GF103992052999003001999999MA1999999099131MD1999999-0041REMSYN004BUFREQDQ01 003003SCOCIG
0104825710999992016041800004-05500-045270FM-12+015399999V0203201N0010122000199010000199+02621+02501101111ADDAA106013031AY191061AY261061GF100991999999999999999999MA1999999099371MD1999999+0001MW1001REMSYN004BUFR
0181825710999992016041812004-05500-045270FM-12+015399999V0200901N0015199999999010000199+02821+02541101231ADDAA124013031AZ101061AZ201061GA1021+003001081GA2999+999999031GA3999+999999001GE19MSL   +99999+99999GF105991021999003001999999KA1120N+02531MA1999999099501MD1999999-0031REMSYN004BUFR
0168825710999992016041818004-05500-045270FM-12+015399999V0200901N0031199999999010000199+03271+02371100841ADDAA101999999AZ101061AZ201061GA1031+003001081GA2999+999999041GA3999+999999011GE19MSL   +99999+99999GF106991031999003001999999MA1999999099121MD1999999-0011REMSYN004BUFR
0158825710999992016041900004-05500-045270FM-12+015399999V0200501N0005199999999010000199+02871+02501101081ADDAA101999999AY121061AY201061GA1011+003001091GA2999+999999031GE19MSL   +99999+99999GF102991011999003001999999MA1999999099351MD1999999-0021MW1131REMSYN004BUFR
0165825710999992016041912004-05500-045270FM-12+015399999V0201401N0031199999999010000199+02841+02421101191ADDAA101999999AZ101061AZ201061GA1021+003001081GA2999+999999001GE19MSL   +99999+99999GF103991021999003001999999KA1120N+02401MA1999999099461MD1999999-0041REMSYN004BUFR
0168825710999992016041918004-05500-045270FM-12+015399999V0201401N0031199999999010000199+03291+02361100881ADDAA101999999AZ101061AZ201061GA1031+003001081GA2999+999999041GA3999+999999001GE19MSL   +99999+99999GF106991031999003001999999MA1999999099171MD1999999+0051REMSYN004BUFR
0136825710999992016042000004-05500-045270FM-12+015399999V0200901N0010199999999010000199+02891+02431101041ADDAA101999999AZ101061AZ201061GA1041+017501031GE19MSL   +99999+99999GF104991041999017501999999MA1999999099321MD1999999-0031REMSYN004BUFR
0165825710999992016042012004-05500-045270FM-12+015399999V0201401N0015199999999010000199+02821+02311101081ADDAA101999999AZ101061AZ201061GA1021+017501041GA2999+999999001GE19MSL   +99999+99999GF103991021999017501999999KA1120N+02451MA1999999099351MD1999999-0111REMSYN004BUFR
0152825710999992016042018004-05500-045270FM-12+015399999V0201401N0031199999999010000199+03341+02241100751ADDAA101999999AZ101061AZ201061GA1031+003001081GA2999+999999041GE19MSL   +99999+99999GF104991031999003001999999MA1999999099041MD1999999-0131REMSYN004BUFR
0098825710999992016042100004-05500-045270FM-12+015399999V0200901N0010122000199010000199+02921+02341100941ADDAA101999999AZ101061AZ201061GF100991999999999999999999MA1999999099221MD1999999-0101REMSYN004BUFR
0165825710999992016042112004-05500-045270FM-12+015399999V0200501N0010199999999010000199+02821+02401101111ADDAA101999999AZ101061AZ201061GA1011+003001081GA2999+999999031GE19MSL   +99999+99999GF102991011999003001999999KA1120N+02561MA1999999099381MD1999999+0031REMSYN004BUFR
0136825710999992016042118004-05500-045270FM-12+015399999V0201401N0015199999999010000199+03371+02381100801ADDAA101999999AZ101061AZ201061GA1021+003001081GE19MSL   +99999+99999GF102991021999003001999999MA1999999099091MD1999999+0051REMSYN004BUFR
0136825710999992016042200004-05500-045270FM-12+015399999V0200501N0005199999999010000199+02921+02491101021ADDAA101999999AZ101061AZ201061GA1011+017501031GE19MSL   +99999+99999GF101991011999017501999999MA1999999099301MD1999999+0081REMSYN004BUFR
0165825710999992016042212004-05500-045270FM-12+015399999V0200501N0021100300199010000199+02791+02501101261ADDAA101999999AZ101061AZ201061GA1051+003001081GA2999+999999031GE19MSL   +99999+99999GF106991051999003001999999KA1120N+02621MA1999999099531MD1999999+0151REMSYN004BUFR
0174825710999992016042218004-05500-045270FM-12+015399999V0200901N0015100300199010000199+02721+02521100941ADDAA106002031AY191061AY261061GA1061+003001071GA2999+999999051GA3999+999999101GE19MSL   +99999+99999GF108991061999003001999999MA1999999099211MD1999999+0121MW1211REMSYN004BUFR
0168825710999992016042300004-05500-045270FM-12+015399999V0200501N0026100300199010000199+02571+02441101121ADDAA101999999AZ101061AZ201061GA1051+003001081GA2999+999999031GA3999+999999001GE19MSL   +99999+99999GF106991051999003001999999MA1999999099381MD1999999+0081REMSYN004BUFR
0231825710999992016042312004-05500-045267FM-12+015399999V0203201N000519999999N010000199+02771+02501101191ADDAA124002031GA1021+004501081GA2999+999999031GA3999+999999001GE19MSL   +99999+99999GF105991021999004501999999KA1240N+02481MA1999999099451MD1999999-0081REMSYN07082571 22497 53201 10277 20250 39945 40119 82231 333 20248 59008 60024=
0174825710999992016042318004-05500-045270FM-12+015399999V0201401N0021100300199010000199+02721+02381100811ADDAA106008031AY111061AY201061GA1081+003001061GA2999+999999101GA3999+999999101GE19MSL   +99999+99999GF108991081999003001999999MA1999999099071MD1999999-0141MW1211REMSYN004BUFR
0098825710999992016042400004-05500-045270FM-12+015399999V0203601N0000122000199010000199+02691+02581100901ADDAA101999999AZ101061AZ201061GF100991999999999999999999MA1999999099171MD1999999-0211REMSYN004BUFR
0149825710999992016042412004-05500-045270FM-12+015399999V0201401N0010199999999010000199+02751+02521101031ADDAA124008031AZ101061AZ201061GA1011+003001081GE19MSL   +99999+99999GF103991011999003001999999KA1120N+02501MA1999999099301MD1999999-0151REMSYN004BUFR
0136825710999992016042418004-05500-045270FM-12+015399999V0200501N0021199999999010000199+03321+02481100611ADDAA101999999AZ101061AZ201061GA1021+003001081GE19MSL   +99999+99999GF102991021999003001999999MA1999999098901MD1999999-0171REMSYN004BUFR
0098825710999992016042500004-05500-045270FM-12+015399999V0200501N0005122000199010000199+02671+02391100841ADDAA101999999AZ101061AZ201061GF100991999999999999999999MA1999999099111MD1999999-0061REMSYN004BUFR
0171825710999992016042512004-05500-045270FM-12+015399999V0203601N0005199999999010000199+02771+02461101041ADDAA101999999AY141061AY201061GA1031+003001081GA2999+999999001GE19MSL   +99999+99999GF106991031999003001999999KA1120N+02421MA1999999099311MD1999999+0011MW1021REMSYN004BUFR
0168825710999992016042518004-05500-045270FM-12+015399999V0200901N0026199999999010000199+03291+02501100601ADDAA101999999AZ101061AZ201061GA1031+003001081GA2999+999999041GA3999+999999001GE19MSL   +99999+99999GF106991031999003001999999MA1999999098891MD1999999-0011REMSYN004BUFR
0136825710999992016042600004-05500-045270FM-12+015399999V0200501N0005199999999010000199+02851+02351100811ADDAA101999999AZ101061AZ201061GA1021+017501041GE19MSL   +99999+99999GF102991021999017501999999MA1999999099091MD1999999-0021REMSYN004BUFR
0165825710999992016042612004-05500-045270FM-12+015399999V0200501N0021100300199010000199+02671+02461101101ADDAA101999999AZ101061AZ201061GA1061+003001061GA2999+999999041GE19MSL   +99999+99999GF107991061999003001999999KA1120N+02401MA1999999099371MD1999999+0061REMSYN004BUFR
0152825710999992016042618004-05500-045270FM-12+015399999V0200901N0021199999999010000199+03291+02501100691ADDAA101999999AZ101061AZ201061GA1031+003001081GA2999+999999001GE19MSL   +99999+99999GF104991031999003001999999MA1999999098981MD1999999+0091REMSYN004BUFR
0098825710999992016042700004-05500-045270FM-12+015399999V0200501N0005122000199010000199+02891+02541100861ADDAA101999999AZ101061AZ201061GF100991999999999999999999MA1999999099141MD1999999+0051REMSYN004BUFR
0149825710999992016042712004-05500-045270FM-12+015399999V0200501N0015100300199010000199+02771+02501101231ADDAA101999999AZ101061AZ201061GA1071+003001061GE19MSL   +99999+99999GF107991071999003001999999KA1120N+02461MA1999999099501MD1999999+0131REMSYN004BUFR
0152825710999992016042718004-05500-045270FM-12+015399999V0200501N0021199999999010000199+03301+02551100771ADDAA101999999AZ101061AZ201061GA1031+003001081GA2999+999999041GE19MSL   +99999+99999GF104991031999003001999999MA1999999099061MD1999999+0081REMSYN004BUFR
0098825710999992016042800004-05500-045270FM-12+015399999V0200501N0010122000199010000199+02841+02561100941ADDAA101999999AZ101061AZ201061GF100991999999999999999999MA1999999099211MD1999999+0071REMSYN004BUFR
0149825710999992016042812004-05500-045270FM-12+015399999V0200501N0010100300199010000199+02691+02461101121ADDAA101999999AZ101061AZ201061GA1071+003001061GE19MSL   +99999+99999GF107991071999003001999999KA1120N+02621MA1999999099391MD1999999-0011REMSYN004BUFR
0136825710999992016042818004-05500-045270FM-12+015399999V0200501N0026100300199010000199+03271+02431100711ADDAA101999999AZ101061AZ201061GA1051+003001081GE19MSL   +99999+99999GF105991051999003001999999MA1999999099001MD1999999-0061REMSYN004BUFR
0158825710999992016042900004-05500-045270FM-12+015399999V0200501N0010199999999010000199+02621+02331100531ADDAA101999999AY191061AY211061GA1021+003001081GA2999+999999031GE19MSL   +99999+99999GF103991021999003001999999MA1999999099181MD1999999-0031MW1021REMSYN004BUFR
0165825710999992016042912004-05500-045270FM-12+015399999V0203601N0021199999999010000199+02771+02441101171ADDAA101999999AZ101061AZ201061GA1041+003001061GA2999+999999051GE19MSL   +99999+99999GF106991041999003001999999KA1120N+02461MA1999999099431MD1999999+0041REMSYN004BUFR
0136825710999992016042918004-05500-045270FM-12+015399999V0203601N0021100300199010000199+03221+02451100731ADDAA101999999AZ101061AZ201061GA1061+003001081GE19MSL   +99999+99999GF106991061999003001999999MA1999999099021MD1999999+0021REMSYN004BUFR
0136825710999992016043000004-05500-045270FM-12+015399999V0200501N0005199999999010000199+02851+02521100961ADDAA101999999AZ101061AZ201061GA1011+017501031GE19MSL   +99999+99999GF101991011999017501999999MA1999999099231MD1999999+0051REMSYN004BUFR
0165825710999992016043012004-05500-045270FM-12+015399999V0202701N0015199999999010000199+02801+02501101201ADDAA101999999AZ101061AZ201061GA1041+003001081GA2999+999999031GE19MSL   +99999+99999GF106991041999003001999999KA1120N+02581MA1999999099471MD1999999+0041REMSYN004BUFR
0136825710999992016043018004-05500-045270FM-12+015399999V0203601N0005199999999010000199+03341+02501100651ADDAA101999999AZ101061AZ201061GA1031+003001081GE19MSL   +99999+99999GF103991031999003001999999MA1999999098951MD1999999-0071REMSYN004BUFR
0104825710999992016050100004-05500-045270FM-12+015399999V0203201N0005122000199010000199+02721+02341101031ADDAA101999999AY191061AY201061GF100991999999999999999999MA1999999099301MD1999999+0071MW1001REMSYN004BUFR
0155825710999992016050112004-05500-045270FM-12+015399999V0203601N0000100300199010000199+02451+02341101331ADDAA124009031AY191061AY261061GA1061+003001071GE19MSL   +99999+99999GF106991061999003001999999KA1120N+02421MA1999999099581MD1999999+0111MW1021REMSYN004BUFR
0136825710999992016050118004-05500-045270FM-12+015399999V0200901N0015100300199010000199+03141+02501100801ADDAA101999999AZ101061AZ201061GA1061+003001061GE19MSL   +99999+99999GF106991061999003001999999MA1999999099081MD1999999+0131REMSYN004BUFR
0098825710999992016050200004-05500-045270FM-12+015399999V0203601N0000122000199010000199+02741+02601101071ADDAA101999999AZ101061AZ201061GF100991999999999999999999MA1999999099331MD1999999+0031REMSYN004BUFR
0155825710999992016050212004-05500-045270FM-12+015399999V0200501N0031100300199010000199+02791+02501101271ADDAA124000231AY161061AY221061GA1061+003001081GE19MSL   +99999+99999GF106991061999003001999999KA1120N+02491MA1999999099541MD1999999-0041MW1021REMSYN004BUFR
0168825710999992016050218004-05500-045270FM-12+015399999V0200901N0021199999999010000199+03191+02511100841ADDAA101999999AZ101061AZ201061GA1041+003001081GA2999+999999041GA3999+999999001GE19MSL   +99999+99999GF106991041999003001999999MA1999999099121MD1999999+0041REMSYN004BUFR
0142825710999992016050300004-05500-045270FM-12+015399999V0203601N0000199999999010000199+02621+02461101201ADDAA106004031AY161061AY211061GA1011+017501031GE19MSL   +99999+99999GF101991011999017501999999MA1999999099461MD1999999+0131MW1021REMSYN004BUFR
0149825710999992016050312004-05500-045270FM-12+015399999V0200501N0015100300199010000199+02691+02431101431ADDAA124004031AZ101061AZ201061GA1071+003001061GE19MSL   +99999+99999GF107991071999003001999999KA1120N+02451MA1999999099681MD1999999+0141REMSYN004BUFR
0174825710999992016050318004-05500-045270FM-12+015399999V0200501N0026199999999010000199+02851+02481100971ADDAA106006031AY161061AY221061GA1021+003001081GA2999+999999031GA3999+999999001GE19MSL   +99999+99999GF106991021999003001999999MA1999999099241MD1999999+0121MW1021REMSYN004BUFR
0136825710999992016050400004-05500-045270FM-12+015399999V0200501N0005100300199010000199+02651+02461101221ADDAA101999999AZ101061AZ201061GA1051+003001081GE19MSL   +99999+99999GF105991051999003001999999MA1999999099481MD1999999+0021REMSYN004BUFR
0149825710999992016050412004-05500-045270FM-12+015399999V0203601N0015100300199010000199+02671+02461101431ADDAA124006031AZ101061AZ201061GA1071+003001081GE19MSL   +99999+99999GF107991071999003001999999KA1120N+02491MA1999999099681MD1999999+0001REMSYN004BUFR
0168825710999992016050418004-05500-045270FM-12+015399999V0200901N0026199999999010000199+03201+02371100911ADDAA101999999AZ101061AZ201061GA1021+003001081GA2999+999999041GA3999+999999001GE19MSL   +99999+99999GF104991021999003001999999MA1999999099191MD1999999-0051REMSYN004BUFR
0098825710999992016050500004-05500-045270FM-12+015399999V0200501N0005122000199010000199+02771+02421101191ADDAA101999999AZ101061AZ201061GF100991999999999999999999MA1999999099451MD1999999-0031REMSYN004BUFR
0155825710999992016050512004-05500-045270FM-12+015399999V0200501N0021100300199010000199+02691+02461101421ADDAA124000231AY161061AY221061GA1071+003001061GE19MSL   +99999+99999GF107991071999003001999999KA1120N+02471MA1999999099681MD1999999+0001MW1011REMSYN004BUFR
0168825710999992016050518004-05500-045270FM-12+015399999V0200901N0026199999999010000199+03191+02381101011ADDAA101999999AZ101061AZ201061GA1021+003001081GA2999+999999041GA3999+999999001GE19MSL   +99999+99999GF105991021999003001999999MA1999999099291MD1999999+0101REMSYN004BUFR
0136825710999992016050600004-05500-045270FM-12+015399999V0200501N0010199999999010000199+02801+02381101231ADDAA101999999AZ101061AZ201061GA1011+003001031GE19MSL   +99999+99999GF102991011999003001999999MA1999999099501MD1999999+0051REMSYN004BUFR
0149825710999992016050612004-05500-045270FM-12+015399999V0200501N0010100300199010000199+02591+02391101351ADDAA101999999AZ101061AZ201061GA1071+003001061GE19MSL   +99999+99999GF107991071999003001999999KA1120N+02371MA1999999099611MD1999999-0071REMSYN004BUFR
0136825710999992016050618004-05500-045270FM-12+015399999V0200501N0015199999999010000199+03241+02331101091ADDAA101999999AZ101061AZ201061GA1031+003001081GE19MSL   +99999+99999GF103991031999003001999999MA1999999099371MD1999999+0081REMSYN004BUFR
0098825710999992016050700004-05500-045270FM-12+015399999V0203601N0000122000199010000199+02691+02391101261ADDAA101999999AZ101061AZ201061GF100991999999999999999999MA1999999099521MD1999999+0021REMSYN004BUFR
0149825710999992016050712004-05500-045270FM-12+015399999V0200501N0015100300199010000199+02591+02241101211ADDAA101999999AZ101061AZ201061GA1061+003001081GE19MSL   +99999+99999GF106991061999003001999999KA1120N+02401MA1999999099471MD1999999-0141REMSYN004BUFR
0136825710999992016050718004-05500-045270FM-12+015399999V0201401N0021199999999010000199+03141+02321100931ADDAA101999999AZ101061AZ201061GA1021+003001081GE19MSL   +99999+99999GF102991021999003001999999MA1999999099211MD1999999-0161REMSYN004BUFR
0136825710999992016050800004-05500-045270FM-12+015399999V0203601N0000199999999010000199+02701+02411101021ADDAA101999999AZ101061AZ201061GA1011+017501031GE19MSL   +99999+99999GF101991011999017501999999MA1999999099281MD1999999-0241REMSYN004BUFR
0149825710999992016050812004-05500-045270FM-12+015399999V0200501N0010100300199010000199+02651+02461101241ADDAA101999999AZ101061AZ201061GA1071+003001061GE19MSL   +99999+99999GF107991071999003001999999KA1120N+02291MA1999999099501MD1999999+0031REMSYN004BUFR
0136825710999992016050818004-05500-045270FM-12+015399999V0201401N0026199999999010000199+03221+02291100911ADDAA101999999AZ101061AZ201061GA1021+003001081GE19MSL   +99999+99999GF102991021999003001999999MA1999999099191MD1999999-0021REMSYN004BUFR
0136825710999992016050900004-05500-045270FM-12+015399999V0203601N0000199999999010000199+02791+02341101031ADDAA101999999AZ101061AZ201061GA1011+017501031GE19MSL   +99999+99999GF101991011999017501999999MA1999999099301MD1999999+0021REMSYN004BUFR
0181825710999992016050912004-05500-045270FM-12+015399999V0201801N0005100300199010000199+02501+02381101291ADDAA101999999AZ101061AZ201061GA1081+003001061GA2999+999999101GA3999+999999101GE19MSL   +99999+99999GF108991081999003001999999KA1120N+02301MA1999999099551MD1999999+0051REMSYN004BUFR
0136825710999992016050918004-05500-045270FM-12+015399999V0200901N0021199999999010000199+03291+02301100851ADDAA101999999AZ101061AZ201061GA1021+003001081GE19MSL   +99999+99999GF102991021999003001999999MA1999999099131MD1999999-0061REMSYN004BUFR
0098825710999992016051000004-05500-045270FM-12+015399999V0203601N0000122000199010000199+02841+02391101051ADDAA101999999AZ101061AZ201061GF100991999999999999999999MA1999999099321MD1999999+0021REMSYN004BUFR
0149825710999992016051012004-05500-045270FM-12+015399999V0200501N0005100300199010000199+02721+02451101291ADDAA101999999AZ101061AZ201061GA1061+003001081GE19MSL   +99999+99999GF106991061999003001999999KA1120N+02451MA1999999099561MD1999999+0011REMSYN004BUFR
0152825710999992016051018004-05500-045270FM-12+015399999V0200901N0031199999999010000199+03321+02401100871ADDAA101999999AZ101061AZ201061GA1021+003001081GA2999+999999041GE19MSL   +99999+99999GF103991021999003001999999MA1999999099161MD1999999+0031REMSYN004BUFR
0136825710999992016051100004-05500-045270FM-12+015399999V0200501N0005199999999010000199+02801+02401101141ADDAA101999999AZ101061AZ201061GA1011+017501031GE19MSL   +99999+99999GF101991011999017501999999MA1999999099411MD1999999+0091REMSYN004BUFR
0171825710999992016051112004-05500-045270FM-12+015399999V0203601N0000100300199010000199+02541+02451101331ADDAA124024031AY191061AY261061GA1061+003001081GA2999+999999031GE19MSL   +99999+99999GF107991061999003001999999KA1120N+02321MA1999999099591MD1999999+0031MW1021REMSYN004BUFR
0152825710999992016051118004-05500-045270FM-12+015399999V0200501N0005199999999010000199+03151+02591100911ADDAA101999999AZ101061AZ201061GA1031+003001081GA2999+999999041GE19MSL   +99999+99999GF105991031999003001999999MA1999999099191MD1999999+0031REMSYN004BUFR
0098825710999992016051200004-05500-045270FM-12+015399999V0200501N0005122000199010000199+02841+02601101131ADDAA101999999AZ101061AZ201061GF100991999999999999999999MA1999999099391MD1999999-0021REMSYN004BUFR
0165825710999992016051212004-05500-045270FM-12+015399999V0200501N0026199999999010000199+02621+02391101441ADDAA101999999AZ101061AZ201061GA1021+003001081GA2999+999999031GE19MSL   +99999+99999GF106991021999003001999999KA1120N+02501MA1999999099701MD1999999+0111REMSYN004BUFR
0152825710999992016051218004-05500-045270FM-12+015399999V0200901N0026199999999010000199+03141+02421101011ADDAA101999999AZ101061AZ201061GA1011+003001081GA2999+999999031GE19MSL   +99999+99999GF104991011999003001999999MA1999999099291MD1999999+0101REMSYN004BUFR
0142825710999992016051300004-05500-045270FM-12+015399999V0200501N0010199999999010000199+02721+02561101111ADDAA101999999AY111061AY201061GA1011+003001091GE19MSL   +99999+99999GF101991011999003001999999MA1999999099371MD1999999-0021MW1131REMSYN004BUFR
0165825710999992016051312004-05500-045270FM-12+015399999V0200501N0015199999999010000199+02641+02411101441ADDAA101999999AZ101061AZ201061GA1031+003001081GA2999+999999001GE19MSL   +99999+99999GF104991031999003001999999KA1120N+02551MA1999999099701MD1999999+0001REMSYN004BUFR
0136825710999992016051318004-05500-045270FM-12+015399999V0200901N0010100300199010000199+03221+02451101101ADDAA101999999AZ101061AZ201061GA1051+003001081GE19MSL   +99999+99999GF105991051999003001999999MA1999999099381MD1999999+0091REMSYN004BUFR
0136825710999992016051400004-05500-045270FM-12+015399999V0200501N0005199999999010000199+02691+02451101251ADDAA101999999AZ101061AZ201061GA1011+017501031GE19MSL   +99999+99999GF101991011999017501999999MA1999999099511MD1999999+0141REMSYN004BUFR
0187825710999992016051412004-05500-045270FM-12+015399999V0201401N0036100300199010000199+02371+02241101571ADDAA124004031AY161061AY211061GA1061+003001071GA2999+999999051GA3999+999999101GE19MSL   +99999+99999GF108991061999003001999999KA1120N+02361MA1999999099821MD1999999+0121MW1211REMSYN004BUFR
0174825710999992016051418004-05500-045270FM-12+015399999V0200501N0005199999999010000199+02941+02561101211ADDAA106002031AY161061AY211061GA1041+003001081GA2999+999999031GA3999+999999001GE19MSL   +99999+99999GF106991041999003001999999MA1999999099481MD1999999+0101MW1021REMSYN004BUFR
0149825710999992016051512004-05500-045270FM-12+015399999V0201401N0021100300199010000199+02521+02331101481ADDAA124005031AZ101061AZ201061GA1061+003001081GE19MSL   +99999+99999GF106991061999003001999999KA1120N+02321MA1999999099731MD1999999-0091REMSYN004BUFR
0158825710999992016051518004-05500-045270FM-12+015399999V0201401N0021199999999010000199+02821+02441101191ADDAA106008031AY161061AY221061GA1031+003001081GA2999+999999031GE19MSL   +99999+99999GF105991031999003001999999MA1999999099451MD1999999-0031MW1021REMSYN004BUFR
0098825710999992016051600004-05500-045270FM-12+015399999V0203601N0000122000199010000199+02521+02451101271ADDAA101999999AZ101061AZ201061GF100991999999999999999999MA1999999099521MD1999999-0011REMSYN004BUFR
