0168825860999992016010100004-05170-039280FM-12+021299999V0200901N0082100000199001000199+02871+02181101271ADDAA101999999AZ101061AZ201061GA1091+000001101GA2999+999999101GA3999+999999101GE19MSL   +99999+99999GF199999091999000001999999MA1999999098611MD1999999-0181REMSYN004BUFR
0187825860999992016010112004-05170-039280FM-12+021299999V0201401N0051100600199020000199+02771+02211101471ADDAA101999999AY101061AY201061GA1081+006001071GA2999+999999101GA3999+999999101GE19MSL   +99999+99999GF108991081999006001999999KA1120N+02501MA1999999098811MD1999999-0041MW1151REMSYN004BUFR
0136825860999992016010200004-05170-039280FM-12+021299999V0200901N0057199999999001000199+02851+02211101261ADDAA101999999AZ101061AZ201061GA1041+050001081GE19MSL   +99999+99999GF104991041999050001999999MA1999999098601MD1999999-0011REMSYN004BUFR
0165825860999992016010212004-05170-039280FM-12+021299999V0200901N0046199999999020000199+02841+02141101491ADDAA101999999AZ101061AZ201061GA1041+006001081GA2999+999999031GE19MSL   +99999+99999GF106991041999006001999999KA1120N+02501MA1999999098831MD1999999+0021REMSYN004BUFR
0142825860999992016010300004-05170-039280FM-12+021299999V0200901N0077199999999001000199+02851+02141101281ADDAA106000631AY191061AY251061GA1021+050001081GE19MSL   +99999+99999GF102991021999050001999999MA1999999098631MD1999999+0031MW1021REMSYN004BUFR
0171825860999992016010312004-05170-039280FM-12+021299999V0201401N0036100600199020000199+02771+02281101441ADDAA124000631AY121061AY221061GA1051+006001071GA2999+999999031GE19MSL   +99999+99999GF107991051999006001999999KA1120N+02481MA1999999098781MD1999999-0051MW1151REMSYN004BUFR
0117825860999992016010400004-05170-039280FM-12+021299999V0200901N0051122000199001000199+02841+02121101291ADDAA101999999AZ101061AZ201061GF100991999999999999999999MA1999999999999MD1999999+0031REMSYN004BUFREQDQ01 096633APOSP 
0165825860999992016010412004-05170-039280FM-12+021299999V0200901N0051199999999020000199+02841+02191101481ADDAA101999999AZ101061AZ201061GA1031+006001081GA2999+999999031GE19MSL   +99999+99999GF105991031999006001999999KA1120N+02441MA1999999098821MD1999999+0041REMSYN004BUFR
0098825860999992016010500004-05170-039280FM-12+021299999V0200901N0051122000199001000199+02841+02241101271ADDAA101999999AZ101061AZ201061GF100991999999999999999999MA1999999098621MD1999999-0011REMSYN004BUFR
0165825860999992016010512004-05170-039280FM-12+021299999V0200901N0031199999999020000199+02851+02281101481ADDAA101999999AZ101061AZ201061GA1031+006001081GA2999+999999031GE19MSL   +99999+99999GF105991031999006001999999KA1120N+02501MA1999999098821MD1999999+0001REMSYN004BUFR
0098825860999992016010600004-05170-039280FM-12+021299999V0200501N0067122000199001000199+02891+02251101301ADDAA101999999AZ101061AZ201061GF100991999999999999999999MA1999999098651MD1999999+0031REMSYN004BUFR
0149825860999992016010612004-05170-039280FM-12+021299999V0200901N0036100600199020000199+02771+02231101441ADDAA101999999AZ101061AZ201061GA1071+006001081GE19MSL   +99999+99999GF107991071999006001999999KA1120N+02481MA1999999098781MD1999999+0041REMSYN004BUFR
0174825860999992016010700004-05170-039280FM-12+021299999V0203601N0041100000199002000199+02841+02291101441ADDAA106004031AY161061AY251061GA1091+000001101GA2999+999999101GA3999+999999101GE19MSL   +99999+99999GF199999091999000001999999MA1999999098771MD1999999+0121MW1021REMSYN004BUFR
0181825860999992016010712004-05170-039280FM-12+021299999V0200901N0051100600199020000199+02641+02291101501ADDAA124004031AZ101061AZ201061GA1081+006001071GA2999+999999101GA3999+999999101GE19MSL   +99999+99999GF108991081999006001999999KA1120N+02501MA1999999098821MD1999999+0041REMSYN004BUFR
0136825860999992016010800004-05170-039280FM-12+021299999V0200901N0051199999999001000199+02751+02161101381ADDAA101999999AZ101061AZ201061GA1021+050001081GE19MSL   +99999+99999GF102991021999050001999999MA1999999098711MD1999999-0061REMSYN004BUFR
0187825860999992016010812004-05170-039280FM-12+021299999V0201401N0051100600199020000199+02691+02241101461ADDAA124000531AY151061AY221061GA1081+006001071GA2999+999999101GA3999+999999101GE19MSL   +99999+99999GF108991081999006001999999KA1120N+02481MA1999999098791MD1999999-0031MW1151REMSYN004BUFR
0174825860999992016010900004-05170-039280FM-12+021299999V0200901N0000100000199001000199+02451+02281101391ADDAA106007031AY161061AY251061GA1091+000001101GA2999+999999101GA3999+999999101GE19MSL   +99999+99999GF199999091999000001999999MA1999999098711MD1999999+0001MW1151REMSYN004BUFR
0187825860999992016010912004-05170-039280FM-12+021299999V0201801N0005100600199020000199+02541+02331101521ADDAA124007031AY121061AY221061GA1081+006001071GA2999+999999101GA3999+999999101GE19MSL   +99999+99999GF108991081999006001999999KA1120N+02341MA1999999098821MD1999999+0031MW1151REMSYN004BUFR
0098825860999992016011000004-05170-039280FM-12+021299999V0200501N0051122000199001000199+02721+02261101361ADDAA101999999AZ101061AZ201061GF100991999999999999999999MA1999999098681MD1999999-0031REMSYN004BUFR
0181825860999992016011012004-05170-039280FM-12+021299999V0200901N0051100600199020000199+02521+02171101491ADDAA101999999AZ101061AZ201061GA1081+006001071GA2999+999999101GA3999+999999101GE19MSL   +99999+99999GF108991081999006001999999KA1120N+02361MA1999999098801MD1999999-0021REMSYN004BUFR
0142825860999992016011100004-05170-039280FM-12+021299999V0201401N0000199999999001000199+02521+02341101501ADDAA106000431AY151061AY221061GA1041+050001081GE19MSL   +99999+99999GF104991041999050001999999MA1999999098801MD1999999+0121MW1131REMSYN004BUFR
0165825860999992016011112004-05170-039280FM-12+021299999V0201401N0067199999999020000199+02721+02261101481ADDAA124000431AZ101061AZ201061GA1041+006001081GA2999+999999031GE19MSL   +99999+99999GF106991041999006001999999KA1120N+02361MA1999999098801MD1999999+0001REMSYN004BUFR
0098825860999992016011200004-05170-039280FM-12+021299999V0201401N0067122000199001000199+02871+02161101281ADDAA101999999AZ101061AZ201061GF100991999999999999999999MA1999999098601MD1999999-0201REMSYN004BUFR
0165825860999992016011212004-05170-039280FM-12+021299999V0200901N0062199999999020000199+02841+02191101441ADDAA101999999AZ101061AZ201061GA1031+006001081GA2999+999999031GE19MSL   +99999+99999GF105991031999006001999999KA1120N+02481MA1999999098781MD1999999-0021REMSYN004BUFR
0098825860999992016011300004-05170-039280FM-12+021299999V0201401N0072122000199001000199+02921+02141101181ADDAA101999999AZ101061AZ201061GF100991999999999999999999MA1999999098541MD1999999+0061REMSYN004BUFR
0149825860999992016011312004-05170-039280FM-12+021299999V0200901N0072100600199020000199+02921+02141101331ADDAA101999999AZ101061AZ201061GA1051+006001081GE19MSL   +99999+99999GF105991051999006001999999KA1120N+02501MA1999999098681MD1999999-0101REMSYN004BUFR
0136825860999992016011400004-05170-039280FM-12+021299999V0200901N0051199999999001000199+02891+02171101261ADDAA101999999AZ101061AZ201061GA1031+050001081GE19MSL   +99999+99999GF103991031999050001999999MA1999999098611MD1999999+0071REMSYN004BUFR
0149825860999992016011412004-05170-039280FM-12+021299999V0203601N0015100600199020000199+02541+02231101491ADDAA101999999AZ101061AZ201061GA1051+006001081GE19MSL   +99999+99999GF105991051999006001999999KA1120N+02401MA1999999098821MD1999999+0141REMSYN004BUFR
0098825860999992016011500004-05170-039280FM-12+021299999V0200901N0051122000199001000199+02721+02261101341ADDAA101999999AZ101061AZ201061GF100991999999999999999999MA1999999098681MD1999999+0071REMSYN004BUFR
0149825860999992016011512004-05170-039280FM-12+021299999V0200901N0005100600199020000199+02691+02231101461ADDAA101999999AZ101061AZ201061GA1051+006001081GE19MSL   +99999+99999GF105991051999006001999999KA1120N+02561MA1999999098791MD1999999+0031REMSYN004BUFR
0136825860999992016011600004-05170-039280FM-12+021299999V0200901N0031199999999001000199+02871+02161101261ADDAA101999999AZ101061AZ201061GA1031+006001081GE19MSL   +99999+99999GF103991031999006001999999MA1999999098601MD1999999+0081REMSYN004BUFR
0151825860999992016013112004-05170-039280FM-12+021299999V0201801N0041199999999020000199+02671+02111999999ADDAA101999999AZ101061AZ201061GA1041+006001081GA2999+999999001GE19MSL   +99999+99999GF105991041999006001999999KA1120N+02041MA1999999098901REMSYN004BUFR
0144825860999992016020100004-05170-039280FM-12+021299999V020999999999900000199001000199+02621+02291101471ADDAA106001031GA1091+000001101GA2999+999999101GA3999+999999101GE19MSL   +99999+99999GF199999091999000001999999MA1999999098791MW1551REMSYN004BUFR
0187825860999992016020112004-05170-039280FM-12+021299999V0201801N0031100600199020000199+02391+02241101631ADDAA124015031AY161061AY261061GA1081+006001071GA2999+999999101GA3999+999999101GE19MSL   +99999+99999GF108991081999006001999999KA1120N+02221MA1999999098931MD1999999+0031MW1151REMSYN004BUFR
0174825860999992016020200004-05170-039280FM-12+021299999V0201801N0031100000199001000199+02341+02131101561ADDAA106004031AY161061AY261061GA1091+000001101GA2999+999999101GA3999+999999101GE19MSL   +99999+99999GF199999091999000001999999MA1999999098851MD1999999+0061MW1131REMSYN004BUFR
0165825860999992016020212004-05170-039280FM-12+021299999V0201801N0026199999999020000199+02391+02241101511ADDAA124004031AZ101061AZ201061GA1041+006001061GA2999+999999001GE19MSL   +99999+99999GF106991041999006001999999KA1120N+02201MA1999999098831MD1999999-0101REMSYN004BUFR
0174825860999992016020300004-05170-039280FM-12+021299999V0201801N0021105000199001000199+02291+02141101441ADDAA106010031AY161061AY261061GA1081+050001071GA2999+999999101GA3999+999999101GE19MSL   +99999+99999GF108991081999050001999999MA1999999098731MD1999999-0121MW1021REMSYN004BUFR
0171825860999992016020312004-05170-039280FM-12+021299999V0201801N0015100600199020000199+02421+02261101541ADDAA124010031GA1081+006001071GA2999+999999101GA3999+999999101GE19MSL   +99999+99999GF108991081999006001999999KA1120N+02261MA1999999098831MD1999999+0001MW1151REMSYN004BUFR
0136825860999992016020400004-05170-039280FM-12+021299999V0201801N0036105000199001000199+02641+02291101321ADDAA101999999AZ101061AZ201061GA1061+050001071GE19MSL   +99999+99999GF106991061999050001999999MA1999999098631MD1999999-0101REMSYN004BUFR
0181825860999992016020412004-05170-039280FM-12+021299999V0201801N0051100600199020000199+02571+02331101521ADDAA101999999AZ101061AZ201061GA1071+006001061GA2999+999999101GA3999+999999101GE19MSL   +99999+99999GF108991071999006001999999KA1120N+02301MA1999999098831MD1999999+0001REMSYN004BUFR
0136825860999992016020500004-05170-039280FM-12+021299999V0201801N0015105000199001000199+02751+02381101381ADDAA101999999AZ101061AZ201061GA1061+050001071GE19MSL   +99999+99999GF106991061999050001999999MA1999999098701MD1999999+0071REMSYN004BUFR
0181825860999992016020512004-05170-039280FM-12+021299999V0200901N0041100600199020000199+02591+02311101551ADDAA101999999AZ101061AZ201061GA1081+006001061GA2999+999999101GA3999+999999101GE19MSL   +99999+99999GF108991081999006001999999KA1120N+02401MA1999999098871MD1999999+0041REMSYN004BUFR
0149825860999992016020612004-05170-039280FM-12+021299999V0201401N0062100600199020000199+02721+02261101601ADDAA101999999AZ101061AZ201061GA1061+006001081GE19MSL   +99999+99999GF106991061999006001999999KA1120N+02461MA1999999098921MD1999999+0051REMSYN004BUFR
0149825860999992016020812004-05170-039280FM-12+021299999V0200901N0051100600199020000199+02691+02201101601ADDAA101999999AZ101061AZ201061GA1061+006001081GE19MSL   +99999+99999GF106991061999006001999999KA1120N+02441MA1999999098931MD1999999+0031REMSYN004BUFR
0149825860999992016020912004-05170-039280FM-12+021299999V0200901N0051199999999020000199+02691+02171101681ADDAA101999999AZ101061AZ201061GA1041+006001081GE19MSL   +99999+99999GF104991041999006001999999KA1120N+02281MA1999999099001MD1999999+0071REMSYN004BUFR
0165825860999992016021012004-05170-039280FM-12+021299999V0201401N0051199999999020000199+02741+02241101581ADDAA101999999AZ101061AZ201061GA1031+006001081GA2999+999999001GE19MSL   +99999+99999GF104991031999006001999999KA1120N+02401MA1999999098911MD1999999-0091REMSYN004BUFR
0136825860999992016021100004-05170-039280FM-12+021299999V0201801N0051199999999001000199+02591+02141101461ADDAA101999999AZ101061AZ201061GA1021+050001081GE19MSL   +99999+99999GF102991021999050001999999MA1999999098781MD1999999-0021REMSYN004BUFR
0182825860999992016021112004-05200-039300FM-12+021299999V0201401N005119999999N020000199+02681+02111101481ADDGA1031+008001081GE19MSL   +99999+99999GF103991031999008001999999KA1240N+02381MA1999999098801MD1999999-0111REMSYN06482586 32598 31410 10268 20211 39880 40148 83200 333 20238 59011=
0098825860999992016021200004-05170-039280FM-12+021299999V0200901N0015122000199001000199+02791+02181101291ADDAA101999999AZ101061AZ201061GF100991999999999999999999MA1999999098621MD1999999-0161REMSYN004BUFR
0165825860999992016021212004-05170-039280FM-12+021299999V0200901N0031199999999020000199+02691+02241101481ADDAA101999999AZ101061AZ201061GA1041+006001071GA2999+999999001GE19MSL   +99999+99999GF106991041999006001999999KA1120N+02381MA1999999098811MD1999999+0011REMSYN004BUFR
0098825860999992016021300004-05170-039280FM-12+021299999V0201401N0057122000199001000199+02921+02141101271ADDAA101999999AZ101061AZ201061GF100991999999999999999999MA1999999098611MD1999999-0011REMSYN004BUFR
0165825860999992016021312004-05170-039280FM-12+021299999V0201401N0015100600199020000199+02591+02311101451ADDAA101999999AZ101061AZ201061GA1051+006001081GA2999+999999001GE19MSL   +99999+99999GF107991051999006001999999KA1120N+02321MA1999999098781MD1999999-0031REMSYN004BUFR
0168825860999992016021400004-05170-039280FM-12+021299999V0201401N0051100000199001000199+02841+02241101331ADDAA101999999AZ101061AZ201061GA1091+000001101GA2999+999999101GA3999+999999101GE19MSL   +99999+99999GF199999091999000001999999MA1999999098661MD1999999+0051REMSYN004BUFR
0149825860999992016021412004-05170-039280FM-12+021299999V0201401N0051100600199020000199+02691+02411101451ADDAA101999999AZ101061AZ201061GA1071+006001081GE19MSL   +99999+99999GF107991071999006001999999KA1120N+02461MA1999999098781MD1999999+0001REMSYN004BUFR
0142825860999992016021500004-05170-039280FM-12+021299999V0201401N0021199999999001000199+02491+02211101371ADDAA106005031AY191061AY261061GA1041+006001061GE19MSL   +99999+99999GF104991041999006001999999MA1999999098671MD1999999+0011MW1021REMSYN004BUFR
0168825860999992016021600004-05170-039280FM-12+021299999V0201801N0010100000199001000199+02991+02441101251ADDAA101999999AZ101061AZ201061GA1091+000001101GA2999+999999101GA3999+999999101GE19MSL   +99999+99999GF199999091999000001999999MA1999999098601MD1999999-0071REMSYN004BUFR
0181825860999992016021612004-05170-039280FM-12+021299999V0201801N0041199999999020000199+02751+02321101421ADDAA101999999AZ101061AZ201061GA1041+006001061GA2999+999999051GA3999+999999001GE19MSL   +99999+99999GF107991041999006001999999KA1120N+02461MA1999999098771MD1999999-0031REMSYN004BUFR
0136825860999992016021700004-05170-039280FM-12+021299999V0201401N0015199999999001000199+02921+02321101201ADDAA101999999AZ101061AZ201061GA1041+050001031GE19MSL   +99999+99999GF104991041999050001999999MA1999999098551MD1999999-0051REMSYN004BUFR
0165825860999992016021712004-05170-039280FM-12+021299999V0200901N0051199999999020000199+02871+02161101321ADDAA101999999AZ101061AZ201061GA1041+006001081GA2999+999999001GE19MSL   +99999+99999GF105991041999006001999999KA1120N+02481MA1999999098671MD1999999-0101REMSYN004BUFR
0136825860999992016021800004-05170-039280FM-12+021299999V0200901N0010199999999001000199+02941+02331101201ADDAA101999999AZ101061AZ201061GA1021+050001081GE19MSL   +99999+99999GF102991021999050001999999MA1999999098551MD1999999+0001REMSYN004BUFR
0182825860999992016021812004-05200-039300FM-12+021299999V0200901N006719999999N020000199+02921+02191101301ADDGA1031+008001081GE19MSL   +99999+99999GF103991031999008001999999KA1240N+02421MA1999999098661MD1999999-0011REMSYN06482586 32598 30913 10292 20219 39866 40130 83200 333 20242 59001=
0142825860999992016021900004-05170-039280FM-12+021299999V0200901N0031199999999001000199+02641+02181101261ADDAA101999999AY101061AY201061GA1031+050001061GE19MSL   +99999+99999GF103991031999050001999999MA1999999098601MD1999999+0051MW1131REMSYN004BUFR
0149825860999992016021912004-05170-039280FM-12+021299999V0200901N0057100600199020000199+02751+02361101451ADDAA101999999AZ101061AZ201061GA1061+006001081GE19MSL   +99999+99999GF106991061999006001999999KA1120N+02381MA1999999098781MD1999999+0121REMSYN004BUFR
0104825860999992016022000004-05170-039280FM-12+021299999V0200901N0041122000199001000199+02421+02251101301ADDAA106002031AY161061AY291061GF100991999999999999999999MA1999999098631MD1999999+0031MW1511REMSYN004BUFR
0149825860999992016022012004-05170-039280FM-12+021299999V0200901N0062100600199020000199+02571+02291101501ADDAA124002031AZ101061AZ201061GA1061+006001071GE19MSL   +99999+99999GF106991061999006001999999KA1120N+02361MA1999999098801MD1999999+0021REMSYN004BUFR
0136825860999992016022100004-05170-039280FM-12+021299999V0200901N0015105000199002000199+02721+02281101251ADDAA101999999AZ101061AZ201061GA1061+050001031GE19MSL   +99999+99999GF106991061999050001999999MA1999999098581MD1999999-0051REMSYN004BUFR
0165825860999992016022112004-05170-039280FM-12+021299999V0200901N0067199999999020000199+02791+02251101371ADDAA101999999AZ101061AZ201061GA1041+006001081GA2999+999999001GE19MSL   +99999+99999GF105991041999006001999999KA1120N+02421MA1999999098701MD1999999-0101REMSYN004BUFR
0136825860999992016022200004-05170-039280FM-12+021299999V0200901N0067105000199001000199+02591+02311101171ADDAA101999999AZ101061AZ201061GA1071+050001071GE19MSL   +99999+99999GF107991071999050001999999MA1999999098501MD1999999-0081REMSYN004BUFR
0149825860999992016022212004-05170-039280FM-12+021299999V0200901N0051100600199020000199+02691+02261101381ADDAA101999999AZ101061AZ201061GA1051+006001081GE19MSL   +99999+99999GF105991051999006001999999KA1120N+02321MA1999999098701MD1999999+0001REMSYN004BUFR
0174825860999992016022300004-05170-039280FM-12+021299999V0200901N0057100000199001000199+02641+02091101271ADDAA101999999AY101061AY201061GA1091+000001101GA2999+999999101GA3999+999999101GE19MSL   +99999+99999GF199999091999000001999999MA1999999098601MD1999999-0101MW1131REMSYN004BUFR
0149825860999992016022312004-05170-039280FM-12+021299999V0201401N0036100600199020000199+02841+02311101441ADDAA101999999AZ101061AZ201061GA1061+006001081GE19MSL   +99999+99999GF106991061999006001999999KA1120N+02441MA1999999098771MD1999999+0071REMSYN004BUFR
0142825860999992016022400004-05170-039280FM-12+021299999V0201401N0031105000199001000199+02741+02211101321ADDAA101999999AY101061AY201061GA1061+050001071GE19MSL   +99999+99999GF106991061999050001999999MA1999999098761MD1999999+0171MW1131REMSYN004BUFR
0171825860999992016022412004-05170-039280FM-12+021299999V0201801N0041100600199020000199+02591+02311101481ADDAA124002031AY191061AY261061GA1051+006001081GA2999+999999001GE19MSL   +99999+99999GF105991051999006001999999KA1120N+02361MA1999999098801MD1999999+0031MW1021REMSYN004BUFR
0098825860999992016022500004-05170-039280FM-12+021299999V0201801N0010122000199001000199+02921+02321101211ADDAA101999999AZ101061AZ201061GF100991999999999999999999MA1999999098551MD1999999-0221REMSYN004BUFR
0165825860999992016022512004-05170-039280FM-12+021299999V0201801N0051199999999020000199+02741+02301101331ADDAA101999999AZ101061AZ201061GA1041+006001071GA2999+999999031GE19MSL   +99999+99999GF106991041999006001999999KA1120N+02501MA1999999098681MD1999999-0121REMSYN004BUFR
0136825860999992016022600004-05170-039280FM-12+021299999V0200901N0051199999999001000199+02941+02491101111ADDAA101999999AZ101061AZ201061GA1041+050001081GE19MSL   +99999+99999GF104991041999050001999999MA1999999098461MD1999999+0091REMSYN004BUFR
0149825860999992016022612004-05170-039280FM-12+021299999V0200901N0051100600199020000199+02851+02261101281ADDAA101999999AZ101061AZ201061GA1051+006001081GE19MSL   +99999+99999GF105991051999006001999999KA1120N+02481MA1999999098631MD1999999-0051REMSYN004BUFR
0136825860999992016022700004-05170-039280FM-12+021299999V0200901N0051199999999001000199+02921+02321101191ADDAA101999999AZ101061AZ201061GA1031+050001031GE19MSL   +99999+99999GF103991031999050001999999MA1999999098551MD1999999+0091REMSYN004BUFR
0149825860999992016022712004-05170-039280FM-12+021299999V0201401N0041100600199020000199+02821+02291101431ADDAA101999999AZ101061AZ201061GA1061+006001071GE19MSL   +99999+99999GF106991061999006001999999KA1120N+02481MA1999999098771MD1999999+0141REMSYN004BUFR
0098825860999992016022800004-05170-039280FM-12+021299999V0200901N0036122000199001000199+03021+02291101161ADDAA101999999AZ101061AZ201061GF100991999999999999999999MA1999999098521MD1999999-0031REMSYN004BUFR
0149825860999992016022812004-05170-039280FM-12+021299999V0201401N0026100600199020000199+02741+02281101421ADDAA101999999AZ101061AZ201061GA1071+006001071GE19MSL   +99999+99999GF107991071999006001999999KA1120N+02501MA1999999098771MD1999999+0001REMSYN004BUFR
0098825860999992016022900004-05170-039280FM-12+021299999V0201401N0031122000199001000199+03091+02291101151ADDAA101999999AZ101061AZ201061GF100991999999999999999999MA1999999098601MD1999999+0081REMSYN004BUFR
0181825860999992016022912004-05170-039280FM-12+021299999V0200901N0041100600199020000199+02691+02261101431ADDAA101999999AZ101061AZ201061GA1081+006001071GA2999+999999101GA3999+999999101GE19MSL   +99999+99999GF108991081999006001999999KA1120N+02421MA1999999098781MD1999999+0011REMSYN004BUFR
0098825860999992016030100004-05170-039280FM-12+021299999V0200901N0062122000199001000199+02891+02251101181ADDAA101999999AZ101061AZ201061GF100991999999999999999999MA1999999098531MD1999999-0071REMSYN004BUFR
0149825860999992016030112004-05170-039280FM-12+021299999V0201401N0057100600199020000199+02741+02241101401ADDAA101999999AZ101061AZ201061GA1061+006001061GE19MSL   +99999+99999GF106991061999006001999999KA1120N+02441MA1999999098741MD1999999-0041REMSYN004BUFR
0098825860999992016030200004-05170-039280FM-12+021299999V0200901N0041122000199001000199+02951+02311101151ADDAA101999999AZ101061AZ201061GF100991999999999999999999MA1999999098501MD1999999-0031REMSYN004BUFR
0149825860999992016030212004-05170-039280FM-12+021299999V0201401N0057199999999020000199+02921+02091101421ADDAA101999999AZ101061AZ201061GA1031+006001081GE19MSL   +99999+99999GF103991031999006001999999KA1120N+02461MA1999999098771MD1999999+0031REMSYN004BUFR
0098825860999992016030300004-05170-039280FM-12+021299999V0200901N0041122000199001000199+02921+02121101161ADDAA101999999AZ101061AZ201061GF100991999999999999999999MA1999999098521MD1999999+0021REMSYN004BUFR
0165825860999992016030312004-05170-039280FM-12+021299999V0200901N0031100600199020000199+02921+02271101411ADDAA101999999AZ101061AZ201061GA1051+006001081GA2999+999999031GE19MSL   +99999+99999GF107991051999006001999999KA1120N+02501MA1999999098761MD1999999-0011REMSYN004BUFR
0174825860999992016030400004-05170-039280FM-12+021299999V0200901N0062100000199001000199+02521+02401101391ADDAA106001031AY151061AY251061GA1091+000001101GA2999+999999101GA3999+999999101GE19MSL   +99999+99999GF199999091999000001999999MA1999999098721MD1999999+0201MW1131REMSYN004BUFR
0165825860999992016030412004-05170-039280FM-12+021299999V0201801N0051199999999020000199+02691+02261101381ADDAA124001031AZ101061AZ201061GA1041+006001061GA2999+999999001GE19MSL   +99999+99999GF106991041999006001999999KA1120N+02321MA1999999098701MD1999999-0061REMSYN004BUFR
0098825860999992016030500004-05170-039280FM-12+021299999V020999999999922000199001000199+03021+02341101181ADDAA101999999AZ101061AZ201061GF100991999999999999999999MA1999999098531MD1999999-0191REMSYN004BUFR
0165825860999992016030512004-05170-039280FM-12+021299999V0201401N0041199999999020000199+02741+02301101451ADDAA101999999AZ101061AZ201061GA1041+006001081GA2999+999999001GE19MSL   +99999+99999GF105991041999006001999999KA1120N+02481MA1999999098801MD1999999+0101REMSYN004BUFR
0098825860999992016030600004-05170-039280FM-12+021299999V0201401N0046122000199001000199+02921+02341101161ADDAA101999999AZ101061AZ201061GF100991999999999999999999MA1999999098511MD1999999-0021REMSYN004BUFR
0165825860999992016030612004-05170-039280FM-12+021299999V0200901N0051199999999020000199+02791+02181101461ADDAA101999999AZ101061AZ201061GA1041+006001061GA2999+999999001GE19MSL   +99999+99999GF106991041999006001999999KA1120N+02501MA1999999098801MD1999999+0001REMSYN004BUFR
0098825860999992016030700004-05170-039280FM-12+021299999V0200501N0031122000199001000199+02921+02321101191ADDAA101999999AZ101061AZ201061GF100991999999999999999999MA1999999098541MD1999999+0031REMSYN004BUFR
0149825860999992016030712004-05170-039280FM-12+021299999V0200901N0067199999999020000199+02971+02301101451ADDAA101999999AZ101061AZ201061GA1021+006001081GE19MSL   +99999+99999GF102991021999006001999999KA1120N+02501MA1999999098801MD1999999+0001REMSYN004BUFR
0098825860999992016030800004-05170-039280FM-12+021299999V0200901N0015122000199001000199+02941+02241101171ADDAA101999999AZ101061AZ201061GF100991999999999999999999MA1999999098531MD1999999-0011REMSYN004BUFR
0149825860999992016030812004-05170-039280FM-12+021299999V0201401N0031100600199020000199+02851+02261101451ADDAA101999999AZ101061AZ201061GA1061+006001071GE19MSL   +99999+99999GF106991061999006001999999KA1120N+02561MA1999999098801MD1999999+0001REMSYN004BUFR
0187825860999992016030912004-05170-039280FM-12+021299999V0200901N0041100600199020000199+02591+02311101491ADDAA124006031AY161061AY261061GA1081+006001071GA2999+999999101GA3999+999999101GE19MSL   +99999+99999GF108991081999006001999999KA1120N+02401MA1999999098821MD1999999+0021MW1151REMSYN004BUFR
0158825860999992016031000004-05170-039280FM-12+021299999V0201801N0005105000199001000199+02871+02441101291ADDAA101999999GA1081+050001071GA2999+999999101GA3999+999999101GE19MSL   +99999+99999GF108991081999050001999999MA1999999098631MD1999999+0071MW1131REMSYN004BUFR
0165825860999992016031012004-05170-039280FM-12+021299999V0200901N0062199999999020000199+02791+02151101451ADDAA101999999AZ101061AZ201061GA1041+006001061GA2999+999999001GE19MSL   +99999+99999GF106991041999006001999999KA1120N+02421MA1999999098801MD1999999-0021REMSYN004BUFR
0098825860999992016031100004-05170-039280FM-12+021299999V0200501N0057122000199001000199+02871+02161101261ADDAA101999999AZ101061AZ201061GF100991999999999999999999MA1999999098611MD1999999-0021REMSYN004BUFR
0149825860999992016031112004-05170-039280FM-12+021299999V0200901N0041100600199020000199+02741+02241101561ADDAA101999999AZ101061AZ201061GA1051+006001081GE19MSL   +99999+99999GF105991051999006001999999KA1120N+02441MA1999999098871MD1999999+0071REMSYN004BUFR
0171825860999992016031212004-05170-039280FM-12+021299999V0200901N0051199999999020000199+02651+02311101581ADDAA101999999AY101061AY201061GA1041+006001071GA2999+999999001GE19MSL   +99999+99999GF106991041999006001999999KA1120N+02361MA1999999098901MD1999999+0031MW1151REMSYN004BUFR
0098825860999992016031300004-05170-039280FM-12+021299999V0200901N0062122000199001000199+02891+01991101301ADDAA101999999AZ101061AZ201061GF100991999999999999999999MA1999999098641MD1999999-0111REMSYN004BUFR
0149825860999992016031312004-05170-039280FM-12+021299999V0200901N0026100600199020000199+02791+02201101501ADDAA101999999AZ101061AZ201061GA1061+006001071GE19MSL   +99999+99999GF106991061999006001999999KA1120N+02481MA1999999098841MD1999999-0061REMSYN004BUFR
0158825860999992016031400004-05170-039280FM-12+021299999V0201401N0031105000199001000199+02841+02291101311ADDAA101999999GA1081+050001071GA2999+999999101GA3999+999999101GE19MSL   +99999+99999GF108991081999050001999999MA1999999098651MD1999999+0011MW1131REMSYN004BUFR
0155825860999992016031412004-05170-039280FM-12+021299999V0200901N0057100600199020000199+02641+02251101581ADDAA124001031AY151061AY221061GA1071+006001061GE19MSL   +99999+99999GF108991071999006001999999KA1120N+02481MA1999999098911MD1999999+0071MW1151REMSYN004BUFR
0149825860999992016031512004-05170-039280FM-12+021299999V0200901N0046100600199020000199+02791+02361101551ADDAA101999999AZ101061AZ201061GA1061+006001081GE19MSL   +99999+99999GF107991061999006001999999KA1120N+02481MA1999999098881MD1999999-0031REMSYN004BUFR
0136825860999992016031600004-05170-039280FM-12+021299999V0201801N0041199999999001000199+02851+02371101421ADDAA101999999AZ101061AZ201061GA1041+050001081GE19MSL   +99999+99999GF104991041999050001999999MA1999999098761MD1999999+0031REMSYN004BUFR
0149825860999992016031612004-05170-039280FM-12+021299999V0200901N0026100600199020000199+02791+02271101561ADDAA101999999AZ101061AZ201061GA1071+006001071GE19MSL   +99999+99999GF107991071999006001999999KA1120N+02501MA1999999098901MD1999999+0021REMSYN004BUFR
0136825860999992016031700004-05170-039280FM-12+021299999V0201401N0005105000199001000199+02991+02271101381ADDAA101999999AZ101061AZ201061GA1071+050001071GE19MSL   +99999+99999GF107991071999050001999999MA1999999098731MD1999999-0031REMSYN004BUFR
0171825860999992016031712004-05170-039280FM-12+021299999V0201401N0015100600199020000199+02841+02141101531ADDAA124004031AY161061AY261061GA1051+006001081GA2999+999999031GE19MSL   +99999+99999GF105991051999006001999999KA1120N+02481MA1999999098881MD1999999-0021MW1021REMSYN004BUFR
0174825860999992016031800004-05170-039280FM-12+021299999V0200901N0021105000199001000199+02491+02321101591ADDAA106041031AY191061AY261061GA1081+050001071GA2999+999999101GA3999+999999101GE19MSL   +99999+99999GF108991081999050001999999MA1999999098911MD1999999+0181MW1501REMSYN004BUFR
0155825860999992016031812004-05170-039280FM-12+021299999V0200901N0031100600199020000199+02521+02341101621ADDAA124046031AY161061AY251061GA1061+006001071GE19MSL   +99999+99999GF106991061999006001999999KA1120N+02361MA1999999098921MD1999999+0041MW1021REMSYN004BUFR
0136825860999992016031900004-05170-039280FM-12+021299999V0201801N0057105000199001000199+02891+02171101371ADDAA101999999AZ101061AZ201061GA1071+050001071GE19MSL   +99999+99999GF107991071999050001999999MA1999999098701MD1999999-0211REMSYN004BUFR
0149825860999992016031912004-05170-039280FM-12+021299999V0201801N0036100600199020000199+02741+02241101541ADDAA101999999AZ101061AZ201061GA1061+006001071GE19MSL   +99999+99999GF106991061999006001999999KA1120N+02461MA1999999098871MD1999999-0041REMSYN004BUFR
0136825860999992016032000004-05170-039280FM-12+021299999V0201401N0087199999999001000199+02921+02141101261ADDAA101999999AZ101061AZ201061GA1041+050001071GE19MSL   +99999+99999GF104991041999050001999999MA1999999098611MD1999999-0091REMSYN004BUFR
0181825860999992016032012004-05170-039280FM-12+021299999V0201401N0051100600199020000199+02671+02331101501ADDAA101999999AZ101061AZ201061GA1081+006001071GA2999+999999101GA3999+999999101GE19MSL   +99999+99999GF108991081999006001999999KA1120N+02501MA1999999098841MD1999999-0031REMSYN004BUFR
0174825860999992016032100004-05170-039280FM-12+021299999V0201801N0062105000199001000199+02541+02251101471ADDAA106002031AY191061AY221061GA1081+050001071GA2999+999999101GA3999+999999101GE19MSL   +99999+99999GF108991081999050001999999MA1999999098781MD1999999+0171MW1501REMSYN004BUFR
0149825860999992016032112004-05170-039280FM-12+021299999V0201801N0031100600199020000199+02771+02341101581ADDAA124002031AZ101061AZ201061GA1061+006001081GE19MSL   +99999+99999GF106991061999006001999999KA1120N+02481MA1999999098901MD1999999+0061REMSYN004BUFR
0136825860999992016032200004-05170-039280FM-12+021299999V0201401N0021199999999001000199+02921+02321101401ADDAA101999999AZ101061AZ201061GA1031+050001081GE19MSL   +99999+99999GF103991031999050001999999MA1999999098751MD1999999-0031REMSYN004BUFR
0149825860999992016032212004-05170-039280FM-12+021299999V0201401N0051100600199020000199+02891+02321101641ADDAA101999999AZ101061AZ201061GA1051+006001081GE19MSL   +99999+99999GF105991051999006001999999KA1120N+02501MA1999999098981MD1999999+0081REMSYN004BUFR
0136825860999992016032400004-05170-039280FM-12+021299999V0201401N0026199999999001000199+02921+02241101291ADDAA101999999AZ101061AZ201061GA1021+050001081GE19MSL   +99999+99999GF102991021999050001999999MA1999999098631MD1999999-0191REMSYN004BUFR
0165825860999992016032412004-05170-039280FM-12+021299999V0201401N0031199999999020000199+02851+02191101471ADDAA101999999AZ101061AZ201061GA1031+006001081GA2999+999999001GE19MSL   +99999+99999GF105991031999006001999999KA1120N+02501MA1999999098821MD1999999-0071REMSYN004BUFR
0152825860999992016032500004-05170-039280FM-12+021299999V0201401N0062199999999001000199+02971+02371101261ADDAA101999999AZ101061AZ201061GA1031+050001081GA2999+999999031GE19MSL   +99999+99999GF105991031999050001999999MA1999999098611MD1999999-0021REMSYN004BUFR
0165825860999992016032512004-05170-039280FM-12+021299999V0200901N0067199999999020000199+02821+02271101461ADDAA101999999AZ101061AZ201061GA1041+006001081GA2999+999999001GE19MSL   +99999+99999GF106991041999006001999999KA1120N+02481MA1999999098811MD1999999+0011REMSYN004BUFR
0136825860999992016032600004-05170-039280FM-12+021299999V0200901N0046105000199001000199+02921+02191101291ADDAA101999999AZ101061AZ201061GA1071+050001071GE19MSL   +99999+99999GF107991071999050001999999MA1999999098641MD1999999+0031REMSYN004BUFR
0149825860999992016032612004-05170-039280FM-12+021299999V0200901N0051100600199020000199+02891+02301101501ADDAA101999999AZ101061AZ201061GA1051+006001081GE19MSL   +99999+99999GF107991051999006001999999KA1120N+02541MA1999999098851MD1999999+0041REMSYN004BUFR
0136825860999992016032700004-05170-039280FM-12+021299999V0201801N0031199999999001000199+03091+02231101281ADDAA101999999AZ101061AZ201061GA1041+050001081GE19MSL   +99999+99999GF104991041999050001999999MA1999999098651MD1999999+0011REMSYN004BUFR
0165825860999992016032712004-05170-039280FM-12+021299999V0201401N0021199999999020000199+02821+02221101481ADDAA101999999AZ101061AZ201061GA1041+006001081GA2999+999999001GE19MSL   +99999+99999GF106991041999006001999999KA1120N+02601MA1999999098831MD1999999-0021REMSYN004BUFR
0142825860999992016032800004-05170-039280FM-12+021299999V0201801N0046199999999001000199+02791+02421101261ADDAA101999999AY101061AY201061GA1041+050001071GE19MSL   +99999+99999GF104991041999050001999999MA1999999098601MD1999999-0051MW1131REMSYN004BUFR
0149825860999992016032812004-05170-039280FM-12+021299999V0201801N0015100600199020000199+02621+02271101471ADDAA101999999AZ101061AZ201061GA1071+006001071GE19MSL   +99999+99999GF107991071999006001999999KA1120N+02501MA1999999098801MD1999999-0031REMSYN004BUFR
0098825860999992016032900004-05170-039280FM-12+021299999V0201801N0005122000199001000199+02921+02471101231ADDAA101999999AZ101061AZ201061GF100991999999999999999999MA1999999098571MD1999999-0031REMSYN004BUFR
0149825860999992016032912004-05170-039280FM-12+021299999V0201801N0010100600199020000199+02891+02171101351ADDAA101999999AZ101061AZ201061GA1061+006001081GE19MSL   +99999+99999GF106991061999006001999999KA1120N+02481MA1999999098701MD1999999-0101REMSYN004BUFR
0174825860999992016033000004-05170-039280FM-12+021299999V0200901N0021105000199001000199+02491+02131101251ADDAA106006031AY161061AY251061GA1081+050001071GA2999+999999101GA3999+999999101GE19MSL   +99999+99999GF108991081999050001999999MA1999999098581MD1999999-0011MW1131REMSYN004BUFR
0187825860999992016033012004-05170-039280FM-12+021299999V0201401N0026100600199020000199+02391+02241101651ADDAA124008031AY151061AY251061GA1081+006001081GA2999+999999031GA3999+999999101GE19MSL   +99999+99999GF108991081999006001999999KA1120N+02241MA1999999098951MD1999999+0251MW1151REMSYN004BUFR
0187825860999992016033112004-05170-039280FM-12+021299999V0201801N0031100600199020000199+02521+02341101591ADDAA124004031AY151061AY251061GA1081+006001071GA2999+999999101GA3999+999999101GE19MSL   +99999+99999GF108991081999006001999999KA1120N+02301MA1999999098901MD1999999-0051MW1501REMSYN004BUFR
0136825860999992016040100004-05170-039280FM-12+021299999V0201401N0021199999999001000199+02921+02241101291ADDAA101999999AZ101061AZ201061GA1031+050001081GE19MSL   +99999+99999GF103991031999050001999999MA1999999098631MD1999999+0031REMSYN004BUFR
0187825860999992016040112004-05170-039280FM-12+021299999V0203601N0015100600199020000199+02591+02401101391ADDAA124001031AY121061AY221061GA1081+006001071GA2999+999999101GA3999+999999101GE19MSL   +99999+99999GF108991081999006001999999KA1120N+02401MA1999999098721MD1999999-0181MW1151REMSYN004BUFR
0174825860999992016040200004-05170-039280FM-12+021299999V0201401N0015105000199001000199+02591+02421101301ADDAA106012031AY161061AY261061GA1081+050001071GA2999+999999101GA3999+999999101GE19MSL   +99999+99999GF108991081999050001999999MA1999999098641MD1999999+0041MW1131REMSYN004BUFR
0187825860999992016040212004-05170-039280FM-12+021299999V0200901N0021100600199020000199+02741+02381101221ADDAA124012031AY121061AY221061GA1081+006001071GA2999+999999101GA3999+999999101GE19MSL   +99999+99999GF108991081999006001999999KA1120N+02401MA1999999098601MD1999999-0121MW1151REMSYN004BUFR
0098825860999992016040300004-05170-039280FM-12+021299999V0203601N0000122000199001000199+02841+02351101321ADDAA101999999AZ101061AZ201061GF100991999999999999999999MA1999999098651MD1999999+0011REMSYN004BUFR
0187825860999992016040312004-05170-039280FM-12+021299999V0201801N0010100600199020000199+02491+02361101351ADDAA101999999AY121061AY221061GA1081+006001071GA2999+999999101GA3999+999999101GE19MSL   +99999+99999GF108991081999006001999999KA1120N+02381MA1999999098701MD1999999+0101MW1151REMSYN004BUFR
0136825860999992016040400004-05170-039280FM-12+021299999V0203601N0000199999999001000199+02591+02081101361ADDAA101999999AZ101061AZ201061GA1021+050001081GE19MSL   +99999+99999GF102991021999050001999999MA1999999098681MD1999999+0041REMSYN004BUFR
0165825860999992016040412004-05170-039280FM-12+021299999V0200901N0031199999999020000199+02591+02311101551ADDAA101999999AZ101061AZ201061GA1041+006001061GA2999+999999051GE19MSL   +99999+99999GF106991041999006001999999KA1120N+02361MA1999999098861MD1999999+0161REMSYN004BUFR
0136825860999992016040500004-05170-039280FM-12+021299999V0200901N0031199999999001000199+02691+02081101391ADDAA101999999AZ101061AZ201061GA1021+050001081GE19MSL   +99999+99999GF102991021999050001999999MA1999999098721MD1999999+0041REMSYN004BUFR
0149825860999992016040512004-05170-039280FM-12+021299999V0201401N0046100600199020000199+02691+02261101461ADDAA101999999AZ101061AZ201061GA1051+006001081GE19MSL   +99999+99999GF105991051999006001999999KA1120N+02441MA1999999098791MD1999999-0071REMSYN004BUFR
0174825860999992016040600004-05170-039280FM-12+021299999V0201401N0046100000199001000199+02491+02321101411ADDAA106033031AY191061AY261061GA1091+000001101GA2999+999999101GA3999+999999101GE19MSL   +99999+99999GF199999091999000001999999MA1999999098731MD1999999+0011MW1621REMSYN004BUFR
0155825860999992016040612004-05170-039280FM-12+021299999V0201801N0041100600199020000199+02591+02421101441ADDAA124034031AY161061AY221061GA1071+006001071GE19MSL   +99999+99999GF107991071999006001999999KA1120N+02381MA1999999098751MD1999999-0041MW1151REMSYN004BUFR
0098825860999992016040700004-05170-039280FM-12+021299999V0200901N0015122000199001000199+02691+02111101341ADDAA101999999AZ101061AZ201061GF100991999999999999999999MA1999999098661MD1999999-0071REMSYN004BUFR
0171825860999992016040712004-05170-039280FM-12+021299999V0200901N0051100600199020000199+02321+02161101531ADDAA124005031GA1081+006001071GA2999+999999101GA3999+999999101GE19MSL   +99999+99999GF108991081999006001999999KA1120N+02241MA1999999098831MD1999999+0081MW1211REMSYN004BUFR
0098825860999992016040800004-05170-039280FM-12+021299999V0203601N0000122000199001000199+02691+02081101341ADDAA101999999AZ101061AZ201061GF100991999999999999999999MA1999999098671MD1999999+0011REMSYN004BUFR
0165825860999992016040812004-05170-039280FM-12+021299999V0200501N0072199999999020000199+02721+02261101491ADDAA101999999AZ101061AZ201061GA1041+006001081GA2999+999999001GE19MSL   +99999+99999GF106991041999006001999999KA1120N+02221MA1999999098821MD1999999-0011REMSYN004BUFR
0098825860999992016040900004-05170-039280FM-12+021299999V0200901N0015122000199001000199+02791+02111101361ADDAA101999999AZ101061AZ201061GF100991999999999999999999MA1999999098691MD1999999+0071REMSYN004BUFR
0165825860999992016040912004-05170-039280FM-12+021299999V0201401N0051100600199020000199+02721+02281101371ADDAA101999999AZ101061AZ201061GA1061+006001081GA2999+999999031GE19MSL   +99999+99999GF106991061999006001999999KA1120N+02361MA1999999098701MD1999999-0121REMSYN004BUFR
0098825860999992016041000004-05170-039280FM-12+021299999V0203601N0000122000199001000199+02591+02261101371ADDAA101999999AZ101061AZ201061GF100991999999999999999999MA1999999098701MD1999999+0011REMSYN004BUFR
0149825860999992016041012004-05170-039280FM-12+021299999V0201401N0062199999999020000199+02771+02231101381ADDAA101999999AZ101061AZ201061GA1041+006001081GE19MSL   +99999+99999GF106991041999006001999999KA1120N+02481MA1999999098701MD1999999+0011REMSYN004BUFR
0136825860999992016041100004-05170-039280FM-12+021299999V0203601N0062105000199001000199+02591+02081101391ADDAA101999999AZ101061AZ201061GA1061+050001081GE19MSL   +99999+99999GF106991061999050001999999MA1999999098721MD1999999+0021REMSYN004BUFR
0171825860999992016041112004-05170-039280FM-12+021299999V0201801N0062199999999020000199+02691+02351101401ADDAA124007031AY161061AY261061GA1041+006001081GA2999+999999031GE19MSL   +99999+99999GF106991041999006001999999KA1120N+02361MA1999999098721MD1999999+0011MW1021REMSYN004BUFR
0174825860999992016041200004-05170-039280FM-12+021299999V0203601N0015105000199001000199+02291+02141101341ADDAA106028031AY191061AY261061GA1081+050001081GA2999+999999101GA3999+999999101GE19MSL   +99999+99999GF108991081999050001999999MA1999999098651MD1999999-0071MW1211REMSYN004BUFR
0187825860999992016041212004-05170-039280FM-12+021299999V0201401N0031100600199020000199+02451+02341101461ADDAA124030031AY151061AY251061GA1081+006001081GA2999+999999031GA3999+999999101GE19MSL   +99999+99999GF108991081999006001999999KA1120N+02201MA1999999098751MD1999999+0031MW1021REMSYN004BUFR
0152825860999992016041300004-05170-039280FM-12+021299999V0200901N0015199999999001000199+02591+02121101351ADDAA101999999AZ101061AZ201061GA1041+050001081GA2999+999999031GE19MSL   +99999+99999GF106991041999050001999999MA1999999098661MD1999999+0011REMSYN004BUFR
0181825860999992016041312004-05170-039280FM-12+021299999V0201401N0031199999999020000199+02591+02251101501ADDAA101999999AZ101061AZ201061GA1021+006001081GA2999+999999031GA3999+999999001GE19MSL   +99999+99999GF106991021999006001999999KA1120N+02281MA1999999098811MD1999999+0061REMSYN004BUFR
0136825860999992016041400004-05170-039280FM-12+021299999V0201401N0015199999999001000199+02791+02181101391ADDAA101999999AZ101061AZ201061GA1031+050001081GE19MSL   +99999+99999GF103991031999050001999999MA1999999098721MD1999999+0061REMSYN004BUFR
0149825860999992016041412004-05170-039280FM-12+021299999V0201401N0015100600199020000199+02651+02291101471ADDAA101999999AZ101061AZ201061GA1071+006001071GE19MSL   +99999+99999GF107991071999006001999999KA1120N+02481MA1999999098801MD1999999-0011REMSYN004BUFR
0098825860999992016041500004-05170-039280FM-12+021299999V0203601N0015122000199001000199+02591+02281101391ADDAA101999999AZ101061AZ201061GF100991999999999999999999MA1999999098711MD1999999+0011REMSYN004BUFR
0098825860999992016041600004-05170-039280FM-12+021299999V0200901N0015122000199001000199+02621+01901101381ADDAA101999999AZ101061AZ201061GF100991999999999999999999MA1999999098701MD1999999+0011REMSYN004BUFR
0171825860999992016041612004-05170-039280FM-12+021299999V0200901N0010199999999020000199+02621+02421101591ADDAA124007031AY161061AY251061GA1041+006001071GA2999+999999031GE19MSL   +99999+99999GF106991041999006001999999KA1120N+02361MA1999999098901MD1999999+0091MW1021REMSYN004BUFR
0136825860999992016041700004-05170-039280FM-12+021299999V0200901N0021199999999001000199+02591+02231101401ADDAA101999999AZ101061AZ201061GA1041+050001081GE19MSL   +99999+99999GF104991041999050001999999MA1999999098721MD1999999-0041REMSYN004BUFR
0149825860999992016041712004-05170-039280FM-12+021299999V0201401N0015199999999020000199+02751+02231101491ADDAA101999999AZ101061AZ201061GA1041+006001081GE19MSL   +99999+99999GF104991041999006001999999KA1120N+02381MA1999999098821MD1999999-0081REMSYN004BUFR
0142825860999992016041800004-05170-039280FM-12+021299999V0203601N0015199999999001000199+02691+02261101411ADDAA106002031AY161061AY221061GA1021+050001081GE19MSL   +99999+99999GF102991021999050001999999MA1999999098731MD1999999+0011MW1021REMSYN004BUFR
0165825860999992016041812004-05170-039280FM-12+021299999V0200901N0031199999999020000199+02641+02291101481ADDAA124001031AZ101061AZ201061GA1031+006001081GA2999+999999031GE19MSL   +99999+99999GF104991031999006001999999KA1120N+02321MA1999999098801MD1999999-0021REMSYN004BUFR
0142825860999992016041900004-05170-039280FM-12+021299999V0200901N0026199999999001000199+02421+02331101451ADDAA106012031AY191061AY261061GA1041+050001071GE19MSL   +99999+99999GF104991041999050001999999MA1999999098761MD1999999+0031MW1021REMSYN004BUFR
0165825860999992016041912004-05170-039280FM-12+021299999V0200901N0031199999999020000199+02441+02231101521ADDAA124012031AZ101061AZ201061GA1041+006001081GA2999+999999031GE19MSL   +99999+99999GF107991041999006001999999KA1120N+02341MA1999999098811MD1999999+0011REMSYN004BUFR
0136825860999992016042000004-05170-039280FM-12+021299999V0203601N0000199999999001000199+02591+02061101461ADDAA101999999AZ101061AZ201061GA1031+050001081GE19MSL   +99999+99999GF103991031999050001999999MA1999999098771MD1999999+0011REMSYN004BUFR
0149825860999992016042012004-05170-039280FM-12+021299999V0201401N0051199999999020000199+02691+02331101371ADDAA101999999AZ101061AZ201061GA1031+006001081GE19MSL   +99999+99999GF103991031999006001999999KA1120N+02301MA1999999098721MD1999999-0091REMSYN004BUFR
0136825860999992016042100004-05170-039280FM-12+021299999V0200901N0021105000199001000199+02591+02011101491ADDAA101999999AZ101061AZ201061GA1071+050001081GE19MSL   +99999+99999GF107991071999050001999999MA1999999098811MD1999999+0041REMSYN004BUFR
0171825860999992016042112004-05170-039280FM-12+021299999V0201401N0026199999999020000199+02691+02201101081ADDAA124000431AY151061AY221061GA1021+006001081GA2999+999999001GE19MSL   +99999+99999GF104991021999006001999999KA1120N+02341MA1999999098801MD1999999+0081MW1021REMSYN004BUFR
0136825860999992016042200004-05170-039280FM-12+021299999V0200901N0031105000199001000199+02691+02261101491ADDAA101999999AZ101061AZ201061GA1051+050001081GE19MSL   +99999+99999GF105991051999050001999999MA1999999098821MD1999999-0011REMSYN004BUFR
0165825860999992016042212004-05170-039280FM-12+021299999V0200901N0031199999999020000199+02741+02361101511ADDAA101999999AZ101061AZ201061GA1031+006001081GA2999+999999031GE19MSL   +99999+99999GF106991031999006001999999KA1120N+02401MA1999999098841MD1999999+0041REMSYN004BUFR
0174825860999992016042300004-05170-039280FM-12+021299999V0203601N0000105000199001000199+02391+02211101521ADDAA106007031AY161061AY251061GA1081+050001071GA2999+999999101GA3999+999999101GE19MSL   +99999+99999GF108991081999050001999999MA1999999098831MD1999999+0011MW1021REMSYN004BUFR
0149825860999992016042312004-05170-039280FM-12+021299999V0200901N0031100600199020000199+02591+02311101511ADDAA124007031AZ101061AZ201061GA1061+006001081GE19MSL   +99999+99999GF106991061999006001999999KA1120N+02301MA1999999098811MD1999999-0031REMSYN004BUFR
0136825860999992016042400004-05170-039280FM-12+021299999V0203601N0000199999999001000199+02591+02251101531ADDAA101999999AZ101061AZ201061GA1031+050001081GE19MSL   +99999+99999GF103991031999050001999999MA1999999098841MD1999999+0011REMSYN004BUFR
0149825860999992016042412004-05170-039280FM-12+021299999V0200901N0051199999999020000199+02721+02121101441ADDAA101999999AZ101061AZ201061GA1041+006001081GE19MSL   +99999+99999GF104991041999006001999999KA1120N+02381MA1999999098761MD1999999-0051REMSYN004BUFR
0136825860999992016042500004-05170-039280FM-12+021299999V0200901N0031199999999001000199+02691+02111101571ADDAA101999999AZ101061AZ201061GA1021+050001081GE19MSL   +99999+99999GF102991021999050001999999MA1999999098891MD1999999+0041REMSYN004BUFR
0181825860999992016042512004-05170-039280FM-12+021299999V0201401N0041100600199020000199+02621+02331101421ADDAA101999999AZ101061AZ201061GA1081+006001071GA2999+999999101GA3999+999999101GE19MSL   +99999+99999GF108991081999006001999999KA1120N+02401MA1999999098741MD1999999-0021REMSYN004BUFR
0136825860999992016042600004-05170-039280FM-12+021299999V0200901N0031199999999001000199+02691+02131101481ADDAA101999999AZ101061AZ201061GA1021+050001081GE19MSL   +99999+99999GF102991021999050001999999MA1999999098811MD1999999+0081REMSYN004BUFR
0171825860999992016042612004-05170-039280FM-12+021299999V0200901N0015100600199020000199+02541+02251101391ADDAA101999999GA1081+006001071GA2999+999999101GA3999+999999101GE19MSL   +99999+99999GF108991081999006001999999KA1120N+02381MA1999999098711MD1999999-0031MW1151REMSYN004BUFR
0136825860999992016042700004-05170-039280FM-12+021299999V0201401N0031199999999001000199+02791+02361101241ADDAA101999999AZ101061AZ201061GA1031+050001081GE19MSL   +99999+99999GF103991031999050001999999MA1999999098571MD1999999-0091REMSYN004BUFR
0165825860999992016042712004-05170-039280FM-12+021299999V0201401N0051199999999020000199+02741+02301101471ADDAA101999999AZ101061AZ201061GA1041+006001081GA2999+999999031GE19MSL   +99999+99999GF106991041999006001999999KA1120N+02401MA1999999098801MD1999999+0091REMSYN004BUFR
0098825860999992016042800004-05170-039280FM-12+021299999V0201401N0031122000199001000199+02791+02401101241ADDAA101999999AZ101061AZ201061GF100991999999999999999999MA1999999098581MD1999999+0001REMSYN004BUFR
0149825860999992016042812004-05170-039280FM-12+021299999V0201401N0051100600199020000199+02791+02151101461ADDAA101999999AZ101061AZ201061GA1051+006001081GE19MSL   +99999+99999GF105991051999006001999999KA1120N+02421MA1999999098801MD1999999+0001REMSYN004BUFR
0098825860999992016042900004-05170-039280FM-12+021299999V0200901N0015122000199001000199+02491+02031101281ADDAA101999999AZ101061AZ201061GF100991999999999999999999MA1999999098621MD1999999+0041REMSYN004BUFR
0165825860999992016042912004-05170-039280FM-12+021299999V0201801N0062199999999020000199+02821+02221101471ADDAA101999999AZ101061AZ201061GA1031+006001081GA2999+999999001GE19MSL   +99999+99999GF104991031999006001999999KA1120N+02401MA1999999098801MD1999999+0001REMSYN004BUFR
0098825860999992016043000004-05170-039280FM-12+021299999V0200901N0031122000199001000199+02691+02171101291ADDAA101999999AZ101061AZ201061GF100991999999999999999999MA1999999098631MD1999999+0011REMSYN004BUFR
0165825860999992016043012004-05170-039280FM-12+021299999V0201401N0010199999999020000199+02721+02281101481ADDAA101999999AZ101061AZ201061GA1031+006001081GA2999+999999001GE19MSL   +99999+99999GF105991031999006001999999KA1120N+02421MA1999999098811MD1999999+0011REMSYN004BUFR
0098825860999992016050100004-05170-039280FM-12+021299999V0201401N0010122000199001000199+02791+02401101301ADDAA101999999AZ101061AZ201061GF100991999999999999999999MA1999999098641MD1999999+0011REMSYN004BUFR
0165825860999992016050112004-05170-039280FM-12+021299999V0200901N0051199999999020000199+02851+02261101561ADDAA101999999AZ101061AZ201061GA1021+006001081GA2999+999999031GE19MSL   +99999+99999GF103991021999006001999999KA1120N+02481MA1999999098901MD1999999+0091REMSYN004BUFR
0098825860999992016050200004-05170-039280FM-12+021299999V0201401N0051122000199001000199+02691+02331101271ADDAA101999999AZ101061AZ201061GF100991999999999999999999MA1999999098611MD1999999+0031REMSYN004BUFR
0149825860999992016050212004-05170-039280FM-12+021299999V0201401N0046199999999020000199+02821+02221101481ADDAA101999999AZ101061AZ201061GA1041+006001081GE19MSL   +99999+99999GF105991041999006001999999KA1120N+02461MA1999999098811MD1999999-0091REMSYN004BUFR
0136825860999992016050300004-05170-039280FM-12+021299999V0200901N0031199999999001000199+02591+02271101301ADDAA101999999AZ101061AZ201061GA1021+050001081GE19MSL   +99999+99999GF102991021999050001999999MA1999999098631MD1999999+0021REMSYN004BUFR
0187825860999992016050312004-05170-039280FM-12+021299999V0201801N0031100600199020000199+02541+02421101591ADDAA124054031AY191061AY261061GA1081+006001071GA2999+999999101GA3999+999999101GE19MSL   +99999+99999GF108991081999006001999999KA1120N+02241MA1999999098911MD1999999+0091MW1151REMSYN004BUFR
0098825860999992016050400004-05170-039280FM-12+021299999V0203601N0000122000199001000199+02591+02271101321ADDAA101999999AZ101061AZ201061GF100991999999999999999999MA1999999098641MD1999999+0011REMSYN004BUFR
0149825860999992016050412004-05170-039280FM-12+021299999V0201401N0015100600199020000199+02591+02311101591ADDAA101999999AZ101061AZ201061GA1051+006001081GE19MSL   +99999+99999GF105991051999006001999999KA1120N+02321MA1999999098901MD1999999-0011REMSYN004BUFR
0098825860999992016050500004-05170-039280FM-12+021299999V0203601N0000122000199001000199+02691+02151101341ADDAA101999999AZ101061AZ201061GF100991999999999999999999MA1999999098661MD1999999+0041REMSYN004BUFR
0149825860999992016050512004-05170-039280FM-12+021299999V0200901N0036100600199020000199+02621+02271101611ADDAA101999999AZ101061AZ201061GA1061+006001071GE19MSL   +99999+99999GF106991061999006001999999KA1120N+02321MA1999999098931MD1999999+0031REMSYN004BUFR
0149825860999992016050612004-05170-039280FM-12+021299999V0200901N0031100600199020000199+02641+02351101601ADDAA101999999AZ101061AZ201061GA1071+006001071GE19MSL   +99999+99999GF107991071999006001999999KA1120N+02381MA1999999098921MD1999999-0011REMSYN004BUFR
0098825860999992016050700004-05170-039280FM-12+021299999V0203601N0000122000199001000199+02791+02111101341ADDAA101999999AZ101061AZ201061GF100991999999999999999999MA1999999098681MD1999999+0011REMSYN004BUFR
0149825860999992016050712004-05170-039280FM-12+021299999V0200901N0031199999999020000199+02771+02341101551ADDAA101999999AZ101061AZ201061GA1041+006001081GE19MSL   +99999+99999GF104991041999006001999999KA1120N+02401MA1999999098881MD1999999-0041REMSYN004BUFR
0142825860999992016050800004-05170-039280FM-12+021299999V0201801N0005199999999001000199+02771+02381101331ADDAA101999999AY101061AY201061GA1031+050001081GE19MSL   +99999+99999GF103991031999050001999999MA1999999098671MD1999999-0011MW1131REMSYN004BUFR
0165825860999992016050812004-05170-039280FM-12+021299999V0201401N0031100600199020000199+02751+02281101471ADDAA101999999AZ101061AZ201061GA1051+006001081GA2999+999999031GE19MSL   +99999+99999GF106991051999006001999999KA1120N+02421MA1999999098801MD1999999-0081REMSYN004BUFR
0136825860999992016050900004-05170-039280FM-12+021299999V0200601N0046199999999001000199+02791+02361101341ADDAA101999999AZ101061AZ201061GA1041+050001081GE19MSL   +99999+99999GF104991041999050001999999MA1999999098681MD1999999+0011REMSYN004BUFR
0187825860999992016050912004-05170-039280FM-12+021299999V0201401N0021100600199020000199+02751+02381101571ADDAA101999999AY101061AY201061GA1081+006001071GA2999+999999101GA3999+999999101GE19MSL   +99999+99999GF108991081999006001999999KA1120N+02501MA1999999098901MD1999999+0101MW1151REMSYN004BUFR
0155825860999992016051012004-05170-039280FM-12+021299999V0201401N0067100600199020000199+02741+02281101471ADDAA124001031AY151061AY251061GA1061+006001081GE19MSL   +99999+99999GF106991061999006001999999KA1120N+02341MA1999999098811MD1999999-0091MW1021REMSYN004BUFR
0136825860999992016051100004-05170-039280FM-12+021299999V0200901N0031199999999001000199+02791+02201101361ADDAA101999999AZ101061AZ201061GA1041+050001081GE19MSL   +99999+99999GF104991041999050001999999MA1999999098701MD1999999+0011REMSYN004BUFR
0187825860999992016051112004-05170-039280FM-12+021299999V0201401N0067100600199020000199+02591+02271101611ADDAA124000631AY151061AY221061GA1081+006001071GA2999+999999101GA3999+999999101GE19MSL   +99999+99999GF108991081999006001999999KA1120N+02401MA1999999098931MD1999999+0121MW1201REMSYN004BUFR
0136825860999992016051200004-05170-039280FM-12+021299999V0200901N0015199999999001000199+02591+02031101391ADDAA101999999AZ101061AZ201061GA1021+050001081GE19MSL   +99999+99999GF102991021999050001999999MA1999999098711MD1999999+0011REMSYN004BUFR
0165825860999992016051212004-05170-039280FM-12+021299999V0200901N0031100600199020000199+02651+02271101691ADDAA101999999AZ101061AZ201061GA1051+006001081GA2999+999999031GE19MSL   +99999+99999GF107991051999006001999999KA1120N+02361MA1999999099001MD1999999+0071REMSYN004BUFR
0136825860999992016051300004-05170-039280FM-12+021299999V0203601N0000199999999001000199+02591+02011101411ADDAA101999999AZ101061AZ201061GA1041+050001081GE19MSL   +99999+99999GF104991041999050001999999MA1999999098731MD1999999+0021REMSYN004BUFR
0155825860999992016051312004-05170-039280FM-12+021299999V0200901N0031199999999020000199+02821+02221101681ADDAA124000431AY151061AY221061GA1031+006001081GE19MSL   +99999+99999GF103991031999006001999999KA1120N+02381MA1999999099001MD1999999+0001MW1021REMSYN004BUFR
0136825860999992016051400004-05170-039280FM-12+021299999V0203601N0000199999999001000199+02591+02011101371ADDAA101999999AZ101061AZ201061GA1031+050001081GE19MSL   +99999+99999GF103991031999050001999999MA1999999098691MD1999999+0041REMSYN004BUFR
0171825860999992016051412004-05170-039280FM-12+021299999V0201401N0051199999999020000199+02791+02201101981ADDAA124000431AY151061AY221061GA1031+006001081GA2999+999999031GE19MSL   +99999+99999GF105991031999006001999999KA1120N+02421MA1999999099001MD1999999+0001MW1021REMSYN004BUFR
0136825860999992016051500004-05170-039280FM-12+021299999V0203601N0000105000199001000199+02591+02061101421ADDAA101999999AZ101061AZ201061GA1051+050001081GE19MSL   +99999+99999GF105991051999050001999999MA1999999098741MD1999999+0051REMSYN004BUFR
0187825860999992016051512004-05170-039280FM-12+021299999V0200901N0021100600199020000199+02391+02131101701ADDAA124001031AY151061AY221061GA1081+006001071GA2999+999999101GA3999+999999101GE19MSL   +99999+99999GF108991081999006001999999KA1120N+02361MA1999999099001MD1999999+0001MW1211REMSYN004BUFR
0098825860999992016051600004-05170-039280FM-12+021299999V0203601N0000122000199001000199+02691+02061101421ADDAA101999999AZ101061AZ201061GF100991999999999999999999MA1999999098751MD1999999+0011REMSYN004BUFR
0149825860999992016051612004-05170-039280FM-12+021299999V0200901N0031199999999020000199+02751+02141101691ADDAA101999999AZ101061AZ201061GA1031+006001081GE19MSL   +99999+99999GF103991031999006001999999KA1120N+02361MA1999999099021MD1999999+0021REMSYN004BUFR
0098825860999992016051700004-05170-039280FM-12+021299999V0200901N0015122000199001000199+02591+02011101441ADDAA101999999AZ101061AZ201061GF100991999999999999999999MA1999999098761MD1999999+0011REMSYN004BUFR
0149825860999992016051712004-05170-039280FM-12+021299999V0200901N0046199999999020000199+02721+02221101631ADDAA101999999AZ101061AZ201061GA1041+006001081GE19MSL   +99999+99999GF104991041999006001999999KA1120N+02361MA1999999098941MD1999999-0081REMSYN004BUFR
0136825860999992016051800004-05170-039280FM-12+021299999V0200901N0031199999999001000199+02691+02301101461ADDAA101999999AZ101061AZ201061GA1021+050001081GE19MSL   +99999+99999GF102991021999050001999999MA1999999098791MD1999999+0031REMSYN004BUFR
0181825860999992016051812004-05170-039280FM-12+021299999V0200901N0051100600199020000199+02751+02141101471ADDAA101999999AZ101061AZ201061GA1081+006001071GA2999+999999101GA3999+999999101GE19MSL   +99999+99999GF108991081999006001999999KA1120N+02391MA1999999098801MD1999999-0141REMSYN004BUFR
0136825860999992016051900004-05170-039280FM-12+021299999V0200901N0036199999999001000199+02791+02111101361ADDAA101999999AZ101061AZ201061GA1999+050001999GE19MSL   +99999+99999GF102991999999050001999999MA1999999098691MD1999999+0101REMSYN004BUFR
0149825860999992016051912004-05170-039280FM-12+021299999V0200901N0031100600199020000199+02791+02151101561ADDAA101999999AZ101061AZ201061GA1061+006001081GE19MSL   +99999+99999GF106991061999006001999999KA1120N+02451MA1999999098891MD1999999+0091REMSYN004BUFR
0098825860999992016052000004-05170-039280FM-12+021299999V0200901N0041122000199001000199+02741+02281101361ADDAA101999999AZ101061AZ201061GF100991999999999999999999MA1999999098701MD1999999+0011REMSYN004BUFR
0149825860999992016052012004-05170-039280FM-12+021299999V0200901N0031100600199020000199+02791+02181101691ADDAA101999999AZ101061AZ201061GA1051+006001081GE19MSL   +99999+99999GF105991051999006001999999KA1120N+02401MA1999999098901MD1999999+0011REMSYN004BUFR
0136825860999992016052100004-05170-039280FM-12+021299999V0200901N0031199999999001000199+02821+02171101401ADDAA101999999AZ101061AZ201061GA1021+050001081GE19MSL   +99999+99999GF102991021999050001999999MA1999999098731MD1999999+0031REMSYN004BUFR
0165825860999992016052112004-05170-039280FM-12+021299999V0201401N0010199999999020000199+02691+02261101691ADDAA101999999AZ101061AZ201061GA1041+006001081GA2999+999999031GE19MSL   +99999+99999GF106991041999006001999999KA1120N+02461MA1999999099021MD1999999+0121REMSYN004BUFR
0098825860999992016052200004-05170-039280FM-12+021299999V0203601N0000122000199001000199+02691+02111101411ADDAA101999999AZ101061AZ201061GF100991999999999999999999MA1999999098741MD1999999+0011REMSYN004BUFR
0141825860999992016052612004-05170-039280FM-12+021299999V0201401N0036100600199020000199+02601+02311101695ADDAA124057031AY191061AY261061GA1061+006001081GE19MSL   +99999+99999GF106991061999006001999999KA1120N+02281MA1999999099001MW1021REMSYN004BUFR
0098825860999992016052700004-05170-039280FM-12+021299999V0203601N0000122000199001000199+02801+02111101351ADDAA101999999AZ101061AZ201061GF100991999999999999999999MA1999999098691MD1999999+0051REMSYN004BUFR
0149825860999992016052712004-05170-039280FM-12+021299999V0200901N0026100600199020000199+02671+02241101651ADDAA101999999AZ101061AZ201061GA1051+006001081GE19MSL   +99999+99999GF105991051999006001999999KA1120N+02361MA1999999098981MD1999999-0021REMSYN004BUFR
0098825860999992016052800004-05170-039280FM-12+021299999V0203601N0000122000199001000199+02701+02301101381ADDAA101999999AZ101061AZ201061GF100991999999999999999999MA1999999098711MD1999999-0021REMSYN004BUFR
0149825860999992016052812004-05170-039280FM-12+021299999V0201401N0015100600199020000199+02651+02231101711ADDAA101999999AZ101061AZ201061GA1061+006001081GE19MSL   +99999+99999GF106991061999006001999999KA1120N+02321MA1999999099021MD1999999+0041REMSYN004BUFR
0165825860999992016052912004-05170-039280FM-12+021299999V0201801N0036199999999020000199+02761+02231101641ADDAA101999999AZ101061AZ201061GA1031+006001081GA2999+999999031GE19MSL   +99999+99999GF104991031999006001999999KA1120N+02341MA1999999098981MD1999999-0041REMSYN004BUFR
0098825860999992016053000004-05170-039280FM-12+021299999V0200901N0031122000199001000199+02801+02201101441ADDAA101999999AZ101061AZ201061GF100991999999999999999999MA1999999098771MD1999999+0051REMSYN004BUFR
0098825860999992016060200004-05170-039280FM-12+021299999V0200901N0031122000199001000199+02701+02011101441ADDAA101999999AZ101061AZ201061GF100991999999999999999999MA1999999098761MD1999999+0131REMSYN004BUFR
0149825860999992016060212004-05170-039280FM-12+021299999V0201801N0036100600199020000199+02721+02281101531ADDAA101999999AZ101061AZ201061GA1061+006001071GE19MSL   +99999+99999GF106991061999006001999999KA1120N+02421MA1999999098861MD1999999+0051REMSYN004BUFR
0098825860999992016060300004-05170-039280FM-12+021299999V0200901N0015122000199001000199+02701+02061101381ADDAA101999999AZ101061AZ201061GF100991999999999999999999MA1999999098711MD1999999+0051REMSYN004BUFR
0165825860999992016060312004-05170-039280FM-12+021299999V0200901N0010199999999020000199+02761+02301101551ADDAA101999999AZ101061AZ201061GA1031+006001081GA2999+999999031GE19MSL   +99999+99999GF105991031999006001999999KA1120N+02401MA1999999098881MD1999999+0021REMSYN004BUFR
0136825860999992016060400004-05170-039280FM-12+021299999V0200901N0015199999999001000199+02601+02231101431ADDAA101999999AZ101061AZ201061GA1021+050001081GE19MSL   +99999+99999GF102991021999050001999999MA1999999098761MD1999999+0051REMSYN004BUFR
0149825860999992016060412004-05170-039280FM-12+021299999V0200901N0051100600199020000199+02701+02171101571ADDAA101999999AZ101061AZ201061GA1061+006001081GE19MSL   +99999+99999GF106991061999006001999999KA1120N+02321MA1999999098891MD1999999+0011REMSYN004BUFR
0098825860999992016060500004-05170-039280FM-12+021299999V0200901N0015122000199001000199+02601+02031101521ADDAA101999999AZ101061AZ201061GF100991999999999999999999MA1999999098831MD1999999+0121REMSYN004BUFR
0155825860999992016060512004-05170-039280FM-12+021299999V0200901N0031100600199020000199+02501+02231101581ADDAA124000331GA1061+006001071GA2999+999999031GE19MSL   +99999+99999GF107991061999006001999999KA1120N+02381MA1999999098891MD1999999+0001MW1201REMSYN004BUFR
0098825860999992016060600004-05170-039280FM-12+021299999V0200901N0051122000199001000199+02801+02361101511ADDAA101999999AZ101061AZ201061GF100991999999999999999999MA1999999098841MD1999999+0011REMSYN004BUFR
0149825860999992016060612004-05170-039280FM-12+021299999V0200901N0031100600199020000199+02701+02261101611ADDAA101999999AZ101061AZ201061GA1071+006001071GE19MSL   +99999+99999GF107991071999006001999999KA1120N+02381MA1999999098941MD1999999-0051REMSYN004BUFR
0155825860999992016060700004-05170-039280FM-12+021299999V0200901N0051199999999001000199+02801+02361101461ADDAA101999999AZ101061AZ201061GA1082+006001081GE19MSL   +99999+99999GF102992082999006001999999MA1999999098801MD1999999+0041REMSYN004BUFREQDQ01 006003SCOCIG
0171825860999992016060712004-05170-039280FM-12+021299999V0201801N0026199999999020000199+02601+02251101681ADDAA124002031AY161061AY221061GA1041+006001081GA2999+999999031GE19MSL   +99999+99999GF105991041999006001999999KA1120N+02301MA1999999099001MD1999999+0061MW1021REMSYN004BUFR
0098825860999992016060800004-05170-039280FM-12+021299999V0200901N0051122000199001000199+02601+02271101371ADDAA101999999AZ101061AZ201061GF100991999999999999999999MA1999999098691MD1999999+0011REMSYN004BUFR
0187825860999992016060812004-05170-039280FM-12+021299999V0201401N0031100600199020000199+02601+02311101711ADDAA101999999AY101061AY201061GA1081+006001071GA2999+999999101GA3999+999999101GE19MSL   +99999+99999GF108991081999006001999999KA1120N+02301MA1999999099021MD1999999+0021MW1011REMSYN004BUFR
0098825860999992016060900004-05170-039280FM-12+021299999V0200901N0051122000199001000199+02701+02011101401ADDAA101999999AZ101061AZ201061GF100991999999999999999999MA1999999098761MD1999999+0071REMSYN004BUFR
0171825860999992016060912004-05170-039280FM-12+021299999V0200901N0036100600199020000199+02721+02221101711ADDAA124000631AY151061AY251061GA1082+006001071GA2999+999999031GE19MSL   +99999+99999GF106992082999006001999999KA1120N+02401MA1999999099031MD1999999+0011MW1151REMSYN004BUFR
0098825860999992016061000004-05170-039280FM-12+021299999V0200901N0031122000199001000199+02801+02361101431ADDAA101999999AZ101061AZ201061GF100991999999999999999999MA1999999098771MD1999999+0081REMSYN004BUFR
0165825860999992016061012004-05170-039280FM-12+021299999V0200901N0031199999999020000199+02661+02271101761ADDAA101999999AZ101061AZ201061GA1041+006001081GA2999+999999031GE19MSL   +99999+99999GF105991041999006001999999KA1120N+02341MA1999999099091MD1999999+0061REMSYN004BUFR
0149825860999992016061112004-05170-039280FM-12+021299999V0201401N0041199999999020000199+02821+02121101841ADDAA101999999AZ101061AZ201061GA1041+006001081GE19MSL   +99999+99999GF104991041999006001999999KA1120N+02641MA1999999099171MD1999999+0081REMSYN004BUFR
0136825860999992016061200004-05170-039280FM-12+021299999V0201801N0051199999999001000199+02821+02171101471ADDAA101999999AZ101061AZ201061GA1041+050001081GE19MSL   +99999+99999GF104991041999050001999999MA1999999098801MD1999999+0111REMSYN004BUFR
0171825860999992016061212004-05170-039280FM-12+021299999V0201801N0031199999999020000199+02671+02221101891ADDAA124002031AY161061AY251061GA1041+006001081GA2999+999999031GE19MSL   +99999+99999GF105991041999006001999999KA1120N+02381MA1999999099211MD1999999+0041MW1021REMSYN004BUFR
0136825860999992016061300004-05170-039280FM-12+021299999V0201801N0057199999999001000199+02751+02141101681ADDAA101999999AZ101061AZ201061GA1021+050001081GE19MSL   +99999+99999GF102991021999050001999999MA1999999099001MD1999999+0201REMSYN004BUFR
0165825860999992016061312004-05170-039280FM-12+021299999V0201801N0057199999999020000199+02621+02141101911ADDAA101999999AZ101061AZ201061GA1031+006001081GA2999+999999031GE19MSL   +99999+99999GF105991031999006001999999KA1120N+02381MA1999999099221MD1999999+0011REMSYN004BUFR
0098825860999992016061400004-05170-039280FM-12+021299999V0200901N0031122000199001000199+02751+02171101691ADDAA101999999AZ101061AZ201061GF100991999999999999999999MA1999999099011MD1999999+0011REMSYN004BUFR
0149825860999992016061412004-05170-039280FM-12+021299999V0201401N0051199999999020000199+02671+01941101781ADDAA101999999AZ101061AZ201061GA1041+006001081GE19MSL   +99999+99999GF104991041999006001999999KA1120N+02261MA1999999099101MD1999999-0121REMSYN004BUFR
0155825860999992016061500004-05170-039280FM-12+021299999V0200901N0031199999999001000199+02661+02081101701ADDAA101999999AZ101061AZ201061GA1062+050001081GE19MSL   +99999+99999GF104992062999050001999999MA1999999099021MD1999999+0011REMSYN004BUFREQDQ01 050003SCOCIG
0149825860999992016061512004-05170-039280FM-12+021299999V0201801N0031100600199020000199+02721+02081101871ADDAA101999999AZ101061AZ201061GA1051+006001081GE19MSL   +99999+99999GF105991051999006001999999KA1120N+02341MA1999999099191MD1999999+0091REMSYN004BUFR
0149825860999992016061612004-05170-039280FM-12+021299999V0201801N0026100600199020000199+02601+01991101781ADDAA101999999AZ101061AZ201061GA1051+006001081GE19MSL   +99999+99999GF105991051999006001999999KA1120N+02221MA1999999099101MD1999999-0011REMSYN004BUFR
0136825860999992016061700004-05170-039280FM-12+021299999V0201801N0021199999999001000199+02661+02081101421ADDAA101999999AZ101061AZ201061GA1041+050001081GE19MSL   +99999+99999GF105991041999050001999999MA1999999098751MD1999999+0061REMSYN004BUFR
0149825860999992016061712004-05170-039280FM-12+021299999V0201401N0031199999999020000199+02671+02161101691ADDAA101999999AZ101061AZ201061GA1041+006001081GE19MSL   +99999+99999GF104991041999006001999999KA1120N+02161MA1999999099001MD1999999-0101REMSYN004BUFR
0098825860999992016061800004-05170-039280FM-12+021299999V0200901N0015122000199001000199+02701+02301101391ADDAA101999999AZ101061AZ201061GF100991999999999999999999MA1999999098721MD1999999-0031REMSYN004BUFR
0149825860999992016061812004-05170-039280FM-12+021299999V0201401N0031100600199020000199+02661+02201101581ADDAA101999999AZ101061AZ201061GA1061+006001081GE19MSL   +99999+99999GF106991061999006001999999KA1120N+02281MA1999999098901MD1999999-0101REMSYN004BUFR
0136825860999992016061900004-05170-039280FM-12+021299999V0200901N0051199999999001000199+02821+02171101491ADDAA101999999AZ101061AZ201061GA1031+050001081GE19MSL   +99999+99999GF103991031999050001999999MA1999999098831MD1999999+0111REMSYN004BUFR
0149825860999992016061912004-05170-039280FM-12+021299999V0201401N0031199999999020000199+02701+02151101671ADDAA101999999AZ101061AZ201061GA1021+006001081GE19MSL   +99999+99999GF102991021999006001999999KA1120N+02201MA1999999099001MD1999999+0101REMSYN004BUFR
0136825860999992016062000004-05170-039280FM-12+021299999V0200901N0051199999999001000199+02701+02301101471ADDAA101999999AZ101061AZ201061GA1021+050001081GE19MSL   +99999+99999GF102991021999050001999999MA1999999098801MD1999999+0031REMSYN004BUFR
0165825860999992016062012004-05170-039280FM-12+021299999V0200901N0015199999999020000199+02761+02231101611ADDAA101999999AZ101061AZ201061GA1031+006001081GA2999+999999031GE19MSL   +99999+99999GF104991031999006001999999KA1120N+02401MA1999999098941MD1999999-0061REMSYN004BUFR
0136825860999992016062100004-05170-039280FM-12+021299999V0200901N0015199999999001000199+02821+02171101441ADDAA101999999AZ101061AZ201061GA1041+050001081GE19MSL   +99999+99999GF104991041999050001999999MA1999999098781MD1999999+0021REMSYN004BUFR
0149825860999992016062112004-05170-039280FM-12+021299999V0201401N0015199999999020000199+02661+02141101631ADDAA101999999AZ101061AZ201061GA1031+006001081GE19MSL   +99999+99999GF103991031999006001999999KA1120N+02281MA1999999098961MD1999999+0021REMSYN004BUFR
0098825860999992016062200004-05170-039280FM-12+021299999V0203601N0000122000199001000199+02701+02301101421ADDAA101999999AZ101061AZ201061GF100991999999999999999999MA1999999098761MD1999999+0021REMSYN004BUFR
0149825860999992016062212004-05170-039280FM-12+021299999V0201401N0010100600199020000199+02821+02291101601ADDAA101999999AZ101061AZ201061GA1061+006001061GE19MSL   +99999+99999GF106991061999006001999999KA1120N+02381MA1999999098931MD1999999-0031REMSYN004BUFR
0142825860999992016062300004-05170-039280FM-12+021299999V0201401N0031105000199001000199+02821+02121101441ADDAA106000631AY151061AY221061GA1061+050001061GE19MSL   +99999+99999GF106991061999050001999999MA1999999098781MD1999999+0021MW1201REMSYN004BUFR
0171825860999992016062312004-05170-039280FM-12+021299999V0201401N0015100600199020000199+02501+02211101601ADDAA124005031AY161061AY251061GA1061+006001081GA2999+999999031GE19MSL   +99999+99999GF106991061999006001999999KA1120N+02321MA1999999098921MD1999999-0011MW1021REMSYN004BUFR
0155825860999992016062412004-05170-039280FM-12+021299999V0200901N0036100600199020000199+02601+02211101581ADDAA124011031AY161061AY261061GA1071+006001071GE19MSL   +99999+99999GF107991071999006001999999KA1120N+02241MA1999999098911MD1999999-0011MW1021REMSYN004BUFR
0149825860999992016062512004-05170-039280FM-12+021299999V0201401N0031199999999020000199+02651+02161101571ADDAA101999999AZ101061AZ201061GA1041+006001081GE19MSL   +99999+99999GF106991041999006001999999KA1120N+02361MA1999999098901MD1999999-0011REMSYN004BUFR
0149825860999992016062612004-05170-039280FM-12+021299999V0201401N0015199999999020000199+02701+02111101601ADDAA101999999AZ101061AZ201061GA1021+006001081GE19MSL   +99999+99999GF102991021999006001999999KA1120N+02361MA1999999098931MD1999999+0031REMSYN004BUFR
0136825860999992016062700004-05170-039280FM-12+021299999V0200901N0015199999999001000199+02871+02181101411ADDAA101999999AZ101061AZ201061GA1021+006001081GE19MSL   +99999+99999GF102991021999006001999999MA1999999098761MD1999999+0111REMSYN004BUFR
0149825860999992016062712004-05170-039280FM-12+021299999V0201801N0062100600199020000199+02701+02111101691ADDAA101999999AZ101061AZ201061GA1061+006001071GE19MSL   +99999+99999GF106991061999006001999999KA1120N+02381MA1999999099021MD1999999+0091REMSYN004BUFR
0136825860999992016062800004-05170-039280FM-12+021299999V0200901N0031199999999001000199+02701+02301101301ADDAA101999999AZ101061AZ201061GA1041+050001081GE19MSL   +99999+99999GF104991041999050001999999MA1999999098651MD1999999+0111REMSYN004BUFR
0149825860999992016062812004-05170-039280FM-12+021299999V0201801N0051100600199020000199+02561+02151101691ADDAA101999999AZ101061AZ201061GA1061+006001081GE19MSL   +99999+99999GF106991061999006001999999KA1120N+02261MA1999999099001MD1999999-0021REMSYN004BUFR
0098825860999992016062900004-05170-039280FM-12+021299999V0200901N0015122000199001000199+02821+02171101321ADDAA101999999AZ101061AZ201061GF100991999999999999999999MA1999999098661MD1999999+0011REMSYN004BUFR
0149825860999992016062912004-05170-039280FM-12+021299999V0200901N0051199999999020000199+02561+02111101681ADDAA101999999AZ101061AZ201061GA1041+006001081GE19MSL   +99999+99999GF104991041999006001999999KA1120N+02321MA1999999099001MD1999999+0001REMSYN004BUFR
0098825860999992016063000004-05170-039280FM-12+021299999V0200901N0015122000199001000199+02701+02301101291ADDAA101999999AZ101061AZ201061GF100991999999999999999999MA1999999098631MD1999999+0021REMSYN004BUFR
0149825860999992016063012004-05170-039280FM-12+021299999V0201401N0051199999999020000199+02601+01991101611ADDAA101999999AZ101061AZ201061GA1011+006001081GE19MSL   +99999+99999GF101991011999006001999999KA1120N+02101MA1999999098931MD1999999-0071REMSYN004BUFR
0098825860999992016070100004-05170-039280FM-12+021299999V0200901N0015122000199001000199+02871+02181101291ADDAA101999999AZ101061AZ201061GF100991999999999999999999MA1999999098641MD1999999+0011REMSYN004BUFR
0149825860999992016070112004-05170-039280FM-12+021299999V0201401N0010199999999020000199+02701+01941101631ADDAA101999999AZ101061AZ201061GA1031+006001081GE19MSL   +99999+99999GF103991031999006001999999KA1120N+02101MA1999999098961MD1999999+0031REMSYN004BUFR
0098825860999992016070200004-05170-039280FM-12+021299999V0200901N0015122000199001000199+02751+02141101281ADDAA101999999AZ101061AZ201061GF100991999999999999999999MA1999999098621MD1999999+0021REMSYN004BUFR
0149825860999992016070212004-05170-039280FM-12+021299999V0201401N0041199999999020000199+02751+02041101591ADDAA101999999AZ101061AZ201061GA1021+006001081GE19MSL   +99999+99999GF102991021999006001999999KA1120N+02241MA1999999098921MD1999999-0041REMSYN004BUFR
0136825860999992016070300004-05170-039280FM-12+021299999V0200901N0015199999999001000199+02751+02141101291ADDAA101999999AZ101061AZ201061GA1021+050001081GE19MSL   +99999+99999GF102991021999050001999999MA1999999098631MD1999999+0021REMSYN004BUFR
0149825860999992016070312004-05170-039280FM-12+021299999V0201401N0041199999999020000199+02651+02181101631ADDAA101999999AZ101061AZ201061GA1031+006001061GE19MSL   +99999+99999GF103991031999006001999999KA1120N+02301MA1999999098961MD1999999+0041REMSYN004BUFR
0136825860999992016070400004-05170-039280FM-12+021299999V0200901N0031199999999001000199+02801+02221101271ADDAA101999999AZ101061AZ201061GA1021+006001081GE19MSL   +99999+99999GF102991021999006001999999MA1999999098621MD1999999+0011REMSYN004BUFR
0149825860999992016070412004-05170-039280FM-12+021299999V0201401N0051199999999020000199+02701+02111101671ADDAA101999999AZ101061AZ201061GA1021+006001081GE19MSL   +99999+99999GF102991021999006001999999KA1120N+02241MA1999999099001MD1999999+0041REMSYN004BUFR
0098825860999992016070500004-05170-039280FM-12+021299999V0200901N0026122000199001000199+02601+02061101331ADDAA101999999AZ101061AZ201061GF100991999999999999999999MA1999999098661MD1999999+0041REMSYN004BUFR
0149825860999992016070512004-05170-039280FM-12+021299999V0200901N0062199999999020000199+02761+02161101631ADDAA101999999AZ101061AZ201061GA1011+006001081GE19MSL   +99999+99999GF101991011999006001999999KA1120N+02241MA1999999098951MD1999999-0051REMSYN004BUFR
0136825860999992016070600004-05170-039280FM-12+021299999V0200901N0015199999999001000199+02751+02141101331ADDAA101999999AZ101061AZ201061GA1021+050001081GE19MSL   +99999+99999GF102991021999050001999999MA1999999098671MD1999999+0011REMSYN004BUFR
0155825860999992016070612004-05170-039280FM-12+021299999V0200901N0051100600199020000199+02651+02181101611ADDAA101999999AY101061AY221061GA1061+006001081GE19MSL   +99999+99999GF106991061999006001999999KA1120N+02261MA1999999098941MD1999999-0011MW1151REMSYN004BUFR
0098825860999992016070700004-05170-039280FM-12+021299999V0200901N0015122000199001000199+02801+02221101281ADDAA101999999AZ101061AZ201061GF100991999999999999999999MA1999999098621MD1999999+0041REMSYN004BUFR
0149825860999992016070712004-05170-039280FM-12+021299999V0200901N0015199999999020000199+02801+02201101571ADDAA101999999AZ101061AZ201061GA1041+006001081GE19MSL   +99999+99999GF104991041999006001999999KA1120N+02361MA1999999098901MD1999999-0041REMSYN004BUFR
0098825860999992016070800004-05170-039280FM-12+021299999V0200901N0051122000199001000199+02621+02061101411ADDAA101999999AZ101061AZ201061GF100991999999999999999999MA1999999098741MD1999999-0121REMSYN004BUFR
0149825860999992016070812004-05170-039280FM-12+021299999V0201401N0005199999999020000199+02721+02281101631ADDAA101999999AZ101061AZ201061GA1041+006001081GE19MSL   +99999+99999GF104991041999006001999999KA1120N+02241MA1999999098951MD1999999-0051REMSYN004BUFR
0136825860999992016070900004-05170-039280FM-12+021299999V0200901N0051199999999001000199+02801+02271101311ADDAA101999999AZ101061AZ201061GA1021+050001081GE19MSL   +99999+99999GF102991021999050001999999MA1999999098641MD1999999+0101REMSYN004BUFR
0155825860999992016070912004-05170-039280FM-12+021299999V0200901N0015100600199020000199+02521+02291101671ADDAA124005031AY161061AY251061GA1061+006001071GE19MSL   +99999+99999GF106991061999006001999999KA1120N+02201MA1999999098981MD1999999+0031MW1021REMSYN004BUFR
0098825860999992016071000004-05170-039280FM-12+021299999V0203601N0000122000199001000199+02751+02141101311ADDAA101999999AZ101061AZ201061GF100991999999999999999999MA1999999098651MD1999999+0011REMSYN004BUFR
0149825860999992016071012004-05170-039280FM-12+021299999V0201401N0031199999999020000199+02661+02021101581ADDAA101999999AZ101061AZ201061GA1041+006001061GE19MSL   +99999+99999GF104991041999006001999999KA1120N+02241MA1999999098901MD1999999-0081REMSYN004BUFR
0136825860999992016071100004-05170-039280FM-12+021299999V0200901N0051199999999001000199+02661+02061101441ADDAA101999999AZ101061AZ201061GA1021+050001081GE19MSL   +99999+99999GF102991021999050001999999MA1999999098771MD1999999+0121REMSYN004BUFR
0149825860999992016071112004-05170-039280FM-12+021299999V0201401N0046199999999020000199+02601+02141101561ADDAA101999999AZ101061AZ201061GA1041+006001081GE19MSL   +99999+99999GF104991041999006001999999KA1120N+02201MA1999999098881MD1999999-0021REMSYN004BUFR
0136825860999992016071200004-05170-039280FM-12+021299999V0200901N0051199999999001000199+02701+02281101401ADDAA101999999AZ101061AZ201061GA1021+050001081GE19MSL   +99999+99999GF102991021999050001999999MA1999999098721MD1999999+0051REMSYN004BUFR
0149825860999992016071212004-05170-039280FM-12+021299999V0200901N0031199999999020000199+02661+02141101471ADDAA101999999AZ101061AZ201061GA1031+006001081GE19MSL   +99999+99999GF103991031999006001999999KA1120N+02301MA1999999098801MD1999999-0081REMSYN004BUFR
0136825860999992016071300004-05170-039280FM-12+021299999V0200901N0031105000199001000199+02601+02231101421ADDAA101999999AZ101061AZ201061GA1061+050001081GE19MSL   +99999+99999GF106991061999050001999999MA1999999098741MD1999999+0021REMSYN004BUFR
0155825860999992016071312004-05170-039280FM-12+021299999V0200901N0031100600199020000199+02601+02141101591ADDAA124000131AY151061AY221061GA1061+006001081GE19MSL   +99999+99999GF106991061999006001999999KA1120N+02361MA1999999098901MD1999999+0101MW1021REMSYN004BUFR
0098825860999992016071400004-05170-039280FM-12+021299999V0203601N0000122000199001000199+02701+02261101451ADDAA101999999AZ101061AZ201061GF100991999999999999999999MA1999999098771MD1999999+0041REMSYN004BUFR
0165825860999992016071412004-05170-039280FM-12+021299999V0201401N0021199999999020000199+02701+02111101581ADDAA101999999AZ101061AZ201061GA1021+006001081GA2999+999999031GE19MSL   +99999+99999GF104991021999006001999999KA1120N+02381MA1999999098901MD1999999+0001REMSYN004BUFR
0098825860999992016071500004-05170-039280FM-12+021299999V0203601N0000122000199001000199+02751+02541101461ADDAA101999999AZ101061AZ201061GF100991999999999999999999MA1999999098791MD1999999+0021REMSYN004BUFR
0149825860999992016071512004-05170-039280FM-12+021299999V0201801N0046100600199020000199+02621+02291101481ADDAA101999999AZ101061AZ201061GA1061+006001081GE19MSL   +99999+99999GF106991061999006001999999KA1120N+02261MA1999999098811MD1999999-0011REMSYN004BUFR
0136825860999992016071600004-05170-039280FM-12+021299999V0200901N0015105000199001000199+02601+02311101471ADDAA101999999AZ101061AZ201061GA1061+050001081GE19MSL   +99999+99999GF106991061999050001999999MA1999999098801MD1999999+0011REMSYN004BUFR
0135825860999992016073112004-05170-039280FM-12+021299999V0201401N0093199999999020000199+02751+02211101565ADDAA101999999AZ101061AZ201061GA1041+006001081GE19MSL   +99999+99999GF104991041999006001999999KA1120N+02101MA1999999098891REMSYN004BUFR
0084825860999992016080100004-05170-039280FM-12+021299999V0200901N0031122000199001000199+02701+02351101345ADDAA101999999AZ101061AZ201061GF100991999999999999999999MA1999999098671REMSYN004BUFR
0149825860999992016080112004-05170-039280FM-12+021299999V0200901N0046199999999020000199+02651+01931101581ADDAA101999999AZ101061AZ201061GA1021+006001081GE19MSL   +99999+99999GF102991021999006001999999KA1120N+02401MA1999999098901MD1999999+0011REMSYN004BUFR
0098825860999992016080200004-05170-039280FM-12+021299999V0200901N0046122000199001000199+02601+01921101361ADDAA101999999AZ101061AZ201061GF100991999999999999999999MA1999999098681MD1999999+0001REMSYN004BUFR
0149825860999992016080212004-05170-039280FM-12+021299999V0200901N0041199999999020000199+02701+01941101741ADDAA101999999AZ101061AZ201061GA1021+006001031GE19MSL   +99999+99999GF102991021999006001999999KA1120N+02161MA1999999099151MD1999999+0251REMSYN004BUFR
0136825860999992016080300004-05170-039280FM-12+021299999V0200901N0031199999999001000199+02701+02011101361ADDAA101999999AZ101061AZ201061GA1021+050001081GE19MSL   +99999+99999GF102991021999050001999999MA1999999098691MD1999999+0011REMSYN004BUFR
0149825860999992016080312004-05170-039280FM-12+021299999V0200901N0031100600199020000199+02601+02251101931ADDAA101999999AZ101061AZ201061GA1071+006001081GE19MSL   +99999+99999GF107991071999006001999999KA1120N+02201MA1999999099241MD1999999+0091REMSYN004BUFR
0136825860999992016080400004-05170-039280FM-12+021299999V0200901N0031199999999001000199+02721+02031101391ADDAA101999999AZ101061AZ201061GA1031+050001081GE19MSL   +99999+99999GF103991031999050001999999MA1999999098721MD1999999+0031REMSYN004BUFR
0165825860999992016080412004-05170-039280FM-12+021299999V0200901N0036199999999020000199+02701+01941101821ADDAA101999999AZ101061AZ201061GA1021+006001081GA2999+999999001GE19MSL   +99999+99999GF103991021999006001999999KA1120N+02301MA1999999099141MD1999999-0101REMSYN004BUFR
0098825860999992016080500004-05170-039280FM-12+021299999V0200901N0015122000199001000199+02801+02051101471ADDAA101999999AZ101061AZ201061GF100991999999999999999999MA1999999098811MD1999999+0091REMSYN004BUFR
0149825860999992016080512004-05170-039280FM-12+021299999V0200901N0046199999999020000199+02651+01931101931ADDAA101999999AZ101061AZ201061GA1041+006001081GE19MSL   +99999+99999GF104991041999006001999999KA1120N+02081MA1999999099251MD1999999-0111REMSYN004BUFR
0098825860999992016080600004-05170-039280FM-12+021299999V0200901N0015122000199001000199+02701+02151101531ADDAA101999999AZ101061AZ201061GF100991999999999999999999MA1999999098861MD1999999-0051REMSYN004BUFR
0149825860999992016080612004-05170-039280FM-12+021299999V0200901N0015100600199020000199+02701+01861101941ADDAA101999999AZ101061AZ201061GA1061+006001081GE19MSL   +99999+99999GF106991061999006001999999KA1120N+02201MA1999999099261MD1999999-0011REMSYN004BUFR
0098825860999992016080700004-05170-039280FM-12+021299999V0200901N0015122000199001000199+02801+02031101541ADDAA101999999AZ101061AZ201061GF100991999999999999999999MA1999999098871MD1999999+0011REMSYN004BUFR
0149825860999992016080712004-05170-039280FM-12+021299999V0200901N0051100600199020000199+02751+02051101941ADDAA101999999AZ101061AZ201061GA1061+006001081GE19MSL   +99999+99999GF106991061999006001999999KA1120N+02061MA1999999099261MD1999999+0001REMSYN004BUFR
0098825860999992016080800004-05170-039280FM-12+021299999V0200901N0031122000199001000199+02801+02131101561ADDAA101999999AZ101061AZ201061GF100991999999999999999999MA1999999098891MD1999999+0021REMSYN004BUFR
0149825860999992016080812004-05170-039280FM-12+021299999V0200901N0031100600199020000199+02801+02061101971ADDAA101999999AZ101061AZ201061GA1061+006001081GE19MSL   +99999+99999GF106991061999006001999999KA1120N+02381MA1999999099271MD1999999+0011REMSYN004BUFR
0098825860999992016080900004-05170-039280FM-12+021299999V0200901N0051122000199001000199+02801+02181101561ADDAA101999999AZ101061AZ201061GF100991999999999999999999MA1999999098861MD1999999+0031REMSYN004BUFR
0149825860999992016080912004-05170-039280FM-12+021299999V0200901N0051199999999020000199+02601+01821101931ADDAA101999999AZ101061AZ201061GA1031+006001081GE19MSL   +99999+99999GF105991031999006001999999KA1120N+02201MA1999999098261MD1999999+0011REMSYN004BUFR
0136825860999992016081000004-05170-039280FM-12+021299999V0200501N0051199999999001000199+02801+02151101541ADDAA101999999AZ101061AZ201061GA1021+050001081GE19MSL   +99999+99999GF102991021999050001999999MA1999999098871MD1999999+0021REMSYN004BUFR
0149825860999992016081012004-05170-039280FM-12+021299999V0200901N0036100600199020000199+02701+01881101751ADDAA101999999AZ101061AZ201061GA1061+006001081GE19MSL   +99999+99999GF106991061999006001999999KA1120N+02301MA1999999099071MD1999999+0191REMSYN004BUFR
0136825860999992016081100004-05170-039280FM-12+021299999V0200901N0036199999999001000199+02751+01971101531ADDAA101999999AZ101061AZ201061GA1021+050001081GE19MSL   +99999+99999GF102991021999050001999999MA1999999098861MD1999999+0011REMSYN004BUFR
0149825860999992016081112004-05170-039280FM-12+021299999V0200901N0031100600199020000199+02501+02131101551ADDAA101999999AZ101061AZ201061GA1061+006001081GE19MSL   +99999+99999GF106991061999006001999999KA1120N+02201MA1999999098861MD1999999-0211REMSYN004BUFR
0098825860999992016081200004-05170-039280FM-12+021299999V0200501N0031122000199001000199+02801+02381101551ADDAA101999999AZ101061AZ201061GF100991999999999999999999MA1999999098871MD1999999+0011REMSYN004BUFR
0149825860999992016081212004-05170-039280FM-12+021299999V0200901N0046199999999020000199+02651+01931101581ADDAA101999999AZ101061AZ201061GA1021+006001081GE19MSL   +99999+99999GF102991021999006001999999KA1120N+02401MA1999999098901MD1999999-0041REMSYN004BUFR
0098825860999992016081300004-05170-039280FM-12+021299999V0200901N0051122000199001000199+02701+02081101561ADDAA101999999AZ101061AZ201061GF100991999999999999999999MA1999999098891MD1999999+0011REMSYN004BUFR
0149825860999992016081312004-05170-039280FM-12+021299999V0200901N0046199999999020000199+02651+01931101591ADDAA101999999AZ101061AZ201061GA1031+006001081GE19MSL   +99999+99999GF103991031999006001999999KA1120N+02361MA1999999098911MD1999999+0011REMSYN004BUFR
0098825860999992016081400004-05170-039280FM-12+021299999V0200901N0051122000199001000199+02821+02281101571ADDAA101999999AZ101061AZ201061GF100991999999999999999999MA1999999098901MD1999999+0011REMSYN004BUFR
0149825860999992016081412004-05170-039280FM-12+021299999V0200901N0051100600199020000199+02701+02011101591ADDAA101999999AZ101061AZ201061GA1061+006001081GE19MSL   +99999+99999GF106991061999006001999999KA1120N+02321MA1999999098921MD1999999+0011REMSYN004BUFR
0098825860999992016081500004-05170-039280FM-12+021299999V0200901N0051122000199001000199+02801+02131101541ADDAA101999999AZ101061AZ201061GF100991999999999999999999MA1999999098861MD1999999+0041REMSYN004BUFR
0149825860999992016081512004-05170-039280FM-12+021299999V0200901N0031100600199020000199+02701+02061101471ADDAA101999999AZ101061AZ201061GA1051+006001081GE19MSL   +99999+99999GF105991051999006001999999KA1120N+02321MA1999999098801MD1999999+0061REMSYN004BUFR
0098825860999992016081600004-05170-039280FM-12+021299999V0200901N0051122000199001000199+02601+01961101541ADDAA101999999AZ101061AZ201061GF100991999999999999999999MA1999999098871MD1999999+0011REMSYN004BUFR
0149825860999992016081612004-05170-039280FM-12+021299999V0200901N0031100600199020000199+02801+01971101141ADDAA101999999AZ101061AZ201061GA1061+006001081GE19MSL   +99999+99999GF106991061999006001999999KA1120N+02371MA1999999098871MD1999999+0071REMSYN004BUFR
0136825860999992016081700004-05170-039280FM-12+021299999V0200901N0051199999999001000199+02801+02081101501ADDAA101999999AZ101061AZ201061GA1031+050001081GE19MSL   +99999+99999GF103991031999050001999999MA1999999098841MD1999999+0031REMSYN004BUFR
0181825860999992016081712004-05170-039280FM-12+021299999V0200901N0051100600199020000199+02551+02171101211ADDAA101999999AZ101061AZ201061GA1081+006001071GA2999+999999101GA3999+999999101GE19MSL   +99999+99999GF108991081999006001999999KA1120N+02361MA1999999098561MD1999999-0311REMSYN004BUFR
0098825860999992016081800004-05170-039280FM-12+021299999V0200901N0051122000199001000199+02751+01971101761ADDAA101999999AZ101061AZ201061GF100991999999999999999999MA1999999099071MD1999999-0231REMSYN004BUFR
0149825860999992016081812004-05170-039280FM-12+021299999V0200901N0031100600199020000199+02651+02041101231ADDAA101999999AZ101061AZ201061GA1071+006001081GE19MSL   +99999+99999GF107991071999006001999999KA1120N+02301MA1999999098551MD1999999+0011REMSYN004BUFR
0136825860999992016081900004-05170-039280FM-12+021299999V0200901N0051199999999001000199+02701+02061101751ADDAA101999999AZ101061AZ201061GA1021+050001081GE19MSL   +99999+99999GF102991021999050001999999MA1999999099071MD1999999+0011REMSYN004BUFR
0149825860999992016081912004-05170-039280FM-12+021299999V0200901N0031199999999020000199+02801+02131101231ADDAA101999999AZ101061AZ201061GA1031+006001081GE19MSL   +99999+99999GF103991031999006001999999KA1120N+02301MA1999999098571MD1999999+0021REMSYN004BUFR
0136825860999992016082000004-05170-039280FM-12+021299999V0200501N0051199999999001000199+02701+02081101731ADDAA101999999AZ101061AZ201061GA1021+050001081GE19MSL   +99999+99999GF102991021999050001999999MA1999999099091MD1999999-0071REMSYN004BUFR
0149825860999992016082012004-05170-039280FM-12+021299999V0200901N0031199999999020000199+02801+02201101261ADDAA101999999AZ101061AZ201061GA1041+006001081GE19MSL   +99999+99999GF104991041999006001999999KA1120N+02301MA1999999098601MD1999999+0031REMSYN004BUFR
0098825860999992016082100004-05170-039280FM-12+021299999V0200901N0051122000199001000199+02701+02151101801ADDAA101999999AZ101061AZ201061GF100991999999999999999999MA1999999099121MD1999999-0031REMSYN004BUFR
0149825860999992016082112004-05170-039280FM-12+021299999V0200901N0031100600199020000199+02601+02251101331ADDAA101999999AZ101061AZ201061GA1071+006001081GE19MSL   +99999+99999GF107991071999006001999999KA1120N+02361MA1999999098641MD1999999+0041REMSYN004BUFR
0136825860999992016082200004-05170-039280FM-12+021299999V0200501N0051199999999001000199+02751+02241101821ADDAA101999999AZ101061AZ201061GA1041+050001081GE19MSL   +99999+99999GF104991041999050001999999MA1999999099141MD1999999+0011REMSYN004BUFR
0149825860999992016082212004-05170-039280FM-12+021299999V0200901N0031100600199020000199+02601+02061101561ADDAA101999999AZ101061AZ201061GA1071+006001081GE19MSL   +99999+99999GF107991071999006001999999KA1120N+02381MA1999999098891MD1999999+0251REMSYN004BUFR
0098825860999992016082300004-05170-039280FM-12+021299999V0200901N0051122000199001000199+02751+02241102061ADDAA101999999AZ101061AZ201061GF100991999999999999999999MA1999999099391MD1999999+0251REMSYN004BUFR
0136825860999992016082400004-05170-039280FM-12+021299999V0200901N0026199999999001000199+02801+02081101311ADDAA101999999AZ101061AZ201061GA1999+050001999GE19MSL   +99999+99999GF102991999999050001999999MA1999999098641MD1999999+0221REMSYN004BUFR
0149825860999992016082412004-05170-039280FM-12+021299999V0200901N0031100600199020000199+02901+01751101421ADDAA101999999AZ101061AZ201061GA1061+006001081GE19MSL   +99999+99999GF106991061999006001999999KA1120N+02351MA1999999098771MD1999999+0011REMSYN004BUFR
0136825860999992016082500004-05170-039280FM-12+021299999V0200501N0036199999999001000199+02801+02381101431ADDAA101999999AZ101061AZ201061GA1021+050001081GE19MSL   +99999+99999GF102991021999050001999999MA1999999098681MD1999999+0041REMSYN004BUFR
0149825860999992016082512004-05170-039280FM-12+021299999V0200901N0031199999999020000199+02601+02141101181ADDAA101999999AZ101061AZ201061GA1041+006001081GE19MSL   +99999+99999GF104991041999006001999999KA1120N+02301MA1999999098521MD1999999+0251REMSYN004BUFR
0136825860999992016082600004-05170-039280FM-12+021299999V0200501N0036199999999001000199+02651+02211101241ADDAA101999999AZ101061AZ201061GA1021+050001001GE19MSL   +99999+99999GF102991021999050001999999MA1999999098561MD1999999+0121REMSYN004BUFR
0149825860999992016082612004-05170-039280FM-12+021299999V0200901N0031100600199020000199+02651+02081101221ADDAA101999999AZ101061AZ201061GA1051+006001081GE19MSL   +99999+99999GF105991051999006001999999KA1120N+02401MA1999999098541MD1999999+0021REMSYN004BUFR
0136825860999992016082700004-05170-039280FM-12+021299999V0200501N0031199999999001000199+02701+02261101251ADDAA101999999AZ101061AZ201061GA1021+050001001GE19MSL   +99999+99999GF102991021999050001999999MA1999999098591MD1999999+0031REMSYN004BUFR
0149825860999992016082712004-05170-039280FM-12+021299999V0200901N0031100600199020000199+02801+02381101231ADDAA101999999AZ101061AZ201061GA1061+006001081GE19MSL   +99999+99999GF106991061999006001999999KA1120N+02401MA1999999098561MD1999999+0031REMSYN004BUFR
0098825860999992016082800004-05170-039280FM-12+021299999V0200901N0021122000199001000199+02701+02241101291ADDAA101999999AZ101061AZ201061GF100991999999999999999999MA1999999098621MD1999999+0031REMSYN004BUFR
0149825860999992016082812004-05170-039280FM-12+021299999V0200901N0051100600199020000199+02651+02081101321ADDAA101999999AZ101061AZ201061GA1061+006001081GE19MSL   +99999+99999GF106991061999006001999999KA1120N+02401MA1999999098571MD1999999+0011REMSYN004BUFR
0136825860999992016082900004-05170-039280FM-12+021299999V0200901N0021199999999001000199+02701+02221101231ADDAA101999999AZ101061AZ201061GA1021+050001081GE19MSL   +99999+99999GF102991021999050001999999MA1999999098651MD1999999+0031REMSYN004BUFR
0149825860999992016082912004-05170-039280FM-12+021299999V0200901N0021199999999020000199+02701+02111101181ADDAA101999999AZ101061AZ201061GA1041+006001081GE19MSL   +99999+99999GF104991041999006001999999KA1120N+02301MA1999999098521MD1999999+0051REMSYN004BUFR
0136825860999992016083000004-05170-039280FM-12+021299999V0200901N0031199999999001000199+02801+02181101271ADDAA101999999AZ101061AZ201061GA1021+050001081GE19MSL   +99999+99999GF102991021999050001999999MA1999999098611MD1999999+0041REMSYN004BUFR
0149825860999992016083012004-05170-039280FM-12+021299999V0200901N0031100600199020000199+02801+02181101331ADDAA101999999AZ101061AZ201061GA1061+006001081GE19MSL   +99999+99999GF106991061999006001999999KA1120N+02351MA1999999098661MD1999999+0141REMSYN004BUFR
0136825860999992016083100004-05170-039280FM-12+021299999V0200901N0031199999999001000199+02801+02181101291ADDAA101999999AZ101061AZ201061GA1021+050001001GE19MSL   +99999+99999GF102991021999050001999999MA1999999098631MD1999999+0011REMSYN004BUFR
0149825860999992016083112004-05170-039280FM-12+021299999V0200901N0041100600199020000199+02801+02361101311ADDAA101999999AZ101061AZ201061GA1051+006001081GE19MSL   +99999+99999GF105991051999006001999999KA1120N+02441MA1999999098661MD1999999+0001REMSYN004BUFR
0098825860999992016090100004-05170-039280FM-12+021299999V0200901N0031122000199001000199+02861+02251101101ADDAA101999999AZ101061AZ201061GF100991999999999999999999MA1999999098451MD1999999-0181REMSYN004BUFR
0149825860999992016090112004-05170-039280FM-12+021299999V0200501N0041199999999020000199+02871+02321101351ADDAA101999999AZ101061AZ201061GA1041+006001081GE19MSL   +99999+99999GF104991041999006001999999KA1120N+02501MA1999999098701MD1999999+0041REMSYN004BUFR
0098825860999992016090200004-05170-039280FM-12+021299999V0203601N0000122000199001000199+02701+02411101121ADDAA101999999AZ101061AZ201061GF100991999999999999999999MA1999999098471MD1999999+0021REMSYN004BUFR
0165825860999992016090212004-05170-039280FM-12+021299999V0200901N0051199999999020000199+02721+02171101471ADDAA101999999AZ101061AZ201061GA1021+006001081GA2999+999999001GE19MSL   +99999+99999GF104991021999006001999999KA1120N+02401MA1999999098801MD1999999+0101REMSYN004BUFR
0098825860999992016090300004-05170-039280FM-12+021299999V0200901N0015122000199001000199+02801+02201101161ADDAA101999999AZ101061AZ201061GF100991999999999999999999MA1999999098501MD1999999+0031REMSYN004BUFR
0098825860999992016090400004-05170-039280FM-12+021299999V0201401N0036122000199001000199+02701+02151101111ADDAA101999999AZ101061AZ201061GF100991999999999999999999MA1999999098451MD1999999+0051REMSYN004BUFR
0149825860999992016090512004-05170-039280FM-12+021299999V0201401N0041199999999020000199+02751+02191101461ADDAA101999999AZ101061AZ201061GA1041+006001081GE19MSL   +99999+99999GF104991041999006001999999KA1120N+02341MA1999999098801MD1999999+0061REMSYN004BUFR
0098825860999992016090600004-05170-039280FM-12+021299999V0201401N0041122000199001000199+02701+02151101161ADDAA101999999AZ101061AZ201061GF100991999999999999999999MA1999999098501MD1999999+0011REMSYN004BUFR
0165825860999992016090612004-05170-039280FM-12+021299999V0201401N0031199999999020000199+02801+02201101531ADDAA101999999AZ101061AZ201061GA1021+006001081GA2999+999999001GE19MSL   +99999+99999GF103991021999006001999999KA1120N+02281MA1999999098861MD1999999+0061REMSYN004BUFR
0136825860999992016090700004-05170-039280FM-12+021299999V0200901N0041199999999001000199+02901+02271101161ADDAA101999999AZ101061AZ201061GA1021+050001081GE19MSL   +99999+99999GF102991021999050001999999MA1999999098511MD1999999+0011REMSYN004BUFR
0149825860999992016090712004-05170-039280FM-12+021299999V0201401N0057199999999020000199+02751+02241101461ADDAA101999999AZ101061AZ201061GA1041+006001081GE19MSL   +99999+99999GF104991041999006001999999KA1120N+02301MA1999999098801MD1999999-0061REMSYN004BUFR
